# 17752153 - Angelica

## Common Data

| Field            | Value                     |
|------------------|---------------------------|
| Zone             | Windurst Waters (ID: 238) |
| Block Size       | 29188 bytes               |
| Total Events     | 58                        |
| References Count | 459                       |

## List of Events

| Event ID                   | Entrypoint   |   Size |   Instructions |
|----------------------------|--------------|--------|----------------|
| [65535](#event-65535)      | 0x0000       |      1 |              1 |
| [32690](#event-32690)      | 0x0001       |      7 |              5 |
| [65535.1](#event-655351)   | 0x0008       |     16 |              2 |
| [65535.2](#event-655352)   | 0x0018       |     22 |              4 |
| [65535.3](#event-655353)   | 0x002E       |     16 |              2 |
| [65535.4](#event-655354)   | 0x003E       |     14 |              2 |
| [65535.5](#event-655355)   | 0x004C       |      9 |              3 |
| [65535.6](#event-655356)   | 0x0055       |     16 |              2 |
| [65535.7](#event-655357)   | 0x0065       |     14 |              2 |
| [86](#event-86)            | 0x0073       |     18 |              6 |
| [87](#event-87)            | 0x0085       |     22 |              8 |
| [88](#event-88)            | 0x009B       |     22 |              8 |
| [89](#event-89)            | 0x00B1       |     18 |              6 |
| [90](#event-90)            | 0x00C3       |     79 |             16 |
| [91](#event-91)            | 0x0112       |    259 |             47 |
| [65535.8](#event-655358)   | 0x0215       |     15 |              4 |
| [65535.9](#event-655359)   | 0x0224       |      9 |              5 |
| [65535.10](#event-6553510) | 0x022D       |      9 |              5 |
| [65535.11](#event-6553511) | 0x0236       |      9 |              5 |
| [65535.12](#event-6553512) | 0x023F       |      9 |              5 |
| [65535.13](#event-6553513) | 0x0248       |      9 |              5 |
| [65535.14](#event-6553514) | 0x0251       |      9 |              5 |
| [65535.15](#event-6553515) | 0x025A       |      5 |              3 |
| [65535.16](#event-6553516) | 0x025F       |      5 |              3 |
| [92](#event-92)            | 0x0264       |    541 |             95 |
| [93](#event-93)            | 0x0481       |    481 |             85 |
| [65535.17](#event-6553517) | 0x0662       |      5 |              3 |
| [65535.18](#event-6553518) | 0x0667       |      5 |              3 |
| [65535.19](#event-6553519) | 0x066C       |      5 |              3 |
| [65535.20](#event-6553520) | 0x0671       |     13 |              7 |
| [65535.21](#event-6553521) | 0x067E       |     13 |              7 |
| [65535.22](#event-6553522) | 0x068B       |     13 |              7 |
| [65535.23](#event-6553523) | 0x0698       |     13 |              7 |
| [65535.24](#event-6553524) | 0x06A5       |     13 |              7 |
| [65535.25](#event-6553525) | 0x06B2       |     13 |              7 |
| [102](#event-102)          | 0x06BF       |     27 |              9 |
| [94](#event-94)            | 0x06DA       |    122 |             22 |
| [95](#event-95)            | 0x0754       |     21 |              5 |
| [65535.26](#event-6553526) | 0x0769       |     19 |              6 |
| [96](#event-96)            | 0x077C       |    483 |             75 |
| [65535.27](#event-6553527) | 0x095F       |      5 |              3 |
| [65535.28](#event-6553528) | 0x0964       |      5 |              3 |
| [65535.29](#event-6553529) | 0x0969       |      5 |              3 |
| [65535.30](#event-6553530) | 0x096E       |      5 |              3 |
| [101](#event-101)          | 0x0973       |     22 |              8 |
| [771](#event-771)          | 0x0989       |     89 |             14 |
| [65535.31](#event-6553531) | 0x09E2       |      5 |              3 |
| [65535.32](#event-6553532) | 0x09E7       |      5 |              3 |
| [65535.33](#event-6553533) | 0x09EC       |      5 |              3 |
| [65535.34](#event-6553534) | 0x09F1       |      5 |              3 |
| [65535.35](#event-6553535) | 0x09F6       |      5 |              3 |
| [772](#event-772)          | 0x09FB       |     22 |              8 |
| [773](#event-773)          | 0x0A11       |     36 |              9 |
| [911](#event-911)          | 0x0A35       |    978 |            160 |
| [912](#event-912)          | 0x0E07       |    989 |            158 |
| [913](#event-913)          | 0x11E4       |    410 |             72 |
| [916](#event-916)          | 0x137E       |     11 |              5 |
| [917](#event-917)          | 0x1389       |  22102 |           3717 |

## DAT References (imed_data)

|   Index | Hex Value   |   Dec Value |
|---------|-------------|-------------|
|       0 | 0x3C53      |       15443 |
|       1 | 0x0117      |         279 |
|       2 | 0x001E      |          30 |
|       3 | 0x1D1C      |        7452 |
|       4 | 0x1D1D      |        7453 |
|       5 | 0x1D1E      |        7454 |
|       6 | 0x1D1F      |        7455 |
|       7 | 0x1D20      |        7456 |
|       8 | 0x1D21      |        7457 |
|       9 | 0x1D25      |        7461 |
|      10 | 0x0000      |           0 |
|      11 | 0x0001      |           1 |
|      12 | 0x0002      |           2 |
|      13 | 0x0003      |           3 |
|      14 | 0x0004      |           4 |
|      15 | 0x0005      |           5 |
|      16 | 0x0006      |           6 |
|      17 | 0x0007      |           7 |
|      18 | 0x0008      |           8 |
|      19 | 0x1D22      |        7458 |
|      20 | 0x1D23      |        7459 |
|      21 | 0x1D24      |        7460 |
|      22 | 0x1D26      |        7462 |
|      23 | 0x1D27      |        7463 |
|      24 | 0x1D28      |        7464 |
|      25 | 0x1D29      |        7465 |
|      26 | 0x1D2A      |        7466 |
|      27 | 0x1D2B      |        7467 |
|      28 | 0x1D2C      |        7468 |
|      29 | 0x1D2D      |        7469 |
|      30 | 0x1D2E      |        7470 |
|      31 | 0x1D2F      |        7471 |
|      32 | 0x1D30      |        7472 |
|      33 | 0x1D31      |        7473 |
|      34 | 0x0016      |          22 |
|      35 | 0x0011      |          17 |
|      36 | 0x000E      |          14 |
|      37 | 0x0010      |          16 |
|      38 | 0x0015      |          21 |
|      39 | 0x0012      |          18 |
|      40 | 0x0014      |          20 |
|      41 | 0x000F      |          15 |
|      42 | 0x0013      |          19 |
|      43 | 0x0009      |           9 |
|      44 | 0x000B      |          11 |
|      45 | 0x000A      |          10 |
|      46 | 0x000C      |          12 |
|      47 | 0x000D      |          13 |
|      48 | 0x1D32      |        7474 |
|      49 | 0x1D33      |        7475 |
|      50 | 0x1D34      |        7476 |
|      51 | 0x1D35      |        7477 |
|      52 | 0x1D36      |        7478 |
|      53 | 0x1D41      |        7489 |
|      54 | 0x1D37      |        7479 |
|      55 | 0x1D38      |        7480 |
|      56 | 0x1D39      |        7481 |
|      57 | 0x1D3A      |        7482 |
|      58 | 0x1D3B      |        7483 |
|      59 | 0x1D3C      |        7484 |
|      60 | 0x1D3D      |        7485 |
|      61 | 0x1D3E      |        7486 |
|      62 | 0x1D3F      |        7487 |
|      63 | 0x1D40      |        7488 |
|      64 | 0x1D51      |        7505 |
|      65 | 0x1D52      |        7506 |
|      66 | 0x1D43      |        7491 |
|      67 | 0x1D44      |        7492 |
|      68 | 0x00C8      |         200 |
|      69 | 0x0078      |         120 |
|      70 | 0x0183      |         387 |
|      71 | 0x00A3      |         163 |
|      72 | 0x007F      |         127 |
|      73 | 0x008A      |         138 |
|      74 | 0x1D46      |        7494 |
|      75 | 0x0064      |         100 |
|      76 | 0x1D48      |        7496 |
|      77 | 0x1D47      |        7495 |
|      78 | 0x1D49      |        7497 |
|      79 | 0x0097      |         151 |
|      80 | 0x1D4F      |        7503 |
|      81 | 0x1D50      |        7504 |
|      82 | 0x00C9      |         201 |
|      83 | 0x1D45      |        7493 |
|      84 | 0x1D4A      |        7498 |
|      85 | 0x1D4B      |        7499 |
|      86 | 0x1D4C      |        7500 |
|      87 | 0x1D4D      |        7501 |
|      88 | 0x1D4E      |        7502 |
|      89 | 0x2659      |        9817 |
|      90 | 0x265A      |        9818 |
|      91 | 0x265B      |        9819 |
|      92 | 0x265C      |        9820 |
|      93 | 0x265D      |        9821 |
|      94 | 0x265E      |        9822 |
|      95 | 0x265F      |        9823 |
|      96 | 0x2660      |        9824 |
|      97 | 0x001B      |          27 |
|      98 | 0x007B      |         123 |
|      99 | 0x003C      |          60 |
|     100 | 0x2D36      |       11574 |
|     101 | 0x2D37      |       11575 |
|     102 | 0x2D38      |       11576 |
|     103 | 0x2D39      |       11577 |
|     104 | 0x2D3A      |       11578 |
|     105 | 0x2D3B      |       11579 |
|     106 | 0x2D3C      |       11580 |
|     107 | 0x2D3D      |       11581 |
|     108 | 0x2D3E      |       11582 |
|     109 | 0x2D3F      |       11583 |
|     110 | 0x2D40      |       11584 |
|     111 | 0x2D41      |       11585 |
|     112 | 0x2D42      |       11586 |
|     113 | 0x2D43      |       11587 |
|     114 | 0x2D44      |       11588 |
|     115 | 0x012C      |         300 |
|     116 | 0x0020      |          32 |
|     117 | 0x00EB      |         235 |
|     118 | 0x0098      |         152 |
|     119 | 0x00EE      |         238 |
|     120 | 0x2D45      |       11589 |
|     121 | 0x2D46      |       11590 |
|     122 | 0x2D47      |       11591 |
|     123 | 0x072E      |        1838 |
|     124 | 0x2D48      |       11592 |
|     125 | 0x2D49      |       11593 |
|     126 | 0x2D4A      |       11594 |
|     127 | 0x2D4B      |       11595 |
|     128 | 0x2D4C      |       11596 |
|     129 | 0x2D4D      |       11597 |
|     130 | 0x2D4E      |       11598 |
|     131 | 0x2D4F      |       11599 |
|     132 | 0x2D50      |       11600 |
|     133 | 0x2D51      |       11601 |
|     134 | 0x2D52      |       11602 |
|     135 | 0x2D53      |       11603 |
|     136 | 0x2D54      |       11604 |
|     137 | 0x2D55      |       11605 |
|     138 | 0x2D56      |       11606 |
|     139 | 0x2D57      |       11607 |
|     140 | 0x2D58      |       11608 |
|     141 | 0x00F0      |         240 |
|     142 | 0x005A      |          90 |
|     143 | 0x2D59      |       11609 |
|     144 | 0x2D5A      |       11610 |
|     145 | 0x2D5B      |       11611 |
|     146 | 0x02DD      |         733 |
|     147 | 0x2D5C      |       11612 |
|     148 | 0x2D5D      |       11613 |
|     149 | 0x0024      |          36 |
|     150 | 0x2D5E      |       11614 |
|     151 | 0x2D5F      |       11615 |
|     152 | 0x2D60      |       11616 |
|     153 | 0x2D61      |       11617 |
|     154 | 0x2D62      |       11618 |
|     155 | 0x2D63      |       11619 |
|     156 | 0x2D64      |       11620 |
|     157 | 0x2D65      |       11621 |
|     158 | 0x2E77      |       11895 |
|     159 | 0x2E75      |       11893 |
|     160 | 0x2E76      |       11894 |
|     161 | 0x2D66      |       11622 |
|     162 | 0x2D67      |       11623 |
|     163 | 0x2D68      |       11624 |
|     164 | 0x2D69      |       11625 |
|     165 | 0x2D6A      |       11626 |
|     166 | 0x0041      |          65 |
|     167 | 0x2D6B      |       11627 |
|     168 | 0x2D6C      |       11628 |
|     169 | 0x2D6D      |       11629 |
|     170 | 0x2D6E      |       11630 |
|     171 | 0x2D6F      |       11631 |
|     172 | 0x2D70      |       11632 |
|     173 | 0x2D71      |       11633 |
|     174 | 0x2D72      |       11634 |
|     175 | 0x2D73      |       11635 |
|     176 | 0x2D74      |       11636 |
|     177 | 0x2D75      |       11637 |
|     178 | 0x2D76      |       11638 |
|     179 | 0x2D77      |       11639 |
|     180 | 0x2D78      |       11640 |
|     181 | 0x2D79      |       11641 |
|     182 | 0x2D7A      |       11642 |
|     183 | 0x2D7B      |       11643 |
|     184 | 0x2D7C      |       11644 |
|     185 | 0x2D7D      |       11645 |
|     186 | 0x2D7E      |       11646 |
|     187 | 0x2D7F      |       11647 |
|     188 | 0x2D80      |       11648 |
|     189 | 0x2D81      |       11649 |
|     190 | 0x2D82      |       11650 |
|     191 | 0x2D83      |       11651 |
|     192 | 0x2D84      |       11652 |
|     193 | 0x2D85      |       11653 |
|     194 | 0x2D86      |       11654 |
|     195 | 0x2D87      |       11655 |
|     196 | 0x2D88      |       11656 |
|     197 | 0x2D89      |       11657 |
|     198 | 0x2D8A      |       11658 |
|     199 | 0x2D8B      |       11659 |
|     200 | 0x2D8C      |       11660 |
|     201 | 0x2D8D      |       11661 |
|     202 | 0x2D8E      |       11662 |
|     203 | 0x2D8F      |       11663 |
|     204 | 0x2D90      |       11664 |
|     205 | 0x2D91      |       11665 |
|     206 | 0x2D92      |       11666 |
|     207 | 0x2D93      |       11667 |
|     208 | 0x2D94      |       11668 |
|     209 | 0x2D95      |       11669 |
|     210 | 0x2D96      |       11670 |
|     211 | 0x2D97      |       11671 |
|     212 | 0x2D98      |       11672 |
|     213 | 0x2D99      |       11673 |
|     214 | 0x2D9A      |       11674 |
|     215 | 0x2D9B      |       11675 |
|     216 | 0x2D9C      |       11676 |
|     217 | 0x2D9D      |       11677 |
|     218 | 0x2D9E      |       11678 |
|     219 | 0x2D9F      |       11679 |
|     220 | 0x2DA0      |       11680 |
|     221 | 0x2DA1      |       11681 |
|     222 | 0x2DA2      |       11682 |
|     223 | 0x2DA3      |       11683 |
|     224 | 0x2DA8      |       11688 |
|     225 | 0x2DA9      |       11689 |
|     226 | 0x2DAA      |       11690 |
|     227 | 0x2DAE      |       11694 |
|     228 | 0x007C      |         124 |
|     229 | 0x2DAF      |       11695 |
|     230 | 0x2DB0      |       11696 |
|     231 | 0x2DB1      |       11697 |
|     232 | 0x2DB2      |       11698 |
|     233 | 0x2DB3      |       11699 |
|     234 | 0x2DB4      |       11700 |
|     235 | 0x2DB5      |       11701 |
|     236 | 0x2DB6      |       11702 |
|     237 | 0x2DB7      |       11703 |
|     238 | 0x002D      |          45 |
|     239 | 0x2DB8      |       11704 |
|     240 | 0x2DB9      |       11705 |
|     241 | 0x2DBA      |       11706 |
|     242 | 0x2DBB      |       11707 |
|     243 | 0x2DBC      |       11708 |
|     244 | 0x2DBD      |       11709 |
|     245 | 0x2DBE      |       11710 |
|     246 | 0x2DBF      |       11711 |
|     247 | 0x2DC0      |       11712 |
|     248 | 0x2DC1      |       11713 |
|     249 | 0x005F      |          95 |
|     250 | 0x0069      |         105 |
|     251 | 0x0052      |          82 |
|     252 | 0x0057      |          87 |
|     253 | 0x005C      |          92 |
|     254 | 0x0059      |          89 |
|     255 | 0x005D      |          93 |
|     256 | 0x0061      |          97 |
|     257 | 0x0060      |          96 |
|     258 | 0x0017      |          23 |
|     259 | 0x0018      |          24 |
|     260 | 0x001F      |          31 |
|     261 | 0x018D      |         397 |
|     262 | 0x0175      |         373 |
|     263 | 0x0170      |         368 |
|     264 | 0x0171      |         369 |
|     265 | 0x014C      |         332 |
|     266 | 0x01C1      |         449 |
|     267 | 0x027C      |         636 |
|     268 | 0x027B      |         635 |
|     269 | 0x027D      |         637 |
|     270 | 0x02D3      |         723 |
|     271 | 0x0321      |         801 |
|     272 | 0x0326      |         806 |
|     273 | 0x01E1      |         481 |
|     274 | 0x0343      |         835 |
|     275 | 0x0386      |         902 |
|     276 | 0x0388      |         904 |
|     277 | 0x0361      |         865 |
|     278 | 0x0387      |         903 |
|     279 | 0x038A      |         906 |
|     280 | 0x003F      |          63 |
|     281 | 0x0282      |         642 |
|     282 | 0x0283      |         643 |
|     283 | 0x0288      |         648 |
|     284 | 0x0289      |         649 |
|     285 | 0x028A      |         650 |
|     286 | 0x028B      |         651 |
|     287 | 0x029E      |         670 |
|     288 | 0x0019      |          25 |
|     289 | 0x00C6      |         198 |
|     290 | 0x0032      |          50 |
|     291 | 0x00B5      |         181 |
|     292 | 0x008C      |         140 |
|     293 | 0x008E      |         142 |
|     294 | 0x007A      |         122 |
|     295 | 0x014B      |         331 |
|     296 | 0x0148      |         328 |
|     297 | 0x0166      |         358 |
|     298 | 0x017A      |         378 |
|     299 | 0x0182      |         386 |
|     300 | 0x0192      |         402 |
|     301 | 0x01DF      |         479 |
|     302 | 0x01E9      |         489 |
|     303 | 0x001C      |          28 |
|     304 | 0x00E6      |         230 |
|     305 | 0x00F5      |         245 |
|     306 | 0x007E      |         126 |
|     307 | 0x00F3      |         243 |
|     308 | 0x00F4      |         244 |
|     309 | 0x00E0      |         224 |
|     310 | 0x00E9      |         233 |
|     311 | 0x009E      |         158 |
|     312 | 0x009D      |         157 |
|     313 | 0x00E2      |         226 |
|     314 | 0x00E1      |         225 |
|     315 | 0x014F      |         335 |
|     316 | 0x014E      |         334 |
|     317 | 0x0167      |         359 |
|     318 | 0x00E5      |         229 |
|     319 | 0x0169      |         361 |
|     320 | 0x016A      |         362 |
|     321 | 0x0168      |         360 |
|     322 | 0x0133      |         307 |
|     323 | 0x0174      |         372 |
|     324 | 0x018C      |         396 |
|     325 | 0x0194      |         404 |
|     326 | 0x0195      |         405 |
|     327 | 0x0178      |         376 |
|     328 | 0x0240      |         576 |
|     329 | 0x0197      |         407 |
|     330 | 0x0198      |         408 |
|     331 | 0x01A3      |         419 |
|     332 | 0x019E      |         414 |
|     333 | 0x0246      |         582 |
|     334 | 0x0247      |         583 |
|     335 | 0x0248      |         584 |
|     336 | 0x024B      |         587 |
|     337 | 0x024A      |         586 |
|     338 | 0x024F      |         591 |
|     339 | 0x01C3      |         451 |
|     340 | 0x01C4      |         452 |
|     341 | 0x01EF      |         495 |
|     342 | 0x01F0      |         496 |
|     343 | 0x001A      |          26 |
|     344 | 0x0095      |         149 |
|     345 | 0x001D      |          29 |
|     346 | 0x0073      |         115 |
|     347 | 0x0034      |          52 |
|     348 | 0x005E      |          94 |
|     349 | 0x0072      |         114 |
|     350 | 0x0031      |          49 |
|     351 | 0x006C      |         108 |
|     352 | 0x003A      |          58 |
|     353 | 0x0096      |         150 |
|     354 | 0x0035      |          53 |
|     355 | 0x0085      |         133 |
|     356 | 0x0081      |         129 |
|     357 | 0x0023      |          35 |
|     358 | 0x0033      |          51 |
|     359 | 0x0082      |         130 |
|     360 | 0x0039      |          57 |
|     361 | 0x0038      |          56 |
|     362 | 0x0036      |          54 |
|     363 | 0x0083      |         131 |
|     364 | 0x00A2      |         162 |
|     365 | 0x0022      |          34 |
|     366 | 0x0021      |          33 |
|     367 | 0x0065      |         101 |
|     368 | 0x0086      |         134 |
|     369 | 0x0062      |          98 |
|     370 | 0x008D      |         141 |
|     371 | 0x0037      |          55 |
|     372 | 0x008B      |         139 |
|     373 | 0x002B      |          43 |
|     374 | 0x0067      |         103 |
|     375 | 0x0030      |          48 |
|     376 | 0x00A1      |         161 |
|     377 | 0x0066      |         102 |
|     378 | 0x0075      |         117 |
|     379 | 0x0068      |         104 |
|     380 | 0x0077      |         119 |
|     381 | 0x01FE      |         510 |
|     382 | 0x009F      |         159 |
|     383 | 0x00A4      |         164 |
|     384 | 0x00A9      |         169 |
|     385 | 0x00AC      |         172 |
|     386 | 0x00B2      |         178 |
|     387 | 0x00B0      |         176 |
|     388 | 0x013D      |         317 |
|     389 | 0x0108      |         264 |
|     390 | 0x010C      |         268 |
|     391 | 0x0100      |         256 |
|     392 | 0x00FB      |         251 |
|     393 | 0x00B8      |         184 |
|     394 | 0x011C      |         284 |
|     395 | 0x0042      |          66 |
|     396 | 0x0047      |          71 |
|     397 | 0x0160      |         352 |
|     398 | 0x0043      |          67 |
|     399 | 0x0048      |          72 |
|     400 | 0x004B      |          75 |
|     401 | 0x004C      |          76 |
|     402 | 0x004D      |          77 |
|     403 | 0x005B      |          91 |
|     404 | 0x0058      |          88 |
|     405 | 0x0053      |          83 |
|     406 | 0x0054      |          84 |
|     407 | 0x0161      |         353 |
|     408 | 0x015C      |         348 |
|     409 | 0x016D      |         365 |
|     410 | 0x00C5      |         197 |
|     411 | 0x00C3      |         195 |
|     412 | 0x00C7      |         199 |
|     413 | 0x015E      |         350 |
|     414 | 0x00C4      |         196 |
|     415 | 0x016E      |         366 |
|     416 | 0x00D0      |         208 |
|     417 | 0x00CD      |         205 |
|     418 | 0x00CA      |         202 |
|     419 | 0x00D2      |         210 |
|     420 | 0x00D8      |         216 |
|     421 | 0x00D5      |         213 |
|     422 | 0x00D6      |         214 |
|     423 | 0x013B      |         315 |
|     424 | 0x0136      |         310 |
|     425 | 0x013A      |         314 |
|     426 | 0x0137      |         311 |
|     427 | 0x016F      |         367 |
|     428 | 0x0138      |         312 |
|     429 | 0x0139      |         313 |
|     430 | 0x009A      |         154 |
|     431 | 0x0091      |         145 |
|     432 | 0x009B      |         155 |
|     433 | 0x0099      |         153 |
|     434 | 0x0093      |         147 |
|     435 | 0x0092      |         146 |
|     436 | 0x0071      |         113 |
|     437 | 0x00E8      |         232 |
|     438 | 0x00DD      |         221 |
|     439 | 0x00F8      |         248 |
|     440 | 0x00F1      |         241 |
|     441 | 0x0124      |         292 |
|     442 | 0x012E      |         302 |
|     443 | 0x0129      |         297 |
|     444 | 0x0122      |         290 |
|     445 | 0x0132      |         306 |
|     446 | 0x0126      |         294 |
|     447 | 0x0155      |         341 |
|     448 | 0x0025      |          37 |
|     449 | 0x0029      |          41 |
|     450 | 0x0028      |          40 |
|     451 | 0x007D      |         125 |
|     452 | 0x0079      |         121 |
|     453 | 0x0074      |         116 |
|     454 | 0x00EC      |         236 |
|     455 | 0x019C      |         412 |
|     456 | 0x0193      |         403 |
|     457 | 0x01C6      |         454 |
|     458 | 0x01C7      |         455 |

## String References

- **7452**: Who, me? I'm like, Angelica, the painter. You know, like, it's a pleasure, I'm sure...
- **7453**: You're, how do I say...? Close, but not close enough? Like...you're missing that certain factor, right. Umm, like, you know?
- **7454**: Well I suppose you could call it, like...a feeling. Yeah, a feeling, you know? Like when you meet that certain someone... You know what I'm saying, right?
- **7455**: I have to paint as many pictures as I can before I, like, leave this hostelry, you know?
- **7456**: Like, this hostelry will one day be famous as the place where I spent my formative years perfecting my unique style, right?
- **7457**: The old lady downstairs has been soooo kind to me, like, I really want to pay her back somehow... What should I do?
- **7458**: Hey, you there, kind [sir!/miss!] Like, hold on a tick...
- **7459**: Oh my Goddess! You're, like, totally perfect for this hazily vague image I have in my head for my next painting, you know?
- **7460**: Oh, you simply must model for my next masterpiece.
- **7461**: Model for Angelica's picture? [Like, for sure.../Like, as if...?]
- **7462**: Your nobility is essential for the feel of this scenario I have, my pointy-eared friend.
- **7463**: Could you please, like, model for my next masterpiece?
- **7464**: Your muscular physique is essential for the feel of this scenario I have, my brutish friend.
- **7465**: Could you please, like, model for my next masterpiece, already?
- **7466**: Your daintiness is essential for the feel of this scenario I have, my halfling friend.
- **7467**: Could you please, like, model-wodel for my next masterpiecey-wiecey?
- **7468**: Your potential is essential for the feel of this scenario I have, my fellow Hume.
- **7469**: Could you please, like, model for my next masterpiece?
- **7470**: Your feisty femininity is essential for the feel of this scenario I have, my feline friend.
- **7471**: Could you please, like, model for my next masterpiece?
- **7472**: Oh my Goddess! You can't understand art when you see it, can you? Like, you're lower than the lowest tunnel worm.
- **7473**: That's the spirit! Like, I knew you'd come through!
- **7474**: Stand over there.
- **7475**: Oh, no! Like, my Goddess...
- **7476**: This is, like, totally imperfecto! You're missing that certain something, you know...?
- **7477**: Hmm... $1!
- **7478**: That's it! I can't do without it. Go equip yourself with $1 and come back here.
- **7479**: Hmm... $2!
- **7480**: That's it! I can't do without it. Go equip yourself with $2 and come back here.
- **7481**: Hmm... $3!
- **7482**: That's it! I can't do without it. Go equip yourself with $3 and come back here.
- **7483**: Hmm... $4!
- **7484**: That's it! I can't do without it. Go equip yourself with $4 and come back here.
- **7485**: Hmm... $5!
- **7486**: That's it! I can't do without it. Go equip yourself with $5 and come back here.
- **7487**: Hmm... $6!
- **7488**: That's it! I can't do without it. Go equip yourself with $6 and come back here.
- **7489**: But don't keep me waiting too long, right? I don't know how long I can keep this image in my head. So, like, hurry up already!
- **7491**: Your image is, like, sooo five minutes ago. Like, I don't need your help anymore.
- **7492**: Sooorry, but it's, like, unavoidable. My flashes of inspiration change as fast as Tarutaru hat fashions, right? I have to, like, keep up with the latest trends, you know.
- **7493**: Oh, like, what kept you? But, anyway, I'm glad you got back before I, like, lost the image I was keeping in my head.
- **7494**: So, like, let's get on with it already. Stand over there, right?
- **7498**: Phew... Heehee.t I guess that about does it. Here. I'll give you this portrait as a momento.
- **7499**: Phew... Heehee.t I guess that about does it.
- **7500**: As a bonus I'll also give you my autograph, right? In the near future, you'll be able to, like, fetch a fortune for it.
- **7501**: Phew... I did some good work today.
- **7502**: I know it's, like, strange to say it myself, but...this is a work after my own heart.
- **7503**: I was able to, like, make another fine piece of art, so here... Take this as a reward for your help.
- **7504**: Phew... I was able to do some good work again, today. Like, now I'm all hot and sweaty. Guess that's the 99% perspiration to go with my inspiration. Just goes to show that I'm a genius, right?
- **7505**: Would you, like, model for me...not!? No way, Jose! I was going to ask, but on closer inspection...
- **7506**: You're, you're, you're...devoid of inspiration, banal, plain, monotone, run-of-the-mill, commonplace, ordinary, oh, so average...and like, sooo five minutes ago! Humph!
- **9817**: Have you, like, brought me a letter from the Chieftainness in Kazham?
- **9818**: ...Huh? You're telling me the Temple of Uggalepih is totally crawling with icky monsters and stuff?
- **9819**: What a drag! ...But no, Angelica is not a girl who gives up that easily! It's been my lifelong dream to have that exhibition!
- **9820**: I'm not gonna change my mind. This is, like, a test to see whether I fall on my face, or spread my wings like a psychedelic butterfly!
- **9821**: You just wait right there. I'm gonna write a reply, and I want you to, like, take it back to Kazham for me, okay?
- **9822**: D'ya wanna hear my plan? With my paintings, that temple is gonna go from being a moldy old ruin to, like, a center for modern art.
- **9823**: Each piece will take totally ages, but real perfecto art takes real dedication, y'know? I'm ready for the long haul.
- **9824**: I'm not gonna throw away my dream! I'm gonna paint the canvas with my ambition! Hand me my brushes! Bring on the inspiration!
- **11574**: Oh wow, it's <Player>. So you like, want to be in my paintings again, right?
- **11575**: You lost my painting? That's, like, really uncool, you know.
- **11576**: Could it have been the one that guy Umberto, or whatever, wanted?
- **11577**: Anyway, spill the facts, 'kay?
- **11578**: Oh my Goddess! Attacked by pirates? That's, like, so terrifically terrible!
- **11579**: And the painting was lost in all the, like, confusion and stuff, right?
- **11580**: And you came here under the request of some guy named Diederik to ask me to redo it?
- **11581**: And he's, like, bringing the fuddy-duddy an empty box instead?
- **11582**: Wow, that's, like, so bold! I wonder if he can pull it off!
- **11583**: Anyway, I totally understand your situation now. I'll redo the painting.
- **11584**: This is a test of my brilliance as a painter. I accept!
- **11585**: Now that I think about it, the original was total chocobo fodder anyway. I can, like, do so much better than that!
- **11586**: So he wanted me to paint his dead wife or something, yeah? Diederik gave me a portrait as a reference, but...
- **11587**: ...It's totally wrong! There's, like, no wifeliness in it at all!
- **11588**: This is sooo lame! There's, like, gotta be something else, you know?
- **11589**: Whoa, I just heard a sound, for real!
- **11590**: You can talk to your friend that way? That's uber-neato!
- **11591**: So did you get the lowdown on how I should paint my next masterpiece?
- **11592**: So he had this $1 thing as her memento? ...Oh, it's coming! I'm, like, getting an image!
- **11593**: Oh, ohhh... Quick, go to Korroloka Tunnel and get me that $1 so I can paint before I lose the image!
- **11594**: The $2! This is the old man's memento of his wife, right?
- **11595**: Oh, ohhh... I'm getting something! I'm getting that hazily vague iiimaaage!
- **11596**: Hey, I've seen this before!
- **11597**: Yeah, it was totally in Bastok!
- **11598**: I used to be in Bastok, and all, and there was this lady who used to wear this $2 as, like, a pendant, or something.
- **11599**: She was a painter, and she used to paint pictures of her husband whenever they had a day off.
- **11600**: It was true marital bliss. Her man was an edgy little guy, but she was totally, like, laid-back and all. I think she soothed him.
- **11601**: Of course, her paintings lacked the energy and passion of my work, but they were pretty nice in a sedated kind of way, if you're into that kind of thing.
- **11602**: But she was, like, the bomb at using color!
- **11603**: I could just sit there all day and stare at her paints. They were right on!
- **11604**: What kind of color should I use for her? I just want to use one, but the color I use has to like, change intricately, delicately, depending on how you look at it, like the $2...
- **11605**: ......!
- **11606**: Hold it right there! Could this be!? Oh my Goddess, this is perfect! The woman in the reference portrait and the woman in Bastok!
- **11607**: They're one and the same!? Could it be true?
- **11608**: You! <Player>! Get your friend on the line, like, now!
- **11609**: I knew it! Angelica, you are a genius! Heehee!
- **11610**: Now my portrait will be absolute perfection!
- **11611**: Oh yeah, but like, as long as I've come this far, I might as well get the paints right and do her justice, you know?
- **11612**: I could swear she went into some castle swarming with Yagudo to get an $3 to use in mixing her paint, but I don't remember exactly where.
- **11613**: Anyway, go and get the $3, 'kay? Hurry up, or I'll lose the image!
- **11614**: Ohhh, you really got the $3! Awesome!
- **11616**: Yeah, I heard. I don't, like, have to redo the painting anymore, right?
- **11617**: But I can, like, do so much better now! I could make a total Angelica masterpiece!
- **11618**: Just wait there a second! Don't budge! The passion is burning through my veins! Don't try to stop me!
- **11619**: Well, here it is! This is a totally fine piece of work, even for me!
- **11620**: Phew... I guess this'll make even more Angelica fans. It should be, like, a crime to be this brilliant!
- **11621**: Well, get out there and deliver it now! Like, on with you!
- **11893**: Hey, like, are you still running around on adventures with your friend?
- **11894**: A little curiosity never killed anyone, you know?
- **11895**: Anyway, I'm working soooooo hard on this painting! So make like a tree, and get out of here, 'kay?
- **15443**: Huh? Is this present, like, for me? Truly? I'm, like, totally over the moon right now! My next masterpiece is sooo going to be themed on the Starlight Celebration.

## Events

### Event 65535

#### Metadata

| Field        | Value   |
|--------------|---------|
| Entrypoint   | 0x0000  |
| Data Size    | 1 bytes |
| Instructions | 1       |

```
      00 01 02 03 04 05 06 07  08 09 0A 0B 0C 0D 0E 0F
      -- -- -- -- -- -- -- --  -- -- -- -- -- -- -- --
0000: 00                                                .               
```

#### Opcodes

```
  0: 0x0000 [0x00] END_REQSTACK()
```

### Event 32690

#### Metadata

| Field        | Value   |
|--------------|---------|
| Entrypoint   | 0x0001  |
| Data Size    | 7 bytes |
| Instructions | 5       |

```
      00 01 02 03 04 05 06 07  08 09 0A 0B 0C 0D 0E 0F
      -- -- -- -- -- -- -- --  -- -- -- -- -- -- -- --
0000:    42 1D 00 80 23 21 00                            B...#!.        
```

#### Opcodes

```
  0: 0x0001 [0x42] SET_CLI_EVENT_CANCEL_DATA()
  1: 0x0002 [0x1D] PRINT_EVENT_MESSAGE(message_id=15443*)
    → "Huh? Is this present, like, for me? Truly? I'm, like, totally over the moon right now! My next masterpiece is sooo going to be themed on the Starlight Celebration."
  2: 0x0005 [0x23] WAIT_FOR_DIALOG_INTERACTION
  3: 0x0006 [0x21] END_EVENT
  4: 0x0007 [0x00] END_REQSTACK()
```

### Event 65535.1

#### Metadata

| Field        | Value    |
|--------------|----------|
| Entrypoint   | 0x0008   |
| Data Size    | 16 bytes |
| Instructions | 2        |

```
      00 01 02 03 04 05 06 07  08 09 0A 0B 0C 0D 0E 0F
      -- -- -- -- -- -- -- --  -- -- -- -- -- -- -- --
0000:                          5B 01 80 F8 FF FF 7F F8          [.......
0010: FF FF 7F 70 72 65 30 00                           ...pre0.        
```

#### Opcodes

```
  0: 0x0008 [0x5B] LOAD_EXT_SCHEDULER: Load scheduler "pre0" with entities [EventEntity, EventEntity], work=279*
  1: 0x0017 [0x00] END_REQSTACK()
```

### Event 65535.2

#### Metadata

| Field        | Value    |
|--------------|----------|
| Entrypoint   | 0x0018   |
| Data Size    | 22 bytes |
| Instructions | 4        |

```
      00 01 02 03 04 05 06 07  08 09 0A 0B 0C 0D 0E 0F
      -- -- -- -- -- -- -- --  -- -- -- -- -- -- -- --
0010:                          53 F8 FF FF 7F F8 FF FF          S.......
0020: 7F 70 72 65 30 5E 69 64  6C 30 1C 02 80 00        .pre0^idl0....  
```

#### Opcodes

```
  0: 0x0018 [0x53] WAIT_SCHEDULER_TASK: Wait for scheduler "pre0" with entities [EventEntity, EventEntity]
  1: 0x0025 [0x5E] EventEntity goes idle (kills current action) (animation: "idl0")
  2: 0x002A [0x1C] WAIT(30* ticks)
  3: 0x002D [0x00] END_REQSTACK()
```

### Event 65535.3

#### Metadata

| Field        | Value    |
|--------------|----------|
| Entrypoint   | 0x002E   |
| Data Size    | 16 bytes |
| Instructions | 2        |

```
      00 01 02 03 04 05 06 07  08 09 0A 0B 0C 0D 0E 0F
      -- -- -- -- -- -- -- --  -- -- -- -- -- -- -- --
0020:                                            5B 01                [.
0030: 80 F8 FF FF 7F F8 FF FF  7F 70 72 65 31 00        .........pre1.  
```

#### Opcodes

```
  0: 0x002E [0x5B] LOAD_EXT_SCHEDULER: Load scheduler "pre1" with entities [EventEntity, EventEntity], work=279*
  1: 0x003D [0x00] END_REQSTACK()
```

### Event 65535.4

#### Metadata

| Field        | Value    |
|--------------|----------|
| Entrypoint   | 0x003E   |
| Data Size    | 14 bytes |
| Instructions | 2        |

```
      00 01 02 03 04 05 06 07  08 09 0A 0B 0C 0D 0E 0F
      -- -- -- -- -- -- -- --  -- -- -- -- -- -- -- --
0030:                                            53 F8                S.
0040: FF FF 7F F8 FF FF 7F 70  72 65 31 00              .......pre1.    
```

#### Opcodes

```
  0: 0x003E [0x53] WAIT_SCHEDULER_TASK: Wait for scheduler "pre1" with entities [EventEntity, EventEntity]
  1: 0x004B [0x00] END_REQSTACK()
```

### Event 65535.5

#### Metadata

| Field        | Value   |
|--------------|---------|
| Entrypoint   | 0x004C  |
| Data Size    | 9 bytes |
| Instructions | 3       |

```
      00 01 02 03 04 05 06 07  08 09 0A 0B 0C 0D 0E 0F
      -- -- -- -- -- -- -- --  -- -- -- -- -- -- -- --
0040:                                      5E 69 64 6C              ^idl
0050: 30 1C 02 80 00                                    0....           
```

#### Opcodes

```
  0: 0x004C [0x5E] EventEntity goes idle (kills current action) (animation: "idl0")
  1: 0x0051 [0x1C] WAIT(30* ticks)
  2: 0x0054 [0x00] END_REQSTACK()
```

### Event 65535.6

#### Metadata

| Field        | Value    |
|--------------|----------|
| Entrypoint   | 0x0055   |
| Data Size    | 16 bytes |
| Instructions | 2        |

```
      00 01 02 03 04 05 06 07  08 09 0A 0B 0C 0D 0E 0F
      -- -- -- -- -- -- -- --  -- -- -- -- -- -- -- --
0050:                5B 01 80  F8 FF FF 7F F8 FF FF 7F       [..........
0060: 70 72 65 30 00                                    pre0.           
```

#### Opcodes

```
  0: 0x0055 [0x5B] LOAD_EXT_SCHEDULER: Load scheduler "pre0" with entities [EventEntity, EventEntity], work=279*
  1: 0x0064 [0x00] END_REQSTACK()
```

### Event 65535.7

#### Metadata

| Field        | Value    |
|--------------|----------|
| Entrypoint   | 0x0065   |
| Data Size    | 14 bytes |
| Instructions | 2        |

```
      00 01 02 03 04 05 06 07  08 09 0A 0B 0C 0D 0E 0F
      -- -- -- -- -- -- -- --  -- -- -- -- -- -- -- --
0060:                53 F8 FF  FF 7F F8 FF FF 7F 70 72       S........pr
0070: 65 30 00                                          e0.             
```

#### Opcodes

```
  0: 0x0065 [0x53] WAIT_SCHEDULER_TASK: Wait for scheduler "pre0" with entities [EventEntity, EventEntity]
  1: 0x0072 [0x00] END_REQSTACK()
```

### Event 86

#### Metadata

| Field        | Value    |
|--------------|----------|
| Entrypoint   | 0x0073   |
| Data Size    | 18 bytes |
| Instructions | 6        |

```
      00 01 02 03 04 05 06 07  08 09 0A 0B 0C 0D 0E 0F
      -- -- -- -- -- -- -- --  -- -- -- -- -- -- -- --
0070:          79 00 59 E0 0E  01 F0 FF FF 7F 1D 03 80     y.Y..........
0080: 23 20 00 21 00                                    # .!.           
```

#### Opcodes

```
  0: 0x0073 [0x79] Angelica (ID: 17752153/0x010EE059) looks at LocalPlayer (Basic look)
  1: 0x007D [0x1D] PRINT_EVENT_MESSAGE(message_id=7452*)
    → "Who, me? I'm like, Angelica, the painter. You know, like, it's a pleasure, I'm sure..."
  2: 0x0080 [0x23] WAIT_FOR_DIALOG_INTERACTION
  3: 0x0081 [0x20] SET_CLI_EVENT_UC_FLAG: Unlock player control
  4: 0x0083 [0x21] END_EVENT
  5: 0x0084 [0x00] END_REQSTACK()
```

### Event 87

#### Metadata

| Field        | Value    |
|--------------|----------|
| Entrypoint   | 0x0085   |
| Data Size    | 22 bytes |
| Instructions | 8        |

```
      00 01 02 03 04 05 06 07  08 09 0A 0B 0C 0D 0E 0F
      -- -- -- -- -- -- -- --  -- -- -- -- -- -- -- --
0080:                79 00 59  E0 0E 01 F0 FF FF 7F 1D       y.Y........
0090: 04 80 23 1D 05 80 23 20  00 21 00                 ..#...# .!.     
```

#### Opcodes

```
  0: 0x0085 [0x79] Angelica (ID: 17752153/0x010EE059) looks at LocalPlayer (Basic look)
  1: 0x008F [0x1D] PRINT_EVENT_MESSAGE(message_id=7453*)
    → "You're, how do I say...? Close, but not close enough? Like...you're missing that certain factor, right. Umm, like, you know?"
  2: 0x0092 [0x23] WAIT_FOR_DIALOG_INTERACTION
  3: 0x0093 [0x1D] PRINT_EVENT_MESSAGE(message_id=7454*)
    → "Well I suppose you could call it, like...a feeling. Yeah, a feeling, you know? Like when you meet that certain someone... You know what I'm saying, right?"
  4: 0x0096 [0x23] WAIT_FOR_DIALOG_INTERACTION
  5: 0x0097 [0x20] SET_CLI_EVENT_UC_FLAG: Unlock player control
  6: 0x0099 [0x21] END_EVENT
  7: 0x009A [0x00] END_REQSTACK()
```

### Event 88

#### Metadata

| Field        | Value    |
|--------------|----------|
| Entrypoint   | 0x009B   |
| Data Size    | 22 bytes |
| Instructions | 8        |

```
      00 01 02 03 04 05 06 07  08 09 0A 0B 0C 0D 0E 0F
      -- -- -- -- -- -- -- --  -- -- -- -- -- -- -- --
0090:                                   79 00 59 E0 0E             y.Y..
00A0: 01 F0 FF FF 7F 1D 06 80  23 1D 07 80 23 20 00 21  ........#...# .!
00B0: 00                                                .               
```

#### Opcodes

```
  0: 0x009B [0x79] Angelica (ID: 17752153/0x010EE059) looks at LocalPlayer (Basic look)
  1: 0x00A5 [0x1D] PRINT_EVENT_MESSAGE(message_id=7455*)
    → "I have to paint as many pictures as I can before I, like, leave this hostelry, you know?"
  2: 0x00A8 [0x23] WAIT_FOR_DIALOG_INTERACTION
  3: 0x00A9 [0x1D] PRINT_EVENT_MESSAGE(message_id=7456*)
    → "Like, this hostelry will one day be famous as the place where I spent my formative years perfecting my unique style, right?"
  4: 0x00AC [0x23] WAIT_FOR_DIALOG_INTERACTION
  5: 0x00AD [0x20] SET_CLI_EVENT_UC_FLAG: Unlock player control
  6: 0x00AF [0x21] END_EVENT
  7: 0x00B0 [0x00] END_REQSTACK()
```

### Event 89

#### Metadata

| Field        | Value    |
|--------------|----------|
| Entrypoint   | 0x00B1   |
| Data Size    | 18 bytes |
| Instructions | 6        |

```
      00 01 02 03 04 05 06 07  08 09 0A 0B 0C 0D 0E 0F
      -- -- -- -- -- -- -- --  -- -- -- -- -- -- -- --
00B0:    79 00 59 E0 0E 01 F0  FF FF 7F 1D 08 80 23 20   y.Y..........# 
00C0: 00 21 00                                          .!.             
```

#### Opcodes

```
  0: 0x00B1 [0x79] Angelica (ID: 17752153/0x010EE059) looks at LocalPlayer (Basic look)
  1: 0x00BB [0x1D] PRINT_EVENT_MESSAGE(message_id=7457*)
    → "The old lady downstairs has been soooo kind to me, like, I really want to pay her back somehow... What should I do?"
  2: 0x00BE [0x23] WAIT_FOR_DIALOG_INTERACTION
  3: 0x00BF [0x20] SET_CLI_EVENT_UC_FLAG: Unlock player control
  4: 0x00C1 [0x21] END_EVENT
  5: 0x00C2 [0x00] END_REQSTACK()
```

### Event 90

#### Metadata

| Field        | Value    |
|--------------|----------|
| Entrypoint   | 0x00C3   |
| Data Size    | 79 bytes |
| Instructions | 16       |

```
      00 01 02 03 04 05 06 07  08 09 0A 0B 0C 0D 0E 0F
      -- -- -- -- -- -- -- --  -- -- -- -- -- -- -- --
00C0:          29 08 F0 FF FF  7F 04 29 0B 59 E0 0E 01     )......).Y...
00D0: 0F 29 0B 59 E0 0E 01 10  24 09 80 0A 80 0A 80 25  .).Y....$......%
00E0: 02 00 10 0A 80 00 F7 00  03 01 10 0B 80 29 0B 59  .............).Y
00F0: E0 0E 01 17 01 0E 01 02  00 10 0B 80 00 0E 01 03  ................
0100: 01 10 0C 80 29 0B 59 E0  0E 01 16 01 0E 01 20 00  ....).Y....... .
0110: 21 00                                             !.              
```

#### Opcodes

```
  0: 0x00C3 [0x29] REQ_SET_WAIT(priority=0x08, entity_id=LocalPlayer, tag_num=0x04)
  1: 0x00CA [0x29] REQ_SET_WAIT(priority=0x0B, entity_id=Angelica (ID: 17752153/0x010EE059), tag_num=0x0F)
  2: 0x00D1 [0x29] REQ_SET_WAIT(priority=0x0B, entity_id=Angelica (ID: 17752153/0x010EE059), tag_num=0x10)
  3: 0x00D8 [0x24] CREATE_DIALOG(message_id=7461*, default_option=0*, option_flags=0*)
    → "Model for Angelica's picture? [Like, for sure.../Like, as if...?]"
  4: 0x00DF [0x25] WAIT_DIALOG_SELECT()
  5: 0x00E0 [0x02] IF !(Work_Zone[0] == 0*) GOTO 0x00F7
  6: 0x00E8 [0x03] Work_Zone[1] = 1*
  7: 0x00ED [0x29] REQ_SET_WAIT(priority=0x0B, entity_id=Angelica (ID: 17752153/0x010EE059), tag_num=0x17)
  8: 0x00F4 [0x01] GOTO 0x010E
  9: 0x00F7 [0x02] IF !(Work_Zone[0] == 1*) GOTO 0x010E
 10: 0x00FF [0x03] Work_Zone[1] = 2*
 11: 0x0104 [0x29] REQ_SET_WAIT(priority=0x0B, entity_id=Angelica (ID: 17752153/0x010EE059), tag_num=0x16)
 12: 0x010B [0x01] GOTO 0x010E

SUBROUTINE_010E:
 13: 0x010E [0x20] SET_CLI_EVENT_UC_FLAG: Unlock player control
 14: 0x0110 [0x21] END_EVENT
 15: 0x0111 [0x00] END_REQSTACK()
```

### Event 91

#### Metadata

| Field        | Value     |
|--------------|-----------|
| Entrypoint   | 0x0112    |
| Data Size    | 259 bytes |
| Instructions | 47        |

```
      00 01 02 03 04 05 06 07  08 09 0A 0B 0C 0D 0E 0F
      -- -- -- -- -- -- -- --  -- -- -- -- -- -- -- --
0110:       79 00 59 E0 0E 01  F0 FF FF 7F 29 08 F0 FF    y.Y.......)...
0120: FF 7F 05 02 02 10 0B 80  80 3A 01 03 01 10 0B 80  .........:......
0130: 29 0B 59 E0 0E 01 14 01  DB 01 02 02 10 0C 80 80  ).Y.............
0140: 51 01 03 01 10 0B 80 29  0B 59 E0 0E 01 14 01 DB  Q......).Y......
0150: 01 02 02 10 0D 80 80 68  01 03 01 10 0E 80 29 0B  .......h......).
0160: 59 E0 0E 01 11 01 DB 01  02 02 10 0E 80 80 7F 01  Y...............
0170: 03 01 10 0E 80 29 0B 59  E0 0E 01 11 01 DB 01 02  .....).Y........
0180: 02 10 0F 80 80 96 01 03  01 10 0C 80 29 0B 59 E0  ............).Y.
0190: 0E 01 13 01 DB 01 02 02  10 10 80 80 AD 01 03 01  ................
01A0: 10 0C 80 29 0B 59 E0 0E  01 13 01 DB 01 02 02 10  ...).Y..........
01B0: 11 80 80 C4 01 03 01 10  0F 80 29 0B 59 E0 0E 01  ..........).Y...
01C0: 15 01 DB 01 02 02 10 12  80 80 DB 01 03 01 10 0D  ................
01D0: 80 29 0B 59 E0 0E 01 12  01 DB 01 24 09 80 0A 80  .).Y.......$....
01E0: 0A 80 25 02 00 10 0A 80  00 FA 01 03 01 10 0B 80  ..%.............
01F0: 29 0B 59 E0 0E 01 17 01  11 02 02 00 10 0B 80 00  ).Y.............
0200: 11 02 03 01 10 0C 80 29  0B 59 E0 0E 01 16 01 11  .......).Y......
0210: 02 20 00 21 00                                    . .!.           
```

#### Opcodes

```
  0: 0x0112 [0x79] Angelica (ID: 17752153/0x010EE059) looks at LocalPlayer (Basic look)
  1: 0x011C [0x29] REQ_SET_WAIT(priority=0x08, entity_id=LocalPlayer, tag_num=0x05)
  2: 0x0123 [0x02] IF !(Work_Zone[2] == 1*) GOTO 0x013A
  3: 0x012B [0x03] Work_Zone[1] = 1*
  4: 0x0130 [0x29] REQ_SET_WAIT(priority=0x0B, entity_id=Angelica (ID: 17752153/0x010EE059), tag_num=0x14)
  5: 0x0137 [0x01] GOTO 0x01DB
  6: 0x013A [0x02] IF !(Work_Zone[2] == 2*) GOTO 0x0151
  7: 0x0142 [0x03] Work_Zone[1] = 1*
  8: 0x0147 [0x29] REQ_SET_WAIT(priority=0x0B, entity_id=Angelica (ID: 17752153/0x010EE059), tag_num=0x14)
  9: 0x014E [0x01] GOTO 0x01DB
 10: 0x0151 [0x02] IF !(Work_Zone[2] == 3*) GOTO 0x0168
 11: 0x0159 [0x03] Work_Zone[1] = 4*
 12: 0x015E [0x29] REQ_SET_WAIT(priority=0x0B, entity_id=Angelica (ID: 17752153/0x010EE059), tag_num=0x11)
 13: 0x0165 [0x01] GOTO 0x01DB
 14: 0x0168 [0x02] IF !(Work_Zone[2] == 4*) GOTO 0x017F
 15: 0x0170 [0x03] Work_Zone[1] = 4*
 16: 0x0175 [0x29] REQ_SET_WAIT(priority=0x0B, entity_id=Angelica (ID: 17752153/0x010EE059), tag_num=0x11)
 17: 0x017C [0x01] GOTO 0x01DB
 18: 0x017F [0x02] IF !(Work_Zone[2] == 5*) GOTO 0x0196
 19: 0x0187 [0x03] Work_Zone[1] = 2*
 20: 0x018C [0x29] REQ_SET_WAIT(priority=0x0B, entity_id=Angelica (ID: 17752153/0x010EE059), tag_num=0x13)
 21: 0x0193 [0x01] GOTO 0x01DB
 22: 0x0196 [0x02] IF !(Work_Zone[2] == 6*) GOTO 0x01AD
 23: 0x019E [0x03] Work_Zone[1] = 2*
 24: 0x01A3 [0x29] REQ_SET_WAIT(priority=0x0B, entity_id=Angelica (ID: 17752153/0x010EE059), tag_num=0x13)
 25: 0x01AA [0x01] GOTO 0x01DB
 26: 0x01AD [0x02] IF !(Work_Zone[2] == 7*) GOTO 0x01C4
 27: 0x01B5 [0x03] Work_Zone[1] = 5*
 28: 0x01BA [0x29] REQ_SET_WAIT(priority=0x0B, entity_id=Angelica (ID: 17752153/0x010EE059), tag_num=0x15)
 29: 0x01C1 [0x01] GOTO 0x01DB
 30: 0x01C4 [0x02] IF !(Work_Zone[2] == 8*) GOTO 0x01DB
 31: 0x01CC [0x03] Work_Zone[1] = 3*
 32: 0x01D1 [0x29] REQ_SET_WAIT(priority=0x0B, entity_id=Angelica (ID: 17752153/0x010EE059), tag_num=0x12)
 33: 0x01D8 [0x01] GOTO 0x01DB

SUBROUTINE_01DB:
 34: 0x01DB [0x24] CREATE_DIALOG(message_id=7461*, default_option=0*, option_flags=0*)
    → "Model for Angelica's picture? [Like, for sure.../Like, as if...?]"
 35: 0x01E2 [0x25] WAIT_DIALOG_SELECT()
 36: 0x01E3 [0x02] IF !(Work_Zone[0] == 0*) GOTO 0x01FA
 37: 0x01EB [0x03] Work_Zone[1] = 1*
 38: 0x01F0 [0x29] REQ_SET_WAIT(priority=0x0B, entity_id=Angelica (ID: 17752153/0x010EE059), tag_num=0x17)
 39: 0x01F7 [0x01] GOTO 0x0211
 40: 0x01FA [0x02] IF !(Work_Zone[0] == 1*) GOTO 0x0211
 41: 0x0202 [0x03] Work_Zone[1] = 2*
 42: 0x0207 [0x29] REQ_SET_WAIT(priority=0x0B, entity_id=Angelica (ID: 17752153/0x010EE059), tag_num=0x16)
 43: 0x020E [0x01] GOTO 0x0211

SUBROUTINE_0211:
 44: 0x0211 [0x20] SET_CLI_EVENT_UC_FLAG: Unlock player control
 45: 0x0213 [0x21] END_EVENT
 46: 0x0214 [0x00] END_REQSTACK()
```

### Event 65535.8

#### Metadata

| Field        | Value    |
|--------------|----------|
| Entrypoint   | 0x0215   |
| Data Size    | 15 bytes |
| Instructions | 4        |

```
      00 01 02 03 04 05 06 07  08 09 0A 0B 0C 0D 0E 0F
      -- -- -- -- -- -- -- --  -- -- -- -- -- -- -- --
0210:                79 00 59  E0 0E 01 F0 FF FF 7F 1D       y.Y........
0220: 13 80 23 00                                       ..#.            
```

#### Opcodes

```
  0: 0x0215 [0x79] Angelica (ID: 17752153/0x010EE059) looks at LocalPlayer (Basic look)
  1: 0x021F [0x1D] PRINT_EVENT_MESSAGE(message_id=7458*)
    → "Hey, you there, kind [sir!/miss!] Like, hold on a tick..."
  2: 0x0222 [0x23] WAIT_FOR_DIALOG_INTERACTION
  3: 0x0223 [0x00] END_REQSTACK()
```

### Event 65535.9

#### Metadata

| Field        | Value   |
|--------------|---------|
| Entrypoint   | 0x0224  |
| Data Size    | 9 bytes |
| Instructions | 5       |

```
      00 01 02 03 04 05 06 07  08 09 0A 0B 0C 0D 0E 0F
      -- -- -- -- -- -- -- --  -- -- -- -- -- -- -- --
0220:             1D 14 80 23  1D 15 80 23 00               ...#...#.   
```

#### Opcodes

```
  0: 0x0224 [0x1D] PRINT_EVENT_MESSAGE(message_id=7459*)
    → "Oh my Goddess! You're, like, totally perfect for this hazily vague image I have in my head for my next painting, you know?"
  1: 0x0227 [0x23] WAIT_FOR_DIALOG_INTERACTION
  2: 0x0228 [0x1D] PRINT_EVENT_MESSAGE(message_id=7460*)
    → "Oh, you simply must model for my next masterpiece."
  3: 0x022B [0x23] WAIT_FOR_DIALOG_INTERACTION
  4: 0x022C [0x00] END_REQSTACK()
```

### Event 65535.10

#### Metadata

| Field        | Value   |
|--------------|---------|
| Entrypoint   | 0x022D  |
| Data Size    | 9 bytes |
| Instructions | 5       |

```
      00 01 02 03 04 05 06 07  08 09 0A 0B 0C 0D 0E 0F
      -- -- -- -- -- -- -- --  -- -- -- -- -- -- -- --
0220:                                         1D 16 80               ...
0230: 23 1D 17 80 23 00                                 #...#.          
```

#### Opcodes

```
  0: 0x022D [0x1D] PRINT_EVENT_MESSAGE(message_id=7462*)
    → "Your nobility is essential for the feel of this scenario I have, my pointy-eared friend."
  1: 0x0230 [0x23] WAIT_FOR_DIALOG_INTERACTION
  2: 0x0231 [0x1D] PRINT_EVENT_MESSAGE(message_id=7463*)
    → "Could you please, like, model for my next masterpiece?"
  3: 0x0234 [0x23] WAIT_FOR_DIALOG_INTERACTION
  4: 0x0235 [0x00] END_REQSTACK()
```

### Event 65535.11

#### Metadata

| Field        | Value   |
|--------------|---------|
| Entrypoint   | 0x0236  |
| Data Size    | 9 bytes |
| Instructions | 5       |

```
      00 01 02 03 04 05 06 07  08 09 0A 0B 0C 0D 0E 0F
      -- -- -- -- -- -- -- --  -- -- -- -- -- -- -- --
0230:                   1D 18  80 23 1D 19 80 23 00           ...#...#. 
```

#### Opcodes

```
  0: 0x0236 [0x1D] PRINT_EVENT_MESSAGE(message_id=7464*)
    → "Your muscular physique is essential for the feel of this scenario I have, my brutish friend."
  1: 0x0239 [0x23] WAIT_FOR_DIALOG_INTERACTION
  2: 0x023A [0x1D] PRINT_EVENT_MESSAGE(message_id=7465*)
    → "Could you please, like, model for my next masterpiece, already?"
  3: 0x023D [0x23] WAIT_FOR_DIALOG_INTERACTION
  4: 0x023E [0x00] END_REQSTACK()
```

### Event 65535.12

#### Metadata

| Field        | Value   |
|--------------|---------|
| Entrypoint   | 0x023F  |
| Data Size    | 9 bytes |
| Instructions | 5       |

```
      00 01 02 03 04 05 06 07  08 09 0A 0B 0C 0D 0E 0F
      -- -- -- -- -- -- -- --  -- -- -- -- -- -- -- --
0230:                                               1D                 .
0240: 1A 80 23 1D 1B 80 23 00                           ..#...#.        
```

#### Opcodes

```
  0: 0x023F [0x1D] PRINT_EVENT_MESSAGE(message_id=7466*)
    → "Your daintiness is essential for the feel of this scenario I have, my halfling friend."
  1: 0x0242 [0x23] WAIT_FOR_DIALOG_INTERACTION
  2: 0x0243 [0x1D] PRINT_EVENT_MESSAGE(message_id=7467*)
    → "Could you please, like, model-wodel for my next masterpiecey-wiecey?"
  3: 0x0246 [0x23] WAIT_FOR_DIALOG_INTERACTION
  4: 0x0247 [0x00] END_REQSTACK()
```

### Event 65535.13

#### Metadata

| Field        | Value   |
|--------------|---------|
| Entrypoint   | 0x0248  |
| Data Size    | 9 bytes |
| Instructions | 5       |

```
      00 01 02 03 04 05 06 07  08 09 0A 0B 0C 0D 0E 0F
      -- -- -- -- -- -- -- --  -- -- -- -- -- -- -- --
0240:                          1D 1C 80 23 1D 1D 80 23          ...#...#
0250: 00                                                .               
```

#### Opcodes

```
  0: 0x0248 [0x1D] PRINT_EVENT_MESSAGE(message_id=7468*)
    → "Your potential is essential for the feel of this scenario I have, my fellow Hume."
  1: 0x024B [0x23] WAIT_FOR_DIALOG_INTERACTION
  2: 0x024C [0x1D] PRINT_EVENT_MESSAGE(message_id=7469*)
    → "Could you please, like, model for my next masterpiece?"
  3: 0x024F [0x23] WAIT_FOR_DIALOG_INTERACTION
  4: 0x0250 [0x00] END_REQSTACK()
```

### Event 65535.14

#### Metadata

| Field        | Value   |
|--------------|---------|
| Entrypoint   | 0x0251  |
| Data Size    | 9 bytes |
| Instructions | 5       |

```
      00 01 02 03 04 05 06 07  08 09 0A 0B 0C 0D 0E 0F
      -- -- -- -- -- -- -- --  -- -- -- -- -- -- -- --
0250:    1D 1E 80 23 1D 1F 80  23 00                     ...#...#.      
```

#### Opcodes

```
  0: 0x0251 [0x1D] PRINT_EVENT_MESSAGE(message_id=7470*)
    → "Your feisty femininity is essential for the feel of this scenario I have, my feline friend."
  1: 0x0254 [0x23] WAIT_FOR_DIALOG_INTERACTION
  2: 0x0255 [0x1D] PRINT_EVENT_MESSAGE(message_id=7471*)
    → "Could you please, like, model for my next masterpiece?"
  3: 0x0258 [0x23] WAIT_FOR_DIALOG_INTERACTION
  4: 0x0259 [0x00] END_REQSTACK()
```

### Event 65535.15

#### Metadata

| Field        | Value   |
|--------------|---------|
| Entrypoint   | 0x025A  |
| Data Size    | 5 bytes |
| Instructions | 3       |

```
      00 01 02 03 04 05 06 07  08 09 0A 0B 0C 0D 0E 0F
      -- -- -- -- -- -- -- --  -- -- -- -- -- -- -- --
0250:                                1D 20 80 23 00               . .#. 
```

#### Opcodes

```
  0: 0x025A [0x1D] PRINT_EVENT_MESSAGE(message_id=7472*)
    → "Oh my Goddess! You can't understand art when you see it, can you? Like, you're lower than the lowest tunnel worm."
  1: 0x025D [0x23] WAIT_FOR_DIALOG_INTERACTION
  2: 0x025E [0x00] END_REQSTACK()
```

### Event 65535.16

#### Metadata

| Field        | Value   |
|--------------|---------|
| Entrypoint   | 0x025F  |
| Data Size    | 5 bytes |
| Instructions | 3       |

```
      00 01 02 03 04 05 06 07  08 09 0A 0B 0C 0D 0E 0F
      -- -- -- -- -- -- -- --  -- -- -- -- -- -- -- --
0250:                                               1D                 .
0260: 21 80 23 00                                       !.#.            
```

#### Opcodes

```
  0: 0x025F [0x1D] PRINT_EVENT_MESSAGE(message_id=7473*)
    → "That's the spirit! Like, I knew you'd come through!"
  1: 0x0262 [0x23] WAIT_FOR_DIALOG_INTERACTION
  2: 0x0263 [0x00] END_REQSTACK()
```

### Event 92

#### Metadata

| Field        | Value     |
|--------------|-----------|
| Entrypoint   | 0x0264    |
| Data Size    | 541 bytes |
| Instructions | 95        |

```
      00 01 02 03 04 05 06 07  08 09 0A 0B 0C 0D 0E 0F
      -- -- -- -- -- -- -- --  -- -- -- -- -- -- -- --
0260:             79 00 59 E0  0E 01 F0 FF FF 7F 29 0B      y.Y.......).
0270: 59 E0 0E 01 1B 29 0B 59  E0 0E 01 1C 29 08 F0 FF  Y....).Y....)...
0280: FF 7F 07 02 02 10 22 80  80 9A 02 29 0A 59 E0 0E  ......"....).Y..
0290: 01 1D 03 01 10 0B 80 01  7D 04 02 02 10 23 80 80  ........}....#..
02A0: B1 02 29 0A 59 E0 0E 01  1D 03 01 10 0B 80 01 7D  ..).Y..........}
02B0: 04 02 02 10 0B 80 80 C8  02 29 0A 59 E0 0E 01 1D  .........).Y....
02C0: 03 01 10 0B 80 01 7D 04  02 02 10 11 80 80 DF 02  ......}.........
02D0: 29 0A 59 E0 0E 01 1D 03  01 10 0B 80 01 7D 04 02  ).Y..........}..
02E0: 02 10 12 80 80 F6 02 29  0A 59 E0 0E 01 1D 03 01  .......).Y......
02F0: 10 0B 80 01 7D 04 02 02  10 24 80 80 0D 03 29 0A  ....}....$....).
0300: 59 E0 0E 01 1D 03 01 10  0B 80 01 7D 04 02 02 10  Y..........}....
0310: 25 80 80 24 03 29 0A 59  E0 0E 01 1E 03 01 10 0C  %..$.).Y........
0320: 80 01 7D 04 02 02 10 0C  80 80 3B 03 29 0A 59 E0  ..}.......;.).Y.
0330: 0E 01 1E 03 01 10 0C 80  01 7D 04 02 02 10 26 80  .........}....&.
0340: 80 52 03 29 0A 59 E0 0E  01 1F 03 01 10 0D 80 01  .R.).Y..........
0350: 7D 04 02 02 10 27 80 80  69 03 29 0A 59 E0 0E 01  }....'..i.).Y...
0360: 1F 03 01 10 0D 80 01 7D  04 02 02 10 28 80 80 80  .......}....(...
0370: 03 29 0A 59 E0 0E 01 1F  03 01 10 0D 80 01 7D 04  .).Y..........}.
0380: 02 02 10 0D 80 80 97 03  29 0A 59 E0 0E 01 1F 03  ........).Y.....
0390: 01 10 0D 80 01 7D 04 02  02 10 0E 80 80 AE 03 29  .....}.........)
03A0: 0A 59 E0 0E 01 1F 03 01  10 0D 80 01 7D 04 02 02  .Y..........}...
03B0: 10 0F 80 80 C5 03 29 0A  59 E0 0E 01 1F 03 01 10  ......).Y.......
03C0: 0D 80 01 7D 04 02 02 10  29 80 80 DC 03 29 0A 59  ...}....)....).Y
03D0: E0 0E 01 1F 03 01 10 0D  80 01 7D 04 02 02 10 2A  ..........}....*
03E0: 80 80 F3 03 29 0A 59 E0  0E 01 20 03 01 10 0E 80  ....).Y... .....
03F0: 01 7D 04 02 02 10 10 80  80 0A 04 29 0A 59 E0 0E  .}.........).Y..
0400: 01 20 03 01 10 0E 80 01  7D 04 02 02 10 2B 80 80  . ......}....+..
0410: 21 04 29 0A 59 E0 0E 01  20 03 01 10 0E 80 01 7D  !.).Y... ......}
0420: 04 02 02 10 2C 80 80 38  04 29 0A 59 E0 0E 01 20  ....,..8.).Y... 
0430: 03 01 10 0E 80 01 7D 04  02 02 10 2D 80 80 4F 04  ......}....-..O.
0440: 29 0A 59 E0 0E 01 21 03  01 10 0F 80 01 7D 04 02  ).Y...!......}..
0450: 02 10 2E 80 80 66 04 29  0A 59 E0 0E 01 22 03 01  .....f.).Y..."..
0460: 10 10 80 01 7D 04 02 02  10 2F 80 80 7D 04 29 0A  ....}..../..}.).
0470: 59 E0 0E 01 22 03 01 10  10 80 01 7D 04 20 00 21  Y..."......}. .!
0480: 00                                                .               
```

#### Opcodes

```
  0: 0x0264 [0x79] Angelica (ID: 17752153/0x010EE059) looks at LocalPlayer (Basic look)
  1: 0x026E [0x29] REQ_SET_WAIT(priority=0x0B, entity_id=Angelica (ID: 17752153/0x010EE059), tag_num=0x1B)
  2: 0x0275 [0x29] REQ_SET_WAIT(priority=0x0B, entity_id=Angelica (ID: 17752153/0x010EE059), tag_num=0x1C)
  3: 0x027C [0x29] REQ_SET_WAIT(priority=0x08, entity_id=LocalPlayer, tag_num=0x07)
  4: 0x0283 [0x02] IF !(Work_Zone[2] == 22*) GOTO 0x029A
  5: 0x028B [0x29] REQ_SET_WAIT(priority=0x0A, entity_id=Angelica (ID: 17752153/0x010EE059), tag_num=0x1D)
  6: 0x0292 [0x03] Work_Zone[1] = 1*
  7: 0x0297 [0x01] GOTO 0x047D
  8: 0x029A [0x02] IF !(Work_Zone[2] == 17*) GOTO 0x02B1
  9: 0x02A2 [0x29] REQ_SET_WAIT(priority=0x0A, entity_id=Angelica (ID: 17752153/0x010EE059), tag_num=0x1D)
 10: 0x02A9 [0x03] Work_Zone[1] = 1*
 11: 0x02AE [0x01] GOTO 0x047D
 12: 0x02B1 [0x02] IF !(Work_Zone[2] == 1*) GOTO 0x02C8
 13: 0x02B9 [0x29] REQ_SET_WAIT(priority=0x0A, entity_id=Angelica (ID: 17752153/0x010EE059), tag_num=0x1D)
 14: 0x02C0 [0x03] Work_Zone[1] = 1*
 15: 0x02C5 [0x01] GOTO 0x047D
 16: 0x02C8 [0x02] IF !(Work_Zone[2] == 7*) GOTO 0x02DF
 17: 0x02D0 [0x29] REQ_SET_WAIT(priority=0x0A, entity_id=Angelica (ID: 17752153/0x010EE059), tag_num=0x1D)
 18: 0x02D7 [0x03] Work_Zone[1] = 1*
 19: 0x02DC [0x01] GOTO 0x047D
 20: 0x02DF [0x02] IF !(Work_Zone[2] == 8*) GOTO 0x02F6
 21: 0x02E7 [0x29] REQ_SET_WAIT(priority=0x0A, entity_id=Angelica (ID: 17752153/0x010EE059), tag_num=0x1D)
 22: 0x02EE [0x03] Work_Zone[1] = 1*
 23: 0x02F3 [0x01] GOTO 0x047D
 24: 0x02F6 [0x02] IF !(Work_Zone[2] == 14*) GOTO 0x030D
 25: 0x02FE [0x29] REQ_SET_WAIT(priority=0x0A, entity_id=Angelica (ID: 17752153/0x010EE059), tag_num=0x1D)
 26: 0x0305 [0x03] Work_Zone[1] = 1*
 27: 0x030A [0x01] GOTO 0x047D
 28: 0x030D [0x02] IF !(Work_Zone[2] == 16*) GOTO 0x0324
 29: 0x0315 [0x29] REQ_SET_WAIT(priority=0x0A, entity_id=Angelica (ID: 17752153/0x010EE059), tag_num=0x1E)
 30: 0x031C [0x03] Work_Zone[1] = 2*
 31: 0x0321 [0x01] GOTO 0x047D
 32: 0x0324 [0x02] IF !(Work_Zone[2] == 2*) GOTO 0x033B
 33: 0x032C [0x29] REQ_SET_WAIT(priority=0x0A, entity_id=Angelica (ID: 17752153/0x010EE059), tag_num=0x1E)
 34: 0x0333 [0x03] Work_Zone[1] = 2*
 35: 0x0338 [0x01] GOTO 0x047D
 36: 0x033B [0x02] IF !(Work_Zone[2] == 21*) GOTO 0x0352
 37: 0x0343 [0x29] REQ_SET_WAIT(priority=0x0A, entity_id=Angelica (ID: 17752153/0x010EE059), tag_num=0x1F)
 38: 0x034A [0x03] Work_Zone[1] = 3*
 39: 0x034F [0x01] GOTO 0x047D
 40: 0x0352 [0x02] IF !(Work_Zone[2] == 18*) GOTO 0x0369
 41: 0x035A [0x29] REQ_SET_WAIT(priority=0x0A, entity_id=Angelica (ID: 17752153/0x010EE059), tag_num=0x1F)
 42: 0x0361 [0x03] Work_Zone[1] = 3*
 43: 0x0366 [0x01] GOTO 0x047D
 44: 0x0369 [0x02] IF !(Work_Zone[2] == 20*) GOTO 0x0380
 45: 0x0371 [0x29] REQ_SET_WAIT(priority=0x0A, entity_id=Angelica (ID: 17752153/0x010EE059), tag_num=0x1F)
 46: 0x0378 [0x03] Work_Zone[1] = 3*
 47: 0x037D [0x01] GOTO 0x047D
 48: 0x0380 [0x02] IF !(Work_Zone[2] == 3*) GOTO 0x0397
 49: 0x0388 [0x29] REQ_SET_WAIT(priority=0x0A, entity_id=Angelica (ID: 17752153/0x010EE059), tag_num=0x1F)
 50: 0x038F [0x03] Work_Zone[1] = 3*
 51: 0x0394 [0x01] GOTO 0x047D
 52: 0x0397 [0x02] IF !(Work_Zone[2] == 4*) GOTO 0x03AE
 53: 0x039F [0x29] REQ_SET_WAIT(priority=0x0A, entity_id=Angelica (ID: 17752153/0x010EE059), tag_num=0x1F)
 54: 0x03A6 [0x03] Work_Zone[1] = 3*
 55: 0x03AB [0x01] GOTO 0x047D
 56: 0x03AE [0x02] IF !(Work_Zone[2] == 5*) GOTO 0x03C5
 57: 0x03B6 [0x29] REQ_SET_WAIT(priority=0x0A, entity_id=Angelica (ID: 17752153/0x010EE059), tag_num=0x1F)
 58: 0x03BD [0x03] Work_Zone[1] = 3*
 59: 0x03C2 [0x01] GOTO 0x047D
 60: 0x03C5 [0x02] IF !(Work_Zone[2] == 15*) GOTO 0x03DC
 61: 0x03CD [0x29] REQ_SET_WAIT(priority=0x0A, entity_id=Angelica (ID: 17752153/0x010EE059), tag_num=0x1F)
 62: 0x03D4 [0x03] Work_Zone[1] = 3*
 63: 0x03D9 [0x01] GOTO 0x047D
 64: 0x03DC [0x02] IF !(Work_Zone[2] == 19*) GOTO 0x03F3
 65: 0x03E4 [0x29] REQ_SET_WAIT(priority=0x0A, entity_id=Angelica (ID: 17752153/0x010EE059), tag_num=0x20)
 66: 0x03EB [0x03] Work_Zone[1] = 4*
 67: 0x03F0 [0x01] GOTO 0x047D
 68: 0x03F3 [0x02] IF !(Work_Zone[2] == 6*) GOTO 0x040A
 69: 0x03FB [0x29] REQ_SET_WAIT(priority=0x0A, entity_id=Angelica (ID: 17752153/0x010EE059), tag_num=0x20)
 70: 0x0402 [0x03] Work_Zone[1] = 4*
 71: 0x0407 [0x01] GOTO 0x047D
 72: 0x040A [0x02] IF !(Work_Zone[2] == 9*) GOTO 0x0421
 73: 0x0412 [0x29] REQ_SET_WAIT(priority=0x0A, entity_id=Angelica (ID: 17752153/0x010EE059), tag_num=0x20)
 74: 0x0419 [0x03] Work_Zone[1] = 4*
 75: 0x041E [0x01] GOTO 0x047D
 76: 0x0421 [0x02] IF !(Work_Zone[2] == 11*) GOTO 0x0438
 77: 0x0429 [0x29] REQ_SET_WAIT(priority=0x0A, entity_id=Angelica (ID: 17752153/0x010EE059), tag_num=0x20)
 78: 0x0430 [0x03] Work_Zone[1] = 4*
 79: 0x0435 [0x01] GOTO 0x047D
 80: 0x0438 [0x02] IF !(Work_Zone[2] == 10*) GOTO 0x044F
 81: 0x0440 [0x29] REQ_SET_WAIT(priority=0x0A, entity_id=Angelica (ID: 17752153/0x010EE059), tag_num=0x21)
 82: 0x0447 [0x03] Work_Zone[1] = 5*
 83: 0x044C [0x01] GOTO 0x047D
 84: 0x044F [0x02] IF !(Work_Zone[2] == 12*) GOTO 0x0466
 85: 0x0457 [0x29] REQ_SET_WAIT(priority=0x0A, entity_id=Angelica (ID: 17752153/0x010EE059), tag_num=0x22)
 86: 0x045E [0x03] Work_Zone[1] = 6*
 87: 0x0463 [0x01] GOTO 0x047D
 88: 0x0466 [0x02] IF !(Work_Zone[2] == 13*) GOTO 0x047D
 89: 0x046E [0x29] REQ_SET_WAIT(priority=0x0A, entity_id=Angelica (ID: 17752153/0x010EE059), tag_num=0x22)
 90: 0x0475 [0x03] Work_Zone[1] = 6*
 91: 0x047A [0x01] GOTO 0x047D

SUBROUTINE_047D:
 92: 0x047D [0x20] SET_CLI_EVENT_UC_FLAG: Unlock player control
 93: 0x047F [0x21] END_EVENT
 94: 0x0480 [0x00] END_REQSTACK()
```

### Event 93

#### Metadata

| Field        | Value     |
|--------------|-----------|
| Entrypoint   | 0x0481    |
| Data Size    | 481 bytes |
| Instructions | 85        |

```
      00 01 02 03 04 05 06 07  08 09 0A 0B 0C 0D 0E 0F
      -- -- -- -- -- -- -- --  -- -- -- -- -- -- -- --
0480:    79 00 59 E0 0E 01 F0  FF FF 7F 29 08 F0 FF FF   y.Y.......)....
0490: 7F 07 02 02 10 23 80 80  A9 04 29 0A 59 E0 0E 01  .....#....).Y...
04A0: 1D 03 01 10 0B 80 01 5E  06 02 02 10 0B 80 80 C0  .......^........
04B0: 04 29 0A 59 E0 0E 01 1D  03 01 10 0B 80 01 5E 06  .).Y..........^.
04C0: 02 02 10 11 80 80 D7 04  29 0A 59 E0 0E 01 1D 03  ........).Y.....
04D0: 01 10 0B 80 01 5E 06 02  02 10 12 80 80 EE 04 29  .....^.........)
04E0: 0A 59 E0 0E 01 1D 03 01  10 0B 80 01 5E 06 02 02  .Y..........^...
04F0: 10 24 80 80 05 05 29 0A  59 E0 0E 01 1D 03 01 10  .$....).Y.......
0500: 0B 80 01 5E 06 02 02 10  25 80 80 1C 05 29 0A 59  ...^....%....).Y
0510: E0 0E 01 1E 03 01 10 0C  80 01 5E 06 02 02 10 0C  ..........^.....
0520: 80 80 33 05 29 0A 59 E0  0E 01 1E 03 01 10 0C 80  ..3.).Y.........
0530: 01 5E 06 02 02 10 27 80  80 4A 05 29 0A 59 E0 0E  .^....'..J.).Y..
0540: 01 1F 03 01 10 0D 80 01  5E 06 02 02 10 28 80 80  ........^....(..
0550: 61 05 29 0A 59 E0 0E 01  1F 03 01 10 0D 80 01 5E  a.).Y..........^
0560: 06 02 02 10 0D 80 80 78  05 29 0A 59 E0 0E 01 1F  .......x.).Y....
0570: 03 01 10 0D 80 01 5E 06  02 02 10 0E 80 80 8F 05  ......^.........
0580: 29 0A 59 E0 0E 01 1F 03  01 10 0D 80 01 5E 06 02  ).Y..........^..
0590: 02 10 0F 80 80 A6 05 29  0A 59 E0 0E 01 1F 03 01  .......).Y......
05A0: 10 0D 80 01 5E 06 02 02  10 29 80 80 BD 05 29 0A  ....^....)....).
05B0: 59 E0 0E 01 1F 03 01 10  0D 80 01 5E 06 02 02 10  Y..........^....
05C0: 2A 80 80 D4 05 29 0A 59  E0 0E 01 20 03 01 10 0E  *....).Y... ....
05D0: 80 01 5E 06 02 02 10 10  80 80 EB 05 29 0A 59 E0  ..^.........).Y.
05E0: 0E 01 20 03 01 10 0E 80  01 5E 06 02 02 10 2B 80  .. ......^....+.
05F0: 80 02 06 29 0A 59 E0 0E  01 20 03 01 10 0E 80 01  ...).Y... ......
0600: 5E 06 02 02 10 2C 80 80  19 06 29 0A 59 E0 0E 01  ^....,....).Y...
0610: 20 03 01 10 0E 80 01 5E  06 02 02 10 2D 80 80 30   ......^....-..0
0620: 06 29 0A 59 E0 0E 01 21  03 01 10 0F 80 01 5E 06  .).Y...!......^.
0630: 02 02 10 2E 80 80 47 06  29 0A 59 E0 0E 01 22 03  ......G.).Y...".
0640: 01 10 10 80 01 5E 06 02  02 10 2F 80 80 5E 06 29  .....^..../..^.)
0650: 0A 59 E0 0E 01 22 03 01  10 10 80 01 5E 06 20 00  .Y..."......^. .
0660: 21 00                                             !.              
```

#### Opcodes

```
  0: 0x0481 [0x79] Angelica (ID: 17752153/0x010EE059) looks at LocalPlayer (Basic look)
  1: 0x048B [0x29] REQ_SET_WAIT(priority=0x08, entity_id=LocalPlayer, tag_num=0x07)
  2: 0x0492 [0x02] IF !(Work_Zone[2] == 17*) GOTO 0x04A9
  3: 0x049A [0x29] REQ_SET_WAIT(priority=0x0A, entity_id=Angelica (ID: 17752153/0x010EE059), tag_num=0x1D)
  4: 0x04A1 [0x03] Work_Zone[1] = 1*
  5: 0x04A6 [0x01] GOTO 0x065E
  6: 0x04A9 [0x02] IF !(Work_Zone[2] == 1*) GOTO 0x04C0
  7: 0x04B1 [0x29] REQ_SET_WAIT(priority=0x0A, entity_id=Angelica (ID: 17752153/0x010EE059), tag_num=0x1D)
  8: 0x04B8 [0x03] Work_Zone[1] = 1*
  9: 0x04BD [0x01] GOTO 0x065E
 10: 0x04C0 [0x02] IF !(Work_Zone[2] == 7*) GOTO 0x04D7
 11: 0x04C8 [0x29] REQ_SET_WAIT(priority=0x0A, entity_id=Angelica (ID: 17752153/0x010EE059), tag_num=0x1D)
 12: 0x04CF [0x03] Work_Zone[1] = 1*
 13: 0x04D4 [0x01] GOTO 0x065E
 14: 0x04D7 [0x02] IF !(Work_Zone[2] == 8*) GOTO 0x04EE
 15: 0x04DF [0x29] REQ_SET_WAIT(priority=0x0A, entity_id=Angelica (ID: 17752153/0x010EE059), tag_num=0x1D)
 16: 0x04E6 [0x03] Work_Zone[1] = 1*
 17: 0x04EB [0x01] GOTO 0x065E
 18: 0x04EE [0x02] IF !(Work_Zone[2] == 14*) GOTO 0x0505
 19: 0x04F6 [0x29] REQ_SET_WAIT(priority=0x0A, entity_id=Angelica (ID: 17752153/0x010EE059), tag_num=0x1D)
 20: 0x04FD [0x03] Work_Zone[1] = 1*
 21: 0x0502 [0x01] GOTO 0x065E
 22: 0x0505 [0x02] IF !(Work_Zone[2] == 16*) GOTO 0x051C
 23: 0x050D [0x29] REQ_SET_WAIT(priority=0x0A, entity_id=Angelica (ID: 17752153/0x010EE059), tag_num=0x1E)
 24: 0x0514 [0x03] Work_Zone[1] = 2*
 25: 0x0519 [0x01] GOTO 0x065E
 26: 0x051C [0x02] IF !(Work_Zone[2] == 2*) GOTO 0x0533
 27: 0x0524 [0x29] REQ_SET_WAIT(priority=0x0A, entity_id=Angelica (ID: 17752153/0x010EE059), tag_num=0x1E)
 28: 0x052B [0x03] Work_Zone[1] = 2*
 29: 0x0530 [0x01] GOTO 0x065E
 30: 0x0533 [0x02] IF !(Work_Zone[2] == 18*) GOTO 0x054A
 31: 0x053B [0x29] REQ_SET_WAIT(priority=0x0A, entity_id=Angelica (ID: 17752153/0x010EE059), tag_num=0x1F)
 32: 0x0542 [0x03] Work_Zone[1] = 3*
 33: 0x0547 [0x01] GOTO 0x065E
 34: 0x054A [0x02] IF !(Work_Zone[2] == 20*) GOTO 0x0561
 35: 0x0552 [0x29] REQ_SET_WAIT(priority=0x0A, entity_id=Angelica (ID: 17752153/0x010EE059), tag_num=0x1F)
 36: 0x0559 [0x03] Work_Zone[1] = 3*
 37: 0x055E [0x01] GOTO 0x065E
 38: 0x0561 [0x02] IF !(Work_Zone[2] == 3*) GOTO 0x0578
 39: 0x0569 [0x29] REQ_SET_WAIT(priority=0x0A, entity_id=Angelica (ID: 17752153/0x010EE059), tag_num=0x1F)
 40: 0x0570 [0x03] Work_Zone[1] = 3*
 41: 0x0575 [0x01] GOTO 0x065E
 42: 0x0578 [0x02] IF !(Work_Zone[2] == 4*) GOTO 0x058F
 43: 0x0580 [0x29] REQ_SET_WAIT(priority=0x0A, entity_id=Angelica (ID: 17752153/0x010EE059), tag_num=0x1F)
 44: 0x0587 [0x03] Work_Zone[1] = 3*
 45: 0x058C [0x01] GOTO 0x065E
 46: 0x058F [0x02] IF !(Work_Zone[2] == 5*) GOTO 0x05A6
 47: 0x0597 [0x29] REQ_SET_WAIT(priority=0x0A, entity_id=Angelica (ID: 17752153/0x010EE059), tag_num=0x1F)
 48: 0x059E [0x03] Work_Zone[1] = 3*
 49: 0x05A3 [0x01] GOTO 0x065E
 50: 0x05A6 [0x02] IF !(Work_Zone[2] == 15*) GOTO 0x05BD
 51: 0x05AE [0x29] REQ_SET_WAIT(priority=0x0A, entity_id=Angelica (ID: 17752153/0x010EE059), tag_num=0x1F)
 52: 0x05B5 [0x03] Work_Zone[1] = 3*
 53: 0x05BA [0x01] GOTO 0x065E
 54: 0x05BD [0x02] IF !(Work_Zone[2] == 19*) GOTO 0x05D4
 55: 0x05C5 [0x29] REQ_SET_WAIT(priority=0x0A, entity_id=Angelica (ID: 17752153/0x010EE059), tag_num=0x20)
 56: 0x05CC [0x03] Work_Zone[1] = 4*
 57: 0x05D1 [0x01] GOTO 0x065E
 58: 0x05D4 [0x02] IF !(Work_Zone[2] == 6*) GOTO 0x05EB
 59: 0x05DC [0x29] REQ_SET_WAIT(priority=0x0A, entity_id=Angelica (ID: 17752153/0x010EE059), tag_num=0x20)
 60: 0x05E3 [0x03] Work_Zone[1] = 4*
 61: 0x05E8 [0x01] GOTO 0x065E
 62: 0x05EB [0x02] IF !(Work_Zone[2] == 9*) GOTO 0x0602
 63: 0x05F3 [0x29] REQ_SET_WAIT(priority=0x0A, entity_id=Angelica (ID: 17752153/0x010EE059), tag_num=0x20)
 64: 0x05FA [0x03] Work_Zone[1] = 4*
 65: 0x05FF [0x01] GOTO 0x065E
 66: 0x0602 [0x02] IF !(Work_Zone[2] == 11*) GOTO 0x0619
 67: 0x060A [0x29] REQ_SET_WAIT(priority=0x0A, entity_id=Angelica (ID: 17752153/0x010EE059), tag_num=0x20)
 68: 0x0611 [0x03] Work_Zone[1] = 4*
 69: 0x0616 [0x01] GOTO 0x065E
 70: 0x0619 [0x02] IF !(Work_Zone[2] == 10*) GOTO 0x0630
 71: 0x0621 [0x29] REQ_SET_WAIT(priority=0x0A, entity_id=Angelica (ID: 17752153/0x010EE059), tag_num=0x21)
 72: 0x0628 [0x03] Work_Zone[1] = 5*
 73: 0x062D [0x01] GOTO 0x065E
 74: 0x0630 [0x02] IF !(Work_Zone[2] == 12*) GOTO 0x0647
 75: 0x0638 [0x29] REQ_SET_WAIT(priority=0x0A, entity_id=Angelica (ID: 17752153/0x010EE059), tag_num=0x22)
 76: 0x063F [0x03] Work_Zone[1] = 6*
 77: 0x0644 [0x01] GOTO 0x065E
 78: 0x0647 [0x02] IF !(Work_Zone[2] == 13*) GOTO 0x065E
 79: 0x064F [0x29] REQ_SET_WAIT(priority=0x0A, entity_id=Angelica (ID: 17752153/0x010EE059), tag_num=0x22)
 80: 0x0656 [0x03] Work_Zone[1] = 6*
 81: 0x065B [0x01] GOTO 0x065E

SUBROUTINE_065E:
 82: 0x065E [0x20] SET_CLI_EVENT_UC_FLAG: Unlock player control
 83: 0x0660 [0x21] END_EVENT
 84: 0x0661 [0x00] END_REQSTACK()
```

### Event 65535.17

#### Metadata

| Field        | Value   |
|--------------|---------|
| Entrypoint   | 0x0662  |
| Data Size    | 5 bytes |
| Instructions | 3       |

```
      00 01 02 03 04 05 06 07  08 09 0A 0B 0C 0D 0E 0F
      -- -- -- -- -- -- -- --  -- -- -- -- -- -- -- --
0660:       1D 30 80 23 00                                .0.#.         
```

#### Opcodes

```
  0: 0x0662 [0x1D] PRINT_EVENT_MESSAGE(message_id=7474*)
    → "Stand over there."
  1: 0x0665 [0x23] WAIT_FOR_DIALOG_INTERACTION
  2: 0x0666 [0x00] END_REQSTACK()
```

### Event 65535.18

#### Metadata

| Field        | Value   |
|--------------|---------|
| Entrypoint   | 0x0667  |
| Data Size    | 5 bytes |
| Instructions | 3       |

```
      00 01 02 03 04 05 06 07  08 09 0A 0B 0C 0D 0E 0F
      -- -- -- -- -- -- -- --  -- -- -- -- -- -- -- --
0660:                      1D  31 80 23 00                     .1.#.    
```

#### Opcodes

```
  0: 0x0667 [0x1D] PRINT_EVENT_MESSAGE(message_id=7475*)
    → "Oh, no! Like, my Goddess..."
  1: 0x066A [0x23] WAIT_FOR_DIALOG_INTERACTION
  2: 0x066B [0x00] END_REQSTACK()
```

### Event 65535.19

#### Metadata

| Field        | Value   |
|--------------|---------|
| Entrypoint   | 0x066C  |
| Data Size    | 5 bytes |
| Instructions | 3       |

```
      00 01 02 03 04 05 06 07  08 09 0A 0B 0C 0D 0E 0F
      -- -- -- -- -- -- -- --  -- -- -- -- -- -- -- --
0660:                                      1D 32 80 23              .2.#
0670: 00                                                .               
```

#### Opcodes

```
  0: 0x066C [0x1D] PRINT_EVENT_MESSAGE(message_id=7476*)
    → "This is, like, totally imperfecto! You're missing that certain something, you know...?"
  1: 0x066F [0x23] WAIT_FOR_DIALOG_INTERACTION
  2: 0x0670 [0x00] END_REQSTACK()
```

### Event 65535.20

#### Metadata

| Field        | Value    |
|--------------|----------|
| Entrypoint   | 0x0671   |
| Data Size    | 13 bytes |
| Instructions | 7        |

```
      00 01 02 03 04 05 06 07  08 09 0A 0B 0C 0D 0E 0F
      -- -- -- -- -- -- -- --  -- -- -- -- -- -- -- --
0670:    1D 33 80 23 1D 34 80  23 1D 35 80 23 00         .3.#.4.#.5.#.  
```

#### Opcodes

```
  0: 0x0671 [0x1D] PRINT_EVENT_MESSAGE(message_id=7477*)
    → "Hmm... $1!"
  1: 0x0674 [0x23] WAIT_FOR_DIALOG_INTERACTION
  2: 0x0675 [0x1D] PRINT_EVENT_MESSAGE(message_id=7478*)
    → "That's it! I can't do without it. Go equip yourself with $1 and come back here."
  3: 0x0678 [0x23] WAIT_FOR_DIALOG_INTERACTION
  4: 0x0679 [0x1D] PRINT_EVENT_MESSAGE(message_id=7489*)
    → "But don't keep me waiting too long, right? I don't know how long I can keep this image in my head. So, like, hurry up already!"
  5: 0x067C [0x23] WAIT_FOR_DIALOG_INTERACTION
  6: 0x067D [0x00] END_REQSTACK()
```

### Event 65535.21

#### Metadata

| Field        | Value    |
|--------------|----------|
| Entrypoint   | 0x067E   |
| Data Size    | 13 bytes |
| Instructions | 7        |

```
      00 01 02 03 04 05 06 07  08 09 0A 0B 0C 0D 0E 0F
      -- -- -- -- -- -- -- --  -- -- -- -- -- -- -- --
0670:                                            1D 36                .6
0680: 80 23 1D 37 80 23 1D 35  80 23 00                 .#.7.#.5.#.     
```

#### Opcodes

```
  0: 0x067E [0x1D] PRINT_EVENT_MESSAGE(message_id=7479*)
    → "Hmm... $2!"
  1: 0x0681 [0x23] WAIT_FOR_DIALOG_INTERACTION
  2: 0x0682 [0x1D] PRINT_EVENT_MESSAGE(message_id=7480*)
    → "That's it! I can't do without it. Go equip yourself with $2 and come back here."
  3: 0x0685 [0x23] WAIT_FOR_DIALOG_INTERACTION
  4: 0x0686 [0x1D] PRINT_EVENT_MESSAGE(message_id=7489*)
    → "But don't keep me waiting too long, right? I don't know how long I can keep this image in my head. So, like, hurry up already!"
  5: 0x0689 [0x23] WAIT_FOR_DIALOG_INTERACTION
  6: 0x068A [0x00] END_REQSTACK()
```

### Event 65535.22

#### Metadata

| Field        | Value    |
|--------------|----------|
| Entrypoint   | 0x068B   |
| Data Size    | 13 bytes |
| Instructions | 7        |

```
      00 01 02 03 04 05 06 07  08 09 0A 0B 0C 0D 0E 0F
      -- -- -- -- -- -- -- --  -- -- -- -- -- -- -- --
0680:                                   1D 38 80 23 1D             .8.#.
0690: 39 80 23 1D 35 80 23 00                           9.#.5.#.        
```

#### Opcodes

```
  0: 0x068B [0x1D] PRINT_EVENT_MESSAGE(message_id=7481*)
    → "Hmm... $3!"
  1: 0x068E [0x23] WAIT_FOR_DIALOG_INTERACTION
  2: 0x068F [0x1D] PRINT_EVENT_MESSAGE(message_id=7482*)
    → "That's it! I can't do without it. Go equip yourself with $3 and come back here."
  3: 0x0692 [0x23] WAIT_FOR_DIALOG_INTERACTION
  4: 0x0693 [0x1D] PRINT_EVENT_MESSAGE(message_id=7489*)
    → "But don't keep me waiting too long, right? I don't know how long I can keep this image in my head. So, like, hurry up already!"
  5: 0x0696 [0x23] WAIT_FOR_DIALOG_INTERACTION
  6: 0x0697 [0x00] END_REQSTACK()
```

### Event 65535.23

#### Metadata

| Field        | Value    |
|--------------|----------|
| Entrypoint   | 0x0698   |
| Data Size    | 13 bytes |
| Instructions | 7        |

```
      00 01 02 03 04 05 06 07  08 09 0A 0B 0C 0D 0E 0F
      -- -- -- -- -- -- -- --  -- -- -- -- -- -- -- --
0690:                          1D 3A 80 23 1D 3B 80 23          .:.#.;.#
06A0: 1D 35 80 23 00                                    .5.#.           
```

#### Opcodes

```
  0: 0x0698 [0x1D] PRINT_EVENT_MESSAGE(message_id=7483*)
    → "Hmm... $4!"
  1: 0x069B [0x23] WAIT_FOR_DIALOG_INTERACTION
  2: 0x069C [0x1D] PRINT_EVENT_MESSAGE(message_id=7484*)
    → "That's it! I can't do without it. Go equip yourself with $4 and come back here."
  3: 0x069F [0x23] WAIT_FOR_DIALOG_INTERACTION
  4: 0x06A0 [0x1D] PRINT_EVENT_MESSAGE(message_id=7489*)
    → "But don't keep me waiting too long, right? I don't know how long I can keep this image in my head. So, like, hurry up already!"
  5: 0x06A3 [0x23] WAIT_FOR_DIALOG_INTERACTION
  6: 0x06A4 [0x00] END_REQSTACK()
```

### Event 65535.24

#### Metadata

| Field        | Value    |
|--------------|----------|
| Entrypoint   | 0x06A5   |
| Data Size    | 13 bytes |
| Instructions | 7        |

```
      00 01 02 03 04 05 06 07  08 09 0A 0B 0C 0D 0E 0F
      -- -- -- -- -- -- -- --  -- -- -- -- -- -- -- --
06A0:                1D 3C 80  23 1D 3D 80 23 1D 35 80       .<.#.=.#.5.
06B0: 23 00                                             #.              
```

#### Opcodes

```
  0: 0x06A5 [0x1D] PRINT_EVENT_MESSAGE(message_id=7485*)
    → "Hmm... $5!"
  1: 0x06A8 [0x23] WAIT_FOR_DIALOG_INTERACTION
  2: 0x06A9 [0x1D] PRINT_EVENT_MESSAGE(message_id=7486*)
    → "That's it! I can't do without it. Go equip yourself with $5 and come back here."
  3: 0x06AC [0x23] WAIT_FOR_DIALOG_INTERACTION
  4: 0x06AD [0x1D] PRINT_EVENT_MESSAGE(message_id=7489*)
    → "But don't keep me waiting too long, right? I don't know how long I can keep this image in my head. So, like, hurry up already!"
  5: 0x06B0 [0x23] WAIT_FOR_DIALOG_INTERACTION
  6: 0x06B1 [0x00] END_REQSTACK()
```

### Event 65535.25

#### Metadata

| Field        | Value    |
|--------------|----------|
| Entrypoint   | 0x06B2   |
| Data Size    | 13 bytes |
| Instructions | 7        |

```
      00 01 02 03 04 05 06 07  08 09 0A 0B 0C 0D 0E 0F
      -- -- -- -- -- -- -- --  -- -- -- -- -- -- -- --
06B0:       1D 3E 80 23 1D 3F  80 23 1D 35 80 23 00       .>.#.?.#.5.#. 
```

#### Opcodes

```
  0: 0x06B2 [0x1D] PRINT_EVENT_MESSAGE(message_id=7487*)
    → "Hmm... $6!"
  1: 0x06B5 [0x23] WAIT_FOR_DIALOG_INTERACTION
  2: 0x06B6 [0x1D] PRINT_EVENT_MESSAGE(message_id=7488*)
    → "That's it! I can't do without it. Go equip yourself with $6 and come back here."
  3: 0x06B9 [0x23] WAIT_FOR_DIALOG_INTERACTION
  4: 0x06BA [0x1D] PRINT_EVENT_MESSAGE(message_id=7489*)
    → "But don't keep me waiting too long, right? I don't know how long I can keep this image in my head. So, like, hurry up already!"
  5: 0x06BD [0x23] WAIT_FOR_DIALOG_INTERACTION
  6: 0x06BE [0x00] END_REQSTACK()
```

### Event 102

#### Metadata

| Field        | Value    |
|--------------|----------|
| Entrypoint   | 0x06BF   |
| Data Size    | 27 bytes |
| Instructions | 9        |

```
      00 01 02 03 04 05 06 07  08 09 0A 0B 0C 0D 0E 0F
      -- -- -- -- -- -- -- --  -- -- -- -- -- -- -- --
06B0:                                               79                 y
06C0: 00 59 E0 0E 01 F0 FF FF  7F 1D 40 80 23 1D 41 80  .Y........@.#.A.
06D0: 23 7B 59 E0 0E 01 20 00  21 00                    #{Y... .!.      
```

#### Opcodes

```
  0: 0x06BF [0x79] Angelica (ID: 17752153/0x010EE059) looks at LocalPlayer (Basic look)
  1: 0x06C9 [0x1D] PRINT_EVENT_MESSAGE(message_id=7505*)
    → "Would you, like, model for me...not!? No way, Jose! I was going to ask, but on closer inspection..."
  2: 0x06CC [0x23] WAIT_FOR_DIALOG_INTERACTION
  3: 0x06CD [0x1D] PRINT_EVENT_MESSAGE(message_id=7506*)
    → "You're, you're, you're...devoid of inspiration, banal, plain, monotone, run-of-the-mill, commonplace, ordinary, oh, so average...and like, sooo five minutes ago! Humph!"
  4: 0x06D0 [0x23] WAIT_FOR_DIALOG_INTERACTION
  5: 0x06D1 [0x7B] Angelica (ID: 17752153/0x010EE059) stops talking
  6: 0x06D6 [0x20] SET_CLI_EVENT_UC_FLAG: Unlock player control
  7: 0x06D8 [0x21] END_EVENT
  8: 0x06D9 [0x00] END_REQSTACK()
```

### Event 94

#### Metadata

| Field        | Value     |
|--------------|-----------|
| Entrypoint   | 0x06DA    |
| Data Size    | 122 bytes |
| Instructions | 22        |

```
      00 01 02 03 04 05 06 07  08 09 0A 0B 0C 0D 0E 0F
      -- -- -- -- -- -- -- --  -- -- -- -- -- -- -- --
06D0:                                79 00 59 E0 0E 01            y.Y...
06E0: F0 FF FF 7F 02 02 10 0B  80 80 F6 06 29 0A 59 E0  ............).Y.
06F0: 0E 01 1D 01 50 07 02 02  10 0C 80 80 08 07 29 0A  ....P.........).
0700: 59 E0 0E 01 1E 01 50 07  02 02 10 0D 80 80 1A 07  Y.....P.........
0710: 29 0A 59 E0 0E 01 1F 01  50 07 02 02 10 0E 80 80  ).Y.....P.......
0720: 2C 07 29 0A 59 E0 0E 01  20 01 50 07 02 02 10 0F  ,.).Y... .P.....
0730: 80 80 3E 07 29 0A 59 E0  0E 01 21 01 50 07 02 02  ..>.).Y...!.P...
0740: 10 10 80 80 50 07 29 0A  59 E0 0E 01 22 01 50 07  ....P.).Y...".P.
0750: 20 00 21 00                                        .!.            
```

#### Opcodes

```
  0: 0x06DA [0x79] Angelica (ID: 17752153/0x010EE059) looks at LocalPlayer (Basic look)
  1: 0x06E4 [0x02] IF !(Work_Zone[2] == 1*) GOTO 0x06F6
  2: 0x06EC [0x29] REQ_SET_WAIT(priority=0x0A, entity_id=Angelica (ID: 17752153/0x010EE059), tag_num=0x1D)
  3: 0x06F3 [0x01] GOTO 0x0750
  4: 0x06F6 [0x02] IF !(Work_Zone[2] == 2*) GOTO 0x0708
  5: 0x06FE [0x29] REQ_SET_WAIT(priority=0x0A, entity_id=Angelica (ID: 17752153/0x010EE059), tag_num=0x1E)
  6: 0x0705 [0x01] GOTO 0x0750
  7: 0x0708 [0x02] IF !(Work_Zone[2] == 3*) GOTO 0x071A
  8: 0x0710 [0x29] REQ_SET_WAIT(priority=0x0A, entity_id=Angelica (ID: 17752153/0x010EE059), tag_num=0x1F)
  9: 0x0717 [0x01] GOTO 0x0750
 10: 0x071A [0x02] IF !(Work_Zone[2] == 4*) GOTO 0x072C
 11: 0x0722 [0x29] REQ_SET_WAIT(priority=0x0A, entity_id=Angelica (ID: 17752153/0x010EE059), tag_num=0x20)
 12: 0x0729 [0x01] GOTO 0x0750
 13: 0x072C [0x02] IF !(Work_Zone[2] == 5*) GOTO 0x073E
 14: 0x0734 [0x29] REQ_SET_WAIT(priority=0x0A, entity_id=Angelica (ID: 17752153/0x010EE059), tag_num=0x21)
 15: 0x073B [0x01] GOTO 0x0750
 16: 0x073E [0x02] IF !(Work_Zone[2] == 6*) GOTO 0x0750
 17: 0x0746 [0x29] REQ_SET_WAIT(priority=0x0A, entity_id=Angelica (ID: 17752153/0x010EE059), tag_num=0x22)
 18: 0x074D [0x01] GOTO 0x0750

SUBROUTINE_0750:
 19: 0x0750 [0x20] SET_CLI_EVENT_UC_FLAG: Unlock player control
 20: 0x0752 [0x21] END_EVENT
 21: 0x0753 [0x00] END_REQSTACK()
```

### Event 95

#### Metadata

| Field        | Value    |
|--------------|----------|
| Entrypoint   | 0x0754   |
| Data Size    | 21 bytes |
| Instructions | 5        |

```
      00 01 02 03 04 05 06 07  08 09 0A 0B 0C 0D 0E 0F
      -- -- -- -- -- -- -- --  -- -- -- -- -- -- -- --
0750:             79 00 59 E0  0E 01 F0 FF FF 7F 29 0B      y.Y.......).
0760: 59 E0 0E 01 26 20 00 21  00                       Y...& .!.       
```

#### Opcodes

```
  0: 0x0754 [0x79] Angelica (ID: 17752153/0x010EE059) looks at LocalPlayer (Basic look)
  1: 0x075E [0x29] REQ_SET_WAIT(priority=0x0B, entity_id=Angelica (ID: 17752153/0x010EE059), tag_num=0x26)
  2: 0x0765 [0x20] SET_CLI_EVENT_UC_FLAG: Unlock player control
  3: 0x0767 [0x21] END_EVENT
  4: 0x0768 [0x00] END_REQSTACK()
```

### Event 65535.26

#### Metadata

| Field        | Value    |
|--------------|----------|
| Entrypoint   | 0x0769   |
| Data Size    | 19 bytes |
| Instructions | 6        |

```
      00 01 02 03 04 05 06 07  08 09 0A 0B 0C 0D 0E 0F
      -- -- -- -- -- -- -- --  -- -- -- -- -- -- -- --
0760:                             79 00 59 E0 0E 01 F0           y.Y....
0770: FF FF 7F 1D 42 80 23 1D  43 80 23 00              ....B.#.C.#.    
```

#### Opcodes

```
  0: 0x0769 [0x79] Angelica (ID: 17752153/0x010EE059) looks at LocalPlayer (Basic look)
  1: 0x0773 [0x1D] PRINT_EVENT_MESSAGE(message_id=7491*)
    → "Your image is, like, sooo five minutes ago. Like, I don't need your help anymore."
  2: 0x0776 [0x23] WAIT_FOR_DIALOG_INTERACTION
  3: 0x0777 [0x1D] PRINT_EVENT_MESSAGE(message_id=7492*)
    → "Sooorry, but it's, like, unavoidable. My flashes of inspiration change as fast as Tarutaru hat fashions, right? I have to, like, keep up with the latest trends, you know."
  4: 0x077A [0x23] WAIT_FOR_DIALOG_INTERACTION
  5: 0x077B [0x00] END_REQSTACK()
```

### Event 96

#### Metadata

| Field        | Value     |
|--------------|-----------|
| Entrypoint   | 0x077C    |
| Data Size    | 483 bytes |
| Instructions | 75        |

```
      00 01 02 03 04 05 06 07  08 09 0A 0B 0C 0D 0E 0F
      -- -- -- -- -- -- -- --  -- -- -- -- -- -- -- --
0770:                                      20 01 42 46               .BF
0780: 01 5D 0A 80 44 80 45 44  80 F0 FF FF 7F F0 FF FF  .]..D.ED........
0790: 7F 66 64 6F 31 0A 80 1C  45 80 75 00 46 80 75 01  .fdo1...E.u.F.u.
07A0: 38 0D 80 29 0B F0 FF FF  7F 37 5C 00 47 80 5C 01  8..).....7\.G.\.
07B0: 47 80 5D 48 80 0B 80 1C  45 80 45 49 80 F8 FF FF  G.]H....E.EI....
07C0: 7F F8 FF FF 7F 73 30 36  39 0A 80 45 44 80 F0 FF  .....s069..ED...
07D0: FF 7F F0 FF FF 7F 66 64  69 31 0A 80 79 00 59 E0  ......fdi1..y.Y.
07E0: 0E 01 F0 FF FF 7F 29 0B  59 E0 0E 01 28 1D 4A 80  ......).Y...(.J.
07F0: 23 29 0B F0 FF FF 7F 39  29 08 59 E0 0E 01 02 1C  #).....9).Y.....
0800: 4B 80 45 44 80 F0 FF FF  7F F0 FF FF 7F 66 64 6F  K.ED.........fdo
0810: 31 0A 80 1C 44 80 2B 59  E0 0E 01 4C 80 23 29 08  1...D.+Y...L.#).
0820: 59 E0 0E 01 04 29 08 59  E0 0E 01 05 29 0B F0 FF  Y....).Y....)...
0830: FF 7F 3A 45 44 80 F0 FF  FF 7F F0 FF FF 7F 66 64  ..:ED.........fd
0840: 69 31 0A 80 29 08 59 E0  0E 01 02 1C 4B 80 45 44  i1..).Y.....K.ED
0850: 80 F0 FF FF 7F F0 FF FF  7F 66 64 6F 31 0A 80 1C  .........fdo1...
0860: 44 80 29 0B F0 FF FF 7F  38 29 08 59 E0 0E 01 04  D.).....8).Y....
0870: 29 08 59 E0 0E 01 05 2B  59 E0 0E 01 4D 80 23 29  ).Y....+Y...M.#)
0880: 0B F0 FF FF 7F 3B 45 44  80 F0 FF FF 7F F0 FF FF  .....;ED........
0890: 7F 66 64 69 31 0A 80 29  08 59 E0 0E 01 02 1C 4B  .fdi1..).Y.....K
08A0: 80 45 44 80 F0 FF FF 7F  F0 FF FF 7F 66 64 6F 31  .ED.........fdo1
08B0: 0A 80 1C 44 80 2B 59 E0  0E 01 4E 80 23 29 08 59  ...D.+Y...N.#).Y
08C0: E0 0E 01 04 29 08 59 E0  0E 01 05 5D 0A 80 44 80  ....).Y....]..D.
08D0: 1C 45 80 29 0B F0 FF FF  7F 3C 5C 00 4F 80 5C 01  .E.).....<\.O.\.
08E0: 4F 80 5D 48 80 0B 80 1C  44 80 45 44 80 F0 FF FF  O.]H....D.ED....
08F0: 7F F0 FF FF 7F 66 64 69  31 0A 80 02 05 10 0A 80  .....fdi1.......
0900: 00 14 09 29 0B 59 E0 0E  01 29 29 0B 59 E0 0E 01  ...).Y...)).Y...
0910: 2B 01 23 09 29 0B 59 E0  0E 01 2A 1D 50 80 23 1D  +.#.).Y...*.P.#.
0920: 51 80 23 45 44 80 F0 FF  FF 7F F0 FF FF 7F 66 64  Q.#ED.........fd
0930: 6F 31 0A 80 1C 45 80 46  00 45 44 80 F0 FF FF 7F  o1...E.F.ED.....
0940: F0 FF FF 7F 66 64 69 31  0A 80 45 52 80 F0 FF FF  ....fdi1..ER....
0950: 7F F0 FF FF 7F 71 73 74  63 0A 80 20 00 21 00     .....qstc.. .!. 
```

#### Opcodes

```
  0: 0x077C [0x20] SET_CLI_EVENT_UC_FLAG: Lock player control
  1: 0x077E [0x42] SET_CLI_EVENT_CANCEL_DATA()
  2: 0x077F [0x46] CAMERA_CONTROL: Disable user control
  3: 0x0781 [0x5D] SET_MUSIC_VOLUME(volume=0*, fade_time=200*)
  4: 0x0786 [0x45] LOAD_SCHEDULED_TASK: Load scheduler "fdo1" with entities [LocalPlayer, LocalPlayer], work=[200*, 0*]
  5: 0x0797 [0x1C] WAIT(120* ticks)
  6: 0x079A [0x75] LOAD_ROOM(Load indoor room, room=387*)
  7: 0x079E [0x75] LOAD_ROOM(No action)
  8: 0x07A0 [0x38] SET_CLIENT_EVENT_MODE(mode=3*)
  9: 0x07A3 [0x29] REQ_SET_WAIT(priority=0x0B, entity_id=LocalPlayer, tag_num=0x37)
 10: 0x07AA [0x5C] MUSIC_CONTROL: Set Idle (Day) music to song 163*
 11: 0x07AE [0x5C] MUSIC_CONTROL: Set Idle (Night) music to song 163*
 12: 0x07B2 [0x5D] SET_MUSIC_VOLUME(volume=127*, fade_time=1*)
 13: 0x07B7 [0x1C] WAIT(120* ticks)
 14: 0x07BA [0x45] LOAD_SCHEDULED_TASK: Load scheduler "s069" with entities [EventEntity, EventEntity], work=[138*, 0*]
 15: 0x07CB [0x45] LOAD_SCHEDULED_TASK: Load scheduler "fdi1" with entities [LocalPlayer, LocalPlayer], work=[200*, 0*]
 16: 0x07DC [0x79] Angelica (ID: 17752153/0x010EE059) looks at LocalPlayer (Basic look)
 17: 0x07E6 [0x29] REQ_SET_WAIT(priority=0x0B, entity_id=Angelica (ID: 17752153/0x010EE059), tag_num=0x28)
 18: 0x07ED [0x1D] PRINT_EVENT_MESSAGE(message_id=7494*)
    → "So, like, let's get on with it already. Stand over there, right?"
 19: 0x07F0 [0x23] WAIT_FOR_DIALOG_INTERACTION
 20: 0x07F1 [0x29] REQ_SET_WAIT(priority=0x0B, entity_id=LocalPlayer, tag_num=0x39)
 21: 0x07F8 [0x29] REQ_SET_WAIT(priority=0x08, entity_id=Angelica (ID: 17752153/0x010EE059), tag_num=0x02)
 22: 0x07FF [0x1C] WAIT(100* ticks)
 23: 0x0802 [0x45] LOAD_SCHEDULED_TASK: Load scheduler "fdo1" with entities [LocalPlayer, LocalPlayer], work=[200*, 0*]
 24: 0x0813 [0x1C] WAIT(200* ticks)
 25: 0x0816 [0x2B] Angelica (ID: 17752153/0x010EE059) [7496*]:
    → "Now give me a little ennui. Ennui... Ennnnuuuiiii!!!"
 26: 0x081D [0x23] WAIT_FOR_DIALOG_INTERACTION
 27: 0x081E [0x29] REQ_SET_WAIT(priority=0x08, entity_id=Angelica (ID: 17752153/0x010EE059), tag_num=0x04)
 28: 0x0825 [0x29] REQ_SET_WAIT(priority=0x08, entity_id=Angelica (ID: 17752153/0x010EE059), tag_num=0x05)
 29: 0x082C [0x29] REQ_SET_WAIT(priority=0x0B, entity_id=LocalPlayer, tag_num=0x3A)
 30: 0x0833 [0x45] LOAD_SCHEDULED_TASK: Load scheduler "fdi1" with entities [LocalPlayer, LocalPlayer], work=[200*, 0*]
 31: 0x0844 [0x29] REQ_SET_WAIT(priority=0x08, entity_id=Angelica (ID: 17752153/0x010EE059), tag_num=0x02)
 32: 0x084B [0x1C] WAIT(100* ticks)
 33: 0x084E [0x45] LOAD_SCHEDULED_TASK: Load scheduler "fdo1" with entities [LocalPlayer, LocalPlayer], work=[200*, 0*]
 34: 0x085F [0x1C] WAIT(200* ticks)
 35: 0x0862 [0x29] REQ_SET_WAIT(priority=0x0B, entity_id=LocalPlayer, tag_num=0x38)
 36: 0x0869 [0x29] REQ_SET_WAIT(priority=0x08, entity_id=Angelica (ID: 17752153/0x010EE059), tag_num=0x04)
 37: 0x0870 [0x29] REQ_SET_WAIT(priority=0x08, entity_id=Angelica (ID: 17752153/0x010EE059), tag_num=0x05)
 38: 0x0877 [0x2B] Angelica (ID: 17752153/0x010EE059) [7495*]:
    → "Give me more passion. Oh yeah! Oh yeah!!! That's it! Ooooh yeah!"
 39: 0x087E [0x23] WAIT_FOR_DIALOG_INTERACTION
 40: 0x087F [0x29] REQ_SET_WAIT(priority=0x0B, entity_id=LocalPlayer, tag_num=0x3B)
 41: 0x0886 [0x45] LOAD_SCHEDULED_TASK: Load scheduler "fdi1" with entities [LocalPlayer, LocalPlayer], work=[200*, 0*]
 42: 0x0897 [0x29] REQ_SET_WAIT(priority=0x08, entity_id=Angelica (ID: 17752153/0x010EE059), tag_num=0x02)
 43: 0x089E [0x1C] WAIT(100* ticks)
 44: 0x08A1 [0x45] LOAD_SCHEDULED_TASK: Load scheduler "fdo1" with entities [LocalPlayer, LocalPlayer], work=[200*, 0*]
 45: 0x08B2 [0x1C] WAIT(200* ticks)
 46: 0x08B5 [0x2B] Angelica (ID: 17752153/0x010EE059) [7497*]:
    → "......"
 47: 0x08BC [0x23] WAIT_FOR_DIALOG_INTERACTION
 48: 0x08BD [0x29] REQ_SET_WAIT(priority=0x08, entity_id=Angelica (ID: 17752153/0x010EE059), tag_num=0x04)
 49: 0x08C4 [0x29] REQ_SET_WAIT(priority=0x08, entity_id=Angelica (ID: 17752153/0x010EE059), tag_num=0x05)
 50: 0x08CB [0x5D] SET_MUSIC_VOLUME(volume=0*, fade_time=200*)
 51: 0x08D0 [0x1C] WAIT(120* ticks)
 52: 0x08D3 [0x29] REQ_SET_WAIT(priority=0x0B, entity_id=LocalPlayer, tag_num=0x3C)
 53: 0x08DA [0x5C] MUSIC_CONTROL: Set Idle (Day) music to song 151*
 54: 0x08DE [0x5C] MUSIC_CONTROL: Set Idle (Night) music to song 151*
 55: 0x08E2 [0x5D] SET_MUSIC_VOLUME(volume=127*, fade_time=1*)
 56: 0x08E7 [0x1C] WAIT(200* ticks)
 57: 0x08EA [0x45] LOAD_SCHEDULED_TASK: Load scheduler "fdi1" with entities [LocalPlayer, LocalPlayer], work=[200*, 0*]
 58: 0x08FB [0x02] IF !(Work_Zone[5] == 0*) GOTO 0x0914
 59: 0x0903 [0x29] REQ_SET_WAIT(priority=0x0B, entity_id=Angelica (ID: 17752153/0x010EE059), tag_num=0x29)
 60: 0x090A [0x29] REQ_SET_WAIT(priority=0x0B, entity_id=Angelica (ID: 17752153/0x010EE059), tag_num=0x2B)
 61: 0x0911 [0x01] GOTO 0x0923
 62: 0x0914 [0x29] REQ_SET_WAIT(priority=0x0B, entity_id=Angelica (ID: 17752153/0x010EE059), tag_num=0x2A)
 63: 0x091B [0x1D] PRINT_EVENT_MESSAGE(message_id=7503*)
    → "I was able to, like, make another fine piece of art, so here... Take this as a reward for your help."
 64: 0x091E [0x23] WAIT_FOR_DIALOG_INTERACTION
 65: 0x091F [0x1D] PRINT_EVENT_MESSAGE(message_id=7504*)
    → "Phew... I was able to do some good work again, today. Like, now I'm all hot and sweaty. Guess that's the 99% perspiration to go with my inspiration. Just goes to show that I'm a genius, right?"
 66: 0x0922 [0x23] WAIT_FOR_DIALOG_INTERACTION

SUBROUTINE_0923:
 67: 0x0923 [0x45] LOAD_SCHEDULED_TASK: Load scheduler "fdo1" with entities [LocalPlayer, LocalPlayer], work=[200*, 0*]
 68: 0x0934 [0x1C] WAIT(120* ticks)
 69: 0x0937 [0x46] CAMERA_CONTROL: Restore default settings
 70: 0x0939 [0x45] LOAD_SCHEDULED_TASK: Load scheduler "fdi1" with entities [LocalPlayer, LocalPlayer], work=[200*, 0*]
 71: 0x094A [0x45] LOAD_SCHEDULED_TASK: Load scheduler "qstc" with entities [LocalPlayer, LocalPlayer], work=[201*, 0*]
 72: 0x095B [0x20] SET_CLI_EVENT_UC_FLAG: Unlock player control
 73: 0x095D [0x21] END_EVENT
 74: 0x095E [0x00] END_REQSTACK()
```

### Event 65535.27

#### Metadata

| Field        | Value   |
|--------------|---------|
| Entrypoint   | 0x095F  |
| Data Size    | 5 bytes |
| Instructions | 3       |

```
      00 01 02 03 04 05 06 07  08 09 0A 0B 0C 0D 0E 0F
      -- -- -- -- -- -- -- --  -- -- -- -- -- -- -- --
0950:                                               1D                 .
0960: 53 80 23 00                                       S.#.            
```

#### Opcodes

```
  0: 0x095F [0x1D] PRINT_EVENT_MESSAGE(message_id=7493*)
    → "Oh, like, what kept you? But, anyway, I'm glad you got back before I, like, lost the image I was keeping in my head."
  1: 0x0962 [0x23] WAIT_FOR_DIALOG_INTERACTION
  2: 0x0963 [0x00] END_REQSTACK()
```

### Event 65535.28

#### Metadata

| Field        | Value   |
|--------------|---------|
| Entrypoint   | 0x0964  |
| Data Size    | 5 bytes |
| Instructions | 3       |

```
      00 01 02 03 04 05 06 07  08 09 0A 0B 0C 0D 0E 0F
      -- -- -- -- -- -- -- --  -- -- -- -- -- -- -- --
0960:             1D 54 80 23  00                           .T.#.       
```

#### Opcodes

```
  0: 0x0964 [0x1D] PRINT_EVENT_MESSAGE(message_id=7498*)
    → "Phew... Heehee.t I guess that about does it. Here. I'll give you this portrait as a momento."
  1: 0x0967 [0x23] WAIT_FOR_DIALOG_INTERACTION
  2: 0x0968 [0x00] END_REQSTACK()
```

### Event 65535.29

#### Metadata

| Field        | Value   |
|--------------|---------|
| Entrypoint   | 0x0969  |
| Data Size    | 5 bytes |
| Instructions | 3       |

```
      00 01 02 03 04 05 06 07  08 09 0A 0B 0C 0D 0E 0F
      -- -- -- -- -- -- -- --  -- -- -- -- -- -- -- --
0960:                             1D 55 80 23 00                 .U.#.  
```

#### Opcodes

```
  0: 0x0969 [0x1D] PRINT_EVENT_MESSAGE(message_id=7499*)
    → "Phew... Heehee.t I guess that about does it."
  1: 0x096C [0x23] WAIT_FOR_DIALOG_INTERACTION
  2: 0x096D [0x00] END_REQSTACK()
```

### Event 65535.30

#### Metadata

| Field        | Value   |
|--------------|---------|
| Entrypoint   | 0x096E  |
| Data Size    | 5 bytes |
| Instructions | 3       |

```
      00 01 02 03 04 05 06 07  08 09 0A 0B 0C 0D 0E 0F
      -- -- -- -- -- -- -- --  -- -- -- -- -- -- -- --
0960:                                            1D 56                .V
0970: 80 23 00                                          .#.             
```

#### Opcodes

```
  0: 0x096E [0x1D] PRINT_EVENT_MESSAGE(message_id=7500*)
    → "As a bonus I'll also give you my autograph, right? In the near future, you'll be able to, like, fetch a fortune for it."
  1: 0x0971 [0x23] WAIT_FOR_DIALOG_INTERACTION
  2: 0x0972 [0x00] END_REQSTACK()
```

### Event 101

#### Metadata

| Field        | Value    |
|--------------|----------|
| Entrypoint   | 0x0973   |
| Data Size    | 22 bytes |
| Instructions | 8        |

```
      00 01 02 03 04 05 06 07  08 09 0A 0B 0C 0D 0E 0F
      -- -- -- -- -- -- -- --  -- -- -- -- -- -- -- --
0970:          79 00 59 E0 0E  01 F0 FF FF 7F 1D 57 80     y.Y........W.
0980: 23 1D 58 80 23 20 00 21  00                       #.X.# .!.       
```

#### Opcodes

```
  0: 0x0973 [0x79] Angelica (ID: 17752153/0x010EE059) looks at LocalPlayer (Basic look)
  1: 0x097D [0x1D] PRINT_EVENT_MESSAGE(message_id=7501*)
    → "Phew... I did some good work today."
  2: 0x0980 [0x23] WAIT_FOR_DIALOG_INTERACTION
  3: 0x0981 [0x1D] PRINT_EVENT_MESSAGE(message_id=7502*)
    → "I know it's, like, strange to say it myself, but...this is a work after my own heart."
  4: 0x0984 [0x23] WAIT_FOR_DIALOG_INTERACTION
  5: 0x0985 [0x20] SET_CLI_EVENT_UC_FLAG: Unlock player control
  6: 0x0987 [0x21] END_EVENT
  7: 0x0988 [0x00] END_REQSTACK()
```

### Event 771

#### Metadata

| Field        | Value    |
|--------------|----------|
| Entrypoint   | 0x0989   |
| Data Size    | 89 bytes |
| Instructions | 14       |

```
      00 01 02 03 04 05 06 07  08 09 0A 0B 0C 0D 0E 0F
      -- -- -- -- -- -- -- --  -- -- -- -- -- -- -- --
0980:                             20 01 42 79 00 59 E0            .By.Y.
0990: 0E 01 F0 FF FF 7F 29 0B  59 E0 0E 01 2E 29 0B 59  ......).Y....).Y
09A0: E0 0E 01 2F 29 0B 59 E0  0E 01 30 29 0B 59 E0 0E  .../).Y...0).Y..
09B0: 01 31 29 0B 59 E0 0E 01  32 45 44 80 F8 FF FF 7F  .1).Y...2ED.....
09C0: F8 FF FF 7F 66 64 6F 31  0A 80 1C 45 80 45 44 80  ....fdo1...E.ED.
09D0: F8 FF FF 7F F8 FF FF 7F  66 64 69 31 0A 80 20 00  ........fdi1.. .
09E0: 21 00                                             !.              
```

#### Opcodes

```
  0: 0x0989 [0x20] SET_CLI_EVENT_UC_FLAG: Lock player control
  1: 0x098B [0x42] SET_CLI_EVENT_CANCEL_DATA()
  2: 0x098C [0x79] Angelica (ID: 17752153/0x010EE059) looks at LocalPlayer (Basic look)
  3: 0x0996 [0x29] REQ_SET_WAIT(priority=0x0B, entity_id=Angelica (ID: 17752153/0x010EE059), tag_num=0x2E)
  4: 0x099D [0x29] REQ_SET_WAIT(priority=0x0B, entity_id=Angelica (ID: 17752153/0x010EE059), tag_num=0x2F)
  5: 0x09A4 [0x29] REQ_SET_WAIT(priority=0x0B, entity_id=Angelica (ID: 17752153/0x010EE059), tag_num=0x30)
  6: 0x09AB [0x29] REQ_SET_WAIT(priority=0x0B, entity_id=Angelica (ID: 17752153/0x010EE059), tag_num=0x31)
  7: 0x09B2 [0x29] REQ_SET_WAIT(priority=0x0B, entity_id=Angelica (ID: 17752153/0x010EE059), tag_num=0x32)
