# 17752110 - Kenapa-Keppa

## Common Data

| Field            | Value                     |
|------------------|---------------------------|
| Zone             | Windurst Waters (ID: 238) |
| Block Size       | 2244 bytes                |
| Total Events     | 62                        |
| References Count | 84                        |

## List of Events

| Event ID                   | Entrypoint   |   Size |   Instructions |
|----------------------------|--------------|--------|----------------|
| [65535](#event-65535)      | 0x0000       |      1 |              1 |
| [32692](#event-32692)      | 0x0001       |     12 |              6 |
| [65535.1](#event-655351)   | 0x000D       |     16 |              2 |
| [65535.2](#event-655352)   | 0x001D       |     22 |              4 |
| [65535.3](#event-655353)   | 0x0033       |     16 |              2 |
| [65535.4](#event-655354)   | 0x0043       |     14 |              2 |
| [65535.5](#event-655355)   | 0x0051       |     16 |              2 |
| [65535.6](#event-655356)   | 0x0061       |     14 |              2 |
| [65535.7](#event-655357)   | 0x006F       |     16 |              2 |
| [65535.8](#event-655358)   | 0x007F       |     14 |              2 |
| [65535.9](#event-655359)   | 0x008D       |     16 |              2 |
| [65535.10](#event-6553510) | 0x009D       |     14 |              2 |
| [65535.11](#event-6553511) | 0x00AB       |      9 |              3 |
| [302](#event-302)          | 0x00B4       |     33 |             12 |
| [303](#event-303)          | 0x00D5       |     33 |             12 |
| [307](#event-307)          | 0x00F6       |     33 |             12 |
| [145](#event-145)          | 0x0117       |     37 |             14 |
| [56](#event-56)            | 0x013C       |     29 |             10 |
| [310](#event-310)          | 0x0159       |     55 |             18 |
| [318](#event-318)          | 0x0190       |     29 |             10 |
| [319](#event-319)          | 0x01AD       |     29 |             10 |
| [320](#event-320)          | 0x01CA       |     29 |             10 |
| [321](#event-321)          | 0x01E7       |     29 |             10 |
| [327](#event-327)          | 0x0204       |     68 |             19 |
| [328](#event-328)          | 0x0248       |     29 |             10 |
| [329](#event-329)          | 0x0265       |     40 |             13 |
| [330](#event-330)          | 0x028D       |     64 |             17 |
| [331](#event-331)          | 0x02CD       |     33 |             12 |
| [336](#event-336)          | 0x02EE       |     29 |             10 |
| [337](#event-337)          | 0x030B       |     29 |             10 |
| [338](#event-338)          | 0x0328       |     33 |             12 |
| [339](#event-339)          | 0x0349       |     73 |             20 |
| [340](#event-340)          | 0x0392       |     29 |             10 |
| [341](#event-341)          | 0x03AF       |     29 |             10 |
| [342](#event-342)          | 0x03CC       |     29 |             10 |
| [343](#event-343)          | 0x03E9       |     29 |             10 |
| [348](#event-348)          | 0x0406       |     45 |             11 |
| [346](#event-346)          | 0x0433       |     28 |             10 |
| [65535.12](#event-6553512) | 0x044F       |     19 |              5 |
| [65535.13](#event-6553513) | 0x0462       |     19 |              5 |
| [65535.14](#event-6553514) | 0x0475       |     23 |              7 |
| [65535.15](#event-6553515) | 0x048C       |     19 |              5 |
| [347](#event-347)          | 0x049F       |     29 |             10 |
| [349](#event-349)          | 0x04BC       |     29 |             10 |
| [350](#event-350)          | 0x04D9       |     29 |             10 |
| [516](#event-516)          | 0x04F6       |      1 |              1 |
| [65535.16](#event-6553516) | 0x04F7       |     33 |              7 |
| [519](#event-519)          | 0x0518       |    119 |             30 |
| [740](#event-740)          | 0x058F       |     33 |             12 |
| [745](#event-745)          | 0x05B0       |     47 |             14 |
| [785](#event-785)          | 0x05DF       |      1 |              1 |
| [65535.17](#event-6553517) | 0x05E0       |     10 |              2 |
| [65535.18](#event-6553518) | 0x05EA       |      5 |              3 |
| [65535.19](#event-6553519) | 0x05EF       |      5 |              3 |
| [65535.20](#event-6553520) | 0x05F4       |      5 |              3 |
| [65535.21](#event-6553521) | 0x05F9       |      5 |              3 |
| [788](#event-788)          | 0x05FE       |     55 |             18 |
| [792](#event-792)          | 0x0635       |     37 |             14 |
| [795](#event-795)          | 0x065A       |      1 |              1 |
| [65535.22](#event-6553522) | 0x065B       |      5 |              3 |
| [872](#event-872)          | 0x0660       |      1 |              1 |
| [65535.23](#event-6553523) | 0x0661       |     10 |              2 |

## DAT References (imed_data)

|   Index | Hex Value   |   Dec Value |
|---------|-------------|-------------|
|       0 | 0x3C4E      |       15438 |
|       1 | 0x0028      |          40 |
|       2 | 0x001E      |          30 |
|       3 | 0x1F54      |        8020 |
|       4 | 0x1F55      |        8021 |
|       5 | 0x1F56      |        8022 |
|       6 | 0x1F57      |        8023 |
|       7 | 0x1F5E      |        8030 |
|       8 | 0x1F5F      |        8031 |
|       9 | 0x1DBE      |        7614 |
|      10 | 0x1DBF      |        7615 |
|      11 | 0x1DC0      |        7616 |
|      12 | 0x1CE1      |        7393 |
|      13 | 0x1F65      |        8037 |
|      14 | 0x1F66      |        8038 |
|      15 | 0x1F67      |        8039 |
|      16 | 0x1F68      |        8040 |
|      17 | 0x1F7B      |        8059 |
|      18 | 0x1F7C      |        8060 |
|      19 | 0x1F7D      |        8061 |
|      20 | 0x1F7F      |        8063 |
|      21 | 0x1F8C      |        8076 |
|      22 | 0x1F8D      |        8077 |
|      23 | 0x1F8E      |        8078 |
|      24 | 0x0001      |           1 |
|      25 | 0x00C9      |         201 |
|      26 | 0x0000      |           0 |
|      27 | 0x1998      |        6552 |
|      28 | 0x1F8F      |        8079 |
|      29 | 0x1F90      |        8080 |
|      30 | 0x1F91      |        8081 |
|      31 | 0x1F92      |        8082 |
|      32 | 0x1F93      |        8083 |
|      33 | 0x1F94      |        8084 |
|      34 | 0x1F95      |        8085 |
|      35 | 0x1F9F      |        8095 |
|      36 | 0x1FA0      |        8096 |
|      37 | 0x1FA1      |        8097 |
|      38 | 0x1FA2      |        8098 |
|      39 | 0x1FA3      |        8099 |
|      40 | 0x1FA4      |        8100 |
|      41 | 0x1FA5      |        8101 |
|      42 | 0x1FA6      |        8102 |
|      43 | 0x1FA7      |        8103 |
|      44 | 0x1FA8      |        8104 |
|      45 | 0x1FB1      |        8113 |
|      46 | 0x1FB2      |        8114 |
|      47 | 0x1FAD      |        8109 |
|      48 | 0x1FAE      |        8110 |
|      49 | 0x1FAF      |        8111 |
|      50 | 0x1FB0      |        8112 |
|      51 | 0x1FB4      |        8116 |
|      52 | 0x1FB6      |        8118 |
|      53 | 0x2173      |        8563 |
|      54 | 0x2177      |        8567 |
|      55 | 0x2178      |        8568 |
|      56 | 0x2179      |        8569 |
|      57 | 0x217A      |        8570 |
|      58 | 0x217B      |        8571 |
|      59 | 0x217C      |        8572 |
|      60 | 0x2609      |        9737 |
|      61 | 0x260A      |        9738 |
|      62 | 0x261B      |        9755 |
|      63 | 0x261C      |        9756 |
|      64 | 0x3AA4      |       15012 |
|      65 | 0xFFFCFA4A  |  4294769226 |
|      66 | 0xFFFFEF66  |  4294963046 |
|      67 | 0x09AF      |        2479 |
|      68 | 0x2696      |        9878 |
|      69 | 0x269A      |        9882 |
|      70 | 0x269B      |        9883 |
|      71 | 0x26A4      |        9892 |
|      72 | 0x26AE      |        9902 |
|      73 | 0x26AF      |        9903 |
|      74 | 0x26B0      |        9904 |
|      75 | 0x26B1      |        9905 |
|      76 | 0x26B9      |        9913 |
|      77 | 0x26BA      |        9914 |
|      78 | 0x26BB      |        9915 |
|      79 | 0x26C4      |        9924 |
|      80 | 0x5E9A      |       24218 |
|      81 | 0xFFFD0AD3  |  4294773459 |
|      82 | 0xFFFFEB7E  |  4294962046 |
|      83 | 0x0949      |        2377 |

## String References

- **6552**: Obtained $0 gil.
- **7393**: Hmm...? Huhummm...?
- **7614**: Food...bag...offering...
- **7615**: from...Culi...narians'...Guild...
- **7616**: has...juice...in...it...!
- **8020**: I...am...Kenapa-Keppa...
- **8021**: Yeah...that's...my...erh...name...
- **8022**: We...mainly...study...nature...here...
- **8023**: Y'know...plants...and...animals... ...and...that...kinda...thing...?
- **8030**: The...glowing...plants... you...see...around...town...
- **8031**: ...They're... "Fluoro-flora"...
- **8037**: Our...work...
- **8038**: ...never...works...
- **8039**: Cause...we...always...
- **8040**: ...take...our...eyes...off...it...
- **8059**: My...order...?
- **8060**: ...? Oh...food...? ...Um...?
- **8061**: A... A... A...boiled...egg...! Yeah...that's...what...I'll...have...
- **8063**: Or...whatever...
- **8076**: ......!
- **8077**: You...under...stood...me...?
- **8078**: Thanks...a...lot...!
- **8079**: ...<Grin>...
- **8080**: ......?
- **8081**: ...No...good...? But...I...can't...hold...out... ...much...longer...<sniff>...
- **8082**: ......?
- **8083**: How...did...you...know...? ...This...is...just...what... ...I...wanted...
- **8084**: ......?
- **8085**: Are...you...giving...this...away...? ...Oh...? ...Money...? ...Here...
- **8095**: ...... Oh-no...
- **8096**: ...Hey...erh... ...Can...you...help...me...?
- **8097**: ...Bag...delivered...to...Mhaura...
- **8098**: ...Please...bring...here... Quickly...
- **8099**: ...Must...hurry...
- **8100**: Li...sten...to...re...quest? [Ac...cept.../Re...fuse...]
- **8101**: ...Um...
- **8102**: Must...carry...over...night...
- **8103**: Must...get...back... ...be...fore...dawn...
- **8104**: ... Please... Carry...bag...back... ...before...day...break...
- **8109**: ...Aa\`h......
- **8110**: ...... Past...dawn...
- **8111**: ...<sniff>... ...I...can't...pay...you...now...
- **8112**: ...All...that...for...no...thing...
- **8113**: ...Phew...
- **8114**: ...Good... ...You...made...it...
- **8116**: ...?
- **8118**: ...of...fluoro-flora...
- **8563**: ...Umm...well...?
- **8567**: ......?
- **8568**: ...Umm...
- **8569**: ...They're...found...in...
- **8570**: ...Tah...ron...gi...Can...yon...
- **8571**: ...But...
- **8572**: ...it's...dan...ger...ous...!
- **9737**: ...Please...save...Minister...Rukususu...
- **9738**: ...<sob>...<sniff>...
- **9755**: ...Thank you...for...saving...the minister...
- **9756**: ...<grin>...
- **9878**: We...could...ask...the...minister...
- **9882**: Miteslime...is...the...secretion...of...the...starmite...bug...
- **9883**: The...starmite...is an...insect...that...feeds...on...tree...roots...
- **9892**: It...should be...okay...to give...emergency...authorization...to enter...the canal... Should be...
- **9902**: Great...discoveries...are...being made...all...over...
- **9903**: Researchers...researching...fauna...have it...tough...
- **9904**: So...adventurers...with...Rhinostery...authorization...
- **9905**: have...all...left...Windurst...to help...
- **9913**: ...!
- **9914**: You...made it...back...okay?
- **9915**: Oh...good...
- **9924**: Good...luck...!
- **15438**: Thank...you...for...lovely... ...Starlight...Celebration...present...

## Events

### Event 65535

#### Metadata

| Field        | Value   |
|--------------|---------|
| Entrypoint   | 0x0000  |
| Data Size    | 1 bytes |
| Instructions | 1       |

```
      00 01 02 03 04 05 06 07  08 09 0A 0B 0C 0D 0E 0F
      -- -- -- -- -- -- -- --  -- -- -- -- -- -- -- --
0000: 00                                                .               
```

#### Opcodes

```
  0: 0x0000 [0x00] END_REQSTACK()
```

### Event 32692

#### Metadata

| Field        | Value    |
|--------------|----------|
| Entrypoint   | 0x0001   |
| Data Size    | 12 bytes |
| Instructions | 6        |

```
      00 01 02 03 04 05 06 07  08 09 0A 0B 0C 0D 0E 0F
      -- -- -- -- -- -- -- --  -- -- -- -- -- -- -- --
0000:    42 1E F0 FF FF 7F 1D  00 80 23 21 00            B........#!.   
```

#### Opcodes

```
  0: 0x0001 [0x42] SET_CLI_EVENT_CANCEL_DATA()
  1: 0x0002 [0x1E] EventEntity looks at LocalPlayer and starts talking
  2: 0x0007 [0x1D] PRINT_EVENT_MESSAGE(message_id=15438*)
    → "Thank...you...for...lovely... ...Starlight...Celebration...present..."
  3: 0x000A [0x23] WAIT_FOR_DIALOG_INTERACTION
  4: 0x000B [0x21] END_EVENT
  5: 0x000C [0x00] END_REQSTACK()
```

### Event 65535.1

#### Metadata

| Field        | Value    |
|--------------|----------|
| Entrypoint   | 0x000D   |
| Data Size    | 16 bytes |
| Instructions | 2        |

```
      00 01 02 03 04 05 06 07  08 09 0A 0B 0C 0D 0E 0F
      -- -- -- -- -- -- -- --  -- -- -- -- -- -- -- --
0000:                                         66 01 80               f..
0010: F8 FF FF 7F F8 FF FF 7F  74 6C 6B 30 00           ........tlk0.   
```

#### Opcodes

```
  0: 0x000D [0x66] LOAD_EXT_SCHEDULER_MAIN: Load scheduler "tlk0" with entities [EventEntity, EventEntity], work=40*
  1: 0x001C [0x00] END_REQSTACK()
```

### Event 65535.2

#### Metadata

| Field        | Value    |
|--------------|----------|
| Entrypoint   | 0x001D   |
| Data Size    | 22 bytes |
| Instructions | 4        |

```
      00 01 02 03 04 05 06 07  08 09 0A 0B 0C 0D 0E 0F
      -- -- -- -- -- -- -- --  -- -- -- -- -- -- -- --
0010:                                         53 F8 FF               S..
0020: FF 7F F8 FF FF 7F 74 6C  6B 30 5E 69 64 6C 30 1C  ......tlk0^idl0.
0030: 02 80 00                                          ...             
```

#### Opcodes

```
  0: 0x001D [0x53] WAIT_SCHEDULER_TASK: Wait for scheduler "tlk0" with entities [EventEntity, EventEntity]
  1: 0x002A [0x5E] EventEntity goes idle (kills current action) (animation: "idl0")
  2: 0x002F [0x1C] WAIT(30* ticks)
  3: 0x0032 [0x00] END_REQSTACK()
```

### Event 65535.3

#### Metadata

| Field        | Value    |
|--------------|----------|
| Entrypoint   | 0x0033   |
| Data Size    | 16 bytes |
| Instructions | 2        |

```
      00 01 02 03 04 05 06 07  08 09 0A 0B 0C 0D 0E 0F
      -- -- -- -- -- -- -- --  -- -- -- -- -- -- -- --
0030:          66 01 80 F8 FF  FF 7F F8 FF FF 7F 74 68     f..........th
0040: 6B 31 00                                          k1.             
```

#### Opcodes

```
  0: 0x0033 [0x66] LOAD_EXT_SCHEDULER_MAIN: Load scheduler "thk1" with entities [EventEntity, EventEntity], work=40*
  1: 0x0042 [0x00] END_REQSTACK()
```

### Event 65535.4

#### Metadata

| Field        | Value    |
|--------------|----------|
| Entrypoint   | 0x0043   |
| Data Size    | 14 bytes |
| Instructions | 2        |

```
      00 01 02 03 04 05 06 07  08 09 0A 0B 0C 0D 0E 0F
      -- -- -- -- -- -- -- --  -- -- -- -- -- -- -- --
0040:          53 F8 FF FF 7F  F8 FF FF 7F 74 68 6B 31     S........thk1
0050: 00                                                .               
```

#### Opcodes

```
  0: 0x0043 [0x53] WAIT_SCHEDULER_TASK: Wait for scheduler "thk1" with entities [EventEntity, EventEntity]
  1: 0x0050 [0x00] END_REQSTACK()
```

### Event 65535.5

#### Metadata

| Field        | Value    |
|--------------|----------|
| Entrypoint   | 0x0051   |
| Data Size    | 16 bytes |
| Instructions | 2        |

```
      00 01 02 03 04 05 06 07  08 09 0A 0B 0C 0D 0E 0F
      -- -- -- -- -- -- -- --  -- -- -- -- -- -- -- --
0050:    66 01 80 F8 FF FF 7F  F8 FF FF 7F 74 68 6B 32   f..........thk2
0060: 00                                                .               
```

#### Opcodes

```
  0: 0x0051 [0x66] LOAD_EXT_SCHEDULER_MAIN: Load scheduler "thk2" with entities [EventEntity, EventEntity], work=40*
  1: 0x0060 [0x00] END_REQSTACK()
```

### Event 65535.6

#### Metadata

| Field        | Value    |
|--------------|----------|
| Entrypoint   | 0x0061   |
| Data Size    | 14 bytes |
| Instructions | 2        |

```
      00 01 02 03 04 05 06 07  08 09 0A 0B 0C 0D 0E 0F
      -- -- -- -- -- -- -- --  -- -- -- -- -- -- -- --
0060:    53 F8 FF FF 7F F8 FF  FF 7F 74 68 6B 32 00      S........thk2. 
```

#### Opcodes

```
  0: 0x0061 [0x53] WAIT_SCHEDULER_TASK: Wait for scheduler "thk2" with entities [EventEntity, EventEntity]
  1: 0x006E [0x00] END_REQSTACK()
```

### Event 65535.7

#### Metadata

| Field        | Value    |
|--------------|----------|
| Entrypoint   | 0x006F   |
| Data Size    | 16 bytes |
| Instructions | 2        |

```
      00 01 02 03 04 05 06 07  08 09 0A 0B 0C 0D 0E 0F
      -- -- -- -- -- -- -- --  -- -- -- -- -- -- -- --
0060:                                               66                 f
0070: 01 80 F8 FF FF 7F F8 FF  FF 7F 70 6F 69 30 00     ..........poi0. 
```

#### Opcodes

```
  0: 0x006F [0x66] LOAD_EXT_SCHEDULER_MAIN: Load scheduler "poi0" with entities [EventEntity, EventEntity], work=40*
  1: 0x007E [0x00] END_REQSTACK()
```

### Event 65535.8

#### Metadata

| Field        | Value    |
|--------------|----------|
| Entrypoint   | 0x007F   |
| Data Size    | 14 bytes |
| Instructions | 2        |

```
      00 01 02 03 04 05 06 07  08 09 0A 0B 0C 0D 0E 0F
      -- -- -- -- -- -- -- --  -- -- -- -- -- -- -- --
0070:                                               53                 S
0080: F8 FF FF 7F F8 FF FF 7F  70 6F 69 30 00           ........poi0.   
```

#### Opcodes

```
  0: 0x007F [0x53] WAIT_SCHEDULER_TASK: Wait for scheduler "poi0" with entities [EventEntity, EventEntity]
  1: 0x008C [0x00] END_REQSTACK()
```

### Event 65535.9

#### Metadata

| Field        | Value    |
|--------------|----------|
| Entrypoint   | 0x008D   |
| Data Size    | 16 bytes |
| Instructions | 2        |

```
      00 01 02 03 04 05 06 07  08 09 0A 0B 0C 0D 0E 0F
      -- -- -- -- -- -- -- --  -- -- -- -- -- -- -- --
0080:                                         66 01 80               f..
0090: F8 FF FF 7F F8 FF FF 7F  67 6B 72 30 00           ........gkr0.   
```

#### Opcodes

```
  0: 0x008D [0x66] LOAD_EXT_SCHEDULER_MAIN: Load scheduler "gkr0" with entities [EventEntity, EventEntity], work=40*
  1: 0x009C [0x00] END_REQSTACK()
```

### Event 65535.10

#### Metadata

| Field        | Value    |
|--------------|----------|
| Entrypoint   | 0x009D   |
| Data Size    | 14 bytes |
| Instructions | 2        |

```
      00 01 02 03 04 05 06 07  08 09 0A 0B 0C 0D 0E 0F
      -- -- -- -- -- -- -- --  -- -- -- -- -- -- -- --
0090:                                         53 F8 FF               S..
00A0: FF 7F F8 FF FF 7F 67 6B  72 30 00                 ......gkr0.     
```

#### Opcodes

```
  0: 0x009D [0x53] WAIT_SCHEDULER_TASK: Wait for scheduler "gkr0" with entities [EventEntity, EventEntity]
  1: 0x00AA [0x00] END_REQSTACK()
```

### Event 65535.11

#### Metadata

| Field        | Value   |
|--------------|---------|
| Entrypoint   | 0x00AB  |
| Data Size    | 9 bytes |
| Instructions | 3       |

```
      00 01 02 03 04 05 06 07  08 09 0A 0B 0C 0D 0E 0F
      -- -- -- -- -- -- -- --  -- -- -- -- -- -- -- --
00A0:                                   5E 69 64 6C 30             ^idl0
00B0: 1C 02 80 00                                       ....            
```

#### Opcodes

```
  0: 0x00AB [0x5E] EventEntity goes idle (kills current action) (animation: "idl0")
  1: 0x00B0 [0x1C] WAIT(30* ticks)
  2: 0x00B3 [0x00] END_REQSTACK()
```

### Event 302

#### Metadata

| Field        | Value    |
|--------------|----------|
| Entrypoint   | 0x00B4   |
| Data Size    | 33 bytes |
| Instructions | 12       |

```
      00 01 02 03 04 05 06 07  08 09 0A 0B 0C 0D 0E 0F
      -- -- -- -- -- -- -- --  -- -- -- -- -- -- -- --
00B0:             1E F0 FF FF  7F 6F 70 29 08 2E E0 0E      .....op)....
00C0: 01 02 1D 03 80 23 1D 04  80 23 29 08 2E E0 0E 01  .....#...#).....
00D0: 03 20 00 21 00                                    . .!.           
```

#### Opcodes

```
  0: 0x00B4 [0x1E] EventEntity looks at LocalPlayer and starts talking
  1: 0x00B9 [0x6F] WAIT_FRAME_DELAY: Yield until WaitTime reaches zero
  2: 0x00BA [0x70] WAIT_ENTITY_RENDER_FLAG: Wait while EventEntity->Render.Flags3 bit 2 is set (cancel turn if not)
  3: 0x00BB [0x29] REQ_SET_WAIT(priority=0x08, entity_id=Kenapa-Keppa (ID: 17752110/0x010EE02E), tag_num=0x02)
  4: 0x00C2 [0x1D] PRINT_EVENT_MESSAGE(message_id=8020*)
    → "I...am...Kenapa-Keppa..."
  5: 0x00C5 [0x23] WAIT_FOR_DIALOG_INTERACTION
  6: 0x00C6 [0x1D] PRINT_EVENT_MESSAGE(message_id=8021*)
    → "Yeah...that's...my...erh...name..."
  7: 0x00C9 [0x23] WAIT_FOR_DIALOG_INTERACTION
  8: 0x00CA [0x29] REQ_SET_WAIT(priority=0x08, entity_id=Kenapa-Keppa (ID: 17752110/0x010EE02E), tag_num=0x03)
  9: 0x00D1 [0x20] SET_CLI_EVENT_UC_FLAG: Unlock player control
 10: 0x00D3 [0x21] END_EVENT
 11: 0x00D4 [0x00] END_REQSTACK()
```

### Event 303

#### Metadata

| Field        | Value    |
|--------------|----------|
| Entrypoint   | 0x00D5   |
| Data Size    | 33 bytes |
| Instructions | 12       |

```
      00 01 02 03 04 05 06 07  08 09 0A 0B 0C 0D 0E 0F
      -- -- -- -- -- -- -- --  -- -- -- -- -- -- -- --
00D0:                1E F0 FF  FF 7F 6F 70 29 08 2E E0       .....op)...
00E0: 0E 01 02 1D 05 80 23 1D  06 80 23 29 08 2E E0 0E  ......#...#)....
00F0: 01 03 20 00 21 00                                 .. .!.          
```

#### Opcodes

```
  0: 0x00D5 [0x1E] EventEntity looks at LocalPlayer and starts talking
  1: 0x00DA [0x6F] WAIT_FRAME_DELAY: Yield until WaitTime reaches zero
  2: 0x00DB [0x70] WAIT_ENTITY_RENDER_FLAG: Wait while EventEntity->Render.Flags3 bit 2 is set (cancel turn if not)
  3: 0x00DC [0x29] REQ_SET_WAIT(priority=0x08, entity_id=Kenapa-Keppa (ID: 17752110/0x010EE02E), tag_num=0x02)
  4: 0x00E3 [0x1D] PRINT_EVENT_MESSAGE(message_id=8022*)
    → "We...mainly...study...nature...here..."
  5: 0x00E6 [0x23] WAIT_FOR_DIALOG_INTERACTION
  6: 0x00E7 [0x1D] PRINT_EVENT_MESSAGE(message_id=8023*)
    → "Y'know...plants...and...animals... ...and...that...kinda...thing...?"
  7: 0x00EA [0x23] WAIT_FOR_DIALOG_INTERACTION
  8: 0x00EB [0x29] REQ_SET_WAIT(priority=0x08, entity_id=Kenapa-Keppa (ID: 17752110/0x010EE02E), tag_num=0x03)
  9: 0x00F2 [0x20] SET_CLI_EVENT_UC_FLAG: Unlock player control
 10: 0x00F4 [0x21] END_EVENT
 11: 0x00F5 [0x00] END_REQSTACK()
```

### Event 307

#### Metadata

| Field        | Value    |
|--------------|----------|
| Entrypoint   | 0x00F6   |
| Data Size    | 33 bytes |
| Instructions | 12       |

```
      00 01 02 03 04 05 06 07  08 09 0A 0B 0C 0D 0E 0F
      -- -- -- -- -- -- -- --  -- -- -- -- -- -- -- --
00F0:                   1E F0  FF FF 7F 6F 70 29 08 2E        .....op)..
0100: E0 0E 01 02 1D 07 80 23  1D 08 80 23 29 08 2E E0  .......#...#)...
0110: 0E 01 03 20 00 21 00                              ... .!.         
```

#### Opcodes

```
  0: 0x00F6 [0x1E] EventEntity looks at LocalPlayer and starts talking
  1: 0x00FB [0x6F] WAIT_FRAME_DELAY: Yield until WaitTime reaches zero
  2: 0x00FC [0x70] WAIT_ENTITY_RENDER_FLAG: Wait while EventEntity->Render.Flags3 bit 2 is set (cancel turn if not)
  3: 0x00FD [0x29] REQ_SET_WAIT(priority=0x08, entity_id=Kenapa-Keppa (ID: 17752110/0x010EE02E), tag_num=0x02)
  4: 0x0104 [0x1D] PRINT_EVENT_MESSAGE(message_id=8030*)
    → "The...glowing...plants... you...see...around...town..."
  5: 0x0107 [0x23] WAIT_FOR_DIALOG_INTERACTION
  6: 0x0108 [0x1D] PRINT_EVENT_MESSAGE(message_id=8031*)
    → "...They're... "Fluoro-flora"..."
  7: 0x010B [0x23] WAIT_FOR_DIALOG_INTERACTION
  8: 0x010C [0x29] REQ_SET_WAIT(priority=0x08, entity_id=Kenapa-Keppa (ID: 17752110/0x010EE02E), tag_num=0x03)
  9: 0x0113 [0x20] SET_CLI_EVENT_UC_FLAG: Unlock player control
 10: 0x0115 [0x21] END_EVENT
 11: 0x0116 [0x00] END_REQSTACK()
```

### Event 145

#### Metadata

| Field        | Value    |
|--------------|----------|
| Entrypoint   | 0x0117   |
| Data Size    | 37 bytes |
| Instructions | 14       |

```
      00 01 02 03 04 05 06 07  08 09 0A 0B 0C 0D 0E 0F
      -- -- -- -- -- -- -- --  -- -- -- -- -- -- -- --
0110:                      1E  F0 FF FF 7F 6F 70 29 08         .....op).
0120: 2E E0 0E 01 02 1D 09 80  23 1D 0A 80 23 1D 0B 80  ........#...#...
0130: 23 29 08 2E E0 0E 01 03  20 00 21 00              #)...... .!.    
```

#### Opcodes

```
  0: 0x0117 [0x1E] EventEntity looks at LocalPlayer and starts talking
  1: 0x011C [0x6F] WAIT_FRAME_DELAY: Yield until WaitTime reaches zero
  2: 0x011D [0x70] WAIT_ENTITY_RENDER_FLAG: Wait while EventEntity->Render.Flags3 bit 2 is set (cancel turn if not)
  3: 0x011E [0x29] REQ_SET_WAIT(priority=0x08, entity_id=Kenapa-Keppa (ID: 17752110/0x010EE02E), tag_num=0x02)
  4: 0x0125 [0x1D] PRINT_EVENT_MESSAGE(message_id=7614*)
    → "Food...bag...offering..."
  5: 0x0128 [0x23] WAIT_FOR_DIALOG_INTERACTION
  6: 0x0129 [0x1D] PRINT_EVENT_MESSAGE(message_id=7615*)
    → "from...Culi...narians'...Guild..."
  7: 0x012C [0x23] WAIT_FOR_DIALOG_INTERACTION
  8: 0x012D [0x1D] PRINT_EVENT_MESSAGE(message_id=7616*)
    → "has...juice...in...it...!"
  9: 0x0130 [0x23] WAIT_FOR_DIALOG_INTERACTION
 10: 0x0131 [0x29] REQ_SET_WAIT(priority=0x08, entity_id=Kenapa-Keppa (ID: 17752110/0x010EE02E), tag_num=0x03)
 11: 0x0138 [0x20] SET_CLI_EVENT_UC_FLAG: Unlock player control
 12: 0x013A [0x21] END_EVENT
 13: 0x013B [0x00] END_REQSTACK()
```

### Event 56

#### Metadata

| Field        | Value    |
|--------------|----------|
| Entrypoint   | 0x013C   |
| Data Size    | 29 bytes |
| Instructions | 10       |

```
      00 01 02 03 04 05 06 07  08 09 0A 0B 0C 0D 0E 0F
      -- -- -- -- -- -- -- --  -- -- -- -- -- -- -- --
0130:                                      1E F0 FF FF              ....
0140: 7F 6F 70 29 08 2E E0 0E  01 02 1D 0C 80 23 29 08  .op).........#).
0150: 2E E0 0E 01 03 20 00 21  00                       ..... .!.       
```

#### Opcodes

```
  0: 0x013C [0x1E] EventEntity looks at LocalPlayer and starts talking
  1: 0x0141 [0x6F] WAIT_FRAME_DELAY: Yield until WaitTime reaches zero
  2: 0x0142 [0x70] WAIT_ENTITY_RENDER_FLAG: Wait while EventEntity->Render.Flags3 bit 2 is set (cancel turn if not)
  3: 0x0143 [0x29] REQ_SET_WAIT(priority=0x08, entity_id=Kenapa-Keppa (ID: 17752110/0x010EE02E), tag_num=0x02)
  4: 0x014A [0x1D] PRINT_EVENT_MESSAGE(message_id=7393*)
    → "Hmm...? Huhummm...?"
  5: 0x014D [0x23] WAIT_FOR_DIALOG_INTERACTION
  6: 0x014E [0x29] REQ_SET_WAIT(priority=0x08, entity_id=Kenapa-Keppa (ID: 17752110/0x010EE02E), tag_num=0x03)
  7: 0x0155 [0x20] SET_CLI_EVENT_UC_FLAG: Unlock player control
  8: 0x0157 [0x21] END_EVENT
  9: 0x0158 [0x00] END_REQSTACK()
```

### Event 310

#### Metadata

| Field        | Value    |
|--------------|----------|
| Entrypoint   | 0x0159   |
| Data Size    | 55 bytes |
| Instructions | 18       |

```
      00 01 02 03 04 05 06 07  08 09 0A 0B 0C 0D 0E 0F
      -- -- -- -- -- -- -- --  -- -- -- -- -- -- -- --
0150:                             1E F0 FF FF 7F 6F 70           .....op
0160: 29 08 2E E0 0E 01 02 1D  0D 80 23 29 08 2E E0 0E  ).........#)....
0170: 01 03 1D 0E 80 23 1D 0F  80 23 29 08 2E E0 0E 01  .....#...#).....
0180: 02 1D 10 80 23 29 08 2E  E0 0E 01 03 20 00 21 00  ....#)...... .!.
```

#### Opcodes

```
  0: 0x0159 [0x1E] EventEntity looks at LocalPlayer and starts talking
  1: 0x015E [0x6F] WAIT_FRAME_DELAY: Yield until WaitTime reaches zero
  2: 0x015F [0x70] WAIT_ENTITY_RENDER_FLAG: Wait while EventEntity->Render.Flags3 bit 2 is set (cancel turn if not)
  3: 0x0160 [0x29] REQ_SET_WAIT(priority=0x08, entity_id=Kenapa-Keppa (ID: 17752110/0x010EE02E), tag_num=0x02)
  4: 0x0167 [0x1D] PRINT_EVENT_MESSAGE(message_id=8037*)
    → "Our...work..."
  5: 0x016A [0x23] WAIT_FOR_DIALOG_INTERACTION
  6: 0x016B [0x29] REQ_SET_WAIT(priority=0x08, entity_id=Kenapa-Keppa (ID: 17752110/0x010EE02E), tag_num=0x03)
  7: 0x0172 [0x1D] PRINT_EVENT_MESSAGE(message_id=8038*)
    → "...never...works..."
  8: 0x0175 [0x23] WAIT_FOR_DIALOG_INTERACTION
  9: 0x0176 [0x1D] PRINT_EVENT_MESSAGE(message_id=8039*)
    → "Cause...we...always..."
 10: 0x0179 [0x23] WAIT_FOR_DIALOG_INTERACTION
 11: 0x017A [0x29] REQ_SET_WAIT(priority=0x08, entity_id=Kenapa-Keppa (ID: 17752110/0x010EE02E), tag_num=0x02)
 12: 0x0181 [0x1D] PRINT_EVENT_MESSAGE(message_id=8040*)
    → "...take...our...eyes...off...it..."
 13: 0x0184 [0x23] WAIT_FOR_DIALOG_INTERACTION
 14: 0x0185 [0x29] REQ_SET_WAIT(priority=0x08, entity_id=Kenapa-Keppa (ID: 17752110/0x010EE02E), tag_num=0x03)
 15: 0x018C [0x20] SET_CLI_EVENT_UC_FLAG: Unlock player control
 16: 0x018E [0x21] END_EVENT
 17: 0x018F [0x00] END_REQSTACK()
```

### Event 318

#### Metadata

| Field        | Value    |
|--------------|----------|
| Entrypoint   | 0x0190   |
| Data Size    | 29 bytes |
| Instructions | 10       |

```
      00 01 02 03 04 05 06 07  08 09 0A 0B 0C 0D 0E 0F
      -- -- -- -- -- -- -- --  -- -- -- -- -- -- -- --
0190: 1E F0 FF FF 7F 6F 70 29  08 2E E0 0E 01 02 1D 11  .....op)........
01A0: 80 23 29 08 2E E0 0E 01  03 20 00 21 00           .#)...... .!.   
```

#### Opcodes

```
  0: 0x0190 [0x1E] EventEntity looks at LocalPlayer and starts talking
  1: 0x0195 [0x6F] WAIT_FRAME_DELAY: Yield until WaitTime reaches zero
  2: 0x0196 [0x70] WAIT_ENTITY_RENDER_FLAG: Wait while EventEntity->Render.Flags3 bit 2 is set (cancel turn if not)
  3: 0x0197 [0x29] REQ_SET_WAIT(priority=0x08, entity_id=Kenapa-Keppa (ID: 17752110/0x010EE02E), tag_num=0x02)
  4: 0x019E [0x1D] PRINT_EVENT_MESSAGE(message_id=8059*)
    → "My...order...?"
  5: 0x01A1 [0x23] WAIT_FOR_DIALOG_INTERACTION
  6: 0x01A2 [0x29] REQ_SET_WAIT(priority=0x08, entity_id=Kenapa-Keppa (ID: 17752110/0x010EE02E), tag_num=0x03)
  7: 0x01A9 [0x20] SET_CLI_EVENT_UC_FLAG: Unlock player control
  8: 0x01AB [0x21] END_EVENT
  9: 0x01AC [0x00] END_REQSTACK()
```

### Event 319

#### Metadata

| Field        | Value    |
|--------------|----------|
| Entrypoint   | 0x01AD   |
| Data Size    | 29 bytes |
| Instructions | 10       |

```
      00 01 02 03 04 05 06 07  08 09 0A 0B 0C 0D 0E 0F
      -- -- -- -- -- -- -- --  -- -- -- -- -- -- -- --
01A0:                                         1E F0 FF               ...
01B0: FF 7F 6F 70 29 08 2E E0  0E 01 02 1D 12 80 23 29  ..op).........#)
01C0: 08 2E E0 0E 01 03 20 00  21 00                    ...... .!.      
```

#### Opcodes

```
  0: 0x01AD [0x1E] EventEntity looks at LocalPlayer and starts talking
  1: 0x01B2 [0x6F] WAIT_FRAME_DELAY: Yield until WaitTime reaches zero
  2: 0x01B3 [0x70] WAIT_ENTITY_RENDER_FLAG: Wait while EventEntity->Render.Flags3 bit 2 is set (cancel turn if not)
  3: 0x01B4 [0x29] REQ_SET_WAIT(priority=0x08, entity_id=Kenapa-Keppa (ID: 17752110/0x010EE02E), tag_num=0x02)
  4: 0x01BB [0x1D] PRINT_EVENT_MESSAGE(message_id=8060*)
    → "...? Oh...food...? ...Um...?"
  5: 0x01BE [0x23] WAIT_FOR_DIALOG_INTERACTION
  6: 0x01BF [0x29] REQ_SET_WAIT(priority=0x08, entity_id=Kenapa-Keppa (ID: 17752110/0x010EE02E), tag_num=0x03)
  7: 0x01C6 [0x20] SET_CLI_EVENT_UC_FLAG: Unlock player control
  8: 0x01C8 [0x21] END_EVENT
  9: 0x01C9 [0x00] END_REQSTACK()
```

### Event 320

#### Metadata

| Field        | Value    |
|--------------|----------|
| Entrypoint   | 0x01CA   |
| Data Size    | 29 bytes |
| Instructions | 10       |

```
      00 01 02 03 04 05 06 07  08 09 0A 0B 0C 0D 0E 0F
      -- -- -- -- -- -- -- --  -- -- -- -- -- -- -- --
01C0:                                1E F0 FF FF 7F 6F            .....o
01D0: 70 29 08 2E E0 0E 01 02  1D 13 80 23 29 08 2E E0  p).........#)...
01E0: 0E 01 03 20 00 21 00                              ... .!.         
```

#### Opcodes

```
  0: 0x01CA [0x1E] EventEntity looks at LocalPlayer and starts talking
  1: 0x01CF [0x6F] WAIT_FRAME_DELAY: Yield until WaitTime reaches zero
  2: 0x01D0 [0x70] WAIT_ENTITY_RENDER_FLAG: Wait while EventEntity->Render.Flags3 bit 2 is set (cancel turn if not)
  3: 0x01D1 [0x29] REQ_SET_WAIT(priority=0x08, entity_id=Kenapa-Keppa (ID: 17752110/0x010EE02E), tag_num=0x02)
  4: 0x01D8 [0x1D] PRINT_EVENT_MESSAGE(message_id=8061*)
    → "A... A... A...boiled...egg...! Yeah...that's...what...I'll...have..."
  5: 0x01DB [0x23] WAIT_FOR_DIALOG_INTERACTION
  6: 0x01DC [0x29] REQ_SET_WAIT(priority=0x08, entity_id=Kenapa-Keppa (ID: 17752110/0x010EE02E), tag_num=0x03)
  7: 0x01E3 [0x20] SET_CLI_EVENT_UC_FLAG: Unlock player control
  8: 0x01E5 [0x21] END_EVENT
  9: 0x01E6 [0x00] END_REQSTACK()
```

### Event 321

#### Metadata

| Field        | Value    |
|--------------|----------|
| Entrypoint   | 0x01E7   |
| Data Size    | 29 bytes |
| Instructions | 10       |

```
      00 01 02 03 04 05 06 07  08 09 0A 0B 0C 0D 0E 0F
      -- -- -- -- -- -- -- --  -- -- -- -- -- -- -- --
01E0:                      1E  F0 FF FF 7F 6F 70 29 08         .....op).
01F0: 2E E0 0E 01 02 1D 14 80  23 29 08 2E E0 0E 01 03  ........#)......
0200: 20 00 21 00                                        .!.            
```

#### Opcodes

```
  0: 0x01E7 [0x1E] EventEntity looks at LocalPlayer and starts talking
  1: 0x01EC [0x6F] WAIT_FRAME_DELAY: Yield until WaitTime reaches zero
  2: 0x01ED [0x70] WAIT_ENTITY_RENDER_FLAG: Wait while EventEntity->Render.Flags3 bit 2 is set (cancel turn if not)
  3: 0x01EE [0x29] REQ_SET_WAIT(priority=0x08, entity_id=Kenapa-Keppa (ID: 17752110/0x010EE02E), tag_num=0x02)
  4: 0x01F5 [0x1D] PRINT_EVENT_MESSAGE(message_id=8063*)
    → "Or...whatever..."
  5: 0x01F8 [0x23] WAIT_FOR_DIALOG_INTERACTION
  6: 0x01F9 [0x29] REQ_SET_WAIT(priority=0x08, entity_id=Kenapa-Keppa (ID: 17752110/0x010EE02E), tag_num=0x03)
  7: 0x0200 [0x20] SET_CLI_EVENT_UC_FLAG: Unlock player control
  8: 0x0202 [0x21] END_EVENT
  9: 0x0203 [0x00] END_REQSTACK()
```

### Event 327

#### Metadata

| Field        | Value    |
|--------------|----------|
| Entrypoint   | 0x0204   |
| Data Size    | 68 bytes |
| Instructions | 19       |

```
      00 01 02 03 04 05 06 07  08 09 0A 0B 0C 0D 0E 0F
      -- -- -- -- -- -- -- --  -- -- -- -- -- -- -- --
0200:             20 01 42 1E  F0 FF FF 7F 6F 70 29 08       .B.....op).
0210: 2E E0 0E 01 02 1D 15 80  23 1D 16 80 23 1D 17 80  ........#...#...
0220: 23 29 08 2E E0 0E 01 03  02 05 10 18 80 00 41 02  #)............A.
0230: 45 19 80 F0 FF FF 7F F0  FF FF 7F 71 73 74 63 1A  E..........qstc.
0240: 80 48 1B 80 20 00 21 00                           .H.. .!.        
```

#### Opcodes

```
  0: 0x0204 [0x20] SET_CLI_EVENT_UC_FLAG: Lock player control
  1: 0x0206 [0x42] SET_CLI_EVENT_CANCEL_DATA()
  2: 0x0207 [0x1E] EventEntity looks at LocalPlayer and starts talking
  3: 0x020C [0x6F] WAIT_FRAME_DELAY: Yield until WaitTime reaches zero
  4: 0x020D [0x70] WAIT_ENTITY_RENDER_FLAG: Wait while EventEntity->Render.Flags3 bit 2 is set (cancel turn if not)
  5: 0x020E [0x29] REQ_SET_WAIT(priority=0x08, entity_id=Kenapa-Keppa (ID: 17752110/0x010EE02E), tag_num=0x02)
  6: 0x0215 [0x1D] PRINT_EVENT_MESSAGE(message_id=8076*)
    → "......!"
  7: 0x0218 [0x23] WAIT_FOR_DIALOG_INTERACTION
  8: 0x0219 [0x1D] PRINT_EVENT_MESSAGE(message_id=8077*)
    → "You...under...stood...me...?"
  9: 0x021C [0x23] WAIT_FOR_DIALOG_INTERACTION
 10: 0x021D [0x1D] PRINT_EVENT_MESSAGE(message_id=8078*)
    → "Thanks...a...lot...!"
 11: 0x0220 [0x23] WAIT_FOR_DIALOG_INTERACTION
 12: 0x0221 [0x29] REQ_SET_WAIT(priority=0x08, entity_id=Kenapa-Keppa (ID: 17752110/0x010EE02E), tag_num=0x03)
 13: 0x0228 [0x02] IF !(Work_Zone[5] == 1*) GOTO 0x0241
 14: 0x0230 [0x45] LOAD_SCHEDULED_TASK: Load scheduler "qstc" with entities [LocalPlayer, LocalPlayer], work=[201*, 0*]
 15: 0x0241 [0x48] [System] [6552*]:
    → "Obtained $0 gil."
 16: 0x0244 [0x20] SET_CLI_EVENT_UC_FLAG: Unlock player control
 17: 0x0246 [0x21] END_EVENT
 18: 0x0247 [0x00] END_REQSTACK()
```

### Event 328

#### Metadata

| Field        | Value    |
|--------------|----------|
| Entrypoint   | 0x0248   |
| Data Size    | 29 bytes |
| Instructions | 10       |

```
      00 01 02 03 04 05 06 07  08 09 0A 0B 0C 0D 0E 0F
      -- -- -- -- -- -- -- --  -- -- -- -- -- -- -- --
0240:                          1E F0 FF FF 7F 6F 70 29          .....op)
0250: 08 2E E0 0E 01 02 1D 1C  80 23 29 08 2E E0 0E 01  .........#).....
0260: 03 20 00 21 00                                    . .!.           
```

#### Opcodes

```
  0: 0x0248 [0x1E] EventEntity looks at LocalPlayer and starts talking
  1: 0x024D [0x6F] WAIT_FRAME_DELAY: Yield until WaitTime reaches zero
  2: 0x024E [0x70] WAIT_ENTITY_RENDER_FLAG: Wait while EventEntity->Render.Flags3 bit 2 is set (cancel turn if not)
  3: 0x024F [0x29] REQ_SET_WAIT(priority=0x08, entity_id=Kenapa-Keppa (ID: 17752110/0x010EE02E), tag_num=0x02)
  4: 0x0256 [0x1D] PRINT_EVENT_MESSAGE(message_id=8079*)
    → "...<Grin>..."
  5: 0x0259 [0x23] WAIT_FOR_DIALOG_INTERACTION
  6: 0x025A [0x29] REQ_SET_WAIT(priority=0x08, entity_id=Kenapa-Keppa (ID: 17752110/0x010EE02E), tag_num=0x03)
  7: 0x0261 [0x20] SET_CLI_EVENT_UC_FLAG: Unlock player control
  8: 0x0263 [0x21] END_EVENT
  9: 0x0264 [0x00] END_REQSTACK()
```

### Event 329

#### Metadata

| Field        | Value    |
|--------------|----------|
| Entrypoint   | 0x0265   |
| Data Size    | 40 bytes |
| Instructions | 13       |

```
      00 01 02 03 04 05 06 07  08 09 0A 0B 0C 0D 0E 0F
      -- -- -- -- -- -- -- --  -- -- -- -- -- -- -- --
0260:                1E F0 FF  FF 7F 6F 70 29 08 2E E0       .....op)...
0270: 0E 01 02 1D 1D 80 23 1D  1E 80 23 29 08 2E E0 0E  ......#...#)....
0280: 01 03 29 08 2E E0 0E 01  0C 20 00 21 00           ..)...... .!.   
```

#### Opcodes

```
  0: 0x0265 [0x1E] EventEntity looks at LocalPlayer and starts talking
  1: 0x026A [0x6F] WAIT_FRAME_DELAY: Yield until WaitTime reaches zero
  2: 0x026B [0x70] WAIT_ENTITY_RENDER_FLAG: Wait while EventEntity->Render.Flags3 bit 2 is set (cancel turn if not)
  3: 0x026C [0x29] REQ_SET_WAIT(priority=0x08, entity_id=Kenapa-Keppa (ID: 17752110/0x010EE02E), tag_num=0x02)
  4: 0x0273 [0x1D] PRINT_EVENT_MESSAGE(message_id=8080*)
    → "......?"
  5: 0x0276 [0x23] WAIT_FOR_DIALOG_INTERACTION
  6: 0x0277 [0x1D] PRINT_EVENT_MESSAGE(message_id=8081*)
    → "...No...good...? But...I...can't...hold...out... ...much...longer...<sniff>..."
  7: 0x027A [0x23] WAIT_FOR_DIALOG_INTERACTION
  8: 0x027B [0x29] REQ_SET_WAIT(priority=0x08, entity_id=Kenapa-Keppa (ID: 17752110/0x010EE02E), tag_num=0x03)
  9: 0x0282 [0x29] REQ_SET_WAIT(priority=0x08, entity_id=Kenapa-Keppa (ID: 17752110/0x010EE02E), tag_num=0x0C)
 10: 0x0289 [0x20] SET_CLI_EVENT_UC_FLAG: Unlock player control
 11: 0x028B [0x21] END_EVENT
 12: 0x028C [0x00] END_REQSTACK()
```

### Event 330

#### Metadata

| Field        | Value    |
|--------------|----------|
| Entrypoint   | 0x028D   |
| Data Size    | 64 bytes |
| Instructions | 17       |

```
      00 01 02 03 04 05 06 07  08 09 0A 0B 0C 0D 0E 0F
      -- -- -- -- -- -- -- --  -- -- -- -- -- -- -- --
0280:                                         20 01 42                .B
0290: 1E F0 FF FF 7F 6F 70 29  08 2E E0 0E 01 02 1D 1F  .....op)........
02A0: 80 23 1D 20 80 23 29 08  2E E0 0E 01 03 02 05 10  .#. .#).........
02B0: 18 80 00 C6 02 45 19 80  F0 FF FF 7F F0 FF FF 7F  .....E..........
02C0: 71 73 74 63 1A 80 48 1B  80 20 00 21 00           qstc..H.. .!.   
```

#### Opcodes

```
  0: 0x028D [0x20] SET_CLI_EVENT_UC_FLAG: Lock player control
  1: 0x028F [0x42] SET_CLI_EVENT_CANCEL_DATA()
  2: 0x0290 [0x1E] EventEntity looks at LocalPlayer and starts talking
  3: 0x0295 [0x6F] WAIT_FRAME_DELAY: Yield until WaitTime reaches zero
  4: 0x0296 [0x70] WAIT_ENTITY_RENDER_FLAG: Wait while EventEntity->Render.Flags3 bit 2 is set (cancel turn if not)
  5: 0x0297 [0x29] REQ_SET_WAIT(priority=0x08, entity_id=Kenapa-Keppa (ID: 17752110/0x010EE02E), tag_num=0x02)
  6: 0x029E [0x1D] PRINT_EVENT_MESSAGE(message_id=8082*)
    → "......?"
  7: 0x02A1 [0x23] WAIT_FOR_DIALOG_INTERACTION
  8: 0x02A2 [0x1D] PRINT_EVENT_MESSAGE(message_id=8083*)
    → "How...did...you...know...? ...This...is...just...what... ...I...wanted..."
  9: 0x02A5 [0x23] WAIT_FOR_DIALOG_INTERACTION
 10: 0x02A6 [0x29] REQ_SET_WAIT(priority=0x08, entity_id=Kenapa-Keppa (ID: 17752110/0x010EE02E), tag_num=0x03)
 11: 0x02AD [0x02] IF !(Work_Zone[5] == 1*) GOTO 0x02C6
 12: 0x02B5 [0x45] LOAD_SCHEDULED_TASK: Load scheduler "qstc" with entities [LocalPlayer, LocalPlayer], work=[201*, 0*]
 13: 0x02C6 [0x48] [System] [6552*]:
    → "Obtained $0 gil."
 14: 0x02C9 [0x20] SET_CLI_EVENT_UC_FLAG: Unlock player control
 15: 0x02CB [0x21] END_EVENT
 16: 0x02CC [0x00] END_REQSTACK()
```

### Event 331

#### Metadata

| Field        | Value    |
|--------------|----------|
| Entrypoint   | 0x02CD   |
| Data Size    | 33 bytes |
| Instructions | 12       |

```
      00 01 02 03 04 05 06 07  08 09 0A 0B 0C 0D 0E 0F
      -- -- -- -- -- -- -- --  -- -- -- -- -- -- -- --
02C0:                                         1E F0 FF               ...
02D0: FF 7F 6F 70 29 08 2E E0  0E 01 02 1D 21 80 23 1D  ..op).......!.#.
02E0: 22 80 23 29 08 2E E0 0E  01 03 20 00 21 00        ".#)...... .!.  
```

#### Opcodes

```
  0: 0x02CD [0x1E] EventEntity looks at LocalPlayer and starts talking
  1: 0x02D2 [0x6F] WAIT_FRAME_DELAY: Yield until WaitTime reaches zero
  2: 0x02D3 [0x70] WAIT_ENTITY_RENDER_FLAG: Wait while EventEntity->Render.Flags3 bit 2 is set (cancel turn if not)
  3: 0x02D4 [0x29] REQ_SET_WAIT(priority=0x08, entity_id=Kenapa-Keppa (ID: 17752110/0x010EE02E), tag_num=0x02)
  4: 0x02DB [0x1D] PRINT_EVENT_MESSAGE(message_id=8084*)
    → "......?"
  5: 0x02DE [0x23] WAIT_FOR_DIALOG_INTERACTION
  6: 0x02DF [0x1D] PRINT_EVENT_MESSAGE(message_id=8085*)
    → "Are...you...giving...this...away...? ...Oh...? ...Money...? ...Here..."
  7: 0x02E2 [0x23] WAIT_FOR_DIALOG_INTERACTION
  8: 0x02E3 [0x29] REQ_SET_WAIT(priority=0x08, entity_id=Kenapa-Keppa (ID: 17752110/0x010EE02E), tag_num=0x03)
  9: 0x02EA [0x20] SET_CLI_EVENT_UC_FLAG: Unlock player control
 10: 0x02EC [0x21] END_EVENT
 11: 0x02ED [0x00] END_REQSTACK()
```

### Event 336

#### Metadata

| Field        | Value    |
|--------------|----------|
| Entrypoint   | 0x02EE   |
| Data Size    | 29 bytes |
| Instructions | 10       |

```
      00 01 02 03 04 05 06 07  08 09 0A 0B 0C 0D 0E 0F
      -- -- -- -- -- -- -- --  -- -- -- -- -- -- -- --
02E0:                                            1E F0                ..
02F0: FF FF 7F 6F 70 29 08 2E  E0 0E 01 02 1D 23 80 23  ...op).......#.#
0300: 29 08 2E E0 0E 01 03 20  00 21 00                 )...... .!.     
```

#### Opcodes

```
  0: 0x02EE [0x1E] EventEntity looks at LocalPlayer and starts talking
  1: 0x02F3 [0x6F] WAIT_FRAME_DELAY: Yield until WaitTime reaches zero
  2: 0x02F4 [0x70] WAIT_ENTITY_RENDER_FLAG: Wait while EventEntity->Render.Flags3 bit 2 is set (cancel turn if not)
  3: 0x02F5 [0x29] REQ_SET_WAIT(priority=0x08, entity_id=Kenapa-Keppa (ID: 17752110/0x010EE02E), tag_num=0x02)
  4: 0x02FC [0x1D] PRINT_EVENT_MESSAGE(message_id=8095*)
    → "...... Oh-no..."
  5: 0x02FF [0x23] WAIT_FOR_DIALOG_INTERACTION
  6: 0x0300 [0x29] REQ_SET_WAIT(priority=0x08, entity_id=Kenapa-Keppa (ID: 17752110/0x010EE02E), tag_num=0x03)
  7: 0x0307 [0x20] SET_CLI_EVENT_UC_FLAG: Unlock player control
  8: 0x0309 [0x21] END_EVENT
  9: 0x030A [0x00] END_REQSTACK()
```

### Event 337

#### Metadata

| Field        | Value    |
|--------------|----------|
| Entrypoint   | 0x030B   |
| Data Size    | 29 bytes |
| Instructions | 10       |

```
      00 01 02 03 04 05 06 07  08 09 0A 0B 0C 0D 0E 0F
      -- -- -- -- -- -- -- --  -- -- -- -- -- -- -- --
0300:                                   1E F0 FF FF 7F             .....
0310: 6F 70 29 08 2E E0 0E 01  02 1D 24 80 23 29 08 2E  op).......$.#)..
0320: E0 0E 01 03 20 00 21 00                           .... .!.        
```

#### Opcodes

```
  0: 0x030B [0x1E] EventEntity looks at LocalPlayer and starts talking
  1: 0x0310 [0x6F] WAIT_FRAME_DELAY: Yield until WaitTime reaches zero
  2: 0x0311 [0x70] WAIT_ENTITY_RENDER_FLAG: Wait while EventEntity->Render.Flags3 bit 2 is set (cancel turn if not)
  3: 0x0312 [0x29] REQ_SET_WAIT(priority=0x08, entity_id=Kenapa-Keppa (ID: 17752110/0x010EE02E), tag_num=0x02)
  4: 0x0319 [0x1D] PRINT_EVENT_MESSAGE(message_id=8096*)
    → "...Hey...erh... ...Can...you...help...me...?"
  5: 0x031C [0x23] WAIT_FOR_DIALOG_INTERACTION
  6: 0x031D [0x29] REQ_SET_WAIT(priority=0x08, entity_id=Kenapa-Keppa (ID: 17752110/0x010EE02E), tag_num=0x03)
  7: 0x0324 [0x20] SET_CLI_EVENT_UC_FLAG: Unlock player control
  8: 0x0326 [0x21] END_EVENT
  9: 0x0327 [0x00] END_REQSTACK()
```

### Event 338

#### Metadata

| Field        | Value    |
|--------------|----------|
| Entrypoint   | 0x0328   |
| Data Size    | 33 bytes |
| Instructions | 12       |

```
      00 01 02 03 04 05 06 07  08 09 0A 0B 0C 0D 0E 0F
      -- -- -- -- -- -- -- --  -- -- -- -- -- -- -- --
0320:                          1E F0 FF FF 7F 6F 70 29          .....op)
0330: 08 2E E0 0E 01 02 1D 25  80 23 1D 26 80 23 29 08  .......%.#.&.#).
0340: 2E E0 0E 01 03 20 00 21  00                       ..... .!.       
```

#### Opcodes

```
  0: 0x0328 [0x1E] EventEntity looks at LocalPlayer and starts talking
  1: 0x032D [0x6F] WAIT_FRAME_DELAY: Yield until WaitTime reaches zero
  2: 0x032E [0x70] WAIT_ENTITY_RENDER_FLAG: Wait while EventEntity->Render.Flags3 bit 2 is set (cancel turn if not)
  3: 0x032F [0x29] REQ_SET_WAIT(priority=0x08, entity_id=Kenapa-Keppa (ID: 17752110/0x010EE02E), tag_num=0x02)
  4: 0x0336 [0x1D] PRINT_EVENT_MESSAGE(message_id=8097*)
    → "...Bag...delivered...to...Mhaura..."
  5: 0x0339 [0x23] WAIT_FOR_DIALOG_INTERACTION
  6: 0x033A [0x1D] PRINT_EVENT_MESSAGE(message_id=8098*)
    → "...Please...bring...here... Quickly..."
  7: 0x033D [0x23] WAIT_FOR_DIALOG_INTERACTION
  8: 0x033E [0x29] REQ_SET_WAIT(priority=0x08, entity_id=Kenapa-Keppa (ID: 17752110/0x010EE02E), tag_num=0x03)
  9: 0x0345 [0x20] SET_CLI_EVENT_UC_FLAG: Unlock player control
 10: 0x0347 [0x21] END_EVENT
 11: 0x0348 [0x00] END_REQSTACK()
```

### Event 339

#### Metadata

| Field        | Value    |
|--------------|----------|
| Entrypoint   | 0x0349   |
| Data Size    | 73 bytes |
| Instructions | 20       |

```
      00 01 02 03 04 05 06 07  08 09 0A 0B 0C 0D 0E 0F
      -- -- -- -- -- -- -- --  -- -- -- -- -- -- -- --
0340:                             1E F0 FF FF 7F 6F 70           .....op
0350: 29 08 2E E0 0E 01 02 1D  27 80 23 29 08 2E E0 0E  ).......'.#)....
0360: 01 03 24 28 80 1A 80 1A  80 25 02 00 10 1A 80 00  ..$(.....%......
0370: 7E 03 03 01 10 1A 80 1D  27 80 23 01 8E 03 02 00  ~.......'.#.....
0380: 10 18 80 00 8E 03 03 01  10 18 80 01 8E 03 20 00  .............. .
0390: 21 00                                             !.              
```

#### Opcodes

```
  0: 0x0349 [0x1E] EventEntity looks at LocalPlayer and starts talking
  1: 0x034E [0x6F] WAIT_FRAME_DELAY: Yield until WaitTime reaches zero
  2: 0x034F [0x70] WAIT_ENTITY_RENDER_FLAG: Wait while EventEntity->Render.Flags3 bit 2 is set (cancel turn if not)
  3: 0x0350 [0x29] REQ_SET_WAIT(priority=0x08, entity_id=Kenapa-Keppa (ID: 17752110/0x010EE02E), tag_num=0x02)
  4: 0x0357 [0x1D] PRINT_EVENT_MESSAGE(message_id=8099*)
    → "...Must...hurry..."
  5: 0x035A [0x23] WAIT_FOR_DIALOG_INTERACTION
  6: 0x035B [0x29] REQ_SET_WAIT(priority=0x08, entity_id=Kenapa-Keppa (ID: 17752110/0x010EE02E), tag_num=0x03)
  7: 0x0362 [0x24] CREATE_DIALOG(message_id=8100*, default_option=0*, option_flags=0*)
    → "Li...sten...to...re...quest? [Ac...cept.../Re...fuse...]"
  8: 0x0369 [0x25] WAIT_DIALOG_SELECT()
  9: 0x036A [0x02] IF !(Work_Zone[0] == 0*) GOTO 0x037E
 10: 0x0372 [0x03] Work_Zone[1] = 0*
 11: 0x0377 [0x1D] PRINT_EVENT_MESSAGE(message_id=8099*)
    → "...Must...hurry..."
 12: 0x037A [0x23] WAIT_FOR_DIALOG_INTERACTION
 13: 0x037B [0x01] GOTO 0x038E
 14: 0x037E [0x02] IF !(Work_Zone[0] == 1*) GOTO 0x038E
 15: 0x0386 [0x03] Work_Zone[1] = 1*
 16: 0x038B [0x01] GOTO 0x038E

SUBROUTINE_038E:
 17: 0x038E [0x20] SET_CLI_EVENT_UC_FLAG: Unlock player control
 18: 0x0390 [0x21] END_EVENT
 19: 0x0391 [0x00] END_REQSTACK()
```

### Event 340

#### Metadata

| Field        | Value    |
|--------------|----------|
| Entrypoint   | 0x0392   |
| Data Size    | 29 bytes |
| Instructions | 10       |

```
      00 01 02 03 04 05 06 07  08 09 0A 0B 0C 0D 0E 0F
      -- -- -- -- -- -- -- --  -- -- -- -- -- -- -- --
0390:       1E F0 FF FF 7F 6F  70 29 08 2E E0 0E 01 02    .....op)......
03A0: 1D 29 80 23 29 08 2E E0  0E 01 03 20 00 21 00     .).#)...... .!. 
```

#### Opcodes

```
  0: 0x0392 [0x1E] EventEntity looks at LocalPlayer and starts talking
  1: 0x0397 [0x6F] WAIT_FRAME_DELAY: Yield until WaitTime reaches zero
  2: 0x0398 [0x70] WAIT_ENTITY_RENDER_FLAG: Wait while EventEntity->Render.Flags3 bit 2 is set (cancel turn if not)
  3: 0x0399 [0x29] REQ_SET_WAIT(priority=0x08, entity_id=Kenapa-Keppa (ID: 17752110/0x010EE02E), tag_num=0x02)
  4: 0x03A0 [0x1D] PRINT_EVENT_MESSAGE(message_id=8101*)
    → "...Um..."
  5: 0x03A3 [0x23] WAIT_FOR_DIALOG_INTERACTION
  6: 0x03A4 [0x29] REQ_SET_WAIT(priority=0x08, entity_id=Kenapa-Keppa (ID: 17752110/0x010EE02E), tag_num=0x03)
  7: 0x03AB [0x20] SET_CLI_EVENT_UC_FLAG: Unlock player control
  8: 0x03AD [0x21] END_EVENT
  9: 0x03AE [0x00] END_REQSTACK()
```

### Event 341

#### Metadata

| Field        | Value    |
|--------------|----------|
| Entrypoint   | 0x03AF   |
| Data Size    | 29 bytes |
| Instructions | 10       |

```
      00 01 02 03 04 05 06 07  08 09 0A 0B 0C 0D 0E 0F
      -- -- -- -- -- -- -- --  -- -- -- -- -- -- -- --
03A0:                                               1E                 .
03B0: F0 FF FF 7F 6F 70 29 08  2E E0 0E 01 02 1D 2A 80  ....op).......*.
03C0: 23 29 08 2E E0 0E 01 03  20 00 21 00              #)...... .!.    
```

#### Opcodes

```
  0: 0x03AF [0x1E] EventEntity looks at LocalPlayer and starts talking
  1: 0x03B4 [0x6F] WAIT_FRAME_DELAY: Yield until WaitTime reaches zero
  2: 0x03B5 [0x70] WAIT_ENTITY_RENDER_FLAG: Wait while EventEntity->Render.Flags3 bit 2 is set (cancel turn if not)
  3: 0x03B6 [0x29] REQ_SET_WAIT(priority=0x08, entity_id=Kenapa-Keppa (ID: 17752110/0x010EE02E), tag_num=0x02)
  4: 0x03BD [0x1D] PRINT_EVENT_MESSAGE(message_id=8102*)
    → "Must...carry...over...night..."
  5: 0x03C0 [0x23] WAIT_FOR_DIALOG_INTERACTION
  6: 0x03C1 [0x29] REQ_SET_WAIT(priority=0x08, entity_id=Kenapa-Keppa (ID: 17752110/0x010EE02E), tag_num=0x03)
  7: 0x03C8 [0x20] SET_CLI_EVENT_UC_FLAG: Unlock player control
  8: 0x03CA [0x21] END_EVENT
  9: 0x03CB [0x00] END_REQSTACK()
```

### Event 342

#### Metadata

| Field        | Value    |
|--------------|----------|
| Entrypoint   | 0x03CC   |
| Data Size    | 29 bytes |
| Instructions | 10       |

```
      00 01 02 03 04 05 06 07  08 09 0A 0B 0C 0D 0E 0F
      -- -- -- -- -- -- -- --  -- -- -- -- -- -- -- --
03C0:                                      1E F0 FF FF              ....
03D0: 7F 6F 70 29 08 2E E0 0E  01 02 1D 2B 80 23 29 08  .op).......+.#).
03E0: 2E E0 0E 01 03 20 00 21  00                       ..... .!.       
```

#### Opcodes

```
  0: 0x03CC [0x1E] EventEntity looks at LocalPlayer and starts talking
  1: 0x03D1 [0x6F] WAIT_FRAME_DELAY: Yield until WaitTime reaches zero
  2: 0x03D2 [0x70] WAIT_ENTITY_RENDER_FLAG: Wait while EventEntity->Render.Flags3 bit 2 is set (cancel turn if not)
  3: 0x03D3 [0x29] REQ_SET_WAIT(priority=0x08, entity_id=Kenapa-Keppa (ID: 17752110/0x010EE02E), tag_num=0x02)
  4: 0x03DA [0x1D] PRINT_EVENT_MESSAGE(message_id=8103*)
    → "Must...get...back... ...be...fore...dawn..."
  5: 0x03DD [0x23] WAIT_FOR_DIALOG_INTERACTION
  6: 0x03DE [0x29] REQ_SET_WAIT(priority=0x08, entity_id=Kenapa-Keppa (ID: 17752110/0x010EE02E), tag_num=0x03)
  7: 0x03E5 [0x20] SET_CLI_EVENT_UC_FLAG: Unlock player control
  8: 0x03E7 [0x21] END_EVENT
  9: 0x03E8 [0x00] END_REQSTACK()
```

### Event 343

#### Metadata

| Field        | Value    |
|--------------|----------|
| Entrypoint   | 0x03E9   |
| Data Size    | 29 bytes |
| Instructions | 10       |

```
      00 01 02 03 04 05 06 07  08 09 0A 0B 0C 0D 0E 0F
      -- -- -- -- -- -- -- --  -- -- -- -- -- -- -- --
03E0:                             1E F0 FF FF 7F 6F 70           .....op
03F0: 29 08 2E E0 0E 01 02 1D  2C 80 23 29 08 2E E0 0E  ).......,.#)....
0400: 01 03 20 00 21 00                                 .. .!.          
```

#### Opcodes

```
  0: 0x03E9 [0x1E] EventEntity looks at LocalPlayer and starts talking
  1: 0x03EE [0x6F] WAIT_FRAME_DELAY: Yield until WaitTime reaches zero
  2: 0x03EF [0x70] WAIT_ENTITY_RENDER_FLAG: Wait while EventEntity->Render.Flags3 bit 2 is set (cancel turn if not)
  3: 0x03F0 [0x29] REQ_SET_WAIT(priority=0x08, entity_id=Kenapa-Keppa (ID: 17752110/0x010EE02E), tag_num=0x02)
  4: 0x03F7 [0x1D] PRINT_EVENT_MESSAGE(message_id=8104*)
    → "... Please... Carry...bag...back... ...before...day...break..."
  5: 0x03FA [0x23] WAIT_FOR_DIALOG_INTERACTION
  6: 0x03FB [0x29] REQ_SET_WAIT(priority=0x08, entity_id=Kenapa-Keppa (ID: 17752110/0x010EE02E), tag_num=0x03)
  7: 0x0402 [0x20] SET_CLI_EVENT_UC_FLAG: Unlock player control
  8: 0x0404 [0x21] END_EVENT
  9: 0x0405 [0x00] END_REQSTACK()
```

### Event 348

#### Metadata

| Field        | Value    |
|--------------|----------|
| Entrypoint   | 0x0406   |
| Data Size    | 45 bytes |
| Instructions | 11       |

```
      00 01 02 03 04 05 06 07  08 09 0A 0B 0C 0D 0E 0F
      -- -- -- -- -- -- -- --  -- -- -- -- -- -- -- --
0400:                   20 01  42 1E F0 FF FF 7F 6F 70         .B.....op
0410: 29 0B 2E E0 0E 01 26 29  0B 2E E0 0E 01 27 45 19  ).....&).....'E.
0420: 80 F0 FF FF 7F F0 FF FF  7F 71 73 74 63 1A 80 20  .........qstc.. 
0430: 00 21 00                                          .!.             
```

#### Opcodes

```
  0: 0x0406 [0x20] SET_CLI_EVENT_UC_FLAG: Lock player control
  1: 0x0408 [0x42] SET_CLI_EVENT_CANCEL_DATA()
  2: 0x0409 [0x1E] EventEntity looks at LocalPlayer and starts talking
  3: 0x040E [0x6F] WAIT_FRAME_DELAY: Yield until WaitTime reaches zero
  4: 0x040F [0x70] WAIT_ENTITY_RENDER_FLAG: Wait while EventEntity->Render.Flags3 bit 2 is set (cancel turn if not)
  5: 0x0410 [0x29] REQ_SET_WAIT(priority=0x0B, entity_id=Kenapa-Keppa (ID: 17752110/0x010EE02E), tag_num=0x26)
  6: 0x0417 [0x29] REQ_SET_WAIT(priority=0x0B, entity_id=Kenapa-Keppa (ID: 17752110/0x010EE02E), tag_num=0x27)
  7: 0x041E [0x45] LOAD_SCHEDULED_TASK: Load scheduler "qstc" with entities [LocalPlayer, LocalPlayer], work=[201*, 0*]
  8: 0x042F [0x20] SET_CLI_EVENT_UC_FLAG: Unlock player control
  9: 0x0431 [0x21] END_EVENT
 10: 0x0432 [0x00] END_REQSTACK()
```

### Event 346

#### Metadata

| Field        | Value    |
|--------------|----------|
| Entrypoint   | 0x0433   |
| Data Size    | 28 bytes |
| Instructions | 10       |

```
      00 01 02 03 04 05 06 07  08 09 0A 0B 0C 0D 0E 0F
      -- -- -- -- -- -- -- --  -- -- -- -- -- -- -- --
0430:          20 01 42 1E F0  FF FF 7F 6F 70 29 0B 2E      .B.....op)..
0440: E0 0E 01 28 29 0B 2E E0  0E 01 29 20 00 21 00     ...().....) .!. 
```

#### Opcodes

```
  0: 0x0433 [0x20] SET_CLI_EVENT_UC_FLAG: Lock player control
  1: 0x0435 [0x42] SET_CLI_EVENT_CANCEL_DATA()
  2: 0x0436 [0x1E] EventEntity looks at LocalPlayer and starts talking
  3: 0x043B [0x6F] WAIT_FRAME_DELAY: Yield until WaitTime reaches zero
  4: 0x043C [0x70] WAIT_ENTITY_RENDER_FLAG: Wait while EventEntity->Render.Flags3 bit 2 is set (cancel turn if not)
  5: 0x043D [0x29] REQ_SET_WAIT(priority=0x0B, entity_id=Kenapa-Keppa (ID: 17752110/0x010EE02E), tag_num=0x28)
  6: 0x0444 [0x29] REQ_SET_WAIT(priority=0x0B, entity_id=Kenapa-Keppa (ID: 17752110/0x010EE02E), tag_num=0x29)
  7: 0x044B [0x20] SET_CLI_EVENT_UC_FLAG: Unlock player control
  8: 0x044D [0x21] END_EVENT
  9: 0x044E [0x00] END_REQSTACK()
```

### Event 65535.12

#### Metadata

| Field        | Value    |
|--------------|----------|
| Entrypoint   | 0x044F   |
| Data Size    | 19 bytes |
| Instructions | 5        |

```
      00 01 02 03 04 05 06 07  08 09 0A 0B 0C 0D 0E 0F
      -- -- -- -- -- -- -- --  -- -- -- -- -- -- -- --
0440:                                               29                 )
0450: 08 2E E0 0E 01 0A 1D 2D  80 23 29 08 2E E0 0E 01  .......-.#).....
0460: 0B 00                                             ..              
```

#### Opcodes

```
  0: 0x044F [0x29] REQ_SET_WAIT(priority=0x08, entity_id=Kenapa-Keppa (ID: 17752110/0x010EE02E), tag_num=0x0A)
  1: 0x0456 [0x1D] PRINT_EVENT_MESSAGE(message_id=8113*)
    → "...Phew..."
  2: 0x0459 [0x23] WAIT_FOR_DIALOG_INTERACTION
  3: 0x045A [0x29] REQ_SET_WAIT(priority=0x08, entity_id=Kenapa-Keppa (ID: 17752110/0x010EE02E), tag_num=0x0B)
  4: 0x0461 [0x00] END_REQSTACK()
```

### Event 65535.13

#### Metadata

| Field        | Value    |
|--------------|----------|
| Entrypoint   | 0x0462   |
| Data Size    | 19 bytes |
| Instructions | 5        |

```
      00 01 02 03 04 05 06 07  08 09 0A 0B 0C 0D 0E 0F
      -- -- -- -- -- -- -- --  -- -- -- -- -- -- -- --
0460:       29 08 2E E0 0E 01  02 1D 2E 80 23 29 08 2E    ).........#)..
0470: E0 0E 01 03 00                                    .....           
```

#### Opcodes

```
  0: 0x0462 [0x29] REQ_SET_WAIT(priority=0x08, entity_id=Kenapa-Keppa (ID: 17752110/0x010EE02E), tag_num=0x02)
  1: 0x0469 [0x1D] PRINT_EVENT_MESSAGE(message_id=8114*)
    → "...Good... ...You...made...it..."
  2: 0x046C [0x23] WAIT_FOR_DIALOG_INTERACTION
  3: 0x046D [0x29] REQ_SET_WAIT(priority=0x08, entity_id=Kenapa-Keppa (ID: 17752110/0x010EE02E), tag_num=0x03)
  4: 0x0474 [0x00] END_REQSTACK()
```

### Event 65535.14

#### Metadata

| Field        | Value    |
|--------------|----------|
| Entrypoint   | 0x0475   |
| Data Size    | 23 bytes |
| Instructions | 7        |

```
      00 01 02 03 04 05 06 07  08 09 0A 0B 0C 0D 0E 0F
      -- -- -- -- -- -- -- --  -- -- -- -- -- -- -- --
0470:                29 08 2E  E0 0E 01 0A 1D 2F 80 23       )......./.#
0480: 1D 30 80 23 29 08 2E E0  0E 01 0B 00              .0.#).......    
```

#### Opcodes

```
  0: 0x0475 [0x29] REQ_SET_WAIT(priority=0x08, entity_id=Kenapa-Keppa (ID: 17752110/0x010EE02E), tag_num=0x0A)
  1: 0x047C [0x1D] PRINT_EVENT_MESSAGE(message_id=8109*)
    → "...Aa`h......"
  2: 0x047F [0x23] WAIT_FOR_DIALOG_INTERACTION
  3: 0x0480 [0x1D] PRINT_EVENT_MESSAGE(message_id=8110*)
    → "...... Past...dawn..."
  4: 0x0483 [0x23] WAIT_FOR_DIALOG_INTERACTION
  5: 0x0484 [0x29] REQ_SET_WAIT(priority=0x08, entity_id=Kenapa-Keppa (ID: 17752110/0x010EE02E), tag_num=0x0B)
  6: 0x048B [0x00] END_REQSTACK()
```

### Event 65535.15

#### Metadata

| Field        | Value    |
|--------------|----------|
| Entrypoint   | 0x048C   |
| Data Size    | 19 bytes |
| Instructions | 5        |

```
      00 01 02 03 04 05 06 07  08 09 0A 0B 0C 0D 0E 0F
      -- -- -- -- -- -- -- --  -- -- -- -- -- -- -- --
0480:                                      29 08 2E E0              )...
0490: 0E 01 08 1D 31 80 23 29  08 2E E0 0E 01 09 00     ....1.#)....... 
```

#### Opcodes

```
  0: 0x048C [0x29] REQ_SET_WAIT(priority=0x08, entity_id=Kenapa-Keppa (ID: 17752110/0x010EE02E), tag_num=0x08)
  1: 0x0493 [0x1D] PRINT_EVENT_MESSAGE(message_id=8111*)
    → "...<sniff>... ...I...can't...pay...you...now..."
  2: 0x0496 [0x23] WAIT_FOR_DIALOG_INTERACTION
  3: 0x0497 [0x29] REQ_SET_WAIT(priority=0x08, entity_id=Kenapa-Keppa (ID: 17752110/0x010EE02E), tag_num=0x09)
  4: 0x049E [0x00] END_REQSTACK()
```

### Event 347

#### Metadata

| Field        | Value    |
|--------------|----------|
| Entrypoint   | 0x049F   |
| Data Size    | 29 bytes |
| Instructions | 10       |

```
      00 01 02 03 04 05 06 07  08 09 0A 0B 0C 0D 0E 0F
      -- -- -- -- -- -- -- --  -- -- -- -- -- -- -- --
0490:                                               1E                 .
04A0: F0 FF FF 7F 6F 70 29 08  2E E0 0E 01 02 1D 32 80  ....op).......2.
04B0: 23 29 08 2E E0 0E 01 03  20 00 21 00              #)...... .!.    
```

#### Opcodes

```
  0: 0x049F [0x1E] EventEntity looks at LocalPlayer and starts talking
  1: 0x04A4 [0x6F] WAIT_FRAME_DELAY: Yield until WaitTime reaches zero
  2: 0x04A5 [0x70] WAIT_ENTITY_RENDER_FLAG: Wait while EventEntity->Render.Flags3 bit 2 is set (cancel turn if not)
  3: 0x04A6 [0x29] REQ_SET_WAIT(priority=0x08, entity_id=Kenapa-Keppa (ID: 17752110/0x010EE02E), tag_num=0x02)
  4: 0x04AD [0x1D] PRINT_EVENT_MESSAGE(message_id=8112*)
    → "...All...that...for...no...thing..."
  5: 0x04B0 [0x23] WAIT_FOR_DIALOG_INTERACTION
  6: 0x04B1 [0x29] REQ_SET_WAIT(priority=0x08, entity_id=Kenapa-Keppa (ID: 17752110/0x010EE02E), tag_num=0x03)
  7: 0x04B8 [0x20] SET_CLI_EVENT_UC_FLAG: Unlock player control
  8: 0x04BA [0x21] END_EVENT
  9: 0x04BB [0x00] END_REQSTACK()
```

### Event 349

#### Metadata

| Field        | Value    |
|--------------|----------|
| Entrypoint   | 0x04BC   |
| Data Size    | 29 bytes |
| Instructions | 10       |

```
      00 01 02 03 04 05 06 07  08 09 0A 0B 0C 0D 0E 0F
      -- -- -- -- -- -- -- --  -- -- -- -- -- -- -- --
04B0:                                      1E F0 FF FF              ....
04C0: 7F 6F 70 29 08 2E E0 0E  01 02 1D 33 80 23 29 08  .op).......3.#).
04D0: 2E E0 0E 01 03 20 00 21  00                       ..... .!.       
```

#### Opcodes

```
  0: 0x04BC [0x1E] EventEntity looks at LocalPlayer and starts talking
  1: 0x04C1 [0x6F] WAIT_FRAME_DELAY: Yield until WaitTime reaches zero
  2: 0x04C2 [0x70] WAIT_ENTITY_RENDER_FLAG: Wait while EventEntity->Render.Flags3 bit 2 is set (cancel turn if not)
  3: 0x04C3 [0x29] REQ_SET_WAIT(priority=0x08, entity_id=Kenapa-Keppa (ID: 17752110/0x010EE02E), tag_num=0x02)
  4: 0x04CA [0x1D] PRINT_EVENT_MESSAGE(message_id=8116*)
    → "...?"
  5: 0x04CD [0x23] WAIT_FOR_DIALOG_INTERACTION
  6: 0x04CE [0x29] REQ_SET_WAIT(priority=0x08, entity_id=Kenapa-Keppa (ID: 17752110/0x010EE02E), tag_num=0x03)
  7: 0x04D5 [0x20] SET_CLI_EVENT_UC_FLAG: Unlock player control
  8: 0x04D7 [0x21] END_EVENT
  9: 0x04D8 [0x00] END_REQSTACK()
```

### Event 350

#### Metadata

| Field        | Value    |
|--------------|----------|
| Entrypoint   | 0x04D9   |
| Data Size    | 29 bytes |
| Instructions | 10       |

```
      00 01 02 03 04 05 06 07  08 09 0A 0B 0C 0D 0E 0F
      -- -- -- -- -- -- -- --  -- -- -- -- -- -- -- --
04D0:                             1E F0 FF FF 7F 6F 70           .....op
04E0: 29 08 2E E0 0E 01 0A 1D  34 80 23 29 08 2E E0 0E  ).......4.#)....
04F0: 01 0B 20 00 21 00                                 .. .!.          
```

#### Opcodes

```
  0: 0x04D9 [0x1E] EventEntity looks at LocalPlayer and starts talking
  1: 0x04DE [0x6F] WAIT_FRAME_DELAY: Yield until WaitTime reaches zero
  2: 0x04DF [0x70] WAIT_ENTITY_RENDER_FLAG: Wait while EventEntity->Render.Flags3 bit 2 is set (cancel turn if not)
  3: 0x04E0 [0x29] REQ_SET_WAIT(priority=0x08, entity_id=Kenapa-Keppa (ID: 17752110/0x010EE02E), tag_num=0x0A)
  4: 0x04E7 [0x1D] PRINT_EVENT_MESSAGE(message_id=8118*)
    → "...of...fluoro-flora..."
  5: 0x04EA [0x23] WAIT_FOR_DIALOG_INTERACTION
  6: 0x04EB [0x29] REQ_SET_WAIT(priority=0x08, entity_id=Kenapa-Keppa (ID: 17752110/0x010EE02E), tag_num=0x0B)
  7: 0x04F2 [0x20] SET_CLI_EVENT_UC_FLAG: Unlock player control
  8: 0x04F4 [0x21] END_EVENT
  9: 0x04F5 [0x00] END_REQSTACK()
```

### Event 516

#### Metadata

| Field        | Value   |
|--------------|---------|
| Entrypoint   | 0x04F6  |
| Data Size    | 1 bytes |
| Instructions | 1       |

```
      00 01 02 03 04 05 06 07  08 09 0A 0B 0C 0D 0E 0F
      -- -- -- -- -- -- -- --  -- -- -- -- -- -- -- --
04F0:                   00                                    .         
```

#### Opcodes

```
  0: 0x04F6 [0x00] END_REQSTACK()
```

### Event 65535.16

#### Metadata

| Field        | Value    |
|--------------|----------|
| Entrypoint   | 0x04F7   |
| Data Size    | 33 bytes |
| Instructions | 7        |

```
      00 01 02 03 04 05 06 07  08 09 0A 0B 0C 0D 0E 0F
      -- -- -- -- -- -- -- --  -- -- -- -- -- -- -- --
04F0:                      29  08 2E E0 0E 01 04 1D 35         ).......5
0500: 80 23 29 08 2E E0 0E 01  05 29 08 2E E0 0E 01 06  .#)......)......
0510: 29 08 2E E0 0E 01 07 00                           ).......        
```

#### Opcodes

```
  0: 0x04F7 [0x29] REQ_SET_WAIT(priority=0x08, entity_id=Kenapa-Keppa (ID: 17752110/0x010EE02E), tag_num=0x04)
  1: 0x04FE [0x1D] PRINT_EVENT_MESSAGE(message_id=8563*)
    → "...Umm...well...?"
  2: 0x0501 [0x23] WAIT_FOR_DIALOG_INTERACTION
  3: 0x0502 [0x29] REQ_SET_WAIT(priority=0x08, entity_id=Kenapa-Keppa (ID: 17752110/0x010EE02E), tag_num=0x05)
  4: 0x0509 [0x29] REQ_SET_WAIT(priority=0x08, entity_id=Kenapa-Keppa (ID: 17752110/0x010EE02E), tag_num=0x06)
  5: 0x0510 [0x29] REQ_SET_WAIT(priority=0x08, entity_id=Kenapa-Keppa (ID: 17752110/0x010EE02E), tag_num=0x07)
  6: 0x0517 [0x00] END_REQSTACK()
```

### Event 519

#### Metadata

| Field        | Value     |
|--------------|-----------|
| Entrypoint   | 0x0518    |
| Data Size    | 119 bytes |
| Instructions | 30        |

```
      00 01 02 03 04 05 06 07  08 09 0A 0B 0C 0D 0E 0F
      -- -- -- -- -- -- -- --  -- -- -- -- -- -- -- --
0510:                          1E F0 FF FF 7F 6F 70 29          .....op)
0520: 08 2E E0 0E 01 02 1D 36  80 23 29 08 2E E0 0E 01  .......6.#).....
0530: 03 29 08 2E E0 0E 01 04  1D 37 80 23 29 08 2E E0  .).......7.#)...
0540: 0E 01 05 29 08 2E E0 0E  01 06 1D 38 80 23 29 08  ...).......8.#).
0550: 2E E0 0E 01 07 29 08 2E  E0 0E 01 02 1D 39 80 23  .....).......9.#
0560: 29 08 2E E0 0E 01 03 29  08 2E E0 0E 01 04 1D 3A  )......).......:
0570: 80 23 29 08 2E E0 0E 01  05 29 08 2E E0 0E 01 06  .#)......)......
0580: 1D 3B 80 23 29 08 2E E0  0E 01 07 20 00 21 00     .;.#)...... .!. 
```

#### Opcodes

```
  0: 0x0518 [0x1E] EventEntity looks at LocalPlayer and starts talking
  1: 0x051D [0x6F] WAIT_FRAME_DELAY: Yield until WaitTime reaches zero
  2: 0x051E [0x70] WAIT_ENTITY_RENDER_FLAG: Wait while EventEntity->Render.Flags3 bit 2 is set (cancel turn if not)
  3: 0x051F [0x29] REQ_SET_WAIT(priority=0x08, entity_id=Kenapa-Keppa (ID: 17752110/0x010EE02E), tag_num=0x02)
  4: 0x0526 [0x1D] PRINT_EVENT_MESSAGE(message_id=8567*)
    → "......?"
  5: 0x0529 [0x23] WAIT_FOR_DIALOG_INTERACTION
  6: 0x052A [0x29] REQ_SET_WAIT(priority=0x08, entity_id=Kenapa-Keppa (ID: 17752110/0x010EE02E), tag_num=0x03)
  7: 0x0531 [0x29] REQ_SET_WAIT(priority=0x08, entity_id=Kenapa-Keppa (ID: 17752110/0x010EE02E), tag_num=0x04)
  8: 0x0538 [0x1D] PRINT_EVENT_MESSAGE(message_id=8568*)
    → "...Umm..."
  9: 0x053B [0x23] WAIT_FOR_DIALOG_INTERACTION
 10: 0x053C [0x29] REQ_SET_WAIT(priority=0x08, entity_id=Kenapa-Keppa (ID: 17752110/0x010EE02E), tag_num=0x05)
 11: 0x0543 [0x29] REQ_SET_WAIT(priority=0x08, entity_id=Kenapa-Keppa (ID: 17752110/0x010EE02E), tag_num=0x06)
 12: 0x054A [0x1D] PRINT_EVENT_MESSAGE(message_id=8569*)
    → "...They're...found...in..."
 13: 0x054D [0x23] WAIT_FOR_DIALOG_INTERACTION
 14: 0x054E [0x29] REQ_SET_WAIT(priority=0x08, entity_id=Kenapa-Keppa (ID: 17752110/0x010EE02E), tag_num=0x07)
 15: 0x0555 [0x29] REQ_SET_WAIT(priority=0x08, entity_id=Kenapa-Keppa (ID: 17752110/0x010EE02E), tag_num=0x02)
 16: 0x055C [0x1D] PRINT_EVENT_MESSAGE(message_id=8570*)
    → "...Tah...ron...gi...Can...yon..."
 17: 0x055F [0x23] WAIT_FOR_DIALOG_INTERACTION
 18: 0x0560 [0x29] REQ_SET_WAIT(priority=0x08, entity_id=Kenapa-Keppa (ID: 17752110/0x010EE02E), tag_num=0x03)
 19: 0x0567 [0x29] REQ_SET_WAIT(priority=0x08, entity_id=Kenapa-Keppa (ID: 17752110/0x010EE02E), tag_num=0x04)
 20: 0x056E [0x1D] PRINT_EVENT_MESSAGE(message_id=8571*)
    → "...But..."
 21: 0x0571 [0x23] WAIT_FOR_DIALOG_INTERACTION
 22: 0x0572 [0x29] REQ_SET_WAIT(priority=0x08, entity_id=Kenapa-Keppa (ID: 17752110/0x010EE02E), tag_num=0x05)
 23: 0x0579 [0x29] REQ_SET_WAIT(priority=0x08, entity_id=Kenapa-Keppa (ID: 17752110/0x010EE02E), tag_num=0x06)
 24: 0x0580 [0x1D] PRINT_EVENT_MESSAGE(message_id=8572*)
    → "...it's...dan...ger...ous...!"
 25: 0x0583 [0x23] WAIT_FOR_DIALOG_INTERACTION
 26: 0x0584 [0x29] REQ_SET_WAIT(priority=0x08, entity_id=Kenapa-Keppa (ID: 17752110/0x010EE02E), tag_num=0x07)
 27: 0x058B [0x20] SET_CLI_EVENT_UC_FLAG: Unlock player control
 28: 0x058D [0x21] END_EVENT
 29: 0x058E [0x00] END_REQSTACK()
```

### Event 740

#### Metadata

| Field        | Value    |
|--------------|----------|
| Entrypoint   | 0x058F   |
| Data Size    | 33 bytes |
| Instructions | 12       |

```
      00 01 02 03 04 05 06 07  08 09 0A 0B 0C 0D 0E 0F
      -- -- -- -- -- -- -- --  -- -- -- -- -- -- -- --
0580:                                               1E                 .
0590: F0 FF FF 7F 6F 70 29 08  2E E0 0E 01 0A 1D 3C 80  ....op).......<.
05A0: 23 1D 3D 80 23 29 08 2E  E0 0E 01 0B 20 00 21 00  #.=.#)...... .!.
```

#### Opcodes

```
  0: 0x058F [0x1E] EventEntity looks at LocalPlayer and starts talking
  1: 0x0594 [0x6F] WAIT_FRAME_DELAY: Yield until WaitTime reaches zero
  2: 0x0595 [0x70] WAIT_ENTITY_RENDER_FLAG: Wait while EventEntity->Render.Flags3 bit 2 is set (cancel turn if not)
  3: 0x0596 [0x29] REQ_SET_WAIT(priority=0x08, entity_id=Kenapa-Keppa (ID: 17752110/0x010EE02E), tag_num=0x0A)
  4: 0x059D [0x1D] PRINT_EVENT_MESSAGE(message_id=9737*)
    → "...Please...save...Minister...Rukususu..."
  5: 0x05A0 [0x23] WAIT_FOR_DIALOG_INTERACTION
  6: 0x05A1 [0x1D] PRINT_EVENT_MESSAGE(message_id=9738*)
    → "...<sob>...<sniff>..."
  7: 0x05A4 [0x23] WAIT_FOR_DIALOG_INTERACTION
  8: 0x05A5 [0x29] REQ_SET_WAIT(priority=0x08, entity_id=Kenapa-Keppa (ID: 17752110/0x010EE02E), tag_num=0x0B)
  9: 0x05AC [0x20] SET_CLI_EVENT_UC_FLAG: Unlock player control
 10: 0x05AE [0x21] END_EVENT
 11: 0x05AF [0x00] END_REQSTACK()
```

### Event 745

#### Metadata

| Field        | Value    |
|--------------|----------|
| Entrypoint   | 0x05B0   |
| Data Size    | 47 bytes |
| Instructions | 14       |

```
      00 01 02 03 04 05 06 07  08 09 0A 0B 0C 0D 0E 0F
      -- -- -- -- -- -- -- --  -- -- -- -- -- -- -- --
05B0: 1E F0 FF FF 7F 6F 70 29  08 2E E0 0E 01 02 1D 3E  .....op).......>
05C0: 80 23 29 08 2E E0 0E 01  03 29 08 2E E0 0E 01 02  .#)......)......
05D0: 1D 3F 80 23 29 08 2E E0  0E 01 03 20 00 21 00     .?.#)...... .!. 
```

#### Opcodes

```
  0: 0x05B0 [0x1E] EventEntity looks at LocalPlayer and starts talking
  1: 0x05B5 [0x6F] WAIT_FRAME_DELAY: Yield until WaitTime reaches zero
  2: 0x05B6 [0x70] WAIT_ENTITY_RENDER_FLAG: Wait while EventEntity->Render.Flags3 bit 2 is set (cancel turn if not)
  3: 0x05B7 [0x29] REQ_SET_WAIT(priority=0x08, entity_id=Kenapa-Keppa (ID: 17752110/0x010EE02E), tag_num=0x02)
  4: 0x05BE [0x1D] PRINT_EVENT_MESSAGE(message_id=9755*)
    → "...Thank you...for...saving...the minister..."
  5: 0x05C1 [0x23] WAIT_FOR_DIALOG_INTERACTION
  6: 0x05C2 [0x29] REQ_SET_WAIT(priority=0x08, entity_id=Kenapa-Keppa (ID: 17752110/0x010EE02E), tag_num=0x03)
  7: 0x05C9 [0x29] REQ_SET_WAIT(priority=0x08, entity_id=Kenapa-Keppa (ID: 17752110/0x010EE02E), tag_num=0x02)
  8: 0x05D0 [0x1D] PRINT_EVENT_MESSAGE(message_id=9756*)
    → "...<grin>..."
  9: 0x05D3 [0x23] WAIT_FOR_DIALOG_INTERACTION
 10: 0x05D4 [0x29] REQ_SET_WAIT(priority=0x08, entity_id=Kenapa-Keppa (ID: 17752110/0x010EE02E), tag_num=0x03)
 11: 0x05DB [0x20] SET_CLI_EVENT_UC_FLAG: Unlock player control
 12: 0x05DD [0x21] END_EVENT
 13: 0x05DE [0x00] END_REQSTACK()
```

### Event 785

#### Metadata

| Field        | Value   |
|--------------|---------|
| Entrypoint   | 0x05DF  |
| Data Size    | 1 bytes |
| Instructions | 1       |

```
      00 01 02 03 04 05 06 07  08 09 0A 0B 0C 0D 0E 0F
      -- -- -- -- -- -- -- --  -- -- -- -- -- -- -- --
05D0:                                               00                 .
```

#### Opcodes

```
  0: 0x05DF [0x00] END_REQSTACK()
```

### Event 65535.17

#### Metadata

| Field        | Value    |
|--------------|----------|
| Entrypoint   | 0x05E0   |
| Data Size    | 10 bytes |
| Instructions | 2        |

```
      00 01 02 03 04 05 06 07  08 09 0A 0B 0C 0D 0E 0F
      -- -- -- -- -- -- -- --  -- -- -- -- -- -- -- --
05E0: 37 40 80 41 80 42 80 43  80 00                    7@.A.B.C..      
```

#### Opcodes

```
  0: 0x05E0 [0x37] UPDATE_EVENT_POSITION_AND_DIR: x=15.012*, z=-198.070*, y=-4.250*, direction=217.9°*
  1: 0x05E9 [0x00] END_REQSTACK()
```

### Event 65535.18

#### Metadata

| Field        | Value   |
|--------------|---------|
| Entrypoint   | 0x05EA  |
| Data Size    | 5 bytes |
| Instructions | 3       |

```
      00 01 02 03 04 05 06 07  08 09 0A 0B 0C 0D 0E 0F
      -- -- -- -- -- -- -- --  -- -- -- -- -- -- -- --
05E0:                                1D 44 80 23 00               .D.#. 
```

#### Opcodes

```
  0: 0x05EA [0x1D] PRINT_EVENT_MESSAGE(message_id=9878*)
    → "We...could...ask...the...minister..."
  1: 0x05ED [0x23] WAIT_FOR_DIALOG_INTERACTION
  2: 0x05EE [0x00] END_REQSTACK()
```

### Event 65535.19

#### Metadata

| Field        | Value   |
|--------------|---------|
| Entrypoint   | 0x05EF  |
| Data Size    | 5 bytes |
| Instructions | 3       |

```
      00 01 02 03 04 05 06 07  08 09 0A 0B 0C 0D 0E 0F
      -- -- -- -- -- -- -- --  -- -- -- -- -- -- -- --
05E0:                                               1D                 .
05F0: 45 80 23 00                                       E.#.            
```

#### Opcodes

```
  0: 0x05EF [0x1D] PRINT_EVENT_MESSAGE(message_id=9882*)
    → "Miteslime...is...the...secretion...of...the...starmite...bug..."
  1: 0x05F2 [0x23] WAIT_FOR_DIALOG_INTERACTION
  2: 0x05F3 [0x00] END_REQSTACK()
```

### Event 65535.20

#### Metadata

| Field        | Value   |
|--------------|---------|
| Entrypoint   | 0x05F4  |
| Data Size    | 5 bytes |
| Instructions | 3       |

```
      00 01 02 03 04 05 06 07  08 09 0A 0B 0C 0D 0E 0F
      -- -- -- -- -- -- -- --  -- -- -- -- -- -- -- --
05F0:             1D 46 80 23  00                           .F.#.       
```

#### Opcodes

```
  0: 0x05F4 [0x1D] PRINT_EVENT_MESSAGE(message_id=9883*)
    → "The...starmite...is an...insect...that...feeds...on...tree...roots..."
  1: 0x05F7 [0x23] WAIT_FOR_DIALOG_INTERACTION
  2: 0x05F8 [0x00] END_REQSTACK()
```

### Event 65535.21

#### Metadata

| Field        | Value   |
|--------------|---------|
| Entrypoint   | 0x05F9  |
| Data Size    | 5 bytes |
| Instructions | 3       |

```
      00 01 02 03 04 05 06 07  08 09 0A 0B 0C 0D 0E 0F
      -- -- -- -- -- -- -- --  -- -- -- -- -- -- -- --
05F0:                             1D 47 80 23 00                 .G.#.  
```

#### Opcodes

```
  0: 0x05F9 [0x1D] PRINT_EVENT_MESSAGE(message_id=9892*)
    → "It...should be...okay...to give...emergency...authorization...to enter...the canal... Should be..."
  1: 0x05FC [0x23] WAIT_FOR_DIALOG_INTERACTION
  2: 0x05FD [0x00] END_REQSTACK()
```

### Event 788

#### Metadata

| Field        | Value    |
|--------------|----------|
| Entrypoint   | 0x05FE   |
| Data Size    | 55 bytes |
| Instructions | 18       |

```
      00 01 02 03 04 05 06 07  08 09 0A 0B 0C 0D 0E 0F
      -- -- -- -- -- -- -- --  -- -- -- -- -- -- -- --
05F0:                                            1E F0                ..
0600: FF FF 7F 6F 70 29 08 2E  E0 0E 01 02 1D 48 80 23  ...op).......H.#
0610: 1D 49 80 23 29 08 2E E0  0E 01 03 29 08 2E E0 0E  .I.#)......)....
0620: 01 02 1D 4A 80 23 1D 4B  80 23 29 08 2E E0 0E 01  ...J.#.K.#).....
0630: 03 20 00 21 00                                    . .!.           
```

#### Opcodes

```
  0: 0x05FE [0x1E] EventEntity looks at LocalPlayer and starts talking
  1: 0x0603 [0x6F] WAIT_FRAME_DELAY: Yield until WaitTime reaches zero
  2: 0x0604 [0x70] WAIT_ENTITY_RENDER_FLAG: Wait while EventEntity->Render.Flags3 bit 2 is set (cancel turn if not)
  3: 0x0605 [0x29] REQ_SET_WAIT(priority=0x08, entity_id=Kenapa-Keppa (ID: 17752110/0x010EE02E), tag_num=0x02)
  4: 0x060C [0x1D] PRINT_EVENT_MESSAGE(message_id=9902*)
    → "Great...discoveries...are...being made...all...over..."
  5: 0x060F [0x23] WAIT_FOR_DIALOG_INTERACTION
  6: 0x0610 [0x1D] PRINT_EVENT_MESSAGE(message_id=9903*)
    → "Researchers...researching...fauna...have it...tough..."
  7: 0x0613 [0x23] WAIT_FOR_DIALOG_INTERACTION
  8: 0x0614 [0x29] REQ_SET_WAIT(priority=0x08, entity_id=Kenapa-Keppa (ID: 17752110/0x010EE02E), tag_num=0x03)
  9: 0x061B [0x29] REQ_SET_WAIT(priority=0x08, entity_id=Kenapa-Keppa (ID: 17752110/0x010EE02E), tag_num=0x02)
 10: 0x0622 [0x1D] PRINT_EVENT_MESSAGE(message_id=9904*)
    → "So...adventurers...with...Rhinostery...authorization..."
 11: 0x0625 [0x23] WAIT_FOR_DIALOG_INTERACTION
 12: 0x0626 [0x1D] PRINT_EVENT_MESSAGE(message_id=9905*)
    → "have...all...left...Windurst...to help..."
 13: 0x0629 [0x23] WAIT_FOR_DIALOG_INTERACTION
 14: 0x062A [0x29] REQ_SET_WAIT(priority=0x08, entity_id=Kenapa-Keppa (ID: 17752110/0x010EE02E), tag_num=0x03)
 15: 0x0631 [0x20] SET_CLI_EVENT_UC_FLAG: Unlock player control
 16: 0x0633 [0x21] END_EVENT
 17: 0x0634 [0x00] END_REQSTACK()
```

### Event 792

#### Metadata

| Field        | Value    |
|--------------|----------|
| Entrypoint   | 0x0635   |
| Data Size    | 37 bytes |
| Instructions | 14       |

```
      00 01 02 03 04 05 06 07  08 09 0A 0B 0C 0D 0E 0F
      -- -- -- -- -- -- -- --  -- -- -- -- -- -- -- --
0630:                1E F0 FF  FF 7F 6F 70 1D 4C 80 23       .....op.L.#
0640: 29 08 2E E0 0E 01 02 1D  4D 80 23 29 08 2E E0 0E  ).......M.#)....
0650: 01 03 1D 4E 80 23 20 00  21 00                    ...N.# .!.      
```

#### Opcodes

```
  0: 0x0635 [0x1E] EventEntity looks at LocalPlayer and starts talking
  1: 0x063A [0x6F] WAIT_FRAME_DELAY: Yield until WaitTime reaches zero
  2: 0x063B [0x70] WAIT_ENTITY_RENDER_FLAG: Wait while EventEntity->Render.Flags3 bit 2 is set (cancel turn if not)
  3: 0x063C [0x1D] PRINT_EVENT_MESSAGE(message_id=9913*)
    → "...!"
  4: 0x063F [0x23] WAIT_FOR_DIALOG_INTERACTION
  5: 0x0640 [0x29] REQ_SET_WAIT(priority=0x08, entity_id=Kenapa-Keppa (ID: 17752110/0x010EE02E), tag_num=0x02)
  6: 0x0647 [0x1D] PRINT_EVENT_MESSAGE(message_id=9914*)
    → "You...made it...back...okay?"
  7: 0x064A [0x23] WAIT_FOR_DIALOG_INTERACTION
  8: 0x064B [0x29] REQ_SET_WAIT(priority=0x08, entity_id=Kenapa-Keppa (ID: 17752110/0x010EE02E), tag_num=0x03)
  9: 0x0652 [0x1D] PRINT_EVENT_MESSAGE(message_id=9915*)
    → "Oh...good..."
 10: 0x0655 [0x23] WAIT_FOR_DIALOG_INTERACTION
 11: 0x0656 [0x20] SET_CLI_EVENT_UC_FLAG: Unlock player control
 12: 0x0658 [0x21] END_EVENT
 13: 0x0659 [0x00] END_REQSTACK()
```

### Event 795

#### Metadata

| Field        | Value   |
|--------------|---------|
| Entrypoint   | 0x065A  |
| Data Size    | 1 bytes |
| Instructions | 1       |

```
      00 01 02 03 04 05 06 07  08 09 0A 0B 0C 0D 0E 0F
      -- -- -- -- -- -- -- --  -- -- -- -- -- -- -- --
0650:                                00                           .     
```

#### Opcodes

```
  0: 0x065A [0x00] END_REQSTACK()
```

### Event 65535.22

#### Metadata

| Field        | Value   |
|--------------|---------|
| Entrypoint   | 0x065B  |
| Data Size    | 5 bytes |
| Instructions | 3       |

```
      00 01 02 03 04 05 06 07  08 09 0A 0B 0C 0D 0E 0F
      -- -- -- -- -- -- -- --  -- -- -- -- -- -- -- --
0650:                                   1D 4F 80 23 00             .O.#.
```

#### Opcodes

```
  0: 0x065B [0x1D] PRINT_EVENT_MESSAGE(message_id=9924*)
    → "Good...luck...!"
  1: 0x065E [0x23] WAIT_FOR_DIALOG_INTERACTION
  2: 0x065F [0x00] END_REQSTACK()
```

### Event 872

#### Metadata

| Field        | Value   |
|--------------|---------|
| Entrypoint   | 0x0660  |
| Data Size    | 1 bytes |
| Instructions | 1       |

```
      00 01 02 03 04 05 06 07  08 09 0A 0B 0C 0D 0E 0F
      -- -- -- -- -- -- -- --  -- -- -- -- -- -- -- --
0660: 00                                                .               
```

#### Opcodes

```
  0: 0x0660 [0x00] END_REQSTACK()
```

### Event 65535.23

#### Metadata

| Field        | Value    |
|--------------|----------|
| Entrypoint   | 0x0661   |
| Data Size    | 10 bytes |
| Instructions | 2        |

```
      00 01 02 03 04 05 06 07  08 09 0A 0B 0C 0D 0E 0F
      -- -- -- -- -- -- -- --  -- -- -- -- -- -- -- --
0660:    37 50 80 51 80 52 80  53 80 00                  7P.Q.R.S..     
```

#### Opcodes

```
  0: 0x0661 [0x37] UPDATE_EVENT_POSITION_AND_DIR: x=24.218*, z=-193.837*, y=-5.250*, direction=208.9°*
  1: 0x066A [0x00] END_REQSTACK()
```
