# 17752120 - Mimomo

## Common Data

| Field            | Value                     |
|------------------|---------------------------|
| Zone             | Windurst Waters (ID: 238) |
| Block Size       | 228 bytes                 |
| Total Events     | 8                         |
| References Count | 8                         |

## List of Events

| Event ID                 | Entrypoint   |   Size |   Instructions |
|--------------------------|--------------|--------|----------------|
| [65535](#event-65535)    | 0x0000       |      1 |              1 |
| [65535.1](#event-655351) | 0x0001       |     16 |              2 |
| [65535.2](#event-655352) | 0x0011       |     22 |              4 |
| [65535.3](#event-655353) | 0x0027       |      9 |              3 |
| [436](#event-436)        | 0x0030       |     33 |             12 |
| [182](#event-182)        | 0x0051       |      1 |              1 |
| [196](#event-196)        | 0x0052       |     33 |             12 |
| [757](#event-757)        | 0x0073       |     33 |             12 |

## DAT References (imed_data)

|   Index | Hex Value   |   Dec Value |
|---------|-------------|-------------|
|       0 | 0x0055      |          85 |
|       1 | 0x001E      |          30 |
|       2 | 0x20AA      |        8362 |
|       3 | 0x20AB      |        8363 |
|       4 | 0x1E54      |        7764 |
|       5 | 0x1E55      |        7765 |
|       6 | 0x2640      |        9792 |
|       7 | 0x2641      |        9793 |

## String References

- **7764**: I'm having twouble-wouble with my study-wudies, so I came from the beginners class to ask the teacher-weachers here for helpy-welpy.
- **7765**: But they all say the testy-westys are at handy-wandy, and are too busy-wusy to talky-walky. Won't someone just answer-wanser my simple-wimple question?
- **8362**: I'm having twouble-wouble with my study-wudies, so I came from the beginners class to ask the teacher-weachers here for helpy-welpy.
- **8363**: But all the teachers-weachers say it's not their field of study-wudy, so I should asky-wasky another teacher-weacher. Is this what you call "giving someone the wunawound"?
- **9792**: I'm having twouble-wouble with my study-wudies, so I came from the beginners class to ask the teacher-weachers here for helpy-welpy.
- **9793**: They told me to go ask Professor-wessor Koru-Moru. My brainy-wain is all in a bustle-wustle.

## Events

### Event 65535

#### Metadata

| Field        | Value   |
|--------------|---------|
| Entrypoint   | 0x0000  |
| Data Size    | 1 bytes |
| Instructions | 1       |

```
      00 01 02 03 04 05 06 07  08 09 0A 0B 0C 0D 0E 0F
      -- -- -- -- -- -- -- --  -- -- -- -- -- -- -- --
0000: 00                                                .               
```

#### Opcodes

```
  0: 0x0000 [0x00] END_REQSTACK()
```

### Event 65535.1

#### Metadata

| Field        | Value    |
|--------------|----------|
| Entrypoint   | 0x0001   |
| Data Size    | 16 bytes |
| Instructions | 2        |

```
      00 01 02 03 04 05 06 07  08 09 0A 0B 0C 0D 0E 0F
      -- -- -- -- -- -- -- --  -- -- -- -- -- -- -- --
0000:    5B 00 80 F8 FF FF 7F  F8 FF FF 7F 74 6C 6B 30   [..........tlk0
0010: 00                                                .               
```

#### Opcodes

```
  0: 0x0001 [0x5B] LOAD_EXT_SCHEDULER: Load scheduler "tlk0" with entities [EventEntity, EventEntity], work=85*
  1: 0x0010 [0x00] END_REQSTACK()
```

### Event 65535.2

#### Metadata

| Field        | Value    |
|--------------|----------|
| Entrypoint   | 0x0011   |
| Data Size    | 22 bytes |
| Instructions | 4        |

```
      00 01 02 03 04 05 06 07  08 09 0A 0B 0C 0D 0E 0F
      -- -- -- -- -- -- -- --  -- -- -- -- -- -- -- --
0010:    53 F8 FF FF 7F F8 FF  FF 7F 74 6C 6B 30 5E 69   S........tlk0^i
0020: 64 6C 30 1C 01 80 00                              dl0....         
```

#### Opcodes

```
  0: 0x0011 [0x53] WAIT_SCHEDULER_TASK: Wait for scheduler "tlk0" with entities [EventEntity, EventEntity]
  1: 0x001E [0x5E] EventEntity goes idle (kills current action) (animation: "idl0")
  2: 0x0023 [0x1C] WAIT(30* ticks)
  3: 0x0026 [0x00] END_REQSTACK()
```

### Event 65535.3

#### Metadata

| Field        | Value   |
|--------------|---------|
| Entrypoint   | 0x0027  |
| Data Size    | 9 bytes |
| Instructions | 3       |

```
      00 01 02 03 04 05 06 07  08 09 0A 0B 0C 0D 0E 0F
      -- -- -- -- -- -- -- --  -- -- -- -- -- -- -- --
0020:                      5E  69 64 6C 30 1C 01 80 00         ^idl0....
```

#### Opcodes

```
  0: 0x0027 [0x5E] EventEntity goes idle (kills current action) (animation: "idl0")
  1: 0x002C [0x1C] WAIT(30* ticks)
  2: 0x002F [0x00] END_REQSTACK()
```

### Event 436

#### Metadata

| Field        | Value    |
|--------------|----------|
| Entrypoint   | 0x0030   |
| Data Size    | 33 bytes |
| Instructions | 12       |

```
      00 01 02 03 04 05 06 07  08 09 0A 0B 0C 0D 0E 0F
      -- -- -- -- -- -- -- --  -- -- -- -- -- -- -- --
0030: 1E F0 FF FF 7F 6F 70 29  08 38 E0 0E 01 01 1D 02  .....op).8......
0040: 80 23 1D 03 80 23 29 08  38 E0 0E 01 02 20 00 21  .#...#).8.... .!
0050: 00                                                .               
```

#### Opcodes

```
  0: 0x0030 [0x1E] EventEntity looks at LocalPlayer and starts talking
  1: 0x0035 [0x6F] WAIT_FRAME_DELAY: Yield until WaitTime reaches zero
  2: 0x0036 [0x70] WAIT_ENTITY_RENDER_FLAG: Wait while EventEntity->Render.Flags3 bit 2 is set (cancel turn if not)
  3: 0x0037 [0x29] REQ_SET_WAIT(priority=0x08, entity_id=Mimomo (ID: 17752120/0x010EE038), tag_num=0x01)
  4: 0x003E [0x1D] PRINT_EVENT_MESSAGE(message_id=8362*)
    → "I'm having twouble-wouble with my study-wudies, so I came from the beginners class to ask the teacher-weachers here for helpy-welpy."
  5: 0x0041 [0x23] WAIT_FOR_DIALOG_INTERACTION
  6: 0x0042 [0x1D] PRINT_EVENT_MESSAGE(message_id=8363*)
    → "But all the teachers-weachers say it's not their field of study-wudy, so I should asky-wasky another teacher-weacher. Is this what you call "giving someone the wunawound"?"
  7: 0x0045 [0x23] WAIT_FOR_DIALOG_INTERACTION
  8: 0x0046 [0x29] REQ_SET_WAIT(priority=0x08, entity_id=Mimomo (ID: 17752120/0x010EE038), tag_num=0x02)
  9: 0x004D [0x20] SET_CLI_EVENT_UC_FLAG: Unlock player control
 10: 0x004F [0x21] END_EVENT
 11: 0x0050 [0x00] END_REQSTACK()
```

### Event 182

#### Metadata

| Field        | Value   |
|--------------|---------|
| Entrypoint   | 0x0051  |
| Data Size    | 1 bytes |
| Instructions | 1       |

```
      00 01 02 03 04 05 06 07  08 09 0A 0B 0C 0D 0E 0F
      -- -- -- -- -- -- -- --  -- -- -- -- -- -- -- --
0050:    00                                              .              
```

#### Opcodes

```
  0: 0x0051 [0x00] END_REQSTACK()
```

### Event 196

#### Metadata

| Field        | Value    |
|--------------|----------|
| Entrypoint   | 0x0052   |
| Data Size    | 33 bytes |
| Instructions | 12       |

```
      00 01 02 03 04 05 06 07  08 09 0A 0B 0C 0D 0E 0F
      -- -- -- -- -- -- -- --  -- -- -- -- -- -- -- --
0050:       1E F0 FF FF 7F 6F  70 29 08 38 E0 0E 01 01    .....op).8....
0060: 1D 04 80 23 1D 05 80 23  29 08 38 E0 0E 01 02 20  ...#...#).8.... 
0070: 00 21 00                                          .!.             
```

#### Opcodes

```
  0: 0x0052 [0x1E] EventEntity looks at LocalPlayer and starts talking
  1: 0x0057 [0x6F] WAIT_FRAME_DELAY: Yield until WaitTime reaches zero
  2: 0x0058 [0x70] WAIT_ENTITY_RENDER_FLAG: Wait while EventEntity->Render.Flags3 bit 2 is set (cancel turn if not)
  3: 0x0059 [0x29] REQ_SET_WAIT(priority=0x08, entity_id=Mimomo (ID: 17752120/0x010EE038), tag_num=0x01)
  4: 0x0060 [0x1D] PRINT_EVENT_MESSAGE(message_id=7764*)
    → "I'm having twouble-wouble with my study-wudies, so I came from the beginners class to ask the teacher-weachers here for helpy-welpy."
  5: 0x0063 [0x23] WAIT_FOR_DIALOG_INTERACTION
  6: 0x0064 [0x1D] PRINT_EVENT_MESSAGE(message_id=7765*)
    → "But they all say the testy-westys are at handy-wandy, and are too busy-wusy to talky-walky. Won't someone just answer-wanser my simple-wimple question?"
  7: 0x0067 [0x23] WAIT_FOR_DIALOG_INTERACTION
  8: 0x0068 [0x29] REQ_SET_WAIT(priority=0x08, entity_id=Mimomo (ID: 17752120/0x010EE038), tag_num=0x02)
  9: 0x006F [0x20] SET_CLI_EVENT_UC_FLAG: Unlock player control
 10: 0x0071 [0x21] END_EVENT
 11: 0x0072 [0x00] END_REQSTACK()
```

### Event 757

#### Metadata

| Field        | Value    |
|--------------|----------|
| Entrypoint   | 0x0073   |
| Data Size    | 33 bytes |
| Instructions | 12       |

```
      00 01 02 03 04 05 06 07  08 09 0A 0B 0C 0D 0E 0F
      -- -- -- -- -- -- -- --  -- -- -- -- -- -- -- --
0070:          1E F0 FF FF 7F  6F 70 29 08 38 E0 0E 01     .....op).8...
0080: 01 1D 06 80 23 1D 07 80  23 29 08 38 E0 0E 01 02  ....#...#).8....
0090: 20 00 21 00                                        .!.            
```

#### Opcodes

```
  0: 0x0073 [0x1E] EventEntity looks at LocalPlayer and starts talking
  1: 0x0078 [0x6F] WAIT_FRAME_DELAY: Yield until WaitTime reaches zero
  2: 0x0079 [0x70] WAIT_ENTITY_RENDER_FLAG: Wait while EventEntity->Render.Flags3 bit 2 is set (cancel turn if not)
  3: 0x007A [0x29] REQ_SET_WAIT(priority=0x08, entity_id=Mimomo (ID: 17752120/0x010EE038), tag_num=0x01)
  4: 0x0081 [0x1D] PRINT_EVENT_MESSAGE(message_id=9792*)
    → "I'm having twouble-wouble with my study-wudies, so I came from the beginners class to ask the teacher-weachers here for helpy-welpy."
  5: 0x0084 [0x23] WAIT_FOR_DIALOG_INTERACTION
  6: 0x0085 [0x1D] PRINT_EVENT_MESSAGE(message_id=9793*)
    → "They told me to go ask Professor-wessor Koru-Moru. My brainy-wain is all in a bustle-wustle."
  7: 0x0088 [0x23] WAIT_FOR_DIALOG_INTERACTION
  8: 0x0089 [0x29] REQ_SET_WAIT(priority=0x08, entity_id=Mimomo (ID: 17752120/0x010EE038), tag_num=0x02)
  9: 0x0090 [0x20] SET_CLI_EVENT_UC_FLAG: Unlock player control
 10: 0x0092 [0x21] END_EVENT
 11: 0x0093 [0x00] END_REQSTACK()
```
