# 17752085 - Serukoko

## Common Data

| Field            | Value                     |
|------------------|---------------------------|
| Zone             | Windurst Waters (ID: 238) |
| Block Size       | 344 bytes                 |
| Total Events     | 11                        |
| References Count | 16                        |

## List of Events

| Event ID                 | Entrypoint   |   Size |   Instructions |
|--------------------------|--------------|--------|----------------|
| [65535](#event-65535)    | 0x0000       |      1 |              1 |
| [65535.1](#event-655351) | 0x0001       |      1 |              1 |
| [65535.2](#event-655352) | 0x0002       |      1 |              1 |
| [373](#event-373)        | 0x0003       |     27 |              9 |
| [163](#event-163)        | 0x001E       |     27 |              9 |
| [171](#event-171)        | 0x0039       |     27 |              9 |
| [383](#event-383)        | 0x0054       |     27 |              9 |
| [415](#event-415)        | 0x006F       |     27 |              9 |
| [419](#event-419)        | 0x008A       |     27 |              9 |
| [718](#event-718)        | 0x00A5       |     27 |              9 |
| [727](#event-727)        | 0x00C0       |     27 |              9 |

## DAT References (imed_data)

|   Index | Hex Value   |   Dec Value |
|---------|-------------|-------------|
|       0 | 0x1FEF      |        8175 |
|       1 | 0x1FF0      |        8176 |
|       2 | 0x1E04      |        7684 |
|       3 | 0x1E05      |        7685 |
|       4 | 0x1E18      |        7704 |
|       5 | 0x1E19      |        7705 |
|       6 | 0x2008      |        8200 |
|       7 | 0x2009      |        8201 |
|       8 | 0x2067      |        8295 |
|       9 | 0x2068      |        8296 |
|      10 | 0x2077      |        8311 |
|      11 | 0x2078      |        8312 |
|      12 | 0x25D3      |        9683 |
|      13 | 0x25D4      |        9684 |
|      14 | 0x25E9      |        9705 |
|      15 | 0x25EA      |        9706 |

## String References

- **7684**: I wonder what in Vana'diel is contained in the missing restricted book?
- **7685**: But, I guess with our level of magic, we couldn't open it, let alone read what's inside... Then again, I'd like to peek at what's on the cover, at least.
- **7704**: So, all that talk about finding one of our lost restricted books turned out to be empty rumors.
- **7705**: The minister won't be able to sleep any easier after all. Poor thing...
- **8175**: The books in this Library of Magic have special spells cast on them.
- **8176**: Those spells only last a few hundred years or so. That's why we recast them with new magic. If we don't, the knowledge found within these books will perish.
- **8200**: The transcription of these manuscripts is so bothersome. It's impossible to read the ancient letters, and if you make a little mistake in their pronunciation, BOOM! The whole book goes and explodes in your face.
- **8201**: But if you avoid the old books, you'll only have more trouble when it comes to reading the ancient writings. You just can't win.
- **8295**: Umm... Where was I... Umm... Oh, I just can't concentrate... I'm too worried about Hariga-Origa's work.
- **8296**: If only I had $1 and $2 to give him... Oh, can'taru you hurry up and find him some so we can erase the stains and get that book back to its rightaruful place?
- **8311**: Umm... Where was I... Umm... Oh, I can't concentrate because I'm so worried! I hope Hariga-Origa can hurry up and get rid of that stain from my little juice-spilling incident.
- **8312**: Now I wish I never listened to the Minister of the Orastery's request. Oh, I'm too weak when it comes to assertive men...
- **9683**: There can't be a soul in Windurst who doesn't know the name of former Optistery Minister Karaha-Baruha.
- **9684**: He was a great genius who gave his life to save Windurst... The greatest Minister of the Optistery.
- **9705**: The sixth ministry of Windurst? Of course, everyone's heard the rumors. But they're justaru rumors...
- **9706**: What!? There really was a sixth ministry!? That's abolutely-wutely astonishing! Who was the minister, I wonder?

## Events

### Event 65535

#### Metadata

| Field        | Value   |
|--------------|---------|
| Entrypoint   | 0x0000  |
| Data Size    | 1 bytes |
| Instructions | 1       |

```
      00 01 02 03 04 05 06 07  08 09 0A 0B 0C 0D 0E 0F
      -- -- -- -- -- -- -- --  -- -- -- -- -- -- -- --
0000: 00                                                .               
```

#### Opcodes

```
  0: 0x0000 [0x00] END_REQSTACK()
```

### Event 65535.1

#### Metadata

| Field        | Value   |
|--------------|---------|
| Entrypoint   | 0x0001  |
| Data Size    | 1 bytes |
| Instructions | 1       |

```
      00 01 02 03 04 05 06 07  08 09 0A 0B 0C 0D 0E 0F
      -- -- -- -- -- -- -- --  -- -- -- -- -- -- -- --
0000:    00                                              .              
```

#### Opcodes

```
  0: 0x0001 [0x00] END_REQSTACK()
```

### Event 65535.2

#### Metadata

| Field        | Value   |
|--------------|---------|
| Entrypoint   | 0x0002  |
| Data Size    | 1 bytes |
| Instructions | 1       |

```
      00 01 02 03 04 05 06 07  08 09 0A 0B 0C 0D 0E 0F
      -- -- -- -- -- -- -- --  -- -- -- -- -- -- -- --
0000:       00                                            .             
```

#### Opcodes

```
  0: 0x0002 [0x00] END_REQSTACK()
```

### Event 373

#### Metadata

| Field        | Value    |
|--------------|----------|
| Entrypoint   | 0x0003   |
| Data Size    | 27 bytes |
| Instructions | 9        |

```
      00 01 02 03 04 05 06 07  08 09 0A 0B 0C 0D 0E 0F
      -- -- -- -- -- -- -- --  -- -- -- -- -- -- -- --
0000:          79 00 F8 FF FF  7F F0 FF FF 7F 1D 00 80     y............
0010: 23 1D 01 80 23 7B F8 FF  FF 7F 20 00 21 00        #...#{.... .!.  
```

#### Opcodes

```
  0: 0x0003 [0x79] EventEntity looks at LocalPlayer (Basic look)
  1: 0x000D [0x1D] PRINT_EVENT_MESSAGE(message_id=8175*)
    → "The books in this Library of Magic have special spells cast on them."
  2: 0x0010 [0x23] WAIT_FOR_DIALOG_INTERACTION
  3: 0x0011 [0x1D] PRINT_EVENT_MESSAGE(message_id=8176*)
    → "Those spells only last a few hundred years or so. That's why we recast them with new magic. If we don't, the knowledge found within these books will perish."
  4: 0x0014 [0x23] WAIT_FOR_DIALOG_INTERACTION
  5: 0x0015 [0x7B] EventEntity stops talking
  6: 0x001A [0x20] SET_CLI_EVENT_UC_FLAG: Unlock player control
  7: 0x001C [0x21] END_EVENT
  8: 0x001D [0x00] END_REQSTACK()
```

### Event 163

#### Metadata

| Field        | Value    |
|--------------|----------|
| Entrypoint   | 0x001E   |
| Data Size    | 27 bytes |
| Instructions | 9        |

```
      00 01 02 03 04 05 06 07  08 09 0A 0B 0C 0D 0E 0F
      -- -- -- -- -- -- -- --  -- -- -- -- -- -- -- --
0010:                                            79 00                y.
0020: F8 FF FF 7F F0 FF FF 7F  1D 02 80 23 1D 03 80 23  ...........#...#
0030: 7B F8 FF FF 7F 20 00 21  00                       {.... .!.       
```

#### Opcodes

```
  0: 0x001E [0x79] EventEntity looks at LocalPlayer (Basic look)
  1: 0x0028 [0x1D] PRINT_EVENT_MESSAGE(message_id=7684*)
    → "I wonder what in Vana'diel is contained in the missing restricted book?"
  2: 0x002B [0x23] WAIT_FOR_DIALOG_INTERACTION
  3: 0x002C [0x1D] PRINT_EVENT_MESSAGE(message_id=7685*)
    → "But, I guess with our level of magic, we couldn't open it, let alone read what's inside... Then again, I'd like to peek at what's on the cover, at least."
  4: 0x002F [0x23] WAIT_FOR_DIALOG_INTERACTION
  5: 0x0030 [0x7B] EventEntity stops talking
  6: 0x0035 [0x20] SET_CLI_EVENT_UC_FLAG: Unlock player control
  7: 0x0037 [0x21] END_EVENT
  8: 0x0038 [0x00] END_REQSTACK()
```

### Event 171

#### Metadata

| Field        | Value    |
|--------------|----------|
| Entrypoint   | 0x0039   |
| Data Size    | 27 bytes |
| Instructions | 9        |

```
      00 01 02 03 04 05 06 07  08 09 0A 0B 0C 0D 0E 0F
      -- -- -- -- -- -- -- --  -- -- -- -- -- -- -- --
0030:                             79 00 F8 FF FF 7F F0           y......
0040: FF FF 7F 1D 04 80 23 1D  05 80 23 7B F8 FF FF 7F  ......#...#{....
0050: 20 00 21 00                                        .!.            
```

#### Opcodes

```
  0: 0x0039 [0x79] EventEntity looks at LocalPlayer (Basic look)
  1: 0x0043 [0x1D] PRINT_EVENT_MESSAGE(message_id=7704*)
    → "So, all that talk about finding one of our lost restricted books turned out to be empty rumors."
  2: 0x0046 [0x23] WAIT_FOR_DIALOG_INTERACTION
  3: 0x0047 [0x1D] PRINT_EVENT_MESSAGE(message_id=7705*)
    → "The minister won't be able to sleep any easier after all. Poor thing..."
  4: 0x004A [0x23] WAIT_FOR_DIALOG_INTERACTION
  5: 0x004B [0x7B] EventEntity stops talking
  6: 0x0050 [0x20] SET_CLI_EVENT_UC_FLAG: Unlock player control
  7: 0x0052 [0x21] END_EVENT
  8: 0x0053 [0x00] END_REQSTACK()
```

### Event 383

#### Metadata

| Field        | Value    |
|--------------|----------|
| Entrypoint   | 0x0054   |
| Data Size    | 27 bytes |
| Instructions | 9        |

```
      00 01 02 03 04 05 06 07  08 09 0A 0B 0C 0D 0E 0F
      -- -- -- -- -- -- -- --  -- -- -- -- -- -- -- --
0050:             79 00 F8 FF  FF 7F F0 FF FF 7F 1D 06      y...........
0060: 80 23 1D 07 80 23 7B F8  FF FF 7F 20 00 21 00     .#...#{.... .!. 
```

#### Opcodes

```
  0: 0x0054 [0x79] EventEntity looks at LocalPlayer (Basic look)
  1: 0x005E [0x1D] PRINT_EVENT_MESSAGE(message_id=8200*)
    → "The transcription of these manuscripts is so bothersome. It's impossible to read the ancient letters, and if you make a little mistake in their pronunciation, BOOM! The whole book goes and explodes in your face."
  2: 0x0061 [0x23] WAIT_FOR_DIALOG_INTERACTION
  3: 0x0062 [0x1D] PRINT_EVENT_MESSAGE(message_id=8201*)
    → "But if you avoid the old books, you'll only have more trouble when it comes to reading the ancient writings. You just can't win."
  4: 0x0065 [0x23] WAIT_FOR_DIALOG_INTERACTION
  5: 0x0066 [0x7B] EventEntity stops talking
  6: 0x006B [0x20] SET_CLI_EVENT_UC_FLAG: Unlock player control
  7: 0x006D [0x21] END_EVENT
  8: 0x006E [0x00] END_REQSTACK()
```

### Event 415

#### Metadata

| Field        | Value    |
|--------------|----------|
| Entrypoint   | 0x006F   |
| Data Size    | 27 bytes |
| Instructions | 9        |

```
      00 01 02 03 04 05 06 07  08 09 0A 0B 0C 0D 0E 0F
      -- -- -- -- -- -- -- --  -- -- -- -- -- -- -- --
0060:                                               79                 y
0070: 00 F8 FF FF 7F F0 FF FF  7F 1D 08 80 23 1D 09 80  ............#...
0080: 23 7B F8 FF FF 7F 20 00  21 00                    #{.... .!.      
```

#### Opcodes

```
  0: 0x006F [0x79] EventEntity looks at LocalPlayer (Basic look)
  1: 0x0079 [0x1D] PRINT_EVENT_MESSAGE(message_id=8295*)
    → "Umm... Where was I... Umm... Oh, I just can't concentrate... I'm too worried about Hariga-Origa's work."
  2: 0x007C [0x23] WAIT_FOR_DIALOG_INTERACTION
  3: 0x007D [0x1D] PRINT_EVENT_MESSAGE(message_id=8296*)
    → "If only I had $1 and $2 to give him... Oh, can'taru you hurry up and find him some so we can erase the stains and get that book back to its rightaruful place?"
  4: 0x0080 [0x23] WAIT_FOR_DIALOG_INTERACTION
  5: 0x0081 [0x7B] EventEntity stops talking
  6: 0x0086 [0x20] SET_CLI_EVENT_UC_FLAG: Unlock player control
  7: 0x0088 [0x21] END_EVENT
  8: 0x0089 [0x00] END_REQSTACK()
```

### Event 419

#### Metadata

| Field        | Value    |
|--------------|----------|
| Entrypoint   | 0x008A   |
| Data Size    | 27 bytes |
| Instructions | 9        |

```
      00 01 02 03 04 05 06 07  08 09 0A 0B 0C 0D 0E 0F
      -- -- -- -- -- -- -- --  -- -- -- -- -- -- -- --
0080:                                79 00 F8 FF FF 7F            y.....
0090: F0 FF FF 7F 1D 0A 80 23  1D 0B 80 23 7B F8 FF FF  .......#...#{...
00A0: 7F 20 00 21 00                                    . .!.           
```

#### Opcodes

```
  0: 0x008A [0x79] EventEntity looks at LocalPlayer (Basic look)
  1: 0x0094 [0x1D] PRINT_EVENT_MESSAGE(message_id=8311*)
    → "Umm... Where was I... Umm... Oh, I can't concentrate because I'm so worried! I hope Hariga-Origa can hurry up and get rid of that stain from my little juice-spilling incident."
  2: 0x0097 [0x23] WAIT_FOR_DIALOG_INTERACTION
  3: 0x0098 [0x1D] PRINT_EVENT_MESSAGE(message_id=8312*)
    → "Now I wish I never listened to the Minister of the Orastery's request. Oh, I'm too weak when it comes to assertive men..."
  4: 0x009B [0x23] WAIT_FOR_DIALOG_INTERACTION
  5: 0x009C [0x7B] EventEntity stops talking
  6: 0x00A1 [0x20] SET_CLI_EVENT_UC_FLAG: Unlock player control
  7: 0x00A3 [0x21] END_EVENT
  8: 0x00A4 [0x00] END_REQSTACK()
```

### Event 718

#### Metadata

| Field        | Value    |
|--------------|----------|
| Entrypoint   | 0x00A5   |
| Data Size    | 27 bytes |
| Instructions | 9        |

```
      00 01 02 03 04 05 06 07  08 09 0A 0B 0C 0D 0E 0F
      -- -- -- -- -- -- -- --  -- -- -- -- -- -- -- --
00A0:                79 00 F8  FF FF 7F F0 FF FF 7F 1D       y..........
00B0: 0C 80 23 1D 0D 80 23 7B  F8 FF FF 7F 20 00 21 00  ..#...#{.... .!.
```

#### Opcodes

```
  0: 0x00A5 [0x79] EventEntity looks at LocalPlayer (Basic look)
  1: 0x00AF [0x1D] PRINT_EVENT_MESSAGE(message_id=9683*)
    → "There can't be a soul in Windurst who doesn't know the name of former Optistery Minister Karaha-Baruha."
  2: 0x00B2 [0x23] WAIT_FOR_DIALOG_INTERACTION
  3: 0x00B3 [0x1D] PRINT_EVENT_MESSAGE(message_id=9684*)
    → "He was a great genius who gave his life to save Windurst... The greatest Minister of the Optistery."
  4: 0x00B6 [0x23] WAIT_FOR_DIALOG_INTERACTION
  5: 0x00B7 [0x7B] EventEntity stops talking
  6: 0x00BC [0x20] SET_CLI_EVENT_UC_FLAG: Unlock player control
  7: 0x00BE [0x21] END_EVENT
  8: 0x00BF [0x00] END_REQSTACK()
```

### Event 727

#### Metadata

| Field        | Value    |
|--------------|----------|
| Entrypoint   | 0x00C0   |
| Data Size    | 27 bytes |
| Instructions | 9        |

```
      00 01 02 03 04 05 06 07  08 09 0A 0B 0C 0D 0E 0F
      -- -- -- -- -- -- -- --  -- -- -- -- -- -- -- --
00C0: 79 00 F8 FF FF 7F F0 FF  FF 7F 1D 0E 80 23 1D 0F  y............#..
00D0: 80 23 7B F8 FF FF 7F 20  00 21 00                 .#{.... .!.     
```

#### Opcodes

```
  0: 0x00C0 [0x79] EventEntity looks at LocalPlayer (Basic look)
  1: 0x00CA [0x1D] PRINT_EVENT_MESSAGE(message_id=9705*)
    → "The sixth ministry of Windurst? Of course, everyone's heard the rumors. But they're justaru rumors..."
  2: 0x00CD [0x23] WAIT_FOR_DIALOG_INTERACTION
  3: 0x00CE [0x1D] PRINT_EVENT_MESSAGE(message_id=9706*)
    → "What!? There really was a sixth ministry!? That's abolutely-wutely astonishing! Who was the minister, I wonder?"
  4: 0x00D1 [0x23] WAIT_FOR_DIALOG_INTERACTION
  5: 0x00D2 [0x7B] EventEntity stops talking
  6: 0x00D7 [0x20] SET_CLI_EVENT_UC_FLAG: Unlock player control
  7: 0x00D9 [0x21] END_EVENT
  8: 0x00DA [0x00] END_REQSTACK()
```
