# 17752113 - EV_RECT01

## Common Data

| Field            | Value                     |
|------------------|---------------------------|
| Zone             | Windurst Waters (ID: 238) |
| Block Size       | 728 bytes                 |
| Total Events     | 2                         |
| References Count | 13                        |

## List of Events

| Event ID              | Entrypoint   |   Size |   Instructions |
|-----------------------|--------------|--------|----------------|
| [65535](#event-65535) | 0x0000       |      1 |              1 |
| [146](#event-146)     | 0x0001       |    649 |             95 |

## DAT References (imed_data)

|   Index | Hex Value   |   Dec Value |
|---------|-------------|-------------|
|       0 | 0x00C8      |         200 |
|       1 | 0x0000      |           0 |
|       2 | 0x012C      |         300 |
|       3 | 0x0002      |           2 |
|       4 | 0x0003      |           3 |
|       5 | 0x00A3      |         163 |
|       6 | 0x0064      |         100 |
|       7 | 0x008A      |         138 |
|       8 | 0x003C      |          60 |
|       9 | 0x0008      |           8 |
|      10 | 0x0028      |          40 |
|      11 | 0x0097      |         151 |
|      12 | 0x1DCA      |        7626 |

## Events

### Event 65535

#### Metadata

| Field        | Value   |
|--------------|---------|
| Entrypoint   | 0x0000  |
| Data Size    | 1 bytes |
| Instructions | 1       |

```
      00 01 02 03 04 05 06 07  08 09 0A 0B 0C 0D 0E 0F
      -- -- -- -- -- -- -- --  -- -- -- -- -- -- -- --
0000: 00                                                .               
```

#### Opcodes

```
  0: 0x0000 [0x00] END_REQSTACK()
```

### Event 146

#### Metadata

| Field        | Value     |
|--------------|-----------|
| Entrypoint   | 0x0001    |
| Data Size    | 649 bytes |
| Instructions | 95        |

```
      00 01 02 03 04 05 06 07  08 09 0A 0B 0C 0D 0E 0F
      -- -- -- -- -- -- -- --  -- -- -- -- -- -- -- --
0000:    20 01 46 01 42 45 00  80 F8 FF FF 7F F8 FF FF    .F.BE.........
0010: 7F 66 64 6F 31 01 80 5D  01 80 00 80 1C 02 80 02  .fdo1..]........
0020: 08 10 01 80 00 2D 00 38  03 80 01 30 00 38 04 80  .....-.8...0.8..
0030: 5C 00 05 80 5C 01 05 80  9A 29 08 F0 FF FF 7F 06  \...\....)......
0040: 29 0B 0A E0 0E 01 40 29  0B F0 FF FF 7F 2D 4A 0A  ).....@).....-J.
0050: E0 0E 01 30 E0 0E 01 6F  76 0A E0 0E 01 4A 30 E0  ...0...ov....J0.
0060: 0E 01 0A E0 0E 01 6F 76  30 E0 0E 01 2C 0A E0 0E  ......ov0...,...
0070: 01 0A E0 0E 01 77 6F 66  34 1C 06 80 45 07 80 F8  .....wof4...E...
0080: FF FF 7F F8 FF FF 7F 73  30 34 36 01 80 45 00 80  .......s046..E..
0090: F8 FF FF 7F F8 FF FF 7F  66 64 69 31 01 80 1C 08  ........fdi1....
00A0: 80 29 0B 30 E0 0E 01 51  55 07 80 F8 FF FF 7F F8  .).0...QU.......
00B0: FF FF 7F 73 30 34 36 45  07 80 F8 FF FF 7F F8 FF  ...s046E........
00C0: FF 7F 73 30 34 37 01 80  29 0B 30 E0 0E 01 52 45  ..s047..).0...RE
00D0: 07 80 F8 FF FF 7F F8 FF  FF 7F 73 30 34 38 01 80  ..........s048..
00E0: 29 0B F0 FF FF 7F 2F 29  0B 0A E0 0E 01 42 29 0B  )...../).....B).
00F0: 30 E0 0E 01 53 27 0B F0  FF FF 7F 30 45 07 80 F8  0...S'.....0E...
0100: FF FF 7F F8 FF FF 7F 73  30 34 39 01 80 29 0B 0A  .......s049..)..
0110: E0 0E 01 43 2A 0B F0 FF  FF 7F 4A 0A E0 0E 01 F0  ...C*.....J.....
0120: FF FF 7F 6F 76 0A E0 0E  01 4A 30 E0 0E 01 F0 FF  ...ov....J0.....
0130: FF 7F 6F 76 30 E0 0E 01  02 09 10 09 80 00 54 01  ..ov0.........T.
0140: 45 07 80 F8 FF FF 7F F8  FF FF 7F 73 30 38 30 01  E..........s080.
0150: 80 01 65 01 45 07 80 F8  FF FF 7F F8 FF FF 7F 73  ..e.E..........s
0160: 30 35 31 01 80 5C 00 01  80 5C 01 01 80 4A 0A E0  051..\...\...J..
0170: 0E 01 30 E0 0E 01 6F 76  0A E0 0E 01 29 0B 0A E0  ..0...ov....)...
0180: 0E 01 44 45 07 80 F8 FF  FF 7F F8 FF FF 7F 73 30  ..DE..........s0
0190: 35 30 01 80 27 0B 0A E0  0E 01 41 4A F0 FF FF 7F  50..'.....AJ....
01A0: 0A E0 0E 01 4A 30 E0 0E  01 0A E0 0E 01 6F 76 30  ....J0.......ov0
01B0: E0 0E 01 1C 0A 80 4A F0  FF FF 7F 0A E0 0E 01 1C  ......J.........
01C0: 0A 80 4A F0 FF FF 7F 0A  E0 0E 01 4A 30 E0 0E 01  ..J........J0...
01D0: F0 FF FF 7F 6F 76 30 E0  0E 01 2A 0B 0A E0 0E 01  ....ov0...*.....
01E0: 5C 00 0B 80 5C 01 0B 80  9A 29 0B 30 E0 0E 01 54  \...\....).0...T
01F0: 45 07 80 F8 FF FF 7F F8  FF FF 7F 73 30 35 32 01  E..........s052.
0200: 80 7B 30 E0 0E 01 27 0B  F0 FF FF 7F 31 27 0B 30  .{0...'.....1'.0
0210: E0 0E 01 50 2B 30 E0 0E  01 0C 80 23 2A 0B 30 E0  ...P+0.....#*.0.
0220: 0E 01 2A 0B F0 FF FF 7F  4A F0 FF FF 7F 30 E0 0E  ..*.....J....0..
0230: 01 29 0B 30 E0 0E 01 56  45 07 80 F8 FF FF 7F F8  .).0...VE.......
0240: FF FF 7F 73 30 35 33 01  80 4A 30 E0 0E 01 F0 FF  ...s053..J0.....
0250: FF 7F 6F 76 30 E0 0E 01  29 0B 30 E0 0E 01 57 45  ..ov0...).0...WE
0260: 00 80 F0 FF FF 7F F0 FF  FF 7F 66 64 6F 30 01 80  ..........fdo0..
0270: 1C 02 80 46 00 45 00 80  F0 FF FF 7F F0 FF FF 7F  ...F.E..........
0280: 66 64 69 30 01 80 20 00  21 00                    fdi0.. .!.      
```

#### Opcodes

```
  0: 0x0001 [0x20] SET_CLI_EVENT_UC_FLAG: Lock player control
  1: 0x0003 [0x46] CAMERA_CONTROL: Disable user control
  2: 0x0005 [0x42] SET_CLI_EVENT_CANCEL_DATA()
  3: 0x0006 [0x45] LOAD_SCHEDULED_TASK: Load scheduler "fdo1" with entities [EventEntity, EventEntity], work=[200*, 0*]
  4: 0x0017 [0x5D] SET_MUSIC_VOLUME(volume=0*, fade_time=200*)
  5: 0x001C [0x1C] WAIT(300* ticks)
  6: 0x001F [0x02] IF !(Work_Zone[8] == 0*) GOTO 0x002D
  7: 0x0027 [0x38] SET_CLIENT_EVENT_MODE(mode=2*)
  8: 0x002A [0x01] GOTO 0x0030
  9: 0x002D [0x38] SET_CLIENT_EVENT_MODE(mode=3*)

SUBROUTINE_0030:
 10: 0x0030 [0x5C] MUSIC_CONTROL: Set Idle (Day) music to song 163*
 11: 0x0034 [0x5C] MUSIC_CONTROL: Set Idle (Night) music to song 163*
 12: 0x0038 [0x9A] WAIT_MUSIC_SERVER()
 13: 0x0039 [0x29] REQ_SET_WAIT(priority=0x08, entity_id=LocalPlayer, tag_num=0x06)
 14: 0x0040 [0x29] REQ_SET_WAIT(priority=0x0B, entity_id=Ajido-Marujido (ID: 17752074/0x010EE00A), tag_num=0x40)
 15: 0x0047 [0x29] REQ_SET_WAIT(priority=0x0B, entity_id=LocalPlayer, tag_num=0x2D)
 16: 0x004E [0x4A] Ajido-Marujido (ID: 17752074/0x010EE00A) looks at Leepe-Hoppe (ID: 17752112/0x010EE030)
 17: 0x0057 [0x6F] WAIT_FRAME_DELAY: Yield until WaitTime reaches zero
 18: 0x0058 [0x76] CHECK_ENTITY_RENDER_FLAGS: Wait until Ajido-Marujido (ID: 17752074/0x010EE00A) Render.Flags0 and Render.Flags3 conditions are met
 19: 0x005D [0x4A] Leepe-Hoppe (ID: 17752112/0x010EE030) looks at Ajido-Marujido (ID: 17752074/0x010EE00A)
 20: 0x0066 [0x6F] WAIT_FRAME_DELAY: Yield until WaitTime reaches zero
 21: 0x0067 [0x76] CHECK_ENTITY_RENDER_FLAGS: Wait until Leepe-Hoppe (ID: 17752112/0x010EE030) Render.Flags0 and Render.Flags3 conditions are met
 22: 0x006C [0x2C] CREATE_SCHEDULER_TASK: Create scheduler "wof4" with entities [Ajido-Marujido (ID: 17752074/0x010EE00A), Ajido-Marujido (ID: 17752074/0x010EE00A)]
 23: 0x0079 [0x1C] WAIT(100* ticks)
 24: 0x007C [0x45] LOAD_SCHEDULED_TASK: Load scheduler "s046" with entities [EventEntity, EventEntity], work=[138*, 0*]
 25: 0x008D [0x45] LOAD_SCHEDULED_TASK: Load scheduler "fdi1" with entities [EventEntity, EventEntity], work=[200*, 0*]
 26: 0x009E [0x1C] WAIT(60* ticks)
 27: 0x00A1 [0x29] REQ_SET_WAIT(priority=0x0B, entity_id=Leepe-Hoppe (ID: 17752112/0x010EE030), tag_num=0x51)
 28: 0x00A8 [0x55] WAIT_LOAD_SCHEDULER: Wait for scheduler "s046" with entities [EventEntity, EventEntity], work=138*
 29: 0x00B7 [0x45] LOAD_SCHEDULED_TASK: Load scheduler "s047" with entities [EventEntity, EventEntity], work=[138*, 0*]
 30: 0x00C8 [0x29] REQ_SET_WAIT(priority=0x0B, entity_id=Leepe-Hoppe (ID: 17752112/0x010EE030), tag_num=0x52)
 31: 0x00CF [0x45] LOAD_SCHEDULED_TASK: Load scheduler "s048" with entities [EventEntity, EventEntity], work=[138*, 0*]
 32: 0x00E0 [0x29] REQ_SET_WAIT(priority=0x0B, entity_id=LocalPlayer, tag_num=0x2F)
 33: 0x00E7 [0x29] REQ_SET_WAIT(priority=0x0B, entity_id=Ajido-Marujido (ID: 17752074/0x010EE00A), tag_num=0x42)
 34: 0x00EE [0x29] REQ_SET_WAIT(priority=0x0B, entity_id=Leepe-Hoppe (ID: 17752112/0x010EE030), tag_num=0x53)
 35: 0x00F5 [0x27] REQ_SET(priority=0x0B, entity_id=LocalPlayer, tag_num=0x30)
 36: 0x00FC [0x45] LOAD_SCHEDULED_TASK: Load scheduler "s049" with entities [EventEntity, EventEntity], work=[138*, 0*]
 37: 0x010D [0x29] REQ_SET_WAIT(priority=0x0B, entity_id=Ajido-Marujido (ID: 17752074/0x010EE00A), tag_num=0x43)
 38: 0x0114 [0x2A] GET_REQ_LEVEL(level=11, entity_id=LocalPlayer)
 39: 0x011A [0x4A] Ajido-Marujido (ID: 17752074/0x010EE00A) looks at LocalPlayer
 40: 0x0123 [0x6F] WAIT_FRAME_DELAY: Yield until WaitTime reaches zero
 41: 0x0124 [0x76] CHECK_ENTITY_RENDER_FLAGS: Wait until Ajido-Marujido (ID: 17752074/0x010EE00A) Render.Flags0 and Render.Flags3 conditions are met
 42: 0x0129 [0x4A] Leepe-Hoppe (ID: 17752112/0x010EE030) looks at LocalPlayer
 43: 0x0132 [0x6F] WAIT_FRAME_DELAY: Yield until WaitTime reaches zero
 44: 0x0133 [0x76] CHECK_ENTITY_RENDER_FLAGS: Wait until Leepe-Hoppe (ID: 17752112/0x010EE030) Render.Flags0 and Render.Flags3 conditions are met
 45: 0x0138 [0x02] IF !(Work_Zone[9] == 8*) GOTO 0x0154
 46: 0x0140 [0x45] LOAD_SCHEDULED_TASK: Load scheduler "s080" with entities [EventEntity, EventEntity], work=[138*, 0*]
 47: 0x0151 [0x01] GOTO 0x0165
 48: 0x0154 [0x45] LOAD_SCHEDULED_TASK: Load scheduler "s051" with entities [EventEntity, EventEntity], work=[138*, 0*]

SUBROUTINE_0165:
 49: 0x0165 [0x5C] MUSIC_CONTROL: Set Idle (Day) music to song 0*
 50: 0x0169 [0x5C] MUSIC_CONTROL: Set Idle (Night) music to song 0*
 51: 0x016D [0x4A] Ajido-Marujido (ID: 17752074/0x010EE00A) looks at Leepe-Hoppe (ID: 17752112/0x010EE030)
 52: 0x0176 [0x6F] WAIT_FRAME_DELAY: Yield until WaitTime reaches zero
 53: 0x0177 [0x76] CHECK_ENTITY_RENDER_FLAGS: Wait until Ajido-Marujido (ID: 17752074/0x010EE00A) Render.Flags0 and Render.Flags3 conditions are met
 54: 0x017C [0x29] REQ_SET_WAIT(priority=0x0B, entity_id=Ajido-Marujido (ID: 17752074/0x010EE00A), tag_num=0x44)
 55: 0x0183 [0x45] LOAD_SCHEDULED_TASK: Load scheduler "s050" with entities [EventEntity, EventEntity], work=[138*, 0*]
 56: 0x0194 [0x27] REQ_SET(priority=0x0B, entity_id=Ajido-Marujido (ID: 17752074/0x010EE00A), tag_num=0x41)
 57: 0x019B [0x4A] LocalPlayer looks at Ajido-Marujido (ID: 17752074/0x010EE00A)
 58: 0x01A4 [0x4A] Leepe-Hoppe (ID: 17752112/0x010EE030) looks at Ajido-Marujido (ID: 17752074/0x010EE00A)
 59: 0x01AD [0x6F] WAIT_FRAME_DELAY: Yield until WaitTime reaches zero
 60: 0x01AE [0x76] CHECK_ENTITY_RENDER_FLAGS: Wait until Leepe-Hoppe (ID: 17752112/0x010EE030) Render.Flags0 and Render.Flags3 conditions are met
 61: 0x01B3 [0x1C] WAIT(40* ticks)
 62: 0x01B6 [0x4A] LocalPlayer looks at Ajido-Marujido (ID: 17752074/0x010EE00A)
 63: 0x01BF [0x1C] WAIT(40* ticks)
 64: 0x01C2 [0x4A] LocalPlayer looks at Ajido-Marujido (ID: 17752074/0x010EE00A)
 65: 0x01CB [0x4A] Leepe-Hoppe (ID: 17752112/0x010EE030) looks at LocalPlayer
 66: 0x01D4 [0x6F] WAIT_FRAME_DELAY: Yield until WaitTime reaches zero
 67: 0x01D5 [0x76] CHECK_ENTITY_RENDER_FLAGS: Wait until Leepe-Hoppe (ID: 17752112/0x010EE030) Render.Flags0 and Render.Flags3 conditions are met
 68: 0x01DA [0x2A] GET_REQ_LEVEL(level=11, entity_id=Ajido-Marujido (ID: 17752074/0x010EE00A))
 69: 0x01E0 [0x5C] MUSIC_CONTROL: Set Idle (Day) music to song 151*
 70: 0x01E4 [0x5C] MUSIC_CONTROL: Set Idle (Night) music to song 151*
 71: 0x01E8 [0x9A] WAIT_MUSIC_SERVER()
 72: 0x01E9 [0x29] REQ_SET_WAIT(priority=0x0B, entity_id=Leepe-Hoppe (ID: 17752112/0x010EE030), tag_num=0x54)
 73: 0x01F0 [0x45] LOAD_SCHEDULED_TASK: Load scheduler "s052" with entities [EventEntity, EventEntity], work=[138*, 0*]
 74: 0x0201 [0x7B] Leepe-Hoppe (ID: 17752112/0x010EE030) stops talking
 75: 0x0206 [0x27] REQ_SET(priority=0x0B, entity_id=LocalPlayer, tag_num=0x31)
 76: 0x020D [0x27] REQ_SET(priority=0x0B, entity_id=Leepe-Hoppe (ID: 17752112/0x010EE030), tag_num=0x50)
 77: 0x0214 [0x2B] Leepe-Hoppe (ID: 17752112/0x010EE030) [7626*]:
    → "Oh, that was the Orastery minister, Ajido-Marujido, who wants to go to Karaha-Baruha's lab in the canals so..."
 78: 0x021B [0x23] WAIT_FOR_DIALOG_INTERACTION
 79: 0x021C [0x2A] GET_REQ_LEVEL(level=11, entity_id=Leepe-Hoppe (ID: 17752112/0x010EE030))
 80: 0x0222 [0x2A] GET_REQ_LEVEL(level=11, entity_id=LocalPlayer)
 81: 0x0228 [0x4A] LocalPlayer looks at Leepe-Hoppe (ID: 17752112/0x010EE030)
 82: 0x0231 [0x29] REQ_SET_WAIT(priority=0x0B, entity_id=Leepe-Hoppe (ID: 17752112/0x010EE030), tag_num=0x56)
 83: 0x0238 [0x45] LOAD_SCHEDULED_TASK: Load scheduler "s053" with entities [EventEntity, EventEntity], work=[138*, 0*]
 84: 0x0249 [0x4A] Leepe-Hoppe (ID: 17752112/0x010EE030) looks at LocalPlayer
 85: 0x0252 [0x6F] WAIT_FRAME_DELAY: Yield until WaitTime reaches zero
 86: 0x0253 [0x76] CHECK_ENTITY_RENDER_FLAGS: Wait until Leepe-Hoppe (ID: 17752112/0x010EE030) Render.Flags0 and Render.Flags3 conditions are met
 87: 0x0258 [0x29] REQ_SET_WAIT(priority=0x0B, entity_id=Leepe-Hoppe (ID: 17752112/0x010EE030), tag_num=0x57)
 88: 0x025F [0x45] LOAD_SCHEDULED_TASK: Load scheduler "fdo0" with entities [LocalPlayer, LocalPlayer], work=[200*, 0*]
 89: 0x0270 [0x1C] WAIT(300* ticks)
 90: 0x0273 [0x46] CAMERA_CONTROL: Restore default settings
 91: 0x0275 [0x45] LOAD_SCHEDULED_TASK: Load scheduler "fdi0" with entities [LocalPlayer, LocalPlayer], work=[200*, 0*]
 92: 0x0286 [0x20] SET_CLI_EVENT_UC_FLAG: Unlock player control
 93: 0x0288 [0x21] END_EVENT
 94: 0x0289 [0x00] END_REQSTACK()
```
