# 17752077 - Panna-Donna

## Common Data

| Field            | Value                     |
|------------------|---------------------------|
| Zone             | Windurst Waters (ID: 238) |
| Block Size       | 2084 bytes                |
| Total Events     | 55                        |
| References Count | 79                        |

## List of Events

| Event ID                   | Entrypoint   |   Size |   Instructions |
|----------------------------|--------------|--------|----------------|
| [65535](#event-65535)      | 0x0000       |      1 |              1 |
| [65535.1](#event-655351)   | 0x0001       |     16 |              2 |
| [65535.2](#event-655352)   | 0x0011       |     22 |              4 |
| [65535.3](#event-655353)   | 0x0027       |     16 |              2 |
| [65535.4](#event-655354)   | 0x0037       |     14 |              2 |
| [65535.5](#event-655355)   | 0x0045       |     32 |              4 |
| [65535.6](#event-655356)   | 0x0065       |     16 |              2 |
| [65535.7](#event-655357)   | 0x0075       |     14 |              2 |
| [65535.8](#event-655358)   | 0x0083       |     16 |              2 |
| [65535.9](#event-655359)   | 0x0093       |     14 |              2 |
| [65535.10](#event-6553510) | 0x00A1       |     16 |              2 |
| [65535.11](#event-6553511) | 0x00B1       |     14 |              2 |
| [65535.12](#event-6553512) | 0x00BF       |     16 |              2 |
| [65535.13](#event-6553513) | 0x00CF       |     14 |              2 |
| [65535.14](#event-6553514) | 0x00DD       |      9 |              3 |
| [105](#event-105)          | 0x00E6       |     29 |             10 |
| [106](#event-106)          | 0x0103       |     29 |             10 |
| [113](#event-113)          | 0x0120       |     33 |             12 |
| [116](#event-116)          | 0x0141       |     33 |             12 |
| [118](#event-118)          | 0x0162       |      1 |              1 |
| [119](#event-119)          | 0x0163       |      1 |              1 |
| [120](#event-120)          | 0x0164       |      1 |              1 |
| [65535.15](#event-6553515) | 0x0165       |     19 |              5 |
| [65535.16](#event-6553516) | 0x0178       |     12 |              4 |
| [65535.17](#event-6553517) | 0x0184       |     17 |              7 |
| [65535.18](#event-6553518) | 0x0195       |     19 |              5 |
| [65535.19](#event-6553519) | 0x01A8       |     23 |              7 |
| [65535.20](#event-6553520) | 0x01BF       |     23 |              7 |
| [65535.21](#event-6553521) | 0x01D6       |     23 |              7 |
| [122](#event-122)          | 0x01ED       |     46 |             14 |
| [127](#event-127)          | 0x021B       |     33 |             12 |
| [133](#event-133)          | 0x023C       |     33 |             12 |
| [137](#event-137)          | 0x025D       |     33 |             12 |
| [152](#event-152)          | 0x027E       |     47 |             14 |
| [158](#event-158)          | 0x02AD       |     33 |             12 |
| [179](#event-179)          | 0x02CE       |     47 |             14 |
| [212](#event-212)          | 0x02FD       |     47 |             14 |
| [218](#event-218)          | 0x032C       |     33 |             12 |
| [224](#event-224)          | 0x034D       |     33 |             12 |
| [229](#event-229)          | 0x036E       |     33 |             12 |
| [233](#event-233)          | 0x038F       |     33 |             12 |
| [238](#event-238)          | 0x03B0       |     33 |             12 |
| [243](#event-243)          | 0x03D1       |     33 |             12 |
| [246](#event-246)          | 0x03F2       |     33 |             12 |
| [768](#event-768)          | 0x0413       |     33 |             12 |
| [702](#event-702)          | 0x0434       |     65 |             18 |
| [707](#event-707)          | 0x0475       |     45 |             14 |
| [712](#event-712)          | 0x04A2       |     47 |             14 |
| [732](#event-732)          | 0x04D1       |     47 |             14 |
| [750](#event-750)          | 0x0500       |     33 |             12 |
| [766](#event-766)          | 0x0521       |     33 |             12 |
| [826](#event-826)          | 0x0542       |     47 |             14 |
| [834](#event-834)          | 0x0571       |     47 |             14 |
| [831](#event-831)          | 0x05A0       |     45 |             14 |
| [838](#event-838)          | 0x05CD       |     45 |             14 |

## DAT References (imed_data)

|   Index | Hex Value   |   Dec Value |
|---------|-------------|-------------|
|       0 | 0x0028      |          40 |
|       1 | 0x001E      |          30 |
|       2 | 0x0029      |          41 |
|       3 | 0x0032      |          50 |
|       4 | 0x1D56      |        7510 |
|       5 | 0x1D57      |        7511 |
|       6 | 0x1D61      |        7521 |
|       7 | 0x1D62      |        7522 |
|       8 | 0x1D66      |        7526 |
|       9 | 0x1D67      |        7527 |
|      10 | 0x1D71      |        7537 |
|      11 | 0xFFFF250A  |  4294911242 |
|      12 | 0x37AD0     |      228048 |
|      13 | 0xFFFFEC77  |  4294962295 |
|      14 | 0xFFFF2080  |  4294910080 |
|      15 | 0x37BE5     |      228325 |
|      16 | 0xFFFFEC79  |  4294962297 |
|      17 | 0x02BB      |         699 |
|      18 | 0x1D77      |        7543 |
|      19 | 0x1D78      |        7544 |
|      20 | 0x1D79      |        7545 |
|      21 | 0x1D7A      |        7546 |
|      22 | 0x1D7B      |        7547 |
|      23 | 0x1D80      |        7552 |
|      24 | 0x1D81      |        7553 |
|      25 | 0x1D83      |        7555 |
|      26 | 0x1D84      |        7556 |
|      27 | 0x1D8B      |        7563 |
|      28 | 0x1D8C      |        7564 |
|      29 | 0x1D9B      |        7579 |
|      30 | 0x1D9C      |        7580 |
|      31 | 0x1DAB      |        7595 |
|      32 | 0x1DAC      |        7596 |
|      33 | 0x1DD9      |        7641 |
|      34 | 0x1DDA      |        7642 |
|      35 | 0x1DE8      |        7656 |
|      36 | 0x1DE9      |        7657 |
|      37 | 0x1E2B      |        7723 |
|      38 | 0x1E2C      |        7724 |
|      39 | 0x1E74      |        7796 |
|      40 | 0x1E75      |        7797 |
|      41 | 0x1E80      |        7808 |
|      42 | 0x1E81      |        7809 |
|      43 | 0x1E8E      |        7822 |
|      44 | 0x1E8F      |        7823 |
|      45 | 0x1E99      |        7833 |
|      46 | 0x1E9A      |        7834 |
|      47 | 0x1EA1      |        7841 |
|      48 | 0x1EA2      |        7842 |
|      49 | 0x1EAC      |        7852 |
|      50 | 0x1EAD      |        7853 |
|      51 | 0x1EB6      |        7862 |
|      52 | 0x1EB7      |        7863 |
|      53 | 0x1EBC      |        7868 |
|      54 | 0x1EBD      |        7869 |
|      55 | 0x2589      |        9609 |
|      56 | 0x258A      |        9610 |
|      57 | 0x2594      |        9620 |
|      58 | 0x2595      |        9621 |
|      59 | 0x2596      |        9622 |
|      60 | 0x25A5      |        9637 |
|      61 | 0x0006      |           6 |
|      62 | 0x25A6      |        9638 |
|      63 | 0x25B0      |        9648 |
|      64 | 0x25B1      |        9649 |
|      65 | 0x25F3      |        9715 |
|      66 | 0x25F4      |        9716 |
|      67 | 0x2625      |        9765 |
|      68 | 0x2626      |        9766 |
|      69 | 0x2656      |        9814 |
|      70 | 0x2657      |        9815 |
|      71 | 0x2746      |       10054 |
|      72 | 0x2747      |       10055 |
|      73 | 0x274D      |       10061 |
|      74 | 0x274E      |       10062 |
|      75 | 0x275B      |       10075 |
|      76 | 0x275C      |       10076 |
|      77 | 0x2766      |       10086 |
|      78 | 0x2767      |       10087 |

## String References

- **7510**: Huh? You have some kind of business with us, the North Winds? Mokyokyo is our leader-weader, so speak to her first.
- **7511**: Oh, a foreigner, huh? If you're looking for the [San d'Orian/Bastokan] Consulate, then head [yonder southeast/south]... It's in [Windurst Woods/Port Windurst]. Ta-taru.
- **7521**: If there's something you don't understand, just ask Jack of Hearts for a hand. You can find him in the plaza in fronty-wonty of the Optistery.
- **7522**: And even then, if you still don't understand something, pluck up the courage and ask your fellow adventurers for advice.
- **7526**: The four gatehouses are competing over who can get the most new recruits. I wonder how it's going.
- **7527**: I bet we North Winds are winning!t
- **7537**: At first you might only receive boring missions, but even those have their good side, allowing you to meet with people you would not normally be able to, and so on.
- **7543**: That's the spirit-wirit! Looks like it's my cue... I have a mission just right for you, so listen up!
- **7544**: You know the Horutoto Ruins out in Sarutabaruta, don't you? Well, they're about to conduct some kind of magic experiment there.
- **7545**: The Orastery, one of the five ministries of Windurst, is urgently requesting the dispatch of an adventurer to help them out.
- **7546**: Ask the Orastery's minister at their Mage Academy for the details.
- **7547**: The Orastery's Mage Academy is a big building in Port Windurst, far to the south of here. Well, good luck with your first tasky-wasky!
- **7552**: Well then, hurry on over to the Orastery. It sounds like the Orastery is going to conduct some kind of magic experiment in the magic towers.
- **7553**: The Minister of the Orastery will explain the details.
- **7555**: Hurry on over to the Orastery. It's the big building in Port Windurst, far to the south of here.
- **7556**: Lucky you. Sounds like an exciting mission with that magic experiment going on. But, oh, I forgot! The Minister of the Orastery is THAT guy...
- **7563**: It might not feel like you're achieving much at firsty-wirsty, but your efforts are contributing to the peace of Windurst.
- **7564**: I'm sure my telling you that suddenly enthused you, didn't it?
- **7579**: Cardians are our automaton guards. They were originally created twenty years ago by Zonpa-Zippa, the Minister of the Manustery.
- **7580**: It's hard enough to collect the materials to make them, but it takes even more effort to train them. Occasionally a few go bonkers-wonkers and run away...or that's what the guys from the Manustery say.
- **7595**: I know we shouldn't ask this, but... Why do we have to provide the Yagudo with all this stuff anyway?
- **7596**: The beastman hordes were utterly defeated by our allied forces in the war twenty years ago, weren't they? So what's the dealy-wealy?
- **7641**: Whoa! You're alive? Are you sure you're not a ghosty-whosty?
- **7642**: Giddeus really was a scary-wary place, right? Anyway, I'm glad you made it back safely.
- **7656**: I don't read at all, so I have no interest in the library.
- **7657**: Reading books just isn't in vogue these days. It has to have the impact and excitement of a wandering minstrel's song or a street performance to grab the attention of people today.
- **7723**: That School of Magic is full of cheeky little genius brats. They are constantly poking their noses into adult business, so it should be interesting to see what kind of adults they become themselves.
- **7724**: You got it! I abhor children. I don't even want to believe I was once one myself.
- **7796**: I heard about the mission. It sure sounds serious.
- **7797**: A\`h! Boy, am I gladdy-waddy I'm just a simple guard. I'm not cut out for such responsible missions.
- **7808**: The Sibyl Guards who attend on the Star Sibyl are all Mithra.
- **7809**: But they are different from the other Mithra you see around town. They have made a heartfelt pledge of allegiance.
- **7822**: The Star Sibyl's vestal ladies-in-waiting are the admiration and dream of every Tarutaru girl.
- **7823**: Ahhh...I wish I was born a girl so I could serve at the side of the great Sibyl. Not that serving by the side of Mokyokyo is bad or anything...
- **7833**: Wow! A writ of summons with a star emblem on it! You are incredible! Incredibly incredible!
- **7834**: I knew there was something different about my friend, <Player>. I bet you have a lucky star shining down on you. You should treasure it greatly!
- **7841**: What in Windurst is going on? For Heavens Tower to stop us from issuing missions...? Almost looks like we're about to go to war, or something!
- **7842**: Ah!? No, we couldn't possibly be...! Windurst is in a peace accord, right?
- **7852**: I heard from Mokyokyo that the talisman that sealed the Shadow Lord has been stolen!
- **7853**: The talisman itself was supposed to be sealed away in the central tower of the Horutoto Ruins with a magical barrier protecting it, right!? The one who stole it must be an extremely powerful magician!
- **7862**: Seems as though the conference of ministers has ended. I wonder what was on the agenda-wenda of that meeting?
- **7863**: Hey, now your position is high enough to come and go from Heavens Tower as you please, right? I promise not to tell anyone, so please let me know what's going on!
- **7868**: I don't know what happened, but the people from Heavens Tower look a lot brighter than before.
- **7869**: Hey, you're high enough in position to freely come and go from Heavens Tower, right? I promise I won't tell anyone, so please let me know what's going on!
- **9609**: I wonder what is to become of Windurst? Is there anything that a simple-wimple guard like me can do...?
- **9610**: For now, I just practice my swordplay with Ten of Hearts every day. He doesn't get tired, so he makes a good training partner.
- **9620**: How goes the adventuring life? Your new mission is from the Orastery, rightaru?
- **9621**: Minister Ajido-Marujido is the most super spell-slinger in Windurst. Or maybe that would be Doctor Shantotto?
- **9622**: I wonder who would win in a duel of dweomers? It would be a close match, don't you think?
- **9637**: The mages of the Orastery must all be in a flurry-scurry. The imprisonment of a minister is unprecedented.
- **9638**: What can be done to soothe the fury-wury of the Star Sibyl? No matter how much I ponder-wonder, I justaru can't think of anything!
- **9648**: Did you think things would get easier as your rank got higher?
- **9649**: Heh-heh-heh, you've got it all topsy-turvy. There aren'taru too many high-ranked adventurers, so you get to do all the really difficultaru missions!
- **9715**: Minister Rukususu is so dreamy-weamy. If she stays Minister of the Rhinostery, the number of members will go through the roof.
- **9716**: Hm? How is she dreamy-weamy? How can you not know? It's that fragrance. I'm so head over heels, I can't think straight anymore.
- **9765**: Have you met Professor Koru-Moru? He's the very, um, unique professor in Windurst Walls.
- **9766**: He once retired as the principal of the School of Magic, but due to an incidentaru a couple of years ago, he was reinstated.
- **9814**: Minister Apururu hates it when people call her "Miss Minster Apururu," so everybody leaves off the "Miss".
- **9815**: She's also the youngest of the five ministers, but probably works the hardest at managing her ministry. It's still in the red, though...
- **10054**: You probably don't know who Minister Ajido-Marujido and Miss Apururu's father is, do you?
- **10055**: Huh, your expression says otherwise. Has it become that well-known? I guess that was a silly-billy question to ask a well-connected adventurer like yourself.
- **10061**: We have heard accounts of roguey-wogue Cardians crossing Sarutabaruta. Have you heard or seen anything?
- **10062**: If we don't get confirmation for these sightings, we can't make a report to Heavens Tower. For the momentaru, I have my subordinates looking into it...
- **10075**: Isn'taru it about time for the five ministries to have their meeting?
- **10076**: But with the way things have been lately-wately, I wouldn'taru be surprised if they skip-pipped it. Minister Ajido-Marujido hasn't even returned to the Orastery yet.
- **10086**: I have a distantaru relative, an adventurer by trade, who said he had seen a Tarutaru being held captive by mandragora in a dungeon somewhere.
- **10087**: Could that be the missing Principal of the Aurastery, perhaps? If it is, maybe it would be bestaru just to leave things well alone.

## Events

### Event 65535

#### Metadata

| Field        | Value   |
|--------------|---------|
| Entrypoint   | 0x0000  |
| Data Size    | 1 bytes |
| Instructions | 1       |

```
      00 01 02 03 04 05 06 07  08 09 0A 0B 0C 0D 0E 0F
      -- -- -- -- -- -- -- --  -- -- -- -- -- -- -- --
0000: 00                                                .               
```

#### Opcodes

```
  0: 0x0000 [0x00] END_REQSTACK()
```

### Event 65535.1

#### Metadata

| Field        | Value    |
|--------------|----------|
| Entrypoint   | 0x0001   |
| Data Size    | 16 bytes |
| Instructions | 2        |

```
      00 01 02 03 04 05 06 07  08 09 0A 0B 0C 0D 0E 0F
      -- -- -- -- -- -- -- --  -- -- -- -- -- -- -- --
0000:    66 00 80 F8 FF FF 7F  F8 FF FF 7F 74 6C 6B 30   f..........tlk0
0010: 00                                                .               
```

#### Opcodes

```
  0: 0x0001 [0x66] LOAD_EXT_SCHEDULER_MAIN: Load scheduler "tlk0" with entities [EventEntity, EventEntity], work=40*
  1: 0x0010 [0x00] END_REQSTACK()
```

### Event 65535.2

#### Metadata

| Field        | Value    |
|--------------|----------|
| Entrypoint   | 0x0011   |
| Data Size    | 22 bytes |
| Instructions | 4        |

```
      00 01 02 03 04 05 06 07  08 09 0A 0B 0C 0D 0E 0F
      -- -- -- -- -- -- -- --  -- -- -- -- -- -- -- --
0010:    53 F8 FF FF 7F F8 FF  FF 7F 74 6C 6B 30 5E 69   S........tlk0^i
0020: 64 6C 30 1C 01 80 00                              dl0....         
```

#### Opcodes

```
  0: 0x0011 [0x53] WAIT_SCHEDULER_TASK: Wait for scheduler "tlk0" with entities [EventEntity, EventEntity]
  1: 0x001E [0x5E] EventEntity goes idle (kills current action) (animation: "idl0")
  2: 0x0023 [0x1C] WAIT(30* ticks)
  3: 0x0026 [0x00] END_REQSTACK()
```

### Event 65535.3

#### Metadata

| Field        | Value    |
|--------------|----------|
| Entrypoint   | 0x0027   |
| Data Size    | 16 bytes |
| Instructions | 2        |

```
      00 01 02 03 04 05 06 07  08 09 0A 0B 0C 0D 0E 0F
      -- -- -- -- -- -- -- --  -- -- -- -- -- -- -- --
0020:                      66  02 80 F8 FF FF 7F F8 FF         f........
0030: FF 7F 73 68 6B 30 00                              ..shk0.         
```

#### Opcodes

```
  0: 0x0027 [0x66] LOAD_EXT_SCHEDULER_MAIN: Load scheduler "shk0" with entities [EventEntity, EventEntity], work=41*
  1: 0x0036 [0x00] END_REQSTACK()
```

### Event 65535.4

#### Metadata

| Field        | Value    |
|--------------|----------|
| Entrypoint   | 0x0037   |
| Data Size    | 14 bytes |
| Instructions | 2        |

```
      00 01 02 03 04 05 06 07  08 09 0A 0B 0C 0D 0E 0F
      -- -- -- -- -- -- -- --  -- -- -- -- -- -- -- --
0030:                      53  F8 FF FF 7F F8 FF FF 7F         S........
0040: 73 68 6B 30 00                                    shk0.           
```

#### Opcodes

```
  0: 0x0037 [0x53] WAIT_SCHEDULER_TASK: Wait for scheduler "shk0" with entities [EventEntity, EventEntity]
  1: 0x0044 [0x00] END_REQSTACK()
```

### Event 65535.5

#### Metadata

| Field        | Value    |
|--------------|----------|
| Entrypoint   | 0x0045   |
| Data Size    | 32 bytes |
| Instructions | 4        |

```
      00 01 02 03 04 05 06 07  08 09 0A 0B 0C 0D 0E 0F
      -- -- -- -- -- -- -- --  -- -- -- -- -- -- -- --
0040:                1C 03 80  66 02 80 F8 FF FF 7F F8       ...f.......
0050: FF FF 7F 73 68 6B 30 53  F8 FF FF 7F F8 FF FF 7F  ...shk0S........
0060: 73 68 6B 30 00                                    shk0.           
```

#### Opcodes

```
  0: 0x0045 [0x1C] WAIT(50* ticks)
  1: 0x0048 [0x66] LOAD_EXT_SCHEDULER_MAIN: Load scheduler "shk0" with entities [EventEntity, EventEntity], work=41*
  2: 0x0057 [0x53] WAIT_SCHEDULER_TASK: Wait for scheduler "shk0" with entities [EventEntity, EventEntity]
  3: 0x0064 [0x00] END_REQSTACK()
```

### Event 65535.6

#### Metadata

| Field        | Value    |
|--------------|----------|
| Entrypoint   | 0x0065   |
| Data Size    | 16 bytes |
| Instructions | 2        |

```
      00 01 02 03 04 05 06 07  08 09 0A 0B 0C 0D 0E 0F
      -- -- -- -- -- -- -- --  -- -- -- -- -- -- -- --
0060:                66 00 80  F8 FF FF 7F F8 FF FF 7F       f..........
0070: 77 61 69 30 00                                    wai0.           
```

#### Opcodes

```
  0: 0x0065 [0x66] LOAD_EXT_SCHEDULER_MAIN: Load scheduler "wai0" with entities [EventEntity, EventEntity], work=40*
  1: 0x0074 [0x00] END_REQSTACK()
```

### Event 65535.7

#### Metadata

| Field        | Value    |
|--------------|----------|
| Entrypoint   | 0x0075   |
| Data Size    | 14 bytes |
| Instructions | 2        |

```
      00 01 02 03 04 05 06 07  08 09 0A 0B 0C 0D 0E 0F
      -- -- -- -- -- -- -- --  -- -- -- -- -- -- -- --
0070:                53 F8 FF  FF 7F F8 FF FF 7F 77 61       S........wa
0080: 69 30 00                                          i0.             
```

#### Opcodes

```
  0: 0x0075 [0x53] WAIT_SCHEDULER_TASK: Wait for scheduler "wai0" with entities [EventEntity, EventEntity]
  1: 0x0082 [0x00] END_REQSTACK()
```

### Event 65535.8

#### Metadata

| Field        | Value    |
|--------------|----------|
| Entrypoint   | 0x0083   |
| Data Size    | 16 bytes |
| Instructions | 2        |

```
      00 01 02 03 04 05 06 07  08 09 0A 0B 0C 0D 0E 0F
      -- -- -- -- -- -- -- --  -- -- -- -- -- -- -- --
0080:          66 00 80 F8 FF  FF 7F F8 FF FF 7F 69 72     f..........ir
0090: 6F 30 00                                          o0.             
```

#### Opcodes

```
  0: 0x0083 [0x66] LOAD_EXT_SCHEDULER_MAIN: Load scheduler "iro0" with entities [EventEntity, EventEntity], work=40*
  1: 0x0092 [0x00] END_REQSTACK()
```

### Event 65535.9

#### Metadata

| Field        | Value    |
|--------------|----------|
| Entrypoint   | 0x0093   |
| Data Size    | 14 bytes |
| Instructions | 2        |

```
      00 01 02 03 04 05 06 07  08 09 0A 0B 0C 0D 0E 0F
      -- -- -- -- -- -- -- --  -- -- -- -- -- -- -- --
0090:          53 F8 FF FF 7F  F8 FF FF 7F 69 72 6F 30     S........iro0
00A0: 00                                                .               
```

#### Opcodes

```
  0: 0x0093 [0x53] WAIT_SCHEDULER_TASK: Wait for scheduler "iro0" with entities [EventEntity, EventEntity]
  1: 0x00A0 [0x00] END_REQSTACK()
```

### Event 65535.10

#### Metadata

| Field        | Value    |
|--------------|----------|
| Entrypoint   | 0x00A1   |
| Data Size    | 16 bytes |
| Instructions | 2        |

```
      00 01 02 03 04 05 06 07  08 09 0A 0B 0C 0D 0E 0F
      -- -- -- -- -- -- -- --  -- -- -- -- -- -- -- --
00A0:    66 00 80 F8 FF FF 7F  F8 FF FF 7F 74 68 6B 31   f..........thk1
00B0: 00                                                .               
```

#### Opcodes

```
  0: 0x00A1 [0x66] LOAD_EXT_SCHEDULER_MAIN: Load scheduler "thk1" with entities [EventEntity, EventEntity], work=40*
  1: 0x00B0 [0x00] END_REQSTACK()
```

### Event 65535.11

#### Metadata

| Field        | Value    |
|--------------|----------|
| Entrypoint   | 0x00B1   |
| Data Size    | 14 bytes |
| Instructions | 2        |

```
      00 01 02 03 04 05 06 07  08 09 0A 0B 0C 0D 0E 0F
      -- -- -- -- -- -- -- --  -- -- -- -- -- -- -- --
00B0:    53 F8 FF FF 7F F8 FF  FF 7F 74 68 6B 31 00      S........thk1. 
```

#### Opcodes

```
  0: 0x00B1 [0x53] WAIT_SCHEDULER_TASK: Wait for scheduler "thk1" with entities [EventEntity, EventEntity]
  1: 0x00BE [0x00] END_REQSTACK()
```

### Event 65535.12

#### Metadata

| Field        | Value    |
|--------------|----------|
| Entrypoint   | 0x00BF   |
| Data Size    | 16 bytes |
| Instructions | 2        |

```
      00 01 02 03 04 05 06 07  08 09 0A 0B 0C 0D 0E 0F
      -- -- -- -- -- -- -- --  -- -- -- -- -- -- -- --
00B0:                                               66                 f
00C0: 00 80 F8 FF FF 7F F8 FF  FF 7F 74 68 6B 32 00     ..........thk2. 
```

#### Opcodes

```
  0: 0x00BF [0x66] LOAD_EXT_SCHEDULER_MAIN: Load scheduler "thk2" with entities [EventEntity, EventEntity], work=40*
  1: 0x00CE [0x00] END_REQSTACK()
```

### Event 65535.13

#### Metadata

| Field        | Value    |
|--------------|----------|
| Entrypoint   | 0x00CF   |
| Data Size    | 14 bytes |
| Instructions | 2        |

```
      00 01 02 03 04 05 06 07  08 09 0A 0B 0C 0D 0E 0F
      -- -- -- -- -- -- -- --  -- -- -- -- -- -- -- --
00C0:                                               53                 S
00D0: F8 FF FF 7F F8 FF FF 7F  74 68 6B 32 00           ........thk2.   
```

#### Opcodes

```
  0: 0x00CF [0x53] WAIT_SCHEDULER_TASK: Wait for scheduler "thk2" with entities [EventEntity, EventEntity]
  1: 0x00DC [0x00] END_REQSTACK()
```

### Event 65535.14

#### Metadata

| Field        | Value   |
|--------------|---------|
| Entrypoint   | 0x00DD  |
| Data Size    | 9 bytes |
| Instructions | 3       |

```
      00 01 02 03 04 05 06 07  08 09 0A 0B 0C 0D 0E 0F
      -- -- -- -- -- -- -- --  -- -- -- -- -- -- -- --
00D0:                                         5E 69 64               ^id
00E0: 6C 30 1C 01 80 00                                 l0....          
```

#### Opcodes

```
  0: 0x00DD [0x5E] EventEntity goes idle (kills current action) (animation: "idl0")
  1: 0x00E2 [0x1C] WAIT(30* ticks)
  2: 0x00E5 [0x00] END_REQSTACK()
```

### Event 105

#### Metadata

| Field        | Value    |
|--------------|----------|
| Entrypoint   | 0x00E6   |
| Data Size    | 29 bytes |
| Instructions | 10       |

```
      00 01 02 03 04 05 06 07  08 09 0A 0B 0C 0D 0E 0F
      -- -- -- -- -- -- -- --  -- -- -- -- -- -- -- --
00E0:                   1E F0  FF FF 7F 6F 70 29 08 0D        .....op)..
00F0: E0 0E 01 01 1D 04 80 23  29 08 0D E0 0E 01 02 20  .......#)...... 
0100: 00 21 00                                          .!.             
```

#### Opcodes

```
  0: 0x00E6 [0x1E] EventEntity looks at LocalPlayer and starts talking
  1: 0x00EB [0x6F] WAIT_FRAME_DELAY: Yield until WaitTime reaches zero
  2: 0x00EC [0x70] WAIT_ENTITY_RENDER_FLAG: Wait while EventEntity->Render.Flags3 bit 2 is set (cancel turn if not)
  3: 0x00ED [0x29] REQ_SET_WAIT(priority=0x08, entity_id=Panna-Donna (ID: 17752077/0x010EE00D), tag_num=0x01)
  4: 0x00F4 [0x1D] PRINT_EVENT_MESSAGE(message_id=7510*)
    → "Huh? You have some kind of business with us, the North Winds? Mokyokyo is our leader-weader, so speak to her first."
  5: 0x00F7 [0x23] WAIT_FOR_DIALOG_INTERACTION
  6: 0x00F8 [0x29] REQ_SET_WAIT(priority=0x08, entity_id=Panna-Donna (ID: 17752077/0x010EE00D), tag_num=0x02)
  7: 0x00FF [0x20] SET_CLI_EVENT_UC_FLAG: Unlock player control
  8: 0x0101 [0x21] END_EVENT
  9: 0x0102 [0x00] END_REQSTACK()
```

### Event 106

#### Metadata

| Field        | Value    |
|--------------|----------|
| Entrypoint   | 0x0103   |
| Data Size    | 29 bytes |
| Instructions | 10       |

```
      00 01 02 03 04 05 06 07  08 09 0A 0B 0C 0D 0E 0F
      -- -- -- -- -- -- -- --  -- -- -- -- -- -- -- --
0100:          1E F0 FF FF 7F  6F 70 29 08 0D E0 0E 01     .....op).....
0110: 01 1D 05 80 23 29 08 0D  E0 0E 01 02 20 00 21 00  ....#)...... .!.
```

#### Opcodes

```
  0: 0x0103 [0x1E] EventEntity looks at LocalPlayer and starts talking
  1: 0x0108 [0x6F] WAIT_FRAME_DELAY: Yield until WaitTime reaches zero
  2: 0x0109 [0x70] WAIT_ENTITY_RENDER_FLAG: Wait while EventEntity->Render.Flags3 bit 2 is set (cancel turn if not)
  3: 0x010A [0x29] REQ_SET_WAIT(priority=0x08, entity_id=Panna-Donna (ID: 17752077/0x010EE00D), tag_num=0x01)
  4: 0x0111 [0x1D] PRINT_EVENT_MESSAGE(message_id=7511*)
    → "Oh, a foreigner, huh? If you're looking for the [San d'Orian/Bastokan] Consulate, then head [yonder southeast/south]... It's in [Windurst Woods/Port Windurst]. Ta-taru."
  5: 0x0114 [0x23] WAIT_FOR_DIALOG_INTERACTION
  6: 0x0115 [0x29] REQ_SET_WAIT(priority=0x08, entity_id=Panna-Donna (ID: 17752077/0x010EE00D), tag_num=0x02)
  7: 0x011C [0x20] SET_CLI_EVENT_UC_FLAG: Unlock player control
  8: 0x011E [0x21] END_EVENT
  9: 0x011F [0x00] END_REQSTACK()
```

### Event 113

#### Metadata

| Field        | Value    |
|--------------|----------|
| Entrypoint   | 0x0120   |
| Data Size    | 33 bytes |
| Instructions | 12       |

```
      00 01 02 03 04 05 06 07  08 09 0A 0B 0C 0D 0E 0F
      -- -- -- -- -- -- -- --  -- -- -- -- -- -- -- --
0120: 1E F0 FF FF 7F 6F 70 29  08 0D E0 0E 01 01 1D 06  .....op)........
0130: 80 23 1D 07 80 23 29 08  0D E0 0E 01 02 20 00 21  .#...#)...... .!
0140: 00                                                .               
```

#### Opcodes

```
  0: 0x0120 [0x1E] EventEntity looks at LocalPlayer and starts talking
  1: 0x0125 [0x6F] WAIT_FRAME_DELAY: Yield until WaitTime reaches zero
  2: 0x0126 [0x70] WAIT_ENTITY_RENDER_FLAG: Wait while EventEntity->Render.Flags3 bit 2 is set (cancel turn if not)
  3: 0x0127 [0x29] REQ_SET_WAIT(priority=0x08, entity_id=Panna-Donna (ID: 17752077/0x010EE00D), tag_num=0x01)
  4: 0x012E [0x1D] PRINT_EVENT_MESSAGE(message_id=7521*)
    → "If there's something you don't understand, just ask Jack of Hearts for a hand. You can find him in the plaza in fronty-wonty of the Optistery."
  5: 0x0131 [0x23] WAIT_FOR_DIALOG_INTERACTION
  6: 0x0132 [0x1D] PRINT_EVENT_MESSAGE(message_id=7522*)
    → "And even then, if you still don't understand something, pluck up the courage and ask your fellow adventurers for advice."
  7: 0x0135 [0x23] WAIT_FOR_DIALOG_INTERACTION
  8: 0x0136 [0x29] REQ_SET_WAIT(priority=0x08, entity_id=Panna-Donna (ID: 17752077/0x010EE00D), tag_num=0x02)
  9: 0x013D [0x20] SET_CLI_EVENT_UC_FLAG: Unlock player control
 10: 0x013F [0x21] END_EVENT
 11: 0x0140 [0x00] END_REQSTACK()
```

### Event 116

#### Metadata

| Field        | Value    |
|--------------|----------|
| Entrypoint   | 0x0141   |
| Data Size    | 33 bytes |
| Instructions | 12       |

```
      00 01 02 03 04 05 06 07  08 09 0A 0B 0C 0D 0E 0F
      -- -- -- -- -- -- -- --  -- -- -- -- -- -- -- --
0140:    1E F0 FF FF 7F 6F 70  29 08 0D E0 0E 01 01 1D   .....op).......
0150: 08 80 23 1D 09 80 23 29  08 0D E0 0E 01 02 20 00  ..#...#)...... .
0160: 21 00                                             !.              
```

#### Opcodes

```
  0: 0x0141 [0x1E] EventEntity looks at LocalPlayer and starts talking
  1: 0x0146 [0x6F] WAIT_FRAME_DELAY: Yield until WaitTime reaches zero
  2: 0x0147 [0x70] WAIT_ENTITY_RENDER_FLAG: Wait while EventEntity->Render.Flags3 bit 2 is set (cancel turn if not)
  3: 0x0148 [0x29] REQ_SET_WAIT(priority=0x08, entity_id=Panna-Donna (ID: 17752077/0x010EE00D), tag_num=0x01)
  4: 0x014F [0x1D] PRINT_EVENT_MESSAGE(message_id=7526*)
    → "The four gatehouses are competing over who can get the most new recruits. I wonder how it's going."
  5: 0x0152 [0x23] WAIT_FOR_DIALOG_INTERACTION
  6: 0x0153 [0x1D] PRINT_EVENT_MESSAGE(message_id=7527*)
    → "I bet we North Winds are winning!t"
  7: 0x0156 [0x23] WAIT_FOR_DIALOG_INTERACTION
  8: 0x0157 [0x29] REQ_SET_WAIT(priority=0x08, entity_id=Panna-Donna (ID: 17752077/0x010EE00D), tag_num=0x02)
  9: 0x015E [0x20] SET_CLI_EVENT_UC_FLAG: Unlock player control
 10: 0x0160 [0x21] END_EVENT
 11: 0x0161 [0x00] END_REQSTACK()
```

### Event 118

#### Metadata

| Field        | Value   |
|--------------|---------|
| Entrypoint   | 0x0162  |
| Data Size    | 1 bytes |
| Instructions | 1       |

```
      00 01 02 03 04 05 06 07  08 09 0A 0B 0C 0D 0E 0F
      -- -- -- -- -- -- -- --  -- -- -- -- -- -- -- --
0160:       00                                            .             
```

#### Opcodes

```
  0: 0x0162 [0x00] END_REQSTACK()
```

### Event 119

#### Metadata

| Field        | Value   |
|--------------|---------|
| Entrypoint   | 0x0163  |
| Data Size    | 1 bytes |
| Instructions | 1       |

```
      00 01 02 03 04 05 06 07  08 09 0A 0B 0C 0D 0E 0F
      -- -- -- -- -- -- -- --  -- -- -- -- -- -- -- --
0160:          00                                          .            
```

#### Opcodes

```
  0: 0x0163 [0x00] END_REQSTACK()
```

### Event 120

#### Metadata

| Field        | Value   |
|--------------|---------|
| Entrypoint   | 0x0164  |
| Data Size    | 1 bytes |
| Instructions | 1       |

```
      00 01 02 03 04 05 06 07  08 09 0A 0B 0C 0D 0E 0F
      -- -- -- -- -- -- -- --  -- -- -- -- -- -- -- --
0160:             00                                        .           
```

#### Opcodes

```
  0: 0x0164 [0x00] END_REQSTACK()
```

### Event 65535.15

#### Metadata

| Field        | Value    |
|--------------|----------|
| Entrypoint   | 0x0165   |
| Data Size    | 19 bytes |
| Instructions | 5        |

```
      00 01 02 03 04 05 06 07  08 09 0A 0B 0C 0D 0E 0F
      -- -- -- -- -- -- -- --  -- -- -- -- -- -- -- --
0160:                29 08 0D  E0 0E 01 01 1D 0A 80 23       ).........#
0170: 29 08 0D E0 0E 01 02 00                           ).......        
```

#### Opcodes

```
  0: 0x0165 [0x29] REQ_SET_WAIT(priority=0x08, entity_id=Panna-Donna (ID: 17752077/0x010EE00D), tag_num=0x01)
  1: 0x016C [0x1D] PRINT_EVENT_MESSAGE(message_id=7537*)
    → "At first you might only receive boring missions, but even those have their good side, allowing you to meet with people you would not normally be able to, and so on."
  2: 0x016F [0x23] WAIT_FOR_DIALOG_INTERACTION
  3: 0x0170 [0x29] REQ_SET_WAIT(priority=0x08, entity_id=Panna-Donna (ID: 17752077/0x010EE00D), tag_num=0x02)
  4: 0x0177 [0x00] END_REQSTACK()
```

### Event 65535.16

#### Metadata

| Field        | Value    |
|--------------|----------|
| Entrypoint   | 0x0178   |
| Data Size    | 12 bytes |
| Instructions | 4        |

```
      00 01 02 03 04 05 06 07  08 09 0A 0B 0C 0D 0E 0F
      -- -- -- -- -- -- -- --  -- -- -- -- -- -- -- --
0170:                          1F 00 0B 80 0C 80 0D 80          ........
0180: 1F 01 6F 00                                       ..o.            
```

#### Opcodes

```
  0: 0x0178 [0x1F] MOVE_ENTITY: EventEntity moves to X=-56.054*, Z=228.048*, Y=-5.001*
  1: 0x0180 [0x1F] MOVE_ENTITY: Update entity position (mode=1)
  2: 0x0182 [0x6F] WAIT_FRAME_DELAY: Yield until WaitTime reaches zero
  3: 0x0183 [0x00] END_REQSTACK()
```

### Event 65535.17

#### Metadata

| Field        | Value    |
|--------------|----------|
| Entrypoint   | 0x0184   |
| Data Size    | 17 bytes |
| Instructions | 7        |

```
      00 01 02 03 04 05 06 07  08 09 0A 0B 0C 0D 0E 0F
      -- -- -- -- -- -- -- --  -- -- -- -- -- -- -- --
0180:             1F 00 0E 80  0F 80 10 80 1F 01 6F 39      ..........o9
0190: 11 80 6F 70 00                                    ..op.           
```

#### Opcodes

```
  0: 0x0184 [0x1F] MOVE_ENTITY: EventEntity moves to X=-57.216*, Z=228.325*, Y=-4.999*
  1: 0x018C [0x1F] MOVE_ENTITY: Update entity position (mode=1)
  2: 0x018E [0x6F] WAIT_FRAME_DELAY: Yield until WaitTime reaches zero
  3: 0x018F [0x39] SET_ENTITY_DIRECTION(direction=3.8°*)
  4: 0x0192 [0x6F] WAIT_FRAME_DELAY: Yield until WaitTime reaches zero
  5: 0x0193 [0x70] WAIT_ENTITY_RENDER_FLAG: Wait while EventEntity->Render.Flags3 bit 2 is set (cancel turn if not)
  6: 0x0194 [0x00] END_REQSTACK()
```

### Event 65535.18

#### Metadata

| Field        | Value    |
|--------------|----------|
| Entrypoint   | 0x0195   |
| Data Size    | 19 bytes |
| Instructions | 5        |

```
      00 01 02 03 04 05 06 07  08 09 0A 0B 0C 0D 0E 0F
      -- -- -- -- -- -- -- --  -- -- -- -- -- -- -- --
0190:                29 08 0D  E0 0E 01 06 1D 12 80 23       ).........#
01A0: 29 08 0D E0 0E 01 07 00                           ).......        
```

#### Opcodes

```
  0: 0x0195 [0x29] REQ_SET_WAIT(priority=0x08, entity_id=Panna-Donna (ID: 17752077/0x010EE00D), tag_num=0x06)
  1: 0x019C [0x1D] PRINT_EVENT_MESSAGE(message_id=7543*)
    → "That's the spirit-wirit! Looks like it's my cue... I have a mission just right for you, so listen up!"
  2: 0x019F [0x23] WAIT_FOR_DIALOG_INTERACTION
  3: 0x01A0 [0x29] REQ_SET_WAIT(priority=0x08, entity_id=Panna-Donna (ID: 17752077/0x010EE00D), tag_num=0x07)
  4: 0x01A7 [0x00] END_REQSTACK()
```

### Event 65535.19

#### Metadata

| Field        | Value    |
|--------------|----------|
| Entrypoint   | 0x01A8   |
| Data Size    | 23 bytes |
| Instructions | 7        |

```
      00 01 02 03 04 05 06 07  08 09 0A 0B 0C 0D 0E 0F
      -- -- -- -- -- -- -- --  -- -- -- -- -- -- -- --
01A0:                          29 08 0D E0 0E 01 08 1D          ).......
01B0: 13 80 23 1D 14 80 23 29  08 0D E0 0E 01 09 00     ..#...#)....... 
```

#### Opcodes

```
  0: 0x01A8 [0x29] REQ_SET_WAIT(priority=0x08, entity_id=Panna-Donna (ID: 17752077/0x010EE00D), tag_num=0x08)
  1: 0x01AF [0x1D] PRINT_EVENT_MESSAGE(message_id=7544*)
    → "You know the Horutoto Ruins out in Sarutabaruta, don't you? Well, they're about to conduct some kind of magic experiment there."
  2: 0x01B2 [0x23] WAIT_FOR_DIALOG_INTERACTION
  3: 0x01B3 [0x1D] PRINT_EVENT_MESSAGE(message_id=7545*)
    → "The Orastery, one of the five ministries of Windurst, is urgently requesting the dispatch of an adventurer to help them out."
  4: 0x01B6 [0x23] WAIT_FOR_DIALOG_INTERACTION
  5: 0x01B7 [0x29] REQ_SET_WAIT(priority=0x08, entity_id=Panna-Donna (ID: 17752077/0x010EE00D), tag_num=0x09)
  6: 0x01BE [0x00] END_REQSTACK()
```

### Event 65535.20

#### Metadata

| Field        | Value    |
|--------------|----------|
| Entrypoint   | 0x01BF   |
| Data Size    | 23 bytes |
| Instructions | 7        |

```
      00 01 02 03 04 05 06 07  08 09 0A 0B 0C 0D 0E 0F
      -- -- -- -- -- -- -- --  -- -- -- -- -- -- -- --
01B0:                                               29                 )
01C0: 08 0D E0 0E 01 01 1D 15  80 23 1D 16 80 23 29 08  .........#...#).
01D0: 0D E0 0E 01 02 00                                 ......          
```

#### Opcodes

```
  0: 0x01BF [0x29] REQ_SET_WAIT(priority=0x08, entity_id=Panna-Donna (ID: 17752077/0x010EE00D), tag_num=0x01)
  1: 0x01C6 [0x1D] PRINT_EVENT_MESSAGE(message_id=7546*)
    → "Ask the Orastery's minister at their Mage Academy for the details."
  2: 0x01C9 [0x23] WAIT_FOR_DIALOG_INTERACTION
  3: 0x01CA [0x1D] PRINT_EVENT_MESSAGE(message_id=7547*)
    → "The Orastery's Mage Academy is a big building in Port Windurst, far to the south of here. Well, good luck with your first tasky-wasky!"
  4: 0x01CD [0x23] WAIT_FOR_DIALOG_INTERACTION
  5: 0x01CE [0x29] REQ_SET_WAIT(priority=0x08, entity_id=Panna-Donna (ID: 17752077/0x010EE00D), tag_num=0x02)
  6: 0x01D5 [0x00] END_REQSTACK()
```

### Event 65535.21

#### Metadata

| Field        | Value    |
|--------------|----------|
| Entrypoint   | 0x01D6   |
| Data Size    | 23 bytes |
| Instructions | 7        |

```
      00 01 02 03 04 05 06 07  08 09 0A 0B 0C 0D 0E 0F
      -- -- -- -- -- -- -- --  -- -- -- -- -- -- -- --
01D0:                   29 08  0D E0 0E 01 01 1D 17 80        ).........
01E0: 23 1D 18 80 23 29 08 0D  E0 0E 01 02 00           #...#).......   
```

#### Opcodes

```
  0: 0x01D6 [0x29] REQ_SET_WAIT(priority=0x08, entity_id=Panna-Donna (ID: 17752077/0x010EE00D), tag_num=0x01)
  1: 0x01DD [0x1D] PRINT_EVENT_MESSAGE(message_id=7552*)
    → "Well then, hurry on over to the Orastery. It sounds like the Orastery is going to conduct some kind of magic experiment in the magic towers."
  2: 0x01E0 [0x23] WAIT_FOR_DIALOG_INTERACTION
  3: 0x01E1 [0x1D] PRINT_EVENT_MESSAGE(message_id=7553*)
    → "The Minister of the Orastery will explain the details."
  4: 0x01E4 [0x23] WAIT_FOR_DIALOG_INTERACTION
  5: 0x01E5 [0x29] REQ_SET_WAIT(priority=0x08, entity_id=Panna-Donna (ID: 17752077/0x010EE00D), tag_num=0x02)
  6: 0x01EC [0x00] END_REQSTACK()
```

### Event 122

#### Metadata

| Field        | Value    |
|--------------|----------|
| Entrypoint   | 0x01ED   |
| Data Size    | 46 bytes |
| Instructions | 14       |

```
      00 01 02 03 04 05 06 07  08 09 0A 0B 0C 0D 0E 0F
      -- -- -- -- -- -- -- --  -- -- -- -- -- -- -- --
01E0:                                         1E F0 FF               ...
01F0: FF 7F 6F 70 29 08 0D E0  0E 01 01 1D 19 80 23 29  ..op).........#)
0200: 08 0D E0 0E 01 02 27 08  0D E0 0E 01 05 1D 1A 80  ......'.........
0210: 23 2A 08 0D E0 0E 01 20  00 21 00                 #*..... .!.     
```

#### Opcodes

```
  0: 0x01ED [0x1E] EventEntity looks at LocalPlayer and starts talking
  1: 0x01F2 [0x6F] WAIT_FRAME_DELAY: Yield until WaitTime reaches zero
  2: 0x01F3 [0x70] WAIT_ENTITY_RENDER_FLAG: Wait while EventEntity->Render.Flags3 bit 2 is set (cancel turn if not)
  3: 0x01F4 [0x29] REQ_SET_WAIT(priority=0x08, entity_id=Panna-Donna (ID: 17752077/0x010EE00D), tag_num=0x01)
  4: 0x01FB [0x1D] PRINT_EVENT_MESSAGE(message_id=7555*)
    → "Hurry on over to the Orastery. It's the big building in Port Windurst, far to the south of here."
  5: 0x01FE [0x23] WAIT_FOR_DIALOG_INTERACTION
  6: 0x01FF [0x29] REQ_SET_WAIT(priority=0x08, entity_id=Panna-Donna (ID: 17752077/0x010EE00D), tag_num=0x02)
  7: 0x0206 [0x27] REQ_SET(priority=0x08, entity_id=Panna-Donna (ID: 17752077/0x010EE00D), tag_num=0x05)
  8: 0x020D [0x1D] PRINT_EVENT_MESSAGE(message_id=7556*)
    → "Lucky you. Sounds like an exciting mission with that magic experiment going on. But, oh, I forgot! The Minister of the Orastery is THAT guy..."
  9: 0x0210 [0x23] WAIT_FOR_DIALOG_INTERACTION
 10: 0x0211 [0x2A] GET_REQ_LEVEL(level=8, entity_id=Panna-Donna (ID: 17752077/0x010EE00D))
 11: 0x0217 [0x20] SET_CLI_EVENT_UC_FLAG: Unlock player control
 12: 0x0219 [0x21] END_EVENT
 13: 0x021A [0x00] END_REQSTACK()
```

### Event 127

#### Metadata

| Field        | Value    |
|--------------|----------|
| Entrypoint   | 0x021B   |
| Data Size    | 33 bytes |
| Instructions | 12       |

```
      00 01 02 03 04 05 06 07  08 09 0A 0B 0C 0D 0E 0F
      -- -- -- -- -- -- -- --  -- -- -- -- -- -- -- --
0210:                                   1E F0 FF FF 7F             .....
0220: 6F 70 29 08 0D E0 0E 01  01 1D 1B 80 23 1D 1C 80  op).........#...
0230: 23 29 08 0D E0 0E 01 02  20 00 21 00              #)...... .!.    
```

#### Opcodes

```
  0: 0x021B [0x1E] EventEntity looks at LocalPlayer and starts talking
  1: 0x0220 [0x6F] WAIT_FRAME_DELAY: Yield until WaitTime reaches zero
  2: 0x0221 [0x70] WAIT_ENTITY_RENDER_FLAG: Wait while EventEntity->Render.Flags3 bit 2 is set (cancel turn if not)
  3: 0x0222 [0x29] REQ_SET_WAIT(priority=0x08, entity_id=Panna-Donna (ID: 17752077/0x010EE00D), tag_num=0x01)
  4: 0x0229 [0x1D] PRINT_EVENT_MESSAGE(message_id=7563*)
    → "It might not feel like you're achieving much at firsty-wirsty, but your efforts are contributing to the peace of Windurst."
  5: 0x022C [0x23] WAIT_FOR_DIALOG_INTERACTION
  6: 0x022D [0x1D] PRINT_EVENT_MESSAGE(message_id=7564*)
    → "I'm sure my telling you that suddenly enthused you, didn't it?"
  7: 0x0230 [0x23] WAIT_FOR_DIALOG_INTERACTION
  8: 0x0231 [0x29] REQ_SET_WAIT(priority=0x08, entity_id=Panna-Donna (ID: 17752077/0x010EE00D), tag_num=0x02)
  9: 0x0238 [0x20] SET_CLI_EVENT_UC_FLAG: Unlock player control
 10: 0x023A [0x21] END_EVENT
 11: 0x023B [0x00] END_REQSTACK()
```

### Event 133

#### Metadata

| Field        | Value    |
|--------------|----------|
| Entrypoint   | 0x023C   |
| Data Size    | 33 bytes |
| Instructions | 12       |

```
      00 01 02 03 04 05 06 07  08 09 0A 0B 0C 0D 0E 0F
      -- -- -- -- -- -- -- --  -- -- -- -- -- -- -- --
0230:                                      1E F0 FF FF              ....
0240: 7F 6F 70 29 08 0D E0 0E  01 01 1D 1D 80 23 1D 1E  .op).........#..
0250: 80 23 29 08 0D E0 0E 01  02 20 00 21 00           .#)...... .!.   
```

#### Opcodes

```
  0: 0x023C [0x1E] EventEntity looks at LocalPlayer and starts talking
  1: 0x0241 [0x6F] WAIT_FRAME_DELAY: Yield until WaitTime reaches zero
  2: 0x0242 [0x70] WAIT_ENTITY_RENDER_FLAG: Wait while EventEntity->Render.Flags3 bit 2 is set (cancel turn if not)
  3: 0x0243 [0x29] REQ_SET_WAIT(priority=0x08, entity_id=Panna-Donna (ID: 17752077/0x010EE00D), tag_num=0x01)
  4: 0x024A [0x1D] PRINT_EVENT_MESSAGE(message_id=7579*)
    → "Cardians are our automaton guards. They were originally created twenty years ago by Zonpa-Zippa, the Minister of the Manustery."
  5: 0x024D [0x23] WAIT_FOR_DIALOG_INTERACTION
  6: 0x024E [0x1D] PRINT_EVENT_MESSAGE(message_id=7580*)
    → "It's hard enough to collect the materials to make them, but it takes even more effort to train them. Occasionally a few go bonkers-wonkers and run away...or that's what the guys from the Manustery say."
  7: 0x0251 [0x23] WAIT_FOR_DIALOG_INTERACTION
  8: 0x0252 [0x29] REQ_SET_WAIT(priority=0x08, entity_id=Panna-Donna (ID: 17752077/0x010EE00D), tag_num=0x02)
  9: 0x0259 [0x20] SET_CLI_EVENT_UC_FLAG: Unlock player control
 10: 0x025B [0x21] END_EVENT
 11: 0x025C [0x00] END_REQSTACK()
```

### Event 137

#### Metadata

| Field        | Value    |
|--------------|----------|
| Entrypoint   | 0x025D   |
| Data Size    | 33 bytes |
| Instructions | 12       |

```
      00 01 02 03 04 05 06 07  08 09 0A 0B 0C 0D 0E 0F
      -- -- -- -- -- -- -- --  -- -- -- -- -- -- -- --
0250:                                         1E F0 FF               ...
0260: FF 7F 6F 70 29 08 0D E0  0E 01 01 1D 1F 80 23 1D  ..op).........#.
0270: 20 80 23 29 08 0D E0 0E  01 02 20 00 21 00         .#)...... .!.  
```

#### Opcodes

```
  0: 0x025D [0x1E] EventEntity looks at LocalPlayer and starts talking
  1: 0x0262 [0x6F] WAIT_FRAME_DELAY: Yield until WaitTime reaches zero
  2: 0x0263 [0x70] WAIT_ENTITY_RENDER_FLAG: Wait while EventEntity->Render.Flags3 bit 2 is set (cancel turn if not)
  3: 0x0264 [0x29] REQ_SET_WAIT(priority=0x08, entity_id=Panna-Donna (ID: 17752077/0x010EE00D), tag_num=0x01)
  4: 0x026B [0x1D] PRINT_EVENT_MESSAGE(message_id=7595*)
    → "I know we shouldn't ask this, but... Why do we have to provide the Yagudo with all this stuff anyway?"
  5: 0x026E [0x23] WAIT_FOR_DIALOG_INTERACTION
  6: 0x026F [0x1D] PRINT_EVENT_MESSAGE(message_id=7596*)
    → "The beastman hordes were utterly defeated by our allied forces in the war twenty years ago, weren't they? So what's the dealy-wealy?"
  7: 0x0272 [0x23] WAIT_FOR_DIALOG_INTERACTION
  8: 0x0273 [0x29] REQ_SET_WAIT(priority=0x08, entity_id=Panna-Donna (ID: 17752077/0x010EE00D), tag_num=0x02)
  9: 0x027A [0x20] SET_CLI_EVENT_UC_FLAG: Unlock player control
 10: 0x027C [0x21] END_EVENT
 11: 0x027D [0x00] END_REQSTACK()
```

### Event 152

#### Metadata

| Field        | Value    |
|--------------|----------|
| Entrypoint   | 0x027E   |
| Data Size    | 47 bytes |
| Instructions | 14       |

```
      00 01 02 03 04 05 06 07  08 09 0A 0B 0C 0D 0E 0F
      -- -- -- -- -- -- -- --  -- -- -- -- -- -- -- --
0270:                                            1E F0                ..
0280: FF FF 7F 6F 70 29 08 0D  E0 0E 01 03 1D 21 80 23  ...op).......!.#
0290: 29 08 0D E0 0E 01 04 29  08 0D E0 0E 01 01 1D 22  )......)......."
02A0: 80 23 29 08 0D E0 0E 01  02 20 00 21 00           .#)...... .!.   
```

#### Opcodes

```
  0: 0x027E [0x1E] EventEntity looks at LocalPlayer and starts talking
  1: 0x0283 [0x6F] WAIT_FRAME_DELAY: Yield until WaitTime reaches zero
  2: 0x0284 [0x70] WAIT_ENTITY_RENDER_FLAG: Wait while EventEntity->Render.Flags3 bit 2 is set (cancel turn if not)
  3: 0x0285 [0x29] REQ_SET_WAIT(priority=0x08, entity_id=Panna-Donna (ID: 17752077/0x010EE00D), tag_num=0x03)
  4: 0x028C [0x1D] PRINT_EVENT_MESSAGE(message_id=7641*)
    → "Whoa! You're alive? Are you sure you're not a ghosty-whosty?"
  5: 0x028F [0x23] WAIT_FOR_DIALOG_INTERACTION
  6: 0x0290 [0x29] REQ_SET_WAIT(priority=0x08, entity_id=Panna-Donna (ID: 17752077/0x010EE00D), tag_num=0x04)
  7: 0x0297 [0x29] REQ_SET_WAIT(priority=0x08, entity_id=Panna-Donna (ID: 17752077/0x010EE00D), tag_num=0x01)
  8: 0x029E [0x1D] PRINT_EVENT_MESSAGE(message_id=7642*)
    → "Giddeus really was a scary-wary place, right? Anyway, I'm glad you made it back safely."
  9: 0x02A1 [0x23] WAIT_FOR_DIALOG_INTERACTION
 10: 0x02A2 [0x29] REQ_SET_WAIT(priority=0x08, entity_id=Panna-Donna (ID: 17752077/0x010EE00D), tag_num=0x02)
 11: 0x02A9 [0x20] SET_CLI_EVENT_UC_FLAG: Unlock player control
 12: 0x02AB [0x21] END_EVENT
 13: 0x02AC [0x00] END_REQSTACK()
```

### Event 158

#### Metadata

| Field        | Value    |
|--------------|----------|
| Entrypoint   | 0x02AD   |
| Data Size    | 33 bytes |
| Instructions | 12       |

```
      00 01 02 03 04 05 06 07  08 09 0A 0B 0C 0D 0E 0F
      -- -- -- -- -- -- -- --  -- -- -- -- -- -- -- --
02A0:                                         1E F0 FF               ...
02B0: FF 7F 6F 70 29 08 0D E0  0E 01 01 1D 23 80 23 1D  ..op).......#.#.
02C0: 24 80 23 29 08 0D E0 0E  01 02 20 00 21 00        $.#)...... .!.  
```

#### Opcodes

```
  0: 0x02AD [0x1E] EventEntity looks at LocalPlayer and starts talking
  1: 0x02B2 [0x6F] WAIT_FRAME_DELAY: Yield until WaitTime reaches zero
  2: 0x02B3 [0x70] WAIT_ENTITY_RENDER_FLAG: Wait while EventEntity->Render.Flags3 bit 2 is set (cancel turn if not)
  3: 0x02B4 [0x29] REQ_SET_WAIT(priority=0x08, entity_id=Panna-Donna (ID: 17752077/0x010EE00D), tag_num=0x01)
  4: 0x02BB [0x1D] PRINT_EVENT_MESSAGE(message_id=7656*)
    → "I don't read at all, so I have no interest in the library."
  5: 0x02BE [0x23] WAIT_FOR_DIALOG_INTERACTION
  6: 0x02BF [0x1D] PRINT_EVENT_MESSAGE(message_id=7657*)
    → "Reading books just isn't in vogue these days. It has to have the impact and excitement of a wandering minstrel's song or a street performance to grab the attention of people today."
  7: 0x02C2 [0x23] WAIT_FOR_DIALOG_INTERACTION
  8: 0x02C3 [0x29] REQ_SET_WAIT(priority=0x08, entity_id=Panna-Donna (ID: 17752077/0x010EE00D), tag_num=0x02)
  9: 0x02CA [0x20] SET_CLI_EVENT_UC_FLAG: Unlock player control
 10: 0x02CC [0x21] END_EVENT
 11: 0x02CD [0x00] END_REQSTACK()
```

### Event 179

#### Metadata

| Field        | Value    |
|--------------|----------|
| Entrypoint   | 0x02CE   |
| Data Size    | 47 bytes |
| Instructions | 14       |

```
      00 01 02 03 04 05 06 07  08 09 0A 0B 0C 0D 0E 0F
      -- -- -- -- -- -- -- --  -- -- -- -- -- -- -- --
02C0:                                            1E F0                ..
02D0: FF FF 7F 6F 70 29 08 0D  E0 0E 01 01 1D 25 80 23  ...op).......%.#
02E0: 29 08 0D E0 0E 01 0E 29  08 0D E0 0E 01 08 1D 26  )......).......&
02F0: 80 23 29 08 0D E0 0E 01  09 20 00 21 00           .#)...... .!.   
```

#### Opcodes

```
  0: 0x02CE [0x1E] EventEntity looks at LocalPlayer and starts talking
  1: 0x02D3 [0x6F] WAIT_FRAME_DELAY: Yield until WaitTime reaches zero
  2: 0x02D4 [0x70] WAIT_ENTITY_RENDER_FLAG: Wait while EventEntity->Render.Flags3 bit 2 is set (cancel turn if not)
  3: 0x02D5 [0x29] REQ_SET_WAIT(priority=0x08, entity_id=Panna-Donna (ID: 17752077/0x010EE00D), tag_num=0x01)
  4: 0x02DC [0x1D] PRINT_EVENT_MESSAGE(message_id=7723*)
    → "That School of Magic is full of cheeky little genius brats. They are constantly poking their noses into adult business, so it should be interesting to see what kind of adults they become themselves."
  5: 0x02DF [0x23] WAIT_FOR_DIALOG_INTERACTION
  6: 0x02E0 [0x29] REQ_SET_WAIT(priority=0x08, entity_id=Panna-Donna (ID: 17752077/0x010EE00D), tag_num=0x0E)
  7: 0x02E7 [0x29] REQ_SET_WAIT(priority=0x08, entity_id=Panna-Donna (ID: 17752077/0x010EE00D), tag_num=0x08)
  8: 0x02EE [0x1D] PRINT_EVENT_MESSAGE(message_id=7724*)
    → "You got it! I abhor children. I don't even want to believe I was once one myself."
  9: 0x02F1 [0x23] WAIT_FOR_DIALOG_INTERACTION
 10: 0x02F2 [0x29] REQ_SET_WAIT(priority=0x08, entity_id=Panna-Donna (ID: 17752077/0x010EE00D), tag_num=0x09)
 11: 0x02F9 [0x20] SET_CLI_EVENT_UC_FLAG: Unlock player control
 12: 0x02FB [0x21] END_EVENT
 13: 0x02FC [0x00] END_REQSTACK()
```

### Event 212

#### Metadata

| Field        | Value    |
|--------------|----------|
| Entrypoint   | 0x02FD   |
| Data Size    | 47 bytes |
| Instructions | 14       |

```
      00 01 02 03 04 05 06 07  08 09 0A 0B 0C 0D 0E 0F
      -- -- -- -- -- -- -- --  -- -- -- -- -- -- -- --
02F0:                                         1E F0 FF               ...
0300: FF 7F 6F 70 29 08 0D E0  0E 01 08 1D 27 80 23 29  ..op).......'.#)
0310: 08 0D E0 0E 01 09 29 08  0D E0 0E 01 01 1D 28 80  ......).......(.
0320: 23 29 08 0D E0 0E 01 02  20 00 21 00              #)...... .!.    
```

#### Opcodes

```
  0: 0x02FD [0x1E] EventEntity looks at LocalPlayer and starts talking
  1: 0x0302 [0x6F] WAIT_FRAME_DELAY: Yield until WaitTime reaches zero
  2: 0x0303 [0x70] WAIT_ENTITY_RENDER_FLAG: Wait while EventEntity->Render.Flags3 bit 2 is set (cancel turn if not)
  3: 0x0304 [0x29] REQ_SET_WAIT(priority=0x08, entity_id=Panna-Donna (ID: 17752077/0x010EE00D), tag_num=0x08)
  4: 0x030B [0x1D] PRINT_EVENT_MESSAGE(message_id=7796*)
    → "I heard about the mission. It sure sounds serious."
  5: 0x030E [0x23] WAIT_FOR_DIALOG_INTERACTION
  6: 0x030F [0x29] REQ_SET_WAIT(priority=0x08, entity_id=Panna-Donna (ID: 17752077/0x010EE00D), tag_num=0x09)
  7: 0x0316 [0x29] REQ_SET_WAIT(priority=0x08, entity_id=Panna-Donna (ID: 17752077/0x010EE00D), tag_num=0x01)
  8: 0x031D [0x1D] PRINT_EVENT_MESSAGE(message_id=7797*)
    → "A`h! Boy, am I gladdy-waddy I'm just a simple guard. I'm not cut out for such responsible missions."
  9: 0x0320 [0x23] WAIT_FOR_DIALOG_INTERACTION
 10: 0x0321 [0x29] REQ_SET_WAIT(priority=0x08, entity_id=Panna-Donna (ID: 17752077/0x010EE00D), tag_num=0x02)
 11: 0x0328 [0x20] SET_CLI_EVENT_UC_FLAG: Unlock player control
 12: 0x032A [0x21] END_EVENT
 13: 0x032B [0x00] END_REQSTACK()
```

### Event 218

#### Metadata

| Field        | Value    |
|--------------|----------|
| Entrypoint   | 0x032C   |
| Data Size    | 33 bytes |
| Instructions | 12       |

```
      00 01 02 03 04 05 06 07  08 09 0A 0B 0C 0D 0E 0F
      -- -- -- -- -- -- -- --  -- -- -- -- -- -- -- --
0320:                                      1E F0 FF FF              ....
0330: 7F 6F 70 29 08 0D E0 0E  01 01 1D 29 80 23 1D 2A  .op).......).#.*
0340: 80 23 29 08 0D E0 0E 01  02 20 00 21 00           .#)...... .!.   
```

#### Opcodes

```
  0: 0x032C [0x1E] EventEntity looks at LocalPlayer and starts talking
  1: 0x0331 [0x6F] WAIT_FRAME_DELAY: Yield until WaitTime reaches zero
  2: 0x0332 [0x70] WAIT_ENTITY_RENDER_FLAG: Wait while EventEntity->Render.Flags3 bit 2 is set (cancel turn if not)
  3: 0x0333 [0x29] REQ_SET_WAIT(priority=0x08, entity_id=Panna-Donna (ID: 17752077/0x010EE00D), tag_num=0x01)
  4: 0x033A [0x1D] PRINT_EVENT_MESSAGE(message_id=7808*)
    → "The Sibyl Guards who attend on the Star Sibyl are all Mithra."
  5: 0x033D [0x23] WAIT_FOR_DIALOG_INTERACTION
  6: 0x033E [0x1D] PRINT_EVENT_MESSAGE(message_id=7809*)
    → "But they are different from the other Mithra you see around town. They have made a heartfelt pledge of allegiance."
  7: 0x0341 [0x23] WAIT_FOR_DIALOG_INTERACTION
  8: 0x0342 [0x29] REQ_SET_WAIT(priority=0x08, entity_id=Panna-Donna (ID: 17752077/0x010EE00D), tag_num=0x02)
  9: 0x0349 [0x20] SET_CLI_EVENT_UC_FLAG: Unlock player control
 10: 0x034B [0x21] END_EVENT
 11: 0x034C [0x00] END_REQSTACK()
```

### Event 224

#### Metadata

| Field        | Value    |
|--------------|----------|
| Entrypoint   | 0x034D   |
| Data Size    | 33 bytes |
| Instructions | 12       |

```
      00 01 02 03 04 05 06 07  08 09 0A 0B 0C 0D 0E 0F
      -- -- -- -- -- -- -- --  -- -- -- -- -- -- -- --
0340:                                         1E F0 FF               ...
0350: FF 7F 6F 70 29 08 0D E0  0E 01 01 1D 2B 80 23 1D  ..op).......+.#.
0360: 2C 80 23 29 08 0D E0 0E  01 02 20 00 21 00        ,.#)...... .!.  
```

#### Opcodes

```
  0: 0x034D [0x1E] EventEntity looks at LocalPlayer and starts talking
  1: 0x0352 [0x6F] WAIT_FRAME_DELAY: Yield until WaitTime reaches zero
  2: 0x0353 [0x70] WAIT_ENTITY_RENDER_FLAG: Wait while EventEntity->Render.Flags3 bit 2 is set (cancel turn if not)
  3: 0x0354 [0x29] REQ_SET_WAIT(priority=0x08, entity_id=Panna-Donna (ID: 17752077/0x010EE00D), tag_num=0x01)
  4: 0x035B [0x1D] PRINT_EVENT_MESSAGE(message_id=7822*)
    → "The Star Sibyl's vestal ladies-in-waiting are the admiration and dream of every Tarutaru girl."
  5: 0x035E [0x23] WAIT_FOR_DIALOG_INTERACTION
  6: 0x035F [0x1D] PRINT_EVENT_MESSAGE(message_id=7823*)
    → "Ahhh...I wish I was born a girl so I could serve at the side of the great Sibyl. Not that serving by the side of Mokyokyo is bad or anything..."
  7: 0x0362 [0x23] WAIT_FOR_DIALOG_INTERACTION
  8: 0x0363 [0x29] REQ_SET_WAIT(priority=0x08, entity_id=Panna-Donna (ID: 17752077/0x010EE00D), tag_num=0x02)
  9: 0x036A [0x20] SET_CLI_EVENT_UC_FLAG: Unlock player control
 10: 0x036C [0x21] END_EVENT
 11: 0x036D [0x00] END_REQSTACK()
```

### Event 229

#### Metadata

| Field        | Value    |
|--------------|----------|
| Entrypoint   | 0x036E   |
| Data Size    | 33 bytes |
| Instructions | 12       |

```
      00 01 02 03 04 05 06 07  08 09 0A 0B 0C 0D 0E 0F
      -- -- -- -- -- -- -- --  -- -- -- -- -- -- -- --
0360:                                            1E F0                ..
0370: FF FF 7F 6F 70 29 08 0D  E0 0E 01 01 1D 2D 80 23  ...op).......-.#
0380: 1D 2E 80 23 29 08 0D E0  0E 01 02 20 00 21 00     ...#)...... .!. 
```

#### Opcodes

```
  0: 0x036E [0x1E] EventEntity looks at LocalPlayer and starts talking
  1: 0x0373 [0x6F] WAIT_FRAME_DELAY: Yield until WaitTime reaches zero
  2: 0x0374 [0x70] WAIT_ENTITY_RENDER_FLAG: Wait while EventEntity->Render.Flags3 bit 2 is set (cancel turn if not)
  3: 0x0375 [0x29] REQ_SET_WAIT(priority=0x08, entity_id=Panna-Donna (ID: 17752077/0x010EE00D), tag_num=0x01)
  4: 0x037C [0x1D] PRINT_EVENT_MESSAGE(message_id=7833*)
    → "Wow! A writ of summons with a star emblem on it! You are incredible! Incredibly incredible!"
  5: 0x037F [0x23] WAIT_FOR_DIALOG_INTERACTION
  6: 0x0380 [0x1D] PRINT_EVENT_MESSAGE(message_id=7834*)
    → "I knew there was something different about my friend, <Player>. I bet you have a lucky star shining down on you. You should treasure it greatly!"
  7: 0x0383 [0x23] WAIT_FOR_DIALOG_INTERACTION
  8: 0x0384 [0x29] REQ_SET_WAIT(priority=0x08, entity_id=Panna-Donna (ID: 17752077/0x010EE00D), tag_num=0x02)
  9: 0x038B [0x20] SET_CLI_EVENT_UC_FLAG: Unlock player control
 10: 0x038D [0x21] END_EVENT
 11: 0x038E [0x00] END_REQSTACK()
```

### Event 233

#### Metadata

| Field        | Value    |
|--------------|----------|
| Entrypoint   | 0x038F   |
| Data Size    | 33 bytes |
| Instructions | 12       |

```
      00 01 02 03 04 05 06 07  08 09 0A 0B 0C 0D 0E 0F
      -- -- -- -- -- -- -- --  -- -- -- -- -- -- -- --
0380:                                               1E                 .
0390: F0 FF FF 7F 6F 70 29 08  0D E0 0E 01 01 1D 2F 80  ....op)......./.
03A0: 23 1D 30 80 23 29 08 0D  E0 0E 01 02 20 00 21 00  #.0.#)...... .!.
```

#### Opcodes

```
  0: 0x038F [0x1E] EventEntity looks at LocalPlayer and starts talking
  1: 0x0394 [0x6F] WAIT_FRAME_DELAY: Yield until WaitTime reaches zero
  2: 0x0395 [0x70] WAIT_ENTITY_RENDER_FLAG: Wait while EventEntity->Render.Flags3 bit 2 is set (cancel turn if not)
  3: 0x0396 [0x29] REQ_SET_WAIT(priority=0x08, entity_id=Panna-Donna (ID: 17752077/0x010EE00D), tag_num=0x01)
  4: 0x039D [0x1D] PRINT_EVENT_MESSAGE(message_id=7841*)
    → "What in Windurst is going on? For Heavens Tower to stop us from issuing missions...? Almost looks like we're about to go to war, or something!"
  5: 0x03A0 [0x23] WAIT_FOR_DIALOG_INTERACTION
  6: 0x03A1 [0x1D] PRINT_EVENT_MESSAGE(message_id=7842*)
    → "Ah!? No, we couldn't possibly be...! Windurst is in a peace accord, right?"
  7: 0x03A4 [0x23] WAIT_FOR_DIALOG_INTERACTION
  8: 0x03A5 [0x29] REQ_SET_WAIT(priority=0x08, entity_id=Panna-Donna (ID: 17752077/0x010EE00D), tag_num=0x02)
  9: 0x03AC [0x20] SET_CLI_EVENT_UC_FLAG: Unlock player control
 10: 0x03AE [0x21] END_EVENT
 11: 0x03AF [0x00] END_REQSTACK()
```

### Event 238

#### Metadata

| Field        | Value    |
|--------------|----------|
| Entrypoint   | 0x03B0   |
| Data Size    | 33 bytes |
| Instructions | 12       |

```
      00 01 02 03 04 05 06 07  08 09 0A 0B 0C 0D 0E 0F
      -- -- -- -- -- -- -- --  -- -- -- -- -- -- -- --
03B0: 1E F0 FF FF 7F 6F 70 29  08 0D E0 0E 01 03 1D 31  .....op).......1
03C0: 80 23 1D 32 80 23 29 08  0D E0 0E 01 04 20 00 21  .#.2.#)...... .!
03D0: 00                                                .               
```

#### Opcodes

```
  0: 0x03B0 [0x1E] EventEntity looks at LocalPlayer and starts talking
  1: 0x03B5 [0x6F] WAIT_FRAME_DELAY: Yield until WaitTime reaches zero
  2: 0x03B6 [0x70] WAIT_ENTITY_RENDER_FLAG: Wait while EventEntity->Render.Flags3 bit 2 is set (cancel turn if not)
  3: 0x03B7 [0x29] REQ_SET_WAIT(priority=0x08, entity_id=Panna-Donna (ID: 17752077/0x010EE00D), tag_num=0x03)
  4: 0x03BE [0x1D] PRINT_EVENT_MESSAGE(message_id=7852*)
    → "I heard from Mokyokyo that the talisman that sealed the Shadow Lord has been stolen!"
  5: 0x03C1 [0x23] WAIT_FOR_DIALOG_INTERACTION
  6: 0x03C2 [0x1D] PRINT_EVENT_MESSAGE(message_id=7853*)
    → "The talisman itself was supposed to be sealed away in the central tower of the Horutoto Ruins with a magical barrier protecting it, right!? The one who stole it must be an extremely powerful magician!"
  7: 0x03C5 [0x23] WAIT_FOR_DIALOG_INTERACTION
  8: 0x03C6 [0x29] REQ_SET_WAIT(priority=0x08, entity_id=Panna-Donna (ID: 17752077/0x010EE00D), tag_num=0x04)
  9: 0x03CD [0x20] SET_CLI_EVENT_UC_FLAG: Unlock player control
 10: 0x03CF [0x21] END_EVENT
 11: 0x03D0 [0x00] END_REQSTACK()
```

### Event 243

#### Metadata

| Field        | Value    |
|--------------|----------|
| Entrypoint   | 0x03D1   |
| Data Size    | 33 bytes |
| Instructions | 12       |

```
      00 01 02 03 04 05 06 07  08 09 0A 0B 0C 0D 0E 0F
      -- -- -- -- -- -- -- --  -- -- -- -- -- -- -- --
03D0:    1E F0 FF FF 7F 6F 70  29 08 0D E0 0E 01 01 1D   .....op).......
03E0: 33 80 23 1D 34 80 23 29  08 0D E0 0E 01 02 20 00  3.#.4.#)...... .
03F0: 21 00                                             !.              
```

#### Opcodes

```
  0: 0x03D1 [0x1E] EventEntity looks at LocalPlayer and starts talking
  1: 0x03D6 [0x6F] WAIT_FRAME_DELAY: Yield until WaitTime reaches zero
  2: 0x03D7 [0x70] WAIT_ENTITY_RENDER_FLAG: Wait while EventEntity->Render.Flags3 bit 2 is set (cancel turn if not)
  3: 0x03D8 [0x29] REQ_SET_WAIT(priority=0x08, entity_id=Panna-Donna (ID: 17752077/0x010EE00D), tag_num=0x01)
  4: 0x03DF [0x1D] PRINT_EVENT_MESSAGE(message_id=7862*)
    → "Seems as though the conference of ministers has ended. I wonder what was on the agenda-wenda of that meeting?"
  5: 0x03E2 [0x23] WAIT_FOR_DIALOG_INTERACTION
  6: 0x03E3 [0x1D] PRINT_EVENT_MESSAGE(message_id=7863*)
    → "Hey, now your position is high enough to come and go from Heavens Tower as you please, right? I promise not to tell anyone, so please let me know what's going on!"
  7: 0x03E6 [0x23] WAIT_FOR_DIALOG_INTERACTION
  8: 0x03E7 [0x29] REQ_SET_WAIT(priority=0x08, entity_id=Panna-Donna (ID: 17752077/0x010EE00D), tag_num=0x02)
  9: 0x03EE [0x20] SET_CLI_EVENT_UC_FLAG: Unlock player control
 10: 0x03F0 [0x21] END_EVENT
 11: 0x03F1 [0x00] END_REQSTACK()
```

### Event 246

#### Metadata

| Field        | Value    |
|--------------|----------|
| Entrypoint   | 0x03F2   |
| Data Size    | 33 bytes |
| Instructions | 12       |

```
      00 01 02 03 04 05 06 07  08 09 0A 0B 0C 0D 0E 0F
      -- -- -- -- -- -- -- --  -- -- -- -- -- -- -- --
03F0:       1E F0 FF FF 7F 6F  70 29 08 0D E0 0E 01 01    .....op)......
0400: 1D 35 80 23 1D 36 80 23  29 08 0D E0 0E 01 02 20  .5.#.6.#)...... 
0410: 00 21 00                                          .!.             
```

#### Opcodes

```
  0: 0x03F2 [0x1E] EventEntity looks at LocalPlayer and starts talking
  1: 0x03F7 [0x6F] WAIT_FRAME_DELAY: Yield until WaitTime reaches zero
  2: 0x03F8 [0x70] WAIT_ENTITY_RENDER_FLAG: Wait while EventEntity->Render.Flags3 bit 2 is set (cancel turn if not)
  3: 0x03F9 [0x29] REQ_SET_WAIT(priority=0x08, entity_id=Panna-Donna (ID: 17752077/0x010EE00D), tag_num=0x01)
  4: 0x0400 [0x1D] PRINT_EVENT_MESSAGE(message_id=7868*)
    → "I don't know what happened, but the people from Heavens Tower look a lot brighter than before."
  5: 0x0403 [0x23] WAIT_FOR_DIALOG_INTERACTION
  6: 0x0404 [0x1D] PRINT_EVENT_MESSAGE(message_id=7869*)
    → "Hey, you're high enough in position to freely come and go from Heavens Tower, right? I promise I won't tell anyone, so please let me know what's going on!"
  7: 0x0407 [0x23] WAIT_FOR_DIALOG_INTERACTION
  8: 0x0408 [0x29] REQ_SET_WAIT(priority=0x08, entity_id=Panna-Donna (ID: 17752077/0x010EE00D), tag_num=0x02)
  9: 0x040F [0x20] SET_CLI_EVENT_UC_FLAG: Unlock player control
 10: 0x0411 [0x21] END_EVENT
 11: 0x0412 [0x00] END_REQSTACK()
```

### Event 768

#### Metadata

| Field        | Value    |
|--------------|----------|
| Entrypoint   | 0x0413   |
| Data Size    | 33 bytes |
| Instructions | 12       |

```
      00 01 02 03 04 05 06 07  08 09 0A 0B 0C 0D 0E 0F
      -- -- -- -- -- -- -- --  -- -- -- -- -- -- -- --
0410:          1E F0 FF FF 7F  6F 70 29 08 0D E0 0E 01     .....op).....
0420: 01 1D 37 80 23 1D 38 80  23 29 08 0D E0 0E 01 02  ..7.#.8.#)......
0430: 20 00 21 00                                        .!.            
```

#### Opcodes

```
  0: 0x0413 [0x1E] EventEntity looks at LocalPlayer and starts talking
  1: 0x0418 [0x6F] WAIT_FRAME_DELAY: Yield until WaitTime reaches zero
  2: 0x0419 [0x70] WAIT_ENTITY_RENDER_FLAG: Wait while EventEntity->Render.Flags3 bit 2 is set (cancel turn if not)
  3: 0x041A [0x29] REQ_SET_WAIT(priority=0x08, entity_id=Panna-Donna (ID: 17752077/0x010EE00D), tag_num=0x01)
  4: 0x0421 [0x1D] PRINT_EVENT_MESSAGE(message_id=9609*)
    → "I wonder what is to become of Windurst? Is there anything that a simple-wimple guard like me can do...?"
  5: 0x0424 [0x23] WAIT_FOR_DIALOG_INTERACTION
  6: 0x0425 [0x1D] PRINT_EVENT_MESSAGE(message_id=9610*)
    → "For now, I just practice my swordplay with Ten of Hearts every day. He doesn't get tired, so he makes a good training partner."
  7: 0x0428 [0x23] WAIT_FOR_DIALOG_INTERACTION
  8: 0x0429 [0x29] REQ_SET_WAIT(priority=0x08, entity_id=Panna-Donna (ID: 17752077/0x010EE00D), tag_num=0x02)
  9: 0x0430 [0x20] SET_CLI_EVENT_UC_FLAG: Unlock player control
 10: 0x0432 [0x21] END_EVENT
 11: 0x0433 [0x00] END_REQSTACK()
```

### Event 702

#### Metadata

| Field        | Value    |
|--------------|----------|
| Entrypoint   | 0x0434   |
| Data Size    | 65 bytes |
| Instructions | 18       |

```
      00 01 02 03 04 05 06 07  08 09 0A 0B 0C 0D 0E 0F
      -- -- -- -- -- -- -- --  -- -- -- -- -- -- -- --
0430:             1E F0 FF FF  7F 6F 70 29 08 0D E0 0E      .....op)....
0440: 01 01 1D 39 80 23 29 08  0D E0 0E 01 02 29 08 0D  ...9.#)......)..
0450: E0 0E 01 0A 1D 3A 80 23  29 08 0D E0 0E 01 0B 29  .....:.#)......)
0460: 08 0D E0 0E 01 0C 1D 3B  80 23 29 08 0D E0 0E 01  .......;.#).....
0470: 0D 20 00 21 00                                    . .!.           
```

#### Opcodes

```
  0: 0x0434 [0x1E] EventEntity looks at LocalPlayer and starts talking
  1: 0x0439 [0x6F] WAIT_FRAME_DELAY: Yield until WaitTime reaches zero
  2: 0x043A [0x70] WAIT_ENTITY_RENDER_FLAG: Wait while EventEntity->Render.Flags3 bit 2 is set (cancel turn if not)
  3: 0x043B [0x29] REQ_SET_WAIT(priority=0x08, entity_id=Panna-Donna (ID: 17752077/0x010EE00D), tag_num=0x01)
  4: 0x0442 [0x1D] PRINT_EVENT_MESSAGE(message_id=9620*)
    → "How goes the adventuring life? Your new mission is from the Orastery, rightaru?"
  5: 0x0445 [0x23] WAIT_FOR_DIALOG_INTERACTION
  6: 0x0446 [0x29] REQ_SET_WAIT(priority=0x08, entity_id=Panna-Donna (ID: 17752077/0x010EE00D), tag_num=0x02)
  7: 0x044D [0x29] REQ_SET_WAIT(priority=0x08, entity_id=Panna-Donna (ID: 17752077/0x010EE00D), tag_num=0x0A)
  8: 0x0454 [0x1D] PRINT_EVENT_MESSAGE(message_id=9621*)
    → "Minister Ajido-Marujido is the most super spell-slinger in Windurst. Or maybe that would be Doctor Shantotto?"
  9: 0x0457 [0x23] WAIT_FOR_DIALOG_INTERACTION
 10: 0x0458 [0x29] REQ_SET_WAIT(priority=0x08, entity_id=Panna-Donna (ID: 17752077/0x010EE00D), tag_num=0x0B)
 11: 0x045F [0x29] REQ_SET_WAIT(priority=0x08, entity_id=Panna-Donna (ID: 17752077/0x010EE00D), tag_num=0x0C)
 12: 0x0466 [0x1D] PRINT_EVENT_MESSAGE(message_id=9622*)
    → "I wonder who would win in a duel of dweomers? It would be a close match, don't you think?"
 13: 0x0469 [0x23] WAIT_FOR_DIALOG_INTERACTION
 14: 0x046A [0x29] REQ_SET_WAIT(priority=0x08, entity_id=Panna-Donna (ID: 17752077/0x010EE00D), tag_num=0x0D)
 15: 0x0471 [0x20] SET_CLI_EVENT_UC_FLAG: Unlock player control
 16: 0x0473 [0x21] END_EVENT
 17: 0x0474 [0x00] END_REQSTACK()
```

### Event 707

#### Metadata

| Field        | Value    |
|--------------|----------|
| Entrypoint   | 0x0475   |
| Data Size    | 45 bytes |
| Instructions | 14       |

```
      00 01 02 03 04 05 06 07  08 09 0A 0B 0C 0D 0E 0F
      -- -- -- -- -- -- -- --  -- -- -- -- -- -- -- --
0470:                1E F0 FF  FF 7F 6F 70 29 08 0D E0       .....op)...
0480: 0E 01 01 1D 3C 80 23 29  08 0D E0 0E 01 02 6E F8  ....<.#)......n.
0490: FF FF 7F 3D 80 99 F8 FF  FF 7F 1D 3E 80 23 20 00  ...=.......>.# .
04A0: 21 00                                             !.              
```

#### Opcodes

```
  0: 0x0475 [0x1E] EventEntity looks at LocalPlayer and starts talking
  1: 0x047A [0x6F] WAIT_FRAME_DELAY: Yield until WaitTime reaches zero
  2: 0x047B [0x70] WAIT_ENTITY_RENDER_FLAG: Wait while EventEntity->Render.Flags3 bit 2 is set (cancel turn if not)
  3: 0x047C [0x29] REQ_SET_WAIT(priority=0x08, entity_id=Panna-Donna (ID: 17752077/0x010EE00D), tag_num=0x01)
  4: 0x0483 [0x1D] PRINT_EVENT_MESSAGE(message_id=9637*)
    → "The mages of the Orastery must all be in a flurry-scurry. The imprisonment of a minister is unprecedented."
  5: 0x0486 [0x23] WAIT_FOR_DIALOG_INTERACTION
  6: 0x0487 [0x29] REQ_SET_WAIT(priority=0x08, entity_id=Panna-Donna (ID: 17752077/0x010EE00D), tag_num=0x02)
  7: 0x048E [0x6E] EventEntity uses emote 6*
  8: 0x0495 [0x99] Wait for EventEntity animation to complete
  9: 0x049A [0x1D] PRINT_EVENT_MESSAGE(message_id=9638*)
    → "What can be done to soothe the fury-wury of the Star Sibyl? No matter how much I ponder-wonder, I justaru can't think of anything!"
 10: 0x049D [0x23] WAIT_FOR_DIALOG_INTERACTION
 11: 0x049E [0x20] SET_CLI_EVENT_UC_FLAG: Unlock player control
 12: 0x04A0 [0x21] END_EVENT
 13: 0x04A1 [0x00] END_REQSTACK()
```

### Event 712

#### Metadata

| Field        | Value    |
|--------------|----------|
| Entrypoint   | 0x04A2   |
| Data Size    | 47 bytes |
| Instructions | 14       |

```
      00 01 02 03 04 05 06 07  08 09 0A 0B 0C 0D 0E 0F
      -- -- -- -- -- -- -- --  -- -- -- -- -- -- -- --
04A0:       1E F0 FF FF 7F 6F  70 29 08 0D E0 0E 01 01    .....op)......
04B0: 1D 3F 80 23 29 08 0D E0  0E 01 02 29 08 0D E0 0E  .?.#)......)....
04C0: 01 06 1D 40 80 23 29 08  0D E0 0E 01 07 20 00 21  ...@.#)...... .!
04D0: 00                                                .               
```

#### Opcodes

```
  0: 0x04A2 [0x1E] EventEntity looks at LocalPlayer and starts talking
  1: 0x04A7 [0x6F] WAIT_FRAME_DELAY: Yield until WaitTime reaches zero
  2: 0x04A8 [0x70] WAIT_ENTITY_RENDER_FLAG: Wait while EventEntity->Render.Flags3 bit 2 is set (cancel turn if not)
  3: 0x04A9 [0x29] REQ_SET_WAIT(priority=0x08, entity_id=Panna-Donna (ID: 17752077/0x010EE00D), tag_num=0x01)
  4: 0x04B0 [0x1D] PRINT_EVENT_MESSAGE(message_id=9648*)
    → "Did you think things would get easier as your rank got higher?"
  5: 0x04B3 [0x23] WAIT_FOR_DIALOG_INTERACTION
  6: 0x04B4 [0x29] REQ_SET_WAIT(priority=0x08, entity_id=Panna-Donna (ID: 17752077/0x010EE00D), tag_num=0x02)
  7: 0x04BB [0x29] REQ_SET_WAIT(priority=0x08, entity_id=Panna-Donna (ID: 17752077/0x010EE00D), tag_num=0x06)
  8: 0x04C2 [0x1D] PRINT_EVENT_MESSAGE(message_id=9649*)
    → "Heh-heh-heh, you've got it all topsy-turvy. There aren'taru too many high-ranked adventurers, so you get to do all the really difficultaru missions!"
  9: 0x04C5 [0x23] WAIT_FOR_DIALOG_INTERACTION
 10: 0x04C6 [0x29] REQ_SET_WAIT(priority=0x08, entity_id=Panna-Donna (ID: 17752077/0x010EE00D), tag_num=0x07)
 11: 0x04CD [0x20] SET_CLI_EVENT_UC_FLAG: Unlock player control
 12: 0x04CF [0x21] END_EVENT
 13: 0x04D0 [0x00] END_REQSTACK()
```

### Event 732

#### Metadata

| Field        | Value    |
|--------------|----------|
| Entrypoint   | 0x04D1   |
| Data Size    | 47 bytes |
| Instructions | 14       |

```
      00 01 02 03 04 05 06 07  08 09 0A 0B 0C 0D 0E 0F
      -- -- -- -- -- -- -- --  -- -- -- -- -- -- -- --
04D0:    1E F0 FF FF 7F 6F 70  29 08 0D E0 0E 01 0A 1D   .....op).......
04E0: 41 80 23 29 08 0D E0 0E  01 0B 29 08 0D E0 0E 01  A.#)......).....
04F0: 0C 1D 42 80 23 29 08 0D  E0 0E 01 0D 20 00 21 00  ..B.#)...... .!.
```

#### Opcodes

```
  0: 0x04D1 [0x1E] EventEntity looks at LocalPlayer and starts talking
  1: 0x04D6 [0x6F] WAIT_FRAME_DELAY: Yield until WaitTime reaches zero
  2: 0x04D7 [0x70] WAIT_ENTITY_RENDER_FLAG: Wait while EventEntity->Render.Flags3 bit 2 is set (cancel turn if not)
  3: 0x04D8 [0x29] REQ_SET_WAIT(priority=0x08, entity_id=Panna-Donna (ID: 17752077/0x010EE00D), tag_num=0x0A)
  4: 0x04DF [0x1D] PRINT_EVENT_MESSAGE(message_id=9715*)
    → "Minister Rukususu is so dreamy-weamy. If she stays Minister of the Rhinostery, the number of members will go through the roof."
  5: 0x04E2 [0x23] WAIT_FOR_DIALOG_INTERACTION
  6: 0x04E3 [0x29] REQ_SET_WAIT(priority=0x08, entity_id=Panna-Donna (ID: 17752077/0x010EE00D), tag_num=0x0B)
  7: 0x04EA [0x29] REQ_SET_WAIT(priority=0x08, entity_id=Panna-Donna (ID: 17752077/0x010EE00D), tag_num=0x0C)
  8: 0x04F1 [0x1D] PRINT_EVENT_MESSAGE(message_id=9716*)
    → "Hm? How is she dreamy-weamy? How can you not know? It's that fragrance. I'm so head over heels, I can't think straight anymore."
  9: 0x04F4 [0x23] WAIT_FOR_DIALOG_INTERACTION
 10: 0x04F5 [0x29] REQ_SET_WAIT(priority=0x08, entity_id=Panna-Donna (ID: 17752077/0x010EE00D), tag_num=0x0D)
 11: 0x04FC [0x20] SET_CLI_EVENT_UC_FLAG: Unlock player control
 12: 0x04FE [0x21] END_EVENT
 13: 0x04FF [0x00] END_REQSTACK()
```

### Event 750

#### Metadata

| Field        | Value    |
|--------------|----------|
| Entrypoint   | 0x0500   |
| Data Size    | 33 bytes |
| Instructions | 12       |

```
      00 01 02 03 04 05 06 07  08 09 0A 0B 0C 0D 0E 0F
      -- -- -- -- -- -- -- --  -- -- -- -- -- -- -- --
0500: 1E F0 FF FF 7F 6F 70 29  08 0D E0 0E 01 01 1D 43  .....op).......C
0510: 80 23 1D 44 80 23 29 08  0D E0 0E 01 02 20 00 21  .#.D.#)...... .!
0520: 00                                                .               
```

#### Opcodes

```
  0: 0x0500 [0x1E] EventEntity looks at LocalPlayer and starts talking
  1: 0x0505 [0x6F] WAIT_FRAME_DELAY: Yield until WaitTime reaches zero
  2: 0x0506 [0x70] WAIT_ENTITY_RENDER_FLAG: Wait while EventEntity->Render.Flags3 bit 2 is set (cancel turn if not)
  3: 0x0507 [0x29] REQ_SET_WAIT(priority=0x08, entity_id=Panna-Donna (ID: 17752077/0x010EE00D), tag_num=0x01)
  4: 0x050E [0x1D] PRINT_EVENT_MESSAGE(message_id=9765*)
    → "Have you met Professor Koru-Moru? He's the very, um, unique professor in Windurst Walls."
  5: 0x0511 [0x23] WAIT_FOR_DIALOG_INTERACTION
  6: 0x0512 [0x1D] PRINT_EVENT_MESSAGE(message_id=9766*)
    → "He once retired as the principal of the School of Magic, but due to an incidentaru a couple of years ago, he was reinstated."
  7: 0x0515 [0x23] WAIT_FOR_DIALOG_INTERACTION
  8: 0x0516 [0x29] REQ_SET_WAIT(priority=0x08, entity_id=Panna-Donna (ID: 17752077/0x010EE00D), tag_num=0x02)
  9: 0x051D [0x20] SET_CLI_EVENT_UC_FLAG: Unlock player control
 10: 0x051F [0x21] END_EVENT
 11: 0x0520 [0x00] END_REQSTACK()
```

### Event 766

#### Metadata

| Field        | Value    |
|--------------|----------|
| Entrypoint   | 0x0521   |
| Data Size    | 33 bytes |
| Instructions | 12       |

```
      00 01 02 03 04 05 06 07  08 09 0A 0B 0C 0D 0E 0F
      -- -- -- -- -- -- -- --  -- -- -- -- -- -- -- --
0520:    1E F0 FF FF 7F 6F 70  29 08 0D E0 0E 01 01 1D   .....op).......
0530: 45 80 23 1D 46 80 23 29  08 0D E0 0E 01 02 20 00  E.#.F.#)...... .
0540: 21 00                                             !.              
```

#### Opcodes

```
  0: 0x0521 [0x1E] EventEntity looks at LocalPlayer and starts talking
  1: 0x0526 [0x6F] WAIT_FRAME_DELAY: Yield until WaitTime reaches zero
  2: 0x0527 [0x70] WAIT_ENTITY_RENDER_FLAG: Wait while EventEntity->Render.Flags3 bit 2 is set (cancel turn if not)
  3: 0x0528 [0x29] REQ_SET_WAIT(priority=0x08, entity_id=Panna-Donna (ID: 17752077/0x010EE00D), tag_num=0x01)
  4: 0x052F [0x1D] PRINT_EVENT_MESSAGE(message_id=9814*)
    → "Minister Apururu hates it when people call her "Miss Minster Apururu," so everybody leaves off the "Miss"."
  5: 0x0532 [0x23] WAIT_FOR_DIALOG_INTERACTION
  6: 0x0533 [0x1D] PRINT_EVENT_MESSAGE(message_id=9815*)
    → "She's also the youngest of the five ministers, but probably works the hardest at managing her ministry. It's still in the red, though..."
  7: 0x0536 [0x23] WAIT_FOR_DIALOG_INTERACTION
  8: 0x0537 [0x29] REQ_SET_WAIT(priority=0x08, entity_id=Panna-Donna (ID: 17752077/0x010EE00D), tag_num=0x02)
  9: 0x053E [0x20] SET_CLI_EVENT_UC_FLAG: Unlock player control
 10: 0x0540 [0x21] END_EVENT
 11: 0x0541 [0x00] END_REQSTACK()
```

### Event 826

#### Metadata

| Field        | Value    |
|--------------|----------|
| Entrypoint   | 0x0542   |
| Data Size    | 47 bytes |
| Instructions | 14       |

```
      00 01 02 03 04 05 06 07  08 09 0A 0B 0C 0D 0E 0F
      -- -- -- -- -- -- -- --  -- -- -- -- -- -- -- --
0540:       1E F0 FF FF 7F 6F  70 29 08 0D E0 0E 01 01    .....op)......
0550: 1D 47 80 23 29 08 0D E0  0E 01 02 29 08 0D E0 0E  .G.#)......)....
0560: 01 03 1D 48 80 23 29 08  0D E0 0E 01 04 20 00 21  ...H.#)...... .!
0570: 00                                                .               
```

#### Opcodes

```
  0: 0x0542 [0x1E] EventEntity looks at LocalPlayer and starts talking
  1: 0x0547 [0x6F] WAIT_FRAME_DELAY: Yield until WaitTime reaches zero
  2: 0x0548 [0x70] WAIT_ENTITY_RENDER_FLAG: Wait while EventEntity->Render.Flags3 bit 2 is set (cancel turn if not)
  3: 0x0549 [0x29] REQ_SET_WAIT(priority=0x08, entity_id=Panna-Donna (ID: 17752077/0x010EE00D), tag_num=0x01)
  4: 0x0550 [0x1D] PRINT_EVENT_MESSAGE(message_id=10054*)
    → "You probably don't know who Minister Ajido-Marujido and Miss Apururu's father is, do you?"
  5: 0x0553 [0x23] WAIT_FOR_DIALOG_INTERACTION
  6: 0x0554 [0x29] REQ_SET_WAIT(priority=0x08, entity_id=Panna-Donna (ID: 17752077/0x010EE00D), tag_num=0x02)
  7: 0x055B [0x29] REQ_SET_WAIT(priority=0x08, entity_id=Panna-Donna (ID: 17752077/0x010EE00D), tag_num=0x03)
  8: 0x0562 [0x1D] PRINT_EVENT_MESSAGE(message_id=10055*)
    → "Huh, your expression says otherwise. Has it become that well-known? I guess that was a silly-billy question to ask a well-connected adventurer like yourself."
  9: 0x0565 [0x23] WAIT_FOR_DIALOG_INTERACTION
 10: 0x0566 [0x29] REQ_SET_WAIT(priority=0x08, entity_id=Panna-Donna (ID: 17752077/0x010EE00D), tag_num=0x04)
 11: 0x056D [0x20] SET_CLI_EVENT_UC_FLAG: Unlock player control
 12: 0x056F [0x21] END_EVENT
 13: 0x0570 [0x00] END_REQSTACK()
```

### Event 834

#### Metadata

| Field        | Value    |
|--------------|----------|
| Entrypoint   | 0x0571   |
| Data Size    | 47 bytes |
| Instructions | 14       |

```
      00 01 02 03 04 05 06 07  08 09 0A 0B 0C 0D 0E 0F
      -- -- -- -- -- -- -- --  -- -- -- -- -- -- -- --
0570:    1E F0 FF FF 7F 6F 70  29 08 0D E0 0E 01 0A 1D   .....op).......
0580: 49 80 23 29 08 0D E0 0E  01 0B 29 08 0D E0 0E 01  I.#)......).....
0590: 0C 1D 4A 80 23 29 08 0D  E0 0E 01 0D 20 00 21 00  ..J.#)...... .!.
```

#### Opcodes

```
  0: 0x0571 [0x1E] EventEntity looks at LocalPlayer and starts talking
  1: 0x0576 [0x6F] WAIT_FRAME_DELAY: Yield until WaitTime reaches zero
  2: 0x0577 [0x70] WAIT_ENTITY_RENDER_FLAG: Wait while EventEntity->Render.Flags3 bit 2 is set (cancel turn if not)
  3: 0x0578 [0x29] REQ_SET_WAIT(priority=0x08, entity_id=Panna-Donna (ID: 17752077/0x010EE00D), tag_num=0x0A)
  4: 0x057F [0x1D] PRINT_EVENT_MESSAGE(message_id=10061*)
    → "We have heard accounts of roguey-wogue Cardians crossing Sarutabaruta. Have you heard or seen anything?"
  5: 0x0582 [0x23] WAIT_FOR_DIALOG_INTERACTION
  6: 0x0583 [0x29] REQ_SET_WAIT(priority=0x08, entity_id=Panna-Donna (ID: 17752077/0x010EE00D), tag_num=0x0B)
  7: 0x058A [0x29] REQ_SET_WAIT(priority=0x08, entity_id=Panna-Donna (ID: 17752077/0x010EE00D), tag_num=0x0C)
  8: 0x0591 [0x1D] PRINT_EVENT_MESSAGE(message_id=10062*)
    → "If we don't get confirmation for these sightings, we can't make a report to Heavens Tower. For the momentaru, I have my subordinates looking into it..."
  9: 0x0594 [0x23] WAIT_FOR_DIALOG_INTERACTION
 10: 0x0595 [0x29] REQ_SET_WAIT(priority=0x08, entity_id=Panna-Donna (ID: 17752077/0x010EE00D), tag_num=0x0D)
 11: 0x059C [0x20] SET_CLI_EVENT_UC_FLAG: Unlock player control
 12: 0x059E [0x21] END_EVENT
 13: 0x059F [0x00] END_REQSTACK()
```

### Event 831

#### Metadata

| Field        | Value    |
|--------------|----------|
| Entrypoint   | 0x05A0   |
| Data Size    | 45 bytes |
| Instructions | 14       |

```
      00 01 02 03 04 05 06 07  08 09 0A 0B 0C 0D 0E 0F
      -- -- -- -- -- -- -- --  -- -- -- -- -- -- -- --
05A0: 1E F0 FF FF 7F 6F 70 29  08 0D E0 0E 01 01 1D 4B  .....op).......K
05B0: 80 23 29 08 0D E0 0E 01  02 6E F8 FF FF 7F 3D 80  .#)......n....=.
05C0: 99 F8 FF FF 7F 1D 4C 80  23 20 00 21 00           ......L.# .!.   
```

#### Opcodes

```
  0: 0x05A0 [0x1E] EventEntity looks at LocalPlayer and starts talking
  1: 0x05A5 [0x6F] WAIT_FRAME_DELAY: Yield until WaitTime reaches zero
  2: 0x05A6 [0x70] WAIT_ENTITY_RENDER_FLAG: Wait while EventEntity->Render.Flags3 bit 2 is set (cancel turn if not)
  3: 0x05A7 [0x29] REQ_SET_WAIT(priority=0x08, entity_id=Panna-Donna (ID: 17752077/0x010EE00D), tag_num=0x01)
  4: 0x05AE [0x1D] PRINT_EVENT_MESSAGE(message_id=10075*)
    → "Isn'taru it about time for the five ministries to have their meeting?"
  5: 0x05B1 [0x23] WAIT_FOR_DIALOG_INTERACTION
  6: 0x05B2 [0x29] REQ_SET_WAIT(priority=0x08, entity_id=Panna-Donna (ID: 17752077/0x010EE00D), tag_num=0x02)
  7: 0x05B9 [0x6E] EventEntity uses emote 6*
  8: 0x05C0 [0x99] Wait for EventEntity animation to complete
  9: 0x05C5 [0x1D] PRINT_EVENT_MESSAGE(message_id=10076*)
    → "But with the way things have been lately-wately, I wouldn'taru be surprised if they skip-pipped it. Minister Ajido-Marujido hasn't even returned to the Orastery yet."
 10: 0x05C8 [0x23] WAIT_FOR_DIALOG_INTERACTION
 11: 0x05C9 [0x20] SET_CLI_EVENT_UC_FLAG: Unlock player control
 12: 0x05CB [0x21] END_EVENT
 13: 0x05CC [0x00] END_REQSTACK()
```

### Event 838

#### Metadata

| Field        | Value    |
|--------------|----------|
| Entrypoint   | 0x05CD   |
| Data Size    | 45 bytes |
| Instructions | 14       |

```
      00 01 02 03 04 05 06 07  08 09 0A 0B 0C 0D 0E 0F
      -- -- -- -- -- -- -- --  -- -- -- -- -- -- -- --
05C0:                                         1E F0 FF               ...
05D0: FF 7F 6F 70 29 08 0D E0  0E 01 01 1D 4D 80 23 29  ..op).......M.#)
05E0: 08 0D E0 0E 01 02 6E F8  FF FF 7F 3D 80 99 F8 FF  ......n....=....
05F0: FF 7F 1D 4E 80 23 20 00  21 00                    ...N.# .!.      
```

#### Opcodes

```
  0: 0x05CD [0x1E] EventEntity looks at LocalPlayer and starts talking
  1: 0x05D2 [0x6F] WAIT_FRAME_DELAY: Yield until WaitTime reaches zero
  2: 0x05D3 [0x70] WAIT_ENTITY_RENDER_FLAG: Wait while EventEntity->Render.Flags3 bit 2 is set (cancel turn if not)
  3: 0x05D4 [0x29] REQ_SET_WAIT(priority=0x08, entity_id=Panna-Donna (ID: 17752077/0x010EE00D), tag_num=0x01)
  4: 0x05DB [0x1D] PRINT_EVENT_MESSAGE(message_id=10086*)
    → "I have a distantaru relative, an adventurer by trade, who said he had seen a Tarutaru being held captive by mandragora in a dungeon somewhere."
  5: 0x05DE [0x23] WAIT_FOR_DIALOG_INTERACTION
  6: 0x05DF [0x29] REQ_SET_WAIT(priority=0x08, entity_id=Panna-Donna (ID: 17752077/0x010EE00D), tag_num=0x02)
  7: 0x05E6 [0x6E] EventEntity uses emote 6*
  8: 0x05ED [0x99] Wait for EventEntity animation to complete
  9: 0x05F2 [0x1D] PRINT_EVENT_MESSAGE(message_id=10087*)
    → "Could that be the missing Principal of the Aurastery, perhaps? If it is, maybe it would be bestaru just to leave things well alone."
 10: 0x05F5 [0x23] WAIT_FOR_DIALOG_INTERACTION
 11: 0x05F6 [0x20] SET_CLI_EVENT_UC_FLAG: Unlock player control
 12: 0x05F8 [0x21] END_EVENT
 13: 0x05F9 [0x00] END_REQSTACK()
```
