# 17752152 - Orn

## Common Data

| Field            | Value                     |
|------------------|---------------------------|
| Zone             | Windurst Waters (ID: 238) |
| Block Size       | 476 bytes                 |
| Total Events     | 15                        |
| References Count | 16                        |

## List of Events

| Event ID                 | Entrypoint   |   Size |   Instructions |
|--------------------------|--------------|--------|----------------|
| [65535](#event-65535)    | 0x0000       |      1 |              1 |
| [65535.1](#event-655351) | 0x0001       |     16 |              2 |
| [65535.2](#event-655352) | 0x0011       |     22 |              4 |
| [65535.3](#event-655353) | 0x0027       |     16 |              2 |
| [65535.4](#event-655354) | 0x0037       |     22 |              4 |
| [65535.5](#event-655355) | 0x004D       |      9 |              3 |
| [652](#event-652)        | 0x0056       |     33 |             12 |
| [395](#event-395)        | 0x0077       |     33 |             10 |
| [65535.6](#event-655356) | 0x0098       |     23 |              7 |
| [65535.7](#event-655357) | 0x00AF       |     23 |              7 |
| [65535.8](#event-655358) | 0x00C6       |     23 |              7 |
| [396](#event-396)        | 0x00DD       |     31 |             11 |
| [398](#event-398)        | 0x00FC       |     26 |              9 |
| [65535.9](#event-655359) | 0x0116       |     23 |              7 |
| [399](#event-399)        | 0x012D       |     33 |             12 |

## DAT References (imed_data)

|   Index | Hex Value   |   Dec Value |
|---------|-------------|-------------|
|       0 | 0x0000      |           0 |
|       1 | 0x001E      |          30 |
|       2 | 0x2358      |        9048 |
|       3 | 0x235A      |        9050 |
|       4 | 0x2032      |        8242 |
|       5 | 0x2033      |        8243 |
|       6 | 0x2034      |        8244 |
|       7 | 0x2035      |        8245 |
|       8 | 0x2036      |        8246 |
|       9 | 0x2037      |        8247 |
|      10 | 0x2038      |        8248 |
|      11 | 0x2039      |        8249 |
|      12 | 0x203D      |        8253 |
|      13 | 0x203E      |        8254 |
|      14 | 0x203F      |        8255 |
|      15 | 0x2040      |        8256 |

## String References

- **8242**: Who are you?
- **8243**: Ah! Oh, no, $6? Gosh, I've been meaning to tell them...
- **8244**: I don't know how to say this, but...I kinda lost the library book I borrowed...
- **8245**: I was on my way back to Mhaura when I was attacked by some Yagudo beastmen. In my desperation to escape, I started to throw my belongings at them...
- **8246**: ...Including that library book! I was intending to return to Mhaura and raise some money to take back to the library...
- **8247**: ...so I was wondering, could you ask the librarians to give me a little extension on the due date?
- **8248**: Some guy told me that the stuff the Yagudo steal is massed in the treasure chamber in the depths of Giddeus... But I can't exactly walk in there and get it now, can I?
- **8249**: Yagudo are smarter than your average monster, and tend to be downright vicious.
- **8253**: That book you've got there!? Don't tell me you went all the way into the nest of the Yagudo in Giddeus!
- **8254**: What a courageous person you are! I can't believe you convinced the Yagudo to give the book back! I'm truly impressed!
- **8255**: Sorry to ask, seeing as you went out of your way and all, but...could you be so good as to return it to the Library of Magic for me?
- **8256**: I can't possibly show my face in there ever again!
- **9048**: Ouch... I was attacked by Yagudo the other day, and my wounds still haven't healed.
- **9050**: We merchants have to travel in order to make any real money. Yet, as you well know, there are so many strong monsters out there in the wilderness.

## Events

### Event 65535

#### Metadata

| Field        | Value   |
|--------------|---------|
| Entrypoint   | 0x0000  |
| Data Size    | 1 bytes |
| Instructions | 1       |

```
      00 01 02 03 04 05 06 07  08 09 0A 0B 0C 0D 0E 0F
      -- -- -- -- -- -- -- --  -- -- -- -- -- -- -- --
0000: 00                                                .               
```

#### Opcodes

```
  0: 0x0000 [0x00] END_REQSTACK()
```

### Event 65535.1

#### Metadata

| Field        | Value    |
|--------------|----------|
| Entrypoint   | 0x0001   |
| Data Size    | 16 bytes |
| Instructions | 2        |

```
      00 01 02 03 04 05 06 07  08 09 0A 0B 0C 0D 0E 0F
      -- -- -- -- -- -- -- --  -- -- -- -- -- -- -- --
0000:    66 00 80 F8 FF FF 7F  F8 FF FF 7F 74 6C 6B 30   f..........tlk0
0010: 00                                                .               
```

#### Opcodes

```
  0: 0x0001 [0x66] LOAD_EXT_SCHEDULER_MAIN: Load scheduler "tlk0" with entities [EventEntity, EventEntity], work=0*
  1: 0x0010 [0x00] END_REQSTACK()
```

### Event 65535.2

#### Metadata

| Field        | Value    |
|--------------|----------|
| Entrypoint   | 0x0011   |
| Data Size    | 22 bytes |
| Instructions | 4        |

```
      00 01 02 03 04 05 06 07  08 09 0A 0B 0C 0D 0E 0F
      -- -- -- -- -- -- -- --  -- -- -- -- -- -- -- --
0010:    53 F8 FF FF 7F F8 FF  FF 7F 74 6C 6B 30 5E 69   S........tlk0^i
0020: 64 6C 30 1C 01 80 00                              dl0....         
```

#### Opcodes

```
  0: 0x0011 [0x53] WAIT_SCHEDULER_TASK: Wait for scheduler "tlk0" with entities [EventEntity, EventEntity]
  1: 0x001E [0x5E] EventEntity goes idle (kills current action) (animation: "idl0")
  2: 0x0023 [0x1C] WAIT(30* ticks)
  3: 0x0026 [0x00] END_REQSTACK()
```

### Event 65535.3

#### Metadata

| Field        | Value    |
|--------------|----------|
| Entrypoint   | 0x0027   |
| Data Size    | 16 bytes |
| Instructions | 2        |

```
      00 01 02 03 04 05 06 07  08 09 0A 0B 0C 0D 0E 0F
      -- -- -- -- -- -- -- --  -- -- -- -- -- -- -- --
0020:                      66  00 80 F8 FF FF 7F F8 FF         f........
0030: FF 7F 74 68 6B 31 00                              ..thk1.         
```

#### Opcodes

```
  0: 0x0027 [0x66] LOAD_EXT_SCHEDULER_MAIN: Load scheduler "thk1" with entities [EventEntity, EventEntity], work=0*
  1: 0x0036 [0x00] END_REQSTACK()
```

### Event 65535.4

#### Metadata

| Field        | Value    |
|--------------|----------|
| Entrypoint   | 0x0037   |
| Data Size    | 22 bytes |
| Instructions | 4        |

```
      00 01 02 03 04 05 06 07  08 09 0A 0B 0C 0D 0E 0F
      -- -- -- -- -- -- -- --  -- -- -- -- -- -- -- --
0030:                      53  F8 FF FF 7F F8 FF FF 7F         S........
0040: 74 68 6B 31 5E 69 64 6C  30 1C 01 80 00           thk1^idl0....   
```

#### Opcodes

```
  0: 0x0037 [0x53] WAIT_SCHEDULER_TASK: Wait for scheduler "thk1" with entities [EventEntity, EventEntity]
  1: 0x0044 [0x5E] EventEntity goes idle (kills current action) (animation: "idl0")
  2: 0x0049 [0x1C] WAIT(30* ticks)
  3: 0x004C [0x00] END_REQSTACK()
```

### Event 65535.5

#### Metadata

| Field        | Value   |
|--------------|---------|
| Entrypoint   | 0x004D  |
| Data Size    | 9 bytes |
| Instructions | 3       |

```
      00 01 02 03 04 05 06 07  08 09 0A 0B 0C 0D 0E 0F
      -- -- -- -- -- -- -- --  -- -- -- -- -- -- -- --
0040:                                         5E 69 64               ^id
0050: 6C 30 1C 01 80 00                                 l0....          
```

#### Opcodes

```
  0: 0x004D [0x5E] EventEntity goes idle (kills current action) (animation: "idl0")
  1: 0x0052 [0x1C] WAIT(30* ticks)
  2: 0x0055 [0x00] END_REQSTACK()
```

### Event 652

#### Metadata

| Field        | Value    |
|--------------|----------|
| Entrypoint   | 0x0056   |
| Data Size    | 33 bytes |
| Instructions | 12       |

```
      00 01 02 03 04 05 06 07  08 09 0A 0B 0C 0D 0E 0F
      -- -- -- -- -- -- -- --  -- -- -- -- -- -- -- --
0050:                   1E F0  FF FF 7F 6F 70 29 08 58        .....op).X
0060: E0 0E 01 03 1D 02 80 23  1D 03 80 23 29 08 58 E0  .......#...#).X.
0070: 0E 01 04 20 00 21 00                              ... .!.         
```

#### Opcodes

```
  0: 0x0056 [0x1E] EventEntity looks at LocalPlayer and starts talking
  1: 0x005B [0x6F] WAIT_FRAME_DELAY: Yield until WaitTime reaches zero
  2: 0x005C [0x70] WAIT_ENTITY_RENDER_FLAG: Wait while EventEntity->Render.Flags3 bit 2 is set (cancel turn if not)
  3: 0x005D [0x29] REQ_SET_WAIT(priority=0x08, entity_id=Orn (ID: 17752152/0x010EE058), tag_num=0x03)
  4: 0x0064 [0x1D] PRINT_EVENT_MESSAGE(message_id=9048*)
    → "Ouch... I was attacked by Yagudo the other day, and my wounds still haven't healed."
  5: 0x0067 [0x23] WAIT_FOR_DIALOG_INTERACTION
  6: 0x0068 [0x1D] PRINT_EVENT_MESSAGE(message_id=9050*)
    → "We merchants have to travel in order to make any real money. Yet, as you well know, there are so many strong monsters out there in the wilderness."
  7: 0x006B [0x23] WAIT_FOR_DIALOG_INTERACTION
  8: 0x006C [0x29] REQ_SET_WAIT(priority=0x08, entity_id=Orn (ID: 17752152/0x010EE058), tag_num=0x04)
  9: 0x0073 [0x20] SET_CLI_EVENT_UC_FLAG: Unlock player control
 10: 0x0075 [0x21] END_EVENT
 11: 0x0076 [0x00] END_REQSTACK()
```

### Event 395

#### Metadata

| Field        | Value    |
|--------------|----------|
| Entrypoint   | 0x0077   |
| Data Size    | 33 bytes |
| Instructions | 10       |

```
      00 01 02 03 04 05 06 07  08 09 0A 0B 0C 0D 0E 0F
      -- -- -- -- -- -- -- --  -- -- -- -- -- -- -- --
0070:                      42  1E F0 FF FF 7F 6F 70 29         B.....op)
0080: 0B 58 E0 0E 01 08 29 0B  58 E0 0E 01 09 29 0B 58  .X....).X....).X
0090: E0 0E 01 0A 20 00 21 00                           .... .!.        
```

#### Opcodes

```
  0: 0x0077 [0x42] SET_CLI_EVENT_CANCEL_DATA()
  1: 0x0078 [0x1E] EventEntity looks at LocalPlayer and starts talking
  2: 0x007D [0x6F] WAIT_FRAME_DELAY: Yield until WaitTime reaches zero
  3: 0x007E [0x70] WAIT_ENTITY_RENDER_FLAG: Wait while EventEntity->Render.Flags3 bit 2 is set (cancel turn if not)
  4: 0x007F [0x29] REQ_SET_WAIT(priority=0x0B, entity_id=Orn (ID: 17752152/0x010EE058), tag_num=0x08)
  5: 0x0086 [0x29] REQ_SET_WAIT(priority=0x0B, entity_id=Orn (ID: 17752152/0x010EE058), tag_num=0x09)
  6: 0x008D [0x29] REQ_SET_WAIT(priority=0x0B, entity_id=Orn (ID: 17752152/0x010EE058), tag_num=0x0A)
  7: 0x0094 [0x20] SET_CLI_EVENT_UC_FLAG: Unlock player control
  8: 0x0096 [0x21] END_EVENT
  9: 0x0097 [0x00] END_REQSTACK()
```

### Event 65535.6

#### Metadata

| Field        | Value    |
|--------------|----------|
| Entrypoint   | 0x0098   |
| Data Size    | 23 bytes |
| Instructions | 7        |

```
      00 01 02 03 04 05 06 07  08 09 0A 0B 0C 0D 0E 0F
      -- -- -- -- -- -- -- --  -- -- -- -- -- -- -- --
0090:                          29 08 58 E0 0E 01 03 1D          ).X.....
00A0: 04 80 23 1D 05 80 23 29  08 58 E0 0E 01 04 00     ..#...#).X..... 
```

#### Opcodes

```
  0: 0x0098 [0x29] REQ_SET_WAIT(priority=0x08, entity_id=Orn (ID: 17752152/0x010EE058), tag_num=0x03)
  1: 0x009F [0x1D] PRINT_EVENT_MESSAGE(message_id=8242*)
    → "Who are you?"
  2: 0x00A2 [0x23] WAIT_FOR_DIALOG_INTERACTION
  3: 0x00A3 [0x1D] PRINT_EVENT_MESSAGE(message_id=8243*)
    → "Ah! Oh, no, $6? Gosh, I've been meaning to tell them..."
  4: 0x00A6 [0x23] WAIT_FOR_DIALOG_INTERACTION
  5: 0x00A7 [0x29] REQ_SET_WAIT(priority=0x08, entity_id=Orn (ID: 17752152/0x010EE058), tag_num=0x04)
  6: 0x00AE [0x00] END_REQSTACK()
```

### Event 65535.7

#### Metadata

| Field        | Value    |
|--------------|----------|
| Entrypoint   | 0x00AF   |
| Data Size    | 23 bytes |
| Instructions | 7        |

```
      00 01 02 03 04 05 06 07  08 09 0A 0B 0C 0D 0E 0F
      -- -- -- -- -- -- -- --  -- -- -- -- -- -- -- --
00A0:                                               29                 )
00B0: 08 58 E0 0E 01 01 1D 06  80 23 1D 07 80 23 29 08  .X.......#...#).
00C0: 58 E0 0E 01 02 00                                 X.....          
```

#### Opcodes

```
  0: 0x00AF [0x29] REQ_SET_WAIT(priority=0x08, entity_id=Orn (ID: 17752152/0x010EE058), tag_num=0x01)
  1: 0x00B6 [0x1D] PRINT_EVENT_MESSAGE(message_id=8244*)
    → "I don't know how to say this, but...I kinda lost the library book I borrowed..."
  2: 0x00B9 [0x23] WAIT_FOR_DIALOG_INTERACTION
  3: 0x00BA [0x1D] PRINT_EVENT_MESSAGE(message_id=8245*)
    → "I was on my way back to Mhaura when I was attacked by some Yagudo beastmen. In my desperation to escape, I started to throw my belongings at them..."
  4: 0x00BD [0x23] WAIT_FOR_DIALOG_INTERACTION
  5: 0x00BE [0x29] REQ_SET_WAIT(priority=0x08, entity_id=Orn (ID: 17752152/0x010EE058), tag_num=0x02)
  6: 0x00C5 [0x00] END_REQSTACK()
```

### Event 65535.8

#### Metadata

| Field        | Value    |
|--------------|----------|
| Entrypoint   | 0x00C6   |
| Data Size    | 23 bytes |
| Instructions | 7        |

```
      00 01 02 03 04 05 06 07  08 09 0A 0B 0C 0D 0E 0F
      -- -- -- -- -- -- -- --  -- -- -- -- -- -- -- --
00C0:                   29 08  58 E0 0E 01 01 1D 08 80        ).X.......
00D0: 23 1D 09 80 23 29 08 58  E0 0E 01 02 00           #...#).X.....   
```

#### Opcodes

```
  0: 0x00C6 [0x29] REQ_SET_WAIT(priority=0x08, entity_id=Orn (ID: 17752152/0x010EE058), tag_num=0x01)
  1: 0x00CD [0x1D] PRINT_EVENT_MESSAGE(message_id=8246*)
    → "...Including that library book! I was intending to return to Mhaura and raise some money to take back to the library..."
  2: 0x00D0 [0x23] WAIT_FOR_DIALOG_INTERACTION
  3: 0x00D1 [0x1D] PRINT_EVENT_MESSAGE(message_id=8247*)
    → "...so I was wondering, could you ask the librarians to give me a little extension on the due date?"
  4: 0x00D4 [0x23] WAIT_FOR_DIALOG_INTERACTION
  5: 0x00D5 [0x29] REQ_SET_WAIT(priority=0x08, entity_id=Orn (ID: 17752152/0x010EE058), tag_num=0x02)
  6: 0x00DC [0x00] END_REQSTACK()
```

### Event 396

#### Metadata

| Field        | Value    |
|--------------|----------|
| Entrypoint   | 0x00DD   |
| Data Size    | 31 bytes |
| Instructions | 11       |

```
      00 01 02 03 04 05 06 07  08 09 0A 0B 0C 0D 0E 0F
      -- -- -- -- -- -- -- --  -- -- -- -- -- -- -- --
00D0:                                         1E F0 FF               ...
00E0: FF 7F 6F 70 29 08 58 E0  0E 01 01 1D 0A 80 23 1D  ..op).X.......#.
00F0: 0B 80 23 29 08 58 E0 0E  01 02 21 00              ..#).X....!.    
```

#### Opcodes

```
  0: 0x00DD [0x1E] EventEntity looks at LocalPlayer and starts talking
  1: 0x00E2 [0x6F] WAIT_FRAME_DELAY: Yield until WaitTime reaches zero
  2: 0x00E3 [0x70] WAIT_ENTITY_RENDER_FLAG: Wait while EventEntity->Render.Flags3 bit 2 is set (cancel turn if not)
  3: 0x00E4 [0x29] REQ_SET_WAIT(priority=0x08, entity_id=Orn (ID: 17752152/0x010EE058), tag_num=0x01)
  4: 0x00EB [0x1D] PRINT_EVENT_MESSAGE(message_id=8248*)
    → "Some guy told me that the stuff the Yagudo steal is massed in the treasure chamber in the depths of Giddeus... But I can't exactly walk in there and get it now, can I?"
  5: 0x00EE [0x23] WAIT_FOR_DIALOG_INTERACTION
  6: 0x00EF [0x1D] PRINT_EVENT_MESSAGE(message_id=8249*)
    → "Yagudo are smarter than your average monster, and tend to be downright vicious."
  7: 0x00F2 [0x23] WAIT_FOR_DIALOG_INTERACTION
  8: 0x00F3 [0x29] REQ_SET_WAIT(priority=0x08, entity_id=Orn (ID: 17752152/0x010EE058), tag_num=0x02)
  9: 0x00FA [0x21] END_EVENT
 10: 0x00FB [0x00] END_REQSTACK()
```

### Event 398

#### Metadata

| Field        | Value    |
|--------------|----------|
| Entrypoint   | 0x00FC   |
| Data Size    | 26 bytes |
| Instructions | 9        |

```
      00 01 02 03 04 05 06 07  08 09 0A 0B 0C 0D 0E 0F
      -- -- -- -- -- -- -- --  -- -- -- -- -- -- -- --
00F0:                                      42 1E F0 FF              B...
0100: FF 7F 6F 70 29 0B 58 E0  0E 01 0D 29 0B 58 E0 0E  ..op).X....).X..
0110: 01 0E 20 00 21 00                                 .. .!.          
```

#### Opcodes

```
  0: 0x00FC [0x42] SET_CLI_EVENT_CANCEL_DATA()
  1: 0x00FD [0x1E] EventEntity looks at LocalPlayer and starts talking
  2: 0x0102 [0x6F] WAIT_FRAME_DELAY: Yield until WaitTime reaches zero
  3: 0x0103 [0x70] WAIT_ENTITY_RENDER_FLAG: Wait while EventEntity->Render.Flags3 bit 2 is set (cancel turn if not)
  4: 0x0104 [0x29] REQ_SET_WAIT(priority=0x0B, entity_id=Orn (ID: 17752152/0x010EE058), tag_num=0x0D)
  5: 0x010B [0x29] REQ_SET_WAIT(priority=0x0B, entity_id=Orn (ID: 17752152/0x010EE058), tag_num=0x0E)
  6: 0x0112 [0x20] SET_CLI_EVENT_UC_FLAG: Unlock player control
  7: 0x0114 [0x21] END_EVENT
  8: 0x0115 [0x00] END_REQSTACK()
```

### Event 65535.9

#### Metadata

| Field        | Value    |
|--------------|----------|
| Entrypoint   | 0x0116   |
| Data Size    | 23 bytes |
| Instructions | 7        |

```
      00 01 02 03 04 05 06 07  08 09 0A 0B 0C 0D 0E 0F
      -- -- -- -- -- -- -- --  -- -- -- -- -- -- -- --
0110:                   29 08  58 E0 0E 01 01 1D 0C 80        ).X.......
0120: 23 1D 0D 80 23 29 08 58  E0 0E 01 05 00           #...#).X.....   
```

#### Opcodes

```
  0: 0x0116 [0x29] REQ_SET_WAIT(priority=0x08, entity_id=Orn (ID: 17752152/0x010EE058), tag_num=0x01)
  1: 0x011D [0x1D] PRINT_EVENT_MESSAGE(message_id=8253*)
    → "That book you've got there!? Don't tell me you went all the way into the nest of the Yagudo in Giddeus!"
  2: 0x0120 [0x23] WAIT_FOR_DIALOG_INTERACTION
  3: 0x0121 [0x1D] PRINT_EVENT_MESSAGE(message_id=8254*)
    → "What a courageous person you are! I can't believe you convinced the Yagudo to give the book back! I'm truly impressed!"
  4: 0x0124 [0x23] WAIT_FOR_DIALOG_INTERACTION
  5: 0x0125 [0x29] REQ_SET_WAIT(priority=0x08, entity_id=Orn (ID: 17752152/0x010EE058), tag_num=0x05)
  6: 0x012C [0x00] END_REQSTACK()
```

### Event 399

#### Metadata

| Field        | Value    |
|--------------|----------|
| Entrypoint   | 0x012D   |
| Data Size    | 33 bytes |
| Instructions | 12       |

```
      00 01 02 03 04 05 06 07  08 09 0A 0B 0C 0D 0E 0F
      -- -- -- -- -- -- -- --  -- -- -- -- -- -- -- --
0120:                                         1E F0 FF               ...
0130: FF 7F 6F 70 29 08 58 E0  0E 01 01 1D 0E 80 23 1D  ..op).X.......#.
0140: 0F 80 23 29 08 58 E0 0E  01 05 20 00 21 00        ..#).X.... .!.  
```

#### Opcodes

```
  0: 0x012D [0x1E] EventEntity looks at LocalPlayer and starts talking
  1: 0x0132 [0x6F] WAIT_FRAME_DELAY: Yield until WaitTime reaches zero
  2: 0x0133 [0x70] WAIT_ENTITY_RENDER_FLAG: Wait while EventEntity->Render.Flags3 bit 2 is set (cancel turn if not)
  3: 0x0134 [0x29] REQ_SET_WAIT(priority=0x08, entity_id=Orn (ID: 17752152/0x010EE058), tag_num=0x01)
  4: 0x013B [0x1D] PRINT_EVENT_MESSAGE(message_id=8255*)
    → "Sorry to ask, seeing as you went out of your way and all, but...could you be so good as to return it to the Library of Magic for me?"
  5: 0x013E [0x23] WAIT_FOR_DIALOG_INTERACTION
  6: 0x013F [0x1D] PRINT_EVENT_MESSAGE(message_id=8256*)
    → "I can't possibly show my face in there ever again!"
  7: 0x0142 [0x23] WAIT_FOR_DIALOG_INTERACTION
  8: 0x0143 [0x29] REQ_SET_WAIT(priority=0x08, entity_id=Orn (ID: 17752152/0x010EE058), tag_num=0x05)
  9: 0x014A [0x20] SET_CLI_EVENT_UC_FLAG: Unlock player control
 10: 0x014C [0x21] END_EVENT
 11: 0x014D [0x00] END_REQSTACK()
```
