# 17752074 - Ajido-Marujido

## Common Data

| Field            | Value                     |
|------------------|---------------------------|
| Zone             | Windurst Waters (ID: 238) |
| Block Size       | 1972 bytes                |
| Total Events     | 69                        |
| References Count | 82                        |

## List of Events

| Event ID                   | Entrypoint   |   Size |   Instructions |
|----------------------------|--------------|--------|----------------|
| [65535](#event-65535)      | 0x0000       |      1 |              1 |
| [65535.1](#event-655351)   | 0x0001       |     16 |              2 |
| [65535.2](#event-655352)   | 0x0011       |     14 |              2 |
| [65535.3](#event-655353)   | 0x001F       |     16 |              2 |
| [65535.4](#event-655354)   | 0x002F       |     14 |              2 |
| [65535.5](#event-655355)   | 0x003D       |     22 |              3 |
| [65535.6](#event-655356)   | 0x0053       |     14 |              2 |
| [65535.7](#event-655357)   | 0x0061       |     16 |              2 |
| [65535.8](#event-655358)   | 0x0071       |     20 |              3 |
| [65535.9](#event-655359)   | 0x0085       |     22 |              3 |
| [65535.10](#event-6553510) | 0x009B       |     14 |              2 |
| [65535.11](#event-6553511) | 0x00A9       |     16 |              2 |
| [65535.12](#event-6553512) | 0x00B9       |     20 |              3 |
| [65535.13](#event-6553513) | 0x00CD       |     16 |              2 |
| [65535.14](#event-6553514) | 0x00DD       |     14 |              2 |
| [65535.15](#event-6553515) | 0x00EB       |     16 |              2 |
| [65535.16](#event-6553516) | 0x00FB       |     14 |              2 |
| [65535.17](#event-6553517) | 0x0109       |     16 |              2 |
| [65535.18](#event-6553518) | 0x0119       |     14 |              2 |
| [65535.19](#event-6553519) | 0x0127       |     16 |              2 |
| [65535.20](#event-6553520) | 0x0137       |     22 |              4 |
| [65535.21](#event-6553521) | 0x014D       |     16 |              2 |
| [65535.22](#event-6553522) | 0x015D       |     14 |              2 |
| [65535.23](#event-6553523) | 0x016B       |      9 |              3 |
| [11](#event-11)            | 0x0174       |      1 |              1 |
| [531](#event-531)          | 0x0175       |      3 |              2 |
| [65535.24](#event-6553524) | 0x0178       |     26 |              7 |
| [65535.25](#event-6553525) | 0x0192       |     51 |             13 |
| [65535.26](#event-6553526) | 0x01C5       |     12 |              4 |
| [65535.27](#event-6553527) | 0x01D1       |     19 |              5 |
| [65535.28](#event-6553528) | 0x01E4       |     15 |              5 |
| [65535.29](#event-6553529) | 0x01F3       |     35 |              9 |
| [65535.30](#event-6553530) | 0x0216       |     19 |              5 |
| [65535.31](#event-6553531) | 0x0229       |     19 |              5 |
| [65535.32](#event-6553532) | 0x023C       |     37 |              9 |
| [65535.33](#event-6553533) | 0x0261       |     19 |              5 |
| [65535.34](#event-6553534) | 0x0274       |     19 |              5 |
| [65535.35](#event-6553535) | 0x0287       |     19 |              5 |
| [65535.36](#event-6553536) | 0x029A       |     19 |              5 |
| [65535.37](#event-6553537) | 0x02AD       |     23 |              7 |
| [65535.38](#event-6553538) | 0x02C4       |      5 |              3 |
| [65535.39](#event-6553539) | 0x02C9       |     19 |              5 |
| [65535.40](#event-6553540) | 0x02DC       |      5 |              3 |
| [65535.41](#event-6553541) | 0x02E1       |      5 |              3 |
| [65535.42](#event-6553542) | 0x02E6       |     19 |              5 |
| [65535.43](#event-6553543) | 0x02F9       |     19 |              5 |
| [65535.44](#event-6553544) | 0x030C       |     19 |              5 |
| [65535.45](#event-6553545) | 0x031F       |     24 |              8 |
| [65535.46](#event-6553546) | 0x0337       |      5 |              3 |
| [65535.47](#event-6553547) | 0x033C       |     19 |              5 |
| [65535.48](#event-6553548) | 0x034F       |     19 |              5 |
| [65535.49](#event-6553549) | 0x0362       |      5 |              3 |
| [65535.50](#event-6553550) | 0x0367       |     19 |              5 |
| [65535.51](#event-6553551) | 0x037A       |     19 |              5 |
| [65535.52](#event-6553552) | 0x038D       |     19 |              5 |
| [65535.53](#event-6553553) | 0x03A0       |     19 |              5 |
| [65535.54](#event-6553554) | 0x03B3       |     19 |              5 |
| [65535.55](#event-6553555) | 0x03C6       |      5 |              3 |
| [65535.56](#event-6553556) | 0x03CB       |     19 |              5 |
| [65535.57](#event-6553557) | 0x03DE       |     19 |              5 |
| [65535.58](#event-6553558) | 0x03F1       |     19 |              5 |
| [65535.59](#event-6553559) | 0x0404       |     19 |              5 |
| [65535.60](#event-6553560) | 0x0417       |    200 |             32 |
| [146](#event-146)          | 0x04DF       |      1 |              1 |
| [65535.61](#event-6553561) | 0x04E0       |     12 |              3 |
| [65535.62](#event-6553562) | 0x04EC       |     21 |              6 |
| [65535.63](#event-6553563) | 0x0501       |     30 |              8 |
| [65535.64](#event-6553564) | 0x051F       |     19 |              5 |
| [65535.65](#event-6553565) | 0x0532       |     19 |              5 |

## DAT References (imed_data)

|   Index | Hex Value   |   Dec Value |
|---------|-------------|-------------|
|       0 | 0x00A5      |         165 |
|       1 | 0x0151      |         337 |
|       2 | 0x0155      |         341 |
|       3 | 0x001E      |          30 |
|       4 | 0x0153      |         339 |
|       5 | 0xFFFF5B34  |  4294925108 |
|       6 | 0x1315B     |       78171 |
|       7 | 0xFFFFEC79  |  4294962297 |
|       8 | 0x0BF6      |        3062 |
|       9 | 0x0028      |          40 |
|      10 | 0xFFFF5C24  |  4294925348 |
|      11 | 0x15934     |       88372 |
|      12 | 0x000A      |          10 |
|      13 | 0x003C      |          60 |
|      14 | 0x000D      |          13 |
|      15 | 0xFFFF5A0A  |  4294924810 |
|      16 | 0x15002     |       86018 |
|      17 | 0xFFFF5C94  |  4294925460 |
|      18 | 0x1544C     |       87116 |
|      19 | 0xFFFF5F6A  |  4294926186 |
|      20 | 0x1D3DE     |      119774 |
|      21 | 0xFFFF5EFC  |  4294926076 |
|      22 | 0x29446     |      169030 |
|      23 | 0xFFFFEC28  |  4294962216 |
|      24 | 0xFFFF3D82  |  4294917506 |
|      25 | 0x2C2B8     |      180920 |
|      26 | 0xFFFFE6C4  |  4294960836 |
|      27 | 0x21A2      |        8610 |
|      28 | 0x21A3      |        8611 |
|      29 | 0x21A4      |        8612 |
|      30 | 0x21A5      |        8613 |
|      31 | 0x21A8      |        8616 |
|      32 | 0x21AD      |        8621 |
|      33 | 0x21B2      |        8626 |
|      34 | 0x21B4      |        8628 |
|      35 | 0x21BA      |        8634 |
|      36 | 0x21BB      |        8635 |
|      37 | 0x21BD      |        8637 |
|      38 | 0x21C2      |        8642 |
|      39 | 0x21DB      |        8667 |
|      40 | 0x21DC      |        8668 |
|      41 | 0x21DD      |        8669 |
|      42 | 0x21EE      |        8686 |
|      43 | 0x21EF      |        8687 |
|      44 | 0x21F1      |        8689 |
|      45 | 0x21F2      |        8690 |
|      46 | 0x21F4      |        8692 |
|      47 | 0x21E3      |        8675 |
|      48 | 0x21E7      |        8679 |
|      49 | 0x21E8      |        8680 |
|      50 | 0x2218      |        8728 |
|      51 | 0x221D      |        8733 |
|      52 | 0x2225      |        8741 |
|      53 | 0x2228      |        8744 |
|      54 | 0x21FC      |        8700 |
|      55 | 0x21FE      |        8702 |
|      56 | 0x21FF      |        8703 |
|      57 | 0x220A      |        8714 |
|      58 | 0x220D      |        8717 |
|      59 | 0x2211      |        8721 |
|      60 | 0x2212      |        8722 |
|      61 | 0x2213      |        8723 |
|      62 | 0x008A      |         138 |
|      63 | 0x0000      |           0 |
|      64 | 0x1BAA      |        7082 |
|      65 | 0x00EE      |         238 |
|      66 | 0x0001      |           1 |
|      67 | 0xFFFF738B  |  4294931339 |
|      68 | 0xE87F      |       59519 |
|      69 | 0x1BAB      |        7083 |
|      70 | 0x2214      |        8724 |
|      71 | 0x3AD7      |       15063 |
|      72 | 0xFFFCFCDF  |  4294769887 |
|      73 | 0xFFFFD9EA  |  4294957546 |
|      74 | 0x061F      |        1567 |
|      75 | 0x5FAA      |       24490 |
|      76 | 0xFFFCFA16  |  4294769174 |
|      77 | 0xFFFFD9EB  |  4294957547 |
|      78 | 0x1DC4      |        7620 |
|      79 | 0x1DC5      |        7621 |
|      80 | 0x1DC7      |        7623 |
|      81 | 0x1DC8      |        7624 |

## String References

- **7620**: I know, I know. That's why I'm asking you for your cooperation.
- **7621**: Our objectives coincide... I'm in search of Karaha-Baruha's laboratory, and you're in search of the great beast's lair.
- **7623**: You don't get what I'm saying. That's why I'm asking you! Listen. On the night Rukususu comes back from the Northlands...
- **7624**: ...Let's continue this discussion later! Ta-taru!
- **8610**: What's the mattaru?
- **8611**: Oh... Seeing you standing there gazing into the distance, I thought you were looking at something interesting. Seems as though you were just taking in the atmosphere of peaceful old Windurst.
- **8612**: But I couldn't say that these are the most peaceful times Windurst has seen...
- **8613**: If the Great Tree were to wither up and die, this whole country would pass away with it. Sadly, that end could be nigh...
- **8616**: You've got it all wrong again, Apururu. This poor adventurer was lost, so I kindly offered to help. Isn't that rightaru?
- **8621**: Oh, really? Are you trying to trick us city folk into thinking you're not some yokel or country bumpkin?
- **8626**: Heh, brawn over brain, huh? As I always say, a life lived short is a life lived well!
- **8628**: Why? It's true, isn'taru it?
- **8634**: ...But whether or not there are fellow adventurers nearby who want to lend you a hand is another mattaru.
- **8635**: If no one comes to your help, well, that's just your bad luck, I suppose.
- **8637**: ......
- **8642**: Enough already! So much information at once is bound to confuse even the smartest Tarutaru. Besides, I don't have the time to be offering newbie-woobies free tours of our town.
- **8667**: ...Phew! Impossible to get a word in edgewise, isn't it? She may be my little sister, but I don't understand her at all.
- **8668**: Well, I'd best be off, too. See you around, I suppose. Ta-taru!
- **8669**: Duh! That's easy-weasy. Just walk around the whole town and talk to anybody and everybody.
- **8675**: Humph. Watch out if you're going to deal with her. She loves to boss people around. Especially new arrivals like yourself.
- **8679**: What did you call me!? That's rich, coming from fuddy-duddy, hoity-toity, you! Don't forget who's been looking after you all these years!
- **8680**: Well, I never! I don't have the time for this nonsense. I'm off!
- **8686**: Don't be too hard on novice adventurers. I think it's only rational to first improve one's economic standing before setting out on a new adventuring enterprise.
- **8687**: In fact, I think I know justaru the right person to help you out...
- **8689**: The hatter! Lately he's been calling out to my students, telling them that he'll give them some pocket money if they help him show off his wares.
- **8690**: I'd say that the shape of your head isn't too displeasing, so you might be able to earn some money...
- **8692**: ...See, then it's up to how well our friend performs. The more effort one puts in, the more one will earn!
- **8700**: I hate that place. Windurst Woods is all so higgledy-piggledy, I get lost every time I try to walk through it.
- **8702**: But I don't go to those places. I usually go to... ...... ............
- **8703**: Oh, no! I totally forgotaru! I should be preparing for my experiment. Sorry. I've got to run!
- **8714**: In other words, you're the lowest of the low, the weakest of the weak...
- **8717**: Yeah, and then you'll be second-lowest of the low, the second most weakest of the weak...
- **8721**: Yeah, if your rank goes up enough, you might even be able to talk to us on equal footing.
- **8722**: If you need to know anything else, ask our friend, Jack of Hearts. He's on patrol near the Huntsman's Court.
- **8723**: Here. If you give old Jack this, I'm sure he'll reward you. To pass him it, target him and select "Trade" from the main menu.
- **8724**: That's all the help I can give you for now. Well, see you around, newbie.
- **8728**: This is Tarutaru. We are Windurst. You are our new slave...
- **8733**: These three ministries are known as the Optistery, Rhinostery, and Aurastery. Respectively, they administrate a library, biological laboratory, and magic school.
- **8741**: Oh, yeah, and I'm Ajido-Marujido. It'll pay to remember me.
- **8744**: Hah! Friends... I had better warn you...don't go around telling people you're my friend, rightaru?

## Events

### Event 65535

#### Metadata

| Field        | Value   |
|--------------|---------|
| Entrypoint   | 0x0000  |
| Data Size    | 1 bytes |
| Instructions | 1       |

```
      00 01 02 03 04 05 06 07  08 09 0A 0B 0C 0D 0E 0F
      -- -- -- -- -- -- -- --  -- -- -- -- -- -- -- --
0000: 00                                                .               
```

#### Opcodes

```
  0: 0x0000 [0x00] END_REQSTACK()
```

### Event 65535.1

#### Metadata

| Field        | Value    |
|--------------|----------|
| Entrypoint   | 0x0001   |
| Data Size    | 16 bytes |
| Instructions | 2        |

```
      00 01 02 03 04 05 06 07  08 09 0A 0B 0C 0D 0E 0F
      -- -- -- -- -- -- -- --  -- -- -- -- -- -- -- --
0000:    5B 00 80 F8 FF FF 7F  F8 FF FF 7F 74 6C 6B 30   [..........tlk0
0010: 00                                                .               
```

#### Opcodes

```
  0: 0x0001 [0x5B] LOAD_EXT_SCHEDULER: Load scheduler "tlk0" with entities [EventEntity, EventEntity], work=165*
  1: 0x0010 [0x00] END_REQSTACK()
```

### Event 65535.2

#### Metadata

| Field        | Value    |
|--------------|----------|
| Entrypoint   | 0x0011   |
| Data Size    | 14 bytes |
| Instructions | 2        |

```
      00 01 02 03 04 05 06 07  08 09 0A 0B 0C 0D 0E 0F
      -- -- -- -- -- -- -- --  -- -- -- -- -- -- -- --
0010:    53 F8 FF FF 7F F8 FF  FF 7F 74 6C 6B 30 00      S........tlk0. 
```

#### Opcodes

```
  0: 0x0011 [0x53] WAIT_SCHEDULER_TASK: Wait for scheduler "tlk0" with entities [EventEntity, EventEntity]
  1: 0x001E [0x00] END_REQSTACK()
```

### Event 65535.3

#### Metadata

| Field        | Value    |
|--------------|----------|
| Entrypoint   | 0x001F   |
| Data Size    | 16 bytes |
| Instructions | 2        |

```
      00 01 02 03 04 05 06 07  08 09 0A 0B 0C 0D 0E 0F
      -- -- -- -- -- -- -- --  -- -- -- -- -- -- -- --
0010:                                               5B                 [
0020: 00 80 F8 FF FF 7F F8 FF  FF 7F 74 6C 6B 31 00     ..........tlk1. 
```

#### Opcodes

```
  0: 0x001F [0x5B] LOAD_EXT_SCHEDULER: Load scheduler "tlk1" with entities [EventEntity, EventEntity], work=165*
  1: 0x002E [0x00] END_REQSTACK()
```

### Event 65535.4

#### Metadata

| Field        | Value    |
|--------------|----------|
| Entrypoint   | 0x002F   |
| Data Size    | 14 bytes |
| Instructions | 2        |

```
      00 01 02 03 04 05 06 07  08 09 0A 0B 0C 0D 0E 0F
      -- -- -- -- -- -- -- --  -- -- -- -- -- -- -- --
0020:                                               53                 S
0030: F8 FF FF 7F F8 FF FF 7F  74 6C 6B 31 00           ........tlk1.   
```

#### Opcodes

```
  0: 0x002F [0x53] WAIT_SCHEDULER_TASK: Wait for scheduler "tlk1" with entities [EventEntity, EventEntity]
  1: 0x003C [0x00] END_REQSTACK()
```

### Event 65535.5

#### Metadata

| Field        | Value    |
|--------------|----------|
| Entrypoint   | 0x003D   |
| Data Size    | 22 bytes |
| Instructions | 3        |

```
      00 01 02 03 04 05 06 07  08 09 0A 0B 0C 0D 0E 0F
      -- -- -- -- -- -- -- --  -- -- -- -- -- -- -- --
0030:                                         81 00 F8               ...
0040: FF FF 7F 5B 00 80 F8 FF  FF 7F F8 FF FF 7F 6B 62  ...[..........kb
0050: 6B 30 00                                          k0.             
```

#### Opcodes

```
  0: 0x003D [0x81] SET_ENTITY_BLINKING(blink_flag=0x00, entity=EventEntity)
  1: 0x0043 [0x5B] LOAD_EXT_SCHEDULER: Load scheduler "kbk0" with entities [EventEntity, EventEntity], work=165*
  2: 0x0052 [0x00] END_REQSTACK()
```

### Event 65535.6

#### Metadata

| Field        | Value    |
|--------------|----------|
| Entrypoint   | 0x0053   |
| Data Size    | 14 bytes |
| Instructions | 2        |

```
      00 01 02 03 04 05 06 07  08 09 0A 0B 0C 0D 0E 0F
      -- -- -- -- -- -- -- --  -- -- -- -- -- -- -- --
0050:          53 F8 FF FF 7F  F8 FF FF 7F 6B 62 6B 30     S........kbk0
0060: 00                                                .               
```

#### Opcodes

```
  0: 0x0053 [0x53] WAIT_SCHEDULER_TASK: Wait for scheduler "kbk0" with entities [EventEntity, EventEntity]
  1: 0x0060 [0x00] END_REQSTACK()
```

### Event 65535.7

#### Metadata

| Field        | Value    |
|--------------|----------|
| Entrypoint   | 0x0061   |
| Data Size    | 16 bytes |
| Instructions | 2        |

```
      00 01 02 03 04 05 06 07  08 09 0A 0B 0C 0D 0E 0F
      -- -- -- -- -- -- -- --  -- -- -- -- -- -- -- --
0060:    5B 00 80 F8 FF FF 7F  F8 FF FF 7F 6B 62 6B 31   [..........kbk1
0070: 00                                                .               
```

#### Opcodes

```
  0: 0x0061 [0x5B] LOAD_EXT_SCHEDULER: Load scheduler "kbk1" with entities [EventEntity, EventEntity], work=165*
  1: 0x0070 [0x00] END_REQSTACK()
```

### Event 65535.8

#### Metadata

| Field        | Value    |
|--------------|----------|
| Entrypoint   | 0x0071   |
| Data Size    | 20 bytes |
| Instructions | 3        |

```
      00 01 02 03 04 05 06 07  08 09 0A 0B 0C 0D 0E 0F
      -- -- -- -- -- -- -- --  -- -- -- -- -- -- -- --
0070:    53 F8 FF FF 7F F8 FF  FF 7F 6B 62 6B 31 81 01   S........kbk1..
0080: F8 FF FF 7F 00                                    .....           
```

#### Opcodes

```
  0: 0x0071 [0x53] WAIT_SCHEDULER_TASK: Wait for scheduler "kbk1" with entities [EventEntity, EventEntity]
  1: 0x007E [0x81] SET_ENTITY_BLINKING(blink_flag=0x01, entity=EventEntity)
  2: 0x0084 [0x00] END_REQSTACK()
```

### Event 65535.9

#### Metadata

| Field        | Value    |
|--------------|----------|
| Entrypoint   | 0x0085   |
| Data Size    | 22 bytes |
| Instructions | 3        |

```
      00 01 02 03 04 05 06 07  08 09 0A 0B 0C 0D 0E 0F
      -- -- -- -- -- -- -- --  -- -- -- -- -- -- -- --
0080:                81 00 F8  FF FF 7F 5B 00 80 F8 FF       ......[....
0090: FF 7F F8 FF FF 7F 73 70  70 30 00                 ......spp0.     
```

#### Opcodes

```
  0: 0x0085 [0x81] SET_ENTITY_BLINKING(blink_flag=0x00, entity=EventEntity)
  1: 0x008B [0x5B] LOAD_EXT_SCHEDULER: Load scheduler "spp0" with entities [EventEntity, EventEntity], work=165*
  2: 0x009A [0x00] END_REQSTACK()
```

### Event 65535.10

#### Metadata

| Field        | Value    |
|--------------|----------|
| Entrypoint   | 0x009B   |
| Data Size    | 14 bytes |
| Instructions | 2        |

```
      00 01 02 03 04 05 06 07  08 09 0A 0B 0C 0D 0E 0F
      -- -- -- -- -- -- -- --  -- -- -- -- -- -- -- --
0090:                                   53 F8 FF FF 7F             S....
00A0: F8 FF FF 7F 73 70 70 30  00                       ....spp0.       
```

#### Opcodes

```
  0: 0x009B [0x53] WAIT_SCHEDULER_TASK: Wait for scheduler "spp0" with entities [EventEntity, EventEntity]
  1: 0x00A8 [0x00] END_REQSTACK()
```

### Event 65535.11

#### Metadata

| Field        | Value    |
|--------------|----------|
| Entrypoint   | 0x00A9   |
| Data Size    | 16 bytes |
| Instructions | 2        |

```
      00 01 02 03 04 05 06 07  08 09 0A 0B 0C 0D 0E 0F
      -- -- -- -- -- -- -- --  -- -- -- -- -- -- -- --
00A0:                             5B 00 80 F8 FF FF 7F           [......
00B0: F8 FF FF 7F 73 70 70 31  00                       ....spp1.       
```

#### Opcodes

```
  0: 0x00A9 [0x5B] LOAD_EXT_SCHEDULER: Load scheduler "spp1" with entities [EventEntity, EventEntity], work=165*
  1: 0x00B8 [0x00] END_REQSTACK()
```

### Event 65535.12

#### Metadata

| Field        | Value    |
|--------------|----------|
| Entrypoint   | 0x00B9   |
| Data Size    | 20 bytes |
| Instructions | 3        |

```
      00 01 02 03 04 05 06 07  08 09 0A 0B 0C 0D 0E 0F
      -- -- -- -- -- -- -- --  -- -- -- -- -- -- -- --
00B0:                             53 F8 FF FF 7F F8 FF           S......
00C0: FF 7F 73 70 70 31 81 01  F8 FF FF 7F 00           ..spp1.......   
```

#### Opcodes

```
  0: 0x00B9 [0x53] WAIT_SCHEDULER_TASK: Wait for scheduler "spp1" with entities [EventEntity, EventEntity]
  1: 0x00C6 [0x81] SET_ENTITY_BLINKING(blink_flag=0x01, entity=EventEntity)
  2: 0x00CC [0x00] END_REQSTACK()
```

### Event 65535.13

#### Metadata

| Field        | Value    |
|--------------|----------|
| Entrypoint   | 0x00CD   |
| Data Size    | 16 bytes |
| Instructions | 2        |

```
      00 01 02 03 04 05 06 07  08 09 0A 0B 0C 0D 0E 0F
      -- -- -- -- -- -- -- --  -- -- -- -- -- -- -- --
00C0:                                         5B 01 80               [..
00D0: F8 FF FF 7F F8 FF FF 7F  74 68 6B 31 00           ........thk1.   
```

#### Opcodes

```
  0: 0x00CD [0x5B] LOAD_EXT_SCHEDULER: Load scheduler "thk1" with entities [EventEntity, EventEntity], work=337*
  1: 0x00DC [0x00] END_REQSTACK()
```

### Event 65535.14

#### Metadata

| Field        | Value    |
|--------------|----------|
| Entrypoint   | 0x00DD   |
| Data Size    | 14 bytes |
| Instructions | 2        |

```
      00 01 02 03 04 05 06 07  08 09 0A 0B 0C 0D 0E 0F
      -- -- -- -- -- -- -- --  -- -- -- -- -- -- -- --
00D0:                                         53 F8 FF               S..
00E0: FF 7F F8 FF FF 7F 74 68  6B 31 00                 ......thk1.     
```

#### Opcodes

```
  0: 0x00DD [0x53] WAIT_SCHEDULER_TASK: Wait for scheduler "thk1" with entities [EventEntity, EventEntity]
  1: 0x00EA [0x00] END_REQSTACK()
```

### Event 65535.15

#### Metadata

| Field        | Value    |
|--------------|----------|
| Entrypoint   | 0x00EB   |
| Data Size    | 16 bytes |
| Instructions | 2        |

```
      00 01 02 03 04 05 06 07  08 09 0A 0B 0C 0D 0E 0F
      -- -- -- -- -- -- -- --  -- -- -- -- -- -- -- --
00E0:                                   5B 01 80 F8 FF             [....
00F0: FF 7F F8 FF FF 7F 74 68  6B 32 00                 ......thk2.     
```

#### Opcodes

```
  0: 0x00EB [0x5B] LOAD_EXT_SCHEDULER: Load scheduler "thk2" with entities [EventEntity, EventEntity], work=337*
  1: 0x00FA [0x00] END_REQSTACK()
```

### Event 65535.16

#### Metadata

| Field        | Value    |
|--------------|----------|
| Entrypoint   | 0x00FB   |
| Data Size    | 14 bytes |
| Instructions | 2        |

```
      00 01 02 03 04 05 06 07  08 09 0A 0B 0C 0D 0E 0F
      -- -- -- -- -- -- -- --  -- -- -- -- -- -- -- --
00F0:                                   53 F8 FF FF 7F             S....
0100: F8 FF FF 7F 74 68 6B 32  00                       ....thk2.       
```

#### Opcodes

```
  0: 0x00FB [0x53] WAIT_SCHEDULER_TASK: Wait for scheduler "thk2" with entities [EventEntity, EventEntity]
  1: 0x0108 [0x00] END_REQSTACK()
```

### Event 65535.17

#### Metadata

| Field        | Value    |
|--------------|----------|
| Entrypoint   | 0x0109   |
| Data Size    | 16 bytes |
| Instructions | 2        |

```
      00 01 02 03 04 05 06 07  08 09 0A 0B 0C 0D 0E 0F
      -- -- -- -- -- -- -- --  -- -- -- -- -- -- -- --
0100:                             5B 01 80 F8 FF FF 7F           [......
0110: F8 FF FF 7F 70 61 73 30  00                       ....pas0.       
```

#### Opcodes

```
  0: 0x0109 [0x5B] LOAD_EXT_SCHEDULER: Load scheduler "pas0" with entities [EventEntity, EventEntity], work=337*
  1: 0x0118 [0x00] END_REQSTACK()
```

### Event 65535.18

#### Metadata

| Field        | Value    |
|--------------|----------|
| Entrypoint   | 0x0119   |
| Data Size    | 14 bytes |
| Instructions | 2        |

```
      00 01 02 03 04 05 06 07  08 09 0A 0B 0C 0D 0E 0F
      -- -- -- -- -- -- -- --  -- -- -- -- -- -- -- --
0110:                             53 F8 FF FF 7F F8 FF           S......
0120: FF 7F 70 61 73 30 00                              ..pas0.         
```

#### Opcodes

```
  0: 0x0119 [0x53] WAIT_SCHEDULER_TASK: Wait for scheduler "pas0" with entities [EventEntity, EventEntity]
  1: 0x0126 [0x00] END_REQSTACK()
```

### Event 65535.19

#### Metadata

| Field        | Value    |
|--------------|----------|
| Entrypoint   | 0x0127   |
| Data Size    | 16 bytes |
| Instructions | 2        |

```
      00 01 02 03 04 05 06 07  08 09 0A 0B 0C 0D 0E 0F
      -- -- -- -- -- -- -- --  -- -- -- -- -- -- -- --
0120:                      5B  02 80 F8 FF FF 7F F8 FF         [........
0130: FF 7F 62 69 6B 30 00                              ..bik0.         
```

#### Opcodes

```
  0: 0x0127 [0x5B] LOAD_EXT_SCHEDULER: Load scheduler "bik0" with entities [EventEntity, EventEntity], work=341*
  1: 0x0136 [0x00] END_REQSTACK()
```

### Event 65535.20

#### Metadata

| Field        | Value    |
|--------------|----------|
| Entrypoint   | 0x0137   |
| Data Size    | 22 bytes |
| Instructions | 4        |

```
      00 01 02 03 04 05 06 07  08 09 0A 0B 0C 0D 0E 0F
      -- -- -- -- -- -- -- --  -- -- -- -- -- -- -- --
0130:                      53  F8 FF FF 7F F8 FF FF 7F         S........
0140: 62 69 6B 30 5E 69 64 6C  30 1C 03 80 00           bik0^idl0....   
```

#### Opcodes

```
  0: 0x0137 [0x53] WAIT_SCHEDULER_TASK: Wait for scheduler "bik0" with entities [EventEntity, EventEntity]
  1: 0x0144 [0x5E] EventEntity goes idle (kills current action) (animation: "idl0")
  2: 0x0149 [0x1C] WAIT(30* ticks)
  3: 0x014C [0x00] END_REQSTACK()
```

### Event 65535.21

#### Metadata

| Field        | Value    |
|--------------|----------|
| Entrypoint   | 0x014D   |
| Data Size    | 16 bytes |
| Instructions | 2        |

```
      00 01 02 03 04 05 06 07  08 09 0A 0B 0C 0D 0E 0F
      -- -- -- -- -- -- -- --  -- -- -- -- -- -- -- --
0140:                                         5B 04 80               [..
0150: F8 FF FF 7F F8 FF FF 7F  73 68 6B 30 00           ........shk0.   
```

#### Opcodes

```
  0: 0x014D [0x5B] LOAD_EXT_SCHEDULER: Load scheduler "shk0" with entities [EventEntity, EventEntity], work=339*
  1: 0x015C [0x00] END_REQSTACK()
```

### Event 65535.22

#### Metadata

| Field        | Value    |
|--------------|----------|
| Entrypoint   | 0x015D   |
| Data Size    | 14 bytes |
| Instructions | 2        |

```
      00 01 02 03 04 05 06 07  08 09 0A 0B 0C 0D 0E 0F
      -- -- -- -- -- -- -- --  -- -- -- -- -- -- -- --
0150:                                         53 F8 FF               S..
0160: FF 7F F8 FF FF 7F 73 68  6B 30 00                 ......shk0.     
```

#### Opcodes

```
  0: 0x015D [0x53] WAIT_SCHEDULER_TASK: Wait for scheduler "shk0" with entities [EventEntity, EventEntity]
  1: 0x016A [0x00] END_REQSTACK()
```

### Event 65535.23

#### Metadata

| Field        | Value   |
|--------------|---------|
| Entrypoint   | 0x016B  |
| Data Size    | 9 bytes |
| Instructions | 3       |

```
      00 01 02 03 04 05 06 07  08 09 0A 0B 0C 0D 0E 0F
      -- -- -- -- -- -- -- --  -- -- -- -- -- -- -- --
0160:                                   5E 69 64 6C 30             ^idl0
0170: 1C 03 80 00                                       ....            
```

#### Opcodes

```
  0: 0x016B [0x5E] EventEntity goes idle (kills current action) (animation: "idl0")
  1: 0x0170 [0x1C] WAIT(30* ticks)
  2: 0x0173 [0x00] END_REQSTACK()
```

### Event 11

#### Metadata

| Field        | Value   |
|--------------|---------|
| Entrypoint   | 0x0174  |
| Data Size    | 1 bytes |
| Instructions | 1       |

```
      00 01 02 03 04 05 06 07  08 09 0A 0B 0C 0D 0E 0F
      -- -- -- -- -- -- -- --  -- -- -- -- -- -- -- --
0170:             00                                        .           
```

#### Opcodes

```
  0: 0x0174 [0x00] END_REQSTACK()
```

### Event 531

#### Metadata

| Field        | Value   |
|--------------|---------|
| Entrypoint   | 0x0175  |
| Data Size    | 3 bytes |
| Instructions | 2       |

```
      00 01 02 03 04 05 06 07  08 09 0A 0B 0C 0D 0E 0F
      -- -- -- -- -- -- -- --  -- -- -- -- -- -- -- --
0170:                22 01 00                                "..        
```

#### Opcodes

```
  0: 0x0175 [0x22] ENTITY_HIDE_FLAG(enabled=0x01)
  1: 0x0177 [0x00] END_REQSTACK()
```

### Event 65535.24

#### Metadata

| Field        | Value    |
|--------------|----------|
| Entrypoint   | 0x0178   |
| Data Size    | 26 bytes |
| Instructions | 7        |

```
      00 01 02 03 04 05 06 07  08 09 0A 0B 0C 0D 0E 0F
      -- -- -- -- -- -- -- --  -- -- -- -- -- -- -- --
0170:                          37 05 80 06 80 07 80 08          7.......
0180: 80 22 00 32 09 80 1F 00  0A 80 0B 80 07 80 1F 01  .".2............
0190: 6F 00                                             o.              
```

#### Opcodes

```
  0: 0x0178 [0x37] UPDATE_EVENT_POSITION_AND_DIR: x=-42.188*, z=78.171*, y=-4.999*, direction=269.1°*
  1: 0x0181 [0x22] ENTITY_HIDE_FLAG(enabled=0x00)
  2: 0x0183 [0x32] ExtData[1]->MainSpeed = 40* * 0.1
  3: 0x0186 [0x1F] MOVE_ENTITY: EventEntity moves to X=-41.948*, Z=88.372*, Y=-4.999*
  4: 0x018E [0x1F] MOVE_ENTITY: Update entity position (mode=1)
  5: 0x0190 [0x6F] WAIT_FRAME_DELAY: Yield until WaitTime reaches zero
  6: 0x0191 [0x00] END_REQSTACK()
```

### Event 65535.25

#### Metadata

| Field        | Value    |
|--------------|----------|
| Entrypoint   | 0x0192   |
| Data Size    | 51 bytes |
| Instructions | 13       |

```
      00 01 02 03 04 05 06 07  08 09 0A 0B 0C 0D 0E 0F
      -- -- -- -- -- -- -- --  -- -- -- -- -- -- -- --
0190:       1C 0C 80 4A 0A E0  0E 01 F0 FF FF 7F 6F 76    ...J........ov
01A0: F8 FF FF 7F 1C 0D 80 32  0E 80 1F 00 0F 80 10 80  .......2........
01B0: 07 80 1F 01 6F 4A 0A E0  0E 01 F0 FF FF 7F 6F 76  ....oJ........ov
01C0: F8 FF FF 7F 00                                    .....           
```

#### Opcodes

```
  0: 0x0192 [0x1C] WAIT(10* ticks)
  1: 0x0195 [0x4A] Ajido-Marujido (ID: 17752074/0x010EE00A) looks at LocalPlayer
  2: 0x019E [0x6F] WAIT_FRAME_DELAY: Yield until WaitTime reaches zero
  3: 0x019F [0x76] CHECK_ENTITY_RENDER_FLAGS: Wait until EventEntity Render.Flags0 and Render.Flags3 conditions are met
  4: 0x01A4 [0x1C] WAIT(60* ticks)
  5: 0x01A7 [0x32] ExtData[1]->MainSpeed = 13* * 0.1
  6: 0x01AA [0x1F] MOVE_ENTITY: EventEntity moves to X=-42.486*, Z=86.018*, Y=-4.999*
  7: 0x01B2 [0x1F] MOVE_ENTITY: Update entity position (mode=1)
  8: 0x01B4 [0x6F] WAIT_FRAME_DELAY: Yield until WaitTime reaches zero
  9: 0x01B5 [0x4A] Ajido-Marujido (ID: 17752074/0x010EE00A) looks at LocalPlayer
 10: 0x01BE [0x6F] WAIT_FRAME_DELAY: Yield until WaitTime reaches zero
 11: 0x01BF [0x76] CHECK_ENTITY_RENDER_FLAGS: Wait until EventEntity Render.Flags0 and Render.Flags3 conditions are met
 12: 0x01C4 [0x00] END_REQSTACK()
```

### Event 65535.26

#### Metadata

| Field        | Value    |
|--------------|----------|
| Entrypoint   | 0x01C5   |
| Data Size    | 12 bytes |
| Instructions | 4        |

```
      00 01 02 03 04 05 06 07  08 09 0A 0B 0C 0D 0E 0F
      -- -- -- -- -- -- -- --  -- -- -- -- -- -- -- --
01C0:                1F 00 11  80 12 80 07 80 1F 01 6F       ..........o
01D0: 00                                                .               
```

#### Opcodes

```
  0: 0x01C5 [0x1F] MOVE_ENTITY: EventEntity moves to X=-41.836*, Z=87.116*, Y=-4.999*
  1: 0x01CD [0x1F] MOVE_ENTITY: Update entity position (mode=1)
  2: 0x01CF [0x6F] WAIT_FRAME_DELAY: Yield until WaitTime reaches zero
  3: 0x01D0 [0x00] END_REQSTACK()
```

### Event 65535.27

#### Metadata

| Field        | Value    |
|--------------|----------|
| Entrypoint   | 0x01D1   |
| Data Size    | 19 bytes |
| Instructions | 5        |

```
      00 01 02 03 04 05 06 07  08 09 0A 0B 0C 0D 0E 0F
      -- -- -- -- -- -- -- --  -- -- -- -- -- -- -- --
01D0:    1C 0D 80 4A 0A E0 0E  01 F0 FF FF 7F 6F 76 F8   ...J........ov.
01E0: FF FF 7F 00                                       ....            
```

#### Opcodes

```
  0: 0x01D1 [0x1C] WAIT(60* ticks)
  1: 0x01D4 [0x4A] Ajido-Marujido (ID: 17752074/0x010EE00A) looks at LocalPlayer
  2: 0x01DD [0x6F] WAIT_FRAME_DELAY: Yield until WaitTime reaches zero
  3: 0x01DE [0x76] CHECK_ENTITY_RENDER_FLAGS: Wait until EventEntity Render.Flags0 and Render.Flags3 conditions are met
  4: 0x01E3 [0x00] END_REQSTACK()
```

### Event 65535.28

#### Metadata

| Field        | Value    |
|--------------|----------|
| Entrypoint   | 0x01E4   |
| Data Size    | 15 bytes |
| Instructions | 5        |

```
      00 01 02 03 04 05 06 07  08 09 0A 0B 0C 0D 0E 0F
      -- -- -- -- -- -- -- --  -- -- -- -- -- -- -- --
01E0:             32 09 80 1F  00 13 80 14 80 07 80 1F      2...........
01F0: 01 6F 00                                          .o.             
```

#### Opcodes

```
  0: 0x01E4 [0x32] ExtData[1]->MainSpeed = 40* * 0.1
  1: 0x01E7 [0x1F] MOVE_ENTITY: EventEntity moves to X=-41.110*, Z=119.774*, Y=-4.999*
  2: 0x01EF [0x1F] MOVE_ENTITY: Update entity position (mode=1)
  3: 0x01F1 [0x6F] WAIT_FRAME_DELAY: Yield until WaitTime reaches zero
  4: 0x01F2 [0x00] END_REQSTACK()
```

### Event 65535.29

#### Metadata

| Field        | Value    |
|--------------|----------|
| Entrypoint   | 0x01F3   |
| Data Size    | 35 bytes |
| Instructions | 9        |

```
      00 01 02 03 04 05 06 07  08 09 0A 0B 0C 0D 0E 0F
      -- -- -- -- -- -- -- --  -- -- -- -- -- -- -- --
01F0:          32 09 80 1F 00  13 80 14 80 07 80 1F 01     2............
0200: 1F 00 15 80 16 80 17 80  1F 01 1F 00 18 80 19 80  ................
0210: 1A 80 1F 01 6F 00                                 ....o.          
```

#### Opcodes

```
  0: 0x01F3 [0x32] ExtData[1]->MainSpeed = 40* * 0.1
  1: 0x01F6 [0x1F] MOVE_ENTITY: EventEntity moves to X=-41.110*, Z=119.774*, Y=-4.999*
  2: 0x01FE [0x1F] MOVE_ENTITY: Update entity position (mode=1)
  3: 0x0200 [0x1F] MOVE_ENTITY: EventEntity moves to X=-41.220*, Z=169.030*, Y=-5.080*
  4: 0x0208 [0x1F] MOVE_ENTITY: Update entity position (mode=1)
  5: 0x020A [0x1F] MOVE_ENTITY: EventEntity moves to X=-49.790*, Z=180.920*, Y=-6.460*
  6: 0x0212 [0x1F] MOVE_ENTITY: Update entity position (mode=1)
  7: 0x0214 [0x6F] WAIT_FRAME_DELAY: Yield until WaitTime reaches zero
  8: 0x0215 [0x00] END_REQSTACK()
```

### Event 65535.30

#### Metadata

| Field        | Value    |
|--------------|----------|
| Entrypoint   | 0x0216   |
| Data Size    | 19 bytes |
| Instructions | 5        |

```
      00 01 02 03 04 05 06 07  08 09 0A 0B 0C 0D 0E 0F
      -- -- -- -- -- -- -- --  -- -- -- -- -- -- -- --
0210:                   29 08  0A E0 0E 01 01 1D 1B 80        ).........
0220: 23 29 08 0A E0 0E 01 17  00                       #).......       
```

#### Opcodes

```
  0: 0x0216 [0x29] REQ_SET_WAIT(priority=0x08, entity_id=Ajido-Marujido (ID: 17752074/0x010EE00A), tag_num=0x01)
  1: 0x021D [0x1D] PRINT_EVENT_MESSAGE(message_id=8610*)
    → "What's the mattaru?"
  2: 0x0220 [0x23] WAIT_FOR_DIALOG_INTERACTION
  3: 0x0221 [0x29] REQ_SET_WAIT(priority=0x08, entity_id=Ajido-Marujido (ID: 17752074/0x010EE00A), tag_num=0x17)
  4: 0x0228 [0x00] END_REQSTACK()
```

### Event 65535.31

#### Metadata

| Field        | Value    |
|--------------|----------|
| Entrypoint   | 0x0229   |
| Data Size    | 19 bytes |
| Instructions | 5        |

```
      00 01 02 03 04 05 06 07  08 09 0A 0B 0C 0D 0E 0F
      -- -- -- -- -- -- -- --  -- -- -- -- -- -- -- --
0220:                             29 08 0A E0 0E 01 01           )......
0230: 1D 1C 80 23 29 08 0A E0  0E 01 17 00              ...#).......    
```

#### Opcodes

```
  0: 0x0229 [0x29] REQ_SET_WAIT(priority=0x08, entity_id=Ajido-Marujido (ID: 17752074/0x010EE00A), tag_num=0x01)
  1: 0x0230 [0x1D] PRINT_EVENT_MESSAGE(message_id=8611*)
    → "Oh... Seeing you standing there gazing into the distance, I thought you were looking at something interesting. Seems as though you were just taking in the atmosphere of peaceful old Windurst."
  2: 0x0233 [0x23] WAIT_FOR_DIALOG_INTERACTION
  3: 0x0234 [0x29] REQ_SET_WAIT(priority=0x08, entity_id=Ajido-Marujido (ID: 17752074/0x010EE00A), tag_num=0x17)
  4: 0x023B [0x00] END_REQSTACK()
```

### Event 65535.32

#### Metadata

| Field        | Value    |
|--------------|----------|
| Entrypoint   | 0x023C   |
| Data Size    | 37 bytes |
| Instructions | 9        |

```
      00 01 02 03 04 05 06 07  08 09 0A 0B 0C 0D 0E 0F
      -- -- -- -- -- -- -- --  -- -- -- -- -- -- -- --
0230:                                      29 08 0A E0              )...
0240: 0E 01 0D 1D 1D 80 23 29  08 0A E0 0E 01 0E 29 08  ......#)......).
0250: 0A E0 0E 01 0F 1D 1E 80  23 29 08 0A E0 0E 01 10  ........#)......
0260: 00                                                .               
```

#### Opcodes

```
  0: 0x023C [0x29] REQ_SET_WAIT(priority=0x08, entity_id=Ajido-Marujido (ID: 17752074/0x010EE00A), tag_num=0x0D)
  1: 0x0243 [0x1D] PRINT_EVENT_MESSAGE(message_id=8612*)
    → "But I couldn't say that these are the most peaceful times Windurst has seen..."
  2: 0x0246 [0x23] WAIT_FOR_DIALOG_INTERACTION
  3: 0x0247 [0x29] REQ_SET_WAIT(priority=0x08, entity_id=Ajido-Marujido (ID: 17752074/0x010EE00A), tag_num=0x0E)
  4: 0x024E [0x29] REQ_SET_WAIT(priority=0x08, entity_id=Ajido-Marujido (ID: 17752074/0x010EE00A), tag_num=0x0F)
  5: 0x0255 [0x1D] PRINT_EVENT_MESSAGE(message_id=8613*)
    → "If the Great Tree were to wither up and die, this whole country would pass away with it. Sadly, that end could be nigh..."
  6: 0x0258 [0x23] WAIT_FOR_DIALOG_INTERACTION
  7: 0x0259 [0x29] REQ_SET_WAIT(priority=0x08, entity_id=Ajido-Marujido (ID: 17752074/0x010EE00A), tag_num=0x10)
  8: 0x0260 [0x00] END_REQSTACK()
```

### Event 65535.33

#### Metadata

| Field        | Value    |
|--------------|----------|
| Entrypoint   | 0x0261   |
| Data Size    | 19 bytes |
| Instructions | 5        |

```
      00 01 02 03 04 05 06 07  08 09 0A 0B 0C 0D 0E 0F
      -- -- -- -- -- -- -- --  -- -- -- -- -- -- -- --
0260:    29 08 0A E0 0E 01 01  1D 1F 80 23 29 08 0A E0   ).........#)...
0270: 0E 01 17 00                                       ....            
```

#### Opcodes

```
  0: 0x0261 [0x29] REQ_SET_WAIT(priority=0x08, entity_id=Ajido-Marujido (ID: 17752074/0x010EE00A), tag_num=0x01)
  1: 0x0268 [0x1D] PRINT_EVENT_MESSAGE(message_id=8616*)
    → "You've got it all wrong again, Apururu. This poor adventurer was lost, so I kindly offered to help. Isn't that rightaru?"
  2: 0x026B [0x23] WAIT_FOR_DIALOG_INTERACTION
  3: 0x026C [0x29] REQ_SET_WAIT(priority=0x08, entity_id=Ajido-Marujido (ID: 17752074/0x010EE00A), tag_num=0x17)
  4: 0x0273 [0x00] END_REQSTACK()
```

### Event 65535.34

#### Metadata

| Field        | Value    |
|--------------|----------|
| Entrypoint   | 0x0274   |
| Data Size    | 19 bytes |
| Instructions | 5        |

```
      00 01 02 03 04 05 06 07  08 09 0A 0B 0C 0D 0E 0F
      -- -- -- -- -- -- -- --  -- -- -- -- -- -- -- --
0270:             29 08 0A E0  0E 01 01 1D 20 80 23 29      )....... .#)
0280: 08 0A E0 0E 01 17 00                              .......         
```

#### Opcodes

```
  0: 0x0274 [0x29] REQ_SET_WAIT(priority=0x08, entity_id=Ajido-Marujido (ID: 17752074/0x010EE00A), tag_num=0x01)
  1: 0x027B [0x1D] PRINT_EVENT_MESSAGE(message_id=8621*)
    → "Oh, really? Are you trying to trick us city folk into thinking you're not some yokel or country bumpkin?"
  2: 0x027E [0x23] WAIT_FOR_DIALOG_INTERACTION
  3: 0x027F [0x29] REQ_SET_WAIT(priority=0x08, entity_id=Ajido-Marujido (ID: 17752074/0x010EE00A), tag_num=0x17)
  4: 0x0286 [0x00] END_REQSTACK()
```

### Event 65535.35

#### Metadata

| Field        | Value    |
|--------------|----------|
| Entrypoint   | 0x0287   |
| Data Size    | 19 bytes |
| Instructions | 5        |

```
      00 01 02 03 04 05 06 07  08 09 0A 0B 0C 0D 0E 0F
      -- -- -- -- -- -- -- --  -- -- -- -- -- -- -- --
0280:                      29  08 0A E0 0E 01 01 1D 21         ).......!
0290: 80 23 29 08 0A E0 0E 01  17 00                    .#).......      
```

#### Opcodes

```
  0: 0x0287 [0x29] REQ_SET_WAIT(priority=0x08, entity_id=Ajido-Marujido (ID: 17752074/0x010EE00A), tag_num=0x01)
  1: 0x028E [0x1D] PRINT_EVENT_MESSAGE(message_id=8626*)
    → "Heh, brawn over brain, huh? As I always say, a life lived short is a life lived well!"
  2: 0x0291 [0x23] WAIT_FOR_DIALOG_INTERACTION
  3: 0x0292 [0x29] REQ_SET_WAIT(priority=0x08, entity_id=Ajido-Marujido (ID: 17752074/0x010EE00A), tag_num=0x17)
  4: 0x0299 [0x00] END_REQSTACK()
```

### Event 65535.36

#### Metadata

| Field        | Value    |
|--------------|----------|
| Entrypoint   | 0x029A   |
| Data Size    | 19 bytes |
| Instructions | 5        |

```
      00 01 02 03 04 05 06 07  08 09 0A 0B 0C 0D 0E 0F
      -- -- -- -- -- -- -- --  -- -- -- -- -- -- -- --
0290:                                29 08 0A E0 0E 01            ).....
02A0: 01 1D 22 80 23 29 08 0A  E0 0E 01 17 00           ..".#).......   
```

#### Opcodes

```
  0: 0x029A [0x29] REQ_SET_WAIT(priority=0x08, entity_id=Ajido-Marujido (ID: 17752074/0x010EE00A), tag_num=0x01)
  1: 0x02A1 [0x1D] PRINT_EVENT_MESSAGE(message_id=8628*)
    → "Why? It's true, isn'taru it?"
  2: 0x02A4 [0x23] WAIT_FOR_DIALOG_INTERACTION
  3: 0x02A5 [0x29] REQ_SET_WAIT(priority=0x08, entity_id=Ajido-Marujido (ID: 17752074/0x010EE00A), tag_num=0x17)
  4: 0x02AC [0x00] END_REQSTACK()
```

### Event 65535.37

#### Metadata

| Field        | Value    |
|--------------|----------|
| Entrypoint   | 0x02AD   |
| Data Size    | 23 bytes |
| Instructions | 7        |

```
      00 01 02 03 04 05 06 07  08 09 0A 0B 0C 0D 0E 0F
      -- -- -- -- -- -- -- --  -- -- -- -- -- -- -- --
02A0:                                         29 08 0A               )..
02B0: E0 0E 01 01 1D 23 80 23  1D 24 80 23 29 08 0A E0  .....#.#.$.#)...
02C0: 0E 01 17 00                                       ....            
```

#### Opcodes

```
  0: 0x02AD [0x29] REQ_SET_WAIT(priority=0x08, entity_id=Ajido-Marujido (ID: 17752074/0x010EE00A), tag_num=0x01)
  1: 0x02B4 [0x1D] PRINT_EVENT_MESSAGE(message_id=8634*)
    → "...But whether or not there are fellow adventurers nearby who want to lend you a hand is another mattaru."
  2: 0x02B7 [0x23] WAIT_FOR_DIALOG_INTERACTION
  3: 0x02B8 [0x1D] PRINT_EVENT_MESSAGE(message_id=8635*)
    → "If no one comes to your help, well, that's just your bad luck, I suppose."
  4: 0x02BB [0x23] WAIT_FOR_DIALOG_INTERACTION
  5: 0x02BC [0x29] REQ_SET_WAIT(priority=0x08, entity_id=Ajido-Marujido (ID: 17752074/0x010EE00A), tag_num=0x17)
  6: 0x02C3 [0x00] END_REQSTACK()
```

### Event 65535.38

#### Metadata

| Field        | Value   |
|--------------|---------|
| Entrypoint   | 0x02C4  |
| Data Size    | 5 bytes |
| Instructions | 3       |

```
      00 01 02 03 04 05 06 07  08 09 0A 0B 0C 0D 0E 0F
      -- -- -- -- -- -- -- --  -- -- -- -- -- -- -- --
02C0:             1D 25 80 23  00                           .%.#.       
```

#### Opcodes

```
  0: 0x02C4 [0x1D] PRINT_EVENT_MESSAGE(message_id=8637*)
    → "......"
  1: 0x02C7 [0x23] WAIT_FOR_DIALOG_INTERACTION
  2: 0x02C8 [0x00] END_REQSTACK()
```

### Event 65535.39

#### Metadata

| Field        | Value    |
|--------------|----------|
| Entrypoint   | 0x02C9   |
| Data Size    | 19 bytes |
| Instructions | 5        |

```
      00 01 02 03 04 05 06 07  08 09 0A 0B 0C 0D 0E 0F
      -- -- -- -- -- -- -- --  -- -- -- -- -- -- -- --
02C0:                             29 08 0A E0 0E 01 01           )......
02D0: 1D 26 80 23 29 08 0A E0  0E 01 17 00              .&.#).......    
```

#### Opcodes

```
  0: 0x02C9 [0x29] REQ_SET_WAIT(priority=0x08, entity_id=Ajido-Marujido (ID: 17752074/0x010EE00A), tag_num=0x01)
  1: 0x02D0 [0x1D] PRINT_EVENT_MESSAGE(message_id=8642*)
    → "Enough already! So much information at once is bound to confuse even the smartest Tarutaru. Besides, I don't have the time to be offering newbie-woobies free tours of our town."
  2: 0x02D3 [0x23] WAIT_FOR_DIALOG_INTERACTION
  3: 0x02D4 [0x29] REQ_SET_WAIT(priority=0x08, entity_id=Ajido-Marujido (ID: 17752074/0x010EE00A), tag_num=0x17)
  4: 0x02DB [0x00] END_REQSTACK()
```

### Event 65535.40

#### Metadata

| Field        | Value   |
|--------------|---------|
| Entrypoint   | 0x02DC  |
| Data Size    | 5 bytes |
| Instructions | 3       |

```
      00 01 02 03 04 05 06 07  08 09 0A 0B 0C 0D 0E 0F
      -- -- -- -- -- -- -- --  -- -- -- -- -- -- -- --
02D0:                                      1D 27 80 23              .'.#
02E0: 00                                                .               
```

#### Opcodes

```
  0: 0x02DC [0x1D] PRINT_EVENT_MESSAGE(message_id=8667*)
    → "...Phew! Impossible to get a word in edgewise, isn't it? She may be my little sister, but I don't understand her at all."
  1: 0x02DF [0x23] WAIT_FOR_DIALOG_INTERACTION
  2: 0x02E0 [0x00] END_REQSTACK()
```

### Event 65535.41

#### Metadata

| Field        | Value   |
|--------------|---------|
| Entrypoint   | 0x02E1  |
| Data Size    | 5 bytes |
| Instructions | 3       |

```
      00 01 02 03 04 05 06 07  08 09 0A 0B 0C 0D 0E 0F
      -- -- -- -- -- -- -- --  -- -- -- -- -- -- -- --
02E0:    1D 28 80 23 00                                  .(.#.          
```

#### Opcodes

```
  0: 0x02E1 [0x1D] PRINT_EVENT_MESSAGE(message_id=8668*)
    → "Well, I'd best be off, too. See you around, I suppose. Ta-taru!"
  1: 0x02E4 [0x23] WAIT_FOR_DIALOG_INTERACTION
  2: 0x02E5 [0x00] END_REQSTACK()
```

### Event 65535.42

#### Metadata

| Field        | Value    |
|--------------|----------|
| Entrypoint   | 0x02E6   |
| Data Size    | 19 bytes |
| Instructions | 5        |

```
      00 01 02 03 04 05 06 07  08 09 0A 0B 0C 0D 0E 0F
      -- -- -- -- -- -- -- --  -- -- -- -- -- -- -- --
02E0:                   29 08  0A E0 0E 01 01 1D 29 80        ).......).
02F0: 23 29 08 0A E0 0E 01 17  00                       #).......       
```

#### Opcodes

```
  0: 0x02E6 [0x29] REQ_SET_WAIT(priority=0x08, entity_id=Ajido-Marujido (ID: 17752074/0x010EE00A), tag_num=0x01)
  1: 0x02ED [0x1D] PRINT_EVENT_MESSAGE(message_id=8669*)
    → "Duh! That's easy-weasy. Just walk around the whole town and talk to anybody and everybody."
  2: 0x02F0 [0x23] WAIT_FOR_DIALOG_INTERACTION
  3: 0x02F1 [0x29] REQ_SET_WAIT(priority=0x08, entity_id=Ajido-Marujido (ID: 17752074/0x010EE00A), tag_num=0x17)
  4: 0x02F8 [0x00] END_REQSTACK()
```

### Event 65535.43

#### Metadata

| Field        | Value    |
|--------------|----------|
| Entrypoint   | 0x02F9   |
| Data Size    | 19 bytes |
| Instructions | 5        |

```
      00 01 02 03 04 05 06 07  08 09 0A 0B 0C 0D 0E 0F
      -- -- -- -- -- -- -- --  -- -- -- -- -- -- -- --
02F0:                             29 08 0A E0 0E 01 01           )......
0300: 1D 2A 80 23 29 08 0A E0  0E 01 17 00              .*.#).......    
```

#### Opcodes

```
  0: 0x02F9 [0x29] REQ_SET_WAIT(priority=0x08, entity_id=Ajido-Marujido (ID: 17752074/0x010EE00A), tag_num=0x01)
  1: 0x0300 [0x1D] PRINT_EVENT_MESSAGE(message_id=8686*)
    → "Don't be too hard on novice adventurers. I think it's only rational to first improve one's economic standing before setting out on a new adventuring enterprise."
  2: 0x0303 [0x23] WAIT_FOR_DIALOG_INTERACTION
  3: 0x0304 [0x29] REQ_SET_WAIT(priority=0x08, entity_id=Ajido-Marujido (ID: 17752074/0x010EE00A), tag_num=0x17)
  4: 0x030B [0x00] END_REQSTACK()
```

### Event 65535.44

#### Metadata

| Field        | Value    |
|--------------|----------|
| Entrypoint   | 0x030C   |
| Data Size    | 19 bytes |
| Instructions | 5        |

```
      00 01 02 03 04 05 06 07  08 09 0A 0B 0C 0D 0E 0F
      -- -- -- -- -- -- -- --  -- -- -- -- -- -- -- --
0300:                                      29 08 0A E0              )...
0310: 0E 01 01 1D 2B 80 23 29  08 0A E0 0E 01 17 00     ....+.#)....... 
```

#### Opcodes

```
  0: 0x030C [0x29] REQ_SET_WAIT(priority=0x08, entity_id=Ajido-Marujido (ID: 17752074/0x010EE00A), tag_num=0x01)
  1: 0x0313 [0x1D] PRINT_EVENT_MESSAGE(message_id=8687*)
    → "In fact, I think I know justaru the right person to help you out..."
  2: 0x0316 [0x23] WAIT_FOR_DIALOG_INTERACTION
  3: 0x0317 [0x29] REQ_SET_WAIT(priority=0x08, entity_id=Ajido-Marujido (ID: 17752074/0x010EE00A), tag_num=0x17)
  4: 0x031E [0x00] END_REQSTACK()
```

### Event 65535.45

#### Metadata

| Field        | Value    |
|--------------|----------|
| Entrypoint   | 0x031F   |
| Data Size    | 24 bytes |
| Instructions | 8        |

```
      00 01 02 03 04 05 06 07  08 09 0A 0B 0C 0D 0E 0F
      -- -- -- -- -- -- -- --  -- -- -- -- -- -- -- --
0310:                                               1D                 .
0320: 2C 80 23 4A 0A E0 0E 01  F0 FF FF 7F 6F 76 F8 FF  ,.#J........ov..
0330: FF 7F 1D 2D 80 23 00                              ...-.#.         
```

#### Opcodes

```
  0: 0x031F [0x1D] PRINT_EVENT_MESSAGE(message_id=8689*)
    → "The hatter! Lately he's been calling out to my students, telling them that he'll give them some pocket money if they help him show off his wares."
  1: 0x0322 [0x23] WAIT_FOR_DIALOG_INTERACTION
  2: 0x0323 [0x4A] Ajido-Marujido (ID: 17752074/0x010EE00A) looks at LocalPlayer
  3: 0x032C [0x6F] WAIT_FRAME_DELAY: Yield until WaitTime reaches zero
  4: 0x032D [0x76] CHECK_ENTITY_RENDER_FLAGS: Wait until EventEntity Render.Flags0 and Render.Flags3 conditions are met
  5: 0x0332 [0x1D] PRINT_EVENT_MESSAGE(message_id=8690*)
    → "I'd say that the shape of your head isn't too displeasing, so you might be able to earn some money..."
  6: 0x0335 [0x23] WAIT_FOR_DIALOG_INTERACTION
  7: 0x0336 [0x00] END_REQSTACK()
```

### Event 65535.46

#### Metadata

| Field        | Value   |
|--------------|---------|
| Entrypoint   | 0x0337  |
| Data Size    | 5 bytes |
| Instructions | 3       |

```
      00 01 02 03 04 05 06 07  08 09 0A 0B 0C 0D 0E 0F
      -- -- -- -- -- -- -- --  -- -- -- -- -- -- -- --
0330:                      1D  2E 80 23 00                     ...#.    
```

#### Opcodes

```
  0: 0x0337 [0x1D] PRINT_EVENT_MESSAGE(message_id=8692*)
    → "...See, then it's up to how well our friend performs. The more effort one puts in, the more one will earn!"
  1: 0x033A [0x23] WAIT_FOR_DIALOG_INTERACTION
  2: 0x033B [0x00] END_REQSTACK()
```

### Event 65535.47

#### Metadata

| Field        | Value    |
|--------------|----------|
| Entrypoint   | 0x033C   |
| Data Size    | 19 bytes |
| Instructions | 5        |

```
      00 01 02 03 04 05 06 07  08 09 0A 0B 0C 0D 0E 0F
      -- -- -- -- -- -- -- --  -- -- -- -- -- -- -- --
0330:                                      29 08 0A E0              )...
0340: 0E 01 01 1D 2F 80 23 29  08 0A E0 0E 01 17 00     ..../.#)....... 
```

#### Opcodes

```
  0: 0x033C [0x29] REQ_SET_WAIT(priority=0x08, entity_id=Ajido-Marujido (ID: 17752074/0x010EE00A), tag_num=0x01)
  1: 0x0343 [0x1D] PRINT_EVENT_MESSAGE(message_id=8675*)
    → "Humph. Watch out if you're going to deal with her. She loves to boss people around. Especially new arrivals like yourself."
  2: 0x0346 [0x23] WAIT_FOR_DIALOG_INTERACTION
  3: 0x0347 [0x29] REQ_SET_WAIT(priority=0x08, entity_id=Ajido-Marujido (ID: 17752074/0x010EE00A), tag_num=0x17)
  4: 0x034E [0x00] END_REQSTACK()
```

### Event 65535.48

#### Metadata

| Field        | Value    |
|--------------|----------|
| Entrypoint   | 0x034F   |
| Data Size    | 19 bytes |
| Instructions | 5        |

```
      00 01 02 03 04 05 06 07  08 09 0A 0B 0C 0D 0E 0F
      -- -- -- -- -- -- -- --  -- -- -- -- -- -- -- --
0340:                                               29                 )
0350: 08 0A E0 0E 01 01 1D 30  80 23 29 08 0A E0 0E 01  .......0.#).....
0360: 17 00                                             ..              
```

#### Opcodes

```
  0: 0x034F [0x29] REQ_SET_WAIT(priority=0x08, entity_id=Ajido-Marujido (ID: 17752074/0x010EE00A), tag_num=0x01)
  1: 0x0356 [0x1D] PRINT_EVENT_MESSAGE(message_id=8679*)
    → "What did you call me!? That's rich, coming from fuddy-duddy, hoity-toity, you! Don't forget who's been looking after you all these years!"
  2: 0x0359 [0x23] WAIT_FOR_DIALOG_INTERACTION
  3: 0x035A [0x29] REQ_SET_WAIT(priority=0x08, entity_id=Ajido-Marujido (ID: 17752074/0x010EE00A), tag_num=0x17)
  4: 0x0361 [0x00] END_REQSTACK()
```

### Event 65535.49

#### Metadata

| Field        | Value   |
|--------------|---------|
| Entrypoint   | 0x0362  |
| Data Size    | 5 bytes |
| Instructions | 3       |

```
      00 01 02 03 04 05 06 07  08 09 0A 0B 0C 0D 0E 0F
      -- -- -- -- -- -- -- --  -- -- -- -- -- -- -- --
0360:       1D 31 80 23 00                                .1.#.         
```

#### Opcodes

```
  0: 0x0362 [0x1D] PRINT_EVENT_MESSAGE(message_id=8680*)
    → "Well, I never! I don't have the time for this nonsense. I'm off!"
  1: 0x0365 [0x23] WAIT_FOR_DIALOG_INTERACTION
  2: 0x0366 [0x00] END_REQSTACK()
```

### Event 65535.50

#### Metadata

| Field        | Value    |
|--------------|----------|
| Entrypoint   | 0x0367   |
| Data Size    | 19 bytes |
| Instructions | 5        |

```
      00 01 02 03 04 05 06 07  08 09 0A 0B 0C 0D 0E 0F
      -- -- -- -- -- -- -- --  -- -- -- -- -- -- -- --
0360:                      29  08 0A E0 0E 01 01 1D 32         ).......2
0370: 80 23 29 08 0A E0 0E 01  17 00                    .#).......      
```

#### Opcodes

```
  0: 0x0367 [0x29] REQ_SET_WAIT(priority=0x08, entity_id=Ajido-Marujido (ID: 17752074/0x010EE00A), tag_num=0x01)
  1: 0x036E [0x1D] PRINT_EVENT_MESSAGE(message_id=8728*)
    → "This is Tarutaru. We are Windurst. You are our new slave..."
  2: 0x0371 [0x23] WAIT_FOR_DIALOG_INTERACTION
  3: 0x0372 [0x29] REQ_SET_WAIT(priority=0x08, entity_id=Ajido-Marujido (ID: 17752074/0x010EE00A), tag_num=0x17)
  4: 0x0379 [0x00] END_REQSTACK()
```

### Event 65535.51

#### Metadata

| Field        | Value    |
|--------------|----------|
| Entrypoint   | 0x037A   |
| Data Size    | 19 bytes |
| Instructions | 5        |

```
      00 01 02 03 04 05 06 07  08 09 0A 0B 0C 0D 0E 0F
      -- -- -- -- -- -- -- --  -- -- -- -- -- -- -- --
0370:                                29 08 0A E0 0E 01            ).....
0380: 01 1D 33 80 23 29 08 0A  E0 0E 01 17 00           ..3.#).......   
```

#### Opcodes

```
  0: 0x037A [0x29] REQ_SET_WAIT(priority=0x08, entity_id=Ajido-Marujido (ID: 17752074/0x010EE00A), tag_num=0x01)
  1: 0x0381 [0x1D] PRINT_EVENT_MESSAGE(message_id=8733*)
    → "These three ministries are known as the Optistery, Rhinostery, and Aurastery. Respectively, they administrate a library, biological laboratory, and magic school."
  2: 0x0384 [0x23] WAIT_FOR_DIALOG_INTERACTION
  3: 0x0385 [0x29] REQ_SET_WAIT(priority=0x08, entity_id=Ajido-Marujido (ID: 17752074/0x010EE00A), tag_num=0x17)
  4: 0x038C [0x00] END_REQSTACK()
```

### Event 65535.52

#### Metadata

| Field        | Value    |
|--------------|----------|
| Entrypoint   | 0x038D   |
| Data Size    | 19 bytes |
| Instructions | 5        |

```
      00 01 02 03 04 05 06 07  08 09 0A 0B 0C 0D 0E 0F
      -- -- -- -- -- -- -- --  -- -- -- -- -- -- -- --
0380:                                         29 08 0A               )..
0390: E0 0E 01 01 1D 34 80 23  29 08 0A E0 0E 01 17 00  .....4.#).......
```

#### Opcodes

```
  0: 0x038D [0x29] REQ_SET_WAIT(priority=0x08, entity_id=Ajido-Marujido (ID: 17752074/0x010EE00A), tag_num=0x01)
  1: 0x0394 [0x1D] PRINT_EVENT_MESSAGE(message_id=8741*)
    → "Oh, yeah, and I'm Ajido-Marujido. It'll pay to remember me."
  2: 0x0397 [0x23] WAIT_FOR_DIALOG_INTERACTION
  3: 0x0398 [0x29] REQ_SET_WAIT(priority=0x08, entity_id=Ajido-Marujido (ID: 17752074/0x010EE00A), tag_num=0x17)
  4: 0x039F [0x00] END_REQSTACK()
```

### Event 65535.53

#### Metadata

| Field        | Value    |
|--------------|----------|
| Entrypoint   | 0x03A0   |
| Data Size    | 19 bytes |
| Instructions | 5        |

```
      00 01 02 03 04 05 06 07  08 09 0A 0B 0C 0D 0E 0F
      -- -- -- -- -- -- -- --  -- -- -- -- -- -- -- --
03A0: 29 08 0A E0 0E 01 01 1D  35 80 23 29 08 0A E0 0E  ).......5.#)....
03B0: 01 17 00                                          ...             
```

#### Opcodes

```
  0: 0x03A0 [0x29] REQ_SET_WAIT(priority=0x08, entity_id=Ajido-Marujido (ID: 17752074/0x010EE00A), tag_num=0x01)
  1: 0x03A7 [0x1D] PRINT_EVENT_MESSAGE(message_id=8744*)
    → "Hah! Friends... I had better warn you...don't go around telling people you're my friend, rightaru?"
  2: 0x03AA [0x23] WAIT_FOR_DIALOG_INTERACTION
  3: 0x03AB [0x29] REQ_SET_WAIT(priority=0x08, entity_id=Ajido-Marujido (ID: 17752074/0x010EE00A), tag_num=0x17)
  4: 0x03B2 [0x00] END_REQSTACK()
```

### Event 65535.54

#### Metadata

| Field        | Value    |
|--------------|----------|
| Entrypoint   | 0x03B3   |
| Data Size    | 19 bytes |
| Instructions | 5        |

```
      00 01 02 03 04 05 06 07  08 09 0A 0B 0C 0D 0E 0F
      -- -- -- -- -- -- -- --  -- -- -- -- -- -- -- --
03B0:          29 08 0A E0 0E  01 01 1D 36 80 23 29 08     ).......6.#).
03C0: 0A E0 0E 01 17 00                                 ......          
```

#### Opcodes

```
  0: 0x03B3 [0x29] REQ_SET_WAIT(priority=0x08, entity_id=Ajido-Marujido (ID: 17752074/0x010EE00A), tag_num=0x01)
  1: 0x03BA [0x1D] PRINT_EVENT_MESSAGE(message_id=8700*)
    → "I hate that place. Windurst Woods is all so higgledy-piggledy, I get lost every time I try to walk through it."
  2: 0x03BD [0x23] WAIT_FOR_DIALOG_INTERACTION
  3: 0x03BE [0x29] REQ_SET_WAIT(priority=0x08, entity_id=Ajido-Marujido (ID: 17752074/0x010EE00A), tag_num=0x17)
  4: 0x03C5 [0x00] END_REQSTACK()
```

### Event 65535.55

#### Metadata

| Field        | Value   |
|--------------|---------|
| Entrypoint   | 0x03C6  |
| Data Size    | 5 bytes |
| Instructions | 3       |

```
      00 01 02 03 04 05 06 07  08 09 0A 0B 0C 0D 0E 0F
      -- -- -- -- -- -- -- --  -- -- -- -- -- -- -- --
03C0:                   1D 37  80 23 00                       .7.#.     
```

#### Opcodes

```
  0: 0x03C6 [0x1D] PRINT_EVENT_MESSAGE(message_id=8702*)
    → "But I don't go to those places. I usually go to... ...... ............"
  1: 0x03C9 [0x23] WAIT_FOR_DIALOG_INTERACTION
  2: 0x03CA [0x00] END_REQSTACK()
```

### Event 65535.56

#### Metadata

| Field        | Value    |
|--------------|----------|
| Entrypoint   | 0x03CB   |
| Data Size    | 19 bytes |
| Instructions | 5        |

```
      00 01 02 03 04 05 06 07  08 09 0A 0B 0C 0D 0E 0F
      -- -- -- -- -- -- -- --  -- -- -- -- -- -- -- --
03C0:                                   29 08 0A E0 0E             )....
03D0: 01 01 1D 38 80 23 29 08  0A E0 0E 01 17 00        ...8.#).......  
```

#### Opcodes

```
  0: 0x03CB [0x29] REQ_SET_WAIT(priority=0x08, entity_id=Ajido-Marujido (ID: 17752074/0x010EE00A), tag_num=0x01)
  1: 0x03D2 [0x1D] PRINT_EVENT_MESSAGE(message_id=8703*)
    → "Oh, no! I totally forgotaru! I should be preparing for my experiment. Sorry. I've got to run!"
  2: 0x03D5 [0x23] WAIT_FOR_DIALOG_INTERACTION
  3: 0x03D6 [0x29] REQ_SET_WAIT(priority=0x08, entity_id=Ajido-Marujido (ID: 17752074/0x010EE00A), tag_num=0x17)
  4: 0x03DD [0x00] END_REQSTACK()
```

### Event 65535.57

#### Metadata

| Field        | Value    |
|--------------|----------|
| Entrypoint   | 0x03DE   |
| Data Size    | 19 bytes |
| Instructions | 5        |

```
      00 01 02 03 04 05 06 07  08 09 0A 0B 0C 0D 0E 0F
      -- -- -- -- -- -- -- --  -- -- -- -- -- -- -- --
03D0:                                            29 08                ).
03E0: 0A E0 0E 01 01 1D 39 80  23 29 08 0A E0 0E 01 17  ......9.#)......
03F0: 00                                                .               
```

#### Opcodes

```
  0: 0x03DE [0x29] REQ_SET_WAIT(priority=0x08, entity_id=Ajido-Marujido (ID: 17752074/0x010EE00A), tag_num=0x01)
  1: 0x03E5 [0x1D] PRINT_EVENT_MESSAGE(message_id=8714*)
    → "In other words, you're the lowest of the low, the weakest of the weak..."
  2: 0x03E8 [0x23] WAIT_FOR_DIALOG_INTERACTION
  3: 0x03E9 [0x29] REQ_SET_WAIT(priority=0x08, entity_id=Ajido-Marujido (ID: 17752074/0x010EE00A), tag_num=0x17)
  4: 0x03F0 [0x00] END_REQSTACK()
```

### Event 65535.58

#### Metadata

| Field        | Value    |
|--------------|----------|
| Entrypoint   | 0x03F1   |
| Data Size    | 19 bytes |
| Instructions | 5        |

```
      00 01 02 03 04 05 06 07  08 09 0A 0B 0C 0D 0E 0F
      -- -- -- -- -- -- -- --  -- -- -- -- -- -- -- --
03F0:    29 08 0A E0 0E 01 01  1D 3A 80 23 29 08 0A E0   ).......:.#)...
0400: 0E 01 17 00                                       ....            
```

#### Opcodes

```
  0: 0x03F1 [0x29] REQ_SET_WAIT(priority=0x08, entity_id=Ajido-Marujido (ID: 17752074/0x010EE00A), tag_num=0x01)
  1: 0x03F8 [0x1D] PRINT_EVENT_MESSAGE(message_id=8717*)
    → "Yeah, and then you'll be second-lowest of the low, the second most weakest of the weak..."
  2: 0x03FB [0x23] WAIT_FOR_DIALOG_INTERACTION
  3: 0x03FC [0x29] REQ_SET_WAIT(priority=0x08, entity_id=Ajido-Marujido (ID: 17752074/0x010EE00A), tag_num=0x17)
  4: 0x0403 [0x00] END_REQSTACK()
```

### Event 65535.59

#### Metadata

| Field        | Value    |
|--------------|----------|
| Entrypoint   | 0x0404   |
| Data Size    | 19 bytes |
| Instructions | 5        |

```
      00 01 02 03 04 05 06 07  08 09 0A 0B 0C 0D 0E 0F
      -- -- -- -- -- -- -- --  -- -- -- -- -- -- -- --
0400:             29 08 0A E0  0E 01 01 1D 3B 80 23 29      ).......;.#)
0410: 08 0A E0 0E 01 17 00                              .......         
```

#### Opcodes

```
  0: 0x0404 [0x29] REQ_SET_WAIT(priority=0x08, entity_id=Ajido-Marujido (ID: 17752074/0x010EE00A), tag_num=0x01)
  1: 0x040B [0x1D] PRINT_EVENT_MESSAGE(message_id=8721*)
    → "Yeah, if your rank goes up enough, you might even be able to talk to us on equal footing."
  2: 0x040E [0x23] WAIT_FOR_DIALOG_INTERACTION
  3: 0x040F [0x29] REQ_SET_WAIT(priority=0x08, entity_id=Ajido-Marujido (ID: 17752074/0x010EE00A), tag_num=0x17)
  4: 0x0416 [0x00] END_REQSTACK()
```

### Event 65535.60

#### Metadata

| Field        | Value     |
|--------------|-----------|
| Entrypoint   | 0x0417    |
| Data Size    | 200 bytes |
| Instructions | 24        |

```
      00 01 02 03 04 05 06 07  08 09 0A 0B 0C 0D 0E 0F
      -- -- -- -- -- -- -- --  -- -- -- -- -- -- -- --
0410:                      29  08 0A E0 0E 01 01 1D 3C         ).......<
0420: 80 23 29 08 0A E0 0E 01  02 29 08 0A E0 0E 01 11  .#)......)......
0430: 1D 3D 80 23 29 08 0A E0  0E 01 12 1C 03 80 52 3E  .=.#).........R>
0440: 80 F0 FF FF 7F F0 FF FF  7F 73 30 31 34 45 3E 80  .........s014E>.
0450: F0 FF FF 7F F0 FF FF 7F  73 30 38 38 3F 80 79 00  ........s088?.y.
0460: 0A E0 0E 01 0B E0 0E 01  4A 0B E0 0E 01 F0 FF FF  ........J.......
0470: 7F 2B 0B E0 0E 01 40 80  23 6F 76 0B E0 0E 01 52  .+....@.#ov....R
0480: 3E 80 F0 FF FF 7F F0 FF  FF 7F 73 30 38 38 45 3E  >.........s088E>
0490: 80 F0 FF FF 7F F0 FF FF  7F 73 30 31 34 3F 80 C8  .........s014?..
04A0: 41 80 42 80 42 80 8B 41  80 3F 80 43 80 44 80 4A  A.B.B..A.?.C.D.J
04B0: 61 63 6B 5F 6F 66 5F 48  65 61 72 74 73 00 00 2B  ack_of_Hearts..+
04C0: 0B E0 0E 01 45 80 23 8A  79 00 0A E0 0E 01 F0 FF  ....E.#.y.......
04D0: FF 7F 1C 03 80 1D 46 80  23 7B F8 FF FF 7F 00     ......F.#{..... 
```

#### Opcodes

```
  0: 0x0417 [0x29] REQ_SET_WAIT(priority=0x08, entity_id=Ajido-Marujido (ID: 17752074/0x010EE00A), tag_num=0x01)
  1: 0x041E [0x1D] PRINT_EVENT_MESSAGE(message_id=8722*)
    → "If you need to know anything else, ask our friend, Jack of Hearts. He's on patrol near the Huntsman's Court."
  2: 0x0421 [0x23] WAIT_FOR_DIALOG_INTERACTION
  3: 0x0422 [0x29] REQ_SET_WAIT(priority=0x08, entity_id=Ajido-Marujido (ID: 17752074/0x010EE00A), tag_num=0x02)
  4: 0x0429 [0x29] REQ_SET_WAIT(priority=0x08, entity_id=Ajido-Marujido (ID: 17752074/0x010EE00A), tag_num=0x11)
  5: 0x0430 [0x1D] PRINT_EVENT_MESSAGE(message_id=8723*)
    → "Here. If you give old Jack this, I'm sure he'll reward you. To pass him it, target him and select "Trade" from the main menu."
  6: 0x0433 [0x23] WAIT_FOR_DIALOG_INTERACTION
  7: 0x0434 [0x29] REQ_SET_WAIT(priority=0x08, entity_id=Ajido-Marujido (ID: 17752074/0x010EE00A), tag_num=0x12)
  8: 0x043B [0x1C] WAIT(30* ticks)
  9: 0x043E [0x52] END_LOAD_SCHEDULER: End scheduler "s014" with entities [LocalPlayer, LocalPlayer], work=138*
 10: 0x044D [0x45] LOAD_SCHEDULED_TASK: Load scheduler "s088" with entities [LocalPlayer, LocalPlayer], work=[138*, 0*]
 11: 0x045E [0x79] Ajido-Marujido (ID: 17752074/0x010EE00A) looks at Apururu (ID: 17752075/0x010EE00B) (Basic look)
 12: 0x0468 [0x4A] Apururu (ID: 17752075/0x010EE00B) looks at LocalPlayer
 13: 0x0471 [0x2B] Apururu (ID: 17752075/0x010EE00B) [7082*]:
    → "Jackkedy-Wack is what we in Windurst call a "Cardian.""
 14: 0x0478 [0x23] WAIT_FOR_DIALOG_INTERACTION
 15: 0x0479 [0x6F] WAIT_FRAME_DELAY: Yield until WaitTime reaches zero
 16: 0x047A [0x76] CHECK_ENTITY_RENDER_FLAGS: Wait until Apururu (ID: 17752075/0x010EE00B) Render.Flags0 and Render.Flags3 conditions are met
 17: 0x047F [0x52] END_LOAD_SCHEDULER: End scheduler "s088" with entities [LocalPlayer, LocalPlayer], work=138*
 18: 0x048E [0x45] LOAD_SCHEDULED_TASK: Load scheduler "s014" with entities [LocalPlayer, LocalPlayer], work=[138*, 0*]
 19: 0x049F [0xC8] OPEN_MAP_WINDOW(zone=0x8041, submap=0x8042, flag=0x8042)
 20: 0x04A6 [0x8B] SET_EVENT_MARK: Add/update map marker on map 238* at (-35.957*, 59.519*), index=0*, name=(no name)
 21: 0x04AF [0x4A] Unknown NPC (ID: 1600873313/0x5F6B6361) looks at Unknown NPC (ID: 1214211695/0x485F666F)
 22: 0x04B8 [0x65] CALCULATE_3D_DISTANCE(result=0x7261, entity1=Unknown NPC (ID: 29556/0x00007374), entity2=Unknown NPC (ID: 249563947/0x0EE00B2B))
 23: 0x04C3 [0x01] GOTO 0x8045
```

#### Data or dead code:

```
# Dead code (unreachable instructions):
     0x04C6 [0x23] WAIT_FOR_DIALOG_INTERACTION
     0x04C7 [0x8A] CLOSE_MAP()
     0x04C8 [0x79] Ajido-Marujido (ID: 17752074/0x010EE00A) looks at LocalPlayer (Basic look)
     0x04D2 [0x1C] WAIT(30* ticks)
     0x04D5 [0x1D] PRINT_EVENT_MESSAGE(message_id=8724*)
    → "That's all the help I can give you for now. Well, see you around, newbie."
     0x04D8 [0x23] WAIT_FOR_DIALOG_INTERACTION
     0x04D9 [0x7B] EventEntity stops talking
     0x04DE [0x00] END_REQSTACK()
```

### Event 146

#### Metadata

| Field        | Value   |
|--------------|---------|
| Entrypoint   | 0x04DF  |
| Data Size    | 1 bytes |
| Instructions | 1       |

```
      00 01 02 03 04 05 06 07  08 09 0A 0B 0C 0D 0E 0F
      -- -- -- -- -- -- -- --  -- -- -- -- -- -- -- --
04D0:                                               00                 .
```

#### Opcodes

```
  0: 0x04DF [0x00] END_REQSTACK()
```

### Event 65535.61

#### Metadata

| Field        | Value    |
|--------------|----------|
| Entrypoint   | 0x04E0   |
| Data Size    | 12 bytes |
| Instructions | 3        |

```
      00 01 02 03 04 05 06 07  08 09 0A 0B 0C 0D 0E 0F
      -- -- -- -- -- -- -- --  -- -- -- -- -- -- -- --
04E0: 37 47 80 48 80 49 80 4A  80 22 00 00              7G.H.I.J."..    
```

#### Opcodes

```
  0: 0x04E0 [0x37] UPDATE_EVENT_POSITION_AND_DIR: x=15.063*, z=-197.409*, y=-9.750*, direction=137.7°*
  1: 0x04E9 [0x22] ENTITY_HIDE_FLAG(enabled=0x00)
  2: 0x04EB [0x00] END_REQSTACK()
```

### Event 65535.62

#### Metadata

| Field        | Value    |
|--------------|----------|
| Entrypoint   | 0x04EC   |
| Data Size    | 21 bytes |
| Instructions | 6        |

```
      00 01 02 03 04 05 06 07  08 09 0A 0B 0C 0D 0E 0F
      -- -- -- -- -- -- -- --  -- -- -- -- -- -- -- --
04E0:                                      32 09 80 1F              2...
04F0: 00 4B 80 4C 80 4D 80 1F  01 6F 4E 01 0A E0 0E 01  .K.L.M...oN.....
0500: 00                                                .               
```

#### Opcodes

```
  0: 0x04EC [0x32] ExtData[1]->MainSpeed = 40* * 0.1
  1: 0x04EF [0x1F] MOVE_ENTITY: EventEntity moves to X=24.490*, Z=-198.122*, Y=-9.749*
  2: 0x04F7 [0x1F] MOVE_ENTITY: Update entity position (mode=1)
  3: 0x04F9 [0x6F] WAIT_FRAME_DELAY: Yield until WaitTime reaches zero
  4: 0x04FA [0x4E] SET_ENTITY_HIDE_FLAG: Hide Ajido-Marujido (ID: 17752074/0x010EE00A)
  5: 0x0500 [0x00] END_REQSTACK()
```

### Event 65535.63

#### Metadata

| Field        | Value    |
|--------------|----------|
| Entrypoint   | 0x0501   |
| Data Size    | 30 bytes |
| Instructions | 8        |

```
      00 01 02 03 04 05 06 07  08 09 0A 0B 0C 0D 0E 0F
      -- -- -- -- -- -- -- --  -- -- -- -- -- -- -- --
0500:    29 08 0A E0 0E 01 01  1D 4E 80 23 1D 4F 80 23   ).......N.#.O.#
0510: 29 08 0A E0 0E 01 03 29  08 0A E0 0E 01 04 00     )......)....... 
```

#### Opcodes

```
  0: 0x0501 [0x29] REQ_SET_WAIT(priority=0x08, entity_id=Ajido-Marujido (ID: 17752074/0x010EE00A), tag_num=0x01)
  1: 0x0508 [0x1D] PRINT_EVENT_MESSAGE(message_id=7620*)
    → "I know, I know. That's why I'm asking you for your cooperation."
  2: 0x050B [0x23] WAIT_FOR_DIALOG_INTERACTION
  3: 0x050C [0x1D] PRINT_EVENT_MESSAGE(message_id=7621*)
    → "Our objectives coincide... I'm in search of Karaha-Baruha's laboratory, and you're in search of the great beast's lair."
  4: 0x050F [0x23] WAIT_FOR_DIALOG_INTERACTION
  5: 0x0510 [0x29] REQ_SET_WAIT(priority=0x08, entity_id=Ajido-Marujido (ID: 17752074/0x010EE00A), tag_num=0x03)
  6: 0x0517 [0x29] REQ_SET_WAIT(priority=0x08, entity_id=Ajido-Marujido (ID: 17752074/0x010EE00A), tag_num=0x04)
  7: 0x051E [0x00] END_REQSTACK()
```

### Event 65535.64

#### Metadata

| Field        | Value    |
|--------------|----------|
| Entrypoint   | 0x051F   |
| Data Size    | 19 bytes |
| Instructions | 5        |

```
      00 01 02 03 04 05 06 07  08 09 0A 0B 0C 0D 0E 0F
      -- -- -- -- -- -- -- --  -- -- -- -- -- -- -- --
0510:                                               29                 )
0520: 08 0A E0 0E 01 0D 1D 50  80 23 29 08 0A E0 0E 01  .......P.#).....
0530: 0F 00                                             ..              
```

#### Opcodes

```
  0: 0x051F [0x29] REQ_SET_WAIT(priority=0x08, entity_id=Ajido-Marujido (ID: 17752074/0x010EE00A), tag_num=0x0D)
  1: 0x0526 [0x1D] PRINT_EVENT_MESSAGE(message_id=7623*)
    → "You don't get what I'm saying. That's why I'm asking you! Listen. On the night Rukususu comes back from the Northlands..."
  2: 0x0529 [0x23] WAIT_FOR_DIALOG_INTERACTION
  3: 0x052A [0x29] REQ_SET_WAIT(priority=0x08, entity_id=Ajido-Marujido (ID: 17752074/0x010EE00A), tag_num=0x0F)
  4: 0x0531 [0x00] END_REQSTACK()
```

### Event 65535.65

#### Metadata

| Field        | Value    |
|--------------|----------|
| Entrypoint   | 0x0532   |
| Data Size    | 19 bytes |
| Instructions | 5        |

```
      00 01 02 03 04 05 06 07  08 09 0A 0B 0C 0D 0E 0F
      -- -- -- -- -- -- -- --  -- -- -- -- -- -- -- --
0530:       29 08 0A E0 0E 01  01 1D 51 80 23 29 08 0A    ).......Q.#)..
0540: E0 0E 01 03 00                                    .....           
```

#### Opcodes

```
  0: 0x0532 [0x29] REQ_SET_WAIT(priority=0x08, entity_id=Ajido-Marujido (ID: 17752074/0x010EE00A), tag_num=0x01)
  1: 0x0539 [0x1D] PRINT_EVENT_MESSAGE(message_id=7624*)
    → "...Let's continue this discussion later! Ta-taru!"
  2: 0x053C [0x23] WAIT_FOR_DIALOG_INTERACTION
  3: 0x053D [0x29] REQ_SET_WAIT(priority=0x08, entity_id=Ajido-Marujido (ID: 17752074/0x010EE00A), tag_num=0x03)
  4: 0x0544 [0x00] END_REQSTACK()
```
