# 17752132 - Baren-Moren

## Common Data

| Field            | Value                     |
|------------------|---------------------------|
| Zone             | Windurst Waters (ID: 238) |
| Block Size       | 3116 bytes                |
| Total Events     | 86                        |
| References Count | 82                        |

## List of Events

| Event ID                   | Entrypoint   |   Size |   Instructions |
|----------------------------|--------------|--------|----------------|
| [65535](#event-65535)      | 0x0000       |      1 |              1 |
| [65535.1](#event-655351)   | 0x0001       |     16 |              2 |
| [65535.2](#event-655352)   | 0x0011       |     22 |              4 |
| [65535.3](#event-655353)   | 0x0027       |     16 |              2 |
| [65535.4](#event-655354)   | 0x0037       |     14 |              2 |
| [65535.5](#event-655355)   | 0x0045       |     16 |              2 |
| [65535.6](#event-655356)   | 0x0055       |     14 |              2 |
| [65535.7](#event-655357)   | 0x0063       |     16 |              2 |
| [65535.8](#event-655358)   | 0x0073       |     22 |              4 |
| [65535.9](#event-655359)   | 0x0089       |     16 |              2 |
| [65535.10](#event-6553510) | 0x0099       |     14 |              2 |
| [65535.11](#event-6553511) | 0x00A7       |     16 |              2 |
| [65535.12](#event-6553512) | 0x00B7       |     22 |              4 |
| [65535.13](#event-6553513) | 0x00CD       |     16 |              2 |
| [65535.14](#event-6553514) | 0x00DD       |     14 |              2 |
| [65535.15](#event-6553515) | 0x00EB       |     16 |              2 |
| [65535.16](#event-6553516) | 0x00FB       |     22 |              4 |
| [65535.17](#event-6553517) | 0x0111       |     16 |              2 |
| [65535.18](#event-6553518) | 0x0121       |     22 |              4 |
| [65535.19](#event-6553519) | 0x0137       |     16 |              2 |
| [65535.20](#event-6553520) | 0x0147       |     14 |              2 |
| [65535.21](#event-6553521) | 0x0155       |     16 |              2 |
| [65535.22](#event-6553522) | 0x0165       |     22 |              4 |
| [65535.23](#event-6553523) | 0x017B       |     16 |              2 |
| [65535.24](#event-6553524) | 0x018B       |     14 |              2 |
| [65535.25](#event-6553525) | 0x0199       |     16 |              2 |
| [65535.26](#event-6553526) | 0x01A9       |     22 |              4 |
| [65535.27](#event-6553527) | 0x01BF       |     16 |              2 |
| [65535.28](#event-6553528) | 0x01CF       |     14 |              2 |
| [65535.29](#event-6553529) | 0x01DD       |      9 |              3 |
| [2](#event-2)              | 0x01E6       |      4 |              3 |
| [3](#event-3)              | 0x01EA       |      1 |              1 |
| [42](#event-42)            | 0x01EB       |     33 |             12 |
| [44](#event-44)            | 0x020C       |     33 |             12 |
| [45](#event-45)            | 0x022D       |     29 |             10 |
| [46](#event-46)            | 0x024A       |     29 |             10 |
| [47](#event-47)            | 0x0267       |     29 |             10 |
| [48](#event-48)            | 0x0284       |     72 |             17 |
| [65535.30](#event-6553530) | 0x02CC       |      8 |              2 |
| [65535.31](#event-6553531) | 0x02D4       |     15 |              3 |
| [65535.32](#event-6553532) | 0x02E3       |     27 |              9 |
| [65535.33](#event-6553533) | 0x02FE       |      5 |              3 |
| [65535.34](#event-6553534) | 0x0303       |     23 |              7 |
| [65535.35](#event-6553535) | 0x031A       |      5 |              3 |
| [49](#event-49)            | 0x031F       |     89 |             23 |
| [51](#event-51)            | 0x0378       |     33 |             12 |
| [52](#event-52)            | 0x0399       |    248 |             48 |
| [65535.36](#event-6553536) | 0x0491       |      5 |              3 |
| [65535.37](#event-6553537) | 0x0496       |      5 |              3 |
| [65535.38](#event-6553538) | 0x049B       |      9 |              5 |
| [65535.39](#event-6553539) | 0x04A4       |      9 |              5 |
| [65535.40](#event-6553540) | 0x04AD       |     24 |              9 |
| [65535.41](#event-6553541) | 0x04C5       |     24 |              9 |
| [63](#event-63)            | 0x04DD       |     29 |             10 |
| [64](#event-64)            | 0x04FA       |     29 |             10 |
| [65](#event-65)            | 0x0517       |     29 |             10 |
| [66](#event-66)            | 0x0534       |     29 |             10 |
| [67](#event-67)            | 0x0551       |     29 |             10 |
| [68](#event-68)            | 0x056E       |     29 |             10 |
| [1022](#event-1022)        | 0x058B       |     29 |             10 |
| [547](#event-547)          | 0x05A8       |     42 |             12 |
| [65535.42](#event-6553542) | 0x05D2       |      9 |              5 |
| [65535.43](#event-6553543) | 0x05DB       |      9 |              5 |
| [548](#event-548)          | 0x05E4       |     33 |             12 |
| [549](#event-549)          | 0x0605       |     71 |             17 |
| [65535.44](#event-6553544) | 0x064C       |     23 |              7 |
| [65535.45](#event-6553545) | 0x0663       |      5 |              3 |
| [65535.46](#event-6553546) | 0x0668       |      5 |              3 |
| [550](#event-550)          | 0x066D       |     29 |             10 |
| [72](#event-72)            | 0x068A       |     49 |             13 |
| [65535.47](#event-6553547) | 0x06BB       |     19 |              5 |
| [74](#event-74)            | 0x06CE       |     19 |              5 |
| [75](#event-75)            | 0x06E1       |    147 |             31 |
| [65535.48](#event-6553548) | 0x0774       |     55 |             13 |
| [65535.49](#event-6553549) | 0x07AB       |     19 |              5 |
| [65535.50](#event-6553550) | 0x07BE       |     19 |              5 |
| [65535.51](#event-6553551) | 0x07D1       |     19 |              5 |
| [77](#event-77)            | 0x07E4       |     44 |             12 |
| [78](#event-78)            | 0x0810       |     47 |             14 |
| [79](#event-79)            | 0x083F       |     85 |             19 |
| [65535.52](#event-6553552) | 0x0894       |     23 |              7 |
| [65535.53](#event-6553553) | 0x08AB       |     19 |              5 |
| [80](#event-80)            | 0x08BE       |     44 |             13 |
| [84](#event-84)            | 0x08EA       |     74 |             18 |
| [65535.54](#event-6553554) | 0x0934       |     23 |              7 |
| [85](#event-85)            | 0x094B       |     47 |             14 |

## DAT References (imed_data)

|   Index | Hex Value   |   Dec Value |
|---------|-------------|-------------|
|       0 | 0x0028      |          40 |
|       1 | 0x001E      |          30 |
|       2 | 0x0029      |          41 |
|       3 | 0x002A      |          42 |
|       4 | 0x1CC6      |        7366 |
|       5 | 0x1CC7      |        7367 |
|       6 | 0x1CCA      |        7370 |
|       7 | 0x1CCB      |        7371 |
|       8 | 0x1CCC      |        7372 |
|       9 | 0x1CCD      |        7373 |
|      10 | 0x1CCE      |        7374 |
|      11 | 0x1CD3      |        7379 |
|      12 | 0x0000      |           0 |
|      13 | 0x0001      |           1 |
|      14 | 0x0002      |           2 |
|      15 | 0x1CCF      |        7375 |
|      16 | 0x1CD0      |        7376 |
|      17 | 0x1CD1      |        7377 |
|      18 | 0x1CD4      |        7380 |
|      19 | 0x1CD5      |        7381 |
|      20 | 0x1CD6      |        7382 |
|      21 | 0x1CD7      |        7383 |
|      22 | 0x1CD2      |        7378 |
|      23 | 0x1CD8      |        7384 |
|      24 | 0x1CD9      |        7385 |
|      25 | 0x1CDA      |        7386 |
|      26 | 0x1CDB      |        7387 |
|      27 | 0x1CF0      |        7408 |
|      28 | 0x00C8      |         200 |
|      29 | 0x0078      |         120 |
|      30 | 0x0014      |          20 |
|      31 | 0x0003      |           3 |
|      32 | 0x0050      |          80 |
|      33 | 0x0004      |           4 |
|      34 | 0x0005      |           5 |
|      35 | 0x00C9      |         201 |
|      36 | 0x1CF1      |        7409 |
|      37 | 0x1CF2      |        7410 |
|      38 | 0x1CF4      |        7412 |
|      39 | 0x1CF5      |        7413 |
|      40 | 0x1CF7      |        7415 |
|      41 | 0x1CF8      |        7416 |
|      42 | 0x1CFA      |        7418 |
|      43 | 0x1CFC      |        7420 |
|      44 | 0x1CFB      |        7419 |
|      45 | 0x1CFD      |        7421 |
|      46 | 0x1CFF      |        7423 |
|      47 | 0x1CFE      |        7422 |
|      48 | 0x1CF3      |        7411 |
|      49 | 0x1CF6      |        7414 |
|      50 | 0x1CF9      |        7417 |
|      51 | 0x1D00      |        7424 |
|      52 | 0x1D06      |        7430 |
|      53 | 0x223C      |        8764 |
|      54 | 0x223D      |        8765 |
|      55 | 0x223E      |        8766 |
|      56 | 0x223F      |        8767 |
|      57 | 0x2240      |        8768 |
|      58 | 0x2241      |        8769 |
|      59 | 0x2242      |        8770 |
|      60 | 0x2243      |        8771 |
|      61 | 0x2244      |        8772 |
|      62 | 0x2245      |        8773 |
|      63 | 0x2246      |        8774 |
|      64 | 0x1D05      |        7429 |
|      65 | 0x1D0D      |        7437 |
|      66 | 0x1D07      |        7431 |
|      67 | 0x1D08      |        7432 |
|      68 | 0x1D09      |        7433 |
|      69 | 0x1D0B      |        7435 |
|      70 | 0x1D0C      |        7436 |
|      71 | 0x1D0E      |        7438 |
|      72 | 0x1D0F      |        7439 |
|      73 | 0x1D11      |        7441 |
|      74 | 0x1998      |        6552 |
|      75 | 0x1D12      |        7442 |
|      76 | 0x1D13      |        7443 |
|      77 | 0x1D14      |        7444 |
|      78 | 0x1D18      |        7448 |
|      79 | 0x1D19      |        7449 |
|      80 | 0x1D1A      |        7450 |
|      81 | 0x1D1B      |        7451 |

## String References

- **6552**: Obtained $0 gil.
- **7366**: Humph. Sorry, but we don't have a hat to suit you right now.
- **7367**: Perhaps if you grew a smarter head we could find you a smarter hat!
- **7370**: A hat may seem to be a simple garment, but it has the right to select the one who will wear it.
- **7371**: As we in the business say... "If the wearer fits, hat it."
- **7372**: For many long years I've been friends with Bondada, that customer over there. We've chatted over tea, but we can never seem to agree on anything.
- **7373**: A good hat doesn't hide the wearer--it expresses the very essence of the wearer.
- **7374**: They say that there are stars in the heavens that wear hats. They're far better dressers than we could ever be!
- **7375**: Hey, you'll do! You have just the right appearance.
- **7376**: I'd like you to take my latest creation and show it off around the whole of Windurst Waters.
- **7377**: How about it? I'll make it worth your while. Care to try your hand at the exciting new field of headwear advertising?
- **7378**: By the way, do you want to give the hat advertising gig another go?
- **7379**: Advertise the hatter's wares? [Give it a go./Decline.]
- **7380**: That's the problem with young people today... They give in at the drop of a hat! Come back when you're ready to help both me and yourself!
- **7381**: A mad rush, or mediocre sales... It all depends on how well you show off this model!
- **7382**: Be sure to talk to any potential customers you see! If it goes well, I'll give you a small percentage of the sales.
- **7383**: Oh, and please limit your advertising to Windurst Waters. We must focus our efforts in this one area! Understand?
- **7384**: If you see a potential customer, go ahead and converse with him or her as you show off my hat. People who appreciate fine headwear will surely have their interests aroused.
- **7385**: I have a bet with that customer, Bondada, over how many orders we'll get from the people in this area today.
- **7386**: Take that hat and walk around Windurst Waters with it. Try and attract as much attention as possible by talking to people.
- **7387**: Fashion tastes change, so each style of hat has a limited time and area of appeal. It's better if you stay in Windurst Waters and focus your efforts here. You got it?
- **7408**: Hang your hat up? [Not yet./Yes. Done.]
- **7409**: If you're throwing in the hat, then I'm taking it back from you.
- **7410**: Hey, you didn't seem to do any work at all. You have the impudence to ask for a wage for that? What do you think I am, a charity?
- **7411**: There'll be no passing the hat around here! Get out of here, you slacker!
- **7412**: That didn't go very well at all. I didn't get a single inquiry, let alone an order.
- **7413**: Anyway, here's a little pocket money for your limited effort, bad hat. Don't spend it all at once.
- **7414**: It's not my workmanship that's the problem. It's my poor choice of hired help! Why did I ever bother asking you?
- **7415**: A few orders have trickled in, but nothing like I had expected. This style should have caught on like wildfire.
- **7416**: Anyway, here's your pocket money. Don't spend it all at once.
- **7417**: I guess that's what happens when you ask an amateur to do your advertising. I had better go put on my thinking cap...
- **7418**: That's a lot of orders we've had. My new style of hat is so charming, it's a crime!
- **7419**: You've earned yourself quite a hefty cut of the sales, young'un. Watch you don't get cat burgled! I'll also give you one of my hats for good measure.
- **7420**: Both my workmanship and my skill in selecting hired help are spot on! I won the wager. That'll make Bondada eat her hat.
- **7421**: I take my hat off to you. Why, I even have orders coming in from other countries! I don't know what you did, but it worked wonders.
- **7422**: Your talent in advertising is almost as brilliantaru as my talent in hatmaking. Here, take the hat as a reward.
- **7423**: You seem to have a sense of business there, young'un. Perhaps you should wear two hats, and take up advertising as a side job to your adventuring?
- **7424**: Come back to this shop when you have the time, and train yourself to become a hat connoisseur.
- **7429**: I'm in a bit of a fix... but it doesn't concern you.
- **7430**: If you're not here to buy one of my hats, then hurry up and leave.
- **7431**: I'm in a bit of a fix... Would you be so good as to hear me out...?
- **7432**: Some big-wigged madam wants me to make her a particularly luxurious hat... Arrrgh!
- **7433**: I'm reluctant, as my hats aren't just for appearance's sake.
- **7435**: I already told you, Bondada, I can make something as simple as a grande dame's hat with my eyes shut.
- **7436**: That's it! Hey, <Player>! Want to help me out here?
- **7437**: Help make the lady's luxurious hat? [Give it a try./Decline.]
- **7438**: Why you...! You just came here to see me wear a dunce's cap too, didn't you?
- **7439**: I'm going to need feathers... Lots of big feathers! How about you get me three $1 from the monsters that live on the Meriphataud Mountains and Sauromugue Champaign?
- **7441**: Hurry up and get me those feathers! I'll make that woman eat her hat!
- **7442**: Well done. You were able to get all I needed.
- **7443**: That caps off this story! Here, this should pay for your efforts.
- **7444**: Prepare yourself, Bondada! I'll show you what a luxurious hat is!
- **7448**: Remember that luxurious hat I was making? Well, it seems that I don't have enough plumage.
- **7449**: Would you be so good as to help me out again? Then you can help me ruffle Bondada's feathers.
- **7450**: I need three more $1 that you can pluck from the monsters on the Sauromugue Champaign and Meriphataud Mountains.
- **7451**: So hurry up and plucking get me those feathers!
- **8764**: What a fine sailor's cap... Such a shame it's so terribly torn...
- **8765**: And these are made out of leather, too... It would be a damn sight quicker to make a new one.
- **8766**: To-ho-ho... Might as well try full-scale surgery to see if we can resurrect the poor blighter.
- **8767**: Listen up. I'll need four $1 to save this worn and torn sailor...and a little bit of luck as well.
- **8768**: To-ho-ho... Might as well try full-scale surgery to see if we can resurrect the poor blighter.
- **8769**: Listen up. I'll need four $1 to save this worn and torn sailor...and a little luck as well.
- **8770**: Wish me luck, 'cause here it goes...
- **8771**: Ta\`da\`t The operation was a success! To tell you the truth, I had been working on it using some of the leather I had lying around here. To-ho-ho.
- **8772**: Oh, and here, I also made a little something for you, too...
- **8773**: To-ho-ho! I just made it using the scraps of leather I had left over, but it's quite a dandy little design, isn't it?
- **8774**: To-ho-ho! Not that it would happen, but if you ever lost your $0 again, just bring me four $1, and I'll make you a new one.

## Events

### Event 65535

#### Metadata

| Field        | Value   |
|--------------|---------|
| Entrypoint   | 0x0000  |
| Data Size    | 1 bytes |
| Instructions | 1       |

```
      00 01 02 03 04 05 06 07  08 09 0A 0B 0C 0D 0E 0F
      -- -- -- -- -- -- -- --  -- -- -- -- -- -- -- --
0000: 00                                                .               
```

#### Opcodes

```
  0: 0x0000 [0x00] END_REQSTACK()
```

### Event 65535.1

#### Metadata

| Field        | Value    |
|--------------|----------|
| Entrypoint   | 0x0001   |
| Data Size    | 16 bytes |
| Instructions | 2        |

```
      00 01 02 03 04 05 06 07  08 09 0A 0B 0C 0D 0E 0F
      -- -- -- -- -- -- -- --  -- -- -- -- -- -- -- --
0000:    66 00 80 F8 FF FF 7F  F8 FF FF 7F 74 6C 6B 30   f..........tlk0
0010: 00                                                .               
```

#### Opcodes

```
  0: 0x0001 [0x66] LOAD_EXT_SCHEDULER_MAIN: Load scheduler "tlk0" with entities [EventEntity, EventEntity], work=40*
  1: 0x0010 [0x00] END_REQSTACK()
```

### Event 65535.2

#### Metadata

| Field        | Value    |
|--------------|----------|
| Entrypoint   | 0x0011   |
| Data Size    | 22 bytes |
| Instructions | 4        |

```
      00 01 02 03 04 05 06 07  08 09 0A 0B 0C 0D 0E 0F
      -- -- -- -- -- -- -- --  -- -- -- -- -- -- -- --
0010:    53 F8 FF FF 7F F8 FF  FF 7F 74 6C 6B 30 5E 69   S........tlk0^i
0020: 64 6C 30 1C 01 80 00                              dl0....         
```

#### Opcodes

```
  0: 0x0011 [0x53] WAIT_SCHEDULER_TASK: Wait for scheduler "tlk0" with entities [EventEntity, EventEntity]
  1: 0x001E [0x5E] EventEntity goes idle (kills current action) (animation: "idl0")
  2: 0x0023 [0x1C] WAIT(30* ticks)
  3: 0x0026 [0x00] END_REQSTACK()
```

### Event 65535.3

#### Metadata

| Field        | Value    |
|--------------|----------|
| Entrypoint   | 0x0027   |
| Data Size    | 16 bytes |
| Instructions | 2        |

```
      00 01 02 03 04 05 06 07  08 09 0A 0B 0C 0D 0E 0F
      -- -- -- -- -- -- -- --  -- -- -- -- -- -- -- --
0020:                      66  00 80 F8 FF FF 7F F8 FF         f........
0030: FF 7F 74 68 6B 31 00                              ..thk1.         
```

#### Opcodes

```
  0: 0x0027 [0x66] LOAD_EXT_SCHEDULER_MAIN: Load scheduler "thk1" with entities [EventEntity, EventEntity], work=40*
  1: 0x0036 [0x00] END_REQSTACK()
```

### Event 65535.4

#### Metadata

| Field        | Value    |
|--------------|----------|
| Entrypoint   | 0x0037   |
| Data Size    | 14 bytes |
| Instructions | 2        |

```
      00 01 02 03 04 05 06 07  08 09 0A 0B 0C 0D 0E 0F
      -- -- -- -- -- -- -- --  -- -- -- -- -- -- -- --
0030:                      53  F8 FF FF 7F F8 FF FF 7F         S........
0040: 74 68 6B 31 00                                    thk1.           
```

#### Opcodes

```
  0: 0x0037 [0x53] WAIT_SCHEDULER_TASK: Wait for scheduler "thk1" with entities [EventEntity, EventEntity]
  1: 0x0044 [0x00] END_REQSTACK()
```

### Event 65535.5

#### Metadata

| Field        | Value    |
|--------------|----------|
| Entrypoint   | 0x0045   |
| Data Size    | 16 bytes |
| Instructions | 2        |

```
      00 01 02 03 04 05 06 07  08 09 0A 0B 0C 0D 0E 0F
      -- -- -- -- -- -- -- --  -- -- -- -- -- -- -- --
0040:                66 00 80  F8 FF FF 7F F8 FF FF 7F       f..........
0050: 74 68 6B 32 00                                    thk2.           
```

#### Opcodes

```
  0: 0x0045 [0x66] LOAD_EXT_SCHEDULER_MAIN: Load scheduler "thk2" with entities [EventEntity, EventEntity], work=40*
  1: 0x0054 [0x00] END_REQSTACK()
```

### Event 65535.6

#### Metadata

| Field        | Value    |
|--------------|----------|
| Entrypoint   | 0x0055   |
| Data Size    | 14 bytes |
| Instructions | 2        |

```
      00 01 02 03 04 05 06 07  08 09 0A 0B 0C 0D 0E 0F
      -- -- -- -- -- -- -- --  -- -- -- -- -- -- -- --
0050:                53 F8 FF  FF 7F F8 FF FF 7F 74 68       S........th
0060: 6B 32 00                                          k2.             
```

#### Opcodes

```
  0: 0x0055 [0x53] WAIT_SCHEDULER_TASK: Wait for scheduler "thk2" with entities [EventEntity, EventEntity]
  1: 0x0062 [0x00] END_REQSTACK()
```

### Event 65535.7

#### Metadata

| Field        | Value    |
|--------------|----------|
| Entrypoint   | 0x0063   |
| Data Size    | 16 bytes |
| Instructions | 2        |

```
      00 01 02 03 04 05 06 07  08 09 0A 0B 0C 0D 0E 0F
      -- -- -- -- -- -- -- --  -- -- -- -- -- -- -- --
0060:          66 02 80 F8 FF  FF 7F F8 FF FF 7F 65 68     f..........eh
0070: 6E 30 00                                          n0.             
```

#### Opcodes

```
  0: 0x0063 [0x66] LOAD_EXT_SCHEDULER_MAIN: Load scheduler "ehn0" with entities [EventEntity, EventEntity], work=41*
  1: 0x0072 [0x00] END_REQSTACK()
```

### Event 65535.8

#### Metadata

| Field        | Value    |
|--------------|----------|
| Entrypoint   | 0x0073   |
| Data Size    | 22 bytes |
| Instructions | 4        |

```
      00 01 02 03 04 05 06 07  08 09 0A 0B 0C 0D 0E 0F
      -- -- -- -- -- -- -- --  -- -- -- -- -- -- -- --
0070:          53 F8 FF FF 7F  F8 FF FF 7F 65 68 6E 30     S........ehn0
0080: 5E 69 64 6C 30 1C 01 80  00                       ^idl0....       
```

#### Opcodes

```
  0: 0x0073 [0x53] WAIT_SCHEDULER_TASK: Wait for scheduler "ehn0" with entities [EventEntity, EventEntity]
  1: 0x0080 [0x5E] EventEntity goes idle (kills current action) (animation: "idl0")
  2: 0x0085 [0x1C] WAIT(30* ticks)
  3: 0x0088 [0x00] END_REQSTACK()
```

### Event 65535.9

#### Metadata

| Field        | Value    |
|--------------|----------|
| Entrypoint   | 0x0089   |
| Data Size    | 16 bytes |
| Instructions | 2        |

```
      00 01 02 03 04 05 06 07  08 09 0A 0B 0C 0D 0E 0F
      -- -- -- -- -- -- -- --  -- -- -- -- -- -- -- --
0080:                             66 00 80 F8 FF FF 7F           f......
0090: F8 FF FF 7F 70 6F 69 30  00                       ....poi0.       
```

#### Opcodes

```
  0: 0x0089 [0x66] LOAD_EXT_SCHEDULER_MAIN: Load scheduler "poi0" with entities [EventEntity, EventEntity], work=40*
  1: 0x0098 [0x00] END_REQSTACK()
```

### Event 65535.10

#### Metadata

| Field        | Value    |
|--------------|----------|
| Entrypoint   | 0x0099   |
| Data Size    | 14 bytes |
| Instructions | 2        |

```
      00 01 02 03 04 05 06 07  08 09 0A 0B 0C 0D 0E 0F
      -- -- -- -- -- -- -- --  -- -- -- -- -- -- -- --
0090:                             53 F8 FF FF 7F F8 FF           S......
00A0: FF 7F 70 6F 69 30 00                              ..poi0.         
```

#### Opcodes

```
  0: 0x0099 [0x53] WAIT_SCHEDULER_TASK: Wait for scheduler "poi0" with entities [EventEntity, EventEntity]
  1: 0x00A6 [0x00] END_REQSTACK()
```

### Event 65535.11

#### Metadata

| Field        | Value    |
|--------------|----------|
| Entrypoint   | 0x00A7   |
| Data Size    | 16 bytes |
| Instructions | 2        |

```
      00 01 02 03 04 05 06 07  08 09 0A 0B 0C 0D 0E 0F
      -- -- -- -- -- -- -- --  -- -- -- -- -- -- -- --
00A0:                      66  03 80 F8 FF FF 7F F8 FF         f........
00B0: FF 7F 62 69 6B 30 00                              ..bik0.         
```

#### Opcodes

```
  0: 0x00A7 [0x66] LOAD_EXT_SCHEDULER_MAIN: Load scheduler "bik0" with entities [EventEntity, EventEntity], work=42*
  1: 0x00B6 [0x00] END_REQSTACK()
```

### Event 65535.12

#### Metadata

| Field        | Value    |
|--------------|----------|
| Entrypoint   | 0x00B7   |
| Data Size    | 22 bytes |
| Instructions | 4        |

```
      00 01 02 03 04 05 06 07  08 09 0A 0B 0C 0D 0E 0F
      -- -- -- -- -- -- -- --  -- -- -- -- -- -- -- --
00B0:                      53  F8 FF FF 7F F8 FF FF 7F         S........
00C0: 62 69 6B 30 5E 69 64 6C  30 1C 01 80 00           bik0^idl0....   
```

#### Opcodes

```
  0: 0x00B7 [0x53] WAIT_SCHEDULER_TASK: Wait for scheduler "bik0" with entities [EventEntity, EventEntity]
  1: 0x00C4 [0x5E] EventEntity goes idle (kills current action) (animation: "idl0")
  2: 0x00C9 [0x1C] WAIT(30* ticks)
  3: 0x00CC [0x00] END_REQSTACK()
```

### Event 65535.13

#### Metadata

| Field        | Value    |
|--------------|----------|
| Entrypoint   | 0x00CD   |
| Data Size    | 16 bytes |
| Instructions | 2        |

```
      00 01 02 03 04 05 06 07  08 09 0A 0B 0C 0D 0E 0F
      -- -- -- -- -- -- -- --  -- -- -- -- -- -- -- --
00C0:                                         66 02 80               f..
00D0: F8 FF FF 7F F8 FF FF 7F  73 68 6B 30 00           ........shk0.   
```

#### Opcodes

```
  0: 0x00CD [0x66] LOAD_EXT_SCHEDULER_MAIN: Load scheduler "shk0" with entities [EventEntity, EventEntity], work=41*
  1: 0x00DC [0x00] END_REQSTACK()
```

### Event 65535.14

#### Metadata

| Field        | Value    |
|--------------|----------|
| Entrypoint   | 0x00DD   |
| Data Size    | 14 bytes |
| Instructions | 2        |

```
      00 01 02 03 04 05 06 07  08 09 0A 0B 0C 0D 0E 0F
      -- -- -- -- -- -- -- --  -- -- -- -- -- -- -- --
00D0:                                         53 F8 FF               S..
00E0: FF 7F F8 FF FF 7F 73 68  6B 30 00                 ......shk0.     
```

#### Opcodes

```
  0: 0x00DD [0x53] WAIT_SCHEDULER_TASK: Wait for scheduler "shk0" with entities [EventEntity, EventEntity]
  1: 0x00EA [0x00] END_REQSTACK()
```

### Event 65535.15

#### Metadata

| Field        | Value    |
|--------------|----------|
| Entrypoint   | 0x00EB   |
| Data Size    | 16 bytes |
| Instructions | 2        |

```
      00 01 02 03 04 05 06 07  08 09 0A 0B 0C 0D 0E 0F
      -- -- -- -- -- -- -- --  -- -- -- -- -- -- -- --
00E0:                                   66 00 80 F8 FF             f....
00F0: FF 7F F8 FF FF 7F 73 79  75 30 00                 ......syu0.     
```

#### Opcodes

```
  0: 0x00EB [0x66] LOAD_EXT_SCHEDULER_MAIN: Load scheduler "syu0" with entities [EventEntity, EventEntity], work=40*
  1: 0x00FA [0x00] END_REQSTACK()
```

### Event 65535.16

#### Metadata

| Field        | Value    |
|--------------|----------|
| Entrypoint   | 0x00FB   |
| Data Size    | 22 bytes |
| Instructions | 4        |

```
      00 01 02 03 04 05 06 07  08 09 0A 0B 0C 0D 0E 0F
      -- -- -- -- -- -- -- --  -- -- -- -- -- -- -- --
00F0:                                   53 F8 FF FF 7F             S....
0100: F8 FF FF 7F 73 79 75 30  5E 69 64 6C 30 1C 01 80  ....syu0^idl0...
0110: 00                                                .               
```

#### Opcodes

```
  0: 0x00FB [0x53] WAIT_SCHEDULER_TASK: Wait for scheduler "syu0" with entities [EventEntity, EventEntity]
  1: 0x0108 [0x5E] EventEntity goes idle (kills current action) (animation: "idl0")
  2: 0x010D [0x1C] WAIT(30* ticks)
  3: 0x0110 [0x00] END_REQSTACK()
```

### Event 65535.17

#### Metadata

| Field        | Value    |
|--------------|----------|
| Entrypoint   | 0x0111   |
| Data Size    | 16 bytes |
| Instructions | 2        |

```
      00 01 02 03 04 05 06 07  08 09 0A 0B 0C 0D 0E 0F
      -- -- -- -- -- -- -- --  -- -- -- -- -- -- -- --
0110:    66 00 80 F8 FF FF 7F  F8 FF FF 7F 7A 69 74 30   f..........zit0
0120: 00                                                .               
```

#### Opcodes

```
  0: 0x0111 [0x66] LOAD_EXT_SCHEDULER_MAIN: Load scheduler "zit0" with entities [EventEntity, EventEntity], work=40*
  1: 0x0120 [0x00] END_REQSTACK()
```

### Event 65535.18

#### Metadata

| Field        | Value    |
|--------------|----------|
| Entrypoint   | 0x0121   |
| Data Size    | 22 bytes |
| Instructions | 4        |

```
      00 01 02 03 04 05 06 07  08 09 0A 0B 0C 0D 0E 0F
      -- -- -- -- -- -- -- --  -- -- -- -- -- -- -- --
0120:    53 F8 FF FF 7F F8 FF  FF 7F 7A 69 74 30 5E 69   S........zit0^i
0130: 64 6C 30 1C 01 80 00                              dl0....         
```

#### Opcodes

```
  0: 0x0121 [0x53] WAIT_SCHEDULER_TASK: Wait for scheduler "zit0" with entities [EventEntity, EventEntity]
  1: 0x012E [0x5E] EventEntity goes idle (kills current action) (animation: "idl0")
  2: 0x0133 [0x1C] WAIT(30* ticks)
  3: 0x0136 [0x00] END_REQSTACK()
```

### Event 65535.19

#### Metadata

| Field        | Value    |
|--------------|----------|
| Entrypoint   | 0x0137   |
| Data Size    | 16 bytes |
| Instructions | 2        |

```
      00 01 02 03 04 05 06 07  08 09 0A 0B 0C 0D 0E 0F
      -- -- -- -- -- -- -- --  -- -- -- -- -- -- -- --
0130:                      66  00 80 F8 FF FF 7F F8 FF         f........
0140: FF 7F 77 61 69 30 00                              ..wai0.         
```

#### Opcodes

```
  0: 0x0137 [0x66] LOAD_EXT_SCHEDULER_MAIN: Load scheduler "wai0" with entities [EventEntity, EventEntity], work=40*
  1: 0x0146 [0x00] END_REQSTACK()
```

### Event 65535.20

#### Metadata

| Field        | Value    |
|--------------|----------|
| Entrypoint   | 0x0147   |
| Data Size    | 14 bytes |
| Instructions | 2        |

```
      00 01 02 03 04 05 06 07  08 09 0A 0B 0C 0D 0E 0F
      -- -- -- -- -- -- -- --  -- -- -- -- -- -- -- --
0140:                      53  F8 FF FF 7F F8 FF FF 7F         S........
0150: 77 61 69 30 00                                    wai0.           
```

#### Opcodes

```
  0: 0x0147 [0x53] WAIT_SCHEDULER_TASK: Wait for scheduler "wai0" with entities [EventEntity, EventEntity]
  1: 0x0154 [0x00] END_REQSTACK()
```

### Event 65535.21

#### Metadata

| Field        | Value    |
|--------------|----------|
| Entrypoint   | 0x0155   |
| Data Size    | 16 bytes |
| Instructions | 2        |

```
      00 01 02 03 04 05 06 07  08 09 0A 0B 0C 0D 0E 0F
      -- -- -- -- -- -- -- --  -- -- -- -- -- -- -- --
0150:                66 00 80  F8 FF FF 7F F8 FF FF 7F       f..........
0160: 67 6B 72 30 00                                    gkr0.           
```

#### Opcodes

```
  0: 0x0155 [0x66] LOAD_EXT_SCHEDULER_MAIN: Load scheduler "gkr0" with entities [EventEntity, EventEntity], work=40*
  1: 0x0164 [0x00] END_REQSTACK()
```

### Event 65535.22

#### Metadata

| Field        | Value    |
|--------------|----------|
| Entrypoint   | 0x0165   |
| Data Size    | 22 bytes |
| Instructions | 4        |

```
      00 01 02 03 04 05 06 07  08 09 0A 0B 0C 0D 0E 0F
      -- -- -- -- -- -- -- --  -- -- -- -- -- -- -- --
0160:                53 F8 FF  FF 7F F8 FF FF 7F 67 6B       S........gk
0170: 72 30 5E 69 64 6C 30 1C  01 80 00                 r0^idl0....     
```

#### Opcodes

```
  0: 0x0165 [0x53] WAIT_SCHEDULER_TASK: Wait for scheduler "gkr0" with entities [EventEntity, EventEntity]
  1: 0x0172 [0x5E] EventEntity goes idle (kills current action) (animation: "idl0")
  2: 0x0177 [0x1C] WAIT(30* ticks)
  3: 0x017A [0x00] END_REQSTACK()
```

### Event 65535.23

#### Metadata

| Field        | Value    |
|--------------|----------|
| Entrypoint   | 0x017B   |
| Data Size    | 16 bytes |
| Instructions | 2        |

```
      00 01 02 03 04 05 06 07  08 09 0A 0B 0C 0D 0E 0F
      -- -- -- -- -- -- -- --  -- -- -- -- -- -- -- --
0170:                                   66 00 80 F8 FF             f....
0180: FF 7F F8 FF FF 7F 69 72  6F 30 00                 ......iro0.     
```

#### Opcodes

```
  0: 0x017B [0x66] LOAD_EXT_SCHEDULER_MAIN: Load scheduler "iro0" with entities [EventEntity, EventEntity], work=40*
  1: 0x018A [0x00] END_REQSTACK()
```

### Event 65535.24

#### Metadata

| Field        | Value    |
|--------------|----------|
| Entrypoint   | 0x018B   |
| Data Size    | 14 bytes |
| Instructions | 2        |

```
      00 01 02 03 04 05 06 07  08 09 0A 0B 0C 0D 0E 0F
      -- -- -- -- -- -- -- --  -- -- -- -- -- -- -- --
0180:                                   53 F8 FF FF 7F             S....
0190: F8 FF FF 7F 69 72 6F 30  00                       ....iro0.       
```

#### Opcodes

```
  0: 0x018B [0x53] WAIT_SCHEDULER_TASK: Wait for scheduler "iro0" with entities [EventEntity, EventEntity]
  1: 0x0198 [0x00] END_REQSTACK()
```

### Event 65535.25

#### Metadata

| Field        | Value    |
|--------------|----------|
| Entrypoint   | 0x0199   |
| Data Size    | 16 bytes |
| Instructions | 2        |

```
      00 01 02 03 04 05 06 07  08 09 0A 0B 0C 0D 0E 0F
      -- -- -- -- -- -- -- --  -- -- -- -- -- -- -- --
0190:                             66 03 80 F8 FF FF 7F           f......
01A0: F8 FF FF 7F 74 65 68 30  00                       ....teh0.       
```

#### Opcodes

```
  0: 0x0199 [0x66] LOAD_EXT_SCHEDULER_MAIN: Load scheduler "teh0" with entities [EventEntity, EventEntity], work=42*
  1: 0x01A8 [0x00] END_REQSTACK()
```

### Event 65535.26

#### Metadata

| Field        | Value    |
|--------------|----------|
| Entrypoint   | 0x01A9   |
| Data Size    | 22 bytes |
| Instructions | 4        |

```
      00 01 02 03 04 05 06 07  08 09 0A 0B 0C 0D 0E 0F
      -- -- -- -- -- -- -- --  -- -- -- -- -- -- -- --
01A0:                             53 F8 FF FF 7F F8 FF           S......
01B0: FF 7F 74 65 68 30 5E 69  64 6C 30 1C 01 80 00     ..teh0^idl0.... 
```

#### Opcodes

```
  0: 0x01A9 [0x53] WAIT_SCHEDULER_TASK: Wait for scheduler "teh0" with entities [EventEntity, EventEntity]
  1: 0x01B6 [0x5E] EventEntity goes idle (kills current action) (animation: "idl0")
  2: 0x01BB [0x1C] WAIT(30* ticks)
  3: 0x01BE [0x00] END_REQSTACK()
```

### Event 65535.27

#### Metadata

| Field        | Value    |
|--------------|----------|
| Entrypoint   | 0x01BF   |
| Data Size    | 16 bytes |
| Instructions | 2        |

```
      00 01 02 03 04 05 06 07  08 09 0A 0B 0C 0D 0E 0F
      -- -- -- -- -- -- -- --  -- -- -- -- -- -- -- --
01B0:                                               66                 f
01C0: 03 80 F8 FF FF 7F F8 FF  FF 7F 74 65 68 31 00     ..........teh1. 
```

#### Opcodes

```
  0: 0x01BF [0x66] LOAD_EXT_SCHEDULER_MAIN: Load scheduler "teh1" with entities [EventEntity, EventEntity], work=42*
  1: 0x01CE [0x00] END_REQSTACK()
```

### Event 65535.28

#### Metadata

| Field        | Value    |
|--------------|----------|
| Entrypoint   | 0x01CF   |
| Data Size    | 14 bytes |
| Instructions | 2        |

```
      00 01 02 03 04 05 06 07  08 09 0A 0B 0C 0D 0E 0F
      -- -- -- -- -- -- -- --  -- -- -- -- -- -- -- --
01C0:                                               53                 S
01D0: F8 FF FF 7F F8 FF FF 7F  74 65 68 31 00           ........teh1.   
```

#### Opcodes

```
  0: 0x01CF [0x53] WAIT_SCHEDULER_TASK: Wait for scheduler "teh1" with entities [EventEntity, EventEntity]
  1: 0x01DC [0x00] END_REQSTACK()
```

### Event 65535.29

#### Metadata

| Field        | Value   |
|--------------|---------|
| Entrypoint   | 0x01DD  |
| Data Size    | 9 bytes |
| Instructions | 3       |

```
      00 01 02 03 04 05 06 07  08 09 0A 0B 0C 0D 0E 0F
      -- -- -- -- -- -- -- --  -- -- -- -- -- -- -- --
01D0:                                         5E 69 64               ^id
01E0: 6C 30 1C 01 80 00                                 l0....          
```

#### Opcodes

```
  0: 0x01DD [0x5E] EventEntity goes idle (kills current action) (animation: "idl0")
  1: 0x01E2 [0x1C] WAIT(30* ticks)
  2: 0x01E5 [0x00] END_REQSTACK()
```

### Event 2

#### Metadata

| Field        | Value   |
|--------------|---------|
| Entrypoint   | 0x01E6  |
| Data Size    | 4 bytes |
| Instructions | 3       |

```
      00 01 02 03 04 05 06 07  08 09 0A 0B 0C 0D 0E 0F
      -- -- -- -- -- -- -- --  -- -- -- -- -- -- -- --
01E0:                   20 00  21 00                           .!.      
```

#### Opcodes

```
  0: 0x01E6 [0x20] SET_CLI_EVENT_UC_FLAG: Unlock player control
  1: 0x01E8 [0x21] END_EVENT
  2: 0x01E9 [0x00] END_REQSTACK()
```

### Event 3

#### Metadata

| Field        | Value   |
|--------------|---------|
| Entrypoint   | 0x01EA  |
| Data Size    | 1 bytes |
| Instructions | 1       |

```
      00 01 02 03 04 05 06 07  08 09 0A 0B 0C 0D 0E 0F
      -- -- -- -- -- -- -- --  -- -- -- -- -- -- -- --
01E0:                                00                           .     
```

#### Opcodes

```
  0: 0x01EA [0x00] END_REQSTACK()
```

### Event 42

#### Metadata

| Field        | Value    |
|--------------|----------|
| Entrypoint   | 0x01EB   |
| Data Size    | 33 bytes |
| Instructions | 12       |

```
      00 01 02 03 04 05 06 07  08 09 0A 0B 0C 0D 0E 0F
      -- -- -- -- -- -- -- --  -- -- -- -- -- -- -- --
01E0:                                   1E F0 FF FF 7F             .....
01F0: 6F 70 29 08 44 E0 0E 01  01 1D 04 80 23 1D 05 80  op).D.......#...
0200: 23 29 08 44 E0 0E 01 1D  20 00 21 00              #).D.... .!.    
```

#### Opcodes

```
  0: 0x01EB [0x1E] EventEntity looks at LocalPlayer and starts talking
  1: 0x01F0 [0x6F] WAIT_FRAME_DELAY: Yield until WaitTime reaches zero
  2: 0x01F1 [0x70] WAIT_ENTITY_RENDER_FLAG: Wait while EventEntity->Render.Flags3 bit 2 is set (cancel turn if not)
  3: 0x01F2 [0x29] REQ_SET_WAIT(priority=0x08, entity_id=Baren-Moren (ID: 17752132/0x010EE044), tag_num=0x01)
  4: 0x01F9 [0x1D] PRINT_EVENT_MESSAGE(message_id=7366*)
    → "Humph. Sorry, but we don't have a hat to suit you right now."
  5: 0x01FC [0x23] WAIT_FOR_DIALOG_INTERACTION
  6: 0x01FD [0x1D] PRINT_EVENT_MESSAGE(message_id=7367*)
    → "Perhaps if you grew a smarter head we could find you a smarter hat!"
  7: 0x0200 [0x23] WAIT_FOR_DIALOG_INTERACTION
  8: 0x0201 [0x29] REQ_SET_WAIT(priority=0x08, entity_id=Baren-Moren (ID: 17752132/0x010EE044), tag_num=0x1D)
  9: 0x0208 [0x20] SET_CLI_EVENT_UC_FLAG: Unlock player control
 10: 0x020A [0x21] END_EVENT
 11: 0x020B [0x00] END_REQSTACK()
```

### Event 44

#### Metadata

| Field        | Value    |
|--------------|----------|
| Entrypoint   | 0x020C   |
| Data Size    | 33 bytes |
| Instructions | 12       |

```
      00 01 02 03 04 05 06 07  08 09 0A 0B 0C 0D 0E 0F
      -- -- -- -- -- -- -- --  -- -- -- -- -- -- -- --
0200:                                      1E F0 FF FF              ....
0210: 7F 6F 70 29 08 44 E0 0E  01 01 1D 06 80 23 1D 07  .op).D.......#..
0220: 80 23 29 08 44 E0 0E 01  1D 20 00 21 00           .#).D.... .!.   
```

#### Opcodes

```
  0: 0x020C [0x1E] EventEntity looks at LocalPlayer and starts talking
  1: 0x0211 [0x6F] WAIT_FRAME_DELAY: Yield until WaitTime reaches zero
  2: 0x0212 [0x70] WAIT_ENTITY_RENDER_FLAG: Wait while EventEntity->Render.Flags3 bit 2 is set (cancel turn if not)
  3: 0x0213 [0x29] REQ_SET_WAIT(priority=0x08, entity_id=Baren-Moren (ID: 17752132/0x010EE044), tag_num=0x01)
  4: 0x021A [0x1D] PRINT_EVENT_MESSAGE(message_id=7370*)
    → "A hat may seem to be a simple garment, but it has the right to select the one who will wear it."
  5: 0x021D [0x23] WAIT_FOR_DIALOG_INTERACTION
  6: 0x021E [0x1D] PRINT_EVENT_MESSAGE(message_id=7371*)
    → "As we in the business say... "If the wearer fits, hat it.""
  7: 0x0221 [0x23] WAIT_FOR_DIALOG_INTERACTION
  8: 0x0222 [0x29] REQ_SET_WAIT(priority=0x08, entity_id=Baren-Moren (ID: 17752132/0x010EE044), tag_num=0x1D)
  9: 0x0229 [0x20] SET_CLI_EVENT_UC_FLAG: Unlock player control
 10: 0x022B [0x21] END_EVENT
 11: 0x022C [0x00] END_REQSTACK()
```

### Event 45

#### Metadata

| Field        | Value    |
|--------------|----------|
| Entrypoint   | 0x022D   |
| Data Size    | 29 bytes |
| Instructions | 10       |

```
      00 01 02 03 04 05 06 07  08 09 0A 0B 0C 0D 0E 0F
      -- -- -- -- -- -- -- --  -- -- -- -- -- -- -- --
0220:                                         1E F0 FF               ...
0230: FF 7F 6F 70 29 08 44 E0  0E 01 01 1D 08 80 23 29  ..op).D.......#)
0240: 08 44 E0 0E 01 1D 20 00  21 00                    .D.... .!.      
```

#### Opcodes

```
  0: 0x022D [0x1E] EventEntity looks at LocalPlayer and starts talking
  1: 0x0232 [0x6F] WAIT_FRAME_DELAY: Yield until WaitTime reaches zero
  2: 0x0233 [0x70] WAIT_ENTITY_RENDER_FLAG: Wait while EventEntity->Render.Flags3 bit 2 is set (cancel turn if not)
  3: 0x0234 [0x29] REQ_SET_WAIT(priority=0x08, entity_id=Baren-Moren (ID: 17752132/0x010EE044), tag_num=0x01)
  4: 0x023B [0x1D] PRINT_EVENT_MESSAGE(message_id=7372*)
    → "For many long years I've been friends with Bondada, that customer over there. We've chatted over tea, but we can never seem to agree on anything."
  5: 0x023E [0x23] WAIT_FOR_DIALOG_INTERACTION
  6: 0x023F [0x29] REQ_SET_WAIT(priority=0x08, entity_id=Baren-Moren (ID: 17752132/0x010EE044), tag_num=0x1D)
  7: 0x0246 [0x20] SET_CLI_EVENT_UC_FLAG: Unlock player control
  8: 0x0248 [0x21] END_EVENT
  9: 0x0249 [0x00] END_REQSTACK()
```

### Event 46

#### Metadata

| Field        | Value    |
|--------------|----------|
| Entrypoint   | 0x024A   |
| Data Size    | 29 bytes |
| Instructions | 10       |

```
      00 01 02 03 04 05 06 07  08 09 0A 0B 0C 0D 0E 0F
      -- -- -- -- -- -- -- --  -- -- -- -- -- -- -- --
0240:                                1E F0 FF FF 7F 6F            .....o
0250: 70 29 08 44 E0 0E 01 01  1D 09 80 23 29 08 44 E0  p).D.......#).D.
0260: 0E 01 1D 20 00 21 00                              ... .!.         
```

#### Opcodes

```
  0: 0x024A [0x1E] EventEntity looks at LocalPlayer and starts talking
  1: 0x024F [0x6F] WAIT_FRAME_DELAY: Yield until WaitTime reaches zero
  2: 0x0250 [0x70] WAIT_ENTITY_RENDER_FLAG: Wait while EventEntity->Render.Flags3 bit 2 is set (cancel turn if not)
  3: 0x0251 [0x29] REQ_SET_WAIT(priority=0x08, entity_id=Baren-Moren (ID: 17752132/0x010EE044), tag_num=0x01)
  4: 0x0258 [0x1D] PRINT_EVENT_MESSAGE(message_id=7373*)
    → "A good hat doesn't hide the wearer--it expresses the very essence of the wearer."
  5: 0x025B [0x23] WAIT_FOR_DIALOG_INTERACTION
  6: 0x025C [0x29] REQ_SET_WAIT(priority=0x08, entity_id=Baren-Moren (ID: 17752132/0x010EE044), tag_num=0x1D)
  7: 0x0263 [0x20] SET_CLI_EVENT_UC_FLAG: Unlock player control
  8: 0x0265 [0x21] END_EVENT
  9: 0x0266 [0x00] END_REQSTACK()
```

### Event 47

#### Metadata

| Field        | Value    |
|--------------|----------|
| Entrypoint   | 0x0267   |
| Data Size    | 29 bytes |
| Instructions | 10       |

```
      00 01 02 03 04 05 06 07  08 09 0A 0B 0C 0D 0E 0F
      -- -- -- -- -- -- -- --  -- -- -- -- -- -- -- --
0260:                      1E  F0 FF FF 7F 6F 70 29 08         .....op).
0270: 44 E0 0E 01 01 1D 0A 80  23 29 08 44 E0 0E 01 1D  D.......#).D....
0280: 20 00 21 00                                        .!.            
```

#### Opcodes

```
  0: 0x0267 [0x1E] EventEntity looks at LocalPlayer and starts talking
  1: 0x026C [0x6F] WAIT_FRAME_DELAY: Yield until WaitTime reaches zero
  2: 0x026D [0x70] WAIT_ENTITY_RENDER_FLAG: Wait while EventEntity->Render.Flags3 bit 2 is set (cancel turn if not)
  3: 0x026E [0x29] REQ_SET_WAIT(priority=0x08, entity_id=Baren-Moren (ID: 17752132/0x010EE044), tag_num=0x01)
  4: 0x0275 [0x1D] PRINT_EVENT_MESSAGE(message_id=7374*)
    → "They say that there are stars in the heavens that wear hats. They're far better dressers than we could ever be!"
  5: 0x0278 [0x23] WAIT_FOR_DIALOG_INTERACTION
  6: 0x0279 [0x29] REQ_SET_WAIT(priority=0x08, entity_id=Baren-Moren (ID: 17752132/0x010EE044), tag_num=0x1D)
  7: 0x0280 [0x20] SET_CLI_EVENT_UC_FLAG: Unlock player control
  8: 0x0282 [0x21] END_EVENT
  9: 0x0283 [0x00] END_REQSTACK()
```

### Event 48

#### Metadata

| Field        | Value    |
|--------------|----------|
| Entrypoint   | 0x0284   |
| Data Size    | 72 bytes |
| Instructions | 17       |

```
      00 01 02 03 04 05 06 07  08 09 0A 0B 0C 0D 0E 0F
      -- -- -- -- -- -- -- --  -- -- -- -- -- -- -- --
0280:             1E F0 FF FF  7F 6F 70 29 0B 44 E0 0E      .....op).D..
0290: 01 28 24 0B 80 0C 80 0C  80 25 02 00 10 0C 80 00  .($......%......
02A0: B1 02 03 01 10 0D 80 29  0E 44 E0 0E 01 27 01 C8  .......).D...'..
02B0: 02 02 00 10 0D 80 00 C8  02 03 01 10 0E 80 29 0E  ..............).
02C0: 44 E0 0E 01 26 01 C8 02  20 00 21 00              D...&... .!.    
```

#### Opcodes

```
  0: 0x0284 [0x1E] EventEntity looks at LocalPlayer and starts talking
  1: 0x0289 [0x6F] WAIT_FRAME_DELAY: Yield until WaitTime reaches zero
  2: 0x028A [0x70] WAIT_ENTITY_RENDER_FLAG: Wait while EventEntity->Render.Flags3 bit 2 is set (cancel turn if not)
  3: 0x028B [0x29] REQ_SET_WAIT(priority=0x0B, entity_id=Baren-Moren (ID: 17752132/0x010EE044), tag_num=0x28)
  4: 0x0292 [0x24] CREATE_DIALOG(message_id=7379*, default_option=0*, option_flags=0*)
    → "Advertise the hatter's wares? [Give it a go./Decline.]"
  5: 0x0299 [0x25] WAIT_DIALOG_SELECT()
  6: 0x029A [0x02] IF !(Work_Zone[0] == 0*) GOTO 0x02B1
  7: 0x02A2 [0x03] Work_Zone[1] = 1*
  8: 0x02A7 [0x29] REQ_SET_WAIT(priority=0x0E, entity_id=Baren-Moren (ID: 17752132/0x010EE044), tag_num=0x27)
  9: 0x02AE [0x01] GOTO 0x02C8
 10: 0x02B1 [0x02] IF !(Work_Zone[0] == 1*) GOTO 0x02C8
 11: 0x02B9 [0x03] Work_Zone[1] = 2*
 12: 0x02BE [0x29] REQ_SET_WAIT(priority=0x0E, entity_id=Baren-Moren (ID: 17752132/0x010EE044), tag_num=0x26)
 13: 0x02C5 [0x01] GOTO 0x02C8

SUBROUTINE_02C8:
 14: 0x02C8 [0x20] SET_CLI_EVENT_UC_FLAG: Unlock player control
 15: 0x02CA [0x21] END_EVENT
 16: 0x02CB [0x00] END_REQSTACK()
```

### Event 65535.30

#### Metadata

| Field        | Value   |
|--------------|---------|
| Entrypoint   | 0x02CC  |
| Data Size    | 8 bytes |
| Instructions | 2       |

```
      00 01 02 03 04 05 06 07  08 09 0A 0B 0C 0D 0E 0F
      -- -- -- -- -- -- -- --  -- -- -- -- -- -- -- --
02C0:                                      29 0B 44 E0              ).D.
02D0: 0E 01 29 00                                       ..).            
```

#### Opcodes

```
  0: 0x02CC [0x29] REQ_SET_WAIT(priority=0x0B, entity_id=Baren-Moren (ID: 17752132/0x010EE044), tag_num=0x29)
  1: 0x02D3 [0x00] END_REQSTACK()
```

### Event 65535.31

#### Metadata

| Field        | Value    |
|--------------|----------|
| Entrypoint   | 0x02D4   |
| Data Size    | 15 bytes |
| Instructions | 3        |

```
      00 01 02 03 04 05 06 07  08 09 0A 0B 0C 0D 0E 0F
      -- -- -- -- -- -- -- --  -- -- -- -- -- -- -- --
02D0:             29 0B 44 E0  0E 01 2A 29 0B 44 E0 0E      ).D...*).D..
02E0: 01 2B 00                                          .+.             
```

#### Opcodes

```
  0: 0x02D4 [0x29] REQ_SET_WAIT(priority=0x0B, entity_id=Baren-Moren (ID: 17752132/0x010EE044), tag_num=0x2A)
  1: 0x02DB [0x29] REQ_SET_WAIT(priority=0x0B, entity_id=Baren-Moren (ID: 17752132/0x010EE044), tag_num=0x2B)
  2: 0x02E2 [0x00] END_REQSTACK()
```

### Event 65535.32

#### Metadata

| Field        | Value    |
|--------------|----------|
| Entrypoint   | 0x02E3   |
| Data Size    | 27 bytes |
| Instructions | 9        |

```
      00 01 02 03 04 05 06 07  08 09 0A 0B 0C 0D 0E 0F
      -- -- -- -- -- -- -- --  -- -- -- -- -- -- -- --
02E0:          29 08 44 E0 0E  01 01 1D 0F 80 23 1D 10     ).D.......#..
02F0: 80 23 1D 11 80 23 29 08  44 E0 0E 01 1D 00        .#...#).D.....  
```

#### Opcodes

```
  0: 0x02E3 [0x29] REQ_SET_WAIT(priority=0x08, entity_id=Baren-Moren (ID: 17752132/0x010EE044), tag_num=0x01)
  1: 0x02EA [0x1D] PRINT_EVENT_MESSAGE(message_id=7375*)
    → "Hey, you'll do! You have just the right appearance."
  2: 0x02ED [0x23] WAIT_FOR_DIALOG_INTERACTION
  3: 0x02EE [0x1D] PRINT_EVENT_MESSAGE(message_id=7376*)
    → "I'd like you to take my latest creation and show it off around the whole of Windurst Waters."
  4: 0x02F1 [0x23] WAIT_FOR_DIALOG_INTERACTION
  5: 0x02F2 [0x1D] PRINT_EVENT_MESSAGE(message_id=7377*)
    → "How about it? I'll make it worth your while. Care to try your hand at the exciting new field of headwear advertising?"
  6: 0x02F5 [0x23] WAIT_FOR_DIALOG_INTERACTION
  7: 0x02F6 [0x29] REQ_SET_WAIT(priority=0x08, entity_id=Baren-Moren (ID: 17752132/0x010EE044), tag_num=0x1D)
  8: 0x02FD [0x00] END_REQSTACK()
```

### Event 65535.33

#### Metadata

| Field        | Value   |
|--------------|---------|
| Entrypoint   | 0x02FE  |
| Data Size    | 5 bytes |
| Instructions | 3       |

```
      00 01 02 03 04 05 06 07  08 09 0A 0B 0C 0D 0E 0F
      -- -- -- -- -- -- -- --  -- -- -- -- -- -- -- --
02F0:                                            1D 12                ..
0300: 80 23 00                                          .#.             
```

#### Opcodes

```
  0: 0x02FE [0x1D] PRINT_EVENT_MESSAGE(message_id=7380*)
    → "That's the problem with young people today... They give in at the drop of a hat! Come back when you're ready to help both me and yourself!"
  1: 0x0301 [0x23] WAIT_FOR_DIALOG_INTERACTION
  2: 0x0302 [0x00] END_REQSTACK()
```

### Event 65535.34

#### Metadata

| Field        | Value    |
|--------------|----------|
| Entrypoint   | 0x0303   |
| Data Size    | 23 bytes |
| Instructions | 7        |

```
      00 01 02 03 04 05 06 07  08 09 0A 0B 0C 0D 0E 0F
      -- -- -- -- -- -- -- --  -- -- -- -- -- -- -- --
0300:          29 08 44 E0 0E  01 01 1D 13 80 23 1D 14     ).D.......#..
0310: 80 23 29 08 44 E0 0E 01  1D 00                    .#).D.....      
```

#### Opcodes

```
  0: 0x0303 [0x29] REQ_SET_WAIT(priority=0x08, entity_id=Baren-Moren (ID: 17752132/0x010EE044), tag_num=0x01)
  1: 0x030A [0x1D] PRINT_EVENT_MESSAGE(message_id=7381*)
    → "A mad rush, or mediocre sales... It all depends on how well you show off this model!"
  2: 0x030D [0x23] WAIT_FOR_DIALOG_INTERACTION
  3: 0x030E [0x1D] PRINT_EVENT_MESSAGE(message_id=7382*)
    → "Be sure to talk to any potential customers you see! If it goes well, I'll give you a small percentage of the sales."
  4: 0x0311 [0x23] WAIT_FOR_DIALOG_INTERACTION
  5: 0x0312 [0x29] REQ_SET_WAIT(priority=0x08, entity_id=Baren-Moren (ID: 17752132/0x010EE044), tag_num=0x1D)
  6: 0x0319 [0x00] END_REQSTACK()
```

### Event 65535.35

#### Metadata

| Field        | Value   |
|--------------|---------|
| Entrypoint   | 0x031A  |
| Data Size    | 5 bytes |
| Instructions | 3       |

```
      00 01 02 03 04 05 06 07  08 09 0A 0B 0C 0D 0E 0F
      -- -- -- -- -- -- -- --  -- -- -- -- -- -- -- --
0310:                                1D 15 80 23 00               ...#. 
```

#### Opcodes

```
  0: 0x031A [0x1D] PRINT_EVENT_MESSAGE(message_id=7383*)
    → "Oh, and please limit your advertising to Windurst Waters. We must focus our efforts in this one area! Understand?"
  1: 0x031D [0x23] WAIT_FOR_DIALOG_INTERACTION
  2: 0x031E [0x00] END_REQSTACK()
```

### Event 49

#### Metadata

| Field        | Value    |
|--------------|----------|
| Entrypoint   | 0x031F   |
| Data Size    | 89 bytes |
| Instructions | 23       |

```
      00 01 02 03 04 05 06 07  08 09 0A 0B 0C 0D 0E 0F
      -- -- -- -- -- -- -- --  -- -- -- -- -- -- -- --
0310:                                               20                  
0320: 01 1E F0 FF FF 7F 6F 70  29 08 44 E0 0E 01 01 1D  ......op).D.....
0330: 16 80 23 1D 11 80 23 29  08 44 E0 0E 01 1D 24 0B  ..#...#).D....$.
0340: 80 0C 80 0C 80 25 02 00  10 0C 80 00 5D 03 03 01  .....%......]...
0350: 10 0D 80 29 0E 44 E0 0E  01 27 01 74 03 02 00 10  ...).D...'.t....
0360: 0D 80 00 74 03 03 01 10  0E 80 29 0E 44 E0 0E 01  ...t......).D...
0370: 26 01 74 03 20 00 21 00                           &.t. .!.        
```

#### Opcodes

```
  0: 0x031F [0x20] SET_CLI_EVENT_UC_FLAG: Lock player control
  1: 0x0321 [0x1E] EventEntity looks at LocalPlayer and starts talking
  2: 0x0326 [0x6F] WAIT_FRAME_DELAY: Yield until WaitTime reaches zero
  3: 0x0327 [0x70] WAIT_ENTITY_RENDER_FLAG: Wait while EventEntity->Render.Flags3 bit 2 is set (cancel turn if not)
  4: 0x0328 [0x29] REQ_SET_WAIT(priority=0x08, entity_id=Baren-Moren (ID: 17752132/0x010EE044), tag_num=0x01)
  5: 0x032F [0x1D] PRINT_EVENT_MESSAGE(message_id=7378*)
    → "By the way, do you want to give the hat advertising gig another go?"
  6: 0x0332 [0x23] WAIT_FOR_DIALOG_INTERACTION
  7: 0x0333 [0x1D] PRINT_EVENT_MESSAGE(message_id=7377*)
    → "How about it? I'll make it worth your while. Care to try your hand at the exciting new field of headwear advertising?"
  8: 0x0336 [0x23] WAIT_FOR_DIALOG_INTERACTION
  9: 0x0337 [0x29] REQ_SET_WAIT(priority=0x08, entity_id=Baren-Moren (ID: 17752132/0x010EE044), tag_num=0x1D)
 10: 0x033E [0x24] CREATE_DIALOG(message_id=7379*, default_option=0*, option_flags=0*)
    → "Advertise the hatter's wares? [Give it a go./Decline.]"
 11: 0x0345 [0x25] WAIT_DIALOG_SELECT()
 12: 0x0346 [0x02] IF !(Work_Zone[0] == 0*) GOTO 0x035D
 13: 0x034E [0x03] Work_Zone[1] = 1*
 14: 0x0353 [0x29] REQ_SET_WAIT(priority=0x0E, entity_id=Baren-Moren (ID: 17752132/0x010EE044), tag_num=0x27)
 15: 0x035A [0x01] GOTO 0x0374
 16: 0x035D [0x02] IF !(Work_Zone[0] == 1*) GOTO 0x0374
 17: 0x0365 [0x03] Work_Zone[1] = 2*
 18: 0x036A [0x29] REQ_SET_WAIT(priority=0x0E, entity_id=Baren-Moren (ID: 17752132/0x010EE044), tag_num=0x26)
 19: 0x0371 [0x01] GOTO 0x0374

SUBROUTINE_0374:
 20: 0x0374 [0x20] SET_CLI_EVENT_UC_FLAG: Unlock player control
 21: 0x0376 [0x21] END_EVENT
 22: 0x0377 [0x00] END_REQSTACK()
```

### Event 51

#### Metadata

| Field        | Value    |
|--------------|----------|
| Entrypoint   | 0x0378   |
| Data Size    | 33 bytes |
| Instructions | 12       |

```
      00 01 02 03 04 05 06 07  08 09 0A 0B 0C 0D 0E 0F
      -- -- -- -- -- -- -- --  -- -- -- -- -- -- -- --
0370:                          1E F0 FF FF 7F 6F 70 29          .....op)
0380: 08 44 E0 0E 01 01 1D 17  80 23 1D 18 80 23 29 08  .D.......#...#).
0390: 44 E0 0E 01 1D 20 00 21  00                       D.... .!.       
```

#### Opcodes

```
  0: 0x0378 [0x1E] EventEntity looks at LocalPlayer and starts talking
  1: 0x037D [0x6F] WAIT_FRAME_DELAY: Yield until WaitTime reaches zero
  2: 0x037E [0x70] WAIT_ENTITY_RENDER_FLAG: Wait while EventEntity->Render.Flags3 bit 2 is set (cancel turn if not)
  3: 0x037F [0x29] REQ_SET_WAIT(priority=0x08, entity_id=Baren-Moren (ID: 17752132/0x010EE044), tag_num=0x01)
  4: 0x0386 [0x1D] PRINT_EVENT_MESSAGE(message_id=7384*)
    → "If you see a potential customer, go ahead and converse with him or her as you show off my hat. People who appreciate fine headwear will surely have their interests aroused."
  5: 0x0389 [0x23] WAIT_FOR_DIALOG_INTERACTION
  6: 0x038A [0x1D] PRINT_EVENT_MESSAGE(message_id=7385*)
    → "I have a bet with that customer, Bondada, over how many orders we'll get from the people in this area today."
  7: 0x038D [0x23] WAIT_FOR_DIALOG_INTERACTION
  8: 0x038E [0x29] REQ_SET_WAIT(priority=0x08, entity_id=Baren-Moren (ID: 17752132/0x010EE044), tag_num=0x1D)
  9: 0x0395 [0x20] SET_CLI_EVENT_UC_FLAG: Unlock player control
 10: 0x0397 [0x21] END_EVENT
 11: 0x0398 [0x00] END_REQSTACK()
```

### Event 52

#### Metadata

| Field        | Value     |
|--------------|-----------|
| Entrypoint   | 0x0399    |
| Data Size    | 248 bytes |
| Instructions | 32        |

```
      00 01 02 03 04 05 06 07  08 09 0A 0B 0C 0D 0E 0F
      -- -- -- -- -- -- -- --  -- -- -- -- -- -- -- --
0390:                             1E F0 FF FF 7F 6F 70           .....op
03A0: 29 08 44 E0 0E 01 01 1D  19 80 23 1D 1A 80 23 29  ).D.......#...#)
03B0: 08 44 E0 0E 01 1D 24 1B  80 0C 80 0C 80 25 02 00  .D....$......%..
03C0: 10 0C 80 00 CE 03 03 01  10 0C 80 01 8D 04 02 00  ................
03D0: 10 0D 80 00 8D 04 20 01  42 29 0B 44 E0 0E 01 2F  ...... .B).D.../
03E0: 45 1C 80 F0 FF FF 7F F0  FF FF 7F 66 64 6F 30 0C  E..........fdo0.
03F0: 80 1C 1D 80 45 1C 80 F0  FF FF 7F F0 FF FF 7F 66  ....E..........f
0400: 64 69 30 0C 80 02 02 10  1E 80 03 20 04 03 01 10  di0........ ....
0410: 0D 80 29 0B 44 E0 0E 01  30 20 00 21 00 01 79 04  ..).D...0 .!..y.
0420: 02 02 10 01 80 03 37 04  03 01 10 0E 80 29 0B 44  ......7......).D
0430: E0 0E 01 31 01 79 04 02  02 10 00 80 03 4E 04 03  ...1.y.......N..
0440: 01 10 1F 80 29 0B 44 E0  0E 01 32 01 79 04 02 02  ....).D...2.y...
0450: 10 20 80 03 65 04 03 01  10 21 80 29 0B 44 E0 0E  . ..e....!.).D..
0460: 01 33 01 79 04 02 02 10  20 80 04 79 04 03 01 10  .3.y.... ..y....
0470: 22 80 29 0B 44 E0 0E 01  34 45 23 80 F0 FF FF 7F  ".).D...4E#.....
0480: F0 FF FF 7F 71 73 74 63  0C 80 01 8D 04 20 00 21  ....qstc..... .!
0490: 00                                                .               
```

#### Opcodes

```
  0: 0x0399 [0x1E] EventEntity looks at LocalPlayer and starts talking
  1: 0x039E [0x6F] WAIT_FRAME_DELAY: Yield until WaitTime reaches zero
  2: 0x039F [0x70] WAIT_ENTITY_RENDER_FLAG: Wait while EventEntity->Render.Flags3 bit 2 is set (cancel turn if not)
  3: 0x03A0 [0x29] REQ_SET_WAIT(priority=0x08, entity_id=Baren-Moren (ID: 17752132/0x010EE044), tag_num=0x01)
  4: 0x03A7 [0x1D] PRINT_EVENT_MESSAGE(message_id=7386*)
    → "Take that hat and walk around Windurst Waters with it. Try and attract as much attention as possible by talking to people."
  5: 0x03AA [0x23] WAIT_FOR_DIALOG_INTERACTION
  6: 0x03AB [0x1D] PRINT_EVENT_MESSAGE(message_id=7387*)
    → "Fashion tastes change, so each style of hat has a limited time and area of appeal. It's better if you stay in Windurst Waters and focus your efforts here. You got it?"
  7: 0x03AE [0x23] WAIT_FOR_DIALOG_INTERACTION
  8: 0x03AF [0x29] REQ_SET_WAIT(priority=0x08, entity_id=Baren-Moren (ID: 17752132/0x010EE044), tag_num=0x1D)
  9: 0x03B6 [0x24] CREATE_DIALOG(message_id=7408*, default_option=0*, option_flags=0*)
    → "Hang your hat up? [Not yet./Yes. Done.]"
 10: 0x03BD [0x25] WAIT_DIALOG_SELECT()
 11: 0x03BE [0x02] IF !(Work_Zone[0] == 0*) GOTO 0x03CE
 12: 0x03C6 [0x03] Work_Zone[1] = 0*
 13: 0x03CB [0x01] GOTO 0x048D
 14: 0x03CE [0x02] IF !(Work_Zone[0] == 1*) GOTO 0x048D
 15: 0x03D6 [0x20] SET_CLI_EVENT_UC_FLAG: Lock player control
 16: 0x03D8 [0x42] SET_CLI_EVENT_CANCEL_DATA()
 17: 0x03D9 [0x29] REQ_SET_WAIT(priority=0x0B, entity_id=Baren-Moren (ID: 17752132/0x010EE044), tag_num=0x2F)
 18: 0x03E0 [0x45] LOAD_SCHEDULED_TASK: Load scheduler "fdo0" with entities [LocalPlayer, LocalPlayer], work=[200*, 0*]
 19: 0x03F1 [0x1C] WAIT(120* ticks)
 20: 0x03F4 [0x45] LOAD_SCHEDULED_TASK: Load scheduler "fdi0" with entities [LocalPlayer, LocalPlayer], work=[200*, 0*]
 21: 0x0405 [0x02] IF !(Work_Zone[2] >= 20*) GOTO 0x0420
 22: 0x040D [0x03] Work_Zone[1] = 1*
 23: 0x0412 [0x29] REQ_SET_WAIT(priority=0x0B, entity_id=Baren-Moren (ID: 17752132/0x010EE044), tag_num=0x30)
 24: 0x0419 [0x20] SET_CLI_EVENT_UC_FLAG: Unlock player control
 25: 0x041B [0x21] END_EVENT
 26: 0x041C [0x00] END_REQSTACK()

SUBROUTINE_0479:
 27: 0x0479 [0x45] LOAD_SCHEDULED_TASK: Load scheduler "qstc" with entities [LocalPlayer, LocalPlayer], work=[201*, 0*]
 28: 0x048A [0x01] GOTO 0x048D

SUBROUTINE_048D:
 29: 0x048D [0x20] SET_CLI_EVENT_UC_FLAG: Unlock player control
 30: 0x048F [0x21] END_EVENT
 31: 0x0490 [0x00] END_REQSTACK()
```

#### Data or dead code:

```
# Dead code (unreachable instructions):
     0x041D [0x01] GOTO 0x0479
```

### Event 65535.36

#### Metadata

| Field        | Value   |
|--------------|---------|
| Entrypoint   | 0x0491  |
| Data Size    | 5 bytes |
| Instructions | 3       |

```
      00 01 02 03 04 05 06 07  08 09 0A 0B 0C 0D 0E 0F
      -- -- -- -- -- -- -- --  -- -- -- -- -- -- -- --
0490:    1D 24 80 23 00                                  .$.#.          
```

#### Opcodes

```
  0: 0x0491 [0x1D] PRINT_EVENT_MESSAGE(message_id=7409*)
    → "If you're throwing in the hat, then I'm taking it back from you."
  1: 0x0494 [0x23] WAIT_FOR_DIALOG_INTERACTION
  2: 0x0495 [0x00] END_REQSTACK()
```

### Event 65535.37

#### Metadata

| Field        | Value   |
|--------------|---------|
| Entrypoint   | 0x0496  |
| Data Size    | 5 bytes |
| Instructions | 3       |

```
      00 01 02 03 04 05 06 07  08 09 0A 0B 0C 0D 0E 0F
      -- -- -- -- -- -- -- --  -- -- -- -- -- -- -- --
0490:                   1D 25  80 23 00                       .%.#.     
```

#### Opcodes

```
  0: 0x0496 [0x1D] PRINT_EVENT_MESSAGE(message_id=7410*)
    → "Hey, you didn't seem to do any work at all. You have the impudence to ask for a wage for that? What do you think I am, a charity?"
  1: 0x0499 [0x23] WAIT_FOR_DIALOG_INTERACTION
  2: 0x049A [0x00] END_REQSTACK()
```

### Event 65535.38

#### Metadata

| Field        | Value   |
|--------------|---------|
| Entrypoint   | 0x049B  |
| Data Size    | 9 bytes |
| Instructions | 5       |

```
      00 01 02 03 04 05 06 07  08 09 0A 0B 0C 0D 0E 0F
      -- -- -- -- -- -- -- --  -- -- -- -- -- -- -- --
0490:                                   1D 26 80 23 1D             .&.#.
04A0: 27 80 23 00                                       '.#.            
```

#### Opcodes

```
  0: 0x049B [0x1D] PRINT_EVENT_MESSAGE(message_id=7412*)
    → "That didn't go very well at all. I didn't get a single inquiry, let alone an order."
  1: 0x049E [0x23] WAIT_FOR_DIALOG_INTERACTION
  2: 0x049F [0x1D] PRINT_EVENT_MESSAGE(message_id=7413*)
    → "Anyway, here's a little pocket money for your limited effort, bad hat. Don't spend it all at once."
  3: 0x04A2 [0x23] WAIT_FOR_DIALOG_INTERACTION
  4: 0x04A3 [0x00] END_REQSTACK()
```

### Event 65535.39

#### Metadata

| Field        | Value   |
|--------------|---------|
| Entrypoint   | 0x04A4  |
| Data Size    | 9 bytes |
| Instructions | 5       |

```
      00 01 02 03 04 05 06 07  08 09 0A 0B 0C 0D 0E 0F
      -- -- -- -- -- -- -- --  -- -- -- -- -- -- -- --
04A0:             1D 28 80 23  1D 29 80 23 00               .(.#.).#.   
```

#### Opcodes

```
  0: 0x04A4 [0x1D] PRINT_EVENT_MESSAGE(message_id=7415*)
    → "A few orders have trickled in, but nothing like I had expected. This style should have caught on like wildfire."
  1: 0x04A7 [0x23] WAIT_FOR_DIALOG_INTERACTION
  2: 0x04A8 [0x1D] PRINT_EVENT_MESSAGE(message_id=7416*)
    → "Anyway, here's your pocket money. Don't spend it all at once."
  3: 0x04AB [0x23] WAIT_FOR_DIALOG_INTERACTION
  4: 0x04AC [0x00] END_REQSTACK()
```

### Event 65535.40

#### Metadata

| Field        | Value    |
|--------------|----------|
| Entrypoint   | 0x04AD   |
| Data Size    | 24 bytes |
| Instructions | 9        |

```
      00 01 02 03 04 05 06 07  08 09 0A 0B 0C 0D 0E 0F
      -- -- -- -- -- -- -- --  -- -- -- -- -- -- -- --
04A0:                                         1D 2A 80               .*.
04B0: 23 02 07 10 0D 80 00 C0  04 1D 2B 80 23 01 C4 04  #.........+.#...
04C0: 1D 2C 80 23 00                                    .,.#.           
```

#### Opcodes

```
  0: 0x04AD [0x1D] PRINT_EVENT_MESSAGE(message_id=7418*)
    → "That's a lot of orders we've had. My new style of hat is so charming, it's a crime!"
  1: 0x04B0 [0x23] WAIT_FOR_DIALOG_INTERACTION
  2: 0x04B1 [0x02] IF !(Work_Zone[7] == 1*) GOTO 0x04C0
  3: 0x04B9 [0x1D] PRINT_EVENT_MESSAGE(message_id=7420*)
    → "Both my workmanship and my skill in selecting hired help are spot on! I won the wager. That'll make Bondada eat her hat."
  4: 0x04BC [0x23] WAIT_FOR_DIALOG_INTERACTION
  5: 0x04BD [0x01] GOTO 0x04C4
  6: 0x04C0 [0x1D] PRINT_EVENT_MESSAGE(message_id=7419*)
    → "You've earned yourself quite a hefty cut of the sales, young'un. Watch you don't get cat burgled! I'll also give you one of my hats for good measure."
  7: 0x04C3 [0x23] WAIT_FOR_DIALOG_INTERACTION

SUBROUTINE_04C4:
  8: 0x04C4 [0x00] END_REQSTACK()
```

### Event 65535.41

#### Metadata

| Field        | Value    |
|--------------|----------|
| Entrypoint   | 0x04C5   |
| Data Size    | 24 bytes |
| Instructions | 9        |

```
      00 01 02 03 04 05 06 07  08 09 0A 0B 0C 0D 0E 0F
      -- -- -- -- -- -- -- --  -- -- -- -- -- -- -- --
04C0:                1D 2D 80  23 02 07 10 0D 80 00 D8       .-.#.......
04D0: 04 1D 2E 80 23 01 DC 04  1D 2F 80 23 00           ....#..../.#.   
```

#### Opcodes

```
  0: 0x04C5 [0x1D] PRINT_EVENT_MESSAGE(message_id=7421*)
    → "I take my hat off to you. Why, I even have orders coming in from other countries! I don't know what you did, but it worked wonders."
  1: 0x04C8 [0x23] WAIT_FOR_DIALOG_INTERACTION
  2: 0x04C9 [0x02] IF !(Work_Zone[7] == 1*) GOTO 0x04D8
  3: 0x04D1 [0x1D] PRINT_EVENT_MESSAGE(message_id=7423*)
    → "You seem to have a sense of business there, young'un. Perhaps you should wear two hats, and take up advertising as a side job to your adventuring?"
  4: 0x04D4 [0x23] WAIT_FOR_DIALOG_INTERACTION
  5: 0x04D5 [0x01] GOTO 0x04DC
  6: 0x04D8 [0x1D] PRINT_EVENT_MESSAGE(message_id=7422*)
    → "Your talent in advertising is almost as brilliantaru as my talent in hatmaking. Here, take the hat as a reward."
  7: 0x04DB [0x23] WAIT_FOR_DIALOG_INTERACTION

SUBROUTINE_04DC:
  8: 0x04DC [0x00] END_REQSTACK()
```

### Event 63

#### Metadata

| Field        | Value    |
|--------------|----------|
| Entrypoint   | 0x04DD   |
| Data Size    | 29 bytes |
| Instructions | 10       |

```
      00 01 02 03 04 05 06 07  08 09 0A 0B 0C 0D 0E 0F
      -- -- -- -- -- -- -- --  -- -- -- -- -- -- -- --
04D0:                                         1E F0 FF               ...
04E0: FF 7F 6F 70 29 08 44 E0  0E 01 01 1D 30 80 23 29  ..op).D.....0.#)
04F0: 08 44 E0 0E 01 1D 20 00  21 00                    .D.... .!.      
```

#### Opcodes

```
  0: 0x04DD [0x1E] EventEntity looks at LocalPlayer and starts talking
  1: 0x04E2 [0x6F] WAIT_FRAME_DELAY: Yield until WaitTime reaches zero
  2: 0x04E3 [0x70] WAIT_ENTITY_RENDER_FLAG: Wait while EventEntity->Render.Flags3 bit 2 is set (cancel turn if not)
  3: 0x04E4 [0x29] REQ_SET_WAIT(priority=0x08, entity_id=Baren-Moren (ID: 17752132/0x010EE044), tag_num=0x01)
  4: 0x04EB [0x1D] PRINT_EVENT_MESSAGE(message_id=7411*)
    → "There'll be no passing the hat around here! Get out of here, you slacker!"
  5: 0x04EE [0x23] WAIT_FOR_DIALOG_INTERACTION
  6: 0x04EF [0x29] REQ_SET_WAIT(priority=0x08, entity_id=Baren-Moren (ID: 17752132/0x010EE044), tag_num=0x1D)
  7: 0x04F6 [0x20] SET_CLI_EVENT_UC_FLAG: Unlock player control
  8: 0x04F8 [0x21] END_EVENT
  9: 0x04F9 [0x00] END_REQSTACK()
```

### Event 64

#### Metadata

| Field        | Value    |
|--------------|----------|
| Entrypoint   | 0x04FA   |
| Data Size    | 29 bytes |
| Instructions | 10       |

```
      00 01 02 03 04 05 06 07  08 09 0A 0B 0C 0D 0E 0F
      -- -- -- -- -- -- -- --  -- -- -- -- -- -- -- --
04F0:                                1E F0 FF FF 7F 6F            .....o
0500: 70 29 08 44 E0 0E 01 01  1D 31 80 23 29 08 44 E0  p).D.....1.#).D.
0510: 0E 01 1D 20 00 21 00                              ... .!.         
```

#### Opcodes

```
  0: 0x04FA [0x1E] EventEntity looks at LocalPlayer and starts talking
  1: 0x04FF [0x6F] WAIT_FRAME_DELAY: Yield until WaitTime reaches zero
  2: 0x0500 [0x70] WAIT_ENTITY_RENDER_FLAG: Wait while EventEntity->Render.Flags3 bit 2 is set (cancel turn if not)
  3: 0x0501 [0x29] REQ_SET_WAIT(priority=0x08, entity_id=Baren-Moren (ID: 17752132/0x010EE044), tag_num=0x01)
  4: 0x0508 [0x1D] PRINT_EVENT_MESSAGE(message_id=7414*)
    → "It's not my workmanship that's the problem. It's my poor choice of hired help! Why did I ever bother asking you?"
  5: 0x050B [0x23] WAIT_FOR_DIALOG_INTERACTION
  6: 0x050C [0x29] REQ_SET_WAIT(priority=0x08, entity_id=Baren-Moren (ID: 17752132/0x010EE044), tag_num=0x1D)
  7: 0x0513 [0x20] SET_CLI_EVENT_UC_FLAG: Unlock player control
  8: 0x0515 [0x21] END_EVENT
  9: 0x0516 [0x00] END_REQSTACK()
```

### Event 65

#### Metadata

| Field        | Value    |
|--------------|----------|
| Entrypoint   | 0x0517   |
| Data Size    | 29 bytes |
| Instructions | 10       |

```
      00 01 02 03 04 05 06 07  08 09 0A 0B 0C 0D 0E 0F
      -- -- -- -- -- -- -- --  -- -- -- -- -- -- -- --
0510:                      1E  F0 FF FF 7F 6F 70 29 08         .....op).
0520: 44 E0 0E 01 01 1D 32 80  23 29 08 44 E0 0E 01 1D  D.....2.#).D....
0530: 20 00 21 00                                        .!.            
```

#### Opcodes

```
  0: 0x0517 [0x1E] EventEntity looks at LocalPlayer and starts talking
  1: 0x051C [0x6F] WAIT_FRAME_DELAY: Yield until WaitTime reaches zero
  2: 0x051D [0x70] WAIT_ENTITY_RENDER_FLAG: Wait while EventEntity->Render.Flags3 bit 2 is set (cancel turn if not)
  3: 0x051E [0x29] REQ_SET_WAIT(priority=0x08, entity_id=Baren-Moren (ID: 17752132/0x010EE044), tag_num=0x01)
  4: 0x0525 [0x1D] PRINT_EVENT_MESSAGE(message_id=7417*)
    → "I guess that's what happens when you ask an amateur to do your advertising. I had better go put on my thinking cap..."
  5: 0x0528 [0x23] WAIT_FOR_DIALOG_INTERACTION
  6: 0x0529 [0x29] REQ_SET_WAIT(priority=0x08, entity_id=Baren-Moren (ID: 17752132/0x010EE044), tag_num=0x1D)
  7: 0x0530 [0x20] SET_CLI_EVENT_UC_FLAG: Unlock player control
  8: 0x0532 [0x21] END_EVENT
  9: 0x0533 [0x00] END_REQSTACK()
```

### Event 66

#### Metadata

| Field        | Value    |
|--------------|----------|
| Entrypoint   | 0x0534   |
| Data Size    | 29 bytes |
| Instructions | 10       |

```
      00 01 02 03 04 05 06 07  08 09 0A 0B 0C 0D 0E 0F
      -- -- -- -- -- -- -- --  -- -- -- -- -- -- -- --
0530:             1E F0 FF FF  7F 6F 70 29 08 44 E0 0E      .....op).D..
0540: 01 01 1D 2B 80 23 29 08  44 E0 0E 01 1D 20 00 21  ...+.#).D.... .!
0550: 00                                                .               
```

#### Opcodes

```
  0: 0x0534 [0x1E] EventEntity looks at LocalPlayer and starts talking
  1: 0x0539 [0x6F] WAIT_FRAME_DELAY: Yield until WaitTime reaches zero
  2: 0x053A [0x70] WAIT_ENTITY_RENDER_FLAG: Wait while EventEntity->Render.Flags3 bit 2 is set (cancel turn if not)
  3: 0x053B [0x29] REQ_SET_WAIT(priority=0x08, entity_id=Baren-Moren (ID: 17752132/0x010EE044), tag_num=0x01)
  4: 0x0542 [0x1D] PRINT_EVENT_MESSAGE(message_id=7420*)
    → "Both my workmanship and my skill in selecting hired help are spot on! I won the wager. That'll make Bondada eat her hat."
  5: 0x0545 [0x23] WAIT_FOR_DIALOG_INTERACTION
  6: 0x0546 [0x29] REQ_SET_WAIT(priority=0x08, entity_id=Baren-Moren (ID: 17752132/0x010EE044), tag_num=0x1D)
  7: 0x054D [0x20] SET_CLI_EVENT_UC_FLAG: Unlock player control
  8: 0x054F [0x21] END_EVENT
  9: 0x0550 [0x00] END_REQSTACK()
```

### Event 67

#### Metadata

| Field        | Value    |
|--------------|----------|
| Entrypoint   | 0x0551   |
| Data Size    | 29 bytes |
| Instructions | 10       |

```
      00 01 02 03 04 05 06 07  08 09 0A 0B 0C 0D 0E 0F
      -- -- -- -- -- -- -- --  -- -- -- -- -- -- -- --
0550:    1E F0 FF FF 7F 6F 70  29 08 44 E0 0E 01 01 1D   .....op).D.....
0560: 2E 80 23 29 08 44 E0 0E  01 1D 20 00 21 00        ..#).D.... .!.  
```

#### Opcodes

```
  0: 0x0551 [0x1E] EventEntity looks at LocalPlayer and starts talking
  1: 0x0556 [0x6F] WAIT_FRAME_DELAY: Yield until WaitTime reaches zero
  2: 0x0557 [0x70] WAIT_ENTITY_RENDER_FLAG: Wait while EventEntity->Render.Flags3 bit 2 is set (cancel turn if not)
  3: 0x0558 [0x29] REQ_SET_WAIT(priority=0x08, entity_id=Baren-Moren (ID: 17752132/0x010EE044), tag_num=0x01)
  4: 0x055F [0x1D] PRINT_EVENT_MESSAGE(message_id=7423*)
    → "You seem to have a sense of business there, young'un. Perhaps you should wear two hats, and take up advertising as a side job to your adventuring?"
  5: 0x0562 [0x23] WAIT_FOR_DIALOG_INTERACTION
  6: 0x0563 [0x29] REQ_SET_WAIT(priority=0x08, entity_id=Baren-Moren (ID: 17752132/0x010EE044), tag_num=0x1D)
  7: 0x056A [0x20] SET_CLI_EVENT_UC_FLAG: Unlock player control
  8: 0x056C [0x21] END_EVENT
  9: 0x056D [0x00] END_REQSTACK()
```

### Event 68

#### Metadata

| Field        | Value    |
|--------------|----------|
| Entrypoint   | 0x056E   |
| Data Size    | 29 bytes |
| Instructions | 10       |

```
      00 01 02 03 04 05 06 07  08 09 0A 0B 0C 0D 0E 0F
      -- -- -- -- -- -- -- --  -- -- -- -- -- -- -- --
0560:                                            1E F0                ..
0570: FF FF 7F 6F 70 29 08 44  E0 0E 01 01 1D 33 80 23  ...op).D.....3.#
0580: 29 08 44 E0 0E 01 1D 20  00 21 00                 ).D.... .!.     
```

#### Opcodes

```
  0: 0x056E [0x1E] EventEntity looks at LocalPlayer and starts talking
  1: 0x0573 [0x6F] WAIT_FRAME_DELAY: Yield until WaitTime reaches zero
  2: 0x0574 [0x70] WAIT_ENTITY_RENDER_FLAG: Wait while EventEntity->Render.Flags3 bit 2 is set (cancel turn if not)
  3: 0x0575 [0x29] REQ_SET_WAIT(priority=0x08, entity_id=Baren-Moren (ID: 17752132/0x010EE044), tag_num=0x01)
  4: 0x057C [0x1D] PRINT_EVENT_MESSAGE(message_id=7424*)
    → "Come back to this shop when you have the time, and train yourself to become a hat connoisseur."
  5: 0x057F [0x23] WAIT_FOR_DIALOG_INTERACTION
  6: 0x0580 [0x29] REQ_SET_WAIT(priority=0x08, entity_id=Baren-Moren (ID: 17752132/0x010EE044), tag_num=0x1D)
  7: 0x0587 [0x20] SET_CLI_EVENT_UC_FLAG: Unlock player control
  8: 0x0589 [0x21] END_EVENT
  9: 0x058A [0x00] END_REQSTACK()
```

### Event 1022

#### Metadata

| Field        | Value    |
|--------------|----------|
| Entrypoint   | 0x058B   |
| Data Size    | 29 bytes |
| Instructions | 10       |

```
      00 01 02 03 04 05 06 07  08 09 0A 0B 0C 0D 0E 0F
      -- -- -- -- -- -- -- --  -- -- -- -- -- -- -- --
0580:                                   1E F0 FF FF 7F             .....
0590: 6F 70 29 08 44 E0 0E 01  01 1D 34 80 23 29 08 44  op).D.....4.#).D
05A0: E0 0E 01 1D 20 00 21 00                           .... .!.        
```

#### Opcodes

```
  0: 0x058B [0x1E] EventEntity looks at LocalPlayer and starts talking
  1: 0x0590 [0x6F] WAIT_FRAME_DELAY: Yield until WaitTime reaches zero
  2: 0x0591 [0x70] WAIT_ENTITY_RENDER_FLAG: Wait while EventEntity->Render.Flags3 bit 2 is set (cancel turn if not)
  3: 0x0592 [0x29] REQ_SET_WAIT(priority=0x08, entity_id=Baren-Moren (ID: 17752132/0x010EE044), tag_num=0x01)
  4: 0x0599 [0x1D] PRINT_EVENT_MESSAGE(message_id=7430*)
    → "If you're not here to buy one of my hats, then hurry up and leave."
  5: 0x059C [0x23] WAIT_FOR_DIALOG_INTERACTION
  6: 0x059D [0x29] REQ_SET_WAIT(priority=0x08, entity_id=Baren-Moren (ID: 17752132/0x010EE044), tag_num=0x1D)
  7: 0x05A4 [0x20] SET_CLI_EVENT_UC_FLAG: Unlock player control
  8: 0x05A6 [0x21] END_EVENT
  9: 0x05A7 [0x00] END_REQSTACK()
```

### Event 547

#### Metadata

| Field        | Value    |
|--------------|----------|
| Entrypoint   | 0x05A8   |
| Data Size    | 42 bytes |
| Instructions | 12       |

```
      00 01 02 03 04 05 06 07  08 09 0A 0B 0C 0D 0E 0F
      -- -- -- -- -- -- -- --  -- -- -- -- -- -- -- --
05A0:                          42 20 01 1E F0 FF FF 7F          B ......
05B0: 6F 70 29 08 44 E0 0E 01  01 29 0B 44 E0 0E 01 3D  op).D....).D...=
05C0: 29 0B 44 E0 0E 01 3E 29  08 44 E0 0E 01 1D 20 00  ).D...>).D.... .
05D0: 21 00                                             !.              
```

#### Opcodes

```
  0: 0x05A8 [0x42] SET_CLI_EVENT_CANCEL_DATA()
  1: 0x05A9 [0x20] SET_CLI_EVENT_UC_FLAG: Lock player control
  2: 0x05AB [0x1E] EventEntity looks at LocalPlayer and starts talking
  3: 0x05B0 [0x6F] WAIT_FRAME_DELAY: Yield until WaitTime reaches zero
  4: 0x05B1 [0x70] WAIT_ENTITY_RENDER_FLAG: Wait while EventEntity->Render.Flags3 bit 2 is set (cancel turn if not)
  5: 0x05B2 [0x29] REQ_SET_WAIT(priority=0x08, entity_id=Baren-Moren (ID: 17752132/0x010EE044), tag_num=0x01)
  6: 0x05B9 [0x29] REQ_SET_WAIT(priority=0x0B, entity_id=Baren-Moren (ID: 17752132/0x010EE044), tag_num=0x3D)
  7: 0x05C0 [0x29] REQ_SET_WAIT(priority=0x0B, entity_id=Baren-Moren (ID: 17752132/0x010EE044), tag_num=0x3E)
  8: 0x05C7 [0x29] REQ_SET_WAIT(priority=0x08, entity_id=Baren-Moren (ID: 17752132/0x010EE044), tag_num=0x1D)
  9: 0x05CE [0x20] SET_CLI_EVENT_UC_FLAG: Unlock player control
 10: 0x05D0 [0x21] END_EVENT
 11: 0x05D1 [0x00] END_REQSTACK()
```

### Event 65535.42

#### Metadata

| Field        | Value   |
|--------------|---------|
| Entrypoint   | 0x05D2  |
| Data Size    | 9 bytes |
| Instructions | 5       |

```
      00 01 02 03 04 05 06 07  08 09 0A 0B 0C 0D 0E 0F
      -- -- -- -- -- -- -- --  -- -- -- -- -- -- -- --
05D0:       1D 35 80 23 1D 36  80 23 00                   .5.#.6.#.     
```

#### Opcodes

```
  0: 0x05D2 [0x1D] PRINT_EVENT_MESSAGE(message_id=8764*)
    → "What a fine sailor's cap... Such a shame it's so terribly torn..."
  1: 0x05D5 [0x23] WAIT_FOR_DIALOG_INTERACTION
  2: 0x05D6 [0x1D] PRINT_EVENT_MESSAGE(message_id=8765*)
    → "And these are made out of leather, too... It would be a damn sight quicker to make a new one."
  3: 0x05D9 [0x23] WAIT_FOR_DIALOG_INTERACTION
  4: 0x05DA [0x00] END_REQSTACK()
```

### Event 65535.43

#### Metadata

| Field        | Value   |
|--------------|---------|
| Entrypoint   | 0x05DB  |
| Data Size    | 9 bytes |
| Instructions | 5       |

```
      00 01 02 03 04 05 06 07  08 09 0A 0B 0C 0D 0E 0F
      -- -- -- -- -- -- -- --  -- -- -- -- -- -- -- --
05D0:                                   1D 37 80 23 1D             .7.#.
05E0: 38 80 23 00                                       8.#.            
```

#### Opcodes

```
  0: 0x05DB [0x1D] PRINT_EVENT_MESSAGE(message_id=8766*)
    → "To-ho-ho... Might as well try full-scale surgery to see if we can resurrect the poor blighter."
  1: 0x05DE [0x23] WAIT_FOR_DIALOG_INTERACTION
  2: 0x05DF [0x1D] PRINT_EVENT_MESSAGE(message_id=8767*)
    → "Listen up. I'll need four $1 to save this worn and torn sailor...and a little bit of luck as well."
  3: 0x05E2 [0x23] WAIT_FOR_DIALOG_INTERACTION
  4: 0x05E3 [0x00] END_REQSTACK()
```

### Event 548

#### Metadata

| Field        | Value    |
|--------------|----------|
| Entrypoint   | 0x05E4   |
| Data Size    | 33 bytes |
| Instructions | 12       |

```
      00 01 02 03 04 05 06 07  08 09 0A 0B 0C 0D 0E 0F
      -- -- -- -- -- -- -- --  -- -- -- -- -- -- -- --
05E0:             1E F0 FF FF  7F 6F 70 29 08 44 E0 0E      .....op).D..
05F0: 01 01 1D 39 80 23 1D 3A  80 23 29 08 44 E0 0E 01  ...9.#.:.#).D...
0600: 1D 20 00 21 00                                    . .!.           
```

#### Opcodes

```
  0: 0x05E4 [0x1E] EventEntity looks at LocalPlayer and starts talking
  1: 0x05E9 [0x6F] WAIT_FRAME_DELAY: Yield until WaitTime reaches zero
  2: 0x05EA [0x70] WAIT_ENTITY_RENDER_FLAG: Wait while EventEntity->Render.Flags3 bit 2 is set (cancel turn if not)
  3: 0x05EB [0x29] REQ_SET_WAIT(priority=0x08, entity_id=Baren-Moren (ID: 17752132/0x010EE044), tag_num=0x01)
  4: 0x05F2 [0x1D] PRINT_EVENT_MESSAGE(message_id=8768*)
    → "To-ho-ho... Might as well try full-scale surgery to see if we can resurrect the poor blighter."
  5: 0x05F5 [0x23] WAIT_FOR_DIALOG_INTERACTION
  6: 0x05F6 [0x1D] PRINT_EVENT_MESSAGE(message_id=8769*)
    → "Listen up. I'll need four $1 to save this worn and torn sailor...and a little luck as well."
  7: 0x05F9 [0x23] WAIT_FOR_DIALOG_INTERACTION
  8: 0x05FA [0x29] REQ_SET_WAIT(priority=0x08, entity_id=Baren-Moren (ID: 17752132/0x010EE044), tag_num=0x1D)
  9: 0x0601 [0x20] SET_CLI_EVENT_UC_FLAG: Unlock player control
 10: 0x0603 [0x21] END_EVENT
 11: 0x0604 [0x00] END_REQSTACK()
```

### Event 549

#### Metadata

| Field        | Value    |
|--------------|----------|
| Entrypoint   | 0x0605   |
| Data Size    | 71 bytes |
| Instructions | 17       |

```
      00 01 02 03 04 05 06 07  08 09 0A 0B 0C 0D 0E 0F
      -- -- -- -- -- -- -- --  -- -- -- -- -- -- -- --
0600:                42 20 01  1E F0 FF FF 7F 6F 70 29       B ......op)
0610: 0B 44 E0 0E 01 41 02 04  10 0C 80 00 2C 06 29 0B  .D...A......,.).
0620: 44 E0 0E 01 42 29 0B 44  E0 0E 01 43 29 08 44 E0  D...B).D...C).D.
0630: 0E 01 1D 02 04 10 0D 80  00 43 06 03 01 10 0D 80  .........C......
0640: 01 48 06 03 01 10 0C 80  20 00 21 00              .H...... .!.    
```

#### Opcodes

```
  0: 0x0605 [0x42] SET_CLI_EVENT_CANCEL_DATA()
  1: 0x0606 [0x20] SET_CLI_EVENT_UC_FLAG: Lock player control
  2: 0x0608 [0x1E] EventEntity looks at LocalPlayer and starts talking
  3: 0x060D [0x6F] WAIT_FRAME_DELAY: Yield until WaitTime reaches zero
  4: 0x060E [0x70] WAIT_ENTITY_RENDER_FLAG: Wait while EventEntity->Render.Flags3 bit 2 is set (cancel turn if not)
  5: 0x060F [0x29] REQ_SET_WAIT(priority=0x0B, entity_id=Baren-Moren (ID: 17752132/0x010EE044), tag_num=0x41)
  6: 0x0616 [0x02] IF !(Work_Zone[4] == 0*) GOTO 0x062C
  7: 0x061E [0x29] REQ_SET_WAIT(priority=0x0B, entity_id=Baren-Moren (ID: 17752132/0x010EE044), tag_num=0x42)
  8: 0x0625 [0x29] REQ_SET_WAIT(priority=0x0B, entity_id=Baren-Moren (ID: 17752132/0x010EE044), tag_num=0x43)
  9: 0x062C [0x29] REQ_SET_WAIT(priority=0x08, entity_id=Baren-Moren (ID: 17752132/0x010EE044), tag_num=0x1D)
 10: 0x0633 [0x02] IF !(Work_Zone[4] == 1*) GOTO 0x0643
 11: 0x063B [0x03] Work_Zone[1] = 1*
 12: 0x0640 [0x01] GOTO 0x0648
 13: 0x0643 [0x03] Work_Zone[1] = 0*

SUBROUTINE_0648:
 14: 0x0648 [0x20] SET_CLI_EVENT_UC_FLAG: Unlock player control
 15: 0x064A [0x21] END_EVENT
 16: 0x064B [0x00] END_REQSTACK()
```

### Event 65535.44

#### Metadata

| Field        | Value    |
|--------------|----------|
| Entrypoint   | 0x064C   |
| Data Size    | 23 bytes |
| Instructions | 7        |

```
      00 01 02 03 04 05 06 07  08 09 0A 0B 0C 0D 0E 0F
      -- -- -- -- -- -- -- --  -- -- -- -- -- -- -- --
0640:                                      29 08 44 E0              ).D.
0650: 0E 01 01 1D 3B 80 23 1D  3C 80 23 29 08 44 E0 0E  ....;.#.<.#).D..
0660: 01 02 00                                          ...             
```

#### Opcodes

```
  0: 0x064C [0x29] REQ_SET_WAIT(priority=0x08, entity_id=Baren-Moren (ID: 17752132/0x010EE044), tag_num=0x01)
  1: 0x0653 [0x1D] PRINT_EVENT_MESSAGE(message_id=8770*)
    → "Wish me luck, 'cause here it goes..."
  2: 0x0656 [0x23] WAIT_FOR_DIALOG_INTERACTION
  3: 0x0657 [0x1D] PRINT_EVENT_MESSAGE(message_id=8771*)
    → "Ta`da`t The operation was a success! To tell you the truth, I had been working on it using some of the leather I had lying around here. To-ho-ho."
  4: 0x065A [0x23] WAIT_FOR_DIALOG_INTERACTION
  5: 0x065B [0x29] REQ_SET_WAIT(priority=0x08, entity_id=Baren-Moren (ID: 17752132/0x010EE044), tag_num=0x02)
  6: 0x0662 [0x00] END_REQSTACK()
```

### Event 65535.45

#### Metadata

| Field        | Value   |
|--------------|---------|
| Entrypoint   | 0x0663  |
| Data Size    | 5 bytes |
| Instructions | 3       |

```
      00 01 02 03 04 05 06 07  08 09 0A 0B 0C 0D 0E 0F
      -- -- -- -- -- -- -- --  -- -- -- -- -- -- -- --
0660:          1D 3D 80 23 00                              .=.#.        
```

#### Opcodes

```
  0: 0x0663 [0x1D] PRINT_EVENT_MESSAGE(message_id=8772*)
    → "Oh, and here, I also made a little something for you, too..."
  1: 0x0666 [0x23] WAIT_FOR_DIALOG_INTERACTION
  2: 0x0667 [0x00] END_REQSTACK()
```

### Event 65535.46

#### Metadata

| Field        | Value   |
|--------------|---------|
| Entrypoint   | 0x0668  |
| Data Size    | 5 bytes |
| Instructions | 3       |

```
      00 01 02 03 04 05 06 07  08 09 0A 0B 0C 0D 0E 0F
      -- -- -- -- -- -- -- --  -- -- -- -- -- -- -- --
0660:                          1D 3E 80 23 00                   .>.#.   
```

#### Opcodes

```
  0: 0x0668 [0x1D] PRINT_EVENT_MESSAGE(message_id=8773*)
    → "To-ho-ho! I just made it using the scraps of leather I had left over, but it's quite a dandy little design, isn't it?"
  1: 0x066B [0x23] WAIT_FOR_DIALOG_INTERACTION
  2: 0x066C [0x00] END_REQSTACK()
```

### Event 550

#### Metadata

| Field        | Value    |
|--------------|----------|
| Entrypoint   | 0x066D   |
| Data Size    | 29 bytes |
| Instructions | 10       |

```
      00 01 02 03 04 05 06 07  08 09 0A 0B 0C 0D 0E 0F
      -- -- -- -- -- -- -- --  -- -- -- -- -- -- -- --
0660:                                         1E F0 FF               ...
0670: FF 7F 6F 70 29 08 44 E0  0E 01 01 1D 3F 80 23 29  ..op).D.....?.#)
0680: 08 44 E0 0E 01 1D 20 00  21 00                    .D.... .!.      
```

#### Opcodes

```
  0: 0x066D [0x1E] EventEntity looks at LocalPlayer and starts talking
  1: 0x0672 [0x6F] WAIT_FRAME_DELAY: Yield until WaitTime reaches zero
  2: 0x0673 [0x70] WAIT_ENTITY_RENDER_FLAG: Wait while EventEntity->Render.Flags3 bit 2 is set (cancel turn if not)
  3: 0x0674 [0x29] REQ_SET_WAIT(priority=0x08, entity_id=Baren-Moren (ID: 17752132/0x010EE044), tag_num=0x01)
  4: 0x067B [0x1D] PRINT_EVENT_MESSAGE(message_id=8774*)
    → "To-ho-ho! Not that it would happen, but if you ever lost your $0 again, just bring me four $1, and I'll make you a new one."
  5: 0x067E [0x23] WAIT_FOR_DIALOG_INTERACTION
  6: 0x067F [0x29] REQ_SET_WAIT(priority=0x08, entity_id=Baren-Moren (ID: 17752132/0x010EE044), tag_num=0x1D)
  7: 0x0686 [0x20] SET_CLI_EVENT_UC_FLAG: Unlock player control
  8: 0x0688 [0x21] END_EVENT
  9: 0x0689 [0x00] END_REQSTACK()
```

### Event 72

#### Metadata

| Field        | Value    |
|--------------|----------|
| Entrypoint   | 0x068A   |
| Data Size    | 49 bytes |
| Instructions | 13       |

```
      00 01 02 03 04 05 06 07  08 09 0A 0B 0C 0D 0E 0F
      -- -- -- -- -- -- -- --  -- -- -- -- -- -- -- --
0680:                                20 01 4A 45 E0 0E             .JE..
0690: 01 44 E0 0E 01 6F 76 45  E0 0E 01 29 0B 45 E0 0E  .D...ovE...).E..
06A0: 01 27 1E F0 FF FF 7F 6F  70 29 0B 44 E0 0E 01 46  .'.....op).D...F
06B0: 29 0B 44 E0 0E 01 47 20  00 21 00                 ).D...G .!.     
```

#### Opcodes

```
  0: 0x068A [0x20] SET_CLI_EVENT_UC_FLAG: Lock player control
  1: 0x068C [0x4A] Bondada (ID: 17752133/0x010EE045) looks at Baren-Moren (ID: 17752132/0x010EE044)
  2: 0x0695 [0x6F] WAIT_FRAME_DELAY: Yield until WaitTime reaches zero
  3: 0x0696 [0x76] CHECK_ENTITY_RENDER_FLAGS: Wait until Bondada (ID: 17752133/0x010EE045) Render.Flags0 and Render.Flags3 conditions are met
  4: 0x069B [0x29] REQ_SET_WAIT(priority=0x0B, entity_id=Bondada (ID: 17752133/0x010EE045), tag_num=0x27)
  5: 0x06A2 [0x1E] EventEntity looks at LocalPlayer and starts talking
  6: 0x06A7 [0x6F] WAIT_FRAME_DELAY: Yield until WaitTime reaches zero
  7: 0x06A8 [0x70] WAIT_ENTITY_RENDER_FLAG: Wait while EventEntity->Render.Flags3 bit 2 is set (cancel turn if not)
  8: 0x06A9 [0x29] REQ_SET_WAIT(priority=0x0B, entity_id=Baren-Moren (ID: 17752132/0x010EE044), tag_num=0x46)
  9: 0x06B0 [0x29] REQ_SET_WAIT(priority=0x0B, entity_id=Baren-Moren (ID: 17752132/0x010EE044), tag_num=0x47)
 10: 0x06B7 [0x20] SET_CLI_EVENT_UC_FLAG: Unlock player control
 11: 0x06B9 [0x21] END_EVENT
 12: 0x06BA [0x00] END_REQSTACK()
```

### Event 65535.47

#### Metadata

| Field        | Value    |
|--------------|----------|
| Entrypoint   | 0x06BB   |
| Data Size    | 19 bytes |
| Instructions | 5        |

```
      00 01 02 03 04 05 06 07  08 09 0A 0B 0C 0D 0E 0F
      -- -- -- -- -- -- -- --  -- -- -- -- -- -- -- --
06B0:                                   29 08 44 E0 0E             ).D..
06C0: 01 01 1D 40 80 23 29 08  44 E0 0E 01 1D 00        ...@.#).D.....  
```

#### Opcodes

```
  0: 0x06BB [0x29] REQ_SET_WAIT(priority=0x08, entity_id=Baren-Moren (ID: 17752132/0x010EE044), tag_num=0x01)
  1: 0x06C2 [0x1D] PRINT_EVENT_MESSAGE(message_id=7429*)
    → "I'm in a bit of a fix... but it doesn't concern you."
  2: 0x06C5 [0x23] WAIT_FOR_DIALOG_INTERACTION
  3: 0x06C6 [0x29] REQ_SET_WAIT(priority=0x08, entity_id=Baren-Moren (ID: 17752132/0x010EE044), tag_num=0x1D)
  4: 0x06CD [0x00] END_REQSTACK()
```

### Event 74

#### Metadata

| Field        | Value    |
|--------------|----------|
| Entrypoint   | 0x06CE   |
| Data Size    | 19 bytes |
| Instructions | 5        |

```
      00 01 02 03 04 05 06 07  08 09 0A 0B 0C 0D 0E 0F
      -- -- -- -- -- -- -- --  -- -- -- -- -- -- -- --
06C0:                                            29 08                ).
06D0: 44 E0 0E 01 01 1D 34 80  23 29 08 44 E0 0E 01 1D  D.....4.#).D....
06E0: 00                                                .               
```

#### Opcodes

```
  0: 0x06CE [0x29] REQ_SET_WAIT(priority=0x08, entity_id=Baren-Moren (ID: 17752132/0x010EE044), tag_num=0x01)
  1: 0x06D5 [0x1D] PRINT_EVENT_MESSAGE(message_id=7430*)
    → "If you're not here to buy one of my hats, then hurry up and leave."
  2: 0x06D8 [0x23] WAIT_FOR_DIALOG_INTERACTION
  3: 0x06D9 [0x29] REQ_SET_WAIT(priority=0x08, entity_id=Baren-Moren (ID: 17752132/0x010EE044), tag_num=0x1D)
  4: 0x06E0 [0x00] END_REQSTACK()
```

### Event 75

#### Metadata

| Field        | Value     |
|--------------|-----------|
| Entrypoint   | 0x06E1    |
| Data Size    | 147 bytes |
| Instructions | 31        |

```
      00 01 02 03 04 05 06 07  08 09 0A 0B 0C 0D 0E 0F
      -- -- -- -- -- -- -- --  -- -- -- -- -- -- -- --
06E0:    20 01 1E F0 FF FF 7F  6F 70 4A 45 E0 0E 01 44    ......opJE...D
06F0: E0 0E 01 6F 76 45 E0 0E  01 29 09 45 E0 0E 01 27  ...ovE...).E...'
0700: 29 0B 44 E0 0E 01 49 29  09 45 E0 0E 01 29 4A 44  ).D...I).E...)JD
0710: E0 0E 01 45 E0 0E 01 6F  76 F8 FF FF 7F 29 0B 44  ...E...ov....).D
0720: E0 0E 01 4A 4A 44 E0 0E  01 F0 FF FF 7F 6F 76 F8  ...JJD.......ov.
0730: FF FF 7F 29 0B 44 E0 0E  01 4B 24 41 80 0C 80 0C  ...).D...K$A....
0740: 80 25 02 00 10 0C 80 00  59 07 03 01 10 0D 80 29  .%......Y......)
0750: 0B 44 E0 0E 01 4D 01 70  07 02 00 10 0D 80 00 70  .D...M.p.......p
0760: 07 03 01 10 0E 80 29 0B  44 E0 0E 01 4C 01 70 07  ......).D...L.p.
0770: 20 00 21 00                                        .!.            
```

#### Opcodes

```
  0: 0x06E1 [0x20] SET_CLI_EVENT_UC_FLAG: Lock player control
  1: 0x06E3 [0x1E] EventEntity looks at LocalPlayer and starts talking
  2: 0x06E8 [0x6F] WAIT_FRAME_DELAY: Yield until WaitTime reaches zero
  3: 0x06E9 [0x70] WAIT_ENTITY_RENDER_FLAG: Wait while EventEntity->Render.Flags3 bit 2 is set (cancel turn if not)
  4: 0x06EA [0x4A] Bondada (ID: 17752133/0x010EE045) looks at Baren-Moren (ID: 17752132/0x010EE044)
  5: 0x06F3 [0x6F] WAIT_FRAME_DELAY: Yield until WaitTime reaches zero
  6: 0x06F4 [0x76] CHECK_ENTITY_RENDER_FLAGS: Wait until Bondada (ID: 17752133/0x010EE045) Render.Flags0 and Render.Flags3 conditions are met
  7: 0x06F9 [0x29] REQ_SET_WAIT(priority=0x09, entity_id=Bondada (ID: 17752133/0x010EE045), tag_num=0x27)
  8: 0x0700 [0x29] REQ_SET_WAIT(priority=0x0B, entity_id=Baren-Moren (ID: 17752132/0x010EE044), tag_num=0x49)
  9: 0x0707 [0x29] REQ_SET_WAIT(priority=0x09, entity_id=Bondada (ID: 17752133/0x010EE045), tag_num=0x29)
 10: 0x070E [0x4A] Baren-Moren (ID: 17752132/0x010EE044) looks at Bondada (ID: 17752133/0x010EE045)
 11: 0x0717 [0x6F] WAIT_FRAME_DELAY: Yield until WaitTime reaches zero
 12: 0x0718 [0x76] CHECK_ENTITY_RENDER_FLAGS: Wait until EventEntity Render.Flags0 and Render.Flags3 conditions are met
 13: 0x071D [0x29] REQ_SET_WAIT(priority=0x0B, entity_id=Baren-Moren (ID: 17752132/0x010EE044), tag_num=0x4A)
 14: 0x0724 [0x4A] Baren-Moren (ID: 17752132/0x010EE044) looks at LocalPlayer
 15: 0x072D [0x6F] WAIT_FRAME_DELAY: Yield until WaitTime reaches zero
 16: 0x072E [0x76] CHECK_ENTITY_RENDER_FLAGS: Wait until EventEntity Render.Flags0 and Render.Flags3 conditions are met
 17: 0x0733 [0x29] REQ_SET_WAIT(priority=0x0B, entity_id=Baren-Moren (ID: 17752132/0x010EE044), tag_num=0x4B)
 18: 0x073A [0x24] CREATE_DIALOG(message_id=7437*, default_option=0*, option_flags=0*)
    → "Help make the lady's luxurious hat? [Give it a try./Decline.]"
 19: 0x0741 [0x25] WAIT_DIALOG_SELECT()
 20: 0x0742 [0x02] IF !(Work_Zone[0] == 0*) GOTO 0x0759
 21: 0x074A [0x03] Work_Zone[1] = 1*
 22: 0x074F [0x29] REQ_SET_WAIT(priority=0x0B, entity_id=Baren-Moren (ID: 17752132/0x010EE044), tag_num=0x4D)
 23: 0x0756 [0x01] GOTO 0x0770
 24: 0x0759 [0x02] IF !(Work_Zone[0] == 1*) GOTO 0x0770
 25: 0x0761 [0x03] Work_Zone[1] = 2*
 26: 0x0766 [0x29] REQ_SET_WAIT(priority=0x0B, entity_id=Baren-Moren (ID: 17752132/0x010EE044), tag_num=0x4C)
 27: 0x076D [0x01] GOTO 0x0770

SUBROUTINE_0770:
 28: 0x0770 [0x20] SET_CLI_EVENT_UC_FLAG: Unlock player control
 29: 0x0772 [0x21] END_EVENT
 30: 0x0773 [0x00] END_REQSTACK()
```

### Event 65535.48

#### Metadata

| Field        | Value    |
|--------------|----------|
| Entrypoint   | 0x0774   |
| Data Size    | 55 bytes |
| Instructions | 13       |

```
      00 01 02 03 04 05 06 07  08 09 0A 0B 0C 0D 0E 0F
      -- -- -- -- -- -- -- --  -- -- -- -- -- -- -- --
0770:             29 08 44 E0  0E 01 03 1D 42 80 23 29      ).D.....B.#)
0780: 08 44 E0 0E 01 04 29 08  44 E0 0E 01 05 1D 43 80  .D....).D.....C.
0790: 23 29 08 44 E0 0E 01 06  29 08 44 E0 0E 01 01 1D  #).D....).D.....
07A0: 44 80 23 29 08 44 E0 0E  01 02 00                 D.#).D.....     
```

#### Opcodes

```
  0: 0x0774 [0x29] REQ_SET_WAIT(priority=0x08, entity_id=Baren-Moren (ID: 17752132/0x010EE044), tag_num=0x03)
  1: 0x077B [0x1D] PRINT_EVENT_MESSAGE(message_id=7431*)
    → "I'm in a bit of a fix... Would you be so good as to hear me out...?"
  2: 0x077E [0x23] WAIT_FOR_DIALOG_INTERACTION
  3: 0x077F [0x29] REQ_SET_WAIT(priority=0x08, entity_id=Baren-Moren (ID: 17752132/0x010EE044), tag_num=0x04)
  4: 0x0786 [0x29] REQ_SET_WAIT(priority=0x08, entity_id=Baren-Moren (ID: 17752132/0x010EE044), tag_num=0x05)
  5: 0x078D [0x1D] PRINT_EVENT_MESSAGE(message_id=7432*)
    → "Some big-wigged madam wants me to make her a particularly luxurious hat... Arrrgh!"
  6: 0x0790 [0x23] WAIT_FOR_DIALOG_INTERACTION
  7: 0x0791 [0x29] REQ_SET_WAIT(priority=0x08, entity_id=Baren-Moren (ID: 17752132/0x010EE044), tag_num=0x06)
  8: 0x0798 [0x29] REQ_SET_WAIT(priority=0x08, entity_id=Baren-Moren (ID: 17752132/0x010EE044), tag_num=0x01)
  9: 0x079F [0x1D] PRINT_EVENT_MESSAGE(message_id=7433*)
    → "I'm reluctant, as my hats aren't just for appearance's sake."
 10: 0x07A2 [0x23] WAIT_FOR_DIALOG_INTERACTION
 11: 0x07A3 [0x29] REQ_SET_WAIT(priority=0x08, entity_id=Baren-Moren (ID: 17752132/0x010EE044), tag_num=0x02)
 12: 0x07AA [0x00] END_REQSTACK()
```

### Event 65535.49

#### Metadata

| Field        | Value    |
|--------------|----------|
| Entrypoint   | 0x07AB   |
| Data Size    | 19 bytes |
| Instructions | 5        |

```
      00 01 02 03 04 05 06 07  08 09 0A 0B 0C 0D 0E 0F
      -- -- -- -- -- -- -- --  -- -- -- -- -- -- -- --
07A0:                                   29 08 44 E0 0E             ).D..
07B0: 01 17 1D 45 80 23 29 08  44 E0 0E 01 18 00        ...E.#).D.....  
```

#### Opcodes

```
  0: 0x07AB [0x29] REQ_SET_WAIT(priority=0x08, entity_id=Baren-Moren (ID: 17752132/0x010EE044), tag_num=0x17)
  1: 0x07B2 [0x1D] PRINT_EVENT_MESSAGE(message_id=7435*)
    → "I already told you, Bondada, I can make something as simple as a grande dame's hat with my eyes shut."
  2: 0x07B5 [0x23] WAIT_FOR_DIALOG_INTERACTION
  3: 0x07B6 [0x29] REQ_SET_WAIT(priority=0x08, entity_id=Baren-Moren (ID: 17752132/0x010EE044), tag_num=0x18)
  4: 0x07BD [0x00] END_REQSTACK()
```

### Event 65535.50

#### Metadata

| Field        | Value    |
|--------------|----------|
| Entrypoint   | 0x07BE   |
| Data Size    | 19 bytes |
| Instructions | 5        |

```
      00 01 02 03 04 05 06 07  08 09 0A 0B 0C 0D 0E 0F
      -- -- -- -- -- -- -- --  -- -- -- -- -- -- -- --
07B0:                                            29 08                ).
07C0: 44 E0 0E 01 09 1D 46 80  23 29 08 44 E0 0E 01 0A  D.....F.#).D....
07D0: 00                                                .               
```

#### Opcodes

```
  0: 0x07BE [0x29] REQ_SET_WAIT(priority=0x08, entity_id=Baren-Moren (ID: 17752132/0x010EE044), tag_num=0x09)
  1: 0x07C5 [0x1D] PRINT_EVENT_MESSAGE(message_id=7436*)
    → "That's it! Hey, <Player>! Want to help me out here?"
  2: 0x07C8 [0x23] WAIT_FOR_DIALOG_INTERACTION
  3: 0x07C9 [0x29] REQ_SET_WAIT(priority=0x08, entity_id=Baren-Moren (ID: 17752132/0x010EE044), tag_num=0x0A)
  4: 0x07D0 [0x00] END_REQSTACK()
```

### Event 65535.51

#### Metadata

| Field        | Value    |
|--------------|----------|
| Entrypoint   | 0x07D1   |
| Data Size    | 19 bytes |
| Instructions | 5        |

```
      00 01 02 03 04 05 06 07  08 09 0A 0B 0C 0D 0E 0F
      -- -- -- -- -- -- -- --  -- -- -- -- -- -- -- --
07D0:    29 08 44 E0 0E 01 15  1D 47 80 23 29 08 44 E0   ).D.....G.#).D.
07E0: 0E 01 16 00                                       ....            
```

#### Opcodes

```
  0: 0x07D1 [0x29] REQ_SET_WAIT(priority=0x08, entity_id=Baren-Moren (ID: 17752132/0x010EE044), tag_num=0x15)
  1: 0x07D8 [0x1D] PRINT_EVENT_MESSAGE(message_id=7438*)
    → "Why you...! You just came here to see me wear a dunce's cap too, didn't you?"
  2: 0x07DB [0x23] WAIT_FOR_DIALOG_INTERACTION
  3: 0x07DC [0x29] REQ_SET_WAIT(priority=0x08, entity_id=Baren-Moren (ID: 17752132/0x010EE044), tag_num=0x16)
  4: 0x07E3 [0x00] END_REQSTACK()
```

### Event 77

#### Metadata

| Field        | Value    |
|--------------|----------|
| Entrypoint   | 0x07E4   |
| Data Size    | 44 bytes |
| Instructions | 12       |

```
      00 01 02 03 04 05 06 07  08 09 0A 0B 0C 0D 0E 0F
      -- -- -- -- -- -- -- --  -- -- -- -- -- -- -- --
07E0:             1E F0 FF FF  7F 6F 70 29 08 44 E0 0E      .....op).D..
07F0: 01 03 1D 48 80 23 29 08  44 E0 0E 01 04 29 08 44  ...H.#).D....).D
0800: E0 0E 01 05 1D 49 80 23  29 08 44 E0 0E 01 06 00  .....I.#).D.....
```

#### Opcodes

```
  0: 0x07E4 [0x1E] EventEntity looks at LocalPlayer and starts talking
  1: 0x07E9 [0x6F] WAIT_FRAME_DELAY: Yield until WaitTime reaches zero
  2: 0x07EA [0x70] WAIT_ENTITY_RENDER_FLAG: Wait while EventEntity->Render.Flags3 bit 2 is set (cancel turn if not)
  3: 0x07EB [0x29] REQ_SET_WAIT(priority=0x08, entity_id=Baren-Moren (ID: 17752132/0x010EE044), tag_num=0x03)
  4: 0x07F2 [0x1D] PRINT_EVENT_MESSAGE(message_id=7439*)
    → "I'm going to need feathers... Lots of big feathers! How about you get me three $1 from the monsters that live on the Meriphataud Mountains and Sauromugue Champaign?"
  5: 0x07F5 [0x23] WAIT_FOR_DIALOG_INTERACTION
  6: 0x07F6 [0x29] REQ_SET_WAIT(priority=0x08, entity_id=Baren-Moren (ID: 17752132/0x010EE044), tag_num=0x04)
  7: 0x07FD [0x29] REQ_SET_WAIT(priority=0x08, entity_id=Baren-Moren (ID: 17752132/0x010EE044), tag_num=0x05)
  8: 0x0804 [0x1D] PRINT_EVENT_MESSAGE(message_id=7441*)
    → "Hurry up and get me those feathers! I'll make that woman eat her hat!"
  9: 0x0807 [0x23] WAIT_FOR_DIALOG_INTERACTION
 10: 0x0808 [0x29] REQ_SET_WAIT(priority=0x08, entity_id=Baren-Moren (ID: 17752132/0x010EE044), tag_num=0x06)
 11: 0x080F [0x00] END_REQSTACK()
```

### Event 78

#### Metadata

| Field        | Value    |
|--------------|----------|
| Entrypoint   | 0x0810   |
| Data Size    | 47 bytes |
| Instructions | 14       |

```
      00 01 02 03 04 05 06 07  08 09 0A 0B 0C 0D 0E 0F
      -- -- -- -- -- -- -- --  -- -- -- -- -- -- -- --
0810: 1E F0 FF FF 7F 6F 70 29  08 44 E0 0E 01 03 1D 48  .....op).D.....H
0820: 80 23 29 08 44 E0 0E 01  04 29 08 44 E0 0E 01 05  .#).D....).D....
0830: 1D 49 80 23 29 08 44 E0  0E 01 06 20 00 21 00     .I.#).D.... .!. 
```

#### Opcodes

```
  0: 0x0810 [0x1E] EventEntity looks at LocalPlayer and starts talking
  1: 0x0815 [0x6F] WAIT_FRAME_DELAY: Yield until WaitTime reaches zero
  2: 0x0816 [0x70] WAIT_ENTITY_RENDER_FLAG: Wait while EventEntity->Render.Flags3 bit 2 is set (cancel turn if not)
  3: 0x0817 [0x29] REQ_SET_WAIT(priority=0x08, entity_id=Baren-Moren (ID: 17752132/0x010EE044), tag_num=0x03)
  4: 0x081E [0x1D] PRINT_EVENT_MESSAGE(message_id=7439*)
    → "I'm going to need feathers... Lots of big feathers! How about you get me three $1 from the monsters that live on the Meriphataud Mountains and Sauromugue Champaign?"
  5: 0x0821 [0x23] WAIT_FOR_DIALOG_INTERACTION
  6: 0x0822 [0x29] REQ_SET_WAIT(priority=0x08, entity_id=Baren-Moren (ID: 17752132/0x010EE044), tag_num=0x04)
  7: 0x0829 [0x29] REQ_SET_WAIT(priority=0x08, entity_id=Baren-Moren (ID: 17752132/0x010EE044), tag_num=0x05)
