# 17752203 - Npopo

## Common Data

| Field            | Value                     |
|------------------|---------------------------|
| Zone             | Windurst Waters (ID: 238) |
| Block Size       | 204 bytes                 |
| Total Events     | 6                         |
| References Count | 7                         |

## List of Events

| Event ID                 | Entrypoint   |   Size |   Instructions |
|--------------------------|--------------|--------|----------------|
| [65535](#event-65535)    | 0x0000       |      1 |              1 |
| [65535.1](#event-655351) | 0x0001       |     16 |              2 |
| [65535.2](#event-655352) | 0x0011       |     22 |              4 |
| [65535.3](#event-655353) | 0x0027       |      9 |              3 |
| [269](#event-269)        | 0x0030       |     33 |             12 |
| [936](#event-936)        | 0x0051       |     52 |             12 |

## DAT References (imed_data)

|   Index | Hex Value   |   Dec Value |
|---------|-------------|-------------|
|       0 | 0x0028      |          40 |
|       1 | 0x001E      |          30 |
|       2 | 0x1EF9      |        7929 |
|       3 | 0x1EFA      |        7930 |
|       4 | 0x2FFE      |       12286 |
|       5 | 0x2FFF      |       12287 |
|       6 | 0x3000      |       12288 |

## String References

- **7929**: On the other side of this gate, the wild grasslands of West Sarutabaruta await.
- **7930**: Beginners might best start out fighting simple bumblebees. But be careful, for even in the same species of bee, there are strong ones and weak ones. Generally, the further you go away from town the stronger they get.
- **12286**: <Player>'s badge flashes brightly.
- **12287**: Beyond the Gugru Blue lies an enormous continent, or so they say.
- **12288**: I wonder what kind of monsters you can find there... Of course, beginners shouldn't venture far outside of town, no matter what nation they're in!

## Events

### Event 65535

#### Metadata

| Field        | Value   |
|--------------|---------|
| Entrypoint   | 0x0000  |
| Data Size    | 1 bytes |
| Instructions | 1       |

```
      00 01 02 03 04 05 06 07  08 09 0A 0B 0C 0D 0E 0F
      -- -- -- -- -- -- -- --  -- -- -- -- -- -- -- --
0000: 00                                                .               
```

#### Opcodes

```
  0: 0x0000 [0x00] END_REQSTACK()
```

### Event 65535.1

#### Metadata

| Field        | Value    |
|--------------|----------|
| Entrypoint   | 0x0001   |
| Data Size    | 16 bytes |
| Instructions | 2        |

```
      00 01 02 03 04 05 06 07  08 09 0A 0B 0C 0D 0E 0F
      -- -- -- -- -- -- -- --  -- -- -- -- -- -- -- --
0000:    66 00 80 F8 FF FF 7F  F8 FF FF 7F 74 6C 6B 30   f..........tlk0
0010: 00                                                .               
```

#### Opcodes

```
  0: 0x0001 [0x66] LOAD_EXT_SCHEDULER_MAIN: Load scheduler "tlk0" with entities [EventEntity, EventEntity], work=40*
  1: 0x0010 [0x00] END_REQSTACK()
```

### Event 65535.2

#### Metadata

| Field        | Value    |
|--------------|----------|
| Entrypoint   | 0x0011   |
| Data Size    | 22 bytes |
| Instructions | 4        |

```
      00 01 02 03 04 05 06 07  08 09 0A 0B 0C 0D 0E 0F
      -- -- -- -- -- -- -- --  -- -- -- -- -- -- -- --
0010:    53 F8 FF FF 7F F8 FF  FF 7F 74 6C 6B 30 5E 69   S........tlk0^i
0020: 64 6C 30 1C 01 80 00                              dl0....         
```

#### Opcodes

```
  0: 0x0011 [0x53] WAIT_SCHEDULER_TASK: Wait for scheduler "tlk0" with entities [EventEntity, EventEntity]
  1: 0x001E [0x5E] EventEntity goes idle (kills current action) (animation: "idl0")
  2: 0x0023 [0x1C] WAIT(30* ticks)
  3: 0x0026 [0x00] END_REQSTACK()
```

### Event 65535.3

#### Metadata

| Field        | Value   |
|--------------|---------|
| Entrypoint   | 0x0027  |
| Data Size    | 9 bytes |
| Instructions | 3       |

```
      00 01 02 03 04 05 06 07  08 09 0A 0B 0C 0D 0E 0F
      -- -- -- -- -- -- -- --  -- -- -- -- -- -- -- --
0020:                      5E  69 64 6C 30 1C 01 80 00         ^idl0....
```

#### Opcodes

```
  0: 0x0027 [0x5E] EventEntity goes idle (kills current action) (animation: "idl0")
  1: 0x002C [0x1C] WAIT(30* ticks)
  2: 0x002F [0x00] END_REQSTACK()
```

### Event 269

#### Metadata

| Field        | Value    |
|--------------|----------|
| Entrypoint   | 0x0030   |
| Data Size    | 33 bytes |
| Instructions | 12       |

```
      00 01 02 03 04 05 06 07  08 09 0A 0B 0C 0D 0E 0F
      -- -- -- -- -- -- -- --  -- -- -- -- -- -- -- --
0030: 1E F0 FF FF 7F 6F 70 29  08 8B E0 0E 01 01 1D 02  .....op)........
0040: 80 23 1D 03 80 23 29 08  8B E0 0E 01 02 20 00 21  .#...#)...... .!
0050: 00                                                .               
```

#### Opcodes

```
  0: 0x0030 [0x1E] EventEntity looks at LocalPlayer and starts talking
  1: 0x0035 [0x6F] WAIT_FRAME_DELAY: Yield until WaitTime reaches zero
  2: 0x0036 [0x70] WAIT_ENTITY_RENDER_FLAG: Wait while EventEntity->Render.Flags3 bit 2 is set (cancel turn if not)
  3: 0x0037 [0x29] REQ_SET_WAIT(priority=0x08, entity_id=Npopo (ID: 17752203/0x010EE08B), tag_num=0x01)
  4: 0x003E [0x1D] PRINT_EVENT_MESSAGE(message_id=7929*)
    → "On the other side of this gate, the wild grasslands of West Sarutabaruta await."
  5: 0x0041 [0x23] WAIT_FOR_DIALOG_INTERACTION
  6: 0x0042 [0x1D] PRINT_EVENT_MESSAGE(message_id=7930*)
    → "Beginners might best start out fighting simple bumblebees. But be careful, for even in the same species of bee, there are strong ones and weak ones. Generally, the further you go away from town the stronger they get."
  7: 0x0045 [0x23] WAIT_FOR_DIALOG_INTERACTION
  8: 0x0046 [0x29] REQ_SET_WAIT(priority=0x08, entity_id=Npopo (ID: 17752203/0x010EE08B), tag_num=0x02)
  9: 0x004D [0x20] SET_CLI_EVENT_UC_FLAG: Unlock player control
 10: 0x004F [0x21] END_EVENT
 11: 0x0050 [0x00] END_REQSTACK()
```

### Event 936

#### Metadata

| Field        | Value    |
|--------------|----------|
| Entrypoint   | 0x0051   |
| Data Size    | 52 bytes |
| Instructions | 12       |

```
      00 01 02 03 04 05 06 07  08 09 0A 0B 0C 0D 0E 0F
      -- -- -- -- -- -- -- --  -- -- -- -- -- -- -- --
0050:    42 48 04 80 1E F0 FF  FF 7F 1C 01 80 1D 05 80   BH.............
0060: 23 66 00 80 F8 FF FF 7F  F8 FF FF 7F 74 6C 6B 30  #f..........tlk0
0070: 1D 06 80 23 66 00 80 F8  FF FF 7F F8 FF FF 7F 74  ...#f..........t
0080: 6C 6B 31 21 00                                    lk1!.           
```

#### Opcodes

```
  0: 0x0051 [0x42] SET_CLI_EVENT_CANCEL_DATA()
  1: 0x0052 [0x48] [System] [12286*]:
    → "<Player>'s badge flashes brightly."
  2: 0x0055 [0x1E] EventEntity looks at LocalPlayer and starts talking
  3: 0x005A [0x1C] WAIT(30* ticks)
  4: 0x005D [0x1D] PRINT_EVENT_MESSAGE(message_id=12287*)
    → "Beyond the Gugru Blue lies an enormous continent, or so they say."
  5: 0x0060 [0x23] WAIT_FOR_DIALOG_INTERACTION
  6: 0x0061 [0x66] LOAD_EXT_SCHEDULER_MAIN: Load scheduler "tlk0" with entities [EventEntity, EventEntity], work=40*
  7: 0x0070 [0x1D] PRINT_EVENT_MESSAGE(message_id=12288*)
    → "I wonder what kind of monsters you can find there... Of course, beginners shouldn't venture far outside of town, no matter what nation they're in!"
  8: 0x0073 [0x23] WAIT_FOR_DIALOG_INTERACTION
  9: 0x0074 [0x66] LOAD_EXT_SCHEDULER_MAIN: Load scheduler "tlk1" with entities [EventEntity, EventEntity], work=40*
 10: 0x0083 [0x21] END_EVENT
 11: 0x0084 [0x00] END_REQSTACK()
```
