# 17752090 - Ropunono

## Common Data

| Field            | Value                     |
|------------------|---------------------------|
| Zone             | Windurst Waters (ID: 238) |
| Block Size       | 1116 bytes                |
| Total Events     | 38                        |
| References Count | 34                        |

## List of Events

| Event ID                   | Entrypoint   |   Size |   Instructions |
|----------------------------|--------------|--------|----------------|
| [65535](#event-65535)      | 0x0000       |      1 |              1 |
| [65535.1](#event-655351)   | 0x0001       |     16 |              2 |
| [65535.2](#event-655352)   | 0x0011       |     22 |              4 |
| [65535.3](#event-655353)   | 0x0027       |     16 |              2 |
| [65535.4](#event-655354)   | 0x0037       |     14 |              2 |
| [65535.5](#event-655355)   | 0x0045       |     16 |              2 |
| [65535.6](#event-655356)   | 0x0055       |     14 |              2 |
| [65535.7](#event-655357)   | 0x0063       |     16 |              2 |
| [65535.8](#event-655358)   | 0x0073       |     14 |              2 |
| [65535.9](#event-655359)   | 0x0081       |     16 |              2 |
| [65535.10](#event-6553510) | 0x0091       |     14 |              2 |
| [65535.11](#event-6553511) | 0x009F       |     16 |              2 |
| [65535.12](#event-6553512) | 0x00AF       |     14 |              2 |
| [65535.13](#event-6553513) | 0x00BD       |      9 |              3 |
| [283](#event-283)          | 0x00C6       |     33 |             12 |
| [284](#event-284)          | 0x00E7       |     59 |             16 |
| [65535.14](#event-6553514) | 0x0122       |     19 |              5 |
| [65535.15](#event-6553515) | 0x0135       |     19 |              5 |
| [65535.16](#event-6553516) | 0x0148       |     19 |              5 |
| [65535.17](#event-6553517) | 0x015B       |     19 |              5 |
| [285](#event-285)          | 0x016E       |     33 |             12 |
| [288](#event-288)          | 0x018F       |     56 |             14 |
| [65535.18](#event-6553518) | 0x01C7       |     23 |              7 |
| [65535.19](#event-6553519) | 0x01DE       |     19 |              5 |
| [65535.20](#event-6553520) | 0x01F1       |     19 |              5 |
| [65535.21](#event-6553521) | 0x0204       |     19 |              5 |
| [65535.22](#event-6553522) | 0x0217       |     19 |              5 |
| [65535.23](#event-6553523) | 0x022A       |     19 |              5 |
| [289](#event-289)          | 0x023D       |     33 |             12 |
| [292](#event-292)          | 0x025E       |     48 |             12 |
| [65535.24](#event-6553524) | 0x028E       |     19 |              5 |
| [65535.25](#event-6553525) | 0x02A1       |     23 |              7 |
| [293](#event-293)          | 0x02B8       |     33 |             12 |
| [296](#event-296)          | 0x02D9       |     35 |             11 |
| [65535.26](#event-6553526) | 0x02FC       |      5 |              3 |
| [65535.27](#event-6553527) | 0x0301       |      5 |              3 |
| [65535.28](#event-6553528) | 0x0306       |      5 |              3 |
| [297](#event-297)          | 0x030B       |     33 |             12 |

## DAT References (imed_data)

|   Index | Hex Value   |   Dec Value |
|---------|-------------|-------------|
|       0 | 0x0028      |          40 |
|       1 | 0x001E      |          30 |
|       2 | 0x002A      |          42 |
|       3 | 0x1F1E      |        7966 |
|       4 | 0x1F1F      |        7967 |
|       5 | 0x0B2A      |        2858 |
|       6 | 0x1F20      |        7968 |
|       7 | 0x1F21      |        7969 |
|       8 | 0x1F22      |        7970 |
|       9 | 0x1F23      |        7971 |
|      10 | 0x1F24      |        7972 |
|      11 | 0x1F25      |        7973 |
|      12 | 0x1F2A      |        7978 |
|      13 | 0x1F2B      |        7979 |
|      14 | 0x1F2C      |        7980 |
|      15 | 0x1F2D      |        7981 |
|      16 | 0x1F2E      |        7982 |
|      17 | 0x1F2F      |        7983 |
|      18 | 0x1F30      |        7984 |
|      19 | 0x1F31      |        7985 |
|      20 | 0x1F32      |        7986 |
|      21 | 0x00C9      |         201 |
|      22 | 0x0000      |           0 |
|      23 | 0x1998      |        6552 |
|      24 | 0x1F37      |        7991 |
|      25 | 0x1F38      |        7992 |
|      26 | 0x1F39      |        7993 |
|      27 | 0x1F3A      |        7994 |
|      28 | 0x1F3B      |        7995 |
|      29 | 0x1F40      |        8000 |
|      30 | 0x1F41      |        8001 |
|      31 | 0x1F42      |        8002 |
|      32 | 0x1F43      |        8003 |
|      33 | 0x1F44      |        8004 |

## String References

- **6552**: Obtained $0 gil.
- **7966**: Windurst is protected by the stars. Here at the Optistery, we record the position of the stars every night for posterity's sake.
- **7967**: They say the Planetarium in Heavens Tower can display all the star formations of every age. I would love to have a look at it, but it'd probably be beyond my understanding.
- **7968**: Things are a total blur lately... I'm having trouble focusing...
- **7969**: For instance, take the constellation of Ifrit that shines in the northwest sky. I can see the bright red star and kind of make out the next brightest star, but that's about it.
- **7970**: This telescope is really old, so perhaps it's the telescope and not me! It must be time to change its stellar mirror.
- **7971**: But it's said the material needed to make stellar mirrors is only dropped by powerful monsters found in the Northlands. Now I'm in a fix...
- **7972**: This telescope is really old, and it's about time to change its stellar mirror.
- **7973**: But it's said the material needed to make stellar mirrors is only dropped by powerful monsters found in the Northlands. Now I'm in a fix! I'll have to reflect on the matter...
- **7978**: Ah! What's this? It can't really be $1, can it!?
- **7979**: My stars! I was needing this to help me make a new stellar mirror for this telescope.
- **7980**: My dear adventurer, would you be willing to help me remake this telescope's stellar mirror?
- **7981**: To observe the stars properly, we first need to accurately inscribe the fundamental star positions onto this $1.
- **7982**: In order to do that, we need $2. These are the ancient shell coins made in the era of the first Star Sibyl.
- **7983**: There's hardly any of the old currency to be found these days, so it'll be a quite a job to find one of the precious coins.
- **7984**: It would help me so much to have one of those old coins. I'd be willing to pay you back greatly, so please do your best to find me one.
- **7985**: If only I had $2, I'd be able to inscribe the correct star positions onto the $1. Otherwise, I won't be able to make heads or tails of it.
- **7986**: I'm willing to pay you quite well, so please do your best to find me one.
- **7991**: Wow! I never thought you'd actually find one of these! What, did you travel back in time to ancient Windurst or something?
- **7992**: Thank you so dearly! Now I can make a new stellar mirror for this telescope.
- **7993**: I'm so in debt to you. Please accept this as a token of my appreciation...
- **7994**: Oh then, Odin's to the north. Right and, Titan's to the south. Shivers, Shiva's to the east. And then, Leviathan's to the west.
- **7995**: The mysterious legendary gods drawn on this coin are said to be the avatars that the first Star Sibyl had encountered.
- **8000**: I never thought you'd actually find one of these! What, did you travel back in time to ancient Windurst or something?
- **8001**: Huh? Hold on a second... This is a fake...! It's funny money!
- **8002**: The positioning of the constellations isn't right on this coin. I guess you'll have to search harder to find a real one.
- **8003**: That reminds me...I once read in an ancient scroll that there were too many forgeries of the old shell coins, so we Tarutaru abandoned them for gil instead.
- **8004**: Please find me a coin with the correct positioning of the constellations on it.

## Events

### Event 65535

#### Metadata

| Field        | Value   |
|--------------|---------|
| Entrypoint   | 0x0000  |
| Data Size    | 1 bytes |
| Instructions | 1       |

```
      00 01 02 03 04 05 06 07  08 09 0A 0B 0C 0D 0E 0F
      -- -- -- -- -- -- -- --  -- -- -- -- -- -- -- --
0000: 00                                                .               
```

#### Opcodes

```
  0: 0x0000 [0x00] END_REQSTACK()
```

### Event 65535.1

#### Metadata

| Field        | Value    |
|--------------|----------|
| Entrypoint   | 0x0001   |
| Data Size    | 16 bytes |
| Instructions | 2        |

```
      00 01 02 03 04 05 06 07  08 09 0A 0B 0C 0D 0E 0F
      -- -- -- -- -- -- -- --  -- -- -- -- -- -- -- --
0000:    66 00 80 F8 FF FF 7F  F8 FF FF 7F 74 6C 6B 30   f..........tlk0
0010: 00                                                .               
```

#### Opcodes

```
  0: 0x0001 [0x66] LOAD_EXT_SCHEDULER_MAIN: Load scheduler "tlk0" with entities [EventEntity, EventEntity], work=40*
  1: 0x0010 [0x00] END_REQSTACK()
```

### Event 65535.2

#### Metadata

| Field        | Value    |
|--------------|----------|
| Entrypoint   | 0x0011   |
| Data Size    | 22 bytes |
| Instructions | 4        |

```
      00 01 02 03 04 05 06 07  08 09 0A 0B 0C 0D 0E 0F
      -- -- -- -- -- -- -- --  -- -- -- -- -- -- -- --
0010:    53 F8 FF FF 7F F8 FF  FF 7F 74 6C 6B 30 5E 69   S........tlk0^i
0020: 64 6C 30 1C 01 80 00                              dl0....         
```

#### Opcodes

```
  0: 0x0011 [0x53] WAIT_SCHEDULER_TASK: Wait for scheduler "tlk0" with entities [EventEntity, EventEntity]
  1: 0x001E [0x5E] EventEntity goes idle (kills current action) (animation: "idl0")
  2: 0x0023 [0x1C] WAIT(30* ticks)
  3: 0x0026 [0x00] END_REQSTACK()
```

### Event 65535.3

#### Metadata

| Field        | Value    |
|--------------|----------|
| Entrypoint   | 0x0027   |
| Data Size    | 16 bytes |
| Instructions | 2        |

```
      00 01 02 03 04 05 06 07  08 09 0A 0B 0C 0D 0E 0F
      -- -- -- -- -- -- -- --  -- -- -- -- -- -- -- --
0020:                      66  00 80 F8 FF FF 7F F8 FF         f........
0030: FF 7F 74 68 6B 31 00                              ..thk1.         
```

#### Opcodes

```
  0: 0x0027 [0x66] LOAD_EXT_SCHEDULER_MAIN: Load scheduler "thk1" with entities [EventEntity, EventEntity], work=40*
  1: 0x0036 [0x00] END_REQSTACK()
```

### Event 65535.4

#### Metadata

| Field        | Value    |
|--------------|----------|
| Entrypoint   | 0x0037   |
| Data Size    | 14 bytes |
| Instructions | 2        |

```
      00 01 02 03 04 05 06 07  08 09 0A 0B 0C 0D 0E 0F
      -- -- -- -- -- -- -- --  -- -- -- -- -- -- -- --
0030:                      53  F8 FF FF 7F F8 FF FF 7F         S........
0040: 74 68 6B 31 00                                    thk1.           
```

#### Opcodes

```
  0: 0x0037 [0x53] WAIT_SCHEDULER_TASK: Wait for scheduler "thk1" with entities [EventEntity, EventEntity]
  1: 0x0044 [0x00] END_REQSTACK()
```

### Event 65535.5

#### Metadata

| Field        | Value    |
|--------------|----------|
| Entrypoint   | 0x0045   |
| Data Size    | 16 bytes |
| Instructions | 2        |

```
      00 01 02 03 04 05 06 07  08 09 0A 0B 0C 0D 0E 0F
      -- -- -- -- -- -- -- --  -- -- -- -- -- -- -- --
0040:                66 00 80  F8 FF FF 7F F8 FF FF 7F       f..........
0050: 74 68 6B 32 00                                    thk2.           
```

#### Opcodes

```
  0: 0x0045 [0x66] LOAD_EXT_SCHEDULER_MAIN: Load scheduler "thk2" with entities [EventEntity, EventEntity], work=40*
  1: 0x0054 [0x00] END_REQSTACK()
```

### Event 65535.6

#### Metadata

| Field        | Value    |
|--------------|----------|
| Entrypoint   | 0x0055   |
| Data Size    | 14 bytes |
| Instructions | 2        |

```
      00 01 02 03 04 05 06 07  08 09 0A 0B 0C 0D 0E 0F
      -- -- -- -- -- -- -- --  -- -- -- -- -- -- -- --
0050:                53 F8 FF  FF 7F F8 FF FF 7F 74 68       S........th
0060: 6B 32 00                                          k2.             
```

#### Opcodes

```
  0: 0x0055 [0x53] WAIT_SCHEDULER_TASK: Wait for scheduler "thk2" with entities [EventEntity, EventEntity]
  1: 0x0062 [0x00] END_REQSTACK()
```

### Event 65535.7

#### Metadata

| Field        | Value    |
|--------------|----------|
| Entrypoint   | 0x0063   |
| Data Size    | 16 bytes |
| Instructions | 2        |

```
      00 01 02 03 04 05 06 07  08 09 0A 0B 0C 0D 0E 0F
      -- -- -- -- -- -- -- --  -- -- -- -- -- -- -- --
0060:          66 00 80 F8 FF  FF 7F F8 FF FF 7F 70 61     f..........pa
0070: 73 30 00                                          s0.             
```

#### Opcodes

```
  0: 0x0063 [0x66] LOAD_EXT_SCHEDULER_MAIN: Load scheduler "pas0" with entities [EventEntity, EventEntity], work=40*
  1: 0x0072 [0x00] END_REQSTACK()
```

### Event 65535.8

#### Metadata

| Field        | Value    |
|--------------|----------|
| Entrypoint   | 0x0073   |
| Data Size    | 14 bytes |
| Instructions | 2        |

```
      00 01 02 03 04 05 06 07  08 09 0A 0B 0C 0D 0E 0F
      -- -- -- -- -- -- -- --  -- -- -- -- -- -- -- --
0070:          53 F8 FF FF 7F  F8 FF FF 7F 70 61 73 30     S........pas0
0080: 00                                                .               
```

#### Opcodes

```
  0: 0x0073 [0x53] WAIT_SCHEDULER_TASK: Wait for scheduler "pas0" with entities [EventEntity, EventEntity]
  1: 0x0080 [0x00] END_REQSTACK()
```

### Event 65535.9

#### Metadata

| Field        | Value    |
|--------------|----------|
| Entrypoint   | 0x0081   |
| Data Size    | 16 bytes |
| Instructions | 2        |

```
      00 01 02 03 04 05 06 07  08 09 0A 0B 0C 0D 0E 0F
      -- -- -- -- -- -- -- --  -- -- -- -- -- -- -- --
0080:    66 00 80 F8 FF FF 7F  F8 FF FF 7F 70 6F 69 30   f..........poi0
0090: 00                                                .               
```

#### Opcodes

```
  0: 0x0081 [0x66] LOAD_EXT_SCHEDULER_MAIN: Load scheduler "poi0" with entities [EventEntity, EventEntity], work=40*
  1: 0x0090 [0x00] END_REQSTACK()
```

### Event 65535.10

#### Metadata

| Field        | Value    |
|--------------|----------|
| Entrypoint   | 0x0091   |
| Data Size    | 14 bytes |
| Instructions | 2        |

```
      00 01 02 03 04 05 06 07  08 09 0A 0B 0C 0D 0E 0F
      -- -- -- -- -- -- -- --  -- -- -- -- -- -- -- --
0090:    53 F8 FF FF 7F F8 FF  FF 7F 70 6F 69 30 00      S........poi0. 
```

#### Opcodes

```
  0: 0x0091 [0x53] WAIT_SCHEDULER_TASK: Wait for scheduler "poi0" with entities [EventEntity, EventEntity]
  1: 0x009E [0x00] END_REQSTACK()
```

### Event 65535.11

#### Metadata

| Field        | Value    |
|--------------|----------|
| Entrypoint   | 0x009F   |
| Data Size    | 16 bytes |
| Instructions | 2        |

```
      00 01 02 03 04 05 06 07  08 09 0A 0B 0C 0D 0E 0F
      -- -- -- -- -- -- -- --  -- -- -- -- -- -- -- --
0090:                                               66                 f
00A0: 02 80 F8 FF FF 7F F8 FF  FF 7F 62 69 6B 30 00     ..........bik0. 
```

#### Opcodes

```
  0: 0x009F [0x66] LOAD_EXT_SCHEDULER_MAIN: Load scheduler "bik0" with entities [EventEntity, EventEntity], work=42*
  1: 0x00AE [0x00] END_REQSTACK()
```

### Event 65535.12

#### Metadata

| Field        | Value    |
|--------------|----------|
| Entrypoint   | 0x00AF   |
| Data Size    | 14 bytes |
| Instructions | 2        |

```
      00 01 02 03 04 05 06 07  08 09 0A 0B 0C 0D 0E 0F
      -- -- -- -- -- -- -- --  -- -- -- -- -- -- -- --
00A0:                                               53                 S
00B0: F8 FF FF 7F F8 FF FF 7F  62 69 6B 30 00           ........bik0.   
```

#### Opcodes

```
  0: 0x00AF [0x53] WAIT_SCHEDULER_TASK: Wait for scheduler "bik0" with entities [EventEntity, EventEntity]
  1: 0x00BC [0x00] END_REQSTACK()
```

### Event 65535.13

#### Metadata

| Field        | Value   |
|--------------|---------|
| Entrypoint   | 0x00BD  |
| Data Size    | 9 bytes |
| Instructions | 3       |

```
      00 01 02 03 04 05 06 07  08 09 0A 0B 0C 0D 0E 0F
      -- -- -- -- -- -- -- --  -- -- -- -- -- -- -- --
00B0:                                         5E 69 64               ^id
00C0: 6C 30 1C 01 80 00                                 l0....          
```

#### Opcodes

```
  0: 0x00BD [0x5E] EventEntity goes idle (kills current action) (animation: "idl0")
  1: 0x00C2 [0x1C] WAIT(30* ticks)
  2: 0x00C5 [0x00] END_REQSTACK()
```

### Event 283

#### Metadata

| Field        | Value    |
|--------------|----------|
| Entrypoint   | 0x00C6   |
| Data Size    | 33 bytes |
| Instructions | 12       |

```
      00 01 02 03 04 05 06 07  08 09 0A 0B 0C 0D 0E 0F
      -- -- -- -- -- -- -- --  -- -- -- -- -- -- -- --
00C0:                   1E F0  FF FF 7F 6F 70 29 08 1A        .....op)..
00D0: E0 0E 01 01 1D 03 80 23  1D 04 80 23 29 08 1A E0  .......#...#)...
00E0: 0E 01 02 20 00 21 00                              ... .!.         
```

#### Opcodes

```
  0: 0x00C6 [0x1E] EventEntity looks at LocalPlayer and starts talking
  1: 0x00CB [0x6F] WAIT_FRAME_DELAY: Yield until WaitTime reaches zero
  2: 0x00CC [0x70] WAIT_ENTITY_RENDER_FLAG: Wait while EventEntity->Render.Flags3 bit 2 is set (cancel turn if not)
  3: 0x00CD [0x29] REQ_SET_WAIT(priority=0x08, entity_id=Ropunono (ID: 17752090/0x010EE01A), tag_num=0x01)
  4: 0x00D4 [0x1D] PRINT_EVENT_MESSAGE(message_id=7966*)
    → "Windurst is protected by the stars. Here at the Optistery, we record the position of the stars every night for posterity's sake."
  5: 0x00D7 [0x23] WAIT_FOR_DIALOG_INTERACTION
  6: 0x00D8 [0x1D] PRINT_EVENT_MESSAGE(message_id=7967*)
    → "They say the Planetarium in Heavens Tower can display all the star formations of every age. I would love to have a look at it, but it'd probably be beyond my understanding."
  7: 0x00DB [0x23] WAIT_FOR_DIALOG_INTERACTION
  8: 0x00DC [0x29] REQ_SET_WAIT(priority=0x08, entity_id=Ropunono (ID: 17752090/0x010EE01A), tag_num=0x02)
  9: 0x00E3 [0x20] SET_CLI_EVENT_UC_FLAG: Unlock player control
 10: 0x00E5 [0x21] END_EVENT
 11: 0x00E6 [0x00] END_REQSTACK()
```

### Event 284

#### Metadata

| Field        | Value    |
|--------------|----------|
| Entrypoint   | 0x00E7   |
| Data Size    | 59 bytes |
| Instructions | 16       |

```
      00 01 02 03 04 05 06 07  08 09 0A 0B 0C 0D 0E 0F
      -- -- -- -- -- -- -- --  -- -- -- -- -- -- -- --
00E0:                      1E  F0 FF FF 7F 6F 70 29 0B         .....op).
00F0: 1A E0 0E 01 10 4B 1A E0  0E 01 05 80 6F 76 1A E0  .....K......ov..
0100: 0E 01 29 0B 1A E0 0E 01  11 1E F0 FF FF 7F 6F 70  ..)...........op
0110: 29 0B 1A E0 0E 01 12 29  0B 1A E0 0E 01 13 20 00  )......)...... .
0120: 21 00                                             !.              
```

#### Opcodes

```
  0: 0x00E7 [0x1E] EventEntity looks at LocalPlayer and starts talking
  1: 0x00EC [0x6F] WAIT_FRAME_DELAY: Yield until WaitTime reaches zero
  2: 0x00ED [0x70] WAIT_ENTITY_RENDER_FLAG: Wait while EventEntity->Render.Flags3 bit 2 is set (cancel turn if not)
  3: 0x00EE [0x29] REQ_SET_WAIT(priority=0x0B, entity_id=Ropunono (ID: 17752090/0x010EE01A), tag_num=0x10)
  4: 0x00F5 [0x4B] UPDATE_ENTITY_YAW(entity=Ropunono (ID: 17752090/0x010EE01A), yaw=15.7°*)
  5: 0x00FC [0x6F] WAIT_FRAME_DELAY: Yield until WaitTime reaches zero
  6: 0x00FD [0x76] CHECK_ENTITY_RENDER_FLAGS: Wait until Ropunono (ID: 17752090/0x010EE01A) Render.Flags0 and Render.Flags3 conditions are met
  7: 0x0102 [0x29] REQ_SET_WAIT(priority=0x0B, entity_id=Ropunono (ID: 17752090/0x010EE01A), tag_num=0x11)
  8: 0x0109 [0x1E] EventEntity looks at LocalPlayer and starts talking
  9: 0x010E [0x6F] WAIT_FRAME_DELAY: Yield until WaitTime reaches zero
 10: 0x010F [0x70] WAIT_ENTITY_RENDER_FLAG: Wait while EventEntity->Render.Flags3 bit 2 is set (cancel turn if not)
 11: 0x0110 [0x29] REQ_SET_WAIT(priority=0x0B, entity_id=Ropunono (ID: 17752090/0x010EE01A), tag_num=0x12)
 12: 0x0117 [0x29] REQ_SET_WAIT(priority=0x0B, entity_id=Ropunono (ID: 17752090/0x010EE01A), tag_num=0x13)
 13: 0x011E [0x20] SET_CLI_EVENT_UC_FLAG: Unlock player control
 14: 0x0120 [0x21] END_EVENT
 15: 0x0121 [0x00] END_REQSTACK()
```

### Event 65535.14

#### Metadata

| Field        | Value    |
|--------------|----------|
| Entrypoint   | 0x0122   |
| Data Size    | 19 bytes |
| Instructions | 5        |

```
      00 01 02 03 04 05 06 07  08 09 0A 0B 0C 0D 0E 0F
      -- -- -- -- -- -- -- --  -- -- -- -- -- -- -- --
0120:       29 08 1A E0 0E 01  01 1D 06 80 23 29 08 1A    ).........#)..
0130: E0 0E 01 02 00                                    .....           
```

#### Opcodes

```
  0: 0x0122 [0x29] REQ_SET_WAIT(priority=0x08, entity_id=Ropunono (ID: 17752090/0x010EE01A), tag_num=0x01)
  1: 0x0129 [0x1D] PRINT_EVENT_MESSAGE(message_id=7968*)
    → "Things are a total blur lately... I'm having trouble focusing..."
  2: 0x012C [0x23] WAIT_FOR_DIALOG_INTERACTION
  3: 0x012D [0x29] REQ_SET_WAIT(priority=0x08, entity_id=Ropunono (ID: 17752090/0x010EE01A), tag_num=0x02)
  4: 0x0134 [0x00] END_REQSTACK()
```

### Event 65535.15

#### Metadata

| Field        | Value    |
|--------------|----------|
| Entrypoint   | 0x0135   |
| Data Size    | 19 bytes |
| Instructions | 5        |

```
      00 01 02 03 04 05 06 07  08 09 0A 0B 0C 0D 0E 0F
      -- -- -- -- -- -- -- --  -- -- -- -- -- -- -- --
0130:                29 08 1A  E0 0E 01 09 1D 07 80 23       ).........#
0140: 29 08 1A E0 0E 01 0A 00                           ).......        
```

#### Opcodes

```
  0: 0x0135 [0x29] REQ_SET_WAIT(priority=0x08, entity_id=Ropunono (ID: 17752090/0x010EE01A), tag_num=0x09)
  1: 0x013C [0x1D] PRINT_EVENT_MESSAGE(message_id=7969*)
    → "For instance, take the constellation of Ifrit that shines in the northwest sky. I can see the bright red star and kind of make out the next brightest star, but that's about it."
  2: 0x013F [0x23] WAIT_FOR_DIALOG_INTERACTION
  3: 0x0140 [0x29] REQ_SET_WAIT(priority=0x08, entity_id=Ropunono (ID: 17752090/0x010EE01A), tag_num=0x0A)
  4: 0x0147 [0x00] END_REQSTACK()
```

### Event 65535.16

#### Metadata

| Field        | Value    |
|--------------|----------|
| Entrypoint   | 0x0148   |
| Data Size    | 19 bytes |
| Instructions | 5        |

```
      00 01 02 03 04 05 06 07  08 09 0A 0B 0C 0D 0E 0F
      -- -- -- -- -- -- -- --  -- -- -- -- -- -- -- --
0140:                          29 08 1A E0 0E 01 03 1D          ).......
0150: 08 80 23 29 08 1A E0 0E  01 04 00                 ..#).......     
```

#### Opcodes

```
  0: 0x0148 [0x29] REQ_SET_WAIT(priority=0x08, entity_id=Ropunono (ID: 17752090/0x010EE01A), tag_num=0x03)
  1: 0x014F [0x1D] PRINT_EVENT_MESSAGE(message_id=7970*)
    → "This telescope is really old, so perhaps it's the telescope and not me! It must be time to change its stellar mirror."
  2: 0x0152 [0x23] WAIT_FOR_DIALOG_INTERACTION
  3: 0x0153 [0x29] REQ_SET_WAIT(priority=0x08, entity_id=Ropunono (ID: 17752090/0x010EE01A), tag_num=0x04)
  4: 0x015A [0x00] END_REQSTACK()
```

### Event 65535.17

#### Metadata

| Field        | Value    |
|--------------|----------|
| Entrypoint   | 0x015B   |
| Data Size    | 19 bytes |
| Instructions | 5        |

```
      00 01 02 03 04 05 06 07  08 09 0A 0B 0C 0D 0E 0F
      -- -- -- -- -- -- -- --  -- -- -- -- -- -- -- --
0150:                                   29 08 1A E0 0E             )....
0160: 01 05 1D 09 80 23 29 08  1A E0 0E 01 06 00        .....#).......  
```

#### Opcodes

```
  0: 0x015B [0x29] REQ_SET_WAIT(priority=0x08, entity_id=Ropunono (ID: 17752090/0x010EE01A), tag_num=0x05)
  1: 0x0162 [0x1D] PRINT_EVENT_MESSAGE(message_id=7971*)
    → "But it's said the material needed to make stellar mirrors is only dropped by powerful monsters found in the Northlands. Now I'm in a fix..."
  2: 0x0165 [0x23] WAIT_FOR_DIALOG_INTERACTION
  3: 0x0166 [0x29] REQ_SET_WAIT(priority=0x08, entity_id=Ropunono (ID: 17752090/0x010EE01A), tag_num=0x06)
  4: 0x016D [0x00] END_REQSTACK()
```

### Event 285

#### Metadata

| Field        | Value    |
|--------------|----------|
| Entrypoint   | 0x016E   |
| Data Size    | 33 bytes |
| Instructions | 12       |

```
      00 01 02 03 04 05 06 07  08 09 0A 0B 0C 0D 0E 0F
      -- -- -- -- -- -- -- --  -- -- -- -- -- -- -- --
0160:                                            1E F0                ..
0170: FF FF 7F 6F 70 29 08 1A  E0 0E 01 01 1D 0A 80 23  ...op).........#
0180: 1D 0B 80 23 29 08 1A E0  0E 01 02 20 00 21 00     ...#)...... .!. 
```

#### Opcodes

```
  0: 0x016E [0x1E] EventEntity looks at LocalPlayer and starts talking
  1: 0x0173 [0x6F] WAIT_FRAME_DELAY: Yield until WaitTime reaches zero
  2: 0x0174 [0x70] WAIT_ENTITY_RENDER_FLAG: Wait while EventEntity->Render.Flags3 bit 2 is set (cancel turn if not)
  3: 0x0175 [0x29] REQ_SET_WAIT(priority=0x08, entity_id=Ropunono (ID: 17752090/0x010EE01A), tag_num=0x01)
  4: 0x017C [0x1D] PRINT_EVENT_MESSAGE(message_id=7972*)
    → "This telescope is really old, and it's about time to change its stellar mirror."
  5: 0x017F [0x23] WAIT_FOR_DIALOG_INTERACTION
  6: 0x0180 [0x1D] PRINT_EVENT_MESSAGE(message_id=7973*)
    → "But it's said the material needed to make stellar mirrors is only dropped by powerful monsters found in the Northlands. Now I'm in a fix! I'll have to reflect on the matter..."
  7: 0x0183 [0x23] WAIT_FOR_DIALOG_INTERACTION
  8: 0x0184 [0x29] REQ_SET_WAIT(priority=0x08, entity_id=Ropunono (ID: 17752090/0x010EE01A), tag_num=0x02)
  9: 0x018B [0x20] SET_CLI_EVENT_UC_FLAG: Unlock player control
 10: 0x018D [0x21] END_EVENT
 11: 0x018E [0x00] END_REQSTACK()
```

### Event 288

#### Metadata

| Field        | Value    |
|--------------|----------|
| Entrypoint   | 0x018F   |
| Data Size    | 56 bytes |
| Instructions | 14       |

```
      00 01 02 03 04 05 06 07  08 09 0A 0B 0C 0D 0E 0F
      -- -- -- -- -- -- -- --  -- -- -- -- -- -- -- --
0180:                                               20                  
0190: 01 42 1E F0 FF FF 7F 6F  70 29 0B 1A E0 0E 01 16  .B.....op)......
01A0: 29 0B 1A E0 0E 01 17 29  0B 1A E0 0E 01 18 29 0B  )......)......).
01B0: 1A E0 0E 01 19 29 0B 1A  E0 0E 01 1A 29 0B 1A E0  .....)......)...
01C0: 0E 01 1B 20 00 21 00                              ... .!.         
```

#### Opcodes

```
  0: 0x018F [0x20] SET_CLI_EVENT_UC_FLAG: Lock player control
  1: 0x0191 [0x42] SET_CLI_EVENT_CANCEL_DATA()
  2: 0x0192 [0x1E] EventEntity looks at LocalPlayer and starts talking
  3: 0x0197 [0x6F] WAIT_FRAME_DELAY: Yield until WaitTime reaches zero
  4: 0x0198 [0x70] WAIT_ENTITY_RENDER_FLAG: Wait while EventEntity->Render.Flags3 bit 2 is set (cancel turn if not)
  5: 0x0199 [0x29] REQ_SET_WAIT(priority=0x0B, entity_id=Ropunono (ID: 17752090/0x010EE01A), tag_num=0x16)
  6: 0x01A0 [0x29] REQ_SET_WAIT(priority=0x0B, entity_id=Ropunono (ID: 17752090/0x010EE01A), tag_num=0x17)
  7: 0x01A7 [0x29] REQ_SET_WAIT(priority=0x0B, entity_id=Ropunono (ID: 17752090/0x010EE01A), tag_num=0x18)
  8: 0x01AE [0x29] REQ_SET_WAIT(priority=0x0B, entity_id=Ropunono (ID: 17752090/0x010EE01A), tag_num=0x19)
  9: 0x01B5 [0x29] REQ_SET_WAIT(priority=0x0B, entity_id=Ropunono (ID: 17752090/0x010EE01A), tag_num=0x1A)
 10: 0x01BC [0x29] REQ_SET_WAIT(priority=0x0B, entity_id=Ropunono (ID: 17752090/0x010EE01A), tag_num=0x1B)
 11: 0x01C3 [0x20] SET_CLI_EVENT_UC_FLAG: Unlock player control
 12: 0x01C5 [0x21] END_EVENT
 13: 0x01C6 [0x00] END_REQSTACK()
```

### Event 65535.18

#### Metadata

| Field        | Value    |
|--------------|----------|
| Entrypoint   | 0x01C7   |
| Data Size    | 23 bytes |
| Instructions | 7        |

```
      00 01 02 03 04 05 06 07  08 09 0A 0B 0C 0D 0E 0F
      -- -- -- -- -- -- -- --  -- -- -- -- -- -- -- --
01C0:                      29  08 1A E0 0E 01 0B 1D 0C         )........
01D0: 80 23 29 08 1A E0 0E 01  0C 1D 0D 80 23 00        .#).........#.  
```

#### Opcodes

```
  0: 0x01C7 [0x29] REQ_SET_WAIT(priority=0x08, entity_id=Ropunono (ID: 17752090/0x010EE01A), tag_num=0x0B)
  1: 0x01CE [0x1D] PRINT_EVENT_MESSAGE(message_id=7978*)
    → "Ah! What's this? It can't really be $1, can it!?"
  2: 0x01D1 [0x23] WAIT_FOR_DIALOG_INTERACTION
  3: 0x01D2 [0x29] REQ_SET_WAIT(priority=0x08, entity_id=Ropunono (ID: 17752090/0x010EE01A), tag_num=0x0C)
  4: 0x01D9 [0x1D] PRINT_EVENT_MESSAGE(message_id=7979*)
    → "My stars! I was needing this to help me make a new stellar mirror for this telescope."
  5: 0x01DC [0x23] WAIT_FOR_DIALOG_INTERACTION
  6: 0x01DD [0x00] END_REQSTACK()
```

### Event 65535.19

#### Metadata

| Field        | Value    |
|--------------|----------|
| Entrypoint   | 0x01DE   |
| Data Size    | 19 bytes |
| Instructions | 5        |

```
      00 01 02 03 04 05 06 07  08 09 0A 0B 0C 0D 0E 0F
      -- -- -- -- -- -- -- --  -- -- -- -- -- -- -- --
01D0:                                            29 08                ).
01E0: 1A E0 0E 01 09 1D 0E 80  23 29 08 1A E0 0E 01 0A  ........#)......
01F0: 00                                                .               
```

#### Opcodes

```
  0: 0x01DE [0x29] REQ_SET_WAIT(priority=0x08, entity_id=Ropunono (ID: 17752090/0x010EE01A), tag_num=0x09)
  1: 0x01E5 [0x1D] PRINT_EVENT_MESSAGE(message_id=7980*)
    → "My dear adventurer, would you be willing to help me remake this telescope's stellar mirror?"
  2: 0x01E8 [0x23] WAIT_FOR_DIALOG_INTERACTION
  3: 0x01E9 [0x29] REQ_SET_WAIT(priority=0x08, entity_id=Ropunono (ID: 17752090/0x010EE01A), tag_num=0x0A)
  4: 0x01F0 [0x00] END_REQSTACK()
```

### Event 65535.20

#### Metadata

| Field        | Value    |
|--------------|----------|
| Entrypoint   | 0x01F1   |
| Data Size    | 19 bytes |
| Instructions | 5        |

```
      00 01 02 03 04 05 06 07  08 09 0A 0B 0C 0D 0E 0F
      -- -- -- -- -- -- -- --  -- -- -- -- -- -- -- --
01F0:    29 08 1A E0 0E 01 01  1D 0F 80 23 29 08 1A E0   ).........#)...
0200: 0E 01 02 00                                       ....            
```

#### Opcodes

```
  0: 0x01F1 [0x29] REQ_SET_WAIT(priority=0x08, entity_id=Ropunono (ID: 17752090/0x010EE01A), tag_num=0x01)
  1: 0x01F8 [0x1D] PRINT_EVENT_MESSAGE(message_id=7981*)
    → "To observe the stars properly, we first need to accurately inscribe the fundamental star positions onto this $1."
  2: 0x01FB [0x23] WAIT_FOR_DIALOG_INTERACTION
  3: 0x01FC [0x29] REQ_SET_WAIT(priority=0x08, entity_id=Ropunono (ID: 17752090/0x010EE01A), tag_num=0x02)
  4: 0x0203 [0x00] END_REQSTACK()
```

### Event 65535.21

#### Metadata

| Field        | Value    |
|--------------|----------|
| Entrypoint   | 0x0204   |
| Data Size    | 19 bytes |
| Instructions | 5        |

```
      00 01 02 03 04 05 06 07  08 09 0A 0B 0C 0D 0E 0F
      -- -- -- -- -- -- -- --  -- -- -- -- -- -- -- --
0200:             29 08 1A E0  0E 01 01 1D 10 80 23 29      ).........#)
0210: 08 1A E0 0E 01 02 00                              .......         
```

#### Opcodes

```
  0: 0x0204 [0x29] REQ_SET_WAIT(priority=0x08, entity_id=Ropunono (ID: 17752090/0x010EE01A), tag_num=0x01)
  1: 0x020B [0x1D] PRINT_EVENT_MESSAGE(message_id=7982*)
    → "In order to do that, we need $2. These are the ancient shell coins made in the era of the first Star Sibyl."
  2: 0x020E [0x23] WAIT_FOR_DIALOG_INTERACTION
  3: 0x020F [0x29] REQ_SET_WAIT(priority=0x08, entity_id=Ropunono (ID: 17752090/0x010EE01A), tag_num=0x02)
  4: 0x0216 [0x00] END_REQSTACK()
```

### Event 65535.22

#### Metadata

| Field        | Value    |
|--------------|----------|
| Entrypoint   | 0x0217   |
| Data Size    | 19 bytes |
| Instructions | 5        |

```
      00 01 02 03 04 05 06 07  08 09 0A 0B 0C 0D 0E 0F
      -- -- -- -- -- -- -- --  -- -- -- -- -- -- -- --
0210:                      29  08 1A E0 0E 01 03 1D 11         )........
0220: 80 23 29 08 1A E0 0E 01  04 00                    .#).......      
```

#### Opcodes

```
  0: 0x0217 [0x29] REQ_SET_WAIT(priority=0x08, entity_id=Ropunono (ID: 17752090/0x010EE01A), tag_num=0x03)
  1: 0x021E [0x1D] PRINT_EVENT_MESSAGE(message_id=7983*)
    → "There's hardly any of the old currency to be found these days, so it'll be a quite a job to find one of the precious coins."
  2: 0x0221 [0x23] WAIT_FOR_DIALOG_INTERACTION
  3: 0x0222 [0x29] REQ_SET_WAIT(priority=0x08, entity_id=Ropunono (ID: 17752090/0x010EE01A), tag_num=0x04)
  4: 0x0229 [0x00] END_REQSTACK()
```

### Event 65535.23

#### Metadata

| Field        | Value    |
|--------------|----------|
| Entrypoint   | 0x022A   |
| Data Size    | 19 bytes |
| Instructions | 5        |

```
      00 01 02 03 04 05 06 07  08 09 0A 0B 0C 0D 0E 0F
      -- -- -- -- -- -- -- --  -- -- -- -- -- -- -- --
0220:                                29 08 1A E0 0E 01            ).....
0230: 05 1D 12 80 23 29 08 1A  E0 0E 01 06 00           ....#).......   
```

#### Opcodes

```
  0: 0x022A [0x29] REQ_SET_WAIT(priority=0x08, entity_id=Ropunono (ID: 17752090/0x010EE01A), tag_num=0x05)
  1: 0x0231 [0x1D] PRINT_EVENT_MESSAGE(message_id=7984*)
    → "It would help me so much to have one of those old coins. I'd be willing to pay you back greatly, so please do your best to find me one."
  2: 0x0234 [0x23] WAIT_FOR_DIALOG_INTERACTION
  3: 0x0235 [0x29] REQ_SET_WAIT(priority=0x08, entity_id=Ropunono (ID: 17752090/0x010EE01A), tag_num=0x06)
  4: 0x023C [0x00] END_REQSTACK()
```

### Event 289

#### Metadata

| Field        | Value    |
|--------------|----------|
| Entrypoint   | 0x023D   |
| Data Size    | 33 bytes |
| Instructions | 12       |

```
      00 01 02 03 04 05 06 07  08 09 0A 0B 0C 0D 0E 0F
      -- -- -- -- -- -- -- --  -- -- -- -- -- -- -- --
0230:                                         1E F0 FF               ...
0240: FF 7F 6F 70 29 08 1A E0  0E 01 01 1D 13 80 23 1D  ..op).........#.
0250: 14 80 23 29 08 1A E0 0E  01 02 20 00 21 00        ..#)...... .!.  
```

#### Opcodes

```
  0: 0x023D [0x1E] EventEntity looks at LocalPlayer and starts talking
  1: 0x0242 [0x6F] WAIT_FRAME_DELAY: Yield until WaitTime reaches zero
  2: 0x0243 [0x70] WAIT_ENTITY_RENDER_FLAG: Wait while EventEntity->Render.Flags3 bit 2 is set (cancel turn if not)
  3: 0x0244 [0x29] REQ_SET_WAIT(priority=0x08, entity_id=Ropunono (ID: 17752090/0x010EE01A), tag_num=0x01)
  4: 0x024B [0x1D] PRINT_EVENT_MESSAGE(message_id=7985*)
    → "If only I had $2, I'd be able to inscribe the correct star positions onto the $1. Otherwise, I won't be able to make heads or tails of it."
  5: 0x024E [0x23] WAIT_FOR_DIALOG_INTERACTION
  6: 0x024F [0x1D] PRINT_EVENT_MESSAGE(message_id=7986*)
    → "I'm willing to pay you quite well, so please do your best to find me one."
  7: 0x0252 [0x23] WAIT_FOR_DIALOG_INTERACTION
  8: 0x0253 [0x29] REQ_SET_WAIT(priority=0x08, entity_id=Ropunono (ID: 17752090/0x010EE01A), tag_num=0x02)
  9: 0x025A [0x20] SET_CLI_EVENT_UC_FLAG: Unlock player control
 10: 0x025C [0x21] END_EVENT
 11: 0x025D [0x00] END_REQSTACK()
```

### Event 292

#### Metadata

| Field        | Value    |
|--------------|----------|
| Entrypoint   | 0x025E   |
| Data Size    | 48 bytes |
| Instructions | 12       |

```
      00 01 02 03 04 05 06 07  08 09 0A 0B 0C 0D 0E 0F
      -- -- -- -- -- -- -- --  -- -- -- -- -- -- -- --
0250:                                            20 01                 .
0260: 42 1E F0 FF FF 7F 6F 70  29 0B 1A E0 0E 01 1E 29  B.....op)......)
0270: 0B 1A E0 0E 01 1F 45 15  80 F0 FF FF 7F F0 FF FF  ......E.........
0280: 7F 71 73 74 63 16 80 48  17 80 20 00 21 00        .qstc..H.. .!.  
```

#### Opcodes

```
  0: 0x025E [0x20] SET_CLI_EVENT_UC_FLAG: Lock player control
  1: 0x0260 [0x42] SET_CLI_EVENT_CANCEL_DATA()
  2: 0x0261 [0x1E] EventEntity looks at LocalPlayer and starts talking
  3: 0x0266 [0x6F] WAIT_FRAME_DELAY: Yield until WaitTime reaches zero
  4: 0x0267 [0x70] WAIT_ENTITY_RENDER_FLAG: Wait while EventEntity->Render.Flags3 bit 2 is set (cancel turn if not)
  5: 0x0268 [0x29] REQ_SET_WAIT(priority=0x0B, entity_id=Ropunono (ID: 17752090/0x010EE01A), tag_num=0x1E)
  6: 0x026F [0x29] REQ_SET_WAIT(priority=0x0B, entity_id=Ropunono (ID: 17752090/0x010EE01A), tag_num=0x1F)
  7: 0x0276 [0x45] LOAD_SCHEDULED_TASK: Load scheduler "qstc" with entities [LocalPlayer, LocalPlayer], work=[201*, 0*]
  8: 0x0287 [0x48] [System] [6552*]:
    → "Obtained $0 gil."
  9: 0x028A [0x20] SET_CLI_EVENT_UC_FLAG: Unlock player control
 10: 0x028C [0x21] END_EVENT
 11: 0x028D [0x00] END_REQSTACK()
```

### Event 65535.24

#### Metadata

| Field        | Value    |
|--------------|----------|
| Entrypoint   | 0x028E   |
| Data Size    | 19 bytes |
| Instructions | 5        |

```
      00 01 02 03 04 05 06 07  08 09 0A 0B 0C 0D 0E 0F
      -- -- -- -- -- -- -- --  -- -- -- -- -- -- -- --
0280:                                            29 08                ).
0290: 1A E0 0E 01 0B 1D 18 80  23 29 08 1A E0 0E 01 0C  ........#)......
02A0: 00                                                .               
```

#### Opcodes

```
  0: 0x028E [0x29] REQ_SET_WAIT(priority=0x08, entity_id=Ropunono (ID: 17752090/0x010EE01A), tag_num=0x0B)
  1: 0x0295 [0x1D] PRINT_EVENT_MESSAGE(message_id=7991*)
    → "Wow! I never thought you'd actually find one of these! What, did you travel back in time to ancient Windurst or something?"
  2: 0x0298 [0x23] WAIT_FOR_DIALOG_INTERACTION
  3: 0x0299 [0x29] REQ_SET_WAIT(priority=0x08, entity_id=Ropunono (ID: 17752090/0x010EE01A), tag_num=0x0C)
  4: 0x02A0 [0x00] END_REQSTACK()
```

### Event 65535.25

#### Metadata

| Field        | Value    |
|--------------|----------|
| Entrypoint   | 0x02A1   |
| Data Size    | 23 bytes |
| Instructions | 7        |

```
      00 01 02 03 04 05 06 07  08 09 0A 0B 0C 0D 0E 0F
      -- -- -- -- -- -- -- --  -- -- -- -- -- -- -- --
02A0:    29 08 1A E0 0E 01 01  1D 19 80 23 1D 1A 80 23   ).........#...#
02B0: 29 08 1A E0 0E 01 02 00                           ).......        
```

#### Opcodes

```
  0: 0x02A1 [0x29] REQ_SET_WAIT(priority=0x08, entity_id=Ropunono (ID: 17752090/0x010EE01A), tag_num=0x01)
  1: 0x02A8 [0x1D] PRINT_EVENT_MESSAGE(message_id=7992*)
    → "Thank you so dearly! Now I can make a new stellar mirror for this telescope."
  2: 0x02AB [0x23] WAIT_FOR_DIALOG_INTERACTION
  3: 0x02AC [0x1D] PRINT_EVENT_MESSAGE(message_id=7993*)
    → "I'm so in debt to you. Please accept this as a token of my appreciation..."
  4: 0x02AF [0x23] WAIT_FOR_DIALOG_INTERACTION
  5: 0x02B0 [0x29] REQ_SET_WAIT(priority=0x08, entity_id=Ropunono (ID: 17752090/0x010EE01A), tag_num=0x02)
  6: 0x02B7 [0x00] END_REQSTACK()
```

### Event 293

#### Metadata

| Field        | Value    |
|--------------|----------|
| Entrypoint   | 0x02B8   |
| Data Size    | 33 bytes |
| Instructions | 12       |

```
      00 01 02 03 04 05 06 07  08 09 0A 0B 0C 0D 0E 0F
      -- -- -- -- -- -- -- --  -- -- -- -- -- -- -- --
02B0:                          1E F0 FF FF 7F 6F 70 29          .....op)
02C0: 08 1A E0 0E 01 01 1D 1B  80 23 1D 1C 80 23 29 08  .........#...#).
02D0: 1A E0 0E 01 02 20 00 21  00                       ..... .!.       
```

#### Opcodes

```
  0: 0x02B8 [0x1E] EventEntity looks at LocalPlayer and starts talking
  1: 0x02BD [0x6F] WAIT_FRAME_DELAY: Yield until WaitTime reaches zero
  2: 0x02BE [0x70] WAIT_ENTITY_RENDER_FLAG: Wait while EventEntity->Render.Flags3 bit 2 is set (cancel turn if not)
  3: 0x02BF [0x29] REQ_SET_WAIT(priority=0x08, entity_id=Ropunono (ID: 17752090/0x010EE01A), tag_num=0x01)
  4: 0x02C6 [0x1D] PRINT_EVENT_MESSAGE(message_id=7994*)
    → "Oh then, Odin's to the north. Right and, Titan's to the south. Shivers, Shiva's to the east. And then, Leviathan's to the west."
  5: 0x02C9 [0x23] WAIT_FOR_DIALOG_INTERACTION
  6: 0x02CA [0x1D] PRINT_EVENT_MESSAGE(message_id=7995*)
    → "The mysterious legendary gods drawn on this coin are said to be the avatars that the first Star Sibyl had encountered."
  7: 0x02CD [0x23] WAIT_FOR_DIALOG_INTERACTION
  8: 0x02CE [0x29] REQ_SET_WAIT(priority=0x08, entity_id=Ropunono (ID: 17752090/0x010EE01A), tag_num=0x02)
  9: 0x02D5 [0x20] SET_CLI_EVENT_UC_FLAG: Unlock player control
 10: 0x02D7 [0x21] END_EVENT
 11: 0x02D8 [0x00] END_REQSTACK()
```

### Event 296

#### Metadata

| Field        | Value    |
|--------------|----------|
| Entrypoint   | 0x02D9   |
| Data Size    | 35 bytes |
| Instructions | 11       |

```
      00 01 02 03 04 05 06 07  08 09 0A 0B 0C 0D 0E 0F
      -- -- -- -- -- -- -- --  -- -- -- -- -- -- -- --
02D0:                             20 01 42 1E F0 FF FF            .B....
02E0: 7F 6F 70 29 0B 1A E0 0E  01 22 29 0B 1A E0 0E 01  .op).....").....
02F0: 23 29 0B 1A E0 0E 01 24  20 00 21 00              #).....$ .!.    
```

#### Opcodes

```
  0: 0x02D9 [0x20] SET_CLI_EVENT_UC_FLAG: Lock player control
  1: 0x02DB [0x42] SET_CLI_EVENT_CANCEL_DATA()
  2: 0x02DC [0x1E] EventEntity looks at LocalPlayer and starts talking
  3: 0x02E1 [0x6F] WAIT_FRAME_DELAY: Yield until WaitTime reaches zero
  4: 0x02E2 [0x70] WAIT_ENTITY_RENDER_FLAG: Wait while EventEntity->Render.Flags3 bit 2 is set (cancel turn if not)
  5: 0x02E3 [0x29] REQ_SET_WAIT(priority=0x0B, entity_id=Ropunono (ID: 17752090/0x010EE01A), tag_num=0x22)
  6: 0x02EA [0x29] REQ_SET_WAIT(priority=0x0B, entity_id=Ropunono (ID: 17752090/0x010EE01A), tag_num=0x23)
  7: 0x02F1 [0x29] REQ_SET_WAIT(priority=0x0B, entity_id=Ropunono (ID: 17752090/0x010EE01A), tag_num=0x24)
  8: 0x02F8 [0x20] SET_CLI_EVENT_UC_FLAG: Unlock player control
  9: 0x02FA [0x21] END_EVENT
 10: 0x02FB [0x00] END_REQSTACK()
```

### Event 65535.26

#### Metadata

| Field        | Value   |
|--------------|---------|
| Entrypoint   | 0x02FC  |
| Data Size    | 5 bytes |
| Instructions | 3       |

```
      00 01 02 03 04 05 06 07  08 09 0A 0B 0C 0D 0E 0F
      -- -- -- -- -- -- -- --  -- -- -- -- -- -- -- --
02F0:                                      1D 1D 80 23              ...#
0300: 00                                                .               
```

#### Opcodes

```
  0: 0x02FC [0x1D] PRINT_EVENT_MESSAGE(message_id=8000*)
    → "I never thought you'd actually find one of these! What, did you travel back in time to ancient Windurst or something?"
  1: 0x02FF [0x23] WAIT_FOR_DIALOG_INTERACTION
  2: 0x0300 [0x00] END_REQSTACK()
```

### Event 65535.27

#### Metadata

| Field        | Value   |
|--------------|---------|
| Entrypoint   | 0x0301  |
| Data Size    | 5 bytes |
| Instructions | 3       |

```
      00 01 02 03 04 05 06 07  08 09 0A 0B 0C 0D 0E 0F
      -- -- -- -- -- -- -- --  -- -- -- -- -- -- -- --
0300:    1D 1E 80 23 00                                  ...#.          
```

#### Opcodes

```
  0: 0x0301 [0x1D] PRINT_EVENT_MESSAGE(message_id=8001*)
    → "Huh? Hold on a second... This is a fake...! It's funny money!"
  1: 0x0304 [0x23] WAIT_FOR_DIALOG_INTERACTION
  2: 0x0305 [0x00] END_REQSTACK()
```

### Event 65535.28

#### Metadata

| Field        | Value   |
|--------------|---------|
| Entrypoint   | 0x0306  |
| Data Size    | 5 bytes |
| Instructions | 3       |

```
      00 01 02 03 04 05 06 07  08 09 0A 0B 0C 0D 0E 0F
      -- -- -- -- -- -- -- --  -- -- -- -- -- -- -- --
0300:                   1D 1F  80 23 00                       ...#.     
```

#### Opcodes

```
  0: 0x0306 [0x1D] PRINT_EVENT_MESSAGE(message_id=8002*)
    → "The positioning of the constellations isn't right on this coin. I guess you'll have to search harder to find a real one."
  1: 0x0309 [0x23] WAIT_FOR_DIALOG_INTERACTION
  2: 0x030A [0x00] END_REQSTACK()
```

### Event 297

#### Metadata

| Field        | Value    |
|--------------|----------|
| Entrypoint   | 0x030B   |
| Data Size    | 33 bytes |
| Instructions | 12       |

```
      00 01 02 03 04 05 06 07  08 09 0A 0B 0C 0D 0E 0F
      -- -- -- -- -- -- -- --  -- -- -- -- -- -- -- --
0300:                                   1E F0 FF FF 7F             .....
0310: 6F 70 29 08 1A E0 0E 01  01 1D 20 80 23 1D 21 80  op)....... .#.!.
0320: 23 29 08 1A E0 0E 01 02  20 00 21 00              #)...... .!.    
```

#### Opcodes

```
  0: 0x030B [0x1E] EventEntity looks at LocalPlayer and starts talking
  1: 0x0310 [0x6F] WAIT_FRAME_DELAY: Yield until WaitTime reaches zero
  2: 0x0311 [0x70] WAIT_ENTITY_RENDER_FLAG: Wait while EventEntity->Render.Flags3 bit 2 is set (cancel turn if not)
  3: 0x0312 [0x29] REQ_SET_WAIT(priority=0x08, entity_id=Ropunono (ID: 17752090/0x010EE01A), tag_num=0x01)
  4: 0x0319 [0x1D] PRINT_EVENT_MESSAGE(message_id=8003*)
    → "That reminds me...I once read in an ancient scroll that there were too many forgeries of the old shell coins, so we Tarutaru abandoned them for gil instead."
  5: 0x031C [0x23] WAIT_FOR_DIALOG_INTERACTION
  6: 0x031D [0x1D] PRINT_EVENT_MESSAGE(message_id=8004*)
    → "Please find me a coin with the correct positioning of the constellations on it."
  7: 0x0320 [0x23] WAIT_FOR_DIALOG_INTERACTION
  8: 0x0321 [0x29] REQ_SET_WAIT(priority=0x08, entity_id=Ropunono (ID: 17752090/0x010EE01A), tag_num=0x02)
  9: 0x0328 [0x20] SET_CLI_EVENT_UC_FLAG: Unlock player control
 10: 0x032A [0x21] END_EVENT
 11: 0x032B [0x00] END_REQSTACK()
```
