# 17752162 - Moari-Kaaori

## Common Data

| Field            | Value                     |
|------------------|---------------------------|
| Zone             | Windurst Waters (ID: 238) |
| Block Size       | 1120 bytes                |
| Total Events     | 31                        |
| References Count | 37                        |

## List of Events

| Event ID                   | Entrypoint   |   Size |   Instructions |
|----------------------------|--------------|--------|----------------|
| [65535](#event-65535)      | 0x0000       |      1 |              1 |
| [65535.1](#event-655351)   | 0x0001       |     16 |              2 |
| [65535.2](#event-655352)   | 0x0011       |     22 |              4 |
| [65535.3](#event-655353)   | 0x0027       |      9 |              3 |
| [65535.4](#event-655354)   | 0x0030       |     36 |              5 |
| [65535.5](#event-655355)   | 0x0054       |     41 |              6 |
| [512](#event-512)          | 0x007D       |     12 |              7 |
| [514](#event-514)          | 0x0089       |    135 |             25 |
| [65535.6](#event-655356)   | 0x0110       |      5 |              3 |
| [65535.7](#event-655357)   | 0x0115       |      5 |              3 |
| [65535.8](#event-655358)   | 0x011A       |      5 |              3 |
| [65535.9](#event-655359)   | 0x011F       |      5 |              3 |
| [65535.10](#event-6553510) | 0x0124       |      5 |              3 |
| [65535.11](#event-6553511) | 0x0129       |     19 |              5 |
| [65535.12](#event-6553512) | 0x013C       |     19 |              5 |
| [65535.13](#event-6553513) | 0x014F       |     19 |              5 |
| [515](#event-515)          | 0x0162       |     32 |             10 |
| [520](#event-520)          | 0x0182       |     59 |             13 |
| [525](#event-525)          | 0x01BD       |     62 |             14 |
| [65535.14](#event-6553514) | 0x01FB       |     23 |              7 |
| [65535.15](#event-6553515) | 0x0212       |     19 |              5 |
| [521](#event-521)          | 0x0225       |      8 |              5 |
| [522](#event-522)          | 0x022D       |    111 |             22 |
| [65535.16](#event-6553516) | 0x029C       |      5 |              3 |
| [65535.17](#event-6553517) | 0x02A1       |     19 |              5 |
| [65535.18](#event-6553518) | 0x02B4       |     19 |              5 |
| [523](#event-523)          | 0x02C7       |     39 |             10 |
| [65535.19](#event-6553519) | 0x02EE       |      9 |              5 |
| [65535.20](#event-6553520) | 0x02F7       |     19 |              5 |
| [524](#event-524)          | 0x030A       |     12 |              7 |
| [685](#event-685)          | 0x0316       |     40 |             13 |

## DAT References (imed_data)

|   Index | Hex Value   |   Dec Value |
|---------|-------------|-------------|
|       0 | 0x0151      |         337 |
|       1 | 0x001E      |          30 |
|       2 | 0x0159      |         345 |
|       3 | 0x03AC      |         940 |
|       4 | 0x2156      |        8534 |
|       5 | 0x2157      |        8535 |
|       6 | 0x2161      |        8545 |
|       7 | 0x0000      |           0 |
|       8 | 0x0001      |           1 |
|       9 | 0x0002      |           2 |
|      10 | 0x215B      |        8539 |
|      11 | 0x215C      |        8540 |
|      12 | 0x215D      |        8541 |
|      13 | 0x215E      |        8542 |
|      14 | 0x215F      |        8543 |
|      15 | 0x2160      |        8544 |
|      16 | 0x2162      |        8546 |
|      17 | 0x2163      |        8547 |
|      18 | 0x2165      |        8549 |
|      19 | 0x2166      |        8550 |
|      20 | 0x00C9      |         201 |
|      21 | 0x1998      |        6552 |
|      22 | 0x217F      |        8575 |
|      23 | 0x2180      |        8576 |
|      24 | 0x2181      |        8577 |
|      25 | 0x2182      |        8578 |
|      26 | 0x0003      |           3 |
|      27 | 0x2183      |        8579 |
|      28 | 0x2184      |        8580 |
|      29 | 0x2185      |        8581 |
|      30 | 0x2186      |        8582 |
|      31 | 0x2187      |        8583 |
|      32 | 0x2189      |        8585 |
|      33 | 0x218A      |        8586 |
|      34 | 0x218B      |        8587 |
|      35 | 0x23B6      |        9142 |
|      36 | 0x23B7      |        9143 |

## String References

- **6552**: Obtained $0 gil.
- **8534**: ...<sniff>. Leave me alone...
- **8535**: I, I, I... can't take it... ANYMOO\`ORE!!!
- **8539**: Ahhh... What should I do? Oh, woe, woe, woe is me!
- **8540**: <Sigh>...
- **8541**: Oh, the sunshine, how it sparkle-warkles... Oh, the unfulfilled desires that spill out of my hearty...
- **8542**: Oh, how much nicer it would be if I could become a flower swaying in the breeze...
- **8543**: Ah, a flower? That's it!!!
- **8544**: Hey, you, you, you...! Could you please go to the Rhinostery and get me a flower?
- **8545**: Say it with flowers? [Yeah, flower-power!/No. Nip it in the bud!]
- **8546**: The rarest, mysticalest, elegantest flower there is!
- **8547**: Oohh... How could you... Just when I had a bloomin' good idea...
- **8549**: The rarest, mysticalest, elegantest flower there is!
- **8550**: What a blooming good idea! Now that it's arranged, I've got to do all the preparations that stem from it!
- **8575**: Oh, what a wonderful flower!
- **8576**: Oh, I'm so glad I asked you! Thanks, bud! Here, as a token of my appreciation.
- **8577**: Ah...... Now all I need to do is write a letter to express my heartfelt feelings...
- **8578**: Ah...... Now all I need to do is write a letter to express my heartfelt feelings...
- **8579**: Is this flower really...
- **8580**: ...the rarest, mysticalest, elegantest flower there is!?
- **8581**: ...Well, I guess it set you back about this much, right...?
- **8582**: Oh, excuse me, but... I don't think that flower you brought me will work...<sigh>...
- **8583**: Sorry to put you out again, but could you go to the Rhinostery and get me another?
- **8585**: ...The rarest, mysticalest, elegantest flower there is!!! That's what I want!
- **8586**: Yes, this is it...
- **8587**: ...The rarest, mysticalest, elegantest flower there is!!! That's what I want!
- **9142**: Oh, excuse me, but...the $1 you got me dried up and died while I was contemplating how I should hand it to her...
- **9143**: Sorry to put you out again, but could you go to the Rhinostery and get me another?

## Events

### Event 65535

#### Metadata

| Field        | Value   |
|--------------|---------|
| Entrypoint   | 0x0000  |
| Data Size    | 1 bytes |
| Instructions | 1       |

```
      00 01 02 03 04 05 06 07  08 09 0A 0B 0C 0D 0E 0F
      -- -- -- -- -- -- -- --  -- -- -- -- -- -- -- --
0000: 00                                                .               
```

#### Opcodes

```
  0: 0x0000 [0x00] END_REQSTACK()
```

### Event 65535.1

#### Metadata

| Field        | Value    |
|--------------|----------|
| Entrypoint   | 0x0001   |
| Data Size    | 16 bytes |
| Instructions | 2        |

```
      00 01 02 03 04 05 06 07  08 09 0A 0B 0C 0D 0E 0F
      -- -- -- -- -- -- -- --  -- -- -- -- -- -- -- --
0000:    5B 00 80 F8 FF FF 7F  F8 FF FF 7F 74 6C 6B 30   [..........tlk0
0010: 00                                                .               
```

#### Opcodes

```
  0: 0x0001 [0x5B] LOAD_EXT_SCHEDULER: Load scheduler "tlk0" with entities [EventEntity, EventEntity], work=337*
  1: 0x0010 [0x00] END_REQSTACK()
```

### Event 65535.2

#### Metadata

| Field        | Value    |
|--------------|----------|
| Entrypoint   | 0x0011   |
| Data Size    | 22 bytes |
| Instructions | 4        |

```
      00 01 02 03 04 05 06 07  08 09 0A 0B 0C 0D 0E 0F
      -- -- -- -- -- -- -- --  -- -- -- -- -- -- -- --
0010:    53 F8 FF FF 7F F8 FF  FF 7F 74 6C 6B 30 5E 69   S........tlk0^i
0020: 64 6C 30 1C 01 80 00                              dl0....         
```

#### Opcodes

```
  0: 0x0011 [0x53] WAIT_SCHEDULER_TASK: Wait for scheduler "tlk0" with entities [EventEntity, EventEntity]
  1: 0x001E [0x5E] EventEntity goes idle (kills current action) (animation: "idl0")
  2: 0x0023 [0x1C] WAIT(30* ticks)
  3: 0x0026 [0x00] END_REQSTACK()
```

### Event 65535.3

#### Metadata

| Field        | Value   |
|--------------|---------|
| Entrypoint   | 0x0027  |
| Data Size    | 9 bytes |
| Instructions | 3       |

```
      00 01 02 03 04 05 06 07  08 09 0A 0B 0C 0D 0E 0F
      -- -- -- -- -- -- -- --  -- -- -- -- -- -- -- --
0020:                      5E  69 64 6C 30 1C 01 80 00         ^idl0....
```

#### Opcodes

```
  0: 0x0027 [0x5E] EventEntity goes idle (kills current action) (animation: "idl0")
  1: 0x002C [0x1C] WAIT(30* ticks)
  2: 0x002F [0x00] END_REQSTACK()
```

### Event 65535.4

#### Metadata

| Field        | Value    |
|--------------|----------|
| Entrypoint   | 0x0030   |
| Data Size    | 36 bytes |
| Instructions | 5        |

```
      00 01 02 03 04 05 06 07  08 09 0A 0B 0C 0D 0E 0F
      -- -- -- -- -- -- -- --  -- -- -- -- -- -- -- --
0030: 5F 01 5B 02 80 F8 FF FF  7F F8 FF FF 7F 6D 65 69  _.[..........mei
0040: 31 53 F8 FF FF 7F F8 FF  FF 7F 6D 65 69 31 5E 69  1S........mei1^i
0050: 64 6C 30 00                                       dl0.            
```

#### Opcodes

```
  0: 0x0030 [0x5F] MULTI_HANDLER_COMPLEX(mode=0x01 - Toggle Render.Flags0 bit 29)
  1: 0x0032 [0x5B] LOAD_EXT_SCHEDULER: Load scheduler "mei1" with entities [EventEntity, EventEntity], work=345*
  2: 0x0041 [0x53] WAIT_SCHEDULER_TASK: Wait for scheduler "mei1" with entities [EventEntity, EventEntity]
  3: 0x004E [0x5E] EventEntity goes idle (kills current action) (animation: "idl0")
  4: 0x0053 [0x00] END_REQSTACK()
```

### Event 65535.5

#### Metadata

| Field        | Value    |
|--------------|----------|
| Entrypoint   | 0x0054   |
| Data Size    | 41 bytes |
| Instructions | 6        |

```
      00 01 02 03 04 05 06 07  08 09 0A 0B 0C 0D 0E 0F
      -- -- -- -- -- -- -- --  -- -- -- -- -- -- -- --
0050:             5F 00 4B 62  E0 0E 01 03 80 1C 01 80      _.Kb........
0060: 5B 02 80 F8 FF FF 7F F8  FF FF 7F 6D 65 69 30 53  [..........mei0S
0070: F8 FF FF 7F F8 FF FF 7F  6D 65 69 30 00           ........mei0.   
```

#### Opcodes

```
  0: 0x0054 [0x5F] MULTI_HANDLER_COMPLEX(mode=0x00 - Toggle Render.Flags0 bit 29)
  1: 0x0056 [0x4B] UPDATE_ENTITY_YAW(entity=Moari-Kaaori (ID: 17752162/0x010EE062), yaw=5.2°*)
  2: 0x005D [0x1C] WAIT(30* ticks)
  3: 0x0060 [0x5B] LOAD_EXT_SCHEDULER: Load scheduler "mei0" with entities [EventEntity, EventEntity], work=345*
  4: 0x006F [0x53] WAIT_SCHEDULER_TASK: Wait for scheduler "mei0" with entities [EventEntity, EventEntity]
  5: 0x007C [0x00] END_REQSTACK()
```

### Event 512

#### Metadata

| Field        | Value    |
|--------------|----------|
| Entrypoint   | 0x007D   |
| Data Size    | 12 bytes |
| Instructions | 7        |

```
      00 01 02 03 04 05 06 07  08 09 0A 0B 0C 0D 0E 0F
      -- -- -- -- -- -- -- --  -- -- -- -- -- -- -- --
0070:                                         1D 04 80               ...
0080: 23 1D 05 80 23 20 00 21  00                       #...# .!.       
```

#### Opcodes

```
  0: 0x007D [0x1D] PRINT_EVENT_MESSAGE(message_id=8534*)
    → "...<sniff>. Leave me alone..."
  1: 0x0080 [0x23] WAIT_FOR_DIALOG_INTERACTION
  2: 0x0081 [0x1D] PRINT_EVENT_MESSAGE(message_id=8535*)
    → "I, I, I... can't take it... ANYMOO`ORE!!!"
  3: 0x0084 [0x23] WAIT_FOR_DIALOG_INTERACTION
  4: 0x0085 [0x20] SET_CLI_EVENT_UC_FLAG: Unlock player control
  5: 0x0087 [0x21] END_EVENT
  6: 0x0088 [0x00] END_REQSTACK()
```

### Event 514

#### Metadata

| Field        | Value     |
|--------------|-----------|
| Entrypoint   | 0x0089    |
| Data Size    | 135 bytes |
| Instructions | 25        |

```
      00 01 02 03 04 05 06 07  08 09 0A 0B 0C 0D 0E 0F
      -- -- -- -- -- -- -- --  -- -- -- -- -- -- -- --
0080:                             29 0B 62 E0 0E 01 08           ).b....
0090: 29 0B 62 E0 0E 01 09 29  0B 62 E0 0E 01 0A 29 0B  ).b....).b....).
00A0: 62 E0 0E 01 0B 27 08 62  E0 0E 01 04 29 0B 62 E0  b....'.b....).b.
00B0: 0E 01 0C 2A 08 62 E0 0E  01 4A 62 E0 0E 01 F0 FF  ...*.b...Jb.....
00C0: FF 7F 6F 76 F8 FF FF 7F  29 0B 62 E0 0E 01 0D 24  ..ov....).b....$
00D0: 06 80 07 80 07 80 25 02  00 10 07 80 00 EE 00 03  ......%.........
00E0: 01 10 08 80 29 0B 62 E0  0E 01 0E 01 05 01 02 00  ....).b.........
00F0: 10 08 80 00 05 01 03 01  10 09 80 29 0B 62 E0 0E  ...........).b..
0100: 01 0F 01 05 01 29 08 62  E0 0E 01 05 20 00 21 00  .....).b.... .!.
```

#### Opcodes

```
  0: 0x0089 [0x29] REQ_SET_WAIT(priority=0x0B, entity_id=Moari-Kaaori (ID: 17752162/0x010EE062), tag_num=0x08)
  1: 0x0090 [0x29] REQ_SET_WAIT(priority=0x0B, entity_id=Moari-Kaaori (ID: 17752162/0x010EE062), tag_num=0x09)
  2: 0x0097 [0x29] REQ_SET_WAIT(priority=0x0B, entity_id=Moari-Kaaori (ID: 17752162/0x010EE062), tag_num=0x0A)
  3: 0x009E [0x29] REQ_SET_WAIT(priority=0x0B, entity_id=Moari-Kaaori (ID: 17752162/0x010EE062), tag_num=0x0B)
  4: 0x00A5 [0x27] REQ_SET(priority=0x08, entity_id=Moari-Kaaori (ID: 17752162/0x010EE062), tag_num=0x04)
  5: 0x00AC [0x29] REQ_SET_WAIT(priority=0x0B, entity_id=Moari-Kaaori (ID: 17752162/0x010EE062), tag_num=0x0C)
  6: 0x00B3 [0x2A] GET_REQ_LEVEL(level=8, entity_id=Moari-Kaaori (ID: 17752162/0x010EE062))
  7: 0x00B9 [0x4A] Moari-Kaaori (ID: 17752162/0x010EE062) looks at LocalPlayer
  8: 0x00C2 [0x6F] WAIT_FRAME_DELAY: Yield until WaitTime reaches zero
  9: 0x00C3 [0x76] CHECK_ENTITY_RENDER_FLAGS: Wait until EventEntity Render.Flags0 and Render.Flags3 conditions are met
 10: 0x00C8 [0x29] REQ_SET_WAIT(priority=0x0B, entity_id=Moari-Kaaori (ID: 17752162/0x010EE062), tag_num=0x0D)
 11: 0x00CF [0x24] CREATE_DIALOG(message_id=8545*, default_option=0*, option_flags=0*)
    → "Say it with flowers? [Yeah, flower-power!/No. Nip it in the bud!]"
 12: 0x00D6 [0x25] WAIT_DIALOG_SELECT()
 13: 0x00D7 [0x02] IF !(Work_Zone[0] == 0*) GOTO 0x00EE
 14: 0x00DF [0x03] Work_Zone[1] = 1*
 15: 0x00E4 [0x29] REQ_SET_WAIT(priority=0x0B, entity_id=Moari-Kaaori (ID: 17752162/0x010EE062), tag_num=0x0E)
 16: 0x00EB [0x01] GOTO 0x0105
 17: 0x00EE [0x02] IF !(Work_Zone[0] == 1*) GOTO 0x0105
 18: 0x00F6 [0x03] Work_Zone[1] = 2*
 19: 0x00FB [0x29] REQ_SET_WAIT(priority=0x0B, entity_id=Moari-Kaaori (ID: 17752162/0x010EE062), tag_num=0x0F)
 20: 0x0102 [0x01] GOTO 0x0105

SUBROUTINE_0105:
 21: 0x0105 [0x29] REQ_SET_WAIT(priority=0x08, entity_id=Moari-Kaaori (ID: 17752162/0x010EE062), tag_num=0x05)
 22: 0x010C [0x20] SET_CLI_EVENT_UC_FLAG: Unlock player control
 23: 0x010E [0x21] END_EVENT
 24: 0x010F [0x00] END_REQSTACK()
```

### Event 65535.6

#### Metadata

| Field        | Value   |
|--------------|---------|
| Entrypoint   | 0x0110  |
| Data Size    | 5 bytes |
| Instructions | 3       |

```
      00 01 02 03 04 05 06 07  08 09 0A 0B 0C 0D 0E 0F
      -- -- -- -- -- -- -- --  -- -- -- -- -- -- -- --
0110: 1D 0A 80 23 00                                    ...#.           
```

#### Opcodes

```
  0: 0x0110 [0x1D] PRINT_EVENT_MESSAGE(message_id=8539*)
    → "Ahhh... What should I do? Oh, woe, woe, woe is me!"
  1: 0x0113 [0x23] WAIT_FOR_DIALOG_INTERACTION
  2: 0x0114 [0x00] END_REQSTACK()
```

### Event 65535.7

#### Metadata

| Field        | Value   |
|--------------|---------|
| Entrypoint   | 0x0115  |
| Data Size    | 5 bytes |
| Instructions | 3       |

```
      00 01 02 03 04 05 06 07  08 09 0A 0B 0C 0D 0E 0F
      -- -- -- -- -- -- -- --  -- -- -- -- -- -- -- --
0110:                1D 0B 80  23 00                         ...#.      
```

#### Opcodes

```
  0: 0x0115 [0x1D] PRINT_EVENT_MESSAGE(message_id=8540*)
    → "<Sigh>..."
  1: 0x0118 [0x23] WAIT_FOR_DIALOG_INTERACTION
  2: 0x0119 [0x00] END_REQSTACK()
```

### Event 65535.8

#### Metadata

| Field        | Value   |
|--------------|---------|
| Entrypoint   | 0x011A  |
| Data Size    | 5 bytes |
| Instructions | 3       |

```
      00 01 02 03 04 05 06 07  08 09 0A 0B 0C 0D 0E 0F
      -- -- -- -- -- -- -- --  -- -- -- -- -- -- -- --
0110:                                1D 0C 80 23 00               ...#. 
```

#### Opcodes

```
  0: 0x011A [0x1D] PRINT_EVENT_MESSAGE(message_id=8541*)
    → "Oh, the sunshine, how it sparkle-warkles... Oh, the unfulfilled desires that spill out of my hearty..."
  1: 0x011D [0x23] WAIT_FOR_DIALOG_INTERACTION
  2: 0x011E [0x00] END_REQSTACK()
```

### Event 65535.9

#### Metadata

| Field        | Value   |
|--------------|---------|
| Entrypoint   | 0x011F  |
| Data Size    | 5 bytes |
| Instructions | 3       |

```
      00 01 02 03 04 05 06 07  08 09 0A 0B 0C 0D 0E 0F
      -- -- -- -- -- -- -- --  -- -- -- -- -- -- -- --
0110:                                               1D                 .
0120: 0D 80 23 00                                       ..#.            
```

#### Opcodes

```
  0: 0x011F [0x1D] PRINT_EVENT_MESSAGE(message_id=8542*)
    → "Oh, how much nicer it would be if I could become a flower swaying in the breeze..."
  1: 0x0122 [0x23] WAIT_FOR_DIALOG_INTERACTION
  2: 0x0123 [0x00] END_REQSTACK()
```

### Event 65535.10

#### Metadata

| Field        | Value   |
|--------------|---------|
| Entrypoint   | 0x0124  |
| Data Size    | 5 bytes |
| Instructions | 3       |

```
      00 01 02 03 04 05 06 07  08 09 0A 0B 0C 0D 0E 0F
      -- -- -- -- -- -- -- --  -- -- -- -- -- -- -- --
0120:             1D 0E 80 23  00                           ...#.       
```

#### Opcodes

```
  0: 0x0124 [0x1D] PRINT_EVENT_MESSAGE(message_id=8543*)
    → "Ah, a flower? That's it!!!"
  1: 0x0127 [0x23] WAIT_FOR_DIALOG_INTERACTION
  2: 0x0128 [0x00] END_REQSTACK()
```

### Event 65535.11

#### Metadata

| Field        | Value    |
|--------------|----------|
| Entrypoint   | 0x0129   |
| Data Size    | 19 bytes |
| Instructions | 5        |

```
      00 01 02 03 04 05 06 07  08 09 0A 0B 0C 0D 0E 0F
      -- -- -- -- -- -- -- --  -- -- -- -- -- -- -- --
0120:                             29 08 62 E0 0E 01 01           ).b....
0130: 1D 0F 80 23 29 08 62 E0  0E 01 02 00              ...#).b.....    
```

#### Opcodes

```
  0: 0x0129 [0x29] REQ_SET_WAIT(priority=0x08, entity_id=Moari-Kaaori (ID: 17752162/0x010EE062), tag_num=0x01)
  1: 0x0130 [0x1D] PRINT_EVENT_MESSAGE(message_id=8544*)
    → "Hey, you, you, you...! Could you please go to the Rhinostery and get me a flower?"
  2: 0x0133 [0x23] WAIT_FOR_DIALOG_INTERACTION
  3: 0x0134 [0x29] REQ_SET_WAIT(priority=0x08, entity_id=Moari-Kaaori (ID: 17752162/0x010EE062), tag_num=0x02)
  4: 0x013B [0x00] END_REQSTACK()
```

### Event 65535.12

#### Metadata

| Field        | Value    |
|--------------|----------|
| Entrypoint   | 0x013C   |
| Data Size    | 19 bytes |
| Instructions | 5        |

```
      00 01 02 03 04 05 06 07  08 09 0A 0B 0C 0D 0E 0F
      -- -- -- -- -- -- -- --  -- -- -- -- -- -- -- --
0130:                                      29 08 62 E0              ).b.
0140: 0E 01 01 1D 10 80 23 29  08 62 E0 0E 01 02 00     ......#).b..... 
```

#### Opcodes

```
  0: 0x013C [0x29] REQ_SET_WAIT(priority=0x08, entity_id=Moari-Kaaori (ID: 17752162/0x010EE062), tag_num=0x01)
  1: 0x0143 [0x1D] PRINT_EVENT_MESSAGE(message_id=8546*)
    → "The rarest, mysticalest, elegantest flower there is!"
  2: 0x0146 [0x23] WAIT_FOR_DIALOG_INTERACTION
  3: 0x0147 [0x29] REQ_SET_WAIT(priority=0x08, entity_id=Moari-Kaaori (ID: 17752162/0x010EE062), tag_num=0x02)
  4: 0x014E [0x00] END_REQSTACK()
```

### Event 65535.13

#### Metadata

| Field        | Value    |
|--------------|----------|
| Entrypoint   | 0x014F   |
| Data Size    | 19 bytes |
| Instructions | 5        |

```
      00 01 02 03 04 05 06 07  08 09 0A 0B 0C 0D 0E 0F
      -- -- -- -- -- -- -- --  -- -- -- -- -- -- -- --
0140:                                               29                 )
0150: 08 62 E0 0E 01 01 1D 11  80 23 29 08 62 E0 0E 01  .b.......#).b...
0160: 02 00                                             ..              
```

#### Opcodes

```
  0: 0x014F [0x29] REQ_SET_WAIT(priority=0x08, entity_id=Moari-Kaaori (ID: 17752162/0x010EE062), tag_num=0x01)
  1: 0x0156 [0x1D] PRINT_EVENT_MESSAGE(message_id=8547*)
    → "Oohh... How could you... Just when I had a bloomin' good idea..."
  2: 0x0159 [0x23] WAIT_FOR_DIALOG_INTERACTION
  3: 0x015A [0x29] REQ_SET_WAIT(priority=0x08, entity_id=Moari-Kaaori (ID: 17752162/0x010EE062), tag_num=0x02)
  4: 0x0161 [0x00] END_REQSTACK()
```

### Event 515

#### Metadata

| Field        | Value    |
|--------------|----------|
| Entrypoint   | 0x0162   |
| Data Size    | 32 bytes |
| Instructions | 10       |

```
      00 01 02 03 04 05 06 07  08 09 0A 0B 0C 0D 0E 0F
      -- -- -- -- -- -- -- --  -- -- -- -- -- -- -- --
0160:       27 08 62 E0 0E 01  04 1D 12 80 23 2A 08 62    '.b.......#*.b
0170: E0 0E 01 1D 13 80 23 29  08 62 E0 0E 01 05 20 00  ......#).b.... .
0180: 21 00                                             !.              
```

#### Opcodes

```
  0: 0x0162 [0x27] REQ_SET(priority=0x08, entity_id=Moari-Kaaori (ID: 17752162/0x010EE062), tag_num=0x04)
  1: 0x0169 [0x1D] PRINT_EVENT_MESSAGE(message_id=8549*)
    → "The rarest, mysticalest, elegantest flower there is!"
  2: 0x016C [0x23] WAIT_FOR_DIALOG_INTERACTION
  3: 0x016D [0x2A] GET_REQ_LEVEL(level=8, entity_id=Moari-Kaaori (ID: 17752162/0x010EE062))
  4: 0x0173 [0x1D] PRINT_EVENT_MESSAGE(message_id=8550*)
    → "What a blooming good idea! Now that it's arranged, I've got to do all the preparations that stem from it!"
  5: 0x0176 [0x23] WAIT_FOR_DIALOG_INTERACTION
  6: 0x0177 [0x29] REQ_SET_WAIT(priority=0x08, entity_id=Moari-Kaaori (ID: 17752162/0x010EE062), tag_num=0x05)
  7: 0x017E [0x20] SET_CLI_EVENT_UC_FLAG: Unlock player control
  8: 0x0180 [0x21] END_EVENT
  9: 0x0181 [0x00] END_REQSTACK()
```

### Event 520

#### Metadata

| Field        | Value    |
|--------------|----------|
| Entrypoint   | 0x0182   |
| Data Size    | 59 bytes |
| Instructions | 13       |

```
      00 01 02 03 04 05 06 07  08 09 0A 0B 0C 0D 0E 0F
      -- -- -- -- -- -- -- --  -- -- -- -- -- -- -- --
0180:       20 01 42 29 08 62  E0 0E 01 04 1E F0 FF FF     .B).b........
0190: 7F 6F 70 29 0B 62 E0 0E  01 13 29 0B 62 E0 0E 01  .op).b....).b...
01A0: 14 29 08 62 E0 0E 01 05  45 14 80 F0 FF FF 7F F0  .).b....E.......
01B0: FF FF 7F 71 73 74 63 07  80 20 00 21 00           ...qstc.. .!.   
```

#### Opcodes

```
  0: 0x0182 [0x20] SET_CLI_EVENT_UC_FLAG: Lock player control
  1: 0x0184 [0x42] SET_CLI_EVENT_CANCEL_DATA()
  2: 0x0185 [0x29] REQ_SET_WAIT(priority=0x08, entity_id=Moari-Kaaori (ID: 17752162/0x010EE062), tag_num=0x04)
  3: 0x018C [0x1E] EventEntity looks at LocalPlayer and starts talking
  4: 0x0191 [0x6F] WAIT_FRAME_DELAY: Yield until WaitTime reaches zero
  5: 0x0192 [0x70] WAIT_ENTITY_RENDER_FLAG: Wait while EventEntity->Render.Flags3 bit 2 is set (cancel turn if not)
  6: 0x0193 [0x29] REQ_SET_WAIT(priority=0x0B, entity_id=Moari-Kaaori (ID: 17752162/0x010EE062), tag_num=0x13)
  7: 0x019A [0x29] REQ_SET_WAIT(priority=0x0B, entity_id=Moari-Kaaori (ID: 17752162/0x010EE062), tag_num=0x14)
  8: 0x01A1 [0x29] REQ_SET_WAIT(priority=0x08, entity_id=Moari-Kaaori (ID: 17752162/0x010EE062), tag_num=0x05)
  9: 0x01A8 [0x45] LOAD_SCHEDULED_TASK: Load scheduler "qstc" with entities [LocalPlayer, LocalPlayer], work=[201*, 0*]
 10: 0x01B9 [0x20] SET_CLI_EVENT_UC_FLAG: Unlock player control
 11: 0x01BB [0x21] END_EVENT
 12: 0x01BC [0x00] END_REQSTACK()
```

### Event 525

#### Metadata

| Field        | Value    |
|--------------|----------|
| Entrypoint   | 0x01BD   |
| Data Size    | 62 bytes |
| Instructions | 14       |

```
      00 01 02 03 04 05 06 07  08 09 0A 0B 0C 0D 0E 0F
      -- -- -- -- -- -- -- --  -- -- -- -- -- -- -- --
01B0:                                         20 01 42                .B
01C0: 29 08 62 E0 0E 01 04 1E  F0 FF FF 7F 6F 70 29 0B  ).b.........op).
01D0: 62 E0 0E 01 13 29 0B 62  E0 0E 01 14 29 08 62 E0  b....).b....).b.
01E0: 0E 01 05 45 14 80 F0 FF  FF 7F F0 FF FF 7F 71 73  ...E..........qs
01F0: 74 63 07 80 48 15 80 20  00 21 00                 tc..H.. .!.     
```

#### Opcodes

```
  0: 0x01BD [0x20] SET_CLI_EVENT_UC_FLAG: Lock player control
  1: 0x01BF [0x42] SET_CLI_EVENT_CANCEL_DATA()
  2: 0x01C0 [0x29] REQ_SET_WAIT(priority=0x08, entity_id=Moari-Kaaori (ID: 17752162/0x010EE062), tag_num=0x04)
  3: 0x01C7 [0x1E] EventEntity looks at LocalPlayer and starts talking
  4: 0x01CC [0x6F] WAIT_FRAME_DELAY: Yield until WaitTime reaches zero
  5: 0x01CD [0x70] WAIT_ENTITY_RENDER_FLAG: Wait while EventEntity->Render.Flags3 bit 2 is set (cancel turn if not)
  6: 0x01CE [0x29] REQ_SET_WAIT(priority=0x0B, entity_id=Moari-Kaaori (ID: 17752162/0x010EE062), tag_num=0x13)
  7: 0x01D5 [0x29] REQ_SET_WAIT(priority=0x0B, entity_id=Moari-Kaaori (ID: 17752162/0x010EE062), tag_num=0x14)
  8: 0x01DC [0x29] REQ_SET_WAIT(priority=0x08, entity_id=Moari-Kaaori (ID: 17752162/0x010EE062), tag_num=0x05)
  9: 0x01E3 [0x45] LOAD_SCHEDULED_TASK: Load scheduler "qstc" with entities [LocalPlayer, LocalPlayer], work=[201*, 0*]
 10: 0x01F4 [0x48] [System] [6552*]:
    → "Obtained $0 gil."
 11: 0x01F7 [0x20] SET_CLI_EVENT_UC_FLAG: Unlock player control
 12: 0x01F9 [0x21] END_EVENT
 13: 0x01FA [0x00] END_REQSTACK()
```

### Event 65535.14

#### Metadata

| Field        | Value    |
|--------------|----------|
| Entrypoint   | 0x01FB   |
| Data Size    | 23 bytes |
| Instructions | 7        |

```
      00 01 02 03 04 05 06 07  08 09 0A 0B 0C 0D 0E 0F
      -- -- -- -- -- -- -- --  -- -- -- -- -- -- -- --
01F0:                                   29 08 62 E0 0E             ).b..
0200: 01 01 1D 16 80 23 1D 17  80 23 29 08 62 E0 0E 01  .....#...#).b...
0210: 02 00                                             ..              
```

#### Opcodes

```
  0: 0x01FB [0x29] REQ_SET_WAIT(priority=0x08, entity_id=Moari-Kaaori (ID: 17752162/0x010EE062), tag_num=0x01)
  1: 0x0202 [0x1D] PRINT_EVENT_MESSAGE(message_id=8575*)
    → "Oh, what a wonderful flower!"
  2: 0x0205 [0x23] WAIT_FOR_DIALOG_INTERACTION
  3: 0x0206 [0x1D] PRINT_EVENT_MESSAGE(message_id=8576*)
    → "Oh, I'm so glad I asked you! Thanks, bud! Here, as a token of my appreciation."
  4: 0x0209 [0x23] WAIT_FOR_DIALOG_INTERACTION
  5: 0x020A [0x29] REQ_SET_WAIT(priority=0x08, entity_id=Moari-Kaaori (ID: 17752162/0x010EE062), tag_num=0x02)
  6: 0x0211 [0x00] END_REQSTACK()
```

### Event 65535.15

#### Metadata

| Field        | Value    |
|--------------|----------|
| Entrypoint   | 0x0212   |
| Data Size    | 19 bytes |
| Instructions | 5        |

```
      00 01 02 03 04 05 06 07  08 09 0A 0B 0C 0D 0E 0F
      -- -- -- -- -- -- -- --  -- -- -- -- -- -- -- --
0210:       29 08 62 E0 0E 01  01 1D 18 80 23 29 08 62    ).b.......#).b
0220: E0 0E 01 02 00                                    .....           
```

#### Opcodes

```
  0: 0x0212 [0x29] REQ_SET_WAIT(priority=0x08, entity_id=Moari-Kaaori (ID: 17752162/0x010EE062), tag_num=0x01)
  1: 0x0219 [0x1D] PRINT_EVENT_MESSAGE(message_id=8577*)
    → "Ah...... Now all I need to do is write a letter to express my heartfelt feelings..."
  2: 0x021C [0x23] WAIT_FOR_DIALOG_INTERACTION
  3: 0x021D [0x29] REQ_SET_WAIT(priority=0x08, entity_id=Moari-Kaaori (ID: 17752162/0x010EE062), tag_num=0x02)
  4: 0x0224 [0x00] END_REQSTACK()
```

### Event 521

#### Metadata

| Field        | Value   |
|--------------|---------|
| Entrypoint   | 0x0225  |
| Data Size    | 8 bytes |
| Instructions | 5       |

```
      00 01 02 03 04 05 06 07  08 09 0A 0B 0C 0D 0E 0F
      -- -- -- -- -- -- -- --  -- -- -- -- -- -- -- --
0220:                1D 19 80  23 20 00 21 00                ...# .!.   
```

#### Opcodes

```
  0: 0x0225 [0x1D] PRINT_EVENT_MESSAGE(message_id=8578*)
    → "Ah...... Now all I need to do is write a letter to express my heartfelt feelings..."
  1: 0x0228 [0x23] WAIT_FOR_DIALOG_INTERACTION
  2: 0x0229 [0x20] SET_CLI_EVENT_UC_FLAG: Unlock player control
  3: 0x022B [0x21] END_EVENT
  4: 0x022C [0x00] END_REQSTACK()
```

### Event 522

#### Metadata

| Field        | Value     |
|--------------|-----------|
| Entrypoint   | 0x022D    |
| Data Size    | 111 bytes |
| Instructions | 22        |

```
      00 01 02 03 04 05 06 07  08 09 0A 0B 0C 0D 0E 0F
      -- -- -- -- -- -- -- --  -- -- -- -- -- -- -- --
0220:                                         20 01 42                .B
0230: 02 03 10 08 80 00 40 02  03 01 10 08 80 01 5D 02  ......@.......].
0240: 02 03 10 09 80 00 50 02  03 01 10 09 80 01 5D 02  ......P.......].
0250: 02 03 10 1A 80 00 5D 02  03 01 10 1A 80 29 08 62  ......]......).b
0260: E0 0E 01 04 1E F0 FF FF  7F 6F 70 29 0B 62 E0 0E  .........op).b..
0270: 01 17 29 0B 62 E0 0E 01  18 29 0B 62 E0 0E 01 19  ..).b....).b....
0280: 29 08 62 E0 0E 01 05 45  14 80 F0 FF FF 7F F0 FF  ).b....E........
0290: FF 7F 71 73 74 63 07 80  20 00 21 00              ..qstc.. .!.    
```

#### Opcodes

```
  0: 0x022D [0x20] SET_CLI_EVENT_UC_FLAG: Lock player control
  1: 0x022F [0x42] SET_CLI_EVENT_CANCEL_DATA()
  2: 0x0230 [0x02] IF !(Work_Zone[3] == 1*) GOTO 0x0240
  3: 0x0238 [0x03] Work_Zone[1] = 1*
  4: 0x023D [0x01] GOTO 0x025D
  5: 0x0240 [0x02] IF !(Work_Zone[3] == 2*) GOTO 0x0250
  6: 0x0248 [0x03] Work_Zone[1] = 2*
  7: 0x024D [0x01] GOTO 0x025D
  8: 0x0250 [0x02] IF !(Work_Zone[3] == 3*) GOTO 0x025D
  9: 0x0258 [0x03] Work_Zone[1] = 3*

SUBROUTINE_025D:
 10: 0x025D [0x29] REQ_SET_WAIT(priority=0x08, entity_id=Moari-Kaaori (ID: 17752162/0x010EE062), tag_num=0x04)
 11: 0x0264 [0x1E] EventEntity looks at LocalPlayer and starts talking
 12: 0x0269 [0x6F] WAIT_FRAME_DELAY: Yield until WaitTime reaches zero
 13: 0x026A [0x70] WAIT_ENTITY_RENDER_FLAG: Wait while EventEntity->Render.Flags3 bit 2 is set (cancel turn if not)
 14: 0x026B [0x29] REQ_SET_WAIT(priority=0x0B, entity_id=Moari-Kaaori (ID: 17752162/0x010EE062), tag_num=0x17)
 15: 0x0272 [0x29] REQ_SET_WAIT(priority=0x0B, entity_id=Moari-Kaaori (ID: 17752162/0x010EE062), tag_num=0x18)
 16: 0x0279 [0x29] REQ_SET_WAIT(priority=0x0B, entity_id=Moari-Kaaori (ID: 17752162/0x010EE062), tag_num=0x19)
 17: 0x0280 [0x29] REQ_SET_WAIT(priority=0x08, entity_id=Moari-Kaaori (ID: 17752162/0x010EE062), tag_num=0x05)
 18: 0x0287 [0x45] LOAD_SCHEDULED_TASK: Load scheduler "qstc" with entities [LocalPlayer, LocalPlayer], work=[201*, 0*]
 19: 0x0298 [0x20] SET_CLI_EVENT_UC_FLAG: Unlock player control
 20: 0x029A [0x21] END_EVENT
 21: 0x029B [0x00] END_REQSTACK()
```

### Event 65535.16

#### Metadata

| Field        | Value   |
|--------------|---------|
| Entrypoint   | 0x029C  |
| Data Size    | 5 bytes |
| Instructions | 3       |

```
      00 01 02 03 04 05 06 07  08 09 0A 0B 0C 0D 0E 0F
      -- -- -- -- -- -- -- --  -- -- -- -- -- -- -- --
0290:                                      1D 1B 80 23              ...#
02A0: 00                                                .               
```

#### Opcodes

```
  0: 0x029C [0x1D] PRINT_EVENT_MESSAGE(message_id=8579*)
    → "Is this flower really..."
  1: 0x029F [0x23] WAIT_FOR_DIALOG_INTERACTION
  2: 0x02A0 [0x00] END_REQSTACK()
```

### Event 65535.17

#### Metadata

| Field        | Value    |
|--------------|----------|
| Entrypoint   | 0x02A1   |
| Data Size    | 19 bytes |
| Instructions | 5        |

```
      00 01 02 03 04 05 06 07  08 09 0A 0B 0C 0D 0E 0F
      -- -- -- -- -- -- -- --  -- -- -- -- -- -- -- --
02A0:    29 08 62 E0 0E 01 01  1D 1C 80 23 29 08 62 E0   ).b.......#).b.
02B0: 0E 01 02 00                                       ....            
```

#### Opcodes

```
  0: 0x02A1 [0x29] REQ_SET_WAIT(priority=0x08, entity_id=Moari-Kaaori (ID: 17752162/0x010EE062), tag_num=0x01)
  1: 0x02A8 [0x1D] PRINT_EVENT_MESSAGE(message_id=8580*)
    → "...the rarest, mysticalest, elegantest flower there is!?"
  2: 0x02AB [0x23] WAIT_FOR_DIALOG_INTERACTION
  3: 0x02AC [0x29] REQ_SET_WAIT(priority=0x08, entity_id=Moari-Kaaori (ID: 17752162/0x010EE062), tag_num=0x02)
  4: 0x02B3 [0x00] END_REQSTACK()
```

### Event 65535.18

#### Metadata

| Field        | Value    |
|--------------|----------|
| Entrypoint   | 0x02B4   |
| Data Size    | 19 bytes |
| Instructions | 5        |

```
      00 01 02 03 04 05 06 07  08 09 0A 0B 0C 0D 0E 0F
      -- -- -- -- -- -- -- --  -- -- -- -- -- -- -- --
02B0:             29 08 62 E0  0E 01 01 1D 1D 80 23 29      ).b.......#)
02C0: 08 62 E0 0E 01 02 00                              .b.....         
```

#### Opcodes

```
  0: 0x02B4 [0x29] REQ_SET_WAIT(priority=0x08, entity_id=Moari-Kaaori (ID: 17752162/0x010EE062), tag_num=0x01)
  1: 0x02BB [0x1D] PRINT_EVENT_MESSAGE(message_id=8581*)
    → "...Well, I guess it set you back about this much, right...?"
  2: 0x02BE [0x23] WAIT_FOR_DIALOG_INTERACTION
  3: 0x02BF [0x29] REQ_SET_WAIT(priority=0x08, entity_id=Moari-Kaaori (ID: 17752162/0x010EE062), tag_num=0x02)
  4: 0x02C6 [0x00] END_REQSTACK()
```

### Event 523

#### Metadata

| Field        | Value    |
|--------------|----------|
| Entrypoint   | 0x02C7   |
| Data Size    | 39 bytes |
| Instructions | 10       |

```
      00 01 02 03 04 05 06 07  08 09 0A 0B 0C 0D 0E 0F
      -- -- -- -- -- -- -- --  -- -- -- -- -- -- -- --
02C0:                      29  08 62 E0 0E 01 04 1E F0         ).b......
02D0: FF FF 7F 6F 70 29 0B 62  E0 0E 01 1B 29 0B 62 E0  ...op).b....).b.
02E0: 0E 01 1C 29 08 62 E0 0E  01 05 20 00 21 00        ...).b.... .!.  
```

#### Opcodes

```
  0: 0x02C7 [0x29] REQ_SET_WAIT(priority=0x08, entity_id=Moari-Kaaori (ID: 17752162/0x010EE062), tag_num=0x04)
  1: 0x02CE [0x1E] EventEntity looks at LocalPlayer and starts talking
  2: 0x02D3 [0x6F] WAIT_FRAME_DELAY: Yield until WaitTime reaches zero
  3: 0x02D4 [0x70] WAIT_ENTITY_RENDER_FLAG: Wait while EventEntity->Render.Flags3 bit 2 is set (cancel turn if not)
  4: 0x02D5 [0x29] REQ_SET_WAIT(priority=0x0B, entity_id=Moari-Kaaori (ID: 17752162/0x010EE062), tag_num=0x1B)
  5: 0x02DC [0x29] REQ_SET_WAIT(priority=0x0B, entity_id=Moari-Kaaori (ID: 17752162/0x010EE062), tag_num=0x1C)
  6: 0x02E3 [0x29] REQ_SET_WAIT(priority=0x08, entity_id=Moari-Kaaori (ID: 17752162/0x010EE062), tag_num=0x05)
  7: 0x02EA [0x20] SET_CLI_EVENT_UC_FLAG: Unlock player control
  8: 0x02EC [0x21] END_EVENT
  9: 0x02ED [0x00] END_REQSTACK()
```

### Event 65535.19

#### Metadata

| Field        | Value   |
|--------------|---------|
| Entrypoint   | 0x02EE  |
| Data Size    | 9 bytes |
| Instructions | 5       |

```
      00 01 02 03 04 05 06 07  08 09 0A 0B 0C 0D 0E 0F
      -- -- -- -- -- -- -- --  -- -- -- -- -- -- -- --
02E0:                                            1D 1E                ..
02F0: 80 23 1D 1F 80 23 00                              .#...#.         
```

#### Opcodes

```
  0: 0x02EE [0x1D] PRINT_EVENT_MESSAGE(message_id=8582*)
    → "Oh, excuse me, but... I don't think that flower you brought me will work...<sigh>..."
  1: 0x02F1 [0x23] WAIT_FOR_DIALOG_INTERACTION
  2: 0x02F2 [0x1D] PRINT_EVENT_MESSAGE(message_id=8583*)
    → "Sorry to put you out again, but could you go to the Rhinostery and get me another?"
  3: 0x02F5 [0x23] WAIT_FOR_DIALOG_INTERACTION
  4: 0x02F6 [0x00] END_REQSTACK()
```

### Event 65535.20

#### Metadata

| Field        | Value    |
|--------------|----------|
| Entrypoint   | 0x02F7   |
| Data Size    | 19 bytes |
| Instructions | 5        |

```
      00 01 02 03 04 05 06 07  08 09 0A 0B 0C 0D 0E 0F
      -- -- -- -- -- -- -- --  -- -- -- -- -- -- -- --
02F0:                      29  08 62 E0 0E 01 01 1D 20         ).b..... 
0300: 80 23 29 08 62 E0 0E 01  02 00                    .#).b.....      
```

#### Opcodes

```
  0: 0x02F7 [0x29] REQ_SET_WAIT(priority=0x08, entity_id=Moari-Kaaori (ID: 17752162/0x010EE062), tag_num=0x01)
  1: 0x02FE [0x1D] PRINT_EVENT_MESSAGE(message_id=8585*)
    → "...The rarest, mysticalest, elegantest flower there is!!! That's what I want!"
  2: 0x0301 [0x23] WAIT_FOR_DIALOG_INTERACTION
  3: 0x0302 [0x29] REQ_SET_WAIT(priority=0x08, entity_id=Moari-Kaaori (ID: 17752162/0x010EE062), tag_num=0x02)
  4: 0x0309 [0x00] END_REQSTACK()
```

### Event 524

#### Metadata

| Field        | Value    |
|--------------|----------|
| Entrypoint   | 0x030A   |
| Data Size    | 12 bytes |
| Instructions | 7        |

```
      00 01 02 03 04 05 06 07  08 09 0A 0B 0C 0D 0E 0F
      -- -- -- -- -- -- -- --  -- -- -- -- -- -- -- --
0300:                                1D 21 80 23 1D 22            .!.#."
0310: 80 23 20 00 21 00                                 .# .!.          
```

#### Opcodes

```
  0: 0x030A [0x1D] PRINT_EVENT_MESSAGE(message_id=8586*)
    → "Yes, this is it..."
  1: 0x030D [0x23] WAIT_FOR_DIALOG_INTERACTION
  2: 0x030E [0x1D] PRINT_EVENT_MESSAGE(message_id=8587*)
    → "...The rarest, mysticalest, elegantest flower there is!!! That's what I want!"
  3: 0x0311 [0x23] WAIT_FOR_DIALOG_INTERACTION
  4: 0x0312 [0x20] SET_CLI_EVENT_UC_FLAG: Unlock player control
  5: 0x0314 [0x21] END_EVENT
  6: 0x0315 [0x00] END_REQSTACK()
```

### Event 685

#### Metadata

| Field        | Value    |
|--------------|----------|
| Entrypoint   | 0x0316   |
| Data Size    | 40 bytes |
| Instructions | 13       |

```
      00 01 02 03 04 05 06 07  08 09 0A 0B 0C 0D 0E 0F
      -- -- -- -- -- -- -- --  -- -- -- -- -- -- -- --
0310:                   29 08  62 E0 0E 01 04 1E F0 FF        ).b.......
0320: FF 7F 6F 70 1D 23 80 23  1D 24 80 23 29 0B 62 E0  ..op.#.#.$.#).b.
0330: 0E 01 1C 29 08 62 E0 0E  01 05 20 00 21 00        ...).b.... .!.  
```

#### Opcodes

```
  0: 0x0316 [0x29] REQ_SET_WAIT(priority=0x08, entity_id=Moari-Kaaori (ID: 17752162/0x010EE062), tag_num=0x04)
  1: 0x031D [0x1E] EventEntity looks at LocalPlayer and starts talking
  2: 0x0322 [0x6F] WAIT_FRAME_DELAY: Yield until WaitTime reaches zero
  3: 0x0323 [0x70] WAIT_ENTITY_RENDER_FLAG: Wait while EventEntity->Render.Flags3 bit 2 is set (cancel turn if not)
  4: 0x0324 [0x1D] PRINT_EVENT_MESSAGE(message_id=9142*)
    → "Oh, excuse me, but...the $1 you got me dried up and died while I was contemplating how I should hand it to her..."
  5: 0x0327 [0x23] WAIT_FOR_DIALOG_INTERACTION
  6: 0x0328 [0x1D] PRINT_EVENT_MESSAGE(message_id=9143*)
    → "Sorry to put you out again, but could you go to the Rhinostery and get me another?"
  7: 0x032B [0x23] WAIT_FOR_DIALOG_INTERACTION
  8: 0x032C [0x29] REQ_SET_WAIT(priority=0x0B, entity_id=Moari-Kaaori (ID: 17752162/0x010EE062), tag_num=0x1C)
  9: 0x0333 [0x29] REQ_SET_WAIT(priority=0x08, entity_id=Moari-Kaaori (ID: 17752162/0x010EE062), tag_num=0x05)
 10: 0x033A [0x20] SET_CLI_EVENT_UC_FLAG: Unlock player control
 11: 0x033C [0x21] END_EVENT
 12: 0x033D [0x00] END_REQSTACK()
```
