# 17752339 - Selenana

## Common Data

| Field            | Value                     |
|------------------|---------------------------|
| Zone             | Windurst Waters (ID: 238) |
| Block Size       | 2096 bytes                |
| Total Events     | 3                         |
| References Count | 79                        |

## List of Events

| Event ID              | Entrypoint   |   Size |   Instructions |
|-----------------------|--------------|--------|----------------|
| [65535](#event-65535) | 0x0000       |      1 |              1 |
| [976](#event-976)     | 0x0001       |   1347 |            185 |
| [977](#event-977)     | 0x0544       |    401 |             52 |

## DAT References (imed_data)

|   Index | Hex Value   |   Dec Value |
|---------|-------------|-------------|
|       0 | 0x00C8      |         200 |
|       1 | 0x0000      |           0 |
|       2 | 0x0013      |          19 |
|       3 | 0xFFFFDD5B  |  4294958427 |
|       4 | 0xFFFD6C20  |  4294798368 |
|       5 | 0xFFFFF061  |  4294963297 |
|       6 | 0x05AA      |        1450 |
|       7 | 0xFFFFE32C  |  4294959916 |
|       8 | 0xFFFD6766  |  4294797158 |
|       9 | 0x08E8      |        2280 |
|      10 | 0xFFFFF14D  |  4294963533 |
|      11 | 0xFFFD7EDB  |  4294803163 |
|      12 | 0x0108      |         264 |
|      13 | 0x00B6      |         182 |
|      14 | 0x003C      |          60 |
|      15 | 0x0171      |         369 |
|      16 | 0x0021      |          33 |
|      17 | 0x3035      |       12341 |
|      18 | 0x3036      |       12342 |
|      19 | 0x000F      |          15 |
|      20 | 0x0031      |          49 |
|      21 | 0x3037      |       12343 |
|      22 | 0x3038      |       12344 |
|      23 | 0x0006      |           6 |
|      24 | 0x3039      |       12345 |
|      25 | 0x303A      |       12346 |
|      26 | 0x0028      |          40 |
|      27 | 0x303B      |       12347 |
|      28 | 0x303C      |       12348 |
|      29 | 0x001E      |          30 |
|      30 | 0x303D      |       12349 |
|      31 | 0x303E      |       12350 |
|      32 | 0x303F      |       12351 |
|      33 | 0x0050      |          80 |
|      34 | 0x3040      |       12352 |
|      35 | 0x0026      |          38 |
|      36 | 0xFFFFEBE2  |  4294962146 |
|      37 | 0xFFFD76C0  |  4294801088 |
|      38 | 0xFFFFF060  |  4294963296 |
|      39 | 0x3041      |       12353 |
|      40 | 0x0020      |          32 |
|      41 | 0x3042      |       12354 |
|      42 | 0x3043      |       12355 |
|      43 | 0x3044      |       12356 |
|      44 | 0x0078      |         120 |
|      45 | 0x0120      |         288 |
|      46 | 0x000A      |          10 |
|      47 | 0x12AC      |        4780 |
|      48 | 0x14C2      |        5314 |
|      49 | 0xFFFFFCB7  |  4294966455 |
|      50 | 0x041A      |        1050 |
|      51 | 0x04FA      |        1274 |
|      52 | 0x00FC      |         252 |
|      53 | 0x3045      |       12357 |
|      54 | 0x3046      |       12358 |
|      55 | 0x3047      |       12359 |
|      56 | 0x3048      |       12360 |
|      57 | 0x3049      |       12361 |
|      58 | 0x304A      |       12362 |
|      59 | 0x304B      |       12363 |
|      60 | 0x00EE      |         238 |
|      61 | 0x0003      |           3 |
|      62 | 0x0110      |         272 |
|      63 | 0x03E7      |         999 |
|      64 | 0x304C      |       12364 |
|      65 | 0x304D      |       12365 |
|      66 | 0x0136      |         310 |
|      67 | 0x0097      |         151 |
|      68 | 0x02EC      |         748 |
|      69 | 0xFFFDA3E0  |  4294812640 |
|      70 | 0x09C8      |        2504 |
|      71 | 0xFFFDA95D  |  4294814045 |
|      72 | 0x0578      |        1400 |
|      73 | 0x0766      |        1894 |
|      74 | 0xFFFD6EF3  |  4294799091 |
|      75 | 0x304E      |       12366 |
|      76 | 0x304F      |       12367 |
|      77 | 0x3050      |       12368 |
|      78 | 0x3051      |       12369 |

## Events

### Event 65535

#### Metadata

| Field        | Value   |
|--------------|---------|
| Entrypoint   | 0x0000  |
| Data Size    | 1 bytes |
| Instructions | 1       |

```
      00 01 02 03 04 05 06 07  08 09 0A 0B 0C 0D 0E 0F
      -- -- -- -- -- -- -- --  -- -- -- -- -- -- -- --
0000: 00                                                .               
```

#### Opcodes

```
  0: 0x0000 [0x00] END_REQSTACK()
```

### Event 976

#### Metadata

| Field        | Value      |
|--------------|------------|
| Entrypoint   | 0x0001     |
| Data Size    | 1347 bytes |
| Instructions | 185        |

```
      00 01 02 03 04 05 06 07  08 09 0A 0B 0C 0D 0E 0F
      -- -- -- -- -- -- -- --  -- -- -- -- -- -- -- --
0000:    42 45 00 80 F8 FF FF  7F F8 FF FF 7F 66 64 6F   BE..........fdo
0010: 31 01 80 55 00 80 F8 FF  FF 7F F8 FF FF 7F 66 64  1..U..........fd
0020: 6F 31 46 01 38 02 80 92  01 B8 E0 0E 01 92 01 B9  o1F.8...........
0030: E0 0E 01 92 01 11 E1 0E  01 92 01 13 E1 0E 01 92  ................
0040: 01 12 E1 0E 01 4E 00 11  E1 0E 01 4E 00 13 E1 0E  .....N.....N....
0050: 01 2F 00 11 E1 0E 01 2F  00 13 E1 0E 01 94 01 F0  ./...../........
0060: FF FF 7F 94 01 12 E1 0E  01 94 01 11 E1 0E 01 80  ................
0070: F0 FF FF 7F BA 11 E1 0E  01 03 80 04 80 05 80 06  ................
0080: 80 BA 13 E1 0E 01 07 80  08 80 05 80 09 80 BA F0  ................
0090: FF FF 7F 0A 80 0B 80 05  80 0C 80 80 11 E1 0E 01  ................
00A0: 80 13 E1 0E 01 4A 13 E1  0E 01 11 E1 0E 01 5C 00  .....J........\.
00B0: 0D 80 5C 01 0D 80 9A 1C  0E 80 45 0F 80 F0 FF FF  ..\.......E.....
00C0: 7F F0 FF FF 7F 7A 7A 7A  7A 01 80 45 00 80 F0 FF  .....zzzz..E....
00D0: FF 7F F0 FF FF 7F 66 64  69 31 01 80 1C 0E 80 6E  ......fdi1.....n
00E0: 11 E1 0E 01 10 80 99 11  E1 0E 01 2B 11 E1 0E 01  ...........+....
00F0: 11 80 23 2B 11 E1 0E 01  12 80 23 99 11 E1 0E 01  ..#+......#.....
0100: 1C 0E 80 52 0F 80 F0 FF  FF 7F F0 FF FF 7F 7A 7A  ...R..........zz
0110: 7A 7A 45 0F 80 F0 FF FF  7F F0 FF FF 7F 7A 7A 7A  zzE..........zzz
0120: 30 01 80 1C 13 80 66 14  80 13 E1 0E 01 13 E1 0E  0.....f.........
0130: 01 74 6C 6B 30 2B 13 E1  0E 01 15 80 23 66 14 80  .tlk0+......#f..
0140: 13 E1 0E 01 13 E1 0E 01  74 6C 6B 31 1C 13 80 2B  ........tlk1...+
0150: 11 E1 0E 01 16 80 23 6E  11 E1 0E 01 17 80 99 11  ......#n........
0160: E1 0E 01 2B 11 E1 0E 01  18 80 23 52 0F 80 F0 FF  ...+......#R....
0170: FF 7F F0 FF FF 7F 7A 7A  7A 30 45 0F 80 F0 FF FF  ......zzz0E.....
0180: 7F F0 FF FF 7F 7A 7A 7A  31 01 80 2B 13 E1 0E 01  .....zzz1..+....
0190: 19 80 23 66 1A 80 11 E1  0E 01 11 E1 0E 01 67 6B  ..#f..........gk
01A0: 72 30 2B 11 E1 0E 01 1B  80 23 2B 11 E1 0E 01 1C  r0+......#+.....
01B0: 80 23 52 0F 80 F0 FF FF  7F F0 FF FF 7F 7A 7A 7A  .#R..........zzz
01C0: 31 4A F0 FF FF 7F 13 E1  0E 01 45 0F 80 F0 FF FF  1J........E.....
01D0: 7F F0 FF FF 7F 7A 7A 7A  32 01 80 1C 1D 80 2B 13  .....zzz2.....+.
01E0: E1 0E 01 1E 80 23 1C 1D  80 2B 11 E1 0E 01 1F 80  .....#...+......
01F0: 23 66 1A 80 11 E1 0E 01  11 E1 0E 01 67 6B 72 31  #f..........gkr1
0200: 2B 11 E1 0E 01 20 80 23  27 10 11 E1 0E 01 03 1C  +.... .#'.......
0210: 0E 80 52 0F 80 F0 FF FF  7F F0 FF FF 7F 7A 7A 7A  ..R..........zzz
0220: 32 4E 01 11 E1 0E 01 45  0F 80 F0 FF FF 7F F0 FF  2N.....E........
0230: FF 7F 7A 7A 7A 33 01 80  1C 21 80 4A 13 E1 0E 01  ..zzz3...!.J....
0240: F0 FF FF 7F 2B 13 E1 0E  01 22 80 23 52 0F 80 F0  ....+....".#R...
0250: FF FF 7F F0 FF FF 7F 7A  7A 7A 33 45 0F 80 F0 FF  .......zzz3E....
0260: FF 7F F0 FF FF 7F 7A 7A  7A 34 01 80 32 23 80 1F  ......zzz4..2#..
0270: 00 24 80 25 80 26 80 1F  01 1E F0 FF FF 7F 2B 13  .$.%.&........+.
0280: E1 0E 01 27 80 23 6E 13  E1 0E 01 28 80 99 13 E1  ...'.#n....(....
0290: 0E 01 2B 13 E1 0E 01 29  80 23 52 0F 80 F0 FF FF  ..+....).#R.....
02A0: 7F F0 FF FF 7F 7A 7A 7A  34 45 0F 80 F0 FF FF 7F  .....zzz4E......
02B0: F0 FF FF 7F 7A 7A 7A 35  01 80 1C 1D 80 66 14 80  ....zzz5.....f..
02C0: 13 E1 0E 01 13 E1 0E 01  74 6C 6B 30 2B 13 E1 0E  ........tlk0+...
02D0: 01 2A 80 23 2B 13 E1 0E  01 2B 80 23 66 14 80 13  .*.#+....+.#f...
02E0: E1 0E 01 13 E1 0E 01 74  6C 6B 31 5D 01 80 2C 80  .......tlk1]..,.
02F0: 1C 0E 80 45 00 80 F8 FF  FF 7F F8 FF FF 7F 66 64  ...E..........fd
0300: 6F 31 01 80 55 00 80 F8  FF FF 7F F8 FF FF 7F 66  o1..U..........f
0310: 64 6F 31 52 0F 80 F0 FF  FF 7F F0 FF FF 7F 7A 7A  do1R..........zz
0320: 7A 35 6A 01 80 0E 80 13  80 34 2D 80 77 01 80 01  z5j......4-.w...
0330: 80 AB 09 1C 2E 80 4E 00  12 E1 0E 01 2F 00 12 E1  ......N...../...
0340: 0E 01 80 12 E1 0E 01 BA  12 E1 0E 01 2F 80 30 80  ............/.0.
0350: 31 80 32 80 5B 33 80 12  E1 0E 01 12 E1 0E 01 73  1.2.[3.........s
0360: 6C 70 30 53 12 E1 0E 01  12 E1 0E 01 73 6C 70 30  lp0S........slp0
0370: 81 00 12 E1 0E 01 5C 00  34 80 5C 01 34 80 9A 45  ......\.4.\.4..E
0380: 0F 80 F0 FF FF 7F F0 FF  FF 7F 7A 7A 7A 36 01 80  ..........zzz6..
0390: 45 00 80 F0 FF FF 7F F0  FF FF 7F 66 64 69 31 01  E..........fdi1.
03A0: 80 1C 0E 80 2B 13 E1 0E  01 35 80 23 2B 13 E1 0E  ....+....5.#+...
03B0: 01 36 80 23 2B 13 E1 0E  01 37 80 23 52 0F 80 F0  .6.#+....7.#R...
03C0: FF FF 7F F0 FF FF 7F 7A  7A 7A 36 45 0F 80 F0 FF  .......zzz6E....
03D0: FF 7F F0 FF FF 7F 7A 7A  7A 37 01 80 1C 1D 80 2B  ......zzz7.....+
03E0: 13 E1 0E 01 38 80 23 2B  13 E1 0E 01 39 80 23 2B  ....8.#+....9.#+
03F0: 13 E1 0E 01 3A 80 23 2B  13 E1 0E 01 3B 80 23 1C  ....:.#+....;.#.
0400: 0E 80 45 00 80 F8 FF FF  7F F8 FF FF 7F 66 64 6F  ..E..........fdo
0410: 31 01 80 55 00 80 F8 FF  FF 7F F8 FF FF 7F 66 64  1..U..........fd
0420: 6F 31 52 0F 80 F0 FF FF  7F F0 FF FF 7F 7A 7A 7A  o1R..........zzz
0430: 37 81 01 12 E1 0E 01 35  3C 80 78 1C 3D 80 22 00  7......5<.x.=.".
0440: 45 3E 80 F0 FF FF 7F F0  FF FF 7F 6E 6F 73 65 01  E>.........nose.
0450: 80 55 3E 80 F0 FF FF 7F  F0 FF FF 7F 6E 6F 73 65  .U>.........nose
0460: 6A 3F 80 0E 80 13 80 AB  0A 2D F0 FF FF 7F F0 FF  j?.......-......
0470: FF 7F 31 70 62 31 1C 1D  80 80 13 E1 0E 01 80 F0  ..1pb1..........
0480: FF FF 7F BA F0 FF FF 7F  0A 80 0B 80 05 80 0C 80  ................
0490: 4A F0 FF FF 7F 13 E1 0E  01 1C 1D 80 45 0F 80 F0  J...........E...
04A0: FF FF 7F F0 FF FF 7F 7A  7A 7A 38 01 80 45 00 80  .......zzz8..E..
04B0: F0 FF FF 7F F0 FF FF 7F  66 64 69 31 01 80 1C 1D  ........fdi1....
04C0: 80 66 14 80 13 E1 0E 01  13 E1 0E 01 74 68 6B 31  .f..........thk1
04D0: 2B 13 E1 0E 01 40 80 23  2B 13 E1 0E 01 41 80 23  +....@.#+....A.#
04E0: 66 14 80 13 E1 0E 01 13  E1 0E 01 74 68 6B 32 1C  f..........thk2.
04F0: 0E 80 5D 01 80 2C 80 45  00 80 F8 FF FF 7F F8 FF  ..]..,.E........
0500: FF 7F 66 64 6F 31 01 80  55 00 80 F8 FF FF 7F F8  ..fdo1..U.......
0510: FF FF 7F 66 64 6F 31 52  42 80 F0 FF FF 7F F0 FF  ...fdo1RB.......
0520: FF 7F 7A 30 34 33 5C 00  43 80 5C 01 43 80 9A 46  ..z043\.C.\.C..F
0530: 00 45 00 80 F0 FF FF 7F  F0 FF FF 7F 66 64 69 32  .E..........fdi2
0540: 01 80 21 00                                       ..!.            
```

#### Opcodes

```
  0: 0x0001 [0x42] SET_CLI_EVENT_CANCEL_DATA()
  1: 0x0002 [0x45] LOAD_SCHEDULED_TASK: Load scheduler "fdo1" with entities [EventEntity, EventEntity], work=[200*, 0*]
  2: 0x0013 [0x55] WAIT_LOAD_SCHEDULER: Wait for scheduler "fdo1" with entities [EventEntity, EventEntity], work=200*
  3: 0x0022 [0x46] CAMERA_CONTROL: Disable user control
  4: 0x0024 [0x38] SET_CLIENT_EVENT_MODE(mode=19*)
  5: 0x0027 [0x92] Door:Rhinostery (ID: 17752248/0x010EE0B8)->Render.Flags3 ^= 0x01
  6: 0x002D [0x92] Door:Rhinostery (ID: 17752249/0x010EE0B9)->Render.Flags3 ^= 0x01
  7: 0x0033 [0x92] Maju-Naju (ID: 17752337/0x010EE111)->Render.Flags3 ^= 0x01
  8: 0x0039 [0x92] Selenana (ID: 17752339/0x010EE113)->Render.Flags3 ^= 0x01
  9: 0x003F [0x92] Shahr Yagenmhi (ID: 17752338/0x010EE112)->Render.Flags3 ^= 0x01
 10: 0x0045 [0x4E] SET_ENTITY_HIDE_FLAG: Show Maju-Naju (ID: 17752337/0x010EE111)
 11: 0x004B [0x4E] SET_ENTITY_HIDE_FLAG: Show Selenana (ID: 17752339/0x010EE113)
 12: 0x0051 [0x2F] Maju-Naju (ID: 17752337/0x010EE111)->Render.Flags0 &= ~0x80000 // Bit 19
 13: 0x0057 [0x2F] Selenana (ID: 17752339/0x010EE113)->Render.Flags0 &= ~0x80000 // Bit 19
 14: 0x005D [0x94] LocalPlayer->Render.Flags3 ^= 0x01
 15: 0x0063 [0x94] Shahr Yagenmhi (ID: 17752338/0x010EE112)->Render.Flags3 ^= 0x01
 16: 0x0069 [0x94] Maju-Naju (ID: 17752337/0x010EE111)->Render.Flags3 ^= 0x01
 17: 0x006F [0x80] LOAD_WAIT(entity=LocalPlayer)
 18: 0x0074 [0xBA] SET_ENTITY_POSITION(entity_id=Maju-Naju (ID: 17752337/0x010EE111), pos_x=-8.869*, pos_z=-168.928*, pos_y=-3.999*, direction=127.4°*)
 19: 0x0081 [0xBA] SET_ENTITY_POSITION(entity_id=Selenana (ID: 17752339/0x010EE113), pos_x=-7.380*, pos_z=-170.138*, pos_y=-3.999*, direction=200.4°*)
 20: 0x008E [0xBA] SET_ENTITY_POSITION(entity_id=LocalPlayer, pos_x=-3.763*, pos_z=-164.133*, pos_y=-3.999*, direction=23.2°*)
 21: 0x009B [0x80] LOAD_WAIT(entity=Maju-Naju (ID: 17752337/0x010EE111))
 22: 0x00A0 [0x80] LOAD_WAIT(entity=Selenana (ID: 17752339/0x010EE113))
 23: 0x00A5 [0x4A] Selenana (ID: 17752339/0x010EE113) looks at Maju-Naju (ID: 17752337/0x010EE111)
 24: 0x00AE [0x5C] MUSIC_CONTROL: Set Idle (Day) music to song 182*
 25: 0x00B2 [0x5C] MUSIC_CONTROL: Set Idle (Night) music to song 182*
 26: 0x00B6 [0x9A] WAIT_MUSIC_SERVER()
 27: 0x00B7 [0x1C] WAIT(60* ticks)
 28: 0x00BA [0x45] LOAD_SCHEDULED_TASK: Load scheduler "zzzz" with entities [LocalPlayer, LocalPlayer], work=[369*, 0*]
 29: 0x00CB [0x45] LOAD_SCHEDULED_TASK: Load scheduler "fdi1" with entities [LocalPlayer, LocalPlayer], work=[200*, 0*]
 30: 0x00DC [0x1C] WAIT(60* ticks)
 31: 0x00DF [0x6E] Maju-Naju (ID: 17752337/0x010EE111) uses emote 33*
 32: 0x00E6 [0x99] Wait for Maju-Naju (ID: 17752337/0x010EE111) animation to complete
 33: 0x00EB [0x2B] Maju-Naju (ID: 17752337/0x010EE111) [12341*]:
    → "Aaarrrggghhh!!! Useless! Completaruly useless!"
 34: 0x00F2 [0x23] WAIT_FOR_DIALOG_INTERACTION
 35: 0x00F3 [0x2B] Maju-Naju (ID: 17752337/0x010EE111) [12342*]:
    → "It's too late. Far too late...."
 36: 0x00FA [0x23] WAIT_FOR_DIALOG_INTERACTION
 37: 0x00FB [0x99] Wait for Maju-Naju (ID: 17752337/0x010EE111) animation to complete
 38: 0x0100 [0x1C] WAIT(60* ticks)
 39: 0x0103 [0x52] END_LOAD_SCHEDULER: End scheduler "zzzz" with entities [LocalPlayer, LocalPlayer], work=369*
 40: 0x0112 [0x45] LOAD_SCHEDULED_TASK: Load scheduler "zzz0" with entities [LocalPlayer, LocalPlayer], work=[369*, 0*]
 41: 0x0123 [0x1C] WAIT(15* ticks)
 42: 0x0126 [0x66] LOAD_EXT_SCHEDULER_MAIN: Load scheduler "tlk0" with entities [Selenana (ID: 17752339/0x010EE113), Selenana (ID: 17752339/0x010EE113)], work=49*
 43: 0x0135 [0x2B] Selenana (ID: 17752339/0x010EE113) [12343*]:
    → "What's wrong!? Isn't this the book you've been searching for?"
 44: 0x013C [0x23] WAIT_FOR_DIALOG_INTERACTION
 45: 0x013D [0x66] LOAD_EXT_SCHEDULER_MAIN: Load scheduler "tlk1" with entities [Selenana (ID: 17752339/0x010EE113), Selenana (ID: 17752339/0x010EE113)], work=49*
 46: 0x014C [0x1C] WAIT(15* ticks)
 47: 0x014F [0x2B] Maju-Naju (ID: 17752337/0x010EE111) [12344*]:
    → "Yes, yes, the book is astounding. It contains a comprehensive guide on how to brew all manner-wanner of potions and poultices. I now know that the essence of the fireblossom will prove efficacious in curing the Eternal Slumber sickness..."
 48: 0x0156 [0x23] WAIT_FOR_DIALOG_INTERACTION
 49: 0x0157 [0x6E] Maju-Naju (ID: 17752337/0x010EE111) uses emote 6*
 50: 0x015E [0x99] Wait for Maju-Naju (ID: 17752337/0x010EE111) animation to complete
 51: 0x0163 [0x2B] Maju-Naju (ID: 17752337/0x010EE111) [12345*]:
    → "Only...every known source of fireblossom was destroyed towards the end of the Great War."
 52: 0x016A [0x23] WAIT_FOR_DIALOG_INTERACTION
 53: 0x016B [0x52] END_LOAD_SCHEDULER: End scheduler "zzz0" with entities [LocalPlayer, LocalPlayer], work=369*
 54: 0x017A [0x45] LOAD_SCHEDULED_TASK: Load scheduler "zzz1" with entities [LocalPlayer, LocalPlayer], work=[369*, 0*]
 55: 0x018B [0x2B] Selenana (ID: 17752339/0x010EE113) [12346*]:
    → "!!!"
 56: 0x0192 [0x23] WAIT_FOR_DIALOG_INTERACTION
 57: 0x0193 [0x66] LOAD_EXT_SCHEDULER_MAIN: Load scheduler "gkr0" with entities [Maju-Naju (ID: 17752337/0x010EE111), Maju-Naju (ID: 17752337/0x010EE111)], work=40*
 58: 0x01A2 [0x2B] Maju-Naju (ID: 17752337/0x010EE111) [12347*]:
    → "After spending so many days and weeks and months scour-wouring the Rhinostery records and the Library of Magic archives..."
 59: 0x01A9 [0x23] WAIT_FOR_DIALOG_INTERACTION
 60: 0x01AA [0x2B] Maju-Naju (ID: 17752337/0x010EE111) [12348*]:
    → "After finally locating this Far Eastern tome and learning the method for making the medicine..."
 61: 0x01B1 [0x23] WAIT_FOR_DIALOG_INTERACTION
 62: 0x01B2 [0x52] END_LOAD_SCHEDULER: End scheduler "zzz1" with entities [LocalPlayer, LocalPlayer], work=369*
 63: 0x01C1 [0x4A] LocalPlayer looks at Selenana (ID: 17752339/0x010EE113)
 64: 0x01CA [0x45] LOAD_SCHEDULED_TASK: Load scheduler "zzz2" with entities [LocalPlayer, LocalPlayer], work=[369*, 0*]
 65: 0x01DB [0x1C] WAIT(30* ticks)
 66: 0x01DE [0x2B] Selenana (ID: 17752339/0x010EE113) [12349*]:
    → "..."
 67: 0x01E5 [0x23] WAIT_FOR_DIALOG_INTERACTION
 68: 0x01E6 [0x1C] WAIT(30* ticks)
 69: 0x01E9 [0x2B] Maju-Naju (ID: 17752337/0x010EE111) [12350*]:
    → "I find that the information in the book is meaningless!"
 70: 0x01F0 [0x23] WAIT_FOR_DIALOG_INTERACTION
 71: 0x01F1 [0x66] LOAD_EXT_SCHEDULER_MAIN: Load scheduler "gkr1" with entities [Maju-Naju (ID: 17752337/0x010EE111), Maju-Naju (ID: 17752337/0x010EE111)], work=40*
 72: 0x0200 [0x2B] Maju-Naju (ID: 17752337/0x010EE111) [12351*]:
    → "And now she will slumber-wumber forever..."
 73: 0x0207 [0x23] WAIT_FOR_DIALOG_INTERACTION
 74: 0x0208 [0x27] REQ_SET(priority=0x10, entity_id=Maju-Naju (ID: 17752337/0x010EE111), tag_num=0x03)
 75: 0x020F [0x1C] WAIT(60* ticks)
 76: 0x0212 [0x52] END_LOAD_SCHEDULER: End scheduler "zzz2" with entities [LocalPlayer, LocalPlayer], work=369*
 77: 0x0221 [0x4E] SET_ENTITY_HIDE_FLAG: Hide Maju-Naju (ID: 17752337/0x010EE111)
 78: 0x0227 [0x45] LOAD_SCHEDULED_TASK: Load scheduler "zzz3" with entities [LocalPlayer, LocalPlayer], work=[369*, 0*]
 79: 0x0238 [0x1C] WAIT(80* ticks)
 80: 0x023B [0x4A] Selenana (ID: 17752339/0x010EE113) looks at LocalPlayer
 81: 0x0244 [0x2B] Selenana (ID: 17752339/0x010EE113) [12352*]:
    → "Oh, we have a guestaru."
 82: 0x024B [0x23] WAIT_FOR_DIALOG_INTERACTION
 83: 0x024C [0x52] END_LOAD_SCHEDULER: End scheduler "zzz3" with entities [LocalPlayer, LocalPlayer], work=369*
 84: 0x025B [0x45] LOAD_SCHEDULED_TASK: Load scheduler "zzz4" with entities [LocalPlayer, LocalPlayer], work=[369*, 0*]
 85: 0x026C [0x32] ExtData[1]->MainSpeed = 38* * 0.1
 86: 0x026F [0x1F] MOVE_ENTITY: EventEntity moves to X=-5.150*, Z=-166.208*, Y=-4.000*
 87: 0x0277 [0x1F] MOVE_ENTITY: Update entity position (mode=1)
 88: 0x0279 [0x1E] EventEntity looks at LocalPlayer and starts talking
 89: 0x027E [0x2B] Selenana (ID: 17752339/0x010EE113) [12353*]:
    → "Hm? Who's he? That's Maju-Naju, a Rhinostery researcher."
 90: 0x0285 [0x23] WAIT_FOR_DIALOG_INTERACTION
 91: 0x0286 [0x6E] Selenana (ID: 17752339/0x010EE113) uses emote 32*
 92: 0x028D [0x99] Wait for Selenana (ID: 17752339/0x010EE113) animation to complete
 93: 0x0292 [0x2B] Selenana (ID: 17752339/0x010EE113) [12354*]:
    → "I can explain his somewhat unscientific behavior-wavior..."
 94: 0x0299 [0x23] WAIT_FOR_DIALOG_INTERACTION
 95: 0x029A [0x52] END_LOAD_SCHEDULER: End scheduler "zzz4" with entities [LocalPlayer, LocalPlayer], work=369*
 96: 0x02A9 [0x45] LOAD_SCHEDULED_TASK: Load scheduler "zzz5" with entities [LocalPlayer, LocalPlayer], work=[369*, 0*]
 97: 0x02BA [0x1C] WAIT(30* ticks)
 98: 0x02BD [0x66] LOAD_EXT_SCHEDULER_MAIN: Load scheduler "tlk0" with entities [Selenana (ID: 17752339/0x010EE113), Selenana (ID: 17752339/0x010EE113)], work=49*
 99: 0x02CC [0x2B] Selenana (ID: 17752339/0x010EE113) [12355*]:
    → "Have you heard of the Eternal Slumber sickness? Maju-Naju has been researching a cure for the pastaru twenty years."
100: 0x02D3 [0x23] WAIT_FOR_DIALOG_INTERACTION
101: 0x02D4 [0x2B] Selenana (ID: 17752339/0x010EE113) [12356*]:
    → "And it has all been for her..."
102: 0x02DB [0x23] WAIT_FOR_DIALOG_INTERACTION
103: 0x02DC [0x66] LOAD_EXT_SCHEDULER_MAIN: Load scheduler "tlk1" with entities [Selenana (ID: 17752339/0x010EE113), Selenana (ID: 17752339/0x010EE113)], work=49*
104: 0x02EB [0x5D] SET_MUSIC_VOLUME(volume=0*, fade_time=120*)
105: 0x02F0 [0x1C] WAIT(60* ticks)
106: 0x02F3 [0x45] LOAD_SCHEDULED_TASK: Load scheduler "fdo1" with entities [EventEntity, EventEntity], work=[200*, 0*]
107: 0x0304 [0x55] WAIT_LOAD_SCHEDULER: Wait for scheduler "fdo1" with entities [EventEntity, EventEntity], work=200*
108: 0x0313 [0x52] END_LOAD_SCHEDULER: End scheduler "zzz5" with entities [LocalPlayer, LocalPlayer], work=369*
109: 0x0322 [0x6A] CHANGE_SOUND_VOLUME: Set (Effects/System/Zone/Master)* volume to 0*, fade_time=60*
110: 0x0329 [0x34] LOAD_UNLOAD_ZONE(zone_id=288*)
111: 0x032C [0x77] SET_EVENT_TIME_WEATHER(hour=0*, weather=0*)
112: 0x0331 [0xAB] EventEntity->UnknownFlag = 1 // Enable unknown flag
113: 0x0333 [0x1C] WAIT(10* ticks)
114: 0x0336 [0x4E] SET_ENTITY_HIDE_FLAG: Show Shahr Yagenmhi (ID: 17752338/0x010EE112)
115: 0x033C [0x2F] Shahr Yagenmhi (ID: 17752338/0x010EE112)->Render.Flags0 &= ~0x80000 // Bit 19
116: 0x0342 [0x80] LOAD_WAIT(entity=Shahr Yagenmhi (ID: 17752338/0x010EE112))
117: 0x0347 [0xBA] SET_ENTITY_POSITION(entity_id=Shahr Yagenmhi (ID: 17752338/0x010EE112), pos_x=4.780*, pos_z=5.314*, pos_y=-0.841*, direction=92.3°*)
118: 0x0354 [0x5B] LOAD_EXT_SCHEDULER: Load scheduler "slp0" with entities [Shahr Yagenmhi (ID: 17752338/0x010EE112), Shahr Yagenmhi (ID: 17752338/0x010EE112)], work=1274*
119: 0x0363 [0x53] WAIT_SCHEDULER_TASK: Wait for scheduler "slp0" with entities [Shahr Yagenmhi (ID: 17752338/0x010EE112), Shahr Yagenmhi (ID: 17752338/0x010EE112)]
120: 0x0370 [0x81] SET_ENTITY_BLINKING(blink_flag=0x00, entity=Shahr Yagenmhi (ID: 17752338/0x010EE112))
121: 0x0376 [0x5C] MUSIC_CONTROL: Set Idle (Day) music to song 252*
122: 0x037A [0x5C] MUSIC_CONTROL: Set Idle (Night) music to song 252*
123: 0x037E [0x9A] WAIT_MUSIC_SERVER()
124: 0x037F [0x45] LOAD_SCHEDULED_TASK: Load scheduler "zzz6" with entities [LocalPlayer, LocalPlayer], work=[369*, 0*]
125: 0x0390 [0x45] LOAD_SCHEDULED_TASK: Load scheduler "fdi1" with entities [LocalPlayer, LocalPlayer], work=[200*, 0*]
126: 0x03A1 [0x1C] WAIT(60* ticks)
127: 0x03A4 [0x2B] Selenana (ID: 17752339/0x010EE113) [12357*]:
    → "You see, Maju-Naju has a Mithra friend he's known since childhood."
128: 0x03AB [0x23] WAIT_FOR_DIALOG_INTERACTION
129: 0x03AC [0x2B] Selenana (ID: 17752339/0x010EE113) [12358*]:
    → "Her name is Shahr Yagenmhi. Maju-Naju occasionally asks me to care for her, so I understand his desperation."
130: 0x03B3 [0x23] WAIT_FOR_DIALOG_INTERACTION
131: 0x03B4 [0x2B] Selenana (ID: 17752339/0x010EE113) [12359*]:
    → "Shahr was said to be an incredibly brightaru and cheerful child."
132: 0x03BB [0x23] WAIT_FOR_DIALOG_INTERACTION
133: 0x03BC [0x52] END_LOAD_SCHEDULER: End scheduler "zzz6" with entities [LocalPlayer, LocalPlayer], work=369*
134: 0x03CB [0x45] LOAD_SCHEDULED_TASK: Load scheduler "zzz7" with entities [LocalPlayer, LocalPlayer], work=[369*, 0*]
135: 0x03DC [0x1C] WAIT(30* ticks)
136: 0x03DF [0x2B] Selenana (ID: 17752339/0x010EE113) [12360*]:
    → "But she had the misfortune to contractaru a ridiculously rare and insidious illness known as the Eternal Slumber sickness."
137: 0x03E6 [0x23] WAIT_FOR_DIALOG_INTERACTION
138: 0x03E7 [0x2B] Selenana (ID: 17752339/0x010EE113) [12361*]:
    → "A victim of this fright-wightful illness will gradually sleep for longer and longer periods each night, until eventually the body enters a comatose state..."
139: 0x03EE [0x23] WAIT_FOR_DIALOG_INTERACTION
140: 0x03EF [0x2B] Selenana (ID: 17752339/0x010EE113) [12362*]:
    → "With the proper care, Shahr won't actually perish, but she will also never wake again."
141: 0x03F6 [0x23] WAIT_FOR_DIALOG_INTERACTION
142: 0x03F7 [0x2B] Selenana (ID: 17752339/0x010EE113) [12363*]:
    → "If you saw her now, it would seem that she might open her eyes at any momentaru. However, Shahr has been trapped within her dreams for more than twenty years..."
143: 0x03FE [0x23] WAIT_FOR_DIALOG_INTERACTION
144: 0x03FF [0x1C] WAIT(60* ticks)
145: 0x0402 [0x45] LOAD_SCHEDULED_TASK: Load scheduler "fdo1" with entities [EventEntity, EventEntity], work=[200*, 0*]
146: 0x0413 [0x55] WAIT_LOAD_SCHEDULER: Wait for scheduler "fdo1" with entities [EventEntity, EventEntity], work=200*
147: 0x0422 [0x52] END_LOAD_SCHEDULER: End scheduler "zzz7" with entities [LocalPlayer, LocalPlayer], work=369*
148: 0x0431 [0x81] SET_ENTITY_BLINKING(blink_flag=0x01, entity=Shahr Yagenmhi (ID: 17752338/0x010EE112))
149: 0x0437 [0x35] LOAD_ZONE_NO_CLOSE(zone_id=238*)
150: 0x043A [0x78] ENABLE_GAME_TIMER_RESET_WEATHER()
151: 0x043B [0x1C] WAIT(3* ticks)
152: 0x043E [0x22] ENTITY_HIDE_FLAG(enabled=0x00)
153: 0x0440 [0x45] LOAD_SCHEDULED_TASK: Load scheduler "nose" with entities [LocalPlayer, LocalPlayer], work=[272*, 0*]
154: 0x0451 [0x55] WAIT_LOAD_SCHEDULER: Wait for scheduler "nose" with entities [LocalPlayer, LocalPlayer], work=272*
155: 0x0460 [0x6A] CHANGE_SOUND_VOLUME: Set (Effects/System/Zone/Master)* volume to 999*, fade_time=60*
156: 0x0467 [0xAB] EventEntity->UnknownFlag = 0 // Disable unknown flag
157: 0x0469 [0x2D] CREATE_ZONE_SCHEDULER_TASK: Create scheduler "1pb1" with entities [LocalPlayer, LocalPlayer]
158: 0x0476 [0x1C] WAIT(30* ticks)
159: 0x0479 [0x80] LOAD_WAIT(entity=Selenana (ID: 17752339/0x010EE113))
160: 0x047E [0x80] LOAD_WAIT(entity=LocalPlayer)
161: 0x0483 [0xBA] SET_ENTITY_POSITION(entity_id=LocalPlayer, pos_x=-3.763*, pos_z=-164.133*, pos_y=-3.999*, direction=23.2°*)
162: 0x0490 [0x4A] LocalPlayer looks at Selenana (ID: 17752339/0x010EE113)
163: 0x0499 [0x1C] WAIT(30* ticks)
164: 0x049C [0x45] LOAD_SCHEDULED_TASK: Load scheduler "zzz8" with entities [LocalPlayer, LocalPlayer], work=[369*, 0*]
165: 0x04AD [0x45] LOAD_SCHEDULED_TASK: Load scheduler "fdi1" with entities [LocalPlayer, LocalPlayer], work=[200*, 0*]
166: 0x04BE [0x1C] WAIT(30* ticks)
167: 0x04C1 [0x66] LOAD_EXT_SCHEDULER_MAIN: Load scheduler "thk1" with entities [Selenana (ID: 17752339/0x010EE113), Selenana (ID: 17752339/0x010EE113)], work=49*
168: 0x04D0 [0x2B] Selenana (ID: 17752339/0x010EE113) [12364*]:
    → "The key was the essence of the fireblossom, the last remnants of which were losty-wost by the end of the Great War..."
169: 0x04D7 [0x23] WAIT_FOR_DIALOG_INTERACTION
170: 0x04D8 [0x2B] Selenana (ID: 17752339/0x010EE113) [12365*]:
    → "Well, I'm sure Maju-Naju has no further wish to peruse this book. Perhaps you mightaru be interested in brush-wushing up on your herbology?"
171: 0x04DF [0x23] WAIT_FOR_DIALOG_INTERACTION
172: 0x04E0 [0x66] LOAD_EXT_SCHEDULER_MAIN: Load scheduler "thk2" with entities [Selenana (ID: 17752339/0x010EE113), Selenana (ID: 17752339/0x010EE113)], work=49*
173: 0x04EF [0x1C] WAIT(60* ticks)
174: 0x04F2 [0x5D] SET_MUSIC_VOLUME(volume=0*, fade_time=120*)
175: 0x04F7 [0x45] LOAD_SCHEDULED_TASK: Load scheduler "fdo1" with entities [EventEntity, EventEntity], work=[200*, 0*]
176: 0x0508 [0x55] WAIT_LOAD_SCHEDULER: Wait for scheduler "fdo1" with entities [EventEntity, EventEntity], work=200*
177: 0x0517 [0x52] END_LOAD_SCHEDULER: End scheduler "z043" with entities [LocalPlayer, LocalPlayer], work=310*
178: 0x0526 [0x5C] MUSIC_CONTROL: Set Idle (Day) music to song 151*
179: 0x052A [0x5C] MUSIC_CONTROL: Set Idle (Night) music to song 151*
180: 0x052E [0x9A] WAIT_MUSIC_SERVER()
181: 0x052F [0x46] CAMERA_CONTROL: Restore default settings
182: 0x0531 [0x45] LOAD_SCHEDULED_TASK: Load scheduler "fdi2" with entities [LocalPlayer, LocalPlayer], work=[200*, 0*]
183: 0x0542 [0x21] END_EVENT
184: 0x0543 [0x00] END_REQSTACK()
```

### Event 977

#### Metadata

| Field        | Value     |
|--------------|-----------|
| Entrypoint   | 0x0544    |
| Data Size    | 401 bytes |
| Instructions | 52        |

```
      00 01 02 03 04 05 06 07  08 09 0A 0B 0C 0D 0E 0F
      -- -- -- -- -- -- -- --  -- -- -- -- -- -- -- --
0540:             42 45 00 80  F8 FF FF 7F F8 FF FF 7F      BE..........
0550: 66 64 6F 31 01 80 55 00  80 F8 FF FF 7F F8 FF FF  fdo1..U.........
0560: 7F 66 64 6F 31 46 01 38  02 80 92 01 B8 E0 0E 01  .fdo1F.8........
0570: 92 01 B9 E0 0E 01 92 01  11 E1 0E 01 92 01 14 E1  ................
0580: 0E 01 92 01 12 E1 0E 01  4E 00 11 E1 0E 01 4E 00  ........N.....N.
0590: 12 E1 0E 01 4E 00 14 E1  0E 01 2F 00 11 E1 0E 01  ....N...../.....
05A0: 2F 00 14 E1 0E 01 2F 00  12 E1 0E 01 94 01 F0 FF  /...../.........
05B0: FF 7F 80 F0 FF FF 7F 80  11 E1 0E 01 80 14 E1 0E  ................
05C0: 01 BA F0 FF FF 7F 0A 80  0B 80 05 80 0C 80 BA 11  ................
05D0: E1 0E 01 44 80 45 80 05  80 0C 80 BA 12 E1 0E 01  ...D.E..........
05E0: 46 80 47 80 05 80 48 80  BA 14 E1 0E 01 49 80 4A  F.G...H......I.J
05F0: 80 05 80 0C 80 4A 12 E1  0E 01 11 E1 0E 01 1C 0E  .....J..........
0600: 80 27 10 14 E1 0E 01 02  45 0F 80 F0 FF FF 7F F0  .'......E.......
0610: FF FF 7F 7A 30 30 39 01  80 45 00 80 F0 FF FF 7F  ...z009..E......
0620: F0 FF FF 7F 66 64 69 31  01 80 4A F0 FF FF 7F 14  ....fdi1..J.....
0630: E1 0E 01 2B 14 E1 0E 01  4B 80 23 2B 14 E1 0E 01  ...+....K.#+....
0640: 4C 80 23 2A 10 14 E1 0E  01 52 0F 80 F0 FF FF 7F  L.#*.....R......
0650: F0 FF FF 7F 7A 7A 7A 39  45 0F 80 F0 FF FF 7F F0  ....zzz9E.......
0660: FF FF 7F 7A 7A 31 30 01  80 1C 1D 80 2B 14 E1 0E  ...zz10.....+...
0670: 01 4D 80 23 4A 14 E1 0E  01 11 E1 0E 01 2B 14 E1  .M.#J........+..
0680: 0E 01 4E 80 23 4A F0 FF  FF 7F 11 E1 0E 01 1C 0E  ..N.#J..........
0690: 80 45 00 80 F8 FF FF 7F  F8 FF FF 7F 66 64 6F 31  .E..........fdo1
06A0: 01 80 55 00 80 F8 FF FF  7F F8 FF FF 7F 66 64 6F  ..U..........fdo
06B0: 31 52 0F 80 F0 FF FF 7F  F0 FF FF 7F 7A 7A 31 30  1R..........zz10
06C0: 46 00 45 00 80 F0 FF FF  7F F0 FF FF 7F 66 64 69  F.E..........fdi
06D0: 32 01 80 21 00                                    2..!.           
```

#### Opcodes

```
  0: 0x0544 [0x42] SET_CLI_EVENT_CANCEL_DATA()
  1: 0x0545 [0x45] LOAD_SCHEDULED_TASK: Load scheduler "fdo1" with entities [EventEntity, EventEntity], work=[200*, 0*]
  2: 0x0556 [0x55] WAIT_LOAD_SCHEDULER: Wait for scheduler "fdo1" with entities [EventEntity, EventEntity], work=200*
  3: 0x0565 [0x46] CAMERA_CONTROL: Disable user control
  4: 0x0567 [0x38] SET_CLIENT_EVENT_MODE(mode=19*)
  5: 0x056A [0x92] Door:Rhinostery (ID: 17752248/0x010EE0B8)->Render.Flags3 ^= 0x01
  6: 0x0570 [0x92] Door:Rhinostery (ID: 17752249/0x010EE0B9)->Render.Flags3 ^= 0x01
  7: 0x0576 [0x92] Maju-Naju (ID: 17752337/0x010EE111)->Render.Flags3 ^= 0x01
  8: 0x057C [0x92] Ramchacha (ID: 17752340/0x010EE114)->Render.Flags3 ^= 0x01
  9: 0x0582 [0x92] Shahr Yagenmhi (ID: 17752338/0x010EE112)->Render.Flags3 ^= 0x01
 10: 0x0588 [0x4E] SET_ENTITY_HIDE_FLAG: Show Maju-Naju (ID: 17752337/0x010EE111)
 11: 0x058E [0x4E] SET_ENTITY_HIDE_FLAG: Show Shahr Yagenmhi (ID: 17752338/0x010EE112)
 12: 0x0594 [0x4E] SET_ENTITY_HIDE_FLAG: Show Ramchacha (ID: 17752340/0x010EE114)
 13: 0x059A [0x2F] Maju-Naju (ID: 17752337/0x010EE111)->Render.Flags0 &= ~0x80000 // Bit 19
 14: 0x05A0 [0x2F] Ramchacha (ID: 17752340/0x010EE114)->Render.Flags0 &= ~0x80000 // Bit 19
 15: 0x05A6 [0x2F] Shahr Yagenmhi (ID: 17752338/0x010EE112)->Render.Flags0 &= ~0x80000 // Bit 19
 16: 0x05AC [0x94] LocalPlayer->Render.Flags3 ^= 0x01
 17: 0x05B2 [0x80] LOAD_WAIT(entity=LocalPlayer)
 18: 0x05B7 [0x80] LOAD_WAIT(entity=Maju-Naju (ID: 17752337/0x010EE111))
 19: 0x05BC [0x80] LOAD_WAIT(entity=Ramchacha (ID: 17752340/0x010EE114))
 20: 0x05C1 [0xBA] SET_ENTITY_POSITION(entity_id=LocalPlayer, pos_x=-3.763*, pos_z=-164.133*, pos_y=-3.999*, direction=23.2°*)
 21: 0x05CE [0xBA] SET_ENTITY_POSITION(entity_id=Maju-Naju (ID: 17752337/0x010EE111), pos_x=0.748*, pos_z=-154.656*, pos_y=-3.999*, direction=23.2°*)
 22: 0x05DB [0xBA] SET_ENTITY_POSITION(entity_id=Shahr Yagenmhi (ID: 17752338/0x010EE112), pos_x=2.504*, pos_z=-153.251*, pos_y=-3.999*, direction=123.0°*)
 23: 0x05E8 [0xBA] SET_ENTITY_POSITION(entity_id=Ramchacha (ID: 17752340/0x010EE114), pos_x=1.894*, pos_z=-168.205*, pos_y=-3.999*, direction=23.2°*)
 24: 0x05F5 [0x4A] Shahr Yagenmhi (ID: 17752338/0x010EE112) looks at Maju-Naju (ID: 17752337/0x010EE111)
 25: 0x05FE [0x1C] WAIT(60* ticks)
 26: 0x0601 [0x27] REQ_SET(priority=0x10, entity_id=Ramchacha (ID: 17752340/0x010EE114), tag_num=0x02)
 27: 0x0608 [0x45] LOAD_SCHEDULED_TASK: Load scheduler "z009" with entities [LocalPlayer, LocalPlayer], work=[369*, 0*]
 28: 0x0619 [0x45] LOAD_SCHEDULED_TASK: Load scheduler "fdi1" with entities [LocalPlayer, LocalPlayer], work=[200*, 0*]
 29: 0x062A [0x4A] LocalPlayer looks at Ramchacha (ID: 17752340/0x010EE114)
 30: 0x0633 [0x2B] Ramchacha (ID: 17752340/0x010EE114) [12366*]:
    → "Oh, hello there. You have business with Maju-Naju?"
 31: 0x063A [0x23] WAIT_FOR_DIALOG_INTERACTION
 32: 0x063B [0x2B] Ramchacha (ID: 17752340/0x010EE114) [12367*]:
    → "You wish to return a book?"
 33: 0x0642 [0x23] WAIT_FOR_DIALOG_INTERACTION
 34: 0x0643 [0x2A] GET_REQ_LEVEL(level=16, entity_id=Ramchacha (ID: 17752340/0x010EE114))
 35: 0x0649 [0x52] END_LOAD_SCHEDULER: End scheduler "zzz9" with entities [LocalPlayer, LocalPlayer], work=369*
 36: 0x0658 [0x45] LOAD_SCHEDULED_TASK: Load scheduler "zz10" with entities [LocalPlayer, LocalPlayer], work=[369*, 0*]
 37: 0x0669 [0x1C] WAIT(30* ticks)
 38: 0x066C [0x2B] Ramchacha (ID: 17752340/0x010EE114) [12368*]:
    → "I'd be happy to handy-wand it over for you. Wait, isn't this the tome describing a possible cure for the Eternal Slumber sickness? I don'taru believe he needs it anymore."
 39: 0x0673 [0x23] WAIT_FOR_DIALOG_INTERACTION
 40: 0x0674 [0x4A] Ramchacha (ID: 17752340/0x010EE114) looks at Maju-Naju (ID: 17752337/0x010EE111)
 41: 0x067D [0x2B] Ramchacha (ID: 17752340/0x010EE114) [12369*]:
    → "Hm? Well, he did concoctaru the medicine to treat his wife Shahr's illness some years ago now..."
 42: 0x0684 [0x23] WAIT_FOR_DIALOG_INTERACTION
 43: 0x0685 [0x4A] LocalPlayer looks at Maju-Naju (ID: 17752337/0x010EE111)
 44: 0x068E [0x1C] WAIT(60* ticks)
 45: 0x0691 [0x45] LOAD_SCHEDULED_TASK: Load scheduler "fdo1" with entities [EventEntity, EventEntity], work=[200*, 0*]
 46: 0x06A2 [0x55] WAIT_LOAD_SCHEDULER: Wait for scheduler "fdo1" with entities [EventEntity, EventEntity], work=200*
 47: 0x06B1 [0x52] END_LOAD_SCHEDULER: End scheduler "zz10" with entities [LocalPlayer, LocalPlayer], work=369*
 48: 0x06C0 [0x46] CAMERA_CONTROL: Restore default settings
 49: 0x06C2 [0x45] LOAD_SCHEDULED_TASK: Load scheduler "fdi2" with entities [LocalPlayer, LocalPlayer], work=[200*, 0*]
 50: 0x06D3 [0x21] END_EVENT
 51: 0x06D4 [0x00] END_REQSTACK()
```
