# 17752079 - Ten of Hearts

## Common Data

| Field            | Value                     |
|------------------|---------------------------|
| Zone             | Windurst Waters (ID: 238) |
| Block Size       | 944 bytes                 |
| Total Events     | 32                        |
| References Count | 61                        |

## List of Events

| Event ID              | Entrypoint   |   Size |   Instructions |
|-----------------------|--------------|--------|----------------|
| [65535](#event-65535) | 0x0000       |      1 |              1 |
| [107](#event-107)     | 0x0001       |     19 |             10 |
| [114](#event-114)     | 0x0014       |     15 |              8 |
| [118](#event-118)     | 0x0023       |      1 |              1 |
| [119](#event-119)     | 0x0024       |      1 |              1 |
| [120](#event-120)     | 0x0025       |      1 |              1 |
| [124](#event-124)     | 0x0026       |     19 |             10 |
| [129](#event-129)     | 0x0039       |     19 |             10 |
| [134](#event-134)     | 0x004C       |     23 |             12 |
| [139](#event-139)     | 0x0063       |     19 |             10 |
| [154](#event-154)     | 0x0076       |     19 |             10 |
| [159](#event-159)     | 0x0089       |     19 |             10 |
| [180](#event-180)     | 0x009C       |     23 |             12 |
| [214](#event-214)     | 0x00B3       |     19 |             10 |
| [220](#event-220)     | 0x00C6       |     19 |             10 |
| [226](#event-226)     | 0x00D9       |     19 |             10 |
| [231](#event-231)     | 0x00EC       |     19 |             10 |
| [235](#event-235)     | 0x00FF       |     19 |             10 |
| [240](#event-240)     | 0x0112       |     19 |             10 |
| [245](#event-245)     | 0x0125       |     19 |             10 |
| [248](#event-248)     | 0x0138       |     19 |             10 |
| [770](#event-770)     | 0x014B       |     19 |             10 |
| [704](#event-704)     | 0x015E       |     23 |             12 |
| [709](#event-709)     | 0x0175       |     19 |             10 |
| [714](#event-714)     | 0x0188       |     19 |             10 |
| [733](#event-733)     | 0x019B       |     19 |             10 |
| [751](#event-751)     | 0x01AE       |     19 |             10 |
| [767](#event-767)     | 0x01C1       |     15 |              8 |
| [828](#event-828)     | 0x01D0       |     23 |             12 |
| [836](#event-836)     | 0x01E7       |     19 |             10 |
| [833](#event-833)     | 0x01FA       |     23 |             12 |
| [840](#event-840)     | 0x0211       |     27 |             14 |

## DAT References (imed_data)

|   Index | Hex Value   |   Dec Value |
|---------|-------------|-------------|
|       0 | 0x1D58      |        7512 |
|       1 | 0x1D59      |        7513 |
|       2 | 0x1D63      |        7523 |
|       3 | 0x1D87      |        7559 |
|       4 | 0x1D88      |        7560 |
|       5 | 0x1D8E      |        7566 |
|       6 | 0x1D8F      |        7567 |
|       7 | 0x1D9D      |        7581 |
|       8 | 0x1D9E      |        7582 |
|       9 | 0x1D9F      |        7583 |
|      10 | 0x1DB0      |        7600 |
|      11 | 0x1DB1      |        7601 |
|      12 | 0x1DDC      |        7644 |
|      13 | 0x1DDD      |        7645 |
|      14 | 0x1DEA      |        7658 |
|      15 | 0x1DEB      |        7659 |
|      16 | 0x1E2D      |        7725 |
|      17 | 0x1E2E      |        7726 |
|      18 | 0x1E2F      |        7727 |
|      19 | 0x1E77      |        7799 |
|      20 | 0x1E78      |        7800 |
|      21 | 0x1E84      |        7812 |
|      22 | 0x1E85      |        7813 |
|      23 | 0x1E92      |        7826 |
|      24 | 0x1E93      |        7827 |
|      25 | 0x1E9D      |        7837 |
|      26 | 0x1E9E      |        7838 |
|      27 | 0x1EA5      |        7845 |
|      28 | 0x1EA6      |        7846 |
|      29 | 0x1EB0      |        7856 |
|      30 | 0x1EB1      |        7857 |
|      31 | 0x1EBA      |        7866 |
|      32 | 0x1EBB      |        7867 |
|      33 | 0x1EC0      |        7872 |
|      34 | 0x1EC1      |        7873 |
|      35 | 0x258D      |        9613 |
|      36 | 0x258E      |        9614 |
|      37 | 0x2599      |        9625 |
|      38 | 0x259A      |        9626 |
|      39 | 0x259B      |        9627 |
|      40 | 0x25A9      |        9641 |
|      41 | 0x25AA      |        9642 |
|      42 | 0x25B4      |        9652 |
|      43 | 0x25B5      |        9653 |
|      44 | 0x25F5      |        9717 |
|      45 | 0x25F6      |        9718 |
|      46 | 0x2627      |        9767 |
|      47 | 0x2628      |        9768 |
|      48 | 0x2658      |        9816 |
|      49 | 0x274A      |       10058 |
|      50 | 0x274B      |       10059 |
|      51 | 0x274C      |       10060 |
|      52 | 0x2752      |       10066 |
|      53 | 0x2753      |       10067 |
|      54 | 0x275F      |       10079 |
|      55 | 0x2760      |       10080 |
|      56 | 0x2761      |       10081 |
|      57 | 0x276A      |       10090 |
|      58 | 0x276B      |       10091 |
|      59 | 0x276C      |       10092 |
|      60 | 0x276D      |       10093 |

## String References

- **7512**: tHIs$26iS tHe$26nOrTh gATeHOusE!$26tEn IS$26a CArDiAN$26aSsiGNed tO$26tHe NOrTh$26WInDs gUaRds!
- **7513**: yOu$26WaNt tO$26JoIn NOrTH$26WinD gUaRds$26TOo?$26tHeN sPeAk$26tO tHe$26LEaDer, MoKyoKyo!
- **7523**: tHIs$26iS tHe$26nOrTh gATeHOusE!$26tEn AM$26a CArDiAN$26aSsiGNed tO tHe NOrTh WInDs$26gUaRds!
- **7559**: hOrUtOtO RuInS... DaNgERoUs$26pLaCE!
- **7560**: BAD cArDiaNs$26lUrK iN$26sOMe PaRTs! be$26CArE-ful nOt$26tO go$26TO WroNG$26plaCe!
- **7566**: ThAnK yOu$26fOr yOuR$26patRIOTism! YoU cOmPleTEd$26yoUR miSsIoN$26wElL aNd$26hAvE rEcEIvEd$26rAnk pOINts!
- **7567**: YoU$26cAn CoNfIrm YoUr PoiNTs$26bY cHeCKinG yOuR$26"PROFILE"$26In the$26"STATUS"$26oPtIoN on tHe$26"MAIN MENU!"
- **7581**: mOrE$26iNtElLiGEnt CArdiAns$26bECoMe WInDUrsT's$26TOwn GUarDs!$26STroNger$26cARdiaNS PATrol$26oUtsIDe!
- **7582**: wHaT$26HaP-pEnS tO$26sMArTEst aNd$26STroNgEst cARdIAns...?
- **7583**: ...theY$26bEcOme tHe$26ACE CArDiaNs$26tHAt guArD$26HeAVeNs ToWeR!
- **7600**: THis MIsSiOn$26iS VeRy$26iMpOrTaNt sO$26wHeN YoU$26fInIsh iT$26yOu cAn$26ExPecT a$26reWArd!
- **7601**: BuT$26dOn'T oVeRdo$26IT! yoU ONly$26hAVe oNe$26LiFe! If$26yOu Go$26tOO fAr$26YoU mAy$26nEVeR rEtUrN!
- **7644**: TeN sAiD$26yOu WOulD$26gEt a$26rEwARd...
- **7645**: kEEp$26Up tHe$26GooD wORk$26tO MaKe$26tHe NeXt$26rANk!
- **7658**: tHe$26RoLe oF$26BOOKs Is$26tO rEcORd$26tHe TRuTHs$26tHaT gEt$26lOsT iN$26TiMe, IS$26it nOt?
- **7659**: BUt TeN$26hEaRD tHErE$26aRe soMe$26bOOks ThaT$26REcorD UN-TruthS!$26WhY$26wOuLd pEoPle$26do tHat?
- **7725**: cHiLdrEn's$26BoDieS mAy$26Be ImMAtuRE$26bUt ThEiR$26hEaRtS ArE$26STroNg!
- **7726**: AdUlTs'$26bOdIeS aRe$26STroNG but$26tHeIr hEaRTs$26ArE WEak!
- **7727**: TEN's$26bOdY aNd$26HeArT are$26BOth weAK! IT$26is ShAmEfUl!
- **7799**: ThE hEaD sEctIoNS$26of us$26cARdiAns aRe$26CuLtIvAtEd iN$26tHe BAseMEnT$26Of HEaVeNs tOwEr!
- **7800**: SeE! lOOk$26CarEfuLLy aNd$26YoU wIll$26nOtE TEn'S$26HeAd is$26frUIt of$26tREe!$26a-MaZinG, hUh!?
- **7812**: OnLy$26A pRiVilEgEd$26fEw ArE$26aLLowEd to$26Go uP$26TO tHe$26SeCoNd aNd$26tHiRd flOOrs$26oF HEaVeNs TOwEr...!
- **7813**: ...lIkE tHe$26lAdIeS-In-wAiTIng aNd$26SiByL GuArDs$26wHo sErve$26tHe sTAr$26SiBYL!$26the$26ACE CArDiAns$26SHouLD aLso$26bE ThEre$26ToO!
- **7826**: oNe NeEdS$26SPeCiaL quALItieS$26tO bEcOme$26A lAdY-In-WaITing!
- **7827**: It$26iS tHe$26JoB Of$26ThE hEAd$26lAdy-In-wAiTiNg tO$26TeaCH tHe$26FEw choSen$26onES the$26WAyS of$26hEAveNs TOweR!
- **7837**: ThE NOrTh$26gaTeHouSe wAs$26In A$26bIg fUsS$26wHEn a$26lEtter aRRiVed$26fRoM HEaVenS ToWer.
- **7838**: NoW$26TeN sEEs$26tHe fUsS$26wAs ReAlLy$26oVeR yOu!
- **7845**: we$26caNNot iSSue$26miSSionS fOr$26NoW!
- **7846**: TEN wOnDers$26wHaT haPPeNed$26iN tHe$26horuToTo RUiNs$26tO cAuSe$26sUcH A$26cOmMoTiOn...!?
- **7856**: We aRe$26NoW aBlE$26to hANd$26OuT MiSsIoNs$26aGaIn!
- **7857**: BuT$26it sEEmS$26yOu aLrEAdy$26hAve BeeN$26AssIgnEd a$26vEry iMpoRTaNt$26mIssIOn of$26yOUr oWn!
- **7866**: TEN's$26brAIn TrIeD$26tO aNaLyZe$26tHe cURreNt$26sITuaTIon!
- **7867**: ThErE iS$26An 80%$26ChAnCe tHAt$26WInDurSt wILl$26bE dRaWn$26IntO a$26WaR!$26dO$26yoU tHinK$26tEN's cAlCulAtiOns$26aRe coRRecT?
- **7872**: tEN's$26brAIn TrIeD$26tO aNaLyZe$26tHe cURreNt$26sITuaTIon...!
- **7873**: ThErE iS$26A 60%$26ChAnCe tHAt$26WInDurSt wIlL$26rEGaIn tHe$26PeaCe!$26dO$26yoU tHinK$26TeN's cAlCulAtiOns$26aRe coRRecT?
- **9613**: PeOPle$26aRe VeRY$26uNPrEdICt-aBLe. It$26iS hARd$26fOr TEn$26to GUeSs$26ThEIr NeXt$26MOve.
- **9614**: EsPeC-iAlly$26PAnnA-DOnnA. EVEn$26whEN I$26sAy No$26mAgIC AlloWeD,$26hE uSEs$26sPElls iF$26hE ThINks$26hE WiLL$26LOse.
- **9625**: AJiDO-MaRUjIdo..? TEn$26knOWs hIm$26WeLL.
- **9626**: He$26iS MoTHer$26ApUrUrU's bRoTHer. WhiCH$26mAkES hIM$26tEn's uNCle...
- **9627**: ...TeN$26reMeMbeRS bEInG$26hIt WiTh $26A wAnD$26WHen tEn$26SAiD ThAT.
- **9641**: ThE$26SmaLL cHAmbErS$26uNdER tHe$26CenTraL tOwEr$26iN SaRuTaBaRuTa$26aLL hAve$26nAMes cOr-rEspONd-iNg$26tO oNe$26oF tHe$26eLeMeNtS.
- **9642**: CouLD$26tHe chAmBeR$26oF dArKneSS$26bE tHe SAme$26pLaCE aS$26tHe DaRK DuNGeOn?
- **9652**: TeN$26oFTeN sEEs$26MotHEr ApUrUrU$26ruNNiNg tO$26aNd fRO.
- **9653**: SHe$26wAS leAViNg$26tHe OptISterY$26eARLieR. TeN$26wONdeRs wHaT$26iS hAp-pENiNg.
- **9717**: WhY$26dOn't tHE$26RhiNoSTeRy Re-sEaRchERs$26tAKe CaRdiANs$26LiKE TeN$26wiTH tHEm$26oN tHEiR$26tRekS?
- **9718**: TeN$26tHiNKs tHAt$26wE CaRdiANs$26wOuLd cOMe$26iN VeRy$26uSefUL...
- **9767**: PeoPLe$26aRE frEE$26tO ChOOse$26wHEthER oR$26nOt tHEy$26aTTeNd tHE$26SchoOL oF MaGIc.
- **9768**: HoWEveR,$26wHEthER eNteRInG$26tHE SchoOL oF MaGIc$26LeADs tO a$26 hIGh pOsItIoN$26iN sOCieTy$26dEpEnDS oN$26tHE TeACheRs'$26eVaLu-aTIonS.
- **9816**: PLeaSE$26tAkE tHIs$26mISsiON fRoM$26tHE mANusTEry. MoThER$26ApUrUrU nEEds$26YouR hELp.
- **10058**: MiNisTEr ApuRuRu's$26fATheR, ZonPa-ZipPA,$26wAs abDUcteD bY$26oUt-of-cOnTRoL$26cARdiAnS.
- **10059**: It wAs$26pOSssibLe to pREdiCt$26wE NeW cARdiAnS$26woULd bEComE uN-coNtroLLabLe$26wHEn faCeD wITh$26dIs-aSSemBLagE.
- **10060**: It wAs$26pOSsibLe to pREdiCt,$26buT iMpOSsibLe$26to aVoID. It$26wAs aN anOMaLy$26tHAt wAs deStiNEd$26to ocCUr.
- **10066**: ThE RoGUe$26cARdiAnS aRe$26wOrKIng tOWaRdS a$26siNgLE pURpoSe.
- **10067**: ThAt pURpoSe$26coULd onLy$26hAVe beEN gIVeN$26to tHe cARdiAnS$26by tHeIR$26cReAtoR.
- **10079**: TheRe aRe$26mAnY siTuAtiOnS$26aNd PHeNo-meNoNs$26iN tHe WoRLd$26tHAt aRe$26iMpoSsiBLe to$26pRediCT.
- **10080**: HoWeVeR,$26bY iNveSTigATiNg$26tHe eLemENt oF$26poSsiBLiTy, tHe$26acCurRAcY oF a$26pRediCTioN cAn$26bE iNCreASeD.
- **10081**: To pUt iT$26aNoTHeR wAy,$26iN oRDeR to$26reALiZe a$26pRediCTioN,$26tHe cHaNCeS fOR$26iT to CoMe tRUe$26SHouLd bE$26iMProVeD aS$26mUCh aS$26poSsiBLe.
- **10090**: We cARdiAnS$26rUn oN tHe$26PoWEr oF$26tHe sTArS.
- **10091**: MaYBe tHAt$26ExPLaiNs iT.$26TeN hAs fELt$26sO WOndeRFuL$26waLKiNg uNdeRNeATh$26tHe niGHt sKy$26thEsE dAYs.
- **10092**: ...If TeN$26wErE to PuT$26tHAt FeELiNg$26iNTo wORdS$26it woULd Be$26LiKe...
- **10093**: A FuLL$26BeLLy. ..Hmm.$26MaYBe TeN$26nEEdS to hAVe$26sOmE MaiNTeNAnCe$26DoNe...

## Events

### Event 65535

#### Metadata

| Field        | Value   |
|--------------|---------|
| Entrypoint   | 0x0000  |
| Data Size    | 1 bytes |
| Instructions | 1       |

```
      00 01 02 03 04 05 06 07  08 09 0A 0B 0C 0D 0E 0F
      -- -- -- -- -- -- -- --  -- -- -- -- -- -- -- --
0000: 00                                                .               
```

#### Opcodes

```
  0: 0x0000 [0x00] END_REQSTACK()
```

### Event 107

#### Metadata

| Field        | Value    |
|--------------|----------|
| Entrypoint   | 0x0001   |
| Data Size    | 19 bytes |
| Instructions | 10       |

```
      00 01 02 03 04 05 06 07  08 09 0A 0B 0C 0D 0E 0F
      -- -- -- -- -- -- -- --  -- -- -- -- -- -- -- --
0000:    1E F0 FF FF 7F 6F 70  1D 00 80 23 1D 01 80 23   .....op...#...#
0010: 20 00 21 00                                        .!.            
```

#### Opcodes

```
  0: 0x0001 [0x1E] EventEntity looks at LocalPlayer and starts talking
  1: 0x0006 [0x6F] WAIT_FRAME_DELAY: Yield until WaitTime reaches zero
  2: 0x0007 [0x70] WAIT_ENTITY_RENDER_FLAG: Wait while EventEntity->Render.Flags3 bit 2 is set (cancel turn if not)
  3: 0x0008 [0x1D] PRINT_EVENT_MESSAGE(message_id=7512*)
    → "tHIs$26iS tHe$26nOrTh gATeHOusE!$26tEn IS$26a CArDiAN$26aSsiGNed tO$26tHe NOrTh$26WInDs gUaRds!"
  4: 0x000B [0x23] WAIT_FOR_DIALOG_INTERACTION
  5: 0x000C [0x1D] PRINT_EVENT_MESSAGE(message_id=7513*)
    → "yOu$26WaNt tO$26JoIn NOrTH$26WinD gUaRds$26TOo?$26tHeN sPeAk$26tO tHe$26LEaDer, MoKyoKyo!"
  6: 0x000F [0x23] WAIT_FOR_DIALOG_INTERACTION
  7: 0x0010 [0x20] SET_CLI_EVENT_UC_FLAG: Unlock player control
  8: 0x0012 [0x21] END_EVENT
  9: 0x0013 [0x00] END_REQSTACK()
```

### Event 114

#### Metadata

| Field        | Value    |
|--------------|----------|
| Entrypoint   | 0x0014   |
| Data Size    | 15 bytes |
| Instructions | 8        |

```
      00 01 02 03 04 05 06 07  08 09 0A 0B 0C 0D 0E 0F
      -- -- -- -- -- -- -- --  -- -- -- -- -- -- -- --
0010:             1E F0 FF FF  7F 6F 70 1D 02 80 23 20      .....op...# 
0020: 00 21 00                                          .!.             
```

#### Opcodes

```
  0: 0x0014 [0x1E] EventEntity looks at LocalPlayer and starts talking
  1: 0x0019 [0x6F] WAIT_FRAME_DELAY: Yield until WaitTime reaches zero
  2: 0x001A [0x70] WAIT_ENTITY_RENDER_FLAG: Wait while EventEntity->Render.Flags3 bit 2 is set (cancel turn if not)
  3: 0x001B [0x1D] PRINT_EVENT_MESSAGE(message_id=7523*)
    → "tHIs$26iS tHe$26nOrTh gATeHOusE!$26tEn AM$26a CArDiAN$26aSsiGNed tO tHe NOrTh WInDs$26gUaRds!"
  4: 0x001E [0x23] WAIT_FOR_DIALOG_INTERACTION
  5: 0x001F [0x20] SET_CLI_EVENT_UC_FLAG: Unlock player control
  6: 0x0021 [0x21] END_EVENT
  7: 0x0022 [0x00] END_REQSTACK()
```

### Event 118

#### Metadata

| Field        | Value   |
|--------------|---------|
| Entrypoint   | 0x0023  |
| Data Size    | 1 bytes |
| Instructions | 1       |

```
      00 01 02 03 04 05 06 07  08 09 0A 0B 0C 0D 0E 0F
      -- -- -- -- -- -- -- --  -- -- -- -- -- -- -- --
0020:          00                                          .            
```

#### Opcodes

```
  0: 0x0023 [0x00] END_REQSTACK()
```

### Event 119

#### Metadata

| Field        | Value   |
|--------------|---------|
| Entrypoint   | 0x0024  |
| Data Size    | 1 bytes |
| Instructions | 1       |

```
      00 01 02 03 04 05 06 07  08 09 0A 0B 0C 0D 0E 0F
      -- -- -- -- -- -- -- --  -- -- -- -- -- -- -- --
0020:             00                                        .           
```

#### Opcodes

```
  0: 0x0024 [0x00] END_REQSTACK()
```

### Event 120

#### Metadata

| Field        | Value   |
|--------------|---------|
| Entrypoint   | 0x0025  |
| Data Size    | 1 bytes |
| Instructions | 1       |

```
      00 01 02 03 04 05 06 07  08 09 0A 0B 0C 0D 0E 0F
      -- -- -- -- -- -- -- --  -- -- -- -- -- -- -- --
0020:                00                                      .          
```

#### Opcodes

```
  0: 0x0025 [0x00] END_REQSTACK()
```

### Event 124

#### Metadata

| Field        | Value    |
|--------------|----------|
| Entrypoint   | 0x0026   |
| Data Size    | 19 bytes |
| Instructions | 10       |

```
      00 01 02 03 04 05 06 07  08 09 0A 0B 0C 0D 0E 0F
      -- -- -- -- -- -- -- --  -- -- -- -- -- -- -- --
0020:                   1E F0  FF FF 7F 6F 70 1D 03 80        .....op...
0030: 23 1D 04 80 23 20 00 21  00                       #...# .!.       
```

#### Opcodes

```
  0: 0x0026 [0x1E] EventEntity looks at LocalPlayer and starts talking
  1: 0x002B [0x6F] WAIT_FRAME_DELAY: Yield until WaitTime reaches zero
  2: 0x002C [0x70] WAIT_ENTITY_RENDER_FLAG: Wait while EventEntity->Render.Flags3 bit 2 is set (cancel turn if not)
  3: 0x002D [0x1D] PRINT_EVENT_MESSAGE(message_id=7559*)
    → "hOrUtOtO RuInS... DaNgERoUs$26pLaCE!"
  4: 0x0030 [0x23] WAIT_FOR_DIALOG_INTERACTION
  5: 0x0031 [0x1D] PRINT_EVENT_MESSAGE(message_id=7560*)
    → "BAD cArDiaNs$26lUrK iN$26sOMe PaRTs! be$26CArE-ful nOt$26tO go$26TO WroNG$26plaCe!"
  6: 0x0034 [0x23] WAIT_FOR_DIALOG_INTERACTION
  7: 0x0035 [0x20] SET_CLI_EVENT_UC_FLAG: Unlock player control
  8: 0x0037 [0x21] END_EVENT
  9: 0x0038 [0x00] END_REQSTACK()
```

### Event 129

#### Metadata

| Field        | Value    |
|--------------|----------|
| Entrypoint   | 0x0039   |
| Data Size    | 19 bytes |
| Instructions | 10       |

```
      00 01 02 03 04 05 06 07  08 09 0A 0B 0C 0D 0E 0F
      -- -- -- -- -- -- -- --  -- -- -- -- -- -- -- --
0030:                             1E F0 FF FF 7F 6F 70           .....op
0040: 1D 05 80 23 1D 06 80 23  20 00 21 00              ...#...# .!.    
```

#### Opcodes

```
  0: 0x0039 [0x1E] EventEntity looks at LocalPlayer and starts talking
  1: 0x003E [0x6F] WAIT_FRAME_DELAY: Yield until WaitTime reaches zero
  2: 0x003F [0x70] WAIT_ENTITY_RENDER_FLAG: Wait while EventEntity->Render.Flags3 bit 2 is set (cancel turn if not)
  3: 0x0040 [0x1D] PRINT_EVENT_MESSAGE(message_id=7566*)
    → "ThAnK yOu$26fOr yOuR$26patRIOTism! YoU cOmPleTEd$26yoUR miSsIoN$26wElL aNd$26hAvE rEcEIvEd$26rAnk pOINts!"
  4: 0x0043 [0x23] WAIT_FOR_DIALOG_INTERACTION
  5: 0x0044 [0x1D] PRINT_EVENT_MESSAGE(message_id=7567*)
    → "YoU$26cAn CoNfIrm YoUr PoiNTs$26bY cHeCKinG yOuR$26"PROFILE"$26In the$26"STATUS"$26oPtIoN on tHe$26"MAIN MENU!""
  6: 0x0047 [0x23] WAIT_FOR_DIALOG_INTERACTION
  7: 0x0048 [0x20] SET_CLI_EVENT_UC_FLAG: Unlock player control
  8: 0x004A [0x21] END_EVENT
  9: 0x004B [0x00] END_REQSTACK()
```

### Event 134

#### Metadata

| Field        | Value    |
|--------------|----------|
| Entrypoint   | 0x004C   |
| Data Size    | 23 bytes |
| Instructions | 12       |

```
      00 01 02 03 04 05 06 07  08 09 0A 0B 0C 0D 0E 0F
      -- -- -- -- -- -- -- --  -- -- -- -- -- -- -- --
0040:                                      1E F0 FF FF              ....
0050: 7F 6F 70 1D 07 80 23 1D  08 80 23 1D 09 80 23 20  .op...#...#...# 
0060: 00 21 00                                          .!.             
```

#### Opcodes

```
  0: 0x004C [0x1E] EventEntity looks at LocalPlayer and starts talking
  1: 0x0051 [0x6F] WAIT_FRAME_DELAY: Yield until WaitTime reaches zero
  2: 0x0052 [0x70] WAIT_ENTITY_RENDER_FLAG: Wait while EventEntity->Render.Flags3 bit 2 is set (cancel turn if not)
  3: 0x0053 [0x1D] PRINT_EVENT_MESSAGE(message_id=7581*)
    → "mOrE$26iNtElLiGEnt CArdiAns$26bECoMe WInDUrsT's$26TOwn GUarDs!$26STroNger$26cARdiaNS PATrol$26oUtsIDe!"
  4: 0x0056 [0x23] WAIT_FOR_DIALOG_INTERACTION
  5: 0x0057 [0x1D] PRINT_EVENT_MESSAGE(message_id=7582*)
    → "wHaT$26HaP-pEnS tO$26sMArTEst aNd$26STroNgEst cARdIAns...?"
  6: 0x005A [0x23] WAIT_FOR_DIALOG_INTERACTION
  7: 0x005B [0x1D] PRINT_EVENT_MESSAGE(message_id=7583*)
    → "...theY$26bEcOme tHe$26ACE CArDiaNs$26tHAt guArD$26HeAVeNs ToWeR!"
  8: 0x005E [0x23] WAIT_FOR_DIALOG_INTERACTION
  9: 0x005F [0x20] SET_CLI_EVENT_UC_FLAG: Unlock player control
 10: 0x0061 [0x21] END_EVENT
 11: 0x0062 [0x00] END_REQSTACK()
```

### Event 139

#### Metadata

| Field        | Value    |
|--------------|----------|
| Entrypoint   | 0x0063   |
| Data Size    | 19 bytes |
| Instructions | 10       |

```
      00 01 02 03 04 05 06 07  08 09 0A 0B 0C 0D 0E 0F
      -- -- -- -- -- -- -- --  -- -- -- -- -- -- -- --
0060:          1E F0 FF FF 7F  6F 70 1D 0A 80 23 1D 0B     .....op...#..
0070: 80 23 20 00 21 00                                 .# .!.          
```

#### Opcodes

```
  0: 0x0063 [0x1E] EventEntity looks at LocalPlayer and starts talking
  1: 0x0068 [0x6F] WAIT_FRAME_DELAY: Yield until WaitTime reaches zero
  2: 0x0069 [0x70] WAIT_ENTITY_RENDER_FLAG: Wait while EventEntity->Render.Flags3 bit 2 is set (cancel turn if not)
  3: 0x006A [0x1D] PRINT_EVENT_MESSAGE(message_id=7600*)
    → "THis MIsSiOn$26iS VeRy$26iMpOrTaNt sO$26wHeN YoU$26fInIsh iT$26yOu cAn$26ExPecT a$26reWArd!"
  4: 0x006D [0x23] WAIT_FOR_DIALOG_INTERACTION
  5: 0x006E [0x1D] PRINT_EVENT_MESSAGE(message_id=7601*)
    → "BuT$26dOn'T oVeRdo$26IT! yoU ONly$26hAVe oNe$26LiFe! If$26yOu Go$26tOO fAr$26YoU mAy$26nEVeR rEtUrN!"
  6: 0x0071 [0x23] WAIT_FOR_DIALOG_INTERACTION
  7: 0x0072 [0x20] SET_CLI_EVENT_UC_FLAG: Unlock player control
  8: 0x0074 [0x21] END_EVENT
  9: 0x0075 [0x00] END_REQSTACK()
```

### Event 154

#### Metadata

| Field        | Value    |
|--------------|----------|
| Entrypoint   | 0x0076   |
| Data Size    | 19 bytes |
| Instructions | 10       |

```
      00 01 02 03 04 05 06 07  08 09 0A 0B 0C 0D 0E 0F
      -- -- -- -- -- -- -- --  -- -- -- -- -- -- -- --
0070:                   1E F0  FF FF 7F 6F 70 1D 0C 80        .....op...
0080: 23 1D 0D 80 23 20 00 21  00                       #...# .!.       
```

#### Opcodes

```
  0: 0x0076 [0x1E] EventEntity looks at LocalPlayer and starts talking
  1: 0x007B [0x6F] WAIT_FRAME_DELAY: Yield until WaitTime reaches zero
  2: 0x007C [0x70] WAIT_ENTITY_RENDER_FLAG: Wait while EventEntity->Render.Flags3 bit 2 is set (cancel turn if not)
  3: 0x007D [0x1D] PRINT_EVENT_MESSAGE(message_id=7644*)
    → "TeN sAiD$26yOu WOulD$26gEt a$26rEwARd..."
  4: 0x0080 [0x23] WAIT_FOR_DIALOG_INTERACTION
  5: 0x0081 [0x1D] PRINT_EVENT_MESSAGE(message_id=7645*)
    → "kEEp$26Up tHe$26GooD wORk$26tO MaKe$26tHe NeXt$26rANk!"
  6: 0x0084 [0x23] WAIT_FOR_DIALOG_INTERACTION
  7: 0x0085 [0x20] SET_CLI_EVENT_UC_FLAG: Unlock player control
  8: 0x0087 [0x21] END_EVENT
  9: 0x0088 [0x00] END_REQSTACK()
```

### Event 159

#### Metadata

| Field        | Value    |
|--------------|----------|
| Entrypoint   | 0x0089   |
| Data Size    | 19 bytes |
| Instructions | 10       |

```
      00 01 02 03 04 05 06 07  08 09 0A 0B 0C 0D 0E 0F
      -- -- -- -- -- -- -- --  -- -- -- -- -- -- -- --
0080:                             1E F0 FF FF 7F 6F 70           .....op
0090: 1D 0E 80 23 1D 0F 80 23  20 00 21 00              ...#...# .!.    
```

#### Opcodes

```
  0: 0x0089 [0x1E] EventEntity looks at LocalPlayer and starts talking
  1: 0x008E [0x6F] WAIT_FRAME_DELAY: Yield until WaitTime reaches zero
  2: 0x008F [0x70] WAIT_ENTITY_RENDER_FLAG: Wait while EventEntity->Render.Flags3 bit 2 is set (cancel turn if not)
  3: 0x0090 [0x1D] PRINT_EVENT_MESSAGE(message_id=7658*)
    → "tHe$26RoLe oF$26BOOKs Is$26tO rEcORd$26tHe TRuTHs$26tHaT gEt$26lOsT iN$26TiMe, IS$26it nOt?"
  4: 0x0093 [0x23] WAIT_FOR_DIALOG_INTERACTION
  5: 0x0094 [0x1D] PRINT_EVENT_MESSAGE(message_id=7659*)
    → "BUt TeN$26hEaRD tHErE$26aRe soMe$26bOOks ThaT$26REcorD UN-TruthS!$26WhY$26wOuLd pEoPle$26do tHat?"
  6: 0x0097 [0x23] WAIT_FOR_DIALOG_INTERACTION
  7: 0x0098 [0x20] SET_CLI_EVENT_UC_FLAG: Unlock player control
  8: 0x009A [0x21] END_EVENT
  9: 0x009B [0x00] END_REQSTACK()
```

### Event 180

#### Metadata

| Field        | Value    |
|--------------|----------|
| Entrypoint   | 0x009C   |
| Data Size    | 23 bytes |
| Instructions | 12       |

```
      00 01 02 03 04 05 06 07  08 09 0A 0B 0C 0D 0E 0F
      -- -- -- -- -- -- -- --  -- -- -- -- -- -- -- --
0090:                                      1E F0 FF FF              ....
00A0: 7F 6F 70 1D 10 80 23 1D  11 80 23 1D 12 80 23 20  .op...#...#...# 
00B0: 00 21 00                                          .!.             
```

#### Opcodes

```
  0: 0x009C [0x1E] EventEntity looks at LocalPlayer and starts talking
  1: 0x00A1 [0x6F] WAIT_FRAME_DELAY: Yield until WaitTime reaches zero
  2: 0x00A2 [0x70] WAIT_ENTITY_RENDER_FLAG: Wait while EventEntity->Render.Flags3 bit 2 is set (cancel turn if not)
  3: 0x00A3 [0x1D] PRINT_EVENT_MESSAGE(message_id=7725*)
    → "cHiLdrEn's$26BoDieS mAy$26Be ImMAtuRE$26bUt ThEiR$26hEaRtS ArE$26STroNg!"
  4: 0x00A6 [0x23] WAIT_FOR_DIALOG_INTERACTION
  5: 0x00A7 [0x1D] PRINT_EVENT_MESSAGE(message_id=7726*)
    → "AdUlTs'$26bOdIeS aRe$26STroNG but$26tHeIr hEaRTs$26ArE WEak!"
  6: 0x00AA [0x23] WAIT_FOR_DIALOG_INTERACTION
  7: 0x00AB [0x1D] PRINT_EVENT_MESSAGE(message_id=7727*)
    → "TEN's$26bOdY aNd$26HeArT are$26BOth weAK! IT$26is ShAmEfUl!"
  8: 0x00AE [0x23] WAIT_FOR_DIALOG_INTERACTION
  9: 0x00AF [0x20] SET_CLI_EVENT_UC_FLAG: Unlock player control
 10: 0x00B1 [0x21] END_EVENT
 11: 0x00B2 [0x00] END_REQSTACK()
```

### Event 214

#### Metadata

| Field        | Value    |
|--------------|----------|
| Entrypoint   | 0x00B3   |
| Data Size    | 19 bytes |
| Instructions | 10       |

```
      00 01 02 03 04 05 06 07  08 09 0A 0B 0C 0D 0E 0F
      -- -- -- -- -- -- -- --  -- -- -- -- -- -- -- --
00B0:          1E F0 FF FF 7F  6F 70 1D 13 80 23 1D 14     .....op...#..
00C0: 80 23 20 00 21 00                                 .# .!.          
```

#### Opcodes

```
  0: 0x00B3 [0x1E] EventEntity looks at LocalPlayer and starts talking
  1: 0x00B8 [0x6F] WAIT_FRAME_DELAY: Yield until WaitTime reaches zero
  2: 0x00B9 [0x70] WAIT_ENTITY_RENDER_FLAG: Wait while EventEntity->Render.Flags3 bit 2 is set (cancel turn if not)
  3: 0x00BA [0x1D] PRINT_EVENT_MESSAGE(message_id=7799*)
    → "ThE hEaD sEctIoNS$26of us$26cARdiAns aRe$26CuLtIvAtEd iN$26tHe BAseMEnT$26Of HEaVeNs tOwEr!"
  4: 0x00BD [0x23] WAIT_FOR_DIALOG_INTERACTION
  5: 0x00BE [0x1D] PRINT_EVENT_MESSAGE(message_id=7800*)
    → "SeE! lOOk$26CarEfuLLy aNd$26YoU wIll$26nOtE TEn'S$26HeAd is$26frUIt of$26tREe!$26a-MaZinG, hUh!?"
  6: 0x00C1 [0x23] WAIT_FOR_DIALOG_INTERACTION
  7: 0x00C2 [0x20] SET_CLI_EVENT_UC_FLAG: Unlock player control
  8: 0x00C4 [0x21] END_EVENT
  9: 0x00C5 [0x00] END_REQSTACK()
```

### Event 220

#### Metadata

| Field        | Value    |
|--------------|----------|
| Entrypoint   | 0x00C6   |
| Data Size    | 19 bytes |
| Instructions | 10       |

```
      00 01 02 03 04 05 06 07  08 09 0A 0B 0C 0D 0E 0F
      -- -- -- -- -- -- -- --  -- -- -- -- -- -- -- --
00C0:                   1E F0  FF FF 7F 6F 70 1D 15 80        .....op...
00D0: 23 1D 16 80 23 20 00 21  00                       #...# .!.       
```

#### Opcodes

```
  0: 0x00C6 [0x1E] EventEntity looks at LocalPlayer and starts talking
  1: 0x00CB [0x6F] WAIT_FRAME_DELAY: Yield until WaitTime reaches zero
  2: 0x00CC [0x70] WAIT_ENTITY_RENDER_FLAG: Wait while EventEntity->Render.Flags3 bit 2 is set (cancel turn if not)
  3: 0x00CD [0x1D] PRINT_EVENT_MESSAGE(message_id=7812*)
    → "OnLy$26A pRiVilEgEd$26fEw ArE$26aLLowEd to$26Go uP$26TO tHe$26SeCoNd aNd$26tHiRd flOOrs$26oF HEaVeNs TOwEr...!"
  4: 0x00D0 [0x23] WAIT_FOR_DIALOG_INTERACTION
  5: 0x00D1 [0x1D] PRINT_EVENT_MESSAGE(message_id=7813*)
    → "...lIkE tHe$26lAdIeS-In-wAiTIng aNd$26SiByL GuArDs$26wHo sErve$26tHe sTAr$26SiBYL!$26the$26ACE CArDiAns$26SHouLD aLso$26bE ThEre$26ToO!"
  6: 0x00D4 [0x23] WAIT_FOR_DIALOG_INTERACTION
  7: 0x00D5 [0x20] SET_CLI_EVENT_UC_FLAG: Unlock player control
  8: 0x00D7 [0x21] END_EVENT
  9: 0x00D8 [0x00] END_REQSTACK()
```

### Event 226

#### Metadata

| Field        | Value    |
|--------------|----------|
| Entrypoint   | 0x00D9   |
| Data Size    | 19 bytes |
| Instructions | 10       |

```
      00 01 02 03 04 05 06 07  08 09 0A 0B 0C 0D 0E 0F
      -- -- -- -- -- -- -- --  -- -- -- -- -- -- -- --
00D0:                             1E F0 FF FF 7F 6F 70           .....op
00E0: 1D 17 80 23 1D 18 80 23  20 00 21 00              ...#...# .!.    
```

#### Opcodes

```
  0: 0x00D9 [0x1E] EventEntity looks at LocalPlayer and starts talking
  1: 0x00DE [0x6F] WAIT_FRAME_DELAY: Yield until WaitTime reaches zero
  2: 0x00DF [0x70] WAIT_ENTITY_RENDER_FLAG: Wait while EventEntity->Render.Flags3 bit 2 is set (cancel turn if not)
  3: 0x00E0 [0x1D] PRINT_EVENT_MESSAGE(message_id=7826*)
    → "oNe NeEdS$26SPeCiaL quALItieS$26tO bEcOme$26A lAdY-In-WaITing!"
  4: 0x00E3 [0x23] WAIT_FOR_DIALOG_INTERACTION
  5: 0x00E4 [0x1D] PRINT_EVENT_MESSAGE(message_id=7827*)
    → "It$26iS tHe$26JoB Of$26ThE hEAd$26lAdy-In-wAiTiNg tO$26TeaCH tHe$26FEw choSen$26onES the$26WAyS of$26hEAveNs TOweR!"
  6: 0x00E7 [0x23] WAIT_FOR_DIALOG_INTERACTION
  7: 0x00E8 [0x20] SET_CLI_EVENT_UC_FLAG: Unlock player control
  8: 0x00EA [0x21] END_EVENT
  9: 0x00EB [0x00] END_REQSTACK()
```

### Event 231

#### Metadata

| Field        | Value    |
|--------------|----------|
| Entrypoint   | 0x00EC   |
| Data Size    | 19 bytes |
| Instructions | 10       |

```
      00 01 02 03 04 05 06 07  08 09 0A 0B 0C 0D 0E 0F
      -- -- -- -- -- -- -- --  -- -- -- -- -- -- -- --
00E0:                                      1E F0 FF FF              ....
00F0: 7F 6F 70 1D 19 80 23 1D  1A 80 23 20 00 21 00     .op...#...# .!. 
```

#### Opcodes

```
  0: 0x00EC [0x1E] EventEntity looks at LocalPlayer and starts talking
  1: 0x00F1 [0x6F] WAIT_FRAME_DELAY: Yield until WaitTime reaches zero
  2: 0x00F2 [0x70] WAIT_ENTITY_RENDER_FLAG: Wait while EventEntity->Render.Flags3 bit 2 is set (cancel turn if not)
  3: 0x00F3 [0x1D] PRINT_EVENT_MESSAGE(message_id=7837*)
    → "ThE NOrTh$26gaTeHouSe wAs$26In A$26bIg fUsS$26wHEn a$26lEtter aRRiVed$26fRoM HEaVenS ToWer."
  4: 0x00F6 [0x23] WAIT_FOR_DIALOG_INTERACTION
  5: 0x00F7 [0x1D] PRINT_EVENT_MESSAGE(message_id=7838*)
    → "NoW$26TeN sEEs$26tHe fUsS$26wAs ReAlLy$26oVeR yOu!"
  6: 0x00FA [0x23] WAIT_FOR_DIALOG_INTERACTION
  7: 0x00FB [0x20] SET_CLI_EVENT_UC_FLAG: Unlock player control
  8: 0x00FD [0x21] END_EVENT
  9: 0x00FE [0x00] END_REQSTACK()
```

### Event 235

#### Metadata

| Field        | Value    |
|--------------|----------|
| Entrypoint   | 0x00FF   |
| Data Size    | 19 bytes |
| Instructions | 10       |

```
      00 01 02 03 04 05 06 07  08 09 0A 0B 0C 0D 0E 0F
      -- -- -- -- -- -- -- --  -- -- -- -- -- -- -- --
00F0:                                               1E                 .
0100: F0 FF FF 7F 6F 70 1D 1B  80 23 1D 1C 80 23 20 00  ....op...#...# .
0110: 21 00                                             !.              
```

#### Opcodes

```
  0: 0x00FF [0x1E] EventEntity looks at LocalPlayer and starts talking
  1: 0x0104 [0x6F] WAIT_FRAME_DELAY: Yield until WaitTime reaches zero
  2: 0x0105 [0x70] WAIT_ENTITY_RENDER_FLAG: Wait while EventEntity->Render.Flags3 bit 2 is set (cancel turn if not)
  3: 0x0106 [0x1D] PRINT_EVENT_MESSAGE(message_id=7845*)
    → "we$26caNNot iSSue$26miSSionS fOr$26NoW!"
  4: 0x0109 [0x23] WAIT_FOR_DIALOG_INTERACTION
  5: 0x010A [0x1D] PRINT_EVENT_MESSAGE(message_id=7846*)
    → "TEN wOnDers$26wHaT haPPeNed$26iN tHe$26horuToTo RUiNs$26tO cAuSe$26sUcH A$26cOmMoTiOn...!?"
  6: 0x010D [0x23] WAIT_FOR_DIALOG_INTERACTION
  7: 0x010E [0x20] SET_CLI_EVENT_UC_FLAG: Unlock player control
  8: 0x0110 [0x21] END_EVENT
  9: 0x0111 [0x00] END_REQSTACK()
```

### Event 240

#### Metadata

| Field        | Value    |
|--------------|----------|
| Entrypoint   | 0x0112   |
| Data Size    | 19 bytes |
| Instructions | 10       |

```
      00 01 02 03 04 05 06 07  08 09 0A 0B 0C 0D 0E 0F
      -- -- -- -- -- -- -- --  -- -- -- -- -- -- -- --
0110:       1E F0 FF FF 7F 6F  70 1D 1D 80 23 1D 1E 80    .....op...#...
0120: 23 20 00 21 00                                    # .!.           
```

#### Opcodes

```
  0: 0x0112 [0x1E] EventEntity looks at LocalPlayer and starts talking
  1: 0x0117 [0x6F] WAIT_FRAME_DELAY: Yield until WaitTime reaches zero
  2: 0x0118 [0x70] WAIT_ENTITY_RENDER_FLAG: Wait while EventEntity->Render.Flags3 bit 2 is set (cancel turn if not)
  3: 0x0119 [0x1D] PRINT_EVENT_MESSAGE(message_id=7856*)
    → "We aRe$26NoW aBlE$26to hANd$26OuT MiSsIoNs$26aGaIn!"
  4: 0x011C [0x23] WAIT_FOR_DIALOG_INTERACTION
  5: 0x011D [0x1D] PRINT_EVENT_MESSAGE(message_id=7857*)
    → "BuT$26it sEEmS$26yOu aLrEAdy$26hAve BeeN$26AssIgnEd a$26vEry iMpoRTaNt$26mIssIOn of$26yOUr oWn!"
  6: 0x0120 [0x23] WAIT_FOR_DIALOG_INTERACTION
  7: 0x0121 [0x20] SET_CLI_EVENT_UC_FLAG: Unlock player control
  8: 0x0123 [0x21] END_EVENT
  9: 0x0124 [0x00] END_REQSTACK()
```

### Event 245

#### Metadata

| Field        | Value    |
|--------------|----------|
| Entrypoint   | 0x0125   |
| Data Size    | 19 bytes |
| Instructions | 10       |

```
      00 01 02 03 04 05 06 07  08 09 0A 0B 0C 0D 0E 0F
      -- -- -- -- -- -- -- --  -- -- -- -- -- -- -- --
0120:                1E F0 FF  FF 7F 6F 70 1D 1F 80 23       .....op...#
0130: 1D 20 80 23 20 00 21 00                           . .# .!.        
```

#### Opcodes

```
  0: 0x0125 [0x1E] EventEntity looks at LocalPlayer and starts talking
  1: 0x012A [0x6F] WAIT_FRAME_DELAY: Yield until WaitTime reaches zero
  2: 0x012B [0x70] WAIT_ENTITY_RENDER_FLAG: Wait while EventEntity->Render.Flags3 bit 2 is set (cancel turn if not)
  3: 0x012C [0x1D] PRINT_EVENT_MESSAGE(message_id=7866*)
    → "TEN's$26brAIn TrIeD$26tO aNaLyZe$26tHe cURreNt$26sITuaTIon!"
  4: 0x012F [0x23] WAIT_FOR_DIALOG_INTERACTION
  5: 0x0130 [0x1D] PRINT_EVENT_MESSAGE(message_id=7867*)
    → "ThErE iS$26An 80%$26ChAnCe tHAt$26WInDurSt wILl$26bE dRaWn$26IntO a$26WaR!$26dO$26yoU tHinK$26tEN's cAlCulAtiOns$26aRe coRRecT?"
  6: 0x0133 [0x23] WAIT_FOR_DIALOG_INTERACTION
  7: 0x0134 [0x20] SET_CLI_EVENT_UC_FLAG: Unlock player control
  8: 0x0136 [0x21] END_EVENT
  9: 0x0137 [0x00] END_REQSTACK()
```

### Event 248

#### Metadata

| Field        | Value    |
|--------------|----------|
| Entrypoint   | 0x0138   |
| Data Size    | 19 bytes |
| Instructions | 10       |

```
      00 01 02 03 04 05 06 07  08 09 0A 0B 0C 0D 0E 0F
      -- -- -- -- -- -- -- --  -- -- -- -- -- -- -- --
0130:                          1E F0 FF FF 7F 6F 70 1D          .....op.
0140: 21 80 23 1D 22 80 23 20  00 21 00                 !.#.".# .!.     
```

#### Opcodes

```
  0: 0x0138 [0x1E] EventEntity looks at LocalPlayer and starts talking
  1: 0x013D [0x6F] WAIT_FRAME_DELAY: Yield until WaitTime reaches zero
  2: 0x013E [0x70] WAIT_ENTITY_RENDER_FLAG: Wait while EventEntity->Render.Flags3 bit 2 is set (cancel turn if not)
  3: 0x013F [0x1D] PRINT_EVENT_MESSAGE(message_id=7872*)
    → "tEN's$26brAIn TrIeD$26tO aNaLyZe$26tHe cURreNt$26sITuaTIon...!"
  4: 0x0142 [0x23] WAIT_FOR_DIALOG_INTERACTION
  5: 0x0143 [0x1D] PRINT_EVENT_MESSAGE(message_id=7873*)
    → "ThErE iS$26A 60%$26ChAnCe tHAt$26WInDurSt wIlL$26rEGaIn tHe$26PeaCe!$26dO$26yoU tHinK$26TeN's cAlCulAtiOns$26aRe coRRecT?"
  6: 0x0146 [0x23] WAIT_FOR_DIALOG_INTERACTION
  7: 0x0147 [0x20] SET_CLI_EVENT_UC_FLAG: Unlock player control
  8: 0x0149 [0x21] END_EVENT
  9: 0x014A [0x00] END_REQSTACK()
```

### Event 770

#### Metadata

| Field        | Value    |
|--------------|----------|
| Entrypoint   | 0x014B   |
| Data Size    | 19 bytes |
| Instructions | 10       |

```
      00 01 02 03 04 05 06 07  08 09 0A 0B 0C 0D 0E 0F
      -- -- -- -- -- -- -- --  -- -- -- -- -- -- -- --
0140:                                   1E F0 FF FF 7F             .....
0150: 6F 70 1D 23 80 23 1D 24  80 23 20 00 21 00        op.#.#.$.# .!.  
```

#### Opcodes

```
  0: 0x014B [0x1E] EventEntity looks at LocalPlayer and starts talking
  1: 0x0150 [0x6F] WAIT_FRAME_DELAY: Yield until WaitTime reaches zero
  2: 0x0151 [0x70] WAIT_ENTITY_RENDER_FLAG: Wait while EventEntity->Render.Flags3 bit 2 is set (cancel turn if not)
  3: 0x0152 [0x1D] PRINT_EVENT_MESSAGE(message_id=9613*)
    → "PeOPle$26aRe VeRY$26uNPrEdICt-aBLe. It$26iS hARd$26fOr TEn$26to GUeSs$26ThEIr NeXt$26MOve."
  4: 0x0155 [0x23] WAIT_FOR_DIALOG_INTERACTION
  5: 0x0156 [0x1D] PRINT_EVENT_MESSAGE(message_id=9614*)
    → "EsPeC-iAlly$26PAnnA-DOnnA. EVEn$26whEN I$26sAy No$26mAgIC AlloWeD,$26hE uSEs$26sPElls iF$26hE ThINks$26hE WiLL$26LOse."
  6: 0x0159 [0x23] WAIT_FOR_DIALOG_INTERACTION
  7: 0x015A [0x20] SET_CLI_EVENT_UC_FLAG: Unlock player control
  8: 0x015C [0x21] END_EVENT
  9: 0x015D [0x00] END_REQSTACK()
```

### Event 704

#### Metadata

| Field        | Value    |
|--------------|----------|
| Entrypoint   | 0x015E   |
| Data Size    | 23 bytes |
| Instructions | 12       |

```
      00 01 02 03 04 05 06 07  08 09 0A 0B 0C 0D 0E 0F
      -- -- -- -- -- -- -- --  -- -- -- -- -- -- -- --
0150:                                            1E F0                ..
0160: FF FF 7F 6F 70 1D 25 80  23 1D 26 80 23 1D 27 80  ...op.%.#.&.#.'.
0170: 23 20 00 21 00                                    # .!.           
```

#### Opcodes

```
  0: 0x015E [0x1E] EventEntity looks at LocalPlayer and starts talking
  1: 0x0163 [0x6F] WAIT_FRAME_DELAY: Yield until WaitTime reaches zero
  2: 0x0164 [0x70] WAIT_ENTITY_RENDER_FLAG: Wait while EventEntity->Render.Flags3 bit 2 is set (cancel turn if not)
  3: 0x0165 [0x1D] PRINT_EVENT_MESSAGE(message_id=9625*)
    → "AJiDO-MaRUjIdo..? TEn$26knOWs hIm$26WeLL."
  4: 0x0168 [0x23] WAIT_FOR_DIALOG_INTERACTION
  5: 0x0169 [0x1D] PRINT_EVENT_MESSAGE(message_id=9626*)
    → "He$26iS MoTHer$26ApUrUrU's bRoTHer. WhiCH$26mAkES hIM$26tEn's uNCle..."
  6: 0x016C [0x23] WAIT_FOR_DIALOG_INTERACTION
  7: 0x016D [0x1D] PRINT_EVENT_MESSAGE(message_id=9627*)
    → "...TeN$26reMeMbeRS bEInG$26hIt WiTh $26A wAnD$26WHen tEn$26SAiD ThAT."
  8: 0x0170 [0x23] WAIT_FOR_DIALOG_INTERACTION
  9: 0x0171 [0x20] SET_CLI_EVENT_UC_FLAG: Unlock player control
 10: 0x0173 [0x21] END_EVENT
 11: 0x0174 [0x00] END_REQSTACK()
```

### Event 709

#### Metadata

| Field        | Value    |
|--------------|----------|
| Entrypoint   | 0x0175   |
| Data Size    | 19 bytes |
| Instructions | 10       |

```
      00 01 02 03 04 05 06 07  08 09 0A 0B 0C 0D 0E 0F
      -- -- -- -- -- -- -- --  -- -- -- -- -- -- -- --
0170:                1E F0 FF  FF 7F 6F 70 1D 28 80 23       .....op.(.#
0180: 1D 29 80 23 20 00 21 00                           .).# .!.        
```

#### Opcodes

```
  0: 0x0175 [0x1E] EventEntity looks at LocalPlayer and starts talking
  1: 0x017A [0x6F] WAIT_FRAME_DELAY: Yield until WaitTime reaches zero
  2: 0x017B [0x70] WAIT_ENTITY_RENDER_FLAG: Wait while EventEntity->Render.Flags3 bit 2 is set (cancel turn if not)
  3: 0x017C [0x1D] PRINT_EVENT_MESSAGE(message_id=9641*)
    → "ThE$26SmaLL cHAmbErS$26uNdER tHe$26CenTraL tOwEr$26iN SaRuTaBaRuTa$26aLL hAve$26nAMes cOr-rEspONd-iNg$26tO oNe$26oF tHe$26eLeMeNtS."
  4: 0x017F [0x23] WAIT_FOR_DIALOG_INTERACTION
  5: 0x0180 [0x1D] PRINT_EVENT_MESSAGE(message_id=9642*)
    → "CouLD$26tHe chAmBeR$26oF dArKneSS$26bE tHe SAme$26pLaCE aS$26tHe DaRK DuNGeOn?"
  6: 0x0183 [0x23] WAIT_FOR_DIALOG_INTERACTION
  7: 0x0184 [0x20] SET_CLI_EVENT_UC_FLAG: Unlock player control
  8: 0x0186 [0x21] END_EVENT
  9: 0x0187 [0x00] END_REQSTACK()
```

### Event 714

#### Metadata

| Field        | Value    |
|--------------|----------|
| Entrypoint   | 0x0188   |
| Data Size    | 19 bytes |
| Instructions | 10       |

```
      00 01 02 03 04 05 06 07  08 09 0A 0B 0C 0D 0E 0F
      -- -- -- -- -- -- -- --  -- -- -- -- -- -- -- --
0180:                          1E F0 FF FF 7F 6F 70 1D          .....op.
0190: 2A 80 23 1D 2B 80 23 20  00 21 00                 *.#.+.# .!.     
```

#### Opcodes

```
  0: 0x0188 [0x1E] EventEntity looks at LocalPlayer and starts talking
  1: 0x018D [0x6F] WAIT_FRAME_DELAY: Yield until WaitTime reaches zero
  2: 0x018E [0x70] WAIT_ENTITY_RENDER_FLAG: Wait while EventEntity->Render.Flags3 bit 2 is set (cancel turn if not)
  3: 0x018F [0x1D] PRINT_EVENT_MESSAGE(message_id=9652*)
    → "TeN$26oFTeN sEEs$26MotHEr ApUrUrU$26ruNNiNg tO$26aNd fRO."
  4: 0x0192 [0x23] WAIT_FOR_DIALOG_INTERACTION
  5: 0x0193 [0x1D] PRINT_EVENT_MESSAGE(message_id=9653*)
    → "SHe$26wAS leAViNg$26tHe OptISterY$26eARLieR. TeN$26wONdeRs wHaT$26iS hAp-pENiNg."
  6: 0x0196 [0x23] WAIT_FOR_DIALOG_INTERACTION
  7: 0x0197 [0x20] SET_CLI_EVENT_UC_FLAG: Unlock player control
  8: 0x0199 [0x21] END_EVENT
  9: 0x019A [0x00] END_REQSTACK()
```

### Event 733

#### Metadata

| Field        | Value    |
|--------------|----------|
| Entrypoint   | 0x019B   |
| Data Size    | 19 bytes |
| Instructions | 10       |

```
      00 01 02 03 04 05 06 07  08 09 0A 0B 0C 0D 0E 0F
      -- -- -- -- -- -- -- --  -- -- -- -- -- -- -- --
0190:                                   1E F0 FF FF 7F             .....
01A0: 6F 70 1D 2C 80 23 1D 2D  80 23 20 00 21 00        op.,.#.-.# .!.  
```

#### Opcodes

```
  0: 0x019B [0x1E] EventEntity looks at LocalPlayer and starts talking
  1: 0x01A0 [0x6F] WAIT_FRAME_DELAY: Yield until WaitTime reaches zero
  2: 0x01A1 [0x70] WAIT_ENTITY_RENDER_FLAG: Wait while EventEntity->Render.Flags3 bit 2 is set (cancel turn if not)
  3: 0x01A2 [0x1D] PRINT_EVENT_MESSAGE(message_id=9717*)
    → "WhY$26dOn't tHE$26RhiNoSTeRy Re-sEaRchERs$26tAKe CaRdiANs$26LiKE TeN$26wiTH tHEm$26oN tHEiR$26tRekS?"
  4: 0x01A5 [0x23] WAIT_FOR_DIALOG_INTERACTION
  5: 0x01A6 [0x1D] PRINT_EVENT_MESSAGE(message_id=9718*)
    → "TeN$26tHiNKs tHAt$26wE CaRdiANs$26wOuLd cOMe$26iN VeRy$26uSefUL..."
  6: 0x01A9 [0x23] WAIT_FOR_DIALOG_INTERACTION
  7: 0x01AA [0x20] SET_CLI_EVENT_UC_FLAG: Unlock player control
  8: 0x01AC [0x21] END_EVENT
  9: 0x01AD [0x00] END_REQSTACK()
```

### Event 751

#### Metadata

| Field        | Value    |
|--------------|----------|
| Entrypoint   | 0x01AE   |
| Data Size    | 19 bytes |
| Instructions | 10       |

```
      00 01 02 03 04 05 06 07  08 09 0A 0B 0C 0D 0E 0F
      -- -- -- -- -- -- -- --  -- -- -- -- -- -- -- --
01A0:                                            1E F0                ..
01B0: FF FF 7F 6F 70 1D 2E 80  23 1D 2F 80 23 20 00 21  ...op...#./.# .!
01C0: 00                                                .               
```

#### Opcodes

```
  0: 0x01AE [0x1E] EventEntity looks at LocalPlayer and starts talking
  1: 0x01B3 [0x6F] WAIT_FRAME_DELAY: Yield until WaitTime reaches zero
  2: 0x01B4 [0x70] WAIT_ENTITY_RENDER_FLAG: Wait while EventEntity->Render.Flags3 bit 2 is set (cancel turn if not)
  3: 0x01B5 [0x1D] PRINT_EVENT_MESSAGE(message_id=9767*)
    → "PeoPLe$26aRE frEE$26tO ChOOse$26wHEthER oR$26nOt tHEy$26aTTeNd tHE$26SchoOL oF MaGIc."
  4: 0x01B8 [0x23] WAIT_FOR_DIALOG_INTERACTION
  5: 0x01B9 [0x1D] PRINT_EVENT_MESSAGE(message_id=9768*)
    → "HoWEveR,$26wHEthER eNteRInG$26tHE SchoOL oF MaGIc$26LeADs tO a$26 hIGh pOsItIoN$26iN sOCieTy$26dEpEnDS oN$26tHE TeACheRs'$26eVaLu-aTIonS."
  6: 0x01BC [0x23] WAIT_FOR_DIALOG_INTERACTION
  7: 0x01BD [0x20] SET_CLI_EVENT_UC_FLAG: Unlock player control
  8: 0x01BF [0x21] END_EVENT
  9: 0x01C0 [0x00] END_REQSTACK()
```

### Event 767

#### Metadata

| Field        | Value    |
|--------------|----------|
| Entrypoint   | 0x01C1   |
| Data Size    | 15 bytes |
| Instructions | 8        |

```
      00 01 02 03 04 05 06 07  08 09 0A 0B 0C 0D 0E 0F
      -- -- -- -- -- -- -- --  -- -- -- -- -- -- -- --
01C0:    1E F0 FF FF 7F 6F 70  1D 30 80 23 20 00 21 00   .....op.0.# .!.
```

#### Opcodes

```
  0: 0x01C1 [0x1E] EventEntity looks at LocalPlayer and starts talking
  1: 0x01C6 [0x6F] WAIT_FRAME_DELAY: Yield until WaitTime reaches zero
  2: 0x01C7 [0x70] WAIT_ENTITY_RENDER_FLAG: Wait while EventEntity->Render.Flags3 bit 2 is set (cancel turn if not)
  3: 0x01C8 [0x1D] PRINT_EVENT_MESSAGE(message_id=9816*)
    → "PLeaSE$26tAkE tHIs$26mISsiON fRoM$26tHE mANusTEry. MoThER$26ApUrUrU nEEds$26YouR hELp."
  4: 0x01CB [0x23] WAIT_FOR_DIALOG_INTERACTION
  5: 0x01CC [0x20] SET_CLI_EVENT_UC_FLAG: Unlock player control
  6: 0x01CE [0x21] END_EVENT
  7: 0x01CF [0x00] END_REQSTACK()
```

### Event 828

#### Metadata

| Field        | Value    |
|--------------|----------|
| Entrypoint   | 0x01D0   |
| Data Size    | 23 bytes |
| Instructions | 12       |

```
      00 01 02 03 04 05 06 07  08 09 0A 0B 0C 0D 0E 0F
      -- -- -- -- -- -- -- --  -- -- -- -- -- -- -- --
01D0: 1E F0 FF FF 7F 6F 70 1D  31 80 23 1D 32 80 23 1D  .....op.1.#.2.#.
01E0: 33 80 23 20 00 21 00                              3.# .!.         
```

#### Opcodes

```
  0: 0x01D0 [0x1E] EventEntity looks at LocalPlayer and starts talking
  1: 0x01D5 [0x6F] WAIT_FRAME_DELAY: Yield until WaitTime reaches zero
  2: 0x01D6 [0x70] WAIT_ENTITY_RENDER_FLAG: Wait while EventEntity->Render.Flags3 bit 2 is set (cancel turn if not)
  3: 0x01D7 [0x1D] PRINT_EVENT_MESSAGE(message_id=10058*)
    → "MiNisTEr ApuRuRu's$26fATheR, ZonPa-ZipPA,$26wAs abDUcteD bY$26oUt-of-cOnTRoL$26cARdiAnS."
  4: 0x01DA [0x23] WAIT_FOR_DIALOG_INTERACTION
  5: 0x01DB [0x1D] PRINT_EVENT_MESSAGE(message_id=10059*)
    → "It wAs$26pOSssibLe to pREdiCt$26wE NeW cARdiAnS$26woULd bEComE uN-coNtroLLabLe$26wHEn faCeD wITh$26dIs-aSSemBLagE."
  6: 0x01DE [0x23] WAIT_FOR_DIALOG_INTERACTION
  7: 0x01DF [0x1D] PRINT_EVENT_MESSAGE(message_id=10060*)
    → "It wAs$26pOSsibLe to pREdiCt,$26buT iMpOSsibLe$26to aVoID. It$26wAs aN anOMaLy$26tHAt wAs deStiNEd$26to ocCUr."
  8: 0x01E2 [0x23] WAIT_FOR_DIALOG_INTERACTION
  9: 0x01E3 [0x20] SET_CLI_EVENT_UC_FLAG: Unlock player control
 10: 0x01E5 [0x21] END_EVENT
 11: 0x01E6 [0x00] END_REQSTACK()
```

### Event 836

#### Metadata

| Field        | Value    |
|--------------|----------|
| Entrypoint   | 0x01E7   |
| Data Size    | 19 bytes |
| Instructions | 10       |

```
      00 01 02 03 04 05 06 07  08 09 0A 0B 0C 0D 0E 0F
      -- -- -- -- -- -- -- --  -- -- -- -- -- -- -- --
01E0:                      1E  F0 FF FF 7F 6F 70 1D 34         .....op.4
01F0: 80 23 1D 35 80 23 20 00  21 00                    .#.5.# .!.      
```

#### Opcodes

```
  0: 0x01E7 [0x1E] EventEntity looks at LocalPlayer and starts talking
  1: 0x01EC [0x6F] WAIT_FRAME_DELAY: Yield until WaitTime reaches zero
  2: 0x01ED [0x70] WAIT_ENTITY_RENDER_FLAG: Wait while EventEntity->Render.Flags3 bit 2 is set (cancel turn if not)
  3: 0x01EE [0x1D] PRINT_EVENT_MESSAGE(message_id=10066*)
    → "ThE RoGUe$26cARdiAnS aRe$26wOrKIng tOWaRdS a$26siNgLE pURpoSe."
  4: 0x01F1 [0x23] WAIT_FOR_DIALOG_INTERACTION
  5: 0x01F2 [0x1D] PRINT_EVENT_MESSAGE(message_id=10067*)
    → "ThAt pURpoSe$26coULd onLy$26hAVe beEN gIVeN$26to tHe cARdiAnS$26by tHeIR$26cReAtoR."
  6: 0x01F5 [0x23] WAIT_FOR_DIALOG_INTERACTION
  7: 0x01F6 [0x20] SET_CLI_EVENT_UC_FLAG: Unlock player control
  8: 0x01F8 [0x21] END_EVENT
  9: 0x01F9 [0x00] END_REQSTACK()
```

### Event 833

#### Metadata

| Field        | Value    |
|--------------|----------|
| Entrypoint   | 0x01FA   |
| Data Size    | 23 bytes |
| Instructions | 12       |

```
      00 01 02 03 04 05 06 07  08 09 0A 0B 0C 0D 0E 0F
      -- -- -- -- -- -- -- --  -- -- -- -- -- -- -- --
01F0:                                1E F0 FF FF 7F 6F            .....o
0200: 70 1D 36 80 23 1D 37 80  23 1D 38 80 23 20 00 21  p.6.#.7.#.8.# .!
0210: 00                                                .               
```

#### Opcodes

```
  0: 0x01FA [0x1E] EventEntity looks at LocalPlayer and starts talking
  1: 0x01FF [0x6F] WAIT_FRAME_DELAY: Yield until WaitTime reaches zero
  2: 0x0200 [0x70] WAIT_ENTITY_RENDER_FLAG: Wait while EventEntity->Render.Flags3 bit 2 is set (cancel turn if not)
  3: 0x0201 [0x1D] PRINT_EVENT_MESSAGE(message_id=10079*)
    → "TheRe aRe$26mAnY siTuAtiOnS$26aNd PHeNo-meNoNs$26iN tHe WoRLd$26tHAt aRe$26iMpoSsiBLe to$26pRediCT."
  4: 0x0204 [0x23] WAIT_FOR_DIALOG_INTERACTION
  5: 0x0205 [0x1D] PRINT_EVENT_MESSAGE(message_id=10080*)
    → "HoWeVeR,$26bY iNveSTigATiNg$26tHe eLemENt oF$26poSsiBLiTy, tHe$26acCurRAcY oF a$26pRediCTioN cAn$26bE iNCreASeD."
  6: 0x0208 [0x23] WAIT_FOR_DIALOG_INTERACTION
  7: 0x0209 [0x1D] PRINT_EVENT_MESSAGE(message_id=10081*)
    → "To pUt iT$26aNoTHeR wAy,$26iN oRDeR to$26reALiZe a$26pRediCTioN,$26tHe cHaNCeS fOR$26iT to CoMe tRUe$26SHouLd bE$26iMProVeD aS$26mUCh aS$26poSsiBLe."
  8: 0x020C [0x23] WAIT_FOR_DIALOG_INTERACTION
  9: 0x020D [0x20] SET_CLI_EVENT_UC_FLAG: Unlock player control
 10: 0x020F [0x21] END_EVENT
 11: 0x0210 [0x00] END_REQSTACK()
```

### Event 840

#### Metadata

| Field        | Value    |
|--------------|----------|
| Entrypoint   | 0x0211   |
| Data Size    | 27 bytes |
| Instructions | 14       |

```
      00 01 02 03 04 05 06 07  08 09 0A 0B 0C 0D 0E 0F
      -- -- -- -- -- -- -- --  -- -- -- -- -- -- -- --
0210:    1E F0 FF FF 7F 6F 70  1D 39 80 23 1D 3A 80 23   .....op.9.#.:.#
0220: 1D 3B 80 23 1D 3C 80 23  20 00 21 00              .;.#.<.# .!.    
```

#### Opcodes

```
  0: 0x0211 [0x1E] EventEntity looks at LocalPlayer and starts talking
  1: 0x0216 [0x6F] WAIT_FRAME_DELAY: Yield until WaitTime reaches zero
  2: 0x0217 [0x70] WAIT_ENTITY_RENDER_FLAG: Wait while EventEntity->Render.Flags3 bit 2 is set (cancel turn if not)
  3: 0x0218 [0x1D] PRINT_EVENT_MESSAGE(message_id=10090*)
    → "We cARdiAnS$26rUn oN tHe$26PoWEr oF$26tHe sTArS."
  4: 0x021B [0x23] WAIT_FOR_DIALOG_INTERACTION
  5: 0x021C [0x1D] PRINT_EVENT_MESSAGE(message_id=10091*)
    → "MaYBe tHAt$26ExPLaiNs iT.$26TeN hAs fELt$26sO WOndeRFuL$26waLKiNg uNdeRNeATh$26tHe niGHt sKy$26thEsE dAYs."
  6: 0x021F [0x23] WAIT_FOR_DIALOG_INTERACTION
  7: 0x0220 [0x1D] PRINT_EVENT_MESSAGE(message_id=10092*)
    → "...If TeN$26wErE to PuT$26tHAt FeELiNg$26iNTo wORdS$26it woULd Be$26LiKe..."
  8: 0x0223 [0x23] WAIT_FOR_DIALOG_INTERACTION
  9: 0x0224 [0x1D] PRINT_EVENT_MESSAGE(message_id=10093*)
    → "A FuLL$26BeLLy. ..Hmm.$26MaYBe TeN$26nEEdS to hAVe$26sOmE MaiNTeNAnCe$26DoNe..."
 10: 0x0227 [0x23] WAIT_FOR_DIALOG_INTERACTION
 11: 0x0228 [0x20] SET_CLI_EVENT_UC_FLAG: Unlock player control
 12: 0x022A [0x21] END_EVENT
 13: 0x022B [0x00] END_REQSTACK()
```
