# 17752486 - Treasure Coffer

## Common Data

| Field            | Value                     |
|------------------|---------------------------|
| Zone             | Windurst Waters (ID: 238) |
| Block Size       | 2036 bytes                |
| Total Events     | 2                         |
| References Count | 104                       |

## List of Events

| Event ID              | Entrypoint   |   Size |   Instructions |
|-----------------------|--------------|--------|----------------|
| [65535](#event-65535) | 0x0000       |      1 |              1 |
| [1033](#event-1033)   | 0x0001       |   1592 |            209 |

## DAT References (imed_data)

|   Index | Hex Value   |   Dec Value |
|---------|-------------|-------------|
|       0 | 0x4173      |       16755 |
|       1 | 0x0000      |           0 |
|       2 | 0x0200      |         512 |
|       3 | 0x0029      |          41 |
|       4 | 0x0001      |           1 |
|       5 | 0x0002      |           2 |
|       6 | 0x0003      |           3 |
|       7 | 0x0004      |           4 |
|       8 | 0x0005      |           5 |
|       9 | 0x0006      |           6 |
|      10 | 0x0007      |           7 |
|      11 | 0x0008      |           8 |
|      12 | 0x0009      |           9 |
|      13 | 0x000A      |          10 |
|      14 | 0x000B      |          11 |
|      15 | 0x000C      |          12 |
|      16 | 0x000D      |          13 |
|      17 | 0x000E      |          14 |
|      18 | 0x000F      |          15 |
|      19 | 0x0010      |          16 |
|      20 | 0x0011      |          17 |
|      21 | 0x0012      |          18 |
|      22 | 0x0013      |          19 |
|      23 | 0x0014      |          20 |
|      24 | 0x0015      |          21 |
|      25 | 0x0016      |          22 |
|      26 | 0x0017      |          23 |
|      27 | 0x0018      |          24 |
|      28 | 0x0019      |          25 |
|      29 | 0x001A      |          26 |
|      30 | 0x001B      |          27 |
|      31 | 0x001C      |          28 |
|      32 | 0x001D      |          29 |
|      33 | 0x001E      |          30 |
|      34 | 0x001F      |          31 |
|      35 | 0x0020      |          32 |
|      36 | 0x0021      |          33 |
|      37 | 0x0022      |          34 |
|      38 | 0x0023      |          35 |
|      39 | 0x0024      |          36 |
|      40 | 0x0025      |          37 |
|      41 | 0x0026      |          38 |
|      42 | 0x0027      |          39 |
|      43 | 0x05FC      |        1532 |
|      44 | 0x0028      |          40 |
|      45 | 0x002A      |          42 |
|      46 | 0x002B      |          43 |
|      47 | 0x002C      |          44 |
|      48 | 0x002D      |          45 |
|      49 | 0x002E      |          46 |
|      50 | 0x002F      |          47 |
|      51 | 0x4174      |       16756 |
|      52 | 0x4175      |       16757 |
|      53 | 0x4176      |       16758 |
|      54 | 0x0078      |         120 |
|      55 | 0x2C5B      |       11355 |
|      56 | 0x3FFA      |       16378 |
|      57 | 0x2E4D      |       11853 |
|      58 | 0x2EB4      |       11956 |
|      59 | 0x28BE      |       10430 |
|      60 | 0x280B      |       10251 |
|      61 | 0x2961      |       10593 |
|      62 | 0x28C0      |       10432 |
|      63 | 0x280D      |       10253 |
|      64 | 0x2963      |       10595 |
|      65 | 0x0E44      |        3652 |
|      66 | 0x2A39      |       10809 |
|      67 | 0x2A3B      |       10811 |
|      68 | 0x2A3A      |       10810 |
|      69 | 0x2A3C      |       10812 |
|      70 | 0x6C44      |       27716 |
|      71 | 0x6CDB      |       27867 |
|      72 | 0x6C43      |       27715 |
|      73 | 0x6CDA      |       27866 |
|      74 | 0x278F      |       10127 |
|      75 | 0x2790      |       10128 |
|      76 | 0x278E      |       10126 |
|      77 | 0x68AE      |       26798 |
|      78 | 0x694A      |       26954 |
|      79 | 0x68AF      |       26799 |
|      80 | 0x694B      |       26955 |
|      81 | 0x0E7A      |        3706 |
|      82 | 0x27B2      |       10162 |
|      83 | 0x6798      |       26520 |
|      84 | 0x2744      |       10052 |
|      85 | 0x649B      |       25755 |
|      86 | 0x5635      |       22069 |
|      87 | 0x0E8D      |        3725 |
|      88 | 0x5405      |       21509 |
|      89 | 0x6796      |       26518 |
|      90 | 0x6BE7      |       27623 |
|      91 | 0x6797      |       26519 |
|      92 | 0x0E9E      |        3742 |
|      93 | 0x0EA1      |        3745 |
|      94 | 0x0EA2      |        3746 |
|      95 | 0x0EA3      |        3747 |
|      96 | 0x2E4E      |       11854 |
|      97 | 0x2EB5      |       11957 |
|      98 | 0x28BF      |       10431 |
|      99 | 0x280C      |       10252 |
|     100 | 0x2962      |       10594 |
|     101 | 0x28C1      |       10433 |
|     102 | 0x280E      |       10254 |
|     103 | 0x2964      |       10596 |

## String References

- **16755**: You see the following words scrawled upon the lid: "Free to take."
- **16757**: You pull out $0 for closer inspection.

## Events

### Event 65535

#### Metadata

| Field        | Value   |
|--------------|---------|
| Entrypoint   | 0x0000  |
| Data Size    | 1 bytes |
| Instructions | 1       |

```
      00 01 02 03 04 05 06 07  08 09 0A 0B 0C 0D 0E 0F
      -- -- -- -- -- -- -- --  -- -- -- -- -- -- -- --
0000: 00                                                .               
```

#### Opcodes

```
  0: 0x0000 [0x00] END_REQSTACK()
```

### Event 1033

#### Metadata

| Field        | Value      |
|--------------|------------|
| Entrypoint   | 0x0001     |
| Data Size    | 1592 bytes |
| Instructions | 141        |

```
      00 01 02 03 04 05 06 07  08 09 0A 0B 0C 0D 0E 0F
      -- -- -- -- -- -- -- --  -- -- -- -- -- -- -- --
0000:    5F 01 06 01 00 48 00  80 23 42 1A 68 05 2E 06   _....H..#B.h...
0010: 03 00 06 04 00 02 03 00  01 80 80 D0 00 03 01 00  ................
0020: 02 80 02 8B 7F 01 80 00  7D 00 9D 0A D9 05 02 10  ........}.......
0030: 01 80 03 80 9D 0A D9 05  03 10 04 80 03 80 9D 0A  ................
0040: D9 05 04 10 05 80 03 80  9D 0A D9 05 05 10 06 80  ................
0050: 03 80 9D 0A D9 05 06 10  07 80 03 80 9D 0A D9 05  ................
0060: 07 10 08 80 03 80 9D 0A  D9 05 08 10 09 80 03 80  ................
0070: 9D 0A D9 05 09 10 0A 80  03 80 01 CD 00 9D 0A 79  ...............y
0080: 05 02 10 01 80 03 80 9D  0A 79 05 03 10 04 80 03  .........y......
0090: 80 9D 0A 79 05 04 10 05  80 03 80 9D 0A 79 05 05  ...y.........y..
00A0: 10 06 80 03 80 9D 0A 79  05 06 10 07 80 03 80 9D  .......y........
00B0: 0A 79 05 07 10 08 80 03  80 9D 0A 79 05 08 10 09  .y.........y....
00C0: 80 03 80 9D 0A 79 05 09  10 0A 80 03 80 01 77 04  .....y........w.
00D0: 02 03 00 04 80 80 8B 01  03 01 00 01 80 02 8B 7F  ................
00E0: 01 80 00 38 01 9D 0A D9  05 02 10 0B 80 03 80 9D  ...8............
00F0: 0A D9 05 03 10 0C 80 03  80 9D 0A D9 05 04 10 0D  ................
0100: 80 03 80 9D 0A D9 05 05  10 0E 80 03 80 9D 0A D9  ................
0110: 05 06 10 0F 80 03 80 9D  0A D9 05 07 10 10 80 03  ................
0120: 80 9D 0A D9 05 08 10 11  80 03 80 9D 0A D9 05 09  ................
0130: 10 12 80 03 80 01 88 01  9D 0A 79 05 02 10 0B 80  ..........y.....
0140: 03 80 9D 0A 79 05 03 10  0C 80 03 80 9D 0A 79 05  ....y.........y.
0150: 04 10 0D 80 03 80 9D 0A  79 05 05 10 0E 80 03 80  ........y.......
0160: 9D 0A 79 05 06 10 0F 80  03 80 9D 0A 79 05 07 10  ..y.........y...
0170: 10 80 03 80 9D 0A 79 05  08 10 11 80 03 80 9D 0A  ......y.........
0180: 79 05 09 10 12 80 03 80  01 77 04 02 03 00 05 80  y........w......
0190: 80 46 02 03 01 00 01 80  02 8B 7F 01 80 00 F3 01  .F..............
01A0: 9D 0A D9 05 02 10 13 80  03 80 9D 0A D9 05 03 10  ................
01B0: 14 80 03 80 9D 0A D9 05  04 10 15 80 03 80 9D 0A  ................
01C0: D9 05 05 10 16 80 03 80  9D 0A D9 05 06 10 17 80  ................
01D0: 03 80 9D 0A D9 05 07 10  18 80 03 80 9D 0A D9 05  ................
01E0: 08 10 19 80 03 80 9D 0A  D9 05 09 10 1A 80 03 80  ................
01F0: 01 43 02 9D 0A 79 05 02  10 13 80 03 80 9D 0A 79  .C...y.........y
0200: 05 03 10 14 80 03 80 9D  0A 79 05 04 10 15 80 03  .........y......
0210: 80 9D 0A 79 05 05 10 16  80 03 80 9D 0A 79 05 06  ...y.........y..
0220: 10 17 80 03 80 9D 0A 79  05 07 10 18 80 03 80 9D  .......y........
0230: 0A 79 05 08 10 19 80 03  80 9D 0A 79 05 09 10 1A  .y.........y....
0240: 80 03 80 01 77 04 02 03  00 06 80 80 01 03 03 01  ....w...........
0250: 00 01 80 02 8B 7F 01 80  00 AE 02 9D 0A D9 05 02  ................
0260: 10 1B 80 03 80 9D 0A D9  05 03 10 1C 80 03 80 9D  ................
0270: 0A D9 05 04 10 1D 80 03  80 9D 0A D9 05 05 10 1E  ................
0280: 80 03 80 9D 0A D9 05 06  10 1F 80 03 80 9D 0A D9  ................
0290: 05 07 10 20 80 03 80 9D  0A D9 05 08 10 21 80 03  ... .........!..
02A0: 80 9D 0A D9 05 09 10 22  80 03 80 01 FE 02 9D 0A  ......."........
02B0: 79 05 02 10 1B 80 03 80  9D 0A 79 05 03 10 1C 80  y.........y.....
02C0: 03 80 9D 0A 79 05 04 10  1D 80 03 80 9D 0A 79 05  ....y.........y.
02D0: 05 10 1E 80 03 80 9D 0A  79 05 06 10 1F 80 03 80  ........y.......
02E0: 9D 0A 79 05 07 10 20 80  03 80 9D 0A 79 05 08 10  ..y... .....y...
02F0: 21 80 03 80 9D 0A 79 05  09 10 22 80 03 80 01 77  !.....y..."....w
0300: 04 02 03 00 07 80 80 BC  03 03 01 00 01 80 02 8B  ................
0310: 7F 01 80 00 69 03 9D 0A  D9 05 02 10 23 80 03 80  ....i.......#...
0320: 9D 0A D9 05 03 10 24 80  03 80 9D 0A D9 05 04 10  ......$.........
0330: 25 80 03 80 9D 0A D9 05  05 10 26 80 03 80 9D 0A  %.........&.....
0340: D9 05 06 10 27 80 03 80  9D 0A D9 05 07 10 28 80  ....'.........(.
0350: 03 80 9D 0A D9 05 08 10  29 80 03 80 9D 0A D9 05  ........).......
0360: 09 10 2A 80 03 80 01 B9  03 9D 0A 79 05 02 10 23  ..*........y...#
0370: 80 03 80 9D 0A 79 05 03  10 24 80 03 80 9D 0A 79  .....y...$.....y
0380: 05 04 10 25 80 03 80 9D  0A 79 05 05 10 26 80 03  ...%.....y...&..
0390: 80 9D 0A 79 05 06 10 27  80 03 80 9D 0A 79 05 07  ...y...'.....y..
03A0: 10 28 80 03 80 9D 0A 79  05 08 10 29 80 03 80 9D  .(.....y...)....
03B0: 0A 79 05 09 10 2A 80 03  80 01 77 04 02 03 00 08  .y...*....w.....
03C0: 80 80 77 04 03 01 00 2B  80 02 8B 7F 01 80 00 24  ..w....+.......$
03D0: 04 9D 0A D9 05 02 10 2C  80 03 80 9D 0A D9 05 03  .......,........
03E0: 10 03 80 03 80 9D 0A D9  05 04 10 2D 80 03 80 9D  ...........-....
03F0: 0A D9 05 05 10 2E 80 03  80 9D 0A D9 05 06 10 2F  .............../
0400: 80 03 80 9D 0A D9 05 07  10 30 80 03 80 9D 0A D9  .........0......
0410: 05 08 10 31 80 03 80 9D  0A D9 05 09 10 32 80 03  ...1.........2..
0420: 80 01 74 04 9D 0A 79 05  02 10 2C 80 03 80 9D 0A  ..t...y...,.....
0430: 79 05 03 10 03 80 03 80  9D 0A 79 05 04 10 2D 80  y.........y...-.
0440: 03 80 9D 0A 79 05 05 10  2E 80 03 80 9D 0A 79 05  ....y.........y.
0450: 06 10 2F 80 03 80 9D 0A  79 05 07 10 30 80 03 80  ../.....y...0...
0460: 9D 0A 79 05 08 10 31 80  03 80 9D 0A 79 05 09 10  ..y...1.....y...
0470: 32 80 03 80 01 77 04 D4  03 04 80 02 10 D4 03 05  2....w..........
0480: 80 03 10 D4 03 06 80 04  10 D4 03 07 80 05 10 D4  ................
0490: 03 08 80 06 10 D4 03 09  80 07 10 D4 03 0A 80 08  ................
04A0: 10 D4 03 0B 80 09 10 D4  02 33 80 04 00 01 00 25  .........3.....%
04B0: 02 00 10 01 80 00 BD 04  21 00 01 66 05 02 00 10  ........!..f....
04C0: 0C 80 00 D1 04 0C 03 00  06 04 00 01 15 00 01 66  ...............f
04D0: 05 02 00 10 0D 80 00 E5  04 0B 03 00 06 04 00 01  ................
04E0: 15 00 01 66 05 03 04 00  00 10 03 02 00 00 10 03  ...f............
04F0: 00 00 03 00 14 00 00 0B  80 07 02 00 00 00 0C 02  ................
0500: 00 02 8B 7F 01 80 00 16  05 9D 0A D9 05 02 10 02  ................
0510: 00 03 80 01 20 05 9D 0A  79 05 02 10 02 00 03 80  .... ...y.......
0520: 93 02 10 48 34 80 23 93  01 80 D4 03 01 80 02 10  ...H4.#.........
0530: D4 03 04 80 02 10 D4 02  35 80 01 80 01 80 25 02  ........5.....%.
0540: 00 10 01 80 00 63 05 42  03 01 10 02 00 43 00 43  .....c.B.....C.C
0550: 01 02 02 10 01 80 02 60  05 2E 01 15 00 01 60 05  .......`......`.
0560: 01 66 05 01 15 00 21 00  2C F8 FF FF 7F F8 FF FF  .f....!.,.......
0570: 7F 6F 70 65 6E 1C 36 80  1B 37 80 38 80 39 80 3A  .open.6..7.8.9.:
0580: 80 3B 80 3C 80 3D 80 3E  80 3F 80 40 80 41 80 42  .;.<.=.>.?.@.A.B
0590: 80 43 80 44 80 45 80 46  80 47 80 48 80 49 80 4A  .C.D.E.F.G.H.I.J
05A0: 80 4B 80 4C 80 4D 80 4E  80 4F 80 50 80 51 80 52  .K.L.M.N.O.P.Q.R
05B0: 80 53 80 54 80 55 80 56  80 57 80 58 80 59 80 5A  .S.T.U.V.W.X.Y.Z
05C0: 80 5B 80 5C 80 5D 80 5E  80 5F 80 01 80 01 80 01  .[.\.].^._......
05D0: 80 01 80 01 80 01 80 01  80 37 80 38 80 60 80 61  .........7.8.`.a
05E0: 80 62 80 63 80 64 80 65  80 66 80 67 80 41 80 42  .b.c.d.e.f.g.A.B
05F0: 80 43 80 44 80 45 80 46  80 47 80 48 80 49 80 4A  .C.D.E.F.G.H.I.J
0600: 80 4B 80 4C 80 4D 80 4E  80 4F 80 50 80 51 80 52  .K.L.M.N.O.P.Q.R
0610: 80 53 80 54 80 55 80 56  80 57 80 58 80 59 80 5A  .S.T.U.V.W.X.Y.Z
0620: 80 5B 80 5C 80 5D 80 5E  80 5F 80 01 80 01 80 01  .[.\.].^._......
0630: 80 01 80 01 80 01 80 01  80                       .........       
```

#### Opcodes

```
  0: 0x0001 [0x5F] MULTI_HANDLER_COMPLEX(mode=0x01 - Toggle Render.Flags0 bit 29)
  1: 0x0003 [0x06] ExtData[1]->WorkLocal[1] = 0
  2: 0x0006 [0x48] [System] [16755*]:
    → "You see the following words scrawled upon the lid: "Free to take.""
  3: 0x0009 [0x23] WAIT_FOR_DIALOG_INTERACTION
  4: 0x000A [0x42] SET_CLI_EVENT_CANCEL_DATA()
  5: 0x000B [0x1A] CALL_SUBROUTINE(address=0x0568)
  6: 0x000E [0x2E] SET_CLI_EVENT_CANCEL_FLAGS()
  7: 0x000F [0x06] ExtData[1]->WorkLocal[3] = 0
  8: 0x0012 [0x06] ExtData[1]->WorkLocal[4] = 0
  9: 0x0015 [0x02] IF !(ExtData[1]->WorkLocal[3] == 0*) GOTO 0x00D0
 10: 0x001D [0x03] ExtData[1]->WorkLocal[1] = 512*
 11: 0x0022 [0x02] IF !((LocalPlayer->Render.Flags01 >> 25) & 1 == 0*) GOTO 0x007D
 12: 0x002A [0x9D] IF (0x05D9) 0* = Work_Zone[2] // extra=0x8003
 13: 0x0034 [0x9D] IF (0x05D9) 1* = Work_Zone[3] // extra=0x8003
 14: 0x003E [0x9D] IF (0x05D9) 2* = Work_Zone[4] // extra=0x8003
 15: 0x0048 [0x9D] IF (0x05D9) 3* = Work_Zone[5] // extra=0x8003
 16: 0x0052 [0x9D] IF (0x05D9) 4* = Work_Zone[6] // extra=0x8003
 17: 0x005C [0x9D] IF (0x05D9) 5* = Work_Zone[7] // extra=0x8003
 18: 0x0066 [0x9D] IF (0x05D9) 6* = Work_Zone[8] // extra=0x8003
 19: 0x0070 [0x9D] IF (0x05D9) 7* = Work_Zone[9] // extra=0x8003
 20: 0x007A [0x01] GOTO 0x00CD
 21: 0x007D [0x9D] IF (0x0579) 0* = Work_Zone[2] // extra=0x8003
 22: 0x0087 [0x9D] IF (0x0579) 1* = Work_Zone[3] // extra=0x8003
 23: 0x0091 [0x9D] IF (0x0579) 2* = Work_Zone[4] // extra=0x8003
 24: 0x009B [0x9D] IF (0x0579) 3* = Work_Zone[5] // extra=0x8003
 25: 0x00A5 [0x9D] IF (0x0579) 4* = Work_Zone[6] // extra=0x8003
 26: 0x00AF [0x9D] IF (0x0579) 5* = Work_Zone[7] // extra=0x8003
 27: 0x00B9 [0x9D] IF (0x0579) 6* = Work_Zone[8] // extra=0x8003
 28: 0x00C3 [0x9D] IF (0x0579) 7* = Work_Zone[9] // extra=0x8003

SUBROUTINE_00CD:
 29: 0x00CD [0x01] GOTO 0x0477
 30: 0x00D0 [0x02] IF !(ExtData[1]->WorkLocal[3] == 1*) GOTO 0x018B
 31: 0x00D8 [0x03] ExtData[1]->WorkLocal[1] = 0*
 32: 0x00DD [0x02] IF !((LocalPlayer->Render.Flags01 >> 25) & 1 == 0*) GOTO 0x0138
 33: 0x00E5 [0x9D] IF (0x05D9) 8* = Work_Zone[2] // extra=0x8003
 34: 0x00EF [0x9D] IF (0x05D9) 9* = Work_Zone[3] // extra=0x8003
 35: 0x00F9 [0x9D] IF (0x05D9) 10* = Work_Zone[4] // extra=0x8003
 36: 0x0103 [0x9D] IF (0x05D9) 11* = Work_Zone[5] // extra=0x8003
 37: 0x010D [0x9D] IF (0x05D9) 12* = Work_Zone[6] // extra=0x8003
 38: 0x0117 [0x9D] IF (0x05D9) 13* = Work_Zone[7] // extra=0x8003
 39: 0x0121 [0x9D] IF (0x05D9) 14* = Work_Zone[8] // extra=0x8003
 40: 0x012B [0x9D] IF (0x05D9) 15* = Work_Zone[9] // extra=0x8003
 41: 0x0135 [0x01] GOTO 0x0188
 42: 0x0138 [0x9D] IF (0x0579) 8* = Work_Zone[2] // extra=0x8003
 43: 0x0142 [0x9D] IF (0x0579) 9* = Work_Zone[3] // extra=0x8003
 44: 0x014C [0x9D] IF (0x0579) 10* = Work_Zone[4] // extra=0x8003
 45: 0x0156 [0x9D] IF (0x0579) 11* = Work_Zone[5] // extra=0x8003
 46: 0x0160 [0x9D] IF (0x0579) 12* = Work_Zone[6] // extra=0x8003
 47: 0x016A [0x9D] IF (0x0579) 13* = Work_Zone[7] // extra=0x8003
 48: 0x0174 [0x9D] IF (0x0579) 14* = Work_Zone[8] // extra=0x8003
 49: 0x017E [0x9D] IF (0x0579) 15* = Work_Zone[9] // extra=0x8003

SUBROUTINE_0188:
 50: 0x0188 [0x01] GOTO 0x0477
 51: 0x018B [0x02] IF !(ExtData[1]->WorkLocal[3] == 2*) GOTO 0x0246
 52: 0x0193 [0x03] ExtData[1]->WorkLocal[1] = 0*
 53: 0x0198 [0x02] IF !((LocalPlayer->Render.Flags01 >> 25) & 1 == 0*) GOTO 0x01F3
 54: 0x01A0 [0x9D] IF (0x05D9) 16* = Work_Zone[2] // extra=0x8003
 55: 0x01AA [0x9D] IF (0x05D9) 17* = Work_Zone[3] // extra=0x8003
 56: 0x01B4 [0x9D] IF (0x05D9) 18* = Work_Zone[4] // extra=0x8003
 57: 0x01BE [0x9D] IF (0x05D9) 19* = Work_Zone[5] // extra=0x8003
 58: 0x01C8 [0x9D] IF (0x05D9) 20* = Work_Zone[6] // extra=0x8003
 59: 0x01D2 [0x9D] IF (0x05D9) 21* = Work_Zone[7] // extra=0x8003
 60: 0x01DC [0x9D] IF (0x05D9) 22* = Work_Zone[8] // extra=0x8003
 61: 0x01E6 [0x9D] IF (0x05D9) 23* = Work_Zone[9] // extra=0x8003
 62: 0x01F0 [0x01] GOTO 0x0243
 63: 0x01F3 [0x9D] IF (0x0579) 16* = Work_Zone[2] // extra=0x8003
 64: 0x01FD [0x9D] IF (0x0579) 17* = Work_Zone[3] // extra=0x8003
 65: 0x0207 [0x9D] IF (0x0579) 18* = Work_Zone[4] // extra=0x8003
 66: 0x0211 [0x9D] IF (0x0579) 19* = Work_Zone[5] // extra=0x8003
 67: 0x021B [0x9D] IF (0x0579) 20* = Work_Zone[6] // extra=0x8003
 68: 0x0225 [0x9D] IF (0x0579) 21* = Work_Zone[7] // extra=0x8003
 69: 0x022F [0x9D] IF (0x0579) 22* = Work_Zone[8] // extra=0x8003
 70: 0x0239 [0x9D] IF (0x0579) 23* = Work_Zone[9] // extra=0x8003

SUBROUTINE_0243:
 71: 0x0243 [0x01] GOTO 0x0477
 72: 0x0246 [0x02] IF !(ExtData[1]->WorkLocal[3] == 3*) GOTO 0x0301
 73: 0x024E [0x03] ExtData[1]->WorkLocal[1] = 0*
 74: 0x0253 [0x02] IF !((LocalPlayer->Render.Flags01 >> 25) & 1 == 0*) GOTO 0x02AE
 75: 0x025B [0x9D] IF (0x05D9) 24* = Work_Zone[2] // extra=0x8003
 76: 0x0265 [0x9D] IF (0x05D9) 25* = Work_Zone[3] // extra=0x8003
 77: 0x026F [0x9D] IF (0x05D9) 26* = Work_Zone[4] // extra=0x8003
 78: 0x0279 [0x9D] IF (0x05D9) 27* = Work_Zone[5] // extra=0x8003
 79: 0x0283 [0x9D] IF (0x05D9) 28* = Work_Zone[6] // extra=0x8003
 80: 0x028D [0x9D] IF (0x05D9) 29* = Work_Zone[7] // extra=0x8003
 81: 0x0297 [0x9D] IF (0x05D9) 30* = Work_Zone[8] // extra=0x8003
 82: 0x02A1 [0x9D] IF (0x05D9) 31* = Work_Zone[9] // extra=0x8003
 83: 0x02AB [0x01] GOTO 0x02FE
 84: 0x02AE [0x9D] IF (0x0579) 24* = Work_Zone[2] // extra=0x8003
 85: 0x02B8 [0x9D] IF (0x0579) 25* = Work_Zone[3] // extra=0x8003
 86: 0x02C2 [0x9D] IF (0x0579) 26* = Work_Zone[4] // extra=0x8003
 87: 0x02CC [0x9D] IF (0x0579) 27* = Work_Zone[5] // extra=0x8003
 88: 0x02D6 [0x9D] IF (0x0579) 28* = Work_Zone[6] // extra=0x8003
 89: 0x02E0 [0x9D] IF (0x0579) 29* = Work_Zone[7] // extra=0x8003
 90: 0x02EA [0x9D] IF (0x0579) 30* = Work_Zone[8] // extra=0x8003
 91: 0x02F4 [0x9D] IF (0x0579) 31* = Work_Zone[9] // extra=0x8003

SUBROUTINE_02FE:
 92: 0x02FE [0x01] GOTO 0x0477
 93: 0x0301 [0x02] IF !(ExtData[1]->WorkLocal[3] == 4*) GOTO 0x03BC
 94: 0x0309 [0x03] ExtData[1]->WorkLocal[1] = 0*
 95: 0x030E [0x02] IF !((LocalPlayer->Render.Flags01 >> 25) & 1 == 0*) GOTO 0x0369
 96: 0x0316 [0x9D] IF (0x05D9) 32* = Work_Zone[2] // extra=0x8003
 97: 0x0320 [0x9D] IF (0x05D9) 33* = Work_Zone[3] // extra=0x8003
 98: 0x032A [0x9D] IF (0x05D9) 34* = Work_Zone[4] // extra=0x8003
 99: 0x0334 [0x9D] IF (0x05D9) 35* = Work_Zone[5] // extra=0x8003
100: 0x033E [0x9D] IF (0x05D9) 36* = Work_Zone[6] // extra=0x8003
101: 0x0348 [0x9D] IF (0x05D9) 37* = Work_Zone[7] // extra=0x8003
102: 0x0352 [0x9D] IF (0x05D9) 38* = Work_Zone[8] // extra=0x8003
103: 0x035C [0x9D] IF (0x05D9) 39* = Work_Zone[9] // extra=0x8003
104: 0x0366 [0x01] GOTO 0x03B9
105: 0x0369 [0x9D] IF (0x0579) 32* = Work_Zone[2] // extra=0x8003
106: 0x0373 [0x9D] IF (0x0579) 33* = Work_Zone[3] // extra=0x8003
107: 0x037D [0x9D] IF (0x0579) 34* = Work_Zone[4] // extra=0x8003
108: 0x0387 [0x9D] IF (0x0579) 35* = Work_Zone[5] // extra=0x8003
109: 0x0391 [0x9D] IF (0x0579) 36* = Work_Zone[6] // extra=0x8003
110: 0x039B [0x9D] IF (0x0579) 37* = Work_Zone[7] // extra=0x8003
111: 0x03A5 [0x9D] IF (0x0579) 38* = Work_Zone[8] // extra=0x8003
112: 0x03AF [0x9D] IF (0x0579) 39* = Work_Zone[9] // extra=0x8003

SUBROUTINE_03B9:
113: 0x03B9 [0x01] GOTO 0x0477
114: 0x03BC [0x02] IF !(ExtData[1]->WorkLocal[3] == 5*) GOTO 0x0477
115: 0x03C4 [0x03] ExtData[1]->WorkLocal[1] = 1532*
116: 0x03C9 [0x02] IF !((LocalPlayer->Render.Flags01 >> 25) & 1 == 0*) GOTO 0x0424
117: 0x03D1 [0x9D] IF (0x05D9) 40* = Work_Zone[2] // extra=0x8003
118: 0x03DB [0x9D] IF (0x05D9) 41* = Work_Zone[3] // extra=0x8003
119: 0x03E5 [0x9D] IF (0x05D9) 42* = Work_Zone[4] // extra=0x8003
120: 0x03EF [0x9D] IF (0x05D9) 43* = Work_Zone[5] // extra=0x8003
121: 0x03F9 [0x9D] IF (0x05D9) 44* = Work_Zone[6] // extra=0x8003
122: 0x0403 [0x9D] IF (0x05D9) 45* = Work_Zone[7] // extra=0x8003
123: 0x040D [0x9D] IF (0x05D9) 46* = Work_Zone[8] // extra=0x8003
124: 0x0417 [0x9D] IF (0x05D9) 47* = Work_Zone[9] // extra=0x8003
125: 0x0421 [0x01] GOTO 0x0474
126: 0x0424 [0x9D] IF (0x0579) 40* = Work_Zone[2] // extra=0x8003
127: 0x042E [0x9D] IF (0x0579) 41* = Work_Zone[3] // extra=0x8003
128: 0x0438 [0x9D] IF (0x0579) 42* = Work_Zone[4] // extra=0x8003
129: 0x0442 [0x9D] IF (0x0579) 43* = Work_Zone[5] // extra=0x8003
130: 0x044C [0x9D] IF (0x0579) 44* = Work_Zone[6] // extra=0x8003
131: 0x0456 [0x9D] IF (0x0579) 45* = Work_Zone[7] // extra=0x8003
132: 0x0460 [0x9D] IF (0x0579) 46* = Work_Zone[8] // extra=0x8003
133: 0x046A [0x9D] IF (0x0579) 47* = Work_Zone[9] // extra=0x8003

SUBROUTINE_0474:
134: 0x0474 [0x01] GOTO 0x0477

SUBROUTINE_0477:
135: 0x0477 [0xD4] MAP_QUERY_WINDOW: Prepare buffer configuration A (buffer=[04 80 02 10 D4 03 05 80...])
136: 0x0495 [0xD4] MAP_QUERY_WINDOW: Prepare buffer configuration A (buffer=[09 80 07 10 D4 03 0A 80...])
137: 0x04B3 [0x01] GOTO 0x0080

SUBROUTINE_0568:
138: 0x0568 [0x2C] CREATE_SCHEDULER_TASK: Create scheduler "open" with entities [EventEntity, EventEntity]
139: 0x0575 [0x1C] WAIT(120* ticks)
140: 0x0578 [0x1B] RETURN
```

#### Data or dead code:

```
# Dead code (unreachable instructions):
     0x04B6 [0xBD] END_LOAD_SCHEDULER_MAIN_ALT6: End scheduler 0x04D10080 with entities [Unknown NPC (ID: 90571008/0x05660100), Unknown NPC (ID: 202375170/0x0C100002)], work=0x2104
     0x04C5 [0x0C] ExtData[1]->WorkLocal[3]--
     0x04C8 [0x06] ExtData[1]->WorkLocal[4] = 0
     0x04CB [0x01] GOTO 0x0015
     0x04CE [0x01] GOTO 0x0566
     0x04D1 [0x02] IF !(Work_Zone[0] == 10*) GOTO 0x04E5
     0x04D9 [0x0B] ExtData[1]->WorkLocal[3]++
     0x04DC [0x06] ExtData[1]->WorkLocal[4] = 0
     0x04DF [0x01] GOTO 0x0015
     0x04E2 [0x01] GOTO 0x0566
     0x04E5 [0x03] ExtData[1]->WorkLocal[4] = Work_Zone[0]
     0x04EA [0x03] ExtData[1]->WorkLocal[2] = Work_Zone[0]
     0x04EF [0x03] ExtData[1]->WorkLocal[0] = ExtData[1]->WorkLocal[3]
     0x04F4 [0x14] ExtData[1]->WorkLocal[0] *= 8*
     0x04F9 [0x07] ExtData[1]->WorkLocal[2] += ExtData[1]->WorkLocal[0]
     0x04FE [0x0C] ExtData[1]->WorkLocal[2]--
     0x0501 [0x02] IF !((LocalPlayer->Render.Flags01 >> 25) & 1 == 0*) GOTO 0x0516
     0x0509 [0x9D] IF (0x05D9) ExtData[1]->WorkLocal[2] = Work_Zone[2] // extra=0x8003
     0x0513 [0x01] GOTO 0x0520
     0x0516 [0x9D] IF (0x0579) ExtData[1]->WorkLocal[2] = Work_Zone[2] // extra=0x8003
     0x0520 [0x93] DISPLAY_ITEM_INFO(item_id=Work_Zone[2])
     0x0523 [0x48] [System] [16757*]:
    → "You pull out $0 for closer inspection."
     0x0526 [0x23] WAIT_FOR_DIALOG_INTERACTION
     0x0527 [0x93] DISPLAY_ITEM_INFO(item_id=0*)
     0x052A [0xD4] MAP_QUERY_WINDOW: Prepare buffer configuration A (buffer=[01 80 02 10 D4 03 04 80...])
     0x0548 [0x03] Work_Zone[1] = ExtData[1]->WorkLocal[2]
     0x054D [0x43] SEND_EVENT_UPDATE: Send pending tag to server (packet 0x005B)
     0x054F [0x43] SEND_EVENT_UPDATE: Check pending flag (skip if not pending)
     0x0551 [0x02] IF !(Work_Zone[2] <= 0*) GOTO 0x0560
     0x0559 [0x2E] SET_CLI_EVENT_CANCEL_FLAGS()
     0x055A [0x01] GOTO 0x0015
     0x055D [0x01] GOTO 0x0560
     0x0560 [0x01] GOTO 0x0566
     0x0563 [0x01] GOTO 0x0015
     0x0566 [0x21] END_EVENT
     0x0567 [0x00] END_REQSTACK()
# Dead code (unreachable instructions):
     0x0579 [0x37] UPDATE_EVENT_POSITION_AND_DIR: x=0x3880, z=0x3980, y=0x3A80, direction=0x3B80
     0x0582 [0x80] LOAD_WAIT(entity=Unknown NPC (ID: 2151514172/0x803D803C))
     0x0587 [0x3E] IF !(0x3F80 bit 0x4080) GOTO 0x4180
     0x058E [0x80] LOAD_WAIT(entity=Unknown NPC (ID: 2151907394/0x80438042))
     0x0593 [0x44] IF_ENTITY_VALID(Unknown NPC (ID: 17792/0x00004580) valid ? continue : jump_to=0x4680)
     0x0598 [0x80] LOAD_WAIT(entity=Unknown NPC (ID: 2152235079/0x80488047))
     0x059D [0x49] Unknown NPC (ID: 1266698880/0x4B804A80) (No speaker name) [0x4C80]:
     0x05A4 [0x80] LOAD_WAIT(entity=Unknown NPC (ID: 2152628301/0x804E804D))
     0x05A9 [0x4F] EventEntity->StatusEvent = 0x5080 // Custom event value
     0x05AC [0x80] LOAD_WAIT(entity=Unknown NPC (ID: 2152890449/0x80528051))
     0x05B1 [0x53] WAIT_SCHEDULER_TASK: Wait for scheduler 0x59805880 with entities [Unknown NPC (ID: 1434473600/0x55805480), Unknown NPC (ID: 1468028544/0x57805680)]
     0x05BE [0x80] LOAD_WAIT(entity=Unknown NPC (ID: 2153480282/0x805B805A))
     0x05C3 [0x5C] MUSIC_CONTROL: Set Idle (Day) music to song 3745*, volume=3746*
     0x05C9 [0x5F] MULTI_HANDLER_COMPLEX(mode=0x80 - Unknown)
     0x05CB [0x01] GOTO 0x0180
     0x05CE [0x80] LOAD_WAIT(entity=Unknown NPC (ID: 2147581953/0x80018001))
     0x05D3 [0x01] GOTO 0x0180
     0x05D6 [0x80] LOAD_WAIT(entity=Unknown NPC (ID: 2151120897/0x80378001))
     0x05DB [0x38] SET_CLIENT_EVENT_MODE(mode=0x6080)
     0x05DE [0x80] LOAD_WAIT(entity=Unknown NPC (ID: 2153939041/0x80628061))
     0x05E3 [0x63] PLAY_ANIMATION_WAIT(animation=25728)
     0x05E6 [0x80] LOAD_WAIT(entity=Unknown NPC (ID: 2154201189/0x80668065))
     0x05EB [0x67] HIDE_HUD_ELEMENTS(param1=0x4180, param2=0x4280)
     0x05F0 [0x80] LOAD_WAIT(entity=Unknown NPC (ID: 2151972931/0x80448043))
     0x05F5 [0x45] LOAD_SCHEDULED_TASK: Load scheduler 0x4C804B80 with entities [Unknown NPC (ID: 1216366464/0x48804780), Unknown NPC (ID: 1249921408/0x4A804980)], work=[0x4680, 0x4D80]
     0x0606 [0x80] LOAD_WAIT(entity=Unknown NPC (ID: 2152693838/0x804F804E))
     0x060B [0x50] END_SCHEDULER_TASK: End scheduler 0x00005580 with entities [0x5180, 0x5380], work=[21120, 21632]
     0x0618 [0x80] LOAD_WAIT(entity=Unknown NPC (ID: 2153283671/0x80588057))
     0x061D [0x59] UPDATE_ENTITY_DATA: Unknown mode 128
     0x0621 [0x5B] LOAD_EXT_SCHEDULER: Load scheduler 0x01800180 with entities [Unknown NPC (ID: 1585470848/0x5E805D80), Unknown NPC (ID: 25190272/0x01805F80)], work=0x5C80
     0x0630 [0x80] LOAD_WAIT(entity=Unknown NPC (ID: 2147581953/0x80018001))
     0x0635 [0x01] GOTO 0x0180
```
