# 17752081 - Furakku-Norakku

## Common Data

| Field            | Value                     |
|------------------|---------------------------|
| Zone             | Windurst Waters (ID: 238) |
| Block Size       | 1372 bytes                |
| Total Events     | 39                        |
| References Count | 46                        |

## List of Events

| Event ID                   | Entrypoint   |   Size |   Instructions |
|----------------------------|--------------|--------|----------------|
| [65535](#event-65535)      | 0x0000       |      1 |              1 |
| [65535.1](#event-655351)   | 0x0001       |     16 |              2 |
| [65535.2](#event-655352)   | 0x0011       |     22 |              4 |
| [65535.3](#event-655353)   | 0x0027       |     16 |              2 |
| [65535.4](#event-655354)   | 0x0037       |     14 |              2 |
| [65535.5](#event-655355)   | 0x0045       |     16 |              2 |
| [65535.6](#event-655356)   | 0x0055       |     14 |              2 |
| [65535.7](#event-655357)   | 0x0063       |     16 |              2 |
| [65535.8](#event-655358)   | 0x0073       |     14 |              2 |
| [65535.9](#event-655359)   | 0x0081       |     16 |              2 |
| [65535.10](#event-6553510) | 0x0091       |     14 |              2 |
| [65535.11](#event-6553511) | 0x009F       |      9 |              3 |
| [371](#event-371)          | 0x00A8       |     33 |             12 |
| [165](#event-165)          | 0x00C9       |     33 |             12 |
| [173](#event-173)          | 0x00EA       |     33 |             12 |
| [389](#event-389)          | 0x010B       |     32 |              9 |
| [65535.12](#event-6553512) | 0x012B       |     23 |              7 |
| [65535.13](#event-6553513) | 0x0142       |     23 |              7 |
| [65535.14](#event-6553514) | 0x0159       |     37 |              9 |
| [390](#event-390)          | 0x017E       |     29 |             10 |
| [397](#event-397)          | 0x019B       |     51 |             16 |
| [400](#event-400)          | 0x01CE       |     45 |             11 |
| [65535.15](#event-6553515) | 0x01FB       |     23 |              7 |
| [65535.16](#event-6553516) | 0x0212       |     19 |              5 |
| [401](#event-401)          | 0x0225       |     29 |             10 |
| [404](#event-404)          | 0x0242       |     25 |              8 |
| [65535.17](#event-6553517) | 0x025B       |     55 |             13 |
| [405](#event-405)          | 0x0292       |     33 |             12 |
| [409](#event-409)          | 0x02B3       |     37 |             14 |
| [410](#event-410)          | 0x02D8       |     45 |             11 |
| [65535.18](#event-6553518) | 0x0305       |     23 |              7 |
| [65535.19](#event-6553519) | 0x031C       |     19 |              5 |
| [411](#event-411)          | 0x032F       |     29 |             10 |
| [720](#event-720)          | 0x034C       |     33 |             12 |
| [721](#event-721)          | 0x036D       |     29 |             10 |
| [816](#event-816)          | 0x038A       |    106 |             29 |
| [1156](#event-1156)        | 0x03F4       |      1 |              1 |
| [1157](#event-1157)        | 0x03F5       |      1 |              1 |
| [1159](#event-1159)        | 0x03F6       |      1 |              1 |

## DAT References (imed_data)

|   Index | Hex Value   |   Dec Value |
|---------|-------------|-------------|
|       0 | 0x0028      |          40 |
|       1 | 0x001E      |          30 |
|       2 | 0x0029      |          41 |
|       3 | 0x1FEA      |        8170 |
|       4 | 0x1FEB      |        8171 |
|       5 | 0x1E08      |        7688 |
|       6 | 0x1E09      |        7689 |
|       7 | 0x1E1C      |        7708 |
|       8 | 0x1E1D      |        7709 |
|       9 | 0x2024      |        8228 |
|      10 | 0x2025      |        8229 |
|      11 | 0x2026      |        8230 |
|      12 | 0x2027      |        8231 |
|      13 | 0x2028      |        8232 |
|      14 | 0x2029      |        8233 |
|      15 | 0x202A      |        8234 |
|      16 | 0x203A      |        8250 |
|      17 | 0x203B      |        8251 |
|      18 | 0x203C      |        8252 |
|      19 | 0x00C9      |         201 |
|      20 | 0x0000      |           0 |
|      21 | 0x2041      |        8257 |
|      22 | 0x2042      |        8258 |
|      23 | 0x2043      |        8259 |
|      24 | 0x2044      |        8260 |
|      25 | 0x2048      |        8264 |
|      26 | 0x2049      |        8265 |
|      27 | 0x204A      |        8266 |
|      28 | 0x204B      |        8267 |
|      29 | 0x204C      |        8268 |
|      30 | 0x2052      |        8274 |
|      31 | 0x2053      |        8275 |
|      32 | 0x2054      |        8276 |
|      33 | 0x2055      |        8277 |
|      34 | 0x2056      |        8278 |
|      35 | 0x2057      |        8279 |
|      36 | 0x2058      |        8280 |
|      37 | 0x25D7      |        9687 |
|      38 | 0x25D8      |        9688 |
|      39 | 0x25D9      |        9689 |
|      40 | 0x273B      |       10043 |
|      41 | 0x273C      |       10044 |
|      42 | 0x273D      |       10045 |
|      43 | 0x273E      |       10046 |
|      44 | 0x273F      |       10047 |
|      45 | 0x2740      |       10048 |

## String References

- **7688**: ...Huah? What's that you say...? Oh, yeah, the restricted book that was lost twenty years back...?
- **7689**: Yeah, it sounds like a lot of trouble. So much of a hurry-scurry, I can hardly sleep...
- **7708**: ...Huah? What's that you say...? Book of the Gods?
- **7709**: I prefer a nooks of the nods myself... Leave me alone... ZZZzzz...
- **8170**: Huah...? Say what...? This is the Library of Magic. If you make too much noise, we'll kick you out, so look around quietly!
- **8171**: Oh, and be warned. If layfolk such as you go around opening books at random, you could find yourself in more trouble than you bargained for. Huah...! ZZZzzz...
- **8228**: Huh...? Savior of knowledge?
- **8229**: Oh...you mean the overdue book collector's job, right? Great. We need all the help we can get.
- **8230**: Let me see... This week, the following book is overdue...
- **8231**: Some Hume named Orn still has the book $3 out on loan.
- **8232**: First, ask around town to track the borrower down, hand him this card, get the book from him, and return it to me here.
- **8233**: Well, good luck. Phew... That's one less chore to do.
- **8234**: Huh? You forgot? You're supposed to be getting the overdue book, $3, back from a Hume named Orn.
- **8250**: Huah...! What to do when you lose one of our books?
- **8251**: If that's the case, you've just lost an important national treasure! You can't just pay money to get out of it. You'll be sent to scary-wary prison! Just the thought gives me the shiver-wivers...
- **8252**: Anyway, you shouldn't be asking that. Hurry up and get $6 back off of him. I sure hope he hasn't lost it...!
- **8257**: Huaaah...? Oh, you got our overdue library book back?
- **8258**: Ah, but look at the poor thingy-wingy. It's been all ripped up and dirtied. I wonder what hideously hideous thing happened to it?
- **8259**: Here you go... This is for your troubles. Let's do this again sometime! The pleasure was mine, entirely...
- **8260**: Let's do the lost book retrieval again sometime, eh? Sorry, at the moment I'm all booked out! Huaaah... ZZZzzz...
- **8264**: Let me see... Oh yeah... This week we have the following unreturned book...
- **8265**: Hae Jakkya from the Windurst Woods auction house.
- **8266**: She's still got the book $3 out on loan. Erch... That's one of those hot and steamy, mushy and slushy, love romance novels.
- **8267**: Huh? You forgot? It's Hae Jakkya, who runs the auction house in The Windurst Woods.
- **8268**: She's got a romance novel out called $3 that is now overdue. Please get it back for us, okay?
- **8274**: Huh? What do you mean, she says she didn't borrow it? It says so right here...
- **8275**: But come to think of it, she doesn't seem the type to borrow such a tacky book. This is strange.
- **8276**: But look, it says Hae Jakhya right here on the borrower's card...
- **8277**: Huaaaah...? You found that overdue book?
- **8278**: Huh? Someone with almost the exact same name had it out on loan? Hm... Same diff...
- **8279**: Anyway, here's your payment, bucko. See you around next time, I s'pose...
- **8280**: I'll talk to you next time we have an unreturned book to fetch. Till then... Huaaah... ZZZzzz...
- **9687**: ...Phewaaah...? Huh? You found an old $3?
- **9688**: ...That looks like the ring that belonged to our previous minister, Karaha-Baruha. It was lost during the trouble-woubles of the Great War. But somebody was wearing it, rightaru?
- **9689**: ...Huaaah...? We're in the middle of cleaning out the book vault, so no borrowing today. Terribly sorry.
- **10043**: Huaaah... You want to know about Uran-Mafran...?
- **10044**: I remember him. Yes, I remember him very well.
- **10045**: Hmmm... So they finally found him, huh? I'm surprised he was still alive.
- **10046**: But besides that, how is Ildy-Goldy doing? He was in terrible-werrible shape after that Dark Dungeon incident...
- **10047**: I'll never forget when we all went to see him and heard that no magic or item could ever cure him...
- **10048**: I wonder if the reason Uran-Mafran left was to search for a way to cure Ildy-Goldy...?

## Events

### Event 65535

#### Metadata

| Field        | Value   |
|--------------|---------|
| Entrypoint   | 0x0000  |
| Data Size    | 1 bytes |
| Instructions | 1       |

```
      00 01 02 03 04 05 06 07  08 09 0A 0B 0C 0D 0E 0F
      -- -- -- -- -- -- -- --  -- -- -- -- -- -- -- --
0000: 00                                                .               
```

#### Opcodes

```
  0: 0x0000 [0x00] END_REQSTACK()
```

### Event 65535.1

#### Metadata

| Field        | Value    |
|--------------|----------|
| Entrypoint   | 0x0001   |
| Data Size    | 16 bytes |
| Instructions | 2        |

```
      00 01 02 03 04 05 06 07  08 09 0A 0B 0C 0D 0E 0F
      -- -- -- -- -- -- -- --  -- -- -- -- -- -- -- --
0000:    66 00 80 F8 FF FF 7F  F8 FF FF 7F 74 6C 6B 30   f..........tlk0
0010: 00                                                .               
```

#### Opcodes

```
  0: 0x0001 [0x66] LOAD_EXT_SCHEDULER_MAIN: Load scheduler "tlk0" with entities [EventEntity, EventEntity], work=40*
  1: 0x0010 [0x00] END_REQSTACK()
```

### Event 65535.2

#### Metadata

| Field        | Value    |
|--------------|----------|
| Entrypoint   | 0x0011   |
| Data Size    | 22 bytes |
| Instructions | 4        |

```
      00 01 02 03 04 05 06 07  08 09 0A 0B 0C 0D 0E 0F
      -- -- -- -- -- -- -- --  -- -- -- -- -- -- -- --
0010:    53 F8 FF FF 7F F8 FF  FF 7F 74 6C 6B 30 5E 69   S........tlk0^i
0020: 64 6C 30 1C 01 80 00                              dl0....         
```

#### Opcodes

```
  0: 0x0011 [0x53] WAIT_SCHEDULER_TASK: Wait for scheduler "tlk0" with entities [EventEntity, EventEntity]
  1: 0x001E [0x5E] EventEntity goes idle (kills current action) (animation: "idl0")
  2: 0x0023 [0x1C] WAIT(30* ticks)
  3: 0x0026 [0x00] END_REQSTACK()
```

### Event 65535.3

#### Metadata

| Field        | Value    |
|--------------|----------|
| Entrypoint   | 0x0027   |
| Data Size    | 16 bytes |
| Instructions | 2        |

```
      00 01 02 03 04 05 06 07  08 09 0A 0B 0C 0D 0E 0F
      -- -- -- -- -- -- -- --  -- -- -- -- -- -- -- --
0020:                      66  00 80 F8 FF FF 7F F8 FF         f........
0030: FF 7F 74 68 6B 31 00                              ..thk1.         
```

#### Opcodes

```
  0: 0x0027 [0x66] LOAD_EXT_SCHEDULER_MAIN: Load scheduler "thk1" with entities [EventEntity, EventEntity], work=40*
  1: 0x0036 [0x00] END_REQSTACK()
```

### Event 65535.4

#### Metadata

| Field        | Value    |
|--------------|----------|
| Entrypoint   | 0x0037   |
| Data Size    | 14 bytes |
| Instructions | 2        |

```
      00 01 02 03 04 05 06 07  08 09 0A 0B 0C 0D 0E 0F
      -- -- -- -- -- -- -- --  -- -- -- -- -- -- -- --
0030:                      53  F8 FF FF 7F F8 FF FF 7F         S........
0040: 74 68 6B 31 00                                    thk1.           
```

#### Opcodes

```
  0: 0x0037 [0x53] WAIT_SCHEDULER_TASK: Wait for scheduler "thk1" with entities [EventEntity, EventEntity]
  1: 0x0044 [0x00] END_REQSTACK()
```

### Event 65535.5

#### Metadata

| Field        | Value    |
|--------------|----------|
| Entrypoint   | 0x0045   |
| Data Size    | 16 bytes |
| Instructions | 2        |

```
      00 01 02 03 04 05 06 07  08 09 0A 0B 0C 0D 0E 0F
      -- -- -- -- -- -- -- --  -- -- -- -- -- -- -- --
0040:                66 00 80  F8 FF FF 7F F8 FF FF 7F       f..........
0050: 74 68 6B 32 00                                    thk2.           
```

#### Opcodes

```
  0: 0x0045 [0x66] LOAD_EXT_SCHEDULER_MAIN: Load scheduler "thk2" with entities [EventEntity, EventEntity], work=40*
  1: 0x0054 [0x00] END_REQSTACK()
```

### Event 65535.6

#### Metadata

| Field        | Value    |
|--------------|----------|
| Entrypoint   | 0x0055   |
| Data Size    | 14 bytes |
| Instructions | 2        |

```
      00 01 02 03 04 05 06 07  08 09 0A 0B 0C 0D 0E 0F
      -- -- -- -- -- -- -- --  -- -- -- -- -- -- -- --
0050:                53 F8 FF  FF 7F F8 FF FF 7F 74 68       S........th
0060: 6B 32 00                                          k2.             
```

#### Opcodes

```
  0: 0x0055 [0x53] WAIT_SCHEDULER_TASK: Wait for scheduler "thk2" with entities [EventEntity, EventEntity]
  1: 0x0062 [0x00] END_REQSTACK()
```

### Event 65535.7

#### Metadata

| Field        | Value    |
|--------------|----------|
| Entrypoint   | 0x0063   |
| Data Size    | 16 bytes |
| Instructions | 2        |

```
      00 01 02 03 04 05 06 07  08 09 0A 0B 0C 0D 0E 0F
      -- -- -- -- -- -- -- --  -- -- -- -- -- -- -- --
0060:          66 02 80 F8 FF  FF 7F F8 FF FF 7F 6E 6D     f..........nm
0070: 69 30 00                                          i0.             
```

#### Opcodes

```
  0: 0x0063 [0x66] LOAD_EXT_SCHEDULER_MAIN: Load scheduler "nmi0" with entities [EventEntity, EventEntity], work=41*
  1: 0x0072 [0x00] END_REQSTACK()
```

### Event 65535.8

#### Metadata

| Field        | Value    |
|--------------|----------|
| Entrypoint   | 0x0073   |
| Data Size    | 14 bytes |
| Instructions | 2        |

```
      00 01 02 03 04 05 06 07  08 09 0A 0B 0C 0D 0E 0F
      -- -- -- -- -- -- -- --  -- -- -- -- -- -- -- --
0070:          53 F8 FF FF 7F  F8 FF FF 7F 6E 6D 69 30     S........nmi0
0080: 00                                                .               
```

#### Opcodes

```
  0: 0x0073 [0x53] WAIT_SCHEDULER_TASK: Wait for scheduler "nmi0" with entities [EventEntity, EventEntity]
  1: 0x0080 [0x00] END_REQSTACK()
```

### Event 65535.9

#### Metadata

| Field        | Value    |
|--------------|----------|
| Entrypoint   | 0x0081   |
| Data Size    | 16 bytes |
| Instructions | 2        |

```
      00 01 02 03 04 05 06 07  08 09 0A 0B 0C 0D 0E 0F
      -- -- -- -- -- -- -- --  -- -- -- -- -- -- -- --
0080:    66 00 80 F8 FF FF 7F  F8 FF FF 7F 70 61 73 30   f..........pas0
0090: 00                                                .               
```

#### Opcodes

```
  0: 0x0081 [0x66] LOAD_EXT_SCHEDULER_MAIN: Load scheduler "pas0" with entities [EventEntity, EventEntity], work=40*
  1: 0x0090 [0x00] END_REQSTACK()
```

### Event 65535.10

#### Metadata

| Field        | Value    |
|--------------|----------|
| Entrypoint   | 0x0091   |
| Data Size    | 14 bytes |
| Instructions | 2        |

```
      00 01 02 03 04 05 06 07  08 09 0A 0B 0C 0D 0E 0F
      -- -- -- -- -- -- -- --  -- -- -- -- -- -- -- --
0090:    53 F8 FF FF 7F F8 FF  FF 7F 70 61 73 30 00      S........pas0. 
```

#### Opcodes

```
  0: 0x0091 [0x53] WAIT_SCHEDULER_TASK: Wait for scheduler "pas0" with entities [EventEntity, EventEntity]
  1: 0x009E [0x00] END_REQSTACK()
```

### Event 65535.11

#### Metadata

| Field        | Value   |
|--------------|---------|
| Entrypoint   | 0x009F  |
| Data Size    | 9 bytes |
| Instructions | 3       |

```
      00 01 02 03 04 05 06 07  08 09 0A 0B 0C 0D 0E 0F
      -- -- -- -- -- -- -- --  -- -- -- -- -- -- -- --
0090:                                               5E                 ^
00A0: 69 64 6C 30 1C 01 80 00                           idl0....        
```

#### Opcodes

```
  0: 0x009F [0x5E] EventEntity goes idle (kills current action) (animation: "idl0")
  1: 0x00A4 [0x1C] WAIT(30* ticks)
  2: 0x00A7 [0x00] END_REQSTACK()
```

### Event 371

#### Metadata

| Field        | Value    |
|--------------|----------|
| Entrypoint   | 0x00A8   |
| Data Size    | 33 bytes |
| Instructions | 12       |

```
      00 01 02 03 04 05 06 07  08 09 0A 0B 0C 0D 0E 0F
      -- -- -- -- -- -- -- --  -- -- -- -- -- -- -- --
00A0:                          1E F0 FF FF 7F 6F 70 29          .....op)
00B0: 08 11 E0 0E 01 07 1D 03  80 23 29 08 11 E0 0E 01  .........#).....
00C0: 08 1D 04 80 23 20 00 21  00                       ....# .!.       
```

#### Opcodes

```
  0: 0x00A8 [0x1E] EventEntity looks at LocalPlayer and starts talking
  1: 0x00AD [0x6F] WAIT_FRAME_DELAY: Yield until WaitTime reaches zero
  2: 0x00AE [0x70] WAIT_ENTITY_RENDER_FLAG: Wait while EventEntity->Render.Flags3 bit 2 is set (cancel turn if not)
  3: 0x00AF [0x29] REQ_SET_WAIT(priority=0x08, entity_id=Furakku-Norakku (ID: 17752081/0x010EE011), tag_num=0x07)
  4: 0x00B6 [0x1D] PRINT_EVENT_MESSAGE(message_id=8170*)
    → "Huah...? Say what...? This is the Library of Magic. If you make too much noise, we'll kick you out, so look around quietly!"
  5: 0x00B9 [0x23] WAIT_FOR_DIALOG_INTERACTION
  6: 0x00BA [0x29] REQ_SET_WAIT(priority=0x08, entity_id=Furakku-Norakku (ID: 17752081/0x010EE011), tag_num=0x08)
  7: 0x00C1 [0x1D] PRINT_EVENT_MESSAGE(message_id=8171*)
    → "Oh, and be warned. If layfolk such as you go around opening books at random, you could find yourself in more trouble than you bargained for. Huah...! ZZZzzz..."
  8: 0x00C4 [0x23] WAIT_FOR_DIALOG_INTERACTION
  9: 0x00C5 [0x20] SET_CLI_EVENT_UC_FLAG: Unlock player control
 10: 0x00C7 [0x21] END_EVENT
 11: 0x00C8 [0x00] END_REQSTACK()
```

### Event 165

#### Metadata

| Field        | Value    |
|--------------|----------|
| Entrypoint   | 0x00C9   |
| Data Size    | 33 bytes |
| Instructions | 12       |

```
      00 01 02 03 04 05 06 07  08 09 0A 0B 0C 0D 0E 0F
      -- -- -- -- -- -- -- --  -- -- -- -- -- -- -- --
00C0:                             1E F0 FF FF 7F 6F 70           .....op
00D0: 29 08 11 E0 0E 01 07 1D  05 80 23 29 08 11 E0 0E  ).........#)....
00E0: 01 08 1D 06 80 23 20 00  21 00                    .....# .!.      
```

#### Opcodes

```
  0: 0x00C9 [0x1E] EventEntity looks at LocalPlayer and starts talking
  1: 0x00CE [0x6F] WAIT_FRAME_DELAY: Yield until WaitTime reaches zero
  2: 0x00CF [0x70] WAIT_ENTITY_RENDER_FLAG: Wait while EventEntity->Render.Flags3 bit 2 is set (cancel turn if not)
  3: 0x00D0 [0x29] REQ_SET_WAIT(priority=0x08, entity_id=Furakku-Norakku (ID: 17752081/0x010EE011), tag_num=0x07)
  4: 0x00D7 [0x1D] PRINT_EVENT_MESSAGE(message_id=7688*)
    → "...Huah? What's that you say...? Oh, yeah, the restricted book that was lost twenty years back...?"
  5: 0x00DA [0x23] WAIT_FOR_DIALOG_INTERACTION
  6: 0x00DB [0x29] REQ_SET_WAIT(priority=0x08, entity_id=Furakku-Norakku (ID: 17752081/0x010EE011), tag_num=0x08)
  7: 0x00E2 [0x1D] PRINT_EVENT_MESSAGE(message_id=7689*)
    → "Yeah, it sounds like a lot of trouble. So much of a hurry-scurry, I can hardly sleep..."
  8: 0x00E5 [0x23] WAIT_FOR_DIALOG_INTERACTION
  9: 0x00E6 [0x20] SET_CLI_EVENT_UC_FLAG: Unlock player control
 10: 0x00E8 [0x21] END_EVENT
 11: 0x00E9 [0x00] END_REQSTACK()
```

### Event 173

#### Metadata

| Field        | Value    |
|--------------|----------|
| Entrypoint   | 0x00EA   |
| Data Size    | 33 bytes |
| Instructions | 12       |

```
      00 01 02 03 04 05 06 07  08 09 0A 0B 0C 0D 0E 0F
      -- -- -- -- -- -- -- --  -- -- -- -- -- -- -- --
00E0:                                1E F0 FF FF 7F 6F            .....o
00F0: 70 29 08 11 E0 0E 01 07  1D 07 80 23 29 08 11 E0  p).........#)...
0100: 0E 01 08 1D 08 80 23 20  00 21 00                 ......# .!.     
```

#### Opcodes

```
  0: 0x00EA [0x1E] EventEntity looks at LocalPlayer and starts talking
  1: 0x00EF [0x6F] WAIT_FRAME_DELAY: Yield until WaitTime reaches zero
  2: 0x00F0 [0x70] WAIT_ENTITY_RENDER_FLAG: Wait while EventEntity->Render.Flags3 bit 2 is set (cancel turn if not)
  3: 0x00F1 [0x29] REQ_SET_WAIT(priority=0x08, entity_id=Furakku-Norakku (ID: 17752081/0x010EE011), tag_num=0x07)
  4: 0x00F8 [0x1D] PRINT_EVENT_MESSAGE(message_id=7708*)
    → "...Huah? What's that you say...? Book of the Gods?"
  5: 0x00FB [0x23] WAIT_FOR_DIALOG_INTERACTION
  6: 0x00FC [0x29] REQ_SET_WAIT(priority=0x08, entity_id=Furakku-Norakku (ID: 17752081/0x010EE011), tag_num=0x08)
  7: 0x0103 [0x1D] PRINT_EVENT_MESSAGE(message_id=7709*)
    → "I prefer a nooks of the nods myself... Leave me alone... ZZZzzz..."
  8: 0x0106 [0x23] WAIT_FOR_DIALOG_INTERACTION
  9: 0x0107 [0x20] SET_CLI_EVENT_UC_FLAG: Unlock player control
 10: 0x0109 [0x21] END_EVENT
 11: 0x010A [0x00] END_REQSTACK()
```

### Event 389

#### Metadata

| Field        | Value    |
|--------------|----------|
| Entrypoint   | 0x010B   |
| Data Size    | 32 bytes |
| Instructions | 9        |

```
      00 01 02 03 04 05 06 07  08 09 0A 0B 0C 0D 0E 0F
      -- -- -- -- -- -- -- --  -- -- -- -- -- -- -- --
0100:                                   1E F0 FF FF 7F             .....
0110: 6F 70 29 0B 11 E0 0E 01  10 29 0B 11 E0 0E 01 11  op)......)......
0120: 29 0B 11 E0 0E 01 12 20  00 21 00                 )...... .!.     
```

#### Opcodes

```
  0: 0x010B [0x1E] EventEntity looks at LocalPlayer and starts talking
  1: 0x0110 [0x6F] WAIT_FRAME_DELAY: Yield until WaitTime reaches zero
  2: 0x0111 [0x70] WAIT_ENTITY_RENDER_FLAG: Wait while EventEntity->Render.Flags3 bit 2 is set (cancel turn if not)
  3: 0x0112 [0x29] REQ_SET_WAIT(priority=0x0B, entity_id=Furakku-Norakku (ID: 17752081/0x010EE011), tag_num=0x10)
  4: 0x0119 [0x29] REQ_SET_WAIT(priority=0x0B, entity_id=Furakku-Norakku (ID: 17752081/0x010EE011), tag_num=0x11)
  5: 0x0120 [0x29] REQ_SET_WAIT(priority=0x0B, entity_id=Furakku-Norakku (ID: 17752081/0x010EE011), tag_num=0x12)
  6: 0x0127 [0x20] SET_CLI_EVENT_UC_FLAG: Unlock player control
  7: 0x0129 [0x21] END_EVENT
  8: 0x012A [0x00] END_REQSTACK()
```

### Event 65535.12

#### Metadata

| Field        | Value    |
|--------------|----------|
| Entrypoint   | 0x012B   |
| Data Size    | 23 bytes |
| Instructions | 7        |

```
      00 01 02 03 04 05 06 07  08 09 0A 0B 0C 0D 0E 0F
      -- -- -- -- -- -- -- --  -- -- -- -- -- -- -- --
0120:                                   29 08 11 E0 0E             )....
0130: 01 07 1D 09 80 23 29 08  11 E0 0E 01 08 1D 0A 80  .....#).........
0140: 23 00                                             #.              
```

#### Opcodes

```
  0: 0x012B [0x29] REQ_SET_WAIT(priority=0x08, entity_id=Furakku-Norakku (ID: 17752081/0x010EE011), tag_num=0x07)
  1: 0x0132 [0x1D] PRINT_EVENT_MESSAGE(message_id=8228*)
    → "Huh...? Savior of knowledge?"
  2: 0x0135 [0x23] WAIT_FOR_DIALOG_INTERACTION
  3: 0x0136 [0x29] REQ_SET_WAIT(priority=0x08, entity_id=Furakku-Norakku (ID: 17752081/0x010EE011), tag_num=0x08)
  4: 0x013D [0x1D] PRINT_EVENT_MESSAGE(message_id=8229*)
    → "Oh...you mean the overdue book collector's job, right? Great. We need all the help we can get."
  5: 0x0140 [0x23] WAIT_FOR_DIALOG_INTERACTION
  6: 0x0141 [0x00] END_REQSTACK()
```

### Event 65535.13

#### Metadata

| Field        | Value    |
|--------------|----------|
| Entrypoint   | 0x0142   |
| Data Size    | 23 bytes |
| Instructions | 7        |

```
      00 01 02 03 04 05 06 07  08 09 0A 0B 0C 0D 0E 0F
      -- -- -- -- -- -- -- --  -- -- -- -- -- -- -- --
0140:       29 08 11 E0 0E 01  01 1D 0B 80 23 1D 0C 80    ).........#...
0150: 23 29 08 11 E0 0E 01 02  00                       #).......       
```

#### Opcodes

```
  0: 0x0142 [0x29] REQ_SET_WAIT(priority=0x08, entity_id=Furakku-Norakku (ID: 17752081/0x010EE011), tag_num=0x01)
  1: 0x0149 [0x1D] PRINT_EVENT_MESSAGE(message_id=8230*)
    → "Let me see... This week, the following book is overdue..."
  2: 0x014C [0x23] WAIT_FOR_DIALOG_INTERACTION
  3: 0x014D [0x1D] PRINT_EVENT_MESSAGE(message_id=8231*)
    → "Some Hume named Orn still has the book $3 out on loan."
  4: 0x0150 [0x23] WAIT_FOR_DIALOG_INTERACTION
  5: 0x0151 [0x29] REQ_SET_WAIT(priority=0x08, entity_id=Furakku-Norakku (ID: 17752081/0x010EE011), tag_num=0x02)
  6: 0x0158 [0x00] END_REQSTACK()
```

### Event 65535.14

#### Metadata

| Field        | Value    |
|--------------|----------|
| Entrypoint   | 0x0159   |
| Data Size    | 37 bytes |
| Instructions | 9        |

```
      00 01 02 03 04 05 06 07  08 09 0A 0B 0C 0D 0E 0F
      -- -- -- -- -- -- -- --  -- -- -- -- -- -- -- --
0150:                             29 08 11 E0 0E 01 01           )......
0160: 1D 0D 80 23 29 08 11 E0  0E 01 02 29 08 11 E0 0E  ...#)......)....
0170: 01 07 1D 0E 80 23 29 08  11 E0 0E 01 08 00        .....#).......  
```

#### Opcodes

```
  0: 0x0159 [0x29] REQ_SET_WAIT(priority=0x08, entity_id=Furakku-Norakku (ID: 17752081/0x010EE011), tag_num=0x01)
  1: 0x0160 [0x1D] PRINT_EVENT_MESSAGE(message_id=8232*)
    → "First, ask around town to track the borrower down, hand him this card, get the book from him, and return it to me here."
  2: 0x0163 [0x23] WAIT_FOR_DIALOG_INTERACTION
  3: 0x0164 [0x29] REQ_SET_WAIT(priority=0x08, entity_id=Furakku-Norakku (ID: 17752081/0x010EE011), tag_num=0x02)
  4: 0x016B [0x29] REQ_SET_WAIT(priority=0x08, entity_id=Furakku-Norakku (ID: 17752081/0x010EE011), tag_num=0x07)
  5: 0x0172 [0x1D] PRINT_EVENT_MESSAGE(message_id=8233*)
    → "Well, good luck. Phew... That's one less chore to do."
  6: 0x0175 [0x23] WAIT_FOR_DIALOG_INTERACTION
  7: 0x0176 [0x29] REQ_SET_WAIT(priority=0x08, entity_id=Furakku-Norakku (ID: 17752081/0x010EE011), tag_num=0x08)
  8: 0x017D [0x00] END_REQSTACK()
```

### Event 390

#### Metadata

| Field        | Value    |
|--------------|----------|
| Entrypoint   | 0x017E   |
| Data Size    | 29 bytes |
| Instructions | 10       |

```
      00 01 02 03 04 05 06 07  08 09 0A 0B 0C 0D 0E 0F
      -- -- -- -- -- -- -- --  -- -- -- -- -- -- -- --
0170:                                            1E F0                ..
0180: FF FF 7F 6F 70 29 08 11  E0 0E 01 01 1D 0F 80 23  ...op).........#
0190: 29 08 11 E0 0E 01 02 20  00 21 00                 )...... .!.     
```

#### Opcodes

```
  0: 0x017E [0x1E] EventEntity looks at LocalPlayer and starts talking
  1: 0x0183 [0x6F] WAIT_FRAME_DELAY: Yield until WaitTime reaches zero
  2: 0x0184 [0x70] WAIT_ENTITY_RENDER_FLAG: Wait while EventEntity->Render.Flags3 bit 2 is set (cancel turn if not)
  3: 0x0185 [0x29] REQ_SET_WAIT(priority=0x08, entity_id=Furakku-Norakku (ID: 17752081/0x010EE011), tag_num=0x01)
  4: 0x018C [0x1D] PRINT_EVENT_MESSAGE(message_id=8234*)
    → "Huh? You forgot? You're supposed to be getting the overdue book, $3, back from a Hume named Orn."
  5: 0x018F [0x23] WAIT_FOR_DIALOG_INTERACTION
  6: 0x0190 [0x29] REQ_SET_WAIT(priority=0x08, entity_id=Furakku-Norakku (ID: 17752081/0x010EE011), tag_num=0x02)
  7: 0x0197 [0x20] SET_CLI_EVENT_UC_FLAG: Unlock player control
  8: 0x0199 [0x21] END_EVENT
  9: 0x019A [0x00] END_REQSTACK()
```

### Event 397

#### Metadata

| Field        | Value    |
|--------------|----------|
| Entrypoint   | 0x019B   |
| Data Size    | 51 bytes |
| Instructions | 16       |

```
      00 01 02 03 04 05 06 07  08 09 0A 0B 0C 0D 0E 0F
      -- -- -- -- -- -- -- --  -- -- -- -- -- -- -- --
0190:                                   1E F0 FF FF 7F             .....
01A0: 6F 70 29 08 11 E0 0E 01  07 1D 10 80 23 29 08 11  op).........#)..
01B0: E0 0E 01 08 1D 11 80 23  29 08 11 E0 0E 01 01 1D  .......#).......
01C0: 12 80 23 29 08 11 E0 0E  01 02 20 00 21 00        ..#)...... .!.  
```

#### Opcodes

```
  0: 0x019B [0x1E] EventEntity looks at LocalPlayer and starts talking
  1: 0x01A0 [0x6F] WAIT_FRAME_DELAY: Yield until WaitTime reaches zero
  2: 0x01A1 [0x70] WAIT_ENTITY_RENDER_FLAG: Wait while EventEntity->Render.Flags3 bit 2 is set (cancel turn if not)
  3: 0x01A2 [0x29] REQ_SET_WAIT(priority=0x08, entity_id=Furakku-Norakku (ID: 17752081/0x010EE011), tag_num=0x07)
  4: 0x01A9 [0x1D] PRINT_EVENT_MESSAGE(message_id=8250*)
    → "Huah...! What to do when you lose one of our books?"
  5: 0x01AC [0x23] WAIT_FOR_DIALOG_INTERACTION
  6: 0x01AD [0x29] REQ_SET_WAIT(priority=0x08, entity_id=Furakku-Norakku (ID: 17752081/0x010EE011), tag_num=0x08)
  7: 0x01B4 [0x1D] PRINT_EVENT_MESSAGE(message_id=8251*)
    → "If that's the case, you've just lost an important national treasure! You can't just pay money to get out of it. You'll be sent to scary-wary prison! Just the thought gives me the shiver-wivers..."
  8: 0x01B7 [0x23] WAIT_FOR_DIALOG_INTERACTION
  9: 0x01B8 [0x29] REQ_SET_WAIT(priority=0x08, entity_id=Furakku-Norakku (ID: 17752081/0x010EE011), tag_num=0x01)
 10: 0x01BF [0x1D] PRINT_EVENT_MESSAGE(message_id=8252*)
    → "Anyway, you shouldn't be asking that. Hurry up and get $6 back off of him. I sure hope he hasn't lost it...!"
 11: 0x01C2 [0x23] WAIT_FOR_DIALOG_INTERACTION
 12: 0x01C3 [0x29] REQ_SET_WAIT(priority=0x08, entity_id=Furakku-Norakku (ID: 17752081/0x010EE011), tag_num=0x02)
 13: 0x01CA [0x20] SET_CLI_EVENT_UC_FLAG: Unlock player control
 14: 0x01CC [0x21] END_EVENT
 15: 0x01CD [0x00] END_REQSTACK()
```

### Event 400

#### Metadata

| Field        | Value    |
|--------------|----------|
| Entrypoint   | 0x01CE   |
| Data Size    | 45 bytes |
| Instructions | 11       |

```
      00 01 02 03 04 05 06 07  08 09 0A 0B 0C 0D 0E 0F
      -- -- -- -- -- -- -- --  -- -- -- -- -- -- -- --
01C0:                                            20 01                 .
01D0: 42 1E F0 FF FF 7F 6F 70  29 0B 11 E0 0E 01 16 29  B.....op)......)
01E0: 0B 11 E0 0E 01 17 45 13  80 F0 FF FF 7F F0 FF FF  ......E.........
01F0: 7F 71 73 74 63 14 80 20  00 21 00                 .qstc.. .!.     
```

#### Opcodes

```
  0: 0x01CE [0x20] SET_CLI_EVENT_UC_FLAG: Lock player control
  1: 0x01D0 [0x42] SET_CLI_EVENT_CANCEL_DATA()
  2: 0x01D1 [0x1E] EventEntity looks at LocalPlayer and starts talking
  3: 0x01D6 [0x6F] WAIT_FRAME_DELAY: Yield until WaitTime reaches zero
  4: 0x01D7 [0x70] WAIT_ENTITY_RENDER_FLAG: Wait while EventEntity->Render.Flags3 bit 2 is set (cancel turn if not)
  5: 0x01D8 [0x29] REQ_SET_WAIT(priority=0x0B, entity_id=Furakku-Norakku (ID: 17752081/0x010EE011), tag_num=0x16)
  6: 0x01DF [0x29] REQ_SET_WAIT(priority=0x0B, entity_id=Furakku-Norakku (ID: 17752081/0x010EE011), tag_num=0x17)
  7: 0x01E6 [0x45] LOAD_SCHEDULED_TASK: Load scheduler "qstc" with entities [LocalPlayer, LocalPlayer], work=[201*, 0*]
  8: 0x01F7 [0x20] SET_CLI_EVENT_UC_FLAG: Unlock player control
  9: 0x01F9 [0x21] END_EVENT
 10: 0x01FA [0x00] END_REQSTACK()
```

### Event 65535.15

#### Metadata

| Field        | Value    |
|--------------|----------|
| Entrypoint   | 0x01FB   |
| Data Size    | 23 bytes |
| Instructions | 7        |

```
      00 01 02 03 04 05 06 07  08 09 0A 0B 0C 0D 0E 0F
      -- -- -- -- -- -- -- --  -- -- -- -- -- -- -- --
01F0:                                   29 08 11 E0 0E             )....
0200: 01 07 1D 15 80 23 29 08  11 E0 0E 01 08 1D 16 80  .....#).........
0210: 23 00                                             #.              
```

#### Opcodes

```
  0: 0x01FB [0x29] REQ_SET_WAIT(priority=0x08, entity_id=Furakku-Norakku (ID: 17752081/0x010EE011), tag_num=0x07)
  1: 0x0202 [0x1D] PRINT_EVENT_MESSAGE(message_id=8257*)
    → "Huaaah...? Oh, you got our overdue library book back?"
  2: 0x0205 [0x23] WAIT_FOR_DIALOG_INTERACTION
  3: 0x0206 [0x29] REQ_SET_WAIT(priority=0x08, entity_id=Furakku-Norakku (ID: 17752081/0x010EE011), tag_num=0x08)
  4: 0x020D [0x1D] PRINT_EVENT_MESSAGE(message_id=8258*)
    → "Ah, but look at the poor thingy-wingy. It's been all ripped up and dirtied. I wonder what hideously hideous thing happened to it?"
  5: 0x0210 [0x23] WAIT_FOR_DIALOG_INTERACTION
  6: 0x0211 [0x00] END_REQSTACK()
```

### Event 65535.16

#### Metadata

| Field        | Value    |
|--------------|----------|
| Entrypoint   | 0x0212   |
| Data Size    | 19 bytes |
| Instructions | 5        |

```
      00 01 02 03 04 05 06 07  08 09 0A 0B 0C 0D 0E 0F
      -- -- -- -- -- -- -- --  -- -- -- -- -- -- -- --
0210:       29 08 11 E0 0E 01  09 1D 17 80 23 29 08 11    ).........#)..
0220: E0 0E 01 0A 00                                    .....           
```

#### Opcodes

```
  0: 0x0212 [0x29] REQ_SET_WAIT(priority=0x08, entity_id=Furakku-Norakku (ID: 17752081/0x010EE011), tag_num=0x09)
  1: 0x0219 [0x1D] PRINT_EVENT_MESSAGE(message_id=8259*)
    → "Here you go... This is for your troubles. Let's do this again sometime! The pleasure was mine, entirely..."
  2: 0x021C [0x23] WAIT_FOR_DIALOG_INTERACTION
  3: 0x021D [0x29] REQ_SET_WAIT(priority=0x08, entity_id=Furakku-Norakku (ID: 17752081/0x010EE011), tag_num=0x0A)
  4: 0x0224 [0x00] END_REQSTACK()
```

### Event 401

#### Metadata

| Field        | Value    |
|--------------|----------|
| Entrypoint   | 0x0225   |
| Data Size    | 29 bytes |
| Instructions | 10       |

```
      00 01 02 03 04 05 06 07  08 09 0A 0B 0C 0D 0E 0F
      -- -- -- -- -- -- -- --  -- -- -- -- -- -- -- --
0220:                1E F0 FF  FF 7F 6F 70 29 08 11 E0       .....op)...
0230: 0E 01 07 1D 18 80 23 29  08 11 E0 0E 01 0B 20 00  ......#)...... .
0240: 21 00                                             !.              
```

#### Opcodes

```
  0: 0x0225 [0x1E] EventEntity looks at LocalPlayer and starts talking
  1: 0x022A [0x6F] WAIT_FRAME_DELAY: Yield until WaitTime reaches zero
  2: 0x022B [0x70] WAIT_ENTITY_RENDER_FLAG: Wait while EventEntity->Render.Flags3 bit 2 is set (cancel turn if not)
  3: 0x022C [0x29] REQ_SET_WAIT(priority=0x08, entity_id=Furakku-Norakku (ID: 17752081/0x010EE011), tag_num=0x07)
  4: 0x0233 [0x1D] PRINT_EVENT_MESSAGE(message_id=8260*)
    → "Let's do the lost book retrieval again sometime, eh? Sorry, at the moment I'm all booked out! Huaaah... ZZZzzz..."
  5: 0x0236 [0x23] WAIT_FOR_DIALOG_INTERACTION
  6: 0x0237 [0x29] REQ_SET_WAIT(priority=0x08, entity_id=Furakku-Norakku (ID: 17752081/0x010EE011), tag_num=0x0B)
  7: 0x023E [0x20] SET_CLI_EVENT_UC_FLAG: Unlock player control
  8: 0x0240 [0x21] END_EVENT
  9: 0x0241 [0x00] END_REQSTACK()
```

### Event 404

#### Metadata

| Field        | Value    |
|--------------|----------|
| Entrypoint   | 0x0242   |
| Data Size    | 25 bytes |
| Instructions | 8        |

```
      00 01 02 03 04 05 06 07  08 09 0A 0B 0C 0D 0E 0F
      -- -- -- -- -- -- -- --  -- -- -- -- -- -- -- --
0240:       1E F0 FF FF 7F 6F  70 29 0B 11 E0 0E 01 10    .....op)......
0250: 29 0B 11 E0 0E 01 1A 20  00 21 00                 )...... .!.     
```

#### Opcodes

```
  0: 0x0242 [0x1E] EventEntity looks at LocalPlayer and starts talking
  1: 0x0247 [0x6F] WAIT_FRAME_DELAY: Yield until WaitTime reaches zero
  2: 0x0248 [0x70] WAIT_ENTITY_RENDER_FLAG: Wait while EventEntity->Render.Flags3 bit 2 is set (cancel turn if not)
  3: 0x0249 [0x29] REQ_SET_WAIT(priority=0x0B, entity_id=Furakku-Norakku (ID: 17752081/0x010EE011), tag_num=0x10)
  4: 0x0250 [0x29] REQ_SET_WAIT(priority=0x0B, entity_id=Furakku-Norakku (ID: 17752081/0x010EE011), tag_num=0x1A)
  5: 0x0257 [0x20] SET_CLI_EVENT_UC_FLAG: Unlock player control
  6: 0x0259 [0x21] END_EVENT
  7: 0x025A [0x00] END_REQSTACK()
```

### Event 65535.17

#### Metadata

| Field        | Value    |
|--------------|----------|
| Entrypoint   | 0x025B   |
| Data Size    | 55 bytes |
| Instructions | 13       |

```
      00 01 02 03 04 05 06 07  08 09 0A 0B 0C 0D 0E 0F
      -- -- -- -- -- -- -- --  -- -- -- -- -- -- -- --
0250:                                   29 08 11 E0 0E             )....
0260: 01 03 1D 19 80 23 29 08  11 E0 0E 01 04 29 08 11  .....#)......)..
0270: E0 0E 01 05 1D 1A 80 23  29 08 11 E0 0E 01 06 29  .......#)......)
0280: 08 11 E0 0E 01 01 1D 1B  80 23 29 08 11 E0 0E 01  .........#).....
0290: 02 00                                             ..              
```

#### Opcodes

```
  0: 0x025B [0x29] REQ_SET_WAIT(priority=0x08, entity_id=Furakku-Norakku (ID: 17752081/0x010EE011), tag_num=0x03)
  1: 0x0262 [0x1D] PRINT_EVENT_MESSAGE(message_id=8264*)
    → "Let me see... Oh yeah... This week we have the following unreturned book..."
  2: 0x0265 [0x23] WAIT_FOR_DIALOG_INTERACTION
  3: 0x0266 [0x29] REQ_SET_WAIT(priority=0x08, entity_id=Furakku-Norakku (ID: 17752081/0x010EE011), tag_num=0x04)
  4: 0x026D [0x29] REQ_SET_WAIT(priority=0x08, entity_id=Furakku-Norakku (ID: 17752081/0x010EE011), tag_num=0x05)
  5: 0x0274 [0x1D] PRINT_EVENT_MESSAGE(message_id=8265*)
    → "Hae Jakkya from the Windurst Woods auction house."
  6: 0x0277 [0x23] WAIT_FOR_DIALOG_INTERACTION
  7: 0x0278 [0x29] REQ_SET_WAIT(priority=0x08, entity_id=Furakku-Norakku (ID: 17752081/0x010EE011), tag_num=0x06)
  8: 0x027F [0x29] REQ_SET_WAIT(priority=0x08, entity_id=Furakku-Norakku (ID: 17752081/0x010EE011), tag_num=0x01)
  9: 0x0286 [0x1D] PRINT_EVENT_MESSAGE(message_id=8266*)
    → "She's still got the book $3 out on loan. Erch... That's one of those hot and steamy, mushy and slushy, love romance novels."
 10: 0x0289 [0x23] WAIT_FOR_DIALOG_INTERACTION
 11: 0x028A [0x29] REQ_SET_WAIT(priority=0x08, entity_id=Furakku-Norakku (ID: 17752081/0x010EE011), tag_num=0x02)
 12: 0x0291 [0x00] END_REQSTACK()
```

### Event 405

#### Metadata

| Field        | Value    |
|--------------|----------|
| Entrypoint   | 0x0292   |
| Data Size    | 33 bytes |
| Instructions | 12       |

```
      00 01 02 03 04 05 06 07  08 09 0A 0B 0C 0D 0E 0F
      -- -- -- -- -- -- -- --  -- -- -- -- -- -- -- --
0290:       1E F0 FF FF 7F 6F  70 29 08 11 E0 0E 01 01    .....op)......
02A0: 1D 1C 80 23 1D 1D 80 23  29 08 11 E0 0E 01 02 20  ...#...#)...... 
02B0: 00 21 00                                          .!.             
```

#### Opcodes

```
  0: 0x0292 [0x1E] EventEntity looks at LocalPlayer and starts talking
  1: 0x0297 [0x6F] WAIT_FRAME_DELAY: Yield until WaitTime reaches zero
  2: 0x0298 [0x70] WAIT_ENTITY_RENDER_FLAG: Wait while EventEntity->Render.Flags3 bit 2 is set (cancel turn if not)
  3: 0x0299 [0x29] REQ_SET_WAIT(priority=0x08, entity_id=Furakku-Norakku (ID: 17752081/0x010EE011), tag_num=0x01)
  4: 0x02A0 [0x1D] PRINT_EVENT_MESSAGE(message_id=8267*)
    → "Huh? You forgot? It's Hae Jakkya, who runs the auction house in The Windurst Woods."
  5: 0x02A3 [0x23] WAIT_FOR_DIALOG_INTERACTION
  6: 0x02A4 [0x1D] PRINT_EVENT_MESSAGE(message_id=8268*)
    → "She's got a romance novel out called $3 that is now overdue. Please get it back for us, okay?"
  7: 0x02A7 [0x23] WAIT_FOR_DIALOG_INTERACTION
  8: 0x02A8 [0x29] REQ_SET_WAIT(priority=0x08, entity_id=Furakku-Norakku (ID: 17752081/0x010EE011), tag_num=0x02)
  9: 0x02AF [0x20] SET_CLI_EVENT_UC_FLAG: Unlock player control
 10: 0x02B1 [0x21] END_EVENT
 11: 0x02B2 [0x00] END_REQSTACK()
```

### Event 409

#### Metadata

| Field        | Value    |
|--------------|----------|
| Entrypoint   | 0x02B3   |
| Data Size    | 37 bytes |
| Instructions | 14       |

```
      00 01 02 03 04 05 06 07  08 09 0A 0B 0C 0D 0E 0F
      -- -- -- -- -- -- -- --  -- -- -- -- -- -- -- --
02B0:          1E F0 FF FF 7F  6F 70 29 08 11 E0 0E 01     .....op).....
02C0: 07 1D 1E 80 23 1D 1F 80  23 1D 20 80 23 29 08 11  ....#...#. .#)..
02D0: E0 0E 01 0B 20 00 21 00                           .... .!.        
```

#### Opcodes

```
  0: 0x02B3 [0x1E] EventEntity looks at LocalPlayer and starts talking
  1: 0x02B8 [0x6F] WAIT_FRAME_DELAY: Yield until WaitTime reaches zero
  2: 0x02B9 [0x70] WAIT_ENTITY_RENDER_FLAG: Wait while EventEntity->Render.Flags3 bit 2 is set (cancel turn if not)
  3: 0x02BA [0x29] REQ_SET_WAIT(priority=0x08, entity_id=Furakku-Norakku (ID: 17752081/0x010EE011), tag_num=0x07)
  4: 0x02C1 [0x1D] PRINT_EVENT_MESSAGE(message_id=8274*)
    → "Huh? What do you mean, she says she didn't borrow it? It says so right here..."
  5: 0x02C4 [0x23] WAIT_FOR_DIALOG_INTERACTION
  6: 0x02C5 [0x1D] PRINT_EVENT_MESSAGE(message_id=8275*)
    → "But come to think of it, she doesn't seem the type to borrow such a tacky book. This is strange."
  7: 0x02C8 [0x23] WAIT_FOR_DIALOG_INTERACTION
  8: 0x02C9 [0x1D] PRINT_EVENT_MESSAGE(message_id=8276*)
    → "But look, it says Hae Jakhya right here on the borrower's card..."
  9: 0x02CC [0x23] WAIT_FOR_DIALOG_INTERACTION
 10: 0x02CD [0x29] REQ_SET_WAIT(priority=0x08, entity_id=Furakku-Norakku (ID: 17752081/0x010EE011), tag_num=0x0B)
 11: 0x02D4 [0x20] SET_CLI_EVENT_UC_FLAG: Unlock player control
 12: 0x02D6 [0x21] END_EVENT
 13: 0x02D7 [0x00] END_REQSTACK()
```

### Event 410

#### Metadata

| Field        | Value    |
|--------------|----------|
| Entrypoint   | 0x02D8   |
| Data Size    | 45 bytes |
| Instructions | 11       |

```
      00 01 02 03 04 05 06 07  08 09 0A 0B 0C 0D 0E 0F
      -- -- -- -- -- -- -- --  -- -- -- -- -- -- -- --
02D0:                          42 20 01 1E F0 FF FF 7F          B ......
02E0: 6F 70 29 0B 11 E0 0E 01  1E 29 0B 11 E0 0E 01 1F  op)......)......
02F0: 45 13 80 F0 FF FF 7F F0  FF FF 7F 71 73 74 63 14  E..........qstc.
0300: 80 20 00 21 00                                    . .!.           
```

#### Opcodes

```
  0: 0x02D8 [0x42] SET_CLI_EVENT_CANCEL_DATA()
  1: 0x02D9 [0x20] SET_CLI_EVENT_UC_FLAG: Lock player control
  2: 0x02DB [0x1E] EventEntity looks at LocalPlayer and starts talking
  3: 0x02E0 [0x6F] WAIT_FRAME_DELAY: Yield until WaitTime reaches zero
  4: 0x02E1 [0x70] WAIT_ENTITY_RENDER_FLAG: Wait while EventEntity->Render.Flags3 bit 2 is set (cancel turn if not)
  5: 0x02E2 [0x29] REQ_SET_WAIT(priority=0x0B, entity_id=Furakku-Norakku (ID: 17752081/0x010EE011), tag_num=0x1E)
  6: 0x02E9 [0x29] REQ_SET_WAIT(priority=0x0B, entity_id=Furakku-Norakku (ID: 17752081/0x010EE011), tag_num=0x1F)
  7: 0x02F0 [0x45] LOAD_SCHEDULED_TASK: Load scheduler "qstc" with entities [LocalPlayer, LocalPlayer], work=[201*, 0*]
  8: 0x0301 [0x20] SET_CLI_EVENT_UC_FLAG: Unlock player control
  9: 0x0303 [0x21] END_EVENT
 10: 0x0304 [0x00] END_REQSTACK()
```

### Event 65535.18

#### Metadata

| Field        | Value    |
|--------------|----------|
| Entrypoint   | 0x0305   |
| Data Size    | 23 bytes |
| Instructions | 7        |

```
      00 01 02 03 04 05 06 07  08 09 0A 0B 0C 0D 0E 0F
      -- -- -- -- -- -- -- --  -- -- -- -- -- -- -- --
0300:                29 08 11  E0 0E 01 07 1D 21 80 23       ).......!.#
0310: 1D 22 80 23 29 08 11 E0  0E 01 0B 00              .".#).......    
```

#### Opcodes

```
  0: 0x0305 [0x29] REQ_SET_WAIT(priority=0x08, entity_id=Furakku-Norakku (ID: 17752081/0x010EE011), tag_num=0x07)
  1: 0x030C [0x1D] PRINT_EVENT_MESSAGE(message_id=8277*)
    → "Huaaaah...? You found that overdue book?"
  2: 0x030F [0x23] WAIT_FOR_DIALOG_INTERACTION
  3: 0x0310 [0x1D] PRINT_EVENT_MESSAGE(message_id=8278*)
    → "Huh? Someone with almost the exact same name had it out on loan? Hm... Same diff..."
  4: 0x0313 [0x23] WAIT_FOR_DIALOG_INTERACTION
  5: 0x0314 [0x29] REQ_SET_WAIT(priority=0x08, entity_id=Furakku-Norakku (ID: 17752081/0x010EE011), tag_num=0x0B)
  6: 0x031B [0x00] END_REQSTACK()
```

### Event 65535.19

#### Metadata

| Field        | Value    |
|--------------|----------|
| Entrypoint   | 0x031C   |
| Data Size    | 19 bytes |
| Instructions | 5        |

```
      00 01 02 03 04 05 06 07  08 09 0A 0B 0C 0D 0E 0F
      -- -- -- -- -- -- -- --  -- -- -- -- -- -- -- --
0310:                                      29 08 11 E0              )...
0320: 0E 01 09 1D 23 80 23 29  08 11 E0 0E 01 0A 00     ....#.#)....... 
```

#### Opcodes

```
  0: 0x031C [0x29] REQ_SET_WAIT(priority=0x08, entity_id=Furakku-Norakku (ID: 17752081/0x010EE011), tag_num=0x09)
  1: 0x0323 [0x1D] PRINT_EVENT_MESSAGE(message_id=8279*)
    → "Anyway, here's your payment, bucko. See you around next time, I s'pose..."
  2: 0x0326 [0x23] WAIT_FOR_DIALOG_INTERACTION
  3: 0x0327 [0x29] REQ_SET_WAIT(priority=0x08, entity_id=Furakku-Norakku (ID: 17752081/0x010EE011), tag_num=0x0A)
  4: 0x032E [0x00] END_REQSTACK()
```

### Event 411

#### Metadata

| Field        | Value    |
|--------------|----------|
| Entrypoint   | 0x032F   |
| Data Size    | 29 bytes |
| Instructions | 10       |

```
      00 01 02 03 04 05 06 07  08 09 0A 0B 0C 0D 0E 0F
      -- -- -- -- -- -- -- --  -- -- -- -- -- -- -- --
0320:                                               1E                 .
0330: F0 FF FF 7F 6F 70 29 08  11 E0 0E 01 07 1D 24 80  ....op).......$.
0340: 23 29 08 11 E0 0E 01 0B  20 00 21 00              #)...... .!.    
```

#### Opcodes

```
  0: 0x032F [0x1E] EventEntity looks at LocalPlayer and starts talking
  1: 0x0334 [0x6F] WAIT_FRAME_DELAY: Yield until WaitTime reaches zero
  2: 0x0335 [0x70] WAIT_ENTITY_RENDER_FLAG: Wait while EventEntity->Render.Flags3 bit 2 is set (cancel turn if not)
  3: 0x0336 [0x29] REQ_SET_WAIT(priority=0x08, entity_id=Furakku-Norakku (ID: 17752081/0x010EE011), tag_num=0x07)
  4: 0x033D [0x1D] PRINT_EVENT_MESSAGE(message_id=8280*)
    → "I'll talk to you next time we have an unreturned book to fetch. Till then... Huaaah... ZZZzzz..."
  5: 0x0340 [0x23] WAIT_FOR_DIALOG_INTERACTION
  6: 0x0341 [0x29] REQ_SET_WAIT(priority=0x08, entity_id=Furakku-Norakku (ID: 17752081/0x010EE011), tag_num=0x0B)
  7: 0x0348 [0x20] SET_CLI_EVENT_UC_FLAG: Unlock player control
  8: 0x034A [0x21] END_EVENT
  9: 0x034B [0x00] END_REQSTACK()
```

### Event 720

#### Metadata

| Field        | Value    |
|--------------|----------|
| Entrypoint   | 0x034C   |
| Data Size    | 33 bytes |
| Instructions | 12       |

```
      00 01 02 03 04 05 06 07  08 09 0A 0B 0C 0D 0E 0F
      -- -- -- -- -- -- -- --  -- -- -- -- -- -- -- --
0340:                                      1E F0 FF FF              ....
0350: 7F 6F 70 29 08 11 E0 0E  01 07 1D 25 80 23 1D 26  .op).......%.#.&
0360: 80 23 29 08 11 E0 0E 01  0B 20 00 21 00           .#)...... .!.   
```

#### Opcodes

```
  0: 0x034C [0x1E] EventEntity looks at LocalPlayer and starts talking
  1: 0x0351 [0x6F] WAIT_FRAME_DELAY: Yield until WaitTime reaches zero
  2: 0x0352 [0x70] WAIT_ENTITY_RENDER_FLAG: Wait while EventEntity->Render.Flags3 bit 2 is set (cancel turn if not)
  3: 0x0353 [0x29] REQ_SET_WAIT(priority=0x08, entity_id=Furakku-Norakku (ID: 17752081/0x010EE011), tag_num=0x07)
  4: 0x035A [0x1D] PRINT_EVENT_MESSAGE(message_id=9687*)
    → "...Phewaaah...? Huh? You found an old $3?"
  5: 0x035D [0x23] WAIT_FOR_DIALOG_INTERACTION
  6: 0x035E [0x1D] PRINT_EVENT_MESSAGE(message_id=9688*)
    → "...That looks like the ring that belonged to our previous minister, Karaha-Baruha. It was lost during the trouble-woubles of the Great War. But somebody was wearing it, rightaru?"
  7: 0x0361 [0x23] WAIT_FOR_DIALOG_INTERACTION
  8: 0x0362 [0x29] REQ_SET_WAIT(priority=0x08, entity_id=Furakku-Norakku (ID: 17752081/0x010EE011), tag_num=0x0B)
  9: 0x0369 [0x20] SET_CLI_EVENT_UC_FLAG: Unlock player control
 10: 0x036B [0x21] END_EVENT
 11: 0x036C [0x00] END_REQSTACK()
```

### Event 721

#### Metadata

| Field        | Value    |
|--------------|----------|
| Entrypoint   | 0x036D   |
| Data Size    | 29 bytes |
| Instructions | 10       |

```
      00 01 02 03 04 05 06 07  08 09 0A 0B 0C 0D 0E 0F
      -- -- -- -- -- -- -- --  -- -- -- -- -- -- -- --
0360:                                         1E F0 FF               ...
0370: FF 7F 6F 70 29 08 11 E0  0E 01 07 1D 27 80 23 29  ..op).......'.#)
0380: 08 11 E0 0E 01 0B 20 00  21 00                    ...... .!.      
```

#### Opcodes

```
  0: 0x036D [0x1E] EventEntity looks at LocalPlayer and starts talking
  1: 0x0372 [0x6F] WAIT_FRAME_DELAY: Yield until WaitTime reaches zero
  2: 0x0373 [0x70] WAIT_ENTITY_RENDER_FLAG: Wait while EventEntity->Render.Flags3 bit 2 is set (cancel turn if not)
  3: 0x0374 [0x29] REQ_SET_WAIT(priority=0x08, entity_id=Furakku-Norakku (ID: 17752081/0x010EE011), tag_num=0x07)
  4: 0x037B [0x1D] PRINT_EVENT_MESSAGE(message_id=9689*)
    → "...Huaaah...? We're in the middle of cleaning out the book vault, so no borrowing today. Terribly sorry."
  5: 0x037E [0x23] WAIT_FOR_DIALOG_INTERACTION
  6: 0x037F [0x29] REQ_SET_WAIT(priority=0x08, entity_id=Furakku-Norakku (ID: 17752081/0x010EE011), tag_num=0x0B)
  7: 0x0386 [0x20] SET_CLI_EVENT_UC_FLAG: Unlock player control
  8: 0x0388 [0x21] END_EVENT
  9: 0x0389 [0x00] END_REQSTACK()
```

### Event 816

#### Metadata

| Field        | Value     |
|--------------|-----------|
| Entrypoint   | 0x038A    |
| Data Size    | 106 bytes |
| Instructions | 29        |

```
      00 01 02 03 04 05 06 07  08 09 0A 0B 0C 0D 0E 0F
      -- -- -- -- -- -- -- --  -- -- -- -- -- -- -- --
0380:                                42 1E F0 FF FF 7F            B.....
0390: 6F 70 29 08 11 E0 0E 01  07 1D 28 80 23 29 08 11  op).......(.#)..
03A0: E0 0E 01 0B 29 08 11 E0  0E 01 01 1D 29 80 23 29  ....).......).#)
03B0: 08 11 E0 0E 01 02 29 08  11 E0 0E 01 03 1D 2A 80  ......).......*.
03C0: 23 29 08 11 E0 0E 01 04  29 08 11 E0 0E 01 05 1D  #)......).......
03D0: 2B 80 23 29 08 11 E0 0E  01 06 29 08 11 E0 0E 01  +.#)......).....
03E0: 01 1D 2C 80 23 1D 2D 80  23 29 08 11 E0 0E 01 02  ..,.#.-.#)......
03F0: 20 00 21 00                                        .!.            
```

#### Opcodes

```
  0: 0x038A [0x42] SET_CLI_EVENT_CANCEL_DATA()
  1: 0x038B [0x1E] EventEntity looks at LocalPlayer and starts talking
  2: 0x0390 [0x6F] WAIT_FRAME_DELAY: Yield until WaitTime reaches zero
  3: 0x0391 [0x70] WAIT_ENTITY_RENDER_FLAG: Wait while EventEntity->Render.Flags3 bit 2 is set (cancel turn if not)
  4: 0x0392 [0x29] REQ_SET_WAIT(priority=0x08, entity_id=Furakku-Norakku (ID: 17752081/0x010EE011), tag_num=0x07)
  5: 0x0399 [0x1D] PRINT_EVENT_MESSAGE(message_id=10043*)
    → "Huaaah... You want to know about Uran-Mafran...?"
  6: 0x039C [0x23] WAIT_FOR_DIALOG_INTERACTION
  7: 0x039D [0x29] REQ_SET_WAIT(priority=0x08, entity_id=Furakku-Norakku (ID: 17752081/0x010EE011), tag_num=0x0B)
  8: 0x03A4 [0x29] REQ_SET_WAIT(priority=0x08, entity_id=Furakku-Norakku (ID: 17752081/0x010EE011), tag_num=0x01)
  9: 0x03AB [0x1D] PRINT_EVENT_MESSAGE(message_id=10044*)
    → "I remember him. Yes, I remember him very well."
 10: 0x03AE [0x23] WAIT_FOR_DIALOG_INTERACTION
 11: 0x03AF [0x29] REQ_SET_WAIT(priority=0x08, entity_id=Furakku-Norakku (ID: 17752081/0x010EE011), tag_num=0x02)
 12: 0x03B6 [0x29] REQ_SET_WAIT(priority=0x08, entity_id=Furakku-Norakku (ID: 17752081/0x010EE011), tag_num=0x03)
 13: 0x03BD [0x1D] PRINT_EVENT_MESSAGE(message_id=10045*)
    → "Hmmm... So they finally found him, huh? I'm surprised he was still alive."
 14: 0x03C0 [0x23] WAIT_FOR_DIALOG_INTERACTION
 15: 0x03C1 [0x29] REQ_SET_WAIT(priority=0x08, entity_id=Furakku-Norakku (ID: 17752081/0x010EE011), tag_num=0x04)
 16: 0x03C8 [0x29] REQ_SET_WAIT(priority=0x08, entity_id=Furakku-Norakku (ID: 17752081/0x010EE011), tag_num=0x05)
 17: 0x03CF [0x1D] PRINT_EVENT_MESSAGE(message_id=10046*)
    → "But besides that, how is Ildy-Goldy doing? He was in terrible-werrible shape after that Dark Dungeon incident..."
 18: 0x03D2 [0x23] WAIT_FOR_DIALOG_INTERACTION
 19: 0x03D3 [0x29] REQ_SET_WAIT(priority=0x08, entity_id=Furakku-Norakku (ID: 17752081/0x010EE011), tag_num=0x06)
 20: 0x03DA [0x29] REQ_SET_WAIT(priority=0x08, entity_id=Furakku-Norakku (ID: 17752081/0x010EE011), tag_num=0x01)
 21: 0x03E1 [0x1D] PRINT_EVENT_MESSAGE(message_id=10047*)
    → "I'll never forget when we all went to see him and heard that no magic or item could ever cure him..."
 22: 0x03E4 [0x23] WAIT_FOR_DIALOG_INTERACTION
 23: 0x03E5 [0x1D] PRINT_EVENT_MESSAGE(message_id=10048*)
    → "I wonder if the reason Uran-Mafran left was to search for a way to cure Ildy-Goldy...?"
 24: 0x03E8 [0x23] WAIT_FOR_DIALOG_INTERACTION
 25: 0x03E9 [0x29] REQ_SET_WAIT(priority=0x08, entity_id=Furakku-Norakku (ID: 17752081/0x010EE011), tag_num=0x02)
 26: 0x03F0 [0x20] SET_CLI_EVENT_UC_FLAG: Unlock player control
 27: 0x03F2 [0x21] END_EVENT
 28: 0x03F3 [0x00] END_REQSTACK()
```

### Event 1156

#### Metadata

| Field        | Value   |
|--------------|---------|
| Entrypoint   | 0x03F4  |
| Data Size    | 1 bytes |
| Instructions | 1       |

```
      00 01 02 03 04 05 06 07  08 09 0A 0B 0C 0D 0E 0F
      -- -- -- -- -- -- -- --  -- -- -- -- -- -- -- --
03F0:             00                                        .           
```

#### Opcodes

```
  0: 0x03F4 [0x00] END_REQSTACK()
```

### Event 1157

#### Metadata

| Field        | Value   |
|--------------|---------|
| Entrypoint   | 0x03F5  |
| Data Size    | 1 bytes |
| Instructions | 1       |

```
      00 01 02 03 04 05 06 07  08 09 0A 0B 0C 0D 0E 0F
      -- -- -- -- -- -- -- --  -- -- -- -- -- -- -- --
03F0:                00                                      .          
```

#### Opcodes

```
  0: 0x03F5 [0x00] END_REQSTACK()
```

### Event 1159

#### Metadata

| Field        | Value   |
|--------------|---------|
| Entrypoint   | 0x03F6  |
| Data Size    | 1 bytes |
| Instructions | 1       |

```
      00 01 02 03 04 05 06 07  08 09 0A 0B 0C 0D 0E 0F
      -- -- -- -- -- -- -- --  -- -- -- -- -- -- -- --
03F0:                   00                                    .         
```

#### Opcodes

```
  0: 0x03F6 [0x00] END_REQSTACK()
```
