# 17752134 - Piketo-Puketo

## Common Data

| Field            | Value                     |
|------------------|---------------------------|
| Zone             | Windurst Waters (ID: 238) |
| Block Size       | 7216 bytes                |
| Total Events     | 30                        |
| References Count | 208                       |

## List of Events

| Event ID              | Entrypoint   |   Size |   Instructions |
|-----------------------|--------------|--------|----------------|
| [65535](#event-65535) | 0x0000       |      1 |              1 |
| [978](#event-978)     | 0x0001       |      7 |              2 |
| [983](#event-983)     | 0x0008       |      7 |              2 |
| [980](#event-980)     | 0x000F       |      7 |              2 |
| [981](#event-981)     | 0x0016       |      7 |              2 |
| [10013](#event-10013) | 0x001D       |   2033 |            484 |
| [10014](#event-10014) | 0x080E       |    287 |             72 |
| [1105](#event-1105)   | 0x092D       |    101 |             22 |
| [1112](#event-1112)   | 0x0992       |    104 |             22 |
| [1106](#event-1106)   | 0x09FA       |    124 |             33 |
| [1107](#event-1107)   | 0x0A76       |    241 |             62 |
| [1114](#event-1114)   | 0x0B67       |    225 |             49 |
| [1123](#event-1123)   | 0x0C48       |    254 |             51 |
| [1134](#event-1134)   | 0x0D46       |    134 |             32 |
| [1129](#event-1129)   | 0x0DCC       |    176 |             39 |
| [1128](#event-1128)   | 0x0E7C       |    235 |             52 |
| [1130](#event-1130)   | 0x0F67       |     78 |             16 |
| [1108](#event-1108)   | 0x0FB5       |    174 |             35 |
| [1115](#event-1115)   | 0x1063       |    136 |             28 |
| [1124](#event-1124)   | 0x10EB       |    142 |             32 |
| [1135](#event-1135)   | 0x1179       |    134 |             28 |
| [1109](#event-1109)   | 0x11FF       |     89 |             21 |
| [1136](#event-1136)   | 0x1258       |     61 |             13 |
| [1119](#event-1119)   | 0x1295       |     75 |             17 |
| [1111](#event-1111)   | 0x12E0       |    156 |             31 |
| [1118](#event-1118)   | 0x137C       |    114 |             24 |
| [1127](#event-1127)   | 0x13EE       |    196 |             37 |
| [1138](#event-1138)   | 0x14B2       |     72 |             18 |
| [1139](#event-1139)   | 0x14FA       |    101 |             21 |
| [1110](#event-1110)   | 0x155F       |    774 |            140 |

## DAT References (imed_data)

|   Index | Hex Value   |   Dec Value |
|---------|-------------|-------------|
|       0 | 0x0009      |           9 |
|       1 | 0x000A      |          10 |
|       2 | 0x0008      |           8 |
|       3 | 0x0000      |           0 |
|       4 | 0x0010      |          16 |
|       5 | 0x0002      |           2 |
|       6 | 0x0028      |          40 |
|       7 | 0x1C8E      |        7310 |
|       8 | 0x1C8F      |        7311 |
|       9 | 0x1C90      |        7312 |
|      10 | 0x1C91      |        7313 |
|      11 | 0x1C44      |        7236 |
|      12 | 0x0001      |           1 |
|      13 | 0x0031      |          49 |
|      14 | 0x0032      |          50 |
|      15 | 0x0003      |           3 |
|      16 | 0x0033      |          51 |
|      17 | 0x0004      |           4 |
|      18 | 0x0034      |          52 |
|      19 | 0x0005      |           5 |
|      20 | 0x0035      |          53 |
|      21 | 0x0006      |           6 |
|      22 | 0x0036      |          54 |
|      23 | 0x0007      |           7 |
|      24 | 0x0037      |          55 |
|      25 | 0x0038      |          56 |
|      26 | 0x11C2      |        4546 |
|      27 | 0x1158      |        4440 |
|      28 | 0x11D1      |        4561 |
|      29 | 0x1C92      |        7314 |
|      30 | 0x1C93      |        7315 |
|      31 | 0x1C45      |        7237 |
|      32 | 0x1C46      |        7238 |
|      33 | 0x006E      |         110 |
|      34 | 0x1C4F      |        7247 |
|      35 | 0x0046      |          70 |
|      36 | 0x1C89      |        7305 |
|      37 | 0x1C8A      |        7306 |
|      38 | 0x1C8B      |        7307 |
|      39 | 0x1C8C      |        7308 |
|      40 | 0x0064      |         100 |
|      41 | 0x172A      |        5930 |
|      42 | 0x1C85      |        7301 |
|      43 | 0x1C84      |        7300 |
|      44 | 0x07FC      |        2044 |
|      45 | 0x1C82      |        7298 |
|      46 | 0x1C83      |        7299 |
|      47 | 0x1C81      |        7297 |
|      48 | 0x1C7F      |        7295 |
|      49 | 0x1C7C      |        7292 |
|      50 | 0x1C7D      |        7293 |
|      51 | 0x1C7E      |        7294 |
|      52 | 0x1C80      |        7296 |
|      53 | 0x000B      |          11 |
|      54 | 0x000C      |          12 |
|      55 | 0x0078      |         120 |
|      56 | 0x000D      |          13 |
|      57 | 0x0082      |         130 |
|      58 | 0x1C51      |        7249 |
|      59 | 0x1C52      |        7250 |
|      60 | 0x1C50      |        7248 |
|      61 | 0x1C48      |        7240 |
|      62 | 0x1C10      |        7184 |
|      63 | 0x1C4A      |        7242 |
|      64 | 0x1C4B      |        7243 |
|      65 | 0x1C4C      |        7244 |
|      66 | 0x1C4D      |        7245 |
|      67 | 0x1C4E      |        7246 |
|      68 | 0x1C49      |        7241 |
|      69 | 0x000E      |          14 |
|      70 | 0x000F      |          15 |
|      71 | 0x008E      |         142 |
|      72 | 0x1C16      |        7190 |
|      73 | 0x1C3C      |        7228 |
|      74 | 0x1C1A      |        7194 |
|      75 | 0x1C19      |        7193 |
|      76 | 0x1C18      |        7192 |
|      77 | 0x1C17      |        7191 |
|      78 | 0x1C53      |        7251 |
|      79 | 0x1C54      |        7252 |
|      80 | 0x1C6E      |        7278 |
|      81 | 0x1C55      |        7253 |
|      82 | 0x1C8D      |        7309 |
|      83 | 0x1C56      |        7254 |
|      84 | 0x1C57      |        7255 |
|      85 | 0x1C86      |        7302 |
|      86 | 0x1715      |        5909 |
|      87 | 0x1C87      |        7303 |
|      88 | 0x1C88      |        7304 |
|      89 | 0x00C9      |         201 |
|      90 | 0x1C13      |        7187 |
|      91 | 0x43D0      |       17360 |
|      92 | 0x43D1      |       17361 |
|      93 | 0x43E0      |       17376 |
|      94 | 0x43E1      |       17377 |
|      95 | 0x43BD      |       17341 |
|      96 | 0x43BE      |       17342 |
|      97 | 0x43BF      |       17343 |
|      98 | 0x43C0      |       17344 |
|      99 | 0x43C1      |       17345 |
|     100 | 0x43C2      |       17346 |
|     101 | 0x43C3      |       17347 |
|     102 | 0x43C4      |       17348 |
|     103 | 0x43C5      |       17349 |
|     104 | 0x43C6      |       17350 |
|     105 | 0x43C7      |       17351 |
|     106 | 0x43C8      |       17352 |
|     107 | 0x43C9      |       17353 |
|     108 | 0x43CA      |       17354 |
|     109 | 0x43CB      |       17355 |
|     110 | 0x43CC      |       17356 |
|     111 | 0x43CD      |       17357 |
|     112 | 0x43CE      |       17358 |
|     113 | 0x43CF      |       17359 |
|     114 | 0x43E2      |       17378 |
|     115 | 0x43E3      |       17379 |
|     116 | 0x43E4      |       17380 |
|     117 | 0x43E5      |       17381 |
|     118 | 0x43E6      |       17382 |
|     119 | 0x43E7      |       17383 |
|     120 | 0x43E8      |       17384 |
|     121 | 0x43E9      |       17385 |
|     122 | 0x43EA      |       17386 |
|     123 | 0x43EB      |       17387 |
|     124 | 0x43EC      |       17388 |
|     125 | 0x43F7      |       17399 |
|     126 | 0x43F8      |       17400 |
|     127 | 0x43F9      |       17401 |
|     128 | 0x43FA      |       17402 |
|     129 | 0x43FB      |       17403 |
|     130 | 0x43FC      |       17404 |
|     131 | 0x43FD      |       17405 |
|     132 | 0x43FE      |       17406 |
|     133 | 0x4403      |       17411 |
|     134 | 0x4416      |       17430 |
|     135 | 0x4417      |       17431 |
|     136 | 0x4418      |       17432 |
|     137 | 0x4419      |       17433 |
|     138 | 0x441A      |       17434 |
|     139 | 0x441B      |       17435 |
|     140 | 0xFFFFFFFF  |  4294967295 |
|     141 | 0x440C      |       17420 |
|     142 | 0x440D      |       17421 |
|     143 | 0x4404      |       17412 |
|     144 | 0x4405      |       17413 |
|     145 | 0x4406      |       17414 |
|     146 | 0x4407      |       17415 |
|     147 | 0x40000000  |  1073741824 |
|     148 | 0x4408      |       17416 |
|     149 | 0x4409      |       17417 |
|     150 | 0x440A      |       17418 |
|     151 | 0x440B      |       17419 |
|     152 | 0x440E      |       17422 |
|     153 | 0x440F      |       17423 |
|     154 | 0x4410      |       17424 |
|     155 | 0x43D2      |       17362 |
|     156 | 0x003C      |          60 |
|     157 | 0x001E      |          30 |
|     158 | 0x43D3      |       17363 |
|     159 | 0x43D4      |       17364 |
|     160 | 0x43D5      |       17365 |
|     161 | 0x43D6      |       17366 |
|     162 | 0x43D7      |       17367 |
|     163 | 0x43ED      |       17389 |
|     164 | 0x43EE      |       17390 |
|     165 | 0x43EF      |       17391 |
|     166 | 0x43F0      |       17392 |
|     167 | 0x43F1      |       17393 |
|     168 | 0x4411      |       17425 |
|     169 | 0x441C      |       17436 |
|     170 | 0x43D8      |       17368 |
|     171 | 0x43D9      |       17369 |
|     172 | 0x43DA      |       17370 |
|     173 | 0x4421      |       17441 |
|     174 | 0x4422      |       17442 |
|     175 | 0x43F6      |       17398 |
|     176 | 0x43DB      |       17371 |
|     177 | 0x43DC      |       17372 |
|     178 | 0x43DD      |       17373 |
|     179 | 0x43DE      |       17374 |
|     180 | 0x43DF      |       17375 |
|     181 | 0x43F2      |       17394 |
|     182 | 0x43F3      |       17395 |
|     183 | 0x43F4      |       17396 |
|     184 | 0x43F5      |       17397 |
|     185 | 0x4412      |       17426 |
|     186 | 0x4413      |       17427 |
|     187 | 0x4414      |       17428 |
|     188 | 0x4415      |       17429 |
|     189 | 0x441D      |       17437 |
|     190 | 0x441E      |       17438 |
|     191 | 0x441F      |       17439 |
|     192 | 0x4420      |       17440 |
|     193 | 0x4423      |       17443 |
|     194 | 0x4424      |       17444 |
|     195 | 0x4425      |       17445 |
|     196 | 0x4426      |       17446 |
|     197 | 0x4427      |       17447 |
|     198 | 0x43FF      |       17407 |
|     199 | 0x4400      |       17408 |
|     200 | 0x4401      |       17409 |
|     201 | 0x4402      |       17410 |
|     202 | 0x00C8      |         200 |
|     203 | 0x0013      |          19 |
|     204 | 0x001D      |          29 |
|     205 | 0x0027      |          39 |
|     206 | 0x003B      |          59 |
|     207 | 0x0045      |          69 |

## String References

- **7184**: Join the [Fishermen's/Carpenters'/Blacksmiths'/Goldsmiths'/Weavers'/Tanners'/Boneworkers'/Alchemists'/Culinarians'] Guild? [Sign up./That's not why you're here.]
- **7187**: You are now recognized as [an amateur/a recruit/an initiate/a novice/an apprentice/a journeyman/a craftsman/an artisan/an adept/a veteran/an expert/an authority/a luminary/a master/a grandmaster/a legend] of the [Fishermen's/Carpenters'/Blacksmiths'/Goldsmiths'/Weavers'/Tanners'/Boneworkers'/Alchemists'/Culinarians'] Guild.
- **7190**: Necessary skills: [Fishing/Woodworking/Smithing/Goldsmithing/Clothcraft/Leatherworking/Bonecraft/Alchemy/Cooking][ /, Woodworking/, Smithing/, Goldsmithing/, Clothcraft/, Leatherworking/, Bonecraft/, Alchemy/, Cooking][ /, Woodworking/, Smithing/, Goldsmithing/, Clothcraft/, Leatherworking/, Bonecraft/, Alchemy/, Cooking][ /, & Woodworking/, & Smithing/, & Goldsmithing/, & Clothcraft/, & Leatherworking/, & Bonecraft/, & Alchemy/, & Cooking] Necessary crystal: $4 Necessary items:
- **7191**: $4 x $0 $5 x $0$0 $6 x $0 $7 x $0$3
- **7192**: $4 x $0 $5 x $0$0 $6 x $0
- **7193**: $4 x $0 $5 x $0$0
- **7194**: $4 x $0
- **7228**: Necessary skills: [Fishing/Woodworking/Smithing/Goldsmithing/Clothcraft/Leatherworking/Bonecraft/Alchemy/Cooking][ /, Woodworking/, Smithing/, Goldsmithing/, Clothcraft/, Leatherworking/, Bonecraft/, Alchemy/, Cooking][ /, Woodworking/, Smithing/, Goldsmithing/, Clothcraft/, Leatherworking/, Bonecraft/, Alchemy/, Cooking][ /, & Woodworking/, & Smithing/, & Goldsmithing/, & Clothcraft/, & Leatherworking/, & Bonecraft/, & Alchemy/, & Cooking] Necessary crystal: $4 Necessary key item: $3 Necessary items:
- **7236**: Renounce your rank at which guild? [None./Carpenters'./Blacksmiths'./Goldsmiths'./Weavers'./Tanners'./Boneworkers'./Alchemists'./Culinarians'.]
- **7237**: If you proceed, your rank in the [Carpenters'/Blacksmiths'/Goldsmiths'/Weavers'/Tanners'/Boneworkers'/Alchemists'/Culinarians'] Guild will return to that of [craftsman/artisan/adept], and your skill value will revert to the maximum for that level. This procedure cannot be undone, so please consider your decision carefully.
- **7238**: Renounce your rank as a [Carpenter/Blacksmith/Goldsmith/Weaver/Tanner/Boneworker/Alchemist/Culinarian]? [No, retain./Yes, renounce.]
- **7240**: Huh? Have I met you before? This is the Culinarians' Guild. As you can guess, it is an association for professional cooks.
- **7241**: I understand you not wanting to rush into anything. As you can see, we have to keep a clean kitchen, so it's not the kind of place unauthorized people should hang about in.
- **7242**: Well, it's done, then! Lately, a lot of adventurers have been signing up to learn. Here. Study a little crystal synthesis with this...
- **7243**: To put it simply, crystals are solidified energy. Crystal synthesis utilizes that energy to cook individual ingredients into a finished dish.
- **7244**: But it's not as easy as it looks. If the cook can't visualize the finished product properly, he could fail, wasting all the ingredients in the process.
- **7245**: So you need to gain as much practice as possible. Only the cook who understands the very essence of his ingredients can make truly exquisite cuisine.
- **7246**: Start with the basics and gradually build yourself up. If you need the recipes, your fellow guildsmen can tell you how to make delicacies from all around the world.
- **7247**: People have to eat every day, and you do not have to be a connoisseur to judge what tastes good. So the ones who provide the food for them have to keep on improving their skills, or the diner will go elsewhere.
- **7248**: How have you been? To tell you the truth, when I see your face, my mouth starts watering and my stomach starts talking... Are you going to make anything for us today?
- **7249**: It's about time you moved on to the next culinarian level. Here then... Whip me up $0.
- **7250**: If it tastes good and is presented well, I'll teach you some new cooking techniques.
- **7251**: Hmm... It's quite well done. I shall acknowledge you as [an amateur/a recruit/an initiate/a novice/an apprentice]! Good work! But remember, don't neglect the basics if you want to improve.
- **7252**: Oh... Now this is delicious! I shall acknowledge you as a journeyman! Ha, perhaps we should get you to teach at our ladies' society cooking school!?
- **7253**: ......Most incredible! I am delighted to acknowledge you as an artisan! Why, you should open your own restaurant!
- **7254**: ... Your hard work and toil have finally paid off! I present you with the title of adept! Let us live the joy of cooking together!
- **7255**: There aren't enough words in the Tarutaru language to describe the exquisite flavor of this scrumptious dish! You've got to tell me what you put in this!
- **7278**: ...Delicioso! The title of culinary craftsman is as good as yours! You are now a true chef.
- **7292**: Our [veteran/expert/authority/luminary/master] chef returns! I hear your culinary creations are all the rage across town these days. What say you apply a fine garnish to your skills, that you might lead the realm into a new era of epicurean delights?
- **7293**: Hone your skills further? [Certainly!/Maybe later...]
- **7294**: Now that's a scrumptious answer! First, you'll be wanting to acquire a copy of $6 from Qhum Knaidjn.
- **7295**: You'll need a dash of guild points for the transaction, but a chef of your skills should need only a pinch of effort to accrue them.
- **7296**: What is this foul taste in my mouth? Why, I believe it's my bitter disappointment at the potential you're allowing to go to waste.
- **7297**: First, you'll want to speak to Qhum Knaidjn and obtain yourself $6.
- **7298**: You're back, and the smile on your face tells me that you've fully digested the contents of $6.
- **7299**: Very well, then! Wash your hands, put on your chef's hat, and whip me up $2. First you'll have to hunt down the ingredients, of course, a task which I doubt will be as easy as pamama pie.
- **7300**: Ah, and don't forget to decorate your dish with your signature, that I and my fellow gourmets will know who to thank for the mouthwatering meal.
- **7301**: You forgot the recipe for $2? I don't like repeating myself, so be sure to write it down in your cookbook.
- **7302**: Splendid! Marvelous! Spectacular! Why, it's been years since I've tasted such a mouthwatering dish! I hereby bestow upon you the rank of expert, and give you my explicit permission to look down your nose at all the faux gourmands around you!
- **7303**: An admirable attempt, yet it lacks a certain...something. Ah, your signature! Do you find your dish so lacking in flavor and pizazz that you are unwilling to take credit for it?
- **7304**: No, I'm afraid this won't do at all...but you didn't need me to tell you that. Back to the cutting board for you. Chop chop!
- **7305**: I think that you are ready to enter the leagues of the great chefs. Mix me up $0.
- **7306**: If it tickles my tongue, I'll grant you the title of [artisan/adept/veteran].
- **7307**: But you must be forewarned. Becoming [an artisan/an adept/a veteran] of the Culinary Guild means a certain level of devotion to the culinary arts.
- **7308**: You are free to become [an artisan/an adept/a veteran] in another guild, but if doing so means losing that knack you have for cooking...
- **7309**: Ah, yes. And while we cannot prevent you from becoming [an artisan/an adept/a veteran] in another guild, I warn you that too much time spent on non-culinary pursuits may cause irreparable harm to your refined palate.
- **7310**: Is it true that you've achieved the rank of [artisan/adept/veteran] in a guild other than our own? I must say, <Player>, this leaves a terribly bad taste in my mouth.
- **7311**: A chef must be first and foremost a chef. Waste too much time on idle pursuits and your tarts will lose their tang, your stews their savor!
- **7312**: Luckily, there is still time to do right by your taste buds. Say the word and I can revoke your [artisan/adept/veteran] status in any lesser guilds.
- **7313**: It is simply a matter of my calling the guildmaster and informing them of your desire to focus on your culinary pursuits. So what do you say, <Player>?
- **7314**: Ah, <Player>. To think that I shall never again know the gustatory bliss that is one of your scrumptious $2! It brings a tear to my eye...
- **7315**: Forgive me. I have no doubt that you will be a scrumptious success in whatever profession you choose to follow. Be well, <Player>.
- **17341**: Oh, hello. Hm? Whataru is that shield you're holding?
- **17342**: Ahh, I see... You must've spoken with her.
- **17343**: Yes, I've heard the stories... That it's possible-wossible to equip a shield that boosts your crafting skill.
- **17344**: If anybody has the ability to create such a thing, it's you. I'm sure she chose you for a reason-weason.
- **17345**: I don't understand how a shield helps one's cooking, but if she's right, that'd be quite the talentaru to have.
- **17346**: First, let's go over the recipe. Try not to forgetaru it!
- **17347**: So, the first ingredientaru you'll need is $1...
- **17348**: Its purpose is to boostaru the Craftsmanship of the $0 to its maximum value.
- **17349**: I've actually got a memo-wemo on Craftsmanship here to read to you.
- **17350**: You can increase Craftsmanship by crafting items that match up with your skill while you have the $0 equipped.
- **17351**: Craftsmanship will increase greatly when you fulfill certain conditions, but crafting the same item over and over again will reduce your gains, so try synthesizing something different if you have trouble.
- **17352**: In its default state, the shield has the unfortunate tendency to lower the success rate of your crafting, but as its Craftsmanship rises, it mitigates that effect.
- **17353**: You can tell the Craftsmanship rating as well as the crafting success rate by looking at the shield. Good luck to you. Mwahaha...
- **17354**: That's all it says.
- **17355**: Come show me once you've raised the Craftsmanship to the necessary level-wevel. I'll make you the $1 you need.
- **17356**: After that, you'll need $2 and $3. You can get them from Isanie.
- **17357**: You have experience making deliveries, correctaru? This is basically the same thing.
- **17358**: If you need to know more, justaru go talk to Isanie.
- **17359**: That's it for the ingredients! Come show me the shield when you're done. It has really piqued my interestaru. Do you think we can use it as a frying pan?
- **17360**: Hm? You say you forgotaru the recipe? I know we do things differently, but it's important to remember these kinds of things.
- **17361**: You're my constantaru partner on the path of fine cuisine. If anybody can make this shield, it's you!
- **17362**: Oh, you did it! Now, I can make the $0 on the listaru.
- **17363**: So this is the $0. It turned out perfectaru.
- **17364**: I'm not sure I know why, but seeing this crystal made by pouring my soul into the shield, I start feeling hungry-wungry.
- **17365**: Hmm... In creating the $0, it appears to have the effectaru of reducing the Craftsmanship of the $1.
- **17366**: That's no problem-woblem if you want to upgrade the $1, but if you need to make another $0, you'll have to raise the Craftsmanship again.
- **17367**: Of course, I'm sure I can countaru on you to never lose this thing.
- **17368**: What? Did you really lose the $0? After that little chataru that we had too?
- **17369**: Never mind. I'll simply-wimply make you another $0. Let me see your shield.
- **17370**: You're better than this. People of your talentaru should take better care of their ingredients.
- **17371**: It looks like the upgrade is complete. Hurry up now! Let me see it!
- **17372**: Hmm... I can tell that it looks different-wifferent. And it smells good too! Although, it doesn't seem like it's complete.
- **17373**: I heard her say that you'll need to craft with it multiple times in order to get it just rightaru.
- **17374**: Oh, that reminds me. I was asked to give some kind of proof that the shield was complete. One momentaru please.
- **17375**: That should do it.
- **17376**: Take this to Mewk Chorosap in Jeuno in order to complete the requestaru.
- **17377**: Oh, and I often have deliveries for Isanie. I could really use your expertaru skills in bringing along the newer guild members.
- **17378**: Hello there. I suppose you're here to upgrade your shield, yes? I've already heard all aboutaru it.
- **17379**: The first thing is to teach you the recipe. Try not to forgetaru it, okay?
- **17380**: This is much differentaru than the recipes I'm used to.
- **17381**: At any rate, I need to tell you how to obtain the listaru of ingredients. The first one is the $1.
- **17382**: Last time, you used the aspis to increase the Craftsmanship. Basically, you need to do the same thing again to craftaru items while the $0 is equipped.
- **17383**: It seems that it will take longer to boostaru the Craftsmanship this time around. As such, you'll need to have patience.
- **17384**: Bring me the shield once it reaches 100% and I'll use my expertaru skills to create the $1 for you.
- **17385**: The next ingredientaru you'll require is the $2. I've given it and the $3 that you used last time to Isanie.
- **17386**: The lastaru ingredient you'll need is the $4. I've teamed up with the A.M.A.N. to create some Records of Eminence objectives for you.
- **17387**: Check the Records of Eminence menu to find out the extentaru of the objectives. Once you've completed them all, you'll receive the $4.
- **17388**: That's it for the ingredients! Think you can handle it? I'm confidentaru that you have what it takes to succeed.
- **17389**: Well, let's see what you've got there.
- **17390**: Yes! This'll do just fine! Here, let me get a startaru on that $0 for you.
- **17391**: Okay, it's all finished. Tell me, whataru do you think?
- **17392**: Hmm... It looks like creating the $0 has caused its Craftsmanship to revertaru downwards again.
- **17393**: Remember, if you lose the $0, you'll need to boostaru the shield's Craftsmanship again. Do be careful with it.
- **17394**: Oh... I thoughtaru it would look like a frying pan, but it's more of a cutting board I suppose. Yes, of course I know it's a shield!
- **17395**: Although, I can feel that its power is well beyond that of the lastaru shield. Yes, this one is destined to become quite formidable!
- **17396**: Here, allow me to mark it for you before I forgetaru.
- **17397**: There we go. Now, justaru take it to Mewk Chorosap and your task will be complete.
- **17398**: Hmm... You must complete this final objective or your task will be an abjectaru failure. Go and give it another try.
- **17399**: Hm? It's that frying pan...oh, I mean shield, again! Now, let's get you that recipe-wecipe.
- **17400**: Oh, you already know the recipe. So I suppose you need to know how to obtain what's on the ingredients listaru.
- **17401**: The $4 and $5... Okay, listen carefully-warefully.
- **17402**: You see, the Culinarians' Guild has received quite a few delivery orders for our delicious-welicious food. We could really use your help.
- **17403**: However, this is a little differentaru than our usual deliveries. Food is always best when cooked fresh, so you need to make it in front of the customer.
- **17404**: Of course, I would demand the same treatmentaru myself. So basically, anything made elsewhere will not be accepted.
- **17405**: Once you have delivered all of the food, I can give you the $4 and $5 you're looking-wooking for.
- **17406**: Okay, this is the [first/next/final] request.
- **17407**: Deliver a total-wotal of $1 $0 to Melloa at the Steaming Sheep Restaurant in $7.
- **17408**: Deliver a total-wotal of $1 $0 to Melloa at the Steaming Sheep Restaurant in $7.
- **17409**: Deliver a total-wotal of $1 $0 to Hinaree in $7.
- **17410**: Deliver a total-wotal of $1 $0 to Hinaree in $7.
- **17411**: Once you've made the delivery-wivery, come see me.
- **17412**: Let's see here... Your current requestaru is...
- **17413**: How is the requestaru going? Good I hope?
- **17414**: Everything okay? [Everything's great!/It could be better...]
- **17415**: Yes, I'm relieved to hear it. Keep up the good work until the requestaru is complete.
- **17416**: Hm?! Surely you're joking-woking? Do you really want to give up on this request?
- **17417**: Will you see this through? [I'll do my best./I've had enough.]
- **17418**: Is that so... Well, if you're not feeling up to it, it's a disservice to our customers-wustomers. I'll ask another craftsman for help.
- **17419**: Take a momentaru to refresh yourself and come back for another request after you're feeling better.
- **17420**: So, are you feeling-weeling any better now? If so, let's get on to the next request.
- **17421**: Welcome back. It seems you took care of that requestaru for me. I'm sure the customer is quite pleased.
- **17422**: Excellentaru work! You've completed all of the requests. I bet it's the most satisfied customer ever!
- **17423**: Here you go. I presentaru you with the $0 and $1.
- **17424**: Also, if you ever need more of them, you can make a trade using guild points.
- **17425**: Lately, I've been wondering what it'd be like to boil-woil or grill this thing... Would it taste any good?
- **17426**: Did it finally turn into a frying pan this time around? I think that'd be a simply perfect resultaru.
- **17427**: Oh, it's justaru a shield. Although, I can vouch for just how amazing both it and you are!
- **17428**: Our friend seems to think that the nextaru upgrade will unlock the shield's ultimate power. I can't wait to see it for myself.
- **17429**: Oh, wait just a momentaru. I have a new crafting technique that I think you'd do quite well with. I can't wait to see what you cook up with it!
- **17430**: I thoughtaru you'd be coming around here! The shield has almost reached its final form!
- **17431**: Allow me to teach-weach you how to obtain the necessary ingredients.
- **17432**: First, there's the $2 and the $3.
- **17433**: You can get them from Isanie by trading crafter points for them. I have a feeling-weeling you already knew that, though.
- **17434**: Next is the $1. It's the same procedure you've used before. Visitaru me after you raise your shield's Craftsmanship to 100%.
- **17435**: That's it for how to obtain the materials! I suppose you should get started by giving your Craftsmanship rating a boostaru!
- **17436**: Here's the $0 as per the instructions I received. I heard that Mewk Chorosap wants it delivered to her. If possible-wossible, can you take it there for me?
- **17437**: How're things?
- **17438**: Hmm... That was a request by a Tarutaru girl from Adoulin. I remember-wember it because that was the first time that somebody had ordered something other than food from us.
- **17439**: Unfortunately, you're too late. She asked me to send it to Jeuno, so that's justaru what I did.
- **17440**: I imagine it has already been delivered to Mewk Chorosap in Port Jeuno by now. You should go and take a look.
- **17441**: Ahh, welcome! Take a look at this delicious looking bread on this emblem-wemblem. I made it the other day. For some reason, it was being used as a pot lid...
- **17442**: Hm? You need it for something-womething? Sure, feel free to take it then!
- **17443**: Uwah! It's finished at lastaru!
- **17444**: Look at that tasty-looking emblem! It's rather-wather unfortunate that it can't be eaten.
- **17445**: I bet if we used this as a frying pan to cook with, we could make all kinds of delicious dishes-wishes...
- **17446**: At any rate, good work out there. Here, I have something to reward you for your effortaru.
- **17447**: This should help you cook up quite a treataru! I hope you'll use it to bring joy to even more satisfied customers!

## Events

### Event 65535

#### Metadata

| Field        | Value   |
|--------------|---------|
| Entrypoint   | 0x0000  |
| Data Size    | 1 bytes |
| Instructions | 1       |

```
      00 01 02 03 04 05 06 07  08 09 0A 0B 0C 0D 0E 0F
      -- -- -- -- -- -- -- --  -- -- -- -- -- -- -- --
0000: 00                                                .               
```

#### Opcodes

```
  0: 0x0000 [0x00] END_REQSTACK()
```

### Event 978

#### Metadata

| Field        | Value   |
|--------------|---------|
| Entrypoint   | 0x0001  |
| Data Size    | 7 bytes |
| Instructions | 2       |

```
      00 01 02 03 04 05 06 07  08 09 0A 0B 0C 0D 0E 0F
      -- -- -- -- -- -- -- --  -- -- -- -- -- -- -- --
0000:    92 01 F8 FF FF 7F 00                            .......        
```

#### Opcodes

```
  0: 0x0001 [0x92] EventEntity->Render.Flags3 ^= 0x01
  1: 0x0007 [0x00] END_REQSTACK()
```

### Event 983

#### Metadata

| Field        | Value   |
|--------------|---------|
| Entrypoint   | 0x0008  |
| Data Size    | 7 bytes |
| Instructions | 2       |

```
      00 01 02 03 04 05 06 07  08 09 0A 0B 0C 0D 0E 0F
      -- -- -- -- -- -- -- --  -- -- -- -- -- -- -- --
0000:                          92 01 F8 FF FF 7F 00             ....... 
```

#### Opcodes

```
  0: 0x0008 [0x92] EventEntity->Render.Flags3 ^= 0x01
  1: 0x000E [0x00] END_REQSTACK()
```

### Event 980

#### Metadata

| Field        | Value   |
|--------------|---------|
| Entrypoint   | 0x000F  |
| Data Size    | 7 bytes |
| Instructions | 2       |

```
      00 01 02 03 04 05 06 07  08 09 0A 0B 0C 0D 0E 0F
      -- -- -- -- -- -- -- --  -- -- -- -- -- -- -- --
0000:                                               92                 .
0010: 01 F8 FF FF 7F 00                                 ......          
```

#### Opcodes

```
  0: 0x000F [0x92] EventEntity->Render.Flags3 ^= 0x01
  1: 0x0015 [0x00] END_REQSTACK()
```

### Event 981

#### Metadata

| Field        | Value   |
|--------------|---------|
| Entrypoint   | 0x0016  |
| Data Size    | 7 bytes |
| Instructions | 2       |

```
      00 01 02 03 04 05 06 07  08 09 0A 0B 0C 0D 0E 0F
      -- -- -- -- -- -- -- --  -- -- -- -- -- -- -- --
0010:                   92 01  F8 FF FF 7F 00                 .......   
```

#### Opcodes

```
  0: 0x0016 [0x92] EventEntity->Render.Flags3 ^= 0x01
  1: 0x001C [0x00] END_REQSTACK()
```

### Event 10013

#### Metadata

| Field        | Value      |
|--------------|------------|
| Entrypoint   | 0x001D     |
| Data Size    | 2033 bytes |
| Instructions | 361        |

```
      00 01 02 03 04 05 06 07  08 09 0A 0B 0C 0D 0E 0F
      -- -- -- -- -- -- -- --  -- -- -- -- -- -- -- --
0010:                                         1E F0 FF               ...
0020: FF 7F 41 00 80 00 80 06  10 00 00 41 01 80 01 80  ..A........A....
0030: 06 10 01 00 41 02 80 02  80 06 10 02 00 03 03 00  ....A...........
0040: 02 80 03 07 00 03 80 03  08 00 04 80 03 09 00 07  ................
0050: 10 03 0A 00 08 10 03 0B  00 09 10 02 0A 00 05 80  ................
0060: 04 47 02 06 03 10 66 06  80 F8 FF FF 7F F0 FF FF  .G....f.........
0070: 7F 74 6C 6B 30 1D 07 80  23 1D 08 80 23 1D 09 80  .tlk0...#...#...
0080: 23 1D 0A 80 23 66 06 80  F8 FF FF 7F F0 FF FF 7F  #...#f..........
0090: 74 6C 6B 31 24 0B 80 03  80 0B 00 25 02 00 10 03  tlk1$......%....
00A0: 80 00 A9 00 21 00 01 08  02 02 00 10 0C 80 00 C5  ....!...........
00B0: 00 03 0C 00 0D 80 03 03  10 03 80 3C 0B 00 0C 80  ...........<....
00C0: 0C 80 01 08 02 02 00 10  05 80 00 E1 00 03 0C 00  ................
00D0: 0E 80 03 03 10 0C 80 3C  0B 00 05 80 0C 80 01 08  .......<........
00E0: 02 02 00 10 0F 80 00 FD  00 03 0C 00 10 80 03 03  ................
00F0: 10 05 80 3C 0B 00 0F 80  0C 80 01 08 02 02 00 10  ...<............
0100: 11 80 00 19 01 03 0C 00  12 80 03 03 10 0F 80 3C  ...............<
0110: 0B 00 11 80 0C 80 01 08  02 02 00 10 13 80 00 35  ...............5
0120: 01 03 0C 00 14 80 03 03  10 11 80 3C 0B 00 13 80  ...........<....
0130: 0C 80 01 08 02 02 00 10  15 80 00 51 01 03 0C 00  ...........Q....
0140: 16 80 03 03 10 13 80 3C  0B 00 15 80 0C 80 01 08  .......<........
0150: 02 02 00 10 17 80 00 6D  01 03 0C 00 18 80 03 03  .......m........
0160: 10 15 80 3C 0B 00 17 80  0C 80 01 08 02 02 00 10  ...<............
0170: 02 80 00 08 02 03 0C 00  19 80 03 03 10 17 80 3C  ...............<
0180: 0B 00 02 80 0C 80 02 09  00 03 80 80 96 01 03 04  ................
0190: 10 1A 80 01 B6 01 02 09  00 0C 80 80 A6 01 03 04  ................
01A0: 10 1B 80 01 B6 01 02 09  00 05 80 80 B6 01 03 04  ................
01B0: 10 1C 80 01 B6 01 66 06  80 F8 FF FF 7F F0 FF FF  ......f.........
01C0: 7F 67 6B 72 30 1D 1D 80  23 53 F8 FF FF 7F F0 FF  .gkr0...#S......
01D0: FF 7F 67 6B 72 30 66 06  80 F8 FF FF 7F F0 FF FF  ..gkr0f.........
01E0: 7F 67 6B 72 31 66 06 80  F8 FF FF 7F F0 FF FF 7F  .gkr1f..........
01F0: 69 72 6F 30 1D 1E 80 23  53 F8 FF FF 7F F0 FF FF  iro0...#S.......
0200: 7F 69 72 6F 30 01 08 02  48 1F 80 23 24 20 80 03  .iro0...H..#$ ..
0210: 80 03 80 25 02 00 10 03  80 00 21 02 21 00 01 3A  ...%......!.!..:
0220: 02 02 00 10 0C 80 00 3A  02 42 03 01 10 0C 00 43  .......:.B.....C
0230: 00 43 01 0C 0A 00 2E 01  3A 02 02 0A 00 05 80 04  .C......:.......
0240: 45 02 01 94 00 21 00 3E  05 10 02 80 5E 05 02 04  E....!.>....^...
0250: 10 21 80 03 51 05 07 03  10 05 80 02 03 10 04 10  .!..Q...........
0260: 03 70 02 1A F5 08 1D 22  80 23 1A 07 09 01 4E 05  .p.....".#....N.
0270: 03 0D 00 09 00 14 0D 00  01 80 07 0D 00 23 80 02  .............#..
0280: 04 10 0D 00 00 A0 02 1D  24 80 23 1A F5 08 1D 25  ........$.#....%
0290: 80 23 1D 26 80 23 1A 07  09 1D 27 80 23 01 4E 05  .#.&.#....'.#.N.
02A0: 02 04 10 28 80 00 96 03  02 00 00 0C 80 00 42 03  ...(..........B.
02B0: 02 02 00 0C 80 00 2C 03  02 01 00 0C 80 00 EE 02  ......,.........
02C0: 03 04 10 29 80 1A F5 08  1D 2A 80 23 1A 07 09 03  ...).....*.#....
02D0: 04 00 28 80 03 05 00 00  80 03 06 00 29 80 1A B6  ..(.........)...
02E0: 05 1A F5 08 1D 2B 80 23  1A 07 09 01 29 03 42 03  .....+.#....).B.
02F0: 03 10 2C 80 1A F5 08 1D  2D 80 23 03 04 10 29 80  ..,.....-.#...).
0300: 1D 2E 80 23 1A 07 09 03  04 00 28 80 03 05 00 00  ...#......(.....
0310: 80 03 06 00 29 80 1A B6  05 1A F5 08 1D 2B 80 23  ....)........+.#
0320: 1A 07 09 03 01 10 0F 80  2E 01 3F 03 03 03 10 2C  ..........?....,
0330: 80 1A F5 08 1D 2F 80 23  1D 30 80 23 1A 07 09 01  ...../.#.0.#....
0340: 93 03 03 02 10 03 80 1A  F5 08 1D 31 80 23 1A 07  ...........1.#..
0350: 09 24 32 80 03 80 03 80  25 02 00 10 03 80 00 7E  .$2.....%......~
0360: 03 42 03 03 10 2C 80 1A  F5 08 1D 33 80 23 1D 30  .B...,.....3.#.0
0370: 80 23 1A 07 09 03 01 10  05 80 2E 01 93 03 02 00  .#..............
0380: 10 0C 80 00 93 03 1A F5  08 1D 34 80 23 1A 07 09  ..........4.#...
0390: 01 93 03 01 4E 05 02 04  10 28 80 02 40 05 02 00  ....N....(..@...
03A0: 00 0C 80 00 5C 04 02 02  00 0C 80 00 59 04 02 01  ....\.......Y...
03B0: 00 0C 80 00 56 04 03 02  10 04 10 08 02 10 28 80  ....V.........(.
03C0: 15 02 10 01 80 02 02 10  0C 80 80 F1 03 03 04 10  ................
03D0: 35 80 1A F5 08 1D 2A 80  23 1A 07 09 03 04 00 21  5.....*.#......!
03E0: 80 03 05 00 01 80 03 06  00 35 80 1A B6 05 01 49  .........5.....I
03F0: 04 02 02 10 05 80 80 1D  04 03 04 10 36 80 1A F5  ............6...
0400: 08 1D 2A 80 23 1A 07 09  03 04 00 37 80 03 05 00  ..*.#......7....
0410: 35 80 03 06 00 36 80 1A  B6 05 01 49 04 02 02 10  5....6.....I....
0420: 0F 80 80 49 04 03 04 10  38 80 1A F5 08 1D 2A 80  ...I....8.....*.
0430: 23 1A 07 09 03 04 00 39  80 03 05 00 36 80 03 06  #......9....6...
0440: 00 38 80 1A B6 05 01 49  04 1A F5 08 1D 2B 80 23  .8.....I.....+.#
0450: 1A 07 09 01 56 04 01 59  04 01 3D 05 02 02 00 0C  ....V..Y..=.....
0460: 80 00 3D 05 03 02 10 04  10 08 02 10 28 80 15 02  ..=.........(...
0470: 10 01 80 1A F5 08 1D 31  80 23 1A 07 09 24 32 80  .......1.#...$2.
0480: 03 80 03 80 25 02 00 10  03 80 00 25 05 42 02 02  ....%......%.B..
0490: 10 0C 80 80 BA 04 03 04  10 35 80 1A F5 08 1D 2E  .........5......
04A0: 80 23 1A 07 09 03 04 00  21 80 03 05 00 01 80 03  .#......!.......
04B0: 06 00 35 80 1A B6 05 01  12 05 02 02 10 05 80 80  ..5.............
04C0: E6 04 03 04 10 36 80 1A  F5 08 1D 2E 80 23 1A 07  .....6.......#..
04D0: 09 03 04 00 37 80 03 05  00 35 80 03 06 00 36 80  ....7....5....6.
04E0: 1A B6 05 01 12 05 02 02  10 0F 80 80 12 05 03 04  ................
04F0: 10 38 80 1A F5 08 1D 2E  80 23 1A 07 09 03 04 00  .8.......#......
0500: 39 80 03 05 00 36 80 03  06 00 38 80 1A B6 05 01  9....6....8.....
0510: 12 05 1A F5 08 1D 2B 80  23 1A 07 09 03 01 10 11  ......+.#.......
0520: 80 2E 01 3A 05 02 00 10  0C 80 00 3A 05 1A F5 08  ...:.......:....
0530: 1D 34 80 23 1A 07 09 01  3A 05 01 3D 05 01 4E 05  .4.#....:..=..N.
0540: 1A F5 08 1D 3A 80 23 1D  3B 80 23 1A 07 09 01 5B  ....:.#.;.#....[
0550: 05 1A F5 08 1D 3C 80 23  1A 07 09 01 B4 05 03 08  .....<.#........
0560: 10 02 80 1D 3D 80 23 24  3E 80 03 80 03 80 25 02  ....=.#$>.....%.
0570: 00 10 03 80 00 9F 05 1A  0D 09 1D 3F 80 23 1D 40  ...........?.#.@
0580: 80 23 1A 1F 09 1A F5 08  1D 41 80 23 1D 42 80 23  .#.......A.#.B.#
0590: 1A 07 09 1D 43 80 23 03  01 10 0C 80 01 B4 05 02  ....C.#.........
05A0: 00 10 0C 80 00 B4 05 1A  F5 08 1D 44 80 23 1A 07  ...........D.#..
05B0: 09 01 B4 05 21 00 8C 02  03 00 04 00 05 00 07 00  ....!...........
05C0: 08 00 8C 01 02 06 00 02  10 C0 D7 05 03 06 00 03  ................
05D0: 80 01 09 07 01 09 07 02  06 00 03 10 C0 EA 05 03  ................
05E0: 06 00 0C 80 01 09 07 01  09 07 02 06 00 04 10 C0  ................
05F0: FD 05 03 06 00 05 80 01  09 07 01 09 07 02 06 00  ................
0600: 05 10 C0 10 06 03 06 00  0F 80 01 09 07 01 09 07  ................
0610: 02 06 00 06 10 C0 23 06  03 06 00 11 80 01 09 07  ......#.........
0620: 01 09 07 02 06 00 07 10  C0 36 06 03 06 00 13 80  .........6......
0630: 01 09 07 01 09 07 02 06  00 08 10 C0 49 06 03 06  ............I...
0640: 00 15 80 01 09 07 01 09  07 02 06 00 09 10 C0 5C  ...............\
0650: 06 03 06 00 17 80 01 09  07 01 09 07 02 06 00 00  ................
0660: 17 C0 6F 06 03 06 00 02  80 01 09 07 01 09 07 02  ..o.............
0670: 06 00 01 17 C0 82 06 03  06 00 00 80 01 09 07 01  ................
0680: 09 07 02 06 00 02 17 C0  95 06 03 06 00 01 80 01  ................
0690: 09 07 01 09 07 02 06 00  03 17 C0 A8 06 03 06 00  ................
06A0: 35 80 01 09 07 01 09 07  02 06 00 04 17 C0 BB 06  5...............
06B0: 03 06 00 36 80 01 09 07  01 09 07 02 06 00 05 17  ...6............
06C0: C0 CE 06 03 06 00 38 80  01 09 07 01 09 07 02 06  ......8.........
06D0: 00 06 17 C0 E1 06 03 06  00 45 80 01 09 07 01 09  .........E......
06E0: 07 02 06 00 07 17 C0 F4  06 03 06 00 46 80 01 09  ............F...
06F0: 07 01 09 07 02 08 17 03  80 01 09 07 07 07 00 04  ................
0700: 80 07 08 00 04 80 01 B6  05 07 06 00 07 00 8C 03  ................
0710: 03 00 04 00 05 00 06 00  8C 01 07 44 10 47 80 03  ...........D.G..
0720: 08 10 03 00 03 03 10 41  10 03 04 10 42 10 03 05  .......A....B...
0730: 10 43 10 03 06 10 44 10  03 07 10 55 10 02 07 10  .C....D....U....
0740: 03 80 00 4C 07 48 48 80  23 01 50 07 48 49 80 23  ...L.HH.#.P.HI.#
0750: 03 02 10 45 10 03 03 10  46 10 03 04 10 47 10 03  ...E....F....G..
0760: 05 10 48 10 03 06 10 4D  10 03 07 10 4E 10 03 08  ..H....M....N...
0770: 10 4F 10 03 09 10 50 10  02 07 10 03 80 00 87 07  .O....P.........
0780: 48 4A 80 23 01 0D 08 02  08 10 03 80 00 96 07 48  HJ.#...........H
0790: 4B 80 23 01 0D 08 02 09  10 03 80 00 A5 07 48 4C  K.#...........HL
07A0: 80 23 01 0D 08 48 4D 80  23 03 02 10 49 10 03 03  .#...HM.#...I...
07B0: 10 4A 10 03 04 10 4B 10  03 05 10 4C 10 03 06 10  .J....K....L....
07C0: 51 10 03 07 10 52 10 03  08 10 53 10 03 09 10 54  Q....R....S....T
07D0: 10 02 06 10 03 80 00 DC  07 01 0D 08 02 07 10 03  ................
07E0: 80 00 EB 07 48 4A 80 23  01 0D 08 02 08 10 03 80  ....HJ.#........
07F0: 00 FA 07 48 4B 80 23 01  0D 08 02 09 10 03 80 00  ...HK.#.........
0800: 09 08 48 4C 80 23 01 0D  08 48 4D 80 23 1B        ..HL.#...HM.#.  
```

#### Opcodes

```
  0: 0x001D [0x1E] EventEntity looks at LocalPlayer and starts talking
  1: 0x0022 [0x41] ExtData[1]->WorkLocal[0] = Work_Zone[6] (bits 9*-9*)
  2: 0x002B [0x41] ExtData[1]->WorkLocal[1] = Work_Zone[6] (bits 10*-10*)
  3: 0x0034 [0x41] ExtData[1]->WorkLocal[2] = Work_Zone[6] (bits 8*-8*)
  4: 0x003D [0x03] ExtData[1]->WorkLocal[3] = 8*
  5: 0x0042 [0x03] ExtData[1]->WorkLocal[7] = 0*
  6: 0x0047 [0x03] ExtData[1]->WorkLocal[8] = 16*
  7: 0x004C [0x03] ExtData[1]->WorkLocal[9] = Work_Zone[7]
  8: 0x0051 [0x03] ExtData[1]->WorkLocal[10] = Work_Zone[8]
  9: 0x0056 [0x03] ExtData[1]->WorkLocal[11] = Work_Zone[9]
 10: 0x005B [0x02] IF !(ExtData[1]->WorkLocal[10] < 2*) GOTO 0x0247
 11: 0x0063 [0x06] Work_Zone[3] = 0
 12: 0x0066 [0x66] LOAD_EXT_SCHEDULER_MAIN: Load scheduler "tlk0" with entities [EventEntity, LocalPlayer], work=40*
 13: 0x0075 [0x1D] PRINT_EVENT_MESSAGE(message_id=7310*)
    → "Is it true that you've achieved the rank of [artisan/adept/veteran] in a guild other than our own? I must say, <Player>, this leaves a terribly bad taste in my mouth."
 14: 0x0078 [0x23] WAIT_FOR_DIALOG_INTERACTION
 15: 0x0079 [0x1D] PRINT_EVENT_MESSAGE(message_id=7311*)
    → "A chef must be first and foremost a chef. Waste too much time on idle pursuits and your tarts will lose their tang, your stews their savor!"
 16: 0x007C [0x23] WAIT_FOR_DIALOG_INTERACTION
 17: 0x007D [0x1D] PRINT_EVENT_MESSAGE(message_id=7312*)
    → "Luckily, there is still time to do right by your taste buds. Say the word and I can revoke your [artisan/adept/veteran] status in any lesser guilds."
 18: 0x0080 [0x23] WAIT_FOR_DIALOG_INTERACTION
 19: 0x0081 [0x1D] PRINT_EVENT_MESSAGE(message_id=7313*)
    → "It is simply a matter of my calling the guildmaster and informing them of your desire to focus on your culinary pursuits. So what do you say, <Player>?"
 20: 0x0084 [0x23] WAIT_FOR_DIALOG_INTERACTION
 21: 0x0085 [0x66] LOAD_EXT_SCHEDULER_MAIN: Load scheduler "tlk1" with entities [EventEntity, LocalPlayer], work=40*
 22: 0x0094 [0x24] CREATE_DIALOG(message_id=7236*, default_option=0*, option_flags=ExtData[1]->WorkLocal[11])
    → "Renounce your rank at which guild? [None./Carpenters'./Blacksmiths'./Goldsmiths'./Weavers'./Tanners'./Boneworkers'./Alchemists'./Culinarians'.]"
 23: 0x009B [0x25] WAIT_DIALOG_SELECT()
 24: 0x009C [0x02] IF !(Work_Zone[0] == 0*) GOTO 0x00A9
 25: 0x00A4 [0x21] END_EVENT
 26: 0x00A5 [0x00] END_REQSTACK()

SUBROUTINE_01B6:
 27: 0x01B6 [0x66] LOAD_EXT_SCHEDULER_MAIN: Load scheduler "gkr0" with entities [EventEntity, LocalPlayer], work=40*
 28: 0x01C5 [0x1D] PRINT_EVENT_MESSAGE(message_id=7314*)
    → "Ah, <Player>. To think that I shall never again know the gustatory bliss that is one of your scrumptious $2! It brings a tear to my eye..."
 29: 0x01C8 [0x23] WAIT_FOR_DIALOG_INTERACTION
 30: 0x01C9 [0x53] WAIT_SCHEDULER_TASK: Wait for scheduler "gkr0" with entities [EventEntity, LocalPlayer]
 31: 0x01D6 [0x66] LOAD_EXT_SCHEDULER_MAIN: Load scheduler "gkr1" with entities [EventEntity, LocalPlayer], work=40*
 32: 0x01E5 [0x66] LOAD_EXT_SCHEDULER_MAIN: Load scheduler "iro0" with entities [EventEntity, LocalPlayer], work=40*
 33: 0x01F4 [0x1D] PRINT_EVENT_MESSAGE(message_id=7315*)
    → "Forgive me. I have no doubt that you will be a scrumptious success in whatever profession you choose to follow. Be well, <Player>."
 34: 0x01F7 [0x23] WAIT_FOR_DIALOG_INTERACTION
 35: 0x01F8 [0x53] WAIT_SCHEDULER_TASK: Wait for scheduler "iro0" with entities [EventEntity, LocalPlayer]
 36: 0x0205 [0x01] GOTO 0x0208

SUBROUTINE_0208:
 37: 0x0208 [0x48] [System] [7237*]:
    → "If you proceed, your rank in the [Carpenters'/Blacksmiths'/Goldsmiths'/Weavers'/Tanners'/Boneworkers'/Alchemists'/Culinarians'] Guild will return to that of [craftsman/artisan/adept], and your skill value will revert to the maximum for that level. This procedure cannot be undone, so please consider your decision carefully."
 38: 0x020B [0x23] WAIT_FOR_DIALOG_INTERACTION
 39: 0x020C [0x24] CREATE_DIALOG(message_id=7238*, default_option=0*, option_flags=0*)
    → "Renounce your rank as a [Carpenter/Blacksmith/Goldsmith/Weaver/Tanner/Boneworker/Alchemist/Culinarian]? [No, retain./Yes, renounce.]"
 40: 0x0213 [0x25] WAIT_DIALOG_SELECT()
 41: 0x0214 [0x02] IF !(Work_Zone[0] == 0*) GOTO 0x0221
 42: 0x021C [0x21] END_EVENT
 43: 0x021D [0x00] END_REQSTACK()

SUBROUTINE_023A:
 44: 0x023A [0x02] IF !(ExtData[1]->WorkLocal[10] < 2*) GOTO 0x0245
 45: 0x0242 [0x01] GOTO 0x0094
 46: 0x0245 [0x21] END_EVENT
 47: 0x0246 [0x00] END_REQSTACK()
 48: 0x0247 [0x3E] IF !(Work_Zone[5] bit 8*) GOTO 0x055E
 49: 0x024E [0x02] IF !(Work_Zone[4] >= 110*) GOTO 0x0551
 50: 0x0256 [0x07] Work_Zone[3] += 2*
 51: 0x025B [0x02] IF !(Work_Zone[3] >= Work_Zone[4]) GOTO 0x0270
 52: 0x0263 [0x1A] CALL_SUBROUTINE(address=0x08F5)
 53: 0x0266 [0x1D] PRINT_EVENT_MESSAGE(message_id=7247*)
    → "People have to eat every day, and you do not have to be a connoisseur to judge what tastes good. So the ones who provide the food for them have to keep on improving their skills, or the diner will go elsewhere."
 54: 0x0269 [0x23] WAIT_FOR_DIALOG_INTERACTION
 55: 0x026A [0x1A] CALL_SUBROUTINE(address=0x0907)
 56: 0x026D [0x01] GOTO 0x054E
 57: 0x0270 [0x03] ExtData[1]->WorkLocal[13] = ExtData[1]->WorkLocal[9]
 58: 0x0275 [0x14] ExtData[1]->WorkLocal[13] *= 10*
 59: 0x027A [0x07] ExtData[1]->WorkLocal[13] += 70*
 60: 0x027F [0x02] IF !(Work_Zone[4] == ExtData[1]->WorkLocal[13]) GOTO 0x02A0
 61: 0x0287 [0x1D] PRINT_EVENT_MESSAGE(message_id=7305*)
    → "I think that you are ready to enter the leagues of the great chefs. Mix me up $0."
 62: 0x028A [0x23] WAIT_FOR_DIALOG_INTERACTION
 63: 0x028B [0x1A] CALL_SUBROUTINE(address=0x08F5)
 64: 0x028E [0x1D] PRINT_EVENT_MESSAGE(message_id=7306*)
    → "If it tickles my tongue, I'll grant you the title of [artisan/adept/veteran]."
 65: 0x0291 [0x23] WAIT_FOR_DIALOG_INTERACTION
 66: 0x0292 [0x1D] PRINT_EVENT_MESSAGE(message_id=7307*)
    → "But you must be forewarned. Becoming [an artisan/an adept/a veteran] of the Culinary Guild means a certain level of devotion to the culinary arts."
 67: 0x0295 [0x23] WAIT_FOR_DIALOG_INTERACTION
 68: 0x0296 [0x1A] CALL_SUBROUTINE(address=0x0907)
 69: 0x0299 [0x1D] PRINT_EVENT_MESSAGE(message_id=7308*)
    → "You are free to become [an artisan/an adept/a veteran] in another guild, but if doing so means losing that knack you have for cooking..."
 70: 0x029C [0x23] WAIT_FOR_DIALOG_INTERACTION
 71: 0x029D [0x01] GOTO 0x054E
 72: 0x02A0 [0x02] IF !(Work_Zone[4] == 100*) GOTO 0x0396
 73: 0x02A8 [0x02] IF !(ExtData[1]->WorkLocal[0] == 1*) GOTO 0x0342
 74: 0x02B0 [0x02] IF !(ExtData[1]->WorkLocal[2] == 1*) GOTO 0x032C
 75: 0x02B8 [0x02] IF !(ExtData[1]->WorkLocal[1] == 1*) GOTO 0x02EE
 76: 0x02C0 [0x03] Work_Zone[4] = 5930*
 77: 0x02C5 [0x1A] CALL_SUBROUTINE(address=0x08F5)
 78: 0x02C8 [0x1D] PRINT_EVENT_MESSAGE(message_id=7301*)
    → "You forgot the recipe for $2? I don't like repeating myself, so be sure to write it down in your cookbook."
 79: 0x02CB [0x23] WAIT_FOR_DIALOG_INTERACTION
 80: 0x02CC [0x1A] CALL_SUBROUTINE(address=0x0907)
 81: 0x02CF [0x03] ExtData[1]->WorkLocal[4] = 100*
 82: 0x02D4 [0x03] ExtData[1]->WorkLocal[5] = 9*
 83: 0x02D9 [0x03] ExtData[1]->WorkLocal[6] = 5930*
 84: 0x02DE [0x1A] CALL_SUBROUTINE(address=0x05B6)
 85: 0x02E1 [0x1A] CALL_SUBROUTINE(address=0x08F5)
 86: 0x02E4 [0x1D] PRINT_EVENT_MESSAGE(message_id=7300*)
    → "Ah, and don't forget to decorate your dish with your signature, that I and my fellow gourmets will know who to thank for the mouthwatering meal."
 87: 0x02E7 [0x23] WAIT_FOR_DIALOG_INTERACTION
 88: 0x02E8 [0x1A] CALL_SUBROUTINE(address=0x0907)
 89: 0x02EB [0x01] GOTO 0x0329
 90: 0x02EE [0x42] SET_CLI_EVENT_CANCEL_DATA()
 91: 0x02EF [0x03] Work_Zone[3] = 2044*
 92: 0x02F4 [0x1A] CALL_SUBROUTINE(address=0x08F5)
 93: 0x02F7 [0x1D] PRINT_EVENT_MESSAGE(message_id=7298*)
    → "You're back, and the smile on your face tells me that you've fully digested the contents of $6."
 94: 0x02FA [0x23] WAIT_FOR_DIALOG_INTERACTION
 95: 0x02FB [0x03] Work_Zone[4] = 5930*
 96: 0x0300 [0x1D] PRINT_EVENT_MESSAGE(message_id=7299*)
    → "Very well, then! Wash your hands, put on your chef's hat, and whip me up $2. First you'll have to hunt down the ingredients, of course, a task which I doubt will be as easy as pamama pie."
 97: 0x0303 [0x23] WAIT_FOR_DIALOG_INTERACTION
 98: 0x0304 [0x1A] CALL_SUBROUTINE(address=0x0907)
 99: 0x0307 [0x03] ExtData[1]->WorkLocal[4] = 100*
100: 0x030C [0x03] ExtData[1]->WorkLocal[5] = 9*
101: 0x0311 [0x03] ExtData[1]->WorkLocal[6] = 5930*
102: 0x0316 [0x1A] CALL_SUBROUTINE(address=0x05B6)
103: 0x0319 [0x1A] CALL_SUBROUTINE(address=0x08F5)
104: 0x031C [0x1D] PRINT_EVENT_MESSAGE(message_id=7300*)
    → "Ah, and don't forget to decorate your dish with your signature, that I and my fellow gourmets will know who to thank for the mouthwatering meal."
105: 0x031F [0x23] WAIT_FOR_DIALOG_INTERACTION
106: 0x0320 [0x1A] CALL_SUBROUTINE(address=0x0907)
107: 0x0323 [0x03] Work_Zone[1] = 3*
108: 0x0328 [0x2E] SET_CLI_EVENT_CANCEL_FLAGS()

SUBROUTINE_0329:
109: 0x0329 [0x01] GOTO 0x033F
110: 0x032C [0x03] Work_Zone[3] = 2044*
111: 0x0331 [0x1A] CALL_SUBROUTINE(address=0x08F5)
112: 0x0334 [0x1D] PRINT_EVENT_MESSAGE(message_id=7297*)
    → "First, you'll want to speak to Qhum Knaidjn and obtain yourself $6."
113: 0x0337 [0x23] WAIT_FOR_DIALOG_INTERACTION
114: 0x0338 [0x1D] PRINT_EVENT_MESSAGE(message_id=7295*)
    → "You'll need a dash of guild points for the transaction, but a chef of your skills should need only a pinch of effort to accrue them."
115: 0x033B [0x23] WAIT_FOR_DIALOG_INTERACTION
116: 0x033C [0x1A] CALL_SUBROUTINE(address=0x0907)

SUBROUTINE_033F:
117: 0x033F [0x01] GOTO 0x0393
118: 0x0342 [0x03] Work_Zone[2] = 0*
119: 0x0347 [0x1A] CALL_SUBROUTINE(address=0x08F5)
120: 0x034A [0x1D] PRINT_EVENT_MESSAGE(message_id=7292*)
    → "Our [veteran/expert/authority/luminary/master] chef returns! I hear your culinary creations are all the rage across town these days. What say you apply a fine garnish to your skills, that you might lead the realm into a new era of epicurean delights?"
121: 0x034D [0x23] WAIT_FOR_DIALOG_INTERACTION
122: 0x034E [0x1A] CALL_SUBROUTINE(address=0x0907)
123: 0x0351 [0x24] CREATE_DIALOG(message_id=7293*, default_option=0*, option_flags=0*)
    → "Hone your skills further? [Certainly!/Maybe later...]"
124: 0x0358 [0x25] WAIT_DIALOG_SELECT()
125: 0x0359 [0x02] IF !(Work_Zone[0] == 0*) GOTO 0x037E
126: 0x0361 [0x42] SET_CLI_EVENT_CANCEL_DATA()
127: 0x0362 [0x03] Work_Zone[3] = 2044*
128: 0x0367 [0x1A] CALL_SUBROUTINE(address=0x08F5)
129: 0x036A [0x1D] PRINT_EVENT_MESSAGE(message_id=7294*)
    → "Now that's a scrumptious answer! First, you'll be wanting to acquire a copy of $6 from Qhum Knaidjn."
130: 0x036D [0x23] WAIT_FOR_DIALOG_INTERACTION
131: 0x036E [0x1D] PRINT_EVENT_MESSAGE(message_id=7295*)
    → "You'll need a dash of guild points for the transaction, but a chef of your skills should need only a pinch of effort to accrue them."
132: 0x0371 [0x23] WAIT_FOR_DIALOG_INTERACTION
133: 0x0372 [0x1A] CALL_SUBROUTINE(address=0x0907)
134: 0x0375 [0x03] Work_Zone[1] = 2*
135: 0x037A [0x2E] SET_CLI_EVENT_CANCEL_FLAGS()
136: 0x037B [0x01] GOTO 0x0393
137: 0x037E [0x02] IF !(Work_Zone[0] == 1*) GOTO 0x0393
138: 0x0386 [0x1A] CALL_SUBROUTINE(address=0x08F5)
139: 0x0389 [0x1D] PRINT_EVENT_MESSAGE(message_id=7296*)
    → "What is this foul taste in my mouth? Why, I believe it's my bitter disappointment at the potential you're allowing to go to waste."
140: 0x038C [0x23] WAIT_FOR_DIALOG_INTERACTION
141: 0x038D [0x1A] CALL_SUBROUTINE(address=0x0907)
142: 0x0390 [0x01] GOTO 0x0393

SUBROUTINE_0393:
143: 0x0393 [0x01] GOTO 0x054E
144: 0x0396 [0x02] IF !(Work_Zone[4] <= 100*) GOTO 0x0540
145: 0x039E [0x02] IF !(ExtData[1]->WorkLocal[0] == 1*) GOTO 0x045C
146: 0x03A6 [0x02] IF !(ExtData[1]->WorkLocal[2] == 1*) GOTO 0x0459
147: 0x03AE [0x02] IF !(ExtData[1]->WorkLocal[1] == 1*) GOTO 0x0456
148: 0x03B6 [0x03] Work_Zone[2] = Work_Zone[4]
149: 0x03BB [0x08] Work_Zone[2] -= 100*
150: 0x03C0 [0x15] Work_Zone[2] /= 10*
151: 0x03C5 [0x02] IF !(Work_Zone[2] == 1*) GOTO 0x03F1
152: 0x03CD [0x03] Work_Zone[4] = 11*
153: 0x03D2 [0x1A] CALL_SUBROUTINE(address=0x08F5)
154: 0x03D5 [0x1D] PRINT_EVENT_MESSAGE(message_id=7301*)
    → "You forgot the recipe for $2? I don't like repeating myself, so be sure to write it down in your cookbook."
155: 0x03D8 [0x23] WAIT_FOR_DIALOG_INTERACTION
156: 0x03D9 [0x1A] CALL_SUBROUTINE(address=0x0907)
157: 0x03DC [0x03] ExtData[1]->WorkLocal[4] = 110*
158: 0x03E1 [0x03] ExtData[1]->WorkLocal[5] = 10*
159: 0x03E6 [0x03] ExtData[1]->WorkLocal[6] = 11*
160: 0x03EB [0x1A] CALL_SUBROUTINE(address=0x05B6)
161: 0x03EE [0x01] GOTO 0x0449
162: 0x03F1 [0x02] IF !(Work_Zone[2] == 2*) GOTO 0x041D
163: 0x03F9 [0x03] Work_Zone[4] = 12*
164: 0x03FE [0x1A] CALL_SUBROUTINE(address=0x08F5)
165: 0x0401 [0x1D] PRINT_EVENT_MESSAGE(message_id=7301*)
    → "You forgot the recipe for $2? I don't like repeating myself, so be sure to write it down in your cookbook."
166: 0x0404 [0x23] WAIT_FOR_DIALOG_INTERACTION
167: 0x0405 [0x1A] CALL_SUBROUTINE(address=0x0907)
168: 0x0408 [0x03] ExtData[1]->WorkLocal[4] = 120*
169: 0x040D [0x03] ExtData[1]->WorkLocal[5] = 11*
170: 0x0412 [0x03] ExtData[1]->WorkLocal[6] = 12*
171: 0x0417 [0x1A] CALL_SUBROUTINE(address=0x05B6)
172: 0x041A [0x01] GOTO 0x0449
173: 0x041D [0x02] IF !(Work_Zone[2] == 3*) GOTO 0x0449
174: 0x0425 [0x03] Work_Zone[4] = 13*
175: 0x042A [0x1A] CALL_SUBROUTINE(address=0x08F5)
176: 0x042D [0x1D] PRINT_EVENT_MESSAGE(message_id=7301*)
    → "You forgot the recipe for $2? I don't like repeating myself, so be sure to write it down in your cookbook."
177: 0x0430 [0x23] WAIT_FOR_DIALOG_INTERACTION
178: 0x0431 [0x1A] CALL_SUBROUTINE(address=0x0907)
179: 0x0434 [0x03] ExtData[1]->WorkLocal[4] = 130*
180: 0x0439 [0x03] ExtData[1]->WorkLocal[5] = 12*
181: 0x043E [0x03] ExtData[1]->WorkLocal[6] = 13*
182: 0x0443 [0x1A] CALL_SUBROUTINE(address=0x05B6)
183: 0x0446 [0x01] GOTO 0x0449

SUBROUTINE_0449:
184: 0x0449 [0x1A] CALL_SUBROUTINE(address=0x08F5)
185: 0x044C [0x1D] PRINT_EVENT_MESSAGE(message_id=7300*)
    → "Ah, and don't forget to decorate your dish with your signature, that I and my fellow gourmets will know who to thank for the mouthwatering meal."
186: 0x044F [0x23] WAIT_FOR_DIALOG_INTERACTION
187: 0x0450 [0x1A] CALL_SUBROUTINE(address=0x0907)
188: 0x0453 [0x01] GOTO 0x0456

SUBROUTINE_0456:
189: 0x0456 [0x01] GOTO 0x0459

SUBROUTINE_0459:
190: 0x0459 [0x01] GOTO 0x053D
191: 0x045C [0x02] IF !(ExtData[1]->WorkLocal[2] == 1*) GOTO 0x053D
192: 0x0464 [0x03] Work_Zone[2] = Work_Zone[4]
193: 0x0469 [0x08] Work_Zone[2] -= 100*
194: 0x046E [0x15] Work_Zone[2] /= 10*
195: 0x0473 [0x1A] CALL_SUBROUTINE(address=0x08F5)
196: 0x0476 [0x1D] PRINT_EVENT_MESSAGE(message_id=7292*)
    → "Our [veteran/expert/authority/luminary/master] chef returns! I hear your culinary creations are all the rage across town these days. What say you apply a fine garnish to your skills, that you might lead the realm into a new era of epicurean delights?"
197: 0x0479 [0x23] WAIT_FOR_DIALOG_INTERACTION
198: 0x047A [0x1A] CALL_SUBROUTINE(address=0x0907)
199: 0x047D [0x24] CREATE_DIALOG(message_id=7293*, default_option=0*, option_flags=0*)
    → "Hone your skills further? [Certainly!/Maybe later...]"
200: 0x0484 [0x25] WAIT_DIALOG_SELECT()
201: 0x0485 [0x02] IF !(Work_Zone[0] == 0*) GOTO 0x0525
202: 0x048D [0x42] SET_CLI_EVENT_CANCEL_DATA()
203: 0x048E [0x02] IF !(Work_Zone[2] == 1*) GOTO 0x04BA
204: 0x0496 [0x03] Work_Zone[4] = 11*
205: 0x049B [0x1A] CALL_SUBROUTINE(address=0x08F5)
206: 0x049E [0x1D] PRINT_EVENT_MESSAGE(message_id=7299*)
    → "Very well, then! Wash your hands, put on your chef's hat, and whip me up $2. First you'll have to hunt down the ingredients, of course, a task which I doubt will be as easy as pamama pie."
207: 0x04A1 [0x23] WAIT_FOR_DIALOG_INTERACTION
208: 0x04A2 [0x1A] CALL_SUBROUTINE(address=0x0907)
209: 0x04A5 [0x03] ExtData[1]->WorkLocal[4] = 110*
210: 0x04AA [0x03] ExtData[1]->WorkLocal[5] = 10*
211: 0x04AF [0x03] ExtData[1]->WorkLocal[6] = 11*
212: 0x04B4 [0x1A] CALL_SUBROUTINE(address=0x05B6)
213: 0x04B7 [0x01] GOTO 0x0512
214: 0x04BA [0x02] IF !(Work_Zone[2] == 2*) GOTO 0x04E6
215: 0x04C2 [0x03] Work_Zone[4] = 12*
216: 0x04C7 [0x1A] CALL_SUBROUTINE(address=0x08F5)
217: 0x04CA [0x1D] PRINT_EVENT_MESSAGE(message_id=7299*)
    → "Very well, then! Wash your hands, put on your chef's hat, and whip me up $2. First you'll have to hunt down the ingredients, of course, a task which I doubt will be as easy as pamama pie."
218: 0x04CD [0x23] WAIT_FOR_DIALOG_INTERACTION
219: 0x04CE [0x1A] CALL_SUBROUTINE(address=0x0907)
220: 0x04D1 [0x03] ExtData[1]->WorkLocal[4] = 120*
221: 0x04D6 [0x03] ExtData[1]->WorkLocal[5] = 11*
222: 0x04DB [0x03] ExtData[1]->WorkLocal[6] = 12*
223: 0x04E0 [0x1A] CALL_SUBROUTINE(address=0x05B6)
224: 0x04E3 [0x01] GOTO 0x0512
225: 0x04E6 [0x02] IF !(Work_Zone[2] == 3*) GOTO 0x0512
226: 0x04EE [0x03] Work_Zone[4] = 13*
227: 0x04F3 [0x1A] CALL_SUBROUTINE(address=0x08F5)
228: 0x04F6 [0x1D] PRINT_EVENT_MESSAGE(message_id=7299*)
    → "Very well, then! Wash your hands, put on your chef's hat, and whip me up $2. First you'll have to hunt down the ingredients, of course, a task which I doubt will be as easy as pamama pie."
229: 0x04F9 [0x23] WAIT_FOR_DIALOG_INTERACTION
230: 0x04FA [0x1A] CALL_SUBROUTINE(address=0x0907)
231: 0x04FD [0x03] ExtData[1]->WorkLocal[4] = 130*
232: 0x0502 [0x03] ExtData[1]->WorkLocal[5] = 12*
233: 0x0507 [0x03] ExtData[1]->WorkLocal[6] = 13*
234: 0x050C [0x1A] CALL_SUBROUTINE(address=0x05B6)
235: 0x050F [0x01] GOTO 0x0512

SUBROUTINE_0512:
236: 0x0512 [0x1A] CALL_SUBROUTINE(address=0x08F5)
237: 0x0515 [0x1D] PRINT_EVENT_MESSAGE(message_id=7300*)
    → "Ah, and don't forget to decorate your dish with your signature, that I and my fellow gourmets will know who to thank for the mouthwatering meal."
238: 0x0518 [0x23] WAIT_FOR_DIALOG_INTERACTION
239: 0x0519 [0x1A] CALL_SUBROUTINE(address=0x0907)
240: 0x051C [0x03] Work_Zone[1] = 4*
241: 0x0521 [0x2E] SET_CLI_EVENT_CANCEL_FLAGS()
242: 0x0522 [0x01] GOTO 0x053A
243: 0x0525 [0x02] IF !(Work_Zone[0] == 1*) GOTO 0x053A
244: 0x052D [0x1A] CALL_SUBROUTINE(address=0x08F5)
245: 0x0530 [0x1D] PRINT_EVENT_MESSAGE(message_id=7296*)
    → "What is this foul taste in my mouth? Why, I believe it's my bitter disappointment at the potential you're allowing to go to waste."
246: 0x0533 [0x23] WAIT_FOR_DIALOG_INTERACTION
247: 0x0534 [0x1A] CALL_SUBROUTINE(address=0x0907)
248: 0x0537 [0x01] GOTO 0x053A

SUBROUTINE_053A:
249: 0x053A [0x01] GOTO 0x053D

SUBROUTINE_053D:
250: 0x053D [0x01] GOTO 0x054E
251: 0x0540 [0x1A] CALL_SUBROUTINE(address=0x08F5)
252: 0x0543 [0x1D] PRINT_EVENT_MESSAGE(message_id=7249*)
    → "It's about time you moved on to the next culinarian level. Here then... Whip me up $0."
253: 0x0546 [0x23] WAIT_FOR_DIALOG_INTERACTION
254: 0x0547 [0x1D] PRINT_EVENT_MESSAGE(message_id=7250*)
    → "If it tastes good and is presented well, I'll teach you some new cooking techniques."
255: 0x054A [0x23] WAIT_FOR_DIALOG_INTERACTION
256: 0x054B [0x1A] CALL_SUBROUTINE(address=0x0907)

SUBROUTINE_054E:
257: 0x054E [0x01] GOTO 0x055B
258: 0x0551 [0x1A] CALL_SUBROUTINE(address=0x08F5)
259: 0x0554 [0x1D] PRINT_EVENT_MESSAGE(message_id=7248*)
    → "How have you been? To tell you the truth, when I see your face, my mouth starts watering and my stomach starts talking... Are you going to make anything for us today?"
260: 0x0557 [0x23] WAIT_FOR_DIALOG_INTERACTION
261: 0x0558 [0x1A] CALL_SUBROUTINE(address=0x0907)

SUBROUTINE_055B:
262: 0x055B [0x01] GOTO 0x05B4
263: 0x055E [0x03] Work_Zone[8] = 8*
264: 0x0563 [0x1D] PRINT_EVENT_MESSAGE(message_id=7240*)
    → "Huh? Have I met you before? This is the Culinarians' Guild. As you can guess, it is an association for professional cooks."
265: 0x0566 [0x23] WAIT_FOR_DIALOG_INTERACTION
266: 0x0567 [0x24] CREATE_DIALOG(message_id=7184*, default_option=0*, option_flags=0*)
    → "Join the [Fishermen's/Carpenters'/Blacksmiths'/Goldsmiths'/Weavers'/Tanners'/Boneworkers'/Alchemists'/Culinarians'] Guild? [Sign up./That's not why you're here.]"
267: 0x056E [0x25] WAIT_DIALOG_SELECT()
268: 0x056F [0x02] IF !(Work_Zone[0] == 0*) GOTO 0x059F
269: 0x0577 [0x1A] CALL_SUBROUTINE(address=0x090D)
270: 0x057A [0x1D] PRINT_EVENT_MESSAGE(message_id=7242*)
    → "Well, it's done, then! Lately, a lot of adventurers have been signing up to learn. Here. Study a little crystal synthesis with this..."
271: 0x057D [0x23] WAIT_FOR_DIALOG_INTERACTION
272: 0x057E [0x1D] PRINT_EVENT_MESSAGE(message_id=7243*)
    → "To put it simply, crystals are solidified energy. Crystal synthesis utilizes that energy to cook individual ingredients into a finished dish."
273: 0x0581 [0x23] WAIT_FOR_DIALOG_INTERACTION
274: 0x0582 [0x1A] CALL_SUBROUTINE(address=0x091F)
275: 0x0585 [0x1A] CALL_SUBROUTINE(address=0x08F5)
276: 0x0588 [0x1D] PRINT_EVENT_MESSAGE(message_id=7244*)
    → "But it's not as easy as it looks. If the cook can't visualize the finished product properly, he could fail, wasting all the ingredients in the process."
277: 0x058B [0x23] WAIT_FOR_DIALOG_INTERACTION
278: 0x058C [0x1D] PRINT_EVENT_MESSAGE(message_id=7245*)
    → "So you need to gain as much practice as possible. Only the cook who understands the very essence of his ingredients can make truly exquisite cuisine."
279: 0x058F [0x23] WAIT_FOR_DIALOG_INTERACTION
280: 0x0590 [0x1A] CALL_SUBROUTINE(address=0x0907)
281: 0x0593 [0x1D] PRINT_EVENT_MESSAGE(message_id=7246*)
    → "Start with the basics and gradually build yourself up. If you need the recipes, your fellow guildsmen can tell you how to make delicacies from all around the world."
282: 0x0596 [0x23] WAIT_FOR_DIALOG_INTERACTION
283: 0x0597 [0x03] Work_Zone[1] = 1*
284: 0x059C [0x01] GOTO 0x05B4
285: 0x059F [0x02] IF !(Work_Zone[0] == 1*) GOTO 0x05B4
286: 0x05A7 [0x1A] CALL_SUBROUTINE(address=0x08F5)
287: 0x05AA [0x1D] PRINT_EVENT_MESSAGE(message_id=7241*)
    → "I understand you not wanting to rush into anything. As you can see, we have to keep a clean kitchen, so it's not the kind of place unauthorized people should hang about in."
288: 0x05AD [0x23] WAIT_FOR_DIALOG_INTERACTION
289: 0x05AE [0x1A] CALL_SUBROUTINE(address=0x0907)
290: 0x05B1 [0x01] GOTO 0x05B4

SUBROUTINE_05B4:
291: 0x05B4 [0x21] END_EVENT
292: 0x05B5 [0x00] END_REQSTACK()

SUBROUTINE_05B6:
293: 0x05B6 [0x8C] CRAFTING_HANDLER(mode=0x02) // Set recipe data
294: 0x05C2 [0x8C] CRAFTING_HANDLER(mode=0x01) // End crafting session
295: 0x05C4 [0x02] IF !(ExtData[1]->WorkLocal[6] == Work_Zone[2]) GOTO 0x05D7
296: 0x05CC [0x03] ExtData[1]->WorkLocal[6] = 0*
297: 0x05D1 [0x01] GOTO 0x0709

SUBROUTINE_0709:
298: 0x0709 [0x07] ExtData[1]->WorkLocal[6] += ExtData[1]->WorkLocal[7]
299: 0x070E [0x8C] CRAFTING_HANDLER(mode=0x03) // Get synthesis recipe
300: 0x0718 [0x8C] CRAFTING_HANDLER(mode=0x01) // End crafting session
301: 0x071A [0x07] Work_Zone[68] += 142*
302: 0x071F [0x03] Work_Zone[8] = ExtData[1]->WorkLocal[3]
303: 0x0724 [0x03] Work_Zone[3] = Work_Zone[65]
304: 0x0729 [0x03] Work_Zone[4] = Work_Zone[66]
305: 0x072E [0x03] Work_Zone[5] = Work_Zone[67]
306: 0x0733 [0x03] Work_Zone[6] = Work_Zone[68]
307: 0x0738 [0x03] Work_Zone[7] = Work_Zone[85]
308: 0x073D [0x02] IF !(Work_Zone[7] == 0*) GOTO 0x074C
309: 0x0745 [0x48] [System] [7190*]:
    → "Necessary skills: [Fishing/Woodworking/Smithing/Goldsmithing/Clothcraft/Leatherworking/Bonecraft/Alchemy/Cooking][ /, Woodworking/, Smithing/, Goldsmithing/, Clothcraft/, Leatherworking/, Bonecraft/, Alchemy/, Cooking][ /, Woodworking/, Smithing/, Goldsmithing/, Clothcraft/, Leatherworking/, Bonecraft/, Alchemy/, Cooking][ /, & Woodworking/, & Smithing/, & Goldsmithing/, & Clothcraft/, & Leatherworking/, & Bonecraft/, & Alchemy/, & Cooking] Necessary crystal: $4 Necessary items:"
310: 0x0748 [0x23] WAIT_FOR_DIALOG_INTERACTION
311: 0x0749 [0x01] GOTO 0x0750
312: 0x074C [0x48] [System] [7228*]:
    → "Necessary skills: [Fishing/Woodworking/Smithing/Goldsmithing/Clothcraft/Leatherworking/Bonecraft/Alchemy/Cooking][ /, Woodworking/, Smithing/, Goldsmithing/, Clothcraft/, Leatherworking/, Bonecraft/, Alchemy/, Cooking][ /, Woodworking/, Smithing/, Goldsmithing/, Clothcraft/, Leatherworking/, Bonecraft/, Alchemy/, Cooking][ /, & Woodworking/, & Smithing/, & Goldsmithing/, & Clothcraft/, & Leatherworking/, & Bonecraft/, & Alchemy/, & Cooking] Necessary crystal: $4 Necessary key item: $3 Necessary items:"
313: 0x074F [0x23] WAIT_FOR_DIALOG_INTERACTION

SUBROUTINE_0750:
314: 0x0750 [0x03] Work_Zone[2] = Work_Zone[69]
315: 0x0755 [0x03] Work_Zone[3] = Work_Zone[70]
316: 0x075A [0x03] Work_Zone[4] = Work_Zone[71]
317: 0x075F [0x03] Work_Zone[5] = Work_Zone[72]
318: 0x0764 [0x03] Work_Zone[6] = Work_Zone[77]
319: 0x0769 [0x03] Work_Zone[7] = Work_Zone[78]
320: 0x076E [0x03] Work_Zone[8] = Work_Zone[79]
321: 0x0773 [0x03] Work_Zone[9] = Work_Zone[80]
322: 0x0778 [0x02] IF !(Work_Zone[7] == 0*) GOTO 0x0787
323: 0x0780 [0x48] [System] [7194*]:
    → "$4 x $0"
324: 0x0783 [0x23] WAIT_FOR_DIALOG_INTERACTION
325: 0x0784 [0x01] GOTO 0x080D
326: 0x0787 [0x02] IF !(Work_Zone[8] == 0*) GOTO 0x0796
327: 0x078F [0x48] [System] [7193*]:
    → "$4 x $0 $5 x $0$0"
328: 0x0792 [0x23] WAIT_FOR_DIALOG_INTERACTION
329: 0x0793 [0x01] GOTO 0x080D
330: 0x0796 [0x02] IF !(Work_Zone[9] == 0*) GOTO 0x07A5
331: 0x079E [0x48] [System] [7192*]:
    → "$4 x $0 $5 x $0$0 $6 x $0"
332: 0x07A1 [0x23] WAIT_FOR_DIALOG_INTERACTION
333: 0x07A2 [0x01] GOTO 0x080D
334: 0x07A5 [0x48] [System] [7191*]:
    → "$4 x $0 $5 x $0$0 $6 x $0 $7 x $0$3"
335: 0x07A8 [0x23] WAIT_FOR_DIALOG_INTERACTION
336: 0x07A9 [0x03] Work_Zone[2] = Work_Zone[73]
337: 0x07AE [0x03] Work_Zone[3] = Work_Zone[74]
338: 0x07B3 [0x03] Work_Zone[4] = Work_Zone[75]
339: 0x07B8 [0x03] Work_Zone[5] = Work_Zone[76]
340: 0x07BD [0x03] Work_Zone[6] = Work_Zone[81]
341: 0x07C2 [0x03] Work_Zone[7] = Work_Zone[82]
342: 0x07C7 [0x03] Work_Zone[8] = Work_Zone[83]
343: 0x07CC [0x03] Work_Zone[9] = Work_Zone[84]
344: 0x07D1 [0x02] IF !(Work_Zone[6] == 0*) GOTO 0x07DC
345: 0x07D9 [0x01] GOTO 0x080D
346: 0x07DC [0x02] IF !(Work_Zone[7] == 0*) GOTO 0x07EB
347: 0x07E4 [0x48] [System] [7194*]:
    → "$4 x $0"
348: 0x07E7 [0x23] WAIT_FOR_DIALOG_INTERACTION
349: 0x07E8 [0x01] GOTO 0x080D
350: 0x07EB [0x02] IF !(Work_Zone[8] == 0*) GOTO 0x07FA
351: 0x07F3 [0x48] [System] [7193*]:
    → "$4 x $0 $5 x $0$0"
352: 0x07F6 [0x23] WAIT_FOR_DIALOG_INTERACTION
353: 0x07F7 [0x01] GOTO 0x080D
354: 0x07FA [0x02] IF !(Work_Zone[9] == 0*) GOTO 0x0809
355: 0x0802 [0x48] [System] [7192*]:
    → "$4 x $0 $5 x $0$0 $6 x $0"
356: 0x0805 [0x23] WAIT_FOR_DIALOG_INTERACTION
357: 0x0806 [0x01] GOTO 0x080D
358: 0x0809 [0x48] [System] [7191*]:
    → "$4 x $0 $5 x $0$0 $6 x $0 $7 x $0$3"
359: 0x080C [0x23] WAIT_FOR_DIALOG_INTERACTION

SUBROUTINE_080D:
360: 0x080D [0x1B] RETURN
```

#### Data or dead code:

```
# Dead code (unreachable instructions):
     0x00A6 [0x01] GOTO 0x0208
# Dead code (unreachable instructions):
     0x021E [0x01] GOTO 0x023A
# Dead code (unreachable instructions):
     0x05D4 [0x01] GOTO 0x0709
     0x05E7 [0x01] GOTO 0x0709
     0x05FA [0x01] GOTO 0x0709
     0x060D [0x01] GOTO 0x0709
     0x0620 [0x01] GOTO 0x0709
     0x0633 [0x01] GOTO 0x0709
     0x0646 [0x01] GOTO 0x0709
     0x0659 [0x01] GOTO 0x0709
     0x066C [0x01] GOTO 0x0709
     0x067F [0x01] GOTO 0x0709
     0x0692 [0x01] GOTO 0x0709
     0x06A5 [0x01] GOTO 0x0709
     0x06B8 [0x01] GOTO 0x0709
     0x06CB [0x01] GOTO 0x0709
     0x06DE [0x01] GOTO 0x0709
     0x06F1 [0x01] GOTO 0x0709
```

### Event 10014

#### Metadata

| Field        | Value     |
|--------------|-----------|
| Entrypoint   | 0x080E    |
| Data Size    | 287 bytes |
| Instructions | 66        |

```
      00 01 02 03 04 05 06 07  08 09 0A 0B 0C 0D 0E 0F
      -- -- -- -- -- -- -- --  -- -- -- -- -- -- -- --
0800:                                            20 01                 .
0810: 42 1E F0 FF FF 7F 1A F5  08 02 06 10 03 80 03 26  B..............&
0820: 08 03 06 10 03 80 03 09  10 06 10 02 09 10 11 80  ................
0830: 05 3A 08 1D 4E 80 23 01  D7 08 02 09 10 13 80 80  .:..N.#.........
0840: 49 08 1D 4F 80 23 01 D7  08 02 09 10 15 80 80 58  I..O.#.........X
0850: 08 1D 50 80 23 01 D7 08  02 09 10 17 80 80 73 08  ..P.#.........s.
0860: 1D 51 80 23 02 05 10 03  80 00 70 08 1D 52 80 23  .Q.#......p..R.#
0870: 01 D7 08 02 09 10 02 80  80 8E 08 1D 53 80 23 02  ............S.#.
0880: 05 10 0C 80 00 8B 08 1D  52 80 23 01 D7 08 02 09  ........R.#.....
0890: 10 00 80 80 A9 08 1D 54  80 23 02 05 10 05 80 00  .......T.#......
08A0: A6 08 1D 52 80 23 01 D7  08 02 09 10 01 80 80 D7  ...R.#..........
08B0: 08 02 07 10 0C 80 00 C5  08 03 04 10 29 80 1D 55  ............)..U
08C0: 80 23 01 D4 08 03 05 10  56 80 1D 57 80 23 1D 58  .#......V..W.#.X
08D0: 80 23 21 00 01 D7 08 1A  07 09 03 08 10 02 80 45  .#!............E
08E0: 59 80 F0 FF FF 7F F0 FF  FF 7F 71 73 74 63 03 80  Y.........qstc..
08F0: 48 5A 80 21 00 6F 70 66  06 80 F8 FF FF 7F F8 FF  HZ.!.opf........
0900: FF 7F 74 6C 6B 30 1B 5E  69 64 6C 30 1B 6F 70 66  ..tlk0.^idl0.opf
0910: 06 80 F8 FF FF 7F F8 FF  FF 7F 70 61 73 30 1B 53  ..........pas0.S
0920: F8 FF FF 7F F8 FF FF 7F  70 61 73 30 1B           ........pas0.   
```

#### Opcodes

```
  0: 0x080E [0x20] SET_CLI_EVENT_UC_FLAG: Lock player control
  1: 0x0810 [0x42] SET_CLI_EVENT_CANCEL_DATA()
  2: 0x0811 [0x1E] EventEntity looks at LocalPlayer and starts talking
  3: 0x0816 [0x1A] CALL_SUBROUTINE(address=0x08F5)
  4: 0x0819 [0x02] IF !(Work_Zone[6] >= 0*) GOTO 0x0826
  5: 0x0821 [0x03] Work_Zone[6] = 0*
  6: 0x0826 [0x03] Work_Zone[9] = Work_Zone[6]
  7: 0x082B [0x02] IF !(Work_Zone[9] > 4*) GOTO 0x083A
  8: 0x0833 [0x1D] PRINT_EVENT_MESSAGE(message_id=7251*)
    → "Hmm... It's quite well done. I shall acknowledge you as [an amateur/a recruit/an initiate/a novice/an apprentice]! Good work! But remember, don't neglect the basics if you want to improve."
  9: 0x0836 [0x23] WAIT_FOR_DIALOG_INTERACTION
 10: 0x0837 [0x01] GOTO 0x08D7
 11: 0x083A [0x02] IF !(Work_Zone[9] == 5*) GOTO 0x0849
 12: 0x0842 [0x1D] PRINT_EVENT_MESSAGE(message_id=7252*)
    → "Oh... Now this is delicious! I shall acknowledge you as a journeyman! Ha, perhaps we should get you to teach at our ladies' society cooking school!?"
 13: 0x0845 [0x23] WAIT_FOR_DIALOG_INTERACTION
 14: 0x0846 [0x01] GOTO 0x08D7
 15: 0x0849 [0x02] IF !(Work_Zone[9] == 6*) GOTO 0x0858
 16: 0x0851 [0x1D] PRINT_EVENT_MESSAGE(message_id=7278*)
    → "...Delicioso! The title of culinary craftsman is as good as yours! You are now a true chef."
 17: 0x0854 [0x23] WAIT_FOR_DIALOG_INTERACTION
 18: 0x0855 [0x01] GOTO 0x08D7
 19: 0x0858 [0x02] IF !(Work_Zone[9] == 7*) GOTO 0x0873
 20: 0x0860 [0x1D] PRINT_EVENT_MESSAGE(message_id=7253*)
    → "......Most incredible! I am delighted to acknowledge you as an artisan! Why, you should open your own restaurant!"
 21: 0x0863 [0x23] WAIT_FOR_DIALOG_INTERACTION
 22: 0x0864 [0x02] IF !(Work_Zone[5] == 0*) GOTO 0x0870
 23: 0x086C [0x1D] PRINT_EVENT_MESSAGE(message_id=7309*)
    → "Ah, yes. And while we cannot prevent you from becoming [an artisan/an adept/a veteran] in another guild, I warn you that too much time spent on non-culinary pursuits may cause irreparable harm to your refined palate."
 24: 0x086F [0x23] WAIT_FOR_DIALOG_INTERACTION
 25: 0x0870 [0x01] GOTO 0x08D7
 26: 0x0873 [0x02] IF !(Work_Zone[9] == 8*) GOTO 0x088E
 27: 0x087B [0x1D] PRINT_EVENT_MESSAGE(message_id=7254*)
    → "... Your hard work and toil have finally paid off! I present you with the title of adept! Let us live the joy of cooking together!"
 28: 0x087E [0x23] WAIT_FOR_DIALOG_INTERACTION
 29: 0x087F [0x02] IF !(Work_Zone[5] == 1*) GOTO 0x088B
 30: 0x0887 [0x1D] PRINT_EVENT_MESSAGE(message_id=7309*)
    → "Ah, yes. And while we cannot prevent you from becoming [an artisan/an adept/a veteran] in another guild, I warn you that too much time spent on non-culinary pursuits may cause irreparable harm to your refined palate."
 31: 0x088A [0x23] WAIT_FOR_DIALOG_INTERACTION
 32: 0x088B [0x01] GOTO 0x08D7
 33: 0x088E [0x02] IF !(Work_Zone[9] == 9*) GOTO 0x08A9
 34: 0x0896 [0x1D] PRINT_EVENT_MESSAGE(message_id=7255*)
    → "There aren't enough words in the Tarutaru language to describe the exquisite flavor of this scrumptious dish! You've got to tell me what you put in this!"
 35: 0x0899 [0x23] WAIT_FOR_DIALOG_INTERACTION
 36: 0x089A [0x02] IF !(Work_Zone[5] == 2*) GOTO 0x08A6
 37: 0x08A2 [0x1D] PRINT_EVENT_MESSAGE(message_id=7309*)
    → "Ah, yes. And while we cannot prevent you from becoming [an artisan/an adept/a veteran] in another guild, I warn you that too much time spent on non-culinary pursuits may cause irreparable harm to your refined palate."
 38: 0x08A5 [0x23] WAIT_FOR_DIALOG_INTERACTION
 39: 0x08A6 [0x01] GOTO 0x08D7
 40: 0x08A9 [0x02] IF !(Work_Zone[9] == 10*) GOTO 0x08D7
 41: 0x08B1 [0x02] IF !(Work_Zone[7] == 1*) GOTO 0x08C5
 42: 0x08B9 [0x03] Work_Zone[4] = 5930*
 43: 0x08BE [0x1D] PRINT_EVENT_MESSAGE(message_id=7302*)
    → "Splendid! Marvelous! Spectacular! Why, it's been years since I've tasted such a mouthwatering dish! I hereby bestow upon you the rank of expert, and give you my explicit permission to look down your nose at all the faux gourmands around you!"
 44: 0x08C1 [0x23] WAIT_FOR_DIALOG_INTERACTION
 45: 0x08C2 [0x01] GOTO 0x08D4
 46: 0x08C5 [0x03] Work_Zone[5] = 5909*
 47: 0x08CA [0x1D] PRINT_EVENT_MESSAGE(message_id=7303*)
    → "An admirable attempt, yet it lacks a certain...something. Ah, your signature! Do you find your dish so lacking in flavor and pizazz that you are unwilling to take credit for it?"
 48: 0x08CD [0x23] WAIT_FOR_DIALOG_INTERACTION
 49: 0x08CE [0x1D] PRINT_EVENT_MESSAGE(message_id=7304*)
    → "No, I'm afraid this won't do at all...but you didn't need me to tell you that. Back to the cutting board for you. Chop chop!"
 50: 0x08D1 [0x23] WAIT_FOR_DIALOG_INTERACTION
 51: 0x08D2 [0x21] END_EVENT
 52: 0x08D3 [0x00] END_REQSTACK()

SUBROUTINE_08D4:
 53: 0x08D4 [0x01] GOTO 0x08D7

SUBROUTINE_08D7:
 54: 0x08D7 [0x1A] CALL_SUBROUTINE(address=0x0907)
 55: 0x08DA [0x03] Work_Zone[8] = 8*
 56: 0x08DF [0x45] LOAD_SCHEDULED_TASK: Load scheduler "qstc" with entities [LocalPlayer, LocalPlayer], work=[201*, 0*]
 57: 0x08F0 [0x48] [System] [7187*]:
    → "You are now recognized as [an amateur/a recruit/an initiate/a novice/an apprentice/a journeyman/a craftsman/an artisan/an adept/a veteran/an expert/an authority/a luminary/a master/a grandmaster/a legend] of the [Fishermen's/Carpenters'/Blacksmiths'/Goldsmiths'/Weavers'/Tanners'/Boneworkers'/Alchemists'/Culinarians'] Guild."
 58: 0x08F3 [0x21] END_EVENT
 59: 0x08F4 [0x00] END_REQSTACK()

SUBROUTINE_08F5:
 60: 0x08F5 [0x6F] WAIT_FRAME_DELAY: Yield until WaitTime reaches zero
 61: 0x08F6 [0x70] WAIT_ENTITY_RENDER_FLAG: Wait while EventEntity->Render.Flags3 bit 2 is set (cancel turn if not)
 62: 0x08F7 [0x66] LOAD_EXT_SCHEDULER_MAIN: Load scheduler "tlk0" with entities [EventEntity, EventEntity], work=40*
 63: 0x0906 [0x1B] RETURN

SUBROUTINE_0907:
 64: 0x0907 [0x5E] EventEntity goes idle (kills current action) (animation: "idl0")
 65: 0x090C [0x1B] RETURN
```

#### Data or dead code:

```
# Dead code (unreachable instructions):
     0x090D [0x6F] WAIT_FRAME_DELAY: Yield until WaitTime reaches zero
     0x090E [0x70] WAIT_ENTITY_RENDER_FLAG: Wait while EventEntity->Render.Flags3 bit 2 is set (cancel turn if not)
     0x090F [0x66] LOAD_EXT_SCHEDULER_MAIN: Load scheduler "pas0" with entities [EventEntity, EventEntity], work=40*
     0x091E [0x1B] RETURN
     0x091F [0x53] WAIT_SCHEDULER_TASK: Wait for scheduler "pas0" with entities [EventEntity, EventEntity]
     0x092C [0x1B] RETURN
```

### Event 1105

#### Metadata

| Field        | Value     |
|--------------|-----------|
| Entrypoint   | 0x092D    |
| Data Size    | 101 bytes |
| Instructions | 22        |

```
      00 01 02 03 04 05 06 07  08 09 0A 0B 0C 0D 0E 0F
      -- -- -- -- -- -- -- --  -- -- -- -- -- -- -- --
0920:                                         03 0E 00               ...
0930: 07 10 03 1A 00 08 10 02  0E 00 0C 80 80 90 09 03  ................
0940: 11 00 02 10 03 13 00 03  10 03 14 00 04 10 03 15  ................
0950: 00 05 10 03 12 00 06 10  42 4A F8 FF FF 7F F0 FF  ........BJ......
0960: FF 7F 6F 70 1D 5B 80 23  1A 61 15 66 0D 80 F8 FF  ..op.[.#.a.f....
0970: FF 7F F8 FF FF 7F 74 6C  6B 30 1D 5C 80 23 66 0D  ......tlk0.\.#f.
0980: 80 F8 FF FF 7F F8 FF FF  7F 74 6C 6B 31 01 90 09  .........tlk1...
0990: 21 00                                             !.              
```

#### Opcodes

```
  0: 0x092D [0x03] ExtData[1]->WorkLocal[14] = Work_Zone[7]
  1: 0x0932 [0x03] ExtData[1]->WorkLocal[26] = Work_Zone[8]
  2: 0x0937 [0x02] IF !(ExtData[1]->WorkLocal[14] == 1*) GOTO 0x0990
  3: 0x093F [0x03] ExtData[1]->WorkLocal[17] = Work_Zone[2]
  4: 0x0944 [0x03] ExtData[1]->WorkLocal[19] = Work_Zone[3]
  5: 0x0949 [0x03] ExtData[1]->WorkLocal[20] = Work_Zone[4]
  6: 0x094E [0x03] ExtData[1]->WorkLocal[21] = Work_Zone[5]
  7: 0x0953 [0x03] ExtData[1]->WorkLocal[18] = Work_Zone[6]
  8: 0x0958 [0x42] SET_CLI_EVENT_CANCEL_DATA()
  9: 0x0959 [0x4A] EventEntity looks at LocalPlayer
 10: 0x0962 [0x6F] WAIT_FRAME_DELAY: Yield until WaitTime reaches zero
 11: 0x0963 [0x70] WAIT_ENTITY_RENDER_FLAG: Wait while EventEntity->Render.Flags3 bit 2 is set (cancel turn if not)
 12: 0x0964 [0x1D] PRINT_EVENT_MESSAGE(message_id=17360*)
    → "Hm? You say you forgotaru the recipe? I know we do things differently, but it's important to remember these kinds of things."
 13: 0x0967 [0x23] WAIT_FOR_DIALOG_INTERACTION
 14: 0x0968 [0x1A] CALL_SUBROUTINE(address=0x1561)
 15: 0x096B [0x66] LOAD_EXT_SCHEDULER_MAIN: Load scheduler "tlk0" with entities [EventEntity, EventEntity], work=49*
 16: 0x097A [0x1D] PRINT_EVENT_MESSAGE(message_id=17361*)
    → "You're my constantaru partner on the path of fine cuisine. If anybody can make this shield, it's you!"
 17: 0x097D [0x23] WAIT_FOR_DIALOG_INTERACTION
 18: 0x097E [0x66] LOAD_EXT_SCHEDULER_MAIN: Load scheduler "tlk1" with entities [EventEntity, EventEntity], work=49*
 19: 0x098D [0x01] GOTO 0x0990

SUBROUTINE_0990:
 20: 0x0990 [0x21] END_EVENT
 21: 0x0991 [0x00] END_REQSTACK()
```

### Event 1112

#### Metadata

| Field        | Value     |
|--------------|-----------|
| Entrypoint   | 0x0992    |
| Data Size    | 104 bytes |
| Instructions | 22        |

```
      00 01 02 03 04 05 06 07  08 09 0A 0B 0C 0D 0E 0F
      -- -- -- -- -- -- -- --  -- -- -- -- -- -- -- --
0990:       03 11 00 02 10 03  13 00 03 10 03 14 00 04    ..............
09A0: 10 03 15 00 05 10 03 16  00 06 10 03 12 00 07 10  ................
09B0: 03 0E 00 08 10 03 1A 00  09 10 42 4A F8 FF FF 7F  ..........BJ....
09C0: F0 FF FF 7F 4A F0 FF FF  7F F8 FF FF 7F 6F 70 1D  ....J........op.
09D0: 5B 80 23 1A B0 15 66 0D  80 F8 FF FF 7F F8 FF FF  [.#...f.........
09E0: 7F 74 6C 6B 30 1D 5C 80  23 66 0D 80 F8 FF FF 7F  .tlk0.\.#f......
09F0: F8 FF FF 7F 74 6C 6B 31  21 00                    ....tlk1!.      
```

#### Opcodes

```
  0: 0x0992 [0x03] ExtData[1]->WorkLocal[17] = Work_Zone[2]
  1: 0x0997 [0x03] ExtData[1]->WorkLocal[19] = Work_Zone[3]
  2: 0x099C [0x03] ExtData[1]->WorkLocal[20] = Work_Zone[4]
  3: 0x09A1 [0x03] ExtData[1]->WorkLocal[21] = Work_Zone[5]
  4: 0x09A6 [0x03] ExtData[1]->WorkLocal[22] = Work_Zone[6]
  5: 0x09AB [0x03] ExtData[1]->WorkLocal[18] = Work_Zone[7]
  6: 0x09B0 [0x03] ExtData[1]->WorkLocal[14] = Work_Zone[8]
  7: 0x09B5 [0x03] ExtData[1]->WorkLocal[26] = Work_Zone[9]
  8: 0x09BA [0x42] SET_CLI_EVENT_CANCEL_DATA()
  9: 0x09BB [0x4A] EventEntity looks at LocalPlayer
 10: 0x09C4 [0x4A] LocalPlayer looks at EventEntity
 11: 0x09CD [0x6F] WAIT_FRAME_DELAY: Yield until WaitTime reaches zero
 12: 0x09CE [0x70] WAIT_ENTITY_RENDER_FLAG: Wait while EventEntity->Render.Flags3 bit 2 is set (cancel turn if not)
 13: 0x09CF [0x1D] PRINT_EVENT_MESSAGE(message_id=17360*)
    → "Hm? You say you forgotaru the recipe? I know we do things differently, but it's important to remember these kinds of things."
 14: 0x09D2 [0x23] WAIT_FOR_DIALOG_INTERACTION
 15: 0x09D3 [0x1A] CALL_SUBROUTINE(address=0x15B0)
 16: 0x09D6 [0x66] LOAD_EXT_SCHEDULER_MAIN: Load scheduler "tlk0" with entities [EventEntity, EventEntity], work=49*
 17: 0x09E5 [0x1D] PRINT_EVENT_MESSAGE(message_id=17361*)
    → "You're my constantaru partner on the path of fine cuisine. If anybody can make this shield, it's you!"
 18: 0x09E8 [0x23] WAIT_FOR_DIALOG_INTERACTION
 19: 0x09E9 [0x66] LOAD_EXT_SCHEDULER_MAIN: Load scheduler "tlk1" with entities [EventEntity, EventEntity], work=49*
 20: 0x09F8 [0x21] END_EVENT
 21: 0x09F9 [0x00] END_REQSTACK()
```

### Event 1106

#### Metadata

| Field        | Value     |
|--------------|-----------|
| Entrypoint   | 0x09FA    |
| Data Size    | 124 bytes |
| Instructions | 33        |

```
      00 01 02 03 04 05 06 07  08 09 0A 0B 0C 0D 0E 0F
      -- -- -- -- -- -- -- --  -- -- -- -- -- -- -- --
09F0:                                03 0E 00 02 10 02            ......
0A00: 0E 00 0C 80 80 26 0A 4A  F8 FF FF 7F F0 FF FF 7F  .....&.J........
0A10: 4A F0 FF FF 7F F8 FF FF  7F 6F 70 1D 5D 80 23 1D  J........op.].#.
0A20: 5E 80 23 01 74 0A 02 0E  00 05 80 80 4D 0A 4A F8  ^.#.t.......M.J.
0A30: FF FF 7F F0 FF FF 7F 4A  F0 FF FF 7F F8 FF FF 7F  .......J........
0A40: 6F 70 1D 5D 80 23 1D 5E  80 23 01 74 0A 02 0E 00  op.].#.^.#.t....
0A50: 0F 80 80 74 0A 4A F8 FF  FF 7F F0 FF FF 7F 4A F0  ...t.J........J.
0A60: FF FF 7F F8 FF FF 7F 6F  70 1D 5D 80 23 1D 5E 80  .......op.].#.^.
0A70: 23 01 74 0A 21 00                                 #.t.!.          
```

#### Opcodes

```
  0: 0x09FA [0x03] ExtData[1]->WorkLocal[14] = Work_Zone[2]
  1: 0x09FF [0x02] IF !(ExtData[1]->WorkLocal[14] == 1*) GOTO 0x0A26
  2: 0x0A07 [0x4A] EventEntity looks at LocalPlayer
  3: 0x0A10 [0x4A] LocalPlayer looks at EventEntity
  4: 0x0A19 [0x6F] WAIT_FRAME_DELAY: Yield until WaitTime reaches zero
  5: 0x0A1A [0x70] WAIT_ENTITY_RENDER_FLAG: Wait while EventEntity->Render.Flags3 bit 2 is set (cancel turn if not)
  6: 0x0A1B [0x1D] PRINT_EVENT_MESSAGE(message_id=17376*)
    → "Take this to Mewk Chorosap in Jeuno in order to complete the requestaru."
  7: 0x0A1E [0x23] WAIT_FOR_DIALOG_INTERACTION
  8: 0x0A1F [0x1D] PRINT_EVENT_MESSAGE(message_id=17377*)
    → "Oh, and I often have deliveries for Isanie. I could really use your expertaru skills in bringing along the newer guild members."
  9: 0x0A22 [0x23] WAIT_FOR_DIALOG_INTERACTION
 10: 0x0A23 [0x01] GOTO 0x0A74
 11: 0x0A26 [0x02] IF !(ExtData[1]->WorkLocal[14] == 2*) GOTO 0x0A4D
 12: 0x0A2E [0x4A] EventEntity looks at LocalPlayer
 13: 0x0A37 [0x4A] LocalPlayer looks at EventEntity
 14: 0x0A40 [0x6F] WAIT_FRAME_DELAY: Yield until WaitTime reaches zero
 15: 0x0A41 [0x70] WAIT_ENTITY_RENDER_FLAG: Wait while EventEntity->Render.Flags3 bit 2 is set (cancel turn if not)
 16: 0x0A42 [0x1D] PRINT_EVENT_MESSAGE(message_id=17376*)
    → "Take this to Mewk Chorosap in Jeuno in order to complete the requestaru."
 17: 0x0A45 [0x23] WAIT_FOR_DIALOG_INTERACTION
 18: 0x0A46 [0x1D] PRINT_EVENT_MESSAGE(message_id=17377*)
    → "Oh, and I often have deliveries for Isanie. I could really use your expertaru skills in bringing along the newer guild members."
 19: 0x0A49 [0x23] WAIT_FOR_DIALOG_INTERACTION
 20: 0x0A4A [0x01] GOTO 0x0A74
 21: 0x0A4D [0x02] IF !(ExtData[1]->WorkLocal[14] == 3*) GOTO 0x0A74
 22: 0x0A55 [0x4A] EventEntity looks at LocalPlayer
 23: 0x0A5E [0x4A] LocalPlayer looks at EventEntity
 24: 0x0A67 [0x6F] WAIT_FRAME_DELAY: Yield until WaitTime reaches zero
 25: 0x0A68 [0x70] WAIT_ENTITY_RENDER_FLAG: Wait while EventEntity->Render.Flags3 bit 2 is set (cancel turn if not)
 26: 0x0A69 [0x1D] PRINT_EVENT_MESSAGE(message_id=17376*)
    → "Take this to Mewk Chorosap in Jeuno in order to complete the requestaru."
 27: 0x0A6C [0x23] WAIT_FOR_DIALOG_INTERACTION
 28: 0x0A6D [0x1D] PRINT_EVENT_MESSAGE(message_id=17377*)
    → "Oh, and I often have deliveries for Isanie. I could really use your expertaru skills in bringing along the newer guild members."
 29: 0x0A70 [0x23] WAIT_FOR_DIALOG_INTERACTION
 30: 0x0A71 [0x01] GOTO 0x0A74

SUBROUTINE_0A74:
 31: 0x0A74 [0x21] END_EVENT
 32: 0x0A75 [0x00] END_REQSTACK()
```

### Event 1107

#### Metadata

| Field        | Value     |
|--------------|-----------|
| Entrypoint   | 0x0A76    |
| Data Size    | 241 bytes |
| Instructions | 62        |

```
      00 01 02 03 04 05 06 07  08 09 0A 0B 0C 0D 0E 0F
      -- -- -- -- -- -- -- --  -- -- -- -- -- -- -- --
0A70:                   03 11  00 02 10 03 13 00 03 10        ..........
0A80: 03 14 00 04 10 03 15 00  05 10 03 12 00 06 10 03  ................
0A90: 0E 00 07 10 03 1A 00 08  10 02 0E 00 0C 80 80 65  ...............e
0AA0: 0B 42 4A F8 FF FF 7F F0  FF FF 7F 6F 70 1D 5F 80  .BJ........op._.
0AB0: 23 6E F8 FF FF 7F 17 80  99 F8 FF FF 7F 1D 60 80  #n............`.
0AC0: 23 66 0D 80 F8 FF FF 7F  F8 FF FF 7F 74 6C 6B 30  #f..........tlk0
0AD0: 1D 61 80 23 1D 62 80 23  1D 63 80 23 1D 64 80 23  .a.#.b.#.c.#.d.#
0AE0: 66 0D 80 F8 FF FF 7F F8  FF FF 7F 74 6C 6B 31 1A  f..........tlk1.
0AF0: 61 15 66 0D 80 F8 FF FF  7F F8 FF FF 7F 74 6C 6B  a.f..........tlk
0B00: 30 1D 65 80 23 1D 66 80  23 1D 67 80 23 66 0D 80  0.e.#.f.#.g.#f..
0B10: F8 FF FF 7F F8 FF FF 7F  74 6C 6B 31 48 68 80 23  ........tlk1Hh.#
0B20: 48 69 80 23 48 6A 80 23  48 6B 80 23 66 0D 80 F8  Hi.#Hj.#Hk.#f...
0B30: FF FF 7F F8 FF FF 7F 74  6C 6B 30 1D 6C 80 23 1D  .......tlk0.l.#.
0B40: 6D 80 23 1D 6E 80 23 1D  6F 80 23 1D 70 80 23 1D  m.#.n.#.o.#.p.#.
0B50: 71 80 23 66 0D 80 F8 FF  FF 7F F8 FF FF 7F 74 6C  q.#f..........tl
0B60: 6B 31 01 65 0B 21 00                              k1.e.!.         
```

#### Opcodes

```
  0: 0x0A76 [0x03] ExtData[1]->WorkLocal[17] = Work_Zone[2]
  1: 0x0A7B [0x03] ExtData[1]->WorkLocal[19] = Work_Zone[3]
  2: 0x0A80 [0x03] ExtData[1]->WorkLocal[20] = Work_Zone[4]
  3: 0x0A85 [0x03] ExtData[1]->WorkLocal[21] = Work_Zone[5]
  4: 0x0A8A [0x03] ExtData[1]->WorkLocal[18] = Work_Zone[6]
  5: 0x0A8F [0x03] ExtData[1]->WorkLocal[14] = Work_Zone[7]
  6: 0x0A94 [0x03] ExtData[1]->WorkLocal[26] = Work_Zone[8]
  7: 0x0A99 [0x02] IF !(ExtData[1]->WorkLocal[14] == 1*) GOTO 0x0B65
  8: 0x0AA1 [0x42] SET_CLI_EVENT_CANCEL_DATA()
  9: 0x0AA2 [0x4A] EventEntity looks at LocalPlayer
 10: 0x0AAB [0x6F] WAIT_FRAME_DELAY: Yield until WaitTime reaches zero
 11: 0x0AAC [0x70] WAIT_ENTITY_RENDER_FLAG: Wait while EventEntity->Render.Flags3 bit 2 is set (cancel turn if not)
 12: 0x0AAD [0x1D] PRINT_EVENT_MESSAGE(message_id=17341*)
    → "Oh, hello. Hm? Whataru is that shield you're holding?"
 13: 0x0AB0 [0x23] WAIT_FOR_DIALOG_INTERACTION
 14: 0x0AB1 [0x6E] EventEntity uses emote 7*
 15: 0x0AB8 [0x99] Wait for EventEntity animation to complete
 16: 0x0ABD [0x1D] PRINT_EVENT_MESSAGE(message_id=17342*)
    → "Ahh, I see... You must've spoken with her."
 17: 0x0AC0 [0x23] WAIT_FOR_DIALOG_INTERACTION
 18: 0x0AC1 [0x66] LOAD_EXT_SCHEDULER_MAIN: Load scheduler "tlk0" with entities [EventEntity, EventEntity], work=49*
 19: 0x0AD0 [0x1D] PRINT_EVENT_MESSAGE(message_id=17343*)
    → "Yes, I've heard the stories... That it's possible-wossible to equip a shield that boosts your crafting skill."
 20: 0x0AD3 [0x23] WAIT_FOR_DIALOG_INTERACTION
 21: 0x0AD4 [0x1D] PRINT_EVENT_MESSAGE(message_id=17344*)
    → "If anybody has the ability to create such a thing, it's you. I'm sure she chose you for a reason-weason."
 22: 0x0AD7 [0x23] WAIT_FOR_DIALOG_INTERACTION
 23: 0x0AD8 [0x1D] PRINT_EVENT_MESSAGE(message_id=17345*)
    → "I don't understand how a shield helps one's cooking, but if she's right, that'd be quite the talentaru to have."
 24: 0x0ADB [0x23] WAIT_FOR_DIALOG_INTERACTION
 25: 0x0ADC [0x1D] PRINT_EVENT_MESSAGE(message_id=17346*)
    → "First, let's go over the recipe. Try not to forgetaru it!"
 26: 0x0ADF [0x23] WAIT_FOR_DIALOG_INTERACTION
 27: 0x0AE0 [0x66] LOAD_EXT_SCHEDULER_MAIN: Load scheduler "tlk1" with entities [EventEntity, EventEntity], work=49*
 28: 0x0AEF [0x1A] CALL_SUBROUTINE(address=0x1561)
 29: 0x0AF2 [0x66] LOAD_EXT_SCHEDULER_MAIN: Load scheduler "tlk0" with entities [EventEntity, EventEntity], work=49*
 30: 0x0B01 [0x1D] PRINT_EVENT_MESSAGE(message_id=17347*)
    → "So, the first ingredientaru you'll need is $1..."
 31: 0x0B04 [0x23] WAIT_FOR_DIALOG_INTERACTION
 32: 0x0B05 [0x1D] PRINT_EVENT_MESSAGE(message_id=17348*)
    → "Its purpose is to boostaru the Craftsmanship of the $0 to its maximum value."
 33: 0x0B08 [0x23] WAIT_FOR_DIALOG_INTERACTION
 34: 0x0B09 [0x1D] PRINT_EVENT_MESSAGE(message_id=17349*)
    → "I've actually got a memo-wemo on Craftsmanship here to read to you."
 35: 0x0B0C [0x23] WAIT_FOR_DIALOG_INTERACTION
 36: 0x0B0D [0x66] LOAD_EXT_SCHEDULER_MAIN: Load scheduler "tlk1" with entities [EventEntity, EventEntity], work=49*
 37: 0x0B1C [0x48] [System] [17350*]:
    → "You can increase Craftsmanship by crafting items that match up with your skill while you have the $0 equipped."
 38: 0x0B1F [0x23] WAIT_FOR_DIALOG_INTERACTION
 39: 0x0B20 [0x48] [System] [17351*]:
    → "Craftsmanship will increase greatly when you fulfill certain conditions, but crafting the same item over and over again will reduce your gains, so try synthesizing something different if you have trouble."
 40: 0x0B23 [0x23] WAIT_FOR_DIALOG_INTERACTION
 41: 0x0B24 [0x48] [System] [17352*]:
    → "In its default state, the shield has the unfortunate tendency to lower the success rate of your crafting, but as its Craftsmanship rises, it mitigates that effect."
 42: 0x0B27 [0x23] WAIT_FOR_DIALOG_INTERACTION
 43: 0x0B28 [0x48] [System] [17353*]:
    → "You can tell the Craftsmanship rating as well as the crafting success rate by looking at the shield. Good luck to you. Mwahaha..."
 44: 0x0B2B [0x23] WAIT_FOR_DIALOG_INTERACTION
 45: 0x0B2C [0x66] LOAD_EXT_SCHEDULER_MAIN: Load scheduler "tlk0" with entities [EventEntity, EventEntity], work=49*
 46: 0x0B3B [0x1D] PRINT_EVENT_MESSAGE(message_id=17354*)
    → "That's all it says."
 47: 0x0B3E [0x23] WAIT_FOR_DIALOG_INTERACTION
 48: 0x0B3F [0x1D] PRINT_EVENT_MESSAGE(message_id=17355*)
    → "Come show me once you've raised the Craftsmanship to the necessary level-wevel. I'll make you the $1 you need."
 49: 0x0B42 [0x23] WAIT_FOR_DIALOG_INTERACTION
 50: 0x0B43 [0x1D] PRINT_EVENT_MESSAGE(message_id=17356*)
    → "After that, you'll need $2 and $3. You can get them from Isanie."
 51: 0x0B46 [0x23] WAIT_FOR_DIALOG_INTERACTION
 52: 0x0B47 [0x1D] PRINT_EVENT_MESSAGE(message_id=17357*)
    → "You have experience making deliveries, correctaru? This is basically the same thing."
 53: 0x0B4A [0x23] WAIT_FOR_DIALOG_INTERACTION
 54: 0x0B4B [0x1D] PRINT_EVENT_MESSAGE(message_id=17358*)
    → "If you need to know more, justaru go talk to Isanie."
 55: 0x0B4E [0x23] WAIT_FOR_DIALOG_INTERACTION
 56: 0x0B4F [0x1D] PRINT_EVENT_MESSAGE(message_id=17359*)
    → "That's it for the ingredients! Come show me the shield when you're done. It has really piqued my interestaru. Do you think we can use it as a frying pan?"
 57: 0x0B52 [0x23] WAIT_FOR_DIALOG_INTERACTION
 58: 0x0B53 [0x66] LOAD_EXT_SCHEDULER_MAIN: Load scheduler "tlk1" with entities [EventEntity, EventEntity], work=49*
 59: 0x0B62 [0x01] GOTO 0x0B65

SUBROUTINE_0B65:
 60: 0x0B65 [0x21] END_EVENT
 61: 0x0B66 [0x00] END_REQSTACK()
```

### Event 1114

#### Metadata

| Field        | Value     |
|--------------|-----------|
| Entrypoint   | 0x0B67    |
| Data Size    | 225 bytes |
| Instructions | 49        |

```
      00 01 02 03 04 05 06 07  08 09 0A 0B 0C 0D 0E 0F
      -- -- -- -- -- -- -- --  -- -- -- -- -- -- -- --
0B60:                      03  11 00 02 10 03 13 00 03         .........
0B70: 10 03 14 00 04 10 03 15  00 05 10 03 16 00 06 10  ................
0B80: 03 12 00 07 10 03 0E 00  08 10 03 1A 00 09 10 42  ...............B
0B90: 4A F8 FF FF 7F F0 FF FF  7F 4A F0 FF FF 7F F8 FF  J........J......
0BA0: FF 7F 6F 70 1D 72 80 23  66 0D 80 F8 FF FF 7F F8  ..op.r.#f.......
0BB0: FF FF 7F 74 6C 6B 30 1D  73 80 23 66 0D 80 F8 FF  ...tlk0.s.#f....
0BC0: FF 7F F8 FF FF 7F 74 6C  6B 31 1A B0 15 03 02 10  ......tlk1......
0BD0: 11 00 03 03 10 13 00 03  04 10 14 00 03 05 10 15  ................
0BE0: 00 03 06 10 16 00 66 0D  80 F8 FF FF 7F F8 FF FF  ......f.........
0BF0: 7F 74 6C 6B 30 1D 74 80  23 66 0D 80 F8 FF FF 7F  .tlk0.t.#f......
0C00: F8 FF FF 7F 74 6C 6B 31  1D 75 80 23 66 0D 80 F8  ....tlk1.u.#f...
0C10: FF FF 7F F8 FF FF 7F 74  6C 6B 30 1D 76 80 23 1D  .......tlk0.v.#.
0C20: 77 80 23 1D 78 80 23 1D  79 80 23 1D 7A 80 23 1D  w.#.x.#.y.#.z.#.
0C30: 7B 80 23 1D 7C 80 23 66  0D 80 F8 FF FF 7F F8 FF  {.#.|.#f........
0C40: FF 7F 74 6C 6B 31 21 00                           ..tlk1!.        
```

#### Opcodes

```
  0: 0x0B67 [0x03] ExtData[1]->WorkLocal[17] = Work_Zone[2]
  1: 0x0B6C [0x03] ExtData[1]->WorkLocal[19] = Work_Zone[3]
  2: 0x0B71 [0x03] ExtData[1]->WorkLocal[20] = Work_Zone[4]
  3: 0x0B76 [0x03] ExtData[1]->WorkLocal[21] = Work_Zone[5]
  4: 0x0B7B [0x03] ExtData[1]->WorkLocal[22] = Work_Zone[6]
  5: 0x0B80 [0x03] ExtData[1]->WorkLocal[18] = Work_Zone[7]
  6: 0x0B85 [0x03] ExtData[1]->WorkLocal[14] = Work_Zone[8]
  7: 0x0B8A [0x03] ExtData[1]->WorkLocal[26] = Work_Zone[9]
  8: 0x0B8F [0x42] SET_CLI_EVENT_CANCEL_DATA()
  9: 0x0B90 [0x4A] EventEntity looks at LocalPlayer
 10: 0x0B99 [0x4A] LocalPlayer looks at EventEntity
 11: 0x0BA2 [0x6F] WAIT_FRAME_DELAY: Yield until WaitTime reaches zero
 12: 0x0BA3 [0x70] WAIT_ENTITY_RENDER_FLAG: Wait while EventEntity->Render.Flags3 bit 2 is set (cancel turn if not)
 13: 0x0BA4 [0x1D] PRINT_EVENT_MESSAGE(message_id=17378*)
    → "Hello there. I suppose you're here to upgrade your shield, yes? I've already heard all aboutaru it."
 14: 0x0BA7 [0x23] WAIT_FOR_DIALOG_INTERACTION
 15: 0x0BA8 [0x66] LOAD_EXT_SCHEDULER_MAIN: Load scheduler "tlk0" with entities [EventEntity, EventEntity], work=49*
 16: 0x0BB7 [0x1D] PRINT_EVENT_MESSAGE(message_id=17379*)
    → "The first thing is to teach you the recipe. Try not to forgetaru it, okay?"
 17: 0x0BBA [0x23] WAIT_FOR_DIALOG_INTERACTION
 18: 0x0BBB [0x66] LOAD_EXT_SCHEDULER_MAIN: Load scheduler "tlk1" with entities [EventEntity, EventEntity], work=49*
 19: 0x0BCA [0x1A] CALL_SUBROUTINE(address=0x15B0)
 20: 0x0BCD [0x03] Work_Zone[2] = ExtData[1]->WorkLocal[17]
 21: 0x0BD2 [0x03] Work_Zone[3] = ExtData[1]->WorkLocal[19]
 22: 0x0BD7 [0x03] Work_Zone[4] = ExtData[1]->WorkLocal[20]
 23: 0x0BDC [0x03] Work_Zone[5] = ExtData[1]->WorkLocal[21]
 24: 0x0BE1 [0x03] Work_Zone[6] = ExtData[1]->WorkLocal[22]
 25: 0x0BE6 [0x66] LOAD_EXT_SCHEDULER_MAIN: Load scheduler "tlk0" with entities [EventEntity, EventEntity], work=49*
 26: 0x0BF5 [0x1D] PRINT_EVENT_MESSAGE(message_id=17380*)
    → "This is much differentaru than the recipes I'm used to."
 27: 0x0BF8 [0x23] WAIT_FOR_DIALOG_INTERACTION
 28: 0x0BF9 [0x66] LOAD_EXT_SCHEDULER_MAIN: Load scheduler "tlk1" with entities [EventEntity, EventEntity], work=49*
 29: 0x0C08 [0x1D] PRINT_EVENT_MESSAGE(message_id=17381*)
    → "At any rate, I need to tell you how to obtain the listaru of ingredients. The first one is the $1."
 30: 0x0C0B [0x23] WAIT_FOR_DIALOG_INTERACTION
 31: 0x0C0C [0x66] LOAD_EXT_SCHEDULER_MAIN: Load scheduler "tlk0" with entities [EventEntity, EventEntity], work=49*
 32: 0x0C1B [0x1D] PRINT_EVENT_MESSAGE(message_id=17382*)
    → "Last time, you used the aspis to increase the Craftsmanship. Basically, you need to do the same thing again to craftaru items while the $0 is equipped."
 33: 0x0C1E [0x23] WAIT_FOR_DIALOG_INTERACTION
 34: 0x0C1F [0x1D] PRINT_EVENT_MESSAGE(message_id=17383*)
    → "It seems that it will take longer to boostaru the Craftsmanship this time around. As such, you'll need to have patience."
 35: 0x0C22 [0x23] WAIT_FOR_DIALOG_INTERACTION
 36: 0x0C23 [0x1D] PRINT_EVENT_MESSAGE(message_id=17384*)
    → "Bring me the shield once it reaches 100% and I'll use my expertaru skills to create the $1 for you."
 37: 0x0C26 [0x23] WAIT_FOR_DIALOG_INTERACTION
 38: 0x0C27 [0x1D] PRINT_EVENT_MESSAGE(message_id=17385*)
    → "The next ingredientaru you'll require is the $2. I've given it and the $3 that you used last time to Isanie."
 39: 0x0C2A [0x23] WAIT_FOR_DIALOG_INTERACTION
 40: 0x0C2B [0x1D] PRINT_EVENT_MESSAGE(message_id=17386*)
    → "The lastaru ingredient you'll need is the $4. I've teamed up with the A.M.A.N. to create some Records of Eminence objectives for you."
 41: 0x0C2E [0x23] WAIT_FOR_DIALOG_INTERACTION
 42: 0x0C2F [0x1D] PRINT_EVENT_MESSAGE(message_id=17387*)
    → "Check the Records of Eminence menu to find out the extentaru of the objectives. Once you've completed them all, you'll receive the $4."
 43: 0x0C32 [0x23] WAIT_FOR_DIALOG_INTERACTION
 44: 0x0C33 [0x1D] PRINT_EVENT_MESSAGE(message_id=17388*)
    → "That's it for the ingredients! Think you can handle it? I'm confidentaru that you have what it takes to succeed."
