# 17752553

## Common Data

| Field            | Value                     |
|------------------|---------------------------|
| Zone             | Windurst Waters (ID: 238) |
| Block Size       | 7476 bytes                |
| Total Events     | 9                         |
| References Count | 141                       |

## List of Events

| Event ID              | Entrypoint   |   Size |   Instructions |
|-----------------------|--------------|--------|----------------|
| [65535](#event-65535) | 0x0000       |      1 |              1 |
| [1069](#event-1069)   | 0x0001       |   3562 |            451 |
| [1070](#event-1070)   | 0x0DEB       |   2695 |            400 |
| [1071](#event-1071)   | 0x1872       |     38 |              9 |
| [1072](#event-1072)   | 0x1898       |    151 |             35 |
| [1073](#event-1073)   | 0x192F       |     38 |              9 |
| [1074](#event-1074)   | 0x1955       |    151 |             35 |
| [1075](#event-1075)   | 0x19EC       |     38 |              9 |
| [1076](#event-1076)   | 0x1A12       |    183 |             44 |

## DAT References (imed_data)

|   Index | Hex Value   |   Dec Value |
|---------|-------------|-------------|
|       0 | 0x00C8      |         200 |
|       1 | 0x0000      |           0 |
|       2 | 0x0013      |          19 |
|       3 | 0xFFFF040C  |  4294902796 |
|       4 | 0xB98C      |       47500 |
|       5 | 0xFFFFF254  |  4294963796 |
|       6 | 0x01FF      |         511 |
|       7 | 0x0081      |         129 |
|       8 | 0xFFFF2220  |  4294910496 |
|       9 | 0xA53C      |       42300 |
|      10 | 0x027F      |         639 |
|      11 | 0x00D2      |         210 |
|      12 | 0x0005      |           5 |
|      13 | 0x000A      |          10 |
|      14 | 0x000F      |          15 |
|      15 | 0x001E      |          30 |
|      16 | 0x0006      |           6 |
|      17 | 0x0014      |          20 |
|      18 | 0x41AE      |       16814 |
|      19 | 0x0060      |          96 |
|      20 | 0xFFFF2C16  |  4294913046 |
|      21 | 0xACF8      |       44280 |
|      22 | 0xFFFFF143  |  4294963523 |
|      23 | 0x00FA      |         250 |
|      24 | 0x03B6      |         950 |
|      25 | 0x047E      |        1150 |
|      26 | 0x0226      |         550 |
|      27 | 0x41AF      |       16815 |
|      28 | 0x0003      |           3 |
|      29 | 0x003C      |          60 |
|      30 | 0xFFFFF191  |  4294963601 |
|      31 | 0x012C      |         300 |
|      32 | 0x0384      |         900 |
|      33 | 0x04B0      |        1200 |
|      34 | 0x01F4      |         500 |
|      35 | 0x41B0      |       16816 |
|      36 | 0x002D      |          45 |
|      37 | 0x0007      |           7 |
|      38 | 0x41B1      |       16817 |
|      39 | 0x41B2      |       16818 |
|      40 | 0x41B3      |       16819 |
|      41 | 0x41B4      |       16820 |
|      42 | 0x41B5      |       16821 |
|      43 | 0x41B6      |       16822 |
|      44 | 0x41B7      |       16823 |
|      45 | 0x41B8      |       16824 |
|      46 | 0x41B9      |       16825 |
|      47 | 0x41BA      |       16826 |
|      48 | 0x41BB      |       16827 |
|      49 | 0x41BC      |       16828 |
|      50 | 0x41BD      |       16829 |
|      51 | 0x41BE      |       16830 |
|      52 | 0x41BF      |       16831 |
|      53 | 0x41C0      |       16832 |
|      54 | 0x41C1      |       16833 |
|      55 | 0x41C2      |       16834 |
|      56 | 0x41C3      |       16835 |
|      57 | 0x41C4      |       16836 |
|      58 | 0x41C5      |       16837 |
|      59 | 0x41C6      |       16838 |
|      60 | 0x41C7      |       16839 |
|      61 | 0xFFFFFD01  |  4294966529 |
|      62 | 0x41C8      |       16840 |
|      63 | 0x0088      |         136 |
|      64 | 0x41C9      |       16841 |
|      65 | 0x41CA      |       16842 |
|      66 | 0x41CB      |       16843 |
|      67 | 0x41CC      |       16844 |
|      68 | 0x0078      |         120 |
|      69 | 0x41CD      |       16845 |
|      70 | 0x41CE      |       16846 |
|      71 | 0x41CF      |       16847 |
|      72 | 0x41D0      |       16848 |
|      73 | 0x41D1      |       16849 |
|      74 | 0x41D2      |       16850 |
|      75 | 0x41D3      |       16851 |
|      76 | 0xFFFF21BC  |  4294910396 |
|      77 | 0xB220      |       45600 |
|      78 | 0xFFFFF15A  |  4294963546 |
|      79 | 0x0016      |          22 |
|      80 | 0x41D4      |       16852 |
|      81 | 0x41D5      |       16853 |
|      82 | 0x41D6      |       16854 |
|      83 | 0x41D7      |       16855 |
|      84 | 0x41D8      |       16856 |
|      85 | 0x41D9      |       16857 |
|      86 | 0x41DA      |       16858 |
|      87 | 0x41DB      |       16859 |
|      88 | 0x007A      |         122 |
|      89 | 0x010E      |         270 |
|      90 | 0x0001      |           1 |
|      91 | 0x41DC      |       16860 |
|      92 | 0x0097      |         151 |
|      93 | 0x0009      |           9 |
|      94 | 0x001D      |          29 |
|      95 | 0x41E9      |       16873 |
|      96 | 0x41E0      |       16864 |
|      97 | 0x41E1      |       16865 |
|      98 | 0x41E2      |       16866 |
|      99 | 0x41DD      |       16861 |
|     100 | 0x41DE      |       16862 |
|     101 | 0x0002      |           2 |
|     102 | 0x41DF      |       16863 |
|     103 | 0x0004      |           4 |
|     104 | 0x41E3      |       16867 |
|     105 | 0x41E5      |       16869 |
|     106 | 0x41E6      |       16870 |
|     107 | 0x41E8      |       16872 |
|     108 | 0x01E0      |         480 |
|     109 | 0x00B4      |         180 |
|     110 | 0x41E7      |       16871 |
|     111 | 0x41E4      |       16868 |
|     112 | 0x0008      |           8 |
|     113 | 0x003F      |          63 |
|     114 | 0x41EA      |       16874 |
|     115 | 0x41ED      |       16877 |
|     116 | 0x41EB      |       16875 |
|     117 | 0x41EC      |       16876 |
|     118 | 0xFFFFFFFF  |  4294967295 |
|     119 | 0x41F0      |       16880 |
|     120 | 0x41F1      |       16881 |
|     121 | 0x41EE      |       16878 |
|     122 | 0x03FC      |        1020 |
|     123 | 0x03F3      |        1011 |
|     124 | 0x03CF      |         975 |
|     125 | 0x41EF      |       16879 |
|     126 | 0x41F3      |       16883 |
|     127 | 0x41F2      |       16882 |
|     128 | 0x41F6      |       16886 |
|     129 | 0x41F4      |       16884 |
|     130 | 0x41F5      |       16885 |
|     131 | 0x6CE0      |       27872 |
|     132 | 0x6CE1      |       27873 |
|     133 | 0x5279      |       21113 |
|     134 | 0x527A      |       21114 |
|     135 | 0x6CFE      |       27902 |
|     136 | 0x527E      |       21118 |
|     137 | 0x1831      |        6193 |
|     138 | 0x1830      |        6192 |
|     139 | 0x182F      |        6191 |
|     140 | 0x182E      |        6190 |

## String References

- **16858**: Be teleported outside of town? [You bet!/I don't think so.]
- **16862**: What will you do? [Spin the wheel! ($0 chartruese shard[/s])/Spin the wheel! ($1 vermilion shard[/s])/Spin the wheel! ($2 mauve shard[/s])/Check the item list./Warp outside town./Nothing.]
- **16867**: You are on a hot streak!
- **16868**: Your hot streak has burned out.
- **16874**: [What would you like/View which item]? [$1./$2./$3./$4./$5./$6./$7./$8./$9./$10./[I'll decide later/I'm done].]
- **16876**: Really select that item? [Undoubtedly./Let me think on it.]
- **16878**: View which category? [First prize./Second prize./Third prize./Booby prize./None for now.]

## Events

### Event 65535

#### Metadata

| Field        | Value   |
|--------------|---------|
| Entrypoint   | 0x0000  |
| Data Size    | 1 bytes |
| Instructions | 1       |

```
      00 01 02 03 04 05 06 07  08 09 0A 0B 0C 0D 0E 0F
      -- -- -- -- -- -- -- --  -- -- -- -- -- -- -- --
0000: 00                                                .               
```

#### Opcodes

```
  0: 0x0000 [0x00] END_REQSTACK()
```

### Event 1069

#### Metadata

| Field        | Value      |
|--------------|------------|
| Entrypoint   | 0x0001     |
| Data Size    | 3562 bytes |
| Instructions | 451        |

```
      00 01 02 03 04 05 06 07  08 09 0A 0B 0C 0D 0E 0F
      -- -- -- -- -- -- -- --  -- -- -- -- -- -- -- --
0000:    03 00 00 02 10 42 45  00 80 F0 FF FF 7F F0 FF   .....BE........
0010: FF 7F 66 64 6F 31 01 80  55 00 80 F0 FF FF 7F F0  ..fdo1..U.......
0020: FF FF 7F 66 64 6F 31 46  01 38 02 80 2F 00 EE E1  ...fdo1F.8../...
0030: 0E 01 2F 00 EF E1 0E 01  4E 00 EE E1 0E 01 4E 00  ../.....N.....N.
0040: EF E1 0E 01 92 01 EA E1  0E 01 92 01 EB E1 0E 01  ................
0050: 92 01 EC E1 0E 01 92 01  ED E1 0E 01 94 01 EA E1  ................
0060: 0E 01 94 01 EB E1 0E 01  94 01 EC E1 0E 01 94 01  ................
0070: ED E1 0E 01 94 01 F0 FF  FF 7F 4A F0 FF FF 7F F0  ..........J.....
0080: FF FF 7F BA F0 FF FF 7F  03 80 04 80 05 80 06 80  ................
0090: 4A EA E1 0E 01 EB E1 0E  01 4A EB E1 0E 01 EA E1  J........J......
00A0: 0E 01 4A EC E1 0E 01 EA  E1 0E 01 4A ED E1 0E 01  ..J........J....
00B0: EA E1 0E 01 6F 76 EA E1  0E 01 6F 76 EB E1 0E 01  ....ov....ov....
00C0: 6F 76 EC E1 0E 01 6F 76  ED E1 0E 01 80 EA E1 0E  ov....ov........
00D0: 01 80 EB E1 0E 01 80 EC  E1 0E 01 80 ED E1 0E 01  ................
00E0: 80 F0 FF FF 7F 92 01 85  E0 0E 01 92 01 94 E0 0E  ................
00F0: 01 92 01 66 E0 0E 01 92  01 67 E0 0E 01 92 01 08  ...f.....g......
0100: E1 0E 01 5C 00 07 80 5C  01 07 80 9A 03 0B 17 08  ...\...\........
0110: 80 03 0C 17 09 80 03 0D  17 05 80 27 10 F0 FF FF  ...........'....
0120: 7F 79 2C EA E1 0E 01 EA  E1 0E 01 65 78 70 30 45  .y,........exp0E
0130: 0A 80 F8 FF FF 7F F8 FF  FF 7F 73 37 33 36 01 80  ..........s736..
0140: 45 00 80 F0 FF FF 7F F0  FF FF 7F 66 64 69 31 01  E..........fdi1.
0150: 80 1C 0B 80 2C EA E1 0E  01 EA E1 0E 01 65 78 70  ....,........exp
0160: 31 53 EA E1 0E 01 EA E1  0E 01 65 78 70 31 4A EB  1S........exp1J.
0170: E1 0E 01 F0 FF FF 7F 1C  0C 80 4A EC E1 0E 01 F0  ..........J.....
0180: FF FF 7F 1C 0D 80 4A ED  E1 0E 01 F0 FF FF 7F 1C  ......J.........
0190: 0E 80 4A EA E1 0E 01 F0  FF FF 7F 6F 76 EA E1 0E  ..J........ov...
01A0: 01 1C 0F 80 52 0A 80 F8  FF FF 7F F8 FF FF 7F 73  ....R..........s
01B0: 37 33 36 02 87 7F 0C 80  80 CF 01 45 0A 80 F8 FF  736........E....
01C0: FF 7F F8 FF FF 7F 73 37  33 38 01 80 01 FC 01 02  ......s738......
01D0: 87 7F 10 80 80 EB 01 45  0A 80 F8 FF FF 7F F8 FF  .......E........
01E0: FF 7F 73 37 33 38 01 80  01 FC 01 45 0A 80 F8 FF  ..s738.....E....
01F0: FF 7F F8 FF FF 7F 73 37  33 37 01 80 2A 10 F0 FF  ......s737..*...
0200: FF 7F 4A EA E1 0E 01 F0  FF FF 7F 1C 11 80 4A EB  ..J...........J.
0210: E1 0E 01 F0 FF FF 7F 1C  0D 80 4A EC E1 0E 01 F0  ..........J.....
0220: FF FF 7F 4A ED E1 0E 01  F0 FF FF 7F 4A F0 FF FF  ...J........J...
0230: 7F EA E1 0E 01 6F 76 F0  FF FF 7F 4A EB E1 0E 01  .....ov....J....
0240: F0 FF FF 7F 4A EC E1 0E  01 F0 FF FF 7F 4A ED E1  ....J........J..
0250: 0E 01 F0 FF FF 7F 2C EA  E1 0E 01 EA E1 0E 01 6E  ......,........n
0260: 65 77 30 2B EA E1 0E 01  12 80 23 2C EA E1 0E 01  ew0+......#,....
0270: EA E1 0E 01 6E 65 77 31  53 EA E1 0E 01 EA E1 0E  ....new1S.......
0280: 01 6E 65 77 31 4A F0 FF  FF 7F EB E1 0E 01 02 87  .new1J..........
0290: 7F 0C 80 80 A8 02 52 0A  80 F8 FF FF 7F F8 FF FF  ......R.........
02A0: 7F 73 37 33 38 01 D1 02  02 87 7F 10 80 80 C2 02  .s738...........
02B0: 52 0A 80 F8 FF FF 7F F8  FF FF 7F 73 37 33 38 01  R..........s738.
02C0: D1 02 52 0A 80 F8 FF FF  7F F8 FF FF 7F 73 37 33  ..R..........s73
02D0: 37 45 0A 80 F8 FF FF 7F  F8 FF FF 7F 73 37 32 38  7E..........s728
02E0: 01 80 9F 13 80 F8 FF FF  7F F8 FF FF 7F 6D 61 69  .............mai
02F0: 6E 01 80 33 01 A4 01 36  14 80 15 80 16 80 59 05  n..3...6......Y.
0300: EE E1 0E 01 01 59 05 EF  E1 0E 01 01 03 01 00 14  .....Y..........
0310: 80 03 02 00 15 80 08 01  00 17 80 07 02 00 18 80  ................
0320: BA EE E1 0E 01 01 00 02  00 16 80 01 80 07 01 00  ................
0330: 19 80 08 02 00 1A 80 BA  EF E1 0E 01 01 00 02 00  ................
0340: 16 80 01 80 1C 0F 80 2B  EA E1 0E 01 1B 80 23 62  .......+......#b
0350: 1C 80 F8 FF FF 7F F8 FF  FF 7F 6D 61 69 6E 01 80  ..........main..
0360: 62 1C 80 EE E1 0E 01 EE  E1 0E 01 6D 61 69 6E 01  b..........main.
0370: 80 62 1C 80 EF E1 0E 01  EF E1 0E 01 6D 61 69 6E  .b..........main
0380: 01 80 1C 1D 80 52 0A 80  F8 FF FF 7F F8 FF FF 7F  .....R..........
0390: 73 37 32 38 45 0A 80 F8  FF FF 7F F8 FF FF 7F 73  s728E..........s
03A0: 37 32 39 01 80 36 14 80  15 80 1E 80 03 01 00 14  729..6..........
03B0: 80 03 02 00 15 80 08 01  00 1F 80 07 02 00 20 80  .............. .
03C0: BA EE E1 0E 01 01 00 02  00 1E 80 01 80 07 01 00  ................
03D0: 21 80 08 02 00 22 80 BA  EF E1 0E 01 01 00 02 00  !...."..........
03E0: 1E 80 01 80 1C 0F 80 2B  EA E1 0E 01 23 80 23 62  .......+....#.#b
03F0: 1C 80 F8 FF FF 7F F8 FF  FF 7F 6D 61 69 6E 01 80  ..........main..
0400: 62 1C 80 EE E1 0E 01 EE  E1 0E 01 6D 61 69 6E 01  b..........main.
0410: 80 62 1C 80 EF E1 0E 01  EF E1 0E 01 6D 61 69 6E  .b..........main
0420: 01 80 1C 1D 80 9F 13 80  F8 FF FF 7F F8 FF FF 7F  ................
0430: 6B 69 6C 6C 01 80 A2 13  80 F8 FF FF 7F F8 FF FF  kill............
0440: 7F 6B 69 6C 6C 1C 24 80  52 0A 80 F8 FF FF 7F F8  .kill.$.R.......
0450: FF FF 7F 73 37 32 39 45  0A 80 F8 FF FF 7F F8 FF  ...s729E........
0460: FF 7F 73 37 33 39 01 80  1C 0E 80 4A F0 FF FF 7F  ..s739.....J....
0470: EA E1 0E 01 6F 76 F0 FF  FF 7F 02 00 00 25 80 00  ....ov.......%..
0480: E2 04 27 10 F0 FF FF 7F  78 2A 10 F0 FF FF 7F 1C  ..'.....x*......
0490: 0E 80 2C EA E1 0E 01 EA  E1 0E 01 74 6C 6B 30 2B  ..,........tlk0+
04A0: EA E1 0E 01 26 80 23 2B  EA E1 0E 01 27 80 23 2B  ....&.#+....'.#+
04B0: EA E1 0E 01 28 80 23 2B  EA E1 0E 01 29 80 23 52  ....(.#+....).#R
04C0: 0A 80 F8 FF FF 7F F8 FF  FF 7F 73 37 33 39 45 0A  ..........s739E.
04D0: 80 F8 FF FF 7F F8 FF FF  7F 73 37 32 35 01 80 01  .........s725...
04E0: 74 05 2C EA E1 0E 01 EA  E1 0E 01 74 6C 6B 30 2B  t.,........tlk0+
04F0: EA E1 0E 01 2A 80 23 2B  EA E1 0E 01 2B 80 23 2B  ....*.#+....+.#+
0500: EA E1 0E 01 2C 80 23 2B  EA E1 0E 01 2D 80 23 52  ....,.#+....-.#R
0510: 0A 80 F8 FF FF 7F F8 FF  FF 7F 73 37 33 39 45 0A  ..........s739E.
0520: 80 F8 FF FF 7F F8 FF FF  7F 73 37 32 34 01 80 2C  .........s724..,
0530: EA E1 0E 01 EA E1 0E 01  74 6C 6B 30 2B EA E1 0E  ........tlk0+...
0540: 01 2E 80 23 2B EA E1 0E  01 2F 80 23 2B EA E1 0E  ...#+..../.#+...
0550: 01 30 80 23 52 0A 80 F8  FF FF 7F F8 FF FF 7F 73  .0.#R..........s
0560: 37 32 34 45 0A 80 F8 FF  FF 7F F8 FF FF 7F 73 37  724E..........s7
0570: 32 35 01 80 2C EA E1 0E  01 EA E1 0E 01 65 78 70  25..,........exp
0580: 30 2B EA E1 0E 01 31 80  23 2B EA E1 0E 01 32 80  0+....1.#+....2.
0590: 23 2C EA E1 0E 01 EA E1  0E 01 68 61 70 30 2B EA  #,........hap0+.
05A0: E1 0E 01 33 80 23 2C EA  E1 0E 01 EA E1 0E 01 68  ...3.#,........h
05B0: 61 70 31 4E 01 EB E1 0E  01 4E 01 EC E1 0E 01 4E  ap1N.....N.....N
05C0: 01 ED E1 0E 01 52 0A 80  F8 FF FF 7F F8 FF FF 7F  .....R..........
05D0: 73 37 32 35 02 87 7F 0C  80 80 F0 05 45 0A 80 F8  s725........E...
05E0: FF FF 7F F8 FF FF 7F 73  37 30 37 01 80 01 1D 06  .......s707.....
05F0: 02 87 7F 10 80 80 0C 06  45 0A 80 F8 FF FF 7F F8  ........E.......
0600: FF FF 7F 73 37 30 37 01  80 01 1D 06 45 0A 80 F8  ...s707.....E...
0610: FF FF 7F F8 FF FF 7F 73  37 30 36 01 80 27 10 F0  .......s706..'..
0620: FF FF 7F 78 2A 10 F0 FF  FF 7F 1C 0E 80 2C EA E1  ...x*........,..
0630: 0E 01 EA E1 0E 01 74 6C  6B 30 2B EA E1 0E 01 34  ......tlk0+....4
0640: 80 23 2B EA E1 0E 01 35  80 23 1C 0F 80 4E 00 EB  .#+....5.#...N..
0650: E1 0E 01 4E 00 EC E1 0E  01 4E 00 ED E1 0E 01 02  ...N.....N......
0660: 87 7F 0C 80 80 79 06 52  0A 80 F8 FF FF 7F F8 FF  .....y.R........
0670: FF 7F 73 37 30 37 01 A2  06 02 87 7F 10 80 80 93  ..s707..........
0680: 06 52 0A 80 F8 FF FF 7F  F8 FF FF 7F 73 37 30 37  .R..........s707
0690: 01 A2 06 52 0A 80 F8 FF  FF 7F F8 FF FF 7F 73 37  ...R..........s7
06A0: 30 36 45 0A 80 F8 FF FF  7F F8 FF FF 7F 73 37 32  06E..........s72
06B0: 38 01 80 9F 13 80 F8 FF  FF 7F F8 FF FF 7F 6D 61  8.............ma
06C0: 69 6E 01 80 33 01 A4 01  36 14 80 15 80 16 80 03  in..3...6.......
06D0: 01 00 14 80 03 02 00 15  80 08 01 00 17 80 07 02  ................
06E0: 00 18 80 BA EE E1 0E 01  01 00 02 00 16 80 01 80  ................
06F0: 07 01 00 19 80 08 02 00  1A 80 BA EF E1 0E 01 01  ................
0700: 00 02 00 16 80 01 80 1C  0F 80 2B EA E1 0E 01 1B  ..........+.....
0710: 80 23 62 1C 80 F8 FF FF  7F F8 FF FF 7F 6D 61 69  .#b..........mai
0720: 6E 01 80 62 1C 80 EE E1  0E 01 EE E1 0E 01 6D 61  n..b..........ma
0730: 69 6E 01 80 62 1C 80 EF  E1 0E 01 EF E1 0E 01 6D  in..b..........m
0740: 61 69 6E 01 80 1C 1D 80  52 0A 80 F8 FF FF 7F F8  ain.....R.......
0750: FF FF 7F 73 37 32 38 45  0A 80 F8 FF FF 7F F8 FF  ...s728E........
0760: FF 7F 73 37 32 39 01 80  36 14 80 15 80 1E 80 03  ..s729..6.......
0770: 01 00 14 80 03 02 00 15  80 08 01 00 1F 80 07 02  ................
0780: 00 20 80 BA EE E1 0E 01  01 00 02 00 1E 80 01 80  . ..............
0790: 07 01 00 21 80 08 02 00  22 80 BA EF E1 0E 01 01  ...!....".......
07A0: 00 02 00 1E 80 01 80 1C  0F 80 2B EA E1 0E 01 23  ..........+....#
07B0: 80 23 62 1C 80 F8 FF FF  7F F8 FF FF 7F 6D 61 69  .#b..........mai
07C0: 6E 01 80 62 1C 80 EE E1  0E 01 EE E1 0E 01 6D 61  n..b..........ma
07D0: 69 6E 01 80 62 1C 80 EF  E1 0E 01 EF E1 0E 01 6D  in..b..........m
07E0: 61 69 6E 01 80 1C 1D 80  9F 13 80 F8 FF FF 7F F8  ain.............
07F0: FF FF 7F 6B 69 6C 6C 01  80 A2 13 80 F8 FF FF 7F  ...kill.........
0800: F8 FF FF 7F 6B 69 6C 6C  1C 24 80 52 0A 80 F8 FF  ....kill.$.R....
0810: FF 7F F8 FF FF 7F 73 37  32 39 45 0A 80 F8 FF FF  ......s729E.....
0820: 7F F8 FF FF 7F 73 37 32  36 01 80 4A EA E1 0E 01  .....s726..J....
0830: EB E1 0E 01 6F 76 EA E1  0E 01 2C EA E1 0E 01 EA  ....ov....,.....
0840: E1 0E 01 74 6C 6B 30 2B  EA E1 0E 01 36 80 23 4A  ...tlk0+....6.#J
0850: EA E1 0E 01 EB E1 0E 01  6F 76 EA E1 0E 01 2B EA  ........ov....+.
0860: E1 0E 01 37 80 23 2C EA  E1 0E 01 EA E1 0E 01 68  ...7.#,........h
0870: 61 70 30 2B EA E1 0E 01  38 80 23 2C EA E1 0E 01  ap0+....8.#,....
0880: EA E1 0E 01 68 61 70 31  4A EA E1 0E 01 F0 FF FF  ....hap1J.......
0890: 7F 52 0A 80 F8 FF FF 7F  F8 FF FF 7F 73 37 32 36  .R..........s726
08A0: 45 0A 80 F8 FF FF 7F F8  FF FF 7F 73 37 32 37 01  E..........s727.
08B0: 80 1C 11 80 6F 76 EA E1  0E 01 2C EA E1 0E 01 EA  ....ov....,.....
08C0: E1 0E 01 74 6C 6B 30 2B  EA E1 0E 01 39 80 23 1C  ...tlk0+....9.#.
08D0: 0F 80 52 0A 80 F8 FF FF  7F F8 FF FF 7F 73 37 32  ..R..........s72
08E0: 37 45 0A 80 F8 FF FF 7F  F8 FF FF 7F 73 37 32 30  7E..........s720
08F0: 01 80 4A EA E1 0E 01 EB  E1 0E 01 6F 76 EA E1 0E  ..J........ov...
0900: 01 2C EA E1 0E 01 EA E1  0E 01 74 6C 6B 30 2B EA  .,........tlk0+.
0910: E1 0E 01 3A 80 23 4A EB  E1 0E 01 EA E1 0E 01 6F  ...:.#J........o
0920: 76 EA E1 0E 01 2B EA E1  0E 01 3B 80 23 2C EA E1  v....+....;.#,..
0930: 0E 01 EA E1 0E 01 74 6C  6B 30 2B EA E1 0E 01 3C  ......tlk0+....<
0940: 80 23 2C EA E1 0E 01 EA  E1 0E 01 74 6C 6B 31 53  .#,........tlk1S
0950: EA E1 0E 01 EA E1 0E 01  74 6C 6B 31 52 0A 80 F8  ........tlk1R...
0960: FF FF 7F F8 FF FF 7F 73  37 32 30 45 0A 80 F8 FF  .......s720E....
0970: FF 7F F8 FF FF 7F 73 37  32 31 01 80 1C 11 80 03  ......s721......
0980: 03 17 3D 80 7B EA E1 0E  01 1C 0D 80 4A EB E1 0E  ..=.{.......J...
0990: 01 F0 FF FF 7F 29 10 EA  E1 0E 01 03 2C EA E1 0E  .....)......,...
09A0: 01 EA E1 0E 01 74 6C 6B  30 2B EA E1 0E 01 3E 80  .....tlk0+....>.
09B0: 23 1C 1D 80 5C 00 3F 80  5C 01 3F 80 9A 52 0A 80  #...\.?.\.?..R..
09C0: F8 FF FF 7F F8 FF FF 7F  73 37 32 31 45 0A 80 F8  ........s721E...
09D0: FF FF 7F F8 FF FF 7F 73  37 31 32 01 80 4E 01 EB  .......s712..N..
09E0: E1 0E 01 4E 01 EC E1 0E  01 4E 01 ED E1 0E 01 2C  ...N.....N.....,
09F0: EA E1 0E 01 EA E1 0E 01  68 61 70 30 2B EA E1 0E  ........hap0+...
0A00: 01 40 80 23 2B EA E1 0E  01 41 80 23 2C EA E1 0E  .@.#+....A.#,...
0A10: 01 EA E1 0E 01 68 61 70  31 53 EA E1 0E 01 EA E1  .....hap1S......
0A20: 0E 01 68 61 70 31 52 0A  80 F8 FF FF 7F F8 FF FF  ..hap1R.........
0A30: 7F 73 37 31 32 45 0A 80  F8 FF FF 7F F8 FF FF 7F  .s712E..........
0A40: 73 37 32 32 01 80 45 0A  80 F8 FF FF 7F F8 FF FF  s722..E.........
0A50: 7F 62 6F 66 66 01 80 A0  0A 80 F8 FF FF 7F F8 FF  .boff...........
0A60: FF 7F 62 6F 66 66 2B EA  E1 0E 01 42 80 23 2B EA  ..boff+....B.#+.
0A70: E1 0E 01 43 80 23 1C 44  80 52 0A 80 F8 FF FF 7F  ...C.#.D.R......
0A80: F8 FF FF 7F 73 37 32 32  45 0A 80 F8 FF FF 7F F8  ....s722E.......
0A90: FF FF 7F 73 37 32 33 01  80 2C EA E1 0E 01 EA E1  ...s723..,......
0AA0: 0E 01 68 61 70 30 2B EA  E1 0E 01 45 80 23 2B EA  ..hap0+....E.#+.
0AB0: E1 0E 01 46 80 23 2B EA  E1 0E 01 47 80 23 2C EA  ...F.#+....G.#,.
0AC0: E1 0E 01 EA E1 0E 01 68  61 70 31 53 EA E1 0E 01  .......hap1S....
0AD0: EA E1 0E 01 68 61 70 31  4A EA E1 0E 01 F0 FF FF  ....hap1J.......
0AE0: 7F 52 0A 80 F8 FF FF 7F  F8 FF FF 7F 73 37 32 33  .R..........s723
0AF0: 45 0A 80 F8 FF FF 7F F8  FF FF 7F 73 37 31 35 01  E..........s715.
0B00: 80 45 0A 80 F8 FF FF 7F  F8 FF FF 7F 62 6F 66 66  .E..........boff
0B10: 01 80 A0 0A 80 F8 FF FF  7F F8 FF FF 7F 62 6F 66  .............bof
0B20: 66 6F 76 EA E1 0E 01 1C  0D 80 2C EA E1 0E 01 EA  fov.......,.....
0B30: E1 0E 01 74 6C 6B 30 2B  EA E1 0E 01 48 80 23 2C  ...tlk0+....H.#,
0B40: EA E1 0E 01 EA E1 0E 01  67 61 6B 30 2B EA E1 0E  ........gak0+...
0B50: 01 49 80 23 53 EA E1 0E  01 EA E1 0E 01 67 61 6B  .I.#S........gak
0B60: 30 2C EA E1 0E 01 EA E1  0E 01 67 61 6B 31 53 EA  0,........gak1S.
0B70: E1 0E 01 EA E1 0E 01 67  61 6B 31 52 0A 80 F8 FF  .......gak1R....
0B80: FF 7F F8 FF FF 7F 73 37  31 35 45 0A 80 F8 FF FF  ......s715E.....
0B90: 7F F8 FF FF 7F 73 37 31  36 01 80 4E 00 EB E1 0E  .....s716..N....
0BA0: 01 4E 00 EC E1 0E 01 4E  00 ED E1 0E 01 2C EA E1  .N.....N.....,..
0BB0: 0E 01 EA E1 0E 01 65 78  70 30 2B EA E1 0E 01 4A  ......exp0+....J
0BC0: 80 23 2B EA E1 0E 01 4B  80 23 36 4C 80 4D 80 4E  .#+....K.#6L.M.N
0BD0: 80 BB 4F 80 F8 FF FF 7F  F8 FF FF 7F 6D 61 69 6E  ..O.........main
0BE0: 01 80 2C EA E1 0E 01 EA  E1 0E 01 68 61 70 30 2B  ..,........hap0+
0BF0: EA E1 0E 01 50 80 23 BC  4F 80 F8 FF FF 7F F8 FF  ....P.#.O.......
0C00: FF 7F 6D 61 69 6E 1C 0D  80 52 0A 80 F8 FF FF 7F  ..main...R......
0C10: F8 FF FF 7F 73 37 31 36  02 87 7F 0C 80 80 34 0C  ....s716......4.
0C20: 45 0A 80 F8 FF FF 7F F8  FF FF 7F 73 37 31 34 01  E..........s714.
0C30: 80 01 61 0C 02 87 7F 10  80 80 50 0C 45 0A 80 F8  ..a.......P.E...
0C40: FF FF 7F F8 FF FF 7F 73  37 31 34 01 80 01 61 0C  .......s714...a.
0C50: 45 0A 80 F8 FF FF 7F F8  FF FF 7F 73 37 31 33 01  E..........s713.
0C60: 80 2C EA E1 0E 01 EA E1  0E 01 65 78 70 30 2B EA  .,........exp0+.
0C70: E1 0E 01 51 80 23 2B EA  E1 0E 01 52 80 23 2B EA  ...Q.#+....R.#+.
0C80: E1 0E 01 53 80 23 2B EA  E1 0E 01 54 80 23 7B EA  ...S.#+....T.#{.
0C90: E1 0E 01 02 87 7F 0C 80  80 AD 0C 52 0A 80 F8 FF  ...........R....
0CA0: FF 7F F8 FF FF 7F 73 37  31 34 01 D6 0C 02 87 7F  ......s714......
0CB0: 10 80 80 C7 0C 52 0A 80  F8 FF FF 7F F8 FF FF 7F  .....R..........
0CC0: 73 37 31 34 01 D6 0C 52  0A 80 F8 FF FF 7F F8 FF  s714...R........
0CD0: FF 7F 73 37 31 33 45 0A  80 F8 FF FF 7F F8 FF FF  ..s713E.........
0CE0: 7F 73 37 31 38 01 80 2B  EA E1 0E 01 55 80 23 2C  .s718..+....U.#,
0CF0: EA E1 0E 01 EA E1 0E 01  65 78 70 31 53 EA E1 0E  ........exp1S...
0D00: 01 EA E1 0E 01 65 78 70  31 24 56 80 01 80 01 80  .....exp1$V.....
0D10: 25 02 00 10 01 80 00 65  0D 52 0A 80 F8 FF FF 7F  %......e.R......
0D20: F8 FF FF 7F 73 37 31 38  45 0A 80 F8 FF FF 7F F8  ....s718E.......
0D30: FF FF 7F 73 37 34 30 01  80 2C EA E1 0E 01 EA E1  ...s740..,......
0D40: 0E 01 6A 6F 62 30 2B EA  E1 0E 01 57 80 23 03 01  ..job0+....W.#..
0D50: 10 01 80 73 58 80 EA E1  0E 01 F0 FF FF 7F 1C 59  ...sX..........Y
0D60: 80 30 01 97 0D 02 00 10  5A 80 00 97 0D 2C EA E1  .0......Z....,..
0D70: 0E 01 EA E1 0E 01 65 78  70 30 2B EA E1 0E 01 5B  ......exp0+....[
0D80: 80 23 2C EA E1 0E 01 EA  E1 0E 01 65 78 70 31 03  .#,........exp1.
0D90: 01 10 5A 80 01 97 0D 45  00 80 F0 FF FF 7F F0 FF  ..Z....E........
0DA0: FF 7F 66 64 6F 31 01 80  55 00 80 F0 FF FF 7F F0  ..fdo1..U.......
0DB0: FF FF 7F 66 64 6F 31 02  01 10 01 80 01 E9 0D 5C  ...fdo1........\
0DC0: 00 5C 80 5C 01 5C 80 52  0A 80 F8 FF FF 7F F8 FF  .\.\.\.R........
0DD0: FF 7F 73 37 31 38 46 00  45 00 80 F0 FF FF 7F F0  ..s718F.E.......
0DE0: FF FF 7F 66 64 69 31 01  80 21 00                 ...fdi1..!.     
```

#### Opcodes

```
  0: 0x0001 [0x03] ExtData[1]->WorkLocal[0] = Work_Zone[2]
  1: 0x0006 [0x42] SET_CLI_EVENT_CANCEL_DATA()
  2: 0x0007 [0x45] LOAD_SCHEDULED_TASK: Load scheduler "fdo1" with entities [LocalPlayer, LocalPlayer], work=[200*, 0*]
  3: 0x0018 [0x55] WAIT_LOAD_SCHEDULER: Wait for scheduler "fdo1" with entities [LocalPlayer, LocalPlayer], work=200*
  4: 0x0027 [0x46] CAMERA_CONTROL: Disable user control
  5: 0x0029 [0x38] SET_CLIENT_EVENT_MODE(mode=19*)
  6: 0x002C [0x2F] Unnamed NPC (ID: 17752558/0x010EE1EE)->Render.Flags0 &= ~0x80000 // Bit 19
  7: 0x0032 [0x2F] Unnamed NPC (ID: 17752559/0x010EE1EF)->Render.Flags0 &= ~0x80000 // Bit 19
  8: 0x0038 [0x4E] SET_ENTITY_HIDE_FLAG: Show Unnamed NPC (ID: 17752558/0x010EE1EE)
  9: 0x003E [0x4E] SET_ENTITY_HIDE_FLAG: Show Unnamed NPC (ID: 17752559/0x010EE1EF)
 10: 0x0044 [0x92] Moogle (ID: 17752554/0x010EE1EA)->Render.Flags3 ^= 0x01
 11: 0x004A [0x92] Spriggan Sifter (ID: 17752555/0x010EE1EB)->Render.Flags3 ^= 0x01
 12: 0x0050 [0x92] Spriggan Crier (ID: 17752556/0x010EE1EC)->Render.Flags3 ^= 0x01
 13: 0x0056 [0x92] Spriggan Graverobber (ID: 17752557/0x010EE1ED)->Render.Flags3 ^= 0x01
 14: 0x005C [0x94] Moogle (ID: 17752554/0x010EE1EA)->Render.Flags3 ^= 0x01
 15: 0x0062 [0x94] Spriggan Sifter (ID: 17752555/0x010EE1EB)->Render.Flags3 ^= 0x01
 16: 0x0068 [0x94] Spriggan Crier (ID: 17752556/0x010EE1EC)->Render.Flags3 ^= 0x01
 17: 0x006E [0x94] Spriggan Graverobber (ID: 17752557/0x010EE1ED)->Render.Flags3 ^= 0x01
 18: 0x0074 [0x94] LocalPlayer->Render.Flags3 ^= 0x01
 19: 0x007A [0x4A] LocalPlayer looks at LocalPlayer
 20: 0x0083 [0xBA] SET_ENTITY_POSITION(entity_id=LocalPlayer, pos_x=-64.500*, pos_z=47.500*, pos_y=-3.500*, direction=44.9°*)
 21: 0x0090 [0x4A] Moogle (ID: 17752554/0x010EE1EA) looks at Spriggan Sifter (ID: 17752555/0x010EE1EB)
 22: 0x0099 [0x4A] Spriggan Sifter (ID: 17752555/0x010EE1EB) looks at Moogle (ID: 17752554/0x010EE1EA)
 23: 0x00A2 [0x4A] Spriggan Crier (ID: 17752556/0x010EE1EC) looks at Moogle (ID: 17752554/0x010EE1EA)
 24: 0x00AB [0x4A] Spriggan Graverobber (ID: 17752557/0x010EE1ED) looks at Moogle (ID: 17752554/0x010EE1EA)
 25: 0x00B4 [0x6F] WAIT_FRAME_DELAY: Yield until WaitTime reaches zero
 26: 0x00B5 [0x76] CHECK_ENTITY_RENDER_FLAGS: Wait until Moogle (ID: 17752554/0x010EE1EA) Render.Flags0 and Render.Flags3 conditions are met
 27: 0x00BA [0x6F] WAIT_FRAME_DELAY: Yield until WaitTime reaches zero
 28: 0x00BB [0x76] CHECK_ENTITY_RENDER_FLAGS: Wait until Spriggan Sifter (ID: 17752555/0x010EE1EB) Render.Flags0 and Render.Flags3 conditions are met
 29: 0x00C0 [0x6F] WAIT_FRAME_DELAY: Yield until WaitTime reaches zero
 30: 0x00C1 [0x76] CHECK_ENTITY_RENDER_FLAGS: Wait until Spriggan Crier (ID: 17752556/0x010EE1EC) Render.Flags0 and Render.Flags3 conditions are met
 31: 0x00C6 [0x6F] WAIT_FRAME_DELAY: Yield until WaitTime reaches zero
 32: 0x00C7 [0x76] CHECK_ENTITY_RENDER_FLAGS: Wait until Spriggan Graverobber (ID: 17752557/0x010EE1ED) Render.Flags0 and Render.Flags3 conditions are met
 33: 0x00CC [0x80] LOAD_WAIT(entity=Moogle (ID: 17752554/0x010EE1EA))
 34: 0x00D1 [0x80] LOAD_WAIT(entity=Spriggan Sifter (ID: 17752555/0x010EE1EB))
 35: 0x00D6 [0x80] LOAD_WAIT(entity=Spriggan Crier (ID: 17752556/0x010EE1EC))
 36: 0x00DB [0x80] LOAD_WAIT(entity=Spriggan Graverobber (ID: 17752557/0x010EE1ED))
 37: 0x00E0 [0x80] LOAD_WAIT(entity=LocalPlayer)
 38: 0x00E5 [0x92] Gordias (ID: 17752197/0x010EE085)->Render.Flags3 ^= 0x01
 39: 0x00EB [0x92] Jack of Hearts (ID: 17752212/0x010EE094)->Render.Flags3 ^= 0x01
 40: 0x00F1 [0x92] Amagusa-Chigurusa (ID: 17752166/0x010EE066)->Render.Flags3 ^= 0x01
 41: 0x00F7 [0x92] Kobite-Mojite (ID: 17752167/0x010EE067)->Render.Flags3 ^= 0x01
 42: 0x00FD [0x92] Olaky-Yayulaky (ID: 17752328/0x010EE108)->Render.Flags3 ^= 0x01
 43: 0x0103 [0x5C] MUSIC_CONTROL: Set Idle (Day) music to song 129*
 44: 0x0107 [0x5C] MUSIC_CONTROL: Set Idle (Night) music to song 129*
 45: 0x010B [0x9A] WAIT_MUSIC_SERVER()
 46: 0x010C [0x03] Work_Zone_1700[11] = 4294910496*
 47: 0x0111 [0x03] Work_Zone_1700[12] = 42300*
 48: 0x0116 [0x03] Work_Zone_1700[13] = 4294963796*
 49: 0x011B [0x27] REQ_SET(priority=0x10, entity_id=LocalPlayer, tag_num=0x79)
 50: 0x0122 [0x2C] CREATE_SCHEDULER_TASK: Create scheduler "exp0" with entities [Moogle (ID: 17752554/0x010EE1EA), Moogle (ID: 17752554/0x010EE1EA)]
 51: 0x012F [0x45] LOAD_SCHEDULED_TASK: Load scheduler "s736" with entities [EventEntity, EventEntity], work=[639*, 0*]
 52: 0x0140 [0x45] LOAD_SCHEDULED_TASK: Load scheduler "fdi1" with entities [LocalPlayer, LocalPlayer], work=[200*, 0*]
 53: 0x0151 [0x1C] WAIT(210* ticks)
 54: 0x0154 [0x2C] CREATE_SCHEDULER_TASK: Create scheduler "exp1" with entities [Moogle (ID: 17752554/0x010EE1EA), Moogle (ID: 17752554/0x010EE1EA)]
 55: 0x0161 [0x53] WAIT_SCHEDULER_TASK: Wait for scheduler "exp1" with entities [Moogle (ID: 17752554/0x010EE1EA), Moogle (ID: 17752554/0x010EE1EA)]
 56: 0x016E [0x4A] Spriggan Sifter (ID: 17752555/0x010EE1EB) looks at LocalPlayer
 57: 0x0177 [0x1C] WAIT(5* ticks)
 58: 0x017A [0x4A] Spriggan Crier (ID: 17752556/0x010EE1EC) looks at LocalPlayer
 59: 0x0183 [0x1C] WAIT(10* ticks)
 60: 0x0186 [0x4A] Spriggan Graverobber (ID: 17752557/0x010EE1ED) looks at LocalPlayer
 61: 0x018F [0x1C] WAIT(15* ticks)
 62: 0x0192 [0x4A] Moogle (ID: 17752554/0x010EE1EA) looks at LocalPlayer
 63: 0x019B [0x6F] WAIT_FRAME_DELAY: Yield until WaitTime reaches zero
 64: 0x019C [0x76] CHECK_ENTITY_RENDER_FLAGS: Wait until Moogle (ID: 17752554/0x010EE1EA) Render.Flags0 and Render.Flags3 conditions are met
 65: 0x01A1 [0x1C] WAIT(30* ticks)
 66: 0x01A4 [0x52] END_LOAD_SCHEDULER: End scheduler "s736" with entities [EventEntity, EventEntity], work=639*
 67: 0x01B3 [0x02] IF !(LocalPlayer->Race == 5*) GOTO 0x01CF
 68: 0x01BB [0x45] LOAD_SCHEDULED_TASK: Load scheduler "s738" with entities [EventEntity, EventEntity], work=[639*, 0*]
 69: 0x01CC [0x01] GOTO 0x01FC
 70: 0x01CF [0x02] IF !(LocalPlayer->Race == 6*) GOTO 0x01EB
 71: 0x01D7 [0x45] LOAD_SCHEDULED_TASK: Load scheduler "s738" with entities [EventEntity, EventEntity], work=[639*, 0*]
 72: 0x01E8 [0x01] GOTO 0x01FC
 73: 0x01EB [0x45] LOAD_SCHEDULED_TASK: Load scheduler "s737" with entities [EventEntity, EventEntity], work=[639*, 0*]

SUBROUTINE_01FC:
 74: 0x01FC [0x2A] GET_REQ_LEVEL(level=16, entity_id=LocalPlayer)
 75: 0x0202 [0x4A] Moogle (ID: 17752554/0x010EE1EA) looks at LocalPlayer
 76: 0x020B [0x1C] WAIT(20* ticks)
 77: 0x020E [0x4A] Spriggan Sifter (ID: 17752555/0x010EE1EB) looks at LocalPlayer
 78: 0x0217 [0x1C] WAIT(10* ticks)
 79: 0x021A [0x4A] Spriggan Crier (ID: 17752556/0x010EE1EC) looks at LocalPlayer
 80: 0x0223 [0x4A] Spriggan Graverobber (ID: 17752557/0x010EE1ED) looks at LocalPlayer
 81: 0x022C [0x4A] LocalPlayer looks at Moogle (ID: 17752554/0x010EE1EA)
 82: 0x0235 [0x6F] WAIT_FRAME_DELAY: Yield until WaitTime reaches zero
 83: 0x0236 [0x76] CHECK_ENTITY_RENDER_FLAGS: Wait until LocalPlayer Render.Flags0 and Render.Flags3 conditions are met
 84: 0x023B [0x4A] Spriggan Sifter (ID: 17752555/0x010EE1EB) looks at LocalPlayer
 85: 0x0244 [0x4A] Spriggan Crier (ID: 17752556/0x010EE1EC) looks at LocalPlayer
 86: 0x024D [0x4A] Spriggan Graverobber (ID: 17752557/0x010EE1ED) looks at LocalPlayer
 87: 0x0256 [0x2C] CREATE_SCHEDULER_TASK: Create scheduler "new0" with entities [Moogle (ID: 17752554/0x010EE1EA), Moogle (ID: 17752554/0x010EE1EA)]
 88: 0x0263 [0x2B] Moogle (ID: 17752554/0x010EE1EA) [16814*]:
    → "Hey, you--able adventurer! Cast your gaze on the countenance of this misbegotten mutant."
 89: 0x026A [0x23] WAIT_FOR_DIALOG_INTERACTION
 90: 0x026B [0x2C] CREATE_SCHEDULER_TASK: Create scheduler "new1" with entities [Moogle (ID: 17752554/0x010EE1EA), Moogle (ID: 17752554/0x010EE1EA)]
 91: 0x0278 [0x53] WAIT_SCHEDULER_TASK: Wait for scheduler "new1" with entities [Moogle (ID: 17752554/0x010EE1EA), Moogle (ID: 17752554/0x010EE1EA)]
 92: 0x0285 [0x4A] LocalPlayer looks at Spriggan Sifter (ID: 17752555/0x010EE1EB)
 93: 0x028E [0x02] IF !(LocalPlayer->Race == 5*) GOTO 0x02A8
 94: 0x0296 [0x52] END_LOAD_SCHEDULER: End scheduler "s738" with entities [EventEntity, EventEntity], work=639*
 95: 0x02A5 [0x01] GOTO 0x02D1
 96: 0x02A8 [0x02] IF !(LocalPlayer->Race == 6*) GOTO 0x02C2
 97: 0x02B0 [0x52] END_LOAD_SCHEDULER: End scheduler "s738" with entities [EventEntity, EventEntity], work=639*
 98: 0x02BF [0x01] GOTO 0x02D1
 99: 0x02C2 [0x52] END_LOAD_SCHEDULER: End scheduler "s737" with entities [EventEntity, EventEntity], work=639*

SUBROUTINE_02D1:
100: 0x02D1 [0x45] LOAD_SCHEDULED_TASK: Load scheduler "s728" with entities [EventEntity, EventEntity], work=[639*, 0*]
101: 0x02E2 [0x9F] LOAD_SCHEDULED_TASK_ALT: Load scheduler "main" with entities [EventEntity, EventEntity], work=[96*, 0*]
102: 0x02F3 [0x33] EventEntity->Render.Flags0 |= 0x200000 // Bit 21 (flag=0x01)
103: 0x02F5 [0xA4] EventEntity->Flags3.unknown_3_2 = 1
104: 0x02F7 [0x36] SET_ENTITY_EVENT_POSITION(pos_x=-54.250*, pos_z=44.280*, pos_y=-3.773*)
105: 0x02FE [0x59] UPDATE_ENTITY_DATA: Unnamed NPC (ID: 17752558/0x010EE1EE)->Render.Flags0 |= 0x200000
106: 0x0305 [0x59] UPDATE_ENTITY_DATA: Unnamed NPC (ID: 17752559/0x010EE1EF)->Render.Flags0 |= 0x200000
107: 0x030C [0x03] ExtData[1]->WorkLocal[1] = 4294913046*
108: 0x0311 [0x03] ExtData[1]->WorkLocal[2] = 44280*
109: 0x0316 [0x08] ExtData[1]->WorkLocal[1] -= 250*
110: 0x031B [0x07] ExtData[1]->WorkLocal[2] += 950*
111: 0x0320 [0xBA] SET_ENTITY_POSITION(entity_id=Unnamed NPC (ID: 17752558/0x010EE1EE), pos_x=ExtData[1]->WorkLocal[1], pos_z=ExtData[1]->WorkLocal[2], pos_y=-3.773*, direction=0.0°*)
112: 0x032D [0x07] ExtData[1]->WorkLocal[1] += 1150*
113: 0x0332 [0x08] ExtData[1]->WorkLocal[2] -= 550*
114: 0x0337 [0xBA] SET_ENTITY_POSITION(entity_id=Unnamed NPC (ID: 17752559/0x010EE1EF), pos_x=ExtData[1]->WorkLocal[1], pos_z=ExtData[1]->WorkLocal[2], pos_y=-3.773*, direction=0.0°*)
115: 0x0344 [0x1C] WAIT(30* ticks)
116: 0x0347 [0x2B] Moogle (ID: 17752554/0x010EE1EA) [16815*]:
    → "Glance at the good-natured glimmer in his eyes!"
117: 0x034E [0x23] WAIT_FOR_DIALOG_INTERACTION
118: 0x034F [0x62] LOAD_EVENT_SCHEDULER: Load scheduler "main" with entities [EventEntity, EventEntity], work=[3*, 0*]
119: 0x0360 [0x62] LOAD_EVENT_SCHEDULER: Load scheduler "main" with entities [Unnamed NPC (ID: 17752558/0x010EE1EE), Unnamed NPC (ID: 17752558/0x010EE1EE)], work=[3*, 0*]
120: 0x0371 [0x62] LOAD_EVENT_SCHEDULER: Load scheduler "main" with entities [Unnamed NPC (ID: 17752559/0x010EE1EF), Unnamed NPC (ID: 17752559/0x010EE1EF)], work=[3*, 0*]
121: 0x0382 [0x1C] WAIT(60* ticks)
122: 0x0385 [0x52] END_LOAD_SCHEDULER: End scheduler "s728" with entities [EventEntity, EventEntity], work=639*
123: 0x0394 [0x45] LOAD_SCHEDULED_TASK: Load scheduler "s729" with entities [EventEntity, EventEntity], work=[639*, 0*]
124: 0x03A5 [0x36] SET_ENTITY_EVENT_POSITION(pos_x=-54.250*, pos_z=44.280*, pos_y=-3.695*)
125: 0x03AC [0x03] ExtData[1]->WorkLocal[1] = 4294913046*
126: 0x03B1 [0x03] ExtData[1]->WorkLocal[2] = 44280*
127: 0x03B6 [0x08] ExtData[1]->WorkLocal[1] -= 300*
128: 0x03BB [0x07] ExtData[1]->WorkLocal[2] += 900*
129: 0x03C0 [0xBA] SET_ENTITY_POSITION(entity_id=Unnamed NPC (ID: 17752558/0x010EE1EE), pos_x=ExtData[1]->WorkLocal[1], pos_z=ExtData[1]->WorkLocal[2], pos_y=-3.695*, direction=0.0°*)
130: 0x03CD [0x07] ExtData[1]->WorkLocal[1] += 1200*
131: 0x03D2 [0x08] ExtData[1]->WorkLocal[2] -= 500*
132: 0x03D7 [0xBA] SET_ENTITY_POSITION(entity_id=Unnamed NPC (ID: 17752559/0x010EE1EF), pos_x=ExtData[1]->WorkLocal[1], pos_z=ExtData[1]->WorkLocal[2], pos_y=-3.695*, direction=0.0°*)
133: 0x03E4 [0x1C] WAIT(30* ticks)
134: 0x03E7 [0x2B] Moogle (ID: 17752554/0x010EE1EA) [16816*]:
    → "Take in his tiny teeth scintillating in the sunlight, kupo!"
135: 0x03EE [0x23] WAIT_FOR_DIALOG_INTERACTION
136: 0x03EF [0x62] LOAD_EVENT_SCHEDULER: Load scheduler "main" with entities [EventEntity, EventEntity], work=[3*, 0*]
137: 0x0400 [0x62] LOAD_EVENT_SCHEDULER: Load scheduler "main" with entities [Unnamed NPC (ID: 17752558/0x010EE1EE), Unnamed NPC (ID: 17752558/0x010EE1EE)], work=[3*, 0*]
138: 0x0411 [0x62] LOAD_EVENT_SCHEDULER: Load scheduler "main" with entities [Unnamed NPC (ID: 17752559/0x010EE1EF), Unnamed NPC (ID: 17752559/0x010EE1EF)], work=[3*, 0*]
139: 0x0422 [0x1C] WAIT(60* ticks)
140: 0x0425 [0x9F] LOAD_SCHEDULED_TASK_ALT: Load scheduler "kill" with entities [EventEntity, EventEntity], work=[96*, 0*]
141: 0x0436 [0xA2] WAIT_LOAD_SCHEDULER_MAIN: Wait for scheduler "kill" with entities [EventEntity, EventEntity], work=96*
142: 0x0445 [0x1C] WAIT(45* ticks)
143: 0x0448 [0x52] END_LOAD_SCHEDULER: End scheduler "s729" with entities [EventEntity, EventEntity], work=639*
144: 0x0457 [0x45] LOAD_SCHEDULED_TASK: Load scheduler "s739" with entities [EventEntity, EventEntity], work=[639*, 0*]
145: 0x0468 [0x1C] WAIT(15* ticks)
146: 0x046B [0x4A] LocalPlayer looks at Moogle (ID: 17752554/0x010EE1EA)
147: 0x0474 [0x6F] WAIT_FRAME_DELAY: Yield until WaitTime reaches zero
148: 0x0475 [0x76] CHECK_ENTITY_RENDER_FLAGS: Wait until LocalPlayer Render.Flags0 and Render.Flags3 conditions are met
149: 0x047A [0x02] IF !(ExtData[1]->WorkLocal[0] == 7*) GOTO 0x04E2
150: 0x0482 [0x27] REQ_SET(priority=0x10, entity_id=LocalPlayer, tag_num=0x78)
151: 0x0489 [0x2A] GET_REQ_LEVEL(level=16, entity_id=LocalPlayer)
152: 0x048F [0x1C] WAIT(15* ticks)
153: 0x0492 [0x2C] CREATE_SCHEDULER_TASK: Create scheduler "tlk0" with entities [Moogle (ID: 17752554/0x010EE1EA), Moogle (ID: 17752554/0x010EE1EA)]
154: 0x049F [0x2B] Moogle (ID: 17752554/0x010EE1EA) [16817*]:
    → "You mean...you're familiar with its furry form?"
155: 0x04A6 [0x23] WAIT_FOR_DIALOG_INTERACTION
156: 0x04A7 [0x2B] Moogle (ID: 17752554/0x010EE1EA) [16818*]:
    → "Oh hush, hustler. Listen to the lowdown before you loosen your lips."
157: 0x04AE [0x23] WAIT_FOR_DIALOG_INTERACTION
158: 0x04AF [0x2B] Moogle (ID: 17752554/0x010EE1EA) [16819*]:
    → "Remember the gristly green gobs who came before? Now its mauve and maroon mates have come to wreak wrongdoings upon our realm!"
159: 0x04B6 [0x23] WAIT_FOR_DIALOG_INTERACTION
160: 0x04B7 [0x2B] Moogle (ID: 17752554/0x010EE1EA) [16820*]:
    → "At least, I suppose so. They haven't lifted a limb of late, so maybe there should be nothing nagging at my noggin after all..."
161: 0x04BE [0x23] WAIT_FOR_DIALOG_INTERACTION
162: 0x04BF [0x52] END_LOAD_SCHEDULER: End scheduler "s739" with entities [EventEntity, EventEntity], work=639*
163: 0x04CE [0x45] LOAD_SCHEDULED_TASK: Load scheduler "s725" with entities [EventEntity, EventEntity], work=[639*, 0*]
164: 0x04DF [0x01] GOTO 0x0574
165: 0x04E2 [0x2C] CREATE_SCHEDULER_TASK: Create scheduler "tlk0" with entities [Moogle (ID: 17752554/0x010EE1EA), Moogle (ID: 17752554/0x010EE1EA)]
166: 0x04EF [0x2B] Moogle (ID: 17752554/0x010EE1EA) [16821*]:
    → "Let me tell you a troubled tale. Not long ago, some grisly green gobs came to Vana'diel, and we amassed a fabulous fortune crafting countless curios in their likeness."
167: 0x04F6 [0x23] WAIT_FOR_DIALOG_INTERACTION
168: 0x04F7 [0x2B] Moogle (ID: 17752554/0x010EE1EA) [16822*]:
    → "But there was an--inconsequential?--issue with them consuming crystals like crunchy candies."
169: 0x04FE [0x23] WAIT_FOR_DIALOG_INTERACTION
170: 0x04FF [0x2B] Moogle (ID: 17752554/0x010EE1EA) [16823*]:
    → "Thanks to hardy heroes and moogle magic, we turned them into cerulean stone shards and sent them scurrying home, kupo."
171: 0x0506 [0x23] WAIT_FOR_DIALOG_INTERACTION
172: 0x0507 [0x2B] Moogle (ID: 17752554/0x010EE1EA) [16824*]:
    → "But we gave the victors great gifts resembling those rowdy ruffians, so our profits plummeted and we had to cancel our tropical travel plans..."
173: 0x050E [0x23] WAIT_FOR_DIALOG_INTERACTION
174: 0x050F [0x52] END_LOAD_SCHEDULER: End scheduler "s739" with entities [EventEntity, EventEntity], work=639*
175: 0x051E [0x45] LOAD_SCHEDULED_TASK: Load scheduler "s724" with entities [EventEntity, EventEntity], work=[639*, 0*]
176: 0x052F [0x2C] CREATE_SCHEDULER_TASK: Create scheduler "tlk0" with entities [Moogle (ID: 17752554/0x010EE1EA), Moogle (ID: 17752554/0x010EE1EA)]
177: 0x053C [0x2B] Moogle (ID: 17752554/0x010EE1EA) [16825*]:
    → "But the past is in the past. We must make the most of the moment!"
178: 0x0543 [0x23] WAIT_FOR_DIALOG_INTERACTION
179: 0x0544 [0x2B] Moogle (ID: 17752554/0x010EE1EA) [16826*]:
    → "And so! With the multicolored monsters now manifesting themselves, we found our next best chance!"
180: 0x054B [0x23] WAIT_FOR_DIALOG_INTERACTION
181: 0x054C [0x2B] Moogle (ID: 17752554/0x010EE1EA) [16827*]:
    → "They haven't lifted a limb of late, so maybe there's nothing to knock my noggin over..."
182: 0x0553 [0x23] WAIT_FOR_DIALOG_INTERACTION
183: 0x0554 [0x52] END_LOAD_SCHEDULER: End scheduler "s724" with entities [EventEntity, EventEntity], work=639*
184: 0x0563 [0x45] LOAD_SCHEDULED_TASK: Load scheduler "s725" with entities [EventEntity, EventEntity], work=[639*, 0*]

SUBROUTINE_0574:
185: 0x0574 [0x2C] CREATE_SCHEDULER_TASK: Create scheduler "exp0" with entities [Moogle (ID: 17752554/0x010EE1EA), Moogle (ID: 17752554/0x010EE1EA)]
186: 0x0581 [0x2B] Moogle (ID: 17752554/0x010EE1EA) [16828*]:
    → "Thus, we have an ostensibly outstanding opportunity to manufacture new knickknacks, kupo!"
187: 0x0588 [0x23] WAIT_FOR_DIALOG_INTERACTION
188: 0x0589 [0x2B] Moogle (ID: 17752554/0x010EE1EA) [16829*]:
    → "Part of the proceeds will be diverted to do up dilapidated Mog Houses, with the rest funding our jovial jaunts!"
189: 0x0590 [0x23] WAIT_FOR_DIALOG_INTERACTION
190: 0x0591 [0x2C] CREATE_SCHEDULER_TASK: Create scheduler "hap0" with entities [Moogle (ID: 17752554/0x010EE1EA), Moogle (ID: 17752554/0x010EE1EA)]
191: 0x059E [0x2B] Moogle (ID: 17752554/0x010EE1EA) [16830*]:
    → "Kupopopo! How magnificently marvelous!"
192: 0x05A5 [0x23] WAIT_FOR_DIALOG_INTERACTION
193: 0x05A6 [0x2C] CREATE_SCHEDULER_TASK: Create scheduler "hap1" with entities [Moogle (ID: 17752554/0x010EE1EA), Moogle (ID: 17752554/0x010EE1EA)]
194: 0x05B3 [0x4E] SET_ENTITY_HIDE_FLAG: Hide Spriggan Sifter (ID: 17752555/0x010EE1EB)
195: 0x05B9 [0x4E] SET_ENTITY_HIDE_FLAG: Hide Spriggan Crier (ID: 17752556/0x010EE1EC)
196: 0x05BF [0x4E] SET_ENTITY_HIDE_FLAG: Hide Spriggan Graverobber (ID: 17752557/0x010EE1ED)
197: 0x05C5 [0x52] END_LOAD_SCHEDULER: End scheduler "s725" with entities [EventEntity, EventEntity], work=639*
198: 0x05D4 [0x02] IF !(LocalPlayer->Race == 5*) GOTO 0x05F0
199: 0x05DC [0x45] LOAD_SCHEDULED_TASK: Load scheduler "s707" with entities [EventEntity, EventEntity], work=[639*, 0*]
200: 0x05ED [0x01] GOTO 0x061D
201: 0x05F0 [0x02] IF !(LocalPlayer->Race == 6*) GOTO 0x060C
202: 0x05F8 [0x45] LOAD_SCHEDULED_TASK: Load scheduler "s707" with entities [EventEntity, EventEntity], work=[639*, 0*]
203: 0x0609 [0x01] GOTO 0x061D
204: 0x060C [0x45] LOAD_SCHEDULED_TASK: Load scheduler "s706" with entities [EventEntity, EventEntity], work=[639*, 0*]

SUBROUTINE_061D:
205: 0x061D [0x27] REQ_SET(priority=0x10, entity_id=LocalPlayer, tag_num=0x78)
206: 0x0624 [0x2A] GET_REQ_LEVEL(level=16, entity_id=LocalPlayer)
207: 0x062A [0x1C] WAIT(15* ticks)
208: 0x062D [0x2C] CREATE_SCHEDULER_TASK: Create scheduler "tlk0" with entities [Moogle (ID: 17752554/0x010EE1EA), Moogle (ID: 17752554/0x010EE1EA)]
209: 0x063A [0x2B] Moogle (ID: 17752554/0x010EE1EA) [16831*]:
    → "You can't discern the difference between the dimensional delegates?"
210: 0x0641 [0x23] WAIT_FOR_DIALOG_INTERACTION
211: 0x0642 [0x2B] Moogle (ID: 17752554/0x010EE1EA) [16832*]:
    → "Give them a good glance!"
212: 0x0649 [0x23] WAIT_FOR_DIALOG_INTERACTION
213: 0x064A [0x1C] WAIT(30* ticks)
214: 0x064D [0x4E] SET_ENTITY_HIDE_FLAG: Show Spriggan Sifter (ID: 17752555/0x010EE1EB)
215: 0x0653 [0x4E] SET_ENTITY_HIDE_FLAG: Show Spriggan Crier (ID: 17752556/0x010EE1EC)
216: 0x0659 [0x4E] SET_ENTITY_HIDE_FLAG: Show Spriggan Graverobber (ID: 17752557/0x010EE1ED)
217: 0x065F [0x02] IF !(LocalPlayer->Race == 5*) GOTO 0x0679
218: 0x0667 [0x52] END_LOAD_SCHEDULER: End scheduler "s707" with entities [EventEntity, EventEntity], work=639*
219: 0x0676 [0x01] GOTO 0x06A2
220: 0x0679 [0x02] IF !(LocalPlayer->Race == 6*) GOTO 0x0693
221: 0x0681 [0x52] END_LOAD_SCHEDULER: End scheduler "s707" with entities [EventEntity, EventEntity], work=639*
222: 0x0690 [0x01] GOTO 0x06A2
223: 0x0693 [0x52] END_LOAD_SCHEDULER: End scheduler "s706" with entities [EventEntity, EventEntity], work=639*

SUBROUTINE_06A2:
224: 0x06A2 [0x45] LOAD_SCHEDULED_TASK: Load scheduler "s728" with entities [EventEntity, EventEntity], work=[639*, 0*]
225: 0x06B3 [0x9F] LOAD_SCHEDULED_TASK_ALT: Load scheduler "main" with entities [EventEntity, EventEntity], work=[96*, 0*]
226: 0x06C4 [0x33] EventEntity->Render.Flags0 |= 0x200000 // Bit 21 (flag=0x01)
227: 0x06C6 [0xA4] EventEntity->Flags3.unknown_3_2 = 1
228: 0x06C8 [0x36] SET_ENTITY_EVENT_POSITION(pos_x=-54.250*, pos_z=44.280*, pos_y=-3.773*)
229: 0x06CF [0x03] ExtData[1]->WorkLocal[1] = 4294913046*
230: 0x06D4 [0x03] ExtData[1]->WorkLocal[2] = 44280*
231: 0x06D9 [0x08] ExtData[1]->WorkLocal[1] -= 250*
232: 0x06DE [0x07] ExtData[1]->WorkLocal[2] += 950*
233: 0x06E3 [0xBA] SET_ENTITY_POSITION(entity_id=Unnamed NPC (ID: 17752558/0x010EE1EE), pos_x=ExtData[1]->WorkLocal[1], pos_z=ExtData[1]->WorkLocal[2], pos_y=-3.773*, direction=0.0°*)
234: 0x06F0 [0x07] ExtData[1]->WorkLocal[1] += 1150*
235: 0x06F5 [0x08] ExtData[1]->WorkLocal[2] -= 550*
236: 0x06FA [0xBA] SET_ENTITY_POSITION(entity_id=Unnamed NPC (ID: 17752559/0x010EE1EF), pos_x=ExtData[1]->WorkLocal[1], pos_z=ExtData[1]->WorkLocal[2], pos_y=-3.773*, direction=0.0°*)
237: 0x0707 [0x1C] WAIT(30* ticks)
238: 0x070A [0x2B] Moogle (ID: 17752554/0x010EE1EA) [16815*]:
    → "Glance at the good-natured glimmer in his eyes!"
239: 0x0711 [0x23] WAIT_FOR_DIALOG_INTERACTION
240: 0x0712 [0x62] LOAD_EVENT_SCHEDULER: Load scheduler "main" with entities [EventEntity, EventEntity], work=[3*, 0*]
241: 0x0723 [0x62] LOAD_EVENT_SCHEDULER: Load scheduler "main" with entities [Unnamed NPC (ID: 17752558/0x010EE1EE), Unnamed NPC (ID: 17752558/0x010EE1EE)], work=[3*, 0*]
242: 0x0734 [0x62] LOAD_EVENT_SCHEDULER: Load scheduler "main" with entities [Unnamed NPC (ID: 17752559/0x010EE1EF), Unnamed NPC (ID: 17752559/0x010EE1EF)], work=[3*, 0*]
243: 0x0745 [0x1C] WAIT(60* ticks)
244: 0x0748 [0x52] END_LOAD_SCHEDULER: End scheduler "s728" with entities [EventEntity, EventEntity], work=639*
245: 0x0757 [0x45] LOAD_SCHEDULED_TASK: Load scheduler "s729" with entities [EventEntity, EventEntity], work=[639*, 0*]
246: 0x0768 [0x36] SET_ENTITY_EVENT_POSITION(pos_x=-54.250*, pos_z=44.280*, pos_y=-3.695*)
247: 0x076F [0x03] ExtData[1]->WorkLocal[1] = 4294913046*
248: 0x0774 [0x03] ExtData[1]->WorkLocal[2] = 44280*
249: 0x0779 [0x08] ExtData[1]->WorkLocal[1] -= 300*
250: 0x077E [0x07] ExtData[1]->WorkLocal[2] += 900*
251: 0x0783 [0xBA] SET_ENTITY_POSITION(entity_id=Unnamed NPC (ID: 17752558/0x010EE1EE), pos_x=ExtData[1]->WorkLocal[1], pos_z=ExtData[1]->WorkLocal[2], pos_y=-3.695*, direction=0.0°*)
252: 0x0790 [0x07] ExtData[1]->WorkLocal[1] += 1200*
253: 0x0795 [0x08] ExtData[1]->WorkLocal[2] -= 500*
254: 0x079A [0xBA] SET_ENTITY_POSITION(entity_id=Unnamed NPC (ID: 17752559/0x010EE1EF), pos_x=ExtData[1]->WorkLocal[1], pos_z=ExtData[1]->WorkLocal[2], pos_y=-3.695*, direction=0.0°*)
255: 0x07A7 [0x1C] WAIT(30* ticks)
256: 0x07AA [0x2B] Moogle (ID: 17752554/0x010EE1EA) [16816*]:
    → "Take in his tiny teeth scintillating in the sunlight, kupo!"
257: 0x07B1 [0x23] WAIT_FOR_DIALOG_INTERACTION
258: 0x07B2 [0x62] LOAD_EVENT_SCHEDULER: Load scheduler "main" with entities [EventEntity, EventEntity], work=[3*, 0*]
259: 0x07C3 [0x62] LOAD_EVENT_SCHEDULER: Load scheduler "main" with entities [Unnamed NPC (ID: 17752558/0x010EE1EE), Unnamed NPC (ID: 17752558/0x010EE1EE)], work=[3*, 0*]
260: 0x07D4 [0x62] LOAD_EVENT_SCHEDULER: Load scheduler "main" with entities [Unnamed NPC (ID: 17752559/0x010EE1EF), Unnamed NPC (ID: 17752559/0x010EE1EF)], work=[3*, 0*]
261: 0x07E5 [0x1C] WAIT(60* ticks)
262: 0x07E8 [0x9F] LOAD_SCHEDULED_TASK_ALT: Load scheduler "kill" with entities [EventEntity, EventEntity], work=[96*, 0*]
263: 0x07F9 [0xA2] WAIT_LOAD_SCHEDULER_MAIN: Wait for scheduler "kill" with entities [EventEntity, EventEntity], work=96*
264: 0x0808 [0x1C] WAIT(45* ticks)
265: 0x080B [0x52] END_LOAD_SCHEDULER: End scheduler "s729" with entities [EventEntity, EventEntity], work=639*
266: 0x081A [0x45] LOAD_SCHEDULED_TASK: Load scheduler "s726" with entities [EventEntity, EventEntity], work=[639*, 0*]
267: 0x082B [0x4A] Moogle (ID: 17752554/0x010EE1EA) looks at Spriggan Sifter (ID: 17752555/0x010EE1EB)
268: 0x0834 [0x6F] WAIT_FRAME_DELAY: Yield until WaitTime reaches zero
269: 0x0835 [0x76] CHECK_ENTITY_RENDER_FLAGS: Wait until Moogle (ID: 17752554/0x010EE1EA) Render.Flags0 and Render.Flags3 conditions are met
270: 0x083A [0x2C] CREATE_SCHEDULER_TASK: Create scheduler "tlk0" with entities [Moogle (ID: 17752554/0x010EE1EA), Moogle (ID: 17752554/0x010EE1EA)]
271: 0x0847 [0x2B] Moogle (ID: 17752554/0x010EE1EA) [16833*]:
    → "I guess their terrible teeth and enchanting eyes do look alike..."
272: 0x084E [0x23] WAIT_FOR_DIALOG_INTERACTION
273: 0x084F [0x4A] Moogle (ID: 17752554/0x010EE1EA) looks at Spriggan Sifter (ID: 17752555/0x010EE1EB)
274: 0x0858 [0x6F] WAIT_FRAME_DELAY: Yield until WaitTime reaches zero
275: 0x0859 [0x76] CHECK_ENTITY_RENDER_FLAGS: Wait until Moogle (ID: 17752554/0x010EE1EA) Render.Flags0 and Render.Flags3 conditions are met
276: 0x085E [0x2B] Moogle (ID: 17752554/0x010EE1EA) [16834*]:
    → "But the metal in their mitts and trinkets on their waists! Those are different, kupo!"
277: 0x0865 [0x23] WAIT_FOR_DIALOG_INTERACTION
278: 0x0866 [0x2C] CREATE_SCHEDULER_TASK: Create scheduler "hap0" with entities [Moogle (ID: 17752554/0x010EE1EA), Moogle (ID: 17752554/0x010EE1EA)]
279: 0x0873 [0x2B] Moogle (ID: 17752554/0x010EE1EA) [16835*]:
    → "Wonderful! We can cut down on costs and rake in the revenue! Vivacious vacations for all!"
280: 0x087A [0x23] WAIT_FOR_DIALOG_INTERACTION
281: 0x087B [0x2C] CREATE_SCHEDULER_TASK: Create scheduler "hap1" with entities [Moogle (ID: 17752554/0x010EE1EA), Moogle (ID: 17752554/0x010EE1EA)]
282: 0x0888 [0x4A] Moogle (ID: 17752554/0x010EE1EA) looks at LocalPlayer
283: 0x0891 [0x52] END_LOAD_SCHEDULER: End scheduler "s726" with entities [EventEntity, EventEntity], work=639*
284: 0x08A0 [0x45] LOAD_SCHEDULED_TASK: Load scheduler "s727" with entities [EventEntity, EventEntity], work=[639*, 0*]
285: 0x08B1 [0x1C] WAIT(20* ticks)
286: 0x08B4 [0x6F] WAIT_FRAME_DELAY: Yield until WaitTime reaches zero
287: 0x08B5 [0x76] CHECK_ENTITY_RENDER_FLAGS: Wait until Moogle (ID: 17752554/0x010EE1EA) Render.Flags0 and Render.Flags3 conditions are met
288: 0x08BA [0x2C] CREATE_SCHEDULER_TASK: Create scheduler "tlk0" with entities [Moogle (ID: 17752554/0x010EE1EA), Moogle (ID: 17752554/0x010EE1EA)]
289: 0x08C7 [0x2B] Moogle (ID: 17752554/0x010EE1EA) [16836*]:
    → "A-ah! Forget my frivolous fettering."
290: 0x08CE [0x23] WAIT_FOR_DIALOG_INTERACTION
291: 0x08CF [0x1C] WAIT(30* ticks)
292: 0x08D2 [0x52] END_LOAD_SCHEDULER: End scheduler "s727" with entities [EventEntity, EventEntity], work=639*
293: 0x08E1 [0x45] LOAD_SCHEDULED_TASK: Load scheduler "s720" with entities [EventEntity, EventEntity], work=[639*, 0*]
294: 0x08F2 [0x4A] Moogle (ID: 17752554/0x010EE1EA) looks at Spriggan Sifter (ID: 17752555/0x010EE1EB)
295: 0x08FB [0x6F] WAIT_FRAME_DELAY: Yield until WaitTime reaches zero
296: 0x08FC [0x76] CHECK_ENTITY_RENDER_FLAGS: Wait until Moogle (ID: 17752554/0x010EE1EA) Render.Flags0 and Render.Flags3 conditions are met
297: 0x0901 [0x2C] CREATE_SCHEDULER_TASK: Create scheduler "tlk0" with entities [Moogle (ID: 17752554/0x010EE1EA), Moogle (ID: 17752554/0x010EE1EA)]
298: 0x090E [0x2B] Moogle (ID: 17752554/0x010EE1EA) [16837*]:
    → "But if we captured the cerulean creatures before, then how did they surreptitiously scuttle back?"
299: 0x0915 [0x23] WAIT_FOR_DIALOG_INTERACTION
300: 0x0916 [0x4A] Spriggan Sifter (ID: 17752555/0x010EE1EB) looks at Moogle (ID: 17752554/0x010EE1EA)
301: 0x091F [0x6F] WAIT_FRAME_DELAY: Yield until WaitTime reaches zero
302: 0x0920 [0x76] CHECK_ENTITY_RENDER_FLAGS: Wait until Moogle (ID: 17752554/0x010EE1EA) Render.Flags0 and Render.Flags3 conditions are met
303: 0x0925 [0x2B] Moogle (ID: 17752554/0x010EE1EA) [16838*]:
    → "Undeniably unimportant. What matters most is the moment!"
304: 0x092C [0x23] WAIT_FOR_DIALOG_INTERACTION
305: 0x092D [0x2C] CREATE_SCHEDULER_TASK: Create scheduler "tlk0" with entities [Moogle (ID: 17752554/0x010EE1EA), Moogle (ID: 17752554/0x010EE1EA)]
306: 0x093A [0x2B] Moogle (ID: 17752554/0x010EE1EA) [16839*]:
    → "Oh ho? A covert communique from my cohort in charge of the stone shard storage."
307: 0x0941 [0x23] WAIT_FOR_DIALOG_INTERACTION
308: 0x0942 [0x2C] CREATE_SCHEDULER_TASK: Create scheduler "tlk1" with entities [Moogle (ID: 17752554/0x010EE1EA), Moogle (ID: 17752554/0x010EE1EA)]
309: 0x094F [0x53] WAIT_SCHEDULER_TASK: Wait for scheduler "tlk1" with entities [Moogle (ID: 17752554/0x010EE1EA), Moogle (ID: 17752554/0x010EE1EA)]
310: 0x095C [0x52] END_LOAD_SCHEDULER: End scheduler "s720" with entities [EventEntity, EventEntity], work=639*
311: 0x096B [0x45] LOAD_SCHEDULED_TASK: Load scheduler "s721" with entities [EventEntity, EventEntity], work=[639*, 0*]
312: 0x097C [0x1C] WAIT(20* ticks)
313: 0x097F [0x03] Work_Zone_1700[3] = 4294966529*
314: 0x0984 [0x7B] Moogle (ID: 17752554/0x010EE1EA) stops talking
315: 0x0989 [0x1C] WAIT(10* ticks)
316: 0x098C [0x4A] Spriggan Sifter (ID: 17752555/0x010EE1EB) looks at LocalPlayer
317: 0x0995 [0x29] REQ_SET_WAIT(priority=0x10, entity_id=Moogle (ID: 17752554/0x010EE1EA), tag_num=0x03)
318: 0x099C [0x2C] CREATE_SCHEDULER_TASK: Create scheduler "tlk0" with entities [Moogle (ID: 17752554/0x010EE1EA), Moogle (ID: 17752554/0x010EE1EA)]
319: 0x09A9 [0x2B] Moogle (ID: 17752554/0x010EE1EA) [16840*]:
    → "Yes? Mm hmm... Mm hmm..."
320: 0x09B0 [0x23] WAIT_FOR_DIALOG_INTERACTION
321: 0x09B1 [0x1C] WAIT(60* ticks)
322: 0x09B4 [0x5C] MUSIC_CONTROL: Set Idle (Day) music to song 136*
323: 0x09B8 [0x5C] MUSIC_CONTROL: Set Idle (Night) music to song 136*
324: 0x09BC [0x9A] WAIT_MUSIC_SERVER()
325: 0x09BD [0x52] END_LOAD_SCHEDULER: End scheduler "s721" with entities [EventEntity, EventEntity], work=639*
326: 0x09CC [0x45] LOAD_SCHEDULED_TASK: Load scheduler "s712" with entities [EventEntity, EventEntity], work=[639*, 0*]
327: 0x09DD [0x4E] SET_ENTITY_HIDE_FLAG: Hide Spriggan Sifter (ID: 17752555/0x010EE1EB)
328: 0x09E3 [0x4E] SET_ENTITY_HIDE_FLAG: Hide Spriggan Crier (ID: 17752556/0x010EE1EC)
329: 0x09E9 [0x4E] SET_ENTITY_HIDE_FLAG: Hide Spriggan Graverobber (ID: 17752557/0x010EE1ED)
330: 0x09EF [0x2C] CREATE_SCHEDULER_TASK: Create scheduler "hap0" with entities [Moogle (ID: 17752554/0x010EE1EA), Moogle (ID: 17752554/0x010EE1EA)]
331: 0x09FC [0x2B] Moogle (ID: 17752554/0x010EE1EA) [16841*]:
    → "Altana kupo it all!"
332: 0x0A03 [0x23] WAIT_FOR_DIALOG_INTERACTION
333: 0x0A04 [0x2B] Moogle (ID: 17752554/0x010EE1EA) [16842*]:
    → "The ones we previously petrified have escaped, and they're traipsing outside town!"
334: 0x0A0B [0x23] WAIT_FOR_DIALOG_INTERACTION
335: 0x0A0C [0x2C] CREATE_SCHEDULER_TASK: Create scheduler "hap1" with entities [Moogle (ID: 17752554/0x010EE1EA), Moogle (ID: 17752554/0x010EE1EA)]
336: 0x0A19 [0x53] WAIT_SCHEDULER_TASK: Wait for scheduler "hap1" with entities [Moogle (ID: 17752554/0x010EE1EA), Moogle (ID: 17752554/0x010EE1EA)]
337: 0x0A26 [0x52] END_LOAD_SCHEDULER: End scheduler "s712" with entities [EventEntity, EventEntity], work=639*
338: 0x0A35 [0x45] LOAD_SCHEDULED_TASK: Load scheduler "s722" with entities [EventEntity, EventEntity], work=[639*, 0*]
339: 0x0A46 [0x45] LOAD_SCHEDULED_TASK: Load scheduler "boff" with entities [EventEntity, EventEntity], work=[639*, 0*]
340: 0x0A57 [0xA0] WAIT_LOAD_SCHEDULER_MAIN_ALT2: Wait for scheduler "boff" with entities [EventEntity, EventEntity], work=639*
341: 0x0A66 [0x2B] Moogle (ID: 17752554/0x010EE1EA) [16843*]:
    → "Then again, the clock was ticking on the enchantment expiring."
342: 0x0A6D [0x23] WAIT_FOR_DIALOG_INTERACTION
343: 0x0A6E [0x2B] Moogle (ID: 17752554/0x010EE1EA) [16844*]:
    → "...And now a nuanced notification from outside town? Oh, dear."
344: 0x0A75 [0x23] WAIT_FOR_DIALOG_INTERACTION
345: 0x0A76 [0x1C] WAIT(120* ticks)
346: 0x0A79 [0x52] END_LOAD_SCHEDULER: End scheduler "s722" with entities [EventEntity, EventEntity], work=639*
347: 0x0A88 [0x45] LOAD_SCHEDULED_TASK: Load scheduler "s723" with entities [EventEntity, EventEntity], work=[639*, 0*]
348: 0x0A99 [0x2C] CREATE_SCHEDULER_TASK: Create scheduler "hap0" with entities [Moogle (ID: 17752554/0x010EE1EA), Moogle (ID: 17752554/0x010EE1EA)]
349: 0x0AA6 [0x2B] Moogle (ID: 17752554/0x010EE1EA) [16845*]:
    → "Th-then it's true, kupo!"
350: 0x0AAD [0x23] WAIT_FOR_DIALOG_INTERACTION
351: 0x0AAE [0x2B] Moogle (ID: 17752554/0x010EE1EA) [16846*]:
    → "Great gasping Goblins! Those furry freaks are capturing crystals again!"
352: 0x0AB5 [0x23] WAIT_FOR_DIALOG_INTERACTION
353: 0x0AB6 [0x2B] Moogle (ID: 17752554/0x010EE1EA) [16847*]:
    → "And their bespeckled brethren are helping, kupo!"
354: 0x0ABD [0x23] WAIT_FOR_DIALOG_INTERACTION
355: 0x0ABE [0x2C] CREATE_SCHEDULER_TASK: Create scheduler "hap1" with entities [Moogle (ID: 17752554/0x010EE1EA), Moogle (ID: 17752554/0x010EE1EA)]
356: 0x0ACB [0x53] WAIT_SCHEDULER_TASK: Wait for scheduler "hap1" with entities [Moogle (ID: 17752554/0x010EE1EA), Moogle (ID: 17752554/0x010EE1EA)]
357: 0x0AD8 [0x4A] Moogle (ID: 17752554/0x010EE1EA) looks at LocalPlayer
358: 0x0AE1 [0x52] END_LOAD_SCHEDULER: End scheduler "s723" with entities [EventEntity, EventEntity], work=639*
359: 0x0AF0 [0x45] LOAD_SCHEDULED_TASK: Load scheduler "s715" with entities [EventEntity, EventEntity], work=[639*, 0*]
360: 0x0B01 [0x45] LOAD_SCHEDULED_TASK: Load scheduler "boff" with entities [EventEntity, EventEntity], work=[639*, 0*]
361: 0x0B12 [0xA0] WAIT_LOAD_SCHEDULER_MAIN_ALT2: Wait for scheduler "boff" with entities [EventEntity, EventEntity], work=639*
362: 0x0B21 [0x6F] WAIT_FRAME_DELAY: Yield until WaitTime reaches zero
363: 0x0B22 [0x76] CHECK_ENTITY_RENDER_FLAGS: Wait until Moogle (ID: 17752554/0x010EE1EA) Render.Flags0 and Render.Flags3 conditions are met
364: 0x0B27 [0x1C] WAIT(10* ticks)
365: 0x0B2A [0x2C] CREATE_SCHEDULER_TASK: Create scheduler "tlk0" with entities [Moogle (ID: 17752554/0x010EE1EA), Moogle (ID: 17752554/0x010EE1EA)]
366: 0x0B37 [0x2B] Moogle (ID: 17752554/0x010EE1EA) [16848*]:
    → "If they succeed in pilfering our precious prizes, Vana'diel will descend into a desolate decay!"
367: 0x0B3E [0x23] WAIT_FOR_DIALOG_INTERACTION
368: 0x0B3F [0x2C] CREATE_SCHEDULER_TASK: Create scheduler "gak0" with entities [Moogle (ID: 17752554/0x010EE1EA), Moogle (ID: 17752554/0x010EE1EA)]
369: 0x0B4C [0x2B] Moogle (ID: 17752554/0x010EE1EA) [16849*]:
    → "And worse, snafu will surely stain the M.H.M.U.'s resplendent reputation!"
370: 0x0B53 [0x23] WAIT_FOR_DIALOG_INTERACTION
371: 0x0B54 [0x53] WAIT_SCHEDULER_TASK: Wait for scheduler "gak0" with entities [Moogle (ID: 17752554/0x010EE1EA), Moogle (ID: 17752554/0x010EE1EA)]
372: 0x0B61 [0x2C] CREATE_SCHEDULER_TASK: Create scheduler "gak1" with entities [Moogle (ID: 17752554/0x010EE1EA), Moogle (ID: 17752554/0x010EE1EA)]
373: 0x0B6E [0x53] WAIT_SCHEDULER_TASK: Wait for scheduler "gak1" with entities [Moogle (ID: 17752554/0x010EE1EA), Moogle (ID: 17752554/0x010EE1EA)]
374: 0x0B7B [0x52] END_LOAD_SCHEDULER: End scheduler "s715" with entities [EventEntity, EventEntity], work=639*
375: 0x0B8A [0x45] LOAD_SCHEDULED_TASK: Load scheduler "s716" with entities [EventEntity, EventEntity], work=[639*, 0*]
376: 0x0B9B [0x4E] SET_ENTITY_HIDE_FLAG: Show Spriggan Sifter (ID: 17752555/0x010EE1EB)
377: 0x0BA1 [0x4E] SET_ENTITY_HIDE_FLAG: Show Spriggan Crier (ID: 17752556/0x010EE1EC)
378: 0x0BA7 [0x4E] SET_ENTITY_HIDE_FLAG: Show Spriggan Graverobber (ID: 17752557/0x010EE1ED)
379: 0x0BAD [0x2C] CREATE_SCHEDULER_TASK: Create scheduler "exp0" with entities [Moogle (ID: 17752554/0x010EE1EA), Moogle (ID: 17752554/0x010EE1EA)]
380: 0x0BBA [0x2B] Moogle (ID: 17752554/0x010EE1EA) [16850*]:
    → "Most excellent explorer, please travel outside town and round up these recidivist reprobates!"
381: 0x0BC1 [0x23] WAIT_FOR_DIALOG_INTERACTION
382: 0x0BC2 [0x2B] Moogle (ID: 17752554/0x010EE1EA) [16851*]:
    → "A mixture of moogle magic will enable you to ensconce the evildoers by subjugating them into stone shards."
383: 0x0BC9 [0x23] WAIT_FOR_DIALOG_INTERACTION
384: 0x0BCA [0x36] SET_ENTITY_EVENT_POSITION(pos_x=-56.900*, pos_z=45.600*, pos_y=-3.750*)
385: 0x0BD1 [0xBB] LOAD_EVENT_SCHEDULER_ALT: Load scheduler "main" with entities [EventEntity, EventEntity], work=[22*, 0*]
386: 0x0BE2 [0x2C] CREATE_SCHEDULER_TASK: Create scheduler "hap0" with entities [Moogle (ID: 17752554/0x010EE1EA), Moogle (ID: 17752554/0x010EE1EA)]
387: 0x0BEF [0x2B] Moogle (ID: 17752554/0x010EE1EA) [16852*]:
    → "Of course, I'll reward your righteousness with the requisite remuneration, kupo."
388: 0x0BF6 [0x23] WAIT_FOR_DIALOG_INTERACTION
389: 0x0BF7 [0xBC] WAIT_LOAD_SCHEDULER_ALT2: Wait for scheduler "main" with entities [EventEntity, EventEntity], work=22*
390: 0x0C06 [0x1C] WAIT(10* ticks)
391: 0x0C09 [0x52] END_LOAD_SCHEDULER: End scheduler "s716" with entities [EventEntity, EventEntity], work=639*
392: 0x0C18 [0x02] IF !(LocalPlayer->Race == 5*) GOTO 0x0C34
393: 0x0C20 [0x45] LOAD_SCHEDULED_TASK: Load scheduler "s714" with entities [EventEntity, EventEntity], work=[639*, 0*]
394: 0x0C31 [0x01] GOTO 0x0C61
395: 0x0C34 [0x02] IF !(LocalPlayer->Race == 6*) GOTO 0x0C50
396: 0x0C3C [0x45] LOAD_SCHEDULED_TASK: Load scheduler "s714" with entities [EventEntity, EventEntity], work=[639*, 0*]
397: 0x0C4D [0x01] GOTO 0x0C61
398: 0x0C50 [0x45] LOAD_SCHEDULED_TASK: Load scheduler "s713" with entities [EventEntity, EventEntity], work=[639*, 0*]

SUBROUTINE_0C61:
399: 0x0C61 [0x2C] CREATE_SCHEDULER_TASK: Create scheduler "exp0" with entities [Moogle (ID: 17752554/0x010EE1EA), Moogle (ID: 17752554/0x010EE1EA)]
400: 0x0C6E [0x2B] Moogle (ID: 17752554/0x010EE1EA) [16853*]:
    → "But since we have such a short supply of stuff, I have to let Lady Luck look upon you with...a lottery!"
401: 0x0C75 [0x23] WAIT_FOR_DIALOG_INTERACTION
402: 0x0C76 [0x2B] Moogle (ID: 17752554/0x010EE1EA) [16854*]:
    → "The most prestigious prizes are awarded in the order of mauve, vermilion, and chartruese stone shards."
403: 0x0C7D [0x23] WAIT_FOR_DIALOG_INTERACTION
404: 0x0C7E [0x2B] Moogle (ID: 17752554/0x010EE1EA) [16855*]:
    → "The goods we've gathered can be chosen from a long list that lengthens depending on your success."
405: 0x0C85 [0x23] WAIT_FOR_DIALOG_INTERACTION
406: 0x0C86 [0x2B] Moogle (ID: 17752554/0x010EE1EA) [16856*]:
    → "Simply stated, if you procure first prize, you can select spoils from lower levels should you deign to do so. And so on."
407: 0x0C8D [0x23] WAIT_FOR_DIALOG_INTERACTION
408: 0x0C8E [0x7B] Moogle (ID: 17752554/0x010EE1EA) stops talking
409: 0x0C93 [0x02] IF !(LocalPlayer->Race == 5*) GOTO 0x0CAD
410: 0x0C9B [0x52] END_LOAD_SCHEDULER: End scheduler "s714" with entities [EventEntity, EventEntity], work=639*
411: 0x0CAA [0x01] GOTO 0x0CD6
412: 0x0CAD [0x02] IF !(LocalPlayer->Race == 6*) GOTO 0x0CC7
413: 0x0CB5 [0x52] END_LOAD_SCHEDULER: End scheduler "s714" with entities [EventEntity, EventEntity], work=639*
414: 0x0CC4 [0x01] GOTO 0x0CD6
415: 0x0CC7 [0x52] END_LOAD_SCHEDULER: End scheduler "s713" with entities [EventEntity, EventEntity], work=639*

SUBROUTINE_0CD6:
416: 0x0CD6 [0x45] LOAD_SCHEDULED_TASK: Load scheduler "s718" with entities [EventEntity, EventEntity], work=[639*, 0*]
417: 0x0CE7 [0x2B] Moogle (ID: 17752554/0x010EE1EA) [16857*]:
    → "This is a dire dilemma, so I shall send you off to the outskirts immediately. Are you ready, kupo?"
418: 0x0CEE [0x23] WAIT_FOR_DIALOG_INTERACTION
419: 0x0CEF [0x2C] CREATE_SCHEDULER_TASK: Create scheduler "exp1" with entities [Moogle (ID: 17752554/0x010EE1EA), Moogle (ID: 17752554/0x010EE1EA)]
420: 0x0CFC [0x53] WAIT_SCHEDULER_TASK: Wait for scheduler "exp1" with entities [Moogle (ID: 17752554/0x010EE1EA), Moogle (ID: 17752554/0x010EE1EA)]
421: 0x0D09 [0x24] CREATE_DIALOG(message_id=16858*, default_option=0*, option_flags=0*)
    → "Be teleported outside of town? [You bet!/I don't think so.]"
422: 0x0D10 [0x25] WAIT_DIALOG_SELECT()
423: 0x0D11 [0x02] IF !(Work_Zone[0] == 0*) GOTO 0x0D65
424: 0x0D19 [0x52] END_LOAD_SCHEDULER: End scheduler "s718" with entities [EventEntity, EventEntity], work=639*
425: 0x0D28 [0x45] LOAD_SCHEDULED_TASK: Load scheduler "s740" with entities [EventEntity, EventEntity], work=[639*, 0*]
426: 0x0D39 [0x2C] CREATE_SCHEDULER_TASK: Create scheduler "job0" with entities [Moogle (ID: 17752554/0x010EE1EA), Moogle (ID: 17752554/0x010EE1EA)]
427: 0x0D46 [0x2B] Moogle (ID: 17752554/0x010EE1EA) [16859*]:
    → "Ready and raring to go! The M.H.M.U.--and all Vana'diel--appreciates your assistance!"
428: 0x0D4D [0x23] WAIT_FOR_DIALOG_INTERACTION
429: 0x0D4E [0x03] Work_Zone[1] = 0*
430: 0x0D53 [0x73] Moogle (ID: 17752554/0x010EE1EA) casts magic 122* on LocalPlayer
431: 0x0D5E [0x1C] WAIT(270* ticks)
432: 0x0D61 [0x30] SET_UCOFF_CONTINUE_ZERO()
433: 0x0D62 [0x01] GOTO 0x0D97
434: 0x0D65 [0x02] IF !(Work_Zone[0] == 1*) GOTO 0x0D97
435: 0x0D6D [0x2C] CREATE_SCHEDULER_TASK: Create scheduler "exp0" with entities [Moogle (ID: 17752554/0x010EE1EA), Moogle (ID: 17752554/0x010EE1EA)]
436: 0x0D7A [0x2B] Moogle (ID: 17752554/0x010EE1EA) [16860*]:
    → "O-oh dear, kupo... But we really require reinforcements! Please reconsider, kupo!"
437: 0x0D81 [0x23] WAIT_FOR_DIALOG_INTERACTION
438: 0x0D82 [0x2C] CREATE_SCHEDULER_TASK: Create scheduler "exp1" with entities [Moogle (ID: 17752554/0x010EE1EA), Moogle (ID: 17752554/0x010EE1EA)]
439: 0x0D8F [0x03] Work_Zone[1] = 1*
440: 0x0D94 [0x01] GOTO 0x0D97

SUBROUTINE_0D97:
441: 0x0D97 [0x45] LOAD_SCHEDULED_TASK: Load scheduler "fdo1" with entities [LocalPlayer, LocalPlayer], work=[200*, 0*]
442: 0x0DA8 [0x55] WAIT_LOAD_SCHEDULER: Wait for scheduler "fdo1" with entities [LocalPlayer, LocalPlayer], work=200*
443: 0x0DB7 [0x02] IF !(Work_Zone[1] == 0*) GOTO 0x0DE9
444: 0x0DBF [0x5C] MUSIC_CONTROL: Set Idle (Day) music to song 151*
445: 0x0DC3 [0x5C] MUSIC_CONTROL: Set Idle (Night) music to song 151*
446: 0x0DC7 [0x52] END_LOAD_SCHEDULER: End scheduler "s718" with entities [EventEntity, EventEntity], work=639*
447: 0x0DD6 [0x46] CAMERA_CONTROL: Restore default settings
448: 0x0DD8 [0x45] LOAD_SCHEDULED_TASK: Load scheduler "fdi1" with entities [LocalPlayer, LocalPlayer], work=[200*, 0*]
449: 0x0DE9 [0x21] END_EVENT
450: 0x0DEA [0x00] END_REQSTACK()
```

### Event 1070

#### Metadata

| Field        | Value      |
|--------------|------------|
| Entrypoint   | 0x0DEB     |
| Data Size    | 2695 bytes |
| Instructions | 372        |

```
      00 01 02 03 04 05 06 07  08 09 0A 0B 0C 0D 0E 0F
      -- -- -- -- -- -- -- --  -- -- -- -- -- -- -- --
0DE0:                                   41 01 80 5D 80             A..].
0DF0: 02 10 05 00 41 0D 80 02  80 02 10 06 00 41 11 80  ....A........A..
0E00: 5E 80 02 10 07 00 03 08  00 03 10 03 11 00 05 10  ^...............
0E10: 02 04 10 5A 80 00 25 0E  42 4A EA E1 0E 01 F0 FF  ...Z..%.BJ......
0E20: FF 7F 01 2D 13 4A EA E1  0E 01 F0 FF FF 7F 6F 76  ...-.J........ov
0E30: EA E1 0E 01 02 08 00 01  80 01 73 0E 03 02 10 5A  ..........s....Z
0E40: 80 2C EA E1 0E 01 EA E1  0E 01 65 78 70 30 2B EA  .,........exp0+.
0E50: E1 0E 01 5F 80 23 2C EA  E1 0E 01 EA E1 0E 01 65  ..._.#,........e
0E60: 78 70 31 53 EA E1 0E 01  EA E1 0E 01 65 78 70 31  xp1S........exp1
0E70: 01 AD 11 02 11 00 5A 80  00 AD 0E 2C EA E1 0E 01  ......Z....,....
0E80: EA E1 0E 01 65 78 70 30  2B EA E1 0E 01 60 80 23  ....exp0+....`.#
0E90: 2B EA E1 0E 01 61 80 23  2B EA E1 0E 01 62 80 23  +....a.#+....b.#
0EA0: 2C EA E1 0E 01 EA E1 0E  01 65 78 70 31 2C EA E1  ,........exp1,..
0EB0: 0E 01 EA E1 0E 01 74 6C  6B 30 03 02 10 05 00 03  ......tlk0......
0EC0: 03 10 06 00 03 04 10 07  00 2B EA E1 0E 01 63 80  .........+....c.
0ED0: 23 2C EA E1 0E 01 EA E1  0E 01 74 6C 6B 31 06 0D  #,........tlk1..
0EE0: 00 06 0E 00 06 09 00 06  0A 00 06 0F 00 06 13 00  ................
0EF0: 03 02 10 05 00 03 03 10  06 00 03 04 10 07 00 24  ...............$
0F00: 64 80 09 00 01 80 25 02  00 10 01 80 00 4E 16 02  d.....%......N..
0F10: 05 00 01 80 05 4A 0F 2C  EA E1 0E 01 EA E1 0E 01  .....J.,........
0F20: 65 78 70 30 03 05 10 65  80 2B EA E1 0E 01 66 80  exp0...e.+....f.
0F30: 23 2C EA E1 0E 01 EA E1  0E 01 65 78 70 31 40 01  #,........exp1@.
0F40: 80 65 80 01 10 01 80 01  4B 16 42 40 1C 80 67 80  .e......K.B@..g.
0F50: 01 10 01 80 03 09 00 00  10 40 01 80 65 80 01 10  .........@..e...
0F60: 65 80 43 00 43 01 41 01  80 5D 80 02 10 05 00 41  e.C.C.A..].....A
0F70: 0D 80 02 80 02 10 06 00  41 11 80 5E 80 02 10 07  ........A..^....
0F80: 00 03 08 00 03 10 03 12  00 04 10 02 12 00 5A 80  ..............Z.
0F90: 04 B7 0F 02 13 00 01 80  00 B7 0F 03 13 00 5A 80  ..............Z.
0FA0: 45 00 80 F0 FF FF 7F F0  FF FF 7F 73 30 33 33 01  E..........s033.
0FB0: 80 1C 0F 80 48 68 80 2C  EA E1 0E 01 EA E1 0E 01  ....Hh.,........
0FC0: 74 6C 6B 30 02 0E 00 01  80 00 D4 0F 2B EA E1 0E  tlk0........+...
0FD0: 01 69 80 23 2B EA E1 0E  01 6A 80 23 2C EA E1 0E  .i.#+....j.#,...
0FE0: 01 EA E1 0E 01 74 6C 6B  31 02 0E 00 01 80 00 F4  .....tlk1.......
0FF0: 0F 1C 1D 80 02 08 00 67  80 00 21 10 2C EA E1 0E  .......g..!.,...
1000: 01 EA E1 0E 01 74 6C 6B  30 2B EA E1 0E 01 6B 80  .....tlk0+....k.
1010: 23 2C EA E1 0E 01 EA E1  0E 01 74 6C 6B 31 01 7A  #,........tlk1.z
1020: 11 02 08 00 5A 80 80 56  10 2C EA E1 0E 01 EA E1  ....Z..V.,......
1030: 0E 01 68 61 70 30 45 00  80 F0 FF FF 7F F0 FF FF  ..hap0E.........
1040: 7F 66 61 6E 31 01 80 03  07 17 6C 80 27 10 EB E1  .fan1.....l.'...
1050: 0E 01 05 01 C0 10 02 08  00 65 80 80 8B 10 2C EA  .........e....,.
1060: E1 0E 01 EA E1 0E 01 68  61 70 30 45 00 80 F0 FF  .......hap0E....
1070: FF 7F F0 FF FF 7F 66 61  6E 33 01 80 03 07 17 6D  ......fan3.....m
1080: 80 27 10 EB E1 0E 01 05  01 C0 10 02 08 00 1C 80  .'..............
1090: 80 C0 10 2C EA E1 0E 01  EA E1 0E 01 68 61 70 30  ...,........hap0
10A0: 45 00 80 F0 FF FF 7F F0  FF FF 7F 66 61 6E 34 01  E..........fan4.
10B0: 80 03 07 17 44 80 27 10  EB E1 0E 01 05 01 C0 10  ....D.'.........
10C0: 03 02 10 08 00 2B EA E1  0E 01 6E 80 23 02 08 00  .....+....n.#...
10D0: 5A 80 80 F8 10 2A 10 EB  E1 0E 01 2C EA E1 0E 01  Z....*.....,....
10E0: EA E1 0E 01 68 61 70 31  53 EA E1 0E 01 EA E1 0E  ....hap1S.......
10F0: 01 68 61 70 31 01 4E 11  02 08 00 65 80 80 23 11  .hap1.N....e..#.
1100: 2A 10 EB E1 0E 01 2C EA  E1 0E 01 EA E1 0E 01 68  *.....,........h
1110: 61 70 31 53 EA E1 0E 01  EA E1 0E 01 68 61 70 31  ap1S........hap1
1120: 01 4E 11 02 08 00 1C 80  80 4E 11 2A 10 EB E1 0E  .N.......N.*....
1130: 01 2C EA E1 0E 01 EA E1  0E 01 68 61 70 31 53 EA  .,........hap1S.
1140: E1 0E 01 EA E1 0E 01 68  61 70 31 01 4E 11 02 12  .......hap1.N...
1150: 00 65 80 00 7A 11 02 13  00 5A 80 00 7A 11 03 13  .e..z....Z..z...
1160: 00 01 80 45 00 80 F0 FF  FF 7F F0 FF FF 7F 73 30  ...E..........s0
1170: 33 34 01 80 1C 0F 80 48  6F 80 03 02 10 01 80 02  34.....Ho.......
1180: 0E 00 01 80 00 AC 11 2C  EA E1 0E 01 EA E1 0E 01  .......,........
1190: 65 78 70 30 2B EA E1 0E  01 5F 80 23 2C EA E1 0E  exp0+...._.#,...
11A0: 01 EA E1 0E 01 65 78 70  31 05 0E 00 2E 9D 00 A9  .....exp1.......
11B0: 1A 03 10 01 80 9D 00 A9  1A 04 10 5A 80 9D 00 A9  ...........Z....
11C0: 1A 05 10 65 80 9D 00 A9  1A 06 10 1C 80 9D 00 A9  ...e............
11D0: 1A 07 10 67 80 9D 00 A9  1A 08 10 0C 80 9D 00 A9  ...g............
11E0: 1A 09 10 10 80 9D 00 A9  1A 00 17 25 80 9D 00 A9  ...........%....
11F0: 1A 01 17 70 80 9D 00 A9  1A 02 17 5D 80 02 08 00  ...p.......]....
1200: 5A 80 80 0D 12 03 14 00  01 80 01 3D 12 02 08 00  Z..........=....
1210: 65 80 80 1D 12 03 14 00  1C 80 01 3D 12 02 08 00  e..........=....
1220: 1C 80 80 2D 12 03 14 00  0E 80 01 3D 12 02 08 00  ...-.......=....
1230: 67 80 80 3D 12 03 14 00  71 80 01 3D 12 02 0D 00  g..=....q..=....
1240: 08 00 01 4D 12 06 0A 00  03 0D 00 08 00 24 72 80  ...M.........$r.
1250: 0A 00 14 00 25 02 00 10  0D 80 00 8C 12 2C EA E1  ....%........,..
1260: 0E 01 EA E1 0E 01 65 78  70 30 2B EA E1 0E 01 73  ......exp0+....s
1270: 80 23 2C EA E1 0E 01 EA  E1 0E 01 65 78 70 31 40  .#,........exp1@
1280: 01 80 65 80 01 10 01 80  21 01 91 12 03 0A 00 00  ..e.....!.......
1290: 10 06 10 00 05 0C 00 3E  0F 00 0A 00 A4 12 05 10  .......>........
12A0: 00 06 0C 00 9D 00 A9 1A  03 17 0A 00 02 10 00 01  ................
12B0: 80 00 E9 12 93 03 17 2C  EA E1 0E 01 EA E1 0E 01  .......,........
12C0: 65 78 70 30 2B EA E1 0E  01 74 80 23 2C EA E1 0E  exp0+....t.#,...
12D0: 01 EA E1 0E 01 65 78 70  31 53 EA E1 0E 01 EA E1  .....exp1S......
12E0: 0E 01 65 78 70 31 93 01  80 24 75 80 0C 00 01 80  ..exp1...$u.....
12F0: 25 02 00 10 01 80 00 3D  16 42 40 01 80 65 80 01  %......=.B@..e..
1300: 10 1C 80 40 0C 80 70 80  01 10 0A 00 43 00 43 01  ...@..p.....C.C.
1310: 02 02 10 76 80 00 25 13  40 01 80 65 80 01 10 01  ...v..%.@..e....
1320: 80 21 01 3A 16 02 03 10  5A 80 00 14 16 45 00 80  .!.:....Z....E..
1330: F0 FF FF 7F F0 FF FF 7F  66 64 6F 31 01 80 55 00  ........fdo1..U.
1340: 80 F0 FF FF 7F F0 FF FF  7F 66 64 6F 31 46 01 38  .........fdo1F.8
1350: 02 80 2F 00 EE E1 0E 01  2F 00 EF E1 0E 01 4E 00  ../...../.....N.
1360: EE E1 0E 01 4E 00 EF E1  0E 01 92 01 EA E1 0E 01  ....N...........
1370: 92 01 EB E1 0E 01 92 01  EC E1 0E 01 92 01 ED E1  ................
1380: 0E 01 94 01 EA E1 0E 01  94 01 EB E1 0E 01 94 01  ................
1390: EC E1 0E 01 94 01 ED E1  0E 01 94 01 F0 FF FF 7F  ................
13A0: BA F0 FF FF 7F 08 80 09  80 05 80 3D 80 4A F0 FF  ...........=.J..
13B0: FF 7F EA E1 0E 01 4A EA  E1 0E 01 F0 FF FF 7F 4A  ......J........J
13C0: EB E1 0E 01 F0 FF FF 7F  4A EC E1 0E 01 F0 FF FF  ........J.......
13D0: 7F 4A ED E1 0E 01 F0 FF  FF 7F 6F 76 F0 FF FF 7F  .J........ov....
13E0: 6F 76 EA E1 0E 01 6F 76  EB E1 0E 01 6F 76 EC E1  ov....ov....ov..
13F0: 0E 01 6F 76 ED E1 0E 01  80 F0 FF FF 7F 80 EA E1  ..ov............
1400: 0E 01 80 EB E1 0E 01 80  EC E1 0E 01 80 ED E1 0E  ................
1410: 01 5C 00 07 80 5C 01 07  80 9A 02 87 7F 0C 80 80  .\...\..........
1420: 36 14 45 0A 80 F8 FF FF  7F F8 FF FF 7F 73 37 33  6.E..........s73
1430: 34 01 80 01 63 14 02 87  7F 10 80 80 52 14 45 0A  4...c.......R.E.
1440: 80 F8 FF FF 7F F8 FF FF  7F 73 37 33 34 01 80 01  .........s734...
1450: 63 14 45 0A 80 F8 FF FF  7F F8 FF FF 7F 73 37 33  c.E..........s73
1460: 33 01 80 45 00 80 F0 FF  FF 7F F0 FF FF 7F 66 64  3..E..........fd
1470: 69 31 01 80 1C 1D 80 2C  EA E1 0E 01 EA E1 0E 01  i1.....,........
1480: 74 6C 6B 30 2B EA E1 0E  01 77 80 23 2C EA E1 0E  tlk0+....w.#,...
1490: 01 EA E1 0E 01 65 78 70  30 2B EA E1 0E 01 78 80  .....exp0+....x.
14A0: 23 2C EA E1 0E 01 EA E1  0E 01 65 78 70 31 02 87  #,........exp1..
14B0: 7F 0C 80 80 C8 14 52 0A  80 F8 FF FF 7F F8 FF FF  ......R.........
14C0: 7F 73 37 33 34 01 F1 14  02 87 7F 10 80 80 E2 14  .s734...........
14D0: 52 0A 80 F8 FF FF 7F F8  FF FF 7F 73 37 33 34 01  R..........s734.
14E0: F1 14 52 0A 80 F8 FF FF  7F F8 FF FF 7F 73 37 33  ..R..........s73
14F0: 33 45 0A 80 F8 FF FF 7F  F8 FF FF 7F 73 37 33 35  3E..........s735
1500: 01 80 9F 13 80 F8 FF FF  7F F8 FF FF 7F 6D 61 69  .............mai
1510: 6E 01 80 33 01 A4 01 36  14 80 15 80 16 80 59 05  n..3...6......Y.
1520: EE E1 0E 01 01 59 05 EF  E1 0E 01 01 03 01 00 14  .....Y..........
1530: 80 03 02 00 15 80 08 01  00 17 80 07 02 00 18 80  ................
1540: BA EE E1 0E 01 01 00 02  00 16 80 01 80 07 01 00  ................
1550: 19 80 08 02 00 1A 80 BA  EF E1 0E 01 01 00 02 00  ................
1560: 16 80 01 80 1C 44 80 62  1C 80 F8 FF FF 7F F8 FF  .....D.b........
1570: FF 7F 6D 61 69 6E 01 80  62 1C 80 EE E1 0E 01 EE  ..main..b.......
1580: E1 0E 01 6D 61 69 6E 01  80 62 1C 80 EF E1 0E 01  ...main..b......
1590: EF E1 0E 01 6D 61 69 6E  01 80 1C 44 80 40 01 80  ....main...D.@..
15A0: 65 80 01 10 67 80 45 00  80 F0 FF FF 7F F0 FF FF  e...g.E.........
15B0: 7F 66 64 6F 31 01 80 55  00 80 F0 FF FF 7F F0 FF  .fdo1..U........
15C0: FF 7F 66 64 6F 31 9F 13  80 F8 FF FF 7F F8 FF FF  ..fdo1..........
15D0: 7F 6B 69 6C 6C 01 80 A2  13 80 F8 FF FF 7F F8 FF  .kill...........
15E0: FF 7F 6B 69 6C 6C 1C 0F  80 5C 00 5C 80 5C 01 5C  ..kill...\.\.\.\
15F0: 80 52 0A 80 F8 FF FF 7F  F8 FF FF 7F 73 37 33 32  .R..........s732
1600: 46 00 45 00 80 F0 FF FF  7F F0 FF FF 7F 66 64 69  F.E..........fdi
1610: 31 01 80 21 3C 0F 00 0A  00 5A 80 2E 41 01 80 5D  1..!<....Z..A..]
1620: 80 02 10 05 00 41 0D 80  02 80 02 10 06 00 41 11  .....A........A.
1630: 80 5E 80 02 10 07 00 01  F0 0E 01 4B 16 02 00 10  .^.........K....
1640: 5A 80 00 4B 16 01 3D 12  01 4B 16 01 70 18 02 00  Z..K..=..K..p...
1650: 10 5A 80 00 A1 16 02 06  00 01 80 05 91 16 2C EA  .Z............,.
1660: E1 0E 01 EA E1 0E 01 65  78 70 30 03 05 10 5A 80  .......exp0...Z.
1670: 2B EA E1 0E 01 66 80 23  2C EA E1 0E 01 EA E1 0E  +....f.#,.......
1680: 01 65 78 70 31 40 01 80  65 80 01 10 01 80 01 9E  .exp1@..e.......
1690: 16 42 40 1C 80 67 80 01  10 5A 80 01 54 0F 01 70  .B@..g...Z..T..p
16A0: 18 02 00 10 65 80 00 F4  16 02 07 00 01 80 05 E4  ....e...........
16B0: 16 2C EA E1 0E 01 EA E1  0E 01 65 78 70 30 03 05  .,........exp0..
16C0: 10 01 80 2B EA E1 0E 01  66 80 23 2C EA E1 0E 01  ...+....f.#,....
16D0: EA E1 0E 01 65 78 70 31  40 01 80 65 80 01 10 01  ....exp1@..e....
16E0: 80 01 F1 16 42 40 1C 80  67 80 01 10 65 80 01 54  ....B@..g...e..T
16F0: 0F 01 70 18 02 00 10 1C  80 00 12 18 06 0A 00 9D  ..p.............
1700: 00 A9 1A 03 10 01 80 9D  00 A9 1A 04 10 5A 80 9D  .............Z..
1710: 00 A9 1A 05 10 65 80 9D  00 A9 1A 06 10 1C 80 9D  .....e..........
1720: 00 A9 1A 07 10 67 80 9D  00 A9 1A 08 10 0C 80 9D  .....g..........
1730: 00 A9 1A 09 10 10 80 9D  00 A9 1A 00 17 25 80 9D  .............%..
1740: 00 A9 1A 01 17 70 80 9D  00 A9 1A 02 17 5D 80 24  .....p.......].$
1750: 79 80 0A 00 01 80 25 02  00 10 01 80 00 6C 17 03  y.....%......l..
1760: 14 00 7A 80 03 0A 00 00  10 01 B9 17 02 00 10 5A  ..z............Z
1770: 80 00 81 17 03 14 00 7B  80 03 0A 00 00 10 01 B9  .......{........
1780: 17 02 00 10 65 80 00 96  17 03 14 00 7C 80 03 0A  ....e.......|...
1790: 00 00 10 01 B9 17 02 00  10 1C 80 00 AB 17 03 14  ................
17A0: 00 71 80 03 0A 00 00 10  01 B9 17 02 00 10 67 80  .q............g.
17B0: 00 B9 17 01 F0 0E 01 B9  17 06 0B 00 03 02 10 5A  ...............Z
17C0: 80 24 72 80 0B 00 14 00  25 02 00 10 0D 80 00 D7  .$r.....%.......
17D0: 17 01 FF 16 01 E7 17 03  0B 00 00 10 9D 00 A9 1A  ................
17E0: 03 17 0B 00 93 03 17 2C  EA E1 0E 01 EA E1 0E 01  .......,........
17F0: 65 78 70 30 2B EA E1 0E  01 7D 80 23 2C EA E1 0E  exp0+....}.#,...
1800: 01 EA E1 0E 01 65 78 70  31 93 01 80 01 BC 17 01  .....exp1.......
1810: 70 18 02 00 10 67 80 00  5C 18 42 2C EA E1 0E 01  p....g..\.B,....
1820: EA E1 0E 01 6A 6F 62 30  2B EA E1 0E 01 57 80 23  ....job0+....W.#
1830: 40 01 80 65 80 01 10 5A  80 73 58 80 EA E1 0E 01  @..e...Z.sX.....
1840: F0 FF FF 7F 1C 59 80 45  00 80 F0 FF FF 7F F0 FF  .....Y.E........
1850: FF 7F 66 64 6F 31 01 80  30 01 70 18 02 00 10 0C  ..fdo1..0.p.....
1860: 80 00 70 18 40 01 80 65  80 01 10 01 80 01 70 18  ..p.@..e......p.
1870: 21 00                                             !.              
```

#### Opcodes

```
  0: 0x0DEB [0x41] ExtData[1]->WorkLocal[5] = Work_Zone[2] (bits 0*-9*)
  1: 0x0DF4 [0x41] ExtData[1]->WorkLocal[6] = Work_Zone[2] (bits 10*-19*)
  2: 0x0DFD [0x41] ExtData[1]->WorkLocal[7] = Work_Zone[2] (bits 20*-29*)
  3: 0x0E06 [0x03] ExtData[1]->WorkLocal[8] = Work_Zone[3]
  4: 0x0E0B [0x03] ExtData[1]->WorkLocal[17] = Work_Zone[5]
  5: 0x0E10 [0x02] IF !(Work_Zone[4] == 1*) GOTO 0x0E25
  6: 0x0E18 [0x42] SET_CLI_EVENT_CANCEL_DATA()
  7: 0x0E19 [0x4A] Moogle (ID: 17752554/0x010EE1EA) looks at LocalPlayer
  8: 0x0E22 [0x01] GOTO 0x132D
  9: 0x0E25 [0x4A] Moogle (ID: 17752554/0x010EE1EA) looks at LocalPlayer
 10: 0x0E2E [0x6F] WAIT_FRAME_DELAY: Yield until WaitTime reaches zero
 11: 0x0E2F [0x76] CHECK_ENTITY_RENDER_FLAGS: Wait until Moogle (ID: 17752554/0x010EE1EA) Render.Flags0 and Render.Flags3 conditions are met
 12: 0x0E34 [0x02] IF !(ExtData[1]->WorkLocal[8] == 0*) GOTO 0x0E73
 13: 0x0E3C [0x03] Work_Zone[2] = 1*
 14: 0x0E41 [0x2C] CREATE_SCHEDULER_TASK: Create scheduler "exp0" with entities [Moogle (ID: 17752554/0x010EE1EA), Moogle (ID: 17752554/0x010EE1EA)]
 15: 0x0E4E [0x2B] Moogle (ID: 17752554/0x010EE1EA) [16873*]:
    → "Select your prize from the long list I'm about to lay upon you, kupo!"
 16: 0x0E55 [0x23] WAIT_FOR_DIALOG_INTERACTION
 17: 0x0E56 [0x2C] CREATE_SCHEDULER_TASK: Create scheduler "exp1" with entities [Moogle (ID: 17752554/0x010EE1EA), Moogle (ID: 17752554/0x010EE1EA)]
 18: 0x0E63 [0x53] WAIT_SCHEDULER_TASK: Wait for scheduler "exp1" with entities [Moogle (ID: 17752554/0x010EE1EA), Moogle (ID: 17752554/0x010EE1EA)]
 19: 0x0E70 [0x01] GOTO 0x11AD
 20: 0x0E73 [0x02] IF !(ExtData[1]->WorkLocal[17] == 1*) GOTO 0x0EAD
 21: 0x0E7B [0x2C] CREATE_SCHEDULER_TASK: Create scheduler "exp0" with entities [Moogle (ID: 17752554/0x010EE1EA), Moogle (ID: 17752554/0x010EE1EA)]
 22: 0x0E88 [0x2B] Moogle (ID: 17752554/0x010EE1EA) [16864*]:
    → "Altana above, kupo!"
 23: 0x0E8F [0x23] WAIT_FOR_DIALOG_INTERACTION
 24: 0x0E90 [0x2B] Moogle (ID: 17752554/0x010EE1EA) [16865*]:
    → "Congratulations!"
 25: 0x0E97 [0x23] WAIT_FOR_DIALOG_INTERACTION
 26: 0x0E98 [0x2B] Moogle (ID: 17752554/0x010EE1EA) [16866*]:
    → "You're more likely to get on a hot streak thanks to the intricacies of that item!"
 27: 0x0E9F [0x23] WAIT_FOR_DIALOG_INTERACTION
 28: 0x0EA0 [0x2C] CREATE_SCHEDULER_TASK: Create scheduler "exp1" with entities [Moogle (ID: 17752554/0x010EE1EA), Moogle (ID: 17752554/0x010EE1EA)]
 29: 0x0EAD [0x2C] CREATE_SCHEDULER_TASK: Create scheduler "tlk0" with entities [Moogle (ID: 17752554/0x010EE1EA), Moogle (ID: 17752554/0x010EE1EA)]
 30: 0x0EBA [0x03] Work_Zone[2] = ExtData[1]->WorkLocal[5]
 31: 0x0EBF [0x03] Work_Zone[3] = ExtData[1]->WorkLocal[6]
 32: 0x0EC4 [0x03] Work_Zone[4] = ExtData[1]->WorkLocal[7]
 33: 0x0EC9 [0x2B] Moogle (ID: 17752554/0x010EE1EA) [16861*]:
    → "You have phenomenally procured a prodigious amount of $0 chartruese stone shard[/s], $1 vermilion stone shard[/s], and $2 mauve stone shard[/s]. What would you like, kupo?"
 34: 0x0ED0 [0x23] WAIT_FOR_DIALOG_INTERACTION
 35: 0x0ED1 [0x2C] CREATE_SCHEDULER_TASK: Create scheduler "tlk1" with entities [Moogle (ID: 17752554/0x010EE1EA), Moogle (ID: 17752554/0x010EE1EA)]
 36: 0x0EDE [0x06] ExtData[1]->WorkLocal[13] = 0
 37: 0x0EE1 [0x06] ExtData[1]->WorkLocal[14] = 0
 38: 0x0EE4 [0x06] ExtData[1]->WorkLocal[9] = 0
 39: 0x0EE7 [0x06] ExtData[1]->WorkLocal[10] = 0
 40: 0x0EEA [0x06] ExtData[1]->WorkLocal[15] = 0
 41: 0x0EED [0x06] ExtData[1]->WorkLocal[19] = 0

SUBROUTINE_0EF0:
 42: 0x0EF0 [0x03] Work_Zone[2] = ExtData[1]->WorkLocal[5]
 43: 0x0EF5 [0x03] Work_Zone[3] = ExtData[1]->WorkLocal[6]
 44: 0x0EFA [0x03] Work_Zone[4] = ExtData[1]->WorkLocal[7]
 45: 0x0EFF [0x24] CREATE_DIALOG(message_id=16862*, default_option=ExtData[1]->WorkLocal[9], option_flags=0*)
    → "What will you do? [Spin the wheel! ($0 chartruese shard[/s])/Spin the wheel! ($1 vermilion shard[/s])/Spin the wheel! ($2 mauve shard[/s])/Check the item list./Warp outside town./Nothing.]"
 46: 0x0F06 [0x25] WAIT_DIALOG_SELECT()
 47: 0x0F07 [0x02] IF !(Work_Zone[0] == 0*) GOTO 0x164E
 48: 0x0F0F [0x02] IF !(ExtData[1]->WorkLocal[5] > 0*) GOTO 0x0F4A
 49: 0x0F17 [0x2C] CREATE_SCHEDULER_TASK: Create scheduler "exp0" with entities [Moogle (ID: 17752554/0x010EE1EA), Moogle (ID: 17752554/0x010EE1EA)]
 50: 0x0F24 [0x03] Work_Zone[5] = 2*
 51: 0x0F29 [0x2B] Moogle (ID: 17752554/0x010EE1EA) [16863*]:
    → "You have not harvested a sufficient supply of [mauve stone shards/vermilion stone shards/chartruese stone shards], kupo! Clobber more critters and come back later!"
 52: 0x0F30 [0x23] WAIT_FOR_DIALOG_INTERACTION
 53: 0x0F31 [0x2C] CREATE_SCHEDULER_TASK: Create scheduler "exp1" with entities [Moogle (ID: 17752554/0x010EE1EA), Moogle (ID: 17752554/0x010EE1EA)]
 54: 0x0F3E [0x40] SET_BIT_WORK_RANGE(start_bit=0*, end_bit=2*, target=Work_Zone[1], source=0*)
 55: 0x0F47 [0x01] GOTO 0x164B
 56: 0x0F4A [0x42] SET_CLI_EVENT_CANCEL_DATA()
 57: 0x0F4B [0x40] SET_BIT_WORK_RANGE(start_bit=3*, end_bit=4*, target=Work_Zone[1], source=0*)

SUBROUTINE_0F54:
 58: 0x0F54 [0x03] ExtData[1]->WorkLocal[9] = Work_Zone[0]
 59: 0x0F59 [0x40] SET_BIT_WORK_RANGE(start_bit=0*, end_bit=2*, target=Work_Zone[1], source=2*)
 60: 0x0F62 [0x43] SEND_EVENT_UPDATE: Send pending tag to server (packet 0x005B)
 61: 0x0F64 [0x43] SEND_EVENT_UPDATE: Check pending flag (skip if not pending)
 62: 0x0F66 [0x41] ExtData[1]->WorkLocal[5] = Work_Zone[2] (bits 0*-9*)
 63: 0x0F6F [0x41] ExtData[1]->WorkLocal[6] = Work_Zone[2] (bits 10*-19*)
 64: 0x0F78 [0x41] ExtData[1]->WorkLocal[7] = Work_Zone[2] (bits 20*-29*)
 65: 0x0F81 [0x03] ExtData[1]->WorkLocal[8] = Work_Zone[3]
 66: 0x0F86 [0x03] ExtData[1]->WorkLocal[18] = Work_Zone[4]
 67: 0x0F8B [0x02] IF !(ExtData[1]->WorkLocal[18] < 1*) GOTO 0x0FB7
 68: 0x0F93 [0x02] IF !(ExtData[1]->WorkLocal[19] == 0*) GOTO 0x0FB7
 69: 0x0F9B [0x03] ExtData[1]->WorkLocal[19] = 1*
 70: 0x0FA0 [0x45] LOAD_SCHEDULED_TASK: Load scheduler "s033" with entities [LocalPlayer, LocalPlayer], work=[200*, 0*]
 71: 0x0FB1 [0x1C] WAIT(30* ticks)
 72: 0x0FB4 [0x48] [System] [16867*]:
    → "You are on a hot streak!"
 73: 0x0FB7 [0x2C] CREATE_SCHEDULER_TASK: Create scheduler "tlk0" with entities [Moogle (ID: 17752554/0x010EE1EA), Moogle (ID: 17752554/0x010EE1EA)]
 74: 0x0FC4 [0x02] IF !(ExtData[1]->WorkLocal[14] == 0*) GOTO 0x0FD4
 75: 0x0FCC [0x2B] Moogle (ID: 17752554/0x010EE1EA) [16869*]:
    → "Roll them bones, kupo!"
 76: 0x0FD3 [0x23] WAIT_FOR_DIALOG_INTERACTION
 77: 0x0FD4 [0x2B] Moogle (ID: 17752554/0x010EE1EA) [16870*]:
    → "And the outstanding outcome is..."
 78: 0x0FDB [0x23] WAIT_FOR_DIALOG_INTERACTION
 79: 0x0FDC [0x2C] CREATE_SCHEDULER_TASK: Create scheduler "tlk1" with entities [Moogle (ID: 17752554/0x010EE1EA), Moogle (ID: 17752554/0x010EE1EA)]
 80: 0x0FE9 [0x02] IF !(ExtData[1]->WorkLocal[14] == 0*) GOTO 0x0FF4
 81: 0x0FF1 [0x1C] WAIT(60* ticks)
 82: 0x0FF4 [0x02] IF !(ExtData[1]->WorkLocal[8] == 4*) GOTO 0x1021
 83: 0x0FFC [0x2C] CREATE_SCHEDULER_TASK: Create scheduler "tlk0" with entities [Moogle (ID: 17752554/0x010EE1EA), Moogle (ID: 17752554/0x010EE1EA)]
 84: 0x1009 [0x2B] Moogle (ID: 17752554/0x010EE1EA) [16872*]:
    → "...the booby prize, kupo..."
 85: 0x1010 [0x23] WAIT_FOR_DIALOG_INTERACTION
 86: 0x1011 [0x2C] CREATE_SCHEDULER_TASK: Create scheduler "tlk1" with entities [Moogle (ID: 17752554/0x010EE1EA), Moogle (ID: 17752554/0x010EE1EA)]
 87: 0x101E [0x01] GOTO 0x117A
 88: 0x1021 [0x02] IF !(ExtData[1]->WorkLocal[8] == 1*) GOTO 0x1056
 89: 0x1029 [0x2C] CREATE_SCHEDULER_TASK: Create scheduler "hap0" with entities [Moogle (ID: 17752554/0x010EE1EA), Moogle (ID: 17752554/0x010EE1EA)]
 90: 0x1036 [0x45] LOAD_SCHEDULED_TASK: Load scheduler "fan1" with entities [LocalPlayer, LocalPlayer], work=[200*, 0*]
 91: 0x1047 [0x03] Work_Zone_1700[7] = 480*
 92: 0x104C [0x27] REQ_SET(priority=0x10, entity_id=Spriggan Sifter (ID: 17752555/0x010EE1EB), tag_num=0x05)
 93: 0x1053 [0x01] GOTO 0x10C0
 94: 0x1056 [0x02] IF !(ExtData[1]->WorkLocal[8] == 2*) GOTO 0x108B
 95: 0x105E [0x2C] CREATE_SCHEDULER_TASK: Create scheduler "hap0" with entities [Moogle (ID: 17752554/0x010EE1EA), Moogle (ID: 17752554/0x010EE1EA)]
 96: 0x106B [0x45] LOAD_SCHEDULED_TASK: Load scheduler "fan3" with entities [LocalPlayer, LocalPlayer], work=[200*, 0*]
 97: 0x107C [0x03] Work_Zone_1700[7] = 180*
 98: 0x1081 [0x27] REQ_SET(priority=0x10, entity_id=Spriggan Sifter (ID: 17752555/0x010EE1EB), tag_num=0x05)
 99: 0x1088 [0x01] GOTO 0x10C0
100: 0x108B [0x02] IF !(ExtData[1]->WorkLocal[8] == 3*) GOTO 0x10C0
101: 0x1093 [0x2C] CREATE_SCHEDULER_TASK: Create scheduler "hap0" with entities [Moogle (ID: 17752554/0x010EE1EA), Moogle (ID: 17752554/0x010EE1EA)]
102: 0x10A0 [0x45] LOAD_SCHEDULED_TASK: Load scheduler "fan4" with entities [LocalPlayer, LocalPlayer], work=[200*, 0*]
103: 0x10B1 [0x03] Work_Zone_1700[7] = 120*
104: 0x10B6 [0x27] REQ_SET(priority=0x10, entity_id=Spriggan Sifter (ID: 17752555/0x010EE1EB), tag_num=0x05)
105: 0x10BD [0x01] GOTO 0x10C0

SUBROUTINE_10C0:
106: 0x10C0 [0x03] Work_Zone[2] = ExtData[1]->WorkLocal[8]
107: 0x10C5 [0x2B] Moogle (ID: 17752554/0x010EE1EA) [16871*]:
    → "[.../First prize! Absolutely amazing!/Second prize! Emphatically excellent!/Third prize! Positively peachy!]"
108: 0x10CC [0x23] WAIT_FOR_DIALOG_INTERACTION
109: 0x10CD [0x02] IF !(ExtData[1]->WorkLocal[8] == 1*) GOTO 0x10F8
110: 0x10D5 [0x2A] GET_REQ_LEVEL(level=16, entity_id=Spriggan Sifter (ID: 17752555/0x010EE1EB))
111: 0x10DB [0x2C] CREATE_SCHEDULER_TASK: Create scheduler "hap1" with entities [Moogle (ID: 17752554/0x010EE1EA), Moogle (ID: 17752554/0x010EE1EA)]
112: 0x10E8 [0x53] WAIT_SCHEDULER_TASK: Wait for scheduler "hap1" with entities [Moogle (ID: 17752554/0x010EE1EA), Moogle (ID: 17752554/0x010EE1EA)]
113: 0x10F5 [0x01] GOTO 0x114E
114: 0x10F8 [0x02] IF !(ExtData[1]->WorkLocal[8] == 2*) GOTO 0x1123
115: 0x1100 [0x2A] GET_REQ_LEVEL(level=16, entity_id=Spriggan Sifter (ID: 17752555/0x010EE1EB))
116: 0x1106 [0x2C] CREATE_SCHEDULER_TASK: Create scheduler "hap1" with entities [Moogle (ID: 17752554/0x010EE1EA), Moogle (ID: 17752554/0x010EE1EA)]
117: 0x1113 [0x53] WAIT_SCHEDULER_TASK: Wait for scheduler "hap1" with entities [Moogle (ID: 17752554/0x010EE1EA), Moogle (ID: 17752554/0x010EE1EA)]
118: 0x1120 [0x01] GOTO 0x114E
119: 0x1123 [0x02] IF !(ExtData[1]->WorkLocal[8] == 3*) GOTO 0x114E
120: 0x112B [0x2A] GET_REQ_LEVEL(level=16, entity_id=Spriggan Sifter (ID: 17752555/0x010EE1EB))
121: 0x1131 [0x2C] CREATE_SCHEDULER_TASK: Create scheduler "hap1" with entities [Moogle (ID: 17752554/0x010EE1EA), Moogle (ID: 17752554/0x010EE1EA)]
122: 0x113E [0x53] WAIT_SCHEDULER_TASK: Wait for scheduler "hap1" with entities [Moogle (ID: 17752554/0x010EE1EA), Moogle (ID: 17752554/0x010EE1EA)]
123: 0x114B [0x01] GOTO 0x114E

SUBROUTINE_114E:
124: 0x114E [0x02] IF !(ExtData[1]->WorkLocal[18] == 2*) GOTO 0x117A
125: 0x1156 [0x02] IF !(ExtData[1]->WorkLocal[19] == 1*) GOTO 0x117A
126: 0x115E [0x03] ExtData[1]->WorkLocal[19] = 0*
127: 0x1163 [0x45] LOAD_SCHEDULED_TASK: Load scheduler "s034" with entities [LocalPlayer, LocalPlayer], work=[200*, 0*]
128: 0x1174 [0x1C] WAIT(30* ticks)
129: 0x1177 [0x48] [System] [16868*]:
    → "Your hot streak has burned out."

SUBROUTINE_117A:
130: 0x117A [0x03] Work_Zone[2] = 0*
131: 0x117F [0x02] IF !(ExtData[1]->WorkLocal[14] == 0*) GOTO 0x11AC
132: 0x1187 [0x2C] CREATE_SCHEDULER_TASK: Create scheduler "exp0" with entities [Moogle (ID: 17752554/0x010EE1EA), Moogle (ID: 17752554/0x010EE1EA)]
133: 0x1194 [0x2B] Moogle (ID: 17752554/0x010EE1EA) [16873*]:
    → "Select your prize from the long list I'm about to lay upon you, kupo!"
134: 0x119B [0x23] WAIT_FOR_DIALOG_INTERACTION
135: 0x119C [0x2C] CREATE_SCHEDULER_TASK: Create scheduler "exp1" with entities [Moogle (ID: 17752554/0x010EE1EA), Moogle (ID: 17752554/0x010EE1EA)]
136: 0x11A9 [0x05] ExtData[1]->WorkLocal[14] = 1
137: 0x11AC [0x2E] SET_CLI_EVENT_CANCEL_FLAGS()

SUBROUTINE_11AD:
138: 0x11AD [0x9D] Work_Zone[3] = 0x1AA9[0*] // Read WORD
139: 0x11B5 [0x9D] Work_Zone[4] = 0x1AA9[1*] // Read WORD
140: 0x11BD [0x9D] Work_Zone[5] = 0x1AA9[2*] // Read WORD
141: 0x11C5 [0x9D] Work_Zone[6] = 0x1AA9[3*] // Read WORD
142: 0x11CD [0x9D] Work_Zone[7] = 0x1AA9[4*] // Read WORD
143: 0x11D5 [0x9D] Work_Zone[8] = 0x1AA9[5*] // Read WORD
144: 0x11DD [0x9D] Work_Zone[9] = 0x1AA9[6*] // Read WORD
145: 0x11E5 [0x9D] Work_Zone_1700[0] = 0x1AA9[7*] // Read WORD
146: 0x11ED [0x9D] Work_Zone_1700[1] = 0x1AA9[8*] // Read WORD
147: 0x11F5 [0x9D] Work_Zone_1700[2] = 0x1AA9[9*] // Read WORD
148: 0x11FD [0x02] IF !(ExtData[1]->WorkLocal[8] == 1*) GOTO 0x120D
149: 0x1205 [0x03] ExtData[1]->WorkLocal[20] = 0*
150: 0x120A [0x01] GOTO 0x123D
151: 0x120D [0x02] IF !(ExtData[1]->WorkLocal[8] == 2*) GOTO 0x121D
152: 0x1215 [0x03] ExtData[1]->WorkLocal[20] = 3*
153: 0x121A [0x01] GOTO 0x123D
154: 0x121D [0x02] IF !(ExtData[1]->WorkLocal[8] == 3*) GOTO 0x122D
155: 0x1225 [0x03] ExtData[1]->WorkLocal[20] = 15*
156: 0x122A [0x01] GOTO 0x123D
157: 0x122D [0x02] IF !(ExtData[1]->WorkLocal[8] == 4*) GOTO 0x123D
158: 0x1235 [0x03] ExtData[1]->WorkLocal[20] = 63*
159: 0x123A [0x01] GOTO 0x123D

SUBROUTINE_123D:
160: 0x123D [0x02] IF !(ExtData[1]->WorkLocal[13] == ExtData[1]->WorkLocal[8]) GOTO 0x124D
161: 0x1245 [0x06] ExtData[1]->WorkLocal[10] = 0
162: 0x1248 [0x03] ExtData[1]->WorkLocal[13] = ExtData[1]->WorkLocal[8]
163: 0x124D [0x24] CREATE_DIALOG(message_id=16874*, default_option=ExtData[1]->WorkLocal[10], option_flags=ExtData[1]->WorkLocal[20])
    → "[What would you like/View which item]? [$1./$2./$3./$4./$5./$6./$7./$8./$9./$10./[I'll decide later/I'm done].]"
164: 0x1254 [0x25] WAIT_DIALOG_SELECT()
165: 0x1255 [0x02] IF !(Work_Zone[0] == 10*) GOTO 0x128C
166: 0x125D [0x2C] CREATE_SCHEDULER_TASK: Create scheduler "exp0" with entities [Moogle (ID: 17752554/0x010EE1EA), Moogle (ID: 17752554/0x010EE1EA)]
167: 0x126A [0x2B] Moogle (ID: 17752554/0x010EE1EA) [16877*]:
    → "Come back and call upon me when you determine which doodad you desire!"
168: 0x1271 [0x23] WAIT_FOR_DIALOG_INTERACTION
169: 0x1272 [0x2C] CREATE_SCHEDULER_TASK: Create scheduler "exp1" with entities [Moogle (ID: 17752554/0x010EE1EA), Moogle (ID: 17752554/0x010EE1EA)]
170: 0x127F [0x40] SET_BIT_WORK_RANGE(start_bit=0*, end_bit=2*, target=Work_Zone[1], source=0*)
171: 0x1288 [0x21] END_EVENT

SUBROUTINE_1291:
172: 0x1291 [0x06] ExtData[1]->WorkLocal[16] = 0
173: 0x1294 [0x05] ExtData[1]->WorkLocal[12] = 1
174: 0x1297 [0x3E] IF !(ExtData[1]->WorkLocal[15] bit ExtData[1]->WorkLocal[10]) GOTO 0x12A4
175: 0x129E [0x05] ExtData[1]->WorkLocal[16] = 1
176: 0x12A1 [0x06] ExtData[1]->WorkLocal[12] = 0
177: 0x12A4 [0x9D] Work_Zone_1700[3] = 0x1AA9[ExtData[1]->WorkLocal[10]] // Read WORD
178: 0x12AC [0x02] IF !(ExtData[1]->WorkLocal[16] == 0*) GOTO 0x12E9
179: 0x12B4 [0x93] DISPLAY_ITEM_INFO(item_id=Work_Zone_1700[3])
180: 0x12B7 [0x2C] CREATE_SCHEDULER_TASK: Create scheduler "exp0" with entities [Moogle (ID: 17752554/0x010EE1EA), Moogle (ID: 17752554/0x010EE1EA)]
181: 0x12C4 [0x2B] Moogle (ID: 17752554/0x010EE1EA) [16875*]:
    → "Would you like this item, kupo?"
182: 0x12CB [0x23] WAIT_FOR_DIALOG_INTERACTION
183: 0x12CC [0x2C] CREATE_SCHEDULER_TASK: Create scheduler "exp1" with entities [Moogle (ID: 17752554/0x010EE1EA), Moogle (ID: 17752554/0x010EE1EA)]
184: 0x12D9 [0x53] WAIT_SCHEDULER_TASK: Wait for scheduler "exp1" with entities [Moogle (ID: 17752554/0x010EE1EA), Moogle (ID: 17752554/0x010EE1EA)]
185: 0x12E6 [0x93] DISPLAY_ITEM_INFO(item_id=0*)
186: 0x12E9 [0x24] CREATE_DIALOG(message_id=16876*, default_option=ExtData[1]->WorkLocal[12], option_flags=0*)
    → "Really select that item? [Undoubtedly./Let me think on it.]"
187: 0x12F0 [0x25] WAIT_DIALOG_SELECT()
188: 0x12F1 [0x02] IF !(Work_Zone[0] == 0*) GOTO 0x163D
189: 0x12F9 [0x42] SET_CLI_EVENT_CANCEL_DATA()
190: 0x12FA [0x40] SET_BIT_WORK_RANGE(start_bit=0*, end_bit=2*, target=Work_Zone[1], source=3*)
191: 0x1303 [0x40] SET_BIT_WORK_RANGE(start_bit=5*, end_bit=8*, target=Work_Zone[1], source=ExtData[1]->WorkLocal[10])
192: 0x130C [0x43] SEND_EVENT_UPDATE: Send pending tag to server (packet 0x005B)
193: 0x130E [0x43] SEND_EVENT_UPDATE: Check pending flag (skip if not pending)
194: 0x1310 [0x02] IF !(Work_Zone[2] == 4294967295*) GOTO 0x1325
195: 0x1318 [0x40] SET_BIT_WORK_RANGE(start_bit=0*, end_bit=2*, target=Work_Zone[1], source=0*)
196: 0x1321 [0x21] END_EVENT

SUBROUTINE_132D:
197: 0x132D [0x45] LOAD_SCHEDULED_TASK: Load scheduler "fdo1" with entities [LocalPlayer, LocalPlayer], work=[200*, 0*]
198: 0x133E [0x55] WAIT_LOAD_SCHEDULER: Wait for scheduler "fdo1" with entities [LocalPlayer, LocalPlayer], work=200*
199: 0x134D [0x46] CAMERA_CONTROL: Disable user control
200: 0x134F [0x38] SET_CLIENT_EVENT_MODE(mode=19*)
201: 0x1352 [0x2F] Unnamed NPC (ID: 17752558/0x010EE1EE)->Render.Flags0 &= ~0x80000 // Bit 19
202: 0x1358 [0x2F] Unnamed NPC (ID: 17752559/0x010EE1EF)->Render.Flags0 &= ~0x80000 // Bit 19
203: 0x135E [0x4E] SET_ENTITY_HIDE_FLAG: Show Unnamed NPC (ID: 17752558/0x010EE1EE)
204: 0x1364 [0x4E] SET_ENTITY_HIDE_FLAG: Show Unnamed NPC (ID: 17752559/0x010EE1EF)
205: 0x136A [0x92] Moogle (ID: 17752554/0x010EE1EA)->Render.Flags3 ^= 0x01
206: 0x1370 [0x92] Spriggan Sifter (ID: 17752555/0x010EE1EB)->Render.Flags3 ^= 0x01
207: 0x1376 [0x92] Spriggan Crier (ID: 17752556/0x010EE1EC)->Render.Flags3 ^= 0x01
208: 0x137C [0x92] Spriggan Graverobber (ID: 17752557/0x010EE1ED)->Render.Flags3 ^= 0x01
209: 0x1382 [0x94] Moogle (ID: 17752554/0x010EE1EA)->Render.Flags3 ^= 0x01
210: 0x1388 [0x94] Spriggan Sifter (ID: 17752555/0x010EE1EB)->Render.Flags3 ^= 0x01
211: 0x138E [0x94] Spriggan Crier (ID: 17752556/0x010EE1EC)->Render.Flags3 ^= 0x01
212: 0x1394 [0x94] Spriggan Graverobber (ID: 17752557/0x010EE1ED)->Render.Flags3 ^= 0x01
213: 0x139A [0x94] LocalPlayer->Render.Flags3 ^= 0x01
214: 0x13A0 [0xBA] SET_ENTITY_POSITION(entity_id=LocalPlayer, pos_x=-56.800*, pos_z=42.300*, pos_y=-3.500*, direction=377476151.8°*)
215: 0x13AD [0x4A] LocalPlayer looks at Moogle (ID: 17752554/0x010EE1EA)
216: 0x13B6 [0x4A] Moogle (ID: 17752554/0x010EE1EA) looks at LocalPlayer
217: 0x13BF [0x4A] Spriggan Sifter (ID: 17752555/0x010EE1EB) looks at LocalPlayer
218: 0x13C8 [0x4A] Spriggan Crier (ID: 17752556/0x010EE1EC) looks at LocalPlayer
219: 0x13D1 [0x4A] Spriggan Graverobber (ID: 17752557/0x010EE1ED) looks at LocalPlayer
220: 0x13DA [0x6F] WAIT_FRAME_DELAY: Yield until WaitTime reaches zero
221: 0x13DB [0x76] CHECK_ENTITY_RENDER_FLAGS: Wait until LocalPlayer Render.Flags0 and Render.Flags3 conditions are met
222: 0x13E0 [0x6F] WAIT_FRAME_DELAY: Yield until WaitTime reaches zero
223: 0x13E1 [0x76] CHECK_ENTITY_RENDER_FLAGS: Wait until Moogle (ID: 17752554/0x010EE1EA) Render.Flags0 and Render.Flags3 conditions are met
224: 0x13E6 [0x6F] WAIT_FRAME_DELAY: Yield until WaitTime reaches zero
225: 0x13E7 [0x76] CHECK_ENTITY_RENDER_FLAGS: Wait until Spriggan Sifter (ID: 17752555/0x010EE1EB) Render.Flags0 and Render.Flags3 conditions are met
226: 0x13EC [0x6F] WAIT_FRAME_DELAY: Yield until WaitTime reaches zero
227: 0x13ED [0x76] CHECK_ENTITY_RENDER_FLAGS: Wait until Spriggan Crier (ID: 17752556/0x010EE1EC) Render.Flags0 and Render.Flags3 conditions are met
228: 0x13F2 [0x6F] WAIT_FRAME_DELAY: Yield until WaitTime reaches zero
229: 0x13F3 [0x76] CHECK_ENTITY_RENDER_FLAGS: Wait until Spriggan Graverobber (ID: 17752557/0x010EE1ED) Render.Flags0 and Render.Flags3 conditions are met
230: 0x13F8 [0x80] LOAD_WAIT(entity=LocalPlayer)
231: 0x13FD [0x80] LOAD_WAIT(entity=Moogle (ID: 17752554/0x010EE1EA))
232: 0x1402 [0x80] LOAD_WAIT(entity=Spriggan Sifter (ID: 17752555/0x010EE1EB))
233: 0x1407 [0x80] LOAD_WAIT(entity=Spriggan Crier (ID: 17752556/0x010EE1EC))
234: 0x140C [0x80] LOAD_WAIT(entity=Spriggan Graverobber (ID: 17752557/0x010EE1ED))
235: 0x1411 [0x5C] MUSIC_CONTROL: Set Idle (Day) music to song 129*
236: 0x1415 [0x5C] MUSIC_CONTROL: Set Idle (Night) music to song 129*
237: 0x1419 [0x9A] WAIT_MUSIC_SERVER()
