# 17752125 - Mashuu-Ajuu

## Common Data

| Field            | Value                     |
|------------------|---------------------------|
| Zone             | Windurst Waters (ID: 238) |
| Block Size       | 1120 bytes                |
| Total Events     | 25                        |
| References Count | 40                        |

## List of Events

| Event ID                   | Entrypoint   |   Size |   Instructions |
|----------------------------|--------------|--------|----------------|
| [65535](#event-65535)      | 0x0000       |      1 |              1 |
| [65535.1](#event-655351)   | 0x0001       |     16 |              2 |
| [65535.2](#event-655352)   | 0x0011       |     22 |              4 |
| [65535.3](#event-655353)   | 0x0027       |     16 |              2 |
| [65535.4](#event-655354)   | 0x0037       |     22 |              4 |
| [65535.5](#event-655355)   | 0x004D       |      9 |              3 |
| [429](#event-429)          | 0x0056       |     33 |             12 |
| [192](#event-192)          | 0x0077       |     33 |             12 |
| [463](#event-463)          | 0x0098       |    137 |             30 |
| [65535.6](#event-655356)   | 0x0121       |     19 |              5 |
| [65535.7](#event-655357)   | 0x0134       |     19 |              5 |
| [65535.8](#event-655358)   | 0x0147       |     19 |              5 |
| [65535.9](#event-655359)   | 0x015A       |     23 |              7 |
| [65535.10](#event-6553510) | 0x0171       |      5 |              3 |
| [65535.11](#event-6553511) | 0x0176       |     23 |              7 |
| [464](#event-464)          | 0x018D       |     33 |             12 |
| [475](#event-475)          | 0x01AE       |     73 |             18 |
| [476](#event-476)          | 0x01F7       |     33 |             12 |
| [477](#event-477)          | 0x0218       |     77 |             20 |
| [478](#event-478)          | 0x0265       |     29 |             10 |
| [479](#event-479)          | 0x0282       |     73 |             18 |
| [65535.12](#event-6553512) | 0x02CB       |     27 |              9 |
| [483](#event-483)          | 0x02E6       |     33 |             12 |
| [501](#event-501)          | 0x0307       |     33 |             12 |
| [448](#event-448)          | 0x0328       |     33 |             12 |

## DAT References (imed_data)

|   Index | Hex Value   |   Dec Value |
|---------|-------------|-------------|
|       0 | 0x0055      |          85 |
|       1 | 0x001E      |          30 |
|       2 | 0x209E      |        8350 |
|       3 | 0x209F      |        8351 |
|       4 | 0x1E4D      |        7757 |
|       5 | 0x1E4E      |        7758 |
|       6 | 0x20EB      |        8427 |
|       7 | 0x0000      |           0 |
|       8 | 0x0001      |           1 |
|       9 | 0x20F0      |        8432 |
|      10 | 0x0003      |           3 |
|      11 | 0x0004      |           4 |
|      12 | 0x0002      |           2 |
|      13 | 0x20EA      |        8426 |
|      14 | 0x20EC      |        8428 |
|      15 | 0x20ED      |        8429 |
|      16 | 0x20EE      |        8430 |
|      17 | 0x20EF      |        8431 |
|      18 | 0x20F1      |        8433 |
|      19 | 0x20F2      |        8434 |
|      20 | 0x20F3      |        8435 |
|      21 | 0x20F4      |        8436 |
|      22 | 0x20F5      |        8437 |
|      23 | 0x2105      |        8453 |
|      24 | 0x00C9      |         201 |
|      25 | 0x1998      |        6552 |
|      26 | 0x2106      |        8454 |
|      27 | 0x2107      |        8455 |
|      28 | 0x2108      |        8456 |
|      29 | 0x2109      |        8457 |
|      30 | 0x210A      |        8458 |
|      31 | 0x210B      |        8459 |
|      32 | 0x210C      |        8460 |
|      33 | 0x210D      |        8461 |
|      34 | 0x2115      |        8469 |
|      35 | 0x2116      |        8470 |
|      36 | 0x2142      |        8514 |
|      37 | 0x2143      |        8515 |
|      38 | 0x20CB      |        8395 |
|      39 | 0x20CC      |        8396 |

## String References

- **6552**: Obtained $0 gil.
- **7757**: I heard you're gonna do the prep work for our skills test.
- **7758**: Well, don't expect us to suck up to you. There are other candidates for test supervisor too, ya know.
- **8350**: Tsk. Don't tell me another adventurer has wandered into our class with eyes wide open in wonder...
- **8351**: I know our school is liberal and open to all and all that, but I don't see why that means any ill-mannered trespasser can walk in and disturb our studies.
- **8395**: I'm pretty confident about my results for the written exam. In fact, I think I did better than Kirarara!
- **8396**: But poor Chomoro-Kyotoro is in hot water. If he gets less than 50%, it's back to the beginners class for him.
- **8426**: Hey, are you busy?
- **8427**: Busy...? [No. Just a busybody./Yes. Busy as a bee!]
- **8428**: Well then, buzz off!
- **8429**: Good, 'cause I have a favor to ask!
- **8430**: The other day, Mr. Moreno-Toeno gave us a homework assignment on the cultivation of plants.
- **8431**: I've got better things to do with my time than watch grass grow. I'd prefer to ask someone like you, who's not busy, to do it for me.
- **8432**: Help out with your green thumb? [Thumbs up!/Thumbs down!]
- **8433**: Gee... It's not like I'm asking for an arm and a leg, or something. That's why I hate adults!
- **8434**: Great! Thanks. Then go plant $2 in a flowerpot for me, and check on them once a day until they grow into something that'll impress everyone.
- **8435**: Just telling you...I'm out to impress. You've got to grow at least $1, or else I'm not paying you anything for your help, all right?
- **8436**: For me to be top of the class, then you'll at least need to grow $1 from $2, okay?
- **8437**: Don't think I'll be cheap just 'coz I'm a kid. I'll reward you on how good a gardener you are.
- **8453**: Humph! You only brought me what I asked for... I guess it would have been expecting too much for anything more than that, huh? Stick to adventuring next time...
- **8454**: I wonder if I'll ever get the chance to meet a higher-level adventurer?
- **8455**: Being stuck in this School of Magic all day means I don't get to meet many people.
- **8456**: Wow! Well done! What kinda crystal did you feed it to grow something like this?
- **8457**: I might even be able to beat Kirarara with this. You deserve every gil of your reward!
- **8458**: With this, I'll be able to beat Kirarara at last! But, wait... What if Kirarara also got an adventurer to help her with her homework, too?
- **8459**: What's wrong with asking others to do the stuff you can't do yourself?
- **8460**: It's much more efficient, and if you pay them a proper reward, then you both benefit. This is the ideology that keeps the world turning.
- **8461**: But Mr. Moreno-Toeno must be the only one who doesn't know that. Anyway, that's the reason why I'm having you help with my horticultural homework again.
- **8469**: Paku-Nakku's attitude to learning is so bad. He's always half-asleep in class lately.
- **8470**: His consistent yawning gets on my nerves. If only there was some spell to stop yawning, I'd soon fix him!
- **8514**: What's all the noise about? You're disturbing the class.
- **8515**: If you and Paku-Nakku don't shut up, I'll cast Silence on the both of you!

## Events

### Event 65535

#### Metadata

| Field        | Value   |
|--------------|---------|
| Entrypoint   | 0x0000  |
| Data Size    | 1 bytes |
| Instructions | 1       |

```
      00 01 02 03 04 05 06 07  08 09 0A 0B 0C 0D 0E 0F
      -- -- -- -- -- -- -- --  -- -- -- -- -- -- -- --
0000: 00                                                .               
```

#### Opcodes

```
  0: 0x0000 [0x00] END_REQSTACK()
```

### Event 65535.1

#### Metadata

| Field        | Value    |
|--------------|----------|
| Entrypoint   | 0x0001   |
| Data Size    | 16 bytes |
| Instructions | 2        |

```
      00 01 02 03 04 05 06 07  08 09 0A 0B 0C 0D 0E 0F
      -- -- -- -- -- -- -- --  -- -- -- -- -- -- -- --
0000:    5B 00 80 F8 FF FF 7F  F8 FF FF 7F 74 6C 6B 30   [..........tlk0
0010: 00                                                .               
```

#### Opcodes

```
  0: 0x0001 [0x5B] LOAD_EXT_SCHEDULER: Load scheduler "tlk0" with entities [EventEntity, EventEntity], work=85*
  1: 0x0010 [0x00] END_REQSTACK()
```

### Event 65535.2

#### Metadata

| Field        | Value    |
|--------------|----------|
| Entrypoint   | 0x0011   |
| Data Size    | 22 bytes |
| Instructions | 4        |

```
      00 01 02 03 04 05 06 07  08 09 0A 0B 0C 0D 0E 0F
      -- -- -- -- -- -- -- --  -- -- -- -- -- -- -- --
0010:    53 F8 FF FF 7F F8 FF  FF 7F 74 6C 6B 30 5E 69   S........tlk0^i
0020: 64 6C 30 1C 01 80 00                              dl0....         
```

#### Opcodes

```
  0: 0x0011 [0x53] WAIT_SCHEDULER_TASK: Wait for scheduler "tlk0" with entities [EventEntity, EventEntity]
  1: 0x001E [0x5E] EventEntity goes idle (kills current action) (animation: "idl0")
  2: 0x0023 [0x1C] WAIT(30* ticks)
  3: 0x0026 [0x00] END_REQSTACK()
```

### Event 65535.3

#### Metadata

| Field        | Value    |
|--------------|----------|
| Entrypoint   | 0x0027   |
| Data Size    | 16 bytes |
| Instructions | 2        |

```
      00 01 02 03 04 05 06 07  08 09 0A 0B 0C 0D 0E 0F
      -- -- -- -- -- -- -- --  -- -- -- -- -- -- -- --
0020:                      5B  00 80 F8 FF FF 7F F8 FF         [........
0030: FF 7F 74 6C 6B 31 00                              ..tlk1.         
```

#### Opcodes

```
  0: 0x0027 [0x5B] LOAD_EXT_SCHEDULER: Load scheduler "tlk1" with entities [EventEntity, EventEntity], work=85*
  1: 0x0036 [0x00] END_REQSTACK()
```

### Event 65535.4

#### Metadata

| Field        | Value    |
|--------------|----------|
| Entrypoint   | 0x0037   |
| Data Size    | 22 bytes |
| Instructions | 4        |

```
      00 01 02 03 04 05 06 07  08 09 0A 0B 0C 0D 0E 0F
      -- -- -- -- -- -- -- --  -- -- -- -- -- -- -- --
0030:                      53  F8 FF FF 7F F8 FF FF 7F         S........
0040: 74 6C 6B 31 5E 69 64 6C  30 1C 01 80 00           tlk1^idl0....   
```

#### Opcodes

```
  0: 0x0037 [0x53] WAIT_SCHEDULER_TASK: Wait for scheduler "tlk1" with entities [EventEntity, EventEntity]
  1: 0x0044 [0x5E] EventEntity goes idle (kills current action) (animation: "idl0")
  2: 0x0049 [0x1C] WAIT(30* ticks)
  3: 0x004C [0x00] END_REQSTACK()
```

### Event 65535.5

#### Metadata

| Field        | Value   |
|--------------|---------|
| Entrypoint   | 0x004D  |
| Data Size    | 9 bytes |
| Instructions | 3       |

```
      00 01 02 03 04 05 06 07  08 09 0A 0B 0C 0D 0E 0F
      -- -- -- -- -- -- -- --  -- -- -- -- -- -- -- --
0040:                                         5E 69 64               ^id
0050: 6C 30 1C 01 80 00                                 l0....          
```

#### Opcodes

```
  0: 0x004D [0x5E] EventEntity goes idle (kills current action) (animation: "idl0")
  1: 0x0052 [0x1C] WAIT(30* ticks)
  2: 0x0055 [0x00] END_REQSTACK()
```

### Event 429

#### Metadata

| Field        | Value    |
|--------------|----------|
| Entrypoint   | 0x0056   |
| Data Size    | 33 bytes |
| Instructions | 12       |

```
      00 01 02 03 04 05 06 07  08 09 0A 0B 0C 0D 0E 0F
      -- -- -- -- -- -- -- --  -- -- -- -- -- -- -- --
0050:                   1E F0  FF FF 7F 6F 70 29 08 3D        .....op).=
0060: E0 0E 01 01 1D 02 80 23  1D 03 80 23 29 08 3D E0  .......#...#).=.
0070: 0E 01 02 20 00 21 00                              ... .!.         
```

#### Opcodes

```
  0: 0x0056 [0x1E] EventEntity looks at LocalPlayer and starts talking
  1: 0x005B [0x6F] WAIT_FRAME_DELAY: Yield until WaitTime reaches zero
  2: 0x005C [0x70] WAIT_ENTITY_RENDER_FLAG: Wait while EventEntity->Render.Flags3 bit 2 is set (cancel turn if not)
  3: 0x005D [0x29] REQ_SET_WAIT(priority=0x08, entity_id=Mashuu-Ajuu (ID: 17752125/0x010EE03D), tag_num=0x01)
  4: 0x0064 [0x1D] PRINT_EVENT_MESSAGE(message_id=8350*)
    → "Tsk. Don't tell me another adventurer has wandered into our class with eyes wide open in wonder..."
  5: 0x0067 [0x23] WAIT_FOR_DIALOG_INTERACTION
  6: 0x0068 [0x1D] PRINT_EVENT_MESSAGE(message_id=8351*)
    → "I know our school is liberal and open to all and all that, but I don't see why that means any ill-mannered trespasser can walk in and disturb our studies."
  7: 0x006B [0x23] WAIT_FOR_DIALOG_INTERACTION
  8: 0x006C [0x29] REQ_SET_WAIT(priority=0x08, entity_id=Mashuu-Ajuu (ID: 17752125/0x010EE03D), tag_num=0x02)
  9: 0x0073 [0x20] SET_CLI_EVENT_UC_FLAG: Unlock player control
 10: 0x0075 [0x21] END_EVENT
 11: 0x0076 [0x00] END_REQSTACK()
```

### Event 192

#### Metadata

| Field        | Value    |
|--------------|----------|
| Entrypoint   | 0x0077   |
| Data Size    | 33 bytes |
| Instructions | 12       |

```
      00 01 02 03 04 05 06 07  08 09 0A 0B 0C 0D 0E 0F
      -- -- -- -- -- -- -- --  -- -- -- -- -- -- -- --
0070:                      1E  F0 FF FF 7F 6F 70 29 08         .....op).
0080: 3D E0 0E 01 01 1D 04 80  23 1D 05 80 23 29 08 3D  =.......#...#).=
0090: E0 0E 01 02 20 00 21 00                           .... .!.        
```

#### Opcodes

```
  0: 0x0077 [0x1E] EventEntity looks at LocalPlayer and starts talking
  1: 0x007C [0x6F] WAIT_FRAME_DELAY: Yield until WaitTime reaches zero
  2: 0x007D [0x70] WAIT_ENTITY_RENDER_FLAG: Wait while EventEntity->Render.Flags3 bit 2 is set (cancel turn if not)
  3: 0x007E [0x29] REQ_SET_WAIT(priority=0x08, entity_id=Mashuu-Ajuu (ID: 17752125/0x010EE03D), tag_num=0x01)
  4: 0x0085 [0x1D] PRINT_EVENT_MESSAGE(message_id=7757*)
    → "I heard you're gonna do the prep work for our skills test."
  5: 0x0088 [0x23] WAIT_FOR_DIALOG_INTERACTION
  6: 0x0089 [0x1D] PRINT_EVENT_MESSAGE(message_id=7758*)
    → "Well, don't expect us to suck up to you. There are other candidates for test supervisor too, ya know."
  7: 0x008C [0x23] WAIT_FOR_DIALOG_INTERACTION
  8: 0x008D [0x29] REQ_SET_WAIT(priority=0x08, entity_id=Mashuu-Ajuu (ID: 17752125/0x010EE03D), tag_num=0x02)
  9: 0x0094 [0x20] SET_CLI_EVENT_UC_FLAG: Unlock player control
 10: 0x0096 [0x21] END_EVENT
 11: 0x0097 [0x00] END_REQSTACK()
```

### Event 463

#### Metadata

| Field        | Value     |
|--------------|-----------|
| Entrypoint   | 0x0098    |
| Data Size    | 137 bytes |
| Instructions | 30        |

```
      00 01 02 03 04 05 06 07  08 09 0A 0B 0C 0D 0E 0F
      -- -- -- -- -- -- -- --  -- -- -- -- -- -- -- --
0090:                          1E F0 FF FF 7F 6F 70 1C          .....op.
00A0: 01 80 29 0B 3D E0 0E 01  09 24 06 80 07 80 07 80  ..).=....$......
00B0: 25 02 00 10 07 80 00 06  01 03 01 10 08 80 29 0B  %.............).
00C0: 3D E0 0E 01 0B 29 0B 3D  E0 0E 01 0C 24 09 80 07  =....).=....$...
00D0: 80 07 80 25 02 00 10 07  80 00 EC 00 42 03 01 10  ...%........B...
00E0: 0A 80 29 0B 3D E0 0E 01  0E 01 03 01 02 00 10 08  ..).=...........
00F0: 80 00 03 01 03 01 10 0B  80 29 0B 3D E0 0E 01 0D  .........).=....
0100: 01 03 01 01 1D 01 02 00  10 08 80 00 1D 01 03 01  ................
0110: 10 0C 80 29 0B 3D E0 0E  01 0A 01 1D 01 20 00 21  ...).=....... .!
0120: 00                                                .               
```

#### Opcodes

```
  0: 0x0098 [0x1E] EventEntity looks at LocalPlayer and starts talking
  1: 0x009D [0x6F] WAIT_FRAME_DELAY: Yield until WaitTime reaches zero
  2: 0x009E [0x70] WAIT_ENTITY_RENDER_FLAG: Wait while EventEntity->Render.Flags3 bit 2 is set (cancel turn if not)
  3: 0x009F [0x1C] WAIT(30* ticks)
  4: 0x00A2 [0x29] REQ_SET_WAIT(priority=0x0B, entity_id=Mashuu-Ajuu (ID: 17752125/0x010EE03D), tag_num=0x09)
  5: 0x00A9 [0x24] CREATE_DIALOG(message_id=8427*, default_option=0*, option_flags=0*)
    → "Busy...? [No. Just a busybody./Yes. Busy as a bee!]"
  6: 0x00B0 [0x25] WAIT_DIALOG_SELECT()
  7: 0x00B1 [0x02] IF !(Work_Zone[0] == 0*) GOTO 0x0106
  8: 0x00B9 [0x03] Work_Zone[1] = 1*
  9: 0x00BE [0x29] REQ_SET_WAIT(priority=0x0B, entity_id=Mashuu-Ajuu (ID: 17752125/0x010EE03D), tag_num=0x0B)
 10: 0x00C5 [0x29] REQ_SET_WAIT(priority=0x0B, entity_id=Mashuu-Ajuu (ID: 17752125/0x010EE03D), tag_num=0x0C)
 11: 0x00CC [0x24] CREATE_DIALOG(message_id=8432*, default_option=0*, option_flags=0*)
    → "Help out with your green thumb? [Thumbs up!/Thumbs down!]"
 12: 0x00D3 [0x25] WAIT_DIALOG_SELECT()
 13: 0x00D4 [0x02] IF !(Work_Zone[0] == 0*) GOTO 0x00EC
 14: 0x00DC [0x42] SET_CLI_EVENT_CANCEL_DATA()
 15: 0x00DD [0x03] Work_Zone[1] = 3*
 16: 0x00E2 [0x29] REQ_SET_WAIT(priority=0x0B, entity_id=Mashuu-Ajuu (ID: 17752125/0x010EE03D), tag_num=0x0E)
 17: 0x00E9 [0x01] GOTO 0x0103
 18: 0x00EC [0x02] IF !(Work_Zone[0] == 1*) GOTO 0x0103
 19: 0x00F4 [0x03] Work_Zone[1] = 4*
 20: 0x00F9 [0x29] REQ_SET_WAIT(priority=0x0B, entity_id=Mashuu-Ajuu (ID: 17752125/0x010EE03D), tag_num=0x0D)
 21: 0x0100 [0x01] GOTO 0x0103

SUBROUTINE_0103:
 22: 0x0103 [0x01] GOTO 0x011D
 23: 0x0106 [0x02] IF !(Work_Zone[0] == 1*) GOTO 0x011D
 24: 0x010E [0x03] Work_Zone[1] = 2*
 25: 0x0113 [0x29] REQ_SET_WAIT(priority=0x0B, entity_id=Mashuu-Ajuu (ID: 17752125/0x010EE03D), tag_num=0x0A)
 26: 0x011A [0x01] GOTO 0x011D

SUBROUTINE_011D:
 27: 0x011D [0x20] SET_CLI_EVENT_UC_FLAG: Unlock player control
 28: 0x011F [0x21] END_EVENT
 29: 0x0120 [0x00] END_REQSTACK()
```

### Event 65535.6

#### Metadata

| Field        | Value    |
|--------------|----------|
| Entrypoint   | 0x0121   |
| Data Size    | 19 bytes |
| Instructions | 5        |

```
      00 01 02 03 04 05 06 07  08 09 0A 0B 0C 0D 0E 0F
      -- -- -- -- -- -- -- --  -- -- -- -- -- -- -- --
0120:    29 08 3D E0 0E 01 01  1D 0D 80 23 29 08 3D E0   ).=.......#).=.
0130: 0E 01 02 00                                       ....            
```

#### Opcodes

```
  0: 0x0121 [0x29] REQ_SET_WAIT(priority=0x08, entity_id=Mashuu-Ajuu (ID: 17752125/0x010EE03D), tag_num=0x01)
  1: 0x0128 [0x1D] PRINT_EVENT_MESSAGE(message_id=8426*)
    → "Hey, are you busy?"
  2: 0x012B [0x23] WAIT_FOR_DIALOG_INTERACTION
  3: 0x012C [0x29] REQ_SET_WAIT(priority=0x08, entity_id=Mashuu-Ajuu (ID: 17752125/0x010EE03D), tag_num=0x02)
  4: 0x0133 [0x00] END_REQSTACK()
```

### Event 65535.7

#### Metadata

| Field        | Value    |
|--------------|----------|
| Entrypoint   | 0x0134   |
| Data Size    | 19 bytes |
| Instructions | 5        |

```
      00 01 02 03 04 05 06 07  08 09 0A 0B 0C 0D 0E 0F
      -- -- -- -- -- -- -- --  -- -- -- -- -- -- -- --
0130:             29 08 3D E0  0E 01 01 1D 0E 80 23 29      ).=.......#)
0140: 08 3D E0 0E 01 05 00                              .=.....         
```

#### Opcodes

```
  0: 0x0134 [0x29] REQ_SET_WAIT(priority=0x08, entity_id=Mashuu-Ajuu (ID: 17752125/0x010EE03D), tag_num=0x01)
  1: 0x013B [0x1D] PRINT_EVENT_MESSAGE(message_id=8428*)
    → "Well then, buzz off!"
  2: 0x013E [0x23] WAIT_FOR_DIALOG_INTERACTION
  3: 0x013F [0x29] REQ_SET_WAIT(priority=0x08, entity_id=Mashuu-Ajuu (ID: 17752125/0x010EE03D), tag_num=0x05)
  4: 0x0146 [0x00] END_REQSTACK()
```

### Event 65535.8

#### Metadata

| Field        | Value    |
|--------------|----------|
| Entrypoint   | 0x0147   |
| Data Size    | 19 bytes |
| Instructions | 5        |

```
      00 01 02 03 04 05 06 07  08 09 0A 0B 0C 0D 0E 0F
      -- -- -- -- -- -- -- --  -- -- -- -- -- -- -- --
0140:                      29  08 3D E0 0E 01 01 1D 0F         ).=......
0150: 80 23 29 08 3D E0 0E 01  02 00                    .#).=.....      
```

#### Opcodes

```
  0: 0x0147 [0x29] REQ_SET_WAIT(priority=0x08, entity_id=Mashuu-Ajuu (ID: 17752125/0x010EE03D), tag_num=0x01)
  1: 0x014E [0x1D] PRINT_EVENT_MESSAGE(message_id=8429*)
    → "Good, 'cause I have a favor to ask!"
  2: 0x0151 [0x23] WAIT_FOR_DIALOG_INTERACTION
  3: 0x0152 [0x29] REQ_SET_WAIT(priority=0x08, entity_id=Mashuu-Ajuu (ID: 17752125/0x010EE03D), tag_num=0x02)
  4: 0x0159 [0x00] END_REQSTACK()
```

### Event 65535.9

#### Metadata

| Field        | Value    |
|--------------|----------|
| Entrypoint   | 0x015A   |
| Data Size    | 23 bytes |
| Instructions | 7        |

```
      00 01 02 03 04 05 06 07  08 09 0A 0B 0C 0D 0E 0F
      -- -- -- -- -- -- -- --  -- -- -- -- -- -- -- --
0150:                                29 08 3D E0 0E 01            ).=...
0160: 03 1D 10 80 23 1D 11 80  23 29 08 3D E0 0E 01 04  ....#...#).=....
0170: 00                                                .               
```

#### Opcodes

```
  0: 0x015A [0x29] REQ_SET_WAIT(priority=0x08, entity_id=Mashuu-Ajuu (ID: 17752125/0x010EE03D), tag_num=0x03)
  1: 0x0161 [0x1D] PRINT_EVENT_MESSAGE(message_id=8430*)
    → "The other day, Mr. Moreno-Toeno gave us a homework assignment on the cultivation of plants."
  2: 0x0164 [0x23] WAIT_FOR_DIALOG_INTERACTION
  3: 0x0165 [0x1D] PRINT_EVENT_MESSAGE(message_id=8431*)
    → "I've got better things to do with my time than watch grass grow. I'd prefer to ask someone like you, who's not busy, to do it for me."
  4: 0x0168 [0x23] WAIT_FOR_DIALOG_INTERACTION
  5: 0x0169 [0x29] REQ_SET_WAIT(priority=0x08, entity_id=Mashuu-Ajuu (ID: 17752125/0x010EE03D), tag_num=0x04)
  6: 0x0170 [0x00] END_REQSTACK()
```

### Event 65535.10

#### Metadata

| Field        | Value   |
|--------------|---------|
| Entrypoint   | 0x0171  |
| Data Size    | 5 bytes |
| Instructions | 3       |

```
      00 01 02 03 04 05 06 07  08 09 0A 0B 0C 0D 0E 0F
      -- -- -- -- -- -- -- --  -- -- -- -- -- -- -- --
0170:    1D 12 80 23 00                                  ...#.          
```

#### Opcodes

```
  0: 0x0171 [0x1D] PRINT_EVENT_MESSAGE(message_id=8433*)
    → "Gee... It's not like I'm asking for an arm and a leg, or something. That's why I hate adults!"
  1: 0x0174 [0x23] WAIT_FOR_DIALOG_INTERACTION
  2: 0x0175 [0x00] END_REQSTACK()
```

### Event 65535.11

#### Metadata

| Field        | Value    |
|--------------|----------|
| Entrypoint   | 0x0176   |
| Data Size    | 23 bytes |
| Instructions | 7        |

```
      00 01 02 03 04 05 06 07  08 09 0A 0B 0C 0D 0E 0F
      -- -- -- -- -- -- -- --  -- -- -- -- -- -- -- --
0170:                   29 08  3D E0 0E 01 01 1D 13 80        ).=.......
0180: 23 1D 14 80 23 29 08 3D  E0 0E 01 02 00           #...#).=.....   
```

#### Opcodes

```
  0: 0x0176 [0x29] REQ_SET_WAIT(priority=0x08, entity_id=Mashuu-Ajuu (ID: 17752125/0x010EE03D), tag_num=0x01)
  1: 0x017D [0x1D] PRINT_EVENT_MESSAGE(message_id=8434*)
    → "Great! Thanks. Then go plant $2 in a flowerpot for me, and check on them once a day until they grow into something that'll impress everyone."
  2: 0x0180 [0x23] WAIT_FOR_DIALOG_INTERACTION
  3: 0x0181 [0x1D] PRINT_EVENT_MESSAGE(message_id=8435*)
    → "Just telling you...I'm out to impress. You've got to grow at least $1, or else I'm not paying you anything for your help, all right?"
  4: 0x0184 [0x23] WAIT_FOR_DIALOG_INTERACTION
  5: 0x0185 [0x29] REQ_SET_WAIT(priority=0x08, entity_id=Mashuu-Ajuu (ID: 17752125/0x010EE03D), tag_num=0x02)
  6: 0x018C [0x00] END_REQSTACK()
```

### Event 464

#### Metadata

| Field        | Value    |
|--------------|----------|
| Entrypoint   | 0x018D   |
| Data Size    | 33 bytes |
| Instructions | 12       |

```
      00 01 02 03 04 05 06 07  08 09 0A 0B 0C 0D 0E 0F
      -- -- -- -- -- -- -- --  -- -- -- -- -- -- -- --
0180:                                         1E F0 FF               ...
0190: FF 7F 6F 70 29 08 3D E0  0E 01 01 1D 15 80 23 1D  ..op).=.......#.
01A0: 16 80 23 29 08 3D E0 0E  01 02 20 00 21 00        ..#).=.... .!.  
```

#### Opcodes

```
  0: 0x018D [0x1E] EventEntity looks at LocalPlayer and starts talking
  1: 0x0192 [0x6F] WAIT_FRAME_DELAY: Yield until WaitTime reaches zero
  2: 0x0193 [0x70] WAIT_ENTITY_RENDER_FLAG: Wait while EventEntity->Render.Flags3 bit 2 is set (cancel turn if not)
  3: 0x0194 [0x29] REQ_SET_WAIT(priority=0x08, entity_id=Mashuu-Ajuu (ID: 17752125/0x010EE03D), tag_num=0x01)
  4: 0x019B [0x1D] PRINT_EVENT_MESSAGE(message_id=8436*)
    → "For me to be top of the class, then you'll at least need to grow $1 from $2, okay?"
  5: 0x019E [0x23] WAIT_FOR_DIALOG_INTERACTION
  6: 0x019F [0x1D] PRINT_EVENT_MESSAGE(message_id=8437*)
    → "Don't think I'll be cheap just 'coz I'm a kid. I'll reward you on how good a gardener you are."
  7: 0x01A2 [0x23] WAIT_FOR_DIALOG_INTERACTION
  8: 0x01A3 [0x29] REQ_SET_WAIT(priority=0x08, entity_id=Mashuu-Ajuu (ID: 17752125/0x010EE03D), tag_num=0x02)
  9: 0x01AA [0x20] SET_CLI_EVENT_UC_FLAG: Unlock player control
 10: 0x01AC [0x21] END_EVENT
 11: 0x01AD [0x00] END_REQSTACK()
```

### Event 475

#### Metadata

| Field        | Value    |
|--------------|----------|
| Entrypoint   | 0x01AE   |
| Data Size    | 73 bytes |
| Instructions | 18       |

```
      00 01 02 03 04 05 06 07  08 09 0A 0B 0C 0D 0E 0F
      -- -- -- -- -- -- -- --  -- -- -- -- -- -- -- --
01A0:                                            20 01                 .
01B0: 42 1E F0 FF FF 7F 6F 70  29 08 3D E0 0E 01 01 1D  B.....op).=.....
01C0: 17 80 23 29 08 3D E0 0E  01 02 02 03 10 08 80 00  ..#).=..........
01D0: DA 01 03 01 10 08 80 01  DF 01 03 01 10 07 80 45  ...............E
01E0: 18 80 F0 FF FF 7F F0 FF  FF 7F 71 73 74 63 07 80  ..........qstc..
01F0: 48 19 80 20 00 21 00                              H.. .!.         
```

#### Opcodes

```
  0: 0x01AE [0x20] SET_CLI_EVENT_UC_FLAG: Lock player control
  1: 0x01B0 [0x42] SET_CLI_EVENT_CANCEL_DATA()
  2: 0x01B1 [0x1E] EventEntity looks at LocalPlayer and starts talking
  3: 0x01B6 [0x6F] WAIT_FRAME_DELAY: Yield until WaitTime reaches zero
  4: 0x01B7 [0x70] WAIT_ENTITY_RENDER_FLAG: Wait while EventEntity->Render.Flags3 bit 2 is set (cancel turn if not)
  5: 0x01B8 [0x29] REQ_SET_WAIT(priority=0x08, entity_id=Mashuu-Ajuu (ID: 17752125/0x010EE03D), tag_num=0x01)
  6: 0x01BF [0x1D] PRINT_EVENT_MESSAGE(message_id=8453*)
    → "Humph! You only brought me what I asked for... I guess it would have been expecting too much for anything more than that, huh? Stick to adventuring next time..."
  7: 0x01C2 [0x23] WAIT_FOR_DIALOG_INTERACTION
  8: 0x01C3 [0x29] REQ_SET_WAIT(priority=0x08, entity_id=Mashuu-Ajuu (ID: 17752125/0x010EE03D), tag_num=0x02)
  9: 0x01CA [0x02] IF !(Work_Zone[3] == 1*) GOTO 0x01DA
 10: 0x01D2 [0x03] Work_Zone[1] = 1*
 11: 0x01D7 [0x01] GOTO 0x01DF
 12: 0x01DA [0x03] Work_Zone[1] = 0*

SUBROUTINE_01DF:
 13: 0x01DF [0x45] LOAD_SCHEDULED_TASK: Load scheduler "qstc" with entities [LocalPlayer, LocalPlayer], work=[201*, 0*]
 14: 0x01F0 [0x48] [System] [6552*]:
    → "Obtained $0 gil."
 15: 0x01F3 [0x20] SET_CLI_EVENT_UC_FLAG: Unlock player control
 16: 0x01F5 [0x21] END_EVENT
 17: 0x01F6 [0x00] END_REQSTACK()
```

### Event 476

#### Metadata

| Field        | Value    |
|--------------|----------|
| Entrypoint   | 0x01F7   |
| Data Size    | 33 bytes |
| Instructions | 12       |

```
      00 01 02 03 04 05 06 07  08 09 0A 0B 0C 0D 0E 0F
      -- -- -- -- -- -- -- --  -- -- -- -- -- -- -- --
01F0:                      1E  F0 FF FF 7F 6F 70 29 08         .....op).
0200: 3D E0 0E 01 01 1D 1A 80  23 1D 1B 80 23 29 08 3D  =.......#...#).=
0210: E0 0E 01 02 20 00 21 00                           .... .!.        
```

#### Opcodes

```
  0: 0x01F7 [0x1E] EventEntity looks at LocalPlayer and starts talking
  1: 0x01FC [0x6F] WAIT_FRAME_DELAY: Yield until WaitTime reaches zero
  2: 0x01FD [0x70] WAIT_ENTITY_RENDER_FLAG: Wait while EventEntity->Render.Flags3 bit 2 is set (cancel turn if not)
  3: 0x01FE [0x29] REQ_SET_WAIT(priority=0x08, entity_id=Mashuu-Ajuu (ID: 17752125/0x010EE03D), tag_num=0x01)
  4: 0x0205 [0x1D] PRINT_EVENT_MESSAGE(message_id=8454*)
    → "I wonder if I'll ever get the chance to meet a higher-level adventurer?"
  5: 0x0208 [0x23] WAIT_FOR_DIALOG_INTERACTION
  6: 0x0209 [0x1D] PRINT_EVENT_MESSAGE(message_id=8455*)
    → "Being stuck in this School of Magic all day means I don't get to meet many people."
  7: 0x020C [0x23] WAIT_FOR_DIALOG_INTERACTION
  8: 0x020D [0x29] REQ_SET_WAIT(priority=0x08, entity_id=Mashuu-Ajuu (ID: 17752125/0x010EE03D), tag_num=0x02)
  9: 0x0214 [0x20] SET_CLI_EVENT_UC_FLAG: Unlock player control
 10: 0x0216 [0x21] END_EVENT
 11: 0x0217 [0x00] END_REQSTACK()
```

### Event 477

#### Metadata

| Field        | Value    |
|--------------|----------|
| Entrypoint   | 0x0218   |
| Data Size    | 77 bytes |
| Instructions | 20       |

```
      00 01 02 03 04 05 06 07  08 09 0A 0B 0C 0D 0E 0F
      -- -- -- -- -- -- -- --  -- -- -- -- -- -- -- --
0210:                          20 01 42 1E F0 FF FF 7F           .B.....
0220: 6F 70 29 08 3D E0 0E 01  01 1D 1C 80 23 1D 1D 80  op).=.......#...
0230: 23 29 08 3D E0 0E 01 02  02 03 10 08 80 00 48 02  #).=..........H.
0240: 03 01 10 08 80 01 4D 02  03 01 10 07 80 45 18 80  ......M......E..
0250: F0 FF FF 7F F0 FF FF 7F  71 73 74 63 07 80 48 19  ........qstc..H.
0260: 80 20 00 21 00                                    . .!.           
```

#### Opcodes

```
  0: 0x0218 [0x20] SET_CLI_EVENT_UC_FLAG: Lock player control
  1: 0x021A [0x42] SET_CLI_EVENT_CANCEL_DATA()
  2: 0x021B [0x1E] EventEntity looks at LocalPlayer and starts talking
  3: 0x0220 [0x6F] WAIT_FRAME_DELAY: Yield until WaitTime reaches zero
  4: 0x0221 [0x70] WAIT_ENTITY_RENDER_FLAG: Wait while EventEntity->Render.Flags3 bit 2 is set (cancel turn if not)
  5: 0x0222 [0x29] REQ_SET_WAIT(priority=0x08, entity_id=Mashuu-Ajuu (ID: 17752125/0x010EE03D), tag_num=0x01)
  6: 0x0229 [0x1D] PRINT_EVENT_MESSAGE(message_id=8456*)
    → "Wow! Well done! What kinda crystal did you feed it to grow something like this?"
  7: 0x022C [0x23] WAIT_FOR_DIALOG_INTERACTION
  8: 0x022D [0x1D] PRINT_EVENT_MESSAGE(message_id=8457*)
    → "I might even be able to beat Kirarara with this. You deserve every gil of your reward!"
  9: 0x0230 [0x23] WAIT_FOR_DIALOG_INTERACTION
 10: 0x0231 [0x29] REQ_SET_WAIT(priority=0x08, entity_id=Mashuu-Ajuu (ID: 17752125/0x010EE03D), tag_num=0x02)
 11: 0x0238 [0x02] IF !(Work_Zone[3] == 1*) GOTO 0x0248
 12: 0x0240 [0x03] Work_Zone[1] = 1*
 13: 0x0245 [0x01] GOTO 0x024D
 14: 0x0248 [0x03] Work_Zone[1] = 0*

SUBROUTINE_024D:
 15: 0x024D [0x45] LOAD_SCHEDULED_TASK: Load scheduler "qstc" with entities [LocalPlayer, LocalPlayer], work=[201*, 0*]
 16: 0x025E [0x48] [System] [6552*]:
    → "Obtained $0 gil."
 17: 0x0261 [0x20] SET_CLI_EVENT_UC_FLAG: Unlock player control
 18: 0x0263 [0x21] END_EVENT
 19: 0x0264 [0x00] END_REQSTACK()
```

### Event 478

#### Metadata

| Field        | Value    |
|--------------|----------|
| Entrypoint   | 0x0265   |
| Data Size    | 29 bytes |
| Instructions | 10       |

```
      00 01 02 03 04 05 06 07  08 09 0A 0B 0C 0D 0E 0F
      -- -- -- -- -- -- -- --  -- -- -- -- -- -- -- --
0260:                1E F0 FF  FF 7F 6F 70 29 08 3D E0       .....op).=.
0270: 0E 01 01 1D 1E 80 23 29  08 3D E0 0E 01 02 20 00  ......#).=.... .
0280: 21 00                                             !.              
```

#### Opcodes

```
  0: 0x0265 [0x1E] EventEntity looks at LocalPlayer and starts talking
  1: 0x026A [0x6F] WAIT_FRAME_DELAY: Yield until WaitTime reaches zero
  2: 0x026B [0x70] WAIT_ENTITY_RENDER_FLAG: Wait while EventEntity->Render.Flags3 bit 2 is set (cancel turn if not)
  3: 0x026C [0x29] REQ_SET_WAIT(priority=0x08, entity_id=Mashuu-Ajuu (ID: 17752125/0x010EE03D), tag_num=0x01)
  4: 0x0273 [0x1D] PRINT_EVENT_MESSAGE(message_id=8458*)
    → "With this, I'll be able to beat Kirarara at last! But, wait... What if Kirarara also got an adventurer to help her with her homework, too?"
  5: 0x0276 [0x23] WAIT_FOR_DIALOG_INTERACTION
  6: 0x0277 [0x29] REQ_SET_WAIT(priority=0x08, entity_id=Mashuu-Ajuu (ID: 17752125/0x010EE03D), tag_num=0x02)
  7: 0x027E [0x20] SET_CLI_EVENT_UC_FLAG: Unlock player control
  8: 0x0280 [0x21] END_EVENT
  9: 0x0281 [0x00] END_REQSTACK()
```

### Event 479

#### Metadata

| Field        | Value    |
|--------------|----------|
| Entrypoint   | 0x0282   |
| Data Size    | 73 bytes |
| Instructions | 18       |

```
      00 01 02 03 04 05 06 07  08 09 0A 0B 0C 0D 0E 0F
      -- -- -- -- -- -- -- --  -- -- -- -- -- -- -- --
0280:       1E F0 FF FF 7F 6F  70 29 0B 3D E0 0E 01 15    .....op).=....
0290: 24 09 80 07 80 07 80 25  02 00 10 07 80 00 B0 02  $......%........
02A0: 42 03 01 10 0A 80 29 0B  3D E0 0E 01 0E 01 C7 02  B.....).=.......
02B0: 02 00 10 08 80 00 C7 02  03 01 10 0B 80 29 0B 3D  .............).=
02C0: E0 0E 01 0D 01 C7 02 20  00 21 00                 ....... .!.     
```

#### Opcodes

```
  0: 0x0282 [0x1E] EventEntity looks at LocalPlayer and starts talking
  1: 0x0287 [0x6F] WAIT_FRAME_DELAY: Yield until WaitTime reaches zero
  2: 0x0288 [0x70] WAIT_ENTITY_RENDER_FLAG: Wait while EventEntity->Render.Flags3 bit 2 is set (cancel turn if not)
  3: 0x0289 [0x29] REQ_SET_WAIT(priority=0x0B, entity_id=Mashuu-Ajuu (ID: 17752125/0x010EE03D), tag_num=0x15)
  4: 0x0290 [0x24] CREATE_DIALOG(message_id=8432*, default_option=0*, option_flags=0*)
    → "Help out with your green thumb? [Thumbs up!/Thumbs down!]"
  5: 0x0297 [0x25] WAIT_DIALOG_SELECT()
  6: 0x0298 [0x02] IF !(Work_Zone[0] == 0*) GOTO 0x02B0
  7: 0x02A0 [0x42] SET_CLI_EVENT_CANCEL_DATA()
  8: 0x02A1 [0x03] Work_Zone[1] = 3*
  9: 0x02A6 [0x29] REQ_SET_WAIT(priority=0x0B, entity_id=Mashuu-Ajuu (ID: 17752125/0x010EE03D), tag_num=0x0E)
 10: 0x02AD [0x01] GOTO 0x02C7
 11: 0x02B0 [0x02] IF !(Work_Zone[0] == 1*) GOTO 0x02C7
 12: 0x02B8 [0x03] Work_Zone[1] = 4*
 13: 0x02BD [0x29] REQ_SET_WAIT(priority=0x0B, entity_id=Mashuu-Ajuu (ID: 17752125/0x010EE03D), tag_num=0x0D)
 14: 0x02C4 [0x01] GOTO 0x02C7

SUBROUTINE_02C7:
 15: 0x02C7 [0x20] SET_CLI_EVENT_UC_FLAG: Unlock player control
 16: 0x02C9 [0x21] END_EVENT
 17: 0x02CA [0x00] END_REQSTACK()
```

### Event 65535.12

#### Metadata

| Field        | Value    |
|--------------|----------|
| Entrypoint   | 0x02CB   |
| Data Size    | 27 bytes |
| Instructions | 9        |

```
      00 01 02 03 04 05 06 07  08 09 0A 0B 0C 0D 0E 0F
      -- -- -- -- -- -- -- --  -- -- -- -- -- -- -- --
02C0:                                   29 08 3D E0 0E             ).=..
02D0: 01 01 1D 1F 80 23 1D 20  80 23 1D 21 80 23 29 08  .....#. .#.!.#).
02E0: 3D E0 0E 01 02 00                                 =.....          
```

#### Opcodes

```
  0: 0x02CB [0x29] REQ_SET_WAIT(priority=0x08, entity_id=Mashuu-Ajuu (ID: 17752125/0x010EE03D), tag_num=0x01)
  1: 0x02D2 [0x1D] PRINT_EVENT_MESSAGE(message_id=8459*)
    → "What's wrong with asking others to do the stuff you can't do yourself?"
  2: 0x02D5 [0x23] WAIT_FOR_DIALOG_INTERACTION
  3: 0x02D6 [0x1D] PRINT_EVENT_MESSAGE(message_id=8460*)
    → "It's much more efficient, and if you pay them a proper reward, then you both benefit. This is the ideology that keeps the world turning."
  4: 0x02D9 [0x23] WAIT_FOR_DIALOG_INTERACTION
  5: 0x02DA [0x1D] PRINT_EVENT_MESSAGE(message_id=8461*)
    → "But Mr. Moreno-Toeno must be the only one who doesn't know that. Anyway, that's the reason why I'm having you help with my horticultural homework again."
  6: 0x02DD [0x23] WAIT_FOR_DIALOG_INTERACTION
  7: 0x02DE [0x29] REQ_SET_WAIT(priority=0x08, entity_id=Mashuu-Ajuu (ID: 17752125/0x010EE03D), tag_num=0x02)
  8: 0x02E5 [0x00] END_REQSTACK()
```

### Event 483

#### Metadata

| Field        | Value    |
|--------------|----------|
| Entrypoint   | 0x02E6   |
| Data Size    | 33 bytes |
| Instructions | 12       |

```
      00 01 02 03 04 05 06 07  08 09 0A 0B 0C 0D 0E 0F
      -- -- -- -- -- -- -- --  -- -- -- -- -- -- -- --
02E0:                   1E F0  FF FF 7F 6F 70 29 08 3D        .....op).=
02F0: E0 0E 01 01 1D 22 80 23  1D 23 80 23 29 08 3D E0  .....".#.#.#).=.
0300: 0E 01 02 20 00 21 00                              ... .!.         
```

#### Opcodes

```
  0: 0x02E6 [0x1E] EventEntity looks at LocalPlayer and starts talking
  1: 0x02EB [0x6F] WAIT_FRAME_DELAY: Yield until WaitTime reaches zero
  2: 0x02EC [0x70] WAIT_ENTITY_RENDER_FLAG: Wait while EventEntity->Render.Flags3 bit 2 is set (cancel turn if not)
  3: 0x02ED [0x29] REQ_SET_WAIT(priority=0x08, entity_id=Mashuu-Ajuu (ID: 17752125/0x010EE03D), tag_num=0x01)
  4: 0x02F4 [0x1D] PRINT_EVENT_MESSAGE(message_id=8469*)
    → "Paku-Nakku's attitude to learning is so bad. He's always half-asleep in class lately."
  5: 0x02F7 [0x23] WAIT_FOR_DIALOG_INTERACTION
  6: 0x02F8 [0x1D] PRINT_EVENT_MESSAGE(message_id=8470*)
    → "His consistent yawning gets on my nerves. If only there was some spell to stop yawning, I'd soon fix him!"
  7: 0x02FB [0x23] WAIT_FOR_DIALOG_INTERACTION
  8: 0x02FC [0x29] REQ_SET_WAIT(priority=0x08, entity_id=Mashuu-Ajuu (ID: 17752125/0x010EE03D), tag_num=0x02)
  9: 0x0303 [0x20] SET_CLI_EVENT_UC_FLAG: Unlock player control
 10: 0x0305 [0x21] END_EVENT
 11: 0x0306 [0x00] END_REQSTACK()
```

### Event 501

#### Metadata

| Field        | Value    |
|--------------|----------|
| Entrypoint   | 0x0307   |
| Data Size    | 33 bytes |
| Instructions | 12       |

```
      00 01 02 03 04 05 06 07  08 09 0A 0B 0C 0D 0E 0F
      -- -- -- -- -- -- -- --  -- -- -- -- -- -- -- --
0300:                      1E  F0 FF FF 7F 6F 70 29 08         .....op).
0310: 3D E0 0E 01 01 1D 24 80  23 1D 25 80 23 29 08 3D  =.....$.#.%.#).=
0320: E0 0E 01 02 20 00 21 00                           .... .!.        
```

#### Opcodes

```
  0: 0x0307 [0x1E] EventEntity looks at LocalPlayer and starts talking
  1: 0x030C [0x6F] WAIT_FRAME_DELAY: Yield until WaitTime reaches zero
  2: 0x030D [0x70] WAIT_ENTITY_RENDER_FLAG: Wait while EventEntity->Render.Flags3 bit 2 is set (cancel turn if not)
  3: 0x030E [0x29] REQ_SET_WAIT(priority=0x08, entity_id=Mashuu-Ajuu (ID: 17752125/0x010EE03D), tag_num=0x01)
  4: 0x0315 [0x1D] PRINT_EVENT_MESSAGE(message_id=8514*)
    → "What's all the noise about? You're disturbing the class."
  5: 0x0318 [0x23] WAIT_FOR_DIALOG_INTERACTION
  6: 0x0319 [0x1D] PRINT_EVENT_MESSAGE(message_id=8515*)
    → "If you and Paku-Nakku don't shut up, I'll cast Silence on the both of you!"
  7: 0x031C [0x23] WAIT_FOR_DIALOG_INTERACTION
  8: 0x031D [0x29] REQ_SET_WAIT(priority=0x08, entity_id=Mashuu-Ajuu (ID: 17752125/0x010EE03D), tag_num=0x02)
  9: 0x0324 [0x20] SET_CLI_EVENT_UC_FLAG: Unlock player control
 10: 0x0326 [0x21] END_EVENT
 11: 0x0327 [0x00] END_REQSTACK()
```

### Event 448

#### Metadata

| Field        | Value    |
|--------------|----------|
| Entrypoint   | 0x0328   |
| Data Size    | 33 bytes |
| Instructions | 12       |

```
      00 01 02 03 04 05 06 07  08 09 0A 0B 0C 0D 0E 0F
      -- -- -- -- -- -- -- --  -- -- -- -- -- -- -- --
0320:                          1E F0 FF FF 7F 6F 70 29          .....op)
0330: 08 3D E0 0E 01 01 1D 26  80 23 1D 27 80 23 29 08  .=.....&.#.'.#).
0340: 3D E0 0E 01 02 20 00 21  00                       =.... .!.       
```

#### Opcodes

```
  0: 0x0328 [0x1E] EventEntity looks at LocalPlayer and starts talking
  1: 0x032D [0x6F] WAIT_FRAME_DELAY: Yield until WaitTime reaches zero
  2: 0x032E [0x70] WAIT_ENTITY_RENDER_FLAG: Wait while EventEntity->Render.Flags3 bit 2 is set (cancel turn if not)
  3: 0x032F [0x29] REQ_SET_WAIT(priority=0x08, entity_id=Mashuu-Ajuu (ID: 17752125/0x010EE03D), tag_num=0x01)
  4: 0x0336 [0x1D] PRINT_EVENT_MESSAGE(message_id=8395*)
    → "I'm pretty confident about my results for the written exam. In fact, I think I did better than Kirarara!"
  5: 0x0339 [0x23] WAIT_FOR_DIALOG_INTERACTION
  6: 0x033A [0x1D] PRINT_EVENT_MESSAGE(message_id=8396*)
    → "But poor Chomoro-Kyotoro is in hot water. If he gets less than 50%, it's back to the beginners class for him."
  7: 0x033D [0x23] WAIT_FOR_DIALOG_INTERACTION
  8: 0x033E [0x29] REQ_SET_WAIT(priority=0x08, entity_id=Mashuu-Ajuu (ID: 17752125/0x010EE03D), tag_num=0x02)
  9: 0x0345 [0x20] SET_CLI_EVENT_UC_FLAG: Unlock player control
 10: 0x0347 [0x21] END_EVENT
 11: 0x0348 [0x00] END_REQSTACK()
```
