# 17752148 - Naiko-Paneiko

## Common Data

| Field            | Value                     |
|------------------|---------------------------|
| Zone             | Windurst Waters (ID: 238) |
| Block Size       | 2324 bytes                |
| Total Events     | 58                        |
| References Count | 63                        |

## List of Events

| Event ID                   | Entrypoint   |   Size |   Instructions |
|----------------------------|--------------|--------|----------------|
| [65535](#event-65535)      | 0x0000       |      1 |              1 |
| [65535.1](#event-655351)   | 0x0001       |     16 |              2 |
| [65535.2](#event-655352)   | 0x0011       |     22 |              4 |
| [65535.3](#event-655353)   | 0x0027       |     16 |              2 |
| [65535.4](#event-655354)   | 0x0037       |     14 |              2 |
| [65535.5](#event-655355)   | 0x0045       |     16 |              2 |
| [65535.6](#event-655356)   | 0x0055       |     14 |              2 |
| [65535.7](#event-655357)   | 0x0063       |     16 |              2 |
| [65535.8](#event-655358)   | 0x0073       |     14 |              2 |
| [65535.9](#event-655359)   | 0x0081       |     16 |              2 |
| [65535.10](#event-6553510) | 0x0091       |     22 |              4 |
| [65535.11](#event-6553511) | 0x00A7       |     16 |              2 |
| [65535.12](#event-6553512) | 0x00B7       |     14 |              2 |
| [65535.13](#event-6553513) | 0x00C5       |     16 |              2 |
| [65535.14](#event-6553514) | 0x00D5       |     14 |              2 |
| [65535.15](#event-6553515) | 0x00E3       |     16 |              2 |
| [65535.16](#event-6553516) | 0x00F3       |     14 |              2 |
| [65535.17](#event-6553517) | 0x0101       |     16 |              2 |
| [65535.18](#event-6553518) | 0x0111       |     14 |              2 |
| [65535.19](#event-6553519) | 0x011F       |     16 |              2 |
| [65535.20](#event-6553520) | 0x012F       |     14 |              2 |
| [65535.21](#event-6553521) | 0x013D       |     16 |              2 |
| [65535.22](#event-6553522) | 0x014D       |     22 |              4 |
| [65535.23](#event-6553523) | 0x0163       |     16 |              2 |
| [65535.24](#event-6553524) | 0x0173       |     22 |              4 |
| [65535.25](#event-6553525) | 0x0189       |     16 |              2 |
| [65535.26](#event-6553526) | 0x0199       |     14 |              2 |
| [65535.27](#event-6553527) | 0x01A7       |     16 |              2 |
| [65535.28](#event-6553528) | 0x01B7       |     14 |              2 |
| [65535.29](#event-6553529) | 0x01C5       |      9 |              3 |
| [663](#event-663)          | 0x01CE       |     33 |             12 |
| [665](#event-665)          | 0x01EF       |     87 |             24 |
| [666](#event-666)          | 0x0246       |     33 |             12 |
| [670](#event-670)          | 0x0267       |     59 |             13 |
| [65535.30](#event-6553530) | 0x02A2       |     19 |              5 |
| [65535.31](#event-6553531) | 0x02B5       |     63 |             17 |
| [65535.32](#event-6553532) | 0x02F4       |     55 |             13 |
| [65535.33](#event-6553533) | 0x032B       |      9 |              5 |
| [65535.34](#event-6553534) | 0x0334       |     19 |              5 |
| [671](#event-671)          | 0x0347       |     29 |             10 |
| [673](#event-673)          | 0x0364       |     64 |             18 |
| [674](#event-674)          | 0x03A4       |     45 |             11 |
| [676](#event-676)          | 0x03D1       |     32 |              9 |
| [65535.35](#event-6553535) | 0x03F1       |     12 |              4 |
| [65535.36](#event-6553536) | 0x03FD       |     30 |              8 |
| [65535.37](#event-6553537) | 0x041B       |     19 |              5 |
| [677](#event-677)          | 0x042E       |     29 |             10 |
| [678](#event-678)          | 0x044B       |     29 |             10 |
| [680](#event-680)          | 0x0468       |    582 |             78 |
| [65535.38](#event-6553538) | 0x06AE       |     23 |              7 |
| [65535.39](#event-6553539) | 0x06C5       |      5 |              3 |
| [65535.40](#event-6553540) | 0x06CA       |      5 |              3 |
| [65535.41](#event-6553541) | 0x06CF       |      5 |              3 |
| [65535.42](#event-6553542) | 0x06D4       |      5 |              3 |
| [65535.43](#event-6553543) | 0x06D9       |      9 |              5 |
| [65535.44](#event-6553544) | 0x06E2       |      5 |              3 |
| [65535.45](#event-6553545) | 0x06E7       |     23 |              7 |
| [681](#event-681)          | 0x06FE       |     33 |             12 |

## DAT References (imed_data)

|   Index | Hex Value   |   Dec Value |
|---------|-------------|-------------|
|       0 | 0x0028      |          40 |
|       1 | 0x001E      |          30 |
|       2 | 0x002A      |          42 |
|       3 | 0x0029      |          41 |
|       4 | 0x2377      |        9079 |
|       5 | 0x2378      |        9080 |
|       6 | 0x237B      |        9083 |
|       7 | 0x237C      |        9084 |
|       8 | 0x237D      |        9085 |
|       9 | 0x237E      |        9086 |
|      10 | 0x237F      |        9087 |
|      11 | 0x2380      |        9088 |
|      12 | 0x2381      |        9089 |
|      13 | 0x00C9      |         201 |
|      14 | 0x0000      |           0 |
|      15 | 0x2389      |        9097 |
|      16 | 0x238A      |        9098 |
|      17 | 0x238B      |        9099 |
|      18 | 0x238C      |        9100 |
|      19 | 0x238D      |        9101 |
|      20 | 0x238E      |        9102 |
|      21 | 0x238F      |        9103 |
|      22 | 0x2390      |        9104 |
|      23 | 0x2391      |        9105 |
|      24 | 0x2392      |        9106 |
|      25 | 0x2393      |        9107 |
|      26 | 0x2394      |        9108 |
|      27 | 0x2395      |        9109 |
|      28 | 0x2398      |        9112 |
|      29 | 0x2399      |        9113 |
|      30 | 0x239C      |        9116 |
|      31 | 0x239D      |        9117 |
|      32 | 0x239E      |        9118 |
|      33 | 0x239F      |        9119 |
|      34 | 0x23A0      |        9120 |
|      35 | 0x23A1      |        9121 |
|      36 | 0x00C8      |         200 |
|      37 | 0x0064      |         100 |
|      38 | 0x0185      |         389 |
|      39 | 0x007B      |         123 |
|      40 | 0x007F      |         127 |
|      41 | 0x0003      |           3 |
|      42 | 0x008A      |         138 |
|      43 | 0x003C      |          60 |
|      44 | 0x0F46      |        3910 |
|      45 | 0x23A9      |        9129 |
|      46 | 0x23AB      |        9131 |
|      47 | 0x012C      |         300 |
|      48 | 0x0097      |         151 |
|      49 | 0x0001      |           1 |
|      50 | 0x23A4      |        9124 |
|      51 | 0x23A5      |        9125 |
|      52 | 0x23A6      |        9126 |
|      53 | 0x23A7      |        9127 |
|      54 | 0x23A8      |        9128 |
|      55 | 0x23AA      |        9130 |
|      56 | 0x23AC      |        9132 |
|      57 | 0x23AD      |        9133 |
|      58 | 0x23AE      |        9134 |
|      59 | 0x23AF      |        9135 |
|      60 | 0x23B0      |        9136 |
|      61 | 0x23B1      |        9137 |
|      62 | 0x23B2      |        9138 |

## String References

- **9079**: Work harder! Work harder!
- **9080**: The Tarutaru Times Company can never rest! We can't afford to miss the publication deadline of our "Magic Paradise Weekly"! It's the only source of reliable news in Windurst. So work harder!
- **9083**: I'm the editor of the only source of reliable news in Windurst, the Tarutaru Times Company's "Magic Paradise Weekly"!
- **9084**: Hmm... What should I do for our next feature? I need a snappy exclusive to hook the customers!
- **9085**: Your average news item just doesn't cut it with the intelligentsia who live around Windurst.
- **9086**: Come to think of it, those reporters we dispatched to each of the different districts of Windurst haven't reported in at all. It's way past their deadline...!
- **9087**: Hey, you there...kid! Have you seen any of my reporters around town? If you happen to see them, make yourself useful and tell them to hand in their news articles!
- **9088**: The reporters we dispatched to each of the different districts of Windurst haven't reported in at all. It's way past their deadline, too!
- **9089**: If you happen to see them, kid, make yourself useful and tell them to hand in their news articles!
- **9097**: Well done, kid. Seems like you got the lot here...
- **9098**: Humph?
- **9099**: Hmm...
- **9100**: A-huh.....?
- **9101**: ..............................
- **9102**: ......................This could be it!
- **9103**: Hey, kid! Did you confirm the veracity of Umumu's article properly before submitting it to me?
- **9104**: If her information is correct, then this could be the exclusive scoop we've been looking for!
- **9105**: This year's Pulitzer-Bulitzer Prize for journalism will go to our article on "Where the Cat Burglar Hides her Kitty"!
- **9106**: Well done. Nicely scooped, kid! I'll make Umumu's article the exclusive feature of our next issue.
- **9107**: This year's Pulitzer-Bulitzer Prize for journalism will go to our article on "Where the Cat Burglar Hides her Kitty"!
- **9108**: Well, we better get busy and put this into production. Here's your reward, kid. Now scram!
- **9109**: Hurry up and get this article into production! Move it! Move it!
- **9112**: Hey, kid! Did you confirm the veracity of Umumu's article before submitting it to me? Did you check whether the Cat Burglar's hideout is under the Horutoto Ruins or not?
- **9113**: What the...? The first rule of journalism is to always check your sources, kid. We ain't no amateur tabloid here!
- **9116**: St-st-stolen! Our proof copy has been stolen!
- **9117**: The proof copy of our next "Magic Paradise Weekly" with the exclusive report on the Cat Burglar's hideout is gone!
- **9118**: Someone st-st-stole it! Aaawwrrghhh!
- **9119**: There's only one person who could have done this... None other than the Cat Burglar herself! We've got to get it back, kid! Go! Get moving!
- **9120**: There's only one person who could have stolen it...the Cat Burglar herself! We've got to get the proof copy back, kid! Go! Get moving!
- **9121**: What's that dirty little box you have there, kid? The "Magic Paradise Weekly" editing room has no need for that, do we, now?
- **9124**: What's that, you say? The stolen proof copy of next week's "Magic Paradise Weekly" is in this box?
- **9125**: Let me see... Hmm... Let me see...
- **9126**: You're rightaru! This really is the stolen proof copy of our "Magic Paradise Weekly"!
- **9127**: Now that we have this magic doll back, everything's all right! This talking doll has recorded all our reporters' articles and interviews with important people. Everything we need to go to production is in here.
- **9128**: Here we go...! Switch on!
- **9130**: Wha-wha-wha-wha-what!?
- **9132**: Damn that cursed Cat Burglar!!! She recorded over our data by making the doll memorize a new message!
- **9133**: Waaah! This means we've lost the entire contents of our next "Magic Paradise Weekly"! <Sniff>... Boo-hoo-ho\`o!!!
- **9134**: I guess it just goes to prove the old saying... "If you can't say anything nice about someone, then don't say it atarull!"
- **9135**: You there, kid! Bravo on getting our magic doll back from the paws of that thieving Cat Burglar!
- **9136**: Let me show my appreciation for your work there, kid... Thanks!
- **9137**: What!? You thought our "Magic Paradise Weekly" was a newspaper or a book or something?
- **9138**: Don't assume we're behind the Times, kid. "Magic Paradise Weekly" is at the forefront of modern technology.

## Events

### Event 65535

#### Metadata

| Field        | Value   |
|--------------|---------|
| Entrypoint   | 0x0000  |
| Data Size    | 1 bytes |
| Instructions | 1       |

```
      00 01 02 03 04 05 06 07  08 09 0A 0B 0C 0D 0E 0F
      -- -- -- -- -- -- -- --  -- -- -- -- -- -- -- --
0000: 00                                                .               
```

#### Opcodes

```
  0: 0x0000 [0x00] END_REQSTACK()
```

### Event 65535.1

#### Metadata

| Field        | Value    |
|--------------|----------|
| Entrypoint   | 0x0001   |
| Data Size    | 16 bytes |
| Instructions | 2        |

```
      00 01 02 03 04 05 06 07  08 09 0A 0B 0C 0D 0E 0F
      -- -- -- -- -- -- -- --  -- -- -- -- -- -- -- --
0000:    66 00 80 F8 FF FF 7F  F8 FF FF 7F 74 6C 6B 30   f..........tlk0
0010: 00                                                .               
```

#### Opcodes

```
  0: 0x0001 [0x66] LOAD_EXT_SCHEDULER_MAIN: Load scheduler "tlk0" with entities [EventEntity, EventEntity], work=40*
  1: 0x0010 [0x00] END_REQSTACK()
```

### Event 65535.2

#### Metadata

| Field        | Value    |
|--------------|----------|
| Entrypoint   | 0x0011   |
| Data Size    | 22 bytes |
| Instructions | 4        |

```
      00 01 02 03 04 05 06 07  08 09 0A 0B 0C 0D 0E 0F
      -- -- -- -- -- -- -- --  -- -- -- -- -- -- -- --
0010:    53 F8 FF FF 7F F8 FF  FF 7F 74 6C 6B 30 5E 69   S........tlk0^i
0020: 64 6C 30 1C 01 80 00                              dl0....         
```

#### Opcodes

```
  0: 0x0011 [0x53] WAIT_SCHEDULER_TASK: Wait for scheduler "tlk0" with entities [EventEntity, EventEntity]
  1: 0x001E [0x5E] EventEntity goes idle (kills current action) (animation: "idl0")
  2: 0x0023 [0x1C] WAIT(30* ticks)
  3: 0x0026 [0x00] END_REQSTACK()
```

### Event 65535.3

#### Metadata

| Field        | Value    |
|--------------|----------|
| Entrypoint   | 0x0027   |
| Data Size    | 16 bytes |
| Instructions | 2        |

```
      00 01 02 03 04 05 06 07  08 09 0A 0B 0C 0D 0E 0F
      -- -- -- -- -- -- -- --  -- -- -- -- -- -- -- --
0020:                      66  00 80 F8 FF FF 7F F8 FF         f........
0030: FF 7F 74 68 6B 31 00                              ..thk1.         
```

#### Opcodes

```
  0: 0x0027 [0x66] LOAD_EXT_SCHEDULER_MAIN: Load scheduler "thk1" with entities [EventEntity, EventEntity], work=40*
  1: 0x0036 [0x00] END_REQSTACK()
```

### Event 65535.4

#### Metadata

| Field        | Value    |
|--------------|----------|
| Entrypoint   | 0x0037   |
| Data Size    | 14 bytes |
| Instructions | 2        |

```
      00 01 02 03 04 05 06 07  08 09 0A 0B 0C 0D 0E 0F
      -- -- -- -- -- -- -- --  -- -- -- -- -- -- -- --
0030:                      53  F8 FF FF 7F F8 FF FF 7F         S........
0040: 74 68 6B 31 00                                    thk1.           
```

#### Opcodes

```
  0: 0x0037 [0x53] WAIT_SCHEDULER_TASK: Wait for scheduler "thk1" with entities [EventEntity, EventEntity]
  1: 0x0044 [0x00] END_REQSTACK()
```

### Event 65535.5

#### Metadata

| Field        | Value    |
|--------------|----------|
| Entrypoint   | 0x0045   |
| Data Size    | 16 bytes |
| Instructions | 2        |

```
      00 01 02 03 04 05 06 07  08 09 0A 0B 0C 0D 0E 0F
      -- -- -- -- -- -- -- --  -- -- -- -- -- -- -- --
0040:                66 00 80  F8 FF FF 7F F8 FF FF 7F       f..........
0050: 74 68 6B 32 00                                    thk2.           
```

#### Opcodes

```
  0: 0x0045 [0x66] LOAD_EXT_SCHEDULER_MAIN: Load scheduler "thk2" with entities [EventEntity, EventEntity], work=40*
  1: 0x0054 [0x00] END_REQSTACK()
```

### Event 65535.6

#### Metadata

| Field        | Value    |
|--------------|----------|
| Entrypoint   | 0x0055   |
| Data Size    | 14 bytes |
| Instructions | 2        |

```
      00 01 02 03 04 05 06 07  08 09 0A 0B 0C 0D 0E 0F
      -- -- -- -- -- -- -- --  -- -- -- -- -- -- -- --
0050:                53 F8 FF  FF 7F F8 FF FF 7F 74 68       S........th
0060: 6B 32 00                                          k2.             
```

#### Opcodes

```
  0: 0x0055 [0x53] WAIT_SCHEDULER_TASK: Wait for scheduler "thk2" with entities [EventEntity, EventEntity]
  1: 0x0062 [0x00] END_REQSTACK()
```

### Event 65535.7

#### Metadata

| Field        | Value    |
|--------------|----------|
| Entrypoint   | 0x0063   |
| Data Size    | 16 bytes |
| Instructions | 2        |

```
      00 01 02 03 04 05 06 07  08 09 0A 0B 0C 0D 0E 0F
      -- -- -- -- -- -- -- --  -- -- -- -- -- -- -- --
0060:          66 00 80 F8 FF  FF 7F F8 FF FF 7F 77 61     f..........wa
0070: 76 30 00                                          v0.             
```

#### Opcodes

```
  0: 0x0063 [0x66] LOAD_EXT_SCHEDULER_MAIN: Load scheduler "wav0" with entities [EventEntity, EventEntity], work=40*
  1: 0x0072 [0x00] END_REQSTACK()
```

### Event 65535.8

#### Metadata

| Field        | Value    |
|--------------|----------|
| Entrypoint   | 0x0073   |
| Data Size    | 14 bytes |
| Instructions | 2        |

```
      00 01 02 03 04 05 06 07  08 09 0A 0B 0C 0D 0E 0F
      -- -- -- -- -- -- -- --  -- -- -- -- -- -- -- --
0070:          53 F8 FF FF 7F  F8 FF FF 7F 77 61 76 30     S........wav0
0080: 00                                                .               
```

#### Opcodes

```
  0: 0x0073 [0x53] WAIT_SCHEDULER_TASK: Wait for scheduler "wav0" with entities [EventEntity, EventEntity]
  1: 0x0080 [0x00] END_REQSTACK()
```

### Event 65535.9

#### Metadata

| Field        | Value    |
|--------------|----------|
| Entrypoint   | 0x0081   |
| Data Size    | 16 bytes |
| Instructions | 2        |

```
      00 01 02 03 04 05 06 07  08 09 0A 0B 0C 0D 0E 0F
      -- -- -- -- -- -- -- --  -- -- -- -- -- -- -- --
0080:    66 02 80 F8 FF FF 7F  F8 FF FF 7F 62 69 6B 30   f..........bik0
0090: 00                                                .               
```

#### Opcodes

```
  0: 0x0081 [0x66] LOAD_EXT_SCHEDULER_MAIN: Load scheduler "bik0" with entities [EventEntity, EventEntity], work=42*
  1: 0x0090 [0x00] END_REQSTACK()
```

### Event 65535.10

#### Metadata

| Field        | Value    |
|--------------|----------|
| Entrypoint   | 0x0091   |
| Data Size    | 22 bytes |
| Instructions | 4        |

```
      00 01 02 03 04 05 06 07  08 09 0A 0B 0C 0D 0E 0F
      -- -- -- -- -- -- -- --  -- -- -- -- -- -- -- --
0090:    53 F8 FF FF 7F F8 FF  FF 7F 62 69 6B 30 5E 69   S........bik0^i
00A0: 64 6C 30 1C 01 80 00                              dl0....         
```

#### Opcodes

```
  0: 0x0091 [0x53] WAIT_SCHEDULER_TASK: Wait for scheduler "bik0" with entities [EventEntity, EventEntity]
  1: 0x009E [0x5E] EventEntity goes idle (kills current action) (animation: "idl0")
  2: 0x00A3 [0x1C] WAIT(30* ticks)
  3: 0x00A6 [0x00] END_REQSTACK()
```

### Event 65535.11

#### Metadata

| Field        | Value    |
|--------------|----------|
| Entrypoint   | 0x00A7   |
| Data Size    | 16 bytes |
| Instructions | 2        |

```
      00 01 02 03 04 05 06 07  08 09 0A 0B 0C 0D 0E 0F
      -- -- -- -- -- -- -- --  -- -- -- -- -- -- -- --
00A0:                      66  00 80 F8 FF FF 7F F8 FF         f........
00B0: FF 7F 73 79 75 30 00                              ..syu0.         
```

#### Opcodes

```
  0: 0x00A7 [0x66] LOAD_EXT_SCHEDULER_MAIN: Load scheduler "syu0" with entities [EventEntity, EventEntity], work=40*
  1: 0x00B6 [0x00] END_REQSTACK()
```

### Event 65535.12

#### Metadata

| Field        | Value    |
|--------------|----------|
| Entrypoint   | 0x00B7   |
| Data Size    | 14 bytes |
| Instructions | 2        |

```
      00 01 02 03 04 05 06 07  08 09 0A 0B 0C 0D 0E 0F
      -- -- -- -- -- -- -- --  -- -- -- -- -- -- -- --
00B0:                      53  F8 FF FF 7F F8 FF FF 7F         S........
00C0: 73 79 75 30 00                                    syu0.           
```

#### Opcodes

```
  0: 0x00B7 [0x53] WAIT_SCHEDULER_TASK: Wait for scheduler "syu0" with entities [EventEntity, EventEntity]
  1: 0x00C4 [0x00] END_REQSTACK()
```

### Event 65535.13

#### Metadata

| Field        | Value    |
|--------------|----------|
| Entrypoint   | 0x00C5   |
| Data Size    | 16 bytes |
| Instructions | 2        |

```
      00 01 02 03 04 05 06 07  08 09 0A 0B 0C 0D 0E 0F
      -- -- -- -- -- -- -- --  -- -- -- -- -- -- -- --
00C0:                66 00 80  F8 FF FF 7F F8 FF FF 7F       f..........
00D0: 69 72 6F 30 00                                    iro0.           
```

#### Opcodes

```
  0: 0x00C5 [0x66] LOAD_EXT_SCHEDULER_MAIN: Load scheduler "iro0" with entities [EventEntity, EventEntity], work=40*
  1: 0x00D4 [0x00] END_REQSTACK()
```

### Event 65535.14

#### Metadata

| Field        | Value    |
|--------------|----------|
| Entrypoint   | 0x00D5   |
| Data Size    | 14 bytes |
| Instructions | 2        |

```
      00 01 02 03 04 05 06 07  08 09 0A 0B 0C 0D 0E 0F
      -- -- -- -- -- -- -- --  -- -- -- -- -- -- -- --
00D0:                53 F8 FF  FF 7F F8 FF FF 7F 69 72       S........ir
00E0: 6F 30 00                                          o0.             
```

#### Opcodes

```
  0: 0x00D5 [0x53] WAIT_SCHEDULER_TASK: Wait for scheduler "iro0" with entities [EventEntity, EventEntity]
  1: 0x00E2 [0x00] END_REQSTACK()
```

### Event 65535.15

#### Metadata

| Field        | Value    |
|--------------|----------|
| Entrypoint   | 0x00E3   |
| Data Size    | 16 bytes |
| Instructions | 2        |

```
      00 01 02 03 04 05 06 07  08 09 0A 0B 0C 0D 0E 0F
      -- -- -- -- -- -- -- --  -- -- -- -- -- -- -- --
00E0:          66 00 80 F8 FF  FF 7F F8 FF FF 7F 70 6F     f..........po
00F0: 69 30 00                                          i0.             
```

#### Opcodes

```
  0: 0x00E3 [0x66] LOAD_EXT_SCHEDULER_MAIN: Load scheduler "poi0" with entities [EventEntity, EventEntity], work=40*
  1: 0x00F2 [0x00] END_REQSTACK()
```

### Event 65535.16

#### Metadata

| Field        | Value    |
|--------------|----------|
| Entrypoint   | 0x00F3   |
| Data Size    | 14 bytes |
| Instructions | 2        |

```
      00 01 02 03 04 05 06 07  08 09 0A 0B 0C 0D 0E 0F
      -- -- -- -- -- -- -- --  -- -- -- -- -- -- -- --
00F0:          53 F8 FF FF 7F  F8 FF FF 7F 70 6F 69 30     S........poi0
0100: 00                                                .               
```

#### Opcodes

```
  0: 0x00F3 [0x53] WAIT_SCHEDULER_TASK: Wait for scheduler "poi0" with entities [EventEntity, EventEntity]
  1: 0x0100 [0x00] END_REQSTACK()
```

### Event 65535.17

#### Metadata

| Field        | Value    |
|--------------|----------|
| Entrypoint   | 0x0101   |
| Data Size    | 16 bytes |
| Instructions | 2        |

```
      00 01 02 03 04 05 06 07  08 09 0A 0B 0C 0D 0E 0F
      -- -- -- -- -- -- -- --  -- -- -- -- -- -- -- --
0100:    66 00 80 F8 FF FF 7F  F8 FF FF 7F 77 61 69 30   f..........wai0
0110: 00                                                .               
```

#### Opcodes

```
  0: 0x0101 [0x66] LOAD_EXT_SCHEDULER_MAIN: Load scheduler "wai0" with entities [EventEntity, EventEntity], work=40*
  1: 0x0110 [0x00] END_REQSTACK()
```

### Event 65535.18

#### Metadata

| Field        | Value    |
|--------------|----------|
| Entrypoint   | 0x0111   |
| Data Size    | 14 bytes |
| Instructions | 2        |

```
      00 01 02 03 04 05 06 07  08 09 0A 0B 0C 0D 0E 0F
      -- -- -- -- -- -- -- --  -- -- -- -- -- -- -- --
0110:    53 F8 FF FF 7F F8 FF  FF 7F 77 61 69 30 00      S........wai0. 
```

#### Opcodes

```
  0: 0x0111 [0x53] WAIT_SCHEDULER_TASK: Wait for scheduler "wai0" with entities [EventEntity, EventEntity]
  1: 0x011E [0x00] END_REQSTACK()
```

### Event 65535.19

#### Metadata

| Field        | Value    |
|--------------|----------|
| Entrypoint   | 0x011F   |
| Data Size    | 16 bytes |
| Instructions | 2        |

```
      00 01 02 03 04 05 06 07  08 09 0A 0B 0C 0D 0E 0F
      -- -- -- -- -- -- -- --  -- -- -- -- -- -- -- --
0110:                                               66                 f
0120: 03 80 F8 FF FF 7F F8 FF  FF 7F 73 68 6B 30 00     ..........shk0. 
```

#### Opcodes

```
  0: 0x011F [0x66] LOAD_EXT_SCHEDULER_MAIN: Load scheduler "shk0" with entities [EventEntity, EventEntity], work=41*
  1: 0x012E [0x00] END_REQSTACK()
```

### Event 65535.20

#### Metadata

| Field        | Value    |
|--------------|----------|
| Entrypoint   | 0x012F   |
| Data Size    | 14 bytes |
| Instructions | 2        |

```
      00 01 02 03 04 05 06 07  08 09 0A 0B 0C 0D 0E 0F
      -- -- -- -- -- -- -- --  -- -- -- -- -- -- -- --
0120:                                               53                 S
0130: F8 FF FF 7F F8 FF FF 7F  73 68 6B 30 00           ........shk0.   
```

#### Opcodes

```
  0: 0x012F [0x53] WAIT_SCHEDULER_TASK: Wait for scheduler "shk0" with entities [EventEntity, EventEntity]
  1: 0x013C [0x00] END_REQSTACK()
```

### Event 65535.21

#### Metadata

| Field        | Value    |
|--------------|----------|
| Entrypoint   | 0x013D   |
| Data Size    | 16 bytes |
| Instructions | 2        |

```
      00 01 02 03 04 05 06 07  08 09 0A 0B 0C 0D 0E 0F
      -- -- -- -- -- -- -- --  -- -- -- -- -- -- -- --
0130:                                         66 00 80               f..
0140: F8 FF FF 7F F8 FF FF 7F  7A 69 74 30 00           ........zit0.   
```

#### Opcodes

```
  0: 0x013D [0x66] LOAD_EXT_SCHEDULER_MAIN: Load scheduler "zit0" with entities [EventEntity, EventEntity], work=40*
  1: 0x014C [0x00] END_REQSTACK()
```

### Event 65535.22

#### Metadata

| Field        | Value    |
|--------------|----------|
| Entrypoint   | 0x014D   |
| Data Size    | 22 bytes |
| Instructions | 4        |

```
      00 01 02 03 04 05 06 07  08 09 0A 0B 0C 0D 0E 0F
      -- -- -- -- -- -- -- --  -- -- -- -- -- -- -- --
0140:                                         53 F8 FF               S..
0150: FF 7F F8 FF FF 7F 7A 69  74 30 5E 69 64 6C 30 1C  ......zit0^idl0.
0160: 01 80 00                                          ...             
```

#### Opcodes

```
  0: 0x014D [0x53] WAIT_SCHEDULER_TASK: Wait for scheduler "zit0" with entities [EventEntity, EventEntity]
  1: 0x015A [0x5E] EventEntity goes idle (kills current action) (animation: "idl0")
  2: 0x015F [0x1C] WAIT(30* ticks)
  3: 0x0162 [0x00] END_REQSTACK()
```

### Event 65535.23

#### Metadata

| Field        | Value    |
|--------------|----------|
| Entrypoint   | 0x0163   |
| Data Size    | 16 bytes |
| Instructions | 2        |

```
      00 01 02 03 04 05 06 07  08 09 0A 0B 0C 0D 0E 0F
      -- -- -- -- -- -- -- --  -- -- -- -- -- -- -- --
0160:          66 00 80 F8 FF  FF 7F F8 FF FF 7F 67 6B     f..........gk
0170: 72 30 00                                          r0.             
```

#### Opcodes

```
  0: 0x0163 [0x66] LOAD_EXT_SCHEDULER_MAIN: Load scheduler "gkr0" with entities [EventEntity, EventEntity], work=40*
  1: 0x0172 [0x00] END_REQSTACK()
```

### Event 65535.24

#### Metadata

| Field        | Value    |
|--------------|----------|
| Entrypoint   | 0x0173   |
| Data Size    | 22 bytes |
| Instructions | 4        |

```
      00 01 02 03 04 05 06 07  08 09 0A 0B 0C 0D 0E 0F
      -- -- -- -- -- -- -- --  -- -- -- -- -- -- -- --
0170:          53 F8 FF FF 7F  F8 FF FF 7F 67 6B 72 30     S........gkr0
0180: 5E 69 64 6C 30 1C 01 80  00                       ^idl0....       
```

#### Opcodes

```
  0: 0x0173 [0x53] WAIT_SCHEDULER_TASK: Wait for scheduler "gkr0" with entities [EventEntity, EventEntity]
  1: 0x0180 [0x5E] EventEntity goes idle (kills current action) (animation: "idl0")
  2: 0x0185 [0x1C] WAIT(30* ticks)
  3: 0x0188 [0x00] END_REQSTACK()
```

### Event 65535.25

#### Metadata

| Field        | Value    |
|--------------|----------|
| Entrypoint   | 0x0189   |
| Data Size    | 16 bytes |
| Instructions | 2        |

```
      00 01 02 03 04 05 06 07  08 09 0A 0B 0C 0D 0E 0F
      -- -- -- -- -- -- -- --  -- -- -- -- -- -- -- --
0180:                             66 02 80 F8 FF FF 7F           f......
0190: F8 FF FF 7F 64 6F 6C 30  00                       ....dol0.       
```

#### Opcodes

```
  0: 0x0189 [0x66] LOAD_EXT_SCHEDULER_MAIN: Load scheduler "dol0" with entities [EventEntity, EventEntity], work=42*
  1: 0x0198 [0x00] END_REQSTACK()
```

### Event 65535.26

#### Metadata

| Field        | Value    |
|--------------|----------|
| Entrypoint   | 0x0199   |
| Data Size    | 14 bytes |
| Instructions | 2        |

```
      00 01 02 03 04 05 06 07  08 09 0A 0B 0C 0D 0E 0F
      -- -- -- -- -- -- -- --  -- -- -- -- -- -- -- --
0190:                             53 F8 FF FF 7F F8 FF           S......
01A0: FF 7F 64 6F 6C 30 00                              ..dol0.         
```

#### Opcodes

```
  0: 0x0199 [0x53] WAIT_SCHEDULER_TASK: Wait for scheduler "dol0" with entities [EventEntity, EventEntity]
  1: 0x01A6 [0x00] END_REQSTACK()
```

### Event 65535.27

#### Metadata

| Field        | Value    |
|--------------|----------|
| Entrypoint   | 0x01A7   |
| Data Size    | 16 bytes |
| Instructions | 2        |

```
      00 01 02 03 04 05 06 07  08 09 0A 0B 0C 0D 0E 0F
      -- -- -- -- -- -- -- --  -- -- -- -- -- -- -- --
01A0:                      66  02 80 F8 FF FF 7F F8 FF         f........
01B0: FF 7F 64 6F 6C 31 00                              ..dol1.         
```

#### Opcodes

```
  0: 0x01A7 [0x66] LOAD_EXT_SCHEDULER_MAIN: Load scheduler "dol1" with entities [EventEntity, EventEntity], work=42*
  1: 0x01B6 [0x00] END_REQSTACK()
```

### Event 65535.28

#### Metadata

| Field        | Value    |
|--------------|----------|
| Entrypoint   | 0x01B7   |
| Data Size    | 14 bytes |
| Instructions | 2        |

```
      00 01 02 03 04 05 06 07  08 09 0A 0B 0C 0D 0E 0F
      -- -- -- -- -- -- -- --  -- -- -- -- -- -- -- --
01B0:                      53  F8 FF FF 7F F8 FF FF 7F         S........
01C0: 64 6F 6C 31 00                                    dol1.           
```

#### Opcodes

```
  0: 0x01B7 [0x53] WAIT_SCHEDULER_TASK: Wait for scheduler "dol1" with entities [EventEntity, EventEntity]
  1: 0x01C4 [0x00] END_REQSTACK()
```

### Event 65535.29

#### Metadata

| Field        | Value   |
|--------------|---------|
| Entrypoint   | 0x01C5  |
| Data Size    | 9 bytes |
| Instructions | 3       |

```
      00 01 02 03 04 05 06 07  08 09 0A 0B 0C 0D 0E 0F
      -- -- -- -- -- -- -- --  -- -- -- -- -- -- -- --
01C0:                5E 69 64  6C 30 1C 01 80 00             ^idl0....  
```

#### Opcodes

```
  0: 0x01C5 [0x5E] EventEntity goes idle (kills current action) (animation: "idl0")
  1: 0x01CA [0x1C] WAIT(30* ticks)
  2: 0x01CD [0x00] END_REQSTACK()
```

### Event 663

#### Metadata

| Field        | Value    |
|--------------|----------|
| Entrypoint   | 0x01CE   |
| Data Size    | 33 bytes |
| Instructions | 12       |

```
      00 01 02 03 04 05 06 07  08 09 0A 0B 0C 0D 0E 0F
      -- -- -- -- -- -- -- --  -- -- -- -- -- -- -- --
01C0:                                            1E F0                ..
01D0: FF FF 7F 6F 70 29 08 54  E0 0E 01 15 1D 04 80 23  ...op).T.......#
01E0: 1D 05 80 23 29 08 54 E0  0E 01 16 20 00 21 00     ...#).T.... .!. 
```

#### Opcodes

```
  0: 0x01CE [0x1E] EventEntity looks at LocalPlayer and starts talking
  1: 0x01D3 [0x6F] WAIT_FRAME_DELAY: Yield until WaitTime reaches zero
  2: 0x01D4 [0x70] WAIT_ENTITY_RENDER_FLAG: Wait while EventEntity->Render.Flags3 bit 2 is set (cancel turn if not)
  3: 0x01D5 [0x29] REQ_SET_WAIT(priority=0x08, entity_id=Naiko-Paneiko (ID: 17752148/0x010EE054), tag_num=0x15)
  4: 0x01DC [0x1D] PRINT_EVENT_MESSAGE(message_id=9079*)
    → "Work harder! Work harder!"
  5: 0x01DF [0x23] WAIT_FOR_DIALOG_INTERACTION
  6: 0x01E0 [0x1D] PRINT_EVENT_MESSAGE(message_id=9080*)
    → "The Tarutaru Times Company can never rest! We can't afford to miss the publication deadline of our "Magic Paradise Weekly"! It's the only source of reliable news in Windurst. So work harder!"
  7: 0x01E3 [0x23] WAIT_FOR_DIALOG_INTERACTION
  8: 0x01E4 [0x29] REQ_SET_WAIT(priority=0x08, entity_id=Naiko-Paneiko (ID: 17752148/0x010EE054), tag_num=0x16)
  9: 0x01EB [0x20] SET_CLI_EVENT_UC_FLAG: Unlock player control
 10: 0x01ED [0x21] END_EVENT
 11: 0x01EE [0x00] END_REQSTACK()
```

### Event 665

#### Metadata

| Field        | Value    |
|--------------|----------|
| Entrypoint   | 0x01EF   |
| Data Size    | 87 bytes |
| Instructions | 24       |

```
      00 01 02 03 04 05 06 07  08 09 0A 0B 0C 0D 0E 0F
      -- -- -- -- -- -- -- --  -- -- -- -- -- -- -- --
01E0:                                               1E                 .
01F0: F0 FF FF 7F 6F 70 29 08  54 E0 0E 01 01 1D 06 80  ....op).T.......
0200: 23 1D 07 80 23 29 08 54  E0 0E 01 1D 29 08 54 E0  #...#).T....).T.
0210: 0E 01 03 1D 08 80 23 29  08 54 E0 0E 01 04 29 08  ......#).T....).
0220: 54 E0 0E 01 05 1D 09 80  23 29 08 54 E0 0E 01 06  T.......#).T....
0230: 29 08 54 E0 0E 01 0F 1D  0A 80 23 29 08 54 E0 0E  ).T.......#).T..
0240: 01 10 20 00 21 00                                 .. .!.          
```

#### Opcodes

```
  0: 0x01EF [0x1E] EventEntity looks at LocalPlayer and starts talking
  1: 0x01F4 [0x6F] WAIT_FRAME_DELAY: Yield until WaitTime reaches zero
  2: 0x01F5 [0x70] WAIT_ENTITY_RENDER_FLAG: Wait while EventEntity->Render.Flags3 bit 2 is set (cancel turn if not)
  3: 0x01F6 [0x29] REQ_SET_WAIT(priority=0x08, entity_id=Naiko-Paneiko (ID: 17752148/0x010EE054), tag_num=0x01)
  4: 0x01FD [0x1D] PRINT_EVENT_MESSAGE(message_id=9083*)
    → "I'm the editor of the only source of reliable news in Windurst, the Tarutaru Times Company's "Magic Paradise Weekly"!"
  5: 0x0200 [0x23] WAIT_FOR_DIALOG_INTERACTION
  6: 0x0201 [0x1D] PRINT_EVENT_MESSAGE(message_id=9084*)
    → "Hmm... What should I do for our next feature? I need a snappy exclusive to hook the customers!"
  7: 0x0204 [0x23] WAIT_FOR_DIALOG_INTERACTION
  8: 0x0205 [0x29] REQ_SET_WAIT(priority=0x08, entity_id=Naiko-Paneiko (ID: 17752148/0x010EE054), tag_num=0x1D)
  9: 0x020C [0x29] REQ_SET_WAIT(priority=0x08, entity_id=Naiko-Paneiko (ID: 17752148/0x010EE054), tag_num=0x03)
 10: 0x0213 [0x1D] PRINT_EVENT_MESSAGE(message_id=9085*)
    → "Your average news item just doesn't cut it with the intelligentsia who live around Windurst."
 11: 0x0216 [0x23] WAIT_FOR_DIALOG_INTERACTION
 12: 0x0217 [0x29] REQ_SET_WAIT(priority=0x08, entity_id=Naiko-Paneiko (ID: 17752148/0x010EE054), tag_num=0x04)
 13: 0x021E [0x29] REQ_SET_WAIT(priority=0x08, entity_id=Naiko-Paneiko (ID: 17752148/0x010EE054), tag_num=0x05)
 14: 0x0225 [0x1D] PRINT_EVENT_MESSAGE(message_id=9086*)
    → "Come to think of it, those reporters we dispatched to each of the different districts of Windurst haven't reported in at all. It's way past their deadline...!"
 15: 0x0228 [0x23] WAIT_FOR_DIALOG_INTERACTION
 16: 0x0229 [0x29] REQ_SET_WAIT(priority=0x08, entity_id=Naiko-Paneiko (ID: 17752148/0x010EE054), tag_num=0x06)
 17: 0x0230 [0x29] REQ_SET_WAIT(priority=0x08, entity_id=Naiko-Paneiko (ID: 17752148/0x010EE054), tag_num=0x0F)
 18: 0x0237 [0x1D] PRINT_EVENT_MESSAGE(message_id=9087*)
    → "Hey, you there...kid! Have you seen any of my reporters around town? If you happen to see them, make yourself useful and tell them to hand in their news articles!"
 19: 0x023A [0x23] WAIT_FOR_DIALOG_INTERACTION
 20: 0x023B [0x29] REQ_SET_WAIT(priority=0x08, entity_id=Naiko-Paneiko (ID: 17752148/0x010EE054), tag_num=0x10)
 21: 0x0242 [0x20] SET_CLI_EVENT_UC_FLAG: Unlock player control
 22: 0x0244 [0x21] END_EVENT
 23: 0x0245 [0x00] END_REQSTACK()
```

### Event 666

#### Metadata

| Field        | Value    |
|--------------|----------|
| Entrypoint   | 0x0246   |
| Data Size    | 33 bytes |
| Instructions | 12       |

```
      00 01 02 03 04 05 06 07  08 09 0A 0B 0C 0D 0E 0F
      -- -- -- -- -- -- -- --  -- -- -- -- -- -- -- --
0240:                   1E F0  FF FF 7F 6F 70 29 08 54        .....op).T
0250: E0 0E 01 01 1D 0B 80 23  1D 0C 80 23 29 08 54 E0  .......#...#).T.
0260: 0E 01 1D 20 00 21 00                              ... .!.         
```

#### Opcodes

```
  0: 0x0246 [0x1E] EventEntity looks at LocalPlayer and starts talking
  1: 0x024B [0x6F] WAIT_FRAME_DELAY: Yield until WaitTime reaches zero
  2: 0x024C [0x70] WAIT_ENTITY_RENDER_FLAG: Wait while EventEntity->Render.Flags3 bit 2 is set (cancel turn if not)
  3: 0x024D [0x29] REQ_SET_WAIT(priority=0x08, entity_id=Naiko-Paneiko (ID: 17752148/0x010EE054), tag_num=0x01)
  4: 0x0254 [0x1D] PRINT_EVENT_MESSAGE(message_id=9088*)
    → "The reporters we dispatched to each of the different districts of Windurst haven't reported in at all. It's way past their deadline, too!"
  5: 0x0257 [0x23] WAIT_FOR_DIALOG_INTERACTION
  6: 0x0258 [0x1D] PRINT_EVENT_MESSAGE(message_id=9089*)
    → "If you happen to see them, kid, make yourself useful and tell them to hand in their news articles!"
  7: 0x025B [0x23] WAIT_FOR_DIALOG_INTERACTION
  8: 0x025C [0x29] REQ_SET_WAIT(priority=0x08, entity_id=Naiko-Paneiko (ID: 17752148/0x010EE054), tag_num=0x1D)
  9: 0x0263 [0x20] SET_CLI_EVENT_UC_FLAG: Unlock player control
 10: 0x0265 [0x21] END_EVENT
 11: 0x0266 [0x00] END_REQSTACK()
```

### Event 670

#### Metadata

| Field        | Value    |
|--------------|----------|
| Entrypoint   | 0x0267   |
| Data Size    | 59 bytes |
| Instructions | 13       |

```
      00 01 02 03 04 05 06 07  08 09 0A 0B 0C 0D 0E 0F
      -- -- -- -- -- -- -- --  -- -- -- -- -- -- -- --
0260:                      20  01 42 1E F0 FF FF 7F 6F          .B.....o
0270: 70 29 0B 54 E0 0E 01 22  29 0B 54 E0 0E 01 23 29  p).T...").T...#)
0280: 0B 54 E0 0E 01 24 29 0B  54 E0 0E 01 26 45 0D 80  .T...$).T...&E..
0290: F0 FF FF 7F F0 FF FF 7F  71 73 74 63 0E 80 20 00  ........qstc.. .
02A0: 21 00                                             !.              
```

#### Opcodes

```
  0: 0x0267 [0x20] SET_CLI_EVENT_UC_FLAG: Lock player control
  1: 0x0269 [0x42] SET_CLI_EVENT_CANCEL_DATA()
  2: 0x026A [0x1E] EventEntity looks at LocalPlayer and starts talking
  3: 0x026F [0x6F] WAIT_FRAME_DELAY: Yield until WaitTime reaches zero
  4: 0x0270 [0x70] WAIT_ENTITY_RENDER_FLAG: Wait while EventEntity->Render.Flags3 bit 2 is set (cancel turn if not)
  5: 0x0271 [0x29] REQ_SET_WAIT(priority=0x0B, entity_id=Naiko-Paneiko (ID: 17752148/0x010EE054), tag_num=0x22)
  6: 0x0278 [0x29] REQ_SET_WAIT(priority=0x0B, entity_id=Naiko-Paneiko (ID: 17752148/0x010EE054), tag_num=0x23)
  7: 0x027F [0x29] REQ_SET_WAIT(priority=0x0B, entity_id=Naiko-Paneiko (ID: 17752148/0x010EE054), tag_num=0x24)
  8: 0x0286 [0x29] REQ_SET_WAIT(priority=0x0B, entity_id=Naiko-Paneiko (ID: 17752148/0x010EE054), tag_num=0x26)
  9: 0x028D [0x45] LOAD_SCHEDULED_TASK: Load scheduler "qstc" with entities [LocalPlayer, LocalPlayer], work=[201*, 0*]
 10: 0x029E [0x20] SET_CLI_EVENT_UC_FLAG: Unlock player control
 11: 0x02A0 [0x21] END_EVENT
 12: 0x02A1 [0x00] END_REQSTACK()
```

### Event 65535.30

#### Metadata

| Field        | Value    |
|--------------|----------|
| Entrypoint   | 0x02A2   |
| Data Size    | 19 bytes |
| Instructions | 5        |

```
      00 01 02 03 04 05 06 07  08 09 0A 0B 0C 0D 0E 0F
      -- -- -- -- -- -- -- --  -- -- -- -- -- -- -- --
02A0:       29 08 54 E0 0E 01  01 1D 0F 80 23 29 08 54    ).T.......#).T
02B0: E0 0E 01 1D 00                                    .....           
```

#### Opcodes

```
  0: 0x02A2 [0x29] REQ_SET_WAIT(priority=0x08, entity_id=Naiko-Paneiko (ID: 17752148/0x010EE054), tag_num=0x01)
  1: 0x02A9 [0x1D] PRINT_EVENT_MESSAGE(message_id=9097*)
    → "Well done, kid. Seems like you got the lot here..."
  2: 0x02AC [0x23] WAIT_FOR_DIALOG_INTERACTION
  3: 0x02AD [0x29] REQ_SET_WAIT(priority=0x08, entity_id=Naiko-Paneiko (ID: 17752148/0x010EE054), tag_num=0x1D)
  4: 0x02B4 [0x00] END_REQSTACK()
```

### Event 65535.31

#### Metadata

| Field        | Value    |
|--------------|----------|
| Entrypoint   | 0x02B5   |
| Data Size    | 63 bytes |
| Instructions | 17       |

```
      00 01 02 03 04 05 06 07  08 09 0A 0B 0C 0D 0E 0F
      -- -- -- -- -- -- -- --  -- -- -- -- -- -- -- --
02B0:                29 08 54  E0 0E 01 03 1D 10 80 23       ).T.......#
02C0: 1D 11 80 23 29 08 54 E0  0E 01 04 29 08 54 E0 0E  ...#).T....).T..
02D0: 01 05 1D 12 80 23 29 08  54 E0 0E 01 06 1D 13 80  .....#).T.......
02E0: 23 29 08 54 E0 0E 01 0F  1D 14 80 23 29 08 54 E0  #).T.......#).T.
02F0: 0E 01 10 00                                       ....            
```

#### Opcodes

```
  0: 0x02B5 [0x29] REQ_SET_WAIT(priority=0x08, entity_id=Naiko-Paneiko (ID: 17752148/0x010EE054), tag_num=0x03)
  1: 0x02BC [0x1D] PRINT_EVENT_MESSAGE(message_id=9098*)
    → "Humph?"
  2: 0x02BF [0x23] WAIT_FOR_DIALOG_INTERACTION
  3: 0x02C0 [0x1D] PRINT_EVENT_MESSAGE(message_id=9099*)
    → "Hmm..."
  4: 0x02C3 [0x23] WAIT_FOR_DIALOG_INTERACTION
  5: 0x02C4 [0x29] REQ_SET_WAIT(priority=0x08, entity_id=Naiko-Paneiko (ID: 17752148/0x010EE054), tag_num=0x04)
  6: 0x02CB [0x29] REQ_SET_WAIT(priority=0x08, entity_id=Naiko-Paneiko (ID: 17752148/0x010EE054), tag_num=0x05)
  7: 0x02D2 [0x1D] PRINT_EVENT_MESSAGE(message_id=9100*)
    → "A-huh.....?"
  8: 0x02D5 [0x23] WAIT_FOR_DIALOG_INTERACTION
  9: 0x02D6 [0x29] REQ_SET_WAIT(priority=0x08, entity_id=Naiko-Paneiko (ID: 17752148/0x010EE054), tag_num=0x06)
 10: 0x02DD [0x1D] PRINT_EVENT_MESSAGE(message_id=9101*)
    → ".............................."
 11: 0x02E0 [0x23] WAIT_FOR_DIALOG_INTERACTION
 12: 0x02E1 [0x29] REQ_SET_WAIT(priority=0x08, entity_id=Naiko-Paneiko (ID: 17752148/0x010EE054), tag_num=0x0F)
 13: 0x02E8 [0x1D] PRINT_EVENT_MESSAGE(message_id=9102*)
    → "......................This could be it!"
 14: 0x02EB [0x23] WAIT_FOR_DIALOG_INTERACTION
 15: 0x02EC [0x29] REQ_SET_WAIT(priority=0x08, entity_id=Naiko-Paneiko (ID: 17752148/0x010EE054), tag_num=0x10)
 16: 0x02F3 [0x00] END_REQSTACK()
```

### Event 65535.32

#### Metadata

| Field        | Value    |
|--------------|----------|
| Entrypoint   | 0x02F4   |
| Data Size    | 55 bytes |
| Instructions | 13       |

```
      00 01 02 03 04 05 06 07  08 09 0A 0B 0C 0D 0E 0F
      -- -- -- -- -- -- -- --  -- -- -- -- -- -- -- --
02F0:             29 08 54 E0  0E 01 01 1D 15 80 23 29      ).T.......#)
0300: 08 54 E0 0E 01 02 29 08  54 E0 0E 01 0D 1D 16 80  .T....).T.......
0310: 23 29 08 54 E0 0E 01 0E  29 08 54 E0 0E 01 11 1D  #).T....).T.....
0320: 17 80 23 29 08 54 E0 0E  01 12 00                 ..#).T.....     
```

#### Opcodes

```
  0: 0x02F4 [0x29] REQ_SET_WAIT(priority=0x08, entity_id=Naiko-Paneiko (ID: 17752148/0x010EE054), tag_num=0x01)
  1: 0x02FB [0x1D] PRINT_EVENT_MESSAGE(message_id=9103*)
    → "Hey, kid! Did you confirm the veracity of Umumu's article properly before submitting it to me?"
  2: 0x02FE [0x23] WAIT_FOR_DIALOG_INTERACTION
  3: 0x02FF [0x29] REQ_SET_WAIT(priority=0x08, entity_id=Naiko-Paneiko (ID: 17752148/0x010EE054), tag_num=0x02)
  4: 0x0306 [0x29] REQ_SET_WAIT(priority=0x08, entity_id=Naiko-Paneiko (ID: 17752148/0x010EE054), tag_num=0x0D)
  5: 0x030D [0x1D] PRINT_EVENT_MESSAGE(message_id=9104*)
    → "If her information is correct, then this could be the exclusive scoop we've been looking for!"
  6: 0x0310 [0x23] WAIT_FOR_DIALOG_INTERACTION
  7: 0x0311 [0x29] REQ_SET_WAIT(priority=0x08, entity_id=Naiko-Paneiko (ID: 17752148/0x010EE054), tag_num=0x0E)
  8: 0x0318 [0x29] REQ_SET_WAIT(priority=0x08, entity_id=Naiko-Paneiko (ID: 17752148/0x010EE054), tag_num=0x11)
  9: 0x031F [0x1D] PRINT_EVENT_MESSAGE(message_id=9105*)
    → "This year's Pulitzer-Bulitzer Prize for journalism will go to our article on "Where the Cat Burglar Hides her Kitty"!"
 10: 0x0322 [0x23] WAIT_FOR_DIALOG_INTERACTION
 11: 0x0323 [0x29] REQ_SET_WAIT(priority=0x08, entity_id=Naiko-Paneiko (ID: 17752148/0x010EE054), tag_num=0x12)
 12: 0x032A [0x00] END_REQSTACK()
```

### Event 65535.33

#### Metadata

| Field        | Value   |
|--------------|---------|
| Entrypoint   | 0x032B  |
| Data Size    | 9 bytes |
| Instructions | 5       |

```
      00 01 02 03 04 05 06 07  08 09 0A 0B 0C 0D 0E 0F
      -- -- -- -- -- -- -- --  -- -- -- -- -- -- -- --
0320:                                   1D 18 80 23 1D             ...#.
0330: 19 80 23 00                                       ..#.            
```

#### Opcodes

```
  0: 0x032B [0x1D] PRINT_EVENT_MESSAGE(message_id=9106*)
    → "Well done. Nicely scooped, kid! I'll make Umumu's article the exclusive feature of our next issue."
  1: 0x032E [0x23] WAIT_FOR_DIALOG_INTERACTION
  2: 0x032F [0x1D] PRINT_EVENT_MESSAGE(message_id=9107*)
    → "This year's Pulitzer-Bulitzer Prize for journalism will go to our article on "Where the Cat Burglar Hides her Kitty"!"
  3: 0x0332 [0x23] WAIT_FOR_DIALOG_INTERACTION
  4: 0x0333 [0x00] END_REQSTACK()
```

### Event 65535.34

#### Metadata

| Field        | Value    |
|--------------|----------|
| Entrypoint   | 0x0334   |
| Data Size    | 19 bytes |
| Instructions | 5        |

```
      00 01 02 03 04 05 06 07  08 09 0A 0B 0C 0D 0E 0F
      -- -- -- -- -- -- -- --  -- -- -- -- -- -- -- --
0330:             29 08 54 E0  0E 01 15 1D 1A 80 23 29      ).T.......#)
0340: 08 54 E0 0E 01 16 00                              .T.....         
```

#### Opcodes

```
  0: 0x0334 [0x29] REQ_SET_WAIT(priority=0x08, entity_id=Naiko-Paneiko (ID: 17752148/0x010EE054), tag_num=0x15)
  1: 0x033B [0x1D] PRINT_EVENT_MESSAGE(message_id=9108*)
    → "Well, we better get busy and put this into production. Here's your reward, kid. Now scram!"
  2: 0x033E [0x23] WAIT_FOR_DIALOG_INTERACTION
  3: 0x033F [0x29] REQ_SET_WAIT(priority=0x08, entity_id=Naiko-Paneiko (ID: 17752148/0x010EE054), tag_num=0x16)
  4: 0x0346 [0x00] END_REQSTACK()
```

### Event 671

#### Metadata

| Field        | Value    |
|--------------|----------|
| Entrypoint   | 0x0347   |
| Data Size    | 29 bytes |
| Instructions | 10       |

```
      00 01 02 03 04 05 06 07  08 09 0A 0B 0C 0D 0E 0F
      -- -- -- -- -- -- -- --  -- -- -- -- -- -- -- --
0340:                      1E  F0 FF FF 7F 6F 70 29 08         .....op).
0350: 54 E0 0E 01 15 1D 1B 80  23 29 08 54 E0 0E 01 16  T.......#).T....
0360: 20 00 21 00                                        .!.            
```

#### Opcodes

```
  0: 0x0347 [0x1E] EventEntity looks at LocalPlayer and starts talking
  1: 0x034C [0x6F] WAIT_FRAME_DELAY: Yield until WaitTime reaches zero
  2: 0x034D [0x70] WAIT_ENTITY_RENDER_FLAG: Wait while EventEntity->Render.Flags3 bit 2 is set (cancel turn if not)
  3: 0x034E [0x29] REQ_SET_WAIT(priority=0x08, entity_id=Naiko-Paneiko (ID: 17752148/0x010EE054), tag_num=0x15)
  4: 0x0355 [0x1D] PRINT_EVENT_MESSAGE(message_id=9109*)
    → "Hurry up and get this article into production! Move it! Move it!"
  5: 0x0358 [0x23] WAIT_FOR_DIALOG_INTERACTION
  6: 0x0359 [0x29] REQ_SET_WAIT(priority=0x08, entity_id=Naiko-Paneiko (ID: 17752148/0x010EE054), tag_num=0x16)
  7: 0x0360 [0x20] SET_CLI_EVENT_UC_FLAG: Unlock player control
  8: 0x0362 [0x21] END_EVENT
  9: 0x0363 [0x00] END_REQSTACK()
```

### Event 673

#### Metadata

| Field        | Value    |
|--------------|----------|
| Entrypoint   | 0x0364   |
| Data Size    | 64 bytes |
| Instructions | 18       |

```
      00 01 02 03 04 05 06 07  08 09 0A 0B 0C 0D 0E 0F
      -- -- -- -- -- -- -- --  -- -- -- -- -- -- -- --
0360:             20 01 42 1E  F0 FF FF 7F 6F 70 29 0B       .B.....op).
0370: 54 E0 0E 01 22 29 0B 54  E0 0E 01 23 29 08 54 E0  T...").T...#).T.
0380: 0E 01 01 1D 1C 80 23 29  08 54 E0 0E 01 02 29 08  ......#).T....).
0390: 54 E0 0E 01 13 1D 1D 80  23 29 08 54 E0 0E 01 14  T.......#).T....
03A0: 20 00 21 00                                        .!.            
```

#### Opcodes

```
  0: 0x0364 [0x20] SET_CLI_EVENT_UC_FLAG: Lock player control
  1: 0x0366 [0x42] SET_CLI_EVENT_CANCEL_DATA()
  2: 0x0367 [0x1E] EventEntity looks at LocalPlayer and starts talking
  3: 0x036C [0x6F] WAIT_FRAME_DELAY: Yield until WaitTime reaches zero
  4: 0x036D [0x70] WAIT_ENTITY_RENDER_FLAG: Wait while EventEntity->Render.Flags3 bit 2 is set (cancel turn if not)
  5: 0x036E [0x29] REQ_SET_WAIT(priority=0x0B, entity_id=Naiko-Paneiko (ID: 17752148/0x010EE054), tag_num=0x22)
  6: 0x0375 [0x29] REQ_SET_WAIT(priority=0x0B, entity_id=Naiko-Paneiko (ID: 17752148/0x010EE054), tag_num=0x23)
  7: 0x037C [0x29] REQ_SET_WAIT(priority=0x08, entity_id=Naiko-Paneiko (ID: 17752148/0x010EE054), tag_num=0x01)
  8: 0x0383 [0x1D] PRINT_EVENT_MESSAGE(message_id=9112*)
    → "Hey, kid! Did you confirm the veracity of Umumu's article before submitting it to me? Did you check whether the Cat Burglar's hideout is under the Horutoto Ruins or not?"
  9: 0x0386 [0x23] WAIT_FOR_DIALOG_INTERACTION
 10: 0x0387 [0x29] REQ_SET_WAIT(priority=0x08, entity_id=Naiko-Paneiko (ID: 17752148/0x010EE054), tag_num=0x02)
 11: 0x038E [0x29] REQ_SET_WAIT(priority=0x08, entity_id=Naiko-Paneiko (ID: 17752148/0x010EE054), tag_num=0x13)
 12: 0x0395 [0x1D] PRINT_EVENT_MESSAGE(message_id=9113*)
    → "What the...? The first rule of journalism is to always check your sources, kid. We ain't no amateur tabloid here!"
 13: 0x0398 [0x23] WAIT_FOR_DIALOG_INTERACTION
 14: 0x0399 [0x29] REQ_SET_WAIT(priority=0x08, entity_id=Naiko-Paneiko (ID: 17752148/0x010EE054), tag_num=0x14)
 15: 0x03A0 [0x20] SET_CLI_EVENT_UC_FLAG: Unlock player control
 16: 0x03A2 [0x21] END_EVENT
 17: 0x03A3 [0x00] END_REQSTACK()
```

### Event 674

#### Metadata

| Field        | Value    |
|--------------|----------|
| Entrypoint   | 0x03A4   |
| Data Size    | 45 bytes |
| Instructions | 11       |

```
      00 01 02 03 04 05 06 07  08 09 0A 0B 0C 0D 0E 0F
      -- -- -- -- -- -- -- --  -- -- -- -- -- -- -- --
03A0:             20 01 42 1E  F0 FF FF 7F 6F 70 29 0B       .B.....op).
03B0: 54 E0 0E 01 24 29 0B 54  E0 0E 01 26 45 0D 80 F0  T...$).T...&E...
03C0: FF FF 7F F0 FF FF 7F 71  73 74 63 0E 80 20 00 21  .......qstc.. .!
03D0: 00                                                .               
```

#### Opcodes

```
  0: 0x03A4 [0x20] SET_CLI_EVENT_UC_FLAG: Lock player control
  1: 0x03A6 [0x42] SET_CLI_EVENT_CANCEL_DATA()
  2: 0x03A7 [0x1E] EventEntity looks at LocalPlayer and starts talking
  3: 0x03AC [0x6F] WAIT_FRAME_DELAY: Yield until WaitTime reaches zero
  4: 0x03AD [0x70] WAIT_ENTITY_RENDER_FLAG: Wait while EventEntity->Render.Flags3 bit 2 is set (cancel turn if not)
  5: 0x03AE [0x29] REQ_SET_WAIT(priority=0x0B, entity_id=Naiko-Paneiko (ID: 17752148/0x010EE054), tag_num=0x24)
  6: 0x03B5 [0x29] REQ_SET_WAIT(priority=0x0B, entity_id=Naiko-Paneiko (ID: 17752148/0x010EE054), tag_num=0x26)
  7: 0x03BC [0x45] LOAD_SCHEDULED_TASK: Load scheduler "qstc" with entities [LocalPlayer, LocalPlayer], work=[201*, 0*]
  8: 0x03CD [0x20] SET_CLI_EVENT_UC_FLAG: Unlock player control
  9: 0x03CF [0x21] END_EVENT
 10: 0x03D0 [0x00] END_REQSTACK()
```

### Event 676

#### Metadata

| Field        | Value    |
|--------------|----------|
| Entrypoint   | 0x03D1   |
| Data Size    | 32 bytes |
| Instructions | 9        |

```
      00 01 02 03 04 05 06 07  08 09 0A 0B 0C 0D 0E 0F
      -- -- -- -- -- -- -- --  -- -- -- -- -- -- -- --
03D0:    1E F0 FF FF 7F 6F 70  29 0B 54 E0 0E 01 2B 29   .....op).T...+)
03E0: 0B 54 E0 0E 01 2C 29 0B  54 E0 0E 01 2D 20 00 21  .T...,).T...- .!
03F0: 00                                                .               
```

#### Opcodes

```
  0: 0x03D1 [0x1E] EventEntity looks at LocalPlayer and starts talking
  1: 0x03D6 [0x6F] WAIT_FRAME_DELAY: Yield until WaitTime reaches zero
  2: 0x03D7 [0x70] WAIT_ENTITY_RENDER_FLAG: Wait while EventEntity->Render.Flags3 bit 2 is set (cancel turn if not)
  3: 0x03D8 [0x29] REQ_SET_WAIT(priority=0x0B, entity_id=Naiko-Paneiko (ID: 17752148/0x010EE054), tag_num=0x2B)
  4: 0x03DF [0x29] REQ_SET_WAIT(priority=0x0B, entity_id=Naiko-Paneiko (ID: 17752148/0x010EE054), tag_num=0x2C)
  5: 0x03E6 [0x29] REQ_SET_WAIT(priority=0x0B, entity_id=Naiko-Paneiko (ID: 17752148/0x010EE054), tag_num=0x2D)
  6: 0x03ED [0x20] SET_CLI_EVENT_UC_FLAG: Unlock player control
  7: 0x03EF [0x21] END_EVENT
  8: 0x03F0 [0x00] END_REQSTACK()
```

### Event 65535.35

#### Metadata

| Field        | Value    |
|--------------|----------|
| Entrypoint   | 0x03F1   |
| Data Size    | 12 bytes |
| Instructions | 4        |

```
      00 01 02 03 04 05 06 07  08 09 0A 0B 0C 0D 0E 0F
      -- -- -- -- -- -- -- --  -- -- -- -- -- -- -- --
03F0:    29 08 54 E0 0E 01 15  1D 1E 80 23 00            ).T.......#.   
```

#### Opcodes

```
  0: 0x03F1 [0x29] REQ_SET_WAIT(priority=0x08, entity_id=Naiko-Paneiko (ID: 17752148/0x010EE054), tag_num=0x15)
  1: 0x03F8 [0x1D] PRINT_EVENT_MESSAGE(message_id=9116*)
    → "St-st-stolen! Our proof copy has been stolen!"
  2: 0x03FB [0x23] WAIT_FOR_DIALOG_INTERACTION
  3: 0x03FC [0x00] END_REQSTACK()
```

### Event 65535.36

#### Metadata

| Field        | Value    |
|--------------|----------|
| Entrypoint   | 0x03FD   |
| Data Size    | 30 bytes |
| Instructions | 8        |

```
      00 01 02 03 04 05 06 07  08 09 0A 0B 0C 0D 0E 0F
      -- -- -- -- -- -- -- --  -- -- -- -- -- -- -- --
03F0:                                         1D 1F 80               ...
0400: 23 29 08 54 E0 0E 01 16  29 08 54 E0 0E 01 0D 1D  #).T....).T.....
0410: 20 80 23 29 08 54 E0 0E  01 0E 00                  .#).T.....     
```

#### Opcodes

```
  0: 0x03FD [0x1D] PRINT_EVENT_MESSAGE(message_id=9117*)
    → "The proof copy of our next "Magic Paradise Weekly" with the exclusive report on the Cat Burglar's hideout is gone!"
  1: 0x0400 [0x23] WAIT_FOR_DIALOG_INTERACTION
  2: 0x0401 [0x29] REQ_SET_WAIT(priority=0x08, entity_id=Naiko-Paneiko (ID: 17752148/0x010EE054), tag_num=0x16)
  3: 0x0408 [0x29] REQ_SET_WAIT(priority=0x08, entity_id=Naiko-Paneiko (ID: 17752148/0x010EE054), tag_num=0x0D)
  4: 0x040F [0x1D] PRINT_EVENT_MESSAGE(message_id=9118*)
    → "Someone st-st-stole it! Aaawwrrghhh!"
  5: 0x0412 [0x23] WAIT_FOR_DIALOG_INTERACTION
  6: 0x0413 [0x29] REQ_SET_WAIT(priority=0x08, entity_id=Naiko-Paneiko (ID: 17752148/0x010EE054), tag_num=0x0E)
  7: 0x041A [0x00] END_REQSTACK()
```

### Event 65535.37

#### Metadata

| Field        | Value    |
|--------------|----------|
| Entrypoint   | 0x041B   |
| Data Size    | 19 bytes |
| Instructions | 5        |

```
      00 01 02 03 04 05 06 07  08 09 0A 0B 0C 0D 0E 0F
      -- -- -- -- -- -- -- --  -- -- -- -- -- -- -- --
0410:                                   29 08 54 E0 0E             ).T..
0420: 01 0B 1D 21 80 23 29 08  54 E0 0E 01 0C 00        ...!.#).T.....  
```

#### Opcodes

```
  0: 0x041B [0x29] REQ_SET_WAIT(priority=0x08, entity_id=Naiko-Paneiko (ID: 17752148/0x010EE054), tag_num=0x0B)
  1: 0x0422 [0x1D] PRINT_EVENT_MESSAGE(message_id=9119*)
    → "There's only one person who could have done this... None other than the Cat Burglar herself! We've got to get it back, kid! Go! Get moving!"
  2: 0x0425 [0x23] WAIT_FOR_DIALOG_INTERACTION
  3: 0x0426 [0x29] REQ_SET_WAIT(priority=0x08, entity_id=Naiko-Paneiko (ID: 17752148/0x010EE054), tag_num=0x0C)
  4: 0x042D [0x00] END_REQSTACK()
```

### Event 677

#### Metadata

| Field        | Value    |
|--------------|----------|
| Entrypoint   | 0x042E   |
| Data Size    | 29 bytes |
| Instructions | 10       |

```
      00 01 02 03 04 05 06 07  08 09 0A 0B 0C 0D 0E 0F
      -- -- -- -- -- -- -- --  -- -- -- -- -- -- -- --
0420:                                            1E F0                ..
0430: FF FF 7F 6F 70 29 08 54  E0 0E 01 0B 1D 22 80 23  ...op).T.....".#
0440: 29 08 54 E0 0E 01 0C 20  00 21 00                 ).T.... .!.     
```

#### Opcodes

```
  0: 0x042E [0x1E] EventEntity looks at LocalPlayer and starts talking
  1: 0x0433 [0x6F] WAIT_FRAME_DELAY: Yield until WaitTime reaches zero
  2: 0x0434 [0x70] WAIT_ENTITY_RENDER_FLAG: Wait while EventEntity->Render.Flags3 bit 2 is set (cancel turn if not)
  3: 0x0435 [0x29] REQ_SET_WAIT(priority=0x08, entity_id=Naiko-Paneiko (ID: 17752148/0x010EE054), tag_num=0x0B)
  4: 0x043C [0x1D] PRINT_EVENT_MESSAGE(message_id=9120*)
    → "There's only one person who could have stolen it...the Cat Burglar herself! We've got to get the proof copy back, kid! Go! Get moving!"
  5: 0x043F [0x23] WAIT_FOR_DIALOG_INTERACTION
  6: 0x0440 [0x29] REQ_SET_WAIT(priority=0x08, entity_id=Naiko-Paneiko (ID: 17752148/0x010EE054), tag_num=0x0C)
  7: 0x0447 [0x20] SET_CLI_EVENT_UC_FLAG: Unlock player control
  8: 0x0449 [0x21] END_EVENT
  9: 0x044A [0x00] END_REQSTACK()
```

### Event 678

#### Metadata

| Field        | Value    |
|--------------|----------|
| Entrypoint   | 0x044B   |
| Data Size    | 29 bytes |
| Instructions | 10       |

```
      00 01 02 03 04 05 06 07  08 09 0A 0B 0C 0D 0E 0F
      -- -- -- -- -- -- -- --  -- -- -- -- -- -- -- --
0440:                                   1E F0 FF FF 7F             .....
0450: 6F 70 29 08 54 E0 0E 01  01 1D 23 80 23 29 08 54  op).T.....#.#).T
0460: E0 0E 01 1D 20 00 21 00                           .... .!.        
```

#### Opcodes

```
  0: 0x044B [0x1E] EventEntity looks at LocalPlayer and starts talking
  1: 0x0450 [0x6F] WAIT_FRAME_DELAY: Yield until WaitTime reaches zero
  2: 0x0451 [0x70] WAIT_ENTITY_RENDER_FLAG: Wait while EventEntity->Render.Flags3 bit 2 is set (cancel turn if not)
  3: 0x0452 [0x29] REQ_SET_WAIT(priority=0x08, entity_id=Naiko-Paneiko (ID: 17752148/0x010EE054), tag_num=0x01)
  4: 0x0459 [0x1D] PRINT_EVENT_MESSAGE(message_id=9121*)
    → "What's that dirty little box you have there, kid? The "Magic Paradise Weekly" editing room has no need for that, do we, now?"
  5: 0x045C [0x23] WAIT_FOR_DIALOG_INTERACTION
  6: 0x045D [0x29] REQ_SET_WAIT(priority=0x08, entity_id=Naiko-Paneiko (ID: 17752148/0x010EE054), tag_num=0x1D)
  7: 0x0464 [0x20] SET_CLI_EVENT_UC_FLAG: Unlock player control
  8: 0x0466 [0x21] END_EVENT
  9: 0x0467 [0x00] END_REQSTACK()
```

### Event 680

#### Metadata

| Field        | Value     |
|--------------|-----------|
| Entrypoint   | 0x0468    |
| Data Size    | 582 bytes |
| Instructions | 78        |

```
      00 01 02 03 04 05 06 07  08 09 0A 0B 0C 0D 0E 0F
      -- -- -- -- -- -- -- --  -- -- -- -- -- -- -- --
0460:                          20 01 42 46 01 45 24 80           .BF.E$.
0470: F0 FF FF 7F F0 FF FF 7F  66 64 6F 31 0E 80 5D 0E  ........fdo1..].
0480: 80 25 80 1C 25 80 75 00  26 80 75 01 5C 00 27 80  .%..%.u.&.u.\.'.
0490: 5C 01 27 80 5D 28 80 25  80 38 29 80 29 0B F0 FF  \.'.](.%.8).)...
04A0: FF 7F 3D 1E F0 FF FF 7F  6F 70 45 2A 80 F0 FF FF  ..=.....opE*....
04B0: 7F F0 FF FF 7F 73 30 37  30 0E 80 45 24 80 F0 FF  .....s070..E$...
04C0: FF 7F F0 FF FF 7F 66 64  69 31 0E 80 29 0B 54 E0  ......fdi1..).T.
04D0: 0E 01 31 45 24 80 F0 FF  FF 7F F0 FF FF 7F 66 64  ..1E$.........fd
04E0: 6F 31 0E 80 1C 2B 80 4B  54 E0 0E 01 2C 80 6F 76  o1...+.KT...,.ov
04F0: 54 E0 0E 01 66 02 80 F8  FF FF 7F F8 FF FF 7F 77  T...f..........w
0500: 6F 6E 32 29 08 54 E0 0E  01 19 29 08 54 E0 0E 01  on2).T....).T...
0510: 1A 45 2A 80 F8 FF FF 7F  F8 FF FF 7F 73 30 37 31  .E*.........s071
0520: 0E 80 4E 01 F0 FF FF 7F  45 24 80 F8 FF FF 7F F8  ..N.....E$......
0530: FF FF 7F 66 64 69 31 0E  80 29 0B 54 E0 0E 01 32  ...fdi1..).T...2
0540: 29 0B 54 E0 0E 01 33 52  2A 80 F8 FF FF 7F F8 FF  ).T...3R*.......
0550: FF 7F 73 30 37 31 4E 00  F0 FF FF 7F 45 2A 80 F0  ..s071N.....E*..
0560: FF FF 7F F0 FF FF 7F 73  30 37 36 0E 80 29 0B 54  .......s076..).T
0570: E0 0E 01 34 29 08 54 E0  0E 01 1B 2B 56 E0 0E 01  ...4).T....+V...
0580: 2D 80 23 29 08 54 E0 0E  01 1C 29 0B 54 E0 0E 01  -.#).T....).T...
0590: 35 29 08 54 E0 0E 01 1B  2B 56 E0 0E 01 2E 80 23  5).T....+V.....#
05A0: 29 08 54 E0 0E 01 1C 45  24 80 F0 FF FF 7F F0 FF  ).T....E$.......
05B0: FF 7F 66 64 6F 31 0E 80  1C 25 80 29 08 54 E0 0E  ..fdo1...%.).T..
05C0: 01 1D 66 02 80 54 E0 0E  01 54 E0 0E 01 77 6F 66  ..f..T...T...wof
05D0: 32 29 08 54 E0 0E 01 17  1C 2B 80 45 2A 80 F0 FF  2).T.....+.E*...
05E0: FF 7F F0 FF FF 7F 73 30  37 32 0E 80 45 24 80 F0  ......s072..E$..
05F0: FF FF 7F F0 FF FF 7F 66  64 69 31 0E 80 29 0B 54  .......fdi1..).T
0600: E0 0E 01 36 52 2A 80 F0  FF FF 7F F0 FF FF 7F 73  ...6R*.........s
0610: 30 37 32 45 2A 80 F0 FF  FF 7F F0 FF FF 7F 73 30  072E*.........s0
0620: 37 33 0E 80 29 08 54 E0  0E 01 18 29 0B 54 E0 0E  73..).T....).T..
0630: 01 37 4A 54 E0 0E 01 F0  FF FF 7F 6F 76 F8 FF FF  .7JT.......ov...
0640: 7F 6F 76 54 E0 0E 01 29  0B 54 E0 0E 01 38 5D 0E  .ovT...).T...8].
0650: 80 25 80 45 24 80 F0 FF  FF 7F F0 FF FF 7F 66 64  .%.E$.........fd
0660: 6F 31 0E 80 1C 2F 80 66  02 80 F8 FF FF 7F F8 FF  o1.../.f........
0670: FF 7F 77 6F 66 32 46 00  5C 00 30 80 5C 01 30 80  ..wof2F.\.0.\.0.
0680: 5D 28 80 31 80 1C 24 80  45 24 80 F0 FF FF 7F F0  ](.1..$.E$......
0690: FF FF 7F 66 64 69 31 0E  80 45 0D 80 F0 FF FF 7F  ...fdi1..E......
06A0: F0 FF FF 7F 71 73 74 63  0E 80 20 00 21 00        ....qstc.. .!.  
```

#### Opcodes

```
  0: 0x0468 [0x20] SET_CLI_EVENT_UC_FLAG: Lock player control
  1: 0x046A [0x42] SET_CLI_EVENT_CANCEL_DATA()
  2: 0x046B [0x46] CAMERA_CONTROL: Disable user control
  3: 0x046D [0x45] LOAD_SCHEDULED_TASK: Load scheduler "fdo1" with entities [LocalPlayer, LocalPlayer], work=[200*, 0*]
  4: 0x047E [0x5D] SET_MUSIC_VOLUME(volume=0*, fade_time=100*)
  5: 0x0483 [0x1C] WAIT(100* ticks)
  6: 0x0486 [0x75] LOAD_ROOM(Load indoor room, room=389*)
  7: 0x048A [0x75] LOAD_ROOM(No action)
  8: 0x048C [0x5C] MUSIC_CONTROL: Set Idle (Day) music to song 123*
  9: 0x0490 [0x5C] MUSIC_CONTROL: Set Idle (Night) music to song 123*
 10: 0x0494 [0x5D] SET_MUSIC_VOLUME(volume=127*, fade_time=100*)
 11: 0x0499 [0x38] SET_CLIENT_EVENT_MODE(mode=3*)
 12: 0x049C [0x29] REQ_SET_WAIT(priority=0x0B, entity_id=LocalPlayer, tag_num=0x3D)
 13: 0x04A3 [0x1E] EventEntity looks at LocalPlayer and starts talking
 14: 0x04A8 [0x6F] WAIT_FRAME_DELAY: Yield until WaitTime reaches zero
 15: 0x04A9 [0x70] WAIT_ENTITY_RENDER_FLAG: Wait while EventEntity->Render.Flags3 bit 2 is set (cancel turn if not)
 16: 0x04AA [0x45] LOAD_SCHEDULED_TASK: Load scheduler "s070" with entities [LocalPlayer, LocalPlayer], work=[138*, 0*]
 17: 0x04BB [0x45] LOAD_SCHEDULED_TASK: Load scheduler "fdi1" with entities [LocalPlayer, LocalPlayer], work=[200*, 0*]
 18: 0x04CC [0x29] REQ_SET_WAIT(priority=0x0B, entity_id=Naiko-Paneiko (ID: 17752148/0x010EE054), tag_num=0x31)
 19: 0x04D3 [0x45] LOAD_SCHEDULED_TASK: Load scheduler "fdo1" with entities [LocalPlayer, LocalPlayer], work=[200*, 0*]
 20: 0x04E4 [0x1C] WAIT(60* ticks)
 21: 0x04E7 [0x4B] UPDATE_ENTITY_YAW(entity=Naiko-Paneiko (ID: 17752148/0x010EE054), yaw=21.5°*)
 22: 0x04EE [0x6F] WAIT_FRAME_DELAY: Yield until WaitTime reaches zero
 23: 0x04EF [0x76] CHECK_ENTITY_RENDER_FLAGS: Wait until Naiko-Paneiko (ID: 17752148/0x010EE054) Render.Flags0 and Render.Flags3 conditions are met
 24: 0x04F4 [0x66] LOAD_EXT_SCHEDULER_MAIN: Load scheduler "won2" with entities [EventEntity, EventEntity], work=42*
 25: 0x0503 [0x29] REQ_SET_WAIT(priority=0x08, entity_id=Naiko-Paneiko (ID: 17752148/0x010EE054), tag_num=0x19)
 26: 0x050A [0x29] REQ_SET_WAIT(priority=0x08, entity_id=Naiko-Paneiko (ID: 17752148/0x010EE054), tag_num=0x1A)
 27: 0x0511 [0x45] LOAD_SCHEDULED_TASK: Load scheduler "s071" with entities [EventEntity, EventEntity], work=[138*, 0*]
 28: 0x0522 [0x4E] SET_ENTITY_HIDE_FLAG: Hide LocalPlayer
 29: 0x0528 [0x45] LOAD_SCHEDULED_TASK: Load scheduler "fdi1" with entities [EventEntity, EventEntity], work=[200*, 0*]
 30: 0x0539 [0x29] REQ_SET_WAIT(priority=0x0B, entity_id=Naiko-Paneiko (ID: 17752148/0x010EE054), tag_num=0x32)
 31: 0x0540 [0x29] REQ_SET_WAIT(priority=0x0B, entity_id=Naiko-Paneiko (ID: 17752148/0x010EE054), tag_num=0x33)
 32: 0x0547 [0x52] END_LOAD_SCHEDULER: End scheduler "s071" with entities [EventEntity, EventEntity], work=138*
 33: 0x0556 [0x4E] SET_ENTITY_HIDE_FLAG: Show LocalPlayer
 34: 0x055C [0x45] LOAD_SCHEDULED_TASK: Load scheduler "s076" with entities [LocalPlayer, LocalPlayer], work=[138*, 0*]
 35: 0x056D [0x29] REQ_SET_WAIT(priority=0x0B, entity_id=Naiko-Paneiko (ID: 17752148/0x010EE054), tag_num=0x34)
 36: 0x0574 [0x29] REQ_SET_WAIT(priority=0x08, entity_id=Naiko-Paneiko (ID: 17752148/0x010EE054), tag_num=0x1B)
 37: 0x057B [0x2B] Talking Doll (ID: 17752150/0x010EE056) [9129*]:
    → "THE...KEY...IS...IN...THE...CAR-DI-AN'S...STOM-ACH..."
 38: 0x0582 [0x23] WAIT_FOR_DIALOG_INTERACTION
 39: 0x0583 [0x29] REQ_SET_WAIT(priority=0x08, entity_id=Naiko-Paneiko (ID: 17752148/0x010EE054), tag_num=0x1C)
 40: 0x058A [0x29] REQ_SET_WAIT(priority=0x0B, entity_id=Naiko-Paneiko (ID: 17752148/0x010EE054), tag_num=0x35)
 41: 0x0591 [0x29] REQ_SET_WAIT(priority=0x08, entity_id=Naiko-Paneiko (ID: 17752148/0x010EE054), tag_num=0x1B)
 42: 0x0598 [0x2B] Talking Doll (ID: 17752150/0x010EE056) [9131*]:
    → "THE...KEY...IS...IN...THE...CAR-DI-AN'S...STOM-ACH..."
 43: 0x059F [0x23] WAIT_FOR_DIALOG_INTERACTION
 44: 0x05A0 [0x29] REQ_SET_WAIT(priority=0x08, entity_id=Naiko-Paneiko (ID: 17752148/0x010EE054), tag_num=0x1C)
 45: 0x05A7 [0x45] LOAD_SCHEDULED_TASK: Load scheduler "fdo1" with entities [LocalPlayer, LocalPlayer], work=[200*, 0*]
 46: 0x05B8 [0x1C] WAIT(100* ticks)
 47: 0x05BB [0x29] REQ_SET_WAIT(priority=0x08, entity_id=Naiko-Paneiko (ID: 17752148/0x010EE054), tag_num=0x1D)
 48: 0x05C2 [0x66] LOAD_EXT_SCHEDULER_MAIN: Load scheduler "wof2" with entities [Naiko-Paneiko (ID: 17752148/0x010EE054), Naiko-Paneiko (ID: 17752148/0x010EE054)], work=42*
 49: 0x05D1 [0x29] REQ_SET_WAIT(priority=0x08, entity_id=Naiko-Paneiko (ID: 17752148/0x010EE054), tag_num=0x17)
 50: 0x05D8 [0x1C] WAIT(60* ticks)
 51: 0x05DB [0x45] LOAD_SCHEDULED_TASK: Load scheduler "s072" with entities [LocalPlayer, LocalPlayer], work=[138*, 0*]
 52: 0x05EC [0x45] LOAD_SCHEDULED_TASK: Load scheduler "fdi1" with entities [LocalPlayer, LocalPlayer], work=[200*, 0*]
 53: 0x05FD [0x29] REQ_SET_WAIT(priority=0x0B, entity_id=Naiko-Paneiko (ID: 17752148/0x010EE054), tag_num=0x36)
 54: 0x0604 [0x52] END_LOAD_SCHEDULER: End scheduler "s072" with entities [LocalPlayer, LocalPlayer], work=138*
 55: 0x0613 [0x45] LOAD_SCHEDULED_TASK: Load scheduler "s073" with entities [LocalPlayer, LocalPlayer], work=[138*, 0*]
 56: 0x0624 [0x29] REQ_SET_WAIT(priority=0x08, entity_id=Naiko-Paneiko (ID: 17752148/0x010EE054), tag_num=0x18)
 57: 0x062B [0x29] REQ_SET_WAIT(priority=0x0B, entity_id=Naiko-Paneiko (ID: 17752148/0x010EE054), tag_num=0x37)
 58: 0x0632 [0x4A] Naiko-Paneiko (ID: 17752148/0x010EE054) looks at LocalPlayer
 59: 0x063B [0x6F] WAIT_FRAME_DELAY: Yield until WaitTime reaches zero
 60: 0x063C [0x76] CHECK_ENTITY_RENDER_FLAGS: Wait until EventEntity Render.Flags0 and Render.Flags3 conditions are met
 61: 0x0641 [0x6F] WAIT_FRAME_DELAY: Yield until WaitTime reaches zero
 62: 0x0642 [0x76] CHECK_ENTITY_RENDER_FLAGS: Wait until Naiko-Paneiko (ID: 17752148/0x010EE054) Render.Flags0 and Render.Flags3 conditions are met
 63: 0x0647 [0x29] REQ_SET_WAIT(priority=0x0B, entity_id=Naiko-Paneiko (ID: 17752148/0x010EE054), tag_num=0x38)
 64: 0x064E [0x5D] SET_MUSIC_VOLUME(volume=0*, fade_time=100*)
 65: 0x0653 [0x45] LOAD_SCHEDULED_TASK: Load scheduler "fdo1" with entities [LocalPlayer, LocalPlayer], work=[200*, 0*]
 66: 0x0664 [0x1C] WAIT(300* ticks)
 67: 0x0667 [0x66] LOAD_EXT_SCHEDULER_MAIN: Load scheduler "wof2" with entities [EventEntity, EventEntity], work=42*
 68: 0x0676 [0x46] CAMERA_CONTROL: Restore default settings
 69: 0x0678 [0x5C] MUSIC_CONTROL: Set Idle (Day) music to song 151*
 70: 0x067C [0x5C] MUSIC_CONTROL: Set Idle (Night) music to song 151*
 71: 0x0680 [0x5D] SET_MUSIC_VOLUME(volume=127*, fade_time=1*)
 72: 0x0685 [0x1C] WAIT(200* ticks)
 73: 0x0688 [0x45] LOAD_SCHEDULED_TASK: Load scheduler "fdi1" with entities [LocalPlayer, LocalPlayer], work=[200*, 0*]
 74: 0x0699 [0x45] LOAD_SCHEDULED_TASK: Load scheduler "qstc" with entities [LocalPlayer, LocalPlayer], work=[201*, 0*]
 75: 0x06AA [0x20] SET_CLI_EVENT_UC_FLAG: Unlock player control
 76: 0x06AC [0x21] END_EVENT
 77: 0x06AD [0x00] END_REQSTACK()
```

### Event 65535.38

#### Metadata

| Field        | Value    |
|--------------|----------|
| Entrypoint   | 0x06AE   |
| Data Size    | 23 bytes |
| Instructions | 7        |

```
      00 01 02 03 04 05 06 07  08 09 0A 0B 0C 0D 0E 0F
      -- -- -- -- -- -- -- --  -- -- -- -- -- -- -- --
06A0:                                            29 08                ).
06B0: 54 E0 0E 01 13 1D 32 80  23 29 08 54 E0 0E 01 14  T.....2.#).T....
06C0: 1D 33 80 23 00                                    .3.#.           
```

#### Opcodes

```
  0: 0x06AE [0x29] REQ_SET_WAIT(priority=0x08, entity_id=Naiko-Paneiko (ID: 17752148/0x010EE054), tag_num=0x13)
  1: 0x06B5 [0x1D] PRINT_EVENT_MESSAGE(message_id=9124*)
    → "What's that, you say? The stolen proof copy of next week's "Magic Paradise Weekly" is in this box?"
  2: 0x06B8 [0x23] WAIT_FOR_DIALOG_INTERACTION
  3: 0x06B9 [0x29] REQ_SET_WAIT(priority=0x08, entity_id=Naiko-Paneiko (ID: 17752148/0x010EE054), tag_num=0x14)
  4: 0x06C0 [0x1D] PRINT_EVENT_MESSAGE(message_id=9125*)
    → "Let me see... Hmm... Let me see..."
  5: 0x06C3 [0x23] WAIT_FOR_DIALOG_INTERACTION
  6: 0x06C4 [0x00] END_REQSTACK()
```

### Event 65535.39

#### Metadata

| Field        | Value   |
|--------------|---------|
| Entrypoint   | 0x06C5  |
| Data Size    | 5 bytes |
| Instructions | 3       |

```
      00 01 02 03 04 05 06 07  08 09 0A 0B 0C 0D 0E 0F
      -- -- -- -- -- -- -- --  -- -- -- -- -- -- -- --
06C0:                1D 34 80  23 00                         .4.#.      
```

#### Opcodes

```
  0: 0x06C5 [0x1D] PRINT_EVENT_MESSAGE(message_id=9126*)
    → "You're rightaru! This really is the stolen proof copy of our "Magic Paradise Weekly"!"
  1: 0x06C8 [0x23] WAIT_FOR_DIALOG_INTERACTION
  2: 0x06C9 [0x00] END_REQSTACK()
```

### Event 65535.40

#### Metadata

| Field        | Value   |
|--------------|---------|
| Entrypoint   | 0x06CA  |
| Data Size    | 5 bytes |
| Instructions | 3       |

```
      00 01 02 03 04 05 06 07  08 09 0A 0B 0C 0D 0E 0F
      -- -- -- -- -- -- -- --  -- -- -- -- -- -- -- --
06C0:                                1D 35 80 23 00               .5.#. 
```

#### Opcodes

```
  0: 0x06CA [0x1D] PRINT_EVENT_MESSAGE(message_id=9127*)
    → "Now that we have this magic doll back, everything's all right! This talking doll has recorded all our reporters' articles and interviews with important people. Everything we need to go to production is in here."
  1: 0x06CD [0x23] WAIT_FOR_DIALOG_INTERACTION
  2: 0x06CE [0x00] END_REQSTACK()
```

### Event 65535.41

#### Metadata

| Field        | Value   |
|--------------|---------|
| Entrypoint   | 0x06CF  |
| Data Size    | 5 bytes |
| Instructions | 3       |

```
      00 01 02 03 04 05 06 07  08 09 0A 0B 0C 0D 0E 0F
      -- -- -- -- -- -- -- --  -- -- -- -- -- -- -- --
06C0:                                               1D                 .
06D0: 36 80 23 00                                       6.#.            
```

#### Opcodes

```
  0: 0x06CF [0x1D] PRINT_EVENT_MESSAGE(message_id=9128*)
    → "Here we go...! Switch on!"
  1: 0x06D2 [0x23] WAIT_FOR_DIALOG_INTERACTION
  2: 0x06D3 [0x00] END_REQSTACK()
```

### Event 65535.42

#### Metadata

| Field        | Value   |
|--------------|---------|
| Entrypoint   | 0x06D4  |
| Data Size    | 5 bytes |
| Instructions | 3       |

```
      00 01 02 03 04 05 06 07  08 09 0A 0B 0C 0D 0E 0F
      -- -- -- -- -- -- -- --  -- -- -- -- -- -- -- --
06D0:             1D 37 80 23  00                           .7.#.       
```

#### Opcodes

```
  0: 0x06D4 [0x1D] PRINT_EVENT_MESSAGE(message_id=9130*)
    → "Wha-wha-wha-wha-what!?"
  1: 0x06D7 [0x23] WAIT_FOR_DIALOG_INTERACTION
  2: 0x06D8 [0x00] END_REQSTACK()
```

### Event 65535.43

#### Metadata

| Field        | Value   |
|--------------|---------|
| Entrypoint   | 0x06D9  |
| Data Size    | 9 bytes |
| Instructions | 5       |

```
      00 01 02 03 04 05 06 07  08 09 0A 0B 0C 0D 0E 0F
      -- -- -- -- -- -- -- --  -- -- -- -- -- -- -- --
06D0:                             1D 38 80 23 1D 39 80           .8.#.9.
06E0: 23 00                                             #.              
```

#### Opcodes

```
  0: 0x06D9 [0x1D] PRINT_EVENT_MESSAGE(message_id=9132*)
    → "Damn that cursed Cat Burglar!!! She recorded over our data by making the doll memorize a new message!"
  1: 0x06DC [0x23] WAIT_FOR_DIALOG_INTERACTION
  2: 0x06DD [0x1D] PRINT_EVENT_MESSAGE(message_id=9133*)
    → "Waaah! This means we've lost the entire contents of our next "Magic Paradise Weekly"! <Sniff>... Boo-hoo-ho`o!!!"
  3: 0x06E0 [0x23] WAIT_FOR_DIALOG_INTERACTION
  4: 0x06E1 [0x00] END_REQSTACK()
```

### Event 65535.44

#### Metadata

| Field        | Value   |
|--------------|---------|
| Entrypoint   | 0x06E2  |
| Data Size    | 5 bytes |
| Instructions | 3       |

```
      00 01 02 03 04 05 06 07  08 09 0A 0B 0C 0D 0E 0F
      -- -- -- -- -- -- -- --  -- -- -- -- -- -- -- --
06E0:       1D 3A 80 23 00                                .:.#.         
```

#### Opcodes

```
  0: 0x06E2 [0x1D] PRINT_EVENT_MESSAGE(message_id=9134*)
    → "I guess it just goes to prove the old saying... "If you can't say anything nice about someone, then don't say it atarull!""
  1: 0x06E5 [0x23] WAIT_FOR_DIALOG_INTERACTION
  2: 0x06E6 [0x00] END_REQSTACK()
```

### Event 65535.45

#### Metadata

| Field        | Value    |
|--------------|----------|
| Entrypoint   | 0x06E7   |
| Data Size    | 23 bytes |
| Instructions | 7        |

```
      00 01 02 03 04 05 06 07  08 09 0A 0B 0C 0D 0E 0F
      -- -- -- -- -- -- -- --  -- -- -- -- -- -- -- --
06E0:                      29  08 54 E0 0E 01 0F 1D 3B         ).T.....;
06F0: 80 23 29 08 54 E0 0E 01  10 1D 3C 80 23 00        .#).T.....<.#.  
```

#### Opcodes

```
  0: 0x06E7 [0x29] REQ_SET_WAIT(priority=0x08, entity_id=Naiko-Paneiko (ID: 17752148/0x010EE054), tag_num=0x0F)
  1: 0x06EE [0x1D] PRINT_EVENT_MESSAGE(message_id=9135*)
    → "You there, kid! Bravo on getting our magic doll back from the paws of that thieving Cat Burglar!"
  2: 0x06F1 [0x23] WAIT_FOR_DIALOG_INTERACTION
  3: 0x06F2 [0x29] REQ_SET_WAIT(priority=0x08, entity_id=Naiko-Paneiko (ID: 17752148/0x010EE054), tag_num=0x10)
  4: 0x06F9 [0x1D] PRINT_EVENT_MESSAGE(message_id=9136*)
    → "Let me show my appreciation for your work there, kid... Thanks!"
  5: 0x06FC [0x23] WAIT_FOR_DIALOG_INTERACTION
  6: 0x06FD [0x00] END_REQSTACK()
```

### Event 681

#### Metadata

| Field        | Value    |
|--------------|----------|
| Entrypoint   | 0x06FE   |
| Data Size    | 33 bytes |
| Instructions | 12       |

```
      00 01 02 03 04 05 06 07  08 09 0A 0B 0C 0D 0E 0F
      -- -- -- -- -- -- -- --  -- -- -- -- -- -- -- --
06F0:                                            1E F0                ..
0700: FF FF 7F 6F 70 29 08 54  E0 0E 01 01 1D 3D 80 23  ...op).T.....=.#
0710: 1D 3E 80 23 29 08 54 E0  0E 01 1D 20 00 21 00     .>.#).T.... .!. 
```

#### Opcodes

```
  0: 0x06FE [0x1E] EventEntity looks at LocalPlayer and starts talking
  1: 0x0703 [0x6F] WAIT_FRAME_DELAY: Yield until WaitTime reaches zero
  2: 0x0704 [0x70] WAIT_ENTITY_RENDER_FLAG: Wait while EventEntity->Render.Flags3 bit 2 is set (cancel turn if not)
  3: 0x0705 [0x29] REQ_SET_WAIT(priority=0x08, entity_id=Naiko-Paneiko (ID: 17752148/0x010EE054), tag_num=0x01)
  4: 0x070C [0x1D] PRINT_EVENT_MESSAGE(message_id=9137*)
    → "What!? You thought our "Magic Paradise Weekly" was a newspaper or a book or something?"
  5: 0x070F [0x23] WAIT_FOR_DIALOG_INTERACTION
  6: 0x0710 [0x1D] PRINT_EVENT_MESSAGE(message_id=9138*)
    → "Don't assume we're behind the Times, kid. "Magic Paradise Weekly" is at the forefront of modern technology."
  7: 0x0713 [0x23] WAIT_FOR_DIALOG_INTERACTION
  8: 0x0714 [0x29] REQ_SET_WAIT(priority=0x08, entity_id=Naiko-Paneiko (ID: 17752148/0x010EE054), tag_num=0x1D)
  9: 0x071B [0x20] SET_CLI_EVENT_UC_FLAG: Unlock player control
 10: 0x071D [0x21] END_EVENT
 11: 0x071E [0x00] END_REQSTACK()
```
