# 17752289 - Lumomo

## Common Data

| Field            | Value                     |
|------------------|---------------------------|
| Zone             | Windurst Waters (ID: 238) |
| Block Size       | 740 bytes                 |
| Total Events     | 8                         |
| References Count | 21                        |

## List of Events

| Event ID              | Entrypoint   |   Size |   Instructions |
|-----------------------|--------------|--------|----------------|
| [65535](#event-65535) | 0x0000       |      1 |              1 |
| [638](#event-638)     | 0x0001       |      1 |              1 |
| [818](#event-818)     | 0x0002       |    314 |             59 |
| [819](#event-819)     | 0x013C       |     46 |             11 |
| [820](#event-820)     | 0x016A       |     46 |             11 |
| [821](#event-821)     | 0x0198       |     46 |             11 |
| [822](#event-822)     | 0x01C6       |    107 |             18 |
| [823](#event-823)     | 0x0231       |     46 |             11 |

## DAT References (imed_data)

|   Index | Hex Value   |   Dec Value |
|---------|-------------|-------------|
|       0 | 0x0031      |          49 |
|       1 | 0x27CE      |       10190 |
|       2 | 0x27CF      |       10191 |
|       3 | 0x0001      |           1 |
|       4 | 0x0000      |           0 |
|       5 | 0x27D0      |       10192 |
|       6 | 0x27D1      |       10193 |
|       7 | 0x27D2      |       10194 |
|       8 | 0x27D3      |       10195 |
|       9 | 0x27D4      |       10196 |
|      10 | 0x27D5      |       10197 |
|      11 | 0x27D6      |       10198 |
|      12 | 0x0028      |          40 |
|      13 | 0x001E      |          30 |
|      14 | 0x27D7      |       10199 |
|      15 | 0x27CB      |       10187 |
|      16 | 0x27D8      |       10200 |
|      17 | 0x01DA      |         474 |
|      18 | 0x27D9      |       10201 |
|      19 | 0x00C9      |         201 |
|      20 | 0x27CC      |       10188 |

## String References

- **10187**: Nothing beats good old Windurstian cooking! Those foreign foods make me feel so bloaty-woated!
- **10188**: Hey, [Mister/Miss] Adventurer! Oh...never mind. You already look kinda busy-wusy.
- **10190**: Hey, [Mister/Miss] Adventurer! Can you spare a momentaru for the ecology of Vana'diel?
- **10191**: Got a momentaru? [Alrighty-wighty./Not rightaru now.]
- **10192**: Have you heard of the Maze of Shakhrami?
- **10193**: Exactaruly, those creepy-weepy caves found between the Tahrongi Canyon and Buburimu Peninsula.
- **10194**: There have been signs that some beasties have been feasting on the corpses down there... Ewww!
- **10195**: We've been trying to get an adventurer to go there and exterminataru the creatures, but haven't had much luck. Will you help us?
- **10196**: Take on the task? [Sure, I love mazes!/I get lost in my own Mog House...]
- **10197**: Excellentaru! Bring me back proof that you've trouncy-wounced the beasties, and I'll pay you a reward from the Vana'diel Environmental Resource Management Initiative Network fund.
- **10198**: Our V.E.R.M.I.N. field agent, Ahko Mhalijikhari, will be waiting in the maze to give you further instructions. Ta-taru and good luck!
- **10199**: Really? Well, I guess I'll justaru have to ask someone else...
- **10200**: You can get more details on the assignment from Ahko Mhalijikhari, our V.E.R.M.I.N. field agent in the maze.
- **10201**: Yuck! 3! Okay, okay, here's your reward. Justaru get that thing away from me!

## Events

### Event 65535

#### Metadata

| Field        | Value   |
|--------------|---------|
| Entrypoint   | 0x0000  |
| Data Size    | 1 bytes |
| Instructions | 1       |

```
      00 01 02 03 04 05 06 07  08 09 0A 0B 0C 0D 0E 0F
      -- -- -- -- -- -- -- --  -- -- -- -- -- -- -- --
0000: 00                                                .               
```

#### Opcodes

```
  0: 0x0000 [0x00] END_REQSTACK()
```

### Event 638

#### Metadata

| Field        | Value   |
|--------------|---------|
| Entrypoint   | 0x0001  |
| Data Size    | 1 bytes |
| Instructions | 1       |

```
      00 01 02 03 04 05 06 07  08 09 0A 0B 0C 0D 0E 0F
      -- -- -- -- -- -- -- --  -- -- -- -- -- -- -- --
0000:    00                                              .              
```

#### Opcodes

```
  0: 0x0001 [0x00] END_REQSTACK()
```

### Event 818

#### Metadata

| Field        | Value     |
|--------------|-----------|
| Entrypoint   | 0x0002    |
| Data Size    | 314 bytes |
| Instructions | 59        |

```
      00 01 02 03 04 05 06 07  08 09 0A 0B 0C 0D 0E 0F
      -- -- -- -- -- -- -- --  -- -- -- -- -- -- -- --
0000:       42 1E F0 FF FF 7F  6F 70 66 00 80 F8 FF FF    B.....opf.....
0010: 7F F8 FF FF 7F 74 6C 6B  30 1D 01 80 23 24 02 80  .....tlk0...#$..
0020: 03 80 04 80 25 02 00 10  04 80 00 F5 00 1D 05 80  ....%...........
0030: 23 1D 06 80 23 1D 07 80  23 1D 08 80 23 66 00 80  #...#...#...#f..
0040: F8 FF FF 7F F8 FF FF 7F  74 6C 6B 31 24 09 80 03  ........tlk1$...
0050: 80 04 80 25 02 00 10 04  80 00 AF 00 42 66 00 80  ...%........Bf..
0060: F8 FF FF 7F F8 FF FF 7F  74 6C 6B 30 1D 0A 80 23  ........tlk0...#
0070: 03 01 10 03 80 66 00 80  F8 FF FF 7F F8 FF FF 7F  .....f..........
0080: 74 6C 6B 31 1D 0B 80 23  66 0C 80 F8 FF FF 7F F8  tlk1...#f.......
0090: FF FF 7F 77 61 76 30 53  F8 FF FF 7F F8 FF FF 7F  ...wav0S........
00A0: 77 61 76 30 5E 69 64 6C  30 1C 0D 80 01 F2 00 02  wav0^idl0.......
00B0: 00 10 03 80 00 F2 00 42  66 0C 80 F8 FF FF 7F F8  .......Bf.......
00C0: FF FF 7F 74 68 6B 31 1D  0E 80 23 66 0C 80 F8 FF  ...thk1...#f....
00D0: FF 7F F8 FF FF 7F 74 68  6B 32 53 F8 FF FF 7F F8  ......thk2S.....
00E0: FF FF 7F 74 68 6B 32 5E  69 64 6C 30 1C 0D 80 01  ...thk2^idl0....
00F0: F2 00 01 38 01 02 00 10  03 80 00 38 01 42 66 0C  ...8.......8.Bf.
0100: 80 F8 FF FF 7F F8 FF FF  7F 74 68 6B 31 1D 0E 80  .........thk1...
0110: 23 66 0C 80 F8 FF FF 7F  F8 FF FF 7F 74 68 6B 32  #f..........thk2
0120: 53 F8 FF FF 7F F8 FF FF  7F 74 68 6B 32 5E 69 64  S........thk2^id
0130: 6C 30 1C 0D 80 01 38 01  20 00 21 00              l0....8. .!.    
```

#### Opcodes

```
  0: 0x0002 [0x42] SET_CLI_EVENT_CANCEL_DATA()
  1: 0x0003 [0x1E] EventEntity looks at LocalPlayer and starts talking
  2: 0x0008 [0x6F] WAIT_FRAME_DELAY: Yield until WaitTime reaches zero
  3: 0x0009 [0x70] WAIT_ENTITY_RENDER_FLAG: Wait while EventEntity->Render.Flags3 bit 2 is set (cancel turn if not)
  4: 0x000A [0x66] LOAD_EXT_SCHEDULER_MAIN: Load scheduler "tlk0" with entities [EventEntity, EventEntity], work=49*
  5: 0x0019 [0x1D] PRINT_EVENT_MESSAGE(message_id=10190*)
    → "Hey, [Mister/Miss] Adventurer! Can you spare a momentaru for the ecology of Vana'diel?"
  6: 0x001C [0x23] WAIT_FOR_DIALOG_INTERACTION
  7: 0x001D [0x24] CREATE_DIALOG(message_id=10191*, default_option=1*, option_flags=0*)
    → "Got a momentaru? [Alrighty-wighty./Not rightaru now.]"
  8: 0x0024 [0x25] WAIT_DIALOG_SELECT()
  9: 0x0025 [0x02] IF !(Work_Zone[0] == 0*) GOTO 0x00F5
 10: 0x002D [0x1D] PRINT_EVENT_MESSAGE(message_id=10192*)
    → "Have you heard of the Maze of Shakhrami?"
 11: 0x0030 [0x23] WAIT_FOR_DIALOG_INTERACTION
 12: 0x0031 [0x1D] PRINT_EVENT_MESSAGE(message_id=10193*)
    → "Exactaruly, those creepy-weepy caves found between the Tahrongi Canyon and Buburimu Peninsula."
 13: 0x0034 [0x23] WAIT_FOR_DIALOG_INTERACTION
 14: 0x0035 [0x1D] PRINT_EVENT_MESSAGE(message_id=10194*)
    → "There have been signs that some beasties have been feasting on the corpses down there... Ewww!"
 15: 0x0038 [0x23] WAIT_FOR_DIALOG_INTERACTION
 16: 0x0039 [0x1D] PRINT_EVENT_MESSAGE(message_id=10195*)
    → "We've been trying to get an adventurer to go there and exterminataru the creatures, but haven't had much luck. Will you help us?"
 17: 0x003C [0x23] WAIT_FOR_DIALOG_INTERACTION
 18: 0x003D [0x66] LOAD_EXT_SCHEDULER_MAIN: Load scheduler "tlk1" with entities [EventEntity, EventEntity], work=49*
 19: 0x004C [0x24] CREATE_DIALOG(message_id=10196*, default_option=1*, option_flags=0*)
    → "Take on the task? [Sure, I love mazes!/I get lost in my own Mog House...]"
 20: 0x0053 [0x25] WAIT_DIALOG_SELECT()
 21: 0x0054 [0x02] IF !(Work_Zone[0] == 0*) GOTO 0x00AF
 22: 0x005C [0x42] SET_CLI_EVENT_CANCEL_DATA()
 23: 0x005D [0x66] LOAD_EXT_SCHEDULER_MAIN: Load scheduler "tlk0" with entities [EventEntity, EventEntity], work=49*
 24: 0x006C [0x1D] PRINT_EVENT_MESSAGE(message_id=10197*)
    → "Excellentaru! Bring me back proof that you've trouncy-wounced the beasties, and I'll pay you a reward from the Vana'diel Environmental Resource Management Initiative Network fund."
 25: 0x006F [0x23] WAIT_FOR_DIALOG_INTERACTION
 26: 0x0070 [0x03] Work_Zone[1] = 1*
 27: 0x0075 [0x66] LOAD_EXT_SCHEDULER_MAIN: Load scheduler "tlk1" with entities [EventEntity, EventEntity], work=49*
 28: 0x0084 [0x1D] PRINT_EVENT_MESSAGE(message_id=10198*)
    → "Our V.E.R.M.I.N. field agent, Ahko Mhalijikhari, will be waiting in the maze to give you further instructions. Ta-taru and good luck!"
 29: 0x0087 [0x23] WAIT_FOR_DIALOG_INTERACTION
 30: 0x0088 [0x66] LOAD_EXT_SCHEDULER_MAIN: Load scheduler "wav0" with entities [EventEntity, EventEntity], work=40*
 31: 0x0097 [0x53] WAIT_SCHEDULER_TASK: Wait for scheduler "wav0" with entities [EventEntity, EventEntity]
 32: 0x00A4 [0x5E] EventEntity goes idle (kills current action) (animation: "idl0")
 33: 0x00A9 [0x1C] WAIT(30* ticks)
 34: 0x00AC [0x01] GOTO 0x00F2
 35: 0x00AF [0x02] IF !(Work_Zone[0] == 1*) GOTO 0x00F2
 36: 0x00B7 [0x42] SET_CLI_EVENT_CANCEL_DATA()
 37: 0x00B8 [0x66] LOAD_EXT_SCHEDULER_MAIN: Load scheduler "thk1" with entities [EventEntity, EventEntity], work=40*
 38: 0x00C7 [0x1D] PRINT_EVENT_MESSAGE(message_id=10199*)
    → "Really? Well, I guess I'll justaru have to ask someone else..."
 39: 0x00CA [0x23] WAIT_FOR_DIALOG_INTERACTION
 40: 0x00CB [0x66] LOAD_EXT_SCHEDULER_MAIN: Load scheduler "thk2" with entities [EventEntity, EventEntity], work=40*
 41: 0x00DA [0x53] WAIT_SCHEDULER_TASK: Wait for scheduler "thk2" with entities [EventEntity, EventEntity]
 42: 0x00E7 [0x5E] EventEntity goes idle (kills current action) (animation: "idl0")
 43: 0x00EC [0x1C] WAIT(30* ticks)
 44: 0x00EF [0x01] GOTO 0x00F2

SUBROUTINE_00F2:
 45: 0x00F2 [0x01] GOTO 0x0138
 46: 0x00F5 [0x02] IF !(Work_Zone[0] == 1*) GOTO 0x0138
 47: 0x00FD [0x42] SET_CLI_EVENT_CANCEL_DATA()
 48: 0x00FE [0x66] LOAD_EXT_SCHEDULER_MAIN: Load scheduler "thk1" with entities [EventEntity, EventEntity], work=40*
 49: 0x010D [0x1D] PRINT_EVENT_MESSAGE(message_id=10199*)
    → "Really? Well, I guess I'll justaru have to ask someone else..."
 50: 0x0110 [0x23] WAIT_FOR_DIALOG_INTERACTION
 51: 0x0111 [0x66] LOAD_EXT_SCHEDULER_MAIN: Load scheduler "thk2" with entities [EventEntity, EventEntity], work=40*
 52: 0x0120 [0x53] WAIT_SCHEDULER_TASK: Wait for scheduler "thk2" with entities [EventEntity, EventEntity]
 53: 0x012D [0x5E] EventEntity goes idle (kills current action) (animation: "idl0")
 54: 0x0132 [0x1C] WAIT(30* ticks)
 55: 0x0135 [0x01] GOTO 0x0138

SUBROUTINE_0138:
 56: 0x0138 [0x20] SET_CLI_EVENT_UC_FLAG: Unlock player control
 57: 0x013A [0x21] END_EVENT
 58: 0x013B [0x00] END_REQSTACK()
```

### Event 819

#### Metadata

| Field        | Value    |
|--------------|----------|
| Entrypoint   | 0x013C   |
| Data Size    | 46 bytes |
| Instructions | 11       |

```
      00 01 02 03 04 05 06 07  08 09 0A 0B 0C 0D 0E 0F
      -- -- -- -- -- -- -- --  -- -- -- -- -- -- -- --
0130:                                      42 1E F0 FF              B...
0140: FF 7F 6F 70 66 00 80 F8  FF FF 7F F8 FF FF 7F 74  ..opf..........t
0150: 6C 6B 30 1D 0F 80 23 66  00 80 F8 FF FF 7F F8 FF  lk0...#f........
0160: FF 7F 74 6C 6B 31 20 00  21 00                    ..tlk1 .!.      
```

#### Opcodes

```
  0: 0x013C [0x42] SET_CLI_EVENT_CANCEL_DATA()
  1: 0x013D [0x1E] EventEntity looks at LocalPlayer and starts talking
  2: 0x0142 [0x6F] WAIT_FRAME_DELAY: Yield until WaitTime reaches zero
  3: 0x0143 [0x70] WAIT_ENTITY_RENDER_FLAG: Wait while EventEntity->Render.Flags3 bit 2 is set (cancel turn if not)
  4: 0x0144 [0x66] LOAD_EXT_SCHEDULER_MAIN: Load scheduler "tlk0" with entities [EventEntity, EventEntity], work=49*
  5: 0x0153 [0x1D] PRINT_EVENT_MESSAGE(message_id=10187*)
    → "Nothing beats good old Windurstian cooking! Those foreign foods make me feel so bloaty-woated!"
  6: 0x0156 [0x23] WAIT_FOR_DIALOG_INTERACTION
  7: 0x0157 [0x66] LOAD_EXT_SCHEDULER_MAIN: Load scheduler "tlk1" with entities [EventEntity, EventEntity], work=49*
  8: 0x0166 [0x20] SET_CLI_EVENT_UC_FLAG: Unlock player control
  9: 0x0168 [0x21] END_EVENT
 10: 0x0169 [0x00] END_REQSTACK()
```

### Event 820

#### Metadata

| Field        | Value    |
|--------------|----------|
| Entrypoint   | 0x016A   |
| Data Size    | 46 bytes |
| Instructions | 11       |

```
      00 01 02 03 04 05 06 07  08 09 0A 0B 0C 0D 0E 0F
      -- -- -- -- -- -- -- --  -- -- -- -- -- -- -- --
0160:                                42 1E F0 FF FF 7F            B.....
0170: 6F 70 66 00 80 F8 FF FF  7F F8 FF FF 7F 74 6C 6B  opf..........tlk
0180: 30 1D 10 80 23 66 00 80  F8 FF FF 7F F8 FF FF 7F  0...#f..........
0190: 74 6C 6B 31 20 00 21 00                           tlk1 .!.        
```

#### Opcodes

```
  0: 0x016A [0x42] SET_CLI_EVENT_CANCEL_DATA()
  1: 0x016B [0x1E] EventEntity looks at LocalPlayer and starts talking
  2: 0x0170 [0x6F] WAIT_FRAME_DELAY: Yield until WaitTime reaches zero
  3: 0x0171 [0x70] WAIT_ENTITY_RENDER_FLAG: Wait while EventEntity->Render.Flags3 bit 2 is set (cancel turn if not)
  4: 0x0172 [0x66] LOAD_EXT_SCHEDULER_MAIN: Load scheduler "tlk0" with entities [EventEntity, EventEntity], work=49*
  5: 0x0181 [0x1D] PRINT_EVENT_MESSAGE(message_id=10200*)
    → "You can get more details on the assignment from Ahko Mhalijikhari, our V.E.R.M.I.N. field agent in the maze."
  6: 0x0184 [0x23] WAIT_FOR_DIALOG_INTERACTION
  7: 0x0185 [0x66] LOAD_EXT_SCHEDULER_MAIN: Load scheduler "tlk1" with entities [EventEntity, EventEntity], work=49*
  8: 0x0194 [0x20] SET_CLI_EVENT_UC_FLAG: Unlock player control
  9: 0x0196 [0x21] END_EVENT
 10: 0x0197 [0x00] END_REQSTACK()
```

### Event 821

#### Metadata

| Field        | Value    |
|--------------|----------|
| Entrypoint   | 0x0198   |
| Data Size    | 46 bytes |
| Instructions | 11       |

```
      00 01 02 03 04 05 06 07  08 09 0A 0B 0C 0D 0E 0F
      -- -- -- -- -- -- -- --  -- -- -- -- -- -- -- --
0190:                          42 1E F0 FF FF 7F 6F 70          B.....op
01A0: 66 00 80 F8 FF FF 7F F8  FF FF 7F 74 6C 6B 30 1D  f..........tlk0.
01B0: 0F 80 23 66 00 80 F8 FF  FF 7F F8 FF FF 7F 74 6C  ..#f..........tl
01C0: 6B 31 20 00 21 00                                 k1 .!.          
```

#### Opcodes

```
  0: 0x0198 [0x42] SET_CLI_EVENT_CANCEL_DATA()
  1: 0x0199 [0x1E] EventEntity looks at LocalPlayer and starts talking
  2: 0x019E [0x6F] WAIT_FRAME_DELAY: Yield until WaitTime reaches zero
  3: 0x019F [0x70] WAIT_ENTITY_RENDER_FLAG: Wait while EventEntity->Render.Flags3 bit 2 is set (cancel turn if not)
  4: 0x01A0 [0x66] LOAD_EXT_SCHEDULER_MAIN: Load scheduler "tlk0" with entities [EventEntity, EventEntity], work=49*
  5: 0x01AF [0x1D] PRINT_EVENT_MESSAGE(message_id=10187*)
    → "Nothing beats good old Windurstian cooking! Those foreign foods make me feel so bloaty-woated!"
  6: 0x01B2 [0x23] WAIT_FOR_DIALOG_INTERACTION
  7: 0x01B3 [0x66] LOAD_EXT_SCHEDULER_MAIN: Load scheduler "tlk1" with entities [EventEntity, EventEntity], work=49*
  8: 0x01C2 [0x20] SET_CLI_EVENT_UC_FLAG: Unlock player control
  9: 0x01C4 [0x21] END_EVENT
 10: 0x01C5 [0x00] END_REQSTACK()
```

### Event 822

#### Metadata

| Field        | Value     |
|--------------|-----------|
| Entrypoint   | 0x01C6    |
| Data Size    | 107 bytes |
| Instructions | 18        |

```
      00 01 02 03 04 05 06 07  08 09 0A 0B 0C 0D 0E 0F
      -- -- -- -- -- -- -- --  -- -- -- -- -- -- -- --
01C0:                   42 1E  F0 FF FF 7F 6F 70 66 00        B.....opf.
01D0: 80 F8 FF FF 7F F8 FF FF  7F 74 6C 6B 30 03 02 10  .........tlk0...
01E0: 11 80 1D 12 80 23 66 00  80 F8 FF FF 7F F8 FF FF  .....#f.........
01F0: 7F 74 6C 6B 31 66 0C 80  F8 FF FF 7F F8 FF FF 7F  .tlk1f..........
0200: 70 61 73 30 53 F8 FF FF  7F F8 FF FF 7F 70 61 73  pas0S........pas
0210: 30 5E 69 64 6C 30 1C 0D  80 45 13 80 F0 FF FF 7F  0^idl0...E......
0220: F0 FF FF 7F 71 73 74 63  04 80 1C 0D 80 20 00 21  ....qstc..... .!
0230: 00                                                .               
```

#### Opcodes

```
  0: 0x01C6 [0x42] SET_CLI_EVENT_CANCEL_DATA()
  1: 0x01C7 [0x1E] EventEntity looks at LocalPlayer and starts talking
  2: 0x01CC [0x6F] WAIT_FRAME_DELAY: Yield until WaitTime reaches zero
  3: 0x01CD [0x70] WAIT_ENTITY_RENDER_FLAG: Wait while EventEntity->Render.Flags3 bit 2 is set (cancel turn if not)
  4: 0x01CE [0x66] LOAD_EXT_SCHEDULER_MAIN: Load scheduler "tlk0" with entities [EventEntity, EventEntity], work=49*
  5: 0x01DD [0x03] Work_Zone[2] = 474*
  6: 0x01E2 [0x1D] PRINT_EVENT_MESSAGE(message_id=10201*)
    → "Yuck! 3! Okay, okay, here's your reward. Justaru get that thing away from me!"
  7: 0x01E5 [0x23] WAIT_FOR_DIALOG_INTERACTION
  8: 0x01E6 [0x66] LOAD_EXT_SCHEDULER_MAIN: Load scheduler "tlk1" with entities [EventEntity, EventEntity], work=49*
  9: 0x01F5 [0x66] LOAD_EXT_SCHEDULER_MAIN: Load scheduler "pas0" with entities [EventEntity, EventEntity], work=40*
 10: 0x0204 [0x53] WAIT_SCHEDULER_TASK: Wait for scheduler "pas0" with entities [EventEntity, EventEntity]
 11: 0x0211 [0x5E] EventEntity goes idle (kills current action) (animation: "idl0")
 12: 0x0216 [0x1C] WAIT(30* ticks)
 13: 0x0219 [0x45] LOAD_SCHEDULED_TASK: Load scheduler "qstc" with entities [LocalPlayer, LocalPlayer], work=[201*, 0*]
 14: 0x022A [0x1C] WAIT(30* ticks)
 15: 0x022D [0x20] SET_CLI_EVENT_UC_FLAG: Unlock player control
 16: 0x022F [0x21] END_EVENT
 17: 0x0230 [0x00] END_REQSTACK()
```

### Event 823

#### Metadata

| Field        | Value    |
|--------------|----------|
| Entrypoint   | 0x0231   |
| Data Size    | 46 bytes |
| Instructions | 11       |

```
      00 01 02 03 04 05 06 07  08 09 0A 0B 0C 0D 0E 0F
      -- -- -- -- -- -- -- --  -- -- -- -- -- -- -- --
0230:    42 1E F0 FF FF 7F 6F  70 66 00 80 F8 FF FF 7F   B.....opf......
0240: F8 FF FF 7F 74 6C 6B 30  1D 14 80 23 66 00 80 F8  ....tlk0...#f...
0250: FF FF 7F F8 FF FF 7F 74  6C 6B 31 20 00 21 00     .......tlk1 .!. 
```

#### Opcodes

```
  0: 0x0231 [0x42] SET_CLI_EVENT_CANCEL_DATA()
  1: 0x0232 [0x1E] EventEntity looks at LocalPlayer and starts talking
  2: 0x0237 [0x6F] WAIT_FRAME_DELAY: Yield until WaitTime reaches zero
  3: 0x0238 [0x70] WAIT_ENTITY_RENDER_FLAG: Wait while EventEntity->Render.Flags3 bit 2 is set (cancel turn if not)
  4: 0x0239 [0x66] LOAD_EXT_SCHEDULER_MAIN: Load scheduler "tlk0" with entities [EventEntity, EventEntity], work=49*
  5: 0x0248 [0x1D] PRINT_EVENT_MESSAGE(message_id=10188*)
    → "Hey, [Mister/Miss] Adventurer! Oh...never mind. You already look kinda busy-wusy."
  6: 0x024B [0x23] WAIT_FOR_DIALOG_INTERACTION
  7: 0x024C [0x66] LOAD_EXT_SCHEDULER_MAIN: Load scheduler "tlk1" with entities [EventEntity, EventEntity], work=49*
  8: 0x025B [0x20] SET_CLI_EVENT_UC_FLAG: Unlock player control
  9: 0x025D [0x21] END_EVENT
 10: 0x025E [0x00] END_REQSTACK()
```
