# 17752127 - Paku-Nakku

## Common Data

| Field            | Value                     |
|------------------|---------------------------|
| Zone             | Windurst Waters (ID: 238) |
| Block Size       | 1040 bytes                |
| Total Events     | 34                        |
| References Count | 36                        |

## List of Events

| Event ID                   | Entrypoint   |   Size |   Instructions |
|----------------------------|--------------|--------|----------------|
| [65535](#event-65535)      | 0x0000       |      1 |              1 |
| [65535.1](#event-655351)   | 0x0001       |     16 |              2 |
| [65535.2](#event-655352)   | 0x0011       |     22 |              4 |
| [65535.3](#event-655353)   | 0x0027       |     16 |              2 |
| [65535.4](#event-655354)   | 0x0037       |     14 |              2 |
| [65535.5](#event-655355)   | 0x0045       |     16 |              2 |
| [65535.6](#event-655356)   | 0x0055       |     14 |              2 |
| [65535.7](#event-655357)   | 0x0063       |     16 |              2 |
| [65535.8](#event-655358)   | 0x0073       |     22 |              4 |
| [65535.9](#event-655359)   | 0x0089       |     16 |              2 |
| [65535.10](#event-6553510) | 0x0099       |     14 |              2 |
| [65535.11](#event-6553511) | 0x00A7       |     16 |              2 |
| [65535.12](#event-6553512) | 0x00B7       |     22 |              4 |
| [65535.13](#event-6553513) | 0x00CD       |      9 |              3 |
| [431](#event-431)          | 0x00D6       |     37 |             14 |
| [194](#event-194)          | 0x00FB       |     33 |             12 |
| [481](#event-481)          | 0x011C       |     18 |              5 |
| [65535.14](#event-6553514) | 0x012E       |      5 |              3 |
| [65535.15](#event-6553515) | 0x0133       |     16 |              8 |
| [482](#event-482)          | 0x0143       |      8 |              5 |
| [494](#event-494)          | 0x014B       |     72 |             21 |
| [65535.16](#event-6553516) | 0x0193       |      5 |              3 |
| [65535.17](#event-6553517) | 0x0198       |     23 |              7 |
| [65535.18](#event-6553518) | 0x01AF       |      5 |              3 |
| [499](#event-499)          | 0x01B4       |    136 |             27 |
| [65535.19](#event-6553519) | 0x023C       |      5 |              3 |
| [65535.20](#event-6553520) | 0x0241       |     19 |              5 |
| [65535.21](#event-6553521) | 0x0254       |     19 |              5 |
| [65535.22](#event-6553522) | 0x0267       |     19 |              5 |
| [65535.23](#event-6553523) | 0x027A       |      5 |              3 |
| [65535.24](#event-6553524) | 0x027F       |      9 |              5 |
| [500](#event-500)          | 0x0288       |     29 |             10 |
| [452](#event-452)          | 0x02A5       |     33 |             12 |
| [467](#event-467)          | 0x02C6       |     33 |             12 |

## DAT References (imed_data)

|   Index | Hex Value   |   Dec Value |
|---------|-------------|-------------|
|       0 | 0x0055      |          85 |
|       1 | 0x001E      |          30 |
|       2 | 0x20A2      |        8354 |
|       3 | 0x20A3      |        8355 |
|       4 | 0x20A4      |        8356 |
|       5 | 0x1E51      |        7761 |
|       6 | 0x1E52      |        7762 |
|       7 | 0x2111      |        8465 |
|       8 | 0x2112      |        8466 |
|       9 | 0x2113      |        8467 |
|      10 | 0x2114      |        8468 |
|      11 | 0x0000      |           0 |
|      12 | 0x241A      |        9242 |
|      13 | 0x241B      |        9243 |
|      14 | 0x241C      |        9244 |
|      15 | 0x212A      |        8490 |
|      16 | 0x212B      |        8491 |
|      17 | 0x212C      |        8492 |
|      18 | 0x212D      |        8493 |
|      19 | 0x213A      |        8506 |
|      20 | 0x0001      |           1 |
|      21 | 0x0003      |           3 |
|      22 | 0x0002      |           2 |
|      23 | 0x00C9      |         201 |
|      24 | 0x2139      |        8505 |
|      25 | 0x213B      |        8507 |
|      26 | 0x213C      |        8508 |
|      27 | 0x213D      |        8509 |
|      28 | 0x213E      |        8510 |
|      29 | 0x213F      |        8511 |
|      30 | 0x2140      |        8512 |
|      31 | 0x2141      |        8513 |
|      32 | 0x20D3      |        8403 |
|      33 | 0x20D4      |        8404 |
|      34 | 0x20F9      |        8441 |
|      35 | 0x20FA      |        8442 |

## String References

- **7761**: Heh-heh-heh. Our day of total black magic destruction has come, dude.
- **7762**: Just you watch! It'll be like, BLAM! Those enemies will be blown sky-high! I'll get the five-star award if it's the last thing I do.
- **8354**: Heh-heh-heh. I, like, totally dig our black magic lessons, dude! They look so cool and have such wicked effects...those black mages' robes really rule!
- **8355**: When I graduate, I wanna enter the Orastery's Mage Academy. But it's the most popular ministry to go into. The position usually goes to the kid who gets the best grades. Dammit...
- **8356**: Our class's overachiever is Kirarara. She's the smarty-pants standing up there behind the lectern.
- **8403**: Argh! Don't speak to me about that written test. I failed it totally, dude.
- **8404**: Once that test comes back, they're gonna make me study like crazy. Ahh...I wish that test would never come back!
- **8441**: Gardening is so easy, even gnomes could do it! All you have to do is throw the seeds into a pot and forget about them, right?
- **8442**: Whaddaya mean I'm wrong? So, I need to cast some spell on it or something? What, like "Open Sesame" or something?
- **8465**: <Nod...nod...doze...>
- **8466**: I'm soo sleepy, dude... I'm falling asleep on my feet here...
- **8467**: ...Huh!? <Yawn!> What do you want? Stop bugging me!
- **8468**: <Nod...nod...doze...>
- **8490**: ......
- **8491**: ...Huh...?
- **8492**: Drink...thissszzz...?
- **8493**: Nothing <yawn!> happened...!? <Nod...nod...doze...>
- **8505**: ...Huh...?
- **8506**: The murderer was...? [You! You did it!/Me. Yes, I did it!/The automaton butler did it!]
- **8507**: Noooooo!!!
- **8508**: Ohhh maaan! I can't believe you gave away the ending! I was only halfway through reading "Murder on the Jeuno Express," too!
- **8509**: I really hate you! I'll never forgive you for that! Go away!
- **8510**: ......???
- **8511**: ...Adventurer dude...
- **8512**: ...You have waaay too much time on your handsszzz...
- **8513**: I hate you sooo much, dude! I'll never forgive you! Go away!
- **9242**: What's that smell, dude? My eyes are all itchy and my nose is all twitchy...
- **9243**: ...but...<yawn!>
- **9244**: I'm...still...pretty...slee...py... ZZZzzz...

## Events

### Event 65535

#### Metadata

| Field        | Value   |
|--------------|---------|
| Entrypoint   | 0x0000  |
| Data Size    | 1 bytes |
| Instructions | 1       |

```
      00 01 02 03 04 05 06 07  08 09 0A 0B 0C 0D 0E 0F
      -- -- -- -- -- -- -- --  -- -- -- -- -- -- -- --
0000: 00                                                .               
```

#### Opcodes

```
  0: 0x0000 [0x00] END_REQSTACK()
```

### Event 65535.1

#### Metadata

| Field        | Value    |
|--------------|----------|
| Entrypoint   | 0x0001   |
| Data Size    | 16 bytes |
| Instructions | 2        |

```
      00 01 02 03 04 05 06 07  08 09 0A 0B 0C 0D 0E 0F
      -- -- -- -- -- -- -- --  -- -- -- -- -- -- -- --
0000:    5B 00 80 F8 FF FF 7F  F8 FF FF 7F 74 6C 6B 30   [..........tlk0
0010: 00                                                .               
```

#### Opcodes

```
  0: 0x0001 [0x5B] LOAD_EXT_SCHEDULER: Load scheduler "tlk0" with entities [EventEntity, EventEntity], work=85*
  1: 0x0010 [0x00] END_REQSTACK()
```

### Event 65535.2

#### Metadata

| Field        | Value    |
|--------------|----------|
| Entrypoint   | 0x0011   |
| Data Size    | 22 bytes |
| Instructions | 4        |

```
      00 01 02 03 04 05 06 07  08 09 0A 0B 0C 0D 0E 0F
      -- -- -- -- -- -- -- --  -- -- -- -- -- -- -- --
0010:    53 F8 FF FF 7F F8 FF  FF 7F 74 6C 6B 30 5E 69   S........tlk0^i
0020: 64 6C 30 1C 01 80 00                              dl0....         
```

#### Opcodes

```
  0: 0x0011 [0x53] WAIT_SCHEDULER_TASK: Wait for scheduler "tlk0" with entities [EventEntity, EventEntity]
  1: 0x001E [0x5E] EventEntity goes idle (kills current action) (animation: "idl0")
  2: 0x0023 [0x1C] WAIT(30* ticks)
  3: 0x0026 [0x00] END_REQSTACK()
```

### Event 65535.3

#### Metadata

| Field        | Value    |
|--------------|----------|
| Entrypoint   | 0x0027   |
| Data Size    | 16 bytes |
| Instructions | 2        |

```
      00 01 02 03 04 05 06 07  08 09 0A 0B 0C 0D 0E 0F
      -- -- -- -- -- -- -- --  -- -- -- -- -- -- -- --
0020:                      5B  00 80 F8 FF FF 7F F8 FF         [........
0030: FF 7F 74 68 6B 31 00                              ..thk1.         
```

#### Opcodes

```
  0: 0x0027 [0x5B] LOAD_EXT_SCHEDULER: Load scheduler "thk1" with entities [EventEntity, EventEntity], work=85*
  1: 0x0036 [0x00] END_REQSTACK()
```

### Event 65535.4

#### Metadata

| Field        | Value    |
|--------------|----------|
| Entrypoint   | 0x0037   |
| Data Size    | 14 bytes |
| Instructions | 2        |

```
      00 01 02 03 04 05 06 07  08 09 0A 0B 0C 0D 0E 0F
      -- -- -- -- -- -- -- --  -- -- -- -- -- -- -- --
0030:                      53  F8 FF FF 7F F8 FF FF 7F         S........
0040: 74 68 6B 31 00                                    thk1.           
```

#### Opcodes

```
  0: 0x0037 [0x53] WAIT_SCHEDULER_TASK: Wait for scheduler "thk1" with entities [EventEntity, EventEntity]
  1: 0x0044 [0x00] END_REQSTACK()
```

### Event 65535.5

#### Metadata

| Field        | Value    |
|--------------|----------|
| Entrypoint   | 0x0045   |
| Data Size    | 16 bytes |
| Instructions | 2        |

```
      00 01 02 03 04 05 06 07  08 09 0A 0B 0C 0D 0E 0F
      -- -- -- -- -- -- -- --  -- -- -- -- -- -- -- --
0040:                5B 00 80  F8 FF FF 7F F8 FF FF 7F       [..........
0050: 74 68 6B 32 00                                    thk2.           
```

#### Opcodes

```
  0: 0x0045 [0x5B] LOAD_EXT_SCHEDULER: Load scheduler "thk2" with entities [EventEntity, EventEntity], work=85*
  1: 0x0054 [0x00] END_REQSTACK()
```

### Event 65535.6

#### Metadata

| Field        | Value    |
|--------------|----------|
| Entrypoint   | 0x0055   |
| Data Size    | 14 bytes |
| Instructions | 2        |

```
      00 01 02 03 04 05 06 07  08 09 0A 0B 0C 0D 0E 0F
      -- -- -- -- -- -- -- --  -- -- -- -- -- -- -- --
0050:                53 F8 FF  FF 7F F8 FF FF 7F 74 68       S........th
0060: 6B 32 00                                          k2.             
```

#### Opcodes

```
  0: 0x0055 [0x53] WAIT_SCHEDULER_TASK: Wait for scheduler "thk2" with entities [EventEntity, EventEntity]
  1: 0x0062 [0x00] END_REQSTACK()
```

### Event 65535.7

#### Metadata

| Field        | Value    |
|--------------|----------|
| Entrypoint   | 0x0063   |
| Data Size    | 16 bytes |
| Instructions | 2        |

```
      00 01 02 03 04 05 06 07  08 09 0A 0B 0C 0D 0E 0F
      -- -- -- -- -- -- -- --  -- -- -- -- -- -- -- --
0060:          5B 00 80 F8 FF  FF 7F F8 FF FF 7F 61 6E     [..........an
0070: 67 30 00                                          g0.             
```

#### Opcodes

```
  0: 0x0063 [0x5B] LOAD_EXT_SCHEDULER: Load scheduler "ang0" with entities [EventEntity, EventEntity], work=85*
  1: 0x0072 [0x00] END_REQSTACK()
```

### Event 65535.8

#### Metadata

| Field        | Value    |
|--------------|----------|
| Entrypoint   | 0x0073   |
| Data Size    | 22 bytes |
| Instructions | 4        |

```
      00 01 02 03 04 05 06 07  08 09 0A 0B 0C 0D 0E 0F
      -- -- -- -- -- -- -- --  -- -- -- -- -- -- -- --
0070:          53 F8 FF FF 7F  F8 FF FF 7F 61 6E 67 30     S........ang0
0080: 5E 69 64 6C 30 1C 01 80  00                       ^idl0....       
```

#### Opcodes

```
  0: 0x0073 [0x53] WAIT_SCHEDULER_TASK: Wait for scheduler "ang0" with entities [EventEntity, EventEntity]
  1: 0x0080 [0x5E] EventEntity goes idle (kills current action) (animation: "idl0")
  2: 0x0085 [0x1C] WAIT(30* ticks)
  3: 0x0088 [0x00] END_REQSTACK()
```

### Event 65535.9

#### Metadata

| Field        | Value    |
|--------------|----------|
| Entrypoint   | 0x0089   |
| Data Size    | 16 bytes |
| Instructions | 2        |

```
      00 01 02 03 04 05 06 07  08 09 0A 0B 0C 0D 0E 0F
      -- -- -- -- -- -- -- --  -- -- -- -- -- -- -- --
0080:                             5B 00 80 F8 FF FF 7F           [......
0090: F8 FF FF 7F 73 75 72 30  00                       ....sur0.       
```

#### Opcodes

```
  0: 0x0089 [0x5B] LOAD_EXT_SCHEDULER: Load scheduler "sur0" with entities [EventEntity, EventEntity], work=85*
  1: 0x0098 [0x00] END_REQSTACK()
```

### Event 65535.10

#### Metadata

| Field        | Value    |
|--------------|----------|
| Entrypoint   | 0x0099   |
| Data Size    | 14 bytes |
| Instructions | 2        |

```
      00 01 02 03 04 05 06 07  08 09 0A 0B 0C 0D 0E 0F
      -- -- -- -- -- -- -- --  -- -- -- -- -- -- -- --
0090:                             53 F8 FF FF 7F F8 FF           S......
00A0: FF 7F 73 75 72 30 00                              ..sur0.         
```

#### Opcodes

```
  0: 0x0099 [0x53] WAIT_SCHEDULER_TASK: Wait for scheduler "sur0" with entities [EventEntity, EventEntity]
  1: 0x00A6 [0x00] END_REQSTACK()
```

### Event 65535.11

#### Metadata

| Field        | Value    |
|--------------|----------|
| Entrypoint   | 0x00A7   |
| Data Size    | 16 bytes |
| Instructions | 2        |

```
      00 01 02 03 04 05 06 07  08 09 0A 0B 0C 0D 0E 0F
      -- -- -- -- -- -- -- --  -- -- -- -- -- -- -- --
00A0:                      5B  00 80 F8 FF FF 7F F8 FF         [........
00B0: FF 7F 70 61 6E 30 00                              ..pan0.         
```

#### Opcodes

```
  0: 0x00A7 [0x5B] LOAD_EXT_SCHEDULER: Load scheduler "pan0" with entities [EventEntity, EventEntity], work=85*
  1: 0x00B6 [0x00] END_REQSTACK()
```

### Event 65535.12

#### Metadata

| Field        | Value    |
|--------------|----------|
| Entrypoint   | 0x00B7   |
| Data Size    | 22 bytes |
| Instructions | 4        |

```
      00 01 02 03 04 05 06 07  08 09 0A 0B 0C 0D 0E 0F
      -- -- -- -- -- -- -- --  -- -- -- -- -- -- -- --
00B0:                      53  F8 FF FF 7F F8 FF FF 7F         S........
00C0: 70 61 6E 30 5E 69 64 6C  30 1C 01 80 00           pan0^idl0....   
```

#### Opcodes

```
  0: 0x00B7 [0x53] WAIT_SCHEDULER_TASK: Wait for scheduler "pan0" with entities [EventEntity, EventEntity]
  1: 0x00C4 [0x5E] EventEntity goes idle (kills current action) (animation: "idl0")
  2: 0x00C9 [0x1C] WAIT(30* ticks)
  3: 0x00CC [0x00] END_REQSTACK()
```

### Event 65535.13

#### Metadata

| Field        | Value   |
|--------------|---------|
| Entrypoint   | 0x00CD  |
| Data Size    | 9 bytes |
| Instructions | 3       |

```
      00 01 02 03 04 05 06 07  08 09 0A 0B 0C 0D 0E 0F
      -- -- -- -- -- -- -- --  -- -- -- -- -- -- -- --
00C0:                                         5E 69 64               ^id
00D0: 6C 30 1C 01 80 00                                 l0....          
```

#### Opcodes

```
  0: 0x00CD [0x5E] EventEntity goes idle (kills current action) (animation: "idl0")
  1: 0x00D2 [0x1C] WAIT(30* ticks)
  2: 0x00D5 [0x00] END_REQSTACK()
```

### Event 431

#### Metadata

| Field        | Value    |
|--------------|----------|
| Entrypoint   | 0x00D6   |
| Data Size    | 37 bytes |
| Instructions | 14       |

```
      00 01 02 03 04 05 06 07  08 09 0A 0B 0C 0D 0E 0F
      -- -- -- -- -- -- -- --  -- -- -- -- -- -- -- --
00D0:                   1E F0  FF FF 7F 6F 70 29 08 3F        .....op).?
00E0: E0 0E 01 01 1D 02 80 23  1D 03 80 23 1D 04 80 23  .......#...#...#
00F0: 29 08 3F E0 0E 01 02 20  00 21 00                 ).?.... .!.     
```

#### Opcodes

```
  0: 0x00D6 [0x1E] EventEntity looks at LocalPlayer and starts talking
  1: 0x00DB [0x6F] WAIT_FRAME_DELAY: Yield until WaitTime reaches zero
  2: 0x00DC [0x70] WAIT_ENTITY_RENDER_FLAG: Wait while EventEntity->Render.Flags3 bit 2 is set (cancel turn if not)
  3: 0x00DD [0x29] REQ_SET_WAIT(priority=0x08, entity_id=Paku-Nakku (ID: 17752127/0x010EE03F), tag_num=0x01)
  4: 0x00E4 [0x1D] PRINT_EVENT_MESSAGE(message_id=8354*)
    → "Heh-heh-heh. I, like, totally dig our black magic lessons, dude! They look so cool and have such wicked effects...those black mages' robes really rule!"
  5: 0x00E7 [0x23] WAIT_FOR_DIALOG_INTERACTION
  6: 0x00E8 [0x1D] PRINT_EVENT_MESSAGE(message_id=8355*)
    → "When I graduate, I wanna enter the Orastery's Mage Academy. But it's the most popular ministry to go into. The position usually goes to the kid who gets the best grades. Dammit..."
  7: 0x00EB [0x23] WAIT_FOR_DIALOG_INTERACTION
  8: 0x00EC [0x1D] PRINT_EVENT_MESSAGE(message_id=8356*)
    → "Our class's overachiever is Kirarara. She's the smarty-pants standing up there behind the lectern."
  9: 0x00EF [0x23] WAIT_FOR_DIALOG_INTERACTION
 10: 0x00F0 [0x29] REQ_SET_WAIT(priority=0x08, entity_id=Paku-Nakku (ID: 17752127/0x010EE03F), tag_num=0x02)
 11: 0x00F7 [0x20] SET_CLI_EVENT_UC_FLAG: Unlock player control
 12: 0x00F9 [0x21] END_EVENT
 13: 0x00FA [0x00] END_REQSTACK()
```

### Event 194

#### Metadata

| Field        | Value    |
|--------------|----------|
| Entrypoint   | 0x00FB   |
| Data Size    | 33 bytes |
| Instructions | 12       |

```
      00 01 02 03 04 05 06 07  08 09 0A 0B 0C 0D 0E 0F
      -- -- -- -- -- -- -- --  -- -- -- -- -- -- -- --
00F0:                                   1E F0 FF FF 7F             .....
0100: 6F 70 29 08 3F E0 0E 01  01 1D 05 80 23 1D 06 80  op).?.......#...
0110: 23 29 08 3F E0 0E 01 02  20 00 21 00              #).?.... .!.    
```

#### Opcodes

```
  0: 0x00FB [0x1E] EventEntity looks at LocalPlayer and starts talking
  1: 0x0100 [0x6F] WAIT_FRAME_DELAY: Yield until WaitTime reaches zero
  2: 0x0101 [0x70] WAIT_ENTITY_RENDER_FLAG: Wait while EventEntity->Render.Flags3 bit 2 is set (cancel turn if not)
  3: 0x0102 [0x29] REQ_SET_WAIT(priority=0x08, entity_id=Paku-Nakku (ID: 17752127/0x010EE03F), tag_num=0x01)
  4: 0x0109 [0x1D] PRINT_EVENT_MESSAGE(message_id=7761*)
    → "Heh-heh-heh. Our day of total black magic destruction has come, dude."
  5: 0x010C [0x23] WAIT_FOR_DIALOG_INTERACTION
  6: 0x010D [0x1D] PRINT_EVENT_MESSAGE(message_id=7762*)
    → "Just you watch! It'll be like, BLAM! Those enemies will be blown sky-high! I'll get the five-star award if it's the last thing I do."
  7: 0x0110 [0x23] WAIT_FOR_DIALOG_INTERACTION
  8: 0x0111 [0x29] REQ_SET_WAIT(priority=0x08, entity_id=Paku-Nakku (ID: 17752127/0x010EE03F), tag_num=0x02)
  9: 0x0118 [0x20] SET_CLI_EVENT_UC_FLAG: Unlock player control
 10: 0x011A [0x21] END_EVENT
 11: 0x011B [0x00] END_REQSTACK()
```

### Event 481

#### Metadata

| Field        | Value    |
|--------------|----------|
| Entrypoint   | 0x011C   |
| Data Size    | 18 bytes |
| Instructions | 5        |

```
      00 01 02 03 04 05 06 07  08 09 0A 0B 0C 0D 0E 0F
      -- -- -- -- -- -- -- --  -- -- -- -- -- -- -- --
0110:                                      29 0B 3F E0              ).?.
0120: 0E 01 11 29 0B 3F E0 0E  01 12 20 00 21 00        ...).?.... .!.  
```

#### Opcodes

```
  0: 0x011C [0x29] REQ_SET_WAIT(priority=0x0B, entity_id=Paku-Nakku (ID: 17752127/0x010EE03F), tag_num=0x11)
  1: 0x0123 [0x29] REQ_SET_WAIT(priority=0x0B, entity_id=Paku-Nakku (ID: 17752127/0x010EE03F), tag_num=0x12)
  2: 0x012A [0x20] SET_CLI_EVENT_UC_FLAG: Unlock player control
  3: 0x012C [0x21] END_EVENT
  4: 0x012D [0x00] END_REQSTACK()
```

### Event 65535.14

#### Metadata

| Field        | Value   |
|--------------|---------|
| Entrypoint   | 0x012E  |
| Data Size    | 5 bytes |
| Instructions | 3       |

```
      00 01 02 03 04 05 06 07  08 09 0A 0B 0C 0D 0E 0F
      -- -- -- -- -- -- -- --  -- -- -- -- -- -- -- --
0120:                                            1D 07                ..
0130: 80 23 00                                          .#.             
```

#### Opcodes

```
  0: 0x012E [0x1D] PRINT_EVENT_MESSAGE(message_id=8465*)
    → "<Nod...nod...doze...>"
  1: 0x0131 [0x23] WAIT_FOR_DIALOG_INTERACTION
  2: 0x0132 [0x00] END_REQSTACK()
```

### Event 65535.15

#### Metadata

| Field        | Value    |
|--------------|----------|
| Entrypoint   | 0x0133   |
| Data Size    | 16 bytes |
| Instructions | 8        |

```
      00 01 02 03 04 05 06 07  08 09 0A 0B 0C 0D 0E 0F
      -- -- -- -- -- -- -- --  -- -- -- -- -- -- -- --
0130:          1D 08 80 23 1E  F0 FF FF 7F 6F 70 1D 09     ...#.....op..
0140: 80 23 00                                          .#.             
```

#### Opcodes

```
  0: 0x0133 [0x1D] PRINT_EVENT_MESSAGE(message_id=8466*)
    → "I'm soo sleepy, dude... I'm falling asleep on my feet here..."
  1: 0x0136 [0x23] WAIT_FOR_DIALOG_INTERACTION
  2: 0x0137 [0x1E] EventEntity looks at LocalPlayer and starts talking
  3: 0x013C [0x6F] WAIT_FRAME_DELAY: Yield until WaitTime reaches zero
  4: 0x013D [0x70] WAIT_ENTITY_RENDER_FLAG: Wait while EventEntity->Render.Flags3 bit 2 is set (cancel turn if not)
  5: 0x013E [0x1D] PRINT_EVENT_MESSAGE(message_id=8467*)
    → "...Huh!? <Yawn!> What do you want? Stop bugging me!"
  6: 0x0141 [0x23] WAIT_FOR_DIALOG_INTERACTION
  7: 0x0142 [0x00] END_REQSTACK()
```

### Event 482

#### Metadata

| Field        | Value   |
|--------------|---------|
| Entrypoint   | 0x0143  |
| Data Size    | 8 bytes |
| Instructions | 5       |

```
      00 01 02 03 04 05 06 07  08 09 0A 0B 0C 0D 0E 0F
      -- -- -- -- -- -- -- --  -- -- -- -- -- -- -- --
0140:          1D 0A 80 23 20  00 21 00                    ...# .!.     
```

#### Opcodes

```
  0: 0x0143 [0x1D] PRINT_EVENT_MESSAGE(message_id=8468*)
    → "<Nod...nod...doze...>"
  1: 0x0146 [0x23] WAIT_FOR_DIALOG_INTERACTION
  2: 0x0147 [0x20] SET_CLI_EVENT_UC_FLAG: Unlock player control
  3: 0x0149 [0x21] END_EVENT
  4: 0x014A [0x00] END_REQSTACK()
```

### Event 494

#### Metadata

| Field        | Value    |
|--------------|----------|
| Entrypoint   | 0x014B   |
| Data Size    | 72 bytes |
| Instructions | 21       |

```
      00 01 02 03 04 05 06 07  08 09 0A 0B 0C 0D 0E 0F
      -- -- -- -- -- -- -- --  -- -- -- -- -- -- -- --
0140:                                   20 01 42 1E F0              .B..
0150: FF FF 7F 6F 70 29 0B 3F  E0 0E 01 15 02 03 10 0B  ...op).?........
0160: 80 00 75 01 29 0B 3F E0  0E 01 16 29 0B 3F E0 0E  ..u.).?....).?..
0170: 01 17 01 8F 01 1D 0C 80  23 1D 0D 80 23 29 08 3F  ........#...#).?
0180: E0 0E 01 09 29 08 3F E0  0E 01 0A 1D 0E 80 23 20  ....).?.......# 
0190: 00 21 00                                          .!.             
```

#### Opcodes

```
  0: 0x014B [0x20] SET_CLI_EVENT_UC_FLAG: Lock player control
  1: 0x014D [0x42] SET_CLI_EVENT_CANCEL_DATA()
  2: 0x014E [0x1E] EventEntity looks at LocalPlayer and starts talking
  3: 0x0153 [0x6F] WAIT_FRAME_DELAY: Yield until WaitTime reaches zero
  4: 0x0154 [0x70] WAIT_ENTITY_RENDER_FLAG: Wait while EventEntity->Render.Flags3 bit 2 is set (cancel turn if not)
  5: 0x0155 [0x29] REQ_SET_WAIT(priority=0x0B, entity_id=Paku-Nakku (ID: 17752127/0x010EE03F), tag_num=0x15)
  6: 0x015C [0x02] IF !(Work_Zone[3] == 0*) GOTO 0x0175
  7: 0x0164 [0x29] REQ_SET_WAIT(priority=0x0B, entity_id=Paku-Nakku (ID: 17752127/0x010EE03F), tag_num=0x16)
  8: 0x016B [0x29] REQ_SET_WAIT(priority=0x0B, entity_id=Paku-Nakku (ID: 17752127/0x010EE03F), tag_num=0x17)
  9: 0x0172 [0x01] GOTO 0x018F
 10: 0x0175 [0x1D] PRINT_EVENT_MESSAGE(message_id=9242*)
    → "What's that smell, dude? My eyes are all itchy and my nose is all twitchy..."
 11: 0x0178 [0x23] WAIT_FOR_DIALOG_INTERACTION
 12: 0x0179 [0x1D] PRINT_EVENT_MESSAGE(message_id=9243*)
    → "...but...<yawn!>"
 13: 0x017C [0x23] WAIT_FOR_DIALOG_INTERACTION
 14: 0x017D [0x29] REQ_SET_WAIT(priority=0x08, entity_id=Paku-Nakku (ID: 17752127/0x010EE03F), tag_num=0x09)
 15: 0x0184 [0x29] REQ_SET_WAIT(priority=0x08, entity_id=Paku-Nakku (ID: 17752127/0x010EE03F), tag_num=0x0A)
 16: 0x018B [0x1D] PRINT_EVENT_MESSAGE(message_id=9244*)
    → "I'm...still...pretty...slee...py... ZZZzzz..."
 17: 0x018E [0x23] WAIT_FOR_DIALOG_INTERACTION

SUBROUTINE_018F:
 18: 0x018F [0x20] SET_CLI_EVENT_UC_FLAG: Unlock player control
 19: 0x0191 [0x21] END_EVENT
 20: 0x0192 [0x00] END_REQSTACK()
```

### Event 65535.16

#### Metadata

| Field        | Value   |
|--------------|---------|
| Entrypoint   | 0x0193  |
| Data Size    | 5 bytes |
| Instructions | 3       |

```
      00 01 02 03 04 05 06 07  08 09 0A 0B 0C 0D 0E 0F
      -- -- -- -- -- -- -- --  -- -- -- -- -- -- -- --
0190:          1D 0F 80 23 00                              ...#.        
```

#### Opcodes

```
  0: 0x0193 [0x1D] PRINT_EVENT_MESSAGE(message_id=8490*)
    → "......"
  1: 0x0196 [0x23] WAIT_FOR_DIALOG_INTERACTION
  2: 0x0197 [0x00] END_REQSTACK()
```

### Event 65535.17

#### Metadata

| Field        | Value    |
|--------------|----------|
| Entrypoint   | 0x0198   |
| Data Size    | 23 bytes |
| Instructions | 7        |

```
      00 01 02 03 04 05 06 07  08 09 0A 0B 0C 0D 0E 0F
      -- -- -- -- -- -- -- --  -- -- -- -- -- -- -- --
0190:                          1D 10 80 23 1D 11 80 23          ...#...#
01A0: 29 08 3F E0 0E 01 01 29  08 3F E0 0E 01 02 00     ).?....).?..... 
```

#### Opcodes

```
  0: 0x0198 [0x1D] PRINT_EVENT_MESSAGE(message_id=8491*)
    → "...Huh...?"
  1: 0x019B [0x23] WAIT_FOR_DIALOG_INTERACTION
  2: 0x019C [0x1D] PRINT_EVENT_MESSAGE(message_id=8492*)
    → "Drink...thissszzz...?"
  3: 0x019F [0x23] WAIT_FOR_DIALOG_INTERACTION
  4: 0x01A0 [0x29] REQ_SET_WAIT(priority=0x08, entity_id=Paku-Nakku (ID: 17752127/0x010EE03F), tag_num=0x01)
  5: 0x01A7 [0x29] REQ_SET_WAIT(priority=0x08, entity_id=Paku-Nakku (ID: 17752127/0x010EE03F), tag_num=0x02)
  6: 0x01AE [0x00] END_REQSTACK()
```

### Event 65535.18

#### Metadata

| Field        | Value   |
|--------------|---------|
| Entrypoint   | 0x01AF  |
| Data Size    | 5 bytes |
| Instructions | 3       |

```
      00 01 02 03 04 05 06 07  08 09 0A 0B 0C 0D 0E 0F
      -- -- -- -- -- -- -- --  -- -- -- -- -- -- -- --
01A0:                                               1D                 .
01B0: 12 80 23 00                                       ..#.            
```

#### Opcodes

```
  0: 0x01AF [0x1D] PRINT_EVENT_MESSAGE(message_id=8493*)
    → "Nothing <yawn!> happened...!? <Nod...nod...doze...>"
  1: 0x01B2 [0x23] WAIT_FOR_DIALOG_INTERACTION
  2: 0x01B3 [0x00] END_REQSTACK()
```

### Event 499

#### Metadata

| Field        | Value     |
|--------------|-----------|
| Entrypoint   | 0x01B4    |
| Data Size    | 136 bytes |
| Instructions | 27        |

```
      00 01 02 03 04 05 06 07  08 09 0A 0B 0C 0D 0E 0F
      -- -- -- -- -- -- -- --  -- -- -- -- -- -- -- --
01B0:             20 01 42 1E  F0 FF FF 7F 6F 70 29 0B       .B.....op).
01C0: 3F E0 0E 01 19 24 13 80  0B 80 0B 80 25 02 00 10  ?....$......%...
01D0: 0B 80 00 EB 01 03 01 10  14 80 29 0B 3F E0 0E 01  ..........).?...
01E0: 1A 29 0B 3F E0 0E 01 1D  01 38 02 02 00 10 14 80  .).?.....8......
01F0: 00 02 02 03 01 10 15 80  29 0B 3F E0 0E 01 1E 01  ........).?.....
0200: 38 02 02 00 10 16 80 00  38 02 03 01 10 16 80 29  8.......8......)
0210: 0B 3F E0 0E 01 1A 29 0B  3F E0 0E 01 1B 29 0B 3F  .?....).?....).?
0220: E0 0E 01 1C 45 17 80 F0  FF FF 7F F0 FF FF 7F 71  ....E..........q
0230: 73 74 63 0B 80 01 38 02  20 00 21 00              stc...8. .!.    
```

#### Opcodes

```
  0: 0x01B4 [0x20] SET_CLI_EVENT_UC_FLAG: Lock player control
  1: 0x01B6 [0x42] SET_CLI_EVENT_CANCEL_DATA()
  2: 0x01B7 [0x1E] EventEntity looks at LocalPlayer and starts talking
  3: 0x01BC [0x6F] WAIT_FRAME_DELAY: Yield until WaitTime reaches zero
  4: 0x01BD [0x70] WAIT_ENTITY_RENDER_FLAG: Wait while EventEntity->Render.Flags3 bit 2 is set (cancel turn if not)
  5: 0x01BE [0x29] REQ_SET_WAIT(priority=0x0B, entity_id=Paku-Nakku (ID: 17752127/0x010EE03F), tag_num=0x19)
  6: 0x01C5 [0x24] CREATE_DIALOG(message_id=8506*, default_option=0*, option_flags=0*)
    → "The murderer was...? [You! You did it!/Me. Yes, I did it!/The automaton butler did it!]"
  7: 0x01CC [0x25] WAIT_DIALOG_SELECT()
  8: 0x01CD [0x02] IF !(Work_Zone[0] == 0*) GOTO 0x01EB
  9: 0x01D5 [0x03] Work_Zone[1] = 1*
 10: 0x01DA [0x29] REQ_SET_WAIT(priority=0x0B, entity_id=Paku-Nakku (ID: 17752127/0x010EE03F), tag_num=0x1A)
 11: 0x01E1 [0x29] REQ_SET_WAIT(priority=0x0B, entity_id=Paku-Nakku (ID: 17752127/0x010EE03F), tag_num=0x1D)
 12: 0x01E8 [0x01] GOTO 0x0238
 13: 0x01EB [0x02] IF !(Work_Zone[0] == 1*) GOTO 0x0202
 14: 0x01F3 [0x03] Work_Zone[1] = 3*
 15: 0x01F8 [0x29] REQ_SET_WAIT(priority=0x0B, entity_id=Paku-Nakku (ID: 17752127/0x010EE03F), tag_num=0x1E)
 16: 0x01FF [0x01] GOTO 0x0238
 17: 0x0202 [0x02] IF !(Work_Zone[0] == 2*) GOTO 0x0238
 18: 0x020A [0x03] Work_Zone[1] = 2*
 19: 0x020F [0x29] REQ_SET_WAIT(priority=0x0B, entity_id=Paku-Nakku (ID: 17752127/0x010EE03F), tag_num=0x1A)
 20: 0x0216 [0x29] REQ_SET_WAIT(priority=0x0B, entity_id=Paku-Nakku (ID: 17752127/0x010EE03F), tag_num=0x1B)
 21: 0x021D [0x29] REQ_SET_WAIT(priority=0x0B, entity_id=Paku-Nakku (ID: 17752127/0x010EE03F), tag_num=0x1C)
 22: 0x0224 [0x45] LOAD_SCHEDULED_TASK: Load scheduler "qstc" with entities [LocalPlayer, LocalPlayer], work=[201*, 0*]
 23: 0x0235 [0x01] GOTO 0x0238

SUBROUTINE_0238:
 24: 0x0238 [0x20] SET_CLI_EVENT_UC_FLAG: Unlock player control
 25: 0x023A [0x21] END_EVENT
 26: 0x023B [0x00] END_REQSTACK()
```

### Event 65535.19

#### Metadata

| Field        | Value   |
|--------------|---------|
| Entrypoint   | 0x023C  |
| Data Size    | 5 bytes |
| Instructions | 3       |

```
      00 01 02 03 04 05 06 07  08 09 0A 0B 0C 0D 0E 0F
      -- -- -- -- -- -- -- --  -- -- -- -- -- -- -- --
0230:                                      1D 18 80 23              ...#
0240: 00                                                .               
```

#### Opcodes

```
  0: 0x023C [0x1D] PRINT_EVENT_MESSAGE(message_id=8505*)
    → "...Huh...?"
  1: 0x023F [0x23] WAIT_FOR_DIALOG_INTERACTION
  2: 0x0240 [0x00] END_REQSTACK()
```

### Event 65535.20

#### Metadata

| Field        | Value    |
|--------------|----------|
| Entrypoint   | 0x0241   |
| Data Size    | 19 bytes |
| Instructions | 5        |

```
      00 01 02 03 04 05 06 07  08 09 0A 0B 0C 0D 0E 0F
      -- -- -- -- -- -- -- --  -- -- -- -- -- -- -- --
0240:    29 08 3F E0 0E 01 09  1D 19 80 23 29 08 3F E0   ).?.......#).?.
0250: 0E 01 0A 00                                       ....            
```

#### Opcodes

```
  0: 0x0241 [0x29] REQ_SET_WAIT(priority=0x08, entity_id=Paku-Nakku (ID: 17752127/0x010EE03F), tag_num=0x09)
  1: 0x0248 [0x1D] PRINT_EVENT_MESSAGE(message_id=8507*)
    → "Noooooo!!!"
  2: 0x024B [0x23] WAIT_FOR_DIALOG_INTERACTION
  3: 0x024C [0x29] REQ_SET_WAIT(priority=0x08, entity_id=Paku-Nakku (ID: 17752127/0x010EE03F), tag_num=0x0A)
  4: 0x0253 [0x00] END_REQSTACK()
```

### Event 65535.21

#### Metadata

| Field        | Value    |
|--------------|----------|
| Entrypoint   | 0x0254   |
| Data Size    | 19 bytes |
| Instructions | 5        |

```
      00 01 02 03 04 05 06 07  08 09 0A 0B 0C 0D 0E 0F
      -- -- -- -- -- -- -- --  -- -- -- -- -- -- -- --
0250:             29 08 3F E0  0E 01 0B 1D 1A 80 23 29      ).?.......#)
0260: 08 3F E0 0E 01 0C 00                              .?.....         
```

#### Opcodes

```
  0: 0x0254 [0x29] REQ_SET_WAIT(priority=0x08, entity_id=Paku-Nakku (ID: 17752127/0x010EE03F), tag_num=0x0B)
  1: 0x025B [0x1D] PRINT_EVENT_MESSAGE(message_id=8508*)
    → "Ohhh maaan! I can't believe you gave away the ending! I was only halfway through reading "Murder on the Jeuno Express," too!"
  2: 0x025E [0x23] WAIT_FOR_DIALOG_INTERACTION
  3: 0x025F [0x29] REQ_SET_WAIT(priority=0x08, entity_id=Paku-Nakku (ID: 17752127/0x010EE03F), tag_num=0x0C)
  4: 0x0266 [0x00] END_REQSTACK()
```

### Event 65535.22

#### Metadata

| Field        | Value    |
|--------------|----------|
| Entrypoint   | 0x0267   |
| Data Size    | 19 bytes |
| Instructions | 5        |

```
      00 01 02 03 04 05 06 07  08 09 0A 0B 0C 0D 0E 0F
      -- -- -- -- -- -- -- --  -- -- -- -- -- -- -- --
0260:                      29  08 3F E0 0E 01 07 1D 1B         ).?......
0270: 80 23 29 08 3F E0 0E 01  08 00                    .#).?.....      
```

#### Opcodes

```
  0: 0x0267 [0x29] REQ_SET_WAIT(priority=0x08, entity_id=Paku-Nakku (ID: 17752127/0x010EE03F), tag_num=0x07)
  1: 0x026E [0x1D] PRINT_EVENT_MESSAGE(message_id=8509*)
    → "I really hate you! I'll never forgive you for that! Go away!"
  2: 0x0271 [0x23] WAIT_FOR_DIALOG_INTERACTION
  3: 0x0272 [0x29] REQ_SET_WAIT(priority=0x08, entity_id=Paku-Nakku (ID: 17752127/0x010EE03F), tag_num=0x08)
  4: 0x0279 [0x00] END_REQSTACK()
```

### Event 65535.23

#### Metadata

| Field        | Value   |
|--------------|---------|
| Entrypoint   | 0x027A  |
| Data Size    | 5 bytes |
| Instructions | 3       |

```
      00 01 02 03 04 05 06 07  08 09 0A 0B 0C 0D 0E 0F
      -- -- -- -- -- -- -- --  -- -- -- -- -- -- -- --
0270:                                1D 1C 80 23 00               ...#. 
```

#### Opcodes

```
  0: 0x027A [0x1D] PRINT_EVENT_MESSAGE(message_id=8510*)
    → "......???"
  1: 0x027D [0x23] WAIT_FOR_DIALOG_INTERACTION
  2: 0x027E [0x00] END_REQSTACK()
```

### Event 65535.24

#### Metadata

| Field        | Value   |
|--------------|---------|
| Entrypoint   | 0x027F  |
| Data Size    | 9 bytes |
| Instructions | 5       |

```
      00 01 02 03 04 05 06 07  08 09 0A 0B 0C 0D 0E 0F
      -- -- -- -- -- -- -- --  -- -- -- -- -- -- -- --
0270:                                               1D                 .
0280: 1D 80 23 1D 1E 80 23 00                           ..#...#.        
```

#### Opcodes

```
  0: 0x027F [0x1D] PRINT_EVENT_MESSAGE(message_id=8511*)
    → "...Adventurer dude..."
  1: 0x0282 [0x23] WAIT_FOR_DIALOG_INTERACTION
  2: 0x0283 [0x1D] PRINT_EVENT_MESSAGE(message_id=8512*)
    → "...You have waaay too much time on your handsszzz..."
  3: 0x0286 [0x23] WAIT_FOR_DIALOG_INTERACTION
  4: 0x0287 [0x00] END_REQSTACK()
```

### Event 500

#### Metadata

| Field        | Value    |
|--------------|----------|
| Entrypoint   | 0x0288   |
| Data Size    | 29 bytes |
| Instructions | 10       |

```
      00 01 02 03 04 05 06 07  08 09 0A 0B 0C 0D 0E 0F
      -- -- -- -- -- -- -- --  -- -- -- -- -- -- -- --
0280:                          1E F0 FF FF 7F 6F 70 29          .....op)
0290: 08 3F E0 0E 01 07 1D 1F  80 23 29 08 3F E0 0E 01  .?.......#).?...
02A0: 08 20 00 21 00                                    . .!.           
```

#### Opcodes

```
  0: 0x0288 [0x1E] EventEntity looks at LocalPlayer and starts talking
  1: 0x028D [0x6F] WAIT_FRAME_DELAY: Yield until WaitTime reaches zero
  2: 0x028E [0x70] WAIT_ENTITY_RENDER_FLAG: Wait while EventEntity->Render.Flags3 bit 2 is set (cancel turn if not)
  3: 0x028F [0x29] REQ_SET_WAIT(priority=0x08, entity_id=Paku-Nakku (ID: 17752127/0x010EE03F), tag_num=0x07)
  4: 0x0296 [0x1D] PRINT_EVENT_MESSAGE(message_id=8513*)
    → "I hate you sooo much, dude! I'll never forgive you! Go away!"
  5: 0x0299 [0x23] WAIT_FOR_DIALOG_INTERACTION
  6: 0x029A [0x29] REQ_SET_WAIT(priority=0x08, entity_id=Paku-Nakku (ID: 17752127/0x010EE03F), tag_num=0x08)
  7: 0x02A1 [0x20] SET_CLI_EVENT_UC_FLAG: Unlock player control
  8: 0x02A3 [0x21] END_EVENT
  9: 0x02A4 [0x00] END_REQSTACK()
```

### Event 452

#### Metadata

| Field        | Value    |
|--------------|----------|
| Entrypoint   | 0x02A5   |
| Data Size    | 33 bytes |
| Instructions | 12       |

```
      00 01 02 03 04 05 06 07  08 09 0A 0B 0C 0D 0E 0F
      -- -- -- -- -- -- -- --  -- -- -- -- -- -- -- --
02A0:                1E F0 FF  FF 7F 6F 70 29 08 3F E0       .....op).?.
02B0: 0E 01 07 1D 20 80 23 1D  21 80 23 29 08 3F E0 0E  .... .#.!.#).?..
02C0: 01 08 20 00 21 00                                 .. .!.          
```

#### Opcodes

```
  0: 0x02A5 [0x1E] EventEntity looks at LocalPlayer and starts talking
  1: 0x02AA [0x6F] WAIT_FRAME_DELAY: Yield until WaitTime reaches zero
  2: 0x02AB [0x70] WAIT_ENTITY_RENDER_FLAG: Wait while EventEntity->Render.Flags3 bit 2 is set (cancel turn if not)
  3: 0x02AC [0x29] REQ_SET_WAIT(priority=0x08, entity_id=Paku-Nakku (ID: 17752127/0x010EE03F), tag_num=0x07)
  4: 0x02B3 [0x1D] PRINT_EVENT_MESSAGE(message_id=8403*)
    → "Argh! Don't speak to me about that written test. I failed it totally, dude."
  5: 0x02B6 [0x23] WAIT_FOR_DIALOG_INTERACTION
  6: 0x02B7 [0x1D] PRINT_EVENT_MESSAGE(message_id=8404*)
    → "Once that test comes back, they're gonna make me study like crazy. Ahh...I wish that test would never come back!"
  7: 0x02BA [0x23] WAIT_FOR_DIALOG_INTERACTION
  8: 0x02BB [0x29] REQ_SET_WAIT(priority=0x08, entity_id=Paku-Nakku (ID: 17752127/0x010EE03F), tag_num=0x08)
  9: 0x02C2 [0x20] SET_CLI_EVENT_UC_FLAG: Unlock player control
 10: 0x02C4 [0x21] END_EVENT
 11: 0x02C5 [0x00] END_REQSTACK()
```

### Event 467

#### Metadata

| Field        | Value    |
|--------------|----------|
| Entrypoint   | 0x02C6   |
| Data Size    | 33 bytes |
| Instructions | 12       |

```
      00 01 02 03 04 05 06 07  08 09 0A 0B 0C 0D 0E 0F
      -- -- -- -- -- -- -- --  -- -- -- -- -- -- -- --
02C0:                   1E F0  FF FF 7F 6F 70 29 08 3F        .....op).?
02D0: E0 0E 01 07 1D 22 80 23  1D 23 80 23 29 08 3F E0  .....".#.#.#).?.
02E0: 0E 01 08 20 00 21 00                              ... .!.         
```

#### Opcodes

```
  0: 0x02C6 [0x1E] EventEntity looks at LocalPlayer and starts talking
  1: 0x02CB [0x6F] WAIT_FRAME_DELAY: Yield until WaitTime reaches zero
  2: 0x02CC [0x70] WAIT_ENTITY_RENDER_FLAG: Wait while EventEntity->Render.Flags3 bit 2 is set (cancel turn if not)
  3: 0x02CD [0x29] REQ_SET_WAIT(priority=0x08, entity_id=Paku-Nakku (ID: 17752127/0x010EE03F), tag_num=0x07)
  4: 0x02D4 [0x1D] PRINT_EVENT_MESSAGE(message_id=8441*)
    → "Gardening is so easy, even gnomes could do it! All you have to do is throw the seeds into a pot and forget about them, right?"
  5: 0x02D7 [0x23] WAIT_FOR_DIALOG_INTERACTION
  6: 0x02D8 [0x1D] PRINT_EVENT_MESSAGE(message_id=8442*)
    → "Whaddaya mean I'm wrong? So, I need to cast some spell on it or something? What, like "Open Sesame" or something?"
  7: 0x02DB [0x23] WAIT_FOR_DIALOG_INTERACTION
  8: 0x02DC [0x29] REQ_SET_WAIT(priority=0x08, entity_id=Paku-Nakku (ID: 17752127/0x010EE03F), tag_num=0x08)
  9: 0x02E3 [0x20] SET_CLI_EVENT_UC_FLAG: Unlock player control
 10: 0x02E5 [0x21] END_EVENT
 11: 0x02E6 [0x00] END_REQSTACK()
```
