# 17752370

## Common Data

| Field            | Value                     |
|------------------|---------------------------|
| Zone             | Windurst Waters (ID: 238) |
| Block Size       | 2048 bytes                |
| Total Events     | 3                         |
| References Count | 48                        |

## List of Events

| Event ID              | Entrypoint   |   Size |   Instructions |
|-----------------------|--------------|--------|----------------|
| [65535](#event-65535) | 0x0000       |      1 |              1 |
| [1017](#event-1017)   | 0x0001       |   1134 |            149 |
| [1018](#event-1018)   | 0x046F       |    692 |             78 |

## DAT References (imed_data)

|   Index | Hex Value   |   Dec Value |
|---------|-------------|-------------|
|       0 | 0x0013      |          19 |
|       1 | 0x000C      |          12 |
|       2 | 0x0001      |           1 |
|       3 | 0x018A      |         394 |
|       4 | 0x0000      |           0 |
|       5 | 0x0078      |         120 |
|       6 | 0x0005      |           5 |
|       7 | 0xFFFFBE91  |  4294950545 |
|       8 | 0x1B5C5     |      112069 |
|       9 | 0xFFFFE797  |  4294961047 |
|      10 | 0x0F58      |        3928 |
|      11 | 0xFFFFC0D6  |  4294951126 |
|      12 | 0x1B6A1     |      112289 |
|      13 | 0xFFFEBDBC  |  4294884796 |
|      14 | 0x0FCD      |        4045 |
|      15 | 0x00D5      |         213 |
|      16 | 0x0002      |           2 |
|      17 | 0x007B      |         123 |
|      18 | 0x0003      |           3 |
|      19 | 0x021E      |         542 |
|      20 | 0x0004      |           4 |
|      21 | 0x0008      |           8 |
|      22 | 0x3074      |       12404 |
|      23 | 0x003C      |          60 |
|      24 | 0x3075      |       12405 |
|      25 | 0x001E      |          30 |
|      26 | 0x00C9      |         201 |
|      27 | 0xFFFFB99F  |  4294949279 |
|      28 | 0x1B42C     |      111660 |
|      29 | 0x0F59      |        3929 |
|      30 | 0x0054      |          84 |
|      31 | 0x0080      |         128 |
|      32 | 0x0014      |          20 |
|      33 | 0xFFFFE796  |  4294961046 |
|      34 | 0x0AEA      |        2794 |
|      35 | 0x000A      |          10 |
|      36 | 0x00D7      |         215 |
|      37 | 0x03AE      |         942 |
|      38 | 0x3076      |       12406 |
|      39 | 0x3077      |       12407 |
|      40 | 0x3078      |       12408 |
|      41 | 0x005A      |          90 |
|      42 | 0x3079      |       12409 |
|      43 | 0x307A      |       12410 |
|      44 | 0x00C8      |         200 |
|      45 | 0x000F      |          15 |
|      46 | 0x0097      |         151 |
|      47 | 0x002D      |          45 |

## String References

- **12404**: The title reads: "The Compleat Compendium of Curses."
- **12405**: A page corner has been folded over.
- **12406**: "Curses, and the Defense and Treatment Thereof."
- **12407**: "Take ye $0 unto a spring favored by pixiekind. Immerse it of a night in the pure, cleansing waters. Thus doth the $0 assume counter-curse properties.
- **12408**: "Ground the resultant ingredient into a fine powder, from which an infusion can be prepared for the afflicted."
- **12409**: The instructions continue...
- **12410**: "Be ye fairly warned: Curses are manifold and complex in nature. Ergo, this remedy may prove fruitless against certain strains of the affliction."

## Events

### Event 65535

#### Metadata

| Field        | Value   |
|--------------|---------|
| Entrypoint   | 0x0000  |
| Data Size    | 1 bytes |
| Instructions | 1       |

```
      00 01 02 03 04 05 06 07  08 09 0A 0B 0C 0D 0E 0F
      -- -- -- -- -- -- -- --  -- -- -- -- -- -- -- --
0000: 00                                                .               
```

#### Opcodes

```
  0: 0x0000 [0x00] END_REQSTACK()
```

### Event 1017

#### Metadata

| Field        | Value      |
|--------------|------------|
| Entrypoint   | 0x0001     |
| Data Size    | 1134 bytes |
| Instructions | 149        |

```
      00 01 02 03 04 05 06 07  08 09 0A 0B 0C 0D 0E 0F
      -- -- -- -- -- -- -- --  -- -- -- -- -- -- -- --
0000:    42 1A F5 04 46 01 38  00 80 77 01 80 02 80 75   B...F.8..w....u
0010: 00 03 80 75 01 5D 04 80  05 80 27 10 33 E1 0E 01  ...u.]....'.3...
0020: 02 27 10 34 E1 0E 01 04  80 F0 FF FF 7F 80 33 E1  .'.4..........3.
0030: 0E 01 80 34 E1 0E 01 92  01 33 E1 0E 01 92 01 34  ...4.....3.....4
0040: E1 0E 01 94 01 F0 FF FF  7F 94 01 33 E1 0E 01 94  ...........3....
0050: 01 34 E1 0E 01 59 05 34  E1 0E 01 01 1C 06 80 BA  .4...Y.4........
0060: F0 FF FF 7F 07 80 08 80  09 80 0A 80 BA 33 E1 0E  .............3..
0070: 01 07 80 08 80 09 80 0A  80 BA 34 E1 0E 01 0B 80  ..........4.....
0080: 0C 80 0D 80 0E 80 1C 06  80 C5 0F 80 34 E1 0E 01  ............4...
0090: 34 E1 0E 01 73 30 30 31  04 80 1C 10 80 C5 0F 80  4...s001........
00A0: 34 E1 0E 01 34 E1 0E 01  73 30 30 30 04 80 1C 10  4...4...s000....
00B0: 80 C5 0F 80 34 E1 0E 01  34 E1 0E 01 73 30 30 31  ....4...4...s001
00C0: 04 80 5C 00 11 80 5C 01  11 80 9A 27 10 F0 FF FF  ..\...\....'....
00D0: 7F 74 2A 10 F0 FF FF 7F  02 02 10 12 80 80 F4 00  .t*.............
00E0: 45 13 80 F0 FF FF 7F F0  FF FF 7F 62 30 31 38 04  E..........b018.
00F0: 80 01 3D 01 02 02 10 14  80 80 10 01 45 13 80 F0  ..=.........E...
0100: FF FF 7F F0 FF FF 7F 62  30 31 38 04 80 01 3D 01  .......b018...=.
0110: 02 02 10 15 80 80 2C 01  45 13 80 F0 FF FF 7F F0  ......,.E.......
0120: FF FF 7F 62 30 31 38 04  80 01 3D 01 45 13 80 F0  ...b018...=.E...
0130: FF FF 7F F0 FF FF 7F 62  30 31 30 04 80 1C 06 80  .......b010.....
0140: 1A D4 04 1C 05 80 48 16  80 23 1A F5 04 1C 17 80  ......H..#......
0150: 27 10 F0 FF FF 7F 74 02  02 10 12 80 80 71 01 52  '.....t......q.R
0160: 13 80 F0 FF FF 7F F0 FF  FF 7F 62 30 31 38 01 B4  ..........b018..
0170: 01 02 02 10 14 80 80 8B  01 52 13 80 F0 FF FF 7F  .........R......
0180: F0 FF FF 7F 62 30 31 38  01 B4 01 02 02 10 15 80  ....b018........
0190: 80 A5 01 52 13 80 F0 FF  FF 7F F0 FF FF 7F 62 30  ...R..........b0
01A0: 31 38 01 B4 01 52 13 80  F0 FF FF 7F F0 FF FF 7F  18...R..........
01B0: 62 30 31 30 45 13 80 F0  FF FF 7F F0 FF FF 7F 62  b010E..........b
01C0: 30 32 30 04 80 1A D4 04  1C 05 80 48 18 80 23 1C  020........H..#.
01D0: 19 80 45 1A 80 F0 FF FF  7F F0 FF FF 7F 77 68 6F  ..E..........who
01E0: 31 04 80 55 1A 80 F0 FF  FF 7F F0 FF FF 7F 77 68  1..U..........wh
01F0: 6F 31 1C 19 80 C5 0F 80  34 E1 0E 01 34 E1 0E 01  o1......4...4...
0200: 6B 69 6C 30 04 80 C5 0F  80 34 E1 0E 01 34 E1 0E  kil0.....4...4..
0210: 01 6B 69 6C 31 04 80 92  01 F0 FF FF 7F BA F0 FF  .kil1...........
0220: FF 7F 1B 80 1C 80 09 80  1D 80 6C F0 FF FF 7F 1E  ..........l.....
0230: 80 02 80 6C 33 E1 0E 01  1F 80 02 80 52 13 80 F0  ...l3.......R...
0240: FF FF 7F F0 FF FF 7F 62  30 32 30 45 13 80 F0 FF  .......b020E....
0250: FF 7F F0 FF FF 7F 62 30  33 30 04 80 1C 20 80 BA  ......b030... ..
0260: 34 E1 0E 01 0B 80 0C 80  21 80 0E 80 7B 33 E1 0E  4.......!...{3..
0270: 01 81 00 33 E1 0E 01 7C  00 33 E1 0E 01 5B 22 80  ...3...|.3...[".
0280: 33 E1 0E 01 33 E1 0E 01  61 6E 64 30 1C 23 80 45  3...3...and0.#.E
0290: 1A 80 F0 FF FF 7F F0 FF  FF 7F 77 68 69 31 04 80  ..........whi1..
02A0: 45 24 80 F0 FF FF 7F F0  FF FF 7F 65 66 6F 6E 04  E$.........efon.
02B0: 80 55 1A 80 F0 FF FF 7F  F0 FF FF 7F 77 68 69 31  .U..........whi1
02C0: 1C 17 80 03 02 10 25 80  48 26 80 23 48 27 80 23  ......%.H&.#H'.#
02D0: 1C 19 80 52 13 80 F0 FF  FF 7F F0 FF FF 7F 62 30  ...R..........b0
02E0: 33 30 45 13 80 F0 FF FF  7F F0 FF FF 7F 62 30 34  30E..........b04
02F0: 30 04 80 1C 19 80 48 28  80 23 1C 19 80 45 1A 80  0.....H(.#...E..
0300: F0 FF FF 7F F0 FF FF 7F  77 68 6F 31 04 80 45 24  ........who1..E$
0310: 80 F0 FF FF 7F F0 FF FF  7F 65 66 6F 66 04 80 55  .........efof..U
0320: 1A 80 F0 FF FF 7F F0 FF  FF 7F 77 68 6F 31 1C 19  ..........who1..
0330: 80 BA 34 E1 0E 01 0B 80  0C 80 0D 80 0E 80 BA F0  ..4.............
0340: FF FF 7F 07 80 08 80 09  80 0A 80 92 00 F0 FF FF  ................
0350: 7F 6C F0 FF FF 7F 1F 80  02 80 6C 33 E1 0E 01 04  .l........l3....
0360: 80 02 80 1C 19 80 C5 0F  80 34 E1 0E 01 34 E1 0E  .........4...4..
0370: 01 73 30 30 31 04 80 1C  10 80 C5 0F 80 34 E1 0E  .s001........4..
0380: 01 34 E1 0E 01 73 30 30  30 04 80 1C 10 80 C5 0F  .4...s000.......
0390: 80 34 E1 0E 01 34 E1 0E  01 73 30 30 31 04 80 1C  .4...4...s001...
03A0: 23 80 45 1A 80 F0 FF FF  7F F0 FF FF 7F 77 68 69  #.E..........whi
03B0: 31 04 80 55 1A 80 F0 FF  FF 7F F0 FF FF 7F 77 68  1..U..........wh
03C0: 69 31 1C 29 80 48 2A 80  23 1A F5 04 1C 17 80 52  i1.).H*.#......R
03D0: 13 80 F0 FF FF 7F F0 FF  FF 7F 62 30 34 30 45 13  ..........b040E.
03E0: 80 F0 FF FF 7F F0 FF FF  7F 62 30 32 30 04 80 1A  .........b020...
03F0: D4 04 1C 29 80 48 2B 80  23 1C 17 80 5D 04 80 05  ...).H+.#...]...
0400: 80 1A F5 04 45 2C 80 F0  FF FF 7F F0 FF FF 7F 62  ....E,.........b
0410: 6C 6F 66 04 80 1C 2D 80  78 C5 0F 80 34 E1 0E 01  lof...-.x...4...
0420: 34 E1 0E 01 6B 69 6C 30  04 80 C5 0F 80 34 E1 0E  4...kil0.....4..
0430: 01 34 E1 0E 01 6B 69 6C  31 04 80 AB 11 04 80 1C  .4...kil1.......
0440: 2D 80 5C 00 2E 80 5C 01  2E 80 9A 46 00 52 13 80  -.\...\....F.R..
0450: F0 FF FF 7F F0 FF FF 7F  62 30 32 30 45 2C 80 F0  ........b020E,..
0460: FF FF 7F F0 FF FF 7F 66  64 69 32 04 80 21 00     .......fdi2..!. 
```

#### Opcodes

```
  0: 0x0001 [0x42] SET_CLI_EVENT_CANCEL_DATA()
  1: 0x0002 [0x1A] CALL_SUBROUTINE(address=0x04F5)
  2: 0x0005 [0x46] CAMERA_CONTROL: Disable user control
  3: 0x0007 [0x38] SET_CLIENT_EVENT_MODE(mode=19*)
  4: 0x000A [0x77] SET_EVENT_TIME_WEATHER(hour=12*, weather=1*)
  5: 0x000F [0x75] LOAD_ROOM(Load indoor room, room=394*)
  6: 0x0013 [0x75] LOAD_ROOM(No action)
  7: 0x0015 [0x5D] SET_MUSIC_VOLUME(volume=0*, fade_time=120*)
  8: 0x001A [0x27] REQ_SET(priority=0x10, entity_id=Lilisette (ID: 17752371/0x010EE133), tag_num=0x02)
  9: 0x0021 [0x27] REQ_SET(priority=0x10, entity_id=Unnamed NPC (ID: 17752372/0x010EE134), tag_num=0x04)
 10: 0x0028 [0x80] LOAD_WAIT(entity=LocalPlayer)
 11: 0x002D [0x80] LOAD_WAIT(entity=Lilisette (ID: 17752371/0x010EE133))
 12: 0x0032 [0x80] LOAD_WAIT(entity=Unnamed NPC (ID: 17752372/0x010EE134))
 13: 0x0037 [0x92] Lilisette (ID: 17752371/0x010EE133)->Render.Flags3 ^= 0x01
 14: 0x003D [0x92] Unnamed NPC (ID: 17752372/0x010EE134)->Render.Flags3 ^= 0x01
 15: 0x0043 [0x94] LocalPlayer->Render.Flags3 ^= 0x01
 16: 0x0049 [0x94] Lilisette (ID: 17752371/0x010EE133)->Render.Flags3 ^= 0x01
 17: 0x004F [0x94] Unnamed NPC (ID: 17752372/0x010EE134)->Render.Flags3 ^= 0x01
 18: 0x0055 [0x59] UPDATE_ENTITY_DATA: Unnamed NPC (ID: 17752372/0x010EE134)->Render.Flags0 |= 0x200000
 19: 0x005C [0x1C] WAIT(5* ticks)
 20: 0x005F [0xBA] SET_ENTITY_POSITION(entity_id=LocalPlayer, pos_x=-16.751*, pos_z=112.069*, pos_y=-6.249*, direction=345.2°*)
 21: 0x006C [0xBA] SET_ENTITY_POSITION(entity_id=Lilisette (ID: 17752371/0x010EE133), pos_x=-16.751*, pos_z=112.069*, pos_y=-6.249*, direction=345.2°*)
 22: 0x0079 [0xBA] SET_ENTITY_POSITION(entity_id=Unnamed NPC (ID: 17752372/0x010EE134), pos_x=-16.170*, pos_z=112.289*, pos_y=-82.500*, direction=355.5°*)
 23: 0x0086 [0x1C] WAIT(5* ticks)
 24: 0x0089 [0xC5] LOAD_SCHEDULED_TASK_ALT3: Load scheduler 0x80043130 for entities [Unnamed NPC (ID: 17752372/0x010EE134), Unnamed NPC (ID: 17752372/0x010EE134)], work=213*, param=12403
 25: 0x009A [0x1C] WAIT(2* ticks)
 26: 0x009D [0xC5] LOAD_SCHEDULED_TASK_ALT3: Load scheduler 0x80043030 for entities [Unnamed NPC (ID: 17752372/0x010EE134), Unnamed NPC (ID: 17752372/0x010EE134)], work=213*, param=12403
 27: 0x00AE [0x1C] WAIT(2* ticks)
 28: 0x00B1 [0xC5] LOAD_SCHEDULED_TASK_ALT3: Load scheduler 0x80043130 for entities [Unnamed NPC (ID: 17752372/0x010EE134), Unnamed NPC (ID: 17752372/0x010EE134)], work=213*, param=12403
 29: 0x00C2 [0x5C] MUSIC_CONTROL: Set Idle (Day) music to song 123*
 30: 0x00C6 [0x5C] MUSIC_CONTROL: Set Idle (Night) music to song 123*
 31: 0x00CA [0x9A] WAIT_MUSIC_SERVER()
 32: 0x00CB [0x27] REQ_SET(priority=0x10, entity_id=LocalPlayer, tag_num=0x74)
 33: 0x00D2 [0x2A] GET_REQ_LEVEL(level=16, entity_id=LocalPlayer)
 34: 0x00D8 [0x02] IF !(Work_Zone[2] == 3*) GOTO 0x00F4
 35: 0x00E0 [0x45] LOAD_SCHEDULED_TASK: Load scheduler "b018" with entities [LocalPlayer, LocalPlayer], work=[542*, 0*]
 36: 0x00F1 [0x01] GOTO 0x013D
 37: 0x00F4 [0x02] IF !(Work_Zone[2] == 4*) GOTO 0x0110
 38: 0x00FC [0x45] LOAD_SCHEDULED_TASK: Load scheduler "b018" with entities [LocalPlayer, LocalPlayer], work=[542*, 0*]
 39: 0x010D [0x01] GOTO 0x013D
 40: 0x0110 [0x02] IF !(Work_Zone[2] == 8*) GOTO 0x012C
 41: 0x0118 [0x45] LOAD_SCHEDULED_TASK: Load scheduler "b018" with entities [LocalPlayer, LocalPlayer], work=[542*, 0*]
 42: 0x0129 [0x01] GOTO 0x013D
 43: 0x012C [0x45] LOAD_SCHEDULED_TASK: Load scheduler "b010" with entities [LocalPlayer, LocalPlayer], work=[542*, 0*]

SUBROUTINE_013D:
 44: 0x013D [0x1C] WAIT(5* ticks)
 45: 0x0140 [0x1A] CALL_SUBROUTINE(address=0x04D4)
 46: 0x0143 [0x1C] WAIT(120* ticks)
 47: 0x0146 [0x48] [System] [12404*]:
    → "The title reads: "The Compleat Compendium of Curses.""
 48: 0x0149 [0x23] WAIT_FOR_DIALOG_INTERACTION
 49: 0x014A [0x1A] CALL_SUBROUTINE(address=0x04F5)
 50: 0x014D [0x1C] WAIT(60* ticks)
 51: 0x0150 [0x27] REQ_SET(priority=0x10, entity_id=LocalPlayer, tag_num=0x74)
 52: 0x0157 [0x02] IF !(Work_Zone[2] == 3*) GOTO 0x0171
 53: 0x015F [0x52] END_LOAD_SCHEDULER: End scheduler "b018" with entities [LocalPlayer, LocalPlayer], work=542*
 54: 0x016E [0x01] GOTO 0x01B4
 55: 0x0171 [0x02] IF !(Work_Zone[2] == 4*) GOTO 0x018B
 56: 0x0179 [0x52] END_LOAD_SCHEDULER: End scheduler "b018" with entities [LocalPlayer, LocalPlayer], work=542*
 57: 0x0188 [0x01] GOTO 0x01B4
 58: 0x018B [0x02] IF !(Work_Zone[2] == 8*) GOTO 0x01A5
 59: 0x0193 [0x52] END_LOAD_SCHEDULER: End scheduler "b018" with entities [LocalPlayer, LocalPlayer], work=542*
 60: 0x01A2 [0x01] GOTO 0x01B4
 61: 0x01A5 [0x52] END_LOAD_SCHEDULER: End scheduler "b010" with entities [LocalPlayer, LocalPlayer], work=542*

SUBROUTINE_01B4:
 62: 0x01B4 [0x45] LOAD_SCHEDULED_TASK: Load scheduler "b020" with entities [LocalPlayer, LocalPlayer], work=[542*, 0*]
 63: 0x01C5 [0x1A] CALL_SUBROUTINE(address=0x04D4)
 64: 0x01C8 [0x1C] WAIT(120* ticks)
 65: 0x01CB [0x48] [System] [12405*]:
    → "A page corner has been folded over."
 66: 0x01CE [0x23] WAIT_FOR_DIALOG_INTERACTION
 67: 0x01CF [0x1C] WAIT(30* ticks)
 68: 0x01D2 [0x45] LOAD_SCHEDULED_TASK: Load scheduler "who1" with entities [LocalPlayer, LocalPlayer], work=[201*, 0*]
 69: 0x01E3 [0x55] WAIT_LOAD_SCHEDULER: Wait for scheduler "who1" with entities [LocalPlayer, LocalPlayer], work=201*
 70: 0x01F2 [0x1C] WAIT(30* ticks)
 71: 0x01F5 [0xC5] LOAD_SCHEDULED_TASK_ALT3: Load scheduler 0x8004306C for entities [Unnamed NPC (ID: 17752372/0x010EE134), Unnamed NPC (ID: 17752372/0x010EE134)], work=213*, param=26987
 72: 0x0206 [0xC5] LOAD_SCHEDULED_TASK_ALT3: Load scheduler 0x8004316C for entities [Unnamed NPC (ID: 17752372/0x010EE134), Unnamed NPC (ID: 17752372/0x010EE134)], work=213*, param=26987
 73: 0x0217 [0x92] LocalPlayer->Render.Flags3 ^= 0x01
 74: 0x021D [0xBA] SET_ENTITY_POSITION(entity_id=LocalPlayer, pos_x=-18.017*, pos_z=111.660*, pos_y=-6.249*, direction=345.3°*)
 75: 0x022A [0x6C] FADE_ENTITY_COLOR(entity_id=LocalPlayer, end_alpha=84*, fade_time=1*)
 76: 0x0233 [0x6C] FADE_ENTITY_COLOR(entity_id=Lilisette (ID: 17752371/0x010EE133), end_alpha=128*, fade_time=1*)
 77: 0x023C [0x52] END_LOAD_SCHEDULER: End scheduler "b020" with entities [LocalPlayer, LocalPlayer], work=542*
 78: 0x024B [0x45] LOAD_SCHEDULED_TASK: Load scheduler "b030" with entities [LocalPlayer, LocalPlayer], work=[542*, 0*]
 79: 0x025C [0x1C] WAIT(20* ticks)
 80: 0x025F [0xBA] SET_ENTITY_POSITION(entity_id=Unnamed NPC (ID: 17752372/0x010EE134), pos_x=-16.170*, pos_z=112.289*, pos_y=-6.250*, direction=355.5°*)
 81: 0x026C [0x7B] Lilisette (ID: 17752371/0x010EE133) stops talking
 82: 0x0271 [0x81] SET_ENTITY_BLINKING(blink_flag=0x00, entity=Lilisette (ID: 17752371/0x010EE133))
 83: 0x0277 [0x7C] Lilisette (ID: 17752371/0x010EE133)->Render.Flags2 |= 0x00
 84: 0x027D [0x5B] LOAD_EXT_SCHEDULER: Load scheduler "and0" with entities [Lilisette (ID: 17752371/0x010EE133), Lilisette (ID: 17752371/0x010EE133)], work=2794*
 85: 0x028C [0x1C] WAIT(10* ticks)
 86: 0x028F [0x45] LOAD_SCHEDULED_TASK: Load scheduler "whi1" with entities [LocalPlayer, LocalPlayer], work=[201*, 0*]
 87: 0x02A0 [0x45] LOAD_SCHEDULED_TASK: Load scheduler "efon" with entities [LocalPlayer, LocalPlayer], work=[215*, 0*]
 88: 0x02B1 [0x55] WAIT_LOAD_SCHEDULER: Wait for scheduler "whi1" with entities [LocalPlayer, LocalPlayer], work=201*
 89: 0x02C0 [0x1C] WAIT(60* ticks)
 90: 0x02C3 [0x03] Work_Zone[2] = 942*
 91: 0x02C8 [0x48] [System] [12406*]:
    → ""Curses, and the Defense and Treatment Thereof.""
 92: 0x02CB [0x23] WAIT_FOR_DIALOG_INTERACTION
 93: 0x02CC [0x48] [System] [12407*]:
    → ""Take ye $0 unto a spring favored by pixiekind. Immerse it of a night in the pure, cleansing waters. Thus doth the $0 assume counter-curse properties."
 94: 0x02CF [0x23] WAIT_FOR_DIALOG_INTERACTION
 95: 0x02D0 [0x1C] WAIT(30* ticks)
 96: 0x02D3 [0x52] END_LOAD_SCHEDULER: End scheduler "b030" with entities [LocalPlayer, LocalPlayer], work=542*
 97: 0x02E2 [0x45] LOAD_SCHEDULED_TASK: Load scheduler "b040" with entities [LocalPlayer, LocalPlayer], work=[542*, 0*]
 98: 0x02F3 [0x1C] WAIT(30* ticks)
 99: 0x02F6 [0x48] [System] [12408*]:
    → ""Ground the resultant ingredient into a fine powder, from which an infusion can be prepared for the afflicted.""
100: 0x02F9 [0x23] WAIT_FOR_DIALOG_INTERACTION
101: 0x02FA [0x1C] WAIT(30* ticks)
102: 0x02FD [0x45] LOAD_SCHEDULED_TASK: Load scheduler "who1" with entities [LocalPlayer, LocalPlayer], work=[201*, 0*]
103: 0x030E [0x45] LOAD_SCHEDULED_TASK: Load scheduler "efof" with entities [LocalPlayer, LocalPlayer], work=[215*, 0*]
104: 0x031F [0x55] WAIT_LOAD_SCHEDULER: Wait for scheduler "who1" with entities [LocalPlayer, LocalPlayer], work=201*
105: 0x032E [0x1C] WAIT(30* ticks)
106: 0x0331 [0xBA] SET_ENTITY_POSITION(entity_id=Unnamed NPC (ID: 17752372/0x010EE134), pos_x=-16.170*, pos_z=112.289*, pos_y=-82.500*, direction=355.5°*)
107: 0x033E [0xBA] SET_ENTITY_POSITION(entity_id=LocalPlayer, pos_x=-16.751*, pos_z=112.069*, pos_y=-6.249*, direction=345.2°*)
108: 0x034B [0x92] LocalPlayer->Render.Flags3 = Flags3  // No change (flag=0)
109: 0x0351 [0x6C] FADE_ENTITY_COLOR(entity_id=LocalPlayer, end_alpha=128*, fade_time=1*)
110: 0x035A [0x6C] FADE_ENTITY_COLOR(entity_id=Lilisette (ID: 17752371/0x010EE133), end_alpha=0*, fade_time=1*)
111: 0x0363 [0x1C] WAIT(30* ticks)
112: 0x0366 [0xC5] LOAD_SCHEDULED_TASK_ALT3: Load scheduler 0x80043130 for entities [Unnamed NPC (ID: 17752372/0x010EE134), Unnamed NPC (ID: 17752372/0x010EE134)], work=213*, param=12403
113: 0x0377 [0x1C] WAIT(2* ticks)
114: 0x037A [0xC5] LOAD_SCHEDULED_TASK_ALT3: Load scheduler 0x80043030 for entities [Unnamed NPC (ID: 17752372/0x010EE134), Unnamed NPC (ID: 17752372/0x010EE134)], work=213*, param=12403
115: 0x038B [0x1C] WAIT(2* ticks)
116: 0x038E [0xC5] LOAD_SCHEDULED_TASK_ALT3: Load scheduler 0x80043130 for entities [Unnamed NPC (ID: 17752372/0x010EE134), Unnamed NPC (ID: 17752372/0x010EE134)], work=213*, param=12403
117: 0x039F [0x1C] WAIT(10* ticks)
118: 0x03A2 [0x45] LOAD_SCHEDULED_TASK: Load scheduler "whi1" with entities [LocalPlayer, LocalPlayer], work=[201*, 0*]
119: 0x03B3 [0x55] WAIT_LOAD_SCHEDULER: Wait for scheduler "whi1" with entities [LocalPlayer, LocalPlayer], work=201*
120: 0x03C2 [0x1C] WAIT(90* ticks)
121: 0x03C5 [0x48] [System] [12409*]:
    → "The instructions continue..."
122: 0x03C8 [0x23] WAIT_FOR_DIALOG_INTERACTION
123: 0x03C9 [0x1A] CALL_SUBROUTINE(address=0x04F5)
124: 0x03CC [0x1C] WAIT(60* ticks)
125: 0x03CF [0x52] END_LOAD_SCHEDULER: End scheduler "b040" with entities [LocalPlayer, LocalPlayer], work=542*
126: 0x03DE [0x45] LOAD_SCHEDULED_TASK: Load scheduler "b020" with entities [LocalPlayer, LocalPlayer], work=[542*, 0*]
127: 0x03EF [0x1A] CALL_SUBROUTINE(address=0x04D4)
128: 0x03F2 [0x1C] WAIT(90* ticks)
129: 0x03F5 [0x48] [System] [12410*]:
    → ""Be ye fairly warned: Curses are manifold and complex in nature. Ergo, this remedy may prove fruitless against certain strains of the affliction.""
130: 0x03F8 [0x23] WAIT_FOR_DIALOG_INTERACTION
131: 0x03F9 [0x1C] WAIT(60* ticks)
132: 0x03FC [0x5D] SET_MUSIC_VOLUME(volume=0*, fade_time=120*)
133: 0x0401 [0x1A] CALL_SUBROUTINE(address=0x04F5)
134: 0x0404 [0x45] LOAD_SCHEDULED_TASK: Load scheduler "blof" with entities [LocalPlayer, LocalPlayer], work=[200*, 0*]
135: 0x0415 [0x1C] WAIT(15* ticks)
136: 0x0418 [0x78] ENABLE_GAME_TIMER_RESET_WEATHER()
137: 0x0419 [0xC5] LOAD_SCHEDULED_TASK_ALT3: Load scheduler 0x8004306C for entities [Unnamed NPC (ID: 17752372/0x010EE134), Unnamed NPC (ID: 17752372/0x010EE134)], work=213*, param=26987
138: 0x042A [0xC5] LOAD_SCHEDULED_TASK_ALT3: Load scheduler 0x8004316C for entities [Unnamed NPC (ID: 17752372/0x010EE134), Unnamed NPC (ID: 17752372/0x010EE134)], work=213*, param=26987
139: 0x043B [0xAB] EventEntity->DespawnValue = 0* // Set despawn value
140: 0x043F [0x1C] WAIT(15* ticks)
141: 0x0442 [0x5C] MUSIC_CONTROL: Set Idle (Day) music to song 151*
142: 0x0446 [0x5C] MUSIC_CONTROL: Set Idle (Night) music to song 151*
143: 0x044A [0x9A] WAIT_MUSIC_SERVER()
144: 0x044B [0x46] CAMERA_CONTROL: Restore default settings
145: 0x044D [0x52] END_LOAD_SCHEDULER: End scheduler "b020" with entities [LocalPlayer, LocalPlayer], work=542*
146: 0x045C [0x45] LOAD_SCHEDULED_TASK: Load scheduler "fdi2" with entities [LocalPlayer, LocalPlayer], work=[200*, 0*]
147: 0x046D [0x21] END_EVENT
148: 0x046E [0x00] END_REQSTACK()
```

### Event 1018

#### Metadata

| Field        | Value     |
|--------------|-----------|
| Entrypoint   | 0x046F    |
| Data Size    | 692 bytes |
| Instructions | 17        |

```
      00 01 02 03 04 05 06 07  08 09 0A 0B 0C 0D 0E 0F
      -- -- -- -- -- -- -- --  -- -- -- -- -- -- -- --
0460:                                               03                 .
0470: 02 10 25 80 48 16 80 23  48 18 80 23 48 26 80 23  ..%.H..#H..#H&.#
0480: 48 27 80 23 48 28 80 23  48 2A 80 23 48 2B 80 23  H'.#H(.#H*.#H+.#
0490: 21 00 45 2C 80 F0 FF FF  7F F0 FF FF 7F 66 64 69  !.E,.........fdi
04A0: 30 04 80 55 2C 80 F0 FF  FF 7F F0 FF FF 7F 66 64  0..U,.........fd
04B0: 69 30 1B 45 2C 80 F0 FF  FF 7F F0 FF FF 7F 66 64  i0.E,.........fd
04C0: 6F 30 04 80 55 2C 80 F0  FF FF 7F F0 FF FF 7F 66  o0..U,.........f
04D0: 64 6F 30 1B 45 2C 80 F0  FF FF 7F F0 FF FF 7F 66  do0.E,.........f
04E0: 64 69 31 04 80 55 2C 80  F0 FF FF 7F F0 FF FF 7F  di1..U,.........
04F0: 66 64 69 31 1B 45 2C 80  F0 FF FF 7F F0 FF FF 7F  fdi1.E,.........
0500: 66 64 6F 31 04 80 55 2C  80 F0 FF FF 7F F0 FF FF  fdo1..U,........
0510: 7F 66 64 6F 31 1B 45 1A  80 F0 FF FF 7F F0 FF FF  .fdo1.E.........
0520: 7F 77 68 69 31 04 80 55  1A 80 F0 FF FF 7F F0 FF  .whi1..U........
0530: FF 7F 77 68 69 31 1B 45  1A 80 F0 FF FF 7F F0 FF  ..whi1.E........
0540: FF 7F 77 68 6F 31 04 80  55 1A 80 F0 FF FF 7F F0  ..who1..U.......
0550: FF FF 7F 77 68 6F 31 1B  45 1A 80 F0 FF FF 7F F0  ...who1.E.......
0560: FF FF 7F 77 68 6F 32 04  80 55 1A 80 F0 FF FF 7F  ...who2..U......
0570: F0 FF FF 7F 77 68 6F 32  1B 45 1A 80 F0 FF FF 7F  ....who2.E......
0580: F0 FF FF 7F 77 68 6F 33  04 80 55 1A 80 F0 FF FF  ....who3..U.....
0590: 7F F0 FF FF 7F 77 68 6F  33 1B 62 02 80 F0 FF FF  .....who3.b.....
05A0: 7F F0 FF FF 7F 6D 61 69  6E 04 80 1C 2F 80 45 2C  .....main.../.E,
05B0: 80 F0 FF FF 7F F0 FF FF  7F 66 64 6F 31 04 80 55  .........fdo1..U
05C0: 2C 80 F0 FF FF 7F F0 FF  FF 7F 66 64 6F 31 1B 45  ,.........fdo1.E
05D0: 2C 80 F0 FF FF 7F F0 FF  FF 7F 66 64 69 31 04 80  ,.........fdi1..
05E0: 62 10 80 F0 FF FF 7F F0  FF FF 7F 6D 61 69 6E 04  b..........main.
05F0: 80 1C 19 80 55 2C 80 F0  FF FF 7F F0 FF FF 7F 66  ....U,.........f
0600: 64 69 31 1B 45 2C 80 F0  FF FF 7F F0 FF FF 7F 62  di1.E,.........b
0610: 6C 6F 6E 04 80 45 1A 80  F0 FF FF 7F F0 FF FF 7F  lon..E..........
0620: 62 6C 6F 6E 04 80 1B 45  1A 80 F0 FF FF 7F F0 FF  blon...E........
0630: FF 7F 77 68 69 30 04 80  55 1A 80 F0 FF FF 7F F0  ..whi0..U.......
0640: FF FF 7F 77 68 69 30 1B  45 1A 80 F0 FF FF 7F F0  ...whi0.E.......
0650: FF FF 7F 77 68 6F 30 04  80 55 1A 80 F0 FF FF 7F  ...who0..U......
0660: F0 FF FF 7F 77 68 6F 30  1B 45 24 80 F0 FF FF 7F  ....who0.E$.....
0670: F0 FF FF 7F 65 66 6F 6E  04 80 55 24 80 F0 FF FF  ....efon..U$....
0680: 7F F0 FF FF 7F 65 66 6F  6E 1B 45 2C 80 F0 FF FF  .....efon.E,....
0690: 7F F0 FF FF 7F 66 64 69  73 04 80 1B 45 2C 80 F0  .....fdis...E,..
06A0: FF FF 7F F0 FF FF 7F 66  64 6F 73 04 80 55 2C 80  .......fdos..U,.
06B0: F0 FF FF 7F F0 FF FF 7F  66 64 6F 73 1B 45 2C 80  ........fdos.E,.
06C0: F0 FF FF 7F F0 FF FF 7F  66 64 69 66 04 80 1B 45  ........fdif...E
06D0: 2C 80 F0 FF FF 7F F0 FF  FF 7F 66 64 6F 66 04 80  ,.........fdof..
06E0: 55 2C 80 F0 FF FF 7F F0  FF FF 7F 66 64 6F 66 1B  U,.........fdof.
06F0: 45 2C 80 F0 FF FF 7F F0  FF FF 7F 66 64 69 70 04  E,.........fdip.
0700: 80 1B 45 2C 80 F0 FF FF  7F F0 FF FF 7F 66 64 6F  ..E,.........fdo
0710: 70 04 80 55 2C 80 F0 FF  FF 7F F0 FF FF 7F 66 64  p..U,.........fd
0720: 6F 70 1B                                          op.             
```

#### Opcodes

```
  0: 0x046F [0x03] Work_Zone[2] = 942*
  1: 0x0474 [0x48] [System] [12404*]:
    → "The title reads: "The Compleat Compendium of Curses.""
  2: 0x0477 [0x23] WAIT_FOR_DIALOG_INTERACTION
  3: 0x0478 [0x48] [System] [12405*]:
    → "A page corner has been folded over."
  4: 0x047B [0x23] WAIT_FOR_DIALOG_INTERACTION
  5: 0x047C [0x48] [System] [12406*]:
    → ""Curses, and the Defense and Treatment Thereof.""
  6: 0x047F [0x23] WAIT_FOR_DIALOG_INTERACTION
  7: 0x0480 [0x48] [System] [12407*]:
    → ""Take ye $0 unto a spring favored by pixiekind. Immerse it of a night in the pure, cleansing waters. Thus doth the $0 assume counter-curse properties."
  8: 0x0483 [0x23] WAIT_FOR_DIALOG_INTERACTION
  9: 0x0484 [0x48] [System] [12408*]:
    → ""Ground the resultant ingredient into a fine powder, from which an infusion can be prepared for the afflicted.""
 10: 0x0487 [0x23] WAIT_FOR_DIALOG_INTERACTION
 11: 0x0488 [0x48] [System] [12409*]:
    → "The instructions continue..."
 12: 0x048B [0x23] WAIT_FOR_DIALOG_INTERACTION
 13: 0x048C [0x48] [System] [12410*]:
    → ""Be ye fairly warned: Curses are manifold and complex in nature. Ergo, this remedy may prove fruitless against certain strains of the affliction.""
 14: 0x048F [0x23] WAIT_FOR_DIALOG_INTERACTION
 15: 0x0490 [0x21] END_EVENT
 16: 0x0491 [0x00] END_REQSTACK()
```

#### Data or dead code:

```
# Dead code (unreachable instructions):
     0x0492 [0x45] LOAD_SCHEDULED_TASK: Load scheduler "fdi0" with entities [LocalPlayer, LocalPlayer], work=[200*, 0*]
     0x04A3 [0x55] WAIT_LOAD_SCHEDULER: Wait for scheduler "fdi0" with entities [LocalPlayer, LocalPlayer], work=200*
     0x04B2 [0x1B] RETURN
     0x04B3 [0x45] LOAD_SCHEDULED_TASK: Load scheduler "fdo0" with entities [LocalPlayer, LocalPlayer], work=[200*, 0*]
     0x04C4 [0x55] WAIT_LOAD_SCHEDULER: Wait for scheduler "fdo0" with entities [LocalPlayer, LocalPlayer], work=200*
     0x04D3 [0x1B] RETURN
     0x04D4 [0x45] LOAD_SCHEDULED_TASK: Load scheduler "fdi1" with entities [LocalPlayer, LocalPlayer], work=[200*, 0*]
     0x04E5 [0x55] WAIT_LOAD_SCHEDULER: Wait for scheduler "fdi1" with entities [LocalPlayer, LocalPlayer], work=200*
     0x04F4 [0x1B] RETURN
     0x04F5 [0x45] LOAD_SCHEDULED_TASK: Load scheduler "fdo1" with entities [LocalPlayer, LocalPlayer], work=[200*, 0*]
     0x0506 [0x55] WAIT_LOAD_SCHEDULER: Wait for scheduler "fdo1" with entities [LocalPlayer, LocalPlayer], work=200*
     0x0515 [0x1B] RETURN
     0x0516 [0x45] LOAD_SCHEDULED_TASK: Load scheduler "whi1" with entities [LocalPlayer, LocalPlayer], work=[201*, 0*]
     0x0527 [0x55] WAIT_LOAD_SCHEDULER: Wait for scheduler "whi1" with entities [LocalPlayer, LocalPlayer], work=201*
     0x0536 [0x1B] RETURN
     0x0537 [0x45] LOAD_SCHEDULED_TASK: Load scheduler "who1" with entities [LocalPlayer, LocalPlayer], work=[201*, 0*]
     0x0548 [0x55] WAIT_LOAD_SCHEDULER: Wait for scheduler "who1" with entities [LocalPlayer, LocalPlayer], work=201*
     0x0557 [0x1B] RETURN
     0x0558 [0x45] LOAD_SCHEDULED_TASK: Load scheduler "who2" with entities [LocalPlayer, LocalPlayer], work=[201*, 0*]
     0x0569 [0x55] WAIT_LOAD_SCHEDULER: Wait for scheduler "who2" with entities [LocalPlayer, LocalPlayer], work=201*
     0x0578 [0x1B] RETURN
     0x0579 [0x45] LOAD_SCHEDULED_TASK: Load scheduler "who3" with entities [LocalPlayer, LocalPlayer], work=[201*, 0*]
     0x058A [0x55] WAIT_LOAD_SCHEDULER: Wait for scheduler "who3" with entities [LocalPlayer, LocalPlayer], work=201*
     0x0599 [0x1B] RETURN
     0x059A [0x62] LOAD_EVENT_SCHEDULER: Load scheduler "main" with entities [LocalPlayer, LocalPlayer], work=[1*, 0*]
     0x05AB [0x1C] WAIT(45* ticks)
     0x05AE [0x45] LOAD_SCHEDULED_TASK: Load scheduler "fdo1" with entities [LocalPlayer, LocalPlayer], work=[200*, 0*]
     0x05BF [0x55] WAIT_LOAD_SCHEDULER: Wait for scheduler "fdo1" with entities [LocalPlayer, LocalPlayer], work=200*
     0x05CE [0x1B] RETURN
     0x05CF [0x45] LOAD_SCHEDULED_TASK: Load scheduler "fdi1" with entities [LocalPlayer, LocalPlayer], work=[200*, 0*]
     0x05E0 [0x62] LOAD_EVENT_SCHEDULER: Load scheduler "main" with entities [LocalPlayer, LocalPlayer], work=[2*, 0*]
     0x05F1 [0x1C] WAIT(30* ticks)
     0x05F4 [0x55] WAIT_LOAD_SCHEDULER: Wait for scheduler "fdi1" with entities [LocalPlayer, LocalPlayer], work=200*
     0x0603 [0x1B] RETURN
     0x0604 [0x45] LOAD_SCHEDULED_TASK: Load scheduler "blon" with entities [LocalPlayer, LocalPlayer], work=[200*, 0*]
     0x0615 [0x45] LOAD_SCHEDULED_TASK: Load scheduler "blon" with entities [LocalPlayer, LocalPlayer], work=[201*, 0*]
     0x0626 [0x1B] RETURN
     0x0627 [0x45] LOAD_SCHEDULED_TASK: Load scheduler "whi0" with entities [LocalPlayer, LocalPlayer], work=[201*, 0*]
     0x0638 [0x55] WAIT_LOAD_SCHEDULER: Wait for scheduler "whi0" with entities [LocalPlayer, LocalPlayer], work=201*
     0x0647 [0x1B] RETURN
     0x0648 [0x45] LOAD_SCHEDULED_TASK: Load scheduler "who0" with entities [LocalPlayer, LocalPlayer], work=[201*, 0*]
     0x0659 [0x55] WAIT_LOAD_SCHEDULER: Wait for scheduler "who0" with entities [LocalPlayer, LocalPlayer], work=201*
     0x0668 [0x1B] RETURN
     0x0669 [0x45] LOAD_SCHEDULED_TASK: Load scheduler "efon" with entities [LocalPlayer, LocalPlayer], work=[215*, 0*]
     0x067A [0x55] WAIT_LOAD_SCHEDULER: Wait for scheduler "efon" with entities [LocalPlayer, LocalPlayer], work=215*
     0x0689 [0x1B] RETURN
     0x068A [0x45] LOAD_SCHEDULED_TASK: Load scheduler "fdis" with entities [LocalPlayer, LocalPlayer], work=[200*, 0*]
     0x069B [0x1B] RETURN
     0x069C [0x45] LOAD_SCHEDULED_TASK: Load scheduler "fdos" with entities [LocalPlayer, LocalPlayer], work=[200*, 0*]
     0x06AD [0x55] WAIT_LOAD_SCHEDULER: Wait for scheduler "fdos" with entities [LocalPlayer, LocalPlayer], work=200*
     0x06BC [0x1B] RETURN
     0x06BD [0x45] LOAD_SCHEDULED_TASK: Load scheduler "fdif" with entities [LocalPlayer, LocalPlayer], work=[200*, 0*]
     0x06CE [0x1B] RETURN
     0x06CF [0x45] LOAD_SCHEDULED_TASK: Load scheduler "fdof" with entities [LocalPlayer, LocalPlayer], work=[200*, 0*]
     0x06E0 [0x55] WAIT_LOAD_SCHEDULER: Wait for scheduler "fdof" with entities [LocalPlayer, LocalPlayer], work=200*
     0x06EF [0x1B] RETURN
     0x06F0 [0x45] LOAD_SCHEDULED_TASK: Load scheduler "fdip" with entities [LocalPlayer, LocalPlayer], work=[200*, 0*]
     0x0701 [0x1B] RETURN
     0x0702 [0x45] LOAD_SCHEDULED_TASK: Load scheduler "fdop" with entities [LocalPlayer, LocalPlayer], work=[200*, 0*]
     0x0713 [0x55] WAIT_LOAD_SCHEDULER: Wait for scheduler "fdop" with entities [LocalPlayer, LocalPlayer], work=200*
     0x0722 [0x1B] RETURN
```
