# 17752155 - Diederik

## Common Data

| Field            | Value                     |
|------------------|---------------------------|
| Zone             | Windurst Waters (ID: 238) |
| Block Size       | 292 bytes                 |
| Total Events     | 10                        |
| References Count | 22                        |

## List of Events

| Event ID                 | Entrypoint   |   Size |   Instructions |
|--------------------------|--------------|--------|----------------|
| [65535](#event-65535)    | 0x0000       |      1 |              1 |
| [911](#event-911)        | 0x0001       |      1 |              1 |
| [912](#event-912)        | 0x0002       |      1 |              1 |
| [65535.1](#event-655351) | 0x0003       |     36 |              8 |
| [65535.2](#event-655352) | 0x0027       |     23 |              5 |
| [65535.3](#event-655353) | 0x003E       |     14 |              4 |
| [65535.4](#event-655354) | 0x004C       |     14 |              4 |
| [65535.5](#event-655355) | 0x005A       |     23 |              5 |
| [65535.6](#event-655356) | 0x0071       |     27 |              6 |
| [65535.7](#event-655357) | 0x008C       |      8 |              2 |

## DAT References (imed_data)

|   Index | Hex Value   |   Dec Value |
|---------|-------------|-------------|
|       0 | 0xFFFF1DF3  |  4294909427 |
|       1 | 0xFFFE0729  |  4294838057 |
|       2 | 0xFFFFF060  |  4294963296 |
|       3 | 0x02B6      |         694 |
|       4 | 0x000D      |          13 |
|       5 | 0xFFFF20EB  |  4294910187 |
|       6 | 0xFFFDFD37  |  4294835511 |
|       7 | 0xFFFF2151  |  4294910289 |
|       8 | 0xFFFDFAC3  |  4294834883 |
|       9 | 0x0197      |         407 |
|      10 | 0xFFFF2036  |  4294910006 |
|      11 | 0xFFFDF9D1  |  4294834641 |
|      12 | 0xFFFF237D  |  4294910845 |
|      13 | 0xFFFDF359  |  4294832985 |
|      14 | 0xFFFF2466  |  4294911078 |
|      15 | 0xFFFDEFE0  |  4294832096 |
|      16 | 0xFFFEFDAE  |  4294901166 |
|      17 | 0xFFFE2C93  |  4294847635 |
|      18 | 0xFFFEF15F  |  4294898015 |
|      19 | 0xFFFE3EA0  |  4294852256 |
|      20 | 0xFFFF2349  |  4294910793 |
|      21 | 0xFFFDF285  |  4294832773 |

## Events

### Event 65535

#### Metadata

| Field        | Value   |
|--------------|---------|
| Entrypoint   | 0x0000  |
| Data Size    | 1 bytes |
| Instructions | 1       |

```
      00 01 02 03 04 05 06 07  08 09 0A 0B 0C 0D 0E 0F
      -- -- -- -- -- -- -- --  -- -- -- -- -- -- -- --
0000: 00                                                .               
```

#### Opcodes

```
  0: 0x0000 [0x00] END_REQSTACK()
```

### Event 911

#### Metadata

| Field        | Value   |
|--------------|---------|
| Entrypoint   | 0x0001  |
| Data Size    | 1 bytes |
| Instructions | 1       |

```
      00 01 02 03 04 05 06 07  08 09 0A 0B 0C 0D 0E 0F
      -- -- -- -- -- -- -- --  -- -- -- -- -- -- -- --
0000:    00                                              .              
```

#### Opcodes

```
  0: 0x0001 [0x00] END_REQSTACK()
```

### Event 912

#### Metadata

| Field        | Value   |
|--------------|---------|
| Entrypoint   | 0x0002  |
| Data Size    | 1 bytes |
| Instructions | 1       |

```
      00 01 02 03 04 05 06 07  08 09 0A 0B 0C 0D 0E 0F
      -- -- -- -- -- -- -- --  -- -- -- -- -- -- -- --
0000:       00                                            .             
```

#### Opcodes

```
  0: 0x0002 [0x00] END_REQSTACK()
```

### Event 65535.1

#### Metadata

| Field        | Value    |
|--------------|----------|
| Entrypoint   | 0x0003   |
| Data Size    | 36 bytes |
| Instructions | 8        |

```
      00 01 02 03 04 05 06 07  08 09 0A 0B 0C 0D 0E 0F
      -- -- -- -- -- -- -- --  -- -- -- -- -- -- -- --
0000:          2F 00 F8 FF FF  7F 37 00 80 01 80 02 80     /.....7......
0010: 03 80 22 00 80 F8 FF FF  7F 32 04 80 1F 00 05 80  .."......2......
0020: 06 80 02 80 1F 01 00                              .......         
```

#### Opcodes

```
  0: 0x0003 [0x2F] EventEntity->Render.Flags0 &= ~0x80000 // Bit 19
  1: 0x0009 [0x37] UPDATE_EVENT_POSITION_AND_DIR: x=-57.869*, z=-129.239*, y=-4.000*, direction=61.0°*
  2: 0x0012 [0x22] ENTITY_HIDE_FLAG(enabled=0x00)
  3: 0x0014 [0x80] LOAD_WAIT(entity=EventEntity)
  4: 0x0019 [0x32] ExtData[1]->MainSpeed = 13* * 0.1
  5: 0x001C [0x1F] MOVE_ENTITY: EventEntity moves to X=-57.109*, Z=-131.785*, Y=-4.000*
  6: 0x0024 [0x1F] MOVE_ENTITY: Update entity position (mode=1)
  7: 0x0026 [0x00] END_REQSTACK()
```

### Event 65535.2

#### Metadata

| Field        | Value    |
|--------------|----------|
| Entrypoint   | 0x0027   |
| Data Size    | 23 bytes |
| Instructions | 5        |

```
      00 01 02 03 04 05 06 07  08 09 0A 0B 0C 0D 0E 0F
      -- -- -- -- -- -- -- --  -- -- -- -- -- -- -- --
0020:                      2F  00 F8 FF FF 7F 22 00 37         /.....".7
0030: 07 80 08 80 02 80 09 80  80 F8 FF FF 7F 00        ..............  
```

#### Opcodes

```
  0: 0x0027 [0x2F] EventEntity->Render.Flags0 &= ~0x80000 // Bit 19
  1: 0x002D [0x22] ENTITY_HIDE_FLAG(enabled=0x00)
  2: 0x002F [0x37] UPDATE_EVENT_POSITION_AND_DIR: x=-57.007*, z=-132.413*, y=-4.000*, direction=35.8°*
  3: 0x0038 [0x80] LOAD_WAIT(entity=EventEntity)
  4: 0x003D [0x00] END_REQSTACK()
```

### Event 65535.3

#### Metadata

| Field        | Value    |
|--------------|----------|
| Entrypoint   | 0x003E   |
| Data Size    | 14 bytes |
| Instructions | 4        |

```
      00 01 02 03 04 05 06 07  08 09 0A 0B 0C 0D 0E 0F
      -- -- -- -- -- -- -- --  -- -- -- -- -- -- -- --
0030:                                            32 04                2.
0040: 80 1F 00 0A 80 0B 80 02  80 1F 01 00              ............    
```

#### Opcodes

```
  0: 0x003E [0x32] ExtData[1]->MainSpeed = 13* * 0.1
  1: 0x0041 [0x1F] MOVE_ENTITY: EventEntity moves to X=-57.290*, Z=-132.655*, Y=-4.000*
  2: 0x0049 [0x1F] MOVE_ENTITY: Update entity position (mode=1)
  3: 0x004B [0x00] END_REQSTACK()
```

### Event 65535.4

#### Metadata

| Field        | Value    |
|--------------|----------|
| Entrypoint   | 0x004C   |
| Data Size    | 14 bytes |
| Instructions | 4        |

```
      00 01 02 03 04 05 06 07  08 09 0A 0B 0C 0D 0E 0F
      -- -- -- -- -- -- -- --  -- -- -- -- -- -- -- --
0040:                                      32 04 80 1F              2...
0050: 00 0C 80 0D 80 02 80 1F  01 00                    ..........      
```

#### Opcodes

```
  0: 0x004C [0x32] ExtData[1]->MainSpeed = 13* * 0.1
  1: 0x004F [0x1F] MOVE_ENTITY: EventEntity moves to X=-56.451*, Z=-134.311*, Y=-4.000*
  2: 0x0057 [0x1F] MOVE_ENTITY: Update entity position (mode=1)
  3: 0x0059 [0x00] END_REQSTACK()
```

### Event 65535.5

#### Metadata

| Field        | Value    |
|--------------|----------|
| Entrypoint   | 0x005A   |
| Data Size    | 23 bytes |
| Instructions | 5        |

```
      00 01 02 03 04 05 06 07  08 09 0A 0B 0C 0D 0E 0F
      -- -- -- -- -- -- -- --  -- -- -- -- -- -- -- --
0050:                                32 04 80 1F 00 0E            2.....
0060: 80 0F 80 02 80 1F 01 4A  5B E0 0E 01 F0 FF FF 7F  .......J[.......
0070: 00                                                .               
```

#### Opcodes

```
  0: 0x005A [0x32] ExtData[1]->MainSpeed = 13* * 0.1
  1: 0x005D [0x1F] MOVE_ENTITY: EventEntity moves to X=-56.218*, Z=-135.200*, Y=-4.000*
  2: 0x0065 [0x1F] MOVE_ENTITY: Update entity position (mode=1)
  3: 0x0067 [0x4A] Diederik (ID: 17752155/0x010EE05B) looks at LocalPlayer
  4: 0x0070 [0x00] END_REQSTACK()
```

### Event 65535.6

#### Metadata

| Field        | Value    |
|--------------|----------|
| Entrypoint   | 0x0071   |
| Data Size    | 27 bytes |
| Instructions | 6        |

```
      00 01 02 03 04 05 06 07  08 09 0A 0B 0C 0D 0E 0F
      -- -- -- -- -- -- -- --  -- -- -- -- -- -- -- --
0070:    4E 00 5B E0 0E 01 36  10 80 11 80 02 80 32 04   N.[...6......2.
0080: 80 1F 00 12 80 13 80 02  80 1F 01 00              ............    
```

#### Opcodes

```
  0: 0x0071 [0x4E] SET_ENTITY_HIDE_FLAG: Show Diederik (ID: 17752155/0x010EE05B)
  1: 0x0077 [0x36] SET_ENTITY_EVENT_POSITION(pos_x=-66.130*, pos_z=-119.661*, pos_y=-4.000*)
  2: 0x007E [0x32] ExtData[1]->MainSpeed = 13* * 0.1
  3: 0x0081 [0x1F] MOVE_ENTITY: EventEntity moves to X=-69.281*, Z=-115.040*, Y=-4.000*
  4: 0x0089 [0x1F] MOVE_ENTITY: Update entity position (mode=1)
  5: 0x008B [0x00] END_REQSTACK()
```

### Event 65535.7

#### Metadata

| Field        | Value   |
|--------------|---------|
| Entrypoint   | 0x008C  |
| Data Size    | 8 bytes |
| Instructions | 2       |

```
      00 01 02 03 04 05 06 07  08 09 0A 0B 0C 0D 0E 0F
      -- -- -- -- -- -- -- --  -- -- -- -- -- -- -- --
0080:                                      36 14 80 15              6...
0090: 80 02 80 00                                       ....            
```

#### Opcodes

```
  0: 0x008C [0x36] SET_ENTITY_EVENT_POSITION(pos_x=-56.503*, pos_z=-134.523*, pos_y=-4.000*)
  1: 0x0093 [0x00] END_REQSTACK()
```
