# 17752343

## Common Data

| Field            | Value                     |
|------------------|---------------------------|
| Zone             | Windurst Waters (ID: 238) |
| Block Size       | 1048 bytes                |
| Total Events     | 10                        |
| References Count | 53                        |

## List of Events

| Event ID                 | Entrypoint   |   Size |   Instructions |
|--------------------------|--------------|--------|----------------|
| [65535](#event-65535)    | 0x0000       |      1 |              1 |
| [989](#event-989)        | 0x0001       |      1 |              1 |
| [1015](#event-1015)      | 0x0002       |      1 |              1 |
| [1016](#event-1016)      | 0x0003       |      1 |              1 |
| [65535.1](#event-655351) | 0x0004       |     18 |              2 |
| [991](#event-991)        | 0x0016       |      1 |              1 |
| [65535.2](#event-655352) | 0x0017       |    276 |             45 |
| [65535.3](#event-655353) | 0x012B       |    132 |             22 |
| [65535.4](#event-655354) | 0x01AF       |    138 |             22 |
| [65535.5](#event-655355) | 0x0239       |    210 |             33 |

## DAT References (imed_data)

|   Index | Hex Value   |   Dec Value |
|---------|-------------|-------------|
|       0 | 0x00C8      |         200 |
|       1 | 0x0000      |           0 |
|       2 | 0x003C      |          60 |
|       3 | 0xE6C1      |       59073 |
|       4 | 0x323A7     |      205735 |
|       5 | 0xFFFFF697  |  4294964887 |
|       6 | 0x007D      |         125 |
|       7 | 0xDCCC      |       56524 |
|       8 | 0x3315D     |      209245 |
|       9 | 0xFFFFFAF3  |  4294966003 |
|      10 | 0xCF55      |       53077 |
|      11 | 0x30A8E     |      199310 |
|      12 | 0xFFFFFA53  |  4294965843 |
|      13 | 0xE081      |       57473 |
|      14 | 0x31B5A     |      203610 |
|      15 | 0xFFFFF760  |  4294965088 |
|      16 | 0xD713      |       55059 |
|      17 | 0x3234A     |      205642 |
|      18 | 0xFFFFFA3D  |  4294965821 |
|      19 | 0x004B      |          75 |
|      20 | 0xE075      |       57461 |
|      21 | 0x30704     |      198404 |
|      22 | 0xFFFFF6A9  |  4294964905 |
|      23 | 0x690C4     |      430276 |
|      24 | 0xFFFFEF08  |  4294962952 |
|      25 | 0xFFFF63C0  |  4294927296 |
|      26 | 0x05DC      |        1500 |
|      27 | 0x0001      |           1 |
|      28 | 0x6D2DE     |      447198 |
|      29 | 0x17BF      |        6079 |
|      30 | 0x076C      |        1900 |
|      31 | 0x6C0E6     |      442598 |
|      32 | 0x06DE      |        1758 |
|      33 | 0xFFFF62AB  |  4294927019 |
|      34 | 0x6C730     |      444208 |
|      35 | 0x2A1A      |       10778 |
|      36 | 0x6F8D6     |      456918 |
|      37 | 0x44E9      |       17641 |
|      38 | 0xFFFF62F9  |  4294927097 |
|      39 | 0x6BCE3     |      441571 |
|      40 | 0xFFFFF4BA  |  4294964410 |
|      41 | 0xFFFF6357  |  4294927191 |
|      42 | 0x0898      |        2200 |
|      43 | 0x687F8     |      428024 |
|      44 | 0xFFFFC297  |  4294951575 |
|      45 | 0x0DF9      |        3577 |
|      46 | 0x6B4A8     |      439464 |
|      47 | 0xFFFFA6E1  |  4294944481 |
|      48 | 0x6CF46     |      446278 |
|      49 | 0xFFFFB6A0  |  4294948512 |
|      50 | 0x6D36B     |      447339 |
|      51 | 0xFFFFC6C4  |  4294952644 |
|      52 | 0x0DF8      |        3576 |

## Events

### Event 65535

#### Metadata

| Field        | Value   |
|--------------|---------|
| Entrypoint   | 0x0000  |
| Data Size    | 1 bytes |
| Instructions | 1       |

```
      00 01 02 03 04 05 06 07  08 09 0A 0B 0C 0D 0E 0F
      -- -- -- -- -- -- -- --  -- -- -- -- -- -- -- --
0000: 00                                                .               
```

#### Opcodes

```
  0: 0x0000 [0x00] END_REQSTACK()
```

### Event 989

#### Metadata

| Field        | Value   |
|--------------|---------|
| Entrypoint   | 0x0001  |
| Data Size    | 1 bytes |
| Instructions | 1       |

```
      00 01 02 03 04 05 06 07  08 09 0A 0B 0C 0D 0E 0F
      -- -- -- -- -- -- -- --  -- -- -- -- -- -- -- --
0000:    00                                              .              
```

#### Opcodes

```
  0: 0x0001 [0x00] END_REQSTACK()
```

### Event 1015

#### Metadata

| Field        | Value   |
|--------------|---------|
| Entrypoint   | 0x0002  |
| Data Size    | 1 bytes |
| Instructions | 1       |

```
      00 01 02 03 04 05 06 07  08 09 0A 0B 0C 0D 0E 0F
      -- -- -- -- -- -- -- --  -- -- -- -- -- -- -- --
0000:       00                                            .             
```

#### Opcodes

```
  0: 0x0002 [0x00] END_REQSTACK()
```

### Event 1016

#### Metadata

| Field        | Value   |
|--------------|---------|
| Entrypoint   | 0x0003  |
| Data Size    | 1 bytes |
| Instructions | 1       |

```
      00 01 02 03 04 05 06 07  08 09 0A 0B 0C 0D 0E 0F
      -- -- -- -- -- -- -- --  -- -- -- -- -- -- -- --
0000:          00                                          .            
```

#### Opcodes

```
  0: 0x0003 [0x00] END_REQSTACK()
```

### Event 65535.1

#### Metadata

| Field        | Value    |
|--------------|----------|
| Entrypoint   | 0x0004   |
| Data Size    | 18 bytes |
| Instructions | 2        |

```
      00 01 02 03 04 05 06 07  08 09 0A 0B 0C 0D 0E 0F
      -- -- -- -- -- -- -- --  -- -- -- -- -- -- -- --
0000:             45 00 80 F0  FF FF 7F F0 FF FF 7F 62      E..........b
0010: 6C 6F 66 01 80 00                                 lof...          
```

#### Opcodes

```
  0: 0x0004 [0x45] LOAD_SCHEDULED_TASK: Load scheduler "blof" with entities [LocalPlayer, LocalPlayer], work=[200*, 0*]
  1: 0x0015 [0x00] END_REQSTACK()
```

### Event 991

#### Metadata

| Field        | Value   |
|--------------|---------|
| Entrypoint   | 0x0016  |
| Data Size    | 1 bytes |
| Instructions | 1       |

```
      00 01 02 03 04 05 06 07  08 09 0A 0B 0C 0D 0E 0F
      -- -- -- -- -- -- -- --  -- -- -- -- -- -- -- --
0010:                   00                                    .         
```

#### Opcodes

```
  0: 0x0016 [0x00] END_REQSTACK()
```

### Event 65535.2

#### Metadata

| Field        | Value     |
|--------------|-----------|
| Entrypoint   | 0x0017    |
| Data Size    | 276 bytes |
| Instructions | 45        |

```
      00 01 02 03 04 05 06 07  08 09 0A 0B 0C 0D 0E 0F
      -- -- -- -- -- -- -- --  -- -- -- -- -- -- -- --
0010:                      29  10 26 E1 0E 01 03 1C 02         ).&......
0020: 80 2F 00 21 E1 0E 01 4E  00 21 E1 0E 01 94 01 21  ./.!...N.!.....!
0030: E1 0E 01 92 01 21 E1 0E  01 2F 00 22 E1 0E 01 4E  .....!.../."...N
0040: 00 22 E1 0E 01 94 01 22  E1 0E 01 92 01 22 E1 0E  ."....."....."..
0050: 01 2F 00 23 E1 0E 01 4E  00 23 E1 0E 01 94 01 23  ./.#...N.#.....#
0060: E1 0E 01 92 01 23 E1 0E  01 2F 00 24 E1 0E 01 4E  .....#.../.$...N
0070: 00 24 E1 0E 01 94 01 24  E1 0E 01 92 01 24 E1 0E  .$.....$.....$..
0080: 01 2F 00 25 E1 0E 01 4E  00 25 E1 0E 01 94 01 25  ./.%...N.%.....%
0090: E1 0E 01 92 01 25 E1 0E  01 2F 00 26 E1 0E 01 4E  .....%.../.&...N
00A0: 00 26 E1 0E 01 94 01 26  E1 0E 01 92 01 26 E1 0E  .&.....&.....&..
00B0: 01 BA 21 E1 0E 01 03 80  04 80 05 80 06 80 BA 23  ..!............#
00C0: E1 0E 01 07 80 08 80 09  80 06 80 BA 24 E1 0E 01  ............$...
00D0: 0A 80 0B 80 0C 80 06 80  BA 25 E1 0E 01 0D 80 0E  .........%......
00E0: 80 0F 80 06 80 BA 26 E1  0E 01 10 80 11 80 12 80  ......&.........
00F0: 06 80 BA 29 E1 0E 01 10  80 11 80 12 80 06 80 33  ...)...........3
0100: 00 33 00 33 00 33 00 33  00 80 21 E1 0E 01 80 22  .3.3.3.3..!...."
0110: E1 0E 01 80 23 E1 0E 01  80 24 E1 0E 01 80 25 E1  ....#....$....%.
0120: 0E 01 80 26 E1 0E 01 1C  13 80 00                 ...&.......     
```

#### Opcodes

```
  0: 0x0017 [0x29] REQ_SET_WAIT(priority=0x10, entity_id=Darach (ID: 17752358/0x010EE126), tag_num=0x03)
  1: 0x001E [0x1C] WAIT(60* ticks)
  2: 0x0021 [0x2F] Babban Ny Mheillea (ID: 17752353/0x010EE121)->Render.Flags0 &= ~0x80000 // Bit 19
  3: 0x0027 [0x4E] SET_ENTITY_HIDE_FLAG: Show Babban Ny Mheillea (ID: 17752353/0x010EE121)
  4: 0x002D [0x94] Babban Ny Mheillea (ID: 17752353/0x010EE121)->Render.Flags3 ^= 0x01
  5: 0x0033 [0x92] Babban Ny Mheillea (ID: 17752353/0x010EE121)->Render.Flags3 ^= 0x01
  6: 0x0039 [0x2F] Unnamed NPC (ID: 17752354/0x010EE122)->Render.Flags0 &= ~0x80000 // Bit 19
  7: 0x003F [0x4E] SET_ENTITY_HIDE_FLAG: Show Unnamed NPC (ID: 17752354/0x010EE122)
  8: 0x0045 [0x94] Unnamed NPC (ID: 17752354/0x010EE122)->Render.Flags3 ^= 0x01
  9: 0x004B [0x92] Unnamed NPC (ID: 17752354/0x010EE122)->Render.Flags3 ^= 0x01
 10: 0x0051 [0x2F] Abenzio (ID: 17752355/0x010EE123)->Render.Flags0 &= ~0x80000 // Bit 19
 11: 0x0057 [0x4E] SET_ENTITY_HIDE_FLAG: Show Abenzio (ID: 17752355/0x010EE123)
 12: 0x005D [0x94] Abenzio (ID: 17752355/0x010EE123)->Render.Flags3 ^= 0x01
 13: 0x0063 [0x92] Abenzio (ID: 17752355/0x010EE123)->Render.Flags3 ^= 0x01
 14: 0x0069 [0x2F] Bryher (ID: 17752356/0x010EE124)->Render.Flags0 &= ~0x80000 // Bit 19
 15: 0x006F [0x4E] SET_ENTITY_HIDE_FLAG: Show Bryher (ID: 17752356/0x010EE124)
 16: 0x0075 [0x94] Bryher (ID: 17752356/0x010EE124)->Render.Flags3 ^= 0x01
 17: 0x007B [0x92] Bryher (ID: 17752356/0x010EE124)->Render.Flags3 ^= 0x01
 18: 0x0081 [0x2F] Camlin (ID: 17752357/0x010EE125)->Render.Flags0 &= ~0x80000 // Bit 19
 19: 0x0087 [0x4E] SET_ENTITY_HIDE_FLAG: Show Camlin (ID: 17752357/0x010EE125)
 20: 0x008D [0x94] Camlin (ID: 17752357/0x010EE125)->Render.Flags3 ^= 0x01
 21: 0x0093 [0x92] Camlin (ID: 17752357/0x010EE125)->Render.Flags3 ^= 0x01
 22: 0x0099 [0x2F] Darach (ID: 17752358/0x010EE126)->Render.Flags0 &= ~0x80000 // Bit 19
 23: 0x009F [0x4E] SET_ENTITY_HIDE_FLAG: Show Darach (ID: 17752358/0x010EE126)
 24: 0x00A5 [0x94] Darach (ID: 17752358/0x010EE126)->Render.Flags3 ^= 0x01
 25: 0x00AB [0x92] Darach (ID: 17752358/0x010EE126)->Render.Flags3 ^= 0x01
 26: 0x00B1 [0xBA] SET_ENTITY_POSITION(entity_id=Babban Ny Mheillea (ID: 17752353/0x010EE121), pos_x=59.073*, pos_z=205.735*, pos_y=-2.409*, direction=11.0°*)
 27: 0x00BE [0xBA] SET_ENTITY_POSITION(entity_id=Abenzio (ID: 17752355/0x010EE123), pos_x=56.524*, pos_z=209.245*, pos_y=-1.293*, direction=11.0°*)
 28: 0x00CB [0xBA] SET_ENTITY_POSITION(entity_id=Bryher (ID: 17752356/0x010EE124), pos_x=53.077*, pos_z=199.310*, pos_y=-1.453*, direction=11.0°*)
 29: 0x00D8 [0xBA] SET_ENTITY_POSITION(entity_id=Camlin (ID: 17752357/0x010EE125), pos_x=57.473*, pos_z=203.610*, pos_y=-2.208*, direction=11.0°*)
 30: 0x00E5 [0xBA] SET_ENTITY_POSITION(entity_id=Darach (ID: 17752358/0x010EE126), pos_x=55.059*, pos_z=205.642*, pos_y=-1.475*, direction=11.0°*)
 31: 0x00F2 [0xBA] SET_ENTITY_POSITION(entity_id=Unnamed NPC (ID: 17752361/0x010EE129), pos_x=55.059*, pos_z=205.642*, pos_y=-1.475*, direction=11.0°*)
 32: 0x00FF [0x33] EventEntity->Render.Flags0 &= ~ 0x200000 // Bit 21 (flag=0x00)
 33: 0x0101 [0x33] EventEntity->Render.Flags0 &= ~ 0x200000 // Bit 21 (flag=0x00)
 34: 0x0103 [0x33] EventEntity->Render.Flags0 &= ~ 0x200000 // Bit 21 (flag=0x00)
 35: 0x0105 [0x33] EventEntity->Render.Flags0 &= ~ 0x200000 // Bit 21 (flag=0x00)
 36: 0x0107 [0x33] EventEntity->Render.Flags0 &= ~ 0x200000 // Bit 21 (flag=0x00)
 37: 0x0109 [0x80] LOAD_WAIT(entity=Babban Ny Mheillea (ID: 17752353/0x010EE121))
 38: 0x010E [0x80] LOAD_WAIT(entity=Unnamed NPC (ID: 17752354/0x010EE122))
 39: 0x0113 [0x80] LOAD_WAIT(entity=Abenzio (ID: 17752355/0x010EE123))
 40: 0x0118 [0x80] LOAD_WAIT(entity=Bryher (ID: 17752356/0x010EE124))
 41: 0x011D [0x80] LOAD_WAIT(entity=Camlin (ID: 17752357/0x010EE125))
 42: 0x0122 [0x80] LOAD_WAIT(entity=Darach (ID: 17752358/0x010EE126))
 43: 0x0127 [0x1C] WAIT(75* ticks)
 44: 0x012A [0x00] END_REQSTACK()
```

### Event 65535.3

#### Metadata

| Field        | Value     |
|--------------|-----------|
| Entrypoint   | 0x012B    |
| Data Size    | 132 bytes |
| Instructions | 22        |

```
      00 01 02 03 04 05 06 07  08 09 0A 0B 0C 0D 0E 0F
      -- -- -- -- -- -- -- --  -- -- -- -- -- -- -- --
0120:                                   29 10 26 E1 0E             ).&..
0130: 01 03 1C 02 80 2F 00 26  E1 0E 01 4E 00 26 E1 0E  ...../.&...N.&..
0140: 01 94 01 26 E1 0E 01 BA  21 E1 0E 01 03 80 04 80  ...&....!.......
0150: 05 80 06 80 BA 23 E1 0E  01 14 80 15 80 16 80 06  .....#..........
0160: 80 BA 24 E1 0E 01 0A 80  0B 80 0C 80 06 80 BA 25  ..$............%
0170: E1 0E 01 0D 80 0E 80 0F  80 06 80 BA 26 E1 0E 01  ............&...
0180: 10 80 11 80 12 80 06 80  33 00 33 00 33 00 33 00  ........3.3.3.3.
0190: 33 00 80 21 E1 0E 01 80  23 E1 0E 01 80 24 E1 0E  3..!....#....$..
01A0: 01 80 25 E1 0E 01 80 26  E1 0E 01 1C 13 80 00     ..%....&....... 
```

#### Opcodes

```
  0: 0x012B [0x29] REQ_SET_WAIT(priority=0x10, entity_id=Darach (ID: 17752358/0x010EE126), tag_num=0x03)
  1: 0x0132 [0x1C] WAIT(60* ticks)
  2: 0x0135 [0x2F] Darach (ID: 17752358/0x010EE126)->Render.Flags0 &= ~0x80000 // Bit 19
  3: 0x013B [0x4E] SET_ENTITY_HIDE_FLAG: Show Darach (ID: 17752358/0x010EE126)
  4: 0x0141 [0x94] Darach (ID: 17752358/0x010EE126)->Render.Flags3 ^= 0x01
  5: 0x0147 [0xBA] SET_ENTITY_POSITION(entity_id=Babban Ny Mheillea (ID: 17752353/0x010EE121), pos_x=59.073*, pos_z=205.735*, pos_y=-2.409*, direction=11.0°*)
  6: 0x0154 [0xBA] SET_ENTITY_POSITION(entity_id=Abenzio (ID: 17752355/0x010EE123), pos_x=57.461*, pos_z=198.404*, pos_y=-2.391*, direction=11.0°*)
  7: 0x0161 [0xBA] SET_ENTITY_POSITION(entity_id=Bryher (ID: 17752356/0x010EE124), pos_x=53.077*, pos_z=199.310*, pos_y=-1.453*, direction=11.0°*)
  8: 0x016E [0xBA] SET_ENTITY_POSITION(entity_id=Camlin (ID: 17752357/0x010EE125), pos_x=57.473*, pos_z=203.610*, pos_y=-2.208*, direction=11.0°*)
  9: 0x017B [0xBA] SET_ENTITY_POSITION(entity_id=Darach (ID: 17752358/0x010EE126), pos_x=55.059*, pos_z=205.642*, pos_y=-1.475*, direction=11.0°*)
 10: 0x0188 [0x33] EventEntity->Render.Flags0 &= ~ 0x200000 // Bit 21 (flag=0x00)
 11: 0x018A [0x33] EventEntity->Render.Flags0 &= ~ 0x200000 // Bit 21 (flag=0x00)
 12: 0x018C [0x33] EventEntity->Render.Flags0 &= ~ 0x200000 // Bit 21 (flag=0x00)
 13: 0x018E [0x33] EventEntity->Render.Flags0 &= ~ 0x200000 // Bit 21 (flag=0x00)
 14: 0x0190 [0x33] EventEntity->Render.Flags0 &= ~ 0x200000 // Bit 21 (flag=0x00)
 15: 0x0192 [0x80] LOAD_WAIT(entity=Babban Ny Mheillea (ID: 17752353/0x010EE121))
 16: 0x0197 [0x80] LOAD_WAIT(entity=Abenzio (ID: 17752355/0x010EE123))
 17: 0x019C [0x80] LOAD_WAIT(entity=Bryher (ID: 17752356/0x010EE124))
 18: 0x01A1 [0x80] LOAD_WAIT(entity=Camlin (ID: 17752357/0x010EE125))
 19: 0x01A6 [0x80] LOAD_WAIT(entity=Darach (ID: 17752358/0x010EE126))
 20: 0x01AB [0x1C] WAIT(75* ticks)
 21: 0x01AE [0x00] END_REQSTACK()
```

### Event 65535.4

#### Metadata

| Field        | Value     |
|--------------|-----------|
| Entrypoint   | 0x01AF    |
| Data Size    | 138 bytes |
| Instructions | 22        |

```
      00 01 02 03 04 05 06 07  08 09 0A 0B 0C 0D 0E 0F
      -- -- -- -- -- -- -- --  -- -- -- -- -- -- -- --
01A0:                                               29                 )
01B0: 10 26 E1 0E 01 03 1C 02  80 33 00 BA 22 E1 0E 01  .&.......3.."...
01C0: 17 80 18 80 19 80 1A 80  6C 22 E1 0E 01 01 80 1B  ........l"......
01D0: 80 BA 21 E1 0E 01 1C 80  1D 80 19 80 1E 80 BA 23  ..!............#
01E0: E1 0E 01 1F 80 20 80 21  80 1E 80 BA 24 E1 0E 01  ..... .!....$...
01F0: 22 80 23 80 19 80 1E 80  BA 25 E1 0E 01 24 80 25  ".#......%...$.%
0200: 80 26 80 1E 80 BA 26 E1  0E 01 27 80 28 80 29 80  .&....&...'.(.).
0210: 2A 80 33 00 33 00 33 00  33 00 33 00 80 21 E1 0E  *.3.3.3.3.3..!..
0220: 01 80 23 E1 0E 01 80 24  E1 0E 01 80 25 E1 0E 01  ..#....$....%...
0230: 80 26 E1 0E 01 1C 13 80  00                       .&.......       
```

#### Opcodes

```
  0: 0x01AF [0x29] REQ_SET_WAIT(priority=0x10, entity_id=Darach (ID: 17752358/0x010EE126), tag_num=0x03)
  1: 0x01B6 [0x1C] WAIT(60* ticks)
  2: 0x01B9 [0x33] EventEntity->Render.Flags0 &= ~ 0x200000 // Bit 21 (flag=0x00)
  3: 0x01BB [0xBA] SET_ENTITY_POSITION(entity_id=Unnamed NPC (ID: 17752354/0x010EE122), pos_x=430.276*, pos_z=-4.344*, pos_y=-40.000*, direction=131.8°*)
  4: 0x01C8 [0x6C] FADE_ENTITY_COLOR(entity_id=Unnamed NPC (ID: 17752354/0x010EE122), end_alpha=0*, fade_time=1*)
  5: 0x01D1 [0xBA] SET_ENTITY_POSITION(entity_id=Babban Ny Mheillea (ID: 17752353/0x010EE121), pos_x=447.198*, pos_z=6.079*, pos_y=-40.000*, direction=167.0°*)
  6: 0x01DE [0xBA] SET_ENTITY_POSITION(entity_id=Abenzio (ID: 17752355/0x010EE123), pos_x=442.598*, pos_z=1.758*, pos_y=-40.277*, direction=167.0°*)
  7: 0x01EB [0xBA] SET_ENTITY_POSITION(entity_id=Bryher (ID: 17752356/0x010EE124), pos_x=444.208*, pos_z=10.778*, pos_y=-40.000*, direction=167.0°*)
  8: 0x01F8 [0xBA] SET_ENTITY_POSITION(entity_id=Camlin (ID: 17752357/0x010EE125), pos_x=456.918*, pos_z=17.641*, pos_y=-40.199*, direction=167.0°*)
  9: 0x0205 [0xBA] SET_ENTITY_POSITION(entity_id=Darach (ID: 17752358/0x010EE126), pos_x=441.571*, pos_z=-2.886*, pos_y=-40.105*, direction=193.4°*)
 10: 0x0212 [0x33] EventEntity->Render.Flags0 &= ~ 0x200000 // Bit 21 (flag=0x00)
 11: 0x0214 [0x33] EventEntity->Render.Flags0 &= ~ 0x200000 // Bit 21 (flag=0x00)
 12: 0x0216 [0x33] EventEntity->Render.Flags0 &= ~ 0x200000 // Bit 21 (flag=0x00)
 13: 0x0218 [0x33] EventEntity->Render.Flags0 &= ~ 0x200000 // Bit 21 (flag=0x00)
 14: 0x021A [0x33] EventEntity->Render.Flags0 &= ~ 0x200000 // Bit 21 (flag=0x00)
 15: 0x021C [0x80] LOAD_WAIT(entity=Babban Ny Mheillea (ID: 17752353/0x010EE121))
 16: 0x0221 [0x80] LOAD_WAIT(entity=Abenzio (ID: 17752355/0x010EE123))
 17: 0x0226 [0x80] LOAD_WAIT(entity=Bryher (ID: 17752356/0x010EE124))
 18: 0x022B [0x80] LOAD_WAIT(entity=Camlin (ID: 17752357/0x010EE125))
 19: 0x0230 [0x80] LOAD_WAIT(entity=Darach (ID: 17752358/0x010EE126))
 20: 0x0235 [0x1C] WAIT(75* ticks)
 21: 0x0238 [0x00] END_REQSTACK()
```

### Event 65535.5

#### Metadata

| Field        | Value     |
|--------------|-----------|
| Entrypoint   | 0x0239    |
| Data Size    | 210 bytes |
| Instructions | 33        |

```
      00 01 02 03 04 05 06 07  08 09 0A 0B 0C 0D 0E 0F
      -- -- -- -- -- -- -- --  -- -- -- -- -- -- -- --
0230:                             2F 00 2A E1 0E 01 4E           /.*...N
0240: 00 2A E1 0E 01 94 01 2A  E1 0E 01 92 01 2A E1 0E  .*.....*.....*..
0250: 01 BA 2A E1 0E 01 2B 80  2C 80 19 80 2D 80 33 00  ..*...+.,...-.3.
0260: 2F 00 21 E1 0E 01 4E 00  21 E1 0E 01 94 01 21 E1  /.!...N.!.....!.
0270: 0E 01 92 01 21 E1 0E 01  33 00 2F 00 27 E1 0E 01  ....!...3./.'...
0280: 4E 00 27 E1 0E 01 94 01  27 E1 0E 01 92 01 27 E1  N.'.....'.....'.
0290: 0E 01 BA 27 E1 0E 01 2E  80 2F 80 19 80 2D 80 33  ...'...../...-.3
02A0: 00 6C 27 E1 0E 01 01 80  1B 80 2F 00 28 E1 0E 01  .l'......./.(...
02B0: 4E 00 28 E1 0E 01 94 01  28 E1 0E 01 92 01 28 E1  N.(.....(.....(.
02C0: 0E 01 BA 28 E1 0E 01 30  80 31 80 19 80 2D 80 33  ...(...0.1...-.3
02D0: 00 6C 28 E1 0E 01 01 80  1B 80 2F 00 29 E1 0E 01  .l(......./.)...
02E0: 4E 00 29 E1 0E 01 94 01  29 E1 0E 01 92 01 29 E1  N.).....).....).
02F0: 0E 01 BA 29 E1 0E 01 32  80 33 80 19 80 34 80 33  ...)...2.3...4.3
0300: 00 6C 29 E1 0E 01 01 80  1B 80 00                 .l)........     
```

#### Opcodes

```
  0: 0x0239 [0x2F] Unnamed NPC (ID: 17752362/0x010EE12A)->Render.Flags0 &= ~0x80000 // Bit 19
  1: 0x023F [0x4E] SET_ENTITY_HIDE_FLAG: Show Unnamed NPC (ID: 17752362/0x010EE12A)
  2: 0x0245 [0x94] Unnamed NPC (ID: 17752362/0x010EE12A)->Render.Flags3 ^= 0x01
  3: 0x024B [0x92] Unnamed NPC (ID: 17752362/0x010EE12A)->Render.Flags3 ^= 0x01
  4: 0x0251 [0xBA] SET_ENTITY_POSITION(entity_id=Unnamed NPC (ID: 17752362/0x010EE12A), pos_x=428.024*, pos_z=-15.721*, pos_y=-40.000*, direction=314.4°*)
  5: 0x025E [0x33] EventEntity->Render.Flags0 &= ~ 0x200000 // Bit 21 (flag=0x00)
  6: 0x0260 [0x2F] Babban Ny Mheillea (ID: 17752353/0x010EE121)->Render.Flags0 &= ~0x80000 // Bit 19
  7: 0x0266 [0x4E] SET_ENTITY_HIDE_FLAG: Show Babban Ny Mheillea (ID: 17752353/0x010EE121)
  8: 0x026C [0x94] Babban Ny Mheillea (ID: 17752353/0x010EE121)->Render.Flags3 ^= 0x01
  9: 0x0272 [0x92] Babban Ny Mheillea (ID: 17752353/0x010EE121)->Render.Flags3 ^= 0x01
 10: 0x0278 [0x33] EventEntity->Render.Flags0 &= ~ 0x200000 // Bit 21 (flag=0x00)
 11: 0x027A [0x2F] Unnamed NPC (ID: 17752359/0x010EE127)->Render.Flags0 &= ~0x80000 // Bit 19
 12: 0x0280 [0x4E] SET_ENTITY_HIDE_FLAG: Show Unnamed NPC (ID: 17752359/0x010EE127)
 13: 0x0286 [0x94] Unnamed NPC (ID: 17752359/0x010EE127)->Render.Flags3 ^= 0x01
 14: 0x028C [0x92] Unnamed NPC (ID: 17752359/0x010EE127)->Render.Flags3 ^= 0x01
 15: 0x0292 [0xBA] SET_ENTITY_POSITION(entity_id=Unnamed NPC (ID: 17752359/0x010EE127), pos_x=439.464*, pos_z=-22.815*, pos_y=-40.000*, direction=314.4°*)
 16: 0x029F [0x33] EventEntity->Render.Flags0 &= ~ 0x200000 // Bit 21 (flag=0x00)
 17: 0x02A1 [0x6C] FADE_ENTITY_COLOR(entity_id=Unnamed NPC (ID: 17752359/0x010EE127), end_alpha=0*, fade_time=1*)
 18: 0x02AA [0x2F] Unnamed NPC (ID: 17752360/0x010EE128)->Render.Flags0 &= ~0x80000 // Bit 19
 19: 0x02B0 [0x4E] SET_ENTITY_HIDE_FLAG: Show Unnamed NPC (ID: 17752360/0x010EE128)
 20: 0x02B6 [0x94] Unnamed NPC (ID: 17752360/0x010EE128)->Render.Flags3 ^= 0x01
 21: 0x02BC [0x92] Unnamed NPC (ID: 17752360/0x010EE128)->Render.Flags3 ^= 0x01
 22: 0x02C2 [0xBA] SET_ENTITY_POSITION(entity_id=Unnamed NPC (ID: 17752360/0x010EE128), pos_x=446.278*, pos_z=-18.784*, pos_y=-40.000*, direction=314.4°*)
 23: 0x02CF [0x33] EventEntity->Render.Flags0 &= ~ 0x200000 // Bit 21 (flag=0x00)
 24: 0x02D1 [0x6C] FADE_ENTITY_COLOR(entity_id=Unnamed NPC (ID: 17752360/0x010EE128), end_alpha=0*, fade_time=1*)
 25: 0x02DA [0x2F] Unnamed NPC (ID: 17752361/0x010EE129)->Render.Flags0 &= ~0x80000 // Bit 19
 26: 0x02E0 [0x4E] SET_ENTITY_HIDE_FLAG: Show Unnamed NPC (ID: 17752361/0x010EE129)
 27: 0x02E6 [0x94] Unnamed NPC (ID: 17752361/0x010EE129)->Render.Flags3 ^= 0x01
 28: 0x02EC [0x92] Unnamed NPC (ID: 17752361/0x010EE129)->Render.Flags3 ^= 0x01
 29: 0x02F2 [0xBA] SET_ENTITY_POSITION(entity_id=Unnamed NPC (ID: 17752361/0x010EE129), pos_x=447.339*, pos_z=-14.652*, pos_y=-40.000*, direction=314.3°*)
 30: 0x02FF [0x33] EventEntity->Render.Flags0 &= ~ 0x200000 // Bit 21 (flag=0x00)
 31: 0x0301 [0x6C] FADE_ENTITY_COLOR(entity_id=Unnamed NPC (ID: 17752361/0x010EE129), end_alpha=0*, fade_time=1*)
 32: 0x030A [0x00] END_REQSTACK()
```
