# 17752117 - Moreno-Toeno

## Common Data

| Field            | Value                     |
|------------------|---------------------------|
| Zone             | Windurst Waters (ID: 238) |
| Block Size       | 5760 bytes                |
| Total Events     | 71                        |
| References Count | 132                       |

## List of Events

| Event ID                   | Entrypoint   |   Size |   Instructions |
|----------------------------|--------------|--------|----------------|
| [65535](#event-65535)      | 0x0000       |      1 |              1 |
| [65535.1](#event-655351)   | 0x0001       |     16 |              2 |
| [65535.2](#event-655352)   | 0x0011       |     22 |              4 |
| [65535.3](#event-655353)   | 0x0027       |     16 |              2 |
| [65535.4](#event-655354)   | 0x0037       |     14 |              2 |
| [65535.5](#event-655355)   | 0x0045       |     16 |              2 |
| [65535.6](#event-655356)   | 0x0055       |     14 |              2 |
| [65535.7](#event-655357)   | 0x0063       |     16 |              2 |
| [65535.8](#event-655358)   | 0x0073       |     14 |              2 |
| [65535.9](#event-655359)   | 0x0081       |     16 |              2 |
| [65535.10](#event-6553510) | 0x0091       |     14 |              2 |
| [65535.11](#event-6553511) | 0x009F       |     16 |              2 |
| [65535.12](#event-6553512) | 0x00AF       |     14 |              2 |
| [65535.13](#event-6553513) | 0x00BD       |     16 |              2 |
| [65535.14](#event-6553514) | 0x00CD       |     14 |              2 |
| [65535.15](#event-6553515) | 0x00DB       |     16 |              2 |
| [65535.16](#event-6553516) | 0x00EB       |     14 |              2 |
| [65535.17](#event-6553517) | 0x00F9       |     16 |              2 |
| [65535.18](#event-6553518) | 0x0109       |     14 |              2 |
| [65535.19](#event-6553519) | 0x0117       |     16 |              2 |
| [65535.20](#event-6553520) | 0x0127       |     22 |              4 |
| [65535.21](#event-6553521) | 0x013D       |      9 |              3 |
| [422](#event-422)          | 0x0146       |     56 |             20 |
| [182](#event-182)          | 0x017E       |    398 |             54 |
| [65535.22](#event-6553522) | 0x030C       |     41 |             11 |
| [65535.23](#event-6553523) | 0x0335       |     37 |              9 |
| [65535.24](#event-6553524) | 0x035A       |     16 |              6 |
| [65535.25](#event-6553525) | 0x036A       |      5 |              3 |
| [181](#event-181)          | 0x036F       |    401 |             54 |
| [65535.26](#event-6553526) | 0x0500       |     23 |              7 |
| [65535.27](#event-6553527) | 0x0517       |     19 |              5 |
| [687](#event-687)          | 0x052A       |    409 |             58 |
| [183](#event-183)          | 0x06C3       |     88 |             23 |
| [202](#event-202)          | 0x071B       |     34 |             13 |
| [203](#event-203)          | 0x073D       |     29 |             10 |
| [184](#event-184)          | 0x075A       |     60 |             10 |
| [198](#event-198)          | 0x0796       |     41 |             14 |
| [199](#event-199)          | 0x07BF       |     45 |             16 |
| [200](#event-200)          | 0x07EC       |     62 |             17 |
| [201](#event-201)          | 0x082A       |     62 |             17 |
| [204](#event-204)          | 0x0868       |     88 |             23 |
| [205](#event-205)          | 0x08C0       |    129 |             26 |
| [208](#event-208)          | 0x0941       |     37 |             14 |
| [209](#event-209)          | 0x0966       |     71 |             19 |
| [206](#event-206)          | 0x09AD       |     71 |             19 |
| [210](#event-210)          | 0x09F4       |     33 |             12 |
| [437](#event-437)          | 0x0A15       |     33 |             12 |
| [438](#event-438)          | 0x0A36       |     79 |             18 |
| [65535.28](#event-6553528) | 0x0A85       |     19 |              5 |
| [65535.29](#event-6553529) | 0x0A98       |      5 |              3 |
| [65535.30](#event-6553530) | 0x0A9D       |     23 |              7 |
| [65535.31](#event-6553531) | 0x0AB4       |      9 |              5 |
| [439](#event-439)          | 0x0ABD       |     29 |             10 |
| [440](#event-440)          | 0x0ADA       |     64 |             20 |
| [441](#event-441)          | 0x0B1A       |     37 |             14 |
| [469](#event-469)          | 0x0B3F       |     29 |             10 |
| [480](#event-480)          | 0x0B5C       |     28 |             10 |
| [65535.32](#event-6553532) | 0x0B78       |      5 |              3 |
| [65535.33](#event-6553533) | 0x0B7D       |     23 |              7 |
| [491](#event-491)          | 0x0B94       |     33 |             12 |
| [444](#event-444)          | 0x0BB5       |     33 |             12 |
| [752](#event-752)          | 0x0BD6       |   1161 |            157 |
| [753](#event-753)          | 0x105F       |     33 |             12 |
| [758](#event-758)          | 0x1080       |    589 |             79 |
| [65535.34](#event-6553534) | 0x12CD       |      5 |              3 |
| [65535.35](#event-6553535) | 0x12D2       |      5 |              3 |
| [65535.36](#event-6553536) | 0x12D7       |      5 |              3 |
| [65535.37](#event-6553537) | 0x12DC       |      5 |              3 |
| [65535.38](#event-6553538) | 0x12E1       |      5 |              3 |
| [759](#event-759)          | 0x12E6       |     47 |             14 |
| [544](#event-544)          | 0x1315       |     47 |             14 |

## DAT References (imed_data)

|   Index | Hex Value   |   Dec Value |
|---------|-------------|-------------|
|       0 | 0x0028      |          40 |
|       1 | 0x001E      |          30 |
|       2 | 0x002A      |          42 |
|       3 | 0x0029      |          41 |
|       4 | 0x0001      |           1 |
|       5 | 0x2582      |        9602 |
|       6 | 0x2583      |        9603 |
|       7 | 0x208F      |        8335 |
|       8 | 0x2090      |        8336 |
|       9 | 0x2091      |        8337 |
|      10 | 0x00C8      |         200 |
|      11 | 0x0000      |           0 |
|      12 | 0x003C      |          60 |
|      13 | 0x018F      |         399 |
|      14 | 0x0003      |           3 |
|      15 | 0x008A      |         138 |
|      16 | 0x1E3B      |        7739 |
|      17 | 0x0002      |           2 |
|      18 | 0x1E3C      |        7740 |
|      19 | 0x1E3D      |        7741 |
|      20 | 0x0050      |          80 |
|      21 | 0x012C      |         300 |
|      22 | 0x1E33      |        7731 |
|      23 | 0x1E34      |        7732 |
|      24 | 0x1E35      |        7733 |
|      25 | 0x1E36      |        7734 |
|      26 | 0x1E37      |        7735 |
|      27 | 0x1E38      |        7736 |
|      28 | 0x1E39      |        7737 |
|      29 | 0x1E3A      |        7738 |
|      30 | 0x1E30      |        7728 |
|      31 | 0x1E31      |        7729 |
|      32 | 0x1E32      |        7730 |
|      33 | 0x1E65      |        7781 |
|      34 | 0x1E66      |        7782 |
|      35 | 0x000C      |          12 |
|      36 | 0x1E3E      |        7742 |
|      37 | 0x1E3F      |        7743 |
|      38 | 0x1E41      |        7745 |
|      39 | 0x1E40      |        7744 |
|      40 | 0x1E62      |        7778 |
|      41 | 0x1E63      |        7779 |
|      42 | 0x1E64      |        7780 |
|      43 | 0x1E42      |        7746 |
|      44 | 0x0078      |         120 |
|      45 | 0x1E56      |        7766 |
|      46 | 0x1E57      |        7767 |
|      47 | 0x1E59      |        7769 |
|      48 | 0x1E5A      |        7770 |
|      49 | 0x1E5C      |        7772 |
|      50 | 0x1E5D      |        7773 |
|      51 | 0x1E5E      |        7774 |
|      52 | 0x00C9      |         201 |
|      53 | 0x1E5F      |        7775 |
|      54 | 0x1E60      |        7776 |
|      55 | 0x1E61      |        7777 |
|      56 | 0x1E68      |        7784 |
|      57 | 0x1E67      |        7783 |
|      58 | 0x23BC      |        9148 |
|      59 | 0x0013      |          19 |
|      60 | 0x0007      |           7 |
|      61 | 0x0031      |          49 |
|      62 | 0x0008      |           8 |
|      63 | 0x0009      |           9 |
|      64 | 0x1E6A      |        7786 |
|      65 | 0x1E6B      |        7787 |
|      66 | 0x1E6C      |        7788 |
|      67 | 0x1E6D      |        7789 |
|      68 | 0x1E6E      |        7790 |
|      69 | 0x1E6F      |        7791 |
|      70 | 0x1E70      |        7792 |
|      71 | 0x20AC      |        8364 |
|      72 | 0x20AD      |        8365 |
|      73 | 0x20AF      |        8367 |
|      74 | 0x20AE      |        8366 |
|      75 | 0x20B0      |        8368 |
|      76 | 0x20B1      |        8369 |
|      77 | 0x20B2      |        8370 |
|      78 | 0x20B3      |        8371 |
|      79 | 0x20B4      |        8372 |
|      80 | 0x20B5      |        8373 |
|      81 | 0x20B6      |        8374 |
|      82 | 0x20B7      |        8375 |
|      83 | 0x2580      |        9600 |
|      84 | 0x2581      |        9601 |
|      85 | 0x1998      |        6552 |
|      86 | 0x20B8      |        8376 |
|      87 | 0x20B9      |        8377 |
|      88 | 0x20BA      |        8378 |
|      89 | 0x20FD      |        8445 |
|      90 | 0x210E      |        8462 |
|      91 | 0x210F      |        8463 |
|      92 | 0x2110      |        8464 |
|      93 | 0x2124      |        8484 |
|      94 | 0x2125      |        8485 |
|      95 | 0x20C4      |        8388 |
|      96 | 0x20C5      |        8389 |
|      97 | 0x00A3      |         163 |
|      98 | 0x007F      |         127 |
|      99 | 0x0064      |         100 |
|     100 | 0x2629      |        9769 |
|     101 | 0x262A      |        9770 |
|     102 | 0x262B      |        9771 |
|     103 | 0x00D3      |         211 |
|     104 | 0x09E5      |        2533 |
|     105 | 0x262C      |        9772 |
|     106 | 0x0004      |           4 |
|     107 | 0x262D      |        9773 |
|     108 | 0x262E      |        9774 |
|     109 | 0x262F      |        9775 |
|     110 | 0x2630      |        9776 |
|     111 | 0x2631      |        9777 |
|     112 | 0x2632      |        9778 |
|     113 | 0x2633      |        9779 |
|     114 | 0x2634      |        9780 |
|     115 | 0x2635      |        9781 |
|     116 | 0x2636      |        9782 |
|     117 | 0x2637      |        9783 |
|     118 | 0x0097      |         151 |
|     119 | 0x00A0      |         160 |
|     120 | 0x2638      |        9784 |
|     121 | 0x2639      |        9785 |
|     122 | 0x2646      |        9798 |
|     123 | 0x2642      |        9794 |
|     124 | 0x2643      |        9795 |
|     125 | 0x2644      |        9796 |
|     126 | 0x2645      |        9797 |
|     127 | 0x2647      |        9799 |
|     128 | 0x2648      |        9800 |
|     129 | 0x2649      |        9801 |
|     130 | 0x2231      |        8753 |
|     131 | 0x2232      |        8754 |

## String References

- **6552**: Obtained $0 gil.
- **7728**: You actually accepted the Aurastery's skills exam assignment again? The best of luck this time too, then.
- **7729**: You remember the errand, I recall, but let me rapidly reiterate to be real sure...
- **7730**: We're setting up a skills test for our school's students to see how many monsters they can slay.
- **7731**: Are you the adventurer who accepted the Aurastery's ardent assignment? Excellent! We were excitedly expecting you.
- **7732**: The School of Magic is setting up a skills test to see how many monsters the students of the advanced class can slay.
- **7733**: We applied for an able adventurer to assist us in arranging our skills exam, all right?
- **7734**: You're expecting an elementary exam, except at the School of Magic it is an enormous event that affects the educatees' enlightened existence and so we extoll excruciating exactness.
- **7735**: First, fine friend, find out how ferociously fierce the foes are in the field where the skills test is being formulated.
- **7736**: Carry this charmed doll to Tahrongi Canyon, can you? My magic mannequin will memorize how many monsters you maim there.
- **7737**: The doll's enchantment expires at the end of one day. Once the wizardly works wear off it's worthless... So kindly come back quick.
- **7738**: I'll immediately magick my miniature marionette. I presume you are punctually prepared?
- **7739**: Ready already? [Roger, Roger!/Naysay, nay!]
- **7740**: Incantation incorporated. Godspeed and Goddess bless!
- **7741**: ...Return when you're arranged, not deranged.
- **7742**: See how many monsters you may maim in Tahrongi Canyon, can you? The counting charm cast on the magic doll disappears in a day. Better be back by then!
- **7743**: The skills test will be performed in threes, pertaining it's particularly preferable to appropriate a party with experienced explorers.
- **7744**: Wow...I avow it's now $1! So, lo, $2 [hour/hours] to go. Sublime! You've plenty of time till the chime.
- **7745**: Gee, I see it after $1 be. Fussed! There's just $2 [hour/hours] to bust. Get along there! Not much longer to the gong, hear?
- **7746**: Blast... It's at last past $1. I'm bereft there's only $2 [hour/hours] left. Your time's as good as up I see, so return the magic doll to me.
- **7766**: Reckoning your recorded results...
- **7767**: Mysterious! My magic doll must be mucking up...? Current calculations confirm you only defeated $3 monsters in the duration of a day.
- **7769**: Current calculations conclude you conquered $3 creatures in the continuance of a day.
- **7770**: Oh so so-so! <Sigh>...Why, if you were my spry student, you'd only obtain the order of 55 points, pushing it to pass!
- **7772**: Current calculations conclude you conquered $3 creatures in the continuance of a day.
- **7773**: That implies a passing grade of precisely 85 points, I presume.
- **7774**: Well then, the next treacherous terrain to try will be the Buburimu Peninsula, I bet. But still, that will have to wait till we've time to kill. Then that's all, thanks.
- **7775**: Current calculations conclude you conquered $3 creatures in the continuance of a day.
- **7776**: That's high higher than I had hoped. Well, it wasn't worth worrying with the talk that the monsters have grown potently more powerful lately.
- **7777**: The next treacherous terrain to try will be the Buburimu Peninsula, I proceed to presume. But still, that will wait till we've time to kill. Then that's all forthwith, thank thee.
- **7778**: Oh, you overtly overdid it, I say! The wizardly works have wasted away on our magic doll today.
- **7779**: So sad, but too bad... S'pose you'll simply have to start over from scratch...
- **7780**: Attempt it again after you've, say, significantly strengthened your skills some, eh? Sorry, but against all ambition, I'm failing you on my magician's mission.
- **7781**: This time, try to maim as many monsters as you may in the insular Buburimu Peninsula today.
- **7782**: The charming charm cast on the magic doll disappears in two days. So come back quick before the wizardly works wear off once more.
- **7783**: Wow...I avow it's now $5! So, lo, $6 [hour/hours] to go. Sublime! You've plenty of time till the chime.
- **7784**: Gee, I see it after $5 be. Fussed! There's just $6 [hour/hours] to bust. Get along there! Not much longer till the gong, hear?
- **7786**: Merci... But, hmm, my, how mighty mysterious!? My magic doll must've gone amuck...?
- **7787**: My meticulous math maintains you maimed a mere $3 monsters in two miserable days. Ah, how abominably atrocious!
- **7788**: Attempt it again after you've, say, strengthened your skills some, okay? Sorry, but against all ambition, I'm failing you on the commissioned mission...
- **7789**: My diligent determinations declare you defeated $3 despicable deed-doers during the duration of dual days!
- **7790**: Rah-rah! Rather well run there! We'll refer to your results record, sure I am, when we replan our next skills exam!
- **7791**: We'll give you word when we hold the test, which you're always welcome to watch!
- **7792**: My meticulous math maintains you massacred $3 monsters in a matter of days. Ah, you actually are an amazingly able adventurer!
- **8335**: This semester's students, you see, differ tremendously in ability. It's a pretty perplexing problem!
- **8336**: Aim at the able adolescent, and the late-learners are left lagging.
- **8337**: Lower the level and lo...the superiority and selectness of the students this school sends out suffer. How my haggard head hurts!
- **8364**: Hey, how dare you there! You mustn't touch my teaching materials!
- **8365**: Huff! I don't have enough stuff as it is. Fumble-mumble-grumble...
- **8366**: Hey, you'll do! Can I ask you to do a tiny task, too?
- **8367**: Hear his humble mumble? [Listlessly listen./Downright decline.]
- **8368**: Please part promptly. Dumbly dawdling there is damned distracting!
- **8369**: I lack the indispensable items essential for my important lesson!
- **8370**: Seems the sum of students is the same, but the number of them making mistakes has multiplied. The level of the little learners lowers every year lately...
- **8371**: Anyway, attempt to acquire $1 and $2.
- **8372**: Actually, acquiring $2 is amazingly arduous. But I best beg and beseech you, then bid you bye-bye!
- **8373**: Obtain one $1 and one $2 or I'll obstinately run out of replacements.
- **8374**: At last I can conduct a comely class!
- **8375**: Right...regarding your reward... Sorry it's not so stately a sum, but some is better than none...
- **8376**: This semester's students, you will see, differ tremendously in capability. It's a pretty perplexing problem!
- **8377**: Aim at the able adolescent and the late-learners are left lagging.
- **8378**: Lower the level and lo...the superiority and selectness of the students this school sends out suffers. How my haggard head hurts!
- **8388**: What kind of person would pilfer Ms. Fuepepe's papers?
- **8389**: What would anyone want with them?
- **8445**: Our horticultural homework is required for the runts to realize the Rhinostery's remarkable role. Plus, it helps us pick which pupils have a particular talent in that area for recommendation to the Rhinostery.
- **8462**: I assume it's not appropriate to articulate this at an adventurer such as yourself, but...
- **8463**: Lately there's a lamentable lad who asks adventurers to arrange his homework for him. He worries me greatly!
- **8464**: If one overly relies on others, then when there isn't anyone around to assist you, you run aground! One needs to stand on one's own two feet.
- **8484**: An accident occurring during a precarious practical at the Orastery's Mage Academy? This is true? Tsk, that's terrible! For one of our students to be so capriciously careless...
- **8485**: A teacher must take trouble to be true to their task. Sounds like some seriously slack supervision! That's through and through, one of Mr. Pechiru-Mashiru's lessons for you...
- **8753**: Principal Koru-Moru is searching for a scholar knowledgeable in the art of Alchemy, eh? Still the dilly-dallier, I see...
- **8754**: I wonder if he's seriously considering studying something so sinister as Alchemy? If so, he's not setting a good example for his students, is he, eh?
- **9148**: Blast... It's past $5 at last. I'm bereft there's less than $6 [hour/hours] left. Your time's as good as up I see, so return the magic doll to me.
- **9600**: If you pursue the procurement of additional $1 and $2, please proceed here posthaste!
- **9601**: Our prompt payment will be a pleasant perk!
- **9602**: Perchance, if you pursue the procurement of additional $1 and $2, please proceed here posthaste!
- **9603**: Our prompt payment will be a pleasant perk!
- **9769**: Sorry to keep you waiting. I guess you must be the gallant who got our mission at the gatehouse.
- **9770**: Are you acquainted with the amazing academic who administers our School of Magic?
- **9771**: Acquainted with the amazing academic? [Absolutely!/Actually, no.]
- **9772**: [Ah, so you've met/I'm sure you've met] Professor Koru-Moru. As you are assuredly aware, Professor Koru-Moru rarely roams from his residence in Windurst Walls... He barely bothers with the barest bones of his principal business...
- **9773**: Four years ago, he took a rest from his responsible role. During that time, the person who took his tenure had the title of Sedal-Godjal.
- **9774**: With his dynamic endurance and diligent deductions, Sedal-Godjal was a marvelous nominee for Minister of the Aurastery.
- **9775**: However, for some reason, he eloped and left us in the lurch. We put Professor Koru-Moru back in the position of principal, and now you perceive our present predicament.
- **9776**: For three long years our lecturers have lived with the lack of a leader and luckily allayed any alarming eventualities. But if we continue to conduct our school on this course, I am concerned it will conflict with the cultivation of our students.
- **9777**: This is where you come in. I supplicate you to search the span of Vana'diel, and bring back Sedal-Godjal.
- **9778**: Our elusive educator was equipped with $6. This "Star Seeker" should come in handy.
- **9779**: Professor Koru-Moru called for the construction of this Star Seeker in case the location of the principal's ring became obfuscated. It can sniff out the power of the stars and the moon infused in the ring.
- **9780**: When the professor was young and careless, he used it to search for the ring whenever he misplaced it.
- **9781**: The Star Seeker will suddenly start speaking, so be sure not to let its spiel slip by you.
- **9782**: Stand by. Power on!
- **9784**: Use the magic doll you have been given to follow the magical emanations of the principal's ring and track down our wayward Mr. Sedal-Godjal.
- **9785**: Don't forget the Star Seeker will suddenly start speaking, so be sure not to let its spiel slip by you.
- **9794**: Ah! Have you sniffed out the slippery Sedal-Godjal?
- **9795**: ...I see. So that's why he gave up the principal position at the Aurastery and parted for parts unknown.
- **9796**: Of course, it's still unforgivable! However, since he seems to be regretting his actions and can't actually move from where he is, I guess we have to leave it at that.
- **9797**: Now, please return the magic doll.
- **9798**: ...Excuse me? You declare that the doll once gave you deceitful directions?
- **9799**: That's strange. It was thoroughly tested before I entrusted it to you. The easiest explanation is that the doll sensed an emanation of energy exceeding that of the ring.
- **9800**: In closing, there is the case of Mojiji... With the sudden cessation of Mojiji's correspondence, Professor Koru-Moru slid into an unsettling slump.
- **9801**: Let me just say that some of us struck on the same solution as sly old Sedal-Godjal...

## Events

### Event 65535

#### Metadata

| Field        | Value   |
|--------------|---------|
| Entrypoint   | 0x0000  |
| Data Size    | 1 bytes |
| Instructions | 1       |

```
      00 01 02 03 04 05 06 07  08 09 0A 0B 0C 0D 0E 0F
      -- -- -- -- -- -- -- --  -- -- -- -- -- -- -- --
0000: 00                                                .               
```

#### Opcodes

```
  0: 0x0000 [0x00] END_REQSTACK()
```

### Event 65535.1

#### Metadata

| Field        | Value    |
|--------------|----------|
| Entrypoint   | 0x0001   |
| Data Size    | 16 bytes |
| Instructions | 2        |

```
      00 01 02 03 04 05 06 07  08 09 0A 0B 0C 0D 0E 0F
      -- -- -- -- -- -- -- --  -- -- -- -- -- -- -- --
0000:    66 00 80 F8 FF FF 7F  F8 FF FF 7F 74 6C 6B 30   f..........tlk0
0010: 00                                                .               
```

#### Opcodes

```
  0: 0x0001 [0x66] LOAD_EXT_SCHEDULER_MAIN: Load scheduler "tlk0" with entities [EventEntity, EventEntity], work=40*
  1: 0x0010 [0x00] END_REQSTACK()
```

### Event 65535.2

#### Metadata

| Field        | Value    |
|--------------|----------|
| Entrypoint   | 0x0011   |
| Data Size    | 22 bytes |
| Instructions | 4        |

```
      00 01 02 03 04 05 06 07  08 09 0A 0B 0C 0D 0E 0F
      -- -- -- -- -- -- -- --  -- -- -- -- -- -- -- --
0010:    53 F8 FF FF 7F F8 FF  FF 7F 74 6C 6B 30 5E 69   S........tlk0^i
0020: 64 6C 30 1C 01 80 00                              dl0....         
```

#### Opcodes

```
  0: 0x0011 [0x53] WAIT_SCHEDULER_TASK: Wait for scheduler "tlk0" with entities [EventEntity, EventEntity]
  1: 0x001E [0x5E] EventEntity goes idle (kills current action) (animation: "idl0")
  2: 0x0023 [0x1C] WAIT(30* ticks)
  3: 0x0026 [0x00] END_REQSTACK()
```

### Event 65535.3

#### Metadata

| Field        | Value    |
|--------------|----------|
| Entrypoint   | 0x0027   |
| Data Size    | 16 bytes |
| Instructions | 2        |

```
      00 01 02 03 04 05 06 07  08 09 0A 0B 0C 0D 0E 0F
      -- -- -- -- -- -- -- --  -- -- -- -- -- -- -- --
0020:                      66  00 80 F8 FF FF 7F F8 FF         f........
0030: FF 7F 74 68 6B 31 00                              ..thk1.         
```

#### Opcodes

```
  0: 0x0027 [0x66] LOAD_EXT_SCHEDULER_MAIN: Load scheduler "thk1" with entities [EventEntity, EventEntity], work=40*
  1: 0x0036 [0x00] END_REQSTACK()
```

### Event 65535.4

#### Metadata

| Field        | Value    |
|--------------|----------|
| Entrypoint   | 0x0037   |
| Data Size    | 14 bytes |
| Instructions | 2        |

```
      00 01 02 03 04 05 06 07  08 09 0A 0B 0C 0D 0E 0F
      -- -- -- -- -- -- -- --  -- -- -- -- -- -- -- --
0030:                      53  F8 FF FF 7F F8 FF FF 7F         S........
0040: 74 68 6B 31 00                                    thk1.           
```

#### Opcodes

```
  0: 0x0037 [0x53] WAIT_SCHEDULER_TASK: Wait for scheduler "thk1" with entities [EventEntity, EventEntity]
  1: 0x0044 [0x00] END_REQSTACK()
```

### Event 65535.5

#### Metadata

| Field        | Value    |
|--------------|----------|
| Entrypoint   | 0x0045   |
| Data Size    | 16 bytes |
| Instructions | 2        |

```
      00 01 02 03 04 05 06 07  08 09 0A 0B 0C 0D 0E 0F
      -- -- -- -- -- -- -- --  -- -- -- -- -- -- -- --
0040:                66 00 80  F8 FF FF 7F F8 FF FF 7F       f..........
0050: 74 68 6B 32 00                                    thk2.           
```

#### Opcodes

```
  0: 0x0045 [0x66] LOAD_EXT_SCHEDULER_MAIN: Load scheduler "thk2" with entities [EventEntity, EventEntity], work=40*
  1: 0x0054 [0x00] END_REQSTACK()
```

### Event 65535.6

#### Metadata

| Field        | Value    |
|--------------|----------|
| Entrypoint   | 0x0055   |
| Data Size    | 14 bytes |
| Instructions | 2        |

```
      00 01 02 03 04 05 06 07  08 09 0A 0B 0C 0D 0E 0F
      -- -- -- -- -- -- -- --  -- -- -- -- -- -- -- --
0050:                53 F8 FF  FF 7F F8 FF FF 7F 74 68       S........th
0060: 6B 31 00                                          k1.             
```

#### Opcodes

```
  0: 0x0055 [0x53] WAIT_SCHEDULER_TASK: Wait for scheduler "thk1" with entities [EventEntity, EventEntity]
  1: 0x0062 [0x00] END_REQSTACK()
```

### Event 65535.7

#### Metadata

| Field        | Value    |
|--------------|----------|
| Entrypoint   | 0x0063   |
| Data Size    | 16 bytes |
| Instructions | 2        |

```
      00 01 02 03 04 05 06 07  08 09 0A 0B 0C 0D 0E 0F
      -- -- -- -- -- -- -- --  -- -- -- -- -- -- -- --
0060:          66 00 80 F8 FF  FF 7F F8 FF FF 7F 69 72     f..........ir
0070: 6F 30 00                                          o0.             
```

#### Opcodes

```
  0: 0x0063 [0x66] LOAD_EXT_SCHEDULER_MAIN: Load scheduler "iro0" with entities [EventEntity, EventEntity], work=40*
  1: 0x0072 [0x00] END_REQSTACK()
```

### Event 65535.8

#### Metadata

| Field        | Value    |
|--------------|----------|
| Entrypoint   | 0x0073   |
| Data Size    | 14 bytes |
| Instructions | 2        |

```
      00 01 02 03 04 05 06 07  08 09 0A 0B 0C 0D 0E 0F
      -- -- -- -- -- -- -- --  -- -- -- -- -- -- -- --
0070:          53 F8 FF FF 7F  F8 FF FF 7F 69 72 6F 30     S........iro0
0080: 00                                                .               
```

#### Opcodes

```
  0: 0x0073 [0x53] WAIT_SCHEDULER_TASK: Wait for scheduler "iro0" with entities [EventEntity, EventEntity]
  1: 0x0080 [0x00] END_REQSTACK()
```

### Event 65535.9

#### Metadata

| Field        | Value    |
|--------------|----------|
| Entrypoint   | 0x0081   |
| Data Size    | 16 bytes |
| Instructions | 2        |

```
      00 01 02 03 04 05 06 07  08 09 0A 0B 0C 0D 0E 0F
      -- -- -- -- -- -- -- --  -- -- -- -- -- -- -- --
0080:    66 02 80 F8 FF FF 7F  F8 FF FF 7F 64 6F 6C 30   f..........dol0
0090: 00                                                .               
```

#### Opcodes

```
  0: 0x0081 [0x66] LOAD_EXT_SCHEDULER_MAIN: Load scheduler "dol0" with entities [EventEntity, EventEntity], work=42*
  1: 0x0090 [0x00] END_REQSTACK()
```

### Event 65535.10

#### Metadata

| Field        | Value    |
|--------------|----------|
| Entrypoint   | 0x0091   |
| Data Size    | 14 bytes |
| Instructions | 2        |

```
      00 01 02 03 04 05 06 07  08 09 0A 0B 0C 0D 0E 0F
      -- -- -- -- -- -- -- --  -- -- -- -- -- -- -- --
0090:    53 F8 FF FF 7F F8 FF  FF 7F 64 6F 6C 30 00      S........dol0. 
```

#### Opcodes

```
  0: 0x0091 [0x53] WAIT_SCHEDULER_TASK: Wait for scheduler "dol0" with entities [EventEntity, EventEntity]
  1: 0x009E [0x00] END_REQSTACK()
```

### Event 65535.11

#### Metadata

| Field        | Value    |
|--------------|----------|
| Entrypoint   | 0x009F   |
| Data Size    | 16 bytes |
| Instructions | 2        |

```
      00 01 02 03 04 05 06 07  08 09 0A 0B 0C 0D 0E 0F
      -- -- -- -- -- -- -- --  -- -- -- -- -- -- -- --
0090:                                               66                 f
00A0: 02 80 F8 FF FF 7F F8 FF  FF 7F 64 6F 6C 31 00     ..........dol1. 
```

#### Opcodes

```
  0: 0x009F [0x66] LOAD_EXT_SCHEDULER_MAIN: Load scheduler "dol1" with entities [EventEntity, EventEntity], work=42*
  1: 0x00AE [0x00] END_REQSTACK()
```

### Event 65535.12

#### Metadata

| Field        | Value    |
|--------------|----------|
| Entrypoint   | 0x00AF   |
| Data Size    | 14 bytes |
| Instructions | 2        |

```
      00 01 02 03 04 05 06 07  08 09 0A 0B 0C 0D 0E 0F
      -- -- -- -- -- -- -- --  -- -- -- -- -- -- -- --
00A0:                                               53                 S
00B0: F8 FF FF 7F F8 FF FF 7F  64 6F 6C 31 00           ........dol1.   
```

#### Opcodes

```
  0: 0x00AF [0x53] WAIT_SCHEDULER_TASK: Wait for scheduler "dol1" with entities [EventEntity, EventEntity]
  1: 0x00BC [0x00] END_REQSTACK()
```

### Event 65535.13

#### Metadata

| Field        | Value    |
|--------------|----------|
| Entrypoint   | 0x00BD   |
| Data Size    | 16 bytes |
| Instructions | 2        |

```
      00 01 02 03 04 05 06 07  08 09 0A 0B 0C 0D 0E 0F
      -- -- -- -- -- -- -- --  -- -- -- -- -- -- -- --
00B0:                                         66 00 80               f..
00C0: F8 FF FF 7F F8 FF FF 7F  64 69 73 30 00           ........dis0.   
```

#### Opcodes

```
  0: 0x00BD [0x66] LOAD_EXT_SCHEDULER_MAIN: Load scheduler "dis0" with entities [EventEntity, EventEntity], work=40*
  1: 0x00CC [0x00] END_REQSTACK()
```

### Event 65535.14

#### Metadata

| Field        | Value    |
|--------------|----------|
| Entrypoint   | 0x00CD   |
| Data Size    | 14 bytes |
| Instructions | 2        |

```
      00 01 02 03 04 05 06 07  08 09 0A 0B 0C 0D 0E 0F
      -- -- -- -- -- -- -- --  -- -- -- -- -- -- -- --
00C0:                                         53 F8 FF               S..
00D0: FF 7F F8 FF FF 7F 64 69  73 30 00                 ......dis0.     
```

#### Opcodes

```
  0: 0x00CD [0x53] WAIT_SCHEDULER_TASK: Wait for scheduler "dis0" with entities [EventEntity, EventEntity]
  1: 0x00DA [0x00] END_REQSTACK()
```

### Event 65535.15

#### Metadata

| Field        | Value    |
|--------------|----------|
| Entrypoint   | 0x00DB   |
| Data Size    | 16 bytes |
| Instructions | 2        |

```
      00 01 02 03 04 05 06 07  08 09 0A 0B 0C 0D 0E 0F
      -- -- -- -- -- -- -- --  -- -- -- -- -- -- -- --
00D0:                                   66 03 80 F8 FF             f....
00E0: FF 7F F8 FF FF 7F 73 68  6B 30 00                 ......shk0.     
```

#### Opcodes

```
  0: 0x00DB [0x66] LOAD_EXT_SCHEDULER_MAIN: Load scheduler "shk0" with entities [EventEntity, EventEntity], work=41*
  1: 0x00EA [0x00] END_REQSTACK()
```

### Event 65535.16

#### Metadata

| Field        | Value    |
|--------------|----------|
| Entrypoint   | 0x00EB   |
| Data Size    | 14 bytes |
| Instructions | 2        |

```
      00 01 02 03 04 05 06 07  08 09 0A 0B 0C 0D 0E 0F
      -- -- -- -- -- -- -- --  -- -- -- -- -- -- -- --
00E0:                                   53 F8 FF FF 7F             S....
00F0: F8 FF FF 7F 73 68 6B 30  00                       ....shk0.       
```

#### Opcodes

```
  0: 0x00EB [0x53] WAIT_SCHEDULER_TASK: Wait for scheduler "shk0" with entities [EventEntity, EventEntity]
  1: 0x00F8 [0x00] END_REQSTACK()
```

### Event 65535.17

#### Metadata

| Field        | Value    |
|--------------|----------|
| Entrypoint   | 0x00F9   |
| Data Size    | 16 bytes |
| Instructions | 2        |

```
      00 01 02 03 04 05 06 07  08 09 0A 0B 0C 0D 0E 0F
      -- -- -- -- -- -- -- --  -- -- -- -- -- -- -- --
00F0:                             66 00 80 F8 FF FF 7F           f......
0100: F8 FF FF 7F 70 6F 69 30  00                       ....poi0.       
```

#### Opcodes

```
  0: 0x00F9 [0x66] LOAD_EXT_SCHEDULER_MAIN: Load scheduler "poi0" with entities [EventEntity, EventEntity], work=40*
  1: 0x0108 [0x00] END_REQSTACK()
```

### Event 65535.18

#### Metadata

| Field        | Value    |
|--------------|----------|
| Entrypoint   | 0x0109   |
| Data Size    | 14 bytes |
| Instructions | 2        |

```
      00 01 02 03 04 05 06 07  08 09 0A 0B 0C 0D 0E 0F
      -- -- -- -- -- -- -- --  -- -- -- -- -- -- -- --
0100:                             53 F8 FF FF 7F F8 FF           S......
0110: FF 7F 70 6F 69 30 00                              ..poi0.         
```

#### Opcodes

```
  0: 0x0109 [0x53] WAIT_SCHEDULER_TASK: Wait for scheduler "poi0" with entities [EventEntity, EventEntity]
  1: 0x0116 [0x00] END_REQSTACK()
```

### Event 65535.19

#### Metadata

| Field        | Value    |
|--------------|----------|
| Entrypoint   | 0x0117   |
| Data Size    | 16 bytes |
| Instructions | 2        |

```
      00 01 02 03 04 05 06 07  08 09 0A 0B 0C 0D 0E 0F
      -- -- -- -- -- -- -- --  -- -- -- -- -- -- -- --
0110:                      66  00 80 F8 FF FF 7F F8 FF         f........
0120: FF 7F 67 6B 72 30 00                              ..gkr0.         
```

#### Opcodes

```
  0: 0x0117 [0x66] LOAD_EXT_SCHEDULER_MAIN: Load scheduler "gkr0" with entities [EventEntity, EventEntity], work=40*
  1: 0x0126 [0x00] END_REQSTACK()
```

### Event 65535.20

#### Metadata

| Field        | Value    |
|--------------|----------|
| Entrypoint   | 0x0127   |
| Data Size    | 22 bytes |
| Instructions | 4        |

```
      00 01 02 03 04 05 06 07  08 09 0A 0B 0C 0D 0E 0F
      -- -- -- -- -- -- -- --  -- -- -- -- -- -- -- --
0120:                      53  F8 FF FF 7F F8 FF FF 7F         S........
0130: 67 6B 72 30 5E 69 64 6C  30 1C 01 80 00           gkr0^idl0....   
```

#### Opcodes

```
  0: 0x0127 [0x53] WAIT_SCHEDULER_TASK: Wait for scheduler "gkr0" with entities [EventEntity, EventEntity]
  1: 0x0134 [0x5E] EventEntity goes idle (kills current action) (animation: "idl0")
  2: 0x0139 [0x1C] WAIT(30* ticks)
  3: 0x013C [0x00] END_REQSTACK()
```

### Event 65535.21

#### Metadata

| Field        | Value   |
|--------------|---------|
| Entrypoint   | 0x013D  |
| Data Size    | 9 bytes |
| Instructions | 3       |

```
      00 01 02 03 04 05 06 07  08 09 0A 0B 0C 0D 0E 0F
      -- -- -- -- -- -- -- --  -- -- -- -- -- -- -- --
0130:                                         5E 69 64               ^id
0140: 6C 30 1C 01 80 00                                 l0....          
```

#### Opcodes

```
  0: 0x013D [0x5E] EventEntity goes idle (kills current action) (animation: "idl0")
  1: 0x0142 [0x1C] WAIT(30* ticks)
  2: 0x0145 [0x00] END_REQSTACK()
```

### Event 422

#### Metadata

| Field        | Value    |
|--------------|----------|
| Entrypoint   | 0x0146   |
| Data Size    | 56 bytes |
| Instructions | 20       |

```
      00 01 02 03 04 05 06 07  08 09 0A 0B 0C 0D 0E 0F
      -- -- -- -- -- -- -- --  -- -- -- -- -- -- -- --
0140:                   1E F0  FF FF 7F 6F 70 29 08 35        .....op).5
0150: E0 0E 01 01 02 06 10 04  80 00 67 01 1D 05 80 23  ..........g....#
0160: 1D 06 80 23 01 73 01 1D  07 80 23 1D 08 80 23 1D  ...#.s....#...#.
0170: 09 80 23 29 08 35 E0 0E  01 02 20 00 21 00        ..#).5.... .!.  
```

#### Opcodes

```
  0: 0x0146 [0x1E] EventEntity looks at LocalPlayer and starts talking
  1: 0x014B [0x6F] WAIT_FRAME_DELAY: Yield until WaitTime reaches zero
  2: 0x014C [0x70] WAIT_ENTITY_RENDER_FLAG: Wait while EventEntity->Render.Flags3 bit 2 is set (cancel turn if not)
  3: 0x014D [0x29] REQ_SET_WAIT(priority=0x08, entity_id=Moreno-Toeno (ID: 17752117/0x010EE035), tag_num=0x01)
  4: 0x0154 [0x02] IF !(Work_Zone[6] == 1*) GOTO 0x0167
  5: 0x015C [0x1D] PRINT_EVENT_MESSAGE(message_id=9602*)
    → "Perchance, if you pursue the procurement of additional $1 and $2, please proceed here posthaste!"
  6: 0x015F [0x23] WAIT_FOR_DIALOG_INTERACTION
  7: 0x0160 [0x1D] PRINT_EVENT_MESSAGE(message_id=9603*)
    → "Our prompt payment will be a pleasant perk!"
  8: 0x0163 [0x23] WAIT_FOR_DIALOG_INTERACTION
  9: 0x0164 [0x01] GOTO 0x0173
 10: 0x0167 [0x1D] PRINT_EVENT_MESSAGE(message_id=8335*)
    → "This semester's students, you see, differ tremendously in ability. It's a pretty perplexing problem!"
 11: 0x016A [0x23] WAIT_FOR_DIALOG_INTERACTION
 12: 0x016B [0x1D] PRINT_EVENT_MESSAGE(message_id=8336*)
    → "Aim at the able adolescent, and the late-learners are left lagging."
 13: 0x016E [0x23] WAIT_FOR_DIALOG_INTERACTION
 14: 0x016F [0x1D] PRINT_EVENT_MESSAGE(message_id=8337*)
    → "Lower the level and lo...the superiority and selectness of the students this school sends out suffer. How my haggard head hurts!"
 15: 0x0172 [0x23] WAIT_FOR_DIALOG_INTERACTION

SUBROUTINE_0173:
 16: 0x0173 [0x29] REQ_SET_WAIT(priority=0x08, entity_id=Moreno-Toeno (ID: 17752117/0x010EE035), tag_num=0x02)
 17: 0x017A [0x20] SET_CLI_EVENT_UC_FLAG: Unlock player control
 18: 0x017C [0x21] END_EVENT
 19: 0x017D [0x00] END_REQSTACK()
```

### Event 182

#### Metadata

| Field        | Value     |
|--------------|-----------|
| Entrypoint   | 0x017E    |
| Data Size    | 398 bytes |
| Instructions | 54        |

```
      00 01 02 03 04 05 06 07  08 09 0A 0B 0C 0D 0E 0F
      -- -- -- -- -- -- -- --  -- -- -- -- -- -- -- --
0170:                                            42 46                BF
0180: 01 1E F0 FF FF 7F 6F 70  45 0A 80 F8 FF FF 7F F8  ......opE.......
0190: FF FF 7F 66 64 6F 31 0B  80 1C 0C 80 75 00 0D 80  ...fdo1.....u...
01A0: 75 01 66 02 80 35 E0 0E  01 35 E0 0E 01 77 6F 66  u.f..5...5...wof
01B0: 32 38 0E 80 29 0B F0 FF  FF 7F 33 4A 35 E0 0E 01  28..).....3J5...
01C0: F0 FF FF 7F 6F 76 35 E0  0E 01 45 0F 80 F0 FF FF  ....ov5...E.....
01D0: 7F F0 FF FF 7F 73 30 35  35 0B 80 45 0A 80 F8 FF  .....s055..E....
01E0: FF 7F F8 FF FF 7F 66 64  69 31 0B 80 29 0B 35 E0  ......fdi1..).5.
01F0: 0E 01 18 45 0F 80 F0 FF  FF 7F F0 FF FF 7F 73 30  ...E..........s0
0200: 35 36 0B 80 29 0B 35 E0  0E 01 19 52 0F 80 F0 FF  56..).5....R....
0210: FF 7F F0 FF FF 7F 73 30  35 36 45 0A 80 F8 FF FF  ......s056E.....
0220: 7F F8 FF FF 7F 66 64 6F  31 0B 80 1C 0C 80 45 0F  .....fdo1.....E.
0230: 80 F0 FF FF 7F F0 FF FF  7F 73 30 35 37 0B 80 66  .........s057..f
0240: 02 80 35 E0 0E 01 35 E0  0E 01 77 6F 6E 32 29 08  ..5...5...won2).
0250: 35 E0 0E 01 09 29 08 35  E0 0E 01 0A 45 0A 80 F8  5....).5....E...
0260: FF FF 7F F8 FF FF 7F 66  64 69 31 0B 80 29 0B 35  .......fdi1..).5
0270: E0 0E 01 1A 45 0F 80 F0  FF FF 7F F0 FF FF 7F 73  ....E..........s
0280: 30 36 38 0B 80 29 0B 35  E0 0E 01 1B 24 10 80 04  068..).5....$...
0290: 80 0B 80 25 02 00 10 0B  80 00 A8 02 03 01 10 11  ...%............
02A0: 80 1D 12 80 23 01 BC 02  02 00 10 04 80 00 BC 02  ....#...........
02B0: 03 01 10 04 80 1D 13 80  23 01 BC 02 45 0A 80 F8  ........#...E...
02C0: FF FF 7F F8 FF FF 7F 66  64 6F 31 0B 80 1C 14 80  .......fdo1.....
02D0: 66 02 80 35 E0 0E 01 35  E0 0E 01 77 6F 66 32 02  f..5...5...wof2.
02E0: 01 10 11 80 00 F5 02 73  0E 80 35 E0 0E 01 35 E0  .......s..5...5.
02F0: 0E 01 1C 15 80 46 00 45  0A 80 F8 FF FF 7F F8 FF  .....F.E........
0300: FF 7F 66 64 69 31 0B 80  20 00 21 00              ..fdi1.. .!.    
```

#### Opcodes

```
  0: 0x017E [0x42] SET_CLI_EVENT_CANCEL_DATA()
  1: 0x017F [0x46] CAMERA_CONTROL: Disable user control
  2: 0x0181 [0x1E] EventEntity looks at LocalPlayer and starts talking
  3: 0x0186 [0x6F] WAIT_FRAME_DELAY: Yield until WaitTime reaches zero
  4: 0x0187 [0x70] WAIT_ENTITY_RENDER_FLAG: Wait while EventEntity->Render.Flags3 bit 2 is set (cancel turn if not)
  5: 0x0188 [0x45] LOAD_SCHEDULED_TASK: Load scheduler "fdo1" with entities [EventEntity, EventEntity], work=[200*, 0*]
  6: 0x0199 [0x1C] WAIT(60* ticks)
  7: 0x019C [0x75] LOAD_ROOM(Load indoor room, room=399*)
  8: 0x01A0 [0x75] LOAD_ROOM(No action)
  9: 0x01A2 [0x66] LOAD_EXT_SCHEDULER_MAIN: Load scheduler "wof2" with entities [Moreno-Toeno (ID: 17752117/0x010EE035), Moreno-Toeno (ID: 17752117/0x010EE035)], work=42*
 10: 0x01B1 [0x38] SET_CLIENT_EVENT_MODE(mode=3*)
 11: 0x01B4 [0x29] REQ_SET_WAIT(priority=0x0B, entity_id=LocalPlayer, tag_num=0x33)
 12: 0x01BB [0x4A] Moreno-Toeno (ID: 17752117/0x010EE035) looks at LocalPlayer
 13: 0x01C4 [0x6F] WAIT_FRAME_DELAY: Yield until WaitTime reaches zero
 14: 0x01C5 [0x76] CHECK_ENTITY_RENDER_FLAGS: Wait until Moreno-Toeno (ID: 17752117/0x010EE035) Render.Flags0 and Render.Flags3 conditions are met
 15: 0x01CA [0x45] LOAD_SCHEDULED_TASK: Load scheduler "s055" with entities [LocalPlayer, LocalPlayer], work=[138*, 0*]
 16: 0x01DB [0x45] LOAD_SCHEDULED_TASK: Load scheduler "fdi1" with entities [EventEntity, EventEntity], work=[200*, 0*]
 17: 0x01EC [0x29] REQ_SET_WAIT(priority=0x0B, entity_id=Moreno-Toeno (ID: 17752117/0x010EE035), tag_num=0x18)
 18: 0x01F3 [0x45] LOAD_SCHEDULED_TASK: Load scheduler "s056" with entities [LocalPlayer, LocalPlayer], work=[138*, 0*]
 19: 0x0204 [0x29] REQ_SET_WAIT(priority=0x0B, entity_id=Moreno-Toeno (ID: 17752117/0x010EE035), tag_num=0x19)
 20: 0x020B [0x52] END_LOAD_SCHEDULER: End scheduler "s056" with entities [LocalPlayer, LocalPlayer], work=138*
 21: 0x021A [0x45] LOAD_SCHEDULED_TASK: Load scheduler "fdo1" with entities [EventEntity, EventEntity], work=[200*, 0*]
 22: 0x022B [0x1C] WAIT(60* ticks)
 23: 0x022E [0x45] LOAD_SCHEDULED_TASK: Load scheduler "s057" with entities [LocalPlayer, LocalPlayer], work=[138*, 0*]
 24: 0x023F [0x66] LOAD_EXT_SCHEDULER_MAIN: Load scheduler "won2" with entities [Moreno-Toeno (ID: 17752117/0x010EE035), Moreno-Toeno (ID: 17752117/0x010EE035)], work=42*
 25: 0x024E [0x29] REQ_SET_WAIT(priority=0x08, entity_id=Moreno-Toeno (ID: 17752117/0x010EE035), tag_num=0x09)
 26: 0x0255 [0x29] REQ_SET_WAIT(priority=0x08, entity_id=Moreno-Toeno (ID: 17752117/0x010EE035), tag_num=0x0A)
 27: 0x025C [0x45] LOAD_SCHEDULED_TASK: Load scheduler "fdi1" with entities [EventEntity, EventEntity], work=[200*, 0*]
 28: 0x026D [0x29] REQ_SET_WAIT(priority=0x0B, entity_id=Moreno-Toeno (ID: 17752117/0x010EE035), tag_num=0x1A)
 29: 0x0274 [0x45] LOAD_SCHEDULED_TASK: Load scheduler "s068" with entities [LocalPlayer, LocalPlayer], work=[138*, 0*]
 30: 0x0285 [0x29] REQ_SET_WAIT(priority=0x0B, entity_id=Moreno-Toeno (ID: 17752117/0x010EE035), tag_num=0x1B)
 31: 0x028C [0x24] CREATE_DIALOG(message_id=7739*, default_option=1*, option_flags=0*)
    → "Ready already? [Roger, Roger!/Naysay, nay!]"
 32: 0x0293 [0x25] WAIT_DIALOG_SELECT()
 33: 0x0294 [0x02] IF !(Work_Zone[0] == 0*) GOTO 0x02A8
 34: 0x029C [0x03] Work_Zone[1] = 2*
 35: 0x02A1 [0x1D] PRINT_EVENT_MESSAGE(message_id=7740*)
    → "Incantation incorporated. Godspeed and Goddess bless!"
 36: 0x02A4 [0x23] WAIT_FOR_DIALOG_INTERACTION
 37: 0x02A5 [0x01] GOTO 0x02BC
 38: 0x02A8 [0x02] IF !(Work_Zone[0] == 1*) GOTO 0x02BC
 39: 0x02B0 [0x03] Work_Zone[1] = 1*
 40: 0x02B5 [0x1D] PRINT_EVENT_MESSAGE(message_id=7741*)
    → "...Return when you're arranged, not deranged."
 41: 0x02B8 [0x23] WAIT_FOR_DIALOG_INTERACTION
 42: 0x02B9 [0x01] GOTO 0x02BC

SUBROUTINE_02BC:
 43: 0x02BC [0x45] LOAD_SCHEDULED_TASK: Load scheduler "fdo1" with entities [EventEntity, EventEntity], work=[200*, 0*]
 44: 0x02CD [0x1C] WAIT(80* ticks)
 45: 0x02D0 [0x66] LOAD_EXT_SCHEDULER_MAIN: Load scheduler "wof2" with entities [Moreno-Toeno (ID: 17752117/0x010EE035), Moreno-Toeno (ID: 17752117/0x010EE035)], work=42*
 46: 0x02DF [0x02] IF !(Work_Zone[1] == 2*) GOTO 0x02F5
 47: 0x02E7 [0x73] Moreno-Toeno (ID: 17752117/0x010EE035) casts magic 3* on Moreno-Toeno (ID: 17752117/0x010EE035)
 48: 0x02F2 [0x1C] WAIT(300* ticks)
 49: 0x02F5 [0x46] CAMERA_CONTROL: Restore default settings
 50: 0x02F7 [0x45] LOAD_SCHEDULED_TASK: Load scheduler "fdi1" with entities [EventEntity, EventEntity], work=[200*, 0*]
 51: 0x0308 [0x20] SET_CLI_EVENT_UC_FLAG: Unlock player control
 52: 0x030A [0x21] END_EVENT
 53: 0x030B [0x00] END_REQSTACK()
```

### Event 65535.22

#### Metadata

| Field        | Value    |
|--------------|----------|
| Entrypoint   | 0x030C   |
| Data Size    | 41 bytes |
| Instructions | 11       |

```
      00 01 02 03 04 05 06 07  08 09 0A 0B 0C 0D 0E 0F
      -- -- -- -- -- -- -- --  -- -- -- -- -- -- -- --
0300:                                      29 08 35 E0              ).5.
0310: 0E 01 01 1D 16 80 23 29  08 35 E0 0E 01 02 29 08  ......#).5....).
0320: 35 E0 0E 01 01 1D 17 80  23 1D 18 80 23 29 08 35  5.......#...#).5
0330: E0 0E 01 02 00                                    .....           
```

#### Opcodes

```
  0: 0x030C [0x29] REQ_SET_WAIT(priority=0x08, entity_id=Moreno-Toeno (ID: 17752117/0x010EE035), tag_num=0x01)
  1: 0x0313 [0x1D] PRINT_EVENT_MESSAGE(message_id=7731*)
    → "Are you the adventurer who accepted the Aurastery's ardent assignment? Excellent! We were excitedly expecting you."
  2: 0x0316 [0x23] WAIT_FOR_DIALOG_INTERACTION
  3: 0x0317 [0x29] REQ_SET_WAIT(priority=0x08, entity_id=Moreno-Toeno (ID: 17752117/0x010EE035), tag_num=0x02)
  4: 0x031E [0x29] REQ_SET_WAIT(priority=0x08, entity_id=Moreno-Toeno (ID: 17752117/0x010EE035), tag_num=0x01)
  5: 0x0325 [0x1D] PRINT_EVENT_MESSAGE(message_id=7732*)
    → "The School of Magic is setting up a skills test to see how many monsters the students of the advanced class can slay."
  6: 0x0328 [0x23] WAIT_FOR_DIALOG_INTERACTION
  7: 0x0329 [0x1D] PRINT_EVENT_MESSAGE(message_id=7733*)
    → "We applied for an able adventurer to assist us in arranging our skills exam, all right?"
  8: 0x032C [0x23] WAIT_FOR_DIALOG_INTERACTION
  9: 0x032D [0x29] REQ_SET_WAIT(priority=0x08, entity_id=Moreno-Toeno (ID: 17752117/0x010EE035), tag_num=0x02)
 10: 0x0334 [0x00] END_REQSTACK()
```

### Event 65535.23

#### Metadata

| Field        | Value    |
|--------------|----------|
| Entrypoint   | 0x0335   |
| Data Size    | 37 bytes |
| Instructions | 9        |

```
      00 01 02 03 04 05 06 07  08 09 0A 0B 0C 0D 0E 0F
      -- -- -- -- -- -- -- --  -- -- -- -- -- -- -- --
0330:                29 08 35  E0 0E 01 07 1D 19 80 23       ).5.......#
0340: 29 08 35 E0 0E 01 08 29  08 35 E0 0E 01 01 1D 1A  ).5....).5......
0350: 80 23 29 08 35 E0 0E 01  02 00                    .#).5.....      
```

#### Opcodes

```
  0: 0x0335 [0x29] REQ_SET_WAIT(priority=0x08, entity_id=Moreno-Toeno (ID: 17752117/0x010EE035), tag_num=0x07)
  1: 0x033C [0x1D] PRINT_EVENT_MESSAGE(message_id=7734*)
    → "You're expecting an elementary exam, except at the School of Magic it is an enormous event that affects the educatees' enlightened existence and so we extoll excruciating exactness."
  2: 0x033F [0x23] WAIT_FOR_DIALOG_INTERACTION
  3: 0x0340 [0x29] REQ_SET_WAIT(priority=0x08, entity_id=Moreno-Toeno (ID: 17752117/0x010EE035), tag_num=0x08)
  4: 0x0347 [0x29] REQ_SET_WAIT(priority=0x08, entity_id=Moreno-Toeno (ID: 17752117/0x010EE035), tag_num=0x01)
  5: 0x034E [0x1D] PRINT_EVENT_MESSAGE(message_id=7735*)
    → "First, fine friend, find out how ferociously fierce the foes are in the field where the skills test is being formulated."
  6: 0x0351 [0x23] WAIT_FOR_DIALOG_INTERACTION
  7: 0x0352 [0x29] REQ_SET_WAIT(priority=0x08, entity_id=Moreno-Toeno (ID: 17752117/0x010EE035), tag_num=0x02)
  8: 0x0359 [0x00] END_REQSTACK()
```

### Event 65535.24

#### Metadata

| Field        | Value    |
|--------------|----------|
| Entrypoint   | 0x035A   |
| Data Size    | 16 bytes |
| Instructions | 6        |

```
      00 01 02 03 04 05 06 07  08 09 0A 0B 0C 0D 0E 0F
      -- -- -- -- -- -- -- --  -- -- -- -- -- -- -- --
0350:                                29 08 35 E0 0E 01            ).5...
0360: 09 1D 1B 80 23 1D 1C 80  23 00                    ....#...#.      
```

#### Opcodes

```
  0: 0x035A [0x29] REQ_SET_WAIT(priority=0x08, entity_id=Moreno-Toeno (ID: 17752117/0x010EE035), tag_num=0x09)
  1: 0x0361 [0x1D] PRINT_EVENT_MESSAGE(message_id=7736*)
    → "Carry this charmed doll to Tahrongi Canyon, can you? My magic mannequin will memorize how many monsters you maim there."
  2: 0x0364 [0x23] WAIT_FOR_DIALOG_INTERACTION
  3: 0x0365 [0x1D] PRINT_EVENT_MESSAGE(message_id=7737*)
    → "The doll's enchantment expires at the end of one day. Once the wizardly works wear off it's worthless... So kindly come back quick."
  4: 0x0368 [0x23] WAIT_FOR_DIALOG_INTERACTION
  5: 0x0369 [0x00] END_REQSTACK()
```

### Event 65535.25

#### Metadata

| Field        | Value   |
|--------------|---------|
| Entrypoint   | 0x036A  |
| Data Size    | 5 bytes |
| Instructions | 3       |

```
      00 01 02 03 04 05 06 07  08 09 0A 0B 0C 0D 0E 0F
      -- -- -- -- -- -- -- --  -- -- -- -- -- -- -- --
0360:                                1D 1D 80 23 00               ...#. 
```

#### Opcodes

```
  0: 0x036A [0x1D] PRINT_EVENT_MESSAGE(message_id=7738*)
    → "I'll immediately magick my miniature marionette. I presume you are punctually prepared?"
  1: 0x036D [0x23] WAIT_FOR_DIALOG_INTERACTION
  2: 0x036E [0x00] END_REQSTACK()
```

### Event 181

#### Metadata

| Field        | Value     |
|--------------|-----------|
| Entrypoint   | 0x036F    |
| Data Size    | 401 bytes |
| Instructions | 54        |

```
      00 01 02 03 04 05 06 07  08 09 0A 0B 0C 0D 0E 0F
      -- -- -- -- -- -- -- --  -- -- -- -- -- -- -- --
0360:                                               20                  
0370: 01 42 46 01 1E F0 FF FF  7F 6F 70 29 0B 35 E0 0E  .BF......op).5..
0380: 01 1D 45 0A 80 F8 FF FF  7F F8 FF FF 7F 66 64 6F  ..E..........fdo
0390: 31 0B 80 1C 0C 80 66 02  80 35 E0 0E 01 35 E0 0E  1.....f..5...5..
03A0: 01 77 6F 66 32 38 0E 80  29 0B F0 FF FF 7F 33 4A  .wof28..).....3J
03B0: 35 E0 0E 01 F0 FF FF 7F  6F 76 35 E0 0E 01 45 0F  5.......ov5...E.
03C0: 80 F0 FF FF 7F F0 FF FF  7F 73 30 35 35 0B 80 45  .........s055..E
03D0: 0A 80 F8 FF FF 7F F8 FF  FF 7F 66 64 69 31 0B 80  ..........fdi1..
03E0: 29 0B 35 E0 0E 01 1E 45  0F 80 F0 FF FF 7F F0 FF  ).5....E........
03F0: FF 7F 73 30 35 36 0B 80  29 0B 35 E0 0E 01 19 52  ..s056..).5....R
0400: 0F 80 F0 FF FF 7F F0 FF  FF 7F 73 30 35 36 45 0A  ..........s056E.
0410: 80 F8 FF FF 7F F8 FF FF  7F 66 64 6F 31 0B 80 1C  .........fdo1...
0420: 0C 80 45 0F 80 F0 FF FF  7F F0 FF FF 7F 73 30 35  ..E..........s05
0430: 37 0B 80 66 02 80 35 E0  0E 01 35 E0 0E 01 77 6F  7..f..5...5...wo
0440: 6E 32 29 08 35 E0 0E 01  09 29 08 35 E0 0E 01 0A  n2).5....).5....
0450: 45 0A 80 F8 FF FF 7F F8  FF FF 7F 66 64 69 31 0B  E..........fdi1.
0460: 80 29 0B 35 E0 0E 01 1A  45 0F 80 F0 FF FF 7F F0  .).5....E.......
0470: FF FF 7F 73 30 36 38 0B  80 29 0B 35 E0 0E 01 1B  ...s068..).5....
0480: 24 10 80 04 80 0B 80 25  02 00 10 0B 80 00 9C 04  $......%........
0490: 03 01 10 11 80 1D 12 80  23 01 B0 04 02 00 10 04  ........#.......
04A0: 80 00 B0 04 03 01 10 04  80 1D 13 80 23 01 B0 04  ............#...
04B0: 45 0A 80 F8 FF FF 7F F8  FF FF 7F 66 64 6F 31 0B  E..........fdo1.
04C0: 80 1C 14 80 66 02 80 35  E0 0E 01 35 E0 0E 01 77  ....f..5...5...w
04D0: 6F 66 32 02 01 10 11 80  00 E9 04 73 0E 80 35 E0  of2........s..5.
04E0: 0E 01 35 E0 0E 01 1C 15  80 46 00 45 0A 80 F8 FF  ..5......F.E....
04F0: FF 7F F8 FF FF 7F 66 64  69 31 0B 80 20 00 21 00  ......fdi1.. .!.
```

#### Opcodes

```
  0: 0x036F [0x20] SET_CLI_EVENT_UC_FLAG: Lock player control
  1: 0x0371 [0x42] SET_CLI_EVENT_CANCEL_DATA()
  2: 0x0372 [0x46] CAMERA_CONTROL: Disable user control
  3: 0x0374 [0x1E] EventEntity looks at LocalPlayer and starts talking
  4: 0x0379 [0x6F] WAIT_FRAME_DELAY: Yield until WaitTime reaches zero
  5: 0x037A [0x70] WAIT_ENTITY_RENDER_FLAG: Wait while EventEntity->Render.Flags3 bit 2 is set (cancel turn if not)
  6: 0x037B [0x29] REQ_SET_WAIT(priority=0x0B, entity_id=Moreno-Toeno (ID: 17752117/0x010EE035), tag_num=0x1D)
  7: 0x0382 [0x45] LOAD_SCHEDULED_TASK: Load scheduler "fdo1" with entities [EventEntity, EventEntity], work=[200*, 0*]
  8: 0x0393 [0x1C] WAIT(60* ticks)
  9: 0x0396 [0x66] LOAD_EXT_SCHEDULER_MAIN: Load scheduler "wof2" with entities [Moreno-Toeno (ID: 17752117/0x010EE035), Moreno-Toeno (ID: 17752117/0x010EE035)], work=42*
 10: 0x03A5 [0x38] SET_CLIENT_EVENT_MODE(mode=3*)
 11: 0x03A8 [0x29] REQ_SET_WAIT(priority=0x0B, entity_id=LocalPlayer, tag_num=0x33)
 12: 0x03AF [0x4A] Moreno-Toeno (ID: 17752117/0x010EE035) looks at LocalPlayer
 13: 0x03B8 [0x6F] WAIT_FRAME_DELAY: Yield until WaitTime reaches zero
 14: 0x03B9 [0x76] CHECK_ENTITY_RENDER_FLAGS: Wait until Moreno-Toeno (ID: 17752117/0x010EE035) Render.Flags0 and Render.Flags3 conditions are met
 15: 0x03BE [0x45] LOAD_SCHEDULED_TASK: Load scheduler "s055" with entities [LocalPlayer, LocalPlayer], work=[138*, 0*]
 16: 0x03CF [0x45] LOAD_SCHEDULED_TASK: Load scheduler "fdi1" with entities [EventEntity, EventEntity], work=[200*, 0*]
 17: 0x03E0 [0x29] REQ_SET_WAIT(priority=0x0B, entity_id=Moreno-Toeno (ID: 17752117/0x010EE035), tag_num=0x1E)
 18: 0x03E7 [0x45] LOAD_SCHEDULED_TASK: Load scheduler "s056" with entities [LocalPlayer, LocalPlayer], work=[138*, 0*]
 19: 0x03F8 [0x29] REQ_SET_WAIT(priority=0x0B, entity_id=Moreno-Toeno (ID: 17752117/0x010EE035), tag_num=0x19)
 20: 0x03FF [0x52] END_LOAD_SCHEDULER: End scheduler "s056" with entities [LocalPlayer, LocalPlayer], work=138*
 21: 0x040E [0x45] LOAD_SCHEDULED_TASK: Load scheduler "fdo1" with entities [EventEntity, EventEntity], work=[200*, 0*]
 22: 0x041F [0x1C] WAIT(60* ticks)
 23: 0x0422 [0x45] LOAD_SCHEDULED_TASK: Load scheduler "s057" with entities [LocalPlayer, LocalPlayer], work=[138*, 0*]
 24: 0x0433 [0x66] LOAD_EXT_SCHEDULER_MAIN: Load scheduler "won2" with entities [Moreno-Toeno (ID: 17752117/0x010EE035), Moreno-Toeno (ID: 17752117/0x010EE035)], work=42*
 25: 0x0442 [0x29] REQ_SET_WAIT(priority=0x08, entity_id=Moreno-Toeno (ID: 17752117/0x010EE035), tag_num=0x09)
 26: 0x0449 [0x29] REQ_SET_WAIT(priority=0x08, entity_id=Moreno-Toeno (ID: 17752117/0x010EE035), tag_num=0x0A)
 27: 0x0450 [0x45] LOAD_SCHEDULED_TASK: Load scheduler "fdi1" with entities [EventEntity, EventEntity], work=[200*, 0*]
 28: 0x0461 [0x29] REQ_SET_WAIT(priority=0x0B, entity_id=Moreno-Toeno (ID: 17752117/0x010EE035), tag_num=0x1A)
 29: 0x0468 [0x45] LOAD_SCHEDULED_TASK: Load scheduler "s068" with entities [LocalPlayer, LocalPlayer], work=[138*, 0*]
 30: 0x0479 [0x29] REQ_SET_WAIT(priority=0x0B, entity_id=Moreno-Toeno (ID: 17752117/0x010EE035), tag_num=0x1B)
 31: 0x0480 [0x24] CREATE_DIALOG(message_id=7739*, default_option=1*, option_flags=0*)
    → "Ready already? [Roger, Roger!/Naysay, nay!]"
 32: 0x0487 [0x25] WAIT_DIALOG_SELECT()
 33: 0x0488 [0x02] IF !(Work_Zone[0] == 0*) GOTO 0x049C
 34: 0x0490 [0x03] Work_Zone[1] = 2*
 35: 0x0495 [0x1D] PRINT_EVENT_MESSAGE(message_id=7740*)
    → "Incantation incorporated. Godspeed and Goddess bless!"
 36: 0x0498 [0x23] WAIT_FOR_DIALOG_INTERACTION
 37: 0x0499 [0x01] GOTO 0x04B0
 38: 0x049C [0x02] IF !(Work_Zone[0] == 1*) GOTO 0x04B0
 39: 0x04A4 [0x03] Work_Zone[1] = 1*
 40: 0x04A9 [0x1D] PRINT_EVENT_MESSAGE(message_id=7741*)
    → "...Return when you're arranged, not deranged."
 41: 0x04AC [0x23] WAIT_FOR_DIALOG_INTERACTION
 42: 0x04AD [0x01] GOTO 0x04B0

SUBROUTINE_04B0:
 43: 0x04B0 [0x45] LOAD_SCHEDULED_TASK: Load scheduler "fdo1" with entities [EventEntity, EventEntity], work=[200*, 0*]
 44: 0x04C1 [0x1C] WAIT(80* ticks)
 45: 0x04C4 [0x66] LOAD_EXT_SCHEDULER_MAIN: Load scheduler "wof2" with entities [Moreno-Toeno (ID: 17752117/0x010EE035), Moreno-Toeno (ID: 17752117/0x010EE035)], work=42*
 46: 0x04D3 [0x02] IF !(Work_Zone[1] == 2*) GOTO 0x04E9
 47: 0x04DB [0x73] Moreno-Toeno (ID: 17752117/0x010EE035) casts magic 3* on Moreno-Toeno (ID: 17752117/0x010EE035)
 48: 0x04E6 [0x1C] WAIT(300* ticks)
 49: 0x04E9 [0x46] CAMERA_CONTROL: Restore default settings
 50: 0x04EB [0x45] LOAD_SCHEDULED_TASK: Load scheduler "fdi1" with entities [EventEntity, EventEntity], work=[200*, 0*]
 51: 0x04FC [0x20] SET_CLI_EVENT_UC_FLAG: Unlock player control
 52: 0x04FE [0x21] END_EVENT
 53: 0x04FF [0x00] END_REQSTACK()
```

### Event 65535.26

#### Metadata

| Field        | Value    |
|--------------|----------|
| Entrypoint   | 0x0500   |
| Data Size    | 23 bytes |
| Instructions | 7        |

```
      00 01 02 03 04 05 06 07  08 09 0A 0B 0C 0D 0E 0F
      -- -- -- -- -- -- -- --  -- -- -- -- -- -- -- --
0500: 29 08 35 E0 0E 01 01 1D  1E 80 23 1D 1F 80 23 29  ).5.......#...#)
0510: 08 35 E0 0E 01 02 00                              .5.....         
```

#### Opcodes

```
  0: 0x0500 [0x29] REQ_SET_WAIT(priority=0x08, entity_id=Moreno-Toeno (ID: 17752117/0x010EE035), tag_num=0x01)
  1: 0x0507 [0x1D] PRINT_EVENT_MESSAGE(message_id=7728*)
    → "You actually accepted the Aurastery's skills exam assignment again? The best of luck this time too, then."
  2: 0x050A [0x23] WAIT_FOR_DIALOG_INTERACTION
  3: 0x050B [0x1D] PRINT_EVENT_MESSAGE(message_id=7729*)
    → "You remember the errand, I recall, but let me rapidly reiterate to be real sure..."
  4: 0x050E [0x23] WAIT_FOR_DIALOG_INTERACTION
  5: 0x050F [0x29] REQ_SET_WAIT(priority=0x08, entity_id=Moreno-Toeno (ID: 17752117/0x010EE035), tag_num=0x02)
  6: 0x0516 [0x00] END_REQSTACK()
```

### Event 65535.27

#### Metadata

| Field        | Value    |
|--------------|----------|
| Entrypoint   | 0x0517   |
| Data Size    | 19 bytes |
| Instructions | 5        |

```
      00 01 02 03 04 05 06 07  08 09 0A 0B 0C 0D 0E 0F
      -- -- -- -- -- -- -- --  -- -- -- -- -- -- -- --
0510:                      29  08 35 E0 0E 01 01 1D 20         ).5..... 
0520: 80 23 29 08 35 E0 0E 01  02 00                    .#).5.....      
```

#### Opcodes

```
  0: 0x0517 [0x29] REQ_SET_WAIT(priority=0x08, entity_id=Moreno-Toeno (ID: 17752117/0x010EE035), tag_num=0x01)
  1: 0x051E [0x1D] PRINT_EVENT_MESSAGE(message_id=7730*)
    → "We're setting up a skills test for our school's students to see how many monsters they can slay."
  2: 0x0521 [0x23] WAIT_FOR_DIALOG_INTERACTION
  3: 0x0522 [0x29] REQ_SET_WAIT(priority=0x08, entity_id=Moreno-Toeno (ID: 17752117/0x010EE035), tag_num=0x02)
  4: 0x0529 [0x00] END_REQSTACK()
```

### Event 687

#### Metadata

| Field        | Value     |
|--------------|-----------|
| Entrypoint   | 0x052A    |
| Data Size    | 409 bytes |
| Instructions | 58        |

```
      00 01 02 03 04 05 06 07  08 09 0A 0B 0C 0D 0E 0F
      -- -- -- -- -- -- -- --  -- -- -- -- -- -- -- --
0520:                                20 01 42 46 01 1E             .BF..
0530: F0 FF FF 7F 6F 70 29 0B  35 E0 0E 01 1D 45 0A 80  ....op).5....E..
0540: F8 FF FF 7F F8 FF FF 7F  66 64 6F 31 0B 80 1C 0C  ........fdo1....
0550: 80 66 02 80 35 E0 0E 01  35 E0 0E 01 77 6F 66 32  .f..5...5...wof2
0560: 38 0E 80 29 0B F0 FF FF  7F 33 4A 35 E0 0E 01 F0  8..).....3J5....
0570: FF FF 7F 6F 76 35 E0 0E  01 45 0F 80 F0 FF FF 7F  ...ov5...E......
0580: F0 FF FF 7F 73 30 35 35  0B 80 45 0A 80 F8 FF FF  ....s055..E.....
0590: 7F F8 FF FF 7F 66 64 69  31 0B 80 29 0B 35 E0 0E  .....fdi1..).5..
05A0: 01 1E 45 0F 80 F0 FF FF  7F F0 FF FF 7F 73 30 35  ..E..........s05
05B0: 36 0B 80 29 0B 35 E0 0E  01 19 52 0F 80 F0 FF FF  6..).5....R.....
05C0: 7F F0 FF FF 7F 73 30 35  36 45 0A 80 F8 FF FF 7F  .....s056E......
05D0: F8 FF FF 7F 66 64 6F 31  0B 80 1C 0C 80 45 0F 80  ....fdo1.....E..
05E0: F0 FF FF 7F F0 FF FF 7F  73 30 35 37 0B 80 66 02  ........s057..f.
05F0: 80 35 E0 0E 01 35 E0 0E  01 77 6F 6E 32 29 08 35  .5...5...won2).5
0600: E0 0E 01 09 29 08 35 E0  0E 01 0A 45 0A 80 F8 FF  ....).5....E....
0610: FF 7F F8 FF FF 7F 66 64  69 31 0B 80 29 08 35 E0  ......fdi1..).5.
0620: 0E 01 09 1D 21 80 23 1D  22 80 23 45 0F 80 F0 FF  ....!.#.".#E....
0630: FF 7F F0 FF FF 7F 73 30  36 38 0B 80 29 0B 35 E0  ......s068..).5.
0640: 0E 01 1B 24 10 80 04 80  0B 80 25 02 00 10 0B 80  ...$......%.....
0650: 00 5F 06 03 01 10 11 80  1D 12 80 23 01 73 06 02  ._.........#.s..
0660: 00 10 04 80 00 73 06 03  01 10 04 80 1D 13 80 23  .....s.........#
0670: 01 73 06 45 0A 80 F8 FF  FF 7F F8 FF FF 7F 66 64  .s.E..........fd
0680: 6F 31 0B 80 1C 14 80 66  02 80 35 E0 0E 01 35 E0  o1.....f..5...5.
0690: 0E 01 77 6F 66 32 02 01  10 11 80 00 AC 06 73 0E  ..wof2........s.
06A0: 80 35 E0 0E 01 35 E0 0E  01 1C 15 80 46 00 45 0A  .5...5......F.E.
06B0: 80 F8 FF FF 7F F8 FF FF  7F 66 64 69 31 0B 80 20  .........fdi1.. 
06C0: 00 21 00                                          .!.             
```

#### Opcodes

```
  0: 0x052A [0x20] SET_CLI_EVENT_UC_FLAG: Lock player control
  1: 0x052C [0x42] SET_CLI_EVENT_CANCEL_DATA()
  2: 0x052D [0x46] CAMERA_CONTROL: Disable user control
  3: 0x052F [0x1E] EventEntity looks at LocalPlayer and starts talking
  4: 0x0534 [0x6F] WAIT_FRAME_DELAY: Yield until WaitTime reaches zero
  5: 0x0535 [0x70] WAIT_ENTITY_RENDER_FLAG: Wait while EventEntity->Render.Flags3 bit 2 is set (cancel turn if not)
  6: 0x0536 [0x29] REQ_SET_WAIT(priority=0x0B, entity_id=Moreno-Toeno (ID: 17752117/0x010EE035), tag_num=0x1D)
  7: 0x053D [0x45] LOAD_SCHEDULED_TASK: Load scheduler "fdo1" with entities [EventEntity, EventEntity], work=[200*, 0*]
  8: 0x054E [0x1C] WAIT(60* ticks)
  9: 0x0551 [0x66] LOAD_EXT_SCHEDULER_MAIN: Load scheduler "wof2" with entities [Moreno-Toeno (ID: 17752117/0x010EE035), Moreno-Toeno (ID: 17752117/0x010EE035)], work=42*
 10: 0x0560 [0x38] SET_CLIENT_EVENT_MODE(mode=3*)
 11: 0x0563 [0x29] REQ_SET_WAIT(priority=0x0B, entity_id=LocalPlayer, tag_num=0x33)
 12: 0x056A [0x4A] Moreno-Toeno (ID: 17752117/0x010EE035) looks at LocalPlayer
 13: 0x0573 [0x6F] WAIT_FRAME_DELAY: Yield until WaitTime reaches zero
 14: 0x0574 [0x76] CHECK_ENTITY_RENDER_FLAGS: Wait until Moreno-Toeno (ID: 17752117/0x010EE035) Render.Flags0 and Render.Flags3 conditions are met
 15: 0x0579 [0x45] LOAD_SCHEDULED_TASK: Load scheduler "s055" with entities [LocalPlayer, LocalPlayer], work=[138*, 0*]
 16: 0x058A [0x45] LOAD_SCHEDULED_TASK: Load scheduler "fdi1" with entities [EventEntity, EventEntity], work=[200*, 0*]
 17: 0x059B [0x29] REQ_SET_WAIT(priority=0x0B, entity_id=Moreno-Toeno (ID: 17752117/0x010EE035), tag_num=0x1E)
 18: 0x05A2 [0x45] LOAD_SCHEDULED_TASK: Load scheduler "s056" with entities [LocalPlayer, LocalPlayer], work=[138*, 0*]
 19: 0x05B3 [0x29] REQ_SET_WAIT(priority=0x0B, entity_id=Moreno-Toeno (ID: 17752117/0x010EE035), tag_num=0x19)
 20: 0x05BA [0x52] END_LOAD_SCHEDULER: End scheduler "s056" with entities [LocalPlayer, LocalPlayer], work=138*
 21: 0x05C9 [0x45] LOAD_SCHEDULED_TASK: Load scheduler "fdo1" with entities [EventEntity, EventEntity], work=[200*, 0*]
 22: 0x05DA [0x1C] WAIT(60* ticks)
 23: 0x05DD [0x45] LOAD_SCHEDULED_TASK: Load scheduler "s057" with entities [LocalPlayer, LocalPlayer], work=[138*, 0*]
 24: 0x05EE [0x66] LOAD_EXT_SCHEDULER_MAIN: Load scheduler "won2" with entities [Moreno-Toeno (ID: 17752117/0x010EE035), Moreno-Toeno (ID: 17752117/0x010EE035)], work=42*
 25: 0x05FD [0x29] REQ_SET_WAIT(priority=0x08, entity_id=Moreno-Toeno (ID: 17752117/0x010EE035), tag_num=0x09)
 26: 0x0604 [0x29] REQ_SET_WAIT(priority=0x08, entity_id=Moreno-Toeno (ID: 17752117/0x010EE035), tag_num=0x0A)
 27: 0x060B [0x45] LOAD_SCHEDULED_TASK: Load scheduler "fdi1" with entities [EventEntity, EventEntity], work=[200*, 0*]
 28: 0x061C [0x29] REQ_SET_WAIT(priority=0x08, entity_id=Moreno-Toeno (ID: 17752117/0x010EE035), tag_num=0x09)
 29: 0x0623 [0x1D] PRINT_EVENT_MESSAGE(message_id=7781*)
    → "This time, try to maim as many monsters as you may in the insular Buburimu Peninsula today."
 30: 0x0626 [0x23] WAIT_FOR_DIALOG_INTERACTION
 31: 0x0627 [0x1D] PRINT_EVENT_MESSAGE(message_id=7782*)
    → "The charming charm cast on the magic doll disappears in two days. So come back quick before the wizardly works wear off once more."
 32: 0x062A [0x23] WAIT_FOR_DIALOG_INTERACTION
 33: 0x062B [0x45] LOAD_SCHEDULED_TASK: Load scheduler "s068" with entities [LocalPlayer, LocalPlayer], work=[138*, 0*]
 34: 0x063C [0x29] REQ_SET_WAIT(priority=0x0B, entity_id=Moreno-Toeno (ID: 17752117/0x010EE035), tag_num=0x1B)
 35: 0x0643 [0x24] CREATE_DIALOG(message_id=7739*, default_option=1*, option_flags=0*)
    → "Ready already? [Roger, Roger!/Naysay, nay!]"
 36: 0x064A [0x25] WAIT_DIALOG_SELECT()
 37: 0x064B [0x02] IF !(Work_Zone[0] == 0*) GOTO 0x065F
 38: 0x0653 [0x03] Work_Zone[1] = 2*
 39: 0x0658 [0x1D] PRINT_EVENT_MESSAGE(message_id=7740*)
    → "Incantation incorporated. Godspeed and Goddess bless!"
 40: 0x065B [0x23] WAIT_FOR_DIALOG_INTERACTION
 41: 0x065C [0x01] GOTO 0x0673
 42: 0x065F [0x02] IF !(Work_Zone[0] == 1*) GOTO 0x0673
 43: 0x0667 [0x03] Work_Zone[1] = 1*
 44: 0x066C [0x1D] PRINT_EVENT_MESSAGE(message_id=7741*)
    → "...Return when you're arranged, not deranged."
 45: 0x066F [0x23] WAIT_FOR_DIALOG_INTERACTION
 46: 0x0670 [0x01] GOTO 0x0673

SUBROUTINE_0673:
 47: 0x0673 [0x45] LOAD_SCHEDULED_TASK: Load scheduler "fdo1" with entities [EventEntity, EventEntity], work=[200*, 0*]
 48: 0x0684 [0x1C] WAIT(80* ticks)
 49: 0x0687 [0x66] LOAD_EXT_SCHEDULER_MAIN: Load scheduler "wof2" with entities [Moreno-Toeno (ID: 17752117/0x010EE035), Moreno-Toeno (ID: 17752117/0x010EE035)], work=42*
 50: 0x0696 [0x02] IF !(Work_Zone[1] == 2*) GOTO 0x06AC
 51: 0x069E [0x73] Moreno-Toeno (ID: 17752117/0x010EE035) casts magic 3* on Moreno-Toeno (ID: 17752117/0x010EE035)
 52: 0x06A9 [0x1C] WAIT(300* ticks)
 53: 0x06AC [0x46] CAMERA_CONTROL: Restore default settings
 54: 0x06AE [0x45] LOAD_SCHEDULED_TASK: Load scheduler "fdi1" with entities [EventEntity, EventEntity], work=[200*, 0*]
 55: 0x06BF [0x20] SET_CLI_EVENT_UC_FLAG: Unlock player control
 56: 0x06C1 [0x21] END_EVENT
 57: 0x06C2 [0x00] END_REQSTACK()
```

### Event 183

#### Metadata

| Field        | Value    |
|--------------|----------|
| Entrypoint   | 0x06C3   |
| Data Size    | 88 bytes |
| Instructions | 23       |

```
      00 01 02 03 04 05 06 07  08 09 0A 0B 0C 0D 0E 0F
      -- -- -- -- -- -- -- --  -- -- -- -- -- -- -- --
06C0:          1E F0 FF FF 7F  6F 70 02 04 10 23 80 02     .....op...#..
06D0: E8 06 29 08 35 E0 0E 01  01 1D 24 80 23 1D 25 80  ..).5.....$.#.%.
06E0: 23 29 08 35 E0 0E 01 02  29 08 35 E0 0E 01 03 02  #).5....).5.....
06F0: 04 10 0E 80 05 FE 06 1D  26 80 23 01 02 07 1D 27  ........&.#....'
0700: 80 23 29 08 35 E0 0E 01  04 29 08 35 E0 0E 01 05  .#).5....).5....
0710: 29 08 35 E0 0E 01 06 20  00 21 00                 ).5.... .!.     
```

#### Opcodes

```
  0: 0x06C3 [0x1E] EventEntity looks at LocalPlayer and starts talking
  1: 0x06C8 [0x6F] WAIT_FRAME_DELAY: Yield until WaitTime reaches zero
  2: 0x06C9 [0x70] WAIT_ENTITY_RENDER_FLAG: Wait while EventEntity->Render.Flags3 bit 2 is set (cancel turn if not)
  3: 0x06CA [0x02] IF !(Work_Zone[4] <= 12*) GOTO 0x06E8
  4: 0x06D2 [0x29] REQ_SET_WAIT(priority=0x08, entity_id=Moreno-Toeno (ID: 17752117/0x010EE035), tag_num=0x01)
  5: 0x06D9 [0x1D] PRINT_EVENT_MESSAGE(message_id=7742*)
    → "See how many monsters you may maim in Tahrongi Canyon, can you? The counting charm cast on the magic doll disappears in a day. Better be back by then!"
  6: 0x06DC [0x23] WAIT_FOR_DIALOG_INTERACTION
  7: 0x06DD [0x1D] PRINT_EVENT_MESSAGE(message_id=7743*)
    → "The skills test will be performed in threes, pertaining it's particularly preferable to appropriate a party with experienced explorers."
  8: 0x06E0 [0x23] WAIT_FOR_DIALOG_INTERACTION
  9: 0x06E1 [0x29] REQ_SET_WAIT(priority=0x08, entity_id=Moreno-Toeno (ID: 17752117/0x010EE035), tag_num=0x02)
 10: 0x06E8 [0x29] REQ_SET_WAIT(priority=0x08, entity_id=Moreno-Toeno (ID: 17752117/0x010EE035), tag_num=0x03)
 11: 0x06EF [0x02] IF !(Work_Zone[4] > 3*) GOTO 0x06FE
 12: 0x06F7 [0x1D] PRINT_EVENT_MESSAGE(message_id=7745*)
    → "Gee, I see it after $1 be. Fussed! There's just $2 [hour/hours] to bust. Get along there! Not much longer to the gong, hear?"
 13: 0x06FA [0x23] WAIT_FOR_DIALOG_INTERACTION
 14: 0x06FB [0x01] GOTO 0x0702
 15: 0x06FE [0x1D] PRINT_EVENT_MESSAGE(message_id=7744*)
    → "Wow...I avow it's now $1! So, lo, $2 [hour/hours] to go. Sublime! You've plenty of time till the chime."
 16: 0x0701 [0x23] WAIT_FOR_DIALOG_INTERACTION

SUBROUTINE_0702:
 17: 0x0702 [0x29] REQ_SET_WAIT(priority=0x08, entity_id=Moreno-Toeno (ID: 17752117/0x010EE035), tag_num=0x04)
 18: 0x0709 [0x29] REQ_SET_WAIT(priority=0x08, entity_id=Moreno-Toeno (ID: 17752117/0x010EE035), tag_num=0x05)
 19: 0x0710 [0x29] REQ_SET_WAIT(priority=0x08, entity_id=Moreno-Toeno (ID: 17752117/0x010EE035), tag_num=0x06)
 20: 0x0717 [0x20] SET_CLI_EVENT_UC_FLAG: Unlock player control
 21: 0x0719 [0x21] END_EVENT
 22: 0x071A [0x00] END_REQSTACK()
```

### Event 202

#### Metadata

| Field        | Value    |
|--------------|----------|
| Entrypoint   | 0x071B   |
| Data Size    | 34 bytes |
| Instructions | 13       |

```
      00 01 02 03 04 05 06 07  08 09 0A 0B 0C 0D 0E 0F
      -- -- -- -- -- -- -- --  -- -- -- -- -- -- -- --
0710:                                   42 1E F0 FF FF             B....
0720: 7F 6F 70 29 08 35 E0 0E  01 01 1D 28 80 23 1D 29  .op).5.....(.#.)
0730: 80 23 29 08 35 E0 0E 01  02 20 00 21 00           .#).5.... .!.   
```

#### Opcodes

```
  0: 0x071B [0x42] SET_CLI_EVENT_CANCEL_DATA()
  1: 0x071C [0x1E] EventEntity looks at LocalPlayer and starts talking
  2: 0x0721 [0x6F] WAIT_FRAME_DELAY: Yield until WaitTime reaches zero
  3: 0x0722 [0x70] WAIT_ENTITY_RENDER_FLAG: Wait while EventEntity->Render.Flags3 bit 2 is set (cancel turn if not)
  4: 0x0723 [0x29] REQ_SET_WAIT(priority=0x08, entity_id=Moreno-Toeno (ID: 17752117/0x010EE035), tag_num=0x01)
  5: 0x072A [0x1D] PRINT_EVENT_MESSAGE(message_id=7778*)
    → "Oh, you overtly overdid it, I say! The wizardly works have wasted away on our magic doll today."
  6: 0x072D [0x23] WAIT_FOR_DIALOG_INTERACTION
  7: 0x072E [0x1D] PRINT_EVENT_MESSAGE(message_id=7779*)
    → "So sad, but too bad... S'pose you'll simply have to start over from scratch..."
  8: 0x0731 [0x23] WAIT_FOR_DIALOG_INTERACTION
  9: 0x0732 [0x29] REQ_SET_WAIT(priority=0x08, entity_id=Moreno-Toeno (ID: 17752117/0x010EE035), tag_num=0x02)
 10: 0x0739 [0x20] SET_CLI_EVENT_UC_FLAG: Unlock player control
 11: 0x073B [0x21] END_EVENT
 12: 0x073C [0x00] END_REQSTACK()
```

### Event 203

#### Metadata

| Field        | Value    |
|--------------|----------|
| Entrypoint   | 0x073D   |
| Data Size    | 29 bytes |
| Instructions | 10       |

```
      00 01 02 03 04 05 06 07  08 09 0A 0B 0C 0D 0E 0F
      -- -- -- -- -- -- -- --  -- -- -- -- -- -- -- --
0730:                                         1E F0 FF               ...
0740: FF 7F 6F 70 29 08 35 E0  0E 01 01 1D 2A 80 23 29  ..op).5.....*.#)
0750: 08 35 E0 0E 01 02 20 00  21 00                    .5.... .!.      
```

#### Opcodes

```
  0: 0x073D [0x1E] EventEntity looks at LocalPlayer and starts talking
  1: 0x0742 [0x6F] WAIT_FRAME_DELAY: Yield until WaitTime reaches zero
  2: 0x0743 [0x70] WAIT_ENTITY_RENDER_FLAG: Wait while EventEntity->Render.Flags3 bit 2 is set (cancel turn if not)
  3: 0x0744 [0x29] REQ_SET_WAIT(priority=0x08, entity_id=Moreno-Toeno (ID: 17752117/0x010EE035), tag_num=0x01)
  4: 0x074B [0x1D] PRINT_EVENT_MESSAGE(message_id=7780*)
    → "Attempt it again after you've, say, significantly strengthened your skills some, eh? Sorry, but against all ambition, I'm failing you on my magician's mission."
  5: 0x074E [0x23] WAIT_FOR_DIALOG_INTERACTION
  6: 0x074F [0x29] REQ_SET_WAIT(priority=0x08, entity_id=Moreno-Toeno (ID: 17752117/0x010EE035), tag_num=0x02)
  7: 0x0756 [0x20] SET_CLI_EVENT_UC_FLAG: Unlock player control
  8: 0x0758 [0x21] END_EVENT
  9: 0x0759 [0x00] END_REQSTACK()
```

### Event 184

#### Metadata

| Field        | Value    |
|--------------|----------|
| Entrypoint   | 0x075A   |
| Data Size    | 60 bytes |
| Instructions | 10       |

```
      00 01 02 03 04 05 06 07  08 09 0A 0B 0C 0D 0E 0F
      -- -- -- -- -- -- -- --  -- -- -- -- -- -- -- --
0750:                                29 08 35 E0 0E 01            ).5...
0760: 01 1D 2B 80 23 29 08 35  E0 0E 01 02 45 0A 80 F8  ..+.#).5....E...
0770: FF FF 7F F8 FF FF 7F 66  64 6F 31 0B 80 1C 2C 80  .......fdo1...,.
0780: 1D 2D 80 23 45 0A 80 F8  FF FF 7F F8 FF FF 7F 66  .-.#E..........f
0790: 64 69 31 0B 80 00                                 di1...          
```

#### Opcodes

```
  0: 0x075A [0x29] REQ_SET_WAIT(priority=0x08, entity_id=Moreno-Toeno (ID: 17752117/0x010EE035), tag_num=0x01)
  1: 0x0761 [0x1D] PRINT_EVENT_MESSAGE(message_id=7746*)
    → "Blast... It's at last past $1. I'm bereft there's only $2 [hour/hours] left. Your time's as good as up I see, so return the magic doll to me."
  2: 0x0764 [0x23] WAIT_FOR_DIALOG_INTERACTION
  3: 0x0765 [0x29] REQ_SET_WAIT(priority=0x08, entity_id=Moreno-Toeno (ID: 17752117/0x010EE035), tag_num=0x02)
  4: 0x076C [0x45] LOAD_SCHEDULED_TASK: Load scheduler "fdo1" with entities [EventEntity, EventEntity], work=[200*, 0*]
  5: 0x077D [0x1C] WAIT(120* ticks)
  6: 0x0780 [0x1D] PRINT_EVENT_MESSAGE(message_id=7766*)
    → "Reckoning your recorded results..."
  7: 0x0783 [0x23] WAIT_FOR_DIALOG_INTERACTION
  8: 0x0784 [0x45] LOAD_SCHEDULED_TASK: Load scheduler "fdi1" with entities [EventEntity, EventEntity], work=[200*, 0*]
  9: 0x0795 [0x00] END_REQSTACK()
```

### Event 198

#### Metadata

| Field        | Value    |
|--------------|----------|
| Entrypoint   | 0x0796   |
| Data Size    | 41 bytes |
| Instructions | 14       |

```
      00 01 02 03 04 05 06 07  08 09 0A 0B 0C 0D 0E 0F
      -- -- -- -- -- -- -- --  -- -- -- -- -- -- -- --
0790:                   42 1E  F0 FF FF 7F 6F 70 29 0D        B.....op).
07A0: 35 E0 0E 01 23 29 08 35  E0 0E 01 01 1D 2E 80 23  5...#).5.......#
07B0: 1D 2A 80 23 29 08 35 E0  0E 01 02 20 00 21 00     .*.#).5.... .!. 
```

#### Opcodes

```
  0: 0x0796 [0x42] SET_CLI_EVENT_CANCEL_DATA()
  1: 0x0797 [0x1E] EventEntity looks at LocalPlayer and starts talking
  2: 0x079C [0x6F] WAIT_FRAME_DELAY: Yield until WaitTime reaches zero
  3: 0x079D [0x70] WAIT_ENTITY_RENDER_FLAG: Wait while EventEntity->Render.Flags3 bit 2 is set (cancel turn if not)
  4: 0x079E [0x29] REQ_SET_WAIT(priority=0x0D, entity_id=Moreno-Toeno (ID: 17752117/0x010EE035), tag_num=0x23)
  5: 0x07A5 [0x29] REQ_SET_WAIT(priority=0x08, entity_id=Moreno-Toeno (ID: 17752117/0x010EE035), tag_num=0x01)
  6: 0x07AC [0x1D] PRINT_EVENT_MESSAGE(message_id=7767*)
    → "Mysterious! My magic doll must be mucking up...? Current calculations confirm you only defeated $3 monsters in the duration of a day."
  7: 0x07AF [0x23] WAIT_FOR_DIALOG_INTERACTION
  8: 0x07B0 [0x1D] PRINT_EVENT_MESSAGE(message_id=7780*)
    → "Attempt it again after you've, say, significantly strengthened your skills some, eh? Sorry, but against all ambition, I'm failing you on my magician's mission."
  9: 0x07B3 [0x23] WAIT_FOR_DIALOG_INTERACTION
 10: 0x07B4 [0x29] REQ_SET_WAIT(priority=0x08, entity_id=Moreno-Toeno (ID: 17752117/0x010EE035), tag_num=0x02)
 11: 0x07BB [0x20] SET_CLI_EVENT_UC_FLAG: Unlock player control
 12: 0x07BD [0x21] END_EVENT
 13: 0x07BE [0x00] END_REQSTACK()
```

### Event 199

#### Metadata

| Field        | Value    |
|--------------|----------|
| Entrypoint   | 0x07BF   |
| Data Size    | 45 bytes |
| Instructions | 16       |

```
      00 01 02 03 04 05 06 07  08 09 0A 0B 0C 0D 0E 0F
      -- -- -- -- -- -- -- --  -- -- -- -- -- -- -- --
07B0:                                               42                 B
07C0: 1E F0 FF FF 7F 6F 70 29  0D 35 E0 0E 01 23 29 08  .....op).5...#).
07D0: 35 E0 0E 01 01 1D 2F 80  23 1D 30 80 23 1D 2A 80  5...../.#.0.#.*.
07E0: 23 29 08 35 E0 0E 01 02  20 00 21 00              #).5.... .!.    
```

#### Opcodes

```
  0: 0x07BF [0x42] SET_CLI_EVENT_CANCEL_DATA()
  1: 0x07C0 [0x1E] EventEntity looks at LocalPlayer and starts talking
  2: 0x07C5 [0x6F] WAIT_FRAME_DELAY: Yield until WaitTime reaches zero
  3: 0x07C6 [0x70] WAIT_ENTITY_RENDER_FLAG: Wait while EventEntity->Render.Flags3 bit 2 is set (cancel turn if not)
  4: 0x07C7 [0x29] REQ_SET_WAIT(priority=0x0D, entity_id=Moreno-Toeno (ID: 17752117/0x010EE035), tag_num=0x23)
  5: 0x07CE [0x29] REQ_SET_WAIT(priority=0x08, entity_id=Moreno-Toeno (ID: 17752117/0x010EE035), tag_num=0x01)
  6: 0x07D5 [0x1D] PRINT_EVENT_MESSAGE(message_id=7769*)
    → "Current calculations conclude you conquered $3 creatures in the continuance of a day."
  7: 0x07D8 [0x23] WAIT_FOR_DIALOG_INTERACTION
  8: 0x07D9 [0x1D] PRINT_EVENT_MESSAGE(message_id=7770*)
    → "Oh so so-so! <Sigh>...Why, if you were my spry student, you'd only obtain the order of 55 points, pushing it to pass!"
  9: 0x07DC [0x23] WAIT_FOR_DIALOG_INTERACTION
 10: 0x07DD [0x1D] PRINT_EVENT_MESSAGE(message_id=7780*)
    → "Attempt it again after you've, say, significantly strengthened your skills some, eh? Sorry, but against all ambition, I'm failing you on my magician's mission."
 11: 0x07E0 [0x23] WAIT_FOR_DIALOG_INTERACTION
 12: 0x07E1 [0x29] REQ_SET_WAIT(priority=0x08, entity_id=Moreno-Toeno (ID: 17752117/0x010EE035), tag_num=0x02)
 13: 0x07E8 [0x20] SET_CLI_EVENT_UC_FLAG: Unlock player control
 14: 0x07EA [0x21] END_EVENT
 15: 0x07EB [0x00] END_REQSTACK()
```

### Event 200

#### Metadata

| Field        | Value    |
|--------------|----------|
| Entrypoint   | 0x07EC   |
| Data Size    | 62 bytes |
| Instructions | 17       |

```
      00 01 02 03 04 05 06 07  08 09 0A 0B 0C 0D 0E 0F
      -- -- -- -- -- -- -- --  -- -- -- -- -- -- -- --
07E0:                                      42 1E F0 FF              B...
07F0: FF 7F 6F 70 29 0D 35 E0  0E 01 23 29 08 35 E0 0E  ..op).5...#).5..
0800: 01 01 1D 31 80 23 1D 32  80 23 1D 33 80 23 29 08  ...1.#.2.#.3.#).
0810: 35 E0 0E 01 02 45 34 80  F0 FF FF 7F F0 FF FF 7F  5....E4.........
0820: 71 73 74 63 0B 80 20 00  21 00                    qstc.. .!.      
```

#### Opcodes

```
  0: 0x07EC [0x42] SET_CLI_EVENT_CANCEL_DATA()
  1: 0x07ED [0x1E] EventEntity looks at LocalPlayer and starts talking
  2: 0x07F2 [0x6F] WAIT_FRAME_DELAY: Yield until WaitTime reaches zero
  3: 0x07F3 [0x70] WAIT_ENTITY_RENDER_FLAG: Wait while EventEntity->Render.Flags3 bit 2 is set (cancel turn if not)
  4: 0x07F4 [0x29] REQ_SET_WAIT(priority=0x0D, entity_id=Moreno-Toeno (ID: 17752117/0x010EE035), tag_num=0x23)
  5: 0x07FB [0x29] REQ_SET_WAIT(priority=0x08, entity_id=Moreno-Toeno (ID: 17752117/0x010EE035), tag_num=0x01)
  6: 0x0802 [0x1D] PRINT_EVENT_MESSAGE(message_id=7772*)
    → "Current calculations conclude you conquered $3 creatures in the continuance of a day."
  7: 0x0805 [0x23] WAIT_FOR_DIALOG_INTERACTION
  8: 0x0806 [0x1D] PRINT_EVENT_MESSAGE(message_id=7773*)
    → "That implies a passing grade of precisely 85 points, I presume."
  9: 0x0809 [0x23] WAIT_FOR_DIALOG_INTERACTION
 10: 0x080A [0x1D] PRINT_EVENT_MESSAGE(message_id=7774*)
    → "Well then, the next treacherous terrain to try will be the Buburimu Peninsula, I bet. But still, that will have to wait till we've time to kill. Then that's all, thanks."
 11: 0x080D [0x23] WAIT_FOR_DIALOG_INTERACTION
 12: 0x080E [0x29] REQ_SET_WAIT(priority=0x08, entity_id=Moreno-Toeno (ID: 17752117/0x010EE035), tag_num=0x02)
 13: 0x0815 [0x45] LOAD_SCHEDULED_TASK: Load scheduler "qstc" with entities [LocalPlayer, LocalPlayer], work=[201*, 0*]
 14: 0x0826 [0x20] SET_CLI_EVENT_UC_FLAG: Unlock player control
 15: 0x0828 [0x21] END_EVENT
 16: 0x0829 [0x00] END_REQSTACK()
```

### Event 201

#### Metadata

| Field        | Value    |
|--------------|----------|
| Entrypoint   | 0x082A   |
| Data Size    | 62 bytes |
| Instructions | 17       |

```
      00 01 02 03 04 05 06 07  08 09 0A 0B 0C 0D 0E 0F
      -- -- -- -- -- -- -- --  -- -- -- -- -- -- -- --
0820:                                42 1E F0 FF FF 7F            B.....
0830: 6F 70 29 0D 35 E0 0E 01  23 29 08 35 E0 0E 01 01  op).5...#).5....
0840: 1D 35 80 23 1D 36 80 23  1D 37 80 23 29 08 35 E0  .5.#.6.#.7.#).5.
0850: 0E 01 02 45 34 80 F0 FF  FF 7F F0 FF FF 7F 71 73  ...E4.........qs
0860: 74 63 0B 80 20 00 21 00                           tc.. .!.        
```

#### Opcodes

```
  0: 0x082A [0x42] SET_CLI_EVENT_CANCEL_DATA()
  1: 0x082B [0x1E] EventEntity looks at LocalPlayer and starts talking
  2: 0x0830 [0x6F] WAIT_FRAME_DELAY: Yield until WaitTime reaches zero
  3: 0x0831 [0x70] WAIT_ENTITY_RENDER_FLAG: Wait while EventEntity->Render.Flags3 bit 2 is set (cancel turn if not)
  4: 0x0832 [0x29] REQ_SET_WAIT(priority=0x0D, entity_id=Moreno-Toeno (ID: 17752117/0x010EE035), tag_num=0x23)
  5: 0x0839 [0x29] REQ_SET_WAIT(priority=0x08, entity_id=Moreno-Toeno (ID: 17752117/0x010EE035), tag_num=0x01)
  6: 0x0840 [0x1D] PRINT_EVENT_MESSAGE(message_id=7775*)
    → "Current calculations conclude you conquered $3 creatures in the continuance of a day."
  7: 0x0843 [0x23] WAIT_FOR_DIALOG_INTERACTION
  8: 0x0844 [0x1D] PRINT_EVENT_MESSAGE(message_id=7776*)
    → "That's high higher than I had hoped. Well, it wasn't worth worrying with the talk that the monsters have grown potently more powerful lately."
  9: 0x0847 [0x23] WAIT_FOR_DIALOG_INTERACTION
 10: 0x0848 [0x1D] PRINT_EVENT_MESSAGE(message_id=7777*)
    → "The next treacherous terrain to try will be the Buburimu Peninsula, I proceed to presume. But still, that will wait till we've time to kill. Then that's all forthwith, thank thee."
 11: 0x084B [0x23] WAIT_FOR_DIALOG_INTERACTION
 12: 0x084C [0x29] REQ_SET_WAIT(priority=0x08, entity_id=Moreno-Toeno (ID: 17752117/0x010EE035), tag_num=0x02)
 13: 0x0853 [0x45] LOAD_SCHEDULED_TASK: Load scheduler "qstc" with entities [LocalPlayer, LocalPlayer], work=[201*, 0*]
 14: 0x0864 [0x20] SET_CLI_EVENT_UC_FLAG: Unlock player control
 15: 0x0866 [0x21] END_EVENT
 16: 0x0867 [0x00] END_REQSTACK()
```

### Event 204

#### Metadata

| Field        | Value    |
|--------------|----------|
| Entrypoint   | 0x0868   |
| Data Size    | 88 bytes |
| Instructions | 23       |

```
      00 01 02 03 04 05 06 07  08 09 0A 0B 0C 0D 0E 0F
      -- -- -- -- -- -- -- --  -- -- -- -- -- -- -- --
0860:                          1E F0 FF FF 7F 6F 70 02          .....op.
0870: 08 10 23 80 02 8D 08 29  08 35 E0 0E 01 01 1D 21  ..#....).5.....!
0880: 80 23 1D 22 80 23 29 08  35 E0 0E 01 02 29 08 35  .#.".#).5....).5
0890: E0 0E 01 03 02 08 10 0E  80 05 A3 08 1D 38 80 23  .............8.#
08A0: 01 A7 08 1D 39 80 23 29  08 35 E0 0E 01 04 29 08  ....9.#).5....).
08B0: 35 E0 0E 01 05 29 08 35  E0 0E 01 06 20 00 21 00  5....).5.... .!.
```

#### Opcodes

```
  0: 0x0868 [0x1E] EventEntity looks at LocalPlayer and starts talking
  1: 0x086D [0x6F] WAIT_FRAME_DELAY: Yield until WaitTime reaches zero
  2: 0x086E [0x70] WAIT_ENTITY_RENDER_FLAG: Wait while EventEntity->Render.Flags3 bit 2 is set (cancel turn if not)
  3: 0x086F [0x02] IF !(Work_Zone[8] <= 12*) GOTO 0x088D
  4: 0x0877 [0x29] REQ_SET_WAIT(priority=0x08, entity_id=Moreno-Toeno (ID: 17752117/0x010EE035), tag_num=0x01)
  5: 0x087E [0x1D] PRINT_EVENT_MESSAGE(message_id=7781*)
    → "This time, try to maim as many monsters as you may in the insular Buburimu Peninsula today."
  6: 0x0881 [0x23] WAIT_FOR_DIALOG_INTERACTION
  7: 0x0882 [0x1D] PRINT_EVENT_MESSAGE(message_id=7782*)
    → "The charming charm cast on the magic doll disappears in two days. So come back quick before the wizardly works wear off once more."
  8: 0x0885 [0x23] WAIT_FOR_DIALOG_INTERACTION
  9: 0x0886 [0x29] REQ_SET_WAIT(priority=0x08, entity_id=Moreno-Toeno (ID: 17752117/0x010EE035), tag_num=0x02)
 10: 0x088D [0x29] REQ_SET_WAIT(priority=0x08, entity_id=Moreno-Toeno (ID: 17752117/0x010EE035), tag_num=0x03)
 11: 0x0894 [0x02] IF !(Work_Zone[8] > 3*) GOTO 0x08A3
 12: 0x089C [0x1D] PRINT_EVENT_MESSAGE(message_id=7784*)
    → "Gee, I see it after $5 be. Fussed! There's just $6 [hour/hours] to bust. Get along there! Not much longer till the gong, hear?"
 13: 0x089F [0x23] WAIT_FOR_DIALOG_INTERACTION
 14: 0x08A0 [0x01] GOTO 0x08A7
 15: 0x08A3 [0x1D] PRINT_EVENT_MESSAGE(message_id=7783*)
    → "Wow...I avow it's now $5! So, lo, $6 [hour/hours] to go. Sublime! You've plenty of time till the chime."
 16: 0x08A6 [0x23] WAIT_FOR_DIALOG_INTERACTION

SUBROUTINE_08A7:
 17: 0x08A7 [0x29] REQ_SET_WAIT(priority=0x08, entity_id=Moreno-Toeno (ID: 17752117/0x010EE035), tag_num=0x04)
 18: 0x08AE [0x29] REQ_SET_WAIT(priority=0x08, entity_id=Moreno-Toeno (ID: 17752117/0x010EE035), tag_num=0x05)
 19: 0x08B5 [0x29] REQ_SET_WAIT(priority=0x08, entity_id=Moreno-Toeno (ID: 17752117/0x010EE035), tag_num=0x06)
 20: 0x08BC [0x20] SET_CLI_EVENT_UC_FLAG: Unlock player control
 21: 0x08BE [0x21] END_EVENT
 22: 0x08BF [0x00] END_REQSTACK()
```

### Event 205

#### Metadata

| Field        | Value     |
|--------------|-----------|
| Entrypoint   | 0x08C0    |
| Data Size    | 129 bytes |
| Instructions | 26        |

```
      00 01 02 03 04 05 06 07  08 09 0A 0B 0C 0D 0E 0F
      -- -- -- -- -- -- -- --  -- -- -- -- -- -- -- --
08C0: 42 1E F0 FF FF 7F 6F 70  29 08 35 E0 0E 01 01 1D  B.....op).5.....
08D0: 3A 80 23 29 08 35 E0 0E  01 02 45 0A 80 F8 FF FF  :.#).5....E.....
08E0: 7F F8 FF FF 7F 66 64 6F  31 0B 80 1C 0C 80 1D 2D  .....fdo1......-
08F0: 80 23 45 0A 80 F8 FF FF  7F F8 FF FF 7F 66 64 69  .#E..........fdi
0900: 31 0B 80 02 05 10 3B 80  05 1A 09 03 01 10 3C 80  1.....;.......<.
0910: 29 0B 35 E0 0E 01 2A 01  3D 09 02 05 10 3D 80 05  ).5...*.=....=..
0920: 31 09 03 01 10 3E 80 29  0B 35 E0 0E 01 2B 01 3D  1....>.).5...+.=
0930: 09 03 01 10 3F 80 29 0B  35 E0 0E 01 2C 20 00 21  ....?.).5..., .!
0940: 00                                                .               
```

#### Opcodes

```
  0: 0x08C0 [0x42] SET_CLI_EVENT_CANCEL_DATA()
  1: 0x08C1 [0x1E] EventEntity looks at LocalPlayer and starts talking
  2: 0x08C6 [0x6F] WAIT_FRAME_DELAY: Yield until WaitTime reaches zero
  3: 0x08C7 [0x70] WAIT_ENTITY_RENDER_FLAG: Wait while EventEntity->Render.Flags3 bit 2 is set (cancel turn if not)
  4: 0x08C8 [0x29] REQ_SET_WAIT(priority=0x08, entity_id=Moreno-Toeno (ID: 17752117/0x010EE035), tag_num=0x01)
  5: 0x08CF [0x1D] PRINT_EVENT_MESSAGE(message_id=9148*)
    → "Blast... It's past $5 at last. I'm bereft there's less than $6 [hour/hours] left. Your time's as good as up I see, so return the magic doll to me."
  6: 0x08D2 [0x23] WAIT_FOR_DIALOG_INTERACTION
  7: 0x08D3 [0x29] REQ_SET_WAIT(priority=0x08, entity_id=Moreno-Toeno (ID: 17752117/0x010EE035), tag_num=0x02)
  8: 0x08DA [0x45] LOAD_SCHEDULED_TASK: Load scheduler "fdo1" with entities [EventEntity, EventEntity], work=[200*, 0*]
  9: 0x08EB [0x1C] WAIT(60* ticks)
 10: 0x08EE [0x1D] PRINT_EVENT_MESSAGE(message_id=7766*)
    → "Reckoning your recorded results..."
 11: 0x08F1 [0x23] WAIT_FOR_DIALOG_INTERACTION
 12: 0x08F2 [0x45] LOAD_SCHEDULED_TASK: Load scheduler "fdi1" with entities [EventEntity, EventEntity], work=[200*, 0*]
 13: 0x0903 [0x02] IF !(Work_Zone[5] > 19*) GOTO 0x091A
 14: 0x090B [0x03] Work_Zone[1] = 7*
 15: 0x0910 [0x29] REQ_SET_WAIT(priority=0x0B, entity_id=Moreno-Toeno (ID: 17752117/0x010EE035), tag_num=0x2A)
 16: 0x0917 [0x01] GOTO 0x093D
 17: 0x091A [0x02] IF !(Work_Zone[5] > 49*) GOTO 0x0931
 18: 0x0922 [0x03] Work_Zone[1] = 8*
 19: 0x0927 [0x29] REQ_SET_WAIT(priority=0x0B, entity_id=Moreno-Toeno (ID: 17752117/0x010EE035), tag_num=0x2B)
 20: 0x092E [0x01] GOTO 0x093D
 21: 0x0931 [0x03] Work_Zone[1] = 9*
 22: 0x0936 [0x29] REQ_SET_WAIT(priority=0x0B, entity_id=Moreno-Toeno (ID: 17752117/0x010EE035), tag_num=0x2C)

SUBROUTINE_093D:
 23: 0x093D [0x20] SET_CLI_EVENT_UC_FLAG: Unlock player control
 24: 0x093F [0x21] END_EVENT
 25: 0x0940 [0x00] END_REQSTACK()
```

### Event 208

#### Metadata

| Field        | Value    |
|--------------|----------|
| Entrypoint   | 0x0941   |
| Data Size    | 37 bytes |
| Instructions | 14       |

```
      00 01 02 03 04 05 06 07  08 09 0A 0B 0C 0D 0E 0F
      -- -- -- -- -- -- -- --  -- -- -- -- -- -- -- --
0940:    1E F0 FF FF 7F 6F 70  29 08 35 E0 0E 01 01 1D   .....op).5.....
0950: 40 80 23 1D 41 80 23 1D  42 80 23 29 08 35 E0 0E  @.#.A.#.B.#).5..
0960: 01 02 20 00 21 00                                 .. .!.          
```

#### Opcodes

```
  0: 0x0941 [0x1E] EventEntity looks at LocalPlayer and starts talking
  1: 0x0946 [0x6F] WAIT_FRAME_DELAY: Yield until WaitTime reaches zero
  2: 0x0947 [0x70] WAIT_ENTITY_RENDER_FLAG: Wait while EventEntity->Render.Flags3 bit 2 is set (cancel turn if not)
  3: 0x0948 [0x29] REQ_SET_WAIT(priority=0x08, entity_id=Moreno-Toeno (ID: 17752117/0x010EE035), tag_num=0x01)
  4: 0x094F [0x1D] PRINT_EVENT_MESSAGE(message_id=7786*)
    → "Merci... But, hmm, my, how mighty mysterious!? My magic doll must've gone amuck...?"
  5: 0x0952 [0x23] WAIT_FOR_DIALOG_INTERACTION
  6: 0x0953 [0x1D] PRINT_EVENT_MESSAGE(message_id=7787*)
    → "My meticulous math maintains you maimed a mere $3 monsters in two miserable days. Ah, how abominably atrocious!"
  7: 0x0956 [0x23] WAIT_FOR_DIALOG_INTERACTION
  8: 0x0957 [0x1D] PRINT_EVENT_MESSAGE(message_id=7788*)
    → "Attempt it again after you've, say, strengthened your skills some, okay? Sorry, but against all ambition, I'm failing you on the commissioned mission..."
  9: 0x095A [0x23] WAIT_FOR_DIALOG_INTERACTION
 10: 0x095B [0x29] REQ_SET_WAIT(priority=0x08, entity_id=Moreno-Toeno (ID: 17752117/0x010EE035), tag_num=0x02)
 11: 0x0962 [0x20] SET_CLI_EVENT_UC_FLAG: Unlock player control
 12: 0x0964 [0x21] END_EVENT
 13: 0x0965 [0x00] END_REQSTACK()
```

### Event 209

#### Metadata

| Field        | Value    |
|--------------|----------|
| Entrypoint   | 0x0966   |
| Data Size    | 71 bytes |
| Instructions | 19       |

```
      00 01 02 03 04 05 06 07  08 09 0A 0B 0C 0D 0E 0F
      -- -- -- -- -- -- -- --  -- -- -- -- -- -- -- --
0960:                   20 01  42 1E F0 FF FF 7F 6F 70         .B.....op
0970: 29 08 35 E0 0E 01 01 1D  43 80 23 29 08 35 E0 0E  ).5.....C.#).5..
0980: 01 02 29 08 35 E0 0E 01  01 1D 44 80 23 1D 45 80  ..).5.....D.#.E.
0990: 23 29 08 35 E0 0E 01 02  45 34 80 F0 FF FF 7F F0  #).5....E4......
09A0: FF FF 7F 71 73 74 63 0B  80 20 00 21 00           ...qstc.. .!.   
```

#### Opcodes

```
  0: 0x0966 [0x20] SET_CLI_EVENT_UC_FLAG: Lock player control
  1: 0x0968 [0x42] SET_CLI_EVENT_CANCEL_DATA()
  2: 0x0969 [0x1E] EventEntity looks at LocalPlayer and starts talking
  3: 0x096E [0x6F] WAIT_FRAME_DELAY: Yield until WaitTime reaches zero
  4: 0x096F [0x70] WAIT_ENTITY_RENDER_FLAG: Wait while EventEntity->Render.Flags3 bit 2 is set (cancel turn if not)
  5: 0x0970 [0x29] REQ_SET_WAIT(priority=0x08, entity_id=Moreno-Toeno (ID: 17752117/0x010EE035), tag_num=0x01)
  6: 0x0977 [0x1D] PRINT_EVENT_MESSAGE(message_id=7789*)
    → "My diligent determinations declare you defeated $3 despicable deed-doers during the duration of dual days!"
  7: 0x097A [0x23] WAIT_FOR_DIALOG_INTERACTION
  8: 0x097B [0x29] REQ_SET_WAIT(priority=0x08, entity_id=Moreno-Toeno (ID: 17752117/0x010EE035), tag_num=0x02)
  9: 0x0982 [0x29] REQ_SET_WAIT(priority=0x08, entity_id=Moreno-Toeno (ID: 17752117/0x010EE035), tag_num=0x01)
 10: 0x0989 [0x1D] PRINT_EVENT_MESSAGE(message_id=7790*)
    → "Rah-rah! Rather well run there! We'll refer to your results record, sure I am, when we replan our next skills exam!"
 11: 0x098C [0x23] WAIT_FOR_DIALOG_INTERACTION
 12: 0x098D [0x1D] PRINT_EVENT_MESSAGE(message_id=7791*)
    → "We'll give you word when we hold the test, which you're always welcome to watch!"
 13: 0x0990 [0x23] WAIT_FOR_DIALOG_INTERACTION
 14: 0x0991 [0x29] REQ_SET_WAIT(priority=0x08, entity_id=Moreno-Toeno (ID: 17752117/0x010EE035), tag_num=0x02)
 15: 0x0998 [0x45] LOAD_SCHEDULED_TASK: Load scheduler "qstc" with entities [LocalPlayer, LocalPlayer], work=[201*, 0*]
 16: 0x09A9 [0x20] SET_CLI_EVENT_UC_FLAG: Unlock player control
 17: 0x09AB [0x21] END_EVENT
 18: 0x09AC [0x00] END_REQSTACK()
```

### Event 206

#### Metadata

| Field        | Value    |
|--------------|----------|
| Entrypoint   | 0x09AD   |
| Data Size    | 71 bytes |
| Instructions | 19       |

```
      00 01 02 03 04 05 06 07  08 09 0A 0B 0C 0D 0E 0F
      -- -- -- -- -- -- -- --  -- -- -- -- -- -- -- --
09A0:                                         20 01 42                .B
09B0: 1E F0 FF FF 7F 6F 70 29  08 35 E0 0E 01 01 1D 46  .....op).5.....F
09C0: 80 23 29 08 35 E0 0E 01  02 29 08 35 E0 0E 01 01  .#).5....).5....
09D0: 1D 44 80 23 1D 45 80 23  29 08 35 E0 0E 01 02 45  .D.#.E.#).5....E
09E0: 34 80 F0 FF FF 7F F0 FF  FF 7F 71 73 74 63 0B 80  4.........qstc..
09F0: 20 00 21 00                                        .!.            
```

#### Opcodes

```
  0: 0x09AD [0x20] SET_CLI_EVENT_UC_FLAG: Lock player control
  1: 0x09AF [0x42] SET_CLI_EVENT_CANCEL_DATA()
  2: 0x09B0 [0x1E] EventEntity looks at LocalPlayer and starts talking
  3: 0x09B5 [0x6F] WAIT_FRAME_DELAY: Yield until WaitTime reaches zero
  4: 0x09B6 [0x70] WAIT_ENTITY_RENDER_FLAG: Wait while EventEntity->Render.Flags3 bit 2 is set (cancel turn if not)
  5: 0x09B7 [0x29] REQ_SET_WAIT(priority=0x08, entity_id=Moreno-Toeno (ID: 17752117/0x010EE035), tag_num=0x01)
  6: 0x09BE [0x1D] PRINT_EVENT_MESSAGE(message_id=7792*)
    → "My meticulous math maintains you massacred $3 monsters in a matter of days. Ah, you actually are an amazingly able adventurer!"
  7: 0x09C1 [0x23] WAIT_FOR_DIALOG_INTERACTION
  8: 0x09C2 [0x29] REQ_SET_WAIT(priority=0x08, entity_id=Moreno-Toeno (ID: 17752117/0x010EE035), tag_num=0x02)
  9: 0x09C9 [0x29] REQ_SET_WAIT(priority=0x08, entity_id=Moreno-Toeno (ID: 17752117/0x010EE035), tag_num=0x01)
 10: 0x09D0 [0x1D] PRINT_EVENT_MESSAGE(message_id=7790*)
    → "Rah-rah! Rather well run there! We'll refer to your results record, sure I am, when we replan our next skills exam!"
 11: 0x09D3 [0x23] WAIT_FOR_DIALOG_INTERACTION
 12: 0x09D4 [0x1D] PRINT_EVENT_MESSAGE(message_id=7791*)
    → "We'll give you word when we hold the test, which you're always welcome to watch!"
 13: 0x09D7 [0x23] WAIT_FOR_DIALOG_INTERACTION
 14: 0x09D8 [0x29] REQ_SET_WAIT(priority=0x08, entity_id=Moreno-Toeno (ID: 17752117/0x010EE035), tag_num=0x02)
 15: 0x09DF [0x45] LOAD_SCHEDULED_TASK: Load scheduler "qstc" with entities [LocalPlayer, LocalPlayer], work=[201*, 0*]
 16: 0x09F0 [0x20] SET_CLI_EVENT_UC_FLAG: Unlock player control
 17: 0x09F2 [0x21] END_EVENT
 18: 0x09F3 [0x00] END_REQSTACK()
```

### Event 210

#### Metadata

| Field        | Value    |
|--------------|----------|
| Entrypoint   | 0x09F4   |
| Data Size    | 33 bytes |
| Instructions | 12       |

```
      00 01 02 03 04 05 06 07  08 09 0A 0B 0C 0D 0E 0F
      -- -- -- -- -- -- -- --  -- -- -- -- -- -- -- --
09F0:             1E F0 FF FF  7F 6F 70 29 08 35 E0 0E      .....op).5..
0A00: 01 01 1D 44 80 23 1D 45  80 23 29 08 35 E0 0E 01  ...D.#.E.#).5...
0A10: 02 20 00 21 00                                    . .!.           
```

#### Opcodes

```
  0: 0x09F4 [0x1E] EventEntity looks at LocalPlayer and starts talking
  1: 0x09F9 [0x6F] WAIT_FRAME_DELAY: Yield until WaitTime reaches zero
  2: 0x09FA [0x70] WAIT_ENTITY_RENDER_FLAG: Wait while EventEntity->Render.Flags3 bit 2 is set (cancel turn if not)
  3: 0x09FB [0x29] REQ_SET_WAIT(priority=0x08, entity_id=Moreno-Toeno (ID: 17752117/0x010EE035), tag_num=0x01)
  4: 0x0A02 [0x1D] PRINT_EVENT_MESSAGE(message_id=7790*)
    → "Rah-rah! Rather well run there! We'll refer to your results record, sure I am, when we replan our next skills exam!"
  5: 0x0A05 [0x23] WAIT_FOR_DIALOG_INTERACTION
  6: 0x0A06 [0x1D] PRINT_EVENT_MESSAGE(message_id=7791*)
    → "We'll give you word when we hold the test, which you're always welcome to watch!"
  7: 0x0A09 [0x23] WAIT_FOR_DIALOG_INTERACTION
  8: 0x0A0A [0x29] REQ_SET_WAIT(priority=0x08, entity_id=Moreno-Toeno (ID: 17752117/0x010EE035), tag_num=0x02)
  9: 0x0A11 [0x20] SET_CLI_EVENT_UC_FLAG: Unlock player control
 10: 0x0A13 [0x21] END_EVENT
 11: 0x0A14 [0x00] END_REQSTACK()
```

### Event 437

#### Metadata

| Field        | Value    |
|--------------|----------|
| Entrypoint   | 0x0A15   |
| Data Size    | 33 bytes |
| Instructions | 12       |

```
      00 01 02 03 04 05 06 07  08 09 0A 0B 0C 0D 0E 0F
      -- -- -- -- -- -- -- --  -- -- -- -- -- -- -- --
0A10:                1E F0 FF  FF 7F 6F 70 29 08 35 E0       .....op).5.
0A20: 0E 01 01 1D 47 80 23 1D  48 80 23 29 08 35 E0 0E  ....G.#.H.#).5..
0A30: 01 02 20 00 21 00                                 .. .!.          
```

#### Opcodes

```
  0: 0x0A15 [0x1E] EventEntity looks at LocalPlayer and starts talking
  1: 0x0A1A [0x6F] WAIT_FRAME_DELAY: Yield until WaitTime reaches zero
  2: 0x0A1B [0x70] WAIT_ENTITY_RENDER_FLAG: Wait while EventEntity->Render.Flags3 bit 2 is set (cancel turn if not)
  3: 0x0A1C [0x29] REQ_SET_WAIT(priority=0x08, entity_id=Moreno-Toeno (ID: 17752117/0x010EE035), tag_num=0x01)
  4: 0x0A23 [0x1D] PRINT_EVENT_MESSAGE(message_id=8364*)
    → "Hey, how dare you there! You mustn't touch my teaching materials!"
  5: 0x0A26 [0x23] WAIT_FOR_DIALOG_INTERACTION
  6: 0x0A27 [0x1D] PRINT_EVENT_MESSAGE(message_id=8365*)
    → "Huff! I don't have enough stuff as it is. Fumble-mumble-grumble..."
  7: 0x0A2A [0x23] WAIT_FOR_DIALOG_INTERACTION
  8: 0x0A2B [0x29] REQ_SET_WAIT(priority=0x08, entity_id=Moreno-Toeno (ID: 17752117/0x010EE035), tag_num=0x02)
  9: 0x0A32 [0x20] SET_CLI_EVENT_UC_FLAG: Unlock player control
 10: 0x0A34 [0x21] END_EVENT
 11: 0x0A35 [0x00] END_REQSTACK()
```

### Event 438

#### Metadata

| Field        | Value    |
|--------------|----------|
| Entrypoint   | 0x0A36   |
| Data Size    | 79 bytes |
| Instructions | 18       |

```
      00 01 02 03 04 05 06 07  08 09 0A 0B 0C 0D 0E 0F
      -- -- -- -- -- -- -- --  -- -- -- -- -- -- -- --
0A30:                   1E F0  FF FF 7F 6F 70 29 0B 35        .....op).5
0A40: E0 0E 01 30 24 49 80 0B  80 0B 80 25 02 00 10 0B  ...0$I.....%....
0A50: 80 00 6A 0A 03 01 10 0B  80 29 0B 35 E0 0E 01 32  ..j......).5...2
0A60: 29 0B 35 E0 0E 01 33 01  81 0A 02 00 10 04 80 00  ).5...3.........
0A70: 81 0A 03 01 10 04 80 29  0B 35 E0 0E 01 31 01 81  .......).5...1..
0A80: 0A 20 00 21 00                                    . .!.           
```

#### Opcodes

```
  0: 0x0A36 [0x1E] EventEntity looks at LocalPlayer and starts talking
  1: 0x0A3B [0x6F] WAIT_FRAME_DELAY: Yield until WaitTime reaches zero
  2: 0x0A3C [0x70] WAIT_ENTITY_RENDER_FLAG: Wait while EventEntity->Render.Flags3 bit 2 is set (cancel turn if not)
  3: 0x0A3D [0x29] REQ_SET_WAIT(priority=0x0B, entity_id=Moreno-Toeno (ID: 17752117/0x010EE035), tag_num=0x30)
  4: 0x0A44 [0x24] CREATE_DIALOG(message_id=8367*, default_option=0*, option_flags=0*)
    → "Hear his humble mumble? [Listlessly listen./Downright decline.]"
  5: 0x0A4B [0x25] WAIT_DIALOG_SELECT()
  6: 0x0A4C [0x02] IF !(Work_Zone[0] == 0*) GOTO 0x0A6A
  7: 0x0A54 [0x03] Work_Zone[1] = 0*
