# 17752147 - Kyume-Romeh

## Common Data

| Field            | Value                     |
|------------------|---------------------------|
| Zone             | Windurst Waters (ID: 238) |
| Block Size       | 2216 bytes                |
| Total Events     | 88                        |
| References Count | 50                        |

## List of Events

| Event ID                   | Entrypoint   |   Size |   Instructions |
|----------------------------|--------------|--------|----------------|
| [65535](#event-65535)      | 0x0000       |      1 |              1 |
| [65535.1](#event-655351)   | 0x0001       |     16 |              2 |
| [65535.2](#event-655352)   | 0x0011       |     42 |              4 |
| [65535.3](#event-655353)   | 0x003B       |     16 |              2 |
| [65535.4](#event-655354)   | 0x004B       |     14 |              2 |
| [65535.5](#event-655355)   | 0x0059       |     16 |              2 |
| [65535.6](#event-655356)   | 0x0069       |     14 |              2 |
| [65535.7](#event-655357)   | 0x0077       |     16 |              2 |
| [65535.8](#event-655358)   | 0x0087       |     14 |              2 |
| [65535.9](#event-655359)   | 0x0095       |     16 |              2 |
| [65535.10](#event-6553510) | 0x00A5       |     14 |              2 |
| [65535.11](#event-6553511) | 0x00B3       |     16 |              2 |
| [65535.12](#event-6553512) | 0x00C3       |     14 |              2 |
| [65535.13](#event-6553513) | 0x00D1       |     16 |              2 |
| [65535.14](#event-6553514) | 0x00E1       |     14 |              2 |
| [65535.15](#event-6553515) | 0x00EF       |     16 |              2 |
| [65535.16](#event-6553516) | 0x00FF       |     14 |              2 |
| [65535.17](#event-6553517) | 0x010D       |     16 |              2 |
| [65535.18](#event-6553518) | 0x011D       |     14 |              2 |
| [65535.19](#event-6553519) | 0x012B       |     16 |              2 |
| [65535.20](#event-6553520) | 0x013B       |     22 |              4 |
| [65535.21](#event-6553521) | 0x0151       |     16 |              2 |
| [65535.22](#event-6553522) | 0x0161       |     14 |              2 |
| [65535.23](#event-6553523) | 0x016F       |     16 |              2 |
| [65535.24](#event-6553524) | 0x017F       |     14 |              2 |
| [65535.25](#event-6553525) | 0x018D       |     16 |              2 |
| [65535.26](#event-6553526) | 0x019D       |     22 |              4 |
| [65535.27](#event-6553527) | 0x01B3       |     16 |              2 |
| [65535.28](#event-6553528) | 0x01C3       |     14 |              2 |
| [65535.29](#event-6553529) | 0x01D1       |     16 |              2 |
| [65535.30](#event-6553530) | 0x01E1       |     14 |              2 |
| [65535.31](#event-6553531) | 0x01EF       |     16 |              2 |
| [65535.32](#event-6553532) | 0x01FF       |     14 |              2 |
| [65535.33](#event-6553533) | 0x020D       |     16 |              2 |
| [65535.34](#event-6553534) | 0x021D       |     14 |              2 |
| [65535.35](#event-6553535) | 0x022B       |     16 |              2 |
| [65535.36](#event-6553536) | 0x023B       |     14 |              2 |
| [65535.37](#event-6553537) | 0x0249       |     16 |              2 |
| [65535.38](#event-6553538) | 0x0259       |     14 |              2 |
| [65535.39](#event-6553539) | 0x0267       |     16 |              2 |
| [65535.40](#event-6553540) | 0x0277       |     14 |              2 |
| [65535.41](#event-6553541) | 0x0285       |     16 |              2 |
| [65535.42](#event-6553542) | 0x0295       |     22 |              4 |
| [65535.43](#event-6553543) | 0x02AB       |     44 |              4 |
| [65535.44](#event-6553544) | 0x02D7       |     16 |              2 |
| [65535.45](#event-6553545) | 0x02E7       |     14 |              2 |
| [65535.46](#event-6553546) | 0x02F5       |     18 |              4 |
| [65535.47](#event-6553547) | 0x0307       |     18 |              4 |
| [65535.48](#event-6553548) | 0x0319       |     18 |              4 |
| [65535.49](#event-6553549) | 0x032B       |     18 |              4 |
| [65535.50](#event-6553550) | 0x033D       |     18 |              4 |
| [65535.51](#event-6553551) | 0x034F       |     27 |              3 |
| [65535.52](#event-6553552) | 0x036A       |      9 |              3 |
| [65535.53](#event-6553553) | 0x0373       |     16 |              2 |
| [65535.54](#event-6553554) | 0x0383       |     14 |              2 |
| [65535.55](#event-6553555) | 0x0391       |     16 |              2 |
| [65535.56](#event-6553556) | 0x03A1       |     14 |              2 |
| [65535.57](#event-6553557) | 0x03AF       |     16 |              2 |
| [65535.58](#event-6553558) | 0x03BF       |     14 |              2 |
| [65535.59](#event-6553559) | 0x03CD       |     16 |              2 |
| [65535.60](#event-6553560) | 0x03DD       |     14 |              2 |
| [65535.61](#event-6553561) | 0x03EB       |     16 |              2 |
| [65535.62](#event-6553562) | 0x03FB       |     14 |              2 |
| [65535.63](#event-6553563) | 0x0409       |     16 |              2 |
| [65535.64](#event-6553564) | 0x0419       |     14 |              2 |
| [65535.65](#event-6553565) | 0x0427       |     16 |              2 |
| [65535.66](#event-6553566) | 0x0437       |     14 |              2 |
| [65535.67](#event-6553567) | 0x0445       |     16 |              2 |
| [65535.68](#event-6553568) | 0x0455       |     14 |              2 |
| [65535.69](#event-6553569) | 0x0463       |     16 |              2 |
| [65535.70](#event-6553570) | 0x0473       |     14 |              2 |
| [604](#event-604)          | 0x0481       |     33 |             12 |
| [939](#event-939)          | 0x04A2       |     52 |             12 |
| [393](#event-393)          | 0x04D6       |     37 |             14 |
| [60](#event-60)            | 0x04FB       |     33 |             12 |
| [668](#event-668)          | 0x051C       |     83 |             22 |
| [669](#event-669)          | 0x056F       |     33 |             12 |
| [638](#event-638)          | 0x0590       |      1 |              1 |
| [873](#event-873)          | 0x0591       |      9 |              3 |
| [878](#event-878)          | 0x059A       |     29 |             10 |
| [874](#event-874)          | 0x05B7       |     15 |              4 |
| [65535.71](#event-6553571) | 0x05C6       |     10 |              2 |
| [65535.72](#event-6553572) | 0x05D0       |     22 |              8 |
| [65535.73](#event-6553573) | 0x05E6       |     15 |              5 |
| [65535.74](#event-6553574) | 0x05F5       |     10 |              2 |
| [65535.75](#event-6553575) | 0x05FF       |     24 |             10 |
| [65535.76](#event-6553576) | 0x0617       |     24 |              6 |
| [891](#event-891)          | 0x062F       |     65 |             18 |

## DAT References (imed_data)

|   Index | Hex Value   |   Dec Value |
|---------|-------------|-------------|
|       0 | 0x0028      |          40 |
|       1 | 0x0029      |          41 |
|       2 | 0x003C      |          60 |
|       3 | 0x002A      |          42 |
|       4 | 0x0001      |           1 |
|       5 | 0x0007      |           7 |
|       6 | 0x0006      |           6 |
|       7 | 0x0008      |           8 |
|       8 | 0x000D      |          13 |
|       9 | 0x002B      |          43 |
|      10 | 0x01AE      |         430 |
|      11 | 0x01AF      |         431 |
|      12 | 0x002E      |          46 |
|      13 | 0x22AE      |        8878 |
|      14 | 0x22AF      |        8879 |
|      15 | 0x2FFE      |       12286 |
|      16 | 0x001E      |          30 |
|      17 | 0x3007      |       12295 |
|      18 | 0x3008      |       12296 |
|      19 | 0x202F      |        8239 |
|      20 | 0x2030      |        8240 |
|      21 | 0x2031      |        8241 |
|      22 | 0x1CEB      |        7403 |
|      23 | 0x1CEC      |        7404 |
|      24 | 0x2383      |        9091 |
|      25 | 0x2384      |        9092 |
|      26 | 0x2385      |        9093 |
|      27 | 0x2386      |        9094 |
|      28 | 0x2387      |        9095 |
|      29 | 0x2388      |        9096 |
|      30 | 0x2901      |       10497 |
|      31 | 0xFFFD22F5  |  4294779637 |
|      32 | 0xFFFE3EF3  |  4294852339 |
|      33 | 0xFFFFD85A  |  4294957146 |
|      34 | 0x0821      |        2081 |
|      35 | 0xFFFD04AE  |  4294771886 |
|      36 | 0xFFFE3D0A  |  4294851850 |
|      37 | 0xFFFD1FD5  |  4294778837 |
|      38 | 0xFFFE3709  |  4294850313 |
|      39 | 0x0CC8      |        3272 |
|      40 | 0x0046      |          70 |
|      41 | 0x0032      |          50 |
|      42 | 0xFFFD2F06  |  4294782726 |
|      43 | 0xFFFE4474  |  4294853748 |
|      44 | 0xFFFD317C  |  4294783356 |
|      45 | 0xFFFE75F2  |  4294866418 |
|      46 | 0xFFFFEED0  |  4294962896 |
|      47 | 0x292D      |       10541 |
|      48 | 0x292E      |       10542 |
|      49 | 0x292F      |       10543 |

## String References

- **7403**: Munch-munch...gloomph...bellllch! That is an intriguing hat you have there!
- **7404**: Hey, that could make a great story! Thanks, that's my scoop of the day!
- **8239**: Munch-munch...chew-chew... What's that? You have a question you want to ask me, the walking library?
- **8240**: Oh, that's easy-weasy. Orn, the Hume gentleman you're referring to, is a traveler who's staying in the hostelry room right above us.
- **8241**: You disturbed my custard, cake, and jelly for such a trifling matter? Munch-munch...chew-chew...
- **8878**: Munch-munch...chew-chew... What's that? You have a question you want to ask me, the man on the spot?
- **8879**: I'm the ace reporter for the "Magic Paradise Weekly." Why, I don't even have to move a finger. All the news just comes to me. Munch-munch...chew-chew...
- **9091**: Munch-munch...chew-chew... What's that? You have a question you want to ask me, the man on the spot?
- **9092**: ...? Naiko-Paneiko? <choke>-<gasp>-<burp>!
- **9093**: Don't ever mention my editor's name while I'm enjoying my steak! I have a beef with him!
- **9094**: I'm busy eating here. If you can handle it, I'll give you my scoop. So bowl outta here or we'll both be in the soup!
- **9095**: Don't cheese me off by mentioning my editor's name while I'm enjoying fondue!
- **9096**: I've forked over my scoop to you, so take it back to him. Come on... Chop chop! Act like a whisk and beat it!
- **10497**: ...And that's when they took off towards the south part of Windurst Waters. Munch-munch...chew-chew...
- **10541**: Munch-munch...chew-chew... I was able to find out all sorts of juicy details from that article.
- **10542**: But I'll have to skip lunch to investigate justaru how authentic this story really is...munch-munch...
- **10543**: If you're looking for those three Tarutaru, they headed for the air travel agency. If I recall, there's a reporter around that area who works for the same boss as the man on the spot...chew-chew...
- **12286**: <Player>'s badge flashes brightly.
- **12295**: Munch-munch...chew-chew... What's that? Something about "Aht Urhgan"? I heard that the beastmen there are crazy-wazy! Rumor has it that they even attack the towns sometimes!
- **12296**: If I could just go there on a business trip, I'd have enough scoops to last the rest of my life! Then again, if the rumors are true, that might not be very long!

## Events

### Event 65535

#### Metadata

| Field        | Value   |
|--------------|---------|
| Entrypoint   | 0x0000  |
| Data Size    | 1 bytes |
| Instructions | 1       |

```
      00 01 02 03 04 05 06 07  08 09 0A 0B 0C 0D 0E 0F
      -- -- -- -- -- -- -- --  -- -- -- -- -- -- -- --
0000: 00                                                .               
```

#### Opcodes

```
  0: 0x0000 [0x00] END_REQSTACK()
```

### Event 65535.1

#### Metadata

| Field        | Value    |
|--------------|----------|
| Entrypoint   | 0x0001   |
| Data Size    | 16 bytes |
| Instructions | 2        |

```
      00 01 02 03 04 05 06 07  08 09 0A 0B 0C 0D 0E 0F
      -- -- -- -- -- -- -- --  -- -- -- -- -- -- -- --
0000:    66 00 80 F8 FF FF 7F  F8 FF FF 7F 74 6C 6B 30   f..........tlk0
0010: 00                                                .               
```

#### Opcodes

```
  0: 0x0001 [0x66] LOAD_EXT_SCHEDULER_MAIN: Load scheduler "tlk0" with entities [EventEntity, EventEntity], work=40*
  1: 0x0010 [0x00] END_REQSTACK()
```

### Event 65535.2

#### Metadata

| Field        | Value    |
|--------------|----------|
| Entrypoint   | 0x0011   |
| Data Size    | 42 bytes |
| Instructions | 4        |

```
      00 01 02 03 04 05 06 07  08 09 0A 0B 0C 0D 0E 0F
      -- -- -- -- -- -- -- --  -- -- -- -- -- -- -- --
0010:    53 F8 FF FF 7F F8 FF  FF 7F 74 6C 6B 30 66 00   S........tlk0f.
0020: 80 F8 FF FF 7F F8 FF FF  7F 74 6C 6B 31 53 F8 FF  .........tlk1S..
0030: FF 7F F8 FF FF 7F 74 6C  6B 31 00                 ......tlk1.     
```

#### Opcodes

```
  0: 0x0011 [0x53] WAIT_SCHEDULER_TASK: Wait for scheduler "tlk0" with entities [EventEntity, EventEntity]
  1: 0x001E [0x66] LOAD_EXT_SCHEDULER_MAIN: Load scheduler "tlk1" with entities [EventEntity, EventEntity], work=40*
  2: 0x002D [0x53] WAIT_SCHEDULER_TASK: Wait for scheduler "tlk1" with entities [EventEntity, EventEntity]
  3: 0x003A [0x00] END_REQSTACK()
```

### Event 65535.3

#### Metadata

| Field        | Value    |
|--------------|----------|
| Entrypoint   | 0x003B   |
| Data Size    | 16 bytes |
| Instructions | 2        |

```
      00 01 02 03 04 05 06 07  08 09 0A 0B 0C 0D 0E 0F
      -- -- -- -- -- -- -- --  -- -- -- -- -- -- -- --
0030:                                   66 00 80 F8 FF             f....
0040: FF 7F F8 FF FF 7F 74 68  6B 31 00                 ......thk1.     
```

#### Opcodes

```
  0: 0x003B [0x66] LOAD_EXT_SCHEDULER_MAIN: Load scheduler "thk1" with entities [EventEntity, EventEntity], work=40*
  1: 0x004A [0x00] END_REQSTACK()
```

### Event 65535.4

#### Metadata

| Field        | Value    |
|--------------|----------|
| Entrypoint   | 0x004B   |
| Data Size    | 14 bytes |
| Instructions | 2        |

```
      00 01 02 03 04 05 06 07  08 09 0A 0B 0C 0D 0E 0F
      -- -- -- -- -- -- -- --  -- -- -- -- -- -- -- --
0040:                                   53 F8 FF FF 7F             S....
0050: F8 FF FF 7F 74 68 6B 31  00                       ....thk1.       
```

#### Opcodes

```
  0: 0x004B [0x53] WAIT_SCHEDULER_TASK: Wait for scheduler "thk1" with entities [EventEntity, EventEntity]
  1: 0x0058 [0x00] END_REQSTACK()
```

### Event 65535.5

#### Metadata

| Field        | Value    |
|--------------|----------|
| Entrypoint   | 0x0059   |
| Data Size    | 16 bytes |
| Instructions | 2        |

```
      00 01 02 03 04 05 06 07  08 09 0A 0B 0C 0D 0E 0F
      -- -- -- -- -- -- -- --  -- -- -- -- -- -- -- --
0050:                             66 00 80 F8 FF FF 7F           f......
0060: F8 FF FF 7F 74 68 6B 32  00                       ....thk2.       
```

#### Opcodes

```
  0: 0x0059 [0x66] LOAD_EXT_SCHEDULER_MAIN: Load scheduler "thk2" with entities [EventEntity, EventEntity], work=40*
  1: 0x0068 [0x00] END_REQSTACK()
```

### Event 65535.6

#### Metadata

| Field        | Value    |
|--------------|----------|
| Entrypoint   | 0x0069   |
| Data Size    | 14 bytes |
| Instructions | 2        |

```
      00 01 02 03 04 05 06 07  08 09 0A 0B 0C 0D 0E 0F
      -- -- -- -- -- -- -- --  -- -- -- -- -- -- -- --
0060:                             53 F8 FF FF 7F F8 FF           S......
0070: FF 7F 74 68 6B 32 00                              ..thk2.         
```

#### Opcodes

```
  0: 0x0069 [0x53] WAIT_SCHEDULER_TASK: Wait for scheduler "thk2" with entities [EventEntity, EventEntity]
  1: 0x0076 [0x00] END_REQSTACK()
```

### Event 65535.7

#### Metadata

| Field        | Value    |
|--------------|----------|
| Entrypoint   | 0x0077   |
| Data Size    | 16 bytes |
| Instructions | 2        |

```
      00 01 02 03 04 05 06 07  08 09 0A 0B 0C 0D 0E 0F
      -- -- -- -- -- -- -- --  -- -- -- -- -- -- -- --
0070:                      66  01 80 F8 FF FF 7F F8 FF         f........
0080: FF 7F 73 68 6B 30 00                              ..shk0.         
```

#### Opcodes

```
  0: 0x0077 [0x66] LOAD_EXT_SCHEDULER_MAIN: Load scheduler "shk0" with entities [EventEntity, EventEntity], work=41*
  1: 0x0086 [0x00] END_REQSTACK()
```

### Event 65535.8

#### Metadata

| Field        | Value    |
|--------------|----------|
| Entrypoint   | 0x0087   |
| Data Size    | 14 bytes |
| Instructions | 2        |

```
      00 01 02 03 04 05 06 07  08 09 0A 0B 0C 0D 0E 0F
      -- -- -- -- -- -- -- --  -- -- -- -- -- -- -- --
0080:                      53  F8 FF FF 7F F8 FF FF 7F         S........
0090: 73 68 6B 30 00                                    shk0.           
```

#### Opcodes

```
  0: 0x0087 [0x53] WAIT_SCHEDULER_TASK: Wait for scheduler "shk0" with entities [EventEntity, EventEntity]
  1: 0x0094 [0x00] END_REQSTACK()
```

### Event 65535.9

#### Metadata

| Field        | Value    |
|--------------|----------|
| Entrypoint   | 0x0095   |
| Data Size    | 16 bytes |
| Instructions | 2        |

```
      00 01 02 03 04 05 06 07  08 09 0A 0B 0C 0D 0E 0F
      -- -- -- -- -- -- -- --  -- -- -- -- -- -- -- --
0090:                66 00 80  F8 FF FF 7F F8 FF FF 7F       f..........
00A0: 64 69 73 30 00                                    dis0.           
```

#### Opcodes

```
  0: 0x0095 [0x66] LOAD_EXT_SCHEDULER_MAIN: Load scheduler "dis0" with entities [EventEntity, EventEntity], work=40*
  1: 0x00A4 [0x00] END_REQSTACK()
```

### Event 65535.10

#### Metadata

| Field        | Value    |
|--------------|----------|
| Entrypoint   | 0x00A5   |
| Data Size    | 14 bytes |
| Instructions | 2        |

```
      00 01 02 03 04 05 06 07  08 09 0A 0B 0C 0D 0E 0F
      -- -- -- -- -- -- -- --  -- -- -- -- -- -- -- --
00A0:                53 F8 FF  FF 7F F8 FF FF 7F 64 69       S........di
00B0: 73 30 00                                          s0.             
```

#### Opcodes

```
  0: 0x00A5 [0x53] WAIT_SCHEDULER_TASK: Wait for scheduler "dis0" with entities [EventEntity, EventEntity]
  1: 0x00B2 [0x00] END_REQSTACK()
```

### Event 65535.11

#### Metadata

| Field        | Value    |
|--------------|----------|
| Entrypoint   | 0x00B3   |
| Data Size    | 16 bytes |
| Instructions | 2        |

```
      00 01 02 03 04 05 06 07  08 09 0A 0B 0C 0D 0E 0F
      -- -- -- -- -- -- -- --  -- -- -- -- -- -- -- --
00B0:          66 00 80 F8 FF  FF 7F F8 FF FF 7F 70 6F     f..........po
00C0: 69 30 00                                          i0.             
```

#### Opcodes

```
  0: 0x00B3 [0x66] LOAD_EXT_SCHEDULER_MAIN: Load scheduler "poi0" with entities [EventEntity, EventEntity], work=40*
  1: 0x00C2 [0x00] END_REQSTACK()
```

### Event 65535.12

#### Metadata

| Field        | Value    |
|--------------|----------|
| Entrypoint   | 0x00C3   |
| Data Size    | 14 bytes |
| Instructions | 2        |

```
      00 01 02 03 04 05 06 07  08 09 0A 0B 0C 0D 0E 0F
      -- -- -- -- -- -- -- --  -- -- -- -- -- -- -- --
00C0:          53 F8 FF FF 7F  F8 FF FF 7F 70 6F 69 30     S........poi0
00D0: 00                                                .               
```

#### Opcodes

```
  0: 0x00C3 [0x53] WAIT_SCHEDULER_TASK: Wait for scheduler "poi0" with entities [EventEntity, EventEntity]
  1: 0x00D0 [0x00] END_REQSTACK()
```

### Event 65535.13

#### Metadata

| Field        | Value    |
|--------------|----------|
| Entrypoint   | 0x00D1   |
| Data Size    | 16 bytes |
| Instructions | 2        |

```
      00 01 02 03 04 05 06 07  08 09 0A 0B 0C 0D 0E 0F
      -- -- -- -- -- -- -- --  -- -- -- -- -- -- -- --
00D0:    66 00 80 F8 FF FF 7F  F8 FF FF 7F 70 61 73 30   f..........pas0
00E0: 00                                                .               
```

#### Opcodes

```
  0: 0x00D1 [0x66] LOAD_EXT_SCHEDULER_MAIN: Load scheduler "pas0" with entities [EventEntity, EventEntity], work=40*
  1: 0x00E0 [0x00] END_REQSTACK()
```

### Event 65535.14

#### Metadata

| Field        | Value    |
|--------------|----------|
| Entrypoint   | 0x00E1   |
| Data Size    | 14 bytes |
| Instructions | 2        |

```
      00 01 02 03 04 05 06 07  08 09 0A 0B 0C 0D 0E 0F
      -- -- -- -- -- -- -- --  -- -- -- -- -- -- -- --
00E0:    53 F8 FF FF 7F F8 FF  FF 7F 70 61 73 30 00      S........pas0. 
```

#### Opcodes

```
  0: 0x00E1 [0x53] WAIT_SCHEDULER_TASK: Wait for scheduler "pas0" with entities [EventEntity, EventEntity]
  1: 0x00EE [0x00] END_REQSTACK()
```

### Event 65535.15

#### Metadata

| Field        | Value    |
|--------------|----------|
| Entrypoint   | 0x00EF   |
| Data Size    | 16 bytes |
| Instructions | 2        |

```
      00 01 02 03 04 05 06 07  08 09 0A 0B 0C 0D 0E 0F
      -- -- -- -- -- -- -- --  -- -- -- -- -- -- -- --
00E0:                                               66                 f
00F0: 00 80 F8 FF FF 7F F8 FF  FF 7F 73 79 75 30 00     ..........syu0. 
```

#### Opcodes

```
  0: 0x00EF [0x66] LOAD_EXT_SCHEDULER_MAIN: Load scheduler "syu0" with entities [EventEntity, EventEntity], work=40*
  1: 0x00FE [0x00] END_REQSTACK()
```

### Event 65535.16

#### Metadata

| Field        | Value    |
|--------------|----------|
| Entrypoint   | 0x00FF   |
| Data Size    | 14 bytes |
| Instructions | 2        |

```
      00 01 02 03 04 05 06 07  08 09 0A 0B 0C 0D 0E 0F
      -- -- -- -- -- -- -- --  -- -- -- -- -- -- -- --
00F0:                                               53                 S
0100: F8 FF FF 7F F8 FF FF 7F  73 79 75 30 00           ........syu0.   
```

#### Opcodes

```
  0: 0x00FF [0x53] WAIT_SCHEDULER_TASK: Wait for scheduler "syu0" with entities [EventEntity, EventEntity]
  1: 0x010C [0x00] END_REQSTACK()
```

### Event 65535.17

#### Metadata

| Field        | Value    |
|--------------|----------|
| Entrypoint   | 0x010D   |
| Data Size    | 16 bytes |
| Instructions | 2        |

```
      00 01 02 03 04 05 06 07  08 09 0A 0B 0C 0D 0E 0F
      -- -- -- -- -- -- -- --  -- -- -- -- -- -- -- --
0100:                                         66 00 80               f..
0110: F8 FF FF 7F F8 FF FF 7F  77 61 76 30 00           ........wav0.   
```

#### Opcodes

```
  0: 0x010D [0x66] LOAD_EXT_SCHEDULER_MAIN: Load scheduler "wav0" with entities [EventEntity, EventEntity], work=40*
  1: 0x011C [0x00] END_REQSTACK()
```

### Event 65535.18

#### Metadata

| Field        | Value    |
|--------------|----------|
| Entrypoint   | 0x011D   |
| Data Size    | 14 bytes |
| Instructions | 2        |

```
      00 01 02 03 04 05 06 07  08 09 0A 0B 0C 0D 0E 0F
      -- -- -- -- -- -- -- --  -- -- -- -- -- -- -- --
0110:                                         53 F8 FF               S..
0120: FF 7F F8 FF FF 7F 77 61  76 30 00                 ......wav0.     
```

#### Opcodes

```
  0: 0x011D [0x53] WAIT_SCHEDULER_TASK: Wait for scheduler "wav0" with entities [EventEntity, EventEntity]
  1: 0x012A [0x00] END_REQSTACK()
```

### Event 65535.19

#### Metadata

| Field        | Value    |
|--------------|----------|
| Entrypoint   | 0x012B   |
| Data Size    | 16 bytes |
| Instructions | 2        |

```
      00 01 02 03 04 05 06 07  08 09 0A 0B 0C 0D 0E 0F
      -- -- -- -- -- -- -- --  -- -- -- -- -- -- -- --
0120:                                   66 01 80 F8 FF             f....
0130: FF 7F F8 FF FF 7F 65 68  6E 30 00                 ......ehn0.     
```

#### Opcodes

```
  0: 0x012B [0x66] LOAD_EXT_SCHEDULER_MAIN: Load scheduler "ehn0" with entities [EventEntity, EventEntity], work=41*
  1: 0x013A [0x00] END_REQSTACK()
```

### Event 65535.20

#### Metadata

| Field        | Value    |
|--------------|----------|
| Entrypoint   | 0x013B   |
| Data Size    | 22 bytes |
| Instructions | 4        |

```
      00 01 02 03 04 05 06 07  08 09 0A 0B 0C 0D 0E 0F
      -- -- -- -- -- -- -- --  -- -- -- -- -- -- -- --
0130:                                   53 F8 FF FF 7F             S....
0140: F8 FF FF 7F 65 68 6E 30  5E 69 64 6C 30 1C 02 80  ....ehn0^idl0...
0150: 00                                                .               
```

#### Opcodes

```
  0: 0x013B [0x53] WAIT_SCHEDULER_TASK: Wait for scheduler "ehn0" with entities [EventEntity, EventEntity]
  1: 0x0148 [0x5E] EventEntity goes idle (kills current action) (animation: "idl0")
  2: 0x014D [0x1C] WAIT(60* ticks)
  3: 0x0150 [0x00] END_REQSTACK()
```

### Event 65535.21

#### Metadata

| Field        | Value    |
|--------------|----------|
| Entrypoint   | 0x0151   |
| Data Size    | 16 bytes |
| Instructions | 2        |

```
      00 01 02 03 04 05 06 07  08 09 0A 0B 0C 0D 0E 0F
      -- -- -- -- -- -- -- --  -- -- -- -- -- -- -- --
0150:    66 01 80 F8 FF FF 7F  F8 FF FF 7F 65 68 6E 31   f..........ehn1
0160: 00                                                .               
```

#### Opcodes

```
  0: 0x0151 [0x66] LOAD_EXT_SCHEDULER_MAIN: Load scheduler "ehn1" with entities [EventEntity, EventEntity], work=41*
  1: 0x0160 [0x00] END_REQSTACK()
```

### Event 65535.22

#### Metadata

| Field        | Value    |
|--------------|----------|
| Entrypoint   | 0x0161   |
| Data Size    | 14 bytes |
| Instructions | 2        |

```
      00 01 02 03 04 05 06 07  08 09 0A 0B 0C 0D 0E 0F
      -- -- -- -- -- -- -- --  -- -- -- -- -- -- -- --
0160:    53 F8 FF FF 7F F8 FF  FF 7F 65 68 6E 31 00      S........ehn1. 
```

#### Opcodes

```
  0: 0x0161 [0x53] WAIT_SCHEDULER_TASK: Wait for scheduler "ehn1" with entities [EventEntity, EventEntity]
  1: 0x016E [0x00] END_REQSTACK()
```

### Event 65535.23

#### Metadata

| Field        | Value    |
|--------------|----------|
| Entrypoint   | 0x016F   |
| Data Size    | 16 bytes |
| Instructions | 2        |

```
      00 01 02 03 04 05 06 07  08 09 0A 0B 0C 0D 0E 0F
      -- -- -- -- -- -- -- --  -- -- -- -- -- -- -- --
0160:                                               66                 f
0170: 03 80 F8 FF FF 7F F8 FF  FF 7F 6D 73 75 30 00     ..........msu0. 
```

#### Opcodes

```
  0: 0x016F [0x66] LOAD_EXT_SCHEDULER_MAIN: Load scheduler "msu0" with entities [EventEntity, EventEntity], work=42*
  1: 0x017E [0x00] END_REQSTACK()
```

### Event 65535.24

#### Metadata

| Field        | Value    |
|--------------|----------|
| Entrypoint   | 0x017F   |
| Data Size    | 14 bytes |
| Instructions | 2        |

```
      00 01 02 03 04 05 06 07  08 09 0A 0B 0C 0D 0E 0F
      -- -- -- -- -- -- -- --  -- -- -- -- -- -- -- --
0170:                                               53                 S
0180: F8 FF FF 7F F8 FF FF 7F  6D 73 75 30 00           ........msu0.   
```

#### Opcodes

```
  0: 0x017F [0x53] WAIT_SCHEDULER_TASK: Wait for scheduler "msu0" with entities [EventEntity, EventEntity]
  1: 0x018C [0x00] END_REQSTACK()
```

### Event 65535.25

#### Metadata

| Field        | Value    |
|--------------|----------|
| Entrypoint   | 0x018D   |
| Data Size    | 16 bytes |
| Instructions | 2        |

```
      00 01 02 03 04 05 06 07  08 09 0A 0B 0C 0D 0E 0F
      -- -- -- -- -- -- -- --  -- -- -- -- -- -- -- --
0180:                                         66 03 80               f..
0190: F8 FF FF 7F F8 FF FF 7F  6D 73 75 31 00           ........msu1.   
```

#### Opcodes

```
  0: 0x018D [0x66] LOAD_EXT_SCHEDULER_MAIN: Load scheduler "msu1" with entities [EventEntity, EventEntity], work=42*
  1: 0x019C [0x00] END_REQSTACK()
```

### Event 65535.26

#### Metadata

| Field        | Value    |
|--------------|----------|
| Entrypoint   | 0x019D   |
| Data Size    | 22 bytes |
| Instructions | 4        |

```
      00 01 02 03 04 05 06 07  08 09 0A 0B 0C 0D 0E 0F
      -- -- -- -- -- -- -- --  -- -- -- -- -- -- -- --
0190:                                         53 F8 FF               S..
01A0: FF 7F F8 FF FF 7F 6D 73  75 31 5E 69 64 6C 30 1C  ......msu1^idl0.
01B0: 02 80 00                                          ...             
```

#### Opcodes

```
  0: 0x019D [0x53] WAIT_SCHEDULER_TASK: Wait for scheduler "msu1" with entities [EventEntity, EventEntity]
  1: 0x01AA [0x5E] EventEntity goes idle (kills current action) (animation: "idl0")
  2: 0x01AF [0x1C] WAIT(60* ticks)
  3: 0x01B2 [0x00] END_REQSTACK()
```

### Event 65535.27

#### Metadata

| Field        | Value    |
|--------------|----------|
| Entrypoint   | 0x01B3   |
| Data Size    | 16 bytes |
| Instructions | 2        |

```
      00 01 02 03 04 05 06 07  08 09 0A 0B 0C 0D 0E 0F
      -- -- -- -- -- -- -- --  -- -- -- -- -- -- -- --
01B0:          66 01 80 F8 FF  FF 7F F8 FF FF 7F 67 68     f..........gh
01C0: 6E 31 00                                          n1.             
```

#### Opcodes

```
  0: 0x01B3 [0x66] LOAD_EXT_SCHEDULER_MAIN: Load scheduler "ghn1" with entities [EventEntity, EventEntity], work=41*
  1: 0x01C2 [0x00] END_REQSTACK()
```

### Event 65535.28

#### Metadata

| Field        | Value    |
|--------------|----------|
| Entrypoint   | 0x01C3   |
| Data Size    | 14 bytes |
| Instructions | 2        |

```
      00 01 02 03 04 05 06 07  08 09 0A 0B 0C 0D 0E 0F
      -- -- -- -- -- -- -- --  -- -- -- -- -- -- -- --
01C0:          53 F8 FF FF 7F  F8 FF FF 7F 67 68 6E 31     S........ghn1
01D0: 00                                                .               
```

#### Opcodes

```
  0: 0x01C3 [0x53] WAIT_SCHEDULER_TASK: Wait for scheduler "ghn1" with entities [EventEntity, EventEntity]
  1: 0x01D0 [0x00] END_REQSTACK()
```

### Event 65535.29

#### Metadata

| Field        | Value    |
|--------------|----------|
| Entrypoint   | 0x01D1   |
| Data Size    | 16 bytes |
| Instructions | 2        |

```
      00 01 02 03 04 05 06 07  08 09 0A 0B 0C 0D 0E 0F
      -- -- -- -- -- -- -- --  -- -- -- -- -- -- -- --
01D0:    66 00 80 F8 FF FF 7F  F8 FF FF 7F 69 72 6F 30   f..........iro0
01E0: 00                                                .               
```

#### Opcodes

```
  0: 0x01D1 [0x66] LOAD_EXT_SCHEDULER_MAIN: Load scheduler "iro0" with entities [EventEntity, EventEntity], work=40*
  1: 0x01E0 [0x00] END_REQSTACK()
```

### Event 65535.30

#### Metadata

| Field        | Value    |
|--------------|----------|
| Entrypoint   | 0x01E1   |
| Data Size    | 14 bytes |
| Instructions | 2        |

```
      00 01 02 03 04 05 06 07  08 09 0A 0B 0C 0D 0E 0F
      -- -- -- -- -- -- -- --  -- -- -- -- -- -- -- --
01E0:    53 F8 FF FF 7F F8 FF  FF 7F 69 72 6F 30 00      S........iro0. 
```

#### Opcodes

```
  0: 0x01E1 [0x53] WAIT_SCHEDULER_TASK: Wait for scheduler "iro0" with entities [EventEntity, EventEntity]
  1: 0x01EE [0x00] END_REQSTACK()
```

### Event 65535.31

#### Metadata

| Field        | Value    |
|--------------|----------|
| Entrypoint   | 0x01EF   |
| Data Size    | 16 bytes |
| Instructions | 2        |

```
      00 01 02 03 04 05 06 07  08 09 0A 0B 0C 0D 0E 0F
      -- -- -- -- -- -- -- --  -- -- -- -- -- -- -- --
01E0:                                               66                 f
01F0: 00 80 F8 FF FF 7F F8 FF  FF 7F 77 61 69 30 00     ..........wai0. 
```

#### Opcodes

```
  0: 0x01EF [0x66] LOAD_EXT_SCHEDULER_MAIN: Load scheduler "wai0" with entities [EventEntity, EventEntity], work=40*
  1: 0x01FE [0x00] END_REQSTACK()
```

### Event 65535.32

#### Metadata

| Field        | Value    |
|--------------|----------|
| Entrypoint   | 0x01FF   |
| Data Size    | 14 bytes |
| Instructions | 2        |

```
      00 01 02 03 04 05 06 07  08 09 0A 0B 0C 0D 0E 0F
      -- -- -- -- -- -- -- --  -- -- -- -- -- -- -- --
01F0:                                               53                 S
0200: F8 FF FF 7F F8 FF FF 7F  77 61 69 30 00           ........wai0.   
```

#### Opcodes

```
  0: 0x01FF [0x53] WAIT_SCHEDULER_TASK: Wait for scheduler "wai0" with entities [EventEntity, EventEntity]
  1: 0x020C [0x00] END_REQSTACK()
```

### Event 65535.33

#### Metadata

| Field        | Value    |
|--------------|----------|
| Entrypoint   | 0x020D   |
| Data Size    | 16 bytes |
| Instructions | 2        |

```
      00 01 02 03 04 05 06 07  08 09 0A 0B 0C 0D 0E 0F
      -- -- -- -- -- -- -- --  -- -- -- -- -- -- -- --
0200:                                         66 03 80               f..
0210: F8 FF FF 7F F8 FF FF 7F  62 69 6B 30 00           ........bik0.   
```

#### Opcodes

```
  0: 0x020D [0x66] LOAD_EXT_SCHEDULER_MAIN: Load scheduler "bik0" with entities [EventEntity, EventEntity], work=42*
  1: 0x021C [0x00] END_REQSTACK()
```

### Event 65535.34

#### Metadata

| Field        | Value    |
|--------------|----------|
| Entrypoint   | 0x021D   |
| Data Size    | 14 bytes |
| Instructions | 2        |

```
      00 01 02 03 04 05 06 07  08 09 0A 0B 0C 0D 0E 0F
      -- -- -- -- -- -- -- --  -- -- -- -- -- -- -- --
0210:                                         53 F8 FF               S..
0220: FF 7F F8 FF FF 7F 62 69  6B 30 00                 ......bik0.     
```

#### Opcodes

```
  0: 0x021D [0x53] WAIT_SCHEDULER_TASK: Wait for scheduler "bik0" with entities [EventEntity, EventEntity]
  1: 0x022A [0x00] END_REQSTACK()
```

### Event 65535.35

#### Metadata

| Field        | Value    |
|--------------|----------|
| Entrypoint   | 0x022B   |
| Data Size    | 16 bytes |
| Instructions | 2        |

```
      00 01 02 03 04 05 06 07  08 09 0A 0B 0C 0D 0E 0F
      -- -- -- -- -- -- -- --  -- -- -- -- -- -- -- --
0220:                                   66 03 80 F8 FF             f....
0230: FF 7F F8 FF FF 7F 62 69  6B 31 00                 ......bik1.     
```

#### Opcodes

```
  0: 0x022B [0x66] LOAD_EXT_SCHEDULER_MAIN: Load scheduler "bik1" with entities [EventEntity, EventEntity], work=42*
  1: 0x023A [0x00] END_REQSTACK()
```

### Event 65535.36

#### Metadata

| Field        | Value    |
|--------------|----------|
| Entrypoint   | 0x023B   |
| Data Size    | 14 bytes |
| Instructions | 2        |

```
      00 01 02 03 04 05 06 07  08 09 0A 0B 0C 0D 0E 0F
      -- -- -- -- -- -- -- --  -- -- -- -- -- -- -- --
0230:                                   53 F8 FF FF 7F             S....
0240: F8 FF FF 7F 62 69 6B 31  00                       ....bik1.       
```

#### Opcodes

```
  0: 0x023B [0x53] WAIT_SCHEDULER_TASK: Wait for scheduler "bik1" with entities [EventEntity, EventEntity]
  1: 0x0248 [0x00] END_REQSTACK()
```

### Event 65535.37

#### Metadata

| Field        | Value    |
|--------------|----------|
| Entrypoint   | 0x0249   |
| Data Size    | 16 bytes |
| Instructions | 2        |

```
      00 01 02 03 04 05 06 07  08 09 0A 0B 0C 0D 0E 0F
      -- -- -- -- -- -- -- --  -- -- -- -- -- -- -- --
0240:                             66 00 80 F8 FF FF 7F           f......
0250: F8 FF FF 7F 67 6B 72 30  00                       ....gkr0.       
```

#### Opcodes

```
  0: 0x0249 [0x66] LOAD_EXT_SCHEDULER_MAIN: Load scheduler "gkr0" with entities [EventEntity, EventEntity], work=40*
  1: 0x0258 [0x00] END_REQSTACK()
```

### Event 65535.38

#### Metadata

| Field        | Value    |
|--------------|----------|
| Entrypoint   | 0x0259   |
| Data Size    | 14 bytes |
| Instructions | 2        |

```
      00 01 02 03 04 05 06 07  08 09 0A 0B 0C 0D 0E 0F
      -- -- -- -- -- -- -- --  -- -- -- -- -- -- -- --
0250:                             53 F8 FF FF 7F F8 FF           S......
0260: FF 7F 67 6B 72 30 00                              ..gkr0.         
```

#### Opcodes

```
  0: 0x0259 [0x53] WAIT_SCHEDULER_TASK: Wait for scheduler "gkr0" with entities [EventEntity, EventEntity]
  1: 0x0266 [0x00] END_REQSTACK()
```

### Event 65535.39

#### Metadata

| Field        | Value    |
|--------------|----------|
| Entrypoint   | 0x0267   |
| Data Size    | 16 bytes |
| Instructions | 2        |

```
      00 01 02 03 04 05 06 07  08 09 0A 0B 0C 0D 0E 0F
      -- -- -- -- -- -- -- --  -- -- -- -- -- -- -- --
0260:                      66  00 80 F8 FF FF 7F F8 FF         f........
0270: FF 7F 67 6B 72 31 00                              ..gkr1.         
```

#### Opcodes

```
  0: 0x0267 [0x66] LOAD_EXT_SCHEDULER_MAIN: Load scheduler "gkr1" with entities [EventEntity, EventEntity], work=40*
  1: 0x0276 [0x00] END_REQSTACK()
```

### Event 65535.40

#### Metadata

| Field        | Value    |
|--------------|----------|
| Entrypoint   | 0x0277   |
| Data Size    | 14 bytes |
| Instructions | 2        |

```
      00 01 02 03 04 05 06 07  08 09 0A 0B 0C 0D 0E 0F
      -- -- -- -- -- -- -- --  -- -- -- -- -- -- -- --
0270:                      53  F8 FF FF 7F F8 FF FF 7F         S........
0280: 67 6B 72 31 00                                    gkr1.           
```

#### Opcodes

```
  0: 0x0277 [0x53] WAIT_SCHEDULER_TASK: Wait for scheduler "gkr1" with entities [EventEntity, EventEntity]
  1: 0x0284 [0x00] END_REQSTACK()
```

### Event 65535.41

#### Metadata

| Field        | Value    |
|--------------|----------|
| Entrypoint   | 0x0285   |
| Data Size    | 16 bytes |
| Instructions | 2        |

```
      00 01 02 03 04 05 06 07  08 09 0A 0B 0C 0D 0E 0F
      -- -- -- -- -- -- -- --  -- -- -- -- -- -- -- --
0280:                66 01 80  F8 FF FF 7F F8 FF FF 7F       f..........
0290: 6F 68 68 30 00                                    ohh0.           
```

#### Opcodes

```
  0: 0x0285 [0x66] LOAD_EXT_SCHEDULER_MAIN: Load scheduler "ohh0" with entities [EventEntity, EventEntity], work=41*
  1: 0x0294 [0x00] END_REQSTACK()
```

### Event 65535.42

#### Metadata

| Field        | Value    |
|--------------|----------|
| Entrypoint   | 0x0295   |
| Data Size    | 22 bytes |
| Instructions | 4        |

```
      00 01 02 03 04 05 06 07  08 09 0A 0B 0C 0D 0E 0F
      -- -- -- -- -- -- -- --  -- -- -- -- -- -- -- --
0290:                53 F8 FF  FF 7F F8 FF FF 7F 6F 68       S........oh
02A0: 68 30 5E 69 64 6C 30 1C  02 80 00                 h0^idl0....     
```

#### Opcodes

```
  0: 0x0295 [0x53] WAIT_SCHEDULER_TASK: Wait for scheduler "ohh0" with entities [EventEntity, EventEntity]
  1: 0x02A2 [0x5E] EventEntity goes idle (kills current action) (animation: "idl0")
  2: 0x02A7 [0x1C] WAIT(60* ticks)
  3: 0x02AA [0x00] END_REQSTACK()
```

### Event 65535.43

#### Metadata

| Field        | Value    |
|--------------|----------|
| Entrypoint   | 0x02AB   |
| Data Size    | 44 bytes |
| Instructions | 4        |

```
      00 01 02 03 04 05 06 07  08 09 0A 0B 0C 0D 0E 0F
      -- -- -- -- -- -- -- --  -- -- -- -- -- -- -- --
02A0:                                   66 01 80 F8 FF             f....
02B0: FF 7F F8 FF FF 7F 73 68  6B 30 53 F8 FF FF 7F F8  ......shk0S.....
02C0: FF FF 7F 73 68 6B 30 66  00 80 F8 FF FF 7F F8 FF  ...shk0f........
02D0: FF 7F 7A 69 74 30 00                              ..zit0.         
```

#### Opcodes

```
  0: 0x02AB [0x66] LOAD_EXT_SCHEDULER_MAIN: Load scheduler "shk0" with entities [EventEntity, EventEntity], work=41*
  1: 0x02BA [0x53] WAIT_SCHEDULER_TASK: Wait for scheduler "shk0" with entities [EventEntity, EventEntity]
  2: 0x02C7 [0x66] LOAD_EXT_SCHEDULER_MAIN: Load scheduler "zit0" with entities [EventEntity, EventEntity], work=40*
  3: 0x02D6 [0x00] END_REQSTACK()
```

### Event 65535.44

#### Metadata

| Field        | Value    |
|--------------|----------|
| Entrypoint   | 0x02D7   |
| Data Size    | 16 bytes |
| Instructions | 2        |

```
      00 01 02 03 04 05 06 07  08 09 0A 0B 0C 0D 0E 0F
      -- -- -- -- -- -- -- --  -- -- -- -- -- -- -- --
02D0:                      66  00 80 F8 FF FF 7F F8 FF         f........
02E0: FF 7F 7A 69 74 30 00                              ..zit0.         
```

#### Opcodes

```
  0: 0x02D7 [0x66] LOAD_EXT_SCHEDULER_MAIN: Load scheduler "zit0" with entities [EventEntity, EventEntity], work=40*
  1: 0x02E6 [0x00] END_REQSTACK()
```

### Event 65535.45

#### Metadata

| Field        | Value    |
|--------------|----------|
| Entrypoint   | 0x02E7   |
| Data Size    | 14 bytes |
| Instructions | 2        |

```
      00 01 02 03 04 05 06 07  08 09 0A 0B 0C 0D 0E 0F
      -- -- -- -- -- -- -- --  -- -- -- -- -- -- -- --
02E0:                      53  F8 FF FF 7F F8 FF FF 7F         S........
02F0: 7A 69 74 30 00                                    zit0.           
```

#### Opcodes

```
  0: 0x02E7 [0x53] WAIT_SCHEDULER_TASK: Wait for scheduler "zit0" with entities [EventEntity, EventEntity]
  1: 0x02F4 [0x00] END_REQSTACK()
```

### Event 65535.46

#### Metadata

| Field        | Value    |
|--------------|----------|
| Entrypoint   | 0x02F5   |
| Data Size    | 18 bytes |
| Instructions | 4        |

```
      00 01 02 03 04 05 06 07  08 09 0A 0B 0C 0D 0E 0F
      -- -- -- -- -- -- -- --  -- -- -- -- -- -- -- --
02F0:                6E F8 FF  FF 7F 04 80 99 F8 FF FF       n..........
0300: 7F 99 F8 FF FF 7F 00                              .......         
```

#### Opcodes

```
  0: 0x02F5 [0x6E] EventEntity uses emote 1*
  1: 0x02FC [0x99] Wait for EventEntity animation to complete
  2: 0x0301 [0x99] Wait for EventEntity animation to complete
  3: 0x0306 [0x00] END_REQSTACK()
```

### Event 65535.47

#### Metadata

| Field        | Value    |
|--------------|----------|
| Entrypoint   | 0x0307   |
| Data Size    | 18 bytes |
| Instructions | 4        |

```
      00 01 02 03 04 05 06 07  08 09 0A 0B 0C 0D 0E 0F
      -- -- -- -- -- -- -- --  -- -- -- -- -- -- -- --
0300:                      6E  F8 FF FF 7F 05 80 99 F8         n........
0310: FF FF 7F 99 F8 FF FF 7F  00                       .........       
```

#### Opcodes

```
  0: 0x0307 [0x6E] EventEntity uses emote 7*
  1: 0x030E [0x99] Wait for EventEntity animation to complete
  2: 0x0313 [0x99] Wait for EventEntity animation to complete
  3: 0x0318 [0x00] END_REQSTACK()
```

### Event 65535.48

#### Metadata

| Field        | Value    |
|--------------|----------|
| Entrypoint   | 0x0319   |
| Data Size    | 18 bytes |
| Instructions | 4        |

```
      00 01 02 03 04 05 06 07  08 09 0A 0B 0C 0D 0E 0F
      -- -- -- -- -- -- -- --  -- -- -- -- -- -- -- --
0310:                             6E F8 FF FF 7F 06 80           n......
0320: 99 F8 FF FF 7F 99 F8 FF  FF 7F 00                 ...........     
```

#### Opcodes

```
  0: 0x0319 [0x6E] EventEntity uses emote 6*
  1: 0x0320 [0x99] Wait for EventEntity animation to complete
  2: 0x0325 [0x99] Wait for EventEntity animation to complete
  3: 0x032A [0x00] END_REQSTACK()
```

### Event 65535.49

#### Metadata

| Field        | Value    |
|--------------|----------|
| Entrypoint   | 0x032B   |
| Data Size    | 18 bytes |
| Instructions | 4        |

```
      00 01 02 03 04 05 06 07  08 09 0A 0B 0C 0D 0E 0F
      -- -- -- -- -- -- -- --  -- -- -- -- -- -- -- --
0320:                                   6E F8 FF FF 7F             n....
0330: 07 80 99 F8 FF FF 7F 99  F8 FF FF 7F 00           .............   
```

#### Opcodes

```
  0: 0x032B [0x6E] EventEntity uses emote 8*
  1: 0x0332 [0x99] Wait for EventEntity animation to complete
  2: 0x0337 [0x99] Wait for EventEntity animation to complete
  3: 0x033C [0x00] END_REQSTACK()
```

### Event 65535.50

#### Metadata

| Field        | Value    |
|--------------|----------|
| Entrypoint   | 0x033D   |
| Data Size    | 18 bytes |
| Instructions | 4        |

```
      00 01 02 03 04 05 06 07  08 09 0A 0B 0C 0D 0E 0F
      -- -- -- -- -- -- -- --  -- -- -- -- -- -- -- --
0330:                                         6E F8 FF               n..
0340: FF 7F 08 80 99 F8 FF FF  7F 99 F8 FF FF 7F 00     ............... 
```

#### Opcodes

```
  0: 0x033D [0x6E] EventEntity uses emote 13*
  1: 0x0344 [0x99] Wait for EventEntity animation to complete
  2: 0x0349 [0x99] Wait for EventEntity animation to complete
  3: 0x034E [0x00] END_REQSTACK()
```

### Event 65535.51

#### Metadata

| Field        | Value    |
|--------------|----------|
| Entrypoint   | 0x034F   |
| Data Size    | 27 bytes |
| Instructions | 3        |

```
      00 01 02 03 04 05 06 07  08 09 0A 0B 0C 0D 0E 0F
      -- -- -- -- -- -- -- --  -- -- -- -- -- -- -- --
0340:                                               2C                 ,
0350: F8 FF FF 7F F8 FF FF 7F  64 65 61 64 53 F8 FF FF  ........deadS...
0360: 7F F8 FF FF 7F 64 65 61  64 00                    .....dead.      
```

#### Opcodes

```
  0: 0x034F [0x2C] CREATE_SCHEDULER_TASK: Create scheduler "dead" with entities [EventEntity, EventEntity]
  1: 0x035C [0x53] WAIT_SCHEDULER_TASK: Wait for scheduler "dead" with entities [EventEntity, EventEntity]
  2: 0x0369 [0x00] END_REQSTACK()
```

### Event 65535.52

#### Metadata

| Field        | Value   |
|--------------|---------|
| Entrypoint   | 0x036A  |
| Data Size    | 9 bytes |
| Instructions | 3       |

```
      00 01 02 03 04 05 06 07  08 09 0A 0B 0C 0D 0E 0F
      -- -- -- -- -- -- -- --  -- -- -- -- -- -- -- --
0360:                                5E 69 64 6C 30 1C            ^idl0.
0370: 02 80 00                                          ...             
```

#### Opcodes

```
  0: 0x036A [0x5E] EventEntity goes idle (kills current action) (animation: "idl0")
  1: 0x036F [0x1C] WAIT(60* ticks)
  2: 0x0372 [0x00] END_REQSTACK()
```

### Event 65535.53

#### Metadata

| Field        | Value    |
|--------------|----------|
| Entrypoint   | 0x0373   |
| Data Size    | 16 bytes |
| Instructions | 2        |

```
      00 01 02 03 04 05 06 07  08 09 0A 0B 0C 0D 0E 0F
      -- -- -- -- -- -- -- --  -- -- -- -- -- -- -- --
0370:          66 01 80 F8 FF  FF 7F F8 FF FF 7F 63 61     f..........ca
0380: 62 6B 00                                          bk.             
```

#### Opcodes

```
  0: 0x0373 [0x66] LOAD_EXT_SCHEDULER_MAIN: Load scheduler "cabk" with entities [EventEntity, EventEntity], work=41*
  1: 0x0382 [0x00] END_REQSTACK()
```

### Event 65535.54

#### Metadata

| Field        | Value    |
|--------------|----------|
| Entrypoint   | 0x0383   |
| Data Size    | 14 bytes |
| Instructions | 2        |

```
      00 01 02 03 04 05 06 07  08 09 0A 0B 0C 0D 0E 0F
      -- -- -- -- -- -- -- --  -- -- -- -- -- -- -- --
0380:          53 F8 FF FF 7F  F8 FF FF 7F 63 61 62 6B     S........cabk
0390: 00                                                .               
```

#### Opcodes

```
  0: 0x0383 [0x53] WAIT_SCHEDULER_TASK: Wait for scheduler "cabk" with entities [EventEntity, EventEntity]
  1: 0x0390 [0x00] END_REQSTACK()
```

### Event 65535.55

#### Metadata

| Field        | Value    |
|--------------|----------|
| Entrypoint   | 0x0391   |
| Data Size    | 16 bytes |
| Instructions | 2        |

```
      00 01 02 03 04 05 06 07  08 09 0A 0B 0C 0D 0E 0F
      -- -- -- -- -- -- -- --  -- -- -- -- -- -- -- --
0390:    66 09 80 F8 FF FF 7F  F8 FF FF 7F 73 70 65 66   f..........spef
03A0: 00                                                .               
```

#### Opcodes

```
  0: 0x0391 [0x66] LOAD_EXT_SCHEDULER_MAIN: Load scheduler "spef" with entities [EventEntity, EventEntity], work=43*
  1: 0x03A0 [0x00] END_REQSTACK()
```

### Event 65535.56

#### Metadata

| Field        | Value    |
|--------------|----------|
| Entrypoint   | 0x03A1   |
| Data Size    | 14 bytes |
| Instructions | 2        |

```
      00 01 02 03 04 05 06 07  08 09 0A 0B 0C 0D 0E 0F
      -- -- -- -- -- -- -- --  -- -- -- -- -- -- -- --
03A0:    53 F8 FF FF 7F F8 FF  FF 7F 73 70 65 66 00      S........spef. 
```

#### Opcodes

```
  0: 0x03A1 [0x53] WAIT_SCHEDULER_TASK: Wait for scheduler "spef" with entities [EventEntity, EventEntity]
  1: 0x03AE [0x00] END_REQSTACK()
```

### Event 65535.57

#### Metadata

| Field        | Value    |
|--------------|----------|
| Entrypoint   | 0x03AF   |
| Data Size    | 16 bytes |
| Instructions | 2        |

```
      00 01 02 03 04 05 06 07  08 09 0A 0B 0C 0D 0E 0F
      -- -- -- -- -- -- -- --  -- -- -- -- -- -- -- --
03A0:                                               5B                 [
03B0: 0A 80 F8 FF FF 7F F8 FF  FF 7F 6F 6B 69 72 00     ..........okir. 
```

#### Opcodes

```
  0: 0x03AF [0x5B] LOAD_EXT_SCHEDULER: Load scheduler "okir" with entities [EventEntity, EventEntity], work=430*
  1: 0x03BE [0x00] END_REQSTACK()
```

### Event 65535.58

#### Metadata

| Field        | Value    |
|--------------|----------|
| Entrypoint   | 0x03BF   |
| Data Size    | 14 bytes |
| Instructions | 2        |

```
      00 01 02 03 04 05 06 07  08 09 0A 0B 0C 0D 0E 0F
      -- -- -- -- -- -- -- --  -- -- -- -- -- -- -- --
03B0:                                               53                 S
03C0: F8 FF FF 7F F8 FF FF 7F  6F 6B 69 72 00           ........okir.   
```

#### Opcodes

```
  0: 0x03BF [0x53] WAIT_SCHEDULER_TASK: Wait for scheduler "okir" with entities [EventEntity, EventEntity]
  1: 0x03CC [0x00] END_REQSTACK()
```

### Event 65535.59

#### Metadata

| Field        | Value    |
|--------------|----------|
| Entrypoint   | 0x03CD   |
| Data Size    | 16 bytes |
| Instructions | 2        |

```
      00 01 02 03 04 05 06 07  08 09 0A 0B 0C 0D 0E 0F
      -- -- -- -- -- -- -- --  -- -- -- -- -- -- -- --
03C0:                                         5B 0B 80               [..
03D0: F8 FF FF 7F F8 FF FF 7F  75 73 69 30 00           ........usi0.   
```

#### Opcodes

```
  0: 0x03CD [0x5B] LOAD_EXT_SCHEDULER: Load scheduler "usi0" with entities [EventEntity, EventEntity], work=431*
  1: 0x03DC [0x00] END_REQSTACK()
```

### Event 65535.60

#### Metadata

| Field        | Value    |
|--------------|----------|
| Entrypoint   | 0x03DD   |
| Data Size    | 14 bytes |
| Instructions | 2        |

```
      00 01 02 03 04 05 06 07  08 09 0A 0B 0C 0D 0E 0F
      -- -- -- -- -- -- -- --  -- -- -- -- -- -- -- --
03D0:                                         53 F8 FF               S..
03E0: FF 7F F8 FF FF 7F 75 73  69 30 00                 ......usi0.     
```

#### Opcodes

```
  0: 0x03DD [0x53] WAIT_SCHEDULER_TASK: Wait for scheduler "usi0" with entities [EventEntity, EventEntity]
  1: 0x03EA [0x00] END_REQSTACK()
```

### Event 65535.61

#### Metadata

| Field        | Value    |
|--------------|----------|
| Entrypoint   | 0x03EB   |
| Data Size    | 16 bytes |
| Instructions | 2        |

```
      00 01 02 03 04 05 06 07  08 09 0A 0B 0C 0D 0E 0F
      -- -- -- -- -- -- -- --  -- -- -- -- -- -- -- --
03E0:                                   5B 0B 80 F8 FF             [....
03F0: FF 7F F8 FF FF 7F 75 73  69 31 00                 ......usi1.     
```

#### Opcodes

```
  0: 0x03EB [0x5B] LOAD_EXT_SCHEDULER: Load scheduler "usi1" with entities [EventEntity, EventEntity], work=431*
  1: 0x03FA [0x00] END_REQSTACK()
```

### Event 65535.62

#### Metadata

| Field        | Value    |
|--------------|----------|
| Entrypoint   | 0x03FB   |
| Data Size    | 14 bytes |
| Instructions | 2        |

```
      00 01 02 03 04 05 06 07  08 09 0A 0B 0C 0D 0E 0F
      -- -- -- -- -- -- -- --  -- -- -- -- -- -- -- --
03F0:                                   53 F8 FF FF 7F             S....
0400: F8 FF FF 7F 75 73 69 31  00                       ....usi1.       
```

#### Opcodes

```
  0: 0x03FB [0x53] WAIT_SCHEDULER_TASK: Wait for scheduler "usi1" with entities [EventEntity, EventEntity]
  1: 0x0408 [0x00] END_REQSTACK()
```

### Event 65535.63

#### Metadata

| Field        | Value    |
|--------------|----------|
| Entrypoint   | 0x0409   |
| Data Size    | 16 bytes |
| Instructions | 2        |

```
      00 01 02 03 04 05 06 07  08 09 0A 0B 0C 0D 0E 0F
      -- -- -- -- -- -- -- --  -- -- -- -- -- -- -- --
0400:                             66 03 80 F8 FF FF 7F           f......
0410: F8 FF FF 7F 74 65 68 30  00                       ....teh0.       
```

#### Opcodes

```
  0: 0x0409 [0x66] LOAD_EXT_SCHEDULER_MAIN: Load scheduler "teh0" with entities [EventEntity, EventEntity], work=42*
  1: 0x0418 [0x00] END_REQSTACK()
```

### Event 65535.64

#### Metadata

| Field        | Value    |
|--------------|----------|
| Entrypoint   | 0x0419   |
| Data Size    | 14 bytes |
| Instructions | 2        |

```
      00 01 02 03 04 05 06 07  08 09 0A 0B 0C 0D 0E 0F
      -- -- -- -- -- -- -- --  -- -- -- -- -- -- -- --
0410:                             53 F8 FF FF 7F F8 FF           S......
0420: FF 7F 74 65 68 30 00                              ..teh0.         
```

#### Opcodes

```
  0: 0x0419 [0x53] WAIT_SCHEDULER_TASK: Wait for scheduler "teh0" with entities [EventEntity, EventEntity]
  1: 0x0426 [0x00] END_REQSTACK()
```

### Event 65535.65

#### Metadata

| Field        | Value    |
|--------------|----------|
| Entrypoint   | 0x0427   |
| Data Size    | 16 bytes |
| Instructions | 2        |

```
      00 01 02 03 04 05 06 07  08 09 0A 0B 0C 0D 0E 0F
      -- -- -- -- -- -- -- --  -- -- -- -- -- -- -- --
0420:                      66  03 80 F8 FF FF 7F F8 FF         f........
0430: FF 7F 74 65 68 31 00                              ..teh1.         
```

#### Opcodes

```
  0: 0x0427 [0x66] LOAD_EXT_SCHEDULER_MAIN: Load scheduler "teh1" with entities [EventEntity, EventEntity], work=42*
  1: 0x0436 [0x00] END_REQSTACK()
```

### Event 65535.66

#### Metadata

| Field        | Value    |
|--------------|----------|
| Entrypoint   | 0x0437   |
| Data Size    | 14 bytes |
| Instructions | 2        |

```
      00 01 02 03 04 05 06 07  08 09 0A 0B 0C 0D 0E 0F
      -- -- -- -- -- -- -- --  -- -- -- -- -- -- -- --
0430:                      53  F8 FF FF 7F F8 FF FF 7F         S........
0440: 74 65 68 31 00                                    teh1.           
```

#### Opcodes

```
  0: 0x0437 [0x53] WAIT_SCHEDULER_TASK: Wait for scheduler "teh1" with entities [EventEntity, EventEntity]
  1: 0x0444 [0x00] END_REQSTACK()
```

### Event 65535.67

#### Metadata

| Field        | Value    |
|--------------|----------|
| Entrypoint   | 0x0445   |
| Data Size    | 16 bytes |
| Instructions | 2        |

```
      00 01 02 03 04 05 06 07  08 09 0A 0B 0C 0D 0E 0F
      -- -- -- -- -- -- -- --  -- -- -- -- -- -- -- --
0440:                66 0C 80  F8 FF FF 7F F8 FF FF 7F       f..........
0450: 6D 64 71 30 00                                    mdq0.           
```

#### Opcodes

```
  0: 0x0445 [0x66] LOAD_EXT_SCHEDULER_MAIN: Load scheduler "mdq0" with entities [EventEntity, EventEntity], work=46*
  1: 0x0454 [0x00] END_REQSTACK()
```

### Event 65535.68

#### Metadata

| Field        | Value    |
|--------------|----------|
| Entrypoint   | 0x0455   |
| Data Size    | 14 bytes |
| Instructions | 2        |

```
      00 01 02 03 04 05 06 07  08 09 0A 0B 0C 0D 0E 0F
      -- -- -- -- -- -- -- --  -- -- -- -- -- -- -- --
0450:                53 F8 FF  FF 7F F8 FF FF 7F 6D 64       S........md
0460: 71 30 00                                          q0.             
```

#### Opcodes

```
  0: 0x0455 [0x53] WAIT_SCHEDULER_TASK: Wait for scheduler "mdq0" with entities [EventEntity, EventEntity]
  1: 0x0462 [0x00] END_REQSTACK()
```

### Event 65535.69

#### Metadata

| Field        | Value    |
|--------------|----------|
| Entrypoint   | 0x0463   |
| Data Size    | 16 bytes |
| Instructions | 2        |

```
      00 01 02 03 04 05 06 07  08 09 0A 0B 0C 0D 0E 0F
      -- -- -- -- -- -- -- --  -- -- -- -- -- -- -- --
0460:          66 0C 80 F8 FF  FF 7F F8 FF FF 7F 6D 64     f..........md
0470: 71 33 00                                          q3.             
```

#### Opcodes

```
  0: 0x0463 [0x66] LOAD_EXT_SCHEDULER_MAIN: Load scheduler "mdq3" with entities [EventEntity, EventEntity], work=46*
  1: 0x0472 [0x00] END_REQSTACK()
```

### Event 65535.70

#### Metadata

| Field        | Value    |
|--------------|----------|
| Entrypoint   | 0x0473   |
| Data Size    | 14 bytes |
| Instructions | 2        |

```
      00 01 02 03 04 05 06 07  08 09 0A 0B 0C 0D 0E 0F
      -- -- -- -- -- -- -- --  -- -- -- -- -- -- -- --
0470:          53 F8 FF FF 7F  F8 FF FF 7F 6D 64 71 33     S........mdq3
0480: 00                                                .               
```

#### Opcodes

```
  0: 0x0473 [0x53] WAIT_SCHEDULER_TASK: Wait for scheduler "mdq3" with entities [EventEntity, EventEntity]
  1: 0x0480 [0x00] END_REQSTACK()
```

### Event 604

#### Metadata

| Field        | Value    |
|--------------|----------|
| Entrypoint   | 0x0481   |
| Data Size    | 33 bytes |
| Instructions | 12       |

```
      00 01 02 03 04 05 06 07  08 09 0A 0B 0C 0D 0E 0F
      -- -- -- -- -- -- -- --  -- -- -- -- -- -- -- --
0480:    1E F0 FF FF 7F 6F 70  1D 0D 80 23 29 08 53 E0   .....op...#).S.
0490: 0E 01 01 1D 0E 80 23 29  08 53 E0 0E 01 02 20 00  ......#).S.... .
04A0: 21 00                                             !.              
```

#### Opcodes

```
  0: 0x0481 [0x1E] EventEntity looks at LocalPlayer and starts talking
  1: 0x0486 [0x6F] WAIT_FRAME_DELAY: Yield until WaitTime reaches zero
  2: 0x0487 [0x70] WAIT_ENTITY_RENDER_FLAG: Wait while EventEntity->Render.Flags3 bit 2 is set (cancel turn if not)
  3: 0x0488 [0x1D] PRINT_EVENT_MESSAGE(message_id=8878*)
     "Munch-munch...chew-chew... What's that? You have a question you want to ask me, the man on the spot?"
  4: 0x048B [0x23] WAIT_FOR_DIALOG_INTERACTION
  5: 0x048C [0x29] REQ_SET_WAIT(priority=0x08, entity_id=Kyume-Romeh (ID: 17752147/0x010EE053), tag_num=0x01)
  6: 0x0493 [0x1D] PRINT_EVENT_MESSAGE(message_id=8879*)
     "I'm the ace reporter for the "Magic Paradise Weekly." Why, I don't even have to move a finger. All the news just comes to me. Munch-munch...chew-chew..."
  7: 0x0496 [0x23] WAIT_FOR_DIALOG_INTERACTION
  8: 0x0497 [0x29] REQ_SET_WAIT(priority=0x08, entity_id=Kyume-Romeh (ID: 17752147/0x010EE053), tag_num=0x02)
  9: 0x049E [0x20] SET_CLI_EVENT_UC_FLAG: Unlock player control
 10: 0x04A0 [0x21] END_EVENT
 11: 0x04A1 [0x00] END_REQSTACK()
```

### Event 939

#### Metadata

| Field        | Value    |
|--------------|----------|
| Entrypoint   | 0x04A2   |
| Data Size    | 52 bytes |
| Instructions | 12       |

```
      00 01 02 03 04 05 06 07  08 09 0A 0B 0C 0D 0E 0F
      -- -- -- -- -- -- -- --  -- -- -- -- -- -- -- --
04A0:       42 48 0F 80 1E F0  FF FF 7F 1C 10 80 1D 11    BH............
04B0: 80 23 66 00 80 F8 FF FF  7F F8 FF FF 7F 74 68 6B  .#f..........thk
04C0: 31 1D 12 80 23 66 00 80  F8 FF FF 7F F8 FF FF 7F  1...#f..........
04D0: 74 68 6B 32 21 00                                 thk2!.          
```

#### Opcodes

```
  0: 0x04A2 [0x42] SET_CLI_EVENT_CANCEL_DATA()
  1: 0x04A3 [0x48] [System] [12286*]:
     "<Player>'s badge flashes brightly."
  2: 0x04A6 [0x1E] EventEntity looks at LocalPlayer and starts talking
  3: 0x04AB [0x1C] WAIT(30* ticks)
  4: 0x04AE [0x1D] PRINT_EVENT_MESSAGE(message_id=12295*)
     "Munch-munch...chew-chew... What's that? Something about "Aht Urhgan"? I heard that the beastmen there are crazy-wazy! Rumor has it that they even attack the towns sometimes!"
  5: 0x04B1 [0x23] WAIT_FOR_DIALOG_INTERACTION
  6: 0x04B2 [0x66] LOAD_EXT_SCHEDULER_MAIN: Load scheduler "thk1" with entities [EventEntity, EventEntity], work=40*
  7: 0x04C1 [0x1D] PRINT_EVENT_MESSAGE(message_id=12296*)
     "If I could just go there on a business trip, I'd have enough scoops to last the rest of my life! Then again, if the rumors are true, that might not be very long!"
  8: 0x04C4 [0x23] WAIT_FOR_DIALOG_INTERACTION
  9: 0x04C5 [0x66] LOAD_EXT_SCHEDULER_MAIN: Load scheduler "thk2" with entities [EventEntity, EventEntity], work=40*
 10: 0x04D4 [0x21] END_EVENT
 11: 0x04D5 [0x00] END_REQSTACK()
```

### Event 393

#### Metadata

| Field        | Value    |
|--------------|----------|
| Entrypoint   | 0x04D6   |
| Data Size    | 37 bytes |
| Instructions | 14       |

```
      00 01 02 03 04 05 06 07  08 09 0A 0B 0C 0D 0E 0F
      -- -- -- -- -- -- -- --  -- -- -- -- -- -- -- --
04D0:                   1E F0  FF FF 7F 6F 70 1D 13 80        .....op...
04E0: 23 29 08 53 E0 0E 01 01  1D 14 80 23 1D 15 80 23  #).S.......#...#
04F0: 29 08 53 E0 0E 01 02 20  00 21 00                 ).S.... .!.     
```

#### Opcodes

```
  0: 0x04D6 [0x1E] EventEntity looks at LocalPlayer and starts talking
  1: 0x04DB [0x6F] WAIT_FRAME_DELAY: Yield until WaitTime reaches zero
  2: 0x04DC [0x70] WAIT_ENTITY_RENDER_FLAG: Wait while EventEntity->Render.Flags3 bit 2 is set (cancel turn if not)
  3: 0x04DD [0x1D] PRINT_EVENT_MESSAGE(message_id=8239*)
     "Munch-munch...chew-chew... What's that? You have a question you want to ask me, the walking library?"
  4: 0x04E0 [0x23] WAIT_FOR_DIALOG_INTERACTION
  5: 0x04E1 [0x29] REQ_SET_WAIT(priority=0x08, entity_id=Kyume-Romeh (ID: 17752147/0x010EE053), tag_num=0x01)
  6: 0x04E8 [0x1D] PRINT_EVENT_MESSAGE(message_id=8240*)
     "Oh, that's easy-weasy. Orn, the Hume gentleman you're referring to, is a traveler who's staying in the hostelry room right above us."
  7: 0x04EB [0x23] WAIT_FOR_DIALOG_INTERACTION
  8: 0x04EC [0x1D] PRINT_EVENT_MESSAGE(message_id=8241*)
     "You disturbed my custard, cake, and jelly for such a trifling matter? Munch-munch...chew-chew..."
  9: 0x04EF [0x23] WAIT_FOR_DIALOG_INTERACTION
 10: 0x04F0 [0x29] REQ_SET_WAIT(priority=0x08, entity_id=Kyume-Romeh (ID: 17752147/0x010EE053), tag_num=0x02)
 11: 0x04F7 [0x20] SET_CLI_EVENT_UC_FLAG: Unlock player control
 12: 0x04F9 [0x21] END_EVENT
 13: 0x04FA [0x00] END_REQSTACK()
```

### Event 60

#### Metadata

| Field        | Value    |
|--------------|----------|
| Entrypoint   | 0x04FB   |
| Data Size    | 33 bytes |
| Instructions | 12       |

```
      00 01 02 03 04 05 06 07  08 09 0A 0B 0C 0D 0E 0F
      -- -- -- -- -- -- -- --  -- -- -- -- -- -- -- --
04F0:                                   1E F0 FF FF 7F             .....
0500: 6F 70 1D 16 80 23 29 08  53 E0 0E 01 2C 1D 17 80  op...#).S...,...
0510: 23 29 08 53 E0 0E 01 2D  20 00 21 00              #).S...- .!.    
```

#### Opcodes

```
  0: 0x04FB [0x1E] EventEntity looks at LocalPlayer and starts talking
  1: 0x0500 [0x6F] WAIT_FRAME_DELAY: Yield until WaitTime reaches zero
  2: 0x0501 [0x70] WAIT_ENTITY_RENDER_FLAG: Wait while EventEntity->Render.Flags3 bit 2 is set (cancel turn if not)
  3: 0x0502 [0x1D] PRINT_EVENT_MESSAGE(message_id=7403*)
     "Munch-munch...gloomph...bellllch! That is an intriguing hat you have there!"
  4: 0x0505 [0x23] WAIT_FOR_DIALOG_INTERACTION
  5: 0x0506 [0x29] REQ_SET_WAIT(priority=0x08, entity_id=Kyume-Romeh (ID: 17752147/0x010EE053), tag_num=0x2C)
  6: 0x050D [0x1D] PRINT_EVENT_MESSAGE(message_id=7404*)
     "Hey, that could make a great story! Thanks, that's my scoop of the day!"
  7: 0x0510 [0x23] WAIT_FOR_DIALOG_INTERACTION
  8: 0x0511 [0x29] REQ_SET_WAIT(priority=0x08, entity_id=Kyume-Romeh (ID: 17752147/0x010EE053), tag_num=0x2D)
  9: 0x0518 [0x20] SET_CLI_EVENT_UC_FLAG: Unlock player control
 10: 0x051A [0x21] END_EVENT
 11: 0x051B [0x00] END_REQSTACK()
```

### Event 668

#### Metadata

| Field        | Value    |
|--------------|----------|
| Entrypoint   | 0x051C   |
| Data Size    | 83 bytes |
| Instructions | 22       |

```
      00 01 02 03 04 05 06 07  08 09 0A 0B 0C 0D 0E 0F
      -- -- -- -- -- -- -- --  -- -- -- -- -- -- -- --
0510:                                      1E F0 FF FF              ....
0520: 7F 6F 70 1D 18 80 23 29  08 53 E0 0E 01 21 1D 19  .op...#).S...!..
0530: 80 23 29 08 53 E0 0E 01  22 29 08 53 E0 0E 01 2C  .#).S...").S...,
0540: 29 08 53 E0 0E 01 2D 29  08 53 E0 0E 01 0B 1D 1A  ).S...-).S......
0550: 80 23 29 08 53 E0 0E 01  0C 29 08 53 E0 0E 01 0D  .#).S....).S....
0560: 1D 1B 80 23 29 08 53 E0  0E 01 0E 20 00 21 00     ...#).S.... .!. 
```

#### Opcodes

```
  0: 0x051C [0x1E] EventEntity looks at LocalPlayer and starts talking
  1: 0x0521 [0x6F] WAIT_FRAME_DELAY: Yield until WaitTime reaches zero
  2: 0x0522 [0x70] WAIT_ENTITY_RENDER_FLAG: Wait while EventEntity->Render.Flags3 bit 2 is set (cancel turn if not)
  3: 0x0523 [0x1D] PRINT_EVENT_MESSAGE(message_id=9091*)
     "Munch-munch...chew-chew... What's that? You have a question you want to ask me, the man on the spot?"
  4: 0x0526 [0x23] WAIT_FOR_DIALOG_INTERACTION
  5: 0x0527 [0x29] REQ_SET_WAIT(priority=0x08, entity_id=Kyume-Romeh (ID: 17752147/0x010EE053), tag_num=0x21)
  6: 0x052E [0x1D] PRINT_EVENT_MESSAGE(message_id=9092*)
     "...? Naiko-Paneiko? <choke>-<gasp>-<burp>!"
  7: 0x0531 [0x23] WAIT_FOR_DIALOG_INTERACTION
  8: 0x0532 [0x29] REQ_SET_WAIT(priority=0x08, entity_id=Kyume-Romeh (ID: 17752147/0x010EE053), tag_num=0x22)
  9: 0x0539 [0x29] REQ_SET_WAIT(priority=0x08, entity_id=Kyume-Romeh (ID: 17752147/0x010EE053), tag_num=0x2C)
 10: 0x0540 [0x29] REQ_SET_WAIT(priority=0x08, entity_id=Kyume-Romeh (ID: 17752147/0x010EE053), tag_num=0x2D)
 11: 0x0547 [0x29] REQ_SET_WAIT(priority=0x08, entity_id=Kyume-Romeh (ID: 17752147/0x010EE053), tag_num=0x0B)
 12: 0x054E [0x1D] PRINT_EVENT_MESSAGE(message_id=9093*)
     "Don't ever mention my editor's name while I'm enjoying my steak! I have a beef with him!"
 13: 0x0551 [0x23] WAIT_FOR_DIALOG_INTERACTION
 14: 0x0552 [0x29] REQ_SET_WAIT(priority=0x08, entity_id=Kyume-Romeh (ID: 17752147/0x010EE053), tag_num=0x0C)
 15: 0x0559 [0x29] REQ_SET_WAIT(priority=0x08, entity_id=Kyume-Romeh (ID: 17752147/0x010EE053), tag_num=0x0D)
 16: 0x0560 [0x1D] PRINT_EVENT_MESSAGE(message_id=9094*)
     "I'm busy eating here. If you can handle it, I'll give you my scoop. So bowl outta here or we'll both be in the soup!"
 17: 0x0563 [0x23] WAIT_FOR_DIALOG_INTERACTION
 18: 0x0564 [0x29] REQ_SET_WAIT(priority=0x08, entity_id=Kyume-Romeh (ID: 17752147/0x010EE053), tag_num=0x0E)
 19: 0x056B [0x20] SET_CLI_EVENT_UC_FLAG: Unlock player control
 20: 0x056D [0x21] END_EVENT
 21: 0x056E [0x00] END_REQSTACK()
```

### Event 669

#### Metadata

| Field        | Value    |
|--------------|----------|
| Entrypoint   | 0x056F   |
| Data Size    | 33 bytes |
| Instructions | 12       |

```
      00 01 02 03 04 05 06 07  08 09 0A 0B 0C 0D 0E 0F
      -- -- -- -- -- -- -- --  -- -- -- -- -- -- -- --
0560:                                               1E                 .
0570: F0 FF FF 7F 6F 70 29 08  53 E0 0E 01 0B 1D 1C 80  ....op).S.......
0580: 23 1D 1D 80 23 29 08 53  E0 0E 01 0C 20 00 21 00  #...#).S.... .!.
```

#### Opcodes

```
  0: 0x056F [0x1E] EventEntity looks at LocalPlayer and starts talking
  1: 0x0574 [0x6F] WAIT_FRAME_DELAY: Yield until WaitTime reaches zero
  2: 0x0575 [0x70] WAIT_ENTITY_RENDER_FLAG: Wait while EventEntity->Render.Flags3 bit 2 is set (cancel turn if not)
  3: 0x0576 [0x29] REQ_SET_WAIT(priority=0x08, entity_id=Kyume-Romeh (ID: 17752147/0x010EE053), tag_num=0x0B)
  4: 0x057D [0x1D] PRINT_EVENT_MESSAGE(message_id=9095*)
     "Don't cheese me off by mentioning my editor's name while I'm enjoying fondue!"
  5: 0x0580 [0x23] WAIT_FOR_DIALOG_INTERACTION
  6: 0x0581 [0x1D] PRINT_EVENT_MESSAGE(message_id=9096*)
     "I've forked over my scoop to you, so take it back to him. Come on... Chop chop! Act like a whisk and beat it!"
  7: 0x0584 [0x23] WAIT_FOR_DIALOG_INTERACTION
  8: 0x0585 [0x29] REQ_SET_WAIT(priority=0x08, entity_id=Kyume-Romeh (ID: 17752147/0x010EE053), tag_num=0x0C)
  9: 0x058C [0x20] SET_CLI_EVENT_UC_FLAG: Unlock player control
 10: 0x058E [0x21] END_EVENT
 11: 0x058F [0x00] END_REQSTACK()
```

### Event 638

#### Metadata

| Field        | Value   |
|--------------|---------|
| Entrypoint   | 0x0590  |
| Data Size    | 1 bytes |
| Instructions | 1       |

```
      00 01 02 03 04 05 06 07  08 09 0A 0B 0C 0D 0E 0F
      -- -- -- -- -- -- -- --  -- -- -- -- -- -- -- --
0590: 00                                                .               
```

#### Opcodes

```
  0: 0x0590 [0x00] END_REQSTACK()
```

### Event 873

#### Metadata

| Field        | Value   |
|--------------|---------|
| Entrypoint   | 0x0591  |
| Data Size    | 9 bytes |
| Instructions | 3       |

```
      00 01 02 03 04 05 06 07  08 09 0A 0B 0C 0D 0E 0F
      -- -- -- -- -- -- -- --  -- -- -- -- -- -- -- --
0590:    94 01 F8 FF FF 7F A4  01 00                     .........      
```

#### Opcodes

```
  0: 0x0591 [0x94] EventEntity->Render.Flags3 ^= 0x01
  1: 0x0597 [0xA4] EventEntity->Flags3.unknown_3_2 = 1
  2: 0x0599 [0x00] END_REQSTACK()
```

### Event 878

#### Metadata

| Field        | Value    |
|--------------|----------|
| Entrypoint   | 0x059A   |
| Data Size    | 29 bytes |
| Instructions | 10       |

```
      00 01 02 03 04 05 06 07  08 09 0A 0B 0C 0D 0E 0F
      -- -- -- -- -- -- -- --  -- -- -- -- -- -- -- --
0590:                                1E F0 FF FF 7F 6F            .....o
05A0: 70 29 08 53 E0 0E 01 09  1D 1E 80 23 29 08 53 E0  p).S.......#).S.
05B0: 0E 01 0A 20 00 21 00                              ... .!.         
```

#### Opcodes

```
  0: 0x059A [0x1E] EventEntity looks at LocalPlayer and starts talking
  1: 0x059F [0x6F] WAIT_FRAME_DELAY: Yield until WaitTime reaches zero
  2: 0x05A0 [0x70] WAIT_ENTITY_RENDER_FLAG: Wait while EventEntity->Render.Flags3 bit 2 is set (cancel turn if not)
  3: 0x05A1 [0x29] REQ_SET_WAIT(priority=0x08, entity_id=Kyume-Romeh (ID: 17752147/0x010EE053), tag_num=0x09)
  4: 0x05A8 [0x1D] PRINT_EVENT_MESSAGE(message_id=10497*)
     "...And that's when they took off towards the south part of Windurst Waters. Munch-munch...chew-chew..."
  5: 0x05AB [0x23] WAIT_FOR_DIALOG_INTERACTION
  6: 0x05AC [0x29] REQ_SET_WAIT(priority=0x08, entity_id=Kyume-Romeh (ID: 17752147/0x010EE053), tag_num=0x0A)
  7: 0x05B3 [0x20] SET_CLI_EVENT_UC_FLAG: Unlock player control
  8: 0x05B5 [0x21] END_EVENT
  9: 0x05B6 [0x00] END_REQSTACK()
```

### Event 874

#### Metadata

| Field        | Value    |
|--------------|----------|
| Entrypoint   | 0x05B7   |
| Data Size    | 15 bytes |
| Instructions | 4        |

```
      00 01 02 03 04 05 06 07  08 09 0A 0B 0C 0D 0E 0F
      -- -- -- -- -- -- -- --  -- -- -- -- -- -- -- --
05B0:                      92  01 F8 FF FF 7F 94 01 F8         .........
05C0: FF FF 7F A4 01 00                                 ......          
```

#### Opcodes

```
  0: 0x05B7 [0x92] EventEntity->Render.Flags3 ^= 0x01
  1: 0x05BD [0x94] EventEntity->Render.Flags3 ^= 0x01
  2: 0x05C3 [0xA4] EventEntity->Flags3.unknown_3_2 = 1
  3: 0x05C5 [0x00] END_REQSTACK()
```

### Event 65535.71

#### Metadata

| Field        | Value    |
|--------------|----------|
| Entrypoint   | 0x05C6   |
| Data Size    | 10 bytes |
| Instructions | 2        |

```
      00 01 02 03 04 05 06 07  08 09 0A 0B 0C 0D 0E 0F
      -- -- -- -- -- -- -- --  -- -- -- -- -- -- -- --
05C0:                   37 1F  80 20 80 21 80 22 80 00        7.. .!."..
```

#### Opcodes

```
  0: 0x05C6 [0x37] UPDATE_EVENT_POSITION_AND_DIR: x=-187.659*, z=-114.957*, y=-10.150*, direction=182.9*
  1: 0x05CF [0x00] END_REQSTACK()
```

### Event 65535.72

#### Metadata

| Field        | Value    |
|--------------|----------|
| Entrypoint   | 0x05D0   |
| Data Size    | 22 bytes |
| Instructions | 8        |

```
      00 01 02 03 04 05 06 07  08 09 0A 0B 0C 0D 0E 0F
      -- -- -- -- -- -- -- --  -- -- -- -- -- -- -- --
05D0: 32 00 80 1F 00 23 80 24  80 21 80 1F 01 6F 1E 5C  2....#.$.!...o.\
05E0: E0 0E 01 6F 70 00                                 ...op.          
```

#### Opcodes

```
  0: 0x05D0 [0x32] ExtData[1]->MainSpeed = 40* * 0.1
  1: 0x05D3 [0x1F] MOVE_ENTITY: EventEntity moves to X=-195.410*, Z=-115.446*, Y=-10.150*
  2: 0x05DB [0x1F] MOVE_ENTITY: Update entity position (mode=1)
  3: 0x05DD [0x6F] WAIT_FRAME_DELAY: Yield until WaitTime reaches zero
  4: 0x05DE [0x1E] EventEntity looks at Honoi-Gomoi (ID: 17752156/0x010EE05C) and starts talking
  5: 0x05E3 [0x6F] WAIT_FRAME_DELAY: Yield until WaitTime reaches zero
  6: 0x05E4 [0x70] WAIT_ENTITY_RENDER_FLAG: Wait while EventEntity->Render.Flags3 bit 2 is set (cancel turn if not)
  7: 0x05E5 [0x00] END_REQSTACK()
```

### Event 65535.73

#### Metadata

| Field        | Value    |
|--------------|----------|
| Entrypoint   | 0x05E6   |
| Data Size    | 15 bytes |
| Instructions | 5        |

```
      00 01 02 03 04 05 06 07  08 09 0A 0B 0C 0D 0E 0F
      -- -- -- -- -- -- -- --  -- -- -- -- -- -- -- --
05E0:                   32 00  80 1F 00 1F 80 20 80 21        2...... .!
05F0: 80 1F 01 6F 00                                    ...o.           
```

#### Opcodes

```
  0: 0x05E6 [0x32] ExtData[1]->MainSpeed = 40* * 0.1
  1: 0x05E9 [0x1F] MOVE_ENTITY: EventEntity moves to X=-187.659*, Z=-114.957*, Y=-10.150*
  2: 0x05F1 [0x1F] MOVE_ENTITY: Update entity position (mode=1)
  3: 0x05F3 [0x6F] WAIT_FRAME_DELAY: Yield until WaitTime reaches zero
  4: 0x05F4 [0x00] END_REQSTACK()
```

### Event 65535.74

#### Metadata

| Field        | Value    |
|--------------|----------|
| Entrypoint   | 0x05F5   |
| Data Size    | 10 bytes |
| Instructions | 2        |

```
      00 01 02 03 04 05 06 07  08 09 0A 0B 0C 0D 0E 0F
      -- -- -- -- -- -- -- --  -- -- -- -- -- -- -- --
05F0:                37 25 80  26 80 21 80 27 80 00          7%.&.!.'.. 
```

#### Opcodes

```
  0: 0x05F5 [0x37] UPDATE_EVENT_POSITION_AND_DIR: x=-188.459*, z=-116.983*, y=-10.150*, direction=287.6*
  1: 0x05FE [0x00] END_REQSTACK()
```

### Event 65535.75

#### Metadata

| Field        | Value    |
|--------------|----------|
| Entrypoint   | 0x05FF   |
| Data Size    | 24 bytes |
| Instructions | 10       |

```
      00 01 02 03 04 05 06 07  08 09 0A 0B 0C 0D 0E 0F
      -- -- -- -- -- -- -- --  -- -- -- -- -- -- -- --
05F0:                                               1C                 .
0600: 28 80 1E FC E0 0E 01 6F  70 1C 29 80 1E FC E0 0E  (......op.).....
0610: 01 6F 70 1C 29 80 00                              .op.)..         
```

#### Opcodes

```
  0: 0x05FF [0x1C] WAIT(70* ticks)
  1: 0x0602 [0x1E] EventEntity looks at Makki-Chebukki (ID: 17752316/0x010EE0FC) and starts talking
  2: 0x0607 [0x6F] WAIT_FRAME_DELAY: Yield until WaitTime reaches zero
  3: 0x0608 [0x70] WAIT_ENTITY_RENDER_FLAG: Wait while EventEntity->Render.Flags3 bit 2 is set (cancel turn if not)
  4: 0x0609 [0x1C] WAIT(50* ticks)
  5: 0x060C [0x1E] EventEntity looks at Makki-Chebukki (ID: 17752316/0x010EE0FC) and starts talking
  6: 0x0611 [0x6F] WAIT_FRAME_DELAY: Yield until WaitTime reaches zero
  7: 0x0612 [0x70] WAIT_ENTITY_RENDER_FLAG: Wait while EventEntity->Render.Flags3 bit 2 is set (cancel turn if not)
  8: 0x0613 [0x1C] WAIT(50* ticks)
  9: 0x0616 [0x00] END_REQSTACK()
```

### Event 65535.76

#### Metadata

| Field        | Value    |
|--------------|----------|
| Entrypoint   | 0x0617   |
| Data Size    | 24 bytes |
| Instructions | 6        |

```
      00 01 02 03 04 05 06 07  08 09 0A 0B 0C 0D 0E 0F
      -- -- -- -- -- -- -- --  -- -- -- -- -- -- -- --
0610:                      32  00 80 1F 00 2A 80 2B 80         2....*.+.
0620: 21 80 1F 01 5A 00 2C 80  2D 80 2E 80 5A 01 00     !...Z.,.-...Z.. 
```

#### Opcodes

```
  0: 0x0617 [0x32] ExtData[1]->MainSpeed = 40* * 0.1
  1: 0x061A [0x1F] MOVE_ENTITY: EventEntity moves to X=-184.570*, Z=-113.548*, Y=-10.150*
  2: 0x0622 [0x1F] MOVE_ENTITY: Update entity position (mode=1)
  3: 0x0624 [0x5A] UPDATE_EVENT_POSITION: Set EventEntity MovePosition to X=-183.940*, Z=-100.878*, Y=-4.400*
  4: 0x062C [0x5A] UPDATE_EVENT_POSITION: Move EventEntity incrementally towards MovePosition
  5: 0x062E [0x00] END_REQSTACK()
```

### Event 891

#### Metadata

| Field        | Value    |
|--------------|----------|
| Entrypoint   | 0x062F   |
| Data Size    | 65 bytes |
| Instructions | 18       |

```
      00 01 02 03 04 05 06 07  08 09 0A 0B 0C 0D 0E 0F
      -- -- -- -- -- -- -- --  -- -- -- -- -- -- -- --
0620:                                               1E                 .
0630: F0 FF FF 7F 6F 70 29 08  53 E0 0E 01 01 1D 2F 80  ....op).S...../.
0640: 23 29 08 53 E0 0E 01 02  29 08 53 E0 0E 01 09 1D  #).S....).S.....
0650: 30 80 23 29 08 53 E0 0E  01 0A 29 08 53 E0 0E 01  0.#).S....).S...
0660: 01 1D 31 80 23 29 08 53  E0 0E 01 02 20 00 21 00  ..1.#).S.... .!.
```

#### Opcodes

```
  0: 0x062F [0x1E] EventEntity looks at LocalPlayer and starts talking
  1: 0x0634 [0x6F] WAIT_FRAME_DELAY: Yield until WaitTime reaches zero
  2: 0x0635 [0x70] WAIT_ENTITY_RENDER_FLAG: Wait while EventEntity->Render.Flags3 bit 2 is set (cancel turn if not)
  3: 0x0636 [0x29] REQ_SET_WAIT(priority=0x08, entity_id=Kyume-Romeh (ID: 17752147/0x010EE053), tag_num=0x01)
  4: 0x063D [0x1D] PRINT_EVENT_MESSAGE(message_id=10541*)
     "Munch-munch...chew-chew... I was able to find out all sorts of juicy details from that article."
  5: 0x0640 [0x23] WAIT_FOR_DIALOG_INTERACTION
  6: 0x0641 [0x29] REQ_SET_WAIT(priority=0x08, entity_id=Kyume-Romeh (ID: 17752147/0x010EE053), tag_num=0x02)
  7: 0x0648 [0x29] REQ_SET_WAIT(priority=0x08, entity_id=Kyume-Romeh (ID: 17752147/0x010EE053), tag_num=0x09)
  8: 0x064F [0x1D] PRINT_EVENT_MESSAGE(message_id=10542*)
     "But I'll have to skip lunch to investigate justaru how authentic this story really is...munch-munch..."
  9: 0x0652 [0x23] WAIT_FOR_DIALOG_INTERACTION
 10: 0x0653 [0x29] REQ_SET_WAIT(priority=0x08, entity_id=Kyume-Romeh (ID: 17752147/0x010EE053), tag_num=0x0A)
 11: 0x065A [0x29] REQ_SET_WAIT(priority=0x08, entity_id=Kyume-Romeh (ID: 17752147/0x010EE053), tag_num=0x01)
 12: 0x0661 [0x1D] PRINT_EVENT_MESSAGE(message_id=10543*)
     "If you're looking for those three Tarutaru, they headed for the air travel agency. If I recall, there's a reporter around that area who works for the same boss as the man on the spot...chew-chew..."
 13: 0x0664 [0x23] WAIT_FOR_DIALOG_INTERACTION
 14: 0x0665 [0x29] REQ_SET_WAIT(priority=0x08, entity_id=Kyume-Romeh (ID: 17752147/0x010EE053), tag_num=0x02)
 15: 0x066C [0x20] SET_CLI_EVENT_UC_FLAG: Unlock player control
 16: 0x066E [0x21] END_EVENT
 17: 0x066F [0x00] END_REQSTACK()
```
