# 17752078 - Dagoza-Beruza

## Common Data

| Field            | Value                     |
|------------------|---------------------------|
| Zone             | Windurst Waters (ID: 238) |
| Block Size       | 1792 bytes                |
| Total Events     | 49                        |
| References Count | 60                        |

## List of Events

| Event ID                   | Entrypoint   |   Size |   Instructions |
|----------------------------|--------------|--------|----------------|
| [65535](#event-65535)      | 0x0000       |      1 |              1 |
| [65535.1](#event-655351)   | 0x0001       |     16 |              2 |
| [65535.2](#event-655352)   | 0x0011       |     22 |              4 |
| [65535.3](#event-655353)   | 0x0027       |     16 |              2 |
| [65535.4](#event-655354)   | 0x0037       |     14 |              2 |
| [65535.5](#event-655355)   | 0x0045       |     16 |              2 |
| [65535.6](#event-655356)   | 0x0055       |     14 |              2 |
| [65535.7](#event-655357)   | 0x0063       |      9 |              3 |
| [65535.8](#event-655358)   | 0x006C       |     16 |              2 |
| [65535.9](#event-655359)   | 0x007C       |     14 |              2 |
| [65535.10](#event-6553510) | 0x008A       |     16 |              2 |
| [65535.11](#event-6553511) | 0x009A       |     14 |              2 |
| [65535.12](#event-6553512) | 0x00A8       |     16 |              2 |
| [65535.13](#event-6553513) | 0x00B8       |     14 |              2 |
| [104](#event-104)          | 0x00C6       |     29 |             10 |
| [108](#event-108)          | 0x00E3       |     29 |             10 |
| [112](#event-112)          | 0x0100       |     33 |             12 |
| [115](#event-115)          | 0x0121       |     33 |             12 |
| [213](#event-213)          | 0x0142       |     29 |             10 |
| [178](#event-178)          | 0x015F       |     47 |             14 |
| [157](#event-157)          | 0x018E       |     33 |             12 |
| [138](#event-138)          | 0x01AF       |     33 |             12 |
| [150](#event-150)          | 0x01D0       |     29 |             10 |
| [151](#event-151)          | 0x01ED       |     33 |             12 |
| [132](#event-132)          | 0x020E       |     37 |             14 |
| [118](#event-118)          | 0x0233       |      1 |              1 |
| [119](#event-119)          | 0x0234       |      1 |              1 |
| [120](#event-120)          | 0x0235       |      1 |              1 |
| [65535.14](#event-6553514) | 0x0236       |     19 |              5 |
| [121](#event-121)          | 0x0249       |     29 |             10 |
| [128](#event-128)          | 0x0266       |     29 |             10 |
| [219](#event-219)          | 0x0283       |     33 |             12 |
| [225](#event-225)          | 0x02A4       |     33 |             12 |
| [230](#event-230)          | 0x02C5       |     33 |             12 |
| [234](#event-234)          | 0x02E6       |     33 |             12 |
| [239](#event-239)          | 0x0307       |     33 |             12 |
| [244](#event-244)          | 0x0328       |     33 |             12 |
| [247](#event-247)          | 0x0349       |     33 |             12 |
| [769](#event-769)          | 0x036A       |     33 |             12 |
| [703](#event-703)          | 0x038B       |     33 |             12 |
| [708](#event-708)          | 0x03AC       |     33 |             12 |
| [713](#event-713)          | 0x03CD       |     33 |             12 |
| [731](#event-731)          | 0x03EE       |     33 |             12 |
| [749](#event-749)          | 0x040F       |     33 |             12 |
| [765](#event-765)          | 0x0430       |     47 |             14 |
| [827](#event-827)          | 0x045F       |     47 |             14 |
| [835](#event-835)          | 0x048E       |     65 |             18 |
| [832](#event-832)          | 0x04CF       |     61 |             16 |
| [839](#event-839)          | 0x050C       |     47 |             14 |

## DAT References (imed_data)

|   Index | Hex Value   |   Dec Value |
|---------|-------------|-------------|
|       0 | 0x0028      |          40 |
|       1 | 0x001E      |          30 |
|       2 | 0x0029      |          41 |
|       3 | 0x1D55      |        7509 |
|       4 | 0x1D5A      |        7514 |
|       5 | 0x1D5F      |        7519 |
|       6 | 0x1D60      |        7520 |
|       7 | 0x1D64      |        7524 |
|       8 | 0x1D65      |        7525 |
|       9 | 0x1E76      |        7798 |
|      10 | 0x1E29      |        7721 |
|      11 | 0x1E2A      |        7722 |
|      12 | 0x1DE6      |        7654 |
|      13 | 0x1DE7      |        7655 |
|      14 | 0x1DAD      |        7597 |
|      15 | 0x1DAE      |        7598 |
|      16 | 0x1DD6      |        7638 |
|      17 | 0x1D98      |        7576 |
|      18 | 0x1D99      |        7577 |
|      19 | 0x1D9A      |        7578 |
|      20 | 0x1D70      |        7536 |
|      21 | 0x1D82      |        7554 |
|      22 | 0x1D8D      |        7565 |
|      23 | 0x1E82      |        7810 |
|      24 | 0x1E83      |        7811 |
|      25 | 0x1E90      |        7824 |
|      26 | 0x1E91      |        7825 |
|      27 | 0x1E9B      |        7835 |
|      28 | 0x1E9C      |        7836 |
|      29 | 0x1EA3      |        7843 |
|      30 | 0x1EA4      |        7844 |
|      31 | 0x1EAE      |        7854 |
|      32 | 0x1EAF      |        7855 |
|      33 | 0x1EB8      |        7864 |
|      34 | 0x1EB9      |        7865 |
|      35 | 0x1EBE      |        7870 |
|      36 | 0x1EBF      |        7871 |
|      37 | 0x258B      |        9611 |
|      38 | 0x258C      |        9612 |
|      39 | 0x2597      |        9623 |
|      40 | 0x2598      |        9624 |
|      41 | 0x25A7      |        9639 |
|      42 | 0x25A8      |        9640 |
|      43 | 0x25B2      |        9650 |
|      44 | 0x25B3      |        9651 |
|      45 | 0x25F1      |        9713 |
|      46 | 0x25F2      |        9714 |
|      47 | 0x2623      |        9763 |
|      48 | 0x2624      |        9764 |
|      49 | 0x2654      |        9812 |
|      50 | 0x2655      |        9813 |
|      51 | 0x2748      |       10056 |
|      52 | 0x2749      |       10057 |
|      53 | 0x274F      |       10063 |
|      54 | 0x2750      |       10064 |
|      55 | 0x2751      |       10065 |
|      56 | 0x275D      |       10077 |
|      57 | 0x275E      |       10078 |
|      58 | 0x2768      |       10088 |
|      59 | 0x2769      |       10089 |

## String References

- **7509**: You look new to these parts. I guess we should introduce ourselves to each other-wother. This is the north gatehouse, and we're the guards whose duty it is to protect Windurst.
- **7514**: If you're a citizen of Windurst, then pleasey-weasey sign up for your first mission here! We're having a bet with the other gatehouses over who can gainy-wainy the most new recruits.
- **7519**: Was Miss Apururu well?
- **7520**: If Miss Apururu is well, then I'm happy-wappy.
- **7524**: Can you stand on your own two feetsy-weetsy as an adventurer yet?
- **7525**: If so, then you should help out other new adventurers. Kindness is the most whooper-dooper magic that anyone can use.
- **7536**: Collect enough rank points, and your rank, or relative position in society, will rise.
- **7554**: Hmm... My first task was to clean up the garbage in Sarutabaruta. Thinking back now...boy, those days were peaceful!
- **7565**: Thank you for your continuing service. We hope you'll keep up the effort by helping us out with our next task.
- **7576**: I can't hide the fact that I'm a big fan of Apururu from the Manustery!
- **7577**: She's always so nice and kindy-windy, never failing to show her shining smiley-wiley, despite her tragic past.
- **7578**: Listen here! You better complete Apururu's mission as fasty-wasty and as perfectly-werfectly as possible. Don't you dare mess up! You got it?
- **7597**: Make no mistakey-wakeys! Although we're supposed to be on friendly terms with the Yagudo, Giddeus is still a dangerous dungeon.
- **7598**: Even if you explain that you're simply a messenger from Windurst, they'll say that they have to "test" you to determine the truth. Then they all start to attack you.
- **7638**: You were able to deliver the goods to Giddeus, huh? Congratulations! That means you're now rank two!
- **7654**: It's very unusual for the Optistery to ask for assistance from the gatehouses.
- **7655**: For ordinary overdue library books, the Optistery just asks any passer-by to help them out. I wonder if something serious has happened!?
- **7721**: The School of Magic!? That place is a number-crunching hell! One step inside there and you're instantly differentiated and evaluated.
- **7722**: Shivers! That place is, like, 2.352 times scarier than Giddeus!
- **7798**: Heavens Tower is actually a giant star tree blessed with the protection of the skies and stars. It truly-wuly is the center of Windurst.
- **7810**: After the war, several Mithra cubs were sent to serve at Heavens Tower.
- **7811**: By rights they should have been mere ladies-in-waiting, but by the Star Sibyl's grace, they were allowed to serve as special protectors of Heavens Tower. That's how the Sibyl Guards were born.
- **7824**: According to the budding young ladies-in-waiting, the worst part about Heavens Tower is the mumbling-grumbling nagging of their head lady-in-waiting, Zubaba.
- **7825**: I wonder why the older you get, the louder you grow. I guess you can't chew on things as well as you used to, so you bite at people instead.
- **7835**: You shouldn't be dawdling here. Hurry on over-wover to Heavens Tower!
- **7836**: You're nowhere near high enough in position to keep the Star Sibyl waiting. Not in a million light-years...! You better head to Heavens Tower immediately!
- **7843**: Hmm... Heavens Tower is in turmoil over something big.
- **7844**: My little sister is a lady-in-waiting, so I want to ask her about a lot of this stuff. But that would just be putting her on the spot.
- **7854**: Our fellow guards are currently checking whether the talismans sealed away in the other countries are safe or not.
- **7855**: You have already received the order to head out for the ruins of Fei'Yin. Carry out your appointed task well, my friend! We're counting on you!
- **7864**: As soon as I heard the sudden convocation of the five ministries, I had a bad feeling about it.
- **7865**: After the last incident in the Horutoto Ruins, I knew there was something scary-wary going down.
- **7870**: A little while ago, a letter with a shooting star emblem on it was delivered to each of the ministers of the five ministries.
- **7871**: A shooting star emblem signifies "as fast as possible," so I delivered them as quickly-wickly as I could.
- **9611**: At times like these, you've gotta be cool, calm, and... Um...
- **9612**: We guards are Windurst's last line of defense. No mattaru what happens, I must keep Miss Apururu safe from harm.
- **9623**: There's a well-known story from the time when Minister Ajido-Marujido was in magic school.
- **9624**: The minister got stompily-womped in the monster-hunting exam on Buburimu Peninsula when he tried to beat the record held by Karaha-Baruha. He really-weally hates to lose.
- **9639**: The Star Sibyl awaits you at Heavens Tower. It appears to be a very gravy-wave matter.
- **9640**: If you're thinking of running off to another country, now's the time to do it. I should tell you, though, the guards will definitaruly come after you. I'm sorry you gotaru mixed up in all this.
- **9650**: Minister Tosuka-Porika of the Optistery was never very buddy-wuddy with Minister Ajido-Marujido.
- **9651**: So when the Minister of the Orastery was captured, Minister Tosuka-Porika was pleased as punchy-wunch. He's that sortaru of guy.
- **9713**: Most people think that the Rhinostery justaru researches plants, but actually, their research encompasses all living things.
- **9714**: Biology researchers wander all over Vana'diel. The mostaru capable adventurers of the Rhinostery always accompany these researchers on their treks into dangerous territory.
- **9763**: The principal of the School of Magic is a very pleasant, although eccentric, character.
- **9764**: When we were kids--just normal students at the school, the principal would come and join in our Tarutaru games.
- **9812**: I can't bear to see Miss Apururu's tears. I'll personally taru and feather anyone who messes with my Apururu!
- **9813**: I detestaru that Ajido-marujido. This is all his fault!
- **10056**: Miss Apururu and her brother are in such a pickle-wickle... If their father, Zonpa-Zippa, was still with us, he would have saved them from this sticky situation.
- **10057**: ...... Or maybe things justaru would've gotten worse. Zonpa-Zippa was never known for being a particularly helpful-welpful guy...
- **10063**: You wanna know what kind of person Zonpa-Zippa was?
- **10064**: ...Zonpa-Zippa was an extremely-wemely strict minister. He pushed our children to their limits with his unrelentaruing style of education.
- **10065**: He was particularly harsh with Ajido-Marujido.
- **10077**: Even with Minister Ajido-Marujido's return to consciousness and the pardoning of his crimes, Miss Apururu still looks all pasty-wasty!
- **10078**: She mustaru be working too hard. The Cardians should be doing all the menial tasks of the Manustery!
- **10088**: Seeing the smiley-wiley faces of the children when I do my rounds of Windurst Waters justaru blows my tiredness away.
- **10089**: And to top it all off, even the Mithra we pass have begun greeting us in a friendly fashion. Isn't that greataru?

## Events

### Event 65535

#### Metadata

| Field        | Value   |
|--------------|---------|
| Entrypoint   | 0x0000  |
| Data Size    | 1 bytes |
| Instructions | 1       |

```
      00 01 02 03 04 05 06 07  08 09 0A 0B 0C 0D 0E 0F
      -- -- -- -- -- -- -- --  -- -- -- -- -- -- -- --
0000: 00                                                .               
```

#### Opcodes

```
  0: 0x0000 [0x00] END_REQSTACK()
```

### Event 65535.1

#### Metadata

| Field        | Value    |
|--------------|----------|
| Entrypoint   | 0x0001   |
| Data Size    | 16 bytes |
| Instructions | 2        |

```
      00 01 02 03 04 05 06 07  08 09 0A 0B 0C 0D 0E 0F
      -- -- -- -- -- -- -- --  -- -- -- -- -- -- -- --
0000:    66 00 80 F8 FF FF 7F  F8 FF FF 7F 74 6C 6B 30   f..........tlk0
0010: 00                                                .               
```

#### Opcodes

```
  0: 0x0001 [0x66] LOAD_EXT_SCHEDULER_MAIN: Load scheduler "tlk0" with entities [EventEntity, EventEntity], work=40*
  1: 0x0010 [0x00] END_REQSTACK()
```

### Event 65535.2

#### Metadata

| Field        | Value    |
|--------------|----------|
| Entrypoint   | 0x0011   |
| Data Size    | 22 bytes |
| Instructions | 4        |

```
      00 01 02 03 04 05 06 07  08 09 0A 0B 0C 0D 0E 0F
      -- -- -- -- -- -- -- --  -- -- -- -- -- -- -- --
0010:    53 F8 FF FF 7F F8 FF  FF 7F 74 6C 6B 30 5E 69   S........tlk0^i
0020: 64 6C 30 1C 01 80 00                              dl0....         
```

#### Opcodes

```
  0: 0x0011 [0x53] WAIT_SCHEDULER_TASK: Wait for scheduler "tlk0" with entities [EventEntity, EventEntity]
  1: 0x001E [0x5E] EventEntity goes idle (kills current action) (animation: "idl0")
  2: 0x0023 [0x1C] WAIT(30* ticks)
  3: 0x0026 [0x00] END_REQSTACK()
```

### Event 65535.3

#### Metadata

| Field        | Value    |
|--------------|----------|
| Entrypoint   | 0x0027   |
| Data Size    | 16 bytes |
| Instructions | 2        |

```
      00 01 02 03 04 05 06 07  08 09 0A 0B 0C 0D 0E 0F
      -- -- -- -- -- -- -- --  -- -- -- -- -- -- -- --
0020:                      66  02 80 F8 FF FF 7F F8 FF         f........
0030: FF 7F 73 68 6B 30 00                              ..shk0.         
```

#### Opcodes

```
  0: 0x0027 [0x66] LOAD_EXT_SCHEDULER_MAIN: Load scheduler "shk0" with entities [EventEntity, EventEntity], work=41*
  1: 0x0036 [0x00] END_REQSTACK()
```

### Event 65535.4

#### Metadata

| Field        | Value    |
|--------------|----------|
| Entrypoint   | 0x0037   |
| Data Size    | 14 bytes |
| Instructions | 2        |

```
      00 01 02 03 04 05 06 07  08 09 0A 0B 0C 0D 0E 0F
      -- -- -- -- -- -- -- --  -- -- -- -- -- -- -- --
0030:                      53  F8 FF FF 7F F8 FF FF 7F         S........
0040: 73 68 6B 30 00                                    shk0.           
```

#### Opcodes

```
  0: 0x0037 [0x53] WAIT_SCHEDULER_TASK: Wait for scheduler "shk0" with entities [EventEntity, EventEntity]
  1: 0x0044 [0x00] END_REQSTACK()
```

### Event 65535.5

#### Metadata

| Field        | Value    |
|--------------|----------|
| Entrypoint   | 0x0045   |
| Data Size    | 16 bytes |
| Instructions | 2        |

```
      00 01 02 03 04 05 06 07  08 09 0A 0B 0C 0D 0E 0F
      -- -- -- -- -- -- -- --  -- -- -- -- -- -- -- --
0040:                66 00 80  F8 FF FF 7F F8 FF FF 7F       f..........
0050: 69 72 6F 30 00                                    iro0.           
```

#### Opcodes

```
  0: 0x0045 [0x66] LOAD_EXT_SCHEDULER_MAIN: Load scheduler "iro0" with entities [EventEntity, EventEntity], work=40*
  1: 0x0054 [0x00] END_REQSTACK()
```

### Event 65535.6

#### Metadata

| Field        | Value    |
|--------------|----------|
| Entrypoint   | 0x0055   |
| Data Size    | 14 bytes |
| Instructions | 2        |

```
      00 01 02 03 04 05 06 07  08 09 0A 0B 0C 0D 0E 0F
      -- -- -- -- -- -- -- --  -- -- -- -- -- -- -- --
0050:                53 F8 FF  FF 7F F8 FF FF 7F 69 72       S........ir
0060: 6F 30 00                                          o0.             
```

#### Opcodes

```
  0: 0x0055 [0x53] WAIT_SCHEDULER_TASK: Wait for scheduler "iro0" with entities [EventEntity, EventEntity]
  1: 0x0062 [0x00] END_REQSTACK()
```

### Event 65535.7

#### Metadata

| Field        | Value   |
|--------------|---------|
| Entrypoint   | 0x0063  |
| Data Size    | 9 bytes |
| Instructions | 3       |

```
      00 01 02 03 04 05 06 07  08 09 0A 0B 0C 0D 0E 0F
      -- -- -- -- -- -- -- --  -- -- -- -- -- -- -- --
0060:          5E 69 64 6C 30  1C 01 80 00                 ^idl0....    
```

#### Opcodes

```
  0: 0x0063 [0x5E] EventEntity goes idle (kills current action) (animation: "idl0")
  1: 0x0068 [0x1C] WAIT(30* ticks)
  2: 0x006B [0x00] END_REQSTACK()
```

### Event 65535.8

#### Metadata

| Field        | Value    |
|--------------|----------|
| Entrypoint   | 0x006C   |
| Data Size    | 16 bytes |
| Instructions | 2        |

```
      00 01 02 03 04 05 06 07  08 09 0A 0B 0C 0D 0E 0F
      -- -- -- -- -- -- -- --  -- -- -- -- -- -- -- --
0060:                                      66 00 80 F8              f...
0070: FF FF 7F F8 FF FF 7F 74  68 6B 31 00              .......thk1.    
```

#### Opcodes

```
  0: 0x006C [0x66] LOAD_EXT_SCHEDULER_MAIN: Load scheduler "thk1" with entities [EventEntity, EventEntity], work=40*
  1: 0x007B [0x00] END_REQSTACK()
```

### Event 65535.9

#### Metadata

| Field        | Value    |
|--------------|----------|
| Entrypoint   | 0x007C   |
| Data Size    | 14 bytes |
| Instructions | 2        |

```
      00 01 02 03 04 05 06 07  08 09 0A 0B 0C 0D 0E 0F
      -- -- -- -- -- -- -- --  -- -- -- -- -- -- -- --
0070:                                      53 F8 FF FF              S...
0080: 7F F8 FF FF 7F 74 68 6B  31 00                    .....thk1.      
```

#### Opcodes

```
  0: 0x007C [0x53] WAIT_SCHEDULER_TASK: Wait for scheduler "thk1" with entities [EventEntity, EventEntity]
  1: 0x0089 [0x00] END_REQSTACK()
```

### Event 65535.10

#### Metadata

| Field        | Value    |
|--------------|----------|
| Entrypoint   | 0x008A   |
| Data Size    | 16 bytes |
| Instructions | 2        |

```
      00 01 02 03 04 05 06 07  08 09 0A 0B 0C 0D 0E 0F
      -- -- -- -- -- -- -- --  -- -- -- -- -- -- -- --
0080:                                66 00 80 F8 FF FF            f.....
0090: 7F F8 FF FF 7F 74 68 6B  32 00                    .....thk2.      
```

#### Opcodes

```
  0: 0x008A [0x66] LOAD_EXT_SCHEDULER_MAIN: Load scheduler "thk2" with entities [EventEntity, EventEntity], work=40*
  1: 0x0099 [0x00] END_REQSTACK()
```

### Event 65535.11

#### Metadata

| Field        | Value    |
|--------------|----------|
| Entrypoint   | 0x009A   |
| Data Size    | 14 bytes |
| Instructions | 2        |

```
      00 01 02 03 04 05 06 07  08 09 0A 0B 0C 0D 0E 0F
      -- -- -- -- -- -- -- --  -- -- -- -- -- -- -- --
0090:                                53 F8 FF FF 7F F8            S.....
00A0: FF FF 7F 74 68 6B 32 00                           ...thk2.        
```

#### Opcodes

```
  0: 0x009A [0x53] WAIT_SCHEDULER_TASK: Wait for scheduler "thk2" with entities [EventEntity, EventEntity]
  1: 0x00A7 [0x00] END_REQSTACK()
```

### Event 65535.12

#### Metadata

| Field        | Value    |
|--------------|----------|
| Entrypoint   | 0x00A8   |
| Data Size    | 16 bytes |
| Instructions | 2        |

```
      00 01 02 03 04 05 06 07  08 09 0A 0B 0C 0D 0E 0F
      -- -- -- -- -- -- -- --  -- -- -- -- -- -- -- --
00A0:                          66 00 80 F8 FF FF 7F F8          f.......
00B0: FF FF 7F 64 69 73 30 00                           ...dis0.        
```

#### Opcodes

```
  0: 0x00A8 [0x66] LOAD_EXT_SCHEDULER_MAIN: Load scheduler "dis0" with entities [EventEntity, EventEntity], work=40*
  1: 0x00B7 [0x00] END_REQSTACK()
```

### Event 65535.13

#### Metadata

| Field        | Value    |
|--------------|----------|
| Entrypoint   | 0x00B8   |
| Data Size    | 14 bytes |
| Instructions | 2        |

```
      00 01 02 03 04 05 06 07  08 09 0A 0B 0C 0D 0E 0F
      -- -- -- -- -- -- -- --  -- -- -- -- -- -- -- --
00B0:                          53 F8 FF FF 7F F8 FF FF          S.......
00C0: 7F 64 69 73 30 00                                 .dis0.          
```

#### Opcodes

```
  0: 0x00B8 [0x53] WAIT_SCHEDULER_TASK: Wait for scheduler "dis0" with entities [EventEntity, EventEntity]
  1: 0x00C5 [0x00] END_REQSTACK()
```

### Event 104

#### Metadata

| Field        | Value    |
|--------------|----------|
| Entrypoint   | 0x00C6   |
| Data Size    | 29 bytes |
| Instructions | 10       |

```
      00 01 02 03 04 05 06 07  08 09 0A 0B 0C 0D 0E 0F
      -- -- -- -- -- -- -- --  -- -- -- -- -- -- -- --
00C0:                   1E F0  FF FF 7F 6F 70 29 08 0E        .....op)..
00D0: E0 0E 01 01 1D 03 80 23  29 08 0E E0 0E 01 02 20  .......#)...... 
00E0: 00 21 00                                          .!.             
```

#### Opcodes

```
  0: 0x00C6 [0x1E] EventEntity looks at LocalPlayer and starts talking
  1: 0x00CB [0x6F] WAIT_FRAME_DELAY: Yield until WaitTime reaches zero
  2: 0x00CC [0x70] WAIT_ENTITY_RENDER_FLAG: Wait while EventEntity->Render.Flags3 bit 2 is set (cancel turn if not)
  3: 0x00CD [0x29] REQ_SET_WAIT(priority=0x08, entity_id=Dagoza-Beruza (ID: 17752078/0x010EE00E), tag_num=0x01)
  4: 0x00D4 [0x1D] PRINT_EVENT_MESSAGE(message_id=7509*)
    → "You look new to these parts. I guess we should introduce ourselves to each other-wother. This is the north gatehouse, and we're the guards whose duty it is to protect Windurst."
  5: 0x00D7 [0x23] WAIT_FOR_DIALOG_INTERACTION
  6: 0x00D8 [0x29] REQ_SET_WAIT(priority=0x08, entity_id=Dagoza-Beruza (ID: 17752078/0x010EE00E), tag_num=0x02)
  7: 0x00DF [0x20] SET_CLI_EVENT_UC_FLAG: Unlock player control
  8: 0x00E1 [0x21] END_EVENT
  9: 0x00E2 [0x00] END_REQSTACK()
```

### Event 108

#### Metadata

| Field        | Value    |
|--------------|----------|
| Entrypoint   | 0x00E3   |
| Data Size    | 29 bytes |
| Instructions | 10       |

```
      00 01 02 03 04 05 06 07  08 09 0A 0B 0C 0D 0E 0F
      -- -- -- -- -- -- -- --  -- -- -- -- -- -- -- --
00E0:          1E F0 FF FF 7F  6F 70 29 08 0E E0 0E 01     .....op).....
00F0: 01 1D 04 80 23 29 08 0E  E0 0E 01 02 20 00 21 00  ....#)...... .!.
```

#### Opcodes

```
  0: 0x00E3 [0x1E] EventEntity looks at LocalPlayer and starts talking
  1: 0x00E8 [0x6F] WAIT_FRAME_DELAY: Yield until WaitTime reaches zero
  2: 0x00E9 [0x70] WAIT_ENTITY_RENDER_FLAG: Wait while EventEntity->Render.Flags3 bit 2 is set (cancel turn if not)
  3: 0x00EA [0x29] REQ_SET_WAIT(priority=0x08, entity_id=Dagoza-Beruza (ID: 17752078/0x010EE00E), tag_num=0x01)
  4: 0x00F1 [0x1D] PRINT_EVENT_MESSAGE(message_id=7514*)
    → "If you're a citizen of Windurst, then pleasey-weasey sign up for your first mission here! We're having a bet with the other gatehouses over who can gainy-wainy the most new recruits."
  5: 0x00F4 [0x23] WAIT_FOR_DIALOG_INTERACTION
  6: 0x00F5 [0x29] REQ_SET_WAIT(priority=0x08, entity_id=Dagoza-Beruza (ID: 17752078/0x010EE00E), tag_num=0x02)
  7: 0x00FC [0x20] SET_CLI_EVENT_UC_FLAG: Unlock player control
  8: 0x00FE [0x21] END_EVENT
  9: 0x00FF [0x00] END_REQSTACK()
```

### Event 112

#### Metadata

| Field        | Value    |
|--------------|----------|
| Entrypoint   | 0x0100   |
| Data Size    | 33 bytes |
| Instructions | 12       |

```
      00 01 02 03 04 05 06 07  08 09 0A 0B 0C 0D 0E 0F
      -- -- -- -- -- -- -- --  -- -- -- -- -- -- -- --
0100: 1E F0 FF FF 7F 6F 70 29  08 0E E0 0E 01 01 1D 05  .....op)........
0110: 80 23 1D 06 80 23 29 08  0E E0 0E 01 02 20 00 21  .#...#)...... .!
0120: 00                                                .               
```

#### Opcodes

```
  0: 0x0100 [0x1E] EventEntity looks at LocalPlayer and starts talking
  1: 0x0105 [0x6F] WAIT_FRAME_DELAY: Yield until WaitTime reaches zero
  2: 0x0106 [0x70] WAIT_ENTITY_RENDER_FLAG: Wait while EventEntity->Render.Flags3 bit 2 is set (cancel turn if not)
  3: 0x0107 [0x29] REQ_SET_WAIT(priority=0x08, entity_id=Dagoza-Beruza (ID: 17752078/0x010EE00E), tag_num=0x01)
  4: 0x010E [0x1D] PRINT_EVENT_MESSAGE(message_id=7519*)
    → "Was Miss Apururu well?"
  5: 0x0111 [0x23] WAIT_FOR_DIALOG_INTERACTION
  6: 0x0112 [0x1D] PRINT_EVENT_MESSAGE(message_id=7520*)
    → "If Miss Apururu is well, then I'm happy-wappy."
  7: 0x0115 [0x23] WAIT_FOR_DIALOG_INTERACTION
  8: 0x0116 [0x29] REQ_SET_WAIT(priority=0x08, entity_id=Dagoza-Beruza (ID: 17752078/0x010EE00E), tag_num=0x02)
  9: 0x011D [0x20] SET_CLI_EVENT_UC_FLAG: Unlock player control
 10: 0x011F [0x21] END_EVENT
 11: 0x0120 [0x00] END_REQSTACK()
```

### Event 115

#### Metadata

| Field        | Value    |
|--------------|----------|
| Entrypoint   | 0x0121   |
| Data Size    | 33 bytes |
| Instructions | 12       |

```
      00 01 02 03 04 05 06 07  08 09 0A 0B 0C 0D 0E 0F
      -- -- -- -- -- -- -- --  -- -- -- -- -- -- -- --
0120:    1E F0 FF FF 7F 6F 70  29 08 0E E0 0E 01 01 1D   .....op).......
0130: 07 80 23 1D 08 80 23 29  08 0E E0 0E 01 02 20 00  ..#...#)...... .
0140: 21 00                                             !.              
```

#### Opcodes

```
  0: 0x0121 [0x1E] EventEntity looks at LocalPlayer and starts talking
  1: 0x0126 [0x6F] WAIT_FRAME_DELAY: Yield until WaitTime reaches zero
  2: 0x0127 [0x70] WAIT_ENTITY_RENDER_FLAG: Wait while EventEntity->Render.Flags3 bit 2 is set (cancel turn if not)
  3: 0x0128 [0x29] REQ_SET_WAIT(priority=0x08, entity_id=Dagoza-Beruza (ID: 17752078/0x010EE00E), tag_num=0x01)
  4: 0x012F [0x1D] PRINT_EVENT_MESSAGE(message_id=7524*)
    → "Can you stand on your own two feetsy-weetsy as an adventurer yet?"
  5: 0x0132 [0x23] WAIT_FOR_DIALOG_INTERACTION
  6: 0x0133 [0x1D] PRINT_EVENT_MESSAGE(message_id=7525*)
    → "If so, then you should help out other new adventurers. Kindness is the most whooper-dooper magic that anyone can use."
  7: 0x0136 [0x23] WAIT_FOR_DIALOG_INTERACTION
  8: 0x0137 [0x29] REQ_SET_WAIT(priority=0x08, entity_id=Dagoza-Beruza (ID: 17752078/0x010EE00E), tag_num=0x02)
  9: 0x013E [0x20] SET_CLI_EVENT_UC_FLAG: Unlock player control
 10: 0x0140 [0x21] END_EVENT
 11: 0x0141 [0x00] END_REQSTACK()
```

### Event 213

#### Metadata

| Field        | Value    |
|--------------|----------|
| Entrypoint   | 0x0142   |
| Data Size    | 29 bytes |
| Instructions | 10       |

```
      00 01 02 03 04 05 06 07  08 09 0A 0B 0C 0D 0E 0F
      -- -- -- -- -- -- -- --  -- -- -- -- -- -- -- --
0140:       1E F0 FF FF 7F 6F  70 29 08 0E E0 0E 01 01    .....op)......
0150: 1D 09 80 23 29 08 0E E0  0E 01 02 20 00 21 00     ...#)...... .!. 
```

#### Opcodes

```
  0: 0x0142 [0x1E] EventEntity looks at LocalPlayer and starts talking
  1: 0x0147 [0x6F] WAIT_FRAME_DELAY: Yield until WaitTime reaches zero
  2: 0x0148 [0x70] WAIT_ENTITY_RENDER_FLAG: Wait while EventEntity->Render.Flags3 bit 2 is set (cancel turn if not)
  3: 0x0149 [0x29] REQ_SET_WAIT(priority=0x08, entity_id=Dagoza-Beruza (ID: 17752078/0x010EE00E), tag_num=0x01)
  4: 0x0150 [0x1D] PRINT_EVENT_MESSAGE(message_id=7798*)
    → "Heavens Tower is actually a giant star tree blessed with the protection of the skies and stars. It truly-wuly is the center of Windurst."
  5: 0x0153 [0x23] WAIT_FOR_DIALOG_INTERACTION
  6: 0x0154 [0x29] REQ_SET_WAIT(priority=0x08, entity_id=Dagoza-Beruza (ID: 17752078/0x010EE00E), tag_num=0x02)
  7: 0x015B [0x20] SET_CLI_EVENT_UC_FLAG: Unlock player control
  8: 0x015D [0x21] END_EVENT
  9: 0x015E [0x00] END_REQSTACK()
```

### Event 178

#### Metadata

| Field        | Value    |
|--------------|----------|
| Entrypoint   | 0x015F   |
| Data Size    | 47 bytes |
| Instructions | 14       |

```
      00 01 02 03 04 05 06 07  08 09 0A 0B 0C 0D 0E 0F
      -- -- -- -- -- -- -- --  -- -- -- -- -- -- -- --
0150:                                               1E                 .
0160: F0 FF FF 7F 6F 70 29 08  0E E0 0E 01 03 1D 0A 80  ....op).........
0170: 23 29 08 0E E0 0E 01 04  29 08 0E E0 0E 01 01 1D  #)......).......
0180: 0B 80 23 29 08 0E E0 0E  01 02 20 00 21 00        ..#)...... .!.  
```

#### Opcodes

```
  0: 0x015F [0x1E] EventEntity looks at LocalPlayer and starts talking
  1: 0x0164 [0x6F] WAIT_FRAME_DELAY: Yield until WaitTime reaches zero
  2: 0x0165 [0x70] WAIT_ENTITY_RENDER_FLAG: Wait while EventEntity->Render.Flags3 bit 2 is set (cancel turn if not)
  3: 0x0166 [0x29] REQ_SET_WAIT(priority=0x08, entity_id=Dagoza-Beruza (ID: 17752078/0x010EE00E), tag_num=0x03)
  4: 0x016D [0x1D] PRINT_EVENT_MESSAGE(message_id=7721*)
    → "The School of Magic!? That place is a number-crunching hell! One step inside there and you're instantly differentiated and evaluated."
  5: 0x0170 [0x23] WAIT_FOR_DIALOG_INTERACTION
  6: 0x0171 [0x29] REQ_SET_WAIT(priority=0x08, entity_id=Dagoza-Beruza (ID: 17752078/0x010EE00E), tag_num=0x04)
  7: 0x0178 [0x29] REQ_SET_WAIT(priority=0x08, entity_id=Dagoza-Beruza (ID: 17752078/0x010EE00E), tag_num=0x01)
  8: 0x017F [0x1D] PRINT_EVENT_MESSAGE(message_id=7722*)
    → "Shivers! That place is, like, 2.352 times scarier than Giddeus!"
  9: 0x0182 [0x23] WAIT_FOR_DIALOG_INTERACTION
 10: 0x0183 [0x29] REQ_SET_WAIT(priority=0x08, entity_id=Dagoza-Beruza (ID: 17752078/0x010EE00E), tag_num=0x02)
 11: 0x018A [0x20] SET_CLI_EVENT_UC_FLAG: Unlock player control
 12: 0x018C [0x21] END_EVENT
 13: 0x018D [0x00] END_REQSTACK()
```

### Event 157

#### Metadata

| Field        | Value    |
|--------------|----------|
| Entrypoint   | 0x018E   |
| Data Size    | 33 bytes |
| Instructions | 12       |

```
      00 01 02 03 04 05 06 07  08 09 0A 0B 0C 0D 0E 0F
      -- -- -- -- -- -- -- --  -- -- -- -- -- -- -- --
0180:                                            1E F0                ..
0190: FF FF 7F 6F 70 29 08 0E  E0 0E 01 01 1D 0C 80 23  ...op).........#
01A0: 1D 0D 80 23 29 08 0E E0  0E 01 02 20 00 21 00     ...#)...... .!. 
```

#### Opcodes

```
  0: 0x018E [0x1E] EventEntity looks at LocalPlayer and starts talking
  1: 0x0193 [0x6F] WAIT_FRAME_DELAY: Yield until WaitTime reaches zero
  2: 0x0194 [0x70] WAIT_ENTITY_RENDER_FLAG: Wait while EventEntity->Render.Flags3 bit 2 is set (cancel turn if not)
  3: 0x0195 [0x29] REQ_SET_WAIT(priority=0x08, entity_id=Dagoza-Beruza (ID: 17752078/0x010EE00E), tag_num=0x01)
  4: 0x019C [0x1D] PRINT_EVENT_MESSAGE(message_id=7654*)
    → "It's very unusual for the Optistery to ask for assistance from the gatehouses."
  5: 0x019F [0x23] WAIT_FOR_DIALOG_INTERACTION
  6: 0x01A0 [0x1D] PRINT_EVENT_MESSAGE(message_id=7655*)
    → "For ordinary overdue library books, the Optistery just asks any passer-by to help them out. I wonder if something serious has happened!?"
  7: 0x01A3 [0x23] WAIT_FOR_DIALOG_INTERACTION
  8: 0x01A4 [0x29] REQ_SET_WAIT(priority=0x08, entity_id=Dagoza-Beruza (ID: 17752078/0x010EE00E), tag_num=0x02)
  9: 0x01AB [0x20] SET_CLI_EVENT_UC_FLAG: Unlock player control
 10: 0x01AD [0x21] END_EVENT
 11: 0x01AE [0x00] END_REQSTACK()
```

### Event 138

#### Metadata

| Field        | Value    |
|--------------|----------|
| Entrypoint   | 0x01AF   |
| Data Size    | 33 bytes |
| Instructions | 12       |

```
      00 01 02 03 04 05 06 07  08 09 0A 0B 0C 0D 0E 0F
      -- -- -- -- -- -- -- --  -- -- -- -- -- -- -- --
01A0:                                               1E                 .
01B0: F0 FF FF 7F 6F 70 29 08  0E E0 0E 01 01 1D 0E 80  ....op).........
01C0: 23 1D 0F 80 23 29 08 0E  E0 0E 01 02 20 00 21 00  #...#)...... .!.
```

#### Opcodes

```
  0: 0x01AF [0x1E] EventEntity looks at LocalPlayer and starts talking
  1: 0x01B4 [0x6F] WAIT_FRAME_DELAY: Yield until WaitTime reaches zero
  2: 0x01B5 [0x70] WAIT_ENTITY_RENDER_FLAG: Wait while EventEntity->Render.Flags3 bit 2 is set (cancel turn if not)
  3: 0x01B6 [0x29] REQ_SET_WAIT(priority=0x08, entity_id=Dagoza-Beruza (ID: 17752078/0x010EE00E), tag_num=0x01)
  4: 0x01BD [0x1D] PRINT_EVENT_MESSAGE(message_id=7597*)
    → "Make no mistakey-wakeys! Although we're supposed to be on friendly terms with the Yagudo, Giddeus is still a dangerous dungeon."
  5: 0x01C0 [0x23] WAIT_FOR_DIALOG_INTERACTION
  6: 0x01C1 [0x1D] PRINT_EVENT_MESSAGE(message_id=7598*)
    → "Even if you explain that you're simply a messenger from Windurst, they'll say that they have to "test" you to determine the truth. Then they all start to attack you."
  7: 0x01C4 [0x23] WAIT_FOR_DIALOG_INTERACTION
  8: 0x01C5 [0x29] REQ_SET_WAIT(priority=0x08, entity_id=Dagoza-Beruza (ID: 17752078/0x010EE00E), tag_num=0x02)
  9: 0x01CC [0x20] SET_CLI_EVENT_UC_FLAG: Unlock player control
 10: 0x01CE [0x21] END_EVENT
 11: 0x01CF [0x00] END_REQSTACK()
```

### Event 150

#### Metadata

| Field        | Value    |
|--------------|----------|
| Entrypoint   | 0x01D0   |
| Data Size    | 29 bytes |
| Instructions | 10       |

```
      00 01 02 03 04 05 06 07  08 09 0A 0B 0C 0D 0E 0F
      -- -- -- -- -- -- -- --  -- -- -- -- -- -- -- --
01D0: 1E F0 FF FF 7F 6F 70 29  08 0E E0 0E 01 01 1D 10  .....op)........
01E0: 80 23 29 08 0E E0 0E 01  02 20 00 21 00           .#)...... .!.   
```

#### Opcodes

```
  0: 0x01D0 [0x1E] EventEntity looks at LocalPlayer and starts talking
  1: 0x01D5 [0x6F] WAIT_FRAME_DELAY: Yield until WaitTime reaches zero
  2: 0x01D6 [0x70] WAIT_ENTITY_RENDER_FLAG: Wait while EventEntity->Render.Flags3 bit 2 is set (cancel turn if not)
  3: 0x01D7 [0x29] REQ_SET_WAIT(priority=0x08, entity_id=Dagoza-Beruza (ID: 17752078/0x010EE00E), tag_num=0x01)
  4: 0x01DE [0x1D] PRINT_EVENT_MESSAGE(message_id=7638*)
    → "You were able to deliver the goods to Giddeus, huh? Congratulations! That means you're now rank two!"
  5: 0x01E1 [0x23] WAIT_FOR_DIALOG_INTERACTION
  6: 0x01E2 [0x29] REQ_SET_WAIT(priority=0x08, entity_id=Dagoza-Beruza (ID: 17752078/0x010EE00E), tag_num=0x02)
  7: 0x01E9 [0x20] SET_CLI_EVENT_UC_FLAG: Unlock player control
  8: 0x01EB [0x21] END_EVENT
  9: 0x01EC [0x00] END_REQSTACK()
```

### Event 151

#### Metadata

| Field        | Value    |
|--------------|----------|
| Entrypoint   | 0x01ED   |
| Data Size    | 33 bytes |
| Instructions | 12       |

```
      00 01 02 03 04 05 06 07  08 09 0A 0B 0C 0D 0E 0F
      -- -- -- -- -- -- -- --  -- -- -- -- -- -- -- --
01E0:                                         1E F0 FF               ...
01F0: FF 7F 6F 70 29 08 0E E0  0E 01 01 1D 0E 80 23 1D  ..op).........#.
0200: 0F 80 23 29 08 0E E0 0E  01 02 20 00 21 00        ..#)...... .!.  
```

#### Opcodes

```
  0: 0x01ED [0x1E] EventEntity looks at LocalPlayer and starts talking
  1: 0x01F2 [0x6F] WAIT_FRAME_DELAY: Yield until WaitTime reaches zero
  2: 0x01F3 [0x70] WAIT_ENTITY_RENDER_FLAG: Wait while EventEntity->Render.Flags3 bit 2 is set (cancel turn if not)
  3: 0x01F4 [0x29] REQ_SET_WAIT(priority=0x08, entity_id=Dagoza-Beruza (ID: 17752078/0x010EE00E), tag_num=0x01)
  4: 0x01FB [0x1D] PRINT_EVENT_MESSAGE(message_id=7597*)
    → "Make no mistakey-wakeys! Although we're supposed to be on friendly terms with the Yagudo, Giddeus is still a dangerous dungeon."
  5: 0x01FE [0x23] WAIT_FOR_DIALOG_INTERACTION
  6: 0x01FF [0x1D] PRINT_EVENT_MESSAGE(message_id=7598*)
    → "Even if you explain that you're simply a messenger from Windurst, they'll say that they have to "test" you to determine the truth. Then they all start to attack you."
  7: 0x0202 [0x23] WAIT_FOR_DIALOG_INTERACTION
  8: 0x0203 [0x29] REQ_SET_WAIT(priority=0x08, entity_id=Dagoza-Beruza (ID: 17752078/0x010EE00E), tag_num=0x02)
  9: 0x020A [0x20] SET_CLI_EVENT_UC_FLAG: Unlock player control
 10: 0x020C [0x21] END_EVENT
 11: 0x020D [0x00] END_REQSTACK()
```

### Event 132

#### Metadata

| Field        | Value    |
|--------------|----------|
| Entrypoint   | 0x020E   |
| Data Size    | 37 bytes |
| Instructions | 14       |

```
      00 01 02 03 04 05 06 07  08 09 0A 0B 0C 0D 0E 0F
      -- -- -- -- -- -- -- --  -- -- -- -- -- -- -- --
0200:                                            1E F0                ..
0210: FF FF 7F 6F 70 29 08 0E  E0 0E 01 01 1D 11 80 23  ...op).........#
0220: 1D 12 80 23 1D 13 80 23  29 08 0E E0 0E 01 02 20  ...#...#)...... 
0230: 00 21 00                                          .!.             
```

#### Opcodes

```
  0: 0x020E [0x1E] EventEntity looks at LocalPlayer and starts talking
  1: 0x0213 [0x6F] WAIT_FRAME_DELAY: Yield until WaitTime reaches zero
  2: 0x0214 [0x70] WAIT_ENTITY_RENDER_FLAG: Wait while EventEntity->Render.Flags3 bit 2 is set (cancel turn if not)
  3: 0x0215 [0x29] REQ_SET_WAIT(priority=0x08, entity_id=Dagoza-Beruza (ID: 17752078/0x010EE00E), tag_num=0x01)
  4: 0x021C [0x1D] PRINT_EVENT_MESSAGE(message_id=7576*)
    → "I can't hide the fact that I'm a big fan of Apururu from the Manustery!"
  5: 0x021F [0x23] WAIT_FOR_DIALOG_INTERACTION
  6: 0x0220 [0x1D] PRINT_EVENT_MESSAGE(message_id=7577*)
    → "She's always so nice and kindy-windy, never failing to show her shining smiley-wiley, despite her tragic past."
  7: 0x0223 [0x23] WAIT_FOR_DIALOG_INTERACTION
  8: 0x0224 [0x1D] PRINT_EVENT_MESSAGE(message_id=7578*)
    → "Listen here! You better complete Apururu's mission as fasty-wasty and as perfectly-werfectly as possible. Don't you dare mess up! You got it?"
  9: 0x0227 [0x23] WAIT_FOR_DIALOG_INTERACTION
 10: 0x0228 [0x29] REQ_SET_WAIT(priority=0x08, entity_id=Dagoza-Beruza (ID: 17752078/0x010EE00E), tag_num=0x02)
 11: 0x022F [0x20] SET_CLI_EVENT_UC_FLAG: Unlock player control
 12: 0x0231 [0x21] END_EVENT
 13: 0x0232 [0x00] END_REQSTACK()
```

### Event 118

#### Metadata

| Field        | Value   |
|--------------|---------|
| Entrypoint   | 0x0233  |
| Data Size    | 1 bytes |
| Instructions | 1       |

```
      00 01 02 03 04 05 06 07  08 09 0A 0B 0C 0D 0E 0F
      -- -- -- -- -- -- -- --  -- -- -- -- -- -- -- --
0230:          00                                          .            
```

#### Opcodes

```
  0: 0x0233 [0x00] END_REQSTACK()
```

### Event 119

#### Metadata

| Field        | Value   |
|--------------|---------|
| Entrypoint   | 0x0234  |
| Data Size    | 1 bytes |
| Instructions | 1       |

```
      00 01 02 03 04 05 06 07  08 09 0A 0B 0C 0D 0E 0F
      -- -- -- -- -- -- -- --  -- -- -- -- -- -- -- --
0230:             00                                        .           
```

#### Opcodes

```
  0: 0x0234 [0x00] END_REQSTACK()
```

### Event 120

#### Metadata

| Field        | Value   |
|--------------|---------|
| Entrypoint   | 0x0235  |
| Data Size    | 1 bytes |
| Instructions | 1       |

```
      00 01 02 03 04 05 06 07  08 09 0A 0B 0C 0D 0E 0F
      -- -- -- -- -- -- -- --  -- -- -- -- -- -- -- --
0230:                00                                      .          
```

#### Opcodes

```
  0: 0x0235 [0x00] END_REQSTACK()
```

### Event 65535.14

#### Metadata

| Field        | Value    |
|--------------|----------|
| Entrypoint   | 0x0236   |
| Data Size    | 19 bytes |
| Instructions | 5        |

```
      00 01 02 03 04 05 06 07  08 09 0A 0B 0C 0D 0E 0F
      -- -- -- -- -- -- -- --  -- -- -- -- -- -- -- --
0230:                   29 08  0E E0 0E 01 01 1D 14 80        ).........
0240: 23 29 08 0E E0 0E 01 02  00                       #).......       
```

#### Opcodes

```
  0: 0x0236 [0x29] REQ_SET_WAIT(priority=0x08, entity_id=Dagoza-Beruza (ID: 17752078/0x010EE00E), tag_num=0x01)
  1: 0x023D [0x1D] PRINT_EVENT_MESSAGE(message_id=7536*)
    → "Collect enough rank points, and your rank, or relative position in society, will rise."
  2: 0x0240 [0x23] WAIT_FOR_DIALOG_INTERACTION
  3: 0x0241 [0x29] REQ_SET_WAIT(priority=0x08, entity_id=Dagoza-Beruza (ID: 17752078/0x010EE00E), tag_num=0x02)
  4: 0x0248 [0x00] END_REQSTACK()
```

### Event 121

#### Metadata

| Field        | Value    |
|--------------|----------|
| Entrypoint   | 0x0249   |
| Data Size    | 29 bytes |
| Instructions | 10       |

```
      00 01 02 03 04 05 06 07  08 09 0A 0B 0C 0D 0E 0F
      -- -- -- -- -- -- -- --  -- -- -- -- -- -- -- --
0240:                             1E F0 FF FF 7F 6F 70           .....op
0250: 29 08 0E E0 0E 01 01 1D  15 80 23 29 08 0E E0 0E  ).........#)....
0260: 01 02 20 00 21 00                                 .. .!.          
```

#### Opcodes

```
  0: 0x0249 [0x1E] EventEntity looks at LocalPlayer and starts talking
  1: 0x024E [0x6F] WAIT_FRAME_DELAY: Yield until WaitTime reaches zero
  2: 0x024F [0x70] WAIT_ENTITY_RENDER_FLAG: Wait while EventEntity->Render.Flags3 bit 2 is set (cancel turn if not)
  3: 0x0250 [0x29] REQ_SET_WAIT(priority=0x08, entity_id=Dagoza-Beruza (ID: 17752078/0x010EE00E), tag_num=0x01)
  4: 0x0257 [0x1D] PRINT_EVENT_MESSAGE(message_id=7554*)
    → "Hmm... My first task was to clean up the garbage in Sarutabaruta. Thinking back now...boy, those days were peaceful!"
  5: 0x025A [0x23] WAIT_FOR_DIALOG_INTERACTION
  6: 0x025B [0x29] REQ_SET_WAIT(priority=0x08, entity_id=Dagoza-Beruza (ID: 17752078/0x010EE00E), tag_num=0x02)
  7: 0x0262 [0x20] SET_CLI_EVENT_UC_FLAG: Unlock player control
  8: 0x0264 [0x21] END_EVENT
  9: 0x0265 [0x00] END_REQSTACK()
```

### Event 128

#### Metadata

| Field        | Value    |
|--------------|----------|
| Entrypoint   | 0x0266   |
| Data Size    | 29 bytes |
| Instructions | 10       |

```
      00 01 02 03 04 05 06 07  08 09 0A 0B 0C 0D 0E 0F
      -- -- -- -- -- -- -- --  -- -- -- -- -- -- -- --
0260:                   1E F0  FF FF 7F 6F 70 29 08 0E        .....op)..
0270: E0 0E 01 01 1D 16 80 23  29 08 0E E0 0E 01 02 20  .......#)...... 
0280: 00 21 00                                          .!.             
```

#### Opcodes

```
  0: 0x0266 [0x1E] EventEntity looks at LocalPlayer and starts talking
  1: 0x026B [0x6F] WAIT_FRAME_DELAY: Yield until WaitTime reaches zero
  2: 0x026C [0x70] WAIT_ENTITY_RENDER_FLAG: Wait while EventEntity->Render.Flags3 bit 2 is set (cancel turn if not)
  3: 0x026D [0x29] REQ_SET_WAIT(priority=0x08, entity_id=Dagoza-Beruza (ID: 17752078/0x010EE00E), tag_num=0x01)
  4: 0x0274 [0x1D] PRINT_EVENT_MESSAGE(message_id=7565*)
    → "Thank you for your continuing service. We hope you'll keep up the effort by helping us out with our next task."
  5: 0x0277 [0x23] WAIT_FOR_DIALOG_INTERACTION
  6: 0x0278 [0x29] REQ_SET_WAIT(priority=0x08, entity_id=Dagoza-Beruza (ID: 17752078/0x010EE00E), tag_num=0x02)
  7: 0x027F [0x20] SET_CLI_EVENT_UC_FLAG: Unlock player control
  8: 0x0281 [0x21] END_EVENT
  9: 0x0282 [0x00] END_REQSTACK()
```

### Event 219

#### Metadata

| Field        | Value    |
|--------------|----------|
| Entrypoint   | 0x0283   |
| Data Size    | 33 bytes |
| Instructions | 12       |

```
      00 01 02 03 04 05 06 07  08 09 0A 0B 0C 0D 0E 0F
      -- -- -- -- -- -- -- --  -- -- -- -- -- -- -- --
0280:          1E F0 FF FF 7F  6F 70 29 08 0E E0 0E 01     .....op).....
0290: 01 1D 17 80 23 1D 18 80  23 29 08 0E E0 0E 01 02  ....#...#)......
02A0: 20 00 21 00                                        .!.            
```

#### Opcodes

```
  0: 0x0283 [0x1E] EventEntity looks at LocalPlayer and starts talking
  1: 0x0288 [0x6F] WAIT_FRAME_DELAY: Yield until WaitTime reaches zero
  2: 0x0289 [0x70] WAIT_ENTITY_RENDER_FLAG: Wait while EventEntity->Render.Flags3 bit 2 is set (cancel turn if not)
  3: 0x028A [0x29] REQ_SET_WAIT(priority=0x08, entity_id=Dagoza-Beruza (ID: 17752078/0x010EE00E), tag_num=0x01)
  4: 0x0291 [0x1D] PRINT_EVENT_MESSAGE(message_id=7810*)
    → "After the war, several Mithra cubs were sent to serve at Heavens Tower."
  5: 0x0294 [0x23] WAIT_FOR_DIALOG_INTERACTION
  6: 0x0295 [0x1D] PRINT_EVENT_MESSAGE(message_id=7811*)
    → "By rights they should have been mere ladies-in-waiting, but by the Star Sibyl's grace, they were allowed to serve as special protectors of Heavens Tower. That's how the Sibyl Guards were born."
  7: 0x0298 [0x23] WAIT_FOR_DIALOG_INTERACTION
  8: 0x0299 [0x29] REQ_SET_WAIT(priority=0x08, entity_id=Dagoza-Beruza (ID: 17752078/0x010EE00E), tag_num=0x02)
  9: 0x02A0 [0x20] SET_CLI_EVENT_UC_FLAG: Unlock player control
 10: 0x02A2 [0x21] END_EVENT
 11: 0x02A3 [0x00] END_REQSTACK()
```

### Event 225

#### Metadata

| Field        | Value    |
|--------------|----------|
| Entrypoint   | 0x02A4   |
| Data Size    | 33 bytes |
| Instructions | 12       |

```
      00 01 02 03 04 05 06 07  08 09 0A 0B 0C 0D 0E 0F
      -- -- -- -- -- -- -- --  -- -- -- -- -- -- -- --
02A0:             1E F0 FF FF  7F 6F 70 29 08 0E E0 0E      .....op)....
02B0: 01 01 1D 19 80 23 1D 1A  80 23 29 08 0E E0 0E 01  .....#...#).....
02C0: 02 20 00 21 00                                    . .!.           
```

#### Opcodes

```
  0: 0x02A4 [0x1E] EventEntity looks at LocalPlayer and starts talking
  1: 0x02A9 [0x6F] WAIT_FRAME_DELAY: Yield until WaitTime reaches zero
  2: 0x02AA [0x70] WAIT_ENTITY_RENDER_FLAG: Wait while EventEntity->Render.Flags3 bit 2 is set (cancel turn if not)
  3: 0x02AB [0x29] REQ_SET_WAIT(priority=0x08, entity_id=Dagoza-Beruza (ID: 17752078/0x010EE00E), tag_num=0x01)
  4: 0x02B2 [0x1D] PRINT_EVENT_MESSAGE(message_id=7824*)
    → "According to the budding young ladies-in-waiting, the worst part about Heavens Tower is the mumbling-grumbling nagging of their head lady-in-waiting, Zubaba."
  5: 0x02B5 [0x23] WAIT_FOR_DIALOG_INTERACTION
  6: 0x02B6 [0x1D] PRINT_EVENT_MESSAGE(message_id=7825*)
    → "I wonder why the older you get, the louder you grow. I guess you can't chew on things as well as you used to, so you bite at people instead."
  7: 0x02B9 [0x23] WAIT_FOR_DIALOG_INTERACTION
  8: 0x02BA [0x29] REQ_SET_WAIT(priority=0x08, entity_id=Dagoza-Beruza (ID: 17752078/0x010EE00E), tag_num=0x02)
  9: 0x02C1 [0x20] SET_CLI_EVENT_UC_FLAG: Unlock player control
 10: 0x02C3 [0x21] END_EVENT
 11: 0x02C4 [0x00] END_REQSTACK()
```

### Event 230

#### Metadata

| Field        | Value    |
|--------------|----------|
| Entrypoint   | 0x02C5   |
| Data Size    | 33 bytes |
| Instructions | 12       |

```
      00 01 02 03 04 05 06 07  08 09 0A 0B 0C 0D 0E 0F
      -- -- -- -- -- -- -- --  -- -- -- -- -- -- -- --
02C0:                1E F0 FF  FF 7F 6F 70 29 08 0E E0       .....op)...
02D0: 0E 01 05 1D 1B 80 23 1D  1C 80 23 29 08 0E E0 0E  ......#...#)....
02E0: 01 06 20 00 21 00                                 .. .!.          
```

#### Opcodes

```
  0: 0x02C5 [0x1E] EventEntity looks at LocalPlayer and starts talking
  1: 0x02CA [0x6F] WAIT_FRAME_DELAY: Yield until WaitTime reaches zero
  2: 0x02CB [0x70] WAIT_ENTITY_RENDER_FLAG: Wait while EventEntity->Render.Flags3 bit 2 is set (cancel turn if not)
  3: 0x02CC [0x29] REQ_SET_WAIT(priority=0x08, entity_id=Dagoza-Beruza (ID: 17752078/0x010EE00E), tag_num=0x05)
  4: 0x02D3 [0x1D] PRINT_EVENT_MESSAGE(message_id=7835*)
    → "You shouldn't be dawdling here. Hurry on over-wover to Heavens Tower!"
  5: 0x02D6 [0x23] WAIT_FOR_DIALOG_INTERACTION
  6: 0x02D7 [0x1D] PRINT_EVENT_MESSAGE(message_id=7836*)
    → "You're nowhere near high enough in position to keep the Star Sibyl waiting. Not in a million light-years...! You better head to Heavens Tower immediately!"
  7: 0x02DA [0x23] WAIT_FOR_DIALOG_INTERACTION
  8: 0x02DB [0x29] REQ_SET_WAIT(priority=0x08, entity_id=Dagoza-Beruza (ID: 17752078/0x010EE00E), tag_num=0x06)
  9: 0x02E2 [0x20] SET_CLI_EVENT_UC_FLAG: Unlock player control
 10: 0x02E4 [0x21] END_EVENT
 11: 0x02E5 [0x00] END_REQSTACK()
```

### Event 234

#### Metadata

| Field        | Value    |
|--------------|----------|
| Entrypoint   | 0x02E6   |
| Data Size    | 33 bytes |
| Instructions | 12       |

```
      00 01 02 03 04 05 06 07  08 09 0A 0B 0C 0D 0E 0F
      -- -- -- -- -- -- -- --  -- -- -- -- -- -- -- --
02E0:                   1E F0  FF FF 7F 6F 70 29 08 0E        .....op)..
02F0: E0 0E 01 01 1D 1D 80 23  1D 1E 80 23 29 08 0E E0  .......#...#)...
0300: 0E 01 02 20 00 21 00                              ... .!.         
```

#### Opcodes

```
  0: 0x02E6 [0x1E] EventEntity looks at LocalPlayer and starts talking
  1: 0x02EB [0x6F] WAIT_FRAME_DELAY: Yield until WaitTime reaches zero
  2: 0x02EC [0x70] WAIT_ENTITY_RENDER_FLAG: Wait while EventEntity->Render.Flags3 bit 2 is set (cancel turn if not)
  3: 0x02ED [0x29] REQ_SET_WAIT(priority=0x08, entity_id=Dagoza-Beruza (ID: 17752078/0x010EE00E), tag_num=0x01)
  4: 0x02F4 [0x1D] PRINT_EVENT_MESSAGE(message_id=7843*)
    → "Hmm... Heavens Tower is in turmoil over something big."
  5: 0x02F7 [0x23] WAIT_FOR_DIALOG_INTERACTION
  6: 0x02F8 [0x1D] PRINT_EVENT_MESSAGE(message_id=7844*)
    → "My little sister is a lady-in-waiting, so I want to ask her about a lot of this stuff. But that would just be putting her on the spot."
  7: 0x02FB [0x23] WAIT_FOR_DIALOG_INTERACTION
  8: 0x02FC [0x29] REQ_SET_WAIT(priority=0x08, entity_id=Dagoza-Beruza (ID: 17752078/0x010EE00E), tag_num=0x02)
  9: 0x0303 [0x20] SET_CLI_EVENT_UC_FLAG: Unlock player control
 10: 0x0305 [0x21] END_EVENT
 11: 0x0306 [0x00] END_REQSTACK()
```

### Event 239

#### Metadata

| Field        | Value    |
|--------------|----------|
| Entrypoint   | 0x0307   |
| Data Size    | 33 bytes |
| Instructions | 12       |

```
      00 01 02 03 04 05 06 07  08 09 0A 0B 0C 0D 0E 0F
      -- -- -- -- -- -- -- --  -- -- -- -- -- -- -- --
0300:                      1E  F0 FF FF 7F 6F 70 29 08         .....op).
0310: 0E E0 0E 01 01 1D 1F 80  23 1D 20 80 23 29 08 0E  ........#. .#)..
0320: E0 0E 01 02 20 00 21 00                           .... .!.        
```

#### Opcodes

```
  0: 0x0307 [0x1E] EventEntity looks at LocalPlayer and starts talking
  1: 0x030C [0x6F] WAIT_FRAME_DELAY: Yield until WaitTime reaches zero
  2: 0x030D [0x70] WAIT_ENTITY_RENDER_FLAG: Wait while EventEntity->Render.Flags3 bit 2 is set (cancel turn if not)
  3: 0x030E [0x29] REQ_SET_WAIT(priority=0x08, entity_id=Dagoza-Beruza (ID: 17752078/0x010EE00E), tag_num=0x01)
  4: 0x0315 [0x1D] PRINT_EVENT_MESSAGE(message_id=7854*)
    → "Our fellow guards are currently checking whether the talismans sealed away in the other countries are safe or not."
  5: 0x0318 [0x23] WAIT_FOR_DIALOG_INTERACTION
  6: 0x0319 [0x1D] PRINT_EVENT_MESSAGE(message_id=7855*)
    → "You have already received the order to head out for the ruins of Fei'Yin. Carry out your appointed task well, my friend! We're counting on you!"
  7: 0x031C [0x23] WAIT_FOR_DIALOG_INTERACTION
  8: 0x031D [0x29] REQ_SET_WAIT(priority=0x08, entity_id=Dagoza-Beruza (ID: 17752078/0x010EE00E), tag_num=0x02)
  9: 0x0324 [0x20] SET_CLI_EVENT_UC_FLAG: Unlock player control
 10: 0x0326 [0x21] END_EVENT
 11: 0x0327 [0x00] END_REQSTACK()
```

### Event 244

#### Metadata

| Field        | Value    |
|--------------|----------|
| Entrypoint   | 0x0328   |
| Data Size    | 33 bytes |
| Instructions | 12       |

```
      00 01 02 03 04 05 06 07  08 09 0A 0B 0C 0D 0E 0F
      -- -- -- -- -- -- -- --  -- -- -- -- -- -- -- --
0320:                          1E F0 FF FF 7F 6F 70 29          .....op)
0330: 08 0E E0 0E 01 01 1D 21  80 23 1D 22 80 23 29 08  .......!.#.".#).
0340: 0E E0 0E 01 02 20 00 21  00                       ..... .!.       
```

#### Opcodes

```
  0: 0x0328 [0x1E] EventEntity looks at LocalPlayer and starts talking
  1: 0x032D [0x6F] WAIT_FRAME_DELAY: Yield until WaitTime reaches zero
  2: 0x032E [0x70] WAIT_ENTITY_RENDER_FLAG: Wait while EventEntity->Render.Flags3 bit 2 is set (cancel turn if not)
  3: 0x032F [0x29] REQ_SET_WAIT(priority=0x08, entity_id=Dagoza-Beruza (ID: 17752078/0x010EE00E), tag_num=0x01)
  4: 0x0336 [0x1D] PRINT_EVENT_MESSAGE(message_id=7864*)
    → "As soon as I heard the sudden convocation of the five ministries, I had a bad feeling about it."
  5: 0x0339 [0x23] WAIT_FOR_DIALOG_INTERACTION
  6: 0x033A [0x1D] PRINT_EVENT_MESSAGE(message_id=7865*)
    → "After the last incident in the Horutoto Ruins, I knew there was something scary-wary going down."
  7: 0x033D [0x23] WAIT_FOR_DIALOG_INTERACTION
  8: 0x033E [0x29] REQ_SET_WAIT(priority=0x08, entity_id=Dagoza-Beruza (ID: 17752078/0x010EE00E), tag_num=0x02)
  9: 0x0345 [0x20] SET_CLI_EVENT_UC_FLAG: Unlock player control
 10: 0x0347 [0x21] END_EVENT
 11: 0x0348 [0x00] END_REQSTACK()
```

### Event 247

#### Metadata

| Field        | Value    |
|--------------|----------|
| Entrypoint   | 0x0349   |
| Data Size    | 33 bytes |
| Instructions | 12       |

```
      00 01 02 03 04 05 06 07  08 09 0A 0B 0C 0D 0E 0F
      -- -- -- -- -- -- -- --  -- -- -- -- -- -- -- --
0340:                             1E F0 FF FF 7F 6F 70           .....op
0350: 29 08 0E E0 0E 01 01 1D  23 80 23 1D 24 80 23 29  ).......#.#.$.#)
0360: 08 0E E0 0E 01 02 20 00  21 00                    ...... .!.      
```

#### Opcodes

```
  0: 0x0349 [0x1E] EventEntity looks at LocalPlayer and starts talking
  1: 0x034E [0x6F] WAIT_FRAME_DELAY: Yield until WaitTime reaches zero
  2: 0x034F [0x70] WAIT_ENTITY_RENDER_FLAG: Wait while EventEntity->Render.Flags3 bit 2 is set (cancel turn if not)
  3: 0x0350 [0x29] REQ_SET_WAIT(priority=0x08, entity_id=Dagoza-Beruza (ID: 17752078/0x010EE00E), tag_num=0x01)
  4: 0x0357 [0x1D] PRINT_EVENT_MESSAGE(message_id=7870*)
    → "A little while ago, a letter with a shooting star emblem on it was delivered to each of the ministers of the five ministries."
  5: 0x035A [0x23] WAIT_FOR_DIALOG_INTERACTION
  6: 0x035B [0x1D] PRINT_EVENT_MESSAGE(message_id=7871*)
    → "A shooting star emblem signifies "as fast as possible," so I delivered them as quickly-wickly as I could."
  7: 0x035E [0x23] WAIT_FOR_DIALOG_INTERACTION
  8: 0x035F [0x29] REQ_SET_WAIT(priority=0x08, entity_id=Dagoza-Beruza (ID: 17752078/0x010EE00E), tag_num=0x02)
  9: 0x0366 [0x20] SET_CLI_EVENT_UC_FLAG: Unlock player control
 10: 0x0368 [0x21] END_EVENT
 11: 0x0369 [0x00] END_REQSTACK()
```

### Event 769

#### Metadata

| Field        | Value    |
|--------------|----------|
| Entrypoint   | 0x036A   |
| Data Size    | 33 bytes |
| Instructions | 12       |

```
      00 01 02 03 04 05 06 07  08 09 0A 0B 0C 0D 0E 0F
      -- -- -- -- -- -- -- --  -- -- -- -- -- -- -- --
0360:                                1E F0 FF FF 7F 6F            .....o
0370: 70 29 08 0E E0 0E 01 01  1D 25 80 23 1D 26 80 23  p).......%.#.&.#
0380: 29 08 0E E0 0E 01 02 20  00 21 00                 )...... .!.     
```

#### Opcodes

```
  0: 0x036A [0x1E] EventEntity looks at LocalPlayer and starts talking
  1: 0x036F [0x6F] WAIT_FRAME_DELAY: Yield until WaitTime reaches zero
  2: 0x0370 [0x70] WAIT_ENTITY_RENDER_FLAG: Wait while EventEntity->Render.Flags3 bit 2 is set (cancel turn if not)
  3: 0x0371 [0x29] REQ_SET_WAIT(priority=0x08, entity_id=Dagoza-Beruza (ID: 17752078/0x010EE00E), tag_num=0x01)
  4: 0x0378 [0x1D] PRINT_EVENT_MESSAGE(message_id=9611*)
    → "At times like these, you've gotta be cool, calm, and... Um..."
  5: 0x037B [0x23] WAIT_FOR_DIALOG_INTERACTION
  6: 0x037C [0x1D] PRINT_EVENT_MESSAGE(message_id=9612*)
    → "We guards are Windurst's last line of defense. No mattaru what happens, I must keep Miss Apururu safe from harm."
  7: 0x037F [0x23] WAIT_FOR_DIALOG_INTERACTION
  8: 0x0380 [0x29] REQ_SET_WAIT(priority=0x08, entity_id=Dagoza-Beruza (ID: 17752078/0x010EE00E), tag_num=0x02)
  9: 0x0387 [0x20] SET_CLI_EVENT_UC_FLAG: Unlock player control
 10: 0x0389 [0x21] END_EVENT
 11: 0x038A [0x00] END_REQSTACK()
```

### Event 703

#### Metadata

| Field        | Value    |
|--------------|----------|
| Entrypoint   | 0x038B   |
| Data Size    | 33 bytes |
| Instructions | 12       |

```
      00 01 02 03 04 05 06 07  08 09 0A 0B 0C 0D 0E 0F
      -- -- -- -- -- -- -- --  -- -- -- -- -- -- -- --
0380:                                   1E F0 FF FF 7F             .....
0390: 6F 70 29 08 0E E0 0E 01  01 1D 27 80 23 1D 28 80  op).......'.#.(.
03A0: 23 29 08 0E E0 0E 01 02  20 00 21 00              #)...... .!.    
```

#### Opcodes

```
  0: 0x038B [0x1E] EventEntity looks at LocalPlayer and starts talking
  1: 0x0390 [0x6F] WAIT_FRAME_DELAY: Yield until WaitTime reaches zero
  2: 0x0391 [0x70] WAIT_ENTITY_RENDER_FLAG: Wait while EventEntity->Render.Flags3 bit 2 is set (cancel turn if not)
  3: 0x0392 [0x29] REQ_SET_WAIT(priority=0x08, entity_id=Dagoza-Beruza (ID: 17752078/0x010EE00E), tag_num=0x01)
  4: 0x0399 [0x1D] PRINT_EVENT_MESSAGE(message_id=9623*)
    → "There's a well-known story from the time when Minister Ajido-Marujido was in magic school."
  5: 0x039C [0x23] WAIT_FOR_DIALOG_INTERACTION
  6: 0x039D [0x1D] PRINT_EVENT_MESSAGE(message_id=9624*)
    → "The minister got stompily-womped in the monster-hunting exam on Buburimu Peninsula when he tried to beat the record held by Karaha-Baruha. He really-weally hates to lose."
  7: 0x03A0 [0x23] WAIT_FOR_DIALOG_INTERACTION
  8: 0x03A1 [0x29] REQ_SET_WAIT(priority=0x08, entity_id=Dagoza-Beruza (ID: 17752078/0x010EE00E), tag_num=0x02)
  9: 0x03A8 [0x20] SET_CLI_EVENT_UC_FLAG: Unlock player control
 10: 0x03AA [0x21] END_EVENT
 11: 0x03AB [0x00] END_REQSTACK()
```

### Event 708

#### Metadata

| Field        | Value    |
|--------------|----------|
| Entrypoint   | 0x03AC   |
| Data Size    | 33 bytes |
| Instructions | 12       |

```
      00 01 02 03 04 05 06 07  08 09 0A 0B 0C 0D 0E 0F
      -- -- -- -- -- -- -- --  -- -- -- -- -- -- -- --
03A0:                                      1E F0 FF FF              ....
03B0: 7F 6F 70 29 08 0E E0 0E  01 01 1D 29 80 23 1D 2A  .op).......).#.*
03C0: 80 23 29 08 0E E0 0E 01  02 20 00 21 00           .#)...... .!.   
```

#### Opcodes

```
  0: 0x03AC [0x1E] EventEntity looks at LocalPlayer and starts talking
  1: 0x03B1 [0x6F] WAIT_FRAME_DELAY: Yield until WaitTime reaches zero
  2: 0x03B2 [0x70] WAIT_ENTITY_RENDER_FLAG: Wait while EventEntity->Render.Flags3 bit 2 is set (cancel turn if not)
  3: 0x03B3 [0x29] REQ_SET_WAIT(priority=0x08, entity_id=Dagoza-Beruza (ID: 17752078/0x010EE00E), tag_num=0x01)
  4: 0x03BA [0x1D] PRINT_EVENT_MESSAGE(message_id=9639*)
    → "The Star Sibyl awaits you at Heavens Tower. It appears to be a very gravy-wave matter."
  5: 0x03BD [0x23] WAIT_FOR_DIALOG_INTERACTION
  6: 0x03BE [0x1D] PRINT_EVENT_MESSAGE(message_id=9640*)
    → "If you're thinking of running off to another country, now's the time to do it. I should tell you, though, the guards will definitaruly come after you. I'm sorry you gotaru mixed up in all this."
  7: 0x03C1 [0x23] WAIT_FOR_DIALOG_INTERACTION
  8: 0x03C2 [0x29] REQ_SET_WAIT(priority=0x08, entity_id=Dagoza-Beruza (ID: 17752078/0x010EE00E), tag_num=0x02)
  9: 0x03C9 [0x20] SET_CLI_EVENT_UC_FLAG: Unlock player control
 10: 0x03CB [0x21] END_EVENT
 11: 0x03CC [0x00] END_REQSTACK()
```

### Event 713

#### Metadata

| Field        | Value    |
|--------------|----------|
| Entrypoint   | 0x03CD   |
| Data Size    | 33 bytes |
| Instructions | 12       |

```
      00 01 02 03 04 05 06 07  08 09 0A 0B 0C 0D 0E 0F
      -- -- -- -- -- -- -- --  -- -- -- -- -- -- -- --
03C0:                                         1E F0 FF               ...
03D0: FF 7F 6F 70 29 08 0E E0  0E 01 01 1D 2B 80 23 1D  ..op).......+.#.
03E0: 2C 80 23 29 08 0E E0 0E  01 02 20 00 21 00        ,.#)...... .!.  
```

#### Opcodes

```
  0: 0x03CD [0x1E] EventEntity looks at LocalPlayer and starts talking
  1: 0x03D2 [0x6F] WAIT_FRAME_DELAY: Yield until WaitTime reaches zero
  2: 0x03D3 [0x70] WAIT_ENTITY_RENDER_FLAG: Wait while EventEntity->Render.Flags3 bit 2 is set (cancel turn if not)
  3: 0x03D4 [0x29] REQ_SET_WAIT(priority=0x08, entity_id=Dagoza-Beruza (ID: 17752078/0x010EE00E), tag_num=0x01)
  4: 0x03DB [0x1D] PRINT_EVENT_MESSAGE(message_id=9650*)
    → "Minister Tosuka-Porika of the Optistery was never very buddy-wuddy with Minister Ajido-Marujido."
  5: 0x03DE [0x23] WAIT_FOR_DIALOG_INTERACTION
  6: 0x03DF [0x1D] PRINT_EVENT_MESSAGE(message_id=9651*)
    → "So when the Minister of the Orastery was captured, Minister Tosuka-Porika was pleased as punchy-wunch. He's that sortaru of guy."
  7: 0x03E2 [0x23] WAIT_FOR_DIALOG_INTERACTION
  8: 0x03E3 [0x29] REQ_SET_WAIT(priority=0x08, entity_id=Dagoza-Beruza (ID: 17752078/0x010EE00E), tag_num=0x02)
  9: 0x03EA [0x20] SET_CLI_EVENT_UC_FLAG: Unlock player control
 10: 0x03EC [0x21] END_EVENT
 11: 0x03ED [0x00] END_REQSTACK()
```

### Event 731

#### Metadata

| Field        | Value    |
|--------------|----------|
| Entrypoint   | 0x03EE   |
| Data Size    | 33 bytes |
| Instructions | 12       |

```
      00 01 02 03 04 05 06 07  08 09 0A 0B 0C 0D 0E 0F
      -- -- -- -- -- -- -- --  -- -- -- -- -- -- -- --
03E0:                                            1E F0                ..
03F0: FF FF 7F 6F 70 29 08 0E  E0 0E 01 01 1D 2D 80 23  ...op).......-.#
0400: 1D 2E 80 23 29 08 0E E0  0E 01 02 20 00 21 00     ...#)...... .!. 
```

#### Opcodes

```
  0: 0x03EE [0x1E] EventEntity looks at LocalPlayer and starts talking
  1: 0x03F3 [0x6F] WAIT_FRAME_DELAY: Yield until WaitTime reaches zero
  2: 0x03F4 [0x70] WAIT_ENTITY_RENDER_FLAG: Wait while EventEntity->Render.Flags3 bit 2 is set (cancel turn if not)
  3: 0x03F5 [0x29] REQ_SET_WAIT(priority=0x08, entity_id=Dagoza-Beruza (ID: 17752078/0x010EE00E), tag_num=0x01)
  4: 0x03FC [0x1D] PRINT_EVENT_MESSAGE(message_id=9713*)
    → "Most people think that the Rhinostery justaru researches plants, but actually, their research encompasses all living things."
  5: 0x03FF [0x23] WAIT_FOR_DIALOG_INTERACTION
  6: 0x0400 [0x1D] PRINT_EVENT_MESSAGE(message_id=9714*)
    → "Biology researchers wander all over Vana'diel. The mostaru capable adventurers of the Rhinostery always accompany these researchers on their treks into dangerous territory."
  7: 0x0403 [0x23] WAIT_FOR_DIALOG_INTERACTION
  8: 0x0404 [0x29] REQ_SET_WAIT(priority=0x08, entity_id=Dagoza-Beruza (ID: 17752078/0x010EE00E), tag_num=0x02)
  9: 0x040B [0x20] SET_CLI_EVENT_UC_FLAG: Unlock player control
 10: 0x040D [0x21] END_EVENT
 11: 0x040E [0x00] END_REQSTACK()
```

### Event 749

#### Metadata

| Field        | Value    |
|--------------|----------|
| Entrypoint   | 0x040F   |
| Data Size    | 33 bytes |
| Instructions | 12       |

```
      00 01 02 03 04 05 06 07  08 09 0A 0B 0C 0D 0E 0F
      -- -- -- -- -- -- -- --  -- -- -- -- -- -- -- --
0400:                                               1E                 .
0410: F0 FF FF 7F 6F 70 29 08  0E E0 0E 01 01 1D 2F 80  ....op)......./.
0420: 23 1D 30 80 23 29 08 0E  E0 0E 01 02 20 00 21 00  #.0.#)...... .!.
```

#### Opcodes

```
  0: 0x040F [0x1E] EventEntity looks at LocalPlayer and starts talking
  1: 0x0414 [0x6F] WAIT_FRAME_DELAY: Yield until WaitTime reaches zero
  2: 0x0415 [0x70] WAIT_ENTITY_RENDER_FLAG: Wait while EventEntity->Render.Flags3 bit 2 is set (cancel turn if not)
  3: 0x0416 [0x29] REQ_SET_WAIT(priority=0x08, entity_id=Dagoza-Beruza (ID: 17752078/0x010EE00E), tag_num=0x01)
  4: 0x041D [0x1D] PRINT_EVENT_MESSAGE(message_id=9763*)
    → "The principal of the School of Magic is a very pleasant, although eccentric, character."
  5: 0x0420 [0x23] WAIT_FOR_DIALOG_INTERACTION
  6: 0x0421 [0x1D] PRINT_EVENT_MESSAGE(message_id=9764*)
    → "When we were kids--just normal students at the school, the principal would come and join in our Tarutaru games."
  7: 0x0424 [0x23] WAIT_FOR_DIALOG_INTERACTION
  8: 0x0425 [0x29] REQ_SET_WAIT(priority=0x08, entity_id=Dagoza-Beruza (ID: 17752078/0x010EE00E), tag_num=0x02)
  9: 0x042C [0x20] SET_CLI_EVENT_UC_FLAG: Unlock player control
 10: 0x042E [0x21] END_EVENT
 11: 0x042F [0x00] END_REQSTACK()
```

### Event 765

#### Metadata

| Field        | Value    |
|--------------|----------|
| Entrypoint   | 0x0430   |
| Data Size    | 47 bytes |
| Instructions | 14       |

```
      00 01 02 03 04 05 06 07  08 09 0A 0B 0C 0D 0E 0F
      -- -- -- -- -- -- -- --  -- -- -- -- -- -- -- --
0430: 1E F0 FF FF 7F 6F 70 29  08 0E E0 0E 01 05 1D 31  .....op).......1
0440: 80 23 29 08 0E E0 0E 01  06 29 08 0E E0 0E 01 05  .#)......)......
0450: 1D 32 80 23 29 08 0E E0  0E 01 06 20 00 21 00     .2.#)...... .!. 
```

#### Opcodes

```
  0: 0x0430 [0x1E] EventEntity looks at LocalPlayer and starts talking
  1: 0x0435 [0x6F] WAIT_FRAME_DELAY: Yield until WaitTime reaches zero
  2: 0x0436 [0x70] WAIT_ENTITY_RENDER_FLAG: Wait while EventEntity->Render.Flags3 bit 2 is set (cancel turn if not)
  3: 0x0437 [0x29] REQ_SET_WAIT(priority=0x08, entity_id=Dagoza-Beruza (ID: 17752078/0x010EE00E), tag_num=0x05)
  4: 0x043E [0x1D] PRINT_EVENT_MESSAGE(message_id=9812*)
    → "I can't bear to see Miss Apururu's tears. I'll personally taru and feather anyone who messes with my Apururu!"
  5: 0x0441 [0x23] WAIT_FOR_DIALOG_INTERACTION
  6: 0x0442 [0x29] REQ_SET_WAIT(priority=0x08, entity_id=Dagoza-Beruza (ID: 17752078/0x010EE00E), tag_num=0x06)
  7: 0x0449 [0x29] REQ_SET_WAIT(priority=0x08, entity_id=Dagoza-Beruza (ID: 17752078/0x010EE00E), tag_num=0x05)
  8: 0x0450 [0x1D] PRINT_EVENT_MESSAGE(message_id=9813*)
    → "I detestaru that Ajido-marujido. This is all his fault!"
  9: 0x0453 [0x23] WAIT_FOR_DIALOG_INTERACTION
 10: 0x0454 [0x29] REQ_SET_WAIT(priority=0x08, entity_id=Dagoza-Beruza (ID: 17752078/0x010EE00E), tag_num=0x06)
 11: 0x045B [0x20] SET_CLI_EVENT_UC_FLAG: Unlock player control
 12: 0x045D [0x21] END_EVENT
 13: 0x045E [0x00] END_REQSTACK()
```

### Event 827

#### Metadata

| Field        | Value    |
|--------------|----------|
| Entrypoint   | 0x045F   |
| Data Size    | 47 bytes |
| Instructions | 14       |

```
      00 01 02 03 04 05 06 07  08 09 0A 0B 0C 0D 0E 0F
      -- -- -- -- -- -- -- --  -- -- -- -- -- -- -- --
0450:                                               1E                 .
0460: F0 FF FF 7F 6F 70 29 08  0E E0 0E 01 05 1D 33 80  ....op).......3.
0470: 23 29 08 0E E0 0E 01 06  29 08 0E E0 0E 01 05 1D  #)......).......
0480: 34 80 23 29 08 0E E0 0E  01 06 20 00 21 00        4.#)...... .!.  
```

#### Opcodes

```
  0: 0x045F [0x1E] EventEntity looks at LocalPlayer and starts talking
  1: 0x0464 [0x6F] WAIT_FRAME_DELAY: Yield until WaitTime reaches zero
  2: 0x0465 [0x70] WAIT_ENTITY_RENDER_FLAG: Wait while EventEntity->Render.Flags3 bit 2 is set (cancel turn if not)
  3: 0x0466 [0x29] REQ_SET_WAIT(priority=0x08, entity_id=Dagoza-Beruza (ID: 17752078/0x010EE00E), tag_num=0x05)
  4: 0x046D [0x1D] PRINT_EVENT_MESSAGE(message_id=10056*)
    → "Miss Apururu and her brother are in such a pickle-wickle... If their father, Zonpa-Zippa, was still with us, he would have saved them from this sticky situation."
  5: 0x0470 [0x23] WAIT_FOR_DIALOG_INTERACTION
  6: 0x0471 [0x29] REQ_SET_WAIT(priority=0x08, entity_id=Dagoza-Beruza (ID: 17752078/0x010EE00E), tag_num=0x06)
  7: 0x0478 [0x29] REQ_SET_WAIT(priority=0x08, entity_id=Dagoza-Beruza (ID: 17752078/0x010EE00E), tag_num=0x05)
  8: 0x047F [0x1D] PRINT_EVENT_MESSAGE(message_id=10057*)
    → "...... Or maybe things justaru would've gotten worse. Zonpa-Zippa was never known for being a particularly helpful-welpful guy..."
  9: 0x0482 [0x23] WAIT_FOR_DIALOG_INTERACTION
 10: 0x0483 [0x29] REQ_SET_WAIT(priority=0x08, entity_id=Dagoza-Beruza (ID: 17752078/0x010EE00E), tag_num=0x06)
 11: 0x048A [0x20] SET_CLI_EVENT_UC_FLAG: Unlock player control
 12: 0x048C [0x21] END_EVENT
 13: 0x048D [0x00] END_REQSTACK()
```

### Event 835

#### Metadata

| Field        | Value    |
|--------------|----------|
| Entrypoint   | 0x048E   |
| Data Size    | 65 bytes |
| Instructions | 18       |

```
      00 01 02 03 04 05 06 07  08 09 0A 0B 0C 0D 0E 0F
      -- -- -- -- -- -- -- --  -- -- -- -- -- -- -- --
0480:                                            1E F0                ..
0490: FF FF 7F 6F 70 29 08 0E  E0 0E 01 08 1D 35 80 23  ...op).......5.#
04A0: 29 08 0E E0 0E 01 09 29  08 0E E0 0E 01 0A 1D 36  )......).......6
04B0: 80 23 29 08 0E E0 0E 01  0B 29 08 0E E0 0E 01 0C  .#)......)......
04C0: 1D 37 80 23 29 08 0E E0  0E 01 0D 20 00 21 00     .7.#)...... .!. 
```

#### Opcodes

```
  0: 0x048E [0x1E] EventEntity looks at LocalPlayer and starts talking
  1: 0x0493 [0x6F] WAIT_FRAME_DELAY: Yield until WaitTime reaches zero
  2: 0x0494 [0x70] WAIT_ENTITY_RENDER_FLAG: Wait while EventEntity->Render.Flags3 bit 2 is set (cancel turn if not)
  3: 0x0495 [0x29] REQ_SET_WAIT(priority=0x08, entity_id=Dagoza-Beruza (ID: 17752078/0x010EE00E), tag_num=0x08)
  4: 0x049C [0x1D] PRINT_EVENT_MESSAGE(message_id=10063*)
    → "You wanna know what kind of person Zonpa-Zippa was?"
  5: 0x049F [0x23] WAIT_FOR_DIALOG_INTERACTION
  6: 0x04A0 [0x29] REQ_SET_WAIT(priority=0x08, entity_id=Dagoza-Beruza (ID: 17752078/0x010EE00E), tag_num=0x09)
  7: 0x04A7 [0x29] REQ_SET_WAIT(priority=0x08, entity_id=Dagoza-Beruza (ID: 17752078/0x010EE00E), tag_num=0x0A)
  8: 0x04AE [0x1D] PRINT_EVENT_MESSAGE(message_id=10064*)
    → "...Zonpa-Zippa was an extremely-wemely strict minister. He pushed our children to their limits with his unrelentaruing style of education."
  9: 0x04B1 [0x23] WAIT_FOR_DIALOG_INTERACTION
 10: 0x04B2 [0x29] REQ_SET_WAIT(priority=0x08, entity_id=Dagoza-Beruza (ID: 17752078/0x010EE00E), tag_num=0x0B)
 11: 0x04B9 [0x29] REQ_SET_WAIT(priority=0x08, entity_id=Dagoza-Beruza (ID: 17752078/0x010EE00E), tag_num=0x0C)
 12: 0x04C0 [0x1D] PRINT_EVENT_MESSAGE(message_id=10065*)
    → "He was particularly harsh with Ajido-Marujido."
 13: 0x04C3 [0x23] WAIT_FOR_DIALOG_INTERACTION
 14: 0x04C4 [0x29] REQ_SET_WAIT(priority=0x08, entity_id=Dagoza-Beruza (ID: 17752078/0x010EE00E), tag_num=0x0D)
 15: 0x04CB [0x20] SET_CLI_EVENT_UC_FLAG: Unlock player control
 16: 0x04CD [0x21] END_EVENT
 17: 0x04CE [0x00] END_REQSTACK()
```

### Event 832

#### Metadata

| Field        | Value    |
|--------------|----------|
| Entrypoint   | 0x04CF   |
| Data Size    | 61 bytes |
| Instructions | 16       |

```
      00 01 02 03 04 05 06 07  08 09 0A 0B 0C 0D 0E 0F
      -- -- -- -- -- -- -- --  -- -- -- -- -- -- -- --
04C0:                                               1E                 .
04D0: F0 FF FF 7F 6F 70 29 08  0E E0 0E 01 01 1D 38 80  ....op).......8.
04E0: 23 29 08 0E E0 0E 01 02  29 08 0E E0 0E 01 08 1D  #)......).......
04F0: 39 80 23 29 08 0E E0 0E  01 09 29 08 0E E0 0E 01  9.#)......).....
0500: 0A 29 08 0E E0 0E 01 0B  20 00 21 00              .)...... .!.    
```

#### Opcodes

```
  0: 0x04CF [0x1E] EventEntity looks at LocalPlayer and starts talking
  1: 0x04D4 [0x6F] WAIT_FRAME_DELAY: Yield until WaitTime reaches zero
  2: 0x04D5 [0x70] WAIT_ENTITY_RENDER_FLAG: Wait while EventEntity->Render.Flags3 bit 2 is set (cancel turn if not)
  3: 0x04D6 [0x29] REQ_SET_WAIT(priority=0x08, entity_id=Dagoza-Beruza (ID: 17752078/0x010EE00E), tag_num=0x01)
  4: 0x04DD [0x1D] PRINT_EVENT_MESSAGE(message_id=10077*)
    → "Even with Minister Ajido-Marujido's return to consciousness and the pardoning of his crimes, Miss Apururu still looks all pasty-wasty!"
  5: 0x04E0 [0x23] WAIT_FOR_DIALOG_INTERACTION
  6: 0x04E1 [0x29] REQ_SET_WAIT(priority=0x08, entity_id=Dagoza-Beruza (ID: 17752078/0x010EE00E), tag_num=0x02)
  7: 0x04E8 [0x29] REQ_SET_WAIT(priority=0x08, entity_id=Dagoza-Beruza (ID: 17752078/0x010EE00E), tag_num=0x08)
  8: 0x04EF [0x1D] PRINT_EVENT_MESSAGE(message_id=10078*)
    → "She mustaru be working too hard. The Cardians should be doing all the menial tasks of the Manustery!"
  9: 0x04F2 [0x23] WAIT_FOR_DIALOG_INTERACTION
 10: 0x04F3 [0x29] REQ_SET_WAIT(priority=0x08, entity_id=Dagoza-Beruza (ID: 17752078/0x010EE00E), tag_num=0x09)
 11: 0x04FA [0x29] REQ_SET_WAIT(priority=0x08, entity_id=Dagoza-Beruza (ID: 17752078/0x010EE00E), tag_num=0x0A)
 12: 0x0501 [0x29] REQ_SET_WAIT(priority=0x08, entity_id=Dagoza-Beruza (ID: 17752078/0x010EE00E), tag_num=0x0B)
 13: 0x0508 [0x20] SET_CLI_EVENT_UC_FLAG: Unlock player control
 14: 0x050A [0x21] END_EVENT
 15: 0x050B [0x00] END_REQSTACK()
```

### Event 839

#### Metadata

| Field        | Value    |
|--------------|----------|
| Entrypoint   | 0x050C   |
| Data Size    | 47 bytes |
| Instructions | 14       |

```
      00 01 02 03 04 05 06 07  08 09 0A 0B 0C 0D 0E 0F
      -- -- -- -- -- -- -- --  -- -- -- -- -- -- -- --
0500:                                      1E F0 FF FF              ....
0510: 7F 6F 70 29 08 0E E0 0E  01 05 1D 3A 80 23 29 08  .op).......:.#).
0520: 0E E0 0E 01 06 29 08 0E  E0 0E 01 01 1D 3B 80 23  .....).......;.#
0530: 29 08 0E E0 0E 01 02 20  00 21 00                 )...... .!.     
```

#### Opcodes

```
  0: 0x050C [0x1E] EventEntity looks at LocalPlayer and starts talking
  1: 0x0511 [0x6F] WAIT_FRAME_DELAY: Yield until WaitTime reaches zero
  2: 0x0512 [0x70] WAIT_ENTITY_RENDER_FLAG: Wait while EventEntity->Render.Flags3 bit 2 is set (cancel turn if not)
  3: 0x0513 [0x29] REQ_SET_WAIT(priority=0x08, entity_id=Dagoza-Beruza (ID: 17752078/0x010EE00E), tag_num=0x05)
  4: 0x051A [0x1D] PRINT_EVENT_MESSAGE(message_id=10088*)
    → "Seeing the smiley-wiley faces of the children when I do my rounds of Windurst Waters justaru blows my tiredness away."
  5: 0x051D [0x23] WAIT_FOR_DIALOG_INTERACTION
  6: 0x051E [0x29] REQ_SET_WAIT(priority=0x08, entity_id=Dagoza-Beruza (ID: 17752078/0x010EE00E), tag_num=0x06)
  7: 0x0525 [0x29] REQ_SET_WAIT(priority=0x08, entity_id=Dagoza-Beruza (ID: 17752078/0x010EE00E), tag_num=0x01)
  8: 0x052C [0x1D] PRINT_EVENT_MESSAGE(message_id=10089*)
    → "And to top it all off, even the Mithra we pass have begun greeting us in a friendly fashion. Isn't that greataru?"
  9: 0x052F [0x23] WAIT_FOR_DIALOG_INTERACTION
 10: 0x0530 [0x29] REQ_SET_WAIT(priority=0x08, entity_id=Dagoza-Beruza (ID: 17752078/0x010EE00E), tag_num=0x02)
 11: 0x0537 [0x20] SET_CLI_EVENT_UC_FLAG: Unlock player control
 12: 0x0539 [0x21] END_EVENT
 13: 0x053A [0x00] END_REQSTACK()
```
