# 17752145 - Yung Yaam

## Common Data

| Field            | Value                     |
|------------------|---------------------------|
| Zone             | Windurst Waters (ID: 238) |
| Block Size       | 432 bytes                 |
| Total Events     | 14                        |
| References Count | 12                        |

## List of Events

| Event ID                 | Entrypoint   |   Size |   Instructions |
|--------------------------|--------------|--------|----------------|
| [65535](#event-65535)    | 0x0000       |      1 |              1 |
| [65535.1](#event-655351) | 0x0001       |     16 |              2 |
| [65535.2](#event-655352) | 0x0011       |     22 |              4 |
| [65535.3](#event-655353) | 0x0027       |     16 |              2 |
| [65535.4](#event-655354) | 0x0037       |     14 |              2 |
| [65535.5](#event-655355) | 0x0045       |     29 |              3 |
| [65535.6](#event-655356) | 0x0062       |     16 |              2 |
| [65535.7](#event-655357) | 0x0072       |     14 |              2 |
| [65535.8](#event-655358) | 0x0080       |      9 |              3 |
| [609](#event-609)        | 0x0089       |     39 |             13 |
| [83](#event-83)          | 0x00B0       |     39 |             13 |
| [636](#event-636)        | 0x00D7       |     57 |             17 |
| [643](#event-643)        | 0x0110       |     39 |             13 |
| [638](#event-638)        | 0x0137       |      1 |              1 |

## DAT References (imed_data)

|   Index | Hex Value   |   Dec Value |
|---------|-------------|-------------|
|       0 | 0x0050      |          80 |
|       1 | 0x001E      |          30 |
|       2 | 0x0051      |          81 |
|       3 | 0x22B8      |        8888 |
|       4 | 0x22B9      |        8889 |
|       5 | 0x1D16      |        7446 |
|       6 | 0x1D17      |        7447 |
|       7 | 0x22D5      |        8917 |
|       8 | 0x22D6      |        8918 |
|       9 | 0x22D7      |        8919 |
|      10 | 0x22F2      |        8946 |
|      11 | 0x22F3      |        8947 |

## String References

- **7446**: A little while ago, Barrren-Morrren asked Bondada what she wanted as a gift.
- **7447**: Those two always seem to be fighting and putting each otherrr down, but deep down they rrreally like one anotherrr.
- **8888**: The cooking herrre is carrried overrr from the Culinarrrians' Guild, so that's why the taste is top class.
- **8889**: People come from farrr and abrrroad just to taste ourrr dishes. Arrren't you imprrressed?
- **8917**: Come to think of it, a little while back, a barrrd from Jeuno came herrre to stay forrr a spell.
- **8918**: My motherrr said that everrr since that barrrd arrrrived, Jatan-Paratan has been acting all strrrange.
- **8919**: That tenant was a Hume with the most amazing facial hair I've seen!
- **8946**: Motherrr is such a worrrrierrr! Jatan-Paratan seems his same old self again to me.
- **8947**: But I must say that I did prrreferrr the cheerrrful little ditties Jatan-Paratan used to play beforrre. They werrre morrre my type of music.t

## Events

### Event 65535

#### Metadata

| Field        | Value   |
|--------------|---------|
| Entrypoint   | 0x0000  |
| Data Size    | 1 bytes |
| Instructions | 1       |

```
      00 01 02 03 04 05 06 07  08 09 0A 0B 0C 0D 0E 0F
      -- -- -- -- -- -- -- --  -- -- -- -- -- -- -- --
0000: 00                                                .               
```

#### Opcodes

```
  0: 0x0000 [0x00] END_REQSTACK()
```

### Event 65535.1

#### Metadata

| Field        | Value    |
|--------------|----------|
| Entrypoint   | 0x0001   |
| Data Size    | 16 bytes |
| Instructions | 2        |

```
      00 01 02 03 04 05 06 07  08 09 0A 0B 0C 0D 0E 0F
      -- -- -- -- -- -- -- --  -- -- -- -- -- -- -- --
0000:    5B 00 80 F8 FF FF 7F  F8 FF FF 7F 74 6C 6B 30   [..........tlk0
0010: 00                                                .               
```

#### Opcodes

```
  0: 0x0001 [0x5B] LOAD_EXT_SCHEDULER: Load scheduler "tlk0" with entities [EventEntity, EventEntity], work=80*
  1: 0x0010 [0x00] END_REQSTACK()
```

### Event 65535.2

#### Metadata

| Field        | Value    |
|--------------|----------|
| Entrypoint   | 0x0011   |
| Data Size    | 22 bytes |
| Instructions | 4        |

```
      00 01 02 03 04 05 06 07  08 09 0A 0B 0C 0D 0E 0F
      -- -- -- -- -- -- -- --  -- -- -- -- -- -- -- --
0010:    53 F8 FF FF 7F F8 FF  FF 7F 74 6C 6B 30 5E 69   S........tlk0^i
0020: 64 6C 30 1C 01 80 00                              dl0....         
```

#### Opcodes

```
  0: 0x0011 [0x53] WAIT_SCHEDULER_TASK: Wait for scheduler "tlk0" with entities [EventEntity, EventEntity]
  1: 0x001E [0x5E] EventEntity goes idle (kills current action) (animation: "idl0")
  2: 0x0023 [0x1C] WAIT(30* ticks)
  3: 0x0026 [0x00] END_REQSTACK()
```

### Event 65535.3

#### Metadata

| Field        | Value    |
|--------------|----------|
| Entrypoint   | 0x0027   |
| Data Size    | 16 bytes |
| Instructions | 2        |

```
      00 01 02 03 04 05 06 07  08 09 0A 0B 0C 0D 0E 0F
      -- -- -- -- -- -- -- --  -- -- -- -- -- -- -- --
0020:                      5B  02 80 F8 FF FF 7F F8 FF         [........
0030: FF 7F 68 61 69 30 00                              ..hai0.         
```

#### Opcodes

```
  0: 0x0027 [0x5B] LOAD_EXT_SCHEDULER: Load scheduler "hai0" with entities [EventEntity, EventEntity], work=81*
  1: 0x0036 [0x00] END_REQSTACK()
```

### Event 65535.4

#### Metadata

| Field        | Value    |
|--------------|----------|
| Entrypoint   | 0x0037   |
| Data Size    | 14 bytes |
| Instructions | 2        |

```
      00 01 02 03 04 05 06 07  08 09 0A 0B 0C 0D 0E 0F
      -- -- -- -- -- -- -- --  -- -- -- -- -- -- -- --
0030:                      53  F8 FF FF 7F F8 FF FF 7F         S........
0040: 68 61 69 30 00                                    hai0.           
```

#### Opcodes

```
  0: 0x0037 [0x53] WAIT_SCHEDULER_TASK: Wait for scheduler "hai0" with entities [EventEntity, EventEntity]
  1: 0x0044 [0x00] END_REQSTACK()
```

### Event 65535.5

#### Metadata

| Field        | Value    |
|--------------|----------|
| Entrypoint   | 0x0045   |
| Data Size    | 29 bytes |
| Instructions | 3        |

```
      00 01 02 03 04 05 06 07  08 09 0A 0B 0C 0D 0E 0F
      -- -- -- -- -- -- -- --  -- -- -- -- -- -- -- --
0040:                5B 02 80  F8 FF FF 7F F8 FF FF 7F       [..........
0050: 68 61 69 30 53 F8 FF FF  7F F8 FF FF 7F 68 61 69  hai0S........hai
0060: 30 00                                             0.              
```

#### Opcodes

```
  0: 0x0045 [0x5B] LOAD_EXT_SCHEDULER: Load scheduler "hai0" with entities [EventEntity, EventEntity], work=81*
  1: 0x0054 [0x53] WAIT_SCHEDULER_TASK: Wait for scheduler "hai0" with entities [EventEntity, EventEntity]
  2: 0x0061 [0x00] END_REQSTACK()
```

### Event 65535.6

#### Metadata

| Field        | Value    |
|--------------|----------|
| Entrypoint   | 0x0062   |
| Data Size    | 16 bytes |
| Instructions | 2        |

```
      00 01 02 03 04 05 06 07  08 09 0A 0B 0C 0D 0E 0F
      -- -- -- -- -- -- -- --  -- -- -- -- -- -- -- --
0060:       5B 02 80 F8 FF FF  7F F8 FF FF 7F 62 69 6B    [..........bik
0070: 30 00                                             0.              
```

#### Opcodes

```
  0: 0x0062 [0x5B] LOAD_EXT_SCHEDULER: Load scheduler "bik0" with entities [EventEntity, EventEntity], work=81*
  1: 0x0071 [0x00] END_REQSTACK()
```

### Event 65535.7

#### Metadata

| Field        | Value    |
|--------------|----------|
| Entrypoint   | 0x0072   |
| Data Size    | 14 bytes |
| Instructions | 2        |

```
      00 01 02 03 04 05 06 07  08 09 0A 0B 0C 0D 0E 0F
      -- -- -- -- -- -- -- --  -- -- -- -- -- -- -- --
0070:       53 F8 FF FF 7F F8  FF FF 7F 62 69 6B 30 00    S........bik0.
```

#### Opcodes

```
  0: 0x0072 [0x53] WAIT_SCHEDULER_TASK: Wait for scheduler "bik0" with entities [EventEntity, EventEntity]
  1: 0x007F [0x00] END_REQSTACK()
```

### Event 65535.8

#### Metadata

| Field        | Value   |
|--------------|---------|
| Entrypoint   | 0x0080  |
| Data Size    | 9 bytes |
| Instructions | 3       |

```
      00 01 02 03 04 05 06 07  08 09 0A 0B 0C 0D 0E 0F
      -- -- -- -- -- -- -- --  -- -- -- -- -- -- -- --
0080: 5E 69 64 6C 30 1C 01 80  00                       ^idl0....       
```

#### Opcodes

```
  0: 0x0080 [0x5E] EventEntity goes idle (kills current action) (animation: "idl0")
  1: 0x0085 [0x1C] WAIT(30* ticks)
  2: 0x0088 [0x00] END_REQSTACK()
```

### Event 609

#### Metadata

| Field        | Value    |
|--------------|----------|
| Entrypoint   | 0x0089   |
| Data Size    | 39 bytes |
| Instructions | 13       |

```
      00 01 02 03 04 05 06 07  08 09 0A 0B 0C 0D 0E 0F
      -- -- -- -- -- -- -- --  -- -- -- -- -- -- -- --
0080:                             86 00 F8 FF FF 7F 1E           .......
0090: F0 FF FF 7F 6F 70 29 08  51 E0 0E 01 01 1D 03 80  ....op).Q.......
00A0: 23 1D 04 80 23 29 08 51  E0 0E 01 02 20 00 21 00  #...#).Q.... .!.
```

#### Opcodes

```
  0: 0x0089 [0x86] EventEntity->Render.Flags3 = Flags3  // No change (flag=0)
  1: 0x008F [0x1E] EventEntity looks at LocalPlayer and starts talking
  2: 0x0094 [0x6F] WAIT_FRAME_DELAY: Yield until WaitTime reaches zero
  3: 0x0095 [0x70] WAIT_ENTITY_RENDER_FLAG: Wait while EventEntity->Render.Flags3 bit 2 is set (cancel turn if not)
  4: 0x0096 [0x29] REQ_SET_WAIT(priority=0x08, entity_id=Yung Yaam (ID: 17752145/0x010EE051), tag_num=0x01)
  5: 0x009D [0x1D] PRINT_EVENT_MESSAGE(message_id=8888*)
    → "The cooking herrre is carrried overrr from the Culinarrrians' Guild, so that's why the taste is top class."
  6: 0x00A0 [0x23] WAIT_FOR_DIALOG_INTERACTION
  7: 0x00A1 [0x1D] PRINT_EVENT_MESSAGE(message_id=8889*)
    → "People come from farrr and abrrroad just to taste ourrr dishes. Arrren't you imprrressed?"
  8: 0x00A4 [0x23] WAIT_FOR_DIALOG_INTERACTION
  9: 0x00A5 [0x29] REQ_SET_WAIT(priority=0x08, entity_id=Yung Yaam (ID: 17752145/0x010EE051), tag_num=0x02)
 10: 0x00AC [0x20] SET_CLI_EVENT_UC_FLAG: Unlock player control
 11: 0x00AE [0x21] END_EVENT
 12: 0x00AF [0x00] END_REQSTACK()
```

### Event 83

#### Metadata

| Field        | Value    |
|--------------|----------|
| Entrypoint   | 0x00B0   |
| Data Size    | 39 bytes |
| Instructions | 13       |

```
      00 01 02 03 04 05 06 07  08 09 0A 0B 0C 0D 0E 0F
      -- -- -- -- -- -- -- --  -- -- -- -- -- -- -- --
00B0: 86 00 F8 FF FF 7F 1E F0  FF FF 7F 6F 70 29 08 51  ...........op).Q
00C0: E0 0E 01 01 1D 05 80 23  1D 06 80 23 29 08 51 E0  .......#...#).Q.
00D0: 0E 01 02 20 00 21 00                              ... .!.         
```

#### Opcodes

```
  0: 0x00B0 [0x86] EventEntity->Render.Flags3 = Flags3  // No change (flag=0)
  1: 0x00B6 [0x1E] EventEntity looks at LocalPlayer and starts talking
  2: 0x00BB [0x6F] WAIT_FRAME_DELAY: Yield until WaitTime reaches zero
  3: 0x00BC [0x70] WAIT_ENTITY_RENDER_FLAG: Wait while EventEntity->Render.Flags3 bit 2 is set (cancel turn if not)
  4: 0x00BD [0x29] REQ_SET_WAIT(priority=0x08, entity_id=Yung Yaam (ID: 17752145/0x010EE051), tag_num=0x01)
  5: 0x00C4 [0x1D] PRINT_EVENT_MESSAGE(message_id=7446*)
    → "A little while ago, Barrren-Morrren asked Bondada what she wanted as a gift."
  6: 0x00C7 [0x23] WAIT_FOR_DIALOG_INTERACTION
  7: 0x00C8 [0x1D] PRINT_EVENT_MESSAGE(message_id=7447*)
    → "Those two always seem to be fighting and putting each otherrr down, but deep down they rrreally like one anotherrr."
  8: 0x00CB [0x23] WAIT_FOR_DIALOG_INTERACTION
  9: 0x00CC [0x29] REQ_SET_WAIT(priority=0x08, entity_id=Yung Yaam (ID: 17752145/0x010EE051), tag_num=0x02)
 10: 0x00D3 [0x20] SET_CLI_EVENT_UC_FLAG: Unlock player control
 11: 0x00D5 [0x21] END_EVENT
 12: 0x00D6 [0x00] END_REQSTACK()
```

### Event 636

#### Metadata

| Field        | Value    |
|--------------|----------|
| Entrypoint   | 0x00D7   |
| Data Size    | 57 bytes |
| Instructions | 17       |

```
      00 01 02 03 04 05 06 07  08 09 0A 0B 0C 0D 0E 0F
      -- -- -- -- -- -- -- --  -- -- -- -- -- -- -- --
00D0:                      86  00 F8 FF FF 7F 1E F0 FF         .........
00E0: FF 7F 6F 70 29 08 51 E0  0E 01 01 1D 07 80 23 1D  ..op).Q.......#.
00F0: 08 80 23 29 08 51 E0 0E  01 02 29 08 51 E0 0E 01  ..#).Q....).Q...
0100: 06 1D 09 80 23 29 08 51  E0 0E 01 07 20 00 21 00  ....#).Q.... .!.
```

#### Opcodes

```
  0: 0x00D7 [0x86] EventEntity->Render.Flags3 = Flags3  // No change (flag=0)
  1: 0x00DD [0x1E] EventEntity looks at LocalPlayer and starts talking
  2: 0x00E2 [0x6F] WAIT_FRAME_DELAY: Yield until WaitTime reaches zero
  3: 0x00E3 [0x70] WAIT_ENTITY_RENDER_FLAG: Wait while EventEntity->Render.Flags3 bit 2 is set (cancel turn if not)
  4: 0x00E4 [0x29] REQ_SET_WAIT(priority=0x08, entity_id=Yung Yaam (ID: 17752145/0x010EE051), tag_num=0x01)
  5: 0x00EB [0x1D] PRINT_EVENT_MESSAGE(message_id=8917*)
    → "Come to think of it, a little while back, a barrrd from Jeuno came herrre to stay forrr a spell."
  6: 0x00EE [0x23] WAIT_FOR_DIALOG_INTERACTION
  7: 0x00EF [0x1D] PRINT_EVENT_MESSAGE(message_id=8918*)
    → "My motherrr said that everrr since that barrrd arrrrived, Jatan-Paratan has been acting all strrrange."
  8: 0x00F2 [0x23] WAIT_FOR_DIALOG_INTERACTION
  9: 0x00F3 [0x29] REQ_SET_WAIT(priority=0x08, entity_id=Yung Yaam (ID: 17752145/0x010EE051), tag_num=0x02)
 10: 0x00FA [0x29] REQ_SET_WAIT(priority=0x08, entity_id=Yung Yaam (ID: 17752145/0x010EE051), tag_num=0x06)
 11: 0x0101 [0x1D] PRINT_EVENT_MESSAGE(message_id=8919*)
    → "That tenant was a Hume with the most amazing facial hair I've seen!"
 12: 0x0104 [0x23] WAIT_FOR_DIALOG_INTERACTION
 13: 0x0105 [0x29] REQ_SET_WAIT(priority=0x08, entity_id=Yung Yaam (ID: 17752145/0x010EE051), tag_num=0x07)
 14: 0x010C [0x20] SET_CLI_EVENT_UC_FLAG: Unlock player control
 15: 0x010E [0x21] END_EVENT
 16: 0x010F [0x00] END_REQSTACK()
```

### Event 643

#### Metadata

| Field        | Value    |
|--------------|----------|
| Entrypoint   | 0x0110   |
| Data Size    | 39 bytes |
| Instructions | 13       |

```
      00 01 02 03 04 05 06 07  08 09 0A 0B 0C 0D 0E 0F
      -- -- -- -- -- -- -- --  -- -- -- -- -- -- -- --
0110: 86 00 F8 FF FF 7F 1E F0  FF FF 7F 6F 70 29 08 51  ...........op).Q
0120: E0 0E 01 01 1D 0A 80 23  1D 0B 80 23 29 08 51 E0  .......#...#).Q.
0130: 0E 01 02 20 00 21 00                              ... .!.         
```

#### Opcodes

```
  0: 0x0110 [0x86] EventEntity->Render.Flags3 = Flags3  // No change (flag=0)
  1: 0x0116 [0x1E] EventEntity looks at LocalPlayer and starts talking
  2: 0x011B [0x6F] WAIT_FRAME_DELAY: Yield until WaitTime reaches zero
  3: 0x011C [0x70] WAIT_ENTITY_RENDER_FLAG: Wait while EventEntity->Render.Flags3 bit 2 is set (cancel turn if not)
  4: 0x011D [0x29] REQ_SET_WAIT(priority=0x08, entity_id=Yung Yaam (ID: 17752145/0x010EE051), tag_num=0x01)
  5: 0x0124 [0x1D] PRINT_EVENT_MESSAGE(message_id=8946*)
    → "Motherrr is such a worrrrierrr! Jatan-Paratan seems his same old self again to me."
  6: 0x0127 [0x23] WAIT_FOR_DIALOG_INTERACTION
  7: 0x0128 [0x1D] PRINT_EVENT_MESSAGE(message_id=8947*)
    → "But I must say that I did prrreferrr the cheerrrful little ditties Jatan-Paratan used to play beforrre. They werrre morrre my type of music.t"
  8: 0x012B [0x23] WAIT_FOR_DIALOG_INTERACTION
  9: 0x012C [0x29] REQ_SET_WAIT(priority=0x08, entity_id=Yung Yaam (ID: 17752145/0x010EE051), tag_num=0x02)
 10: 0x0133 [0x20] SET_CLI_EVENT_UC_FLAG: Unlock player control
 11: 0x0135 [0x21] END_EVENT
 12: 0x0136 [0x00] END_REQSTACK()
```

### Event 638

#### Metadata

| Field        | Value   |
|--------------|---------|
| Entrypoint   | 0x0137  |
| Data Size    | 1 bytes |
| Instructions | 1       |

```
      00 01 02 03 04 05 06 07  08 09 0A 0B 0C 0D 0E 0F
      -- -- -- -- -- -- -- --  -- -- -- -- -- -- -- --
0130:                      00                                  .        
```

#### Opcodes

```
  0: 0x0137 [0x00] END_REQSTACK()
```
