# 17752215

## Common Data

| Field            | Value                     |
|------------------|---------------------------|
| Zone             | Windurst Waters (ID: 238) |
| Block Size       | 248 bytes                 |
| Total Events     | 7                         |
| References Count | 5                         |

## List of Events

| Event ID                 | Entrypoint   |   Size |   Instructions |
|--------------------------|--------------|--------|----------------|
| [65535](#event-65535)    | 0x0000       |      1 |              1 |
| [11](#event-11)          | 0x0001       |      1 |              1 |
| [65535.1](#event-655351) | 0x0002       |     43 |              6 |
| [65535.2](#event-655352) | 0x002D       |     33 |              3 |
| [65535.3](#event-655353) | 0x004E       |     33 |              3 |
| [531](#event-531)        | 0x006F       |      1 |              1 |
| [65535.4](#event-655354) | 0x0070       |     70 |              6 |

## DAT References (imed_data)

|   Index | Hex Value   |   Dec Value |
|---------|-------------|-------------|
|       0 | 0x00C8      |         200 |
|       1 | 0x0000      |           0 |
|       2 | 0x0078      |         120 |
|       3 | 0x0064      |         100 |
|       4 | 0x008A      |         138 |

## Events

### Event 65535

#### Metadata

| Field        | Value   |
|--------------|---------|
| Entrypoint   | 0x0000  |
| Data Size    | 1 bytes |
| Instructions | 1       |

```
      00 01 02 03 04 05 06 07  08 09 0A 0B 0C 0D 0E 0F
      -- -- -- -- -- -- -- --  -- -- -- -- -- -- -- --
0000: 00                                                .               
```

#### Opcodes

```
  0: 0x0000 [0x00] END_REQSTACK()
```

### Event 11

#### Metadata

| Field        | Value   |
|--------------|---------|
| Entrypoint   | 0x0001  |
| Data Size    | 1 bytes |
| Instructions | 1       |

```
      00 01 02 03 04 05 06 07  08 09 0A 0B 0C 0D 0E 0F
      -- -- -- -- -- -- -- --  -- -- -- -- -- -- -- --
0000:    00                                              .              
```

#### Opcodes

```
  0: 0x0001 [0x00] END_REQSTACK()
```

### Event 65535.1

#### Metadata

| Field        | Value    |
|--------------|----------|
| Entrypoint   | 0x0002   |
| Data Size    | 43 bytes |
| Instructions | 6        |

```
      00 01 02 03 04 05 06 07  08 09 0A 0B 0C 0D 0E 0F
      -- -- -- -- -- -- -- --  -- -- -- -- -- -- -- --
0000:       45 00 80 F8 FF FF  7F F8 FF FF 7F 66 64 6F    E..........fdo
0010: 32 01 80 1C 02 80 46 00  1C 02 80 45 00 80 F8 FF  2.....F....E....
0020: FF 7F F8 FF FF 7F 66 64  69 32 01 80 00           ......fdi2...   
```

#### Opcodes

```
  0: 0x0002 [0x45] LOAD_SCHEDULED_TASK: Load scheduler "fdo2" with entities [EventEntity, EventEntity], work=[200*, 0*]
  1: 0x0013 [0x1C] WAIT(120* ticks)
  2: 0x0016 [0x46] CAMERA_CONTROL: Restore default settings
  3: 0x0018 [0x1C] WAIT(120* ticks)
  4: 0x001B [0x45] LOAD_SCHEDULED_TASK: Load scheduler "fdi2" with entities [EventEntity, EventEntity], work=[200*, 0*]
  5: 0x002C [0x00] END_REQSTACK()
```

### Event 65535.2

#### Metadata

| Field        | Value    |
|--------------|----------|
| Entrypoint   | 0x002D   |
| Data Size    | 33 bytes |
| Instructions | 3        |

```
      00 01 02 03 04 05 06 07  08 09 0A 0B 0C 0D 0E 0F
      -- -- -- -- -- -- -- --  -- -- -- -- -- -- -- --
0020:                                         45 00 80               E..
0030: F0 FF FF 7F F0 FF FF 7F  66 64 69 30 01 80 55 00  ........fdi0..U.
0040: 80 F0 FF FF 7F F0 FF FF  7F 66 64 69 30 00        .........fdi0.  
```

#### Opcodes

```
  0: 0x002D [0x45] LOAD_SCHEDULED_TASK: Load scheduler "fdi0" with entities [LocalPlayer, LocalPlayer], work=[200*, 0*]
  1: 0x003E [0x55] WAIT_LOAD_SCHEDULER: Wait for scheduler "fdi0" with entities [LocalPlayer, LocalPlayer], work=200*
  2: 0x004D [0x00] END_REQSTACK()
```

### Event 65535.3

#### Metadata

| Field        | Value    |
|--------------|----------|
| Entrypoint   | 0x004E   |
| Data Size    | 33 bytes |
| Instructions | 3        |

```
      00 01 02 03 04 05 06 07  08 09 0A 0B 0C 0D 0E 0F
      -- -- -- -- -- -- -- --  -- -- -- -- -- -- -- --
0040:                                            45 00                E.
0050: 80 F0 FF FF 7F F0 FF FF  7F 66 64 6F 30 01 80 55  .........fdo0..U
0060: 00 80 F0 FF FF 7F F0 FF  FF 7F 66 64 6F 30 00     ..........fdo0. 
```

#### Opcodes

```
  0: 0x004E [0x45] LOAD_SCHEDULED_TASK: Load scheduler "fdo0" with entities [LocalPlayer, LocalPlayer], work=[200*, 0*]
  1: 0x005F [0x55] WAIT_LOAD_SCHEDULER: Wait for scheduler "fdo0" with entities [LocalPlayer, LocalPlayer], work=200*
  2: 0x006E [0x00] END_REQSTACK()
```

### Event 531

#### Metadata

| Field        | Value   |
|--------------|---------|
| Entrypoint   | 0x006F  |
| Data Size    | 1 bytes |
| Instructions | 1       |

```
      00 01 02 03 04 05 06 07  08 09 0A 0B 0C 0D 0E 0F
      -- -- -- -- -- -- -- --  -- -- -- -- -- -- -- --
0060:                                               00                 .
```

#### Opcodes

```
  0: 0x006F [0x00] END_REQSTACK()
```

### Event 65535.4

#### Metadata

| Field        | Value    |
|--------------|----------|
| Entrypoint   | 0x0070   |
| Data Size    | 70 bytes |
| Instructions | 6        |

```
      00 01 02 03 04 05 06 07  08 09 0A 0B 0C 0D 0E 0F
      -- -- -- -- -- -- -- --  -- -- -- -- -- -- -- --
0070: 45 00 80 F8 FF FF 7F F8  FF FF 7F 66 64 6F 31 01  E..........fdo1.
0080: 80 1C 03 80 45 04 80 F0  FF FF 7F F0 FF FF 7F 73  ....E..........s
0090: 30 32 30 01 80 45 00 80  F8 FF FF 7F F8 FF FF 7F  020..E..........
00A0: 66 64 69 31 01 80 55 04  80 F0 FF FF 7F F0 FF FF  fdi1..U.........
00B0: 7F 73 30 32 30 00                                 .s020.          
```

#### Opcodes

```
  0: 0x0070 [0x45] LOAD_SCHEDULED_TASK: Load scheduler "fdo1" with entities [EventEntity, EventEntity], work=[200*, 0*]
  1: 0x0081 [0x1C] WAIT(100* ticks)
  2: 0x0084 [0x45] LOAD_SCHEDULED_TASK: Load scheduler "s020" with entities [LocalPlayer, LocalPlayer], work=[138*, 0*]
  3: 0x0095 [0x45] LOAD_SCHEDULED_TASK: Load scheduler "fdi1" with entities [EventEntity, EventEntity], work=[200*, 0*]
  4: 0x00A6 [0x55] WAIT_LOAD_SCHEDULER: Wait for scheduler "s020" with entities [LocalPlayer, LocalPlayer], work=138*
  5: 0x00B5 [0x00] END_REQSTACK()
```
