# 0x7FFFFFF0 - Zone Events

## Common Data

| Field            | Value                     |
|------------------|---------------------------|
| Zone             | Windurst Waters (ID: 238) |
| Block Size       | 31864 bytes               |
| Total Events     | 138                       |
| References Count | 745                       |

## List of Events

| Event ID                     | Entrypoint   |   Size |   Instructions |
|------------------------------|--------------|--------|----------------|
| [65535](#event-65535)        | 0x0000       |      1 |              1 |
| [65535.1](#event-655351)     | 0x0001       |     10 |              2 |
| [65534](#event-65534)        | 0x000B       |      1 |              1 |
| [65535.2](#event-655352)     | 0x000C       |      1 |              1 |
| [65535.3](#event-655353)     | 0x000D       |      6 |              2 |
| [65535.4](#event-655354)     | 0x0013       |      6 |              2 |
| [65535.5](#event-655355)     | 0x0019       |      6 |              2 |
| [65535.6](#event-655356)     | 0x001F       |      6 |              2 |
| [65535.7](#event-655357)     | 0x0025       |     13 |              3 |
| [31](#event-31)              | 0x0032       |      1 |              1 |
| [32](#event-32)              | 0x0033       |      1 |              1 |
| [33](#event-33)              | 0x0034       |      1 |              1 |
| [34](#event-34)              | 0x0035       |      1 |              1 |
| [35](#event-35)              | 0x0036       |      1 |              1 |
| [36](#event-36)              | 0x0037       |      1 |              1 |
| [37](#event-37)              | 0x0038       |      1 |              1 |
| [38](#event-38)              | 0x0039       |      1 |              1 |
| [39](#event-39)              | 0x003A       |      1 |              1 |
| [40](#event-40)              | 0x003B       |      1 |              1 |
| [65535.8](#event-655358)     | 0x003C       |     13 |              3 |
| [65535.9](#event-655359)     | 0x0049       |     13 |              3 |
| [65535.10](#event-6553510)   | 0x0056       |     13 |              3 |
| [65535.11](#event-6553511)   | 0x0063       |     13 |              3 |
| [65535.12](#event-6553512)   | 0x0070       |     13 |              3 |
| [65535.13](#event-6553513)   | 0x007D       |     13 |              3 |
| [65535.14](#event-6553514)   | 0x008A       |     13 |              3 |
| [65535.15](#event-6553515)   | 0x0097       |     13 |              3 |
| [65535.16](#event-6553516)   | 0x00A4       |     13 |              3 |
| [65535.17](#event-6553517)   | 0x00B1       |     13 |              3 |
| [65535.18](#event-6553518)   | 0x00BE       |     13 |              3 |
| [65535.19](#event-6553519)   | 0x00CB       |     13 |              3 |
| [65535.20](#event-6553520)   | 0x00D8       |     13 |              3 |
| [65535.21](#event-6553521)   | 0x00E5       |     13 |              3 |
| [65535.22](#event-6553522)   | 0x00F2       |     13 |              3 |
| [65535.23](#event-6553523)   | 0x00FF       |     13 |              3 |
| [65535.24](#event-6553524)   | 0x010C       |      1 |              1 |
| [65535.25](#event-6553525)   | 0x010D       |     13 |              3 |
| [65535.26](#event-6553526)   | 0x011A       |     13 |              3 |
| [65535.27](#event-6553527)   | 0x0127       |     13 |              3 |
| [65535.28](#event-6553528)   | 0x0134       |     13 |              3 |
| [11](#event-11)              | 0x0141       |      1 |              1 |
| [65535.29](#event-6553529)   | 0x0142       |     24 |              6 |
| [65535.30](#event-6553530)   | 0x015A       |     24 |              6 |
| [65535.31](#event-6553531)   | 0x0172       |     10 |              2 |
| [146](#event-146)            | 0x017C       |      1 |              1 |
| [65535.32](#event-6553532)   | 0x017D       |     16 |              3 |
| [65535.33](#event-6553533)   | 0x018D       |     10 |              2 |
| [65535.34](#event-6553534)   | 0x0197       |     16 |              3 |
| [65535.35](#event-6553535)   | 0x01A7       |     15 |              5 |
| [65535.36](#event-6553536)   | 0x01B6       |     12 |              4 |
| [65535.37](#event-6553537)   | 0x01C2       |     10 |              2 |
| [65535.38](#event-6553538)   | 0x01CC       |     10 |              2 |
| [65535.39](#event-6553539)   | 0x01D6       |     10 |              2 |
| [65535.40](#event-6553540)   | 0x01E0       |      6 |              2 |
| [65535.41](#event-6553541)   | 0x01E6       |      6 |              2 |
| [65535.42](#event-6553542)   | 0x01EC       |     10 |              2 |
| [65535.43](#event-6553543)   | 0x01F6       |     10 |              2 |
| [65535.44](#event-6553544)   | 0x0200       |     22 |              6 |
| [65535.45](#event-6553545)   | 0x0216       |     27 |              3 |
| [65535.46](#event-6553546)   | 0x0231       |     27 |              3 |
| [65535.47](#event-6553547)   | 0x024C       |      9 |              3 |
| [65535.48](#event-6553548)   | 0x0255       |     10 |              2 |
| [65535.49](#event-6553549)   | 0x025F       |     10 |              2 |
| [65535.50](#event-6553550)   | 0x0269       |     10 |              2 |
| [65535.51](#event-6553551)   | 0x0273       |     10 |              2 |
| [65535.52](#event-6553552)   | 0x027D       |    141 |             13 |
| [65535.53](#event-6553553)   | 0x030A       |     10 |              2 |
| [65535.54](#event-6553554)   | 0x0314       |     10 |              2 |
| [65535.55](#event-6553555)   | 0x031E       |     10 |              2 |
| [65535.56](#event-6553556)   | 0x0328       |     14 |              4 |
| [65535.57](#event-6553557)   | 0x0336       |     10 |              2 |
| [65535.58](#event-6553558)   | 0x0340       |     10 |              2 |
| [65535.59](#event-6553559)   | 0x034A       |     10 |              2 |
| [65535.60](#event-6553560)   | 0x0354       |     10 |              2 |
| [65535.61](#event-6553561)   | 0x035E       |      8 |              2 |
| [65535.62](#event-6553562)   | 0x0366       |      8 |              2 |
| [65535.63](#event-6553563)   | 0x036E       |      8 |              2 |
| [65535.64](#event-6553564)   | 0x0376       |      8 |              2 |
| [65535.65](#event-6553565)   | 0x037E       |      8 |              2 |
| [65535.66](#event-6553566)   | 0x0386       |      8 |              2 |
| [65535.67](#event-6553567)   | 0x038E       |      8 |              2 |
| [65535.68](#event-6553568)   | 0x0396       |      8 |              2 |
| [65535.69](#event-6553569)   | 0x039E       |      8 |              2 |
| [65535.70](#event-6553570)   | 0x03A6       |     14 |              4 |
| [65535.71](#event-6553571)   | 0x03B4       |     10 |              2 |
| [65535.72](#event-6553572)   | 0x03BE       |     10 |              2 |
| [65535.73](#event-6553573)   | 0x03C8       |     10 |              2 |
| [65535.74](#event-6553574)   | 0x03D2       |     10 |              2 |
| [65535.75](#event-6553575)   | 0x03DC       |     10 |              2 |
| [65535.76](#event-6553576)   | 0x03E6       |     10 |              2 |
| [65535.77](#event-6553577)   | 0x03F0       |     10 |              2 |
| [65535.78](#event-6553578)   | 0x03FA       |     10 |              2 |
| [65535.79](#event-6553579)   | 0x0404       |     10 |              2 |
| [65535.80](#event-6553580)   | 0x040E       |     10 |              2 |
| [65535.81](#event-6553581)   | 0x0418       |     10 |              2 |
| [65535.82](#event-6553582)   | 0x0422       |     15 |              5 |
| [65535.83](#event-6553583)   | 0x0431       |     10 |              2 |
| [65535.84](#event-6553584)   | 0x043B       |     10 |              2 |
| [65535.85](#event-6553585)   | 0x0445       |     19 |              7 |
| [65535.86](#event-6553586)   | 0x0458       |     10 |              2 |
| [65535.87](#event-6553587)   | 0x0462       |     14 |              4 |
| [906](#event-906)            | 0x0470       |   1646 |            201 |
| [65535.88](#event-6553588)   | 0x0ADE       |     10 |              2 |
| [65535.89](#event-6553589)   | 0x0AE8       |     10 |              2 |
| [65535.90](#event-6553590)   | 0x0AF2       |     10 |              2 |
| [65535.91](#event-6553591)   | 0x0AFC       |     14 |              4 |
| [65535.92](#event-6553592)   | 0x0B0A       |     37 |              6 |
| [65535.93](#event-6553593)   | 0x0B2F       |      6 |              2 |
| [907](#event-907)            | 0x0B35       |   3724 |            570 |
| [908](#event-908)            | 0x19C1       |   1869 |            286 |
| [65535.94](#event-6553594)   | 0x210E       |     23 |              5 |
| [65535.95](#event-6553595)   | 0x2125       |  18537 |           3185 |
| [65535.96](#event-6553596)   | 0x698E       |     10 |              2 |
| [65535.97](#event-6553597)   | 0x6998       |     15 |              3 |
| [65535.98](#event-6553598)   | 0x69A7       |      3 |              2 |
| [65535.99](#event-6553599)   | 0x69AA       |      3 |              2 |
| [65535.100](#event-65535100) | 0x69AD       |      6 |              2 |
| [65535.101](#event-65535101) | 0x69B3       |      6 |              2 |
| [65535.102](#event-65535102) | 0x69B9       |     41 |             10 |
| [65535.103](#event-65535103) | 0x69E2       |      9 |              3 |
| [65535.104](#event-65535104) | 0x69EB       |    353 |             41 |
| [65535.105](#event-65535105) | 0x6B4C       |     14 |              4 |
| [65535.106](#event-65535106) | 0x6B5A       |      4 |              2 |
| [65535.107](#event-65535107) | 0x6B5E       |      7 |              3 |
| [65535.108](#event-65535108) | 0x6B65       |      7 |              3 |
| [65535.109](#event-65535109) | 0x6B6C       |     37 |              5 |
| [65535.110](#event-65535110) | 0x6B91       |     37 |              5 |
| [1156](#event-1156)          | 0x6BB6       |      1 |              1 |
| [65535.111](#event-65535111) | 0x6BB7       |     27 |              5 |
| [65535.112](#event-65535112) | 0x6BD2       |     42 |              6 |
| [65535.113](#event-65535113) | 0x6BFC       |     14 |              4 |
| [65535.114](#event-65535114) | 0x6C0A       |    170 |             40 |
| [65535.115](#event-65535115) | 0x6CB4       |    353 |             41 |
| [65535.116](#event-65535116) | 0x6E15       |     15 |              5 |
| [65535.117](#event-65535117) | 0x6E24       |     41 |              9 |
| [65535.118](#event-65535118) | 0x6E4D       |     29 |              5 |
| [65535.119](#event-65535119) | 0x6E6A       |     24 |              4 |
| [65535.120](#event-65535120) | 0x6E82       |     24 |              4 |

## DAT References (imed_data)

|   Index | Hex Value   |   Dec Value |
|---------|-------------|-------------|
|       0 | 0x009A      |         154 |
|       1 | 0xFFFFF98B  |  4294965643 |
|       2 | 0x0000      |           0 |
|       3 | 0x0B83      |        2947 |
|       4 | 0xFFFF65EF  |  4294927855 |
|       5 | 0x3AEA5     |      241317 |
|       6 | 0xFFFFEC79  |  4294962297 |
|       7 | 0x0465      |        1125 |
|       8 | 0xFFFEF4BE  |  4294898878 |
|       9 | 0xFFFDBC95  |  4294818965 |
|      10 | 0xFFFFF830  |  4294965296 |
|      11 | 0x0AF7      |        2807 |
|      12 | 0xFFFE2DA5  |  4294847909 |
|      13 | 0xF06A      |       61546 |
|      14 | 0x0B30      |        2864 |
|      15 | 0xFFFEEC8A  |  4294896778 |
|      16 | 0x0BEB      |        3051 |
|      17 | 0xFFFFDBDF  |  4294958047 |
|      18 | 0x042F      |        1071 |
|      19 | 0xFFFF2229  |  4294910505 |
|      20 | 0xA16E      |       41326 |
|      21 | 0xFFFFF255  |  4294963797 |
|      22 | 0x05D7      |        1495 |
|      23 | 0x1F01      |        7937 |
|      24 | 0xFFFD04EE  |  4294771950 |
|      25 | 0xFFFFEF67  |  4294963047 |
|      26 | 0x0EAF      |        3759 |
|      27 | 0x0228      |         552 |
|      28 | 0xFFFD8206  |  4294803974 |
|      29 | 0xFFFFF060  |  4294963296 |
|      30 | 0x0125      |         293 |
|      31 | 0x4C01      |       19457 |
|      32 | 0xFFFCD680  |  4294760064 |
|      33 | 0xFFFFE13E  |  4294959422 |
|      34 | 0x0FAB      |        4011 |
|      35 | 0x28173     |      164211 |
|      36 | 0x2CE8E     |      183950 |
|      37 | 0x036F      |         879 |
|      38 | 0xFFFEF06F  |  4294897775 |
|      39 | 0x0E73      |        3699 |
|      40 | 0xFFFFF254  |  4294963796 |
|      41 | 0x0377      |         887 |
|      42 | 0xFFFD2773  |  4294780787 |
|      43 | 0xFFFE3E5C  |  4294852188 |
|      44 | 0xFFFFD85B  |  4294957147 |
|      45 | 0x0669      |        1641 |
|      46 | 0xFFFCBA44  |  4294752836 |
|      47 | 0xFFFE0D65  |  4294839653 |
|      48 | 0xFFFFF724  |  4294965028 |
|      49 | 0x0D31      |        3377 |
|      50 | 0xFFFFA52A  |  4294944042 |
|      51 | 0x169DC     |       92636 |
|      52 | 0xFFFFEB7F  |  4294962047 |
|      53 | 0x0BE2      |        3042 |
|      54 | 0xFFFF2116  |  4294910230 |
|      55 | 0x164D2     |       91346 |
|      56 | 0x0D1B      |        3355 |
|      57 | 0xFFFFA5D6  |  4294944214 |
|      58 | 0x19775     |      104309 |
|      59 | 0x082A      |        2090 |
|      60 | 0xFFFF374C  |  4294915916 |
|      61 | 0x1C2B7     |      115383 |
|      62 | 0xFFFFD40F  |  4294956047 |
|      63 | 0x0A73      |        2675 |
|      64 | 0xFFFF615D  |  4294926685 |
|      65 | 0x19065     |      102501 |
|      66 | 0x0394      |         916 |
|      67 | 0x1ED79     |      126329 |
|      68 | 0x277E7     |      161767 |
|      69 | 0xFFFFE98B  |  4294961547 |
|      70 | 0x0C97      |        3223 |
|      71 | 0xFFFF5083  |  4294922371 |
|      72 | 0xFFFEF479  |  4294898809 |
|      73 | 0xFFFFF50D  |  4294964493 |
|      74 | 0x02C7      |         711 |
|      75 | 0xFFFC4EB5  |  4294725301 |
|      76 | 0xFFFB5AF0  |  4294662896 |
|      77 | 0xFFFFEF66  |  4294963046 |
|      78 | 0x0437      |        1079 |
|      79 | 0xFFFC37DF  |  4294719455 |
|      80 | 0xFFFC601E  |  4294729758 |
|      81 | 0x088F      |        2191 |
|      82 | 0xFFFF63D4  |  4294927316 |
|      83 | 0x1896E     |      100718 |
|      84 | 0x040D      |        1037 |
|      85 | 0x000D      |          13 |
|      86 | 0xFFFF63BB  |  4294927291 |
|      87 | 0x166C1     |       91841 |
|      88 | 0xFFFF6494  |  4294927508 |
|      89 | 0x169E1     |       92641 |
|      90 | 0xFFFFEC78  |  4294962296 |
|      91 | 0x03C7      |         967 |
|      92 | 0xFFFF63F4  |  4294927348 |
|      93 | 0x1504A     |       86090 |
|      94 | 0xFFFF26E0  |  4294911712 |
|      95 | 0x37531     |      226609 |
|      96 | 0xFFFFEC8A  |  4294962314 |
|      97 | 0x0BCF      |        3023 |
|      98 | 0x6064      |       24676 |
|      99 | 0xFFFCF447  |  4294767687 |
|     100 | 0xFFFFD9EB  |  4294957547 |
|     101 | 0x0820      |        2080 |
|     102 | 0x3553      |       13651 |
|     103 | 0xFFFCFC0E  |  4294769678 |
|     104 | 0xFFFFD9EA  |  4294957546 |
|     105 | 0x07FF      |        2047 |
|     106 | 0x4B1F      |       19231 |
|     107 | 0xFFFCF4E7  |  4294767847 |
|     108 | 0x3F5D      |       16221 |
|     109 | 0xFFFCF83A  |  4294768698 |
|     110 | 0xFFFF9D0E  |  4294941966 |
|     111 | 0x19720     |      104224 |
|     112 | 0x0752      |        1874 |
|     113 | 0x29913     |      170259 |
|     114 | 0x264AB     |      156843 |
|     115 | 0xFFFFFB1F  |  4294966047 |
|     116 | 0x0726      |        1830 |
|     117 | 0x200EF     |      131311 |
|     118 | 0x2678B     |      157579 |
|     119 | 0x0525      |        1317 |
|     120 | 0xFFFEFC77  |  4294900855 |
|     121 | 0xFFFFDC5F  |  4294958175 |
|     122 | 0xFFFFDBDE  |  4294958046 |
|     123 | 0x0E86      |        3718 |
|     124 | 0xFFFEF52B  |  4294898987 |
|     125 | 0xFFFFDBFB  |  4294958075 |
|     126 | 0xFFFFDAB2  |  4294957746 |
|     127 | 0x0FE9      |        4073 |
|     128 | 0x0E90      |        3728 |
|     129 | 0x001E      |          30 |
|     130 | 0xFFFC3EBA  |  4294721210 |
|     131 | 0xFFFB5070  |  4294660208 |
|     132 | 0xFFFFEB3E  |  4294961982 |
|     133 | 0x05A6      |        1446 |
|     134 | 0xFFFF17AE  |  4294907822 |
|     135 | 0x56A2      |       22178 |
|     136 | 0x012C      |         300 |
|     137 | 0x2A55      |       10837 |
|     138 | 0xFFFD8FBF  |  4294807487 |
|     139 | 0x0E58      |        3672 |
|     140 | 0x33BB      |       13243 |
|     141 | 0xFFFD034E  |  4294771534 |
|     142 | 0x063B      |        1595 |
|     143 | 0x00D3      |         211 |
|     144 | 0x0032      |          50 |
|     145 | 0x0045      |          69 |
|     146 | 0x00C8      |         200 |
|     147 | 0x0096      |         150 |
|     148 | 0x321F      |       12831 |
|     149 | 0xFFFD04F9  |  4294771961 |
|     150 | 0x01F6      |         502 |
|     151 | 0xFFFD0480  |  4294771840 |
|     152 | 0xFFFE2E1C  |  4294848028 |
|     153 | 0x03ED      |        1005 |
|     154 | 0xFFFD145E  |  4294775902 |
|     155 | 0xFFFE50BD  |  4294856893 |
|     156 | 0xFFFFD85A  |  4294957146 |
|     157 | 0x0C9C      |        3228 |
|     158 | 0xFFFD14B6  |  4294775990 |
|     159 | 0xFFFE44D1  |  4294853841 |
|     160 | 0x0AE9      |        2793 |
|     161 | 0xFFFD13F6  |  4294775798 |
|     162 | 0xFFFE5FE8  |  4294860776 |
|     163 | 0x3053      |       12371 |
|     164 | 0xFFFCFEE0  |  4294770400 |
|     165 | 0x0031      |          49 |
|     166 | 0x34DE      |       13534 |
|     167 | 0xFFFCF5F1  |  4294768113 |
|     168 | 0x08EB      |        2283 |
|     169 | 0x25CA5     |      154789 |
|     170 | 0x3668C     |      222860 |
|     171 | 0xFFFFF63C  |  4294964796 |
|     172 | 0x07E8      |        2024 |
|     173 | 0x385CC     |      230860 |
|     174 | 0x3A50C     |      238860 |
|     175 | 0x244F3     |      148723 |
|     176 | 0x3B4DA     |      242906 |
|     177 | 0xFFFFE13D  |  4294959421 |
|     178 | 0x385E5     |      230885 |
|     179 | 0x29EA5     |      171685 |
|     180 | 0x2B35B     |      176987 |
|     181 | 0xFFFFF5D7  |  4294964695 |
|     182 | 0x1E460     |      124000 |
|     183 | 0x3584F     |      219215 |
|     184 | 0xFFFFA154  |  4294943060 |
|     185 | 0x18974     |      100724 |
|     186 | 0xFFFCFC9D  |  4294769821 |
|     187 | 0x3A4E      |       14926 |
|     188 | 0x0804      |        2052 |
|     189 | 0x3CA6      |       15526 |
|     190 | 0x562A      |       22058 |
|     191 | 0xFFFD1206  |  4294775302 |
|     192 | 0xFFFFEB7E  |  4294962046 |
|     193 | 0x02AB      |         683 |
|     194 | 0xFFFE5329  |  4294857513 |
|     195 | 0x31357     |      201559 |
|     196 | 0xFFFFCD39  |  4294954297 |
|     197 | 0x0C23      |        3107 |
|     198 | 0xFFFE619E  |  4294861214 |
|     199 | 0x30E19     |      200217 |
|     200 | 0xFFFFD120  |  4294955296 |
|     201 | 0x0F41      |        3905 |
|     202 | 0xFFFE672C  |  4294862636 |
|     203 | 0x3092F     |      198959 |
|     204 | 0x0D8D      |        3469 |
|     205 | 0xFFFF2497  |  4294911127 |
|     206 | 0x5BD2      |       23506 |
|     207 | 0x0060      |          96 |
|     208 | 0xFFFD04DD  |  4294771933 |
|     209 | 0xFFFE219A  |  4294844826 |
|     210 | 0x008F      |         143 |
|     211 | 0xFFFD0768  |  4294772584 |
|     212 | 0xFFFE1C85  |  4294843525 |
|     213 | 0x0C39      |        3129 |
|     214 | 0xFFFF982B  |  4294940715 |
|     215 | 0x19BF9     |      105465 |
|     216 | 0x062D      |        1581 |
|     217 | 0xFFFF9E9E  |  4294942366 |
|     218 | 0x18FC4     |      102340 |
|     219 | 0x34AD      |       13485 |
|     220 | 0xFFFD011D  |  4294770973 |
|     221 | 0x0605      |        1541 |
|     222 | 0x4265      |       16997 |
|     223 | 0xFFFD193E  |  4294777150 |
|     224 | 0x0F91      |        3985 |
|     225 | 0x0028      |          40 |
|     226 | 0x61A7      |       24999 |
|     227 | 0xFFFD118B  |  4294775179 |
|     228 | 0x4042      |       16450 |
|     229 | 0xFFFD0052  |  4294770770 |
|     230 | 0x07F0      |        2032 |
|     231 | 0x3C84      |       15492 |
|     232 | 0xFFFCFF41  |  4294770497 |
|     233 | 0x02D7      |         727 |
|     234 | 0x02D8      |         728 |
|     235 | 0x0181      |         385 |
|     236 | 0x0013      |          19 |
|     237 | 0xFFFEE6E2  |  4294895330 |
|     238 | 0xFFFFF7E0  |  4294965216 |
|     239 | 0x0203      |         515 |
|     240 | 0x00C1      |         193 |
|     241 | 0x003C      |          60 |
|     242 | 0x2CEF      |       11503 |
|     243 | 0x2CF0      |       11504 |
|     244 | 0x2CF1      |       11505 |
|     245 | 0x2CF2      |       11506 |
|     246 | 0x2CF3      |       11507 |
|     247 | 0x00B4      |         180 |
|     248 | 0x0050      |          80 |
|     249 | 0x2CF4      |       11508 |
|     250 | 0x2CF5      |       11509 |
|     251 | 0x2CF6      |       11510 |
|     252 | 0x2CF7      |       11511 |
|     253 | 0x000C      |          12 |
|     254 | 0x0001      |           1 |
|     255 | 0x0008      |           8 |
|     256 | 0x2CF8      |       11512 |
|     257 | 0x2CF9      |       11513 |
|     258 | 0x2CFA      |       11514 |
|     259 | 0x0029      |          41 |
|     260 | 0x2CFB      |       11515 |
|     261 | 0x2CFC      |       11516 |
|     262 | 0x2CFD      |       11517 |
|     263 | 0x2CFE      |       11518 |
|     264 | 0x002A      |          42 |
|     265 | 0x2CFF      |       11519 |
|     266 | 0x2D00      |       11520 |
|     267 | 0x2D01      |       11521 |
|     268 | 0x005A      |          90 |
|     269 | 0x2D02      |       11522 |
|     270 | 0x2D03      |       11523 |
|     271 | 0x2D04      |       11524 |
|     272 | 0x2D05      |       11525 |
|     273 | 0x2D06      |       11526 |
|     274 | 0x2D07      |       11527 |
|     275 | 0x2D08      |       11528 |
|     276 | 0xFFFEF763  |  4294899555 |
|     277 | 0xFFFFE1B9  |  4294959545 |
|     278 | 0x00CA      |         202 |
|     279 | 0xFFFEFE9B  |  4294901403 |
|     280 | 0xFFFFD9DE  |  4294957534 |
|     281 | 0x00E5      |         229 |
|     282 | 0xFFFEFBEE  |  4294900718 |
|     283 | 0xFFFFD86A  |  4294957162 |
|     284 | 0x0F19      |        3865 |
|     285 | 0xFFFEFDE2  |  4294901218 |
|     286 | 0xFFFFDB4E  |  4294957902 |
|     287 | 0x00CB      |         203 |
|     288 | 0x018A      |         394 |
|     289 | 0x001B      |          27 |
|     290 | 0xFFFF9A4D  |  4294941261 |
|     291 | 0x18D6A     |      101738 |
|     292 | 0x09F2      |        2546 |
|     293 | 0x00C2      |         194 |
|     294 | 0x0151      |         337 |
|     295 | 0x2DC8      |       11720 |
|     296 | 0x2DC9      |       11721 |
|     297 | 0x2DCA      |       11722 |
|     298 | 0x2DCB      |       11723 |
|     299 | 0x0002      |           2 |
|     300 | 0x2DCC      |       11724 |
|     301 | 0x0003      |           3 |
|     302 | 0x2DCD      |       11725 |
|     303 | 0x0004      |           4 |
|     304 | 0x2DCE      |       11726 |
|     305 | 0x0005      |           5 |
|     306 | 0x2DD1      |       11729 |
|     307 | 0x0006      |           6 |
|     308 | 0x2DD2      |       11730 |
|     309 | 0x0007      |           7 |
|     310 | 0x2DD3      |       11731 |
|     311 | 0x2DD4      |       11732 |
|     312 | 0x0009      |           9 |
|     313 | 0x2DD5      |       11733 |
|     314 | 0x000A      |          10 |
|     315 | 0x2DCF      |       11727 |
|     316 | 0x000B      |          11 |
|     317 | 0x2DD0      |       11728 |
|     318 | 0x2DD6      |       11734 |
|     319 | 0x2DD7      |       11735 |
|     320 | 0x2DD8      |       11736 |
|     321 | 0x0078      |         120 |
|     322 | 0x00A3      |         163 |
|     323 | 0x2DD9      |       11737 |
|     324 | 0x2DDA      |       11738 |
|     325 | 0x2DDB      |       11739 |
|     326 | 0xFFFFB3CD  |  4294947789 |
|     327 | 0x1B6D9     |      112345 |
|     328 | 0xFFFFE796  |  4294961046 |
|     329 | 0x0E76      |        3702 |
|     330 | 0x2DDC      |       11740 |
|     331 | 0x2DDD      |       11741 |
|     332 | 0x2DDF      |       11743 |
|     333 | 0x2DE0      |       11744 |
|     334 | 0x2DE1      |       11745 |
|     335 | 0x2DE2      |       11746 |
|     336 | 0x2DE3      |       11747 |
|     337 | 0x2DE4      |       11748 |
|     338 | 0x2DE5      |       11749 |
|     339 | 0x2DE6      |       11750 |
|     340 | 0x2DE7      |       11751 |
|     341 | 0x2DE8      |       11752 |
|     342 | 0x2DE9      |       11753 |
|     343 | 0x2DEA      |       11754 |
|     344 | 0x2DEB      |       11755 |
|     345 | 0x2DEC      |       11756 |
|     346 | 0x2DED      |       11757 |
|     347 | 0x0018      |          24 |
|     348 | 0x1104      |        4356 |
|     349 | 0x1158      |        4440 |
|     350 | 0x11CB      |        4555 |
|     351 | 0x1416      |        5142 |
|     352 | 0x11CC      |        4556 |
|     353 | 0x118E      |        4494 |
|     354 | 0x2DEE      |       11758 |
|     355 | 0x2DEF      |       11759 |
|     356 | 0x2DF0      |       11760 |
|     357 | 0x2DF1      |       11761 |
|     358 | 0x2DF2      |       11762 |
|     359 | 0x2DF3      |       11763 |
|     360 | 0x2DF4      |       11764 |
|     361 | 0x2DF5      |       11765 |
|     362 | 0x2DF6      |       11766 |
|     363 | 0xFFFF95BF  |  4294940095 |
|     364 | 0x19A53     |      105043 |
|     365 | 0x0F88      |        3976 |
|     366 | 0x074E      |        1870 |
|     367 | 0x0097      |         151 |
|     368 | 0x2DF7      |       11767 |
|     369 | 0x2E03      |       11779 |
|     370 | 0x2E0F      |       11791 |
|     371 | 0x2E1B      |       11803 |
|     372 | 0x2DF8      |       11768 |
|     373 | 0x2E04      |       11780 |
|     374 | 0x2E10      |       11792 |
|     375 | 0x2E1C      |       11804 |
|     376 | 0x2DF9      |       11769 |
|     377 | 0x2E05      |       11781 |
|     378 | 0x2E11      |       11793 |
|     379 | 0x2E1D      |       11805 |
|     380 | 0x2DFA      |       11770 |
|     381 | 0x2E06      |       11782 |
|     382 | 0x2E12      |       11794 |
|     383 | 0x2E1E      |       11806 |
|     384 | 0x2DFD      |       11773 |
|     385 | 0x2E09      |       11785 |
|     386 | 0x2E15      |       11797 |
|     387 | 0x2E21      |       11809 |
|     388 | 0x2DFE      |       11774 |
|     389 | 0x2E0A      |       11786 |
|     390 | 0x2E16      |       11798 |
|     391 | 0x2E22      |       11810 |
|     392 | 0x2DFF      |       11775 |
|     393 | 0x2E0B      |       11787 |
|     394 | 0x2E17      |       11799 |
|     395 | 0x2E23      |       11811 |
|     396 | 0x2E00      |       11776 |
|     397 | 0x2E0C      |       11788 |
|     398 | 0x2E18      |       11800 |
|     399 | 0x2E24      |       11812 |
|     400 | 0x2E01      |       11777 |
|     401 | 0x2E0D      |       11789 |
|     402 | 0x2E19      |       11801 |
|     403 | 0x2E25      |       11813 |
|     404 | 0x2DFB      |       11771 |
|     405 | 0x2E07      |       11783 |
|     406 | 0x2E13      |       11795 |
|     407 | 0x2E1F      |       11807 |
|     408 | 0x2DFC      |       11772 |
|     409 | 0x2E08      |       11784 |
|     410 | 0x2E14      |       11796 |
|     411 | 0x2E20      |       11808 |
|     412 | 0x2E02      |       11778 |
|     413 | 0x2E0E      |       11790 |
|     414 | 0x2E1A      |       11802 |
|     415 | 0x2E26      |       11814 |
|     416 | 0x2E27      |       11815 |
|     417 | 0x2E33      |       11827 |
|     418 | 0x2E28      |       11816 |
|     419 | 0x2E34      |       11828 |
|     420 | 0x2E29      |       11817 |
|     421 | 0x2E35      |       11829 |
|     422 | 0x2E2A      |       11818 |
|     423 | 0x2E36      |       11830 |
|     424 | 0x2E2D      |       11821 |
|     425 | 0x2E39      |       11833 |
|     426 | 0x2E2E      |       11822 |
|     427 | 0x2E3A      |       11834 |
|     428 | 0x2E2F      |       11823 |
|     429 | 0x2E3B      |       11835 |
|     430 | 0x2E30      |       11824 |
|     431 | 0x2E3C      |       11836 |
|     432 | 0x2E31      |       11825 |
|     433 | 0x2E3D      |       11837 |
|     434 | 0x2E2B      |       11819 |
|     435 | 0x2E37      |       11831 |
|     436 | 0x2E2C      |       11820 |
|     437 | 0x2E38      |       11832 |
|     438 | 0x2E32      |       11826 |
|     439 | 0x2E3E      |       11838 |
|     440 | 0x2E3F      |       11839 |
|     441 | 0x2E40      |       11840 |
|     442 | 0x2E41      |       11841 |
|     443 | 0x2E42      |       11842 |
|     444 | 0x2E43      |       11843 |
|     445 | 0x2E44      |       11844 |
|     446 | 0x2E45      |       11845 |
|     447 | 0x2E46      |       11846 |
|     448 | 0x2E47      |       11847 |
|     449 | 0x2E48      |       11848 |
|     450 | 0x2E49      |       11849 |
|     451 | 0x2E4A      |       11850 |
|     452 | 0x2E4B      |       11851 |
|     453 | 0x2E4C      |       11852 |
|     454 | 0x2E4D      |       11853 |
|     455 | 0x2E4E      |       11854 |
|     456 | 0x2E4F      |       11855 |
|     457 | 0x2E5B      |       11867 |
|     458 | 0x0020      |          32 |
|     459 | 0x2E67      |       11879 |
|     460 | 0x2E50      |       11856 |
|     461 | 0x2E5C      |       11868 |
|     462 | 0x2E68      |       11880 |
|     463 | 0x2E51      |       11857 |
|     464 | 0x2E5D      |       11869 |
|     465 | 0x2E69      |       11881 |
|     466 | 0x2E52      |       11858 |
|     467 | 0x2E5E      |       11870 |
|     468 | 0x2E6A      |       11882 |
|     469 | 0x2E55      |       11861 |
|     470 | 0x2E61      |       11873 |
|     471 | 0x2E6D      |       11885 |
|     472 | 0x2E56      |       11862 |
|     473 | 0x2E62      |       11874 |
|     474 | 0x2E6E      |       11886 |
|     475 | 0x2E57      |       11863 |
|     476 | 0x2E63      |       11875 |
|     477 | 0x2E6F      |       11887 |
|     478 | 0x2E58      |       11864 |
|     479 | 0x2E64      |       11876 |
|     480 | 0x2E70      |       11888 |
|     481 | 0x2E59      |       11865 |
|     482 | 0x2E65      |       11877 |
|     483 | 0x2E71      |       11889 |
|     484 | 0x2E53      |       11859 |
|     485 | 0x2E5F      |       11871 |
|     486 | 0x2E6B      |       11883 |
|     487 | 0x2E54      |       11860 |
|     488 | 0x2E60      |       11872 |
|     489 | 0x2E6C      |       11884 |
|     490 | 0x2E5A      |       11866 |
|     491 | 0x2E66      |       11878 |
|     492 | 0x2E72      |       11890 |
|     493 | 0x2E73      |       11891 |
|     494 | 0x2E74      |       11892 |
|     495 | 0xFFFF9978  |  4294941048 |
|     496 | 0x18136     |       98614 |
|     497 | 0xFFFFB58D  |  4294948237 |
|     498 | 0x1BE69     |      114281 |
|     499 | 0x005F      |          95 |
|     500 | 0x0064      |         100 |
|     501 | 0x0069      |         105 |
|     502 | 0x0052      |          82 |
|     503 | 0x0057      |          87 |
|     504 | 0x005C      |          92 |
|     505 | 0x0059      |          89 |
|     506 | 0x005D      |          93 |
|     507 | 0x0061      |          97 |
|     508 | 0x0012      |          18 |
|     509 | 0x0014      |          20 |
|     510 | 0x0017      |          23 |
|     511 | 0x000F      |          15 |
|     512 | 0x000E      |          14 |
|     513 | 0x001F      |          31 |
|     514 | 0x0010      |          16 |
|     515 | 0x0015      |          21 |
|     516 | 0x018D      |         397 |
|     517 | 0x0175      |         373 |
|     518 | 0x0170      |         368 |
|     519 | 0x0171      |         369 |
|     520 | 0x014C      |         332 |
|     521 | 0x01C1      |         449 |
|     522 | 0x027C      |         636 |
|     523 | 0x027B      |         635 |
|     524 | 0x027D      |         637 |
|     525 | 0x02D3      |         723 |
|     526 | 0x0321      |         801 |
|     527 | 0x0326      |         806 |
|     528 | 0x01E1      |         481 |
|     529 | 0x0343      |         835 |
|     530 | 0x0386      |         902 |
|     531 | 0x0388      |         904 |
|     532 | 0x0361      |         865 |
|     533 | 0x0387      |         903 |
|     534 | 0x038A      |         906 |
|     535 | 0x003F      |          63 |
|     536 | 0x0282      |         642 |
|     537 | 0x0283      |         643 |
|     538 | 0x0288      |         648 |
|     539 | 0x0289      |         649 |
|     540 | 0x028A      |         650 |
|     541 | 0x028B      |         651 |
|     542 | 0x029E      |         670 |
|     543 | 0x0019      |          25 |
|     544 | 0x00C6      |         198 |
|     545 | 0x00B5      |         181 |
|     546 | 0x008C      |         140 |
|     547 | 0x008E      |         142 |
|     548 | 0x007A      |         122 |
|     549 | 0x014B      |         331 |
|     550 | 0x0148      |         328 |
|     551 | 0x0166      |         358 |
|     552 | 0x017A      |         378 |
|     553 | 0x0182      |         386 |
|     554 | 0x0183      |         387 |
|     555 | 0x0192      |         402 |
|     556 | 0x01DF      |         479 |
|     557 | 0x01E9      |         489 |
|     558 | 0x001C      |          28 |
|     559 | 0x00E6      |         230 |
|     560 | 0x00EB      |         235 |
|     561 | 0x00F5      |         245 |
|     562 | 0x007E      |         126 |
|     563 | 0x007F      |         127 |
|     564 | 0x00F3      |         243 |
|     565 | 0x00F4      |         244 |
|     566 | 0x00E0      |         224 |
|     567 | 0x00E9      |         233 |
|     568 | 0x009E      |         158 |
|     569 | 0x009D      |         157 |
|     570 | 0x00E2      |         226 |
|     571 | 0x00E1      |         225 |
|     572 | 0x014F      |         335 |
|     573 | 0x014E      |         334 |
|     574 | 0x0167      |         359 |
|     575 | 0x0169      |         361 |
|     576 | 0x016A      |         362 |
|     577 | 0x0168      |         360 |
|     578 | 0x0133      |         307 |
|     579 | 0x0174      |         372 |
|     580 | 0x018C      |         396 |
|     581 | 0x0194      |         404 |
|     582 | 0x0195      |         405 |
|     583 | 0x0178      |         376 |
|     584 | 0x0240      |         576 |
|     585 | 0x0197      |         407 |
|     586 | 0x0198      |         408 |
|     587 | 0x01A3      |         419 |
|     588 | 0x019E      |         414 |
|     589 | 0x0246      |         582 |
|     590 | 0x0247      |         583 |
|     591 | 0x0248      |         584 |
|     592 | 0x024B      |         587 |
|     593 | 0x024A      |         586 |
|     594 | 0x0011      |          17 |
|     595 | 0x024F      |         591 |
|     596 | 0x01C3      |         451 |
|     597 | 0x01C4      |         452 |
|     598 | 0x01EF      |         495 |
|     599 | 0x01F0      |         496 |
|     600 | 0x001A      |          26 |
|     601 | 0x0095      |         149 |
|     602 | 0x001D      |          29 |
|     603 | 0x0073      |         115 |
|     604 | 0x0034      |          52 |
|     605 | 0x0024      |          36 |
|     606 | 0x005E      |          94 |
|     607 | 0x0072      |         114 |
|     608 | 0x006C      |         108 |
|     609 | 0x003A      |          58 |
|     610 | 0x0016      |          22 |
|     611 | 0x0035      |          53 |
|     612 | 0x0085      |         133 |
|     613 | 0x0081      |         129 |
|     614 | 0x0023      |          35 |
|     615 | 0x0033      |          51 |
|     616 | 0x0082      |         130 |
|     617 | 0x0039      |          57 |
|     618 | 0x0038      |          56 |
|     619 | 0x0036      |          54 |
|     620 | 0x0083      |         131 |
|     621 | 0x00A2      |         162 |
|     622 | 0x0022      |          34 |
|     623 | 0x0021      |          33 |
|     624 | 0x0065      |         101 |
|     625 | 0x0086      |         134 |
|     626 | 0x0062      |          98 |
|     627 | 0x008D      |         141 |
|     628 | 0x0037      |          55 |
|     629 | 0x008A      |         138 |
|     630 | 0x008B      |         139 |
|     631 | 0x002B      |          43 |
|     632 | 0x0067      |         103 |
|     633 | 0x0030      |          48 |
|     634 | 0x002D      |          45 |
|     635 | 0x00A1      |         161 |
|     636 | 0x0066      |         102 |
|     637 | 0x0075      |         117 |
|     638 | 0x0068      |         104 |
|     639 | 0x007B      |         123 |
|     640 | 0x0077      |         119 |
|     641 | 0x01FE      |         510 |
|     642 | 0x009F      |         159 |
|     643 | 0x00A4      |         164 |
|     644 | 0x00A9      |         169 |
|     645 | 0x00AC      |         172 |
|     646 | 0x00B2      |         178 |
|     647 | 0x00B0      |         176 |
|     648 | 0x013D      |         317 |
|     649 | 0x0108      |         264 |
|     650 | 0x010C      |         268 |
|     651 | 0x0100      |         256 |
|     652 | 0x00FB      |         251 |
|     653 | 0x00B8      |         184 |
|     654 | 0x011C      |         284 |
|     655 | 0x0041      |          65 |
|     656 | 0x0042      |          66 |
|     657 | 0x0047      |          71 |
|     658 | 0x0160      |         352 |
|     659 | 0x0043      |          67 |
|     660 | 0x0048      |          72 |
|     661 | 0x004B      |          75 |
|     662 | 0x004C      |          76 |
|     663 | 0x004D      |          77 |
|     664 | 0x005B      |          91 |
|     665 | 0x0058      |          88 |
|     666 | 0x0053      |          83 |
|     667 | 0x0054      |          84 |
|     668 | 0x0161      |         353 |
|     669 | 0x015C      |         348 |
|     670 | 0x016D      |         365 |
|     671 | 0x00C5      |         197 |
|     672 | 0x00C3      |         195 |
|     673 | 0x00C7      |         199 |
|     674 | 0x015E      |         350 |
|     675 | 0x00C4      |         196 |
|     676 | 0x016E      |         366 |
|     677 | 0x00D0      |         208 |
|     678 | 0x00CD      |         205 |
|     679 | 0x00D2      |         210 |
|     680 | 0x00D8      |         216 |
|     681 | 0x00D5      |         213 |
|     682 | 0x00D6      |         214 |
|     683 | 0x013B      |         315 |
|     684 | 0x0136      |         310 |
|     685 | 0x013A      |         314 |
|     686 | 0x0137      |         311 |
|     687 | 0x016F      |         367 |
|     688 | 0x0138      |         312 |
|     689 | 0x0139      |         313 |
|     690 | 0x0091      |         145 |
|     691 | 0x009B      |         155 |
|     692 | 0x0099      |         153 |
|     693 | 0x0093      |         147 |
|     694 | 0x0092      |         146 |
|     695 | 0x0098      |         152 |
|     696 | 0x0071      |         113 |
|     697 | 0x00E8      |         232 |
|     698 | 0x00DD      |         221 |
|     699 | 0x00F8      |         248 |
|     700 | 0x00F1      |         241 |
|     701 | 0x0124      |         292 |
|     702 | 0x012E      |         302 |
|     703 | 0x0129      |         297 |
|     704 | 0x0122      |         290 |
|     705 | 0x0132      |         306 |
|     706 | 0x0126      |         294 |
|     707 | 0x0155      |         341 |
|     708 | 0x0025      |          37 |
|     709 | 0x007D      |         125 |
|     710 | 0x0079      |         121 |
|     711 | 0x007C      |         124 |
|     712 | 0x0074      |         116 |
|     713 | 0x00EC      |         236 |
|     714 | 0x019C      |         412 |
|     715 | 0x0193      |         403 |
|     716 | 0x01C6      |         454 |
|     717 | 0x01C7      |         455 |
|     718 | 0x2F1D      |       12061 |
|     719 | 0xFFFD94FB  |  4294808827 |
|     720 | 0xFFFFEDA5  |  4294962597 |
|     721 | 0x0DE4      |        3556 |
|     722 | 0xFFFCD8BB  |  4294760635 |
|     723 | 0xFFFE42E9  |  4294853353 |
|     724 | 0xFFFFF34F  |  4294964047 |
|     725 | 0x0F46      |        3910 |
|     726 | 0x0E10      |        3600 |
|     727 | 0x0027      |          39 |
|     728 | 0x003B      |          59 |
|     729 | 0x3EDEA     |      257514 |
|     730 | 0x0C35      |        3125 |
|     731 | 0xFFFFEC18  |  4294962200 |
|     732 | 0x3D27C     |      250492 |
|     733 | 0x15FD      |        5629 |
|     734 | 0xFFFFEE2D  |  4294962733 |
|     735 | 0x0046      |          70 |
|     736 | 0x00B3      |         179 |
|     737 | 0x00BD      |         189 |
|     738 | 0x00D1      |         209 |
|     739 | 0x2814C     |      164172 |
|     740 | 0x5118B     |      332171 |
|     741 | 0xFFFEA992  |  4294879634 |
|     742 | 0x27951     |      162129 |
|     743 | 0x510CC     |      331980 |
|     744 | 0xFFFEA9CB  |  4294879691 |

## Events

### Event 65535

#### Metadata

| Field        | Value   |
|--------------|---------|
| Entrypoint   | 0x0000  |
| Data Size    | 1 bytes |
| Instructions | 1       |

```
      00 01 02 03 04 05 06 07  08 09 0A 0B 0C 0D 0E 0F
      -- -- -- -- -- -- -- --  -- -- -- -- -- -- -- --
0000: 00                                                .               
```

#### Opcodes

```
  0: 0x0000 [0x00] END_REQSTACK()
```

### Event 65535.1

#### Metadata

| Field        | Value    |
|--------------|----------|
| Entrypoint   | 0x0001   |
| Data Size    | 10 bytes |
| Instructions | 2        |

```
      00 01 02 03 04 05 06 07  08 09 0A 0B 0C 0D 0E 0F
      -- -- -- -- -- -- -- --  -- -- -- -- -- -- -- --
0000:    37 00 80 01 80 02 80  03 80 00                  7.........     
```

#### Opcodes

```
  0: 0x0001 [0x37] UPDATE_EVENT_POSITION_AND_DIR: x=0.154*, z=-1.653*, y=0.000*, direction=259.0°*
  1: 0x000A [0x00] END_REQSTACK()
```

### Event 65534

#### Metadata

| Field        | Value   |
|--------------|---------|
| Entrypoint   | 0x000B  |
| Data Size    | 1 bytes |
| Instructions | 1       |

```
      00 01 02 03 04 05 06 07  08 09 0A 0B 0C 0D 0E 0F
      -- -- -- -- -- -- -- --  -- -- -- -- -- -- -- --
0000:                                   00                         .    
```

#### Opcodes

```
  0: 0x000B [0x00] END_REQSTACK()
```

### Event 65535.2

#### Metadata

| Field        | Value   |
|--------------|---------|
| Entrypoint   | 0x000C  |
| Data Size    | 1 bytes |
| Instructions | 1       |

```
      00 01 02 03 04 05 06 07  08 09 0A 0B 0C 0D 0E 0F
      -- -- -- -- -- -- -- --  -- -- -- -- -- -- -- --
0000:                                      00                       .   
```

#### Opcodes

```
  0: 0x000C [0x00] END_REQSTACK()
```

### Event 65535.3

#### Metadata

| Field        | Value   |
|--------------|---------|
| Entrypoint   | 0x000D  |
| Data Size    | 6 bytes |
| Instructions | 2       |

```
      00 01 02 03 04 05 06 07  08 09 0A 0B 0C 0D 0E 0F
      -- -- -- -- -- -- -- --  -- -- -- -- -- -- -- --
0000:                                         03 02 10               ...
0010: 0B 7F 00                                          ...             
```

#### Opcodes

```
  0: 0x000D [0x03] Work_Zone[2] = (Entity->Render.Flags01 >> 25) & 1
  1: 0x0012 [0x00] END_REQSTACK()
```

### Event 65535.4

#### Metadata

| Field        | Value   |
|--------------|---------|
| Entrypoint   | 0x0013  |
| Data Size    | 6 bytes |
| Instructions | 2       |

```
      00 01 02 03 04 05 06 07  08 09 0A 0B 0C 0D 0E 0F
      -- -- -- -- -- -- -- --  -- -- -- -- -- -- -- --
0010:          03 02 10 07 7F  00                          ......       
```

#### Opcodes

```
  0: 0x0013 [0x03] Work_Zone[2] = Entity->Race
  1: 0x0018 [0x00] END_REQSTACK()
```

### Event 65535.5

#### Metadata

| Field        | Value   |
|--------------|---------|
| Entrypoint   | 0x0019  |
| Data Size    | 6 bytes |
| Instructions | 2       |

```
      00 01 02 03 04 05 06 07  08 09 0A 0B 0C 0D 0E 0F
      -- -- -- -- -- -- -- --  -- -- -- -- -- -- -- --
0010:                             03 09 10 07 7F 00              ...... 
```

#### Opcodes

```
  0: 0x0019 [0x03] Work_Zone[9] = Entity->Race
  1: 0x001E [0x00] END_REQSTACK()
```

### Event 65535.6

#### Metadata

| Field        | Value   |
|--------------|---------|
| Entrypoint   | 0x001F  |
| Data Size    | 6 bytes |
| Instructions | 2       |

```
      00 01 02 03 04 05 06 07  08 09 0A 0B 0C 0D 0E 0F
      -- -- -- -- -- -- -- --  -- -- -- -- -- -- -- --
0010:                                               03                 .
0020: 02 10 06 7F 00                                    .....           
```

#### Opcodes

```
  0: 0x001F [0x03] Work_Zone[2] = Entity->JobId (if LocalPlayer)
  1: 0x0024 [0x00] END_REQSTACK()
```

### Event 65535.7

#### Metadata

| Field        | Value    |
|--------------|----------|
| Entrypoint   | 0x0025   |
| Data Size    | 13 bytes |
| Instructions | 3        |

```
      00 01 02 03 04 05 06 07  08 09 0A 0B 0C 0D 0E 0F
      -- -- -- -- -- -- -- --  -- -- -- -- -- -- -- --
0020:                47 00 04  80 05 80 06 80 07 80 47       G.........G
0030: 01 00                                             ..              
```

#### Opcodes

```
  0: 0x0025 [0x47] UPDATE_PLAYER_POS(-39.441*, 241.317*, -4.999*, yaw=98.9°*)
  1: 0x002F [0x47] WAIT_PLAYER_POS_UPDATE
  2: 0x0031 [0x00] END_REQSTACK()
```

### Event 31

#### Metadata

| Field        | Value   |
|--------------|---------|
| Entrypoint   | 0x0032  |
| Data Size    | 1 bytes |
| Instructions | 1       |

```
      00 01 02 03 04 05 06 07  08 09 0A 0B 0C 0D 0E 0F
      -- -- -- -- -- -- -- --  -- -- -- -- -- -- -- --
0030:       00                                            .             
```

#### Opcodes

```
  0: 0x0032 [0x00] END_REQSTACK()
```

### Event 32

#### Metadata

| Field        | Value   |
|--------------|---------|
| Entrypoint   | 0x0033  |
| Data Size    | 1 bytes |
| Instructions | 1       |

```
      00 01 02 03 04 05 06 07  08 09 0A 0B 0C 0D 0E 0F
      -- -- -- -- -- -- -- --  -- -- -- -- -- -- -- --
0030:          00                                          .            
```

#### Opcodes

```
  0: 0x0033 [0x00] END_REQSTACK()
```

### Event 33

#### Metadata

| Field        | Value   |
|--------------|---------|
| Entrypoint   | 0x0034  |
| Data Size    | 1 bytes |
| Instructions | 1       |

```
      00 01 02 03 04 05 06 07  08 09 0A 0B 0C 0D 0E 0F
      -- -- -- -- -- -- -- --  -- -- -- -- -- -- -- --
0030:             00                                        .           
```

#### Opcodes

```
  0: 0x0034 [0x00] END_REQSTACK()
```

### Event 34

#### Metadata

| Field        | Value   |
|--------------|---------|
| Entrypoint   | 0x0035  |
| Data Size    | 1 bytes |
| Instructions | 1       |

```
      00 01 02 03 04 05 06 07  08 09 0A 0B 0C 0D 0E 0F
      -- -- -- -- -- -- -- --  -- -- -- -- -- -- -- --
0030:                00                                      .          
```

#### Opcodes

```
  0: 0x0035 [0x00] END_REQSTACK()
```

### Event 35

#### Metadata

| Field        | Value   |
|--------------|---------|
| Entrypoint   | 0x0036  |
| Data Size    | 1 bytes |
| Instructions | 1       |

```
      00 01 02 03 04 05 06 07  08 09 0A 0B 0C 0D 0E 0F
      -- -- -- -- -- -- -- --  -- -- -- -- -- -- -- --
0030:                   00                                    .         
```

#### Opcodes

```
  0: 0x0036 [0x00] END_REQSTACK()
```

### Event 36

#### Metadata

| Field        | Value   |
|--------------|---------|
| Entrypoint   | 0x0037  |
| Data Size    | 1 bytes |
| Instructions | 1       |

```
      00 01 02 03 04 05 06 07  08 09 0A 0B 0C 0D 0E 0F
      -- -- -- -- -- -- -- --  -- -- -- -- -- -- -- --
0030:                      00                                  .        
```

#### Opcodes

```
  0: 0x0037 [0x00] END_REQSTACK()
```

### Event 37

#### Metadata

| Field        | Value   |
|--------------|---------|
| Entrypoint   | 0x0038  |
| Data Size    | 1 bytes |
| Instructions | 1       |

```
      00 01 02 03 04 05 06 07  08 09 0A 0B 0C 0D 0E 0F
      -- -- -- -- -- -- -- --  -- -- -- -- -- -- -- --
0030:                          00                               .       
```

#### Opcodes

```
  0: 0x0038 [0x00] END_REQSTACK()
```

### Event 38

#### Metadata

| Field        | Value   |
|--------------|---------|
| Entrypoint   | 0x0039  |
| Data Size    | 1 bytes |
| Instructions | 1       |

```
      00 01 02 03 04 05 06 07  08 09 0A 0B 0C 0D 0E 0F
      -- -- -- -- -- -- -- --  -- -- -- -- -- -- -- --
0030:                             00                             .      
```

#### Opcodes

```
  0: 0x0039 [0x00] END_REQSTACK()
```

### Event 39

#### Metadata

| Field        | Value   |
|--------------|---------|
| Entrypoint   | 0x003A  |
| Data Size    | 1 bytes |
| Instructions | 1       |

```
      00 01 02 03 04 05 06 07  08 09 0A 0B 0C 0D 0E 0F
      -- -- -- -- -- -- -- --  -- -- -- -- -- -- -- --
0030:                                00                           .     
```

#### Opcodes

```
  0: 0x003A [0x00] END_REQSTACK()
```

### Event 40

#### Metadata

| Field        | Value   |
|--------------|---------|
| Entrypoint   | 0x003B  |
| Data Size    | 1 bytes |
| Instructions | 1       |

```
      00 01 02 03 04 05 06 07  08 09 0A 0B 0C 0D 0E 0F
      -- -- -- -- -- -- -- --  -- -- -- -- -- -- -- --
0030:                                   00                         .    
```

#### Opcodes

```
  0: 0x003B [0x00] END_REQSTACK()
```

### Event 65535.8

#### Metadata

| Field        | Value    |
|--------------|----------|
| Entrypoint   | 0x003C   |
| Data Size    | 13 bytes |
| Instructions | 3        |

```
      00 01 02 03 04 05 06 07  08 09 0A 0B 0C 0D 0E 0F
      -- -- -- -- -- -- -- --  -- -- -- -- -- -- -- --
0030:                                      47 00 08 80              G...
0040: 09 80 0A 80 0B 80 47 01  00                       ......G..       
```

#### Opcodes

```
  0: 0x003C [0x47] UPDATE_PLAYER_POS(-68.418*, -148.331*, -2.000*, yaw=246.7°*)
  1: 0x0046 [0x47] WAIT_PLAYER_POS_UPDATE
  2: 0x0048 [0x00] END_REQSTACK()
```

### Event 65535.9

#### Metadata

| Field        | Value    |
|--------------|----------|
| Entrypoint   | 0x0049   |
| Data Size    | 13 bytes |
| Instructions | 3        |

```
      00 01 02 03 04 05 06 07  08 09 0A 0B 0C 0D 0E 0F
      -- -- -- -- -- -- -- --  -- -- -- -- -- -- -- --
0040:                             47 00 0C 80 0D 80 0A           G......
0050: 80 0E 80 47 01 00                                 ...G..          
```

#### Opcodes

```
  0: 0x0049 [0x47] UPDATE_PLAYER_POS(-119.387*, 61.546*, -2.000*, yaw=251.7°*)
  1: 0x0053 [0x47] WAIT_PLAYER_POS_UPDATE
  2: 0x0055 [0x00] END_REQSTACK()
```

### Event 65535.10

#### Metadata

| Field        | Value    |
|--------------|----------|
| Entrypoint   | 0x0056   |
| Data Size    | 13 bytes |
| Instructions | 3        |

```
      00 01 02 03 04 05 06 07  08 09 0A 0B 0C 0D 0E 0F
      -- -- -- -- -- -- -- --  -- -- -- -- -- -- -- --
0050:                   47 00  0F 80 10 80 11 80 12 80        G.........
0060: 47 01 00                                          G..             
```

#### Opcodes

```
  0: 0x0056 [0x47] UPDATE_PLAYER_POS(-70.518*, 3.051*, -9.249*, yaw=94.1°*)
  1: 0x0060 [0x47] WAIT_PLAYER_POS_UPDATE
  2: 0x0062 [0x00] END_REQSTACK()
```

### Event 65535.11

#### Metadata

| Field        | Value    |
|--------------|----------|
| Entrypoint   | 0x0063   |
| Data Size    | 13 bytes |
| Instructions | 3        |

```
      00 01 02 03 04 05 06 07  08 09 0A 0B 0C 0D 0E 0F
      -- -- -- -- -- -- -- --  -- -- -- -- -- -- -- --
0060:          47 00 13 80 14  80 15 80 16 80 47 01 00     G.........G..
```

#### Opcodes

```
  0: 0x0063 [0x47] UPDATE_PLAYER_POS(-56.791*, 41.326*, -3.499*, yaw=131.4°*)
  1: 0x006D [0x47] WAIT_PLAYER_POS_UPDATE
  2: 0x006F [0x00] END_REQSTACK()
```

### Event 65535.12

#### Metadata

| Field        | Value    |
|--------------|----------|
| Entrypoint   | 0x0070   |
| Data Size    | 13 bytes |
| Instructions | 3        |

```
      00 01 02 03 04 05 06 07  08 09 0A 0B 0C 0D 0E 0F
      -- -- -- -- -- -- -- --  -- -- -- -- -- -- -- --
0070: 47 00 17 80 18 80 19 80  1A 80 47 01 00           G.........G..   
```

#### Opcodes

```
  0: 0x0070 [0x47] UPDATE_PLAYER_POS(7.937*, -195.346*, -4.249*, yaw=330.4°*)
  1: 0x007A [0x47] WAIT_PLAYER_POS_UPDATE
  2: 0x007C [0x00] END_REQSTACK()
```

### Event 65535.13

#### Metadata

| Field        | Value    |
|--------------|----------|
| Entrypoint   | 0x007D   |
| Data Size    | 13 bytes |
| Instructions | 3        |

```
      00 01 02 03 04 05 06 07  08 09 0A 0B 0C 0D 0E 0F
      -- -- -- -- -- -- -- --  -- -- -- -- -- -- -- --
0070:                                         47 00 1B               G..
0080: 80 1C 80 1D 80 1E 80 47  01 00                    .......G..      
```

#### Opcodes

```
  0: 0x007D [0x47] UPDATE_PLAYER_POS(0.552*, -163.322*, -4.000*, yaw=25.8°*)
  1: 0x0087 [0x47] WAIT_PLAYER_POS_UPDATE
  2: 0x0089 [0x00] END_REQSTACK()
```

### Event 65535.14

#### Metadata

| Field        | Value    |
|--------------|----------|
| Entrypoint   | 0x008A   |
| Data Size    | 13 bytes |
| Instructions | 3        |

```
      00 01 02 03 04 05 06 07  08 09 0A 0B 0C 0D 0E 0F
      -- -- -- -- -- -- -- --  -- -- -- -- -- -- -- --
0080:                                47 00 1F 80 20 80            G... .
0090: 21 80 22 80 47 01 00                              !.".G..         
```

#### Opcodes

```
  0: 0x008A [0x47] UPDATE_PLAYER_POS(19.457*, -207.232*, -7.874*, yaw=352.5°*)
  1: 0x0094 [0x47] WAIT_PLAYER_POS_UPDATE
  2: 0x0096 [0x00] END_REQSTACK()
```

### Event 65535.15

#### Metadata

| Field        | Value    |
|--------------|----------|
| Entrypoint   | 0x0097   |
| Data Size    | 13 bytes |
| Instructions | 3        |

```
      00 01 02 03 04 05 06 07  08 09 0A 0B 0C 0D 0E 0F
      -- -- -- -- -- -- -- --  -- -- -- -- -- -- -- --
0090:                      47  00 23 80 24 80 02 80 25         G.#.$...%
00A0: 80 47 01 00                                       .G..            
```

#### Opcodes

```
  0: 0x0097 [0x47] UPDATE_PLAYER_POS(164.211*, 183.950*, 0.000*, yaw=77.3°*)
  1: 0x00A1 [0x47] WAIT_PLAYER_POS_UPDATE
  2: 0x00A3 [0x00] END_REQSTACK()
```

### Event 65535.16

#### Metadata

| Field        | Value    |
|--------------|----------|
| Entrypoint   | 0x00A4   |
| Data Size    | 13 bytes |
| Instructions | 3        |

```
      00 01 02 03 04 05 06 07  08 09 0A 0B 0C 0D 0E 0F
      -- -- -- -- -- -- -- --  -- -- -- -- -- -- -- --
00A0:             47 00 26 80  27 80 28 80 29 80 47 01      G.&.'.(.).G.
00B0: 00                                                .               
```

#### Opcodes

```
  0: 0x00A4 [0x47] UPDATE_PLAYER_POS(-69.521*, 3.699*, -3.500*, yaw=78.0°*)
  1: 0x00AE [0x47] WAIT_PLAYER_POS_UPDATE
  2: 0x00B0 [0x00] END_REQSTACK()
```

### Event 65535.17

#### Metadata

| Field        | Value    |
|--------------|----------|
| Entrypoint   | 0x00B1   |
| Data Size    | 13 bytes |
| Instructions | 3        |

```
      00 01 02 03 04 05 06 07  08 09 0A 0B 0C 0D 0E 0F
      -- -- -- -- -- -- -- --  -- -- -- -- -- -- -- --
00B0:    47 00 2A 80 2B 80 2C  80 2D 80 47 01 00         G.*.+.,.-.G..  
```

#### Opcodes

```
  0: 0x00B1 [0x47] UPDATE_PLAYER_POS(-186.509*, -115.108*, -10.149*, yaw=144.2°*)
  1: 0x00BB [0x47] WAIT_PLAYER_POS_UPDATE
  2: 0x00BD [0x00] END_REQSTACK()
```

### Event 65535.18

#### Metadata

| Field        | Value    |
|--------------|----------|
| Entrypoint   | 0x00BE   |
| Data Size    | 13 bytes |
| Instructions | 3        |

```
      00 01 02 03 04 05 06 07  08 09 0A 0B 0C 0D 0E 0F
      -- -- -- -- -- -- -- --  -- -- -- -- -- -- -- --
00B0:                                            47 00                G.
00C0: 2E 80 2F 80 30 80 31 80  47 01 00                 ../.0.1.G..     
```

#### Opcodes

```
  0: 0x00BE [0x47] UPDATE_PLAYER_POS(-214.460*, -127.643*, -2.268*, yaw=296.8°*)
  1: 0x00C8 [0x47] WAIT_PLAYER_POS_UPDATE
  2: 0x00CA [0x00] END_REQSTACK()
```

### Event 65535.19

#### Metadata

| Field        | Value    |
|--------------|----------|
| Entrypoint   | 0x00CB   |
| Data Size    | 13 bytes |
| Instructions | 3        |

```
      00 01 02 03 04 05 06 07  08 09 0A 0B 0C 0D 0E 0F
      -- -- -- -- -- -- -- --  -- -- -- -- -- -- -- --
00C0:                                   47 00 32 80 33             G.2.3
00D0: 80 34 80 35 80 47 01 00                           .4.5.G..        
```

#### Opcodes

```
  0: 0x00CB [0x47] UPDATE_PLAYER_POS(-23.254*, 92.636*, -5.249*, yaw=267.4°*)
  1: 0x00D5 [0x47] WAIT_PLAYER_POS_UPDATE
  2: 0x00D7 [0x00] END_REQSTACK()
```

### Event 65535.20

#### Metadata

| Field        | Value    |
|--------------|----------|
| Entrypoint   | 0x00D8   |
| Data Size    | 13 bytes |
| Instructions | 3        |

```
      00 01 02 03 04 05 06 07  08 09 0A 0B 0C 0D 0E 0F
      -- -- -- -- -- -- -- --  -- -- -- -- -- -- -- --
00D0:                          47 00 36 80 37 80 34 80          G.6.7.4.
00E0: 38 80 47 01 00                                    8.G..           
```

#### Opcodes

```
  0: 0x00D8 [0x47] UPDATE_PLAYER_POS(-57.066*, 91.346*, -5.249*, yaw=294.9°*)
  1: 0x00E2 [0x47] WAIT_PLAYER_POS_UPDATE
  2: 0x00E4 [0x00] END_REQSTACK()
```

### Event 65535.21

#### Metadata

| Field        | Value    |
|--------------|----------|
| Entrypoint   | 0x00E5   |
| Data Size    | 13 bytes |
| Instructions | 3        |

```
      00 01 02 03 04 05 06 07  08 09 0A 0B 0C 0D 0E 0F
      -- -- -- -- -- -- -- --  -- -- -- -- -- -- -- --
00E0:                47 00 39  80 3A 80 34 80 3B 80 47       G.9.:.4.;.G
00F0: 01 00                                             ..              
```

#### Opcodes

```
  0: 0x00E5 [0x47] UPDATE_PLAYER_POS(-23.082*, 104.309*, -5.249*, yaw=183.7°*)
  1: 0x00EF [0x47] WAIT_PLAYER_POS_UPDATE
  2: 0x00F1 [0x00] END_REQSTACK()
```

### Event 65535.22

#### Metadata

| Field        | Value    |
|--------------|----------|
| Entrypoint   | 0x00F2   |
| Data Size    | 13 bytes |
| Instructions | 3        |

```
      00 01 02 03 04 05 06 07  08 09 0A 0B 0C 0D 0E 0F
      -- -- -- -- -- -- -- --  -- -- -- -- -- -- -- --
00F0:       47 00 3C 80 3D 80  3E 80 3F 80 47 01 00       G.<.=.>.?.G.. 
```

#### Opcodes

```
  0: 0x00F2 [0x47] UPDATE_PLAYER_POS(-51.380*, 115.383*, -11.249*, yaw=235.1°*)
  1: 0x00FC [0x47] WAIT_PLAYER_POS_UPDATE
  2: 0x00FE [0x00] END_REQSTACK()
```

### Event 65535.23

#### Metadata

| Field        | Value    |
|--------------|----------|
| Entrypoint   | 0x00FF   |
| Data Size    | 13 bytes |
| Instructions | 3        |

```
      00 01 02 03 04 05 06 07  08 09 0A 0B 0C 0D 0E 0F
      -- -- -- -- -- -- -- --  -- -- -- -- -- -- -- --
00F0:                                               47                 G
0100: 00 40 80 41 80 06 80 42  80 47 01 00              .@.A...B.G..    
```

#### Opcodes

```
  0: 0x00FF [0x47] UPDATE_PLAYER_POS(-40.611*, 102.501*, -4.999*, yaw=80.5°*)
  1: 0x0109 [0x47] WAIT_PLAYER_POS_UPDATE
  2: 0x010B [0x00] END_REQSTACK()
```

### Event 65535.24

#### Metadata

| Field        | Value   |
|--------------|---------|
| Entrypoint   | 0x010C  |
| Data Size    | 1 bytes |
| Instructions | 1       |

```
      00 01 02 03 04 05 06 07  08 09 0A 0B 0C 0D 0E 0F
      -- -- -- -- -- -- -- --  -- -- -- -- -- -- -- --
0100:                                      00                       .   
```

#### Opcodes

```
  0: 0x010C [0x00] END_REQSTACK()
```

### Event 65535.25

#### Metadata

| Field        | Value    |
|--------------|----------|
| Entrypoint   | 0x010D   |
| Data Size    | 13 bytes |
| Instructions | 3        |

```
      00 01 02 03 04 05 06 07  08 09 0A 0B 0C 0D 0E 0F
      -- -- -- -- -- -- -- --  -- -- -- -- -- -- -- --
0100:                                         47 00 43               G.C
0110: 80 44 80 45 80 46 80 47  01 00                    .D.E.F.G..      
```

#### Opcodes

```
  0: 0x010D [0x47] UPDATE_PLAYER_POS(126.329*, 161.767*, -5.749*, yaw=283.3°*)
  1: 0x0117 [0x47] WAIT_PLAYER_POS_UPDATE
  2: 0x0119 [0x00] END_REQSTACK()
```

### Event 65535.26

#### Metadata

| Field        | Value    |
|--------------|----------|
| Entrypoint   | 0x011A   |
| Data Size    | 13 bytes |
| Instructions | 3        |

```
      00 01 02 03 04 05 06 07  08 09 0A 0B 0C 0D 0E 0F
      -- -- -- -- -- -- -- --  -- -- -- -- -- -- -- --
0110:                                47 00 47 80 48 80            G.G.H.
0120: 49 80 4A 80 47 01 00                              I.J.G..         
```

#### Opcodes

```
  0: 0x011A [0x47] UPDATE_PLAYER_POS(-44.925*, -68.487*, -2.803*, yaw=62.5°*)
  1: 0x0124 [0x47] WAIT_PLAYER_POS_UPDATE
  2: 0x0126 [0x00] END_REQSTACK()
```

### Event 65535.27

#### Metadata

| Field        | Value    |
|--------------|----------|
| Entrypoint   | 0x0127   |
| Data Size    | 13 bytes |
| Instructions | 3        |

```
      00 01 02 03 04 05 06 07  08 09 0A 0B 0C 0D 0E 0F
      -- -- -- -- -- -- -- --  -- -- -- -- -- -- -- --
0120:                      47  00 4B 80 4C 80 4D 80 4E         G.K.L.M.N
0130: 80 47 01 00                                       .G..            
```

#### Opcodes

```
  0: 0x0127 [0x47] UPDATE_PLAYER_POS(-241.995*, -304.400*, -4.250*, yaw=94.8°*)
  1: 0x0131 [0x47] WAIT_PLAYER_POS_UPDATE
  2: 0x0133 [0x00] END_REQSTACK()
```

### Event 65535.28

#### Metadata

| Field        | Value    |
|--------------|----------|
| Entrypoint   | 0x0134   |
| Data Size    | 13 bytes |
| Instructions | 3        |

```
      00 01 02 03 04 05 06 07  08 09 0A 0B 0C 0D 0E 0F
      -- -- -- -- -- -- -- --  -- -- -- -- -- -- -- --
0130:             47 00 4F 80  50 80 4D 80 51 80 47 01      G.O.P.M.Q.G.
0140: 00                                                .               
```

#### Opcodes

```
  0: 0x0134 [0x47] UPDATE_PLAYER_POS(-247.841*, -237.538*, -4.250*, yaw=192.6°*)
  1: 0x013E [0x47] WAIT_PLAYER_POS_UPDATE
  2: 0x0140 [0x00] END_REQSTACK()
```

### Event 11

#### Metadata

| Field        | Value   |
|--------------|---------|
| Entrypoint   | 0x0141  |
| Data Size    | 1 bytes |
| Instructions | 1       |

```
      00 01 02 03 04 05 06 07  08 09 0A 0B 0C 0D 0E 0F
      -- -- -- -- -- -- -- --  -- -- -- -- -- -- -- --
0140:    00                                              .              
```

#### Opcodes

```
  0: 0x0141 [0x00] END_REQSTACK()
```

### Event 65535.29

#### Metadata

| Field        | Value    |
|--------------|----------|
| Entrypoint   | 0x0142   |
| Data Size    | 24 bytes |
| Instructions | 6        |

```
      00 01 02 03 04 05 06 07  08 09 0A 0B 0C 0D 0E 0F
      -- -- -- -- -- -- -- --  -- -- -- -- -- -- -- --
0140:       37 52 80 53 80 06  80 54 80 32 55 80 1F 00    7R.S...T.2U...
0150: 56 80 57 80 06 80 1F 01  6F 00                    V.W.....o.      
```

#### Opcodes

```
  0: 0x0142 [0x37] UPDATE_EVENT_POSITION_AND_DIR: x=-39.980*, z=100.718*, y=-4.999*, direction=91.1°*
  1: 0x014B [0x32] ExtData[1]->MainSpeed = 13* * 0.1
  2: 0x014E [0x1F] MOVE_ENTITY: EventEntity moves to X=-40.005*, Z=91.841*, Y=-4.999*
  3: 0x0156 [0x1F] MOVE_ENTITY: Update entity position (mode=1)
  4: 0x0158 [0x6F] WAIT_FRAME_DELAY: Yield until WaitTime reaches zero
  5: 0x0159 [0x00] END_REQSTACK()
```

### Event 65535.30

#### Metadata

| Field        | Value    |
|--------------|----------|
| Entrypoint   | 0x015A   |
| Data Size    | 24 bytes |
| Instructions | 6        |

```
      00 01 02 03 04 05 06 07  08 09 0A 0B 0C 0D 0E 0F
      -- -- -- -- -- -- -- --  -- -- -- -- -- -- -- --
0150:                                37 58 80 59 80 5A            7X.Y.Z
0160: 80 5B 80 32 55 80 1F 00  5C 80 5D 80 06 80 1F 01  .[.2U...\.].....
0170: 6F 00                                             o.              
```

#### Opcodes

```
  0: 0x015A [0x37] UPDATE_EVENT_POSITION_AND_DIR: x=-39.788*, z=92.641*, y=-5.000*, direction=85.0°*
  1: 0x0163 [0x32] ExtData[1]->MainSpeed = 13* * 0.1
  2: 0x0166 [0x1F] MOVE_ENTITY: EventEntity moves to X=-39.948*, Z=86.090*, Y=-4.999*
  3: 0x016E [0x1F] MOVE_ENTITY: Update entity position (mode=1)
  4: 0x0170 [0x6F] WAIT_FRAME_DELAY: Yield until WaitTime reaches zero
  5: 0x0171 [0x00] END_REQSTACK()
```

### Event 65535.31

#### Metadata

| Field        | Value    |
|--------------|----------|
| Entrypoint   | 0x0172   |
| Data Size    | 10 bytes |
| Instructions | 2        |

```
      00 01 02 03 04 05 06 07  08 09 0A 0B 0C 0D 0E 0F
      -- -- -- -- -- -- -- --  -- -- -- -- -- -- -- --
0170:       37 5E 80 5F 80 60  80 61 80 00                7^._.`.a..    
```

#### Opcodes

```
  0: 0x0172 [0x37] UPDATE_EVENT_POSITION_AND_DIR: x=-55.584*, z=226.609*, y=-4.982*, direction=265.7°*
  1: 0x017B [0x00] END_REQSTACK()
```

### Event 146

#### Metadata

| Field        | Value   |
|--------------|---------|
| Entrypoint   | 0x017C  |
| Data Size    | 1 bytes |
| Instructions | 1       |

```
      00 01 02 03 04 05 06 07  08 09 0A 0B 0C 0D 0E 0F
      -- -- -- -- -- -- -- --  -- -- -- -- -- -- -- --
0170:                                      00                       .   
```

#### Opcodes

```
  0: 0x017C [0x00] END_REQSTACK()
```

### Event 65535.32

#### Metadata

| Field        | Value    |
|--------------|----------|
| Entrypoint   | 0x017D   |
| Data Size    | 16 bytes |
| Instructions | 3        |

```
      00 01 02 03 04 05 06 07  08 09 0A 0B 0C 0D 0E 0F
      -- -- -- -- -- -- -- --  -- -- -- -- -- -- -- --
0170:                                         37 62 80               7b.
0180: 63 80 64 80 65 80 4E 01  F0 FF FF 7F 00           c.d.e.N......   
```

#### Opcodes

```
  0: 0x017D [0x37] UPDATE_EVENT_POSITION_AND_DIR: x=24.676*, z=-199.609*, y=-9.749*, direction=182.8°*
  1: 0x0186 [0x4E] SET_ENTITY_HIDE_FLAG: Hide LocalPlayer
  2: 0x018C [0x00] END_REQSTACK()
```

### Event 65535.33

#### Metadata

| Field        | Value    |
|--------------|----------|
| Entrypoint   | 0x018D   |
| Data Size    | 10 bytes |
| Instructions | 2        |

```
      00 01 02 03 04 05 06 07  08 09 0A 0B 0C 0D 0E 0F
      -- -- -- -- -- -- -- --  -- -- -- -- -- -- -- --
0180:                                         37 66 80               7f.
0190: 67 80 68 80 69 80 00                              g.h.i..         
```

#### Opcodes

```
  0: 0x018D [0x37] UPDATE_EVENT_POSITION_AND_DIR: x=13.651*, z=-197.618*, y=-9.750*, direction=179.9°*
  1: 0x0196 [0x00] END_REQSTACK()
```

### Event 65535.34

#### Metadata

| Field        | Value    |
|--------------|----------|
| Entrypoint   | 0x0197   |
| Data Size    | 16 bytes |
| Instructions | 3        |

```
      00 01 02 03 04 05 06 07  08 09 0A 0B 0C 0D 0E 0F
      -- -- -- -- -- -- -- --  -- -- -- -- -- -- -- --
0190:                      37  62 80 63 80 64 80 65 80         7b.c.d.e.
01A0: 4E 00 F0 FF FF 7F 00                              N......         
```

#### Opcodes

```
  0: 0x0197 [0x37] UPDATE_EVENT_POSITION_AND_DIR: x=24.676*, z=-199.609*, y=-9.749*, direction=182.8°*
  1: 0x01A0 [0x4E] SET_ENTITY_HIDE_FLAG: Show LocalPlayer
  2: 0x01A6 [0x00] END_REQSTACK()
```

### Event 65535.35

#### Metadata

| Field        | Value    |
|--------------|----------|
| Entrypoint   | 0x01A7   |
| Data Size    | 15 bytes |
| Instructions | 5        |

```
      00 01 02 03 04 05 06 07  08 09 0A 0B 0C 0D 0E 0F
      -- -- -- -- -- -- -- --  -- -- -- -- -- -- -- --
01A0:                      32  55 80 1F 00 6A 80 6B 80         2U...j.k.
01B0: 64 80 1F 01 6F 00                                 d...o.          
```

#### Opcodes

```
  0: 0x01A7 [0x32] ExtData[1]->MainSpeed = 13* * 0.1
  1: 0x01AA [0x1F] MOVE_ENTITY: EventEntity moves to X=19.231*, Z=-199.449*, Y=-9.749*
  2: 0x01B2 [0x1F] MOVE_ENTITY: Update entity position (mode=1)
  3: 0x01B4 [0x6F] WAIT_FRAME_DELAY: Yield until WaitTime reaches zero
  4: 0x01B5 [0x00] END_REQSTACK()
```

### Event 65535.36

#### Metadata

| Field        | Value    |
|--------------|----------|
| Entrypoint   | 0x01B6   |
| Data Size    | 12 bytes |
| Instructions | 4        |

```
      00 01 02 03 04 05 06 07  08 09 0A 0B 0C 0D 0E 0F
      -- -- -- -- -- -- -- --  -- -- -- -- -- -- -- --
01B0:                   1F 00  6C 80 6D 80 64 80 1F 01        ..l.m.d...
01C0: 6F 00                                             o.              
```

#### Opcodes

```
  0: 0x01B6 [0x1F] MOVE_ENTITY: EventEntity moves to X=16.221*, Z=-198.598*, Y=-9.749*
  1: 0x01BE [0x1F] MOVE_ENTITY: Update entity position (mode=1)
  2: 0x01C0 [0x6F] WAIT_FRAME_DELAY: Yield until WaitTime reaches zero
  3: 0x01C1 [0x00] END_REQSTACK()
```

### Event 65535.37

#### Metadata

| Field        | Value    |
|--------------|----------|
| Entrypoint   | 0x01C2   |
| Data Size    | 10 bytes |
| Instructions | 2        |

```
      00 01 02 03 04 05 06 07  08 09 0A 0B 0C 0D 0E 0F
      -- -- -- -- -- -- -- --  -- -- -- -- -- -- -- --
01C0:       37 6E 80 6F 80 34  80 70 80 00                7n.o.4.p..    
```

#### Opcodes

```
  0: 0x01C2 [0x37] UPDATE_EVENT_POSITION_AND_DIR: x=-25.330*, z=104.224*, y=-5.249*, direction=164.7°*
  1: 0x01CB [0x00] END_REQSTACK()
```

### Event 65535.38

#### Metadata

| Field        | Value    |
|--------------|----------|
| Entrypoint   | 0x01CC   |
| Data Size    | 10 bytes |
| Instructions | 2        |

```
      00 01 02 03 04 05 06 07  08 09 0A 0B 0C 0D 0E 0F
      -- -- -- -- -- -- -- --  -- -- -- -- -- -- -- --
01C0:                                      37 71 80 72              7q.r
01D0: 80 73 80 74 80 00                                 .s.t..          
```

#### Opcodes

```
  0: 0x01CC [0x37] UPDATE_EVENT_POSITION_AND_DIR: x=170.259*, z=156.843*, y=-1.249*, direction=160.8°*
  1: 0x01D5 [0x00] END_REQSTACK()
```

### Event 65535.39

#### Metadata

| Field        | Value    |
|--------------|----------|
| Entrypoint   | 0x01D6   |
| Data Size    | 10 bytes |
| Instructions | 2        |

```
      00 01 02 03 04 05 06 07  08 09 0A 0B 0C 0D 0E 0F
      -- -- -- -- -- -- -- --  -- -- -- -- -- -- -- --
01D0:                   37 75  80 76 80 73 80 77 80 00        7u.v.s.w..
```

#### Opcodes

```
  0: 0x01D6 [0x37] UPDATE_EVENT_POSITION_AND_DIR: x=131.311*, z=157.579*, y=-1.249*, direction=115.7°*
  1: 0x01DF [0x00] END_REQSTACK()
```

### Event 65535.40

#### Metadata

| Field        | Value   |
|--------------|---------|
| Entrypoint   | 0x01E0  |
| Data Size    | 6 bytes |
| Instructions | 2       |

```
      00 01 02 03 04 05 06 07  08 09 0A 0B 0C 0D 0E 0F
      -- -- -- -- -- -- -- --  -- -- -- -- -- -- -- --
01E0: 1E 0A E0 0E 01 00                                 ......          
```

#### Opcodes

```
  0: 0x01E0 [0x1E] EventEntity looks at Ajido-Marujido (ID: 17752074/0x010EE00A) and starts talking
  1: 0x01E5 [0x00] END_REQSTACK()
```

### Event 65535.41

#### Metadata

| Field        | Value   |
|--------------|---------|
| Entrypoint   | 0x01E6  |
| Data Size    | 6 bytes |
| Instructions | 2       |

```
      00 01 02 03 04 05 06 07  08 09 0A 0B 0C 0D 0E 0F
      -- -- -- -- -- -- -- --  -- -- -- -- -- -- -- --
01E0:                   1E 0B  E0 0E 01 00                    ......    
```

#### Opcodes

```
  0: 0x01E6 [0x1E] EventEntity looks at Apururu (ID: 17752075/0x010EE00B) and starts talking
  1: 0x01EB [0x00] END_REQSTACK()
```

### Event 65535.42

#### Metadata

| Field        | Value    |
|--------------|----------|
| Entrypoint   | 0x01EC   |
| Data Size    | 10 bytes |
| Instructions | 2        |

```
      00 01 02 03 04 05 06 07  08 09 0A 0B 0C 0D 0E 0F
      -- -- -- -- -- -- -- --  -- -- -- -- -- -- -- --
01E0:                                      37 78 80 79              7x.y
01F0: 80 7A 80 7B 80 00                                 .z.{..          
```

#### Opcodes

```
  0: 0x01EC [0x37] UPDATE_EVENT_POSITION_AND_DIR: x=-66.441*, z=-9.121*, y=-9.250*, direction=326.8°*
  1: 0x01F5 [0x00] END_REQSTACK()
```

### Event 65535.43

#### Metadata

| Field        | Value    |
|--------------|----------|
| Entrypoint   | 0x01F6   |
| Data Size    | 10 bytes |
| Instructions | 2        |

```
      00 01 02 03 04 05 06 07  08 09 0A 0B 0C 0D 0E 0F
      -- -- -- -- -- -- -- --  -- -- -- -- -- -- -- --
01F0:                   37 7C  80 7D 80 7E 80 7F 80 00        7|.}.~....
```

#### Opcodes

```
  0: 0x01F6 [0x37] UPDATE_EVENT_POSITION_AND_DIR: x=-68.309*, z=-9.221*, y=-9.550*, direction=358.0°*
  1: 0x01FF [0x00] END_REQSTACK()
```

### Event 65535.44

#### Metadata

| Field        | Value    |
|--------------|----------|
| Entrypoint   | 0x0200   |
| Data Size    | 22 bytes |
| Instructions | 6        |

```
      00 01 02 03 04 05 06 07  08 09 0A 0B 0C 0D 0E 0F
      -- -- -- -- -- -- -- --  -- -- -- -- -- -- -- --
0200: 32 55 80 1F 00 7C 80 7D  80 7E 80 1F 01 6F 4B F0  2U...|.}.~...oK.
0210: FF FF 7F 80 80 00                                 ......          
```

#### Opcodes

```
  0: 0x0200 [0x32] ExtData[1]->MainSpeed = 13* * 0.1
  1: 0x0203 [0x1F] MOVE_ENTITY: EventEntity moves to X=-68.309*, Z=-9.221*, Y=-9.550*
  2: 0x020B [0x1F] MOVE_ENTITY: Update entity position (mode=1)
  3: 0x020D [0x6F] WAIT_FRAME_DELAY: Yield until WaitTime reaches zero
  4: 0x020E [0x4B] UPDATE_ENTITY_YAW(entity=LocalPlayer, yaw=20.5°*)
  5: 0x0215 [0x00] END_REQSTACK()
```

### Event 65535.45

#### Metadata

| Field        | Value    |
|--------------|----------|
| Entrypoint   | 0x0216   |
| Data Size    | 27 bytes |
| Instructions | 3        |

```
      00 01 02 03 04 05 06 07  08 09 0A 0B 0C 0D 0E 0F
      -- -- -- -- -- -- -- --  -- -- -- -- -- -- -- --
0210:                   2C F0  FF FF 7F F0 FF FF 7F 72        ,........r
0220: 65 73 31 53 F0 FF FF 7F  F0 FF FF 7F 72 65 73 31  es1S........res1
0230: 00                                                .               
```

#### Opcodes

```
  0: 0x0216 [0x2C] CREATE_SCHEDULER_TASK: Create scheduler "res1" with entities [LocalPlayer, LocalPlayer]
  1: 0x0223 [0x53] WAIT_SCHEDULER_TASK: Wait for scheduler "res1" with entities [LocalPlayer, LocalPlayer]
  2: 0x0230 [0x00] END_REQSTACK()
```

### Event 65535.46

#### Metadata

| Field        | Value    |
|--------------|----------|
| Entrypoint   | 0x0231   |
| Data Size    | 27 bytes |
| Instructions | 3        |

```
      00 01 02 03 04 05 06 07  08 09 0A 0B 0C 0D 0E 0F
      -- -- -- -- -- -- -- --  -- -- -- -- -- -- -- --
0230:    2C F0 FF FF 7F F0 FF  FF 7F 63 61 73 74 53 F0   ,........castS.
0240: FF FF 7F F0 FF FF 7F 63  61 73 74 00              .......cast.    
```

#### Opcodes

```
  0: 0x0231 [0x2C] CREATE_SCHEDULER_TASK: Create scheduler "cast" with entities [LocalPlayer, LocalPlayer]
  1: 0x023E [0x53] WAIT_SCHEDULER_TASK: Wait for scheduler "cast" with entities [LocalPlayer, LocalPlayer]
  2: 0x024B [0x00] END_REQSTACK()
```

### Event 65535.47

#### Metadata

| Field        | Value   |
|--------------|---------|
| Entrypoint   | 0x024C  |
| Data Size    | 9 bytes |
| Instructions | 3       |

```
      00 01 02 03 04 05 06 07  08 09 0A 0B 0C 0D 0E 0F
      -- -- -- -- -- -- -- --  -- -- -- -- -- -- -- --
0240:                                      5E 69 64 6C              ^idl
0250: 30 1C 81 80 00                                    0....           
```

#### Opcodes

```
  0: 0x024C [0x5E] EventEntity goes idle (kills current action) (animation: "idl0")
  1: 0x0251 [0x1C] WAIT(30* ticks)
  2: 0x0254 [0x00] END_REQSTACK()
```

### Event 65535.48

#### Metadata

| Field        | Value    |
|--------------|----------|
| Entrypoint   | 0x0255   |
| Data Size    | 10 bytes |
| Instructions | 2        |

```
      00 01 02 03 04 05 06 07  08 09 0A 0B 0C 0D 0E 0F
      -- -- -- -- -- -- -- --  -- -- -- -- -- -- -- --
0250:                37 82 80  83 80 84 80 85 80 00          7......... 
```

#### Opcodes

```
  0: 0x0255 [0x37] UPDATE_EVENT_POSITION_AND_DIR: x=-246.086*, z=-307.088*, y=-5.314*, direction=127.1°*
  1: 0x025E [0x00] END_REQSTACK()
```

### Event 65535.49

#### Metadata

| Field        | Value    |
|--------------|----------|
| Entrypoint   | 0x025F   |
| Data Size    | 10 bytes |
| Instructions | 2        |

```
      00 01 02 03 04 05 06 07  08 09 0A 0B 0C 0D 0E 0F
      -- -- -- -- -- -- -- --  -- -- -- -- -- -- -- --
0250:                                               37                 7
0260: 86 80 87 80 28 80 88 80  00                       ....(....       
```

#### Opcodes

```
  0: 0x025F [0x37] UPDATE_EVENT_POSITION_AND_DIR: x=-59.474*, z=22.178*, y=-3.500*, direction=26.4°*
  1: 0x0268 [0x00] END_REQSTACK()
```

### Event 65535.50

#### Metadata

| Field        | Value    |
|--------------|----------|
| Entrypoint   | 0x0269   |
| Data Size    | 10 bytes |
| Instructions | 2        |

```
      00 01 02 03 04 05 06 07  08 09 0A 0B 0C 0D 0E 0F
      -- -- -- -- -- -- -- --  -- -- -- -- -- -- -- --
0260:                             37 89 80 8A 80 19 80           7......
0270: 8B 80 00                                          ...             
```

#### Opcodes

```
  0: 0x0269 [0x37] UPDATE_EVENT_POSITION_AND_DIR: x=10.837*, z=-159.809*, y=-4.249*, direction=322.7°*
  1: 0x0272 [0x00] END_REQSTACK()
```

### Event 65535.51

#### Metadata

| Field        | Value    |
|--------------|----------|
| Entrypoint   | 0x0273   |
| Data Size    | 10 bytes |
| Instructions | 2        |

```
      00 01 02 03 04 05 06 07  08 09 0A 0B 0C 0D 0E 0F
      -- -- -- -- -- -- -- --  -- -- -- -- -- -- -- --
0270:          37 8C 80 8D 80  68 80 8E 80 00              7....h....   
```

#### Opcodes

```
  0: 0x0273 [0x37] UPDATE_EVENT_POSITION_AND_DIR: x=13.243*, z=-195.762*, y=-9.750*, direction=140.2°*
  1: 0x027C [0x00] END_REQSTACK()
```

### Event 65535.52

#### Metadata

| Field        | Value     |
|--------------|-----------|
| Entrypoint   | 0x027D    |
| Data Size    | 141 bytes |
| Instructions | 13        |

```
      00 01 02 03 04 05 06 07  08 09 0A 0B 0C 0D 0E 0F
      -- -- -- -- -- -- -- --  -- -- -- -- -- -- -- --
0270:                                         45 8F 80               E..
0280: F8 FF FF 7F F8 FF FF 7F  73 30 33 38 02 80 1C 90  ........s038....
0290: 80 4B F0 FF FF 7F 91 80  1C 90 80 52 8F 80 F8 FF  .K.........R....
02A0: FF 7F F8 FF FF 7F 73 30  33 38 45 92 80 F0 FF FF  ......s038E.....
02B0: 7F F0 FF FF 7F 6F 76 6C  31 02 80 45 8F 80 F8 FF  .....ovl1..E....
02C0: FF 7F F8 FF FF 7F 73 30  33 39 02 80 1C 93 80 37  ......s039.....7
02D0: 94 80 95 80 64 80 96 80  52 8F 80 F8 FF FF 7F F8  ....d...R.......
02E0: FF FF 7F 73 30 33 39 45  92 80 F0 FF FF 7F F0 FF  ...s039E........
02F0: FF 7F 6F 76 6C 31 02 80  45 8F 80 F8 FF FF 7F F8  ..ovl1..E.......
0300: FF FF 7F 73 30 34 30 02  80 00                    ...s040...      
```

#### Opcodes

```
  0: 0x027D [0x45] LOAD_SCHEDULED_TASK: Load scheduler "s038" with entities [EventEntity, EventEntity], work=[211*, 0*]
  1: 0x028E [0x1C] WAIT(50* ticks)
  2: 0x0291 [0x4B] UPDATE_ENTITY_YAW(entity=LocalPlayer, yaw=0.4°*)
  3: 0x0298 [0x1C] WAIT(50* ticks)
  4: 0x029B [0x52] END_LOAD_SCHEDULER: End scheduler "s038" with entities [EventEntity, EventEntity], work=211*
  5: 0x02AA [0x45] LOAD_SCHEDULED_TASK: Load scheduler "ovl1" with entities [LocalPlayer, LocalPlayer], work=[200*, 0*]
  6: 0x02BB [0x45] LOAD_SCHEDULED_TASK: Load scheduler "s039" with entities [EventEntity, EventEntity], work=[211*, 0*]
  7: 0x02CC [0x1C] WAIT(150* ticks)
  8: 0x02CF [0x37] UPDATE_EVENT_POSITION_AND_DIR: x=12.831*, z=-195.335*, y=-9.749*, direction=44.1°*
  9: 0x02D8 [0x52] END_LOAD_SCHEDULER: End scheduler "s039" with entities [EventEntity, EventEntity], work=211*
 10: 0x02E7 [0x45] LOAD_SCHEDULED_TASK: Load scheduler "ovl1" with entities [LocalPlayer, LocalPlayer], work=[200*, 0*]
 11: 0x02F8 [0x45] LOAD_SCHEDULED_TASK: Load scheduler "s040" with entities [EventEntity, EventEntity], work=[211*, 0*]
 12: 0x0309 [0x00] END_REQSTACK()
```

### Event 65535.53

#### Metadata

| Field        | Value    |
|--------------|----------|
| Entrypoint   | 0x030A   |
| Data Size    | 10 bytes |
| Instructions | 2        |

```
      00 01 02 03 04 05 06 07  08 09 0A 0B 0C 0D 0E 0F
      -- -- -- -- -- -- -- --  -- -- -- -- -- -- -- --
0300:                                37 97 80 98 80 2C            7....,
0310: 80 99 80 00                                       ....            
```

#### Opcodes

```
  0: 0x030A [0x37] UPDATE_EVENT_POSITION_AND_DIR: x=-195.456*, z=-119.268*, y=-10.149*, direction=88.3°*
  1: 0x0313 [0x00] END_REQSTACK()
```

### Event 65535.54

#### Metadata

| Field        | Value    |
|--------------|----------|
| Entrypoint   | 0x0314   |
| Data Size    | 10 bytes |
| Instructions | 2        |

```
      00 01 02 03 04 05 06 07  08 09 0A 0B 0C 0D 0E 0F
      -- -- -- -- -- -- -- --  -- -- -- -- -- -- -- --
0310:             37 9A 80 9B  80 9C 80 9D 80 00            7.........  
```

#### Opcodes

```
  0: 0x0314 [0x37] UPDATE_EVENT_POSITION_AND_DIR: x=-191.394*, z=-110.403*, y=-10.150*, direction=283.7°*
  1: 0x031D [0x00] END_REQSTACK()
```

### Event 65535.55

#### Metadata

| Field        | Value    |
|--------------|----------|
| Entrypoint   | 0x031E   |
| Data Size    | 10 bytes |
| Instructions | 2        |

```
      00 01 02 03 04 05 06 07  08 09 0A 0B 0C 0D 0E 0F
      -- -- -- -- -- -- -- --  -- -- -- -- -- -- -- --
0310:                                            37 9E                7.
0320: 80 9F 80 2C 80 A0 80 00                           ...,....        
```

#### Opcodes

```
  0: 0x031E [0x37] UPDATE_EVENT_POSITION_AND_DIR: x=-191.306*, z=-113.455*, y=-10.149*, direction=245.5°*
  1: 0x0327 [0x00] END_REQSTACK()
```

### Event 65535.56

#### Metadata

| Field        | Value    |
|--------------|----------|
| Entrypoint   | 0x0328   |
| Data Size    | 14 bytes |
| Instructions | 4        |

```
      00 01 02 03 04 05 06 07  08 09 0A 0B 0C 0D 0E 0F
      -- -- -- -- -- -- -- --  -- -- -- -- -- -- -- --
0320:                          32 55 80 1F 00 A1 80 A2          2U......
0330: 80 2C 80 1F 01 00                                 .,....          
```

#### Opcodes

```
  0: 0x0328 [0x32] ExtData[1]->MainSpeed = 13* * 0.1
  1: 0x032B [0x1F] MOVE_ENTITY: EventEntity moves to X=-191.498*, Z=-106.520*, Y=-10.149*
  2: 0x0333 [0x1F] MOVE_ENTITY: Update entity position (mode=1)
  3: 0x0335 [0x00] END_REQSTACK()
```

### Event 65535.57

#### Metadata

| Field        | Value    |
|--------------|----------|
| Entrypoint   | 0x0336   |
| Data Size    | 10 bytes |
| Instructions | 2        |

```
      00 01 02 03 04 05 06 07  08 09 0A 0B 0C 0D 0E 0F
      -- -- -- -- -- -- -- --  -- -- -- -- -- -- -- --
0330:                   37 A3  80 A4 80 4D 80 A5 80 00        7....M....
```

#### Opcodes

```
  0: 0x0336 [0x37] UPDATE_EVENT_POSITION_AND_DIR: x=12.371*, z=-196.896*, y=-4.250*, direction=4.3°*
  1: 0x033F [0x00] END_REQSTACK()
```

### Event 65535.58

#### Metadata

| Field        | Value    |
|--------------|----------|
| Entrypoint   | 0x0340   |
| Data Size    | 10 bytes |
| Instructions | 2        |

```
      00 01 02 03 04 05 06 07  08 09 0A 0B 0C 0D 0E 0F
      -- -- -- -- -- -- -- --  -- -- -- -- -- -- -- --
0340: 37 A6 80 A7 80 4D 80 A8  80 00                    7....M....      
```

#### Opcodes

```
  0: 0x0340 [0x37] UPDATE_EVENT_POSITION_AND_DIR: x=13.534*, z=-199.183*, y=-4.250*, direction=200.6°*
  1: 0x0349 [0x00] END_REQSTACK()
```

### Event 65535.59

#### Metadata

| Field        | Value    |
|--------------|----------|
| Entrypoint   | 0x034A   |
| Data Size    | 10 bytes |
| Instructions | 2        |

```
      00 01 02 03 04 05 06 07  08 09 0A 0B 0C 0D 0E 0F
      -- -- -- -- -- -- -- --  -- -- -- -- -- -- -- --
0340:                                37 A9 80 AA 80 AB            7.....
0350: 80 AC 80 00                                       ....            
```

#### Opcodes

```
  0: 0x034A [0x37] UPDATE_EVENT_POSITION_AND_DIR: x=154.789*, z=222.860*, y=-2.500*, direction=177.9°*
  1: 0x0353 [0x00] END_REQSTACK()
```

### Event 65535.60

#### Metadata

| Field        | Value    |
|--------------|----------|
| Entrypoint   | 0x0354   |
| Data Size    | 10 bytes |
| Instructions | 2        |

```
      00 01 02 03 04 05 06 07  08 09 0A 0B 0C 0D 0E 0F
      -- -- -- -- -- -- -- --  -- -- -- -- -- -- -- --
0350:             37 A9 80 AD  80 AB 80 AC 80 00            7.........  
```

#### Opcodes

```
  0: 0x0354 [0x37] UPDATE_EVENT_POSITION_AND_DIR: x=154.789*, z=230.860*, y=-2.500*, direction=177.9°*
  1: 0x035D [0x00] END_REQSTACK()
```

### Event 65535.61

#### Metadata

| Field        | Value   |
|--------------|---------|
| Entrypoint   | 0x035E  |
| Data Size    | 8 bytes |
| Instructions | 2       |

```
      00 01 02 03 04 05 06 07  08 09 0A 0B 0C 0D 0E 0F
      -- -- -- -- -- -- -- --  -- -- -- -- -- -- -- --
0350:                                            36 A9                6.
0360: 80 AE 80 AB 80 00                                 ......          
```

#### Opcodes

```
  0: 0x035E [0x36] SET_ENTITY_EVENT_POSITION(pos_x=154.789*, pos_z=238.860*, pos_y=-2.500*)
  1: 0x0365 [0x00] END_REQSTACK()
```

### Event 65535.62

#### Metadata

| Field        | Value   |
|--------------|---------|
| Entrypoint   | 0x0366  |
| Data Size    | 8 bytes |
| Instructions | 2       |

```
      00 01 02 03 04 05 06 07  08 09 0A 0B 0C 0D 0E 0F
      -- -- -- -- -- -- -- --  -- -- -- -- -- -- -- --
0360:                   36 AF  80 B0 80 B1 80 00              6.......  
```

#### Opcodes

```
  0: 0x0366 [0x36] SET_ENTITY_EVENT_POSITION(pos_x=148.723*, pos_z=242.906*, pos_y=-7.875*)
  1: 0x036D [0x00] END_REQSTACK()
```

### Event 65535.63

#### Metadata

| Field        | Value   |
|--------------|---------|
| Entrypoint   | 0x036E  |
| Data Size    | 8 bytes |
| Instructions | 2       |

```
      00 01 02 03 04 05 06 07  08 09 0A 0B 0C 0D 0E 0F
      -- -- -- -- -- -- -- --  -- -- -- -- -- -- -- --
0360:                                            36 AF                6.
0370: 80 B2 80 B1 80 00                                 ......          
```

#### Opcodes

```
  0: 0x036E [0x36] SET_ENTITY_EVENT_POSITION(pos_x=148.723*, pos_z=230.885*, pos_y=-7.875*)
  1: 0x0375 [0x00] END_REQSTACK()
```

### Event 65535.64

#### Metadata

| Field        | Value   |
|--------------|---------|
| Entrypoint   | 0x0376  |
| Data Size    | 8 bytes |
| Instructions | 2       |

```
      00 01 02 03 04 05 06 07  08 09 0A 0B 0C 0D 0E 0F
      -- -- -- -- -- -- -- --  -- -- -- -- -- -- -- --
0370:                   36 B3  80 B0 80 B1 80 00              6.......  
```

#### Opcodes

```
  0: 0x0376 [0x36] SET_ENTITY_EVENT_POSITION(pos_x=171.685*, pos_z=242.906*, pos_y=-7.875*)
  1: 0x037D [0x00] END_REQSTACK()
```

### Event 65535.65

#### Metadata

| Field        | Value   |
|--------------|---------|
| Entrypoint   | 0x037E  |
| Data Size    | 8 bytes |
| Instructions | 2       |

```
      00 01 02 03 04 05 06 07  08 09 0A 0B 0C 0D 0E 0F
      -- -- -- -- -- -- -- --  -- -- -- -- -- -- -- --
0370:                                            36 B3                6.
0380: 80 B2 80 B1 80 00                                 ......          
```

#### Opcodes

```
  0: 0x037E [0x36] SET_ENTITY_EVENT_POSITION(pos_x=171.685*, pos_z=230.885*, pos_y=-7.875*)
  1: 0x0385 [0x00] END_REQSTACK()
```

### Event 65535.66

#### Metadata

| Field        | Value   |
|--------------|---------|
| Entrypoint   | 0x0386  |
| Data Size    | 8 bytes |
| Instructions | 2       |

```
      00 01 02 03 04 05 06 07  08 09 0A 0B 0C 0D 0E 0F
      -- -- -- -- -- -- -- --  -- -- -- -- -- -- -- --
0380:                   36 B4  80 AE 80 B5 80 00              6.......  
```

#### Opcodes

```
  0: 0x0386 [0x36] SET_ENTITY_EVENT_POSITION(pos_x=176.987*, pos_z=238.860*, pos_y=-2.601*)
  1: 0x038D [0x00] END_REQSTACK()
```

### Event 65535.67

#### Metadata

| Field        | Value   |
|--------------|---------|
| Entrypoint   | 0x038E  |
| Data Size    | 8 bytes |
| Instructions | 2       |

```
      00 01 02 03 04 05 06 07  08 09 0A 0B 0C 0D 0E 0F
      -- -- -- -- -- -- -- --  -- -- -- -- -- -- -- --
0380:                                            36 B4                6.
0390: 80 AD 80 B5 80 00                                 ......          
```

#### Opcodes

```
  0: 0x038E [0x36] SET_ENTITY_EVENT_POSITION(pos_x=176.987*, pos_z=230.860*, pos_y=-2.601*)
  1: 0x0395 [0x00] END_REQSTACK()
```

### Event 65535.68

#### Metadata

| Field        | Value   |
|--------------|---------|
| Entrypoint   | 0x0396  |
| Data Size    | 8 bytes |
| Instructions | 2       |

```
      00 01 02 03 04 05 06 07  08 09 0A 0B 0C 0D 0E 0F
      -- -- -- -- -- -- -- --  -- -- -- -- -- -- -- --
0390:                   36 B4  80 AA 80 B5 80 00              6.......  
```

#### Opcodes

```
  0: 0x0396 [0x36] SET_ENTITY_EVENT_POSITION(pos_x=176.987*, pos_z=222.860*, pos_y=-2.601*)
  1: 0x039D [0x00] END_REQSTACK()
```

### Event 65535.69

#### Metadata

| Field        | Value   |
|--------------|---------|
| Entrypoint   | 0x039E  |
| Data Size    | 8 bytes |
| Instructions | 2       |

```
      00 01 02 03 04 05 06 07  08 09 0A 0B 0C 0D 0E 0F
      -- -- -- -- -- -- -- --  -- -- -- -- -- -- -- --
0390:                                            36 B6                6.
03A0: 80 B7 80 AB 80 00                                 ......          
```

#### Opcodes

```
  0: 0x039E [0x36] SET_ENTITY_EVENT_POSITION(pos_x=124.000*, pos_z=219.215*, pos_y=-2.500*)
  1: 0x03A5 [0x00] END_REQSTACK()
```

### Event 65535.70

#### Metadata

| Field        | Value    |
|--------------|----------|
| Entrypoint   | 0x03A6   |
| Data Size    | 14 bytes |
| Instructions | 4        |

```
      00 01 02 03 04 05 06 07  08 09 0A 0B 0C 0D 0E 0F
      -- -- -- -- -- -- -- --  -- -- -- -- -- -- -- --
03A0:                   32 55  80 1F 00 B8 80 B9 80 34        2U.......4
03B0: 80 1F 01 00                                       ....            
```

#### Opcodes

```
  0: 0x03A6 [0x32] ExtData[1]->MainSpeed = 13* * 0.1
  1: 0x03A9 [0x1F] MOVE_ENTITY: EventEntity moves to X=-24.236*, Z=100.724*, Y=-5.249*
  2: 0x03B1 [0x1F] MOVE_ENTITY: Update entity position (mode=1)
  3: 0x03B3 [0x00] END_REQSTACK()
```

### Event 65535.71

#### Metadata

| Field        | Value    |
|--------------|----------|
| Entrypoint   | 0x03B4   |
| Data Size    | 10 bytes |
| Instructions | 2        |

```
      00 01 02 03 04 05 06 07  08 09 0A 0B 0C 0D 0E 0F
      -- -- -- -- -- -- -- --  -- -- -- -- -- -- -- --
03B0:             37 66 80 BA  80 68 80 69 80 00            7f...h.i..  
```

#### Opcodes

```
  0: 0x03B4 [0x37] UPDATE_EVENT_POSITION_AND_DIR: x=13.651*, z=-197.475*, y=-9.750*, direction=179.9°*
  1: 0x03BD [0x00] END_REQSTACK()
```

### Event 65535.72

#### Metadata

| Field        | Value    |
|--------------|----------|
| Entrypoint   | 0x03BE   |
| Data Size    | 10 bytes |
| Instructions | 2        |

```
      00 01 02 03 04 05 06 07  08 09 0A 0B 0C 0D 0E 0F
      -- -- -- -- -- -- -- --  -- -- -- -- -- -- -- --
03B0:                                            37 BB                7.
03C0: 80 BA 80 68 80 BC 80 00                           ...h....        
```

#### Opcodes

```
  0: 0x03BE [0x37] UPDATE_EVENT_POSITION_AND_DIR: x=14.926*, z=-197.475*, y=-9.750*, direction=180.3°*
  1: 0x03C7 [0x00] END_REQSTACK()
```

### Event 65535.73

#### Metadata

| Field        | Value    |
|--------------|----------|
| Entrypoint   | 0x03C8   |
| Data Size    | 10 bytes |
| Instructions | 2        |

```
      00 01 02 03 04 05 06 07  08 09 0A 0B 0C 0D 0E 0F
      -- -- -- -- -- -- -- --  -- -- -- -- -- -- -- --
03C0:                          37 BD 80 BA 80 68 80 BC          7....h..
03D0: 80 00                                             ..              
```

#### Opcodes

```
  0: 0x03C8 [0x37] UPDATE_EVENT_POSITION_AND_DIR: x=15.526*, z=-197.475*, y=-9.750*, direction=180.3°*
  1: 0x03D1 [0x00] END_REQSTACK()
```

### Event 65535.74

#### Metadata

| Field        | Value    |
|--------------|----------|
| Entrypoint   | 0x03D2   |
| Data Size    | 10 bytes |
| Instructions | 2        |

```
      00 01 02 03 04 05 06 07  08 09 0A 0B 0C 0D 0E 0F
      -- -- -- -- -- -- -- --  -- -- -- -- -- -- -- --
03D0:       37 BE 80 BF 80 C0  80 C1 80 00                7.........    
```

#### Opcodes

```
  0: 0x03D2 [0x37] UPDATE_EVENT_POSITION_AND_DIR: x=22.058*, z=-191.994*, y=-5.250*, direction=60.0°*
  1: 0x03DB [0x00] END_REQSTACK()
```

### Event 65535.75

#### Metadata

| Field        | Value    |
|--------------|----------|
| Entrypoint   | 0x03DC   |
| Data Size    | 10 bytes |
| Instructions | 2        |

```
      00 01 02 03 04 05 06 07  08 09 0A 0B 0C 0D 0E 0F
      -- -- -- -- -- -- -- --  -- -- -- -- -- -- -- --
03D0:                                      37 C2 80 C3              7...
03E0: 80 C4 80 C5 80 00                                 ......          
```

#### Opcodes

```
  0: 0x03DC [0x37] UPDATE_EVENT_POSITION_AND_DIR: x=-109.783*, z=201.559*, y=-12.999*, direction=273.1°*
  1: 0x03E5 [0x00] END_REQSTACK()
```

### Event 65535.76

#### Metadata

| Field        | Value    |
|--------------|----------|
| Entrypoint   | 0x03E6   |
| Data Size    | 10 bytes |
| Instructions | 2        |

```
      00 01 02 03 04 05 06 07  08 09 0A 0B 0C 0D 0E 0F
      -- -- -- -- -- -- -- --  -- -- -- -- -- -- -- --
03E0:                   37 C6  80 C7 80 C8 80 C9 80 00        7.........
```

#### Opcodes

```
  0: 0x03E6 [0x37] UPDATE_EVENT_POSITION_AND_DIR: x=-106.082*, z=200.217*, y=-12.000*, direction=343.2°*
  1: 0x03EF [0x00] END_REQSTACK()
```

### Event 65535.77

#### Metadata

| Field        | Value    |
|--------------|----------|
| Entrypoint   | 0x03F0   |
| Data Size    | 10 bytes |
| Instructions | 2        |

```
      00 01 02 03 04 05 06 07  08 09 0A 0B 0C 0D 0E 0F
      -- -- -- -- -- -- -- --  -- -- -- -- -- -- -- --
03F0: 37 CA 80 CB 80 C8 80 CC  80 00                    7.........      
```

#### Opcodes

```
  0: 0x03F0 [0x37] UPDATE_EVENT_POSITION_AND_DIR: x=-104.660*, z=198.959*, y=-12.000*, direction=304.9°*
  1: 0x03F9 [0x00] END_REQSTACK()
```

### Event 65535.78

#### Metadata

| Field        | Value    |
|--------------|----------|
| Entrypoint   | 0x03FA   |
| Data Size    | 10 bytes |
| Instructions | 2        |

```
      00 01 02 03 04 05 06 07  08 09 0A 0B 0C 0D 0E 0F
      -- -- -- -- -- -- -- --  -- -- -- -- -- -- -- --
03F0:                                37 CD 80 CE 80 28            7....(
0400: 80 CF 80 00                                       ....            
```

#### Opcodes

```
  0: 0x03FA [0x37] UPDATE_EVENT_POSITION_AND_DIR: x=-56.169*, z=23.506*, y=-3.500*, direction=8.4°*
  1: 0x0403 [0x00] END_REQSTACK()
```

### Event 65535.79

#### Metadata

| Field        | Value    |
|--------------|----------|
| Entrypoint   | 0x0404   |
| Data Size    | 10 bytes |
| Instructions | 2        |

```
      00 01 02 03 04 05 06 07  08 09 0A 0B 0C 0D 0E 0F
      -- -- -- -- -- -- -- --  -- -- -- -- -- -- -- --
0400:             37 D0 80 D1  80 2C 80 D2 80 00            7....,....  
```

#### Opcodes

```
  0: 0x0404 [0x37] UPDATE_EVENT_POSITION_AND_DIR: x=-195.363*, z=-122.470*, y=-10.149*, direction=12.6°*
  1: 0x040D [0x00] END_REQSTACK()
```

### Event 65535.80

#### Metadata

| Field        | Value    |
|--------------|----------|
| Entrypoint   | 0x040E   |
| Data Size    | 10 bytes |
| Instructions | 2        |

```
      00 01 02 03 04 05 06 07  08 09 0A 0B 0C 0D 0E 0F
      -- -- -- -- -- -- -- --  -- -- -- -- -- -- -- --
0400:                                            37 D3                7.
0410: 80 D4 80 9C 80 D5 80 00                           ........        
```

#### Opcodes

```
  0: 0x040E [0x37] UPDATE_EVENT_POSITION_AND_DIR: x=-194.712*, z=-123.771*, y=-10.150*, direction=275.0°*
  1: 0x0417 [0x00] END_REQSTACK()
```

### Event 65535.81

#### Metadata

| Field        | Value    |
|--------------|----------|
| Entrypoint   | 0x0418   |
| Data Size    | 10 bytes |
| Instructions | 2        |

```
      00 01 02 03 04 05 06 07  08 09 0A 0B 0C 0D 0E 0F
      -- -- -- -- -- -- -- --  -- -- -- -- -- -- -- --
0410:                          37 D6 80 D7 80 34 80 D8          7....4..
0420: 80 00                                             ..              
```

#### Opcodes

```
  0: 0x0418 [0x37] UPDATE_EVENT_POSITION_AND_DIR: x=-26.581*, z=105.465*, y=-5.249*, direction=139.0°*
  1: 0x0421 [0x00] END_REQSTACK()
```

### Event 65535.82

#### Metadata

| Field        | Value    |
|--------------|----------|
| Entrypoint   | 0x0422   |
| Data Size    | 15 bytes |
| Instructions | 5        |

```
      00 01 02 03 04 05 06 07  08 09 0A 0B 0C 0D 0E 0F
      -- -- -- -- -- -- -- --  -- -- -- -- -- -- -- --
0420:       32 55 80 1F 00 D9  80 DA 80 34 80 1F 01 6F    2U.......4...o
0430: 00                                                .               
```

#### Opcodes

```
  0: 0x0422 [0x32] ExtData[1]->MainSpeed = 13* * 0.1
  1: 0x0425 [0x1F] MOVE_ENTITY: EventEntity moves to X=-24.930*, Z=102.340*, Y=-5.249*
  2: 0x042D [0x1F] MOVE_ENTITY: Update entity position (mode=1)
  3: 0x042F [0x6F] WAIT_FRAME_DELAY: Yield until WaitTime reaches zero
  4: 0x0430 [0x00] END_REQSTACK()
```

### Event 65535.83

#### Metadata

| Field        | Value    |
|--------------|----------|
| Entrypoint   | 0x0431   |
| Data Size    | 10 bytes |
| Instructions | 2        |

```
      00 01 02 03 04 05 06 07  08 09 0A 0B 0C 0D 0E 0F
      -- -- -- -- -- -- -- --  -- -- -- -- -- -- -- --
0430:    37 DB 80 DC 80 64 80  DD 80 00                  7....d....     
```

#### Opcodes

```
  0: 0x0431 [0x37] UPDATE_EVENT_POSITION_AND_DIR: x=13.485*, z=-196.323*, y=-9.749*, direction=135.4°*
  1: 0x043A [0x00] END_REQSTACK()
```

### Event 65535.84

#### Metadata

| Field        | Value    |
|--------------|----------|
| Entrypoint   | 0x043B   |
| Data Size    | 10 bytes |
| Instructions | 2        |

```
      00 01 02 03 04 05 06 07  08 09 0A 0B 0C 0D 0E 0F
      -- -- -- -- -- -- -- --  -- -- -- -- -- -- -- --
0430:                                   37 DE 80 DF 80             7....
0440: 64 80 E0 80 00                                    d....           
```

#### Opcodes

```
  0: 0x043B [0x37] UPDATE_EVENT_POSITION_AND_DIR: x=16.997*, z=-190.146*, y=-9.749*, direction=350.2°*
  1: 0x0444 [0x00] END_REQSTACK()
```

### Event 65535.85

#### Metadata

| Field        | Value    |
|--------------|----------|
| Entrypoint   | 0x0445   |
| Data Size    | 19 bytes |
| Instructions | 7        |

```
      00 01 02 03 04 05 06 07  08 09 0A 0B 0C 0D 0E 0F
      -- -- -- -- -- -- -- --  -- -- -- -- -- -- -- --
0440:                61 00 32  E1 80 1F 00 E2 80 E3 80       a.2........
0450: 64 80 1F 01 6F 61 01 00                           d...oa..        
```

#### Opcodes

```
  0: 0x0445 [0x61] EventEntity->Render.Flags2 &= ~0x00000001
  1: 0x0447 [0x32] ExtData[1]->MainSpeed = 40* * 0.1
  2: 0x044A [0x1F] MOVE_ENTITY: EventEntity moves to X=24.999*, Z=-192.117*, Y=-9.749*
  3: 0x0452 [0x1F] MOVE_ENTITY: Update entity position (mode=1)
  4: 0x0454 [0x6F] WAIT_FRAME_DELAY: Yield until WaitTime reaches zero
  5: 0x0455 [0x61] EventEntity->Render.Flags2 |= 0x00000001
  6: 0x0457 [0x00] END_REQSTACK()
```

### Event 65535.86

#### Metadata

| Field        | Value    |
|--------------|----------|
| Entrypoint   | 0x0458   |
| Data Size    | 10 bytes |
| Instructions | 2        |

```
      00 01 02 03 04 05 06 07  08 09 0A 0B 0C 0D 0E 0F
      -- -- -- -- -- -- -- --  -- -- -- -- -- -- -- --
0450:                          37 E4 80 E5 80 64 80 E6          7....d..
0460: 80 00                                             ..              
```

#### Opcodes

```
  0: 0x0458 [0x37] UPDATE_EVENT_POSITION_AND_DIR: x=16.450*, z=-196.526*, y=-9.749*, direction=178.6°*
  1: 0x0461 [0x00] END_REQSTACK()
```

### Event 65535.87

#### Metadata

| Field        | Value    |
|--------------|----------|
| Entrypoint   | 0x0462   |
| Data Size    | 14 bytes |
| Instructions | 4        |

```
      00 01 02 03 04 05 06 07  08 09 0A 0B 0C 0D 0E 0F
      -- -- -- -- -- -- -- --  -- -- -- -- -- -- -- --
0460:       32 55 80 1F 00 E7  80 E8 80 64 80 1F 01 00    2U.......d....
```

#### Opcodes

```
  0: 0x0462 [0x32] ExtData[1]->MainSpeed = 13* * 0.1
