# Event 38

## Metadata

| Field           | Value    |
|-----------------|----------|
| Event Index     | 4/6      |
| Offset          | 0x1141   |
| Data Size       | 59 bytes |
| Calculated Size | 59 bytes |
| Instructions    | 13       |

```
      00 01 02 03 04 05 06 07  08 09 0A 0B 0C 0D 0E 0F
      -- -- -- -- -- -- -- --  -- -- -- -- -- -- -- --
1140:    42 06 01 10 24 6D 80  10 80 10 80 25 02 00 10   B...$m.....%...
1150: 10 80 00 7A 11 CD 6E 80  F0 FF FF 7F F0 FF FF 7F  ...z..n.........
1160: 6D 61 69 6E 10 80 1C 6F  80 92 01 F0 FF FF 7F 1C  main...o........
1170: 1F 80 03 01 10 5A 80 01  7A 11 21 00              .....Z..z.!.    
```

## Opcodes

```
  0: 0x1141 [0x42] SET_CLI_EVENT_CANCEL_DATA()
  1: 0x1142 [0x06] Work_Zone[1] = 0
  2: 0x1145 [0x24] CREATE_DIALOG(message_id=8672*, default_option=0*, option_flags=0*)
    → "Warp to the Walk of Echoes?\u0007\u000BProceed.\u0007Not yet.\u007F1\u0000\u0007"
  3: 0x114C [0x25] WAIT_DIALOG_SELECT()
  4: 0x114D [0x02] IF !(Work_Zone[0] == 0*) GOTO 0x117A
  5: 0x1155 [0xCD] LOAD_SCHEDULED_TASK_ALT4(work_offset=79*, entity1=LocalPlayer, entity2=LocalPlayer, action="main", work_offset2=0*)
  6: 0x1166 [0x1C] WAIT(150* ticks)
  7: 0x1169 [0x92] LocalPlayer->Render.Flags3 ^= 0x01
  8: 0x116F [0x1C] WAIT(40* ticks)
  9: 0x1172 [0x03] Work_Zone[1] = 99*
 10: 0x1177 [0x01] GOTO 0x117A

SUBROUTINE_117A:
 11: 0x117A [0x21] END_EVENT
 12: 0x117B [0x00] END_REQSTACK()
```
