# Event 65535

## Metadata

| Field           | Value    |
|-----------------|----------|
| Event Index     | 55/61    |
| Offset          | 0x0369   |
| Data Size       | 52 bytes |
| Calculated Size | 52 bytes |
| Instructions    | 12       |

```
      00 01 02 03 04 05 06 07  08 09 0A 0B 0C 0D 0E 0F
      -- -- -- -- -- -- -- --  -- -- -- -- -- -- -- --
0360:                             32 0B 80 1F 00 65 80           2....e.
0370: 66 80 09 80 1F 01 1F 00  67 80 68 80 09 80 1F 01  f.......g.h.....
0380: 27 10 D2 20 03 01 0D 1F  00 69 80 6A 80 09 80 1F  '.. .....i.j....
0390: 01 1F 00 6B 80 6C 80 09  80 1F 01 6F 00           ...k.l.....o.   
```

## Opcodes

```
  0: 0x0369 [0x32] ExtData[1]->MainSpeed = 13* * 0.1
  1: 0x036C [0x1F] MOVE_ENTITY: EventEntity moves to X=75.971*, Z=-126.222*, Y=-6.000*
  2: 0x0374 [0x1F] MOVE_ENTITY: Update entity position (mode=1)
  3: 0x0376 [0x1F] MOVE_ENTITY: EventEntity moves to X=77.130*, Z=-124.049*, Y=-6.000*
  4: 0x037E [0x1F] MOVE_ENTITY: Update entity position (mode=1)
  5: 0x0380 [0x27] REQ_SET(priority=0x10, entity_id=Travialce (ID: 16982226/0x010320D2), tag_num=0x0D)
  6: 0x0387 [0x1F] MOVE_ENTITY: EventEntity moves to X=77.546*, Z=-121.314*, Y=-6.000*
  7: 0x038F [0x1F] MOVE_ENTITY: Update entity position (mode=1)
  8: 0x0391 [0x1F] MOVE_ENTITY: EventEntity moves to X=76.271*, Z=-118.644*, Y=-6.000*
  9: 0x0399 [0x1F] MOVE_ENTITY: Update entity position (mode=1)
 10: 0x039B [0x6F] WAIT_FRAME_DELAY: Yield until WaitTime reaches zero
 11: 0x039C [0x00] END_REQSTACK()
```
