# Event 421

## Metadata

| Field           | Value    |
|-----------------|----------|
| Event Index     | 3/14     |
| Offset          | 0x0154   |
| Data Size       | 26 bytes |
| Calculated Size | 26 bytes |
| Instructions    | 10       |

```
      00 01 02 03 04 05 06 07  08 09 0A 0B 0C 0D 0E 0F
      -- -- -- -- -- -- -- --  -- -- -- -- -- -- -- --
0150:             03 41 10 00  80 42 1E F0 FF FF 7F 03      .A...B......
0160: 1D 00 02 10 1D 01 80 23  1D 2F 80 23 21 00        .......#./.#!.  
```

## Opcodes

```
  0: 0x0154 [0x03] Work_Zone[65] = 0*
  1: 0x0159 [0x42] SET_CLI_EVENT_CANCEL_DATA()
  2: 0x015A [0x1E] EventEntity looks at LocalPlayer and starts talking
  3: 0x015F [0x03] ExtData[1]->WorkLocal[29] = Work_Zone[2]
  4: 0x0164 [0x1D] PRINT_EVENT_MESSAGE(message_id=8912*)
    → "Welcome to the Chocobo Racing Association's (CRA) \u000C\u0000[San d'Oria/Bastok/Windurst] branch.\u0007This service desk is here to accommodate our beginning and intermediate racers.\u007F1\u0000\u0007"
  5: 0x0167 [0x23] WAIT_FOR_DIALOG_INTERACTION
  6: 0x0168 [0x1D] PRINT_EVENT_MESSAGE(message_id=9363*)
    → "My apologies, \u007F\u0005[sir/ma'am], but it appears that you have yet to conduct all of the necessary processing at the service area for advanced and veteran racers. Please speak to the attendants there for further assistance.\u007F1\u0000\u0007"
  7: 0x016B [0x23] WAIT_FOR_DIALOG_INTERACTION
  8: 0x016C [0x21] END_EVENT
  9: 0x016D [0x00] END_REQSTACK()
```
