# 17244656 - Lokpix

## Common Data

| Field            | Value                           |
|------------------|---------------------------------|
| Zone             | Eastern Altepa Desert (ID: 114) |
| Block Size       | 948 bytes                       |
| Total Events     | 6                               |
| References Count | 32                              |

## List of Events

| Event ID              | Entrypoint   |   Size |   Instructions |
|-----------------------|--------------|--------|----------------|
| [65535](#event-65535) | 0x0000       |      1 |              1 |
| [20](#event-20)       | 0x0001       |     85 |             21 |
| [21](#event-21)       | 0x0056       |     40 |              8 |
| [22](#event-22)       | 0x007E       |    330 |             43 |
| [23](#event-23)       | 0x01C8       |     44 |             10 |
| [24](#event-24)       | 0x01F4       |    279 |             49 |

## DAT References (imed_data)

|   Index | Hex Value   |   Dec Value |
|---------|-------------|-------------|
|       0 | 0x00D7      |         215 |
|       1 | 0x2B4B      |       11083 |
|       2 | 0x2B4C      |       11084 |
|       3 | 0x2B4D      |       11085 |
|       4 | 0x0001      |           1 |
|       5 | 0x0000      |           0 |
|       6 | 0x2B4E      |       11086 |
|       7 | 0x2B57      |       11095 |
|       8 | 0x0FF0      |        4080 |
|       9 | 0x003C      |          60 |
|      10 | 0x00D8      |         216 |
|      11 | 0x0078      |         120 |
|      12 | 0x001E      |          30 |
|      13 | 0x0803      |        2051 |
|      14 | 0x2B58      |       11096 |
|      15 | 0x2B59      |       11097 |
|      16 | 0x00C9      |         201 |
|      17 | 0x2B5A      |       11098 |
|      18 | 0x2B5B      |       11099 |
|      19 | 0x2B4F      |       11087 |
|      20 | 0x2B50      |       11088 |
|      21 | 0x2B51      |       11089 |
|      22 | 0x2B53      |       11091 |
|      23 | 0x2B52      |       11090 |
|      24 | 0x0002      |           2 |
|      25 | 0x0AEC      |        2796 |
|      26 | 0x0246      |         582 |
|      27 | 0x0CF7      |        3319 |
|      28 | 0x0CE4      |        3300 |
|      29 | 0x2B54      |       11092 |
|      30 | 0x2B55      |       11093 |
|      31 | 0x2B56      |       11094 |

## String References

- **11083**: Who da heck are ya? Me? I's Lokpix. I goes all 'round da Altepa Desert, gatherin' information and scoutin' da land.
- **11084**: I's sure I knows more 'bouts dese dunes dan anybody in da hist'ry of Vana'diel. Fer example, ya know 'bouts da trick door in da Quicksand Caves?
- **11085**: Do ya know? [Doesn't everybody?/Not at all.]
- **11086**: Of course ya don't. Anyways, Lets me enlighten ya. Its origin is one of dem long-ago-and-far-away type of stories, but to cut out da borin' part, it relies on a special gadgetywhatsit dat's weight-sensitive. One Galka's enough to get dat baby to move, but any odda race would need more people to activates it.
- **11087**: Boy, has I gots some good news fer ya. Dis is somethin' only us Goblins know. It involves openin' dat door wit'out da help of odda adventurers, y'see.
- **11088**: You wanna knows how to do dat, don'tcha? How coulds ya not?
- **11089**: Well, do ya? [Without a doubt./I couldn't care less.]
- **11090**: Yer loss if ya don't wanna learn dis super-duper Gobby trick. You'll regrets it. I can already tells.
- **11091**: Well den, lets me impart my knowledges to ya, so dey say. Also, you knows da phrase, "Nothin' in life is free"? Well, dat goes double fer Goblin knowledge.
- **11092**: Bring me $0 and $1 if ya wants da secret. I ain't picky, neither, so if ya got no $1, then $2 will do ya right.
- **11093**: And if fer some reason ya ain't got one of dem either, I ain't averse to collectin' some $3. Yeah, twelve of 'em should do da trick.
- **11094**: And play by da numbers, kid. I ain't givin' out no discounts. Why? ...Because! Dat's why.
- **11095**: I see ya broughts 'em. Now stand back whiles I works my magic.
- **11096**: Ta-da! You's now da proud owner of yer very own $3!
- **11097**: Smackin' dis rock o' wonders causes it to get heavier fer da briefest o' moments. Don't bother aksin' how I can makes somethin' so astonishin'. Dat's a Goblin trade secret.
- **11098**: Dese fer me, eh? So nice doin' busin... Ya tryin' to pull a fast one on me!? Dese ain't what I aksed fer! Ya wants dis super-special secret or not? Den listen close now...
- **11099**: You been usin' dat $3 to enter dem Quicksand Caves all by yerself? Ya ain't gots to thank me. Helpin' friends in need is whats I do...fer a price. Enjoy lootin' and pillagin' dem caverns, [Mr./Ms.] satisfied customer.

## Events

### Event 65535

#### Metadata

| Field        | Value   |
|--------------|---------|
| Entrypoint   | 0x0000  |
| Data Size    | 1 bytes |
| Instructions | 1       |

```
      00 01 02 03 04 05 06 07  08 09 0A 0B 0C 0D 0E 0F
      -- -- -- -- -- -- -- --  -- -- -- -- -- -- -- --
0000: 00                                                .               
```

#### Opcodes

```
  0: 0x0000 [0x00] END_REQSTACK()
```

### Event 20

#### Metadata

| Field        | Value    |
|--------------|----------|
| Entrypoint   | 0x0001   |
| Data Size    | 85 bytes |
| Instructions | 21       |

```
      00 01 02 03 04 05 06 07  08 09 0A 0B 0C 0D 0E 0F
      -- -- -- -- -- -- -- --  -- -- -- -- -- -- -- --
0000:    1E F0 FF FF 7F 6F 70  5B 00 80 F8 FF FF 7F F8   .....op[.......
0010: FF FF 7F 74 6C 6B 30 53  F8 FF FF 7F F8 FF FF 7F  ...tlk0S........
0020: 74 6C 6B 30 1D 01 80 23  1D 02 80 23 24 03 80 04  tlk0...#...#$...
0030: 80 05 80 25 02 00 10 05  80 00 42 00 1A 22 02 01  ...%......B.."..
0040: 54 00 02 00 10 04 80 00  54 00 1D 06 80 23 1A 22  T.......T....#."
0050: 02 01 54 00 21 00                                 ..T.!.          
```

#### Opcodes

```
  0: 0x0001 [0x1E] EventEntity looks at LocalPlayer and starts talking
  1: 0x0006 [0x6F] WAIT_FRAME_DELAY: Yield until WaitTime reaches zero
  2: 0x0007 [0x70] WAIT_ENTITY_RENDER_FLAG: Wait while EventEntity->Render.Flags3 bit 2 is set (cancel turn if not)
  3: 0x0008 [0x5B] LOAD_EXT_SCHEDULER: Load scheduler "tlk0" with entities [EventEntity, EventEntity], work=215*
  4: 0x0017 [0x53] WAIT_SCHEDULER_TASK: Wait for scheduler "tlk0" with entities [EventEntity, EventEntity]
  5: 0x0024 [0x1D] PRINT_EVENT_MESSAGE(message_id=11083*)
    → "Who da heck are ya? Me? I's Lokpix. I goes all 'round da Altepa Desert, gatherin' information and scoutin' da land."
  6: 0x0027 [0x23] WAIT_FOR_DIALOG_INTERACTION
  7: 0x0028 [0x1D] PRINT_EVENT_MESSAGE(message_id=11084*)
    → "I's sure I knows more 'bouts dese dunes dan anybody in da hist'ry of Vana'diel. Fer example, ya know 'bouts da trick door in da Quicksand Caves?"
  8: 0x002B [0x23] WAIT_FOR_DIALOG_INTERACTION
  9: 0x002C [0x24] CREATE_DIALOG(message_id=11085*, default_option=1*, option_flags=0*)
    → "Do ya know? [Doesn't everybody?/Not at all.]"
 10: 0x0033 [0x25] WAIT_DIALOG_SELECT()
 11: 0x0034 [0x02] IF !(Work_Zone[0] == 0*) GOTO 0x0042
 12: 0x003C [0x1A] CALL_SUBROUTINE(address=0x0222)
 13: 0x003F [0x01] GOTO 0x0054
 14: 0x0042 [0x02] IF !(Work_Zone[0] == 1*) GOTO 0x0054
 15: 0x004A [0x1D] PRINT_EVENT_MESSAGE(message_id=11086*)
    → "Of course ya don't. Anyways, Lets me enlighten ya. Its origin is one of dem long-ago-and-far-away type of stories, but to cut out da borin' part, it relies on a special gadgetywhatsit dat's weight-sensitive. One Galka's enough to get dat baby to move, but any odda race would need more people to activates it."
 16: 0x004D [0x23] WAIT_FOR_DIALOG_INTERACTION
 17: 0x004E [0x1A] CALL_SUBROUTINE(address=0x0222)
 18: 0x0051 [0x01] GOTO 0x0054

SUBROUTINE_0054:
 19: 0x0054 [0x21] END_EVENT
 20: 0x0055 [0x00] END_REQSTACK()
```

### Event 21

#### Metadata

| Field        | Value    |
|--------------|----------|
| Entrypoint   | 0x0056   |
| Data Size    | 40 bytes |
| Instructions | 8        |

```
      00 01 02 03 04 05 06 07  08 09 0A 0B 0C 0D 0E 0F
      -- -- -- -- -- -- -- --  -- -- -- -- -- -- -- --
0050:                   1E F0  FF FF 7F 6F 70 5B 00 80        .....op[..
0060: F8 FF FF 7F F8 FF FF 7F  74 6C 6B 30 53 F8 FF FF  ........tlk0S...
0070: 7F F8 FF FF 7F 74 6C 6B  30 1A EA 02 21 00        .....tlk0...!.  
```

#### Opcodes

```
  0: 0x0056 [0x1E] EventEntity looks at LocalPlayer and starts talking
  1: 0x005B [0x6F] WAIT_FRAME_DELAY: Yield until WaitTime reaches zero
  2: 0x005C [0x70] WAIT_ENTITY_RENDER_FLAG: Wait while EventEntity->Render.Flags3 bit 2 is set (cancel turn if not)
  3: 0x005D [0x5B] LOAD_EXT_SCHEDULER: Load scheduler "tlk0" with entities [EventEntity, EventEntity], work=215*
  4: 0x006C [0x53] WAIT_SCHEDULER_TASK: Wait for scheduler "tlk0" with entities [EventEntity, EventEntity]
  5: 0x0079 [0x1A] CALL_SUBROUTINE(address=0x02EA)
  6: 0x007C [0x21] END_EVENT
  7: 0x007D [0x00] END_REQSTACK()
```

### Event 22

#### Metadata

| Field        | Value     |
|--------------|-----------|
| Entrypoint   | 0x007E    |
| Data Size    | 330 bytes |
| Instructions | 43        |

```
      00 01 02 03 04 05 06 07  08 09 0A 0B 0C 0D 0E 0F
      -- -- -- -- -- -- -- --  -- -- -- -- -- -- -- --
0070:                                            20 01                 .
0080: 42 1E F0 FF FF 7F 6F 70  5B 00 80 F8 FF FF 7F F8  B.....op[.......
0090: FF FF 7F 74 6C 6B 30 53  F8 FF FF 7F F8 FF FF 7F  ...tlk0S........
00A0: 74 6C 6B 30 1D 07 80 23  4B F8 FF FF 7F 08 80 1C  tlk0...#K.......
00B0: 09 80 5B 0A 80 F8 FF FF  7F F8 FF FF 7F 68 61 70  ..[..........hap
00C0: 30 53 F8 FF FF 7F F8 FF  FF 7F 68 61 70 30 1C 0B  0S........hap0..
00D0: 80 5B 0A 80 F8 FF FF 7F  F8 FF FF 7F 68 61 70 31  .[..........hap1
00E0: 53 F8 FF FF 7F F8 FF FF  7F 68 61 70 31 1C 09 80  S........hap1...
00F0: 5B 0A 80 F8 FF FF 7F F8  FF FF 7F 66 6E 64 30 53  [..........fnd0S
0100: F8 FF FF 7F F8 FF FF 7F  66 6E 64 30 5B 0A 80 F8  ........fnd0[...
0110: FF FF 7F F8 FF FF 7F 66  6E 64 31 53 F8 FF FF 7F  .......fnd1S....
0120: F8 FF FF 7F 66 6E 64 31  1C 0C 80 5B 0A 80 F8 FF  ....fnd1...[....
0130: FF 7F F8 FF FF 7F 61 6E  67 30 53 F8 FF FF 7F F8  ......ang0S.....
0140: FF FF 7F 61 6E 67 30 1C  0B 80 5B 0A 80 F8 FF FF  ...ang0...[.....
0150: 7F F8 FF FF 7F 61 6E 67  31 53 F8 FF FF 7F F8 FF  .....ang1S......
0160: FF 7F 61 6E 67 31 1C 09  80 1E F0 FF FF 7F 6F 70  ..ang1........op
0170: 5B 00 80 F8 FF FF 7F F8  FF FF 7F 74 6C 6B 30 53  [..........tlk0S
0180: F8 FF FF 7F F8 FF FF 7F  74 6C 6B 30 03 02 10 0D  ........tlk0....
0190: 80 1D 0E 80 23 1D 0F 80  23 5B 00 80 F8 FF FF 7F  ....#...#[......
01A0: F8 FF FF 7F 70 61 73 30  53 F8 FF FF 7F F8 FF FF  ....pas0S.......
01B0: 7F 70 61 73 30 45 10 80  F8 FF FF 7F F8 FF FF 7F  .pas0E..........
01C0: 71 73 74 63 05 80 21 00                           qstc..!.        
```

#### Opcodes

```
  0: 0x007E [0x20] SET_CLI_EVENT_UC_FLAG: Lock player control
  1: 0x0080 [0x42] SET_CLI_EVENT_CANCEL_DATA()
  2: 0x0081 [0x1E] EventEntity looks at LocalPlayer and starts talking
  3: 0x0086 [0x6F] WAIT_FRAME_DELAY: Yield until WaitTime reaches zero
  4: 0x0087 [0x70] WAIT_ENTITY_RENDER_FLAG: Wait while EventEntity->Render.Flags3 bit 2 is set (cancel turn if not)
  5: 0x0088 [0x5B] LOAD_EXT_SCHEDULER: Load scheduler "tlk0" with entities [EventEntity, EventEntity], work=215*
  6: 0x0097 [0x53] WAIT_SCHEDULER_TASK: Wait for scheduler "tlk0" with entities [EventEntity, EventEntity]
  7: 0x00A4 [0x1D] PRINT_EVENT_MESSAGE(message_id=11095*)
    → "I see ya broughts 'em. Now stand back whiles I works my magic."
  8: 0x00A7 [0x23] WAIT_FOR_DIALOG_INTERACTION
  9: 0x00A8 [0x4B] UPDATE_ENTITY_YAW(entity=EventEntity, yaw=22.4°*)
 10: 0x00AF [0x1C] WAIT(60* ticks)
 11: 0x00B2 [0x5B] LOAD_EXT_SCHEDULER: Load scheduler "hap0" with entities [EventEntity, EventEntity], work=216*
 12: 0x00C1 [0x53] WAIT_SCHEDULER_TASK: Wait for scheduler "hap0" with entities [EventEntity, EventEntity]
 13: 0x00CE [0x1C] WAIT(120* ticks)
 14: 0x00D1 [0x5B] LOAD_EXT_SCHEDULER: Load scheduler "hap1" with entities [EventEntity, EventEntity], work=216*
 15: 0x00E0 [0x53] WAIT_SCHEDULER_TASK: Wait for scheduler "hap1" with entities [EventEntity, EventEntity]
 16: 0x00ED [0x1C] WAIT(60* ticks)
 17: 0x00F0 [0x5B] LOAD_EXT_SCHEDULER: Load scheduler "fnd0" with entities [EventEntity, EventEntity], work=216*
 18: 0x00FF [0x53] WAIT_SCHEDULER_TASK: Wait for scheduler "fnd0" with entities [EventEntity, EventEntity]
 19: 0x010C [0x5B] LOAD_EXT_SCHEDULER: Load scheduler "fnd1" with entities [EventEntity, EventEntity], work=216*
 20: 0x011B [0x53] WAIT_SCHEDULER_TASK: Wait for scheduler "fnd1" with entities [EventEntity, EventEntity]
 21: 0x0128 [0x1C] WAIT(30* ticks)
 22: 0x012B [0x5B] LOAD_EXT_SCHEDULER: Load scheduler "ang0" with entities [EventEntity, EventEntity], work=216*
 23: 0x013A [0x53] WAIT_SCHEDULER_TASK: Wait for scheduler "ang0" with entities [EventEntity, EventEntity]
 24: 0x0147 [0x1C] WAIT(120* ticks)
 25: 0x014A [0x5B] LOAD_EXT_SCHEDULER: Load scheduler "ang1" with entities [EventEntity, EventEntity], work=216*
 26: 0x0159 [0x53] WAIT_SCHEDULER_TASK: Wait for scheduler "ang1" with entities [EventEntity, EventEntity]
 27: 0x0166 [0x1C] WAIT(60* ticks)
 28: 0x0169 [0x1E] EventEntity looks at LocalPlayer and starts talking
 29: 0x016E [0x6F] WAIT_FRAME_DELAY: Yield until WaitTime reaches zero
 30: 0x016F [0x70] WAIT_ENTITY_RENDER_FLAG: Wait while EventEntity->Render.Flags3 bit 2 is set (cancel turn if not)
 31: 0x0170 [0x5B] LOAD_EXT_SCHEDULER: Load scheduler "tlk0" with entities [EventEntity, EventEntity], work=215*
 32: 0x017F [0x53] WAIT_SCHEDULER_TASK: Wait for scheduler "tlk0" with entities [EventEntity, EventEntity]
 33: 0x018C [0x03] Work_Zone[2] = 2051*
 34: 0x0191 [0x1D] PRINT_EVENT_MESSAGE(message_id=11096*)
    → "Ta-da! You's now da proud owner of yer very own $3!"
 35: 0x0194 [0x23] WAIT_FOR_DIALOG_INTERACTION
 36: 0x0195 [0x1D] PRINT_EVENT_MESSAGE(message_id=11097*)
    → "Smackin' dis rock o' wonders causes it to get heavier fer da briefest o' moments. Don't bother aksin' how I can makes somethin' so astonishin'. Dat's a Goblin trade secret."
 37: 0x0198 [0x23] WAIT_FOR_DIALOG_INTERACTION
 38: 0x0199 [0x5B] LOAD_EXT_SCHEDULER: Load scheduler "pas0" with entities [EventEntity, EventEntity], work=215*
 39: 0x01A8 [0x53] WAIT_SCHEDULER_TASK: Wait for scheduler "pas0" with entities [EventEntity, EventEntity]
 40: 0x01B5 [0x45] LOAD_SCHEDULED_TASK: Load scheduler "qstc" with entities [EventEntity, EventEntity], work=[201*, 0*]
 41: 0x01C6 [0x21] END_EVENT
 42: 0x01C7 [0x00] END_REQSTACK()
```

### Event 23

#### Metadata

| Field        | Value    |
|--------------|----------|
| Entrypoint   | 0x01C8   |
| Data Size    | 44 bytes |
| Instructions | 10       |

```
      00 01 02 03 04 05 06 07  08 09 0A 0B 0C 0D 0E 0F
      -- -- -- -- -- -- -- --  -- -- -- -- -- -- -- --
01C0:                          1E F0 FF FF 7F 6F 70 5B          .....op[
01D0: 00 80 F8 FF FF 7F F8 FF  FF 7F 74 6C 6B 30 53 F8  ..........tlk0S.
01E0: FF FF 7F F8 FF FF 7F 74  6C 6B 30 1D 11 80 23 1A  .......tlk0...#.
01F0: EA 02 21 00                                       ..!.            
```

#### Opcodes

```
  0: 0x01C8 [0x1E] EventEntity looks at LocalPlayer and starts talking
  1: 0x01CD [0x6F] WAIT_FRAME_DELAY: Yield until WaitTime reaches zero
  2: 0x01CE [0x70] WAIT_ENTITY_RENDER_FLAG: Wait while EventEntity->Render.Flags3 bit 2 is set (cancel turn if not)
  3: 0x01CF [0x5B] LOAD_EXT_SCHEDULER: Load scheduler "tlk0" with entities [EventEntity, EventEntity], work=215*
  4: 0x01DE [0x53] WAIT_SCHEDULER_TASK: Wait for scheduler "tlk0" with entities [EventEntity, EventEntity]
  5: 0x01EB [0x1D] PRINT_EVENT_MESSAGE(message_id=11098*)
    → "Dese fer me, eh? So nice doin' busin... Ya tryin' to pull a fast one on me!? Dese ain't what I aksed fer! Ya wants dis super-special secret or not? Den listen close now..."
  6: 0x01EE [0x23] WAIT_FOR_DIALOG_INTERACTION
  7: 0x01EF [0x1A] CALL_SUBROUTINE(address=0x02EA)
  8: 0x01F2 [0x21] END_EVENT
  9: 0x01F3 [0x00] END_REQSTACK()
```

### Event 24

#### Metadata

| Field        | Value     |
|--------------|-----------|
| Entrypoint   | 0x01F4    |
| Data Size    | 279 bytes |
| Instructions | 10        |

```
      00 01 02 03 04 05 06 07  08 09 0A 0B 0C 0D 0E 0F
      -- -- -- -- -- -- -- --  -- -- -- -- -- -- -- --
01F0:             1E F0 FF FF  7F 6F 70 5B 00 80 F8 FF      .....op[....
0200: FF 7F F8 FF FF 7F 74 6C  6B 30 53 F8 FF FF 7F F8  ......tlk0S.....
0210: FF FF 7F 74 6C 6B 30 03  02 10 0D 80 1D 12 80 23  ...tlk0........#
0220: 21 00 1D 13 80 23 1D 14  80 23 24 15 80 04 80 05  !....#...#$.....
0230: 80 25 02 00 10 05 80 00  81 02 5B 00 80 F8 FF FF  .%........[.....
0240: 7F F8 FF FF 7F 74 6C 6B  31 53 F8 FF FF 7F F8 FF  .....tlk1S......
0250: FF 7F 74 6C 6B 31 1D 16  80 23 5B 00 80 F8 FF FF  ..tlk1...#[.....
0260: 7F F8 FF FF 7F 74 6C 6B  30 53 F8 FF FF 7F F8 FF  .....tlk0S......
0270: FF 7F 74 6C 6B 30 1A EA  02 03 01 10 04 80 01 E9  ..tlk0..........
0280: 02 02 00 10 04 80 00 E9  02 5B 0A 80 F8 FF FF 7F  .........[......
0290: F8 FF FF 7F 62 69 6B 30  53 F8 FF FF 7F F8 FF FF  ....bik0S.......
02A0: 7F 62 69 6B 30 5B 0A 80  F8 FF FF 7F F8 FF FF 7F  .bik0[..........
02B0: 62 69 6B 31 53 F8 FF FF  7F F8 FF FF 7F 62 69 6B  bik1S........bik
02C0: 31 5B 00 80 F8 FF FF 7F  F8 FF FF 7F 74 6C 6B 30  1[..........tlk0
02D0: 53 F8 FF FF 7F F8 FF FF  7F 74 6C 6B 30 1D 17 80  S........tlk0...
02E0: 23 03 01 10 18 80 01 E9  02 1B 03 02 10 19 80 03  #...............
02F0: 03 10 1A 80 03 04 10 1B  80 03 05 10 1C 80 1D 1D  ................
0300: 80 23 1D 1E 80 23 1D 1F  80 23 1B                 .#...#...#.     
```

#### Opcodes

```
  0: 0x01F4 [0x1E] EventEntity looks at LocalPlayer and starts talking
  1: 0x01F9 [0x6F] WAIT_FRAME_DELAY: Yield until WaitTime reaches zero
  2: 0x01FA [0x70] WAIT_ENTITY_RENDER_FLAG: Wait while EventEntity->Render.Flags3 bit 2 is set (cancel turn if not)
  3: 0x01FB [0x5B] LOAD_EXT_SCHEDULER: Load scheduler "tlk0" with entities [EventEntity, EventEntity], work=215*
  4: 0x020A [0x53] WAIT_SCHEDULER_TASK: Wait for scheduler "tlk0" with entities [EventEntity, EventEntity]
  5: 0x0217 [0x03] Work_Zone[2] = 2051*
  6: 0x021C [0x1D] PRINT_EVENT_MESSAGE(message_id=11099*)
    → "You been usin' dat $3 to enter dem Quicksand Caves all by yerself? Ya ain't gots to thank me. Helpin' friends in need is whats I do...fer a price. Enjoy lootin' and pillagin' dem caverns, [Mr./Ms.] satisfied customer."
  7: 0x021F [0x23] WAIT_FOR_DIALOG_INTERACTION
  8: 0x0220 [0x21] END_EVENT
  9: 0x0221 [0x00] END_REQSTACK()
```

#### Data or dead code:

```
# Dead code (unreachable instructions):
     0x0222 [0x1D] PRINT_EVENT_MESSAGE(message_id=11087*)
    → "Boy, has I gots some good news fer ya. Dis is somethin' only us Goblins know. It involves openin' dat door wit'out da help of odda adventurers, y'see."
     0x0225 [0x23] WAIT_FOR_DIALOG_INTERACTION
     0x0226 [0x1D] PRINT_EVENT_MESSAGE(message_id=11088*)
    → "You wanna knows how to do dat, don'tcha? How coulds ya not?"
     0x0229 [0x23] WAIT_FOR_DIALOG_INTERACTION
     0x022A [0x24] CREATE_DIALOG(message_id=11089*, default_option=1*, option_flags=0*)
    → "Well, do ya? [Without a doubt./I couldn't care less.]"
     0x0231 [0x25] WAIT_DIALOG_SELECT()
     0x0232 [0x02] IF !(Work_Zone[0] == 0*) GOTO 0x0281
     0x023A [0x5B] LOAD_EXT_SCHEDULER: Load scheduler "tlk1" with entities [EventEntity, EventEntity], work=215*
     0x0249 [0x53] WAIT_SCHEDULER_TASK: Wait for scheduler "tlk1" with entities [EventEntity, EventEntity]
     0x0256 [0x1D] PRINT_EVENT_MESSAGE(message_id=11091*)
    → "Well den, lets me impart my knowledges to ya, so dey say. Also, you knows da phrase, "Nothin' in life is free"? Well, dat goes double fer Goblin knowledge."
     0x0259 [0x23] WAIT_FOR_DIALOG_INTERACTION
     0x025A [0x5B] LOAD_EXT_SCHEDULER: Load scheduler "tlk0" with entities [EventEntity, EventEntity], work=215*
     0x0269 [0x53] WAIT_SCHEDULER_TASK: Wait for scheduler "tlk0" with entities [EventEntity, EventEntity]
     0x0276 [0x1A] CALL_SUBROUTINE(address=0x02EA)
     0x0279 [0x03] Work_Zone[1] = 1*
     0x027E [0x01] GOTO 0x02E9
     0x0281 [0x02] IF !(Work_Zone[0] == 1*) GOTO 0x02E9
     0x0289 [0x5B] LOAD_EXT_SCHEDULER: Load scheduler "bik0" with entities [EventEntity, EventEntity], work=216*
     0x0298 [0x53] WAIT_SCHEDULER_TASK: Wait for scheduler "bik0" with entities [EventEntity, EventEntity]
     0x02A5 [0x5B] LOAD_EXT_SCHEDULER: Load scheduler "bik1" with entities [EventEntity, EventEntity], work=216*
     0x02B4 [0x53] WAIT_SCHEDULER_TASK: Wait for scheduler "bik1" with entities [EventEntity, EventEntity]
     0x02C1 [0x5B] LOAD_EXT_SCHEDULER: Load scheduler "tlk0" with entities [EventEntity, EventEntity], work=215*
     0x02D0 [0x53] WAIT_SCHEDULER_TASK: Wait for scheduler "tlk0" with entities [EventEntity, EventEntity]
     0x02DD [0x1D] PRINT_EVENT_MESSAGE(message_id=11090*)
    → "Yer loss if ya don't wanna learn dis super-duper Gobby trick. You'll regrets it. I can already tells."
     0x02E0 [0x23] WAIT_FOR_DIALOG_INTERACTION
     0x02E1 [0x03] Work_Zone[1] = 2*
     0x02E6 [0x01] GOTO 0x02E9
     0x02E9 [0x1B] RETURN
     0x02EA [0x03] Work_Zone[2] = 2796*
     0x02EF [0x03] Work_Zone[3] = 582*
     0x02F4 [0x03] Work_Zone[4] = 3319*
     0x02F9 [0x03] Work_Zone[5] = 3300*
     0x02FE [0x1D] PRINT_EVENT_MESSAGE(message_id=11092*)
    → "Bring me $0 and $1 if ya wants da secret. I ain't picky, neither, so if ya got no $1, then $2 will do ya right."
     0x0301 [0x23] WAIT_FOR_DIALOG_INTERACTION
     0x0302 [0x1D] PRINT_EVENT_MESSAGE(message_id=11093*)
    → "And if fer some reason ya ain't got one of dem either, I ain't averse to collectin' some $3. Yeah, twelve of 'em should do da trick."
     0x0305 [0x23] WAIT_FOR_DIALOG_INTERACTION
     0x0306 [0x1D] PRINT_EVENT_MESSAGE(message_id=11094*)
    → "And play by da numbers, kid. I ain't givin' out no discounts. Why? ...Because! Dat's why."
     0x0309 [0x23] WAIT_FOR_DIALOG_INTERACTION
     0x030A [0x1B] RETURN
```
