# 17244623 - EFFECTER

## Common Data

| Field            | Value                           |
|------------------|---------------------------------|
| Zone             | Eastern Altepa Desert (ID: 114) |
| Block Size       | 220 bytes                       |
| Total Events     | 3                               |
| References Count | 13                              |

## List of Events

| Event ID                 | Entrypoint   |   Size |   Instructions |
|--------------------------|--------------|--------|----------------|
| [65535](#event-65535)    | 0x0000       |      1 |              1 |
| [2](#event-2)            | 0x0001       |      1 |              1 |
| [65535.1](#event-655351) | 0x0002       |    135 |             22 |

## DAT References (imed_data)

|   Index | Hex Value   |   Dec Value |
|---------|-------------|-------------|
|       0 | 0x002A      |          42 |
|       1 | 0x0000      |           0 |
|       2 | 0x00D5      |         213 |
|       3 | 0x00C9      |         201 |
|       4 | 0x1DF5      |        7669 |
|       5 | 0x00C8      |         200 |
|       6 | 0x0001      |           1 |
|       7 | 0x003C      |          60 |
|       8 | 0x0064      |         100 |
|       9 | 0x0048      |          72 |
|      10 | 0x0032      |          50 |
|      11 | 0x1DF6      |        7670 |
|      12 | 0x1DF7      |        7671 |

## String References

- **7669**: The [orange/1/2/3/red/red/blue/blue/yellow/yellow/green/green/indigo/indigo/violet/violet] light... I can feel its power run through me.
- **7670**: Come, <Player>. Follow me...
- **7671**: Carbuncle vanished off in the direction of the La Theine Plateau.

## Events

### Event 65535

#### Metadata

| Field        | Value   |
|--------------|---------|
| Entrypoint   | 0x0000  |
| Data Size    | 1 bytes |
| Instructions | 1       |

```
      00 01 02 03 04 05 06 07  08 09 0A 0B 0C 0D 0E 0F
      -- -- -- -- -- -- -- --  -- -- -- -- -- -- -- --
0000: 00                                                .               
```

#### Opcodes

```
  0: 0x0000 [0x00] END_REQSTACK()
```

### Event 2

#### Metadata

| Field        | Value   |
|--------------|---------|
| Entrypoint   | 0x0001  |
| Data Size    | 1 bytes |
| Instructions | 1       |

```
      00 01 02 03 04 05 06 07  08 09 0A 0B 0C 0D 0E 0F
      -- -- -- -- -- -- -- --  -- -- -- -- -- -- -- --
0000:    00                                              .              
```

#### Opcodes

```
  0: 0x0001 [0x00] END_REQSTACK()
```

### Event 65535.1

#### Metadata

| Field        | Value     |
|--------------|-----------|
| Entrypoint   | 0x0002    |
| Data Size    | 135 bytes |
| Instructions | 22        |

```
      00 01 02 03 04 05 06 07  08 09 0A 0B 0C 0D 0E 0F
      -- -- -- -- -- -- -- --  -- -- -- -- -- -- -- --
0000:       62 00 80 CF 21 07  01 CF 21 07 01 6D 61 69    b...!...!..mai
0010: 6E 01 80 45 02 80 D0 21  07 01 D0 21 07 01 73 30  n..E...!...!..s0
0020: 30 36 01 80 45 03 80 F8  FF FF 7F F8 FF FF 7F 77  06..E..........w
0030: 68 69 31 01 80 48 04 80  23 1C 05 80 6C D0 21 07  hi1..H..#...l.!.
0040: 01 01 80 06 80 1C 06 80  4E 00 D0 21 07 01 1C 07  ........N..!....
0050: 80 6C D0 21 07 01 08 80  09 80 1C 0A 80 48 0B 80  .l.!.........H..
0060: 23 1C 0A 80 6C D0 21 07  01 01 80 08 80 1C 08 80  #...l.!.........
0070: 48 0C 80 23 45 03 80 F8  FF FF 7F F8 FF FF 7F 77  H..#E..........w
0080: 68 6F 31 01 80 1C 05 80  00                       ho1......       
```

#### Opcodes

```
  0: 0x0002 [0x62] LOAD_EVENT_SCHEDULER: Load scheduler "main" with entities [EFFECTER (ID: 17244623/0x010721CF), EFFECTER (ID: 17244623/0x010721CF)], work=[42*, 0*]
  1: 0x0013 [0x45] LOAD_SCHEDULED_TASK: Load scheduler "s006" with entities [Carbuncle (ID: 17244624/0x010721D0), Carbuncle (ID: 17244624/0x010721D0)], work=[213*, 0*]
  2: 0x0024 [0x45] LOAD_SCHEDULED_TASK: Load scheduler "whi1" with entities [EventEntity, EventEntity], work=[201*, 0*]
  3: 0x0035 [0x48] [System] [7669*]:
    → "The [orange/1/2/3/red/red/blue/blue/yellow/yellow/green/green/indigo/indigo/violet/violet] light... I can feel its power run through me."
  4: 0x0038 [0x23] WAIT_FOR_DIALOG_INTERACTION
  5: 0x0039 [0x1C] WAIT(200* ticks)
  6: 0x003C [0x6C] FADE_ENTITY_COLOR(entity_id=Carbuncle (ID: 17244624/0x010721D0), end_alpha=0*, fade_time=1*)
  7: 0x0045 [0x1C] WAIT(1* ticks)
  8: 0x0048 [0x4E] SET_ENTITY_HIDE_FLAG: Show Carbuncle (ID: 17244624/0x010721D0)
  9: 0x004E [0x1C] WAIT(60* ticks)
 10: 0x0051 [0x6C] FADE_ENTITY_COLOR(entity_id=Carbuncle (ID: 17244624/0x010721D0), end_alpha=100*, fade_time=72*)
 11: 0x005A [0x1C] WAIT(50* ticks)
 12: 0x005D [0x48] [System] [7670*]:
    → "Come, <Player>. Follow me..."
 13: 0x0060 [0x23] WAIT_FOR_DIALOG_INTERACTION
 14: 0x0061 [0x1C] WAIT(50* ticks)
 15: 0x0064 [0x6C] FADE_ENTITY_COLOR(entity_id=Carbuncle (ID: 17244624/0x010721D0), end_alpha=0*, fade_time=100*)
 16: 0x006D [0x1C] WAIT(100* ticks)
 17: 0x0070 [0x48] [System] [7671*]:
    → "Carbuncle vanished off in the direction of the La Theine Plateau."
 18: 0x0073 [0x23] WAIT_FOR_DIALOG_INTERACTION
 19: 0x0074 [0x45] LOAD_SCHEDULED_TASK: Load scheduler "who1" with entities [EventEntity, EventEntity], work=[201*, 0*]
 20: 0x0085 [0x1C] WAIT(200* ticks)
 21: 0x0088 [0x00] END_REQSTACK()
```
