# Event 65535

## Metadata

| Field           | Value    |
|-----------------|----------|
| Event Index     | 46/55    |
| Offset          | 0x03E4   |
| Data Size       | 57 bytes |
| Calculated Size | 57 bytes |
| Instructions    | 9        |

```
      00 01 02 03 04 05 06 07  08 09 0A 0B 0C 0D 0E 0F
      -- -- -- -- -- -- -- --  -- -- -- -- -- -- -- --
03E0:             27 10 19 D2  03 01 33 27 10 1A D2 03      '.....3'....
03F0: 01 33 27 10 1B D2 03 01  33 27 10 1C D2 03 01 33  .3'.....3'.....3
0400: 27 10 1D D2 03 01 33 27  10 1E D2 03 01 33 27 10  '.....3'.....3'.
0410: 1F D2 03 01 33 27 10 20  D2 03 01 33 00           ....3'. ...3.   
```

## Opcodes

```
  0: 0x03E4 [0x27] REQ_SET(priority=0x10, entity_id=yagu1 (ID: 17027609/0x0103D219), tag_num=0x33)
  1: 0x03EB [0x27] REQ_SET(priority=0x10, entity_id=yagu2 (ID: 17027610/0x0103D21A), tag_num=0x33)
  2: 0x03F2 [0x27] REQ_SET(priority=0x10, entity_id=yagu3 (ID: 17027611/0x0103D21B), tag_num=0x33)
  3: 0x03F9 [0x27] REQ_SET(priority=0x10, entity_id=yagu4 (ID: 17027612/0x0103D21C), tag_num=0x33)
  4: 0x0400 [0x27] REQ_SET(priority=0x10, entity_id=yagu5 (ID: 17027613/0x0103D21D), tag_num=0x33)
  5: 0x0407 [0x27] REQ_SET(priority=0x10, entity_id=yagu6 (ID: 17027614/0x0103D21E), tag_num=0x33)
  6: 0x040E [0x27] REQ_SET(priority=0x10, entity_id=yagu7 (ID: 17027615/0x0103D21F), tag_num=0x33)
  7: 0x0415 [0x27] REQ_SET(priority=0x10, entity_id=yagu8 (ID: 17027616/0x0103D220), tag_num=0x33)
  8: 0x041C [0x00] END_REQSTACK()
```
