# Event 65535

## Metadata

| Field           | Value    |
|-----------------|----------|
| Event Index     | 3/3      |
| Offset          | 0x0011   |
| Data Size       | 84 bytes |
| Calculated Size | 84 bytes |
| Instructions    | 8        |

```
      00 01 02 03 04 05 06 07  08 09 0A 0B 0C 0D 0E 0F
      -- -- -- -- -- -- -- --  -- -- -- -- -- -- -- --
0010:    1C 04 80 2C F8 FF FF  7F F8 FF FF 7F 73 68 6F   ...,........sho
0020: 74 45 05 80 33 C1 08 01  33 C1 08 01 63 72 79 30  tE..3...3...cry0
0030: 06 80 1C 04 80 45 07 80  F0 FF FF 7F F0 FF FF 7F  .....E..........
0040: 62 6C 6F 6E 06 80 53 F8  FF FF 7F F8 FF FF 7F 73  blon..S........s
0050: 68 6F 74 45 07 80 F0 FF  FF 7F F0 FF FF 7F 62 6C  hotE..........bl
0060: 6F 66 06 80 00                                    of...           
```

## Opcodes

```
  0: 0x0011 [0x1C] WAIT(60* ticks)
  1: 0x0014 [0x2C] CREATE_SCHEDULER_TASK: Create scheduler "shot" for entities [EventEntity, EventEntity]
  2: 0x0021 [0x45] LOAD_SCHEDULED_TASK(work_offset1=40*, entity1=Rahal (ID: 17350963/0x0108C133), entity2=Rahal (ID: 17350963/0x0108C133), scheduler_id="cry0", work_offset2=0*)
  3: 0x0032 [0x1C] WAIT(60* ticks)
  4: 0x0035 [0x45] LOAD_SCHEDULED_TASK(work_offset1=200*, entity1=LocalPlayer, entity2=LocalPlayer, scheduler_id="blon", work_offset2=0*)
  5: 0x0046 [0x53] WAIT_SCHEDULER_TASK(entity1=EventEntity, entity2=EventEntity, action_id="shot")
  6: 0x0053 [0x45] LOAD_SCHEDULED_TASK(work_offset1=200*, entity1=LocalPlayer, entity2=LocalPlayer, scheduler_id="blof", work_offset2=0*)
  7: 0x0064 [0x00] END_REQSTACK()
```
