# 17072323 - Gilded Gateway

## Common Data

| Field            | Value                            |
|------------------|----------------------------------|
| Zone             | Alzadaal Undersea Ruins (ID: 72) |
| Block Size       | 1592 bytes                       |
| Total Events     | 2                                |
| References Count | 50                               |

## List of Events

| Event ID              | Entrypoint   |   Size |   Instructions |
|-----------------------|--------------|--------|----------------|
| [65535](#event-65535) | 0x0000       |      1 |              1 |
| [410](#event-410)     | 0x0001       |   1365 |            212 |

## DAT References (imed_data)

|   Index | Hex Value   |   Dec Value |
|---------|-------------|-------------|
|       0 | 0x40000000  |  1073741824 |
|       1 | 0x000A      |          10 |
|       2 | 0x0000      |           0 |
|       3 | 0x1D34      |        7476 |
|       4 | 0x0001      |           1 |
|       5 | 0x0002      |           2 |
|       6 | 0x0003      |           3 |
|       7 | 0x1D35      |        7477 |
|       8 | 0x0004      |           4 |
|       9 | 0x0006      |           6 |
|      10 | 0x0007      |           7 |
|      11 | 0x0008      |           8 |
|      12 | 0x0009      |           9 |
|      13 | 0x1D36      |        7478 |
|      14 | 0x1D37      |        7479 |
|      15 | 0x0005      |           5 |
|      16 | 0x1D38      |        7480 |
|      17 | 0x0012      |          18 |
|      18 | 0x0015      |          21 |
|      19 | 0x1D18      |        7448 |
|      20 | 0x1D19      |        7449 |
|      21 | 0x031D      |         797 |
|      22 | 0x1D2B      |        7467 |
|      23 | 0x1D1A      |        7450 |
|      24 | 0x1D1C      |        7452 |
|      25 | 0x1D1D      |        7453 |
|      26 | 0x1D1E      |        7454 |
|      27 | 0x1D1F      |        7455 |
|      28 | 0x1D20      |        7456 |
|      29 | 0x1D27      |        7463 |
|      30 | 0x1D21      |        7457 |
|      31 | 0x00C8      |         200 |
|      32 | 0xFFF72660  |  4294387296 |
|      33 | 0xFFF9D5E0  |  4294563296 |
|      34 | 0x0C00      |        3072 |
|      35 | 0x0023      |          35 |
|      36 | 0x00B4      |         180 |
|      37 | 0x003C      |          60 |
|      38 | 0x00F0      |         240 |
|      39 | 0x0078      |         120 |
|      40 | 0xFFFD9EA0  |  4294811296 |
|      41 | 0x0400      |        1024 |
|      42 | 0x975E0     |      620000 |
|      43 | 0xFFFCE320  |  4294763296 |
|      44 | 0x8D9A0     |      580000 |
|      45 | 0x6C660     |      444000 |
|      46 | 0x021C      |         540 |
|      47 | 0x00C9      |         201 |
|      48 | 0x001E      |          30 |
|      49 | 0x1D22      |        7458 |

## String References

- **7448**: The suggested level for $0 is $3. Place a level restriction on the party?
- **7449**: Place a level restriction? [No./Level 70./Level 60./Level 50.]
- **7450**: Your party's level will be [unrestricted/restricted to 70/restricted to 60/restricted to 50] for "$0."
- **7452**: Accept this setting? [Yes./No.]
- **7453**: Only nearby party members with the same objective will accompany you to [Leujaoam Sanctum/the Mamool Ja Training Grounds/Lebros Cavern/Periqia/Ilrusi Atoll/Nyzul Isle/The Ashu Talif/Zhayolm Remnants/Arrapago Remnants/Bhaflau Remnants/Silver Sea Remnants].
- **7454**: Please confirm that all party members are cleared to enter [Leujaoam Sanctum/the Mamool Ja Training Grounds/Lebros Cavern/Periqia/Ilrusi Atoll/Nyzul Isle/The Ashu Talif/Zhayolm Remnants/Arrapago Remnants/Bhaflau Remnants/Silver Sea Remnants].
- **7455**: All party members with the appropriate clearance will now be transported to [Leujaoam Sanctum/the Mamool Ja Training Grounds/Lebros Cavern/Periqia/Ilrusi Atoll/Nyzul Isle/The Ashu Talif/Zhayolm Remnants/Arrapago Remnants/Bhaflau Remnants/Silver Sea Remnants]. Are you ready?
- **7456**: Are you ready? [Yes./No.]
- **7457**: Commencing transport to [Leujaoam Sanctum/the Mamool Ja Training Grounds/Lebros Cavern/Periqia/Ilrusi Atoll/Nyzul Isle/The Ashu Talif/Zhayolm Remnants/Arrapago Remnants/Bhaflau Remnants/Silver Sea Remnants]!
- **7458**: Entry into [Leujaoam Sanctum/the Mamool Ja Training Grounds/Lebros Cavern/Periqia/Ilrusi Atoll/Nyzul Isle/The Ashu Talif/Zhayolm Remnants/Arrapago Remnants/Bhaflau Remnants/Silver Sea Remnants] has been suspended.
- **7463**: Connecting to server. Please wait.
- **7467**: You are not in possession of $6. Unable to enter area.

## Events

### Event 65535

#### Metadata

| Field        | Value   |
|--------------|---------|
| Entrypoint   | 0x0000  |
| Data Size    | 1 bytes |
| Instructions | 1       |

```
      00 01 02 03 04 05 06 07  08 09 0A 0B 0C 0D 0E 0F
      -- -- -- -- -- -- -- --  -- -- -- -- -- -- -- --
0000: 00                                                .               
```

#### Opcodes

```
  0: 0x0000 [0x00] END_REQSTACK()
```

### Event 410

#### Metadata

| Field        | Value      |
|--------------|------------|
| Entrypoint   | 0x0001     |
| Data Size    | 1365 bytes |
| Instructions | 180        |

```
      00 01 02 03 04 05 06 07  08 09 0A 0B 0C 0D 0E 0F
      -- -- -- -- -- -- -- --  -- -- -- -- -- -- -- --
0000:    42 03 01 00 06 10 03  04 00 08 10 03 01 10 00   B..............
0010: 80 02 01 80 02 80 00 21  00 03 02 00 03 80 01 C6  .......!........
0020: 00 02 01 80 04 80 00 31  00 03 02 00 03 80 01 C6  .......1........
0030: 00 02 01 80 05 80 00 41  00 03 02 00 03 80 01 C6  .......A........
0040: 00 02 01 80 06 80 00 51  00 03 02 00 07 80 01 C6  .......Q........
0050: 00 02 01 80 08 80 00 61  00 03 02 00 03 80 01 C6  .......a........
0060: 00 02 01 80 09 80 00 71  00 03 02 00 07 80 01 C6  .......q........
0070: 00 02 01 80 0A 80 00 81  00 03 02 00 03 80 01 C6  ................
0080: 00 02 01 80 0B 80 00 91  00 03 02 00 07 80 01 C6  ................
0090: 00 02 01 80 0C 80 00 A1  00 03 02 00 0D 80 01 C6  ................
00A0: 00 02 01 80 01 80 00 B1  00 03 02 00 0E 80 01 C6  ................
00B0: 00 02 01 80 0F 80 00 C6  00 03 08 10 04 00 03 02  ................
00C0: 00 10 80 01 C6 00 24 02  00 04 80 03 10 25 02 00  ......$......%..
00D0: 10 02 80 80 D9 00 01 D9  00 02 00 10 02 80 02 54  ...............T
00E0: 05 03 01 10 02 80 40 11  80 12 80 01 10 00 10 03  ......@.........
00F0: 01 17 00 10 02 01 17 04  80 00 62 01 02 07 10 02  ..........b.....
0100: 80 01 50 01 01 79 01 48  13 80 23 24 14 80 02 80  ..P..y.H..#$....
0110: 02 80 25 02 00 10 02 80  00 1E 01 01 3F 01 02 00  ..%.........?...
0120: 10 04 80 00 29 01 01 3F  01 02 00 10 05 80 00 34  ....)..?.......4
0130: 01 01 3F 01 02 00 10 06  80 00 3F 01 01 3F 01 40  ..?.......?..?.@
0140: 02 80 0A 80 01 10 00 10  03 00 17 00 10 01 5F 01  .............._.
0150: 03 02 10 15 80 48 16 80  03 01 10 00 80 21 00 01  .....H.......!..
0160: 65 01 01 79 01 48 17 80  23 24 18 80 04 80 02 80  e..y.H..#$......
0170: 25 02 00 10 02 80 00 40  05 48 19 80 23 48 1A 80  %......@.H..#H..
0180: 23 48 1B 80 23 24 1C 80  04 80 02 80 25 02 00 10  #H..#$......%...
0190: 02 80 00 29 05 48 1D 80  A7 00 A7 01 00 00 03 01  ...).H..........
01A0: 10 02 80 40 02 80 06 80  01 10 00 00 02 00 00 08  ...@............
01B0: 80 00 26 05 03 06 10 01  00 48 1E 80 02 01 80 02  ..&......H......
01C0: 80 00 C7 01 01 25 05 02  01 80 04 80 00 D2 01 01  .....%..........
01D0: 25 05 02 01 80 05 80 00  DD 01 01 25 05 02 01 80  %..........%....
01E0: 06 80 00 E8 01 01 25 05  02 01 80 08 80 00 F3 01  ......%.........
01F0: 01 25 05 02 01 80 09 80  00 FE 01 01 25 05 02 01  .%..........%...
0200: 80 0A 80 00 AE 02 45 1F  80 F0 FF FF 7F F0 FF FF  ......E.........
0210: 7F 66 64 6F 31 02 80 55  1F 80 F0 FF FF 7F F0 FF  .fdo1..U........
0220: FF 7F 66 64 6F 31 38 11  80 46 01 BA F0 FF FF 7F  ..fdo18..F......
0230: 20 80 21 80 02 80 22 80  45 23 80 F0 FF FF 7F F0   .!...".E#......
0240: FF FF 7F 61 6C 30 32 02  80 45 1F 80 F0 FF FF 7F  ...al02..E......
0250: F0 FF FF 7F 66 64 69 31  02 80 55 1F 80 F0 FF FF  ....fdi1..U.....
0260: 7F F0 FF FF 7F 66 64 69  31 4C 1C 24 80 29 0A C6  .....fdi1L.$.)..
0270: 80 04 01 02 1C 25 80 27  0A F0 FF FF 7F 43 1C 26  .....%.'.....C.&
0280: 80 29 0A C6 80 04 01 03  1C 27 80 45 1F 80 F0 FF  .).......'.E....
0290: FF 7F F0 FF FF 7F 66 64  6F 31 02 80 55 1F 80 F0  ......fdo1..U...
02A0: FF FF 7F F0 FF FF 7F 66  64 6F 31 01 25 05 02 01  .......fdo1.%...
02B0: 80 0B 80 00 5E 03 45 1F  80 F0 FF FF 7F F0 FF FF  ....^.E.........
02C0: 7F 66 64 6F 31 02 80 55  1F 80 F0 FF FF 7F F0 FF  .fdo1..U........
02D0: FF 7F 66 64 6F 31 38 11  80 46 01 BA F0 FF FF 7F  ..fdo18..F......
02E0: 20 80 28 80 02 80 29 80  45 23 80 F0 FF FF 7F F0   .(...).E#......
02F0: FF FF 7F 61 6C 30 31 02  80 45 1F 80 F0 FF FF 7F  ...al01..E......
0300: F0 FF FF 7F 66 64 69 31  02 80 55 1F 80 F0 FF FF  ....fdi1..U.....
0310: 7F F0 FF FF 7F 66 64 69  31 4C 1C 24 80 29 0A C4  .....fdi1L.$.)..
0320: 80 04 01 05 1C 25 80 27  0A F0 FF FF 7F 44 1C 26  .....%.'.....D.&
0330: 80 29 0A C4 80 04 01 06  1C 27 80 45 1F 80 F0 FF  .).......'.E....
0340: FF 7F F0 FF FF 7F 66 64  6F 31 02 80 55 1F 80 F0  ......fdo1..U...
0350: FF FF 7F F0 FF FF 7F 66  64 6F 31 01 25 05 02 01  .......fdo1.%...
0360: 80 0C 80 00 0E 04 45 1F  80 F0 FF FF 7F F0 FF FF  ......E.........
0370: 7F 66 64 6F 31 02 80 55  1F 80 F0 FF FF 7F F0 FF  .fdo1..U........
0380: FF 7F 66 64 6F 31 38 11  80 46 01 BA F0 FF FF 7F  ..fdo18..F......
0390: 2A 80 2B 80 02 80 22 80  45 23 80 F0 FF FF 7F F0  *.+...".E#......
03A0: FF FF 7F 61 6C 30 33 02  80 45 1F 80 F0 FF FF 7F  ...al03..E......
03B0: F0 FF FF 7F 66 64 69 31  02 80 55 1F 80 F0 FF FF  ....fdi1..U.....
03C0: 7F F0 FF FF 7F 66 64 69  31 4C 1C 24 80 29 0A C8  .....fdi1L.$.)..
03D0: 80 04 01 02 1C 25 80 27  0A F0 FF FF 7F 45 1C 26  .....%.'.....E.&
03E0: 80 29 0A C8 80 04 01 03  1C 27 80 45 1F 80 F0 FF  .).......'.E....
03F0: FF 7F F0 FF FF 7F 66 64  6F 31 02 80 55 1F 80 F0  ......fdo1..U...
0400: FF FF 7F F0 FF FF 7F 66  64 6F 31 01 25 05 02 01  .......fdo1.%...
0410: 80 01 80 00 BE 04 45 1F  80 F0 FF FF 7F F0 FF FF  ......E.........
0420: 7F 66 64 6F 31 02 80 55  1F 80 F0 FF FF 7F F0 FF  .fdo1..U........
0430: FF 7F 66 64 6F 31 38 11  80 46 01 BA F0 FF FF 7F  ..fdo18..F......
0440: 2C 80 2D 80 02 80 29 80  45 23 80 F0 FF FF 7F F0  ,.-...).E#......
0450: FF FF 7F 61 6C 30 30 02  80 45 1F 80 F0 FF FF 7F  ...al00..E......
0460: F0 FF FF 7F 66 64 69 31  02 80 55 1F 80 F0 FF FF  ....fdi1..U.....
0470: 7F F0 FF FF 7F 66 64 69  31 4C 1C 24 80 29 0A C2  .....fdi1L.$.)..
0480: 80 04 01 02 1C 25 80 27  0A F0 FF FF 7F 46 1C 26  .....%.'.....F.&
0490: 80 29 0A C2 80 04 01 03  1C 27 80 45 1F 80 F0 FF  .).......'.E....
04A0: FF 7F F0 FF FF 7F 66 64  6F 31 02 80 55 1F 80 F0  ......fdo1..U...
04B0: FF FF 7F F0 FF FF 7F 66  64 6F 31 01 25 05 02 01  .......fdo1.%...
04C0: 80 0F 80 00 25 05 2D F8  FF FF 7F F8 FF FF 7F 32  ....%.-........2
04D0: 70 62 32 1C 2E 80 29 01  F0 FF FF 7F 03 45 2F 80  pb2...)......E/.
04E0: F0 FF FF 7F F0 FF FF 7F  77 68 6F 31 02 80 1C 25  ........who1...%
04F0: 80 2D F8 FF FF 7F F8 FF  FF 7F 32 70 62 6B 1C 30  .-........2pbk.0
0500: 80 2D F8 FF FF 7F F8 FF  FF 7F 32 70 62 31 1C 30  .-........2pb1.0
0510: 80 45 2F 80 F0 FF FF 7F  F0 FF FF 7F 77 68 69 31  .E/.........whi1
0520: 02 80 01 25 05 30 01 3D  05 02 00 10 04 80 00 3D  ...%.0.=.......=
0530: 05 48 31 80 23 03 01 10  00 80 01 3D 05 01 54 05  .H1.#......=..T.
0540: 02 00 10 04 80 00 54 05  48 31 80 23 03 01 10 00  ......T.H1.#....
0550: 80 01 54 05 21 00                                 ..T.!.          
```

#### Opcodes

```
  0: 0x0001 [0x42] SET_CLI_EVENT_CANCEL_DATA()
  1: 0x0002 [0x03] ExtData[1]->WorkLocal[1] = Work_Zone[6]
  2: 0x0007 [0x03] ExtData[1]->WorkLocal[4] = Work_Zone[8]
  3: 0x000C [0x03] Work_Zone[1] = 1073741824*
  4: 0x0011 [0x02] IF !(10* == 0*) GOTO 0x0021
  5: 0x0019 [0x03] ExtData[1]->WorkLocal[2] = 7476*
  6: 0x001E [0x01] GOTO 0x00C6
  7: 0x0021 [0x02] IF !(10* == 1*) GOTO 0x0031
  8: 0x0029 [0x03] ExtData[1]->WorkLocal[2] = 7476*
  9: 0x002E [0x01] GOTO 0x00C6
 10: 0x0031 [0x02] IF !(10* == 2*) GOTO 0x0041
 11: 0x0039 [0x03] ExtData[1]->WorkLocal[2] = 7476*
 12: 0x003E [0x01] GOTO 0x00C6
 13: 0x0041 [0x02] IF !(10* == 3*) GOTO 0x0051
 14: 0x0049 [0x03] ExtData[1]->WorkLocal[2] = 7477*
 15: 0x004E [0x01] GOTO 0x00C6
 16: 0x0051 [0x02] IF !(10* == 4*) GOTO 0x0061
 17: 0x0059 [0x03] ExtData[1]->WorkLocal[2] = 7476*
 18: 0x005E [0x01] GOTO 0x00C6
 19: 0x0061 [0x02] IF !(10* == 6*) GOTO 0x0071
 20: 0x0069 [0x03] ExtData[1]->WorkLocal[2] = 7477*
 21: 0x006E [0x01] GOTO 0x00C6
 22: 0x0071 [0x02] IF !(10* == 7*) GOTO 0x0081
 23: 0x0079 [0x03] ExtData[1]->WorkLocal[2] = 7476*
 24: 0x007E [0x01] GOTO 0x00C6
 25: 0x0081 [0x02] IF !(10* == 8*) GOTO 0x0091
 26: 0x0089 [0x03] ExtData[1]->WorkLocal[2] = 7477*
 27: 0x008E [0x01] GOTO 0x00C6
 28: 0x0091 [0x02] IF !(10* == 9*) GOTO 0x00A1
 29: 0x0099 [0x03] ExtData[1]->WorkLocal[2] = 7478*
 30: 0x009E [0x01] GOTO 0x00C6
 31: 0x00A1 [0x02] IF !(10* == 10*) GOTO 0x00B1
 32: 0x00A9 [0x03] ExtData[1]->WorkLocal[2] = 7479*
 33: 0x00AE [0x01] GOTO 0x00C6
 34: 0x00B1 [0x02] IF !(10* == 5*) GOTO 0x00C6
 35: 0x00B9 [0x03] Work_Zone[8] = ExtData[1]->WorkLocal[4]
 36: 0x00BE [0x03] ExtData[1]->WorkLocal[2] = 7480*
 37: 0x00C3 [0x01] GOTO 0x00C6

SUBROUTINE_00C6:
 38: 0x00C6 [0x24] CREATE_DIALOG(message_id=ExtData[1]->WorkLocal[2], default_option=1*, option_flags=Work_Zone[3])
 39: 0x00CD [0x25] WAIT_DIALOG_SELECT()
 40: 0x00CE [0x02] IF !(Work_Zone[0] == 0*) GOTO 0x00D9
 41: 0x00D6 [0x01] GOTO 0x00D9

SUBROUTINE_00D9:
 42: 0x00D9 [0x02] IF !(Work_Zone[0] <= 0*) GOTO 0x0554
 43: 0x00E1 [0x03] Work_Zone[1] = 0*
 44: 0x00E6 [0x40] SET_BIT_WORK_RANGE(start_bit=18*, end_bit=21*, target=Work_Zone[1], source=Work_Zone[0])
 45: 0x00EF [0x03] Work_Zone_1700[1] = Work_Zone[0]
 46: 0x00F4 [0x02] IF !(Work_Zone_1700[1] == 1*) GOTO 0x0162
 47: 0x00FC [0x02] IF !(Work_Zone[7] == 0*) GOTO 0x0150
 48: 0x0104 [0x01] GOTO 0x0179

SUBROUTINE_0179:
 49: 0x0179 [0x48] [System] [7453*]:
    → "Only nearby party members with the same objective will accompany you to [Leujaoam Sanctum/the Mamool Ja Training Grounds/Lebros Cavern/Periqia/Ilrusi Atoll/Nyzul Isle/The Ashu Talif/Zhayolm Remnants/Arrapago Remnants/Bhaflau Remnants/Silver Sea Remnants]."
 50: 0x017C [0x23] WAIT_FOR_DIALOG_INTERACTION
 51: 0x017D [0x48] [System] [7454*]:
    → "Please confirm that all party members are cleared to enter [Leujaoam Sanctum/the Mamool Ja Training Grounds/Lebros Cavern/Periqia/Ilrusi Atoll/Nyzul Isle/The Ashu Talif/Zhayolm Remnants/Arrapago Remnants/Bhaflau Remnants/Silver Sea Remnants]."
 52: 0x0180 [0x23] WAIT_FOR_DIALOG_INTERACTION
 53: 0x0181 [0x48] [System] [7455*]:
    → "All party members with the appropriate clearance will now be transported to [Leujaoam Sanctum/the Mamool Ja Training Grounds/Lebros Cavern/Periqia/Ilrusi Atoll/Nyzul Isle/The Ashu Talif/Zhayolm Remnants/Arrapago Remnants/Bhaflau Remnants/Silver Sea Remnants]. Are you ready?"
 54: 0x0184 [0x23] WAIT_FOR_DIALOG_INTERACTION
 55: 0x0185 [0x24] CREATE_DIALOG(message_id=7456*, default_option=1*, option_flags=0*)
    → "Are you ready? [Yes./No.]"
 56: 0x018C [0x25] WAIT_DIALOG_SELECT()
 57: 0x018D [0x02] IF !(Work_Zone[0] == 0*) GOTO 0x0529
 58: 0x0195 [0x48] [System] [7463*]:
    → "Connecting to server. Please wait."
 59: 0x0198 [0xA7] BATTLEFIELD_RESPONSE_WAIT: Wait for server response (Dynamis/MMM/Salvage), mode=0x00
 60: 0x019A [0xA7] BATTLEFIELD_RESPONSE_WAIT: Wait for server response with parameter (Dynamis/MMM/Salvage), param=ExtData[1]->WorkLocal[0]
 61: 0x019E [0x03] Work_Zone[1] = 0*
 62: 0x01A3 [0x40] SET_BIT_WORK_RANGE(start_bit=0*, end_bit=3*, target=Work_Zone[1], source=ExtData[1]->WorkLocal[0])
 63: 0x01AC [0x02] IF !(ExtData[1]->WorkLocal[0] == 4*) GOTO 0x0526
 64: 0x01B4 [0x03] Work_Zone[6] = ExtData[1]->WorkLocal[1]
 65: 0x01B9 [0x48] [System] [7457*]:
    → "Commencing transport to [Leujaoam Sanctum/the Mamool Ja Training Grounds/Lebros Cavern/Periqia/Ilrusi Atoll/Nyzul Isle/The Ashu Talif/Zhayolm Remnants/Arrapago Remnants/Bhaflau Remnants/Silver Sea Remnants]!"
 66: 0x01BC [0x02] IF !(10* == 0*) GOTO 0x01C7
 67: 0x01C4 [0x01] GOTO 0x0525
 68: 0x01C7 [0x02] IF !(10* == 1*) GOTO 0x01D2
 69: 0x01CF [0x01] GOTO 0x0525
 70: 0x01D2 [0x02] IF !(10* == 2*) GOTO 0x01DD
 71: 0x01DA [0x01] GOTO 0x0525
 72: 0x01DD [0x02] IF !(10* == 3*) GOTO 0x01E8
 73: 0x01E5 [0x01] GOTO 0x0525
 74: 0x01E8 [0x02] IF !(10* == 4*) GOTO 0x01F3
 75: 0x01F0 [0x01] GOTO 0x0525
 76: 0x01F3 [0x02] IF !(10* == 6*) GOTO 0x01FE
 77: 0x01FB [0x01] GOTO 0x0525
 78: 0x01FE [0x02] IF !(10* == 7*) GOTO 0x02AE
 79: 0x0206 [0x45] LOAD_SCHEDULED_TASK: Load scheduler "fdo1" with entities [LocalPlayer, LocalPlayer], work=[200*, 0*]
 80: 0x0217 [0x55] WAIT_LOAD_SCHEDULER: Wait for scheduler "fdo1" with entities [LocalPlayer, LocalPlayer], work=200*
 81: 0x0226 [0x38] SET_CLIENT_EVENT_MODE(mode=18*)
 82: 0x0229 [0x46] CAMERA_CONTROL: Disable user control
 83: 0x022B [0xBA] SET_ENTITY_POSITION(entity_id=LocalPlayer, pos_x=-580.000*, pos_z=-404.000*, pos_y=0.000*, direction=270.0°*)
 84: 0x0238 [0x45] LOAD_SCHEDULED_TASK: Load scheduler "al02" with entities [LocalPlayer, LocalPlayer], work=[35*, 0*]
 85: 0x0249 [0x45] LOAD_SCHEDULED_TASK: Load scheduler "fdi1" with entities [LocalPlayer, LocalPlayer], work=[200*, 0*]
 86: 0x025A [0x55] WAIT_LOAD_SCHEDULER: Wait for scheduler "fdi1" with entities [LocalPlayer, LocalPlayer], work=200*
 87: 0x0269 [0x4C] EventEntity->StatusEvent = 8 // Open door
 88: 0x026A [0x1C] WAIT(180* ticks)
 89: 0x026D [0x29] REQ_SET_WAIT(priority=0x0A, entity_id=_20p (ID: 17072326/0x010480C6), tag_num=0x02)
 90: 0x0274 [0x1C] WAIT(60* ticks)
 91: 0x0277 [0x27] REQ_SET(priority=0x0A, entity_id=LocalPlayer, tag_num=0x43)
 92: 0x027E [0x1C] WAIT(240* ticks)
 93: 0x0281 [0x29] REQ_SET_WAIT(priority=0x0A, entity_id=_20p (ID: 17072326/0x010480C6), tag_num=0x03)
 94: 0x0288 [0x1C] WAIT(120* ticks)
 95: 0x028B [0x45] LOAD_SCHEDULED_TASK: Load scheduler "fdo1" with entities [LocalPlayer, LocalPlayer], work=[200*, 0*]
 96: 0x029C [0x55] WAIT_LOAD_SCHEDULER: Wait for scheduler "fdo1" with entities [LocalPlayer, LocalPlayer], work=200*
 97: 0x02AB [0x01] GOTO 0x0525
 98: 0x02AE [0x02] IF !(10* == 8*) GOTO 0x035E
 99: 0x02B6 [0x45] LOAD_SCHEDULED_TASK: Load scheduler "fdo1" with entities [LocalPlayer, LocalPlayer], work=[200*, 0*]
100: 0x02C7 [0x55] WAIT_LOAD_SCHEDULER: Wait for scheduler "fdo1" with entities [LocalPlayer, LocalPlayer], work=200*
101: 0x02D6 [0x38] SET_CLIENT_EVENT_MODE(mode=18*)
102: 0x02D9 [0x46] CAMERA_CONTROL: Disable user control
103: 0x02DB [0xBA] SET_ENTITY_POSITION(entity_id=LocalPlayer, pos_x=-580.000*, pos_z=-156.000*, pos_y=0.000*, direction=90.0°*)
104: 0x02E8 [0x45] LOAD_SCHEDULED_TASK: Load scheduler "al01" with entities [LocalPlayer, LocalPlayer], work=[35*, 0*]
105: 0x02F9 [0x45] LOAD_SCHEDULED_TASK: Load scheduler "fdi1" with entities [LocalPlayer, LocalPlayer], work=[200*, 0*]
106: 0x030A [0x55] WAIT_LOAD_SCHEDULER: Wait for scheduler "fdi1" with entities [LocalPlayer, LocalPlayer], work=200*
107: 0x0319 [0x4C] EventEntity->StatusEvent = 8 // Open door
108: 0x031A [0x1C] WAIT(180* ticks)
109: 0x031D [0x29] REQ_SET_WAIT(priority=0x0A, entity_id=_20o (ID: 17072324/0x010480C4), tag_num=0x05)
110: 0x0324 [0x1C] WAIT(60* ticks)
111: 0x0327 [0x27] REQ_SET(priority=0x0A, entity_id=LocalPlayer, tag_num=0x44)
112: 0x032E [0x1C] WAIT(240* ticks)
113: 0x0331 [0x29] REQ_SET_WAIT(priority=0x0A, entity_id=_20o (ID: 17072324/0x010480C4), tag_num=0x06)
114: 0x0338 [0x1C] WAIT(120* ticks)
115: 0x033B [0x45] LOAD_SCHEDULED_TASK: Load scheduler "fdo1" with entities [LocalPlayer, LocalPlayer], work=[200*, 0*]
116: 0x034C [0x55] WAIT_LOAD_SCHEDULER: Wait for scheduler "fdo1" with entities [LocalPlayer, LocalPlayer], work=200*
117: 0x035B [0x01] GOTO 0x0525
118: 0x035E [0x02] IF !(10* == 9*) GOTO 0x040E
119: 0x0366 [0x45] LOAD_SCHEDULED_TASK: Load scheduler "fdo1" with entities [LocalPlayer, LocalPlayer], work=[200*, 0*]
120: 0x0377 [0x55] WAIT_LOAD_SCHEDULER: Wait for scheduler "fdo1" with entities [LocalPlayer, LocalPlayer], work=200*
121: 0x0386 [0x38] SET_CLIENT_EVENT_MODE(mode=18*)
122: 0x0389 [0x46] CAMERA_CONTROL: Disable user control
123: 0x038B [0xBA] SET_ENTITY_POSITION(entity_id=LocalPlayer, pos_x=620.000*, pos_z=-204.000*, pos_y=0.000*, direction=270.0°*)
124: 0x0398 [0x45] LOAD_SCHEDULED_TASK: Load scheduler "al03" with entities [LocalPlayer, LocalPlayer], work=[35*, 0*]
125: 0x03A9 [0x45] LOAD_SCHEDULED_TASK: Load scheduler "fdi1" with entities [LocalPlayer, LocalPlayer], work=[200*, 0*]
126: 0x03BA [0x55] WAIT_LOAD_SCHEDULER: Wait for scheduler "fdi1" with entities [LocalPlayer, LocalPlayer], work=200*
127: 0x03C9 [0x4C] EventEntity->StatusEvent = 8 // Open door
128: 0x03CA [0x1C] WAIT(180* ticks)
129: 0x03CD [0x29] REQ_SET_WAIT(priority=0x0A, entity_id=_20q (ID: 17072328/0x010480C8), tag_num=0x02)
130: 0x03D4 [0x1C] WAIT(60* ticks)
131: 0x03D7 [0x27] REQ_SET(priority=0x0A, entity_id=LocalPlayer, tag_num=0x45)
132: 0x03DE [0x1C] WAIT(240* ticks)
133: 0x03E1 [0x29] REQ_SET_WAIT(priority=0x0A, entity_id=_20q (ID: 17072328/0x010480C8), tag_num=0x03)
134: 0x03E8 [0x1C] WAIT(120* ticks)
135: 0x03EB [0x45] LOAD_SCHEDULED_TASK: Load scheduler "fdo1" with entities [LocalPlayer, LocalPlayer], work=[200*, 0*]
136: 0x03FC [0x55] WAIT_LOAD_SCHEDULER: Wait for scheduler "fdo1" with entities [LocalPlayer, LocalPlayer], work=200*
137: 0x040B [0x01] GOTO 0x0525
138: 0x040E [0x02] IF !(10* == 10*) GOTO 0x04BE
139: 0x0416 [0x45] LOAD_SCHEDULED_TASK: Load scheduler "fdo1" with entities [LocalPlayer, LocalPlayer], work=[200*, 0*]
140: 0x0427 [0x55] WAIT_LOAD_SCHEDULER: Wait for scheduler "fdo1" with entities [LocalPlayer, LocalPlayer], work=200*
141: 0x0436 [0x38] SET_CLIENT_EVENT_MODE(mode=18*)
142: 0x0439 [0x46] CAMERA_CONTROL: Disable user control
143: 0x043B [0xBA] SET_ENTITY_POSITION(entity_id=LocalPlayer, pos_x=580.000*, pos_z=444.000*, pos_y=0.000*, direction=90.0°*)
144: 0x0448 [0x45] LOAD_SCHEDULED_TASK: Load scheduler "al00" with entities [LocalPlayer, LocalPlayer], work=[35*, 0*]
145: 0x0459 [0x45] LOAD_SCHEDULED_TASK: Load scheduler "fdi1" with entities [LocalPlayer, LocalPlayer], work=[200*, 0*]
146: 0x046A [0x55] WAIT_LOAD_SCHEDULER: Wait for scheduler "fdi1" with entities [LocalPlayer, LocalPlayer], work=200*
147: 0x0479 [0x4C] EventEntity->StatusEvent = 8 // Open door
148: 0x047A [0x1C] WAIT(180* ticks)
149: 0x047D [0x29] REQ_SET_WAIT(priority=0x0A, entity_id=_20n (ID: 17072322/0x010480C2), tag_num=0x02)
150: 0x0484 [0x1C] WAIT(60* ticks)
151: 0x0487 [0x27] REQ_SET(priority=0x0A, entity_id=LocalPlayer, tag_num=0x46)
152: 0x048E [0x1C] WAIT(240* ticks)
153: 0x0491 [0x29] REQ_SET_WAIT(priority=0x0A, entity_id=_20n (ID: 17072322/0x010480C2), tag_num=0x03)
154: 0x0498 [0x1C] WAIT(120* ticks)
155: 0x049B [0x45] LOAD_SCHEDULED_TASK: Load scheduler "fdo1" with entities [LocalPlayer, LocalPlayer], work=[200*, 0*]
156: 0x04AC [0x55] WAIT_LOAD_SCHEDULER: Wait for scheduler "fdo1" with entities [LocalPlayer, LocalPlayer], work=200*
157: 0x04BB [0x01] GOTO 0x0525
158: 0x04BE [0x02] IF !(10* == 5*) GOTO 0x0525
159: 0x04C6 [0x2D] CREATE_ZONE_SCHEDULER_TASK: Create scheduler "2pb2" with entities [EventEntity, EventEntity]
160: 0x04D3 [0x1C] WAIT(540* ticks)
161: 0x04D6 [0x29] REQ_SET_WAIT(priority=0x01, entity_id=LocalPlayer, tag_num=0x03)
162: 0x04DD [0x45] LOAD_SCHEDULED_TASK: Load scheduler "who1" with entities [LocalPlayer, LocalPlayer], work=[201*, 0*]
163: 0x04EE [0x1C] WAIT(60* ticks)
164: 0x04F1 [0x2D] CREATE_ZONE_SCHEDULER_TASK: Create scheduler "2pbk" with entities [EventEntity, EventEntity]
165: 0x04FE [0x1C] WAIT(30* ticks)
166: 0x0501 [0x2D] CREATE_ZONE_SCHEDULER_TASK: Create scheduler "2pb1" with entities [EventEntity, EventEntity]
167: 0x050E [0x1C] WAIT(30* ticks)
168: 0x0511 [0x45] LOAD_SCHEDULED_TASK: Load scheduler "whi1" with entities [LocalPlayer, LocalPlayer], work=[201*, 0*]
169: 0x0522 [0x01] GOTO 0x0525

SUBROUTINE_0525:
170: 0x0525 [0x30] SET_UCOFF_CONTINUE_ZERO()
171: 0x0526 [0x01] GOTO 0x053D
172: 0x0529 [0x02] IF !(Work_Zone[0] == 1*) GOTO 0x053D
173: 0x0531 [0x48] [System] [7458*]:
    → "Entry into [Leujaoam Sanctum/the Mamool Ja Training Grounds/Lebros Cavern/Periqia/Ilrusi Atoll/Nyzul Isle/The Ashu Talif/Zhayolm Remnants/Arrapago Remnants/Bhaflau Remnants/Silver Sea Remnants] has been suspended."
174: 0x0534 [0x23] WAIT_FOR_DIALOG_INTERACTION
175: 0x0535 [0x03] Work_Zone[1] = 1073741824*
176: 0x053A [0x01] GOTO 0x053D

SUBROUTINE_053D:
177: 0x053D [0x01] GOTO 0x0554

SUBROUTINE_0554:
178: 0x0554 [0x21] END_EVENT
179: 0x0555 [0x00] END_REQSTACK()
```

#### Data or dead code:

```
# Dead code (unreachable instructions):
     0x0107 [0x48] [System] [7448*]:
    → "The suggested level for $0 is $3. Place a level restriction on the party?"
     0x010A [0x23] WAIT_FOR_DIALOG_INTERACTION
     0x010B [0x24] CREATE_DIALOG(message_id=7449*, default_option=0*, option_flags=0*)
    → "Place a level restriction? [No./Level 70./Level 60./Level 50.]"
     0x0112 [0x25] WAIT_DIALOG_SELECT()
     0x0113 [0x02] IF !(Work_Zone[0] == 0*) GOTO 0x011E
     0x011B [0x01] GOTO 0x013F
     0x011E [0x02] IF !(Work_Zone[0] == 1*) GOTO 0x0129
     0x0126 [0x01] GOTO 0x013F
     0x0129 [0x02] IF !(Work_Zone[0] == 2*) GOTO 0x0134
     0x0131 [0x01] GOTO 0x013F
     0x0134 [0x02] IF !(Work_Zone[0] == 3*) GOTO 0x013F
     0x013C [0x01] GOTO 0x013F
     0x013F [0x40] SET_BIT_WORK_RANGE(start_bit=0*, end_bit=7*, target=Work_Zone[1], source=Work_Zone[0])
     0x0148 [0x03] Work_Zone_1700[0] = Work_Zone[0]
     0x014D [0x01] GOTO 0x015F
     0x015F [0x01] GOTO 0x0165
     0x0165 [0x48] [System] [7450*]:
    → "Your party's level will be [unrestricted/restricted to 70/restricted to 60/restricted to 50] for "$0.""
     0x0168 [0x23] WAIT_FOR_DIALOG_INTERACTION
     0x0169 [0x24] CREATE_DIALOG(message_id=7452*, default_option=1*, option_flags=0*)
    → "Accept this setting? [Yes./No.]"
     0x0170 [0x25] WAIT_DIALOG_SELECT()
     0x0171 [0x02] IF !(Work_Zone[0] == 0*) GOTO 0x0540
# Dead code (unreachable instructions):
     0x0540 [0x02] IF !(Work_Zone[0] == 1*) GOTO 0x0554
     0x0548 [0x48] [System] [7458*]:
    → "Entry into [Leujaoam Sanctum/the Mamool Ja Training Grounds/Lebros Cavern/Periqia/Ilrusi Atoll/Nyzul Isle/The Ashu Talif/Zhayolm Remnants/Arrapago Remnants/Bhaflau Remnants/Silver Sea Remnants] has been suspended."
     0x054B [0x23] WAIT_FOR_DIALOG_INTERACTION
     0x054C [0x03] Work_Zone[1] = 1073741824*
     0x0551 [0x01] GOTO 0x0554
```
