# 17072372 - Shahayl

## Common Data

| Field            | Value                            |
|------------------|----------------------------------|
| Zone             | Alzadaal Undersea Ruins (ID: 72) |
| Block Size       | 348 bytes                        |
| Total Events     | 3                                |
| References Count | 24                               |

## List of Events

| Event ID              | Entrypoint   |   Size |   Instructions |
|-----------------------|--------------|--------|----------------|
| [65535](#event-65535) | 0x0000       |      1 |              1 |
| [412](#event-412)     | 0x0001       |    209 |             64 |
| [413](#event-413)     | 0x00D2       |     11 |              5 |

## DAT References (imed_data)

|   Index | Hex Value   |   Dec Value |
|---------|-------------|-------------|
|       0 | 0x0000      |           0 |
|       1 | 0x1D39      |        7481 |
|       2 | 0x1D3A      |        7482 |
|       3 | 0x1D3B      |        7483 |
|       4 | 0x1D3D      |        7485 |
|       5 | 0x1D3E      |        7486 |
|       6 | 0x0001      |           1 |
|       7 | 0x0032      |          50 |
|       8 | 0x1D41      |        7489 |
|       9 | 0x1D3F      |        7487 |
|      10 | 0x1D40      |        7488 |
|      11 | 0x1D42      |        7490 |
|      12 | 0x1D43      |        7491 |
|      13 | 0x0002      |           2 |
|      14 | 0x1D3C      |        7484 |
|      15 | 0x1D44      |        7492 |
|      16 | 0x1D45      |        7493 |
|      17 | 0x1D46      |        7494 |
|      18 | 0x1D47      |        7495 |
|      19 | 0x1D48      |        7496 |
|      20 | 0x1D49      |        7497 |
|      21 | 0x1D4A      |        7498 |
|      22 | 0x1D4B      |        7499 |
|      23 | 0x1D4C      |        7500 |

## String References

- **7481**: Greetings, mercenary. I am % of the Immortals.
- **7482**: You are here on an Assault mission? Then you'll be wanting command verification.
- **7483**: Do you want command verification? [Yes./No./I want to ask you some questions.]
- **7484**: What do you ask about? [Command verification./Nyzul Isle Assault missions./Nyzul Isle Uncharted Region.]
- **7485**: If you have $0 [credit/credits] available from your Imperial Standing, I will recognize your ability to lead this Assault mission.
- **7486**: Receive command verification? [Yes. ($0 [credit/credits])/No.]
- **7487**: Very well. Consider your command of this mission verified.
- **7488**: With this in your possession, you will be able to pass through the runic seal and enter the Assault area. Good luck.
- **7489**: I cannot entrust leadership of a mission to a mercenary with such an unimpressive standing. Return to me when you are worthy.
- **7490**: You refuse to assume leadership? Perhaps you should make that decision before you speak to me.
- **7491**: No? Then I suggest you complete your preparations and await your leader's orders!
- **7492**: Receiving command verification will authorize you to begin an Assault mission.
- **7493**: You will also be responsible for confirming that all members are prepared to begin the mission.
- **7494**: Shouldering this responsibility, and leading your party to victory are all part of being a truly outstanding mercenary.
- **7495**: The Nyzul Isle remnants are divided into numerous separate floors. It it not possible to travel between these floors by normal means.
- **7496**: The only way to pass from one floor to another is by using Nyzul "tokens" at a device known as the "Rune of Transfer."
- **7497**: You currently possess $1 [Nyzul token/Nyzul tokens], and can travel to any floor up to and including Floor $2.
- **7498**: The only way to pass from one floor to another is by using Nyzul "tokens" at a device known as the "Rune of Transfer."
- **7499**: You currently possess $1 Nyzul [token/tokens], and have explored as far as Floor $4.
- **7500**: This is the Nyzul Isle staging point. If you have no official business here, it's time for you to leave.

## Events

### Event 65535

#### Metadata

| Field        | Value   |
|--------------|---------|
| Entrypoint   | 0x0000  |
| Data Size    | 1 bytes |
| Instructions | 1       |

```
      00 01 02 03 04 05 06 07  08 09 0A 0B 0C 0D 0E 0F
      -- -- -- -- -- -- -- --  -- -- -- -- -- -- -- --
0000: 00                                                .               
```

#### Opcodes

```
  0: 0x0000 [0x00] END_REQSTACK()
```

### Event 412

#### Metadata

| Field        | Value     |
|--------------|-----------|
| Entrypoint   | 0x0001    |
| Data Size    | 209 bytes |
| Instructions | 64        |

```
      00 01 02 03 04 05 06 07  08 09 0A 0B 0C 0D 0E 0F
      -- -- -- -- -- -- -- --  -- -- -- -- -- -- -- --
0000:    03 01 10 00 80 1E F0  FF FF 7F 1D 01 80 23 1D   .............#.
0010: 02 80 23 24 03 80 00 80  00 80 25 02 00 10 00 80  ..#$......%.....
0020: 00 69 00 1D 04 80 23 24  05 80 06 80 00 80 25 02  .i....#$......%.
0030: 00 10 00 80 00 57 00 02  05 10 07 80 03 46 00 1D  .....W.......F..
0040: 08 80 23 01 54 00 42 1D  09 80 23 1D 0A 80 23 03  ..#.T.B...#...#.
0050: 01 10 06 80 01 66 00 02  00 10 06 80 00 66 00 1D  .....f.......f..
0060: 0B 80 23 01 66 00 01 D0  00 02 00 10 06 80 00 78  ..#.f..........x
0070: 00 1D 0C 80 23 01 D0 00  02 00 10 0D 80 00 D0 00  ....#...........
0080: 24 0E 80 00 80 00 80 25  02 00 10 00 80 00 9F 00  $......%........
0090: 1D 0F 80 23 1D 10 80 23  1D 11 80 23 01 CD 00 02  ...#...#...#....
00A0: 00 10 06 80 00 B6 00 1D  12 80 23 1D 13 80 23 1D  ..........#...#.
00B0: 14 80 23 01 CD 00 02 00  10 0D 80 00 CD 00 1D 12  ..#.............
00C0: 80 23 1D 15 80 23 1D 16  80 23 01 CD 00 01 D0 00  .#...#...#......
00D0: 21 00                                             !.              
```

#### Opcodes

```
  0: 0x0001 [0x03] Work_Zone[1] = 0*
  1: 0x0006 [0x1E] EventEntity looks at LocalPlayer and starts talking
  2: 0x000B [0x1D] PRINT_EVENT_MESSAGE(message_id=7481*)
    → "Greetings, mercenary. I am % of the Immortals."
  3: 0x000E [0x23] WAIT_FOR_DIALOG_INTERACTION
  4: 0x000F [0x1D] PRINT_EVENT_MESSAGE(message_id=7482*)
    → "You are here on an Assault mission? Then you'll be wanting command verification."
  5: 0x0012 [0x23] WAIT_FOR_DIALOG_INTERACTION
  6: 0x0013 [0x24] CREATE_DIALOG(message_id=7483*, default_option=0*, option_flags=0*)
    → "Do you want command verification? [Yes./No./I want to ask you some questions.]"
  7: 0x001A [0x25] WAIT_DIALOG_SELECT()
  8: 0x001B [0x02] IF !(Work_Zone[0] == 0*) GOTO 0x0069
  9: 0x0023 [0x1D] PRINT_EVENT_MESSAGE(message_id=7485*)
    → "If you have $0 [credit/credits] available from your Imperial Standing, I will recognize your ability to lead this Assault mission."
 10: 0x0026 [0x23] WAIT_FOR_DIALOG_INTERACTION
 11: 0x0027 [0x24] CREATE_DIALOG(message_id=7486*, default_option=1*, option_flags=0*)
    → "Receive command verification? [Yes. ($0 [credit/credits])/No.]"
 12: 0x002E [0x25] WAIT_DIALOG_SELECT()
 13: 0x002F [0x02] IF !(Work_Zone[0] == 0*) GOTO 0x0057
 14: 0x0037 [0x02] IF !(Work_Zone[5] >= 50*) GOTO 0x0046
 15: 0x003F [0x1D] PRINT_EVENT_MESSAGE(message_id=7489*)
    → "I cannot entrust leadership of a mission to a mercenary with such an unimpressive standing. Return to me when you are worthy."
 16: 0x0042 [0x23] WAIT_FOR_DIALOG_INTERACTION
 17: 0x0043 [0x01] GOTO 0x0054
 18: 0x0046 [0x42] SET_CLI_EVENT_CANCEL_DATA()
 19: 0x0047 [0x1D] PRINT_EVENT_MESSAGE(message_id=7487*)
    → "Very well. Consider your command of this mission verified."
 20: 0x004A [0x23] WAIT_FOR_DIALOG_INTERACTION
 21: 0x004B [0x1D] PRINT_EVENT_MESSAGE(message_id=7488*)
    → "With this in your possession, you will be able to pass through the runic seal and enter the Assault area. Good luck."
 22: 0x004E [0x23] WAIT_FOR_DIALOG_INTERACTION
 23: 0x004F [0x03] Work_Zone[1] = 1*

SUBROUTINE_0054:
 24: 0x0054 [0x01] GOTO 0x0066
 25: 0x0057 [0x02] IF !(Work_Zone[0] == 1*) GOTO 0x0066
 26: 0x005F [0x1D] PRINT_EVENT_MESSAGE(message_id=7490*)
    → "You refuse to assume leadership? Perhaps you should make that decision before you speak to me."
 27: 0x0062 [0x23] WAIT_FOR_DIALOG_INTERACTION
 28: 0x0063 [0x01] GOTO 0x0066

SUBROUTINE_0066:
 29: 0x0066 [0x01] GOTO 0x00D0
 30: 0x0069 [0x02] IF !(Work_Zone[0] == 1*) GOTO 0x0078
 31: 0x0071 [0x1D] PRINT_EVENT_MESSAGE(message_id=7491*)
    → "No? Then I suggest you complete your preparations and await your leader's orders!"
 32: 0x0074 [0x23] WAIT_FOR_DIALOG_INTERACTION
 33: 0x0075 [0x01] GOTO 0x00D0
 34: 0x0078 [0x02] IF !(Work_Zone[0] == 2*) GOTO 0x00D0
 35: 0x0080 [0x24] CREATE_DIALOG(message_id=7484*, default_option=0*, option_flags=0*)
    → "What do you ask about? [Command verification./Nyzul Isle Assault missions./Nyzul Isle Uncharted Region.]"
 36: 0x0087 [0x25] WAIT_DIALOG_SELECT()
 37: 0x0088 [0x02] IF !(Work_Zone[0] == 0*) GOTO 0x009F
 38: 0x0090 [0x1D] PRINT_EVENT_MESSAGE(message_id=7492*)
    → "Receiving command verification will authorize you to begin an Assault mission."
 39: 0x0093 [0x23] WAIT_FOR_DIALOG_INTERACTION
 40: 0x0094 [0x1D] PRINT_EVENT_MESSAGE(message_id=7493*)
    → "You will also be responsible for confirming that all members are prepared to begin the mission."
 41: 0x0097 [0x23] WAIT_FOR_DIALOG_INTERACTION
 42: 0x0098 [0x1D] PRINT_EVENT_MESSAGE(message_id=7494*)
    → "Shouldering this responsibility, and leading your party to victory are all part of being a truly outstanding mercenary."
 43: 0x009B [0x23] WAIT_FOR_DIALOG_INTERACTION
 44: 0x009C [0x01] GOTO 0x00CD
 45: 0x009F [0x02] IF !(Work_Zone[0] == 1*) GOTO 0x00B6
 46: 0x00A7 [0x1D] PRINT_EVENT_MESSAGE(message_id=7495*)
    → "The Nyzul Isle remnants are divided into numerous separate floors. It it not possible to travel between these floors by normal means."
 47: 0x00AA [0x23] WAIT_FOR_DIALOG_INTERACTION
 48: 0x00AB [0x1D] PRINT_EVENT_MESSAGE(message_id=7496*)
    → "The only way to pass from one floor to another is by using Nyzul "tokens" at a device known as the "Rune of Transfer.""
 49: 0x00AE [0x23] WAIT_FOR_DIALOG_INTERACTION
 50: 0x00AF [0x1D] PRINT_EVENT_MESSAGE(message_id=7497*)
    → "You currently possess $1 [Nyzul token/Nyzul tokens], and can travel to any floor up to and including Floor $2."
 51: 0x00B2 [0x23] WAIT_FOR_DIALOG_INTERACTION
 52: 0x00B3 [0x01] GOTO 0x00CD
 53: 0x00B6 [0x02] IF !(Work_Zone[0] == 2*) GOTO 0x00CD
 54: 0x00BE [0x1D] PRINT_EVENT_MESSAGE(message_id=7495*)
    → "The Nyzul Isle remnants are divided into numerous separate floors. It it not possible to travel between these floors by normal means."
 55: 0x00C1 [0x23] WAIT_FOR_DIALOG_INTERACTION
 56: 0x00C2 [0x1D] PRINT_EVENT_MESSAGE(message_id=7498*)
    → "The only way to pass from one floor to another is by using Nyzul "tokens" at a device known as the "Rune of Transfer.""
 57: 0x00C5 [0x23] WAIT_FOR_DIALOG_INTERACTION
 58: 0x00C6 [0x1D] PRINT_EVENT_MESSAGE(message_id=7499*)
    → "You currently possess $1 Nyzul [token/tokens], and have explored as far as Floor $4."
 59: 0x00C9 [0x23] WAIT_FOR_DIALOG_INTERACTION
 60: 0x00CA [0x01] GOTO 0x00CD

SUBROUTINE_00CD:
 61: 0x00CD [0x01] GOTO 0x00D0

SUBROUTINE_00D0:
 62: 0x00D0 [0x21] END_EVENT
 63: 0x00D1 [0x00] END_REQSTACK()
```

### Event 413

#### Metadata

| Field        | Value    |
|--------------|----------|
| Entrypoint   | 0x00D2   |
| Data Size    | 11 bytes |
| Instructions | 5        |

```
      00 01 02 03 04 05 06 07  08 09 0A 0B 0C 0D 0E 0F
      -- -- -- -- -- -- -- --  -- -- -- -- -- -- -- --
00D0:       1E F0 FF FF 7F 1D  17 80 23 21 00             ........#!.   
```

#### Opcodes

```
  0: 0x00D2 [0x1E] EventEntity looks at LocalPlayer and starts talking
  1: 0x00D7 [0x1D] PRINT_EVENT_MESSAGE(message_id=7500*)
    → "This is the Nyzul Isle staging point. If you have no official business here, it's time for you to leave."
  2: 0x00DA [0x23] WAIT_FOR_DIALOG_INTERACTION
  3: 0x00DB [0x21] END_EVENT
  4: 0x00DC [0x00] END_REQSTACK()
```
