# 17072368 - Ghatsad

## Common Data

| Field            | Value                            |
|------------------|----------------------------------|
| Zone             | Alzadaal Undersea Ruins (ID: 72) |
| Block Size       | 500 bytes                        |
| Total Events     | 21                               |
| References Count | 35                               |

## List of Events

| Event ID                   | Entrypoint   |   Size |   Instructions |
|----------------------------|--------------|--------|----------------|
| [65535](#event-65535)      | 0x0000       |      1 |              1 |
| [65535.1](#event-655351)   | 0x0001       |      1 |              1 |
| [65535.2](#event-655352)   | 0x0002       |     18 |              4 |
| [65535.3](#event-655353)   | 0x0014       |     10 |              2 |
| [65535.4](#event-655354)   | 0x001E       |      9 |              3 |
| [65535.5](#event-655355)   | 0x0027       |      9 |              3 |
| [65535.6](#event-655356)   | 0x0030       |     10 |              2 |
| [65535.7](#event-655357)   | 0x003A       |     10 |              2 |
| [1](#event-1)              | 0x0044       |      1 |              1 |
| [65535.8](#event-655358)   | 0x0045       |      1 |              1 |
| [65535.9](#event-655359)   | 0x0046       |     23 |              5 |
| [65535.10](#event-6553510) | 0x005D       |     19 |              5 |
| [65535.11](#event-6553511) | 0x0070       |     19 |              5 |
| [65535.12](#event-6553512) | 0x0083       |     28 |              6 |
| [65535.13](#event-6553513) | 0x009F       |     15 |              3 |
| [65535.14](#event-6553514) | 0x00AE       |     15 |              3 |
| [65535.15](#event-6553515) | 0x00BD       |     14 |              4 |
| [65535.16](#event-6553516) | 0x00CB       |     14 |              4 |
| [65535.17](#event-6553517) | 0x00D9       |     14 |              4 |
| [65535.18](#event-6553518) | 0x00E7       |     14 |              4 |
| [65535.19](#event-6553519) | 0x00F5       |     14 |              4 |

## DAT References (imed_data)

|   Index | Hex Value   |   Dec Value |
|---------|-------------|-------------|
|       0 | 0x0000      |           0 |
|       1 | 0x0001      |           1 |
|       2 | 0x0080      |         128 |
|       3 | 0x69A49     |      432713 |
|       4 | 0xFFF72B8C  |  4294388620 |
|       5 | 0x0032      |          50 |
|       6 | 0x0008      |           8 |
|       7 | 0x000D      |          13 |
|       8 | 0x6FCAA     |      457898 |
|       9 | 0xFFF72E75  |  4294389365 |
|      10 | 0xFFFFFE0C  |  4294966796 |
|      11 | 0x71291     |      463505 |
|      12 | 0xFFF72B4E  |  4294388558 |
|      13 | 0xFFFFFE0D  |  4294966797 |
|      14 | 0x6FD7A     |      458106 |
|      15 | 0xFFF72CBE  |  4294388926 |
|      16 | 0x718F6     |      465142 |
|      17 | 0xFFF72E48  |  4294389320 |
|      18 | 0x0117      |         279 |
|      19 | 0x7305D     |      471133 |
|      20 | 0xFFF728A1  |  4294387873 |
|      21 | 0x6FC86     |      457862 |
|      22 | 0xFFF72D98  |  4294389144 |
|      23 | 0x07D0      |        2000 |
|      24 | 0x705D2     |      460242 |
|      25 | 0xFFF72B0A  |  4294388490 |
|      26 | 0x076E      |        1902 |
|      27 | 0x6FDF1     |      458225 |
|      28 | 0xFFF7288F  |  4294387855 |
|      29 | 0x71788     |      464776 |
|      30 | 0xFFF7295F  |  4294388063 |
|      31 | 0x6EBC8     |      453576 |
|      32 | 0xFFF72689  |  4294387337 |
|      33 | 0x64639     |      411193 |
|      34 | 0xFFF7279E  |  4294387614 |

## Events

### Event 65535

#### Metadata

| Field        | Value   |
|--------------|---------|
| Entrypoint   | 0x0000  |
| Data Size    | 1 bytes |
| Instructions | 1       |

```
      00 01 02 03 04 05 06 07  08 09 0A 0B 0C 0D 0E 0F
      -- -- -- -- -- -- -- --  -- -- -- -- -- -- -- --
0000: 00                                                .               
```

#### Opcodes

```
  0: 0x0000 [0x00] END_REQSTACK()
```

### Event 65535.1

#### Metadata

| Field        | Value   |
|--------------|---------|
| Entrypoint   | 0x0001  |
| Data Size    | 1 bytes |
| Instructions | 1       |

```
      00 01 02 03 04 05 06 07  08 09 0A 0B 0C 0D 0E 0F
      -- -- -- -- -- -- -- --  -- -- -- -- -- -- -- --
0000:    00                                              .              
```

#### Opcodes

```
  0: 0x0001 [0x00] END_REQSTACK()
```

### Event 65535.2

#### Metadata

| Field        | Value    |
|--------------|----------|
| Entrypoint   | 0x0002   |
| Data Size    | 18 bytes |
| Instructions | 4        |

```
      00 01 02 03 04 05 06 07  08 09 0A 0B 0C 0D 0E 0F
      -- -- -- -- -- -- -- --  -- -- -- -- -- -- -- --
0000:       22 00 2F 00 F8 FF  FF 7F 6C F8 FF FF 7F 00    "./.....l.....
0010: 80 01 80 00                                       ....            
```

#### Opcodes

```
  0: 0x0002 [0x22] ENTITY_HIDE_FLAG(enabled=0x00)
  1: 0x0004 [0x2F] EventEntity->Render.Flags0 &= ~0x80000 // Bit 19
  2: 0x000A [0x6C] FADE_ENTITY_COLOR(entity_id=EventEntity, end_alpha=0*, fade_time=1*)
  3: 0x0013 [0x00] END_REQSTACK()
```

### Event 65535.3

#### Metadata

| Field        | Value    |
|--------------|----------|
| Entrypoint   | 0x0014   |
| Data Size    | 10 bytes |
| Instructions | 2        |

```
      00 01 02 03 04 05 06 07  08 09 0A 0B 0C 0D 0E 0F
      -- -- -- -- -- -- -- --  -- -- -- -- -- -- -- --
0010:             6C F8 FF FF  7F 02 80 01 80 00            l.........  
```

#### Opcodes

```
  0: 0x0014 [0x6C] FADE_ENTITY_COLOR(entity_id=EventEntity, end_alpha=128*, fade_time=1*)
  1: 0x001D [0x00] END_REQSTACK()
```

### Event 65535.4

#### Metadata

| Field        | Value   |
|--------------|---------|
| Entrypoint   | 0x001E  |
| Data Size    | 9 bytes |
| Instructions | 3       |

```
      00 01 02 03 04 05 06 07  08 09 0A 0B 0C 0D 0E 0F
      -- -- -- -- -- -- -- --  -- -- -- -- -- -- -- --
0010:                                            22 00                ".
0020: 2F 00 F8 FF FF 7F 00                              /......         
```

#### Opcodes

```
  0: 0x001E [0x22] ENTITY_HIDE_FLAG(enabled=0x00)
  1: 0x0020 [0x2F] EventEntity->Render.Flags0 &= ~0x80000 // Bit 19
  2: 0x0026 [0x00] END_REQSTACK()
```

### Event 65535.5

#### Metadata

| Field        | Value   |
|--------------|---------|
| Entrypoint   | 0x0027  |
| Data Size    | 9 bytes |
| Instructions | 3       |

```
      00 01 02 03 04 05 06 07  08 09 0A 0B 0C 0D 0E 0F
      -- -- -- -- -- -- -- --  -- -- -- -- -- -- -- --
0020:                      22  01 2F 01 F8 FF FF 7F 00         "./......
```

#### Opcodes

```
  0: 0x0027 [0x22] ENTITY_HIDE_FLAG(enabled=0x01)
  1: 0x0029 [0x2F] EventEntity->Render.Flags0 |= 0x80000 // Bit 19
  2: 0x002F [0x00] END_REQSTACK()
```

### Event 65535.6

#### Metadata

| Field        | Value    |
|--------------|----------|
| Entrypoint   | 0x0030   |
| Data Size    | 10 bytes |
| Instructions | 2        |

```
      00 01 02 03 04 05 06 07  08 09 0A 0B 0C 0D 0E 0F
      -- -- -- -- -- -- -- --  -- -- -- -- -- -- -- --
0030: 6C F8 FF FF 7F 00 80 01  80 00                    l.........      
```

#### Opcodes

```
  0: 0x0030 [0x6C] FADE_ENTITY_COLOR(entity_id=EventEntity, end_alpha=0*, fade_time=1*)
  1: 0x0039 [0x00] END_REQSTACK()
```

### Event 65535.7

#### Metadata

| Field        | Value    |
|--------------|----------|
| Entrypoint   | 0x003A   |
| Data Size    | 10 bytes |
| Instructions | 2        |

```
      00 01 02 03 04 05 06 07  08 09 0A 0B 0C 0D 0E 0F
      -- -- -- -- -- -- -- --  -- -- -- -- -- -- -- --
0030:                                6C F8 FF FF 7F 02            l.....
0040: 80 01 80 00                                       ....            
```

#### Opcodes

```
  0: 0x003A [0x6C] FADE_ENTITY_COLOR(entity_id=EventEntity, end_alpha=128*, fade_time=1*)
  1: 0x0043 [0x00] END_REQSTACK()
```

### Event 1

#### Metadata

| Field        | Value   |
|--------------|---------|
| Entrypoint   | 0x0044  |
| Data Size    | 1 bytes |
| Instructions | 1       |

```
      00 01 02 03 04 05 06 07  08 09 0A 0B 0C 0D 0E 0F
      -- -- -- -- -- -- -- --  -- -- -- -- -- -- -- --
0040:             00                                        .           
```

#### Opcodes

```
  0: 0x0044 [0x00] END_REQSTACK()
```

### Event 65535.8

#### Metadata

| Field        | Value   |
|--------------|---------|
| Entrypoint   | 0x0045  |
| Data Size    | 1 bytes |
| Instructions | 1       |

```
      00 01 02 03 04 05 06 07  08 09 0A 0B 0C 0D 0E 0F
      -- -- -- -- -- -- -- --  -- -- -- -- -- -- -- --
0040:                00                                      .          
```

#### Opcodes

```
  0: 0x0045 [0x00] END_REQSTACK()
```

### Event 65535.9

#### Metadata

| Field        | Value    |
|--------------|----------|
| Entrypoint   | 0x0046   |
| Data Size    | 23 bytes |
| Instructions | 5        |

```
      00 01 02 03 04 05 06 07  08 09 0A 0B 0C 0D 0E 0F
      -- -- -- -- -- -- -- --  -- -- -- -- -- -- -- --
0040:                   37 03  80 04 80 05 80 06 80 32        7........2
0050: 07 80 1F 00 08 80 09 80  0A 80 1F 01 00           .............   
```

#### Opcodes

```
  0: 0x0046 [0x37] UPDATE_EVENT_POSITION_AND_DIR: x=432.713*, z=-578.676*, y=0.050*, direction=0.7째*
  1: 0x004F [0x32] ExtData[1]->MainSpeed = 13* * 0.1
  2: 0x0052 [0x1F] MOVE_ENTITY: EventEntity moves to X=457.898*, Z=-577.931*, Y=-0.500*
  3: 0x005A [0x1F] MOVE_ENTITY: Update entity position (mode=1)
  4: 0x005C [0x00] END_REQSTACK()
```

### Event 65535.10

#### Metadata

| Field        | Value    |
|--------------|----------|
| Entrypoint   | 0x005D   |
| Data Size    | 19 bytes |
| Instructions | 5        |

```
      00 01 02 03 04 05 06 07  08 09 0A 0B 0C 0D 0E 0F
      -- -- -- -- -- -- -- --  -- -- -- -- -- -- -- --
0050:                                         1E F1 80               ...
0060: 04 01 32 07 80 1F 00 0B  80 0C 80 0D 80 1F 01 00  ..2.............
```

#### Opcodes

```
  0: 0x005D [0x1E] EventEntity looks at Abda-Lurabda (ID: 17072369/0x010480F1) and starts talking
  1: 0x0062 [0x32] ExtData[1]->MainSpeed = 13* * 0.1
  2: 0x0065 [0x1F] MOVE_ENTITY: EventEntity moves to X=463.505*, Z=-578.738*, Y=-0.499*
  3: 0x006D [0x1F] MOVE_ENTITY: Update entity position (mode=1)
  4: 0x006F [0x00] END_REQSTACK()
```

### Event 65535.11

#### Metadata

| Field        | Value    |
|--------------|----------|
| Entrypoint   | 0x0070   |
| Data Size    | 19 bytes |
| Instructions | 5        |

```
      00 01 02 03 04 05 06 07  08 09 0A 0B 0C 0D 0E 0F
      -- -- -- -- -- -- -- --  -- -- -- -- -- -- -- --
0070: 1E F0 FF FF 7F 32 07 80  1F 00 0E 80 0F 80 0D 80  .....2..........
0080: 1F 01 00                                          ...             
```

#### Opcodes

```
  0: 0x0070 [0x1E] EventEntity looks at LocalPlayer and starts talking
  1: 0x0075 [0x32] ExtData[1]->MainSpeed = 13* * 0.1
  2: 0x0078 [0x1F] MOVE_ENTITY: EventEntity moves to X=458.106*, Z=-578.370*, Y=-0.499*
  3: 0x0080 [0x1F] MOVE_ENTITY: Update entity position (mode=1)
  4: 0x0082 [0x00] END_REQSTACK()
```

### Event 65535.12

#### Metadata

| Field        | Value    |
|--------------|----------|
| Entrypoint   | 0x0083   |
| Data Size    | 28 bytes |
| Instructions | 6        |

```
      00 01 02 03 04 05 06 07  08 09 0A 0B 0C 0D 0E 0F
      -- -- -- -- -- -- -- --  -- -- -- -- -- -- -- --
0080:          37 10 80 11 80  0D 80 12 80 1E F1 80 04     7............
0090: 01 32 07 80 1F 00 13 80  14 80 00 80 1F 01 00     .2............. 
```

#### Opcodes

```
  0: 0x0083 [0x37] UPDATE_EVENT_POSITION_AND_DIR: x=465.142*, z=-577.976*, y=-0.499*, direction=24.5째*
  1: 0x008C [0x1E] EventEntity looks at Abda-Lurabda (ID: 17072369/0x010480F1) and starts talking
  2: 0x0091 [0x32] ExtData[1]->MainSpeed = 13* * 0.1
  3: 0x0094 [0x1F] MOVE_ENTITY: EventEntity moves to X=471.133*, Z=-579.423*, Y=0.000*
  4: 0x009C [0x1F] MOVE_ENTITY: Update entity position (mode=1)
  5: 0x009E [0x00] END_REQSTACK()
```

### Event 65535.13

#### Metadata

| Field        | Value    |
|--------------|----------|
| Entrypoint   | 0x009F   |
| Data Size    | 15 bytes |
| Instructions | 3        |

```
      00 01 02 03 04 05 06 07  08 09 0A 0B 0C 0D 0E 0F
      -- -- -- -- -- -- -- --  -- -- -- -- -- -- -- --
0090:                                               37                 7
00A0: 15 80 16 80 0D 80 17 80  1E F0 FF FF 7F 00        ..............  
```

#### Opcodes

```
  0: 0x009F [0x37] UPDATE_EVENT_POSITION_AND_DIR: x=457.862*, z=-578.152*, y=-0.499*, direction=175.8째*
  1: 0x00A8 [0x1E] EventEntity looks at LocalPlayer and starts talking
  2: 0x00AD [0x00] END_REQSTACK()
```

### Event 65535.14

#### Metadata

| Field        | Value    |
|--------------|----------|
| Entrypoint   | 0x00AE   |
| Data Size    | 15 bytes |
| Instructions | 3        |

```
      00 01 02 03 04 05 06 07  08 09 0A 0B 0C 0D 0E 0F
      -- -- -- -- -- -- -- --  -- -- -- -- -- -- -- --
00A0:                                            37 18                7.
00B0: 80 19 80 0D 80 1A 80 1E  F0 FF FF 7F 00           .............   
```

#### Opcodes

```
  0: 0x00AE [0x37] UPDATE_EVENT_POSITION_AND_DIR: x=460.242*, z=-578.806*, y=-0.499*, direction=167.2째*
  1: 0x00B7 [0x1E] EventEntity looks at LocalPlayer and starts talking
  2: 0x00BC [0x00] END_REQSTACK()
```

### Event 65535.15

#### Metadata

| Field        | Value    |
|--------------|----------|
| Entrypoint   | 0x00BD   |
| Data Size    | 14 bytes |
| Instructions | 4        |

```
      00 01 02 03 04 05 06 07  08 09 0A 0B 0C 0D 0E 0F
      -- -- -- -- -- -- -- --  -- -- -- -- -- -- -- --
00B0:                                         32 07 80               2..
00C0: 1F 00 1B 80 1C 80 0D 80  1F 01 00                 ...........     
```

#### Opcodes

```
  0: 0x00BD [0x32] ExtData[1]->MainSpeed = 13* * 0.1
  1: 0x00C0 [0x1F] MOVE_ENTITY: EventEntity moves to X=458.225*, Z=-579.441*, Y=-0.499*
  2: 0x00C8 [0x1F] MOVE_ENTITY: Update entity position (mode=1)
  3: 0x00CA [0x00] END_REQSTACK()
```

### Event 65535.16

#### Metadata

| Field        | Value    |
|--------------|----------|
| Entrypoint   | 0x00CB   |
| Data Size    | 14 bytes |
| Instructions | 4        |

```
      00 01 02 03 04 05 06 07  08 09 0A 0B 0C 0D 0E 0F
      -- -- -- -- -- -- -- --  -- -- -- -- -- -- -- --
00C0:                                   32 07 80 1F 00             2....
00D0: 1D 80 1E 80 0D 80 1F 01  00                       .........       
```

#### Opcodes

```
  0: 0x00CB [0x32] ExtData[1]->MainSpeed = 13* * 0.1
  1: 0x00CE [0x1F] MOVE_ENTITY: EventEntity moves to X=464.776*, Z=-579.233*, Y=-0.499*
  2: 0x00D6 [0x1F] MOVE_ENTITY: Update entity position (mode=1)
  3: 0x00D8 [0x00] END_REQSTACK()
```

### Event 65535.17

#### Metadata

| Field        | Value    |
|--------------|----------|
| Entrypoint   | 0x00D9   |
| Data Size    | 14 bytes |
| Instructions | 4        |

```
      00 01 02 03 04 05 06 07  08 09 0A 0B 0C 0D 0E 0F
      -- -- -- -- -- -- -- --  -- -- -- -- -- -- -- --
00D0:                             32 07 80 1F 00 18 80           2......
00E0: 19 80 0D 80 1F 01 00                              .......         
```

#### Opcodes

```
  0: 0x00D9 [0x32] ExtData[1]->MainSpeed = 13* * 0.1
  1: 0x00DC [0x1F] MOVE_ENTITY: EventEntity moves to X=460.242*, Z=-578.806*, Y=-0.499*
  2: 0x00E4 [0x1F] MOVE_ENTITY: Update entity position (mode=1)
  3: 0x00E6 [0x00] END_REQSTACK()
```

### Event 65535.18

#### Metadata

| Field        | Value    |
|--------------|----------|
| Entrypoint   | 0x00E7   |
| Data Size    | 14 bytes |
| Instructions | 4        |

```
      00 01 02 03 04 05 06 07  08 09 0A 0B 0C 0D 0E 0F
      -- -- -- -- -- -- -- --  -- -- -- -- -- -- -- --
00E0:                      32  07 80 1F 00 1F 80 20 80         2...... .
00F0: 00 80 1F 01 00                                    .....           
```

#### Opcodes

```
  0: 0x00E7 [0x32] ExtData[1]->MainSpeed = 13* * 0.1
  1: 0x00EA [0x1F] MOVE_ENTITY: EventEntity moves to X=453.576*, Z=-579.959*, Y=0.000*
  2: 0x00F2 [0x1F] MOVE_ENTITY: Update entity position (mode=1)
  3: 0x00F4 [0x00] END_REQSTACK()
```

### Event 65535.19

#### Metadata

| Field        | Value    |
|--------------|----------|
| Entrypoint   | 0x00F5   |
| Data Size    | 14 bytes |
| Instructions | 4        |

```
      00 01 02 03 04 05 06 07  08 09 0A 0B 0C 0D 0E 0F
      -- -- -- -- -- -- -- --  -- -- -- -- -- -- -- --
00F0:                32 07 80  1F 00 21 80 22 80 00 80       2....!."...
0100: 1F 01 00                                          ...             
```

#### Opcodes

```
  0: 0x00F5 [0x32] ExtData[1]->MainSpeed = 13* * 0.1
  1: 0x00F8 [0x1F] MOVE_ENTITY: EventEntity moves to X=411.193*, Z=-579.682*, Y=0.000*
  2: 0x0100 [0x1F] MOVE_ENTITY: Update entity position (mode=1)
  3: 0x0102 [0x00] END_REQSTACK()
```
