# 17072335

## Common Data

| Field            | Value                            |
|------------------|----------------------------------|
| Zone             | Alzadaal Undersea Ruins (ID: 72) |
| Block Size       | 648 bytes                        |
| Total Events     | 33                               |
| References Count | 17                               |

## List of Events

| Event ID                   | Entrypoint   |   Size |   Instructions |
|----------------------------|--------------|--------|----------------|
| [65535](#event-65535)      | 0x0000       |      1 |              1 |
| [1](#event-1)              | 0x0001       |      1 |              1 |
| [2](#event-2)              | 0x0002       |      1 |              1 |
| [3](#event-3)              | 0x0003       |      1 |              1 |
| [4](#event-4)              | 0x0004       |      1 |              1 |
| [5](#event-5)              | 0x0005       |      1 |              1 |
| [65535.1](#event-655351)   | 0x0006       |     18 |              2 |
| [65535.2](#event-655352)   | 0x0018       |     10 |              2 |
| [65535.3](#event-655353)   | 0x0022       |     10 |              2 |
| [65535.4](#event-655354)   | 0x002C       |     10 |              2 |
| [65535.5](#event-655355)   | 0x0036       |     10 |              2 |
| [6](#event-6)              | 0x0040       |      1 |              1 |
| [7](#event-7)              | 0x0041       |      1 |              1 |
| [8](#event-8)              | 0x0042       |      1 |              1 |
| [9](#event-9)              | 0x0043       |      1 |              1 |
| [10](#event-10)            | 0x0044       |      1 |              1 |
| [65535.6](#event-655356)   | 0x0045       |     80 |             10 |
| [65535.7](#event-655357)   | 0x0095       |     10 |              2 |
| [65535.8](#event-655358)   | 0x009F       |     10 |              2 |
| [65535.9](#event-655359)   | 0x00A9       |     10 |              2 |
| [65535.10](#event-6553510) | 0x00B3       |     10 |              2 |
| [65535.11](#event-6553511) | 0x00BD       |     10 |              2 |
| [65535.12](#event-6553512) | 0x00C7       |     10 |              2 |
| [65535.13](#event-6553513) | 0x00D1       |     10 |              2 |
| [65535.14](#event-6553514) | 0x00DB       |     10 |              2 |
| [65535.15](#event-6553515) | 0x00E5       |     10 |              2 |
| [65535.16](#event-6553516) | 0x00EF       |     21 |              5 |
| [65535.17](#event-6553517) | 0x0104       |     21 |              3 |
| [65535.18](#event-6553518) | 0x0119       |     14 |              3 |
| [65535.19](#event-6553519) | 0x0127       |    124 |             12 |
| [11](#event-11)            | 0x01A3       |      1 |              1 |
| [65535.20](#event-6553520) | 0x01A4       |     10 |              2 |
| [307](#event-307)          | 0x01AE       |      1 |              1 |

## DAT References (imed_data)

|   Index | Hex Value   |   Dec Value |
|---------|-------------|-------------|
|       0 | 0x00EC      |         236 |
|       1 | 0x0000      |           0 |
|       2 | 0x0080      |         128 |
|       3 | 0x003C      |          60 |
|       4 | 0x0001      |           1 |
|       5 | 0x0078      |         120 |
|       6 | 0x001E      |          30 |
|       7 | 0x00E7      |         231 |
|       8 | 0x0007      |           7 |
|       9 | 0x004B      |          75 |
|      10 | 0x00F8      |         248 |
|      11 | 0x0064      |         100 |
|      12 | 0x0140      |         320 |
|      13 | 0x005A      |          90 |
|      14 | 0x006E      |         110 |
|      15 | 0x0496      |        1174 |
|      16 | 0x00B4      |         180 |

## Events

### Event 65535

#### Metadata

| Field        | Value   |
|--------------|---------|
| Entrypoint   | 0x0000  |
| Data Size    | 1 bytes |
| Instructions | 1       |

```
      00 01 02 03 04 05 06 07  08 09 0A 0B 0C 0D 0E 0F
      -- -- -- -- -- -- -- --  -- -- -- -- -- -- -- --
0000: 00                                                .               
```

#### Opcodes

```
  0: 0x0000 [0x00] END_REQSTACK()
```

### Event 1

#### Metadata

| Field        | Value   |
|--------------|---------|
| Entrypoint   | 0x0001  |
| Data Size    | 1 bytes |
| Instructions | 1       |

```
      00 01 02 03 04 05 06 07  08 09 0A 0B 0C 0D 0E 0F
      -- -- -- -- -- -- -- --  -- -- -- -- -- -- -- --
0000:    00                                              .              
```

#### Opcodes

```
  0: 0x0001 [0x00] END_REQSTACK()
```

### Event 2

#### Metadata

| Field        | Value   |
|--------------|---------|
| Entrypoint   | 0x0002  |
| Data Size    | 1 bytes |
| Instructions | 1       |

```
      00 01 02 03 04 05 06 07  08 09 0A 0B 0C 0D 0E 0F
      -- -- -- -- -- -- -- --  -- -- -- -- -- -- -- --
0000:       00                                            .             
```

#### Opcodes

```
  0: 0x0002 [0x00] END_REQSTACK()
```

### Event 3

#### Metadata

| Field        | Value   |
|--------------|---------|
| Entrypoint   | 0x0003  |
| Data Size    | 1 bytes |
| Instructions | 1       |

```
      00 01 02 03 04 05 06 07  08 09 0A 0B 0C 0D 0E 0F
      -- -- -- -- -- -- -- --  -- -- -- -- -- -- -- --
0000:          00                                          .            
```

#### Opcodes

```
  0: 0x0003 [0x00] END_REQSTACK()
```

### Event 4

#### Metadata

| Field        | Value   |
|--------------|---------|
| Entrypoint   | 0x0004  |
| Data Size    | 1 bytes |
| Instructions | 1       |

```
      00 01 02 03 04 05 06 07  08 09 0A 0B 0C 0D 0E 0F
      -- -- -- -- -- -- -- --  -- -- -- -- -- -- -- --
0000:             00                                        .           
```

#### Opcodes

```
  0: 0x0004 [0x00] END_REQSTACK()
```

### Event 5

#### Metadata

| Field        | Value   |
|--------------|---------|
| Entrypoint   | 0x0005  |
| Data Size    | 1 bytes |
| Instructions | 1       |

```
      00 01 02 03 04 05 06 07  08 09 0A 0B 0C 0D 0E 0F
      -- -- -- -- -- -- -- --  -- -- -- -- -- -- -- --
0000:                00                                      .          
```

#### Opcodes

```
  0: 0x0005 [0x00] END_REQSTACK()
```

### Event 65535.1

#### Metadata

| Field        | Value    |
|--------------|----------|
| Entrypoint   | 0x0006   |
| Data Size    | 18 bytes |
| Instructions | 2        |

```
      00 01 02 03 04 05 06 07  08 09 0A 0B 0C 0D 0E 0F
      -- -- -- -- -- -- -- --  -- -- -- -- -- -- -- --
0000:                   9F 00  80 D4 80 04 01 D4 80 04        ..........
0010: 01 6B 69 6C 6C 01 80 00                           .kill...        
```

#### Opcodes

```
  0: 0x0006 [0x9F] LOAD_SCHEDULED_TASK_ALT: Load scheduler "kill" with entities [Unnamed NPC (ID: 17072340/0x010480D4), Unnamed NPC (ID: 17072340/0x010480D4)], work=[236*, 0*]
  1: 0x0017 [0x00] END_REQSTACK()
```

### Event 65535.2

#### Metadata

| Field        | Value    |
|--------------|----------|
| Entrypoint   | 0x0018   |
| Data Size    | 10 bytes |
| Instructions | 2        |

```
      00 01 02 03 04 05 06 07  08 09 0A 0B 0C 0D 0E 0F
      -- -- -- -- -- -- -- --  -- -- -- -- -- -- -- --
0010:                          6C D5 80 04 01 02 80 03          l.......
0020: 80 00                                             ..              
```

#### Opcodes

```
  0: 0x0018 [0x6C] FADE_ENTITY_COLOR(entity_id=Unnamed NPC (ID: 17072341/0x010480D5), end_alpha=128*, fade_time=60*)
  1: 0x0021 [0x00] END_REQSTACK()
```

### Event 65535.3

#### Metadata

| Field        | Value    |
|--------------|----------|
| Entrypoint   | 0x0022   |
| Data Size    | 10 bytes |
| Instructions | 2        |

```
      00 01 02 03 04 05 06 07  08 09 0A 0B 0C 0D 0E 0F
      -- -- -- -- -- -- -- --  -- -- -- -- -- -- -- --
0020:       6C D5 80 04 01 01  80 04 80 00                l.........    
```

#### Opcodes

```
  0: 0x0022 [0x6C] FADE_ENTITY_COLOR(entity_id=Unnamed NPC (ID: 17072341/0x010480D5), end_alpha=0*, fade_time=1*)
  1: 0x002B [0x00] END_REQSTACK()
```

### Event 65535.4

#### Metadata

| Field        | Value    |
|--------------|----------|
| Entrypoint   | 0x002C   |
| Data Size    | 10 bytes |
| Instructions | 2        |

```
      00 01 02 03 04 05 06 07  08 09 0A 0B 0C 0D 0E 0F
      -- -- -- -- -- -- -- --  -- -- -- -- -- -- -- --
0020:                                      6C D3 80 04              l...
0030: 01 02 80 05 80 00                                 ......          
```

#### Opcodes

```
  0: 0x002C [0x6C] FADE_ENTITY_COLOR(entity_id=Yasfel (ID: 17072339/0x010480D3), end_alpha=128*, fade_time=120*)
  1: 0x0035 [0x00] END_REQSTACK()
```

### Event 65535.5

#### Metadata

| Field        | Value    |
|--------------|----------|
| Entrypoint   | 0x0036   |
| Data Size    | 10 bytes |
| Instructions | 2        |

```
      00 01 02 03 04 05 06 07  08 09 0A 0B 0C 0D 0E 0F
      -- -- -- -- -- -- -- --  -- -- -- -- -- -- -- --
0030:                   6C DB  80 04 01 02 80 03 80 00        l.........
```

#### Opcodes

```
  0: 0x0036 [0x6C] FADE_ENTITY_COLOR(entity_id=Raubahn (ID: 17072347/0x010480DB), end_alpha=128*, fade_time=60*)
  1: 0x003F [0x00] END_REQSTACK()
```

### Event 6

#### Metadata

| Field        | Value   |
|--------------|---------|
| Entrypoint   | 0x0040  |
| Data Size    | 1 bytes |
| Instructions | 1       |

```
      00 01 02 03 04 05 06 07  08 09 0A 0B 0C 0D 0E 0F
      -- -- -- -- -- -- -- --  -- -- -- -- -- -- -- --
0040: 00                                                .               
```

#### Opcodes

```
  0: 0x0040 [0x00] END_REQSTACK()
```

### Event 7

#### Metadata

| Field        | Value   |
|--------------|---------|
| Entrypoint   | 0x0041  |
| Data Size    | 1 bytes |
| Instructions | 1       |

```
      00 01 02 03 04 05 06 07  08 09 0A 0B 0C 0D 0E 0F
      -- -- -- -- -- -- -- --  -- -- -- -- -- -- -- --
0040:    00                                              .              
```

#### Opcodes

```
  0: 0x0041 [0x00] END_REQSTACK()
```

### Event 8

#### Metadata

| Field        | Value   |
|--------------|---------|
| Entrypoint   | 0x0042  |
| Data Size    | 1 bytes |
| Instructions | 1       |

```
      00 01 02 03 04 05 06 07  08 09 0A 0B 0C 0D 0E 0F
      -- -- -- -- -- -- -- --  -- -- -- -- -- -- -- --
0040:       00                                            .             
```

#### Opcodes

```
  0: 0x0042 [0x00] END_REQSTACK()
```

### Event 9

#### Metadata

| Field        | Value   |
|--------------|---------|
| Entrypoint   | 0x0043  |
| Data Size    | 1 bytes |
| Instructions | 1       |

```
      00 01 02 03 04 05 06 07  08 09 0A 0B 0C 0D 0E 0F
      -- -- -- -- -- -- -- --  -- -- -- -- -- -- -- --
0040:          00                                          .            
```

#### Opcodes

```
  0: 0x0043 [0x00] END_REQSTACK()
```

### Event 10

#### Metadata

| Field        | Value   |
|--------------|---------|
| Entrypoint   | 0x0044  |
| Data Size    | 1 bytes |
| Instructions | 1       |

```
      00 01 02 03 04 05 06 07  08 09 0A 0B 0C 0D 0E 0F
      -- -- -- -- -- -- -- --  -- -- -- -- -- -- -- --
0040:             00                                        .           
```

#### Opcodes

```
  0: 0x0044 [0x00] END_REQSTACK()
```

### Event 65535.6

#### Metadata

| Field        | Value    |
|--------------|----------|
| Entrypoint   | 0x0045   |
| Data Size    | 80 bytes |
| Instructions | 10       |

```
      00 01 02 03 04 05 06 07  08 09 0A 0B 0C 0D 0E 0F
      -- -- -- -- -- -- -- --  -- -- -- -- -- -- -- --
0040:                1C 06 80  4A F0 FF FF 7F E3 80 04       ...J.......
0050: 01 9F 07 80 E3 80 04 01  E3 80 04 01 6D 61 69 6E  ............main
0060: 01 80 1C 06 80 27 10 F0  FF FF 7F 47 9F 07 80 E4  .....'.....G....
0070: 80 04 01 E4 80 04 01 6D  61 69 6E 01 80 1C 06 80  .......main.....
0080: 9F 07 80 E5 80 04 01 E5  80 04 01 6D 61 69 6E 01  ...........main.
0090: 80 1C 06 80 00                                    .....           
```

#### Opcodes

```
  0: 0x0045 [0x1C] WAIT(30* ticks)
  1: 0x0048 [0x4A] LocalPlayer looks at Unnamed NPC (ID: 17072355/0x010480E3)
  2: 0x0051 [0x9F] LOAD_SCHEDULED_TASK_ALT: Load scheduler "main" with entities [Unnamed NPC (ID: 17072355/0x010480E3), Unnamed NPC (ID: 17072355/0x010480E3)], work=[231*, 0*]
  3: 0x0062 [0x1C] WAIT(30* ticks)
  4: 0x0065 [0x27] REQ_SET(priority=0x10, entity_id=LocalPlayer, tag_num=0x47)
  5: 0x006C [0x9F] LOAD_SCHEDULED_TASK_ALT: Load scheduler "main" with entities [Unnamed NPC (ID: 17072356/0x010480E4), Unnamed NPC (ID: 17072356/0x010480E4)], work=[231*, 0*]
  6: 0x007D [0x1C] WAIT(30* ticks)
  7: 0x0080 [0x9F] LOAD_SCHEDULED_TASK_ALT: Load scheduler "main" with entities [Unnamed NPC (ID: 17072357/0x010480E5), Unnamed NPC (ID: 17072357/0x010480E5)], work=[231*, 0*]
  8: 0x0091 [0x1C] WAIT(30* ticks)
  9: 0x0094 [0x00] END_REQSTACK()
```

### Event 65535.7

#### Metadata

| Field        | Value    |
|--------------|----------|
| Entrypoint   | 0x0095   |
| Data Size    | 10 bytes |
| Instructions | 2        |

```
      00 01 02 03 04 05 06 07  08 09 0A 0B 0C 0D 0E 0F
      -- -- -- -- -- -- -- --  -- -- -- -- -- -- -- --
0090:                6C DC 80  04 01 02 80 05 80 00          l......... 
```

#### Opcodes

```
  0: 0x0095 [0x6C] FADE_ENTITY_COLOR(entity_id=Amnaf (ID: 17072348/0x010480DC), end_alpha=128*, fade_time=120*)
  1: 0x009E [0x00] END_REQSTACK()
```

### Event 65535.8

#### Metadata

| Field        | Value    |
|--------------|----------|
| Entrypoint   | 0x009F   |
| Data Size    | 10 bytes |
| Instructions | 2        |

```
      00 01 02 03 04 05 06 07  08 09 0A 0B 0C 0D 0E 0F
      -- -- -- -- -- -- -- --  -- -- -- -- -- -- -- --
0090:                                               6C                 l
00A0: D7 80 04 01 02 80 04 80  00                       .........       
```

#### Opcodes

```
  0: 0x009F [0x6C] FADE_ENTITY_COLOR(entity_id=Nashmeira (ID: 17072343/0x010480D7), end_alpha=128*, fade_time=1*)
  1: 0x00A8 [0x00] END_REQSTACK()
```

### Event 65535.9

#### Metadata

| Field        | Value    |
|--------------|----------|
| Entrypoint   | 0x00A9   |
| Data Size    | 10 bytes |
| Instructions | 2        |

```
      00 01 02 03 04 05 06 07  08 09 0A 0B 0C 0D 0E 0F
      -- -- -- -- -- -- -- --  -- -- -- -- -- -- -- --
00A0:                             6C D7 80 04 01 01 80           l......
00B0: 04 80 00                                          ...             
```

#### Opcodes

```
  0: 0x00A9 [0x6C] FADE_ENTITY_COLOR(entity_id=Nashmeira (ID: 17072343/0x010480D7), end_alpha=0*, fade_time=1*)
  1: 0x00B2 [0x00] END_REQSTACK()
```

### Event 65535.10

#### Metadata

| Field        | Value    |
|--------------|----------|
| Entrypoint   | 0x00B3   |
| Data Size    | 10 bytes |
| Instructions | 2        |

```
      00 01 02 03 04 05 06 07  08 09 0A 0B 0C 0D 0E 0F
      -- -- -- -- -- -- -- --  -- -- -- -- -- -- -- --
00B0:          6C DF 80 04 01  02 80 04 80 00              l.........   
```

#### Opcodes

```
  0: 0x00B3 [0x6C] FADE_ENTITY_COLOR(entity_id=Luzaf (ID: 17072351/0x010480DF), end_alpha=128*, fade_time=1*)
  1: 0x00BC [0x00] END_REQSTACK()
```

### Event 65535.11

#### Metadata

| Field        | Value    |
|--------------|----------|
| Entrypoint   | 0x00BD   |
| Data Size    | 10 bytes |
| Instructions | 2        |

```
      00 01 02 03 04 05 06 07  08 09 0A 0B 0C 0D 0E 0F
      -- -- -- -- -- -- -- --  -- -- -- -- -- -- -- --
00B0:                                         6C DF 80               l..
00C0: 04 01 01 80 05 80 00                              .......         
```

#### Opcodes

```
  0: 0x00BD [0x6C] FADE_ENTITY_COLOR(entity_id=Luzaf (ID: 17072351/0x010480DF), end_alpha=0*, fade_time=120*)
  1: 0x00C6 [0x00] END_REQSTACK()
```

### Event 65535.12

#### Metadata

| Field        | Value    |
|--------------|----------|
| Entrypoint   | 0x00C7   |
| Data Size    | 10 bytes |
| Instructions | 2        |

```
      00 01 02 03 04 05 06 07  08 09 0A 0B 0C 0D 0E 0F
      -- -- -- -- -- -- -- --  -- -- -- -- -- -- -- --
00C0:                      6C  E0 80 04 01 02 80 04 80         l........
00D0: 00                                                .               
```

#### Opcodes

```
  0: 0x00C7 [0x6C] FADE_ENTITY_COLOR(entity_id=Odin (ID: 17072352/0x010480E0), end_alpha=128*, fade_time=1*)
  1: 0x00D0 [0x00] END_REQSTACK()
```

### Event 65535.13

#### Metadata

| Field        | Value    |
|--------------|----------|
| Entrypoint   | 0x00D1   |
| Data Size    | 10 bytes |
| Instructions | 2        |

```
      00 01 02 03 04 05 06 07  08 09 0A 0B 0C 0D 0E 0F
      -- -- -- -- -- -- -- --  -- -- -- -- -- -- -- --
00D0:    6C E0 80 04 01 01 80  04 80 00                  l.........     
```

#### Opcodes

```
  0: 0x00D1 [0x6C] FADE_ENTITY_COLOR(entity_id=Odin (ID: 17072352/0x010480E0), end_alpha=0*, fade_time=1*)
  1: 0x00DA [0x00] END_REQSTACK()
```

### Event 65535.14

#### Metadata

| Field        | Value    |
|--------------|----------|
| Entrypoint   | 0x00DB   |
| Data Size    | 10 bytes |
| Instructions | 2        |

```
      00 01 02 03 04 05 06 07  08 09 0A 0B 0C 0D 0E 0F
      -- -- -- -- -- -- -- --  -- -- -- -- -- -- -- --
00D0:                                   6C EA 80 04 01             l....
00E0: 02 80 04 80 00                                    .....           
```

#### Opcodes

```
  0: 0x00DB [0x6C] FADE_ENTITY_COLOR(entity_id=Odin (ID: 17072362/0x010480EA), end_alpha=128*, fade_time=1*)
  1: 0x00E4 [0x00] END_REQSTACK()
```

### Event 65535.15

#### Metadata

| Field        | Value    |
|--------------|----------|
| Entrypoint   | 0x00E5   |
| Data Size    | 10 bytes |
| Instructions | 2        |

```
      00 01 02 03 04 05 06 07  08 09 0A 0B 0C 0D 0E 0F
      -- -- -- -- -- -- -- --  -- -- -- -- -- -- -- --
00E0:                6C EA 80  04 01 01 80 04 80 00          l......... 
```

#### Opcodes

```
  0: 0x00E5 [0x6C] FADE_ENTITY_COLOR(entity_id=Odin (ID: 17072362/0x010480EA), end_alpha=0*, fade_time=1*)
  1: 0x00EE [0x00] END_REQSTACK()
```

### Event 65535.16

#### Metadata

| Field        | Value    |
|--------------|----------|
| Entrypoint   | 0x00EF   |
| Data Size    | 21 bytes |
| Instructions | 5        |

```
      00 01 02 03 04 05 06 07  08 09 0A 0B 0C 0D 0E 0F
      -- -- -- -- -- -- -- --  -- -- -- -- -- -- -- --
00E0:                                               1C                 .
00F0: 06 80 6E F0 FF FF 7F 08  80 99 F0 FF FF 7F 99 F0  ..n.............
0100: FF FF 7F 00                                       ....            
```

#### Opcodes

```
  0: 0x00EF [0x1C] WAIT(30* ticks)
  1: 0x00F2 [0x6E] LocalPlayer uses emote 7*
  2: 0x00F9 [0x99] Wait for LocalPlayer animation to complete
  3: 0x00FE [0x99] Wait for LocalPlayer animation to complete
  4: 0x0103 [0x00] END_REQSTACK()
```

### Event 65535.17

#### Metadata

| Field        | Value    |
|--------------|----------|
| Entrypoint   | 0x0104   |
| Data Size    | 21 bytes |
| Instructions | 3        |

```
      00 01 02 03 04 05 06 07  08 09 0A 0B 0C 0D 0E 0F
      -- -- -- -- -- -- -- --  -- -- -- -- -- -- -- --
0100:             1C 09 80 9F  0A 80 DB 80 04 01 DB 80      ............
0110: 04 01 6D 61 69 6E 01 80  00                       ..main...       
```

#### Opcodes

```
  0: 0x0104 [0x1C] WAIT(75* ticks)
  1: 0x0107 [0x9F] LOAD_SCHEDULED_TASK_ALT: Load scheduler "main" with entities [Raubahn (ID: 17072347/0x010480DB), Raubahn (ID: 17072347/0x010480DB)], work=[248*, 0*]
  2: 0x0118 [0x00] END_REQSTACK()
```

### Event 65535.18

#### Metadata

| Field        | Value    |
|--------------|----------|
| Entrypoint   | 0x0119   |
| Data Size    | 14 bytes |
| Instructions | 3        |

```
      00 01 02 03 04 05 06 07  08 09 0A 0B 0C 0D 0E 0F
      -- -- -- -- -- -- -- --  -- -- -- -- -- -- -- --
0110:                             1C 06 80 79 00 F0 FF           ...y...
0120: FF 7F D7 80 04 01 00                              .......         
```

#### Opcodes

```
  0: 0x0119 [0x1C] WAIT(30* ticks)
  1: 0x011C [0x79] LocalPlayer looks at Nashmeira (ID: 17072343/0x010480D7) (Basic look)
  2: 0x0126 [0x00] END_REQSTACK()
```

### Event 65535.19

#### Metadata

| Field        | Value     |
|--------------|-----------|
| Entrypoint   | 0x0127    |
| Data Size    | 124 bytes |
| Instructions | 12        |

```
      00 01 02 03 04 05 06 07  08 09 0A 0B 0C 0D 0E 0F
      -- -- -- -- -- -- -- --  -- -- -- -- -- -- -- --
0120:                      1C  0B 80 52 0C 80 F0 FF FF         ...R.....
0130: 7F F0 FF FF 7F 30 64 61  33 45 0C 80 F0 FF FF 7F  .....0da3E......
0140: F0 FF FF 7F 62 32 30 33  01 80 1C 0D 80 52 0C 80  ....b203.....R..
0150: F0 FF FF 7F F0 FF FF 7F  62 32 30 33 45 0C 80 F0  ........b203E...
0160: FF FF 7F F0 FF FF 7F 62  32 30 31 01 80 1C 0E 80  .......b201.....
0170: 52 0C 80 F0 FF FF 7F F0  FF FF 7F 62 32 30 31 45  R..........b201E
0180: 0C 80 F0 FF FF 7F F0 FF  FF 7F 62 32 30 30 01 80  ..........b200..
0190: 5B 0F 80 DA 80 04 01 DA  80 04 01 70 61 6E 34 1C  [..........pan4.
01A0: 05 80 00                                          ...             
```

#### Opcodes

```
  0: 0x0127 [0x1C] WAIT(100* ticks)
  1: 0x012A [0x52] END_LOAD_SCHEDULER: End scheduler "0da3" with entities [LocalPlayer, LocalPlayer], work=320*
  2: 0x0139 [0x45] LOAD_SCHEDULED_TASK: Load scheduler "b203" with entities [LocalPlayer, LocalPlayer], work=[320*, 0*]
  3: 0x014A [0x1C] WAIT(90* ticks)
  4: 0x014D [0x52] END_LOAD_SCHEDULER: End scheduler "b203" with entities [LocalPlayer, LocalPlayer], work=320*
  5: 0x015C [0x45] LOAD_SCHEDULED_TASK: Load scheduler "b201" with entities [LocalPlayer, LocalPlayer], work=[320*, 0*]
  6: 0x016D [0x1C] WAIT(110* ticks)
  7: 0x0170 [0x52] END_LOAD_SCHEDULER: End scheduler "b201" with entities [LocalPlayer, LocalPlayer], work=320*
  8: 0x017F [0x45] LOAD_SCHEDULED_TASK: Load scheduler "b200" with entities [LocalPlayer, LocalPlayer], work=[320*, 0*]
  9: 0x0190 [0x5B] LOAD_EXT_SCHEDULER: Load scheduler "pan4" with entities [Ghatsad (ID: 17072346/0x010480DA), Ghatsad (ID: 17072346/0x010480DA)], work=1174*
 10: 0x019F [0x1C] WAIT(120* ticks)
 11: 0x01A2 [0x00] END_REQSTACK()
```

### Event 11

#### Metadata

| Field        | Value   |
|--------------|---------|
| Entrypoint   | 0x01A3  |
| Data Size    | 1 bytes |
| Instructions | 1       |

```
      00 01 02 03 04 05 06 07  08 09 0A 0B 0C 0D 0E 0F
      -- -- -- -- -- -- -- --  -- -- -- -- -- -- -- --
01A0:          00                                          .            
```

#### Opcodes

```
  0: 0x01A3 [0x00] END_REQSTACK()
```

### Event 65535.20

#### Metadata

| Field        | Value    |
|--------------|----------|
| Entrypoint   | 0x01A4   |
| Data Size    | 10 bytes |
| Instructions | 2        |

```
      00 01 02 03 04 05 06 07  08 09 0A 0B 0C 0D 0E 0F
      -- -- -- -- -- -- -- --  -- -- -- -- -- -- -- --
01A0:             6C EC 80 04  01 01 80 10 80 00            l.........  
```

#### Opcodes

```
  0: 0x01A4 [0x6C] FADE_ENTITY_COLOR(entity_id=Balrahn Eidolon (ID: 17072364/0x010480EC), end_alpha=0*, fade_time=180*)
  1: 0x01AD [0x00] END_REQSTACK()
```

### Event 307

#### Metadata

| Field        | Value   |
|--------------|---------|
| Entrypoint   | 0x01AE  |
| Data Size    | 1 bytes |
| Instructions | 1       |

```
      00 01 02 03 04 05 06 07  08 09 0A 0B 0C 0D 0E 0F
      -- -- -- -- -- -- -- --  -- -- -- -- -- -- -- --
01A0:                                            00                   . 
```

#### Opcodes

```
  0: 0x01AE [0x00] END_REQSTACK()
```
