# 17072373

## Common Data

| Field            | Value                            |
|------------------|----------------------------------|
| Zone             | Alzadaal Undersea Ruins (ID: 72) |
| Block Size       | 15432 bytes                      |
| Total Events     | 5                                |
| References Count | 227                              |

## List of Events

| Event ID              | Entrypoint   |   Size |   Instructions |
|-----------------------|--------------|--------|----------------|
| [65535](#event-65535) | 0x0000       |    658 |             62 |
| [306](#event-306)     | 0x0292       |   3635 |            404 |
| [307](#event-307)     | 0x10C5       |   4039 |            453 |
| [308](#event-308)     | 0x208C       |   3550 |            397 |
| [309](#event-309)     | 0x2E6A       |   2605 |            310 |

## DAT References (imed_data)

|   Index | Hex Value   |   Dec Value |
|---------|-------------|-------------|
|       0 | 0x00C8      |         200 |
|       1 | 0x0000      |           0 |
|       2 | 0x00C9      |         201 |
|       3 | 0x0001      |           1 |
|       4 | 0x002D      |          45 |
|       5 | 0x0002      |           2 |
|       6 | 0x001E      |          30 |
|       7 | 0x00D7      |         215 |
|       8 | 0x004D      |          77 |
|       9 | 0x00FF      |         255 |
|      10 | 0x0013      |          19 |
|      11 | 0xFFF906D9  |  4294510297 |
|      12 | 0x667C6     |      419782 |
|      13 | 0xFFFFF061  |  4294963297 |
|      14 | 0x07F1      |        2033 |
|      15 | 0xFFF8B97D  |  4294490493 |
|      16 | 0x65165     |      414053 |
|      17 | 0xFFFFF060  |  4294963296 |
|      18 | 0x0BF2      |        3058 |
|      19 | 0xFFF8BE2A  |  4294491690 |
|      20 | 0x64BE2     |      412642 |
|      21 | 0xFFF8B3EA  |  4294489066 |
|      22 | 0x64AA5     |      412325 |
|      23 | 0x07F0      |        2032 |
|      24 | 0xFFF8AD5F  |  4294487391 |
|      25 | 0x65476     |      414838 |
|      26 | 0x0C0F      |        3087 |
|      27 | 0xFFF89379  |  4294480761 |
|      28 | 0x668A0     |      420000 |
|      29 | 0xFFFFF093  |  4294963347 |
|      30 | 0xFFF8B599  |  4294489497 |
|      31 | 0x687DA     |      427994 |
|      32 | 0xFFF8BFC4  |  4294492100 |
|      33 | 0x6871B     |      427803 |
|      34 | 0xFFF8CA0D  |  4294494733 |
|      35 | 0x686BA     |      427706 |
|      36 | 0x07C6      |        1990 |
|      37 | 0xFFF8D457  |  4294497367 |
|      38 | 0x6873D     |      427837 |
|      39 | 0xFFF8BC3E  |  4294491198 |
|      40 | 0x65C68     |      416872 |
|      41 | 0x0684      |        1668 |
|      42 | 0x04A4      |        1188 |
|      43 | 0x049E      |        1182 |
|      44 | 0x0345      |         837 |
|      45 | 0x0094      |         148 |
|      46 | 0x01EF      |         495 |
|      47 | 0x0096      |         150 |
|      48 | 0x0078      |         120 |
|      49 | 0x0032      |          50 |
|      50 | 0x0064      |         100 |
|      51 | 0x037B      |         891 |
|      52 | 0x1E70      |        7792 |
|      53 | 0x0353      |         851 |
|      54 | 0x1E71      |        7793 |
|      55 | 0x035A      |         858 |
|      56 | 0x0352      |         850 |
|      57 | 0x1E72      |        7794 |
|      58 | 0x04DE      |        1246 |
|      59 | 0x1E73      |        7795 |
|      60 | 0x0014      |          20 |
|      61 | 0x0080      |         128 |
|      62 | 0xFFF8C1EA  |  4294492650 |
|      63 | 0x6614D     |      418125 |
|      64 | 0xFFF8B52E  |  4294489390 |
|      65 | 0x65673     |      415347 |
|      66 | 0x0E36      |        3638 |
|      67 | 0x1E74      |        7796 |
|      68 | 0x00B4      |         180 |
|      69 | 0x003C      |          60 |
|      70 | 0x1E75      |        7797 |
|      71 | 0xFFF88433  |  4294476851 |
|      72 | 0x6625C     |      418396 |
|      73 | 0x0EFB      |        3835 |
|      74 | 0xFFF8A2E9  |  4294484713 |
|      75 | 0x64B52     |      412498 |
|      76 | 0x0A7D      |        2685 |
|      77 | 0xFFF89F92  |  4294483858 |
|      78 | 0x64567     |      410983 |
|      79 | 0xFFF8A99A  |  4294486426 |
|      80 | 0x646ED     |      411373 |
|      81 | 0x0045      |          69 |
|      82 | 0x1E76      |        7798 |
|      83 | 0x039E      |         926 |
|      84 | 0x1E77      |        7799 |
|      85 | 0xFFF88FDE  |  4294479838 |
|      86 | 0x655AD     |      415149 |
|      87 | 0x0FB6      |        4022 |
|      88 | 0x0005      |           5 |
|      89 | 0x000F      |          15 |
|      90 | 0x1E78      |        7800 |
|      91 | 0x000D      |          13 |
|      92 | 0x0003      |           3 |
|      93 | 0x0004      |           4 |
|      94 | 0x0006      |           6 |
|      95 | 0x0007      |           7 |
|      96 | 0x0008      |           8 |
|      97 | 0x0318      |         792 |
|      98 | 0x1E79      |        7801 |
|      99 | 0x0495      |        1173 |
|     100 | 0x0029      |          41 |
|     101 | 0x1E7A      |        7802 |
|     102 | 0x1E7B      |        7803 |
|     103 | 0x1E7C      |        7804 |
|     104 | 0x1E7D      |        7805 |
|     105 | 0x049B      |        1179 |
|     106 | 0x0074      |         116 |
|     107 | 0x000A      |          10 |
|     108 | 0x00BB      |         187 |
|     109 | 0x0069      |         105 |
|     110 | 0x0140      |         320 |
|     111 | 0x017C      |         380 |
|     112 | 0x1E7E      |        7806 |
|     113 | 0x005A      |          90 |
|     114 | 0x1E7F      |        7807 |
|     115 | 0x1E80      |        7808 |
|     116 | 0x0048      |          72 |
|     117 | 0x0073      |         115 |
|     118 | 0x008B      |         139 |
|     119 | 0xFFF8B290  |  4294488720 |
|     120 | 0x65AE2     |      416482 |
|     121 | 0x0927      |        2343 |
|     122 | 0xFFF8B55C  |  4294489436 |
|     123 | 0x650C1     |      413889 |
|     124 | 0x0928      |        2344 |
|     125 | 0xFFF8B435  |  4294489141 |
|     126 | 0x63D45     |      408901 |
|     127 | 0x0BB8      |        3000 |
|     128 | 0xFFF8BECF  |  4294491855 |
|     129 | 0x63D21     |      408865 |
|     130 | 0xFFF8ACAB  |  4294487211 |
|     131 | 0x6415D     |      409949 |
|     132 | 0x0BE2      |        3042 |
|     133 | 0xFFF8E31C  |  4294501148 |
|     134 | 0x6C65A     |      443994 |
|     135 | 0x0530      |        1328 |
|     136 | 0xFFF8B198  |  4294488472 |
|     137 | 0x6683C     |      419900 |
|     138 | 0x07D0      |        2000 |
|     139 | 0x0430      |        1072 |
|     140 | 0x03C3      |         963 |
|     141 | 0x006F      |         111 |
|     142 | 0x049C      |        1180 |
|     143 | 0x0366      |         870 |
|     144 | 0x0144      |         324 |
|     145 | 0x00F0      |         240 |
|     146 | 0x00B3      |         179 |
|     147 | 0xFFF8B5D6  |  4294489558 |
|     148 | 0x64DF2     |      413170 |
|     149 | 0x0D16      |        3350 |
|     150 | 0x039C      |         924 |
|     151 | 0x0028      |          40 |
|     152 | 0x1E81      |        7809 |
|     153 | 0x1E82      |        7810 |
|     154 | 0x1E83      |        7811 |
|     155 | 0x1E84      |        7812 |
|     156 | 0x000E      |          14 |
|     157 | 0x1E85      |        7813 |
|     158 | 0xFFF8B357  |  4294488919 |
|     159 | 0x64EBC     |      413372 |
|     160 | 0x042C      |        1068 |
|     161 | 0x0088      |         136 |
|     162 | 0x0389      |         905 |
|     163 | 0x1E86      |        7814 |
|     164 | 0x049A      |        1178 |
|     165 | 0x1E87      |        7815 |
|     166 | 0xFFF8B7D9  |  4294490073 |
|     167 | 0x64E2F     |      413231 |
|     168 | 0x0428      |        1064 |
|     169 | 0x0050      |          80 |
|     170 | 0x03A2      |         930 |
|     171 | 0x008A      |         138 |
|     172 | 0x1E08      |        7688 |
|     173 | 0x006B      |         107 |
|     174 | 0x007C      |         124 |
|     175 | 0x00FA      |         250 |
|     176 | 0x008C      |         140 |
|     177 | 0x03E7      |         999 |
|     178 | 0x0258      |         600 |
|     179 | 0xFFF8B914  |  4294490388 |
|     180 | 0x668A6     |      420006 |
|     181 | 0xFFF8AE98  |  4294487704 |
|     182 | 0x66792     |      419730 |
|     183 | 0xFFF8AE5F  |  4294487647 |
|     184 | 0x66331     |      418609 |
|     185 | 0x03E8      |        1000 |
|     186 | 0xFFF8B444  |  4294489156 |
|     187 | 0x66188     |      418184 |
|     188 | 0xFFF8ABBD  |  4294486973 |
|     189 | 0x66C19     |      420889 |
|     190 | 0xFFF8A8EF  |  4294486255 |
|     191 | 0x662D8     |      418520 |
|     192 | 0x0E10      |        3600 |
|     193 | 0xFFF8A81A  |  4294486042 |
|     194 | 0x666F0     |      419568 |
|     195 | 0xFFF8AD88  |  4294487432 |
|     196 | 0x6790A     |      424202 |
|     197 | 0x07DC      |        2012 |
|     198 | 0xFFF8B350  |  4294488912 |
|     199 | 0x679CA     |      424394 |
|     200 | 0xFFF8B871  |  4294490225 |
|     201 | 0x674DF     |      423135 |
|     202 | 0x07DB      |        2011 |
|     203 | 0x0009      |           9 |
|     204 | 0x09BD      |        2493 |
|     205 | 0x04C2      |        1218 |
|     206 | 0x1E88      |        7816 |
|     207 | 0x0086      |         134 |
|     208 | 0x1E89      |        7817 |
|     209 | 0x1E8A      |        7818 |
|     210 | 0x1E8B      |        7819 |
|     211 | 0x1E8C      |        7820 |
|     212 | 0x1E8D      |        7821 |
|     213 | 0x0D54      |        3412 |
|     214 | 0x04C4      |        1220 |
|     215 | 0x1E8E      |        7822 |
|     216 | 0x1E8F      |        7823 |
|     217 | 0x00AA      |         170 |
|     218 | 0x1E90      |        7824 |
|     219 | 0xFFF8B3F6  |  4294489078 |
|     220 | 0x64130     |      409904 |
|     221 | 0x0C2D      |        3117 |
|     222 | 0x1E91      |        7825 |
|     223 | 0x1E92      |        7826 |
|     224 | 0x1E93      |        7827 |
|     225 | 0x1E94      |        7828 |
|     226 | 0x1E95      |        7829 |

## String References

- **7688**: @@

## Events

### Event 65535

#### Metadata

| Field        | Value     |
|--------------|-----------|
| Entrypoint   | 0x0000    |
| Data Size    | 658 bytes |
| Instructions | 1         |

```
      00 01 02 03 04 05 06 07  08 09 0A 0B 0C 0D 0E 0F
      -- -- -- -- -- -- -- --  -- -- -- -- -- -- -- --
0000: 00 45 00 80 F0 FF FF 7F  F0 FF FF 7F 66 64 69 30  .E..........fdi0
0010: 01 80 55 00 80 F0 FF FF  7F F0 FF FF 7F 66 64 69  ..U..........fdi
0020: 30 1B 45 00 80 F0 FF FF  7F F0 FF FF 7F 66 64 6F  0.E..........fdo
0030: 30 01 80 55 00 80 F0 FF  FF 7F F0 FF FF 7F 66 64  0..U..........fd
0040: 6F 30 1B 45 00 80 F0 FF  FF 7F F0 FF FF 7F 66 64  o0.E..........fd
0050: 69 31 01 80 55 00 80 F0  FF FF 7F F0 FF FF 7F 66  i1..U..........f
0060: 64 69 31 1B 45 00 80 F0  FF FF 7F F0 FF FF 7F 66  di1.E..........f
0070: 64 6F 31 01 80 55 00 80  F0 FF FF 7F F0 FF FF 7F  do1..U..........
0080: 66 64 6F 31 1B 45 02 80  F0 FF FF 7F F0 FF FF 7F  fdo1.E..........
0090: 77 68 69 31 01 80 55 02  80 F0 FF FF 7F F0 FF FF  whi1..U.........
00A0: 7F 77 68 69 31 1B 45 02  80 F0 FF FF 7F F0 FF FF  .whi1.E.........
00B0: 7F 77 68 6F 31 01 80 55  02 80 F0 FF FF 7F F0 FF  .who1..U........
00C0: FF 7F 77 68 6F 31 1B 45  02 80 F0 FF FF 7F F0 FF  ..who1.E........
00D0: FF 7F 77 68 6F 32 01 80  55 02 80 F0 FF FF 7F F0  ..who2..U.......
00E0: FF FF 7F 77 68 6F 32 1B  45 02 80 F0 FF FF 7F F0  ...who2.E.......
00F0: FF FF 7F 77 68 6F 33 01  80 55 02 80 F0 FF FF 7F  ...who3..U......
0100: F0 FF FF 7F 77 68 6F 33  1B 62 03 80 F0 FF FF 7F  ....who3.b......
0110: F0 FF FF 7F 6D 61 69 6E  01 80 1C 04 80 45 00 80  ....main.....E..
0120: F0 FF FF 7F F0 FF FF 7F  66 64 6F 31 01 80 55 00  ........fdo1..U.
0130: 80 F0 FF FF 7F F0 FF FF  7F 66 64 6F 31 1B 45 00  .........fdo1.E.
0140: 80 F0 FF FF 7F F0 FF FF  7F 66 64 69 31 01 80 62  .........fdi1..b
0150: 05 80 F0 FF FF 7F F0 FF  FF 7F 6D 61 69 6E 01 80  ..........main..
0160: 1C 06 80 55 00 80 F0 FF  FF 7F F0 FF FF 7F 66 64  ...U..........fd
0170: 69 31 1B 45 00 80 F0 FF  FF 7F F0 FF FF 7F 62 6C  i1.E..........bl
0180: 6F 6E 01 80 45 02 80 F0  FF FF 7F F0 FF FF 7F 62  on..E..........b
0190: 6C 6F 6E 01 80 1B 45 02  80 F0 FF FF 7F F0 FF FF  lon...E.........
01A0: 7F 77 68 69 30 01 80 55  02 80 F0 FF FF 7F F0 FF  .whi0..U........
01B0: FF 7F 77 68 69 30 1B 45  02 80 F0 FF FF 7F F0 FF  ..whi0.E........
01C0: FF 7F 77 68 6F 30 01 80  55 02 80 F0 FF FF 7F F0  ..who0..U.......
01D0: FF FF 7F 77 68 6F 30 1B  45 07 80 F0 FF FF 7F F0  ...who0.E.......
01E0: FF FF 7F 65 66 6F 6E 01  80 55 07 80 F0 FF FF 7F  ...efon..U......
01F0: F0 FF FF 7F 65 66 6F 6E  1B 45 00 80 F0 FF FF 7F  ....efon.E......
0200: F0 FF FF 7F 66 64 69 73  01 80 1B 45 00 80 F0 FF  ....fdis...E....
0210: FF 7F F0 FF FF 7F 66 64  6F 73 01 80 55 00 80 F0  ......fdos..U...
0220: FF FF 7F F0 FF FF 7F 66  64 6F 73 1B 45 00 80 F0  .......fdos.E...
0230: FF FF 7F F0 FF FF 7F 66  64 69 66 01 80 1B 45 00  .......fdif...E.
0240: 80 F0 FF FF 7F F0 FF FF  7F 66 64 6F 66 01 80 55  .........fdof..U
0250: 00 80 F0 FF FF 7F F0 FF  FF 7F 66 64 6F 66 1B 45  ..........fdof.E
0260: 00 80 F0 FF FF 7F F0 FF  FF 7F 66 64 69 70 01 80  ..........fdip..
0270: 1B 45 00 80 F0 FF FF 7F  F0 FF FF 7F 66 64 6F 70  .E..........fdop
0280: 01 80 55 00 80 F0 FF FF  7F F0 FF FF 7F 66 64 6F  ..U..........fdo
0290: 70 1B                                             p.              
```

#### Opcodes

```
  0: 0x0000 [0x00] END_REQSTACK()
```

#### Data or dead code:

```
# Dead code (unreachable instructions):
     0x0001 [0x45] LOAD_SCHEDULED_TASK: Load scheduler "fdi0" with entities [LocalPlayer, LocalPlayer], work=[200*, 0*]
     0x0012 [0x55] WAIT_LOAD_SCHEDULER: Wait for scheduler "fdi0" with entities [LocalPlayer, LocalPlayer], work=200*
     0x0021 [0x1B] RETURN
     0x0022 [0x45] LOAD_SCHEDULED_TASK: Load scheduler "fdo0" with entities [LocalPlayer, LocalPlayer], work=[200*, 0*]
     0x0033 [0x55] WAIT_LOAD_SCHEDULER: Wait for scheduler "fdo0" with entities [LocalPlayer, LocalPlayer], work=200*
     0x0042 [0x1B] RETURN
     0x0043 [0x45] LOAD_SCHEDULED_TASK: Load scheduler "fdi1" with entities [LocalPlayer, LocalPlayer], work=[200*, 0*]
     0x0054 [0x55] WAIT_LOAD_SCHEDULER: Wait for scheduler "fdi1" with entities [LocalPlayer, LocalPlayer], work=200*
     0x0063 [0x1B] RETURN
     0x0064 [0x45] LOAD_SCHEDULED_TASK: Load scheduler "fdo1" with entities [LocalPlayer, LocalPlayer], work=[200*, 0*]
     0x0075 [0x55] WAIT_LOAD_SCHEDULER: Wait for scheduler "fdo1" with entities [LocalPlayer, LocalPlayer], work=200*
     0x0084 [0x1B] RETURN
     0x0085 [0x45] LOAD_SCHEDULED_TASK: Load scheduler "whi1" with entities [LocalPlayer, LocalPlayer], work=[201*, 0*]
     0x0096 [0x55] WAIT_LOAD_SCHEDULER: Wait for scheduler "whi1" with entities [LocalPlayer, LocalPlayer], work=201*
     0x00A5 [0x1B] RETURN
     0x00A6 [0x45] LOAD_SCHEDULED_TASK: Load scheduler "who1" with entities [LocalPlayer, LocalPlayer], work=[201*, 0*]
     0x00B7 [0x55] WAIT_LOAD_SCHEDULER: Wait for scheduler "who1" with entities [LocalPlayer, LocalPlayer], work=201*
     0x00C6 [0x1B] RETURN
     0x00C7 [0x45] LOAD_SCHEDULED_TASK: Load scheduler "who2" with entities [LocalPlayer, LocalPlayer], work=[201*, 0*]
     0x00D8 [0x55] WAIT_LOAD_SCHEDULER: Wait for scheduler "who2" with entities [LocalPlayer, LocalPlayer], work=201*
     0x00E7 [0x1B] RETURN
     0x00E8 [0x45] LOAD_SCHEDULED_TASK: Load scheduler "who3" with entities [LocalPlayer, LocalPlayer], work=[201*, 0*]
     0x00F9 [0x55] WAIT_LOAD_SCHEDULER: Wait for scheduler "who3" with entities [LocalPlayer, LocalPlayer], work=201*
     0x0108 [0x1B] RETURN
     0x0109 [0x62] LOAD_EVENT_SCHEDULER: Load scheduler "main" with entities [LocalPlayer, LocalPlayer], work=[1*, 0*]
     0x011A [0x1C] WAIT(45* ticks)
     0x011D [0x45] LOAD_SCHEDULED_TASK: Load scheduler "fdo1" with entities [LocalPlayer, LocalPlayer], work=[200*, 0*]
     0x012E [0x55] WAIT_LOAD_SCHEDULER: Wait for scheduler "fdo1" with entities [LocalPlayer, LocalPlayer], work=200*
     0x013D [0x1B] RETURN
     0x013E [0x45] LOAD_SCHEDULED_TASK: Load scheduler "fdi1" with entities [LocalPlayer, LocalPlayer], work=[200*, 0*]
     0x014F [0x62] LOAD_EVENT_SCHEDULER: Load scheduler "main" with entities [LocalPlayer, LocalPlayer], work=[2*, 0*]
     0x0160 [0x1C] WAIT(30* ticks)
     0x0163 [0x55] WAIT_LOAD_SCHEDULER: Wait for scheduler "fdi1" with entities [LocalPlayer, LocalPlayer], work=200*
     0x0172 [0x1B] RETURN
     0x0173 [0x45] LOAD_SCHEDULED_TASK: Load scheduler "blon" with entities [LocalPlayer, LocalPlayer], work=[200*, 0*]
     0x0184 [0x45] LOAD_SCHEDULED_TASK: Load scheduler "blon" with entities [LocalPlayer, LocalPlayer], work=[201*, 0*]
     0x0195 [0x1B] RETURN
     0x0196 [0x45] LOAD_SCHEDULED_TASK: Load scheduler "whi0" with entities [LocalPlayer, LocalPlayer], work=[201*, 0*]
     0x01A7 [0x55] WAIT_LOAD_SCHEDULER: Wait for scheduler "whi0" with entities [LocalPlayer, LocalPlayer], work=201*
     0x01B6 [0x1B] RETURN
     0x01B7 [0x45] LOAD_SCHEDULED_TASK: Load scheduler "who0" with entities [LocalPlayer, LocalPlayer], work=[201*, 0*]
     0x01C8 [0x55] WAIT_LOAD_SCHEDULER: Wait for scheduler "who0" with entities [LocalPlayer, LocalPlayer], work=201*
     0x01D7 [0x1B] RETURN
     0x01D8 [0x45] LOAD_SCHEDULED_TASK: Load scheduler "efon" with entities [LocalPlayer, LocalPlayer], work=[215*, 0*]
     0x01E9 [0x55] WAIT_LOAD_SCHEDULER: Wait for scheduler "efon" with entities [LocalPlayer, LocalPlayer], work=215*
     0x01F8 [0x1B] RETURN
     0x01F9 [0x45] LOAD_SCHEDULED_TASK: Load scheduler "fdis" with entities [LocalPlayer, LocalPlayer], work=[200*, 0*]
     0x020A [0x1B] RETURN
     0x020B [0x45] LOAD_SCHEDULED_TASK: Load scheduler "fdos" with entities [LocalPlayer, LocalPlayer], work=[200*, 0*]
     0x021C [0x55] WAIT_LOAD_SCHEDULER: Wait for scheduler "fdos" with entities [LocalPlayer, LocalPlayer], work=200*
     0x022B [0x1B] RETURN
     0x022C [0x45] LOAD_SCHEDULED_TASK: Load scheduler "fdif" with entities [LocalPlayer, LocalPlayer], work=[200*, 0*]
     0x023D [0x1B] RETURN
     0x023E [0x45] LOAD_SCHEDULED_TASK: Load scheduler "fdof" with entities [LocalPlayer, LocalPlayer], work=[200*, 0*]
     0x024F [0x55] WAIT_LOAD_SCHEDULER: Wait for scheduler "fdof" with entities [LocalPlayer, LocalPlayer], work=200*
     0x025E [0x1B] RETURN
     0x025F [0x45] LOAD_SCHEDULED_TASK: Load scheduler "fdip" with entities [LocalPlayer, LocalPlayer], work=[200*, 0*]
     0x0270 [0x1B] RETURN
     0x0271 [0x45] LOAD_SCHEDULED_TASK: Load scheduler "fdop" with entities [LocalPlayer, LocalPlayer], work=[200*, 0*]
     0x0282 [0x55] WAIT_LOAD_SCHEDULER: Wait for scheduler "fdop" with entities [LocalPlayer, LocalPlayer], work=200*
     0x0291 [0x1B] RETURN
```

### Event 306

#### Metadata

| Field        | Value      |
|--------------|------------|
| Entrypoint   | 0x0292     |
| Data Size    | 3635 bytes |
| Instructions | 404        |

```
      00 01 02 03 04 05 06 07  08 09 0A 0B 0C 0D 0E 0F
      -- -- -- -- -- -- -- --  -- -- -- -- -- -- -- --
0290:       42 45 00 80 F8 FF  FF 7F F8 FF FF 7F 66 64    BE..........fd
02A0: 6F 31 01 80 55 00 80 F8  FF FF 7F F8 FF FF 7F 66  o1..U..........f
02B0: 64 6F 31 46 01 34 08 80  77 09 80 03 80 1C 06 80  do1F.4..w.......
02C0: AB 09 29 10 E7 80 04 01  07 38 0A 80 4E 00 F0 FF  ..)......8..N...
02D0: FF 7F 27 10 D7 80 04 01  04 27 10 F9 80 04 01 04  ..'......'......
02E0: 27 10 F8 80 04 01 04 27  10 FE 80 04 01 04 27 10  '......'......'.
02F0: E1 80 04 01 04 27 10 E2  80 04 01 04 27 10 F7 80  .....'......'...
0300: 04 01 04 27 10 F6 80 04  01 04 27 10 FA 80 04 01  ...'......'.....
0310: 04 27 10 DB 80 04 01 04  27 10 FB 80 04 01 02 92  .'......'.......
0320: 01 D7 80 04 01 92 01 F9  80 04 01 92 01 F8 80 04  ................
0330: 01 92 01 FE 80 04 01 92  01 E1 80 04 01 92 01 E2  ................
0340: 80 04 01 92 01 F7 80 04  01 92 01 F6 80 04 01 92  ................
0350: 01 FA 80 04 01 92 01 DB  80 04 01 92 01 FB 80 04  ................
0360: 01 94 01 F0 FF FF 7F 94  01 D7 80 04 01 94 01 F9  ................
0370: 80 04 01 94 01 F8 80 04  01 94 01 FE 80 04 01 94  ................
0380: 01 E1 80 04 01 94 01 E2  80 04 01 94 01 F7 80 04  ................
0390: 01 94 01 F6 80 04 01 94  01 FA 80 04 01 94 01 DB  ................
03A0: 80 04 01 94 01 FB 80 04  01 BA F0 FF FF 7F 0B 80  ................
03B0: 0C 80 0D 80 0E 80 BA D7  80 04 01 0F 80 10 80 11  ................
03C0: 80 12 80 BA F9 80 04 01  13 80 14 80 11 80 0E 80  ................
03D0: BA F8 80 04 01 15 80 16  80 11 80 17 80 BA FE 80  ................
03E0: 04 01 18 80 19 80 0D 80  1A 80 BA E2 80 04 01 18  ................
03F0: 80 19 80 0D 80 1A 80 BA  E1 80 04 01 1B 80 1C 80  ................
0400: 1D 80 01 80 BA F7 80 04  01 1E 80 1F 80 0D 80 0E  ................
0410: 80 BA F6 80 04 01 20 80  21 80 0D 80 0E 80 BA FA  ...... .!.......
0420: 80 04 01 22 80 23 80 0D  80 24 80 BA DB 80 04 01  ...".#...$......
0430: 25 80 26 80 0D 80 0E 80  BA FB 80 04 01 27 80 28  %.&..........'.(
0440: 80 0D 80 29 80 7B F0 FF  FF 7F 7B D7 80 04 01 7B  ...).{....{....{
0450: F9 80 04 01 7B F8 80 04  01 7B FE 80 04 01 7B E1  ....{....{....{.
0460: 80 04 01 7B E2 80 04 01  7B F7 80 04 01 7B F6 80  ...{....{....{..
0470: 04 01 7B FA 80 04 01 7B  DB 80 04 01 7B FB 80 04  ..{....{....{...
0480: 01 80 F0 FF FF 7F 80 D7  80 04 01 80 F9 80 04 01  ................
0490: 80 F8 80 04 01 80 FE 80  04 01 80 E1 80 04 01 80  ................
04A0: E2 80 04 01 80 F7 80 04  01 80 F6 80 04 01 80 FA  ................
04B0: 80 04 01 80 DB 80 04 01  80 FB 80 04 01 5B 2A 80  .............[*.
04C0: E2 80 04 01 E2 80 04 01  61 6C 78 30 5B 2B 80 E1  ........alx0[+..
04D0: 80 04 01 E1 80 04 01 62  32 6C 35 5B 2C 80 DB 80  .......b2l5[,...
04E0: 04 01 DB 80 04 01 73 74  61 30 4A D7 80 04 01 E1  ......sta0J.....
04F0: 80 04 01 4A F9 80 04 01  E1 80 04 01 4A F8 80 04  ...J........J...
0500: 01 E1 80 04 01 4A F7 80  04 01 E1 80 04 01 4A F6  .....J........J.
0510: 80 04 01 E1 80 04 01 4A  FA 80 04 01 E1 80 04 01  .......J........
0520: 4A DB 80 04 01 E1 80 04  01 5C 00 2D 80 5C 01 2D  J........\.-.\.-
0530: 80 5C 02 01 80 5C 03 01  80 9A 1C 06 80 45 2E 80  .\...\.......E..
0540: F0 FF FF 7F F0 FF FF 7F  73 31 30 31 01 80 1A 43  ........s101...C
0550: 00 1C 2F 80 52 2E 80 F0  FF FF 7F F0 FF FF 7F 73  ../.R..........s
0560: 31 30 31 45 2E 80 F0 FF  FF 7F F0 FF FF 7F 73 31  101E..........s1
0570: 32 33 01 80 1C 2F 80 52  2E 80 F0 FF FF 7F F0 FF  23.../.R........
0580: FF 7F 73 31 32 33 45 2E  80 F0 FF FF 7F F0 FF FF  ..s123E.........
0590: 7F 73 31 32 34 01 80 27  10 F0 FF FF 7F 4D 1C 30  .s124..'.....M.0
05A0: 80 52 2E 80 F0 FF FF 7F  F0 FF FF 7F 73 31 32 34  .R..........s124
05B0: 45 2E 80 F0 FF FF 7F F0  FF FF 7F 73 31 32 35 01  E..........s125.
05C0: 80 1C 31 80 4A D7 80 04  01 F0 FF FF 7F 4A F9 80  ..1.J........J..
05D0: 04 01 F0 FF FF 7F 4A F8  80 04 01 F0 FF FF 7F 7B  ......J........{
05E0: D7 80 04 01 1C 32 80 52  2E 80 F0 FF FF 7F F0 FF  .....2.R........
05F0: FF 7F 73 31 32 35 45 2E  80 F0 FF FF 7F F0 FF FF  ..s125E.........
0600: 7F 73 31 30 32 01 80 5B  33 80 D7 80 04 01 D7 80  .s102..[3.......
0610: 04 01 74 6C 6B 30 2B D7  80 04 01 34 80 23 52 2E  ..tlk0+....4.#R.
0620: 80 F0 FF FF 7F F0 FF FF  7F 73 31 30 32 45 2E 80  .........s102E..
0630: F0 FF FF 7F F0 FF FF 7F  73 31 30 33 01 80 5B 33  ........s103..[3
0640: 80 D7 80 04 01 D7 80 04  01 74 6C 6B 31 5B 35 80  .........tlk1[5.
0650: F9 80 04 01 F9 80 04 01  79 61 68 30 2B F9 80 04  ........yah0+...
0660: 01 36 80 23 52 2E 80 F0  FF FF 7F F0 FF FF 7F 73  .6.#R..........s
0670: 31 30 33 45 2E 80 F0 FF  FF 7F F0 FF FF 7F 73 31  103E..........s1
0680: 30 34 01 80 5B 37 80 F9  80 04 01 F9 80 04 01 74  04..[7.........t
0690: 6C 6B 31 5B 38 80 F8 80  04 01 F8 80 04 01 74 6C  lk1[8.........tl
06A0: 6B 30 2B F8 80 04 01 39  80 23 52 2E 80 F0 FF FF  k0+....9.#R.....
06B0: 7F F0 FF FF 7F 73 31 30  34 45 2E 80 F0 FF FF 7F  .....s104E......
06C0: F0 FF FF 7F 73 31 30 35  01 80 5B 38 80 F8 80 04  ....s105..[8....
06D0: 01 F8 80 04 01 74 6C 6B  31 79 00 FE 80 04 01 F0  .....tlk1y......
06E0: FF FF 7F 1C 06 80 03 02  10 3A 80 2B FE 80 04 01  .........:.+....
06F0: 3B 80 23 52 2E 80 F0 FF  FF 7F F0 FF FF 7F 73 31  ;.#R..........s1
0700: 30 35 45 2E 80 F0 FF FF  7F F0 FF FF 7F 73 31 30  05E..........s10
0710: 36 01 80 1C 3C 80 6C FB  80 04 01 3D 80 03 80 27  6...<.l....=...'
0720: 10 F0 FF FF 7F 49 6B 69  64 6C 30 FE 80 04 01 7B  .....Ikidl0....{
0730: F0 FF FF 7F BA F0 FF FF  7F 3E 80 3F 80 1D 80 29  .........>.?...)
0740: 80 BA FE 80 04 01 40 80  41 80 0D 80 42 80 1C 2F  ......@.A...B../
0750: 80 52 2E 80 F0 FF FF 7F  F0 FF FF 7F 73 31 30 36  .R..........s106
0760: 45 2E 80 F0 FF FF 7F F0  FF FF 7F 73 31 32 37 01  E..........s127.
0770: 80 2B FE 80 04 01 43 80  23 27 10 F0 FF FF 7F 4A  .+....C.#'.....J
0780: 52 2E 80 F0 FF FF 7F F0  FF FF 7F 73 31 32 37 45  R..........s127E
0790: 2E 80 F0 FF FF 7F F0 FF  FF 7F 73 31 30 37 01 80  ..........s107..
07A0: 1C 44 80 27 10 FE 80 04  01 0E 1C 45 80 52 2E 80  .D.'.......E.R..
07B0: F0 FF FF 7F F0 FF FF 7F  73 31 30 37 45 2E 80 F0  ........s107E...
07C0: FF FF 7F F0 FF FF 7F 73  31 30 38 01 80 2A 10 FE  .......s108..*..
07D0: 80 04 01 1C 06 80 03 02  10 30 80 27 10 CE 80 04  .........0.'....
07E0: 01 07 2C FB 80 04 01 FB  80 04 01 6F 70 65 32 1C  ..,........ope2.
07F0: 45 80 2B FE 80 04 01 46  80 23 2A 10 CE 80 04 01  E.+....F.#*.....
0800: 1A 64 00 52 2E 80 F0 FF  FF 7F F0 FF FF 7F 73 31  .d.R..........s1
0810: 30 38 4E 01 FB 80 04 01  BA FE 80 04 01 47 80 48  08N..........G.H
0820: 80 0D 80 49 80 BA D7 80  04 01 4A 80 4B 80 0D 80  ...I......J.K...
0830: 4C 80 BA F8 80 04 01 4D  80 4E 80 0D 80 4C 80 BA  L......M.N...L..
0840: F9 80 04 01 4F 80 50 80  0D 80 4C 80 4A D7 80 04  ....O.P...L.J...
0850: 01 FE 80 04 01 66 51 80  FE 80 04 01 FE 80 04 01  .....fQ.........
0860: 73 68 61 31 7B D7 80 04  01 7B F0 FF FF 7F 7B FE  sha1{....{....{.
0870: 80 04 01 1C 45 80 45 2E  80 F0 FF FF 7F F0 FF FF  ....E.E.........
0880: 7F 73 31 30 39 01 80 1A  43 00 1C 30 80 52 2E 80  .s109...C..0.R..
0890: F0 FF FF 7F F0 FF FF 7F  73 31 30 39 45 2E 80 F0  ........s109E...
08A0: FF FF 7F F0 FF FF 7F 73  31 31 30 01 80 79 00 FE  .......s110..y..
08B0: 80 04 01 D7 80 04 01 1C  3C 80 2B FE 80 04 01 52  ........<.+....R
08C0: 80 23 52 2E 80 F0 FF FF  7F F0 FF FF 7F 73 31 31  .#R..........s11
08D0: 30 45 2E 80 F0 FF FF 7F  F0 FF FF 7F 73 31 31 32  0E..........s112
08E0: 01 80 5B 53 80 D7 80 04  01 D7 80 04 01 79 65 73  ..[S.........yes
08F0: 30 2B D7 80 04 01 54 80  23 BA FE 80 04 01 55 80  0+....T.#.....U.
0900: 56 80 0D 80 57 80 1C 58  80 59 04 FE 80 04 01 59  V...W..X.Y.....Y
0910: 80 27 10 FE 80 04 01 0C  1C 06 80 52 2E 80 F0 FF  .'.........R....
0920: FF 7F F0 FF FF 7F 73 31  31 32 45 2E 80 F0 FF FF  ......s112E.....
0930: 7F F0 FF FF 7F 73 31 31  33 01 80 79 00 FE 80 04  .....s113..y....
0940: 01 F0 FF FF 7F 4A D7 80  04 01 F0 FF FF 7F 1C 3C  .....J.........<
0950: 80 4A F9 80 04 01 F0 FF  FF 7F 1C 3C 80 4A F8 80  .J.........<.J..
0960: 04 01 F0 FF FF 7F 1C 45  80 03 02 10 3A 80 2B FE  .......E....:.+.
0970: 80 04 01 5A 80 23 52 2E  80 F0 FF FF 7F F0 FF FF  ...Z.#R.........
0980: 7F 73 31 31 33 45 2E 80  F0 FF FF 7F F0 FF FF 7F  .s113E..........
0990: 73 31 31 34 01 80 59 04  F0 FF FF 7F 5B 80 29 10  s114..Y.....[.).
09A0: F0 FF FF 7F 4E 4A F6 80  04 01 F0 FF FF 7F 52 2E  ....NJ........R.
09B0: 80 F0 FF FF 7F F0 FF FF  7F 73 31 31 34 29 10 F0  .........s114)..
09C0: FF FF 7F 2D 02 02 10 03  80 80 EF 09 52 2E 80 F0  ...-........R...
09D0: FF FF 7F F0 FF FF 7F 73  31 31 34 45 2E 80 F0 FF  .......s114E....
09E0: FF 7F F0 FF FF 7F 73 68  6D 31 01 80 01 1C 0B 02  ......shm1......
09F0: 02 10 05 80 80 1A 0A 52  2E 80 F0 FF FF 7F F0 FF  .......R........
0A00: FF 7F 73 31 31 34 45 2E  80 F0 FF FF 7F F0 FF FF  ..s114E.........
0A10: 7F 73 68 6D 31 01 80 01  1C 0B 02 02 10 5C 80 80  .shm1........\..
0A20: 45 0A 52 2E 80 F0 FF FF  7F F0 FF FF 7F 73 31 31  E.R..........s11
0A30: 34 45 2E 80 F0 FF FF 7F  F0 FF FF 7F 73 65 6D 31  4E..........sem1
0A40: 01 80 01 1C 0B 02 02 10  5D 80 80 70 0A 52 2E 80  ........]..p.R..
0A50: F0 FF FF 7F F0 FF FF 7F  73 31 31 34 45 2E 80 F0  ........s114E...
0A60: FF FF 7F F0 FF FF 7F 73  65 6D 31 01 80 01 1C 0B  .......sem1.....
0A70: 02 02 10 58 80 80 9B 0A  52 2E 80 F0 FF FF 7F F0  ...X....R.......
0A80: FF FF 7F 73 31 31 34 45  2E 80 F0 FF FF 7F F0 FF  ...s114E........
0A90: FF 7F 73 74 72 31 01 80  01 1C 0B 02 02 10 5E 80  ..str1........^.
0AA0: 80 C6 0A 52 2E 80 F0 FF  FF 7F F0 FF FF 7F 73 31  ...R..........s1
0AB0: 31 34 45 2E 80 F0 FF FF  7F F0 FF FF 7F 73 74 72  14E..........str
0AC0: 31 01 80 01 1C 0B 02 02  10 5F 80 80 F1 0A 52 2E  1........_....R.
0AD0: 80 F0 FF FF 7F F0 FF FF  7F 73 31 31 34 45 2E 80  .........s114E..
0AE0: F0 FF FF 7F F0 FF FF 7F  73 6D 74 31 01 80 01 1C  ........smt1....
0AF0: 0B 02 02 10 60 80 80 1C  0B 52 2E 80 F0 FF FF 7F  ....`....R......
0B00: F0 FF FF 7F 73 31 31 34  45 2E 80 F0 FF FF 7F F0  ....s114E.......
0B10: FF FF 7F 73 67 6C 31 01  80 01 1C 0B 6E F0 FF FF  ...sgl1.....n...
0B20: 7F 5F 80 99 F0 FF FF 7F  1C 30 80 52 2E 80 F0 FF  ._.......0.R....
0B30: FF 7F F0 FF FF 7F 73 68  6D 31 52 2E 80 F0 FF FF  ......shm1R.....
0B40: 7F F0 FF FF 7F 73 65 6D  31 52 2E 80 F0 FF FF 7F  .....sem1R......
0B50: F0 FF FF 7F 73 74 72 31  52 2E 80 F0 FF FF 7F F0  ....str1R.......
0B60: FF FF 7F 73 6D 74 31 52  2E 80 F0 FF FF 7F F0 FF  ...smt1R........
0B70: FF 7F 73 67 6C 31 45 2E  80 F0 FF FF 7F F0 FF FF  ..sgl1E.........
0B80: 7F 73 31 31 35 01 80 5B  61 80 F6 80 04 01 F6 80  .s115..[a.......
0B90: 04 01 74 6C 6B 30 2B F6  80 04 01 62 80 23 5B 61  ..tlk0+....b.#[a
0BA0: 80 F6 80 04 01 F6 80 04  01 74 6C 6B 31 4A FA 80  .........tlk1J..
0BB0: 04 01 F6 80 04 01 52 2E  80 F0 FF FF 7F F0 FF FF  ......R.........
0BC0: 7F 73 31 31 35 45 2E 80  F0 FF FF 7F F0 FF FF 7F  .s115E..........
0BD0: 73 31 31 36 01 80 6F 76  FA 80 04 01 BA FE 80 04  s116..ov........
0BE0: 01 18 80 19 80 0D 80 1A  80 4A F7 80 04 01 F6 80  .........J......
0BF0: 04 01 7B FE 80 04 01 5B  63 80 FE 80 04 01 FE 80  ..{....[c.......
0C00: 04 01 70 61 6E 31 79 00  FA 80 04 01 F6 80 04 01  ..pan1y.........
0C10: 7B FA 80 04 01 66 64 80  FA 80 04 01 FA 80 04 01  {....fd.........
0C20: 73 68 6B 30 2B FA 80 04  01 65 80 23 52 2E 80 F0  shk0+....e.#R...
0C30: FF FF 7F F0 FF FF 7F 73  31 31 36 45 2E 80 F0 FF  .......s116E....
0C40: FF 7F F0 FF FF 7F 73 31  31 37 01 80 66 3C 80 F7  ......s117..f<..
0C50: 80 04 01 F7 80 04 01 74  68 6B 31 2B F7 80 04 01  .......thk1+....
0C60: 66 80 23 52 2E 80 F0 FF  FF 7F F0 FF FF 7F 73 31  f.#R..........s1
0C70: 31 37 45 2E 80 F0 FF FF  7F F0 FF FF 7F 73 31 31  17E..........s11
0C80: 38 01 80 7C 00 DB 80 04  01 2B DB 80 04 01 67 80  8..|.....+....g.
0C90: 23 7C 01 DB 80 04 01 5D  01 80 30 80 52 2E 80 F0  #|.....]..0.R...
0CA0: FF FF 7F F0 FF FF 7F 73  31 31 38 45 2E 80 F0 FF  .......s118E....
0CB0: FF 7F F0 FF FF 7F 73 31  31 39 01 80 5B 63 80 FE  ......s119..[c..
0CC0: 80 04 01 FE 80 04 01 70  61 6E 33 2B FE 80 04 01  .......pan3+....
0CD0: 68 80 23 52 2E 80 F0 FF  FF 7F F0 FF FF 7F 73 31  h.#R..........s1
0CE0: 31 39 45 2E 80 F0 FF FF  7F F0 FF FF 7F 73 31 32  19E..........s12
0CF0: 30 01 80 66 3C 80 F7 80  04 01 F7 80 04 01 74 68  0..f<.........th
0D00: 6B 32 5B 69 80 E1 80 04  01 E1 80 04 01 62 31 30  k2[i.........b10
0D10: 30 29 10 F0 FF FF 7F 4F  27 10 F0 FF FF 7F 47 1C  0).....O'.....G.
0D20: 06 80 29 10 F0 FF FF 7F  2D 02 02 10 03 80 80 54  ..).....-......T
0D30: 0D 52 2E 80 F0 FF FF 7F  F0 FF FF 7F 73 31 32 30  .R..........s120
0D40: 45 2E 80 F0 FF FF 7F F0  FF FF 7F 73 68 6D 32 01  E..........shm2.
0D50: 80 01 81 0E 02 02 10 05  80 80 7F 0D 52 2E 80 F0  ............R...
0D60: FF FF 7F F0 FF FF 7F 73  31 32 30 45 2E 80 F0 FF  .......s120E....
0D70: FF 7F F0 FF FF 7F 73 68  6D 32 01 80 01 81 0E 02  ......shm2......
0D80: 02 10 5C 80 80 AA 0D 52  2E 80 F0 FF FF 7F F0 FF  ..\....R........
0D90: FF 7F 73 31 32 30 45 2E  80 F0 FF FF 7F F0 FF FF  ..s120E.........
0DA0: 7F 73 65 6D 32 01 80 01  81 0E 02 02 10 5D 80 80  .sem2........]..
0DB0: D5 0D 52 2E 80 F0 FF FF  7F F0 FF FF 7F 73 31 32  ..R..........s12
0DC0: 30 45 2E 80 F0 FF FF 7F  F0 FF FF 7F 73 65 6D 32  0E..........sem2
0DD0: 01 80 01 81 0E 02 02 10  58 80 80 00 0E 52 2E 80  ........X....R..
0DE0: F0 FF FF 7F F0 FF FF 7F  73 31 32 30 45 2E 80 F0  ........s120E...
0DF0: FF FF 7F F0 FF FF 7F 73  74 72 32 01 80 01 81 0E  .......str2.....
0E00: 02 02 10 5E 80 80 2B 0E  52 2E 80 F0 FF FF 7F F0  ...^..+.R.......
0E10: FF FF 7F 73 31 32 30 45  2E 80 F0 FF FF 7F F0 FF  ...s120E........
0E20: FF 7F 73 74 72 32 01 80  01 81 0E 02 02 10 5F 80  ..str2........_.
0E30: 80 56 0E 52 2E 80 F0 FF  FF 7F F0 FF FF 7F 73 31  .V.R..........s1
0E40: 32 30 45 2E 80 F0 FF FF  7F F0 FF FF 7F 73 6D 74  20E..........smt
0E50: 32 01 80 01 81 0E 02 02  10 60 80 80 81 0E 52 2E  2........`....R.
0E60: 80 F0 FF FF 7F F0 FF FF  7F 73 31 32 30 45 2E 80  .........s120E..
0E70: F0 FF FF 7F F0 FF FF 7F  73 67 6C 32 01 80 01 81  ........sgl2....
0E80: 0E 1C 30 80 5B 69 80 E1  80 04 01 E1 80 04 01 62  ..0.[i.........b
0E90: 31 30 30 BB 6A 80 E1 80  04 01 E1 80 04 01 74 65  100.j.........te
0EA0: 78 30 01 80 1C 6B 80 52  2E 80 F0 FF FF 7F F0 FF  x0...k.R........
0EB0: FF 7F 73 68 6D 32 52 2E  80 F0 FF FF 7F F0 FF FF  ..shm2R.........
0EC0: 7F 73 65 6D 32 52 2E 80  F0 FF FF 7F F0 FF FF 7F  .sem2R..........
0ED0: 73 74 72 32 52 2E 80 F0  FF FF 7F F0 FF FF 7F 73  str2R..........s
0EE0: 6D 74 32 52 2E 80 F0 FF  FF 7F F0 FF FF 7F 73 67  mt2R..........sg
0EF0: 6C 32 45 2E 80 F0 FF FF  7F F0 FF FF 7F 73 31 32  l2E..........s12
0F00: 36 01 80 1C 44 80 5C 00  6C 80 5C 01 6C 80 5C 02  6...D.\.l.\.l.\.
0F10: 6C 80 5C 03 6C 80 9A BB  6D 80 E1 80 04 01 E1 80  l.\.l...m.......
0F20: 04 01 73 30 30 31 01 80  5B 69 80 E1 80 04 01 E1  ..s001..[i......
0F30: 80 04 01 62 31 30 31 1C  6B 80 52 2E 80 F0 FF FF  ...b101.k.R.....
0F40: 7F F0 FF FF 7F 73 31 32  36 45 6E 80 F0 FF FF 7F  .....s126En.....
0F50: F0 FF FF 7F 30 64 61 33  01 80 03 02 10 6F 80 27  ....0da3.....o.'
0F60: 10 CE 80 04 01 07 27 10  FC 80 04 01 0C 2B E1 80  ......'......+..
0F70: 04 01 70 80 1C 71 80 2A  10 CE 80 04 01 7C 00 FE  ..p..q.*.....|..
0F80: 80 04 01 52 6E 80 F0 FF  FF 7F F0 FF FF 7F 62 32  ...Rn.........b2
0F90: 30 30 45 6E 80 F0 FF FF  7F F0 FF FF 7F 30 64 61  00En.........0da
0FA0: 34 01 80 1C 71 80 52 6E  80 F0 FF FF 7F F0 FF FF  4...q.Rn........
0FB0: 7F 30 64 61 34 45 6E 80  F0 FF FF 7F F0 FF FF 7F  .0da4En.........
0FC0: 62 32 30 32 01 80 2B E1  80 04 01 72 80 1C 2F 80  b202..+....r../.
0FD0: 52 6E 80 F0 FF FF 7F F0  FF FF 7F 62 32 30 32 45  Rn.........b202E
0FE0: 2E 80 F0 FF FF 7F F0 FF  FF 7F 73 31 32 32 01 80  ..........s122..
0FF0: 2B E1 80 04 01 73 80 23  BB 6A 80 E1 80 04 01 E1  +....s.#.j......
1000: 80 04 01 00 FE FE FE 01  80 52 2E 80 F0 FF FF 7F  .........R......
1010: F0 FF FF 7F 73 31 32 32  45 2E 80 F0 FF FF 7F F0  ....s122E.......
1020: FF FF 7F 73 31 32 31 01  80 1C 3C 80 BB 6A 80 E1  ...s121...<..j..
1030: 80 04 01 E1 80 04 01 65  79 65 30 01 80 1C 06 80  .......eye0.....
1040: 1A 64 00 52 2E 80 F0 FF  FF 7F F0 FF FF 7F 73 31  .d.R..........s1
1050: 32 31 45 2E 80 F0 FF FF  7F F0 FF FF 7F 62 6C 6F  21E..........blo
1060: 66 01 80 5D 01 80 30 80  29 10 F0 FF FF 7F 48 35  f..]..0.).....H5
1070: 74 80 78 1C 03 80 AB 0A  2D F0 FF FF 7F F0 FF FF  t.x.....-.......
1080: 7F 31 70 61 31 2D F0 FF  FF 7F F0 FF FF 7F 31 70  .1pa1-........1p
1090: 62 31 2D F0 FF FF 7F F0  FF FF 7F 32 70 62 31 5C  b1-........2pb1\
10A0: 00 01 80 5C 01 01 80 5C  02 75 80 5C 03 76 80 9A  ...\...\.u.\.v..
10B0: 46 00 45 00 80 F0 FF FF  7F F0 FF FF 7F 66 64 69  F.E..........fdi
10C0: 32 01 80 21 00                                    2..!.           
```

#### Opcodes

```
  0: 0x0292 [0x42] SET_CLI_EVENT_CANCEL_DATA()
  1: 0x0293 [0x45] LOAD_SCHEDULED_TASK: Load scheduler "fdo1" with entities [EventEntity, EventEntity], work=[200*, 0*]
  2: 0x02A4 [0x55] WAIT_LOAD_SCHEDULER: Wait for scheduler "fdo1" with entities [EventEntity, EventEntity], work=200*
  3: 0x02B3 [0x46] CAMERA_CONTROL: Disable user control
  4: 0x02B5 [0x34] LOAD_UNLOAD_ZONE(zone_id=77*)
  5: 0x02B8 [0x77] SET_EVENT_TIME_WEATHER(hour=255*, weather=1*)
  6: 0x02BD [0x1C] WAIT(30* ticks)
  7: 0x02C0 [0xAB] EventEntity->UnknownFlag = 1 // Enable unknown flag
  8: 0x02C2 [0x29] REQ_SET_WAIT(priority=0x10, entity_id=Unnamed NPC (ID: 17072359/0x010480E7), tag_num=0x07)
  9: 0x02C9 [0x38] SET_CLIENT_EVENT_MODE(mode=19*)
 10: 0x02CC [0x4E] SET_ENTITY_HIDE_FLAG: Show LocalPlayer
 11: 0x02D2 [0x27] REQ_SET(priority=0x10, entity_id=Nashmeira (ID: 17072343/0x010480D7), tag_num=0x04)
 12: 0x02D9 [0x27] REQ_SET(priority=0x10, entity_id=Ovjang (ID: 17072377/0x010480F9), tag_num=0x04)
 13: 0x02E0 [0x27] REQ_SET(priority=0x10, entity_id=Mnejing (ID: 17072376/0x010480F8), tag_num=0x04)
 14: 0x02E7 [0x27] REQ_SET(priority=0x10, entity_id=Ghatsad (ID: 17072382/0x010480FE), tag_num=0x04)
 15: 0x02EE [0x27] REQ_SET(priority=0x10, entity_id=Alexander (ID: 17072353/0x010480E1), tag_num=0x04)
 16: 0x02F5 [0x27] REQ_SET(priority=0x10, entity_id=Unnamed NPC (ID: 17072354/0x010480E2), tag_num=0x04)
 17: 0x02FC [0x27] REQ_SET(priority=0x10, entity_id=Travialce (ID: 17072375/0x010480F7), tag_num=0x04)
 18: 0x0303 [0x27] REQ_SET(priority=0x10, entity_id=Gessho (ID: 17072374/0x010480F6), tag_num=0x04)
 19: 0x030A [0x27] REQ_SET(priority=0x10, entity_id=Rodin-Comidin (ID: 17072378/0x010480FA), tag_num=0x04)
 20: 0x0311 [0x27] REQ_SET(priority=0x10, entity_id=Raubahn (ID: 17072347/0x010480DB), tag_num=0x04)
 21: 0x0318 [0x27] REQ_SET(priority=0x10, entity_id=Unnamed NPC (ID: 17072379/0x010480FB), tag_num=0x02)
 22: 0x031F [0x92] Nashmeira (ID: 17072343/0x010480D7)->Render.Flags3 ^= 0x01
 23: 0x0325 [0x92] Ovjang (ID: 17072377/0x010480F9)->Render.Flags3 ^= 0x01
 24: 0x032B [0x92] Mnejing (ID: 17072376/0x010480F8)->Render.Flags3 ^= 0x01
 25: 0x0331 [0x92] Ghatsad (ID: 17072382/0x010480FE)->Render.Flags3 ^= 0x01
 26: 0x0337 [0x92] Alexander (ID: 17072353/0x010480E1)->Render.Flags3 ^= 0x01
 27: 0x033D [0x92] Unnamed NPC (ID: 17072354/0x010480E2)->Render.Flags3 ^= 0x01
 28: 0x0343 [0x92] Travialce (ID: 17072375/0x010480F7)->Render.Flags3 ^= 0x01
 29: 0x0349 [0x92] Gessho (ID: 17072374/0x010480F6)->Render.Flags3 ^= 0x01
 30: 0x034F [0x92] Rodin-Comidin (ID: 17072378/0x010480FA)->Render.Flags3 ^= 0x01
 31: 0x0355 [0x92] Raubahn (ID: 17072347/0x010480DB)->Render.Flags3 ^= 0x01
 32: 0x035B [0x92] Unnamed NPC (ID: 17072379/0x010480FB)->Render.Flags3 ^= 0x01
 33: 0x0361 [0x94] LocalPlayer->Render.Flags3 ^= 0x01
 34: 0x0367 [0x94] Nashmeira (ID: 17072343/0x010480D7)->Render.Flags3 ^= 0x01
 35: 0x036D [0x94] Ovjang (ID: 17072377/0x010480F9)->Render.Flags3 ^= 0x01
 36: 0x0373 [0x94] Mnejing (ID: 17072376/0x010480F8)->Render.Flags3 ^= 0x01
 37: 0x0379 [0x94] Ghatsad (ID: 17072382/0x010480FE)->Render.Flags3 ^= 0x01
 38: 0x037F [0x94] Alexander (ID: 17072353/0x010480E1)->Render.Flags3 ^= 0x01
 39: 0x0385 [0x94] Unnamed NPC (ID: 17072354/0x010480E2)->Render.Flags3 ^= 0x01
 40: 0x038B [0x94] Travialce (ID: 17072375/0x010480F7)->Render.Flags3 ^= 0x01
 41: 0x0391 [0x94] Gessho (ID: 17072374/0x010480F6)->Render.Flags3 ^= 0x01
 42: 0x0397 [0x94] Rodin-Comidin (ID: 17072378/0x010480FA)->Render.Flags3 ^= 0x01
 43: 0x039D [0x94] Raubahn (ID: 17072347/0x010480DB)->Render.Flags3 ^= 0x01
 44: 0x03A3 [0x94] Unnamed NPC (ID: 17072379/0x010480FB)->Render.Flags3 ^= 0x01
 45: 0x03A9 [0xBA] SET_ENTITY_POSITION(entity_id=LocalPlayer, pos_x=-456.999*, pos_z=419.782*, pos_y=-3.999*, direction=178.7°*)
 46: 0x03B6 [0xBA] SET_ENTITY_POSITION(entity_id=Nashmeira (ID: 17072343/0x010480D7), pos_x=-476.803*, pos_z=414.053*, pos_y=-4.000*, direction=268.8°*)
 47: 0x03C3 [0xBA] SET_ENTITY_POSITION(entity_id=Ovjang (ID: 17072377/0x010480F9), pos_x=-475.606*, pos_z=412.642*, pos_y=-4.000*, direction=178.7°*)
 48: 0x03D0 [0xBA] SET_ENTITY_POSITION(entity_id=Mnejing (ID: 17072376/0x010480F8), pos_x=-478.230*, pos_z=412.325*, pos_y=-4.000*, direction=178.6°*)
 49: 0x03DD [0xBA] SET_ENTITY_POSITION(entity_id=Ghatsad (ID: 17072382/0x010480FE), pos_x=-479.905*, pos_z=414.838*, pos_y=-3.999*, direction=271.3°*)
 50: 0x03EA [0xBA] SET_ENTITY_POSITION(entity_id=Unnamed NPC (ID: 17072354/0x010480E2), pos_x=-479.905*, pos_z=414.838*, pos_y=-3.999*, direction=271.3°*)
 51: 0x03F7 [0xBA] SET_ENTITY_POSITION(entity_id=Alexander (ID: 17072353/0x010480E1), pos_x=-486.535*, pos_z=420.000*, pos_y=-3.949*, direction=0.0°*)
 52: 0x0404 [0xBA] SET_ENTITY_POSITION(entity_id=Travialce (ID: 17072375/0x010480F7), pos_x=-477.799*, pos_z=427.994*, pos_y=-3.999*, direction=178.7°*)
 53: 0x0411 [0xBA] SET_ENTITY_POSITION(entity_id=Gessho (ID: 17072374/0x010480F6), pos_x=-475.196*, pos_z=427.803*, pos_y=-3.999*, direction=178.7°*)
 54: 0x041E [0xBA] SET_ENTITY_POSITION(entity_id=Rodin-Comidin (ID: 17072378/0x010480FA), pos_x=-472.563*, pos_z=427.706*, pos_y=-3.999*, direction=174.9°*)
 55: 0x042B [0xBA] SET_ENTITY_POSITION(entity_id=Raubahn (ID: 17072347/0x010480DB), pos_x=-469.929*, pos_z=427.837*, pos_y=-3.999*, direction=178.7°*)
 56: 0x0438 [0xBA] SET_ENTITY_POSITION(entity_id=Unnamed NPC (ID: 17072379/0x010480FB), pos_x=-476.098*, pos_z=416.872*, pos_y=-3.999*, direction=146.6°*)
 57: 0x0445 [0x7B] LocalPlayer stops talking
 58: 0x044A [0x7B] Nashmeira (ID: 17072343/0x010480D7) stops talking
 59: 0x044F [0x7B] Ovjang (ID: 17072377/0x010480F9) stops talking
 60: 0x0454 [0x7B] Mnejing (ID: 17072376/0x010480F8) stops talking
 61: 0x0459 [0x7B] Ghatsad (ID: 17072382/0x010480FE) stops talking
 62: 0x045E [0x7B] Alexander (ID: 17072353/0x010480E1) stops talking
 63: 0x0463 [0x7B] Unnamed NPC (ID: 17072354/0x010480E2) stops talking
 64: 0x0468 [0x7B] Travialce (ID: 17072375/0x010480F7) stops talking
 65: 0x046D [0x7B] Gessho (ID: 17072374/0x010480F6) stops talking
 66: 0x0472 [0x7B] Rodin-Comidin (ID: 17072378/0x010480FA) stops talking
 67: 0x0477 [0x7B] Raubahn (ID: 17072347/0x010480DB) stops talking
 68: 0x047C [0x7B] Unnamed NPC (ID: 17072379/0x010480FB) stops talking
 69: 0x0481 [0x80] LOAD_WAIT(entity=LocalPlayer)
 70: 0x0486 [0x80] LOAD_WAIT(entity=Nashmeira (ID: 17072343/0x010480D7))
 71: 0x048B [0x80] LOAD_WAIT(entity=Ovjang (ID: 17072377/0x010480F9))
 72: 0x0490 [0x80] LOAD_WAIT(entity=Mnejing (ID: 17072376/0x010480F8))
 73: 0x0495 [0x80] LOAD_WAIT(entity=Ghatsad (ID: 17072382/0x010480FE))
 74: 0x049A [0x80] LOAD_WAIT(entity=Alexander (ID: 17072353/0x010480E1))
 75: 0x049F [0x80] LOAD_WAIT(entity=Unnamed NPC (ID: 17072354/0x010480E2))
 76: 0x04A4 [0x80] LOAD_WAIT(entity=Travialce (ID: 17072375/0x010480F7))
 77: 0x04A9 [0x80] LOAD_WAIT(entity=Gessho (ID: 17072374/0x010480F6))
 78: 0x04AE [0x80] LOAD_WAIT(entity=Rodin-Comidin (ID: 17072378/0x010480FA))
 79: 0x04B3 [0x80] LOAD_WAIT(entity=Raubahn (ID: 17072347/0x010480DB))
 80: 0x04B8 [0x80] LOAD_WAIT(entity=Unnamed NPC (ID: 17072379/0x010480FB))
 81: 0x04BD [0x5B] LOAD_EXT_SCHEDULER: Load scheduler "alx0" with entities [Unnamed NPC (ID: 17072354/0x010480E2), Unnamed NPC (ID: 17072354/0x010480E2)], work=1188*
 82: 0x04CC [0x5B] LOAD_EXT_SCHEDULER: Load scheduler "b2l5" with entities [Alexander (ID: 17072353/0x010480E1), Alexander (ID: 17072353/0x010480E1)], work=1182*
 83: 0x04DB [0x5B] LOAD_EXT_SCHEDULER: Load scheduler "sta0" with entities [Raubahn (ID: 17072347/0x010480DB), Raubahn (ID: 17072347/0x010480DB)], work=837*
 84: 0x04EA [0x4A] Nashmeira (ID: 17072343/0x010480D7) looks at Alexander (ID: 17072353/0x010480E1)
 85: 0x04F3 [0x4A] Ovjang (ID: 17072377/0x010480F9) looks at Alexander (ID: 17072353/0x010480E1)
 86: 0x04FC [0x4A] Mnejing (ID: 17072376/0x010480F8) looks at Alexander (ID: 17072353/0x010480E1)
 87: 0x0505 [0x4A] Travialce (ID: 17072375/0x010480F7) looks at Alexander (ID: 17072353/0x010480E1)
 88: 0x050E [0x4A] Gessho (ID: 17072374/0x010480F6) looks at Alexander (ID: 17072353/0x010480E1)
 89: 0x0517 [0x4A] Rodin-Comidin (ID: 17072378/0x010480FA) looks at Alexander (ID: 17072353/0x010480E1)
 90: 0x0520 [0x4A] Raubahn (ID: 17072347/0x010480DB) looks at Alexander (ID: 17072353/0x010480E1)
 91: 0x0529 [0x5C] MUSIC_CONTROL: Set Idle (Day) music to song 148*
 92: 0x052D [0x5C] MUSIC_CONTROL: Set Idle (Night) music to song 148*
 93: 0x0531 [0x5C] MUSIC_CONTROL: Set Combat (Solo) music to song 0*
 94: 0x0535 [0x5C] MUSIC_CONTROL: Set Combat (Party) music to song 0*
 95: 0x0539 [0x9A] WAIT_MUSIC_SERVER()
 96: 0x053A [0x1C] WAIT(30* ticks)
 97: 0x053D [0x45] LOAD_SCHEDULED_TASK: Load scheduler "s101" with entities [LocalPlayer, LocalPlayer], work=[495*, 0*]
 98: 0x054E [0x1A] CALL_SUBROUTINE(address=0x0043)
 99: 0x0551 [0x1C] WAIT(150* ticks)
100: 0x0554 [0x52] END_LOAD_SCHEDULER: End scheduler "s101" with entities [LocalPlayer, LocalPlayer], work=495*
101: 0x0563 [0x45] LOAD_SCHEDULED_TASK: Load scheduler "s123" with entities [LocalPlayer, LocalPlayer], work=[495*, 0*]
102: 0x0574 [0x1C] WAIT(150* ticks)
103: 0x0577 [0x52] END_LOAD_SCHEDULER: End scheduler "s123" with entities [LocalPlayer, LocalPlayer], work=495*
104: 0x0586 [0x45] LOAD_SCHEDULED_TASK: Load scheduler "s124" with entities [LocalPlayer, LocalPlayer], work=[495*, 0*]
105: 0x0597 [0x27] REQ_SET(priority=0x10, entity_id=LocalPlayer, tag_num=0x4D)
106: 0x059E [0x1C] WAIT(120* ticks)
107: 0x05A1 [0x52] END_LOAD_SCHEDULER: End scheduler "s124" with entities [LocalPlayer, LocalPlayer], work=495*
108: 0x05B0 [0x45] LOAD_SCHEDULED_TASK: Load scheduler "s125" with entities [LocalPlayer, LocalPlayer], work=[495*, 0*]
109: 0x05C1 [0x1C] WAIT(50* ticks)
110: 0x05C4 [0x4A] Nashmeira (ID: 17072343/0x010480D7) looks at LocalPlayer
111: 0x05CD [0x4A] Ovjang (ID: 17072377/0x010480F9) looks at LocalPlayer
112: 0x05D6 [0x4A] Mnejing (ID: 17072376/0x010480F8) looks at LocalPlayer
113: 0x05DF [0x7B] Nashmeira (ID: 17072343/0x010480D7) stops talking
114: 0x05E4 [0x1C] WAIT(100* ticks)
115: 0x05E7 [0x52] END_LOAD_SCHEDULER: End scheduler "s125" with entities [LocalPlayer, LocalPlayer], work=495*
116: 0x05F6 [0x45] LOAD_SCHEDULED_TASK: Load scheduler "s102" with entities [LocalPlayer, LocalPlayer], work=[495*, 0*]
117: 0x0607 [0x5B] LOAD_EXT_SCHEDULER: Load scheduler "tlk0" with entities [Nashmeira (ID: 17072343/0x010480D7), Nashmeira (ID: 17072343/0x010480D7)], work=891*
118: 0x0616 [0x2B] Nashmeira (ID: 17072343/0x010480D7) [7792*]:
    → "<Player>!"
119: 0x061D [0x23] WAIT_FOR_DIALOG_INTERACTION
120: 0x061E [0x52] END_LOAD_SCHEDULER: End scheduler "s102" with entities [LocalPlayer, LocalPlayer], work=495*
121: 0x062D [0x45] LOAD_SCHEDULED_TASK: Load scheduler "s103" with entities [LocalPlayer, LocalPlayer], work=[495*, 0*]
122: 0x063E [0x5B] LOAD_EXT_SCHEDULER: Load scheduler "tlk1" with entities [Nashmeira (ID: 17072343/0x010480D7), Nashmeira (ID: 17072343/0x010480D7)], work=891*
123: 0x064D [0x5B] LOAD_EXT_SCHEDULER: Load scheduler "yah0" with entities [Ovjang (ID: 17072377/0x010480F9), Ovjang (ID: 17072377/0x010480F9)], work=851*
124: 0x065C [0x2B] Ovjang (ID: 17072377/0x010480F9) [7793*]:
    → "You're late, late, late!"
125: 0x0663 [0x23] WAIT_FOR_DIALOG_INTERACTION
126: 0x0664 [0x52] END_LOAD_SCHEDULER: End scheduler "s103" with entities [LocalPlayer, LocalPlayer], work=495*
127: 0x0673 [0x45] LOAD_SCHEDULED_TASK: Load scheduler "s104" with entities [LocalPlayer, LocalPlayer], work=[495*, 0*]
128: 0x0684 [0x5B] LOAD_EXT_SCHEDULER: Load scheduler "tlk1" with entities [Ovjang (ID: 17072377/0x010480F9), Ovjang (ID: 17072377/0x010480F9)], work=858*
129: 0x0693 [0x5B] LOAD_EXT_SCHEDULER: Load scheduler "tlk0" with entities [Mnejing (ID: 17072376/0x010480F8), Mnejing (ID: 17072376/0x010480F8)], work=850*
130: 0x06A2 [0x2B] Mnejing (ID: 17072376/0x010480F8) [7794*]:
    → "We've been waiting so long our joints have started to rust!"
131: 0x06A9 [0x23] WAIT_FOR_DIALOG_INTERACTION
132: 0x06AA [0x52] END_LOAD_SCHEDULER: End scheduler "s104" with entities [LocalPlayer, LocalPlayer], work=495*
133: 0x06B9 [0x45] LOAD_SCHEDULED_TASK: Load scheduler "s105" with entities [LocalPlayer, LocalPlayer], work=[495*, 0*]
134: 0x06CA [0x5B] LOAD_EXT_SCHEDULER: Load scheduler "tlk1" with entities [Mnejing (ID: 17072376/0x010480F8), Mnejing (ID: 17072376/0x010480F8)], work=850*
135: 0x06D9 [0x79] Ghatsad (ID: 17072382/0x010480FE) looks at LocalPlayer (Basic look)
136: 0x06E3 [0x1C] WAIT(30* ticks)
137: 0x06E6 [0x03] Work_Zone[2] = 1246*
138: 0x06EB [0x2B] Ghatsad (ID: 17072382/0x010480FE) [7795*]:
    → "Our preparations are complete. We need only install the $3, and we can proceed with the activation."
139: 0x06F2 [0x23] WAIT_FOR_DIALOG_INTERACTION
140: 0x06F3 [0x52] END_LOAD_SCHEDULER: End scheduler "s105" with entities [LocalPlayer, LocalPlayer], work=495*
141: 0x0702 [0x45] LOAD_SCHEDULED_TASK: Load scheduler "s106" with entities [LocalPlayer, LocalPlayer], work=[495*, 0*]
142: 0x0713 [0x1C] WAIT(20* ticks)
143: 0x0716 [0x6C] FADE_ENTITY_COLOR(entity_id=Unnamed NPC (ID: 17072379/0x010480FB), end_alpha=128*, fade_time=1*)
144: 0x071F [0x27] REQ_SET(priority=0x10, entity_id=LocalPlayer, tag_num=0x49)
145: 0x0726 [0x6B] STOP_AND_IDLE: Ghatsad (ID: 17072382/0x010480FE) stops current action and resets to idle (animation="idl0")
146: 0x072F [0x7B] LocalPlayer stops talking
147: 0x0734 [0xBA] SET_ENTITY_POSITION(entity_id=LocalPlayer, pos_x=-474.646*, pos_z=418.125*, pos_y=-3.949*, direction=146.6°*)
148: 0x0741 [0xBA] SET_ENTITY_POSITION(entity_id=Ghatsad (ID: 17072382/0x010480FE), pos_x=-477.906*, pos_z=415.347*, pos_y=-3.999*, direction=319.7°*)
149: 0x074E [0x1C] WAIT(150* ticks)
150: 0x0751 [0x52] END_LOAD_SCHEDULER: End scheduler "s106" with entities [LocalPlayer, LocalPlayer], work=495*
151: 0x0760 [0x45] LOAD_SCHEDULED_TASK: Load scheduler "s127" with entities [LocalPlayer, LocalPlayer], work=[495*, 0*]
152: 0x0771 [0x2B] Ghatsad (ID: 17072382/0x010480FE) [7796*]:
    → "How did you fare with Megomak?"
153: 0x0778 [0x23] WAIT_FOR_DIALOG_INTERACTION
154: 0x0779 [0x27] REQ_SET(priority=0x10, entity_id=LocalPlayer, tag_num=0x4A)
155: 0x0780 [0x52] END_LOAD_SCHEDULER: End scheduler "s127" with entities [LocalPlayer, LocalPlayer], work=495*
156: 0x078F [0x45] LOAD_SCHEDULED_TASK: Load scheduler "s107" with entities [LocalPlayer, LocalPlayer], work=[495*, 0*]
157: 0x07A0 [0x1C] WAIT(180* ticks)
158: 0x07A3 [0x27] REQ_SET(priority=0x10, entity_id=Ghatsad (ID: 17072382/0x010480FE), tag_num=0x0E)
159: 0x07AA [0x1C] WAIT(60* ticks)
160: 0x07AD [0x52] END_LOAD_SCHEDULER: End scheduler "s107" with entities [LocalPlayer, LocalPlayer], work=495*
161: 0x07BC [0x45] LOAD_SCHEDULED_TASK: Load scheduler "s108" with entities [LocalPlayer, LocalPlayer], work=[495*, 0*]
162: 0x07CD [0x2A] GET_REQ_LEVEL(level=16, entity_id=Ghatsad (ID: 17072382/0x010480FE))
163: 0x07D3 [0x1C] WAIT(30* ticks)
164: 0x07D6 [0x03] Work_Zone[2] = 120*
165: 0x07DB [0x27] REQ_SET(priority=0x10, entity_id=??? (ID: 17072334/0x010480CE), tag_num=0x07)
166: 0x07E2 [0x2C] CREATE_SCHEDULER_TASK: Create scheduler "ope2" with entities [Unnamed NPC (ID: 17072379/0x010480FB), Unnamed NPC (ID: 17072379/0x010480FB)]
167: 0x07EF [0x1C] WAIT(60* ticks)
168: 0x07F2 [0x2B] Ghatsad (ID: 17072382/0x010480FE) [7797*]:
    → "Yes, this will do. Excellent work, <Player>."
169: 0x07F9 [0x23] WAIT_FOR_DIALOG_INTERACTION
170: 0x07FA [0x2A] GET_REQ_LEVEL(level=16, entity_id=??? (ID: 17072334/0x010480CE))
171: 0x0800 [0x1A] CALL_SUBROUTINE(address=0x0064)
172: 0x0803 [0x52] END_LOAD_SCHEDULER: End scheduler "s108" with entities [LocalPlayer, LocalPlayer], work=495*
173: 0x0812 [0x4E] SET_ENTITY_HIDE_FLAG: Hide Unnamed NPC (ID: 17072379/0x010480FB)
174: 0x0818 [0xBA] SET_ENTITY_POSITION(entity_id=Ghatsad (ID: 17072382/0x010480FE), pos_x=-490.445*, pos_z=418.396*, pos_y=-3.999*, direction=337.1°*)
175: 0x0825 [0xBA] SET_ENTITY_POSITION(entity_id=Nashmeira (ID: 17072343/0x010480D7), pos_x=-482.583*, pos_z=412.498*, pos_y=-3.999*, direction=236.0°*)
176: 0x0832 [0xBA] SET_ENTITY_POSITION(entity_id=Mnejing (ID: 17072376/0x010480F8), pos_x=-483.438*, pos_z=410.983*, pos_y=-3.999*, direction=236.0°*)
177: 0x083F [0xBA] SET_ENTITY_POSITION(entity_id=Ovjang (ID: 17072377/0x010480F9), pos_x=-480.870*, pos_z=411.373*, pos_y=-3.999*, direction=236.0°*)
178: 0x084C [0x4A] Nashmeira (ID: 17072343/0x010480D7) looks at Ghatsad (ID: 17072382/0x010480FE)
179: 0x0855 [0x66] LOAD_EXT_SCHEDULER_MAIN: Load scheduler "sha1" with entities [Ghatsad (ID: 17072382/0x010480FE), Ghatsad (ID: 17072382/0x010480FE)], work=69*
180: 0x0864 [0x7B] Nashmeira (ID: 17072343/0x010480D7) stops talking
181: 0x0869 [0x7B] LocalPlayer stops talking
182: 0x086E [0x7B] Ghatsad (ID: 17072382/0x010480FE) stops talking
183: 0x0873 [0x1C] WAIT(60* ticks)
184: 0x0876 [0x45] LOAD_SCHEDULED_TASK: Load scheduler "s109" with entities [LocalPlayer, LocalPlayer], work=[495*, 0*]
185: 0x0887 [0x1A] CALL_SUBROUTINE(address=0x0043)
186: 0x088A [0x1C] WAIT(120* ticks)
187: 0x088D [0x52] END_LOAD_SCHEDULER: End scheduler "s109" with entities [LocalPlayer, LocalPlayer], work=495*
188: 0x089C [0x45] LOAD_SCHEDULED_TASK: Load scheduler "s110" with entities [LocalPlayer, LocalPlayer], work=[495*, 0*]
189: 0x08AD [0x79] Ghatsad (ID: 17072382/0x010480FE) looks at Nashmeira (ID: 17072343/0x010480D7) (Basic look)
190: 0x08B7 [0x1C] WAIT(20* ticks)
191: 0x08BA [0x2B] Ghatsad (ID: 17072382/0x010480FE) [7798*]:
    → "We are ready, Your Highness."
192: 0x08C1 [0x23] WAIT_FOR_DIALOG_INTERACTION
193: 0x08C2 [0x52] END_LOAD_SCHEDULER: End scheduler "s110" with entities [LocalPlayer, LocalPlayer], work=495*
194: 0x08D1 [0x45] LOAD_SCHEDULED_TASK: Load scheduler "s112" with entities [LocalPlayer, LocalPlayer], work=[495*, 0*]
195: 0x08E2 [0x5B] LOAD_EXT_SCHEDULER: Load scheduler "yes0" with entities [Nashmeira (ID: 17072343/0x010480D7), Nashmeira (ID: 17072343/0x010480D7)], work=926*
196: 0x08F1 [0x2B] Nashmeira (ID: 17072343/0x010480D7) [7799*]:
    → "...Then let us begin."
197: 0x08F8 [0x23] WAIT_FOR_DIALOG_INTERACTION
198: 0x08F9 [0xBA] SET_ENTITY_POSITION(entity_id=Ghatsad (ID: 17072382/0x010480FE), pos_x=-487.458*, pos_z=415.149*, pos_y=-3.999*, direction=353.5°*)
199: 0x0906 [0x1C] WAIT(5* ticks)
200: 0x0909 [0x59] UPDATE_ENTITY_DATA: Set Ghatsad (ID: 17072382/0x010480FE) main speed = 15* * 0.1
201: 0x0911 [0x27] REQ_SET(priority=0x10, entity_id=Ghatsad (ID: 17072382/0x010480FE), tag_num=0x0C)
202: 0x0918 [0x1C] WAIT(30* ticks)
203: 0x091B [0x52] END_LOAD_SCHEDULER: End scheduler "s112" with entities [LocalPlayer, LocalPlayer], work=495*
204: 0x092A [0x45] LOAD_SCHEDULED_TASK: Load scheduler "s113" with entities [LocalPlayer, LocalPlayer], work=[495*, 0*]
205: 0x093B [0x79] Ghatsad (ID: 17072382/0x010480FE) looks at LocalPlayer (Basic look)
206: 0x0945 [0x4A] Nashmeira (ID: 17072343/0x010480D7) looks at LocalPlayer
207: 0x094E [0x1C] WAIT(20* ticks)
208: 0x0951 [0x4A] Ovjang (ID: 17072377/0x010480F9) looks at LocalPlayer
209: 0x095A [0x1C] WAIT(20* ticks)
210: 0x095D [0x4A] Mnejing (ID: 17072376/0x010480F8) looks at LocalPlayer
211: 0x0966 [0x1C] WAIT(60* ticks)
212: 0x0969 [0x03] Work_Zone[2] = 1246*
213: 0x096E [0x2B] Ghatsad (ID: 17072382/0x010480FE) [7800*]:
    → "When the $3 is activated, you must resist the extradimensional intruder with all of your might. Even a weakened colossus in a strictly controlled environment will not go down easily."
214: 0x0975 [0x23] WAIT_FOR_DIALOG_INTERACTION
215: 0x0976 [0x52] END_LOAD_SCHEDULER: End scheduler "s113" with entities [LocalPlayer, LocalPlayer], work=495*
216: 0x0985 [0x45] LOAD_SCHEDULED_TASK: Load scheduler "s114" with entities [LocalPlayer, LocalPlayer], work=[495*, 0*]
217: 0x0996 [0x59] UPDATE_ENTITY_DATA: Set LocalPlayer main speed = 13* * 0.1
218: 0x099E [0x29] REQ_SET_WAIT(priority=0x10, entity_id=LocalPlayer, tag_num=0x4E)
219: 0x09A5 [0x4A] Gessho (ID: 17072374/0x010480F6) looks at LocalPlayer
220: 0x09AE [0x52] END_LOAD_SCHEDULER: End scheduler "s114" with entities [LocalPlayer, LocalPlayer], work=495*
221: 0x09BD [0x29] REQ_SET_WAIT(priority=0x10, entity_id=LocalPlayer, tag_num=0x2D)
222: 0x09C4 [0x02] IF !(Work_Zone[2] == 1*) GOTO 0x09EF
223: 0x09CC [0x52] END_LOAD_SCHEDULER: End scheduler "s114" with entities [LocalPlayer, LocalPlayer], work=495*
224: 0x09DB [0x45] LOAD_SCHEDULED_TASK: Load scheduler "shm1" with entities [LocalPlayer, LocalPlayer], work=[495*, 0*]
225: 0x09EC [0x01] GOTO 0x0B1C
226: 0x09EF [0x02] IF !(Work_Zone[2] == 2*) GOTO 0x0A1A
227: 0x09F7 [0x52] END_LOAD_SCHEDULER: End scheduler "s114" with entities [LocalPlayer, LocalPlayer], work=495*
228: 0x0A06 [0x45] LOAD_SCHEDULED_TASK: Load scheduler "shm1" with entities [LocalPlayer, LocalPlayer], work=[495*, 0*]
229: 0x0A17 [0x01] GOTO 0x0B1C
230: 0x0A1A [0x02] IF !(Work_Zone[2] == 3*) GOTO 0x0A45
231: 0x0A22 [0x52] END_LOAD_SCHEDULER: End scheduler "s114" with entities [LocalPlayer, LocalPlayer], work=495*
232: 0x0A31 [0x45] LOAD_SCHEDULED_TASK: Load scheduler "sem1" with entities [LocalPlayer, LocalPlayer], work=[495*, 0*]
233: 0x0A42 [0x01] GOTO 0x0B1C
234: 0x0A45 [0x02] IF !(Work_Zone[2] == 4*) GOTO 0x0A70
235: 0x0A4D [0x52] END_LOAD_SCHEDULER: End scheduler "s114" with entities [LocalPlayer, LocalPlayer], work=495*
236: 0x0A5C [0x45] LOAD_SCHEDULED_TASK: Load scheduler "sem1" with entities [LocalPlayer, LocalPlayer], work=[495*, 0*]
237: 0x0A6D [0x01] GOTO 0x0B1C
238: 0x0A70 [0x02] IF !(Work_Zone[2] == 5*) GOTO 0x0A9B
239: 0x0A78 [0x52] END_LOAD_SCHEDULER: End scheduler "s114" with entities [LocalPlayer, LocalPlayer], work=495*
240: 0x0A87 [0x45] LOAD_SCHEDULED_TASK: Load scheduler "str1" with entities [LocalPlayer, LocalPlayer], work=[495*, 0*]
241: 0x0A98 [0x01] GOTO 0x0B1C
242: 0x0A9B [0x02] IF !(Work_Zone[2] == 6*) GOTO 0x0AC6
243: 0x0AA3 [0x52] END_LOAD_SCHEDULER: End scheduler "s114" with entities [LocalPlayer, LocalPlayer], work=495*
244: 0x0AB2 [0x45] LOAD_SCHEDULED_TASK: Load scheduler "str1" with entities [LocalPlayer, LocalPlayer], work=[495*, 0*]
245: 0x0AC3 [0x01] GOTO 0x0B1C
246: 0x0AC6 [0x02] IF !(Work_Zone[2] == 7*) GOTO 0x0AF1
247: 0x0ACE [0x52] END_LOAD_SCHEDULER: End scheduler "s114" with entities [LocalPlayer, LocalPlayer], work=495*
248: 0x0ADD [0x45] LOAD_SCHEDULED_TASK: Load scheduler "smt1" with entities [LocalPlayer, LocalPlayer], work=[495*, 0*]
249: 0x0AEE [0x01] GOTO 0x0B1C
250: 0x0AF1 [0x02] IF !(Work_Zone[2] == 8*) GOTO 0x0B1C
251: 0x0AF9 [0x52] END_LOAD_SCHEDULER: End scheduler "s114" with entities [LocalPlayer, LocalPlayer], work=495*
252: 0x0B08 [0x45] LOAD_SCHEDULED_TASK: Load scheduler "sgl1" with entities [LocalPlayer, LocalPlayer], work=[495*, 0*]
253: 0x0B19 [0x01] GOTO 0x0B1C

SUBROUTINE_0B1C:
254: 0x0B1C [0x6E] LocalPlayer uses emote 7*
255: 0x0B23 [0x99] Wait for LocalPlayer animation to complete
256: 0x0B28 [0x1C] WAIT(120* ticks)
257: 0x0B2B [0x52] END_LOAD_SCHEDULER: End scheduler "shm1" with entities [LocalPlayer, LocalPlayer], work=495*
258: 0x0B3A [0x52] END_LOAD_SCHEDULER: End scheduler "sem1" with entities [LocalPlayer, LocalPlayer], work=495*
259: 0x0B49 [0x52] END_LOAD_SCHEDULER: End scheduler "str1" with entities [LocalPlayer, LocalPlayer], work=495*
260: 0x0B58 [0x52] END_LOAD_SCHEDULER: End scheduler "smt1" with entities [LocalPlayer, LocalPlayer], work=495*
261: 0x0B67 [0x52] END_LOAD_SCHEDULER: End scheduler "sgl1" with entities [LocalPlayer, LocalPlayer], work=495*
262: 0x0B76 [0x45] LOAD_SCHEDULED_TASK: Load scheduler "s115" with entities [LocalPlayer, LocalPlayer], work=[495*, 0*]
263: 0x0B87 [0x5B] LOAD_EXT_SCHEDULER: Load scheduler "tlk0" with entities [Gessho (ID: 17072374/0x010480F6), Gessho (ID: 17072374/0x010480F6)], work=792*
264: 0x0B96 [0x2B] Gessho (ID: 17072374/0x010480F6) [7801*]:
    → "Still your heart and clear your mind, <Player>. Your humble retainer Gessho stands at your side, ever ready to lay down his life for yours..."
265: 0x0B9D [0x23] WAIT_FOR_DIALOG_INTERACTION
266: 0x0B9E [0x5B] LOAD_EXT_SCHEDULER: Load scheduler "tlk1" with entities [Gessho (ID: 17072374/0x010480F6), Gessho (ID: 17072374/0x010480F6)], work=792*
267: 0x0BAD [0x4A] Rodin-Comidin (ID: 17072378/0x010480FA) looks at Gessho (ID: 17072374/0x010480F6)
268: 0x0BB6 [0x52] END_LOAD_SCHEDULER: End scheduler "s115" with entities [LocalPlayer, LocalPlayer], work=495*
269: 0x0BC5 [0x45] LOAD_SCHEDULED_TASK: Load scheduler "s116" with entities [LocalPlayer, LocalPlayer], work=[495*, 0*]
270: 0x0BD6 [0x6F] WAIT_FRAME_DELAY: Yield until WaitTime reaches zero
271: 0x0BD7 [0x76] CHECK_ENTITY_RENDER_FLAGS: Wait until Rodin-Comidin (ID: 17072378/0x010480FA) Render.Flags0 and Render.Flags3 conditions are met
272: 0x0BDC [0xBA] SET_ENTITY_POSITION(entity_id=Ghatsad (ID: 17072382/0x010480FE), pos_x=-479.905*, pos_z=414.838*, pos_y=-3.999*, direction=271.3°*)
273: 0x0BE9 [0x4A] Travialce (ID: 17072375/0x010480F7) looks at Gessho (ID: 17072374/0x010480F6)
274: 0x0BF2 [0x7B] Ghatsad (ID: 17072382/0x010480FE) stops talking
275: 0x0BF7 [0x5B] LOAD_EXT_SCHEDULER: Load scheduler "pan1" with entities [Ghatsad (ID: 17072382/0x010480FE), Ghatsad (ID: 17072382/0x010480FE)], work=1173*
276: 0x0C06 [0x79] Rodin-Comidin (ID: 17072378/0x010480FA) looks at Gessho (ID: 17072374/0x010480F6) (Basic look)
277: 0x0C10 [0x7B] Rodin-Comidin (ID: 17072378/0x010480FA) stops talking
278: 0x0C15 [0x66] LOAD_EXT_SCHEDULER_MAIN: Load scheduler "shk0" with entities [Rodin-Comidin (ID: 17072378/0x010480FA), Rodin-Comidin (ID: 17072378/0x010480FA)], work=41*
279: 0x0C24 [0x2B] Rodin-Comidin (ID: 17072378/0x010480FA) [7802*]:
    → "L-lay down whose life? I thoughtaru we were j-just along for "obser-wobservation"!"
280: 0x0C2B [0x23] WAIT_FOR_DIALOG_INTERACTION
281: 0x0C2C [0x52] END_LOAD_SCHEDULER: End scheduler "s116" with entities [LocalPlayer, LocalPlayer], work=495*
282: 0x0C3B [0x45] LOAD_SCHEDULED_TASK: Load scheduler "s117" with entities [LocalPlayer, LocalPlayer], work=[495*, 0*]
283: 0x0C4C [0x66] LOAD_EXT_SCHEDULER_MAIN: Load scheduler "thk1" with entities [Travialce (ID: 17072375/0x010480F7), Travialce (ID: 17072375/0x010480F7)], work=20*
284: 0x0C5B [0x2B] Travialce (ID: 17072375/0x010480F7) [7803*]:
    → "<Sigh>... Can you not even show some spine at a time like this?"
285: 0x0C62 [0x23] WAIT_FOR_DIALOG_INTERACTION
286: 0x0C63 [0x52] END_LOAD_SCHEDULER: End scheduler "s117" with entities [LocalPlayer, LocalPlayer], work=495*
287: 0x0C72 [0x45] LOAD_SCHEDULED_TASK: Load scheduler "s118" with entities [LocalPlayer, LocalPlayer], work=[495*, 0*]
288: 0x0C83 [0x7C] Raubahn (ID: 17072347/0x010480DB)->Render.Flags2 |= 0x00
289: 0x0C89 [0x2B] Raubahn (ID: 17072347/0x010480DB) [7804*]:
    → "Silence. It begins."
290: 0x0C90 [0x23] WAIT_FOR_DIALOG_INTERACTION
291: 0x0C91 [0x7C] Raubahn (ID: 17072347/0x010480DB)->Render.Flags2 |= 0x01
292: 0x0C97 [0x5D] SET_MUSIC_VOLUME(volume=0*, fade_time=120*)
293: 0x0C9C [0x52] END_LOAD_SCHEDULER: End scheduler "s118" with entities [LocalPlayer, LocalPlayer], work=495*
294: 0x0CAB [0x45] LOAD_SCHEDULED_TASK: Load scheduler "s119" with entities [LocalPlayer, LocalPlayer], work=[495*, 0*]
295: 0x0CBC [0x5B] LOAD_EXT_SCHEDULER: Load scheduler "pan3" with entities [Ghatsad (ID: 17072382/0x010480FE), Ghatsad (ID: 17072382/0x010480FE)], work=1173*
296: 0x0CCB [0x2B] Ghatsad (ID: 17072382/0x010480FE) [7805*]:
    → "Power, check. Spatial variance readings, stable. Activation in three...two..."
297: 0x0CD2 [0x23] WAIT_FOR_DIALOG_INTERACTION
298: 0x0CD3 [0x52] END_LOAD_SCHEDULER: End scheduler "s119" with entities [LocalPlayer, LocalPlayer], work=495*
299: 0x0CE2 [0x45] LOAD_SCHEDULED_TASK: Load scheduler "s120" with entities [LocalPlayer, LocalPlayer], work=[495*, 0*]
300: 0x0CF3 [0x66] LOAD_EXT_SCHEDULER_MAIN: Load scheduler "thk2" with entities [Travialce (ID: 17072375/0x010480F7), Travialce (ID: 17072375/0x010480F7)], work=20*
301: 0x0D02 [0x5B] LOAD_EXT_SCHEDULER: Load scheduler "b100" with entities [Alexander (ID: 17072353/0x010480E1), Alexander (ID: 17072353/0x010480E1)], work=1179*
302: 0x0D11 [0x29] REQ_SET_WAIT(priority=0x10, entity_id=LocalPlayer, tag_num=0x4F)
303: 0x0D18 [0x27] REQ_SET(priority=0x10, entity_id=LocalPlayer, tag_num=0x47)
304: 0x0D1F [0x1C] WAIT(30* ticks)
305: 0x0D22 [0x29] REQ_SET_WAIT(priority=0x10, entity_id=LocalPlayer, tag_num=0x2D)
306: 0x0D29 [0x02] IF !(Work_Zone[2] == 1*) GOTO 0x0D54
307: 0x0D31 [0x52] END_LOAD_SCHEDULER: End scheduler "s120" with entities [LocalPlayer, LocalPlayer], work=495*
308: 0x0D40 [0x45] LOAD_SCHEDULED_TASK: Load scheduler "shm2" with entities [LocalPlayer, LocalPlayer], work=[495*, 0*]
309: 0x0D51 [0x01] GOTO 0x0E81
310: 0x0D54 [0x02] IF !(Work_Zone[2] == 2*) GOTO 0x0D7F
311: 0x0D5C [0x52] END_LOAD_SCHEDULER: End scheduler "s120" with entities [LocalPlayer, LocalPlayer], work=495*
312: 0x0D6B [0x45] LOAD_SCHEDULED_TASK: Load scheduler "shm2" with entities [LocalPlayer, LocalPlayer], work=[495*, 0*]
313: 0x0D7C [0x01] GOTO 0x0E81
314: 0x0D7F [0x02] IF !(Work_Zone[2] == 3*) GOTO 0x0DAA
315: 0x0D87 [0x52] END_LOAD_SCHEDULER: End scheduler "s120" with entities [LocalPlayer, LocalPlayer], work=495*
316: 0x0D96 [0x45] LOAD_SCHEDULED_TASK: Load scheduler "sem2" with entities [LocalPlayer, LocalPlayer], work=[495*, 0*]
317: 0x0DA7 [0x01] GOTO 0x0E81
318: 0x0DAA [0x02] IF !(Work_Zone[2] == 4*) GOTO 0x0DD5
319: 0x0DB2 [0x52] END_LOAD_SCHEDULER: End scheduler "s120" with entities [LocalPlayer, LocalPlayer], work=495*
320: 0x0DC1 [0x45] LOAD_SCHEDULED_TASK: Load scheduler "sem2" with entities [LocalPlayer, LocalPlayer], work=[495*, 0*]
321: 0x0DD2 [0x01] GOTO 0x0E81
322: 0x0DD5 [0x02] IF !(Work_Zone[2] == 5*) GOTO 0x0E00
323: 0x0DDD [0x52] END_LOAD_SCHEDULER: End scheduler "s120" with entities [LocalPlayer, LocalPlayer], work=495*
324: 0x0DEC [0x45] LOAD_SCHEDULED_TASK: Load scheduler "str2" with entities [LocalPlayer, LocalPlayer], work=[495*, 0*]
325: 0x0DFD [0x01] GOTO 0x0E81
326: 0x0E00 [0x02] IF !(Work_Zone[2] == 6*) GOTO 0x0E2B
327: 0x0E08 [0x52] END_LOAD_SCHEDULER: End scheduler "s120" with entities [LocalPlayer, LocalPlayer], work=495*
328: 0x0E17 [0x45] LOAD_SCHEDULED_TASK: Load scheduler "str2" with entities [LocalPlayer, LocalPlayer], work=[495*, 0*]
329: 0x0E28 [0x01] GOTO 0x0E81
330: 0x0E2B [0x02] IF !(Work_Zone[2] == 7*) GOTO 0x0E56
331: 0x0E33 [0x52] END_LOAD_SCHEDULER: End scheduler "s120" with entities [LocalPlayer, LocalPlayer], work=495*
332: 0x0E42 [0x45] LOAD_SCHEDULED_TASK: Load scheduler "smt2" with entities [LocalPlayer, LocalPlayer], work=[495*, 0*]
333: 0x0E53 [0x01] GOTO 0x0E81
334: 0x0E56 [0x02] IF !(Work_Zone[2] == 8*) GOTO 0x0E81
335: 0x0E5E [0x52] END_LOAD_SCHEDULER: End scheduler "s120" with entities [LocalPlayer, LocalPlayer], work=495*
336: 0x0E6D [0x45] LOAD_SCHEDULED_TASK: Load scheduler "sgl2" with entities [LocalPlayer, LocalPlayer], work=[495*, 0*]
337: 0x0E7E [0x01] GOTO 0x0E81

SUBROUTINE_0E81:
338: 0x0E81 [0x1C] WAIT(120* ticks)
339: 0x0E84 [0x5B] LOAD_EXT_SCHEDULER: Load scheduler "b100" with entities [Alexander (ID: 17072353/0x010480E1), Alexander (ID: 17072353/0x010480E1)], work=1179*
340: 0x0E93 [0xBB] LOAD_EVENT_SCHEDULER_ALT: Load scheduler "tex0" with entities [Alexander (ID: 17072353/0x010480E1), Alexander (ID: 17072353/0x010480E1)], work=[116*, 0*]
341: 0x0EA4 [0x1C] WAIT(10* ticks)
342: 0x0EA7 [0x52] END_LOAD_SCHEDULER: End scheduler "shm2" with entities [LocalPlayer, LocalPlayer], work=495*
343: 0x0EB6 [0x52] END_LOAD_SCHEDULER: End scheduler "sem2" with entities [LocalPlayer, LocalPlayer], work=495*
344: 0x0EC5 [0x52] END_LOAD_SCHEDULER: End scheduler "str2" with entities [LocalPlayer, LocalPlayer], work=495*
345: 0x0ED4 [0x52] END_LOAD_SCHEDULER: End scheduler "smt2" with entities [LocalPlayer, LocalPlayer], work=495*
346: 0x0EE3 [0x52] END_LOAD_SCHEDULER: End scheduler "sgl2" with entities [LocalPlayer, LocalPlayer], work=495*
347: 0x0EF2 [0x45] LOAD_SCHEDULED_TASK: Load scheduler "s126" with entities [LocalPlayer, LocalPlayer], work=[495*, 0*]
348: 0x0F03 [0x1C] WAIT(180* ticks)
349: 0x0F06 [0x5C] MUSIC_CONTROL: Set Idle (Day) music to song 187*
350: 0x0F0A [0x5C] MUSIC_CONTROL: Set Idle (Night) music to song 187*
351: 0x0F0E [0x5C] MUSIC_CONTROL: Set Combat (Solo) music to song 187*
352: 0x0F12 [0x5C] MUSIC_CONTROL: Set Combat (Party) music to song 187*
353: 0x0F16 [0x9A] WAIT_MUSIC_SERVER()
354: 0x0F17 [0xBB] LOAD_EVENT_SCHEDULER_ALT: Load scheduler "s001" with entities [Alexander (ID: 17072353/0x010480E1), Alexander (ID: 17072353/0x010480E1)], work=[105*, 0*]
355: 0x0F28 [0x5B] LOAD_EXT_SCHEDULER: Load scheduler "b101" with entities [Alexander (ID: 17072353/0x010480E1), Alexander (ID: 17072353/0x010480E1)], work=1179*
356: 0x0F37 [0x1C] WAIT(10* ticks)
357: 0x0F3A [0x52] END_LOAD_SCHEDULER: End scheduler "s126" with entities [LocalPlayer, LocalPlayer], work=495*
358: 0x0F49 [0x45] LOAD_SCHEDULED_TASK: Load scheduler "0da3" with entities [LocalPlayer, LocalPlayer], work=[320*, 0*]
359: 0x0F5A [0x03] Work_Zone[2] = 380*
360: 0x0F5F [0x27] REQ_SET(priority=0x10, entity_id=??? (ID: 17072334/0x010480CE), tag_num=0x07)
361: 0x0F66 [0x27] REQ_SET(priority=0x10, entity_id=Unnamed NPC (ID: 17072380/0x010480FC), tag_num=0x0C)
362: 0x0F6D [0x2B] Alexander (ID: 17072353/0x010480E1) [7806*]:
    → "I...am...Alexander. Tremble...before me... Worship...my greatness..."
363: 0x0F74 [0x1C] WAIT(90* ticks)
364: 0x0F77 [0x2A] GET_REQ_LEVEL(level=16, entity_id=??? (ID: 17072334/0x010480CE))
365: 0x0F7D [0x7C] Ghatsad (ID: 17072382/0x010480FE)->Render.Flags2 |= 0x00
366: 0x0F83 [0x52] END_LOAD_SCHEDULER: End scheduler "b200" with entities [LocalPlayer, LocalPlayer], work=320*
367: 0x0F92 [0x45] LOAD_SCHEDULED_TASK: Load scheduler "0da4" with entities [LocalPlayer, LocalPlayer], work=[320*, 0*]
368: 0x0FA3 [0x1C] WAIT(90* ticks)
369: 0x0FA6 [0x52] END_LOAD_SCHEDULER: End scheduler "0da4" with entities [LocalPlayer, LocalPlayer], work=320*
370: 0x0FB5 [0x45] LOAD_SCHEDULED_TASK: Load scheduler "b202" with entities [LocalPlayer, LocalPlayer], work=[320*, 0*]
371: 0x0FC6 [0x2B] Alexander (ID: 17072353/0x010480E1) [7807*]:
    → "Those...who fail to worship..."
372: 0x0FCD [0x1C] WAIT(150* ticks)
373: 0x0FD0 [0x52] END_LOAD_SCHEDULER: End scheduler "b202" with entities [LocalPlayer, LocalPlayer], work=320*
374: 0x0FDF [0x45] LOAD_SCHEDULED_TASK: Load scheduler "s122" with entities [LocalPlayer, LocalPlayer], work=[495*, 0*]
375: 0x0FF0 [0x2B] Alexander (ID: 17072353/0x010480E1) [7808*]:
    → "Shall be...judged..."
376: 0x0FF7 [0x23] WAIT_FOR_DIALOG_INTERACTION
377: 0x0FF8 [0xBB] LOAD_EVENT_SCHEDULER_ALT: Load scheduler 0xFEFEFE00 with entities [Alexander (ID: 17072353/0x010480E1), Alexander (ID: 17072353/0x010480E1)], work=[116*, 0*]
378: 0x1009 [0x52] END_LOAD_SCHEDULER: End scheduler "s122" with entities [LocalPlayer, LocalPlayer], work=495*
379: 0x1018 [0x45] LOAD_SCHEDULED_TASK: Load scheduler "s121" with entities [LocalPlayer, LocalPlayer], work=[495*, 0*]
380: 0x1029 [0x1C] WAIT(20* ticks)
381: 0x102C [0xBB] LOAD_EVENT_SCHEDULER_ALT: Load scheduler "eye0" with entities [Alexander (ID: 17072353/0x010480E1), Alexander (ID: 17072353/0x010480E1)], work=[116*, 0*]
382: 0x103D [0x1C] WAIT(30* ticks)
383: 0x1040 [0x1A] CALL_SUBROUTINE(address=0x0064)
384: 0x1043 [0x52] END_LOAD_SCHEDULER: End scheduler "s121" with entities [LocalPlayer, LocalPlayer], work=495*
385: 0x1052 [0x45] LOAD_SCHEDULED_TASK: Load scheduler "blof" with entities [LocalPlayer, LocalPlayer], work=[495*, 0*]
386: 0x1063 [0x5D] SET_MUSIC_VOLUME(volume=0*, fade_time=120*)
387: 0x1068 [0x29] REQ_SET_WAIT(priority=0x10, entity_id=LocalPlayer, tag_num=0x48)
388: 0x106F [0x35] LOAD_ZONE_NO_CLOSE(zone_id=72*)
389: 0x1072 [0x78] ENABLE_GAME_TIMER_RESET_WEATHER()
390: 0x1073 [0x1C] WAIT(1* ticks)
391: 0x1076 [0xAB] EventEntity->UnknownFlag = 0 // Disable unknown flag
392: 0x1078 [0x2D] CREATE_ZONE_SCHEDULER_TASK: Create scheduler "1pa1" with entities [LocalPlayer, LocalPlayer]
393: 0x1085 [0x2D] CREATE_ZONE_SCHEDULER_TASK: Create scheduler "1pb1" with entities [LocalPlayer, LocalPlayer]
394: 0x1092 [0x2D] CREATE_ZONE_SCHEDULER_TASK: Create scheduler "2pb1" with entities [LocalPlayer, LocalPlayer]
395: 0x109F [0x5C] MUSIC_CONTROL: Set Idle (Day) music to song 0*
396: 0x10A3 [0x5C] MUSIC_CONTROL: Set Idle (Night) music to song 0*
397: 0x10A7 [0x5C] MUSIC_CONTROL: Set Combat (Solo) music to song 115*
398: 0x10AB [0x5C] MUSIC_CONTROL: Set Combat (Party) music to song 139*
399: 0x10AF [0x9A] WAIT_MUSIC_SERVER()
400: 0x10B0 [0x46] CAMERA_CONTROL: Restore default settings
401: 0x10B2 [0x45] LOAD_SCHEDULED_TASK: Load scheduler "fdi2" with entities [LocalPlayer, LocalPlayer], work=[200*, 0*]
402: 0x10C3 [0x21] END_EVENT
403: 0x10C4 [0x00] END_REQSTACK()
```

### Event 307

#### Metadata

| Field        | Value      |
|--------------|------------|
| Entrypoint   | 0x10C5     |
| Data Size    | 4039 bytes |
| Instructions | 453        |

```
      00 01 02 03 04 05 06 07  08 09 0A 0B 0C 0D 0E 0F
      -- -- -- -- -- -- -- --  -- -- -- -- -- -- -- --
10C0:                42 1A 64  00 46 01 38 0A 80 4E 00       B.d.F.8..N.
10D0: F0 FF FF 7F 34 08 80 77  09 80 03 80 1C 06 80 AB  ....4..w........
10E0: 09 29 10 E7 80 04 01 06  4E 00 F0 FF FF 7F 27 10  .)......N.....'.
10F0: D7 80 04 01 02 27 10 F9  80 04 01 02 27 10 F8 80  .....'......'...
1100: 04 01 02 27 10 FE 80 04  01 04 27 10 E1 80 04 01  ...'......'.....
1110: 04 27 10 E2 80 04 01 04  27 10 F7 80 04 01 04 27  .'......'......'
1120: 10 F6 80 04 01 04 27 10  FA 80 04 01 04 27 10 DB  ......'......'..
1130: 80 04 01 04 27 10 FD 80  04 01 02 27 10 D9 80 04  ....'......'....
1140: 01 02 4E 00 CF 80 04 01  4E 00 CE 80 04 01 92 01  ..N.....N.......
1150: D7 80 04 01 92 01 F9 80  04 01 92 01 F8 80 04 01  ................
1160: 92 01 FE 80 04 01 92 01  E1 80 04 01 92 01 E2 80  ................
1170: 04 01 92 01 F7 80 04 01  92 01 F6 80 04 01 92 01  ................
1180: FA 80 04 01 92 01 DB 80  04 01 92 01 FD 80 04 01  ................
1190: 92 01 D9 80 04 01 94 01  F0 FF FF 7F 94 01 D7 80  ................
11A0: 04 01 94 01 F9 80 04 01  94 01 F8 80 04 01 94 01  ................
11B0: FE 80 04 01 94 01 E1 80  04 01 94 01 E2 80 04 01  ................
11C0: 94 01 F7 80 04 01 94 01  F6 80 04 01 94 01 FA 80  ................
11D0: 04 01 94 01 DB 80 04 01  94 01 FD 80 04 01 94 01  ................
11E0: D9 80 04 01 BA F0 FF FF  7F 77 80 78 80 11 80 79  .........w.x...y
11F0: 80 BA D7 80 04 01 7A 80  7B 80 0D 80 7C 80 BA F9  ......z.{...|...
1200: 80 04 01 7D 80 7E 80 0D  80 7F 80 BA F8 80 04 01  ...}.~..........
1210: 80 80 81 80 0D 80 7F 80  BA FE 80 04 01 82 80 83  ................
1220: 80 11 80 84 80 BA E2 80  04 01 82 80 83 80 11 80  ................
1230: 84 80 BA E1 80 04 01 1B  80 1C 80 1D 80 01 80 BA  ................
1240: F7 80 04 01 1E 80 1F 80  0D 80 0E 80 BA F6 80 04  ................
1250: 01 20 80 21 80 0D 80 0E  80 BA FA 80 04 01 85 80  . .!............
1260: 86 80 11 80 87 80 BA DB  80 04 01 25 80 26 80 0D  ...........%.&..
1270: 80 0E 80 BA D9 80 04 01  88 80 89 80 0D 80 8A 80  ................
1280: BA FD 80 04 01 1B 80 1C  80 1D 80 01 80 7B F0 FF  .............{..
1290: FF 7F 7B D7 80 04 01 7B  F9 80 04 01 7B F8 80 04  ..{....{....{...
12A0: 01 7B FE 80 04 01 7B E1  80 04 01 7B E2 80 04 01  .{....{....{....
12B0: 7B F7 80 04 01 7B F6 80  04 01 7B FA 80 04 01 7B  {....{....{....{
12C0: DB 80 04 01 7B FD 80 04  01 7B D9 80 04 01 80 F0  ....{....{......
12D0: FF FF 7F 80 D7 80 04 01  80 F9 80 04 01 80 F8 80  ................
12E0: 04 01 80 FE 80 04 01 80  E1 80 04 01 80 E2 80 04  ................
12F0: 01 80 F7 80 04 01 80 F6  80 04 01 80 FA 80 04 01  ................
1300: 80 DB 80 04 01 80 FD 80  04 01 80 D9 80 04 01 5B  ...............[
1310: 63 80 FE 80 04 01 FE 80  04 01 70 61 6E 33 5B 2A  c.........pan3[*
1320: 80 E2 80 04 01 E2 80 04  01 61 6C 78 30 5B 2B 80  .........alx0[+.
1330: E1 80 04 01 E1 80 04 01  62 32 6C 35 5B 2C 80 DB  ........b2l5[,..
1340: 80 04 01 DB 80 04 01 73  74 61 30 5B 8B 80 FD 80  .......sta0[....
1350: 04 01 FD 80 04 01 72 69  64 31 5B 8C 80 D9 80 04  ......rid1[.....
1360: 01 D9 80 04 01 6B 7A 65  30 4A D7 80 04 01 F0 FF  .....kze0J......
1370: FF 7F 4A F9 80 04 01 F0  FF FF 7F 4A F8 80 04 01  ..J........J....
1380: F0 FF FF 7F 4A F7 80 04  01 F0 FF FF 7F 4A F6 80  ....J........J..
1390: 04 01 F0 FF FF 7F 4A FA  80 04 01 F0 FF FF 7F 4A  ......J........J
13A0: DB 80 04 01 F0 FF FF 7F  29 10 CE 80 04 01 0E 7B  ........)......{
13B0: F6 80 04 01 27 10 D9 80  04 01 10 27 10 D7 80 04  ....'......'....
13C0: 01 12 5C 00 01 80 5C 01  01 80 5C 02 01 80 5C 03  ..\...\...\...\.
13D0: 01 80 9A 7B D7 80 04 01  27 10 F0 FF FF 7F 47 1C  ...{....'.....G.
13E0: 06 80 1C 59 80 BB 8D 80  E1 80 04 01 E1 80 04 01  ...Y............
13F0: 73 30 30 30 01 80 5B 8E  80 E1 80 04 01 E1 80 04  s000..[.........
1400: 01 62 32 30 30 03 02 10  8F 80 27 10 CE 80 04 01  .b200.....'.....
1410: 07 45 90 80 E1 80 04 01  E1 80 04 01 73 61 30 30  .E..........sa00
1420: 01 80 45 90 80 F0 FF FF  7F F0 FF FF 7F 30 64 63  ..E..........0dc
1430: 30 01 80 1A 43 00 1C 30  80 1C 91 80 52 90 80 F0  0...C..0....R...
1440: FF FF 7F F0 FF FF 7F 30  64 63 30 45 90 80 F0 FF  .......0dc0E....
1450: FF 7F F0 FF FF 7F 30 64  63 6A 01 80 45 90 80 E1  ......0dcj..E...
1460: 80 04 01 E1 80 04 01 73  61 30 31 01 80 2A 10 CE  .......sa01..*..
1470: 80 04 01 52 90 80 F0 FF  FF 7F F0 FF FF 7F 30 64  ...R..........0d
1480: 63 6A 29 10 F0 FF FF 7F  2D 02 02 10 03 80 80 B4  cj).....-.......
1490: 14 52 90 80 F0 FF FF 7F  F0 FF FF 7F 30 64 63 6A  .R..........0dcj
14A0: 45 2E 80 F0 FF FF 7F F0  FF FF 7F 72 68 6D 31 01  E..........rhm1.
14B0: 80 01 E1 15 02 02 10 05  80 80 DF 14 52 90 80 F0  ............R...
14C0: FF FF 7F F0 FF FF 7F 30  64 63 6A 45 2E 80 F0 FF  .......0dcjE....
14D0: FF 7F F0 FF FF 7F 72 68  6D 31 01 80 01 E1 15 02  ......rhm1......
14E0: 02 10 5C 80 80 0A 15 52  90 80 F0 FF FF 7F F0 FF  ..\....R........
14F0: FF 7F 30 64 63 6A 45 2E  80 F0 FF FF 7F F0 FF FF  ..0dcjE.........
1500: 7F 72 65 6D 31 01 80 01  E1 15 02 02 10 5D 80 80  .rem1........]..
1510: 35 15 52 90 80 F0 FF FF  7F F0 FF FF 7F 30 64 63  5.R..........0dc
1520: 6A 45 2E 80 F0 FF FF 7F  F0 FF FF 7F 72 65 6D 31  jE..........rem1
1530: 01 80 01 E1 15 02 02 10  58 80 80 60 15 52 90 80  ........X..`.R..
1540: F0 FF FF 7F F0 FF FF 7F  30 64 63 6A 45 2E 80 F0  ........0dcjE...
1550: FF FF 7F F0 FF FF 7F 72  74 72 31 01 80 01 E1 15  .......rtr1.....
1560: 02 02 10 5E 80 80 8B 15  52 90 80 F0 FF FF 7F F0  ...^....R.......
1570: FF FF 7F 30 64 63 6A 45  2E 80 F0 FF FF 7F F0 FF  ...0dcjE........
1580: FF 7F 72 74 72 31 01 80  01 E1 15 02 02 10 5F 80  ..rtr1........_.
1590: 80 B6 15 52 90 80 F0 FF  FF 7F F0 FF FF 7F 30 64  ...R..........0d
15A0: 63 6A 45 2E 80 F0 FF FF  7F F0 FF FF 7F 72 6D 74  cjE..........rmt
15B0: 31 01 80 01 E1 15 02 02  10 60 80 80 E1 15 52 90  1........`....R.
15C0: 80 F0 FF FF 7F F0 FF FF  7F 30 64 63 6A 45 2E 80  .........0dcjE..
15D0: F0 FF FF 7F F0 FF FF 7F  72 67 6C 31 01 80 01 E1  ........rgl1....
15E0: 15 27 10 F0 FF FF 7F 48  1C 30 80 5C 00 92 80 5C  .'.....H.0.\...\
15F0: 01 92 80 5C 02 92 80 5C  03 92 80 9A BA D7 80 04  ...\...\........
1600: 01 93 80 94 80 0D 80 95  80 5B 96 80 D7 80 04 01  .........[......
1610: D7 80 04 01 65 64 30 32  59 04 F8 80 04 01 5B 80  ....ed02Y.....[.
1620: 59 04 F9 80 04 01 5B 80  27 10 F9 80 04 01 0C 1C  Y.....[.'.......
1630: 58 80 6C F9 80 04 01 3D  80 03 80 6C D7 80 04 01  X.l....=...l....
1640: 3D 80 03 80 1C 58 80 52  2E 80 F0 FF FF 7F F0 FF  =....X.R........
1650: FF 7F 72 68 6D 31 52 2E  80 F0 FF FF 7F F0 FF FF  ..rhm1R.........
1660: 7F 72 65 6D 31 52 2E 80  F0 FF FF 7F F0 FF FF 7F  .rem1R..........
1670: 72 74 72 31 52 2E 80 F0  FF FF 7F F0 FF FF 7F 72  rtr1R..........r
1680: 6D 74 31 52 2E 80 F0 FF  FF 7F F0 FF FF 7F 72 67  mt1R..........rg
1690: 6C 31 45 2E 80 F0 FF FF  7F F0 FF FF 7F 72 31 30  l1E..........r10
16A0: 31 01 80 1C 6B 80 6C F8  80 04 01 3D 80 03 80 27  1...k.l....=...'
16B0: 10 F8 80 04 01 0C 1C 6B  80 1C 97 80 52 2E 80 F0  .......k....R...
16C0: FF FF 7F F0 FF FF 7F 72  31 30 31 45 2E 80 F0 FF  .......r101E....
16D0: FF 7F F0 FF FF 7F 72 31  31 34 01 80 2B D7 80 04  ......r114..+...
16E0: 01 98 80 23 52 2E 80 F0  FF FF 7F F0 FF FF 7F 72  ...#R..........r
16F0: 31 31 34 45 2E 80 F0 FF  FF 7F F0 FF FF 7F 72 31  114E..........r1
1700: 30 32 01 80 2A 10 F9 80  04 01 5B 37 80 F9 80 04  02..*.....[7....
1710: 01 F9 80 04 01 79 61 68  62 03 02 10 44 80 27 10  .....yahb...D.'.
1720: FC 80 04 01 0D 2B F9 80  04 01 99 80 23 2A 10 FC  .....+......#*..
1730: 80 04 01 52 2E 80 F0 FF  FF 7F F0 FF FF 7F 72 31  ...R..........r1
1740: 30 32 45 2E 80 F0 FF FF  7F F0 FF FF 7F 72 31 30  02E..........r10
1750: 33 01 80 BA DB 80 04 01  25 80 26 80 0D 80 0E 80  3.......%.&.....
1760: 2B FE 80 04 01 9A 80 23  2B FE 80 04 01 9B 80 23  +......#+......#
1770: 59 04 F6 80 04 01 9C 80  59 04 F7 80 04 01 5B 80  Y.......Y.....[.
1780: 59 04 FA 80 04 01 97 80  27 10 F6 80 04 01 0C 27  Y.......'......'
1790: 10 F7 80 04 01 0C 27 10  FA 80 04 01 0D 1C 3C 80  ......'.......<.
17A0: 52 2E 80 F0 FF FF 7F F0  FF FF 7F 72 31 30 33 45  R..........r103E
17B0: 2E 80 F0 FF FF 7F F0 FF  FF 7F 72 31 30 34 01 80  ..........r104..
17C0: 1C 32 80 52 2E 80 F0 FF  FF 7F F0 FF FF 7F 72 31  .2.R..........r1
17D0: 30 34 45 2E 80 F0 FF FF  7F F0 FF FF 7F 72 31 32  04E..........r12
17E0: 38 01 80 1C 45 80 2B F6  80 04 01 9D 80 6B 69 64  8...E.+......kid
17F0: 6C 30 D7 80 04 01 27 10  D7 80 04 01 13 BA D7 80  l0....'.........
1800: 04 01 9E 80 9F 80 0D 80  7C 80 4A D7 80 04 01 F0  ........|.J.....
1810: FF FF 7F 23 1C 6B 80 52  2E 80 F0 FF FF 7F F0 FF  ...#.k.R........
1820: FF 7F 72 31 32 38 45 2E  80 F0 FF FF 7F F0 FF FF  ..r128E.........
1830: 7F 72 31 30 35 01 80 5B  A0 80 F9 80 04 01 F9 80  .r105..[........
1840: 04 01 6B 69 73 30 BB A1  80 F9 80 04 01 F0 FF FF  ..kis0..........
1850: 7F 73 30 30 31 01 80 45  2E 80 F0 FF FF 7F F0 FF  .s001..E........
1860: FF 7F 6B 69 73 30 01 80  5B A2 80 F8 80 04 01 F8  ..kis0..[.......
1870: 80 04 01 68 69 6B 30 4A  F6 80 04 01 F0 FF FF 7F  ...hik0J........
1880: 1C 30 80 2B FE 80 04 01  A3 80 5B 63 80 FE 80 04  .0.+......[c....
1890: 01 FE 80 04 01 70 61 6E  32 1C 45 80 52 2E 80 F0  .....pan2.E.R...
18A0: FF FF 7F F0 FF FF 7F 72  31 30 35 45 2E 80 F0 FF  .......r105E....
18B0: FF 7F F0 FF FF 7F 72 31  30 36 01 80 5D 01 80 44  ......r106..]..D
18C0: 80 5B A4 80 E1 80 04 01  E1 80 04 01 6B 64 6F 30  .[..........kdo0
18D0: 6B 69 64 6C 30 DB 80 04  01 BA DB 80 04 01 25 80  kidl0.........%.
18E0: 26 80 0D 80 0E 80 7B DB  80 04 01 2B FE 80 04 01  &.....{....+....
18F0: A5 80 23 4B FA 80 04 01  24 80 6B 69 64 6C 30 F8  ..#K....$.kidl0.
1900: 80 04 01 6B 69 64 6C 30  F9 80 04 01 52 2E 80 F0  ...kidl0....R...
1910: FF FF 7F F0 FF FF 7F 72  31 30 36 45 2E 80 F0 FF  .......r106E....
1920: FF 7F F0 FF FF 7F 72 31  33 30 01 80 1C 97 80 52  ......r130.....R
1930: 2E 80 F0 FF FF 7F F0 FF  FF 7F 72 31 33 30 45 2E  ..........r130E.
1940: 80 F0 FF FF 7F F0 FF FF  7F 72 31 32 39 01 80 27  .........r129..'
1950: 10 D7 80 04 01 12 1C 97  80 52 2E 80 F0 FF FF 7F  .........R......
1960: F0 FF FF 7F 72 31 32 39  29 10 F0 FF FF 7F 2D 02  ....r129).....-.
1970: 02 10 03 80 80 9A 19 52  90 80 F0 FF FF 7F F0 FF  .......R........
1980: FF 7F 30 64 63 6A 45 2E  80 F0 FF FF 7F F0 FF FF  ..0dcjE.........
1990: 7F 72 68 6D 33 01 80 01  C7 1A 02 02 10 05 80 80  .rhm3...........
19A0: C5 19 52 90 80 F0 FF FF  7F F0 FF FF 7F 30 64 63  ..R..........0dc
19B0: 6A 45 2E 80 F0 FF FF 7F  F0 FF FF 7F 72 68 66 33  jE..........rhf3
19C0: 01 80 01 C7 1A 02 02 10  5C 80 80 F0 19 52 90 80  ........\....R..
19D0: F0 FF FF 7F F0 FF FF 7F  30 64 63 6A 45 2E 80 F0  ........0dcjE...
19E0: FF FF 7F F0 FF FF 7F 72  65 6D 33 01 80 01 C7 1A  .......rem3.....
19F0: 02 02 10 5D 80 80 1B 1A  52 90 80 F0 FF FF 7F F0  ...]....R.......
1A00: FF FF 7F 30 64 63 6A 45  2E 80 F0 FF FF 7F F0 FF  ...0dcjE........
1A10: FF 7F 72 65 66 33 01 80  01 C7 1A 02 02 10 58 80  ..ref3........X.
1A20: 80 46 1A 52 90 80 F0 FF  FF 7F F0 FF FF 7F 30 64  .F.R..........0d
1A30: 63 6A 45 2E 80 F0 FF FF  7F F0 FF FF 7F 72 74 72  cjE..........rtr
1A40: 33 01 80 01 C7 1A 02 02  10 5E 80 80 71 1A 52 90  3........^..q.R.
1A50: 80 F0 FF FF 7F F0 FF FF  7F 30 64 63 6A 45 2E 80  .........0dcjE..
1A60: F0 FF FF 7F F0 FF FF 7F  72 74 72 33 01 80 01 C7  ........rtr3....
1A70: 1A 02 02 10 5F 80 80 9C  1A 52 90 80 F0 FF FF 7F  ...._....R......
1A80: F0 FF FF 7F 30 64 63 6A  45 2E 80 F0 FF FF 7F F0  ....0dcjE.......
1A90: FF FF 7F 72 6D 74 33 01  80 01 C7 1A 02 02 10 60  ...rmt3........`
1AA0: 80 80 C7 1A 52 90 80 F0  FF FF 7F F0 FF FF 7F 30  ....R..........0
1AB0: 64 63 6A 45 2E 80 F0 FF  FF 7F F0 FF FF 7F 72 67  dcjE..........rg
1AC0: 6C 33 01 80 01 C7 1A 1C  97 80 52 2E 80 F0 FF FF  l3........R.....
1AD0: 7F F0 FF FF 7F 72 68 6D  33 52 2E 80 F0 FF FF 7F  .....rhm3R......
1AE0: F0 FF FF 7F 72 68 66 33  52 2E 80 F0 FF FF 7F F0  ....rhf3R.......
1AF0: FF FF 7F 72 65 6D 33 52  2E 80 F0 FF FF 7F F0 FF  ...rem3R........
1B00: FF 7F 72 65 66 33 52 2E  80 F0 FF FF 7F F0 FF FF  ..ref3R.........
1B10: 7F 72 74 72 33 52 2E 80  F0 FF FF 7F F0 FF FF 7F  .rtr3R..........
1B20: 72 6D 74 33 52 2E 80 F0  FF FF 7F F0 FF FF 7F 72  rmt3R..........r
1B30: 67 6C 33 45 2E 80 F0 FF  FF 7F F0 FF FF 7F 72 31  gl3E..........r1
1B40: 30 37 01 80 27 10 DB 80  04 01 10 6C FD 80 04 01  07..'......l....
1B50: 3D 80 03 80 1C 45 80 BA  D7 80 04 01 A6 80 A7 80  =....E..........
1B60: 0D 80 8A 80 1C 3C 80 5B  8B 80 FD 80 04 01 FD 80  .....<.[........
1B70: 04 01 72 69 64 32 1C 6B  80 52 2E 80 F0 FF FF 7F  ..rid2.k.R......
1B80: F0 FF FF 7F 72 31 30 37  45 2E 80 F0 FF FF 7F F0  ....r107E.......
1B90: FF FF 7F 72 31 30 38 01  80 5B A8 80 D7 80 04 01  ...r108..[......
1BA0: D7 80 04 01 62 32 30 31  1C 58 80 4E 01 DB 80 04  ....b201.X.N....
1BB0: 01 6C DB 80 04 01 01 80  03 80 7B D7 80 04 01 1C  .l........{.....
1BC0: A9 80 52 2E 80 F0 FF FF  7F F0 FF FF 7F 72 31 30  ..R..........r10
1BD0: 38 45 2E 80 F0 FF FF 7F  F0 FF FF 7F 72 31 31 35  8E..........r115
1BE0: 01 80 1C 97 80 1A A6 00  52 2E 80 F0 FF FF 7F F0  ........R.......
1BF0: FF FF 7F 72 31 31 35 6C  FD 80 04 01 01 80 03 80  ...r115l........
1C00: 6C DB 80 04 01 3D 80 03  80 6C D9 80 04 01 3D 80  l....=...l....=.
1C10: 03 80 6B 69 64 6C 30 FE  80 04 01 5C 00 01 80 5C  ..kidl0....\...\
1C20: 01 01 80 9A 6A 01 80 30  80 59 80 1C 06 80 27 10  ....j..0.Y....'.
1C30: D9 80 04 01 0A 6C D9 80  04 01 3D 80 03 80 5B AA  .....l....=...[.
1C40: 80 D9 80 04 01 D9 80 04  01 72 66 61 30 BB AB 80  .........rfa0...
1C50: CF 80 04 01 CF 80 04 01  6B 6C 61 6C 01 80 48 AC  ........klal..H.
1C60: 80 23 1C 44 80 BB AD 80  CE 80 04 01 CE 80 04 01  .#.D............
1C70: 6D 61 69 6E 01 80 5C 00  AE 80 5C 01 AE 80 9A 52  main..\...\....R
1C80: 90 80 F0 FF FF 7F F0 FF  FF 7F 30 72 67 6D 45 2E  ..........0rgmE.
1C90: 80 F0 FF FF 7F F0 FF FF  7F 72 31 31 37 01 80 1C  .........r117...
1CA0: AF 80 52 2E 80 F0 FF FF  7F F0 FF FF 7F 72 31 31  ..R..........r11
1CB0: 37 45 2E 80 F0 FF FF 7F  F0 FF FF 7F 72 31 31 38  7E..........r118
1CC0: 01 80 1C 00 80 52 2E 80  F0 FF FF 7F F0 FF FF 7F  .....R..........
1CD0: 72 31 31 38 45 2E 80 F0  FF FF 7F F0 FF FF 7F 72  r118E..........r
1CE0: 31 31 39 01 80 1C B0 80  5B AA 80 D9 80 04 01 D9  119.....[.......
1CF0: 80 04 01 72 66 61 32 45  90 80 F0 FF FF 7F F0 FF  ...rfa2E........
1D00: FF 7F 30 72 77 6F 01 80  55 90 80 F0 FF FF 7F F0  ..0rwo..U.......
1D10: FF FF 7F 30 72 77 6F 1C  06 80 52 2E 80 F0 FF FF  ...0rwo...R.....
1D20: 7F F0 FF FF 7F 72 31 31  39 BB AD 80 CE 80 04 01  .....r119.......
1D30: CE 80 04 01 6B 6C 61 6C  01 80 BB AB 80 CF 80 04  ....klal........
1D40: 01 CF 80 04 01 73 74 30  30 01 80 1C 44 80 6A B1  .....st00...D.j.
1D50: 80 B2 80 59 80 52 90 80  F0 FF FF 7F F0 FF FF 7F  ...Y.R..........
1D60: 30 73 69 35 45 90 80 F0  FF FF 7F F0 FF FF 7F 30  0si5E..........0
1D70: 62 6C 66 01 80 4E 00 DB  80 04 01 BA F0 FF FF 7F  blf..N..........
1D80: B3 80 B4 80 0D 80 7C 80  BA D9 80 04 01 B5 80 B6  ......|.........
1D90: 80 0D 80 01 80 BA D7 80  04 01 B7 80 B8 80 0D 80  ................
1DA0: B9 80 BA FE 80 04 01 BA  80 BB 80 0D 80 7C 80 BA  .............|..
1DB0: DB 80 04 01 BC 80 BD 80  0D 80 B9 80 BA F9 80 04  ................
1DC0: 01 BE 80 BF 80 0D 80 C0  80 BA F8 80 04 01 C1 80  ................
1DD0: C2 80 0D 80 7C 80 BA F7  80 04 01 C3 80 C4 80 0D  ....|...........
1DE0: 80 C5 80 BA F6 80 04 01  C6 80 C7 80 0D 80 C5 80  ................
1DF0: BA FA 80 04 01 C8 80 C9  80 0D 80 CA 80 4A F0 FF  .............J..
1E00: FF 7F D9 80 04 01 4A FE  80 04 01 D9 80 04 01 4A  ......J........J
1E10: F9 80 04 01 D9 80 04 01  4A F8 80 04 01 D9 80 04  ........J.......
1E20: 01 4A FE 80 04 01 D9 80  04 01 4A F6 80 04 01 D9  .J........J.....
1E30: 80 04 01 4A FA 80 04 01  D9 80 04 01 4A F7 80 04  ...J........J...
1E40: 01 D9 80 04 01 27 10 D7  80 04 01 13 6B 69 64 6C  .....'......kidl
1E50: 30 D9 80 04 01 2C D9 80  04 01 D9 80 04 01 63 6F  0....,........co
1E60: 72 70 66 CB 80 DB 80 04  01 DB 80 04 01 73 69 72  rpf..........sir
1E70: 30 5B CC 80 D9 80 04 01  D9 80 04 01 73 6C 70 30  0[..........slp0
1E80: 5B CD 80 D7 80 04 01 D7  80 04 01 65 64 31 30 81  [..........ed10.
1E90: 00 D7 80 04 01 1C 45 80  45 2E 80 F0 FF FF 7F F0  ......E.E.......
1EA0: FF FF 7F 72 31 30 39 01  80 1A 85 00 2B DB 80 04  ...r109.....+...
1EB0: 01 CE 80 23 1C 30 80 5C  00 AE 80 5C 01 AE 80 9A  ...#.0.\...\....
1EC0: 52 2E 80 F0 FF FF 7F F0  FF FF 7F 72 31 30 39 45  R..........r109E
1ED0: 2E 80 F0 FF FF 7F F0 FF  FF 7F 72 31 31 30 01 80  ..........r110..
1EE0: 5B CD 80 D7 80 04 01 D7  80 04 01 65 64 31 31 BB  [..........ed11.
1EF0: CF 80 D7 80 04 01 D7 80  04 01 73 30 30 33 01 80  ..........s003..
1F00: 1C 30 80 4A FE 80 04 01  D7 80 04 01 2B D7 80 04  .0.J........+...
1F10: 01 D0 80 23 52 2E 80 F0  FF FF 7F F0 FF FF 7F 72  ...#R..........r
1F20: 31 31 30 45 2E 80 F0 FF  FF 7F F0 FF FF 7F 72 31  110E..........r1
1F30: 31 31 01 80 6F 76 FE 80  04 01 7B FE 80 04 01 66  11..ov....{....f
1F40: 51 80 FE 80 04 01 FE 80  04 01 73 68 61 30 2B FE  Q.........sha0+.
1F50: 80 04 01 D1 80 23 52 2E  80 F0 FF FF 7F F0 FF FF  .....#R.........
1F60: 7F 72 31 31 31 45 2E 80  F0 FF FF 7F F0 FF FF 7F  .r111E..........
1F70: 72 31 31 36 01 80 2B FE  80 04 01 D2 80 23 52 2E  r116..+......#R.
1F80: 80 F0 FF FF 7F F0 FF FF  7F 72 31 31 36 45 2E 80  .........r116E..
1F90: F0 FF FF 7F F0 FF FF 7F  72 31 31 32 01 80 66 51  ........r112..fQ
1FA0: 80 FE 80 04 01 FE 80 04  01 73 68 61 31 1C A9 80  .........sha1...
1FB0: 4A FE 80 04 01 F0 FF FF  7F 79 00 F0 FF FF 7F FE  J........y......
1FC0: 80 04 01 6F 76 FE 80 04  01 66 51 80 FE 80 04 01  ...ov....fQ.....
1FD0: FE 80 04 01 74 6C 6B 30  2B FE 80 04 01 D3 80 23  ....tlk0+......#
1FE0: 52 2E 80 F0 FF FF 7F F0  FF FF 7F 72 31 31 32 45  R..........r112E
1FF0: 2E 80 F0 FF FF 7F F0 FF  FF 7F 72 31 31 33 01 80  ..........r113..
2000: 66 51 80 FE 80 04 01 FE  80 04 01 74 6C 6B 31 1C  fQ.........tlk1.
2010: 30 80 52 2E 80 F0 FF FF  7F F0 FF FF 7F 72 31 31  0.R..........r11
2020: 33 1A 64 00 81 01 D7 80  04 01 5D 01 80 30 80 29  3.d.......]..0.)
2030: 10 F0 FF FF 7F 48 35 74  80 78 1C 03 80 AB 0A 2D  .....H5t.x.....-
2040: F0 FF FF 7F F0 FF FF 7F  31 70 61 31 2D F0 FF FF  ........1pa1-...
2050: 7F F0 FF FF 7F 31 70 62  31 2D F0 FF FF 7F F0 FF  .....1pb1-......
2060: FF 7F 32 70 62 31 5C 00  01 80 5C 01 01 80 5C 02  ..2pb1\...\...\.
2070: 75 80 5C 03 76 80 9A 46  00 45 00 80 F0 FF FF 7F  u.\.v..F.E......
2080: F0 FF FF 7F 66 64 69 32  01 80 21 00              ....fdi2..!.    
```

#### Opcodes

```
  0: 0x10C5 [0x42] SET_CLI_EVENT_CANCEL_DATA()
  1: 0x10C6 [0x1A] CALL_SUBROUTINE(address=0x0064)
  2: 0x10C9 [0x46] CAMERA_CONTROL: Disable user control
  3: 0x10CB [0x38] SET_CLIENT_EVENT_MODE(mode=19*)
  4: 0x10CE [0x4E] SET_ENTITY_HIDE_FLAG: Show LocalPlayer
  5: 0x10D4 [0x34] LOAD_UNLOAD_ZONE(zone_id=77*)
  6: 0x10D7 [0x77] SET_EVENT_TIME_WEATHER(hour=255*, weather=1*)
  7: 0x10DC [0x1C] WAIT(30* ticks)
  8: 0x10DF [0xAB] EventEntity->UnknownFlag = 1 // Enable unknown flag
  9: 0x10E1 [0x29] REQ_SET_WAIT(priority=0x10, entity_id=Unnamed NPC (ID: 17072359/0x010480E7), tag_num=0x06)
 10: 0x10E8 [0x4E] SET_ENTITY_HIDE_FLAG: Show LocalPlayer
 11: 0x10EE [0x27] REQ_SET(priority=0x10, entity_id=Nashmeira (ID: 17072343/0x010480D7), tag_num=0x02)
 12: 0x10F5 [0x27] REQ_SET(priority=0x10, entity_id=Ovjang (ID: 17072377/0x010480F9), tag_num=0x02)
 13: 0x10FC [0x27] REQ_SET(priority=0x10, entity_id=Mnejing (ID: 17072376/0x010480F8), tag_num=0x02)
 14: 0x1103 [0x27] REQ_SET(priority=0x10, entity_id=Ghatsad (ID: 17072382/0x010480FE), tag_num=0x04)
 15: 0x110A [0x27] REQ_SET(priority=0x10, entity_id=Alexander (ID: 17072353/0x010480E1), tag_num=0x04)
 16: 0x1111 [0x27] REQ_SET(priority=0x10, entity_id=Unnamed NPC (ID: 17072354/0x010480E2), tag_num=0x04)
 17: 0x1118 [0x27] REQ_SET(priority=0x10, entity_id=Travialce (ID: 17072375/0x010480F7), tag_num=0x04)
 18: 0x111F [0x27] REQ_SET(priority=0x10, entity_id=Gessho (ID: 17072374/0x010480F6), tag_num=0x04)
 19: 0x1126 [0x27] REQ_SET(priority=0x10, entity_id=Rodin-Comidin (ID: 17072378/0x010480FA), tag_num=0x04)
 20: 0x112D [0x27] REQ_SET(priority=0x10, entity_id=Raubahn (ID: 17072347/0x010480DB), tag_num=0x04)
 21: 0x1134 [0x27] REQ_SET(priority=0x10, entity_id=Raubahn (ID: 17072381/0x010480FD), tag_num=0x02)
 22: 0x113B [0x27] REQ_SET(priority=0x10, entity_id=Razfahd (ID: 17072345/0x010480D9), tag_num=0x02)
 23: 0x1142 [0x4E] SET_ENTITY_HIDE_FLAG: Show Unnamed NPC (ID: 17072335/0x010480CF)
 24: 0x1148 [0x4E] SET_ENTITY_HIDE_FLAG: Show ??? (ID: 17072334/0x010480CE)
 25: 0x114E [0x92] Nashmeira (ID: 17072343/0x010480D7)->Render.Flags3 ^= 0x01
 26: 0x1154 [0x92] Ovjang (ID: 17072377/0x010480F9)->Render.Flags3 ^= 0x01
 27: 0x115A [0x92] Mnejing (ID: 17072376/0x010480F8)->Render.Flags3 ^= 0x01
 28: 0x1160 [0x92] Ghatsad (ID: 17072382/0x010480FE)->Render.Flags3 ^= 0x01
 29: 0x1166 [0x92] Alexander (ID: 17072353/0x010480E1)->Render.Flags3 ^= 0x01
 30: 0x116C [0x92] Unnamed NPC (ID: 17072354/0x010480E2)->Render.Flags3 ^= 0x01
 31: 0x1172 [0x92] Travialce (ID: 17072375/0x010480F7)->Render.Flags3 ^= 0x01
 32: 0x1178 [0x92] Gessho (ID: 17072374/0x010480F6)->Render.Flags3 ^= 0x01
 33: 0x117E [0x92] Rodin-Comidin (ID: 17072378/0x010480FA)->Render.Flags3 ^= 0x01
 34: 0x1184 [0x92] Raubahn (ID: 17072347/0x010480DB)->Render.Flags3 ^= 0x01
 35: 0x118A [0x92] Raubahn (ID: 17072381/0x010480FD)->Render.Flags3 ^= 0x01
 36: 0x1190 [0x92] Razfahd (ID: 17072345/0x010480D9)->Render.Flags3 ^= 0x01
 37: 0x1196 [0x94] LocalPlayer->Render.Flags3 ^= 0x01
 38: 0x119C [0x94] Nashmeira (ID: 17072343/0x010480D7)->Render.Flags3 ^= 0x01
 39: 0x11A2 [0x94] Ovjang (ID: 17072377/0x010480F9)->Render.Flags3 ^= 0x01
 40: 0x11A8 [0x94] Mnejing (ID: 17072376/0x010480F8)->Render.Flags3 ^= 0x01
 41: 0x11AE [0x94] Ghatsad (ID: 17072382/0x010480FE)->Render.Flags3 ^= 0x01
 42: 0x11B4 [0x94] Alexander (ID: 17072353/0x010480E1)->Render.Flags3 ^= 0x01
 43: 0x11BA [0x94] Unnamed NPC (ID: 17072354/0x010480E2)->Render.Flags3 ^= 0x01
 44: 0x11C0 [0x94] Travialce (ID: 17072375/0x010480F7)->Render.Flags3 ^= 0x01
 45: 0x11C6 [0x94] Gessho (ID: 17072374/0x010480F6)->Render.Flags3 ^= 0x01
 46: 0x11CC [0x94] Rodin-Comidin (ID: 17072378/0x010480FA)->Render.Flags3 ^= 0x01
 47: 0x11D2 [0x94] Raubahn (ID: 17072347/0x010480DB)->Render.Flags3 ^= 0x01
 48: 0x11D8 [0x94] Raubahn (ID: 17072381/0x010480FD)->Render.Flags3 ^= 0x01
 49: 0x11DE [0x94] Razfahd (ID: 17072345/0x010480D9)->Render.Flags3 ^= 0x01
 50: 0x11E4 [0xBA] SET_ENTITY_POSITION(entity_id=LocalPlayer, pos_x=-478.576*, pos_z=416.482*, pos_y=-4.000*, direction=205.9°*)
 51: 0x11F1 [0xBA] SET_ENTITY_POSITION(entity_id=Nashmeira (ID: 17072343/0x010480D7), pos_x=-477.860*, pos_z=413.889*, pos_y=-3.999*, direction=206.0°*)
 52: 0x11FE [0xBA] SET_ENTITY_POSITION(entity_id=Ovjang (ID: 17072377/0x010480F9), pos_x=-478.155*, pos_z=408.901*, pos_y=-3.999*, direction=263.7°*)
 53: 0x120B [0xBA] SET_ENTITY_POSITION(entity_id=Mnejing (ID: 17072376/0x010480F8), pos_x=-475.441*, pos_z=408.865*, pos_y=-3.999*, direction=263.7°*)
 54: 0x1218 [0xBA] SET_ENTITY_POSITION(entity_id=Ghatsad (ID: 17072382/0x010480FE), pos_x=-480.085*, pos_z=409.949*, pos_y=-4.000*, direction=267.4°*)
 55: 0x1225 [0xBA] SET_ENTITY_POSITION(entity_id=Unnamed NPC (ID: 17072354/0x010480E2), pos_x=-480.085*, pos_z=409.949*, pos_y=-4.000*, direction=267.4°*)
 56: 0x1232 [0xBA] SET_ENTITY_POSITION(entity_id=Alexander (ID: 17072353/0x010480E1), pos_x=-486.535*, pos_z=420.000*, pos_y=-3.949*, direction=0.0°*)
 57: 0x123F [0xBA] SET_ENTITY_POSITION(entity_id=Travialce (ID: 17072375/0x010480F7), pos_x=-477.799*, pos_z=427.994*, pos_y=-3.999*, direction=178.7°*)
 58: 0x124C [0xBA] SET_ENTITY_POSITION(entity_id=Gessho (ID: 17072374/0x010480F6), pos_x=-475.196*, pos_z=427.803*, pos_y=-3.999*, direction=178.7°*)
 59: 0x1259 [0xBA] SET_ENTITY_POSITION(entity_id=Rodin-Comidin (ID: 17072378/0x010480FA), pos_x=-466.148*, pos_z=443.994*, pos_y=-4.000*, direction=116.7°*)
 60: 0x1266 [0xBA] SET_ENTITY_POSITION(entity_id=Raubahn (ID: 17072347/0x010480DB), pos_x=-469.929*, pos_z=427.837*, pos_y=-3.999*, direction=178.7°*)
 61: 0x1273 [0xBA] SET_ENTITY_POSITION(entity_id=Razfahd (ID: 17072345/0x010480D9), pos_x=-478.824*, pos_z=419.900*, pos_y=-3.999*, direction=175.8°*)
 62: 0x1280 [0xBA] SET_ENTITY_POSITION(entity_id=Raubahn (ID: 17072381/0x010480FD), pos_x=-486.535*, pos_z=420.000*, pos_y=-3.949*, direction=0.0°*)
 63: 0x128D [0x7B] LocalPlayer stops talking
 64: 0x1292 [0x7B] Nashmeira (ID: 17072343/0x010480D7) stops talking
 65: 0x1297 [0x7B] Ovjang (ID: 17072377/0x010480F9) stops talking
 66: 0x129C [0x7B] Mnejing (ID: 17072376/0x010480F8) stops talking
 67: 0x12A1 [0x7B] Ghatsad (ID: 17072382/0x010480FE) stops talking
 68: 0x12A6 [0x7B] Alexander (ID: 17072353/0x010480E1) stops talking
 69: 0x12AB [0x7B] Unnamed NPC (ID: 17072354/0x010480E2) stops talking
 70: 0x12B0 [0x7B] Travialce (ID: 17072375/0x010480F7) stops talking
 71: 0x12B5 [0x7B] Gessho (ID: 17072374/0x010480F6) stops talking
 72: 0x12BA [0x7B] Rodin-Comidin (ID: 17072378/0x010480FA) stops talking
 73: 0x12BF [0x7B] Raubahn (ID: 17072347/0x010480DB) stops talking
 74: 0x12C4 [0x7B] Raubahn (ID: 17072381/0x010480FD) stops talking
 75: 0x12C9 [0x7B] Razfahd (ID: 17072345/0x010480D9) stops talking
 76: 0x12CE [0x80] LOAD_WAIT(entity=LocalPlayer)
 77: 0x12D3 [0x80] LOAD_WAIT(entity=Nashmeira (ID: 17072343/0x010480D7))
 78: 0x12D8 [0x80] LOAD_WAIT(entity=Ovjang (ID: 17072377/0x010480F9))
 79: 0x12DD [0x80] LOAD_WAIT(entity=Mnejing (ID: 17072376/0x010480F8))
 80: 0x12E2 [0x80] LOAD_WAIT(entity=Ghatsad (ID: 17072382/0x010480FE))
 81: 0x12E7 [0x80] LOAD_WAIT(entity=Alexander (ID: 17072353/0x010480E1))
 82: 0x12EC [0x80] LOAD_WAIT(entity=Unnamed NPC (ID: 17072354/0x010480E2))
 83: 0x12F1 [0x80] LOAD_WAIT(entity=Travialce (ID: 17072375/0x010480F7))
 84: 0x12F6 [0x80] LOAD_WAIT(entity=Gessho (ID: 17072374/0x010480F6))
 85: 0x12FB [0x80] LOAD_WAIT(entity=Rodin-Comidin (ID: 17072378/0x010480FA))
 86: 0x1300 [0x80] LOAD_WAIT(entity=Raubahn (ID: 17072347/0x010480DB))
 87: 0x1305 [0x80] LOAD_WAIT(entity=Raubahn (ID: 17072381/0x010480FD))
 88: 0x130A [0x80] LOAD_WAIT(entity=Razfahd (ID: 17072345/0x010480D9))
 89: 0x130F [0x5B] LOAD_EXT_SCHEDULER: Load scheduler "pan3" with entities [Ghatsad (ID: 17072382/0x010480FE), Ghatsad (ID: 17072382/0x010480FE)], work=1173*
 90: 0x131E [0x5B] LOAD_EXT_SCHEDULER: Load scheduler "alx0" with entities [Unnamed NPC (ID: 17072354/0x010480E2), Unnamed NPC (ID: 17072354/0x010480E2)], work=1188*
 91: 0x132D [0x5B] LOAD_EXT_SCHEDULER: Load scheduler "b2l5" with entities [Alexander (ID: 17072353/0x010480E1), Alexander (ID: 17072353/0x010480E1)], work=1182*
 92: 0x133C [0x5B] LOAD_EXT_SCHEDULER: Load scheduler "sta0" with entities [Raubahn (ID: 17072347/0x010480DB), Raubahn (ID: 17072347/0x010480DB)], work=837*
 93: 0x134B [0x5B] LOAD_EXT_SCHEDULER: Load scheduler "rid1" with entities [Raubahn (ID: 17072381/0x010480FD), Raubahn (ID: 17072381/0x010480FD)], work=1072*
 94: 0x135A [0x5B] LOAD_EXT_SCHEDULER: Load scheduler "kze0" with entities [Razfahd (ID: 17072345/0x010480D9), Razfahd (ID: 17072345/0x010480D9)], work=963*
 95: 0x1369 [0x4A] Nashmeira (ID: 17072343/0x010480D7) looks at LocalPlayer
