# 17072358

## Common Data

| Field            | Value                            |
|------------------|----------------------------------|
| Zone             | Alzadaal Undersea Ruins (ID: 72) |
| Block Size       | 21364 bytes                      |
| Total Events     | 7                                |
| References Count | 465                              |

## List of Events

| Event ID              | Entrypoint   |   Size |   Instructions |
|-----------------------|--------------|--------|----------------|
| [65535](#event-65535) | 0x0000       |      1 |              1 |
| [6](#event-6)         | 0x0001       |   1743 |            229 |
| [7](#event-7)         | 0x06D0       |   2054 |            233 |
| [8](#event-8)         | 0x0ED6       |   3806 |            448 |
| [10](#event-10)       | 0x1DB4       |   9458 |            995 |
| [9](#event-9)         | 0x42A6       |   1234 |            149 |
| [11](#event-11)       | 0x4778       |   1164 |            136 |

## DAT References (imed_data)

|   Index | Hex Value   |   Dec Value |
|---------|-------------|-------------|
|       0 | 0x0000      |           0 |
|       1 | 0x1D5E      |        7518 |
|       2 | 0x0078      |         120 |
|       3 | 0x1D60      |        7520 |
|       4 | 0x1D61      |        7521 |
|       5 | 0x0001      |           1 |
|       6 | 0x0063      |          99 |
|       7 | 0x0013      |          19 |
|       8 | 0x004D      |          77 |
|       9 | 0x00FF      |         255 |
|      10 | 0x001E      |          30 |
|      11 | 0x7A12C     |      500012 |
|      12 | 0xFFF78485  |  4294411397 |
|      13 | 0x0BFB      |        3067 |
|      14 | 0x7A108     |      499976 |
|      15 | 0xFFF7B8AA  |  4294424746 |
|      16 | 0x0400      |        1024 |
|      17 | 0x7B013     |      503827 |
|      18 | 0xFFF79999  |  4294416793 |
|      19 | 0x0E8B      |        3723 |
|      20 | 0x7A0F7     |      499959 |
|      21 | 0xFFF78C2C  |  4294413356 |
|      22 | 0x0C04      |        3076 |
|      23 | 0x78F13     |      495379 |
|      24 | 0xFFF78D81  |  4294413697 |
|      25 | 0x0DFC      |        3580 |
|      26 | 0x7B31A     |      504602 |
|      27 | 0xFFF78DDD  |  4294413789 |
|      28 | 0x0A0D      |        2573 |
|      29 | 0x000A      |          10 |
|      30 | 0x0094      |         148 |
|      31 | 0x000F      |          15 |
|      32 | 0x0141      |         321 |
|      33 | 0x002D      |          45 |
|      34 | 0x003C      |          60 |
|      35 | 0x1D4D      |        7501 |
|      36 | 0x1D4E      |        7502 |
|      37 | 0x1D4F      |        7503 |
|      38 | 0x1D50      |        7504 |
|      39 | 0x0014      |          20 |
|      40 | 0x1D51      |        7505 |
|      41 | 0x005A      |          90 |
|      42 | 0x1D52      |        7506 |
|      43 | 0x03C8      |         968 |
|      44 | 0x1D53      |        7507 |
|      45 | 0x088B      |        2187 |
|      46 | 0x0032      |          50 |
|      47 | 0x1D54      |        7508 |
|      48 | 0x0096      |         150 |
|      49 | 0x1D55      |        7509 |
|      50 | 0x008F      |         143 |
|      51 | 0x1D56      |        7510 |
|      52 | 0x1D57      |        7511 |
|      53 | 0x1D58      |        7512 |
|      54 | 0x0020      |          32 |
|      55 | 0x1D59      |        7513 |
|      56 | 0x0356      |         854 |
|      57 | 0x1D5A      |        7514 |
|      58 | 0x1D5B      |        7515 |
|      59 | 0x1D5C      |        7516 |
|      60 | 0x0489      |        1161 |
|      61 | 0x1D5D      |        7517 |
|      62 | 0x0463      |        1123 |
|      63 | 0x0048      |          72 |
|      64 | 0x0073      |         115 |
|      65 | 0x008B      |         139 |
|      66 | 0x00C8      |         200 |
|      67 | 0x7023D     |      459325 |
|      68 | 0xFFF91B61  |  4294515553 |
|      69 | 0x0C56      |        3158 |
|      70 | 0x704E0     |      460000 |
|      71 | 0xFFF931D0  |  4294521296 |
|      72 | 0x7076A     |      460650 |
|      73 | 0xFFF91D29  |  4294516009 |
|      74 | 0x0BD8      |        3032 |
|      75 | 0xFFF9364E  |  4294522446 |
|      76 | 0x7051B     |      460059 |
|      77 | 0xFFF925C5  |  4294518213 |
|      78 | 0x0C57      |        3159 |
|      79 | 0x0061      |          97 |
|      80 | 0x0065      |         101 |
|      81 | 0x00D8      |         216 |
|      82 | 0x00B9      |         185 |
|      83 | 0x04A2      |        1186 |
|      84 | 0x0491      |        1169 |
|      85 | 0x048A      |        1162 |
|      86 | 0x1D62      |        7522 |
|      87 | 0x1D63      |        7523 |
|      88 | 0x1D64      |        7524 |
|      89 | 0x01A4      |         420 |
|      90 | 0x1D65      |        7525 |
|      91 | 0x1D66      |        7526 |
|      92 | 0x1D67      |        7527 |
|      93 | 0x04A3      |        1187 |
|      94 | 0x0168      |         360 |
|      95 | 0x1D68      |        7528 |
|      96 | 0x1D69      |        7529 |
|      97 | 0x1D6A      |        7530 |
|      98 | 0x01E0      |         480 |
|      99 | 0x00B4      |         180 |
|     100 | 0x1D6B      |        7531 |
|     101 | 0x1D6C      |        7532 |
|     102 | 0x00F4      |         244 |
|     103 | 0x1D6D      |        7533 |
|     104 | 0x0002      |           2 |
|     105 | 0x0003      |           3 |
|     106 | 0x0004      |           4 |
|     107 | 0x0005      |           5 |
|     108 | 0x0006      |           6 |
|     109 | 0x0007      |           7 |
|     110 | 0x0008      |           8 |
|     111 | 0x1D6E      |        7534 |
|     112 | 0x1D6F      |        7535 |
|     113 | 0x0028      |          40 |
|     114 | 0x00DC      |         220 |
|     115 | 0x1D70      |        7536 |
|     116 | 0x1D71      |        7537 |
|     117 | 0x1D72      |        7538 |
|     118 | 0x1D73      |        7539 |
|     119 | 0x1D5F      |        7519 |
|     120 | 0xFFF8EF82  |  4294504322 |
|     121 | 0x66C31     |      420913 |
|     122 | 0xFFFFF061  |  4294963297 |
|     123 | 0x0800      |        2048 |
|     124 | 0xFFF8C67B  |  4294493819 |
|     125 | 0x668A0     |      420000 |
|     126 | 0xFFFFF093  |  4294963347 |
|     127 | 0xFFF892FA  |  4294480634 |
|     128 | 0x654ED     |      414957 |
|     129 | 0xFFF89ACD  |  4294482637 |
|     130 | 0xFFF8AD45  |  4294487365 |
|     131 | 0x663BF     |      418751 |
|     132 | 0x0897      |        2199 |
|     133 | 0xFFF8AF11  |  4294487825 |
|     134 | 0x672A9     |      422569 |
|     135 | 0x04FD      |        1277 |
|     136 | 0x0067      |         103 |
|     137 | 0x049A      |        1178 |
|     138 | 0x0345      |         837 |
|     139 | 0x035F      |         863 |
|     140 | 0x0495      |        1173 |
|     141 | 0x04A4      |        1188 |
|     142 | 0x0140      |         320 |
|     143 | 0x1D74      |        7540 |
|     144 | 0x1D75      |        7541 |
|     145 | 0x1D76      |        7542 |
|     146 | 0x1D77      |        7543 |
|     147 | 0x0419      |        1049 |
|     148 | 0x1D78      |        7544 |
|     149 | 0x1D79      |        7545 |
|     150 | 0x1D7A      |        7546 |
|     151 | 0x1D7B      |        7547 |
|     152 | 0x0428      |        1064 |
|     153 | 0x042E      |        1070 |
|     154 | 0x0300      |         768 |
|     155 | 0x1D7C      |        7548 |
|     156 | 0x1D7D      |        7549 |
|     157 | 0x1D7E      |        7550 |
|     158 | 0x1D7F      |        7551 |
|     159 | 0x037B      |         891 |
|     160 | 0x1D80      |        7552 |
|     161 | 0x1D81      |        7553 |
|     162 | 0x0434      |        1076 |
|     163 | 0x1D82      |        7554 |
|     164 | 0x1D83      |        7555 |
|     165 | 0x1D84      |        7556 |
|     166 | 0x1D85      |        7557 |
|     167 | 0x012C      |         300 |
|     168 | 0x1D86      |        7558 |
|     169 | 0x1D87      |        7559 |
|     170 | 0x1D88      |        7560 |
|     171 | 0x1D89      |        7561 |
|     172 | 0x1D8A      |        7562 |
|     173 | 0x1D8B      |        7563 |
|     174 | 0x1D8C      |        7564 |
|     175 | 0x1D8D      |        7565 |
|     176 | 0x1D8E      |        7566 |
|     177 | 0x039E      |         926 |
|     178 | 0x1D8F      |        7567 |
|     179 | 0x1D90      |        7568 |
|     180 | 0x1D91      |        7569 |
|     181 | 0x1D92      |        7570 |
|     182 | 0x1D93      |        7571 |
|     183 | 0x1D94      |        7572 |
|     184 | 0x1D95      |        7573 |
|     185 | 0x1D96      |        7574 |
|     186 | 0x1D97      |        7575 |
|     187 | 0x0399      |         921 |
|     188 | 0x1D98      |        7576 |
|     189 | 0x1D99      |        7577 |
|     190 | 0x1D9A      |        7578 |
|     191 | 0x1D9B      |        7579 |
|     192 | 0x041D      |        1053 |
|     193 | 0x1D9C      |        7580 |
|     194 | 0x1D9D      |        7581 |
|     195 | 0x0430      |        1072 |
|     196 | 0x1D9E      |        7582 |
|     197 | 0x1D9F      |        7583 |
|     198 | 0x00D2      |         210 |
|     199 | 0x1DA0      |        7584 |
|     200 | 0x1DA1      |        7585 |
|     201 | 0x1DA2      |        7586 |
|     202 | 0x0433      |        1075 |
|     203 | 0x1DA3      |        7587 |
|     204 | 0x0915      |        2325 |
|     205 | 0x1DA4      |        7588 |
|     206 | 0x1DA5      |        7589 |
|     207 | 0x1DA6      |        7590 |
|     208 | 0x1DA7      |        7591 |
|     209 | 0x1DA8      |        7592 |
|     210 | 0x1DA9      |        7593 |
|     211 | 0x1DAA      |        7594 |
|     212 | 0x026C      |         620 |
|     213 | 0x0154      |         340 |
|     214 | 0x1DAB      |        7595 |
|     215 | 0x1DAC      |        7596 |
|     216 | 0x1DAD      |        7597 |
|     217 | 0x010E      |         270 |
|     218 | 0x1DAE      |        7598 |
|     219 | 0x1DAF      |        7599 |
|     220 | 0x1DB0      |        7600 |
|     221 | 0x0046      |          70 |
|     222 | 0xFFF8B290  |  4294488720 |
|     223 | 0x65AE2     |      416482 |
|     224 | 0xFFFFF060  |  4294963296 |
|     225 | 0x0927      |        2343 |
|     226 | 0xFFF87E20  |  4294475296 |
|     227 | 0x65518     |      415000 |
|     228 | 0xFFF8AC25  |  4294487077 |
|     229 | 0x6552C     |      415020 |
|     230 | 0xFFF89379  |  4294480761 |
|     231 | 0xFFF90AC0  |  4294511296 |
|     232 | 0xFFF8E798  |  4294502296 |
|     233 | 0xFFF8DBE0  |  4294499296 |
|     234 | 0xFFF8C6B1  |  4294493873 |
|     235 | 0x6B5A6     |      439718 |
|     236 | 0x0452      |        1106 |
|     237 | 0xFFF8BE66  |  4294491750 |
|     238 | 0x668E3     |      420067 |
|     239 | 0x0F63      |        3939 |
|     240 | 0x039C      |         924 |
|     241 | 0x0497      |        1175 |
|     242 | 0x047D      |        1149 |
|     243 | 0x006F      |         111 |
|     244 | 0x049C      |        1180 |
|     245 | 0x0366      |         870 |
|     246 | 0x0144      |         324 |
|     247 | 0x1DB1      |        7601 |
|     248 | 0x00F0      |         240 |
|     249 | 0x1DB2      |        7602 |
|     250 | 0x1DB3      |        7603 |
|     251 | 0x1DB4      |        7604 |
|     252 | 0x0082      |         130 |
|     253 | 0x1DB5      |        7605 |
|     254 | 0x1DB6      |        7606 |
|     255 | 0x00B3      |         179 |
|     256 | 0x1DB7      |        7607 |
|     257 | 0x1DB8      |        7608 |
|     258 | 0x1DB9      |        7609 |
|     259 | 0xFFF8B07D  |  4294488189 |
|     260 | 0x65B16     |      416534 |
|     261 | 0x0BFF      |        3071 |
|     262 | 0x1DBA      |        7610 |
|     263 | 0x1DBB      |        7611 |
|     264 | 0x1DBC      |        7612 |
|     265 | 0x039D      |         925 |
|     266 | 0x0050      |          80 |
|     267 | 0x1DBD      |        7613 |
|     268 | 0x1DBE      |        7614 |
|     269 | 0x04C5      |        1221 |
|     270 | 0x0064      |         100 |
|     271 | 0x1DBF      |        7615 |
|     272 | 0x04CB      |        1227 |
|     273 | 0x1DC0      |        7616 |
|     274 | 0x0074      |         116 |
|     275 | 0x1DC1      |        7617 |
|     276 | 0x02BC      |         700 |
|     277 | 0x1DC2      |        7618 |
|     278 | 0x0426      |        1062 |
|     279 | 0xFFF8E3B0  |  4294501296 |
|     280 | 0x1DC3      |        7619 |
|     281 | 0x007A      |         122 |
|     282 | 0x007D      |         125 |
|     283 | 0x00BB      |         187 |
|     284 | 0x0320      |         800 |
|     285 | 0x1DC4      |        7620 |
|     286 | 0x1DC5      |        7621 |
|     287 | 0xFFF8AEBD  |  4294487741 |
|     288 | 0x633A6     |      406438 |
|     289 | 0x0CB7      |        3255 |
|     290 | 0x0427      |        1063 |
|     291 | 0x047E      |        1150 |
|     292 | 0x0408      |        1032 |
|     293 | 0x021C      |         540 |
|     294 | 0x1DC6      |        7622 |
|     295 | 0x014A      |         330 |
|     296 | 0x1DC7      |        7623 |
|     297 | 0x1E03      |        7683 |
|     298 | 0x1DC8      |        7624 |
|     299 | 0x1DC9      |        7625 |
|     300 | 0x1DCA      |        7626 |
|     301 | 0x03E5      |         997 |
|     302 | 0x0095      |         149 |
|     303 | 0x0080      |         128 |
|     304 | 0x0085      |         133 |
|     305 | 0x0089      |         137 |
|     306 | 0x0483      |        1155 |
|     307 | 0x0484      |        1156 |
|     308 | 0x1DCB      |        7627 |
|     309 | 0x1DCC      |        7628 |
|     310 | 0x1DCD      |        7629 |
|     311 | 0x1DCE      |        7630 |
|     312 | 0x0487      |        1159 |
|     313 | 0x1DD1      |        7633 |
|     314 | 0x008D      |         141 |
|     315 | 0x008E      |         142 |
|     316 | 0x049D      |        1181 |
|     317 | 0x0090      |         144 |
|     318 | 0x1E04      |        7684 |
|     319 | 0x0087      |         135 |
|     320 | 0x0485      |        1157 |
|     321 | 0x030C      |         780 |
|     322 | 0x1DCF      |        7631 |
|     323 | 0x1DD0      |        7632 |
|     324 | 0x1E05      |        7685 |
|     325 | 0x049E      |        1182 |
|     326 | 0x007E      |         126 |
|     327 | 0x0294      |         660 |
|     328 | 0x1DD2      |        7634 |
|     329 | 0x1E06      |        7686 |
|     330 | 0x008A      |         138 |
|     331 | 0x1E07      |        7687 |
|     332 | 0x1DD3      |        7635 |
|     333 | 0x1DD4      |        7636 |
|     334 | 0x1DD5      |        7637 |
|     335 | 0x041E      |        1054 |
|     336 | 0x1E08      |        7688 |
|     337 | 0x006B      |         107 |
|     338 | 0x007C      |         124 |
|     339 | 0x1DD6      |        7638 |
|     340 | 0x1DD7      |        7639 |
|     341 | 0x1DD8      |        7640 |
|     342 | 0x1DD9      |        7641 |
|     343 | 0x1DDA      |        7642 |
|     344 | 0x1DDB      |        7643 |
|     345 | 0x1DDC      |        7644 |
|     346 | 0x0431      |        1073 |
|     347 | 0x1DDD      |        7645 |
|     348 | 0x1DDE      |        7646 |
|     349 | 0x1DDF      |        7647 |
|     350 | 0x1DE0      |        7648 |
|     351 | 0xFFF8A910  |  4294486288 |
|     352 | 0x6225C     |      402012 |
|     353 | 0x0CA0      |        3232 |
|     354 | 0x0351      |         849 |
|     355 | 0x03E7      |         999 |
|     356 | 0x0258      |         600 |
|     357 | 0x0486      |        1158 |
|     358 | 0x1DE1      |        7649 |
|     359 | 0x007F      |         127 |
|     360 | 0x0384      |         900 |
|     361 | 0x1DE2      |        7650 |
|     362 | 0x1DE3      |        7651 |
|     363 | 0x1DE4      |        7652 |
|     364 | 0x1DE5      |        7653 |
|     365 | 0x046A      |        1130 |
|     366 | 0x1DE6      |        7654 |
|     367 | 0xFFF8CCD0  |  4294495440 |
|     368 | 0x661BE     |      418238 |
|     369 | 0x044C      |        1100 |
|     370 | 0x1DE7      |        7655 |
|     371 | 0x1DE8      |        7656 |
|     372 | 0xFFF87FAF  |  4294475695 |
|     373 | 0x661A0     |      418208 |
|     374 | 0x0835      |        2101 |
|     375 | 0xFFF8A6B1  |  4294485681 |
|     376 | 0x64D9F     |      413087 |
|     377 | 0x0A5F      |        2655 |
|     378 | 0xFFF8A7DC  |  4294485980 |
|     379 | 0x65533     |      415027 |
|     380 | 0x06CB      |        1739 |
|     381 | 0xFFF84644  |  4294460996 |
|     382 | 0xFFFFEC78  |  4294962296 |
|     383 | 0x04A6      |        1190 |
|     384 | 0x04A7      |        1191 |
|     385 | 0x04A8      |        1192 |
|     386 | 0x04A9      |        1193 |
|     387 | 0x04C1      |        1217 |
|     388 | 0x047F      |        1151 |
|     389 | 0x0480      |        1152 |
|     390 | 0x04B9      |        1209 |
|     391 | 0x04BA      |        1210 |
|     392 | 0x0494      |        1172 |
|     393 | 0x1DE9      |        7657 |
|     394 | 0x1DEA      |        7658 |
|     395 | 0x1DEB      |        7659 |
|     396 | 0x1DEC      |        7660 |
|     397 | 0x1DED      |        7661 |
|     398 | 0x1DEE      |        7662 |
|     399 | 0x1DEF      |        7663 |
|     400 | 0x01CC      |         460 |
|     401 | 0x0084      |         132 |
|     402 | 0x0186      |         390 |
|     403 | 0x03AC      |         940 |
|     404 | 0x008C      |         140 |
|     405 | 0x1DF0      |        7664 |
|     406 | 0x1DF1      |        7665 |
|     407 | 0x1DF2      |        7666 |
|     408 | 0x1DF3      |        7667 |
|     409 | 0x1DF4      |        7668 |
|     410 | 0x1DF5      |        7669 |
|     411 | 0x1DF6      |        7670 |
|     412 | 0x1DF7      |        7671 |
|     413 | 0x1DF8      |        7672 |
|     414 | 0x1DF9      |        7673 |
|     415 | 0x0086      |         134 |
|     416 | 0x1DFA      |        7674 |
|     417 | 0x0244      |         580 |
|     418 | 0x1DFB      |        7675 |
|     419 | 0x1DFC      |        7676 |
|     420 | 0x0081      |         129 |
|     421 | 0x01C2      |         450 |
|     422 | 0x1DFD      |        7677 |
|     423 | 0x1DFE      |        7678 |
|     424 | 0x04C2      |        1218 |
|     425 | 0x1DFF      |        7679 |
|     426 | 0x1E00      |        7680 |
|     427 | 0x1E01      |        7681 |
|     428 | 0x04C4      |        1220 |
|     429 | 0x1E02      |        7682 |
|     430 | 0xFFF8B140  |  4294488384 |
|     431 | 0x668C2     |      420034 |
|     432 | 0xFFF87842  |  4294473794 |
|     433 | 0x61841     |      399425 |
|     434 | 0x0C00      |        3072 |
|     435 | 0xFFF8C796  |  4294494102 |
|     436 | 0x66F9D     |      421789 |
|     437 | 0x01E9      |         489 |
|     438 | 0x04A5      |        1189 |
|     439 | 0x049B      |        1179 |
|     440 | 0x0069      |         105 |
|     441 | 0x1E09      |        7689 |
|     442 | 0x1E0A      |        7690 |
|     443 | 0x1E0B      |        7691 |
|     444 | 0x1E0C      |        7692 |
|     445 | 0x1E0D      |        7693 |
|     446 | 0x1E0E      |        7694 |
|     447 | 0x1E0F      |        7695 |
|     448 | 0x1E10      |        7696 |
|     449 | 0x1E11      |        7697 |
|     450 | 0xFFF89E54  |  4294483540 |
|     451 | 0x6684D     |      419917 |
|     452 | 0x07FF      |        2047 |
|     453 | 0xFFF89078  |  4294479992 |
|     454 | 0x6686A     |      419946 |
|     455 | 0x0347      |         839 |
|     456 | 0x013F      |         319 |
|     457 | 0x1E66      |        7782 |
|     458 | 0x1E67      |        7783 |
|     459 | 0x1E68      |        7784 |
|     460 | 0x1E69      |        7785 |
|     461 | 0x1E6A      |        7786 |
|     462 | 0x1E6B      |        7787 |
|     463 | 0x00C9      |         201 |
|     464 | 0x00D7      |         215 |

## String References

- **7518**: Proceeding with the Aht Urhgan mission "Path of Darkness" will prevent you from entering Salaheem's Sentinels until the mission is complete.
- **7519**: You can now proceed with the Aht Urhgan mission "Nashmeira's Plea."
- **7520**: Do you wish to proceed with the mission?
- **7521**: Proceed with the mission? [Yes./No.]
- **7683**: @ @@ Once there was a meeting of two great masses. @
- **7684**: @ @@ One, an entity of "dark." @
- **7685**: @ @@ One, an entity of "light." @
- **7686**: @ @@ Their collision gave birth to a violent storm.
- **7687**: @ @@ The storm rose towards the heavens, and burst into a million fragments. @
- **7688**: @@

## Events

### Event 65535

#### Metadata

| Field        | Value   |
|--------------|---------|
| Entrypoint   | 0x0000  |
| Data Size    | 1 bytes |
| Instructions | 1       |

```
      00 01 02 03 04 05 06 07  08 09 0A 0B 0C 0D 0E 0F
      -- -- -- -- -- -- -- --  -- -- -- -- -- -- -- --
0000: 00                                                .               
```

#### Opcodes

```
  0: 0x0000 [0x00] END_REQSTACK()
```

### Event 6

#### Metadata

| Field        | Value      |
|--------------|------------|
| Entrypoint   | 0x0001     |
| Data Size    | 1743 bytes |
| Instructions | 228        |

```
      00 01 02 03 04 05 06 07  08 09 0A 0B 0C 0D 0E 0F
      -- -- -- -- -- -- -- --  -- -- -- -- -- -- -- --
0000:    42 03 00 00 09 10 02  00 00 00 80 00 34 00 48   B...........4.H
0010: 01 80 1C 02 80 48 03 80  23 24 04 80 05 80 00 80  .....H..#$......
0020: 25 02 00 10 05 80 00 34  00 03 01 10 06 80 01 CE  %......4........
0030: 06 01 34 00 1A D6 49 46  01 38 07 80 34 08 80 77  ..4...IF.8..4..w
0040: 09 80 05 80 1C 0A 80 AB  09 29 10 E7 80 04 01 07  .........)......
0050: 27 10 DC 80 04 01 02 27  10 DE 80 04 01 02 27 10  '......'......'.
0060: E3 80 04 01 02 27 10 E4  80 04 01 02 27 10 E5 80  .....'......'...
0070: 04 01 02 92 01 DC 80 04  01 92 01 DE 80 04 01 92  ................
0080: 01 E3 80 04 01 92 01 E4  80 04 01 92 01 E5 80 04  ................
0090: 01 94 01 F0 FF FF 7F 94  01 DC 80 04 01 94 01 DE  ................
00A0: 80 04 01 94 01 E3 80 04  01 94 01 E4 80 04 01 94  ................
00B0: 01 E5 80 04 01 BA F0 FF  FF 7F 0B 80 0C 80 00 80  ................
00C0: 0D 80 BA DC 80 04 01 0E  80 0F 80 00 80 10 80 BA  ................
00D0: DE 80 04 01 11 80 12 80  00 80 13 80 BA E3 80 04  ................
00E0: 01 14 80 15 80 00 80 16  80 BA E4 80 04 01 17 80  ................
00F0: 18 80 00 80 19 80 BA E5  80 04 01 1A 80 1B 80 00  ................
0100: 80 1C 80 80 F0 FF FF 7F  80 DC 80 04 01 80 DE 80  ................
0110: 04 01 80 E3 80 04 01 80  E4 80 04 01 80 E5 80 04  ................
0120: 01 BB 1D 80 DC 80 04 01  DC 80 04 01 00 FE FE FE  ................
0130: 00 80 66 07 80 DC 80 04  01 DC 80 04 01 61 6F 30  ..f..........ao0
0140: 6C 5C 00 1E 80 5C 01 1E  80 5C 02 1E 80 5C 03 1E  l\...\...\...\..
0150: 80 9A 1C 1F 80 27 10 F0  FF FF 7F 40 45 20 80 F0  .....'.....@E ..
0160: FF FF 7F F0 FF FF 7F 61  6D 30 30 00 80 1A B5 49  .......am00....I
0170: BB 1D 80 DC 80 04 01 DC  80 04 01 74 72 67 30 00  ...........trg0.
0180: 80 1C 21 80 27 10 CF 80  04 01 11 2A 10 F0 FF FF  ..!.'......*....
0190: 7F 52 20 80 F0 FF FF 7F  F0 FF FF 7F 61 6D 30 30  .R .........am00
01A0: 45 20 80 F0 FF FF 7F F0  FF FF 7F 61 6D 30 31 00  E .........am01.
01B0: 80 1C 22 80 2B CE 80 04  01 23 80 23 52 20 80 F0  ..".+....#.#R ..
01C0: FF FF 7F F0 FF FF 7F 61  6D 30 31 45 20 80 F0 FF  .......am01E ...
01D0: FF 7F F0 FF FF 7F 61 6D  30 32 00 80 2B DC 80 04  ......am02..+...
01E0: 01 24 80 23 2B DC 80 04  01 25 80 23 52 20 80 F0  .$.#+....%.#R ..
01F0: FF FF 7F F0 FF FF 7F 61  6D 30 32 45 20 80 F0 FF  .......am02E ...
0200: FF 7F F0 FF FF 7F 61 6D  30 33 00 80 66 07 80 DC  ......am03..f...
0210: 80 04 01 DC 80 04 01 61  6F 30 31 1C 0A 80 2B DC  .......ao01...+.
0220: 80 04 01 26 80 23 6E DC  80 04 01 00 80 99 DC 80  ...&.#n.........
0230: 04 01 99 DC 80 04 01 27  10 CF 80 04 01 10 1C 27  .......'.......'
0240: 80 52 20 80 F0 FF FF 7F  F0 FF FF 7F 61 6D 30 33  .R .........am03
0250: 45 20 80 F0 FF FF 7F F0  FF FF 7F 61 6D 30 34 00  E .........am04.
0260: 80 2A 10 CF 80 04 01 27  10 E4 80 04 01 09 27 10  .*.....'......'.
0270: E3 80 04 01 09 27 10 E5  80 04 01 09 52 20 80 F0  .....'......R ..
0280: FF FF 7F F0 FF FF 7F 61  6D 30 34 45 20 80 F0 FF  .......am04E ...
0290: FF 7F F0 FF FF 7F 61 6D  30 36 00 80 5D 00 80 02  ......am06..]...
02A0: 80 2B DC 80 04 01 28 80  1C 21 80 1A 29 4B 45 20  .+....(..!..)KE 
02B0: 80 F0 FF FF 7F F0 FF FF  7F 61 6D 62 6B 00 80 1C  .........ambk...
02C0: 21 80 2A 10 E4 80 04 01  2A 10 E3 80 04 01 2A 10  !.*.....*.....*.
02D0: E5 80 04 01 1C 1F 80 7C  00 DE 80 04 01 81 00 DE  .......|........
02E0: 80 04 01 27 10 CE 80 04  01 0D 2C E5 80 04 01 E5  ...'......,.....
02F0: 80 04 01 64 65 61 64 52  20 80 F0 FF FF 7F F0 FF  ...deadR .......
0300: FF 7F 61 6D 30 36 45 20  80 F0 FF FF 7F F0 FF FF  ..am06E ........
0310: 7F 61 6D 30 37 00 80 1A  F7 49 2C E4 80 04 01 E4  .am07....I,.....
0320: 80 04 01 64 65 61 64 1C  0A 80 79 00 F0 FF FF 7F  ...dead...y.....
0330: DE 80 04 01 2C E3 80 04  01 E3 80 04 01 64 65 61  ....,........dea
0340: 64 1C 29 80 27 10 F0 FF  FF 7F 48 1C 0A 80 52 20  d.).'.....H...R 
0350: 80 F0 FF FF 7F F0 FF FF  7F 61 6D 30 37 45 20 80  .........am07E .
0360: F0 FF FF 7F F0 FF FF 7F  61 6D 30 35 00 80 7C 00  ........am05..|.
0370: DC 80 04 01 2B DC 80 04  01 2A 80 7C 01 DC 80 04  ....+....*.|....
0380: 01 79 00 DC 80 04 01 DE  80 04 01 1C 21 80 5B 2B  .y..........!.[+
0390: 80 DE 80 04 01 DE 80 04  01 77 69 6E 30 52 20 80  .........win0R .
03A0: F0 FF FF 7F F0 FF FF 7F  61 6D 30 35 45 20 80 F0  ........am05E ..
03B0: FF FF 7F F0 FF FF 7F 61  6D 30 38 00 80 1C 29 80  .......am08...).
03C0: 4A F0 FF FF 7F DE 80 04  01 52 20 80 F0 FF FF 7F  J........R .....
03D0: F0 FF FF 7F 61 6D 30 38  45 20 80 F0 FF FF 7F F0  ....am08E ......
03E0: FF FF 7F 61 6D 30 39 00  80 1C 21 80 2B DE 80 04  ...am09...!.+...
03F0: 01 2C 80 23 7C 01 DE 80  04 01 52 20 80 F0 FF FF  .,.#|.....R ....
0400: 7F F0 FF FF 7F 61 6D 30  39 45 20 80 F0 FF FF 7F  .....am09E .....
0410: F0 FF FF 7F 61 6D 31 30  00 80 4A DC 80 04 01 DE  ....am10..J.....
0420: 80 04 01 5B 2B 80 DE 80  04 01 DE 80 04 01 77 69  ...[+.........wi
0430: 6E 31 1C 21 80 03 02 10  2D 80 03 03 10 2E 80 2B  n1.!....-......+
0440: DE 80 04 01 2F 80 23 52  20 80 F0 FF FF 7F F0 FF  ..../.#R .......
0450: FF 7F 61 6D 31 30 45 20  80 F0 FF FF 7F F0 FF FF  ..am10E ........
0460: 7F 61 6D 31 31 00 80 03  02 10 2D 80 03 03 10 30  .am11.....-....0
0470: 80 AE 03 DE 80 04 01 05  80 2B DE 80 04 01 31 80  .........+....1.
0480: 23 AE 04 DE 80 04 01 00  00 5C 00 32 80 5C 01 32  #........\.2.\.2
0490: 80 9A 52 20 80 F0 FF FF  7F F0 FF FF 7F 61 6D 31  ..R .........am1
04A0: 31 45 20 80 F0 FF FF 7F  F0 FF FF 7F 61 6D 31 32  1E .........am12
04B0: 00 80 6B 69 64 6C 30 DE  80 04 01 2B DC 80 04 01  ..kidl0....+....
04C0: 33 80 23 27 10 DE 80 04  01 0A 7C 01 DE 80 04 01  3.#'......|.....
04D0: 81 01 DE 80 04 01 1C 0A  80 52 20 80 F0 FF FF 7F  .........R .....
04E0: F0 FF FF 7F 61 6D 31 32  45 20 80 F0 FF FF 7F F0  ....am12E ......
04F0: FF FF 7F 61 6D 31 33 00  80 2B DE 80 04 01 34 80  ...am13..+....4.
0500: 23 2A 10 DE 80 04 01 52  20 80 F0 FF FF 7F F0 FF  #*.....R .......
0510: FF 7F 61 6D 31 33 45 20  80 F0 FF FF 7F F0 FF FF  ..am13E ........
0520: 7F 61 6D 31 34 00 80 2B  DE 80 04 01 35 80 23 6E  .am14..+....5.#n
0530: DC 80 04 01 36 80 99 DC  80 04 01 99 DC 80 04 01  ....6...........
0540: 2B DC 80 04 01 37 80 23  52 20 80 F0 FF FF 7F F0  +....7.#R ......
0550: FF FF 7F 61 6D 31 34 45  20 80 F0 FF FF 7F F0 FF  ...am14E .......
0560: FF 7F 61 6D 31 35 00 80  5B 38 80 DE 80 04 01 DE  ..am15..[8......
0570: 80 04 01 74 6C 64 30 1C  21 80 2B DE 80 04 01 39  ...tld0.!.+....9
0580: 80 23 5B 38 80 DE 80 04  01 DE 80 04 01 74 6C 64  .#[8.........tld
0590: 31 1C 0A 80 2B DC 80 04  01 3A 80 23 52 20 80 F0  1...+....:.#R ..
05A0: FF FF 7F F0 FF FF 7F 61  6D 31 35 45 20 80 F0 FF  .......am15E ...
05B0: FF 7F F0 FF FF 7F 61 6D  31 36 00 80 AE 03 DE 80  ......am16......
05C0: 04 01 05 80 2B DE 80 04  01 3B 80 23 AE 04 DE 80  ....+....;.#....
05D0: 04 01 00 00 52 20 80 F0  FF FF 7F F0 FF FF 7F 61  ....R .........a
05E0: 6D 31 36 45 20 80 F0 FF  FF 7F F0 FF FF 7F 61 6D  m16E .........am
05F0: 31 38 00 80 5B 3C 80 DE  80 04 01 DE 80 04 01 62  18..[<.........b
0600: 74 6F 6E 1C 1F 80 2B DE  80 04 01 3D 80 1C 0A 80  ton...+....=....
0610: 4A F0 FF FF 7F DC 80 04  01 52 20 80 F0 FF FF 7F  J........R .....
0620: F0 FF FF 7F 61 6D 31 38  45 20 80 F0 FF FF 7F F0  ....am18E ......
0630: FF FF 7F 61 6D 31 37 00  80 5B 3E 80 DC 80 04 01  ...am17..[>.....
0640: DC 80 04 01 62 74 6F 6E  1C 22 80 1A 29 4B 1C 22  ....bton."..)K."
0650: 80 1A D6 49 1A F7 49 1C  0A 80 52 20 80 F0 FF FF  ...I..I...R ....
0660: 7F F0 FF FF 7F 61 6D 31  37 45 20 80 F0 FF FF 7F  .....am17E .....
0670: F0 FF FF 7F 30 62 6C 66  00 80 35 3F 80 78 1C 05  ....0blf..5?.x..
0680: 80 AB 0A 2D F0 FF FF 7F  F0 FF FF 7F 31 70 61 31  ...-........1pa1
0690: 2D F0 FF FF 7F F0 FF FF  7F 31 70 62 31 2D F0 FF  -........1pb1-..
06A0: FF 7F F0 FF FF 7F 32 70  62 31 5C 00 00 80 5C 01  ......2pb1\...\.
06B0: 00 80 5C 02 40 80 5C 03  41 80 9A 46 00 45 42 80  ..\.@.\.A..F.EB.
06C0: F0 FF FF 7F F0 FF FF 7F  66 64 69 32 00 80 21 00  ........fdi2..!.
```

#### Opcodes

```
  0: 0x0001 [0x42] SET_CLI_EVENT_CANCEL_DATA()
  1: 0x0002 [0x03] ExtData[1]->WorkLocal[0] = Work_Zone[9]
  2: 0x0007 [0x02] IF !(ExtData[1]->WorkLocal[0] == 0*) GOTO 0x0034
  3: 0x000F [0x48] [System] [7518*]:
    → "Proceeding with the Aht Urhgan mission "Path of Darkness" will prevent you from entering Salaheem's Sentinels until the mission is complete."
  4: 0x0012 [0x1C] WAIT(120* ticks)
  5: 0x0015 [0x48] [System] [7520*]:
    → "Do you wish to proceed with the mission?"
  6: 0x0018 [0x23] WAIT_FOR_DIALOG_INTERACTION
  7: 0x0019 [0x24] CREATE_DIALOG(message_id=7521*, default_option=1*, option_flags=0*)
    → "Proceed with the mission? [Yes./No.]"
  8: 0x0020 [0x25] WAIT_DIALOG_SELECT()
  9: 0x0021 [0x02] IF !(Work_Zone[0] == 1*) GOTO 0x0034
 10: 0x0029 [0x03] Work_Zone[1] = 99*
 11: 0x002E [0x01] GOTO 0x06CE

SUBROUTINE_0034:
 12: 0x0034 [0x1A] CALL_SUBROUTINE(address=0x49D6)
 13: 0x0037 [0x46] CAMERA_CONTROL: Disable user control
 14: 0x0039 [0x38] SET_CLIENT_EVENT_MODE(mode=19*)
 15: 0x003C [0x34] LOAD_UNLOAD_ZONE(zone_id=77*)
 16: 0x003F [0x77] SET_EVENT_TIME_WEATHER(hour=255*, weather=1*)
 17: 0x0044 [0x1C] WAIT(30* ticks)
 18: 0x0047 [0xAB] EventEntity->UnknownFlag = 1 // Enable unknown flag
 19: 0x0049 [0x29] REQ_SET_WAIT(priority=0x10, entity_id=Unnamed NPC (ID: 17072359/0x010480E7), tag_num=0x07)
 20: 0x0050 [0x27] REQ_SET(priority=0x10, entity_id=Amnaf (ID: 17072348/0x010480DC), tag_num=0x02)
 21: 0x0057 [0x27] REQ_SET(priority=0x10, entity_id=Naja Salaheem (ID: 17072350/0x010480DE), tag_num=0x02)
 22: 0x005E [0x27] REQ_SET(priority=0x10, entity_id=Unnamed NPC (ID: 17072355/0x010480E3), tag_num=0x02)
 23: 0x0065 [0x27] REQ_SET(priority=0x10, entity_id=Unnamed NPC (ID: 17072356/0x010480E4), tag_num=0x02)
 24: 0x006C [0x27] REQ_SET(priority=0x10, entity_id=Unnamed NPC (ID: 17072357/0x010480E5), tag_num=0x02)
 25: 0x0073 [0x92] Amnaf (ID: 17072348/0x010480DC)->Render.Flags3 ^= 0x01
 26: 0x0079 [0x92] Naja Salaheem (ID: 17072350/0x010480DE)->Render.Flags3 ^= 0x01
 27: 0x007F [0x92] Unnamed NPC (ID: 17072355/0x010480E3)->Render.Flags3 ^= 0x01
 28: 0x0085 [0x92] Unnamed NPC (ID: 17072356/0x010480E4)->Render.Flags3 ^= 0x01
 29: 0x008B [0x92] Unnamed NPC (ID: 17072357/0x010480E5)->Render.Flags3 ^= 0x01
 30: 0x0091 [0x94] LocalPlayer->Render.Flags3 ^= 0x01
 31: 0x0097 [0x94] Amnaf (ID: 17072348/0x010480DC)->Render.Flags3 ^= 0x01
 32: 0x009D [0x94] Naja Salaheem (ID: 17072350/0x010480DE)->Render.Flags3 ^= 0x01
 33: 0x00A3 [0x94] Unnamed NPC (ID: 17072355/0x010480E3)->Render.Flags3 ^= 0x01
 34: 0x00A9 [0x94] Unnamed NPC (ID: 17072356/0x010480E4)->Render.Flags3 ^= 0x01
 35: 0x00AF [0x94] Unnamed NPC (ID: 17072357/0x010480E5)->Render.Flags3 ^= 0x01
 36: 0x00B5 [0xBA] SET_ENTITY_POSITION(entity_id=LocalPlayer, pos_x=500.012*, pos_z=-555.899*, pos_y=0.000*, direction=269.6°*)
 37: 0x00C2 [0xBA] SET_ENTITY_POSITION(entity_id=Amnaf (ID: 17072348/0x010480DC), pos_x=499.976*, pos_z=-542.550*, pos_y=0.000*, direction=90.0°*)
 38: 0x00CF [0xBA] SET_ENTITY_POSITION(entity_id=Naja Salaheem (ID: 17072350/0x010480DE), pos_x=503.827*, pos_z=-550.503*, pos_y=0.000*, direction=327.2°*)
 39: 0x00DC [0xBA] SET_ENTITY_POSITION(entity_id=Unnamed NPC (ID: 17072355/0x010480E3), pos_x=499.959*, pos_z=-553.940*, pos_y=0.000*, direction=270.3°*)
 40: 0x00E9 [0xBA] SET_ENTITY_POSITION(entity_id=Unnamed NPC (ID: 17072356/0x010480E4), pos_x=495.379*, pos_z=-553.599*, pos_y=0.000*, direction=314.6°*)
 41: 0x00F6 [0xBA] SET_ENTITY_POSITION(entity_id=Unnamed NPC (ID: 17072357/0x010480E5), pos_x=504.602*, pos_z=-553.507*, pos_y=0.000*, direction=226.1°*)
 42: 0x0103 [0x80] LOAD_WAIT(entity=LocalPlayer)
 43: 0x0108 [0x80] LOAD_WAIT(entity=Amnaf (ID: 17072348/0x010480DC))
 44: 0x010D [0x80] LOAD_WAIT(entity=Naja Salaheem (ID: 17072350/0x010480DE))
 45: 0x0112 [0x80] LOAD_WAIT(entity=Unnamed NPC (ID: 17072355/0x010480E3))
 46: 0x0117 [0x80] LOAD_WAIT(entity=Unnamed NPC (ID: 17072356/0x010480E4))
 47: 0x011C [0x80] LOAD_WAIT(entity=Unnamed NPC (ID: 17072357/0x010480E5))
 48: 0x0121 [0xBB] LOAD_EVENT_SCHEDULER_ALT: Load scheduler 0xFEFEFE00 with entities [Amnaf (ID: 17072348/0x010480DC), Amnaf (ID: 17072348/0x010480DC)], work=[10*, 0*]
 49: 0x0132 [0x66] LOAD_EXT_SCHEDULER_MAIN: Load scheduler "ao0l" with entities [Amnaf (ID: 17072348/0x010480DC), Amnaf (ID: 17072348/0x010480DC)], work=19*
 50: 0x0141 [0x5C] MUSIC_CONTROL: Set Idle (Day) music to song 148*
 51: 0x0145 [0x5C] MUSIC_CONTROL: Set Idle (Night) music to song 148*
 52: 0x0149 [0x5C] MUSIC_CONTROL: Set Combat (Solo) music to song 148*
 53: 0x014D [0x5C] MUSIC_CONTROL: Set Combat (Party) music to song 148*
 54: 0x0151 [0x9A] WAIT_MUSIC_SERVER()
 55: 0x0152 [0x1C] WAIT(15* ticks)
 56: 0x0155 [0x27] REQ_SET(priority=0x10, entity_id=LocalPlayer, tag_num=0x40)
 57: 0x015C [0x45] LOAD_SCHEDULED_TASK: Load scheduler "am00" with entities [LocalPlayer, LocalPlayer], work=[321*, 0*]
 58: 0x016D [0x1A] CALL_SUBROUTINE(address=0x49B5)
 59: 0x0170 [0xBB] LOAD_EVENT_SCHEDULER_ALT: Load scheduler "trg0" with entities [Amnaf (ID: 17072348/0x010480DC), Amnaf (ID: 17072348/0x010480DC)], work=[10*, 0*]
 60: 0x0181 [0x1C] WAIT(45* ticks)
 61: 0x0184 [0x27] REQ_SET(priority=0x10, entity_id=Unnamed NPC (ID: 17072335/0x010480CF), tag_num=0x11)
 62: 0x018B [0x2A] GET_REQ_LEVEL(level=16, entity_id=LocalPlayer)
 63: 0x0191 [0x52] END_LOAD_SCHEDULER: End scheduler "am00" with entities [LocalPlayer, LocalPlayer], work=321*
 64: 0x01A0 [0x45] LOAD_SCHEDULED_TASK: Load scheduler "am01" with entities [LocalPlayer, LocalPlayer], work=[321*, 0*]
 65: 0x01B1 [0x1C] WAIT(60* ticks)
 66: 0x01B4 [0x2B] ??? (ID: 17072334/0x010480CE) [7501*]:
    → "Letting the San d'Orian spy live was the right move, it seems..."
 67: 0x01BB [0x23] WAIT_FOR_DIALOG_INTERACTION
 68: 0x01BC [0x52] END_LOAD_SCHEDULER: End scheduler "am01" with entities [LocalPlayer, LocalPlayer], work=321*
 69: 0x01CB [0x45] LOAD_SCHEDULED_TASK: Load scheduler "am02" with entities [LocalPlayer, LocalPlayer], work=[321*, 0*]
 70: 0x01DC [0x2B] Amnaf (ID: 17072348/0x010480DC) [7502*]:
    → "It has all unfolded just as the Grand Vizier predicted."
 71: 0x01E3 [0x23] WAIT_FOR_DIALOG_INTERACTION
 72: 0x01E4 [0x2B] Amnaf (ID: 17072348/0x010480DC) [7503*]:
    → "And so you have come..."
 73: 0x01EB [0x23] WAIT_FOR_DIALOG_INTERACTION
 74: 0x01EC [0x52] END_LOAD_SCHEDULER: End scheduler "am02" with entities [LocalPlayer, LocalPlayer], work=321*
 75: 0x01FB [0x45] LOAD_SCHEDULED_TASK: Load scheduler "am03" with entities [LocalPlayer, LocalPlayer], work=[321*, 0*]
 76: 0x020C [0x66] LOAD_EXT_SCHEDULER_MAIN: Load scheduler "ao01" with entities [Amnaf (ID: 17072348/0x010480DC), Amnaf (ID: 17072348/0x010480DC)], work=19*
 77: 0x021B [0x1C] WAIT(30* ticks)
 78: 0x021E [0x2B] Amnaf (ID: 17072348/0x010480DC) [7504*]:
    → "A pity. I always respected you, <Player>, but such are the twists of fate."
 79: 0x0225 [0x23] WAIT_FOR_DIALOG_INTERACTION
 80: 0x0226 [0x6E] Amnaf (ID: 17072348/0x010480DC) uses emote 0*
 81: 0x022D [0x99] Wait for Amnaf (ID: 17072348/0x010480DC) animation to complete
 82: 0x0232 [0x99] Wait for Amnaf (ID: 17072348/0x010480DC) animation to complete
 83: 0x0237 [0x27] REQ_SET(priority=0x10, entity_id=Unnamed NPC (ID: 17072335/0x010480CF), tag_num=0x10)
 84: 0x023E [0x1C] WAIT(20* ticks)
 85: 0x0241 [0x52] END_LOAD_SCHEDULER: End scheduler "am03" with entities [LocalPlayer, LocalPlayer], work=321*
 86: 0x0250 [0x45] LOAD_SCHEDULED_TASK: Load scheduler "am04" with entities [LocalPlayer, LocalPlayer], work=[321*, 0*]
 87: 0x0261 [0x2A] GET_REQ_LEVEL(level=16, entity_id=Unnamed NPC (ID: 17072335/0x010480CF))
 88: 0x0267 [0x27] REQ_SET(priority=0x10, entity_id=Unnamed NPC (ID: 17072356/0x010480E4), tag_num=0x09)
 89: 0x026E [0x27] REQ_SET(priority=0x10, entity_id=Unnamed NPC (ID: 17072355/0x010480E3), tag_num=0x09)
 90: 0x0275 [0x27] REQ_SET(priority=0x10, entity_id=Unnamed NPC (ID: 17072357/0x010480E5), tag_num=0x09)
 91: 0x027C [0x52] END_LOAD_SCHEDULER: End scheduler "am04" with entities [LocalPlayer, LocalPlayer], work=321*
 92: 0x028B [0x45] LOAD_SCHEDULED_TASK: Load scheduler "am06" with entities [LocalPlayer, LocalPlayer], work=[321*, 0*]
 93: 0x029C [0x5D] SET_MUSIC_VOLUME(volume=0*, fade_time=120*)
 94: 0x02A1 [0x2B] Amnaf (ID: 17072348/0x010480DC) [7505*]:
    → "The Grand Vizier has decreed that your time on this stage has come to an end."
 95: 0x02A8 [0x1C] WAIT(45* ticks)
 96: 0x02AB [0x1A] CALL_SUBROUTINE(address=0x4B29)
 97: 0x02AE [0x45] LOAD_SCHEDULED_TASK: Load scheduler "ambk" with entities [LocalPlayer, LocalPlayer], work=[321*, 0*]
 98: 0x02BF [0x1C] WAIT(45* ticks)
 99: 0x02C2 [0x2A] GET_REQ_LEVEL(level=16, entity_id=Unnamed NPC (ID: 17072356/0x010480E4))
100: 0x02C8 [0x2A] GET_REQ_LEVEL(level=16, entity_id=Unnamed NPC (ID: 17072355/0x010480E3))
101: 0x02CE [0x2A] GET_REQ_LEVEL(level=16, entity_id=Unnamed NPC (ID: 17072357/0x010480E5))
102: 0x02D4 [0x1C] WAIT(15* ticks)
103: 0x02D7 [0x7C] Naja Salaheem (ID: 17072350/0x010480DE)->Render.Flags2 |= 0x00
104: 0x02DD [0x81] SET_ENTITY_BLINKING(blink_flag=0x00, entity=Naja Salaheem (ID: 17072350/0x010480DE))
105: 0x02E3 [0x27] REQ_SET(priority=0x10, entity_id=??? (ID: 17072334/0x010480CE), tag_num=0x0D)
106: 0x02EA [0x2C] CREATE_SCHEDULER_TASK: Create scheduler "dead" with entities [Unnamed NPC (ID: 17072357/0x010480E5), Unnamed NPC (ID: 17072357/0x010480E5)]
107: 0x02F7 [0x52] END_LOAD_SCHEDULER: End scheduler "am06" with entities [LocalPlayer, LocalPlayer], work=321*
108: 0x0306 [0x45] LOAD_SCHEDULED_TASK: Load scheduler "am07" with entities [LocalPlayer, LocalPlayer], work=[321*, 0*]
109: 0x0317 [0x1A] CALL_SUBROUTINE(address=0x49F7)
110: 0x031A [0x2C] CREATE_SCHEDULER_TASK: Create scheduler "dead" with entities [Unnamed NPC (ID: 17072356/0x010480E4), Unnamed NPC (ID: 17072356/0x010480E4)]
111: 0x0327 [0x1C] WAIT(30* ticks)
112: 0x032A [0x79] LocalPlayer looks at Naja Salaheem (ID: 17072350/0x010480DE) (Basic look)
113: 0x0334 [0x2C] CREATE_SCHEDULER_TASK: Create scheduler "dead" with entities [Unnamed NPC (ID: 17072355/0x010480E3), Unnamed NPC (ID: 17072355/0x010480E3)]
114: 0x0341 [0x1C] WAIT(90* ticks)
115: 0x0344 [0x27] REQ_SET(priority=0x10, entity_id=LocalPlayer, tag_num=0x48)
116: 0x034B [0x1C] WAIT(30* ticks)
117: 0x034E [0x52] END_LOAD_SCHEDULER: End scheduler "am07" with entities [LocalPlayer, LocalPlayer], work=321*
118: 0x035D [0x45] LOAD_SCHEDULED_TASK: Load scheduler "am05" with entities [LocalPlayer, LocalPlayer], work=[321*, 0*]
119: 0x036E [0x7C] Amnaf (ID: 17072348/0x010480DC)->Render.Flags2 |= 0x00
120: 0x0374 [0x2B] Amnaf (ID: 17072348/0x010480DC) [7506*]:
    → "!?"
121: 0x037B [0x7C] Amnaf (ID: 17072348/0x010480DC)->Render.Flags2 |= 0x01
122: 0x0381 [0x79] Amnaf (ID: 17072348/0x010480DC) looks at Naja Salaheem (ID: 17072350/0x010480DE) (Basic look)
123: 0x038B [0x1C] WAIT(45* ticks)
124: 0x038E [0x5B] LOAD_EXT_SCHEDULER: Load scheduler "win0" with entities [Naja Salaheem (ID: 17072350/0x010480DE), Naja Salaheem (ID: 17072350/0x010480DE)], work=968*
125: 0x039D [0x52] END_LOAD_SCHEDULER: End scheduler "am05" with entities [LocalPlayer, LocalPlayer], work=321*
126: 0x03AC [0x45] LOAD_SCHEDULED_TASK: Load scheduler "am08" with entities [LocalPlayer, LocalPlayer], work=[321*, 0*]
127: 0x03BD [0x1C] WAIT(90* ticks)
128: 0x03C0 [0x4A] LocalPlayer looks at Naja Salaheem (ID: 17072350/0x010480DE)
129: 0x03C9 [0x52] END_LOAD_SCHEDULER: End scheduler "am08" with entities [LocalPlayer, LocalPlayer], work=321*
130: 0x03D8 [0x45] LOAD_SCHEDULED_TASK: Load scheduler "am09" with entities [LocalPlayer, LocalPlayer], work=[321*, 0*]
131: 0x03E9 [0x1C] WAIT(45* ticks)
132: 0x03EC [0x2B] Naja Salaheem (ID: 17072350/0x010480DE) [7507*]:
    → "Hehehe."
133: 0x03F3 [0x23] WAIT_FOR_DIALOG_INTERACTION
134: 0x03F4 [0x7C] Naja Salaheem (ID: 17072350/0x010480DE)->Render.Flags2 |= 0x01
135: 0x03FA [0x52] END_LOAD_SCHEDULER: End scheduler "am09" with entities [LocalPlayer, LocalPlayer], work=321*
136: 0x0409 [0x45] LOAD_SCHEDULED_TASK: Load scheduler "am10" with entities [LocalPlayer, LocalPlayer], work=[321*, 0*]
137: 0x041A [0x4A] Amnaf (ID: 17072348/0x010480DC) looks at Naja Salaheem (ID: 17072350/0x010480DE)
138: 0x0423 [0x5B] LOAD_EXT_SCHEDULER: Load scheduler "win1" with entities [Naja Salaheem (ID: 17072350/0x010480DE), Naja Salaheem (ID: 17072350/0x010480DE)], work=968*
139: 0x0432 [0x1C] WAIT(45* ticks)
140: 0x0435 [0x03] Work_Zone[2] = 2187*
141: 0x043A [0x03] Work_Zone[3] = 50*
142: 0x043F [0x2B] Naja Salaheem (ID: 17072350/0x010480DE) [7508*]:
    → "One, two, three...at $1 $0 per..."
143: 0x0446 [0x23] WAIT_FOR_DIALOG_INTERACTION
144: 0x0447 [0x52] END_LOAD_SCHEDULER: End scheduler "am10" with entities [LocalPlayer, LocalPlayer], work=321*
145: 0x0456 [0x45] LOAD_SCHEDULED_TASK: Load scheduler "am11" with entities [LocalPlayer, LocalPlayer], work=[321*, 0*]
146: 0x0467 [0x03] Work_Zone[2] = 2187*
147: 0x046C [0x03] Work_Zone[3] = 150*
148: 0x0471 [0xAE] MULTI_PURPOSE_ENTITY_HANDLER(case_type=0x03 - Mou4, entity=Naja Salaheem (ID: 17072350/0x010480DE), index=1*)
149: 0x0479 [0x2B] Naja Salaheem (ID: 17072350/0x010480DE) [7509*]:
    → "<Player>! This level of assistance just cost ya $1 $0 !"
150: 0x0480 [0x23] WAIT_FOR_DIALOG_INTERACTION
151: 0x0481 [0xAE] MULTI_PURPOSE_ENTITY_HANDLER(case_type=0x04 - Mou4, entity=Naja Salaheem (ID: 17072350/0x010480DE), index=ExtData[1]->WorkLocal[0])
152: 0x0489 [0x5C] MUSIC_CONTROL: Set Idle (Day) music to song 143*
153: 0x048D [0x5C] MUSIC_CONTROL: Set Idle (Night) music to song 143*
154: 0x0491 [0x9A] WAIT_MUSIC_SERVER()
155: 0x0492 [0x52] END_LOAD_SCHEDULER: End scheduler "am11" with entities [LocalPlayer, LocalPlayer], work=321*
156: 0x04A1 [0x45] LOAD_SCHEDULED_TASK: Load scheduler "am12" with entities [LocalPlayer, LocalPlayer], work=[321*, 0*]
157: 0x04B2 [0x6B] STOP_AND_IDLE: Naja Salaheem (ID: 17072350/0x010480DE) stops current action and resets to idle (animation="idl0")
158: 0x04BB [0x2B] Amnaf (ID: 17072348/0x010480DC) [7510*]:
    → "Naja! What is the meaning of this?"
159: 0x04C2 [0x23] WAIT_FOR_DIALOG_INTERACTION
160: 0x04C3 [0x27] REQ_SET(priority=0x10, entity_id=Naja Salaheem (ID: 17072350/0x010480DE), tag_num=0x0A)
161: 0x04CA [0x7C] Naja Salaheem (ID: 17072350/0x010480DE)->Render.Flags2 |= 0x01
162: 0x04D0 [0x81] SET_ENTITY_BLINKING(blink_flag=0x01, entity=Naja Salaheem (ID: 17072350/0x010480DE))
163: 0x04D6 [0x1C] WAIT(30* ticks)
164: 0x04D9 [0x52] END_LOAD_SCHEDULER: End scheduler "am12" with entities [LocalPlayer, LocalPlayer], work=321*
165: 0x04E8 [0x45] LOAD_SCHEDULED_TASK: Load scheduler "am13" with entities [LocalPlayer, LocalPlayer], work=[321*, 0*]
166: 0x04F9 [0x2B] Naja Salaheem (ID: 17072350/0x010480DE) [7511*]:
    → "That's what I'd like to know!"
167: 0x0500 [0x23] WAIT_FOR_DIALOG_INTERACTION
168: 0x0501 [0x2A] GET_REQ_LEVEL(level=16, entity_id=Naja Salaheem (ID: 17072350/0x010480DE))
169: 0x0507 [0x52] END_LOAD_SCHEDULER: End scheduler "am13" with entities [LocalPlayer, LocalPlayer], work=321*
170: 0x0516 [0x45] LOAD_SCHEDULED_TASK: Load scheduler "am14" with entities [LocalPlayer, LocalPlayer], work=[321*, 0*]
171: 0x0527 [0x2B] Naja Salaheem (ID: 17072350/0x010480DE) [7512*]:
    → "This employee still has a pile of tuition fees to pay. If I let [him/her] come to a messy end here, I'm losin' out on a lot of cash!"
172: 0x052E [0x23] WAIT_FOR_DIALOG_INTERACTION
173: 0x052F [0x6E] Amnaf (ID: 17072348/0x010480DC) uses emote 32*
174: 0x0536 [0x99] Wait for Amnaf (ID: 17072348/0x010480DC) animation to complete
175: 0x053B [0x99] Wait for Amnaf (ID: 17072348/0x010480DC) animation to complete
176: 0x0540 [0x2B] Amnaf (ID: 17072348/0x010480DC) [7513*]:
    → "You worry for a few measly coins? If you stand against me, your entire company is at stake."
177: 0x0547 [0x23] WAIT_FOR_DIALOG_INTERACTION
178: 0x0548 [0x52] END_LOAD_SCHEDULER: End scheduler "am14" with entities [LocalPlayer, LocalPlayer], work=321*
179: 0x0557 [0x45] LOAD_SCHEDULED_TASK: Load scheduler "am15" with entities [LocalPlayer, LocalPlayer], work=[321*, 0*]
180: 0x0568 [0x5B] LOAD_EXT_SCHEDULER: Load scheduler "tld0" with entities [Naja Salaheem (ID: 17072350/0x010480DE), Naja Salaheem (ID: 17072350/0x010480DE)], work=854*
181: 0x0577 [0x1C] WAIT(45* ticks)
182: 0x057A [0x2B] Naja Salaheem (ID: 17072350/0x010480DE) [7514*]:
    → "Ooh, I'm shakin' in my booties. Need I rrremind ya that my company has the personal backing of the Emprrress?"
183: 0x0581 [0x23] WAIT_FOR_DIALOG_INTERACTION
184: 0x0582 [0x5B] LOAD_EXT_SCHEDULER: Load scheduler "tld1" with entities [Naja Salaheem (ID: 17072350/0x010480DE), Naja Salaheem (ID: 17072350/0x010480DE)], work=854*
185: 0x0591 [0x1C] WAIT(30* ticks)
186: 0x0594 [0x2B] Amnaf (ID: 17072348/0x010480DC) [7515*]:
    → "Times have changed, foolish Mithra..."
187: 0x059B [0x23] WAIT_FOR_DIALOG_INTERACTION
188: 0x059C [0x52] END_LOAD_SCHEDULER: End scheduler "am15" with entities [LocalPlayer, LocalPlayer], work=321*
189: 0x05AB [0x45] LOAD_SCHEDULED_TASK: Load scheduler "am16" with entities [LocalPlayer, LocalPlayer], work=[321*, 0*]
190: 0x05BC [0xAE] MULTI_PURPOSE_ENTITY_HANDLER(case_type=0x03 - Mou4, entity=Naja Salaheem (ID: 17072350/0x010480DE), index=1*)
191: 0x05C4 [0x2B] Naja Salaheem (ID: 17072350/0x010480DE) [7516*]:
    → "My help is expensive, <Player>. Better take care of this quickly if ya don't wanna spend the rrrest of your life payin' it off!"
192: 0x05CB [0x23] WAIT_FOR_DIALOG_INTERACTION
193: 0x05CC [0xAE] MULTI_PURPOSE_ENTITY_HANDLER(case_type=0x04 - Mou4, entity=Naja Salaheem (ID: 17072350/0x010480DE), index=ExtData[1]->WorkLocal[0])
194: 0x05D4 [0x52] END_LOAD_SCHEDULER: End scheduler "am16" with entities [LocalPlayer, LocalPlayer], work=321*
195: 0x05E3 [0x45] LOAD_SCHEDULED_TASK: Load scheduler "am18" with entities [LocalPlayer, LocalPlayer], work=[321*, 0*]
196: 0x05F4 [0x5B] LOAD_EXT_SCHEDULER: Load scheduler "bton" with entities [Naja Salaheem (ID: 17072350/0x010480DE), Naja Salaheem (ID: 17072350/0x010480DE)], work=1161*
197: 0x0603 [0x1C] WAIT(15* ticks)
198: 0x0606 [0x2B] Naja Salaheem (ID: 17072350/0x010480DE) [7517*]:
    → "For the Sentinels!!!"
199: 0x060D [0x1C] WAIT(30* ticks)
200: 0x0610 [0x4A] LocalPlayer looks at Amnaf (ID: 17072348/0x010480DC)
201: 0x0619 [0x52] END_LOAD_SCHEDULER: End scheduler "am18" with entities [LocalPlayer, LocalPlayer], work=321*
202: 0x0628 [0x45] LOAD_SCHEDULED_TASK: Load scheduler "am17" with entities [LocalPlayer, LocalPlayer], work=[321*, 0*]
203: 0x0639 [0x5B] LOAD_EXT_SCHEDULER: Load scheduler "bton" with entities [Amnaf (ID: 17072348/0x010480DC), Amnaf (ID: 17072348/0x010480DC)], work=1123*
204: 0x0648 [0x1C] WAIT(60* ticks)
205: 0x064B [0x1A] CALL_SUBROUTINE(address=0x4B29)
206: 0x064E [0x1C] WAIT(60* ticks)
207: 0x0651 [0x1A] CALL_SUBROUTINE(address=0x49D6)
208: 0x0654 [0x1A] CALL_SUBROUTINE(address=0x49F7)
209: 0x0657 [0x1C] WAIT(30* ticks)
210: 0x065A [0x52] END_LOAD_SCHEDULER: End scheduler "am17" with entities [LocalPlayer, LocalPlayer], work=321*
211: 0x0669 [0x45] LOAD_SCHEDULED_TASK: Load scheduler "0blf" with entities [LocalPlayer, LocalPlayer], work=[321*, 0*]
212: 0x067A [0x35] LOAD_ZONE_NO_CLOSE(zone_id=72*)
213: 0x067D [0x78] ENABLE_GAME_TIMER_RESET_WEATHER()
214: 0x067E [0x1C] WAIT(1* ticks)
215: 0x0681 [0xAB] EventEntity->UnknownFlag = 0 // Disable unknown flag
216: 0x0683 [0x2D] CREATE_ZONE_SCHEDULER_TASK: Create scheduler "1pa1" with entities [LocalPlayer, LocalPlayer]
217: 0x0690 [0x2D] CREATE_ZONE_SCHEDULER_TASK: Create scheduler "1pb1" with entities [LocalPlayer, LocalPlayer]
218: 0x069D [0x2D] CREATE_ZONE_SCHEDULER_TASK: Create scheduler "2pb1" with entities [LocalPlayer, LocalPlayer]
219: 0x06AA [0x5C] MUSIC_CONTROL: Set Idle (Day) music to song 0*
220: 0x06AE [0x5C] MUSIC_CONTROL: Set Idle (Night) music to song 0*
221: 0x06B2 [0x5C] MUSIC_CONTROL: Set Combat (Solo) music to song 115*
222: 0x06B6 [0x5C] MUSIC_CONTROL: Set Combat (Party) music to song 139*
223: 0x06BA [0x9A] WAIT_MUSIC_SERVER()
224: 0x06BB [0x46] CAMERA_CONTROL: Restore default settings
225: 0x06BD [0x45] LOAD_SCHEDULED_TASK: Load scheduler "fdi2" with entities [LocalPlayer, LocalPlayer], work=[200*, 0*]

SUBROUTINE_06CE:
226: 0x06CE [0x21] END_EVENT
227: 0x06CF [0x00] END_REQSTACK()
```

#### Data or dead code:

```
# Dead code (unreachable instructions):
     0x0031 [0x01] GOTO 0x0034
```

### Event 7

#### Metadata

| Field        | Value      |
|--------------|------------|
| Entrypoint   | 0x06D0     |
| Data Size    | 2054 bytes |
| Instructions | 233        |

```
      00 01 02 03 04 05 06 07  08 09 0A 0B 0C 0D 0E 0F
      -- -- -- -- -- -- -- --  -- -- -- -- -- -- -- --
06D0: 42 1A D6 49 46 01 38 07  80 4E 00 F0 FF FF 7F 03  B..IF.8..N......
06E0: 00 00 09 10 02 00 00 05  80 01 F5 06 03 01 10 05  ................
06F0: 80 43 00 43 01 03 01 00  08 10 34 08 80 77 09 80  .C.C......4..w..
0700: 05 80 1C 0A 80 AB 09 29  10 E7 80 04 01 07 27 10  .......)......'.
0710: DD 80 04 01 04 27 10 DE  80 04 01 04 27 10 DB 80  .....'......'...
0720: 04 01 02 4E 00 CF 80 04  01 92 01 DD 80 04 01 92  ...N............
0730: 01 DE 80 04 01 92 01 DB  80 04 01 94 01 F0 FF FF  ................
0740: 7F 94 01 DD 80 04 01 94  01 DE 80 04 01 94 01 DB  ................
0750: 80 04 01 BA F0 FF FF 7F  43 80 44 80 00 80 45 80  ........C.D...E.
0760: BA DD 80 04 01 46 80 47  80 2E 80 10 80 BA DE 80  .....F.G........
0770: 04 01 48 80 49 80 00 80  4A 80 BA DB 80 04 01 46  ..H.I...J......F
0780: 80 4B 80 2E 80 10 80 BA  CF 80 04 01 4C 80 4D 80  .K..........L.M.
0790: 2E 80 4E 80 80 F0 FF FF  7F 80 DD 80 04 01 80 DE  ..N.............
07A0: 80 04 01 80 DB 80 04 01  BB 1D 80 DB 80 04 01 DB  ................
07B0: 80 04 01 00 FE FE FE 00  80 BB 4F 80 DB 80 04 01  ..........O.....
07C0: DB 80 04 01 00 FE FE FE  00 80 BB 50 80 DD 80 04  ...........P....
07D0: 01 DD 80 04 01 00 FE FE  FE 00 80 9F 51 80 CF 80  ............Q...
07E0: 04 01 CF 80 04 01 00 FE  FE FE 00 80 5C 00 52 80  ............\.R.
07F0: 5C 01 52 80 5C 02 52 80  5C 03 52 80 9A 5B 53 80  \.R.\.R.\.R..[S.
0800: DD 80 04 01 DD 80 04 01  69 6B 61 30 5B 54 80 DB  ........ika0[T..
0810: 80 04 01 DB 80 04 01 69  6B 61 30 5B 55 80 DE 80  .......ika0[U...
0820: 04 01 DE 80 04 01 61 62  30 30 1C 1F 80 45 20 80  ......ab00...E .
0830: DD 80 04 01 DD 80 04 01  30 62 6C 73 00 80 45 20  ........0bls..E 
0840: 80 F0 FF FF 7F F0 FF FF  7F 30 61 6D 30 00 80 1A  .........0am0...
0850: B5 49 2B DD 80 04 01 56  80 23 52 20 80 F0 FF FF  .I+....V.#R ....
0860: 7F F0 FF FF 7F 30 61 6D  30 45 20 80 F0 FF FF 7F  .....0am0E .....
0870: F0 FF FF 7F 62 6D 30 30  00 80 2B DD 80 04 01 57  ....bm00..+....W
0880: 80 23 2B DD 80 04 01 58  80 23 52 20 80 F0 FF FF  .#+....X.#R ....
0890: 7F F0 FF FF 7F 62 6D 30  30 45 20 80 F0 FF FF 7F  .....bm00E .....
08A0: F0 FF FF 7F 30 61 6D 31  00 80 45 20 80 F0 FF FF  ....0am1..E ....
08B0: 7F F0 FF FF 7F 30 63 61  6F 00 80 BB 50 80 DD 80  .....0cao...P...
08C0: 04 01 DD 80 04 01 73 30  30 31 00 80 5B 53 80 DD  ......s001..[S..
08D0: 80 04 01 DD 80 04 01 69  6B 61 31 03 02 10 59 80  .......ika1...Y.
08E0: 27 10 CE 80 04 01 07 1C  0A 80 2B DD 80 04 01 5A  '.........+....Z
08F0: 80 1C 02 80 2B DD 80 04  01 5B 80 23 52 20 80 F0  ....+....[.#R ..
0900: FF FF 7F F0 FF FF 7F 30  61 6D 31 45 20 80 F0 FF  .......0am1E ...
0910: FF 7F F0 FF FF 7F 62 6D  30 31 00 80 2B DD 80 04  ......bm01..+...
0920: 01 5C 80 23 2A 10 CE 80  04 01 52 20 80 F0 FF FF  .\.#*.....R ....
0930: 7F F0 FF FF 7F 62 6D 30  31 45 20 80 F0 FF FF 7F  .....bm01E .....
0940: F0 FF FF 7F 30 61 6D 32  00 80 45 20 80 F0 FF FF  ....0am2..E ....
0950: 7F F0 FF FF 7F 30 73 61  6F 00 80 BB 50 80 DD 80  .....0sao...P...
0960: 04 01 DD 80 04 01 73 30  30 32 00 80 5B 5D 80 DD  ......s002..[]..
0970: 80 04 01 DD 80 04 01 69  6B 61 32 03 02 10 5E 80  .......ika2...^.
0980: 27 10 CE 80 04 01 07 1C  29 80 2B DD 80 04 01 5F  '.......).+...._
0990: 80 52 20 80 F0 FF FF 7F  F0 FF FF 7F 30 61 6D 32  .R .........0am2
09A0: 45 20 80 F0 FF FF 7F F0  FF FF 7F 30 61 6D 33 00  E .........0am3.
09B0: 80 27 10 CF 80 04 01 0A  1C 22 80 BB 4F 80 DB 80  .'......."..O...
09C0: 04 01 DB 80 04 01 73 30  30 31 00 80 52 20 80 F0  ......s001..R ..
09D0: FF FF 7F F0 FF FF 7F 30  61 6D 33 45 20 80 F0 FF  .......0am3E ...
09E0: FF 7F F0 FF FF 7F 62 6D  30 33 00 80 1C 42 80 7C  ......bm03...B.|
09F0: 00 DE 80 04 01 5B 55 80  DE 80 04 01 DE 80 04 01  .....[U.........
0A00: 61 62 30 31 1C 1D 80 52  20 80 F0 FF FF 7F F0 FF  ab01...R .......
0A10: FF 7F 62 6D 30 33 45 20  80 F0 FF FF 7F F0 FF FF  ..bm03E ........
0A20: 7F 30 61 6D 34 00 80 4E  01 F0 FF FF 7F 2B DE 80  .0am4..N.....+..
0A30: 04 01 60 80 55 20 80 F0  FF FF 7F F0 FF FF 7F 30  ..`.U .........0
0A40: 61 6D 34 45 20 80 F0 FF  FF 7F F0 FF FF 7F 30 61  am4E .........0a
0A50: 6D 35 00 80 4E 00 F0 FF  FF 7F 7C 01 DE 80 04 01  m5..N.....|.....
0A60: 2A 10 CE 80 04 01 BB 4F  80 DB 80 04 01 DB 80 04  *......O........
0A70: 01 73 30 30 32 00 80 2B  DB 80 04 01 61 80 23 52  .s002..+....a.#R
0A80: 20 80 F0 FF FF 7F F0 FF  FF 7F 30 61 6D 35 45 20   .........0am5E 
0A90: 80 F0 FF FF 7F F0 FF FF  7F 30 61 6D 36 00 80 BB  .........0am6...
0AA0: 4F 80 DB 80 04 01 DB 80  04 01 73 30 30 33 00 80  O.........s003..
0AB0: 5B 54 80 DB 80 04 01 DB  80 04 01 69 6B 61 31 03  [T.........ika1.
0AC0: 02 10 62 80 27 10 CE 80  04 01 07 1C 30 80 52 20  ..b.'.......0.R 
0AD0: 80 F0 FF FF 7F F0 FF FF  7F 30 61 6D 36 45 20 80  .........0am6E .
0AE0: F0 FF FF 7F F0 FF FF 7F  62 6D 30 38 00 80 1C 63  ........bm08...c
0AF0: 80 52 20 80 F0 FF FF 7F  F0 FF FF 7F 62 6D 30 38  .R .........bm08
0B00: 45 20 80 F0 FF FF 7F F0  FF FF 7F 30 61 6D 37 00  E .........0am7.
0B10: 80 2B DB 80 04 01 64 80  23 2A 10 CE 80 04 01 52  .+....d.#*.....R
0B20: 20 80 F0 FF FF 7F F0 FF  FF 7F 30 61 6D 37 45 20   .........0am7E 
0B30: 80 F0 FF FF 7F F0 FF FF  7F 62 6D 30 32 00 80 2B  .........bm02..+
0B40: DE 80 04 01 65 80 23 52  20 80 F0 FF FF 7F F0 FF  ....e.#R .......
0B50: FF 7F 62 6D 30 32 45 20  80 F0 FF FF 7F F0 FF FF  ..bm02E ........
0B60: 7F 62 6D 30 39 00 80 5B  55 80 DE 80 04 01 DE 80  .bm09..[U.......
0B70: 04 01 61 62 30 32 03 02  10 66 80 27 10 CE 80 04  ..ab02...f.'....
0B80: 01 07 1C 1F 80 2B DE 80  04 01 67 80 23 52 20 80  .....+....g.#R .
0B90: F0 FF FF 7F F0 FF FF 7F  62 6D 30 39 29 10 F0 FF  ........bm09)...
0BA0: FF 7F 2D 02 02 10 05 80  80 BF 0B 45 20 80 F0 FF  ..-........E ...
0BB0: FF 7F F0 FF FF 7F 61 68  6D 30 00 80 01 83 0C 02  ......ahm0......
0BC0: 02 10 68 80 80 DB 0B 45  20 80 F0 FF FF 7F F0 FF  ..h....E .......
0BD0: FF 7F 61 68 66 30 00 80  01 83 0C 02 02 10 69 80  ..ahf0........i.
0BE0: 80 F7 0B 45 20 80 F0 FF  FF 7F F0 FF FF 7F 61 65  ...E .........ae
0BF0: 6D 30 00 80 01 83 0C 02  02 10 6A 80 80 13 0C 45  m0........j....E
0C00: 20 80 F0 FF FF 7F F0 FF  FF 7F 61 65 66 30 00 80   .........aef0..
0C10: 01 83 0C 02 02 10 6B 80  80 2F 0C 45 20 80 F0 FF  ......k../.E ...
0C20: FF 7F F0 FF FF 7F 61 74  72 30 00 80 01 83 0C 02  ......atr0......
0C30: 02 10 6C 80 80 4B 0C 45  20 80 F0 FF FF 7F F0 FF  ..l..K.E .......
0C40: FF 7F 61 74 72 30 00 80  01 83 0C 02 02 10 6D 80  ..atr0........m.
0C50: 80 67 0C 45 20 80 F0 FF  FF 7F F0 FF FF 7F 61 6D  .g.E .........am
0C60: 74 30 00 80 01 83 0C 02  02 10 6E 80 80 83 0C 45  t0........n....E
0C70: 20 80 F0 FF FF 7F F0 FF  FF 7F 61 67 6C 30 00 80   .........agl0..
0C80: 01 83 0C 79 00 F0 FF FF  7F DE 80 04 01 7C 00 DE  ...y.........|..
0C90: 80 04 01 2B DE 80 04 01  6F 80 23 2A 10 CE 80 04  ...+....o.#*....
0CA0: 01 7C 01 DE 80 04 01 5B  55 80 DE 80 04 01 DE 80  .|.....[U.......
0CB0: 04 01 61 62 30 33 1C 21  80 52 20 80 F0 FF FF 7F  ..ab03.!.R .....
0CC0: F0 FF FF 7F 61 68 6D 30  52 20 80 F0 FF FF 7F F0  ....ahm0R ......
0CD0: FF FF 7F 61 68 66 30 52  20 80 F0 FF FF 7F F0 FF  ...ahf0R .......
0CE0: FF 7F 61 65 6D 30 52 20  80 F0 FF FF 7F F0 FF FF  ..aem0R ........
0CF0: 7F 61 65 66 30 52 20 80  F0 FF FF 7F F0 FF FF 7F  .aef0R .........
0D00: 61 74 72 30 52 20 80 F0  FF FF 7F F0 FF FF 7F 61  atr0R .........a
0D10: 6D 74 30 52 20 80 F0 FF  FF 7F F0 FF FF 7F 61 67  mt0R .........ag
0D20: 6C 30 45 20 80 F0 FF FF  7F F0 FF FF 7F 62 6D 30  l0E .........bm0
0D30: 36 00 80 1C 0A 80 2B DE  80 04 01 70 80 1C 71 80  6.....+....p..q.
0D40: 52 20 80 F0 FF FF 7F F0  FF FF 7F 62 6D 30 36 45  R .........bm06E
0D50: 20 80 F0 FF FF 7F F0 FF  FF 7F 62 6D 30 37 00 80   .........bm07..
0D60: 9F 51 80 CF 80 04 01 CF  80 04 01 73 74 72 30 00  .Q.........str0.
0D70: 80 1C 0A 80 1A 18 4A 1C  0A 80 4E 01 DE 80 04 01  ......J...N.....
0D80: 4E 01 F0 FF FF 7F 92 01  F0 FF FF 7F 9F 72 80 DB  N............r..
0D90: 80 04 01 DB 80 04 01 00  FE FE FE 00 80 1C 02 80  ................
0DA0: 52 20 80 F0 FF FF 7F F0  FF FF 7F 62 6D 30 37 45  R .........bm07E
0DB0: 20 80 F0 FF FF 7F F0 FF  FF 7F 62 6D 30 34 00 80   .........bm04..
0DC0: 1A F7 49 1C 02 80 02 01  00 00 80 00 03 0E 2B DB  ..I...........+.
0DD0: 80 04 01 73 80 23 52 20  80 F0 FF FF 7F F0 FF FF  ...s.#R ........
0DE0: 7F 62 6D 30 34 45 20 80  F0 FF FF 7F F0 FF FF 7F  .bm04E .........
0DF0: 62 6D 30 35 00 80 1C 22  80 2B DB 80 04 01 74 80  bm05...".+....t.
0E00: 01 35 0E 2B DB 80 04 01  75 80 23 52 20 80 F0 FF  .5.+....u.#R ...
0E10: FF 7F F0 FF FF 7F 62 6D  30 34 45 20 80 F0 FF FF  ......bm04E ....
0E20: 7F F0 FF FF 7F 62 6D 30  35 00 80 1C 22 80 2B DB  .....bm05...".+.
0E30: 80 04 01 76 80 45 20 80  DB 80 04 01 F0 FF FF 7F  ...v.E .........
0E40: 30 65 79 65 00 80 9F 72  80 DB 80 04 01 DB 80 04  0eye...r........
0E50: 01 73 74 72 30 00 80 1C  02 80 1A D6 49 1C 0A 80  .str0.......I...
0E60: 52 20 80 F0 FF FF 7F F0  FF FF 7F 62 6D 30 35 45  R .........bm05E
0E70: 20 80 F0 FF FF 7F F0 FF  FF 7F 30 62 6C 66 00 80   .........0blf..
0E80: 35 3F 80 78 1C 05 80 AB  0A 2D F0 FF FF 7F F0 FF  5?.x.....-......
0E90: FF 7F 31 70 61 31 2D F0  FF FF 7F F0 FF FF 7F 31  ..1pa1-........1
0EA0: 70 62 31 2D F0 FF FF 7F  F0 FF FF 7F 32 70 62 31  pb1-........2pb1
0EB0: 5C 00 00 80 5C 01 00 80  5C 02 40 80 5C 03 41 80  \...\...\.@.\.A.
0EC0: 9A 46 00 45 42 80 F0 FF  FF 7F F0 FF FF 7F 66 64  .F.EB.........fd
0ED0: 69 32 00 80 21 00                                 i2..!.          
```

#### Opcodes

```
  0: 0x06D0 [0x42] SET_CLI_EVENT_CANCEL_DATA()
  1: 0x06D1 [0x1A] CALL_SUBROUTINE(address=0x49D6)
  2: 0x06D4 [0x46] CAMERA_CONTROL: Disable user control
  3: 0x06D6 [0x38] SET_CLIENT_EVENT_MODE(mode=19*)
  4: 0x06D9 [0x4E] SET_ENTITY_HIDE_FLAG: Show LocalPlayer
  5: 0x06DF [0x03] ExtData[1]->WorkLocal[0] = Work_Zone[9]
  6: 0x06E4 [0x02] IF !(ExtData[1]->WorkLocal[0] == 1*) GOTO 0x06F5
  7: 0x06EC [0x03] Work_Zone[1] = 1*
  8: 0x06F1 [0x43] SEND_EVENT_UPDATE: Send pending tag to server (packet 0x005B)
  9: 0x06F3 [0x43] SEND_EVENT_UPDATE: Check pending flag (skip if not pending)
 10: 0x06F5 [0x03] ExtData[1]->WorkLocal[1] = Work_Zone[8]
 11: 0x06FA [0x34] LOAD_UNLOAD_ZONE(zone_id=77*)
 12: 0x06FD [0x77] SET_EVENT_TIME_WEATHER(hour=255*, weather=1*)
 13: 0x0702 [0x1C] WAIT(30* ticks)
 14: 0x0705 [0xAB] EventEntity->UnknownFlag = 1 // Enable unknown flag
 15: 0x0707 [0x29] REQ_SET_WAIT(priority=0x10, entity_id=Unnamed NPC (ID: 17072359/0x010480E7), tag_num=0x07)
 16: 0x070E [0x27] REQ_SET(priority=0x10, entity_id=Amnaf (ID: 17072349/0x010480DD), tag_num=0x04)
 17: 0x0715 [0x27] REQ_SET(priority=0x10, entity_id=Naja Salaheem (ID: 17072350/0x010480DE), tag_num=0x04)
 18: 0x071C [0x27] REQ_SET(priority=0x10, entity_id=Raubahn (ID: 17072347/0x010480DB), tag_num=0x02)
 19: 0x0723 [0x4E] SET_ENTITY_HIDE_FLAG: Show Unnamed NPC (ID: 17072335/0x010480CF)
 20: 0x0729 [0x92] Amnaf (ID: 17072349/0x010480DD)->Render.Flags3 ^= 0x01
 21: 0x072F [0x92] Naja Salaheem (ID: 17072350/0x010480DE)->Render.Flags3 ^= 0x01
 22: 0x0735 [0x92] Raubahn (ID: 17072347/0x010480DB)->Render.Flags3 ^= 0x01
 23: 0x073B [0x94] LocalPlayer->Render.Flags3 ^= 0x01
 24: 0x0741 [0x94] Amnaf (ID: 17072349/0x010480DD)->Render.Flags3 ^= 0x01
 25: 0x0747 [0x94] Naja Salaheem (ID: 17072350/0x010480DE)->Render.Flags3 ^= 0x01
 26: 0x074D [0x94] Raubahn (ID: 17072347/0x010480DB)->Render.Flags3 ^= 0x01
 27: 0x0753 [0xBA] SET_ENTITY_POSITION(entity_id=LocalPlayer, pos_x=459.325*, pos_z=-451.743*, pos_y=0.000*, direction=277.6°*)
 28: 0x0760 [0xBA] SET_ENTITY_POSITION(entity_id=Amnaf (ID: 17072349/0x010480DD), pos_x=460.000*, pos_z=-446.000*, pos_y=0.050*, direction=90.0°*)
 29: 0x076D [0xBA] SET_ENTITY_POSITION(entity_id=Naja Salaheem (ID: 17072350/0x010480DE), pos_x=460.650*, pos_z=-451.287*, pos_y=0.000*, direction=266.5°*)
 30: 0x077A [0xBA] SET_ENTITY_POSITION(entity_id=Raubahn (ID: 17072347/0x010480DB), pos_x=460.000*, pos_z=-444.850*, pos_y=0.050*, direction=90.0°*)
 31: 0x0787 [0xBA] SET_ENTITY_POSITION(entity_id=Unnamed NPC (ID: 17072335/0x010480CF), pos_x=460.059*, pos_z=-449.083*, pos_y=0.050*, direction=277.6°*)
 32: 0x0794 [0x80] LOAD_WAIT(entity=LocalPlayer)
 33: 0x0799 [0x80] LOAD_WAIT(entity=Amnaf (ID: 17072349/0x010480DD))
 34: 0x079E [0x80] LOAD_WAIT(entity=Naja Salaheem (ID: 17072350/0x010480DE))
 35: 0x07A3 [0x80] LOAD_WAIT(entity=Raubahn (ID: 17072347/0x010480DB))
 36: 0x07A8 [0xBB] LOAD_EVENT_SCHEDULER_ALT: Load scheduler 0xFEFEFE00 with entities [Raubahn (ID: 17072347/0x010480DB), Raubahn (ID: 17072347/0x010480DB)], work=[10*, 0*]
 37: 0x07B9 [0xBB] LOAD_EVENT_SCHEDULER_ALT: Load scheduler 0xFEFEFE00 with entities [Raubahn (ID: 17072347/0x010480DB), Raubahn (ID: 17072347/0x010480DB)], work=[97*, 0*]
 38: 0x07CA [0xBB] LOAD_EVENT_SCHEDULER_ALT: Load scheduler 0xFEFEFE00 with entities [Amnaf (ID: 17072349/0x010480DD), Amnaf (ID: 17072349/0x010480DD)], work=[101*, 0*]
 39: 0x07DB [0x9F] LOAD_SCHEDULED_TASK_ALT: Load scheduler 0xFEFEFE00 with entities [Unnamed NPC (ID: 17072335/0x010480CF), Unnamed NPC (ID: 17072335/0x010480CF)], work=[216*, 0*]
 40: 0x07EC [0x5C] MUSIC_CONTROL: Set Idle (Day) music to song 185*
 41: 0x07F0 [0x5C] MUSIC_CONTROL: Set Idle (Night) music to song 185*
 42: 0x07F4 [0x5C] MUSIC_CONTROL: Set Combat (Solo) music to song 185*
 43: 0x07F8 [0x5C] MUSIC_CONTROL: Set Combat (Party) music to song 185*
 44: 0x07FC [0x9A] WAIT_MUSIC_SERVER()
 45: 0x07FD [0x5B] LOAD_EXT_SCHEDULER: Load scheduler "ika0" with entities [Amnaf (ID: 17072349/0x010480DD), Amnaf (ID: 17072349/0x010480DD)], work=1186*
 46: 0x080C [0x5B] LOAD_EXT_SCHEDULER: Load scheduler "ika0" with entities [Raubahn (ID: 17072347/0x010480DB), Raubahn (ID: 17072347/0x010480DB)], work=1169*
 47: 0x081B [0x5B] LOAD_EXT_SCHEDULER: Load scheduler "ab00" with entities [Naja Salaheem (ID: 17072350/0x010480DE), Naja Salaheem (ID: 17072350/0x010480DE)], work=1162*
 48: 0x082A [0x1C] WAIT(15* ticks)
 49: 0x082D [0x45] LOAD_SCHEDULED_TASK: Load scheduler "0bls" with entities [Amnaf (ID: 17072349/0x010480DD), Amnaf (ID: 17072349/0x010480DD)], work=[321*, 0*]
 50: 0x083E [0x45] LOAD_SCHEDULED_TASK: Load scheduler "0am0" with entities [LocalPlayer, LocalPlayer], work=[321*, 0*]
 51: 0x084F [0x1A] CALL_SUBROUTINE(address=0x49B5)
 52: 0x0852 [0x2B] Amnaf (ID: 17072349/0x010480DD) [7522*]:
    → "<Wheeze>..."
 53: 0x0859 [0x23] WAIT_FOR_DIALOG_INTERACTION
 54: 0x085A [0x52] END_LOAD_SCHEDULER: End scheduler "0am0" with entities [LocalPlayer, LocalPlayer], work=321*
 55: 0x0869 [0x45] LOAD_SCHEDULED_TASK: Load scheduler "bm00" with entities [LocalPlayer, LocalPlayer], work=[321*, 0*]
 56: 0x087A [0x2B] Amnaf (ID: 17072349/0x010480DD) [7523*]:
    → "Ugh...<pant>..."
 57: 0x0881 [0x23] WAIT_FOR_DIALOG_INTERACTION
 58: 0x0882 [0x2B] Amnaf (ID: 17072349/0x010480DD) [7524*]:
    → "I will...not...allow..."
 59: 0x0889 [0x23] WAIT_FOR_DIALOG_INTERACTION
 60: 0x088A [0x52] END_LOAD_SCHEDULER: End scheduler "bm00" with entities [LocalPlayer, LocalPlayer], work=321*
 61: 0x0899 [0x45] LOAD_SCHEDULED_TASK: Load scheduler "0am1" with entities [LocalPlayer, LocalPlayer], work=[321*, 0*]
 62: 0x08AA [0x45] LOAD_SCHEDULED_TASK: Load scheduler "0cao" with entities [LocalPlayer, LocalPlayer], work=[321*, 0*]
 63: 0x08BB [0xBB] LOAD_EVENT_SCHEDULER_ALT: Load scheduler "s001" with entities [Amnaf (ID: 17072349/0x010480DD), Amnaf (ID: 17072349/0x010480DD)], work=[101*, 0*]
 64: 0x08CC [0x5B] LOAD_EXT_SCHEDULER: Load scheduler "ika1" with entities [Amnaf (ID: 17072349/0x010480DD), Amnaf (ID: 17072349/0x010480DD)], work=1186*
 65: 0x08DB [0x03] Work_Zone[2] = 420*
 66: 0x08E0 [0x27] REQ_SET(priority=0x10, entity_id=??? (ID: 17072334/0x010480CE), tag_num=0x07)
 67: 0x08E7 [0x1C] WAIT(30* ticks)
 68: 0x08EA [0x2B] Amnaf (ID: 17072349/0x010480DD) [7525*]:
    → "For...the...Gra...nd...Vi...zier..."
 69: 0x08F1 [0x1C] WAIT(120* ticks)
 70: 0x08F4 [0x2B] Amnaf (ID: 17072349/0x010480DD) [7526*]:
    → "I...will...stop...you..."
 71: 0x08FB [0x23] WAIT_FOR_DIALOG_INTERACTION
 72: 0x08FC [0x52] END_LOAD_SCHEDULER: End scheduler "0am1" with entities [LocalPlayer, LocalPlayer], work=321*
 73: 0x090B [0x45] LOAD_SCHEDULED_TASK: Load scheduler "bm01" with entities [LocalPlayer, LocalPlayer], work=[321*, 0*]
 74: 0x091C [0x2B] Amnaf (ID: 17072349/0x010480DD) [7527*]:
    → "For...my...Raz...fahd...<wheeze>..."
 75: 0x0923 [0x23] WAIT_FOR_DIALOG_INTERACTION
 76: 0x0924 [0x2A] GET_REQ_LEVEL(level=16, entity_id=??? (ID: 17072334/0x010480CE))
 77: 0x092A [0x52] END_LOAD_SCHEDULER: End scheduler "bm01" with entities [LocalPlayer, LocalPlayer], work=321*
 78: 0x0939 [0x45] LOAD_SCHEDULED_TASK: Load scheduler "0am2" with entities [LocalPlayer, LocalPlayer], work=[321*, 0*]
 79: 0x094A [0x45] LOAD_SCHEDULED_TASK: Load scheduler "0sao" with entities [LocalPlayer, LocalPlayer], work=[321*, 0*]
 80: 0x095B [0xBB] LOAD_EVENT_SCHEDULER_ALT: Load scheduler "s002" with entities [Amnaf (ID: 17072349/0x010480DD), Amnaf (ID: 17072349/0x010480DD)], work=[101*, 0*]
 81: 0x096C [0x5B] LOAD_EXT_SCHEDULER: Load scheduler "ika2" with entities [Amnaf (ID: 17072349/0x010480DD), Amnaf (ID: 17072349/0x010480DD)], work=1187*
 82: 0x097B [0x03] Work_Zone[2] = 360*
 83: 0x0980 [0x27] REQ_SET(priority=0x10, entity_id=??? (ID: 17072334/0x010480CE), tag_num=0x07)
 84: 0x0987 [0x1C] WAIT(90* ticks)
 85: 0x098A [0x2B] Amnaf (ID: 17072349/0x010480DD) [7528*]:
    → "!?"
 86: 0x0991 [0x52] END_LOAD_SCHEDULER: End scheduler "0am2" with entities [LocalPlayer, LocalPlayer], work=321*
 87: 0x09A0 [0x45] LOAD_SCHEDULED_TASK: Load scheduler "0am3" with entities [LocalPlayer, LocalPlayer], work=[321*, 0*]
 88: 0x09B1 [0x27] REQ_SET(priority=0x10, entity_id=Unnamed NPC (ID: 17072335/0x010480CF), tag_num=0x0A)
 89: 0x09B8 [0x1C] WAIT(60* ticks)
 90: 0x09BB [0xBB] LOAD_EVENT_SCHEDULER_ALT: Load scheduler "s001" with entities [Raubahn (ID: 17072347/0x010480DB), Raubahn (ID: 17072347/0x010480DB)], work=[97*, 0*]
 91: 0x09CC [0x52] END_LOAD_SCHEDULER: End scheduler "0am3" with entities [LocalPlayer, LocalPlayer], work=321*
 92: 0x09DB [0x45] LOAD_SCHEDULED_TASK: Load scheduler "bm03" with entities [LocalPlayer, LocalPlayer], work=[321*, 0*]
 93: 0x09EC [0x1C] WAIT(200* ticks)
 94: 0x09EF [0x7C] Naja Salaheem (ID: 17072350/0x010480DE)->Render.Flags2 |= 0x00
 95: 0x09F5 [0x5B] LOAD_EXT_SCHEDULER: Load scheduler "ab01" with entities [Naja Salaheem (ID: 17072350/0x010480DE), Naja Salaheem (ID: 17072350/0x010480DE)], work=1162*
 96: 0x0A04 [0x1C] WAIT(10* ticks)
 97: 0x0A07 [0x52] END_LOAD_SCHEDULER: End scheduler "bm03" with entities [LocalPlayer, LocalPlayer], work=321*
 98: 0x0A16 [0x45] LOAD_SCHEDULED_TASK: Load scheduler "0am4" with entities [LocalPlayer, LocalPlayer], work=[321*, 0*]
 99: 0x0A27 [0x4E] SET_ENTITY_HIDE_FLAG: Hide LocalPlayer
100: 0x0A2D [0x2B] Naja Salaheem (ID: 17072350/0x010480DE) [7529*]:
    → "!?"
101: 0x0A34 [0x55] WAIT_LOAD_SCHEDULER: Wait for scheduler "0am4" with entities [LocalPlayer, LocalPlayer], work=321*
102: 0x0A43 [0x45] LOAD_SCHEDULED_TASK: Load scheduler "0am5" with entities [LocalPlayer, LocalPlayer], work=[321*, 0*]
103: 0x0A54 [0x4E] SET_ENTITY_HIDE_FLAG: Show LocalPlayer
104: 0x0A5A [0x7C] Naja Salaheem (ID: 17072350/0x010480DE)->Render.Flags2 |= 0x01
105: 0x0A60 [0x2A] GET_REQ_LEVEL(level=16, entity_id=??? (ID: 17072334/0x010480CE))
106: 0x0A66 [0xBB] LOAD_EVENT_SCHEDULER_ALT: Load scheduler "s002" with entities [Raubahn (ID: 17072347/0x010480DB), Raubahn (ID: 17072347/0x010480DB)], work=[97*, 0*]
107: 0x0A77 [0x2B] Raubahn (ID: 17072347/0x010480DB) [7530*]:
    → "Amnaf. My dear Immortal Lion."
108: 0x0A7E [0x23] WAIT_FOR_DIALOG_INTERACTION
109: 0x0A7F [0x52] END_LOAD_SCHEDULER: End scheduler "0am5" with entities [LocalPlayer, LocalPlayer], work=321*
110: 0x0A8E [0x45] LOAD_SCHEDULED_TASK: Load scheduler "0am6" with entities [LocalPlayer, LocalPlayer], work=[321*, 0*]
111: 0x0A9F [0xBB] LOAD_EVENT_SCHEDULER_ALT: Load scheduler "s003" with entities [Raubahn (ID: 17072347/0x010480DB), Raubahn (ID: 17072347/0x010480DB)], work=[97*, 0*]
112: 0x0AB0 [0x5B] LOAD_EXT_SCHEDULER: Load scheduler "ika1" with entities [Raubahn (ID: 17072347/0x010480DB), Raubahn (ID: 17072347/0x010480DB)], work=1169*
113: 0x0ABF [0x03] Work_Zone[2] = 480*
114: 0x0AC4 [0x27] REQ_SET(priority=0x10, entity_id=??? (ID: 17072334/0x010480CE), tag_num=0x07)
115: 0x0ACB [0x1C] WAIT(150* ticks)
116: 0x0ACE [0x52] END_LOAD_SCHEDULER: End scheduler "0am6" with entities [LocalPlayer, LocalPlayer], work=321*
117: 0x0ADD [0x45] LOAD_SCHEDULED_TASK: Load scheduler "bm08" with entities [LocalPlayer, LocalPlayer], work=[321*, 0*]
118: 0x0AEE [0x1C] WAIT(180* ticks)
119: 0x0AF1 [0x52] END_LOAD_SCHEDULER: End scheduler "bm08" with entities [LocalPlayer, LocalPlayer], work=321*
120: 0x0B00 [0x45] LOAD_SCHEDULED_TASK: Load scheduler "0am7" with entities [LocalPlayer, LocalPlayer], work=[321*, 0*]
121: 0x0B11 [0x2B] Raubahn (ID: 17072347/0x010480DB) [7531*]:
    → "Your part in this is over. You have earned eternal rest..."
122: 0x0B18 [0x23] WAIT_FOR_DIALOG_INTERACTION
123: 0x0B19 [0x2A] GET_REQ_LEVEL(level=16, entity_id=??? (ID: 17072334/0x010480CE))
124: 0x0B1F [0x52] END_LOAD_SCHEDULER: End scheduler "0am7" with entities [LocalPlayer, LocalPlayer], work=321*
125: 0x0B2E [0x45] LOAD_SCHEDULED_TASK: Load scheduler "bm02" with entities [LocalPlayer, LocalPlayer], work=[321*, 0*]
126: 0x0B3F [0x2B] Naja Salaheem (ID: 17072350/0x010480DE) [7532*]:
    → "Ewww... Now this is an interrrestin' development."
127: 0x0B46 [0x23] WAIT_FOR_DIALOG_INTERACTION
128: 0x0B47 [0x52] END_LOAD_SCHEDULER: End scheduler "bm02" with entities [LocalPlayer, LocalPlayer], work=321*
129: 0x0B56 [0x45] LOAD_SCHEDULED_TASK: Load scheduler "bm09" with entities [LocalPlayer, LocalPlayer], work=[321*, 0*]
130: 0x0B67 [0x5B] LOAD_EXT_SCHEDULER: Load scheduler "ab02" with entities [Naja Salaheem (ID: 17072350/0x010480DE), Naja Salaheem (ID: 17072350/0x010480DE)], work=1162*
131: 0x0B76 [0x03] Work_Zone[2] = 244*
132: 0x0B7B [0x27] REQ_SET(priority=0x10, entity_id=??? (ID: 17072334/0x010480CE), tag_num=0x07)
133: 0x0B82 [0x1C] WAIT(15* ticks)
134: 0x0B85 [0x2B] Naja Salaheem (ID: 17072350/0x010480DE) [7533*]:
    → "My tail is twitchin' all over the place..."
135: 0x0B8C [0x23] WAIT_FOR_DIALOG_INTERACTION
136: 0x0B8D [0x52] END_LOAD_SCHEDULER: End scheduler "bm09" with entities [LocalPlayer, LocalPlayer], work=321*
137: 0x0B9C [0x29] REQ_SET_WAIT(priority=0x10, entity_id=LocalPlayer, tag_num=0x2D)
138: 0x0BA3 [0x02] IF !(Work_Zone[2] == 1*) GOTO 0x0BBF
139: 0x0BAB [0x45] LOAD_SCHEDULED_TASK: Load scheduler "ahm0" with entities [LocalPlayer, LocalPlayer], work=[321*, 0*]
140: 0x0BBC [0x01] GOTO 0x0C83
141: 0x0BBF [0x02] IF !(Work_Zone[2] == 2*) GOTO 0x0BDB
142: 0x0BC7 [0x45] LOAD_SCHEDULED_TASK: Load scheduler "ahf0" with entities [LocalPlayer, LocalPlayer], work=[321*, 0*]
143: 0x0BD8 [0x01] GOTO 0x0C83
144: 0x0BDB [0x02] IF !(Work_Zone[2] == 3*) GOTO 0x0BF7
145: 0x0BE3 [0x45] LOAD_SCHEDULED_TASK: Load scheduler "aem0" with entities [LocalPlayer, LocalPlayer], work=[321*, 0*]
146: 0x0BF4 [0x01] GOTO 0x0C83
147: 0x0BF7 [0x02] IF !(Work_Zone[2] == 4*) GOTO 0x0C13
148: 0x0BFF [0x45] LOAD_SCHEDULED_TASK: Load scheduler "aef0" with entities [LocalPlayer, LocalPlayer], work=[321*, 0*]
149: 0x0C10 [0x01] GOTO 0x0C83
150: 0x0C13 [0x02] IF !(Work_Zone[2] == 5*) GOTO 0x0C2F
151: 0x0C1B [0x45] LOAD_SCHEDULED_TASK: Load scheduler "atr0" with entities [LocalPlayer, LocalPlayer], work=[321*, 0*]
152: 0x0C2C [0x01] GOTO 0x0C83
153: 0x0C2F [0x02] IF !(Work_Zone[2] == 6*) GOTO 0x0C4B
154: 0x0C37 [0x45] LOAD_SCHEDULED_TASK: Load scheduler "atr0" with entities [LocalPlayer, LocalPlayer], work=[321*, 0*]
155: 0x0C48 [0x01] GOTO 0x0C83
156: 0x0C4B [0x02] IF !(Work_Zone[2] == 7*) GOTO 0x0C67
157: 0x0C53 [0x45] LOAD_SCHEDULED_TASK: Load scheduler "amt0" with entities [LocalPlayer, LocalPlayer], work=[321*, 0*]
158: 0x0C64 [0x01] GOTO 0x0C83
159: 0x0C67 [0x02] IF !(Work_Zone[2] == 8*) GOTO 0x0C83
160: 0x0C6F [0x45] LOAD_SCHEDULED_TASK: Load scheduler "agl0" with entities [LocalPlayer, LocalPlayer], work=[321*, 0*]
161: 0x0C80 [0x01] GOTO 0x0C83

SUBROUTINE_0C83:
162: 0x0C83 [0x79] LocalPlayer looks at Naja Salaheem (ID: 17072350/0x010480DE) (Basic look)
163: 0x0C8D [0x7C] Naja Salaheem (ID: 17072350/0x010480DE)->Render.Flags2 |= 0x00
164: 0x0C93 [0x2B] Naja Salaheem (ID: 17072350/0x010480DE) [7534*]:
    → "(Listen up, <Player>. We rrrun in different directions and meet up back at the office...)"
165: 0x0C9A [0x23] WAIT_FOR_DIALOG_INTERACTION
166: 0x0C9B [0x2A] GET_REQ_LEVEL(level=16, entity_id=??? (ID: 17072334/0x010480CE))
167: 0x0CA1 [0x7C] Naja Salaheem (ID: 17072350/0x010480DE)->Render.Flags2 |= 0x01
168: 0x0CA7 [0x5B] LOAD_EXT_SCHEDULER: Load scheduler "ab03" with entities [Naja Salaheem (ID: 17072350/0x010480DE), Naja Salaheem (ID: 17072350/0x010480DE)], work=1162*
169: 0x0CB6 [0x1C] WAIT(45* ticks)
170: 0x0CB9 [0x52] END_LOAD_SCHEDULER: End scheduler "ahm0" with entities [LocalPlayer, LocalPlayer], work=321*
171: 0x0CC8 [0x52] END_LOAD_SCHEDULER: End scheduler "ahf0" with entities [LocalPlayer, LocalPlayer], work=321*
172: 0x0CD7 [0x52] END_LOAD_SCHEDULER: End scheduler "aem0" with entities [LocalPlayer, LocalPlayer], work=321*
173: 0x0CE6 [0x52] END_LOAD_SCHEDULER: End scheduler "aef0" with entities [LocalPlayer, LocalPlayer], work=321*
174: 0x0CF5 [0x52] END_LOAD_SCHEDULER: End scheduler "atr0" with entities [LocalPlayer, LocalPlayer], work=321*
175: 0x0D04 [0x52] END_LOAD_SCHEDULER: End scheduler "amt0" with entities [LocalPlayer, LocalPlayer], work=321*
176: 0x0D13 [0x52] END_LOAD_SCHEDULER: End scheduler "agl0" with entities [LocalPlayer, LocalPlayer], work=321*
177: 0x0D22 [0x45] LOAD_SCHEDULED_TASK: Load scheduler "bm06" with entities [LocalPlayer, LocalPlayer], work=[321*, 0*]
178: 0x0D33 [0x1C] WAIT(30* ticks)
179: 0x0D36 [0x2B] Naja Salaheem (ID: 17072350/0x010480DE) [7535*]:
    → "Now!"
180: 0x0D3D [0x1C] WAIT(40* ticks)
181: 0x0D40 [0x52] END_LOAD_SCHEDULER: End scheduler "bm06" with entities [LocalPlayer, LocalPlayer], work=321*
182: 0x0D4F [0x45] LOAD_SCHEDULED_TASK: Load scheduler "bm07" with entities [LocalPlayer, LocalPlayer], work=[321*, 0*]
183: 0x0D60 [0x9F] LOAD_SCHEDULED_TASK_ALT: Load scheduler "str0" with entities [Unnamed NPC (ID: 17072335/0x010480CF), Unnamed NPC (ID: 17072335/0x010480CF)], work=[216*, 0*]
184: 0x0D71 [0x1C] WAIT(30* ticks)
185: 0x0D74 [0x1A] CALL_SUBROUTINE(address=0x4A18)
186: 0x0D77 [0x1C] WAIT(30* ticks)
187: 0x0D7A [0x4E] SET_ENTITY_HIDE_FLAG: Hide Naja Salaheem (ID: 17072350/0x010480DE)
188: 0x0D80 [0x4E] SET_ENTITY_HIDE_FLAG: Hide LocalPlayer
189: 0x0D86 [0x92] LocalPlayer->Render.Flags3 ^= 0x01
190: 0x0D8C [0x9F] LOAD_SCHEDULED_TASK_ALT: Load scheduler 0xFEFEFE00 with entities [Raubahn (ID: 17072347/0x010480DB), Raubahn (ID: 17072347/0x010480DB)], work=[220*, 0*]
191: 0x0D9D [0x1C] WAIT(120* ticks)
192: 0x0DA0 [0x52] END_LOAD_SCHEDULER: End scheduler "bm07" with entities [LocalPlayer, LocalPlayer], work=321*
193: 0x0DAF [0x45] LOAD_SCHEDULED_TASK: Load scheduler "bm04" with entities [LocalPlayer, LocalPlayer], work=[321*, 0*]
194: 0x0DC0 [0x1A] CALL_SUBROUTINE(address=0x49F7)
195: 0x0DC3 [0x1C] WAIT(120* ticks)
196: 0x0DC6 [0x02] IF !(ExtData[1]->WorkLocal[1] == 0*) GOTO 0x0E03
197: 0x0DCE [0x2B] Raubahn (ID: 17072347/0x010480DB) [7536*]:
    → "<Player>...one day I shall feast on your soul..."
198: 0x0DD5 [0x23] WAIT_FOR_DIALOG_INTERACTION
199: 0x0DD6 [0x52] END_LOAD_SCHEDULER: End scheduler "bm04" with entities [LocalPlayer, LocalPlayer], work=321*
200: 0x0DE5 [0x45] LOAD_SCHEDULED_TASK: Load scheduler "bm05" with entities [LocalPlayer, LocalPlayer], work=[321*, 0*]
201: 0x0DF6 [0x1C] WAIT(60* ticks)
202: 0x0DF9 [0x2B] Raubahn (ID: 17072347/0x010480DB) [7537*]:
    → "One day..."
203: 0x0E00 [0x01] GOTO 0x0E35
204: 0x0E03 [0x2B] Raubahn (ID: 17072347/0x010480DB) [7538*]:
    → "So, <Player>... This is the path you have chosen?"
205: 0x0E0A [0x23] WAIT_FOR_DIALOG_INTERACTION
206: 0x0E0B [0x52] END_LOAD_SCHEDULER: End scheduler "bm04" with entities [LocalPlayer, LocalPlayer], work=321*
207: 0x0E1A [0x45] LOAD_SCHEDULED_TASK: Load scheduler "bm05" with entities [LocalPlayer, LocalPlayer], work=[321*, 0*]
208: 0x0E2B [0x1C] WAIT(60* ticks)
209: 0x0E2E [0x2B] Raubahn (ID: 17072347/0x010480DB) [7539*]:
    → "Your decision has been noted..."

SUBROUTINE_0E35:
210: 0x0E35 [0x45] LOAD_SCHEDULED_TASK: Load scheduler "0eye" with entities [Raubahn (ID: 17072347/0x010480DB), LocalPlayer], work=[321*, 0*]
211: 0x0E46 [0x9F] LOAD_SCHEDULED_TASK_ALT: Load scheduler "str0" with entities [Raubahn (ID: 17072347/0x010480DB), Raubahn (ID: 17072347/0x010480DB)], work=[220*, 0*]
212: 0x0E57 [0x1C] WAIT(120* ticks)
213: 0x0E5A [0x1A] CALL_SUBROUTINE(address=0x49D6)
214: 0x0E5D [0x1C] WAIT(30* ticks)
215: 0x0E60 [0x52] END_LOAD_SCHEDULER: End scheduler "bm05" with entities [LocalPlayer, LocalPlayer], work=321*
216: 0x0E6F [0x45] LOAD_SCHEDULED_TASK: Load scheduler "0blf" with entities [LocalPlayer, LocalPlayer], work=[321*, 0*]
217: 0x0E80 [0x35] LOAD_ZONE_NO_CLOSE(zone_id=72*)
218: 0x0E83 [0x78] ENABLE_GAME_TIMER_RESET_WEATHER()
219: 0x0E84 [0x1C] WAIT(1* ticks)
220: 0x0E87 [0xAB] EventEntity->UnknownFlag = 0 // Disable unknown flag
221: 0x0E89 [0x2D] CREATE_ZONE_SCHEDULER_TASK: Create scheduler "1pa1" with entities [LocalPlayer, LocalPlayer]
222: 0x0E96 [0x2D] CREATE_ZONE_SCHEDULER_TASK: Create scheduler "1pb1" with entities [LocalPlayer, LocalPlayer]
223: 0x0EA3 [0x2D] CREATE_ZONE_SCHEDULER_TASK: Create scheduler "2pb1" with entities [LocalPlayer, LocalPlayer]
224: 0x0EB0 [0x5C] MUSIC_CONTROL: Set Idle (Day) music to song 0*
225: 0x0EB4 [0x5C] MUSIC_CONTROL: Set Idle (Night) music to song 0*
226: 0x0EB8 [0x5C] MUSIC_CONTROL: Set Combat (Solo) music to song 115*
227: 0x0EBC [0x5C] MUSIC_CONTROL: Set Combat (Party) music to song 139*
228: 0x0EC0 [0x9A] WAIT_MUSIC_SERVER()
229: 0x0EC1 [0x46] CAMERA_CONTROL: Restore default settings
230: 0x0EC3 [0x45] LOAD_SCHEDULED_TASK: Load scheduler "fdi2" with entities [LocalPlayer, LocalPlayer], work=[200*, 0*]
231: 0x0ED4 [0x21] END_EVENT
232: 0x0ED5 [0x00] END_REQSTACK()
```

### Event 8

#### Metadata

| Field        | Value      |
|--------------|------------|
| Entrypoint   | 0x0ED6     |
| Data Size    | 3806 bytes |
| Instructions | 447        |

```
      00 01 02 03 04 05 06 07  08 09 0A 0B 0C 0D 0E 0F
      -- -- -- -- -- -- -- --  -- -- -- -- -- -- -- --
0ED0:                   42 03  01 00 08 10 03 02 00 09        B.........
0EE0: 10 02 02 00 00 80 00 0E  0F 48 77 80 1C 02 80 48  .........Hw....H
0EF0: 03 80 23 24 04 80 05 80  00 80 25 02 00 10 05 80  ..#$......%.....
0F00: 00 0E 0F 03 01 10 06 80  01 B2 1D 01 0E 0F 1A D6  ................
0F10: 49 46 01 38 07 80 34 08  80 77 09 80 05 80 1C 0A  IF.8..4..w......
0F20: 80 AB 09 29 10 E7 80 04  01 06 27 10 D7 80 04 01  ...)......'.....
0F30: 04 27 10 DA 80 04 01 04  27 10 E1 80 04 01 04 27  .'......'......'
0F40: 10 DB 80 04 01 04 27 10  D9 80 04 01 04 27 10 E2  ......'......'..
0F50: 80 04 01 04 92 01 D7 80  04 01 92 01 DA 80 04 01  ................
0F60: 92 01 E1 80 04 01 92 01  DB 80 04 01 92 01 D9 80  ................
0F70: 04 01 92 01 E2 80 04 01  94 01 F0 FF FF 7F 94 01  ................
0F80: D7 80 04 01 94 01 DA 80  04 01 94 01 E1 80 04 01  ................
0F90: 94 01 DB 80 04 01 94 01  D9 80 04 01 94 01 E2 80  ................
0FA0: 04 01 BA F0 FF FF 7F 78  80 79 80 7A 80 7B 80 BA  .......x.y.z.{..
0FB0: D7 80 04 01 7C 80 7D 80  7E 80 7B 80 BA DA 80 04  ....|.}.~.{.....
0FC0: 01 7F 80 80 80 7A 80 00  80 BA E2 80 04 01 7F 80  .....z..........
0FD0: 80 80 7A 80 00 80 BA E1  80 04 01 81 80 7D 80 7E  ..z..........}.~
0FE0: 80 00 80 BA D9 80 04 01  82 80 83 80 7A 80 84 80  ............z...
0FF0: BA DB 80 04 01 85 80 86  80 7A 80 87 80 80 F0 FF  .........z......
1000: FF 7F 80 D7 80 04 01 80  DA 80 04 01 80 E1 80 04  ................
1010: 01 80 D9 80 04 01 80 DB  80 04 01 80 E2 80 04 01  ................
1020: BB 88 80 E1 80 04 01 E1  80 04 01 00 FE FE FE 00  ................
1030: 80 5B 89 80 E1 80 04 01  E1 80 04 01 6B 64 6F 30  .[..........kdo0
1040: 5B 8A 80 D9 80 04 01 D9  80 04 01 73 74 62 6C 5B  [..........stbl[
1050: 8B 80 DB 80 04 01 DB 80  04 01 61 73 74 6C 5B 8C  ..........astl[.
1060: 80 DA 80 04 01 DA 80 04  01 70 61 6E 30 5B 8D 80  .........pan0[..
1070: E2 80 04 01 E2 80 04 01  61 6C 78 30 5C 00 1E 80  ........alx0\...
1080: 5C 01 1E 80 9A 1C 1F 80  45 8E 80 F0 FF FF 7F F0  \.......E.......
1090: FF FF 7F 61 61 30 30 00  80 1A B5 49 2B DB 80 04  ...aa00....I+...
10A0: 01 8F 80 23 52 8E 80 F0  FF FF 7F F0 FF FF 7F 61  ...#R..........a
10B0: 61 30 30 45 8E 80 F0 FF  FF 7F F0 FF FF 7F 61 61  a00E..........aa
10C0: 30 31 00 80 2B D9 80 04  01 90 80 23 5B 8A 80 D9  01..+......#[...
10D0: 80 04 01 D9 80 04 01 73  74 62 31 1C 0A 80 2B D9  .......stb1...+.
10E0: 80 04 01 91 80 23 52 8E  80 F0 FF FF 7F F0 FF FF  .....#R.........
10F0: 7F 61 61 30 31 45 8E 80  F0 FF FF 7F F0 FF FF 7F  .aa01E..........
1100: 61 61 30 32 00 80 2B DA  80 04 01 92 80 23 52 8E  aa02..+......#R.
1110: 80 F0 FF FF 7F F0 FF FF  7F 61 61 30 32 45 8E 80  .........aa02E..
1120: F0 FF FF 7F F0 FF FF 7F  61 61 30 33 00 80 5B 93  ........aa03..[.
1130: 80 D9 80 04 01 D9 80 04  01 6C 6B 6C 30 2B D9 80  .........lkl0+..
1140: 04 01 94 80 23 52 8E 80  F0 FF FF 7F F0 FF FF 7F  ....#R..........
1150: 61 61 30 33 45 8E 80 F0  FF FF 7F F0 FF FF 7F 61  aa03E..........a
1160: 61 30 34 00 80 5B 8C 80  DA 80 04 01 DA 80 04 01  a04..[..........
1170: 70 61 6E 31 1C 22 80 2B  DA 80 04 01 95 80 23 52  pan1.".+......#R
1180: 8E 80 F0 FF FF 7F F0 FF  FF 7F 61 61 30 34 45 8E  ..........aa04E.
1190: 80 F0 FF FF 7F F0 FF FF  7F 61 61 30 35 00 80 5B  .........aa05..[
11A0: 8C 80 DA 80 04 01 DA 80  04 01 70 61 6E 32 1C 21  ..........pan2.!
11B0: 80 2B DA 80 04 01 96 80  23 52 8E 80 F0 FF FF 7F  .+......#R......
11C0: F0 FF FF 7F 61 61 30 35  45 8E 80 F0 FF FF 7F F0  ....aa05E.......
11D0: FF FF 7F 61 61 30 36 00  80 5B 93 80 D9 80 04 01  ...aa06..[......
11E0: D9 80 04 01 6C 6B 6C 31  2B D9 80 04 01 97 80 23  ....lkl1+......#
11F0: 27 10 F0 FF FF 7F 3F 5B  98 80 D7 80 04 01 D7 80  '.....?[........
1200: 04 01 72 75 6E 30 03 02  10 8E 80 27 10 CE 80 04  ..run0.....'....
1210: 01 07 52 8E 80 F0 FF FF  7F F0 FF FF 7F 61 61 30  ..R..........aa0
1220: 36 45 8E 80 F0 FF FF 7F  F0 FF FF 7F 61 61 30 37  6E..........aa07
1230: 00 80 1C 1F 80 5B 99 80  D9 80 04 01 D9 80 04 01  .....[..........
1240: 6C 6B 72 30 1C 1F 80 52  8E 80 F0 FF FF 7F F0 FF  lkr0...R........
1250: FF 7F 61 61 30 37 45 8E  80 F0 FF FF 7F F0 FF FF  ..aa07E.........
1260: 7F 61 61 30 38 00 80 BA  DB 80 04 01 85 80 86 80  .aa08...........
1270: 7A 80 9A 80 2B D9 80 04  01 9B 80 1C 22 80 52 8E  z...+.......".R.
1280: 80 F0 FF FF 7F F0 FF FF  7F 61 61 30 38 45 8E 80  .........aa08E..
1290: F0 FF FF 7F F0 FF FF 7F  61 61 30 39 00 80 2A 10  ........aa09..*.
12A0: CE 80 04 01 2B D9 80 04  01 9C 80 23 52 8E 80 F0  ....+......#R...
12B0: FF FF 7F F0 FF FF 7F 61  61 30 39 45 8E 80 F0 FF  .......aa09E....
12C0: FF 7F F0 FF FF 7F 61 61  31 30 00 80 2B D7 80 04  ......aa10..+...
12D0: 01 9D 80 23 52 8E 80 F0  FF FF 7F F0 FF FF 7F 61  ...#R..........a
12E0: 61 31 30 45 8E 80 F0 FF  FF 7F F0 FF FF 7F 61 61  a10E..........aa
12F0: 31 31 00 80 4A D7 80 04  01 D9 80 04 01 6B 69 64  11..J........kid
1300: 6C 30 D7 80 04 01 1C 0A  80 2B D9 80 04 01 9E 80  l0.......+......
1310: 23 52 8E 80 F0 FF FF 7F  F0 FF FF 7F 61 61 31 31  #R..........aa11
1320: 45 8E 80 F0 FF FF 7F F0  FF FF 7F 61 61 31 32 00  E..........aa12.
1330: 80 5B 99 80 D9 80 04 01  D9 80 04 01 6C 6B 72 31  .[..........lkr1
1340: 1C 0A 80 5B 9F 80 D7 80  04 01 D7 80 04 01 74 6C  ...[..........tl
1350: 6B 30 2B D7 80 04 01 A0  80 23 5B 9F 80 D7 80 04  k0+......#[.....
1360: 01 D7 80 04 01 74 6C 6B  31 4A D9 80 04 01 D7 80  .....tlk1J......
1370: 04 01 6F 76 D9 80 04 01  2B D9 80 04 01 A1 80 23  ..ov....+......#
1380: 52 8E 80 F0 FF FF 7F F0  FF FF 7F 61 61 31 32 45  R..........aa12E
1390: 8E 80 F0 FF FF 7F F0 FF  FF 7F 61 61 31 33 00 80  ..........aa13..
13A0: 5B A2 80 D7 80 04 01 D7  80 04 01 74 6C 64 30 2B  [..........tld0+
13B0: D7 80 04 01 A3 80 23 5B  A2 80 D7 80 04 01 D7 80  ......#[........
13C0: 04 01 74 6C 64 31 5B 8A  80 D9 80 04 01 D9 80 04  ..tld1[.........
13D0: 01 74 68 6B 30 2B D9 80  04 01 A4 80 23 52 8E 80  .thk0+......#R..
13E0: F0 FF FF 7F F0 FF FF 7F  61 61 31 33 45 8E 80 F0  ........aa13E...
13F0: FF FF 7F F0 FF FF 7F 61  61 31 34 00 80 2B D9 80  .......aa14..+..
1400: 04 01 A5 80 23 52 8E 80  F0 FF FF 7F F0 FF FF 7F  ....#R..........
1410: 61 61 31 34 45 8E 80 F0  FF FF 7F F0 FF FF 7F 61  aa14E..........a
1420: 61 31 35 00 80 2B D7 80  04 01 A6 80 23 5D 00 80  a15..+......#]..
1430: A7 80 5B A2 80 D7 80 04  01 D7 80 04 01 74 6C 65  ..[..........tle
1440: 30 AE 03 D7 80 04 01 05  80 2B D7 80 04 01 A8 80  0........+......
1450: 23 52 8E 80 F0 FF FF 7F  F0 FF FF 7F 61 61 31 35  #R..........aa15
1460: 45 8E 80 F0 FF FF 7F F0  FF FF 7F 61 30 31 35 00  E..........a015.
1470: 80 2B D7 80 04 01 A9 80  23 AE 04 D7 80 04 01 00  .+......#.......
1480: 00 5B A2 80 D7 80 04 01  D7 80 04 01 74 6C 65 31  .[..........tle1
1490: 52 8E 80 F0 FF FF 7F F0  FF FF 7F 61 30 31 35 45  R..........a015E
14A0: 8E 80 F0 FF FF 7F F0 FF  FF 7F 61 61 31 36 00 80  ..........aa16..
14B0: 5B 8C 80 DA 80 04 01 DA  80 04 01 70 61 6E 31 1C  [..........pan1.
14C0: 21 80 7C 00 DA 80 04 01  2B DA 80 04 01 AA 80 23  !.|.....+......#
14D0: 7C 01 DA 80 04 01 52 8E  80 F0 FF FF 7F F0 FF FF  |.....R.........
14E0: 7F 61 61 31 36 45 8E 80  F0 FF FF 7F F0 FF FF 7F  .aa16E..........
14F0: 61 61 31 37 00 80 2B D9  80 04 01 AB 80 23 5C 00  aa17..+......#\.
1500: 52 80 5C 01 52 80 9A 5B  8A 80 D9 80 04 01 D9 80  R.\.R..[........
1510: 04 01 74 68 6B 31 1C 21  80 5B 8C 80 DA 80 04 01  ..thk1.!.[......
1520: DA 80 04 01 70 61 6E 32  52 8E 80 F0 FF FF 7F F0  ....pan2R.......
1530: FF FF 7F 61 61 31 37 45  8E 80 F0 FF FF 7F F0 FF  ...aa17E........
1540: FF 7F 61 61 31 38 00 80  2B D9 80 04 01 AC 80 23  ..aa18..+......#
1550: 2B D9 80 04 01 AD 80 23  52 8E 80 F0 FF FF 7F F0  +......#R.......
1560: FF FF 7F 61 61 31 38 45  8E 80 F0 FF FF 7F F0 FF  ...aa18E........
1570: FF 7F 61 61 31 39 00 80  5B 8A 80 D9 80 04 01 D9  ..aa19..[.......
1580: 80 04 01 73 74 62 30 2B  D9 80 04 01 AE 80 23 2B  ...stb0+......#+
1590: D9 80 04 01 AF 80 23 52  8E 80 F0 FF FF 7F F0 FF  ......#R........
15A0: FF 7F 61 61 31 39 45 8E  80 F0 FF FF 7F F0 FF FF  ..aa19E.........
15B0: 7F 61 61 32 30 00 80 AE  03 D7 80 04 01 05 80 2B  .aa20..........+
15C0: D7 80 04 01 B0 80 23 AE  04 D7 80 04 01 00 00 5B  ......#........[
15D0: B1 80 D7 80 04 01 D7 80  04 01 6E 6F 30 30 2B D7  ..........no00+.
15E0: 80 04 01 B2 80 23 52 8E  80 F0 FF FF 7F F0 FF FF  .....#R.........
15F0: 7F 61 61 32 30 45 8E 80  F0 FF FF 7F F0 FF FF 7F  .aa20E..........
1600: 61 61 32 31 00 80 2B D7  80 04 01 B3 80 23 5B A2  aa21..+......#[.
1610: 80 D7 80 04 01 D7 80 04  01 74 6C 65 30 2B D7 80  .........tle0+..
1620: 04 01 B4 80 23 2B D7 80  04 01 B5 80 23 52 8E 80  ....#+......#R..
1630: F0 FF FF 7F F0 FF FF 7F  61 61 32 31 45 8E 80 F0  ........aa21E...
1640: FF FF 7F F0 FF FF 7F 61  61 32 32 00 80 5B 8A 80  .......aa22..[..
1650: D9 80 04 01 D9 80 04 01  73 74 62 31 1C 0A 80 5B  ........stb1...[
1660: A2 80 D7 80 04 01 D7 80  04 01 74 6C 65 31 2B D9  ..........tle1+.
1670: 80 04 01 B6 80 23 5B 8A  80 D9 80 04 01 D9 80 04  .....#[.........
1680: 01 73 74 61 30 2B D9 80  04 01 B7 80 23 52 8E 80  .sta0+......#R..
1690: F0 FF FF 7F F0 FF FF 7F  61 61 32 32 45 8E 80 F0  ........aa22E...
16A0: FF FF 7F F0 FF FF 7F 61  61 32 33 00 80 2B D9 80  .......aa23..+..
16B0: 04 01 B8 80 23 2B D9 80  04 01 B9 80 23 52 8E 80  ....#+......#R..
16C0: F0 FF FF 7F F0 FF FF 7F  61 61 32 33 45 8E 80 F0  ........aa23E...
16D0: FF FF 7F F0 FF FF 7F 61  61 32 34 00 80 AE 03 D9  .......aa24.....
16E0: 80 04 01 05 80 2B D9 80  04 01 BA 80 23 AE 04 D9  .....+......#...
16F0: 80 04 01 00 00 5B BB 80  D7 80 04 01 D7 80 04 01  .....[..........
1700: 74 6C 62 30 1C 1F 80 52  8E 80 F0 FF FF 7F F0 FF  tlb0...R........
1710: FF 7F 61 61 32 34 45 8E  80 F0 FF FF 7F F0 FF FF  ..aa24E.........
1720: 7F 61 61 32 35 00 80 AE  03 D7 80 04 01 05 80 2B  .aa25..........+
1730: D7 80 04 01 BC 80 23 2B  D7 80 04 01 BD 80 23 AE  ......#+......#.
1740: 04 D7 80 04 01 00 00 52  8E 80 F0 FF FF 7F F0 FF  .......R........
1750: FF 7F 61 61 32 35 45 8E  80 F0 FF FF 7F F0 FF FF  ..aa25E.........
1760: 7F 61 61 32 36 00 80 5B  BB 80 D7 80 04 01 D7 80  .aa26..[........
1770: 04 01 74 6C 62 31 5B 8A  80 D9 80 04 01 D9 80 04  ..tlb1[.........
1780: 01 73 74 61 31 2B D9 80  04 01 BE 80 23 2B D9 80  .sta1+......#+..
1790: 04 01 BF 80 23 81 00 D7  80 04 01 7C 00 D7 80 04  ....#......|....
17A0: 01 5B C0 80 D7 80 04 01  D7 80 04 01 70 65 30 32  .[..........pe02
17B0: 1C 1F 80 52 8E 80 F0 FF  FF 7F F0 FF FF 7F 61 61  ...R..........aa
17C0: 32 36 45 8E 80 F0 FF FF  7F F0 FF FF 7F 61 61 32  26E..........aa2
17D0: 37 00 80 2B D7 80 04 01  C1 80 23 52 8E 80 F0 FF  7..+......#R....
17E0: FF 7F F0 FF FF 7F 61 61  32 37 45 8E 80 F0 FF FF  ......aa27E.....
17F0: 7F F0 FF FF 7F 61 61 32  38 00 80 27 10 D9 80 04  .....aa28..'....
1800: 01 0D 81 01 D7 80 04 01  7C 01 D7 80 04 01 6B 69  ........|.....ki
1810: 64 6C 30 D7 80 04 01 1C  1F 80 2B D9 80 04 01 C2  dl0.......+.....
1820: 80 23 2A 10 D9 80 04 01  52 8E 80 F0 FF FF 7F F0  .#*.....R.......
1830: FF FF 7F 61 61 32 38 45  8E 80 F0 FF FF 7F F0 FF  ...aa28E........
1840: FF 7F 61 61 32 39 00 80  1C 02 80 7B D9 80 04 01  ..aa29.....{....
1850: BA D9 80 04 01 81 80 7D  80 7E 80 00 80 5B C3 80  .......}.~...[..
1860: D9 80 04 01 D9 80 04 01  72 69 64 30 2B D9 80 04  ........rid0+...
1870: 01 C4 80 23 52 8E 80 F0  FF FF 7F F0 FF FF 7F 61  ...#R..........a
1880: 61 32 39 45 8E 80 F0 FF  FF 7F F0 FF FF 7F 61 61  a29E..........aa
1890: 33 30 00 80 5D 00 80 63  80 5B A2 80 D7 80 04 01  30..]..c.[......
18A0: D7 80 04 01 74 6C 64 30  1C 27 80 2B D7 80 04 01  ....tld0.'.+....
18B0: C5 80 23 5B C3 80 D9 80  04 01 D9 80 04 01 72 69  ..#[..........ri
18C0: 64 31 03 02 10 C6 80 27  10 CE 80 04 01 07 1C 22  d1.....'......."
18D0: 80 52 8E 80 F0 FF FF 7F  F0 FF FF 7F 61 61 33 30  .R..........aa30
18E0: 45 8E 80 F0 FF FF 7F F0  FF FF 7F 61 61 33 31 00  E..........aa31.
18F0: 80 2B D9 80 04 01 C7 80  23 5B A2 80 D7 80 04 01  .+......#[......
1900: D7 80 04 01 74 6C 64 31  2B D9 80 04 01 C8 80 23  ....tld1+......#
1910: 2A 10 CE 80 04 01 5C 00  32 80 5C 01 32 80 5C 02  *.....\.2.\.2.\.
1920: 32 80 5C 03 32 80 9A 52  8E 80 F0 FF FF 7F F0 FF  2.\.2..R........
1930: FF 7F 61 61 33 31 45 8E  80 F0 FF FF 7F F0 FF FF  ..aa31E.........
1940: 7F 61 61 33 32 00 80 1C  0A 80 AE 03 D9 80 04 01  .aa32...........
1950: 05 80 2B D9 80 04 01 C9  80 23 AE 04 D9 80 04 01  ..+......#......
1960: 00 00 5B C3 80 D9 80 04  01 D9 80 04 01 72 69 64  ..[..........rid
1970: 32 03 02 10 02 80 27 10  CE 80 04 01 07 1C 27 80  2.....'.......'.
1980: 5B CA 80 D7 80 04 01 D7  80 04 01 70 65 30 37 52  [..........pe07R
1990: 8E 80 F0 FF FF 7F F0 FF  FF 7F 61 61 33 32 45 8E  ..........aa32E.
19A0: 80 F0 FF FF 7F F0 FF FF  7F 61 61 33 33 00 80 1C  .........aa33...
19B0: 21 80 5B 8C 80 DA 80 04  01 DA 80 04 01 70 61 6E  !.[..........pan
19C0: 33 7B D7 80 04 01 2B D7  80 04 01 CB 80 2A 10 CE  3{....+......*..
19D0: 80 04 01 52 8E 80 F0 FF  FF 7F F0 FF FF 7F 61 61  ...R..........aa
19E0: 33 33 45 8E 80 F0 FF FF  7F F0 FF FF 7F 61 61 33  33E..........aa3
19F0: 34 00 80 4E 01 D9 80 04  01 27 10 CF 80 04 01 1C  4..N.....'......
1A00: BA DB 80 04 01 85 80 86  80 7A 80 CC 80 5B 8B 80  .........z...[..
1A10: DB 80 04 01 DB 80 04 01  61 64 6C 30 1C 02 80 45  ........adl0...E
1A20: 8E 80 E1 80 04 01 E1 80  04 01 72 64 6F 6E 00 80  ..........rdon..
1A30: 1C 22 80 2B D7 80 04 01  CD 80 23 5B CA 80 D7 80  .".+......#[....
1A40: 04 01 D7 80 04 01 70 65  30 38 1C 0A 80 2B D7 80  ......pe08...+..
1A50: 04 01 CE 80 23 52 8E 80  F0 FF FF 7F F0 FF FF 7F  ....#R..........
1A60: 61 61 33 34 45 8E 80 F0  FF FF 7F F0 FF FF 7F 61  aa34E..........a
1A70: 61 33 35 00 80 2B D7 80  04 01 CF 80 23 52 8E 80  a35..+......#R..
1A80: F0 FF FF 7F F0 FF FF 7F  61 61 33 35 45 8E 80 F0  ........aa35E...
1A90: FF FF 7F F0 FF FF 7F 61  61 33 36 00 80 2B D7 80  .......aa36..+..
1AA0: 04 01 D0 80 23 52 8E 80  F0 FF FF 7F F0 FF FF 7F  ....#R..........
1AB0: 61 61 33 36 45 8E 80 F0  FF FF 7F F0 FF FF 7F 61  aa36E..........a
1AC0: 61 33 37 00 80 6B 69 64  6C 30 D7 80 04 01 2B D7  a37..kidl0....+.
1AD0: 80 04 01 D1 80 23 52 8E  80 F0 FF FF 7F F0 FF FF  .....#R.........
1AE0: 7F 61 61 33 37 45 8E 80  F0 FF FF 7F F0 FF FF 7F  .aa37E..........
1AF0: 61 61 33 38 00 80 1C 22  80 2B D7 80 04 01 D2 80  aa38...".+......
1B00: 23 52 8E 80 F0 FF FF 7F  F0 FF FF 7F 61 61 33 38  #R..........aa38
1B10: 45 8E 80 F0 FF FF 7F F0  FF FF 7F 61 61 33 39 00  E..........aa39.
1B20: 80 5B B1 80 D7 80 04 01  D7 80 04 01 79 65 73 30  .[..........yes0
1B30: 1C 27 80 27 10 CF 80 04  01 1A 2B D7 80 04 01 D3  .'.'......+.....
1B40: 80 23 53 D7 80 04 01 D7  80 04 01 79 65 73 30 52  .#S........yes0R
1B50: 8E 80 F0 FF FF 7F F0 FF  FF 7F 61 61 33 39 45 8E  ..........aa39E.
1B60: 80 F0 FF FF 7F F0 FF FF  7F 61 61 34 30 00 80 27  .........aa40..'
1B70: 10 D7 80 04 01 0A 1C 0A  80 29 10 F0 FF FF 7F 42  .........).....B
1B80: 55 8E 80 F0 FF FF 7F F0  FF FF 7F 61 61 34 30 45  U..........aa40E
1B90: 8E 80 F0 FF FF 7F F0 FF  FF 7F 61 61 34 32 00 80  ..........aa42..
1BA0: 45 8E 80 E1 80 04 01 E1  80 04 01 73 65 30 30 00  E..........se00.
1BB0: 80 BB 88 80 E1 80 04 01  E1 80 04 01 73 30 30 30  ............s000
1BC0: 00 80 5B 89 80 E1 80 04  01 E1 80 04 01 6B 64 6F  ..[..........kdo
1BD0: 31 03 02 10 D4 80 27 10  CE 80 04 01 07 1C D5 80  1.....'.........
1BE0: 27 10 F0 FF FF 7F 47 1C  0A 80 2B D9 80 04 01 D6  '.....G...+.....
1BF0: 80 2A 10 CE 80 04 01 55  8E 80 F0 FF FF 7F F0 FF  .*.....U........
1C00: FF 7F 61 61 34 32 45 8E  80 F0 FF FF 7F F0 FF FF  ..aa42E.........
1C10: 7F 30 72 30 30 00 80 4A  F0 FF FF 7F DB 80 04 01  .0r00..J........
1C20: 2B D9 80 04 01 D7 80 23  02 01 00 00 80 00 A7 1C  +......#........
1C30: 2B DB 80 04 01 D8 80 23  52 8E 80 F0 FF FF 7F F0  +......#R.......
1C40: FF FF 7F 30 72 30 30 45  8E 80 F0 FF FF 7F F0 FF  ...0r00E........
1C50: FF 7F 30 72 30 31 00 80  5B 8B 80 DB 80 04 01 DB  ..0r01..[.......
1C60: 80 04 01 61 64 30 31 27  10 CF 80 04 01 1B 03 02  ...ad01'........
1C70: 10 5E 80 27 10 CE 80 04  01 07 1C D9 80 52 8E 80  .^.'.........R..
1C80: F0 FF FF 7F F0 FF FF 7F  30 72 30 31 45 8E 80 F0  ........0r01E...
1C90: FF FF 7F F0 FF FF 7F 30  72 30 32 00 80 2B DB 80  .......0r02..+..
1CA0: 04 01 DA 80 01 25 1D 2B  DB 80 04 01 D8 80 23 52  .....%.+......#R
1CB0: 8E 80 F0 FF FF 7F F0 FF  FF 7F 30 72 30 30 45 8E  ..........0r00E.
1CC0: 80 F0 FF FF 7F F0 FF FF  7F 30 72 30 31 00 80 5B  .........0r01..[
1CD0: 8B 80 DB 80 04 01 DB 80  04 01 61 64 30 31 27 10  ..........ad01'.
1CE0: CF 80 04 01 1B 03 02 10  5E 80 27 10 CE 80 04 01  ........^.'.....
1CF0: 07 1C 02 80 2B DB 80 04  01 DB 80 1C 30 80 52 8E  ....+.......0.R.
1D00: 80 F0 FF FF 7F F0 FF FF  7F 30 72 30 31 45 8E 80  .........0r01E..
1D10: F0 FF FF 7F F0 FF FF 7F  30 72 30 32 00 80 2B DB  ........0r02..+.
1D20: 80 04 01 DC 80 1C DD 80  1A 29 4B 1C 22 80 29 10  .........)K.".).
1D30: F0 FF FF 7F 48 1A D6 49  1A F7 49 1C 22 80 52 8E  ....H..I..I.".R.
1D40: 80 F0 FF FF 7F F0 FF FF  7F 30 72 30 32 45 8E 80  .........0r02E..
1D50: F0 FF FF 7F F0 FF FF 7F  30 62 6C 66 00 80 35 3F  ........0blf..5?
1D60: 80 78 1C 05 80 AB 0A 2D  F0 FF FF 7F F0 FF FF 7F  .x.....-........
1D70: 31 70 61 31 2D F0 FF FF  7F F0 FF FF 7F 31 70 62  1pa1-........1pb
1D80: 31 2D F0 FF FF 7F F0 FF  FF 7F 32 70 62 31 5C 00  1-........2pb1\.
1D90: 00 80 5C 01 00 80 5C 02  40 80 5C 03 41 80 9A 46  ..\...\.@.\.A..F
1DA0: 00 45 42 80 F0 FF FF 7F  F0 FF FF 7F 66 64 69 32  .EB.........fdi2
1DB0: 00 80 21 00                                       ..!.            
```

#### Opcodes

```
  0: 0x0ED6 [0x42] SET_CLI_EVENT_CANCEL_DATA()
  1: 0x0ED7 [0x03] ExtData[1]->WorkLocal[1] = Work_Zone[8]
  2: 0x0EDC [0x03] ExtData[1]->WorkLocal[2] = Work_Zone[9]
  3: 0x0EE1 [0x02] IF !(ExtData[1]->WorkLocal[2] == 0*) GOTO 0x0F0E
  4: 0x0EE9 [0x48] [System] [7519*]:
    → "You can now proceed with the Aht Urhgan mission "Nashmeira's Plea.""
  5: 0x0EEC [0x1C] WAIT(120* ticks)
  6: 0x0EEF [0x48] [System] [7520*]:
    → "Do you wish to proceed with the mission?"
  7: 0x0EF2 [0x23] WAIT_FOR_DIALOG_INTERACTION
  8: 0x0EF3 [0x24] CREATE_DIALOG(message_id=7521*, default_option=1*, option_flags=0*)
    → "Proceed with the mission? [Yes./No.]"
  9: 0x0EFA [0x25] WAIT_DIALOG_SELECT()
 10: 0x0EFB [0x02] IF !(Work_Zone[0] == 1*) GOTO 0x0F0E
 11: 0x0F03 [0x03] Work_Zone[1] = 99*
 12: 0x0F08 [0x01] GOTO 0x1DB2

SUBROUTINE_0F0E:
 13: 0x0F0E [0x1A] CALL_SUBROUTINE(address=0x49D6)
 14: 0x0F11 [0x46] CAMERA_CONTROL: Disable user control
 15: 0x0F13 [0x38] SET_CLIENT_EVENT_MODE(mode=19*)
 16: 0x0F16 [0x34] LOAD_UNLOAD_ZONE(zone_id=77*)
 17: 0x0F19 [0x77] SET_EVENT_TIME_WEATHER(hour=255*, weather=1*)
 18: 0x0F1E [0x1C] WAIT(30* ticks)
 19: 0x0F21 [0xAB] EventEntity->UnknownFlag = 1 // Enable unknown flag
 20: 0x0F23 [0x29] REQ_SET_WAIT(priority=0x10, entity_id=Unnamed NPC (ID: 17072359/0x010480E7), tag_num=0x06)
 21: 0x0F2A [0x27] REQ_SET(priority=0x10, entity_id=Nashmeira (ID: 17072343/0x010480D7), tag_num=0x04)
 22: 0x0F31 [0x27] REQ_SET(priority=0x10, entity_id=Ghatsad (ID: 17072346/0x010480DA), tag_num=0x04)
 23: 0x0F38 [0x27] REQ_SET(priority=0x10, entity_id=Alexander (ID: 17072353/0x010480E1), tag_num=0x04)
 24: 0x0F3F [0x27] REQ_SET(priority=0x10, entity_id=Raubahn (ID: 17072347/0x010480DB), tag_num=0x04)
 25: 0x0F46 [0x27] REQ_SET(priority=0x10, entity_id=Razfahd (ID: 17072345/0x010480D9), tag_num=0x04)
 26: 0x0F4D [0x27] REQ_SET(priority=0x10, entity_id=Unnamed NPC (ID: 17072354/0x010480E2), tag_num=0x04)
 27: 0x0F54 [0x92] Nashmeira (ID: 17072343/0x010480D7)->Render.Flags3 ^= 0x01
 28: 0x0F5A [0x92] Ghatsad (ID: 17072346/0x010480DA)->Render.Flags3 ^= 0x01
 29: 0x0F60 [0x92] Alexander (ID: 17072353/0x010480E1)->Render.Flags3 ^= 0x01
 30: 0x0F66 [0x92] Raubahn (ID: 17072347/0x010480DB)->Render.Flags3 ^= 0x01
 31: 0x0F6C [0x92] Razfahd (ID: 17072345/0x010480D9)->Render.Flags3 ^= 0x01
 32: 0x0F72 [0x92] Unnamed NPC (ID: 17072354/0x010480E2)->Render.Flags3 ^= 0x01
 33: 0x0F78 [0x94] LocalPlayer->Render.Flags3 ^= 0x01
