# 17072384 - Tenzen

## Common Data

| Field            | Value                            |
|------------------|----------------------------------|
| Zone             | Alzadaal Undersea Ruins (ID: 72) |
| Block Size       | 348 bytes                        |
| Total Events     | 10                               |
| References Count | 20                               |

## List of Events

| Event ID                 | Entrypoint   |   Size |   Instructions |
|--------------------------|--------------|--------|----------------|
| [65535](#event-65535)    | 0x0000       |      1 |              1 |
| [124](#event-124)        | 0x0001       |      1 |              1 |
| [125](#event-125)        | 0x0002       |      1 |              1 |
| [65535.1](#event-655351) | 0x0003       |     22 |              6 |
| [65535.2](#event-655352) | 0x0019       |     22 |              6 |
| [65535.3](#event-655353) | 0x002F       |     22 |              6 |
| [65535.4](#event-655354) | 0x0045       |     48 |             10 |
| [65535.5](#event-655355) | 0x0075       |     22 |              6 |
| [65535.6](#event-655356) | 0x008B       |     22 |              6 |
| [65535.7](#event-655357) | 0x00A1       |     48 |             10 |

## DAT References (imed_data)

|   Index | Hex Value   |   Dec Value |
|---------|-------------|-------------|
|       0 | 0x0028      |          40 |
|       1 | 0x69136     |      430390 |
|       2 | 0xFFF72A3C  |  4294388284 |
|       3 | 0x0032      |          50 |
|       4 | 0x001E      |          30 |
|       5 | 0x6C47E     |      443518 |
|       6 | 0xFFF721DF  |  4294386143 |
|       7 | 0x0000      |           0 |
|       8 | 0x000D      |          13 |
|       9 | 0x6CB46     |      445254 |
|      10 | 0xFFF722BD  |  4294386365 |
|      11 | 0x000A      |          10 |
|      12 | 0x0296      |         662 |
|      13 | 0xFFF8D179  |  4294496633 |
|      14 | 0x66493     |      418963 |
|      15 | 0xFFFFF093  |  4294963347 |
|      16 | 0xFFF8C2EC  |  4294492908 |
|      17 | 0x66DBA     |      421306 |
|      18 | 0xFFF8BA0A  |  4294490634 |
|      19 | 0x66C65     |      420965 |

## Events

### Event 65535

#### Metadata

| Field        | Value   |
|--------------|---------|
| Entrypoint   | 0x0000  |
| Data Size    | 1 bytes |
| Instructions | 1       |

```
      00 01 02 03 04 05 06 07  08 09 0A 0B 0C 0D 0E 0F
      -- -- -- -- -- -- -- --  -- -- -- -- -- -- -- --
0000: 00                                                .               
```

#### Opcodes

```
  0: 0x0000 [0x00] END_REQSTACK()
```

### Event 124

#### Metadata

| Field        | Value   |
|--------------|---------|
| Entrypoint   | 0x0001  |
| Data Size    | 1 bytes |
| Instructions | 1       |

```
      00 01 02 03 04 05 06 07  08 09 0A 0B 0C 0D 0E 0F
      -- -- -- -- -- -- -- --  -- -- -- -- -- -- -- --
0000:    00                                              .              
```

#### Opcodes

```
  0: 0x0001 [0x00] END_REQSTACK()
```

### Event 125

#### Metadata

| Field        | Value   |
|--------------|---------|
| Entrypoint   | 0x0002  |
| Data Size    | 1 bytes |
| Instructions | 1       |

```
      00 01 02 03 04 05 06 07  08 09 0A 0B 0C 0D 0E 0F
      -- -- -- -- -- -- -- --  -- -- -- -- -- -- -- --
0000:       00                                            .             
```

#### Opcodes

```
  0: 0x0002 [0x00] END_REQSTACK()
```

### Event 65535.1

#### Metadata

| Field        | Value    |
|--------------|----------|
| Entrypoint   | 0x0003   |
| Data Size    | 22 bytes |
| Instructions | 6        |

```
      00 01 02 03 04 05 06 07  08 09 0A 0B 0C 0D 0E 0F
      -- -- -- -- -- -- -- --  -- -- -- -- -- -- -- --
0000:          32 00 80 1F 00  01 80 02 80 03 80 1F 01     2............
0010: 1E D7 80 04 01 1C 04 80  00                       .........       
```

#### Opcodes

```
  0: 0x0003 [0x32] ExtData[1]->MainSpeed = 40* * 0.1
  1: 0x0006 [0x1F] MOVE_ENTITY: EventEntity moves to X=430.390*, Z=-579.012*, Y=0.050*
  2: 0x000E [0x1F] MOVE_ENTITY: Update entity position (mode=1)
  3: 0x0010 [0x1E] EventEntity looks at Nashmeira (ID: 17072343/0x010480D7) and starts talking
  4: 0x0015 [0x1C] WAIT(30* ticks)
  5: 0x0018 [0x00] END_REQSTACK()
```

### Event 65535.2

#### Metadata

| Field        | Value    |
|--------------|----------|
| Entrypoint   | 0x0019   |
| Data Size    | 22 bytes |
| Instructions | 6        |

```
      00 01 02 03 04 05 06 07  08 09 0A 0B 0C 0D 0E 0F
      -- -- -- -- -- -- -- --  -- -- -- -- -- -- -- --
0010:                             32 00 80 1F 00 05 80           2......
0020: 06 80 07 80 1F 01 1E 01  81 04 01 1C 04 80 00     ............... 
```

#### Opcodes

```
  0: 0x0019 [0x32] ExtData[1]->MainSpeed = 40* * 0.1
  1: 0x001C [0x1F] MOVE_ENTITY: EventEntity moves to X=443.518*, Z=-581.153*, Y=0.000*
  2: 0x0024 [0x1F] MOVE_ENTITY: Update entity position (mode=1)
  3: 0x0026 [0x1E] EventEntity looks at Iroha (ID: 17072385/0x01048101) and starts talking
  4: 0x002B [0x1C] WAIT(30* ticks)
  5: 0x002E [0x00] END_REQSTACK()
```

### Event 65535.3

#### Metadata

| Field        | Value    |
|--------------|----------|
| Entrypoint   | 0x002F   |
| Data Size    | 22 bytes |
| Instructions | 6        |

```
      00 01 02 03 04 05 06 07  08 09 0A 0B 0C 0D 0E 0F
      -- -- -- -- -- -- -- --  -- -- -- -- -- -- -- --
0020:                                               32                 2
0030: 08 80 1F 00 09 80 0A 80  03 80 1F 01 1E 01 81 04  ................
0040: 01 1C 04 80 00                                    .....           
```

#### Opcodes

```
  0: 0x002F [0x32] ExtData[1]->MainSpeed = 13* * 0.1
  1: 0x0032 [0x1F] MOVE_ENTITY: EventEntity moves to X=445.254*, Z=-580.931*, Y=0.050*
  2: 0x003A [0x1F] MOVE_ENTITY: Update entity position (mode=1)
  3: 0x003C [0x1E] EventEntity looks at Iroha (ID: 17072385/0x01048101) and starts talking
  4: 0x0041 [0x1C] WAIT(30* ticks)
  5: 0x0044 [0x00] END_REQSTACK()
```

### Event 65535.4

#### Metadata

| Field        | Value    |
|--------------|----------|
| Entrypoint   | 0x0045   |
| Data Size    | 48 bytes |
| Instructions | 10       |

```
      00 01 02 03 04 05 06 07  08 09 0A 0B 0C 0D 0E 0F
      -- -- -- -- -- -- -- --  -- -- -- -- -- -- -- --
0040:                32 08 80  1F 00 09 80 0A 80 03 80       2..........
0050: 1F 01 6F 4A F8 FF FF 7F  01 81 04 01 6F 76 F8 FF  ..oJ........ov..
0060: FF 7F 1C 0B 80 5B 0C 80  00 81 04 01 00 81 04 01  .....[..........
0070: 73 68 61 30 00                                    sha0.           
```

#### Opcodes

```
  0: 0x0045 [0x32] ExtData[1]->MainSpeed = 13* * 0.1
  1: 0x0048 [0x1F] MOVE_ENTITY: EventEntity moves to X=445.254*, Z=-580.931*, Y=0.050*
  2: 0x0050 [0x1F] MOVE_ENTITY: Update entity position (mode=1)
  3: 0x0052 [0x6F] WAIT_FRAME_DELAY: Yield until WaitTime reaches zero
  4: 0x0053 [0x4A] EventEntity looks at Iroha (ID: 17072385/0x01048101)
  5: 0x005C [0x6F] WAIT_FRAME_DELAY: Yield until WaitTime reaches zero
  6: 0x005D [0x76] CHECK_ENTITY_RENDER_FLAGS: Wait until EventEntity Render.Flags0 and Render.Flags3 conditions are met
  7: 0x0062 [0x1C] WAIT(10* ticks)
  8: 0x0065 [0x5B] LOAD_EXT_SCHEDULER: Load scheduler "sha0" with entities [Tenzen (ID: 17072384/0x01048100), Tenzen (ID: 17072384/0x01048100)], work=662*
  9: 0x0074 [0x00] END_REQSTACK()
```

### Event 65535.5

#### Metadata

| Field        | Value    |
|--------------|----------|
| Entrypoint   | 0x0075   |
| Data Size    | 22 bytes |
| Instructions | 6        |

```
      00 01 02 03 04 05 06 07  08 09 0A 0B 0C 0D 0E 0F
      -- -- -- -- -- -- -- --  -- -- -- -- -- -- -- --
0070:                32 00 80  1F 00 0D 80 0E 80 0F 80       2..........
0080: 1F 01 1E D7 80 04 01 1C  04 80 00                 ...........     
```

#### Opcodes

```
  0: 0x0075 [0x32] ExtData[1]->MainSpeed = 40* * 0.1
  1: 0x0078 [0x1F] MOVE_ENTITY: EventEntity moves to X=-470.663*, Z=418.963*, Y=-3.949*
  2: 0x0080 [0x1F] MOVE_ENTITY: Update entity position (mode=1)
  3: 0x0082 [0x1E] EventEntity looks at Nashmeira (ID: 17072343/0x010480D7) and starts talking
  4: 0x0087 [0x1C] WAIT(30* ticks)
  5: 0x008A [0x00] END_REQSTACK()
```

### Event 65535.6

#### Metadata

| Field        | Value    |
|--------------|----------|
| Entrypoint   | 0x008B   |
| Data Size    | 22 bytes |
| Instructions | 6        |

```
      00 01 02 03 04 05 06 07  08 09 0A 0B 0C 0D 0E 0F
      -- -- -- -- -- -- -- --  -- -- -- -- -- -- -- --
0080:                                   32 00 80 1F 00             2....
0090: 10 80 11 80 0F 80 1F 01  1E 01 81 04 01 1C 04 80  ................
00A0: 00                                                .               
```

#### Opcodes

```
  0: 0x008B [0x32] ExtData[1]->MainSpeed = 40* * 0.1
  1: 0x008E [0x1F] MOVE_ENTITY: EventEntity moves to X=-474.388*, Z=421.306*, Y=-3.949*
  2: 0x0096 [0x1F] MOVE_ENTITY: Update entity position (mode=1)
  3: 0x0098 [0x1E] EventEntity looks at Iroha (ID: 17072385/0x01048101) and starts talking
  4: 0x009D [0x1C] WAIT(30* ticks)
  5: 0x00A0 [0x00] END_REQSTACK()
```

### Event 65535.7

#### Metadata

| Field        | Value    |
|--------------|----------|
| Entrypoint   | 0x00A1   |
| Data Size    | 48 bytes |
| Instructions | 10       |

```
      00 01 02 03 04 05 06 07  08 09 0A 0B 0C 0D 0E 0F
      -- -- -- -- -- -- -- --  -- -- -- -- -- -- -- --
00A0:    32 08 80 1F 00 12 80  13 80 0F 80 1F 01 6F 4A   2............oJ
00B0: F8 FF FF 7F 01 81 04 01  6F 76 F8 FF FF 7F 1C 0B  ........ov......
00C0: 80 5B 0C 80 00 81 04 01  00 81 04 01 73 68 61 30  .[..........sha0
00D0: 00                                                .               
```

#### Opcodes

```
  0: 0x00A1 [0x32] ExtData[1]->MainSpeed = 13* * 0.1
  1: 0x00A4 [0x1F] MOVE_ENTITY: EventEntity moves to X=-476.662*, Z=420.965*, Y=-3.949*
  2: 0x00AC [0x1F] MOVE_ENTITY: Update entity position (mode=1)
  3: 0x00AE [0x6F] WAIT_FRAME_DELAY: Yield until WaitTime reaches zero
  4: 0x00AF [0x4A] EventEntity looks at Iroha (ID: 17072385/0x01048101)
  5: 0x00B8 [0x6F] WAIT_FRAME_DELAY: Yield until WaitTime reaches zero
  6: 0x00B9 [0x76] CHECK_ENTITY_RENDER_FLAGS: Wait until EventEntity Render.Flags0 and Render.Flags3 conditions are met
  7: 0x00BE [0x1C] WAIT(10* ticks)
  8: 0x00C1 [0x5B] LOAD_EXT_SCHEDULER: Load scheduler "sha0" with entities [Tenzen (ID: 17072384/0x01048100), Tenzen (ID: 17072384/0x01048100)], work=662*
  9: 0x00D0 [0x00] END_REQSTACK()
```
