# 17072338

## Common Data

| Field            | Value                            |
|------------------|----------------------------------|
| Zone             | Alzadaal Undersea Ruins (ID: 72) |
| Block Size       | 11492 bytes                      |
| Total Events     | 6                                |
| References Count | 229                              |

## List of Events

| Event ID              | Entrypoint   |   Size |   Instructions |
|-----------------------|--------------|--------|----------------|
| [65535](#event-65535) | 0x0000       |      1 |              1 |
| [1](#event-1)         | 0x0001       |   5883 |            885 |
| [2](#event-2)         | 0x16FC       |   1142 |            129 |
| [3](#event-3)         | 0x1B72       |   1600 |            181 |
| [4](#event-4)         | 0x21B2       |    274 |             34 |
| [5](#event-5)         | 0x22C4       |   1635 |            181 |

## DAT References (imed_data)

|   Index | Hex Value   |   Dec Value |
|---------|-------------|-------------|
|       0 | 0x0013      |          19 |
|       1 | 0x00A3      |         163 |
|       2 | 0x001E      |          30 |
|       3 | 0x011E      |         286 |
|       4 | 0x0000      |           0 |
|       5 | 0x000F      |          15 |
|       6 | 0x00FA      |         250 |
|       7 | 0x012C      |         300 |
|       8 | 0x005A      |          90 |
|       9 | 0x1C62      |        7266 |
|      10 | 0x1C63      |        7267 |
|      11 | 0x0078      |         120 |
|      12 | 0x0009      |           9 |
|      13 | 0x1C64      |        7268 |
|      14 | 0x003C      |          60 |
|      15 | 0x0023      |          35 |
|      16 | 0x1C65      |        7269 |
|      17 | 0x0003      |           3 |
|      18 | 0x0028      |          40 |
|      19 | 0x1C66      |        7270 |
|      20 | 0x002D      |          45 |
|      21 | 0x1C67      |        7271 |
|      22 | 0x1C68      |        7272 |
|      23 | 0x1C69      |        7273 |
|      24 | 0x0020      |          32 |
|      25 | 0x1C6A      |        7274 |
|      26 | 0x1C6C      |        7276 |
|      27 | 0x1C6D      |        7277 |
|      28 | 0x1C6E      |        7278 |
|      29 | 0x0026      |          38 |
|      30 | 0x1C6F      |        7279 |
|      31 | 0x1C70      |        7280 |
|      32 | 0x1C71      |        7281 |
|      33 | 0x001A      |          26 |
|      34 | 0x1C72      |        7282 |
|      35 | 0x0019      |          25 |
|      36 | 0x1C73      |        7283 |
|      37 | 0x1C74      |        7284 |
|      38 | 0x1C75      |        7285 |
|      39 | 0x1C77      |        7287 |
|      40 | 0x0168      |         360 |
|      41 | 0x67C26     |      424998 |
|      42 | 0xFFF72661  |  4294387297 |
|      43 | 0x1C78      |        7288 |
|      44 | 0x0007      |           7 |
|      45 | 0x1C79      |        7289 |
|      46 | 0x0001      |           1 |
|      47 | 0x1C7A      |        7290 |
|      48 | 0x1C7B      |        7291 |
|      49 | 0x030C      |         780 |
|      50 | 0x0002      |           2 |
|      51 | 0x030F      |         783 |
|      52 | 0x0310      |         784 |
|      53 | 0x0004      |           4 |
|      54 | 0x031A      |         794 |
|      55 | 0x0005      |           5 |
|      56 | 0x031B      |         795 |
|      57 | 0x0006      |           6 |
|      58 | 0x0339      |         825 |
|      59 | 0x033A      |         826 |
|      60 | 0x0008      |           8 |
|      61 | 0x033B      |         827 |
|      62 | 0x037E      |         894 |
|      63 | 0x000A      |          10 |
|      64 | 0x0384      |         900 |
|      65 | 0x000B      |          11 |
|      66 | 0x038D      |         909 |
|      67 | 0x1C7C      |        7292 |
|      68 | 0x1C7D      |        7293 |
|      69 | 0x1C7E      |        7294 |
|      70 | 0x1C80      |        7296 |
|      71 | 0x1C81      |        7297 |
|      72 | 0x0096      |         150 |
|      73 | 0x1C82      |        7298 |
|      74 | 0x1C83      |        7299 |
|      75 | 0x1C84      |        7300 |
|      76 | 0x1C85      |        7301 |
|      77 | 0x1C86      |        7302 |
|      78 | 0x1C87      |        7303 |
|      79 | 0x1C88      |        7304 |
|      80 | 0x1C89      |        7305 |
|      81 | 0x1C8A      |        7306 |
|      82 | 0x1C8B      |        7307 |
|      83 | 0x1C8C      |        7308 |
|      84 | 0x1C8D      |        7309 |
|      85 | 0x1C8E      |        7310 |
|      86 | 0x1C8F      |        7311 |
|      87 | 0x1C90      |        7312 |
|      88 | 0x0045      |          69 |
|      89 | 0x1C91      |        7313 |
|      90 | 0x1C92      |        7314 |
|      91 | 0x1C93      |        7315 |
|      92 | 0x1C94      |        7316 |
|      93 | 0x1C95      |        7317 |
|      94 | 0x1C96      |        7318 |
|      95 | 0x1C97      |        7319 |
|      96 | 0x0016      |          22 |
|      97 | 0x1C98      |        7320 |
|      98 | 0x1C99      |        7321 |
|      99 | 0x1C9A      |        7322 |
|     100 | 0x1C9B      |        7323 |
|     101 | 0x1C9C      |        7324 |
|     102 | 0x1C9D      |        7325 |
|     103 | 0x1C9E      |        7326 |
|     104 | 0x1C9F      |        7327 |
|     105 | 0x1CA0      |        7328 |
|     106 | 0x1CA1      |        7329 |
|     107 | 0x1CA2      |        7330 |
|     108 | 0x1CA3      |        7331 |
|     109 | 0x1CA4      |        7332 |
|     110 | 0x1CA5      |        7333 |
|     111 | 0x1CA6      |        7334 |
|     112 | 0x1CA7      |        7335 |
|     113 | 0x1CA8      |        7336 |
|     114 | 0x1CA9      |        7337 |
|     115 | 0x1CAA      |        7338 |
|     116 | 0x1CAB      |        7339 |
|     117 | 0x1CAC      |        7340 |
|     118 | 0x1CAD      |        7341 |
|     119 | 0x1CAE      |        7342 |
|     120 | 0x1CAF      |        7343 |
|     121 | 0x1CB0      |        7344 |
|     122 | 0x1CB1      |        7345 |
|     123 | 0x1CB2      |        7346 |
|     124 | 0x1CB3      |        7347 |
|     125 | 0x1CB4      |        7348 |
|     126 | 0x1CB5      |        7349 |
|     127 | 0x1CB6      |        7350 |
|     128 | 0x1CB7      |        7351 |
|     129 | 0x1CB8      |        7352 |
|     130 | 0x006E      |         110 |
|     131 | 0x1CB9      |        7353 |
|     132 | 0x00C8      |         200 |
|     133 | 0x1CBA      |        7354 |
|     134 | 0x1CBB      |        7355 |
|     135 | 0x1CBC      |        7356 |
|     136 | 0x00B9      |         185 |
|     137 | 0x1CBD      |        7357 |
|     138 | 0x1CBE      |        7358 |
|     139 | 0x1CBF      |        7359 |
|     140 | 0x1CC0      |        7360 |
|     141 | 0x1CC1      |        7361 |
|     142 | 0x1CC2      |        7362 |
|     143 | 0x1CC3      |        7363 |
|     144 | 0x1CC4      |        7364 |
|     145 | 0x1CC5      |        7365 |
|     146 | 0x1CC6      |        7366 |
|     147 | 0x1CC7      |        7367 |
|     148 | 0x1CC8      |        7368 |
|     149 | 0x1CC9      |        7369 |
|     150 | 0x1CCA      |        7370 |
|     151 | 0x1CCB      |        7371 |
|     152 | 0x1CCC      |        7372 |
|     153 | 0x1CCD      |        7373 |
|     154 | 0x1CCE      |        7374 |
|     155 | 0x1CCF      |        7375 |
|     156 | 0x1CD0      |        7376 |
|     157 | 0x1CD1      |        7377 |
|     158 | 0x1CD2      |        7378 |
|     159 | 0x1CD3      |        7379 |
|     160 | 0x1CD4      |        7380 |
|     161 | 0x1CD5      |        7381 |
|     162 | 0x1CD6      |        7382 |
|     163 | 0x1CD7      |        7383 |
|     164 | 0x1CD8      |        7384 |
|     165 | 0x1CD9      |        7385 |
|     166 | 0x032C      |         812 |
|     167 | 0x1CDA      |        7386 |
|     168 | 0x1CDB      |        7387 |
|     169 | 0x1CDC      |        7388 |
|     170 | 0x1CDD      |        7389 |
|     171 | 0x1CDE      |        7390 |
|     172 | 0x1CDF      |        7391 |
|     173 | 0x1CE0      |        7392 |
|     174 | 0x1CE1      |        7393 |
|     175 | 0x1CE2      |        7394 |
|     176 | 0x1CE3      |        7395 |
|     177 | 0x1CE4      |        7396 |
|     178 | 0x1CE5      |        7397 |
|     179 | 0x00E9      |         233 |
|     180 | 0x1C6B      |        7275 |
|     181 | 0x1CE6      |        7398 |
|     182 | 0x1CE7      |        7399 |
|     183 | 0x1CE8      |        7400 |
|     184 | 0x0094      |         148 |
|     185 | 0x00F3      |         243 |
|     186 | 0x0111      |         273 |
|     187 | 0x00EC      |         236 |
|     188 | 0x035D      |         861 |
|     189 | 0x00B4      |         180 |
|     190 | 0x0015      |          21 |
|     191 | 0x034F      |         847 |
|     192 | 0x0064      |         100 |
|     193 | 0x004B      |          75 |
|     194 | 0x035E      |         862 |
|     195 | 0x00F0      |         240 |
|     196 | 0x1CFB      |        7419 |
|     197 | 0x1CFC      |        7420 |
|     198 | 0x1CFD      |        7421 |
|     199 | 0x0345      |         837 |
|     200 | 0x1CFE      |        7422 |
|     201 | 0x1CFF      |        7423 |
|     202 | 0x1D00      |        7424 |
|     203 | 0x1D01      |        7425 |
|     204 | 0x1D02      |        7426 |
|     205 | 0x1D03      |        7427 |
|     206 | 0x1D04      |        7428 |
|     207 | 0x1D05      |        7429 |
|     208 | 0x1D06      |        7430 |
|     209 | 0x1D07      |        7431 |
|     210 | 0x1D08      |        7432 |
|     211 | 0x1D09      |        7433 |
|     212 | 0x1D0A      |        7434 |
|     213 | 0x0317      |         791 |
|     214 | 0x00D2      |         210 |
|     215 | 0x1D0B      |        7435 |
|     216 | 0x1D0C      |        7436 |
|     217 | 0x1D0D      |        7437 |
|     218 | 0x00F9      |         249 |
|     219 | 0x010E      |         270 |
|     220 | 0x1D0E      |        7438 |
|     221 | 0x1D0F      |        7439 |
|     222 | 0x000D      |          13 |
|     223 | 0x1D10      |        7440 |
|     224 | 0x1D11      |        7441 |
|     225 | 0x1D12      |        7442 |
|     226 | 0x1D13      |        7443 |
|     227 | 0x00C9      |         201 |
|     228 | 0x00D7      |         215 |

## String References

- **7298**: Which part of the ruins do you ask about? [The windows./The pillars./The floor.]
- **7364**: How much do you know? [I'm an expert./Not so much.]
- **7386**: Ghatsad hands you an $3!

## Events

### Event 65535

#### Metadata

| Field        | Value   |
|--------------|---------|
| Entrypoint   | 0x0000  |
| Data Size    | 1 bytes |
| Instructions | 1       |

```
      00 01 02 03 04 05 06 07  08 09 0A 0B 0C 0D 0E 0F
      -- -- -- -- -- -- -- --  -- -- -- -- -- -- -- --
0000: 00                                                .               
```

#### Opcodes

```
  0: 0x0000 [0x00] END_REQSTACK()
```

### Event 1

#### Metadata

| Field        | Value      |
|--------------|------------|
| Entrypoint   | 0x0001     |
| Data Size    | 5883 bytes |
| Instructions | 885        |

```
      00 01 02 03 04 05 06 07  08 09 0A 0B 0C 0D 0E 0F
      -- -- -- -- -- -- -- --  -- -- -- -- -- -- -- --
0000:    42 03 01 00 02 10 03  00 00 03 10 1A F9 26 46   B............&F
0010: 01 38 00 80 79 00 F0 FF  FF 7F F0 FF FF 7F 29 10  .8..y.........).
0020: F0 80 04 01 04 29 10 F1  80 04 01 04 29 10 F3 80  .....)......)...
0030: 04 01 04 29 10 F2 80 04  01 04 92 01 F0 80 04 01  ...)............
0040: 92 01 F1 80 04 01 92 01  F3 80 04 01 92 01 F2 80  ................
0050: 04 01 94 01 F0 FF FF 7F  94 01 F0 80 04 01 94 01  ................
0060: F1 80 04 01 94 01 F3 80  04 01 94 01 F2 80 04 01  ................
0070: 29 10 F0 FF FF 7F 2F 29  10 F0 80 04 01 09 29 10  )...../)......).
0080: F1 80 04 01 09 29 10 F3  80 04 01 09 29 10 F2 80  .....)......)...
0090: 04 01 09 80 F0 FF FF 7F  80 F0 80 04 01 80 F1 80  ................
00A0: 04 01 80 F3 80 04 01 80  F2 80 04 01 5C 00 01 80  ............\...
00B0: 5C 01 01 80 9A 4E 01 F0  FF FF 7F 1C 02 80 45 03  \....N........E.
00C0: 80 F0 FF FF 7F F0 FF FF  7F 7A 30 30 30 04 80 1C  .........z000...
00D0: 05 80 27 10 F1 80 04 01  0A 1A D8 26 1C 06 80 52  ..'........&...R
00E0: 03 80 F0 FF FF 7F F0 FF  FF 7F 7A 30 30 30 45 03  ..........z000E.
00F0: 80 F0 FF FF 7F F0 FF FF  7F 7A 30 30 31 04 80 27  .........z001..'
0100: 10 F0 80 04 01 0A 27 10  F2 80 04 01 0A 1C 07 80  ......'.........
0110: 52 03 80 F0 FF FF 7F F0  FF FF 7F 7A 30 30 31 45  R..........z001E
0120: 03 80 F0 FF FF 7F F0 FF  FF 7F 7A 30 30 32 04 80  ..........z002..
0130: 4A F2 80 04 01 F1 80 04  01 1C 08 80 2B F1 80 04  J...........+...
0140: 01 09 80 23 6E F1 80 04  01 04 80 99 F1 80 04 01  ...#n...........
0150: 2B F1 80 04 01 0A 80 23  1C 0B 80 66 0C 80 F2 80  +......#...f....
0160: 04 01 F2 80 04 01 74 6C  6B 30 2B CE 80 04 01 0D  ......tlk0+.....
0170: 80 23 1C 0E 80 66 0C 80  F2 80 04 01 F2 80 04 01  .#...f..........
0180: 74 6C 6B 31 4A F1 80 04  01 F2 80 04 01 1C 02 80  tlk1J...........
0190: 66 0F 80 F1 80 04 01 F1  80 04 01 6D 6F 6E 30 2B  f..........mon0+
01A0: F1 80 04 01 10 80 23 1C  0E 80 52 03 80 F0 FF FF  ......#...R.....
01B0: 7F F0 FF FF 7F 7A 30 30  32 27 10 F0 80 04 01 0B  .....z002'......
01C0: 1C 11 80 45 03 80 F0 FF  FF 7F F0 FF FF 7F 7A 30  ...E..........z0
01D0: 30 33 04 80 4A F1 80 04  01 F0 80 04 01 1C 0E 80  03..J...........
01E0: 66 12 80 F1 80 04 01 F1  80 04 01 74 6C 6B 30 2B  f..........tlk0+
01F0: F1 80 04 01 13 80 23 66  12 80 F1 80 04 01 F1 80  ......#f........
0200: 04 01 74 6C 6B 31 1C 14  80 2B F0 80 04 01 15 80  ..tlk1...+......
0210: 23 1C 02 80 66 0C 80 F2  80 04 01 F2 80 04 01 74  #...f..........t
0220: 77 62 30 2B CE 80 04 01  16 80 23 4A F1 80 04 01  wb0+......#J....
0230: F2 80 04 01 2B CE 80 04  01 17 80 23 66 0C 80 F2  ....+......#f...
0240: 80 04 01 F2 80 04 01 74  77 62 31 1C 02 80 52 03  .......twb1...R.
0250: 80 F0 FF FF 7F F0 FF FF  7F 7A 30 30 33 45 03 80  .........z003E..
0260: F0 FF FF 7F F0 FF FF 7F  7A 30 30 35 04 80 1C 0E  ........z005....
0270: 80 6E F2 80 04 01 18 80  99 F2 80 04 01 2B CE 80  .n...........+..
0280: 04 01 19 80 23 1C 0E 80  52 03 80 F0 FF FF 7F F0  ....#...R.......
0290: FF FF 7F 7A 30 30 35 45  03 80 F0 FF FF 7F F0 FF  ...z005E........
02A0: FF 7F 7A 30 30 34 04 80  1C 02 80 66 0C 80 F2 80  ..z004.....f....
02B0: 04 01 F2 80 04 01 74 77  61 30 2B CE 80 04 01 1A  ......twa0+.....
02C0: 80 23 1C 02 80 2B CE 80  04 01 1B 80 23 1C 02 80  .#...+......#...
02D0: 2B CE 80 04 01 1C 80 23  66 0C 80 F2 80 04 01 F2  +......#f.......
02E0: 80 04 01 74 77 61 31 1C  02 80 52 03 80 F0 FF FF  ...twa1...R.....
02F0: 7F F0 FF FF 7F 7A 30 30  34 27 10 F3 80 04 01 0A  .....z004'......
0300: 45 03 80 F0 FF FF 7F F0  FF FF 7F 7A 30 30 36 04  E..........z006.
0310: 80 6E F1 80 04 01 1D 80  99 F1 80 04 01 1C 08 80  .n..............
0320: 52 03 80 F0 FF FF 7F F0  FF FF 7F 7A 30 30 36 45  R..........z006E
0330: 03 80 F0 FF FF 7F F0 FF  FF 7F 7A 30 30 37 04 80  ..........z007..
0340: 2B CE 80 04 01 1E 80 23  1C 02 80 2B CE 80 04 01  +......#...+....
0350: 1F 80 23 1C 02 80 52 03  80 F0 FF FF 7F F0 FF FF  ..#...R.........
0360: 7F 7A 30 30 37 45 03 80  F0 FF FF 7F F0 FF FF 7F  .z007E..........
0370: 7A 30 30 39 04 80 66 0F  80 F1 80 04 01 F1 80 04  z009..f.........
0380: 01 6D 6F 6E 30 2B F1 80  04 01 20 80 23 1C 08 80  .mon0+.... .#...
0390: 6E F2 80 04 01 21 80 99  F2 80 04 01 2B F2 80 04  n....!......+...
03A0: 01 22 80 23 1C 08 80 6E  F1 80 04 01 23 80 99 F1  .".#...n....#...
03B0: 80 04 01 2B F1 80 04 01  24 80 23 1C 02 80 52 03  ...+....$.#...R.
03C0: 80 F0 FF FF 7F F0 FF FF  7F 7A 30 30 39 45 03 80  .........z009E..
03D0: F0 FF FF 7F F0 FF FF 7F  7A 30 30 38 04 80 1C 0E  ........z008....
03E0: 80 2B CE 80 04 01 25 80  23 27 10 F3 80 04 01 10  .+....%.#'......
03F0: 2B F0 80 04 01 26 80 23  4A F0 80 04 01 F3 80 04  +....&.#J.......
0400: 01 1C 14 80 2B F3 80 04  01 27 80 23 5D 04 80 28  ....+....'.#]..(
0410: 80 1C 0E 80 52 03 80 F0  FF FF 7F F0 FF FF 7F 7A  ....R..........z
0420: 30 30 38 4E 00 F0 FF FF  7F 37 29 80 2A 80 04 80  008N.....7).*...
0430: 04 80 27 10 F3 80 04 01  0B 27 10 F0 FF FF 7F 39  ..'......'.....9
0440: 4A F2 80 04 01 F0 FF FF  7F 45 03 80 F0 FF FF 7F  J........E......
0450: F0 FF FF 7F 7A 30 31 30  04 80 4A F3 80 04 01 F0  ....z010..J.....
0460: 80 04 01 2B F3 80 04 01  2B 80 23 6E F0 80 04 01  ...+....+.#n....
0470: 2C 80 99 F0 80 04 01 1C  0B 80 52 03 80 F0 FF FF  ,.........R.....
0480: 7F F0 FF FF 7F 7A 30 31  30 4A F0 80 04 01 F0 FF  .....z010J......
0490: FF 7F 4A F1 80 04 01 F0  FF FF 7F 1C 11 80 45 03  ..J...........E.
04A0: 80 F0 FF FF 7F F0 FF FF  7F 7A 30 31 31 04 80 1C  .........z011...
04B0: 14 80 27 10 F1 80 04 01  0B 2B F1 80 04 01 2D 80  ..'......+....-.
04C0: 23 52 03 80 F0 FF FF 7F  F0 FF FF 7F 7A 30 31 31  #R..........z011
04D0: 45 03 80 F0 FF FF 7F F0  FF FF 7F 7A 30 31 32 04  E..........z012.
04E0: 80 02 00 00 2E 80 00 0E  06 29 10 F0 FF FF 7F 2E  .........)......
04F0: 27 10 F1 80 04 01 0C 27  10 F0 FF FF 7F 3A 2B F1  '......'.....:+.
0500: 80 04 01 2F 80 23 2B F1  80 04 01 30 80 23 1C 0E  .../.#+....0.#..
0510: 80 52 03 80 F0 FF FF 7F  F0 FF FF 7F 7A 30 31 32  .R..........z012
0520: 45 03 80 F0 FF FF 7F F0  FF FF 7F 7A 30 31 33 04  E..........z013.
0530: 80 02 01 00 04 80 80 41  05 03 02 10 31 80 01 F1  .......A....1...
0540: 05 02 01 00 2E 80 80 51  05 03 02 10 31 80 01 F1  .......Q....1...
0550: 05 02 01 00 32 80 80 61  05 03 02 10 33 80 01 F1  ....2..a....3...
0560: 05 02 01 00 11 80 80 71  05 03 02 10 34 80 01 F1  .......q....4...
0570: 05 02 01 00 35 80 80 81  05 03 02 10 36 80 01 F1  ....5.......6...
0580: 05 02 01 00 37 80 80 91  05 03 02 10 38 80 01 F1  ....7.......8...
0590: 05 02 01 00 39 80 80 A1  05 03 02 10 3A 80 01 F1  ....9.......:...
05A0: 05 02 01 00 2C 80 80 B1  05 03 02 10 3B 80 01 F1  ....,.......;...
05B0: 05 02 01 00 3C 80 80 C1  05 03 02 10 3D 80 01 F1  ....<.......=...
05C0: 05 02 01 00 0C 80 80 D1  05 03 02 10 3E 80 01 F1  ............>...
05D0: 05 02 01 00 3F 80 80 E1  05 03 02 10 40 80 01 F1  ....?.......@...
05E0: 05 02 01 00 41 80 80 F1  05 03 02 10 42 80 01 F1  ....A.......B...
05F0: 05 1C 02 80 2B F0 80 04  01 43 80 23 27 10 F0 80  ....+....C.#'...
0600: 04 01 0C 2B F0 80 04 01  44 80 23 01 1E 07 29 10  ...+....D.#...).
0610: F0 FF FF 7F 2E 2B F1 80  04 01 45 80 23 27 10 F1  .....+....E.#'..
0620: 80 04 01 0C 29 10 F0 FF  FF 7F 3A 2B F1 80 04 01  ....).....:+....
0630: 30 80 23 1C 0E 80 52 03  80 F0 FF FF 7F F0 FF FF  0.#...R.........
0640: 7F 7A 30 31 32 45 03 80  F0 FF FF 7F F0 FF FF 7F  .z012E..........
0650: 7A 30 31 33 04 80 02 01  00 04 80 80 66 06 03 02  z013........f...
0660: 10 31 80 01 16 07 02 01  00 2E 80 80 76 06 03 02  .1..........v...
0670: 10 31 80 01 16 07 02 01  00 32 80 80 86 06 03 02  .1.......2......
0680: 10 33 80 01 16 07 02 01  00 11 80 80 96 06 03 02  .3..............
0690: 10 34 80 01 16 07 02 01  00 35 80 80 A6 06 03 02  .4.......5......
06A0: 10 36 80 01 16 07 02 01  00 37 80 80 B6 06 03 02  .6.......7......
06B0: 10 38 80 01 16 07 02 01  00 39 80 80 C6 06 03 02  .8.......9......
06C0: 10 3A 80 01 16 07 02 01  00 2C 80 80 D6 06 03 02  .:.......,......
06D0: 10 3B 80 01 16 07 02 01  00 3C 80 80 E6 06 03 02  .;.......<......
06E0: 10 3D 80 01 16 07 02 01  00 0C 80 80 F6 06 03 02  .=..............
06F0: 10 3E 80 01 16 07 02 01  00 3F 80 80 06 07 03 02  .>.......?......
0700: 10 40 80 01 16 07 02 01  00 41 80 80 16 07 03 02  .@.......A......
0710: 10 42 80 01 16 07 2B F0  80 04 01 43 80 23 27 10  .B....+....C.#'.
0720: F0 80 04 01 0C 1C 0E 80  2B F0 80 04 01 46 80 23  ........+....F.#
0730: 1C 02 80 6E F1 80 04 01  41 80 99 F1 80 04 01 2B  ...n....A......+
0740: F1 80 04 01 47 80 23 4A  F3 80 04 01 F0 FF FF 7F  ....G.#J........
0750: 1C 0E 80 1A F9 26 5C 00  48 80 5C 01 48 80 9A 52  .....&\.H.\.H..R
0760: 03 80 F0 FF FF 7F F0 FF  FF 7F 7A 30 31 33 1C 02  ..........z013..
0770: 80 03 01 10 3F 80 43 00  43 01 03 02 00 02 10 27  ....?.C.C......'
0780: 10 F0 80 04 01 0E 27 10  F1 80 04 01 0E 27 10 F3  ......'......'..
0790: 80 04 01 0C 45 03 80 F0  FF FF 7F F0 FF FF 7F 7A  ....E..........z
07A0: 30 31 34 04 80 1C 02 80  1A D8 26 24 49 80 04 80  014.......&$I...
07B0: 02 00 25 02 00 10 04 80  00 89 09 52 03 80 F0 FF  ..%........R....
07C0: FF 7F F0 FF FF 7F 7A 30  31 34 45 03 80 F0 FF FF  ......z014E.....
07D0: 7F F0 FF FF 7F 7A 30 31  35 04 80 1C 0E 80 2B F0  .....z015.....+.
07E0: 80 04 01 4A 80 23 1C 08  80 52 03 80 F0 FF FF 7F  ...J.#...R......
07F0: F0 FF FF 7F 7A 30 31 35  45 03 80 F0 FF FF 7F F0  ....z015E.......
0800: FF FF 7F 7A 30 31 37 04  80 27 10 F1 80 04 01 0D  ...z017..'......
0810: 1C 14 80 2B F1 80 04 01  4B 80 23 1C 14 80 52 03  ...+....K.#...R.
0820: 80 F0 FF FF 7F F0 FF FF  7F 7A 30 31 37 45 03 80  .........z017E..
0830: F0 FF FF 7F F0 FF FF 7F  7A 30 31 36 04 80 1C 0E  ........z016....
0840: 80 2B F0 80 04 01 4C 80  23 2B F0 80 04 01 4D 80  .+....L.#+....M.
0850: 23 1C 0E 80 52 03 80 F0  FF FF 7F F0 FF FF 7F 7A  #...R..........z
0860: 30 31 36 45 03 80 F0 FF  FF 7F F0 FF FF 7F 7A 30  016E..........z0
0870: 31 38 04 80 1C 0E 80 6E  F1 80 04 01 04 80 99 F1  18.....n........
0880: 80 04 01 2B F1 80 04 01  4E 80 23 1C 08 80 2B F0  ...+....N.#...+.
0890: 80 04 01 4F 80 23 6E F1  80 04 01 41 80 99 F1 80  ...O.#n....A....
08A0: 04 01 2B F1 80 04 01 50  80 23 1C 08 80 52 03 80  ..+....P.#...R..
08B0: F0 FF FF 7F F0 FF FF 7F  7A 30 31 38 45 03 80 F0  ........z018E...
08C0: FF FF 7F F0 FF FF 7F 7A  30 31 39 04 80 27 10 F0  .......z019..'..
08D0: 80 04 01 0D 1C 0E 80 2B  F0 80 04 01 51 80 23 4A  .......+....Q.#J
08E0: F1 80 04 01 F0 80 04 01  1C 02 80 2B F1 80 04 01  ...........+....
08F0: 52 80 23 1C 02 80 2B F0  80 04 01 53 80 23 2B F0  R.#...+....S.#+.
0900: 80 04 01 54 80 23 1C 02  80 52 03 80 F0 FF FF 7F  ...T.#...R......
0910: F0 FF FF 7F 7A 30 31 39  45 03 80 F0 FF FF 7F F0  ....z019E.......
0920: FF FF 7F 7A 30 32 30 04  80 1C 02 80 2B F0 80 04  ...z020.....+...
0930: 01 55 80 23 2B F0 80 04  01 56 80 23 1C 0E 80 27  .U.#+....V.#...'
0940: 10 F1 80 04 01 12 2B F1  80 04 01 57 80 23 1C 14  ......+....W.#..
0950: 80 03 01 10 2E 80 43 00  43 01 03 02 00 02 10 1A  ......C.C.......
0960: F9 26 52 03 80 F0 FF FF  7F F0 FF FF 7F 7A 30 32  .&R..........z02
0970: 30 27 10 F0 80 04 01 0E  27 10 F1 80 04 01 0E 27  0'......'......'
0980: 10 F3 80 04 01 0C 01 E4  0D 02 00 10 2E 80 00 53  ...............S
0990: 0B 52 03 80 F0 FF FF 7F  F0 FF FF 7F 7A 30 31 34  .R..........z014
09A0: 45 03 80 F0 FF FF 7F F0  FF FF 7F 7A 30 32 31 04  E..........z021.
09B0: 80 1C 0E 80 66 58 80 F0  80 04 01 F0 80 04 01 74  ....fX.........t
09C0: 6C 6B 30 2B F0 80 04 01  59 80 23 2B F0 80 04 01  lk0+....Y.#+....
09D0: 5A 80 23 66 58 80 F0 80  04 01 F0 80 04 01 74 6C  Z.#fX.........tl
09E0: 6B 31 1C 0E 80 52 03 80  F0 FF FF 7F F0 FF FF 7F  k1...R..........
09F0: 7A 30 32 31 45 03 80 F0  FF FF 7F F0 FF FF 7F 7A  z021E..........z
0A00: 30 32 32 04 80 1C 0E 80  66 58 80 F0 80 04 01 F0  022.....fX......
0A10: 80 04 01 74 77 62 30 2B  F0 80 04 01 5B 80 23 2B  ...twb0+....[.#+
0A20: F0 80 04 01 5C 80 23 2B  F0 80 04 01 5D 80 23 66  ....\.#+....].#f
0A30: 58 80 F0 80 04 01 F0 80  04 01 74 77 62 31 1C 14  X.........twb1..
0A40: 80 2B F0 80 04 01 5E 80  23 52 03 80 F0 FF FF 7F  .+....^.#R......
0A50: F0 FF FF 7F 7A 30 32 32  45 03 80 F0 FF FF 7F F0  ....z022E.......
0A60: FF FF 7F 7A 30 32 33 04  80 1C 02 80 4A F1 80 04  ...z023.....J...
0A70: 01 F0 80 04 01 2B F1 80  04 01 5F 80 23 4A F0 80  .....+...._.#J..
0A80: 04 01 F1 80 04 01 1C 14  80 6E F0 80 04 01 60 80  .........n....`.
0A90: 99 F0 80 04 01 2B F0 80  04 01 61 80 23 1C 02 80  .....+....a.#...
0AA0: 2B F0 80 04 01 62 80 23  52 03 80 F0 FF FF 7F F0  +....b.#R.......
0AB0: FF FF 7F 7A 30 32 33 45  03 80 F0 FF FF 7F F0 FF  ...z023E........
0AC0: FF 7F 7A 30 32 34 04 80  1C 0E 80 2B F1 80 04 01  ..z024.....+....
0AD0: 63 80 23 66 58 80 F0 80  04 01 F0 80 04 01 74 68  c.#fX.........th
0AE0: 6B 31 2B F0 80 04 01 64  80 23 1C 0E 80 2B F1 80  k1+....d.#...+..
0AF0: 04 01 65 80 23 6E F1 80  04 01 41 80 99 F1 80 04  ..e.#n....A.....
0B00: 01 2B F1 80 04 01 66 80  23 66 58 80 F0 80 04 01  .+....f.#fX.....
0B10: F0 80 04 01 74 68 6B 32  03 01 10 32 80 43 00 43  ....thk2...2.C.C
0B20: 01 03 02 00 02 10 1C 02  80 1A F9 26 52 03 80 F0  ...........&R...
0B30: FF FF 7F F0 FF FF 7F 7A  30 32 34 27 10 F0 80 04  .......z024'....
0B40: 01 0E 27 10 F1 80 04 01  0E 27 10 F3 80 04 01 0C  ..'......'......
0B50: 01 E4 0D 02 00 10 32 80  00 E4 0D 52 03 80 F0 FF  ......2....R....
0B60: FF 7F F0 FF FF 7F 7A 30  31 34 27 10 F1 80 04 01  ......z014'.....
0B70: 13 45 03 80 F0 FF FF 7F  F0 FF FF 7F 7A 30 32 35  .E..........z025
0B80: 04 80 1C 0E 80 2B F0 80  04 01 67 80 23 52 03 80  .....+....g.#R..
0B90: F0 FF FF 7F F0 FF FF 7F  7A 30 32 35 45 03 80 F0  ........z025E...
0BA0: FF FF 7F F0 FF FF 7F 7A  30 32 36 04 80 6E F1 80  .......z026..n..
0BB0: 04 01 41 80 99 F1 80 04  01 2B F1 80 04 01 68 80  ..A......+....h.
0BC0: 23 4A F0 80 04 01 F1 80  04 01 1C 0E 80 2B F0 80  #J...........+..
0BD0: 04 01 69 80 23 1C 02 80  2B F0 80 04 01 6A 80 23  ..i.#...+....j.#
0BE0: 4A F0 80 04 01 F0 FF FF  7F 1C 02 80 52 03 80 F0  J...........R...
0BF0: FF FF 7F F0 FF FF 7F 7A  30 32 36 27 10 F1 80 04  .......z026'....
0C00: 01 14 45 03 80 F0 FF FF  7F F0 FF FF 7F 7A 30 32  ..E..........z02
0C10: 37 04 80 2B F1 80 04 01  6B 80 23 2B F1 80 04 01  7..+....k.#+....
0C20: 6C 80 23 1C 02 80 2B F1  80 04 01 6D 80 23 1C 02  l.#...+....m.#..
0C30: 80 2B F1 80 04 01 6E 80  23 52 03 80 F0 FF FF 7F  .+....n.#R......
0C40: F0 FF FF 7F 7A 30 32 37  45 03 80 F0 FF FF 7F F0  ....z027E.......
0C50: FF FF 7F 7A 30 32 38 04  80 1C 0E 80 2B F0 80 04  ...z028.....+...
0C60: 01 6F 80 23 27 10 F1 80  04 01 14 1C 14 80 2B F0  .o.#'.........+.
0C70: 80 04 01 70 80 23 52 03  80 F0 FF FF 7F F0 FF FF  ...p.#R.........
0C80: 7F 7A 30 32 38 27 10 F1  80 04 01 14 45 03 80 F0  .z028'......E...
0C90: FF FF 7F F0 FF FF 7F 7A  30 32 39 04 80 1C 02 80  .......z029.....
0CA0: 2B F1 80 04 01 71 80 23  1C 02 80 52 03 80 F0 FF  +....q.#...R....
0CB0: FF 7F F0 FF FF 7F 7A 30  32 39 45 03 80 F0 FF FF  ......z029E.....
0CC0: 7F F0 FF FF 7F 7A 30 33  30 04 80 1C 0E 80 66 58  .....z030.....fX
0CD0: 80 F0 80 04 01 F0 80 04  01 74 77 62 30 2B F0 80  .........twb0+..
0CE0: 04 01 72 80 23 2B F0 80  04 01 73 80 23 66 58 80  ..r.#+....s.#fX.
0CF0: F0 80 04 01 F0 80 04 01  74 77 62 31 2B F0 80 04  ........twb1+...
0D00: 01 74 80 23 52 03 80 F0  FF FF 7F F0 FF FF 7F 7A  .t.#R..........z
0D10: 30 33 30 27 10 F1 80 04  01 0F 45 03 80 F0 FF FF  030'......E.....
0D20: 7F F0 FF FF 7F 7A 30 33  31 04 80 1C 0E 80 2B F0  .....z031.....+.
0D30: 80 04 01 75 80 23 1C 0E  80 2B F0 80 04 01 76 80  ...u.#...+....v.
0D40: 23 1C 0E 80 52 03 80 F0  FF FF 7F F0 FF FF 7F 7A  #...R..........z
0D50: 30 33 31 45 03 80 F0 FF  FF 7F F0 FF FF 7F 7A 30  031E..........z0
0D60: 33 32 04 80 2B F1 80 04  01 77 80 23 4A F0 80 04  32..+....w.#J...
0D70: 01 F1 80 04 01 2B F1 80  04 01 78 80 23 1C 0E 80  .....+....x.#...
0D80: 66 58 80 F0 80 04 01 F0  80 04 01 74 77 62 30 2B  fX.........twb0+
0D90: F0 80 04 01 79 80 23 1C  0E 80 66 58 80 F0 80 04  ....y.#...fX....
0DA0: 01 F0 80 04 01 74 77 62  31 03 01 10 11 80 43 00  .....twb1.....C.
0DB0: 43 01 03 02 00 02 10 1C  0E 80 1A F9 26 52 03 80  C...........&R..
0DC0: F0 FF FF 7F F0 FF FF 7F  7A 30 33 32 27 10 F0 80  ........z032'...
0DD0: 04 01 0E 27 10 F1 80 04  01 0E 27 10 F3 80 04 01  ...'......'.....
0DE0: 0C 01 E4 0D 02 02 00 2C  80 01 EF 0D 01 7F 07 4A  .......,.......J
0DF0: F0 80 04 01 F1 80 04 01  4A F2 80 04 01 F1 80 04  ........J.......
0E00: 01 1C 11 80 45 03 80 F0  FF FF 7F F0 FF FF 7F 7A  ....E..........z
0E10: 30 33 33 04 80 1A D8 26  1C 0E 80 4A F1 80 04 01  033....&...J....
0E20: F0 80 04 01 2B F0 80 04  01 7A 80 23 5D 04 80 28  ....+....z.#]..(
0E30: 80 4A F0 80 04 01 F1 80  04 01 2B F1 80 04 01 7B  .J........+....{
0E40: 80 23 1C 0E 80 2B F0 80  04 01 7C 80 23 1C 0E 80  .#...+....|.#...
0E50: 52 03 80 F0 FF FF 7F F0  FF FF 7F 7A 30 33 33 45  R..........z033E
0E60: 03 80 F0 FF FF 7F F0 FF  FF 7F 7A 30 33 34 04 80  ..........z034..
0E70: 1C 14 80 6E F1 80 04 01  0F 80 99 F1 80 04 01 2B  ...n...........+
0E80: F1 80 04 01 7D 80 23 1C  02 80 6E F0 80 04 01 2C  ....}.#...n....,
0E90: 80 99 F0 80 04 01 2B F0  80 04 01 7E 80 23 1C 14  ......+....~.#..
0EA0: 80 52 03 80 F0 FF FF 7F  F0 FF FF 7F 7A 30 33 34  .R..........z034
0EB0: 45 03 80 F0 FF FF 7F F0  FF FF 7F 7A 30 33 35 04  E..........z035.
0EC0: 80 1C 0E 80 4A F0 80 04  01 F1 80 04 01 2B F0 80  ....J........+..
0ED0: 04 01 7F 80 23 6E F2 80  04 01 2C 80 99 F2 80 04  ....#n....,.....
0EE0: 01 1C 14 80 2B F1 80 04  01 80 80 23 1C 0E 80 52  ....+......#...R
0EF0: 03 80 F0 FF FF 7F F0 FF  FF 7F 7A 30 33 35 45 03  ..........z035E.
0F00: 80 F0 FF FF 7F F0 FF FF  7F 7A 30 33 36 04 80 1C  .........z036...
0F10: 0E 80 4A F0 80 04 01 F0  FF FF 7F 2B F0 80 04 01  ..J........+....
0F20: 81 80 23 1C 82 80 2B F1  80 04 01 83 80 23 29 10  ..#...+......#).
0F30: F1 80 04 01 10 1C 0E 80  52 03 80 F0 FF FF 7F F0  ........R.......
0F40: FF FF 7F 7A 30 33 36 45  03 80 F0 FF FF 7F F0 FF  ...z036E........
0F50: FF 7F 7A 30 33 38 04 80  4A F1 80 04 01 F0 80 04  ..z038..J.......
0F60: 01 6E F1 80 04 01 3C 80  99 F1 80 04 01 99 F1 80  .n....<.........
0F70: 04 01 1C 82 80 27 10 F1  80 04 01 11 1C 0E 80 27  .....'.........'
0F80: 10 F2 80 04 01 0C 1C 08  80 1A F9 26 52 03 80 F0  ...........&R...
0F90: FF FF 7F F0 FF FF 7F 7A  30 33 38 1C 02 80 27 10  .......z038...'.
0FA0: F0 FF FF 7F 3B 27 10 F0  80 04 01 0F 27 10 F3 80  ....;'......'...
0FB0: 04 01 0D 4E 01 F1 80 04  01 4E 01 F2 80 04 01 1C  ...N.....N......
0FC0: 08 80 45 03 80 F0 FF FF  7F F0 FF FF 7F 7A 30 33  ..E..........z03
0FD0: 39 04 80 45 84 80 F0 FF  FF 7F F0 FF FF 7F 66 64  9..E..........fd
0FE0: 69 32 04 80 1A D8 26 1C  0E 80 2B F0 80 04 01 85  i2....&...+.....
0FF0: 80 23 27 10 F0 80 04 01  10 1C 14 80 2B F0 80 04  .#'.........+...
1000: 01 86 80 23 2B F0 80 04  01 87 80 23 1C 14 80 5C  ...#+......#...\
1010: 00 88 80 5C 01 88 80 9A  52 03 80 F0 FF FF 7F F0  ...\....R.......
1020: FF FF 7F 7A 30 33 39 45  03 80 F0 FF FF 7F F0 FF  ...z039E........
1030: FF 7F 7A 30 34 35 04 80  27 10 F3 80 04 01 0E 2B  ..z045..'......+
1040: F0 80 04 01 89 80 23 1C  14 80 66 58 80 F0 80 04  ......#...fX....
1050: 01 F0 80 04 01 74 77 62  30 2B F0 80 04 01 8A 80  .....twb0+......
1060: 23 1C 14 80 2B F0 80 04  01 8B 80 23 2B F0 80 04  #...+......#+...
1070: 01 8C 80 23 66 58 80 F0  80 04 01 F0 80 04 01 74  ...#fX.........t
1080: 77 62 31 1C 02 80 52 03  80 F0 FF FF 7F F0 FF FF  wb1...R.........
1090: 7F 7A 30 34 35 45 03 80  F0 FF FF 7F F0 FF FF 7F  .z045E..........
10A0: 7A 30 34 30 04 80 1C 14  80 2B F0 80 04 01 8D 80  z040.....+......
10B0: 23 1C 02 80 2B F0 80 04  01 8E 80 23 1C 0E 80 52  #...+......#...R
10C0: 03 80 F0 FF FF 7F F0 FF  FF 7F 7A 30 34 30 45 03  ..........z040E.
10D0: 80 F0 FF FF 7F F0 FF FF  7F 7A 30 34 31 04 80 2B  .........z041..+
10E0: F0 80 04 01 8F 80 23 1C  02 80 24 90 80 04 80 04  ......#...$.....
10F0: 80 25 02 00 10 04 80 00  C0 11 52 03 80 F0 FF FF  .%........R.....
1100: 7F F0 FF FF 7F 7A 30 34  31 45 03 80 F0 FF FF 7F  .....z041E......
1110: F0 FF FF 7F 7A 30 34 32  04 80 1C 14 80 2B F0 80  ....z042.....+..
1120: 04 01 91 80 23 52 03 80  F0 FF FF 7F F0 FF FF 7F  ....#R..........
1130: 7A 30 34 32 45 03 80 F0  FF FF 7F F0 FF FF 7F 7A  z042E..........z
1140: 30 34 33 04 80 1C 0E 80  6E F0 80 04 01 18 80 99  043.....n.......
1150: F0 80 04 01 2B F0 80 04  01 92 80 23 2B F0 80 04  ....+......#+...
1160: 01 93 80 23 1C 14 80 2B  F0 80 04 01 94 80 23 52  ...#...+......#R
1170: 03 80 F0 FF FF 7F F0 FF  FF 7F 7A 30 34 33 45 03  ..........z043E.
1180: 80 F0 FF FF 7F F0 FF FF  7F 7A 30 34 34 04 80 1C  .........z044...
1190: 0E 80 2B F0 80 04 01 95  80 23 1C 14 80 45 84 80  ..+......#...E..
11A0: F8 FF FF 7F F8 FF FF 7F  6F 76 6C 32 04 80 52 03  ........ovl2..R.
11B0: 80 F0 FF FF 7F F0 FF FF  7F 7A 30 34 34 01 BF 12  .........z044...
11C0: 02 00 10 2E 80 00 BF 12  52 03 80 F0 FF FF 7F F0  ........R.......
11D0: FF FF 7F 7A 30 34 31 45  03 80 F0 FF FF 7F F0 FF  ...z041E........
11E0: FF 7F 7A 30 34 32 04 80  1C 0E 80 66 58 80 F0 80  ..z042.....fX...
11F0: 04 01 F0 80 04 01 74 77  62 30 2B F0 80 04 01 96  ......twb0+.....
1200: 80 23 2B F0 80 04 01 97  80 23 2B F0 80 04 01 98  .#+......#+.....
1210: 80 23 66 58 80 F0 80 04  01 F0 80 04 01 74 77 62  .#fX.........twb
1220: 31 1C 14 80 52 03 80 F0  FF FF 7F F0 FF FF 7F 7A  1...R..........z
1230: 30 34 32 45 03 80 F0 FF  FF 7F F0 FF FF 7F 7A 30  042E..........z0
1240: 34 34 04 80 1C 14 80 2B  F0 80 04 01 99 80 23 2B  44.....+......#+
1250: F0 80 04 01 9A 80 23 1C  14 80 52 03 80 F0 FF FF  ......#...R.....
1260: 7F F0 FF FF 7F 7A 30 34  34 45 03 80 F0 FF FF 7F  .....z044E......
1270: F0 FF FF 7F 7A 30 34 33  04 80 1C 0E 80 6E F1 80  ....z043.....n..
1280: 04 01 18 80 99 F1 80 04  01 2B F0 80 04 01 92 80  .........+......
1290: 23 2B F0 80 04 01 93 80  23 1C 08 80 45 84 80 F8  #+......#...E...
12A0: FF FF 7F F8 FF FF 7F 6F  76 6C 32 04 80 52 03 80  .......ovl2..R..
12B0: F0 FF FF 7F F0 FF FF 7F  7A 30 34 33 01 BF 12 45  ........z043...E
12C0: 03 80 F0 FF FF 7F F0 FF  FF 7F 7A 30 34 36 04 80  ..........z046..
12D0: 1C 14 80 27 10 F0 80 04  01 11 2B F0 80 04 01 9B  ...'......+.....
12E0: 80 23 4A F3 80 04 01 F0  80 04 01 1C 02 80 2B F0  .#J...........+.
12F0: 80 04 01 9C 80 23 1C 02  80 52 03 80 F0 FF FF 7F  .....#...R......
1300: F0 FF FF 7F 7A 30 34 36  45 03 80 F0 FF FF 7F F0  ....z046E.......
1310: FF FF 7F 7A 30 34 38 04  80 1C 02 80 2B F0 80 04  ...z048.....+...
1320: 01 9D 80 23 2B F0 80 04  01 9E 80 23 1C 02 80 52  ...#+......#...R
1330: 03 80 F0 FF FF 7F F0 FF  FF 7F 7A 30 34 38 45 03  ..........z048E.
1340: 80 F0 FF FF 7F F0 FF FF  7F 7A 30 34 37 04 80 1C  .........z047...
1350: 0E 80 4A F0 80 04 01 F0  FF FF 7F 2B F0 80 04 01  ..J........+....
1360: 9F 80 23 1C 0E 80 66 58  80 F0 80 04 01 F0 80 04  ..#...fX........
1370: 01 74 77 61 30 2B F0 80  04 01 A0 80 23 2B F0 80  .twa0+......#+..
1380: 04 01 A1 80 23 66 58 80  F0 80 04 01 F0 80 04 01  ....#fX.........
1390: 74 77 61 31 1C 02 80 52  03 80 F0 FF FF 7F F0 FF  twa1...R........
13A0: FF 7F 7A 30 34 37 45 03  80 F0 FF FF 7F F0 FF FF  ..z047E.........
13B0: 7F 7A 30 35 30 04 80 1C  02 80 4A F3 80 04 01 F0  .z050.....J.....
13C0: FF FF 7F 2B F0 80 04 01  A2 80 23 2B F0 80 04 01  ...+......#+....
13D0: A3 80 23 1C 02 80 52 03  80 F0 FF FF 7F F0 FF FF  ..#...R.........
13E0: 7F 7A 30 35 30 45 03 80  F0 FF FF 7F F0 FF FF 7F  .z050E..........
13F0: 7A 30 35 31 04 80 1C 02  80 2B F0 80 04 01 A4 80  z051.....+......
1400: 23 29 10 F0 80 04 01 12  2B F0 80 04 01 A5 80 23  #)......+......#
1410: 66 58 80 F0 80 04 01 F0  80 04 01 74 77 61 30 1C  fX.........twa0.
1420: 08 80 66 58 80 F0 80 04  01 F0 80 04 01 74 77 61  ..fX.........twa
1430: 31 03 02 10 A6 80 48 A7  80 1C 0B 80 45 84 80 F8  1.....H.....E...
1440: FF FF 7F F8 FF FF 7F 6F  76 6C 32 04 80 52 03 80  .......ovl2..R..
1450: F0 FF FF 7F F0 FF FF 7F  7A 30 35 31 45 03 80 F0  ........z051E...
1460: FF FF 7F F0 FF FF 7F 7A  30 35 32 04 80 1C 0E 80  .......z052.....
1470: 03 02 10 A6 80 2B F0 80  04 01 A8 80 23 2B F0 80  .....+......#+..
1480: 04 01 A9 80 23 1C 14 80  52 03 80 F0 FF FF 7F F0  ....#...R.......
1490: FF FF 7F 7A 30 35 32 45  03 80 F0 FF FF 7F F0 FF  ...z052E........
14A0: FF 7F 7A 30 35 33 04 80  1C 02 80 66 58 80 F0 80  ..z053.....fX...
14B0: 04 01 F0 80 04 01 74 6C  6B 30 2B F0 80 04 01 AA  ......tlk0+.....
14C0: 80 23 2B F0 80 04 01 AB  80 23 1C 02 80 2B F0 80  .#+......#...+..
14D0: 04 01 AC 80 23 66 58 80  F0 80 04 01 F0 80 04 01  ....#fX.........
14E0: 74 6C 6B 31 1C 02 80 52  03 80 F0 FF FF 7F F0 FF  tlk1...R........
14F0: FF 7F 7A 30 35 33 45 03  80 F0 FF FF 7F F0 FF FF  ..z053E.........
1500: 7F 7A 30 35 34 04 80 1C  02 80 03 02 10 A6 80 66  .z054..........f
1510: 58 80 F0 80 04 01 F0 80  04 01 74 77 62 30 2B F0  X.........twb0+.
1520: 80 04 01 AD 80 23 66 00  80 F3 80 04 01 F3 80 04  .....#f.........
1530: 01 61 6F 30 30 27 10 F3  80 04 01 0F 2B F0 80 04  .ao00'......+...
1540: 01 AE 80 23 1C 0E 80 2B  F0 80 04 01 AF 80 23 66  ...#...+......#f
1550: 58 80 F0 80 04 01 F0 80  04 01 74 77 62 31 52 03  X.........twb1R.
1560: 80 F0 FF FF 7F F0 FF FF  7F 7A 30 35 34 45 03 80  .........z054E..
1570: F0 FF FF 7F F0 FF FF 7F  7A 30 35 35 04 80 1C 0E  ........z055....
1580: 80 27 10 F0 FF FF 7F 3D  1C 0E 80 2B F0 80 04 01  .'.....=...+....
1590: B0 80 23 1C 0E 80 27 10  F0 FF FF 7F 3E 1C 0E 80  ..#...'.....>...
15A0: 52 03 80 F0 FF FF 7F F0  FF FF 7F 7A 30 35 35 45  R..........z055E
15B0: 03 80 F0 FF FF 7F F0 FF  FF 7F 7A 30 35 36 04 80  ..........z056..
15C0: 4A F0 FF FF 7F F0 80 04  01 1C 0E 80 2B F0 80 04  J...........+...
15D0: 01 B1 80 23 1C 0E 80 2B  F0 80 04 01 B2 80 23 6E  ...#...+......#n
15E0: F0 FF FF 7F 2C 80 99 F0  FF FF 7F 1C 0E 80 1A F9  ....,...........
15F0: 26 52 03 80 F0 FF FF 7F  F0 FF FF 7F 7A 30 35 36  &R..........z056
1600: 9F B3 80 F8 FF FF 7F F8  FF FF 7F 73 74 72 30 04  ...........str0.
1610: 80 1C 08 80 45 03 80 F0  FF FF 7F F0 FF FF 7F 7A  ....E..........z
1620: 30 35 37 04 80 45 84 80  F8 FF FF 7F F8 FF FF 7F  057..E..........
1630: 66 64 69 32 04 80 27 10  F0 FF FF 7F 3C 1C 0E 80  fdi2..'.....<...
1640: 2B F3 80 04 01 B4 80 23  1C 84 80 52 03 80 F0 FF  +......#...R....
1650: FF 7F F0 FF FF 7F 7A 30  35 37 4E 01 F0 FF FF 7F  ......z057N.....
1660: 45 03 80 F0 FF FF 7F F0  FF FF 7F 7A 30 35 38 04  E..........z058.
1670: 80 27 10 F0 80 04 01 13  1C 08 80 2B F0 80 04 01  .'.........+....
1680: B5 80 23 2B F0 80 04 01  B6 80 23 1C 0E 80 27 10  ..#+......#...'.
1690: F0 80 04 01 14 52 03 80  F0 FF FF 7F F0 FF FF 7F  .....R..........
16A0: 7A 30 35 38 45 03 80 F0  FF FF 7F F0 FF FF 7F 7A  z058E..........z
16B0: 30 35 39 04 80 1C 0E 80  2B F3 80 04 01 B7 80 5D  059.....+......]
16C0: 04 80 28 80 1C 07 80 1A  F9 26 1C 02 80 9F B3 80  ..(......&......
16D0: F8 FF FF 7F F8 FF FF 7F  6B 69 6C 6C 04 80 5C 00  ........kill..\.
16E0: 04 80 5C 01 04 80 9A 46  00 45 84 80 F0 FF FF 7F  ..\....F.E......
16F0: F0 FF FF 7F 66 64 69 32  04 80 21 00              ....fdi2..!.    
```

#### Opcodes

```
  0: 0x0001 [0x42] SET_CLI_EVENT_CANCEL_DATA()
  1: 0x0002 [0x03] ExtData[1]->WorkLocal[1] = Work_Zone[2]
  2: 0x0007 [0x03] ExtData[1]->WorkLocal[0] = Work_Zone[3]
  3: 0x000C [0x1A] CALL_SUBROUTINE(address=0x26F9)
  4: 0x000F [0x46] CAMERA_CONTROL: Disable user control
  5: 0x0011 [0x38] SET_CLIENT_EVENT_MODE(mode=19*)
  6: 0x0014 [0x79] LocalPlayer looks at LocalPlayer (Basic look)
  7: 0x001E [0x29] REQ_SET_WAIT(priority=0x10, entity_id=Ghatsad (ID: 17072368/0x010480F0), tag_num=0x04)
  8: 0x0025 [0x29] REQ_SET_WAIT(priority=0x10, entity_id=Abda-Lurabda (ID: 17072369/0x010480F1), tag_num=0x04)
  9: 0x002C [0x29] REQ_SET_WAIT(priority=0x10, entity_id=Amnaf (ID: 17072371/0x010480F3), tag_num=0x04)
 10: 0x0033 [0x29] REQ_SET_WAIT(priority=0x10, entity_id=Rishfee (ID: 17072370/0x010480F2), tag_num=0x04)
 11: 0x003A [0x92] Ghatsad (ID: 17072368/0x010480F0)->Render.Flags3 ^= 0x01
 12: 0x0040 [0x92] Abda-Lurabda (ID: 17072369/0x010480F1)->Render.Flags3 ^= 0x01
 13: 0x0046 [0x92] Amnaf (ID: 17072371/0x010480F3)->Render.Flags3 ^= 0x01
 14: 0x004C [0x92] Rishfee (ID: 17072370/0x010480F2)->Render.Flags3 ^= 0x01
 15: 0x0052 [0x94] LocalPlayer->Render.Flags3 ^= 0x01
 16: 0x0058 [0x94] Ghatsad (ID: 17072368/0x010480F0)->Render.Flags3 ^= 0x01
 17: 0x005E [0x94] Abda-Lurabda (ID: 17072369/0x010480F1)->Render.Flags3 ^= 0x01
 18: 0x0064 [0x94] Amnaf (ID: 17072371/0x010480F3)->Render.Flags3 ^= 0x01
 19: 0x006A [0x94] Rishfee (ID: 17072370/0x010480F2)->Render.Flags3 ^= 0x01
 20: 0x0070 [0x29] REQ_SET_WAIT(priority=0x10, entity_id=LocalPlayer, tag_num=0x2F)
 21: 0x0077 [0x29] REQ_SET_WAIT(priority=0x10, entity_id=Ghatsad (ID: 17072368/0x010480F0), tag_num=0x09)
 22: 0x007E [0x29] REQ_SET_WAIT(priority=0x10, entity_id=Abda-Lurabda (ID: 17072369/0x010480F1), tag_num=0x09)
 23: 0x0085 [0x29] REQ_SET_WAIT(priority=0x10, entity_id=Amnaf (ID: 17072371/0x010480F3), tag_num=0x09)
 24: 0x008C [0x29] REQ_SET_WAIT(priority=0x10, entity_id=Rishfee (ID: 17072370/0x010480F2), tag_num=0x09)
 25: 0x0093 [0x80] LOAD_WAIT(entity=LocalPlayer)
 26: 0x0098 [0x80] LOAD_WAIT(entity=Ghatsad (ID: 17072368/0x010480F0))
 27: 0x009D [0x80] LOAD_WAIT(entity=Abda-Lurabda (ID: 17072369/0x010480F1))
 28: 0x00A2 [0x80] LOAD_WAIT(entity=Amnaf (ID: 17072371/0x010480F3))
 29: 0x00A7 [0x80] LOAD_WAIT(entity=Rishfee (ID: 17072370/0x010480F2))
 30: 0x00AC [0x5C] MUSIC_CONTROL: Set Idle (Day) music to song 163*
 31: 0x00B0 [0x5C] MUSIC_CONTROL: Set Idle (Night) music to song 163*
 32: 0x00B4 [0x9A] WAIT_MUSIC_SERVER()
 33: 0x00B5 [0x4E] SET_ENTITY_HIDE_FLAG: Hide LocalPlayer
 34: 0x00BB [0x1C] WAIT(30* ticks)
 35: 0x00BE [0x45] LOAD_SCHEDULED_TASK: Load scheduler "z000" with entities [LocalPlayer, LocalPlayer], work=[286*, 0*]
 36: 0x00CF [0x1C] WAIT(15* ticks)
 37: 0x00D2 [0x27] REQ_SET(priority=0x10, entity_id=Abda-Lurabda (ID: 17072369/0x010480F1), tag_num=0x0A)
 38: 0x00D9 [0x1A] CALL_SUBROUTINE(address=0x26D8)
 39: 0x00DC [0x1C] WAIT(250* ticks)
 40: 0x00DF [0x52] END_LOAD_SCHEDULER: End scheduler "z000" with entities [LocalPlayer, LocalPlayer], work=286*
 41: 0x00EE [0x45] LOAD_SCHEDULED_TASK: Load scheduler "z001" with entities [LocalPlayer, LocalPlayer], work=[286*, 0*]
 42: 0x00FF [0x27] REQ_SET(priority=0x10, entity_id=Ghatsad (ID: 17072368/0x010480F0), tag_num=0x0A)
 43: 0x0106 [0x27] REQ_SET(priority=0x10, entity_id=Rishfee (ID: 17072370/0x010480F2), tag_num=0x0A)
 44: 0x010D [0x1C] WAIT(300* ticks)
 45: 0x0110 [0x52] END_LOAD_SCHEDULER: End scheduler "z001" with entities [LocalPlayer, LocalPlayer], work=286*
 46: 0x011F [0x45] LOAD_SCHEDULED_TASK: Load scheduler "z002" with entities [LocalPlayer, LocalPlayer], work=[286*, 0*]
 47: 0x0130 [0x4A] Rishfee (ID: 17072370/0x010480F2) looks at Abda-Lurabda (ID: 17072369/0x010480F1)
 48: 0x0139 [0x1C] WAIT(90* ticks)
 49: 0x013C [0x2B] Abda-Lurabda (ID: 17072369/0x010480F1) [7266*]:
    → "Wow! Look at this place! Ooh, what's that?"
 50: 0x0143 [0x23] WAIT_FOR_DIALOG_INTERACTION
 51: 0x0144 [0x6E] Abda-Lurabda (ID: 17072369/0x010480F1) uses emote 0*
 52: 0x014B [0x99] Wait for Abda-Lurabda (ID: 17072369/0x010480F1) animation to complete
 53: 0x0150 [0x2B] Abda-Lurabda (ID: 17072369/0x010480F1) [7267*]:
    → "Tell me everything!"
 54: 0x0157 [0x23] WAIT_FOR_DIALOG_INTERACTION
 55: 0x0158 [0x1C] WAIT(120* ticks)
 56: 0x015B [0x66] LOAD_EXT_SCHEDULER_MAIN: Load scheduler "tlk0" with entities [Rishfee (ID: 17072370/0x010480F2), Rishfee (ID: 17072370/0x010480F2)], work=9*
 57: 0x016A [0x2B] ??? (ID: 17072334/0x010480CE) [7268*]:
    → "Hey, now! This is an ancient ruin you have the privilege to be in. Try not to disturb the--"
 58: 0x0171 [0x23] WAIT_FOR_DIALOG_INTERACTION
 59: 0x0172 [0x1C] WAIT(60* ticks)
 60: 0x0175 [0x66] LOAD_EXT_SCHEDULER_MAIN: Load scheduler "tlk1" with entities [Rishfee (ID: 17072370/0x010480F2), Rishfee (ID: 17072370/0x010480F2)], work=9*
 61: 0x0184 [0x4A] Abda-Lurabda (ID: 17072369/0x010480F1) looks at Rishfee (ID: 17072370/0x010480F2)
 62: 0x018D [0x1C] WAIT(30* ticks)
 63: 0x0190 [0x66] LOAD_EXT_SCHEDULER_MAIN: Load scheduler "mon0" with entities [Abda-Lurabda (ID: 17072369/0x010480F1), Abda-Lurabda (ID: 17072369/0x010480F1)], work=35*
 64: 0x019F [0x2B] Abda-Lurabda (ID: 17072369/0x010480F1) [7269*]:
    → "This is my first time in an ancient ruin! It's so exciting!"
 65: 0x01A6 [0x23] WAIT_FOR_DIALOG_INTERACTION
 66: 0x01A7 [0x1C] WAIT(60* ticks)
 67: 0x01AA [0x52] END_LOAD_SCHEDULER: End scheduler "z002" with entities [LocalPlayer, LocalPlayer], work=286*
 68: 0x01B9 [0x27] REQ_SET(priority=0x10, entity_id=Ghatsad (ID: 17072368/0x010480F0), tag_num=0x0B)
 69: 0x01C0 [0x1C] WAIT(3* ticks)
 70: 0x01C3 [0x45] LOAD_SCHEDULED_TASK: Load scheduler "z003" with entities [LocalPlayer, LocalPlayer], work=[286*, 0*]
 71: 0x01D4 [0x4A] Abda-Lurabda (ID: 17072369/0x010480F1) looks at Ghatsad (ID: 17072368/0x010480F0)
 72: 0x01DD [0x1C] WAIT(60* ticks)
 73: 0x01E0 [0x66] LOAD_EXT_SCHEDULER_MAIN: Load scheduler "tlk0" with entities [Abda-Lurabda (ID: 17072369/0x010480F1), Abda-Lurabda (ID: 17072369/0x010480F1)], work=40*
 74: 0x01EF [0x2B] Abda-Lurabda (ID: 17072369/0x010480F1) [7270*]:
    → "Poor old Tateeya is stuck in the factory all by herself! But lucky me gets to go on a field trip with Mister Ghatsad!"
 75: 0x01F6 [0x23] WAIT_FOR_DIALOG_INTERACTION
 76: 0x01F7 [0x66] LOAD_EXT_SCHEDULER_MAIN: Load scheduler "tlk1" with entities [Abda-Lurabda (ID: 17072369/0x010480F1), Abda-Lurabda (ID: 17072369/0x010480F1)], work=40*
 77: 0x0206 [0x1C] WAIT(45* ticks)
 78: 0x0209 [0x2B] Ghatsad (ID: 17072368/0x010480F0) [7271*]:
    → "Well, I'm glad to see you're taking an interest in the past."
 79: 0x0210 [0x23] WAIT_FOR_DIALOG_INTERACTION
 80: 0x0211 [0x1C] WAIT(30* ticks)
 81: 0x0214 [0x66] LOAD_EXT_SCHEDULER_MAIN: Load scheduler "twb0" with entities [Rishfee (ID: 17072370/0x010480F2), Rishfee (ID: 17072370/0x010480F2)], work=9*
 82: 0x0223 [0x2B] ??? (ID: 17072334/0x010480CE) [7272*]:
    → "But if you keep up that ruckus, who knows what sort of unwanted attention you'll attract?"
 83: 0x022A [0x23] WAIT_FOR_DIALOG_INTERACTION
 84: 0x022B [0x4A] Abda-Lurabda (ID: 17072369/0x010480F1) looks at Rishfee (ID: 17072370/0x010480F2)
 85: 0x0234 [0x2B] ??? (ID: 17072334/0x010480CE) [7273*]:
    → "Even with us here to protect you, some monster might snatch you away into the shadows."
 86: 0x023B [0x23] WAIT_FOR_DIALOG_INTERACTION
 87: 0x023C [0x66] LOAD_EXT_SCHEDULER_MAIN: Load scheduler "twb1" with entities [Rishfee (ID: 17072370/0x010480F2), Rishfee (ID: 17072370/0x010480F2)], work=9*
 88: 0x024B [0x1C] WAIT(30* ticks)
 89: 0x024E [0x52] END_LOAD_SCHEDULER: End scheduler "z003" with entities [LocalPlayer, LocalPlayer], work=286*
 90: 0x025D [0x45] LOAD_SCHEDULED_TASK: Load scheduler "z005" with entities [LocalPlayer, LocalPlayer], work=[286*, 0*]
 91: 0x026E [0x1C] WAIT(60* ticks)
 92: 0x0271 [0x6E] Rishfee (ID: 17072370/0x010480F2) uses emote 32*
 93: 0x0278 [0x99] Wait for Rishfee (ID: 17072370/0x010480F2) animation to complete
 94: 0x027D [0x2B] ??? (ID: 17072334/0x010480CE) [7274*]:
    → "They've even employed mercenaries from Salaheem's Sentinels to patrol the ruins for dangerous beasts."
 95: 0x0284 [0x23] WAIT_FOR_DIALOG_INTERACTION
 96: 0x0285 [0x1C] WAIT(60* ticks)
 97: 0x0288 [0x52] END_LOAD_SCHEDULER: End scheduler "z005" with entities [LocalPlayer, LocalPlayer], work=286*
 98: 0x0297 [0x45] LOAD_SCHEDULED_TASK: Load scheduler "z004" with entities [LocalPlayer, LocalPlayer], work=[286*, 0*]
 99: 0x02A8 [0x1C] WAIT(30* ticks)
100: 0x02AB [0x66] LOAD_EXT_SCHEDULER_MAIN: Load scheduler "twa0" with entities [Rishfee (ID: 17072370/0x010480F2), Rishfee (ID: 17072370/0x010480F2)], work=9*
101: 0x02BA [0x2B] ??? (ID: 17072334/0x010480CE) [7276*]:
    → "Many alchemists have fallen prey to the legions of foul creatures that stalk these halls."
102: 0x02C1 [0x23] WAIT_FOR_DIALOG_INTERACTION
103: 0x02C2 [0x1C] WAIT(30* ticks)
104: 0x02C5 [0x2B] ??? (ID: 17072334/0x010480CE) [7277*]:
    → "You know how on moonless nights you can hear the roar of the Cyan Deep echoing through the darkness?"
105: 0x02CC [0x23] WAIT_FOR_DIALOG_INTERACTION
106: 0x02CD [0x1C] WAIT(30* ticks)
107: 0x02D0 [0x2B] ??? (ID: 17072334/0x010480CE) [7278*]:
    → "That sound is really the wails of those lost alchemists as their spirits roam the ruins in despair..."
108: 0x02D7 [0x23] WAIT_FOR_DIALOG_INTERACTION
109: 0x02D8 [0x66] LOAD_EXT_SCHEDULER_MAIN: Load scheduler "twa1" with entities [Rishfee (ID: 17072370/0x010480F2), Rishfee (ID: 17072370/0x010480F2)], work=9*
110: 0x02E7 [0x1C] WAIT(30* ticks)
111: 0x02EA [0x52] END_LOAD_SCHEDULER: End scheduler "z004" with entities [LocalPlayer, LocalPlayer], work=286*
112: 0x02F9 [0x27] REQ_SET(priority=0x10, entity_id=Amnaf (ID: 17072371/0x010480F3), tag_num=0x0A)
113: 0x0300 [0x45] LOAD_SCHEDULED_TASK: Load scheduler "z006" with entities [LocalPlayer, LocalPlayer], work=[286*, 0*]
114: 0x0311 [0x6E] Abda-Lurabda (ID: 17072369/0x010480F1) uses emote 38*
115: 0x0318 [0x99] Wait for Abda-Lurabda (ID: 17072369/0x010480F1) animation to complete
116: 0x031D [0x1C] WAIT(90* ticks)
117: 0x0320 [0x52] END_LOAD_SCHEDULER: End scheduler "z006" with entities [LocalPlayer, LocalPlayer], work=286*
118: 0x032F [0x45] LOAD_SCHEDULED_TASK: Load scheduler "z007" with entities [LocalPlayer, LocalPlayer], work=[286*, 0*]
119: 0x0340 [0x2B] ??? (ID: 17072334/0x010480CE) [7279*]:
    → "Rishfee!"
120: 0x0347 [0x23] WAIT_FOR_DIALOG_INTERACTION
121: 0x0348 [0x1C] WAIT(30* ticks)
122: 0x034B [0x2B] ??? (ID: 17072334/0x010480CE) [7280*]:
    → "That's quite enough. The poor child is shaking in fear."
123: 0x0352 [0x23] WAIT_FOR_DIALOG_INTERACTION
124: 0x0353 [0x1C] WAIT(30* ticks)
125: 0x0356 [0x52] END_LOAD_SCHEDULER: End scheduler "z007" with entities [LocalPlayer, LocalPlayer], work=286*
126: 0x0365 [0x45] LOAD_SCHEDULED_TASK: Load scheduler "z009" with entities [LocalPlayer, LocalPlayer], work=[286*, 0*]
127: 0x0376 [0x66] LOAD_EXT_SCHEDULER_MAIN: Load scheduler "mon0" with entities [Abda-Lurabda (ID: 17072369/0x010480F1), Abda-Lurabda (ID: 17072369/0x010480F1)], work=35*
128: 0x0385 [0x2B] Abda-Lurabda (ID: 17072369/0x010480F1) [7281*]:
    → "Is that r-really true?"
129: 0x038C [0x23] WAIT_FOR_DIALOG_INTERACTION
130: 0x038D [0x1C] WAIT(90* ticks)
131: 0x0390 [0x6E] Rishfee (ID: 17072370/0x010480F2) uses emote 26*
132: 0x0397 [0x99] Wait for Rishfee (ID: 17072370/0x010480F2) animation to complete
133: 0x039C [0x2B] Rishfee (ID: 17072370/0x010480F2) [7282*]:
    → "Maybe you'll be the first to find out..."
134: 0x03A3 [0x23] WAIT_FOR_DIALOG_INTERACTION
135: 0x03A4 [0x1C] WAIT(90* ticks)
136: 0x03A7 [0x6E] Abda-Lurabda (ID: 17072369/0x010480F1) uses emote 25*
137: 0x03AE [0x99] Wait for Abda-Lurabda (ID: 17072369/0x010480F1) animation to complete
138: 0x03B3 [0x2B] Abda-Lurabda (ID: 17072369/0x010480F1) [7283*]:
    → "Y-you're lying! You're just being a big meanie-weanie!"
139: 0x03BA [0x23] WAIT_FOR_DIALOG_INTERACTION
140: 0x03BB [0x1C] WAIT(30* ticks)
141: 0x03BE [0x52] END_LOAD_SCHEDULER: End scheduler "z009" with entities [LocalPlayer, LocalPlayer], work=286*
142: 0x03CD [0x45] LOAD_SCHEDULED_TASK: Load scheduler "z008" with entities [LocalPlayer, LocalPlayer], work=[286*, 0*]
143: 0x03DE [0x1C] WAIT(60* ticks)
144: 0x03E1 [0x2B] ??? (ID: 17072334/0x010480CE) [7284*]:
    → "!!!"
145: 0x03E8 [0x23] WAIT_FOR_DIALOG_INTERACTION
146: 0x03E9 [0x27] REQ_SET(priority=0x10, entity_id=Amnaf (ID: 17072371/0x010480F3), tag_num=0x10)
147: 0x03F0 [0x2B] Ghatsad (ID: 17072368/0x010480F0) [7285*]:
    → "Amnaf. What do you see?"
148: 0x03F7 [0x23] WAIT_FOR_DIALOG_INTERACTION
149: 0x03F8 [0x4A] Ghatsad (ID: 17072368/0x010480F0) looks at Amnaf (ID: 17072371/0x010480F3)
150: 0x0401 [0x1C] WAIT(45* ticks)
151: 0x0404 [0x2B] Amnaf (ID: 17072371/0x010480F3) [7287*]:
    → "Quiet..."
152: 0x040B [0x23] WAIT_FOR_DIALOG_INTERACTION
153: 0x040C [0x5D] SET_MUSIC_VOLUME(volume=0*, fade_time=360*)
154: 0x0411 [0x1C] WAIT(60* ticks)
155: 0x0414 [0x52] END_LOAD_SCHEDULER: End scheduler "z008" with entities [LocalPlayer, LocalPlayer], work=286*
156: 0x0423 [0x4E] SET_ENTITY_HIDE_FLAG: Show LocalPlayer
157: 0x0429 [0x37] UPDATE_EVENT_POSITION_AND_DIR: x=424.998*, z=-579.999*, y=0.000*, direction=0.0°*
158: 0x0432 [0x27] REQ_SET(priority=0x10, entity_id=Amnaf (ID: 17072371/0x010480F3), tag_num=0x0B)
159: 0x0439 [0x27] REQ_SET(priority=0x10, entity_id=LocalPlayer, tag_num=0x39)
160: 0x0440 [0x4A] Rishfee (ID: 17072370/0x010480F2) looks at LocalPlayer
161: 0x0449 [0x45] LOAD_SCHEDULED_TASK: Load scheduler "z010" with entities [LocalPlayer, LocalPlayer], work=[286*, 0*]
162: 0x045A [0x4A] Amnaf (ID: 17072371/0x010480F3) looks at Ghatsad (ID: 17072368/0x010480F0)
163: 0x0463 [0x2B] Amnaf (ID: 17072371/0x010480F3) [7288*]:
    → "We're not alone..."
164: 0x046A [0x23] WAIT_FOR_DIALOG_INTERACTION
165: 0x046B [0x6E] Ghatsad (ID: 17072368/0x010480F0) uses emote 7*
166: 0x0472 [0x99] Wait for Ghatsad (ID: 17072368/0x010480F0) animation to complete
167: 0x0477 [0x1C] WAIT(120* ticks)
168: 0x047A [0x52] END_LOAD_SCHEDULER: End scheduler "z010" with entities [LocalPlayer, LocalPlayer], work=286*
169: 0x0489 [0x4A] Ghatsad (ID: 17072368/0x010480F0) looks at LocalPlayer
170: 0x0492 [0x4A] Abda-Lurabda (ID: 17072369/0x010480F1) looks at LocalPlayer
171: 0x049B [0x1C] WAIT(3* ticks)
172: 0x049E [0x45] LOAD_SCHEDULED_TASK: Load scheduler "z011" with entities [LocalPlayer, LocalPlayer], work=[286*, 0*]
173: 0x04AF [0x1C] WAIT(45* ticks)
174: 0x04B2 [0x27] REQ_SET(priority=0x10, entity_id=Abda-Lurabda (ID: 17072369/0x010480F1), tag_num=0x0B)
175: 0x04B9 [0x2B] Abda-Lurabda (ID: 17072369/0x010480F1) [7289*]:
    → "Oh?"
176: 0x04C0 [0x23] WAIT_FOR_DIALOG_INTERACTION
177: 0x04C1 [0x52] END_LOAD_SCHEDULER: End scheduler "z011" with entities [LocalPlayer, LocalPlayer], work=286*
178: 0x04D0 [0x45] LOAD_SCHEDULED_TASK: Load scheduler "z012" with entities [LocalPlayer, LocalPlayer], work=[286*, 0*]
179: 0x04E1 [0x02] IF !(ExtData[1]->WorkLocal[0] == 1*) GOTO 0x060E
180: 0x04E9 [0x29] REQ_SET_WAIT(priority=0x10, entity_id=LocalPlayer, tag_num=0x2E)
181: 0x04F0 [0x27] REQ_SET(priority=0x10, entity_id=Abda-Lurabda (ID: 17072369/0x010480F1), tag_num=0x0C)
182: 0x04F7 [0x27] REQ_SET(priority=0x10, entity_id=LocalPlayer, tag_num=0x3A)
183: 0x04FE [0x2B] Abda-Lurabda (ID: 17072369/0x010480F1) [7290*]:
    → "Hey, it's you! What are you doing down here?"
184: 0x0505 [0x23] WAIT_FOR_DIALOG_INTERACTION
185: 0x0506 [0x2B] Abda-Lurabda (ID: 17072369/0x010480F1) [7291*]:
    → "If you want to see the ruins, you should come along with us!"
186: 0x050D [0x23] WAIT_FOR_DIALOG_INTERACTION
187: 0x050E [0x1C] WAIT(60* ticks)
188: 0x0511 [0x52] END_LOAD_SCHEDULER: End scheduler "z012" with entities [LocalPlayer, LocalPlayer], work=286*
189: 0x0520 [0x45] LOAD_SCHEDULED_TASK: Load scheduler "z013" with entities [LocalPlayer, LocalPlayer], work=[286*, 0*]
190: 0x0531 [0x02] IF !(ExtData[1]->WorkLocal[1] == 0*) GOTO 0x0541
191: 0x0539 [0x03] Work_Zone[2] = 780*
192: 0x053E [0x01] GOTO 0x05F1
193: 0x0541 [0x02] IF !(ExtData[1]->WorkLocal[1] == 1*) GOTO 0x0551
194: 0x0549 [0x03] Work_Zone[2] = 780*
195: 0x054E [0x01] GOTO 0x05F1
196: 0x0551 [0x02] IF !(ExtData[1]->WorkLocal[1] == 2*) GOTO 0x0561
197: 0x0559 [0x03] Work_Zone[2] = 783*
198: 0x055E [0x01] GOTO 0x05F1
199: 0x0561 [0x02] IF !(ExtData[1]->WorkLocal[1] == 3*) GOTO 0x0571
200: 0x0569 [0x03] Work_Zone[2] = 784*
201: 0x056E [0x01] GOTO 0x05F1
202: 0x0571 [0x02] IF !(ExtData[1]->WorkLocal[1] == 4*) GOTO 0x0581
203: 0x0579 [0x03] Work_Zone[2] = 794*
204: 0x057E [0x01] GOTO 0x05F1
205: 0x0581 [0x02] IF !(ExtData[1]->WorkLocal[1] == 5*) GOTO 0x0591
206: 0x0589 [0x03] Work_Zone[2] = 795*
207: 0x058E [0x01] GOTO 0x05F1
208: 0x0591 [0x02] IF !(ExtData[1]->WorkLocal[1] == 6*) GOTO 0x05A1
209: 0x0599 [0x03] Work_Zone[2] = 825*
210: 0x059E [0x01] GOTO 0x05F1
211: 0x05A1 [0x02] IF !(ExtData[1]->WorkLocal[1] == 7*) GOTO 0x05B1
212: 0x05A9 [0x03] Work_Zone[2] = 826*
213: 0x05AE [0x01] GOTO 0x05F1
214: 0x05B1 [0x02] IF !(ExtData[1]->WorkLocal[1] == 8*) GOTO 0x05C1
215: 0x05B9 [0x03] Work_Zone[2] = 827*
216: 0x05BE [0x01] GOTO 0x05F1
217: 0x05C1 [0x02] IF !(ExtData[1]->WorkLocal[1] == 9*) GOTO 0x05D1
218: 0x05C9 [0x03] Work_Zone[2] = 894*
219: 0x05CE [0x01] GOTO 0x05F1
220: 0x05D1 [0x02] IF !(ExtData[1]->WorkLocal[1] == 10*) GOTO 0x05E1
221: 0x05D9 [0x03] Work_Zone[2] = 900*
222: 0x05DE [0x01] GOTO 0x05F1
223: 0x05E1 [0x02] IF !(ExtData[1]->WorkLocal[1] == 11*) GOTO 0x05F1
224: 0x05E9 [0x03] Work_Zone[2] = 909*
225: 0x05EE [0x01] GOTO 0x05F1

SUBROUTINE_05F1:
226: 0x05F1 [0x1C] WAIT(30* ticks)
227: 0x05F4 [0x2B] Ghatsad (ID: 17072368/0x010480F0) [7292*]:
    → "Ah, yes. Your $3 marks you plainly."
228: 0x05FB [0x23] WAIT_FOR_DIALOG_INTERACTION
229: 0x05FC [0x27] REQ_SET(priority=0x10, entity_id=Ghatsad (ID: 17072368/0x010480F0), tag_num=0x0C)
230: 0x0603 [0x2B] Ghatsad (ID: 17072368/0x010480F0) [7293*]:
    → "Are you taking care of your automaton?"
231: 0x060A [0x23] WAIT_FOR_DIALOG_INTERACTION
232: 0x060B [0x01] GOTO 0x071E
233: 0x060E [0x29] REQ_SET_WAIT(priority=0x10, entity_id=LocalPlayer, tag_num=0x2E)
234: 0x0615 [0x2B] Abda-Lurabda (ID: 17072369/0x010480F1) [7294*]:
    → "Are you here all by yourself?"
235: 0x061C [0x23] WAIT_FOR_DIALOG_INTERACTION
236: 0x061D [0x27] REQ_SET(priority=0x10, entity_id=Abda-Lurabda (ID: 17072369/0x010480F1), tag_num=0x0C)
237: 0x0624 [0x29] REQ_SET_WAIT(priority=0x10, entity_id=LocalPlayer, tag_num=0x3A)
238: 0x062B [0x2B] Abda-Lurabda (ID: 17072369/0x010480F1) [7291*]:
    → "If you want to see the ruins, you should come along with us!"
239: 0x0632 [0x23] WAIT_FOR_DIALOG_INTERACTION
240: 0x0633 [0x1C] WAIT(60* ticks)
241: 0x0636 [0x52] END_LOAD_SCHEDULER: End scheduler "z012" with entities [LocalPlayer, LocalPlayer], work=286*
242: 0x0645 [0x45] LOAD_SCHEDULED_TASK: Load scheduler "z013" with entities [LocalPlayer, LocalPlayer], work=[286*, 0*]
243: 0x0656 [0x02] IF !(ExtData[1]->WorkLocal[1] == 0*) GOTO 0x0666
244: 0x065E [0x03] Work_Zone[2] = 780*
245: 0x0663 [0x01] GOTO 0x0716
246: 0x0666 [0x02] IF !(ExtData[1]->WorkLocal[1] == 1*) GOTO 0x0676
247: 0x066E [0x03] Work_Zone[2] = 780*
248: 0x0673 [0x01] GOTO 0x0716
249: 0x0676 [0x02] IF !(ExtData[1]->WorkLocal[1] == 2*) GOTO 0x0686
250: 0x067E [0x03] Work_Zone[2] = 783*
251: 0x0683 [0x01] GOTO 0x0716
252: 0x0686 [0x02] IF !(ExtData[1]->WorkLocal[1] == 3*) GOTO 0x0696
253: 0x068E [0x03] Work_Zone[2] = 784*
254: 0x0693 [0x01] GOTO 0x0716
255: 0x0696 [0x02] IF !(ExtData[1]->WorkLocal[1] == 4*) GOTO 0x06A6
256: 0x069E [0x03] Work_Zone[2] = 794*
257: 0x06A3 [0x01] GOTO 0x0716
258: 0x06A6 [0x02] IF !(ExtData[1]->WorkLocal[1] == 5*) GOTO 0x06B6
259: 0x06AE [0x03] Work_Zone[2] = 795*
260: 0x06B3 [0x01] GOTO 0x0716
261: 0x06B6 [0x02] IF !(ExtData[1]->WorkLocal[1] == 6*) GOTO 0x06C6
262: 0x06BE [0x03] Work_Zone[2] = 825*
263: 0x06C3 [0x01] GOTO 0x0716
264: 0x06C6 [0x02] IF !(ExtData[1]->WorkLocal[1] == 7*) GOTO 0x06D6
265: 0x06CE [0x03] Work_Zone[2] = 826*
266: 0x06D3 [0x01] GOTO 0x0716
267: 0x06D6 [0x02] IF !(ExtData[1]->WorkLocal[1] == 8*) GOTO 0x06E6
268: 0x06DE [0x03] Work_Zone[2] = 827*
269: 0x06E3 [0x01] GOTO 0x0716
270: 0x06E6 [0x02] IF !(ExtData[1]->WorkLocal[1] == 9*) GOTO 0x06F6
271: 0x06EE [0x03] Work_Zone[2] = 894*
272: 0x06F3 [0x01] GOTO 0x0716
273: 0x06F6 [0x02] IF !(ExtData[1]->WorkLocal[1] == 10*) GOTO 0x0706
274: 0x06FE [0x03] Work_Zone[2] = 900*
275: 0x0703 [0x01] GOTO 0x0716
276: 0x0706 [0x02] IF !(ExtData[1]->WorkLocal[1] == 11*) GOTO 0x0716
277: 0x070E [0x03] Work_Zone[2] = 909*
278: 0x0713 [0x01] GOTO 0x0716

SUBROUTINE_0716:
279: 0x0716 [0x2B] Ghatsad (ID: 17072368/0x010480F0) [7292*]:
    → "Ah, yes. Your $3 marks you plainly."
280: 0x071D [0x23] WAIT_FOR_DIALOG_INTERACTION

SUBROUTINE_071E:
281: 0x071E [0x27] REQ_SET(priority=0x10, entity_id=Ghatsad (ID: 17072368/0x010480F0), tag_num=0x0C)
282: 0x0725 [0x1C] WAIT(60* ticks)
283: 0x0728 [0x2B] Ghatsad (ID: 17072368/0x010480F0) [7296*]:
    → "I'm assuming this is your first visit to the ruins? Perhaps it would benefit you to join our little tour."
284: 0x072F [0x23] WAIT_FOR_DIALOG_INTERACTION
285: 0x0730 [0x1C] WAIT(30* ticks)
286: 0x0733 [0x6E] Abda-Lurabda (ID: 17072369/0x010480F1) uses emote 11*
287: 0x073A [0x99] Wait for Abda-Lurabda (ID: 17072369/0x010480F1) animation to complete
288: 0x073F [0x2B] Abda-Lurabda (ID: 17072369/0x010480F1) [7297*]:
    → "Mister Ghatsad was about to tell us about the Alzadaal civilization. These ruins have so many stories!"
289: 0x0746 [0x23] WAIT_FOR_DIALOG_INTERACTION
290: 0x0747 [0x4A] Amnaf (ID: 17072371/0x010480F3) looks at LocalPlayer
291: 0x0750 [0x1C] WAIT(60* ticks)
292: 0x0753 [0x1A] CALL_SUBROUTINE(address=0x26F9)
293: 0x0756 [0x5C] MUSIC_CONTROL: Set Idle (Day) music to song 150*
294: 0x075A [0x5C] MUSIC_CONTROL: Set Idle (Night) music to song 150*
295: 0x075E [0x9A] WAIT_MUSIC_SERVER()
296: 0x075F [0x52] END_LOAD_SCHEDULER: End scheduler "z013" with entities [LocalPlayer, LocalPlayer], work=286*
297: 0x076E [0x1C] WAIT(30* ticks)
298: 0x0771 [0x03] Work_Zone[1] = 10*
299: 0x0776 [0x43] SEND_EVENT_UPDATE: Send pending tag to server (packet 0x005B)
300: 0x0778 [0x43] SEND_EVENT_UPDATE: Check pending flag (skip if not pending)
301: 0x077A [0x03] ExtData[1]->WorkLocal[2] = Work_Zone[2]

SUBROUTINE_077F:
302: 0x077F [0x27] REQ_SET(priority=0x10, entity_id=Ghatsad (ID: 17072368/0x010480F0), tag_num=0x0E)
303: 0x0786 [0x27] REQ_SET(priority=0x10, entity_id=Abda-Lurabda (ID: 17072369/0x010480F1), tag_num=0x0E)
304: 0x078D [0x27] REQ_SET(priority=0x10, entity_id=Amnaf (ID: 17072371/0x010480F3), tag_num=0x0C)
305: 0x0794 [0x45] LOAD_SCHEDULED_TASK: Load scheduler "z014" with entities [LocalPlayer, LocalPlayer], work=[286*, 0*]
306: 0x07A5 [0x1C] WAIT(30* ticks)
307: 0x07A8 [0x1A] CALL_SUBROUTINE(address=0x26D8)
308: 0x07AB [0x24] CREATE_DIALOG(message_id=7298*, default_option=0*, option_flags=ExtData[1]->WorkLocal[2])
    → "Which part of the ruins do you ask about? [The windows./The pillars./The floor.]"
309: 0x07B2 [0x25] WAIT_DIALOG_SELECT()
310: 0x07B3 [0x02] IF !(Work_Zone[0] == 0*) GOTO 0x0989
311: 0x07BB [0x52] END_LOAD_SCHEDULER: End scheduler "z014" with entities [LocalPlayer, LocalPlayer], work=286*
312: 0x07CA [0x45] LOAD_SCHEDULED_TASK: Load scheduler "z015" with entities [LocalPlayer, LocalPlayer], work=[286*, 0*]
313: 0x07DB [0x1C] WAIT(60* ticks)
314: 0x07DE [0x2B] Ghatsad (ID: 17072368/0x010480F0) [7299*]:
    → "You wish to learn about the windows?"
315: 0x07E5 [0x23] WAIT_FOR_DIALOG_INTERACTION
316: 0x07E6 [0x1C] WAIT(90* ticks)
317: 0x07E9 [0x52] END_LOAD_SCHEDULER: End scheduler "z015" with entities [LocalPlayer, LocalPlayer], work=286*
318: 0x07F8 [0x45] LOAD_SCHEDULED_TASK: Load scheduler "z017" with entities [LocalPlayer, LocalPlayer], work=[286*, 0*]
319: 0x0809 [0x27] REQ_SET(priority=0x10, entity_id=Abda-Lurabda (ID: 17072369/0x010480F1), tag_num=0x0D)
320: 0x0810 [0x1C] WAIT(45* ticks)
321: 0x0813 [0x2B] Abda-Lurabda (ID: 17072369/0x010480F1) [7300*]:
    → "Look at those fish swimming around in there! I wonder what would happen if the windows broke!"
322: 0x081A [0x23] WAIT_FOR_DIALOG_INTERACTION
323: 0x081B [0x1C] WAIT(45* ticks)
324: 0x081E [0x52] END_LOAD_SCHEDULER: End scheduler "z017" with entities [LocalPlayer, LocalPlayer], work=286*
325: 0x082D [0x45] LOAD_SCHEDULED_TASK: Load scheduler "z016" with entities [LocalPlayer, LocalPlayer], work=[286*, 0*]
326: 0x083E [0x1C] WAIT(60* ticks)
327: 0x0841 [0x2B] Ghatsad (ID: 17072368/0x010480F0) [7301*]:
    → "Those fish are actually swimming in the waters of the Cyan Deep. We are currently on the bottom of the ocean, looking out at them."
328: 0x0848 [0x23] WAIT_FOR_DIALOG_INTERACTION
329: 0x0849 [0x2B] Ghatsad (ID: 17072368/0x010480F0) [7302*]:
    → "Those windows are under an incredible amount of pressure from the weight of the water. If the windows were to break, I'm afraid we'd be crushed in an instant."
330: 0x0850 [0x23] WAIT_FOR_DIALOG_INTERACTION
331: 0x0851 [0x1C] WAIT(60* ticks)
332: 0x0854 [0x52] END_LOAD_SCHEDULER: End scheduler "z016" with entities [LocalPlayer, LocalPlayer], work=286*
333: 0x0863 [0x45] LOAD_SCHEDULED_TASK: Load scheduler "z018" with entities [LocalPlayer, LocalPlayer], work=[286*, 0*]
334: 0x0874 [0x1C] WAIT(60* ticks)
335: 0x0877 [0x6E] Abda-Lurabda (ID: 17072369/0x010480F1) uses emote 0*
336: 0x087E [0x99] Wait for Abda-Lurabda (ID: 17072369/0x010480F1) animation to complete
337: 0x0883 [0x2B] Abda-Lurabda (ID: 17072369/0x010480F1) [7303*]:
    → "What is that sparkling light all over the glass? I've never seen anything like it!"
338: 0x088A [0x23] WAIT_FOR_DIALOG_INTERACTION
339: 0x088B [0x1C] WAIT(90* ticks)
340: 0x088E [0x2B] Ghatsad (ID: 17072368/0x010480F0) [7304*]:
    → "That is the glow of plasma oil..."
341: 0x0895 [0x23] WAIT_FOR_DIALOG_INTERACTION
342: 0x0896 [0x6E] Abda-Lurabda (ID: 17072369/0x010480F1) uses emote 11*
343: 0x089D [0x99] Wait for Abda-Lurabda (ID: 17072369/0x010480F1) animation to complete
344: 0x08A2 [0x2B] Abda-Lurabda (ID: 17072369/0x010480F1) [7305*]:
    → "Ooh, isn't that the same oil we use in the automatons?"
345: 0x08A9 [0x23] WAIT_FOR_DIALOG_INTERACTION
346: 0x08AA [0x1C] WAIT(90* ticks)
347: 0x08AD [0x52] END_LOAD_SCHEDULER: End scheduler "z018" with entities [LocalPlayer, LocalPlayer], work=286*
348: 0x08BC [0x45] LOAD_SCHEDULED_TASK: Load scheduler "z019" with entities [LocalPlayer, LocalPlayer], work=[286*, 0*]
349: 0x08CD [0x27] REQ_SET(priority=0x10, entity_id=Ghatsad (ID: 17072368/0x010480F0), tag_num=0x0D)
350: 0x08D4 [0x1C] WAIT(60* ticks)
351: 0x08D7 [0x2B] Ghatsad (ID: 17072368/0x010480F0) [7306*]:
    → "That's correct. The windows of these ruins are actually membranes of plasma oil that repel the waters of the sea like giant bubbles."
352: 0x08DE [0x23] WAIT_FOR_DIALOG_INTERACTION
353: 0x08DF [0x4A] Abda-Lurabda (ID: 17072369/0x010480F1) looks at Ghatsad (ID: 17072368/0x010480F0)
354: 0x08E8 [0x1C] WAIT(30* ticks)
355: 0x08EB [0x2B] Abda-Lurabda (ID: 17072369/0x010480F1) [7307*]:
    → "You mean it just bounces off?"
356: 0x08F2 [0x23] WAIT_FOR_DIALOG_INTERACTION
357: 0x08F3 [0x1C] WAIT(30* ticks)
358: 0x08F6 [0x2B] Ghatsad (ID: 17072368/0x010480F0) [7308*]:
    → "You could put it that way, yes. But these barriers have been in place for hundreds of years. I highly doubt they'll give way any time soon."
359: 0x08FD [0x23] WAIT_FOR_DIALOG_INTERACTION
360: 0x08FE [0x2B] Ghatsad (ID: 17072368/0x010480F0) [7309*]:
    → "A truly astonishing feat of technology."
361: 0x0905 [0x23] WAIT_FOR_DIALOG_INTERACTION
362: 0x0906 [0x1C] WAIT(30* ticks)
363: 0x0909 [0x52] END_LOAD_SCHEDULER: End scheduler "z019" with entities [LocalPlayer, LocalPlayer], work=286*
364: 0x0918 [0x45] LOAD_SCHEDULED_TASK: Load scheduler "z020" with entities [LocalPlayer, LocalPlayer], work=[286*, 0*]
365: 0x0929 [0x1C] WAIT(30* ticks)
366: 0x092C [0x2B] Ghatsad (ID: 17072368/0x010480F0) [7310*]:
    → "However, the only reason these membranes hold is due to a constant supply of plasma oil."
367: 0x0933 [0x23] WAIT_FOR_DIALOG_INTERACTION
368: 0x0934 [0x2B] Ghatsad (ID: 17072368/0x010480F0) [7311*]:
    → "Some day, this supply must run out, and when it does..."
369: 0x093B [0x23] WAIT_FOR_DIALOG_INTERACTION
370: 0x093C [0x1C] WAIT(60* ticks)
371: 0x093F [0x27] REQ_SET(priority=0x10, entity_id=Abda-Lurabda (ID: 17072369/0x010480F1), tag_num=0x12)
372: 0x0946 [0x2B] Abda-Lurabda (ID: 17072369/0x010480F1) [7312*]:
    → "Are y-you trying to scare me too, Mister Ghatsad? I'm not sure I wanna stay here much longer..."
373: 0x094D [0x23] WAIT_FOR_DIALOG_INTERACTION
374: 0x094E [0x1C] WAIT(45* ticks)
375: 0x0951 [0x03] Work_Zone[1] = 1*
376: 0x0956 [0x43] SEND_EVENT_UPDATE: Send pending tag to server (packet 0x005B)
377: 0x0958 [0x43] SEND_EVENT_UPDATE: Check pending flag (skip if not pending)
378: 0x095A [0x03] ExtData[1]->WorkLocal[2] = Work_Zone[2]
379: 0x095F [0x1A] CALL_SUBROUTINE(address=0x26F9)
380: 0x0962 [0x52] END_LOAD_SCHEDULER: End scheduler "z020" with entities [LocalPlayer, LocalPlayer], work=286*
381: 0x0971 [0x27] REQ_SET(priority=0x10, entity_id=Ghatsad (ID: 17072368/0x010480F0), tag_num=0x0E)
382: 0x0978 [0x27] REQ_SET(priority=0x10, entity_id=Abda-Lurabda (ID: 17072369/0x010480F1), tag_num=0x0E)
383: 0x097F [0x27] REQ_SET(priority=0x10, entity_id=Amnaf (ID: 17072371/0x010480F3), tag_num=0x0C)
384: 0x0986 [0x01] GOTO 0x0DE4
385: 0x0989 [0x02] IF !(Work_Zone[0] == 1*) GOTO 0x0B53
386: 0x0991 [0x52] END_LOAD_SCHEDULER: End scheduler "z014" with entities [LocalPlayer, LocalPlayer], work=286*
387: 0x09A0 [0x45] LOAD_SCHEDULED_TASK: Load scheduler "z021" with entities [LocalPlayer, LocalPlayer], work=[286*, 0*]
388: 0x09B1 [0x1C] WAIT(60* ticks)
389: 0x09B4 [0x66] LOAD_EXT_SCHEDULER_MAIN: Load scheduler "tlk0" with entities [Ghatsad (ID: 17072368/0x010480F0), Ghatsad (ID: 17072368/0x010480F0)], work=69*
390: 0x09C3 [0x2B] Ghatsad (ID: 17072368/0x010480F0) [7313*]:
    → "Ah, you've touched upon an interesting area."
391: 0x09CA [0x23] WAIT_FOR_DIALOG_INTERACTION
392: 0x09CB [0x2B] Ghatsad (ID: 17072368/0x010480F0) [7314*]:
    → "But it is not the shape of the pillars that is so fascinating."
393: 0x09D2 [0x23] WAIT_FOR_DIALOG_INTERACTION
394: 0x09D3 [0x66] LOAD_EXT_SCHEDULER_MAIN: Load scheduler "tlk1" with entities [Ghatsad (ID: 17072368/0x010480F0), Ghatsad (ID: 17072368/0x010480F0)], work=69*
395: 0x09E2 [0x1C] WAIT(60* ticks)
396: 0x09E5 [0x52] END_LOAD_SCHEDULER: End scheduler "z021" with entities [LocalPlayer, LocalPlayer], work=286*
397: 0x09F4 [0x45] LOAD_SCHEDULED_TASK: Load scheduler "z022" with entities [LocalPlayer, LocalPlayer], work=[286*, 0*]
398: 0x0A05 [0x1C] WAIT(60* ticks)
399: 0x0A08 [0x66] LOAD_EXT_SCHEDULER_MAIN: Load scheduler "twb0" with entities [Ghatsad (ID: 17072368/0x010480F0), Ghatsad (ID: 17072368/0x010480F0)], work=69*
400: 0x0A17 [0x2B] Ghatsad (ID: 17072368/0x010480F0) [7315*]:
    → "Any person with a basic knowledge of archaeology would recognize the graceful conical base and frail-looking central column."
401: 0x0A1E [0x23] WAIT_FOR_DIALOG_INTERACTION
402: 0x0A1F [0x2B] Ghatsad (ID: 17072368/0x010480F0) [7316*]:
    → "This design was often seen in the temples built during the reign of Emperor Alzadaal, some 900 years ago."
403: 0x0A26 [0x23] WAIT_FOR_DIALOG_INTERACTION
404: 0x0A27 [0x2B] Ghatsad (ID: 17072368/0x010480F0) [7317*]:
    → "The fascinating thing about these pillars lies in the construction itself."
405: 0x0A2E [0x23] WAIT_FOR_DIALOG_INTERACTION
406: 0x0A2F [0x66] LOAD_EXT_SCHEDULER_MAIN: Load scheduler "twb1" with entities [Ghatsad (ID: 17072368/0x010480F0), Ghatsad (ID: 17072368/0x010480F0)], work=69*
407: 0x0A3E [0x1C] WAIT(45* ticks)
408: 0x0A41 [0x2B] Ghatsad (ID: 17072368/0x010480F0) [7318*]:
    → "There are markings that suggest a degree of rotation and elongation is possible..."
409: 0x0A48 [0x23] WAIT_FOR_DIALOG_INTERACTION
410: 0x0A49 [0x52] END_LOAD_SCHEDULER: End scheduler "z022" with entities [LocalPlayer, LocalPlayer], work=286*
411: 0x0A58 [0x45] LOAD_SCHEDULED_TASK: Load scheduler "z023" with entities [LocalPlayer, LocalPlayer], work=[286*, 0*]
412: 0x0A69 [0x1C] WAIT(30* ticks)
413: 0x0A6C [0x4A] Abda-Lurabda (ID: 17072369/0x010480F1) looks at Ghatsad (ID: 17072368/0x010480F0)
414: 0x0A75 [0x2B] Abda-Lurabda (ID: 17072369/0x010480F1) [7319*]:
    → "Why would they make a pillar like that?"
415: 0x0A7C [0x23] WAIT_FOR_DIALOG_INTERACTION
416: 0x0A7D [0x4A] Ghatsad (ID: 17072368/0x010480F0) looks at Abda-Lurabda (ID: 17072369/0x010480F1)
417: 0x0A86 [0x1C] WAIT(45* ticks)
418: 0x0A89 [0x6E] Ghatsad (ID: 17072368/0x010480F0) uses emote 22*
419: 0x0A90 [0x99] Wait for Ghatsad (ID: 17072368/0x010480F0) animation to complete
420: 0x0A95 [0x2B] Ghatsad (ID: 17072368/0x010480F0) [7320*]:
    → "Hmm, I wonder the same thing."
421: 0x0A9C [0x23] WAIT_FOR_DIALOG_INTERACTION
422: 0x0A9D [0x1C] WAIT(30* ticks)
423: 0x0AA0 [0x2B] Ghatsad (ID: 17072368/0x010480F0) [7321*]:
    → "I theorize that the architects of this structure wanted to incorporate a level of flexibility to compensate for the changes in water pressure..."
424: 0x0AA7 [0x23] WAIT_FOR_DIALOG_INTERACTION
425: 0x0AA8 [0x52] END_LOAD_SCHEDULER: End scheduler "z023" with entities [LocalPlayer, LocalPlayer], work=286*
426: 0x0AB7 [0x45] LOAD_SCHEDULED_TASK: Load scheduler "z024" with entities [LocalPlayer, LocalPlayer], work=[286*, 0*]
427: 0x0AC8 [0x1C] WAIT(60* ticks)
428: 0x0ACB [0x2B] Abda-Lurabda (ID: 17072369/0x010480F1) [7322*]:
    → "That's pretty clever..."
429: 0x0AD2 [0x23] WAIT_FOR_DIALOG_INTERACTION
430: 0x0AD3 [0x66] LOAD_EXT_SCHEDULER_MAIN: Load scheduler "thk1" with entities [Ghatsad (ID: 17072368/0x010480F0), Ghatsad (ID: 17072368/0x010480F0)], work=69*
431: 0x0AE2 [0x2B] Ghatsad (ID: 17072368/0x010480F0) [7323*]:
    → "Should these technological marvels be understood in the near future, I hope to adapt their use to the field of automaton construction..."
432: 0x0AE9 [0x23] WAIT_FOR_DIALOG_INTERACTION
433: 0x0AEA [0x1C] WAIT(60* ticks)
434: 0x0AED [0x2B] Abda-Lurabda (ID: 17072369/0x010480F1) [7324*]:
    → "Mister Ghatsad!"
435: 0x0AF4 [0x23] WAIT_FOR_DIALOG_INTERACTION
436: 0x0AF5 [0x6E] Abda-Lurabda (ID: 17072369/0x010480F1) uses emote 11*
437: 0x0AFC [0x99] Wait for Abda-Lurabda (ID: 17072369/0x010480F1) animation to complete
438: 0x0B01 [0x2B] Abda-Lurabda (ID: 17072369/0x010480F1) [7325*]:
    → "I'm gonna work real hard on my studies so I can help you!"
439: 0x0B08 [0x23] WAIT_FOR_DIALOG_INTERACTION
440: 0x0B09 [0x66] LOAD_EXT_SCHEDULER_MAIN: Load scheduler "thk2" with entities [Ghatsad (ID: 17072368/0x010480F0), Ghatsad (ID: 17072368/0x010480F0)], work=69*
441: 0x0B18 [0x03] Work_Zone[1] = 2*
442: 0x0B1D [0x43] SEND_EVENT_UPDATE: Send pending tag to server (packet 0x005B)
443: 0x0B1F [0x43] SEND_EVENT_UPDATE: Check pending flag (skip if not pending)
444: 0x0B21 [0x03] ExtData[1]->WorkLocal[2] = Work_Zone[2]
445: 0x0B26 [0x1C] WAIT(30* ticks)
446: 0x0B29 [0x1A] CALL_SUBROUTINE(address=0x26F9)
447: 0x0B2C [0x52] END_LOAD_SCHEDULER: End scheduler "z024" with entities [LocalPlayer, LocalPlayer], work=286*
448: 0x0B3B [0x27] REQ_SET(priority=0x10, entity_id=Ghatsad (ID: 17072368/0x010480F0), tag_num=0x0E)
449: 0x0B42 [0x27] REQ_SET(priority=0x10, entity_id=Abda-Lurabda (ID: 17072369/0x010480F1), tag_num=0x0E)
450: 0x0B49 [0x27] REQ_SET(priority=0x10, entity_id=Amnaf (ID: 17072371/0x010480F3), tag_num=0x0C)
451: 0x0B50 [0x01] GOTO 0x0DE4
452: 0x0B53 [0x02] IF !(Work_Zone[0] == 2*) GOTO 0x0DE4
453: 0x0B5B [0x52] END_LOAD_SCHEDULER: End scheduler "z014" with entities [LocalPlayer, LocalPlayer], work=286*
454: 0x0B6A [0x27] REQ_SET(priority=0x10, entity_id=Abda-Lurabda (ID: 17072369/0x010480F1), tag_num=0x13)
455: 0x0B71 [0x45] LOAD_SCHEDULED_TASK: Load scheduler "z025" with entities [LocalPlayer, LocalPlayer], work=[286*, 0*]
456: 0x0B82 [0x1C] WAIT(60* ticks)
457: 0x0B85 [0x2B] Ghatsad (ID: 17072368/0x010480F0) [7326*]:
    → "The floor? Yes, it really is quite fascinating."
458: 0x0B8C [0x23] WAIT_FOR_DIALOG_INTERACTION
459: 0x0B8D [0x52] END_LOAD_SCHEDULER: End scheduler "z025" with entities [LocalPlayer, LocalPlayer], work=286*
460: 0x0B9C [0x45] LOAD_SCHEDULED_TASK: Load scheduler "z026" with entities [LocalPlayer, LocalPlayer], work=[286*, 0*]
461: 0x0BAD [0x6E] Abda-Lurabda (ID: 17072369/0x010480F1) uses emote 11*
462: 0x0BB4 [0x99] Wait for Abda-Lurabda (ID: 17072369/0x010480F1) animation to complete
463: 0x0BB9 [0x2B] Abda-Lurabda (ID: 17072369/0x010480F1) [7327*]:
    → "Ooh, I wanted to hear about this!"
464: 0x0BC0 [0x23] WAIT_FOR_DIALOG_INTERACTION
465: 0x0BC1 [0x4A] Ghatsad (ID: 17072368/0x010480F0) looks at Abda-Lurabda (ID: 17072369/0x010480F1)
466: 0x0BCA [0x1C] WAIT(60* ticks)
467: 0x0BCD [0x2B] Ghatsad (ID: 17072368/0x010480F0) [7328*]:
    → "The elegant mosaics on the floor are designed with several different varieties of stones... One might say that these designs are symbolic of the prosperity of the Alzadaal Dynasty."
468: 0x0BD4 [0x23] WAIT_FOR_DIALOG_INTERACTION
469: 0x0BD5 [0x1C] WAIT(30* ticks)
470: 0x0BD8 [0x2B] Ghatsad (ID: 17072368/0x010480F0) [7329*]:
    → "It's a shame we've lost so many of the arts of that age..."
471: 0x0BDF [0x23] WAIT_FOR_DIALOG_INTERACTION
472: 0x0BE0 [0x4A] Ghatsad (ID: 17072368/0x010480F0) looks at LocalPlayer
473: 0x0BE9 [0x1C] WAIT(30* ticks)
474: 0x0BEC [0x52] END_LOAD_SCHEDULER: End scheduler "z026" with entities [LocalPlayer, LocalPlayer], work=286*
475: 0x0BFB [0x27] REQ_SET(priority=0x10, entity_id=Abda-Lurabda (ID: 17072369/0x010480F1), tag_num=0x14)
476: 0x0C02 [0x45] LOAD_SCHEDULED_TASK: Load scheduler "z027" with entities [LocalPlayer, LocalPlayer], work=[286*, 0*]
477: 0x0C13 [0x2B] Abda-Lurabda (ID: 17072369/0x010480F1) [7330*]:
    → "What about this shining symbol on the floor over here?"
478: 0x0C1A [0x23] WAIT_FOR_DIALOG_INTERACTION
479: 0x0C1B [0x2B] Abda-Lurabda (ID: 17072369/0x010480F1) [7331*]:
    → "I'm sure I've seen this design somewhere before..."
480: 0x0C22 [0x23] WAIT_FOR_DIALOG_INTERACTION
481: 0x0C23 [0x1C] WAIT(30* ticks)
482: 0x0C26 [0x2B] Abda-Lurabda (ID: 17072369/0x010480F1) [7332*]:
    → "Hmmm...."
483: 0x0C2D [0x23] WAIT_FOR_DIALOG_INTERACTION
484: 0x0C2E [0x1C] WAIT(30* ticks)
485: 0x0C31 [0x2B] Abda-Lurabda (ID: 17072369/0x010480F1) [7333*]:
    → "Dum-dee-dum-dee-dum..."
486: 0x0C38 [0x23] WAIT_FOR_DIALOG_INTERACTION
487: 0x0C39 [0x52] END_LOAD_SCHEDULER: End scheduler "z027" with entities [LocalPlayer, LocalPlayer], work=286*
488: 0x0C48 [0x45] LOAD_SCHEDULED_TASK: Load scheduler "z028" with entities [LocalPlayer, LocalPlayer], work=[286*, 0*]
489: 0x0C59 [0x1C] WAIT(60* ticks)
490: 0x0C5C [0x2B] Ghatsad (ID: 17072368/0x010480F0) [7334*]:
    → "That is a transport device not unlike the runic portals currently employed by the Empire."
491: 0x0C63 [0x23] WAIT_FOR_DIALOG_INTERACTION
492: 0x0C64 [0x27] REQ_SET(priority=0x10, entity_id=Abda-Lurabda (ID: 17072369/0x010480F1), tag_num=0x14)
493: 0x0C6B [0x1C] WAIT(45* ticks)
494: 0x0C6E [0x2B] Ghatsad (ID: 17072368/0x010480F0) [7335*]:
    → "The Aht Urhgan Archaeological Research Institute has deemed these devices safe for use in their continuing investigations."
495: 0x0C75 [0x23] WAIT_FOR_DIALOG_INTERACTION
496: 0x0C76 [0x52] END_LOAD_SCHEDULER: End scheduler "z028" with entities [LocalPlayer, LocalPlayer], work=286*
497: 0x0C85 [0x27] REQ_SET(priority=0x10, entity_id=Abda-Lurabda (ID: 17072369/0x010480F1), tag_num=0x14)
498: 0x0C8C [0x45] LOAD_SCHEDULED_TASK: Load scheduler "z029" with entities [LocalPlayer, LocalPlayer], work=[286*, 0*]
499: 0x0C9D [0x1C] WAIT(30* ticks)
500: 0x0CA0 [0x2B] Abda-Lurabda (ID: 17072369/0x010480F1) [7336*]:
    → "Hmmm... Dum-dee-dum-dee-dum... So they still work even after 900 years?"
501: 0x0CA7 [0x23] WAIT_FOR_DIALOG_INTERACTION
502: 0x0CA8 [0x1C] WAIT(30* ticks)
503: 0x0CAB [0x52] END_LOAD_SCHEDULER: End scheduler "z029" with entities [LocalPlayer, LocalPlayer], work=286*
504: 0x0CBA [0x45] LOAD_SCHEDULED_TASK: Load scheduler "z030" with entities [LocalPlayer, LocalPlayer], work=[286*, 0*]
505: 0x0CCB [0x1C] WAIT(60* ticks)
506: 0x0CCE [0x66] LOAD_EXT_SCHEDULER_MAIN: Load scheduler "twb0" with entities [Ghatsad (ID: 17072368/0x010480F0), Ghatsad (ID: 17072368/0x010480F0)], work=69*
507: 0x0CDD [0x2B] Ghatsad (ID: 17072368/0x010480F0) [7337*]:
    → "Yes. A curious fact."
508: 0x0CE4 [0x23] WAIT_FOR_DIALOG_INTERACTION
509: 0x0CE5 [0x2B] Ghatsad (ID: 17072368/0x010480F0) [7338*]:
    → "The A.A.R.I. has been diligent in its efforts to remove all traces of dust and grime as they work through the ruins, but have not attempted any maintenance."
510: 0x0CEC [0x23] WAIT_FOR_DIALOG_INTERACTION
511: 0x0CED [0x66] LOAD_EXT_SCHEDULER_MAIN: Load scheduler "twb1" with entities [Ghatsad (ID: 17072368/0x010480F0), Ghatsad (ID: 17072368/0x010480F0)], work=69*
512: 0x0CFC [0x2B] Ghatsad (ID: 17072368/0x010480F0) [7339*]:
    → "There simply hasn't been a need."
513: 0x0D03 [0x23] WAIT_FOR_DIALOG_INTERACTION
514: 0x0D04 [0x52] END_LOAD_SCHEDULER: End scheduler "z030" with entities [LocalPlayer, LocalPlayer], work=286*
515: 0x0D13 [0x27] REQ_SET(priority=0x10, entity_id=Abda-Lurabda (ID: 17072369/0x010480F1), tag_num=0x0F)
516: 0x0D1A [0x45] LOAD_SCHEDULED_TASK: Load scheduler "z031" with entities [LocalPlayer, LocalPlayer], work=[286*, 0*]
517: 0x0D2B [0x1C] WAIT(60* ticks)
518: 0x0D2E [0x2B] Ghatsad (ID: 17072368/0x010480F0) [7340*]:
    → "It's as if these ruins have been frozen in time..."
519: 0x0D35 [0x23] WAIT_FOR_DIALOG_INTERACTION
520: 0x0D36 [0x1C] WAIT(60* ticks)
521: 0x0D39 [0x2B] Ghatsad (ID: 17072368/0x010480F0) [7341*]:
    → "Not merely in appearance, but in all of its functions."
522: 0x0D40 [0x23] WAIT_FOR_DIALOG_INTERACTION
523: 0x0D41 [0x1C] WAIT(60* ticks)
524: 0x0D44 [0x52] END_LOAD_SCHEDULER: End scheduler "z031" with entities [LocalPlayer, LocalPlayer], work=286*
525: 0x0D53 [0x45] LOAD_SCHEDULED_TASK: Load scheduler "z032" with entities [LocalPlayer, LocalPlayer], work=[286*, 0*]
526: 0x0D64 [0x2B] Abda-Lurabda (ID: 17072369/0x010480F1) [7342*]:
    → "I love mysteries!"
527: 0x0D6B [0x23] WAIT_FOR_DIALOG_INTERACTION
528: 0x0D6C [0x4A] Ghatsad (ID: 17072368/0x010480F0) looks at Abda-Lurabda (ID: 17072369/0x010480F1)
529: 0x0D75 [0x2B] Abda-Lurabda (ID: 17072369/0x010480F1) [7343*]:
    → "I bet the ruins were just waiting for us to rediscover them!"
530: 0x0D7C [0x23] WAIT_FOR_DIALOG_INTERACTION
531: 0x0D7D [0x1C] WAIT(60* ticks)
532: 0x0D80 [0x66] LOAD_EXT_SCHEDULER_MAIN: Load scheduler "twb0" with entities [Ghatsad (ID: 17072368/0x010480F0), Ghatsad (ID: 17072368/0x010480F0)], work=69*
533: 0x0D8F [0x2B] Ghatsad (ID: 17072368/0x010480F0) [7344*]:
    → "You could be right, Abda-Lurabda..."
534: 0x0D96 [0x23] WAIT_FOR_DIALOG_INTERACTION
535: 0x0D97 [0x1C] WAIT(60* ticks)
536: 0x0D9A [0x66] LOAD_EXT_SCHEDULER_MAIN: Load scheduler "twb1" with entities [Ghatsad (ID: 17072368/0x010480F0), Ghatsad (ID: 17072368/0x010480F0)], work=69*
537: 0x0DA9 [0x03] Work_Zone[1] = 3*
538: 0x0DAE [0x43] SEND_EVENT_UPDATE: Send pending tag to server (packet 0x005B)
539: 0x0DB0 [0x43] SEND_EVENT_UPDATE: Check pending flag (skip if not pending)
540: 0x0DB2 [0x03] ExtData[1]->WorkLocal[2] = Work_Zone[2]
541: 0x0DB7 [0x1C] WAIT(60* ticks)
542: 0x0DBA [0x1A] CALL_SUBROUTINE(address=0x26F9)
543: 0x0DBD [0x52] END_LOAD_SCHEDULER: End scheduler "z032" with entities [LocalPlayer, LocalPlayer], work=286*
544: 0x0DCC [0x27] REQ_SET(priority=0x10, entity_id=Ghatsad (ID: 17072368/0x010480F0), tag_num=0x0E)
545: 0x0DD3 [0x27] REQ_SET(priority=0x10, entity_id=Abda-Lurabda (ID: 17072369/0x010480F1), tag_num=0x0E)
546: 0x0DDA [0x27] REQ_SET(priority=0x10, entity_id=Amnaf (ID: 17072371/0x010480F3), tag_num=0x0C)
547: 0x0DE1 [0x01] GOTO 0x0DE4

SUBROUTINE_0DE4:
548: 0x0DE4 [0x02] IF !(ExtData[1]->WorkLocal[2] == 7*) GOTO 0x0DEF
549: 0x0DEC [0x01] GOTO 0x077F
550: 0x0DEF [0x4A] Ghatsad (ID: 17072368/0x010480F0) looks at Abda-Lurabda (ID: 17072369/0x010480F1)
551: 0x0DF8 [0x4A] Rishfee (ID: 17072370/0x010480F2) looks at Abda-Lurabda (ID: 17072369/0x010480F1)
552: 0x0E01 [0x1C] WAIT(3* ticks)
553: 0x0E04 [0x45] LOAD_SCHEDULED_TASK: Load scheduler "z033" with entities [LocalPlayer, LocalPlayer], work=[286*, 0*]
554: 0x0E15 [0x1A] CALL_SUBROUTINE(address=0x26D8)
555: 0x0E18 [0x1C] WAIT(60* ticks)
556: 0x0E1B [0x4A] Abda-Lurabda (ID: 17072369/0x010480F1) looks at Ghatsad (ID: 17072368/0x010480F0)
557: 0x0E24 [0x2B] Ghatsad (ID: 17072368/0x010480F0) [7345*]:
    → "I think that's enough for one day. Time to return to the workshop."
558: 0x0E2B [0x23] WAIT_FOR_DIALOG_INTERACTION
559: 0x0E2C [0x5D] SET_MUSIC_VOLUME(volume=0*, fade_time=360*)
560: 0x0E31 [0x4A] Ghatsad (ID: 17072368/0x010480F0) looks at Abda-Lurabda (ID: 17072369/0x010480F1)
561: 0x0E3A [0x2B] Abda-Lurabda (ID: 17072369/0x010480F1) [7346*]:
    → "What? Already? We just got here!"
562: 0x0E41 [0x23] WAIT_FOR_DIALOG_INTERACTION
563: 0x0E42 [0x1C] WAIT(60* ticks)
564: 0x0E45 [0x2B] Ghatsad (ID: 17072368/0x010480F0) [7347*]:
    → "We can't have poor Tateeya mind the place all by herself, now can we?"
565: 0x0E4C [0x23] WAIT_FOR_DIALOG_INTERACTION
566: 0x0E4D [0x1C] WAIT(60* ticks)
567: 0x0E50 [0x52] END_LOAD_SCHEDULER: End scheduler "z033" with entities [LocalPlayer, LocalPlayer], work=286*
568: 0x0E5F [0x45] LOAD_SCHEDULED_TASK: Load scheduler "z034" with entities [LocalPlayer, LocalPlayer], work=[286*, 0*]
569: 0x0E70 [0x1C] WAIT(45* ticks)
570: 0x0E73 [0x6E] Abda-Lurabda (ID: 17072369/0x010480F1) uses emote 35*
571: 0x0E7A [0x99] Wait for Abda-Lurabda (ID: 17072369/0x010480F1) animation to complete
572: 0x0E7F [0x2B] Abda-Lurabda (ID: 17072369/0x010480F1) [7348*]:
    → "I suppose not... But you'll bring me here again, right?"
573: 0x0E86 [0x23] WAIT_FOR_DIALOG_INTERACTION
574: 0x0E87 [0x1C] WAIT(30* ticks)
575: 0x0E8A [0x6E] Ghatsad (ID: 17072368/0x010480F0) uses emote 7*
576: 0x0E91 [0x99] Wait for Ghatsad (ID: 17072368/0x010480F0) animation to complete
577: 0x0E96 [0x2B] Ghatsad (ID: 17072368/0x010480F0) [7349*]:
    → "I promise."
578: 0x0E9D [0x23] WAIT_FOR_DIALOG_INTERACTION
579: 0x0E9E [0x1C] WAIT(45* ticks)
580: 0x0EA1 [0x52] END_LOAD_SCHEDULER: End scheduler "z034" with entities [LocalPlayer, LocalPlayer], work=286*
581: 0x0EB0 [0x45] LOAD_SCHEDULED_TASK: Load scheduler "z035" with entities [LocalPlayer, LocalPlayer], work=[286*, 0*]
582: 0x0EC1 [0x1C] WAIT(60* ticks)
583: 0x0EC4 [0x4A] Ghatsad (ID: 17072368/0x010480F0) looks at Abda-Lurabda (ID: 17072369/0x010480F1)
584: 0x0ECD [0x2B] Ghatsad (ID: 17072368/0x010480F0) [7350*]:
    → "Rishfee, would you mind escorting young Abda-Lurabda back to Al Zahbi?"
585: 0x0ED4 [0x23] WAIT_FOR_DIALOG_INTERACTION
586: 0x0ED5 [0x6E] Rishfee (ID: 17072370/0x010480F2) uses emote 7*
587: 0x0EDC [0x99] Wait for Rishfee (ID: 17072370/0x010480F2) animation to complete
588: 0x0EE1 [0x1C] WAIT(45* ticks)
589: 0x0EE4 [0x2B] Abda-Lurabda (ID: 17072369/0x010480F1) [7351*]:
    → "Aren't you coming with me?"
590: 0x0EEB [0x23] WAIT_FOR_DIALOG_INTERACTION
591: 0x0EEC [0x1C] WAIT(60* ticks)
592: 0x0EEF [0x52] END_LOAD_SCHEDULER: End scheduler "z035" with entities [LocalPlayer, LocalPlayer], work=286*
593: 0x0EFE [0x45] LOAD_SCHEDULED_TASK: Load scheduler "z036" with entities [LocalPlayer, LocalPlayer], work=[286*, 0*]
594: 0x0F0F [0x1C] WAIT(60* ticks)
595: 0x0F12 [0x4A] Ghatsad (ID: 17072368/0x010480F0) looks at LocalPlayer
596: 0x0F1B [0x2B] Ghatsad (ID: 17072368/0x010480F0) [7352*]:
    → "Not just yet. I have some things to discuss with this mercenary..."
597: 0x0F22 [0x23] WAIT_FOR_DIALOG_INTERACTION
598: 0x0F23 [0x1C] WAIT(110* ticks)
599: 0x0F26 [0x2B] Abda-Lurabda (ID: 17072369/0x010480F1) [7353*]:
    → "Well, okay. See you later!"
600: 0x0F2D [0x23] WAIT_FOR_DIALOG_INTERACTION
601: 0x0F2E [0x29] REQ_SET_WAIT(priority=0x10, entity_id=Abda-Lurabda (ID: 17072369/0x010480F1), tag_num=0x10)
602: 0x0F35 [0x1C] WAIT(60* ticks)
603: 0x0F38 [0x52] END_LOAD_SCHEDULER: End scheduler "z036" with entities [LocalPlayer, LocalPlayer], work=286*
604: 0x0F47 [0x45] LOAD_SCHEDULED_TASK: Load scheduler "z038" with entities [LocalPlayer, LocalPlayer], work=[286*, 0*]
605: 0x0F58 [0x4A] Abda-Lurabda (ID: 17072369/0x010480F1) looks at Ghatsad (ID: 17072368/0x010480F0)
606: 0x0F61 [0x6E] Abda-Lurabda (ID: 17072369/0x010480F1) uses emote 8*
607: 0x0F68 [0x99] Wait for Abda-Lurabda (ID: 17072369/0x010480F1) animation to complete
608: 0x0F6D [0x99] Wait for Abda-Lurabda (ID: 17072369/0x010480F1) animation to complete
609: 0x0F72 [0x1C] WAIT(110* ticks)
610: 0x0F75 [0x27] REQ_SET(priority=0x10, entity_id=Abda-Lurabda (ID: 17072369/0x010480F1), tag_num=0x11)
611: 0x0F7C [0x1C] WAIT(60* ticks)
612: 0x0F7F [0x27] REQ_SET(priority=0x10, entity_id=Rishfee (ID: 17072370/0x010480F2), tag_num=0x0C)
613: 0x0F86 [0x1C] WAIT(90* ticks)
614: 0x0F89 [0x1A] CALL_SUBROUTINE(address=0x26F9)
615: 0x0F8C [0x52] END_LOAD_SCHEDULER: End scheduler "z038" with entities [LocalPlayer, LocalPlayer], work=286*
616: 0x0F9B [0x1C] WAIT(30* ticks)
617: 0x0F9E [0x27] REQ_SET(priority=0x10, entity_id=LocalPlayer, tag_num=0x3B)
618: 0x0FA5 [0x27] REQ_SET(priority=0x10, entity_id=Ghatsad (ID: 17072368/0x010480F0), tag_num=0x0F)
619: 0x0FAC [0x27] REQ_SET(priority=0x10, entity_id=Amnaf (ID: 17072371/0x010480F3), tag_num=0x0D)
620: 0x0FB3 [0x4E] SET_ENTITY_HIDE_FLAG: Hide Abda-Lurabda (ID: 17072369/0x010480F1)
621: 0x0FB9 [0x4E] SET_ENTITY_HIDE_FLAG: Hide Rishfee (ID: 17072370/0x010480F2)
622: 0x0FBF [0x1C] WAIT(90* ticks)
623: 0x0FC2 [0x45] LOAD_SCHEDULED_TASK: Load scheduler "z039" with entities [LocalPlayer, LocalPlayer], work=[286*, 0*]
624: 0x0FD3 [0x45] LOAD_SCHEDULED_TASK: Load scheduler "fdi2" with entities [LocalPlayer, LocalPlayer], work=[200*, 0*]
625: 0x0FE4 [0x1A] CALL_SUBROUTINE(address=0x26D8)
626: 0x0FE7 [0x1C] WAIT(60* ticks)
627: 0x0FEA [0x2B] Ghatsad (ID: 17072368/0x010480F0) [7354*]:
    → "I suppose you're wondering why I asked you to stay."
628: 0x0FF1 [0x23] WAIT_FOR_DIALOG_INTERACTION
629: 0x0FF2 [0x27] REQ_SET(priority=0x10, entity_id=Ghatsad (ID: 17072368/0x010480F0), tag_num=0x10)
630: 0x0FF9 [0x1C] WAIT(45* ticks)
631: 0x0FFC [0x2B] Ghatsad (ID: 17072368/0x010480F0) [7355*]:
    → "As you can see, I am also an alchemist affiliated with the Aht Urhgan Archaeological Research Institute."
632: 0x1003 [0x23] WAIT_FOR_DIALOG_INTERACTION
633: 0x1004 [0x2B] Ghatsad (ID: 17072368/0x010480F0) [7356*]:
    → "I often have cause to visit the ruins in this manner."
634: 0x100B [0x23] WAIT_FOR_DIALOG_INTERACTION
635: 0x100C [0x1C] WAIT(45* ticks)
636: 0x100F [0x5C] MUSIC_CONTROL: Set Idle (Day) music to song 185*
637: 0x1013 [0x5C] MUSIC_CONTROL: Set Idle (Night) music to song 185*
638: 0x1017 [0x9A] WAIT_MUSIC_SERVER()
639: 0x1018 [0x52] END_LOAD_SCHEDULER: End scheduler "z039" with entities [LocalPlayer, LocalPlayer], work=286*
640: 0x1027 [0x45] LOAD_SCHEDULED_TASK: Load scheduler "z045" with entities [LocalPlayer, LocalPlayer], work=[286*, 0*]
641: 0x1038 [0x27] REQ_SET(priority=0x10, entity_id=Amnaf (ID: 17072371/0x010480F3), tag_num=0x0E)
642: 0x103F [0x2B] Ghatsad (ID: 17072368/0x010480F0) [7357*]:
    → "Have you figured out what the A.A.R.I.'s true purpose is here in the ruins?"
643: 0x1046 [0x23] WAIT_FOR_DIALOG_INTERACTION
644: 0x1047 [0x1C] WAIT(45* ticks)
645: 0x104A [0x66] LOAD_EXT_SCHEDULER_MAIN: Load scheduler "twb0" with entities [Ghatsad (ID: 17072368/0x010480F0), Ghatsad (ID: 17072368/0x010480F0)], work=69*
646: 0x1059 [0x2B] Ghatsad (ID: 17072368/0x010480F0) [7358*]:
    → "The conservation of cultural heritage?"
647: 0x1060 [0x23] WAIT_FOR_DIALOG_INTERACTION
648: 0x1061 [0x1C] WAIT(45* ticks)
649: 0x1064 [0x2B] Ghatsad (ID: 17072368/0x010480F0) [7359*]:
    → "The research of ancient civilization?"
650: 0x106B [0x23] WAIT_FOR_DIALOG_INTERACTION
651: 0x106C [0x2B] Ghatsad (ID: 17072368/0x010480F0) [7360*]:
    → "These are merely facades."
652: 0x1073 [0x23] WAIT_FOR_DIALOG_INTERACTION
653: 0x1074 [0x66] LOAD_EXT_SCHEDULER_MAIN: Load scheduler "twb1" with entities [Ghatsad (ID: 17072368/0x010480F0), Ghatsad (ID: 17072368/0x010480F0)], work=69*
654: 0x1083 [0x1C] WAIT(30* ticks)
655: 0x1086 [0x52] END_LOAD_SCHEDULER: End scheduler "z045" with entities [LocalPlayer, LocalPlayer], work=286*
656: 0x1095 [0x45] LOAD_SCHEDULED_TASK: Load scheduler "z040" with entities [LocalPlayer, LocalPlayer], work=[286*, 0*]
657: 0x10A6 [0x1C] WAIT(45* ticks)
658: 0x10A9 [0x2B] Ghatsad (ID: 17072368/0x010480F0) [7361*]:
    → "The truth of the matter is, our organization is under orders from the Empress to locate the missing Astral Candescences."
659: 0x10B0 [0x23] WAIT_FOR_DIALOG_INTERACTION
660: 0x10B1 [0x1C] WAIT(30* ticks)
661: 0x10B4 [0x2B] Ghatsad (ID: 17072368/0x010480F0) [7362*]:
    → "Yes. The candescence held in Al Zahbi is not the only one in existence."
662: 0x10BB [0x23] WAIT_FOR_DIALOG_INTERACTION
663: 0x10BC [0x1C] WAIT(60* ticks)
664: 0x10BF [0x52] END_LOAD_SCHEDULER: End scheduler "z040" with entities [LocalPlayer, LocalPlayer], work=286*
665: 0x10CE [0x45] LOAD_SCHEDULED_TASK: Load scheduler "z041" with entities [LocalPlayer, LocalPlayer], work=[286*, 0*]
666: 0x10DF [0x2B] Ghatsad (ID: 17072368/0x010480F0) [7363*]:
    → "How much do you know about the Astral Candescence, <Player>?"
667: 0x10E6 [0x23] WAIT_FOR_DIALOG_INTERACTION
668: 0x10E7 [0x1C] WAIT(30* ticks)
669: 0x10EA [0x24] CREATE_DIALOG(message_id=7364*, default_option=0*, option_flags=0*)
    → "How much do you know? [I'm an expert./Not so much.]"
670: 0x10F1 [0x25] WAIT_DIALOG_SELECT()
671: 0x10F2 [0x02] IF !(Work_Zone[0] == 0*) GOTO 0x11C0
672: 0x10FA [0x52] END_LOAD_SCHEDULER: End scheduler "z041" with entities [LocalPlayer, LocalPlayer], work=286*
673: 0x1109 [0x45] LOAD_SCHEDULED_TASK: Load scheduler "z042" with entities [LocalPlayer, LocalPlayer], work=[286*, 0*]
674: 0x111A [0x1C] WAIT(45* ticks)
675: 0x111D [0x2B] Ghatsad (ID: 17072368/0x010480F0) [7365*]:
    → "Well, it seems our nation's treasure is more famous than I expected."
676: 0x1124 [0x23] WAIT_FOR_DIALOG_INTERACTION
677: 0x1125 [0x52] END_LOAD_SCHEDULER: End scheduler "z042" with entities [LocalPlayer, LocalPlayer], work=286*
678: 0x1134 [0x45] LOAD_SCHEDULED_TASK: Load scheduler "z043" with entities [LocalPlayer, LocalPlayer], work=[286*, 0*]
679: 0x1145 [0x1C] WAIT(60* ticks)
680: 0x1148 [0x6E] Ghatsad (ID: 17072368/0x010480F0) uses emote 32*
681: 0x114F [0x99] Wait for Ghatsad (ID: 17072368/0x010480F0) animation to complete
682: 0x1154 [0x2B] Ghatsad (ID: 17072368/0x010480F0) [7366*]:
    → "The Astral Candescence was originally brought into the city to halt the spread of the Bastokan Blight in the Empire."
683: 0x115B [0x23] WAIT_FOR_DIALOG_INTERACTION
684: 0x115C [0x2B] Ghatsad (ID: 17072368/0x010480F0) [7367*]:
    → "The emperor of the time hoped to ease the suffering of his people and his nation..."
685: 0x1163 [0x23] WAIT_FOR_DIALOG_INTERACTION
686: 0x1164 [0x1C] WAIT(45* ticks)
687: 0x1167 [0x2B] Ghatsad (ID: 17072368/0x010480F0) [7368*]:
    → "The candescence blesses all with its energy, regardless of station or wealth. It became a symbol of salvation."
688: 0x116E [0x23] WAIT_FOR_DIALOG_INTERACTION
689: 0x116F [0x52] END_LOAD_SCHEDULER: End scheduler "z043" with entities [LocalPlayer, LocalPlayer], work=286*
690: 0x117E [0x45] LOAD_SCHEDULED_TASK: Load scheduler "z044" with entities [LocalPlayer, LocalPlayer], work=[286*, 0*]
691: 0x118F [0x1C] WAIT(60* ticks)
692: 0x1192 [0x2B] Ghatsad (ID: 17072368/0x010480F0) [7369*]:
    → "It is ironic that the candescence is now the catalyst for a new conflict, as the beastmen hurl themselves against our defenses time and again in an effort to claim it."
693: 0x1199 [0x23] WAIT_FOR_DIALOG_INTERACTION
694: 0x119A [0x1C] WAIT(45* ticks)
695: 0x119D [0x45] LOAD_SCHEDULED_TASK: Load scheduler "ovl2" with entities [EventEntity, EventEntity], work=[200*, 0*]
696: 0x11AE [0x52] END_LOAD_SCHEDULER: End scheduler "z044" with entities [LocalPlayer, LocalPlayer], work=286*
697: 0x11BD [0x01] GOTO 0x12BF
698: 0x11C0 [0x02] IF !(Work_Zone[0] == 1*) GOTO 0x12BF
699: 0x11C8 [0x52] END_LOAD_SCHEDULER: End scheduler "z041" with entities [LocalPlayer, LocalPlayer], work=286*
700: 0x11D7 [0x45] LOAD_SCHEDULED_TASK: Load scheduler "z042" with entities [LocalPlayer, LocalPlayer], work=[286*, 0*]
701: 0x11E8 [0x1C] WAIT(60* ticks)
702: 0x11EB [0x66] LOAD_EXT_SCHEDULER_MAIN: Load scheduler "twb0" with entities [Ghatsad (ID: 17072368/0x010480F0), Ghatsad (ID: 17072368/0x010480F0)], work=69*
703: 0x11FA [0x2B] Ghatsad (ID: 17072368/0x010480F0) [7370*]:
    → "The Astral Candescence is a national treasure that is set upon the Astral Plinth within Al Zahbi's Hall of Binding."
704: 0x1201 [0x23] WAIT_FOR_DIALOG_INTERACTION
705: 0x1202 [0x2B] Ghatsad (ID: 17072368/0x010480F0) [7371*]:
    → "Known as the "Astral Wind," the infinite energy of the astral plane flows from this treasure..."
706: 0x1209 [0x23] WAIT_FOR_DIALOG_INTERACTION
707: 0x120A [0x2B] Ghatsad (ID: 17072368/0x010480F0) [7372*]:
    → "...uplifting the Empire's citizens and granting them courage. It is the source of the Empire's prosperity."
708: 0x1211 [0x23] WAIT_FOR_DIALOG_INTERACTION
709: 0x1212 [0x66] LOAD_EXT_SCHEDULER_MAIN: Load scheduler "twb1" with entities [Ghatsad (ID: 17072368/0x010480F0), Ghatsad (ID: 17072368/0x010480F0)], work=69*
710: 0x1221 [0x1C] WAIT(45* ticks)
711: 0x1224 [0x52] END_LOAD_SCHEDULER: End scheduler "z042" with entities [LocalPlayer, LocalPlayer], work=286*
712: 0x1233 [0x45] LOAD_SCHEDULED_TASK: Load scheduler "z044" with entities [LocalPlayer, LocalPlayer], work=[286*, 0*]
713: 0x1244 [0x1C] WAIT(45* ticks)
714: 0x1247 [0x2B] Ghatsad (ID: 17072368/0x010480F0) [7373*]:
    → "And yet the candescence is also the catalyst for unending conflict, as the beastmen hurl themselves against our defenses time and again in an effort to claim it."
715: 0x124E [0x23] WAIT_FOR_DIALOG_INTERACTION
716: 0x124F [0x2B] Ghatsad (ID: 17072368/0x010480F0) [7374*]:
    → "We receive the blessings of the candescence at the price of peace..."
717: 0x1256 [0x23] WAIT_FOR_DIALOG_INTERACTION
718: 0x1257 [0x1C] WAIT(45* ticks)
719: 0x125A [0x52] END_LOAD_SCHEDULER: End scheduler "z044" with entities [LocalPlayer, LocalPlayer], work=286*
720: 0x1269 [0x45] LOAD_SCHEDULED_TASK: Load scheduler "z043" with entities [LocalPlayer, LocalPlayer], work=[286*, 0*]
721: 0x127A [0x1C] WAIT(60* ticks)
722: 0x127D [0x6E] Abda-Lurabda (ID: 17072369/0x010480F1) uses emote 32*
723: 0x1284 [0x99] Wait for Abda-Lurabda (ID: 17072369/0x010480F1) animation to complete
724: 0x1289 [0x2B] Ghatsad (ID: 17072368/0x010480F0) [7366*]:
    → "The Astral Candescence was originally brought into the city to halt the spread of the Bastokan Blight in the Empire."
725: 0x1290 [0x23] WAIT_FOR_DIALOG_INTERACTION
726: 0x1291 [0x2B] Ghatsad (ID: 17072368/0x010480F0) [7367*]:
    → "The emperor of the time hoped to ease the suffering of his people and his nation..."
727: 0x1298 [0x23] WAIT_FOR_DIALOG_INTERACTION
728: 0x1299 [0x1C] WAIT(90* ticks)
729: 0x129C [0x45] LOAD_SCHEDULED_TASK: Load scheduler "ovl2" with entities [EventEntity, EventEntity], work=[200*, 0*]
730: 0x12AD [0x52] END_LOAD_SCHEDULER: End scheduler "z043" with entities [LocalPlayer, LocalPlayer], work=286*
731: 0x12BC [0x01] GOTO 0x12BF

SUBROUTINE_12BF:
732: 0x12BF [0x45] LOAD_SCHEDULED_TASK: Load scheduler "z046" with entities [LocalPlayer, LocalPlayer], work=[286*, 0*]
733: 0x12D0 [0x1C] WAIT(45* ticks)
734: 0x12D3 [0x27] REQ_SET(priority=0x10, entity_id=Ghatsad (ID: 17072368/0x010480F0), tag_num=0x11)
735: 0x12DA [0x2B] Ghatsad (ID: 17072368/0x010480F0) [7375*]:
    → "But there is more than one candescence. There are few that are aware of this fact."
736: 0x12E1 [0x23] WAIT_FOR_DIALOG_INTERACTION
737: 0x12E2 [0x4A] Amnaf (ID: 17072371/0x010480F3) looks at Ghatsad (ID: 17072368/0x010480F0)
738: 0x12EB [0x1C] WAIT(30* ticks)
739: 0x12EE [0x2B] Ghatsad (ID: 17072368/0x010480F0) [7376*]:
    → "Through the research of various ancient texts and relics, we have verified the existence of four other candescences."
740: 0x12F5 [0x23] WAIT_FOR_DIALOG_INTERACTION
741: 0x12F6 [0x1C] WAIT(30* ticks)
742: 0x12F9 [0x52] END_LOAD_SCHEDULER: End scheduler "z046" with entities [LocalPlayer, LocalPlayer], work=286*
743: 0x1308 [0x45] LOAD_SCHEDULED_TASK: Load scheduler "z048" with entities [LocalPlayer, LocalPlayer], work=[286*, 0*]
744: 0x1319 [0x1C] WAIT(30* ticks)
745: 0x131C [0x2B] Ghatsad (ID: 17072368/0x010480F0) [7377*]:
    → "If we can but find these missing treasures, there may be a chance to end this futile conflict."
746: 0x1323 [0x23] WAIT_FOR_DIALOG_INTERACTION
747: 0x1324 [0x2B] Ghatsad (ID: 17072368/0x010480F0) [7378*]:
    → "That is the aim of the A.A.R.I."
748: 0x132B [0x23] WAIT_FOR_DIALOG_INTERACTION
749: 0x132C [0x1C] WAIT(30* ticks)
750: 0x132F [0x52] END_LOAD_SCHEDULER: End scheduler "z048" with entities [LocalPlayer, LocalPlayer], work=286*
751: 0x133E [0x45] LOAD_SCHEDULED_TASK: Load scheduler "z047" with entities [LocalPlayer, LocalPlayer], work=[286*, 0*]
752: 0x134F [0x1C] WAIT(60* ticks)
753: 0x1352 [0x4A] Ghatsad (ID: 17072368/0x010480F0) looks at LocalPlayer
754: 0x135B [0x2B] Ghatsad (ID: 17072368/0x010480F0) [7379*]:
    → "What do you say, <Player>? Will you aid us in our search?"
755: 0x1362 [0x23] WAIT_FOR_DIALOG_INTERACTION
756: 0x1363 [0x1C] WAIT(60* ticks)
757: 0x1366 [0x66] LOAD_EXT_SCHEDULER_MAIN: Load scheduler "twa0" with entities [Ghatsad (ID: 17072368/0x010480F0), Ghatsad (ID: 17072368/0x010480F0)], work=69*
758: 0x1375 [0x2B] Ghatsad (ID: 17072368/0x010480F0) [7380*]:
    → "Hm? You wonder why I know your name?"
759: 0x137C [0x23] WAIT_FOR_DIALOG_INTERACTION
760: 0x137D [0x2B] Ghatsad (ID: 17072368/0x010480F0) [7381*]:
    → "It is not so surprising. I was the one who sent the request to Salaheem's Sentinels asking you to patrol the ruins."
761: 0x1384 [0x23] WAIT_FOR_DIALOG_INTERACTION
