# 17072336

## Common Data

| Field            | Value                            |
|------------------|----------------------------------|
| Zone             | Alzadaal Undersea Ruins (ID: 72) |
| Block Size       | 152 bytes                        |
| Total Events     | 10                               |
| References Count | 4                                |

## List of Events

| Event ID                 | Entrypoint   |   Size |   Instructions |
|--------------------------|--------------|--------|----------------|
| [65535](#event-65535)    | 0x0000       |      1 |              1 |
| [10](#event-10)          | 0x0001       |      1 |              1 |
| [65535.1](#event-655351) | 0x0002       |     10 |              2 |
| [65535.2](#event-655352) | 0x000C       |     10 |              2 |
| [65535.3](#event-655353) | 0x0016       |     10 |              2 |
| [65535.4](#event-655354) | 0x0020       |     10 |              2 |
| [9](#event-9)            | 0x002A       |      1 |              1 |
| [124](#event-124)        | 0x002B       |      1 |              1 |
| [125](#event-125)        | 0x002C       |      1 |              1 |
| [65535.5](#event-655355) | 0x002D       |     35 |              6 |

## DAT References (imed_data)

|   Index | Hex Value   |   Dec Value |
|---------|-------------|-------------|
|       0 | 0x0080      |         128 |
|       1 | 0x0001      |           1 |
|       2 | 0x0000      |           0 |
|       3 | 0x001E      |          30 |

## Events

### Event 65535

#### Metadata

| Field        | Value   |
|--------------|---------|
| Entrypoint   | 0x0000  |
| Data Size    | 1 bytes |
| Instructions | 1       |

```
      00 01 02 03 04 05 06 07  08 09 0A 0B 0C 0D 0E 0F
      -- -- -- -- -- -- -- --  -- -- -- -- -- -- -- --
0000: 00                                                .               
```

#### Opcodes

```
  0: 0x0000 [0x00] END_REQSTACK()
```

### Event 10

#### Metadata

| Field        | Value   |
|--------------|---------|
| Entrypoint   | 0x0001  |
| Data Size    | 1 bytes |
| Instructions | 1       |

```
      00 01 02 03 04 05 06 07  08 09 0A 0B 0C 0D 0E 0F
      -- -- -- -- -- -- -- --  -- -- -- -- -- -- -- --
0000:    00                                              .              
```

#### Opcodes

```
  0: 0x0001 [0x00] END_REQSTACK()
```

### Event 65535.1

#### Metadata

| Field        | Value    |
|--------------|----------|
| Entrypoint   | 0x0002   |
| Data Size    | 10 bytes |
| Instructions | 2        |

```
      00 01 02 03 04 05 06 07  08 09 0A 0B 0C 0D 0E 0F
      -- -- -- -- -- -- -- --  -- -- -- -- -- -- -- --
0000:       6C D8 80 04 01 00  80 01 80 00                l.........    
```

#### Opcodes

```
  0: 0x0002 [0x6C] FADE_ENTITY_COLOR(entity_id=Nashmeira (ID: 17072344/0x010480D8), end_alpha=128*, fade_time=1*)
  1: 0x000B [0x00] END_REQSTACK()
```

### Event 65535.2

#### Metadata

| Field        | Value    |
|--------------|----------|
| Entrypoint   | 0x000C   |
| Data Size    | 10 bytes |
| Instructions | 2        |

```
      00 01 02 03 04 05 06 07  08 09 0A 0B 0C 0D 0E 0F
      -- -- -- -- -- -- -- --  -- -- -- -- -- -- -- --
0000:                                      6C D8 80 04              l...
0010: 01 02 80 01 80 00                                 ......          
```

#### Opcodes

```
  0: 0x000C [0x6C] FADE_ENTITY_COLOR(entity_id=Nashmeira (ID: 17072344/0x010480D8), end_alpha=0*, fade_time=1*)
  1: 0x0015 [0x00] END_REQSTACK()
```

### Event 65535.3

#### Metadata

| Field        | Value    |
|--------------|----------|
| Entrypoint   | 0x0016   |
| Data Size    | 10 bytes |
| Instructions | 2        |

```
      00 01 02 03 04 05 06 07  08 09 0A 0B 0C 0D 0E 0F
      -- -- -- -- -- -- -- --  -- -- -- -- -- -- -- --
0010:                   6C E9  80 04 01 00 80 01 80 00        l.........
```

#### Opcodes

```
  0: 0x0016 [0x6C] FADE_ENTITY_COLOR(entity_id=Odin (ID: 17072361/0x010480E9), end_alpha=128*, fade_time=1*)
  1: 0x001F [0x00] END_REQSTACK()
```

### Event 65535.4

#### Metadata

| Field        | Value    |
|--------------|----------|
| Entrypoint   | 0x0020   |
| Data Size    | 10 bytes |
| Instructions | 2        |

```
      00 01 02 03 04 05 06 07  08 09 0A 0B 0C 0D 0E 0F
      -- -- -- -- -- -- -- --  -- -- -- -- -- -- -- --
0020: 6C E9 80 04 01 02 80 01  80 00                    l.........      
```

#### Opcodes

```
  0: 0x0020 [0x6C] FADE_ENTITY_COLOR(entity_id=Odin (ID: 17072361/0x010480E9), end_alpha=0*, fade_time=1*)
  1: 0x0029 [0x00] END_REQSTACK()
```

### Event 9

#### Metadata

| Field        | Value   |
|--------------|---------|
| Entrypoint   | 0x002A  |
| Data Size    | 1 bytes |
| Instructions | 1       |

```
      00 01 02 03 04 05 06 07  08 09 0A 0B 0C 0D 0E 0F
      -- -- -- -- -- -- -- --  -- -- -- -- -- -- -- --
0020:                                00                           .     
```

#### Opcodes

```
  0: 0x002A [0x00] END_REQSTACK()
```

### Event 124

#### Metadata

| Field        | Value   |
|--------------|---------|
| Entrypoint   | 0x002B  |
| Data Size    | 1 bytes |
| Instructions | 1       |

```
      00 01 02 03 04 05 06 07  08 09 0A 0B 0C 0D 0E 0F
      -- -- -- -- -- -- -- --  -- -- -- -- -- -- -- --
0020:                                   00                         .    
```

#### Opcodes

```
  0: 0x002B [0x00] END_REQSTACK()
```

### Event 125

#### Metadata

| Field        | Value   |
|--------------|---------|
| Entrypoint   | 0x002C  |
| Data Size    | 1 bytes |
| Instructions | 1       |

```
      00 01 02 03 04 05 06 07  08 09 0A 0B 0C 0D 0E 0F
      -- -- -- -- -- -- -- --  -- -- -- -- -- -- -- --
0020:                                      00                       .   
```

#### Opcodes

```
  0: 0x002C [0x00] END_REQSTACK()
```

### Event 65535.5

#### Metadata

| Field        | Value    |
|--------------|----------|
| Entrypoint   | 0x002D   |
| Data Size    | 35 bytes |
| Instructions | 6        |

```
      00 01 02 03 04 05 06 07  08 09 0A 0B 0C 0D 0E 0F
      -- -- -- -- -- -- -- --  -- -- -- -- -- -- -- --
0020:                                         1C 03 80               ...
0030: 79 00 D7 80 04 01 02 81  04 01 4A 00 81 04 01 02  y.........J.....
0040: 81 04 01 1C 03 80 4A F0  FF FF 7F 02 81 04 01 00  ......J.........
```

#### Opcodes

```
  0: 0x002D [0x1C] WAIT(30* ticks)
  1: 0x0030 [0x79] Nashmeira (ID: 17072343/0x010480D7) looks at Alexander (ID: 17072386/0x01048102) (Basic look)
  2: 0x003A [0x4A] Tenzen (ID: 17072384/0x01048100) looks at Alexander (ID: 17072386/0x01048102)
  3: 0x0043 [0x1C] WAIT(30* ticks)
  4: 0x0046 [0x4A] LocalPlayer looks at Alexander (ID: 17072386/0x01048102)
  5: 0x004F [0x00] END_REQSTACK()
```
