# 17072369 - Abda-Lurabda

## Common Data

| Field            | Value                            |
|------------------|----------------------------------|
| Zone             | Alzadaal Undersea Ruins (ID: 72) |
| Block Size       | 692 bytes                        |
| Total Events     | 22                               |
| References Count | 54                               |

## List of Events

| Event ID                   | Entrypoint   |   Size |   Instructions |
|----------------------------|--------------|--------|----------------|
| [65535](#event-65535)      | 0x0000       |      1 |              1 |
| [65535.1](#event-655351)   | 0x0001       |      1 |              1 |
| [65535.2](#event-655352)   | 0x0002       |     18 |              4 |
| [65535.3](#event-655353)   | 0x0014       |     10 |              2 |
| [65535.4](#event-655354)   | 0x001E       |      9 |              3 |
| [65535.5](#event-655355)   | 0x0027       |      9 |              3 |
| [65535.6](#event-655356)   | 0x0030       |     10 |              2 |
| [65535.7](#event-655357)   | 0x003A       |     10 |              2 |
| [1](#event-1)              | 0x0044       |      1 |              1 |
| [65535.8](#event-655358)   | 0x0045       |      1 |              1 |
| [65535.9](#event-655359)   | 0x0046       |     56 |             12 |
| [65535.10](#event-6553510) | 0x007E       |     19 |              5 |
| [65535.11](#event-6553511) | 0x0091       |     19 |              5 |
| [65535.12](#event-6553512) | 0x00A4       |     19 |              5 |
| [65535.13](#event-6553513) | 0x00B7       |     15 |              3 |
| [65535.14](#event-6553514) | 0x00C6       |     28 |              6 |
| [65535.15](#event-6553515) | 0x00E2       |     14 |              4 |
| [65535.16](#event-6553516) | 0x00F0       |     14 |              4 |
| [65535.17](#event-6553517) | 0x00FE       |      4 |              2 |
| [65535.18](#event-6553518) | 0x0102       |     10 |              2 |
| [65535.19](#event-6553519) | 0x010C       |     84 |             18 |
| [65535.20](#event-6553520) | 0x0160       |     19 |              5 |

## DAT References (imed_data)

|   Index | Hex Value   |   Dec Value |
|---------|-------------|-------------|
|       0 | 0x0000      |           0 |
|       1 | 0x0001      |           1 |
|       2 | 0x0080      |         128 |
|       3 | 0x67F0A     |      425738 |
|       4 | 0xFFF7269A  |  4294387354 |
|       5 | 0x0FB7      |        4023 |
|       6 | 0x0028      |          40 |
|       7 | 0x714ED     |      464109 |
|       8 | 0xFFF724C6  |  4294386886 |
|       9 | 0xFFFFFE0D  |  4294966797 |
|      10 | 0x000B      |          11 |
|      11 | 0x0078      |         120 |
|      12 | 0x725CD     |      468429 |
|      13 | 0xFFF725FD  |  4294387197 |
|      14 | 0x70038     |      458808 |
|      15 | 0xFFF7269F  |  4294387359 |
|      16 | 0x000D      |          13 |
|      17 | 0x6FA3D     |      457277 |
|      18 | 0xFFF7248F  |  4294386831 |
|      19 | 0x73E8A     |      474762 |
|      20 | 0xFFF726DB  |  4294387419 |
|      21 | 0xFFFFFE72  |  4294966898 |
|      22 | 0x70376     |      459638 |
|      23 | 0xFFF7273A  |  4294387514 |
|      24 | 0x07D0      |        2000 |
|      25 | 0x6E535     |      451893 |
|      26 | 0xFFF7318E  |  4294390158 |
|      27 | 0x0F8C      |        3980 |
|      28 | 0x6DBF6     |      449526 |
|      29 | 0xFFF728FD  |  4294387965 |
|      30 | 0x0032      |          50 |
|      31 | 0x64639     |      411193 |
|      32 | 0xFFF7279E  |  4294387614 |
|      33 | 0x0FFA      |        4090 |
|      34 | 0x6D04B     |      446539 |
|      35 | 0xFFF7801C  |  4294410268 |
|      36 | 0xFFFFFC19  |  4294966297 |
|      37 | 0x0F87      |        3975 |
|      38 | 0x6D45F     |      447583 |
|      39 | 0xFFF786AC  |  4294411948 |
|      40 | 0x6D569     |      447849 |
|      41 | 0xFFF7893D  |  4294412605 |
|      42 | 0x6D4AE     |      447662 |
|      43 | 0xFFF790E1  |  4294414561 |
|      44 | 0x6D0BC     |      446652 |
|      45 | 0xFFF793D0  |  4294415312 |
|      46 | 0x6CB3F     |      445247 |
|      47 | 0xFFF790BA  |  4294414522 |
|      48 | 0x6C9EE     |      444910 |
|      49 | 0xFFF78B42  |  4294413122 |
|      50 | 0x6CBD3     |      445395 |
|      51 | 0xFFF787CD  |  4294412237 |
|      52 | 0x6CFAB     |      446379 |
|      53 | 0xFFF7875C  |  4294412124 |

## Events

### Event 65535

#### Metadata

| Field        | Value   |
|--------------|---------|
| Entrypoint   | 0x0000  |
| Data Size    | 1 bytes |
| Instructions | 1       |

```
      00 01 02 03 04 05 06 07  08 09 0A 0B 0C 0D 0E 0F
      -- -- -- -- -- -- -- --  -- -- -- -- -- -- -- --
0000: 00                                                .               
```

#### Opcodes

```
  0: 0x0000 [0x00] END_REQSTACK()
```

### Event 65535.1

#### Metadata

| Field        | Value   |
|--------------|---------|
| Entrypoint   | 0x0001  |
| Data Size    | 1 bytes |
| Instructions | 1       |

```
      00 01 02 03 04 05 06 07  08 09 0A 0B 0C 0D 0E 0F
      -- -- -- -- -- -- -- --  -- -- -- -- -- -- -- --
0000:    00                                              .              
```

#### Opcodes

```
  0: 0x0001 [0x00] END_REQSTACK()
```

### Event 65535.2

#### Metadata

| Field        | Value    |
|--------------|----------|
| Entrypoint   | 0x0002   |
| Data Size    | 18 bytes |
| Instructions | 4        |

```
      00 01 02 03 04 05 06 07  08 09 0A 0B 0C 0D 0E 0F
      -- -- -- -- -- -- -- --  -- -- -- -- -- -- -- --
0000:       22 00 2F 00 F8 FF  FF 7F 6C F8 FF FF 7F 00    "./.....l.....
0010: 80 01 80 00                                       ....            
```

#### Opcodes

```
  0: 0x0002 [0x22] ENTITY_HIDE_FLAG(enabled=0x00)
  1: 0x0004 [0x2F] EventEntity->Render.Flags0 &= ~0x80000 // Bit 19
  2: 0x000A [0x6C] FADE_ENTITY_COLOR(entity_id=EventEntity, end_alpha=0*, fade_time=1*)
  3: 0x0013 [0x00] END_REQSTACK()
```

### Event 65535.3

#### Metadata

| Field        | Value    |
|--------------|----------|
| Entrypoint   | 0x0014   |
| Data Size    | 10 bytes |
| Instructions | 2        |

```
      00 01 02 03 04 05 06 07  08 09 0A 0B 0C 0D 0E 0F
      -- -- -- -- -- -- -- --  -- -- -- -- -- -- -- --
0010:             6C F8 FF FF  7F 02 80 01 80 00            l.........  
```

#### Opcodes

```
  0: 0x0014 [0x6C] FADE_ENTITY_COLOR(entity_id=EventEntity, end_alpha=128*, fade_time=1*)
  1: 0x001D [0x00] END_REQSTACK()
```

### Event 65535.4

#### Metadata

| Field        | Value   |
|--------------|---------|
| Entrypoint   | 0x001E  |
| Data Size    | 9 bytes |
| Instructions | 3       |

```
      00 01 02 03 04 05 06 07  08 09 0A 0B 0C 0D 0E 0F
      -- -- -- -- -- -- -- --  -- -- -- -- -- -- -- --
0010:                                            22 00                ".
0020: 2F 00 F8 FF FF 7F 00                              /......         
```

#### Opcodes

```
  0: 0x001E [0x22] ENTITY_HIDE_FLAG(enabled=0x00)
  1: 0x0020 [0x2F] EventEntity->Render.Flags0 &= ~0x80000 // Bit 19
  2: 0x0026 [0x00] END_REQSTACK()
```

### Event 65535.5

#### Metadata

| Field        | Value   |
|--------------|---------|
| Entrypoint   | 0x0027  |
| Data Size    | 9 bytes |
| Instructions | 3       |

```
      00 01 02 03 04 05 06 07  08 09 0A 0B 0C 0D 0E 0F
      -- -- -- -- -- -- -- --  -- -- -- -- -- -- -- --
0020:                      22  01 2F 01 F8 FF FF 7F 00         "./......
```

#### Opcodes

```
  0: 0x0027 [0x22] ENTITY_HIDE_FLAG(enabled=0x01)
  1: 0x0029 [0x2F] EventEntity->Render.Flags0 |= 0x80000 // Bit 19
  2: 0x002F [0x00] END_REQSTACK()
```

### Event 65535.6

#### Metadata

| Field        | Value    |
|--------------|----------|
| Entrypoint   | 0x0030   |
| Data Size    | 10 bytes |
| Instructions | 2        |

```
      00 01 02 03 04 05 06 07  08 09 0A 0B 0C 0D 0E 0F
      -- -- -- -- -- -- -- --  -- -- -- -- -- -- -- --
0030: 6C F8 FF FF 7F 00 80 01  80 00                    l.........      
```

#### Opcodes

```
  0: 0x0030 [0x6C] FADE_ENTITY_COLOR(entity_id=EventEntity, end_alpha=0*, fade_time=1*)
  1: 0x0039 [0x00] END_REQSTACK()
```

### Event 65535.7

#### Metadata

| Field        | Value    |
|--------------|----------|
| Entrypoint   | 0x003A   |
| Data Size    | 10 bytes |
| Instructions | 2        |

```
      00 01 02 03 04 05 06 07  08 09 0A 0B 0C 0D 0E 0F
      -- -- -- -- -- -- -- --  -- -- -- -- -- -- -- --
0030:                                6C F8 FF FF 7F 02            l.....
0040: 80 01 80 00                                       ....            
```

#### Opcodes

```
  0: 0x003A [0x6C] FADE_ENTITY_COLOR(entity_id=EventEntity, end_alpha=128*, fade_time=1*)
  1: 0x0043 [0x00] END_REQSTACK()
```

### Event 1

#### Metadata

| Field        | Value   |
|--------------|---------|
| Entrypoint   | 0x0044  |
| Data Size    | 1 bytes |
| Instructions | 1       |

```
      00 01 02 03 04 05 06 07  08 09 0A 0B 0C 0D 0E 0F
      -- -- -- -- -- -- -- --  -- -- -- -- -- -- -- --
0040:             00                                        .           
```

#### Opcodes

```
  0: 0x0044 [0x00] END_REQSTACK()
```

### Event 65535.8

#### Metadata

| Field        | Value   |
|--------------|---------|
| Entrypoint   | 0x0045  |
| Data Size    | 1 bytes |
| Instructions | 1       |

```
      00 01 02 03 04 05 06 07  08 09 0A 0B 0C 0D 0E 0F
      -- -- -- -- -- -- -- --  -- -- -- -- -- -- -- --
0040:                00                                      .          
```

#### Opcodes

```
  0: 0x0045 [0x00] END_REQSTACK()
```

### Event 65535.9

#### Metadata

| Field        | Value    |
|--------------|----------|
| Entrypoint   | 0x0046   |
| Data Size    | 56 bytes |
| Instructions | 12       |

```
      00 01 02 03 04 05 06 07  08 09 0A 0B 0C 0D 0E 0F
      -- -- -- -- -- -- -- --  -- -- -- -- -- -- -- --
0040:                   37 03  80 04 80 00 80 05 80 32        7........2
0050: 06 80 1F 00 07 80 08 80  09 80 1F 01 6E F1 80 04  ............n...
0060: 01 0A 80 99 F1 80 04 01  99 F1 80 04 01 1C 0B 80  ................
0070: 32 06 80 1F 00 0C 80 0D  80 09 80 1F 01 00        2.............  
```

#### Opcodes

```
  0: 0x0046 [0x37] UPDATE_EVENT_POSITION_AND_DIR: x=425.738*, z=-579.942*, y=0.000*, direction=353.6°*
  1: 0x004F [0x32] ExtData[1]->MainSpeed = 40* * 0.1
  2: 0x0052 [0x1F] MOVE_ENTITY: EventEntity moves to X=464.109*, Z=-580.410*, Y=-0.499*
  3: 0x005A [0x1F] MOVE_ENTITY: Update entity position (mode=1)
  4: 0x005C [0x6E] Abda-Lurabda (ID: 17072369/0x010480F1) uses emote 11*
  5: 0x0063 [0x99] Wait for Abda-Lurabda (ID: 17072369/0x010480F1) animation to complete
  6: 0x0068 [0x99] Wait for Abda-Lurabda (ID: 17072369/0x010480F1) animation to complete
  7: 0x006D [0x1C] WAIT(120* ticks)
  8: 0x0070 [0x32] ExtData[1]->MainSpeed = 40* * 0.1
  9: 0x0073 [0x1F] MOVE_ENTITY: EventEntity moves to X=468.429*, Z=-580.099*, Y=-0.499*
 10: 0x007B [0x1F] MOVE_ENTITY: Update entity position (mode=1)
 11: 0x007D [0x00] END_REQSTACK()
```

### Event 65535.10

#### Metadata

| Field        | Value    |
|--------------|----------|
| Entrypoint   | 0x007E   |
| Data Size    | 19 bytes |
| Instructions | 5        |

```
      00 01 02 03 04 05 06 07  08 09 0A 0B 0C 0D 0E 0F
      -- -- -- -- -- -- -- --  -- -- -- -- -- -- -- --
0070:                                            7B F1                {.
0080: 80 04 01 32 06 80 1F 00  0E 80 0F 80 09 80 1F 01  ...2............
0090: 00                                                .               
```

#### Opcodes

```
  0: 0x007E [0x7B] Abda-Lurabda (ID: 17072369/0x010480F1) stops talking
  1: 0x0083 [0x32] ExtData[1]->MainSpeed = 40* * 0.1
  2: 0x0086 [0x1F] MOVE_ENTITY: EventEntity moves to X=458.808*, Z=-579.937*, Y=-0.499*
  3: 0x008E [0x1F] MOVE_ENTITY: Update entity position (mode=1)
  4: 0x0090 [0x00] END_REQSTACK()
```

### Event 65535.11

#### Metadata

| Field        | Value    |
|--------------|----------|
| Entrypoint   | 0x0091   |
| Data Size    | 19 bytes |
| Instructions | 5        |

```
      00 01 02 03 04 05 06 07  08 09 0A 0B 0C 0D 0E 0F
      -- -- -- -- -- -- -- --  -- -- -- -- -- -- -- --
0090:    1E F0 FF FF 7F 32 10  80 1F 00 11 80 12 80 09   .....2.........
00A0: 80 1F 01 00                                       ....            
```

#### Opcodes

```
  0: 0x0091 [0x1E] EventEntity looks at LocalPlayer and starts talking
  1: 0x0096 [0x32] ExtData[1]->MainSpeed = 13* * 0.1
  2: 0x0099 [0x1F] MOVE_ENTITY: EventEntity moves to X=457.277*, Z=-580.465*, Y=-0.499*
  3: 0x00A1 [0x1F] MOVE_ENTITY: Update entity position (mode=1)
  4: 0x00A3 [0x00] END_REQSTACK()
```

### Event 65535.12

#### Metadata

| Field        | Value    |
|--------------|----------|
| Entrypoint   | 0x00A4   |
| Data Size    | 19 bytes |
| Instructions | 5        |

```
      00 01 02 03 04 05 06 07  08 09 0A 0B 0C 0D 0E 0F
      -- -- -- -- -- -- -- --  -- -- -- -- -- -- -- --
00A0:             1E F0 FF FF  7F 32 06 80 1F 00 13 80      .....2......
00B0: 14 80 15 80 1F 01 00                              .......         
```

#### Opcodes

```
  0: 0x00A4 [0x1E] EventEntity looks at LocalPlayer and starts talking
  1: 0x00A9 [0x32] ExtData[1]->MainSpeed = 40* * 0.1
  2: 0x00AC [0x1F] MOVE_ENTITY: EventEntity moves to X=474.762*, Z=-579.877*, Y=-0.398*
  3: 0x00B4 [0x1F] MOVE_ENTITY: Update entity position (mode=1)
  4: 0x00B6 [0x00] END_REQSTACK()
```

### Event 65535.13

#### Metadata

| Field        | Value    |
|--------------|----------|
| Entrypoint   | 0x00B7   |
| Data Size    | 15 bytes |
| Instructions | 3        |

```
      00 01 02 03 04 05 06 07  08 09 0A 0B 0C 0D 0E 0F
      -- -- -- -- -- -- -- --  -- -- -- -- -- -- -- --
00B0:                      37  16 80 17 80 09 80 18 80         7........
00C0: 1E F0 FF FF 7F 00                                 ......          
```

#### Opcodes

```
  0: 0x00B7 [0x37] UPDATE_EVENT_POSITION_AND_DIR: x=459.638*, z=-579.782*, y=-0.499*, direction=175.8°*
  1: 0x00C0 [0x1E] EventEntity looks at LocalPlayer and starts talking
  2: 0x00C5 [0x00] END_REQSTACK()
```

### Event 65535.14

#### Metadata

| Field        | Value    |
|--------------|----------|
| Entrypoint   | 0x00C6   |
| Data Size    | 28 bytes |
| Instructions | 6        |

```
      00 01 02 03 04 05 06 07  08 09 0A 0B 0C 0D 0E 0F
      -- -- -- -- -- -- -- --  -- -- -- -- -- -- -- --
00C0:                   37 19  80 1A 80 00 80 1B 80 32        7........2
00D0: 06 80 1F 00 16 80 17 80  09 80 1F 01 1E F0 80 04  ................
00E0: 01 00                                             ..              
```

#### Opcodes

```
  0: 0x00C6 [0x37] UPDATE_EVENT_POSITION_AND_DIR: x=451.893*, z=-577.138*, y=0.000*, direction=349.8°*
  1: 0x00CF [0x32] ExtData[1]->MainSpeed = 40* * 0.1
  2: 0x00D2 [0x1F] MOVE_ENTITY: EventEntity moves to X=459.638*, Z=-579.782*, Y=-0.499*
  3: 0x00DA [0x1F] MOVE_ENTITY: Update entity position (mode=1)
  4: 0x00DC [0x1E] EventEntity looks at Ghatsad (ID: 17072368/0x010480F0) and starts talking
  5: 0x00E1 [0x00] END_REQSTACK()
```

### Event 65535.15

#### Metadata

| Field        | Value    |
|--------------|----------|
| Entrypoint   | 0x00E2   |
| Data Size    | 14 bytes |
| Instructions | 4        |

```
      00 01 02 03 04 05 06 07  08 09 0A 0B 0C 0D 0E 0F
      -- -- -- -- -- -- -- --  -- -- -- -- -- -- -- --
00E0:       32 06 80 1F 00 1C  80 1D 80 1E 80 1F 01 00    2.............
```

#### Opcodes

```
  0: 0x00E2 [0x32] ExtData[1]->MainSpeed = 40* * 0.1
  1: 0x00E5 [0x1F] MOVE_ENTITY: EventEntity moves to X=449.526*, Z=-579.331*, Y=0.050*
  2: 0x00ED [0x1F] MOVE_ENTITY: Update entity position (mode=1)
  3: 0x00EF [0x00] END_REQSTACK()
```

### Event 65535.16

#### Metadata

| Field        | Value    |
|--------------|----------|
| Entrypoint   | 0x00F0   |
| Data Size    | 14 bytes |
| Instructions | 4        |

```
      00 01 02 03 04 05 06 07  08 09 0A 0B 0C 0D 0E 0F
      -- -- -- -- -- -- -- --  -- -- -- -- -- -- -- --
00F0: 32 06 80 1F 00 1F 80 20  80 00 80 1F 01 00        2...... ......  
```

#### Opcodes

```
  0: 0x00F0 [0x32] ExtData[1]->MainSpeed = 40* * 0.1
  1: 0x00F3 [0x1F] MOVE_ENTITY: EventEntity moves to X=411.193*, Z=-579.682*, Y=0.000*
  2: 0x00FB [0x1F] MOVE_ENTITY: Update entity position (mode=1)
  3: 0x00FD [0x00] END_REQSTACK()
```

### Event 65535.17

#### Metadata

| Field        | Value   |
|--------------|---------|
| Entrypoint   | 0x00FE  |
| Data Size    | 4 bytes |
| Instructions | 2       |

```
      00 01 02 03 04 05 06 07  08 09 0A 0B 0C 0D 0E 0F
      -- -- -- -- -- -- -- --  -- -- -- -- -- -- -- --
00F0:                                            39 21                9!
0100: 80 00                                             ..              
```

#### Opcodes

```
  0: 0x00FE [0x39] SET_ENTITY_DIRECTION(direction=22.5°*)
  1: 0x0101 [0x00] END_REQSTACK()
```

### Event 65535.18

#### Metadata

| Field        | Value    |
|--------------|----------|
| Entrypoint   | 0x0102   |
| Data Size    | 10 bytes |
| Instructions | 2        |

```
      00 01 02 03 04 05 06 07  08 09 0A 0B 0C 0D 0E 0F
      -- -- -- -- -- -- -- --  -- -- -- -- -- -- -- --
0100:       37 22 80 23 80 24  80 25 80 00                7".#.$.%..    
```

#### Opcodes

```
  0: 0x0102 [0x37] UPDATE_EVENT_POSITION_AND_DIR: x=446.539*, z=-557.028*, y=-0.999*, direction=349.4°*
  1: 0x010B [0x00] END_REQSTACK()
```

### Event 65535.19

#### Metadata

| Field        | Value    |
|--------------|----------|
| Entrypoint   | 0x010C   |
| Data Size    | 84 bytes |
| Instructions | 18       |

```
      00 01 02 03 04 05 06 07  08 09 0A 0B 0C 0D 0E 0F
      -- -- -- -- -- -- -- --  -- -- -- -- -- -- -- --
0100:                                      32 10 80 1F              2...
0110: 00 26 80 27 80 24 80 1F  01 1F 00 28 80 29 80 24  .&.'.$.....(.).$
0120: 80 1F 01 1F 00 2A 80 2B  80 24 80 1F 01 1F 00 2C  .....*.+.$.....,
0130: 80 2D 80 24 80 1F 01 1F  00 2E 80 2F 80 24 80 1F  .-.$......./.$..
0140: 01 1F 00 30 80 31 80 24  80 1F 01 1F 00 32 80 33  ...0.1.$.....2.3
0150: 80 24 80 1F 01 1F 00 34  80 35 80 24 80 1F 01 00  .$.....4.5.$....
```

#### Opcodes

```
  0: 0x010C [0x32] ExtData[1]->MainSpeed = 13* * 0.1
  1: 0x010F [0x1F] MOVE_ENTITY: EventEntity moves to X=447.583*, Z=-555.348*, Y=-0.999*
  2: 0x0117 [0x1F] MOVE_ENTITY: Update entity position (mode=1)
  3: 0x0119 [0x1F] MOVE_ENTITY: EventEntity moves to X=447.849*, Z=-554.691*, Y=-0.999*
  4: 0x0121 [0x1F] MOVE_ENTITY: Update entity position (mode=1)
  5: 0x0123 [0x1F] MOVE_ENTITY: EventEntity moves to X=447.662*, Z=-552.735*, Y=-0.999*
  6: 0x012B [0x1F] MOVE_ENTITY: Update entity position (mode=1)
  7: 0x012D [0x1F] MOVE_ENTITY: EventEntity moves to X=446.652*, Z=-551.984*, Y=-0.999*
  8: 0x0135 [0x1F] MOVE_ENTITY: Update entity position (mode=1)
  9: 0x0137 [0x1F] MOVE_ENTITY: EventEntity moves to X=445.247*, Z=-552.774*, Y=-0.999*
 10: 0x013F [0x1F] MOVE_ENTITY: Update entity position (mode=1)
 11: 0x0141 [0x1F] MOVE_ENTITY: EventEntity moves to X=444.910*, Z=-554.174*, Y=-0.999*
 12: 0x0149 [0x1F] MOVE_ENTITY: Update entity position (mode=1)
 13: 0x014B [0x1F] MOVE_ENTITY: EventEntity moves to X=445.395*, Z=-555.059*, Y=-0.999*
 14: 0x0153 [0x1F] MOVE_ENTITY: Update entity position (mode=1)
 15: 0x0155 [0x1F] MOVE_ENTITY: EventEntity moves to X=446.379*, Z=-555.172*, Y=-0.999*
 16: 0x015D [0x1F] MOVE_ENTITY: Update entity position (mode=1)
 17: 0x015F [0x00] END_REQSTACK()
```

### Event 65535.20

#### Metadata

| Field        | Value    |
|--------------|----------|
| Entrypoint   | 0x0160   |
| Data Size    | 19 bytes |
| Instructions | 5        |

```
      00 01 02 03 04 05 06 07  08 09 0A 0B 0C 0D 0E 0F
      -- -- -- -- -- -- -- --  -- -- -- -- -- -- -- --
0160: 32 10 80 1F 00 16 80 17  80 09 80 1F 01 1E F0 80  2...............
0170: 04 01 00                                          ...             
```

#### Opcodes

```
  0: 0x0160 [0x32] ExtData[1]->MainSpeed = 13* * 0.1
  1: 0x0163 [0x1F] MOVE_ENTITY: EventEntity moves to X=459.638*, Z=-579.782*, Y=-0.499*
  2: 0x016B [0x1F] MOVE_ENTITY: Update entity position (mode=1)
  3: 0x016D [0x1E] EventEntity looks at Ghatsad (ID: 17072368/0x010480F0) and starts talking
  4: 0x0172 [0x00] END_REQSTACK()
```
