# 0x7FFFFFF0 - Zone Events

## Common Data

| Field            | Value                            |
|------------------|----------------------------------|
| Zone             | Alzadaal Undersea Ruins (ID: 72) |
| Block Size       | 3728 bytes                       |
| Total Events     | 87                               |
| References Count | 136                              |

## List of Events

| Event ID                   | Entrypoint   |   Size |   Instructions |
|----------------------------|--------------|--------|----------------|
| [65535](#event-65535)      | 0x0000       |      1 |              1 |
| [65534](#event-65534)      | 0x0001       |      1 |              1 |
| [411](#event-411)          | 0x0002       |     46 |              8 |
| [90](#event-90)            | 0x0030       |     41 |              5 |
| [91](#event-91)            | 0x0059       |     41 |              5 |
| [92](#event-92)            | 0x0082       |     38 |              4 |
| [100](#event-100)          | 0x00A8       |     10 |              2 |
| [101](#event-101)          | 0x00B2       |     14 |              4 |
| [102](#event-102)          | 0x00C0       |     13 |              3 |
| [103](#event-103)          | 0x00CD       |     10 |              2 |
| [104](#event-104)          | 0x00D7       |     14 |              4 |
| [105](#event-105)          | 0x00E5       |     13 |              3 |
| [108](#event-108)          | 0x00F2       |     10 |              2 |
| [109](#event-109)          | 0x00FC       |     14 |              4 |
| [110](#event-110)          | 0x010A       |     13 |              3 |
| [111](#event-111)          | 0x0117       |     10 |              2 |
| [112](#event-112)          | 0x0121       |     14 |              4 |
| [113](#event-113)          | 0x012F       |     13 |              3 |
| [200](#event-200)          | 0x013C       |     72 |             18 |
| [201](#event-201)          | 0x0184       |     72 |             18 |
| [202](#event-202)          | 0x01CC       |     72 |             18 |
| [203](#event-203)          | 0x0214       |     72 |             18 |
| [204](#event-204)          | 0x025C       |     72 |             18 |
| [205](#event-205)          | 0x02A4       |     72 |             18 |
| [206](#event-206)          | 0x02EC       |     72 |             18 |
| [207](#event-207)          | 0x0334       |     72 |             18 |
| [208](#event-208)          | 0x037C       |     72 |             18 |
| [209](#event-209)          | 0x03C4       |     72 |             18 |
| [210](#event-210)          | 0x040C       |     72 |             18 |
| [211](#event-211)          | 0x0454       |     72 |             18 |
| [212](#event-212)          | 0x049C       |     72 |             18 |
| [213](#event-213)          | 0x04E4       |     72 |             18 |
| [214](#event-214)          | 0x052C       |     72 |             18 |
| [215](#event-215)          | 0x0574       |     72 |             18 |
| [216](#event-216)          | 0x05BC       |     72 |             18 |
| [217](#event-217)          | 0x0604       |     72 |             18 |
| [218](#event-218)          | 0x064C       |     72 |             18 |
| [219](#event-219)          | 0x0694       |     72 |             18 |
| [220](#event-220)          | 0x06DC       |     72 |             18 |
| [221](#event-221)          | 0x0724       |     72 |             18 |
| [305](#event-305)          | 0x076C       |     20 |              8 |
| [302](#event-302)          | 0x0780       |     13 |              3 |
| [303](#event-303)          | 0x078D       |     14 |              4 |
| [119](#event-119)          | 0x079B       |     10 |              2 |
| [120](#event-120)          | 0x07A5       |     10 |              2 |
| [65535.1](#event-655351)   | 0x07AF       |      6 |              2 |
| [65535.2](#event-655352)   | 0x07B5       |      6 |              2 |
| [65535.3](#event-655353)   | 0x07BB       |      1 |              1 |
| [65535.4](#event-655354)   | 0x07BC       |     10 |              2 |
| [65535.5](#event-655355)   | 0x07C6       |     28 |              8 |
| [65535.6](#event-655356)   | 0x07E2       |     15 |              5 |
| [65535.7](#event-655357)   | 0x07F1       |     10 |              2 |
| [65535.8](#event-655358)   | 0x07FB       |     15 |              5 |
| [65535.9](#event-655359)   | 0x080A       |     20 |              6 |
| [65535.10](#event-6553510) | 0x081E       |     10 |              2 |
| [65535.11](#event-6553511) | 0x0828       |     25 |              6 |
| [65535.12](#event-6553512) | 0x0841       |     10 |              2 |
| [65535.13](#event-6553513) | 0x084B       |     23 |              5 |
| [65535.14](#event-6553514) | 0x0862       |     28 |              6 |
| [65535.15](#event-6553515) | 0x087E       |     10 |              2 |
| [65535.16](#event-6553516) | 0x0888       |     14 |              4 |
| [65535.17](#event-6553517) | 0x0896       |      4 |              2 |
| [65535.18](#event-6553518) | 0x089A       |      4 |              2 |
| [65535.19](#event-6553519) | 0x089E       |     15 |              5 |
| [65535.20](#event-6553520) | 0x08AD       |     15 |              5 |
| [65535.21](#event-6553521) | 0x08BC       |     12 |              3 |
| [65535.22](#event-6553522) | 0x08C8       |     22 |              8 |
| [65535.23](#event-6553523) | 0x08DE       |     14 |              4 |
| [65535.24](#event-6553524) | 0x08EC       |     14 |              4 |
| [65535.25](#event-6553525) | 0x08FA       |     14 |              4 |
| [65535.26](#event-6553526) | 0x0908       |     14 |              4 |
| [65535.27](#event-6553527) | 0x0916       |      7 |              3 |
| [65535.28](#event-6553528) | 0x091D       |      7 |              3 |
| [65535.29](#event-6553529) | 0x0924       |     37 |              5 |
| [65535.30](#event-6553530) | 0x0949       |     37 |              5 |
| [65535.31](#event-6553531) | 0x096E       |     24 |              4 |
| [65535.32](#event-6553532) | 0x0986       |    172 |             36 |
| [65535.33](#event-6553533) | 0x0A32       |     17 |              5 |
| [65535.34](#event-6553534) | 0x0A43       |     19 |              7 |
| [65535.35](#event-6553535) | 0x0A56       |     19 |              7 |
| [65535.36](#event-6553536) | 0x0A69       |     22 |              6 |
| [65535.37](#event-6553537) | 0x0A7F       |     22 |              6 |
| [65535.38](#event-6553538) | 0x0A95       |     22 |              6 |
| [65535.39](#event-6553539) | 0x0AAB       |     22 |              6 |
| [65535.40](#event-6553540) | 0x0AC1       |     17 |              5 |
| [65535.41](#event-6553541) | 0x0AD2       |     24 |              4 |
| [65535.42](#event-6553542) | 0x0AEA       |     24 |              4 |

## DAT References (imed_data)

|   Index | Hex Value   |   Dec Value |
|---------|-------------|-------------|
|       0 | 0x1D28      |        7464 |
|       1 | 0x00C9      |         201 |
|       2 | 0x0000      |           0 |
|       3 | 0x008C      |         140 |
|       4 | 0x00C8      |         200 |
|       5 | 0x003C      |          60 |
|       6 | 0x00CA      |         202 |
|       7 | 0x00E7      |         231 |
|       8 | 0x00AA      |         170 |
|       9 | 0x2BF20     |      180000 |
|      10 | 0x14686     |       83590 |
|      11 | 0x0400      |        1024 |
|      12 | 0x000D      |          13 |
|      13 | 0x12F2C     |       77612 |
|      14 | 0x0C00      |        3072 |
|      15 | 0xFFFF55C3  |  4294923715 |
|      16 | 0xFFFF6D01  |  4294929665 |
|      17 | 0x1C5E      |        7262 |
|      18 | 0x0001      |           1 |
|      19 | 0x8D9A0     |      580000 |
|      20 | 0x84918     |      543000 |
|      21 | 0xFFFFFE0D  |  4294966797 |
|      22 | 0xEA60      |       60000 |
|      23 | 0xB3EE8     |      737000 |
|      24 | 0xFFFFFE0C  |  4294966796 |
|      25 | 0x493E0     |      300000 |
|      26 | 0x8CDE8     |      577000 |
|      27 | 0x222E0     |      140000 |
|      28 | 0xFFF7CE58  |  4294430296 |
|      29 | 0xFFF85EE0  |  4294467296 |
|      30 | 0x96A28     |      617000 |
|      31 | 0xFFFAC428  |  4294624296 |
|      32 | 0x704E0     |      460000 |
|      33 | 0xFFF72660  |  4294387296 |
|      34 | 0xFFFF2158  |  4294910296 |
|      35 | 0xFFFE7960  |  4294867296 |
|      36 | 0x4E20      |       20000 |
|      37 | 0xFFFFDECD  |  4294958797 |
|      38 | 0x2BF1F     |      179999 |
|      39 | 0xFFFC98E8  |  4294744296 |
|      40 | 0xFFF85328  |  4294464296 |
|      41 | 0x975E0     |      620000 |
|      42 | 0xFFFB6068  |  4294664296 |
|      43 | 0x71098     |      463000 |
|      44 | 0x0800      |        2048 |
|      45 | 0xFFF72673  |  4294387315 |
|      46 | 0xFFFD9A4C  |  4294810188 |
|      47 | 0xFFF72652  |  4294387282 |
|      48 | 0xFFFD7E2E  |  4294802990 |
|      49 | 0x32716     |      206614 |
|      50 | 0x82C7      |       33479 |
|      51 | 0x1000      |        4096 |
|      52 | 0x3272E     |      206638 |
|      53 | 0x195C      |        6492 |
|      54 | 0xEA4A      |       59978 |
|      55 | 0xBD9B0     |      776624 |
|      56 | 0x0404      |        1028 |
|      57 | 0x0026      |          38 |
|      58 | 0xEA69      |       60009 |
|      59 | 0xBC8BF     |      772287 |
|      60 | 0xEA93      |       60051 |
|      61 | 0xBC181     |      770433 |
|      62 | 0x0025      |          37 |
|      63 | 0xEA6D      |       60013 |
|      64 | 0xBB1AB     |      766379 |
|      65 | 0x0032      |          50 |
|      66 | 0x22273     |      139891 |
|      67 | 0xFFF75B12  |  4294400786 |
|      68 | 0x03EE      |        1006 |
|      69 | 0x0028      |          40 |
|      70 | 0x222FE     |      140030 |
|      71 | 0xFFF743A5  |  4294394789 |
|      72 | 0x0024      |          36 |
|      73 | 0x221B8     |      139704 |
|      74 | 0xFFF74CF9  |  4294397177 |
|      75 | 0xFFF7EECC  |  4294438604 |
|      76 | 0x9E605     |      648709 |
|      77 | 0x0AC1      |        2753 |
|      78 | 0x000A      |          10 |
|      79 | 0xFFF7EB91  |  4294437777 |
|      80 | 0x9E9BB     |      649659 |
|      81 | 0xFFF7EEA8  |  4294438568 |
|      82 | 0x9E247     |      647751 |
|      83 | 0x0136      |         310 |
|      84 | 0x67C26     |      424998 |
|      85 | 0xFFF72661  |  4294387297 |
|      86 | 0x6A87E     |      436350 |
|      87 | 0xFFF726CF  |  4294387407 |
|      88 | 0x6EB89     |      453513 |
|      89 | 0xFFF7259A  |  4294387098 |
|      90 | 0x0F9E      |        3998 |
|      91 | 0x6F0E0     |      454880 |
|      92 | 0xFFF722DB  |  4294386395 |
|      93 | 0x6EDB7     |      454071 |
|      94 | 0xFFF72645  |  4294387269 |
|      95 | 0x002A      |          42 |
|      96 | 0x64639     |      411193 |
|      97 | 0xFFF7279E  |  4294387614 |
|      98 | 0x07D0      |        2000 |
|      99 | 0x0FA0      |        4000 |
|     100 | 0xFFF8CDAB  |  4294495659 |
|     101 | 0x66CA7     |      421031 |
|     102 | 0xFFFFF093  |  4294963347 |
|     103 | 0x7A0ED     |      499949 |
|     104 | 0xFFF79FC5  |  4294418373 |
|     105 | 0xFFF83253  |  4294455891 |
|     106 | 0x667FC     |      419836 |
|     107 | 0xFFFF7692  |  4294932114 |
|     108 | 0x0071      |         113 |
|     109 | 0xFFF8C0A9  |  4294492329 |
|     110 | 0x668CA     |      420042 |
|     111 | 0xFFF9F520  |  4294571296 |
|     112 | 0xFFFD7F60  |  4294803296 |
|     113 | 0xFFFD0260  |  4294771296 |
|     114 | 0x6A720     |      436000 |
|     115 | 0x0005      |           5 |
|     116 | 0x0002      |           2 |
|     117 | 0x0009      |           9 |
|     118 | 0x0046      |          70 |
|     119 | 0x00D2      |         210 |
|     120 | 0xFFF8D06E  |  4294496366 |
|     121 | 0x66901     |      420097 |
|     122 | 0xFFF8C61A  |  4294493722 |
|     123 | 0x668B1     |      420017 |
|     124 | 0xFFF8C061  |  4294492257 |
|     125 | 0x668C7     |      420039 |
|     126 | 0x68E13     |      429587 |
|     127 | 0xFFF72300  |  4294386432 |
|     128 | 0x001E      |          30 |
|     129 | 0x6C57B     |      443771 |
|     130 | 0xFFF72AF0  |  4294388464 |
|     131 | 0xFFF8D3BA  |  4294497210 |
|     132 | 0x66CDD     |      421085 |
|     133 | 0xFFFFF061  |  4294963297 |
|     134 | 0xFFF8C1F2  |  4294492658 |
|     135 | 0x663CB     |      418763 |

## String References

- **7262**: Use the device? [Yes./No.]
- **7464**: The order has been given to invade [the Leujaoam Sanctum/the Mamool Ja Training Grounds/Lebros Cavern/Periqia/the Ilrusi Atoll/Nyzul Isle/the Ashu Talif/Zhayolm Remnants/Arrapago Remnants/Bhaflau Remnants/Silver Sea Remnants]!

## Events

### Event 65535

#### Metadata

| Field        | Value   |
|--------------|---------|
| Entrypoint   | 0x0000  |
| Data Size    | 1 bytes |
| Instructions | 1       |

```
      00 01 02 03 04 05 06 07  08 09 0A 0B 0C 0D 0E 0F
      -- -- -- -- -- -- -- --  -- -- -- -- -- -- -- --
0000: 00                                                .               
```

#### Opcodes

```
  0: 0x0000 [0x00] END_REQSTACK()
```

### Event 65534

#### Metadata

| Field        | Value   |
|--------------|---------|
| Entrypoint   | 0x0001  |
| Data Size    | 1 bytes |
| Instructions | 1       |

```
      00 01 02 03 04 05 06 07  08 09 0A 0B 0C 0D 0E 0F
      -- -- -- -- -- -- -- --  -- -- -- -- -- -- -- --
0000:    00                                              .              
```

#### Opcodes

```
  0: 0x0001 [0x00] END_REQSTACK()
```

### Event 411

#### Metadata

| Field        | Value    |
|--------------|----------|
| Entrypoint   | 0x0002   |
| Data Size    | 46 bytes |
| Instructions | 8        |

```
      00 01 02 03 04 05 06 07  08 09 0A 0B 0C 0D 0E 0F
      -- -- -- -- -- -- -- --  -- -- -- -- -- -- -- --
0000:       42 48 00 80 9F 01  80 F8 FF FF 7F F8 FF FF    BH............
0010: 7F 6D 61 69 6E 02 80 1C  03 80 45 04 80 F0 FF FF  .main.....E.....
0020: 7F F0 FF FF 7F 66 64 6F  31 02 80 1C 05 80 21 00  .....fdo1.....!.
```

#### Opcodes

```
  0: 0x0002 [0x42] SET_CLI_EVENT_CANCEL_DATA()
  1: 0x0003 [0x48] [System] [7464*]:
    → "The order has been given to invade [the Leujaoam Sanctum/the Mamool Ja Training Grounds/Lebros Cavern/Periqia/the Ilrusi Atoll/Nyzul Isle/the Ashu Talif/Zhayolm Remnants/Arrapago Remnants/Bhaflau Remnants/Silver Sea Remnants]!"
  2: 0x0006 [0x9F] LOAD_SCHEDULED_TASK_ALT: Load scheduler "main" with entities [EventEntity, EventEntity], work=[201*, 0*]
  3: 0x0017 [0x1C] WAIT(140* ticks)
  4: 0x001A [0x45] LOAD_SCHEDULED_TASK: Load scheduler "fdo1" with entities [LocalPlayer, LocalPlayer], work=[200*, 0*]
  5: 0x002B [0x1C] WAIT(60* ticks)
  6: 0x002E [0x21] END_EVENT
  7: 0x002F [0x00] END_REQSTACK()
```

### Event 90

#### Metadata

| Field        | Value    |
|--------------|----------|
| Entrypoint   | 0x0030   |
| Data Size    | 41 bytes |
| Instructions | 5        |

```
      00 01 02 03 04 05 06 07  08 09 0A 0B 0C 0D 0E 0F
      -- -- -- -- -- -- -- --  -- -- -- -- -- -- -- --
0030: 9F 01 80 F8 FF FF 7F F8  FF FF 7F 6D 61 69 6E 02  ...........main.
0040: 80 1C 03 80 45 04 80 F0  FF FF 7F F0 FF FF 7F 66  ....E..........f
0050: 64 6F 31 02 80 1C 05 80  00                       do1......       
```

#### Opcodes

```
  0: 0x0030 [0x9F] LOAD_SCHEDULED_TASK_ALT: Load scheduler "main" with entities [EventEntity, EventEntity], work=[201*, 0*]
  1: 0x0041 [0x1C] WAIT(140* ticks)
  2: 0x0044 [0x45] LOAD_SCHEDULED_TASK: Load scheduler "fdo1" with entities [LocalPlayer, LocalPlayer], work=[200*, 0*]
  3: 0x0055 [0x1C] WAIT(60* ticks)
  4: 0x0058 [0x00] END_REQSTACK()
```

### Event 91

#### Metadata

| Field        | Value    |
|--------------|----------|
| Entrypoint   | 0x0059   |
| Data Size    | 41 bytes |
| Instructions | 5        |

```
      00 01 02 03 04 05 06 07  08 09 0A 0B 0C 0D 0E 0F
      -- -- -- -- -- -- -- --  -- -- -- -- -- -- -- --
0050:                             9F 06 80 F8 FF FF 7F           .......
0060: F8 FF FF 7F 6D 61 69 6E  02 80 1C 03 80 45 04 80  ....main.....E..
0070: F0 FF FF 7F F0 FF FF 7F  66 64 6F 31 02 80 1C 05  ........fdo1....
0080: 80 00                                             ..              
```

#### Opcodes

```
  0: 0x0059 [0x9F] LOAD_SCHEDULED_TASK_ALT: Load scheduler "main" with entities [EventEntity, EventEntity], work=[202*, 0*]
  1: 0x006A [0x1C] WAIT(140* ticks)
  2: 0x006D [0x45] LOAD_SCHEDULED_TASK: Load scheduler "fdo1" with entities [LocalPlayer, LocalPlayer], work=[200*, 0*]
  3: 0x007E [0x1C] WAIT(60* ticks)
  4: 0x0081 [0x00] END_REQSTACK()
```

### Event 92

#### Metadata

| Field        | Value    |
|--------------|----------|
| Entrypoint   | 0x0082   |
| Data Size    | 38 bytes |
| Instructions | 4        |

```
      00 01 02 03 04 05 06 07  08 09 0A 0B 0C 0D 0E 0F
      -- -- -- -- -- -- -- --  -- -- -- -- -- -- -- --
0080:       45 04 80 F0 FF FF  7F F0 FF FF 7F 66 64 69    E..........fdi
0090: 31 02 80 9F 07 80 F8 FF  FF 7F F8 FF FF 7F 6D 61  1.............ma
00A0: 69 6E 02 80 1C 08 80 00                           in......        
```

#### Opcodes

```
  0: 0x0082 [0x45] LOAD_SCHEDULED_TASK: Load scheduler "fdi1" with entities [LocalPlayer, LocalPlayer], work=[200*, 0*]
  1: 0x0093 [0x9F] LOAD_SCHEDULED_TASK_ALT: Load scheduler "main" with entities [EventEntity, EventEntity], work=[231*, 0*]
  2: 0x00A4 [0x1C] WAIT(170* ticks)
  3: 0x00A7 [0x00] END_REQSTACK()
```

### Event 100

#### Metadata

| Field        | Value    |
|--------------|----------|
| Entrypoint   | 0x00A8   |
| Data Size    | 10 bytes |
| Instructions | 2        |

```
      00 01 02 03 04 05 06 07  08 09 0A 0B 0C 0D 0E 0F
      -- -- -- -- -- -- -- --  -- -- -- -- -- -- -- --
00A0:                          37 09 80 0A 80 02 80 0B          7.......
00B0: 80 00                                             ..              
```

#### Opcodes

```
  0: 0x00A8 [0x37] UPDATE_EVENT_POSITION_AND_DIR: x=180.000*, z=83.590*, y=0.000*, direction=90.0°*
  1: 0x00B1 [0x00] END_REQSTACK()
```

### Event 101

#### Metadata

| Field        | Value    |
|--------------|----------|
| Entrypoint   | 0x00B2   |
| Data Size    | 14 bytes |
| Instructions | 4        |

```
      00 01 02 03 04 05 06 07  08 09 0A 0B 0C 0D 0E 0F
      -- -- -- -- -- -- -- --  -- -- -- -- -- -- -- --
00B0:       32 0C 80 1F 00 09  80 0D 80 02 80 1F 01 00    2.............
```

#### Opcodes

```
  0: 0x00B2 [0x32] ExtData[1]->MainSpeed = 13* * 0.1
  1: 0x00B5 [0x1F] MOVE_ENTITY: EventEntity moves to X=180.000*, Z=77.612*, Y=0.000*
  2: 0x00BD [0x1F] MOVE_ENTITY: Update entity position (mode=1)
  3: 0x00BF [0x00] END_REQSTACK()
```

### Event 102

#### Metadata

| Field        | Value    |
|--------------|----------|
| Entrypoint   | 0x00C0   |
| Data Size    | 13 bytes |
| Instructions | 3        |

```
      00 01 02 03 04 05 06 07  08 09 0A 0B 0C 0D 0E 0F
      -- -- -- -- -- -- -- --  -- -- -- -- -- -- -- --
00C0: 47 00 09 80 0D 80 02 80  0B 80 47 01 00           G.........G..   
```

#### Opcodes

```
  0: 0x00C0 [0x47] UPDATE_PLAYER_POS(180.000*, 77.612*, 0.000*, yaw=90.0°*)
  1: 0x00CA [0x47] WAIT_PLAYER_POS_UPDATE
  2: 0x00CC [0x00] END_REQSTACK()
```

### Event 103

#### Metadata

| Field        | Value    |
|--------------|----------|
| Entrypoint   | 0x00CD   |
| Data Size    | 10 bytes |
| Instructions | 2        |

```
      00 01 02 03 04 05 06 07  08 09 0A 0B 0C 0D 0E 0F
      -- -- -- -- -- -- -- --  -- -- -- -- -- -- -- --
00C0:                                         37 09 80               7..
00D0: 0D 80 02 80 0E 80 00                              .......         
```

#### Opcodes

```
  0: 0x00CD [0x37] UPDATE_EVENT_POSITION_AND_DIR: x=180.000*, z=77.612*, y=0.000*, direction=270.0°*
  1: 0x00D6 [0x00] END_REQSTACK()
```

### Event 104

#### Metadata

| Field        | Value    |
|--------------|----------|
| Entrypoint   | 0x00D7   |
| Data Size    | 14 bytes |
| Instructions | 4        |

```
      00 01 02 03 04 05 06 07  08 09 0A 0B 0C 0D 0E 0F
      -- -- -- -- -- -- -- --  -- -- -- -- -- -- -- --
00D0:                      32  0C 80 1F 00 09 80 0A 80         2........
00E0: 02 80 1F 01 00                                    .....           
```

#### Opcodes

```
  0: 0x00D7 [0x32] ExtData[1]->MainSpeed = 13* * 0.1
  1: 0x00DA [0x1F] MOVE_ENTITY: EventEntity moves to X=180.000*, Z=83.590*, Y=0.000*
  2: 0x00E2 [0x1F] MOVE_ENTITY: Update entity position (mode=1)
  3: 0x00E4 [0x00] END_REQSTACK()
```

### Event 105

#### Metadata

| Field        | Value    |
|--------------|----------|
| Entrypoint   | 0x00E5   |
| Data Size    | 13 bytes |
| Instructions | 3        |

```
      00 01 02 03 04 05 06 07  08 09 0A 0B 0C 0D 0E 0F
      -- -- -- -- -- -- -- --  -- -- -- -- -- -- -- --
00E0:                47 00 09  80 0A 80 02 80 0E 80 47       G.........G
00F0: 01 00                                             ..              
```

#### Opcodes

```
  0: 0x00E5 [0x47] UPDATE_PLAYER_POS(180.000*, 83.590*, 0.000*, yaw=270.0°*)
  1: 0x00EF [0x47] WAIT_PLAYER_POS_UPDATE
  2: 0x00F1 [0x00] END_REQSTACK()
```

### Event 108

#### Metadata

| Field        | Value    |
|--------------|----------|
| Entrypoint   | 0x00F2   |
| Data Size    | 10 bytes |
| Instructions | 2        |

```
      00 01 02 03 04 05 06 07  08 09 0A 0B 0C 0D 0E 0F
      -- -- -- -- -- -- -- --  -- -- -- -- -- -- -- --
00F0:       37 09 80 0F 80 02  80 0E 80 00                7.........    
```

#### Opcodes

```
  0: 0x00F2 [0x37] UPDATE_EVENT_POSITION_AND_DIR: x=180.000*, z=-43.581*, y=0.000*, direction=270.0°*
  1: 0x00FB [0x00] END_REQSTACK()
```

### Event 109

#### Metadata

| Field        | Value    |
|--------------|----------|
| Entrypoint   | 0x00FC   |
| Data Size    | 14 bytes |
| Instructions | 4        |

```
      00 01 02 03 04 05 06 07  08 09 0A 0B 0C 0D 0E 0F
      -- -- -- -- -- -- -- --  -- -- -- -- -- -- -- --
00F0:                                      32 0C 80 1F              2...
0100: 00 09 80 10 80 02 80 1F  01 00                    ..........      
```

#### Opcodes

```
  0: 0x00FC [0x32] ExtData[1]->MainSpeed = 13* * 0.1
  1: 0x00FF [0x1F] MOVE_ENTITY: EventEntity moves to X=180.000*, Z=-37.631*, Y=0.000*
  2: 0x0107 [0x1F] MOVE_ENTITY: Update entity position (mode=1)
  3: 0x0109 [0x00] END_REQSTACK()
```

### Event 110

#### Metadata

| Field        | Value    |
|--------------|----------|
| Entrypoint   | 0x010A   |
| Data Size    | 13 bytes |
| Instructions | 3        |

```
      00 01 02 03 04 05 06 07  08 09 0A 0B 0C 0D 0E 0F
      -- -- -- -- -- -- -- --  -- -- -- -- -- -- -- --
0100:                                47 00 09 80 10 80            G.....
0110: 02 80 0E 80 47 01 00                              ....G..         
```

#### Opcodes

```
  0: 0x010A [0x47] UPDATE_PLAYER_POS(180.000*, -37.631*, 0.000*, yaw=270.0°*)
  1: 0x0114 [0x47] WAIT_PLAYER_POS_UPDATE
  2: 0x0116 [0x00] END_REQSTACK()
```

### Event 111

#### Metadata

| Field        | Value    |
|--------------|----------|
| Entrypoint   | 0x0117   |
| Data Size    | 10 bytes |
| Instructions | 2        |

```
      00 01 02 03 04 05 06 07  08 09 0A 0B 0C 0D 0E 0F
      -- -- -- -- -- -- -- --  -- -- -- -- -- -- -- --
0110:                      37  09 80 10 80 02 80 0B 80         7........
0120: 00                                                .               
```

#### Opcodes

```
  0: 0x0117 [0x37] UPDATE_EVENT_POSITION_AND_DIR: x=180.000*, z=-37.631*, y=0.000*, direction=90.0°*
  1: 0x0120 [0x00] END_REQSTACK()
```

### Event 112

#### Metadata

| Field        | Value    |
|--------------|----------|
| Entrypoint   | 0x0121   |
| Data Size    | 14 bytes |
| Instructions | 4        |

```
      00 01 02 03 04 05 06 07  08 09 0A 0B 0C 0D 0E 0F
      -- -- -- -- -- -- -- --  -- -- -- -- -- -- -- --
0120:    32 0C 80 1F 00 09 80  0F 80 02 80 1F 01 00      2............. 
```

#### Opcodes

```
  0: 0x0121 [0x32] ExtData[1]->MainSpeed = 13* * 0.1
  1: 0x0124 [0x1F] MOVE_ENTITY: EventEntity moves to X=180.000*, Z=-43.581*, Y=0.000*
  2: 0x012C [0x1F] MOVE_ENTITY: Update entity position (mode=1)
  3: 0x012E [0x00] END_REQSTACK()
```

### Event 113

#### Metadata

| Field        | Value    |
|--------------|----------|
| Entrypoint   | 0x012F   |
| Data Size    | 13 bytes |
| Instructions | 3        |

```
      00 01 02 03 04 05 06 07  08 09 0A 0B 0C 0D 0E 0F
      -- -- -- -- -- -- -- --  -- -- -- -- -- -- -- --
0120:                                               47                 G
0130: 00 09 80 0F 80 02 80 0B  80 47 01 00              .........G..    
```

#### Opcodes

```
  0: 0x012F [0x47] UPDATE_PLAYER_POS(180.000*, -43.581*, 0.000*, yaw=90.0°*)
  1: 0x0139 [0x47] WAIT_PLAYER_POS_UPDATE
  2: 0x013B [0x00] END_REQSTACK()
```

### Event 200

#### Metadata

| Field        | Value    |
|--------------|----------|
| Entrypoint   | 0x013C   |
| Data Size    | 72 bytes |
| Instructions | 18       |

```
      00 01 02 03 04 05 06 07  08 09 0A 0B 0C 0D 0E 0F
      -- -- -- -- -- -- -- --  -- -- -- -- -- -- -- --
0130:                                      20 01 24 11               .$.
0140: 80 12 80 02 80 25 02 00  10 02 80 00 75 01 42 43  .....%......u.BC
0150: 00 43 01 03 01 10 12 80  29 01 F0 FF FF 7F 04 47  .C......)......G
0160: 00 13 80 14 80 15 80 0B  80 47 01 29 01 F0 FF FF  .........G.)....
0170: 7F 05 01 80 01 02 00 10  12 80 00 80 01 01 80 01  ................
0180: 20 00 21 00                                        .!.            
```

#### Opcodes

```
  0: 0x013C [0x20] SET_CLI_EVENT_UC_FLAG: Lock player control
  1: 0x013E [0x24] CREATE_DIALOG(message_id=7262*, default_option=1*, option_flags=0*)
    → "Use the device? [Yes./No.]"
  2: 0x0145 [0x25] WAIT_DIALOG_SELECT()
  3: 0x0146 [0x02] IF !(Work_Zone[0] == 0*) GOTO 0x0175
  4: 0x014E [0x42] SET_CLI_EVENT_CANCEL_DATA()
  5: 0x014F [0x43] SEND_EVENT_UPDATE: Send pending tag to server (packet 0x005B)
  6: 0x0151 [0x43] SEND_EVENT_UPDATE: Check pending flag (skip if not pending)
  7: 0x0153 [0x03] Work_Zone[1] = 1*
  8: 0x0158 [0x29] REQ_SET_WAIT(priority=0x01, entity_id=LocalPlayer, tag_num=0x04)
  9: 0x015F [0x47] UPDATE_PLAYER_POS(580.000*, 543.000*, -0.499*, yaw=90.0°*)
 10: 0x0169 [0x47] WAIT_PLAYER_POS_UPDATE
 11: 0x016B [0x29] REQ_SET_WAIT(priority=0x01, entity_id=LocalPlayer, tag_num=0x05)
 12: 0x0172 [0x01] GOTO 0x0180
 13: 0x0175 [0x02] IF !(Work_Zone[0] == 1*) GOTO 0x0180
 14: 0x017D [0x01] GOTO 0x0180

SUBROUTINE_0180:
 15: 0x0180 [0x20] SET_CLI_EVENT_UC_FLAG: Unlock player control
 16: 0x0182 [0x21] END_EVENT
 17: 0x0183 [0x00] END_REQSTACK()
```

### Event 201

#### Metadata

| Field        | Value    |
|--------------|----------|
| Entrypoint   | 0x0184   |
| Data Size    | 72 bytes |
| Instructions | 18       |

```
      00 01 02 03 04 05 06 07  08 09 0A 0B 0C 0D 0E 0F
      -- -- -- -- -- -- -- --  -- -- -- -- -- -- -- --
0180:             20 01 24 11  80 12 80 02 80 25 02 00       .$......%..
0190: 10 02 80 00 BD 01 42 43  00 43 01 03 01 10 12 80  ......BC.C......
01A0: 29 01 F0 FF FF 7F 04 47  00 16 80 17 80 18 80 0E  )......G........
01B0: 80 47 01 29 01 F0 FF FF  7F 05 01 C8 01 02 00 10  .G.)............
01C0: 12 80 00 C8 01 01 C8 01  20 00 21 00              ........ .!.    
```

#### Opcodes

```
  0: 0x0184 [0x20] SET_CLI_EVENT_UC_FLAG: Lock player control
  1: 0x0186 [0x24] CREATE_DIALOG(message_id=7262*, default_option=1*, option_flags=0*)
    → "Use the device? [Yes./No.]"
  2: 0x018D [0x25] WAIT_DIALOG_SELECT()
  3: 0x018E [0x02] IF !(Work_Zone[0] == 0*) GOTO 0x01BD
  4: 0x0196 [0x42] SET_CLI_EVENT_CANCEL_DATA()
  5: 0x0197 [0x43] SEND_EVENT_UPDATE: Send pending tag to server (packet 0x005B)
  6: 0x0199 [0x43] SEND_EVENT_UPDATE: Check pending flag (skip if not pending)
  7: 0x019B [0x03] Work_Zone[1] = 1*
  8: 0x01A0 [0x29] REQ_SET_WAIT(priority=0x01, entity_id=LocalPlayer, tag_num=0x04)
  9: 0x01A7 [0x47] UPDATE_PLAYER_POS(60.000*, 737.000*, -0.500*, yaw=270.0°*)
 10: 0x01B1 [0x47] WAIT_PLAYER_POS_UPDATE
 11: 0x01B3 [0x29] REQ_SET_WAIT(priority=0x01, entity_id=LocalPlayer, tag_num=0x05)
 12: 0x01BA [0x01] GOTO 0x01C8
 13: 0x01BD [0x02] IF !(Work_Zone[0] == 1*) GOTO 0x01C8
 14: 0x01C5 [0x01] GOTO 0x01C8

SUBROUTINE_01C8:
 15: 0x01C8 [0x20] SET_CLI_EVENT_UC_FLAG: Unlock player control
 16: 0x01CA [0x21] END_EVENT
 17: 0x01CB [0x00] END_REQSTACK()
```

### Event 202

#### Metadata

| Field        | Value    |
|--------------|----------|
| Entrypoint   | 0x01CC   |
| Data Size    | 72 bytes |
| Instructions | 18       |

```
      00 01 02 03 04 05 06 07  08 09 0A 0B 0C 0D 0E 0F
      -- -- -- -- -- -- -- --  -- -- -- -- -- -- -- --
01C0:                                      20 01 24 11               .$.
01D0: 80 12 80 02 80 25 02 00  10 02 80 00 05 02 42 43  .....%........BC
01E0: 00 43 01 03 01 10 12 80  29 01 F0 FF FF 7F 04 47  .C......)......G
01F0: 00 19 80 1A 80 15 80 0E  80 47 01 29 01 F0 FF FF  .........G.)....
0200: 7F 05 01 10 02 02 00 10  12 80 00 10 02 01 10 02  ................
0210: 20 00 21 00                                        .!.            
```

#### Opcodes

```
  0: 0x01CC [0x20] SET_CLI_EVENT_UC_FLAG: Lock player control
  1: 0x01CE [0x24] CREATE_DIALOG(message_id=7262*, default_option=1*, option_flags=0*)
    → "Use the device? [Yes./No.]"
  2: 0x01D5 [0x25] WAIT_DIALOG_SELECT()
  3: 0x01D6 [0x02] IF !(Work_Zone[0] == 0*) GOTO 0x0205
  4: 0x01DE [0x42] SET_CLI_EVENT_CANCEL_DATA()
  5: 0x01DF [0x43] SEND_EVENT_UPDATE: Send pending tag to server (packet 0x005B)
  6: 0x01E1 [0x43] SEND_EVENT_UPDATE: Check pending flag (skip if not pending)
  7: 0x01E3 [0x03] Work_Zone[1] = 1*
  8: 0x01E8 [0x29] REQ_SET_WAIT(priority=0x01, entity_id=LocalPlayer, tag_num=0x04)
  9: 0x01EF [0x47] UPDATE_PLAYER_POS(300.000*, 577.000*, -0.499*, yaw=270.0°*)
 10: 0x01F9 [0x47] WAIT_PLAYER_POS_UPDATE
 11: 0x01FB [0x29] REQ_SET_WAIT(priority=0x01, entity_id=LocalPlayer, tag_num=0x05)
 12: 0x0202 [0x01] GOTO 0x0210
 13: 0x0205 [0x02] IF !(Work_Zone[0] == 1*) GOTO 0x0210
 14: 0x020D [0x01] GOTO 0x0210

SUBROUTINE_0210:
 15: 0x0210 [0x20] SET_CLI_EVENT_UC_FLAG: Unlock player control
 16: 0x0212 [0x21] END_EVENT
 17: 0x0213 [0x00] END_REQSTACK()
```

### Event 203

#### Metadata

| Field        | Value    |
|--------------|----------|
| Entrypoint   | 0x0214   |
| Data Size    | 72 bytes |
| Instructions | 18       |

```
      00 01 02 03 04 05 06 07  08 09 0A 0B 0C 0D 0E 0F
      -- -- -- -- -- -- -- --  -- -- -- -- -- -- -- --
0210:             20 01 24 11  80 12 80 02 80 25 02 00       .$......%..
0220: 10 02 80 00 4D 02 42 43  00 43 01 03 01 10 12 80  ....M.BC.C......
0230: 29 01 F0 FF FF 7F 04 47  00 1B 80 1C 80 18 80 0B  )......G........
0240: 80 47 01 29 01 F0 FF FF  7F 05 01 58 02 02 00 10  .G.).......X....
0250: 12 80 00 58 02 01 58 02  20 00 21 00              ...X..X. .!.    
```

#### Opcodes

```
  0: 0x0214 [0x20] SET_CLI_EVENT_UC_FLAG: Lock player control
  1: 0x0216 [0x24] CREATE_DIALOG(message_id=7262*, default_option=1*, option_flags=0*)
    → "Use the device? [Yes./No.]"
  2: 0x021D [0x25] WAIT_DIALOG_SELECT()
  3: 0x021E [0x02] IF !(Work_Zone[0] == 0*) GOTO 0x024D
  4: 0x0226 [0x42] SET_CLI_EVENT_CANCEL_DATA()
  5: 0x0227 [0x43] SEND_EVENT_UPDATE: Send pending tag to server (packet 0x005B)
  6: 0x0229 [0x43] SEND_EVENT_UPDATE: Check pending flag (skip if not pending)
  7: 0x022B [0x03] Work_Zone[1] = 1*
  8: 0x0230 [0x29] REQ_SET_WAIT(priority=0x01, entity_id=LocalPlayer, tag_num=0x04)
  9: 0x0237 [0x47] UPDATE_PLAYER_POS(140.000*, -537.000*, -0.500*, yaw=90.0°*)
 10: 0x0241 [0x47] WAIT_PLAYER_POS_UPDATE
 11: 0x0243 [0x29] REQ_SET_WAIT(priority=0x01, entity_id=LocalPlayer, tag_num=0x05)
 12: 0x024A [0x01] GOTO 0x0258
 13: 0x024D [0x02] IF !(Work_Zone[0] == 1*) GOTO 0x0258
 14: 0x0255 [0x01] GOTO 0x0258

SUBROUTINE_0258:
 15: 0x0258 [0x20] SET_CLI_EVENT_UC_FLAG: Unlock player control
 16: 0x025A [0x21] END_EVENT
 17: 0x025B [0x00] END_REQSTACK()
```

### Event 204

#### Metadata

| Field        | Value    |
|--------------|----------|
| Entrypoint   | 0x025C   |
| Data Size    | 72 bytes |
| Instructions | 18       |

```
      00 01 02 03 04 05 06 07  08 09 0A 0B 0C 0D 0E 0F
      -- -- -- -- -- -- -- --  -- -- -- -- -- -- -- --
0250:                                      20 01 24 11               .$.
0260: 80 12 80 02 80 25 02 00  10 02 80 00 95 02 42 43  .....%........BC
0270: 00 43 01 03 01 10 12 80  29 01 F0 FF FF 7F 04 47  .C......)......G
0280: 00 1D 80 1E 80 18 80 0E  80 47 01 29 01 F0 FF FF  .........G.)....
0290: 7F 05 01 A0 02 02 00 10  12 80 00 A0 02 01 A0 02  ................
02A0: 20 00 21 00                                        .!.            
```

#### Opcodes

```
  0: 0x025C [0x20] SET_CLI_EVENT_UC_FLAG: Lock player control
  1: 0x025E [0x24] CREATE_DIALOG(message_id=7262*, default_option=1*, option_flags=0*)
    → "Use the device? [Yes./No.]"
  2: 0x0265 [0x25] WAIT_DIALOG_SELECT()
  3: 0x0266 [0x02] IF !(Work_Zone[0] == 0*) GOTO 0x0295
  4: 0x026E [0x42] SET_CLI_EVENT_CANCEL_DATA()
  5: 0x026F [0x43] SEND_EVENT_UPDATE: Send pending tag to server (packet 0x005B)
  6: 0x0271 [0x43] SEND_EVENT_UPDATE: Check pending flag (skip if not pending)
  7: 0x0273 [0x03] Work_Zone[1] = 1*
  8: 0x0278 [0x29] REQ_SET_WAIT(priority=0x01, entity_id=LocalPlayer, tag_num=0x04)
  9: 0x027F [0x47] UPDATE_PLAYER_POS(-500.000*, 617.000*, -0.500*, yaw=270.0°*)
 10: 0x0289 [0x47] WAIT_PLAYER_POS_UPDATE
 11: 0x028B [0x29] REQ_SET_WAIT(priority=0x01, entity_id=LocalPlayer, tag_num=0x05)
 12: 0x0292 [0x01] GOTO 0x02A0
 13: 0x0295 [0x02] IF !(Work_Zone[0] == 1*) GOTO 0x02A0
 14: 0x029D [0x01] GOTO 0x02A0

SUBROUTINE_02A0:
 15: 0x02A0 [0x20] SET_CLI_EVENT_UC_FLAG: Unlock player control
 16: 0x02A2 [0x21] END_EVENT
 17: 0x02A3 [0x00] END_REQSTACK()
```

### Event 205

#### Metadata

| Field        | Value    |
|--------------|----------|
| Entrypoint   | 0x02A4   |
| Data Size    | 72 bytes |
| Instructions | 18       |

```
      00 01 02 03 04 05 06 07  08 09 0A 0B 0C 0D 0E 0F
      -- -- -- -- -- -- -- --  -- -- -- -- -- -- -- --
02A0:             20 01 24 11  80 12 80 02 80 25 02 00       .$......%..
02B0: 10 02 80 00 DD 02 42 43  00 43 01 03 01 10 12 80  ......BC.C......
02C0: 29 01 F0 FF FF 7F 04 47  00 1F 80 20 80 18 80 02  )......G... ....
02D0: 80 47 01 29 01 F0 FF FF  7F 05 01 E8 02 02 00 10  .G.)............
02E0: 12 80 00 E8 02 01 E8 02  20 00 21 00              ........ .!.    
```

#### Opcodes

```
  0: 0x02A4 [0x20] SET_CLI_EVENT_UC_FLAG: Lock player control
  1: 0x02A6 [0x24] CREATE_DIALOG(message_id=7262*, default_option=1*, option_flags=0*)
    → "Use the device? [Yes./No.]"
  2: 0x02AD [0x25] WAIT_DIALOG_SELECT()
  3: 0x02AE [0x02] IF !(Work_Zone[0] == 0*) GOTO 0x02DD
  4: 0x02B6 [0x42] SET_CLI_EVENT_CANCEL_DATA()
  5: 0x02B7 [0x43] SEND_EVENT_UPDATE: Send pending tag to server (packet 0x005B)
  6: 0x02B9 [0x43] SEND_EVENT_UPDATE: Check pending flag (skip if not pending)
  7: 0x02BB [0x03] Work_Zone[1] = 1*
  8: 0x02C0 [0x29] REQ_SET_WAIT(priority=0x01, entity_id=LocalPlayer, tag_num=0x04)
  9: 0x02C7 [0x47] UPDATE_PLAYER_POS(-343.000*, 460.000*, -0.500*, yaw=0.0°*)
 10: 0x02D1 [0x47] WAIT_PLAYER_POS_UPDATE
 11: 0x02D3 [0x29] REQ_SET_WAIT(priority=0x01, entity_id=LocalPlayer, tag_num=0x05)
 12: 0x02DA [0x01] GOTO 0x02E8
 13: 0x02DD [0x02] IF !(Work_Zone[0] == 1*) GOTO 0x02E8
 14: 0x02E5 [0x01] GOTO 0x02E8

SUBROUTINE_02E8:
 15: 0x02E8 [0x20] SET_CLI_EVENT_UC_FLAG: Unlock player control
 16: 0x02EA [0x21] END_EVENT
 17: 0x02EB [0x00] END_REQSTACK()
```

### Event 206

#### Metadata

| Field        | Value    |
|--------------|----------|
| Entrypoint   | 0x02EC   |
| Data Size    | 72 bytes |
| Instructions | 18       |

```
      00 01 02 03 04 05 06 07  08 09 0A 0B 0C 0D 0E 0F
      -- -- -- -- -- -- -- --  -- -- -- -- -- -- -- --
02E0:                                      20 01 24 11               .$.
02F0: 80 12 80 02 80 25 02 00  10 02 80 00 25 03 42 43  .....%......%.BC
0300: 00 43 01 03 01 10 12 80  29 01 F0 FF FF 7F 04 47  .C......)......G
0310: 00 21 80 22 80 15 80 0B  80 47 01 29 01 F0 FF FF  .!.".....G.)....
0320: 7F 05 01 30 03 02 00 10  12 80 00 30 03 01 30 03  ...0.......0..0.
0330: 20 00 21 00                                        .!.            
```

#### Opcodes

```
  0: 0x02EC [0x20] SET_CLI_EVENT_UC_FLAG: Lock player control
  1: 0x02EE [0x24] CREATE_DIALOG(message_id=7262*, default_option=1*, option_flags=0*)
    → "Use the device? [Yes./No.]"
  2: 0x02F5 [0x25] WAIT_DIALOG_SELECT()
  3: 0x02F6 [0x02] IF !(Work_Zone[0] == 0*) GOTO 0x0325
  4: 0x02FE [0x42] SET_CLI_EVENT_CANCEL_DATA()
  5: 0x02FF [0x43] SEND_EVENT_UPDATE: Send pending tag to server (packet 0x005B)
  6: 0x0301 [0x43] SEND_EVENT_UPDATE: Check pending flag (skip if not pending)
  7: 0x0303 [0x03] Work_Zone[1] = 1*
  8: 0x0308 [0x29] REQ_SET_WAIT(priority=0x01, entity_id=LocalPlayer, tag_num=0x04)
  9: 0x030F [0x47] UPDATE_PLAYER_POS(-580.000*, -57.000*, -0.499*, yaw=90.0°*)
 10: 0x0319 [0x47] WAIT_PLAYER_POS_UPDATE
 11: 0x031B [0x29] REQ_SET_WAIT(priority=0x01, entity_id=LocalPlayer, tag_num=0x05)
 12: 0x0322 [0x01] GOTO 0x0330
 13: 0x0325 [0x02] IF !(Work_Zone[0] == 1*) GOTO 0x0330
 14: 0x032D [0x01] GOTO 0x0330

SUBROUTINE_0330:
 15: 0x0330 [0x20] SET_CLI_EVENT_UC_FLAG: Unlock player control
 16: 0x0332 [0x21] END_EVENT
 17: 0x0333 [0x00] END_REQSTACK()
```

### Event 207

#### Metadata

| Field        | Value    |
|--------------|----------|
| Entrypoint   | 0x0334   |
| Data Size    | 72 bytes |
| Instructions | 18       |

```
      00 01 02 03 04 05 06 07  08 09 0A 0B 0C 0D 0E 0F
      -- -- -- -- -- -- -- --  -- -- -- -- -- -- -- --
0330:             20 01 24 11  80 12 80 02 80 25 02 00       .$......%..
0340: 10 02 80 00 6D 03 42 43  00 43 01 03 01 10 12 80  ....m.BC.C......
0350: 29 01 F0 FF FF 7F 04 47  00 23 80 24 80 25 80 0B  )......G.#.$.%..
0360: 80 47 01 29 01 F0 FF FF  7F 05 01 78 03 02 00 10  .G.).......x....
0370: 12 80 00 78 03 01 78 03  20 00 21 00              ...x..x. .!.    
```

#### Opcodes

```
  0: 0x0334 [0x20] SET_CLI_EVENT_UC_FLAG: Lock player control
  1: 0x0336 [0x24] CREATE_DIALOG(message_id=7262*, default_option=1*, option_flags=0*)
    → "Use the device? [Yes./No.]"
  2: 0x033D [0x25] WAIT_DIALOG_SELECT()
  3: 0x033E [0x02] IF !(Work_Zone[0] == 0*) GOTO 0x036D
  4: 0x0346 [0x42] SET_CLI_EVENT_CANCEL_DATA()
  5: 0x0347 [0x43] SEND_EVENT_UPDATE: Send pending tag to server (packet 0x005B)
  6: 0x0349 [0x43] SEND_EVENT_UPDATE: Check pending flag (skip if not pending)
  7: 0x034B [0x03] Work_Zone[1] = 1*
  8: 0x0350 [0x29] REQ_SET_WAIT(priority=0x01, entity_id=LocalPlayer, tag_num=0x04)
  9: 0x0357 [0x47] UPDATE_PLAYER_POS(-100.000*, 20.000*, -8.499*, yaw=90.0°*)
 10: 0x0361 [0x47] WAIT_PLAYER_POS_UPDATE
 11: 0x0363 [0x29] REQ_SET_WAIT(priority=0x01, entity_id=LocalPlayer, tag_num=0x05)
 12: 0x036A [0x01] GOTO 0x0378
 13: 0x036D [0x02] IF !(Work_Zone[0] == 1*) GOTO 0x0378
 14: 0x0375 [0x01] GOTO 0x0378

SUBROUTINE_0378:
 15: 0x0378 [0x20] SET_CLI_EVENT_UC_FLAG: Unlock player control
 16: 0x037A [0x21] END_EVENT
 17: 0x037B [0x00] END_REQSTACK()
```

### Event 208

#### Metadata

| Field        | Value    |
|--------------|----------|
| Entrypoint   | 0x037C   |
| Data Size    | 72 bytes |
| Instructions | 18       |

```
      00 01 02 03 04 05 06 07  08 09 0A 0B 0C 0D 0E 0F
      -- -- -- -- -- -- -- --  -- -- -- -- -- -- -- --
0370:                                      20 01 24 11               .$.
0380: 80 12 80 02 80 25 02 00  10 02 80 00 B5 03 42 43  .....%........BC
0390: 00 43 01 03 01 10 12 80  29 01 F0 FF FF 7F 04 47  .C......)......G
03A0: 00 1F 80 26 80 18 80 02  80 47 01 29 01 F0 FF FF  ...&.....G.)....
03B0: 7F 05 01 C0 03 02 00 10  12 80 00 C0 03 01 C0 03  ................
03C0: 20 00 21 00                                        .!.            
```

#### Opcodes

```
  0: 0x037C [0x20] SET_CLI_EVENT_UC_FLAG: Lock player control
  1: 0x037E [0x24] CREATE_DIALOG(message_id=7262*, default_option=1*, option_flags=0*)
    → "Use the device? [Yes./No.]"
  2: 0x0385 [0x25] WAIT_DIALOG_SELECT()
  3: 0x0386 [0x02] IF !(Work_Zone[0] == 0*) GOTO 0x03B5
  4: 0x038E [0x42] SET_CLI_EVENT_CANCEL_DATA()
  5: 0x038F [0x43] SEND_EVENT_UPDATE: Send pending tag to server (packet 0x005B)
  6: 0x0391 [0x43] SEND_EVENT_UPDATE: Check pending flag (skip if not pending)
  7: 0x0393 [0x03] Work_Zone[1] = 1*
  8: 0x0398 [0x29] REQ_SET_WAIT(priority=0x01, entity_id=LocalPlayer, tag_num=0x04)
  9: 0x039F [0x47] UPDATE_PLAYER_POS(-343.000*, 179.999*, -0.500*, yaw=0.0°*)
 10: 0x03A9 [0x47] WAIT_PLAYER_POS_UPDATE
 11: 0x03AB [0x29] REQ_SET_WAIT(priority=0x01, entity_id=LocalPlayer, tag_num=0x05)
 12: 0x03B2 [0x01] GOTO 0x03C0
 13: 0x03B5 [0x02] IF !(Work_Zone[0] == 1*) GOTO 0x03C0
 14: 0x03BD [0x01] GOTO 0x03C0

SUBROUTINE_03C0:
 15: 0x03C0 [0x20] SET_CLI_EVENT_UC_FLAG: Unlock player control
 16: 0x03C2 [0x21] END_EVENT
 17: 0x03C3 [0x00] END_REQSTACK()
```

### Event 209

#### Metadata

| Field        | Value    |
|--------------|----------|
| Entrypoint   | 0x03C4   |
| Data Size    | 72 bytes |
| Instructions | 18       |

```
      00 01 02 03 04 05 06 07  08 09 0A 0B 0C 0D 0E 0F
      -- -- -- -- -- -- -- --  -- -- -- -- -- -- -- --
03C0:             20 01 24 11  80 12 80 02 80 25 02 00       .$......%..
03D0: 10 02 80 00 FD 03 42 43  00 43 01 03 01 10 12 80  ......BC.C......
03E0: 29 01 F0 FF FF 7F 04 47  00 23 80 24 80 25 80 0B  )......G.#.$.%..
03F0: 80 47 01 29 01 F0 FF FF  7F 05 01 08 04 02 00 10  .G.)............
0400: 12 80 00 08 04 01 08 04  20 00 21 00              ........ .!.    
```

#### Opcodes

```
  0: 0x03C4 [0x20] SET_CLI_EVENT_UC_FLAG: Lock player control
  1: 0x03C6 [0x24] CREATE_DIALOG(message_id=7262*, default_option=1*, option_flags=0*)
    → "Use the device? [Yes./No.]"
  2: 0x03CD [0x25] WAIT_DIALOG_SELECT()
  3: 0x03CE [0x02] IF !(Work_Zone[0] == 0*) GOTO 0x03FD
  4: 0x03D6 [0x42] SET_CLI_EVENT_CANCEL_DATA()
  5: 0x03D7 [0x43] SEND_EVENT_UPDATE: Send pending tag to server (packet 0x005B)
  6: 0x03D9 [0x43] SEND_EVENT_UPDATE: Check pending flag (skip if not pending)
  7: 0x03DB [0x03] Work_Zone[1] = 1*
  8: 0x03E0 [0x29] REQ_SET_WAIT(priority=0x01, entity_id=LocalPlayer, tag_num=0x04)
  9: 0x03E7 [0x47] UPDATE_PLAYER_POS(-100.000*, 20.000*, -8.499*, yaw=90.0°*)
 10: 0x03F1 [0x47] WAIT_PLAYER_POS_UPDATE
 11: 0x03F3 [0x29] REQ_SET_WAIT(priority=0x01, entity_id=LocalPlayer, tag_num=0x05)
 12: 0x03FA [0x01] GOTO 0x0408
 13: 0x03FD [0x02] IF !(Work_Zone[0] == 1*) GOTO 0x0408
 14: 0x0405 [0x01] GOTO 0x0408

SUBROUTINE_0408:
 15: 0x0408 [0x20] SET_CLI_EVENT_UC_FLAG: Unlock player control
 16: 0x040A [0x21] END_EVENT
 17: 0x040B [0x00] END_REQSTACK()
```

### Event 210

#### Metadata

| Field        | Value    |
|--------------|----------|
| Entrypoint   | 0x040C   |
| Data Size    | 72 bytes |
| Instructions | 18       |

```
      00 01 02 03 04 05 06 07  08 09 0A 0B 0C 0D 0E 0F
      -- -- -- -- -- -- -- --  -- -- -- -- -- -- -- --
0400:                                      20 01 24 11               .$.
0410: 80 12 80 02 80 25 02 00  10 02 80 00 45 04 42 43  .....%......E.BC
0420: 00 43 01 03 01 10 12 80  29 01 F0 FF FF 7F 04 47  .C......)......G
0430: 00 27 80 21 80 15 80 02  80 47 01 29 01 F0 FF FF  .'.!.....G.)....
0440: 7F 05 01 50 04 02 00 10  12 80 00 50 04 01 50 04  ...P.......P..P.
0450: 20 00 21 00                                        .!.            
```

#### Opcodes

```
  0: 0x040C [0x20] SET_CLI_EVENT_UC_FLAG: Lock player control
  1: 0x040E [0x24] CREATE_DIALOG(message_id=7262*, default_option=1*, option_flags=0*)
    → "Use the device? [Yes./No.]"
  2: 0x0415 [0x25] WAIT_DIALOG_SELECT()
  3: 0x0416 [0x02] IF !(Work_Zone[0] == 0*) GOTO 0x0445
  4: 0x041E [0x42] SET_CLI_EVENT_CANCEL_DATA()
  5: 0x041F [0x43] SEND_EVENT_UPDATE: Send pending tag to server (packet 0x005B)
  6: 0x0421 [0x43] SEND_EVENT_UPDATE: Check pending flag (skip if not pending)
  7: 0x0423 [0x03] Work_Zone[1] = 1*
  8: 0x0428 [0x29] REQ_SET_WAIT(priority=0x01, entity_id=LocalPlayer, tag_num=0x04)
  9: 0x042F [0x47] UPDATE_PLAYER_POS(-223.000*, -580.000*, -0.499*, yaw=0.0°*)
 10: 0x0439 [0x47] WAIT_PLAYER_POS_UPDATE
 11: 0x043B [0x29] REQ_SET_WAIT(priority=0x01, entity_id=LocalPlayer, tag_num=0x05)
 12: 0x0442 [0x01] GOTO 0x0450
 13: 0x0445 [0x02] IF !(Work_Zone[0] == 1*) GOTO 0x0450
 14: 0x044D [0x01] GOTO 0x0450

SUBROUTINE_0450:
 15: 0x0450 [0x20] SET_CLI_EVENT_UC_FLAG: Unlock player control
 16: 0x0452 [0x21] END_EVENT
 17: 0x0453 [0x00] END_REQSTACK()
```

### Event 211

#### Metadata

| Field        | Value    |
|--------------|----------|
| Entrypoint   | 0x0454   |
| Data Size    | 72 bytes |
| Instructions | 18       |

```
      00 01 02 03 04 05 06 07  08 09 0A 0B 0C 0D 0E 0F
      -- -- -- -- -- -- -- --  -- -- -- -- -- -- -- --
0450:             20 01 24 11  80 12 80 02 80 25 02 00       .$......%..
0460: 10 02 80 00 8D 04 42 43  00 43 01 03 01 10 12 80  ......BC.C......
0470: 29 01 F0 FF FF 7F 04 47  00 21 80 28 80 18 80 0E  )......G.!.(....
0480: 80 47 01 29 01 F0 FF FF  7F 05 01 98 04 02 00 10  .G.)............
0490: 12 80 00 98 04 01 98 04  20 00 21 00              ........ .!.    
```

#### Opcodes

```
  0: 0x0454 [0x20] SET_CLI_EVENT_UC_FLAG: Lock player control
  1: 0x0456 [0x24] CREATE_DIALOG(message_id=7262*, default_option=1*, option_flags=0*)
    → "Use the device? [Yes./No.]"
  2: 0x045D [0x25] WAIT_DIALOG_SELECT()
  3: 0x045E [0x02] IF !(Work_Zone[0] == 0*) GOTO 0x048D
  4: 0x0466 [0x42] SET_CLI_EVENT_CANCEL_DATA()
  5: 0x0467 [0x43] SEND_EVENT_UPDATE: Send pending tag to server (packet 0x005B)
  6: 0x0469 [0x43] SEND_EVENT_UPDATE: Check pending flag (skip if not pending)
  7: 0x046B [0x03] Work_Zone[1] = 1*
  8: 0x0470 [0x29] REQ_SET_WAIT(priority=0x01, entity_id=LocalPlayer, tag_num=0x04)
  9: 0x0477 [0x47] UPDATE_PLAYER_POS(-580.000*, -503.000*, -0.500*, yaw=270.0°*)
 10: 0x0481 [0x47] WAIT_PLAYER_POS_UPDATE
 11: 0x0483 [0x29] REQ_SET_WAIT(priority=0x01, entity_id=LocalPlayer, tag_num=0x05)
 12: 0x048A [0x01] GOTO 0x0498
 13: 0x048D [0x02] IF !(Work_Zone[0] == 1*) GOTO 0x0498
 14: 0x0495 [0x01] GOTO 0x0498

SUBROUTINE_0498:
 15: 0x0498 [0x20] SET_CLI_EVENT_UC_FLAG: Unlock player control
 16: 0x049A [0x21] END_EVENT
 17: 0x049B [0x00] END_REQSTACK()
```

### Event 212

#### Metadata

| Field        | Value    |
|--------------|----------|
| Entrypoint   | 0x049C   |
| Data Size    | 72 bytes |
| Instructions | 18       |

```
      00 01 02 03 04 05 06 07  08 09 0A 0B 0C 0D 0E 0F
      -- -- -- -- -- -- -- --  -- -- -- -- -- -- -- --
0490:                                      20 01 24 11               .$.
04A0: 80 12 80 02 80 25 02 00  10 02 80 00 D5 04 42 43  .....%........BC
04B0: 00 43 01 03 01 10 12 80  29 01 F0 FF FF 7F 04 47  .C......)......G
04C0: 00 16 80 17 80 18 80 0E  80 47 01 29 01 F0 FF FF  .........G.)....
04D0: 7F 05 01 E0 04 02 00 10  12 80 00 E0 04 01 E0 04  ................
04E0: 20 00 21 00                                        .!.            
```

#### Opcodes

```
  0: 0x049C [0x20] SET_CLI_EVENT_UC_FLAG: Lock player control
  1: 0x049E [0x24] CREATE_DIALOG(message_id=7262*, default_option=1*, option_flags=0*)
    → "Use the device? [Yes./No.]"
  2: 0x04A5 [0x25] WAIT_DIALOG_SELECT()
  3: 0x04A6 [0x02] IF !(Work_Zone[0] == 0*) GOTO 0x04D5
  4: 0x04AE [0x42] SET_CLI_EVENT_CANCEL_DATA()
  5: 0x04AF [0x43] SEND_EVENT_UPDATE: Send pending tag to server (packet 0x005B)
  6: 0x04B1 [0x43] SEND_EVENT_UPDATE: Check pending flag (skip if not pending)
  7: 0x04B3 [0x03] Work_Zone[1] = 1*
  8: 0x04B8 [0x29] REQ_SET_WAIT(priority=0x01, entity_id=LocalPlayer, tag_num=0x04)
  9: 0x04BF [0x47] UPDATE_PLAYER_POS(60.000*, 737.000*, -0.500*, yaw=270.0°*)
 10: 0x04C9 [0x47] WAIT_PLAYER_POS_UPDATE
 11: 0x04CB [0x29] REQ_SET_WAIT(priority=0x01, entity_id=LocalPlayer, tag_num=0x05)
 12: 0x04D2 [0x01] GOTO 0x04E0
 13: 0x04D5 [0x02] IF !(Work_Zone[0] == 1*) GOTO 0x04E0
 14: 0x04DD [0x01] GOTO 0x04E0

SUBROUTINE_04E0:
 15: 0x04E0 [0x20] SET_CLI_EVENT_UC_FLAG: Unlock player control
 16: 0x04E2 [0x21] END_EVENT
 17: 0x04E3 [0x00] END_REQSTACK()
```

### Event 213

#### Metadata

| Field        | Value    |
|--------------|----------|
| Entrypoint   | 0x04E4   |
| Data Size    | 72 bytes |
| Instructions | 18       |

```
      00 01 02 03 04 05 06 07  08 09 0A 0B 0C 0D 0E 0F
      -- -- -- -- -- -- -- --  -- -- -- -- -- -- -- --
04E0:             20 01 24 11  80 12 80 02 80 25 02 00       .$......%..
04F0: 10 02 80 00 1D 05 42 43  00 43 01 03 01 10 12 80  ......BC.C......
0500: 29 01 F0 FF FF 7F 04 47  00 29 80 2A 80 15 80 0E  )......G.).*....
0510: 80 47 01 29 01 F0 FF FF  7F 05 01 28 05 02 00 10  .G.).......(....
0520: 12 80 00 28 05 01 28 05  20 00 21 00              ...(..(. .!.    
```

#### Opcodes

```
  0: 0x04E4 [0x20] SET_CLI_EVENT_UC_FLAG: Lock player control
  1: 0x04E6 [0x24] CREATE_DIALOG(message_id=7262*, default_option=1*, option_flags=0*)
    → "Use the device? [Yes./No.]"
  2: 0x04ED [0x25] WAIT_DIALOG_SELECT()
  3: 0x04EE [0x02] IF !(Work_Zone[0] == 0*) GOTO 0x051D
  4: 0x04F6 [0x42] SET_CLI_EVENT_CANCEL_DATA()
  5: 0x04F7 [0x43] SEND_EVENT_UPDATE: Send pending tag to server (packet 0x005B)
  6: 0x04F9 [0x43] SEND_EVENT_UPDATE: Check pending flag (skip if not pending)
  7: 0x04FB [0x03] Work_Zone[1] = 1*
  8: 0x0500 [0x29] REQ_SET_WAIT(priority=0x01, entity_id=LocalPlayer, tag_num=0x04)
  9: 0x0507 [0x47] UPDATE_PLAYER_POS(620.000*, -303.000*, -0.499*, yaw=270.0°*)
 10: 0x0511 [0x47] WAIT_PLAYER_POS_UPDATE
 11: 0x0513 [0x29] REQ_SET_WAIT(priority=0x01, entity_id=LocalPlayer, tag_num=0x05)
 12: 0x051A [0x01] GOTO 0x0528
 13: 0x051D [0x02] IF !(Work_Zone[0] == 1*) GOTO 0x0528
 14: 0x0525 [0x01] GOTO 0x0528

SUBROUTINE_0528:
 15: 0x0528 [0x20] SET_CLI_EVENT_UC_FLAG: Unlock player control
 16: 0x052A [0x21] END_EVENT
 17: 0x052B [0x00] END_REQSTACK()
```

### Event 214

#### Metadata

| Field        | Value    |
|--------------|----------|
| Entrypoint   | 0x052C   |
| Data Size    | 72 bytes |
| Instructions | 18       |

```
      00 01 02 03 04 05 06 07  08 09 0A 0B 0C 0D 0E 0F
      -- -- -- -- -- -- -- --  -- -- -- -- -- -- -- --
0520:                                      20 01 24 11               .$.
0530: 80 12 80 02 80 25 02 00  10 02 80 00 65 05 42 43  .....%......e.BC
0540: 00 43 01 03 01 10 12 80  29 01 F0 FF FF 7F 04 47  .C......)......G
0550: 00 2B 80 21 80 15 80 2C  80 47 01 29 01 F0 FF FF  .+.!...,.G.)....
0560: 7F 05 01 70 05 02 00 10  12 80 00 70 05 01 70 05  ...p.......p..p.
0570: 20 00 21 00                                        .!.            
```

#### Opcodes

```
  0: 0x052C [0x20] SET_CLI_EVENT_UC_FLAG: Lock player control
  1: 0x052E [0x24] CREATE_DIALOG(message_id=7262*, default_option=1*, option_flags=0*)
    → "Use the device? [Yes./No.]"
  2: 0x0535 [0x25] WAIT_DIALOG_SELECT()
  3: 0x0536 [0x02] IF !(Work_Zone[0] == 0*) GOTO 0x0565
  4: 0x053E [0x42] SET_CLI_EVENT_CANCEL_DATA()
  5: 0x053F [0x43] SEND_EVENT_UPDATE: Send pending tag to server (packet 0x005B)
  6: 0x0541 [0x43] SEND_EVENT_UPDATE: Check pending flag (skip if not pending)
  7: 0x0543 [0x03] Work_Zone[1] = 1*
  8: 0x0548 [0x29] REQ_SET_WAIT(priority=0x01, entity_id=LocalPlayer, tag_num=0x04)
  9: 0x054F [0x47] UPDATE_PLAYER_POS(463.000*, -580.000*, -0.499*, yaw=180.0°*)
 10: 0x0559 [0x47] WAIT_PLAYER_POS_UPDATE
 11: 0x055B [0x29] REQ_SET_WAIT(priority=0x01, entity_id=LocalPlayer, tag_num=0x05)
 12: 0x0562 [0x01] GOTO 0x0570
 13: 0x0565 [0x02] IF !(Work_Zone[0] == 1*) GOTO 0x0570
 14: 0x056D [0x01] GOTO 0x0570

SUBROUTINE_0570:
 15: 0x0570 [0x20] SET_CLI_EVENT_UC_FLAG: Unlock player control
 16: 0x0572 [0x21] END_EVENT
 17: 0x0573 [0x00] END_REQSTACK()
```

### Event 215

#### Metadata

| Field        | Value    |
|--------------|----------|
| Entrypoint   | 0x0574   |
| Data Size    | 72 bytes |
| Instructions | 18       |

```
      00 01 02 03 04 05 06 07  08 09 0A 0B 0C 0D 0E 0F
      -- -- -- -- -- -- -- --  -- -- -- -- -- -- -- --
0570:             20 01 24 11  80 12 80 02 80 25 02 00       .$......%..
0580: 10 02 80 00 AD 05 42 43  00 43 01 03 01 10 12 80  ......BC.C......
0590: 29 01 F0 FF FF 7F 04 47  00 23 80 24 80 25 80 0B  )......G.#.$.%..
05A0: 80 47 01 29 01 F0 FF FF  7F 05 01 B8 05 02 00 10  .G.)............
05B0: 12 80 00 B8 05 01 B8 05  20 00 21 00              ........ .!.    
```

#### Opcodes

```
  0: 0x0574 [0x20] SET_CLI_EVENT_UC_FLAG: Lock player control
  1: 0x0576 [0x24] CREATE_DIALOG(message_id=7262*, default_option=1*, option_flags=0*)
    → "Use the device? [Yes./No.]"
  2: 0x057D [0x25] WAIT_DIALOG_SELECT()
  3: 0x057E [0x02] IF !(Work_Zone[0] == 0*) GOTO 0x05AD
  4: 0x0586 [0x42] SET_CLI_EVENT_CANCEL_DATA()
  5: 0x0587 [0x43] SEND_EVENT_UPDATE: Send pending tag to server (packet 0x005B)
  6: 0x0589 [0x43] SEND_EVENT_UPDATE: Check pending flag (skip if not pending)
  7: 0x058B [0x03] Work_Zone[1] = 1*
  8: 0x0590 [0x29] REQ_SET_WAIT(priority=0x01, entity_id=LocalPlayer, tag_num=0x04)
  9: 0x0597 [0x47] UPDATE_PLAYER_POS(-100.000*, 20.000*, -8.499*, yaw=90.0°*)
 10: 0x05A1 [0x47] WAIT_PLAYER_POS_UPDATE
 11: 0x05A3 [0x29] REQ_SET_WAIT(priority=0x01, entity_id=LocalPlayer, tag_num=0x05)
 12: 0x05AA [0x01] GOTO 0x05B8
 13: 0x05AD [0x02] IF !(Work_Zone[0] == 1*) GOTO 0x05B8
 14: 0x05B5 [0x01] GOTO 0x05B8

SUBROUTINE_05B8:
 15: 0x05B8 [0x20] SET_CLI_EVENT_UC_FLAG: Unlock player control
 16: 0x05BA [0x21] END_EVENT
 17: 0x05BB [0x00] END_REQSTACK()
```

### Event 216

#### Metadata

| Field        | Value    |
|--------------|----------|
| Entrypoint   | 0x05BC   |
| Data Size    | 72 bytes |
| Instructions | 18       |

```
      00 01 02 03 04 05 06 07  08 09 0A 0B 0C 0D 0E 0F
      -- -- -- -- -- -- -- --  -- -- -- -- -- -- -- --
05B0:                                      20 01 24 11               .$.
05C0: 80 12 80 02 80 25 02 00  10 02 80 00 F5 05 42 43  .....%........BC
05D0: 00 43 01 03 01 10 12 80  29 01 F0 FF FF 7F 04 47  .C......)......G
05E0: 00 19 80 1A 80 15 80 0E  80 47 01 29 01 F0 FF FF  .........G.)....
05F0: 7F 05 01 00 06 02 00 10  12 80 00 00 06 01 00 06  ................
0600: 20 00 21 00                                        .!.            
```

#### Opcodes

```
  0: 0x05BC [0x20] SET_CLI_EVENT_UC_FLAG: Lock player control
  1: 0x05BE [0x24] CREATE_DIALOG(message_id=7262*, default_option=1*, option_flags=0*)
    → "Use the device? [Yes./No.]"
  2: 0x05C5 [0x25] WAIT_DIALOG_SELECT()
  3: 0x05C6 [0x02] IF !(Work_Zone[0] == 0*) GOTO 0x05F5
  4: 0x05CE [0x42] SET_CLI_EVENT_CANCEL_DATA()
  5: 0x05CF [0x43] SEND_EVENT_UPDATE: Send pending tag to server (packet 0x005B)
  6: 0x05D1 [0x43] SEND_EVENT_UPDATE: Check pending flag (skip if not pending)
  7: 0x05D3 [0x03] Work_Zone[1] = 1*
  8: 0x05D8 [0x29] REQ_SET_WAIT(priority=0x01, entity_id=LocalPlayer, tag_num=0x04)
  9: 0x05DF [0x47] UPDATE_PLAYER_POS(300.000*, 577.000*, -0.499*, yaw=270.0°*)
 10: 0x05E9 [0x47] WAIT_PLAYER_POS_UPDATE
 11: 0x05EB [0x29] REQ_SET_WAIT(priority=0x01, entity_id=LocalPlayer, tag_num=0x05)
 12: 0x05F2 [0x01] GOTO 0x0600
 13: 0x05F5 [0x02] IF !(Work_Zone[0] == 1*) GOTO 0x0600
 14: 0x05FD [0x01] GOTO 0x0600

SUBROUTINE_0600:
 15: 0x0600 [0x20] SET_CLI_EVENT_UC_FLAG: Unlock player control
 16: 0x0602 [0x21] END_EVENT
 17: 0x0603 [0x00] END_REQSTACK()
```

### Event 217

#### Metadata

| Field        | Value    |
|--------------|----------|
| Entrypoint   | 0x0604   |
| Data Size    | 72 bytes |
| Instructions | 18       |

```
      00 01 02 03 04 05 06 07  08 09 0A 0B 0C 0D 0E 0F
      -- -- -- -- -- -- -- --  -- -- -- -- -- -- -- --
0600:             20 01 24 11  80 12 80 02 80 25 02 00       .$......%..
0610: 10 02 80 00 3D 06 42 43  00 43 01 03 01 10 12 80  ....=.BC.C......
0620: 29 01 F0 FF FF 7F 04 47  00 23 80 24 80 25 80 0B  )......G.#.$.%..
0630: 80 47 01 29 01 F0 FF FF  7F 05 01 48 06 02 00 10  .G.).......H....
0640: 12 80 00 48 06 01 48 06  20 00 21 00              ...H..H. .!.    
```

#### Opcodes

```
  0: 0x0604 [0x20] SET_CLI_EVENT_UC_FLAG: Lock player control
  1: 0x0606 [0x24] CREATE_DIALOG(message_id=7262*, default_option=1*, option_flags=0*)
    → "Use the device? [Yes./No.]"
  2: 0x060D [0x25] WAIT_DIALOG_SELECT()
  3: 0x060E [0x02] IF !(Work_Zone[0] == 0*) GOTO 0x063D
  4: 0x0616 [0x42] SET_CLI_EVENT_CANCEL_DATA()
  5: 0x0617 [0x43] SEND_EVENT_UPDATE: Send pending tag to server (packet 0x005B)
  6: 0x0619 [0x43] SEND_EVENT_UPDATE: Check pending flag (skip if not pending)
  7: 0x061B [0x03] Work_Zone[1] = 1*
  8: 0x0620 [0x29] REQ_SET_WAIT(priority=0x01, entity_id=LocalPlayer, tag_num=0x04)
  9: 0x0627 [0x47] UPDATE_PLAYER_POS(-100.000*, 20.000*, -8.499*, yaw=90.0°*)
 10: 0x0631 [0x47] WAIT_PLAYER_POS_UPDATE
 11: 0x0633 [0x29] REQ_SET_WAIT(priority=0x01, entity_id=LocalPlayer, tag_num=0x05)
 12: 0x063A [0x01] GOTO 0x0648
 13: 0x063D [0x02] IF !(Work_Zone[0] == 1*) GOTO 0x0648
 14: 0x0645 [0x01] GOTO 0x0648

SUBROUTINE_0648:
 15: 0x0648 [0x20] SET_CLI_EVENT_UC_FLAG: Unlock player control
 16: 0x064A [0x21] END_EVENT
 17: 0x064B [0x00] END_REQSTACK()
```

### Event 218

#### Metadata

| Field        | Value    |
|--------------|----------|
| Entrypoint   | 0x064C   |
| Data Size    | 72 bytes |
| Instructions | 18       |

```
      00 01 02 03 04 05 06 07  08 09 0A 0B 0C 0D 0E 0F
      -- -- -- -- -- -- -- --  -- -- -- -- -- -- -- --
0640:                                      20 01 24 11               .$.
0650: 80 12 80 02 80 25 02 00  10 02 80 00 85 06 42 43  .....%........BC
0660: 00 43 01 03 01 10 12 80  29 01 F0 FF FF 7F 04 47  .C......)......G
0670: 00 21 80 22 80 15 80 0B  80 47 01 29 01 F0 FF FF  .!.".....G.)....
0680: 7F 05 01 90 06 02 00 10  12 80 00 90 06 01 90 06  ................
0690: 20 00 21 00                                        .!.            
```

#### Opcodes

```
  0: 0x064C [0x20] SET_CLI_EVENT_UC_FLAG: Lock player control
  1: 0x064E [0x24] CREATE_DIALOG(message_id=7262*, default_option=1*, option_flags=0*)
    → "Use the device? [Yes./No.]"
  2: 0x0655 [0x25] WAIT_DIALOG_SELECT()
  3: 0x0656 [0x02] IF !(Work_Zone[0] == 0*) GOTO 0x0685
  4: 0x065E [0x42] SET_CLI_EVENT_CANCEL_DATA()
  5: 0x065F [0x43] SEND_EVENT_UPDATE: Send pending tag to server (packet 0x005B)
  6: 0x0661 [0x43] SEND_EVENT_UPDATE: Check pending flag (skip if not pending)
  7: 0x0663 [0x03] Work_Zone[1] = 1*
  8: 0x0668 [0x29] REQ_SET_WAIT(priority=0x01, entity_id=LocalPlayer, tag_num=0x04)
  9: 0x066F [0x47] UPDATE_PLAYER_POS(-580.000*, -57.000*, -0.499*, yaw=90.0°*)
 10: 0x0679 [0x47] WAIT_PLAYER_POS_UPDATE
 11: 0x067B [0x29] REQ_SET_WAIT(priority=0x01, entity_id=LocalPlayer, tag_num=0x05)
 12: 0x0682 [0x01] GOTO 0x0690
 13: 0x0685 [0x02] IF !(Work_Zone[0] == 1*) GOTO 0x0690
 14: 0x068D [0x01] GOTO 0x0690

SUBROUTINE_0690:
 15: 0x0690 [0x20] SET_CLI_EVENT_UC_FLAG: Unlock player control
 16: 0x0692 [0x21] END_EVENT
 17: 0x0693 [0x00] END_REQSTACK()
```

### Event 219

#### Metadata

| Field        | Value    |
|--------------|----------|
| Entrypoint   | 0x0694   |
| Data Size    | 72 bytes |
| Instructions | 18       |

```
      00 01 02 03 04 05 06 07  08 09 0A 0B 0C 0D 0E 0F
      -- -- -- -- -- -- -- --  -- -- -- -- -- -- -- --
0690:             20 01 24 11  80 12 80 02 80 25 02 00       .$......%..
06A0: 10 02 80 00 CD 06 42 43  00 43 01 03 01 10 12 80  ......BC.C......
06B0: 29 01 F0 FF FF 7F 04 47  00 21 80 28 80 18 80 0E  )......G.!.(....
06C0: 80 47 01 29 01 F0 FF FF  7F 05 01 D8 06 02 00 10  .G.)............
06D0: 12 80 00 D8 06 01 D8 06  20 00 21 00              ........ .!.    
```

#### Opcodes

```
  0: 0x0694 [0x20] SET_CLI_EVENT_UC_FLAG: Lock player control
  1: 0x0696 [0x24] CREATE_DIALOG(message_id=7262*, default_option=1*, option_flags=0*)
    → "Use the device? [Yes./No.]"
  2: 0x069D [0x25] WAIT_DIALOG_SELECT()
  3: 0x069E [0x02] IF !(Work_Zone[0] == 0*) GOTO 0x06CD
  4: 0x06A6 [0x42] SET_CLI_EVENT_CANCEL_DATA()
  5: 0x06A7 [0x43] SEND_EVENT_UPDATE: Send pending tag to server (packet 0x005B)
  6: 0x06A9 [0x43] SEND_EVENT_UPDATE: Check pending flag (skip if not pending)
  7: 0x06AB [0x03] Work_Zone[1] = 1*
  8: 0x06B0 [0x29] REQ_SET_WAIT(priority=0x01, entity_id=LocalPlayer, tag_num=0x04)
  9: 0x06B7 [0x47] UPDATE_PLAYER_POS(-580.000*, -503.000*, -0.500*, yaw=270.0°*)
 10: 0x06C1 [0x47] WAIT_PLAYER_POS_UPDATE
 11: 0x06C3 [0x29] REQ_SET_WAIT(priority=0x01, entity_id=LocalPlayer, tag_num=0x05)
 12: 0x06CA [0x01] GOTO 0x06D8
 13: 0x06CD [0x02] IF !(Work_Zone[0] == 1*) GOTO 0x06D8
 14: 0x06D5 [0x01] GOTO 0x06D8

SUBROUTINE_06D8:
 15: 0x06D8 [0x20] SET_CLI_EVENT_UC_FLAG: Unlock player control
 16: 0x06DA [0x21] END_EVENT
 17: 0x06DB [0x00] END_REQSTACK()
```

### Event 220

#### Metadata

| Field        | Value    |
|--------------|----------|
| Entrypoint   | 0x06DC   |
| Data Size    | 72 bytes |
| Instructions | 18       |

```
      00 01 02 03 04 05 06 07  08 09 0A 0B 0C 0D 0E 0F
      -- -- -- -- -- -- -- --  -- -- -- -- -- -- -- --
06D0:                                      20 01 24 11               .$.
06E0: 80 12 80 02 80 25 02 00  10 02 80 00 15 07 42 43  .....%........BC
06F0: 00 43 01 03 01 10 12 80  29 01 F0 FF FF 7F 04 47  .C......)......G
0700: 00 29 80 2A 80 15 80 0E  80 47 01 29 01 F0 FF FF  .).*.....G.)....
0710: 7F 05 01 20 07 02 00 10  12 80 00 20 07 01 20 07  ... ....... .. .
0720: 20 00 21 00                                        .!.            
```

#### Opcodes

```
  0: 0x06DC [0x20] SET_CLI_EVENT_UC_FLAG: Lock player control
  1: 0x06DE [0x24] CREATE_DIALOG(message_id=7262*, default_option=1*, option_flags=0*)
    → "Use the device? [Yes./No.]"
  2: 0x06E5 [0x25] WAIT_DIALOG_SELECT()
  3: 0x06E6 [0x02] IF !(Work_Zone[0] == 0*) GOTO 0x0715
  4: 0x06EE [0x42] SET_CLI_EVENT_CANCEL_DATA()
  5: 0x06EF [0x43] SEND_EVENT_UPDATE: Send pending tag to server (packet 0x005B)
  6: 0x06F1 [0x43] SEND_EVENT_UPDATE: Check pending flag (skip if not pending)
  7: 0x06F3 [0x03] Work_Zone[1] = 1*
  8: 0x06F8 [0x29] REQ_SET_WAIT(priority=0x01, entity_id=LocalPlayer, tag_num=0x04)
  9: 0x06FF [0x47] UPDATE_PLAYER_POS(620.000*, -303.000*, -0.499*, yaw=270.0°*)
 10: 0x0709 [0x47] WAIT_PLAYER_POS_UPDATE
 11: 0x070B [0x29] REQ_SET_WAIT(priority=0x01, entity_id=LocalPlayer, tag_num=0x05)
 12: 0x0712 [0x01] GOTO 0x0720
 13: 0x0715 [0x02] IF !(Work_Zone[0] == 1*) GOTO 0x0720
 14: 0x071D [0x01] GOTO 0x0720

SUBROUTINE_0720:
 15: 0x0720 [0x20] SET_CLI_EVENT_UC_FLAG: Unlock player control
 16: 0x0722 [0x21] END_EVENT
 17: 0x0723 [0x00] END_REQSTACK()
```

### Event 221

#### Metadata

| Field        | Value    |
|--------------|----------|
| Entrypoint   | 0x0724   |
| Data Size    | 72 bytes |
| Instructions | 18       |

```
      00 01 02 03 04 05 06 07  08 09 0A 0B 0C 0D 0E 0F
      -- -- -- -- -- -- -- --  -- -- -- -- -- -- -- --
0720:             20 01 24 11  80 12 80 02 80 25 02 00       .$......%..
0730: 10 02 80 00 5D 07 42 43  00 43 01 03 01 10 12 80  ....].BC.C......
0740: 29 01 F0 FF FF 7F 04 47  00 13 80 14 80 15 80 0B  )......G........
0750: 80 47 01 29 01 F0 FF FF  7F 05 01 68 07 02 00 10  .G.).......h....
0760: 12 80 00 68 07 01 68 07  20 00 21 00              ...h..h. .!.    
```

#### Opcodes

```
  0: 0x0724 [0x20] SET_CLI_EVENT_UC_FLAG: Lock player control
  1: 0x0726 [0x24] CREATE_DIALOG(message_id=7262*, default_option=1*, option_flags=0*)
    → "Use the device? [Yes./No.]"
  2: 0x072D [0x25] WAIT_DIALOG_SELECT()
  3: 0x072E [0x02] IF !(Work_Zone[0] == 0*) GOTO 0x075D
  4: 0x0736 [0x42] SET_CLI_EVENT_CANCEL_DATA()
  5: 0x0737 [0x43] SEND_EVENT_UPDATE: Send pending tag to server (packet 0x005B)
  6: 0x0739 [0x43] SEND_EVENT_UPDATE: Check pending flag (skip if not pending)
  7: 0x073B [0x03] Work_Zone[1] = 1*
  8: 0x0740 [0x29] REQ_SET_WAIT(priority=0x01, entity_id=LocalPlayer, tag_num=0x04)
  9: 0x0747 [0x47] UPDATE_PLAYER_POS(580.000*, 543.000*, -0.499*, yaw=90.0°*)
 10: 0x0751 [0x47] WAIT_PLAYER_POS_UPDATE
 11: 0x0753 [0x29] REQ_SET_WAIT(priority=0x01, entity_id=LocalPlayer, tag_num=0x05)
 12: 0x075A [0x01] GOTO 0x0768
 13: 0x075D [0x02] IF !(Work_Zone[0] == 1*) GOTO 0x0768
 14: 0x0765 [0x01] GOTO 0x0768

SUBROUTINE_0768:
 15: 0x0768 [0x20] SET_CLI_EVENT_UC_FLAG: Unlock player control
 16: 0x076A [0x21] END_EVENT
 17: 0x076B [0x00] END_REQSTACK()
```

### Event 305

#### Metadata

| Field        | Value    |
|--------------|----------|
| Entrypoint   | 0x076C   |
| Data Size    | 20 bytes |
| Instructions | 8        |

```
      00 01 02 03 04 05 06 07  08 09 0A 0B 0C 0D 0E 0F
      -- -- -- -- -- -- -- --  -- -- -- -- -- -- -- --
0760:                                      42 42 43 00              BBC.
0770: 43 01 03 01 10 12 80 29  01 F0 FF FF 7F 04 21 00  C......)......!.
```

#### Opcodes

```
  0: 0x076C [0x42] SET_CLI_EVENT_CANCEL_DATA()
  1: 0x076D [0x42] SET_CLI_EVENT_CANCEL_DATA()
  2: 0x076E [0x43] SEND_EVENT_UPDATE: Send pending tag to server (packet 0x005B)
  3: 0x0770 [0x43] SEND_EVENT_UPDATE: Check pending flag (skip if not pending)
  4: 0x0772 [0x03] Work_Zone[1] = 1*
  5: 0x0777 [0x29] REQ_SET_WAIT(priority=0x01, entity_id=LocalPlayer, tag_num=0x04)
  6: 0x077E [0x21] END_EVENT
  7: 0x077F [0x00] END_REQSTACK()
```

### Event 302

#### Metadata

| Field        | Value    |
|--------------|----------|
| Entrypoint   | 0x0780   |
| Data Size    | 13 bytes |
| Instructions | 3        |

```
      00 01 02 03 04 05 06 07  08 09 0A 0B 0C 0D 0E 0F
      -- -- -- -- -- -- -- --  -- -- -- -- -- -- -- --
0780: 47 00 2D 80 2E 80 02 80  0B 80 47 01 00           G.-.......G..   
```

#### Opcodes

```
  0: 0x0780 [0x47] UPDATE_PLAYER_POS(-579.981*, -157.108*, 0.000*, yaw=90.0°*)
  1: 0x078A [0x47] WAIT_PLAYER_POS_UPDATE
  2: 0x078C [0x00] END_REQSTACK()
```

### Event 303

#### Metadata

| Field        | Value    |
|--------------|----------|
| Entrypoint   | 0x078D   |
| Data Size    | 14 bytes |
| Instructions | 4        |

```
      00 01 02 03 04 05 06 07  08 09 0A 0B 0C 0D 0E 0F
      -- -- -- -- -- -- -- --  -- -- -- -- -- -- -- --
0780:                                         32 0C 80               2..
0790: 1F 00 2F 80 30 80 02 80  1F 01 00                 ../.0......     
```

#### Opcodes

```
  0: 0x078D [0x32] ExtData[1]->MainSpeed = 13* * 0.1
  1: 0x0790 [0x1F] MOVE_ENTITY: EventEntity moves to X=-580.014*, Z=-164.306*, Y=0.000*
  2: 0x0798 [0x1F] MOVE_ENTITY: Update entity position (mode=1)
  3: 0x079A [0x00] END_REQSTACK()
```

### Event 119

#### Metadata

| Field        | Value    |
|--------------|----------|
| Entrypoint   | 0x079B   |
| Data Size    | 10 bytes |
| Instructions | 2        |

```
      00 01 02 03 04 05 06 07  08 09 0A 0B 0C 0D 0E 0F
      -- -- -- -- -- -- -- --  -- -- -- -- -- -- -- --
0790:                                   37 31 80 32 80             71.2.
07A0: 02 80 33 80 00                                    ..3..           
```

#### Opcodes

```
  0: 0x079B [0x37] UPDATE_EVENT_POSITION_AND_DIR: x=206.614*, z=33.479*, y=0.000*, direction=360.0°*
  1: 0x07A4 [0x00] END_REQSTACK()
```

### Event 120

#### Metadata

| Field        | Value    |
|--------------|----------|
| Entrypoint   | 0x07A5   |
| Data Size    | 10 bytes |
| Instructions | 2        |

```
      00 01 02 03 04 05 06 07  08 09 0A 0B 0C 0D 0E 0F
      -- -- -- -- -- -- -- --  -- -- -- -- -- -- -- --
07A0:                37 34 80  35 80 02 80 33 80 00          74.5...3.. 
```

#### Opcodes

```
  0: 0x07A5 [0x37] UPDATE_EVENT_POSITION_AND_DIR: x=206.638*, z=6.492*, y=0.000*, direction=360.0°*
  1: 0x07AE [0x00] END_REQSTACK()
```

### Event 65535.1

#### Metadata

| Field        | Value   |
|--------------|---------|
| Entrypoint   | 0x07AF  |
| Data Size    | 6 bytes |
| Instructions | 2       |

```
      00 01 02 03 04 05 06 07  08 09 0A 0B 0C 0D 0E 0F
      -- -- -- -- -- -- -- --  -- -- -- -- -- -- -- --
07A0:                                               03                 .
07B0: 02 10 07 7F 00                                    .....           
```

#### Opcodes

```
  0: 0x07AF [0x03] Work_Zone[2] = Entity->Race
  1: 0x07B4 [0x00] END_REQSTACK()
```

### Event 65535.2

#### Metadata

| Field        | Value   |
|--------------|---------|
| Entrypoint   | 0x07B5  |
| Data Size    | 6 bytes |
| Instructions | 2       |

```
      00 01 02 03 04 05 06 07  08 09 0A 0B 0C 0D 0E 0F
      -- -- -- -- -- -- -- --  -- -- -- -- -- -- -- --
07B0:                03 02 10  0B 7F 00                      ......     
```

#### Opcodes

```
  0: 0x07B5 [0x03] Work_Zone[2] = (Entity->Render.Flags01 >> 25) & 1
  1: 0x07BA [0x00] END_REQSTACK()
```

### Event 65535.3

#### Metadata

| Field        | Value   |
|--------------|---------|
| Entrypoint   | 0x07BB  |
| Data Size    | 1 bytes |
| Instructions | 1       |

```
      00 01 02 03 04 05 06 07  08 09 0A 0B 0C 0D 0E 0F
      -- -- -- -- -- -- -- --  -- -- -- -- -- -- -- --
07B0:                                   00                         .    
```

#### Opcodes

```
  0: 0x07BB [0x00] END_REQSTACK()
```

### Event 65535.4

#### Metadata

| Field        | Value    |
|--------------|----------|
| Entrypoint   | 0x07BC   |
| Data Size    | 10 bytes |
| Instructions | 2        |

```
      00 01 02 03 04 05 06 07  08 09 0A 0B 0C 0D 0E 0F
      -- -- -- -- -- -- -- --  -- -- -- -- -- -- -- --
07B0:                                      37 36 80 37              76.7
07C0: 80 02 80 38 80 00                                 ...8..          
```

#### Opcodes

```
  0: 0x07BC [0x37] UPDATE_EVENT_POSITION_AND_DIR: x=59.978*, z=776.624*, y=0.000*, direction=90.3°*
  1: 0x07C5 [0x00] END_REQSTACK()
```

### Event 65535.5

#### Metadata

| Field        | Value    |
|--------------|----------|
| Entrypoint   | 0x07C6   |
| Data Size    | 28 bytes |
| Instructions | 8        |

```
      00 01 02 03 04 05 06 07  08 09 0A 0B 0C 0D 0E 0F
      -- -- -- -- -- -- -- --  -- -- -- -- -- -- -- --
07C0:                   32 39  80 1F 00 3A 80 3B 80 02        29...:.;..
07D0: 80 1F 01 32 0C 80 1F 00  3C 80 3D 80 02 80 1F 01  ...2....<.=.....
07E0: 6F 00                                             o.              
```

#### Opcodes

```
  0: 0x07C6 [0x32] ExtData[1]->MainSpeed = 38* * 0.1
  1: 0x07C9 [0x1F] MOVE_ENTITY: EventEntity moves to X=60.009*, Z=772.287*, Y=0.000*
  2: 0x07D1 [0x1F] MOVE_ENTITY: Update entity position (mode=1)
  3: 0x07D3 [0x32] ExtData[1]->MainSpeed = 13* * 0.1
  4: 0x07D6 [0x1F] MOVE_ENTITY: EventEntity moves to X=60.051*, Z=770.433*, Y=0.000*
  5: 0x07DE [0x1F] MOVE_ENTITY: Update entity position (mode=1)
  6: 0x07E0 [0x6F] WAIT_FRAME_DELAY: Yield until WaitTime reaches zero
  7: 0x07E1 [0x00] END_REQSTACK()
```

### Event 65535.6

#### Metadata

| Field        | Value    |
|--------------|----------|
| Entrypoint   | 0x07E2   |
| Data Size    | 15 bytes |
| Instructions | 5        |

```
      00 01 02 03 04 05 06 07  08 09 0A 0B 0C 0D 0E 0F
      -- -- -- -- -- -- -- --  -- -- -- -- -- -- -- --
07E0:       32 3E 80 1F 00 3F  80 40 80 41 80 1F 01 6F    2>...?.@.A...o
07F0: 00                                                .               
```

#### Opcodes

```
  0: 0x07E2 [0x32] ExtData[1]->MainSpeed = 37* * 0.1
  1: 0x07E5 [0x1F] MOVE_ENTITY: EventEntity moves to X=60.013*, Z=766.379*, Y=0.050*
  2: 0x07ED [0x1F] MOVE_ENTITY: Update entity position (mode=1)
  3: 0x07EF [0x6F] WAIT_FRAME_DELAY: Yield until WaitTime reaches zero
  4: 0x07F0 [0x00] END_REQSTACK()
```

### Event 65535.7

#### Metadata

| Field        | Value    |
|--------------|----------|
| Entrypoint   | 0x07F1   |
| Data Size    | 10 bytes |
| Instructions | 2        |

```
      00 01 02 03 04 05 06 07  08 09 0A 0B 0C 0D 0E 0F
      -- -- -- -- -- -- -- --  -- -- -- -- -- -- -- --
07F0:    37 42 80 43 80 41 80  44 80 00                  7B.C.A.D..     
```

#### Opcodes

```
  0: 0x07F1 [0x37] UPDATE_EVENT_POSITION_AND_DIR: x=139.891*, z=-566.510*, y=0.050*, direction=88.4°*
  1: 0x07FA [0x00] END_REQSTACK()
```

### Event 65535.8

#### Metadata

| Field        | Value    |
|--------------|----------|
| Entrypoint   | 0x07FB   |
| Data Size    | 15 bytes |
| Instructions | 5        |

```
      00 01 02 03 04 05 06 07  08 09 0A 0B 0C 0D 0E 0F
      -- -- -- -- -- -- -- --  -- -- -- -- -- -- -- --
07F0:                                   32 45 80 1F 00             2E...
0800: 46 80 47 80 02 80 1F 01  6F 00                    F.G.....o.      
```

#### Opcodes

```
  0: 0x07FB [0x32] ExtData[1]->MainSpeed = 40* * 0.1
  1: 0x07FE [0x1F] MOVE_ENTITY: EventEntity moves to X=140.030*, Z=-572.507*, Y=0.000*
  2: 0x0806 [0x1F] MOVE_ENTITY: Update entity position (mode=1)
  3: 0x0808 [0x6F] WAIT_FRAME_DELAY: Yield until WaitTime reaches zero
  4: 0x0809 [0x00] END_REQSTACK()
```

### Event 65535.9

#### Metadata

| Field        | Value    |
|--------------|----------|
| Entrypoint   | 0x080A   |
| Data Size    | 20 bytes |
| Instructions | 6        |

```
      00 01 02 03 04 05 06 07  08 09 0A 0B 0C 0D 0E 0F
      -- -- -- -- -- -- -- --  -- -- -- -- -- -- -- --
0800:                                7B F8 FF FF 7F 32            {....2
0810: 48 80 1F 00 49 80 4A 80  02 80 1F 01 6F 00        H...I.J.....o.  
```

#### Opcodes

```
  0: 0x080A [0x7B] EventEntity stops talking
  1: 0x080F [0x32] ExtData[1]->MainSpeed = 36* * 0.1
  2: 0x0812 [0x1F] MOVE_ENTITY: EventEntity moves to X=139.704*, Z=-570.119*, Y=0.000*
  3: 0x081A [0x1F] MOVE_ENTITY: Update entity position (mode=1)
  4: 0x081C [0x6F] WAIT_FRAME_DELAY: Yield until WaitTime reaches zero
  5: 0x081D [0x00] END_REQSTACK()
```

### Event 65535.10

#### Metadata

| Field        | Value    |
|--------------|----------|
| Entrypoint   | 0x081E   |
| Data Size    | 10 bytes |
| Instructions | 2        |

```
      00 01 02 03 04 05 06 07  08 09 0A 0B 0C 0D 0E 0F
      -- -- -- -- -- -- -- --  -- -- -- -- -- -- -- --
0810:                                            37 4B                7K
0820: 80 4C 80 41 80 4D 80 00                           .L.A.M..        
```

#### Opcodes

```
  0: 0x081E [0x37] UPDATE_EVENT_POSITION_AND_DIR: x=-528.692*, z=648.709*, y=0.050*, direction=242.0°*
  1: 0x0827 [0x00] END_REQSTACK()
```

### Event 65535.11

#### Metadata

| Field        | Value    |
|--------------|----------|
| Entrypoint   | 0x0828   |
| Data Size    | 25 bytes |
| Instructions | 6        |

```
      00 01 02 03 04 05 06 07  08 09 0A 0B 0C 0D 0E 0F
      -- -- -- -- -- -- -- --  -- -- -- -- -- -- -- --
0820:                          79 00 F8 FF FF 7F D6 80          y.......
0830: 04 01 32 4E 80 1F 00 4F  80 50 80 02 80 1F 01 6F  ..2N...O.P.....o
0840: 00                                                .               
```

#### Opcodes

```
  0: 0x0828 [0x79] EventEntity looks at Unnamed NPC (ID: 17072342/0x010480D6) (Basic look)
  1: 0x0832 [0x32] ExtData[1]->MainSpeed = 10* * 0.1
  2: 0x0835 [0x1F] MOVE_ENTITY: EventEntity moves to X=-529.519*, Z=649.659*, Y=0.000*
  3: 0x083D [0x1F] MOVE_ENTITY: Update entity position (mode=1)
  4: 0x083F [0x6F] WAIT_FRAME_DELAY: Yield until WaitTime reaches zero
  5: 0x0840 [0x00] END_REQSTACK()
```

### Event 65535.12

#### Metadata

| Field        | Value    |
|--------------|----------|
| Entrypoint   | 0x0841   |
| Data Size    | 10 bytes |
| Instructions | 2        |

```
      00 01 02 03 04 05 06 07  08 09 0A 0B 0C 0D 0E 0F
      -- -- -- -- -- -- -- --  -- -- -- -- -- -- -- --
0840:    37 51 80 52 80 41 80  53 80 00                  7Q.R.A.S..     
```

#### Opcodes

```
  0: 0x0841 [0x37] UPDATE_EVENT_POSITION_AND_DIR: x=-528.728*, z=647.751*, y=0.050*, direction=27.2°*
  1: 0x084A [0x00] END_REQSTACK()
```

### Event 65535.13

#### Metadata

| Field        | Value    |
|--------------|----------|
| Entrypoint   | 0x084B   |
| Data Size    | 23 bytes |
| Instructions | 5        |

```
      00 01 02 03 04 05 06 07  08 09 0A 0B 0C 0D 0E 0F
      -- -- -- -- -- -- -- --  -- -- -- -- -- -- -- --
0840:                                   37 54 80 55 80             7T.U.
0850: 02 80 02 80 32 0C 80 1F  00 56 80 57 80 41 80 1F  ....2....V.W.A..
0860: 01 00                                             ..              
```

#### Opcodes

```
  0: 0x084B [0x37] UPDATE_EVENT_POSITION_AND_DIR: x=424.998*, z=-579.999*, y=0.000*, direction=0.0°*
  1: 0x0854 [0x32] ExtData[1]->MainSpeed = 13* * 0.1
  2: 0x0857 [0x1F] MOVE_ENTITY: EventEntity moves to X=436.350*, Z=-579.889*, Y=0.050*
  3: 0x085F [0x1F] MOVE_ENTITY: Update entity position (mode=1)
  4: 0x0861 [0x00] END_REQSTACK()
```

### Event 65535.14

#### Metadata

| Field        | Value    |
|--------------|----------|
| Entrypoint   | 0x0862   |
| Data Size    | 28 bytes |
| Instructions | 6        |

```
      00 01 02 03 04 05 06 07  08 09 0A 0B 0C 0D 0E 0F
      -- -- -- -- -- -- -- --  -- -- -- -- -- -- -- --
0860:       37 58 80 59 80 02  80 5A 80 32 0C 80 1F 00    7X.Y...Z.2....
0870: 5B 80 5C 80 02 80 1F 01  1E F1 80 04 01 00        [.\...........  
```

#### Opcodes

```
  0: 0x0862 [0x37] UPDATE_EVENT_POSITION_AND_DIR: x=453.513*, z=-580.198*, y=0.000*, direction=351.4°*
  1: 0x086B [0x32] ExtData[1]->MainSpeed = 13* * 0.1
  2: 0x086E [0x1F] MOVE_ENTITY: EventEntity moves to X=454.880*, Z=-580.901*, Y=0.000*
  3: 0x0876 [0x1F] MOVE_ENTITY: Update entity position (mode=1)
  4: 0x0878 [0x1E] EventEntity looks at Abda-Lurabda (ID: 17072369/0x010480F1) and starts talking
  5: 0x087D [0x00] END_REQSTACK()
```

### Event 65535.15

#### Metadata

| Field        | Value    |
|--------------|----------|
| Entrypoint   | 0x087E   |
| Data Size    | 10 bytes |
| Instructions | 2        |

```
      00 01 02 03 04 05 06 07  08 09 0A 0B 0C 0D 0E 0F
      -- -- -- -- -- -- -- --  -- -- -- -- -- -- -- --
0870:                                            37 5D                7]
0880: 80 5E 80 02 80 5F 80 00                           .^..._..        
```

#### Opcodes

```
  0: 0x087E [0x37] UPDATE_EVENT_POSITION_AND_DIR: x=454.071*, z=-580.027*, y=0.000*, direction=3.7°*
  1: 0x0887 [0x00] END_REQSTACK()
```

### Event 65535.16

#### Metadata

| Field        | Value    |
|--------------|----------|
| Entrypoint   | 0x0888   |
| Data Size    | 14 bytes |
| Instructions | 4        |

```
      00 01 02 03 04 05 06 07  08 09 0A 0B 0C 0D 0E 0F
      -- -- -- -- -- -- -- --  -- -- -- -- -- -- -- --
0880:                          32 0C 80 1F 00 60 80 61          2....`.a
0890: 80 02 80 1F 01 00                                 ......          
```

#### Opcodes

```
  0: 0x0888 [0x32] ExtData[1]->MainSpeed = 13* * 0.1
  1: 0x088B [0x1F] MOVE_ENTITY: EventEntity moves to X=411.193*, Z=-579.682*, Y=0.000*
  2: 0x0893 [0x1F] MOVE_ENTITY: Update entity position (mode=1)
  3: 0x0895 [0x00] END_REQSTACK()
```

### Event 65535.17

#### Metadata

| Field        | Value   |
|--------------|---------|
| Entrypoint   | 0x0896  |
| Data Size    | 4 bytes |
| Instructions | 2       |

```
      00 01 02 03 04 05 06 07  08 09 0A 0B 0C 0D 0E 0F
      -- -- -- -- -- -- -- --  -- -- -- -- -- -- -- --
0890:                   39 62  80 00                          9b..      
```

#### Opcodes

```
  0: 0x0896 [0x39] SET_ENTITY_DIRECTION(direction=11.0°*)
  1: 0x0899 [0x00] END_REQSTACK()
```

### Event 65535.18

#### Metadata

| Field        | Value   |
|--------------|---------|
| Entrypoint   | 0x089A  |
| Data Size    | 4 bytes |
| Instructions | 2       |

```
      00 01 02 03 04 05 06 07  08 09 0A 0B 0C 0D 0E 0F
      -- -- -- -- -- -- -- --  -- -- -- -- -- -- -- --
0890:                                39 63 80 00                  9c..  
```

#### Opcodes

```
  0: 0x089A [0x39] SET_ENTITY_DIRECTION(direction=22.0°*)
  1: 0x089D [0x00] END_REQSTACK()
```

### Event 65535.19

#### Metadata

| Field        | Value    |
|--------------|----------|
| Entrypoint   | 0x089E   |
| Data Size    | 15 bytes |
| Instructions | 5        |

```
      00 01 02 03 04 05 06 07  08 09 0A 0B 0C 0D 0E 0F
      -- -- -- -- -- -- -- --  -- -- -- -- -- -- -- --
0890:                                            32 3E                2>
08A0: 80 1F 00 64 80 65 80 66  80 1F 01 6F 00           ...d.e.f...o.   
```

#### Opcodes

```
  0: 0x089E [0x32] ExtData[1]->MainSpeed = 37* * 0.1
  1: 0x08A1 [0x1F] MOVE_ENTITY: EventEntity moves to X=-471.637*, Z=421.031*, Y=-3.949*
  2: 0x08A9 [0x1F] MOVE_ENTITY: Update entity position (mode=1)
  3: 0x08AB [0x6F] WAIT_FRAME_DELAY: Yield until WaitTime reaches zero
  4: 0x08AC [0x00] END_REQSTACK()
```

### Event 65535.20

#### Metadata

| Field        | Value    |
|--------------|----------|
| Entrypoint   | 0x08AD   |
| Data Size    | 15 bytes |
| Instructions | 5        |

```
      00 01 02 03 04 05 06 07  08 09 0A 0B 0C 0D 0E 0F
      -- -- -- -- -- -- -- --  -- -- -- -- -- -- -- --
08A0:                                         32 3E 80               2>.
08B0: 1F 00 67 80 68 80 02 80  1F 01 6F 00              ..g.h.....o.    
```

#### Opcodes

```
  0: 0x08AD [0x32] ExtData[1]->MainSpeed = 37* * 0.1
  1: 0x08B0 [0x1F] MOVE_ENTITY: EventEntity moves to X=499.949*, Z=-548.923*, Y=0.000*
  2: 0x08B8 [0x1F] MOVE_ENTITY: Update entity position (mode=1)
  3: 0x08BA [0x6F] WAIT_FRAME_DELAY: Yield until WaitTime reaches zero
  4: 0x08BB [0x00] END_REQSTACK()
```

### Event 65535.21

#### Metadata

| Field        | Value    |
|--------------|----------|
| Entrypoint   | 0x08BC   |
| Data Size    | 12 bytes |
| Instructions | 3        |

```
      00 01 02 03 04 05 06 07  08 09 0A 0B 0C 0D 0E 0F
      -- -- -- -- -- -- -- --  -- -- -- -- -- -- -- --
08B0:                                      33 01 37 69              3.7i
08C0: 80 6A 80 6B 80 6C 80 00                           .j.k.l..        
```

#### Opcodes

```
  0: 0x08BC [0x33] EventEntity->Render.Flags0 |= 0x200000 // Bit 21 (flag=0x01)
  1: 0x08BE [0x37] UPDATE_EVENT_POSITION_AND_DIR: x=-511.405*, z=419.836*, y=-35.182*, direction=9.9°*
  2: 0x08C7 [0x00] END_REQSTACK()
```

### Event 65535.22

#### Metadata

| Field        | Value    |
|--------------|----------|
| Entrypoint   | 0x08C8   |
| Data Size    | 22 bytes |
| Instructions | 8        |

```
      00 01 02 03 04 05 06 07  08 09 0A 0B 0C 0D 0E 0F
      -- -- -- -- -- -- -- --  -- -- -- -- -- -- -- --
08C0:                          32 45 80 1F 00 6D 80 6E          2E...m.n
08D0: 80 66 80 1F 01 6F 1E E1  80 04 01 6F 70 00        .f...o.....op.  
```

#### Opcodes

```
  0: 0x08C8 [0x32] ExtData[1]->MainSpeed = 40* * 0.1
  1: 0x08CB [0x1F] MOVE_ENTITY: EventEntity moves to X=-474.967*, Z=420.042*, Y=-3.949*
  2: 0x08D3 [0x1F] MOVE_ENTITY: Update entity position (mode=1)
  3: 0x08D5 [0x6F] WAIT_FRAME_DELAY: Yield until WaitTime reaches zero
  4: 0x08D6 [0x1E] EventEntity looks at Alexander (ID: 17072353/0x010480E1) and starts talking
  5: 0x08DB [0x6F] WAIT_FRAME_DELAY: Yield until WaitTime reaches zero
  6: 0x08DC [0x70] WAIT_ENTITY_RENDER_FLAG: Wait while EventEntity->Render.Flags3 bit 2 is set (cancel turn if not)
  7: 0x08DD [0x00] END_REQSTACK()
```

### Event 65535.23

#### Metadata

| Field        | Value    |
|--------------|----------|
| Entrypoint   | 0x08DE   |
| Data Size    | 14 bytes |
| Instructions | 4        |

```
      00 01 02 03 04 05 06 07  08 09 0A 0B 0C 0D 0E 0F
      -- -- -- -- -- -- -- --  -- -- -- -- -- -- -- --
08D0:                                            32 0C                2.
08E0: 80 1F 00 21 80 6F 80 02  80 1F 01 00              ...!.o......    
```

#### Opcodes

```
  0: 0x08DE [0x32] ExtData[1]->MainSpeed = 13* * 0.1
  1: 0x08E1 [0x1F] MOVE_ENTITY: EventEntity moves to X=-580.000*, Z=-396.000*, Y=0.000*
  2: 0x08E9 [0x1F] MOVE_ENTITY: Update entity position (mode=1)
  3: 0x08EB [0x00] END_REQSTACK()
```

### Event 65535.24

#### Metadata

| Field        | Value    |
|--------------|----------|
| Entrypoint   | 0x08EC   |
| Data Size    | 14 bytes |
| Instructions | 4        |

```
      00 01 02 03 04 05 06 07  08 09 0A 0B 0C 0D 0E 0F
      -- -- -- -- -- -- -- --  -- -- -- -- -- -- -- --
08E0:                                      32 0C 80 1F              2...
08F0: 00 21 80 70 80 02 80 1F  01 00                    .!.p......      
```

#### Opcodes

```
  0: 0x08EC [0x32] ExtData[1]->MainSpeed = 13* * 0.1
  1: 0x08EF [0x1F] MOVE_ENTITY: EventEntity moves to X=-580.000*, Z=-164.000*, Y=0.000*
  2: 0x08F7 [0x1F] MOVE_ENTITY: Update entity position (mode=1)
  3: 0x08F9 [0x00] END_REQSTACK()
```

### Event 65535.25

#### Metadata

| Field        | Value    |
|--------------|----------|
| Entrypoint   | 0x08FA   |
| Data Size    | 14 bytes |
| Instructions | 4        |

```
      00 01 02 03 04 05 06 07  08 09 0A 0B 0C 0D 0E 0F
      -- -- -- -- -- -- -- --  -- -- -- -- -- -- -- --
08F0:                                32 0C 80 1F 00 29            2....)
0900: 80 71 80 02 80 1F 01 00                           .q......        
```

#### Opcodes

```
  0: 0x08FA [0x32] ExtData[1]->MainSpeed = 13* * 0.1
  1: 0x08FD [0x1F] MOVE_ENTITY: EventEntity moves to X=620.000*, Z=-196.000*, Y=0.000*
  2: 0x0905 [0x1F] MOVE_ENTITY: Update entity position (mode=1)
  3: 0x0907 [0x00] END_REQSTACK()
```

### Event 65535.26

#### Metadata

| Field        | Value    |
|--------------|----------|
| Entrypoint   | 0x0908   |
| Data Size    | 14 bytes |
| Instructions | 4        |

```
      00 01 02 03 04 05 06 07  08 09 0A 0B 0C 0D 0E 0F
      -- -- -- -- -- -- -- --  -- -- -- -- -- -- -- --
0900:                          32 0C 80 1F 00 13 80 72          2......r
0910: 80 02 80 1F 01 00                                 ......          
```

#### Opcodes

```
  0: 0x0908 [0x32] ExtData[1]->MainSpeed = 13* * 0.1
  1: 0x090B [0x1F] MOVE_ENTITY: EventEntity moves to X=580.000*, Z=436.000*, Y=0.000*
  2: 0x0913 [0x1F] MOVE_ENTITY: Update entity position (mode=1)
  3: 0x0915 [0x00] END_REQSTACK()
```

### Event 65535.27

#### Metadata

| Field        | Value   |
|--------------|---------|
| Entrypoint   | 0x0916  |
| Data Size    | 7 bytes |
| Instructions | 3       |

```
      00 01 02 03 04 05 06 07  08 09 0A 0B 0C 0D 0E 0F
      -- -- -- -- -- -- -- --  -- -- -- -- -- -- -- --
0910:                   AB 03  AC 01 12 80 00                 .......   
```

#### Opcodes

```
  0: 0x0916 [0xAB] EventEntity->Render.Flags0 ^= 0x20000 // Toggle bit 17
  1: 0x0918 [0xAC] EventEntity->StatusEvent = 1*
  2: 0x091C [0x00] END_REQSTACK()
```

### Event 65535.28

#### Metadata

| Field        | Value   |
|--------------|---------|
| Entrypoint   | 0x091D  |
| Data Size    | 7 bytes |
| Instructions | 3       |

```
      00 01 02 03 04 05 06 07  08 09 0A 0B 0C 0D 0E 0F
      -- -- -- -- -- -- -- --  -- -- -- -- -- -- -- --
0910:                                         AC 01 02               ...
0920: 80 AB 04 00                                       ....            
```

#### Opcodes

```
  0: 0x091D [0xAC] EventEntity->StatusEvent = 0*
  1: 0x0921 [0xAB] EventEntity->Render.Flags0 |= 0x40000 // Set bit 18
  2: 0x0923 [0x00] END_REQSTACK()
```

### Event 65535.29

#### Metadata

| Field        | Value    |
|--------------|----------|
| Entrypoint   | 0x0924   |
| Data Size    | 37 bytes |
| Instructions | 5        |

```
      00 01 02 03 04 05 06 07  08 09 0A 0B 0C 0D 0E 0F
      -- -- -- -- -- -- -- --  -- -- -- -- -- -- -- --
0920:             03 00 00 07  7F 1A 9E 09 66 01 00 F8      ........f...
0930: FF FF 7F F8 FF FF 7F 73  68 61 30 53 F8 FF FF 7F  .......sha0S....
0940: F8 FF FF 7F 73 68 61 30  00                       ....sha0.       
```

#### Opcodes

```
  0: 0x0924 [0x03] ExtData[1]->WorkLocal[0] = Entity->Race
  1: 0x0929 [0x1A] CALL_SUBROUTINE(address=0x099E)
  2: 0x092C [0x66] LOAD_EXT_SCHEDULER_MAIN: Load scheduler "sha0" with entities [EventEntity, EventEntity], work=ExtData[1]->WorkLocal[1]
  3: 0x093B [0x53] WAIT_SCHEDULER_TASK: Wait for scheduler "sha0" with entities [EventEntity, EventEntity]
  4: 0x0948 [0x00] END_REQSTACK()
```

### Event 65535.30

#### Metadata

| Field        | Value    |
|--------------|----------|
| Entrypoint   | 0x0949   |
| Data Size    | 37 bytes |
| Instructions | 5        |

```
      00 01 02 03 04 05 06 07  08 09 0A 0B 0C 0D 0E 0F
      -- -- -- -- -- -- -- --  -- -- -- -- -- -- -- --
0940:                             03 00 00 07 7F 1A 9E           .......
0950: 09 66 01 00 F8 FF FF 7F  F8 FF FF 7F 73 68 61 31  .f..........sha1
0960: 53 F8 FF FF 7F F8 FF FF  7F 73 68 61 31 00        S........sha1.  
```

#### Opcodes

```
  0: 0x0949 [0x03] ExtData[1]->WorkLocal[0] = Entity->Race
  1: 0x094E [0x1A] CALL_SUBROUTINE(address=0x099E)
  2: 0x0951 [0x66] LOAD_EXT_SCHEDULER_MAIN: Load scheduler "sha1" with entities [EventEntity, EventEntity], work=ExtData[1]->WorkLocal[1]
  3: 0x0960 [0x53] WAIT_SCHEDULER_TASK: Wait for scheduler "sha1" with entities [EventEntity, EventEntity]
  4: 0x096D [0x00] END_REQSTACK()
```

### Event 65535.31

#### Metadata

| Field        | Value    |
|--------------|----------|
| Entrypoint   | 0x096E   |
| Data Size    | 24 bytes |
| Instructions | 4        |

```
      00 01 02 03 04 05 06 07  08 09 0A 0B 0C 0D 0E 0F
      -- -- -- -- -- -- -- --  -- -- -- -- -- -- -- --
0960:                                            03 00                ..
0970: 00 07 7F 1A 9E 09 66 01  00 F8 FF FF 7F F8 FF FF  ......f.........
0980: 7F 74 6C 6B 30 00                                 .tlk0.          
```

#### Opcodes

```
  0: 0x096E [0x03] ExtData[1]->WorkLocal[0] = Entity->Race
  1: 0x0973 [0x1A] CALL_SUBROUTINE(address=0x099E)
  2: 0x0976 [0x66] LOAD_EXT_SCHEDULER_MAIN: Load scheduler "tlk0" with entities [EventEntity, EventEntity], work=ExtData[1]->WorkLocal[1]
  3: 0x0985 [0x00] END_REQSTACK()
```

### Event 65535.32

#### Metadata

| Field        | Value     |
|--------------|-----------|
| Entrypoint   | 0x0986    |
| Data Size    | 172 bytes |
| Instructions | 12        |

```
      00 01 02 03 04 05 06 07  08 09 0A 0B 0C 0D 0E 0F
      -- -- -- -- -- -- -- --  -- -- -- -- -- -- -- --
0980:                   03 00  00 07 7F 1A 9E 09 66 01        ........f.
0990: 00 F8 FF FF 7F F8 FF FF  7F 74 6C 6B 31 00 03 01  .........tlk1...
09A0: 00 00 00 02 01 00 73 80  05 B3 09 08 01 00 12 80  ......s.........
09B0: 01 B8 09 08 01 00 74 80  14 01 00 4E 80 07 01 00  ......t....N....
09C0: 75 80 1B 03 01 00 00 00  02 01 00 73 80 05 D8 09  u..........s....
09D0: 08 01 00 12 80 01 DD 09  08 01 00 74 80 14 01 00  ...........t....
09E0: 4E 80 07 01 00 76 80 1B  03 01 00 00 00 02 01 00  N....v..........
09F0: 73 80 05 FD 09 08 01 00  12 80 01 02 0A 08 01 00  s...............
0A00: 74 80 14 01 00 4E 80 07  01 00 03 80 1B 03 01 00  t....N..........
0A10: 00 00 02 01 00 73 80 05  22 0A 08 01 00 12 80 01  .....s..".......
0A20: 27 0A 08 01 00 74 80 14  01 00 4E 80 07 01 00 77  '....t....N....w
0A30: 80 1B                                             ..              
```

#### Opcodes

```
  0: 0x0986 [0x03] ExtData[1]->WorkLocal[0] = Entity->Race
  1: 0x098B [0x1A] CALL_SUBROUTINE(address=0x099E)
  2: 0x098E [0x66] LOAD_EXT_SCHEDULER_MAIN: Load scheduler "tlk1" with entities [EventEntity, EventEntity], work=ExtData[1]->WorkLocal[1]
  3: 0x099D [0x00] END_REQSTACK()

SUBROUTINE_099E:
  4: 0x099E [0x03] ExtData[1]->WorkLocal[1] = ExtData[1]->WorkLocal[0]
  5: 0x09A3 [0x02] IF !(ExtData[1]->WorkLocal[1] > 5*) GOTO 0x09B3
  6: 0x09AB [0x08] ExtData[1]->WorkLocal[1] -= 1*
  7: 0x09B0 [0x01] GOTO 0x09B8
  8: 0x09B3 [0x08] ExtData[1]->WorkLocal[1] -= 2*

SUBROUTINE_09B8:
  9: 0x09B8 [0x14] ExtData[1]->WorkLocal[1] *= 10*
 10: 0x09BD [0x07] ExtData[1]->WorkLocal[1] += 9*
 11: 0x09C2 [0x1B] RETURN
```

#### Data or dead code:

```
# Dead code (unreachable instructions):
     0x09C3 [0x03] ExtData[1]->WorkLocal[1] = ExtData[1]->WorkLocal[0]
     0x09C8 [0x02] IF !(ExtData[1]->WorkLocal[1] > 5*) GOTO 0x09D8
     0x09D0 [0x08] ExtData[1]->WorkLocal[1] -= 1*
     0x09D5 [0x01] GOTO 0x09DD
     0x09D8 [0x08] ExtData[1]->WorkLocal[1] -= 2*
     0x09DD [0x14] ExtData[1]->WorkLocal[1] *= 10*
     0x09E2 [0x07] ExtData[1]->WorkLocal[1] += 70*
     0x09E7 [0x1B] RETURN
     0x09E8 [0x03] ExtData[1]->WorkLocal[1] = ExtData[1]->WorkLocal[0]
     0x09ED [0x02] IF !(ExtData[1]->WorkLocal[1] > 5*) GOTO 0x09FD
     0x09F5 [0x08] ExtData[1]->WorkLocal[1] -= 1*
     0x09FA [0x01] GOTO 0x0A02
     0x09FD [0x08] ExtData[1]->WorkLocal[1] -= 2*
     0x0A02 [0x14] ExtData[1]->WorkLocal[1] *= 10*
     0x0A07 [0x07] ExtData[1]->WorkLocal[1] += 140*
     0x0A0C [0x1B] RETURN
     0x0A0D [0x03] ExtData[1]->WorkLocal[1] = ExtData[1]->WorkLocal[0]
     0x0A12 [0x02] IF !(ExtData[1]->WorkLocal[1] > 5*) GOTO 0x0A22
     0x0A1A [0x08] ExtData[1]->WorkLocal[1] -= 1*
     0x0A1F [0x01] GOTO 0x0A27
     0x0A22 [0x08] ExtData[1]->WorkLocal[1] -= 2*
     0x0A27 [0x14] ExtData[1]->WorkLocal[1] *= 10*
     0x0A2C [0x07] ExtData[1]->WorkLocal[1] += 210*
     0x0A31 [0x1B] RETURN
```

### Event 65535.33

#### Metadata

| Field        | Value    |
|--------------|----------|
| Entrypoint   | 0x0A32   |
| Data Size    | 17 bytes |
| Instructions | 5        |

```
      00 01 02 03 04 05 06 07  08 09 0A 0B 0C 0D 0E 0F
      -- -- -- -- -- -- -- --  -- -- -- -- -- -- -- --
0A30:       1F 00 78 80 79 80  66 80 1F 01 6F 1E D7 80    ..x.y.f...o...
0A40: 04 01 00                                          ...             
```

#### Opcodes

```
  0: 0x0A32 [0x1F] MOVE_ENTITY: EventEntity moves to X=-470.930*, Z=420.097*, Y=-3.949*
  1: 0x0A3A [0x1F] MOVE_ENTITY: Update entity position (mode=1)
  2: 0x0A3C [0x6F] WAIT_FRAME_DELAY: Yield until WaitTime reaches zero
  3: 0x0A3D [0x1E] EventEntity looks at Nashmeira (ID: 17072343/0x010480D7) and starts talking
  4: 0x0A42 [0x00] END_REQSTACK()
```

### Event 65535.34

#### Metadata

| Field        | Value    |
|--------------|----------|
| Entrypoint   | 0x0A43   |
| Data Size    | 19 bytes |
| Instructions | 7        |

```
      00 01 02 03 04 05 06 07  08 09 0A 0B 0C 0D 0E 0F
      -- -- -- -- -- -- -- --  -- -- -- -- -- -- -- --
0A40:          1F 00 7A 80 7B  80 66 80 1F 01 6F 1E E1     ..z.{.f...o..
0A50: 80 04 01 6F 70 00                                 ...op.          
```

#### Opcodes

```
  0: 0x0A43 [0x1F] MOVE_ENTITY: EventEntity moves to X=-473.574*, Z=420.017*, Y=-3.949*
  1: 0x0A4B [0x1F] MOVE_ENTITY: Update entity position (mode=1)
  2: 0x0A4D [0x6F] WAIT_FRAME_DELAY: Yield until WaitTime reaches zero
  3: 0x0A4E [0x1E] EventEntity looks at Alexander (ID: 17072353/0x010480E1) and starts talking
  4: 0x0A53 [0x6F] WAIT_FRAME_DELAY: Yield until WaitTime reaches zero
  5: 0x0A54 [0x70] WAIT_ENTITY_RENDER_FLAG: Wait while EventEntity->Render.Flags3 bit 2 is set (cancel turn if not)
  6: 0x0A55 [0x00] END_REQSTACK()
```

### Event 65535.35

#### Metadata

| Field        | Value    |
|--------------|----------|
| Entrypoint   | 0x0A56   |
| Data Size    | 19 bytes |
| Instructions | 7        |

```
      00 01 02 03 04 05 06 07  08 09 0A 0B 0C 0D 0E 0F
      -- -- -- -- -- -- -- --  -- -- -- -- -- -- -- --
0A50:                   1F 00  7C 80 7D 80 66 80 1F 01        ..|.}.f...
0A60: 6F 1E E1 80 04 01 6F 70  00                       o.....op.       
```

#### Opcodes

```
  0: 0x0A56 [0x1F] MOVE_ENTITY: EventEntity moves to X=-475.039*, Z=420.039*, Y=-3.949*
  1: 0x0A5E [0x1F] MOVE_ENTITY: Update entity position (mode=1)
  2: 0x0A60 [0x6F] WAIT_FRAME_DELAY: Yield until WaitTime reaches zero
  3: 0x0A61 [0x1E] EventEntity looks at Alexander (ID: 17072353/0x010480E1) and starts talking
  4: 0x0A66 [0x6F] WAIT_FRAME_DELAY: Yield until WaitTime reaches zero
  5: 0x0A67 [0x70] WAIT_ENTITY_RENDER_FLAG: Wait while EventEntity->Render.Flags3 bit 2 is set (cancel turn if not)
  6: 0x0A68 [0x00] END_REQSTACK()
```

### Event 65535.36

#### Metadata

| Field        | Value    |
|--------------|----------|
| Entrypoint   | 0x0A69   |
| Data Size    | 22 bytes |
| Instructions | 6        |

```
      00 01 02 03 04 05 06 07  08 09 0A 0B 0C 0D 0E 0F
      -- -- -- -- -- -- -- --  -- -- -- -- -- -- -- --
0A60:                             32 45 80 1F 00 7E 80           2E...~.
0A70: 7F 80 02 80 1F 01 1E D7  80 04 01 1C 80 80 00     ............... 
```

#### Opcodes

```
  0: 0x0A69 [0x32] ExtData[1]->MainSpeed = 40* * 0.1
  1: 0x0A6C [0x1F] MOVE_ENTITY: EventEntity moves to X=429.587*, Z=-580.864*, Y=0.000*
  2: 0x0A74 [0x1F] MOVE_ENTITY: Update entity position (mode=1)
  3: 0x0A76 [0x1E] EventEntity looks at Nashmeira (ID: 17072343/0x010480D7) and starts talking
  4: 0x0A7B [0x1C] WAIT(30* ticks)
  5: 0x0A7E [0x00] END_REQSTACK()
```

### Event 65535.37

#### Metadata

| Field        | Value    |
|--------------|----------|
| Entrypoint   | 0x0A7F   |
| Data Size    | 22 bytes |
| Instructions | 6        |

```
      00 01 02 03 04 05 06 07  08 09 0A 0B 0C 0D 0E 0F
      -- -- -- -- -- -- -- --  -- -- -- -- -- -- -- --
0A70:                                               32                 2
0A80: 45 80 1F 00 81 80 82 80  02 80 1F 01 1E 01 81 04  E...............
0A90: 01 1C 80 80 00                                    .....           
```

#### Opcodes

```
  0: 0x0A7F [0x32] ExtData[1]->MainSpeed = 40* * 0.1
  1: 0x0A82 [0x1F] MOVE_ENTITY: EventEntity moves to X=443.771*, Z=-578.832*, Y=0.000*
  2: 0x0A8A [0x1F] MOVE_ENTITY: Update entity position (mode=1)
  3: 0x0A8C [0x1E] EventEntity looks at Iroha (ID: 17072385/0x01048101) and starts talking
  4: 0x0A91 [0x1C] WAIT(30* ticks)
  5: 0x0A94 [0x00] END_REQSTACK()
```

### Event 65535.38

#### Metadata

| Field        | Value    |
|--------------|----------|
| Entrypoint   | 0x0A95   |
| Data Size    | 22 bytes |
| Instructions | 6        |

```
      00 01 02 03 04 05 06 07  08 09 0A 0B 0C 0D 0E 0F
      -- -- -- -- -- -- -- --  -- -- -- -- -- -- -- --
0A90:                32 45 80  1F 00 83 80 84 80 85 80       2E.........
0AA0: 1F 01 1E D7 80 04 01 1C  80 80 00                 ...........     
```

#### Opcodes

```
  0: 0x0A95 [0x32] ExtData[1]->MainSpeed = 40* * 0.1
  1: 0x0A98 [0x1F] MOVE_ENTITY: EventEntity moves to X=-470.086*, Z=421.085*, Y=-3.999*
  2: 0x0AA0 [0x1F] MOVE_ENTITY: Update entity position (mode=1)
  3: 0x0AA2 [0x1E] EventEntity looks at Nashmeira (ID: 17072343/0x010480D7) and starts talking
  4: 0x0AA7 [0x1C] WAIT(30* ticks)
  5: 0x0AAA [0x00] END_REQSTACK()
```

### Event 65535.39

#### Metadata

| Field        | Value    |
|--------------|----------|
| Entrypoint   | 0x0AAB   |
| Data Size    | 22 bytes |
| Instructions | 6        |

```
      00 01 02 03 04 05 06 07  08 09 0A 0B 0C 0D 0E 0F
      -- -- -- -- -- -- -- --  -- -- -- -- -- -- -- --
0AA0:                                   32 45 80 1F 00             2E...
0AB0: 86 80 87 80 66 80 1F 01  1E 01 81 04 01 1C 80 80  ....f...........
0AC0: 00                                                .               
```

#### Opcodes

```
  0: 0x0AAB [0x32] ExtData[1]->MainSpeed = 40* * 0.1
  1: 0x0AAE [0x1F] MOVE_ENTITY: EventEntity moves to X=-474.638*, Z=418.763*, Y=-3.949*
  2: 0x0AB6 [0x1F] MOVE_ENTITY: Update entity position (mode=1)
  3: 0x0AB8 [0x1E] EventEntity looks at Iroha (ID: 17072385/0x01048101) and starts talking
  4: 0x0ABD [0x1C] WAIT(30* ticks)
  5: 0x0AC0 [0x00] END_REQSTACK()
```

### Event 65535.40

#### Metadata

| Field        | Value    |
|--------------|----------|
| Entrypoint   | 0x0AC1   |
| Data Size    | 17 bytes |
| Instructions | 5        |

```
      00 01 02 03 04 05 06 07  08 09 0A 0B 0C 0D 0E 0F
      -- -- -- -- -- -- -- --  -- -- -- -- -- -- -- --
0AC0:    32 45 80 1F 00 83 80  84 80 85 80 1F 01 1C 80   2E.............
0AD0: 80 00                                             ..              
```

#### Opcodes

```
  0: 0x0AC1 [0x32] ExtData[1]->MainSpeed = 40* * 0.1
  1: 0x0AC4 [0x1F] MOVE_ENTITY: EventEntity moves to X=-470.086*, Z=421.085*, Y=-3.999*
  2: 0x0ACC [0x1F] MOVE_ENTITY: Update entity position (mode=1)
  3: 0x0ACE [0x1C] WAIT(30* ticks)
  4: 0x0AD1 [0x00] END_REQSTACK()
```

### Event 65535.41

#### Metadata

| Field        | Value    |
|--------------|----------|
| Entrypoint   | 0x0AD2   |
| Data Size    | 24 bytes |
| Instructions | 4        |

```
      00 01 02 03 04 05 06 07  08 09 0A 0B 0C 0D 0E 0F
      -- -- -- -- -- -- -- --  -- -- -- -- -- -- -- --
0AD0:       03 00 00 07 7F 1A  E8 09 66 01 00 F8 FF FF    ........f.....
