# Event 65535

## Metadata

| Field           | Value    |
|-----------------|----------|
| Event Index     | 163/163  |
| Offset          | 0x09A6   |
| Data Size       | 44 bytes |
| Calculated Size | 44 bytes |
| Instructions    | 10       |

```
      00 01 02 03 04 05 06 07  08 09 0A 0B 0C 0D 0E 0F
      -- -- -- -- -- -- -- --  -- -- -- -- -- -- -- --
09A0:                   32 1C  80 5A 00 1D 80 1E 80 1F        2..Z......
09B0: 80 5A 01 5A 00 20 80 21  80 22 80 5A 01 5A 00 23  .Z.Z. .!.".Z.Z.#
09C0: 80 24 80 25 80 5A 01 5A  00 26 80 27 80 28 80 5A  .$.%.Z.Z.&.'.(.Z
09D0: 01 00                                             ..              
```

## Opcodes

```
  0: 0x09A6 [0x32] ExtData[1]->MainSpeed = 13* * 0.1
  1: 0x09A9 [0x5A] UPDATE_EVENT_POSITION: Set EventEntity MovePosition to X=238.083*, Z=-352.693*, Y=20.095*
  2: 0x09B1 [0x5A] UPDATE_EVENT_POSITION: Move EventEntity incrementally towards MovePosition
  3: 0x09B3 [0x5A] UPDATE_EVENT_POSITION: Set EventEntity MovePosition to X=236.708*, Z=-348.179*, Y=20.775*
  4: 0x09BB [0x5A] UPDATE_EVENT_POSITION: Move EventEntity incrementally towards MovePosition
  5: 0x09BD [0x5A] UPDATE_EVENT_POSITION: Set EventEntity MovePosition to X=237.262*, Z=-341.225*, Y=20.891*
  6: 0x09C5 [0x5A] UPDATE_EVENT_POSITION: Move EventEntity incrementally towards MovePosition
  7: 0x09C7 [0x5A] UPDATE_EVENT_POSITION: Set EventEntity MovePosition to X=235.465*, Z=-330.028*, Y=19.962*
  8: 0x09CF [0x5A] UPDATE_EVENT_POSITION: Move EventEntity incrementally towards MovePosition
  9: 0x09D1 [0x00] END_REQSTACK()
```
