# Event 65535

## Metadata

| Field           | Value    |
|-----------------|----------|
| Event Index     | 157/163  |
| Offset          | 0x0946   |
| Data Size       | 62 bytes |
| Calculated Size | 62 bytes |
| Instructions    | 10       |

```
      00 01 02 03 04 05 06 07  08 09 0A 0B 0C 0D 0E 0F
      -- -- -- -- -- -- -- --  -- -- -- -- -- -- -- --
0940:                   03 00  00 19 80 02 00 00 19 80        ..........
0950: 00 83 09 C4 01 19 80 F8  FF FF 7F FE 62 06 01 1C  ............b...
0960: 1A 80 C4 01 19 80 F8 FF  FF 7F FE 62 06 01 1C 1A  ...........b....
0970: 80 C4 01 19 80 F8 FF FF  7F FE 62 06 01 1C 1A 80  ..........b.....
0980: 01 4B 09 00                                       .K..            
```

## Opcodes

```
  0: 0x0946 [0x03] ExtData[1]->WorkLocal[0] = 0*
  1: 0x094B [0x02] IF !(ExtData[1]->WorkLocal[0] == 0*) GOTO 0x0983
  2: 0x0953 [0xC4] SCHEDULE_MAGIC_CASTING_ALT (arg=17): EventEntity casts magic 0* on Kupofried (ID: 17195774/0x010662FE)
  3: 0x095F [0x1C] WAIT(110* ticks)
  4: 0x0962 [0xC4] SCHEDULE_MAGIC_CASTING_ALT (arg=17): EventEntity casts magic 0* on Kupofried (ID: 17195774/0x010662FE)
  5: 0x096E [0x1C] WAIT(110* ticks)
  6: 0x0971 [0xC4] SCHEDULE_MAGIC_CASTING_ALT (arg=17): EventEntity casts magic 0* on Kupofried (ID: 17195774/0x010662FE)
  7: 0x097D [0x1C] WAIT(110* ticks)
  8: 0x0980 [0x01] GOTO 0x094B

SUBROUTINE_0983:
  9: 0x0983 [0x00] END_REQSTACK()
```
