# Event 65535

## Metadata

| Field           | Value    |
|-----------------|----------|
| Event Index     | 24/26    |
| Offset          | 0x0276   |
| Data Size       | 51 bytes |
| Calculated Size | 51 bytes |
| Instructions    | 11       |

```
      00 01 02 03 04 05 06 07  08 09 0A 0B 0C 0D 0E 0F
      -- -- -- -- -- -- -- --  -- -- -- -- -- -- -- --
0270:                   32 50  80 1F 00 62 80 63 80 64        2P...b.c.d
0280: 80 1F 01 1F 00 65 80 66  80 67 80 1F 01 1F 00 68  .....e.f.g.....h
0290: 80 69 80 6A 80 1F 01 1E  4A 10 0F 01 1C 49 80 4A  .i.j....J....I.J
02A0: 4A 10 0F 01 4D 10 0F 01  00                       J...M....       
```

## Opcodes

```
  0: 0x0276 [0x32] ExtData[1]->MainSpeed = 45* * 0.1
  1: 0x0279 [0x1F] MOVE_ENTITY: EventEntity moves to X=-604.257*, Z=586.573*, Y=0.057*
  2: 0x0281 [0x1F] MOVE_ENTITY: Update entity position (mode=1)
  3: 0x0283 [0x1F] MOVE_ENTITY: EventEntity moves to X=-603.318*, Z=588.527*, Y=0.196*
  4: 0x028B [0x1F] MOVE_ENTITY: Update entity position (mode=1)
  5: 0x028D [0x1F] MOVE_ENTITY: EventEntity moves to X=-601.495*, Z=586.040*, Y=0.496*
  6: 0x0295 [0x1F] MOVE_ENTITY: Update entity position (mode=1)
  7: 0x0297 [0x1E] EventEntity looks at Unnamed NPC (ID: 17764426/0x010F104A) and starts talking
  8: 0x029C [0x1C] WAIT(30* ticks)
  9: 0x029F [0x4A] Unnamed NPC (ID: 17764426/0x010F104A) looks at Unnamed NPC (ID: 17764429/0x010F104D)
 10: 0x02A8 [0x00] END_REQSTACK()
```
