# Event 65535

## Metadata

| Field           | Value    |
|-----------------|----------|
| Event Index     | 22/26    |
| Offset          | 0x0225   |
| Data Size       | 67 bytes |
| Calculated Size | 67 bytes |
| Instructions    | 15       |

```
      00 01 02 03 04 05 06 07  08 09 0A 0B 0C 0D 0E 0F
      -- -- -- -- -- -- -- --  -- -- -- -- -- -- -- --
0220:                32 50 80  1F 00 51 80 52 80 53 80       2P...Q.R.S.
0230: 1F 01 4B 4D 10 0F 01 54  80 1C 55 80 1F 00 56 80  ..KM...T..U...V.
0240: 57 80 58 80 1F 01 4B 4D  10 0F 01 59 80 1C 5A 80  W.X...KM...Y..Z.
0250: 1F 00 5B 80 5C 80 5D 80  1F 01 1C 49 80 4B 4D 10  ..[.\.]....I.KM.
0260: 0F 01 5E 80 1C 55 80 00                           ..^..U..        
```

## Opcodes

```
  0: 0x0225 [0x32] ExtData[1]->MainSpeed = 45* * 0.1
  1: 0x0228 [0x1F] MOVE_ENTITY: EventEntity moves to X=-599.295*, Z=590.678*, Y=0.264*
  2: 0x0230 [0x1F] MOVE_ENTITY: Update entity position (mode=1)
  3: 0x0232 [0x4B] UPDATE_ENTITY_YAW(entity=Unnamed NPC (ID: 17764429/0x010F104D), yaw=5.3°*)
  4: 0x0239 [0x1C] WAIT(60* ticks)
  5: 0x023C [0x1F] MOVE_ENTITY: EventEntity moves to X=-604.353*, Z=586.292*, Y=0.138*
  6: 0x0244 [0x1F] MOVE_ENTITY: Update entity position (mode=1)
  7: 0x0246 [0x4B] UPDATE_ENTITY_YAW(entity=Unnamed NPC (ID: 17764429/0x010F104D), yaw=0.2°*)
  8: 0x024D [0x1C] WAIT(240* ticks)
  9: 0x0250 [0x1F] MOVE_ENTITY: EventEntity moves to X=-600.328*, Z=582.410*, Y=0.802*
 10: 0x0258 [0x1F] MOVE_ENTITY: Update entity position (mode=1)
 11: 0x025A [0x1C] WAIT(30* ticks)
 12: 0x025D [0x4B] UPDATE_ENTITY_YAW(entity=Unnamed NPC (ID: 17764429/0x010F104D), yaw=16.6°*)
 13: 0x0264 [0x1C] WAIT(60* ticks)
 14: 0x0267 [0x00] END_REQSTACK()
```
