# Event 293

## Metadata

| Field           | Value    |
|-----------------|----------|
| Event Index     | 5/5      |
| Offset          | 0x0066   |
| Data Size       | 25 bytes |
| Calculated Size | 25 bytes |
| Instructions    | 11       |

```
      00 01 02 03 04 05 06 07  08 09 0A 0B 0C 0D 0E 0F
      -- -- -- -- -- -- -- --  -- -- -- -- -- -- -- --
0060:                   1C 0D  80 1E F0 FF FF 7F 1C 01        ..........
0070: 80 1D 0E 80 23 1D 0F 80  23 1D 10 80 23 21 00     ....#...#...#!. 
```

## Opcodes

```
  0: 0x0066 [0x1C] WAIT(60* ticks)
  1: 0x0069 [0x1E] EventEntity looks at LocalPlayer and starts talking
  2: 0x006E [0x1C] WAIT(20* ticks)
  3: 0x0071 [0x1D] PRINT_EVENT_MESSAGE(message_id=8177*)
    → "You have done well.\u0007Take this. I have need for it no more.\u007F1\u0000\u0007"
  4: 0x0074 [0x23] WAIT_FOR_DIALOG_INTERACTION
  5: 0x0075 [0x1D] PRINT_EVENT_MESSAGE(message_id=8178*)
    → "Now be off, and forget all that has transpired here.\u0007Shine your light upon the future, and let the past rest in darkness.\u007F1\u0000\u0007"
  6: 0x0078 [0x23] WAIT_FOR_DIALOG_INTERACTION
  7: 0x0079 [0x1D] PRINT_EVENT_MESSAGE(message_id=8179*)
    → "I...thank you...\u0008.\u007F1\u0000\u0007"
  8: 0x007C [0x23] WAIT_FOR_DIALOG_INTERACTION
  9: 0x007D [0x21] END_EVENT
 10: 0x007E [0x00] END_REQSTACK()
```
