# 17486274 - Naji

## Common Data

| Field            | Value                      |
|------------------|----------------------------|
| Zone             | Korroloka Tunnel (ID: 173) |
| Block Size       | 324 bytes                  |
| Total Events     | 7                          |
| References Count | 33                         |

## List of Events

| Event ID                 | Entrypoint   |   Size |   Instructions |
|--------------------------|--------------|--------|----------------|
| [65535](#event-65535)    | 0x0000       |      1 |              1 |
| [14](#event-14)          | 0x0001       |      7 |              2 |
| [15](#event-15)          | 0x0008       |      7 |              2 |
| [65535.1](#event-655351) | 0x000F       |     14 |              4 |
| [65535.2](#event-655352) | 0x001D       |     74 |             16 |
| [65535.3](#event-655353) | 0x0067       |     21 |              2 |
| [65535.4](#event-655354) | 0x007C       |     21 |              2 |

## DAT References (imed_data)

|   Index | Hex Value   |   Dec Value |
|---------|-------------|-------------|
|       0 | 0x000D      |          13 |
|       1 | 0xC346      |       49990 |
|       2 | 0x12A20     |       76320 |
|       3 | 0x0154      |         340 |
|       4 | 0x0028      |          40 |
|       5 | 0xC260      |       49760 |
|       6 | 0x12B1A     |       76570 |
|       7 | 0x014A      |         330 |
|       8 | 0xB7F2      |       47090 |
|       9 | 0x12DF4     |       77300 |
|      10 | 0x01E0      |         480 |
|      11 | 0xAA0A      |       43530 |
|      12 | 0x12B42     |       76610 |
|      13 | 0x0078      |         120 |
|      14 | 0x9D58      |       40280 |
|      15 | 0x11DA0     |       73120 |
|      16 | 0x00C8      |         200 |
|      17 | 0x8B56      |       35670 |
|      18 | 0xFA8C      |       64140 |
|      19 | 0x03CA      |         970 |
|      20 | 0x7BFC      |       31740 |
|      21 | 0xD9C6      |       55750 |
|      22 | 0x0672      |        1650 |
|      23 | 0x404C      |       16460 |
|      24 | 0xA85C      |       43100 |
|      25 | 0x04B0      |        1200 |
|      26 | 0x0001      |           1 |
|      27 | 0x0005      |           5 |
|      28 | 0x0000      |           0 |
|      29 | 0x001B      |          27 |
|      30 | 0x000C      |          12 |
|      31 | 0x0018      |          24 |
|      32 | 0x00B9      |         185 |

## Events

### Event 65535

#### Metadata

| Field        | Value   |
|--------------|---------|
| Entrypoint   | 0x0000  |
| Data Size    | 1 bytes |
| Instructions | 1       |

```
      00 01 02 03 04 05 06 07  08 09 0A 0B 0C 0D 0E 0F
      -- -- -- -- -- -- -- --  -- -- -- -- -- -- -- --
0000: 00                                                .               
```

#### Opcodes

```
  0: 0x0000 [0x00] END_REQSTACK()
```

### Event 14

#### Metadata

| Field        | Value   |
|--------------|---------|
| Entrypoint   | 0x0001  |
| Data Size    | 7 bytes |
| Instructions | 2       |

```
      00 01 02 03 04 05 06 07  08 09 0A 0B 0C 0D 0E 0F
      -- -- -- -- -- -- -- --  -- -- -- -- -- -- -- --
0000:    92 01 F8 FF FF 7F 00                            .......        
```

#### Opcodes

```
  0: 0x0001 [0x92] EventEntity->Render.Flags3 ^= 0x01
  1: 0x0007 [0x00] END_REQSTACK()
```

### Event 15

#### Metadata

| Field        | Value   |
|--------------|---------|
| Entrypoint   | 0x0008  |
| Data Size    | 7 bytes |
| Instructions | 2       |

```
      00 01 02 03 04 05 06 07  08 09 0A 0B 0C 0D 0E 0F
      -- -- -- -- -- -- -- --  -- -- -- -- -- -- -- --
0000:                          92 01 F8 FF FF 7F 00             ....... 
```

#### Opcodes

```
  0: 0x0008 [0x92] EventEntity->Render.Flags3 ^= 0x01
  1: 0x000E [0x00] END_REQSTACK()
```

### Event 65535.1

#### Metadata

| Field        | Value    |
|--------------|----------|
| Entrypoint   | 0x000F   |
| Data Size    | 14 bytes |
| Instructions | 4        |

```
      00 01 02 03 04 05 06 07  08 09 0A 0B 0C 0D 0E 0F
      -- -- -- -- -- -- -- --  -- -- -- -- -- -- -- --
0000:                                               32                 2
0010: 00 80 1F 00 01 80 02 80  03 80 1F 01 00           .............   
```

#### Opcodes

```
  0: 0x000F [0x32] ExtData[1]->MainSpeed = 13* * 0.1
  1: 0x0012 [0x1F] MOVE_ENTITY: EventEntity moves to X=49.990*, Z=76.320*, Y=0.340*
  2: 0x001A [0x1F] MOVE_ENTITY: Update entity position (mode=1)
  3: 0x001C [0x00] END_REQSTACK()
```

### Event 65535.2

#### Metadata

| Field        | Value    |
|--------------|----------|
| Entrypoint   | 0x001D   |
| Data Size    | 74 bytes |
| Instructions | 16       |

```
      00 01 02 03 04 05 06 07  08 09 0A 0B 0C 0D 0E 0F
      -- -- -- -- -- -- -- --  -- -- -- -- -- -- -- --
0010:                                         32 04 80               2..
0020: 1F 00 05 80 06 80 07 80  1F 01 1F 00 08 80 09 80  ................
0030: 0A 80 1F 01 1F 00 0B 80  0C 80 0D 80 1F 01 1F 00  ................
0040: 0E 80 0F 80 10 80 1F 01  1F 00 11 80 12 80 13 80  ................
0050: 1F 01 1F 00 14 80 15 80  16 80 1F 01 1F 00 17 80  ................
0060: 18 80 19 80 1F 01 00                              .......         
```

#### Opcodes

```
  0: 0x001D [0x32] ExtData[1]->MainSpeed = 40* * 0.1
  1: 0x0020 [0x1F] MOVE_ENTITY: EventEntity moves to X=49.760*, Z=76.570*, Y=0.330*
  2: 0x0028 [0x1F] MOVE_ENTITY: Update entity position (mode=1)
  3: 0x002A [0x1F] MOVE_ENTITY: EventEntity moves to X=47.090*, Z=77.300*, Y=0.480*
  4: 0x0032 [0x1F] MOVE_ENTITY: Update entity position (mode=1)
  5: 0x0034 [0x1F] MOVE_ENTITY: EventEntity moves to X=43.530*, Z=76.610*, Y=0.120*
  6: 0x003C [0x1F] MOVE_ENTITY: Update entity position (mode=1)
  7: 0x003E [0x1F] MOVE_ENTITY: EventEntity moves to X=40.280*, Z=73.120*, Y=0.200*
  8: 0x0046 [0x1F] MOVE_ENTITY: Update entity position (mode=1)
  9: 0x0048 [0x1F] MOVE_ENTITY: EventEntity moves to X=35.670*, Z=64.140*, Y=0.970*
 10: 0x0050 [0x1F] MOVE_ENTITY: Update entity position (mode=1)
 11: 0x0052 [0x1F] MOVE_ENTITY: EventEntity moves to X=31.740*, Z=55.750*, Y=1.650*
 12: 0x005A [0x1F] MOVE_ENTITY: Update entity position (mode=1)
 13: 0x005C [0x1F] MOVE_ENTITY: EventEntity moves to X=16.460*, Z=43.100*, Y=1.200*
 14: 0x0064 [0x1F] MOVE_ENTITY: Update entity position (mode=1)
 15: 0x0066 [0x00] END_REQSTACK()
```

### Event 65535.3

#### Metadata

| Field        | Value    |
|--------------|----------|
| Entrypoint   | 0x0067   |
| Data Size    | 21 bytes |
| Instructions | 2        |

```
      00 01 02 03 04 05 06 07  08 09 0A 0B 0C 0D 0E 0F
      -- -- -- -- -- -- -- --  -- -- -- -- -- -- -- --
0060:                      B6  0B 1A 80 1B 80 1C 80 1D         .........
0070: 80 1C 80 1E 80 1F 80 1C  80 1C 80 00              ............    
```

#### Opcodes

```
  0: 0x0067 [0xB6] ENTITY_APPEARANCE_HANDLER(case=Full entity look, race=1*, hair=5*, head=0*, body=27*, hands=0*, legs=12*, feet=24*, main=0*, sub=0*)
  1: 0x007B [0x00] END_REQSTACK()
```

### Event 65535.4

#### Metadata

| Field        | Value    |
|--------------|----------|
| Entrypoint   | 0x007C   |
| Data Size    | 21 bytes |
| Instructions | 2        |

```
      00 01 02 03 04 05 06 07  08 09 0A 0B 0C 0D 0E 0F
      -- -- -- -- -- -- -- --  -- -- -- -- -- -- -- --
0070:                                      B6 0B 1A 80              ....
0080: 1B 80 1C 80 1D 80 1C 80  1E 80 1F 80 20 80 1C 80  ............ ...
0090: 00                                                .               
```

#### Opcodes

```
  0: 0x007C [0xB6] ENTITY_APPEARANCE_HANDLER(case=Full entity look, race=1*, hair=5*, head=0*, body=27*, hands=0*, legs=12*, feet=24*, main=185*, sub=0*)
  1: 0x0090 [0x00] END_REQSTACK()
```
