# Event 65535

## Metadata

| Field           | Value    |
|-----------------|----------|
| Event Index     | 15/27    |
| Offset          | 0x0101   |
| Data Size       | 48 bytes |
| Calculated Size | 48 bytes |
| Instructions    | 11       |

```
      00 01 02 03 04 05 06 07  08 09 0A 0B 0C 0D 0E 0F
      -- -- -- -- -- -- -- --  -- -- -- -- -- -- -- --
0100:    1F 00 29 80 2A 80 2B  80 1F 01 39 2C 80 1E 67   ..).*.+...9,..g
0110: 40 0F 01 27 03 67 40 0F  01 04 1C 2D 80 1F 00 2E  @..'.g@....-....
0120: 80 2F 80 15 80 1F 01 22  01 27 03 67 40 0F 01 05  ./.....".'.g@...
0130: 00                                                .               
```

## Opcodes

```
  0: 0x0101 [0x1F] MOVE_ENTITY: EventEntity moves to X=-67.994*, Z=59.542*, Y=-1.210*
  1: 0x0109 [0x1F] MOVE_ENTITY: Update entity position (mode=1)
  2: 0x010B [0x39] SET_ENTITY_DIRECTION(direction=20.5°*)
  3: 0x010E [0x1E] EventEntity looks at Door:House (ID: 17776743/0x010F4067) and starts talking
  4: 0x0113 [0x27] REQ_SET(priority=0x03, entity_id=Door:House (ID: 17776743/0x010F4067), tag_num=0x04)
  5: 0x011A [0x1C] WAIT(90* ticks)
  6: 0x011D [0x1F] MOVE_ENTITY: EventEntity moves to X=-61.263*, Z=63.194*, Y=0.000*
  7: 0x0125 [0x1F] MOVE_ENTITY: Update entity position (mode=1)
  8: 0x0127 [0x22] ENTITY_HIDE_FLAG(enabled=0x01)
  9: 0x0129 [0x27] REQ_SET(priority=0x03, entity_id=Door:House (ID: 17776743/0x010F4067), tag_num=0x05)
 10: 0x0130 [0x00] END_REQSTACK()
```
