# Event 112

## Metadata

| Field           | Value    |
|-----------------|----------|
| Event Index     | 6/7      |
| Offset          | 0x0041   |
| Data Size       | 57 bytes |
| Calculated Size | 57 bytes |
| Instructions    | 9        |

```
      00 01 02 03 04 05 06 07  08 09 0A 0B 0C 0D 0E 0F
      -- -- -- -- -- -- -- --  -- -- -- -- -- -- -- --
0040:    42 1E F0 FF FF 7F 5B  03 80 F8 FF FF 7F F8 FF   B.....[........
0050: FF 7F 70 61 73 30 1D 06  80 23 53 F8 FF FF 7F F8  ..pas0...#S.....
0060: FF FF 7F 70 61 73 30 45  07 80 F0 FF FF 7F F0 FF  ...pas0E........
0070: FF 7F 71 73 74 63 08 80  21 00                    ..qstc..!.      
```

## Opcodes

```
  0: 0x0041 [0x42] SET_CLI_EVENT_CANCEL_DATA()
  1: 0x0042 [0x1E] EventEntity looks at LocalPlayer and starts talking
  2: 0x0047 [0x5B] LOAD_EXT_SCHEDULER: Load scheduler "pas0" with entities [EventEntity, EventEntity], work=70*
  3: 0x0056 [0x1D] PRINT_EVENT_MESSAGE(message_id=10827*)
    → "Ah, did you find my husband? Good.\u0007I keep telling him to check his pockets before he leaves, but he never does.\u0007Anyway, here, take this. For your trouble.\u007F1\u0000\u0007"
  4: 0x0059 [0x23] WAIT_FOR_DIALOG_INTERACTION
  5: 0x005A [0x53] WAIT_SCHEDULER_TASK: Wait for scheduler "pas0" with entities [EventEntity, EventEntity]
  6: 0x0067 [0x45] LOAD_SCHEDULED_TASK: Load scheduler "qstc" with entities [LocalPlayer, LocalPlayer], work=[201*, 0*]
  7: 0x0078 [0x21] END_EVENT
  8: 0x0079 [0x00] END_REQSTACK()
```
