# Event 65535

## Metadata

| Field           | Value    |
|-----------------|----------|
| Event Index     | 29/42    |
| Offset          | 0x02DC   |
| Data Size       | 45 bytes |
| Calculated Size | 45 bytes |
| Instructions    | 13       |

```
      00 01 02 03 04 05 06 07  08 09 0A 0B 0C 0D 0E 0F
      -- -- -- -- -- -- -- --  -- -- -- -- -- -- -- --
02D0:                                      32 05 80 1F              2...
02E0: 00 2C 80 2D 80 08 80 1F  01 1C 13 80 39 2E 80 1C  .,.-........9...
02F0: 2F 80 1F 00 30 80 31 80  08 80 1F 01 1C 13 80 39  /...0.1........9
0300: 32 80 1C 2F 80 01 DC 02  00                       2../.....       
```

## Opcodes

```
  0: 0x02DC [0x32] ExtData[1]->MainSpeed = 13* * 0.1
  1: 0x02DF [0x1F] MOVE_ENTITY: EventEntity moves to X=-96.584*, Z=-8.519*, Y=0.000*
  2: 0x02E7 [0x1F] MOVE_ENTITY: Update entity position (mode=1)
  3: 0x02E9 [0x1C] WAIT(30* ticks)
  4: 0x02EC [0x39] SET_ENTITY_DIRECTION(direction=19.7°*)
  5: 0x02EF [0x1C] WAIT(360* ticks)
  6: 0x02F2 [0x1F] MOVE_ENTITY: EventEntity moves to X=-96.241*, Z=8.872*, Y=0.000*
  7: 0x02FA [0x1F] MOVE_ENTITY: Update entity position (mode=1)
  8: 0x02FC [0x1C] WAIT(30* ticks)
  9: 0x02FF [0x39] SET_ENTITY_DIRECTION(direction=2.8°*)
 10: 0x0302 [0x1C] WAIT(360* ticks)
 11: 0x0305 [0x01] GOTO 0x02DC
```

## Data or dead code:

```
# Dead code (unreachable instructions):
     0x0308 [0x00] END_REQSTACK()
```