# Event 142

## Metadata

| Field           | Value    |
|-----------------|----------|
| Event Index     | 13/39    |
| Offset          | 0x054A   |
| Data Size       | 56 bytes |
| Calculated Size | 56 bytes |
| Instructions    | 10       |

```
      00 01 02 03 04 05 06 07  08 09 0A 0B 0C 0D 0E 0F
      -- -- -- -- -- -- -- --  -- -- -- -- -- -- -- --
0540:                                1A BD 18 66 03 80            ...f..
0550: F8 FF FF 7F F8 FF FF 7F  74 68 6B 31 1D 3E 80 23  ........thk1.>.#
0560: 66 03 80 F8 FF FF 7F F8  FF FF 7F 74 68 6B 32 1D  f..........thk2.
0570: 3F 80 23 53 F8 FF FF 7F  F8 FF FF 7F 74 68 6B 32  ?.#S........thk2
0580: 21 00                                             !.              
```

## Opcodes

```
  0: 0x054A [0x1A] CALL_SUBROUTINE(address=0x18BD)
  1: 0x054D [0x66] LOAD_EXT_SCHEDULER_MAIN: Load scheduler "thk1" with entities [EventEntity, EventEntity], work=20*
  2: 0x055C [0x1D] PRINT_EVENT_MESSAGE(message_id=10648*)
    → "As I told you before, the materials you brought me will be used to forge a sacred katana to be used in an important ritual being held in a matter of days.\u007F1\u0000\u0007"
  3: 0x055F [0x23] WAIT_FOR_DIALOG_INTERACTION
  4: 0x0560 [0x66] LOAD_EXT_SCHEDULER_MAIN: Load scheduler "thk2" with entities [EventEntity, EventEntity], work=20*
  5: 0x056F [0x1D] PRINT_EVENT_MESSAGE(message_id=10649*)
    → "However, there is still much preparation to be done. Your assistance may be required again.\u007F1\u0000\u0007"
  6: 0x0572 [0x23] WAIT_FOR_DIALOG_INTERACTION
  7: 0x0573 [0x53] WAIT_SCHEDULER_TASK: Wait for scheduler "thk2" with entities [EventEntity, EventEntity]
  8: 0x0580 [0x21] END_EVENT
  9: 0x0581 [0x00] END_REQSTACK()
```
