# Event 155

## Metadata

| Field           | Value    |
|-----------------|----------|
| Event Index     | 20/39    |
| Offset          | 0x094F   |
| Data Size       | 21 bytes |
| Calculated Size | 21 bytes |
| Instructions    | 9        |

```
      00 01 02 03 04 05 06 07  08 09 0A 0B 0C 0D 0E 0F
      -- -- -- -- -- -- -- --  -- -- -- -- -- -- -- --
0940:                                               1A                 .
0950: BD 18 1A FB 18 03 02 10  65 80 1D 68 80 23 1D 67  ........e..h.#.g
0960: 80 23 21 00                                       .#!.            
```

## Opcodes

```
  0: 0x094F [0x1A] CALL_SUBROUTINE(address=0x18BD)
  1: 0x0952 [0x1A] CALL_SUBROUTINE(address=0x18FB)
  2: 0x0955 [0x03] Work_Zone[2] = 463*
  3: 0x095A [0x1D] PRINT_EVENT_MESSAGE(message_id=10688*)
    → "From the hour in which the sands are ruled by darkness until they once again are graced by light...\u007F1\u0000\u0007"
  4: 0x095D [0x23] WAIT_FOR_DIALOG_INTERACTION
  5: 0x095E [0x1D] PRINT_EVENT_MESSAGE(message_id=10687*)
    → "It is during this time beyond dusk that you must thrust \u0001\u00053\u0002\u0000\u0000\u0000 into the secluded beach that lies on the other side of the far western caves in the Valkurm Dunes. Only then will the spirits be set free.\u007F1\u0000\u0007"
  6: 0x0961 [0x23] WAIT_FOR_DIALOG_INTERACTION
  7: 0x0962 [0x21] END_EVENT
  8: 0x0963 [0x00] END_REQSTACK()
```
