# Event 157

## Metadata

| Field           | Value    |
|-----------------|----------|
| Event Index     | 22/39    |
| Offset          | 0x0A00   |
| Data Size       | 56 bytes |
| Calculated Size | 56 bytes |
| Instructions    | 10       |

```
      00 01 02 03 04 05 06 07  08 09 0A 0B 0C 0D 0E 0F
      -- -- -- -- -- -- -- --  -- -- -- -- -- -- -- --
0A00: 1A BD 18 66 03 80 F8 FF  FF 7F F8 FF FF 7F 74 68  ...f..........th
0A10: 6B 31 1D 6B 80 23 66 03  80 F8 FF FF 7F F8 FF FF  k1.k.#f.........
0A20: 7F 74 68 6B 32 1D 6C 80  23 53 F8 FF FF 7F F8 FF  .thk2.l.#S......
0A30: FF 7F 74 68 6B 32 21 00                           ..thk2!.        
```

## Opcodes

```
  0: 0x0A00 [0x1A] CALL_SUBROUTINE(address=0x18BD)
  1: 0x0A03 [0x66] LOAD_EXT_SCHEDULER_MAIN: Load scheduler "thk1" with entities [EventEntity, EventEntity], work=20*
  2: 0x0A12 [0x1D] PRINT_EVENT_MESSAGE(message_id=10691*)
    → "Norg has many ties with the lost nation of Tavnazia, and many people here still think of it as their homeland.\u0007The battle fought twenty years ago took the lives of many of our brothers, but the sacrifices that they made have not been in vain.\u007F1\u0000\u0007"
  3: 0x0A15 [0x23] WAIT_FOR_DIALOG_INTERACTION
  4: 0x0A16 [0x66] LOAD_EXT_SCHEDULER_MAIN: Load scheduler "thk2" with entities [EventEntity, EventEntity], work=20*
  5: 0x0A25 [0x1D] PRINT_EVENT_MESSAGE(message_id=10692*)
    → "That day, something in Gilgamesh changed. He transformed from a simple soldier to a great leader who would bring us together and create the Norg of today.\u007F1\u0000\u0007"
  6: 0x0A28 [0x23] WAIT_FOR_DIALOG_INTERACTION
  7: 0x0A29 [0x53] WAIT_SCHEDULER_TASK: Wait for scheduler "thk2" with entities [EventEntity, EventEntity]
  8: 0x0A36 [0x21] END_EVENT
  9: 0x0A37 [0x00] END_REQSTACK()
```
