# Event 167

## Metadata

| Field           | Value    |
|-----------------|----------|
| Event Index     | 26/39    |
| Offset          | 0x0DB3   |
| Data Size       | 57 bytes |
| Calculated Size | 57 bytes |
| Instructions    | 9        |

```
      00 01 02 03 04 05 06 07  08 09 0A 0B 0C 0D 0E 0F
      -- -- -- -- -- -- -- --  -- -- -- -- -- -- -- --
0DB0:          1A BD 18 03 02  10 80 80 66 03 80 F8 FF     ........f....
0DC0: FF 7F F8 FF FF 7F 74 68  6B 31 1D 81 80 23 66 03  ......thk1...#f.
0DD0: 80 F8 FF FF 7F F8 FF FF  7F 74 68 6B 32 53 F8 FF  .........thk2S..
0DE0: FF 7F F8 FF FF 7F 74 68  6B 32 21 00              ......thk2!.    
```

## Opcodes

```
  0: 0x0DB3 [0x1A] CALL_SUBROUTINE(address=0x18BD)
  1: 0x0DB6 [0x03] Work_Zone[2] = 1166*
  2: 0x0DBB [0x66] LOAD_EXT_SCHEDULER_MAIN: Load scheduler "thk1" with entities [EventEntity, EventEntity], work=20*
  3: 0x0DCA [0x1D] PRINT_EVENT_MESSAGE(message_id=10717*)
    → "Throw that \u0001\u0005#\u0002\u0000\u0000\u0000 into the magic portal. After that, you should then be able to enter. But beware of what lurks on the other side!\u007F1\u0000\u0007"
  4: 0x0DCD [0x23] WAIT_FOR_DIALOG_INTERACTION
  5: 0x0DCE [0x66] LOAD_EXT_SCHEDULER_MAIN: Load scheduler "thk2" with entities [EventEntity, EventEntity], work=20*
  6: 0x0DDD [0x53] WAIT_SCHEDULER_TASK: Wait for scheduler "thk2" with entities [EventEntity, EventEntity]
  7: 0x0DEA [0x21] END_EVENT
  8: 0x0DEB [0x00] END_REQSTACK()
```
