# Event 168

## Metadata

| Field           | Value    |
|-----------------|----------|
| Event Index     | 27/39    |
| Offset          | 0x0DEC   |
| Data Size       | 41 bytes |
| Calculated Size | 41 bytes |
| Instructions    | 9        |

```
      00 01 02 03 04 05 06 07  08 09 0A 0B 0C 0D 0E 0F
      -- -- -- -- -- -- -- --  -- -- -- -- -- -- -- --
0DE0:                                      42 1A BD 18              B...
0DF0: 1A FB 18 1D 82 80 23 66  03 80 F8 FF FF 7F F8 FF  ......#f........
0E00: FF 7F 70 61 73 30 53 F8  FF FF 7F F8 FF FF 7F 70  ..pas0S........p
0E10: 61 73 30 21 00                                    as0!.           
```

## Opcodes

```
  0: 0x0DEC [0x42] SET_CLI_EVENT_CANCEL_DATA()
  1: 0x0DED [0x1A] CALL_SUBROUTINE(address=0x18BD)
  2: 0x0DF0 [0x1A] CALL_SUBROUTINE(address=0x18FB)
  3: 0x0DF3 [0x1D] PRINT_EVENT_MESSAGE(message_id=10718*)
    → "You fool! How could you just dispose of such an important item? Without it, how are you supposed to break the cursed seal on the portal!?\u007F1\u0000\u0007"
  4: 0x0DF6 [0x23] WAIT_FOR_DIALOG_INTERACTION
  5: 0x0DF7 [0x66] LOAD_EXT_SCHEDULER_MAIN: Load scheduler "pas0" with entities [EventEntity, EventEntity], work=20*
  6: 0x0E06 [0x53] WAIT_SCHEDULER_TASK: Wait for scheduler "pas0" with entities [EventEntity, EventEntity]
  7: 0x0E13 [0x21] END_EVENT
  8: 0x0E14 [0x00] END_REQSTACK()
```
