# Event 181

## Metadata

| Field           | Value    |
|-----------------|----------|
| Event Index     | 37/39    |
| Offset          | 0x1381   |
| Data Size       | 60 bytes |
| Calculated Size | 60 bytes |
| Instructions    | 10       |

```
      00 01 02 03 04 05 06 07  08 09 0A 0B 0C 0D 0E 0F
      -- -- -- -- -- -- -- --  -- -- -- -- -- -- -- --
1380:    1A 9F 15 03 02 10 AE  80 1D AF 80 23 66 03 80   ...........#f..
1390: F8 FF FF 7F F8 FF FF 7F  70 61 73 30 53 F8 FF FF  ........pas0S...
13A0: 7F F8 FF FF 7F 70 61 73  30 1A DD 15 52 9B 80 F0  .....pas0...R...
13B0: FF FF 7F F0 FF FF 7F 77  73 30 31 21 00           .......ws01!.   
```

## Opcodes

```
  0: 0x1381 [0x1A] CALL_SUBROUTINE(address=0x159F)
  1: 0x1384 [0x03] Work_Zone[2] = 344*
  2: 0x1389 [0x1D] PRINT_EVENT_MESSAGE(message_id=10821*)
    → "Wonderful! You are now ready for the final portion of your journey. Travel to the place inscribed upon this \u0001\u00053\u0002\u0000\u0000\u0000--the Kuftal Tunnel. There you will meet your final test.\u007F1\u0000\u0007"
  3: 0x138C [0x23] WAIT_FOR_DIALOG_INTERACTION
  4: 0x138D [0x66] LOAD_EXT_SCHEDULER_MAIN(work_offset=20*, entity1=EventEntity, entity2=EventEntity, action="pas0")
  5: 0x139C [0x53] WAIT_SCHEDULER_TASK(entity1=EventEntity, entity2=EventEntity, action_id="pas0")
  6: 0x13A9 [0x1A] CALL_SUBROUTINE(address=0x15DD)
  7: 0x13AC [0x52] END_LOAD_SCHEDULER: End scheduler "ws01" with entities [LocalPlayer, LocalPlayer], work=215*
  8: 0x13BB [0x21] END_EVENT
  9: 0x13BC [0x00] END_REQSTACK()
```
