# Event 28

## Metadata

| Field           | Value    |
|-----------------|----------|
| Event Index     | 7/39     |
| Offset          | 0x0114   |
| Data Size       | 46 bytes |
| Calculated Size | 46 bytes |
| Instructions    | 10       |

```
      00 01 02 03 04 05 06 07  08 09 0A 0B 0C 0D 0E 0F
      -- -- -- -- -- -- -- --  -- -- -- -- -- -- -- --
0110:             1A BD 18 66  03 80 F8 FF FF 7F F8 FF      ...f........
0120: FF 7F 74 68 6B 31 1D 15  80 23 1D 16 80 23 66 03  ..thk1...#...#f.
0130: 80 F8 FF FF 7F F8 FF FF  7F 74 68 6B 32 1C 14 80  .........thk2...
0140: 21 00                                             !.              
```

## Opcodes

```
  0: 0x0114 [0x1A] CALL_SUBROUTINE(address=0x18BD)
  1: 0x0117 [0x66] LOAD_EXT_SCHEDULER_MAIN: Load scheduler "thk1" with entities [EventEntity, EventEntity], work=20*
  2: 0x0126 [0x1D] PRINT_EVENT_MESSAGE(message_id=10203*)
    → "My work is not yet complete. I still require 
\u0000 \u007F\u0012\u0000[more hour/more hours]. It is not wise to waste your time trying to outrun the clock in this game we call life.\u007F1\u0000\u0007"
  3: 0x0129 [0x23] WAIT_FOR_DIALOG_INTERACTION
  4: 0x012A [0x1D] PRINT_EVENT_MESSAGE(message_id=10204*)
    → "Time is like a flowing river--it cannot be sped up or slowed down. We must float along at the pace it has chosen.\u007F1\u0000\u0007"
  5: 0x012D [0x23] WAIT_FOR_DIALOG_INTERACTION
  6: 0x012E [0x66] LOAD_EXT_SCHEDULER_MAIN: Load scheduler "thk2" with entities [EventEntity, EventEntity], work=20*
  7: 0x013D [0x1C] WAIT(45* ticks)
  8: 0x0140 [0x21] END_EVENT
  9: 0x0141 [0x00] END_REQSTACK()
```
