# Event 30

## Metadata

| Field           | Value    |
|-----------------|----------|
| Event Index     | 9/39     |
| Offset          | 0x0370   |
| Data Size       | 46 bytes |
| Calculated Size | 46 bytes |
| Instructions    | 10       |

```
      00 01 02 03 04 05 06 07  08 09 0A 0B 0C 0D 0E 0F
      -- -- -- -- -- -- -- --  -- -- -- -- -- -- -- --
0370: 1A BD 18 66 03 80 F8 FF  FF 7F F8 FF FF 7F 74 68  ...f..........th
0380: 6B 31 1D 2B 80 23 1D 2C  80 23 66 03 80 F8 FF FF  k1.+.#.,.#f.....
0390: 7F F8 FF FF 7F 74 68 6B  32 1C 14 80 21 00        .....thk2...!.  
```

## Opcodes

```
  0: 0x0370 [0x1A] CALL_SUBROUTINE(address=0x18BD)
  1: 0x0373 [0x66] LOAD_EXT_SCHEDULER_MAIN: Load scheduler "thk1" with entities [EventEntity, EventEntity], work=20*
  2: 0x0382 [0x1D] PRINT_EVENT_MESSAGE(message_id=10219*)
    → "Crystal technology has helped Vana'diel prosper, but at the cost of traditional methods, now lost forever.\u007F1\u0000\u0007"
  3: 0x0385 [0x23] WAIT_FOR_DIALOG_INTERACTION
  4: 0x0386 [0x1D] PRINT_EVENT_MESSAGE(message_id=10220*)
    → "Just as the old is replaced by the new, the world is constantly changing. One day, one may no longer be able to live by a single blade alone.\u007F1\u0000\u0007"
  5: 0x0389 [0x23] WAIT_FOR_DIALOG_INTERACTION
  6: 0x038A [0x66] LOAD_EXT_SCHEDULER_MAIN: Load scheduler "thk2" with entities [EventEntity, EventEntity], work=20*
  7: 0x0399 [0x1C] WAIT(45* ticks)
  8: 0x039C [0x21] END_EVENT
  9: 0x039D [0x00] END_REQSTACK()
```
