# Event 65535

## Metadata

| Field           | Value    |
|-----------------|----------|
| Event Index     | 6/6      |
| Offset          | 0x001B   |
| Data Size       | 94 bytes |
| Calculated Size | 94 bytes |
| Instructions    | 10       |

```
      00 01 02 03 04 05 06 07  08 09 0A 0B 0C 0D 0E 0F
      -- -- -- -- -- -- -- --  -- -- -- -- -- -- -- --
0010:                                   1C 01 80 52 02             ...R.
0020: 80 F8 FF FF 7F F8 FF FF  7F 73 31 30 38 45 02 80  .........s108E..
0030: F8 FF FF 7F F8 FF FF 7F  73 31 32 35 03 80 1C 01  ........s125....
0040: 80 52 02 80 F8 FF FF 7F  F8 FF FF 7F 73 31 32 35  .R..........s125
0050: 45 02 80 F8 FF FF 7F F8  FF FF 7F 73 31 32 36 03  E..........s126.
0060: 80 1C 01 80 5D 03 80 01  80 52 02 80 F8 FF FF 7F  ....]....R......
0070: F8 FF FF 7F 73 31 32 36  00                       ....s126.       
```

## Opcodes

```
  0: 0x001B [0x1C] WAIT(120* ticks)
  1: 0x001E [0x52] END_LOAD_SCHEDULER: End scheduler "s108" with entities [EventEntity, EventEntity], work=529*
  2: 0x002D [0x45] LOAD_SCHEDULED_TASK: Load scheduler "s125" with entities [EventEntity, EventEntity], work=[529*, 0*]
  3: 0x003E [0x1C] WAIT(120* ticks)
  4: 0x0041 [0x52] END_LOAD_SCHEDULER: End scheduler "s125" with entities [EventEntity, EventEntity], work=529*
  5: 0x0050 [0x45] LOAD_SCHEDULED_TASK: Load scheduler "s126" with entities [EventEntity, EventEntity], work=[529*, 0*]
  6: 0x0061 [0x1C] WAIT(120* ticks)
  7: 0x0064 [0x5D] SET_MUSIC_VOLUME(volume=0*, fade_time=120*)
  8: 0x0069 [0x52] END_LOAD_SCHEDULER: End scheduler "s126" with entities [EventEntity, EventEntity], work=529*
  9: 0x0078 [0x00] END_REQSTACK()
```
