# Event 65535

## Metadata

| Field           | Value    |
|-----------------|----------|
| Event Index     | 8/17     |
| Offset          | 0x0099   |
| Data Size       | 73 bytes |
| Calculated Size | 73 bytes |
| Instructions    | 7        |

```
      00 01 02 03 04 05 06 07  08 09 0A 0B 0C 0D 0E 0F
      -- -- -- -- -- -- -- --  -- -- -- -- -- -- -- --
0090:                             29 03 2F 31 0B 01 0B           )./1...
00A0: 45 05 80 2F 31 0B 01 2F  31 0B 01 00 FE FE FE 06  E../1../1.......
00B0: 80 5B 04 80 F8 FF FF 7F  F8 FF FF 7F 64 6C 30 32  .[..........dl02
00C0: 1C 07 80 45 05 80 2F 31  0B 01 2F 31 0B 01 7A 73  ...E../1../1..zs
00D0: 65 33 06 80 53 F8 FF FF  7F F8 FF FF 7F 64 6C 30  e3..S........dl0
00E0: 32 00                                             2.              
```

## Opcodes

```
  0: 0x0099 [0x29] REQ_SET_WAIT(priority=0x03, entity_id=Qe'Iov Gate (ID: 17510703/0x010B312F), tag_num=0x0B)
  1: 0x00A0 [0x45] LOAD_SCHEDULED_TASK(work_offset1=79*, entity1=Qe'Iov Gate (ID: 17510703/0x010B312F), entity2=Qe'Iov Gate (ID: 17510703/0x010B312F), scheduler_id=0xFEFEFE00, work_offset2=0*)
  2: 0x00B1 [0x5B] LOAD_EXT_SCHEDULER(work_offset=521*, entity1=EventEntity, entity2=EventEntity, action="dl02")
  3: 0x00C0 [0x1C] WAIT(60* ticks)
  4: 0x00C3 [0x45] LOAD_SCHEDULED_TASK(work_offset1=79*, entity1=Qe'Iov Gate (ID: 17510703/0x010B312F), entity2=Qe'Iov Gate (ID: 17510703/0x010B312F), scheduler_id="zse3", work_offset2=0*)
  5: 0x00D4 [0x53] WAIT_SCHEDULER_TASK(entity1=EventEntity, entity2=EventEntity, action_id="dl02")
  6: 0x00E1 [0x00] END_REQSTACK()
```
