# Event 65535

## Metadata

| Field           | Value    |
|-----------------|----------|
| Event Index     | 13/16    |
| Offset          | 0x0177   |
| Data Size       | 61 bytes |
| Calculated Size | 61 bytes |
| Instructions    | 13       |

```
      00 01 02 03 04 05 06 07  08 09 0A 0B 0C 0D 0E 0F
      -- -- -- -- -- -- -- --  -- -- -- -- -- -- -- --
0170:                      32  16 80 1F 00 21 80 22 80         2....!.".
0180: 19 80 1F 01 4B 29 21 03  01 1A 80 1C 1B 80 1F 00  ....K)!.........
0190: 23 80 24 80 19 80 1F 01  4B 29 21 03 01 1F 80 1C  #.$.....K)!.....
01A0: 1B 80 1F 00 25 80 26 80  19 80 1F 01 4B 29 21 03  ....%.&.....K)!.
01B0: 01 1A 80 00                                       ....            
```

## Opcodes

```
  0: 0x0177 [0x32] ExtData[1]->MainSpeed = 40* * 0.1
  1: 0x017A [0x1F] MOVE_ENTITY: EventEntity moves to X=-90.173*, Z=-4.000*, Y=0.000*
  2: 0x0182 [0x1F] MOVE_ENTITY: Update entity position (mode=1)
  3: 0x0184 [0x4B] UPDATE_ENTITY_YAW(entity=Mushayra (ID: 16982313/0x01032129), yaw=17.85°*)
  4: 0x018B [0x1C] WAIT(90* ticks)
  5: 0x018E [0x1F] MOVE_ENTITY: EventEntity moves to X=-92.318*, Z=-6.176*, Y=0.000*
  6: 0x0196 [0x1F] MOVE_ENTITY: Update entity position (mode=1)
  7: 0x0198 [0x4B] UPDATE_ENTITY_YAW(entity=Mushayra (ID: 16982313/0x01032129), yaw=12.50°*)
  8: 0x019F [0x1C] WAIT(90* ticks)
  9: 0x01A2 [0x1F] MOVE_ENTITY: EventEntity moves to X=-91.287*, Z=-10.052*, Y=0.000*
 10: 0x01AA [0x1F] MOVE_ENTITY: Update entity position (mode=1)
 11: 0x01AC [0x4B] UPDATE_ENTITY_YAW(entity=Mushayra (ID: 16982313/0x01032129), yaw=17.85°*)
 12: 0x01B3 [0x00] END_REQSTACK()
```
