# Event 865

## Metadata

| Field           | Value    |
|-----------------|----------|
| Event Index     | 9/16     |
| Offset          | 0x00A8   |
| Data Size       | 38 bytes |
| Calculated Size | 38 bytes |
| Instructions    | 12       |

```
      00 01 02 03 04 05 06 07  08 09 0A 0B 0C 0D 0E 0F
      -- -- -- -- -- -- -- --  -- -- -- -- -- -- -- --
00A0:                          42 1E F0 FF FF 7F 1C 00          B.......
00B0: 80 1D 12 80 23 5B 01 80  F8 FF FF 7F F8 FF FF 7F  ....#[..........
00C0: 74 6C 6B 30 1D 13 80 23  1D 14 80 23 21 00        tlk0...#...#!.  
```

## Opcodes

```
  0: 0x00A8 [0x42] SET_CLI_EVENT_CANCEL_DATA()
  1: 0x00A9 [0x1E] EventEntity looks at LocalPlayer and starts talking
  2: 0x00AE [0x1C] WAIT(30* ticks)
  3: 0x00B1 [0x1D] PRINT_EVENT_MESSAGE(message_id=7302*)
    → "Did you happen to see a Qiqirn anywhere near Balrahn Way?\u007F1\u0000\u0007"
  4: 0x00B4 [0x23] WAIT_FOR_DIALOG_INTERACTION
  5: 0x00B5 [0x5B] LOAD_EXT_SCHEDULER(work_offset=70*, entity1=EventEntity, entity2=EventEntity, action="tlk0")
  6: 0x00C4 [0x1D] PRINT_EVENT_MESSAGE(message_id=7303*)
    → "The past few weeks, one of those conniving rats has been coming around here playing tricks on me and my son.\u007F1\u0000\u0007"
  7: 0x00C7 [0x23] WAIT_FOR_DIALOG_INTERACTION
  8: 0x00C8 [0x1D] PRINT_EVENT_MESSAGE(message_id=7304*)
    → "It's hard enough for a single mother to put up with the antics of this little scamp without having to worry about any other vermin!\u007F1\u0000\u0007"
  9: 0x00CB [0x23] WAIT_FOR_DIALOG_INTERACTION
 10: 0x00CC [0x21] END_EVENT
 11: 0x00CD [0x00] END_REQSTACK()
```
