# Event 876

## Metadata

| Field           | Value    |
|-----------------|----------|
| Event Index     | 16/16    |
| Offset          | 0x0221   |
| Data Size       | 49 bytes |
| Calculated Size | 49 bytes |
| Instructions    | 11       |

```
      00 01 02 03 04 05 06 07  08 09 0A 0B 0C 0D 0E 0F
      -- -- -- -- -- -- -- --  -- -- -- -- -- -- -- --
0220:    42 1E F0 FF FF 7F 1C  00 80 5B 01 80 F8 FF FF   B........[.....
0230: 7F F8 FF FF 7F 74 6C 6B  30 1D 29 80 23 5B 01 80  .....tlk0.).#[..
0240: F8 FF FF 7F F8 FF FF 7F  74 6C 6B 31 1D 2A 80 23  ........tlk1.*.#
0250: 21 00                                             !.              
```

## Opcodes

```
  0: 0x0221 [0x42] SET_CLI_EVENT_CANCEL_DATA()
  1: 0x0222 [0x1E] EventEntity looks at LocalPlayer and starts talking
  2: 0x0227 [0x1C] WAIT(30* ticks)
  3: 0x022A [0x5B] LOAD_EXT_SCHEDULER: Load scheduler "tlk0" with entities [EventEntity, EventEntity], work=70*
  4: 0x0239 [0x1D] PRINT_EVENT_MESSAGE(message_id=7349*)
    → "Oh, remember that conniving Qiqirn I told you about the other day? Well, we finally caught him!\u007F1\u0000\u0007"
  5: 0x023C [0x23] WAIT_FOR_DIALOG_INTERACTION
  6: 0x023D [0x5B] LOAD_EXT_SCHEDULER: Load scheduler "tlk1" with entities [EventEntity, EventEntity], work=70*
  7: 0x024C [0x1D] PRINT_EVENT_MESSAGE(message_id=7350*)
    → "And does that take a load off my shoulders! Now if I could just figure out what to do with this bundle of trouble...\u007F1\u0000\u0007"
  8: 0x024F [0x23] WAIT_FOR_DIALOG_INTERACTION
  9: 0x0250 [0x21] END_EVENT
 10: 0x0251 [0x00] END_REQSTACK()
```
