# Event 65535

## Metadata

| Field           | Value    |
|-----------------|----------|
| Event Index     | 25/37    |
| Offset          | 0x0159   |
| Data Size       | 67 bytes |
| Calculated Size | 67 bytes |
| Instructions    | 13       |

```
      00 01 02 03 04 05 06 07  08 09 0A 0B 0C 0D 0E 0F
      -- -- -- -- -- -- -- --  -- -- -- -- -- -- -- --
0150:                             6E B8 32 03 01 20 80           n.2.. .
0160: 99 B8 32 03 01 1C 2A 80  5B 2D 80 B9 32 03 01 B9  ..2...*.[-..2...
0170: 32 03 01 69 72 6F 30 1C  2E 80 1C 2A 80 1C 2B 80  2..iro0....*..+.
0180: 6E BA 32 03 01 2F 80 99  BA 32 03 01 1C 2C 80 6E  n.2../...2...,.n
0190: BB 32 03 01 20 80 99 BB  32 03 01 00              .2.. ...2...    
```

## Opcodes

```
  0: 0x0159 [0x6E] FAN3 (ID: 16986808/0x010332B8) uses emote 11*
  1: 0x0160 [0x99] Wait for FAN3 (ID: 16986808/0x010332B8) animation to complete
  2: 0x0165 [0x1C] WAIT(3* ticks)
  3: 0x0168 [0x5B] LOAD_EXT_SCHEDULER: Load scheduler "iro0" with entities [FAN4 (ID: 16986809/0x010332B9), FAN4 (ID: 16986809/0x010332B9)], work=1328*
  4: 0x0177 [0x1C] WAIT(4* ticks)
  5: 0x017A [0x1C] WAIT(3* ticks)
  6: 0x017D [0x1C] WAIT(2* ticks)
  7: 0x0180 [0x6E] FAN7 (ID: 16986810/0x010332BA) uses emote 8*
  8: 0x0187 [0x99] Wait for FAN7 (ID: 16986810/0x010332BA) animation to complete
  9: 0x018C [0x1C] WAIT(5* ticks)
 10: 0x018F [0x6E] FAN8 (ID: 16986811/0x010332BB) uses emote 11*
 11: 0x0196 [0x99] Wait for FAN8 (ID: 16986811/0x010332BB) animation to complete
 12: 0x019B [0x00] END_REQSTACK()
```
