# 17089354 - Runic Lamp

## Common Data

| Field            | Value                        |
|------------------|------------------------------|
| Zone             | Silver Sea Remnants (ID: 76) |
| Block Size       | 3648 bytes                   |
| Total Events     | 2                            |
| References Count | 29                           |

## List of Events

| Event ID          | Entrypoint   |   Size |   Instructions |
|-------------------|--------------|--------|----------------|
| [500](#event-500) | 0x0000       |   3507 |            691 |

## DAT References (imed_data)

|   Index | Hex Value   |   Dec Value |
|---------|-------------|-------------|
|       0 | 0x0000      |           0 |
|       1 | 0x0002      |           2 |
|       2 | 0x0003      |           3 |
|       3 | 0x0005      |           5 |
|       4 | 0x0006      |           6 |
|       5 | 0x0008      |           8 |
|       6 | 0x0009      |           9 |
|       7 | 0x000B      |          11 |
|       8 | 0x000C      |          12 |
|       9 | 0x000E      |          14 |
|      10 | 0x000F      |          15 |
|      11 | 0x0011      |          17 |
|      12 | 0x0012      |          18 |
|      13 | 0x0014      |          20 |
|      14 | 0x0015      |          21 |
|      15 | 0x0017      |          23 |
|      16 | 0x0018      |          24 |
|      17 | 0x001A      |          26 |
|      18 | 0x001B      |          27 |
|      19 | 0x001D      |          29 |
|      20 | 0x1D09      |        7433 |
|      21 | 0x0001      |           1 |
|      22 | 0x1D0A      |        7434 |
|      23 | 0x0004      |           4 |
|      24 | 0x0007      |           7 |
|      25 | 0x000A      |          10 |
|      26 | 0x000D      |          13 |
|      27 | 0x0010      |          16 |
|      28 | 0x0013      |          19 |

## String References

- **7433**: Which restriction will you remove? [None./@/Main/Sub-Weapon. ($3 left)/Head/Neck equipment. ($4 left)/Body equipment. ($5 left)/Hand equipment. ($6 left)/Leg/Foot equipment. ($7 left)/Back/Waist equipment. ($8 left)/Ranged Weapon/Ammo. ($9 left)/Earrings/Rings. ($10 left)/Support Job. ($11 left)/Job Abilities. ($12 left)/Spellcasting. ($13 left)/Strength. ($14 left)/Dexterity. ($15 left)/Vitality. ($16 left)/Agility. ($17 left)/Intelligence. ($18 left)/Mind. ($19 left)/Charisma. ($20 left)/Max HP. ($21 left)/Max MP. ($22 left)]
- **7434**: Remove the [0/0/weapon/head & neck/body/hand/leg & foot/back & waist/ranged wpn. & ammo/earrings & rings/support job/job abilities/spellcasting/strength/dexterity/vitality/agility/intelligence/mind/charisma/max HP/max MP] restriction? [Yes./No.]

## Events

### Event 500

#### Metadata

| Field        | Value      |
|--------------|------------|
| Entrypoint   | 0x0000     |
| Data Size    | 3507 bytes |
| Instructions | 611        |

```
      00 01 02 03 04 05 06 07  08 09 0A 0B 0C 0D 0E 0F
      -- -- -- -- -- -- -- --  -- -- -- -- -- -- -- --
0000: 03 00 00 00 80 41 00 80  01 80 03 10 05 10 41 02  .....A........A.
0010: 80 03 80 03 10 06 10 41  04 80 05 80 03 10 07 10  .......A........
0020: 41 06 80 07 80 03 10 08  10 41 08 80 09 80 03 10  A........A......
0030: 09 10 41 0A 80 0B 80 03  10 00 17 41 0C 80 0D 80  ..A........A....
0040: 03 10 01 17 41 0E 80 0F  80 03 10 02 17 41 10 80  ....A........A..
0050: 11 80 03 10 03 17 41 12  80 13 80 03 10 04 17 41  ......A........A
0060: 00 80 01 80 04 10 05 17  41 02 80 03 80 04 10 06  ........A.......
0070: 17 41 04 80 05 80 04 10  07 17 41 06 80 07 80 04  .A........A.....
0080: 10 08 17 41 08 80 09 80  04 10 09 17 41 0A 80 0B  ...A........A...
0090: 80 04 10 0A 17 41 0C 80  0D 80 04 10 0B 17 41 0E  .....A........A.
00A0: 80 0F 80 04 10 0C 17 41  10 80 11 80 04 10 0D 17  .......A........
00B0: 41 12 80 13 80 04 10 0E  17 24 14 80 00 80 02 10  A........$......
00C0: 25 02 00 10 00 80 00 D1  00 03 01 10 00 80 01 B1  %...............
00D0: 0D 02 00 10 15 80 00 E1  00 03 01 10 00 80 01 B1  ................
00E0: 0D 02 00 10 01 80 00 85  01 03 0F 17 01 80 24 16  ..............$.
00F0: 80 15 80 00 80 25 02 00  10 00 80 00 3C 01 03 01  .....%......<...
0100: 10 01 80 43 00 43 01 03  00 00 00 80 02 03 10 15  ...C.C..........
0110: 80 04 19 01 03 00 00 15  80 02 04 10 15 80 04 26  ...............&
0120: 01 03 00 00 15 80 02 00  00 15 80 00 34 01 01 00  ............4...
0130: 00 01 39 01 03 01 10 00  80 01 82 01 02 00 10 15  ..9.............
0140: 80 00 82 01 03 01 10 15  80 43 00 43 01 03 00 00  .........C.C....
0150: 00 80 02 03 10 15 80 04  5F 01 03 00 00 15 80 02  ........_.......
0160: 04 10 15 80 04 6C 01 03  00 00 15 80 02 00 00 15  .....l..........
0170: 80 00 7A 01 01 00 00 01  7F 01 03 01 10 00 80 01  ..z.............
0180: 82 01 01 B1 0D 02 00 10  02 80 00 29 02 03 0F 17  ...........)....
0190: 02 80 24 16 80 15 80 00  80 25 02 00 10 00 80 00  ..$......%......
01A0: E0 01 03 01 10 02 80 43  00 43 01 03 00 00 00 80  .......C.C......
01B0: 02 03 10 15 80 04 BD 01  03 00 00 15 80 02 04 10  ................
01C0: 15 80 04 CA 01 03 00 00  15 80 02 00 00 15 80 00  ................
01D0: D8 01 01 00 00 01 DD 01  03 01 10 00 80 01 26 02  ..............&.
01E0: 02 00 10 15 80 00 26 02  03 01 10 15 80 43 00 43  ......&......C.C
01F0: 01 03 00 00 00 80 02 03  10 15 80 04 03 02 03 00  ................
0200: 00 15 80 02 04 10 15 80  04 10 02 03 00 00 15 80  ................
0210: 02 00 00 15 80 00 1E 02  01 00 00 01 23 02 03 01  ............#...
0220: 10 00 80 01 26 02 01 B1  0D 02 00 10 17 80 00 CD  ....&...........
0230: 02 03 0F 17 17 80 24 16  80 15 80 00 80 25 02 00  ......$......%..
0240: 10 00 80 00 84 02 03 01  10 17 80 43 00 43 01 03  ...........C.C..
0250: 00 00 00 80 02 03 10 15  80 04 61 02 03 00 00 15  ..........a.....
0260: 80 02 04 10 15 80 04 6E  02 03 00 00 15 80 02 00  .......n........
0270: 00 15 80 00 7C 02 01 00  00 01 81 02 03 01 10 00  ....|...........
0280: 80 01 CA 02 02 00 10 15  80 00 CA 02 03 01 10 15  ................
0290: 80 43 00 43 01 03 00 00  00 80 02 03 10 15 80 04  .C.C............
02A0: A7 02 03 00 00 15 80 02  04 10 15 80 04 B4 02 03  ................
02B0: 00 00 15 80 02 00 00 15  80 00 C2 02 01 00 00 01  ................
02C0: C7 02 03 01 10 00 80 01  CA 02 01 B1 0D 02 00 10  ................
02D0: 03 80 00 71 03 03 0F 17  03 80 24 16 80 15 80 00  ...q......$.....
02E0: 80 25 02 00 10 00 80 00  28 03 03 01 10 03 80 43  .%......(......C
02F0: 00 43 01 03 00 00 00 80  02 03 10 15 80 04 05 03  .C..............
0300: 03 00 00 15 80 02 04 10  15 80 04 12 03 03 00 00  ................
0310: 15 80 02 00 00 15 80 00  20 03 01 00 00 01 25 03  ........ .....%.
0320: 03 01 10 00 80 01 6E 03  02 00 10 15 80 00 6E 03  ......n.......n.
0330: 03 01 10 15 80 43 00 43  01 03 00 00 00 80 02 03  .....C.C........
0340: 10 15 80 04 4B 03 03 00  00 15 80 02 04 10 15 80  ....K...........
0350: 04 58 03 03 00 00 15 80  02 00 00 15 80 00 66 03  .X............f.
0360: 01 00 00 01 6B 03 03 01  10 00 80 01 6E 03 01 B1  ....k.......n...
0370: 0D 02 00 10 04 80 00 15  04 03 0F 17 04 80 24 16  ..............$.
0380: 80 15 80 00 80 25 02 00  10 00 80 00 CC 03 03 01  .....%..........
0390: 10 04 80 43 00 43 01 03  00 00 00 80 02 03 10 15  ...C.C..........
03A0: 80 04 A9 03 03 00 00 15  80 02 04 10 15 80 04 B6  ................
03B0: 03 03 00 00 15 80 02 00  00 15 80 00 C4 03 01 00  ................
03C0: 00 01 C9 03 03 01 10 00  80 01 12 04 02 00 10 15  ................
03D0: 80 00 12 04 03 01 10 15  80 43 00 43 01 03 00 00  .........C.C....
03E0: 00 80 02 03 10 15 80 04  EF 03 03 00 00 15 80 02  ................
03F0: 04 10 15 80 04 FC 03 03  00 00 15 80 02 00 00 15  ................
0400: 80 00 0A 04 01 00 00 01  0F 04 03 01 10 00 80 01  ................
0410: 12 04 01 B1 0D 02 00 10  18 80 00 B9 04 03 0F 17  ................
0420: 18 80 24 16 80 15 80 00  80 25 02 00 10 00 80 00  ..$......%......
0430: 70 04 03 01 10 18 80 43  00 43 01 03 00 00 00 80  p......C.C......
0440: 02 03 10 15 80 04 4D 04  03 00 00 15 80 02 04 10  ......M.........
0450: 15 80 04 5A 04 03 00 00  15 80 02 00 00 15 80 00  ...Z............
0460: 68 04 01 00 00 01 6D 04  03 01 10 00 80 01 B6 04  h.....m.........
0470: 02 00 10 15 80 00 B6 04  03 01 10 15 80 43 00 43  .............C.C
0480: 01 03 00 00 00 80 02 03  10 15 80 04 93 04 03 00  ................
0490: 00 15 80 02 04 10 15 80  04 A0 04 03 00 00 15 80  ................
04A0: 02 00 00 15 80 00 AE 04  01 00 00 01 B3 04 03 01  ................
04B0: 10 00 80 01 B6 04 01 B1  0D 02 00 10 05 80 00 5D  ...............]
04C0: 05 03 0F 17 05 80 24 16  80 15 80 00 80 25 02 00  ......$......%..
04D0: 10 00 80 00 14 05 03 01  10 05 80 43 00 43 01 03  ...........C.C..
04E0: 00 00 00 80 02 03 10 15  80 04 F1 04 03 00 00 15  ................
04F0: 80 02 04 10 15 80 04 FE  04 03 00 00 15 80 02 00  ................
0500: 00 15 80 00 0C 05 01 00  00 01 11 05 03 01 10 00  ................
0510: 80 01 5A 05 02 00 10 15  80 00 5A 05 03 01 10 15  ..Z.......Z.....
0520: 80 43 00 43 01 03 00 00  00 80 02 03 10 15 80 04  .C.C............
0530: 37 05 03 00 00 15 80 02  04 10 15 80 04 44 05 03  7............D..
0540: 00 00 15 80 02 00 00 15  80 00 52 05 01 00 00 01  ..........R.....
0550: 57 05 03 01 10 00 80 01  5A 05 01 B1 0D 02 00 10  W.......Z.......
0560: 06 80 00 01 06 03 0F 17  06 80 24 16 80 15 80 00  ..........$.....
0570: 80 25 02 00 10 00 80 00  B8 05 03 01 10 06 80 43  .%.............C
0580: 00 43 01 03 00 00 00 80  02 03 10 15 80 04 95 05  .C..............
0590: 03 00 00 15 80 02 04 10  15 80 04 A2 05 03 00 00  ................
05A0: 15 80 02 00 00 15 80 00  B0 05 01 00 00 01 B5 05  ................
05B0: 03 01 10 00 80 01 FE 05  02 00 10 15 80 00 FE 05  ................
05C0: 03 01 10 15 80 43 00 43  01 03 00 00 00 80 02 03  .....C.C........
05D0: 10 15 80 04 DB 05 03 00  00 15 80 02 04 10 15 80  ................
05E0: 04 E8 05 03 00 00 15 80  02 00 00 15 80 00 F6 05  ................
05F0: 01 00 00 01 FB 05 03 01  10 00 80 01 FE 05 01 B1  ................
0600: 0D 02 00 10 19 80 00 A5  06 03 0F 17 19 80 24 16  ..............$.
0610: 80 15 80 00 80 25 02 00  10 00 80 00 5C 06 03 01  .....%......\...
0620: 10 19 80 43 00 43 01 03  00 00 00 80 02 03 10 15  ...C.C..........
0630: 80 04 39 06 03 00 00 15  80 02 04 10 15 80 04 46  ..9............F
0640: 06 03 00 00 15 80 02 00  00 15 80 00 54 06 01 00  ............T...
0650: 00 01 59 06 03 01 10 00  80 01 A2 06 02 00 10 15  ..Y.............
0660: 80 00 A2 06 03 01 10 15  80 43 00 43 01 03 00 00  .........C.C....
0670: 00 80 02 03 10 15 80 04  7F 06 03 00 00 15 80 02  ................
0680: 04 10 15 80 04 8C 06 03  00 00 15 80 02 00 00 15  ................
0690: 80 00 9A 06 01 00 00 01  9F 06 03 01 10 00 80 01  ................
06A0: A2 06 01 B1 0D 02 00 10  07 80 00 49 07 03 0F 17  ...........I....
06B0: 07 80 24 16 80 15 80 00  80 25 02 00 10 00 80 00  ..$......%......
06C0: 00 07 03 01 10 07 80 43  00 43 01 03 00 00 00 80  .......C.C......
06D0: 02 03 10 15 80 04 DD 06  03 00 00 15 80 02 04 10  ................
06E0: 15 80 04 EA 06 03 00 00  15 80 02 00 00 15 80 00  ................
06F0: F8 06 01 00 00 01 FD 06  03 01 10 00 80 01 46 07  ..............F.
0700: 02 00 10 15 80 00 46 07  03 01 10 15 80 43 00 43  ......F......C.C
0710: 01 03 00 00 00 80 02 03  10 15 80 04 23 07 03 00  ............#...
0720: 00 15 80 02 04 10 15 80  04 30 07 03 00 00 15 80  .........0......
0730: 02 00 00 15 80 00 3E 07  01 00 00 01 43 07 03 01  ......>.....C...
0740: 10 00 80 01 46 07 01 B1  0D 02 00 10 08 80 00 ED  ....F...........
0750: 07 03 0F 17 08 80 24 16  80 15 80 00 80 25 02 00  ......$......%..
0760: 10 00 80 00 A4 07 03 01  10 08 80 43 00 43 01 03  ...........C.C..
0770: 00 00 00 80 02 03 10 15  80 04 81 07 03 00 00 15  ................
0780: 80 02 04 10 15 80 04 8E  07 03 00 00 15 80 02 00  ................
0790: 00 15 80 00 9C 07 01 00  00 01 A1 07 03 01 10 00  ................
07A0: 80 01 EA 07 02 00 10 15  80 00 EA 07 03 01 10 15  ................
07B0: 80 43 00 43 01 03 00 00  00 80 02 03 10 15 80 04  .C.C............
07C0: C7 07 03 00 00 15 80 02  04 10 15 80 04 D4 07 03  ................
07D0: 00 00 15 80 02 00 00 15  80 00 E2 07 01 00 00 01  ................
07E0: E7 07 03 01 10 00 80 01  EA 07 01 B1 0D 02 00 10  ................
07F0: 1A 80 00 91 08 03 0F 17  1A 80 24 16 80 15 80 00  ..........$.....
0800: 80 25 02 00 10 00 80 00  48 08 03 01 10 1A 80 43  .%......H......C
0810: 00 43 01 03 00 00 00 80  02 03 10 15 80 04 25 08  .C............%.
0820: 03 00 00 15 80 02 04 10  15 80 04 32 08 03 00 00  ...........2....
0830: 15 80 02 00 00 15 80 00  40 08 01 00 00 01 45 08  ........@.....E.
0840: 03 01 10 00 80 01 8E 08  02 00 10 15 80 00 8E 08  ................
0850: 03 01 10 15 80 43 00 43  01 03 00 00 00 80 02 03  .....C.C........
0860: 10 15 80 04 6B 08 03 00  00 15 80 02 04 10 15 80  ....k...........
0870: 04 78 08 03 00 00 15 80  02 00 00 15 80 00 86 08  .x..............
0880: 01 00 00 01 8B 08 03 01  10 00 80 01 8E 08 01 B1  ................
0890: 0D 02 00 10 09 80 00 35  09 03 0F 17 09 80 24 16  .......5......$.
08A0: 80 15 80 00 80 25 02 00  10 00 80 00 EC 08 03 01  .....%..........
08B0: 10 09 80 43 00 43 01 03  00 00 00 80 02 03 10 15  ...C.C..........
08C0: 80 04 C9 08 03 00 00 15  80 02 04 10 15 80 04 D6  ................
08D0: 08 03 00 00 15 80 02 00  00 15 80 00 E4 08 01 00  ................
08E0: 00 01 E9 08 03 01 10 00  80 01 32 09 02 00 10 15  ..........2.....
08F0: 80 00 32 09 03 01 10 15  80 43 00 43 01 03 00 00  ..2......C.C....
0900: 00 80 02 03 10 15 80 04  0F 09 03 00 00 15 80 02  ................
0910: 04 10 15 80 04 1C 09 03  00 00 15 80 02 00 00 15  ................
0920: 80 00 2A 09 01 00 00 01  2F 09 03 01 10 00 80 01  ..*...../.......
0930: 32 09 01 B1 0D 02 00 10  0A 80 00 D9 09 03 0F 17  2...............
0940: 0A 80 24 16 80 15 80 00  80 25 02 00 10 00 80 00  ..$......%......
0950: 90 09 03 01 10 0A 80 43  00 43 01 03 00 00 00 80  .......C.C......
0960: 02 03 10 15 80 04 6D 09  03 00 00 15 80 02 04 10  ......m.........
0970: 15 80 04 7A 09 03 00 00  15 80 02 00 00 15 80 00  ...z............
0980: 88 09 01 00 00 01 8D 09  03 01 10 00 80 01 D6 09  ................
0990: 02 00 10 15 80 00 D6 09  03 01 10 15 80 43 00 43  .............C.C
09A0: 01 03 00 00 00 80 02 03  10 15 80 04 B3 09 03 00  ................
09B0: 00 15 80 02 04 10 15 80  04 C0 09 03 00 00 15 80  ................
09C0: 02 00 00 15 80 00 CE 09  01 00 00 01 D3 09 03 01  ................
09D0: 10 00 80 01 D6 09 01 B1  0D 02 00 10 1B 80 00 7D  ...............}
09E0: 0A 03 0F 17 1B 80 24 16  80 15 80 00 80 25 02 00  ......$......%..
09F0: 10 00 80 00 34 0A 03 01  10 1B 80 43 00 43 01 03  ....4......C.C..
0A00: 00 00 00 80 02 03 10 15  80 04 11 0A 03 00 00 15  ................
0A10: 80 02 04 10 15 80 04 1E  0A 03 00 00 15 80 02 00  ................
0A20: 00 15 80 00 2C 0A 01 00  00 01 31 0A 03 01 10 00  ....,.....1.....
0A30: 80 01 7A 0A 02 00 10 15  80 00 7A 0A 03 01 10 15  ..z.......z.....
0A40: 80 43 00 43 01 03 00 00  00 80 02 03 10 15 80 04  .C.C............
0A50: 57 0A 03 00 00 15 80 02  04 10 15 80 04 64 0A 03  W............d..
0A60: 00 00 15 80 02 00 00 15  80 00 72 0A 01 00 00 01  ..........r.....
0A70: 77 0A 03 01 10 00 80 01  7A 0A 01 B1 0D 02 00 10  w.......z.......
0A80: 0B 80 00 21 0B 03 0F 17  0B 80 24 16 80 15 80 00  ...!......$.....
0A90: 80 25 02 00 10 00 80 00  D8 0A 03 01 10 0B 80 43  .%.............C
0AA0: 00 43 01 03 00 00 00 80  02 03 10 15 80 04 B5 0A  .C..............
0AB0: 03 00 00 15 80 02 04 10  15 80 04 C2 0A 03 00 00  ................
0AC0: 15 80 02 00 00 15 80 00  D0 0A 01 00 00 01 D5 0A  ................
0AD0: 03 01 10 00 80 01 1E 0B  02 00 10 15 80 00 1E 0B  ................
0AE0: 03 01 10 15 80 43 00 43  01 03 00 00 00 80 02 03  .....C.C........
0AF0: 10 15 80 04 FB 0A 03 00  00 15 80 02 04 10 15 80  ................
0B00: 04 08 0B 03 00 00 15 80  02 00 00 15 80 00 16 0B  ................
0B10: 01 00 00 01 1B 0B 03 01  10 00 80 01 1E 0B 01 B1  ................
0B20: 0D 02 00 10 0C 80 00 C5  0B 03 0F 17 0C 80 24 16  ..............$.
0B30: 80 15 80 00 80 25 02 00  10 00 80 00 7C 0B 03 01  .....%......|...
0B40: 10 0C 80 43 00 43 01 03  00 00 00 80 02 03 10 15  ...C.C..........
0B50: 80 04 59 0B 03 00 00 15  80 02 04 10 15 80 04 66  ..Y............f
0B60: 0B 03 00 00 15 80 02 00  00 15 80 00 74 0B 01 00  ............t...
0B70: 00 01 79 0B 03 01 10 00  80 01 C2 0B 02 00 10 15  ..y.............
0B80: 80 00 C2 0B 03 01 10 15  80 43 00 43 01 03 00 00  .........C.C....
0B90: 00 80 02 03 10 15 80 04  9F 0B 03 00 00 15 80 02  ................
0BA0: 04 10 15 80 04 AC 0B 03  00 00 15 80 02 00 00 15  ................
0BB0: 80 00 BA 0B 01 00 00 01  BF 0B 03 01 10 00 80 01  ................
0BC0: C2 0B 01 B1 0D 02 00 10  1C 80 00 69 0C 03 0F 17  ...........i....
0BD0: 1C 80 24 16 80 15 80 00  80 25 02 00 10 00 80 00  ..$......%......
0BE0: 20 0C 03 01 10 1C 80 43  00 43 01 03 00 00 00 80   ......C.C......
0BF0: 02 03 10 15 80 04 FD 0B  03 00 00 15 80 02 04 10  ................
0C00: 15 80 04 0A 0C 03 00 00  15 80 02 00 00 15 80 00  ................
0C10: 18 0C 01 00 00 01 1D 0C  03 01 10 00 80 01 66 0C  ..............f.
0C20: 02 00 10 15 80 00 66 0C  03 01 10 15 80 43 00 43  ......f......C.C
0C30: 01 03 00 00 00 80 02 03  10 15 80 04 43 0C 03 00  ............C...
0C40: 00 15 80 02 04 10 15 80  04 50 0C 03 00 00 15 80  .........P......
0C50: 02 00 00 15 80 00 5E 0C  01 00 00 01 63 0C 03 01  ......^.....c...
0C60: 10 00 80 01 66 0C 01 B1  0D 02 00 10 0D 80 00 0D  ....f...........
0C70: 0D 03 0F 17 0D 80 24 16  80 15 80 00 80 25 02 00  ......$......%..
0C80: 10 00 80 00 C4 0C 03 01  10 0D 80 43 00 43 01 03  ...........C.C..
0C90: 00 00 00 80 02 03 10 15  80 04 A1 0C 03 00 00 15  ................
0CA0: 80 02 04 10 15 80 04 AE  0C 03 00 00 15 80 02 00  ................
0CB0: 00 15 80 00 BC 0C 01 00  00 01 C1 0C 03 01 10 00  ................
0CC0: 80 01 0A 0D 02 00 10 15  80 00 0A 0D 03 01 10 15  ................
0CD0: 80 43 00 43 01 03 00 00  00 80 02 03 10 15 80 04  .C.C............
0CE0: E7 0C 03 00 00 15 80 02  04 10 15 80 04 F4 0C 03  ................
0CF0: 00 00 15 80 02 00 00 15  80 00 02 0D 01 00 00 01  ................
0D00: 07 0D 03 01 10 00 80 01  0A 0D 01 B1 0D 02 00 10  ................
0D10: 0E 80 00 B1 0D 03 0F 17  0E 80 24 16 80 15 80 00  ..........$.....
0D20: 80 25 02 00 10 00 80 00  68 0D 03 01 10 0E 80 43  .%......h......C
0D30: 00 43 01 03 00 00 00 80  02 03 10 15 80 04 45 0D  .C............E.
0D40: 03 00 00 15 80 02 04 10  15 80 04 52 0D 03 00 00  ...........R....
0D50: 15 80 02 00 00 15 80 00  60 0D 01 00 00 01 65 0D  ........`.....e.
0D60: 03 01 10 00 80 01 AE 0D  02 00 10 15 80 00 AE 0D  ................
0D70: 03 01 10 15 80 43 00 43  01 03 00 00 00 80 02 03  .....C.C........
0D80: 10 15 80 04 8B 0D 03 00  00 15 80 02 04 10 15 80  ................
0D90: 04 98 0D 03 00 00 15 80  02 00 00 15 80 00 A6 0D  ................
0DA0: 01 00 00 01 AB 0D 03 01  10 00 80 01 AE 0D 01 B1  ................
0DB0: 0D 21 00                                          .!.             
```

#### Opcodes

```
  0: 0x0000 [0x03] ExtData[1]->WorkLocal[0] = 0*
  1: 0x0005 [0x41] Work_Zone[5] = Work_Zone[3] (bits 0*-2*)
  2: 0x000E [0x41] Work_Zone[6] = Work_Zone[3] (bits 3*-5*)
  3: 0x0017 [0x41] Work_Zone[7] = Work_Zone[3] (bits 6*-8*)
  4: 0x0020 [0x41] Work_Zone[8] = Work_Zone[3] (bits 9*-11*)
  5: 0x0029 [0x41] Work_Zone[9] = Work_Zone[3] (bits 12*-14*)
  6: 0x0032 [0x41] Work_Zone_1700[0] = Work_Zone[3] (bits 15*-17*)
  7: 0x003B [0x41] Work_Zone_1700[1] = Work_Zone[3] (bits 18*-20*)
  8: 0x0044 [0x41] Work_Zone_1700[2] = Work_Zone[3] (bits 21*-23*)
  9: 0x004D [0x41] Work_Zone_1700[3] = Work_Zone[3] (bits 24*-26*)
 10: 0x0056 [0x41] Work_Zone_1700[4] = Work_Zone[3] (bits 27*-29*)
 11: 0x005F [0x41] Work_Zone_1700[5] = Work_Zone[4] (bits 0*-2*)
 12: 0x0068 [0x41] Work_Zone_1700[6] = Work_Zone[4] (bits 3*-5*)
 13: 0x0071 [0x41] Work_Zone_1700[7] = Work_Zone[4] (bits 6*-8*)
 14: 0x007A [0x41] Work_Zone_1700[8] = Work_Zone[4] (bits 9*-11*)
 15: 0x0083 [0x41] Work_Zone_1700[9] = Work_Zone[4] (bits 12*-14*)
 16: 0x008C [0x41] Work_Zone_1700[10] = Work_Zone[4] (bits 15*-17*)
 17: 0x0095 [0x41] Work_Zone_1700[11] = Work_Zone[4] (bits 18*-20*)
 18: 0x009E [0x41] Work_Zone_1700[12] = Work_Zone[4] (bits 21*-23*)
 19: 0x00A7 [0x41] Work_Zone_1700[13] = Work_Zone[4] (bits 24*-26*)
 20: 0x00B0 [0x41] Work_Zone_1700[14] = Work_Zone[4] (bits 27*-29*)
 21: 0x00B9 [0x24] CREATE_DIALOG(message_id=7433*, default_option=0*, option_flags=Work_Zone[2])
    → "Which restriction will you remove? [None./@/Main/Sub-Weapon. ($3 left)/Head/Neck equipment. ($4 left)/Body equipment. ($5 left)/Hand equipment. ($6 left)/Leg/Foot equipment. ($7 left)/Back/Waist equipment. ($8 left)/Ranged Weapon/Ammo. ($9 left)/Earrings/Rings. ($10 left)/Support Job. ($11 left)/Job Abilities. ($12 left)/Spellcasting. ($13 left)/Strength. ($14 left)/Dexterity. ($15 left)/Vitality. ($16 left)/Agility. ($17 left)/Intelligence. ($18 left)/Mind. ($19 left)/Charisma. ($20 left)/Max HP. ($21 left)/Max MP. ($22 left)]"
 22: 0x00C0 [0x25] WAIT_DIALOG_SELECT()
 23: 0x00C1 [0x02] IF !(Work_Zone[0] == 0*) GOTO 0x00D1
 24: 0x00C9 [0x03] Work_Zone[1] = 0*
 25: 0x00CE [0x01] GOTO 0x0DB1
 26: 0x00D1 [0x02] IF !(Work_Zone[0] == 1*) GOTO 0x00E1
 27: 0x00D9 [0x03] Work_Zone[1] = 0*
 28: 0x00DE [0x01] GOTO 0x0DB1
 29: 0x00E1 [0x02] IF !(Work_Zone[0] == 2*) GOTO 0x0185
 30: 0x00E9 [0x03] Work_Zone_1700[15] = 2*
 31: 0x00EE [0x24] CREATE_DIALOG(message_id=7434*, default_option=1*, option_flags=0*)
    → "Remove the [0/0/weapon/head & neck/body/hand/leg & foot/back & waist/ranged wpn. & ammo/earrings & rings/support job/job abilities/spellcasting/strength/dexterity/vitality/agility/intelligence/mind/charisma/max HP/max MP] restriction? [Yes./No.]"
 32: 0x00F5 [0x25] WAIT_DIALOG_SELECT()
 33: 0x00F6 [0x02] IF !(Work_Zone[0] == 0*) GOTO 0x013C
 34: 0x00FE [0x03] Work_Zone[1] = 2*
 35: 0x0103 [0x43] SEND_EVENT_UPDATE: Send pending tag to server (packet 0x005B)
 36: 0x0105 [0x43] SEND_EVENT_UPDATE: Check pending flag (skip if not pending)
 37: 0x0107 [0x03] ExtData[1]->WorkLocal[0] = 0*
 38: 0x010C [0x02] IF !(Work_Zone[3] < 1*) GOTO 0x0119
 39: 0x0114 [0x03] ExtData[1]->WorkLocal[0] = 1*
 40: 0x0119 [0x02] IF !(Work_Zone[4] < 1*) GOTO 0x0126
 41: 0x0121 [0x03] ExtData[1]->WorkLocal[0] = 1*
 42: 0x0126 [0x02] IF !(ExtData[1]->WorkLocal[0] == 1*) GOTO 0x0134
 43: 0x012E [0x01] GOTO 0x0000

SUBROUTINE_0139:
 44: 0x0139 [0x01] GOTO 0x0182
 45: 0x013C [0x02] IF !(Work_Zone[0] == 1*) GOTO 0x0182
 46: 0x0144 [0x03] Work_Zone[1] = 1*
 47: 0x0149 [0x43] SEND_EVENT_UPDATE: Send pending tag to server (packet 0x005B)
 48: 0x014B [0x43] SEND_EVENT_UPDATE: Check pending flag (skip if not pending)
 49: 0x014D [0x03] ExtData[1]->WorkLocal[0] = 0*
 50: 0x0152 [0x02] IF !(Work_Zone[3] < 1*) GOTO 0x015F
 51: 0x015A [0x03] ExtData[1]->WorkLocal[0] = 1*
 52: 0x015F [0x02] IF !(Work_Zone[4] < 1*) GOTO 0x016C
 53: 0x0167 [0x03] ExtData[1]->WorkLocal[0] = 1*
 54: 0x016C [0x02] IF !(ExtData[1]->WorkLocal[0] == 1*) GOTO 0x017A
 55: 0x0174 [0x01] GOTO 0x0000

SUBROUTINE_017F:
 56: 0x017F [0x01] GOTO 0x0182

SUBROUTINE_0182:
 57: 0x0182 [0x01] GOTO 0x0DB1
 58: 0x0185 [0x02] IF !(Work_Zone[0] == 3*) GOTO 0x0229
 59: 0x018D [0x03] Work_Zone_1700[15] = 3*
 60: 0x0192 [0x24] CREATE_DIALOG(message_id=7434*, default_option=1*, option_flags=0*)
    → "Remove the [0/0/weapon/head & neck/body/hand/leg & foot/back & waist/ranged wpn. & ammo/earrings & rings/support job/job abilities/spellcasting/strength/dexterity/vitality/agility/intelligence/mind/charisma/max HP/max MP] restriction? [Yes./No.]"
 61: 0x0199 [0x25] WAIT_DIALOG_SELECT()
 62: 0x019A [0x02] IF !(Work_Zone[0] == 0*) GOTO 0x01E0
 63: 0x01A2 [0x03] Work_Zone[1] = 3*
 64: 0x01A7 [0x43] SEND_EVENT_UPDATE: Send pending tag to server (packet 0x005B)
 65: 0x01A9 [0x43] SEND_EVENT_UPDATE: Check pending flag (skip if not pending)
 66: 0x01AB [0x03] ExtData[1]->WorkLocal[0] = 0*
 67: 0x01B0 [0x02] IF !(Work_Zone[3] < 1*) GOTO 0x01BD
 68: 0x01B8 [0x03] ExtData[1]->WorkLocal[0] = 1*
 69: 0x01BD [0x02] IF !(Work_Zone[4] < 1*) GOTO 0x01CA
 70: 0x01C5 [0x03] ExtData[1]->WorkLocal[0] = 1*
 71: 0x01CA [0x02] IF !(ExtData[1]->WorkLocal[0] == 1*) GOTO 0x01D8
 72: 0x01D2 [0x01] GOTO 0x0000

SUBROUTINE_01DD:
 73: 0x01DD [0x01] GOTO 0x0226
 74: 0x01E0 [0x02] IF !(Work_Zone[0] == 1*) GOTO 0x0226
 75: 0x01E8 [0x03] Work_Zone[1] = 1*
 76: 0x01ED [0x43] SEND_EVENT_UPDATE: Send pending tag to server (packet 0x005B)
 77: 0x01EF [0x43] SEND_EVENT_UPDATE: Check pending flag (skip if not pending)
 78: 0x01F1 [0x03] ExtData[1]->WorkLocal[0] = 0*
 79: 0x01F6 [0x02] IF !(Work_Zone[3] < 1*) GOTO 0x0203
 80: 0x01FE [0x03] ExtData[1]->WorkLocal[0] = 1*
 81: 0x0203 [0x02] IF !(Work_Zone[4] < 1*) GOTO 0x0210
 82: 0x020B [0x03] ExtData[1]->WorkLocal[0] = 1*
 83: 0x0210 [0x02] IF !(ExtData[1]->WorkLocal[0] == 1*) GOTO 0x021E
 84: 0x0218 [0x01] GOTO 0x0000

SUBROUTINE_0223:
 85: 0x0223 [0x01] GOTO 0x0226

SUBROUTINE_0226:
 86: 0x0226 [0x01] GOTO 0x0DB1
 87: 0x0229 [0x02] IF !(Work_Zone[0] == 4*) GOTO 0x02CD
 88: 0x0231 [0x03] Work_Zone_1700[15] = 4*
 89: 0x0236 [0x24] CREATE_DIALOG(message_id=7434*, default_option=1*, option_flags=0*)
    → "Remove the [0/0/weapon/head & neck/body/hand/leg & foot/back & waist/ranged wpn. & ammo/earrings & rings/support job/job abilities/spellcasting/strength/dexterity/vitality/agility/intelligence/mind/charisma/max HP/max MP] restriction? [Yes./No.]"
 90: 0x023D [0x25] WAIT_DIALOG_SELECT()
 91: 0x023E [0x02] IF !(Work_Zone[0] == 0*) GOTO 0x0284
 92: 0x0246 [0x03] Work_Zone[1] = 4*
 93: 0x024B [0x43] SEND_EVENT_UPDATE: Send pending tag to server (packet 0x005B)
 94: 0x024D [0x43] SEND_EVENT_UPDATE: Check pending flag (skip if not pending)
 95: 0x024F [0x03] ExtData[1]->WorkLocal[0] = 0*
 96: 0x0254 [0x02] IF !(Work_Zone[3] < 1*) GOTO 0x0261
 97: 0x025C [0x03] ExtData[1]->WorkLocal[0] = 1*
 98: 0x0261 [0x02] IF !(Work_Zone[4] < 1*) GOTO 0x026E
 99: 0x0269 [0x03] ExtData[1]->WorkLocal[0] = 1*
100: 0x026E [0x02] IF !(ExtData[1]->WorkLocal[0] == 1*) GOTO 0x027C
101: 0x0276 [0x01] GOTO 0x0000

SUBROUTINE_0281:
102: 0x0281 [0x01] GOTO 0x02CA
103: 0x0284 [0x02] IF !(Work_Zone[0] == 1*) GOTO 0x02CA
104: 0x028C [0x03] Work_Zone[1] = 1*
105: 0x0291 [0x43] SEND_EVENT_UPDATE: Send pending tag to server (packet 0x005B)
106: 0x0293 [0x43] SEND_EVENT_UPDATE: Check pending flag (skip if not pending)
107: 0x0295 [0x03] ExtData[1]->WorkLocal[0] = 0*
108: 0x029A [0x02] IF !(Work_Zone[3] < 1*) GOTO 0x02A7
109: 0x02A2 [0x03] ExtData[1]->WorkLocal[0] = 1*
110: 0x02A7 [0x02] IF !(Work_Zone[4] < 1*) GOTO 0x02B4
111: 0x02AF [0x03] ExtData[1]->WorkLocal[0] = 1*
112: 0x02B4 [0x02] IF !(ExtData[1]->WorkLocal[0] == 1*) GOTO 0x02C2
113: 0x02BC [0x01] GOTO 0x0000

SUBROUTINE_02C7:
114: 0x02C7 [0x01] GOTO 0x02CA

SUBROUTINE_02CA:
115: 0x02CA [0x01] GOTO 0x0DB1
116: 0x02CD [0x02] IF !(Work_Zone[0] == 5*) GOTO 0x0371
117: 0x02D5 [0x03] Work_Zone_1700[15] = 5*
118: 0x02DA [0x24] CREATE_DIALOG(message_id=7434*, default_option=1*, option_flags=0*)
    → "Remove the [0/0/weapon/head & neck/body/hand/leg & foot/back & waist/ranged wpn. & ammo/earrings & rings/support job/job abilities/spellcasting/strength/dexterity/vitality/agility/intelligence/mind/charisma/max HP/max MP] restriction? [Yes./No.]"
119: 0x02E1 [0x25] WAIT_DIALOG_SELECT()
120: 0x02E2 [0x02] IF !(Work_Zone[0] == 0*) GOTO 0x0328
121: 0x02EA [0x03] Work_Zone[1] = 5*
122: 0x02EF [0x43] SEND_EVENT_UPDATE: Send pending tag to server (packet 0x005B)
123: 0x02F1 [0x43] SEND_EVENT_UPDATE: Check pending flag (skip if not pending)
124: 0x02F3 [0x03] ExtData[1]->WorkLocal[0] = 0*
125: 0x02F8 [0x02] IF !(Work_Zone[3] < 1*) GOTO 0x0305
126: 0x0300 [0x03] ExtData[1]->WorkLocal[0] = 1*
127: 0x0305 [0x02] IF !(Work_Zone[4] < 1*) GOTO 0x0312
128: 0x030D [0x03] ExtData[1]->WorkLocal[0] = 1*
129: 0x0312 [0x02] IF !(ExtData[1]->WorkLocal[0] == 1*) GOTO 0x0320
130: 0x031A [0x01] GOTO 0x0000

SUBROUTINE_0325:
131: 0x0325 [0x01] GOTO 0x036E
132: 0x0328 [0x02] IF !(Work_Zone[0] == 1*) GOTO 0x036E
133: 0x0330 [0x03] Work_Zone[1] = 1*
134: 0x0335 [0x43] SEND_EVENT_UPDATE: Send pending tag to server (packet 0x005B)
135: 0x0337 [0x43] SEND_EVENT_UPDATE: Check pending flag (skip if not pending)
136: 0x0339 [0x03] ExtData[1]->WorkLocal[0] = 0*
137: 0x033E [0x02] IF !(Work_Zone[3] < 1*) GOTO 0x034B
138: 0x0346 [0x03] ExtData[1]->WorkLocal[0] = 1*
139: 0x034B [0x02] IF !(Work_Zone[4] < 1*) GOTO 0x0358
140: 0x0353 [0x03] ExtData[1]->WorkLocal[0] = 1*
141: 0x0358 [0x02] IF !(ExtData[1]->WorkLocal[0] == 1*) GOTO 0x0366
142: 0x0360 [0x01] GOTO 0x0000

SUBROUTINE_036B:
143: 0x036B [0x01] GOTO 0x036E

SUBROUTINE_036E:
144: 0x036E [0x01] GOTO 0x0DB1
145: 0x0371 [0x02] IF !(Work_Zone[0] == 6*) GOTO 0x0415
146: 0x0379 [0x03] Work_Zone_1700[15] = 6*
147: 0x037E [0x24] CREATE_DIALOG(message_id=7434*, default_option=1*, option_flags=0*)
    → "Remove the [0/0/weapon/head & neck/body/hand/leg & foot/back & waist/ranged wpn. & ammo/earrings & rings/support job/job abilities/spellcasting/strength/dexterity/vitality/agility/intelligence/mind/charisma/max HP/max MP] restriction? [Yes./No.]"
148: 0x0385 [0x25] WAIT_DIALOG_SELECT()
149: 0x0386 [0x02] IF !(Work_Zone[0] == 0*) GOTO 0x03CC
150: 0x038E [0x03] Work_Zone[1] = 6*
151: 0x0393 [0x43] SEND_EVENT_UPDATE: Send pending tag to server (packet 0x005B)
152: 0x0395 [0x43] SEND_EVENT_UPDATE: Check pending flag (skip if not pending)
153: 0x0397 [0x03] ExtData[1]->WorkLocal[0] = 0*
154: 0x039C [0x02] IF !(Work_Zone[3] < 1*) GOTO 0x03A9
155: 0x03A4 [0x03] ExtData[1]->WorkLocal[0] = 1*
156: 0x03A9 [0x02] IF !(Work_Zone[4] < 1*) GOTO 0x03B6
157: 0x03B1 [0x03] ExtData[1]->WorkLocal[0] = 1*
158: 0x03B6 [0x02] IF !(ExtData[1]->WorkLocal[0] == 1*) GOTO 0x03C4
159: 0x03BE [0x01] GOTO 0x0000

SUBROUTINE_03C9:
160: 0x03C9 [0x01] GOTO 0x0412
161: 0x03CC [0x02] IF !(Work_Zone[0] == 1*) GOTO 0x0412
162: 0x03D4 [0x03] Work_Zone[1] = 1*
163: 0x03D9 [0x43] SEND_EVENT_UPDATE: Send pending tag to server (packet 0x005B)
164: 0x03DB [0x43] SEND_EVENT_UPDATE: Check pending flag (skip if not pending)
165: 0x03DD [0x03] ExtData[1]->WorkLocal[0] = 0*
166: 0x03E2 [0x02] IF !(Work_Zone[3] < 1*) GOTO 0x03EF
167: 0x03EA [0x03] ExtData[1]->WorkLocal[0] = 1*
168: 0x03EF [0x02] IF !(Work_Zone[4] < 1*) GOTO 0x03FC
169: 0x03F7 [0x03] ExtData[1]->WorkLocal[0] = 1*
170: 0x03FC [0x02] IF !(ExtData[1]->WorkLocal[0] == 1*) GOTO 0x040A
171: 0x0404 [0x01] GOTO 0x0000

SUBROUTINE_040F:
172: 0x040F [0x01] GOTO 0x0412

SUBROUTINE_0412:
173: 0x0412 [0x01] GOTO 0x0DB1
174: 0x0415 [0x02] IF !(Work_Zone[0] == 7*) GOTO 0x04B9
175: 0x041D [0x03] Work_Zone_1700[15] = 7*
176: 0x0422 [0x24] CREATE_DIALOG(message_id=7434*, default_option=1*, option_flags=0*)
    → "Remove the [0/0/weapon/head & neck/body/hand/leg & foot/back & waist/ranged wpn. & ammo/earrings & rings/support job/job abilities/spellcasting/strength/dexterity/vitality/agility/intelligence/mind/charisma/max HP/max MP] restriction? [Yes./No.]"
177: 0x0429 [0x25] WAIT_DIALOG_SELECT()
178: 0x042A [0x02] IF !(Work_Zone[0] == 0*) GOTO 0x0470
179: 0x0432 [0x03] Work_Zone[1] = 7*
180: 0x0437 [0x43] SEND_EVENT_UPDATE: Send pending tag to server (packet 0x005B)
181: 0x0439 [0x43] SEND_EVENT_UPDATE: Check pending flag (skip if not pending)
182: 0x043B [0x03] ExtData[1]->WorkLocal[0] = 0*
183: 0x0440 [0x02] IF !(Work_Zone[3] < 1*) GOTO 0x044D
184: 0x0448 [0x03] ExtData[1]->WorkLocal[0] = 1*
185: 0x044D [0x02] IF !(Work_Zone[4] < 1*) GOTO 0x045A
186: 0x0455 [0x03] ExtData[1]->WorkLocal[0] = 1*
187: 0x045A [0x02] IF !(ExtData[1]->WorkLocal[0] == 1*) GOTO 0x0468
188: 0x0462 [0x01] GOTO 0x0000

SUBROUTINE_046D:
189: 0x046D [0x01] GOTO 0x04B6
190: 0x0470 [0x02] IF !(Work_Zone[0] == 1*) GOTO 0x04B6
191: 0x0478 [0x03] Work_Zone[1] = 1*
192: 0x047D [0x43] SEND_EVENT_UPDATE: Send pending tag to server (packet 0x005B)
193: 0x047F [0x43] SEND_EVENT_UPDATE: Check pending flag (skip if not pending)
194: 0x0481 [0x03] ExtData[1]->WorkLocal[0] = 0*
195: 0x0486 [0x02] IF !(Work_Zone[3] < 1*) GOTO 0x0493
196: 0x048E [0x03] ExtData[1]->WorkLocal[0] = 1*
197: 0x0493 [0x02] IF !(Work_Zone[4] < 1*) GOTO 0x04A0
198: 0x049B [0x03] ExtData[1]->WorkLocal[0] = 1*
199: 0x04A0 [0x02] IF !(ExtData[1]->WorkLocal[0] == 1*) GOTO 0x04AE
200: 0x04A8 [0x01] GOTO 0x0000

SUBROUTINE_04B3:
201: 0x04B3 [0x01] GOTO 0x04B6

SUBROUTINE_04B6:
202: 0x04B6 [0x01] GOTO 0x0DB1
203: 0x04B9 [0x02] IF !(Work_Zone[0] == 8*) GOTO 0x055D
204: 0x04C1 [0x03] Work_Zone_1700[15] = 8*
205: 0x04C6 [0x24] CREATE_DIALOG(message_id=7434*, default_option=1*, option_flags=0*)
    → "Remove the [0/0/weapon/head & neck/body/hand/leg & foot/back & waist/ranged wpn. & ammo/earrings & rings/support job/job abilities/spellcasting/strength/dexterity/vitality/agility/intelligence/mind/charisma/max HP/max MP] restriction? [Yes./No.]"
206: 0x04CD [0x25] WAIT_DIALOG_SELECT()
207: 0x04CE [0x02] IF !(Work_Zone[0] == 0*) GOTO 0x0514
208: 0x04D6 [0x03] Work_Zone[1] = 8*
209: 0x04DB [0x43] SEND_EVENT_UPDATE: Send pending tag to server (packet 0x005B)
210: 0x04DD [0x43] SEND_EVENT_UPDATE: Check pending flag (skip if not pending)
211: 0x04DF [0x03] ExtData[1]->WorkLocal[0] = 0*
212: 0x04E4 [0x02] IF !(Work_Zone[3] < 1*) GOTO 0x04F1
213: 0x04EC [0x03] ExtData[1]->WorkLocal[0] = 1*
214: 0x04F1 [0x02] IF !(Work_Zone[4] < 1*) GOTO 0x04FE
215: 0x04F9 [0x03] ExtData[1]->WorkLocal[0] = 1*
216: 0x04FE [0x02] IF !(ExtData[1]->WorkLocal[0] == 1*) GOTO 0x050C
217: 0x0506 [0x01] GOTO 0x0000

SUBROUTINE_0511:
218: 0x0511 [0x01] GOTO 0x055A
219: 0x0514 [0x02] IF !(Work_Zone[0] == 1*) GOTO 0x055A
220: 0x051C [0x03] Work_Zone[1] = 1*
221: 0x0521 [0x43] SEND_EVENT_UPDATE: Send pending tag to server (packet 0x005B)
222: 0x0523 [0x43] SEND_EVENT_UPDATE: Check pending flag (skip if not pending)
223: 0x0525 [0x03] ExtData[1]->WorkLocal[0] = 0*
224: 0x052A [0x02] IF !(Work_Zone[3] < 1*) GOTO 0x0537
225: 0x0532 [0x03] ExtData[1]->WorkLocal[0] = 1*
226: 0x0537 [0x02] IF !(Work_Zone[4] < 1*) GOTO 0x0544
227: 0x053F [0x03] ExtData[1]->WorkLocal[0] = 1*
228: 0x0544 [0x02] IF !(ExtData[1]->WorkLocal[0] == 1*) GOTO 0x0552
229: 0x054C [0x01] GOTO 0x0000

SUBROUTINE_0557:
230: 0x0557 [0x01] GOTO 0x055A

SUBROUTINE_055A:
231: 0x055A [0x01] GOTO 0x0DB1
232: 0x055D [0x02] IF !(Work_Zone[0] == 9*) GOTO 0x0601
233: 0x0565 [0x03] Work_Zone_1700[15] = 9*
234: 0x056A [0x24] CREATE_DIALOG(message_id=7434*, default_option=1*, option_flags=0*)
    → "Remove the [0/0/weapon/head & neck/body/hand/leg & foot/back & waist/ranged wpn. & ammo/earrings & rings/support job/job abilities/spellcasting/strength/dexterity/vitality/agility/intelligence/mind/charisma/max HP/max MP] restriction? [Yes./No.]"
235: 0x0571 [0x25] WAIT_DIALOG_SELECT()
236: 0x0572 [0x02] IF !(Work_Zone[0] == 0*) GOTO 0x05B8
237: 0x057A [0x03] Work_Zone[1] = 9*
238: 0x057F [0x43] SEND_EVENT_UPDATE: Send pending tag to server (packet 0x005B)
239: 0x0581 [0x43] SEND_EVENT_UPDATE: Check pending flag (skip if not pending)
240: 0x0583 [0x03] ExtData[1]->WorkLocal[0] = 0*
241: 0x0588 [0x02] IF !(Work_Zone[3] < 1*) GOTO 0x0595
242: 0x0590 [0x03] ExtData[1]->WorkLocal[0] = 1*
243: 0x0595 [0x02] IF !(Work_Zone[4] < 1*) GOTO 0x05A2
244: 0x059D [0x03] ExtData[1]->WorkLocal[0] = 1*
245: 0x05A2 [0x02] IF !(ExtData[1]->WorkLocal[0] == 1*) GOTO 0x05B0
246: 0x05AA [0x01] GOTO 0x0000

SUBROUTINE_05B5:
247: 0x05B5 [0x01] GOTO 0x05FE
248: 0x05B8 [0x02] IF !(Work_Zone[0] == 1*) GOTO 0x05FE
249: 0x05C0 [0x03] Work_Zone[1] = 1*
250: 0x05C5 [0x43] SEND_EVENT_UPDATE: Send pending tag to server (packet 0x005B)
251: 0x05C7 [0x43] SEND_EVENT_UPDATE: Check pending flag (skip if not pending)
252: 0x05C9 [0x03] ExtData[1]->WorkLocal[0] = 0*
253: 0x05CE [0x02] IF !(Work_Zone[3] < 1*) GOTO 0x05DB
254: 0x05D6 [0x03] ExtData[1]->WorkLocal[0] = 1*
255: 0x05DB [0x02] IF !(Work_Zone[4] < 1*) GOTO 0x05E8
256: 0x05E3 [0x03] ExtData[1]->WorkLocal[0] = 1*
257: 0x05E8 [0x02] IF !(ExtData[1]->WorkLocal[0] == 1*) GOTO 0x05F6
258: 0x05F0 [0x01] GOTO 0x0000

SUBROUTINE_05FB:
259: 0x05FB [0x01] GOTO 0x05FE

SUBROUTINE_05FE:
260: 0x05FE [0x01] GOTO 0x0DB1
261: 0x0601 [0x02] IF !(Work_Zone[0] == 10*) GOTO 0x06A5
262: 0x0609 [0x03] Work_Zone_1700[15] = 10*
263: 0x060E [0x24] CREATE_DIALOG(message_id=7434*, default_option=1*, option_flags=0*)
    → "Remove the [0/0/weapon/head & neck/body/hand/leg & foot/back & waist/ranged wpn. & ammo/earrings & rings/support job/job abilities/spellcasting/strength/dexterity/vitality/agility/intelligence/mind/charisma/max HP/max MP] restriction? [Yes./No.]"
264: 0x0615 [0x25] WAIT_DIALOG_SELECT()
265: 0x0616 [0x02] IF !(Work_Zone[0] == 0*) GOTO 0x065C
266: 0x061E [0x03] Work_Zone[1] = 10*
267: 0x0623 [0x43] SEND_EVENT_UPDATE: Send pending tag to server (packet 0x005B)
268: 0x0625 [0x43] SEND_EVENT_UPDATE: Check pending flag (skip if not pending)
269: 0x0627 [0x03] ExtData[1]->WorkLocal[0] = 0*
270: 0x062C [0x02] IF !(Work_Zone[3] < 1*) GOTO 0x0639
271: 0x0634 [0x03] ExtData[1]->WorkLocal[0] = 1*
272: 0x0639 [0x02] IF !(Work_Zone[4] < 1*) GOTO 0x0646
273: 0x0641 [0x03] ExtData[1]->WorkLocal[0] = 1*
274: 0x0646 [0x02] IF !(ExtData[1]->WorkLocal[0] == 1*) GOTO 0x0654
275: 0x064E [0x01] GOTO 0x0000

SUBROUTINE_0659:
276: 0x0659 [0x01] GOTO 0x06A2
277: 0x065C [0x02] IF !(Work_Zone[0] == 1*) GOTO 0x06A2
278: 0x0664 [0x03] Work_Zone[1] = 1*
279: 0x0669 [0x43] SEND_EVENT_UPDATE: Send pending tag to server (packet 0x005B)
280: 0x066B [0x43] SEND_EVENT_UPDATE: Check pending flag (skip if not pending)
281: 0x066D [0x03] ExtData[1]->WorkLocal[0] = 0*
282: 0x0672 [0x02] IF !(Work_Zone[3] < 1*) GOTO 0x067F
283: 0x067A [0x03] ExtData[1]->WorkLocal[0] = 1*
284: 0x067F [0x02] IF !(Work_Zone[4] < 1*) GOTO 0x068C
285: 0x0687 [0x03] ExtData[1]->WorkLocal[0] = 1*
286: 0x068C [0x02] IF !(ExtData[1]->WorkLocal[0] == 1*) GOTO 0x069A
287: 0x0694 [0x01] GOTO 0x0000

SUBROUTINE_069F:
288: 0x069F [0x01] GOTO 0x06A2

SUBROUTINE_06A2:
289: 0x06A2 [0x01] GOTO 0x0DB1
290: 0x06A5 [0x02] IF !(Work_Zone[0] == 11*) GOTO 0x0749
291: 0x06AD [0x03] Work_Zone_1700[15] = 11*
292: 0x06B2 [0x24] CREATE_DIALOG(message_id=7434*, default_option=1*, option_flags=0*)
    → "Remove the [0/0/weapon/head & neck/body/hand/leg & foot/back & waist/ranged wpn. & ammo/earrings & rings/support job/job abilities/spellcasting/strength/dexterity/vitality/agility/intelligence/mind/charisma/max HP/max MP] restriction? [Yes./No.]"
293: 0x06B9 [0x25] WAIT_DIALOG_SELECT()
294: 0x06BA [0x02] IF !(Work_Zone[0] == 0*) GOTO 0x0700
295: 0x06C2 [0x03] Work_Zone[1] = 11*
296: 0x06C7 [0x43] SEND_EVENT_UPDATE: Send pending tag to server (packet 0x005B)
297: 0x06C9 [0x43] SEND_EVENT_UPDATE: Check pending flag (skip if not pending)
298: 0x06CB [0x03] ExtData[1]->WorkLocal[0] = 0*
299: 0x06D0 [0x02] IF !(Work_Zone[3] < 1*) GOTO 0x06DD
300: 0x06D8 [0x03] ExtData[1]->WorkLocal[0] = 1*
301: 0x06DD [0x02] IF !(Work_Zone[4] < 1*) GOTO 0x06EA
302: 0x06E5 [0x03] ExtData[1]->WorkLocal[0] = 1*
303: 0x06EA [0x02] IF !(ExtData[1]->WorkLocal[0] == 1*) GOTO 0x06F8
304: 0x06F2 [0x01] GOTO 0x0000

SUBROUTINE_06FD:
305: 0x06FD [0x01] GOTO 0x0746
306: 0x0700 [0x02] IF !(Work_Zone[0] == 1*) GOTO 0x0746
307: 0x0708 [0x03] Work_Zone[1] = 1*
308: 0x070D [0x43] SEND_EVENT_UPDATE: Send pending tag to server (packet 0x005B)
309: 0x070F [0x43] SEND_EVENT_UPDATE: Check pending flag (skip if not pending)
310: 0x0711 [0x03] ExtData[1]->WorkLocal[0] = 0*
311: 0x0716 [0x02] IF !(Work_Zone[3] < 1*) GOTO 0x0723
312: 0x071E [0x03] ExtData[1]->WorkLocal[0] = 1*
313: 0x0723 [0x02] IF !(Work_Zone[4] < 1*) GOTO 0x0730
314: 0x072B [0x03] ExtData[1]->WorkLocal[0] = 1*
315: 0x0730 [0x02] IF !(ExtData[1]->WorkLocal[0] == 1*) GOTO 0x073E
316: 0x0738 [0x01] GOTO 0x0000

SUBROUTINE_0743:
317: 0x0743 [0x01] GOTO 0x0746

SUBROUTINE_0746:
318: 0x0746 [0x01] GOTO 0x0DB1
319: 0x0749 [0x02] IF !(Work_Zone[0] == 12*) GOTO 0x07ED
320: 0x0751 [0x03] Work_Zone_1700[15] = 12*
321: 0x0756 [0x24] CREATE_DIALOG(message_id=7434*, default_option=1*, option_flags=0*)
    → "Remove the [0/0/weapon/head & neck/body/hand/leg & foot/back & waist/ranged wpn. & ammo/earrings & rings/support job/job abilities/spellcasting/strength/dexterity/vitality/agility/intelligence/mind/charisma/max HP/max MP] restriction? [Yes./No.]"
322: 0x075D [0x25] WAIT_DIALOG_SELECT()
323: 0x075E [0x02] IF !(Work_Zone[0] == 0*) GOTO 0x07A4
324: 0x0766 [0x03] Work_Zone[1] = 12*
325: 0x076B [0x43] SEND_EVENT_UPDATE: Send pending tag to server (packet 0x005B)
326: 0x076D [0x43] SEND_EVENT_UPDATE: Check pending flag (skip if not pending)
327: 0x076F [0x03] ExtData[1]->WorkLocal[0] = 0*
328: 0x0774 [0x02] IF !(Work_Zone[3] < 1*) GOTO 0x0781
329: 0x077C [0x03] ExtData[1]->WorkLocal[0] = 1*
330: 0x0781 [0x02] IF !(Work_Zone[4] < 1*) GOTO 0x078E
331: 0x0789 [0x03] ExtData[1]->WorkLocal[0] = 1*
332: 0x078E [0x02] IF !(ExtData[1]->WorkLocal[0] == 1*) GOTO 0x079C
333: 0x0796 [0x01] GOTO 0x0000

SUBROUTINE_07A1:
334: 0x07A1 [0x01] GOTO 0x07EA
335: 0x07A4 [0x02] IF !(Work_Zone[0] == 1*) GOTO 0x07EA
336: 0x07AC [0x03] Work_Zone[1] = 1*
337: 0x07B1 [0x43] SEND_EVENT_UPDATE: Send pending tag to server (packet 0x005B)
338: 0x07B3 [0x43] SEND_EVENT_UPDATE: Check pending flag (skip if not pending)
339: 0x07B5 [0x03] ExtData[1]->WorkLocal[0] = 0*
340: 0x07BA [0x02] IF !(Work_Zone[3] < 1*) GOTO 0x07C7
341: 0x07C2 [0x03] ExtData[1]->WorkLocal[0] = 1*
342: 0x07C7 [0x02] IF !(Work_Zone[4] < 1*) GOTO 0x07D4
343: 0x07CF [0x03] ExtData[1]->WorkLocal[0] = 1*
344: 0x07D4 [0x02] IF !(ExtData[1]->WorkLocal[0] == 1*) GOTO 0x07E2
345: 0x07DC [0x01] GOTO 0x0000

SUBROUTINE_07E7:
346: 0x07E7 [0x01] GOTO 0x07EA

SUBROUTINE_07EA:
347: 0x07EA [0x01] GOTO 0x0DB1
348: 0x07ED [0x02] IF !(Work_Zone[0] == 13*) GOTO 0x0891
349: 0x07F5 [0x03] Work_Zone_1700[15] = 13*
350: 0x07FA [0x24] CREATE_DIALOG(message_id=7434*, default_option=1*, option_flags=0*)
    → "Remove the [0/0/weapon/head & neck/body/hand/leg & foot/back & waist/ranged wpn. & ammo/earrings & rings/support job/job abilities/spellcasting/strength/dexterity/vitality/agility/intelligence/mind/charisma/max HP/max MP] restriction? [Yes./No.]"
351: 0x0801 [0x25] WAIT_DIALOG_SELECT()
352: 0x0802 [0x02] IF !(Work_Zone[0] == 0*) GOTO 0x0848
353: 0x080A [0x03] Work_Zone[1] = 13*
354: 0x080F [0x43] SEND_EVENT_UPDATE: Send pending tag to server (packet 0x005B)
355: 0x0811 [0x43] SEND_EVENT_UPDATE: Check pending flag (skip if not pending)
356: 0x0813 [0x03] ExtData[1]->WorkLocal[0] = 0*
357: 0x0818 [0x02] IF !(Work_Zone[3] < 1*) GOTO 0x0825
358: 0x0820 [0x03] ExtData[1]->WorkLocal[0] = 1*
359: 0x0825 [0x02] IF !(Work_Zone[4] < 1*) GOTO 0x0832
360: 0x082D [0x03] ExtData[1]->WorkLocal[0] = 1*
361: 0x0832 [0x02] IF !(ExtData[1]->WorkLocal[0] == 1*) GOTO 0x0840
362: 0x083A [0x01] GOTO 0x0000

SUBROUTINE_0845:
363: 0x0845 [0x01] GOTO 0x088E
364: 0x0848 [0x02] IF !(Work_Zone[0] == 1*) GOTO 0x088E
365: 0x0850 [0x03] Work_Zone[1] = 1*
366: 0x0855 [0x43] SEND_EVENT_UPDATE: Send pending tag to server (packet 0x005B)
367: 0x0857 [0x43] SEND_EVENT_UPDATE: Check pending flag (skip if not pending)
368: 0x0859 [0x03] ExtData[1]->WorkLocal[0] = 0*
369: 0x085E [0x02] IF !(Work_Zone[3] < 1*) GOTO 0x086B
370: 0x0866 [0x03] ExtData[1]->WorkLocal[0] = 1*
371: 0x086B [0x02] IF !(Work_Zone[4] < 1*) GOTO 0x0878
372: 0x0873 [0x03] ExtData[1]->WorkLocal[0] = 1*
373: 0x0878 [0x02] IF !(ExtData[1]->WorkLocal[0] == 1*) GOTO 0x0886
374: 0x0880 [0x01] GOTO 0x0000

SUBROUTINE_088B:
375: 0x088B [0x01] GOTO 0x088E

SUBROUTINE_088E:
376: 0x088E [0x01] GOTO 0x0DB1
377: 0x0891 [0x02] IF !(Work_Zone[0] == 14*) GOTO 0x0935
378: 0x0899 [0x03] Work_Zone_1700[15] = 14*
379: 0x089E [0x24] CREATE_DIALOG(message_id=7434*, default_option=1*, option_flags=0*)
    → "Remove the [0/0/weapon/head & neck/body/hand/leg & foot/back & waist/ranged wpn. & ammo/earrings & rings/support job/job abilities/spellcasting/strength/dexterity/vitality/agility/intelligence/mind/charisma/max HP/max MP] restriction? [Yes./No.]"
380: 0x08A5 [0x25] WAIT_DIALOG_SELECT()
381: 0x08A6 [0x02] IF !(Work_Zone[0] == 0*) GOTO 0x08EC
382: 0x08AE [0x03] Work_Zone[1] = 14*
383: 0x08B3 [0x43] SEND_EVENT_UPDATE: Send pending tag to server (packet 0x005B)
384: 0x08B5 [0x43] SEND_EVENT_UPDATE: Check pending flag (skip if not pending)
385: 0x08B7 [0x03] ExtData[1]->WorkLocal[0] = 0*
386: 0x08BC [0x02] IF !(Work_Zone[3] < 1*) GOTO 0x08C9
387: 0x08C4 [0x03] ExtData[1]->WorkLocal[0] = 1*
388: 0x08C9 [0x02] IF !(Work_Zone[4] < 1*) GOTO 0x08D6
389: 0x08D1 [0x03] ExtData[1]->WorkLocal[0] = 1*
390: 0x08D6 [0x02] IF !(ExtData[1]->WorkLocal[0] == 1*) GOTO 0x08E4
391: 0x08DE [0x01] GOTO 0x0000

SUBROUTINE_08E9:
392: 0x08E9 [0x01] GOTO 0x0932
393: 0x08EC [0x02] IF !(Work_Zone[0] == 1*) GOTO 0x0932
394: 0x08F4 [0x03] Work_Zone[1] = 1*
395: 0x08F9 [0x43] SEND_EVENT_UPDATE: Send pending tag to server (packet 0x005B)
396: 0x08FB [0x43] SEND_EVENT_UPDATE: Check pending flag (skip if not pending)
397: 0x08FD [0x03] ExtData[1]->WorkLocal[0] = 0*
398: 0x0902 [0x02] IF !(Work_Zone[3] < 1*) GOTO 0x090F
399: 0x090A [0x03] ExtData[1]->WorkLocal[0] = 1*
400: 0x090F [0x02] IF !(Work_Zone[4] < 1*) GOTO 0x091C
401: 0x0917 [0x03] ExtData[1]->WorkLocal[0] = 1*
402: 0x091C [0x02] IF !(ExtData[1]->WorkLocal[0] == 1*) GOTO 0x092A
403: 0x0924 [0x01] GOTO 0x0000

SUBROUTINE_092F:
404: 0x092F [0x01] GOTO 0x0932

SUBROUTINE_0932:
405: 0x0932 [0x01] GOTO 0x0DB1
406: 0x0935 [0x02] IF !(Work_Zone[0] == 15*) GOTO 0x09D9
407: 0x093D [0x03] Work_Zone_1700[15] = 15*
408: 0x0942 [0x24] CREATE_DIALOG(message_id=7434*, default_option=1*, option_flags=0*)
    → "Remove the [0/0/weapon/head & neck/body/hand/leg & foot/back & waist/ranged wpn. & ammo/earrings & rings/support job/job abilities/spellcasting/strength/dexterity/vitality/agility/intelligence/mind/charisma/max HP/max MP] restriction? [Yes./No.]"
409: 0x0949 [0x25] WAIT_DIALOG_SELECT()
410: 0x094A [0x02] IF !(Work_Zone[0] == 0*) GOTO 0x0990
411: 0x0952 [0x03] Work_Zone[1] = 15*
412: 0x0957 [0x43] SEND_EVENT_UPDATE: Send pending tag to server (packet 0x005B)
413: 0x0959 [0x43] SEND_EVENT_UPDATE: Check pending flag (skip if not pending)
414: 0x095B [0x03] ExtData[1]->WorkLocal[0] = 0*
415: 0x0960 [0x02] IF !(Work_Zone[3] < 1*) GOTO 0x096D
416: 0x0968 [0x03] ExtData[1]->WorkLocal[0] = 1*
417: 0x096D [0x02] IF !(Work_Zone[4] < 1*) GOTO 0x097A
418: 0x0975 [0x03] ExtData[1]->WorkLocal[0] = 1*
419: 0x097A [0x02] IF !(ExtData[1]->WorkLocal[0] == 1*) GOTO 0x0988
420: 0x0982 [0x01] GOTO 0x0000

SUBROUTINE_098D:
421: 0x098D [0x01] GOTO 0x09D6
422: 0x0990 [0x02] IF !(Work_Zone[0] == 1*) GOTO 0x09D6
423: 0x0998 [0x03] Work_Zone[1] = 1*
424: 0x099D [0x43] SEND_EVENT_UPDATE: Send pending tag to server (packet 0x005B)
425: 0x099F [0x43] SEND_EVENT_UPDATE: Check pending flag (skip if not pending)
426: 0x09A1 [0x03] ExtData[1]->WorkLocal[0] = 0*
427: 0x09A6 [0x02] IF !(Work_Zone[3] < 1*) GOTO 0x09B3
428: 0x09AE [0x03] ExtData[1]->WorkLocal[0] = 1*
429: 0x09B3 [0x02] IF !(Work_Zone[4] < 1*) GOTO 0x09C0
430: 0x09BB [0x03] ExtData[1]->WorkLocal[0] = 1*
431: 0x09C0 [0x02] IF !(ExtData[1]->WorkLocal[0] == 1*) GOTO 0x09CE
432: 0x09C8 [0x01] GOTO 0x0000

SUBROUTINE_09D3:
433: 0x09D3 [0x01] GOTO 0x09D6

SUBROUTINE_09D6:
434: 0x09D6 [0x01] GOTO 0x0DB1
435: 0x09D9 [0x02] IF !(Work_Zone[0] == 16*) GOTO 0x0A7D
436: 0x09E1 [0x03] Work_Zone_1700[15] = 16*
437: 0x09E6 [0x24] CREATE_DIALOG(message_id=7434*, default_option=1*, option_flags=0*)
    → "Remove the [0/0/weapon/head & neck/body/hand/leg & foot/back & waist/ranged wpn. & ammo/earrings & rings/support job/job abilities/spellcasting/strength/dexterity/vitality/agility/intelligence/mind/charisma/max HP/max MP] restriction? [Yes./No.]"
438: 0x09ED [0x25] WAIT_DIALOG_SELECT()
439: 0x09EE [0x02] IF !(Work_Zone[0] == 0*) GOTO 0x0A34
440: 0x09F6 [0x03] Work_Zone[1] = 16*
441: 0x09FB [0x43] SEND_EVENT_UPDATE: Send pending tag to server (packet 0x005B)
442: 0x09FD [0x43] SEND_EVENT_UPDATE: Check pending flag (skip if not pending)
443: 0x09FF [0x03] ExtData[1]->WorkLocal[0] = 0*
444: 0x0A04 [0x02] IF !(Work_Zone[3] < 1*) GOTO 0x0A11
445: 0x0A0C [0x03] ExtData[1]->WorkLocal[0] = 1*
446: 0x0A11 [0x02] IF !(Work_Zone[4] < 1*) GOTO 0x0A1E
447: 0x0A19 [0x03] ExtData[1]->WorkLocal[0] = 1*
448: 0x0A1E [0x02] IF !(ExtData[1]->WorkLocal[0] == 1*) GOTO 0x0A2C
449: 0x0A26 [0x01] GOTO 0x0000

SUBROUTINE_0A31:
450: 0x0A31 [0x01] GOTO 0x0A7A
451: 0x0A34 [0x02] IF !(Work_Zone[0] == 1*) GOTO 0x0A7A
452: 0x0A3C [0x03] Work_Zone[1] = 1*
453: 0x0A41 [0x43] SEND_EVENT_UPDATE: Send pending tag to server (packet 0x005B)
454: 0x0A43 [0x43] SEND_EVENT_UPDATE: Check pending flag (skip if not pending)
455: 0x0A45 [0x03] ExtData[1]->WorkLocal[0] = 0*
456: 0x0A4A [0x02] IF !(Work_Zone[3] < 1*) GOTO 0x0A57
457: 0x0A52 [0x03] ExtData[1]->WorkLocal[0] = 1*
458: 0x0A57 [0x02] IF !(Work_Zone[4] < 1*) GOTO 0x0A64
459: 0x0A5F [0x03] ExtData[1]->WorkLocal[0] = 1*
460: 0x0A64 [0x02] IF !(ExtData[1]->WorkLocal[0] == 1*) GOTO 0x0A72
461: 0x0A6C [0x01] GOTO 0x0000

SUBROUTINE_0A77:
462: 0x0A77 [0x01] GOTO 0x0A7A

SUBROUTINE_0A7A:
463: 0x0A7A [0x01] GOTO 0x0DB1
464: 0x0A7D [0x02] IF !(Work_Zone[0] == 17*) GOTO 0x0B21
465: 0x0A85 [0x03] Work_Zone_1700[15] = 17*
466: 0x0A8A [0x24] CREATE_DIALOG(message_id=7434*, default_option=1*, option_flags=0*)
    → "Remove the [0/0/weapon/head & neck/body/hand/leg & foot/back & waist/ranged wpn. & ammo/earrings & rings/support job/job abilities/spellcasting/strength/dexterity/vitality/agility/intelligence/mind/charisma/max HP/max MP] restriction? [Yes./No.]"
467: 0x0A91 [0x25] WAIT_DIALOG_SELECT()
468: 0x0A92 [0x02] IF !(Work_Zone[0] == 0*) GOTO 0x0AD8
469: 0x0A9A [0x03] Work_Zone[1] = 17*
470: 0x0A9F [0x43] SEND_EVENT_UPDATE: Send pending tag to server (packet 0x005B)
471: 0x0AA1 [0x43] SEND_EVENT_UPDATE: Check pending flag (skip if not pending)
472: 0x0AA3 [0x03] ExtData[1]->WorkLocal[0] = 0*
473: 0x0AA8 [0x02] IF !(Work_Zone[3] < 1*) GOTO 0x0AB5
474: 0x0AB0 [0x03] ExtData[1]->WorkLocal[0] = 1*
475: 0x0AB5 [0x02] IF !(Work_Zone[4] < 1*) GOTO 0x0AC2
476: 0x0ABD [0x03] ExtData[1]->WorkLocal[0] = 1*
477: 0x0AC2 [0x02] IF !(ExtData[1]->WorkLocal[0] == 1*) GOTO 0x0AD0
478: 0x0ACA [0x01] GOTO 0x0000

SUBROUTINE_0AD5:
479: 0x0AD5 [0x01] GOTO 0x0B1E
480: 0x0AD8 [0x02] IF !(Work_Zone[0] == 1*) GOTO 0x0B1E
481: 0x0AE0 [0x03] Work_Zone[1] = 1*
482: 0x0AE5 [0x43] SEND_EVENT_UPDATE: Send pending tag to server (packet 0x005B)
483: 0x0AE7 [0x43] SEND_EVENT_UPDATE: Check pending flag (skip if not pending)
484: 0x0AE9 [0x03] ExtData[1]->WorkLocal[0] = 0*
485: 0x0AEE [0x02] IF !(Work_Zone[3] < 1*) GOTO 0x0AFB
486: 0x0AF6 [0x03] ExtData[1]->WorkLocal[0] = 1*
487: 0x0AFB [0x02] IF !(Work_Zone[4] < 1*) GOTO 0x0B08
488: 0x0B03 [0x03] ExtData[1]->WorkLocal[0] = 1*
489: 0x0B08 [0x02] IF !(ExtData[1]->WorkLocal[0] == 1*) GOTO 0x0B16
490: 0x0B10 [0x01] GOTO 0x0000

SUBROUTINE_0B1B:
491: 0x0B1B [0x01] GOTO 0x0B1E

SUBROUTINE_0B1E:
492: 0x0B1E [0x01] GOTO 0x0DB1
493: 0x0B21 [0x02] IF !(Work_Zone[0] == 18*) GOTO 0x0BC5
494: 0x0B29 [0x03] Work_Zone_1700[15] = 18*
495: 0x0B2E [0x24] CREATE_DIALOG(message_id=7434*, default_option=1*, option_flags=0*)
    → "Remove the [0/0/weapon/head & neck/body/hand/leg & foot/back & waist/ranged wpn. & ammo/earrings & rings/support job/job abilities/spellcasting/strength/dexterity/vitality/agility/intelligence/mind/charisma/max HP/max MP] restriction? [Yes./No.]"
496: 0x0B35 [0x25] WAIT_DIALOG_SELECT()
497: 0x0B36 [0x02] IF !(Work_Zone[0] == 0*) GOTO 0x0B7C
498: 0x0B3E [0x03] Work_Zone[1] = 18*
499: 0x0B43 [0x43] SEND_EVENT_UPDATE: Send pending tag to server (packet 0x005B)
500: 0x0B45 [0x43] SEND_EVENT_UPDATE: Check pending flag (skip if not pending)
501: 0x0B47 [0x03] ExtData[1]->WorkLocal[0] = 0*
502: 0x0B4C [0x02] IF !(Work_Zone[3] < 1*) GOTO 0x0B59
503: 0x0B54 [0x03] ExtData[1]->WorkLocal[0] = 1*
504: 0x0B59 [0x02] IF !(Work_Zone[4] < 1*) GOTO 0x0B66
505: 0x0B61 [0x03] ExtData[1]->WorkLocal[0] = 1*
506: 0x0B66 [0x02] IF !(ExtData[1]->WorkLocal[0] == 1*) GOTO 0x0B74
507: 0x0B6E [0x01] GOTO 0x0000

SUBROUTINE_0B79:
508: 0x0B79 [0x01] GOTO 0x0BC2
509: 0x0B7C [0x02] IF !(Work_Zone[0] == 1*) GOTO 0x0BC2
510: 0x0B84 [0x03] Work_Zone[1] = 1*
511: 0x0B89 [0x43] SEND_EVENT_UPDATE: Send pending tag to server (packet 0x005B)
512: 0x0B8B [0x43] SEND_EVENT_UPDATE: Check pending flag (skip if not pending)
513: 0x0B8D [0x03] ExtData[1]->WorkLocal[0] = 0*
514: 0x0B92 [0x02] IF !(Work_Zone[3] < 1*) GOTO 0x0B9F
515: 0x0B9A [0x03] ExtData[1]->WorkLocal[0] = 1*
516: 0x0B9F [0x02] IF !(Work_Zone[4] < 1*) GOTO 0x0BAC
517: 0x0BA7 [0x03] ExtData[1]->WorkLocal[0] = 1*
518: 0x0BAC [0x02] IF !(ExtData[1]->WorkLocal[0] == 1*) GOTO 0x0BBA
519: 0x0BB4 [0x01] GOTO 0x0000

SUBROUTINE_0BBF:
520: 0x0BBF [0x01] GOTO 0x0BC2

SUBROUTINE_0BC2:
521: 0x0BC2 [0x01] GOTO 0x0DB1
522: 0x0BC5 [0x02] IF !(Work_Zone[0] == 19*) GOTO 0x0C69
523: 0x0BCD [0x03] Work_Zone_1700[15] = 19*
524: 0x0BD2 [0x24] CREATE_DIALOG(message_id=7434*, default_option=1*, option_flags=0*)
    → "Remove the [0/0/weapon/head & neck/body/hand/leg & foot/back & waist/ranged wpn. & ammo/earrings & rings/support job/job abilities/spellcasting/strength/dexterity/vitality/agility/intelligence/mind/charisma/max HP/max MP] restriction? [Yes./No.]"
525: 0x0BD9 [0x25] WAIT_DIALOG_SELECT()
526: 0x0BDA [0x02] IF !(Work_Zone[0] == 0*) GOTO 0x0C20
527: 0x0BE2 [0x03] Work_Zone[1] = 19*
528: 0x0BE7 [0x43] SEND_EVENT_UPDATE: Send pending tag to server (packet 0x005B)
529: 0x0BE9 [0x43] SEND_EVENT_UPDATE: Check pending flag (skip if not pending)
530: 0x0BEB [0x03] ExtData[1]->WorkLocal[0] = 0*
531: 0x0BF0 [0x02] IF !(Work_Zone[3] < 1*) GOTO 0x0BFD
532: 0x0BF8 [0x03] ExtData[1]->WorkLocal[0] = 1*
533: 0x0BFD [0x02] IF !(Work_Zone[4] < 1*) GOTO 0x0C0A
534: 0x0C05 [0x03] ExtData[1]->WorkLocal[0] = 1*
535: 0x0C0A [0x02] IF !(ExtData[1]->WorkLocal[0] == 1*) GOTO 0x0C18
536: 0x0C12 [0x01] GOTO 0x0000

SUBROUTINE_0C1D:
537: 0x0C1D [0x01] GOTO 0x0C66
538: 0x0C20 [0x02] IF !(Work_Zone[0] == 1*) GOTO 0x0C66
539: 0x0C28 [0x03] Work_Zone[1] = 1*
540: 0x0C2D [0x43] SEND_EVENT_UPDATE: Send pending tag to server (packet 0x005B)
541: 0x0C2F [0x43] SEND_EVENT_UPDATE: Check pending flag (skip if not pending)
542: 0x0C31 [0x03] ExtData[1]->WorkLocal[0] = 0*
543: 0x0C36 [0x02] IF !(Work_Zone[3] < 1*) GOTO 0x0C43
544: 0x0C3E [0x03] ExtData[1]->WorkLocal[0] = 1*
545: 0x0C43 [0x02] IF !(Work_Zone[4] < 1*) GOTO 0x0C50
546: 0x0C4B [0x03] ExtData[1]->WorkLocal[0] = 1*
547: 0x0C50 [0x02] IF !(ExtData[1]->WorkLocal[0] == 1*) GOTO 0x0C5E
548: 0x0C58 [0x01] GOTO 0x0000

SUBROUTINE_0C63:
549: 0x0C63 [0x01] GOTO 0x0C66

SUBROUTINE_0C66:
550: 0x0C66 [0x01] GOTO 0x0DB1
551: 0x0C69 [0x02] IF !(Work_Zone[0] == 20*) GOTO 0x0D0D
552: 0x0C71 [0x03] Work_Zone_1700[15] = 20*
553: 0x0C76 [0x24] CREATE_DIALOG(message_id=7434*, default_option=1*, option_flags=0*)
    → "Remove the [0/0/weapon/head & neck/body/hand/leg & foot/back & waist/ranged wpn. & ammo/earrings & rings/support job/job abilities/spellcasting/strength/dexterity/vitality/agility/intelligence/mind/charisma/max HP/max MP] restriction? [Yes./No.]"
554: 0x0C7D [0x25] WAIT_DIALOG_SELECT()
555: 0x0C7E [0x02] IF !(Work_Zone[0] == 0*) GOTO 0x0CC4
556: 0x0C86 [0x03] Work_Zone[1] = 20*
557: 0x0C8B [0x43] SEND_EVENT_UPDATE: Send pending tag to server (packet 0x005B)
558: 0x0C8D [0x43] SEND_EVENT_UPDATE: Check pending flag (skip if not pending)
559: 0x0C8F [0x03] ExtData[1]->WorkLocal[0] = 0*
560: 0x0C94 [0x02] IF !(Work_Zone[3] < 1*) GOTO 0x0CA1
561: 0x0C9C [0x03] ExtData[1]->WorkLocal[0] = 1*
562: 0x0CA1 [0x02] IF !(Work_Zone[4] < 1*) GOTO 0x0CAE
563: 0x0CA9 [0x03] ExtData[1]->WorkLocal[0] = 1*
564: 0x0CAE [0x02] IF !(ExtData[1]->WorkLocal[0] == 1*) GOTO 0x0CBC
565: 0x0CB6 [0x01] GOTO 0x0000

SUBROUTINE_0CC1:
566: 0x0CC1 [0x01] GOTO 0x0D0A
567: 0x0CC4 [0x02] IF !(Work_Zone[0] == 1*) GOTO 0x0D0A
568: 0x0CCC [0x03] Work_Zone[1] = 1*
569: 0x0CD1 [0x43] SEND_EVENT_UPDATE: Send pending tag to server (packet 0x005B)
570: 0x0CD3 [0x43] SEND_EVENT_UPDATE: Check pending flag (skip if not pending)
571: 0x0CD5 [0x03] ExtData[1]->WorkLocal[0] = 0*
572: 0x0CDA [0x02] IF !(Work_Zone[3] < 1*) GOTO 0x0CE7
573: 0x0CE2 [0x03] ExtData[1]->WorkLocal[0] = 1*
574: 0x0CE7 [0x02] IF !(Work_Zone[4] < 1*) GOTO 0x0CF4
575: 0x0CEF [0x03] ExtData[1]->WorkLocal[0] = 1*
576: 0x0CF4 [0x02] IF !(ExtData[1]->WorkLocal[0] == 1*) GOTO 0x0D02
577: 0x0CFC [0x01] GOTO 0x0000

SUBROUTINE_0D07:
578: 0x0D07 [0x01] GOTO 0x0D0A

SUBROUTINE_0D0A:
579: 0x0D0A [0x01] GOTO 0x0DB1
580: 0x0D0D [0x02] IF !(Work_Zone[0] == 21*) GOTO 0x0DB1
581: 0x0D15 [0x03] Work_Zone_1700[15] = 21*
582: 0x0D1A [0x24] CREATE_DIALOG(message_id=7434*, default_option=1*, option_flags=0*)
    → "Remove the [0/0/weapon/head & neck/body/hand/leg & foot/back & waist/ranged wpn. & ammo/earrings & rings/support job/job abilities/spellcasting/strength/dexterity/vitality/agility/intelligence/mind/charisma/max HP/max MP] restriction? [Yes./No.]"
583: 0x0D21 [0x25] WAIT_DIALOG_SELECT()
584: 0x0D22 [0x02] IF !(Work_Zone[0] == 0*) GOTO 0x0D68
585: 0x0D2A [0x03] Work_Zone[1] = 21*
586: 0x0D2F [0x43] SEND_EVENT_UPDATE: Send pending tag to server (packet 0x005B)
587: 0x0D31 [0x43] SEND_EVENT_UPDATE: Check pending flag (skip if not pending)
588: 0x0D33 [0x03] ExtData[1]->WorkLocal[0] = 0*
589: 0x0D38 [0x02] IF !(Work_Zone[3] < 1*) GOTO 0x0D45
590: 0x0D40 [0x03] ExtData[1]->WorkLocal[0] = 1*
591: 0x0D45 [0x02] IF !(Work_Zone[4] < 1*) GOTO 0x0D52
592: 0x0D4D [0x03] ExtData[1]->WorkLocal[0] = 1*
593: 0x0D52 [0x02] IF !(ExtData[1]->WorkLocal[0] == 1*) GOTO 0x0D60
594: 0x0D5A [0x01] GOTO 0x0000

SUBROUTINE_0D65:
595: 0x0D65 [0x01] GOTO 0x0DAE
596: 0x0D68 [0x02] IF !(Work_Zone[0] == 1*) GOTO 0x0DAE
597: 0x0D70 [0x03] Work_Zone[1] = 1*
598: 0x0D75 [0x43] SEND_EVENT_UPDATE: Send pending tag to server (packet 0x005B)
599: 0x0D77 [0x43] SEND_EVENT_UPDATE: Check pending flag (skip if not pending)
600: 0x0D79 [0x03] ExtData[1]->WorkLocal[0] = 0*
601: 0x0D7E [0x02] IF !(Work_Zone[3] < 1*) GOTO 0x0D8B
602: 0x0D86 [0x03] ExtData[1]->WorkLocal[0] = 1*
603: 0x0D8B [0x02] IF !(Work_Zone[4] < 1*) GOTO 0x0D98
604: 0x0D93 [0x03] ExtData[1]->WorkLocal[0] = 1*
605: 0x0D98 [0x02] IF !(ExtData[1]->WorkLocal[0] == 1*) GOTO 0x0DA6
606: 0x0DA0 [0x01] GOTO 0x0000

SUBROUTINE_0DAB:
607: 0x0DAB [0x01] GOTO 0x0DAE

SUBROUTINE_0DAE:
608: 0x0DAE [0x01] GOTO 0x0DB1

SUBROUTINE_0DB1:
609: 0x0DB1 [0x21] END_EVENT
610: 0x0DB2 [0x00] END_REQSTACK()
```

#### Data or dead code:

```
# Dead code (unreachable instructions):
     0x0131 [0x01] GOTO 0x0139
# Dead code (unreachable instructions):
     0x0177 [0x01] GOTO 0x017F
# Dead code (unreachable instructions):
     0x01D5 [0x01] GOTO 0x01DD
# Dead code (unreachable instructions):
     0x021B [0x01] GOTO 0x0223
# Dead code (unreachable instructions):
     0x0279 [0x01] GOTO 0x0281
# Dead code (unreachable instructions):
     0x02BF [0x01] GOTO 0x02C7
# Dead code (unreachable instructions):
     0x031D [0x01] GOTO 0x0325
# Dead code (unreachable instructions):
     0x0363 [0x01] GOTO 0x036B
# Dead code (unreachable instructions):
     0x03C1 [0x01] GOTO 0x03C9
# Dead code (unreachable instructions):
     0x0407 [0x01] GOTO 0x040F
# Dead code (unreachable instructions):
     0x0465 [0x01] GOTO 0x046D
# Dead code (unreachable instructions):
     0x04AB [0x01] GOTO 0x04B3
# Dead code (unreachable instructions):
     0x0509 [0x01] GOTO 0x0511
# Dead code (unreachable instructions):
     0x054F [0x01] GOTO 0x0557
# Dead code (unreachable instructions):
     0x05AD [0x01] GOTO 0x05B5
# Dead code (unreachable instructions):
     0x05F3 [0x01] GOTO 0x05FB
# Dead code (unreachable instructions):
     0x0651 [0x01] GOTO 0x0659
# Dead code (unreachable instructions):
     0x0697 [0x01] GOTO 0x069F
# Dead code (unreachable instructions):
     0x06F5 [0x01] GOTO 0x06FD
# Dead code (unreachable instructions):
     0x073B [0x01] GOTO 0x0743
# Dead code (unreachable instructions):
     0x0799 [0x01] GOTO 0x07A1
# Dead code (unreachable instructions):
     0x07DF [0x01] GOTO 0x07E7
# Dead code (unreachable instructions):
     0x083D [0x01] GOTO 0x0845
# Dead code (unreachable instructions):
     0x0883 [0x01] GOTO 0x088B
# Dead code (unreachable instructions):
     0x08E1 [0x01] GOTO 0x08E9
# Dead code (unreachable instructions):
     0x0927 [0x01] GOTO 0x092F
# Dead code (unreachable instructions):
     0x0985 [0x01] GOTO 0x098D
# Dead code (unreachable instructions):
     0x09CB [0x01] GOTO 0x09D3
# Dead code (unreachable instructions):
     0x0A29 [0x01] GOTO 0x0A31
# Dead code (unreachable instructions):
     0x0A6F [0x01] GOTO 0x0A77
# Dead code (unreachable instructions):
     0x0ACD [0x01] GOTO 0x0AD5
# Dead code (unreachable instructions):
     0x0B13 [0x01] GOTO 0x0B1B
# Dead code (unreachable instructions):
     0x0B71 [0x01] GOTO 0x0B79
# Dead code (unreachable instructions):
     0x0BB7 [0x01] GOTO 0x0BBF
# Dead code (unreachable instructions):
     0x0C15 [0x01] GOTO 0x0C1D
# Dead code (unreachable instructions):
     0x0C5B [0x01] GOTO 0x0C63
# Dead code (unreachable instructions):
     0x0CB9 [0x01] GOTO 0x0CC1
# Dead code (unreachable instructions):
     0x0CFF [0x01] GOTO 0x0D07
# Dead code (unreachable instructions):
     0x0D5D [0x01] GOTO 0x0D65
# Dead code (unreachable instructions):
     0x0DA3 [0x01] GOTO 0x0DAB
```
