# Event 1003

## Metadata

| Field           | Value     |
|-----------------|-----------|
| Event Index     | 11/98     |
| Offset          | 0x097C    |
| Data Size       | 885 bytes |
| Calculated Size | 885 bytes |
| Instructions    | 31        |

```
      00 01 02 03 04 05 06 07  08 09 0A 0B 0C 0D 0E 0F
      -- -- -- -- -- -- -- --  -- -- -- -- -- -- -- --
0970:                                      42 46 01 45              BF.E
0980: 0E 80 F8 FF FF 7F F8 FF  FF 7F 66 64 6F 31 0F 80  ..........fdo1..
0990: 1C 10 80 38 11 80 29 64  F0 FF FF 7F 18 29 08 F0  ...8..)d.....)..
09A0: FF FF 7F 39 45 15 80 F0  FF FF 7F F0 FF FF 7F 73  ...9E..........s
09B0: 30 31 38 0F 80 45 0E 80  F8 FF FF 7F F8 FF FF 7F  018..E..........
09C0: 66 64 69 31 0F 80 02 06  10 22 80 00 E9 09 03 05  fdi1....."......
09D0: 10 48 80 66 0B 80 F8 FF  FF 7F F8 FF FF 7F 74 6C  .H.f..........tl
09E0: 6B 30 1D 25 80 23 01 16  0A 66 0B 80 F8 FF FF 7F  k0.%.#...f......
09F0: F8 FF FF 7F 74 6C 6B 30  1D 4B 80 23 45 15 80 F0  ....tlk0.K.#E...
0A00: FF FF 7F F0 FF FF 7F 73  30 31 34 0F 80 03 05 10  .......s014.....
0A10: 48 80 1D 4C 80 23 45 0E  80 F8 FF FF 7F F8 FF FF  H..L.#E.........
0A20: 7F 66 64 6F 31 0F 80 1C  10 80 5E 69 64 6C 30 46  .fdo1.....^idl0F
0A30: 00 45 0E 80 F8 FF FF 7F  F8 FF FF 7F 66 64 69 31  .E..........fdi1
0A40: 0F 80 45 28 80 F0 FF FF  7F F0 FF FF 7F 71 73 74  ..E(.........qst
0A50: 63 0F 80 20 00 21 00 45  0E 80 F0 FF FF 7F F0 FF  c.. .!.E........
0A60: FF 7F 6F 76 6C 31 0F 80  45 12 80 F8 FF FF 7F F8  ..ovl1..E.......
0A70: FF FF 7F 73 30 34 32 0F  80 66 0B 80 F8 FF FF 7F  ...s042..f......
0A80: F8 FF FF 7F 74 6C 6B 30  1D 4D 80 23 5E 69 64 6C  ....tlk0.M.#^idl
0A90: 30 1D 4E 80 23 52 12 80  F8 FF FF 7F F8 FF FF 7F  0.N.#R..........
0AA0: 73 30 34 32 45 12 80 F8  FF FF 7F F8 FF FF 7F 73  s042E..........s
0AB0: 30 38 31 0F 80 66 0B 80  F8 FF FF 7F F8 FF FF 7F  081..f..........
0AC0: 74 68 6B 31 1D 4F 80 23  1D 50 80 23 1D 51 80 23  thk1.O.#.P.#.Q.#
0AD0: 52 12 80 F8 FF FF 7F F8  FF FF 7F 73 30 38 31 45  R..........s081E
0AE0: 12 80 F8 FF FF 7F F8 FF  FF 7F 73 30 34 32 0F 80  ..........s042..
0AF0: 1D 52 80 23 66 0B 80 F8  FF FF 7F F8 FF FF 7F 74  .R.#f..........t
0B00: 68 6B 32 53 F8 FF FF 7F  F8 FF FF 7F 74 68 6B 32  hk2S........thk2
0B10: 1C 0D 80 52 12 80 F8 FF  FF 7F F8 FF FF 7F 73 30  ...R..........s0
0B20: 34 32 45 0E 80 F0 FF FF  7F F0 FF FF 7F 6F 76 6C  42E..........ovl
0B30: 31 0F 80 45 15 80 F0 FF  FF 7F F0 FF FF 7F 73 30  1..E..........s0
0B40: 31 34 0F 80 66 0B 80 F8  FF FF 7F F8 FF FF 7F 70  14..f..........p
0B50: 6F 69 31 1D 53 80 23 66  0B 80 F8 FF FF 7F F8 FF  oi1.S.#f........
0B60: FF 7F 70 6F 69 32 53 F8  FF FF 7F F8 FF FF 7F 70  ..poi2S........p
0B70: 6F 69 32 1C 0D 80 66 0B  80 F8 FF FF 7F F8 FF FF  oi2...f.........
0B80: 7F 74 6C 6B 30 1D 54 80  23 5E 69 64 6C 30 24 19  .tlk0.T.#^idl0$.
0B90: 80 0F 80 0F 80 25 02 00  10 0F 80 00 A1 0C 45 12  .....%........E.
0BA0: 80 F8 FF FF 7F F8 FF FF  7F 73 30 39 30 0F 80 66  .........s090..f
0BB0: 0B 80 F8 FF FF 7F F8 FF  FF 7F 74 6C 6B 30 1D 55  ..........tlk0.U
0BC0: 80 23 1D 56 80 23 52 12  80 F8 FF FF 7F F8 FF FF  .#.V.#R.........
0BD0: 7F 73 30 39 30 45 0E 80  F0 FF FF 7F F0 FF FF 7F  .s090E..........
0BE0: 6F 76 6C 31 0F 80 02 09  10 1D 80 00 02 0C 45 12  ovl1..........E.
0BF0: 80 F8 FF FF 7F F8 FF FF  7F 73 30 39 31 0F 80 01  .........s091...
0C00: 2F 0C 02 09 10 1E 80 00  1E 0C 45 12 80 F8 FF FF  /.........E.....
0C10: 7F F8 FF FF 7F 73 30 39  31 0F 80 01 2F 0C 45 15  .....s091.../.E.
0C20: 80 F0 FF FF 7F F0 FF FF  7F 73 30 31 37 0F 80 1D  .........s017...
0C30: 57 80 23 1D 1F 80 23 5E  69 64 6C 30 24 20 80 0F  W.#...#^idl0$ ..
0C40: 80 0F 80 25 02 00 10 0F  80 00 80 0C 45 12 80 F8  ...%........E...
0C50: FF FF 7F F8 FF FF 7F 73  30 38 38 0F 80 66 0B 80  .......s088..f..
0C60: F8 FF FF 7F F8 FF FF 7F  74 6C 6B 30 1D 58 80 23  ........tlk0.X.#
0C70: 5E 69 64 6C 30 1C 0D 80  03 01 10 23 80 01 9E 0C  ^idl0......#....
0C80: 02 00 10 22 80 00 8E 0C  01 9E 0B 01 9E 0C 02 00  ..."............
0C90: 10 23 80 00 9E 0C 03 01  10 24 80 01 9E 0C 01 B1  .#.......$......
0CA0: 0C 02 00 10 22 80 00 B1  0C 03 01 10 24 80 01 B1  ....".......$...
0CB0: 0C 45 0E 80 F8 FF FF 7F  F8 FF FF 7F 66 64 6F 31  .E..........fdo1
0CC0: 0F 80 1C 10 80 52 12 80  F8 FF FF 7F F8 FF FF 7F  .....R..........
0CD0: 73 30 38 38 46 00 45 0E  80 F8 FF FF 7F F8 FF FF  s088F.E.........
0CE0: 7F 66 64 69 31 0F 80 21  00 29 0F 61 60 0E 01 46  .fdi1..!.).a`..F
0CF0: 00                                                .               
```

## Opcodes

```
  0: 0x097C [0x42] SET_CLI_EVENT_CANCEL_DATA()
  1: 0x097D [0x46] CAMERA_CONTROL: Disable user control
  2: 0x097F [0x45] LOAD_SCHEDULED_TASK: Load scheduler "fdo1" with entities [EventEntity, EventEntity], work=[200*, 0*]
  3: 0x0990 [0x1C] WAIT(60* ticks)
  4: 0x0993 [0x38] SET_CLIENT_EVENT_MODE(mode=3*)
  5: 0x0996 [0x29] REQ_SET_WAIT(priority=0x64, entity_id=LocalPlayer, tag_num=0x18)
  6: 0x099D [0x29] REQ_SET_WAIT(priority=0x08, entity_id=LocalPlayer, tag_num=0x39)
  7: 0x09A4 [0x45] LOAD_SCHEDULED_TASK: Load scheduler "s018" with entities [LocalPlayer, LocalPlayer], work=[130*, 0*]
  8: 0x09B5 [0x45] LOAD_SCHEDULED_TASK: Load scheduler "fdi1" with entities [EventEntity, EventEntity], work=[200*, 0*]
  9: 0x09C6 [0x02] IF !(Work_Zone[6] == 1*) GOTO 0x09E9
 10: 0x09CE [0x03] Work_Zone[5] = 891*
 11: 0x09D3 [0x66] LOAD_EXT_SCHEDULER_MAIN: Load scheduler "tlk0" with entities [EventEntity, EventEntity], work=20*
 12: 0x09E2 [0x1D] PRINT_EVENT_MESSAGE(message_id=9213*)
    → "I knew you'd return safely, and with the \u0001\u0005#\u0002\u0003\u0000\u0000. Mission completed!\u007F1\u0000\u0007"
 13: 0x09E5 [0x23] WAIT_FOR_DIALOG_INTERACTION
 14: 0x09E6 [0x01] GOTO 0x0A16
 15: 0x09E9 [0x66] LOAD_EXT_SCHEDULER_MAIN: Load scheduler "tlk0" with entities [EventEntity, EventEntity], work=20*
 16: 0x09F8 [0x1D] PRINT_EVENT_MESSAGE(message_id=7256*)
    → "Ah, you've returned! I was afraid that Goblins got you.\u007F1\u0000\u0007"
 17: 0x09FB [0x23] WAIT_FOR_DIALOG_INTERACTION
 18: 0x09FC [0x45] LOAD_SCHEDULED_TASK: Load scheduler "s014" with entities [LocalPlayer, LocalPlayer], work=[130*, 0*]
 19: 0x0A0D [0x03] Work_Zone[5] = 891*
 20: 0x0A12 [0x1D] PRINT_EVENT_MESSAGE(message_id=7257*)
    → "That's one \u0001\u0005#\u0002\u0003\u0000\u0000 for the gatehouse, then. Mission complete. Not bad for a new recruit.\u007F1\u0000\u0007"
 21: 0x0A15 [0x23] WAIT_FOR_DIALOG_INTERACTION
 22: 0x0A16 [0x45] LOAD_SCHEDULED_TASK: Load scheduler "fdo1" with entities [EventEntity, EventEntity], work=[200*, 0*]
 23: 0x0A27 [0x1C] WAIT(60* ticks)
 24: 0x0A2A [0x5E] EventEntity goes idle (kills current action) (animation: "idl0")
 25: 0x0A2F [0x46] CAMERA_CONTROL: Restore default settings
 26: 0x0A31 [0x45] LOAD_SCHEDULED_TASK: Load scheduler "fdi1" with entities [EventEntity, EventEntity], work=[200*, 0*]
 27: 0x0A42 [0x45] LOAD_SCHEDULED_TASK: Load scheduler "qstc" with entities [LocalPlayer, LocalPlayer], work=[201*, 0*]
 28: 0x0A53 [0x20] SET_CLI_EVENT_UC_FLAG: Unlock player control
 29: 0x0A55 [0x21] END_EVENT
 30: 0x0A56 [0x00] END_REQSTACK()
```

## Data or dead code:

```
# Dead code (unreachable instructions):
     0x0A57 [0x45] LOAD_SCHEDULED_TASK: Load scheduler "ovl1" with entities [LocalPlayer, LocalPlayer], work=[200*, 0*]
     0x0A68 [0x45] LOAD_SCHEDULED_TASK: Load scheduler "s042" with entities [EventEntity, EventEntity], work=[90*, 0*]
     0x0A79 [0x66] LOAD_EXT_SCHEDULER_MAIN: Load scheduler "tlk0" with entities [EventEntity, EventEntity], work=20*
     0x0A88 [0x1D] PRINT_EVENT_MESSAGE(message_id=7258*)
    → "Ah, the recruit's back again? I'm sorry, but I've no time for you today.\u007F1\u0000\u0007"
     0x0A8B [0x23] WAIT_FOR_DIALOG_INTERACTION
     0x0A8C [0x5E] EventEntity goes idle (kills current action) (animation: "idl0")
     0x0A91 [0x1D] PRINT_EVENT_MESSAGE(message_id=7259*)
    → "Well, perhaps you can be of some help. Many of our children have disappeared mysteriously, and I've no doubt the Ghelsba Orcs are behind it.\u007F1\u0000\u0007"
     0x0A94 [0x23] WAIT_FOR_DIALOG_INTERACTION
     0x0A95 [0x52] END_LOAD_SCHEDULER: End scheduler "s042" with entities [EventEntity, EventEntity], work=90*
     0x0AA4 [0x45] LOAD_SCHEDULED_TASK: Load scheduler "s081" with entities [EventEntity, EventEntity], work=[90*, 0*]
     0x0AB5 [0x66] LOAD_EXT_SCHEDULER_MAIN: Load scheduler "thk1" with entities [EventEntity, EventEntity], work=20*
     0x0AC4 [0x1D] PRINT_EVENT_MESSAGE(message_id=7260*)
    → "The Royal Knights should be on the job by now, but the two princes are at each other's throats.\u007F1\u0000\u0007"
     0x0AC7 [0x23] WAIT_FOR_DIALOG_INTERACTION
     0x0AC8 [0x1D] PRINT_EVENT_MESSAGE(message_id=7261*)
    → "Prince Trion, the eldest, says we should launch a full attack, with all haste.\u007F1\u0000\u0007"
     0x0ACB [0x23] WAIT_FOR_DIALOG_INTERACTION
     0x0ACC [0x1D] PRINT_EVENT_MESSAGE(message_id=7262*)
    → "While his younger brother, Prince Pieuje says the safety of the children comes first, and he won't authorize an attack.\u007F1\u0000\u0007"
     0x0ACF [0x23] WAIT_FOR_DIALOG_INTERACTION
     0x0AD0 [0x52] END_LOAD_SCHEDULER: End scheduler "s081" with entities [EventEntity, EventEntity], work=90*
     0x0ADF [0x45] LOAD_SCHEDULED_TASK: Load scheduler "s042" with entities [EventEntity, EventEntity], work=[90*, 0*]
     0x0AF0 [0x1D] PRINT_EVENT_MESSAGE(message_id=7263*)
    → "They've been arguing this back and forth for days. The knights' hands are tied, and frankly, nobody knows what to do.\u007F1\u0000\u0007"
     0x0AF3 [0x23] WAIT_FOR_DIALOG_INTERACTION
     0x0AF4 [0x66] LOAD_EXT_SCHEDULER_MAIN: Load scheduler "thk2" with entities [EventEntity, EventEntity], work=20*
     0x0B03 [0x53] WAIT_SCHEDULER_TASK: Wait for scheduler "thk2" with entities [EventEntity, EventEntity]
     0x0B10 [0x1C] WAIT(30* ticks)
     0x0B13 [0x52] END_LOAD_SCHEDULER: End scheduler "s042" with entities [EventEntity, EventEntity], work=90*
     0x0B22 [0x45] LOAD_SCHEDULED_TASK: Load scheduler "ovl1" with entities [LocalPlayer, LocalPlayer], work=[200*, 0*]
     0x0B33 [0x45] LOAD_SCHEDULED_TASK: Load scheduler "s014" with entities [LocalPlayer, LocalPlayer], work=[130*, 0*]
     0x0B44 [0x66] LOAD_EXT_SCHEDULER_MAIN: Load scheduler "poi1" with entities [EventEntity, EventEntity], work=20*
     0x0B53 [0x1D] PRINT_EVENT_MESSAGE(message_id=7264*)
    → "If you really want to make a name for yourself, go to Ghelsba, and rescue those kidnapped children!\u007F1\u0000\u0007"
     0x0B56 [0x23] WAIT_FOR_DIALOG_INTERACTION
     0x0B57 [0x66] LOAD_EXT_SCHEDULER_MAIN: Load scheduler "poi2" with entities [EventEntity, EventEntity], work=20*
     0x0B66 [0x53] WAIT_SCHEDULER_TASK: Wait for scheduler "poi2" with entities [EventEntity, EventEntity]
     0x0B73 [0x1C] WAIT(30* ticks)
     0x0B76 [0x66] LOAD_EXT_SCHEDULER_MAIN: Load scheduler "tlk0" with entities [EventEntity, EventEntity], work=20*
     0x0B85 [0x1D] PRINT_EVENT_MESSAGE(message_id=7265*)
    → "What say you? Will you go?\u007F1\u0000\u0007"
     0x0B88 [0x23] WAIT_FOR_DIALOG_INTERACTION
     0x0B89 [0x5E] EventEntity goes idle (kills current action) (animation: "idl0")
     0x0B8E [0x24] CREATE_DIALOG(message_id=7240*, default_option=0*, option_flags=0*)
    → "Interested?\u0007\u000BTell me more.\u0007Never mind.\u007F1\u0000\u0007"
     0x0B95 [0x25] WAIT_DIALOG_SELECT()
     0x0B96 [0x02] IF !(Work_Zone[0] == 0*) GOTO 0x0CA1
     0x0B9E [0x45] LOAD_SCHEDULED_TASK: Load scheduler "s090" with entities [EventEntity, EventEntity], work=[90*, 0*]
     0x0BAF [0x66] LOAD_EXT_SCHEDULER_MAIN: Load scheduler "tlk0" with entities [EventEntity, EventEntity], work=20*
     0x0BBE [0x1D] PRINT_EVENT_MESSAGE(message_id=7266*)
    → "Here's your mission, then. Rescue the two children kidnapped by the Orcs of Ghelsba Outpost.\u007F1\u0000\u0007"
     0x0BC1 [0x23] WAIT_FOR_DIALOG_INTERACTION
     0x0BC2 [0x1D] PRINT_EVENT_MESSAGE(message_id=7267*)
    → "Ghelsba Outpost is northwest of West Ronfaure. Take the path before the Westgate, then turn right when the path splits in the forest. You'll find the entrance up in the hills.\u007F1\u0000\u0007"
     0x0BC5 [0x23] WAIT_FOR_DIALOG_INTERACTION
     0x0BC6 [0x52] END_LOAD_SCHEDULER: End scheduler "s090" with entities [EventEntity, EventEntity], work=90*
     0x0BD5 [0x45] LOAD_SCHEDULED_TASK: Load scheduler "ovl1" with entities [LocalPlayer, LocalPlayer], work=[200*, 0*]
     0x0BE6 [0x02] IF !(Work_Zone[9] == 5*) GOTO 0x0C02
     0x0BEE [0x45] LOAD_SCHEDULED_TASK: Load scheduler "s091" with entities [EventEntity, EventEntity], work=[90*, 0*]
     0x0BFF [0x01] GOTO 0x0C2F
     0x0C02 [0x02] IF !(Work_Zone[9] == 6*) GOTO 0x0C1E
     0x0C0A [0x45] LOAD_SCHEDULED_TASK: Load scheduler "s091" with entities [EventEntity, EventEntity], work=[90*, 0*]
     0x0C1B [0x01] GOTO 0x0C2F
     0x0C1E [0x45] LOAD_SCHEDULED_TASK: Load scheduler "s017" with entities [LocalPlayer, LocalPlayer], work=[130*, 0*]
     0x0C2F [0x1D] PRINT_EVENT_MESSAGE(message_id=7268*)
    → "If you have trouble finding the way, just follow one of the soldiers on patrol.\u007F1\u0000\u0007"
     0x0C32 [0x23] WAIT_FOR_DIALOG_INTERACTION
     0x0C33 [0x1D] PRINT_EVENT_MESSAGE(message_id=7243*)
    → "That is all. You'll take the mission then?\u007F1\u0000\u0007"
     0x0C36 [0x23] WAIT_FOR_DIALOG_INTERACTION
     0x0C37 [0x5E] EventEntity goes idle (kills current action) (animation: "idl0")
     0x0C3C [0x24] CREATE_DIALOG(message_id=7244*, default_option=0*, option_flags=0*)
    → "Do you accept the mission?\u0007\u000BI accept.\u0007Could you explain again?\u0007No, thank you.\u007F1\u0000\u0007"
     0x0C43 [0x25] WAIT_DIALOG_SELECT()
     0x0C44 [0x02] IF !(Work_Zone[0] == 0*) GOTO 0x0C80
     0x0C4C [0x45] LOAD_SCHEDULED_TASK: Load scheduler "s088" with entities [EventEntity, EventEntity], work=[90*, 0*]
     0x0C5D [0x66] LOAD_EXT_SCHEDULER_MAIN: Load scheduler "tlk0" with entities [EventEntity, EventEntity], work=20*
     0x0C6C [0x1D] PRINT_EVENT_MESSAGE(message_id=7269*)
    → "Orcs tend to keep their hostages in tents or small huts. Once you're inside the compound, check them first.\u007F1\u0000\u0007"
     0x0C6F [0x23] WAIT_FOR_DIALOG_INTERACTION
     0x0C70 [0x5E] EventEntity goes idle (kills current action) (animation: "idl0")
     0x0C75 [0x1C] WAIT(30* ticks)
     0x0C78 [0x03] Work_Zone[1] = 2*
     0x0C7D [0x01] GOTO 0x0C9E
     0x0C80 [0x02] IF !(Work_Zone[0] == 1*) GOTO 0x0C8E
     0x0C88 [0x01] GOTO 0x0B9E
     0x0C8B [0x01] GOTO 0x0C9E
     0x0C8E [0x02] IF !(Work_Zone[0] == 2*) GOTO 0x0C9E
     0x0C96 [0x03] Work_Zone[1] = 1073741824*
     0x0C9B [0x01] GOTO 0x0C9E
     0x0C9E [0x01] GOTO 0x0CB1
     0x0CA1 [0x02] IF !(Work_Zone[0] == 1*) GOTO 0x0CB1
     0x0CA9 [0x03] Work_Zone[1] = 1073741824*
     0x0CAE [0x01] GOTO 0x0CB1
     0x0CB1 [0x45] LOAD_SCHEDULED_TASK: Load scheduler "fdo1" with entities [EventEntity, EventEntity], work=[200*, 0*]
     0x0CC2 [0x1C] WAIT(60* ticks)
     0x0CC5 [0x52] END_LOAD_SCHEDULER: End scheduler "s088" with entities [EventEntity, EventEntity], work=90*
     0x0CD4 [0x46] CAMERA_CONTROL: Restore default settings
     0x0CD6 [0x45] LOAD_SCHEDULED_TASK: Load scheduler "fdi1" with entities [EventEntity, EventEntity], work=[200*, 0*]
     0x0CE7 [0x21] END_EVENT
     0x0CE8 [0x00] END_REQSTACK()
     0x0CE9 [0x29] REQ_SET_WAIT(priority=0x0F, entity_id=Endracion (ID: 17719393/0x010E6061), tag_num=0x46)
     0x0CF0 [0x00] END_REQSTACK()
```