# Event 1021

## Metadata

| Field           | Value    |
|-----------------|----------|
| Event Index     | 66/98    |
| Offset          | 0x2BF7   |
| Data Size       | 33 bytes |
| Calculated Size | 33 bytes |
| Instructions    | 12       |

```
      00 01 02 03 04 05 06 07  08 09 0A 0B 0C 0D 0E 0F
      -- -- -- -- -- -- -- --  -- -- -- -- -- -- -- --
2BF0:                      1E  F0 FF FF 7F 6F 70 29 08         .....op).
2C00: 61 60 0E 01 1B 1D EF 80  23 1D F0 80 23 29 08 61  a`......#...#).a
2C10: 60 0E 01 1C 20 00 21 00                           `... .!.        
```

## Opcodes

```
  0: 0x2BF7 [0x1E] EventEntity looks at LocalPlayer and starts talking
  1: 0x2BFC [0x6F] WAIT_FRAME_DELAY: Yield until WaitTime reaches zero
  2: 0x2BFD [0x70] WAIT_ENTITY_RENDER_FLAG: Wait while EventEntity->Render.Flags3 bit 2 is set (cancel turn if not)
  3: 0x2BFE [0x29] REQ_SET_WAIT(priority=0x08, entity_id=Endracion (ID: 17719393/0x010E6061), tag_num=0x1B)
  4: 0x2C05 [0x1D] PRINT_EVENT_MESSAGE(message_id=9223*)
    → "Visitors report missing gravestones and shadows twisting in the caverns. Scour the tomb and determine if they speak the truth.\u007F1\u0000\u0007"
  5: 0x2C08 [0x23] WAIT_FOR_DIALOG_INTERACTION
  6: 0x2C09 [0x1D] PRINT_EVENT_MESSAGE(message_id=9224*)
    → "Make haste to King Ranperre's Tomb. You may find proof of grave-robbers there.\u007F1\u0000\u0007"
  7: 0x2C0C [0x23] WAIT_FOR_DIALOG_INTERACTION
  8: 0x2C0D [0x29] REQ_SET_WAIT(priority=0x08, entity_id=Endracion (ID: 17719393/0x010E6061), tag_num=0x1C)
  9: 0x2C14 [0x20] SET_CLI_EVENT_UC_FLAG: Unlock player control
 10: 0x2C16 [0x21] END_EVENT
 11: 0x2C17 [0x00] END_REQSTACK()
```
