# Event 1025

## Metadata

| Field           | Value    |
|-----------------|----------|
| Event Index     | 79/98    |
| Offset          | 0x2F90   |
| Data Size       | 33 bytes |
| Calculated Size | 33 bytes |
| Instructions    | 12       |

```
      00 01 02 03 04 05 06 07  08 09 0A 0B 0C 0D 0E 0F
      -- -- -- -- -- -- -- --  -- -- -- -- -- -- -- --
2F90: 1E F0 FF FF 7F 6F 70 29  08 61 60 0E 01 1B 1D FD  .....op).a`.....
2FA0: 80 23 1D FE 80 23 29 08  61 60 0E 01 1C 20 00 21  .#...#).a`... .!
2FB0: 00                                                .               
```

## Opcodes

```
  0: 0x2F90 [0x1E] EventEntity looks at LocalPlayer and starts talking
  1: 0x2F95 [0x6F] WAIT_FRAME_DELAY: Yield until WaitTime reaches zero
  2: 0x2F96 [0x70] WAIT_ENTITY_RENDER_FLAG: Wait while EventEntity->Render.Flags3 bit 2 is set (cancel turn if not)
  3: 0x2F97 [0x29] REQ_SET_WAIT(priority=0x08, entity_id=Endracion (ID: 17719393/0x010E6061), tag_num=0x1B)
  4: 0x2F9E [0x1D] PRINT_EVENT_MESSAGE(message_id=9237*)
    → "A boy training to be a friar went near Ghelsba and did not return. His name was Tedimout.\u007F1\u0000\u0007"
  5: 0x2FA1 [0x23] WAIT_FOR_DIALOG_INTERACTION
  6: 0x2FA2 [0x1D] PRINT_EVENT_MESSAGE(message_id=9238*)
    → "The Temple Knights may be mobilized soon. You must visit the cathedral and ask what this boy looks like.\u007F1\u0000\u0007"
  7: 0x2FA5 [0x23] WAIT_FOR_DIALOG_INTERACTION
  8: 0x2FA6 [0x29] REQ_SET_WAIT(priority=0x08, entity_id=Endracion (ID: 17719393/0x010E6061), tag_num=0x1C)
  9: 0x2FAD [0x20] SET_CLI_EVENT_UC_FLAG: Unlock player control
 10: 0x2FAF [0x21] END_EVENT
 11: 0x2FB0 [0x00] END_REQSTACK()
```
