# Event 1028

## Metadata

| Field           | Value    |
|-----------------|----------|
| Event Index     | 87/98    |
| Offset          | 0x3226   |
| Data Size       | 33 bytes |
| Calculated Size | 33 bytes |
| Instructions    | 12       |

```
      00 01 02 03 04 05 06 07  08 09 0A 0B 0C 0D 0E 0F
      -- -- -- -- -- -- -- --  -- -- -- -- -- -- -- --
3220:                   1E F0  FF FF 7F 6F 70 29 08 61        .....op).a
3230: 60 0E 01 1B 1D 05 81 23  1D 06 81 23 29 08 61 60  `......#...#).a`
3240: 0E 01 1C 20 00 21 00                              ... .!.         
```

## Opcodes

```
  0: 0x3226 [0x1E] EventEntity looks at LocalPlayer and starts talking
  1: 0x322B [0x6F] WAIT_FRAME_DELAY: Yield until WaitTime reaches zero
  2: 0x322C [0x70] WAIT_ENTITY_RENDER_FLAG: Wait while EventEntity->Render.Flags3 bit 2 is set (cancel turn if not)
  3: 0x322D [0x29] REQ_SET_WAIT(priority=0x08, entity_id=Endracion (ID: 17719393/0x010E6061), tag_num=0x1B)
  4: 0x3234 [0x1D] PRINT_EVENT_MESSAGE(message_id=9249*)
    → "What? You were told to hand the \u0001\u00053\u0002\u0003\u0000\u0000 to Prince Pieuje personally?\u007F1\u0000\u0007"
  5: 0x3237 [0x23] WAIT_FOR_DIALOG_INTERACTION
  6: 0x3238 [0x1D] PRINT_EVENT_MESSAGE(message_id=9250*)
    → "Well, you should find His Highness in the cathedral.\u007F1\u0000\u0007"
  7: 0x323B [0x23] WAIT_FOR_DIALOG_INTERACTION
  8: 0x323C [0x29] REQ_SET_WAIT(priority=0x08, entity_id=Endracion (ID: 17719393/0x010E6061), tag_num=0x1C)
  9: 0x3243 [0x20] SET_CLI_EVENT_UC_FLAG: Unlock player control
 10: 0x3245 [0x21] END_EVENT
 11: 0x3246 [0x00] END_REQSTACK()
```
