# Event 1045

## Metadata

| Field           | Value      |
|-----------------|------------|
| Event Index     | 27/98      |
| Offset          | 0x1E6C     |
| Data Size       | 1109 bytes |
| Calculated Size | 1109 bytes |
| Instructions    | 15         |

```
      00 01 02 03 04 05 06 07  08 09 0A 0B 0C 0D 0E 0F
      -- -- -- -- -- -- -- --  -- -- -- -- -- -- -- --
1E60:                                      01 13 21 00              ..!.
1E70: 45 0E 80 F0 FF FF 7F F0  FF FF 7F 66 64 6F 32 0F  E..........fdo2.
1E80: 80 55 0E 80 F0 FF FF 7F  F0 FF FF 7F 66 64 6F 32  .U..........fdo2
1E90: 46 00 45 0E 80 F0 FF FF  7F F0 FF FF 7F 66 64 69  F.E..........fdi
1EA0: 32 0F 80 1B 1A 3D 22 1D  9C 80 23 1D 9D 80 23 1A  2....="...#...#.
1EB0: 4D 22 24 43 80 0F 80 0F  80 25 02 00 10 0F 80 00  M"$C.....%......
1EC0: D1 1E 1A 3D 22 1D 9E 80  23 03 01 10 37 80 01 E8  ...="...#...7...
1ED0: 1E 02 00 10 22 80 00 E8  1E 1A 3D 22 1D 9F 80 23  ....".....="...#
1EE0: 03 01 10 24 80 01 E8 1E  1A 4D 22 45 0E 80 F0 FF  ...$.....M"E....
1EF0: FF 7F F0 FF FF 7F 66 64  6F 32 0F 80 55 0E 80 F0  ......fdo2..U...
1F00: FF FF 7F F0 FF FF 7F 66  64 6F 32 46 00 45 0E 80  .......fdo2F.E..
1F10: F0 FF FF 7F F0 FF FF 7F  66 64 69 32 0F 80 21 00  ........fdi2..!.
1F20: 1A 3D 22 1D A0 80 23 1A  4D 22 24 43 80 0F 80 0F  .="...#.M"$C....
1F30: 80 25 02 00 10 0F 80 00  49 1F 1A 3D 22 1D A1 80  .%......I..="...
1F40: 23 03 01 10 38 80 01 60  1F 02 00 10 22 80 00 60  #...8..`...."..`
1F50: 1F 1A 3D 22 1D A2 80 23  03 01 10 24 80 01 60 1F  ..="...#...$..`.
1F60: 1A 4D 22 1A 70 1E 21 00  1A 73 22 1A 3D 22 1D A3  .M".p.!..s".="..
1F70: 80 23 1A 4D 22 1A 70 1E  21 00 1E F0 FF FF 7F 6F  .#.M".p.!......o
1F80: 70 1A 3D 22 03 02 10 A4  80 1D A5 80 23 1A 4D 22  p.="........#.M"
1F90: 21 00 1E F0 FF FF 7F 6F  70 1A 3D 22 03 02 10 A4  !......op.="....
1FA0: 80 1D A6 80 23 1A 4D 22  21 00 1A 73 22 1A 3D 22  ....#.M"!..s".="
1FB0: 1D A7 80 23 1D A8 80 23  1A 4D 22 7D A9 80 45 28  ...#...#.M"}..E(
1FC0: 80 F0 FF FF 7F F0 FF FF  7F 71 73 74 63 0F 80 1C  .........qstc...
1FD0: 0E 80 1A 70 1E 21 00 1A  3D 22 1D AA 80 23 1A 4D  ...p.!..="...#.M
1FE0: 22 24 43 80 0F 80 0F 80  25 02 00 10 0F 80 00 00  "$C.....%.......
1FF0: 20 1A 3D 22 1D AB 80 23  03 01 10 39 80 01 17 20   .="...#...9... 
2000: 02 00 10 22 80 00 17 20  1A 3D 22 1D AC 80 23 03  ..."... .="...#.
2010: 01 10 24 80 01 17 20 1A  4D 22 1A 70 1E 21 00 1A  ..$... .M".p.!..
2020: 73 22 1A 3D 22 1D AD 80  23 1D AE 80 23 1D AF 80  s".="...#...#...
2030: 23 1A 4D 22 1A 70 1E 21  00 1A 3D 22 1D B0 80 23  #.M".p.!..="...#
2040: 1D B1 80 23 1D B2 80 23  1D B3 80 23 1A 4D 22 24  ...#...#...#.M"$
2050: 43 80 0F 80 0F 80 25 02  00 10 0F 80 00 6E 20 1A  C.....%......n .
2060: 3D 22 1D B4 80 23 03 01  10 3A 80 01 85 20 02 00  ="...#...:... ..
2070: 10 22 80 00 85 20 1A 3D  22 1D B5 80 23 03 01 10  ."... .="...#...
2080: 24 80 01 85 20 1A 4D 22  1A 70 1E 21 00 1A 73 22  $... .M".p.!..s"
2090: 1A 3D 22 1D B6 80 23 03  02 10 B7 80 1D B8 80 23  .="...#........#
20A0: 1D B9 80 23 1D BA 80 23  1A 4D 22 7D BB 80 45 28  ...#...#.M"}..E(
20B0: 80 F0 FF FF 7F F0 FF FF  7F 71 73 74 63 0F 80 1C  .........qstc...
20C0: 0E 80 1A 70 1E 21 00 1A  3D 22 1D BC 80 23 1D BD  ...p.!..="...#..
20D0: 80 23 1A 4D 22 24 43 80  0F 80 0F 80 25 02 00 10  .#.M"$C.....%...
20E0: 0F 80 00 F4 20 1A 3D 22  1D BE 80 23 03 01 10 0B  .... .="...#....
20F0: 80 01 0B 21 02 00 10 22  80 00 0B 21 1A 3D 22 1D  ...!..."...!.=".
2100: BF 80 23 03 01 10 24 80  01 0B 21 1A 4D 22 1A 70  ..#...$...!.M".p
2110: 1E 21 00 1E F0 FF FF 7F  6F 70 1A 3D 22 1D C0 80  .!......op.="...
2120: 23 1A 4D 22 21 00 1A 3D  22 1D C1 80 23 1A 4D 22  #.M"!..="...#.M"
2130: 24 43 80 0F 80 0F 80 25  02 00 10 0F 80 00 4F 21  $C.....%......O!
2140: 1A 3D 22 1D C2 80 23 03  01 10 08 80 01 66 21 02  .="...#......f!.
2150: 00 10 22 80 00 66 21 1A  3D 22 1D C3 80 23 03 01  .."..f!.="...#..
2160: 10 24 80 01 66 21 1A 4D  22 1A 70 1E 21 00 1A 3D  .$..f!.M".p.!..=
2170: 22 1D C4 80 23 1A 4D 22  24 43 80 0F 80 0F 80 25  "...#.M"$C.....%
2180: 02 00 10 0F 80 00 97 21  1A 3D 22 1D C5 80 23 03  .......!.="...#.
2190: 01 10 3B 80 01 AE 21 02  00 10 22 80 00 AE 21 1A  ..;...!..."...!.
21A0: 3D 22 1D C6 80 23 03 01  10 24 80 01 AE 21 1A 4D  ="...#...$...!.M
21B0: 22 1A 70 1E 21 00 1A 3D  22 1D C7 80 23 1D C8 80  ".p.!..="...#...
21C0: 23 1D C9 80 23 1D CA 80  23 1A 4D 22 24 43 80 0F  #...#...#.M"$C..
21D0: 80 0F 80 25 02 00 10 0F  80 00 1E 22 1A 3D 22 1D  ...%.......".=".
21E0: CB 80 23 1A 4D 22 24 CC  80 0F 80 0F 80 25 1A 53  ..#.M"$......%.S
21F0: 22 02 00 10 0F 80 00 00  22 1D CD 80 23 01 0F 22  "......."...#.."
2200: 02 00 10 22 80 00 0F 22  1D CE 80 23 01 0F 22 1A  ..."..."...#..".
2210: 63 22 1D CF 80 23 03 01  10 3C 80 01 35 22 02 00  c"...#...<..5"..
2220: 10 22 80 00 35 22 1A 3D  22 1D D0 80 23 03 01 10  ."..5".="...#...
2230: 24 80 01 35 22 1A 4D 22  1A 70 1E 21 00 66 0B 80  $..5".M".p.!.f..
2240: F8 FF FF 7F F8 FF FF 7F  74 6C 6B 30 1B 5E 69 64  ........tlk0.^id
2250: 6C 30 1B 66 0B 80 F8 FF  FF 7F F8 FF FF 7F 74 68  l0.f..........th
2260: 6B 31 1B 66 0B 80 F8 FF  FF 7F F8 FF FF 7F 74 68  k1.f..........th
2270: 6B 32 1B 42 46 01 45 0E  80 F8 FF FF 7F F8 FF FF  k2.BF.E.........
2280: 7F 66 64 6F 31 0F 80 1C  10 80 38 11 80 79 00 F8  .fdo1.....8..y..
2290: FF FF 7F F0 FF FF 7F 29  64 F0 FF FF 7F 18 45 15  .......)d.....E.
22A0: 80 F0 FF FF 7F F0 FF FF  7F 73 30 31 38 0F 80 45  .........s018..E
22B0: 0E 80 F8 FF FF 7F F8 FF  FF 7F 66 64 69 31 0F 80  ..........fdi1..
22C0: 1B                                                .               
```

## Opcodes

```
  0: 0x1E6C [0x01] GOTO 0x2113
  1: 0x1E6F [0x00] END_REQSTACK()

SUBROUTINE_2113:
  2: 0x2113 [0x1E] EventEntity looks at LocalPlayer and starts talking
  3: 0x2118 [0x6F] WAIT_FRAME_DELAY: Yield until WaitTime reaches zero
  4: 0x2119 [0x70] WAIT_ENTITY_RENDER_FLAG: Wait while EventEntity->Render.Flags3 bit 2 is set (cancel turn if not)
  5: 0x211A [0x1A] CALL_SUBROUTINE(address=0x223D)
  6: 0x211D [0x1D] PRINT_EVENT_MESSAGE(message_id=7372*)
    → "Princess Claidie's coming-of-age ceremony is about to begin at the cathedral. I must remain at my post, but why don't you attend?\u007F1\u0000\u0007"
  7: 0x2120 [0x23] WAIT_FOR_DIALOG_INTERACTION
  8: 0x2121 [0x1A] CALL_SUBROUTINE(address=0x224D)
  9: 0x2124 [0x21] END_EVENT
 10: 0x2125 [0x00] END_REQSTACK()

SUBROUTINE_223D:
 11: 0x223D [0x66] LOAD_EXT_SCHEDULER_MAIN: Load scheduler "tlk0" with entities [EventEntity, EventEntity], work=20*
 12: 0x224C [0x1B] RETURN

SUBROUTINE_224D:
 13: 0x224D [0x5E] EventEntity goes idle (kills current action) (animation: "idl0")
 14: 0x2252 [0x1B] RETURN
```

## Data or dead code:

```
# Dead code (unreachable instructions):
     0x1E70 [0x45] LOAD_SCHEDULED_TASK: Load scheduler "fdo2" with entities [LocalPlayer, LocalPlayer], work=[200*, 0*]
     0x1E81 [0x55] WAIT_LOAD_SCHEDULER: Wait for scheduler "fdo2" with entities [LocalPlayer, LocalPlayer], work=200*
     0x1E90 [0x46] CAMERA_CONTROL: Restore default settings
     0x1E92 [0x45] LOAD_SCHEDULED_TASK: Load scheduler "fdi2" with entities [LocalPlayer, LocalPlayer], work=[200*, 0*]
     0x1EA3 [0x1B] RETURN
     0x1EA4 [0x1A] CALL_SUBROUTINE(address=0x223D)
     0x1EA7 [0x1D] PRINT_EVENT_MESSAGE(message_id=7338*)
    → "Well, if it isn't \u0008!\u0007Your timing is perfect. The chateau just sent a request for an adventurer.\u007F1\u0000\u0007"
     0x1EAA [0x23] WAIT_FOR_DIALOG_INTERACTION
     0x1EAB [0x1D] PRINT_EVENT_MESSAGE(message_id=7339*)
    → "It looks as if this next mission has something to do with the late queen. You should feel honored. It's not every day that an adventurer gets to work directly with the royal family.\u007F1\u0000\u0007"
     0x1EAE [0x23] WAIT_FOR_DIALOG_INTERACTION
     0x1EAF [0x1A] CALL_SUBROUTINE(address=0x224D)
     0x1EB2 [0x24] CREATE_DIALOG(message_id=7233*, default_option=0*, option_flags=0*)
    → "Accept this mission?\u0007\u000BYes.\u0007No.\u007F1\u0000\u0007"
     0x1EB9 [0x25] WAIT_DIALOG_SELECT()
     0x1EBA [0x02] IF !(Work_Zone[0] == 0*) GOTO 0x1ED1
     0x1EC2 [0x1A] CALL_SUBROUTINE(address=0x223D)
     0x1EC5 [0x1D] PRINT_EVENT_MESSAGE(message_id=7340*)
    → "Spoken like a true San d'Orian!\u0007Now hurry off to Chateau d'Oraguille and get the details on the mission from Monarlais Halver.\u007F1\u0000\u0007"
     0x1EC8 [0x23] WAIT_FOR_DIALOG_INTERACTION
     0x1EC9 [0x03] Work_Zone[1] = 16*
     0x1ECE [0x01] GOTO 0x1EE8
     0x1ED1 [0x02] IF !(Work_Zone[0] == 1*) GOTO 0x1EE8
     0x1ED9 [0x1A] CALL_SUBROUTINE(address=0x223D)
     0x1EDC [0x1D] PRINT_EVENT_MESSAGE(message_id=7341*)
    → "What's wrong? Dealing with royalty is not your cup of tea? Well, think about it and come back when you've come to your senses.\u007F1\u0000\u0007"
     0x1EDF [0x23] WAIT_FOR_DIALOG_INTERACTION
     0x1EE0 [0x03] Work_Zone[1] = 1073741824*
     0x1EE5 [0x01] GOTO 0x1EE8
     0x1EE8 [0x1A] CALL_SUBROUTINE(address=0x224D)
     0x1EEB [0x45] LOAD_SCHEDULED_TASK: Load scheduler "fdo2" with entities [LocalPlayer, LocalPlayer], work=[200*, 0*]
     0x1EFC [0x55] WAIT_LOAD_SCHEDULER: Wait for scheduler "fdo2" with entities [LocalPlayer, LocalPlayer], work=200*
     0x1F0B [0x46] CAMERA_CONTROL: Restore default settings
     0x1F0D [0x45] LOAD_SCHEDULED_TASK: Load scheduler "fdi2" with entities [LocalPlayer, LocalPlayer], work=[200*, 0*]
     0x1F1E [0x21] END_EVENT
     0x1F1F [0x00] END_REQSTACK()
     0x1F20 [0x1A] CALL_SUBROUTINE(address=0x223D)
     0x1F23 [0x1D] PRINT_EVENT_MESSAGE(message_id=7342*)
    → "Prince Trion is requesting the aid of an adventurer. How about it?\u007F1\u0000\u0007"
     0x1F26 [0x23] WAIT_FOR_DIALOG_INTERACTION
     0x1F27 [0x1A] CALL_SUBROUTINE(address=0x224D)
     0x1F2A [0x24] CREATE_DIALOG(message_id=7233*, default_option=0*, option_flags=0*)
    → "Accept this mission?\u0007\u000BYes.\u0007No.\u007F1\u0000\u0007"
     0x1F31 [0x25] WAIT_DIALOG_SELECT()
     0x1F32 [0x02] IF !(Work_Zone[0] == 0*) GOTO 0x1F49
     0x1F3A [0x1A] CALL_SUBROUTINE(address=0x223D)
     0x1F3D [0x1D] PRINT_EVENT_MESSAGE(message_id=7343*)
    → "It looks fairly urgent, so you should hurry to the chateau. The prince is waiting in his chambers.\u007F1\u0000\u0007"
     0x1F40 [0x23] WAIT_FOR_DIALOG_INTERACTION
     0x1F41 [0x03] Work_Zone[1] = 17*
     0x1F46 [0x01] GOTO 0x1F60
     0x1F49 [0x02] IF !(Work_Zone[0] == 1*) GOTO 0x1F60
     0x1F51 [0x1A] CALL_SUBROUTINE(address=0x223D)
     0x1F54 [0x1D] PRINT_EVENT_MESSAGE(message_id=7344*)
    → "I expected more from you, \u0008. If you change your mind, return here. I'll be waiting.\u007F1\u0000\u0007"
     0x1F57 [0x23] WAIT_FOR_DIALOG_INTERACTION
     0x1F58 [0x03] Work_Zone[1] = 1073741824*
     0x1F5D [0x01] GOTO 0x1F60
     0x1F60 [0x1A] CALL_SUBROUTINE(address=0x224D)
     0x1F63 [0x1A] CALL_SUBROUTINE(address=0x1E70)
     0x1F66 [0x21] END_EVENT
     0x1F67 [0x00] END_REQSTACK()
     0x1F68 [0x1A] CALL_SUBROUTINE(address=0x2273)
     0x1F6B [0x1A] CALL_SUBROUTINE(address=0x223D)
     0x1F6E [0x1D] PRINT_EVENT_MESSAGE(message_id=7345*)
    → "I have received the details of your mission from Prince Trion. I will deliver this book to the scholars for deciphering.\u007F1\u0000\u0007"
     0x1F71 [0x23] WAIT_FOR_DIALOG_INTERACTION
     0x1F72 [0x1A] CALL_SUBROUTINE(address=0x224D)
     0x1F75 [0x1A] CALL_SUBROUTINE(address=0x1E70)
     0x1F78 [0x21] END_EVENT
     0x1F79 [0x00] END_REQSTACK()
     0x1F7A [0x1E] EventEntity looks at LocalPlayer and starts talking
     0x1F7F [0x6F] WAIT_FRAME_DELAY: Yield until WaitTime reaches zero
     0x1F80 [0x70] WAIT_ENTITY_RENDER_FLAG: Wait while EventEntity->Render.Flags3 bit 2 is set (cancel turn if not)
     0x1F81 [0x1A] CALL_SUBROUTINE(address=0x223D)
     0x1F84 [0x03] Work_Zone[2] = 269*
     0x1F89 [0x1D] PRINT_EVENT_MESSAGE(message_id=7346*)
    → "The deciphering of the \u0001\u00053\u0002\u0000\u0000\u0000 will take a considerable amount of time. Return later for a report.\u007F1\u0000\u0007"
     0x1F8C [0x23] WAIT_FOR_DIALOG_INTERACTION
     0x1F8D [0x1A] CALL_SUBROUTINE(address=0x224D)
     0x1F90 [0x21] END_EVENT
     0x1F91 [0x00] END_REQSTACK()
     0x1F92 [0x1E] EventEntity looks at LocalPlayer and starts talking
     0x1F97 [0x6F] WAIT_FRAME_DELAY: Yield until WaitTime reaches zero
     0x1F98 [0x70] WAIT_ENTITY_RENDER_FLAG: Wait while EventEntity->Render.Flags3 bit 2 is set (cancel turn if not)
     0x1F99 [0x1A] CALL_SUBROUTINE(address=0x223D)
     0x1F9C [0x03] Work_Zone[2] = 269*
     0x1FA1 [0x1D] PRINT_EVENT_MESSAGE(message_id=7348*)
    → "Ah, \u0008. We've been waiting.\u0007Prince Trion is calling for you. I wonder if this means the \u0001\u00053\u0002\u0000\u0000\u0000 has been completely deciphered.\u007F1\u0000\u0007"
     0x1FA4 [0x23] WAIT_FOR_DIALOG_INTERACTION
     0x1FA5 [0x1A] CALL_SUBROUTINE(address=0x224D)
     0x1FA8 [0x21] END_EVENT
     0x1FA9 [0x00] END_REQSTACK()
     0x1FAA [0x1A] CALL_SUBROUTINE(address=0x2273)
     0x1FAD [0x1A] CALL_SUBROUTINE(address=0x223D)
     0x1FB0 [0x1D] PRINT_EVENT_MESSAGE(message_id=7349*)
    → "Well done, \u0008! I knew you would not let the Kingdom down.\u007F1\u0000\u0007"
     0x1FB3 [0x23] WAIT_FOR_DIALOG_INTERACTION
     0x1FB4 [0x1D] PRINT_EVENT_MESSAGE(message_id=7350*)
    → "I'm proud to increase your rank to 7!\u007F1\u0000\u0007"
     0x1FB7 [0x23] WAIT_FOR_DIALOG_INTERACTION
     0x1FB8 [0x1A] CALL_SUBROUTINE(address=0x224D)
     0x1FBB [0x7D] LOAD_START_SCHEDULER_PLAYER: Load scheduler with animation_id 32937
     0x1FBE [0x45] LOAD_SCHEDULED_TASK: Load scheduler "qstc" with entities [LocalPlayer, LocalPlayer], work=[201*, 0*]
     0x1FCF [0x1C] WAIT(200* ticks)
     0x1FD2 [0x1A] CALL_SUBROUTINE(address=0x1E70)
     0x1FD5 [0x21] END_EVENT
     0x1FD6 [0x00] END_REQSTACK()
     0x1FD7 [0x1A] CALL_SUBROUTINE(address=0x223D)
     0x1FDA [0x1D] PRINT_EVENT_MESSAGE(message_id=7351*)
    → "The papsque has work for you, \u0008. Are you willing to take on the task?\u007F1\u0000\u0007"
     0x1FDD [0x23] WAIT_FOR_DIALOG_INTERACTION
     0x1FDE [0x1A] CALL_SUBROUTINE(address=0x224D)
     0x1FE1 [0x24] CREATE_DIALOG(message_id=7233*, default_option=0*, option_flags=0*)
    → "Accept this mission?\u0007\u000BYes.\u0007No.\u007F1\u0000\u0007"
     0x1FE8 [0x25] WAIT_DIALOG_SELECT()
     0x1FE9 [0x02] IF !(Work_Zone[0] == 0*) GOTO 0x2000
     0x1FF1 [0x1A] CALL_SUBROUTINE(address=0x223D)
     0x1FF4 [0x1D] PRINT_EVENT_MESSAGE(message_id=7352*)
    → "Excellent. Proceed to the papsque's chambers on the third floor of the cathedral.\u007F1\u0000\u0007"
     0x1FF7 [0x23] WAIT_FOR_DIALOG_INTERACTION
     0x1FF8 [0x03] Work_Zone[1] = 18*
     0x1FFD [0x01] GOTO 0x2017
     0x2000 [0x02] IF !(Work_Zone[0] == 1*) GOTO 0x2017
     0x2008 [0x1A] CALL_SUBROUTINE(address=0x223D)
     0x200B [0x1D] PRINT_EVENT_MESSAGE(message_id=7353*)
    → "The papsque often comes across as a difficult man, but he is actually very kindhearted and compassionate. If you change your mind, I'll be waiting here.\u007F1\u0000\u0007"
     0x200E [0x23] WAIT_FOR_DIALOG_INTERACTION
     0x200F [0x03] Work_Zone[1] = 1073741824*
     0x2014 [0x01] GOTO 0x2017
     0x2017 [0x1A] CALL_SUBROUTINE(address=0x224D)
     0x201A [0x1A] CALL_SUBROUTINE(address=0x1E70)
     0x201D [0x21] END_EVENT
     0x201E [0x00] END_REQSTACK()
     0x201F [0x1A] CALL_SUBROUTINE(address=0x2273)
     0x2022 [0x1A] CALL_SUBROUTINE(address=0x223D)
     0x2025 [0x1D] PRINT_EVENT_MESSAGE(message_id=7354*)
    → "The fair Claidie I d'Oraguille has invited you to the chateau. She wishes for you to see the flowers that have bloomed from the seeds you brought back from Altepa.\u007F1\u0000\u0007"
     0x2028 [0x23] WAIT_FOR_DIALOG_INTERACTION
     0x2029 [0x1D] PRINT_EVENT_MESSAGE(message_id=7355*)
    → "It is an honor to be invited to the chateau garden. One day you may even have the opportunity to attend one of their royal garden parties.\u007F1\u0000\u0007"
     0x202C [0x23] WAIT_FOR_DIALOG_INTERACTION
     0x202D [0x1D] PRINT_EVENT_MESSAGE(message_id=7356*)
    → "We cannot keep the princess waiting. Now, off to the chateau!\u007F1\u0000\u0007"
     0x2030 [0x23] WAIT_FOR_DIALOG_INTERACTION
     0x2031 [0x1A] CALL_SUBROUTINE(address=0x224D)
     0x2034 [0x1A] CALL_SUBROUTINE(address=0x1E70)
     0x2037 [0x21] END_EVENT
     0x2038 [0x00] END_REQSTACK()
     0x2039 [0x1A] CALL_SUBROUTINE(address=0x223D)
     0x203C [0x1D] PRINT_EVENT_MESSAGE(message_id=7357*)
    → "A party of Royal Knights stationed in Ghelsba Outpost have reported strange activity by Orcs deep within Yughott Grotto.\u007F1\u0000\u0007"
     0x203F [0x23] WAIT_FOR_DIALOG_INTERACTION
     0x2040 [0x1D] PRINT_EVENT_MESSAGE(message_id=7358*)
    → "From your reports, we already know that the beastmen have built a giant portal, but their motives remain unclear.\u007F1\u0000\u0007"
     0x2043 [0x23] WAIT_FOR_DIALOG_INTERACTION
     0x2044 [0x1D] PRINT_EVENT_MESSAGE(message_id=7359*)
    → "It makes me shudder to think of what those Orcs are planning with that portal...\u007F1\u0000\u0007"
     0x2047 [0x23] WAIT_FOR_DIALOG_INTERACTION
     0x2048 [0x1D] PRINT_EVENT_MESSAGE(message_id=7360*)
    → "\u0008, your next mission is to travel to Ghelsba and continue your investigation into the Orcs' activities.\u007F1\u0000\u0007"
     0x204B [0x23] WAIT_FOR_DIALOG_INTERACTION
     0x204C [0x1A] CALL_SUBROUTINE(address=0x224D)
     0x204F [0x24] CREATE_DIALOG(message_id=7233*, default_option=0*, option_flags=0*)
    → "Accept this mission?\u0007\u000BYes.\u0007No.\u007F1\u0000\u0007"
     0x2056 [0x25] WAIT_DIALOG_SELECT()
     0x2057 [0x02] IF !(Work_Zone[0] == 0*) GOTO 0x206E
     0x205F [0x1A] CALL_SUBROUTINE(address=0x223D)
     0x2062 [0x1D] PRINT_EVENT_MESSAGE(message_id=7361*)
    → "Be on your guard when traveling deep into Yughott Grotto. Losing an adventurer such as yourself would deal a great blow to all of San d'Oria.\u007F1\u0000\u0007"
     0x2065 [0x23] WAIT_FOR_DIALOG_INTERACTION
     0x2066 [0x03] Work_Zone[1] = 19*
     0x206B [0x01] GOTO 0x2085
     0x206E [0x02] IF !(Work_Zone[0] == 1*) GOTO 0x2085
     0x2076 [0x1A] CALL_SUBROUTINE(address=0x223D)
     0x2079 [0x1D] PRINT_EVENT_MESSAGE(message_id=7362*)
    → "I see you need more time for preparations. When you are ready, I'll be waiting.\u007F1\u0000\u0007"
     0x207C [0x23] WAIT_FOR_DIALOG_INTERACTION
     0x207D [0x03] Work_Zone[1] = 1073741824*
     0x2082 [0x01] GOTO 0x2085
     0x2085 [0x1A] CALL_SUBROUTINE(address=0x224D)
     0x2088 [0x1A] CALL_SUBROUTINE(address=0x1E70)
     0x208B [0x21] END_EVENT
     0x208C [0x00] END_REQSTACK()
     0x208D [0x1A] CALL_SUBROUTINE(address=0x2273)
     0x2090 [0x1A] CALL_SUBROUTINE(address=0x223D)
     0x2093 [0x1D] PRINT_EVENT_MESSAGE(message_id=7363*)
    → "It's hard to believe Orcs have their hands on such dangerous equipment. More patrols will have to be sent out to prevent any new developments in their evil plans.\u007F1\u0000\u0007"
     0x2096 [0x23] WAIT_FOR_DIALOG_INTERACTION
     0x2097 [0x03] Work_Zone[2] = 284*
     0x209C [0x1D] PRINT_EVENT_MESSAGE(message_id=7364*)
    → "And this \u0001\u00053\u0002\u0000\u0000\u0000... We will have to analyze it and begin reproduction for our forces. We cannot let Orcs get the Treasure of the Dragon King before San d'Oria does.\u007F1\u0000\u0007"
     0x209F [0x23] WAIT_FOR_DIALOG_INTERACTION
     0x20A0 [0x1D] PRINT_EVENT_MESSAGE(message_id=7365*)
    → "Well, congratulations on the completion of your mission. Hmmm? Do I know of an adventurer named Eideialc? Never heard of him.\u007F1\u0000\u0007"
     0x20A3 [0x23] WAIT_FOR_DIALOG_INTERACTION
     0x20A4 [0x1D] PRINT_EVENT_MESSAGE(message_id=7366*)
    → "But you need not worry about some petty traveler. You are in a different league. You are now rank 8!\u007F1\u0000\u0007"
     0x20A7 [0x23] WAIT_FOR_DIALOG_INTERACTION
     0x20A8 [0x1A] CALL_SUBROUTINE(address=0x224D)
     0x20AB [0x7D] LOAD_START_SCHEDULER_PLAYER: Load scheduler with animation_id 32955
     0x20AE [0x45] LOAD_SCHEDULED_TASK: Load scheduler "qstc" with entities [LocalPlayer, LocalPlayer], work=[201*, 0*]
     0x20BF [0x1C] WAIT(200* ticks)
     0x20C2 [0x1A] CALL_SUBROUTINE(address=0x1E70)
     0x20C5 [0x21] END_EVENT
     0x20C6 [0x00] END_REQSTACK()
     0x20C7 [0x1A] CALL_SUBROUTINE(address=0x223D)
     0x20CA [0x1D] PRINT_EVENT_MESSAGE(message_id=7367*)
    → "Princess Claidie's coming-of-age ceremony is drawing near. This ceremony is an important facet of d'Oraguille tradition.\u007F1\u0000\u0007"
     0x20CD [0x23] WAIT_FOR_DIALOG_INTERACTION
     0x20CE [0x1D] PRINT_EVENT_MESSAGE(message_id=7368*)
    → "Monarlais Halver has put out a call to high-ranking adventurers for their assistance in Chateau d'Oraguille.\u007F1\u0000\u0007"
     0x20D1 [0x23] WAIT_FOR_DIALOG_INTERACTION
     0x20D2 [0x1A] CALL_SUBROUTINE(address=0x224D)
     0x20D5 [0x24] CREATE_DIALOG(message_id=7233*, default_option=0*, option_flags=0*)
    → "Accept this mission?\u0007\u000BYes.\u0007No.\u007F1\u0000\u0007"
     0x20DC [0x25] WAIT_DIALOG_SELECT()
     0x20DD [0x02] IF !(Work_Zone[0] == 0*) GOTO 0x20F4
     0x20E5 [0x1A] CALL_SUBROUTINE(address=0x223D)
     0x20E8 [0x1D] PRINT_EVENT_MESSAGE(message_id=7369*)
    → "Ah, the young princess has finally become a lady... Oh, I'm sorry. You can get the details of your next mission from Sir Halver.\u007F1\u0000\u0007"
     0x20EB [0x23] WAIT_FOR_DIALOG_INTERACTION
     0x20EC [0x03] Work_Zone[1] = 20*
     0x20F1 [0x01] GOTO 0x210B
     0x20F4 [0x02] IF !(Work_Zone[0] == 1*) GOTO 0x210B
     0x20FC [0x1A] CALL_SUBROUTINE(address=0x223D)
     0x20FF [0x1D] PRINT_EVENT_MESSAGE(message_id=7370*)
    → "What? You do not wish to repay the kindness the princess has shown to you in the past months? As you wish...but if you change your mind, you know where to find me.\u007F1\u0000\u0007"
     0x2102 [0x23] WAIT_FOR_DIALOG_INTERACTION
     0x2103 [0x03] Work_Zone[1] = 1073741824*
     0x2108 [0x01] GOTO 0x210B
     0x210B [0x1A] CALL_SUBROUTINE(address=0x224D)
     0x210E [0x1A] CALL_SUBROUTINE(address=0x1E70)
     0x2111 [0x21] END_EVENT
     0x2112 [0x00] END_REQSTACK()
# Dead code (unreachable instructions):
     0x2126 [0x1A] CALL_SUBROUTINE(address=0x223D)
     0x2129 [0x1D] PRINT_EVENT_MESSAGE(message_id=7373*)
    → "The king has requested your audience. He has selected you from the mountain of adventurers in San d'Oria. You should feel honored!\u007F1\u0000\u0007"
     0x212C [0x23] WAIT_FOR_DIALOG_INTERACTION
     0x212D [0x1A] CALL_SUBROUTINE(address=0x224D)
     0x2130 [0x24] CREATE_DIALOG(message_id=7233*, default_option=0*, option_flags=0*)
    → "Accept this mission?\u0007\u000BYes.\u0007No.\u007F1\u0000\u0007"
     0x2137 [0x25] WAIT_DIALOG_SELECT()
     0x2138 [0x02] IF !(Work_Zone[0] == 0*) GOTO 0x214F
     0x2140 [0x1A] CALL_SUBROUTINE(address=0x223D)
     0x2143 [0x1D] PRINT_EVENT_MESSAGE(message_id=7374*)
    → "You have matured from a fledgling adventurer into a great asset to our kingdom. Do not let us down.\u007F1\u0000\u0007"
     0x2146 [0x23] WAIT_FOR_DIALOG_INTERACTION
     0x2147 [0x03] Work_Zone[1] = 21*
     0x214C [0x01] GOTO 0x2166
     0x214F [0x02] IF !(Work_Zone[0] == 1*) GOTO 0x2166
     0x2157 [0x1A] CALL_SUBROUTINE(address=0x223D)
     0x215A [0x1D] PRINT_EVENT_MESSAGE(message_id=7375*)
    → "There is no need for modesty at a time like this. The fate of San d'Oria is at stake!\u007F1\u0000\u0007"
     0x215D [0x23] WAIT_FOR_DIALOG_INTERACTION
     0x215E [0x03] Work_Zone[1] = 1073741824*
     0x2163 [0x01] GOTO 0x2166
     0x2166 [0x1A] CALL_SUBROUTINE(address=0x224D)
     0x2169 [0x1A] CALL_SUBROUTINE(address=0x1E70)
     0x216C [0x21] END_EVENT
     0x216D [0x00] END_REQSTACK()
     0x216E [0x1A] CALL_SUBROUTINE(address=0x223D)
     0x2171 [0x1D] PRINT_EVENT_MESSAGE(message_id=7376*)
    → "The authorities are saying that a dark cloud of despair is looming over the Kingdom. They are asking for the assistance of only the best adventurers.\u007F1\u0000\u0007"
     0x2174 [0x23] WAIT_FOR_DIALOG_INTERACTION
     0x2175 [0x1A] CALL_SUBROUTINE(address=0x224D)
     0x2178 [0x24] CREATE_DIALOG(message_id=7233*, default_option=0*, option_flags=0*)
    → "Accept this mission?\u0007\u000BYes.\u0007No.\u007F1\u0000\u0007"
     0x217F [0x25] WAIT_DIALOG_SELECT()
     0x2180 [0x02] IF !(Work_Zone[0] == 0*) GOTO 0x2197
     0x2188 [0x1A] CALL_SUBROUTINE(address=0x223D)
     0x218B [0x1D] PRINT_EVENT_MESSAGE(message_id=7378*)
    → "Then proceed to the Audience Chamber in the Chateau d'Oraguille.\u0007Word has it that His Highness is not feeling that well. He may not be present for your briefing.\u007F1\u0000\u0007"
     0x218E [0x23] WAIT_FOR_DIALOG_INTERACTION
     0x218F [0x03] Work_Zone[1] = 22*
     0x2194 [0x01] GOTO 0x21AE
     0x2197 [0x02] IF !(Work_Zone[0] == 1*) GOTO 0x21AE
     0x219F [0x1A] CALL_SUBROUTINE(address=0x223D)
     0x21A2 [0x1D] PRINT_EVENT_MESSAGE(message_id=7379*)
    → "\u007F\u0005[Sir/Lady] \u0008! The Kingdom is counting on you. Who else, I ask you, is worthy for this task?\u007F1\u0000\u0007"
     0x21A5 [0x23] WAIT_FOR_DIALOG_INTERACTION
     0x21A6 [0x03] Work_Zone[1] = 1073741824*
     0x21AB [0x01] GOTO 0x21AE
     0x21AE [0x1A] CALL_SUBROUTINE(address=0x224D)
     0x21B1 [0x1A] CALL_SUBROUTINE(address=0x1E70)
     0x21B4 [0x21] END_EVENT
     0x21B5 [0x00] END_REQSTACK()
     0x21B6 [0x1A] CALL_SUBROUTINE(address=0x223D)
     0x21B9 [0x1D] PRINT_EVENT_MESSAGE(message_id=7380*)
    → "Ah, a time of great change is upon us. In a matter of days, the Rites of Succession will be held at the cathedral in Northern San d'Oria. It is then that the new heir to the throne will be decided.\u007F1\u0000\u0007"
     0x21BC [0x23] WAIT_FOR_DIALOG_INTERACTION
     0x21BD [0x1D] PRINT_EVENT_MESSAGE(message_id=7381*)
    → "Due to the unpredictable circumstances that took place at the princess's coming-of-age ceremony, this time, only authorized personnel will be allowed near the proceedings. However, the royal family has requested your services as a guard.\u007F1\u0000\u0007"
     0x21C0 [0x23] WAIT_FOR_DIALOG_INTERACTION
     0x21C1 [0x1D] PRINT_EVENT_MESSAGE(message_id=7382*)
    → "Even we Royal Knights have not been granted permission to attend... You must be held in high regard by His Highness. I envy you, \u007F\u0005[Sir/Ma'am].\u007F1\u0000\u0007"
     0x21C4 [0x23] WAIT_FOR_DIALOG_INTERACTION
     0x21C5 [0x1D] PRINT_EVENT_MESSAGE(message_id=7383*)
    → "When you have finished your preparations, proceed directly to the cathedral to report.\u007F1\u0000\u0007"
     0x21C8 [0x23] WAIT_FOR_DIALOG_INTERACTION
     0x21C9 [0x1A] CALL_SUBROUTINE(address=0x224D)
     0x21CC [0x24] CREATE_DIALOG(message_id=7233*, default_option=0*, option_flags=0*)
    → "Accept this mission?\u0007\u000BYes.\u0007No.\u007F1\u0000\u0007"
     0x21D3 [0x25] WAIT_DIALOG_SELECT()
     0x21D4 [0x02] IF !(Work_Zone[0] == 0*) GOTO 0x221E
     0x21DC [0x1A] CALL_SUBROUTINE(address=0x223D)
     0x21DF [0x1D] PRINT_EVENT_MESSAGE(message_id=7384*)
    → "Off the record, which of the two princes do you think should be the next heir to the throne?\u007F1\u0000\u0007"
     0x21E2 [0x23] WAIT_FOR_DIALOG_INTERACTION
     0x21E3 [0x1A] CALL_SUBROUTINE(address=0x224D)
     0x21E6 [0x24] CREATE_DIALOG(message_id=7385*, default_option=0*, option_flags=0*)
    → "It is a difficult decision, but...\u0007\u000BTrion is better suited.\u0007Pieuje is better suited.\u007F1\u0000\u0007"
     0x21ED [0x25] WAIT_DIALOG_SELECT()
     0x21EE [0x1A] CALL_SUBROUTINE(address=0x2253)
     0x21F1 [0x02] IF !(Work_Zone[0] == 0*) GOTO 0x2200
     0x21F9 [0x1D] PRINT_EVENT_MESSAGE(message_id=7386*)
    → "Hm...\u0007Being the oldest, he is the true heir, and many people believe he is the most suited to rule the Kingdom. However, Prince Pieuje's prudent ways may be what this country is lacking.\u007F1\u0000\u0007"
     0x21FC [0x23] WAIT_FOR_DIALOG_INTERACTION
     0x21FD [0x01] GOTO 0x220F
     0x2200 [0x02] IF !(Work_Zone[0] == 1*) GOTO 0x220F
     0x2208 [0x1D] PRINT_EVENT_MESSAGE(message_id=7387*)
    → "Many think as you do, \u007F\u0005[Sir/Lady] \u0008. However, what this country may need is someone who will not back down in the face of a threat--someone who will stand up for the pride of the Kingdom.\u007F1\u0000\u0007"
     0x220B [0x23] WAIT_FOR_DIALOG_INTERACTION
     0x220C [0x01] GOTO 0x220F
     0x220F [0x1A] CALL_SUBROUTINE(address=0x2263)
     0x2212 [0x1D] PRINT_EVENT_MESSAGE(message_id=7388*)
    → "But our opinion is of no matter. Lightbringer will decide who is the most suited to stand over our fine nation. And do not speak a word of today's exchange, for the monarlais will have our heads if he finds out.\u007F1\u0000\u0007"
     0x2215 [0x23] WAIT_FOR_DIALOG_INTERACTION
     0x2216 [0x03] Work_Zone[1] = 23*
     0x221B [0x01] GOTO 0x2235
     0x221E [0x02] IF !(Work_Zone[0] == 1*) GOTO 0x2235
     0x2226 [0x1A] CALL_SUBROUTINE(address=0x223D)
     0x2229 [0x1D] PRINT_EVENT_MESSAGE(message_id=7389*)
    → "I realize that you must have many preparations before taking on such an important mission. Take your time and return here when you are ready.\u007F1\u0000\u0007"
     0x222C [0x23] WAIT_FOR_DIALOG_INTERACTION
     0x222D [0x03] Work_Zone[1] = 1073741824*
     0x2232 [0x01] GOTO 0x2235
     0x2235 [0x1A] CALL_SUBROUTINE(address=0x224D)
     0x2238 [0x1A] CALL_SUBROUTINE(address=0x1E70)
     0x223B [0x21] END_EVENT
     0x223C [0x00] END_REQSTACK()
# Dead code (unreachable instructions):
     0x2253 [0x66] LOAD_EXT_SCHEDULER_MAIN: Load scheduler "thk1" with entities [EventEntity, EventEntity], work=20*
     0x2262 [0x1B] RETURN
     0x2263 [0x66] LOAD_EXT_SCHEDULER_MAIN: Load scheduler "thk2" with entities [EventEntity, EventEntity], work=20*
     0x2272 [0x1B] RETURN
     0x2273 [0x42] SET_CLI_EVENT_CANCEL_DATA()
     0x2274 [0x46] CAMERA_CONTROL: Disable user control
     0x2276 [0x45] LOAD_SCHEDULED_TASK: Load scheduler "fdo1" with entities [EventEntity, EventEntity], work=[200*, 0*]
     0x2287 [0x1C] WAIT(60* ticks)
     0x228A [0x38] SET_CLIENT_EVENT_MODE(mode=3*)
     0x228D [0x79] EventEntity looks at LocalPlayer (Basic look)
     0x2297 [0x29] REQ_SET_WAIT(priority=0x64, entity_id=LocalPlayer, tag_num=0x18)
     0x229E [0x45] LOAD_SCHEDULED_TASK: Load scheduler "s018" with entities [LocalPlayer, LocalPlayer], work=[130*, 0*]
     0x22AF [0x45] LOAD_SCHEDULED_TASK: Load scheduler "fdi1" with entities [EventEntity, EventEntity], work=[200*, 0*]
     0x22C0 [0x1B] RETURN
```