# Event 61

## Metadata

| Field           | Value    |
|-----------------|----------|
| Event Index     | 20/98    |
| Offset          | 0x1E30   |
| Data Size       | 36 bytes |
| Calculated Size | 36 bytes |
| Instructions    | 10       |

```
      00 01 02 03 04 05 06 07  08 09 0A 0B 0C 0D 0E 0F
      -- -- -- -- -- -- -- --  -- -- -- -- -- -- -- --
1E30: 1E F0 FF FF 7F 6F 70 66  0B 80 F8 FF FF 7F F8 FF  .....opf........
1E40: FF 7F 74 6C 6B 30 1D 9B  80 23 5E 69 64 6C 30 1C  ..tlk0...#^idl0.
1E50: 0D 80 21 00                                       ..!.            
```

## Opcodes

```
  0: 0x1E30 [0x1E] EventEntity looks at LocalPlayer and starts talking
  1: 0x1E35 [0x6F] WAIT_FRAME_DELAY: Yield until WaitTime reaches zero
  2: 0x1E36 [0x70] WAIT_ENTITY_RENDER_FLAG: Wait while EventEntity->Render.Flags3 bit 2 is set (cancel turn if not)
  3: 0x1E37 [0x66] LOAD_EXT_SCHEDULER_MAIN: Load scheduler "tlk0" with entities [EventEntity, EventEntity], work=20*
  4: 0x1E46 [0x1D] PRINT_EVENT_MESSAGE(message_id=7337*)
    → "Ah, if it isn't \u0008!\u0007You had best hurry off to Chateau d'Oraguille. It seems as if something terrible is in the works there.\u007F1\u0000\u0007"
  5: 0x1E49 [0x23] WAIT_FOR_DIALOG_INTERACTION
  6: 0x1E4A [0x5E] EventEntity goes idle (kills current action) (animation: "idl0")
  7: 0x1E4F [0x1C] WAIT(30* ticks)
  8: 0x1E52 [0x21] END_EVENT
  9: 0x1E53 [0x00] END_REQSTACK()
```
