# Event 603

## Metadata

| Field           | Value    |
|-----------------|----------|
| Event Index     | 11/12    |
| Offset          | 0x02F1   |
| Data Size       | 36 bytes |
| Calculated Size | 36 bytes |
| Instructions    | 10       |

```
      00 01 02 03 04 05 06 07  08 09 0A 0B 0C 0D 0E 0F
      -- -- -- -- -- -- -- --  -- -- -- -- -- -- -- --
02F0:    1E F0 FF FF 7F 6F 70  5B 09 80 3C 70 0E 01 3C   .....op[..<p..<
0300: 70 0E 01 74 6C 6B 30 1D  2F 80 23 5E 69 64 6C 30  p..tlk0./.#^idl0
0310: 1C 0B 80 21 00                                    ...!.           
```

## Opcodes

```
  0: 0x02F1 [0x1E] EventEntity looks at LocalPlayer and starts talking
  1: 0x02F6 [0x6F] WAIT_FRAME_DELAY: Yield until WaitTime reaches zero
  2: 0x02F7 [0x70] WAIT_ENTITY_RENDER_FLAG: Wait while EventEntity->Render.Flags3 bit 2 is set (cancel turn if not)
  3: 0x02F8 [0x5B] LOAD_EXT_SCHEDULER: Load scheduler "tlk0" with entities [Helaku (ID: 17723452/0x010E703C), Helaku (ID: 17723452/0x010E703C)], work=65*
  4: 0x0307 [0x1D] PRINT_EVENT_MESSAGE(message_id=11453*)
    → "Well, if it isn't \u0008! You look well! Stay as long as you like. You deserve a rest, my friend.\u007F1\u0000\u0007"
  5: 0x030A [0x23] WAIT_FOR_DIALOG_INTERACTION
  6: 0x030B [0x5E] EventEntity goes idle (kills current action) (animation: "idl0")
  7: 0x0310 [0x1C] WAIT(30* ticks)
  8: 0x0313 [0x21] END_EVENT
  9: 0x0314 [0x00] END_REQSTACK()
```
