# Event 478

## Metadata

| Field           | Value    |
|-----------------|----------|
| Event Index     | 20/25    |
| Offset          | 0x0265   |
| Data Size       | 29 bytes |
| Calculated Size | 29 bytes |
| Instructions    | 10       |

```
      00 01 02 03 04 05 06 07  08 09 0A 0B 0C 0D 0E 0F
      -- -- -- -- -- -- -- --  -- -- -- -- -- -- -- --
0260:                1E F0 FF  FF 7F 6F 70 29 08 3D E0       .....op).=.
0270: 0E 01 01 1D 1E 80 23 29  08 3D E0 0E 01 02 20 00  ......#).=.... .
0280: 21 00                                             !.              
```

## Opcodes

```
  0: 0x0265 [0x1E] EventEntity looks at LocalPlayer and starts talking
  1: 0x026A [0x6F] WAIT_FRAME_DELAY: Yield until WaitTime reaches zero
  2: 0x026B [0x70] WAIT_ENTITY_RENDER_FLAG: Wait while EventEntity->Render.Flags3 bit 2 is set (cancel turn if not)
  3: 0x026C [0x29] REQ_SET_WAIT(priority=0x08, entity_id=Mashuu-Ajuu (ID: 17752125/0x010EE03D), tag_num=0x01)
  4: 0x0273 [0x1D] PRINT_EVENT_MESSAGE(message_id=8458*)
    → "With this, I'll be able to beat Kirarara at last! But, wait... What if Kirarara also got an adventurer to help her with her homework, too?\u007F1\u0000\u0007"
  5: 0x0276 [0x23] WAIT_FOR_DIALOG_INTERACTION
  6: 0x0277 [0x29] REQ_SET_WAIT(priority=0x08, entity_id=Mashuu-Ajuu (ID: 17752125/0x010EE03D), tag_num=0x02)
  7: 0x027E [0x20] SET_CLI_EVENT_UC_FLAG: Unlock player control
  8: 0x0280 [0x21] END_EVENT
  9: 0x0281 [0x00] END_REQSTACK()
```
