# Event 501

## Metadata

| Field           | Value    |
|-----------------|----------|
| Event Index     | 24/25    |
| Offset          | 0x0307   |
| Data Size       | 33 bytes |
| Calculated Size | 33 bytes |
| Instructions    | 12       |

```
      00 01 02 03 04 05 06 07  08 09 0A 0B 0C 0D 0E 0F
      -- -- -- -- -- -- -- --  -- -- -- -- -- -- -- --
0300:                      1E  F0 FF FF 7F 6F 70 29 08         .....op).
0310: 3D E0 0E 01 01 1D 24 80  23 1D 25 80 23 29 08 3D  =.....$.#.%.#).=
0320: E0 0E 01 02 20 00 21 00                           .... .!.        
```

## Opcodes

```
  0: 0x0307 [0x1E] EventEntity looks at LocalPlayer and starts talking
  1: 0x030C [0x6F] WAIT_FRAME_DELAY: Yield until WaitTime reaches zero
  2: 0x030D [0x70] WAIT_ENTITY_RENDER_FLAG: Wait while EventEntity->Render.Flags3 bit 2 is set (cancel turn if not)
  3: 0x030E [0x29] REQ_SET_WAIT(priority=0x08, entity_id=Mashuu-Ajuu (ID: 17752125/0x010EE03D), tag_num=0x01)
  4: 0x0315 [0x1D] PRINT_EVENT_MESSAGE(message_id=8514*)
    → "What's all the noise about?\u0007You're disturbing the class.\u007F1\u0000\u0007"
  5: 0x0318 [0x23] WAIT_FOR_DIALOG_INTERACTION
  6: 0x0319 [0x1D] PRINT_EVENT_MESSAGE(message_id=8515*)
    → "If you and Paku-Nakku don't shut up, I'll cast Silence on the both of you!\u007F1\u0000\u0007"
  7: 0x031C [0x23] WAIT_FOR_DIALOG_INTERACTION
  8: 0x031D [0x29] REQ_SET_WAIT(priority=0x08, entity_id=Mashuu-Ajuu (ID: 17752125/0x010EE03D), tag_num=0x02)
  9: 0x0324 [0x20] SET_CLI_EVENT_UC_FLAG: Unlock player control
 10: 0x0326 [0x21] END_EVENT
 11: 0x0327 [0x00] END_REQSTACK()
```
