# Event 200

## Metadata

| Field           | Value    |
|-----------------|----------|
| Event Index     | 3/6      |
| Offset          | 0x000C   |
| Data Size       | 39 bytes |
| Calculated Size | 39 bytes |
| Instructions    | 11       |

```
      00 01 02 03 04 05 06 07  08 09 0A 0B 0C 0D 0E 0F
      -- -- -- -- -- -- -- --  -- -- -- -- -- -- -- --
0000:                                      1E F0 FF FF              ....
0010: 7F 1D 01 80 23 5B 02 80  F8 FF FF 7F F8 FF FF 7F  ....#[..........
0020: 74 6C 6B 30 1D 03 80 23  5E 69 64 6C 30 1D 04 80  tlk0...#^idl0...
0030: 23 21 00                                          #!.             
```

## Opcodes

```
  0: 0x000C [0x1E] EventEntity looks at LocalPlayer and starts talking
  1: 0x0011 [0x1D] PRINT_EVENT_MESSAGE(message_id=7534*)
    → "You look surprised. You find it unusual to see a lady of high birth standing in her own kitchen, perhaps?\u007F1\u0000\u0007"
  2: 0x0014 [0x23] WAIT_FOR_DIALOG_INTERACTION
  3: 0x0015 [0x5B] LOAD_EXT_SCHEDULER: Load scheduler "tlk0" with entities [EventEntity, EventEntity], work=0*
  4: 0x0024 [0x1D] PRINT_EVENT_MESSAGE(message_id=7535*)
    → "I believe that cooking is a refined hobby worthy of one such as me.\u0007I only use the best ingredients gil can buy, of course.\u007F1\u0000\u0007"
  5: 0x0027 [0x23] WAIT_FOR_DIALOG_INTERACTION
  6: 0x0028 [0x5E] EventEntity goes idle (kills current action) (animation: "idl0")
  7: 0x002D [0x1D] PRINT_EVENT_MESSAGE(message_id=7536*)
    → "Well now, what should I make today?\u0007Oh, I have not done the groceries yet...do you happen to have anything to spare?\u007F1\u0000\u0007"
  8: 0x0030 [0x23] WAIT_FOR_DIALOG_INTERACTION
  9: 0x0031 [0x21] END_EVENT
 10: 0x0032 [0x00] END_REQSTACK()
```
