# Event 65535

## Metadata

| Field           | Value    |
|-----------------|----------|
| Event Index     | 29/186   |
| Offset          | 0x48FA   |
| Data Size       | 55 bytes |
| Calculated Size | 55 bytes |
| Instructions    | 9        |

```
      00 01 02 03 04 05 06 07  08 09 0A 0B 0C 0D 0E 0F
      -- -- -- -- -- -- -- --  -- -- -- -- -- -- -- --
48F0:                                32 4F 80 45 A9 81            2O.E..
4900: F0 FF FF 7F F0 FF FF 7F  73 30 38 31 02 80 37 17  ........s081..7.
4910: 82 18 82 0F 82 19 82 1F  00 1A 82 1B 82 0F 82 1F  ................
4920: 01 1F 00 1C 82 1D 82 0F  82 1F 01 1E 33 60 0E 01  ............3`..
4930: 00                                                .               
```

## Opcodes

```
  0: 0x48FA [0x32] ExtData[1]->MainSpeed = 13* * 0.1
  1: 0x48FD [0x45] LOAD_SCHEDULED_TASK(work_offset1=130*, entity1=LocalPlayer, entity2=LocalPlayer, scheduler_id="s081", work_offset2=0*)
  2: 0x490E [0x37] UPDATE_EVENT_POSITION_AND_DIR: x=-12.638*, z=-102.611*, y=1.548*, direction=86.3°*
  3: 0x4917 [0x1F] MOVE_ENTITY: EventEntity moves to X=-12.593*, Z=-102.809*, Y=1.548*
  4: 0x491F [0x1F] MOVE_ENTITY: Update entity position (mode=1)
  5: 0x4921 [0x1F] MOVE_ENTITY: EventEntity moves to X=-12.534*, Z=-103.768*, Y=1.548*
  6: 0x4929 [0x1F] MOVE_ENTITY: Update entity position (mode=1)
  7: 0x492B [0x1E] EventEntity looks at Chocobo (ID: 17719347/0x010E6033) and starts talking
  8: 0x4930 [0x00] END_REQSTACK()
```
