# Event 65535

## Metadata

| Field           | Value    |
|-----------------|----------|
| Event Index     | 31/186   |
| Offset          | 0x493F   |
| Data Size       | 55 bytes |
| Calculated Size | 55 bytes |
| Instructions    | 9        |

```
      00 01 02 03 04 05 06 07  08 09 0A 0B 0C 0D 0E 0F
      -- -- -- -- -- -- -- --  -- -- -- -- -- -- -- --
4930:                                               32                 2
4940: 4F 80 45 A9 81 F0 FF FF  7F F0 FF FF 7F 73 30 38  O.E..........s08
4950: 32 02 80 37 1F 82 20 82  0F 82 21 82 1F 00 22 82  2..7.. ...!...".
4960: 23 82 0F 82 1F 01 1F 00  24 82 25 82 0F 82 1F 01  #.......$.%.....
4970: 1E 34 60 0E 01 00                                 .4`...          
```

## Opcodes

```
  0: 0x493F [0x32] ExtData[1]->MainSpeed = 13* * 0.1
  1: 0x4942 [0x45] LOAD_SCHEDULED_TASK(work_offset1=130*, entity1=LocalPlayer, entity2=LocalPlayer, scheduler_id="s082", work_offset2=0*)
  2: 0x4953 [0x37] UPDATE_EVENT_POSITION_AND_DIR: x=-16.787*, z=-102.681*, y=1.548*, direction=88.9°*
  3: 0x495C [0x1F] MOVE_ENTITY: EventEntity moves to X=-16.772*, Z=-102.981*, Y=1.548*
  4: 0x4964 [0x1F] MOVE_ENTITY: Update entity position (mode=1)
  5: 0x4966 [0x1F] MOVE_ENTITY: EventEntity moves to X=-16.736*, Z=-103.913*, Y=1.548*
  6: 0x496E [0x1F] MOVE_ENTITY: Update entity position (mode=1)
  7: 0x4970 [0x1E] EventEntity looks at Chocobo (ID: 17719348/0x010E6034) and starts talking
  8: 0x4975 [0x00] END_REQSTACK()
```
