# Event 65535

## Metadata

| Field           | Value    |
|-----------------|----------|
| Event Index     | 27/186   |
| Offset          | 0x48B5   |
| Data Size       | 55 bytes |
| Calculated Size | 55 bytes |
| Instructions    | 9        |

```
      00 01 02 03 04 05 06 07  08 09 0A 0B 0C 0D 0E 0F
      -- -- -- -- -- -- -- --  -- -- -- -- -- -- -- --
48B0:                32 4F 80  45 A9 81 F0 FF FF 7F F0       2O.E.......
48C0: FF FF 7F 73 30 38 30 02  80 37 0D 82 0E 82 0F 82  ...s080..7......
48D0: 10 82 1F 00 11 82 12 82  0F 82 1F 01 1F 00 13 82  ................
48E0: 14 82 0F 82 1F 01 1E 32  60 0E 01 00              .......2`...    
```

## Opcodes

```
  0: 0x48B5 [0x32] ExtData[1]->MainSpeed = 13* * 0.1
  1: 0x48B8 [0x45] LOAD_SCHEDULED_TASK: Load scheduler "s080" with entities [LocalPlayer, LocalPlayer], work=[130*, 0*]
  2: 0x48C9 [0x37] UPDATE_EVENT_POSITION_AND_DIR: x=-8.560*, z=-102.675*, y=1.548*, direction=87.3°*
  3: 0x48D2 [0x1F] MOVE_ENTITY: EventEntity moves to X=-8.633*, Z=-103.279*, Y=1.548*
  4: 0x48DA [0x1F] MOVE_ENTITY: Update entity position (mode=1)
  5: 0x48DC [0x1F] MOVE_ENTITY: EventEntity moves to X=-8.475*, Z=-104.063*, Y=1.548*
  6: 0x48E4 [0x1F] MOVE_ENTITY: Update entity position (mode=1)
  7: 0x48E6 [0x1E] EventEntity looks at Chocobo (ID: 17719346/0x010E6032) and starts talking
  8: 0x48EB [0x00] END_REQSTACK()
```
