# Event 65535

## Metadata

| Field           | Value    |
|-----------------|----------|
| Event Index     | 141/186  |
| Offset          | 0xD02E   |
| Data Size       | 41 bytes |
| Calculated Size | 41 bytes |
| Instructions    | 10       |

```
      00 01 02 03 04 05 06 07  08 09 0A 0B 0C 0D 0E 0F
      -- -- -- -- -- -- -- --  -- -- -- -- -- -- -- --
D020:                                            03 2C                .,
D030: 00 53 85 06 2D 00 B4 0A  2C 00 02 2C 00 02 80 02  .S..-...,..,....
D040: 49 D0 B4 0C 2C 00 01 3A  D0 B4 0B 02 2D 00 02 80  I...,..:....-...
D050: 00 56 D0 B4 06 00 00                              .V.....         
```

## Opcodes

```
  0: 0xD02E [0x03] ExtData[1]->WorkLocal[44] = 3600*
  1: 0xD033 [0x06] ExtData[1]->WorkLocal[45] = 0
  2: 0xD036 [0xB4] UI_WINDOW_STRING_HANDLER(case=0x0A - Open event time window, work_offset=ExtData[1]->WorkLocal[44])
  3: 0xD03A [0x02] IF !(ExtData[1]->WorkLocal[44] <= 0*) GOTO 0xD049
  4: 0xD042 [0xB4] UI_WINDOW_STRING_HANDLER(case=0x0C - Get event time count value, work_offset=ExtData[1]->WorkLocal[44])
  5: 0xD046 [0x01] GOTO 0xD03A

SUBROUTINE_D049:
  6: 0xD049 [0xB4] UI_WINDOW_STRING_HANDLER(case=0x0B - Destroy event time window)
  7: 0xD04B [0x02] IF !(ExtData[1]->WorkLocal[45] == 0*) GOTO 0xD056
  8: 0xD053 [0xB4] UI_WINDOW_STRING_HANDLER(case=0x06 - Toggle query message flag, flag_value=0x00)
  9: 0xD056 [0x00] END_REQSTACK()
```
