# Event 65535

## Metadata

| Field           | Value    |
|-----------------|----------|
| Event Index     | 20/41    |
| Offset          | 0x018B   |
| Data Size       | 40 bytes |
| Calculated Size | 40 bytes |
| Instructions    | 8        |

```
      00 01 02 03 04 05 06 07  08 09 0A 0B 0C 0D 0E 0F
      -- -- -- -- -- -- -- --  -- -- -- -- -- -- -- --
0180:                                   66 04 80 28 60             f..(`
0190: 0F 01 28 60 0F 01 64 69  73 30 1C 05 80 32 06 80  ..(`..dis0...2..
01A0: 1F 00 07 80 08 80 00 80  1F 01 6F 4B F8 FF FF 7F  ..........oK....
01B0: 09 80 00                                          ...             
```

## Opcodes

```
  0: 0x018B [0x66] LOAD_EXT_SCHEDULER_MAIN: Load scheduler "dis0" with entities [Ramicharaux (ID: 17784872/0x010F6028), Ramicharaux (ID: 17784872/0x010F6028)], work=21*
  1: 0x019A [0x1C] WAIT(90* ticks)
  2: 0x019D [0x32] ExtData[1]->MainSpeed = 13* * 0.1
  3: 0x01A0 [0x1F] MOVE_ENTITY: EventEntity moves to X=-48.195*, Z=3.606*, Y=0.000*
  4: 0x01A8 [0x1F] MOVE_ENTITY: Update entity position (mode=1)
  5: 0x01AA [0x6F] WAIT_FRAME_DELAY: Yield until WaitTime reaches zero
  6: 0x01AB [0x4B] UPDATE_ENTITY_YAW(entity=EventEntity, yaw=5.34°*)
  7: 0x01B2 [0x00] END_REQSTACK()
```
