# Event 65535

## Metadata

| Field           | Value     |
|-----------------|-----------|
| Event Index     | 3/3       |
| Offset          | 0x0002    |
| Data Size       | 636 bytes |
| Calculated Size | 636 bytes |
| Instructions    | 95        |

```
      00 01 02 03 04 05 06 07  08 09 0A 0B 0C 0D 0E 0F
      -- -- -- -- -- -- -- --  -- -- -- -- -- -- -- --
0000:       02 58 10 00 80 00  7D 02 13 00 00 01 80 02    .X....}.......
0010: 59 10 00 80 00 41 00 02  00 00 00 80 80 22 00 01  Y....A......."..
0020: 3E 00 02 00 00 02 80 80  30 00 1C 03 80 01 3E 00  >.......0.....>.
0030: 02 00 00 01 80 80 3E 00  1C 04 80 01 3E 00 01 68  ......>.....>..h
0040: 00 02 00 00 00 80 80 4C  00 01 68 00 02 00 00 02  .......L..h.....
0050: 80 80 5A 00 1C 05 80 01  68 00 02 00 00 01 80 80  ..Z.....h.......
0060: 68 00 1C 03 80 01 68 00  02 4E 10 00 80 00 7A 02  h.....h..N....z.
0070: 02 49 10 00 80 00 7A 02  13 00 00 06 80 02 47 10  .I....z.......G.
0080: 00 80 00 7A 02 02 00 00  00 80 80 B0 00 5B 07 80  ...z.........[..
0090: F2 C0 0E 01 F2 C0 0E 01  73 68 74 30 03 4F 10 02  ........sht0.O..
00A0: 80 29 05 F2 C0 0E 01 02  03 4F 10 00 80 01 7A 02  .).......O....z.
00B0: 02 00 00 02 80 80 DB 00  5B 07 80 F3 C0 0E 01 F3  ........[.......
00C0: C0 0E 01 73 68 74 30 03  50 10 02 80 29 05 F3 C0  ...sht0.P...)...
00D0: 0E 01 02 03 50 10 00 80  01 7A 02 02 00 00 01 80  ....P....z......
00E0: 80 06 01 5B 07 80 F4 C0  0E 01 F4 C0 0E 01 73 68  ...[..........sh
00F0: 74 30 03 51 10 02 80 29  05 F4 C0 0E 01 02 03 51  t0.Q...).......Q
0100: 10 00 80 01 7A 02 02 00  00 08 80 80 31 01 5B 09  ....z.......1.[.
0110: 80 F5 C0 0E 01 F5 C0 0E  01 73 68 74 30 03 52 10  .........sht0.R.
0120: 02 80 29 05 F5 C0 0E 01  02 03 52 10 00 80 01 7A  ..).......R....z
0130: 02 02 00 00 0A 80 80 5C  01 5B 09 80 F6 C0 0E 01  .......\.[......
0140: F6 C0 0E 01 73 68 74 30  03 53 10 02 80 29 05 F6  ....sht0.S...)..
0150: C0 0E 01 02 03 53 10 00  80 01 7A 02 02 00 00 0B  .....S....z.....
0160: 80 80 87 01 5B 09 80 F7  C0 0E 01 F7 C0 0E 01 73  ....[..........s
0170: 68 74 30 03 54 10 02 80  29 05 F7 C0 0E 01 02 03  ht0.T...).......
0180: 54 10 00 80 01 7A 02 02  00 00 0C 80 80 B2 01 5B  T....z.........[
0190: 0D 80 F8 C0 0E 01 F8 C0  0E 01 73 68 74 30 03 55  ..........sht0.U
01A0: 10 02 80 29 05 F8 C0 0E  01 02 03 55 10 00 80 01  ...).......U....
01B0: 7A 02 02 00 00 0E 80 80  DD 01 5B 0D 80 F9 C0 0E  z.........[.....
01C0: 01 F9 C0 0E 01 73 68 74  30 03 56 10 02 80 29 05  .....sht0.V...).
01D0: F9 C0 0E 01 02 03 56 10  00 80 01 7A 02 02 00 00  ......V....z....
01E0: 0F 80 80 08 02 5B 0D 80  FA C0 0E 01 FA C0 0E 01  .....[..........
01F0: 73 68 74 30 03 57 10 02  80 29 05 FA C0 0E 01 02  sht0.W...)......
0200: 03 57 10 00 80 01 7A 02  02 00 00 10 80 80 2E 02  .W....z.........
0210: 5B 11 80 FB C0 0E 01 FB  C0 0E 01 73 68 74 30 03  [..........sht0.
0220: 4A 10 02 80 29 05 FB C0  0E 01 02 01 7A 02 02 00  J...).......z...
0230: 00 12 80 80 54 02 5B 11  80 FC C0 0E 01 FC C0 0E  ....T.[.........
0240: 01 73 68 74 30 03 4B 10  02 80 29 05 FC C0 0E 01  .sht0.K...).....
0250: 02 01 7A 02 02 00 00 06  80 80 7A 02 5B 11 80 FD  ..z.......z.[...
0260: C0 0E 01 FD C0 0E 01 73  68 74 30 03 4C 10 02 80  .......sht0.L...
0270: 29 05 FD C0 0E 01 02 01  7A 02 01 02 00 00        ).......z.....  
```

## Opcodes

```
  0: 0x0002 [0x02] IF !(Work_Zone[88] == 0*) GOTO 0x027D
  1: 0x000A [0x13] ExtData[1]->WorkLocal[0] = rand() % 2*
  2: 0x000F [0x02] IF !(Work_Zone[89] == 0*) GOTO 0x0041
  3: 0x0017 [0x02] IF !(ExtData[1]->WorkLocal[0] == 0*) GOTO 0x0022
  4: 0x001F [0x01] GOTO 0x003E
  5: 0x0022 [0x02] IF !(ExtData[1]->WorkLocal[0] == 1*) GOTO 0x0030
  6: 0x002A [0x1C] WAIT(30* ticks)
  7: 0x002D [0x01] GOTO 0x003E
  8: 0x0030 [0x02] IF !(ExtData[1]->WorkLocal[0] == 2*) GOTO 0x003E
  9: 0x0038 [0x1C] WAIT(60* ticks)
 10: 0x003B [0x01] GOTO 0x003E

SUBROUTINE_003E:
 11: 0x003E [0x01] GOTO 0x0068
 12: 0x0041 [0x02] IF !(ExtData[1]->WorkLocal[0] == 0*) GOTO 0x004C
 13: 0x0049 [0x01] GOTO 0x0068
 14: 0x004C [0x02] IF !(ExtData[1]->WorkLocal[0] == 1*) GOTO 0x005A
 15: 0x0054 [0x1C] WAIT(15* ticks)
 16: 0x0057 [0x01] GOTO 0x0068
 17: 0x005A [0x02] IF !(ExtData[1]->WorkLocal[0] == 2*) GOTO 0x0068
 18: 0x0062 [0x1C] WAIT(30* ticks)
 19: 0x0065 [0x01] GOTO 0x0068

SUBROUTINE_0068:
 20: 0x0068 [0x02] IF !(Work_Zone[78] == 0*) GOTO 0x027A
 21: 0x0070 [0x02] IF !(Work_Zone[73] == 0*) GOTO 0x027A
 22: 0x0078 [0x13] ExtData[1]->WorkLocal[0] = rand() % 11*
 23: 0x007D [0x02] IF !(Work_Zone[71] == 0*) GOTO 0x027A
 24: 0x0085 [0x02] IF !(ExtData[1]->WorkLocal[0] == 0*) GOTO 0x00B0
 25: 0x008D [0x5B] LOAD_EXT_SCHEDULER: Load scheduler "sht0" with entities [Unnamed NPC (ID: 17744114/0x010EC0F2), Unnamed NPC (ID: 17744114/0x010EC0F2)], work=2161*
 26: 0x009C [0x03] Work_Zone[79] = 1*
 27: 0x00A1 [0x29] REQ_SET_WAIT(priority=0x05, entity_id=Unnamed NPC (ID: 17744114/0x010EC0F2), tag_num=0x02)
 28: 0x00A8 [0x03] Work_Zone[79] = 0*
 29: 0x00AD [0x01] GOTO 0x027A
 30: 0x00B0 [0x02] IF !(ExtData[1]->WorkLocal[0] == 1*) GOTO 0x00DB
 31: 0x00B8 [0x5B] LOAD_EXT_SCHEDULER: Load scheduler "sht0" with entities [Unnamed NPC (ID: 17744115/0x010EC0F3), Unnamed NPC (ID: 17744115/0x010EC0F3)], work=2161*
 32: 0x00C7 [0x03] Work_Zone[80] = 1*
 33: 0x00CC [0x29] REQ_SET_WAIT(priority=0x05, entity_id=Unnamed NPC (ID: 17744115/0x010EC0F3), tag_num=0x02)
 34: 0x00D3 [0x03] Work_Zone[80] = 0*
 35: 0x00D8 [0x01] GOTO 0x027A
 36: 0x00DB [0x02] IF !(ExtData[1]->WorkLocal[0] == 2*) GOTO 0x0106
 37: 0x00E3 [0x5B] LOAD_EXT_SCHEDULER: Load scheduler "sht0" with entities [Unnamed NPC (ID: 17744116/0x010EC0F4), Unnamed NPC (ID: 17744116/0x010EC0F4)], work=2161*
 38: 0x00F2 [0x03] Work_Zone[81] = 1*
 39: 0x00F7 [0x29] REQ_SET_WAIT(priority=0x05, entity_id=Unnamed NPC (ID: 17744116/0x010EC0F4), tag_num=0x02)
 40: 0x00FE [0x03] Work_Zone[81] = 0*
 41: 0x0103 [0x01] GOTO 0x027A
 42: 0x0106 [0x02] IF !(ExtData[1]->WorkLocal[0] == 3*) GOTO 0x0131
 43: 0x010E [0x5B] LOAD_EXT_SCHEDULER: Load scheduler "sht0" with entities [Unnamed NPC (ID: 17744117/0x010EC0F5), Unnamed NPC (ID: 17744117/0x010EC0F5)], work=2149*
 44: 0x011D [0x03] Work_Zone[82] = 1*
 45: 0x0122 [0x29] REQ_SET_WAIT(priority=0x05, entity_id=Unnamed NPC (ID: 17744117/0x010EC0F5), tag_num=0x02)
 46: 0x0129 [0x03] Work_Zone[82] = 0*
 47: 0x012E [0x01] GOTO 0x027A
 48: 0x0131 [0x02] IF !(ExtData[1]->WorkLocal[0] == 4*) GOTO 0x015C
 49: 0x0139 [0x5B] LOAD_EXT_SCHEDULER: Load scheduler "sht0" with entities [Unnamed NPC (ID: 17744118/0x010EC0F6), Unnamed NPC (ID: 17744118/0x010EC0F6)], work=2149*
 50: 0x0148 [0x03] Work_Zone[83] = 1*
 51: 0x014D [0x29] REQ_SET_WAIT(priority=0x05, entity_id=Unnamed NPC (ID: 17744118/0x010EC0F6), tag_num=0x02)
 52: 0x0154 [0x03] Work_Zone[83] = 0*
 53: 0x0159 [0x01] GOTO 0x027A
 54: 0x015C [0x02] IF !(ExtData[1]->WorkLocal[0] == 5*) GOTO 0x0187
 55: 0x0164 [0x5B] LOAD_EXT_SCHEDULER: Load scheduler "sht0" with entities [Unnamed NPC (ID: 17744119/0x010EC0F7), Unnamed NPC (ID: 17744119/0x010EC0F7)], work=2149*
 56: 0x0173 [0x03] Work_Zone[84] = 1*
 57: 0x0178 [0x29] REQ_SET_WAIT(priority=0x05, entity_id=Unnamed NPC (ID: 17744119/0x010EC0F7), tag_num=0x02)
 58: 0x017F [0x03] Work_Zone[84] = 0*
 59: 0x0184 [0x01] GOTO 0x027A
 60: 0x0187 [0x02] IF !(ExtData[1]->WorkLocal[0] == 6*) GOTO 0x01B2
 61: 0x018F [0x5B] LOAD_EXT_SCHEDULER: Load scheduler "sht0" with entities [Unnamed NPC (ID: 17744120/0x010EC0F8), Unnamed NPC (ID: 17744120/0x010EC0F8)], work=1455*
 62: 0x019E [0x03] Work_Zone[85] = 1*
 63: 0x01A3 [0x29] REQ_SET_WAIT(priority=0x05, entity_id=Unnamed NPC (ID: 17744120/0x010EC0F8), tag_num=0x02)
 64: 0x01AA [0x03] Work_Zone[85] = 0*
 65: 0x01AF [0x01] GOTO 0x027A
 66: 0x01B2 [0x02] IF !(ExtData[1]->WorkLocal[0] == 7*) GOTO 0x01DD
 67: 0x01BA [0x5B] LOAD_EXT_SCHEDULER: Load scheduler "sht0" with entities [Unnamed NPC (ID: 17744121/0x010EC0F9), Unnamed NPC (ID: 17744121/0x010EC0F9)], work=1455*
 68: 0x01C9 [0x03] Work_Zone[86] = 1*
 69: 0x01CE [0x29] REQ_SET_WAIT(priority=0x05, entity_id=Unnamed NPC (ID: 17744121/0x010EC0F9), tag_num=0x02)
 70: 0x01D5 [0x03] Work_Zone[86] = 0*
 71: 0x01DA [0x01] GOTO 0x027A
 72: 0x01DD [0x02] IF !(ExtData[1]->WorkLocal[0] == 8*) GOTO 0x0208
 73: 0x01E5 [0x5B] LOAD_EXT_SCHEDULER: Load scheduler "sht0" with entities [Unnamed NPC (ID: 17744122/0x010EC0FA), Unnamed NPC (ID: 17744122/0x010EC0FA)], work=1455*
 74: 0x01F4 [0x03] Work_Zone[87] = 1*
 75: 0x01F9 [0x29] REQ_SET_WAIT(priority=0x05, entity_id=Unnamed NPC (ID: 17744122/0x010EC0FA), tag_num=0x02)
 76: 0x0200 [0x03] Work_Zone[87] = 0*
 77: 0x0205 [0x01] GOTO 0x027A
 78: 0x0208 [0x02] IF !(ExtData[1]->WorkLocal[0] == 9*) GOTO 0x022E
 79: 0x0210 [0x5B] LOAD_EXT_SCHEDULER: Load scheduler "sht0" with entities [Unnamed NPC (ID: 17744123/0x010EC0FB), Unnamed NPC (ID: 17744123/0x010EC0FB)], work=2164*
 80: 0x021F [0x03] Work_Zone[74] = 1*
 81: 0x0224 [0x29] REQ_SET_WAIT(priority=0x05, entity_id=Unnamed NPC (ID: 17744123/0x010EC0FB), tag_num=0x02)
 82: 0x022B [0x01] GOTO 0x027A
 83: 0x022E [0x02] IF !(ExtData[1]->WorkLocal[0] == 10*) GOTO 0x0254
 84: 0x0236 [0x5B] LOAD_EXT_SCHEDULER: Load scheduler "sht0" with entities [Unnamed NPC (ID: 17744124/0x010EC0FC), Unnamed NPC (ID: 17744124/0x010EC0FC)], work=2164*
 85: 0x0245 [0x03] Work_Zone[75] = 1*
 86: 0x024A [0x29] REQ_SET_WAIT(priority=0x05, entity_id=Unnamed NPC (ID: 17744124/0x010EC0FC), tag_num=0x02)
 87: 0x0251 [0x01] GOTO 0x027A
 88: 0x0254 [0x02] IF !(ExtData[1]->WorkLocal[0] == 11*) GOTO 0x027A
 89: 0x025C [0x5B] LOAD_EXT_SCHEDULER: Load scheduler "sht0" with entities [Unnamed NPC (ID: 17744125/0x010EC0FD), Unnamed NPC (ID: 17744125/0x010EC0FD)], work=2164*
 90: 0x026B [0x03] Work_Zone[76] = 1*
 91: 0x0270 [0x29] REQ_SET_WAIT(priority=0x05, entity_id=Unnamed NPC (ID: 17744125/0x010EC0FD), tag_num=0x02)
 92: 0x0277 [0x01] GOTO 0x027A

SUBROUTINE_027A:
 93: 0x027A [0x01] GOTO 0x0002
 94: 0x027D [0x00] END_REQSTACK()
```
