# Event 65535

## Metadata

| Field           | Value    |
|-----------------|----------|
| Event Index     | 5/8      |
| Offset          | 0x0055   |
| Data Size       | 61 bytes |
| Calculated Size | 61 bytes |
| Instructions    | 5        |

```
      00 01 02 03 04 05 06 07  08 09 0A 0B 0C 0D 0E 0F
      -- -- -- -- -- -- -- --  -- -- -- -- -- -- -- --
0050:                5B 03 80  18 12 02 01 18 12 02 01       [..........
0060: 6B 7A 65 30 5B 04 80 1C  12 02 01 1C 12 02 01 6B  kze0[..........k
0070: 7A 65 30 5B 01 80 1B 12  02 01 1B 12 02 01 63 79  ze0[..........cy
0080: 30 35 5B 02 80 1A 12 02  01 1A 12 02 01 63 79 30  05[..........cy0
0090: 32 00                                             2.              
```

## Opcodes

```
  0: 0x0055 [0x5B] LOAD_EXT_SCHEDULER(work_offset=633*, entity1=Ulmia (ID: 16912920/0x01021218), entity2=Ulmia (ID: 16912920/0x01021218), action="kze0")
  1: 0x0064 [0x5B] LOAD_EXT_SCHEDULER(work_offset=418*, entity1=Louverance (ID: 16912924/0x0102121C), entity2=Louverance (ID: 16912924/0x0102121C), action="kze0")
  2: 0x0073 [0x5B] LOAD_EXT_SCHEDULER(work_offset=667*, entity1=Shikaree Z (ID: 16912923/0x0102121B), entity2=Shikaree Z (ID: 16912923/0x0102121B), action="cy05")
  3: 0x0082 [0x5B] LOAD_EXT_SCHEDULER(work_offset=493*, entity1=Jabbos (ID: 16912922/0x0102121A), entity2=Jabbos (ID: 16912922/0x0102121A), action="cy02")
  4: 0x0091 [0x00] END_REQSTACK()
```
