# Event 65535

## Metadata

| Field           | Value    |
|-----------------|----------|
| Event Index     | 5/8      |
| Offset          | 0x0055   |
| Data Size       | 61 bytes |
| Calculated Size | 61 bytes |
| Instructions    | 5        |

```
      00 01 02 03 04 05 06 07  08 09 0A 0B 0C 0D 0E 0F
      -- -- -- -- -- -- -- --  -- -- -- -- -- -- -- --
0050:                5B 03 80  18 12 02 01 18 12 02 01       [..........
0060: 6B 7A 65 30 5B 04 80 1C  12 02 01 1C 12 02 01 6B  kze0[..........k
0070: 7A 65 30 5B 01 80 1B 12  02 01 1B 12 02 01 63 79  ze0[..........cy
0080: 30 35 5B 02 80 1A 12 02  01 1A 12 02 01 63 79 30  05[..........cy0
0090: 32 00                                             2.              
```

## Opcodes

```
  0: 0x0055 [0x5B] LOAD_EXT_SCHEDULER: Load scheduler "kze0" with entities [Ulmia (ID: 16912920/0x01021218), Ulmia (ID: 16912920/0x01021218)], work=633*
  1: 0x0064 [0x5B] LOAD_EXT_SCHEDULER: Load scheduler "kze0" with entities [Louverance (ID: 16912924/0x0102121C), Louverance (ID: 16912924/0x0102121C)], work=418*
  2: 0x0073 [0x5B] LOAD_EXT_SCHEDULER: Load scheduler "cy05" with entities [Shikaree Z (ID: 16912923/0x0102121B), Shikaree Z (ID: 16912923/0x0102121B)], work=667*
  3: 0x0082 [0x5B] LOAD_EXT_SCHEDULER: Load scheduler "cy02" with entities [Jabbos (ID: 16912922/0x0102121A), Jabbos (ID: 16912922/0x0102121A)], work=493*
  4: 0x0091 [0x00] END_REQSTACK()
```
