# Event 65535

## Metadata

| Field           | Value    |
|-----------------|----------|
| Event Index     | 7/8      |
| Offset          | 0x00A8   |
| Data Size       | 46 bytes |
| Calculated Size | 46 bytes |
| Instructions    | 4        |

```
      00 01 02 03 04 05 06 07  08 09 0A 0B 0C 0D 0E 0F
      -- -- -- -- -- -- -- --  -- -- -- -- -- -- -- --
00A0:                          5B 04 80 1C 12 02 01 1C          [.......
00B0: 12 02 01 6B 65 69 30 5B  05 80 1B 12 02 01 1B 12  ...kei0[........
00C0: 02 01 61 74 6C 30 5B 02  80 1A 12 02 01 1A 12 02  ..atl0[.........
00D0: 01 61 74 6C 30 00                                 .atl0.          
```

## Opcodes

```
  0: 0x00A8 [0x5B] LOAD_EXT_SCHEDULER: Load scheduler "kei0" with entities [Louverance (ID: 16912924/0x0102121C), Louverance (ID: 16912924/0x0102121C)], work=418*
  1: 0x00B7 [0x5B] LOAD_EXT_SCHEDULER: Load scheduler "atl0" with entities [Shikaree Z (ID: 16912923/0x0102121B), Shikaree Z (ID: 16912923/0x0102121B)], work=665*
  2: 0x00C6 [0x5B] LOAD_EXT_SCHEDULER: Load scheduler "atl0" with entities [Jabbos (ID: 16912922/0x0102121A), Jabbos (ID: 16912922/0x0102121A)], work=493*
  3: 0x00D5 [0x00] END_REQSTACK()
```
