# Event 344

## Metadata

| Field           | Value    |
|-----------------|----------|
| Event Index     | 13/18    |
| Offset          | 0x0D9D   |
| Data Size       | 43 bytes |
| Calculated Size | 43 bytes |
| Instructions    | 13       |

```
      00 01 02 03 04 05 06 07  08 09 0A 0B 0C 0D 0E 0F
      -- -- -- -- -- -- -- --  -- -- -- -- -- -- -- --
0D90:                                         42 20 01               B .
0DA0: 1E F0 FF FF 7F 1D 45 80  23 03 02 10 4D 80 66 4F  ......E.#...M.fO
0DB0: 80 F8 FF FF 7F F8 FF FF  7F 70 61 73 30 1D 54 80  .........pas0.T.
0DC0: 23 1C 3D 80 20 00 21 00                           #.=. .!.        
```

## Opcodes

```
  0: 0x0D9D [0x42] SET_CLI_EVENT_CANCEL_DATA()
  1: 0x0D9E [0x20] SET_CLI_EVENT_UC_FLAG: Lock player control
  2: 0x0DA0 [0x1E] EventEntity looks at LocalPlayer and starts talking
  3: 0x0DA5 [0x1D] PRINT_EVENT_MESSAGE(message_id=7571*)
    → "Ah, superb timing!\u007F1\u0000\u0007"
  4: 0x0DA8 [0x23] WAIT_FOR_DIALOG_INTERACTION
  5: 0x0DA9 [0x03] Work_Zone[2] = 5704*
  6: 0x0DAE [0x66] LOAD_EXT_SCHEDULER_MAIN: Load scheduler "pas0" with entities [EventEntity, EventEntity], work=20*
  7: 0x0DBD [0x1D] PRINT_EVENT_MESSAGE(message_id=7580*)
    → "I have just now finished cooking another batch of \u0001\u0005#\u0002\u0000\u0000\u0000. This is for you, fresh from the fire!\u0007These are hard times, but there is nothing a little effort won't see us through.\u007F1\u0000\u0007"
  8: 0x0DC0 [0x23] WAIT_FOR_DIALOG_INTERACTION
  9: 0x0DC1 [0x1C] WAIT(120* ticks)
 10: 0x0DC4 [0x20] SET_CLI_EVENT_UC_FLAG: Unlock player control
 11: 0x0DC6 [0x21] END_EVENT
 12: 0x0DC7 [0x00] END_REQSTACK()
```
