# Event 65535

## Metadata

| Field           | Value    |
|-----------------|----------|
| Event Index     | 3/5      |
| Offset          | 0x0002   |
| Data Size       | 85 bytes |
| Calculated Size | 85 bytes |
| Instructions    | 19       |

```
      00 01 02 03 04 05 06 07  08 09 0A 0B 0C 0D 0E 0F
      -- -- -- -- -- -- -- --  -- -- -- -- -- -- -- --
0000:       24 00 80 01 80 01  80 25 02 00 10 01 80 00    $......%......
0010: 30 00 02 2A 10 01 80 00  25 00 06 2B 10 03 2C 10  0..*....%..+..,.
0020: 02 80 01 2D 00 05 2B 10  03 2C 10 02 80 01 56 00  ...-..+..,....V.
0030: 02 00 10 02 80 00 56 00  02 2A 10 01 80 00 4B 00  ......V..*....K.
0040: 06 2B 10 03 2C 10 02 80  01 53 00 05 2B 10 03 2C  .+..,....S..+..,
0050: 10 03 80 01 56 00 00                              ....V..         
```

## Opcodes

```
  0: 0x0002 [0x24] CREATE_DIALOG(message_id=14389*, default_option=0*, option_flags=0*)
    → "What will you do!?\u0007\u000BWho, me?\u0007Take evasive measures!\u007F1\u0000\u0007"
  1: 0x0009 [0x25] WAIT_DIALOG_SELECT()
  2: 0x000A [0x02] IF !(Work_Zone[0] == 0*) GOTO 0x0030
  3: 0x0012 [0x02] IF !(Work_Zone[42] == 0*) GOTO 0x0025
  4: 0x001A [0x06] Work_Zone[43] = 0
  5: 0x001D [0x03] Work_Zone[44] = 1*
  6: 0x0022 [0x01] GOTO 0x002D

SUBROUTINE_0025:
  7: 0x0025 [0x05] Work_Zone[43] = 1
  8: 0x0028 [0x03] Work_Zone[44] = 1*
  9: 0x002D [0x01] GOTO 0x0056

SUBROUTINE_0030:
 10: 0x0030 [0x02] IF !(Work_Zone[0] == 1*) GOTO 0x0056
 11: 0x0038 [0x02] IF !(Work_Zone[42] == 0*) GOTO 0x004B
 12: 0x0040 [0x06] Work_Zone[43] = 0
 13: 0x0043 [0x03] Work_Zone[44] = 1*
 14: 0x0048 [0x01] GOTO 0x0053

SUBROUTINE_004B:
 15: 0x004B [0x05] Work_Zone[43] = 1
 16: 0x004E [0x03] Work_Zone[44] = 2*
 17: 0x0053 [0x01] GOTO 0x0056

SUBROUTINE_0056:
 18: 0x0056 [0x00] END_REQSTACK()
```
