# Event 65535

## Metadata

| Field           | Value    |
|-----------------|----------|
| Event Index     | 7/12     |
| Offset          | 0x00AD   |
| Data Size       | 53 bytes |
| Calculated Size | 53 bytes |
| Instructions    | 9        |

```
      00 01 02 03 04 05 06 07  08 09 0A 0B 0C 0D 0E 0F
      -- -- -- -- -- -- -- --  -- -- -- -- -- -- -- --
00A0:                                         4A F8 FF               J..
00B0: FF 7F 08 01 10 01 7B F8  FF FF 7F 6F 76 F8 FF FF  ......{....ov...
00C0: 7F 4A 03 01 10 01 08 01  10 01 7B 03 01 10 01 1C  .J........{.....
00D0: 0C 80 66 0D 80 03 01 10  01 03 01 10 01 77 61 76  ..f..........wav
00E0: 30 00                                             0.              
```

## Opcodes

```
  0: 0x00AD [0x4A] EventEntity looks at Clemmar (ID: 17826056/0x01100108)
  1: 0x00B6 [0x7B] EventEntity stops talking
  2: 0x00BB [0x6F] WAIT_FRAME_DELAY: Yield until WaitTime reaches zero
  3: 0x00BC [0x76] CHECK_ENTITY_RENDER_FLAGS: Wait until EventEntity Render.Flags0 and Render.Flags3 conditions are met
  4: 0x00C1 [0x4A] Behff Oibbah (ID: 17826051/0x01100103) looks at Clemmar (ID: 17826056/0x01100108)
  5: 0x00CA [0x7B] Behff Oibbah (ID: 17826051/0x01100103) stops talking
  6: 0x00CF [0x1C] WAIT(10* ticks)
  7: 0x00D2 [0x66] LOAD_EXT_SCHEDULER_MAIN(work_offset=52*, entity1=Behff Oibbah (ID: 17826051/0x01100103), entity2=Behff Oibbah (ID: 17826051/0x01100103), action="wav0")
  8: 0x00E1 [0x00] END_REQSTACK()
```
