# Event 71

## Metadata

| Field           | Value    |
|-----------------|----------|
| Event Index     | 3/3      |
| Offset          | 0x0030   |
| Data Size       | 48 bytes |
| Calculated Size | 48 bytes |
| Instructions    | 12       |

```
      00 01 02 03 04 05 06 07  08 09 0A 0B 0C 0D 0E 0F
      -- -- -- -- -- -- -- --  -- -- -- -- -- -- -- --
0030: 42 1E F0 FF FF 7F 6F 70  66 00 80 F8 FF FF 7F F8  B.....opf.......
0040: FF FF 7F 74 6C 62 31 1D  03 80 23 1D 04 80 23 66  ...tlb1...#...#f
0050: 00 80 F8 FF FF 7F F8 FF  FF 7F 74 6C 62 32 21 00  ..........tlb2!.
```

## Opcodes

```
  0: 0x0030 [0x42] SET_CLI_EVENT_CANCEL_DATA()
  1: 0x0031 [0x1E] EventEntity looks at LocalPlayer and starts talking
  2: 0x0036 [0x6F] WAIT_FRAME_DELAY: Yield until WaitTime reaches zero
  3: 0x0037 [0x70] WAIT_ENTITY_RENDER_FLAG: Wait while EventEntity->Render.Flags3 bit 2 is set (cancel turn if not)
  4: 0x0038 [0x66] LOAD_EXT_SCHEDULER_MAIN(work_offset=53*, entity1=EventEntity, entity2=EventEntity, action="tlb1")
  5: 0x0047 [0x1D] PRINT_EVENT_MESSAGE(message_id=8143*)
    → "Welcome. You're here on behalf of the library, yes?\u007F1\u0000\u0007"
  6: 0x004A [0x23] WAIT_FOR_DIALOG_INTERACTION
  7: 0x004B [0x1D] PRINT_EVENT_MESSAGE(message_id=8144*)
    → "Their records of our order appear to be complete. Thank you for coming to check.\u007F1\u0000\u0007"
  8: 0x004E [0x23] WAIT_FOR_DIALOG_INTERACTION
  9: 0x004F [0x66] LOAD_EXT_SCHEDULER_MAIN(work_offset=53*, entity1=EventEntity, entity2=EventEntity, action="tlb2")
 10: 0x005E [0x21] END_EVENT
 11: 0x005F [0x00] END_REQSTACK()
```
