# Event 65535

## Metadata

| Field           | Value    |
|-----------------|----------|
| Event Index     | 30/30    |
| Offset          | 0x016D   |
| Data Size       | 96 bytes |
| Calculated Size | 96 bytes |
| Instructions    | 19       |

```
      00 01 02 03 04 05 06 07  08 09 0A 0B 0C 0D 0E 0F
      -- -- -- -- -- -- -- --  -- -- -- -- -- -- -- --
0160:                                         13 00 00               ...
0170: 17 80 14 00 00 0C 80 07  00 00 18 80 1C 00 00 13  ................
0180: 00 00 19 80 02 00 00 1A  80 80 9B 01 6E F8 FF FF  ............n...
0190: 7F 02 80 99 F8 FF FF 7F  01 C9 01 02 00 00 05 80  ................
01A0: 80 B2 01 6E F8 FF FF 7F  04 80 99 F8 FF FF 7F 01  ...n............
01B0: C9 01 02 00 00 19 80 80  C9 01 6E F8 FF FF 7F 15  ..........n.....
01C0: 80 99 F8 FF FF 7F 01 C9  01 01 6D 01 00           ..........m..   
```

## Opcodes

```
  0: 0x016D [0x13] ExtData[1]->WorkLocal[0] = rand() % 5*
  1: 0x0172 [0x14] ExtData[1]->WorkLocal[0] *= 60*
  2: 0x0177 [0x07] ExtData[1]->WorkLocal[0] += 300*
  3: 0x017C [0x1C] WAIT(ExtData[1]->WorkLocal[0] ticks)
  4: 0x017F [0x13] ExtData[1]->WorkLocal[0] = rand() % 2*
  5: 0x0184 [0x02] IF !(ExtData[1]->WorkLocal[0] == 0*) GOTO 0x019B
  6: 0x018C [0x6E] EventEntity uses emote 8*
  7: 0x0193 [0x99] Wait for EventEntity animation to complete
  8: 0x0198 [0x01] GOTO 0x01C9

SUBROUTINE_019B:
  9: 0x019B [0x02] IF !(ExtData[1]->WorkLocal[0] == 1*) GOTO 0x01B2
 10: 0x01A3 [0x6E] EventEntity uses emote 10*
 11: 0x01AA [0x99] Wait for EventEntity animation to complete
 12: 0x01AF [0x01] GOTO 0x01C9

SUBROUTINE_01B2:
 13: 0x01B2 [0x02] IF !(ExtData[1]->WorkLocal[0] == 2*) GOTO 0x01C9
 14: 0x01BA [0x6E] EventEntity uses emote 4*
 15: 0x01C1 [0x99] Wait for EventEntity animation to complete
 16: 0x01C6 [0x01] GOTO 0x01C9

SUBROUTINE_01C9:
 17: 0x01C9 [0x01] GOTO 0x016D
```

## Data or dead code:

```
# Dead code (unreachable instructions):
     0x01CC [0x00] END_REQSTACK()
```