# Event 302

## Metadata

| Field           | Value    |
|-----------------|----------|
| Event Index     | 5/7      |
| Offset          | 0x0579   |
| Data Size       | 20 bytes |
| Calculated Size | 20 bytes |
| Instructions    | 10       |

```
      00 01 02 03 04 05 06 07  08 09 0A 0B 0C 0D 0E 0F
      -- -- -- -- -- -- -- --  -- -- -- -- -- -- -- --
0570:                             42 1E F0 FF FF 7F 1D           B......
0580: 49 80 23 1D 4A 80 23 1D  4B 80 23 21 00           I.#.J.#.K.#!.   
```

## Opcodes

```
  0: 0x0579 [0x42] SET_CLI_EVENT_CANCEL_DATA()
  1: 0x057A [0x1E] EventEntity looks at LocalPlayer and starts talking
  2: 0x057F [0x1D] PRINT_EVENT_MESSAGE(message_id=11271*)
    → "Right, so I'm takin' yer 
\u0001 \u0001	)\u0002\u0001\u0000\u0000\u0002\u0000\u0000\u0000 in exchange fer lettin' you take on \u00072\u0001\u0008\u0001\u0001\u0006\u0000\u0002\u0002\u0000\u0000.\u00073\u007F1\u0000\u0007"
  3: 0x0582 [0x23] WAIT_FOR_DIALOG_INTERACTION
  4: 0x0583 [0x1D] PRINT_EVENT_MESSAGE(message_id=11272*)
    → "Make yer way to the cutter docked on the west side of Dvucca Isle.\u0007I'll make arrangements for yer passage.\u007F1\u0000\u0007"
  5: 0x0586 [0x23] WAIT_FOR_DIALOG_INTERACTION
  6: 0x0587 [0x1D] PRINT_EVENT_MESSAGE(message_id=11273*)
    → "The honor o' the Maelstrom Company rests on yer shoulders.\u0007Don't make me hunt you down.\u007F1\u0000\u0007"
  7: 0x058A [0x23] WAIT_FOR_DIALOG_INTERACTION
  8: 0x058B [0x21] END_EVENT
  9: 0x058C [0x00] END_REQSTACK()
```
