# 17494748

## Common Data

| Field            | Value                                |
|------------------|--------------------------------------|
| Zone             | The Eldieme Necropolis [S] (ID: 175) |
| Block Size       | 104 bytes                            |
| Total Events     | 2                                    |
| References Count | 4                                    |

## List of Events

| Event ID              | Entrypoint   |   Size |   Instructions |
|-----------------------|--------------|--------|----------------|
| [65535](#event-65535) | 0x0000       |      1 |              1 |
| [100](#event-100)     | 0x0001       |     62 |             18 |

## DAT References (imed_data)

|   Index | Hex Value   |   Dec Value |
|---------|-------------|-------------|
|       0 | 0x1DB7      |        7607 |
|       1 | 0x1DB8      |        7608 |
|       2 | 0x0001      |           1 |
|       3 | 0x0000      |           0 |

## String References

- **7607**: You sense a powerful field of magic drawing you into the brazier...
- **7608**: Allow yourself to be drawn into the flames? [Into the fire!/Not right now...]

## Events

### Event 65535

#### Metadata

| Field        | Value   |
|--------------|---------|
| Entrypoint   | 0x0000  |
| Data Size    | 1 bytes |
| Instructions | 1       |

```
      00 01 02 03 04 05 06 07  08 09 0A 0B 0C 0D 0E 0F
      -- -- -- -- -- -- -- --  -- -- -- -- -- -- -- --
0000: 00                                                .               
```

#### Opcodes

```
  0: 0x0000 [0x00] END_REQSTACK()
```

### Event 100

#### Metadata

| Field        | Value    |
|--------------|----------|
| Entrypoint   | 0x0001   |
| Data Size    | 62 bytes |
| Instructions | 18       |

```
      00 01 02 03 04 05 06 07  08 09 0A 0B 0C 0D 0E 0F
      -- -- -- -- -- -- -- --  -- -- -- -- -- -- -- --
0000:    20 01 48 00 80 23 24  01 80 02 80 03 80 25 02    .H..#$......%.
0010: 00 10 03 80 00 2B 00 43  00 43 01 42 03 01 10 02  .....+.C.C.B....
0020: 80 29 01 F0 FF FF 7F 02  01 3B 00 02 00 10 02 80  .).......;......
0030: 00 3B 00 03 01 10 03 80  01 3B 00 20 00 21 00     .;.......;. .!. 
```

#### Opcodes

```
  0: 0x0001 [0x20] SET_CLI_EVENT_UC_FLAG: Lock player control
  1: 0x0003 [0x48] [System] [7607*]:
    → "You sense a powerful field of magic drawing you into the brazier..."
  2: 0x0006 [0x23] WAIT_FOR_DIALOG_INTERACTION
  3: 0x0007 [0x24] CREATE_DIALOG(message_id=7608*, default_option=1*, option_flags=0*)
    → "Allow yourself to be drawn into the flames? [Into the fire!/Not right now...]"
  4: 0x000E [0x25] WAIT_DIALOG_SELECT()
  5: 0x000F [0x02] IF !(Work_Zone[0] == 0*) GOTO 0x002B
  6: 0x0017 [0x43] SEND_EVENT_UPDATE: Send pending tag to server (packet 0x005B)
  7: 0x0019 [0x43] SEND_EVENT_UPDATE: Check pending flag (skip if not pending)
  8: 0x001B [0x42] SET_CLI_EVENT_CANCEL_DATA()
  9: 0x001C [0x03] Work_Zone[1] = 1*
 10: 0x0021 [0x29] REQ_SET_WAIT(priority=0x01, entity_id=LocalPlayer, tag_num=0x02)
 11: 0x0028 [0x01] GOTO 0x003B
 12: 0x002B [0x02] IF !(Work_Zone[0] == 1*) GOTO 0x003B
 13: 0x0033 [0x03] Work_Zone[1] = 0*
 14: 0x0038 [0x01] GOTO 0x003B

SUBROUTINE_003B:
 15: 0x003B [0x20] SET_CLI_EVENT_UC_FLAG: Unlock player control
 16: 0x003D [0x21] END_EVENT
 17: 0x003E [0x00] END_REQSTACK()
```
