# 17494786 - Nicolaus

## Common Data

| Field            | Value                                |
|------------------|--------------------------------------|
| Zone             | The Eldieme Necropolis [S] (ID: 175) |
| Block Size       | 164 bytes                            |
| Total Events     | 6                                    |
| References Count | 12                                   |

## List of Events

| Event ID                 | Entrypoint   |   Size |   Instructions |
|--------------------------|--------------|--------|----------------|
| [65535](#event-65535)    | 0x0000       |      1 |              1 |
| [42](#event-42)          | 0x0001       |      1 |              1 |
| [43](#event-43)          | 0x0002       |      1 |              1 |
| [65535.1](#event-655351) | 0x0003       |     47 |              9 |
| [65535.2](#event-655352) | 0x0032       |      9 |              3 |
| [65535.3](#event-655353) | 0x003B       |     15 |              5 |

## DAT References (imed_data)

|   Index | Hex Value   |   Dec Value |
|---------|-------------|-------------|
|       0 | 0x0023      |          35 |
|       1 | 0x4AC53     |      306259 |
|       2 | 0x2BD9      |       11225 |
|       3 | 0xFFFF9495  |  4294939797 |
|       4 | 0x000D      |          13 |
|       5 | 0x4ABC2     |      306114 |
|       6 | 0x2D05      |       11525 |
|       7 | 0x0002      |           2 |
|       8 | 0x004B      |          75 |
|       9 | 0x4A600     |      304640 |
|      10 | 0x4682      |       18050 |
|      11 | 0xFFFF9494  |  4294939796 |

## Events

### Event 65535

#### Metadata

| Field        | Value   |
|--------------|---------|
| Entrypoint   | 0x0000  |
| Data Size    | 1 bytes |
| Instructions | 1       |

```
      00 01 02 03 04 05 06 07  08 09 0A 0B 0C 0D 0E 0F
      -- -- -- -- -- -- -- --  -- -- -- -- -- -- -- --
0000: 00                                                .               
```

#### Opcodes

```
  0: 0x0000 [0x00] END_REQSTACK()
```

### Event 42

#### Metadata

| Field        | Value   |
|--------------|---------|
| Entrypoint   | 0x0001  |
| Data Size    | 1 bytes |
| Instructions | 1       |

```
      00 01 02 03 04 05 06 07  08 09 0A 0B 0C 0D 0E 0F
      -- -- -- -- -- -- -- --  -- -- -- -- -- -- -- --
0000:    00                                              .              
```

#### Opcodes

```
  0: 0x0001 [0x00] END_REQSTACK()
```

### Event 43

#### Metadata

| Field        | Value   |
|--------------|---------|
| Entrypoint   | 0x0002  |
| Data Size    | 1 bytes |
| Instructions | 1       |

```
      00 01 02 03 04 05 06 07  08 09 0A 0B 0C 0D 0E 0F
      -- -- -- -- -- -- -- --  -- -- -- -- -- -- -- --
0000:       00                                            .             
```

#### Opcodes

```
  0: 0x0002 [0x00] END_REQSTACK()
```

### Event 65535.1

#### Metadata

| Field        | Value    |
|--------------|----------|
| Entrypoint   | 0x0003   |
| Data Size    | 47 bytes |
| Instructions | 9        |

```
      00 01 02 03 04 05 06 07  08 09 0A 0B 0C 0D 0E 0F
      -- -- -- -- -- -- -- --  -- -- -- -- -- -- -- --
0000:          32 00 80 1F 00  01 80 02 80 03 80 1F 01     2............
0010: 32 04 80 1F 00 05 80 06  80 03 80 1F 01 1E 04 F3  2...............
0020: 0A 01 66 07 80 02 F3 0A  01 02 F3 0A 01 6B 62 61  ..f..........kba
0030: 32 00                                             2.              
```

#### Opcodes

```
  0: 0x0003 [0x32] ExtData[1]->MainSpeed = 35* * 0.1
  1: 0x0006 [0x1F] MOVE_ENTITY: EventEntity moves to X=306.259*, Z=11.225*, Y=-27.499*
  2: 0x000E [0x1F] MOVE_ENTITY: Update entity position (mode=1)
  3: 0x0010 [0x32] ExtData[1]->MainSpeed = 13* * 0.1
  4: 0x0013 [0x1F] MOVE_ENTITY: EventEntity moves to X=306.114*, Z=11.525*, Y=-27.499*
  5: 0x001B [0x1F] MOVE_ENTITY: Update entity position (mode=1)
  6: 0x001D [0x1E] EventEntity looks at Herbert (ID: 17494788/0x010AF304) and starts talking
  7: 0x0022 [0x66] LOAD_EXT_SCHEDULER_MAIN: Load scheduler "kba2" with entities [Nicolaus (ID: 17494786/0x010AF302), Nicolaus (ID: 17494786/0x010AF302)], work=2*
  8: 0x0031 [0x00] END_REQSTACK()
```

### Event 65535.2

#### Metadata

| Field        | Value   |
|--------------|---------|
| Entrypoint   | 0x0032  |
| Data Size    | 9 bytes |
| Instructions | 3       |

```
      00 01 02 03 04 05 06 07  08 09 0A 0B 0C 0D 0E 0F
      -- -- -- -- -- -- -- --  -- -- -- -- -- -- -- --
0030:       1C 08 80 1E 04 F3  0A 01 00                   .........     
```

#### Opcodes

```
  0: 0x0032 [0x1C] WAIT(75* ticks)
  1: 0x0035 [0x1E] EventEntity looks at Herbert (ID: 17494788/0x010AF304) and starts talking
  2: 0x003A [0x00] END_REQSTACK()
```

### Event 65535.3

#### Metadata

| Field        | Value    |
|--------------|----------|
| Entrypoint   | 0x003B   |
| Data Size    | 15 bytes |
| Instructions | 5        |

```
      00 01 02 03 04 05 06 07  08 09 0A 0B 0C 0D 0E 0F
      -- -- -- -- -- -- -- --  -- -- -- -- -- -- -- --
0030:                                   32 04 80 1F 00             2....
0040: 09 80 0A 80 0B 80 1F 01  6F 00                    ........o.      
```

#### Opcodes

```
  0: 0x003B [0x32] ExtData[1]->MainSpeed = 13* * 0.1
  1: 0x003E [0x1F] MOVE_ENTITY: EventEntity moves to X=304.640*, Z=18.050*, Y=-27.500*
  2: 0x0046 [0x1F] MOVE_ENTITY: Update entity position (mode=1)
  3: 0x0048 [0x6F] WAIT_FRAME_DELAY: Yield until WaitTime reaches zero
  4: 0x0049 [0x00] END_REQSTACK()
```
