# 17494732 - Erlene

## Common Data

| Field            | Value                                |
|------------------|--------------------------------------|
| Zone             | The Eldieme Necropolis [S] (ID: 175) |
| Block Size       | 2284 bytes                           |
| Total Events     | 39                                   |
| References Count | 99                                   |

## List of Events

| Event ID                 | Entrypoint   |   Size |   Instructions |
|--------------------------|--------------|--------|----------------|
| [65535](#event-65535)    | 0x0000       |      1 |              1 |
| [10](#event-10)          | 0x0001       |      1 |              1 |
| [12](#event-12)          | 0x0002       |      1 |              1 |
| [14](#event-14)          | 0x0003       |      1 |              1 |
| [18](#event-18)          | 0x0004       |      1 |              1 |
| [20](#event-20)          | 0x0005       |      1 |              1 |
| [23](#event-23)          | 0x0006       |      1 |              1 |
| [25](#event-25)          | 0x0007       |      1 |              1 |
| [27](#event-27)          | 0x0008       |      1 |              1 |
| [29](#event-29)          | 0x0009       |      1 |              1 |
| [31](#event-31)          | 0x000A       |      1 |              1 |
| [32](#event-32)          | 0x000B       |      1 |              1 |
| [34](#event-34)          | 0x000C       |      1 |              1 |
| [11](#event-11)          | 0x000D       |     65 |             11 |
| [13](#event-13)          | 0x004E       |    129 |             26 |
| [15](#event-15)          | 0x00CF       |     81 |             15 |
| [65535.1](#event-655351) | 0x0120       |     15 |              5 |
| [65535.2](#event-655352) | 0x012F       |     15 |              5 |
| [65535.3](#event-655353) | 0x013E       |     44 |             10 |
| [65535.4](#event-655354) | 0x016A       |     15 |              5 |
| [65535.5](#event-655355) | 0x0179       |     23 |              7 |
| [19](#event-19)          | 0x0190       |     89 |             17 |
| [21](#event-21)          | 0x01E9       |     30 |              8 |
| [22](#event-22)          | 0x0207       |     38 |             10 |
| [36](#event-36)          | 0x022D       |     30 |              8 |
| [24](#event-24)          | 0x024B       |     38 |             10 |
| [26](#event-26)          | 0x0271       |     46 |             12 |
| [39](#event-39)          | 0x029F       |     54 |             14 |
| [28](#event-28)          | 0x02D5       |     81 |             13 |
| [30](#event-30)          | 0x0326       |    126 |             20 |
| [33](#event-33)          | 0x03A4       |     81 |             13 |
| [37](#event-37)          | 0x03F5       |    156 |             27 |
| [38](#event-38)          | 0x0491       |    190 |             24 |
| [35](#event-35)          | 0x054F       |     75 |             17 |
| [65535.6](#event-655356) | 0x059A       |     20 |              6 |
| [65535.7](#event-655357) | 0x05AE       |     34 |              8 |
| [65535.8](#event-655358) | 0x05D0       |     15 |              5 |
| [65535.9](#event-655359) | 0x05DF       |     24 |              6 |
| [47](#event-47)          | 0x05F7       |    189 |             43 |

## DAT References (imed_data)

|   Index | Hex Value   |   Dec Value |
|---------|-------------|-------------|
|       0 | 0x0013      |          19 |
|       1 | 0x09F6      |        2550 |
|       2 | 0x1DF9      |        7673 |
|       3 | 0x1E08      |        7688 |
|       4 | 0x1E09      |        7689 |
|       5 | 0x1E0A      |        7690 |
|       6 | 0x1E0C      |        7692 |
|       7 | 0x0001      |           1 |
|       8 | 0x1E0D      |        7693 |
|       9 | 0x1E0E      |        7694 |
|      10 | 0x001A      |          26 |
|      11 | 0x1E34      |        7732 |
|      12 | 0x1E35      |        7733 |
|      13 | 0x000D      |          13 |
|      14 | 0x5C36D     |      377709 |
|      15 | 0x4C8D      |       19597 |
|      16 | 0xFFFF63C1  |  4294927297 |
|      17 | 0x000B      |          11 |
|      18 | 0x5C36C     |      377708 |
|      19 | 0x45CE      |       17870 |
|      20 | 0x5C4B1     |      378033 |
|      21 | 0x4D81      |       19841 |
|      22 | 0x0020      |          32 |
|      23 | 0x0078      |         120 |
|      24 | 0x5C3A8     |      377768 |
|      25 | 0x4AED      |       19181 |
|      26 | 0xFFFF63C0  |  4294927296 |
|      27 | 0x002D      |          45 |
|      28 | 0x5C58A     |      378250 |
|      29 | 0x4D88      |       19848 |
|      30 | 0x050A      |        1290 |
|      31 | 0x1E47      |        7751 |
|      32 | 0x1E48      |        7752 |
|      33 | 0x1E49      |        7753 |
|      34 | 0x03CF      |         975 |
|      35 | 0x1E4B      |        7755 |
|      36 | 0x1E5D      |        7773 |
|      37 | 0x1E5E      |        7774 |
|      38 | 0x1E5F      |        7775 |
|      39 | 0x1E64      |        7780 |
|      40 | 0x1E74      |        7796 |
|      41 | 0x1E76      |        7798 |
|      42 | 0x1E7F      |        7807 |
|      43 | 0x1E80      |        7808 |
|      44 | 0x1E81      |        7809 |
|      45 | 0x1E79      |        7801 |
|      46 | 0x1E7A      |        7802 |
|      47 | 0x1E7C      |        7804 |
|      48 | 0x1E7D      |        7805 |
|      49 | 0x1E92      |        7826 |
|      50 | 0x1E93      |        7827 |
|      51 | 0x1EA8      |        7848 |
|      52 | 0x1EA5      |        7845 |
|      53 | 0x003C      |          60 |
|      54 | 0x1EA6      |        7846 |
|      55 | 0x1EA7      |        7847 |
|      56 | 0x1ECC      |        7884 |
|      57 | 0x1ECD      |        7885 |
|      58 | 0x0000      |           0 |
|      59 | 0x0015      |          21 |
|      60 | 0x1ECF      |        7887 |
|      61 | 0x1ED0      |        7888 |
|      62 | 0x1ED1      |        7889 |
|      63 | 0x1ED2      |        7890 |
|      64 | 0x1ED3      |        7891 |
|      65 | 0x1ED4      |        7892 |
|      66 | 0x00C8      |         200 |
|      67 | 0x0059      |          89 |
|      68 | 0x0024      |          36 |
|      69 | 0x1EDA      |        7898 |
|      70 | 0x000C      |          12 |
|      71 | 0x1EDB      |        7899 |
|      72 | 0x5C094     |      376980 |
|      73 | 0x4D65      |       19813 |
|      74 | 0x5C382     |      377730 |
|      75 | 0x4DE3      |       19939 |
|      76 | 0x5C711     |      378641 |
|      77 | 0x5A34      |       23092 |
|      78 | 0x2BD67     |      179559 |
|      79 | 0x26586     |      157062 |
|      80 | 0xFFFF939B  |  4294939547 |
|      81 | 0x2BB87     |      179079 |
|      82 | 0x260F1     |      155889 |
|      83 | 0x1EDC      |        7900 |
|      84 | 0x1EDD      |        7901 |
|      85 | 0x1EDE      |        7902 |
|      86 | 0x1EDF      |        7903 |
|      87 | 0x1EE0      |        7904 |
|      88 | 0x1EE1      |        7905 |
|      89 | 0x1EE2      |        7906 |
|      90 | 0x1EE3      |        7907 |
|      91 | 0x1EE4      |        7908 |
|      92 | 0x1EE5      |        7909 |
|      93 | 0x1EE6      |        7910 |
|      94 | 0x1EE7      |        7911 |
|      95 | 0x1EE8      |        7912 |
|      96 | 0x1EE9      |        7913 |
|      97 | 0x1EEA      |        7914 |
|      98 | 0x00C9      |         201 |

## String References

- **7673**: Your first task is to collect twelve $0. Once you have the requisite materials, please deliver them here to me.
- **7688**: An arcane tap effect is somewhat different to the sudden burst of magic provided by spells such as "Fire." It is a steady stream of magical energy.
- **7689**: Both "Manafont" and "Chainspell" are examples of arcane tap effects. How else can I explain...?
- **7690**: Ah, yes. While similar, "Benediction" will not produce the required energy. The magical power of such abilities dissipate at the culmination of spellcasting.
- **7692**: Now, initiate whichever arcane tap effect is available to you, and open the grimoire to the first page in order to complete the attunement process.
- **7693**: Hmm, if I'm not mistaken, it appears you are not currently capable of tapping into a steady source of arcane energy...
- **7694**: How vexing. You must have the ability to produce an arcane tap effect, or we cannot proceed with the attunement.
- **7732**: Phew, my heart is racing. One never knows when Professor Schultz will make an appearance...
- **7733**: You are extremely fortunate to have been blessed with his guidance so early in your career. Lock those words in your mind, <Player>, and never let them go.
- **7845**: "Whenever the professor disappears with a specific aim in mind, he leaves behind clues in his wake, without fail. Search for these, and you will find finding him not so daunting a task."
- **7900**: Well, if it isn't my prize pupil. I trust that your studies in the Schultz School of Martial Theory have been serving you well afield.
- **7901**: Incidentally, you are familiar with the technique we call "Tabula Rasa," are you not? A monumental breakthrough in the history of our school, it allows us scholars to wield strategems with nary a concern for charges.
- **7902**: Already knew that, you say? Well, then perhaps you're ready for the honors class. Ready your parchment and quill--it's time for one of Professor Erlene's acclaimed lectures!
- **7903**: Mastering Tabula Rasa, you see, allows the scholar unprecedented options in combat. Strategems may be combined and battle tactics altered at will to account for subtle ebbs and flows in the tide of battle.
- **7904**: Needless to say, it falls upon you, the scholar, to use this heightened potential effectively. With your time limited, simply unleashing your strategies haphazardly will afford you few benefits, if any at all.
- **7905**: It is precisely this discernment and poise under pressure that separates the great tacticians of our time from the multitudes who excel in the classroom but flounder on the field of battle.
- **7906**: But let us return to the topic at hand.
- **7907**: No doubt you've heard tales of warriors who--in the times of greatest crisis--were able to summon heretofore-untapped reserves of strength.
- **7908**: One might say that Tabula Rasa serves a similar function for us. Of course, its benefits are of the mental and psychological variety rather than the physical, but nevertheless...
- **7909**: Now, where was I? Ah, yes! The rub is that we scholars can only sustain this state of heightened faculties for a short duration. As the proverb goes: make use of time, let not advantage slip.
- **7910**: It is akin to how sprinting at full speed will quickly leave our bodies wanting for breath. Of course, even this is not truly "full" speed, as those subconscious reserves of strength remain largely dormant.
- **7911**: And what if we were to cast off the fetters of our mortal bodies entirely, gaining mental and physical powers beyond our wildest comprehension!? Yes, soon the day will come that...!
- **7912**: ...Ah, but forgive me. My research has afforded me precious little time for respite of late. I fear my faculties are fraying.
- **7913**: The remainder of today's lesson you may glean from these tomes. To wit, they detail two arcane spells wieldable only by those in the heightened mental state of which I previously spoke.
- **7914**: And that concludes our class for the day. Study well your texts, <Player>, and they will not fail you afield. Remember: the day a scholar stops learning is the day [he/she] draws [his/her] final breath!

## Events

### Event 65535

#### Metadata

| Field        | Value   |
|--------------|---------|
| Entrypoint   | 0x0000  |
| Data Size    | 1 bytes |
| Instructions | 1       |

```
      00 01 02 03 04 05 06 07  08 09 0A 0B 0C 0D 0E 0F
      -- -- -- -- -- -- -- --  -- -- -- -- -- -- -- --
0000: 00                                                .               
```

#### Opcodes

```
  0: 0x0000 [0x00] END_REQSTACK()
```

### Event 10

#### Metadata

| Field        | Value   |
|--------------|---------|
| Entrypoint   | 0x0001  |
| Data Size    | 1 bytes |
| Instructions | 1       |

```
      00 01 02 03 04 05 06 07  08 09 0A 0B 0C 0D 0E 0F
      -- -- -- -- -- -- -- --  -- -- -- -- -- -- -- --
0000:    00                                              .              
```

#### Opcodes

```
  0: 0x0001 [0x00] END_REQSTACK()
```

### Event 12

#### Metadata

| Field        | Value   |
|--------------|---------|
| Entrypoint   | 0x0002  |
| Data Size    | 1 bytes |
| Instructions | 1       |

```
      00 01 02 03 04 05 06 07  08 09 0A 0B 0C 0D 0E 0F
      -- -- -- -- -- -- -- --  -- -- -- -- -- -- -- --
0000:       00                                            .             
```

#### Opcodes

```
  0: 0x0002 [0x00] END_REQSTACK()
```

### Event 14

#### Metadata

| Field        | Value   |
|--------------|---------|
| Entrypoint   | 0x0003  |
| Data Size    | 1 bytes |
| Instructions | 1       |

```
      00 01 02 03 04 05 06 07  08 09 0A 0B 0C 0D 0E 0F
      -- -- -- -- -- -- -- --  -- -- -- -- -- -- -- --
0000:          00                                          .            
```

#### Opcodes

```
  0: 0x0003 [0x00] END_REQSTACK()
```

### Event 18

#### Metadata

| Field        | Value   |
|--------------|---------|
| Entrypoint   | 0x0004  |
| Data Size    | 1 bytes |
| Instructions | 1       |

```
      00 01 02 03 04 05 06 07  08 09 0A 0B 0C 0D 0E 0F
      -- -- -- -- -- -- -- --  -- -- -- -- -- -- -- --
0000:             00                                        .           
```

#### Opcodes

```
  0: 0x0004 [0x00] END_REQSTACK()
```

### Event 20

#### Metadata

| Field        | Value   |
|--------------|---------|
| Entrypoint   | 0x0005  |
| Data Size    | 1 bytes |
| Instructions | 1       |

```
      00 01 02 03 04 05 06 07  08 09 0A 0B 0C 0D 0E 0F
      -- -- -- -- -- -- -- --  -- -- -- -- -- -- -- --
0000:                00                                      .          
```

#### Opcodes

```
  0: 0x0005 [0x00] END_REQSTACK()
```

### Event 23

#### Metadata

| Field        | Value   |
|--------------|---------|
| Entrypoint   | 0x0006  |
| Data Size    | 1 bytes |
| Instructions | 1       |

```
      00 01 02 03 04 05 06 07  08 09 0A 0B 0C 0D 0E 0F
      -- -- -- -- -- -- -- --  -- -- -- -- -- -- -- --
0000:                   00                                    .         
```

#### Opcodes

```
  0: 0x0006 [0x00] END_REQSTACK()
```

### Event 25

#### Metadata

| Field        | Value   |
|--------------|---------|
| Entrypoint   | 0x0007  |
| Data Size    | 1 bytes |
| Instructions | 1       |

```
      00 01 02 03 04 05 06 07  08 09 0A 0B 0C 0D 0E 0F
      -- -- -- -- -- -- -- --  -- -- -- -- -- -- -- --
0000:                      00                                  .        
```

#### Opcodes

```
  0: 0x0007 [0x00] END_REQSTACK()
```

### Event 27

#### Metadata

| Field        | Value   |
|--------------|---------|
| Entrypoint   | 0x0008  |
| Data Size    | 1 bytes |
| Instructions | 1       |

```
      00 01 02 03 04 05 06 07  08 09 0A 0B 0C 0D 0E 0F
      -- -- -- -- -- -- -- --  -- -- -- -- -- -- -- --
0000:                          00                               .       
```

#### Opcodes

```
  0: 0x0008 [0x00] END_REQSTACK()
```

### Event 29

#### Metadata

| Field        | Value   |
|--------------|---------|
| Entrypoint   | 0x0009  |
| Data Size    | 1 bytes |
| Instructions | 1       |

```
      00 01 02 03 04 05 06 07  08 09 0A 0B 0C 0D 0E 0F
      -- -- -- -- -- -- -- --  -- -- -- -- -- -- -- --
0000:                             00                             .      
```

#### Opcodes

```
  0: 0x0009 [0x00] END_REQSTACK()
```

### Event 31

#### Metadata

| Field        | Value   |
|--------------|---------|
| Entrypoint   | 0x000A  |
| Data Size    | 1 bytes |
| Instructions | 1       |

```
      00 01 02 03 04 05 06 07  08 09 0A 0B 0C 0D 0E 0F
      -- -- -- -- -- -- -- --  -- -- -- -- -- -- -- --
0000:                                00                           .     
```

#### Opcodes

```
  0: 0x000A [0x00] END_REQSTACK()
```

### Event 32

#### Metadata

| Field        | Value   |
|--------------|---------|
| Entrypoint   | 0x000B  |
| Data Size    | 1 bytes |
| Instructions | 1       |

```
      00 01 02 03 04 05 06 07  08 09 0A 0B 0C 0D 0E 0F
      -- -- -- -- -- -- -- --  -- -- -- -- -- -- -- --
0000:                                   00                         .    
```

#### Opcodes

```
  0: 0x000B [0x00] END_REQSTACK()
```

### Event 34

#### Metadata

| Field        | Value   |
|--------------|---------|
| Entrypoint   | 0x000C  |
| Data Size    | 1 bytes |
| Instructions | 1       |

```
      00 01 02 03 04 05 06 07  08 09 0A 0B 0C 0D 0E 0F
      -- -- -- -- -- -- -- --  -- -- -- -- -- -- -- --
0000:                                      00                       .   
```

#### Opcodes

```
  0: 0x000C [0x00] END_REQSTACK()
```

### Event 11

#### Metadata

| Field        | Value    |
|--------------|----------|
| Entrypoint   | 0x000D   |
| Data Size    | 65 bytes |
| Instructions | 11       |

```
      00 01 02 03 04 05 06 07  08 09 0A 0B 0C 0D 0E 0F
      -- -- -- -- -- -- -- --  -- -- -- -- -- -- -- --
0000:                                         1E F0 FF               ...
0010: FF 7F 6F 76 F8 FF FF 7F  66 00 80 CC F2 0A 01 CC  ..ov....f.......
0020: F2 0A 01 74 6C 6B 30 03  02 10 01 80 1D 02 80 23  ...tlk0........#
0030: 66 00 80 CC F2 0A 01 CC  F2 0A 01 74 6C 6B 31 53  f..........tlk1S
0040: CC F2 0A 01 CC F2 0A 01  74 6C 6B 31 21 00        ........tlk1!.  
```

#### Opcodes

```
  0: 0x000D [0x1E] EventEntity looks at LocalPlayer and starts talking
  1: 0x0012 [0x6F] WAIT_FRAME_DELAY: Yield until WaitTime reaches zero
  2: 0x0013 [0x76] CHECK_ENTITY_RENDER_FLAGS: Wait until EventEntity Render.Flags0 and Render.Flags3 conditions are met
  3: 0x0018 [0x66] LOAD_EXT_SCHEDULER_MAIN: Load scheduler "tlk0" with entities [Erlene (ID: 17494732/0x010AF2CC), Erlene (ID: 17494732/0x010AF2CC)], work=19*
  4: 0x0027 [0x03] Work_Zone[2] = 2550*
  5: 0x002C [0x1D] PRINT_EVENT_MESSAGE(message_id=7673*)
    → "Your first task is to collect twelve $0. Once you have the requisite materials, please deliver them here to me."
  6: 0x002F [0x23] WAIT_FOR_DIALOG_INTERACTION
  7: 0x0030 [0x66] LOAD_EXT_SCHEDULER_MAIN: Load scheduler "tlk1" with entities [Erlene (ID: 17494732/0x010AF2CC), Erlene (ID: 17494732/0x010AF2CC)], work=19*
  8: 0x003F [0x53] WAIT_SCHEDULER_TASK: Wait for scheduler "tlk1" with entities [Erlene (ID: 17494732/0x010AF2CC), Erlene (ID: 17494732/0x010AF2CC)]
  9: 0x004C [0x21] END_EVENT
 10: 0x004D [0x00] END_REQSTACK()
```

### Event 13

#### Metadata

| Field        | Value     |
|--------------|-----------|
| Entrypoint   | 0x004E    |
| Data Size    | 129 bytes |
| Instructions | 26        |

```
      00 01 02 03 04 05 06 07  08 09 0A 0B 0C 0D 0E 0F
      -- -- -- -- -- -- -- --  -- -- -- -- -- -- -- --
0040:                                            42 03                B.
0050: 00 00 02 10 1E F0 FF FF  7F 6F 76 F8 FF FF 7F 1D  .........ov.....
0060: 03 80 23 1D 04 80 23 66  00 80 CC F2 0A 01 CC F2  ..#...#f........
0070: 0A 01 74 6C 6B 30 1D 05  80 23 66 00 80 CC F2 0A  ..tlk0...#f.....
0080: 01 CC F2 0A 01 74 6C 6B  31 1D 06 80 23 02 00 00  .....tlk1...#...
0090: 07 80 01 CD 00 7B CC F2  0A 01 66 00 80 CC F2 0A  .....{....f.....
00A0: 01 CC F2 0A 01 74 68 6B  31 1D 08 80 23 1D 09 80  .....thk1...#...
00B0: 23 66 00 80 CC F2 0A 01  CC F2 0A 01 74 68 6B 32  #f..........thk2
00C0: 53 CC F2 0A 01 CC F2 0A  01 74 68 6B 32 21 00     S........thk2!. 
```

#### Opcodes

```
  0: 0x004E [0x42] SET_CLI_EVENT_CANCEL_DATA()
  1: 0x004F [0x03] ExtData[1]->WorkLocal[0] = Work_Zone[2]
  2: 0x0054 [0x1E] EventEntity looks at LocalPlayer and starts talking
  3: 0x0059 [0x6F] WAIT_FRAME_DELAY: Yield until WaitTime reaches zero
  4: 0x005A [0x76] CHECK_ENTITY_RENDER_FLAGS: Wait until EventEntity Render.Flags0 and Render.Flags3 conditions are met
  5: 0x005F [0x1D] PRINT_EVENT_MESSAGE(message_id=7688*)
    → "An arcane tap effect is somewhat different to the sudden burst of magic provided by spells such as "Fire." It is a steady stream of magical energy."
  6: 0x0062 [0x23] WAIT_FOR_DIALOG_INTERACTION
  7: 0x0063 [0x1D] PRINT_EVENT_MESSAGE(message_id=7689*)
    → "Both "Manafont" and "Chainspell" are examples of arcane tap effects. How else can I explain...?"
  8: 0x0066 [0x23] WAIT_FOR_DIALOG_INTERACTION
  9: 0x0067 [0x66] LOAD_EXT_SCHEDULER_MAIN: Load scheduler "tlk0" with entities [Erlene (ID: 17494732/0x010AF2CC), Erlene (ID: 17494732/0x010AF2CC)], work=19*
 10: 0x0076 [0x1D] PRINT_EVENT_MESSAGE(message_id=7690*)
    → "Ah, yes. While similar, "Benediction" will not produce the required energy. The magical power of such abilities dissipate at the culmination of spellcasting."
 11: 0x0079 [0x23] WAIT_FOR_DIALOG_INTERACTION
 12: 0x007A [0x66] LOAD_EXT_SCHEDULER_MAIN: Load scheduler "tlk1" with entities [Erlene (ID: 17494732/0x010AF2CC), Erlene (ID: 17494732/0x010AF2CC)], work=19*
 13: 0x0089 [0x1D] PRINT_EVENT_MESSAGE(message_id=7692*)
    → "Now, initiate whichever arcane tap effect is available to you, and open the grimoire to the first page in order to complete the attunement process."
 14: 0x008C [0x23] WAIT_FOR_DIALOG_INTERACTION
 15: 0x008D [0x02] IF !(ExtData[1]->WorkLocal[0] == 1*) GOTO 0x00CD
 16: 0x0095 [0x7B] Erlene (ID: 17494732/0x010AF2CC) stops talking
 17: 0x009A [0x66] LOAD_EXT_SCHEDULER_MAIN: Load scheduler "thk1" with entities [Erlene (ID: 17494732/0x010AF2CC), Erlene (ID: 17494732/0x010AF2CC)], work=19*
 18: 0x00A9 [0x1D] PRINT_EVENT_MESSAGE(message_id=7693*)
    → "Hmm, if I'm not mistaken, it appears you are not currently capable of tapping into a steady source of arcane energy..."
 19: 0x00AC [0x23] WAIT_FOR_DIALOG_INTERACTION
 20: 0x00AD [0x1D] PRINT_EVENT_MESSAGE(message_id=7694*)
    → "How vexing. You must have the ability to produce an arcane tap effect, or we cannot proceed with the attunement."
 21: 0x00B0 [0x23] WAIT_FOR_DIALOG_INTERACTION
 22: 0x00B1 [0x66] LOAD_EXT_SCHEDULER_MAIN: Load scheduler "thk2" with entities [Erlene (ID: 17494732/0x010AF2CC), Erlene (ID: 17494732/0x010AF2CC)], work=19*
 23: 0x00C0 [0x53] WAIT_SCHEDULER_TASK: Wait for scheduler "thk2" with entities [Erlene (ID: 17494732/0x010AF2CC), Erlene (ID: 17494732/0x010AF2CC)]
 24: 0x00CD [0x21] END_EVENT
 25: 0x00CE [0x00] END_REQSTACK()
```

### Event 15

#### Metadata

| Field        | Value    |
|--------------|----------|
| Entrypoint   | 0x00CF   |
| Data Size    | 81 bytes |
| Instructions | 15       |

```
      00 01 02 03 04 05 06 07  08 09 0A 0B 0C 0D 0E 0F
      -- -- -- -- -- -- -- --  -- -- -- -- -- -- -- --
00C0:                                               6E                 n
00D0: CC F2 0A 01 0A 80 99 CC  F2 0A 01 99 CC F2 0A 01  ................
00E0: 1D 0B 80 23 1E F0 FF FF  7F 6F 76 F8 FF FF 7F 66  ...#.....ov....f
00F0: 00 80 CC F2 0A 01 CC F2  0A 01 74 6C 6B 30 1D 0C  ..........tlk0..
0100: 80 23 66 00 80 CC F2 0A  01 CC F2 0A 01 74 6C 6B  .#f..........tlk
0110: 31 53 CC F2 0A 01 CC F2  0A 01 74 6C 6B 31 21 00  1S........tlk1!.
```

#### Opcodes

```
  0: 0x00CF [0x6E] Erlene (ID: 17494732/0x010AF2CC) uses emote 26*
  1: 0x00D6 [0x99] Wait for Erlene (ID: 17494732/0x010AF2CC) animation to complete
  2: 0x00DB [0x99] Wait for Erlene (ID: 17494732/0x010AF2CC) animation to complete
  3: 0x00E0 [0x1D] PRINT_EVENT_MESSAGE(message_id=7732*)
    → "Phew, my heart is racing. One never knows when Professor Schultz will make an appearance..."
  4: 0x00E3 [0x23] WAIT_FOR_DIALOG_INTERACTION
  5: 0x00E4 [0x1E] EventEntity looks at LocalPlayer and starts talking
  6: 0x00E9 [0x6F] WAIT_FRAME_DELAY: Yield until WaitTime reaches zero
  7: 0x00EA [0x76] CHECK_ENTITY_RENDER_FLAGS: Wait until EventEntity Render.Flags0 and Render.Flags3 conditions are met
  8: 0x00EF [0x66] LOAD_EXT_SCHEDULER_MAIN: Load scheduler "tlk0" with entities [Erlene (ID: 17494732/0x010AF2CC), Erlene (ID: 17494732/0x010AF2CC)], work=19*
  9: 0x00FE [0x1D] PRINT_EVENT_MESSAGE(message_id=7733*)
    → "You are extremely fortunate to have been blessed with his guidance so early in your career. Lock those words in your mind, <Player>, and never let them go."
 10: 0x0101 [0x23] WAIT_FOR_DIALOG_INTERACTION
 11: 0x0102 [0x66] LOAD_EXT_SCHEDULER_MAIN: Load scheduler "tlk1" with entities [Erlene (ID: 17494732/0x010AF2CC), Erlene (ID: 17494732/0x010AF2CC)], work=19*
 12: 0x0111 [0x53] WAIT_SCHEDULER_TASK: Wait for scheduler "tlk1" with entities [Erlene (ID: 17494732/0x010AF2CC), Erlene (ID: 17494732/0x010AF2CC)]
 13: 0x011E [0x21] END_EVENT
 14: 0x011F [0x00] END_REQSTACK()
```

### Event 65535.1

#### Metadata

| Field        | Value    |
|--------------|----------|
| Entrypoint   | 0x0120   |
| Data Size    | 15 bytes |
| Instructions | 5        |

```
      00 01 02 03 04 05 06 07  08 09 0A 0B 0C 0D 0E 0F
      -- -- -- -- -- -- -- --  -- -- -- -- -- -- -- --
0120: 32 0D 80 1F 00 0E 80 0F  80 10 80 1F 01 6F 00     2............o. 
```

#### Opcodes

```
  0: 0x0120 [0x32] ExtData[1]->MainSpeed = 13* * 0.1
  1: 0x0123 [0x1F] MOVE_ENTITY: EventEntity moves to X=377.709*, Z=19.597*, Y=-39.999*
  2: 0x012B [0x1F] MOVE_ENTITY: Update entity position (mode=1)
  3: 0x012D [0x6F] WAIT_FRAME_DELAY: Yield until WaitTime reaches zero
  4: 0x012E [0x00] END_REQSTACK()
```

### Event 65535.2

#### Metadata

| Field        | Value    |
|--------------|----------|
| Entrypoint   | 0x012F   |
| Data Size    | 15 bytes |
| Instructions | 5        |

```
      00 01 02 03 04 05 06 07  08 09 0A 0B 0C 0D 0E 0F
      -- -- -- -- -- -- -- --  -- -- -- -- -- -- -- --
0120:                                               32                 2
0130: 11 80 1F 00 12 80 13 80  10 80 1F 01 6F 00        ............o.  
```

#### Opcodes

```
  0: 0x012F [0x32] ExtData[1]->MainSpeed = 11* * 0.1
  1: 0x0132 [0x1F] MOVE_ENTITY: EventEntity moves to X=377.708*, Z=17.870*, Y=-39.999*
  2: 0x013A [0x1F] MOVE_ENTITY: Update entity position (mode=1)
  3: 0x013C [0x6F] WAIT_FRAME_DELAY: Yield until WaitTime reaches zero
  4: 0x013D [0x00] END_REQSTACK()
```

### Event 65535.3

#### Metadata

| Field        | Value    |
|--------------|----------|
| Entrypoint   | 0x013E   |
| Data Size    | 44 bytes |
| Instructions | 10       |

```
      00 01 02 03 04 05 06 07  08 09 0A 0B 0C 0D 0E 0F
      -- -- -- -- -- -- -- --  -- -- -- -- -- -- -- --
0130:                                            32 11                2.
0140: 80 1F 00 14 80 15 80 10  80 1F 01 6F 4A F0 FF FF  ...........oJ...
0150: 7F CC F2 0A 01 6E CC F2  0A 01 16 80 99 CC F2 0A  .....n..........
0160: 01 99 CC F2 0A 01 1C 17  80 00                    ..........      
```

#### Opcodes

```
  0: 0x013E [0x32] ExtData[1]->MainSpeed = 11* * 0.1
  1: 0x0141 [0x1F] MOVE_ENTITY: EventEntity moves to X=378.033*, Z=19.841*, Y=-39.999*
  2: 0x0149 [0x1F] MOVE_ENTITY: Update entity position (mode=1)
  3: 0x014B [0x6F] WAIT_FRAME_DELAY: Yield until WaitTime reaches zero
  4: 0x014C [0x4A] LocalPlayer looks at Erlene (ID: 17494732/0x010AF2CC)
  5: 0x0155 [0x6E] Erlene (ID: 17494732/0x010AF2CC) uses emote 32*
  6: 0x015C [0x99] Wait for Erlene (ID: 17494732/0x010AF2CC) animation to complete
  7: 0x0161 [0x99] Wait for Erlene (ID: 17494732/0x010AF2CC) animation to complete
  8: 0x0166 [0x1C] WAIT(120* ticks)
  9: 0x0169 [0x00] END_REQSTACK()
```

### Event 65535.4

#### Metadata

| Field        | Value    |
|--------------|----------|
| Entrypoint   | 0x016A   |
| Data Size    | 15 bytes |
| Instructions | 5        |

```
      00 01 02 03 04 05 06 07  08 09 0A 0B 0C 0D 0E 0F
      -- -- -- -- -- -- -- --  -- -- -- -- -- -- -- --
0160:                                32 0D 80 1F 00 18            2.....
0170: 80 19 80 1A 80 1F 01 6F  00                       .......o.       
```

#### Opcodes

```
  0: 0x016A [0x32] ExtData[1]->MainSpeed = 13* * 0.1
  1: 0x016D [0x1F] MOVE_ENTITY: EventEntity moves to X=377.768*, Z=19.181*, Y=-40.000*
  2: 0x0175 [0x1F] MOVE_ENTITY: Update entity position (mode=1)
  3: 0x0177 [0x6F] WAIT_FRAME_DELAY: Yield until WaitTime reaches zero
  4: 0x0178 [0x00] END_REQSTACK()
```

### Event 65535.5

#### Metadata

| Field        | Value    |
|--------------|----------|
| Entrypoint   | 0x0179   |
| Data Size    | 23 bytes |
| Instructions | 7        |

```
      00 01 02 03 04 05 06 07  08 09 0A 0B 0C 0D 0E 0F
      -- -- -- -- -- -- -- --  -- -- -- -- -- -- -- --
0170:                             1C 1B 80 32 11 80 1F           ...2...
0180: 00 1C 80 1D 80 10 80 1F  01 6F 1E CE F2 0A 01 00  .........o......
```

#### Opcodes

```
  0: 0x0179 [0x1C] WAIT(45* ticks)
  1: 0x017C [0x32] ExtData[1]->MainSpeed = 11* * 0.1
  2: 0x017F [0x1F] MOVE_ENTITY: EventEntity moves to X=378.250*, Z=19.848*, Y=-39.999*
  3: 0x0187 [0x1F] MOVE_ENTITY: Update entity position (mode=1)
  4: 0x0189 [0x6F] WAIT_FRAME_DELAY: Yield until WaitTime reaches zero
  5: 0x018A [0x1E] EventEntity looks at Schultz (ID: 17494734/0x010AF2CE) and starts talking
  6: 0x018F [0x00] END_REQSTACK()
```

### Event 19

#### Metadata

| Field        | Value    |
|--------------|----------|
| Entrypoint   | 0x0190   |
| Data Size    | 89 bytes |
| Instructions | 17       |

```
      00 01 02 03 04 05 06 07  08 09 0A 0B 0C 0D 0E 0F
      -- -- -- -- -- -- -- --  -- -- -- -- -- -- -- --
0190: 4A F0 FF FF 7F F8 FF FF  7F 1E F0 FF FF 7F 6F 76  J.............ov
01A0: F8 FF FF 7F 5B 1E 80 CC  F2 0A 01 CC F2 0A 01 73  ....[..........s
01B0: 63 6B 30 2B CC F2 0A 01  1F 80 23 2B CC F2 0A 01  ck0+......#+....
01C0: 20 80 23 5B 1E 80 CC F2  0A 01 CC F2 0A 01 73 63   .#[..........sc
01D0: 6B 31 2B CC F2 0A 01 21  80 23 03 02 10 22 80 2B  k1+....!.#...".+
01E0: CC F2 0A 01 23 80 23 21  00                       ....#.#!.       
```

#### Opcodes

```
  0: 0x0190 [0x4A] LocalPlayer looks at EventEntity
  1: 0x0199 [0x1E] EventEntity looks at LocalPlayer and starts talking
  2: 0x019E [0x6F] WAIT_FRAME_DELAY: Yield until WaitTime reaches zero
  3: 0x019F [0x76] CHECK_ENTITY_RENDER_FLAGS: Wait until EventEntity Render.Flags0 and Render.Flags3 conditions are met
  4: 0x01A4 [0x5B] LOAD_EXT_SCHEDULER: Load scheduler "sck0" with entities [Erlene (ID: 17494732/0x010AF2CC), Erlene (ID: 17494732/0x010AF2CC)], work=1290*
  5: 0x01B3 [0x2B] Erlene (ID: 17494732/0x010AF2CC) [7751*]:
    → "This isn't the first time this has happened. The professor went missing before, some time ago."
  6: 0x01BA [0x23] WAIT_FOR_DIALOG_INTERACTION
  7: 0x01BB [0x2B] Erlene (ID: 17494732/0x010AF2CC) [7752*]:
    → "At that time it was a pupil of his named Nicolaus who was eventually able to locate him. Come to mention it, perhaps he would be able to provide you with some helpful information."
  8: 0x01C2 [0x23] WAIT_FOR_DIALOG_INTERACTION
  9: 0x01C3 [0x5B] LOAD_EXT_SCHEDULER: Load scheduler "sck1" with entities [Erlene (ID: 17494732/0x010AF2CC), Erlene (ID: 17494732/0x010AF2CC)], work=1290*
 10: 0x01D2 [0x2B] Erlene (ID: 17494732/0x010AF2CC) [7753*]:
    → "After that he enjoyed several promotions, and is now an eminent member of Bastok's Mythril Musketeers. So you should be able to find him in the Metalworks."
 11: 0x01D9 [0x23] WAIT_FOR_DIALOG_INTERACTION
 12: 0x01DA [0x03] Work_Zone[2] = 975*
 13: 0x01DF [0x2B] Erlene (ID: 17494732/0x010AF2CC) [7755*]:
    → "Please, Professor Schultz must be found. Oh, and don't forget to pass along $3!"
 14: 0x01E6 [0x23] WAIT_FOR_DIALOG_INTERACTION
 15: 0x01E7 [0x21] END_EVENT
 16: 0x01E8 [0x00] END_REQSTACK()
```

### Event 21

#### Metadata

| Field        | Value    |
|--------------|----------|
| Entrypoint   | 0x01E9   |
| Data Size    | 30 bytes |
| Instructions | 8        |

```
      00 01 02 03 04 05 06 07  08 09 0A 0B 0C 0D 0E 0F
      -- -- -- -- -- -- -- --  -- -- -- -- -- -- -- --
01E0:                             4A F0 FF FF 7F F8 FF           J......
01F0: FF 7F 1E F0 FF FF 7F 6F  76 F8 FF FF 7F 2B CC F2  .......ov....+..
0200: 0A 01 24 80 23 21 00                              ..$.#!.         
```

#### Opcodes

```
  0: 0x01E9 [0x4A] LocalPlayer looks at EventEntity
  1: 0x01F2 [0x1E] EventEntity looks at LocalPlayer and starts talking
  2: 0x01F7 [0x6F] WAIT_FRAME_DELAY: Yield until WaitTime reaches zero
  3: 0x01F8 [0x76] CHECK_ENTITY_RENDER_FLAGS: Wait until EventEntity Render.Flags0 and Render.Flags3 conditions are met
  4: 0x01FD [0x2B] Erlene (ID: 17494732/0x010AF2CC) [7773*]:
    → "I'm elated to hear that the professor is alright. I owe you a debt of gratitude."
  5: 0x0204 [0x23] WAIT_FOR_DIALOG_INTERACTION
  6: 0x0205 [0x21] END_EVENT
  7: 0x0206 [0x00] END_REQSTACK()
```

### Event 22

#### Metadata

| Field        | Value    |
|--------------|----------|
| Entrypoint   | 0x0207   |
| Data Size    | 38 bytes |
| Instructions | 10       |

```
      00 01 02 03 04 05 06 07  08 09 0A 0B 0C 0D 0E 0F
      -- -- -- -- -- -- -- --  -- -- -- -- -- -- -- --
0200:                      4A  F0 FF FF 7F F8 FF FF 7F         J........
0210: 1E F0 FF FF 7F 6F 76 F8  FF FF 7F 2B CC F2 0A 01  .....ov....+....
0220: 25 80 23 2B CC F2 0A 01  26 80 23 21 00           %.#+....&.#!.   
```

#### Opcodes

```
  0: 0x0207 [0x4A] LocalPlayer looks at EventEntity
  1: 0x0210 [0x1E] EventEntity looks at LocalPlayer and starts talking
  2: 0x0215 [0x6F] WAIT_FRAME_DELAY: Yield until WaitTime reaches zero
  3: 0x0216 [0x76] CHECK_ENTITY_RENDER_FLAGS: Wait until EventEntity Render.Flags0 and Render.Flags3 conditions are met
  4: 0x021B [0x2B] Erlene (ID: 17494732/0x010AF2CC) [7774*]:
    → "Thank you again for your help. If you're still worried about Professor Schultz, you'll be happy to hear that he is safe now."
  5: 0x0222 [0x23] WAIT_FOR_DIALOG_INTERACTION
  6: 0x0223 [0x2B] Erlene (ID: 17494732/0x010AF2CC) [7775*]:
    → "Ulbrecht orchestrated a marvel of military extraction and was able to rescue him. It is only under such extreme circumstances that his true affection for the professor becomes evident."
  7: 0x022A [0x23] WAIT_FOR_DIALOG_INTERACTION
  8: 0x022B [0x21] END_EVENT
  9: 0x022C [0x00] END_REQSTACK()
```

### Event 36

#### Metadata

| Field        | Value    |
|--------------|----------|
| Entrypoint   | 0x022D   |
| Data Size    | 30 bytes |
| Instructions | 8        |

```
      00 01 02 03 04 05 06 07  08 09 0A 0B 0C 0D 0E 0F
      -- -- -- -- -- -- -- --  -- -- -- -- -- -- -- --
0220:                                         4A F0 FF               J..
0230: FF 7F F8 FF FF 7F 1E F0  FF FF 7F 6F 76 F8 FF FF  ...........ov...
0240: 7F 2B CC F2 0A 01 27 80  23 21 00                 .+....'.#!.     
```

#### Opcodes

```
  0: 0x022D [0x4A] LocalPlayer looks at EventEntity
  1: 0x0236 [0x1E] EventEntity looks at LocalPlayer and starts talking
  2: 0x023B [0x6F] WAIT_FRAME_DELAY: Yield until WaitTime reaches zero
  3: 0x023C [0x76] CHECK_ENTITY_RENDER_FLAGS: Wait until EventEntity Render.Flags0 and Render.Flags3 conditions are met
  4: 0x0241 [0x2B] Erlene (ID: 17494732/0x010AF2CC) [7780*]:
    → "I apologize. It was rude of me to presume... It's just that... No, I'm sorry. I will not trouble you with it."
  5: 0x0248 [0x23] WAIT_FOR_DIALOG_INTERACTION
  6: 0x0249 [0x21] END_EVENT
  7: 0x024A [0x00] END_REQSTACK()
```

### Event 24

#### Metadata

| Field        | Value    |
|--------------|----------|
| Entrypoint   | 0x024B   |
| Data Size    | 38 bytes |
| Instructions | 10       |

```
      00 01 02 03 04 05 06 07  08 09 0A 0B 0C 0D 0E 0F
      -- -- -- -- -- -- -- --  -- -- -- -- -- -- -- --
0240:                                   4A F0 FF FF 7F             J....
0250: F8 FF FF 7F 1E F0 FF FF  7F 6F 76 F8 FF FF 7F 2B  .........ov....+
0260: CC F2 0A 01 28 80 23 2B  CC F2 0A 01 29 80 23 21  ....(.#+....).#!
0270: 00                                                .               
```

#### Opcodes

```
  0: 0x024B [0x4A] LocalPlayer looks at EventEntity
  1: 0x0254 [0x1E] EventEntity looks at LocalPlayer and starts talking
  2: 0x0259 [0x6F] WAIT_FRAME_DELAY: Yield until WaitTime reaches zero
  3: 0x025A [0x76] CHECK_ENTITY_RENDER_FLAGS: Wait until EventEntity Render.Flags0 and Render.Flags3 conditions are met
  4: 0x025F [0x2B] Erlene (ID: 17494732/0x010AF2CC) [7796*]:
    → "The council will be held in San d'Oria. Unfortunately, I have other pressing matters, and will be unable to attend."
  5: 0x0266 [0x23] WAIT_FOR_DIALOG_INTERACTION
  6: 0x0267 [0x2B] Erlene (ID: 17494732/0x010AF2CC) [7798*]:
    → "I owe you a great debt, <Player>. You have my thanks. And please let me know if there is anything which you might require."
  7: 0x026E [0x23] WAIT_FOR_DIALOG_INTERACTION
  8: 0x026F [0x21] END_EVENT
  9: 0x0270 [0x00] END_REQSTACK()
```

### Event 26

#### Metadata

| Field        | Value    |
|--------------|----------|
| Entrypoint   | 0x0271   |
| Data Size    | 46 bytes |
| Instructions | 12       |

```
      00 01 02 03 04 05 06 07  08 09 0A 0B 0C 0D 0E 0F
      -- -- -- -- -- -- -- --  -- -- -- -- -- -- -- --
0270:    4A F0 FF FF 7F F8 FF  FF 7F 1E F0 FF FF 7F 6F   J.............o
0280: 76 F8 FF FF 7F 2B CC F2  0A 01 2A 80 23 2B CC F2  v....+....*.#+..
0290: 0A 01 2B 80 23 2B CC F2  0A 01 2C 80 23 21 00     ..+.#+....,.#!. 
```

#### Opcodes

```
  0: 0x0271 [0x4A] LocalPlayer looks at EventEntity
  1: 0x027A [0x1E] EventEntity looks at LocalPlayer and starts talking
  2: 0x027F [0x6F] WAIT_FRAME_DELAY: Yield until WaitTime reaches zero
  3: 0x0280 [0x76] CHECK_ENTITY_RENDER_FLAGS: Wait until EventEntity Render.Flags0 and Render.Flags3 conditions are met
  4: 0x0285 [0x2B] Erlene (ID: 17494732/0x010AF2CC) [7807*]:
    → "Word has reached me that the next appointed meeting ground is Sauromugue Champaign."
  5: 0x028C [0x23] WAIT_FOR_DIALOG_INTERACTION
  6: 0x028D [0x2B] Erlene (ID: 17494732/0x010AF2CC) [7808*]:
    → "Head south from here, and just as you exit the Rolanberry Fields, cross the Great Jeuno Bridge. The champaign lies just beyond."
  7: 0x0294 [0x23] WAIT_FOR_DIALOG_INTERACTION
  8: 0x0295 [0x2B] Erlene (ID: 17494732/0x010AF2CC) [7809*]:
    → "You must hurry!"
  9: 0x029C [0x23] WAIT_FOR_DIALOG_INTERACTION
 10: 0x029D [0x21] END_EVENT
 11: 0x029E [0x00] END_REQSTACK()
```

### Event 39

#### Metadata

| Field        | Value    |
|--------------|----------|
| Entrypoint   | 0x029F   |
| Data Size    | 54 bytes |
| Instructions | 14       |

```
      00 01 02 03 04 05 06 07  08 09 0A 0B 0C 0D 0E 0F
      -- -- -- -- -- -- -- --  -- -- -- -- -- -- -- --
0290:                                               4A                 J
02A0: F0 FF FF 7F F8 FF FF 7F  1E F0 FF FF 7F 6F 76 F8  .............ov.
02B0: FF FF 7F 2B CC F2 0A 01  2D 80 23 2B CC F2 0A 01  ...+....-.#+....
02C0: 2E 80 23 2B CC F2 0A 01  2F 80 23 2B CC F2 0A 01  ..#+..../.#+....
02D0: 30 80 23 21 00                                    0.#!.           
```

#### Opcodes

```
  0: 0x029F [0x4A] LocalPlayer looks at EventEntity
  1: 0x02A8 [0x1E] EventEntity looks at LocalPlayer and starts talking
  2: 0x02AD [0x6F] WAIT_FRAME_DELAY: Yield until WaitTime reaches zero
  3: 0x02AE [0x76] CHECK_ENTITY_RENDER_FLAGS: Wait until EventEntity Render.Flags0 and Render.Flags3 conditions are met
  4: 0x02B3 [0x2B] Erlene (ID: 17494732/0x010AF2CC) [7801*]:
    → "It had not occurred to me until now, but to think... If all those who wield magic are being targeted, then that would mean we scholars are at risk as well."
  5: 0x02BA [0x23] WAIT_FOR_DIALOG_INTERACTION
  6: 0x02BB [0x2B] Erlene (ID: 17494732/0x010AF2CC) [7802*]:
    → "To best protect ourselves it would be wise to avoid being unaccompanied at all times. Whether at home or abroad."
  7: 0x02C2 [0x23] WAIT_FOR_DIALOG_INTERACTION
  8: 0x02C3 [0x2B] Erlene (ID: 17494732/0x010AF2CC) [7804*]:
    → "<Player>, you have not yet gained wide recognition as a scholar. I pray that puts you at less risk than the others."
  9: 0x02CA [0x23] WAIT_FOR_DIALOG_INTERACTION
 10: 0x02CB [0x2B] Erlene (ID: 17494732/0x010AF2CC) [7805*]:
    → "When you meet with them, please, advise them strongly against traveling or moving about on their own."
 11: 0x02D2 [0x23] WAIT_FOR_DIALOG_INTERACTION
 12: 0x02D3 [0x21] END_EVENT
 13: 0x02D4 [0x00] END_REQSTACK()
```

### Event 28

#### Metadata

| Field        | Value    |
|--------------|----------|
| Entrypoint   | 0x02D5   |
| Data Size    | 81 bytes |
| Instructions | 13       |

```
      00 01 02 03 04 05 06 07  08 09 0A 0B 0C 0D 0E 0F
      -- -- -- -- -- -- -- --  -- -- -- -- -- -- -- --
02D0:                4A F0 FF  FF 7F F8 FF FF 7F 1E F0       J..........
02E0: FF FF 7F 6F 76 F8 FF FF  7F 66 00 80 CC F2 0A 01  ...ov....f......
02F0: CC F2 0A 01 74 6C 6B 30  2B CC F2 0A 01 31 80 23  ....tlk0+....1.#
0300: 2B CC F2 0A 01 32 80 23  66 00 80 CC F2 0A 01 CC  +....2.#f.......
0310: F2 0A 01 74 6C 6B 31 53  CC F2 0A 01 CC F2 0A 01  ...tlk1S........
0320: 74 6C 6B 31 21 00                                 tlk1!.          
```

#### Opcodes

```
  0: 0x02D5 [0x4A] LocalPlayer looks at EventEntity
  1: 0x02DE [0x1E] EventEntity looks at LocalPlayer and starts talking
  2: 0x02E3 [0x6F] WAIT_FRAME_DELAY: Yield until WaitTime reaches zero
  3: 0x02E4 [0x76] CHECK_ENTITY_RENDER_FLAGS: Wait until EventEntity Render.Flags0 and Render.Flags3 conditions are met
  4: 0x02E9 [0x66] LOAD_EXT_SCHEDULER_MAIN: Load scheduler "tlk0" with entities [Erlene (ID: 17494732/0x010AF2CC), Erlene (ID: 17494732/0x010AF2CC)], work=19*
  5: 0x02F8 [0x2B] Erlene (ID: 17494732/0x010AF2CC) [7826*]:
    → "I have a feeling the time will come when I will have to rely on you yet again, <Player>. Until then, I leave you in the grace and favor of the Goddess."
  6: 0x02FF [0x23] WAIT_FOR_DIALOG_INTERACTION
  7: 0x0300 [0x2B] Erlene (ID: 17494732/0x010AF2CC) [7827*]:
    → "I am thankful that at least you have remained safe."
  8: 0x0307 [0x23] WAIT_FOR_DIALOG_INTERACTION
  9: 0x0308 [0x66] LOAD_EXT_SCHEDULER_MAIN: Load scheduler "tlk1" with entities [Erlene (ID: 17494732/0x010AF2CC), Erlene (ID: 17494732/0x010AF2CC)], work=19*
 10: 0x0317 [0x53] WAIT_SCHEDULER_TASK: Wait for scheduler "tlk1" with entities [Erlene (ID: 17494732/0x010AF2CC), Erlene (ID: 17494732/0x010AF2CC)]
 11: 0x0324 [0x21] END_EVENT
 12: 0x0325 [0x00] END_REQSTACK()
```

### Event 30

#### Metadata

| Field        | Value     |
|--------------|-----------|
| Entrypoint   | 0x0326    |
| Data Size    | 126 bytes |
| Instructions | 20        |

```
      00 01 02 03 04 05 06 07  08 09 0A 0B 0C 0D 0E 0F
      -- -- -- -- -- -- -- --  -- -- -- -- -- -- -- --
0320:                   4A F0  FF FF 7F F8 FF FF 7F 1E        J.........
0330: F0 FF FF 7F 6F 76 F8 FF  FF 7F 2B CC F2 0A 01 33  ....ov....+....3
0340: 80 23 5B 1E 80 CC F2 0A  01 CC F2 0A 01 73 63 6B  .#[..........sck
0350: 30 48 34 80 23 5B 1E 80  CC F2 0A 01 CC F2 0A 01  0H4.#[..........
0360: 73 63 6B 31 1C 35 80 2B  CC F2 0A 01 36 80 23 66  sck1.5.+....6.#f
0370: 00 80 CC F2 0A 01 CC F2  0A 01 74 6C 6B 30 2B CC  ..........tlk0+.
0380: F2 0A 01 37 80 23 66 00  80 CC F2 0A 01 CC F2 0A  ...7.#f.........
0390: 01 74 6C 6B 31 53 CC F2  0A 01 CC F2 0A 01 74 6C  .tlk1S........tl
03A0: 6B 31 21 00                                       k1!.            
```

#### Opcodes

```
  0: 0x0326 [0x4A] LocalPlayer looks at EventEntity
  1: 0x032F [0x1E] EventEntity looks at LocalPlayer and starts talking
  2: 0x0334 [0x6F] WAIT_FRAME_DELAY: Yield until WaitTime reaches zero
  3: 0x0335 [0x76] CHECK_ENTITY_RENDER_FLAGS: Wait until EventEntity Render.Flags0 and Render.Flags3 conditions are met
  4: 0x033A [0x2B] Erlene (ID: 17494732/0x010AF2CC) [7848*]:
    → "Hm? Nicolaus's advice?"
  5: 0x0341 [0x23] WAIT_FOR_DIALOG_INTERACTION
  6: 0x0342 [0x5B] LOAD_EXT_SCHEDULER: Load scheduler "sck0" with entities [Erlene (ID: 17494732/0x010AF2CC), Erlene (ID: 17494732/0x010AF2CC)], work=1290*
  7: 0x0351 [0x48] [System] [7845*]:
    → ""Whenever the professor disappears with a specific aim in mind, he leaves behind clues in his wake, without fail. Search for these, and you will find finding him not so daunting a task.""
  8: 0x0354 [0x23] WAIT_FOR_DIALOG_INTERACTION
  9: 0x0355 [0x5B] LOAD_EXT_SCHEDULER: Load scheduler "sck1" with entities [Erlene (ID: 17494732/0x010AF2CC), Erlene (ID: 17494732/0x010AF2CC)], work=1290*
 10: 0x0364 [0x1C] WAIT(60* ticks)
 11: 0x0367 [0x2B] Erlene (ID: 17494732/0x010AF2CC) [7846*]:
    → "Perhaps such a hint could be found in the spot where you first located the professor!"
 12: 0x036E [0x23] WAIT_FOR_DIALOG_INTERACTION
 13: 0x036F [0x66] LOAD_EXT_SCHEDULER_MAIN: Load scheduler "tlk0" with entities [Erlene (ID: 17494732/0x010AF2CC), Erlene (ID: 17494732/0x010AF2CC)], work=19*
 14: 0x037E [0x2B] Erlene (ID: 17494732/0x010AF2CC) [7847*]:
    → "I would suggest trying your luck there first. I will attempt to obtain more information from other sources."
 15: 0x0385 [0x23] WAIT_FOR_DIALOG_INTERACTION
 16: 0x0386 [0x66] LOAD_EXT_SCHEDULER_MAIN: Load scheduler "tlk1" with entities [Erlene (ID: 17494732/0x010AF2CC), Erlene (ID: 17494732/0x010AF2CC)], work=19*
 17: 0x0395 [0x53] WAIT_SCHEDULER_TASK: Wait for scheduler "tlk1" with entities [Erlene (ID: 17494732/0x010AF2CC), Erlene (ID: 17494732/0x010AF2CC)]
 18: 0x03A2 [0x21] END_EVENT
 19: 0x03A3 [0x00] END_REQSTACK()
```

### Event 33

#### Metadata

| Field        | Value    |
|--------------|----------|
| Entrypoint   | 0x03A4   |
| Data Size    | 81 bytes |
| Instructions | 13       |

```
      00 01 02 03 04 05 06 07  08 09 0A 0B 0C 0D 0E 0F
      -- -- -- -- -- -- -- --  -- -- -- -- -- -- -- --
03A0:             4A F0 FF FF  7F F8 FF FF 7F 1E F0 FF      J...........
03B0: FF 7F 6F 76 F8 FF FF 7F  66 00 80 CC F2 0A 01 CC  ..ov....f.......
03C0: F2 0A 01 74 6C 6B 30 2B  CC F2 0A 01 38 80 23 2B  ...tlk0+....8.#+
03D0: CC F2 0A 01 39 80 23 66  00 80 CC F2 0A 01 CC F2  ....9.#f........
03E0: 0A 01 74 6C 6B 31 53 CC  F2 0A 01 CC F2 0A 01 74  ..tlk1S........t
03F0: 6C 6B 31 21 00                                    lk1!.           
```

#### Opcodes

```
  0: 0x03A4 [0x4A] LocalPlayer looks at EventEntity
  1: 0x03AD [0x1E] EventEntity looks at LocalPlayer and starts talking
  2: 0x03B2 [0x6F] WAIT_FRAME_DELAY: Yield until WaitTime reaches zero
  3: 0x03B3 [0x76] CHECK_ENTITY_RENDER_FLAGS: Wait until EventEntity Render.Flags0 and Render.Flags3 conditions are met
  4: 0x03B8 [0x66] LOAD_EXT_SCHEDULER_MAIN: Load scheduler "tlk0" with entities [Erlene (ID: 17494732/0x010AF2CC), Erlene (ID: 17494732/0x010AF2CC)], work=19*
  5: 0x03C7 [0x2B] Erlene (ID: 17494732/0x010AF2CC) [7884*]:
    → "If my supposition is correct, the formula and the stratagem that works in tandem with it should be written out somewhere in Grauberg!"
  6: 0x03CE [0x23] WAIT_FOR_DIALOG_INTERACTION
  7: 0x03CF [0x2B] Erlene (ID: 17494732/0x010AF2CC) [7885*]:
    → "Go and find that formula, <Player>! It will almost certainly take you to the Ruhotz Silvermines."
  8: 0x03D6 [0x23] WAIT_FOR_DIALOG_INTERACTION
  9: 0x03D7 [0x66] LOAD_EXT_SCHEDULER_MAIN: Load scheduler "tlk1" with entities [Erlene (ID: 17494732/0x010AF2CC), Erlene (ID: 17494732/0x010AF2CC)], work=19*
 10: 0x03E6 [0x53] WAIT_SCHEDULER_TASK: Wait for scheduler "tlk1" with entities [Erlene (ID: 17494732/0x010AF2CC), Erlene (ID: 17494732/0x010AF2CC)]
 11: 0x03F3 [0x21] END_EVENT
 12: 0x03F4 [0x00] END_REQSTACK()
```

### Event 37

#### Metadata

| Field        | Value     |
|--------------|-----------|
| Entrypoint   | 0x03F5    |
| Data Size    | 156 bytes |
| Instructions | 27        |

```
      00 01 02 03 04 05 06 07  08 09 0A 0B 0C 0D 0E 0F
      -- -- -- -- -- -- -- --  -- -- -- -- -- -- -- --
03F0:                4A F0 FF  FF 7F F8 FF FF 7F 1E F0       J..........
0400: FF FF 7F 6F 76 F8 FF FF  7F 02 09 10 3A 80 00 4F  ...ov.......:..O
0410: 04 6E F8 FF FF 7F 3B 80  99 F8 FF FF 7F 1C 35 80  .n....;.......5.
0420: 2B CC F2 0A 01 3C 80 23  03 02 10 01 80 5B 1E 80  +....<.#.....[..
0430: CC F2 0A 01 CC F2 0A 01  73 63 6B 30 2B CC F2 0A  ........sck0+...
0440: 01 3D 80 23 2B CC F2 0A  01 3E 80 23 01 73 04 03  .=.#+....>.#.s..
0450: 02 10 01 80 5B 1E 80 CC  F2 0A 01 CC F2 0A 01 73  ....[..........s
0460: 63 6B 30 2B CC F2 0A 01  3F 80 23 2B CC F2 0A 01  ck0+....?.#+....
0470: 40 80 23 5B 1E 80 CC F2  0A 01 CC F2 0A 01 73 63  @.#[..........sc
0480: 6B 31 53 CC F2 0A 01 CC  F2 0A 01 73 63 6B 31 21  k1S........sck1!
0490: 00                                                .               
```

#### Opcodes

```
  0: 0x03F5 [0x4A] LocalPlayer looks at EventEntity
  1: 0x03FE [0x1E] EventEntity looks at LocalPlayer and starts talking
  2: 0x0403 [0x6F] WAIT_FRAME_DELAY: Yield until WaitTime reaches zero
  3: 0x0404 [0x76] CHECK_ENTITY_RENDER_FLAGS: Wait until EventEntity Render.Flags0 and Render.Flags3 conditions are met
  4: 0x0409 [0x02] IF !(Work_Zone[9] == 0*) GOTO 0x044F
  5: 0x0411 [0x6E] EventEntity uses emote 21*
  6: 0x0418 [0x99] Wait for EventEntity animation to complete
  7: 0x041D [0x1C] WAIT(60* ticks)
  8: 0x0420 [0x2B] Erlene (ID: 17494732/0x010AF2CC) [7887*]:
    → "You lost the transcription that I made for you? Well, it sure is a good thing that I hung onto that letter instead of you!"
  9: 0x0427 [0x23] WAIT_FOR_DIALOG_INTERACTION
 10: 0x0428 [0x03] Work_Zone[2] = 2550*
 11: 0x042D [0x5B] LOAD_EXT_SCHEDULER: Load scheduler "sck0" with entities [Erlene (ID: 17494732/0x010AF2CC), Erlene (ID: 17494732/0x010AF2CC)], work=1290*
 12: 0x043C [0x2B] Erlene (ID: 17494732/0x010AF2CC) [7888*]:
    → "Alright, then. I'll transcribe you another copy, I suppose. But I'm all out of $0."
 13: 0x0443 [0x23] WAIT_FOR_DIALOG_INTERACTION
 14: 0x0444 [0x2B] Erlene (ID: 17494732/0x010AF2CC) [7889*]:
    → "This won't do at all... Would you happen to have any, <Player>?"
 15: 0x044B [0x23] WAIT_FOR_DIALOG_INTERACTION
 16: 0x044C [0x01] GOTO 0x0473
 17: 0x044F [0x03] Work_Zone[2] = 2550*
 18: 0x0454 [0x5B] LOAD_EXT_SCHEDULER: Load scheduler "sck0" with entities [Erlene (ID: 17494732/0x010AF2CC), Erlene (ID: 17494732/0x010AF2CC)], work=1290*
 19: 0x0463 [0x2B] Erlene (ID: 17494732/0x010AF2CC) [7890*]:
    → "I'd like nothing more than to make another copy of this formula for you, but unfortunately I'm out of $0. There's a lot of writing in a very small space... It must be of the finest quality, I'm afraid."
 20: 0x046A [0x23] WAIT_FOR_DIALOG_INTERACTION
 21: 0x046B [0x2B] Erlene (ID: 17494732/0x010AF2CC) [7891*]:
    → "Things have been so hectic lately I haven't had the chance to resupply. Would you happen to have any, <Player>?"
 22: 0x0472 [0x23] WAIT_FOR_DIALOG_INTERACTION

SUBROUTINE_0473:
 23: 0x0473 [0x5B] LOAD_EXT_SCHEDULER: Load scheduler "sck1" with entities [Erlene (ID: 17494732/0x010AF2CC), Erlene (ID: 17494732/0x010AF2CC)], work=1290*
 24: 0x0482 [0x53] WAIT_SCHEDULER_TASK: Wait for scheduler "sck1" with entities [Erlene (ID: 17494732/0x010AF2CC), Erlene (ID: 17494732/0x010AF2CC)]
 25: 0x048F [0x21] END_EVENT
 26: 0x0490 [0x00] END_REQSTACK()
```

### Event 38

#### Metadata

| Field        | Value     |
|--------------|-----------|
| Entrypoint   | 0x0491    |
| Data Size    | 190 bytes |
| Instructions | 24        |

```
      00 01 02 03 04 05 06 07  08 09 0A 0B 0C 0D 0E 0F
      -- -- -- -- -- -- -- --  -- -- -- -- -- -- -- --
0490:    42 4A F0 FF FF 7F F8  FF FF 7F 1E F0 FF FF 7F   BJ.............
04A0: 6F 76 F8 FF FF 7F 03 02  10 01 80 2B CC F2 0A 01  ov.........+....
04B0: 41 80 23 45 42 80 F0 FF  FF 7F F0 FF FF 7F 66 64  A.#EB.........fd
04C0: 6F 31 3A 80 55 42 80 F0  FF FF 7F F0 FF FF 7F 66  o1:.UB.........f
04D0: 64 6F 31 1C 35 80 66 43  80 CC F2 0A 01 CC F2 0A  do1.5.fC........
04E0: 01 70 61 73 30 45 42 80  F0 FF FF 7F F0 FF FF 7F  .pas0EB.........
04F0: 66 64 69 31 3A 80 55 42  80 F0 FF FF 7F F0 FF FF  fdi1:.UB........
0500: 7F 66 64 69 31 53 CC F2  0A 01 CC F2 0A 01 70 61  .fdi1S........pa
0510: 73 30 66 00 80 CC F2 0A  01 CC F2 0A 01 74 6C 6B  s0f..........tlk
0520: 30 2B CC F2 0A 01 38 80  23 2B CC F2 0A 01 39 80  0+....8.#+....9.
0530: 23 66 00 80 CC F2 0A 01  CC F2 0A 01 74 6C 6B 31  #f..........tlk1
0540: 53 CC F2 0A 01 CC F2 0A  01 74 6C 6B 31 21 00     S........tlk1!. 
```

#### Opcodes

```
  0: 0x0491 [0x42] SET_CLI_EVENT_CANCEL_DATA()
  1: 0x0492 [0x4A] LocalPlayer looks at EventEntity
  2: 0x049B [0x1E] EventEntity looks at LocalPlayer and starts talking
  3: 0x04A0 [0x6F] WAIT_FRAME_DELAY: Yield until WaitTime reaches zero
  4: 0x04A1 [0x76] CHECK_ENTITY_RENDER_FLAGS: Wait until EventEntity Render.Flags0 and Render.Flags3 conditions are met
  5: 0x04A6 [0x03] Work_Zone[2] = 2550*
  6: 0x04AB [0x2B] Erlene (ID: 17494732/0x010AF2CC) [7892*]:
    → "A $0! Give me just a moment then, and I'll make you another copy of the professor's letter."
  7: 0x04B2 [0x23] WAIT_FOR_DIALOG_INTERACTION
  8: 0x04B3 [0x45] LOAD_SCHEDULED_TASK: Load scheduler "fdo1" with entities [LocalPlayer, LocalPlayer], work=[200*, 0*]
  9: 0x04C4 [0x55] WAIT_LOAD_SCHEDULER: Wait for scheduler "fdo1" with entities [LocalPlayer, LocalPlayer], work=200*
 10: 0x04D3 [0x1C] WAIT(60* ticks)
 11: 0x04D6 [0x66] LOAD_EXT_SCHEDULER_MAIN: Load scheduler "pas0" with entities [Erlene (ID: 17494732/0x010AF2CC), Erlene (ID: 17494732/0x010AF2CC)], work=89*
 12: 0x04E5 [0x45] LOAD_SCHEDULED_TASK: Load scheduler "fdi1" with entities [LocalPlayer, LocalPlayer], work=[200*, 0*]
 13: 0x04F6 [0x55] WAIT_LOAD_SCHEDULER: Wait for scheduler "fdi1" with entities [LocalPlayer, LocalPlayer], work=200*
 14: 0x0505 [0x53] WAIT_SCHEDULER_TASK: Wait for scheduler "pas0" with entities [Erlene (ID: 17494732/0x010AF2CC), Erlene (ID: 17494732/0x010AF2CC)]
 15: 0x0512 [0x66] LOAD_EXT_SCHEDULER_MAIN: Load scheduler "tlk0" with entities [Erlene (ID: 17494732/0x010AF2CC), Erlene (ID: 17494732/0x010AF2CC)], work=19*
 16: 0x0521 [0x2B] Erlene (ID: 17494732/0x010AF2CC) [7884*]:
    → "If my supposition is correct, the formula and the stratagem that works in tandem with it should be written out somewhere in Grauberg!"
 17: 0x0528 [0x23] WAIT_FOR_DIALOG_INTERACTION
 18: 0x0529 [0x2B] Erlene (ID: 17494732/0x010AF2CC) [7885*]:
    → "Go and find that formula, <Player>! It will almost certainly take you to the Ruhotz Silvermines."
 19: 0x0530 [0x23] WAIT_FOR_DIALOG_INTERACTION
 20: 0x0531 [0x66] LOAD_EXT_SCHEDULER_MAIN: Load scheduler "tlk1" with entities [Erlene (ID: 17494732/0x010AF2CC), Erlene (ID: 17494732/0x010AF2CC)], work=19*
 21: 0x0540 [0x53] WAIT_SCHEDULER_TASK: Wait for scheduler "tlk1" with entities [Erlene (ID: 17494732/0x010AF2CC), Erlene (ID: 17494732/0x010AF2CC)]
 22: 0x054D [0x21] END_EVENT
 23: 0x054E [0x00] END_REQSTACK()
```

### Event 35

#### Metadata

| Field        | Value    |
|--------------|----------|
| Entrypoint   | 0x054F   |
| Data Size    | 75 bytes |
| Instructions | 17       |

```
      00 01 02 03 04 05 06 07  08 09 0A 0B 0C 0D 0E 0F
      -- -- -- -- -- -- -- --  -- -- -- -- -- -- -- --
0540:                                               4A                 J
0550: F0 FF FF 7F F8 FF FF 7F  1E F0 FF FF 7F 6F 76 F8  .............ov.
0560: FF FF 7F 6E CC F2 0A 01  44 80 99 CC F2 0A 01 99  ...n....D.......
0570: CC F2 0A 01 2B CC F2 0A  01 45 80 23 6E CC F2 0A  ....+....E.#n...
0580: 01 46 80 99 CC F2 0A 01  99 CC F2 0A 01 1C 1B 80  .F..............
0590: 2B CC F2 0A 01 47 80 23  21 00                    +....G.#!.      
```

#### Opcodes

```
  0: 0x054F [0x4A] LocalPlayer looks at EventEntity
  1: 0x0558 [0x1E] EventEntity looks at LocalPlayer and starts talking
  2: 0x055D [0x6F] WAIT_FRAME_DELAY: Yield until WaitTime reaches zero
  3: 0x055E [0x76] CHECK_ENTITY_RENDER_FLAGS: Wait until EventEntity Render.Flags0 and Render.Flags3 conditions are met
  4: 0x0563 [0x6E] Erlene (ID: 17494732/0x010AF2CC) uses emote 36*
  5: 0x056A [0x99] Wait for Erlene (ID: 17494732/0x010AF2CC) animation to complete
  6: 0x056F [0x99] Wait for Erlene (ID: 17494732/0x010AF2CC) animation to complete
  7: 0x0574 [0x2B] Erlene (ID: 17494732/0x010AF2CC) [7898*]:
    → "You have faced many trials in getting here today, but the war continues. We scholars still have a great deal of work to do."
  8: 0x057B [0x23] WAIT_FOR_DIALOG_INTERACTION
  9: 0x057C [0x6E] Erlene (ID: 17494732/0x010AF2CC) uses emote 12*
 10: 0x0583 [0x99] Wait for Erlene (ID: 17494732/0x010AF2CC) animation to complete
 11: 0x0588 [0x99] Wait for Erlene (ID: 17494732/0x010AF2CC) animation to complete
 12: 0x058D [0x1C] WAIT(45* ticks)
 13: 0x0590 [0x2B] Erlene (ID: 17494732/0x010AF2CC) [7899*]:
    → ""To know is to act"! Let us show the world what we scholars know!"
 14: 0x0597 [0x23] WAIT_FOR_DIALOG_INTERACTION
 15: 0x0598 [0x21] END_EVENT
 16: 0x0599 [0x00] END_REQSTACK()
```

### Event 65535.6

#### Metadata

| Field        | Value    |
|--------------|----------|
| Entrypoint   | 0x059A   |
| Data Size    | 20 bytes |
| Instructions | 6        |

```
      00 01 02 03 04 05 06 07  08 09 0A 0B 0C 0D 0E 0F
      -- -- -- -- -- -- -- --  -- -- -- -- -- -- -- --
0590:                                32 11 80 1F 00 48            2....H
05A0: 80 49 80 10 80 1F 01 6F  1E CD F2 0A 01 00        .I.....o......  
```

#### Opcodes

```
  0: 0x059A [0x32] ExtData[1]->MainSpeed = 11* * 0.1
  1: 0x059D [0x1F] MOVE_ENTITY: EventEntity moves to X=376.980*, Z=19.813*, Y=-39.999*
  2: 0x05A5 [0x1F] MOVE_ENTITY: Update entity position (mode=1)
  3: 0x05A7 [0x6F] WAIT_FRAME_DELAY: Yield until WaitTime reaches zero
  4: 0x05A8 [0x1E] EventEntity looks at Ulbrecht (ID: 17494733/0x010AF2CD) and starts talking
  5: 0x05AD [0x00] END_REQSTACK()
```

### Event 65535.7

#### Metadata

| Field        | Value    |
|--------------|----------|
| Entrypoint   | 0x05AE   |
| Data Size    | 34 bytes |
| Instructions | 8        |

```
      00 01 02 03 04 05 06 07  08 09 0A 0B 0C 0D 0E 0F
      -- -- -- -- -- -- -- --  -- -- -- -- -- -- -- --
05A0:                                            32 11                2.
05B0: 80 1F 00 4A 80 4B 80 1A  80 1F 01 4A F0 FF FF 7F  ...J.K.....J....
05C0: F8 FF FF 7F 1F 00 4C 80  4D 80 1A 80 1F 01 6F 00  ......L.M.....o.
```

#### Opcodes

```
  0: 0x05AE [0x32] ExtData[1]->MainSpeed = 11* * 0.1
  1: 0x05B1 [0x1F] MOVE_ENTITY: EventEntity moves to X=377.730*, Z=19.939*, Y=-40.000*
  2: 0x05B9 [0x1F] MOVE_ENTITY: Update entity position (mode=1)
  3: 0x05BB [0x4A] LocalPlayer looks at EventEntity
  4: 0x05C4 [0x1F] MOVE_ENTITY: EventEntity moves to X=378.641*, Z=23.092*, Y=-40.000*
  5: 0x05CC [0x1F] MOVE_ENTITY: Update entity position (mode=1)
  6: 0x05CE [0x6F] WAIT_FRAME_DELAY: Yield until WaitTime reaches zero
  7: 0x05CF [0x00] END_REQSTACK()
```

### Event 65535.8

#### Metadata

| Field        | Value    |
|--------------|----------|
| Entrypoint   | 0x05D0   |
| Data Size    | 15 bytes |
| Instructions | 5        |

```
      00 01 02 03 04 05 06 07  08 09 0A 0B 0C 0D 0E 0F
      -- -- -- -- -- -- -- --  -- -- -- -- -- -- -- --
05D0: 32 11 80 1F 00 4E 80 4F  80 50 80 1F 01 6F 00     2....N.O.P...o. 
```

#### Opcodes

```
  0: 0x05D0 [0x32] ExtData[1]->MainSpeed = 11* * 0.1
  1: 0x05D3 [0x1F] MOVE_ENTITY: EventEntity moves to X=179.559*, Z=157.062*, Y=-27.749*
  2: 0x05DB [0x1F] MOVE_ENTITY: Update entity position (mode=1)
  3: 0x05DD [0x6F] WAIT_FRAME_DELAY: Yield until WaitTime reaches zero
  4: 0x05DE [0x00] END_REQSTACK()
```

### Event 65535.9

#### Metadata

| Field        | Value    |
|--------------|----------|
| Entrypoint   | 0x05DF   |
| Data Size    | 24 bytes |
| Instructions | 6        |

```
      00 01 02 03 04 05 06 07  08 09 0A 0B 0C 0D 0E 0F
      -- -- -- -- -- -- -- --  -- -- -- -- -- -- -- --
05D0:                                               32                 2
05E0: 11 80 1F 00 51 80 52 80  50 80 1F 01 6F 4A F0 FF  ....Q.R.P...oJ..
05F0: FF 7F F8 FF FF 7F 00                              .......         
```

#### Opcodes

```
  0: 0x05DF [0x32] ExtData[1]->MainSpeed = 11* * 0.1
  1: 0x05E2 [0x1F] MOVE_ENTITY: EventEntity moves to X=179.079*, Z=155.889*, Y=-27.749*
  2: 0x05EA [0x1F] MOVE_ENTITY: Update entity position (mode=1)
  3: 0x05EC [0x6F] WAIT_FRAME_DELAY: Yield until WaitTime reaches zero
  4: 0x05ED [0x4A] LocalPlayer looks at EventEntity
  5: 0x05F6 [0x00] END_REQSTACK()
```

### Event 47

#### Metadata

| Field        | Value     |
|--------------|-----------|
| Entrypoint   | 0x05F7    |
| Data Size    | 189 bytes |
| Instructions | 43        |

```
      00 01 02 03 04 05 06 07  08 09 0A 0B 0C 0D 0E 0F
      -- -- -- -- -- -- -- --  -- -- -- -- -- -- -- --
05F0:                      4A  F0 FF FF 7F F8 FF FF 7F         J........
0600: 1E F0 FF FF 7F 6F 76 F8  FF FF 7F 1D 53 80 23 1D  .....ov.....S.#.
0610: 54 80 23 1D 55 80 23 1D  56 80 23 5B 1E 80 CC F2  T.#.U.#.V.#[....
0620: 0A 01 CC F2 0A 01 73 63  6B 30 1D 57 80 23 1D 58  ......sck0.W.#.X
0630: 80 23 5B 1E 80 CC F2 0A  01 CC F2 0A 01 73 63 6B  .#[..........sck
0640: 31 1D 59 80 23 66 00 80  CC F2 0A 01 CC F2 0A 01  1.Y.#f..........
0650: 74 6C 6B 30 1D 5A 80 23  1D 5B 80 23 1D 5C 80 23  tlk0.Z.#.[.#.\.#
0660: 66 00 80 CC F2 0A 01 CC  F2 0A 01 74 6C 6B 31 1D  f..........tlk1.
0670: 5D 80 23 66 00 80 CC F2  0A 01 CC F2 0A 01 74 68  ].#f..........th
0680: 6B 31 1D 5E 80 23 66 00  80 CC F2 0A 01 CC F2 0A  k1.^.#f.........
0690: 01 74 68 6B 32 1D 5F 80  23 1D 60 80 23 1D 61 80  .thk2._.#.`.#.a.
06A0: 23 45 62 80 F8 FF FF 7F  F8 FF FF 7F 71 73 74 63  #Eb.........qstc
06B0: 3A 80 21 00                                       :.!.            
```

#### Opcodes

```
  0: 0x05F7 [0x4A] LocalPlayer looks at EventEntity
  1: 0x0600 [0x1E] EventEntity looks at LocalPlayer and starts talking
  2: 0x0605 [0x6F] WAIT_FRAME_DELAY: Yield until WaitTime reaches zero
  3: 0x0606 [0x76] CHECK_ENTITY_RENDER_FLAGS: Wait until EventEntity Render.Flags0 and Render.Flags3 conditions are met
  4: 0x060B [0x1D] PRINT_EVENT_MESSAGE(message_id=7900*)
    → "Well, if it isn't my prize pupil. I trust that your studies in the Schultz School of Martial Theory have been serving you well afield."
  5: 0x060E [0x23] WAIT_FOR_DIALOG_INTERACTION
  6: 0x060F [0x1D] PRINT_EVENT_MESSAGE(message_id=7901*)
    → "Incidentally, you are familiar with the technique we call "Tabula Rasa," are you not? A monumental breakthrough in the history of our school, it allows us scholars to wield strategems with nary a concern for charges."
  7: 0x0612 [0x23] WAIT_FOR_DIALOG_INTERACTION
  8: 0x0613 [0x1D] PRINT_EVENT_MESSAGE(message_id=7902*)
    → "Already knew that, you say? Well, then perhaps you're ready for the honors class. Ready your parchment and quill--it's time for one of Professor Erlene's acclaimed lectures!"
  9: 0x0616 [0x23] WAIT_FOR_DIALOG_INTERACTION
 10: 0x0617 [0x1D] PRINT_EVENT_MESSAGE(message_id=7903*)
    → "Mastering Tabula Rasa, you see, allows the scholar unprecedented options in combat. Strategems may be combined and battle tactics altered at will to account for subtle ebbs and flows in the tide of battle."
 11: 0x061A [0x23] WAIT_FOR_DIALOG_INTERACTION
 12: 0x061B [0x5B] LOAD_EXT_SCHEDULER: Load scheduler "sck0" with entities [Erlene (ID: 17494732/0x010AF2CC), Erlene (ID: 17494732/0x010AF2CC)], work=1290*
 13: 0x062A [0x1D] PRINT_EVENT_MESSAGE(message_id=7904*)
    → "Needless to say, it falls upon you, the scholar, to use this heightened potential effectively. With your time limited, simply unleashing your strategies haphazardly will afford you few benefits, if any at all."
 14: 0x062D [0x23] WAIT_FOR_DIALOG_INTERACTION
 15: 0x062E [0x1D] PRINT_EVENT_MESSAGE(message_id=7905*)
    → "It is precisely this discernment and poise under pressure that separates the great tacticians of our time from the multitudes who excel in the classroom but flounder on the field of battle."
 16: 0x0631 [0x23] WAIT_FOR_DIALOG_INTERACTION
 17: 0x0632 [0x5B] LOAD_EXT_SCHEDULER: Load scheduler "sck1" with entities [Erlene (ID: 17494732/0x010AF2CC), Erlene (ID: 17494732/0x010AF2CC)], work=1290*
 18: 0x0641 [0x1D] PRINT_EVENT_MESSAGE(message_id=7906*)
    → "But let us return to the topic at hand."
 19: 0x0644 [0x23] WAIT_FOR_DIALOG_INTERACTION
 20: 0x0645 [0x66] LOAD_EXT_SCHEDULER_MAIN: Load scheduler "tlk0" with entities [Erlene (ID: 17494732/0x010AF2CC), Erlene (ID: 17494732/0x010AF2CC)], work=19*
 21: 0x0654 [0x1D] PRINT_EVENT_MESSAGE(message_id=7907*)
    → "No doubt you've heard tales of warriors who--in the times of greatest crisis--were able to summon heretofore-untapped reserves of strength."
 22: 0x0657 [0x23] WAIT_FOR_DIALOG_INTERACTION
 23: 0x0658 [0x1D] PRINT_EVENT_MESSAGE(message_id=7908*)
    → "One might say that Tabula Rasa serves a similar function for us. Of course, its benefits are of the mental and psychological variety rather than the physical, but nevertheless..."
 24: 0x065B [0x23] WAIT_FOR_DIALOG_INTERACTION
 25: 0x065C [0x1D] PRINT_EVENT_MESSAGE(message_id=7909*)
    → "Now, where was I? Ah, yes! The rub is that we scholars can only sustain this state of heightened faculties for a short duration. As the proverb goes: make use of time, let not advantage slip."
 26: 0x065F [0x23] WAIT_FOR_DIALOG_INTERACTION
 27: 0x0660 [0x66] LOAD_EXT_SCHEDULER_MAIN: Load scheduler "tlk1" with entities [Erlene (ID: 17494732/0x010AF2CC), Erlene (ID: 17494732/0x010AF2CC)], work=19*
 28: 0x066F [0x1D] PRINT_EVENT_MESSAGE(message_id=7910*)
    → "It is akin to how sprinting at full speed will quickly leave our bodies wanting for breath. Of course, even this is not truly "full" speed, as those subconscious reserves of strength remain largely dormant."
 29: 0x0672 [0x23] WAIT_FOR_DIALOG_INTERACTION
 30: 0x0673 [0x66] LOAD_EXT_SCHEDULER_MAIN: Load scheduler "thk1" with entities [Erlene (ID: 17494732/0x010AF2CC), Erlene (ID: 17494732/0x010AF2CC)], work=19*
 31: 0x0682 [0x1D] PRINT_EVENT_MESSAGE(message_id=7911*)
    → "And what if we were to cast off the fetters of our mortal bodies entirely, gaining mental and physical powers beyond our wildest comprehension!? Yes, soon the day will come that...!"
 32: 0x0685 [0x23] WAIT_FOR_DIALOG_INTERACTION
 33: 0x0686 [0x66] LOAD_EXT_SCHEDULER_MAIN: Load scheduler "thk2" with entities [Erlene (ID: 17494732/0x010AF2CC), Erlene (ID: 17494732/0x010AF2CC)], work=19*
 34: 0x0695 [0x1D] PRINT_EVENT_MESSAGE(message_id=7912*)
    → "...Ah, but forgive me. My research has afforded me precious little time for respite of late. I fear my faculties are fraying."
 35: 0x0698 [0x23] WAIT_FOR_DIALOG_INTERACTION
 36: 0x0699 [0x1D] PRINT_EVENT_MESSAGE(message_id=7913*)
    → "The remainder of today's lesson you may glean from these tomes. To wit, they detail two arcane spells wieldable only by those in the heightened mental state of which I previously spoke."
 37: 0x069C [0x23] WAIT_FOR_DIALOG_INTERACTION
 38: 0x069D [0x1D] PRINT_EVENT_MESSAGE(message_id=7914*)
    → "And that concludes our class for the day. Study well your texts, <Player>, and they will not fail you afield. Remember: the day a scholar stops learning is the day [he/she] draws [his/her] final breath!"
 39: 0x06A0 [0x23] WAIT_FOR_DIALOG_INTERACTION
 40: 0x06A1 [0x45] LOAD_SCHEDULED_TASK: Load scheduler "qstc" with entities [EventEntity, EventEntity], work=[201*, 0*]
 41: 0x06B2 [0x21] END_EVENT
 42: 0x06B3 [0x00] END_REQSTACK()
```
