# 17494730

## Common Data

| Field            | Value                                |
|------------------|--------------------------------------|
| Zone             | The Eldieme Necropolis [S] (ID: 175) |
| Block Size       | 24420 bytes                          |
| Total Events     | 14                                   |
| References Count | 466                                  |

## List of Events

| Event ID              | Entrypoint   |   Size |   Instructions |
|-----------------------|--------------|--------|----------------|
| [65535](#event-65535) | 0x0000       |      1 |              1 |
| [7](#event-7)         | 0x0001       |    888 |            135 |
| [10](#event-10)       | 0x0379       |   2284 |            310 |
| [12](#event-12)       | 0x0C65       |   1380 |            183 |
| [14](#event-14)       | 0x11C9       |   3036 |            376 |
| [18](#event-18)       | 0x1DA5       |   1502 |            188 |
| [20](#event-20)       | 0x2383       |   1540 |            200 |
| [23](#event-23)       | 0x2987       |   1352 |            180 |
| [25](#event-25)       | 0x2ECF       |    567 |             80 |
| [27](#event-27)       | 0x3106       |   2949 |            354 |
| [29](#event-29)       | 0x3C8B       |   1633 |            231 |
| [31](#event-31)       | 0x42EC       |    476 |             74 |
| [32](#event-32)       | 0x44C8       |   3616 |            501 |
| [34](#event-34)       | 0x52E8       |   1260 |            144 |

## DAT References (imed_data)

|   Index | Hex Value   |   Dec Value |
|---------|-------------|-------------|
|       0 | 0x0001      |           1 |
|       1 | 0x1DC6      |        7622 |
|       2 | 0x1DC4      |        7620 |
|       3 | 0x0000      |           0 |
|       4 | 0x0179      |         377 |
|       5 | 0x1DC2      |        7618 |
|       6 | 0x0050      |          80 |
|       7 | 0x1DC3      |        7619 |
|       8 | 0x0006      |           6 |
|       9 | 0x003C      |          60 |
|      10 | 0x0016      |          22 |
|      11 | 0x1DC5      |        7621 |
|      12 | 0x0007      |           7 |
|      13 | 0x1DC7      |        7623 |
|      14 | 0x1DC8      |        7624 |
|      15 | 0x1DC9      |        7625 |
|      16 | 0x002D      |          45 |
|      17 | 0x1EED      |        7917 |
|      18 | 0x1DCA      |        7626 |
|      19 | 0x1DCB      |        7627 |
|      20 | 0x1DCC      |        7628 |
|      21 | 0x0078      |         120 |
|      22 | 0x0045      |          69 |
|      23 | 0x1DCD      |        7629 |
|      24 | 0x1DCE      |        7630 |
|      25 | 0x1DCF      |        7631 |
|      26 | 0x0004      |           4 |
|      27 | 0x001E      |          30 |
|      28 | 0x00C8      |         200 |
|      29 | 0x0013      |          19 |
|      30 | 0x66EF5     |      421621 |
|      31 | 0xFFFF3FF4  |  4294918132 |
|      32 | 0xFFFF4480  |  4294919296 |
|      33 | 0x0D0B      |        3339 |
|      34 | 0x00F7      |         247 |
|      35 | 0x000F      |          15 |
|      36 | 0x1DD3      |        7635 |
|      37 | 0x1DD4      |        7636 |
|      38 | 0x000B      |          11 |
|      39 | 0x1DD6      |        7638 |
|      40 | 0x0020      |          32 |
|      41 | 0x1DD7      |        7639 |
|      42 | 0x40000000  |  1073741824 |
|      43 | 0x1DD5      |        7637 |
|      44 | 0x5C7A7     |      378791 |
|      45 | 0x4527      |       17703 |
|      46 | 0xFFFF63C1  |  4294927297 |
|      47 | 0x084A      |        2122 |
|      48 | 0x5CA5E     |      379486 |
|      49 | 0x67B8      |       26552 |
|      50 | 0x0417      |        1047 |
|      51 | 0x00B4      |         180 |
|      52 | 0x0200      |         512 |
|      53 | 0x1DD8      |        7640 |
|      54 | 0x1DD9      |        7641 |
|      55 | 0x1DDA      |        7642 |
|      56 | 0x1DDB      |        7643 |
|      57 | 0x050A      |        1290 |
|      58 | 0x1DDC      |        7644 |
|      59 | 0x1DDD      |        7645 |
|      60 | 0x004B      |          75 |
|      61 | 0x1DDE      |        7646 |
|      62 | 0x1DDF      |        7647 |
|      63 | 0x0400      |        1024 |
|      64 | 0x1DE0      |        7648 |
|      65 | 0x1DE1      |        7649 |
|      66 | 0x1DE2      |        7650 |
|      67 | 0x1DE3      |        7651 |
|      68 | 0x1DE4      |        7652 |
|      69 | 0x1DE5      |        7653 |
|      70 | 0x1DE6      |        7654 |
|      71 | 0x1DE7      |        7655 |
|      72 | 0x0009      |           9 |
|      73 | 0x1DE8      |        7656 |
|      74 | 0x1DE9      |        7657 |
|      75 | 0x0014      |          20 |
|      76 | 0x1DEA      |        7658 |
|      77 | 0x1DEB      |        7659 |
|      78 | 0x1DEC      |        7660 |
|      79 | 0x001A      |          26 |
|      80 | 0x1DED      |        7661 |
|      81 | 0x012C      |         300 |
|      82 | 0x1DEE      |        7662 |
|      83 | 0x1DEF      |        7663 |
|      84 | 0x09F6      |        2550 |
|      85 | 0x1DF0      |        7664 |
|      86 | 0x00A3      |         163 |
|      87 | 0x1DF1      |        7665 |
|      88 | 0x1DF2      |        7666 |
|      89 | 0x1DF3      |        7667 |
|      90 | 0x1DF4      |        7668 |
|      91 | 0x1DF5      |        7669 |
|      92 | 0x1DF6      |        7670 |
|      93 | 0x0019      |          25 |
|      94 | 0x1DF7      |        7671 |
|      95 | 0x1DF8      |        7672 |
|      96 | 0x1DFA      |        7674 |
|      97 | 0x1DFB      |        7675 |
|      98 | 0x1DFC      |        7676 |
|      99 | 0x1DFD      |        7677 |
|     100 | 0x00A2      |         162 |
|     101 | 0x1DFE      |        7678 |
|     102 | 0x1DFF      |        7679 |
|     103 | 0x1E00      |        7680 |
|     104 | 0x1E01      |        7681 |
|     105 | 0x005A      |          90 |
|     106 | 0x1E02      |        7682 |
|     107 | 0x1E03      |        7683 |
|     108 | 0x1E04      |        7684 |
|     109 | 0x1E05      |        7685 |
|     110 | 0x5C4B1     |      378033 |
|     111 | 0x4D81      |       19841 |
|     112 | 0x084B      |        2123 |
|     113 | 0x0059      |          89 |
|     114 | 0x1E06      |        7686 |
|     115 | 0x1E07      |        7687 |
|     116 | 0x1E08      |        7688 |
|     117 | 0x1E09      |        7689 |
|     118 | 0x1E0A      |        7690 |
|     119 | 0x0280      |         640 |
|     120 | 0x1E0B      |        7691 |
|     121 | 0x1E0C      |        7692 |
|     122 | 0x0258      |         600 |
|     123 | 0x1E0D      |        7693 |
|     124 | 0x1E0E      |        7694 |
|     125 | 0x1E0F      |        7695 |
|     126 | 0x1E10      |        7696 |
|     127 | 0x5C6C1     |      378561 |
|     128 | 0x5878      |       22648 |
|     129 | 0x045B      |        1115 |
|     130 | 0x5E38F     |      385935 |
|     131 | 0x4EB0      |       20144 |
|     132 | 0x0830      |        2096 |
|     133 | 0x42CF      |       17103 |
|     134 | 0x477F      |       18303 |
|     135 | 0x000D      |          13 |
|     136 | 0x1E11      |        7697 |
|     137 | 0x1E12      |        7698 |
|     138 | 0x1E13      |        7699 |
|     139 | 0x1E14      |        7700 |
|     140 | 0x00D9      |         217 |
|     141 | 0x1E15      |        7701 |
|     142 | 0x0510      |        1296 |
|     143 | 0x1E16      |        7702 |
|     144 | 0x1E17      |        7703 |
|     145 | 0x1E18      |        7704 |
|     146 | 0x1E19      |        7705 |
|     147 | 0x5C9DB     |      379355 |
|     148 | 0x47F3      |       18419 |
|     149 | 0x0BE2      |        3042 |
|     150 | 0x1E1A      |        7706 |
|     151 | 0x1E1B      |        7707 |
|     152 | 0x1E1C      |        7708 |
|     153 | 0x1E1D      |        7709 |
|     154 | 0x1E1E      |        7710 |
|     155 | 0x0015      |          21 |
|     156 | 0x1E1F      |        7711 |
|     157 | 0x1E20      |        7712 |
|     158 | 0x1E21      |        7713 |
|     159 | 0x1E22      |        7714 |
|     160 | 0x1E23      |        7715 |
|     161 | 0x1E24      |        7716 |
|     162 | 0x1E25      |        7717 |
|     163 | 0x0002      |           2 |
|     164 | 0x0003      |           3 |
|     165 | 0x0005      |           5 |
|     166 | 0x0008      |           8 |
|     167 | 0x1E26      |        7718 |
|     168 | 0x1E27      |        7719 |
|     169 | 0x1E28      |        7720 |
|     170 | 0x017A      |         378 |
|     171 | 0x1E29      |        7721 |
|     172 | 0x1E2A      |        7722 |
|     173 | 0x1E2B      |        7723 |
|     174 | 0x1E2C      |        7724 |
|     175 | 0x1E2D      |        7725 |
|     176 | 0x1E2E      |        7726 |
|     177 | 0x1E2F      |        7727 |
|     178 | 0x1E30      |        7728 |
|     179 | 0x1E31      |        7729 |
|     180 | 0x1E32      |        7730 |
|     181 | 0x00C9      |         201 |
|     182 | 0x05B3      |        1459 |
|     183 | 0x017D      |         381 |
|     184 | 0x1E37      |        7735 |
|     185 | 0x1E38      |        7736 |
|     186 | 0x1E39      |        7737 |
|     187 | 0x1E3A      |        7738 |
|     188 | 0x1E3B      |        7739 |
|     189 | 0x1E3C      |        7740 |
|     190 | 0x1E3D      |        7741 |
|     191 | 0x1E3E      |        7742 |
|     192 | 0x1E3F      |        7743 |
|     193 | 0x1E40      |        7744 |
|     194 | 0x054B      |        1355 |
|     195 | 0x1E41      |        7745 |
|     196 | 0x1E42      |        7746 |
|     197 | 0x5C9B2     |      379314 |
|     198 | 0x704F      |       28751 |
|     199 | 0x0C26      |        3110 |
|     200 | 0x1E43      |        7747 |
|     201 | 0x0091      |         145 |
|     202 | 0x1E44      |        7748 |
|     203 | 0x1E45      |        7749 |
|     204 | 0x1E46      |        7750 |
|     205 | 0x1E47      |        7751 |
|     206 | 0x1E48      |        7752 |
|     207 | 0x1E49      |        7753 |
|     208 | 0x1E4A      |        7754 |
|     209 | 0x1E4C      |        7756 |
|     210 | 0x1E4D      |        7757 |
|     211 | 0x1E4E      |        7758 |
|     212 | 0x1E4F      |        7759 |
|     213 | 0x1E50      |        7760 |
|     214 | 0x1E51      |        7761 |
|     215 | 0x054F      |        1359 |
|     216 | 0x000A      |          10 |
|     217 | 0x08E2      |        2274 |
|     218 | 0x1E52      |        7762 |
|     219 | 0x1E53      |        7763 |
|     220 | 0x1E54      |        7764 |
|     221 | 0x1E55      |        7765 |
|     222 | 0x054A      |        1354 |
|     223 | 0x17AA      |        6058 |
|     224 | 0x1E56      |        7766 |
|     225 | 0x1E57      |        7767 |
|     226 | 0x1E58      |        7768 |
|     227 | 0x1E59      |        7769 |
|     228 | 0x1E5A      |        7770 |
|     229 | 0x1E5B      |        7771 |
|     230 | 0x0096      |         150 |
|     231 | 0x1E5C      |        7772 |
|     232 | 0x1E60      |        7776 |
|     233 | 0x1E61      |        7777 |
|     234 | 0x1E62      |        7778 |
|     235 | 0x1E63      |        7779 |
|     236 | 0x1E64      |        7780 |
|     237 | 0x1E65      |        7781 |
|     238 | 0x2C97F     |      182655 |
|     239 | 0x257B2     |      153522 |
|     240 | 0xFFFF93C2  |  4294939586 |
|     241 | 0x0836      |        2102 |
|     242 | 0x2C96C     |      182636 |
|     243 | 0x25F6B     |      155499 |
|     244 | 0x08F6      |        2294 |
|     245 | 0x007B      |         123 |
|     246 | 0x1E66      |        7782 |
|     247 | 0x1E67      |        7783 |
|     248 | 0x1E68      |        7784 |
|     249 | 0x1E69      |        7785 |
|     250 | 0x1E6A      |        7786 |
|     251 | 0x1E6B      |        7787 |
|     252 | 0x1E6C      |        7788 |
|     253 | 0x1E6D      |        7789 |
|     254 | 0x1E6E      |        7790 |
|     255 | 0x1E6F      |        7791 |
|     256 | 0x1E70      |        7792 |
|     257 | 0x1E71      |        7793 |
|     258 | 0x1E72      |        7794 |
|     259 | 0x1E73      |        7795 |
|     260 | 0x1E74      |        7796 |
|     261 | 0x1E75      |        7797 |
|     262 | 0x1E76      |        7798 |
|     263 | 0x007F      |         127 |
|     264 | 0x1E77      |        7799 |
|     265 | 0x1E78      |        7800 |
|     266 | 0x1E79      |        7801 |
|     267 | 0x1E7A      |        7802 |
|     268 | 0x1E7B      |        7803 |
|     269 | 0x1E7C      |        7804 |
|     270 | 0x1E7D      |        7805 |
|     271 | 0x1E7E      |        7806 |
|     272 | 0x0551      |        1361 |
|     273 | 0x1E82      |        7810 |
|     274 | 0x1E83      |        7811 |
|     275 | 0x050C      |        1292 |
|     276 | 0x1E84      |        7812 |
|     277 | 0x1E85      |        7813 |
|     278 | 0x0081      |         129 |
|     279 | 0x00FF      |         255 |
|     280 | 0x12E31     |       77361 |
|     281 | 0x22D2D     |      142637 |
|     282 | 0x02B0      |         688 |
|     283 | 0x0D97      |        3479 |
|     284 | 0x127C5     |       75717 |
|     285 | 0x223D1     |      140241 |
|     286 | 0x01A5      |         421 |
|     287 | 0x058D      |        1421 |
|     288 | 0x12907     |       76039 |
|     289 | 0x22403     |      140291 |
|     290 | 0x01CD      |         461 |
|     291 | 0x018D      |         397 |
|     292 | 0x00A1      |         161 |
|     293 | 0x05B1      |        1457 |
|     294 | 0x017C      |         380 |
|     295 | 0x05C2      |        1474 |
|     296 | 0x0053      |          83 |
|     297 | 0x00A8      |         168 |
|     298 | 0x12248     |       74312 |
|     299 | 0x21BBB     |      138171 |
|     300 | 0x0104      |         260 |
|     301 | 0x0D9B      |        3483 |
|     302 | 0x0080      |         128 |
|     303 | 0x05C1      |        1473 |
|     304 | 0x00B3      |         179 |
|     305 | 0x00AF      |         175 |
|     306 | 0x009D      |         157 |
|     307 | 0x054E      |        1358 |
|     308 | 0x1E86      |        7814 |
|     309 | 0x1E87      |        7815 |
|     310 | 0x0024      |          36 |
|     311 | 0x5E9FC     |      387580 |
|     312 | 0x4E24      |       20004 |
|     313 | 0xFFFF63C0  |  4294927296 |
|     314 | 0x07FD      |        2045 |
|     315 | 0x5EE83     |      388739 |
|     316 | 0x4B34      |       19252 |
|     317 | 0x082A      |        2090 |
|     318 | 0x5EED5     |      388821 |
|     319 | 0x5066      |       20582 |
|     320 | 0x1E88      |        7816 |
|     321 | 0x1E89      |        7817 |
|     322 | 0x5C461     |      377953 |
|     323 | 0x41D0      |       16848 |
|     324 | 0x0F4E      |        3918 |
|     325 | 0x1E8A      |        7818 |
|     326 | 0x00FA      |         250 |
|     327 | 0x1E8B      |        7819 |
|     328 | 0x1E8C      |        7820 |
|     329 | 0x1E8D      |        7821 |
|     330 | 0x00D2      |         210 |
|     331 | 0x1E8E      |        7822 |
|     332 | 0x3A9C      |       15004 |
|     333 | 0x1E8F      |        7823 |
|     334 | 0x1E90      |        7824 |
|     335 | 0x1E91      |        7825 |
|     336 | 0x1E94      |        7828 |
|     337 | 0x1E95      |        7829 |
|     338 | 0x00F3      |         243 |
|     339 | 0x0012      |          18 |
|     340 | 0x01B8      |         440 |
|     341 | 0x2F52      |       12114 |
|     342 | 0x2310E     |      143630 |
|     343 | 0x09BA      |        2490 |
|     344 | 0x0C00      |        3072 |
|     345 | 0x201A      |        8218 |
|     346 | 0x20B4F     |      133967 |
|     347 | 0x07CE      |        1998 |
|     348 | 0x2BBA      |       11194 |
|     349 | 0x218BD     |      137405 |
|     350 | 0x0800      |        2048 |
|     351 | 0x2A6E      |       10862 |
|     352 | 0x227E7     |      141287 |
|     353 | 0x09C2      |        2498 |
|     354 | 0x0CF7      |        3319 |
|     355 | 0x346E      |       13422 |
|     356 | 0x2063C     |      132668 |
|     357 | 0x0877      |        2167 |
|     358 | 0x035F      |         863 |
|     359 | 0x0075      |         117 |
|     360 | 0x1E96      |        7830 |
|     361 | 0x1E97      |        7831 |
|     362 | 0x1E98      |        7832 |
|     363 | 0x5C068     |      376936 |
|     364 | 0x45FA      |       17914 |
|     365 | 0x0027      |          39 |
|     366 | 0x1E99      |        7833 |
|     367 | 0x1E9A      |        7834 |
|     368 | 0x00F9      |         249 |
|     369 | 0x1E9B      |        7835 |
|     370 | 0x1E9C      |        7836 |
|     371 | 0x1E9D      |        7837 |
|     372 | 0x5C70C     |      378636 |
|     373 | 0x5460      |       21600 |
|     374 | 0x0463      |        1123 |
|     375 | 0x1E9E      |        7838 |
|     376 | 0x1E9F      |        7839 |
|     377 | 0x1EA0      |        7840 |
|     378 | 0x1EA1      |        7841 |
|     379 | 0x1EA2      |        7842 |
|     380 | 0x0057      |          87 |
|     381 | 0x000E      |          14 |
|     382 | 0xFFFD0571  |  4294772081 |
|     383 | 0x048F      |        1167 |
|     384 | 0xFFFFD8F2  |  4294957298 |
|     385 | 0x1EA3      |        7843 |
|     386 | 0x1EA4      |        7844 |
|     387 | 0x1EA5      |        7845 |
|     388 | 0x1EA6      |        7846 |
|     389 | 0x1EA7      |        7847 |
|     390 | 0x1EAB      |        7851 |
|     391 | 0x1EA9      |        7849 |
|     392 | 0x05A7      |        1447 |
|     393 | 0x1EAA      |        7850 |
|     394 | 0x1EAC      |        7852 |
|     395 | 0x1EAD      |        7853 |
|     396 | 0x1EAE      |        7854 |
|     397 | 0x1EAF      |        7855 |
|     398 | 0x005D      |          93 |
|     399 | 0xFFFA834A  |  4294607690 |
|     400 | 0xFFFF6757  |  4294928215 |
|     401 | 0xFFFFA628  |  4294944296 |
|     402 | 0x00D3      |         211 |
|     403 | 0xFFFA8C82  |  4294610050 |
|     404 | 0xFFFF63A6  |  4294927270 |
|     405 | 0x0DCB      |        3531 |
|     406 | 0x00AA      |         170 |
|     407 | 0x00A0      |         160 |
|     408 | 0x1EB0      |        7856 |
|     409 | 0xFFFA766E  |  4294604398 |
|     410 | 0xFFFF656C  |  4294927724 |
|     411 | 0x0801      |        2049 |
|     412 | 0x052B      |        1323 |
|     413 | 0x1EB1      |        7857 |
|     414 | 0x1EB2      |        7858 |
|     415 | 0x00F5      |         245 |
|     416 | 0x00AE      |         174 |
|     417 | 0x1EB3      |        7859 |
|     418 | 0x1EB4      |        7860 |
|     419 | 0x1EB5      |        7861 |
|     420 | 0x1EB6      |        7862 |
|     421 | 0x1EB7      |        7863 |
|     422 | 0x1EB8      |        7864 |
|     423 | 0x1EB9      |        7865 |
|     424 | 0x1EBA      |        7866 |
|     425 | 0x1EBB      |        7867 |
|     426 | 0x0010      |          16 |
|     427 | 0xFFF8F5DF  |  4294505951 |
|     428 | 0xFFFA5888  |  4294596744 |
|     429 | 0x5469      |       21609 |
|     430 | 0x095C      |        2396 |
|     431 | 0x1EBC      |        7868 |
|     432 | 0x1EBD      |        7869 |
|     433 | 0x5C00B     |      376843 |
|     434 | 0x4A7B      |       19067 |
|     435 | 0x02EE      |         750 |
|     436 | 0x1EBE      |        7870 |
|     437 | 0x1EBF      |        7871 |
|     438 | 0x1EC0      |        7872 |
|     439 | 0x1EC1      |        7873 |
|     440 | 0x1EC2      |        7874 |
|     441 | 0x1EC3      |        7875 |
|     442 | 0x1EC4      |        7876 |
|     443 | 0x1EC5      |        7877 |
|     444 | 0x1EC6      |        7878 |
|     445 | 0x1EC7      |        7879 |
|     446 | 0x1EC8      |        7880 |
|     447 | 0x1EC9      |        7881 |
|     448 | 0x1ECA      |        7882 |
|     449 | 0x0064      |         100 |
|     450 | 0x00A9      |         169 |
|     451 | 0x1ECB      |        7883 |
|     452 | 0x00F0      |         240 |
|     453 | 0x1ECC      |        7884 |
|     454 | 0x1ECD      |        7885 |
|     455 | 0x1ECE      |        7886 |
|     456 | 0x1ED5      |        7893 |
|     457 | 0x1ED6      |        7894 |
|     458 | 0x1ED7      |        7895 |
|     459 | 0x1ED8      |        7896 |
|     460 | 0x3F0C      |       16140 |
|     461 | 0x1ED9      |        7897 |
|     462 | 0x1EDA      |        7898 |
|     463 | 0x000C      |          12 |
|     464 | 0x1EDB      |        7899 |
|     465 | 0x00D7      |         215 |

## String References

- **7620**: The Republic is always recruiting... [Sign me up!/I have more pixies to catch.]
- **7636**: Did you come to sign up? [Where's the dotted line?/I was just looking for the latrine...]
- **7779**: Will you hear her out? [Certainly. Go on./Now is not the time.]
- **7813**: What will you tell Erlene? [I don't know./Tell the truth.]
- **7845**: "Whenever the professor disappears with a specific aim in mind, he leaves behind clues in his wake, without fail. Search for these, and you will find finding him not so daunting a task."
- **7856**: "Only when nourished and bathed in deep crimson depths of the most magicked bloods, shall the true tome of stratagems be borne"
- **7857**: "And that which riseth forth will come to be feared by all, Bloodseed Grimoire."
- **7858**: "Yet if left besmirched by the coursing magics of this profane world, all will be in vain. Such blood when commanded to script will serve naught but to soak the page, running into incomprehensibility."
- **7859**: "Recourse for those who would seek absolution is limited to a single path. The purging must take place where banishing stones form, and fountainheads spew forth."
- **7917**: @@

## Events

### Event 65535

#### Metadata

| Field        | Value   |
|--------------|---------|
| Entrypoint   | 0x0000  |
| Data Size    | 1 bytes |
| Instructions | 1       |

```
      00 01 02 03 04 05 06 07  08 09 0A 0B 0C 0D 0E 0F
      -- -- -- -- -- -- -- --  -- -- -- -- -- -- -- --
0000: 00                                                .               
```

#### Opcodes

```
  0: 0x0000 [0x00] END_REQSTACK()
```

### Event 7

#### Metadata

| Field        | Value     |
|--------------|-----------|
| Entrypoint   | 0x0001    |
| Data Size    | 888 bytes |
| Instructions | 128       |

```
      00 01 02 03 04 05 06 07  08 09 0A 0B 0C 0D 0E 0F
      -- -- -- -- -- -- -- --  -- -- -- -- -- -- -- --
0000:    42 02 09 10 00 80 00  66 00 4A CB F2 0A 01 F0   B......f.J.....
0010: FF FF 7F 4A F0 FF FF 7F  CB F2 0A 01 2B CB F2 0A  ...J........+...
0020: 01 01 80 23 24 02 80 00  80 03 80 25 02 00 10 03  ...#$......%....
0030: 80 00 54 00 1A A6 55 1A  25 03 45 04 80 F0 FF FF  ..T...U.%.E.....
0040: 7F F0 FF FF 7F 69 6E 30  34 03 80 1A 85 55 01 64  .....in04....U.d
0050: 01 01 66 00 02 00 10 00  80 00 66 00 03 01 10 00  ..f.......f.....
0060: 80 21 00 01 66 00 1A A6  55 1A 25 03 45 04 80 F0  .!..f...U.%.E...
0070: FF FF 7F F0 FF FF 7F 69  6E 30 30 03 80 1A 85 55  .......in00....U
0080: 2B CB F2 0A 01 05 80 23  29 10 F0 FF FF 7F 03 1C  +......#).......
0090: 06 80 29 10 F0 FF FF 7F  04 52 04 80 F0 FF FF 7F  ..)......R......
00A0: F0 FF FF 7F 69 6E 30 30  45 04 80 F0 FF FF 7F F0  ....in00E.......
00B0: FF FF 7F 69 6E 30 31 03  80 2B CB F2 0A 01 07 80  ...in01..+......
00C0: 23 52 04 80 F0 FF FF 7F  F0 FF FF 7F 69 6E 30 31  #R..........in01
00D0: 45 04 80 F0 FF FF 7F F0  FF FF 7F 69 6E 30 32 03  E..........in02.
00E0: 80 24 02 80 00 80 03 80  25 02 00 10 00 80 00 44  .$......%......D
00F0: 01 6E F0 FF FF 7F 08 80  99 F0 FF FF 7F 99 F0 FF  .n..............
0100: FF 7F 1C 09 80 52 04 80  F0 FF FF 7F F0 FF FF 7F  .....R..........
0110: 69 6E 30 32 45 04 80 F0  FF FF 7F F0 FF FF 7F 69  in02E..........i
0120: 6E 30 33 03 80 6E CB F2  0A 01 0A 80 99 CB F2 0A  n03..n..........
0130: 01 2B CB F2 0A 01 0B 80  23 03 01 10 00 80 01 D2  .+......#.......
0140: 02 01 44 01 52 04 80 F0  FF FF 7F F0 FF FF 7F 69  ..D.R..........i
0150: 6E 30 32 45 04 80 F0 FF  FF 7F F0 FF FF 7F 69 6E  n02E..........in
0160: 30 34 03 80 6E F0 FF FF  7F 0C 80 99 F0 FF FF 7F  04..n...........
0170: 99 F0 FF FF 7F 1C 09 80  6E CB F2 0A 01 0C 80 99  ........n.......
0180: CB F2 0A 01 2B CB F2 0A  01 0D 80 23 2B CB F2 0A  ....+......#+...
0190: 01 0E 80 23 52 04 80 F0  FF FF 7F F0 FF FF 7F 69  ...#R..........i
01A0: 6E 30 34 45 04 80 F0 FF  FF 7F F0 FF FF 7F 69 6E  n04E..........in
01B0: 30 35 03 80 2B CB F2 0A  01 0F 80 23 7B CB F2 0A  05..+......#{...
01C0: 01 27 10 CB F2 0A 01 05  1C 10 80 1A A6 55 2A 10  .'...........U*.
01D0: CB F2 0A 01 1C 09 80 48  11 80 23 27 10 CB F2 0A  .......H..#'....
01E0: 01 06 52 04 80 F0 FF FF  7F F0 FF FF 7F 69 6E 30  ..R..........in0
01F0: 35 45 04 80 F0 FF FF 7F  F0 FF FF 7F 69 6E 30 36  5E..........in06
0200: 03 80 1A 85 55 2A 10 CB  F2 0A 01 2B CB F2 0A 01  ....U*.....+....
0210: 12 80 23 2B CB F2 0A 01  13 80 23 52 04 80 F0 FF  ..#+......#R....
0220: FF 7F F0 FF FF 7F 69 6E  30 36 45 04 80 F0 FF FF  ......in06E.....
0230: 7F F0 FF FF 7F 69 6E 30  37 03 80 2B CB F2 0A 01  .....in07..+....
0240: 14 80 6E CB F2 0A 01 03  80 99 CB F2 0A 01 99 CB  ..n.............
0250: F2 0A 01 1C 15 80 66 16  80 CB F2 0A 01 CB F2 0A  ......f.........
0260: 01 74 77 62 30 2B CB F2  0A 01 17 80 23 2B CB F2  .twb0+......#+..
0270: 0A 01 18 80 23 52 04 80  F0 FF FF 7F F0 FF FF 7F  ....#R..........
0280: 69 6E 30 37 45 04 80 F0  FF FF 7F F0 FF FF 7F 69  in07E..........i
0290: 6E 30 38 03 80 66 16 80  CB F2 0A 01 CB F2 0A 01  n08..f..........
02A0: 74 77 62 31 2B CB F2 0A  01 19 80 23 53 CB F2 0A  twb1+......#S...
02B0: 01 CB F2 0A 01 74 77 62  31 6E CB F2 0A 01 1A 80  .....twb1n......
02C0: 99 CB F2 0A 01 99 CB F2  0A 01 1C 1B 80 03 01 10  ................
02D0: 03 80 1A A6 55 1C 1B 80  52 04 80 F0 FF FF 7F F0  ....U...R.......
02E0: FF FF 7F 69 6E 30 33 52  04 80 F0 FF FF 7F F0 FF  ...in03R........
02F0: FF 7F 69 6E 30 38 45 04  80 F0 FF FF 7F F0 FF FF  ..in08E.........
0300: 7F 30 62 6C 66 03 80 5C  00 03 80 5C 01 03 80 9A  .0blf..\...\....
0310: 46 00 45 1C 80 F0 FF FF  7F F0 FF FF 7F 66 64 69  F.E..........fdi
0320: 32 03 80 21 00 46 01 38  1D 80 4E 00 CB F2 0A 01  2..!.F.8..N.....
0330: 92 01 CB F2 0A 01 94 01  F0 FF FF 7F 94 01 CB F2  ................
0340: 0A 01 BA F0 FF FF 7F 1E  80 1F 80 20 80 21 80 80  ........... .!..
0350: F0 FF FF 7F 80 CB F2 0A  01 4A CB F2 0A 01 F0 FF  .........J......
0360: FF 7F 79 00 F0 FF FF 7F  CB F2 0A 01 5C 00 22 80  ..y.........\.".
0370: 5C 01 22 80 9A 1C 23 80  1B                       \."...#..       
```

#### Opcodes

```
  0: 0x0001 [0x42] SET_CLI_EVENT_CANCEL_DATA()
  1: 0x0002 [0x02] IF !(Work_Zone[9] == 1*) GOTO 0x0066
  2: 0x000A [0x4A] Turbulent Storm (ID: 17494731/0x010AF2CB) looks at LocalPlayer
  3: 0x0013 [0x4A] LocalPlayer looks at Turbulent Storm (ID: 17494731/0x010AF2CB)
  4: 0x001C [0x2B] Turbulent Storm (ID: 17494731/0x010AF2CB) [7622*]:
    → "So, you meet your pixie quota yet?"
  5: 0x0023 [0x23] WAIT_FOR_DIALOG_INTERACTION
  6: 0x0024 [0x24] CREATE_DIALOG(message_id=7620*, default_option=1*, option_flags=0*)
    → "The Republic is always recruiting... [Sign me up!/I have more pixies to catch.]"
  7: 0x002B [0x25] WAIT_DIALOG_SELECT()
  8: 0x002C [0x02] IF !(Work_Zone[0] == 0*) GOTO 0x0054
  9: 0x0034 [0x1A] CALL_SUBROUTINE(address=0x55A6)
 10: 0x0037 [0x1A] CALL_SUBROUTINE(address=0x0325)
 11: 0x003A [0x45] LOAD_SCHEDULED_TASK: Load scheduler "in04" with entities [LocalPlayer, LocalPlayer], work=[377*, 0*]
 12: 0x004B [0x1A] CALL_SUBROUTINE(address=0x5585)
 13: 0x004E [0x01] GOTO 0x0164

SUBROUTINE_0066:
 14: 0x0066 [0x1A] CALL_SUBROUTINE(address=0x55A6)
 15: 0x0069 [0x1A] CALL_SUBROUTINE(address=0x0325)
 16: 0x006C [0x45] LOAD_SCHEDULED_TASK: Load scheduler "in00" with entities [LocalPlayer, LocalPlayer], work=[377*, 0*]
 17: 0x007D [0x1A] CALL_SUBROUTINE(address=0x5585)
 18: 0x0080 [0x2B] Turbulent Storm (ID: 17494731/0x010AF2CB) [7618*]:
    → "Hold it right there. You don't look like one of ours."
 19: 0x0087 [0x23] WAIT_FOR_DIALOG_INTERACTION
 20: 0x0088 [0x29] REQ_SET_WAIT(priority=0x10, entity_id=LocalPlayer, tag_num=0x03)
 21: 0x008F [0x1C] WAIT(80* ticks)
 22: 0x0092 [0x29] REQ_SET_WAIT(priority=0x10, entity_id=LocalPlayer, tag_num=0x04)
 23: 0x0099 [0x52] END_LOAD_SCHEDULER: End scheduler "in00" with entities [LocalPlayer, LocalPlayer], work=377*
 24: 0x00A8 [0x45] LOAD_SCHEDULED_TASK: Load scheduler "in01" with entities [LocalPlayer, LocalPlayer], work=[377*, 0*]
 25: 0x00B9 [0x2B] Turbulent Storm (ID: 17494731/0x010AF2CB) [7619*]:
    → "An adventurer? Isn't that rich! Off chasing pixies while we're here dying in the trenches. Why not make yourself useful for a change?"
 26: 0x00C0 [0x23] WAIT_FOR_DIALOG_INTERACTION
 27: 0x00C1 [0x52] END_LOAD_SCHEDULER: End scheduler "in01" with entities [LocalPlayer, LocalPlayer], work=377*
 28: 0x00D0 [0x45] LOAD_SCHEDULED_TASK: Load scheduler "in02" with entities [LocalPlayer, LocalPlayer], work=[377*, 0*]
 29: 0x00E1 [0x24] CREATE_DIALOG(message_id=7620*, default_option=1*, option_flags=0*)
    → "The Republic is always recruiting... [Sign me up!/I have more pixies to catch.]"
 30: 0x00E8 [0x25] WAIT_DIALOG_SELECT()
 31: 0x00E9 [0x02] IF !(Work_Zone[0] == 1*) GOTO 0x0144
 32: 0x00F1 [0x6E] LocalPlayer uses emote 6*
 33: 0x00F8 [0x99] Wait for LocalPlayer animation to complete
 34: 0x00FD [0x99] Wait for LocalPlayer animation to complete
 35: 0x0102 [0x1C] WAIT(60* ticks)
 36: 0x0105 [0x52] END_LOAD_SCHEDULER: End scheduler "in02" with entities [LocalPlayer, LocalPlayer], work=377*
 37: 0x0114 [0x45] LOAD_SCHEDULED_TASK: Load scheduler "in03" with entities [LocalPlayer, LocalPlayer], work=[377*, 0*]
 38: 0x0125 [0x6E] Turbulent Storm (ID: 17494731/0x010AF2CB) uses emote 22*
 39: 0x012C [0x99] Wait for Turbulent Storm (ID: 17494731/0x010AF2CB) animation to complete
 40: 0x0131 [0x2B] Turbulent Storm (ID: 17494731/0x010AF2CB) [7621*]:
    → "Hmph, then get out of my face before I decide I need to hear somebody scream."
 41: 0x0138 [0x23] WAIT_FOR_DIALOG_INTERACTION
 42: 0x0139 [0x03] Work_Zone[1] = 1*
 43: 0x013E [0x01] GOTO 0x02D2

SUBROUTINE_0144:
 44: 0x0144 [0x52] END_LOAD_SCHEDULER: End scheduler "in02" with entities [LocalPlayer, LocalPlayer], work=377*
 45: 0x0153 [0x45] LOAD_SCHEDULED_TASK: Load scheduler "in04" with entities [LocalPlayer, LocalPlayer], work=[377*, 0*]

SUBROUTINE_0164:
 46: 0x0164 [0x6E] LocalPlayer uses emote 7*
 47: 0x016B [0x99] Wait for LocalPlayer animation to complete
 48: 0x0170 [0x99] Wait for LocalPlayer animation to complete
 49: 0x0175 [0x1C] WAIT(60* ticks)
 50: 0x0178 [0x6E] Turbulent Storm (ID: 17494731/0x010AF2CB) uses emote 7*
 51: 0x017F [0x99] Wait for Turbulent Storm (ID: 17494731/0x010AF2CB) animation to complete
 52: 0x0184 [0x2B] Turbulent Storm (ID: 17494731/0x010AF2CB) [7623*]:
    → "What do you know? There may be something worth salvaging under that fancy armor of yours."
 53: 0x018B [0x23] WAIT_FOR_DIALOG_INTERACTION
 54: 0x018C [0x2B] Turbulent Storm (ID: 17494731/0x010AF2CB) [7624*]:
    → "Alright. The Republican Legion's Fourth Division is currently undergoing some restructuring, and they're accepting applications for new recruits."
 55: 0x0193 [0x23] WAIT_FOR_DIALOG_INTERACTION
 56: 0x0194 [0x52] END_LOAD_SCHEDULER: End scheduler "in04" with entities [LocalPlayer, LocalPlayer], work=377*
 57: 0x01A3 [0x45] LOAD_SCHEDULED_TASK: Load scheduler "in05" with entities [LocalPlayer, LocalPlayer], work=[377*, 0*]
 58: 0x01B4 [0x2B] Turbulent Storm (ID: 17494731/0x010AF2CB) [7625*]:
    → "Hold on while I write you up a letter of recommendation."
 59: 0x01BB [0x23] WAIT_FOR_DIALOG_INTERACTION
 60: 0x01BC [0x7B] Turbulent Storm (ID: 17494731/0x010AF2CB) stops talking
 61: 0x01C1 [0x27] REQ_SET(priority=0x10, entity_id=Turbulent Storm (ID: 17494731/0x010AF2CB), tag_num=0x05)
 62: 0x01C8 [0x1C] WAIT(45* ticks)
 63: 0x01CB [0x1A] CALL_SUBROUTINE(address=0x55A6)
 64: 0x01CE [0x2A] GET_REQ_LEVEL(level=16, entity_id=Turbulent Storm (ID: 17494731/0x010AF2CB))
 65: 0x01D4 [0x1C] WAIT(60* ticks)
 66: 0x01D7 [0x48] [System] [7917*]:
    → "@@"
 67: 0x01DA [0x23] WAIT_FOR_DIALOG_INTERACTION
 68: 0x01DB [0x27] REQ_SET(priority=0x10, entity_id=Turbulent Storm (ID: 17494731/0x010AF2CB), tag_num=0x06)
 69: 0x01E2 [0x52] END_LOAD_SCHEDULER: End scheduler "in05" with entities [LocalPlayer, LocalPlayer], work=377*
 70: 0x01F1 [0x45] LOAD_SCHEDULED_TASK: Load scheduler "in06" with entities [LocalPlayer, LocalPlayer], work=[377*, 0*]
 71: 0x0202 [0x1A] CALL_SUBROUTINE(address=0x5585)
 72: 0x0205 [0x2A] GET_REQ_LEVEL(level=16, entity_id=Turbulent Storm (ID: 17494731/0x010AF2CB))
 73: 0x020B [0x2B] Turbulent Storm (ID: 17494731/0x010AF2CB) [7626*]:
    → "Here. Take this to Bastok and show it to Centurion Adelbrecht."
 74: 0x0212 [0x23] WAIT_FOR_DIALOG_INTERACTION
 75: 0x0213 [0x2B] Turbulent Storm (ID: 17494731/0x010AF2CB) [7627*]:
    → "You'll probably have to pass a few aptitude tests before they give you your stripes, but the Republic can't afford to toss away meat before putting it in the grinder, so don't worry too much about failing."
 76: 0x021A [0x23] WAIT_FOR_DIALOG_INTERACTION
 77: 0x021B [0x52] END_LOAD_SCHEDULER: End scheduler "in06" with entities [LocalPlayer, LocalPlayer], work=377*
 78: 0x022A [0x45] LOAD_SCHEDULED_TASK: Load scheduler "in07" with entities [LocalPlayer, LocalPlayer], work=[377*, 0*]
 79: 0x023B [0x2B] Turbulent Storm (ID: 17494731/0x010AF2CB) [7628*]:
    → "And that's it."
 80: 0x0242 [0x6E] Turbulent Storm (ID: 17494731/0x010AF2CB) uses emote 0*
 81: 0x0249 [0x99] Wait for Turbulent Storm (ID: 17494731/0x010AF2CB) animation to complete
 82: 0x024E [0x99] Wait for Turbulent Storm (ID: 17494731/0x010AF2CB) animation to complete
 83: 0x0253 [0x1C] WAIT(120* ticks)
 84: 0x0256 [0x66] LOAD_EXT_SCHEDULER_MAIN: Load scheduler "twb0" with entities [Turbulent Storm (ID: 17494731/0x010AF2CB), Turbulent Storm (ID: 17494731/0x010AF2CB)], work=69*
 85: 0x0265 [0x2B] Turbulent Storm (ID: 17494731/0x010AF2CB) [7629*]:
    → "...and by "it," I mean that's all I can help you with. You're still left one hell of a trip."
 86: 0x026C [0x23] WAIT_FOR_DIALOG_INTERACTION
 87: 0x026D [0x2B] Turbulent Storm (ID: 17494731/0x010AF2CB) [7630*]:
    → "The roads to Bastok are crawling with ruthless beastman scouts just itching to add another notch to their axes."
 88: 0x0274 [0x23] WAIT_FOR_DIALOG_INTERACTION
 89: 0x0275 [0x52] END_LOAD_SCHEDULER: End scheduler "in07" with entities [LocalPlayer, LocalPlayer], work=377*
 90: 0x0284 [0x45] LOAD_SCHEDULED_TASK: Load scheduler "in08" with entities [LocalPlayer, LocalPlayer], work=[377*, 0*]
 91: 0x0295 [0x66] LOAD_EXT_SCHEDULER_MAIN: Load scheduler "twb1" with entities [Turbulent Storm (ID: 17494731/0x010AF2CB), Turbulent Storm (ID: 17494731/0x010AF2CB)], work=69*
 92: 0x02A4 [0x2B] Turbulent Storm (ID: 17494731/0x010AF2CB) [7631*]:
    → "If you get spotted, you can always play the brave [man/woman] and fight the scum, but the Republic needs live soldiers, not ones in body bags. Turn tail and run away, live to kill another day--that's my motto."
 93: 0x02AB [0x23] WAIT_FOR_DIALOG_INTERACTION
 94: 0x02AC [0x53] WAIT_SCHEDULER_TASK: Wait for scheduler "twb1" with entities [Turbulent Storm (ID: 17494731/0x010AF2CB), Turbulent Storm (ID: 17494731/0x010AF2CB)]
 95: 0x02B9 [0x6E] Turbulent Storm (ID: 17494731/0x010AF2CB) uses emote 4*
 96: 0x02C0 [0x99] Wait for Turbulent Storm (ID: 17494731/0x010AF2CB) animation to complete
 97: 0x02C5 [0x99] Wait for Turbulent Storm (ID: 17494731/0x010AF2CB) animation to complete
 98: 0x02CA [0x1C] WAIT(30* ticks)
 99: 0x02CD [0x03] Work_Zone[1] = 0*

SUBROUTINE_02D2:
100: 0x02D2 [0x1A] CALL_SUBROUTINE(address=0x55A6)
101: 0x02D5 [0x1C] WAIT(30* ticks)
102: 0x02D8 [0x52] END_LOAD_SCHEDULER: End scheduler "in03" with entities [LocalPlayer, LocalPlayer], work=377*
103: 0x02E7 [0x52] END_LOAD_SCHEDULER: End scheduler "in08" with entities [LocalPlayer, LocalPlayer], work=377*
104: 0x02F6 [0x45] LOAD_SCHEDULED_TASK: Load scheduler "0blf" with entities [LocalPlayer, LocalPlayer], work=[377*, 0*]
105: 0x0307 [0x5C] MUSIC_CONTROL: Set Idle (Day) music to song 0*
106: 0x030B [0x5C] MUSIC_CONTROL: Set Idle (Night) music to song 0*
107: 0x030F [0x9A] WAIT_MUSIC_SERVER()
108: 0x0310 [0x46] CAMERA_CONTROL: Restore default settings
109: 0x0312 [0x45] LOAD_SCHEDULED_TASK: Load scheduler "fdi2" with entities [LocalPlayer, LocalPlayer], work=[200*, 0*]
110: 0x0323 [0x21] END_EVENT
111: 0x0324 [0x00] END_REQSTACK()

SUBROUTINE_0325:
112: 0x0325 [0x46] CAMERA_CONTROL: Disable user control
113: 0x0327 [0x38] SET_CLIENT_EVENT_MODE(mode=19*)
114: 0x032A [0x4E] SET_ENTITY_HIDE_FLAG: Show Turbulent Storm (ID: 17494731/0x010AF2CB)
115: 0x0330 [0x92] Turbulent Storm (ID: 17494731/0x010AF2CB)->Render.Flags3 ^= 0x01
116: 0x0336 [0x94] LocalPlayer->Render.Flags3 ^= 0x01
117: 0x033C [0x94] Turbulent Storm (ID: 17494731/0x010AF2CB)->Render.Flags3 ^= 0x01
118: 0x0342 [0xBA] SET_ENTITY_POSITION(entity_id=LocalPlayer, pos_x=421.621*, pos_z=-49.164*, pos_y=-48.000*, direction=293.5°*)
119: 0x034F [0x80] LOAD_WAIT(entity=LocalPlayer)
120: 0x0354 [0x80] LOAD_WAIT(entity=Turbulent Storm (ID: 17494731/0x010AF2CB))
121: 0x0359 [0x4A] Turbulent Storm (ID: 17494731/0x010AF2CB) looks at LocalPlayer
122: 0x0362 [0x79] LocalPlayer looks at Turbulent Storm (ID: 17494731/0x010AF2CB) (Basic look)
123: 0x036C [0x5C] MUSIC_CONTROL: Set Idle (Day) music to song 247*
124: 0x0370 [0x5C] MUSIC_CONTROL: Set Idle (Night) music to song 247*
125: 0x0374 [0x9A] WAIT_MUSIC_SERVER()
126: 0x0375 [0x1C] WAIT(15* ticks)
127: 0x0378 [0x1B] RETURN
```

#### Data or dead code:

```
# Dead code (unreachable instructions):
     0x0051 [0x01] GOTO 0x0066
     0x0063 [0x01] GOTO 0x0066
# Dead code (unreachable instructions):
     0x0141 [0x01] GOTO 0x0144
```

### Event 10

#### Metadata

| Field        | Value      |
|--------------|------------|
| Entrypoint   | 0x0379     |
| Data Size    | 2284 bytes |
| Instructions | 309        |

```
      00 01 02 03 04 05 06 07  08 09 0A 0B 0C 0D 0E 0F
      -- -- -- -- -- -- -- --  -- -- -- -- -- -- -- --
0370:                             42 03 02 00 02 10 03           B......
0380: 00 00 09 10 02 00 00 03  80 00 6A 04 4A F0 FF FF  ..........j.J...
0390: 7F CC F2 0A 01 4A CC F2  0A 01 F0 FF FF 7F 6F 76  .....J........ov
03A0: CC F2 0A 01 66 1D 80 CC  F2 0A 01 CC F2 0A 01 74  ....f..........t
03B0: 6C 6B 30 2B CC F2 0A 01  24 80 23 66 1D 80 CC F2  lk0+....$.#f....
03C0: 0A 01 CC F2 0A 01 74 6C  6B 31 24 25 80 03 80 03  ......tlk1$%....
03D0: 80 25 02 00 10 03 80 00  30 04 6E F0 FF FF 7F 0C  .%......0.n.....
03E0: 80 99 F0 FF FF 7F 99 F0  FF FF 7F 1C 09 80 02 02  ................
03F0: 00 00 80 01 2D 04 6E CC  F2 0A 01 26 80 99 CC F2  ....-.n....&....
0400: 0A 01 99 CC F2 0A 01 1C  10 80 2B CC F2 0A 01 27  ..........+....'
0410: 80 23 6E CC F2 0A 01 28  80 99 CC F2 0A 01 2B CC  .#n....(......+.
0420: F2 0A 01 29 80 23 03 01  10 2A 80 21 00 01 6A 04  ...).#...*.!..j.
0430: 02 00 10 00 80 00 6A 04  6E F0 FF FF 7F 08 80 99  ......j.n.......
0440: F0 FF FF 7F 99 F0 FF FF  7F 1C 09 80 6E CC F2 0A  ............n...
0450: 01 28 80 99 CC F2 0A 01  2B CC F2 0A 01 2B 80 23  .(......+....+.#
0460: 03 01 10 2A 80 21 00 01  6A 04 1A A6 55 46 01 38  ...*.!..j...UF.8
0470: 1D 80 4E 00 CC F2 0A 01  2F 00 CD F2 0A 01 27 10  ..N...../.....'.
0480: D0 F2 0A 01 02 92 01 CC  F2 0A 01 92 01 CD F2 0A  ................
0490: 01 92 01 D0 F2 0A 01 1A  74 1D 94 01 F0 FF FF 7F  ........t.......
04A0: 94 01 CC F2 0A 01 94 01  CD F2 0A 01 94 01 D0 F2  ................
04B0: 0A 01 BA F0 FF FF 7F 2C  80 2D 80 2E 80 2F 80 BA  .......,.-.../..
04C0: CD F2 0A 01 30 80 31 80  2E 80 32 80 80 F0 FF FF  ....0.1...2.....
04D0: 7F 80 CC F2 0A 01 80 CD  F2 0A 01 80 D0 F2 0A 01  ................
04E0: 79 00 F0 FF FF 7F CC F2  0A 01 4A CC F2 0A 01 F0  y.........J.....
04F0: FF FF 7F 5C 00 33 80 5C  01 33 80 9A 1C 23 80 45  ...\.3.\.3...#.E
0500: 04 80 F0 FF FF 7F F0 FF  FF 7F 73 63 30 30 03 80  ..........sc00..
0510: 1A 85 55 6E CC F2 0A 01  26 80 99 CC F2 0A 01 1C  ..Un....&.......
0520: 10 80 3A CC F2 0A 01 01  00 07 01 00 34 80 4B D0  ..:.........4.K.
0530: F2 0A 01 01 00 2B CC F2  0A 01 35 80 23 52 04 80  .....+....5.#R..
0540: F0 FF FF 7F F0 FF FF 7F  73 63 30 30 45 04 80 F0  ........sc00E...
0550: FF FF 7F F0 FF FF 7F 73  63 30 31 03 80 2B CC F2  .......sc01..+..
0560: 0A 01 36 80 23 66 1D 80  CC F2 0A 01 CC F2 0A 01  ..6.#f..........
0570: 74 6C 6B 30 2B CC F2 0A  01 37 80 23 52 04 80 F0  tlk0+....7.#R...
0580: FF FF 7F F0 FF FF 7F 73  63 30 31 45 04 80 F0 FF  .......sc01E....
0590: FF 7F F0 FF FF 7F 73 63  30 32 03 80 29 10 F0 FF  ......sc02..)...
05A0: FF 7F 03 1C 06 80 29 10  F0 FF FF 7F 04 66 1D 80  ......)......f..
05B0: CC F2 0A 01 CC F2 0A 01  74 6C 6B 31 7B CC F2 0A  ........tlk1{...
05C0: 01 2B CC F2 0A 01 38 80  23 52 04 80 F0 FF FF 7F  .+....8.#R......
05D0: F0 FF FF 7F 73 63 30 32  45 04 80 F0 FF FF 7F F0  ....sc02E.......
05E0: FF FF 7F 73 63 30 33 03  80 5B 39 80 CC F2 0A 01  ...sc03..[9.....
05F0: CC F2 0A 01 73 63 6B 30  2B CC F2 0A 01 3A 80 23  ....sck0+....:.#
0600: 2B CC F2 0A 01 3B 80 23  52 04 80 F0 FF FF 7F F0  +....;.#R.......
0610: FF FF 7F 73 63 30 33 45  04 80 F0 FF FF 7F F0 FF  ...sc03E........
0620: FF 7F 73 63 30 34 03 80  5B 39 80 CC F2 0A 01 CC  ..sc04..[9......
0630: F2 0A 01 73 63 6B 31 03  02 10 3C 80 27 10 C8 F2  ...sck1...<.'...
0640: 0A 01 0D 2B CC F2 0A 01  3D 80 23 2A 10 C8 F2 0A  ...+....=.#*....
0650: 01 52 04 80 F0 FF FF 7F  F0 FF FF 7F 73 63 30 34  .R..........sc04
0660: 45 04 80 F0 FF FF 7F F0  FF FF 7F 73 63 30 35 03  E..........sc05.
0670: 80 27 10 C9 F2 0A 01 0D  2B CC F2 0A 01 3E 80 23  .'......+....>.#
0680: 2A 10 C9 F2 0A 01 08 01  00 3F 80 4B D0 F2 0A 01  *........?.K....
0690: 01 00 52 04 80 F0 FF FF  7F F0 FF FF 7F 73 63 30  ..R..........sc0
06A0: 36 45 04 80 F0 FF FF 7F  F0 FF FF 7F 73 63 30 37  6E..........sc07
06B0: 03 80 1C 1B 80 2B CC F2  0A 01 40 80 23 52 04 80  .....+....@.#R..
06C0: F0 FF FF 7F F0 FF FF 7F  73 63 30 37 45 04 80 F0  ........sc07E...
06D0: FF FF 7F F0 FF FF 7F 73  63 30 38 03 80 27 10 C9  .......sc08..'..
06E0: F2 0A 01 10 2B CC F2 0A  01 41 80 23 2A 10 C9 F2  ....+....A.#*...
06F0: 0A 01 5B 39 80 CC F2 0A  01 CC F2 0A 01 73 63 6B  ..[9.........sck
0700: 30 1C 10 80 2B CC F2 0A  01 42 80 23 52 04 80 F0  0...+....B.#R...
0710: FF FF 7F F0 FF FF 7F 73  63 30 38 45 04 80 F0 FF  .......sc08E....
0720: FF 7F F0 FF FF 7F 73 63  30 39 03 80 2B CC F2 0A  ......sc09..+...
0730: 01 43 80 23 4E 00 CD F2  0A 01 27 10 CD F2 0A 01  .C.#N.....'.....
0740: 0A 1C 10 80 52 04 80 F0  FF FF 7F F0 FF FF 7F 73  ....R..........s
0750: 63 30 39 45 04 80 F0 FF  FF 7F F0 FF FF 7F 73 63  c09E..........sc
0760: 31 30 03 80 2B C8 F2 0A  01 44 80 4A F0 FF FF 7F  10..+....D.J....
0770: CD F2 0A 01 1C 10 80 5B  39 80 CC F2 0A 01 CC F2  .......[9.......
0780: 0A 01 73 63 6B 31 79 00  CC F2 0A 01 CD F2 0A 01  ..sck1y.........
0790: 2B CC F2 0A 01 45 80 23  52 04 80 F0 FF FF 7F F0  +....E.#R.......
07A0: FF FF 7F 73 63 31 30 45  04 80 F0 FF FF 7F F0 FF  ...sc10E........
07B0: FF 7F 73 63 31 31 03 80  79 00 CD F2 0A 01 CC F2  ..sc11..y.......
07C0: 0A 01 2B CD F2 0A 01 46  80 23 2A 10 CD F2 0A 01  ..+....F.#*.....
07D0: 52 04 80 F0 FF FF 7F F0  FF FF 7F 73 63 31 31 45  R..........sc11E
07E0: 04 80 F0 FF FF 7F F0 FF  FF 7F 73 63 31 32 03 80  ..........sc12..
07F0: 79 00 CD F2 0A 01 F0 FF  FF 7F 6E CD F2 0A 01 00  y.........n.....
0800: 80 99 CD F2 0A 01 99 CD  F2 0A 01 2B CD F2 0A 01  ...........+....
0810: 47 80 23 52 04 80 F0 FF  FF 7F F0 FF FF 7F 73 63  G.#R..........sc
0820: 31 32 45 04 80 F0 FF FF  7F F0 FF FF 7F 73 63 31  12E..........sc1
0830: 33 03 80 66 48 80 CD F2  0A 01 CD F2 0A 01 74 77  3..fH.........tw
0840: 61 30 2B CD F2 0A 01 49  80 23 52 04 80 F0 FF FF  a0+....I.#R.....
0850: 7F F0 FF FF 7F 73 63 31  33 45 04 80 F0 FF FF 7F  .....sc13E......
0860: F0 FF FF 7F 73 63 31 34  03 80 66 48 80 CD F2 0A  ....sc14..fH....
0870: 01 CD F2 0A 01 74 77 61  31 1C 10 80 2B CD F2 0A  .....twa1...+...
0880: 01 4A 80 23 52 04 80 F0  FF FF 7F F0 FF FF 7F 73  .J.#R..........s
0890: 63 31 34 45 04 80 F0 FF  FF 7F F0 FF FF 7F 73 63  c14E..........sc
08A0: 31 35 03 80 6E CD F2 0A  01 4B 80 99 CD F2 0A 01  15..n....K......
08B0: 99 CD F2 0A 01 2B CD F2  0A 01 4C 80 23 27 10 CC  .....+....L.#'..
08C0: F2 0A 01 10 52 04 80 F0  FF FF 7F F0 FF FF 7F 73  ....R..........s
08D0: 63 31 35 45 04 80 F0 FF  FF 7F F0 FF FF 7F 73 63  c15E..........sc
08E0: 31 36 03 80 1C 23 80 79  00 F0 FF FF 7F CC F2 0A  16...#.y........
08F0: 01 2B CC F2 0A 01 4D 80  23 79 00 CD F2 0A 01 CC  .+....M.#y......
0900: F2 0A 01 2A 10 CC F2 0A  01 6E CC F2 0A 01 28 80  ...*.....n....(.
0910: 99 CC F2 0A 01 2B CC F2  0A 01 4E 80 23 52 04 80  .....+....N.#R..
0920: F0 FF FF 7F F0 FF FF 7F  73 63 31 36 45 04 80 F0  ........sc16E...
0930: FF FF 7F F0 FF FF 7F 73  63 31 37 03 80 7B CD F2  .......sc17..{..
0940: 0A 01 6E CD F2 0A 01 4F  80 99 CD F2 0A 01 99 CD  ..n....O........
0950: F2 0A 01 1C 33 80 27 10  CD F2 0A 01 0B 1C 10 80  ....3.'.........
0960: 52 04 80 F0 FF FF 7F F0  FF FF 7F 73 63 31 37 45  R..........sc17E
0970: 04 80 F0 FF FF 7F F0 FF  FF 7F 73 63 31 38 03 80  ..........sc18..
0980: 1C 15 80 4A CC F2 0A 01  F0 FF FF 7F 52 04 80 F0  ...J........R...
0990: FF FF 7F F0 FF FF 7F 73  63 31 38 45 04 80 F0 FF  .......sc18E....
09A0: FF 7F F0 FF FF 7F 73 63  31 39 03 80 6F 76 CC F2  ......sc19..ov..
09B0: 0A 01 2B CC F2 0A 01 50  80 23 52 04 80 F0 FF FF  ..+....P.#R.....
09C0: 7F F0 FF FF 7F 73 63 31  39 45 04 80 F0 FF FF 7F  .....sc19E......
09D0: F0 FF FF 7F 73 63 32 30  03 80 66 1D 80 CC F2 0A  ....sc20..f.....
09E0: 01 CC F2 0A 01 74 68 6B  31 5D 03 80 51 80 1C 10  .....thk1]..Q...
09F0: 80 2B CC F2 0A 01 52 80  23 66 1D 80 CC F2 0A 01  .+....R.#f......
0A00: CC F2 0A 01 74 68 6B 32  2B CC F2 0A 01 53 80 23  ....thk2+....S.#
0A10: 2A 10 CD F2 0A 01 52 04  80 F0 FF FF 7F F0 FF FF  *.....R.........
0A20: 7F 73 63 32 30 45 04 80  F0 FF FF 7F F0 FF FF 7F  .sc20E..........
0A30: 73 63 32 31 03 80 7B CC  F2 0A 01 4A F0 FF FF 7F  sc21..{....J....
0A40: CD F2 0A 01 03 02 10 54  80 2B CD F2 0A 01 55 80  .......T.+....U.
0A50: 23 5C 00 56 80 5C 01 56  80 9A 55 04 80 F0 FF FF  #\.V.\.V..U.....
0A60: 7F F0 FF FF 7F 73 63 32  31 45 04 80 F0 FF FF 7F  .....sc21E......
0A70: F0 FF FF 7F 73 63 32 32  03 80 1C 1B 80 6E CC F2  ....sc22.....n..
0A80: 0A 01 4F 80 99 CC F2 0A  01 99 CC F2 0A 01 2B CC  ..O...........+.
0A90: F2 0A 01 57 80 23 66 48  80 CD F2 0A 01 CD F2 0A  ...W.#fH........
0AA0: 01 74 77 62 30 2B CD F2  0A 01 58 80 23 52 04 80  .twb0+....X.#R..
0AB0: F0 FF FF 7F F0 FF FF 7F  73 63 32 32 45 04 80 F0  ........sc22E...
0AC0: FF FF 7F F0 FF FF 7F 73  63 32 33 03 80 66 48 80  .......sc23..fH.
0AD0: CD F2 0A 01 CD F2 0A 01  74 77 62 31 93 54 80 03  ........twb1.T..
0AE0: 02 10 54 80 2B CD F2 0A  01 59 80 23 93 03 80 6E  ..T.+....Y.#...n
0AF0: CD F2 0A 01 0C 80 99 CD  F2 0A 01 99 CD F2 0A 01  ................
0B00: 1C 10 80 2B CD F2 0A 01  5A 80 23 27 10 CD F2 0A  ...+....Z.#'....
0B10: 01 0C 03 02 10 33 80 27  10 C8 F2 0A 01 0D 1C 10  .....3.'........
0B20: 80 52 04 80 F0 FF FF 7F  F0 FF FF 7F 73 63 32 33  .R..........sc23
0B30: 45 04 80 F0 FF FF 7F F0  FF FF 7F 73 63 32 34 03  E..........sc24.
0B40: 80 4A CC F2 0A 01 CD F2  0A 01 1C 23 80 4A F0 FF  .J.........#.J..
0B50: FF 7F CC F2 0A 01 2B CC  F2 0A 01 5B 80 23 2A 10  ......+....[.#*.
0B60: C8 F2 0A 01 52 04 80 F0  FF FF 7F F0 FF FF 7F 73  ....R..........s
0B70: 63 32 34 45 04 80 F0 FF  FF 7F F0 FF FF 7F 73 63  c24E..........sc
0B80: 32 35 03 80 5D 03 80 51  80 1C 09 80 2B CD F2 0A  25..]..Q....+...
0B90: 01 5C 80 23 52 04 80 F0  FF FF 7F F0 FF FF 7F 73  .\.#R..........s
0BA0: 63 32 35 45 04 80 F0 FF  FF 7F F0 FF FF 7F 73 63  c25E..........sc
0BB0: 32 36 03 80 6E CC F2 0A  01 5D 80 99 CC F2 0A 01  26..n....]......
0BC0: 99 CC F2 0A 01 2B CC F2  0A 01 5E 80 23 7A 00 CD  .....+....^.#z..
0BD0: F2 0A 01 1C 15 80 52 04  80 F0 FF FF 7F F0 FF FF  ......R.........
0BE0: 7F 73 63 32 36 45 04 80  F0 FF FF 7F F0 FF FF 7F  .sc26E..........
0BF0: 73 63 32 37 03 80 4A CC  F2 0A 01 F0 FF FF 7F 6F  sc27..J........o
0C00: 76 CC F2 0A 01 66 1D 80  CC F2 0A 01 CC F2 0A 01  v....f..........
0C10: 74 6C 6B 30 03 02 10 54  80 2B CC F2 0A 01 5F 80  tlk0...T.+...._.
0C20: 23 1A A6 55 1C 1B 80 52  04 80 F0 FF FF 7F F0 FF  #..U...R........
0C30: FF 7F 73 63 32 37 45 04  80 F0 FF FF 7F F0 FF FF  ..sc27E.........
0C40: 7F 30 62 6C 66 03 80 5C  00 03 80 5C 01 03 80 9A  .0blf..\...\....
0C50: 46 00 45 1C 80 F0 FF FF  7F F0 FF FF 7F 66 64 69  F.E..........fdi
0C60: 32 03 80 21 00                                    2..!.           
```

#### Opcodes

```
  0: 0x0379 [0x42] SET_CLI_EVENT_CANCEL_DATA()
  1: 0x037A [0x03] ExtData[1]->WorkLocal[2] = Work_Zone[2]
  2: 0x037F [0x03] ExtData[1]->WorkLocal[0] = Work_Zone[9]
  3: 0x0384 [0x02] IF !(ExtData[1]->WorkLocal[0] == 0*) GOTO 0x046A
  4: 0x038C [0x4A] LocalPlayer looks at Erlene (ID: 17494732/0x010AF2CC)
  5: 0x0395 [0x4A] Erlene (ID: 17494732/0x010AF2CC) looks at LocalPlayer
  6: 0x039E [0x6F] WAIT_FRAME_DELAY: Yield until WaitTime reaches zero
  7: 0x039F [0x76] CHECK_ENTITY_RENDER_FLAGS: Wait until Erlene (ID: 17494732/0x010AF2CC) Render.Flags0 and Render.Flags3 conditions are met
  8: 0x03A4 [0x66] LOAD_EXT_SCHEDULER_MAIN: Load scheduler "tlk0" with entities [Erlene (ID: 17494732/0x010AF2CC), Erlene (ID: 17494732/0x010AF2CC)], work=19*
  9: 0x03B3 [0x2B] Erlene (ID: 17494732/0x010AF2CC) [7635*]:
    → "Oh! A potential pupil! Have you come to enroll in the Schultz School of Martial Theory?"
 10: 0x03BA [0x23] WAIT_FOR_DIALOG_INTERACTION
 11: 0x03BB [0x66] LOAD_EXT_SCHEDULER_MAIN: Load scheduler "tlk1" with entities [Erlene (ID: 17494732/0x010AF2CC), Erlene (ID: 17494732/0x010AF2CC)], work=19*
 12: 0x03CA [0x24] CREATE_DIALOG(message_id=7636*, default_option=0*, option_flags=0*)
    → "Did you come to sign up? [Where's the dotted line?/I was just looking for the latrine...]"
 13: 0x03D1 [0x25] WAIT_DIALOG_SELECT()
 14: 0x03D2 [0x02] IF !(Work_Zone[0] == 0*) GOTO 0x0430
 15: 0x03DA [0x6E] LocalPlayer uses emote 7*
 16: 0x03E1 [0x99] Wait for LocalPlayer animation to complete
 17: 0x03E6 [0x99] Wait for LocalPlayer animation to complete
 18: 0x03EB [0x1C] WAIT(60* ticks)
 19: 0x03EE [0x02] IF !(ExtData[1]->WorkLocal[2] == 1*) GOTO 0x042D
 20: 0x03F6 [0x6E] Erlene (ID: 17494732/0x010AF2CC) uses emote 11*
 21: 0x03FD [0x99] Wait for Erlene (ID: 17494732/0x010AF2CC) animation to complete
 22: 0x0402 [0x99] Wait for Erlene (ID: 17494732/0x010AF2CC) animation to complete
 23: 0x0407 [0x1C] WAIT(45* ticks)
 24: 0x040A [0x2B] Erlene (ID: 17494732/0x010AF2CC) [7638*]:
    → "Such enthusiasm!"
 25: 0x0411 [0x23] WAIT_FOR_DIALOG_INTERACTION
 26: 0x0412 [0x6E] Erlene (ID: 17494732/0x010AF2CC) uses emote 32*
 27: 0x0419 [0x99] Wait for Erlene (ID: 17494732/0x010AF2CC) animation to complete
 28: 0x041E [0x2B] Erlene (ID: 17494732/0x010AF2CC) [7639*]:
    → "It's just a pity you don't seem to have the prerequisite experience..."
 29: 0x0425 [0x23] WAIT_FOR_DIALOG_INTERACTION
 30: 0x0426 [0x03] Work_Zone[1] = 1073741824*
 31: 0x042B [0x21] END_EVENT
 32: 0x042C [0x00] END_REQSTACK()
 33: 0x042D [0x01] GOTO 0x046A
 34: 0x0430 [0x02] IF !(Work_Zone[0] == 1*) GOTO 0x046A
 35: 0x0438 [0x6E] LocalPlayer uses emote 6*
 36: 0x043F [0x99] Wait for LocalPlayer animation to complete
 37: 0x0444 [0x99] Wait for LocalPlayer animation to complete
 38: 0x0449 [0x1C] WAIT(60* ticks)
 39: 0x044C [0x6E] Erlene (ID: 17494732/0x010AF2CC) uses emote 32*
 40: 0x0453 [0x99] Wait for Erlene (ID: 17494732/0x010AF2CC) animation to complete
 41: 0x0458 [0x2B] Erlene (ID: 17494732/0x010AF2CC) [7637*]:
    → "Oh, I see. A mind is such a terrible thing to waste..."
 42: 0x045F [0x23] WAIT_FOR_DIALOG_INTERACTION
 43: 0x0460 [0x03] Work_Zone[1] = 1073741824*
 44: 0x0465 [0x21] END_EVENT
 45: 0x0466 [0x00] END_REQSTACK()

SUBROUTINE_046A:
 46: 0x046A [0x1A] CALL_SUBROUTINE(address=0x55A6)
 47: 0x046D [0x46] CAMERA_CONTROL: Disable user control
 48: 0x046F [0x38] SET_CLIENT_EVENT_MODE(mode=19*)
 49: 0x0472 [0x4E] SET_ENTITY_HIDE_FLAG: Show Erlene (ID: 17494732/0x010AF2CC)
 50: 0x0478 [0x2F] Ulbrecht (ID: 17494733/0x010AF2CD)->Render.Flags0 &= ~0x80000 // Bit 19
 51: 0x047E [0x27] REQ_SET(priority=0x10, entity_id=Unnamed NPC (ID: 17494736/0x010AF2D0), tag_num=0x02)
 52: 0x0485 [0x92] Erlene (ID: 17494732/0x010AF2CC)->Render.Flags3 ^= 0x01
 53: 0x048B [0x92] Ulbrecht (ID: 17494733/0x010AF2CD)->Render.Flags3 ^= 0x01
 54: 0x0491 [0x92] Unnamed NPC (ID: 17494736/0x010AF2D0)->Render.Flags3 ^= 0x01
 55: 0x0497 [0x1A] CALL_SUBROUTINE(address=0x1D74)
 56: 0x049A [0x94] LocalPlayer->Render.Flags3 ^= 0x01
 57: 0x04A0 [0x94] Erlene (ID: 17494732/0x010AF2CC)->Render.Flags3 ^= 0x01
 58: 0x04A6 [0x94] Ulbrecht (ID: 17494733/0x010AF2CD)->Render.Flags3 ^= 0x01
 59: 0x04AC [0x94] Unnamed NPC (ID: 17494736/0x010AF2D0)->Render.Flags3 ^= 0x01
 60: 0x04B2 [0xBA] SET_ENTITY_POSITION(entity_id=LocalPlayer, pos_x=378.791*, pos_z=17.703*, pos_y=-39.999*, direction=186.5°*)
 61: 0x04BF [0xBA] SET_ENTITY_POSITION(entity_id=Ulbrecht (ID: 17494733/0x010AF2CD), pos_x=379.486*, pos_z=26.552*, pos_y=-39.999*, direction=92.0°*)
 62: 0x04CC [0x80] LOAD_WAIT(entity=LocalPlayer)
 63: 0x04D1 [0x80] LOAD_WAIT(entity=Erlene (ID: 17494732/0x010AF2CC))
 64: 0x04D6 [0x80] LOAD_WAIT(entity=Ulbrecht (ID: 17494733/0x010AF2CD))
 65: 0x04DB [0x80] LOAD_WAIT(entity=Unnamed NPC (ID: 17494736/0x010AF2D0))
 66: 0x04E0 [0x79] LocalPlayer looks at Erlene (ID: 17494732/0x010AF2CC) (Basic look)
 67: 0x04EA [0x4A] Erlene (ID: 17494732/0x010AF2CC) looks at LocalPlayer
 68: 0x04F3 [0x5C] MUSIC_CONTROL: Set Idle (Day) music to song 180*
 69: 0x04F7 [0x5C] MUSIC_CONTROL: Set Idle (Night) music to song 180*
 70: 0x04FB [0x9A] WAIT_MUSIC_SERVER()
 71: 0x04FC [0x1C] WAIT(15* ticks)
 72: 0x04FF [0x45] LOAD_SCHEDULED_TASK: Load scheduler "sc00" with entities [LocalPlayer, LocalPlayer], work=[377*, 0*]
 73: 0x0510 [0x1A] CALL_SUBROUTINE(address=0x5585)
 74: 0x0513 [0x6E] Erlene (ID: 17494732/0x010AF2CC) uses emote 11*
 75: 0x051A [0x99] Wait for Erlene (ID: 17494732/0x010AF2CC) animation to complete
 76: 0x051F [0x1C] WAIT(45* ticks)
 77: 0x0522 [0x3A] CONVERT_YAW_TO_BYTE(entity=Erlene (ID: 17494732/0x010AF2CC), result_destination=ExtData[1]->WorkLocal[1])
 78: 0x0529 [0x07] ExtData[1]->WorkLocal[1] += 512*
 79: 0x052E [0x4B] UPDATE_ENTITY_YAW(entity=Unnamed NPC (ID: 17494736/0x010AF2D0), yaw=ExtData[1]->WorkLocal[1])
 80: 0x0535 [0x2B] Erlene (ID: 17494732/0x010AF2CC) [7640*]:
    → "Such enthusiasm! We certainly welcome beginners."
 81: 0x053C [0x23] WAIT_FOR_DIALOG_INTERACTION
 82: 0x053D [0x52] END_LOAD_SCHEDULER: End scheduler "sc00" with entities [LocalPlayer, LocalPlayer], work=377*
 83: 0x054C [0x45] LOAD_SCHEDULED_TASK: Load scheduler "sc01" with entities [LocalPlayer, LocalPlayer], work=[377*, 0*]
 84: 0x055D [0x2B] Erlene (ID: 17494732/0x010AF2CC) [7641*]:
    → "Ah, how positively rude of me."
 85: 0x0564 [0x23] WAIT_FOR_DIALOG_INTERACTION
 86: 0x0565 [0x66] LOAD_EXT_SCHEDULER_MAIN: Load scheduler "tlk0" with entities [Erlene (ID: 17494732/0x010AF2CC), Erlene (ID: 17494732/0x010AF2CC)], work=19*
 87: 0x0574 [0x2B] Erlene (ID: 17494732/0x010AF2CC) [7642*]:
    → "You may address me as Professor Erlene. As well as serving on the Operations Staff here in the necropolis, I teach martial theory to academic applicants in my capacity as a military scholar."
 88: 0x057B [0x23] WAIT_FOR_DIALOG_INTERACTION
 89: 0x057C [0x52] END_LOAD_SCHEDULER: End scheduler "sc01" with entities [LocalPlayer, LocalPlayer], work=377*
 90: 0x058B [0x45] LOAD_SCHEDULED_TASK: Load scheduler "sc02" with entities [LocalPlayer, LocalPlayer], work=[377*, 0*]
 91: 0x059C [0x29] REQ_SET_WAIT(priority=0x10, entity_id=LocalPlayer, tag_num=0x03)
 92: 0x05A3 [0x1C] WAIT(80* ticks)
 93: 0x05A6 [0x29] REQ_SET_WAIT(priority=0x10, entity_id=LocalPlayer, tag_num=0x04)
 94: 0x05AD [0x66] LOAD_EXT_SCHEDULER_MAIN: Load scheduler "tlk1" with entities [Erlene (ID: 17494732/0x010AF2CC), Erlene (ID: 17494732/0x010AF2CC)], work=19*
 95: 0x05BC [0x7B] Erlene (ID: 17494732/0x010AF2CC) stops talking
 96: 0x05C1 [0x2B] Erlene (ID: 17494732/0x010AF2CC) [7643*]:
    → "And what is martial theory, you ask? In a nutshell, it is the study of applying tactics and strategy to ensure victory on the field of battle."
 97: 0x05C8 [0x23] WAIT_FOR_DIALOG_INTERACTION
 98: 0x05C9 [0x52] END_LOAD_SCHEDULER: End scheduler "sc02" with entities [LocalPlayer, LocalPlayer], work=377*
 99: 0x05D8 [0x45] LOAD_SCHEDULED_TASK: Load scheduler "sc03" with entities [LocalPlayer, LocalPlayer], work=[377*, 0*]
100: 0x05E9 [0x5B] LOAD_EXT_SCHEDULER: Load scheduler "sck0" with entities [Erlene (ID: 17494732/0x010AF2CC), Erlene (ID: 17494732/0x010AF2CC)], work=1290*
101: 0x05F8 [0x2B] Erlene (ID: 17494732/0x010AF2CC) [7644*]:
    → "The Schultz School of Martial Theory mainly focuses on the study of ancient military magic texts known as "grimoires.""
102: 0x05FF [0x23] WAIT_FOR_DIALOG_INTERACTION
103: 0x0600 [0x2B] Erlene (ID: 17494732/0x010AF2CC) [7645*]:
    → "The beauty of this approach is the effective incorporation of spells and incantations into the latest strategies and tactics."
104: 0x0607 [0x23] WAIT_FOR_DIALOG_INTERACTION
105: 0x0608 [0x52] END_LOAD_SCHEDULER: End scheduler "sc03" with entities [LocalPlayer, LocalPlayer], work=377*
106: 0x0617 [0x45] LOAD_SCHEDULED_TASK: Load scheduler "sc04" with entities [LocalPlayer, LocalPlayer], work=[377*, 0*]
107: 0x0628 [0x5B] LOAD_EXT_SCHEDULER: Load scheduler "sck1" with entities [Erlene (ID: 17494732/0x010AF2CC), Erlene (ID: 17494732/0x010AF2CC)], work=1290*
108: 0x0637 [0x03] Work_Zone[2] = 75*
109: 0x063C [0x27] REQ_SET(priority=0x10, entity_id=??? (ID: 17494728/0x010AF2C8), tag_num=0x0D)
110: 0x0643 [0x2B] Erlene (ID: 17494732/0x010AF2CC) [7646*]:
    → "Pupils schooled in Schultz martial theory are valued across Vana'diel as military tacticians."
111: 0x064A [0x23] WAIT_FOR_DIALOG_INTERACTION
112: 0x064B [0x2A] GET_REQ_LEVEL(level=16, entity_id=??? (ID: 17494728/0x010AF2C8))
113: 0x0651 [0x52] END_LOAD_SCHEDULER: End scheduler "sc04" with entities [LocalPlayer, LocalPlayer], work=377*
114: 0x0660 [0x45] LOAD_SCHEDULED_TASK: Load scheduler "sc05" with entities [LocalPlayer, LocalPlayer], work=[377*, 0*]
115: 0x0671 [0x27] REQ_SET(priority=0x10, entity_id=Unnamed NPC (ID: 17494729/0x010AF2C9), tag_num=0x0D)
116: 0x0678 [0x2B] Erlene (ID: 17494732/0x010AF2CC) [7647*]:
    → "Allow me to demonstrate the dual nature of the grimoire."
117: 0x067F [0x23] WAIT_FOR_DIALOG_INTERACTION
118: 0x0680 [0x2A] GET_REQ_LEVEL(level=16, entity_id=Unnamed NPC (ID: 17494729/0x010AF2C9))
119: 0x0686 [0x08] ExtData[1]->WorkLocal[1] -= 1024*
120: 0x068B [0x4B] UPDATE_ENTITY_YAW(entity=Unnamed NPC (ID: 17494736/0x010AF2D0), yaw=ExtData[1]->WorkLocal[1])
121: 0x0692 [0x52] END_LOAD_SCHEDULER: End scheduler "sc06" with entities [LocalPlayer, LocalPlayer], work=377*
122: 0x06A1 [0x45] LOAD_SCHEDULED_TASK: Load scheduler "sc07" with entities [LocalPlayer, LocalPlayer], work=[377*, 0*]
123: 0x06B2 [0x1C] WAIT(30* ticks)
124: 0x06B5 [0x2B] Erlene (ID: 17494732/0x010AF2CC) [7648*]:
    → "That was the white grimoire."
125: 0x06BC [0x23] WAIT_FOR_DIALOG_INTERACTION
126: 0x06BD [0x52] END_LOAD_SCHEDULER: End scheduler "sc07" with entities [LocalPlayer, LocalPlayer], work=377*
127: 0x06CC [0x45] LOAD_SCHEDULED_TASK: Load scheduler "sc08" with entities [LocalPlayer, LocalPlayer], work=[377*, 0*]
128: 0x06DD [0x27] REQ_SET(priority=0x10, entity_id=Unnamed NPC (ID: 17494729/0x010AF2C9), tag_num=0x10)
129: 0x06E4 [0x2B] Erlene (ID: 17494732/0x010AF2CC) [7649*]:
    → "And this, the black grimoire."
130: 0x06EB [0x23] WAIT_FOR_DIALOG_INTERACTION
131: 0x06EC [0x2A] GET_REQ_LEVEL(level=16, entity_id=Unnamed NPC (ID: 17494729/0x010AF2C9))
132: 0x06F2 [0x5B] LOAD_EXT_SCHEDULER: Load scheduler "sck0" with entities [Erlene (ID: 17494732/0x010AF2CC), Erlene (ID: 17494732/0x010AF2CC)], work=1290*
133: 0x0701 [0x1C] WAIT(45* ticks)
134: 0x0704 [0x2B] Erlene (ID: 17494732/0x010AF2CC) [7650*]:
    → "Do I have your full attention now?"
135: 0x070B [0x23] WAIT_FOR_DIALOG_INTERACTION
136: 0x070C [0x52] END_LOAD_SCHEDULER: End scheduler "sc08" with entities [LocalPlayer, LocalPlayer], work=377*
137: 0x071B [0x45] LOAD_SCHEDULED_TASK: Load scheduler "sc09" with entities [LocalPlayer, LocalPlayer], work=[377*, 0*]
138: 0x072C [0x2B] Erlene (ID: 17494732/0x010AF2CC) [7651*]:
    → "Utilizing the teachings of the Schultz theories, one is able to switch between the two as the situation demands."
139: 0x0733 [0x23] WAIT_FOR_DIALOG_INTERACTION
140: 0x0734 [0x4E] SET_ENTITY_HIDE_FLAG: Show Ulbrecht (ID: 17494733/0x010AF2CD)
141: 0x073A [0x27] REQ_SET(priority=0x10, entity_id=Ulbrecht (ID: 17494733/0x010AF2CD), tag_num=0x0A)
142: 0x0741 [0x1C] WAIT(45* ticks)
143: 0x0744 [0x52] END_LOAD_SCHEDULER: End scheduler "sc09" with entities [LocalPlayer, LocalPlayer], work=377*
144: 0x0753 [0x45] LOAD_SCHEDULED_TASK: Load scheduler "sc10" with entities [LocalPlayer, LocalPlayer], work=[377*, 0*]
145: 0x0764 [0x2B] ??? (ID: 17494728/0x010AF2C8) [7652*]:
    → "What is all the commotion?"
146: 0x076B [0x4A] LocalPlayer looks at Ulbrecht (ID: 17494733/0x010AF2CD)
147: 0x0774 [0x1C] WAIT(45* ticks)
148: 0x0777 [0x5B] LOAD_EXT_SCHEDULER: Load scheduler "sck1" with entities [Erlene (ID: 17494732/0x010AF2CC), Erlene (ID: 17494732/0x010AF2CC)], work=1290*
149: 0x0786 [0x79] Erlene (ID: 17494732/0x010AF2CC) looks at Ulbrecht (ID: 17494733/0x010AF2CD) (Basic look)
150: 0x0790 [0x2B] Erlene (ID: 17494732/0x010AF2CC) [7653*]:
    → "Professor Ulbrecht, when did you return?"
151: 0x0797 [0x23] WAIT_FOR_DIALOG_INTERACTION
152: 0x0798 [0x52] END_LOAD_SCHEDULER: End scheduler "sc10" with entities [LocalPlayer, LocalPlayer], work=377*
153: 0x07A7 [0x45] LOAD_SCHEDULED_TASK: Load scheduler "sc11" with entities [LocalPlayer, LocalPlayer], work=[377*, 0*]
154: 0x07B8 [0x79] Ulbrecht (ID: 17494733/0x010AF2CD) looks at Erlene (ID: 17494732/0x010AF2CC) (Basic look)
155: 0x07C2 [0x2B] Ulbrecht (ID: 17494733/0x010AF2CD) [7654*]:
    → "Must I introduce myself to our guest, Professor Erlene?"
156: 0x07C9 [0x23] WAIT_FOR_DIALOG_INTERACTION
157: 0x07CA [0x2A] GET_REQ_LEVEL(level=16, entity_id=Ulbrecht (ID: 17494733/0x010AF2CD))
158: 0x07D0 [0x52] END_LOAD_SCHEDULER: End scheduler "sc11" with entities [LocalPlayer, LocalPlayer], work=377*
159: 0x07DF [0x45] LOAD_SCHEDULED_TASK: Load scheduler "sc12" with entities [LocalPlayer, LocalPlayer], work=[377*, 0*]
160: 0x07F0 [0x79] Ulbrecht (ID: 17494733/0x010AF2CD) looks at LocalPlayer (Basic look)
161: 0x07FA [0x6E] Ulbrecht (ID: 17494733/0x010AF2CD) uses emote 1*
162: 0x0801 [0x99] Wait for Ulbrecht (ID: 17494733/0x010AF2CD) animation to complete
163: 0x0806 [0x99] Wait for Ulbrecht (ID: 17494733/0x010AF2CD) animation to complete
164: 0x080B [0x2B] Ulbrecht (ID: 17494733/0x010AF2CD) [7655*]:
    → "Greetings, I am Professor Ulbrecht, chief of operations of the Republican Army of Bastok."
165: 0x0812 [0x23] WAIT_FOR_DIALOG_INTERACTION
166: 0x0813 [0x52] END_LOAD_SCHEDULER: End scheduler "sc12" with entities [LocalPlayer, LocalPlayer], work=377*
167: 0x0822 [0x45] LOAD_SCHEDULED_TASK: Load scheduler "sc13" with entities [LocalPlayer, LocalPlayer], work=[377*, 0*]
168: 0x0833 [0x66] LOAD_EXT_SCHEDULER_MAIN: Load scheduler "twa0" with entities [Ulbrecht (ID: 17494733/0x010AF2CD), Ulbrecht (ID: 17494733/0x010AF2CD)], work=9*
169: 0x0842 [0x2B] Ulbrecht (ID: 17494733/0x010AF2CD) [7656*]:
    → "Hehehe. From my observations, I would say your interest was captured more by that flashy grimoire display than Professor Erlene's explanation of Schultz martial theory!"
170: 0x0849 [0x23] WAIT_FOR_DIALOG_INTERACTION
171: 0x084A [0x52] END_LOAD_SCHEDULER: End scheduler "sc13" with entities [LocalPlayer, LocalPlayer], work=377*
172: 0x0859 [0x45] LOAD_SCHEDULED_TASK: Load scheduler "sc14" with entities [LocalPlayer, LocalPlayer], work=[377*, 0*]
173: 0x086A [0x66] LOAD_EXT_SCHEDULER_MAIN: Load scheduler "twa1" with entities [Ulbrecht (ID: 17494733/0x010AF2CD), Ulbrecht (ID: 17494733/0x010AF2CD)], work=9*
174: 0x0879 [0x1C] WAIT(45* ticks)
175: 0x087C [0x2B] Ulbrecht (ID: 17494733/0x010AF2CD) [7657*]:
    → "Ah, I do not mean to criticize. It is natural for us to feel wonder at the things we do not understand. That curiosity is your ally."
176: 0x0883 [0x23] WAIT_FOR_DIALOG_INTERACTION
177: 0x0884 [0x52] END_LOAD_SCHEDULER: End scheduler "sc14" with entities [LocalPlayer, LocalPlayer], work=377*
178: 0x0893 [0x45] LOAD_SCHEDULED_TASK: Load scheduler "sc15" with entities [LocalPlayer, LocalPlayer], work=[377*, 0*]
179: 0x08A4 [0x6E] Ulbrecht (ID: 17494733/0x010AF2CD) uses emote 20*
180: 0x08AB [0x99] Wait for Ulbrecht (ID: 17494733/0x010AF2CD) animation to complete
181: 0x08B0 [0x99] Wait for Ulbrecht (ID: 17494733/0x010AF2CD) animation to complete
182: 0x08B5 [0x2B] Ulbrecht (ID: 17494733/0x010AF2CD) [7658*]:
    → "However, mastery of the grimoire requires more than simple enthusiasm. A pity, but I do not think you--"
183: 0x08BC [0x23] WAIT_FOR_DIALOG_INTERACTION
184: 0x08BD [0x27] REQ_SET(priority=0x10, entity_id=Erlene (ID: 17494732/0x010AF2CC), tag_num=0x10)
185: 0x08C4 [0x52] END_LOAD_SCHEDULER: End scheduler "sc15" with entities [LocalPlayer, LocalPlayer], work=377*
186: 0x08D3 [0x45] LOAD_SCHEDULED_TASK: Load scheduler "sc16" with entities [LocalPlayer, LocalPlayer], work=[377*, 0*]
187: 0x08E4 [0x1C] WAIT(15* ticks)
188: 0x08E7 [0x79] LocalPlayer looks at Erlene (ID: 17494732/0x010AF2CC) (Basic look)
189: 0x08F1 [0x2B] Erlene (ID: 17494732/0x010AF2CC) [7659*]:
    → "Oh, enough of your ponderous blustering, Professor."
190: 0x08F8 [0x23] WAIT_FOR_DIALOG_INTERACTION
191: 0x08F9 [0x79] Ulbrecht (ID: 17494733/0x010AF2CD) looks at Erlene (ID: 17494732/0x010AF2CC) (Basic look)
192: 0x0903 [0x2A] GET_REQ_LEVEL(level=16, entity_id=Erlene (ID: 17494732/0x010AF2CC))
193: 0x0909 [0x6E] Erlene (ID: 17494732/0x010AF2CC) uses emote 32*
194: 0x0910 [0x99] Wait for Erlene (ID: 17494732/0x010AF2CC) animation to complete
195: 0x0915 [0x2B] Erlene (ID: 17494732/0x010AF2CC) [7660*]:
    → ""The gates of knowledge must not be closed to one with a willingness to learn." Is this not a fundamental law of the Schultz school?"
196: 0x091C [0x23] WAIT_FOR_DIALOG_INTERACTION
197: 0x091D [0x52] END_LOAD_SCHEDULER: End scheduler "sc16" with entities [LocalPlayer, LocalPlayer], work=377*
198: 0x092C [0x45] LOAD_SCHEDULED_TASK: Load scheduler "sc17" with entities [LocalPlayer, LocalPlayer], work=[377*, 0*]
199: 0x093D [0x7B] Ulbrecht (ID: 17494733/0x010AF2CD) stops talking
200: 0x0942 [0x6E] Ulbrecht (ID: 17494733/0x010AF2CD) uses emote 26*
201: 0x0949 [0x99] Wait for Ulbrecht (ID: 17494733/0x010AF2CD) animation to complete
202: 0x094E [0x99] Wait for Ulbrecht (ID: 17494733/0x010AF2CD) animation to complete
203: 0x0953 [0x1C] WAIT(180* ticks)
204: 0x0956 [0x27] REQ_SET(priority=0x10, entity_id=Ulbrecht (ID: 17494733/0x010AF2CD), tag_num=0x0B)
205: 0x095D [0x1C] WAIT(45* ticks)
206: 0x0960 [0x52] END_LOAD_SCHEDULER: End scheduler "sc17" with entities [LocalPlayer, LocalPlayer], work=377*
207: 0x096F [0x45] LOAD_SCHEDULED_TASK: Load scheduler "sc18" with entities [LocalPlayer, LocalPlayer], work=[377*, 0*]
208: 0x0980 [0x1C] WAIT(120* ticks)
209: 0x0983 [0x4A] Erlene (ID: 17494732/0x010AF2CC) looks at LocalPlayer
210: 0x098C [0x52] END_LOAD_SCHEDULER: End scheduler "sc18" with entities [LocalPlayer, LocalPlayer], work=377*
211: 0x099B [0x45] LOAD_SCHEDULED_TASK: Load scheduler "sc19" with entities [LocalPlayer, LocalPlayer], work=[377*, 0*]
212: 0x09AC [0x6F] WAIT_FRAME_DELAY: Yield until WaitTime reaches zero
213: 0x09AD [0x76] CHECK_ENTITY_RENDER_FLAGS: Wait until Erlene (ID: 17494732/0x010AF2CC) Render.Flags0 and Render.Flags3 conditions are met
214: 0x09B2 [0x2B] Erlene (ID: 17494732/0x010AF2CC) [7661*]:
    → "Do not take the professor's flippant dismissal to heart--you will have your chance to learn."
215: 0x09B9 [0x23] WAIT_FOR_DIALOG_INTERACTION
216: 0x09BA [0x52] END_LOAD_SCHEDULER: End scheduler "sc19" with entities [LocalPlayer, LocalPlayer], work=377*
217: 0x09C9 [0x45] LOAD_SCHEDULED_TASK: Load scheduler "sc20" with entities [LocalPlayer, LocalPlayer], work=[377*, 0*]
218: 0x09DA [0x66] LOAD_EXT_SCHEDULER_MAIN: Load scheduler "thk1" with entities [Erlene (ID: 17494732/0x010AF2CC), Erlene (ID: 17494732/0x010AF2CC)], work=19*
219: 0x09E9 [0x5D] SET_MUSIC_VOLUME(volume=0*, fade_time=300*)
220: 0x09EE [0x1C] WAIT(45* ticks)
221: 0x09F1 [0x2B] Erlene (ID: 17494732/0x010AF2CC) [7662*]:
    → "There are, however, certain requirements. You must understand, the grimoires are valuable tomes..."
222: 0x09F8 [0x23] WAIT_FOR_DIALOG_INTERACTION
223: 0x09F9 [0x66] LOAD_EXT_SCHEDULER_MAIN: Load scheduler "thk2" with entities [Erlene (ID: 17494732/0x010AF2CC), Erlene (ID: 17494732/0x010AF2CC)], work=19*
224: 0x0A08 [0x2B] Erlene (ID: 17494732/0x010AF2CC) [7663*]:
    → "Ah, I am not seeking to deprive you of coin. There are other--"
225: 0x0A0F [0x23] WAIT_FOR_DIALOG_INTERACTION
226: 0x0A10 [0x2A] GET_REQ_LEVEL(level=16, entity_id=Ulbrecht (ID: 17494733/0x010AF2CD))
227: 0x0A16 [0x52] END_LOAD_SCHEDULER: End scheduler "sc20" with entities [LocalPlayer, LocalPlayer], work=377*
228: 0x0A25 [0x45] LOAD_SCHEDULED_TASK: Load scheduler "sc21" with entities [LocalPlayer, LocalPlayer], work=[377*, 0*]
229: 0x0A36 [0x7B] Erlene (ID: 17494732/0x010AF2CC) stops talking
230: 0x0A3B [0x4A] LocalPlayer looks at Ulbrecht (ID: 17494733/0x010AF2CD)
231: 0x0A44 [0x03] Work_Zone[2] = 2550*
232: 0x0A49 [0x2B] Ulbrecht (ID: 17494733/0x010AF2CD) [7664*]:
    → "%! We have a dire shortage of $0!"
233: 0x0A50 [0x23] WAIT_FOR_DIALOG_INTERACTION
234: 0x0A51 [0x5C] MUSIC_CONTROL: Set Idle (Day) music to song 163*
235: 0x0A55 [0x5C] MUSIC_CONTROL: Set Idle (Night) music to song 163*
236: 0x0A59 [0x9A] WAIT_MUSIC_SERVER()
237: 0x0A5A [0x55] WAIT_LOAD_SCHEDULER: Wait for scheduler "sc21" with entities [LocalPlayer, LocalPlayer], work=377*
238: 0x0A69 [0x45] LOAD_SCHEDULED_TASK: Load scheduler "sc22" with entities [LocalPlayer, LocalPlayer], work=[377*, 0*]
239: 0x0A7A [0x1C] WAIT(30* ticks)
240: 0x0A7D [0x6E] Erlene (ID: 17494732/0x010AF2CC) uses emote 26*
241: 0x0A84 [0x99] Wait for Erlene (ID: 17494732/0x010AF2CC) animation to complete
242: 0x0A89 [0x99] Wait for Erlene (ID: 17494732/0x010AF2CC) animation to complete
243: 0x0A8E [0x2B] Erlene (ID: 17494732/0x010AF2CC) [7665*]:
    → "Professor Ulbrecht! I'll thank you not to interrupt me."
244: 0x0A95 [0x23] WAIT_FOR_DIALOG_INTERACTION
245: 0x0A96 [0x66] LOAD_EXT_SCHEDULER_MAIN: Load scheduler "twb0" with entities [Ulbrecht (ID: 17494733/0x010AF2CD), Ulbrecht (ID: 17494733/0x010AF2CD)], work=9*
246: 0x0AA5 [0x2B] Ulbrecht (ID: 17494733/0x010AF2CD) [7666*]:
    → "Have I misspoken? Do we not require this material in abundance?"
247: 0x0AAC [0x23] WAIT_FOR_DIALOG_INTERACTION
248: 0x0AAD [0x52] END_LOAD_SCHEDULER: End scheduler "sc22" with entities [LocalPlayer, LocalPlayer], work=377*
249: 0x0ABC [0x45] LOAD_SCHEDULED_TASK: Load scheduler "sc23" with entities [LocalPlayer, LocalPlayer], work=[377*, 0*]
250: 0x0ACD [0x66] LOAD_EXT_SCHEDULER_MAIN: Load scheduler "twb1" with entities [Ulbrecht (ID: 17494733/0x010AF2CD), Ulbrecht (ID: 17494733/0x010AF2CD)], work=9*
251: 0x0ADC [0x93] DISPLAY_ITEM_INFO(item_id=2550*)
252: 0x0ADF [0x03] Work_Zone[2] = 2550*
253: 0x0AE4 [0x2B] Ulbrecht (ID: 17494733/0x010AF2CD) [7667*]:
    → "While the matter is not terribly urgent, I believe twelve $0 should cover our needs."
254: 0x0AEB [0x23] WAIT_FOR_DIALOG_INTERACTION
255: 0x0AEC [0x93] DISPLAY_ITEM_INFO(item_id=0*)
256: 0x0AEF [0x6E] Ulbrecht (ID: 17494733/0x010AF2CD) uses emote 7*
257: 0x0AF6 [0x99] Wait for Ulbrecht (ID: 17494733/0x010AF2CD) animation to complete
258: 0x0AFB [0x99] Wait for Ulbrecht (ID: 17494733/0x010AF2CD) animation to complete
259: 0x0B00 [0x1C] WAIT(45* ticks)
260: 0x0B03 [0x2B] Ulbrecht (ID: 17494733/0x010AF2CD) [7668*]:
    → "You have your task. Altana's fortune smile upon you!"
261: 0x0B0A [0x23] WAIT_FOR_DIALOG_INTERACTION
262: 0x0B0B [0x27] REQ_SET(priority=0x10, entity_id=Ulbrecht (ID: 17494733/0x010AF2CD), tag_num=0x0C)
263: 0x0B12 [0x03] Work_Zone[2] = 180*
264: 0x0B17 [0x27] REQ_SET(priority=0x10, entity_id=??? (ID: 17494728/0x010AF2C8), tag_num=0x0D)
265: 0x0B1E [0x1C] WAIT(45* ticks)
266: 0x0B21 [0x52] END_LOAD_SCHEDULER: End scheduler "sc23" with entities [LocalPlayer, LocalPlayer], work=377*
267: 0x0B30 [0x45] LOAD_SCHEDULED_TASK: Load scheduler "sc24" with entities [LocalPlayer, LocalPlayer], work=[377*, 0*]
268: 0x0B41 [0x4A] Erlene (ID: 17494732/0x010AF2CC) looks at Ulbrecht (ID: 17494733/0x010AF2CD)
269: 0x0B4A [0x1C] WAIT(15* ticks)
270: 0x0B4D [0x4A] LocalPlayer looks at Erlene (ID: 17494732/0x010AF2CC)
271: 0x0B56 [0x2B] Erlene (ID: 17494732/0x010AF2CC) [7669*]:
    → "Professor Ulbrecht! This applicant has yet to be processed!"
272: 0x0B5D [0x23] WAIT_FOR_DIALOG_INTERACTION
273: 0x0B5E [0x2A] GET_REQ_LEVEL(level=16, entity_id=??? (ID: 17494728/0x010AF2C8))
274: 0x0B64 [0x52] END_LOAD_SCHEDULER: End scheduler "sc24" with entities [LocalPlayer, LocalPlayer], work=377*
275: 0x0B73 [0x45] LOAD_SCHEDULED_TASK: Load scheduler "sc25" with entities [LocalPlayer, LocalPlayer], work=[377*, 0*]
276: 0x0B84 [0x5D] SET_MUSIC_VOLUME(volume=0*, fade_time=300*)
277: 0x0B89 [0x1C] WAIT(60* ticks)
278: 0x0B8C [0x2B] Ulbrecht (ID: 17494733/0x010AF2CD) [7670*]:
    → "Twelve! Not one less!"
279: 0x0B93 [0x23] WAIT_FOR_DIALOG_INTERACTION
280: 0x0B94 [0x52] END_LOAD_SCHEDULER: End scheduler "sc25" with entities [LocalPlayer, LocalPlayer], work=377*
281: 0x0BA3 [0x45] LOAD_SCHEDULED_TASK: Load scheduler "sc26" with entities [LocalPlayer, LocalPlayer], work=[377*, 0*]
282: 0x0BB4 [0x6E] Erlene (ID: 17494732/0x010AF2CC) uses emote 25*
283: 0x0BBB [0x99] Wait for Erlene (ID: 17494732/0x010AF2CC) animation to complete
284: 0x0BC0 [0x99] Wait for Erlene (ID: 17494732/0x010AF2CC) animation to complete
285: 0x0BC5 [0x2B] Erlene (ID: 17494732/0x010AF2CC) [7671*]:
    → "Professor...!"
286: 0x0BCC [0x23] WAIT_FOR_DIALOG_INTERACTION
287: 0x0BCD [0x7A] VM_CONTROL: Reset VM for Ulbrecht (ID: 17494733/0x010AF2CD)
288: 0x0BD3 [0x1C] WAIT(120* ticks)
289: 0x0BD6 [0x52] END_LOAD_SCHEDULER: End scheduler "sc26" with entities [LocalPlayer, LocalPlayer], work=377*
290: 0x0BE5 [0x45] LOAD_SCHEDULED_TASK: Load scheduler "sc27" with entities [LocalPlayer, LocalPlayer], work=[377*, 0*]
291: 0x0BF6 [0x4A] Erlene (ID: 17494732/0x010AF2CC) looks at LocalPlayer
292: 0x0BFF [0x6F] WAIT_FRAME_DELAY: Yield until WaitTime reaches zero
293: 0x0C00 [0x76] CHECK_ENTITY_RENDER_FLAGS: Wait until Erlene (ID: 17494732/0x010AF2CC) Render.Flags0 and Render.Flags3 conditions are met
294: 0x0C05 [0x66] LOAD_EXT_SCHEDULER_MAIN: Load scheduler "tlk0" with entities [Erlene (ID: 17494732/0x010AF2CC), Erlene (ID: 17494732/0x010AF2CC)], work=19*
295: 0x0C14 [0x03] Work_Zone[2] = 2550*
296: 0x0C19 [0x2B] Erlene (ID: 17494732/0x010AF2CC) [7672*]:
    → "<Sigh>... If you would be so kind as to collect twelve $0, I shall begin planning an exclusive curriculum for your introduction to martial theory."
297: 0x0C20 [0x23] WAIT_FOR_DIALOG_INTERACTION
298: 0x0C21 [0x1A] CALL_SUBROUTINE(address=0x55A6)
299: 0x0C24 [0x1C] WAIT(30* ticks)
300: 0x0C27 [0x52] END_LOAD_SCHEDULER: End scheduler "sc27" with entities [LocalPlayer, LocalPlayer], work=377*
301: 0x0C36 [0x45] LOAD_SCHEDULED_TASK: Load scheduler "0blf" with entities [LocalPlayer, LocalPlayer], work=[377*, 0*]
302: 0x0C47 [0x5C] MUSIC_CONTROL: Set Idle (Day) music to song 0*
303: 0x0C4B [0x5C] MUSIC_CONTROL: Set Idle (Night) music to song 0*
304: 0x0C4F [0x9A] WAIT_MUSIC_SERVER()
305: 0x0C50 [0x46] CAMERA_CONTROL: Restore default settings
306: 0x0C52 [0x45] LOAD_SCHEDULED_TASK: Load scheduler "fdi2" with entities [LocalPlayer, LocalPlayer], work=[200*, 0*]
307: 0x0C63 [0x21] END_EVENT
308: 0x0C64 [0x00] END_REQSTACK()
```

#### Data or dead code:

```
# Dead code (unreachable instructions):
     0x0467 [0x01] GOTO 0x046A
```

### Event 12

#### Metadata

| Field        | Value      |
|--------------|------------|
| Entrypoint   | 0x0C65     |
| Data Size    | 1380 bytes |
| Instructions | 183        |

```
      00 01 02 03 04 05 06 07  08 09 0A 0B 0C 0D 0E 0F
      -- -- -- -- -- -- -- --  -- -- -- -- -- -- -- --
0C60:                42 03 00  00 02 10 1A A6 55 46 01       B.......UF.
0C70: 38 1D 80 4E 00 CC F2 0A  01 27 10 D0 F2 0A 01 02  8..N.....'......
0C80: 92 01 CC F2 0A 01 92 01  D0 F2 0A 01 1A 74 1D 94  .............t..
0C90: 01 F0 FF FF 7F 94 01 CC  F2 0A 01 94 01 D0 F2 0A  ................
0CA0: 01 BA F0 FF FF 7F 2C 80  2D 80 2E 80 2F 80 80 F0  ......,.-.../...
0CB0: FF FF 7F 80 CC F2 0A 01  80 D0 F2 0A 01 79 00 F0  .............y..
0CC0: FF FF 7F CC F2 0A 01 4A  CC F2 0A 01 F0 FF FF 7F  .......J........
0CD0: 5C 00 03 80 5C 01 03 80  9A 1C 23 80 66 1D 80 CC  \...\.....#.f...
0CE0: F2 0A 01 CC F2 0A 01 74  68 6B 31 45 04 80 F0 FF  .......thk1E....
0CF0: FF 7F F0 FF FF 7F 73 32  30 30 03 80 1A 85 55 03  ......s200....U.
0D00: 02 10 54 80 2B CC F2 0A  01 60 80 23 52 04 80 F0  ..T.+....`.#R...
0D10: FF FF 7F F0 FF FF 7F 73  32 30 30 45 04 80 F0 FF  .......s200E....
0D20: FF 7F F0 FF FF 7F 73 32  30 31 03 80 66 1D 80 CC  ......s201..f...
0D30: F2 0A 01 CC F2 0A 01 74  68 6B 32 1C 1B 80 2B CC  .......thk2...+.
0D40: F2 0A 01 61 80 23 52 04  80 F0 FF FF 7F F0 FF FF  ...a.#R.........
0D50: 7F 73 32 30 31 45 04 80  F0 FF FF 7F F0 FF FF 7F  .s201E..........
0D60: 73 32 30 32 03 80 6E CC  F2 0A 01 0C 80 99 CC F2  s202..n.........
0D70: 0A 01 2B CC F2 0A 01 62  80 23 2B CC F2 0A 01 63  ..+....b.#+....c
0D80: 80 23 3A CC F2 0A 01 01  00 08 01 00 34 80 4B D0  .#:.........4.K.
0D90: F2 0A 01 01 00 5C 00 64  80 5C 01 64 80 9A 52 04  .....\.d.\.d..R.
0DA0: 80 F0 FF FF 7F F0 FF FF  7F 73 32 30 32 45 04 80  .........s202E..
0DB0: F0 FF FF 7F F0 FF FF 7F  73 32 30 33 03 80 2B CC  ........s203..+.
0DC0: F2 0A 01 65 80 23 7B CC  F2 0A 01 29 10 C9 F2 0A  ...e.#{....)....
0DD0: 01 0E 07 01 00 3F 80 4B  D0 F2 0A 01 01 00 1C 10  .....?.K........
0DE0: 80 52 04 80 F0 FF FF 7F  F0 FF FF 7F 73 32 30 33  .R..........s203
0DF0: 45 04 80 F0 FF FF 7F F0  FF FF 7F 73 32 30 34 03  E..........s204.
0E00: 80 27 10 C9 F2 0A 01 11  2B CC F2 0A 01 66 80 23  .'......+....f.#
0E10: 2A 10 C9 F2 0A 01 52 04  80 F0 FF FF 7F F0 FF FF  *.....R.........
0E20: 7F 73 32 30 34 45 04 80  F0 FF FF 7F F0 FF FF 7F  .s204E..........
0E30: 73 32 30 35 03 80 66 1D  80 CC F2 0A 01 CC F2 0A  s205..f.........
0E40: 01 74 6C 6B 30 2B CC F2  0A 01 67 80 23 66 1D 80  .tlk0+....g.#f..
0E50: CC F2 0A 01 CC F2 0A 01  74 6C 6B 31 03 02 10 06  ........tlk1....
0E60: 80 27 10 C8 F2 0A 01 0D  2B CC F2 0A 01 68 80 23  .'......+....h.#
0E70: 2A 10 C8 F2 0A 01 5B 39  80 CC F2 0A 01 CC F2 0A  *.....[9........
0E80: 01 73 63 6B 30 1C 1B 80  52 04 80 F0 FF FF 7F F0  .sck0...R.......
0E90: FF FF 7F 73 32 30 35 45  04 80 F0 FF FF 7F F0 FF  ...s205E........
0EA0: FF 7F 73 32 30 36 03 80  1C 69 80 2B CC F2 0A 01  ..s206...i.+....
0EB0: 6A 80 23 5D 03 80 51 80  1C 09 80 5B 39 80 CC F2  j.#]..Q....[9...
0EC0: 0A 01 CC F2 0A 01 73 63  6B 31 03 02 10 3C 80 27  ......sck1...<.'
0ED0: 10 C8 F2 0A 01 0D 2B CC  F2 0A 01 6B 80 23 2A 10  ......+....k.#*.
0EE0: C8 F2 0A 01 27 10 CC F2  0A 01 11 1C 4B 80 52 04  ....'.......K.R.
0EF0: 80 F0 FF FF 7F F0 FF FF  7F 73 32 30 36 45 04 80  .........s206E..
0F00: F0 FF FF 7F F0 FF FF 7F  73 32 30 37 03 80 2B CC  ........s207..+.
0F10: F2 0A 01 6C 80 23 2B CC  F2 0A 01 6D 80 23 2A 10  ...l.#+....m.#*.
0F20: CC F2 0A 01 BA D0 F2 0A  01 6E 80 6F 80 2E 80 70  .........n.o...p
0F30: 80 5C 00 33 80 5C 01 33  80 9A 52 04 80 F0 FF FF  .\.3.\.3..R.....
0F40: 7F F0 FF FF 7F 73 32 30  37 45 04 80 F0 FF FF 7F  .....s207E......
0F50: F0 FF FF 7F 73 32 30 38  03 80 66 71 80 CC F2 0A  ....s208..fq....
0F60: 01 CC F2 0A 01 70 61 73  30 03 02 10 33 80 27 10  .....pas0...3.'.
0F70: C8 F2 0A 01 0D 2B CC F2  0A 01 72 80 23 2A 10 C8  .....+....r.#*..
0F80: F2 0A 01 52 04 80 F0 FF  FF 7F F0 FF FF 7F 73 32  ...R..........s2
0F90: 30 38 45 04 80 F0 FF FF  7F F0 FF FF 7F 73 32 30  08E..........s20
0FA0: 39 03 80 2B CC F2 0A 01  73 80 23 66 71 80 CC F2  9..+....s.#fq...
0FB0: 0A 01 CC F2 0A 01 70 61  73 31 03 02 10 06 80 27  ......pas1.....'
0FC0: 10 C8 F2 0A 01 0D 1C 1B  80 2B CC F2 0A 01 74 80  .........+....t.
0FD0: 23 2A 10 C8 F2 0A 01 27  10 CC F2 0A 01 12 52 04  #*.....'......R.
0FE0: 80 F0 FF FF 7F F0 FF FF  7F 73 32 30 39 45 04 80  .........s209E..
0FF0: F0 FF FF 7F F0 FF FF 7F  73 32 31 30 03 80 1C 1B  ........s210....
1000: 80 2B CC F2 0A 01 75 80  23 2A 10 CC F2 0A 01 4A  .+....u.#*.....J
1010: CC F2 0A 01 F0 FF FF 7F  52 04 80 F0 FF FF 7F F0  ........R.......
1020: FF FF 7F 73 32 31 30 45  04 80 F0 FF FF 7F F0 FF  ...s210E........
1030: FF 7F 73 32 31 31 03 80  6F 76 CC F2 0A 01 2B CC  ..s211..ov....+.
1040: F2 0A 01 76 80 23 3A CC  F2 0A 01 01 00 07 01 00  ...v.#:.........
1050: 77 80 4B D0 F2 0A 01 01  00 52 04 80 F0 FF FF 7F  w.K......R......
1060: F0 FF FF 7F 73 32 31 31  45 04 80 F0 FF FF 7F F0  ....s211E.......
1070: FF FF 7F 73 32 31 32 03  80 27 10 C9 F2 0A 01 0F  ...s212..'......
1080: 2B CC F2 0A 01 78 80 23  2A 10 C9 F2 0A 01 2B CC  +....x.#*.....+.
1090: F2 0A 01 79 80 23 02 00  00 00 80 01 76 11 5D 03  ...y.#......v.].
10A0: 80 7A 80 7B CC F2 0A 01  52 04 80 F0 FF FF 7F F0  .z.{....R.......
10B0: FF FF 7F 73 32 31 32 45  04 80 F0 FF FF 7F F0 FF  ...s212E........
10C0: FF 7F 73 32 31 33 03 80  66 1D 80 CC F2 0A 01 CC  ..s213..f.......
10D0: F2 0A 01 74 68 6B 31 2B  CC F2 0A 01 7B 80 23 52  ...thk1+....{.#R
10E0: 04 80 F0 FF FF 7F F0 FF  FF 7F 73 32 31 33 45 04  ..........s213E.
10F0: 80 F0 FF FF 7F F0 FF FF  7F 73 32 31 35 03 80 2B  .........s215..+
1100: CC F2 0A 01 7C 80 23 52  04 80 F0 FF FF 7F F0 FF  ....|.#R........
1110: FF 7F 73 32 31 35 45 04  80 F0 FF FF 7F F0 FF FF  ..s215E.........
1120: 7F 73 32 31 34 03 80 66  1D 80 CC F2 0A 01 CC F2  .s214..f........
1130: 0A 01 74 68 6B 32 03 02  10 06 80 27 10 C8 F2 0A  ..thk2.....'....
1140: 01 0D 2B CC F2 0A 01 7D  80 23 2A 10 C8 F2 0A 01  ..+....}.#*.....
1150: 66 1D 80 CC F2 0A 01 CC  F2 0A 01 74 6C 6B 30 2B  f..........tlk0+
1160: CC F2 0A 01 7E 80 23 66  1D 80 CC F2 0A 01 CC F2  ....~.#f........
1170: 0A 01 74 6C 6B 31 1A A6  55 1C 1B 80 52 04 80 F0  ..tlk1..U...R...
1180: FF FF 7F F0 FF FF 7F 73  32 31 32 52 04 80 F0 FF  .......s212R....
1190: FF 7F F0 FF FF 7F 73 32  31 34 45 04 80 F0 FF FF  ......s214E.....
11A0: 7F F0 FF FF 7F 30 62 6C  66 03 80 5C 00 03 80 5C  .....0blf..\...\
11B0: 01 03 80 9A 46 00 45 1C  80 F0 FF FF 7F F0 FF FF  ....F.E.........
11C0: 7F 66 64 69 32 03 80 21  00                       .fdi2..!.       
```

#### Opcodes

```
  0: 0x0C65 [0x42] SET_CLI_EVENT_CANCEL_DATA()
  1: 0x0C66 [0x03] ExtData[1]->WorkLocal[0] = Work_Zone[2]
  2: 0x0C6B [0x1A] CALL_SUBROUTINE(address=0x55A6)
  3: 0x0C6E [0x46] CAMERA_CONTROL: Disable user control
  4: 0x0C70 [0x38] SET_CLIENT_EVENT_MODE(mode=19*)
  5: 0x0C73 [0x4E] SET_ENTITY_HIDE_FLAG: Show Erlene (ID: 17494732/0x010AF2CC)
  6: 0x0C79 [0x27] REQ_SET(priority=0x10, entity_id=Unnamed NPC (ID: 17494736/0x010AF2D0), tag_num=0x02)
  7: 0x0C80 [0x92] Erlene (ID: 17494732/0x010AF2CC)->Render.Flags3 ^= 0x01
  8: 0x0C86 [0x92] Unnamed NPC (ID: 17494736/0x010AF2D0)->Render.Flags3 ^= 0x01
  9: 0x0C8C [0x1A] CALL_SUBROUTINE(address=0x1D74)
 10: 0x0C8F [0x94] LocalPlayer->Render.Flags3 ^= 0x01
 11: 0x0C95 [0x94] Erlene (ID: 17494732/0x010AF2CC)->Render.Flags3 ^= 0x01
 12: 0x0C9B [0x94] Unnamed NPC (ID: 17494736/0x010AF2D0)->Render.Flags3 ^= 0x01
 13: 0x0CA1 [0xBA] SET_ENTITY_POSITION(entity_id=LocalPlayer, pos_x=378.791*, pos_z=17.703*, pos_y=-39.999*, direction=186.5°*)
 14: 0x0CAE [0x80] LOAD_WAIT(entity=LocalPlayer)
 15: 0x0CB3 [0x80] LOAD_WAIT(entity=Erlene (ID: 17494732/0x010AF2CC))
 16: 0x0CB8 [0x80] LOAD_WAIT(entity=Unnamed NPC (ID: 17494736/0x010AF2D0))
 17: 0x0CBD [0x79] LocalPlayer looks at Erlene (ID: 17494732/0x010AF2CC) (Basic look)
 18: 0x0CC7 [0x4A] Erlene (ID: 17494732/0x010AF2CC) looks at LocalPlayer
 19: 0x0CD0 [0x5C] MUSIC_CONTROL: Set Idle (Day) music to song 0*
 20: 0x0CD4 [0x5C] MUSIC_CONTROL: Set Idle (Night) music to song 0*
 21: 0x0CD8 [0x9A] WAIT_MUSIC_SERVER()
 22: 0x0CD9 [0x1C] WAIT(15* ticks)
 23: 0x0CDC [0x66] LOAD_EXT_SCHEDULER_MAIN: Load scheduler "thk1" with entities [Erlene (ID: 17494732/0x010AF2CC), Erlene (ID: 17494732/0x010AF2CC)], work=19*
 24: 0x0CEB [0x45] LOAD_SCHEDULED_TASK: Load scheduler "s200" with entities [LocalPlayer, LocalPlayer], work=[377*, 0*]
 25: 0x0CFC [0x1A] CALL_SUBROUTINE(address=0x5585)
 26: 0x0CFF [0x03] Work_Zone[2] = 2550*
 27: 0x0D04 [0x2B] Erlene (ID: 17494732/0x010AF2CC) [7674*]:
    → "Ah, the $0. Excellent."
 28: 0x0D0B [0x23] WAIT_FOR_DIALOG_INTERACTION
 29: 0x0D0C [0x52] END_LOAD_SCHEDULER: End scheduler "s200" with entities [LocalPlayer, LocalPlayer], work=377*
 30: 0x0D1B [0x45] LOAD_SCHEDULED_TASK: Load scheduler "s201" with entities [LocalPlayer, LocalPlayer], work=[377*, 0*]
 31: 0x0D2C [0x66] LOAD_EXT_SCHEDULER_MAIN: Load scheduler "thk2" with entities [Erlene (ID: 17494732/0x010AF2CC), Erlene (ID: 17494732/0x010AF2CC)], work=19*
 32: 0x0D3B [0x1C] WAIT(30* ticks)
 33: 0x0D3E [0x2B] Erlene (ID: 17494732/0x010AF2CC) [7675*]:
    → "While I am still rather irked at Professor Ulbrecht's imposition, it is true we scholars can never have enough vellum in stock."
 34: 0x0D45 [0x23] WAIT_FOR_DIALOG_INTERACTION
 35: 0x0D46 [0x52] END_LOAD_SCHEDULER: End scheduler "s201" with entities [LocalPlayer, LocalPlayer], work=377*
 36: 0x0D55 [0x45] LOAD_SCHEDULED_TASK: Load scheduler "s202" with entities [LocalPlayer, LocalPlayer], work=[377*, 0*]
 37: 0x0D66 [0x6E] Erlene (ID: 17494732/0x010AF2CC) uses emote 7*
 38: 0x0D6D [0x99] Wait for Erlene (ID: 17494732/0x010AF2CC) animation to complete
 39: 0x0D72 [0x2B] Erlene (ID: 17494732/0x010AF2CC) [7676*]:
    → "I have already prepared your grimoire from our available supplies, of course."
 40: 0x0D79 [0x23] WAIT_FOR_DIALOG_INTERACTION
 41: 0x0D7A [0x2B] Erlene (ID: 17494732/0x010AF2CC) [7677*]:
    → "Inside, I have inscribed a curriculum on which to base your studies."
 42: 0x0D81 [0x23] WAIT_FOR_DIALOG_INTERACTION
 43: 0x0D82 [0x3A] CONVERT_YAW_TO_BYTE(entity=Erlene (ID: 17494732/0x010AF2CC), result_destination=ExtData[1]->WorkLocal[1])
 44: 0x0D89 [0x08] ExtData[1]->WorkLocal[1] -= 512*
 45: 0x0D8E [0x4B] UPDATE_ENTITY_YAW(entity=Unnamed NPC (ID: 17494736/0x010AF2D0), yaw=ExtData[1]->WorkLocal[1])
 46: 0x0D95 [0x5C] MUSIC_CONTROL: Set Idle (Day) music to song 162*
 47: 0x0D99 [0x5C] MUSIC_CONTROL: Set Idle (Night) music to song 162*
 48: 0x0D9D [0x9A] WAIT_MUSIC_SERVER()
 49: 0x0D9E [0x52] END_LOAD_SCHEDULER: End scheduler "s202" with entities [LocalPlayer, LocalPlayer], work=377*
 50: 0x0DAD [0x45] LOAD_SCHEDULED_TASK: Load scheduler "s203" with entities [LocalPlayer, LocalPlayer], work=[377*, 0*]
 51: 0x0DBE [0x2B] Erlene (ID: 17494732/0x010AF2CC) [7678*]:
    → "Your grimoire is both magical tome and tactical manual. A military scholar fights with both intellect and knowledge--this book will be your weapon."
 52: 0x0DC5 [0x23] WAIT_FOR_DIALOG_INTERACTION
 53: 0x0DC6 [0x7B] Erlene (ID: 17494732/0x010AF2CC) stops talking
 54: 0x0DCB [0x29] REQ_SET_WAIT(priority=0x10, entity_id=Unnamed NPC (ID: 17494729/0x010AF2C9), tag_num=0x0E)
 55: 0x0DD2 [0x07] ExtData[1]->WorkLocal[1] += 1024*
 56: 0x0DD7 [0x4B] UPDATE_ENTITY_YAW(entity=Unnamed NPC (ID: 17494736/0x010AF2D0), yaw=ExtData[1]->WorkLocal[1])
 57: 0x0DDE [0x1C] WAIT(45* ticks)
 58: 0x0DE1 [0x52] END_LOAD_SCHEDULER: End scheduler "s203" with entities [LocalPlayer, LocalPlayer], work=377*
 59: 0x0DF0 [0x45] LOAD_SCHEDULED_TASK: Load scheduler "s204" with entities [LocalPlayer, LocalPlayer], work=[377*, 0*]
 60: 0x0E01 [0x27] REQ_SET(priority=0x10, entity_id=Unnamed NPC (ID: 17494729/0x010AF2C9), tag_num=0x11)
 61: 0x0E08 [0x2B] Erlene (ID: 17494732/0x010AF2CC) [7679*]:
    → "Tell me, what are the two main schools of magic? Yes, white magic and black magic. Their natures are diametrically opposed, leading most practitioners to focus on one school or the other in order to attain true mastery."
 62: 0x0E0F [0x23] WAIT_FOR_DIALOG_INTERACTION
 63: 0x0E10 [0x2A] GET_REQ_LEVEL(level=16, entity_id=Unnamed NPC (ID: 17494729/0x010AF2C9))
 64: 0x0E16 [0x52] END_LOAD_SCHEDULER: End scheduler "s204" with entities [LocalPlayer, LocalPlayer], work=377*
 65: 0x0E25 [0x45] LOAD_SCHEDULED_TASK: Load scheduler "s205" with entities [LocalPlayer, LocalPlayer], work=[377*, 0*]
 66: 0x0E36 [0x66] LOAD_EXT_SCHEDULER_MAIN: Load scheduler "tlk0" with entities [Erlene (ID: 17494732/0x010AF2CC), Erlene (ID: 17494732/0x010AF2CC)], work=19*
 67: 0x0E45 [0x2B] Erlene (ID: 17494732/0x010AF2CC) [7680*]:
    → "However, we scholars learn the laws of magic as a single theory, and thus overcome the disadvantages inherent in specialization."
 68: 0x0E4C [0x23] WAIT_FOR_DIALOG_INTERACTION
 69: 0x0E4D [0x66] LOAD_EXT_SCHEDULER_MAIN: Load scheduler "tlk1" with entities [Erlene (ID: 17494732/0x010AF2CC), Erlene (ID: 17494732/0x010AF2CC)], work=19*
 70: 0x0E5C [0x03] Work_Zone[2] = 80*
 71: 0x0E61 [0x27] REQ_SET(priority=0x10, entity_id=??? (ID: 17494728/0x010AF2C8), tag_num=0x0D)
 72: 0x0E68 [0x2B] Erlene (ID: 17494732/0x010AF2CC) [7681*]:
    → "In simple terms, we are able to utilize the full potential of both forms of magic."
 73: 0x0E6F [0x23] WAIT_FOR_DIALOG_INTERACTION
 74: 0x0E70 [0x2A] GET_REQ_LEVEL(level=16, entity_id=??? (ID: 17494728/0x010AF2C8))
 75: 0x0E76 [0x5B] LOAD_EXT_SCHEDULER: Load scheduler "sck0" with entities [Erlene (ID: 17494732/0x010AF2CC), Erlene (ID: 17494732/0x010AF2CC)], work=1290*
 76: 0x0E85 [0x1C] WAIT(30* ticks)
 77: 0x0E88 [0x52] END_LOAD_SCHEDULER: End scheduler "s205" with entities [LocalPlayer, LocalPlayer], work=377*
 78: 0x0E97 [0x45] LOAD_SCHEDULED_TASK: Load scheduler "s206" with entities [LocalPlayer, LocalPlayer], work=[377*, 0*]
 79: 0x0EA8 [0x1C] WAIT(90* ticks)
 80: 0x0EAB [0x2B] Erlene (ID: 17494732/0x010AF2CC) [7682*]:
    → "From a tactical point of view, a scholar can choose the incantation most suitable for the task at hand, regardless of school. That is the strength that lies at the heart of the Schultz School of Martial Theory."
 81: 0x0EB2 [0x23] WAIT_FOR_DIALOG_INTERACTION
 82: 0x0EB3 [0x5D] SET_MUSIC_VOLUME(volume=0*, fade_time=300*)
 83: 0x0EB8 [0x1C] WAIT(60* ticks)
 84: 0x0EBB [0x5B] LOAD_EXT_SCHEDULER: Load scheduler "sck1" with entities [Erlene (ID: 17494732/0x010AF2CC), Erlene (ID: 17494732/0x010AF2CC)], work=1290*
 85: 0x0ECA [0x03] Work_Zone[2] = 75*
 86: 0x0ECF [0x27] REQ_SET(priority=0x10, entity_id=??? (ID: 17494728/0x010AF2C8), tag_num=0x0D)
 87: 0x0ED6 [0x2B] Erlene (ID: 17494732/0x010AF2CC) [7683*]:
    → "But rather than listen to me drone, you would be better served by reading the grimoire and experiencing the theory for yourself. One learns faster through "doing," yes?"
 88: 0x0EDD [0x23] WAIT_FOR_DIALOG_INTERACTION
 89: 0x0EDE [0x2A] GET_REQ_LEVEL(level=16, entity_id=??? (ID: 17494728/0x010AF2C8))
 90: 0x0EE4 [0x27] REQ_SET(priority=0x10, entity_id=Erlene (ID: 17494732/0x010AF2CC), tag_num=0x11)
 91: 0x0EEB [0x1C] WAIT(20* ticks)
 92: 0x0EEE [0x52] END_LOAD_SCHEDULER: End scheduler "s206" with entities [LocalPlayer, LocalPlayer], work=377*
 93: 0x0EFD [0x45] LOAD_SCHEDULED_TASK: Load scheduler "s207" with entities [LocalPlayer, LocalPlayer], work=[377*, 0*]
 94: 0x0F0E [0x2B] Erlene (ID: 17494732/0x010AF2CC) [7684*]:
    → "Very well. Let's have you read the first page while producing an "arcane tap" effect."
 95: 0x0F15 [0x23] WAIT_FOR_DIALOG_INTERACTION
 96: 0x0F16 [0x2B] Erlene (ID: 17494732/0x010AF2CC) [7685*]:
    → "This manifestation of arcane energy will trigger the astral properties of the grimoire, and empower the words within."
 97: 0x0F1D [0x23] WAIT_FOR_DIALOG_INTERACTION
 98: 0x0F1E [0x2A] GET_REQ_LEVEL(level=16, entity_id=Erlene (ID: 17494732/0x010AF2CC))
 99: 0x0F24 [0xBA] SET_ENTITY_POSITION(entity_id=Unnamed NPC (ID: 17494736/0x010AF2D0), pos_x=378.033*, pos_z=19.841*, pos_y=-39.999*, direction=186.6°*)
100: 0x0F31 [0x5C] MUSIC_CONTROL: Set Idle (Day) music to song 180*
101: 0x0F35 [0x5C] MUSIC_CONTROL: Set Idle (Night) music to song 180*
102: 0x0F39 [0x9A] WAIT_MUSIC_SERVER()
103: 0x0F3A [0x52] END_LOAD_SCHEDULER: End scheduler "s207" with entities [LocalPlayer, LocalPlayer], work=377*
104: 0x0F49 [0x45] LOAD_SCHEDULED_TASK: Load scheduler "s208" with entities [LocalPlayer, LocalPlayer], work=[377*, 0*]
105: 0x0F5A [0x66] LOAD_EXT_SCHEDULER_MAIN: Load scheduler "pas0" with entities [Erlene (ID: 17494732/0x010AF2CC), Erlene (ID: 17494732/0x010AF2CC)], work=89*
106: 0x0F69 [0x03] Work_Zone[2] = 180*
107: 0x0F6E [0x27] REQ_SET(priority=0x10, entity_id=??? (ID: 17494728/0x010AF2C8), tag_num=0x0D)
108: 0x0F75 [0x2B] Erlene (ID: 17494732/0x010AF2CC) [7686*]:
    → "It will also serve to attune the tome to your personal astral signature."
109: 0x0F7C [0x23] WAIT_FOR_DIALOG_INTERACTION
110: 0x0F7D [0x2A] GET_REQ_LEVEL(level=16, entity_id=??? (ID: 17494728/0x010AF2C8))
111: 0x0F83 [0x52] END_LOAD_SCHEDULER: End scheduler "s208" with entities [LocalPlayer, LocalPlayer], work=377*
112: 0x0F92 [0x45] LOAD_SCHEDULED_TASK: Load scheduler "s209" with entities [LocalPlayer, LocalPlayer], work=[377*, 0*]
113: 0x0FA3 [0x2B] Erlene (ID: 17494732/0x010AF2CC) [7687*]:
    → "Ah..."
114: 0x0FAA [0x23] WAIT_FOR_DIALOG_INTERACTION
115: 0x0FAB [0x66] LOAD_EXT_SCHEDULER_MAIN: Load scheduler "pas1" with entities [Erlene (ID: 17494732/0x010AF2CC), Erlene (ID: 17494732/0x010AF2CC)], work=89*
116: 0x0FBA [0x03] Work_Zone[2] = 80*
117: 0x0FBF [0x27] REQ_SET(priority=0x10, entity_id=??? (ID: 17494728/0x010AF2C8), tag_num=0x0D)
118: 0x0FC6 [0x1C] WAIT(30* ticks)
119: 0x0FC9 [0x2B] Erlene (ID: 17494732/0x010AF2CC) [7688*]:
    → "An arcane tap effect is somewhat different to the sudden burst of magic provided by spells such as "Fire." It is a steady stream of magical energy."
120: 0x0FD0 [0x23] WAIT_FOR_DIALOG_INTERACTION
121: 0x0FD1 [0x2A] GET_REQ_LEVEL(level=16, entity_id=??? (ID: 17494728/0x010AF2C8))
122: 0x0FD7 [0x27] REQ_SET(priority=0x10, entity_id=Erlene (ID: 17494732/0x010AF2CC), tag_num=0x12)
123: 0x0FDE [0x52] END_LOAD_SCHEDULER: End scheduler "s209" with entities [LocalPlayer, LocalPlayer], work=377*
124: 0x0FED [0x45] LOAD_SCHEDULED_TASK: Load scheduler "s210" with entities [LocalPlayer, LocalPlayer], work=[377*, 0*]
125: 0x0FFE [0x1C] WAIT(30* ticks)
126: 0x1001 [0x2B] Erlene (ID: 17494732/0x010AF2CC) [7689*]:
    → "Both "Manafont" and "Chainspell" are examples of arcane tap effects. How else can I explain...?"
127: 0x1008 [0x23] WAIT_FOR_DIALOG_INTERACTION
128: 0x1009 [0x2A] GET_REQ_LEVEL(level=16, entity_id=Erlene (ID: 17494732/0x010AF2CC))
129: 0x100F [0x4A] Erlene (ID: 17494732/0x010AF2CC) looks at LocalPlayer
130: 0x1018 [0x52] END_LOAD_SCHEDULER: End scheduler "s210" with entities [LocalPlayer, LocalPlayer], work=377*
131: 0x1027 [0x45] LOAD_SCHEDULED_TASK: Load scheduler "s211" with entities [LocalPlayer, LocalPlayer], work=[377*, 0*]
132: 0x1038 [0x6F] WAIT_FRAME_DELAY: Yield until WaitTime reaches zero
133: 0x1039 [0x76] CHECK_ENTITY_RENDER_FLAGS: Wait until Erlene (ID: 17494732/0x010AF2CC) Render.Flags0 and Render.Flags3 conditions are met
134: 0x103E [0x2B] Erlene (ID: 17494732/0x010AF2CC) [7690*]:
    → "Ah, yes. While similar, "Benediction" will not produce the required energy. The magical power of such abilities dissipate at the culmination of spellcasting."
135: 0x1045 [0x23] WAIT_FOR_DIALOG_INTERACTION
136: 0x1046 [0x3A] CONVERT_YAW_TO_BYTE(entity=Erlene (ID: 17494732/0x010AF2CC), result_destination=ExtData[1]->WorkLocal[1])
137: 0x104D [0x07] ExtData[1]->WorkLocal[1] += 640*
138: 0x1052 [0x4B] UPDATE_ENTITY_YAW(entity=Unnamed NPC (ID: 17494736/0x010AF2D0), yaw=ExtData[1]->WorkLocal[1])
139: 0x1059 [0x52] END_LOAD_SCHEDULER: End scheduler "s211" with entities [LocalPlayer, LocalPlayer], work=377*
140: 0x1068 [0x45] LOAD_SCHEDULED_TASK: Load scheduler "s212" with entities [LocalPlayer, LocalPlayer], work=[377*, 0*]
141: 0x1079 [0x27] REQ_SET(priority=0x10, entity_id=Unnamed NPC (ID: 17494729/0x010AF2C9), tag_num=0x0F)
142: 0x1080 [0x2B] Erlene (ID: 17494732/0x010AF2CC) [7691*]:
    → "Do you understand the difference?"
143: 0x1087 [0x23] WAIT_FOR_DIALOG_INTERACTION
144: 0x1088 [0x2A] GET_REQ_LEVEL(level=16, entity_id=Unnamed NPC (ID: 17494729/0x010AF2C9))
145: 0x108E [0x2B] Erlene (ID: 17494732/0x010AF2CC) [7692*]:
    → "Now, initiate whichever arcane tap effect is available to you, and open the grimoire to the first page in order to complete the attunement process."
146: 0x1095 [0x23] WAIT_FOR_DIALOG_INTERACTION
147: 0x1096 [0x02] IF !(ExtData[1]->WorkLocal[0] == 1*) GOTO 0x1176
148: 0x109E [0x5D] SET_MUSIC_VOLUME(volume=0*, fade_time=600*)
149: 0x10A3 [0x7B] Erlene (ID: 17494732/0x010AF2CC) stops talking
150: 0x10A8 [0x52] END_LOAD_SCHEDULER: End scheduler "s212" with entities [LocalPlayer, LocalPlayer], work=377*
151: 0x10B7 [0x45] LOAD_SCHEDULED_TASK: Load scheduler "s213" with entities [LocalPlayer, LocalPlayer], work=[377*, 0*]
152: 0x10C8 [0x66] LOAD_EXT_SCHEDULER_MAIN: Load scheduler "thk1" with entities [Erlene (ID: 17494732/0x010AF2CC), Erlene (ID: 17494732/0x010AF2CC)], work=19*
153: 0x10D7 [0x2B] Erlene (ID: 17494732/0x010AF2CC) [7693*]:
    → "Hmm, if I'm not mistaken, it appears you are not currently capable of tapping into a steady source of arcane energy..."
154: 0x10DE [0x23] WAIT_FOR_DIALOG_INTERACTION
155: 0x10DF [0x52] END_LOAD_SCHEDULER: End scheduler "s213" with entities [LocalPlayer, LocalPlayer], work=377*
156: 0x10EE [0x45] LOAD_SCHEDULED_TASK: Load scheduler "s215" with entities [LocalPlayer, LocalPlayer], work=[377*, 0*]
157: 0x10FF [0x2B] Erlene (ID: 17494732/0x010AF2CC) [7694*]:
    → "How vexing. You must have the ability to produce an arcane tap effect, or we cannot proceed with the attunement."
158: 0x1106 [0x23] WAIT_FOR_DIALOG_INTERACTION
159: 0x1107 [0x52] END_LOAD_SCHEDULER: End scheduler "s215" with entities [LocalPlayer, LocalPlayer], work=377*
160: 0x1116 [0x45] LOAD_SCHEDULED_TASK: Load scheduler "s214" with entities [LocalPlayer, LocalPlayer], work=[377*, 0*]
161: 0x1127 [0x66] LOAD_EXT_SCHEDULER_MAIN: Load scheduler "thk2" with entities [Erlene (ID: 17494732/0x010AF2CC), Erlene (ID: 17494732/0x010AF2CC)], work=19*
162: 0x1136 [0x03] Work_Zone[2] = 80*
163: 0x113B [0x27] REQ_SET(priority=0x10, entity_id=??? (ID: 17494728/0x010AF2C8), tag_num=0x0D)
164: 0x1142 [0x2B] Erlene (ID: 17494732/0x010AF2CC) [7695*]:
    → "It must be a source of magic originating from the applicant..."
165: 0x1149 [0x23] WAIT_FOR_DIALOG_INTERACTION
166: 0x114A [0x2A] GET_REQ_LEVEL(level=16, entity_id=??? (ID: 17494728/0x010AF2C8))
167: 0x1150 [0x66] LOAD_EXT_SCHEDULER_MAIN: Load scheduler "tlk0" with entities [Erlene (ID: 17494732/0x010AF2CC), Erlene (ID: 17494732/0x010AF2CC)], work=19*
168: 0x115F [0x2B] Erlene (ID: 17494732/0x010AF2CC) [7696*]:
    → "I'm sorry, this is a stumbling block that you alone must overcome."
169: 0x1166 [0x23] WAIT_FOR_DIALOG_INTERACTION
170: 0x1167 [0x66] LOAD_EXT_SCHEDULER_MAIN: Load scheduler "tlk1" with entities [Erlene (ID: 17494732/0x010AF2CC), Erlene (ID: 17494732/0x010AF2CC)], work=19*
171: 0x1176 [0x1A] CALL_SUBROUTINE(address=0x55A6)
172: 0x1179 [0x1C] WAIT(30* ticks)
173: 0x117C [0x52] END_LOAD_SCHEDULER: End scheduler "s212" with entities [LocalPlayer, LocalPlayer], work=377*
174: 0x118B [0x52] END_LOAD_SCHEDULER: End scheduler "s214" with entities [LocalPlayer, LocalPlayer], work=377*
175: 0x119A [0x45] LOAD_SCHEDULED_TASK: Load scheduler "0blf" with entities [LocalPlayer, LocalPlayer], work=[377*, 0*]
176: 0x11AB [0x5C] MUSIC_CONTROL: Set Idle (Day) music to song 0*
177: 0x11AF [0x5C] MUSIC_CONTROL: Set Idle (Night) music to song 0*
178: 0x11B3 [0x9A] WAIT_MUSIC_SERVER()
179: 0x11B4 [0x46] CAMERA_CONTROL: Restore default settings
180: 0x11B6 [0x45] LOAD_SCHEDULED_TASK: Load scheduler "fdi2" with entities [LocalPlayer, LocalPlayer], work=[200*, 0*]
181: 0x11C7 [0x21] END_EVENT
182: 0x11C8 [0x00] END_REQSTACK()
```

### Event 14

#### Metadata

| Field        | Value      |
|--------------|------------|
