# 17494733 - Ulbrecht

## Common Data

| Field            | Value                                |
|------------------|--------------------------------------|
| Zone             | The Eldieme Necropolis [S] (ID: 175) |
| Block Size       | 876 bytes                            |
| Total Events     | 29                                   |
| References Count | 38                                   |

## List of Events

| Event ID                   | Entrypoint   |   Size |   Instructions |
|----------------------------|--------------|--------|----------------|
| [65535](#event-65535)      | 0x0000       |      1 |              1 |
| [65535.1](#event-655351)   | 0x0001       |      1 |              1 |
| [65535.2](#event-655352)   | 0x0002       |     18 |              4 |
| [65535.3](#event-655353)   | 0x0014       |     10 |              2 |
| [65535.4](#event-655354)   | 0x001E       |      9 |              3 |
| [65535.5](#event-655355)   | 0x0027       |      9 |              3 |
| [65535.6](#event-655356)   | 0x0030       |     10 |              2 |
| [65535.7](#event-655357)   | 0x003A       |     10 |              2 |
| [10](#event-10)            | 0x0044       |      1 |              1 |
| [14](#event-14)            | 0x0045       |      1 |              1 |
| [65535.8](#event-655358)   | 0x0046       |     25 |              6 |
| [65535.9](#event-655359)   | 0x005F       |     22 |              6 |
| [65535.10](#event-6553510) | 0x0075       |     15 |              5 |
| [65535.11](#event-6553511) | 0x0084       |     15 |              5 |
| [65535.12](#event-6553512) | 0x0093       |     15 |              5 |
| [65535.13](#event-6553513) | 0x00A2       |     20 |              6 |
| [18](#event-18)            | 0x00B6       |      1 |              1 |
| [20](#event-20)            | 0x00B7       |      1 |              1 |
| [65535.14](#event-6553514) | 0x00B8       |     17 |              6 |
| [65535.15](#event-6553515) | 0x00C9       |     15 |              5 |
| [27](#event-27)            | 0x00D8       |     21 |              2 |
| [65535.16](#event-6553516) | 0x00ED       |     26 |              3 |
| [65535.17](#event-6553517) | 0x0107       |     21 |              2 |
| [29](#event-29)            | 0x011C       |      1 |              1 |
| [65535.18](#event-6553518) | 0x011D       |     33 |              5 |
| [65535.19](#event-6553519) | 0x013E       |     31 |              5 |
| [32](#event-32)            | 0x015D       |     21 |              2 |
| [65535.20](#event-6553520) | 0x0172       |     37 |              5 |
| [65535.21](#event-6553521) | 0x0197       |    185 |             37 |

## DAT References (imed_data)

|   Index | Hex Value   |   Dec Value |
|---------|-------------|-------------|
|       0 | 0x0000      |           0 |
|       1 | 0x0001      |           1 |
|       2 | 0x0080      |         128 |
|       3 | 0x000B      |          11 |
|       4 | 0x5C70C     |      378636 |
|       5 | 0x5460      |       21600 |
|       6 | 0xFFFF63C1  |  4294927297 |
|       7 | 0x5E8CD     |      387277 |
|       8 | 0x4DAE      |       19886 |
|       9 | 0x07EB      |        2027 |
|      10 | 0x635B5     |      406965 |
|      11 | 0x4A1B      |       18971 |
|      12 | 0x5C59B     |      378267 |
|      13 | 0x4EED      |       20205 |
|      14 | 0xFFFF63C0  |  4294927296 |
|      15 | 0x000D      |          13 |
|      16 | 0x5C707     |      378631 |
|      17 | 0x5C99      |       23705 |
|      18 | 0x5C9C2     |      379330 |
|      19 | 0x54DF      |       21727 |
|      20 | 0x5CB2A     |      379690 |
|      21 | 0x88D5      |       35029 |
|      22 | 0x0028      |          40 |
|      23 | 0x5CBED     |      379885 |
|      24 | 0x87C4      |       34756 |
|      25 | 0x0007      |           7 |
|      26 | 0x00D6      |         214 |
|      27 | 0x00B1      |         177 |
|      28 | 0x0083      |         131 |
|      29 | 0x0064      |         100 |
|      30 | 0x0069      |         105 |
|      31 | 0x0005      |           5 |
|      32 | 0x0002      |           2 |
|      33 | 0x000A      |          10 |
|      34 | 0x0009      |           9 |
|      35 | 0x0046      |          70 |
|      36 | 0x008C      |         140 |
|      37 | 0x00D2      |         210 |

## Events

### Event 65535

#### Metadata

| Field        | Value   |
|--------------|---------|
| Entrypoint   | 0x0000  |
| Data Size    | 1 bytes |
| Instructions | 1       |

```
      00 01 02 03 04 05 06 07  08 09 0A 0B 0C 0D 0E 0F
      -- -- -- -- -- -- -- --  -- -- -- -- -- -- -- --
0000: 00                                                .               
```

#### Opcodes

```
  0: 0x0000 [0x00] END_REQSTACK()
```

### Event 65535.1

#### Metadata

| Field        | Value   |
|--------------|---------|
| Entrypoint   | 0x0001  |
| Data Size    | 1 bytes |
| Instructions | 1       |

```
      00 01 02 03 04 05 06 07  08 09 0A 0B 0C 0D 0E 0F
      -- -- -- -- -- -- -- --  -- -- -- -- -- -- -- --
0000:    00                                              .              
```

#### Opcodes

```
  0: 0x0001 [0x00] END_REQSTACK()
```

### Event 65535.2

#### Metadata

| Field        | Value    |
|--------------|----------|
| Entrypoint   | 0x0002   |
| Data Size    | 18 bytes |
| Instructions | 4        |

```
      00 01 02 03 04 05 06 07  08 09 0A 0B 0C 0D 0E 0F
      -- -- -- -- -- -- -- --  -- -- -- -- -- -- -- --
0000:       22 00 2F 00 F8 FF  FF 7F 6C F8 FF FF 7F 00    "./.....l.....
0010: 80 01 80 00                                       ....            
```

#### Opcodes

```
  0: 0x0002 [0x22] ENTITY_HIDE_FLAG(enabled=0x00)
  1: 0x0004 [0x2F] EventEntity->Render.Flags0 &= ~0x80000 // Bit 19
  2: 0x000A [0x6C] FADE_ENTITY_COLOR(entity_id=EventEntity, end_alpha=0*, fade_time=1*)
  3: 0x0013 [0x00] END_REQSTACK()
```

### Event 65535.3

#### Metadata

| Field        | Value    |
|--------------|----------|
| Entrypoint   | 0x0014   |
| Data Size    | 10 bytes |
| Instructions | 2        |

```
      00 01 02 03 04 05 06 07  08 09 0A 0B 0C 0D 0E 0F
      -- -- -- -- -- -- -- --  -- -- -- -- -- -- -- --
0010:             6C F8 FF FF  7F 02 80 01 80 00            l.........  
```

#### Opcodes

```
  0: 0x0014 [0x6C] FADE_ENTITY_COLOR(entity_id=EventEntity, end_alpha=128*, fade_time=1*)
  1: 0x001D [0x00] END_REQSTACK()
```

### Event 65535.4

#### Metadata

| Field        | Value   |
|--------------|---------|
| Entrypoint   | 0x001E  |
| Data Size    | 9 bytes |
| Instructions | 3       |

```
      00 01 02 03 04 05 06 07  08 09 0A 0B 0C 0D 0E 0F
      -- -- -- -- -- -- -- --  -- -- -- -- -- -- -- --
0010:                                            22 00                ".
0020: 2F 00 F8 FF FF 7F 00                              /......         
```

#### Opcodes

```
  0: 0x001E [0x22] ENTITY_HIDE_FLAG(enabled=0x00)
  1: 0x0020 [0x2F] EventEntity->Render.Flags0 &= ~0x80000 // Bit 19
  2: 0x0026 [0x00] END_REQSTACK()
```

### Event 65535.5

#### Metadata

| Field        | Value   |
|--------------|---------|
| Entrypoint   | 0x0027  |
| Data Size    | 9 bytes |
| Instructions | 3       |

```
      00 01 02 03 04 05 06 07  08 09 0A 0B 0C 0D 0E 0F
      -- -- -- -- -- -- -- --  -- -- -- -- -- -- -- --
0020:                      22  01 2F 01 F8 FF FF 7F 00         "./......
```

#### Opcodes

```
  0: 0x0027 [0x22] ENTITY_HIDE_FLAG(enabled=0x01)
  1: 0x0029 [0x2F] EventEntity->Render.Flags0 |= 0x80000 // Bit 19
  2: 0x002F [0x00] END_REQSTACK()
```

### Event 65535.6

#### Metadata

| Field        | Value    |
|--------------|----------|
| Entrypoint   | 0x0030   |
| Data Size    | 10 bytes |
| Instructions | 2        |

```
      00 01 02 03 04 05 06 07  08 09 0A 0B 0C 0D 0E 0F
      -- -- -- -- -- -- -- --  -- -- -- -- -- -- -- --
0030: 6C F8 FF FF 7F 00 80 01  80 00                    l.........      
```

#### Opcodes

```
  0: 0x0030 [0x6C] FADE_ENTITY_COLOR(entity_id=EventEntity, end_alpha=0*, fade_time=1*)
  1: 0x0039 [0x00] END_REQSTACK()
```

### Event 65535.7

#### Metadata

| Field        | Value    |
|--------------|----------|
| Entrypoint   | 0x003A   |
| Data Size    | 10 bytes |
| Instructions | 2        |

```
      00 01 02 03 04 05 06 07  08 09 0A 0B 0C 0D 0E 0F
      -- -- -- -- -- -- -- --  -- -- -- -- -- -- -- --
0030:                                6C F8 FF FF 7F 02            l.....
0040: 80 01 80 00                                       ....            
```

#### Opcodes

```
  0: 0x003A [0x6C] FADE_ENTITY_COLOR(entity_id=EventEntity, end_alpha=128*, fade_time=1*)
  1: 0x0043 [0x00] END_REQSTACK()
```

### Event 10

#### Metadata

| Field        | Value   |
|--------------|---------|
| Entrypoint   | 0x0044  |
| Data Size    | 1 bytes |
| Instructions | 1       |

```
      00 01 02 03 04 05 06 07  08 09 0A 0B 0C 0D 0E 0F
      -- -- -- -- -- -- -- --  -- -- -- -- -- -- -- --
0040:             00                                        .           
```

#### Opcodes

```
  0: 0x0044 [0x00] END_REQSTACK()
```

### Event 14

#### Metadata

| Field        | Value   |
|--------------|---------|
| Entrypoint   | 0x0045  |
| Data Size    | 1 bytes |
| Instructions | 1       |

```
      00 01 02 03 04 05 06 07  08 09 0A 0B 0C 0D 0E 0F
      -- -- -- -- -- -- -- --  -- -- -- -- -- -- -- --
0040:                00                                      .          
```

#### Opcodes

```
  0: 0x0045 [0x00] END_REQSTACK()
```

### Event 65535.8

#### Metadata

| Field        | Value    |
|--------------|----------|
| Entrypoint   | 0x0046   |
| Data Size    | 25 bytes |
| Instructions | 6        |

```
      00 01 02 03 04 05 06 07  08 09 0A 0B 0C 0D 0E 0F
      -- -- -- -- -- -- -- --  -- -- -- -- -- -- -- --
0040:                   79 00  F8 FF FF 7F F0 FF FF 7F        y.........
0050: 32 03 80 1F 00 04 80 05  80 06 80 1F 01 6F 00     2............o. 
```

#### Opcodes

```
  0: 0x0046 [0x79] EventEntity looks at LocalPlayer (Basic look)
  1: 0x0050 [0x32] ExtData[1]->MainSpeed = 11* * 0.1
  2: 0x0053 [0x1F] MOVE_ENTITY: EventEntity moves to X=378.636*, Z=21.600*, Y=-39.999*
  3: 0x005B [0x1F] MOVE_ENTITY: Update entity position (mode=1)
  4: 0x005D [0x6F] WAIT_FRAME_DELAY: Yield until WaitTime reaches zero
  5: 0x005E [0x00] END_REQSTACK()
```

### Event 65535.9

#### Metadata

| Field        | Value    |
|--------------|----------|
| Entrypoint   | 0x005F   |
| Data Size    | 22 bytes |
| Instructions | 6        |

```
      00 01 02 03 04 05 06 07  08 09 0A 0B 0C 0D 0E 0F
      -- -- -- -- -- -- -- --  -- -- -- -- -- -- -- --
0050:                                               32                 2
0060: 03 80 1F 00 07 80 08 80  06 80 1F 01 6F 4B F8 FF  ............oK..
0070: FF 7F 09 80 00                                    .....           
```

#### Opcodes

```
  0: 0x005F [0x32] ExtData[1]->MainSpeed = 11* * 0.1
  1: 0x0062 [0x1F] MOVE_ENTITY: EventEntity moves to X=387.277*, Z=19.886*, Y=-39.999*
  2: 0x006A [0x1F] MOVE_ENTITY: Update entity position (mode=1)
  3: 0x006C [0x6F] WAIT_FRAME_DELAY: Yield until WaitTime reaches zero
  4: 0x006D [0x4B] UPDATE_ENTITY_YAW(entity=EventEntity, yaw=11.1°*)
  5: 0x0074 [0x00] END_REQSTACK()
```

### Event 65535.10

#### Metadata

| Field        | Value    |
|--------------|----------|
| Entrypoint   | 0x0075   |
| Data Size    | 15 bytes |
| Instructions | 5        |

```
      00 01 02 03 04 05 06 07  08 09 0A 0B 0C 0D 0E 0F
      -- -- -- -- -- -- -- --  -- -- -- -- -- -- -- --
0070:                32 03 80  1F 00 0A 80 0B 80 06 80       2..........
0080: 1F 01 6F 00                                       ..o.            
```

#### Opcodes

```
  0: 0x0075 [0x32] ExtData[1]->MainSpeed = 11* * 0.1
  1: 0x0078 [0x1F] MOVE_ENTITY: EventEntity moves to X=406.965*, Z=18.971*, Y=-39.999*
  2: 0x0080 [0x1F] MOVE_ENTITY: Update entity position (mode=1)
  3: 0x0082 [0x6F] WAIT_FRAME_DELAY: Yield until WaitTime reaches zero
  4: 0x0083 [0x00] END_REQSTACK()
```

### Event 65535.11

#### Metadata

| Field        | Value    |
|--------------|----------|
| Entrypoint   | 0x0084   |
| Data Size    | 15 bytes |
| Instructions | 5        |

```
      00 01 02 03 04 05 06 07  08 09 0A 0B 0C 0D 0E 0F
      -- -- -- -- -- -- -- --  -- -- -- -- -- -- -- --
0080:             32 03 80 1F  00 0C 80 0D 80 0E 80 1F      2...........
0090: 01 6F 00                                          .o.             
```

#### Opcodes

```
  0: 0x0084 [0x32] ExtData[1]->MainSpeed = 11* * 0.1
  1: 0x0087 [0x1F] MOVE_ENTITY: EventEntity moves to X=378.267*, Z=20.205*, Y=-40.000*
  2: 0x008F [0x1F] MOVE_ENTITY: Update entity position (mode=1)
  3: 0x0091 [0x6F] WAIT_FRAME_DELAY: Yield until WaitTime reaches zero
  4: 0x0092 [0x00] END_REQSTACK()
```

### Event 65535.12

#### Metadata

| Field        | Value    |
|--------------|----------|
| Entrypoint   | 0x0093   |
| Data Size    | 15 bytes |
| Instructions | 5        |

```
      00 01 02 03 04 05 06 07  08 09 0A 0B 0C 0D 0E 0F
      -- -- -- -- -- -- -- --  -- -- -- -- -- -- -- --
0090:          32 0F 80 1F 00  10 80 11 80 0E 80 1F 01     2............
00A0: 6F 00                                             o.              
```

#### Opcodes

```
  0: 0x0093 [0x32] ExtData[1]->MainSpeed = 13* * 0.1
  1: 0x0096 [0x1F] MOVE_ENTITY: EventEntity moves to X=378.631*, Z=23.705*, Y=-40.000*
  2: 0x009E [0x1F] MOVE_ENTITY: Update entity position (mode=1)
  3: 0x00A0 [0x6F] WAIT_FRAME_DELAY: Yield until WaitTime reaches zero
  4: 0x00A1 [0x00] END_REQSTACK()
```

### Event 65535.13

#### Metadata

| Field        | Value    |
|--------------|----------|
| Entrypoint   | 0x00A2   |
| Data Size    | 20 bytes |
| Instructions | 6        |

```
      00 01 02 03 04 05 06 07  08 09 0A 0B 0C 0D 0E 0F
      -- -- -- -- -- -- -- --  -- -- -- -- -- -- -- --
00A0:       32 03 80 1F 00 12  80 13 80 06 80 1F 01 6F    2............o
00B0: 1E CE F2 0A 01 00                                 ......          
```

#### Opcodes

```
  0: 0x00A2 [0x32] ExtData[1]->MainSpeed = 11* * 0.1
  1: 0x00A5 [0x1F] MOVE_ENTITY: EventEntity moves to X=379.330*, Z=21.727*, Y=-39.999*
  2: 0x00AD [0x1F] MOVE_ENTITY: Update entity position (mode=1)
  3: 0x00AF [0x6F] WAIT_FRAME_DELAY: Yield until WaitTime reaches zero
  4: 0x00B0 [0x1E] EventEntity looks at Schultz (ID: 17494734/0x010AF2CE) and starts talking
  5: 0x00B5 [0x00] END_REQSTACK()
```

### Event 18

#### Metadata

| Field        | Value   |
|--------------|---------|
| Entrypoint   | 0x00B6  |
| Data Size    | 1 bytes |
| Instructions | 1       |

```
      00 01 02 03 04 05 06 07  08 09 0A 0B 0C 0D 0E 0F
      -- -- -- -- -- -- -- --  -- -- -- -- -- -- -- --
00B0:                   00                                    .         
```

#### Opcodes

```
  0: 0x00B6 [0x00] END_REQSTACK()
```

### Event 20

#### Metadata

| Field        | Value   |
|--------------|---------|
| Entrypoint   | 0x00B7  |
| Data Size    | 1 bytes |
| Instructions | 1       |

```
      00 01 02 03 04 05 06 07  08 09 0A 0B 0C 0D 0E 0F
      -- -- -- -- -- -- -- --  -- -- -- -- -- -- -- --
00B0:                      00                                  .        
```

#### Opcodes

```
  0: 0x00B7 [0x00] END_REQSTACK()
```

### Event 65535.14

#### Metadata

| Field        | Value    |
|--------------|----------|
| Entrypoint   | 0x00B8   |
| Data Size    | 17 bytes |
| Instructions | 6        |

```
      00 01 02 03 04 05 06 07  08 09 0A 0B 0C 0D 0E 0F
      -- -- -- -- -- -- -- --  -- -- -- -- -- -- -- --
00B0:                          32 03 80 1F 00 14 80 15          2.......
00C0: 80 06 80 1F 01 6F 22 01  00                       .....o"..       
```

#### Opcodes

```
  0: 0x00B8 [0x32] ExtData[1]->MainSpeed = 11* * 0.1
  1: 0x00BB [0x1F] MOVE_ENTITY: EventEntity moves to X=379.690*, Z=35.029*, Y=-39.999*
  2: 0x00C3 [0x1F] MOVE_ENTITY: Update entity position (mode=1)
  3: 0x00C5 [0x6F] WAIT_FRAME_DELAY: Yield until WaitTime reaches zero
  4: 0x00C6 [0x22] ENTITY_HIDE_FLAG(enabled=0x01)
  5: 0x00C8 [0x00] END_REQSTACK()
```

### Event 65535.15

#### Metadata

| Field        | Value    |
|--------------|----------|
| Entrypoint   | 0x00C9   |
| Data Size    | 15 bytes |
| Instructions | 5        |

```
      00 01 02 03 04 05 06 07  08 09 0A 0B 0C 0D 0E 0F
      -- -- -- -- -- -- -- --  -- -- -- -- -- -- -- --
00C0:                             32 16 80 1F 00 17 80           2......
00D0: 18 80 06 80 1F 01 6F 00                           ......o.        
```

#### Opcodes

```
  0: 0x00C9 [0x32] ExtData[1]->MainSpeed = 40* * 0.1
  1: 0x00CC [0x1F] MOVE_ENTITY: EventEntity moves to X=379.885*, Z=34.756*, Y=-39.999*
  2: 0x00D4 [0x1F] MOVE_ENTITY: Update entity position (mode=1)
  3: 0x00D6 [0x6F] WAIT_FRAME_DELAY: Yield until WaitTime reaches zero
  4: 0x00D7 [0x00] END_REQSTACK()
```

### Event 27

#### Metadata

| Field        | Value    |
|--------------|----------|
| Entrypoint   | 0x00D8   |
| Data Size    | 21 bytes |
| Instructions | 2        |

```
      00 01 02 03 04 05 06 07  08 09 0A 0B 0C 0D 0E 0F
      -- -- -- -- -- -- -- --  -- -- -- -- -- -- -- --
00D0:                          B6 0B 01 80 19 80 1A 80          ........
00E0: 1A 80 1A 80 1A 80 1A 80  1B 80 00 80 00           .............   
```

#### Opcodes

```
  0: 0x00D8 [0xB6] ENTITY_APPEARANCE_HANDLER(case=Full entity look, race=1*, hair=7*, head=214*, body=214*, hands=214*, legs=214*, feet=214*, main=177*, sub=0*)
  1: 0x00EC [0x00] END_REQSTACK()
```

### Event 65535.16

#### Metadata

| Field        | Value    |
|--------------|----------|
| Entrypoint   | 0x00ED   |
| Data Size    | 26 bytes |
| Instructions | 3        |

```
      00 01 02 03 04 05 06 07  08 09 0A 0B 0C 0D 0E 0F
      -- -- -- -- -- -- -- --  -- -- -- -- -- -- -- --
00E0:                                         B6 0B 01               ...
00F0: 80 19 80 00 80 1A 80 1A  80 1A 80 1A 80 1B 80 00  ................
0100: 80 80 F8 FF FF 7F 00                              .......         
```

#### Opcodes

```
  0: 0x00ED [0xB6] ENTITY_APPEARANCE_HANDLER(case=Full entity look, race=1*, hair=7*, head=0*, body=214*, hands=214*, legs=214*, feet=214*, main=177*, sub=0*)
  1: 0x0101 [0x80] LOAD_WAIT(entity=EventEntity)
  2: 0x0106 [0x00] END_REQSTACK()
```

### Event 65535.17

#### Metadata

| Field        | Value    |
|--------------|----------|
| Entrypoint   | 0x0107   |
| Data Size    | 21 bytes |
| Instructions | 2        |

```
      00 01 02 03 04 05 06 07  08 09 0A 0B 0C 0D 0E 0F
      -- -- -- -- -- -- -- --  -- -- -- -- -- -- -- --
0100:                      B6  0B 01 80 19 80 1A 80 1A         .........
0110: 80 1A 80 1A 80 1A 80 00  80 00 80 00              ............    
```

#### Opcodes

```
  0: 0x0107 [0xB6] ENTITY_APPEARANCE_HANDLER(case=Full entity look, race=1*, hair=7*, head=214*, body=214*, hands=214*, legs=214*, feet=214*, main=0*, sub=0*)
  1: 0x011B [0x00] END_REQSTACK()
```

### Event 29

#### Metadata

| Field        | Value   |
|--------------|---------|
| Entrypoint   | 0x011C  |
| Data Size    | 1 bytes |
| Instructions | 1       |

```
      00 01 02 03 04 05 06 07  08 09 0A 0B 0C 0D 0E 0F
      -- -- -- -- -- -- -- --  -- -- -- -- -- -- -- --
0110:                                      00                       .   
```

#### Opcodes

```
  0: 0x011C [0x00] END_REQSTACK()
```

### Event 65535.18

#### Metadata

| Field        | Value    |
|--------------|----------|
| Entrypoint   | 0x011D   |
| Data Size    | 33 bytes |
| Instructions | 5        |

```
      00 01 02 03 04 05 06 07  08 09 0A 0B 0C 0D 0E 0F
      -- -- -- -- -- -- -- --  -- -- -- -- -- -- -- --
0110:                                         B6 0B 01               ...
0120: 80 19 80 00 80 1C 80 00  80 1C 80 1C 80 00 80 00  ................
0130: 80 95 01 80 B6 0F 1D 80  80 F8 FF FF 7F 00        ..............  
```

#### Opcodes

```
  0: 0x011D [0xB6] ENTITY_APPEARANCE_HANDLER(case=Full entity look, race=1*, hair=7*, head=0*, body=131*, hands=0*, legs=131*, feet=131*, main=0*, sub=0*)
  1: 0x0131 [0x95] SETUP_EVENT_NPC: Prepare NPC for event (Render.Flags3 = 1*)
  2: 0x0134 [0xB6] ENTITY_APPEARANCE_HANDLER(case=Model size, value=100*)
  3: 0x0138 [0x80] LOAD_WAIT(entity=EventEntity)
  4: 0x013D [0x00] END_REQSTACK()
```

### Event 65535.19

#### Metadata

| Field        | Value    |
|--------------|----------|
| Entrypoint   | 0x013E   |
| Data Size    | 31 bytes |
| Instructions | 5        |

```
      00 01 02 03 04 05 06 07  08 09 0A 0B 0C 0D 0E 0F
      -- -- -- -- -- -- -- --  -- -- -- -- -- -- -- --
0130:                                            B6 0B                ..
0140: 01 80 19 80 1A 80 1A 80  1A 80 1A 80 1A 80 00 80  ................
0150: 00 80 96 B6 0F 1E 80 80  F8 FF FF 7F 00           .............   
```

#### Opcodes

```
  0: 0x013E [0xB6] ENTITY_APPEARANCE_HANDLER(case=Full entity look, race=1*, hair=7*, head=214*, body=214*, hands=214*, legs=214*, feet=214*, main=0*, sub=0*)
  1: 0x0152 [0x96] UNSET_EVENT_NPC: Restore NPC after event (removes event NPC status)
  2: 0x0153 [0xB6] ENTITY_APPEARANCE_HANDLER(case=Model size, value=105*)
  3: 0x0157 [0x80] LOAD_WAIT(entity=EventEntity)
  4: 0x015C [0x00] END_REQSTACK()
```

### Event 32

#### Metadata

| Field        | Value    |
|--------------|----------|
| Entrypoint   | 0x015D   |
| Data Size    | 21 bytes |
| Instructions | 2        |

```
      00 01 02 03 04 05 06 07  08 09 0A 0B 0C 0D 0E 0F
      -- -- -- -- -- -- -- --  -- -- -- -- -- -- -- --
0150:                                         B6 0B 01               ...
0160: 80 19 80 00 80 1A 80 1A  80 1A 80 1A 80 1B 80 00  ................
0170: 80 00                                             ..              
```

#### Opcodes

```
  0: 0x015D [0xB6] ENTITY_APPEARANCE_HANDLER(case=Full entity look, race=1*, hair=7*, head=0*, body=214*, hands=214*, legs=214*, feet=214*, main=177*, sub=0*)
  1: 0x0171 [0x00] END_REQSTACK()
```

### Event 65535.20

#### Metadata

| Field        | Value    |
|--------------|----------|
| Entrypoint   | 0x0172   |
| Data Size    | 37 bytes |
| Instructions | 5        |

```
      00 01 02 03 04 05 06 07  08 09 0A 0B 0C 0D 0E 0F
      -- -- -- -- -- -- -- --  -- -- -- -- -- -- -- --
0170:       03 00 00 07 7F 1A  BC 01 66 01 00 F8 FF FF    ........f.....
0180: 7F F8 FF FF 7F 73 68 61  30 53 F8 FF FF 7F F8 FF  .....sha0S......
0190: FF 7F 73 68 61 30 00                              ..sha0.         
```

#### Opcodes

```
  0: 0x0172 [0x03] ExtData[1]->WorkLocal[0] = Entity->Race
  1: 0x0177 [0x1A] CALL_SUBROUTINE(address=0x01BC)
  2: 0x017A [0x66] LOAD_EXT_SCHEDULER_MAIN: Load scheduler "sha0" with entities [EventEntity, EventEntity], work=ExtData[1]->WorkLocal[1]
  3: 0x0189 [0x53] WAIT_SCHEDULER_TASK: Wait for scheduler "sha0" with entities [EventEntity, EventEntity]
  4: 0x0196 [0x00] END_REQSTACK()
```

### Event 65535.21

#### Metadata

| Field        | Value     |
|--------------|-----------|
| Entrypoint   | 0x0197    |
| Data Size    | 185 bytes |
| Instructions | 13        |

```
      00 01 02 03 04 05 06 07  08 09 0A 0B 0C 0D 0E 0F
      -- -- -- -- -- -- -- --  -- -- -- -- -- -- -- --
0190:                      03  00 00 07 7F 1A BC 01 66         ........f
01A0: 01 00 F8 FF FF 7F F8 FF  FF 7F 73 68 65 31 53 F8  ..........she1S.
01B0: FF FF 7F F8 FF FF 7F 73  68 65 31 00 03 01 00 00  .......she1.....
01C0: 00 02 01 00 1F 80 05 D1  01 08 01 00 01 80 01 D6  ................
01D0: 01 08 01 00 20 80 14 01  00 21 80 07 01 00 22 80  .... ....!....".
01E0: 1B 03 01 00 00 00 02 01  00 1F 80 05 F6 01 08 01  ................
01F0: 00 01 80 01 FB 01 08 01  00 20 80 14 01 00 21 80  ......... ....!.
0200: 07 01 00 23 80 1B 03 01  00 00 00 02 01 00 1F 80  ...#............
0210: 05 1B 02 08 01 00 01 80  01 20 02 08 01 00 20 80  ......... .... .
0220: 14 01 00 21 80 07 01 00  24 80 1B 03 01 00 00 00  ...!....$.......
0230: 02 01 00 1F 80 05 40 02  08 01 00 01 80 01 45 02  ......@.......E.
0240: 08 01 00 20 80 14 01 00  21 80 07 01 00 25 80 1B  ... ....!....%..
```

#### Opcodes

```
  0: 0x0197 [0x03] ExtData[1]->WorkLocal[0] = Entity->Race
  1: 0x019C [0x1A] CALL_SUBROUTINE(address=0x01BC)
  2: 0x019F [0x66] LOAD_EXT_SCHEDULER_MAIN: Load scheduler "she1" with entities [EventEntity, EventEntity], work=ExtData[1]->WorkLocal[1]
  3: 0x01AE [0x53] WAIT_SCHEDULER_TASK: Wait for scheduler "she1" with entities [EventEntity, EventEntity]
  4: 0x01BB [0x00] END_REQSTACK()

SUBROUTINE_01BC:
  5: 0x01BC [0x03] ExtData[1]->WorkLocal[1] = ExtData[1]->WorkLocal[0]
  6: 0x01C1 [0x02] IF !(ExtData[1]->WorkLocal[1] > 5*) GOTO 0x01D1
  7: 0x01C9 [0x08] ExtData[1]->WorkLocal[1] -= 1*
  8: 0x01CE [0x01] GOTO 0x01D6
  9: 0x01D1 [0x08] ExtData[1]->WorkLocal[1] -= 2*

SUBROUTINE_01D6:
 10: 0x01D6 [0x14] ExtData[1]->WorkLocal[1] *= 10*
 11: 0x01DB [0x07] ExtData[1]->WorkLocal[1] += 9*
 12: 0x01E0 [0x1B] RETURN
```

#### Data or dead code:

```
# Dead code (unreachable instructions):
     0x01E1 [0x03] ExtData[1]->WorkLocal[1] = ExtData[1]->WorkLocal[0]
     0x01E6 [0x02] IF !(ExtData[1]->WorkLocal[1] > 5*) GOTO 0x01F6
     0x01EE [0x08] ExtData[1]->WorkLocal[1] -= 1*
     0x01F3 [0x01] GOTO 0x01FB
     0x01F6 [0x08] ExtData[1]->WorkLocal[1] -= 2*
     0x01FB [0x14] ExtData[1]->WorkLocal[1] *= 10*
     0x0200 [0x07] ExtData[1]->WorkLocal[1] += 70*
     0x0205 [0x1B] RETURN
     0x0206 [0x03] ExtData[1]->WorkLocal[1] = ExtData[1]->WorkLocal[0]
     0x020B [0x02] IF !(ExtData[1]->WorkLocal[1] > 5*) GOTO 0x021B
     0x0213 [0x08] ExtData[1]->WorkLocal[1] -= 1*
     0x0218 [0x01] GOTO 0x0220
     0x021B [0x08] ExtData[1]->WorkLocal[1] -= 2*
     0x0220 [0x14] ExtData[1]->WorkLocal[1] *= 10*
     0x0225 [0x07] ExtData[1]->WorkLocal[1] += 140*
     0x022A [0x1B] RETURN
     0x022B [0x03] ExtData[1]->WorkLocal[1] = ExtData[1]->WorkLocal[0]
     0x0230 [0x02] IF !(ExtData[1]->WorkLocal[1] > 5*) GOTO 0x0240
     0x0238 [0x08] ExtData[1]->WorkLocal[1] -= 1*
     0x023D [0x01] GOTO 0x0245
     0x0240 [0x08] ExtData[1]->WorkLocal[1] -= 2*
     0x0245 [0x14] ExtData[1]->WorkLocal[1] *= 10*
     0x024A [0x07] ExtData[1]->WorkLocal[1] += 210*
     0x024F [0x1B] RETURN
```
