# 17494796

## Common Data

| Field            | Value                                |
|------------------|--------------------------------------|
| Zone             | The Eldieme Necropolis [S] (ID: 175) |
| Block Size       | 11092 bytes                          |
| Total Events     | 3                                    |
| References Count | 234                                  |

## List of Events

| Event ID              | Entrypoint   |   Size |   Instructions |
|-----------------------|--------------|--------|----------------|
| [65535](#event-65535) | 0x0000       |    658 |             62 |
| [48](#event-48)       | 0x0292       |   2428 |            307 |
| [49](#event-49)       | 0x0C0E       |   7041 |            829 |

## DAT References (imed_data)

|   Index | Hex Value   |   Dec Value |
|---------|-------------|-------------|
|       0 | 0x00C8      |         200 |
|       1 | 0x0000      |           0 |
|       2 | 0x00C9      |         201 |
|       3 | 0x0001      |           1 |
|       4 | 0x002D      |          45 |
|       5 | 0x0002      |           2 |
|       6 | 0x001E      |          30 |
|       7 | 0x00D7      |         215 |
|       8 | 0x012C      |         300 |
|       9 | 0x0093      |         147 |
|      10 | 0xFFFC338A  |  4294718346 |
|      11 | 0x1C4E3     |      115939 |
|      12 | 0x03E7      |         999 |
|      13 | 0x0536      |        1334 |
|      14 | 0xFFFC404C  |  4294721612 |
|      15 | 0x1DE1B     |      122395 |
|      16 | 0x0406      |        1030 |
|      17 | 0x0D4A      |        3402 |
|      18 | 0xFFFC27E0  |  4294715360 |
|      19 | 0x1B021     |      110625 |
|      20 | 0x0D3F      |        3391 |
|      21 | 0xFFFC200E  |  4294713358 |
|      22 | 0x1C22D     |      115245 |
|      23 | 0x0FA3      |        4003 |
|      24 | 0xFFFC4B6F  |  4294724463 |
|      25 | 0x1B8BF     |      112831 |
|      26 | 0x006F      |         111 |
|      27 | 0xFFFC3835  |  4294719541 |
|      28 | 0x1A44E     |      107598 |
|      29 | 0x0B2B      |        2859 |
|      30 | 0xFFFC246C  |  4294714476 |
|      31 | 0x1A993     |      108947 |
|      32 | 0x01F1      |         497 |
|      33 | 0x0EE4      |        3812 |
|      34 | 0xFFFC9B2A  |  4294744874 |
|      35 | 0x18876     |      100470 |
|      36 | 0x0082      |         130 |
|      37 | 0x0A3F      |        2623 |
|      38 | 0xFFFFFBB4  |  4294966196 |
|      39 | 0x001A      |          26 |
|      40 | 0x007F      |         127 |
|      41 | 0x0369      |         873 |
|      42 | 0x005A      |          90 |
|      43 | 0x003C      |          60 |
|      44 | 0x001B      |          27 |
|      45 | 0x0087      |         135 |
|      46 | 0x230C      |        8972 |
|      47 | 0x230D      |        8973 |
|      48 | 0x0078      |         120 |
|      49 | 0x230E      |        8974 |
|      50 | 0x230F      |        8975 |
|      51 | 0x05D3      |        1491 |
|      52 | 0x2310      |        8976 |
|      53 | 0x2311      |        8977 |
|      54 | 0x2312      |        8978 |
|      55 | 0x2313      |        8979 |
|      56 | 0x2314      |        8980 |
|      57 | 0x2315      |        8981 |
|      58 | 0x2316      |        8982 |
|      59 | 0x019B      |         411 |
|      60 | 0x2317      |        8983 |
|      61 | 0x2318      |        8984 |
|      62 | 0x0007      |           7 |
|      63 | 0x0080      |         128 |
|      64 | 0x008B      |         139 |
|      65 | 0x00F0      |         240 |
|      66 | 0x2319      |        8985 |
|      67 | 0x0008      |           8 |
|      68 | 0x231A      |        8986 |
|      69 | 0x004B      |          75 |
|      70 | 0x231B      |        8987 |
|      71 | 0x0003      |           3 |
|      72 | 0x0004      |           4 |
|      73 | 0x0005      |           5 |
|      74 | 0x0006      |           6 |
|      75 | 0x231C      |        8988 |
|      76 | 0x231D      |        8989 |
|      77 | 0x0073      |         115 |
|      78 | 0x00D8      |         216 |
|      79 | 0x000F      |          15 |
|      80 | 0xFFFC3DED  |  4294721005 |
|      81 | 0x1EBC8     |      125896 |
|      82 | 0x048B      |        1163 |
|      83 | 0x033C      |         828 |
|      84 | 0xFFFC3118  |  4294717720 |
|      85 | 0x1DADB     |      121563 |
|      86 | 0x0276      |         630 |
|      87 | 0xFFFC88D2  |  4294740178 |
|      88 | 0x1981C     |      104476 |
|      89 | 0x00B2      |         178 |
|      90 | 0x0991      |        2449 |
|      91 | 0xFFFC9160  |  4294742368 |
|      92 | 0x189DF     |      100831 |
|      93 | 0xFFFFFFE6  |  4294967270 |
|      94 | 0x09E0      |        2528 |
|      95 | 0xFFFC97A0  |  4294743968 |
|      96 | 0x17FDA     |       98266 |
|      97 | 0xFFFFFE8D  |  4294966925 |
|      98 | 0x099D      |        2461 |
|      99 | 0xFFFC94B7  |  4294743223 |
|     100 | 0x1902A     |      102442 |
|     101 | 0x0070      |         112 |
|     102 | 0x09BA      |        2490 |
|     103 | 0xFFFC9CAD  |  4294745261 |
|     104 | 0x186C6     |      100038 |
|     105 | 0x008C      |         140 |
|     106 | 0x09E7      |        2535 |
|     107 | 0xFFFC1734  |  4294711092 |
|     108 | 0x19CA0     |      105632 |
|     109 | 0xFFFFF060  |  4294963296 |
|     110 | 0x0DDB      |        3547 |
|     111 | 0x052A      |        1322 |
|     112 | 0x09A0      |        2464 |
|     113 | 0xFFFC42E9  |  4294722281 |
|     114 | 0x1B18E     |      110990 |
|     115 | 0x0708      |        1800 |
|     116 | 0xFFFC4AA8  |  4294724264 |
|     117 | 0x1C581     |      116097 |
|     118 | 0x0B03      |        2819 |
|     119 | 0xFFFC50CE  |  4294725838 |
|     120 | 0x1ECAA     |      126122 |
|     121 | 0x038F      |         911 |
|     122 | 0x036A      |         874 |
|     123 | 0x2323      |        8995 |
|     124 | 0x000A      |          10 |
|     125 | 0x2324      |        8996 |
|     126 | 0x2325      |        8997 |
|     127 | 0x0067      |         103 |
|     128 | 0x00D0      |         208 |
|     129 | 0x2326      |        8998 |
|     130 | 0x0010      |          16 |
|     131 | 0x2327      |        8999 |
|     132 | 0x2328      |        9000 |
|     133 | 0x2329      |        9001 |
|     134 | 0x0014      |          20 |
|     135 | 0x00B4      |         180 |
|     136 | 0x232A      |        9002 |
|     137 | 0x232B      |        9003 |
|     138 | 0x0015      |          21 |
|     139 | 0x232C      |        9004 |
|     140 | 0x0096      |         150 |
|     141 | 0x232D      |        9005 |
|     142 | 0x232E      |        9006 |
|     143 | 0x232F      |        9007 |
|     144 | 0x00AB      |         171 |
|     145 | 0x2330      |        9008 |
|     146 | 0xFFFC3404  |  4294718468 |
|     147 | 0x1AD88     |      109960 |
|     148 | 0x03E8      |        1000 |
|     149 | 0x0766      |        1894 |
|     150 | 0x009B      |         155 |
|     151 | 0x0028      |          40 |
|     152 | 0x0030      |          48 |
|     153 | 0x2331      |        9009 |
|     154 | 0x2332      |        9010 |
|     155 | 0x2333      |        9011 |
|     156 | 0x2334      |        9012 |
|     157 | 0x2335      |        9013 |
|     158 | 0x2336      |        9014 |
|     159 | 0x00D9      |         217 |
|     160 | 0x2337      |        9015 |
|     161 | 0x0064      |         100 |
|     162 | 0x2338      |        9016 |
|     163 | 0x2339      |        9017 |
|     164 | 0xFFFC37B6  |  4294719414 |
|     165 | 0x1B8E5     |      112869 |
|     166 | 0x0BAC      |        2988 |
|     167 | 0x233A      |        9018 |
|     168 | 0xFFFC32CD  |  4294718157 |
|     169 | 0x1C36B     |      115563 |
|     170 | 0x0D53      |        3411 |
|     171 | 0x00D2      |         210 |
|     172 | 0x233B      |        9019 |
|     173 | 0x233C      |        9020 |
|     174 | 0x233D      |        9021 |
|     175 | 0x233E      |        9022 |
|     176 | 0x233F      |        9023 |
|     177 | 0xFFFC359A  |  4294718874 |
|     178 | 0x1BE48     |      114248 |
|     179 | 0x0ABE      |        2750 |
|     180 | 0x0018      |          24 |
|     181 | 0x0072      |         114 |
|     182 | 0x2340      |        9024 |
|     183 | 0xFFFC279C  |  4294715292 |
|     184 | 0x1AF35     |      110389 |
|     185 | 0x0568      |        1384 |
|     186 | 0x0054      |          84 |
|     187 | 0xFFFC3173  |  4294717811 |
|     188 | 0x1BC1E     |      113694 |
|     189 | 0x0230      |         560 |
|     190 | 0x0DF7      |        3575 |
|     191 | 0x0939      |        2361 |
|     192 | 0xFFFC3D47  |  4294720839 |
|     193 | 0x1C9B3     |      117171 |
|     194 | 0x05C1      |        1473 |
|     195 | 0x2341      |        9025 |
|     196 | 0x2342      |        9026 |
|     197 | 0x478E      |       18318 |
|     198 | 0x2343      |        9027 |
|     199 | 0xFFFC2BB3  |  4294716339 |
|     200 | 0x1B224     |      111140 |
|     201 | 0x0739      |        1849 |
|     202 | 0x09CE      |        2510 |
|     203 | 0x0367      |         871 |
|     204 | 0xFFFFFC7B  |  4294966395 |
|     205 | 0x2344      |        9028 |
|     206 | 0x2345      |        9029 |
|     207 | 0x2346      |        9030 |
|     208 | 0x2347      |        9031 |
|     209 | 0x2348      |        9032 |
|     210 | 0x2349      |        9033 |
|     211 | 0x234A      |        9034 |
|     212 | 0x234B      |        9035 |
|     213 | 0x234C      |        9036 |
|     214 | 0x234D      |        9037 |
|     215 | 0x234E      |        9038 |
|     216 | 0x0383      |         899 |
|     217 | 0x055F      |        1375 |
|     218 | 0x234F      |        9039 |
|     219 | 0x00B0      |         176 |
|     220 | 0x001D      |          29 |
|     221 | 0x2350      |        9040 |
|     222 | 0x2351      |        9041 |
|     223 | 0x0186      |         390 |
|     224 | 0x0019      |          25 |
|     225 | 0x2352      |        9042 |
|     226 | 0x2353      |        9043 |
|     227 | 0x2354      |        9044 |
|     228 | 0x2355      |        9045 |
|     229 | 0x2356      |        9046 |
|     230 | 0x2357      |        9047 |
|     231 | 0x2358      |        9048 |
|     232 | 0x2359      |        9049 |
|     233 | 0x235A      |        9050 |

## Events

### Event 65535

#### Metadata

| Field        | Value     |
|--------------|-----------|
| Entrypoint   | 0x0000    |
| Data Size    | 658 bytes |
| Instructions | 1         |

```
      00 01 02 03 04 05 06 07  08 09 0A 0B 0C 0D 0E 0F
      -- -- -- -- -- -- -- --  -- -- -- -- -- -- -- --
0000: 00 45 00 80 F0 FF FF 7F  F0 FF FF 7F 66 64 69 30  .E..........fdi0
0010: 01 80 55 00 80 F0 FF FF  7F F0 FF FF 7F 66 64 69  ..U..........fdi
0020: 30 1B 45 00 80 F0 FF FF  7F F0 FF FF 7F 66 64 6F  0.E..........fdo
0030: 30 01 80 55 00 80 F0 FF  FF 7F F0 FF FF 7F 66 64  0..U..........fd
0040: 6F 30 1B 45 00 80 F0 FF  FF 7F F0 FF FF 7F 66 64  o0.E..........fd
0050: 69 31 01 80 55 00 80 F0  FF FF 7F F0 FF FF 7F 66  i1..U..........f
0060: 64 69 31 1B 45 00 80 F0  FF FF 7F F0 FF FF 7F 66  di1.E..........f
0070: 64 6F 31 01 80 55 00 80  F0 FF FF 7F F0 FF FF 7F  do1..U..........
0080: 66 64 6F 31 1B 45 02 80  F0 FF FF 7F F0 FF FF 7F  fdo1.E..........
0090: 77 68 69 31 01 80 55 02  80 F0 FF FF 7F F0 FF FF  whi1..U.........
00A0: 7F 77 68 69 31 1B 45 02  80 F0 FF FF 7F F0 FF FF  .whi1.E.........
00B0: 7F 77 68 6F 31 01 80 55  02 80 F0 FF FF 7F F0 FF  .who1..U........
00C0: FF 7F 77 68 6F 31 1B 45  02 80 F0 FF FF 7F F0 FF  ..who1.E........
00D0: FF 7F 77 68 6F 32 01 80  55 02 80 F0 FF FF 7F F0  ..who2..U.......
00E0: FF FF 7F 77 68 6F 32 1B  45 02 80 F0 FF FF 7F F0  ...who2.E.......
00F0: FF FF 7F 77 68 6F 33 01  80 55 02 80 F0 FF FF 7F  ...who3..U......
0100: F0 FF FF 7F 77 68 6F 33  1B 62 03 80 F0 FF FF 7F  ....who3.b......
0110: F0 FF FF 7F 6D 61 69 6E  01 80 1C 04 80 45 00 80  ....main.....E..
0120: F0 FF FF 7F F0 FF FF 7F  66 64 6F 31 01 80 55 00  ........fdo1..U.
0130: 80 F0 FF FF 7F F0 FF FF  7F 66 64 6F 31 1B 45 00  .........fdo1.E.
0140: 80 F0 FF FF 7F F0 FF FF  7F 66 64 69 31 01 80 62  .........fdi1..b
0150: 05 80 F0 FF FF 7F F0 FF  FF 7F 6D 61 69 6E 01 80  ..........main..
0160: 1C 06 80 55 00 80 F0 FF  FF 7F F0 FF FF 7F 66 64  ...U..........fd
0170: 69 31 1B 45 00 80 F0 FF  FF 7F F0 FF FF 7F 62 6C  i1.E..........bl
0180: 6F 6E 01 80 45 02 80 F0  FF FF 7F F0 FF FF 7F 62  on..E..........b
0190: 6C 6F 6E 01 80 1B 45 02  80 F0 FF FF 7F F0 FF FF  lon...E.........
01A0: 7F 77 68 69 30 01 80 55  02 80 F0 FF FF 7F F0 FF  .whi0..U........
01B0: FF 7F 77 68 69 30 1B 45  02 80 F0 FF FF 7F F0 FF  ..whi0.E........
01C0: FF 7F 77 68 6F 30 01 80  55 02 80 F0 FF FF 7F F0  ..who0..U.......
01D0: FF FF 7F 77 68 6F 30 1B  45 07 80 F0 FF FF 7F F0  ...who0.E.......
01E0: FF FF 7F 65 66 6F 6E 01  80 55 07 80 F0 FF FF 7F  ...efon..U......
01F0: F0 FF FF 7F 65 66 6F 6E  1B 45 00 80 F0 FF FF 7F  ....efon.E......
0200: F0 FF FF 7F 66 64 69 73  01 80 1B 45 00 80 F0 FF  ....fdis...E....
0210: FF 7F F0 FF FF 7F 66 64  6F 73 01 80 55 00 80 F0  ......fdos..U...
0220: FF FF 7F F0 FF FF 7F 66  64 6F 73 1B 45 00 80 F0  .......fdos.E...
0230: FF FF 7F F0 FF FF 7F 66  64 69 66 01 80 1B 45 00  .......fdif...E.
0240: 80 F0 FF FF 7F F0 FF FF  7F 66 64 6F 66 01 80 55  .........fdof..U
0250: 00 80 F0 FF FF 7F F0 FF  FF 7F 66 64 6F 66 1B 45  ..........fdof.E
0260: 00 80 F0 FF FF 7F F0 FF  FF 7F 66 64 69 70 01 80  ..........fdip..
0270: 1B 45 00 80 F0 FF FF 7F  F0 FF FF 7F 66 64 6F 70  .E..........fdop
0280: 01 80 55 00 80 F0 FF FF  7F F0 FF FF 7F 66 64 6F  ..U..........fdo
0290: 70 1B                                             p.              
```

#### Opcodes

```
  0: 0x0000 [0x00] END_REQSTACK()
```

#### Data or dead code:

```
# Dead code (unreachable instructions):
     0x0001 [0x45] LOAD_SCHEDULED_TASK: Load scheduler "fdi0" with entities [LocalPlayer, LocalPlayer], work=[200*, 0*]
     0x0012 [0x55] WAIT_LOAD_SCHEDULER: Wait for scheduler "fdi0" with entities [LocalPlayer, LocalPlayer], work=200*
     0x0021 [0x1B] RETURN
     0x0022 [0x45] LOAD_SCHEDULED_TASK: Load scheduler "fdo0" with entities [LocalPlayer, LocalPlayer], work=[200*, 0*]
     0x0033 [0x55] WAIT_LOAD_SCHEDULER: Wait for scheduler "fdo0" with entities [LocalPlayer, LocalPlayer], work=200*
     0x0042 [0x1B] RETURN
     0x0043 [0x45] LOAD_SCHEDULED_TASK: Load scheduler "fdi1" with entities [LocalPlayer, LocalPlayer], work=[200*, 0*]
     0x0054 [0x55] WAIT_LOAD_SCHEDULER: Wait for scheduler "fdi1" with entities [LocalPlayer, LocalPlayer], work=200*
     0x0063 [0x1B] RETURN
     0x0064 [0x45] LOAD_SCHEDULED_TASK: Load scheduler "fdo1" with entities [LocalPlayer, LocalPlayer], work=[200*, 0*]
     0x0075 [0x55] WAIT_LOAD_SCHEDULER: Wait for scheduler "fdo1" with entities [LocalPlayer, LocalPlayer], work=200*
     0x0084 [0x1B] RETURN
     0x0085 [0x45] LOAD_SCHEDULED_TASK: Load scheduler "whi1" with entities [LocalPlayer, LocalPlayer], work=[201*, 0*]
     0x0096 [0x55] WAIT_LOAD_SCHEDULER: Wait for scheduler "whi1" with entities [LocalPlayer, LocalPlayer], work=201*
     0x00A5 [0x1B] RETURN
     0x00A6 [0x45] LOAD_SCHEDULED_TASK: Load scheduler "who1" with entities [LocalPlayer, LocalPlayer], work=[201*, 0*]
     0x00B7 [0x55] WAIT_LOAD_SCHEDULER: Wait for scheduler "who1" with entities [LocalPlayer, LocalPlayer], work=201*
     0x00C6 [0x1B] RETURN
     0x00C7 [0x45] LOAD_SCHEDULED_TASK: Load scheduler "who2" with entities [LocalPlayer, LocalPlayer], work=[201*, 0*]
     0x00D8 [0x55] WAIT_LOAD_SCHEDULER: Wait for scheduler "who2" with entities [LocalPlayer, LocalPlayer], work=201*
     0x00E7 [0x1B] RETURN
     0x00E8 [0x45] LOAD_SCHEDULED_TASK: Load scheduler "who3" with entities [LocalPlayer, LocalPlayer], work=[201*, 0*]
     0x00F9 [0x55] WAIT_LOAD_SCHEDULER: Wait for scheduler "who3" with entities [LocalPlayer, LocalPlayer], work=201*
     0x0108 [0x1B] RETURN
     0x0109 [0x62] LOAD_EVENT_SCHEDULER: Load scheduler "main" with entities [LocalPlayer, LocalPlayer], work=[1*, 0*]
     0x011A [0x1C] WAIT(45* ticks)
     0x011D [0x45] LOAD_SCHEDULED_TASK: Load scheduler "fdo1" with entities [LocalPlayer, LocalPlayer], work=[200*, 0*]
     0x012E [0x55] WAIT_LOAD_SCHEDULER: Wait for scheduler "fdo1" with entities [LocalPlayer, LocalPlayer], work=200*
     0x013D [0x1B] RETURN
     0x013E [0x45] LOAD_SCHEDULED_TASK: Load scheduler "fdi1" with entities [LocalPlayer, LocalPlayer], work=[200*, 0*]
     0x014F [0x62] LOAD_EVENT_SCHEDULER: Load scheduler "main" with entities [LocalPlayer, LocalPlayer], work=[2*, 0*]
     0x0160 [0x1C] WAIT(30* ticks)
     0x0163 [0x55] WAIT_LOAD_SCHEDULER: Wait for scheduler "fdi1" with entities [LocalPlayer, LocalPlayer], work=200*
     0x0172 [0x1B] RETURN
     0x0173 [0x45] LOAD_SCHEDULED_TASK: Load scheduler "blon" with entities [LocalPlayer, LocalPlayer], work=[200*, 0*]
     0x0184 [0x45] LOAD_SCHEDULED_TASK: Load scheduler "blon" with entities [LocalPlayer, LocalPlayer], work=[201*, 0*]
     0x0195 [0x1B] RETURN
     0x0196 [0x45] LOAD_SCHEDULED_TASK: Load scheduler "whi0" with entities [LocalPlayer, LocalPlayer], work=[201*, 0*]
     0x01A7 [0x55] WAIT_LOAD_SCHEDULER: Wait for scheduler "whi0" with entities [LocalPlayer, LocalPlayer], work=201*
     0x01B6 [0x1B] RETURN
     0x01B7 [0x45] LOAD_SCHEDULED_TASK: Load scheduler "who0" with entities [LocalPlayer, LocalPlayer], work=[201*, 0*]
     0x01C8 [0x55] WAIT_LOAD_SCHEDULER: Wait for scheduler "who0" with entities [LocalPlayer, LocalPlayer], work=201*
     0x01D7 [0x1B] RETURN
     0x01D8 [0x45] LOAD_SCHEDULED_TASK: Load scheduler "efon" with entities [LocalPlayer, LocalPlayer], work=[215*, 0*]
     0x01E9 [0x55] WAIT_LOAD_SCHEDULER: Wait for scheduler "efon" with entities [LocalPlayer, LocalPlayer], work=215*
     0x01F8 [0x1B] RETURN
     0x01F9 [0x45] LOAD_SCHEDULED_TASK: Load scheduler "fdis" with entities [LocalPlayer, LocalPlayer], work=[200*, 0*]
     0x020A [0x1B] RETURN
     0x020B [0x45] LOAD_SCHEDULED_TASK: Load scheduler "fdos" with entities [LocalPlayer, LocalPlayer], work=[200*, 0*]
     0x021C [0x55] WAIT_LOAD_SCHEDULER: Wait for scheduler "fdos" with entities [LocalPlayer, LocalPlayer], work=200*
     0x022B [0x1B] RETURN
     0x022C [0x45] LOAD_SCHEDULED_TASK: Load scheduler "fdif" with entities [LocalPlayer, LocalPlayer], work=[200*, 0*]
     0x023D [0x1B] RETURN
     0x023E [0x45] LOAD_SCHEDULED_TASK: Load scheduler "fdof" with entities [LocalPlayer, LocalPlayer], work=[200*, 0*]
     0x024F [0x55] WAIT_LOAD_SCHEDULER: Wait for scheduler "fdof" with entities [LocalPlayer, LocalPlayer], work=200*
     0x025E [0x1B] RETURN
     0x025F [0x45] LOAD_SCHEDULED_TASK: Load scheduler "fdip" with entities [LocalPlayer, LocalPlayer], work=[200*, 0*]
     0x0270 [0x1B] RETURN
     0x0271 [0x45] LOAD_SCHEDULED_TASK: Load scheduler "fdop" with entities [LocalPlayer, LocalPlayer], work=[200*, 0*]
     0x0282 [0x55] WAIT_LOAD_SCHEDULER: Wait for scheduler "fdop" with entities [LocalPlayer, LocalPlayer], work=200*
     0x0291 [0x1B] RETURN
```

### Event 48

#### Metadata

| Field        | Value      |
|--------------|------------|
| Entrypoint   | 0x0292     |
| Data Size    | 2428 bytes |
| Instructions | 307        |

```
      00 01 02 03 04 05 06 07  08 09 0A 0B 0C 0D 0E 0F
      -- -- -- -- -- -- -- --  -- -- -- -- -- -- -- --
0290:       42 5D 01 80 08 80  1A 64 00 46 01 38 09 80    B].....d.F.8..
02A0: 2F 00 0D F3 0A 01 2F 00  0E F3 0A 01 2F 00 0F F3  /...../...../...
02B0: 0A 01 2F 00 10 F3 0A 01  2F 00 11 F3 0A 01 2F 00  ../...../...../.
02C0: 12 F3 0A 01 2F 00 13 F3  0A 01 4E 00 0D F3 0A 01  ..../.....N.....
02D0: 4E 00 0E F3 0A 01 4E 00  0F F3 0A 01 4E 00 10 F3  N.....N.....N...
02E0: 0A 01 4E 00 11 F3 0A 01  4E 00 12 F3 0A 01 4E 00  ..N.....N.....N.
02F0: 13 F3 0A 01 94 01 0D F3  0A 01 94 01 0E F3 0A 01  ................
0300: 94 01 0F F3 0A 01 94 01  10 F3 0A 01 94 01 11 F3  ................
0310: 0A 01 94 01 12 F3 0A 01  94 01 13 F3 0A 01 94 01  ................
0320: F0 FF FF 7F BA 0D F3 0A  01 0A 80 0B 80 0C 80 0D  ................
0330: 80 BA 0E F3 0A 01 0E 80  0F 80 10 80 11 80 BA 0F  ................
0340: F3 0A 01 12 80 13 80 0C  80 14 80 BA 10 F3 0A 01  ................
0350: 15 80 16 80 0C 80 17 80  BA 11 F3 0A 01 18 80 19  ................
0360: 80 0C 80 1A 80 BA 12 F3  0A 01 1B 80 1C 80 0C 80  ................
0370: 1D 80 BA 13 F3 0A 01 1E  80 1F 80 20 80 21 80 BA  ........... .!..
0380: F0 FF FF 7F 22 80 23 80  24 80 25 80 D8 01 13 F3  ....".#.$.%.....
0390: 0A 01 01 80 D8 02 13 F3  0A 01 01 80 D8 03 13 F3  ................
03A0: 0A 01 26 80 80 0D F3 0A  01 80 0E F3 0A 01 80 0F  ..&.............
03B0: F3 0A 01 80 10 F3 0A 01  80 11 F3 0A 01 80 12 F3  ................
03C0: 0A 01 80 13 F3 0A 01 80  F0 FF FF 7F 6C 0E F3 0A  ............l...
03D0: 01 01 80 03 80 6C 11 F3  0A 01 01 80 03 80 5C 00  .....l........\.
03E0: 01 80 5C 01 01 80 5C 02  27 80 5C 03 27 80 9A 5D  ..\...\.'.\.'..]
03F0: 28 80 03 80 4A 0D F3 0A  01 0F F3 0A 01 4A 0F F3  (...J........J..
0400: 0A 01 0D F3 0A 01 4A 10  F3 0A 01 0D F3 0A 01 4A  ......J........J
0410: 12 F3 0A 01 0D F3 0A 01  6F 76 0D F3 0A 01 6F 76  ........ov....ov
0420: 0F F3 0A 01 6F 76 10 F3  0A 01 6F 76 12 F3 0A 01  ....ov....ov....
0430: 7B 0F F3 0A 01 7B 10 F3  0A 01 7B 12 F3 0A 01 27  {....{....{....'
0440: 10 0D F3 0A 01 07 27 10  F0 FF FF 7F 1B 45 29 80  ......'......E).
0450: F8 FF FF 7F F8 FF FF 7F  73 30 30 30 01 80 1A 43  ........s000...C
0460: 00 1C 2A 80 29 10 0F F3  0A 01 04 52 29 80 F8 FF  ..*.)......R)...
0470: FF 7F F8 FF FF 7F 73 30  30 30 45 29 80 F8 FF FF  ......s000E)....
0480: 7F F8 FF FF 7F 73 30 30  31 01 80 2A 10 F0 FF FF  .....s001..*....
0490: 7F 4A F0 FF FF 7F 0F F3  0A 01 4A 11 F3 0A 01 F0  .J........J.....
04A0: FF FF 7F 7B 11 F3 0A 01  1C 2B 80 5C 00 2C 80 5C  ...{.....+.\.,.\
04B0: 01 2C 80 9A 52 29 80 F8  FF FF 7F F8 FF FF 7F 73  .,..R).........s
04C0: 30 30 31 45 29 80 F8 FF  FF 7F F8 FF FF 7F 73 61  001E).........sa
04D0: 30 31 01 80 1C 2D 80 52  29 80 F8 FF FF 7F F8 FF  01...-.R).......
04E0: FF 7F 73 61 30 31 45 29  80 F8 FF FF 7F F8 FF FF  ..sa01E)........
04F0: 7F 73 30 30 32 01 80 27  10 0D F3 0A 01 17 45 29  .s002..'......E)
0500: 80 F8 FF FF 7F F8 FF FF  7F 31 30 30 36 01 80 2B  .........1006..+
0510: 0D F3 0A 01 2E 80 23 2B  0D F3 0A 01 2F 80 1C 30  ......#+..../..0
0520: 80 29 10 0D F3 0A 01 18  23 27 10 0D F3 0A 01 19  .)......#'......
0530: 52 29 80 F8 FF FF 7F F8  FF FF 7F 73 30 30 32 45  R).........s002E
0540: 29 80 F8 FF FF 7F F8 FF  FF 7F 73 30 30 33 01 80  ).........s003..
0550: 2C 0F F3 0A 01 0F F3 0A  01 77 70 6F 66 53 0F F3  ,........wpofS..
0560: 0A 01 0F F3 0A 01 77 70  6F 66 27 10 0F F3 0A 01  ......wpof'.....
0570: 08 2B 0F F3 0A 01 31 80  29 10 0F F3 0A 01 09 23  .+....1.)......#
0580: 52 29 80 F8 FF FF 7F F8  FF FF 7F 73 30 30 33 45  R).........s003E
0590: 29 80 F8 FF FF 7F F8 FF  FF 7F 73 30 30 34 01 80  ).........s004..
05A0: 2C 0F F3 0A 01 0F F3 0A  01 77 70 6F 6E 53 0F F3  ,........wponS..
05B0: 0A 01 0F F3 0A 01 77 70  6F 6E 27 10 10 F3 0A 01  ......wpon'.....
05C0: 13 1C 2B 80 2B 10 F3 0A  01 32 80 4A 0D F3 0A 01  ..+.+....2.J....
05D0: 10 F3 0A 01 29 10 10 F3  0A 01 14 27 10 10 F3 0A  ....)......'....
05E0: 01 15 1C 2B 80 23 6B 69  64 6C 30 0F F3 0A 01 27  ...+.#kidl0....'
05F0: 10 10 F3 0A 01 17 29 10  10 F3 0A 01 18 27 10 10  ......)......'..
0600: F3 0A 01 19 29 10 12 F3  0A 01 03 52 29 80 F8 FF  ....)......R)...
0610: FF 7F F8 FF FF 7F 73 30  30 34 45 29 80 F8 FF FF  ......s004E)....
0620: 7F F8 FF FF 7F 73 30 30  35 01 80 C4 02 33 80 12  .....s005....3..
0630: F3 0A 01 F8 FF FF 7F 2B  12 F3 0A 01 34 80 1C 2B  .......+....4..+
0640: 80 4A 0D F3 0A 01 12 F3  0A 01 1C 30 80 23 52 29  .J.........0.#R)
0650: 80 F8 FF FF 7F F8 FF FF  7F 73 30 30 35 45 29 80  .........s005E).
0660: F8 FF FF 7F F8 FF FF 7F  73 30 30 36 01 80 27 10  ........s006..'.
0670: 0D F3 0A 01 07 2B 0D F3  0A 01 35 80 29 10 0D F3  .....+....5.)...
0680: 0A 01 08 23 27 10 0D F3  0A 01 17 45 29 80 F8 FF  ...#'......E)...
0690: FF 7F F8 FF FF 7F 31 30  30 36 01 80 2B 0D F3 0A  ......1006..+...
06A0: 01 36 80 1C 30 80 29 10  0D F3 0A 01 18 23 27 10  .6..0.)......#'.
06B0: 0D F3 0A 01 19 52 29 80  F8 FF FF 7F F8 FF FF 7F  .....R).........
06C0: 73 30 30 36 45 29 80 F8  FF FF 7F F8 FF FF 7F 73  s006E).........s
06D0: 30 30 37 01 80 2C 0F F3  0A 01 0F F3 0A 01 77 70  007..,........wp
06E0: 6F 66 53 0F F3 0A 01 0F  F3 0A 01 77 70 6F 66 27  ofS........wpof'
06F0: 10 0F F3 0A 01 06 2B 0F  F3 0A 01 37 80 1C 06 80  ......+....7....
0700: 4A 0D F3 0A 01 0F F3 0A  01 29 10 0D F3 0A 01 08  J........)......
0710: 23 2B 0F F3 0A 01 38 80  29 10 0F F3 0A 01 07 23  #+....8.)......#
0720: 52 29 80 F8 FF FF 7F F8  FF FF 7F 73 30 30 37 45  R).........s007E
0730: 29 80 F8 FF FF 7F F8 FF  FF 7F 62 6C 6F 66 01 80  ).........blof..
0740: 45 29 80 F8 FF FF 7F F8  FF FF 7F 73 30 30 38 01  E).........s008.
0750: 80 2C 0F F3 0A 01 0F F3  0A 01 77 70 6F 6E 53 0F  .,........wponS.
0760: F3 0A 01 0F F3 0A 01 77  70 6F 6E 27 10 0D F3 0A  .......wpon'....
0770: 01 07 45 29 80 F8 FF FF  7F F8 FF FF 7F 31 30 30  ..E).........100
0780: 31 01 80 2B 0D F3 0A 01  39 80 23 6B 69 64 6C 30  1..+....9.#kidl0
0790: 0F F3 0A 01 2B 0D F3 0A  01 3A 80 29 10 0D F3 0A  ....+....:.)....
07A0: 01 08 23 27 10 0D F3 0A  01 09 52 29 80 F8 FF FF  ..#'......R)....
07B0: 7F F8 FF FF 7F 73 30 30  38 45 29 80 F8 FF FF 7F  .....s008E).....
07C0: F8 FF FF 7F 73 30 30 39  01 80 C4 02 3B 80 0F F3  ....s009....;...
07D0: 0A 01 0D F3 0A 01 2B 0F  F3 0A 01 3C 80 1C 06 80  ......+....<....
07E0: 27 10 0D F3 0A 01 1F 7C  00 0D F3 0A 01 2B 0D F3  '......|.....+..
07F0: 0A 01 3D 80 1C 06 80 7C  01 0D F3 0A 01 52 29 80  ..=....|.....R).
0800: F8 FF FF 7F F8 FF FF 7F  73 30 30 39 45 29 80 F8  ........s009E)..
0810: FF FF 7F F8 FF FF 7F 73  30 31 30 01 80 CD 3E 80  .......s010...>.
0820: F8 FF FF 7F F8 FF FF 7F  73 30 30 31 01 80 6C 0D  ........s001..l.
0830: F3 0A 01 01 80 03 80 6C  0E F3 0A 01 3F 80 03 80  .......l....?...
0840: C5 40 80 0E F3 0A 01 0E  F3 0A 01 6D 61 69 6E 01  .@.........main.
0850: 80 4A 10 F3 0A 01 0D F3  0A 01 4A 12 F3 0A 01 0D  .J........J.....
0860: F3 0A 01 1C 41 80 52 29  80 F8 FF FF 7F F8 FF FF  ....A.R)........
0870: 7F 73 30 31 30 45 29 80  F8 FF FF 7F F8 FF FF 7F  .s010E).........
0880: 73 30 31 31 01 80 27 10  10 F3 0A 01 09 2B 10 F3  s011..'......+..
0890: 0A 01 42 80 29 10 10 F3  0A 01 0A 23 27 10 10 F3  ..B.)......#'...
08A0: 0A 01 07 52 29 80 F8 FF  FF 7F F8 FF FF 7F 73 30  ...R).........s0
08B0: 31 31 02 87 7F 43 80 80  CE 08 45 29 80 F8 FF FF  11...C....E)....
08C0: 7F F8 FF FF 7F 73 67 31  32 01 80 01 DF 08 45 29  .....sg12.....E)
08D0: 80 F8 FF FF 7F F8 FF FF  7F 73 30 31 32 01 80 4A  .........s012..J
08E0: 12 F3 0A 01 F0 FF FF 7F  2B 12 F3 0A 01 44 80 6F  ........+....D.o
08F0: 76 12 F3 0A 01 1C 06 80  4A 10 F3 0A 01 F0 FF FF  v.......J.......
0900: 7F 4A 0F F3 0A 01 F0 FF  FF 7F 6F 76 10 F3 0A 01  .J........ov....
0910: 27 10 11 F3 0A 01 0A 1C  45 80 27 10 10 F3 0A 01  '.......E.'.....
0920: 1B 1C 04 80 6C 10 F3 0A  01 01 80 03 80 02 87 7F  ....l...........
0930: 43 80 80 47 09 52 29 80  F8 FF FF 7F F8 FF FF 7F  C..G.R).........
0940: 73 67 31 32 01 56 09 52  29 80 F8 FF FF 7F F8 FF  sg12.V.R).......
0950: FF 7F 73 30 31 32 45 29  80 F8 FF FF 7F F8 FF FF  ..s012E)........
0960: 7F 73 30 31 33 01 80 6C  11 F3 0A 01 3F 80 03 80  .s013..l....?...
0970: CD 3E 80 F8 FF FF 7F F8  FF FF 7F 73 30 30 31 01  .>.........s001.
0980: 80 1C 2A 80 52 29 80 F8  FF FF 7F F8 FF FF 7F 73  ..*.R).........s
0990: 30 31 33 45 29 80 F8 FF  FF 7F F8 FF FF 7F 73 61  013E).........sa
09A0: 31 33 01 80 27 10 11 F3  0A 01 02 2B 10 F3 0A 01  13..'......+....
09B0: 46 80 29 10 11 F3 0A 01  03 23 5C 00 27 80 5C 01  F.)......#\.'.\.
09C0: 27 80 9A 52 29 80 F8 FF  FF 7F F8 FF FF 7F 73 61  '..R).........sa
09D0: 31 33 02 87 7F 47 80 80  EE 09 45 29 80 F8 FF FF  13...G....E)....
09E0: 7F F8 FF FF 7F 73 67 31  34 01 80 01 6F 0A 02 87  .....sg14...o...
09F0: 7F 48 80 80 0A 0A 45 29  80 F8 FF FF 7F F8 FF FF  .H....E)........
0A00: 7F 73 67 31 34 01 80 01  6F 0A 02 87 7F 49 80 80  .sg14...o....I..
0A10: 26 0A 45 29 80 F8 FF FF  7F F8 FF FF 7F 73 74 31  &.E).........st1
0A20: 34 01 80 01 6F 0A 02 87  7F 4A 80 80 42 0A 45 29  4...o....J..B.E)
0A30: 80 F8 FF FF 7F F8 FF FF  7F 73 74 31 34 01 80 01  .........st14...
0A40: 6F 0A 02 87 7F 43 80 80  5E 0A 45 29 80 F8 FF FF  o....C..^.E)....
0A50: 7F F8 FF FF 7F 73 67 31  34 01 80 01 6F 0A 45 29  .....sg14...o.E)
0A60: 80 F8 FF FF 7F F8 FF FF  7F 73 30 31 34 01 80 C4  .........s014...
0A70: 02 33 80 12 F3 0A 01 F8  FF FF 7F 2B 12 F3 0A 01  .3.........+....
0A80: 4B 80 1C 2A 80 27 10 F0  FF FF 7F 1D 1C 2A 80 02  K..*.'.......*..
0A90: 87 7F 47 80 80 A9 0A 52  29 80 F8 FF FF 7F F8 FF  ..G....R).......
0AA0: FF 7F 73 67 31 34 01 20  0B 02 87 7F 48 80 80 C3  ..sg14. ....H...
0AB0: 0A 52 29 80 F8 FF FF 7F  F8 FF FF 7F 73 67 31 34  .R).........sg14
0AC0: 01 20 0B 02 87 7F 49 80  80 DD 0A 52 29 80 F8 FF  . ....I....R)...
0AD0: FF 7F F8 FF FF 7F 73 74  31 34 01 20 0B 02 87 7F  ......st14. ....
0AE0: 4A 80 80 F7 0A 52 29 80  F8 FF FF 7F F8 FF FF 7F  J....R).........
0AF0: 73 74 31 34 01 20 0B 02  87 7F 43 80 80 11 0B 52  st14. ....C....R
0B00: 29 80 F8 FF FF 7F F8 FF  FF 7F 73 67 31 34 01 20  ).........sg14. 
0B10: 0B 52 29 80 F8 FF FF 7F  F8 FF FF 7F 73 30 31 34  .R).........s014
0B20: 45 29 80 F8 FF FF 7F F8  FF FF 7F 73 30 31 35 01  E).........s015.
0B30: 80 2C 0F F3 0A 01 0F F3  0A 01 77 70 6F 66 53 0F  .,........wpofS.
0B40: F3 0A 01 0F F3 0A 01 77  70 6F 66 27 10 0F F3 0A  .......wpof'....
0B50: 01 06 2B 0F F3 0A 01 4C  80 29 10 0F F3 0A 01 07  ..+....L.)......
0B60: 1A B7 01 1C 30 80 1A 64  00 BA F0 FF FF 7F 01 80  ....0..d........
0B70: 01 80 01 80 01 80 1C 06  80 27 10 F0 FF FF 7F 1E  .........'......
0B80: 52 29 80 F8 FF FF 7F F8  FF FF 7F 73 30 31 35 45  R).........s015E
0B90: 29 80 F8 FF FF 7F F8 FF  FF 7F 62 6C 6F 66 01 80  ).........blof..
0BA0: 5D 01 80 08 80 1C 2B 80  1A 96 01 2C 0F F3 0A 01  ].....+....,....
0BB0: 0F F3 0A 01 77 70 6F 6E  53 0F F3 0A 01 0F F3 0A  ....wponS.......
0BC0: 01 77 70 6F 6E 29 10 0F  F3 0A 01 05 29 10 12 F3  .wpon)......)...
0BD0: 0A 01 04 D8 00 13 F3 0A  01 5C 00 01 80 5C 01 01  .........\...\..
0BE0: 80 5C 02 4D 80 5C 03 4E  80 9A 5D 28 80 03 80 1C  .\.M.\.N..](....
0BF0: 4F 80 AB 11 01 80 1C 03  80 46 00 45 00 80 F8 FF  O........F.E....
0C00: FF 7F F8 FF FF 7F 66 64  69 32 01 80 21 00        ......fdi2..!.  
```

#### Opcodes

```
  0: 0x0292 [0x42] SET_CLI_EVENT_CANCEL_DATA()
  1: 0x0293 [0x5D] SET_MUSIC_VOLUME(volume=0*, fade_time=300*)
  2: 0x0298 [0x1A] CALL_SUBROUTINE(address=0x0064)
  3: 0x029B [0x46] CAMERA_CONTROL: Disable user control
  4: 0x029D [0x38] SET_CLIENT_EVENT_MODE(mode=147*)
  5: 0x02A0 [0x2F] Leadavox (ID: 17494797/0x010AF30D)->Render.Flags0 &= ~0x80000 // Bit 19
  6: 0x02A6 [0x2F] Leadavox (ID: 17494798/0x010AF30E)->Render.Flags0 &= ~0x80000 // Bit 19
  7: 0x02AC [0x2F] Enkelados (ID: 17494799/0x010AF30F)->Render.Flags0 &= ~0x80000 // Bit 19
  8: 0x02B2 [0x2F] Sharpshot Luttdrutt (ID: 17494800/0x010AF310)->Render.Flags0 &= ~0x80000 // Bit 19
  9: 0x02B8 [0x2F] Sharpshot Luttdrutt (ID: 17494801/0x010AF311)->Render.Flags0 &= ~0x80000 // Bit 19
 10: 0x02BE [0x2F] Sa'Jho Shieldbreaker (ID: 17494802/0x010AF312)->Render.Flags0 &= ~0x80000 // Bit 19
 11: 0x02C4 [0x2F] Unnamed NPC (ID: 17494803/0x010AF313)->Render.Flags0 &= ~0x80000 // Bit 19
 12: 0x02CA [0x4E] SET_ENTITY_HIDE_FLAG: Show Leadavox (ID: 17494797/0x010AF30D)
 13: 0x02D0 [0x4E] SET_ENTITY_HIDE_FLAG: Show Leadavox (ID: 17494798/0x010AF30E)
 14: 0x02D6 [0x4E] SET_ENTITY_HIDE_FLAG: Show Enkelados (ID: 17494799/0x010AF30F)
 15: 0x02DC [0x4E] SET_ENTITY_HIDE_FLAG: Show Sharpshot Luttdrutt (ID: 17494800/0x010AF310)
 16: 0x02E2 [0x4E] SET_ENTITY_HIDE_FLAG: Show Sharpshot Luttdrutt (ID: 17494801/0x010AF311)
 17: 0x02E8 [0x4E] SET_ENTITY_HIDE_FLAG: Show Sa'Jho Shieldbreaker (ID: 17494802/0x010AF312)
 18: 0x02EE [0x4E] SET_ENTITY_HIDE_FLAG: Show Unnamed NPC (ID: 17494803/0x010AF313)
 19: 0x02F4 [0x94] Leadavox (ID: 17494797/0x010AF30D)->Render.Flags3 ^= 0x01
 20: 0x02FA [0x94] Leadavox (ID: 17494798/0x010AF30E)->Render.Flags3 ^= 0x01
 21: 0x0300 [0x94] Enkelados (ID: 17494799/0x010AF30F)->Render.Flags3 ^= 0x01
 22: 0x0306 [0x94] Sharpshot Luttdrutt (ID: 17494800/0x010AF310)->Render.Flags3 ^= 0x01
 23: 0x030C [0x94] Sharpshot Luttdrutt (ID: 17494801/0x010AF311)->Render.Flags3 ^= 0x01
 24: 0x0312 [0x94] Sa'Jho Shieldbreaker (ID: 17494802/0x010AF312)->Render.Flags3 ^= 0x01
 25: 0x0318 [0x94] Unnamed NPC (ID: 17494803/0x010AF313)->Render.Flags3 ^= 0x01
 26: 0x031E [0x94] LocalPlayer->Render.Flags3 ^= 0x01
 27: 0x0324 [0xBA] SET_ENTITY_POSITION(entity_id=Leadavox (ID: 17494797/0x010AF30D), pos_x=-248.950*, pos_z=115.939*, pos_y=0.999*, direction=117.2°*)
 28: 0x0331 [0xBA] SET_ENTITY_POSITION(entity_id=Leadavox (ID: 17494798/0x010AF30E), pos_x=-245.684*, pos_z=122.395*, pos_y=1.030*, direction=299.0°*)
 29: 0x033E [0xBA] SET_ENTITY_POSITION(entity_id=Enkelados (ID: 17494799/0x010AF30F), pos_x=-251.936*, pos_z=110.625*, pos_y=0.999*, direction=298.0°*)
 30: 0x034B [0xBA] SET_ENTITY_POSITION(entity_id=Sharpshot Luttdrutt (ID: 17494800/0x010AF310), pos_x=-253.938*, pos_z=115.245*, pos_y=0.999*, direction=351.8°*)
 31: 0x0358 [0xBA] SET_ENTITY_POSITION(entity_id=Sharpshot Luttdrutt (ID: 17494801/0x010AF311), pos_x=-242.833*, pos_z=112.831*, pos_y=0.999*, direction=9.8°*)
 32: 0x0365 [0xBA] SET_ENTITY_POSITION(entity_id=Sa'Jho Shieldbreaker (ID: 17494802/0x010AF312), pos_x=-247.755*, pos_z=107.598*, pos_y=0.999*, direction=251.3°*)
 33: 0x0372 [0xBA] SET_ENTITY_POSITION(entity_id=Unnamed NPC (ID: 17494803/0x010AF313), pos_x=-252.820*, pos_z=108.947*, pos_y=0.497*, direction=335.0°*)
 34: 0x037F [0xBA] SET_ENTITY_POSITION(entity_id=LocalPlayer, pos_x=-222.422*, pos_z=100.470*, pos_y=0.130*, direction=230.5°*)
 35: 0x038C [0xD8] SET_ENTITY_EVENT_DIR: Set Unnamed NPC (ID: 17494803/0x010AF313) EventDir[0] = 0*
 36: 0x0394 [0xD8] SET_ENTITY_EVENT_DIR: Set Unnamed NPC (ID: 17494803/0x010AF313) EventDir[1] = 0*
 37: 0x039C [0xD8] SET_ENTITY_EVENT_DIR: Set Unnamed NPC (ID: 17494803/0x010AF313) EventDir[2] = 4294966196*
 38: 0x03A4 [0x80] LOAD_WAIT(entity=Leadavox (ID: 17494797/0x010AF30D))
 39: 0x03A9 [0x80] LOAD_WAIT(entity=Leadavox (ID: 17494798/0x010AF30E))
 40: 0x03AE [0x80] LOAD_WAIT(entity=Enkelados (ID: 17494799/0x010AF30F))
 41: 0x03B3 [0x80] LOAD_WAIT(entity=Sharpshot Luttdrutt (ID: 17494800/0x010AF310))
 42: 0x03B8 [0x80] LOAD_WAIT(entity=Sharpshot Luttdrutt (ID: 17494801/0x010AF311))
 43: 0x03BD [0x80] LOAD_WAIT(entity=Sa'Jho Shieldbreaker (ID: 17494802/0x010AF312))
 44: 0x03C2 [0x80] LOAD_WAIT(entity=Unnamed NPC (ID: 17494803/0x010AF313))
 45: 0x03C7 [0x80] LOAD_WAIT(entity=LocalPlayer)
 46: 0x03CC [0x6C] FADE_ENTITY_COLOR(entity_id=Leadavox (ID: 17494798/0x010AF30E), end_alpha=0*, fade_time=1*)
 47: 0x03D5 [0x6C] FADE_ENTITY_COLOR(entity_id=Sharpshot Luttdrutt (ID: 17494801/0x010AF311), end_alpha=0*, fade_time=1*)
 48: 0x03DE [0x5C] MUSIC_CONTROL: Set Idle (Day) music to song 0*
 49: 0x03E2 [0x5C] MUSIC_CONTROL: Set Idle (Night) music to song 0*
 50: 0x03E6 [0x5C] MUSIC_CONTROL: Set Combat (Solo) music to song 26*
 51: 0x03EA [0x5C] MUSIC_CONTROL: Set Combat (Party) music to song 26*
 52: 0x03EE [0x9A] WAIT_MUSIC_SERVER()
 53: 0x03EF [0x5D] SET_MUSIC_VOLUME(volume=127*, fade_time=1*)
 54: 0x03F4 [0x4A] Leadavox (ID: 17494797/0x010AF30D) looks at Enkelados (ID: 17494799/0x010AF30F)
 55: 0x03FD [0x4A] Enkelados (ID: 17494799/0x010AF30F) looks at Leadavox (ID: 17494797/0x010AF30D)
 56: 0x0406 [0x4A] Sharpshot Luttdrutt (ID: 17494800/0x010AF310) looks at Leadavox (ID: 17494797/0x010AF30D)
 57: 0x040F [0x4A] Sa'Jho Shieldbreaker (ID: 17494802/0x010AF312) looks at Leadavox (ID: 17494797/0x010AF30D)
 58: 0x0418 [0x6F] WAIT_FRAME_DELAY: Yield until WaitTime reaches zero
 59: 0x0419 [0x76] CHECK_ENTITY_RENDER_FLAGS: Wait until Leadavox (ID: 17494797/0x010AF30D) Render.Flags0 and Render.Flags3 conditions are met
 60: 0x041E [0x6F] WAIT_FRAME_DELAY: Yield until WaitTime reaches zero
 61: 0x041F [0x76] CHECK_ENTITY_RENDER_FLAGS: Wait until Enkelados (ID: 17494799/0x010AF30F) Render.Flags0 and Render.Flags3 conditions are met
 62: 0x0424 [0x6F] WAIT_FRAME_DELAY: Yield until WaitTime reaches zero
 63: 0x0425 [0x76] CHECK_ENTITY_RENDER_FLAGS: Wait until Sharpshot Luttdrutt (ID: 17494800/0x010AF310) Render.Flags0 and Render.Flags3 conditions are met
 64: 0x042A [0x6F] WAIT_FRAME_DELAY: Yield until WaitTime reaches zero
 65: 0x042B [0x76] CHECK_ENTITY_RENDER_FLAGS: Wait until Sa'Jho Shieldbreaker (ID: 17494802/0x010AF312) Render.Flags0 and Render.Flags3 conditions are met
 66: 0x0430 [0x7B] Enkelados (ID: 17494799/0x010AF30F) stops talking
 67: 0x0435 [0x7B] Sharpshot Luttdrutt (ID: 17494800/0x010AF310) stops talking
 68: 0x043A [0x7B] Sa'Jho Shieldbreaker (ID: 17494802/0x010AF312) stops talking
 69: 0x043F [0x27] REQ_SET(priority=0x10, entity_id=Leadavox (ID: 17494797/0x010AF30D), tag_num=0x07)
 70: 0x0446 [0x27] REQ_SET(priority=0x10, entity_id=LocalPlayer, tag_num=0x1B)
 71: 0x044D [0x45] LOAD_SCHEDULED_TASK: Load scheduler "s000" with entities [EventEntity, EventEntity], work=[873*, 0*]
 72: 0x045E [0x1A] CALL_SUBROUTINE(address=0x0043)
 73: 0x0461 [0x1C] WAIT(90* ticks)
 74: 0x0464 [0x29] REQ_SET_WAIT(priority=0x10, entity_id=Enkelados (ID: 17494799/0x010AF30F), tag_num=0x04)
 75: 0x046B [0x52] END_LOAD_SCHEDULER: End scheduler "s000" with entities [EventEntity, EventEntity], work=873*
 76: 0x047A [0x45] LOAD_SCHEDULED_TASK: Load scheduler "s001" with entities [EventEntity, EventEntity], work=[873*, 0*]
 77: 0x048B [0x2A] GET_REQ_LEVEL(level=16, entity_id=LocalPlayer)
 78: 0x0491 [0x4A] LocalPlayer looks at Enkelados (ID: 17494799/0x010AF30F)
 79: 0x049A [0x4A] Sharpshot Luttdrutt (ID: 17494801/0x010AF311) looks at LocalPlayer
 80: 0x04A3 [0x7B] Sharpshot Luttdrutt (ID: 17494801/0x010AF311) stops talking
 81: 0x04A8 [0x1C] WAIT(60* ticks)
 82: 0x04AB [0x5C] MUSIC_CONTROL: Set Idle (Day) music to song 27*
 83: 0x04AF [0x5C] MUSIC_CONTROL: Set Idle (Night) music to song 27*
 84: 0x04B3 [0x9A] WAIT_MUSIC_SERVER()
 85: 0x04B4 [0x52] END_LOAD_SCHEDULER: End scheduler "s001" with entities [EventEntity, EventEntity], work=873*
 86: 0x04C3 [0x45] LOAD_SCHEDULED_TASK: Load scheduler "sa01" with entities [EventEntity, EventEntity], work=[873*, 0*]
 87: 0x04D4 [0x1C] WAIT(135* ticks)
 88: 0x04D7 [0x52] END_LOAD_SCHEDULER: End scheduler "sa01" with entities [EventEntity, EventEntity], work=873*
 89: 0x04E6 [0x45] LOAD_SCHEDULED_TASK: Load scheduler "s002" with entities [EventEntity, EventEntity], work=[873*, 0*]
 90: 0x04F7 [0x27] REQ_SET(priority=0x10, entity_id=Leadavox (ID: 17494797/0x010AF30D), tag_num=0x17)
 91: 0x04FE [0x45] LOAD_SCHEDULED_TASK: Load scheduler "1006" with entities [EventEntity, EventEntity], work=[873*, 0*]
 92: 0x050F [0x2B] Leadavox (ID: 17494797/0x010AF30D) [8972*]:
    → "So, what aren't you gettin' about this?"
 93: 0x0516 [0x23] WAIT_FOR_DIALOG_INTERACTION
 94: 0x0517 [0x2B] Leadavox (ID: 17494797/0x010AF30D) [8973*]:
    → "Five thousand years ago, that egg nearly caused the world's destruction!"
 95: 0x051E [0x1C] WAIT(120* ticks)
 96: 0x0521 [0x29] REQ_SET_WAIT(priority=0x10, entity_id=Leadavox (ID: 17494797/0x010AF30D), tag_num=0x18)
 97: 0x0528 [0x23] WAIT_FOR_DIALOG_INTERACTION
 98: 0x0529 [0x27] REQ_SET(priority=0x10, entity_id=Leadavox (ID: 17494797/0x010AF30D), tag_num=0x19)
 99: 0x0530 [0x52] END_LOAD_SCHEDULER: End scheduler "s002" with entities [EventEntity, EventEntity], work=873*
100: 0x053F [0x45] LOAD_SCHEDULED_TASK: Load scheduler "s003" with entities [EventEntity, EventEntity], work=[873*, 0*]
101: 0x0550 [0x2C] CREATE_SCHEDULER_TASK: Create scheduler "wpof" with entities [Enkelados (ID: 17494799/0x010AF30F), Enkelados (ID: 17494799/0x010AF30F)]
102: 0x055D [0x53] WAIT_SCHEDULER_TASK: Wait for scheduler "wpof" with entities [Enkelados (ID: 17494799/0x010AF30F), Enkelados (ID: 17494799/0x010AF30F)]
103: 0x056A [0x27] REQ_SET(priority=0x10, entity_id=Enkelados (ID: 17494799/0x010AF30F), tag_num=0x08)
104: 0x0571 [0x2B] Enkelados (ID: 17494799/0x010AF30F) [8974*]:
    → "Uga! Uga! Gugoggh, gueggha, uga, gagaggha!"
105: 0x0578 [0x29] REQ_SET_WAIT(priority=0x10, entity_id=Enkelados (ID: 17494799/0x010AF30F), tag_num=0x09)
106: 0x057F [0x23] WAIT_FOR_DIALOG_INTERACTION
107: 0x0580 [0x52] END_LOAD_SCHEDULER: End scheduler "s003" with entities [EventEntity, EventEntity], work=873*
108: 0x058F [0x45] LOAD_SCHEDULED_TASK: Load scheduler "s004" with entities [EventEntity, EventEntity], work=[873*, 0*]
109: 0x05A0 [0x2C] CREATE_SCHEDULER_TASK: Create scheduler "wpon" with entities [Enkelados (ID: 17494799/0x010AF30F), Enkelados (ID: 17494799/0x010AF30F)]
110: 0x05AD [0x53] WAIT_SCHEDULER_TASK: Wait for scheduler "wpon" with entities [Enkelados (ID: 17494799/0x010AF30F), Enkelados (ID: 17494799/0x010AF30F)]
111: 0x05BA [0x27] REQ_SET(priority=0x10, entity_id=Sharpshot Luttdrutt (ID: 17494800/0x010AF310), tag_num=0x13)
112: 0x05C1 [0x1C] WAIT(60* ticks)
113: 0x05C4 [0x2B] Sharpshot Luttdrutt (ID: 17494800/0x010AF310) [8975*]:
    → "Me thinks you should quit runnin' yer mouth!"
114: 0x05CB [0x4A] Leadavox (ID: 17494797/0x010AF30D) looks at Sharpshot Luttdrutt (ID: 17494800/0x010AF310)
115: 0x05D4 [0x29] REQ_SET_WAIT(priority=0x10, entity_id=Sharpshot Luttdrutt (ID: 17494800/0x010AF310), tag_num=0x14)
116: 0x05DB [0x27] REQ_SET(priority=0x10, entity_id=Sharpshot Luttdrutt (ID: 17494800/0x010AF310), tag_num=0x15)
117: 0x05E2 [0x1C] WAIT(60* ticks)
118: 0x05E5 [0x23] WAIT_FOR_DIALOG_INTERACTION
119: 0x05E6 [0x6B] STOP_AND_IDLE: Enkelados (ID: 17494799/0x010AF30F) stops current action and resets to idle (animation="idl0")
120: 0x05EF [0x27] REQ_SET(priority=0x10, entity_id=Sharpshot Luttdrutt (ID: 17494800/0x010AF310), tag_num=0x17)
121: 0x05F6 [0x29] REQ_SET_WAIT(priority=0x10, entity_id=Sharpshot Luttdrutt (ID: 17494800/0x010AF310), tag_num=0x18)
122: 0x05FD [0x27] REQ_SET(priority=0x10, entity_id=Sharpshot Luttdrutt (ID: 17494800/0x010AF310), tag_num=0x19)
123: 0x0604 [0x29] REQ_SET_WAIT(priority=0x10, entity_id=Sa'Jho Shieldbreaker (ID: 17494802/0x010AF312), tag_num=0x03)
124: 0x060B [0x52] END_LOAD_SCHEDULER: End scheduler "s004" with entities [EventEntity, EventEntity], work=873*
125: 0x061A [0x45] LOAD_SCHEDULED_TASK: Load scheduler "s005" with entities [EventEntity, EventEntity], work=[873*, 0*]
126: 0x062B [0xC4] SCHEDULE_MAGIC_CASTING_ALT (arg=18): Sa'Jho Shieldbreaker (ID: 17494802/0x010AF312) casts magic 1491* on EventEntity
127: 0x0637 [0x2B] Sa'Jho Shieldbreaker (ID: 17494802/0x010AF312) [8976*]:
    → "If what you say is true, this egg is a mighty weapon that'll guarantee us victory! Why wouldn't we use it!?"
128: 0x063E [0x1C] WAIT(60* ticks)
129: 0x0641 [0x4A] Leadavox (ID: 17494797/0x010AF30D) looks at Sa'Jho Shieldbreaker (ID: 17494802/0x010AF312)
130: 0x064A [0x1C] WAIT(120* ticks)
131: 0x064D [0x23] WAIT_FOR_DIALOG_INTERACTION
132: 0x064E [0x52] END_LOAD_SCHEDULER: End scheduler "s005" with entities [EventEntity, EventEntity], work=873*
133: 0x065D [0x45] LOAD_SCHEDULED_TASK: Load scheduler "s006" with entities [EventEntity, EventEntity], work=[873*, 0*]
134: 0x066E [0x27] REQ_SET(priority=0x10, entity_id=Leadavox (ID: 17494797/0x010AF30D), tag_num=0x07)
135: 0x0675 [0x2B] Leadavox (ID: 17494797/0x010AF30D) [8977*]:
    → "Use it!? You mean hatch it!?"
136: 0x067C [0x29] REQ_SET_WAIT(priority=0x10, entity_id=Leadavox (ID: 17494797/0x010AF30D), tag_num=0x08)
137: 0x0683 [0x23] WAIT_FOR_DIALOG_INTERACTION
138: 0x0684 [0x27] REQ_SET(priority=0x10, entity_id=Leadavox (ID: 17494797/0x010AF30D), tag_num=0x17)
139: 0x068B [0x45] LOAD_SCHEDULED_TASK: Load scheduler "1006" with entities [EventEntity, EventEntity], work=[873*, 0*]
140: 0x069C [0x2B] Leadavox (ID: 17494797/0x010AF30D) [8978*]:
    → "If we do that...BOOM! It's gonna be the end of everything as we know it!"
141: 0x06A3 [0x1C] WAIT(120* ticks)
142: 0x06A6 [0x29] REQ_SET_WAIT(priority=0x10, entity_id=Leadavox (ID: 17494797/0x010AF30D), tag_num=0x18)
143: 0x06AD [0x23] WAIT_FOR_DIALOG_INTERACTION
144: 0x06AE [0x27] REQ_SET(priority=0x10, entity_id=Leadavox (ID: 17494797/0x010AF30D), tag_num=0x19)
145: 0x06B5 [0x52] END_LOAD_SCHEDULER: End scheduler "s006" with entities [EventEntity, EventEntity], work=873*
146: 0x06C4 [0x45] LOAD_SCHEDULED_TASK: Load scheduler "s007" with entities [EventEntity, EventEntity], work=[873*, 0*]
147: 0x06D5 [0x2C] CREATE_SCHEDULER_TASK: Create scheduler "wpof" with entities [Enkelados (ID: 17494799/0x010AF30F), Enkelados (ID: 17494799/0x010AF30F)]
148: 0x06E2 [0x53] WAIT_SCHEDULER_TASK: Wait for scheduler "wpof" with entities [Enkelados (ID: 17494799/0x010AF30F), Enkelados (ID: 17494799/0x010AF30F)]
149: 0x06EF [0x27] REQ_SET(priority=0x10, entity_id=Enkelados (ID: 17494799/0x010AF30F), tag_num=0x06)
150: 0x06F6 [0x2B] Enkelados (ID: 17494799/0x010AF30F) [8979*]:
    → "Gaghuuu! Gogoggu! Gigeh, gagagghe!"
151: 0x06FD [0x1C] WAIT(30* ticks)
152: 0x0700 [0x4A] Leadavox (ID: 17494797/0x010AF30D) looks at Enkelados (ID: 17494799/0x010AF30F)
153: 0x0709 [0x29] REQ_SET_WAIT(priority=0x10, entity_id=Leadavox (ID: 17494797/0x010AF30D), tag_num=0x08)
154: 0x0710 [0x23] WAIT_FOR_DIALOG_INTERACTION
155: 0x0711 [0x2B] Enkelados (ID: 17494799/0x010AF30F) [8980*]:
    → "Gagaggha! Gahggaguggoh, guvahvah!"
156: 0x0718 [0x29] REQ_SET_WAIT(priority=0x10, entity_id=Enkelados (ID: 17494799/0x010AF30F), tag_num=0x07)
157: 0x071F [0x23] WAIT_FOR_DIALOG_INTERACTION
158: 0x0720 [0x52] END_LOAD_SCHEDULER: End scheduler "s007" with entities [EventEntity, EventEntity], work=873*
159: 0x072F [0x45] LOAD_SCHEDULED_TASK: Load scheduler "blof" with entities [EventEntity, EventEntity], work=[873*, 0*]
160: 0x0740 [0x45] LOAD_SCHEDULED_TASK: Load scheduler "s008" with entities [EventEntity, EventEntity], work=[873*, 0*]
161: 0x0751 [0x2C] CREATE_SCHEDULER_TASK: Create scheduler "wpon" with entities [Enkelados (ID: 17494799/0x010AF30F), Enkelados (ID: 17494799/0x010AF30F)]
162: 0x075E [0x53] WAIT_SCHEDULER_TASK: Wait for scheduler "wpon" with entities [Enkelados (ID: 17494799/0x010AF30F), Enkelados (ID: 17494799/0x010AF30F)]
163: 0x076B [0x27] REQ_SET(priority=0x10, entity_id=Leadavox (ID: 17494797/0x010AF30D), tag_num=0x07)
164: 0x0772 [0x45] LOAD_SCHEDULED_TASK: Load scheduler "1001" with entities [EventEntity, EventEntity], work=[873*, 0*]
165: 0x0783 [0x2B] Leadavox (ID: 17494797/0x010AF30D) [8981*]:
    → "Of course I know that. The Shadow Lord is clearly a powerful adversary."
166: 0x078A [0x23] WAIT_FOR_DIALOG_INTERACTION
167: 0x078B [0x6B] STOP_AND_IDLE: Enkelados (ID: 17494799/0x010AF30F) stops current action and resets to idle (animation="idl0")
168: 0x0794 [0x2B] Leadavox (ID: 17494797/0x010AF30D) [8982*]:
    → "Naturally, I don't plan to oppose him. The Shadow Lord is supreme."
169: 0x079B [0x29] REQ_SET_WAIT(priority=0x10, entity_id=Leadavox (ID: 17494797/0x010AF30D), tag_num=0x08)
170: 0x07A2 [0x23] WAIT_FOR_DIALOG_INTERACTION
171: 0x07A3 [0x27] REQ_SET(priority=0x10, entity_id=Leadavox (ID: 17494797/0x010AF30D), tag_num=0x09)
172: 0x07AA [0x52] END_LOAD_SCHEDULER: End scheduler "s008" with entities [EventEntity, EventEntity], work=873*
173: 0x07B9 [0x45] LOAD_SCHEDULED_TASK: Load scheduler "s009" with entities [EventEntity, EventEntity], work=[873*, 0*]
174: 0x07CA [0xC4] SCHEDULE_MAGIC_CASTING_ALT (arg=18): Enkelados (ID: 17494799/0x010AF30F) casts magic 411* on Leadavox (ID: 17494797/0x010AF30D)
175: 0x07D6 [0x2B] Enkelados (ID: 17494799/0x010AF30F) [8983*]:
    → "Gauuga, ugaghegga!"
176: 0x07DD [0x1C] WAIT(30* ticks)
177: 0x07E0 [0x27] REQ_SET(priority=0x10, entity_id=Leadavox (ID: 17494797/0x010AF30D), tag_num=0x1F)
178: 0x07E7 [0x7C] Leadavox (ID: 17494797/0x010AF30D)->Render.Flags2 |= 0x00
179: 0x07ED [0x2B] Leadavox (ID: 17494797/0x010AF30D) [8984*]:
    → "!?"
180: 0x07F4 [0x1C] WAIT(30* ticks)
181: 0x07F7 [0x7C] Leadavox (ID: 17494797/0x010AF30D)->Render.Flags2 |= 0x01
182: 0x07FD [0x52] END_LOAD_SCHEDULER: End scheduler "s009" with entities [EventEntity, EventEntity], work=873*
183: 0x080C [0x45] LOAD_SCHEDULED_TASK: Load scheduler "s010" with entities [EventEntity, EventEntity], work=[873*, 0*]
184: 0x081D [0xCD] LOAD_SCHEDULED_TASK_ALT4: Load scheduler "s001" with entities [EventEntity, EventEntity], work=[7*, 0*]
185: 0x082E [0x6C] FADE_ENTITY_COLOR(entity_id=Leadavox (ID: 17494797/0x010AF30D), end_alpha=0*, fade_time=1*)
186: 0x0837 [0x6C] FADE_ENTITY_COLOR(entity_id=Leadavox (ID: 17494798/0x010AF30E), end_alpha=128*, fade_time=1*)
187: 0x0840 [0xC5] LOAD_SCHEDULED_TASK_ALT3: Load scheduler 0x80016E69 for entities [Leadavox (ID: 17494798/0x010AF30E), Leadavox (ID: 17494798/0x010AF30E)], work=139*, param=24941
188: 0x0851 [0x4A] Sharpshot Luttdrutt (ID: 17494800/0x010AF310) looks at Leadavox (ID: 17494797/0x010AF30D)
189: 0x085A [0x4A] Sa'Jho Shieldbreaker (ID: 17494802/0x010AF312) looks at Leadavox (ID: 17494797/0x010AF30D)
190: 0x0863 [0x1C] WAIT(240* ticks)
191: 0x0866 [0x52] END_LOAD_SCHEDULER: End scheduler "s010" with entities [EventEntity, EventEntity], work=873*
192: 0x0875 [0x45] LOAD_SCHEDULED_TASK: Load scheduler "s011" with entities [EventEntity, EventEntity], work=[873*, 0*]
193: 0x0886 [0x27] REQ_SET(priority=0x10, entity_id=Sharpshot Luttdrutt (ID: 17494800/0x010AF310), tag_num=0x09)
194: 0x088D [0x2B] Sharpshot Luttdrutt (ID: 17494800/0x010AF310) [8985*]:
    → "Gwahaha! Death to all traitors!"
195: 0x0894 [0x29] REQ_SET_WAIT(priority=0x10, entity_id=Sharpshot Luttdrutt (ID: 17494800/0x010AF310), tag_num=0x0A)
196: 0x089B [0x23] WAIT_FOR_DIALOG_INTERACTION
197: 0x089C [0x27] REQ_SET(priority=0x10, entity_id=Sharpshot Luttdrutt (ID: 17494800/0x010AF310), tag_num=0x07)
198: 0x08A3 [0x52] END_LOAD_SCHEDULER: End scheduler "s011" with entities [EventEntity, EventEntity], work=873*
199: 0x08B2 [0x02] IF !(LocalPlayer->Race == 8*) GOTO 0x08CE
200: 0x08BA [0x45] LOAD_SCHEDULED_TASK: Load scheduler "sg12" with entities [EventEntity, EventEntity], work=[873*, 0*]
201: 0x08CB [0x01] GOTO 0x08DF
202: 0x08CE [0x45] LOAD_SCHEDULED_TASK: Load scheduler "s012" with entities [EventEntity, EventEntity], work=[873*, 0*]

SUBROUTINE_08DF:
203: 0x08DF [0x4A] Sa'Jho Shieldbreaker (ID: 17494802/0x010AF312) looks at LocalPlayer
204: 0x08E8 [0x2B] Sa'Jho Shieldbreaker (ID: 17494802/0x010AF312) [8986*]:
    → "Hrgh!?"
205: 0x08EF [0x6F] WAIT_FRAME_DELAY: Yield until WaitTime reaches zero
206: 0x08F0 [0x76] CHECK_ENTITY_RENDER_FLAGS: Wait until Sa'Jho Shieldbreaker (ID: 17494802/0x010AF312) Render.Flags0 and Render.Flags3 conditions are met
207: 0x08F5 [0x1C] WAIT(30* ticks)
208: 0x08F8 [0x4A] Sharpshot Luttdrutt (ID: 17494800/0x010AF310) looks at LocalPlayer
209: 0x0901 [0x4A] Enkelados (ID: 17494799/0x010AF30F) looks at LocalPlayer
210: 0x090A [0x6F] WAIT_FRAME_DELAY: Yield until WaitTime reaches zero
211: 0x090B [0x76] CHECK_ENTITY_RENDER_FLAGS: Wait until Sharpshot Luttdrutt (ID: 17494800/0x010AF310) Render.Flags0 and Render.Flags3 conditions are met
212: 0x0910 [0x27] REQ_SET(priority=0x10, entity_id=Sharpshot Luttdrutt (ID: 17494801/0x010AF311), tag_num=0x0A)
213: 0x0917 [0x1C] WAIT(75* ticks)
214: 0x091A [0x27] REQ_SET(priority=0x10, entity_id=Sharpshot Luttdrutt (ID: 17494800/0x010AF310), tag_num=0x1B)
215: 0x0921 [0x1C] WAIT(45* ticks)
216: 0x0924 [0x6C] FADE_ENTITY_COLOR(entity_id=Sharpshot Luttdrutt (ID: 17494800/0x010AF310), end_alpha=0*, fade_time=1*)
217: 0x092D [0x02] IF !(LocalPlayer->Race == 8*) GOTO 0x0947
218: 0x0935 [0x52] END_LOAD_SCHEDULER: End scheduler "sg12" with entities [EventEntity, EventEntity], work=873*
219: 0x0944 [0x01] GOTO 0x0956
220: 0x0947 [0x52] END_LOAD_SCHEDULER: End scheduler "s012" with entities [EventEntity, EventEntity], work=873*

SUBROUTINE_0956:
221: 0x0956 [0x45] LOAD_SCHEDULED_TASK: Load scheduler "s013" with entities [EventEntity, EventEntity], work=[873*, 0*]
222: 0x0967 [0x6C] FADE_ENTITY_COLOR(entity_id=Sharpshot Luttdrutt (ID: 17494801/0x010AF311), end_alpha=128*, fade_time=1*)
223: 0x0970 [0xCD] LOAD_SCHEDULED_TASK_ALT4: Load scheduler "s001" with entities [EventEntity, EventEntity], work=[7*, 0*]
224: 0x0981 [0x1C] WAIT(90* ticks)
225: 0x0984 [0x52] END_LOAD_SCHEDULER: End scheduler "s013" with entities [EventEntity, EventEntity], work=873*
226: 0x0993 [0x45] LOAD_SCHEDULED_TASK: Load scheduler "sa13" with entities [EventEntity, EventEntity], work=[873*, 0*]
227: 0x09A4 [0x27] REQ_SET(priority=0x10, entity_id=Sharpshot Luttdrutt (ID: 17494801/0x010AF311), tag_num=0x02)
228: 0x09AB [0x2B] Sharpshot Luttdrutt (ID: 17494800/0x010AF310) [8987*]:
    → "Who're you!?"
229: 0x09B2 [0x29] REQ_SET_WAIT(priority=0x10, entity_id=Sharpshot Luttdrutt (ID: 17494801/0x010AF311), tag_num=0x03)
230: 0x09B9 [0x23] WAIT_FOR_DIALOG_INTERACTION
231: 0x09BA [0x5C] MUSIC_CONTROL: Set Idle (Day) music to song 26*
232: 0x09BE [0x5C] MUSIC_CONTROL: Set Idle (Night) music to song 26*
233: 0x09C2 [0x9A] WAIT_MUSIC_SERVER()
234: 0x09C3 [0x52] END_LOAD_SCHEDULER: End scheduler "sa13" with entities [EventEntity, EventEntity], work=873*
235: 0x09D2 [0x02] IF !(LocalPlayer->Race == 3*) GOTO 0x09EE
236: 0x09DA [0x45] LOAD_SCHEDULED_TASK: Load scheduler "sg14" with entities [EventEntity, EventEntity], work=[873*, 0*]
237: 0x09EB [0x01] GOTO 0x0A6F
238: 0x09EE [0x02] IF !(LocalPlayer->Race == 4*) GOTO 0x0A0A
239: 0x09F6 [0x45] LOAD_SCHEDULED_TASK: Load scheduler "sg14" with entities [EventEntity, EventEntity], work=[873*, 0*]
240: 0x0A07 [0x01] GOTO 0x0A6F
241: 0x0A0A [0x02] IF !(LocalPlayer->Race == 5*) GOTO 0x0A26
242: 0x0A12 [0x45] LOAD_SCHEDULED_TASK: Load scheduler "st14" with entities [EventEntity, EventEntity], work=[873*, 0*]
243: 0x0A23 [0x01] GOTO 0x0A6F
244: 0x0A26 [0x02] IF !(LocalPlayer->Race == 6*) GOTO 0x0A42
245: 0x0A2E [0x45] LOAD_SCHEDULED_TASK: Load scheduler "st14" with entities [EventEntity, EventEntity], work=[873*, 0*]
246: 0x0A3F [0x01] GOTO 0x0A6F
247: 0x0A42 [0x02] IF !(LocalPlayer->Race == 8*) GOTO 0x0A5E
248: 0x0A4A [0x45] LOAD_SCHEDULED_TASK: Load scheduler "sg14" with entities [EventEntity, EventEntity], work=[873*, 0*]
249: 0x0A5B [0x01] GOTO 0x0A6F
250: 0x0A5E [0x45] LOAD_SCHEDULED_TASK: Load scheduler "s014" with entities [EventEntity, EventEntity], work=[873*, 0*]

SUBROUTINE_0A6F:
251: 0x0A6F [0xC4] SCHEDULE_MAGIC_CASTING_ALT (arg=18): Sa'Jho Shieldbreaker (ID: 17494802/0x010AF312) casts magic 1491* on EventEntity
252: 0x0A7B [0x2B] Sa'Jho Shieldbreaker (ID: 17494802/0x010AF312) [8988*]:
    → "We will bathe in your blood!"
253: 0x0A82 [0x1C] WAIT(90* ticks)
254: 0x0A85 [0x27] REQ_SET(priority=0x10, entity_id=LocalPlayer, tag_num=0x1D)
255: 0x0A8C [0x1C] WAIT(90* ticks)
256: 0x0A8F [0x02] IF !(LocalPlayer->Race == 3*) GOTO 0x0AA9
257: 0x0A97 [0x52] END_LOAD_SCHEDULER: End scheduler "sg14" with entities [EventEntity, EventEntity], work=873*
258: 0x0AA6 [0x01] GOTO 0x0B20
259: 0x0AA9 [0x02] IF !(LocalPlayer->Race == 4*) GOTO 0x0AC3
260: 0x0AB1 [0x52] END_LOAD_SCHEDULER: End scheduler "sg14" with entities [EventEntity, EventEntity], work=873*
261: 0x0AC0 [0x01] GOTO 0x0B20
262: 0x0AC3 [0x02] IF !(LocalPlayer->Race == 5*) GOTO 0x0ADD
263: 0x0ACB [0x52] END_LOAD_SCHEDULER: End scheduler "st14" with entities [EventEntity, EventEntity], work=873*
264: 0x0ADA [0x01] GOTO 0x0B20
265: 0x0ADD [0x02] IF !(LocalPlayer->Race == 6*) GOTO 0x0AF7
266: 0x0AE5 [0x52] END_LOAD_SCHEDULER: End scheduler "st14" with entities [EventEntity, EventEntity], work=873*
267: 0x0AF4 [0x01] GOTO 0x0B20
268: 0x0AF7 [0x02] IF !(LocalPlayer->Race == 8*) GOTO 0x0B11
269: 0x0AFF [0x52] END_LOAD_SCHEDULER: End scheduler "sg14" with entities [EventEntity, EventEntity], work=873*
270: 0x0B0E [0x01] GOTO 0x0B20
271: 0x0B11 [0x52] END_LOAD_SCHEDULER: End scheduler "s014" with entities [EventEntity, EventEntity], work=873*

SUBROUTINE_0B20:
272: 0x0B20 [0x45] LOAD_SCHEDULED_TASK: Load scheduler "s015" with entities [EventEntity, EventEntity], work=[873*, 0*]
273: 0x0B31 [0x2C] CREATE_SCHEDULER_TASK: Create scheduler "wpof" with entities [Enkelados (ID: 17494799/0x010AF30F), Enkelados (ID: 17494799/0x010AF30F)]
274: 0x0B3E [0x53] WAIT_SCHEDULER_TASK: Wait for scheduler "wpof" with entities [Enkelados (ID: 17494799/0x010AF30F), Enkelados (ID: 17494799/0x010AF30F)]
275: 0x0B4B [0x27] REQ_SET(priority=0x10, entity_id=Enkelados (ID: 17494799/0x010AF30F), tag_num=0x06)
276: 0x0B52 [0x2B] Enkelados (ID: 17494799/0x010AF30F) [8989*]:
    → "Ugah! Gugaaaaaa!"
277: 0x0B59 [0x29] REQ_SET_WAIT(priority=0x10, entity_id=Enkelados (ID: 17494799/0x010AF30F), tag_num=0x07)
278: 0x0B60 [0x1A] CALL_SUBROUTINE(address=0x01B7)
279: 0x0B63 [0x1C] WAIT(120* ticks)
280: 0x0B66 [0x1A] CALL_SUBROUTINE(address=0x0064)
281: 0x0B69 [0xBA] SET_ENTITY_POSITION(entity_id=LocalPlayer, pos_x=0.000*, pos_z=0.000*, pos_y=0.000*, direction=0.0°*)
282: 0x0B76 [0x1C] WAIT(30* ticks)
283: 0x0B79 [0x27] REQ_SET(priority=0x10, entity_id=LocalPlayer, tag_num=0x1E)
284: 0x0B80 [0x52] END_LOAD_SCHEDULER: End scheduler "s015" with entities [EventEntity, EventEntity], work=873*
285: 0x0B8F [0x45] LOAD_SCHEDULED_TASK: Load scheduler "blof" with entities [EventEntity, EventEntity], work=[873*, 0*]
286: 0x0BA0 [0x5D] SET_MUSIC_VOLUME(volume=0*, fade_time=300*)
287: 0x0BA5 [0x1C] WAIT(60* ticks)
288: 0x0BA8 [0x1A] CALL_SUBROUTINE(address=0x0196)
289: 0x0BAB [0x2C] CREATE_SCHEDULER_TASK: Create scheduler "wpon" with entities [Enkelados (ID: 17494799/0x010AF30F), Enkelados (ID: 17494799/0x010AF30F)]
290: 0x0BB8 [0x53] WAIT_SCHEDULER_TASK: Wait for scheduler "wpon" with entities [Enkelados (ID: 17494799/0x010AF30F), Enkelados (ID: 17494799/0x010AF30F)]
291: 0x0BC5 [0x29] REQ_SET_WAIT(priority=0x10, entity_id=Enkelados (ID: 17494799/0x010AF30F), tag_num=0x05)
292: 0x0BCC [0x29] REQ_SET_WAIT(priority=0x10, entity_id=Sa'Jho Shieldbreaker (ID: 17494802/0x010AF312), tag_num=0x04)
293: 0x0BD3 [0xD8] SET_ENTITY_EVENT_DIR: Copy Unnamed NPC (ID: 17494803/0x010AF313) LastPosition to EventDir
294: 0x0BD9 [0x5C] MUSIC_CONTROL: Set Idle (Day) music to song 0*
295: 0x0BDD [0x5C] MUSIC_CONTROL: Set Idle (Night) music to song 0*
296: 0x0BE1 [0x5C] MUSIC_CONTROL: Set Combat (Solo) music to song 115*
297: 0x0BE5 [0x5C] MUSIC_CONTROL: Set Combat (Party) music to song 216*
298: 0x0BE9 [0x9A] WAIT_MUSIC_SERVER()
299: 0x0BEA [0x5D] SET_MUSIC_VOLUME(volume=127*, fade_time=1*)
300: 0x0BEF [0x1C] WAIT(15* ticks)
301: 0x0BF2 [0xAB] EventEntity->DespawnValue = 0* // Set despawn value
302: 0x0BF6 [0x1C] WAIT(1* ticks)
303: 0x0BF9 [0x46] CAMERA_CONTROL: Restore default settings
304: 0x0BFB [0x45] LOAD_SCHEDULED_TASK: Load scheduler "fdi2" with entities [EventEntity, EventEntity], work=[200*, 0*]
305: 0x0C0C [0x21] END_EVENT
306: 0x0C0D [0x00] END_REQSTACK()
```

### Event 49

#### Metadata

| Field        | Value      |
|--------------|------------|
| Entrypoint   | 0x0C0E     |
| Data Size    | 7041 bytes |
| Instructions | 829        |

```
      00 01 02 03 04 05 06 07  08 09 0A 0B 0C 0D 0E 0F
      -- -- -- -- -- -- -- --  -- -- -- -- -- -- -- --
0C00:                                            42 03                B.
0C10: 01 00 03 10 5D 01 80 08  80 1A 64 00 46 01 38 09  ....].....d.F.8.
0C20: 80 2F 00 0D F3 0A 01 2F  00 0F F3 0A 01 2F 00 10  ./...../...../..
0C30: F3 0A 01 2F 00 12 F3 0A  01 2F 00 13 F3 0A 01 2F  .../...../...../
0C40: 00 14 F3 0A 01 2F 00 15  F3 0A 01 2F 00 16 F3 0A  ...../...../....
0C50: 01 2F 00 17 F3 0A 01 2F  00 18 F3 0A 01 2F 00 19  ./...../...../..
0C60: F3 0A 01 2F 00 1A F3 0A  01 2F 00 1B F3 0A 01 4E  .../...../.....N
0C70: 00 0D F3 0A 01 4E 00 0F  F3 0A 01 4E 00 10 F3 0A  .....N.....N....
0C80: 01 4E 00 12 F3 0A 01 4E  00 13 F3 0A 01 4E 00 14  .N.....N.....N..
0C90: F3 0A 01 4E 00 15 F3 0A  01 4E 00 16 F3 0A 01 4E  ...N.....N.....N
0CA0: 00 17 F3 0A 01 4E 00 18  F3 0A 01 4E 00 19 F3 0A  .....N.....N....
0CB0: 01 4E 00 1A F3 0A 01 4E  00 1B F3 0A 01 94 01 0D  .N.....N........
0CC0: F3 0A 01 94 01 0F F3 0A  01 94 01 10 F3 0A 01 94  ................
0CD0: 01 12 F3 0A 01 94 01 13  F3 0A 01 94 01 14 F3 0A  ................
0CE0: 01 94 01 15 F3 0A 01 94  01 16 F3 0A 01 94 01 17  ................
0CF0: F3 0A 01 94 01 18 F3 0A  01 94 01 19 F3 0A 01 94  ................
0D00: 01 1A F3 0A 01 94 01 1B  F3 0A 01 94 01 F0 FF FF  ................
0D10: 7F BA 0D F3 0A 01 0E 80  0F 80 10 80 11 80 BA 0F  ................
0D20: F3 0A 01 50 80 51 80 52  80 53 80 BA 10 F3 0A 01  ...P.Q.R.S......
0D30: 01 80 01 80 01 80 01 80  BA 12 F3 0A 01 54 80 55  .............T.U
0D40: 80 0C 80 56 80 BA 13 F3  0A 01 1E 80 1F 80 20 80  ...V.......... .
0D50: 21 80 BA 14 F3 0A 01 1E  80 1F 80 20 80 21 80 BA  !.......... .!..
0D60: 15 F3 0A 01 57 80 58 80  59 80 5A 80 BA 16 F3 0A  ....W.X.Y.Z.....
0D70: 01 01 80 01 80 01 80 01  80 BA 17 F3 0A 01 5B 80  ..............[.
0D80: 5C 80 5D 80 5E 80 BA 18  F3 0A 01 5F 80 60 80 61  \.].^......_.`.a
0D90: 80 62 80 BA 19 F3 0A 01  63 80 64 80 65 80 66 80  .b......c.d.e.f.
0DA0: BA 1A F3 0A 01 67 80 68  80 69 80 6A 80 BA 1B F3  .....g.h.i.j....
0DB0: 0A 01 6B 80 6C 80 6D 80  6E 80 D8 01 13 F3 0A 01  ..k.l.m.n.......
0DC0: 01 80 D8 02 13 F3 0A 01  01 80 D8 03 13 F3 0A 01  ................
0DD0: 26 80 BA F0 FF FF 7F 01  80 01 80 01 80 01 80 80  &...............
0DE0: 0D F3 0A 01 80 0F F3 0A  01 80 10 F3 0A 01 80 12  ................
0DF0: F3 0A 01 80 13 F3 0A 01  80 14 F3 0A 01 80 15 F3  ................
0E00: 0A 01 80 16 F3 0A 01 80  17 F3 0A 01 80 18 F3 0A  ................
0E10: 01 80 19 F3 0A 01 80 1A  F3 0A 01 80 1B F3 0A 01  ................
0E20: 80 F0 FF FF 7F 5C 00 27  80 5C 01 27 80 5C 02 27  .....\.'.\.'.\.'
0E30: 80 5C 03 27 80 9A 5D 28  80 03 80 29 10 F0 FF FF  .\.'..](...)....
0E40: 7F 1D 27 10 16 F3 0A 01  16 C5 40 80 0D F3 0A 01  ..'.......@.....
0E50: 0D F3 0A 01 6D 6F 74 32  01 80 2C 0F F3 0A 01 0F  ....mot2..,.....
0E60: F3 0A 01 77 70 6F 66 53  0F F3 0A 01 0F F3 0A 01  ...wpofS........
0E70: 77 70 6F 66 5B 6F 80 0F  F3 0A 01 0F F3 0A 01 61  wpof[o.........a
0E80: 61 33 30 5B 70 80 10 F3  0A 01 10 F3 0A 01 77 72  a30[p.........wr
0E90: 64 31 2C 12 F3 0A 01 12  F3 0A 01 63 6F 72 70 53  d1,........corpS
0EA0: 0F F3 0A 01 0F F3 0A 01  61 61 33 30 53 10 F3 0A  ........aa30S...
0EB0: 01 10 F3 0A 01 77 72 64  31 53 12 F3 0A 01 12 F3  .....wrd1S......
0EC0: 0A 01 63 6F 72 70 2C 13  F3 0A 01 13 F3 0A 01 6B  ..corp,........k
0ED0: 69 6C 6C 6C 14 F3 0A 01  01 80 03 80 6C 15 F3 0A  illl........l...
0EE0: 01 01 80 03 80 6C 16 F3  0A 01 01 80 03 80 6C 17  .....l........l.
0EF0: F3 0A 01 01 80 03 80 6C  18 F3 0A 01 01 80 03 80  .......l........
0F00: 6C 19 F3 0A 01 01 80 03  80 6C 1A F3 0A 01 01 80  l........l......
0F10: 03 80 6C 1B F3 0A 01 01  80 03 80 1C 2B 80 BA 16  ..l.........+...
0F20: F3 0A 01 71 80 72 80 0C  80 73 80 4A 16 F3 0A 01  ...q.r...s.J....
0F30: 13 F3 0A 01 BA F0 FF FF  7F 74 80 75 80 0C 80 76  .........t.u...v
0F40: 80 BA 10 F3 0A 01 77 80  78 80 0C 80 79 80 5B 6F  ......w.x...y.[o
0F50: 80 0F F3 0A 01 0F F3 0A  01 73 64 30 32 45 7A 80  .........sd02Ez.
0F60: F8 FF FF 7F F8 FF FF 7F  73 30 30 30 01 80 1A 43  ........s000...C
0F70: 00 45 7A 80 F8 FF FF 7F  F8 FF FF 7F 38 30 30 32  .Ez.........8002
0F80: 01 80 2B 0F F3 0A 01 7B  80 53 0F F3 0A 01 0F F3  ..+....{.S......
0F90: 0A 01 73 64 30 32 23 6C  15 F3 0A 01 3F 80 03 80  ..sd02#l....?...
0FA0: 6C 17 F3 0A 01 3F 80 03  80 6C 18 F3 0A 01 3F 80  l....?...l....?.
0FB0: 03 80 6C 19 F3 0A 01 3F  80 03 80 6C 1A F3 0A 01  ..l....?...l....
0FC0: 3F 80 03 80 27 10 15 F3  0A 01 22 27 10 17 F3 0A  ?...'....."'....
0FD0: 01 25 27 10 18 F3 0A 01  25 27 10 19 F3 0A 01 02  .%'.....%'......
0FE0: 27 10 1A F3 0A 01 02 52  7A 80 F8 FF FF 7F F8 FF  '......Rz.......
0FF0: FF 7F 73 30 30 30 45 7A  80 F8 FF FF 7F F8 FF FF  ..s000Ez........
1000: 7F 73 30 30 31 01 80 1C  30 80 52 7A 80 F8 FF FF  .s001...0.Rz....
1010: 7F F8 FF FF 7F 73 30 30  31 45 7A 80 F8 FF FF 7F  .....s001Ez.....
1020: F8 FF FF 7F 73 30 30 32  01 80 2A 10 15 F3 0A 01  ....s002..*.....
1030: 79 00 15 F3 0A 01 0F F3  0A 01 2A 10 17 F3 0A 01  y.........*.....
1040: 2A 10 18 F3 0A 01 2A 10  19 F3 0A 01 2A 10 1A F3  *.....*.....*...
1050: 0A 01 79 00 17 F3 0A 01  0F F3 0A 01 79 00 18 F3  ..y.........y...
1060: 0A 01 0F F3 0A 01 79 00  19 F3 0A 01 0F F3 0A 01  ......y.........
1070: 79 00 1A F3 0A 01 0F F3  0A 01 27 10 15 F3 0A 01  y.........'.....
1080: 10 1C 2B 80 27 10 19 F3  0A 01 03 1C 7C 80 27 10  ..+.'.......|.'.
1090: 1A F3 0A 01 03 1C 06 80  6B 69 64 6C 30 15 F3 0A  ........kidl0...
10A0: 01 79 00 17 F3 0A 01 15  F3 0A 01 79 00 18 F3 0A  .y.........y....
10B0: 01 15 F3 0A 01 5C 00 01  80 5C 01 01 80 9A 52 7A  .....\...\....Rz
10C0: 80 F8 FF FF 7F F8 FF FF  7F 73 30 30 32 45 7A 80  .........s002Ez.
10D0: F8 FF FF 7F F8 FF FF 7F  73 30 30 33 01 80 27 10  ........s003..'.
10E0: 0F F3 0A 01 03 1C 06 80  1C 2A 80 29 10 F0 FF FF  .........*.)....
10F0: 7F 1E 1C 2B 80 4A F0 FF  FF 7F 15 F3 0A 01 6F 76  ...+.J........ov
1100: F0 FF FF 7F 27 10 F0 FF  FF 7F 1C 52 7A 80 F8 FF  ....'......Rz...
1110: FF 7F F8 FF FF 7F 73 30  30 33 45 7A 80 F8 FF FF  ......s003Ez....
1120: 7F F8 FF FF 7F 73 30 30  34 01 80 79 00 15 F3 0A  .....s004..y....
1130: 01 F0 FF FF 7F 27 10 15  F3 0A 01 23 1C 2A 80 52  .....'.....#.*.R
1140: 7A 80 F8 FF FF 7F F8 FF  FF 7F 73 30 30 34 45 7A  z.........s004Ez
1150: 80 F8 FF FF 7F F8 FF FF  7F 73 30 30 35 01 80 2B  .........s005..+
1160: 15 F3 0A 01 7D 80 1C 30  80 2A 10 15 F3 0A 01 23  ....}..0.*.....#
1170: 4A 15 F3 0A 01 13 F3 0A  01 6F 76 15 F3 0A 01 5C  J........ov....\
1180: 00 2C 80 5C 01 2C 80 9A  1C 06 80 27 10 15 F3 0A  .,.\.,.....'....
1190: 01 24 52 7A 80 F8 FF FF  7F F8 FF FF 7F 73 30 30  .$Rz.........s00
11A0: 35 45 7A 80 F8 FF FF 7F  F8 FF FF 7F 73 30 30 36  5Ez.........s006
11B0: 01 80 2B 15 F3 0A 01 7E  80 2A 10 15 F3 0A 01 4A  ..+....~.*.....J
11C0: 17 F3 0A 01 15 F3 0A 01  4A 18 F3 0A 01 15 F3 0A  ........J.......
11D0: 01 4A F0 FF FF 7F 15 F3  0A 01 1A B7 01 52 7A 80  .J...........Rz.
11E0: F8 FF FF 7F F8 FF FF 7F  73 30 30 36 45 7A 80 F8  ........s006Ez..
11F0: FF FF 7F F8 FF FF 7F 73  30 30 37 01 80 27 10 15  .......s007..'..
1200: F3 0A 01 12 1C 06 80 1A  96 01 CD 7F 80 F8 FF FF  ................
1210: 7F F8 FF FF 7F 6D 65 6D  31 01 80 9F 80 80 F8 FF  .....mem1.......
1220: FF 7F F8 FF FF 7F 6D 61  69 6E 01 80 2B 15 F3 0A  ......main..+...
1230: 01 81 80 29 10 15 F3 0A  01 13 CD 7F 80 F8 FF FF  ...)............
1240: 7F F8 FF FF 7F 6B 6C 6D  30 01 80 23 27 10 15 F3  .....klm0..#'...
1250: 0A 01 14 52 7A 80 F8 FF  FF 7F F8 FF FF 7F 73 30  ...Rz.........s0
1260: 30 37 45 7A 80 F8 FF FF  7F F8 FF FF 7F 73 30 30  07Ez.........s00
1270: 38 01 80 27 10 0D F3 0A  01 31 1C 82 80 27 10 0D  8..'.....1...'..
1280: F3 0A 01 19 45 7A 80 F8  FF FF 7F F8 FF FF 7F 31  ....Ez.........1
1290: 30 30 31 01 80 2B 0D F3  0A 01 83 80 29 10 15 F3  001..+......)...
12A0: 0A 01 15 4A 15 F3 0A 01  0D F3 0A 01 4A F0 FF FF  ...J........J...
12B0: 7F 0D F3 0A 01 29 10 0D  F3 0A 01 1A 4A 0D F3 0A  .....)......J...
12C0: 01 15 F3 0A 01 6F 76 0D  F3 0A 01 1C 7C 80 27 10  .....ov.....|.'.
12D0: 0D F3 0A 01 4D 1C 06 80  52 7A 80 F8 FF FF 7F F8  ....M...Rz......
12E0: FF FF 7F 73 30 30 38 45  7A 80 F8 FF FF 7F F8 FF  ...s008Ez.......
12F0: FF 7F 73 30 30 39 01 80  6B 69 64 6C 30 15 F3 0A  ..s009..kidl0...
1300: 01 2B 0D F3 0A 01 84 80  2A 10 0D F3 0A 01 23 27  .+......*.....#'
1310: 10 0D F3 0A 01 07 2B 0D  F3 0A 01 85 80 1C 86 80  ......+.........
1320: 45 7A 80 F8 FF FF 7F F8  FF FF 7F 31 30 30 36 01  Ez.........1006.
1330: 80 29 10 0D F3 0A 01 08  23 27 10 0D F3 0A 01 09  .)......#'......
1340: 52 7A 80 F8 FF FF 7F F8  FF FF 7F 73 30 30 39 45  Rz.........s009E
1350: 7A 80 F8 FF FF 7F F8 FF  FF 7F 73 30 31 30 01 80  z.........s010..
1360: 4A 15 F3 0A 01 13 F3 0A  01 6F 76 15 F3 0A 01 1C  J........ov.....
1370: 06 80 27 10 15 F3 0A 01  25 4A 0D F3 0A 01 15 F3  ..'.....%J......
1380: 0A 01 4A 15 F3 0A 01 15  F3 0A 01 4A F0 FF FF 7F  ..J........J....
1390: 15 F3 0A 01 1C 87 80 1A  B7 01 52 7A 80 F8 FF FF  ..........Rz....
13A0: 7F F8 FF FF 7F 73 30 31  30 45 7A 80 F8 FF FF 7F  .....s010Ez.....
13B0: F8 FF FF 7F 73 30 31 31  01 80 2A 10 15 F3 0A 01  ....s011..*.....
13C0: 27 10 15 F3 0A 01 18 1C  06 80 1A 96 01 CD 7F 80  '...............
13D0: F8 FF FF 7F F8 FF FF 7F  6D 65 6D 31 01 80 9F 80  ........mem1....
13E0: 80 F8 FF FF 7F F8 FF FF  7F 6D 61 69 6E 01 80 2B  .........main..+
13F0: 15 F3 0A 01 88 80 1C 30  80 CD 7F 80 F8 FF FF 7F  .......0........
1400: F8 FF FF 7F 6B 6C 6D 30  01 80 23 27 10 17 F3 0A  ....klm0..#'....
1410: 01 26 1C 06 80 27 10 18  F3 0A 01 26 1C 06 80 52  .&...'.....&...R
1420: 7A 80 F8 FF FF 7F F8 FF  FF 7F 73 30 31 31 45 7A  z.........s011Ez
1430: 80 F8 FF FF 7F F8 FF FF  7F 73 30 31 32 01 80 2B  .........s012..+
1440: 17 F3 0A 01 89 80 2A 10  17 F3 0A 01 4A 17 F3 0A  ......*.....J...
1450: 01 15 F3 0A 01 2A 10 18  F3 0A 01 4A 18 F3 0A 01  .....*.....J....
1460: 15 F3 0A 01 52 7A 80 F8  FF FF 7F F8 FF FF 7F 73  ....Rz.........s
1470: 30 31 32 45 7A 80 F8 FF  FF 7F F8 FF FF 7F 73 30  012Ez.........s0
1480: 31 33 01 80 6F 76 18 F3  0A 01 1C 06 80 6E 18 F3  13..ov.......n..
1490: 0A 01 8A 80 99 18 F3 0A  01 2B 18 F3 0A 01 8B 80  .........+......
14A0: 1C 8C 80 23 52 7A 80 F8  FF FF 7F F8 FF FF 7F 73  ...#Rz.........s
14B0: 30 31 33 45 7A 80 F8 FF  FF 7F F8 FF FF 7F 73 30  013Ez.........s0
14C0: 31 34 01 80 27 10 15 F3  0A 01 1A 2B 15 F3 0A 01  14..'......+....
14D0: 8D 80 29 10 15 F3 0A 01  1B 23 52 7A 80 F8 FF FF  ..)......#Rz....
14E0: 7F F8 FF FF 7F 73 30 31  34 45 7A 80 F8 FF FF 7F  .....s014Ez.....
14F0: F8 FF FF 7F 73 30 31 35  01 80 6E 18 F3 0A 01 4A  ....s015..n....J
1500: 80 99 18 F3 0A 01 1C 7C  80 6E 17 F3 0A 01 4A 80  .......|.n....J.
1510: 99 17 F3 0A 01 1C 30 80  52 7A 80 F8 FF FF 7F F8  ......0.Rz......
1520: FF FF 7F 73 30 31 35 45  7A 80 F8 FF FF 7F F8 FF  ...s015Ez.......
1530: FF 7F 73 30 31 36 01 80  4A 18 F3 0A 01 13 F3 0A  ..s016..J.......
1540: 01 6F 76 18 F3 0A 01 27  10 18 F3 0A 01 27 6C 15  .ov....'.....'l.
1550: F3 0A 01 01 80 03 80 6C  16 F3 0A 01 3F 80 03 80  .......l....?...
1560: 27 10 16 F3 0A 01 18 1C  06 80 4A 17 F3 0A 01 13  '.........J.....
1570: F3 0A 01 1C 06 80 52 7A  80 F8 FF FF 7F F8 FF FF  ......Rz........
1580: 7F 73 30 31 36 45 7A 80  F8 FF FF 7F F8 FF FF 7F  .s016Ez.........
1590: 62 6C 6F 6E 01 80 45 7A  80 F8 FF FF 7F F8 FF FF  blon..Ez........
15A0: 7F 73 30 31 37 01 80 2B  15 F3 0A 01 8E 80 1C 30  .s017..+.......0
15B0: 80 52 7A 80 F8 FF FF 7F  F8 FF FF 7F 73 30 31 37  .Rz.........s017
15C0: 45 7A 80 F8 FF FF 7F F8  FF FF 7F 73 30 31 38 01  Ez.........s018.
15D0: 80 7C 00 18 F3 0A 01 2B  18 F3 0A 01 8F 80 27 10  .|.....+......'.
15E0: 16 F3 0A 01 1A 1C 86 80  66 90 80 17 F3 0A 01 17  ........f.......
15F0: F3 0A 01 6F 6F 75 31 1C  86 80 66 90 80 18 F3 0A  ...oou1...f.....
1600: 01 18 F3 0A 01 6F 6F 75  31 7C 01 18 F3 0A 01 66  .....oou1|.....f
1610: 90 80 17 F3 0A 01 17 F3  0A 01 6F 6F 75 32 66 90  ..........oou2f.
1620: 80 18 F3 0A 01 18 F3 0A  01 6F 6F 75 32 52 7A 80  .........oou2Rz.
1630: F8 FF FF 7F F8 FF FF 7F  73 30 31 38 45 7A 80 F8  ........s018Ez..
1640: FF FF 7F F8 FF FF 7F 73  30 31 39 01 80 2B 17 F3  .......s019..+..
1650: 0A 01 91 80 1C 2A 80 7A  00 16 F3 0A 01 BA 16 F3  .....*.z........
1660: 0A 01 92 80 93 80 94 80  95 80 1C 7C 80 27 10 16  ...........|.'..
1670: F3 0A 01 14 C5 96 80 16  F3 0A 01 13 F3 0A 01 6D  ...............m
1680: 61 69 6E 01 80 1C 97 80  52 7A 80 F8 FF FF 7F F8  ain.....Rz......
1690: FF FF 7F 73 30 31 39 45  7A 80 F8 FF FF 7F F8 FF  ...s019Ez.......
16A0: FF 7F 73 30 32 30 01 80  4A F0 FF FF 7F 13 F3 0A  ..s020..J.......
16B0: 01 4A 0D F3 0A 01 13 F3  0A 01 1C 87 80 52 7A 80  .J...........Rz.
16C0: F8 FF FF 7F F8 FF FF 7F  73 30 32 30 45 7A 80 F8  ........s020Ez..
16D0: FF FF 7F F8 FF FF 7F 62  6C 6F 66 01 80 45 7A 80  .......blof..Ez.
16E0: F8 FF FF 7F F8 FF FF 7F  73 30 32 31 01 80 62 98  ........s021..b.
16F0: 80 13 F3 0A 01 13 F3 0A  01 6D 61 69 6E 01 80 45  .........main..E
1700: 7A 80 F8 FF FF 7F F8 FF  FF 7F 38 30 32 39 01 80  z.........8029..
1710: 1C 08 80 52 7A 80 F8 FF  FF 7F F8 FF FF 7F 73 30  ...Rz.........s0
1720: 32 31 45 7A 80 F8 FF FF  7F F8 FF FF 7F 73 30 32  21Ez.........s02
1730: 32 01 80 2B 15 F3 0A 01  99 80 1C 8C 80 52 7A 80  2..+.........Rz.
1740: F8 FF FF 7F F8 FF FF 7F  73 30 32 32 45 7A 80 F8  ........s022Ez..
1750: FF FF 7F F8 FF FF 7F 73  30 32 33 01 80 27 10 0D  .......s023..'..
1760: F3 0A 01 1F 45 7A 80 F8  FF FF 7F F8 FF FF 7F 31  ....Ez.........1
1770: 30 30 36 01 80 2B 0D F3  0A 01 9A 80 1C 2B 80 62  006..+.......+.b
1780: 98 80 13 F3 0A 01 13 F3  0A 01 73 65 6E 64 01 80  ..........send..
1790: 29 10 0D F3 0A 01 20 23  27 10 0D F3 0A 01 21 52  )..... #'.....!R
17A0: 7A 80 F8 FF FF 7F F8 FF  FF 7F 73 30 32 33 45 7A  z.........s023Ez
17B0: 80 F8 FF FF 7F F8 FF FF  7F 73 30 32 34 01 80 1C  .........s024...
17C0: 8C 80 4A 0D F3 0A 01 16  F3 0A 01 6F 76 0D F3 0A  ..J........ov...
17D0: 01 52 7A 80 F8 FF FF 7F  F8 FF FF 7F 73 30 32 34  .Rz.........s024
17E0: 45 7A 80 F8 FF FF 7F F8  FF FF 7F 73 30 32 35 01  Ez.........s025.
17F0: 80 27 10 0D F3 0A 01 2D  45 7A 80 F8 FF FF 7F F8  .'.....-Ez......
1800: FF FF 7F 31 30 30 34 01  80 2B 0D F3 0A 01 9B 80  ...1004..+......
1810: 29 10 0D F3 0A 01 2E 23  27 10 0D F3 0A 01 2F 45  )......#'...../E
1820: 7A 80 F8 FF FF 7F F8 FF  FF 7F 36 30 37 38 01 80  z.........6078..
1830: 1C 06 80 6B 69 64 6C 30  17 F3 0A 01 6B 69 64 6C  ...kidl0....kidl
1840: 30 18 F3 0A 01 BA 15 F3  0A 01 92 80 93 80 94 80  0...............
1850: 95 80 6C 16 F3 0A 01 01  80 03 80 6C 15 F3 0A 01  ..l........l....
1860: 3F 80 03 80 52 7A 80 F8  FF FF 7F F8 FF FF 7F 73  ?...Rz.........s
1870: 30 32 35 45 7A 80 F8 FF  FF 7F F8 FF FF 7F 73 30  025Ez.........s0
1880: 32 36 01 80 27 10 15 F3  0A 01 26 2B 15 F3 0A 01  26..'.....&+....
1890: 9C 80 4A 17 F3 0A 01 0D  F3 0A 01 4A 18 F3 0A 01  ..J........J....
18A0: 0D F3 0A 01 4A F0 FF FF  7F 0D F3 0A 01 2A 10 15  ....J........*..
18B0: F3 0A 01 23 1C 06 80 52  7A 80 F8 FF FF 7F F8 FF  ...#...Rz.......
18C0: FF 7F 73 30 32 36 45 7A  80 F8 FF FF 7F F8 FF FF  ..s026Ez........
18D0: 7F 73 30 32 37 01 80 27  10 0D F3 0A 01 29 45 7A  .s027..'.....)Ez
18E0: 80 F8 FF FF 7F F8 FF FF  7F 31 30 30 31 01 80 2B  .........1001..+
18F0: 0D F3 0A 01 9D 80 29 10  0D F3 0A 01 2A 23 27 10  ......).....*#'.
1900: 0D F3 0A 01 2B 52 7A 80  F8 FF FF 7F F8 FF FF 7F  ....+Rz.........
1910: 73 30 32 37 45 7A 80 F8  FF FF 7F F8 FF FF 7F 73  s027Ez.........s
1920: 30 32 38 01 80 27 10 15  F3 0A 01 1C 2B 15 F3 0A  028..'......+...
1930: 01 9E 80 29 10 15 F3 0A  01 1D 23 27 10 15 F3 0A  ...)......#'....
1940: 01 1E 5C 00 9F 80 5C 01  9F 80 9A 6C 1B F3 0A 01  ..\...\....l....
1950: 3F 80 03 80 27 10 1B F3  0A 01 3F 52 7A 80 F8 FF  ?...'.....?Rz...
1960: FF 7F F8 FF FF 7F 73 30  32 38 45 7A 80 F8 FF FF  ......s028Ez....
1970: 7F F8 FF FF 7F 73 30 32  39 01 80 B4 00 02 00 3F  .....s029......?
1980: 3F 3F 00 00 00 00 00 00  00 00 00 00 00 00 00 B5  ??..............
1990: 00 02 00 B0 00 F8 FF FF  7F 1B F3 0A 01 A0 80 2A  ...............*
19A0: 10 1B F3 0A 01 23 B4 00  02 00 00 00 00 00 00 00  .....#..........
19B0: 00 00 00 00 00 00 00 00  00 00 B5 00 02 00 4A 15  ..............J.
19C0: F3 0A 01 1B F3 0A 01 4A  17 F3 0A 01 1B F3 0A 01  .......J........
19D0: 4A 18 F3 0A 01 1B F3 0A  01 4A 0D F3 0A 01 1B F3  J........J......
19E0: 0A 01 4A F0 FF FF 7F 1B  F3 0A 01 66 A1 80 15 F3  ..J........f....
19F0: 0A 01 15 F3 0A 01 61 74  70 30 66 A1 80 17 F3 0A  ......atp0f.....
1A00: 01 17 F3 0A 01 61 74 70  30 66 A1 80 18 F3 0A 01  .....atp0f......
1A10: 18 F3 0A 01 61 74 70 30  52 7A 80 F8 FF FF 7F F8  ....atp0Rz......
1A20: FF FF 7F 73 30 32 39 45  7A 80 F8 FF FF 7F F8 FF  ...s029Ez.......
1A30: FF 7F 73 30 33 30 01 80  7C 00 15 F3 0A 01 2B 15  ..s030..|.....+.
1A40: F3 0A 01 A2 80 1C 30 80  7C 01 15 F3 0A 01 52 7A  ......0.|.....Rz
1A50: 80 F8 FF FF 7F F8 FF FF  7F 73 30 33 30 45 7A 80  .........s030Ez.
1A60: F8 FF FF 7F F8 FF FF 7F  73 30 33 31 01 80 27 10  ........s031..'.
1A70: 0D F3 0A 01 1F 45 7A 80  F8 FF FF 7F F8 FF FF 7F  .....Ez.........
1A80: 31 30 30 36 01 80 2B 0D  F3 0A 01 A3 80 29 10 0D  1006..+......)..
1A90: F3 0A 01 20 23 52 7A 80  F8 FF FF 7F F8 FF FF 7F  ... #Rz.........
1AA0: 73 30 33 31 45 7A 80 F8  FF FF 7F F8 FF FF 7F 73  s031Ez.........s
1AB0: 30 33 32 01 80 27 10 0D  F3 0A 01 21 BA 16 F3 0A  032..'.....!....
1AC0: 01 A4 80 A5 80 94 80 A6  80 27 10 16 F3 0A 01 16  .........'......
1AD0: 45 7A 80 F8 FF FF 7F F8  FF FF 7F 32 30 30 36 01  Ez.........2006.
1AE0: 80 2B 1B F3 0A 01 A7 80  1C 87 80 23 27 10 1B F3  .+.........#'...
1AF0: 0A 01 4A 1C 2A 80 52 7A  80 F8 FF FF 7F F8 FF FF  ..J.*.Rz........
1B00: 7F 73 30 33 32 45 7A 80  F8 FF FF 7F F8 FF FF 7F  .s032Ez.........
1B10: 73 30 33 33 01 80 7A 00  1B F3 0A 01 6B 69 64 6C  s033..z.....kidl
1B20: 30 17 F3 0A 01 6B 69 64  6C 30 18 F3 0A 01 6C 15  0....kidl0....l.
1B30: F3 0A 01 01 80 03 80 6C  16 F3 0A 01 3F 80 03 80  .......l....?...
1B40: BA 1B F3 0A 01 A8 80 A9  80 94 80 AA 80 BB AB 80  ................
1B50: 1B F3 0A 01 1B F3 0A 01  73 74 30 32 01 80 27 10  ........st02..'.
1B60: 1B F3 0A 01 01 1C 06 80  4A 17 F3 0A 01 1B F3 0A  ........J.......
1B70: 01 4A 18 F3 0A 01 1B F3  0A 01 4A 0D F3 0A 01 1B  .J........J.....
1B80: F3 0A 01 4A F0 FF FF 7F  1B F3 0A 01 CD 3E 80 F8  ...J.........>..
1B90: FF FF 7F F8 FF FF 7F 73  30 30 31 01 80 1C 2A 80  .......s001...*.
1BA0: 52 7A 80 F8 FF FF 7F F8  FF FF 7F 73 30 33 33 45  Rz.........s033E
1BB0: 7A 80 F8 FF FF 7F F8 FF  FF 7F 73 30 33 34 01 80  z.........s034..
1BC0: 27 10 16 F3 0A 01 18 2B  16 F3 0A 01 AC 80 1C 87  '......+........
1BD0: 80 23 4A 1B F3 0A 01 16  F3 0A 01 52 7A 80 F8 FF  .#J........Rz...
1BE0: FF 7F F8 FF FF 7F 73 30  33 34 45 7A 80 F8 FF FF  ......s034Ez....
1BF0: 7F F8 FF FF 7F 73 30 33  35 01 80 2B 1B F3 0A 01  .....s035..+....
1C00: AD 80 6F 76 1B F3 0A 01  23 27 10 1B F3 0A 01 40  ..ov....#'.....@
1C10: 45 7A 80 F8 FF FF 7F F8  FF FF 7F 32 30 30 33 01  Ez.........2003.
1C20: 80 2B 1B F3 0A 01 AE 80  29 10 1B F3 0A 01 41 2B  .+......).....A+
1C30: 1B F3 0A 01 AF 80 1C 2B  80 52 7A 80 F8 FF FF 7F  .......+.Rz.....
1C40: F8 FF FF 7F 73 30 33 35  45 7A 80 F8 FF FF 7F F8  ....s035Ez......
1C50: FF FF 7F 73 30 33 36 01  80 27 10 1B F3 0A 01 48  ...s036..'.....H
1C60: 2B 1B F3 0A 01 B0 80 29  10 1B F3 0A 01 49 23 37  +......).....I#7
1C70: A8 80 A9 80 94 80 AA 80  22 00 6C 16 F3 0A 01 01  ........".l.....
1C80: 80 03 80 27 10 16 F3 0A  01 20 BA 16 F3 0A 01 B1  ...'..... ......
1C90: 80 B2 80 94 80 B3 80 CD  B4 80 16 F3 0A 01 F8 FF  ................
1CA0: FF 7F 73 30 30 31 01 80  1C 7C 80 52 7A 80 F8 FF  ..s001...|.Rz...
1CB0: FF 7F F8 FF FF 7F 73 30  33 36 45 7A 80 F8 FF FF  ......s036Ez....
1CC0: 7F F8 FF FF 7F 73 30 33  37 01 80 6C 16 F3 0A 01  .....s037..l....
1CD0: 3F 80 03 80 9F B5 80 1B  F3 0A 01 1B F3 0A 01 6D  ?..............m
1CE0: 61 69 6E 01 80 2B 16 F3  0A 01 B6 80 1C 06 80 CD  ain..+..........
1CF0: 3E 80 F8 FF FF 7F F8 FF  FF 7F 73 30 30 31 01 80  >.........s001..
1D00: 1C 06 80 BA 1B F3 0A 01  B7 80 B8 80 0C 80 B9 80  ................
1D10: 1C 03 80 9F BA 80 1B F3  0A 01 1B F3 0A 01 6D 61  ..............ma
1D20: 69 6E 01 80 2A 10 16 F3  0A 01 22 01 27 10 16 F3  in..*.....".'...
1D30: 0A 01 22 1C 2A 80 4A 16  F3 0A 01 1B F3 0A 01 4A  ..".*.J........J
1D40: 17 F3 0A 01 1B F3 0A 01  4A 18 F3 0A 01 1B F3 0A  ........J.......
1D50: 01 4A 0D F3 0A 01 1B F3  0A 01 4A F0 FF FF 7F 1B  .J........J.....
1D60: F3 0A 01 52 7A 80 F8 FF  FF 7F F8 FF FF 7F 73 30  ...Rz.........s0
1D70: 33 37 45 7A 80 F8 FF FF  7F F8 FF FF 7F 73 30 33  37Ez.........s03
1D80: 38 01 80 6F 76 16 F3 0A  01 1C 86 80 27 10 16 F3  8..ov.......'...
1D90: 0A 01 1A 1C 06 80 1A B7  01 7A 00 16 F3 0A 01 59  .........z.....Y
1DA0: 05 15 F3 0A 01 01 BA 15  F3 0A 01 BB 80 BC 80 BD  ................
1DB0: 80 BE 80 6C 15 F3 0A 01  3F 80 03 80 6C 16 F3 0A  ...l....?...l...
1DC0: 01 01 80 03 80 1C 4F 80  45 7A 80 F8 FF FF 7F F8  ......O.Ez......
1DD0: FF FF 7F 38 33 32 37 01  80 1C 4F 80 5B BF 80 15  ...8327...O.[...
1DE0: F3 0A 01 15 F3 0A 01 67  64 61 36 1C 06 80 52 7A  .......gda6...Rz
1DF0: 80 F8 FF FF 7F F8 FF FF  7F 73 30 33 38 45 7A 80  .........s038Ez.
1E00: F8 FF FF 7F F8 FF FF 7F  73 30 33 39 01 80 1A 96  ........s039....
1E10: 01 CD 7F 80 F8 FF FF 7F  F8 FF FF 7F 6D 65 6D 31  ............mem1
1E20: 01 80 9F 80 80 F8 FF FF  7F F8 FF FF 7F 6D 61 69  .............mai
1E30: 6E 01 80 45 7A 80 F8 FF  FF 7F F8 FF FF 7F 38 33  n..Ez.........83
1E40: 31 39 01 80 1C 30 80 CD  7F 80 F8 FF FF 7F F8 FF  19...0..........
1E50: FF 7F 6B 6C 6D 30 01 80  52 7A 80 F8 FF FF 7F F8  ..klm0..Rz......
1E60: FF FF 7F 73 30 33 39 45  7A 80 F8 FF FF 7F F8 FF  ...s039Ez.......
1E70: FF 7F 73 30 34 30 01 80  59 05 15 F3 0A 01 00 BA  ..s040..Y.......
1E80: 15 F3 0A 01 C0 80 C1 80  94 80 C2 80 4A 15 F3 0A  ............J...
1E90: 01 1B F3 0A 01 7B 15 F3  0A 01 2B 1B F3 0A 01 C3  .....{....+.....
1EA0: 80 1C 8C 80 23 27 10 15  F3 0A 01 0C 2B 1B F3 0A  ....#'......+...
1EB0: 01 C4 80 29 10 15 F3 0A  01 0D 23 27 10 15 F3 0A  ...)......#'....
1EC0: 01 0E 52 7A 80 F8 FF FF  7F F8 FF FF 7F 73 30 34  ..Rz.........s04
1ED0: 30 45 7A 80 F8 FF FF 7F  F8 FF FF 7F 73 30 34 31  0Ez.........s041
1EE0: 01 80 03 03 10 C5 80 2B  15 F3 0A 01 C6 80 29 10  .......+......).
1EF0: 15 F3 0A 01 0F 23 1C 2B  80 52 7A 80 F8 FF FF 7F  .....#.+.Rz.....
1F00: F8 FF FF 7F 73 30 34 31  45 7A 80 F8 FF FF 7F F8  ....s041Ez......
1F10: FF FF 7F 62 6C 6F 6E 01  80 45 7A 80 F8 FF FF 7F  ...blon..Ez.....
1F20: F8 FF FF 7F 73 30 34 32  01 80 45 7A 80 F8 FF FF  ....s042..Ez....
1F30: 7F F8 FF FF 7F 38 30 38  30 01 80 1C 2B 80 4A 1B  .....8080...+.J.
1F40: F3 0A 01 15 F3 0A 01 D8  00 13 F3 0A 01 BA 13 F3  ................
1F50: 0A 01 C7 80 C8 80 C9 80  CA 80 5B CB 80 13 F3 0A  ..........[.....
1F60: 01 13 F3 0A 01 75 6B 75  30 BA 14 F3 0A 01 C7 80  .....uku0.......
1F70: C8 80 CC 80 CA 80 1C 30  80 6F 76 1B F3 0A 01 52  .......0.ov....R
1F80: 7A 80 F8 FF FF 7F F8 FF  FF 7F 73 30 34 32 45 7A  z.........s042Ez
1F90: 80 F8 FF FF 7F F8 FF FF  7F 62 6C 6F 66 01 80 45  .........blof..E
1FA0: 7A 80 F8 FF FF 7F F8 FF  FF 7F 73 30 34 33 01 80  z.........s043..
1FB0: 27 10 1B F3 0A 01 40 45  7A 80 F8 FF FF 7F F8 FF  '.....@Ez.......
1FC0: FF 7F 32 30 30 36 01 80  03 03 10 C5 80 2B 1B F3  ..2006.......+..
1FD0: 0A 01 CD 80 23 2B 1B F3  0A 01 CE 80 29 10 1B F3  ....#+......)...
1FE0: 0A 01 41 23 27 10 1B F3  0A 01 42 52 7A 80 F8 FF  ..A#'.....BRz...
1FF0: FF 7F F8 FF FF 7F 73 30  34 33 45 7A 80 F8 FF FF  ......s043Ez....
2000: 7F F8 FF FF 7F 73 30 34  34 01 80 27 10 15 F3 0A  .....s044..'....
2010: 01 08 2B 15 F3 0A 01 CF  80 29 10 15 F3 0A 01 09  ..+......)......
2020: 23 27 10 15 F3 0A 01 0A  52 7A 80 F8 FF FF 7F F8  #'......Rz......
2030: FF FF 7F 73 30 34 34 45  7A 80 F8 FF FF 7F F8 FF  ...s044Ez.......
2040: FF 7F 73 30 34 35 01 80  2B 1B F3 0A 01 D0 80 23  ..s045..+......#
2050: 2B 1B F3 0A 01 D1 80 1C  30 80 23 52 7A 80 F8 FF  +.......0.#Rz...
2060: FF 7F F8 FF FF 7F 73 30  34 35 45 7A 80 F8 FF FF  ......s045Ez....
2070: 7F F8 FF FF 7F 73 30 34  36 01 80 2B 1B F3 0A 01  .....s046..+....
2080: D2 80 1C 87 80 23 52 7A  80 F8 FF FF 7F F8 FF FF  .....#Rz........
2090: 7F 73 30 34 36 45 7A 80  F8 FF FF 7F F8 FF FF 7F  .s046Ez.........
20A0: 73 30 34 37 01 80 27 10  1B F3 0A 01 40 45 7A 80  s047..'.....@Ez.
20B0: F8 FF FF 7F F8 FF FF 7F  32 30 30 33 01 80 2B 1B  ........2003..+.
20C0: F3 0A 01 D3 80 29 10 1B  F3 0A 01 41 23 27 10 1B  .....).....A#'..
20D0: F3 0A 01 42 27 10 15 F3  0A 01 02 52 7A 80 F8 FF  ...B'......Rz...
20E0: FF 7F F8 FF FF 7F 73 30  34 37 45 7A 80 F8 FF FF  ......s047Ez....
20F0: 7F F8 FF FF 7F 73 30 34  38 01 80 2B 15 F3 0A 01  .....s048..+....
2100: D4 80 2A 10 15 F3 0A 01  23 52 7A 80 F8 FF FF 7F  ..*.....#Rz.....
2110: F8 FF FF 7F 73 30 34 38  45 7A 80 F8 FF FF 7F F8  ....s048Ez......
2120: FF FF 7F 73 30 34 39 01  80 27 10 1B F3 0A 01 48  ...s049..'.....H
2130: 2B 1B F3 0A 01 D5 80 29  10 1B F3 0A 01 49 23 52  +......).....I#R
2140: 7A 80 F8 FF FF 7F F8 FF  FF 7F 73 30 34 39 45 7A  z.........s049Ez
2150: 80 F8 FF FF 7F F8 FF FF  7F 73 30 35 30 01 80 27  .........s050..'
2160: 10 0D F3 0A 01 29 45 7A  80 F8 FF FF 7F F8 FF FF  .....)Ez........
2170: 7F 31 30 30 34 01 80 2B  0D F3 0A 01 D6 80 29 10  .1004..+......).
2180: 0D F3 0A 01 2A 23 27 10  0D F3 0A 01 2B 52 7A 80  ....*#'.....+Rz.
2190: F8 FF FF 7F F8 FF FF 7F  73 30 35 30 45 7A 80 F8  ........s050Ez..
21A0: FF FF 7F F8 FF FF 7F 73  30 35 31 01 80 27 10 1B  .......s051..'..
21B0: F3 0A 01 40 45 7A 80 F8  FF FF 7F F8 FF FF 7F 32  ...@Ez.........2
21C0: 30 30 38 01 80 2B 1B F3  0A 01 D7 80 29 10 1B F3  008..+......)...
21D0: 0A 01 41 23 52 7A 80 F8  FF FF 7F F8 FF FF 7F 73  ..A#Rz.........s
21E0: 30 35 31 45 7A 80 F8 FF  FF 7F F8 FF FF 7F 73 30  051Ez.........s0
21F0: 35 32 01 80 33 01 37 B7  80 B8 80 D8 80 D9 80 22  52..3.7........"
2200: 00 45 7A 80 F8 FF FF 7F  F8 FF FF 7F 31 30 34 38  .Ez.........1048
2210: 01 80 BB 9F 80 F8 FF FF  7F F8 FF FF 7F 73 30 30  .............s00
2220: 31 01 80 2B 1B F3 0A 01  DA 80 1C 30 80 C5 DB 80  1..+.......0....
2230: 1B F3 0A 01 1B F3 0A 01  73 30 30 30 01 80 1C 2B  ........s000...+
2240: 80 6E 17 F3 0A 01 8A 80  99 17 F3 0A 01 6E 18 F3  .n...........n..
2250: 0A 01 8A 80 99 18 F3 0A  01 6E F0 FF FF 7F DC 80  .........n......
2260: 99 F0 FF FF 7F 27 10 0D  F3 0A 01 1F 1C 2B 80 52  .....'.......+.R
2270: 7A 80 F8 FF FF 7F F8 FF  FF 7F 73 30 35 32 45 7A  z.........s052Ez
2280: 80 F8 FF FF 7F F8 FF FF  7F 73 30 35 33 01 80 2B  .........s053..+
2290: 1B F3 0A 01 DD 80 1C 2A  80 27 10 0D F3 0A 01 21  .......*.'.....!
22A0: 52 7A 80 F8 FF FF 7F F8  FF FF 7F 73 30 35 33 45  Rz.........s053E
22B0: 7A 80 F8 FF FF 7F F8 FF  FF 7F 73 30 35 34 01 80  z.........s054..
22C0: 1C 30 80 BB 9F 80 F8 FF  FF 7F F8 FF FF 7F 73 30  .0............s0
22D0: 30 35 01 80 1C 8C 80 52  7A 80 F8 FF FF 7F F8 FF  05.....Rz.......
22E0: FF 7F 73 30 35 34 45 7A  80 F8 FF FF 7F F8 FF FF  ..s054Ez........
22F0: 7F 73 61 35 34 01 80 27  10 1B F3 0A 01 12 45 7A  .sa54..'......Ez
2300: 80 F8 FF FF 7F F8 FF FF  7F 32 30 30 35 01 80 2B  .........2005..+
2310: 1B F3 0A 01 DE 80 29 10  1B F3 0A 01 13 9F 90 80  ......).........
2320: 1B F3 0A 01 1B F3 0A 01  73 74 72 30 01 80 6C 13  ........str0..l.
2330: F3 0A 01 01 80 DF 80 2C  14 F3 0A 01 14 F3 0A 01  .......,........
2340: 6B 69 65 30 1C 30 80 22  01 33 00 5C 00 E0 80 5C  kie0.0.".3.\...\
2350: 01 E0 80 27 10 15 F3 0A  01 03 9A 52 7A 80 F8 FF  ...'.......Rz...
2360: FF 7F F8 FF FF 7F 73 61  35 34 45 7A 80 F8 FF FF  ......sa54Ez....
2370: 7F F8 FF FF 7F 73 30 35  35 01 80 4A F0 FF FF 7F  .....s055..J....
2380: 15 F3 0A 01 2B 15 F3 0A  01 E1 80 1C 8C 80 2A 10  ....+.........*.
2390: 15 F3 0A 01 23 2B 15 F3  0A 01 E2 80 1C 8C 80 23  ....#+.........#
23A0: 7B 17 F3 0A 01 7B 18 F3  0A 01 27 10 17 F3 0A 01  {....{....'.....
23B0: 27 1C 2B 80 27 10 18 F3  0A 01 28 52 7A 80 F8 FF  '.+.'.....(Rz...
23C0: FF 7F F8 FF FF 7F 73 30  35 35 45 7A 80 F8 FF FF  ......s055Ez....
23D0: 7F F8 FF FF 7F 73 30 35  37 01 80 79 00 15 F3 0A  .....s057..y....
23E0: 01 17 F3 0A 01 2A 10 17  F3 0A 01 52 7A 80 F8 FF  .....*.....Rz...
23F0: FF 7F F8 FF FF 7F 73 30  35 37 45 7A 80 F8 FF FF  ......s057Ez....
2400: 7F F8 FF FF 7F 73 30 35  38 01 80 1C 06 80 6E 17  .....s058.....n.
2410: F3 0A 01 4A 80 99 17 F3  0A 01 2B 17 F3 0A 01 E3  ...J......+.....
2420: 80 1C 8C 80 23 7B 15 F3  0A 01 52 7A 80 F8 FF FF  ....#{....Rz....
2430: 7F F8 FF FF 7F 73 30 35  38 45 7A 80 F8 FF FF 7F  .....s058Ez.....
2440: F8 FF FF 7F 73 30 35 39  01 80 27 10 15 F3 0A 01  ....s059..'.....
2450: 08 2B 15 F3 0A 01 E4 80  29 10 15 F3 0A 01 09 23  .+......)......#
2460: 27 10 15 F3 0A 01 0A 52  7A 80 F8 FF FF 7F F8 FF  '......Rz.......
2470: FF 7F 73 30 35 39 45 7A  80 F8 FF FF 7F F8 FF FF  ..s059Ez........
2480: 7F 73 30 36 30 01 80 27  10 0D F3 0A 01 4E 1C 2A  .s060..'.....N.*
2490: 80 4A 18 F3 0A 01 0D F3  0A 01 52 7A 80 F8 FF FF  .J........Rz....
24A0: 7F F8 FF FF 7F 73 30 36  30 45 7A 80 F8 FF FF 7F  .....s060Ez.....
24B0: F8 FF FF 7F 73 30 36 31  01 80 6F 76 18 F3 0A 01  ....s061..ov....
24C0: 6E 18 F3 0A 01 8A 80 99  18 F3 0A 01 2B 18 F3 0A  n...........+...
24D0: 01 E5 80 1C 2B 80 4A 15  F3 0A 01 0D F3 0A 01 4A  ....+.J........J
24E0: 17 F3 0A 01 0D F3 0A 01  1C 2B 80 52 7A 80 F8 FF  .........+.Rz...
24F0: FF 7F F8 FF FF 7F 73 30  36 31 45 7A 80 F8 FF FF  ......s061Ez....
2500: 7F F8 FF FF 7F 73 30 36  32 01 80 6F 76 15 F3 0A  .....s062..ov...
2510: 01 27 10 15 F3 0A 01 10  2B 15 F3 0A 01 E6 80 1C  .'......+.......
2520: 30 80 27 10 17 F3 0A 01  28 1C 4F 80 27 10 18 F3  0.'.....(.O.'...
2530: 0A 01 29 52 7A 80 F8 FF  FF 7F F8 FF FF 7F 73 30  ..)Rz.........s0
2540: 36 32 45 7A 80 F8 FF FF  7F F8 FF FF 7F 73 30 36  62Ez.........s06
2550: 33 01 80 1C 8C 80 6B 69  64 6C 30 15 F3 0A 01 1C  3.....kidl0.....
2560: 7C 80 4A 15 F3 0A 01 F0  FF FF 7F 27 10 15 F3 0A  |.J........'....
2570: 01 27 52 7A 80 F8 FF FF  7F F8 FF FF 7F 73 30 36  .'Rz.........s06
2580: 33 02 87 7F 47 80 80 9D  25 45 7A 80 F8 FF FF 7F  3...G...%Ez.....
2590: F8 FF FF 7F 73 67 36 34  01 80 01 1E 26 02 87 7F  ....sg64....&...
25A0: 48 80 80 B9 25 45 7A 80  F8 FF FF 7F F8 FF FF 7F  H...%Ez.........
25B0: 73 67 36 34 01 80 01 1E  26 02 87 7F 49 80 80 D5  sg64....&...I...
25C0: 25 45 7A 80 F8 FF FF 7F  F8 FF FF 7F 73 74 36 34  %Ez.........st64
25D0: 01 80 01 1E 26 02 87 7F  4A 80 80 F1 25 45 7A 80  ....&...J...%Ez.
25E0: F8 FF FF 7F F8 FF FF 7F  73 74 36 34 01 80 01 1E  ........st64....
25F0: 26 02 87 7F 43 80 80 0D  26 45 7A 80 F8 FF FF 7F  &...C...&Ez.....
2600: F8 FF FF 7F 73 67 36 34  01 80 01 1E 26 45 7A 80  ....sg64....&Ez.
2610: F8 FF FF 7F F8 FF FF 7F  73 30 36 34 01 80 2A 10  ........s064..*.
2620: 15 F3 0A 01 27 10 15 F3  0A 01 04 02 01 00 03 80  ....'...........
2630: 00 3D 26 2B 15 F3 0A 01  E7 80 01 44 26 2B 15 F3  .=&+.......D&+..
2640: 0A 01 E8 80 29 10 15 F3  0A 01 05 23 27 10 15 F3  ....)......#'...
2650: 0A 01 06 1C 06 80 27 10  15 F3 0A 01 1C 2B 15 F3  ......'......+..
2660: 0A 01 E9 80 29 10 15 F3  0A 01 1D 6E F0 FF FF 7F  ....)......n....
2670: 3E 80 99 F0 FF FF 7F 23  27 10 15 F3 0A 01 1E 29  >......#'......)
2680: 10 15 F3 0A 01 1F 1C 06  80 7B 15 F3 0A 01 27 10  .........{....'.
2690: 15 F3 0A 01 28 02 87 7F  47 80 80 AF 26 52 7A 80  ....(...G...&Rz.
26A0: F8 FF FF 7F F8 FF FF 7F  73 67 36 34 01 26 27 02  ........sg64.&'.
26B0: 87 7F 48 80 80 C9 26 52  7A 80 F8 FF FF 7F F8 FF  ..H...&Rz.......
26C0: FF 7F 73 67 36 34 01 26  27 02 87 7F 49 80 80 E3  ..sg64.&'...I...
26D0: 26 52 7A 80 F8 FF FF 7F  F8 FF FF 7F 73 74 36 34  &Rz.........st64
26E0: 01 26 27 02 87 7F 4A 80  80 FD 26 52 7A 80 F8 FF  .&'...J...&Rz...
26F0: FF 7F F8 FF FF 7F 73 74  36 34 01 26 27 02 87 7F  ......st64.&'...
2700: 43 80 80 17 27 52 7A 80  F8 FF FF 7F F8 FF FF 7F  C...'Rz.........
2710: 73 67 36 34 01 26 27 52  7A 80 F8 FF FF 7F F8 FF  sg64.&'Rz.......
2720: FF 7F 73 30 36 34 45 7A  80 F8 FF FF 7F F8 FF FF  ..s064Ez........
2730: 7F 73 30 36 35 01 80 1C  41 80 5D 01 80 08 80 1C  .s065...A.].....
2740: 2B 80 1A 64 00 52 7A 80  F8 FF FF 7F F8 FF FF 7F  +..d.Rz.........
2750: 73 30 36 35 7A 00 15 F3  0A 01 5C 00 01 80 5C 01  s065z.....\...\.
2760: 01 80 5C 02 4D 80 5C 03  4E 80 9A 5D 28 80 03 80  ..\.M.\.N..](...
2770: 1C 4F 80 AB 11 01 80 1C  03 80 46 00 45 00 80 F8  .O........F.E...
2780: FF FF 7F F8 FF FF 7F 66  64 69 32 01 80 21 00     .......fdi2..!. 
```

#### Opcodes

```
  0: 0x0C0E [0x42] SET_CLI_EVENT_CANCEL_DATA()
  1: 0x0C0F [0x03] ExtData[1]->WorkLocal[1] = Work_Zone[3]
  2: 0x0C14 [0x5D] SET_MUSIC_VOLUME(volume=0*, fade_time=300*)
  3: 0x0C19 [0x1A] CALL_SUBROUTINE(address=0x0064)
  4: 0x0C1C [0x46] CAMERA_CONTROL: Disable user control
  5: 0x0C1E [0x38] SET_CLIENT_EVENT_MODE(mode=147*)
  6: 0x0C21 [0x2F] Leadavox (ID: 17494797/0x010AF30D)->Render.Flags0 &= ~0x80000 // Bit 19
  7: 0x0C27 [0x2F] Enkelados (ID: 17494799/0x010AF30F)->Render.Flags0 &= ~0x80000 // Bit 19
  8: 0x0C2D [0x2F] Sharpshot Luttdrutt (ID: 17494800/0x010AF310)->Render.Flags0 &= ~0x80000 // Bit 19
  9: 0x0C33 [0x2F] Sa'Jho Shieldbreaker (ID: 17494802/0x010AF312)->Render.Flags0 &= ~0x80000 // Bit 19
 10: 0x0C39 [0x2F] Unnamed NPC (ID: 17494803/0x010AF313)->Render.Flags0 &= ~0x80000 // Bit 19
 11: 0x0C3F [0x2F] Unnamed NPC (ID: 17494804/0x010AF314)->Render.Flags0 &= ~0x80000 // Bit 19
 12: 0x0C45 [0x2F] Noillurie (ID: 17494805/0x010AF315)->Render.Flags0 &= ~0x80000 // Bit 19
 13: 0x0C4B [0x2F] Noillurie (ID: 17494806/0x010AF316)->Render.Flags0 &= ~0x80000 // Bit 19
 14: 0x0C51 [0x2F] Estellane (ID: 17494807/0x010AF317)->Render.Flags0 &= ~0x80000 // Bit 19
 15: 0x0C57 [0x2F] Jeannelle (ID: 17494808/0x010AF318)->Render.Flags0 &= ~0x80000 // Bit 19
 16: 0x0C5D [0x2F] Red Rose Condottiere (ID: 17494809/0x010AF319)->Render.Flags0 &= ~0x80000 // Bit 19
 17: 0x0C63 [0x2F] Red Rose Condottiere (ID: 17494810/0x010AF31A)->Render.Flags0 &= ~0x80000 // Bit 19
 18: 0x0C69 [0x2F] Delkfutt (ID: 17494811/0x010AF31B)->Render.Flags0 &= ~0x80000 // Bit 19
 19: 0x0C6F [0x4E] SET_ENTITY_HIDE_FLAG: Show Leadavox (ID: 17494797/0x010AF30D)
 20: 0x0C75 [0x4E] SET_ENTITY_HIDE_FLAG: Show Enkelados (ID: 17494799/0x010AF30F)
 21: 0x0C7B [0x4E] SET_ENTITY_HIDE_FLAG: Show Sharpshot Luttdrutt (ID: 17494800/0x010AF310)
 22: 0x0C81 [0x4E] SET_ENTITY_HIDE_FLAG: Show Sa'Jho Shieldbreaker (ID: 17494802/0x010AF312)
 23: 0x0C87 [0x4E] SET_ENTITY_HIDE_FLAG: Show Unnamed NPC (ID: 17494803/0x010AF313)
 24: 0x0C8D [0x4E] SET_ENTITY_HIDE_FLAG: Show Unnamed NPC (ID: 17494804/0x010AF314)
 25: 0x0C93 [0x4E] SET_ENTITY_HIDE_FLAG: Show Noillurie (ID: 17494805/0x010AF315)
 26: 0x0C99 [0x4E] SET_ENTITY_HIDE_FLAG: Show Noillurie (ID: 17494806/0x010AF316)
 27: 0x0C9F [0x4E] SET_ENTITY_HIDE_FLAG: Show Estellane (ID: 17494807/0x010AF317)
 28: 0x0CA5 [0x4E] SET_ENTITY_HIDE_FLAG: Show Jeannelle (ID: 17494808/0x010AF318)
 29: 0x0CAB [0x4E] SET_ENTITY_HIDE_FLAG: Show Red Rose Condottiere (ID: 17494809/0x010AF319)
 30: 0x0CB1 [0x4E] SET_ENTITY_HIDE_FLAG: Show Red Rose Condottiere (ID: 17494810/0x010AF31A)
 31: 0x0CB7 [0x4E] SET_ENTITY_HIDE_FLAG: Show Delkfutt (ID: 17494811/0x010AF31B)
 32: 0x0CBD [0x94] Leadavox (ID: 17494797/0x010AF30D)->Render.Flags3 ^= 0x01
 33: 0x0CC3 [0x94] Enkelados (ID: 17494799/0x010AF30F)->Render.Flags3 ^= 0x01
 34: 0x0CC9 [0x94] Sharpshot Luttdrutt (ID: 17494800/0x010AF310)->Render.Flags3 ^= 0x01
 35: 0x0CCF [0x94] Sa'Jho Shieldbreaker (ID: 17494802/0x010AF312)->Render.Flags3 ^= 0x01
 36: 0x0CD5 [0x94] Unnamed NPC (ID: 17494803/0x010AF313)->Render.Flags3 ^= 0x01
 37: 0x0CDB [0x94] Unnamed NPC (ID: 17494804/0x010AF314)->Render.Flags3 ^= 0x01
 38: 0x0CE1 [0x94] Noillurie (ID: 17494805/0x010AF315)->Render.Flags3 ^= 0x01
 39: 0x0CE7 [0x94] Noillurie (ID: 17494806/0x010AF316)->Render.Flags3 ^= 0x01
 40: 0x0CED [0x94] Estellane (ID: 17494807/0x010AF317)->Render.Flags3 ^= 0x01
 41: 0x0CF3 [0x94] Jeannelle (ID: 17494808/0x010AF318)->Render.Flags3 ^= 0x01
 42: 0x0CF9 [0x94] Red Rose Condottiere (ID: 17494809/0x010AF319)->Render.Flags3 ^= 0x01
 43: 0x0CFF [0x94] Red Rose Condottiere (ID: 17494810/0x010AF31A)->Render.Flags3 ^= 0x01
 44: 0x0D05 [0x94] Delkfutt (ID: 17494811/0x010AF31B)->Render.Flags3 ^= 0x01
 45: 0x0D0B [0x94] LocalPlayer->Render.Flags3 ^= 0x01
 46: 0x0D11 [0xBA] SET_ENTITY_POSITION(entity_id=Leadavox (ID: 17494797/0x010AF30D), pos_x=-245.684*, pos_z=122.395*, pos_y=1.030*, direction=299.0°*)
 47: 0x0D1E [0xBA] SET_ENTITY_POSITION(entity_id=Enkelados (ID: 17494799/0x010AF30F), pos_x=-246.291*, pos_z=125.896*, pos_y=1.163*, direction=72.8°*)
 48: 0x0D2B [0xBA] SET_ENTITY_POSITION(entity_id=Sharpshot Luttdrutt (ID: 17494800/0x010AF310), pos_x=0.000*, pos_z=0.000*, pos_y=0.000*, direction=0.0°*)
 49: 0x0D38 [0xBA] SET_ENTITY_POSITION(entity_id=Sa'Jho Shieldbreaker (ID: 17494802/0x010AF312), pos_x=-249.576*, pos_z=121.563*, pos_y=0.999*, direction=55.4°*)
 50: 0x0D45 [0xBA] SET_ENTITY_POSITION(entity_id=Unnamed NPC (ID: 17494803/0x010AF313), pos_x=-252.820*, pos_z=108.947*, pos_y=0.497*, direction=335.0°*)
 51: 0x0D52 [0xBA] SET_ENTITY_POSITION(entity_id=Unnamed NPC (ID: 17494804/0x010AF314), pos_x=-252.820*, pos_z=108.947*, pos_y=0.497*, direction=335.0°*)
 52: 0x0D5F [0xBA] SET_ENTITY_POSITION(entity_id=Noillurie (ID: 17494805/0x010AF315), pos_x=-227.118*, pos_z=104.476*, pos_y=0.178*, direction=215.2°*)
 53: 0x0D6C [0xBA] SET_ENTITY_POSITION(entity_id=Noillurie (ID: 17494806/0x010AF316), pos_x=0.000*, pos_z=0.000*, pos_y=0.000*, direction=0.0°*)
 54: 0x0D79 [0xBA] SET_ENTITY_POSITION(entity_id=Estellane (ID: 17494807/0x010AF317), pos_x=-224.928*, pos_z=100.831*, pos_y=-0.026*, direction=222.2°*)
 55: 0x0D86 [0xBA] SET_ENTITY_POSITION(entity_id=Jeannelle (ID: 17494808/0x010AF318), pos_x=-223.328*, pos_z=98.266*, pos_y=-0.371*, direction=216.3°*)
 56: 0x0D93 [0xBA] SET_ENTITY_POSITION(entity_id=Red Rose Condottiere (ID: 17494809/0x010AF319), pos_x=-224.073*, pos_z=102.442*, pos_y=0.112*, direction=218.8°*)
 57: 0x0DA0 [0xBA] SET_ENTITY_POSITION(entity_id=Red Rose Condottiere (ID: 17494810/0x010AF31A), pos_x=-222.035*, pos_z=100.038*, pos_y=0.140*, direction=222.8°*)
 58: 0x0DAD [0xBA] SET_ENTITY_POSITION(entity_id=Delkfutt (ID: 17494811/0x010AF31B), pos_x=-256.204*, pos_z=105.632*, pos_y=-4.000*, direction=311.7°*)
 59: 0x0DBA [0xD8] SET_ENTITY_EVENT_DIR: Set Unnamed NPC (ID: 17494803/0x010AF313) EventDir[0] = 0*
 60: 0x0DC2 [0xD8] SET_ENTITY_EVENT_DIR: Set Unnamed NPC (ID: 17494803/0x010AF313) EventDir[1] = 0*
 61: 0x0DCA [0xD8] SET_ENTITY_EVENT_DIR: Set Unnamed NPC (ID: 17494803/0x010AF313) EventDir[2] = 4294966196*
 62: 0x0DD2 [0xBA] SET_ENTITY_POSITION(entity_id=LocalPlayer, pos_x=0.000*, pos_z=0.000*, pos_y=0.000*, direction=0.0°*)
 63: 0x0DDF [0x80] LOAD_WAIT(entity=Leadavox (ID: 17494797/0x010AF30D))
 64: 0x0DE4 [0x80] LOAD_WAIT(entity=Enkelados (ID: 17494799/0x010AF30F))
 65: 0x0DE9 [0x80] LOAD_WAIT(entity=Sharpshot Luttdrutt (ID: 17494800/0x010AF310))
 66: 0x0DEE [0x80] LOAD_WAIT(entity=Sa'Jho Shieldbreaker (ID: 17494802/0x010AF312))
 67: 0x0DF3 [0x80] LOAD_WAIT(entity=Unnamed NPC (ID: 17494803/0x010AF313))
 68: 0x0DF8 [0x80] LOAD_WAIT(entity=Unnamed NPC (ID: 17494804/0x010AF314))
 69: 0x0DFD [0x80] LOAD_WAIT(entity=Noillurie (ID: 17494805/0x010AF315))
 70: 0x0E02 [0x80] LOAD_WAIT(entity=Noillurie (ID: 17494806/0x010AF316))
 71: 0x0E07 [0x80] LOAD_WAIT(entity=Estellane (ID: 17494807/0x010AF317))
 72: 0x0E0C [0x80] LOAD_WAIT(entity=Jeannelle (ID: 17494808/0x010AF318))
 73: 0x0E11 [0x80] LOAD_WAIT(entity=Red Rose Condottiere (ID: 17494809/0x010AF319))
 74: 0x0E16 [0x80] LOAD_WAIT(entity=Red Rose Condottiere (ID: 17494810/0x010AF31A))
 75: 0x0E1B [0x80] LOAD_WAIT(entity=Delkfutt (ID: 17494811/0x010AF31B))
 76: 0x0E20 [0x80] LOAD_WAIT(entity=LocalPlayer)
 77: 0x0E25 [0x5C] MUSIC_CONTROL: Set Idle (Day) music to song 26*
 78: 0x0E29 [0x5C] MUSIC_CONTROL: Set Idle (Night) music to song 26*
 79: 0x0E2D [0x5C] MUSIC_CONTROL: Set Combat (Solo) music to song 26*
 80: 0x0E31 [0x5C] MUSIC_CONTROL: Set Combat (Party) music to song 26*
 81: 0x0E35 [0x9A] WAIT_MUSIC_SERVER()
 82: 0x0E36 [0x5D] SET_MUSIC_VOLUME(volume=127*, fade_time=1*)
 83: 0x0E3B [0x29] REQ_SET_WAIT(priority=0x10, entity_id=LocalPlayer, tag_num=0x1D)
 84: 0x0E42 [0x27] REQ_SET(priority=0x10, entity_id=Noillurie (ID: 17494806/0x010AF316), tag_num=0x16)
 85: 0x0E49 [0xC5] LOAD_SCHEDULED_TASK_ALT3: Load scheduler 0x80013274 for entities [Leadavox (ID: 17494797/0x010AF30D), Leadavox (ID: 17494797/0x010AF30D)], work=139*, param=28525
 86: 0x0E5A [0x2C] CREATE_SCHEDULER_TASK: Create scheduler "wpof" with entities [Enkelados (ID: 17494799/0x010AF30F), Enkelados (ID: 17494799/0x010AF30F)]
 87: 0x0E67 [0x53] WAIT_SCHEDULER_TASK: Wait for scheduler "wpof" with entities [Enkelados (ID: 17494799/0x010AF30F), Enkelados (ID: 17494799/0x010AF30F)]
 88: 0x0E74 [0x5B] LOAD_EXT_SCHEDULER: Load scheduler "aa30" with entities [Enkelados (ID: 17494799/0x010AF30F), Enkelados (ID: 17494799/0x010AF30F)], work=1322*
 89: 0x0E83 [0x5B] LOAD_EXT_SCHEDULER: Load scheduler "wrd1" with entities [Sharpshot Luttdrutt (ID: 17494800/0x010AF310), Sharpshot Luttdrutt (ID: 17494800/0x010AF310)], work=2464*
