# 17494785

## Common Data

| Field            | Value                                |
|------------------|--------------------------------------|
| Zone             | The Eldieme Necropolis [S] (ID: 175) |
| Block Size       | 3084 bytes                           |
| Total Events     | 3                                    |
| References Count | 85                                   |

## List of Events

| Event ID              | Entrypoint   |   Size |   Instructions |
|-----------------------|--------------|--------|----------------|
| [65535](#event-65535) | 0x0000       |      1 |              1 |
| [42](#event-42)       | 0x0001       |   1239 |            168 |
| [43](#event-43)       | 0x04D8       |   1476 |            171 |

## DAT References (imed_data)

|   Index | Hex Value   |   Dec Value |
|---------|-------------|-------------|
|       0 | 0x0013      |          19 |
|       1 | 0x49E15     |      302613 |
|       2 | 0x36BD      |       14013 |
|       3 | 0xFFFF9494  |  4294939796 |
|       4 | 0x001D      |          29 |
|       5 | 0x4AB92     |      306066 |
|       6 | 0x503A      |       20538 |
|       7 | 0x001C      |          28 |
|       8 | 0x45C91     |      285841 |
|       9 | 0x38AA      |       14506 |
|      10 | 0x4A6ED     |      304877 |
|      11 | 0x3691      |       13969 |
|      12 | 0x07FB      |        2043 |
|      13 | 0x000F      |          15 |
|      14 | 0x01F6      |         502 |
|      15 | 0x0000      |           0 |
|      16 | 0x1F6F      |        8047 |
|      17 | 0x0007      |           7 |
|      18 | 0x003C      |          60 |
|      19 | 0x005A      |          90 |
|      20 | 0x1F70      |        8048 |
|      21 | 0x4A766     |      304998 |
|      22 | 0x0381      |         897 |
|      23 | 0xFFFF92A1  |  4294939297 |
|      24 | 0x0D6C      |        3436 |
|      25 | 0x4AB98     |      306072 |
|      26 | 0x0B94      |        2964 |
|      27 | 0xFFFF939B  |  4294939547 |
|      28 | 0x1F71      |        8049 |
|      29 | 0x001E      |          30 |
|      30 | 0x1F72      |        8050 |
|      31 | 0x1F73      |        8051 |
|      32 | 0x00B4      |         180 |
|      33 | 0x1F74      |        8052 |
|      34 | 0x0078      |         120 |
|      35 | 0x0492      |        1170 |
|      36 | 0x1F75      |        8053 |
|      37 | 0x1F76      |        8054 |
|      38 | 0x4C1B0     |      311728 |
|      39 | 0x3AE9      |       15081 |
|      40 | 0xFFFF9495  |  4294939797 |
|      41 | 0x0F99      |        3993 |
|      42 | 0x0005      |           5 |
|      43 | 0x1F77      |        8055 |
|      44 | 0x0045      |          69 |
|      45 | 0x1F78      |        8056 |
|      46 | 0x1F79      |        8057 |
|      47 | 0x0391      |         913 |
|      48 | 0x0A98      |        2712 |
|      49 | 0x1F7A      |        8058 |
|      50 | 0x0009      |           9 |
|      51 | 0x1F7B      |        8059 |
|      52 | 0x1F7C      |        8060 |
|      53 | 0x00C8      |         200 |
|      54 | 0x4AEB6     |      306870 |
|      55 | 0x5A6E      |       23150 |
|      56 | 0x4A86E     |      305262 |
|      57 | 0x5619      |       22041 |
|      58 | 0x1F7D      |        8061 |
|      59 | 0x1F7E      |        8062 |
|      60 | 0x0016      |          22 |
|      61 | 0x1F7F      |        8063 |
|      62 | 0x000A      |          10 |
|      63 | 0x1F80      |        8064 |
|      64 | 0x1F81      |        8065 |
|      65 | 0x493BA     |      299962 |
|      66 | 0x32A9      |       12969 |
|      67 | 0x4A7D9     |      305113 |
|      68 | 0x3958      |       14680 |
|      69 | 0x4942C     |      300076 |
|      70 | 0x3A7F      |       14975 |
|      71 | 0x4A774     |      305012 |
|      72 | 0x316C      |       12652 |
|      73 | 0x0002      |           2 |
|      74 | 0x1F82      |        8066 |
|      75 | 0x0096      |         150 |
|      76 | 0x1F83      |        8067 |
|      77 | 0x004E      |          78 |
|      78 | 0x1F84      |        8068 |
|      79 | 0x1F85      |        8069 |
|      80 | 0x0024      |          36 |
|      81 | 0x00C9      |         201 |
|      82 | 0x0001      |           1 |
|      83 | 0x002D      |          45 |
|      84 | 0x00D7      |         215 |

## Events

### Event 65535

#### Metadata

| Field        | Value   |
|--------------|---------|
| Entrypoint   | 0x0000  |
| Data Size    | 1 bytes |
| Instructions | 1       |

```
      00 01 02 03 04 05 06 07  08 09 0A 0B 0C 0D 0E 0F
      -- -- -- -- -- -- -- --  -- -- -- -- -- -- -- --
0000: 00                                                .               
```

#### Opcodes

```
  0: 0x0000 [0x00] END_REQSTACK()
```

### Event 42

#### Metadata

| Field        | Value      |
|--------------|------------|
| Entrypoint   | 0x0001     |
| Data Size    | 1239 bytes |
| Instructions | 168        |

```
      00 01 02 03 04 05 06 07  08 09 0A 0B 0C 0D 0E 0F
      -- -- -- -- -- -- -- --  -- -- -- -- -- -- -- --
0000:    42 1A 6E 08 46 01 38  00 80 4E 00 F0 FF FF 7F   B.n.F.8..N.....
0010: 2F 00 04 F3 0A 01 2F 00  03 F3 0A 01 2F 00 02 F3  /...../...../...
0020: 0A 01 2F 00 C3 F2 0A 01  4E 00 04 F3 0A 01 4E 00  ../.....N.....N.
0030: 03 F3 0A 01 4E 00 02 F3  0A 01 4E 00 C3 F2 0A 01  ....N.....N.....
0040: 92 01 03 F3 0A 01 92 01  02 F3 0A 01 92 01 C3 F2  ................
0050: 0A 01 92 01 04 F3 0A 01  94 01 F0 FF FF 7F 94 01  ................
0060: 03 F3 0A 01 94 01 02 F3  0A 01 94 01 C3 F2 0A 01  ................
0070: 94 01 04 F3 0A 01 BA F0  FF FF 7F 01 80 02 80 03  ................
0080: 80 04 80 BA 04 F3 0A 01  05 80 06 80 03 80 07 80  ................
0090: BA 03 F3 0A 01 08 80 09  80 03 80 04 80 BA 02 F3  ................
00A0: 0A 01 08 80 09 80 03 80  04 80 BA C3 F2 0A 01 0A  ................
00B0: 80 0B 80 03 80 0C 80 80  F0 FF FF 7F 80 04 F3 0A  ................
00C0: 01 80 03 F3 0A 01 80 02  F3 0A 01 80 C3 F2 0A 01  ................
00D0: 81 00 04 F3 0A 01 81 00  03 F3 0A 01 81 00 02 F3  ................
00E0: 0A 01 81 00 C3 F2 0A 01  1C 0D 80 79 00 F0 FF FF  ...........y....
00F0: 7F C3 F2 0A 01 79 00 C3  F2 0A 01 F0 FF FF 7F 45  .....y.........E
0100: 0E 80 F0 FF FF 7F F0 FF  FF 7F 30 37 30 61 0F 80  ..........070a..
0110: 1A 4D 08 2B C3 F2 0A 01  10 80 23 6E F0 FF FF 7F  .M.+......#n....
0120: 11 80 99 F0 FF FF 7F 1C  12 80 45 0E 80 F0 FF FF  ..........E.....
0130: 7F F0 FF FF 7F 30 37 30  62 0F 80 27 10 04 F3 0A  .....070b..'....
0140: 01 03 1C 13 80 4A F0 FF  FF 7F 04 F3 0A 01 4A C3  .....J........J.
0150: F2 0A 01 04 F3 0A 01 1C  13 80 45 0E 80 F0 FF FF  ..........E.....
0160: 7F F0 FF FF 7F 30 37 30  63 0F 80 2B 04 F3 0A 01  .....070c..+....
0170: 14 80 23 BA 03 F3 0A 01  15 80 16 80 17 80 18 80  ..#.............
0180: BA 02 F3 0A 01 19 80 1A  80 1B 80 18 80 1C 0D 80  ................
0190: 52 0E 80 F0 FF FF 7F F0  FF FF 7F 30 37 30 63 45  R..........070cE
01A0: 0E 80 F0 FF FF 7F F0 FF  FF 7F 30 37 30 64 0F 80  ..........070d..
01B0: 2B 02 F3 0A 01 1C 80 27  10 02 F3 0A 01 03 27 10  +......'......'.
01C0: 03 F3 0A 01 03 1C 13 80  4A F0 FF FF 7F 02 F3 0A  ........J.......
01D0: 01 4A C3 F2 0A 01 02 F3  0A 01 1C 1D 80 52 0E 80  .J...........R..
01E0: F0 FF FF 7F F0 FF FF 7F  30 37 30 64 45 0E 80 F0  ........070dE...
01F0: FF FF 7F F0 FF FF 7F 30  37 30 65 0F 80 2A 10 02  .......070e..*..
0200: F3 0A 01 23 2B 04 F3 0A  01 1E 80 2A 10 03 F3 0A  ...#+......*....
0210: 01 23 2B 02 F3 0A 01 1F  80 23 1A 6E 08 1C 20 80  .#+......#.n.. .
0220: 4A C3 F2 0A 01 04 F3 0A  01 52 0E 80 F0 FF FF 7F  J........R......
0230: F0 FF FF 7F 30 37 30 65  45 0E 80 F0 FF FF 7F F0  ....070eE.......
0240: FF FF 7F 30 37 30 66 0F  80 1A 4D 08 6E 04 F3 0A  ...070f...M.n...
0250: 01 11 80 99 04 F3 0A 01  2B 04 F3 0A 01 21 80 1C  ........+....!..
0260: 22 80 23 52 0E 80 F0 FF  FF 7F F0 FF FF 7F 30 37  ".#R..........07
0270: 30 66 45 0E 80 F0 FF FF  7F F0 FF FF 7F 30 37 30  0fE..........070
0280: 67 0F 80 03 02 10 23 80  4A 04 F3 0A 01 C3 F2 0A  g.....#.J.......
0290: 01 2B 04 F3 0A 01 24 80  23 23 45 0E 80 F0 FF FF  .+....$.##E.....
02A0: 7F F0 FF FF 7F 30 37 30  68 0F 80 4A F0 FF FF 7F  .....070h..J....
02B0: C3 F2 0A 01 4A 02 F3 0A  01 C3 F2 0A 01 4A 03 F3  ....J........J..
02C0: 0A 01 C3 F2 0A 01 27 10  C3 F2 0A 01 06 2B C3 F2  ......'......+..
02D0: 0A 01 25 80 1C 20 80 1A  6E 08 4A F0 FF FF 7F C3  ..%.. ..n.J.....
02E0: F2 0A 01 4A 02 F3 0A 01  C3 F2 0A 01 4A 03 F3 0A  ...J........J...
02F0: 01 C3 F2 0A 01 4A 04 F3  0A 01 C3 F2 0A 01 1C 12  .....J..........
0300: 80 23 7A 00 C3 F2 0A 01  BA C3 F2 0A 01 26 80 27  .#z..........&.'
0310: 80 28 80 29 80 1C 0D 80  4A F0 FF FF 7F C3 F2 0A  .(.)....J.......
0320: 01 4A 02 F3 0A 01 C3 F2  0A 01 4A 03 F3 0A 01 C3  .J........J.....
0330: F2 0A 01 4A 04 F3 0A 01  C3 F2 0A 01 52 0E 80 F0  ...J........R...
0340: FF FF 7F F0 FF FF 7F 30  37 30 68 45 0E 80 F0 FF  .......070hE....
0350: FF 7F F0 FF FF 7F 30 37  30 69 0F 80 27 10 C3 F2  ......070i..'...
0360: 0A 01 07 1C 2A 80 1A 4D  08 2A 10 C3 F2 0A 01 4A  ....*..M.*.....J
0370: C3 F2 0A 01 04 F3 0A 01  52 0E 80 F0 FF FF 7F F0  ........R.......
0380: FF FF 7F 30 37 30 69 45  0E 80 F0 FF FF 7F F0 FF  ...070iE........
0390: FF 7F 30 37 30 6A 0F 80  2B C3 F2 0A 01 2B 80 1C  ..070j..+....+..
03A0: 12 80 23 66 2C 80 C3 F2  0A 01 C3 F2 0A 01 74 6C  ..#f,.........tl
03B0: 6B 30 2B C3 F2 0A 01 2D  80 1C 12 80 23 52 0E 80  k0+....-....#R..
03C0: F0 FF FF 7F F0 FF FF 7F  30 37 30 6A 45 0E 80 F0  ........070jE...
03D0: FF FF 7F F0 FF FF 7F 30  37 30 6B 0F 80 2B C3 F2  .......070k..+..
03E0: 0A 01 2E 80 23 66 2C 80  C3 F2 0A 01 C3 F2 0A 01  ....#f,.........
03F0: 74 6C 6B 31 03 02 10 2F  80 03 03 10 30 80 2B C3  tlk1.../....0.+.
0400: F2 0A 01 31 80 1C 12 80  23 52 0E 80 F0 FF FF 7F  ...1....#R......
0410: F0 FF FF 7F 30 37 30 6B  45 0E 80 F0 FF FF 7F F0  ....070kE.......
0420: FF FF 7F 30 37 30 6E 0F  80 03 02 10 23 80 7B 04  ...070n.....#.{.
0430: F3 0A 01 66 32 80 04 F3  0A 01 04 F3 0A 01 74 68  ...f2.........th
0440: 6B 31 1C 20 80 66 32 80  04 F3 0A 01 04 F3 0A 01  k1. .f2.........
0450: 74 68 6B 32 1C 12 80 52  0E 80 F0 FF FF 7F F0 FF  thk2...R........
0460: FF 7F 30 37 30 6E 45 0E  80 F0 FF FF 7F F0 FF FF  ..070nE.........
0470: 7F 30 37 30 6D 0F 80 4A  04 F3 0A 01 F0 FF FF 7F  .070m..J........
0480: 4A F0 FF FF 7F 04 F3 0A  01 2B 04 F3 0A 01 33 80  J........+....3.
0490: 2A 10 F0 FF FF 7F 23 2B  04 F3 0A 01 34 80 23 6E  *.....#+....4.#n
04A0: F0 FF FF 7F 11 80 99 F0  FF FF 7F 1C 12 80 1A 6E  ...............n
04B0: 08 1C 1D 80 52 0E 80 F0  FF FF 7F F0 FF FF 7F 30  ....R..........0
04C0: 37 30 6D 46 00 45 35 80  F0 FF FF 7F F0 FF FF 7F  70mF.E5.........
04D0: 66 64 69 32 0F 80 21 00                           fdi2..!.        
```

#### Opcodes

```
  0: 0x0001 [0x42] SET_CLI_EVENT_CANCEL_DATA()
  1: 0x0002 [0x1A] CALL_SUBROUTINE(address=0x086E)
  2: 0x0005 [0x46] CAMERA_CONTROL: Disable user control
  3: 0x0007 [0x38] SET_CLIENT_EVENT_MODE(mode=19*)
  4: 0x000A [0x4E] SET_ENTITY_HIDE_FLAG: Show LocalPlayer
  5: 0x0010 [0x2F] Herbert (ID: 17494788/0x010AF304)->Render.Flags0 &= ~0x80000 // Bit 19
  6: 0x0016 [0x2F] Five Moons (ID: 17494787/0x010AF303)->Render.Flags0 &= ~0x80000 // Bit 19
  7: 0x001C [0x2F] Nicolaus (ID: 17494786/0x010AF302)->Render.Flags0 &= ~0x80000 // Bit 19
  8: 0x0022 [0x2F] Red Axe (ID: 17494723/0x010AF2C3)->Render.Flags0 &= ~0x80000 // Bit 19
  9: 0x0028 [0x4E] SET_ENTITY_HIDE_FLAG: Show Herbert (ID: 17494788/0x010AF304)
 10: 0x002E [0x4E] SET_ENTITY_HIDE_FLAG: Show Five Moons (ID: 17494787/0x010AF303)
 11: 0x0034 [0x4E] SET_ENTITY_HIDE_FLAG: Show Nicolaus (ID: 17494786/0x010AF302)
 12: 0x003A [0x4E] SET_ENTITY_HIDE_FLAG: Show Red Axe (ID: 17494723/0x010AF2C3)
 13: 0x0040 [0x92] Five Moons (ID: 17494787/0x010AF303)->Render.Flags3 ^= 0x01
 14: 0x0046 [0x92] Nicolaus (ID: 17494786/0x010AF302)->Render.Flags3 ^= 0x01
 15: 0x004C [0x92] Red Axe (ID: 17494723/0x010AF2C3)->Render.Flags3 ^= 0x01
 16: 0x0052 [0x92] Herbert (ID: 17494788/0x010AF304)->Render.Flags3 ^= 0x01
 17: 0x0058 [0x94] LocalPlayer->Render.Flags3 ^= 0x01
 18: 0x005E [0x94] Five Moons (ID: 17494787/0x010AF303)->Render.Flags3 ^= 0x01
 19: 0x0064 [0x94] Nicolaus (ID: 17494786/0x010AF302)->Render.Flags3 ^= 0x01
 20: 0x006A [0x94] Red Axe (ID: 17494723/0x010AF2C3)->Render.Flags3 ^= 0x01
 21: 0x0070 [0x94] Herbert (ID: 17494788/0x010AF304)->Render.Flags3 ^= 0x01
 22: 0x0076 [0xBA] SET_ENTITY_POSITION(entity_id=LocalPlayer, pos_x=302.613*, pos_z=14.013*, pos_y=-27.500*, direction=2.5°*)
 23: 0x0083 [0xBA] SET_ENTITY_POSITION(entity_id=Herbert (ID: 17494788/0x010AF304), pos_x=306.066*, pos_z=20.538*, pos_y=-27.500*, direction=2.5°*)
 24: 0x0090 [0xBA] SET_ENTITY_POSITION(entity_id=Five Moons (ID: 17494787/0x010AF303), pos_x=285.841*, pos_z=14.506*, pos_y=-27.500*, direction=2.5°*)
 25: 0x009D [0xBA] SET_ENTITY_POSITION(entity_id=Nicolaus (ID: 17494786/0x010AF302), pos_x=285.841*, pos_z=14.506*, pos_y=-27.500*, direction=2.5°*)
 26: 0x00AA [0xBA] SET_ENTITY_POSITION(entity_id=Red Axe (ID: 17494723/0x010AF2C3), pos_x=304.877*, pos_z=13.969*, pos_y=-27.500*, direction=179.6°*)
 27: 0x00B7 [0x80] LOAD_WAIT(entity=LocalPlayer)
 28: 0x00BC [0x80] LOAD_WAIT(entity=Herbert (ID: 17494788/0x010AF304))
 29: 0x00C1 [0x80] LOAD_WAIT(entity=Five Moons (ID: 17494787/0x010AF303))
 30: 0x00C6 [0x80] LOAD_WAIT(entity=Nicolaus (ID: 17494786/0x010AF302))
 31: 0x00CB [0x80] LOAD_WAIT(entity=Red Axe (ID: 17494723/0x010AF2C3))
 32: 0x00D0 [0x81] SET_ENTITY_BLINKING(blink_flag=0x00, entity=Herbert (ID: 17494788/0x010AF304))
 33: 0x00D6 [0x81] SET_ENTITY_BLINKING(blink_flag=0x00, entity=Five Moons (ID: 17494787/0x010AF303))
 34: 0x00DC [0x81] SET_ENTITY_BLINKING(blink_flag=0x00, entity=Nicolaus (ID: 17494786/0x010AF302))
 35: 0x00E2 [0x81] SET_ENTITY_BLINKING(blink_flag=0x00, entity=Red Axe (ID: 17494723/0x010AF2C3))
 36: 0x00E8 [0x1C] WAIT(15* ticks)
 37: 0x00EB [0x79] LocalPlayer looks at Red Axe (ID: 17494723/0x010AF2C3) (Basic look)
 38: 0x00F5 [0x79] Red Axe (ID: 17494723/0x010AF2C3) looks at LocalPlayer (Basic look)
 39: 0x00FF [0x45] LOAD_SCHEDULED_TASK: Load scheduler "070a" with entities [LocalPlayer, LocalPlayer], work=[502*, 0*]
 40: 0x0110 [0x1A] CALL_SUBROUTINE(address=0x084D)
 41: 0x0113 [0x2B] Red Axe (ID: 17494723/0x010AF2C3) [8047*]:
    → "Hm? Business with Captain Herbert, ya say?"
 42: 0x011A [0x23] WAIT_FOR_DIALOG_INTERACTION
 43: 0x011B [0x6E] LocalPlayer uses emote 7*
 44: 0x0122 [0x99] Wait for LocalPlayer animation to complete
 45: 0x0127 [0x1C] WAIT(60* ticks)
 46: 0x012A [0x45] LOAD_SCHEDULED_TASK: Load scheduler "070b" with entities [LocalPlayer, LocalPlayer], work=[502*, 0*]
 47: 0x013B [0x27] REQ_SET(priority=0x10, entity_id=Herbert (ID: 17494788/0x010AF304), tag_num=0x03)
 48: 0x0142 [0x1C] WAIT(90* ticks)
 49: 0x0145 [0x4A] LocalPlayer looks at Herbert (ID: 17494788/0x010AF304)
 50: 0x014E [0x4A] Red Axe (ID: 17494723/0x010AF2C3) looks at Herbert (ID: 17494788/0x010AF304)
 51: 0x0157 [0x1C] WAIT(90* ticks)
 52: 0x015A [0x45] LOAD_SCHEDULED_TASK: Load scheduler "070c" with entities [LocalPlayer, LocalPlayer], work=[502*, 0*]
 53: 0x016B [0x2B] Herbert (ID: 17494788/0x010AF304) [8048*]:
    → "Visitors for me, Red Axe?"
 54: 0x0172 [0x23] WAIT_FOR_DIALOG_INTERACTION
 55: 0x0173 [0xBA] SET_ENTITY_POSITION(entity_id=Five Moons (ID: 17494787/0x010AF303), pos_x=304.998*, pos_z=0.897*, pos_y=-27.999*, direction=302.0°*)
 56: 0x0180 [0xBA] SET_ENTITY_POSITION(entity_id=Nicolaus (ID: 17494786/0x010AF302), pos_x=306.072*, pos_z=2.964*, pos_y=-27.749*, direction=302.0°*)
 57: 0x018D [0x1C] WAIT(15* ticks)
 58: 0x0190 [0x52] END_LOAD_SCHEDULER: End scheduler "070c" with entities [LocalPlayer, LocalPlayer], work=502*
 59: 0x019F [0x45] LOAD_SCHEDULED_TASK: Load scheduler "070d" with entities [LocalPlayer, LocalPlayer], work=[502*, 0*]
 60: 0x01B0 [0x2B] Nicolaus (ID: 17494786/0x010AF302) [8049*]:
    → "Captain Herbert!"
 61: 0x01B7 [0x27] REQ_SET(priority=0x10, entity_id=Nicolaus (ID: 17494786/0x010AF302), tag_num=0x03)
 62: 0x01BE [0x27] REQ_SET(priority=0x10, entity_id=Five Moons (ID: 17494787/0x010AF303), tag_num=0x03)
 63: 0x01C5 [0x1C] WAIT(90* ticks)
 64: 0x01C8 [0x4A] LocalPlayer looks at Nicolaus (ID: 17494786/0x010AF302)
 65: 0x01D1 [0x4A] Red Axe (ID: 17494723/0x010AF2C3) looks at Nicolaus (ID: 17494786/0x010AF302)
 66: 0x01DA [0x1C] WAIT(30* ticks)
 67: 0x01DD [0x52] END_LOAD_SCHEDULER: End scheduler "070d" with entities [LocalPlayer, LocalPlayer], work=502*
 68: 0x01EC [0x45] LOAD_SCHEDULED_TASK: Load scheduler "070e" with entities [LocalPlayer, LocalPlayer], work=[502*, 0*]
 69: 0x01FD [0x2A] GET_REQ_LEVEL(level=16, entity_id=Nicolaus (ID: 17494786/0x010AF302))
 70: 0x0203 [0x23] WAIT_FOR_DIALOG_INTERACTION
 71: 0x0204 [0x2B] Herbert (ID: 17494788/0x010AF304) [8050*]:
    → "You two Skinks again!? I told you to stay out of my sight unless the renegade was with you!"
 72: 0x020B [0x2A] GET_REQ_LEVEL(level=16, entity_id=Five Moons (ID: 17494787/0x010AF303))
 73: 0x0211 [0x23] WAIT_FOR_DIALOG_INTERACTION
 74: 0x0212 [0x2B] Nicolaus (ID: 17494786/0x010AF302) [8051*]:
    → "Captain, we beg of you...!"
 75: 0x0219 [0x23] WAIT_FOR_DIALOG_INTERACTION
 76: 0x021A [0x1A] CALL_SUBROUTINE(address=0x086E)
 77: 0x021D [0x1C] WAIT(180* ticks)
 78: 0x0220 [0x4A] Red Axe (ID: 17494723/0x010AF2C3) looks at Herbert (ID: 17494788/0x010AF304)
 79: 0x0229 [0x52] END_LOAD_SCHEDULER: End scheduler "070e" with entities [LocalPlayer, LocalPlayer], work=502*
 80: 0x0238 [0x45] LOAD_SCHEDULED_TASK: Load scheduler "070f" with entities [LocalPlayer, LocalPlayer], work=[502*, 0*]
 81: 0x0249 [0x1A] CALL_SUBROUTINE(address=0x084D)
 82: 0x024C [0x6E] Herbert (ID: 17494788/0x010AF304) uses emote 7*
 83: 0x0253 [0x99] Wait for Herbert (ID: 17494788/0x010AF304) animation to complete
 84: 0x0258 [0x2B] Herbert (ID: 17494788/0x010AF304) [8052*]:
    → "...I'll be frank. I don't trust the three of you as far as I can throw you. But I believe in justice, and the priority now is bringing in the deserter. Should his return shed any light on the investigation, so much the better."
 85: 0x025F [0x1C] WAIT(120* ticks)
 86: 0x0262 [0x23] WAIT_FOR_DIALOG_INTERACTION
 87: 0x0263 [0x52] END_LOAD_SCHEDULER: End scheduler "070f" with entities [LocalPlayer, LocalPlayer], work=502*
 88: 0x0272 [0x45] LOAD_SCHEDULED_TASK: Load scheduler "070g" with entities [LocalPlayer, LocalPlayer], work=[502*, 0*]
 89: 0x0283 [0x03] Work_Zone[2] = 1170*
 90: 0x0288 [0x4A] Herbert (ID: 17494788/0x010AF304) looks at Red Axe (ID: 17494723/0x010AF2C3)
 91: 0x0291 [0x2B] Herbert (ID: 17494788/0x010AF304) [8053*]:
    → "Very well, I shall draft your authorization. Decurion! 6, if you would."
 92: 0x0298 [0x23] WAIT_FOR_DIALOG_INTERACTION
 93: 0x0299 [0x23] WAIT_FOR_DIALOG_INTERACTION
 94: 0x029A [0x45] LOAD_SCHEDULED_TASK: Load scheduler "070h" with entities [LocalPlayer, LocalPlayer], work=[502*, 0*]
 95: 0x02AB [0x4A] LocalPlayer looks at Red Axe (ID: 17494723/0x010AF2C3)
 96: 0x02B4 [0x4A] Nicolaus (ID: 17494786/0x010AF302) looks at Red Axe (ID: 17494723/0x010AF2C3)
 97: 0x02BD [0x4A] Five Moons (ID: 17494787/0x010AF303) looks at Red Axe (ID: 17494723/0x010AF2C3)
 98: 0x02C6 [0x27] REQ_SET(priority=0x10, entity_id=Red Axe (ID: 17494723/0x010AF2C3), tag_num=0x06)
 99: 0x02CD [0x2B] Red Axe (ID: 17494723/0x010AF2C3) [8054*]:
    → "Of course, Captain. Should be right back here, it should..."
100: 0x02D4 [0x1C] WAIT(180* ticks)
101: 0x02D7 [0x1A] CALL_SUBROUTINE(address=0x086E)
102: 0x02DA [0x4A] LocalPlayer looks at Red Axe (ID: 17494723/0x010AF2C3)
103: 0x02E3 [0x4A] Nicolaus (ID: 17494786/0x010AF302) looks at Red Axe (ID: 17494723/0x010AF2C3)
104: 0x02EC [0x4A] Five Moons (ID: 17494787/0x010AF303) looks at Red Axe (ID: 17494723/0x010AF2C3)
105: 0x02F5 [0x4A] Herbert (ID: 17494788/0x010AF304) looks at Red Axe (ID: 17494723/0x010AF2C3)
106: 0x02FE [0x1C] WAIT(60* ticks)
107: 0x0301 [0x23] WAIT_FOR_DIALOG_INTERACTION
108: 0x0302 [0x7A] VM_CONTROL: Reset VM for Red Axe (ID: 17494723/0x010AF2C3)
109: 0x0308 [0xBA] SET_ENTITY_POSITION(entity_id=Red Axe (ID: 17494723/0x010AF2C3), pos_x=311.728*, pos_z=15.081*, pos_y=-27.499*, direction=350.9°*)
110: 0x0315 [0x1C] WAIT(15* ticks)
111: 0x0318 [0x4A] LocalPlayer looks at Red Axe (ID: 17494723/0x010AF2C3)
112: 0x0321 [0x4A] Nicolaus (ID: 17494786/0x010AF302) looks at Red Axe (ID: 17494723/0x010AF2C3)
113: 0x032A [0x4A] Five Moons (ID: 17494787/0x010AF303) looks at Red Axe (ID: 17494723/0x010AF2C3)
114: 0x0333 [0x4A] Herbert (ID: 17494788/0x010AF304) looks at Red Axe (ID: 17494723/0x010AF2C3)
115: 0x033C [0x52] END_LOAD_SCHEDULER: End scheduler "070h" with entities [LocalPlayer, LocalPlayer], work=502*
116: 0x034B [0x45] LOAD_SCHEDULED_TASK: Load scheduler "070i" with entities [LocalPlayer, LocalPlayer], work=[502*, 0*]
117: 0x035C [0x27] REQ_SET(priority=0x10, entity_id=Red Axe (ID: 17494723/0x010AF2C3), tag_num=0x07)
118: 0x0363 [0x1C] WAIT(5* ticks)
119: 0x0366 [0x1A] CALL_SUBROUTINE(address=0x084D)
120: 0x0369 [0x2A] GET_REQ_LEVEL(level=16, entity_id=Red Axe (ID: 17494723/0x010AF2C3))
121: 0x036F [0x4A] Red Axe (ID: 17494723/0x010AF2C3) looks at Herbert (ID: 17494788/0x010AF304)
122: 0x0378 [0x52] END_LOAD_SCHEDULER: End scheduler "070i" with entities [LocalPlayer, LocalPlayer], work=502*
123: 0x0387 [0x45] LOAD_SCHEDULED_TASK: Load scheduler "070j" with entities [LocalPlayer, LocalPlayer], work=[502*, 0*]
124: 0x0398 [0x2B] Red Axe (ID: 17494723/0x010AF2C3) [8055*]:
    → "My apologies, sir. It seems we've exhausted our supply."
125: 0x039F [0x1C] WAIT(60* ticks)
126: 0x03A2 [0x23] WAIT_FOR_DIALOG_INTERACTION
127: 0x03A3 [0x66] LOAD_EXT_SCHEDULER_MAIN: Load scheduler "tlk0" with entities [Red Axe (ID: 17494723/0x010AF2C3), Red Axe (ID: 17494723/0x010AF2C3)], work=69*
128: 0x03B2 [0x2B] Red Axe (ID: 17494723/0x010AF2C3) [8056*]:
    → "We've a reserve stock in Bastok, but to return there would take ages. Unless...of course!"
129: 0x03B9 [0x1C] WAIT(60* ticks)
130: 0x03BC [0x23] WAIT_FOR_DIALOG_INTERACTION
131: 0x03BD [0x52] END_LOAD_SCHEDULER: End scheduler "070j" with entities [LocalPlayer, LocalPlayer], work=502*
132: 0x03CC [0x45] LOAD_SCHEDULED_TASK: Load scheduler "070k" with entities [LocalPlayer, LocalPlayer], work=[502*, 0*]
133: 0x03DD [0x2B] Red Axe (ID: 17494723/0x010AF2C3) [8057*]:
    → "The Goblin Leadavox in Vunkerl Inlet! She's always there in a pinch to fix us up with the goods we need...for a fee, of course."
134: 0x03E4 [0x23] WAIT_FOR_DIALOG_INTERACTION
135: 0x03E5 [0x66] LOAD_EXT_SCHEDULER_MAIN: Load scheduler "tlk1" with entities [Red Axe (ID: 17494723/0x010AF2C3), Red Axe (ID: 17494723/0x010AF2C3)], work=69*
136: 0x03F4 [0x03] Work_Zone[2] = 913*
137: 0x03F9 [0x03] Work_Zone[3] = 2712*
138: 0x03FE [0x2B] Red Axe (ID: 17494723/0x010AF2C3) [8058*]:
    → "Last time, I brought along $0 and $1, and she was happy to oblige."
139: 0x0405 [0x1C] WAIT(60* ticks)
140: 0x0408 [0x23] WAIT_FOR_DIALOG_INTERACTION
141: 0x0409 [0x52] END_LOAD_SCHEDULER: End scheduler "070k" with entities [LocalPlayer, LocalPlayer], work=502*
142: 0x0418 [0x45] LOAD_SCHEDULED_TASK: Load scheduler "070n" with entities [LocalPlayer, LocalPlayer], work=[502*, 0*]
143: 0x0429 [0x03] Work_Zone[2] = 1170*
144: 0x042E [0x7B] Herbert (ID: 17494788/0x010AF304) stops talking
145: 0x0433 [0x66] LOAD_EXT_SCHEDULER_MAIN: Load scheduler "thk1" with entities [Herbert (ID: 17494788/0x010AF304), Herbert (ID: 17494788/0x010AF304)], work=9*
146: 0x0442 [0x1C] WAIT(180* ticks)
147: 0x0445 [0x66] LOAD_EXT_SCHEDULER_MAIN: Load scheduler "thk2" with entities [Herbert (ID: 17494788/0x010AF304), Herbert (ID: 17494788/0x010AF304)], work=9*
148: 0x0454 [0x1C] WAIT(60* ticks)
149: 0x0457 [0x52] END_LOAD_SCHEDULER: End scheduler "070n" with entities [LocalPlayer, LocalPlayer], work=502*
150: 0x0466 [0x45] LOAD_SCHEDULED_TASK: Load scheduler "070m" with entities [LocalPlayer, LocalPlayer], work=[502*, 0*]
151: 0x0477 [0x4A] Herbert (ID: 17494788/0x010AF304) looks at LocalPlayer
152: 0x0480 [0x4A] LocalPlayer looks at Herbert (ID: 17494788/0x010AF304)
153: 0x0489 [0x2B] Herbert (ID: 17494788/0x010AF304) [8059*]:
    → "You there, soldier. Go to Vunkerl and procure the $3 we need. That's an order."
154: 0x0490 [0x2A] GET_REQ_LEVEL(level=16, entity_id=LocalPlayer)
155: 0x0496 [0x23] WAIT_FOR_DIALOG_INTERACTION
156: 0x0497 [0x2B] Herbert (ID: 17494788/0x010AF304) [8060*]:
    → "Nicolaus, Five Moons...you will tell me all you know of Zeid and Captain Klara. It would seem the secrets behind their disappearance run deeper than any of us imagined..."
157: 0x049E [0x23] WAIT_FOR_DIALOG_INTERACTION
158: 0x049F [0x6E] LocalPlayer uses emote 7*
159: 0x04A6 [0x99] Wait for LocalPlayer animation to complete
160: 0x04AB [0x1C] WAIT(60* ticks)
161: 0x04AE [0x1A] CALL_SUBROUTINE(address=0x086E)
162: 0x04B1 [0x1C] WAIT(30* ticks)
163: 0x04B4 [0x52] END_LOAD_SCHEDULER: End scheduler "070m" with entities [LocalPlayer, LocalPlayer], work=502*
164: 0x04C3 [0x46] CAMERA_CONTROL: Restore default settings
165: 0x04C5 [0x45] LOAD_SCHEDULED_TASK: Load scheduler "fdi2" with entities [LocalPlayer, LocalPlayer], work=[200*, 0*]
166: 0x04D6 [0x21] END_EVENT
167: 0x04D7 [0x00] END_REQSTACK()
```

### Event 43

#### Metadata

| Field        | Value      |
|--------------|------------|
| Entrypoint   | 0x04D8     |
| Data Size    | 1476 bytes |
| Instructions | 116        |

```
      00 01 02 03 04 05 06 07  08 09 0A 0B 0C 0D 0E 0F
      -- -- -- -- -- -- -- --  -- -- -- -- -- -- -- --
04D0:                          42 1A 6E 08 46 01 38 00          B.n.F.8.
04E0: 80 4E 00 F0 FF FF 7F 2F  00 04 F3 0A 01 2F 00 03  .N...../...../..
04F0: F3 0A 01 2F 00 02 F3 0A  01 2F 00 C3 F2 0A 01 4E  .../...../.....N
0500: 00 04 F3 0A 01 4E 00 03  F3 0A 01 4E 00 02 F3 0A  .....N.....N....
0510: 01 4E 00 C3 F2 0A 01 92  01 03 F3 0A 01 92 01 02  .N..............
0520: F3 0A 01 92 01 C3 F2 0A  01 92 01 04 F3 0A 01 94  ................
0530: 01 F0 FF FF 7F 94 01 03  F3 0A 01 94 01 02 F3 0A  ................
0540: 01 94 01 C3 F2 0A 01 94  01 04 F3 0A 01 BA F0 FF  ................
0550: FF 7F 01 80 02 80 03 80  04 80 BA 04 F3 0A 01 05  ................
0560: 80 06 80 03 80 07 80 BA  03 F3 0A 01 36 80 37 80  ............6.7.
0570: 03 80 07 80 BA 02 F3 0A  01 38 80 39 80 03 80 07  .........8.9....
0580: 80 BA C3 F2 0A 01 0A 80  0B 80 03 80 0C 80 80 F0  ................
0590: FF FF 7F 80 04 F3 0A 01  80 03 F3 0A 01 80 02 F3  ................
05A0: 0A 01 80 C3 F2 0A 01 1C  0D 80 79 00 F0 FF FF 7F  ..........y.....
05B0: C3 F2 0A 01 79 00 C3 F2  0A 01 F0 FF FF 7F 1C 1D  ....y...........
05C0: 80 45 0E 80 F0 FF FF 7F  F0 FF FF 7F 30 39 30 61  .E..........090a
05D0: 0F 80 1A 4D 08 03 02 10  23 80 2B C3 F2 0A 01 3A  ...M....#.+....:
05E0: 80 23 52 0E 80 F0 FF FF  7F F0 FF FF 7F 30 39 30  .#R..........090
05F0: 61 45 0E 80 F0 FF FF 7F  F0 FF FF 7F 30 39 30 62  aE..........090b
0600: 0F 80 2B C3 F2 0A 01 3B  80 23 6E C3 F2 0A 01 3C  ..+....;.#n....<
0610: 80 99 C3 F2 0A 01 2B C3  F2 0A 01 3D 80 1C 22 80  ......+....=..".
0620: 23 27 10 03 F3 0A 01 05  27 10 02 F3 0A 01 05 27  #'......'......'
0630: 10 04 F3 0A 01 03 1C 3E  80 52 0E 80 F0 FF FF 7F  .......>.R......
0640: F0 FF FF 7F 30 39 30 62  45 0E 80 F0 FF FF 7F F0  ....090bE.......
0650: FF FF 7F 30 39 30 68 0F  80 1C 22 80 4A F0 FF FF  ...090h...".J...
0660: 7F 04 F3 0A 01 4A C3 F2  0A 01 04 F3 0A 01 1C 12  .....J..........
0670: 80 52 0E 80 F0 FF FF 7F  F0 FF FF 7F 30 39 30 68  .R..........090h
0680: 45 0E 80 F0 FF FF 7F F0  FF FF 7F 30 39 30 63 0F  E..........090c.
0690: 80 2B 04 F3 0A 01 3F 80  23 2B 04 F3 0A 01 40 80  .+....?.#+....@.
06A0: 23 1A 6E 08 1C 13 80 BA  F0 FF FF 7F 41 80 42 80  #.n.........A.B.
06B0: 03 80 04 80 BA 04 F3 0A  01 43 80 44 80 03 80 0C  .........C.D....
06C0: 80 BA 03 F3 0A 01 45 80  46 80 03 80 04 80 BA 02  ......E.F.......
06D0: F3 0A 01 01 80 02 80 03  80 04 80 BA C3 F2 0A 01  ................
06E0: 47 80 48 80 03 80 0C 80  79 00 C3 F2 0A 01 02 F3  G.H.....y.......
06F0: 0A 01 1C 13 80 52 0E 80  F0 FF FF 7F F0 FF FF 7F  .....R..........
0700: 30 39 30 63 45 0E 80 F0  FF FF 7F F0 FF FF 7F 30  090cE..........0
0710: 39 30 64 0F 80 1A 4D 08  66 49 80 02 F3 0A 01 02  90d...M.fI......
0720: F3 0A 01 6B 62 61 32 2B  02 F3 0A 01 4A 80 1C 4B  ...kba2+....J..K
0730: 80 23 52 0E 80 F0 FF FF  7F F0 FF FF 7F 30 39 30  .#R..........090
0740: 64 45 0E 80 F0 FF FF 7F  F0 FF FF 7F 30 39 30 65  dE..........090e
0750: 0F 80 2B 04 F3 0A 01 4C  80 23 66 4D 80 02 F3 0A  ..+....L.#fM....
0760: 01 02 F3 0A 01 79 65 73  30 1C 3E 80 52 0E 80 F0  .....yes0.>.R...
0770: FF FF 7F F0 FF FF 7F 30  39 30 65 45 0E 80 F0 FF  .......090eE....
0780: FF 7F F0 FF FF 7F 30 39  30 66 0F 80 2B 02 F3 0A  ......090f..+...
0790: 01 4E 80 1C 13 80 23 52  0E 80 F0 FF FF 7F F0 FF  .N....#R........
07A0: FF 7F 30 39 30 66 45 0E  80 F0 FF FF 7F F0 FF FF  ..090fE.........
07B0: 7F 30 39 30 67 0F 80 4B  02 F3 0A 01 0C 80 2B 02  .090g..K......+.
07C0: F3 0A 01 4F 80 23 6E 03  F3 0A 01 11 80 99 03 F3  ...O.#n.........
07D0: 0A 01 6E F0 FF FF 7F 50  80 99 F0 FF FF 7F 1C 13  ..n....P........
07E0: 80 1A 6E 08 1C 1D 80 52  0E 80 F0 FF FF 7F F0 FF  ..n....R........
07F0: FF 7F 30 39 30 67 46 00  45 35 80 F0 FF FF 7F F0  ..090gF.E5......
0800: FF FF 7F 66 64 69 32 0F  80 21 00 45 35 80 F0 FF  ...fdi2..!.E5...
0810: FF 7F F0 FF FF 7F 66 64  69 30 0F 80 55 35 80 F0  ......fdi0..U5..
0820: FF FF 7F F0 FF FF 7F 66  64 69 30 1B 45 35 80 F0  .......fdi0.E5..
0830: FF FF 7F F0 FF FF 7F 66  64 6F 30 0F 80 55 35 80  .......fdo0..U5.
0840: F0 FF FF 7F F0 FF FF 7F  66 64 6F 30 1B 45 35 80  ........fdo0.E5.
0850: F0 FF FF 7F F0 FF FF 7F  66 64 69 31 0F 80 55 35  ........fdi1..U5
0860: 80 F0 FF FF 7F F0 FF FF  7F 66 64 69 31 1B 45 35  .........fdi1.E5
0870: 80 F0 FF FF 7F F0 FF FF  7F 66 64 6F 31 0F 80 55  .........fdo1..U
0880: 35 80 F0 FF FF 7F F0 FF  FF 7F 66 64 6F 31 1B 45  5.........fdo1.E
0890: 51 80 F0 FF FF 7F F0 FF  FF 7F 77 68 69 31 0F 80  Q.........whi1..
08A0: 55 51 80 F0 FF FF 7F F0  FF FF 7F 77 68 69 31 1B  UQ.........whi1.
08B0: 45 51 80 F0 FF FF 7F F0  FF FF 7F 77 68 6F 31 0F  EQ.........who1.
08C0: 80 55 51 80 F0 FF FF 7F  F0 FF FF 7F 77 68 6F 31  .UQ.........who1
08D0: 1B 45 51 80 F0 FF FF 7F  F0 FF FF 7F 77 68 6F 32  .EQ.........who2
08E0: 0F 80 55 51 80 F0 FF FF  7F F0 FF FF 7F 77 68 6F  ..UQ.........who
08F0: 32 1B 45 51 80 F0 FF FF  7F F0 FF FF 7F 77 68 6F  2.EQ.........who
0900: 33 0F 80 55 51 80 F0 FF  FF 7F F0 FF FF 7F 77 68  3..UQ.........wh
0910: 6F 33 1B 62 52 80 F0 FF  FF 7F F0 FF FF 7F 6D 61  o3.bR.........ma
0920: 69 6E 0F 80 1C 53 80 45  35 80 F0 FF FF 7F F0 FF  in...S.E5.......
0930: FF 7F 66 64 6F 31 0F 80  55 35 80 F0 FF FF 7F F0  ..fdo1..U5......
0940: FF FF 7F 66 64 6F 31 1B  45 35 80 F0 FF FF 7F F0  ...fdo1.E5......
0950: FF FF 7F 66 64 69 31 0F  80 62 49 80 F0 FF FF 7F  ...fdi1..bI.....
0960: F0 FF FF 7F 6D 61 69 6E  0F 80 1C 1D 80 55 35 80  ....main.....U5.
0970: F0 FF FF 7F F0 FF FF 7F  66 64 69 31 1B 45 35 80  ........fdi1.E5.
0980: F0 FF FF 7F F0 FF FF 7F  62 6C 6F 6E 0F 80 45 51  ........blon..EQ
0990: 80 F0 FF FF 7F F0 FF FF  7F 62 6C 6F 6E 0F 80 1B  .........blon...
09A0: 45 51 80 F0 FF FF 7F F0  FF FF 7F 77 68 69 30 0F  EQ.........whi0.
09B0: 80 55 51 80 F0 FF FF 7F  F0 FF FF 7F 77 68 69 30  .UQ.........whi0
09C0: 1B 45 51 80 F0 FF FF 7F  F0 FF FF 7F 77 68 6F 30  .EQ.........who0
09D0: 0F 80 55 51 80 F0 FF FF  7F F0 FF FF 7F 77 68 6F  ..UQ.........who
09E0: 30 1B 45 54 80 F0 FF FF  7F F0 FF FF 7F 65 66 6F  0.ET.........efo
09F0: 6E 0F 80 55 54 80 F0 FF  FF 7F F0 FF FF 7F 65 66  n..UT.........ef
0A00: 6F 6E 1B 45 35 80 F0 FF  FF 7F F0 FF FF 7F 66 64  on.E5.........fd
0A10: 69 73 0F 80 1B 45 35 80  F0 FF FF 7F F0 FF FF 7F  is...E5.........
0A20: 66 64 6F 73 0F 80 55 35  80 F0 FF FF 7F F0 FF FF  fdos..U5........
0A30: 7F 66 64 6F 73 1B 45 35  80 F0 FF FF 7F F0 FF FF  .fdos.E5........
0A40: 7F 66 64 69 66 0F 80 1B  45 35 80 F0 FF FF 7F F0  .fdif...E5......
0A50: FF FF 7F 66 64 6F 66 0F  80 55 35 80 F0 FF FF 7F  ...fdof..U5.....
0A60: F0 FF FF 7F 66 64 6F 66  1B 45 35 80 F0 FF FF 7F  ....fdof.E5.....
0A70: F0 FF FF 7F 66 64 69 70  0F 80 1B 45 35 80 F0 FF  ....fdip...E5...
0A80: FF 7F F0 FF FF 7F 66 64  6F 70 0F 80 55 35 80 F0  ......fdop..U5..
0A90: FF FF 7F F0 FF FF 7F 66  64 6F 70 1B              .......fdop.    
```

#### Opcodes

```
  0: 0x04D8 [0x42] SET_CLI_EVENT_CANCEL_DATA()
  1: 0x04D9 [0x1A] CALL_SUBROUTINE(address=0x086E)
  2: 0x04DC [0x46] CAMERA_CONTROL: Disable user control
  3: 0x04DE [0x38] SET_CLIENT_EVENT_MODE(mode=19*)
  4: 0x04E1 [0x4E] SET_ENTITY_HIDE_FLAG: Show LocalPlayer
  5: 0x04E7 [0x2F] Herbert (ID: 17494788/0x010AF304)->Render.Flags0 &= ~0x80000 // Bit 19
  6: 0x04ED [0x2F] Five Moons (ID: 17494787/0x010AF303)->Render.Flags0 &= ~0x80000 // Bit 19
  7: 0x04F3 [0x2F] Nicolaus (ID: 17494786/0x010AF302)->Render.Flags0 &= ~0x80000 // Bit 19
  8: 0x04F9 [0x2F] Red Axe (ID: 17494723/0x010AF2C3)->Render.Flags0 &= ~0x80000 // Bit 19
  9: 0x04FF [0x4E] SET_ENTITY_HIDE_FLAG: Show Herbert (ID: 17494788/0x010AF304)
 10: 0x0505 [0x4E] SET_ENTITY_HIDE_FLAG: Show Five Moons (ID: 17494787/0x010AF303)
 11: 0x050B [0x4E] SET_ENTITY_HIDE_FLAG: Show Nicolaus (ID: 17494786/0x010AF302)
 12: 0x0511 [0x4E] SET_ENTITY_HIDE_FLAG: Show Red Axe (ID: 17494723/0x010AF2C3)
 13: 0x0517 [0x92] Five Moons (ID: 17494787/0x010AF303)->Render.Flags3 ^= 0x01
 14: 0x051D [0x92] Nicolaus (ID: 17494786/0x010AF302)->Render.Flags3 ^= 0x01
 15: 0x0523 [0x92] Red Axe (ID: 17494723/0x010AF2C3)->Render.Flags3 ^= 0x01
 16: 0x0529 [0x92] Herbert (ID: 17494788/0x010AF304)->Render.Flags3 ^= 0x01
 17: 0x052F [0x94] LocalPlayer->Render.Flags3 ^= 0x01
 18: 0x0535 [0x94] Five Moons (ID: 17494787/0x010AF303)->Render.Flags3 ^= 0x01
 19: 0x053B [0x94] Nicolaus (ID: 17494786/0x010AF302)->Render.Flags3 ^= 0x01
 20: 0x0541 [0x94] Red Axe (ID: 17494723/0x010AF2C3)->Render.Flags3 ^= 0x01
 21: 0x0547 [0x94] Herbert (ID: 17494788/0x010AF304)->Render.Flags3 ^= 0x01
 22: 0x054D [0xBA] SET_ENTITY_POSITION(entity_id=LocalPlayer, pos_x=302.613*, pos_z=14.013*, pos_y=-27.500*, direction=2.5°*)
 23: 0x055A [0xBA] SET_ENTITY_POSITION(entity_id=Herbert (ID: 17494788/0x010AF304), pos_x=306.066*, pos_z=20.538*, pos_y=-27.500*, direction=2.5°*)
 24: 0x0567 [0xBA] SET_ENTITY_POSITION(entity_id=Five Moons (ID: 17494787/0x010AF303), pos_x=306.870*, pos_z=23.150*, pos_y=-27.500*, direction=2.5°*)
 25: 0x0574 [0xBA] SET_ENTITY_POSITION(entity_id=Nicolaus (ID: 17494786/0x010AF302), pos_x=305.262*, pos_z=22.041*, pos_y=-27.500*, direction=2.5°*)
 26: 0x0581 [0xBA] SET_ENTITY_POSITION(entity_id=Red Axe (ID: 17494723/0x010AF2C3), pos_x=304.877*, pos_z=13.969*, pos_y=-27.500*, direction=179.6°*)
 27: 0x058E [0x80] LOAD_WAIT(entity=LocalPlayer)
 28: 0x0593 [0x80] LOAD_WAIT(entity=Herbert (ID: 17494788/0x010AF304))
 29: 0x0598 [0x80] LOAD_WAIT(entity=Five Moons (ID: 17494787/0x010AF303))
 30: 0x059D [0x80] LOAD_WAIT(entity=Nicolaus (ID: 17494786/0x010AF302))
 31: 0x05A2 [0x80] LOAD_WAIT(entity=Red Axe (ID: 17494723/0x010AF2C3))
 32: 0x05A7 [0x1C] WAIT(15* ticks)
 33: 0x05AA [0x79] LocalPlayer looks at Red Axe (ID: 17494723/0x010AF2C3) (Basic look)
 34: 0x05B4 [0x79] Red Axe (ID: 17494723/0x010AF2C3) looks at LocalPlayer (Basic look)
 35: 0x05BE [0x1C] WAIT(30* ticks)
 36: 0x05C1 [0x45] LOAD_SCHEDULED_TASK: Load scheduler "090a" with entities [LocalPlayer, LocalPlayer], work=[502*, 0*]
 37: 0x05D2 [0x1A] CALL_SUBROUTINE(address=0x084D)
 38: 0x05D5 [0x03] Work_Zone[2] = 1170*
 39: 0x05DA [0x2B] Red Axe (ID: 17494723/0x010AF2C3) [8061*]:
    → "Ah, yes...no mistaking the sight--or the stink--of it. That's one of Leada's $5, all right."
 40: 0x05E1 [0x23] WAIT_FOR_DIALOG_INTERACTION
 41: 0x05E2 [0x52] END_LOAD_SCHEDULER: End scheduler "090a" with entities [LocalPlayer, LocalPlayer], work=502*
 42: 0x05F1 [0x45] LOAD_SCHEDULED_TASK: Load scheduler "090b" with entities [LocalPlayer, LocalPlayer], work=[502*, 0*]
 43: 0x0602 [0x2B] Red Axe (ID: 17494723/0x010AF2C3) [8062*]:
    → "What!? Go myself next time, or she'll charge double!? Why, that no-good--"
 44: 0x0609 [0x23] WAIT_FOR_DIALOG_INTERACTION
 45: 0x060A [0x6E] Red Axe (ID: 17494723/0x010AF2C3) uses emote 22*
 46: 0x0611 [0x99] Wait for Red Axe (ID: 17494723/0x010AF2C3) animation to complete
 47: 0x0616 [0x2B] Red Axe (ID: 17494723/0x010AF2C3) [8063*]:
    → "Bah, it's just as well. I could use some fresh air for a change..."
 48: 0x061D [0x1C] WAIT(120* ticks)
 49: 0x0620 [0x23] WAIT_FOR_DIALOG_INTERACTION
 50: 0x0621 [0x27] REQ_SET(priority=0x10, entity_id=Five Moons (ID: 17494787/0x010AF303), tag_num=0x05)
 51: 0x0628 [0x27] REQ_SET(priority=0x10, entity_id=Nicolaus (ID: 17494786/0x010AF302), tag_num=0x05)
 52: 0x062F [0x27] REQ_SET(priority=0x10, entity_id=Herbert (ID: 17494788/0x010AF304), tag_num=0x03)
 53: 0x0636 [0x1C] WAIT(10* ticks)
 54: 0x0639 [0x52] END_LOAD_SCHEDULER: End scheduler "090b" with entities [LocalPlayer, LocalPlayer], work=502*
 55: 0x0648 [0x45] LOAD_SCHEDULED_TASK: Load scheduler "090h" with entities [LocalPlayer, LocalPlayer], work=[502*, 0*]
 56: 0x0659 [0x1C] WAIT(120* ticks)
 57: 0x065C [0x4A] LocalPlayer looks at Herbert (ID: 17494788/0x010AF304)
 58: 0x0665 [0x4A] Red Axe (ID: 17494723/0x010AF2C3) looks at Herbert (ID: 17494788/0x010AF304)
 59: 0x066E [0x1C] WAIT(60* ticks)
 60: 0x0671 [0x52] END_LOAD_SCHEDULER: End scheduler "090h" with entities [LocalPlayer, LocalPlayer], work=502*
 61: 0x0680 [0x45] LOAD_SCHEDULED_TASK: Load scheduler "090c" with entities [LocalPlayer, LocalPlayer], work=[502*, 0*]
 62: 0x0691 [0x2B] Herbert (ID: 17494788/0x010AF304) [8064*]:
    → "Excellent work, soldier."
 63: 0x0698 [0x23] WAIT_FOR_DIALOG_INTERACTION
 64: 0x0699 [0x2B] Herbert (ID: 17494788/0x010AF304) [8065*]:
    → "Skeptical as I was, speaking with these two has convinced me beyond a doubt. The fugitive must be found at all costs, and it would seem you're the best men for the job. I'll write up your authorization."
 65: 0x06A0 [0x23] WAIT_FOR_DIALOG_INTERACTION
 66: 0x06A1 [0x1A] CALL_SUBROUTINE(address=0x086E)
 67: 0x06A4 [0x1C] WAIT(90* ticks)
 68: 0x06A7 [0xBA] SET_ENTITY_POSITION(entity_id=LocalPlayer, pos_x=299.962*, pos_z=12.969*, pos_y=-27.500*, direction=2.5°*)
 69: 0x06B4 [0xBA] SET_ENTITY_POSITION(entity_id=Herbert (ID: 17494788/0x010AF304), pos_x=305.113*, pos_z=14.680*, pos_y=-27.500*, direction=179.6°*)
 70: 0x06C1 [0xBA] SET_ENTITY_POSITION(entity_id=Five Moons (ID: 17494787/0x010AF303), pos_x=300.076*, pos_z=14.975*, pos_y=-27.500*, direction=2.5°*)
 71: 0x06CE [0xBA] SET_ENTITY_POSITION(entity_id=Nicolaus (ID: 17494786/0x010AF302), pos_x=302.613*, pos_z=14.013*, pos_y=-27.500*, direction=2.5°*)
 72: 0x06DB [0xBA] SET_ENTITY_POSITION(entity_id=Red Axe (ID: 17494723/0x010AF2C3), pos_x=305.012*, pos_z=12.652*, pos_y=-27.500*, direction=179.6°*)
 73: 0x06E8 [0x79] Red Axe (ID: 17494723/0x010AF2C3) looks at Nicolaus (ID: 17494786/0x010AF302) (Basic look)
 74: 0x06F2 [0x1C] WAIT(90* ticks)
 75: 0x06F5 [0x52] END_LOAD_SCHEDULER: End scheduler "090c" with entities [LocalPlayer, LocalPlayer], work=502*
 76: 0x0704 [0x45] LOAD_SCHEDULED_TASK: Load scheduler "090d" with entities [LocalPlayer, LocalPlayer], work=[502*, 0*]
 77: 0x0715 [0x1A] CALL_SUBROUTINE(address=0x084D)
 78: 0x0718 [0x66] LOAD_EXT_SCHEDULER_MAIN: Load scheduler "kba2" with entities [Nicolaus (ID: 17494786/0x010AF302), Nicolaus (ID: 17494786/0x010AF302)], work=2*
 79: 0x0727 [0x2B] Nicolaus (ID: 17494786/0x010AF302) [8066*]:
    → "Thank you for your trust, Captain. We are forever in your debt!"
 80: 0x072E [0x1C] WAIT(150* ticks)
 81: 0x0731 [0x23] WAIT_FOR_DIALOG_INTERACTION
 82: 0x0732 [0x52] END_LOAD_SCHEDULER: End scheduler "090d" with entities [LocalPlayer, LocalPlayer], work=502*
 83: 0x0741 [0x45] LOAD_SCHEDULED_TASK: Load scheduler "090e" with entities [LocalPlayer, LocalPlayer], work=[502*, 0*]
 84: 0x0752 [0x2B] Herbert (ID: 17494788/0x010AF304) [8067*]:
    → "I've no use for words, Skinks. You can show your gratitude by tracking down your comrade and getting to the bottom of this whole mess. That's an order!"
 85: 0x0759 [0x23] WAIT_FOR_DIALOG_INTERACTION
 86: 0x075A [0x66] LOAD_EXT_SCHEDULER_MAIN: Load scheduler "yes0" with entities [Nicolaus (ID: 17494786/0x010AF302), Nicolaus (ID: 17494786/0x010AF302)], work=78*
 87: 0x0769 [0x1C] WAIT(10* ticks)
 88: 0x076C [0x52] END_LOAD_SCHEDULER: End scheduler "090e" with entities [LocalPlayer, LocalPlayer], work=502*
 89: 0x077B [0x45] LOAD_SCHEDULED_TASK: Load scheduler "090f" with entities [LocalPlayer, LocalPlayer], work=[502*, 0*]
 90: 0x078C [0x2B] Nicolaus (ID: 17494786/0x010AF302) [8068*]:
    → "Yes, sir!"
 91: 0x0793 [0x1C] WAIT(90* ticks)
 92: 0x0796 [0x23] WAIT_FOR_DIALOG_INTERACTION
 93: 0x0797 [0x52] END_LOAD_SCHEDULER: End scheduler "090f" with entities [LocalPlayer, LocalPlayer], work=502*
 94: 0x07A6 [0x45] LOAD_SCHEDULED_TASK: Load scheduler "090g" with entities [LocalPlayer, LocalPlayer], work=[502*, 0*]
 95: 0x07B7 [0x4B] UPDATE_ENTITY_YAW(entity=Nicolaus (ID: 17494786/0x010AF302), yaw=11.2°*)
 96: 0x07BE [0x2B] Nicolaus (ID: 17494786/0x010AF302) [8069*]:
    → "We've done it, <Player>, Five Moons! Now, to see what tantalizing secrets the archives hold... Let us return to the Republic with all speed!"
 97: 0x07C5 [0x23] WAIT_FOR_DIALOG_INTERACTION
 98: 0x07C6 [0x6E] Five Moons (ID: 17494787/0x010AF303) uses emote 7*
 99: 0x07CD [0x99] Wait for Five Moons (ID: 17494787/0x010AF303) animation to complete
100: 0x07D2 [0x6E] LocalPlayer uses emote 36*
101: 0x07D9 [0x99] Wait for LocalPlayer animation to complete
102: 0x07DE [0x1C] WAIT(90* ticks)
103: 0x07E1 [0x1A] CALL_SUBROUTINE(address=0x086E)
104: 0x07E4 [0x1C] WAIT(30* ticks)
105: 0x07E7 [0x52] END_LOAD_SCHEDULER: End scheduler "090g" with entities [LocalPlayer, LocalPlayer], work=502*
106: 0x07F6 [0x46] CAMERA_CONTROL: Restore default settings
107: 0x07F8 [0x45] LOAD_SCHEDULED_TASK: Load scheduler "fdi2" with entities [LocalPlayer, LocalPlayer], work=[200*, 0*]
108: 0x0809 [0x21] END_EVENT
109: 0x080A [0x00] END_REQSTACK()

SUBROUTINE_084D:
110: 0x084D [0x45] LOAD_SCHEDULED_TASK: Load scheduler "fdi1" with entities [LocalPlayer, LocalPlayer], work=[200*, 0*]
111: 0x085E [0x55] WAIT_LOAD_SCHEDULER: Wait for scheduler "fdi1" with entities [LocalPlayer, LocalPlayer], work=200*
112: 0x086D [0x1B] RETURN

SUBROUTINE_086E:
113: 0x086E [0x45] LOAD_SCHEDULED_TASK: Load scheduler "fdo1" with entities [LocalPlayer, LocalPlayer], work=[200*, 0*]
114: 0x087F [0x55] WAIT_LOAD_SCHEDULER: Wait for scheduler "fdo1" with entities [LocalPlayer, LocalPlayer], work=200*
115: 0x088E [0x1B] RETURN
```

#### Data or dead code:

```
# Dead code (unreachable instructions):
     0x080B [0x45] LOAD_SCHEDULED_TASK: Load scheduler "fdi0" with entities [LocalPlayer, LocalPlayer], work=[200*, 0*]
     0x081C [0x55] WAIT_LOAD_SCHEDULER: Wait for scheduler "fdi0" with entities [LocalPlayer, LocalPlayer], work=200*
     0x082B [0x1B] RETURN
     0x082C [0x45] LOAD_SCHEDULED_TASK: Load scheduler "fdo0" with entities [LocalPlayer, LocalPlayer], work=[200*, 0*]
     0x083D [0x55] WAIT_LOAD_SCHEDULER: Wait for scheduler "fdo0" with entities [LocalPlayer, LocalPlayer], work=200*
     0x084C [0x1B] RETURN
# Dead code (unreachable instructions):
     0x088F [0x45] LOAD_SCHEDULED_TASK: Load scheduler "whi1" with entities [LocalPlayer, LocalPlayer], work=[201*, 0*]
     0x08A0 [0x55] WAIT_LOAD_SCHEDULER: Wait for scheduler "whi1" with entities [LocalPlayer, LocalPlayer], work=201*
     0x08AF [0x1B] RETURN
     0x08B0 [0x45] LOAD_SCHEDULED_TASK: Load scheduler "who1" with entities [LocalPlayer, LocalPlayer], work=[201*, 0*]
     0x08C1 [0x55] WAIT_LOAD_SCHEDULER: Wait for scheduler "who1" with entities [LocalPlayer, LocalPlayer], work=201*
     0x08D0 [0x1B] RETURN
     0x08D1 [0x45] LOAD_SCHEDULED_TASK: Load scheduler "who2" with entities [LocalPlayer, LocalPlayer], work=[201*, 0*]
     0x08E2 [0x55] WAIT_LOAD_SCHEDULER: Wait for scheduler "who2" with entities [LocalPlayer, LocalPlayer], work=201*
     0x08F1 [0x1B] RETURN
     0x08F2 [0x45] LOAD_SCHEDULED_TASK: Load scheduler "who3" with entities [LocalPlayer, LocalPlayer], work=[201*, 0*]
     0x0903 [0x55] WAIT_LOAD_SCHEDULER: Wait for scheduler "who3" with entities [LocalPlayer, LocalPlayer], work=201*
     0x0912 [0x1B] RETURN
     0x0913 [0x62] LOAD_EVENT_SCHEDULER: Load scheduler "main" with entities [LocalPlayer, LocalPlayer], work=[1*, 0*]
     0x0924 [0x1C] WAIT(45* ticks)
     0x0927 [0x45] LOAD_SCHEDULED_TASK: Load scheduler "fdo1" with entities [LocalPlayer, LocalPlayer], work=[200*, 0*]
     0x0938 [0x55] WAIT_LOAD_SCHEDULER: Wait for scheduler "fdo1" with entities [LocalPlayer, LocalPlayer], work=200*
     0x0947 [0x1B] RETURN
     0x0948 [0x45] LOAD_SCHEDULED_TASK: Load scheduler "fdi1" with entities [LocalPlayer, LocalPlayer], work=[200*, 0*]
     0x0959 [0x62] LOAD_EVENT_SCHEDULER: Load scheduler "main" with entities [LocalPlayer, LocalPlayer], work=[2*, 0*]
     0x096A [0x1C] WAIT(30* ticks)
     0x096D [0x55] WAIT_LOAD_SCHEDULER: Wait for scheduler "fdi1" with entities [LocalPlayer, LocalPlayer], work=200*
     0x097C [0x1B] RETURN
     0x097D [0x45] LOAD_SCHEDULED_TASK: Load scheduler "blon" with entities [LocalPlayer, LocalPlayer], work=[200*, 0*]
     0x098E [0x45] LOAD_SCHEDULED_TASK: Load scheduler "blon" with entities [LocalPlayer, LocalPlayer], work=[201*, 0*]
     0x099F [0x1B] RETURN
     0x09A0 [0x45] LOAD_SCHEDULED_TASK: Load scheduler "whi0" with entities [LocalPlayer, LocalPlayer], work=[201*, 0*]
     0x09B1 [0x55] WAIT_LOAD_SCHEDULER: Wait for scheduler "whi0" with entities [LocalPlayer, LocalPlayer], work=201*
     0x09C0 [0x1B] RETURN
     0x09C1 [0x45] LOAD_SCHEDULED_TASK: Load scheduler "who0" with entities [LocalPlayer, LocalPlayer], work=[201*, 0*]
     0x09D2 [0x55] WAIT_LOAD_SCHEDULER: Wait for scheduler "who0" with entities [LocalPlayer, LocalPlayer], work=201*
     0x09E1 [0x1B] RETURN
     0x09E2 [0x45] LOAD_SCHEDULED_TASK: Load scheduler "efon" with entities [LocalPlayer, LocalPlayer], work=[215*, 0*]
     0x09F3 [0x55] WAIT_LOAD_SCHEDULER: Wait for scheduler "efon" with entities [LocalPlayer, LocalPlayer], work=215*
     0x0A02 [0x1B] RETURN
     0x0A03 [0x45] LOAD_SCHEDULED_TASK: Load scheduler "fdis" with entities [LocalPlayer, LocalPlayer], work=[200*, 0*]
     0x0A14 [0x1B] RETURN
     0x0A15 [0x45] LOAD_SCHEDULED_TASK: Load scheduler "fdos" with entities [LocalPlayer, LocalPlayer], work=[200*, 0*]
     0x0A26 [0x55] WAIT_LOAD_SCHEDULER: Wait for scheduler "fdos" with entities [LocalPlayer, LocalPlayer], work=200*
     0x0A35 [0x1B] RETURN
     0x0A36 [0x45] LOAD_SCHEDULED_TASK: Load scheduler "fdif" with entities [LocalPlayer, LocalPlayer], work=[200*, 0*]
     0x0A47 [0x1B] RETURN
     0x0A48 [0x45] LOAD_SCHEDULED_TASK: Load scheduler "fdof" with entities [LocalPlayer, LocalPlayer], work=[200*, 0*]
     0x0A59 [0x55] WAIT_LOAD_SCHEDULER: Wait for scheduler "fdof" with entities [LocalPlayer, LocalPlayer], work=200*
     0x0A68 [0x1B] RETURN
     0x0A69 [0x45] LOAD_SCHEDULED_TASK: Load scheduler "fdip" with entities [LocalPlayer, LocalPlayer], work=[200*, 0*]
     0x0A7A [0x1B] RETURN
     0x0A7B [0x45] LOAD_SCHEDULED_TASK: Load scheduler "fdop" with entities [LocalPlayer, LocalPlayer], work=[200*, 0*]
     0x0A8C [0x55] WAIT_LOAD_SCHEDULER: Wait for scheduler "fdop" with entities [LocalPlayer, LocalPlayer], work=200*
     0x0A9B [0x1B] RETURN
```
