# 17494664 - Rululu CC

## Common Data

| Field            | Value                                |
|------------------|--------------------------------------|
| Zone             | The Eldieme Necropolis [S] (ID: 175) |
| Block Size       | 7852 bytes                           |
| Total Events     | 16                                   |
| References Count | 341                                  |

## List of Events

| Event ID              | Entrypoint   |   Size |   Instructions |
|-----------------------|--------------|--------|----------------|
| [65535](#event-65535) | 0x0000       |      1 |              1 |
| [10](#event-10)       | 0x0001       |      1 |              1 |
| [12](#event-12)       | 0x0002       |      1 |              1 |
| [14](#event-14)       | 0x0003       |      1 |              1 |
| [18](#event-18)       | 0x0004       |      1 |              1 |
| [20](#event-20)       | 0x0005       |      1 |              1 |
| [23](#event-23)       | 0x0006       |      1 |              1 |
| [25](#event-25)       | 0x0007       |      1 |              1 |
| [27](#event-27)       | 0x0008       |      1 |              1 |
| [29](#event-29)       | 0x0009       |      1 |              1 |
| [31](#event-31)       | 0x000A       |      1 |              1 |
| [32](#event-32)       | 0x000B       |      1 |              1 |
| [34](#event-34)       | 0x000C       |      1 |              1 |
| [452](#event-452)     | 0x000D       |     15 |              8 |
| [456](#event-456)     | 0x001C       |      9 |              3 |
| [252](#event-252)     | 0x0025       |   6369 |           1136 |

## DAT References (imed_data)

|   Index | Hex Value   |   Dec Value |
|---------|-------------|-------------|
|       0 | 0x1BA1      |        7073 |
|       1 | 0x0002      |           2 |
|       2 | 0x1F25      |        7973 |
|       3 | 0x003C      |          60 |
|       4 | 0x00C8      |         200 |
|       5 | 0x0000      |           0 |
|       6 | 0x0013      |          19 |
|       7 | 0x0051      |          81 |
|       8 | 0x0145      |         325 |
|       9 | 0x4C1C8     |      311752 |
|      10 | 0xFFFE4A04  |  4294855172 |
|      11 | 0xFFFF8BBF  |  4294937535 |
|      12 | 0x0226      |         550 |
|      13 | 0x4C97E     |      313726 |
|      14 | 0xFFFE3E6D  |  4294852205 |
|      15 | 0xFFFF8C77  |  4294937719 |
|      16 | 0x0B04      |        2820 |
|      17 | 0x4DBA9     |      318377 |
|      18 | 0xFFFE588A  |  4294858890 |
|      19 | 0xFFFF8CC4  |  4294937796 |
|      20 | 0x061D      |        1565 |
|      21 | 0x0052      |          82 |
|      22 | 0xFA18      |       64024 |
|      23 | 0xFFFF829E  |  4294935198 |
|      24 | 0x0214      |         532 |
|      25 | 0x0236      |         566 |
|      26 | 0xF975      |       63861 |
|      27 | 0xFFFF75F4  |  4294931956 |
|      28 | 0x0176      |         374 |
|      29 | 0x0AB0      |        2736 |
|      30 | 0x10AE5     |       68325 |
|      31 | 0xFFFF7E27  |  4294934055 |
|      32 | 0x01B4      |         436 |
|      33 | 0x07C3      |        1987 |
|      34 | 0x0053      |          83 |
|      35 | 0xFFFD0503  |  4294771971 |
|      36 | 0xFFFBBA94  |  4294687380 |
|      37 | 0xFFFF63C0  |  4294927296 |
|      38 | 0x0EE8      |        3816 |
|      39 | 0xFFFD0F95  |  4294774677 |
|      40 | 0xFFFBC167  |  4294689127 |
|      41 | 0x071A      |        1818 |
|      42 | 0xFFFD15E2  |  4294776290 |
|      43 | 0xFFFBAB94  |  4294683540 |
|      44 | 0x0A6D      |        2669 |
|      45 | 0x0054      |          84 |
|      46 | 0x32C85     |      208005 |
|      47 | 0x5A01      |       23041 |
|      48 | 0x223A      |        8762 |
|      49 | 0x05BB      |        1467 |
|      50 | 0x3212A     |      205098 |
|      51 | 0x57CF      |       22479 |
|      52 | 0x228C      |        8844 |
|      53 | 0x0F23      |        3875 |
|      54 | 0x319C6     |      203206 |
|      55 | 0x69E9      |       27113 |
|      56 | 0x2096      |        8342 |
|      57 | 0x01E1      |         481 |
|      58 | 0x00AF      |         175 |
|      59 | 0x5AF7B     |      372603 |
|      60 | 0x4DC8      |       19912 |
|      61 | 0xFFFF63C1  |  4294927297 |
|      62 | 0x0F0E      |        3854 |
|      63 | 0x5B98F     |      375183 |
|      64 | 0x5611      |       22033 |
|      65 | 0x069F      |        1695 |
|      66 | 0x5C489     |      377993 |
|      67 | 0x448C      |       17548 |
|      68 | 0x09A8      |        2472 |
|      69 | 0x0058      |          88 |
|      70 | 0xFFF74400  |  4294394880 |
|      71 | 0xD6D9      |       55001 |
|      72 | 0xA001      |       40961 |
|      73 | 0x06AF      |        1711 |
|      74 | 0xFFF73813  |  4294391827 |
|      75 | 0xD113      |       53523 |
|      76 | 0xA027      |       40999 |
|      77 | 0x0F1D      |        3869 |
|      78 | 0xFFF7520F  |  4294398479 |
|      79 | 0xC165      |       49509 |
|      80 | 0x9F4A      |       40778 |
|      81 | 0x0AA0      |        2720 |
|      82 | 0x0059      |          89 |
|      83 | 0x4CA41     |      313921 |
|      84 | 0x192E2     |      103138 |
|      85 | 0xFFFF46F6  |  4294919926 |
|      86 | 0x0848      |        2120 |
|      87 | 0x4BD76     |      310646 |
|      88 | 0x198F2     |      104690 |
|      89 | 0xFFFF4595  |  4294919573 |
|      90 | 0x00EA      |         234 |
|      91 | 0x4BCCB     |      310475 |
|      92 | 0x1798E     |       96654 |
|      93 | 0xFFFF460F  |  4294919695 |
|      94 | 0x0C07      |        3079 |
|      95 | 0x005A      |          90 |
|      96 | 0x6A9CB     |      436683 |
|      97 | 0x5ED48     |      388424 |
|      98 | 0x6113      |       24851 |
|      99 | 0x07C0      |        1984 |
|     100 | 0x69C73     |      433267 |
|     101 | 0x5E948     |      387400 |
|     102 | 0x5F77      |       24439 |
|     103 | 0x0E97      |        3735 |
|     104 | 0x6972F     |      431919 |
|     105 | 0x601AC     |      393644 |
|     106 | 0x5FD6      |       24534 |
|     107 | 0x0253      |         595 |
|     108 | 0x005B      |          91 |
|     109 | 0x3F3FF     |      259071 |
|     110 | 0x31776     |      202614 |
|     111 | 0x2167      |        8551 |
|     112 | 0x03D8      |         984 |
|     113 | 0x3F84B     |      260171 |
|     114 | 0x3096F     |      199023 |
|     115 | 0x2256      |        8790 |
|     116 | 0x0A12      |        2578 |
|     117 | 0x3E01E     |      253982 |
|     118 | 0x2FEF7     |      196343 |
|     119 | 0x202C      |        8236 |
|     120 | 0x0ECB      |        3787 |
|     121 | 0x00AB      |         171 |
|     122 | 0x3581D     |      219165 |
|     123 | 0xFFFFBBA7  |  4294949799 |
|     124 | 0xFFFF8147  |  4294934855 |
|     125 | 0x0329      |         809 |
|     126 | 0x35886     |      219270 |
|     127 | 0xFFFFB11A  |  4294947098 |
|     128 | 0xFFFF8232  |  4294935090 |
|     129 | 0x0ABA      |        2746 |
|     130 | 0x36BA6     |      224166 |
|     131 | 0xFFFFAF44  |  4294946628 |
|     132 | 0xFFFF81EC  |  4294935020 |
|     133 | 0x0825      |        2085 |
|     134 | 0x005F      |          95 |
|     135 | 0xFFFFD5F0  |  4294956528 |
|     136 | 0x4B8E7     |      309479 |
|     137 | 0xFFFFCDCD  |  4294954445 |
|     138 | 0x07D6      |        2006 |
|     139 | 0xFFFFCA87  |  4294953607 |
|     140 | 0x4B0A0     |      307360 |
|     141 | 0xFFFFCD38  |  4294954296 |
|     142 | 0x0E9B      |        3739 |
|     143 | 0xFFFFC846  |  4294953030 |
|     144 | 0x4CB3F     |      314175 |
|     145 | 0xFFFFCEE8  |  4294954728 |
|     146 | 0x02B5      |         693 |
|     147 | 0x0060      |          96 |
|     148 | 0xFFFE5B9A  |  4294859674 |
|     149 | 0x00CA      |         202 |
|     150 | 0xFFFEC795  |  4294887317 |
|     151 | 0x0F86      |        3974 |
|     152 | 0xFFFE62B9  |  4294861497 |
|     153 | 0x0622      |        1570 |
|     154 | 0xFFFEC7FB  |  4294887419 |
|     155 | 0x04F3      |        1267 |
|     156 | 0xFFFE6774  |  4294862708 |
|     157 | 0xFFFFEC16  |  4294962198 |
|     158 | 0xFFFEC7F1  |  4294887409 |
|     159 | 0x0BB2      |        2994 |
|     160 | 0x0061      |          97 |
|     161 | 0xFFFB716D  |  4294668653 |
|     162 | 0x6912E     |      430382 |
|     163 | 0x4178      |       16760 |
|     164 | 0x0781      |        1921 |
|     165 | 0xFFFB6847  |  4294666311 |
|     166 | 0x6988F     |      432271 |
|     167 | 0x4333      |       17203 |
|     168 | 0x01EC      |         492 |
|     169 | 0xFFFB6A9F  |  4294666911 |
|     170 | 0x67633     |      423475 |
|     171 | 0x4345      |       17221 |
|     172 | 0x0C58      |        3160 |
|     173 | 0x0062      |          98 |
|     174 | 0xFFFF5A78  |  4294924920 |
|     175 | 0x35A85     |      219781 |
|     176 | 0x6183      |       24963 |
|     177 | 0x0034      |          52 |
|     178 | 0xFFFF6301  |  4294927105 |
|     179 | 0x3539F     |      218015 |
|     180 | 0x6104      |       24836 |
|     181 | 0x0A83      |        2691 |
|     182 | 0xFFFF7467  |  4294931559 |
|     183 | 0x36DAD     |      224685 |
|     184 | 0x6054      |       24660 |
|     185 | 0x0730      |        1840 |
|     186 | 0x00A4      |         164 |
|     187 | 0xFFFE6ACE  |  4294863566 |
|     188 | 0x2B6FD     |      177917 |
|     189 | 0xFFFFFFB2  |  4294967218 |
|     190 | 0x0C20      |        3104 |
|     191 | 0xFFFE6C68  |  4294863976 |
|     192 | 0x2C154     |      180564 |
|     193 | 0x053B      |        1339 |
|     194 | 0xFFFE5B24  |  4294859556 |
|     195 | 0x2BD87     |      179591 |
|     196 | 0x005C      |          92 |
|     197 | 0x0001      |           1 |
|     198 | 0x1F26      |        7974 |
|     199 | 0x1F27      |        7975 |
|     200 | 0x000F      |          15 |
|     201 | 0x0010      |          16 |
|     202 | 0x001F      |          31 |
|     203 | 0x0003      |           3 |
|     204 | 0x1F36      |        7990 |
|     205 | 0x0005      |           5 |
|     206 | 0x1F35      |        7989 |
|     207 | 0x1F34      |        7988 |
|     208 | 0x1CBD      |        7357 |
|     209 | 0x1CBE      |        7358 |
|     210 | 0x1CBF      |        7359 |
|     211 | 0x1CBA      |        7354 |
|     212 | 0x1CBB      |        7355 |
|     213 | 0x1CBC      |        7356 |
|     214 | 0x1F28      |        7976 |
|     215 | 0x1F2A      |        7978 |
|     216 | 0x1F2E      |        7982 |
|     217 | 0x1F2B      |        7979 |
|     218 | 0x0004      |           4 |
|     219 | 0x1F2C      |        7980 |
|     220 | 0x1F2F      |        7983 |
|     221 | 0x1F2D      |        7981 |
|     222 | 0x0006      |           6 |
|     223 | 0x1F31      |        7985 |
|     224 | 0x0007      |           7 |
|     225 | 0x0008      |           8 |
|     226 | 0x0009      |           9 |
|     227 | 0x000A      |          10 |
|     228 | 0x1F32      |        7986 |
|     229 | 0x000B      |          11 |
|     230 | 0x000C      |          12 |
|     231 | 0x000D      |          13 |
|     232 | 0x1F30      |        7984 |
|     233 | 0x0011      |          17 |
|     234 | 0x0012      |          18 |
|     235 | 0x000E      |          14 |
|     236 | 0x1F33      |        7987 |
|     237 | 0x0014      |          20 |
|     238 | 0x0015      |          21 |
|     239 | 0x0016      |          22 |
|     240 | 0x1F29      |        7977 |
|     241 | 0x1BAE      |        7086 |
|     242 | 0x1BAF      |        7087 |
|     243 | 0x1BB0      |        7088 |
|     244 | 0x1BB1      |        7089 |
|     245 | 0x7E9C3925  |  2124167461 |
|     246 | 0x41808A    |     4292746 |
|     247 | 0x1224650   |    19023440 |
|     248 | 0x1BB2      |        7090 |
|     249 | 0x1BB8      |        7096 |
|     250 | 0x1BE0      |        7136 |
|     251 | 0x006F      |         111 |
|     252 | 0x1BB5      |        7093 |
|     253 | 0x1BB7      |        7095 |
|     254 | 0x01E3      |         483 |
|     255 | 0x0104      |         260 |
|     256 | 0x0020      |          32 |
|     257 | 0x0019      |          25 |
|     258 | 0x001B      |          27 |
|     259 | 0x001C      |          28 |
|     260 | 0x001D      |          29 |
|     261 | 0x001E      |          30 |
|     262 | 0xFFFFFFFF  |  4294967295 |
|     263 | 0x1BD5      |        7125 |
|     264 | 0x002D      |          45 |
|     265 | 0x1BD6      |        7126 |
|     266 | 0x1017      |        4119 |
|     267 | 0x1027      |        4135 |
|     268 | 0x1056      |        4182 |
|     269 | 0x1072      |        4210 |
|     270 | 0x1509      |        5385 |
|     271 | 0x150B      |        5387 |
|     272 | 0x150D      |        5389 |
|     273 | 0x150A      |        5386 |
|     274 | 0x150C      |        5388 |
|     275 | 0x1515      |        5397 |
|     276 | 0x1512      |        5394 |
|     277 | 0x1514      |        5396 |
|     278 | 0x147E      |        5246 |
|     279 | 0x152B      |        5419 |
|     280 | 0x152E      |        5422 |
|     281 | 0x152C      |        5420 |
|     282 | 0x152D      |        5421 |
|     283 | 0x101B      |        4123 |
|     284 | 0x102B      |        4139 |
|     285 | 0x106E      |        4206 |
|     286 | 0x150F      |        5391 |
|     287 | 0x1511      |        5393 |
|     288 | 0x1510      |        5392 |
|     289 | 0x1031      |        4145 |
|     290 | 0x106A      |        4202 |
|     291 | 0x1033      |        4147 |
|     292 | 0x1068      |        4200 |
|     293 | 0x153A      |        5434 |
|     294 | 0x1513      |        5395 |
|     295 | 0x153B      |        5435 |
|     296 | 0x153F      |        5439 |
|     297 | 0x1BD7      |        7127 |
|     298 | 0x1BD8      |        7128 |
|     299 | 0x1BD9      |        7129 |
|     300 | 0x0017      |          23 |
|     301 | 0x0018      |          24 |
|     302 | 0x1BE7      |        7143 |
|     303 | 0x006D      |         109 |
|     304 | 0x1DA2      |        7586 |
|     305 | 0x1DA3      |        7587 |
|     306 | 0x1BE8      |        7144 |
|     307 | 0x006A      |         106 |
|     308 | 0x0032      |          50 |
|     309 | 0x111110    |     1118480 |
|     310 | 0x1DA9      |        7593 |
|     311 | 0x1DA5      |        7589 |
|     312 | 0x0065      |         101 |
|     313 | 0x0066      |         102 |
|     314 | 0x0067      |         103 |
|     315 | 0x0068      |         104 |
|     316 | 0x0069      |         105 |
|     317 | 0x1BC7      |        7111 |
|     318 | 0x1BA9      |        7081 |
|     319 | 0x1BC8      |        7112 |
|     320 | 0x1BC9      |        7113 |
|     321 | 0x010A      |         266 |
|     322 | 0x1BB3      |        7091 |
|     323 | 0x1BB9      |        7097 |
|     324 | 0x1BBA      |        7098 |
|     325 | 0x1BBB      |        7099 |
|     326 | 0x1BBC      |        7100 |
|     327 | 0x1BBD      |        7101 |
|     328 | 0x1BC6      |        7110 |
|     329 | 0x1BBE      |        7102 |
|     330 | 0x1BBF      |        7103 |
|     331 | 0x1BC0      |        7104 |
|     332 | 0x1BC1      |        7105 |
|     333 | 0x1BC2      |        7106 |
|     334 | 0x1BC3      |        7107 |
|     335 | 0x1BC4      |        7108 |
|     336 | 0x1BE1      |        7137 |
|     337 | 0x1BE2      |        7138 |
|     338 | 0x1BE3      |        7139 |
|     339 | 0x1BE4      |        7140 |
|     340 | 0x1BE5      |        7141 |

## String References

- **7073**: What are you doing here? This is no place for civilians.
- **7081**: I am sorry. You do not have enough Allied Notes.
- **7086**: Greetings. I am % of the San d'Orian Provincial Knights.
- **7087**: Greetings. I am % of the Bastokan Legion.
- **7088**: Greetings. I am % of the Federation of Windurst.
- **7089**: Greetings. I am %, Campaign Arbiter for the Allied Forces.
- **7090**: What can I help you with? [Nothing./Performance assessment./New Allied Tags./Temporary items./Union registration./Teleportation./Information on the Allied Campaign.]
- **7091**: What would you like to know? [Nothing. I'm sorry./About performance assessment./About Allied Tags./About temporary items./About Unions.]
- **7093**: Understood. I shall now judge your performance and award the proper remuneration.
- **7095**: Understood. I shall prepare a new set of tags for you now.
- **7096**: You've already undergone an evaluation for this battle, or had you forgotten? As much as I'd like to, I'm forbidden from providing you with a new set of Allied Taegs until the next battle begins.
- **7097**: Anyone wearing Allied Tags while participating in a campaign battle will be judged on their overall performance.
- **7098**: Soldiers will be evaluated not only on their fighting skills, but also on how much they contribute to the efforts of their allies through means such as healing and enhancing.
- **7099**: However, beware that if you leave the area before being assessed, you will be deemed a deserter and will forfeit all rewards earned that day.
- **7100**: Also, while there are no immediate penalties for being knocked out, falling in battle will significantly lower the score given to you.
- **7101**: When you are ready to receive compensation for your work on the field, return to me and I shall assess your performance and provide you with your payment.
- **7102**: Allied Tags are a special type of identification given to all participants of Allied Campaign battles.
- **7103**: There are benefits, as well as drawbacks, to wearing the tags. One of the benefits is that in the case you are knocked out on the battlefield, you will not lose any experience points.
- **7104**: However, some of the drawbacks include the inability to improve skills and earn experience points for individual kills, as well as the right to loot fallen enemies.
- **7105**: Temporary items can be purchased in exchange for Allied Notes.
- **7106**: There are several different varieties of items, but they all have one thing in common--they can only be used on the battlefield they were issued.
- **7107**: It is highly recommended that you first survey a battle's conditions and then select the supplies that you believe will benefit you most.
- **7108**: Please remember that all temporary items you carry on your person will be confiscated in the event that you leave the area.
- **7110**: That is all.
- **7111**: I will require a teleportation fee of $0 Allied Note[/s]. I see you currently possess $2.
- **7112**: Complete transaction and return to capital? [Yes./No.]
- **7113**: Understood. Good work today, <Player>.
- **7125**: Let me show you the list of items currently available to you.
- **7126**: Select a category: [Quit./$0-Note Items./$1-Note Items./$2-Note Items.]
- **7127**: Which item would you like to see? [Quit./$0/$1/$2/$3/$4/$5/$6/$7/$8/$9/$10/$11/$12/$13/$14/$15/$16]
- **7128**: You currently possess $' Allied Note[/s].
- **7129**: Proceed with the transaction? [Yes./No.]
- **7136**: I am sorry, <Player>, but your campaign medal has expired. I cannot issue tags to anyone not authorized by the Allied Forces. Return to your nation's capital and speak with a Campaign Evaluation Official.
- **7137**: Oh ho! Keen to join a Union, are we? Very well. Listen up and I shall tell you all you need to know.
- **7138**: In order to better coordinate Allied efforts against the beastman menace, we have instituted a system of ad hoc tactical regiments called "Unions." With five units to a battlefield, union registration is open to any proven soldier in possession of Allied Tags.
- **7139**: In return for their aid in advancing the war effort, union registrants will be eligible to earn a share of the spoils of war.
- **7140**: Needless to say, the choicest rewards will be reserved for those unions which make the greatest contributions in combat. Prove your mettle on the field of battle, and you will earn glory for your union, as well as a sizable bounty of your own.
- **7141**: Be forewarned that your commitment to your union comes first and foremost. In the aftermath of battle, you will not be permitted to reap rewards from your individual exploits until your union has distributed its plunder.
- **7143**: Register for a union? [Yes./No.]
- **7144**: [Transfer/Resign] from your current union? [Yes./No.]
- **7354**: Good show on your last operation. Now go make an official report to Sir Rasdinice.
- **7355**: Good work on that last operation. Now report back to First Centurion Hieronymus before he has your hide!
- **7356**: Nice job on your last operation. Now don't forget to report back to Emhi Tchaoryo!
- **7357**: It seems that you were not successful in your last operation. But do not let one small failure hang heavy on your soul. Report to Sir Rasdinice and put this all behind you.
- **7358**: Weren't so lucky during that last operation, were you? Well, don't worry about it too much. Report to First Centurion Hieronymus and get some rest, soldier.
- **7359**: Hmmm... Didn't do so well on that last operation, did you? I know it's hard, but it's better if you're up-front about these things. If you know what's good for you, you'll hurry down and report to Emhi Tchaoryo before the major finds out first.
- **7586**: What will you do? [Nothing./Transfer to another union./Resign union membership.]
- **7587**: Your steadfast efforts have earned you a claim to share in your union's spoils of war. By [transferring to another union/resigning from your union], you will relinquish this right. It is not my place to question your decision, but I suggest you pay the matter due heed.
- **7589**: Register for which union? [None./Adder Union ($0 [member/members])./Bison Union ($1 [member/members])./Coyote Union ($2 [member/members])./Dhole Union ($3 [member/members])./Eland Union ($4 [member/members]).]
- **7593**: I am afraid that all unions are currently at their maximum enrollment, and unable to accept new recruits. For better or for worse, though, I suspect it shall not be long before we are in need of some new blood. Such is the nature of war...
- **7973**: Ahhh, so you're military tactician who who drew up the plans for this latest supply mission. Why don't we ask one of the men how its going, shall we?

## Events

### Event 65535

#### Metadata

| Field        | Value   |
|--------------|---------|
| Entrypoint   | 0x0000  |
| Data Size    | 1 bytes |
| Instructions | 1       |

```
      00 01 02 03 04 05 06 07  08 09 0A 0B 0C 0D 0E 0F
      -- -- -- -- -- -- -- --  -- -- -- -- -- -- -- --
0000: 00                                                .               
```

#### Opcodes

```
  0: 0x0000 [0x00] END_REQSTACK()
```

### Event 10

#### Metadata

| Field        | Value   |
|--------------|---------|
| Entrypoint   | 0x0001  |
| Data Size    | 1 bytes |
| Instructions | 1       |

```
      00 01 02 03 04 05 06 07  08 09 0A 0B 0C 0D 0E 0F
      -- -- -- -- -- -- -- --  -- -- -- -- -- -- -- --
0000:    00                                              .              
```

#### Opcodes

```
  0: 0x0001 [0x00] END_REQSTACK()
```

### Event 12

#### Metadata

| Field        | Value   |
|--------------|---------|
| Entrypoint   | 0x0002  |
| Data Size    | 1 bytes |
| Instructions | 1       |

```
      00 01 02 03 04 05 06 07  08 09 0A 0B 0C 0D 0E 0F
      -- -- -- -- -- -- -- --  -- -- -- -- -- -- -- --
0000:       00                                            .             
```

#### Opcodes

```
  0: 0x0002 [0x00] END_REQSTACK()
```

### Event 14

#### Metadata

| Field        | Value   |
|--------------|---------|
| Entrypoint   | 0x0003  |
| Data Size    | 1 bytes |
| Instructions | 1       |

```
      00 01 02 03 04 05 06 07  08 09 0A 0B 0C 0D 0E 0F
      -- -- -- -- -- -- -- --  -- -- -- -- -- -- -- --
0000:          00                                          .            
```

#### Opcodes

```
  0: 0x0003 [0x00] END_REQSTACK()
```

### Event 18

#### Metadata

| Field        | Value   |
|--------------|---------|
| Entrypoint   | 0x0004  |
| Data Size    | 1 bytes |
| Instructions | 1       |

```
      00 01 02 03 04 05 06 07  08 09 0A 0B 0C 0D 0E 0F
      -- -- -- -- -- -- -- --  -- -- -- -- -- -- -- --
0000:             00                                        .           
```

#### Opcodes

```
  0: 0x0004 [0x00] END_REQSTACK()
```

### Event 20

#### Metadata

| Field        | Value   |
|--------------|---------|
| Entrypoint   | 0x0005  |
| Data Size    | 1 bytes |
| Instructions | 1       |

```
      00 01 02 03 04 05 06 07  08 09 0A 0B 0C 0D 0E 0F
      -- -- -- -- -- -- -- --  -- -- -- -- -- -- -- --
0000:                00                                      .          
```

#### Opcodes

```
  0: 0x0005 [0x00] END_REQSTACK()
```

### Event 23

#### Metadata

| Field        | Value   |
|--------------|---------|
| Entrypoint   | 0x0006  |
| Data Size    | 1 bytes |
| Instructions | 1       |

```
      00 01 02 03 04 05 06 07  08 09 0A 0B 0C 0D 0E 0F
      -- -- -- -- -- -- -- --  -- -- -- -- -- -- -- --
0000:                   00                                    .         
```

#### Opcodes

```
  0: 0x0006 [0x00] END_REQSTACK()
```

### Event 25

#### Metadata

| Field        | Value   |
|--------------|---------|
| Entrypoint   | 0x0007  |
| Data Size    | 1 bytes |
| Instructions | 1       |

```
      00 01 02 03 04 05 06 07  08 09 0A 0B 0C 0D 0E 0F
      -- -- -- -- -- -- -- --  -- -- -- -- -- -- -- --
0000:                      00                                  .        
```

#### Opcodes

```
  0: 0x0007 [0x00] END_REQSTACK()
```

### Event 27

#### Metadata

| Field        | Value   |
|--------------|---------|
| Entrypoint   | 0x0008  |
| Data Size    | 1 bytes |
| Instructions | 1       |

```
      00 01 02 03 04 05 06 07  08 09 0A 0B 0C 0D 0E 0F
      -- -- -- -- -- -- -- --  -- -- -- -- -- -- -- --
0000:                          00                               .       
```

#### Opcodes

```
  0: 0x0008 [0x00] END_REQSTACK()
```

### Event 29

#### Metadata

| Field        | Value   |
|--------------|---------|
| Entrypoint   | 0x0009  |
| Data Size    | 1 bytes |
| Instructions | 1       |

```
      00 01 02 03 04 05 06 07  08 09 0A 0B 0C 0D 0E 0F
      -- -- -- -- -- -- -- --  -- -- -- -- -- -- -- --
0000:                             00                             .      
```

#### Opcodes

```
  0: 0x0009 [0x00] END_REQSTACK()
```

### Event 31

#### Metadata

| Field        | Value   |
|--------------|---------|
| Entrypoint   | 0x000A  |
| Data Size    | 1 bytes |
| Instructions | 1       |

```
      00 01 02 03 04 05 06 07  08 09 0A 0B 0C 0D 0E 0F
      -- -- -- -- -- -- -- --  -- -- -- -- -- -- -- --
0000:                                00                           .     
```

#### Opcodes

```
  0: 0x000A [0x00] END_REQSTACK()
```

### Event 32

#### Metadata

| Field        | Value   |
|--------------|---------|
| Entrypoint   | 0x000B  |
| Data Size    | 1 bytes |
| Instructions | 1       |

```
      00 01 02 03 04 05 06 07  08 09 0A 0B 0C 0D 0E 0F
      -- -- -- -- -- -- -- --  -- -- -- -- -- -- -- --
0000:                                   00                         .    
```

#### Opcodes

```
  0: 0x000B [0x00] END_REQSTACK()
```

### Event 34

#### Metadata

| Field        | Value   |
|--------------|---------|
| Entrypoint   | 0x000C  |
| Data Size    | 1 bytes |
| Instructions | 1       |

```
      00 01 02 03 04 05 06 07  08 09 0A 0B 0C 0D 0E 0F
      -- -- -- -- -- -- -- --  -- -- -- -- -- -- -- --
0000:                                      00                       .   
```

#### Opcodes

```
  0: 0x000C [0x00] END_REQSTACK()
```

### Event 452

#### Metadata

| Field        | Value    |
|--------------|----------|
| Entrypoint   | 0x000D   |
| Data Size    | 15 bytes |
| Instructions | 8        |

```
      00 01 02 03 04 05 06 07  08 09 0A 0B 0C 0D 0E 0F
      -- -- -- -- -- -- -- --  -- -- -- -- -- -- -- --
0000:                                         20 01 1E                ..
0010: F0 FF FF 7F 6F 70 1D 00  80 23 21 00              ....op...#!.    
```

#### Opcodes

```
  0: 0x000D [0x20] SET_CLI_EVENT_UC_FLAG: Lock player control
  1: 0x000F [0x1E] EventEntity looks at LocalPlayer and starts talking
  2: 0x0014 [0x6F] WAIT_FRAME_DELAY: Yield until WaitTime reaches zero
  3: 0x0015 [0x70] WAIT_ENTITY_RENDER_FLAG: Wait while EventEntity->Render.Flags3 bit 2 is set (cancel turn if not)
  4: 0x0016 [0x1D] PRINT_EVENT_MESSAGE(message_id=7073*)
    → "What are you doing here? This is no place for civilians."
  5: 0x0019 [0x23] WAIT_FOR_DIALOG_INTERACTION
  6: 0x001A [0x21] END_EVENT
  7: 0x001B [0x00] END_REQSTACK()
```

### Event 456

#### Metadata

| Field        | Value   |
|--------------|---------|
| Entrypoint   | 0x001C  |
| Data Size    | 9 bytes |
| Instructions | 3       |

```
      00 01 02 03 04 05 06 07  08 09 0A 0B 0C 0D 0E 0F
      -- -- -- -- -- -- -- --  -- -- -- -- -- -- -- --
0010:                                      03 0E 00 01              ....
0020: 80 1A E5 08 00                                    .....           
```

#### Opcodes

```
  0: 0x001C [0x03] ExtData[1]->WorkLocal[14] = 2*
  1: 0x0021 [0x1A] CALL_SUBROUTINE(address=0x08E5)
  2: 0x0024 [0x00] END_REQSTACK()
```

### Event 252

#### Metadata

| Field        | Value      |
|--------------|------------|
| Entrypoint   | 0x0025     |
| Data Size    | 6369 bytes |
| Instructions | 342        |

```
      00 01 02 03 04 05 06 07  08 09 0A 0B 0C 0D 0E 0F
      -- -- -- -- -- -- -- --  -- -- -- -- -- -- -- --
0020:                03 00 00  01 80 20 01 42 1E F0 FF       ..... .B...
0030: FF 7F 6F 70 03 03 00 03  10 03 04 00 04 10 03 05  ..op............
0040: 00 05 10 03 0C 00 09 10  1D 02 80 23 1C 03 80 45  ...........#...E
0050: 04 80 F0 FF FF 7F F0 FF  FF 7F 66 64 6F 31 05 80  ..........fdo1..
0060: 55 04 80 F0 FF FF 7F F0  FF FF 7F 66 64 6F 31 46  U..........fdo1F
0070: 01 38 06 80 4E 00 F8 FF  FF 7F 92 01 F0 FF FF 7F  .8..N...........
0080: 92 01 F8 FF FF 7F 92 01  F6 F2 0A 01 02 0C 00 07  ................
0090: 80 80 CF 00 45 08 80 F0  FF FF 7F F0 FF FF 7F 7A  ....E..........z
00A0: 38 31 62 05 80 BA F8 FF  FF 7F 09 80 0A 80 0B 80  81b.............
00B0: 0C 80 BA F0 FF FF 7F 0D  80 0E 80 0F 80 10 80 BA  ................
00C0: F6 F2 0A 01 11 80 12 80  13 80 14 80 01 79 04 02  .............y..
00D0: 0C 00 15 80 80 12 01 45  08 80 F0 FF FF 7F F0 FF  .......E........
00E0: FF 7F 7A 38 32 62 05 80  BA F8 FF FF 7F 16 80 17  ..z82b..........
00F0: 80 18 80 19 80 BA F0 FF  FF 7F 1A 80 1B 80 1C 80  ................
0100: 1D 80 BA F6 F2 0A 01 1E  80 1F 80 20 80 21 80 01  ........... .!..
0110: 79 04 02 0C 00 22 80 80  55 01 45 08 80 F0 FF FF  y...."..U.E.....
0120: 7F F0 FF FF 7F 7A 38 33  62 05 80 BA F8 FF FF 7F  .....z83b.......
0130: 23 80 24 80 25 80 26 80  BA F0 FF FF 7F 27 80 28  #.$.%.&......'.(
0140: 80 25 80 29 80 BA F6 F2  0A 01 2A 80 2B 80 25 80  .%.)......*.+.%.
0150: 2C 80 01 79 04 02 0C 00  2D 80 80 98 01 45 08 80  ,..y....-....E..
0160: F0 FF FF 7F F0 FF FF 7F  7A 38 34 62 05 80 BA F8  ........z84b....
0170: FF FF 7F 2E 80 2F 80 30  80 31 80 BA F0 FF FF 7F  ...../.0.1......
0180: 32 80 33 80 34 80 35 80  BA F6 F2 0A 01 36 80 37  2.3.4.5......6.7
0190: 80 38 80 39 80 01 79 04  02 0C 00 3A 80 80 DB 01  .8.9..y....:....
01A0: 45 08 80 F0 FF FF 7F F0  FF FF 7F 31 37 35 61 05  E..........175a.
01B0: 80 BA F8 FF FF 7F 3B 80  3C 80 3D 80 3E 80 BA F0  ......;.<.=.>...
01C0: FF FF 7F 3F 80 40 80 3D  80 41 80 BA F6 F2 0A 01  ...?.@.=.A......
01D0: 42 80 43 80 3D 80 44 80  01 79 04 02 0C 00 45 80  B.C.=.D..y....E.
01E0: 80 1E 02 45 08 80 F0 FF  FF 7F F0 FF FF 7F 7A 38  ...E..........z8
01F0: 38 62 05 80 BA F8 FF FF  7F 46 80 47 80 48 80 49  8b.......F.G.H.I
0200: 80 BA F0 FF FF 7F 4A 80  4B 80 4C 80 4D 80 BA F6  ......J.K.L.M...
0210: F2 0A 01 4E 80 4F 80 50  80 51 80 01 79 04 02 0C  ...N.O.P.Q..y...
0220: 00 52 80 80 61 02 45 08  80 F0 FF FF 7F F0 FF FF  .R..a.E.........
0230: 7F 7A 38 39 62 05 80 BA  F8 FF FF 7F 53 80 54 80  .z89b.......S.T.
0240: 55 80 56 80 BA F0 FF FF  7F 57 80 58 80 59 80 5A  U.V......W.X.Y.Z
0250: 80 BA F6 F2 0A 01 5B 80  5C 80 5D 80 5E 80 01 79  ......[.\.].^..y
0260: 04 02 0C 00 5F 80 80 A4  02 45 08 80 F0 FF FF 7F  ...._....E......
0270: F0 FF FF 7F 7A 39 30 62  05 80 BA F8 FF FF 7F 60  ....z90b.......`
0280: 80 61 80 62 80 63 80 BA  F0 FF FF 7F 64 80 65 80  .a.b.c......d.e.
0290: 66 80 67 80 BA F6 F2 0A  01 68 80 69 80 6A 80 6B  f.g......h.i.j.k
02A0: 80 01 79 04 02 0C 00 6C  80 80 E7 02 45 08 80 F0  ..y....l....E...
02B0: FF FF 7F F0 FF FF 7F 7A  39 31 62 05 80 BA F8 FF  .......z91b.....
02C0: FF 7F 6D 80 6E 80 6F 80  70 80 BA F0 FF FF 7F 71  ..m.n.o.p......q
02D0: 80 72 80 73 80 74 80 BA  F6 F2 0A 01 75 80 76 80  .r.s.t......u.v.
02E0: 77 80 78 80 01 79 04 02  0C 00 79 80 80 2A 03 45  w.x..y....y..*.E
02F0: 08 80 F0 FF FF 7F F0 FF  FF 7F 31 37 31 61 05 80  ..........171a..
0300: BA F8 FF FF 7F 7A 80 7B  80 7C 80 7D 80 BA F0 FF  .....z.{.|.}....
0310: FF 7F 7E 80 7F 80 80 80  81 80 BA F6 F2 0A 01 82  ..~.............
0320: 80 83 80 84 80 85 80 01  79 04 02 0C 00 86 80 80  ........y.......
0330: 6D 03 45 08 80 F0 FF FF  7F F0 FF FF 7F 7A 39 35  m.E..........z95
0340: 62 05 80 BA F8 FF FF 7F  87 80 88 80 89 80 8A 80  b...............
0350: BA F0 FF FF 7F 8B 80 8C  80 8D 80 8E 80 BA F6 F2  ................
0360: 0A 01 8F 80 90 80 91 80  92 80 01 79 04 02 0C 00  ...........y....
0370: 93 80 80 B0 03 45 08 80  F0 FF FF 7F F0 FF FF 7F  .....E..........
0380: 7A 39 36 62 05 80 BA F8  FF FF 7F 94 80 95 80 96  z96b............
0390: 80 97 80 BA F0 FF FF 7F  98 80 99 80 9A 80 9B 80  ................
03A0: BA F6 F2 0A 01 9C 80 9D  80 9E 80 9F 80 01 79 04  ..............y.
03B0: 02 0C 00 A0 80 80 F3 03  45 08 80 F0 FF FF 7F F0  ........E.......
03C0: FF FF 7F 7A 39 37 62 05  80 BA F8 FF FF 7F A1 80  ...z97b.........
03D0: A2 80 A3 80 A4 80 BA F0  FF FF 7F A5 80 A6 80 A7  ................
03E0: 80 A8 80 BA F6 F2 0A 01  A9 80 AA 80 AB 80 AC 80  ................
03F0: 01 79 04 02 0C 00 AD 80  80 36 04 45 08 80 F0 FF  .y.......6.E....
0400: FF 7F F0 FF FF 7F 7A 39  38 62 05 80 BA F8 FF FF  ......z98b......
0410: 7F AE 80 AF 80 B0 80 B1  80 BA F0 FF FF 7F B2 80  ................
0420: B3 80 B4 80 B5 80 BA F6  F2 0A 01 B6 80 B7 80 B8  ................
0430: 80 B9 80 01 79 04 02 0C  00 BA 80 80 79 04 45 08  ....y.......y.E.
0440: 80 F0 FF FF 7F F0 FF FF  7F 31 36 34 61 05 80 BA  .........164a...
0450: F8 FF FF 7F BB 80 BC 80  BD 80 BE 80 BA F0 FF FF  ................
0460: 7F BF 80 C0 80 BD 80 C1  80 BA F6 F2 0A 01 C2 80  ................
0470: C3 80 BD 80 C4 80 01 79  04 94 01 F0 FF FF 7F 94  .......y........
0480: 01 F8 FF FF 7F 94 01 F6  F2 0A 01 80 F0 FF FF 7F  ................
0490: 80 F8 FF FF 7F 80 F6 F2  0A 01 1C C5 80 1E F0 FF  ................
04A0: FF 7F 4A F0 FF FF 7F F8  FF FF 7F 45 04 80 F0 FF  ..J........E....
04B0: FF 7F F0 FF FF 7F 66 64  69 31 05 80 55 04 80 F0  ......fdi1..U...
04C0: FF FF 7F F0 FF FF 7F 66  64 69 31 1E F6 F2 0A 01  .......fdi1.....
04D0: 4A F0 FF FF 7F F6 F2 0A  01 29 10 F6 F2 0A 01 04  J........)......
04E0: 2B F6 F2 0A 01 C6 80 23  2B F6 F2 0A 01 C7 80 23  +......#+......#
04F0: 41 05 80 C8 80 03 00 01  00 41 C9 80 CA 80 03 00  A........A......
0500: 02 00 02 01 00 05 80 01  0D 05 1A 3E 06 02 02 00  ...........>....
0510: 05 80 01 32 05 41 05 80  C8 80 04 00 01 00 41 C9  ...2.A........A.
0520: 80 CA 80 04 00 02 00 02  01 00 05 80 01 32 05 1A  .............2..
0530: 3E 06 02 02 00 05 80 01  57 05 41 05 80 C8 80 05  >.......W.A.....
0540: 00 01 00 41 C9 80 CA 80  05 00 02 00 02 01 00 05  ...A............
0550: 80 01 57 05 1A 3E 06 02  02 00 05 80 01 8D 05 02  ..W..>..........
0560: 02 00 CB 80 03 72 05 2B  F6 F2 0A 01 CC 80 23 01  .....r.+......#.
0570: 8D 05 02 02 00 CD 80 03  85 05 2B F6 F2 0A 01 CE  ..........+.....
0580: 80 23 01 8D 05 2B F6 F2  0A 01 CF 80 23 1E F0 FF  .#...+......#...
0590: FF 7F 6F 70 02 02 00 05  80 00 CC 05 02 00 00 05  ..op............
05A0: 80 80 AB 05 1D D0 80 23  01 C9 05 02 00 00 C5 80  .......#........
05B0: 80 BA 05 1D D1 80 23 01  C9 05 02 00 00 01 80 80  ......#.........
05C0: C9 05 1D D2 80 23 01 C9  05 01 F9 05 02 00 00 05  .....#..........
05D0: 80 80 DB 05 1D D3 80 23  01 F9 05 02 00 00 C5 80  .......#........
05E0: 80 EA 05 1D D4 80 23 01  F9 05 02 00 00 01 80 80  ......#.........
05F0: F9 05 1D D5 80 23 01 F9  05 45 04 80 F0 FF FF 7F  .....#...E......
0600: F0 FF FF 7F 66 64 6F 31  05 80 55 04 80 F0 FF FF  ....fdo1..U.....
0610: 7F F0 FF FF 7F 66 64 6F  31 4E 01 F6 F2 0A 01 1C  .....fdo1N......
0620: C8 80 46 00 45 04 80 F0  FF FF 7F F0 FF FF 7F 66  ..F.E..........f
0630: 64 69 32 05 80 03 01 10  05 80 20 00 21 00 02 01  di2....... .!...
0640: 00 C5 80 80 51 06 2B F6  F2 0A 01 D6 80 23 01 E4  ....Q.+......#..
0650: 08 02 01 00 01 80 80 71  06 03 02 10 05 80 2B F6  .......q......+.
0660: F2 0A 01 D7 80 23 2B F6  F2 0A 01 D8 80 23 01 E4  .....#+......#..
0670: 08 02 01 00 CB 80 80 91  06 03 02 10 05 80 2B F6  ..............+.
0680: F2 0A 01 D9 80 23 2B F6  F2 0A 01 D8 80 23 01 E4  .....#+......#..
0690: 08 02 01 00 DA 80 80 B1  06 03 02 10 05 80 2B F6  ..............+.
06A0: F2 0A 01 DB 80 23 2B F6  F2 0A 01 DC 80 23 01 E4  .....#+......#..
06B0: 08 02 01 00 CD 80 80 D1  06 03 02 10 05 80 2B F6  ..............+.
06C0: F2 0A 01 DD 80 23 2B F6  F2 0A 01 D8 80 23 01 E4  .....#+......#..
06D0: 08 02 01 00 DE 80 80 F1  06 03 02 10 C5 80 2B F6  ..............+.
06E0: F2 0A 01 D7 80 23 2B F6  F2 0A 01 DF 80 23 01 E4  .....#+......#..
06F0: 08 02 01 00 E0 80 80 11  07 03 02 10 C5 80 2B F6  ..............+.
0700: F2 0A 01 D9 80 23 2B F6  F2 0A 01 DF 80 23 01 E4  .....#+......#..
0710: 08 02 01 00 E1 80 80 31  07 03 02 10 C5 80 2B F6  .......1......+.
0720: F2 0A 01 DB 80 23 2B F6  F2 0A 01 DF 80 23 01 E4  .....#+......#..
0730: 08 02 01 00 E2 80 80 51  07 03 02 10 C5 80 2B F6  .......Q......+.
0740: F2 0A 01 DD 80 23 2B F6  F2 0A 01 DF 80 23 01 E4  .....#+......#..
0750: 08 02 01 00 E3 80 80 71  07 03 02 10 C5 80 2B F6  .......q......+.
0760: F2 0A 01 D7 80 23 2B F6  F2 0A 01 E4 80 23 01 E4  .....#+......#..
0770: 08 02 01 00 E5 80 80 91  07 03 02 10 C5 80 2B F6  ..............+.
0780: F2 0A 01 D9 80 23 2B F6  F2 0A 01 E4 80 23 01 E4  .....#+......#..
0790: 08 02 01 00 E6 80 80 B1  07 03 02 10 C5 80 2B F6  ..............+.
07A0: F2 0A 01 DB 80 23 2B F6  F2 0A 01 E4 80 23 01 E4  .....#+......#..
07B0: 08 02 01 00 E7 80 80 D1  07 03 02 10 C5 80 2B F6  ..............+.
07C0: F2 0A 01 DD 80 23 2B F6  F2 0A 01 E4 80 23 01 E4  .....#+......#..
07D0: 08 02 01 00 C9 80 80 F1  07 03 02 10 05 80 2B F6  ..............+.
07E0: F2 0A 01 D7 80 23 2B F6  F2 0A 01 E8 80 23 01 E4  .....#+......#..
07F0: 08 02 01 00 E9 80 80 11  08 03 02 10 05 80 2B F6  ..............+.
0800: F2 0A 01 D9 80 23 2B F6  F2 0A 01 E8 80 23 01 E4  .....#+......#..
0810: 08 02 01 00 EA 80 80 31  08 03 02 10 05 80 2B F6  .......1......+.
0820: F2 0A 01 DB 80 23 2B F6  F2 0A 01 E8 80 23 01 E4  .....#+......#..
0830: 08 02 01 00 EB 80 80 51  08 03 02 10 05 80 2B F6  .......Q......+.
0840: F2 0A 01 DD 80 23 2B F6  F2 0A 01 E8 80 23 01 E4  .....#+......#..
0850: 08 02 01 00 06 80 80 71  08 03 02 10 C5 80 2B F6  .......q......+.
0860: F2 0A 01 D7 80 23 2B F6  F2 0A 01 EC 80 23 01 E4  .....#+......#..
0870: 08 02 01 00 ED 80 80 91  08 03 02 10 C5 80 2B F6  ..............+.
0880: F2 0A 01 D9 80 23 2B F6  F2 0A 01 EC 80 23 01 E4  .....#+......#..
0890: 08 02 01 00 EE 80 80 B1  08 03 02 10 C5 80 2B F6  ..............+.
08A0: F2 0A 01 DB 80 23 2B F6  F2 0A 01 EC 80 23 01 E4  .....#+......#..
08B0: 08 02 01 00 C8 80 80 D1  08 03 02 10 C5 80 2B F6  ..............+.
08C0: F2 0A 01 DD 80 23 2B F6  F2 0A 01 EC 80 23 01 E4  .....#+......#..
08D0: 08 02 01 00 EF 80 80 E4  08 2B F6 F2 0A 01 F0 80  .........+......
08E0: 23 01 E4 08 1B 03 16 00  04 10 20 01 1E F0 FF FF  #......... .....
08F0: 7F 6F 70 02 0E 00 05 80  80 05 09 1D F1 80 23 01  .op...........#.
0900: 3B 09 01 3B 09 02 0E 00  C5 80 80 17 09 1D F2 80  ;..;............
0910: 23 01 3B 09 01 3B 09 02  0E 00 01 80 80 29 09 1D  #.;..;.......)..
0920: F3 80 23 01 3B 09 01 3B  09 02 0E 00 DA 80 80 3B  ..#.;..;.......;
0930: 09 1D F4 80 23 01 3B 09  01 3B 09 03 0F 00 05 80  ....#.;..;......
0940: 3E 03 10 05 80 4A 09 01  51 09 3C 0F 00 CB 80 C5  >....J..Q.<.....
0950: 80 3E 03 10 01 80 5B 09  01 69 09 3C 0F 00 01 80  .>....[..i.<....
0960: C5 80 3C 0F 00 CB 80 C5  80 3E 03 10 CB 80 78 09  ..<......>....x.
0970: 03 12 00 C5 80 01 7D 09  03 12 00 05 80 3E 03 10  ......}......>..
0980: DA 80 8E 09 3C 0F 00 01  80 C5 80 01 A3 09 3C 0F  ....<.........<.
0990: 00 C5 80 C5 80 3C 0F 00  CB 80 C5 80 3C 0F 00 DA  .....<......<...
09A0: 80 C5 80 3E 03 10 CD 80  B1 09 3C 0F 00 CD 80 C5  ...>......<.....
09B0: 80 3E 03 10 DE 80 BE 09  05 18 00 01 C1 09 06 18  .>..............
09C0: 00 41 05 80 C8 80 07 10  11 00 41 C9 80 CA 80 07  .A........A.....
09D0: 10 10 00 02 10 00 05 80  00 E2 09 3C 0F 00 CB 80  ...........<....
09E0: C5 80 03 13 00 05 80 0E  13 00 F5 80 0E 13 00 F6  ................
09F0: 80 0E 13 00 F7 80 03 14  00 05 80 0E 14 00 05 80  ................
0A00: 0E 14 00 05 80 0E 14 00  05 80 02 08 10 13 00 00  ................
0A10: 21 0A 02 09 10 14 00 00  21 0A 3C 0F 00 CB 80 C5  !.......!.<.....
0A20: 80 24 F8 80 05 80 0F 00  25 02 00 10 05 80 00 34  .$......%......4
0A30: 0A 01 CC 0A 02 00 10 C5  80 00 42 0A 1A D1 0A 01  ..........B.....
0A40: CC 0A 02 00 10 01 80 00  6E 0A 02 12 00 05 80 00  ........n.......
0A50: 67 0A 02 18 00 05 80 00  60 0A 1A DC 0A 01 64 0A  g.......`.....d.
0A60: 1D F9 80 23 01 6B 0A 1D  FA 80 23 01 CC 0A 02 00  ...#.k....#.....
0A70: 10 CB 80 00 8B 0A 02 12  00 05 80 00 84 0A 1A F5  ................
0A80: 0A 01 88 0A 1D FA 80 23  01 CC 0A 02 00 10 DA 80  .......#........
0A90: 00 B0 0A 03 01 10 FB 80  43 00 43 01 02 04 10 05  ........C.C.....
0AA0: 80 00 AA 0A 1A 79 15 01  AD 0A 01 CF 0A 01 CC 0A  .....y..........
0AB0: 02 00 10 CD 80 00 BE 0A  1A 9F 17 01 CC 0A 02 00  ................
0AC0: 10 DE 80 00 CC 0A 1A 60  18 01 CC 0A 01 CF 0A 21  .......`.......!
0AD0: 1B 42 1D FC 80 23 03 01  10 CD 80 1B 42 1D FD 80  .B...#......B...
0AE0: 23 73 FE 80 F8 FF FF 7F  F0 FF FF 7F 1C FF 80 03  #s..............
0AF0: 01 10 CB 80 1B 03 21 00  05 80 03 1D 00 05 80 03  ......!.........
0B00: 19 00 05 80 03 1A 00 05  80 03 1B 00 05 80 03 1C  ................
0B10: 00 05 80 03 24 00 05 80  03 22 00 05 80 03 26 00  ....$...."....&.
0B20: F5 80 02 24 00 00 81 03  39 0C 3E 26 00 24 00 33  ...$....9.>&.$.3
0B30: 0C 03 17 00 05 80 02 24  00 E5 80 04 57 0B 02 24  .......$....W..$
0B40: 00 EA 80 03 57 0B 03 17  00 C5 80 3E 05 10 05 80  ....W......>....
0B50: 57 0B 03 17 00 05 80 02  24 00 EA 80 04 78 0B 02  W.......$....x..
0B60: 24 00 01 81 03 78 0B 03  17 00 C5 80 3E 05 10 C5  $....x......>...
0B70: 80 78 0B 03 17 00 05 80  02 24 00 01 81 04 99 0B  .x.......$......
0B80: 02 24 00 02 81 03 99 0B  03 17 00 C5 80 3E 05 10  .$...........>..
0B90: 01 80 99 0B 03 17 00 05  80 02 24 00 02 81 04 BA  ..........$.....
0BA0: 0B 02 24 00 03 81 03 BA  0B 03 17 00 C5 80 3E 05  ..$...........>.
0BB0: 10 CB 80 BA 0B 03 17 00  05 80 02 24 00 03 81 04  ...........$....
0BC0: DB 0B 02 24 00 04 81 03  DB 0B 03 17 00 C5 80 3E  ...$...........>
0BD0: 05 10 DA 80 DB 0B 03 17  00 05 80 02 24 00 04 81  ............$...
0BE0: 04 FC 0B 02 24 00 05 81  03 FC 0B 03 17 00 C5 80  ....$...........
0BF0: 3E 05 10 CD 80 FC 0B 03  17 00 05 80 02 24 00 05  >............$..
0C00: 81 04 15 0C 03 17 00 C5  80 3E 05 10 DE 80 15 0C  .........>......
0C10: 03 17 00 05 80 3E 08 10  24 00 21 0C 03 17 00 C5  .....>..$.!.....
0C20: 80 02 17 00 05 80 00 30  0C 3C 1A 00 22 00 C5 80  .......0.<.."...
0C30: 0B 22 00 0B 24 00 01 22  0B 03 24 00 05 80 03 26  ."..$.."..$....&
0C40: 00 05 80 02 24 00 00 81  03 64 0D 3E 26 00 24 00  ....$....d.>&.$.
0C50: 5E 0D 03 17 00 05 80 03  25 00 24 00 07 25 00 00  ^.......%.$..%..
0C60: 81 02 25 00 E5 80 04 82  0C 02 25 00 EA 80 03 82  ..%.......%.....
0C70: 0C 03 17 00 C5 80 3E 05  10 05 80 82 0C 03 17 00  ......>.........
0C80: 05 80 02 25 00 EA 80 04  A3 0C 02 25 00 01 81 03  ...%.......%....
0C90: A3 0C 03 17 00 C5 80 3E  05 10 C5 80 A3 0C 03 17  .......>........
0CA0: 00 05 80 02 25 00 01 81  04 C4 0C 02 25 00 02 81  ....%.......%...
0CB0: 03 C4 0C 03 17 00 C5 80  3E 05 10 01 80 C4 0C 03  ........>.......
0CC0: 17 00 05 80 02 25 00 02  81 04 E5 0C 02 25 00 03  .....%.......%..
0CD0: 81 03 E5 0C 03 17 00 C5  80 3E 05 10 CB 80 E5 0C  .........>......
0CE0: 03 17 00 05 80 02 25 00  03 81 04 06 0D 02 25 00  ......%.......%.
0CF0: 04 81 03 06 0D 03 17 00  C5 80 3E 05 10 DA 80 06  ..........>.....
0D00: 0D 03 17 00 05 80 02 25  00 04 81 04 27 0D 02 25  .......%....'..%
0D10: 00 05 81 03 27 0D 03 17  00 C5 80 3E 05 10 CD 80  ....'......>....
0D20: 27 0D 03 17 00 05 80 02  25 00 05 81 04 40 0D 03  '.......%....@..
0D30: 17 00 C5 80 3E 05 10 DE  80 40 0D 03 17 00 05 80  ....>....@......
0D40: 3E 09 10 24 00 4C 0D 03  17 00 C5 80 02 17 00 05  >..$.L..........
0D50: 80 00 5B 0D 3C 1A 00 22  00 C5 80 0B 22 00 0B 24  ..[.<.."...."..$
0D60: 00 01 43 0C 0F 1A 00 06  81 10 1A 00 C5 80 3D 1A  ..C...........=.
0D70: 00 05 80 C5 80 03 24 00  05 80 03 22 00 05 80 03  ......$...."....
0D80: 26 00 F6 80 02 24 00 00  81 03 9B 0E 3E 26 00 24  &....$......>&.$
0D90: 00 95 0E 03 17 00 05 80  02 24 00 E5 80 04 B9 0D  .........$......
0DA0: 02 24 00 EA 80 03 B9 0D  03 17 00 C5 80 3E 05 10  .$...........>..
0DB0: 05 80 B9 0D 03 17 00 05  80 02 24 00 EA 80 04 DA  ..........$.....
0DC0: 0D 02 24 00 01 81 03 DA  0D 03 17 00 C5 80 3E 05  ..$...........>.
0DD0: 10 C5 80 DA 0D 03 17 00  05 80 02 24 00 01 81 04  ...........$....
0DE0: FB 0D 02 24 00 02 81 03  FB 0D 03 17 00 C5 80 3E  ...$...........>
0DF0: 05 10 01 80 FB 0D 03 17  00 05 80 02 24 00 02 81  ............$...
0E00: 04 1C 0E 02 24 00 03 81  03 1C 0E 03 17 00 C5 80  ....$...........
0E10: 3E 05 10 CB 80 1C 0E 03  17 00 05 80 02 24 00 03  >............$..
0E20: 81 04 3D 0E 02 24 00 04  81 03 3D 0E 03 17 00 C5  ..=..$....=.....
0E30: 80 3E 05 10 DA 80 3D 0E  03 17 00 05 80 02 24 00  .>....=.......$.
0E40: 04 81 04 5E 0E 02 24 00  05 81 03 5E 0E 03 17 00  ...^..$....^....
0E50: C5 80 3E 05 10 CD 80 5E  0E 03 17 00 05 80 02 24  ..>....^.......$
0E60: 00 05 81 04 77 0E 03 17  00 C5 80 3E 05 10 DE 80  ....w......>....
0E70: 77 0E 03 17 00 05 80 3E  08 10 24 00 83 0E 03 17  w......>..$.....
0E80: 00 C5 80 02 17 00 05 80  00 92 0E 3C 1B 00 22 00  ...........<..".
0E90: C5 80 0B 22 00 0B 24 00  01 84 0D 03 24 00 05 80  ..."..$.....$...
0EA0: 03 26 00 05 80 02 24 00  00 81 03 C6 0F 3E 26 00  .&....$......>&.
0EB0: 24 00 C0 0F 03 17 00 05  80 03 25 00 24 00 07 25  $.........%.$..%
0EC0: 00 00 81 02 25 00 E5 80  04 E4 0E 02 25 00 EA 80  ....%.......%...
0ED0: 03 E4 0E 03 17 00 C5 80  3E 05 10 05 80 E4 0E 03  ........>.......
0EE0: 17 00 05 80 02 25 00 EA  80 04 05 0F 02 25 00 01  .....%.......%..
0EF0: 81 03 05 0F 03 17 00 C5  80 3E 05 10 C5 80 05 0F  .........>......
0F00: 03 17 00 05 80 02 25 00  01 81 04 26 0F 02 25 00  ......%....&..%.
0F10: 02 81 03 26 0F 03 17 00  C5 80 3E 05 10 01 80 26  ...&......>....&
0F20: 0F 03 17 00 05 80 02 25  00 02 81 04 47 0F 02 25  .......%....G..%
0F30: 00 03 81 03 47 0F 03 17  00 C5 80 3E 05 10 CB 80  ....G......>....
0F40: 47 0F 03 17 00 05 80 02  25 00 03 81 04 68 0F 02  G.......%....h..
0F50: 25 00 04 81 03 68 0F 03  17 00 C5 80 3E 05 10 DA  %....h......>...
0F60: 80 68 0F 03 17 00 05 80  02 25 00 04 81 04 89 0F  .h.......%......
0F70: 02 25 00 05 81 03 89 0F  03 17 00 C5 80 3E 05 10  .%...........>..
0F80: CD 80 89 0F 03 17 00 05  80 02 25 00 05 81 04 A2  ..........%.....
0F90: 0F 03 17 00 C5 80 3E 05  10 DE 80 A2 0F 03 17 00  ......>.........
0FA0: 05 80 3E 09 10 24 00 AE  0F 03 17 00 C5 80 02 17  ..>..$..........
0FB0: 00 05 80 00 BD 0F 3C 1B  00 22 00 C5 80 0B 22 00  ......<.."....".
0FC0: 0B 24 00 01 A5 0E 0F 1B  00 06 81 10 1B 00 C5 80  .$..............
0FD0: 3D 1B 00 05 80 C5 80 03  24 00 05 80 03 22 00 05  =.......$...."..
0FE0: 80 03 26 00 F7 80 02 24  00 00 81 03 FD 10 3E 26  ..&....$......>&
0FF0: 00 24 00 F7 10 03 17 00  05 80 02 24 00 E5 80 04  .$.........$....
1000: 1B 10 02 24 00 EA 80 03  1B 10 03 17 00 C5 80 3E  ...$...........>
1010: 05 10 05 80 1B 10 03 17  00 05 80 02 24 00 EA 80  ............$...
1020: 04 3C 10 02 24 00 01 81  03 3C 10 03 17 00 C5 80  .<..$....<......
1030: 3E 05 10 C5 80 3C 10 03  17 00 05 80 02 24 00 01  >....<.......$..
1040: 81 04 5D 10 02 24 00 02  81 03 5D 10 03 17 00 C5  ..]..$....].....
1050: 80 3E 05 10 01 80 5D 10  03 17 00 05 80 02 24 00  .>....].......$.
1060: 02 81 04 7E 10 02 24 00  03 81 03 7E 10 03 17 00  ...~..$....~....
1070: C5 80 3E 05 10 CB 80 7E  10 03 17 00 05 80 02 24  ..>....~.......$
1080: 00 03 81 04 9F 10 02 24  00 04 81 03 9F 10 03 17  .......$........
1090: 00 C5 80 3E 05 10 DA 80  9F 10 03 17 00 05 80 02  ...>............
10A0: 24 00 04 81 04 C0 10 02  24 00 05 81 03 C0 10 03  $.......$.......
10B0: 17 00 C5 80 3E 05 10 CD  80 C0 10 03 17 00 05 80  ....>...........
10C0: 02 24 00 05 81 04 D9 10  03 17 00 C5 80 3E 05 10  .$...........>..
10D0: DE 80 D9 10 03 17 00 05  80 3E 08 10 24 00 E5 10  .........>..$...
10E0: 03 17 00 C5 80 02 17 00  05 80 00 F4 10 3C 1C 00  .............<..
10F0: 22 00 C5 80 0B 22 00 0B  24 00 01 E6 0F 03 24 00  "...."..$.....$.
1100: 05 80 03 26 00 05 80 02  24 00 00 81 03 28 12 3E  ...&....$....(.>
1110: 26 00 24 00 22 12 03 17  00 05 80 03 25 00 24 00  &.$.".......%.$.
1120: 07 25 00 00 81 02 25 00  E5 80 04 46 11 02 25 00  .%....%....F..%.
1130: EA 80 03 46 11 03 17 00  C5 80 3E 05 10 05 80 46  ...F......>....F
1140: 11 03 17 00 05 80 02 25  00 EA 80 04 67 11 02 25  .......%....g..%
1150: 00 01 81 03 67 11 03 17  00 C5 80 3E 05 10 C5 80  ....g......>....
1160: 67 11 03 17 00 05 80 02  25 00 01 81 04 88 11 02  g.......%.......
1170: 25 00 02 81 03 88 11 03  17 00 C5 80 3E 05 10 01  %...........>...
1180: 80 88 11 03 17 00 05 80  02 25 00 02 81 04 A9 11  .........%......
1190: 02 25 00 03 81 03 A9 11  03 17 00 C5 80 3E 05 10  .%...........>..
11A0: CB 80 A9 11 03 17 00 05  80 02 25 00 03 81 04 CA  ..........%.....
11B0: 11 02 25 00 04 81 03 CA  11 03 17 00 C5 80 3E 05  ..%...........>.
11C0: 10 DA 80 CA 11 03 17 00  05 80 02 25 00 04 81 04  ...........%....
11D0: EB 11 02 25 00 05 81 03  EB 11 03 17 00 C5 80 3E  ...%...........>
11E0: 05 10 CD 80 EB 11 03 17  00 05 80 02 25 00 05 81  ............%...
11F0: 04 04 12 03 17 00 C5 80  3E 05 10 DE 80 04 12 03  ........>.......
1200: 17 00 05 80 3E 09 10 24  00 10 12 03 17 00 C5 80  ....>..$........
1210: 02 17 00 05 80 00 1F 12  3C 1C 00 22 00 C5 80 0B  ........<.."....
1220: 22 00 0B 24 00 01 07 11  0F 1C 00 06 81 10 1C 00  "..$............
1230: C5 80 3D 1C 00 05 80 C5  80 1D 07 81 23 05 1E 00  ..=.........#...
1240: 03 21 00 05 80 03 1D 00  06 81 03 17 00 05 80 0C  .!..............
1250: 11 00 15 11 00 DA 80 0B  11 00 02 17 00 11 00 05  ................
1260: 6F 12 3D 1D 00 17 00 C5  80 0B 17 00 01 5A 12 02  o.=..........Z..
1270: 1E 00 05 80 01 78 15 03  02 10 05 81 03 03 10 08  .....x..........
1280: 81 03 04 10 03 80 24 09  81 05 80 1D 00 25 02 00  ......$......%..
1290: 10 05 80 00 9C 12 06 1E  00 01 CB 13 02 00 10 C5  ................
12A0: 80 00 01 13 03 19 00 1A  00 03 02 10 0A 81 03 03  ................
12B0: 10 0B 81 03 04 10 0C 81  03 05 10 0D 81 03 06 10  ................
12C0: 0E 81 03 07 10 0F 81 03  08 10 10 81 03 09 10 11  ................
12D0: 81 03 00 17 12 81 03 01  17 13 81 03 02 17 14 81  ................
12E0: 03 03 17 15 81 03 04 17  16 81 03 05 17 17 81 03  ................
12F0: 06 17 18 81 03 07 17 19  81 03 08 17 1A 81 01 CB  ................
1300: 13 02 00 10 01 80 00 66  13 03 19 00 1B 00 03 02  .......f........
1310: 10 1B 81 03 03 10 1C 81  03 04 10 1D 81 03 05 10  ................
1320: 1E 81 03 06 10 1F 81 03  07 10 20 81 03 08 10 05  .......... .....
1330: 80 03 09 10 05 80 03 00  17 05 80 03 01 17 05 80  ................
1340: 03 02 17 05 80 03 03 17  05 80 03 04 17 05 80 03  ................
1350: 05 17 05 80 03 06 17 05  80 03 07 17 05 80 03 08  ................
1360: 17 05 80 01 CB 13 02 00  10 CB 80 00 CB 13 03 19  ................
1370: 00 1C 00 03 02 10 21 81  03 03 10 22 81 03 04 10  ......!...."....
1380: 23 81 03 05 10 24 81 03  06 10 25 81 03 07 10 26  #....$....%....&
1390: 81 03 08 10 27 81 03 09  10 28 81 03 00 17 05 80  ....'....(......
13A0: 03 01 17 05 80 03 02 17  05 80 03 03 17 05 80 03  ................
13B0: 04 17 05 80 03 05 17 05  80 03 06 17 05 80 03 07  ................
13C0: 17 05 80 03 08 17 05 80  01 CB 13 02 00 10 05 80  ................
13D0: 01 75 15 40 E1 80 C8 80  21 00 00 10 05 1F 00 02  .u.@....!.......
13E0: 1F 00 05 80 01 75 15 24  29 81 05 80 19 00 25 02  .....u.$).....%.
13F0: 00 10 05 80 00 06 14 06  1F 00 40 E1 80 C8 80 21  ..........@....!
1400: 00 05 80 01 16 15 02 00  10 C5 80 00 16 14 03 15  ................
1410: 00 02 10 01 16 15 02 00  10 01 80 00 26 14 03 15  ............&...
1420: 00 03 10 01 16 15 02 00  10 CB 80 00 36 14 03 15  ............6...
1430: 00 04 10 01 16 15 02 00  10 DA 80 00 46 14 03 15  ............F...
1440: 00 05 10 01 16 15 02 00  10 CD 80 00 56 14 03 15  ............V...
1450: 00 06 10 01 16 15 02 00  10 DE 80 00 66 14 03 15  ............f...
1460: 00 07 10 01 16 15 02 00  10 E0 80 00 76 14 03 15  ............v...
1470: 00 08 10 01 16 15 02 00  10 E1 80 00 86 14 03 15  ................
1480: 00 09 10 01 16 15 02 00  10 E2 80 00 96 14 03 15  ................
1490: 00 00 17 01 16 15 02 00  10 E3 80 00 A6 14 03 15  ................
14A0: 00 01 17 01 16 15 02 00  10 E5 80 00 B6 14 03 15  ................
14B0: 00 02 17 01 16 15 02 00  10 E6 80 00 C6 14 03 15  ................
14C0: 00 03 17 01 16 15 02 00  10 E7 80 00 D6 14 03 15  ................
14D0: 00 04 17 01 16 15 02 00  10 EB 80 00 E6 14 03 15  ................
14E0: 00 05 17 01 16 15 02 00  10 C8 80 00 F6 14 03 15  ................
14F0: 00 06 17 01 16 15 02 00  10 C9 80 00 06 15 03 15  ................
1500: 00 07 17 01 16 15 02 00  10 E9 80 00 16 15 03 15  ................
1510: 00 08 17 01 16 15 02 00  10 05 80 01 72 15 40 C9  ............r.@.
1520: 80 CA 80 21 00 00 10 93  15 00 03 1F 17 16 00 1D  ...!............
1530: 2A 81 23 93 05 80 24 2B  81 C5 80 05 80 25 02 00  *.#...$+.....%..
1540: 10 05 80 00 5E 15 42 06  1E 00 06 1F 00 40 05 80  ....^.B......@..
1550: E0 80 21 00 DA 80 03 01  10 21 00 01 72 15 02 00  ..!......!..r...
1560: 10 C5 80 00 72 15 40 C9  80 CA 80 21 00 05 80 01  ....r.@....!....
1570: 72 15 01 DF 13 01 6F 12  1B 41 05 80 05 80 02 10  r.....o..A......
1580: 27 00 41 C5 80 01 80 02  10 28 00 41 CB 80 CD 80  '.A......(.A....
1590: 02 10 29 00 41 DE 80 DE  80 02 10 2A 00 41 05 80  ..).A......*.A..
15A0: CD 80 03 10 2B 00 41 DE  80 E5 80 03 10 2C 00 41  ....+.A......,.A
15B0: E6 80 E9 80 03 10 2D 00  41 EA 80 2C 81 03 10 2E  ......-.A..,....
15C0: 00 41 2D 81 04 81 03 10  2F 00 20 01 1C 03 80 03  .A-...../. .....
15D0: 30 00 05 80 02 27 00 05  80 00 07 16 24 2E 81 C5  0....'......$...
15E0: 80 05 80 25 02 00 10 05  80 00 F4 15 03 30 00 C5  ...%.........0..
15F0: 80 01 04 16 02 00 10 C5  80 00 04 16 03 01 10 2F  .............../
1600: 81 01 04 16 01 B1 16 24  30 81 05 80 05 80 25 02  .......$0.....%.
1610: 00 10 05 80 00 1F 16 03  01 10 2F 81 01 B1 16 02  ........../.....
1620: 00 10 C5 80 00 68 16 02  2A 00 C5 80 00 38 16 03  .....h..*....8..
1630: 02 10 05 80 1D 31 81 23  03 02 10 05 80 24 32 81  .....1.#.....$2.
1640: C5 80 05 80 25 02 00 10  05 80 00 55 16 03 30 00  ....%......U..0.
1650: C5 80 01 65 16 02 00 10  C5 80 00 65 16 03 01 10  ...e.......e....
1660: 2F 81 01 65 16 01 B1 16  02 00 10 01 80 00 B1 16  /..e............
1670: 02 2A 00 C5 80 00 81 16  03 02 10 C5 80 1D 31 81  .*............1.
1680: 23 03 02 10 C5 80 24 32  81 C5 80 05 80 25 02 00  #.....$2.....%..
1690: 10 05 80 00 9E 16 03 01  10 33 81 01 AE 16 02 00  .........3......
16A0: 10 C5 80 00 AE 16 03 01  10 2F 81 01 AE 16 01 B1  ........./......
16B0: 16 02 30 00 C5 80 00 9E  17 03 31 00 05 80 03 02  ..0.......1.....
16C0: 10 2B 00 03 03 10 2C 00  03 04 10 2D 00 03 05 10  .+....,....-....
16D0: 2E 00 03 06 10 2F 00 02  2B 00 34 81 04 E6 16 3C  ...../..+.4....<
16E0: 31 00 C5 80 C5 80 02 2C  00 34 81 04 F5 16 3C 31  1......,.4....<1
16F0: 00 01 80 C5 80 02 2D 00  34 81 04 04 17 3C 31 00  ......-.4....<1.
1700: CB 80 C5 80 02 2E 00 34  81 04 13 17 3C 31 00 DA  .......4....<1..
1710: 80 C5 80 02 2F 00 34 81  04 22 17 3C 31 00 CD 80  ..../.4..".<1...
1720: C5 80 02 31 00 35 81 00  36 17 1D 36 81 23 03 01  ...1.5..6..6.#..
1730: 10 2F 81 01 9E 17 24 37  81 05 80 31 00 25 02 00  ./....$7...1.%..
1740: 10 05 80 00 4E 17 03 01  10 2F 81 01 9E 17 02 00  ....N..../......
1750: 10 C5 80 00 5E 17 03 01  10 38 81 01 9E 17 02 00  ....^....8......
1760: 10 01 80 00 6E 17 03 01  10 39 81 01 9E 17 02 00  ....n....9......
1770: 10 CB 80 00 7E 17 03 01  10 3A 81 01 9E 17 02 00  ....~....:......
1780: 10 DA 80 00 8E 17 03 01  10 3B 81 01 9E 17 02 00  .........;......
1790: 10 CD 80 00 9E 17 03 01  10 3C 81 01 9E 17 1B 42  .........<.....B
17A0: 3E 03 10 05 80 C8 17 02  04 10 E3 80 03 C0 17 03  >...............
17B0: 02 10 E3 80 1D 3D 81 23  48 3E 81 23 1B 01 C5 17  .....=.#H>.#....
17C0: 03 02 10 E3 80 01 0F 18  02 0E 00 DA 80 00 F1 17  ................
17D0: 02 04 10 34 81 03 E9 17  03 02 10 34 81 1D 3D 81  ...4.......4..=.
17E0: 23 48 3E 81 23 1B 01 EE  17 03 02 10 34 81 01 0F  #H>.#.......4...
17F0: 18 02 04 10 05 81 03 0A  18 03 02 10 05 81 1D 3D  ...............=
1800: 81 23 48 3E 81 23 1B 01  0F 18 03 02 10 05 81 1D  .#H>.#..........
1810: 3D 81 23 24 3F 81 C5 80  05 80 25 02 00 10 05 80  =.#$?.....%.....
1820: 00 54 18 03 01 10 C5 80  43 00 43 01 1D 40 81 73  .T......C.C..@.s
1830: 41 81 F8 FF FF 7F F0 FF  FF 7F 1C FF 80 45 04 80  A............E..
1840: F0 FF FF 7F F0 FF FF 7F  66 64 6F 31 05 80 1C 03  ........fdo1....
1850: 80 01 5F 18 02 00 10 C5  80 00 5F 18 01 5F 18 1B  .._......._.._..
1860: 42 03 0F 00 05 80 24 42  81 05 80 0F 00 25 02 00  B.....$B.....%..
1870: 10 05 80 00 7A 18 1B 01  06 19 02 00 10 C5 80 00  ....z...........
1880: A0 18 1D 43 81 23 1D 44  81 23 1D 45 81 23 1D 46  ...C.#.D.#.E.#.F
1890: 81 23 1D 47 81 23 1D 48  81 23 01 60 18 01 06 19  .#.G.#.H.#.`....
18A0: 02 00 10 01 80 00 BE 18  1D 49 81 23 1D 4A 81 23  .........I.#.J.#
18B0: 1D 4B 81 23 1D 48 81 23  01 60 18 01 06 19 02 00  .K.#.H.#.`......
18C0: 10 CB 80 00 E0 18 1D 4C  81 23 1D 4D 81 23 1D 4E  .......L.#.M.#.N
18D0: 81 23 1D 4F 81 23 1D 48  81 23 01 60 18 01 06 19  .#.O.#.H.#.`....
18E0: 02 00 10 DA 80 00 06 19  1D 50 81 23 1D 51 81 23  .........P.#.Q.#
18F0: 1D 52 81 23 1D 53 81 23  1D 54 81 23 1D 48 81 23  .R.#.S.#.T.#.H.#
1900: 01 60 18 01 06 19                                 .`....          
```

#### Opcodes

```
  0: 0x0025 [0x03] ExtData[1]->WorkLocal[0] = 2*
  1: 0x002A [0x20] SET_CLI_EVENT_UC_FLAG: Lock player control
  2: 0x002C [0x42] SET_CLI_EVENT_CANCEL_DATA()
  3: 0x002D [0x1E] EventEntity looks at LocalPlayer and starts talking
  4: 0x0032 [0x6F] WAIT_FRAME_DELAY: Yield until WaitTime reaches zero
  5: 0x0033 [0x70] WAIT_ENTITY_RENDER_FLAG: Wait while EventEntity->Render.Flags3 bit 2 is set (cancel turn if not)
  6: 0x0034 [0x03] ExtData[1]->WorkLocal[3] = Work_Zone[3]
  7: 0x0039 [0x03] ExtData[1]->WorkLocal[4] = Work_Zone[4]
  8: 0x003E [0x03] ExtData[1]->WorkLocal[5] = Work_Zone[5]
  9: 0x0043 [0x03] ExtData[1]->WorkLocal[12] = Work_Zone[9]
 10: 0x0048 [0x1D] PRINT_EVENT_MESSAGE(message_id=7973*)
    → "Ahhh, so you're military tactician who who drew up the plans for this latest supply mission. Why don't we ask one of the men how its going, shall we?"
 11: 0x004B [0x23] WAIT_FOR_DIALOG_INTERACTION
 12: 0x004C [0x1C] WAIT(60* ticks)
 13: 0x004F [0x45] LOAD_SCHEDULED_TASK: Load scheduler "fdo1" with entities [LocalPlayer, LocalPlayer], work=[200*, 0*]
 14: 0x0060 [0x55] WAIT_LOAD_SCHEDULER: Wait for scheduler "fdo1" with entities [LocalPlayer, LocalPlayer], work=200*
 15: 0x006F [0x46] CAMERA_CONTROL: Disable user control
 16: 0x0071 [0x38] SET_CLIENT_EVENT_MODE(mode=19*)
 17: 0x0074 [0x4E] SET_ENTITY_HIDE_FLAG: Show EventEntity
 18: 0x007A [0x92] LocalPlayer->Render.Flags3 ^= 0x01
 19: 0x0080 [0x92] EventEntity->Render.Flags3 ^= 0x01
 20: 0x0086 [0x92] Allied Commissary (ID: 17494774/0x010AF2F6)->Render.Flags3 ^= 0x01
 21: 0x008C [0x02] IF !(ExtData[1]->WorkLocal[12] == 81*) GOTO 0x00CF
 22: 0x0094 [0x45] LOAD_SCHEDULED_TASK: Load scheduler "z81b" with entities [LocalPlayer, LocalPlayer], work=[325*, 0*]
 23: 0x00A5 [0xBA] SET_ENTITY_POSITION(entity_id=EventEntity, pos_x=311.752*, pos_z=-112.124*, pos_y=-29.761*, direction=48.3°*)
 24: 0x00B2 [0xBA] SET_ENTITY_POSITION(entity_id=LocalPlayer, pos_x=313.726*, pos_z=-115.091*, pos_y=-29.577*, direction=247.8°*)
 25: 0x00BF [0xBA] SET_ENTITY_POSITION(entity_id=Allied Commissary (ID: 17494774/0x010AF2F6), pos_x=318.377*, pos_z=-108.406*, pos_y=-29.500*, direction=137.5°*)
 26: 0x00CC [0x01] GOTO 0x0479
 27: 0x00CF [0x02] IF !(ExtData[1]->WorkLocal[12] == 82*) GOTO 0x0112
 28: 0x00D7 [0x45] LOAD_SCHEDULED_TASK: Load scheduler "z82b" with entities [LocalPlayer, LocalPlayer], work=[325*, 0*]
 29: 0x00E8 [0xBA] SET_ENTITY_POSITION(entity_id=EventEntity, pos_x=64.024*, pos_z=-32.098*, pos_y=0.532*, direction=49.7°*)
 30: 0x00F5 [0xBA] SET_ENTITY_POSITION(entity_id=LocalPlayer, pos_x=63.861*, pos_z=-35.340*, pos_y=0.374*, direction=240.5°*)
 31: 0x0102 [0xBA] SET_ENTITY_POSITION(entity_id=Allied Commissary (ID: 17494774/0x010AF2F6), pos_x=68.325*, pos_z=-33.241*, pos_y=0.436*, direction=174.6°*)
 32: 0x010F [0x01] GOTO 0x0479
 33: 0x0112 [0x02] IF !(ExtData[1]->WorkLocal[12] == 83*) GOTO 0x0155
 34: 0x011A [0x45] LOAD_SCHEDULED_TASK: Load scheduler "z83b" with entities [LocalPlayer, LocalPlayer], work=[325*, 0*]
 35: 0x012B [0xBA] SET_ENTITY_POSITION(entity_id=EventEntity, pos_x=-195.325*, pos_z=-279.916*, pos_y=-40.000*, direction=335.4°*)
 36: 0x0138 [0xBA] SET_ENTITY_POSITION(entity_id=LocalPlayer, pos_x=-192.619*, pos_z=-278.169*, pos_y=-40.000*, direction=159.8°*)
 37: 0x0145 [0xBA] SET_ENTITY_POSITION(entity_id=Allied Commissary (ID: 17494774/0x010AF2F6), pos_x=-191.006*, pos_z=-283.756*, pos_y=-40.000*, direction=234.6°*)
 38: 0x0152 [0x01] GOTO 0x0479
 39: 0x0155 [0x02] IF !(ExtData[1]->WorkLocal[12] == 84*) GOTO 0x0198
 40: 0x015D [0x45] LOAD_SCHEDULED_TASK: Load scheduler "z84b" with entities [LocalPlayer, LocalPlayer], work=[325*, 0*]
 41: 0x016E [0xBA] SET_ENTITY_POSITION(entity_id=EventEntity, pos_x=208.005*, pos_z=23.041*, pos_y=8.762*, direction=128.9°*)
 42: 0x017B [0xBA] SET_ENTITY_POSITION(entity_id=LocalPlayer, pos_x=205.098*, pos_z=22.479*, pos_y=8.844*, direction=340.6°*)
 43: 0x0188 [0xBA] SET_ENTITY_POSITION(entity_id=Allied Commissary (ID: 17494774/0x010AF2F6), pos_x=203.206*, pos_z=27.113*, pos_y=8.342*, direction=42.3°*)
 44: 0x0195 [0x01] GOTO 0x0479
 45: 0x0198 [0x02] IF !(ExtData[1]->WorkLocal[12] == 175*) GOTO 0x01DB
 46: 0x01A0 [0x45] LOAD_SCHEDULED_TASK: Load scheduler "175a" with entities [LocalPlayer, LocalPlayer], work=[325*, 0*]
 47: 0x01B1 [0xBA] SET_ENTITY_POSITION(entity_id=EventEntity, pos_x=372.603*, pos_z=19.912*, pos_y=-39.999*, direction=338.7°*)
 48: 0x01BE [0xBA] SET_ENTITY_POSITION(entity_id=LocalPlayer, pos_x=375.183*, pos_z=22.033*, pos_y=-39.999*, direction=149.0°*)
 49: 0x01CB [0xBA] SET_ENTITY_POSITION(entity_id=Allied Commissary (ID: 17494774/0x010AF2F6), pos_x=377.993*, pos_z=17.548*, pos_y=-39.999*, direction=217.3°*)
 50: 0x01D8 [0x01] GOTO 0x0479
 51: 0x01DB [0x02] IF !(ExtData[1]->WorkLocal[12] == 88*) GOTO 0x021E
 52: 0x01E3 [0x45] LOAD_SCHEDULED_TASK: Load scheduler "z88b" with entities [LocalPlayer, LocalPlayer], work=[325*, 0*]
 53: 0x01F4 [0xBA] SET_ENTITY_POSITION(entity_id=EventEntity, pos_x=-572.416*, pos_z=55.001*, pos_y=40.961*, direction=150.4°*)
 54: 0x0201 [0xBA] SET_ENTITY_POSITION(entity_id=LocalPlayer, pos_x=-575.469*, pos_z=53.523*, pos_y=40.999*, direction=340.0°*)
 55: 0x020E [0xBA] SET_ENTITY_POSITION(entity_id=Allied Commissary (ID: 17494774/0x010AF2F6), pos_x=-568.817*, pos_z=49.509*, pos_y=40.778*, direction=239.1°*)
 56: 0x021B [0x01] GOTO 0x0479
 57: 0x021E [0x02] IF !(ExtData[1]->WorkLocal[12] == 89*) GOTO 0x0261
 58: 0x0226 [0x45] LOAD_SCHEDULED_TASK: Load scheduler "z89b" with entities [LocalPlayer, LocalPlayer], work=[325*, 0*]
 59: 0x0237 [0xBA] SET_ENTITY_POSITION(entity_id=EventEntity, pos_x=313.921*, pos_z=103.138*, pos_y=-47.370*, direction=186.3°*)
 60: 0x0244 [0xBA] SET_ENTITY_POSITION(entity_id=LocalPlayer, pos_x=310.646*, pos_z=104.690*, pos_y=-47.723*, direction=20.6°*)
 61: 0x0251 [0xBA] SET_ENTITY_POSITION(entity_id=Allied Commissary (ID: 17494774/0x010AF2F6), pos_x=310.475*, pos_z=96.654*, pos_y=-47.601*, direction=270.6°*)
 62: 0x025E [0x01] GOTO 0x0479
 63: 0x0261 [0x02] IF !(ExtData[1]->WorkLocal[12] == 90*) GOTO 0x02A4
 64: 0x0269 [0x45] LOAD_SCHEDULED_TASK: Load scheduler "z90b" with entities [LocalPlayer, LocalPlayer], work=[325*, 0*]
 65: 0x027A [0xBA] SET_ENTITY_POSITION(entity_id=EventEntity, pos_x=436.683*, pos_z=388.424*, pos_y=24.851*, direction=174.4°*)
 66: 0x0287 [0xBA] SET_ENTITY_POSITION(entity_id=LocalPlayer, pos_x=433.267*, pos_z=387.400*, pos_y=24.439*, direction=328.3°*)
 67: 0x0294 [0xBA] SET_ENTITY_POSITION(entity_id=Allied Commissary (ID: 17494774/0x010AF2F6), pos_x=431.919*, pos_z=393.644*, pos_y=24.534*, direction=52.3°*)
 68: 0x02A1 [0x01] GOTO 0x0479
 69: 0x02A4 [0x02] IF !(ExtData[1]->WorkLocal[12] == 91*) GOTO 0x02E7
 70: 0x02AC [0x45] LOAD_SCHEDULED_TASK: Load scheduler "z91b" with entities [LocalPlayer, LocalPlayer], work=[325*, 0*]
 71: 0x02BD [0xBA] SET_ENTITY_POSITION(entity_id=EventEntity, pos_x=259.071*, pos_z=202.614*, pos_y=8.551*, direction=86.5°*)
 72: 0x02CA [0xBA] SET_ENTITY_POSITION(entity_id=LocalPlayer, pos_x=260.171*, pos_z=199.023*, pos_y=8.790*, direction=226.6°*)
 73: 0x02D7 [0xBA] SET_ENTITY_POSITION(entity_id=Allied Commissary (ID: 17494774/0x010AF2F6), pos_x=253.982*, pos_z=196.343*, pos_y=8.236*, direction=332.8°*)
 74: 0x02E4 [0x01] GOTO 0x0479
 75: 0x02E7 [0x02] IF !(ExtData[1]->WorkLocal[12] == 171*) GOTO 0x032A
 76: 0x02EF [0x45] LOAD_SCHEDULED_TASK: Load scheduler "171a" with entities [LocalPlayer, LocalPlayer], work=[325*, 0*]
 77: 0x0300 [0xBA] SET_ENTITY_POSITION(entity_id=EventEntity, pos_x=219.165*, pos_z=-17.497*, pos_y=-32.441*, direction=71.1°*)
 78: 0x030D [0xBA] SET_ENTITY_POSITION(entity_id=LocalPlayer, pos_x=219.270*, pos_z=-20.198*, pos_y=-32.206*, direction=241.3°*)
 79: 0x031A [0xBA] SET_ENTITY_POSITION(entity_id=Allied Commissary (ID: 17494774/0x010AF2F6), pos_x=224.166*, pos_z=-20.668*, pos_y=-32.276*, direction=183.2°*)
 80: 0x0327 [0x01] GOTO 0x0479
 81: 0x032A [0x02] IF !(ExtData[1]->WorkLocal[12] == 95*) GOTO 0x036D
 82: 0x0332 [0x45] LOAD_SCHEDULED_TASK: Load scheduler "z95b" with entities [LocalPlayer, LocalPlayer], work=[325*, 0*]
 83: 0x0343 [0xBA] SET_ENTITY_POSITION(entity_id=EventEntity, pos_x=-10.768*, pos_z=309.479*, pos_y=-12.851*, direction=176.3°*)
 84: 0x0350 [0xBA] SET_ENTITY_POSITION(entity_id=LocalPlayer, pos_x=-13.689*, pos_z=307.360*, pos_y=-13.000*, direction=328.6°*)
 85: 0x035D [0xBA] SET_ENTITY_POSITION(entity_id=Allied Commissary (ID: 17494774/0x010AF2F6), pos_x=-14.266*, pos_z=314.175*, pos_y=-12.568*, direction=60.9°*)
 86: 0x036A [0x01] GOTO 0x0479
 87: 0x036D [0x02] IF !(ExtData[1]->WorkLocal[12] == 96*) GOTO 0x03B0
 88: 0x0375 [0x45] LOAD_SCHEDULED_TASK: Load scheduler "z96b" with entities [LocalPlayer, LocalPlayer], work=[325*, 0*]
 89: 0x0386 [0xBA] SET_ENTITY_POSITION(entity_id=EventEntity, pos_x=-107.622*, pos_z=0.202*, pos_y=-79.979*, direction=349.3°*)
 90: 0x0393 [0xBA] SET_ENTITY_POSITION(entity_id=LocalPlayer, pos_x=-105.799*, pos_z=1.570*, pos_y=-79.877*, direction=111.4°*)
 91: 0x03A0 [0xBA] SET_ENTITY_POSITION(entity_id=Allied Commissary (ID: 17494774/0x010AF2F6), pos_x=-104.588*, pos_z=-5.098*, pos_y=-79.887*, direction=263.1°*)
 92: 0x03AD [0x01] GOTO 0x0479
 93: 0x03B0 [0x02] IF !(ExtData[1]->WorkLocal[12] == 97*) GOTO 0x03F3
 94: 0x03B8 [0x45] LOAD_SCHEDULED_TASK: Load scheduler "z97b" with entities [LocalPlayer, LocalPlayer], work=[325*, 0*]
 95: 0x03C9 [0xBA] SET_ENTITY_POSITION(entity_id=EventEntity, pos_x=-298.643*, pos_z=430.382*, pos_y=16.760*, direction=168.8°*)
 96: 0x03D6 [0xBA] SET_ENTITY_POSITION(entity_id=LocalPlayer, pos_x=-300.985*, pos_z=432.271*, pos_y=17.203*, direction=43.2°*)
 97: 0x03E3 [0xBA] SET_ENTITY_POSITION(entity_id=Allied Commissary (ID: 17494774/0x010AF2F6), pos_x=-300.385*, pos_z=423.475*, pos_y=17.221*, direction=277.7°*)
 98: 0x03F0 [0x01] GOTO 0x0479
 99: 0x03F3 [0x02] IF !(ExtData[1]->WorkLocal[12] == 98*) GOTO 0x0436
100: 0x03FB [0x45] LOAD_SCHEDULED_TASK: Load scheduler "z98b" with entities [LocalPlayer, LocalPlayer], work=[325*, 0*]
101: 0x040C [0xBA] SET_ENTITY_POSITION(entity_id=EventEntity, pos_x=-42.376*, pos_z=219.781*, pos_y=24.963*, direction=4.6°*)
102: 0x0419 [0xBA] SET_ENTITY_POSITION(entity_id=LocalPlayer, pos_x=-40.191*, pos_z=218.015*, pos_y=24.836*, direction=236.5°*)
103: 0x0426 [0xBA] SET_ENTITY_POSITION(entity_id=Allied Commissary (ID: 17494774/0x010AF2F6), pos_x=-35.737*, pos_z=224.685*, pos_y=24.660*, direction=161.7°*)
104: 0x0433 [0x01] GOTO 0x0479
105: 0x0436 [0x02] IF !(ExtData[1]->WorkLocal[12] == 164*) GOTO 0x0479
106: 0x043E [0x45] LOAD_SCHEDULED_TASK: Load scheduler "164a" with entities [LocalPlayer, LocalPlayer], work=[325*, 0*]
107: 0x044F [0xBA] SET_ENTITY_POSITION(entity_id=EventEntity, pos_x=-103.730*, pos_z=177.917*, pos_y=-0.078*, direction=272.8°*)
108: 0x045C [0xBA] SET_ENTITY_POSITION(entity_id=LocalPlayer, pos_x=-103.320*, pos_z=180.564*, pos_y=-0.078*, direction=117.7°*)
109: 0x0469 [0xBA] SET_ENTITY_POSITION(entity_id=Allied Commissary (ID: 17494774/0x010AF2F6), pos_x=-107.740*, pos_z=179.591*, pos_y=-0.078*, direction=8.1°*)
110: 0x0476 [0x01] GOTO 0x0479

SUBROUTINE_0479:
111: 0x0479 [0x94] LocalPlayer->Render.Flags3 ^= 0x01
112: 0x047F [0x94] EventEntity->Render.Flags3 ^= 0x01
113: 0x0485 [0x94] Allied Commissary (ID: 17494774/0x010AF2F6)->Render.Flags3 ^= 0x01
114: 0x048B [0x80] LOAD_WAIT(entity=LocalPlayer)
115: 0x0490 [0x80] LOAD_WAIT(entity=EventEntity)
116: 0x0495 [0x80] LOAD_WAIT(entity=Allied Commissary (ID: 17494774/0x010AF2F6))
117: 0x049A [0x1C] WAIT(1* ticks)
118: 0x049D [0x1E] EventEntity looks at LocalPlayer and starts talking
119: 0x04A2 [0x4A] LocalPlayer looks at EventEntity
120: 0x04AB [0x45] LOAD_SCHEDULED_TASK: Load scheduler "fdi1" with entities [LocalPlayer, LocalPlayer], work=[200*, 0*]
121: 0x04BC [0x55] WAIT_LOAD_SCHEDULER: Wait for scheduler "fdi1" with entities [LocalPlayer, LocalPlayer], work=200*
122: 0x04CB [0x1E] EventEntity looks at Allied Commissary (ID: 17494774/0x010AF2F6) and starts talking
123: 0x04D0 [0x4A] LocalPlayer looks at Allied Commissary (ID: 17494774/0x010AF2F6)
124: 0x04D9 [0x29] REQ_SET_WAIT(priority=0x10, entity_id=Allied Commissary (ID: 17494774/0x010AF2F6), tag_num=0x04)
125: 0x04E0 [0x2B] Allied Commissary (ID: 17494774/0x010AF2F6) [7974*]:
    → "You are the tactician responsible for our latest operation? Then I shall report in on the status of our mission up until now."
126: 0x04E7 [0x23] WAIT_FOR_DIALOG_INTERACTION
127: 0x04E8 [0x2B] Allied Commissary (ID: 17494774/0x010AF2F6) [7975*]:
    → "As per orders, the supply caravan completed preparation of our cargo last night, and set out on the designated route at daybreak."
128: 0x04EF [0x23] WAIT_FOR_DIALOG_INTERACTION
129: 0x04F0 [0x41] ExtData[1]->WorkLocal[1] = ExtData[1]->WorkLocal[3] (bits 0*-15*)
130: 0x04F9 [0x41] ExtData[1]->WorkLocal[2] = ExtData[1]->WorkLocal[3] (bits 16*-31*)
131: 0x0502 [0x02] IF !(ExtData[1]->WorkLocal[1] == 0*) GOTO 0x050D
132: 0x050A [0x1A] CALL_SUBROUTINE(address=0x063E)
133: 0x050D [0x02] IF !(ExtData[1]->WorkLocal[2] == 0*) GOTO 0x0532
134: 0x0515 [0x41] ExtData[1]->WorkLocal[1] = ExtData[1]->WorkLocal[4] (bits 0*-15*)
135: 0x051E [0x41] ExtData[1]->WorkLocal[2] = ExtData[1]->WorkLocal[4] (bits 16*-31*)
136: 0x0527 [0x02] IF !(ExtData[1]->WorkLocal[1] == 0*) GOTO 0x0532
137: 0x052F [0x1A] CALL_SUBROUTINE(address=0x063E)
138: 0x0532 [0x02] IF !(ExtData[1]->WorkLocal[2] == 0*) GOTO 0x0557
139: 0x053A [0x41] ExtData[1]->WorkLocal[1] = ExtData[1]->WorkLocal[5] (bits 0*-15*)
140: 0x0543 [0x41] ExtData[1]->WorkLocal[2] = ExtData[1]->WorkLocal[5] (bits 16*-31*)
141: 0x054C [0x02] IF !(ExtData[1]->WorkLocal[1] == 0*) GOTO 0x0557
142: 0x0554 [0x1A] CALL_SUBROUTINE(address=0x063E)
143: 0x0557 [0x02] IF !(ExtData[1]->WorkLocal[2] == 0*) GOTO 0x058D
144: 0x055F [0x02] IF !(ExtData[1]->WorkLocal[2] >= 3*) GOTO 0x0572
145: 0x0567 [0x2B] Allied Commissary (ID: 17494774/0x010AF2F6) [7990*]:
    → "Our unit was able to reach this stronghold, though we did so bearing a great deal less than the intended cargo."
146: 0x056E [0x23] WAIT_FOR_DIALOG_INTERACTION
147: 0x056F [0x01] GOTO 0x058D
148: 0x0572 [0x02] IF !(ExtData[1]->WorkLocal[2] >= 5*) GOTO 0x0585
149: 0x057A [0x2B] Allied Commissary (ID: 17494774/0x010AF2F6) [7989*]:
    → "Our unit was able to reach this stronghold safely with the cargo. Your planning may well have been the decisive factor in the success of our mission."
150: 0x0581 [0x23] WAIT_FOR_DIALOG_INTERACTION
151: 0x0582 [0x01] GOTO 0x058D
152: 0x0585 [0x2B] Allied Commissary (ID: 17494774/0x010AF2F6) [7988*]:
    → "I am pleased to report that our unit was able to reach this stronghold safely with all of the intended cargo. The success of our mission was due in no small part to your brilliant planning."
153: 0x058C [0x23] WAIT_FOR_DIALOG_INTERACTION

SUBROUTINE_058D:
154: 0x058D [0x1E] EventEntity looks at LocalPlayer and starts talking
155: 0x0592 [0x6F] WAIT_FRAME_DELAY: Yield until WaitTime reaches zero
156: 0x0593 [0x70] WAIT_ENTITY_RENDER_FLAG: Wait while EventEntity->Render.Flags3 bit 2 is set (cancel turn if not)
157: 0x0594 [0x02] IF !(ExtData[1]->WorkLocal[2] == 0*) GOTO 0x05CC
158: 0x059C [0x02] IF !(ExtData[1]->WorkLocal[0] == 0*) GOTO 0x05AB
159: 0x05A4 [0x1D] PRINT_EVENT_MESSAGE(message_id=7357*)
    → "It seems that you were not successful in your last operation. But do not let one small failure hang heavy on your soul. Report to Sir Rasdinice and put this all behind you."
160: 0x05A7 [0x23] WAIT_FOR_DIALOG_INTERACTION
161: 0x05A8 [0x01] GOTO 0x05C9
162: 0x05AB [0x02] IF !(ExtData[1]->WorkLocal[0] == 1*) GOTO 0x05BA
163: 0x05B3 [0x1D] PRINT_EVENT_MESSAGE(message_id=7358*)
    → "Weren't so lucky during that last operation, were you? Well, don't worry about it too much. Report to First Centurion Hieronymus and get some rest, soldier."
164: 0x05B6 [0x23] WAIT_FOR_DIALOG_INTERACTION
165: 0x05B7 [0x01] GOTO 0x05C9
166: 0x05BA [0x02] IF !(ExtData[1]->WorkLocal[0] == 2*) GOTO 0x05C9
167: 0x05C2 [0x1D] PRINT_EVENT_MESSAGE(message_id=7359*)
    → "Hmmm... Didn't do so well on that last operation, did you? I know it's hard, but it's better if you're up-front about these things. If you know what's good for you, you'll hurry down and report to Emhi Tchaoryo before the major finds out first."
168: 0x05C5 [0x23] WAIT_FOR_DIALOG_INTERACTION
169: 0x05C6 [0x01] GOTO 0x05C9

SUBROUTINE_05C9:
170: 0x05C9 [0x01] GOTO 0x05F9
171: 0x05CC [0x02] IF !(ExtData[1]->WorkLocal[0] == 0*) GOTO 0x05DB
172: 0x05D4 [0x1D] PRINT_EVENT_MESSAGE(message_id=7354*)
    → "Good show on your last operation. Now go make an official report to Sir Rasdinice."
173: 0x05D7 [0x23] WAIT_FOR_DIALOG_INTERACTION
174: 0x05D8 [0x01] GOTO 0x05F9
175: 0x05DB [0x02] IF !(ExtData[1]->WorkLocal[0] == 1*) GOTO 0x05EA
176: 0x05E3 [0x1D] PRINT_EVENT_MESSAGE(message_id=7355*)
    → "Good work on that last operation. Now report back to First Centurion Hieronymus before he has your hide!"
177: 0x05E6 [0x23] WAIT_FOR_DIALOG_INTERACTION
178: 0x05E7 [0x01] GOTO 0x05F9
179: 0x05EA [0x02] IF !(ExtData[1]->WorkLocal[0] == 2*) GOTO 0x05F9
180: 0x05F2 [0x1D] PRINT_EVENT_MESSAGE(message_id=7356*)
    → "Nice job on your last operation. Now don't forget to report back to Emhi Tchaoryo!"
181: 0x05F5 [0x23] WAIT_FOR_DIALOG_INTERACTION
182: 0x05F6 [0x01] GOTO 0x05F9

SUBROUTINE_05F9:
183: 0x05F9 [0x45] LOAD_SCHEDULED_TASK: Load scheduler "fdo1" with entities [LocalPlayer, LocalPlayer], work=[200*, 0*]
184: 0x060A [0x55] WAIT_LOAD_SCHEDULER: Wait for scheduler "fdo1" with entities [LocalPlayer, LocalPlayer], work=200*
185: 0x0619 [0x4E] SET_ENTITY_HIDE_FLAG: Hide Allied Commissary (ID: 17494774/0x010AF2F6)
186: 0x061F [0x1C] WAIT(15* ticks)
187: 0x0622 [0x46] CAMERA_CONTROL: Restore default settings
188: 0x0624 [0x45] LOAD_SCHEDULED_TASK: Load scheduler "fdi2" with entities [LocalPlayer, LocalPlayer], work=[200*, 0*]
189: 0x0635 [0x03] Work_Zone[1] = 0*
190: 0x063A [0x20] SET_CLI_EVENT_UC_FLAG: Unlock player control
191: 0x063C [0x21] END_EVENT
192: 0x063D [0x00] END_REQSTACK()

SUBROUTINE_063E:
193: 0x063E [0x02] IF !(ExtData[1]->WorkLocal[1] == 1*) GOTO 0x0651
194: 0x0646 [0x2B] Allied Commissary (ID: 17494774/0x010AF2F6) [7976*]:
    → "Unfortunately, we encountered an accident and lost a portion of our cargo."
195: 0x064D [0x23] WAIT_FOR_DIALOG_INTERACTION
196: 0x064E [0x01] GOTO 0x08E4
197: 0x0651 [0x02] IF !(ExtData[1]->WorkLocal[1] == 2*) GOTO 0x0671
198: 0x0659 [0x03] Work_Zone[2] = 0*
199: 0x065E [0x2B] Allied Commissary (ID: 17494774/0x010AF2F6) [7978*]:
    → "We encountered considerable beastman opposition. In accordance with mission operatives, we [engaged the enemy in open battle/attempted to evade the enemy at all cost]."
200: 0x0665 [0x23] WAIT_FOR_DIALOG_INTERACTION
201: 0x0666 [0x2B] Allied Commissary (ID: 17494774/0x010AF2F6) [7982*]:
    → "By the good graces of the Goddess, our convoy was able to emerge victorious over our adversaries."
202: 0x066D [0x23] WAIT_FOR_DIALOG_INTERACTION
203: 0x066E [0x01] GOTO 0x08E4
204: 0x0671 [0x02] IF !(ExtData[1]->WorkLocal[1] == 3*) GOTO 0x0691
205: 0x0679 [0x03] Work_Zone[2] = 0*
206: 0x067E [0x2B] Allied Commissary (ID: 17494774/0x010AF2F6) [7979*]:
    → "We encountered a superior beastman assault force. In accordance with mission operatives, we [engaged the enemy in open battle/attempted to evade the enemy at all cost]."
207: 0x0685 [0x23] WAIT_FOR_DIALOG_INTERACTION
208: 0x0686 [0x2B] Allied Commissary (ID: 17494774/0x010AF2F6) [7982*]:
    → "By the good graces of the Goddess, our convoy was able to emerge victorious over our adversaries."
209: 0x068D [0x23] WAIT_FOR_DIALOG_INTERACTION
210: 0x068E [0x01] GOTO 0x08E4
211: 0x0691 [0x02] IF !(ExtData[1]->WorkLocal[1] == 4*) GOTO 0x06B1
212: 0x0699 [0x03] Work_Zone[2] = 0*
213: 0x069E [0x2B] Allied Commissary (ID: 17494774/0x010AF2F6) [7980*]:
    → "We encountered a beastman supply convoy, who was also made immediately aware of our presence. In accordance with mission operatives, we [engaged the enemy in open battle/attempted to evade the enemy at all cost]."
214: 0x06A5 [0x23] WAIT_FOR_DIALOG_INTERACTION
215: 0x06A6 [0x2B] Allied Commissary (ID: 17494774/0x010AF2F6) [7983*]:
    → "By the good graces of the Goddess, our convoy was able to obliterate the beastman supply contingent. In addition, we seized a significant portion of the enemy's supplies."
216: 0x06AD [0x23] WAIT_FOR_DIALOG_INTERACTION
217: 0x06AE [0x01] GOTO 0x08E4
218: 0x06B1 [0x02] IF !(ExtData[1]->WorkLocal[1] == 5*) GOTO 0x06D1
219: 0x06B9 [0x03] Work_Zone[2] = 0*
220: 0x06BE [0x2B] Allied Commissary (ID: 17494774/0x010AF2F6) [7981*]:
    → "We encountered a substantial force under the direct command of a beastman general. In accordance with mission operatives, we [engaged the enemy in open battle/attempted to evade the enemy at all cost]."
221: 0x06C5 [0x23] WAIT_FOR_DIALOG_INTERACTION
222: 0x06C6 [0x2B] Allied Commissary (ID: 17494774/0x010AF2F6) [7982*]:
    → "By the good graces of the Goddess, our convoy was able to emerge victorious over our adversaries."
223: 0x06CD [0x23] WAIT_FOR_DIALOG_INTERACTION
224: 0x06CE [0x01] GOTO 0x08E4
225: 0x06D1 [0x02] IF !(ExtData[1]->WorkLocal[1] == 6*) GOTO 0x06F1
226: 0x06D9 [0x03] Work_Zone[2] = 1*
227: 0x06DE [0x2B] Allied Commissary (ID: 17494774/0x010AF2F6) [7978*]:
    → "We encountered considerable beastman opposition. In accordance with mission operatives, we [engaged the enemy in open battle/attempted to evade the enemy at all cost]."
228: 0x06E5 [0x23] WAIT_FOR_DIALOG_INTERACTION
229: 0x06E6 [0x2B] Allied Commissary (ID: 17494774/0x010AF2F6) [7985*]:
    → "By the good graces of the Goddess, we narrowly succeeded in throwing the beastmen ranks into chaos and disarray."
230: 0x06ED [0x23] WAIT_FOR_DIALOG_INTERACTION
231: 0x06EE [0x01] GOTO 0x08E4
232: 0x06F1 [0x02] IF !(ExtData[1]->WorkLocal[1] == 7*) GOTO 0x0711
233: 0x06F9 [0x03] Work_Zone[2] = 1*
234: 0x06FE [0x2B] Allied Commissary (ID: 17494774/0x010AF2F6) [7979*]:
    → "We encountered a superior beastman assault force. In accordance with mission operatives, we [engaged the enemy in open battle/attempted to evade the enemy at all cost]."
235: 0x0705 [0x23] WAIT_FOR_DIALOG_INTERACTION
236: 0x0706 [0x2B] Allied Commissary (ID: 17494774/0x010AF2F6) [7985*]:
    → "By the good graces of the Goddess, we narrowly succeeded in throwing the beastmen ranks into chaos and disarray."
237: 0x070D [0x23] WAIT_FOR_DIALOG_INTERACTION
238: 0x070E [0x01] GOTO 0x08E4
239: 0x0711 [0x02] IF !(ExtData[1]->WorkLocal[1] == 8*) GOTO 0x0731
240: 0x0719 [0x03] Work_Zone[2] = 1*
241: 0x071E [0x2B] Allied Commissary (ID: 17494774/0x010AF2F6) [7980*]:
    → "We encountered a beastman supply convoy, who was also made immediately aware of our presence. In accordance with mission operatives, we [engaged the enemy in open battle/attempted to evade the enemy at all cost]."
242: 0x0725 [0x23] WAIT_FOR_DIALOG_INTERACTION
243: 0x0726 [0x2B] Allied Commissary (ID: 17494774/0x010AF2F6) [7985*]:
    → "By the good graces of the Goddess, we narrowly succeeded in throwing the beastmen ranks into chaos and disarray."
244: 0x072D [0x23] WAIT_FOR_DIALOG_INTERACTION
245: 0x072E [0x01] GOTO 0x08E4
246: 0x0731 [0x02] IF !(ExtData[1]->WorkLocal[1] == 9*) GOTO 0x0751
247: 0x0739 [0x03] Work_Zone[2] = 1*
248: 0x073E [0x2B] Allied Commissary (ID: 17494774/0x010AF2F6) [7981*]:
    → "We encountered a substantial force under the direct command of a beastman general. In accordance with mission operatives, we [engaged the enemy in open battle/attempted to evade the enemy at all cost]."
249: 0x0745 [0x23] WAIT_FOR_DIALOG_INTERACTION
250: 0x0746 [0x2B] Allied Commissary (ID: 17494774/0x010AF2F6) [7985*]:
    → "By the good graces of the Goddess, we narrowly succeeded in throwing the beastmen ranks into chaos and disarray."
251: 0x074D [0x23] WAIT_FOR_DIALOG_INTERACTION
252: 0x074E [0x01] GOTO 0x08E4
253: 0x0751 [0x02] IF !(ExtData[1]->WorkLocal[1] == 10*) GOTO 0x0771
254: 0x0759 [0x03] Work_Zone[2] = 1*
255: 0x075E [0x2B] Allied Commissary (ID: 17494774/0x010AF2F6) [7978*]:
    → "We encountered considerable beastman opposition. In accordance with mission operatives, we [engaged the enemy in open battle/attempted to evade the enemy at all cost]."
256: 0x0765 [0x23] WAIT_FOR_DIALOG_INTERACTION
257: 0x0766 [0x2B] Allied Commissary (ID: 17494774/0x010AF2F6) [7986*]:
    → "By the good graces of the Goddess, we somehow staved off the beastman attack and shook free. However, we were forced to abandon a portion of our cargo in the process."
258: 0x076D [0x23] WAIT_FOR_DIALOG_INTERACTION
259: 0x076E [0x01] GOTO 0x08E4
260: 0x0771 [0x02] IF !(ExtData[1]->WorkLocal[1] == 11*) GOTO 0x0791
261: 0x0779 [0x03] Work_Zone[2] = 1*
262: 0x077E [0x2B] Allied Commissary (ID: 17494774/0x010AF2F6) [7979*]:
    → "We encountered a superior beastman assault force. In accordance with mission operatives, we [engaged the enemy in open battle/attempted to evade the enemy at all cost]."
263: 0x0785 [0x23] WAIT_FOR_DIALOG_INTERACTION
264: 0x0786 [0x2B] Allied Commissary (ID: 17494774/0x010AF2F6) [7986*]:
    → "By the good graces of the Goddess, we somehow staved off the beastman attack and shook free. However, we were forced to abandon a portion of our cargo in the process."
265: 0x078D [0x23] WAIT_FOR_DIALOG_INTERACTION
266: 0x078E [0x01] GOTO 0x08E4
267: 0x0791 [0x02] IF !(ExtData[1]->WorkLocal[1] == 12*) GOTO 0x07B1
268: 0x0799 [0x03] Work_Zone[2] = 1*
269: 0x079E [0x2B] Allied Commissary (ID: 17494774/0x010AF2F6) [7980*]:
    → "We encountered a beastman supply convoy, who was also made immediately aware of our presence. In accordance with mission operatives, we [engaged the enemy in open battle/attempted to evade the enemy at all cost]."
270: 0x07A5 [0x23] WAIT_FOR_DIALOG_INTERACTION
271: 0x07A6 [0x2B] Allied Commissary (ID: 17494774/0x010AF2F6) [7986*]:
    → "By the good graces of the Goddess, we somehow staved off the beastman attack and shook free. However, we were forced to abandon a portion of our cargo in the process."
272: 0x07AD [0x23] WAIT_FOR_DIALOG_INTERACTION
273: 0x07AE [0x01] GOTO 0x08E4
274: 0x07B1 [0x02] IF !(ExtData[1]->WorkLocal[1] == 13*) GOTO 0x07D1
275: 0x07B9 [0x03] Work_Zone[2] = 1*
276: 0x07BE [0x2B] Allied Commissary (ID: 17494774/0x010AF2F6) [7981*]:
    → "We encountered a substantial force under the direct command of a beastman general. In accordance with mission operatives, we [engaged the enemy in open battle/attempted to evade the enemy at all cost]."
277: 0x07C5 [0x23] WAIT_FOR_DIALOG_INTERACTION
278: 0x07C6 [0x2B] Allied Commissary (ID: 17494774/0x010AF2F6) [7986*]:
    → "By the good graces of the Goddess, we somehow staved off the beastman attack and shook free. However, we were forced to abandon a portion of our cargo in the process."
279: 0x07CD [0x23] WAIT_FOR_DIALOG_INTERACTION
280: 0x07CE [0x01] GOTO 0x08E4
281: 0x07D1 [0x02] IF !(ExtData[1]->WorkLocal[1] == 16*) GOTO 0x07F1
282: 0x07D9 [0x03] Work_Zone[2] = 0*
283: 0x07DE [0x2B] Allied Commissary (ID: 17494774/0x010AF2F6) [7978*]:
    → "We encountered considerable beastman opposition. In accordance with mission operatives, we [engaged the enemy in open battle/attempted to evade the enemy at all cost]."
284: 0x07E5 [0x23] WAIT_FOR_DIALOG_INTERACTION
285: 0x07E6 [0x2B] Allied Commissary (ID: 17494774/0x010AF2F6) [7984*]:
    → "However, despite our best efforts, our convoy was utterly defeated. All of our cargo was lost to the enemy horde."
286: 0x07ED [0x23] WAIT_FOR_DIALOG_INTERACTION
287: 0x07EE [0x01] GOTO 0x08E4
288: 0x07F1 [0x02] IF !(ExtData[1]->WorkLocal[1] == 17*) GOTO 0x0811
289: 0x07F9 [0x03] Work_Zone[2] = 0*
290: 0x07FE [0x2B] Allied Commissary (ID: 17494774/0x010AF2F6) [7979*]:
    → "We encountered a superior beastman assault force. In accordance with mission operatives, we [engaged the enemy in open battle/attempted to evade the enemy at all cost]."
291: 0x0805 [0x23] WAIT_FOR_DIALOG_INTERACTION
292: 0x0806 [0x2B] Allied Commissary (ID: 17494774/0x010AF2F6) [7984*]:
    → "However, despite our best efforts, our convoy was utterly defeated. All of our cargo was lost to the enemy horde."
293: 0x080D [0x23] WAIT_FOR_DIALOG_INTERACTION
294: 0x080E [0x01] GOTO 0x08E4
295: 0x0811 [0x02] IF !(ExtData[1]->WorkLocal[1] == 18*) GOTO 0x0831
296: 0x0819 [0x03] Work_Zone[2] = 0*
297: 0x081E [0x2B] Allied Commissary (ID: 17494774/0x010AF2F6) [7980*]:
    → "We encountered a beastman supply convoy, who was also made immediately aware of our presence. In accordance with mission operatives, we [engaged the enemy in open battle/attempted to evade the enemy at all cost]."
298: 0x0825 [0x23] WAIT_FOR_DIALOG_INTERACTION
299: 0x0826 [0x2B] Allied Commissary (ID: 17494774/0x010AF2F6) [7984*]:
    → "However, despite our best efforts, our convoy was utterly defeated. All of our cargo was lost to the enemy horde."
300: 0x082D [0x23] WAIT_FOR_DIALOG_INTERACTION
301: 0x082E [0x01] GOTO 0x08E4
302: 0x0831 [0x02] IF !(ExtData[1]->WorkLocal[1] == 14*) GOTO 0x0851
303: 0x0839 [0x03] Work_Zone[2] = 0*
304: 0x083E [0x2B] Allied Commissary (ID: 17494774/0x010AF2F6) [7981*]:
    → "We encountered a substantial force under the direct command of a beastman general. In accordance with mission operatives, we [engaged the enemy in open battle/attempted to evade the enemy at all cost]."
305: 0x0845 [0x23] WAIT_FOR_DIALOG_INTERACTION
306: 0x0846 [0x2B] Allied Commissary (ID: 17494774/0x010AF2F6) [7984*]:
    → "However, despite our best efforts, our convoy was utterly defeated. All of our cargo was lost to the enemy horde."
307: 0x084D [0x23] WAIT_FOR_DIALOG_INTERACTION
308: 0x084E [0x01] GOTO 0x08E4
309: 0x0851 [0x02] IF !(ExtData[1]->WorkLocal[1] == 19*) GOTO 0x0871
310: 0x0859 [0x03] Work_Zone[2] = 1*
311: 0x085E [0x2B] Allied Commissary (ID: 17494774/0x010AF2F6) [7978*]:
    → "We encountered considerable beastman opposition. In accordance with mission operatives, we [engaged the enemy in open battle/attempted to evade the enemy at all cost]."
312: 0x0865 [0x23] WAIT_FOR_DIALOG_INTERACTION
313: 0x0866 [0x2B] Allied Commissary (ID: 17494774/0x010AF2F6) [7987*]:
    → "However, we were unable to repel the beastman's relentless pursuit, and in the end our convoy was scattered. All of our cargo was lost to the enemy horde."
314: 0x086D [0x23] WAIT_FOR_DIALOG_INTERACTION
315: 0x086E [0x01] GOTO 0x08E4
316: 0x0871 [0x02] IF !(ExtData[1]->WorkLocal[1] == 20*) GOTO 0x0891
317: 0x0879 [0x03] Work_Zone[2] = 1*
318: 0x087E [0x2B] Allied Commissary (ID: 17494774/0x010AF2F6) [7979*]:
    → "We encountered a superior beastman assault force. In accordance with mission operatives, we [engaged the enemy in open battle/attempted to evade the enemy at all cost]."
319: 0x0885 [0x23] WAIT_FOR_DIALOG_INTERACTION
320: 0x0886 [0x2B] Allied Commissary (ID: 17494774/0x010AF2F6) [7987*]:
    → "However, we were unable to repel the beastman's relentless pursuit, and in the end our convoy was scattered. All of our cargo was lost to the enemy horde."
321: 0x088D [0x23] WAIT_FOR_DIALOG_INTERACTION
322: 0x088E [0x01] GOTO 0x08E4
323: 0x0891 [0x02] IF !(ExtData[1]->WorkLocal[1] == 21*) GOTO 0x08B1
324: 0x0899 [0x03] Work_Zone[2] = 1*
325: 0x089E [0x2B] Allied Commissary (ID: 17494774/0x010AF2F6) [7980*]:
    → "We encountered a beastman supply convoy, who was also made immediately aware of our presence. In accordance with mission operatives, we [engaged the enemy in open battle/attempted to evade the enemy at all cost]."
326: 0x08A5 [0x23] WAIT_FOR_DIALOG_INTERACTION
327: 0x08A6 [0x2B] Allied Commissary (ID: 17494774/0x010AF2F6) [7987*]:
    → "However, we were unable to repel the beastman's relentless pursuit, and in the end our convoy was scattered. All of our cargo was lost to the enemy horde."
328: 0x08AD [0x23] WAIT_FOR_DIALOG_INTERACTION
329: 0x08AE [0x01] GOTO 0x08E4
330: 0x08B1 [0x02] IF !(ExtData[1]->WorkLocal[1] == 15*) GOTO 0x08D1
331: 0x08B9 [0x03] Work_Zone[2] = 1*
332: 0x08BE [0x2B] Allied Commissary (ID: 17494774/0x010AF2F6) [7981*]:
    → "We encountered a substantial force under the direct command of a beastman general. In accordance with mission operatives, we [engaged the enemy in open battle/attempted to evade the enemy at all cost]."
333: 0x08C5 [0x23] WAIT_FOR_DIALOG_INTERACTION
334: 0x08C6 [0x2B] Allied Commissary (ID: 17494774/0x010AF2F6) [7987*]:
    → "However, we were unable to repel the beastman's relentless pursuit, and in the end our convoy was scattered. All of our cargo was lost to the enemy horde."
335: 0x08CD [0x23] WAIT_FOR_DIALOG_INTERACTION
336: 0x08CE [0x01] GOTO 0x08E4
337: 0x08D1 [0x02] IF !(ExtData[1]->WorkLocal[1] == 22*) GOTO 0x08E4
338: 0x08D9 [0x2B] Allied Commissary (ID: 17494774/0x010AF2F6) [7977*]:
    → "Most regrettably, we encountered an accident and lost out entire load of cargo."
339: 0x08E0 [0x23] WAIT_FOR_DIALOG_INTERACTION
340: 0x08E1 [0x01] GOTO 0x08E4

SUBROUTINE_08E4:
341: 0x08E4 [0x1B] RETURN
```

#### Data or dead code:

```
# Dead code (unreachable instructions):
     0x08E5 [0x03] ExtData[1]->WorkLocal[22] = Work_Zone[4]
     0x08EA [0x20] SET_CLI_EVENT_UC_FLAG: Lock player control
     0x08EC [0x1E] EventEntity looks at LocalPlayer and starts talking
     0x08F1 [0x6F] WAIT_FRAME_DELAY: Yield until WaitTime reaches zero
     0x08F2 [0x70] WAIT_ENTITY_RENDER_FLAG: Wait while EventEntity->Render.Flags3 bit 2 is set (cancel turn if not)
     0x08F3 [0x02] IF !(ExtData[1]->WorkLocal[14] == 0*) GOTO 0x0905
     0x08FB [0x1D] PRINT_EVENT_MESSAGE(message_id=7086*)
    → "Greetings. I am % of the San d'Orian Provincial Knights."
     0x08FE [0x23] WAIT_FOR_DIALOG_INTERACTION
     0x08FF [0x01] GOTO 0x093B
     0x0902 [0x01] GOTO 0x093B
     0x0905 [0x02] IF !(ExtData[1]->WorkLocal[14] == 1*) GOTO 0x0917
     0x090D [0x1D] PRINT_EVENT_MESSAGE(message_id=7087*)
    → "Greetings. I am % of the Bastokan Legion."
     0x0910 [0x23] WAIT_FOR_DIALOG_INTERACTION
     0x0911 [0x01] GOTO 0x093B
     0x0914 [0x01] GOTO 0x093B
     0x0917 [0x02] IF !(ExtData[1]->WorkLocal[14] == 2*) GOTO 0x0929
     0x091F [0x1D] PRINT_EVENT_MESSAGE(message_id=7088*)
    → "Greetings. I am % of the Federation of Windurst."
     0x0922 [0x23] WAIT_FOR_DIALOG_INTERACTION
     0x0923 [0x01] GOTO 0x093B
     0x0926 [0x01] GOTO 0x093B
     0x0929 [0x02] IF !(ExtData[1]->WorkLocal[14] == 4*) GOTO 0x093B
     0x0931 [0x1D] PRINT_EVENT_MESSAGE(message_id=7089*)
    → "Greetings. I am %, Campaign Arbiter for the Allied Forces."
     0x0934 [0x23] WAIT_FOR_DIALOG_INTERACTION
     0x0935 [0x01] GOTO 0x093B
     0x0938 [0x01] GOTO 0x093B
     0x093B [0x03] ExtData[1]->WorkLocal[15] = 0*
     0x0940 [0x3E] IF !(Work_Zone[3] bit 0*) GOTO 0x094A
     0x0947 [0x01] GOTO 0x0951
     0x094A [0x3C] SET_BIT_FLAG_CONDITIONAL(target_work_offset=ExtData[1]->WorkLocal[15], bit_index_work_offset=3*, condition_work_offset=1*)
     0x0951 [0x3E] IF !(Work_Zone[3] bit 2*) GOTO 0x095B
     0x0958 [0x01] GOTO 0x0969
     0x095B [0x3C] SET_BIT_FLAG_CONDITIONAL(target_work_offset=ExtData[1]->WorkLocal[15], bit_index_work_offset=2*, condition_work_offset=1*)
     0x0962 [0x3C] SET_BIT_FLAG_CONDITIONAL(target_work_offset=ExtData[1]->WorkLocal[15], bit_index_work_offset=3*, condition_work_offset=1*)
     0x0969 [0x3E] IF !(Work_Zone[3] bit 3*) GOTO 0x0978
     0x0970 [0x03] ExtData[1]->WorkLocal[18] = 1*
     0x0975 [0x01] GOTO 0x097D
     0x0978 [0x03] ExtData[1]->WorkLocal[18] = 0*
     0x097D [0x3E] IF !(Work_Zone[3] bit 4*) GOTO 0x098E
     0x0984 [0x3C] SET_BIT_FLAG_CONDITIONAL(target_work_offset=ExtData[1]->WorkLocal[15], bit_index_work_offset=2*, condition_work_offset=1*)
     0x098B [0x01] GOTO 0x09A3
     0x098E [0x3C] SET_BIT_FLAG_CONDITIONAL(target_work_offset=ExtData[1]->WorkLocal[15], bit_index_work_offset=1*, condition_work_offset=1*)
     0x0995 [0x3C] SET_BIT_FLAG_CONDITIONAL(target_work_offset=ExtData[1]->WorkLocal[15], bit_index_work_offset=3*, condition_work_offset=1*)
     0x099C [0x3C] SET_BIT_FLAG_CONDITIONAL(target_work_offset=ExtData[1]->WorkLocal[15], bit_index_work_offset=4*, condition_work_offset=1*)
     0x09A3 [0x3E] IF !(Work_Zone[3] bit 5*) GOTO 0x09B1
     0x09AA [0x3C] SET_BIT_FLAG_CONDITIONAL(target_work_offset=ExtData[1]->WorkLocal[15], bit_index_work_offset=5*, condition_work_offset=1*)
     0x09B1 [0x3E] IF !(Work_Zone[3] bit 6*) GOTO 0x09BE
     0x09B8 [0x05] ExtData[1]->WorkLocal[24] = 1
     0x09BB [0x01] GOTO 0x09C1
     0x09BE [0x06] ExtData[1]->WorkLocal[24] = 0
     0x09C1 [0x41] ExtData[1]->WorkLocal[17] = Work_Zone[7] (bits 0*-15*)
     0x09CA [0x41] ExtData[1]->WorkLocal[16] = Work_Zone[7] (bits 16*-31*)
     0x09D3 [0x02] IF !(ExtData[1]->WorkLocal[16] == 0*) GOTO 0x09E2
     0x09DB [0x3C] SET_BIT_FLAG_CONDITIONAL(target_work_offset=ExtData[1]->WorkLocal[15], bit_index_work_offset=3*, condition_work_offset=1*)
     0x09E2 [0x03] ExtData[1]->WorkLocal[19] = 0*
     0x09E7 [0x0E] ExtData[1]->WorkLocal[19] |= 2124167461*
     0x09EC [0x0E] ExtData[1]->WorkLocal[19] |= 4292746*
     0x09F1 [0x0E] ExtData[1]->WorkLocal[19] |= 19023440*
     0x09F6 [0x03] ExtData[1]->WorkLocal[20] = 0*
     0x09FB [0x0E] ExtData[1]->WorkLocal[20] |= 0*
     0x0A00 [0x0E] ExtData[1]->WorkLocal[20] |= 0*
     0x0A05 [0x0E] ExtData[1]->WorkLocal[20] |= 0*
     0x0A0A [0x02] IF !(Work_Zone[8] == ExtData[1]->WorkLocal[19]) GOTO 0x0A21
     0x0A12 [0x02] IF !(Work_Zone[9] == ExtData[1]->WorkLocal[20]) GOTO 0x0A21
     0x0A1A [0x3C] SET_BIT_FLAG_CONDITIONAL(target_work_offset=ExtData[1]->WorkLocal[15], bit_index_work_offset=3*, condition_work_offset=1*)
     0x0A21 [0x24] CREATE_DIALOG(message_id=7090*, default_option=0*, option_flags=ExtData[1]->WorkLocal[15])
    → "What can I help you with? [Nothing./Performance assessment./New Allied Tags./Temporary items./Union registration./Teleportation./Information on the Allied Campaign.]"
     0x0A28 [0x25] WAIT_DIALOG_SELECT()
     0x0A29 [0x02] IF !(Work_Zone[0] == 0*) GOTO 0x0A34
     0x0A31 [0x01] GOTO 0x0ACC
     0x0A34 [0x02] IF !(Work_Zone[0] == 1*) GOTO 0x0A42
     0x0A3C [0x1A] CALL_SUBROUTINE(address=0x0AD1)
     0x0A3F [0x01] GOTO 0x0ACC
     0x0A42 [0x02] IF !(Work_Zone[0] == 2*) GOTO 0x0A6E
     0x0A4A [0x02] IF !(ExtData[1]->WorkLocal[18] == 0*) GOTO 0x0A67
     0x0A52 [0x02] IF !(ExtData[1]->WorkLocal[24] == 0*) GOTO 0x0A60
     0x0A5A [0x1A] CALL_SUBROUTINE(address=0x0ADC)
     0x0A5D [0x01] GOTO 0x0A64
     0x0A60 [0x1D] PRINT_EVENT_MESSAGE(message_id=7096*)
    → "You've already undergone an evaluation for this battle, or had you forgotten? As much as I'd like to, I'm forbidden from providing you with a new set of Allied Taegs until the next battle begins."
     0x0A63 [0x23] WAIT_FOR_DIALOG_INTERACTION
     0x0A64 [0x01] GOTO 0x0A6B
     0x0A67 [0x1D] PRINT_EVENT_MESSAGE(message_id=7136*)
    → "I am sorry, <Player>, but your campaign medal has expired. I cannot issue tags to anyone not authorized by the Allied Forces. Return to your nation's capital and speak with a Campaign Evaluation Official."
     0x0A6A [0x23] WAIT_FOR_DIALOG_INTERACTION
     0x0A6B [0x01] GOTO 0x0ACC
     0x0A6E [0x02] IF !(Work_Zone[0] == 3*) GOTO 0x0A8B
     0x0A76 [0x02] IF !(ExtData[1]->WorkLocal[18] == 0*) GOTO 0x0A84
     0x0A7E [0x1A] CALL_SUBROUTINE(address=0x0AF5)
     0x0A81 [0x01] GOTO 0x0A88
     0x0A84 [0x1D] PRINT_EVENT_MESSAGE(message_id=7136*)
    → "I am sorry, <Player>, but your campaign medal has expired. I cannot issue tags to anyone not authorized by the Allied Forces. Return to your nation's capital and speak with a Campaign Evaluation Official."
     0x0A87 [0x23] WAIT_FOR_DIALOG_INTERACTION
     0x0A88 [0x01] GOTO 0x0ACC
     0x0A8B [0x02] IF !(Work_Zone[0] == 4*) GOTO 0x0AB0
     0x0A93 [0x03] Work_Zone[1] = 111*
     0x0A98 [0x43] SEND_EVENT_UPDATE: Send pending tag to server (packet 0x005B)
     0x0A9A [0x43] SEND_EVENT_UPDATE: Check pending flag (skip if not pending)
     0x0A9C [0x02] IF !(Work_Zone[4] == 0*) GOTO 0x0AAA
     0x0AA4 [0x1A] CALL_SUBROUTINE(address=0x1579)
     0x0AA7 [0x01] GOTO 0x0AAD
     0x0AAA [0x01] GOTO 0x0ACF
     0x0AAD [0x01] GOTO 0x0ACC
     0x0AB0 [0x02] IF !(Work_Zone[0] == 5*) GOTO 0x0ABE
     0x0AB8 [0x1A] CALL_SUBROUTINE(address=0x179F)
     0x0ABB [0x01] GOTO 0x0ACC
     0x0ABE [0x02] IF !(Work_Zone[0] == 6*) GOTO 0x0ACC
     0x0AC6 [0x1A] CALL_SUBROUTINE(address=0x1860)
     0x0AC9 [0x01] GOTO 0x0ACC
     0x0ACC [0x01] GOTO 0x0ACF
     0x0ACF [0x21] END_EVENT
     0x0AD0 [0x1B] RETURN
     0x0AD1 [0x42] SET_CLI_EVENT_CANCEL_DATA()
     0x0AD2 [0x1D] PRINT_EVENT_MESSAGE(message_id=7093*)
    → "Understood. I shall now judge your performance and award the proper remuneration."
     0x0AD5 [0x23] WAIT_FOR_DIALOG_INTERACTION
     0x0AD6 [0x03] Work_Zone[1] = 5*
     0x0ADB [0x1B] RETURN
     0x0ADC [0x42] SET_CLI_EVENT_CANCEL_DATA()
     0x0ADD [0x1D] PRINT_EVENT_MESSAGE(message_id=7095*)
    → "Understood. I shall prepare a new set of tags for you now."
     0x0AE0 [0x23] WAIT_FOR_DIALOG_INTERACTION
     0x0AE1 [0x73] EventEntity casts magic 483* on LocalPlayer
     0x0AEC [0x1C] WAIT(260* ticks)
     0x0AEF [0x03] Work_Zone[1] = 3*
     0x0AF4 [0x1B] RETURN
     0x0AF5 [0x03] ExtData[1]->WorkLocal[33] = 0*
     0x0AFA [0x03] ExtData[1]->WorkLocal[29] = 0*
     0x0AFF [0x03] ExtData[1]->WorkLocal[25] = 0*
     0x0B04 [0x03] ExtData[1]->WorkLocal[26] = 0*
     0x0B09 [0x03] ExtData[1]->WorkLocal[27] = 0*
