# 17494729

## Common Data

| Field            | Value                                |
|------------------|--------------------------------------|
| Zone             | The Eldieme Necropolis [S] (ID: 175) |
| Block Size       | 872 bytes                            |
| Total Events     | 27                                   |
| References Count | 23                                   |

## List of Events

| Event ID                   | Entrypoint   |   Size |   Instructions |
|----------------------------|--------------|--------|----------------|
| [65535](#event-65535)      | 0x0000       |      1 |              1 |
| [10](#event-10)            | 0x0001       |      1 |              1 |
| [12](#event-12)            | 0x0002       |      1 |              1 |
| [14](#event-14)            | 0x0003       |      1 |              1 |
| [18](#event-18)            | 0x0004       |      1 |              1 |
| [20](#event-20)            | 0x0005       |      1 |              1 |
| [23](#event-23)            | 0x0006       |      1 |              1 |
| [25](#event-25)            | 0x0007       |      1 |              1 |
| [27](#event-27)            | 0x0008       |      1 |              1 |
| [29](#event-29)            | 0x0009       |      1 |              1 |
| [31](#event-31)            | 0x000A       |      1 |              1 |
| [32](#event-32)            | 0x000B       |      1 |              1 |
| [34](#event-34)            | 0x000C       |      1 |              1 |
| [65535.1](#event-655351)   | 0x000D       |     96 |             10 |
| [65535.2](#event-655352)   | 0x006D       |     57 |              7 |
| [65535.3](#event-655353)   | 0x00A6       |     57 |              7 |
| [65535.4](#event-655354)   | 0x00DF       |     57 |              7 |
| [65535.5](#event-655355)   | 0x0118       |     57 |              7 |
| [65535.6](#event-655356)   | 0x0151       |     57 |              7 |
| [65535.7](#event-655357)   | 0x018A       |     57 |              7 |
| [65535.8](#event-655358)   | 0x01C3       |     57 |              7 |
| [65535.9](#event-655359)   | 0x01FC       |     13 |              3 |
| [65535.10](#event-6553510) | 0x0209       |     64 |              6 |
| [65535.11](#event-6553511) | 0x0249       |     31 |              5 |
| [65535.12](#event-6553512) | 0x0268       |     13 |              3 |
| [65535.13](#event-6553513) | 0x0275       |     12 |              3 |
| [65535.14](#event-6553514) | 0x0281       |     12 |              3 |

## DAT References (imed_data)

|   Index | Hex Value   |   Dec Value |
|---------|-------------|-------------|
|       0 | 0x050A      |        1290 |
|       1 | 0x0078      |         120 |
|       2 | 0x0095      |         149 |
|       3 | 0x0000      |           0 |
|       4 | 0x0179      |         377 |
|       5 | 0x003C      |          60 |
|       6 | 0x0096      |         150 |
|       7 | 0x0510      |        1296 |
|       8 | 0x001E      |          30 |
|       9 | 0x0080      |         128 |
|      10 | 0x0001      |           1 |
|      11 | 0x0069      |         105 |
|      12 | 0x017D      |         381 |
|      13 | 0x054A      |        1354 |
|      14 | 0x0013      |          19 |
|      15 | 0xFFFA65B6  |  4294600118 |
|      16 | 0xFFFF65F4  |  4294927860 |
|      17 | 0xFFFFAB3C  |  4294945596 |
|      18 | 0x0469      |        1129 |
|      19 | 0xFFFB9AF5  |  4294679285 |
|      20 | 0xFFFE61C0  |  4294861248 |
|      21 | 0xFFFF2540  |  4294911296 |
|      22 | 0x0768      |        1896 |

## Events

### Event 65535

#### Metadata

| Field        | Value   |
|--------------|---------|
| Entrypoint   | 0x0000  |
| Data Size    | 1 bytes |
| Instructions | 1       |

```
      00 01 02 03 04 05 06 07  08 09 0A 0B 0C 0D 0E 0F
      -- -- -- -- -- -- -- --  -- -- -- -- -- -- -- --
0000: 00                                                .               
```

#### Opcodes

```
  0: 0x0000 [0x00] END_REQSTACK()
```

### Event 10

#### Metadata

| Field        | Value   |
|--------------|---------|
| Entrypoint   | 0x0001  |
| Data Size    | 1 bytes |
| Instructions | 1       |

```
      00 01 02 03 04 05 06 07  08 09 0A 0B 0C 0D 0E 0F
      -- -- -- -- -- -- -- --  -- -- -- -- -- -- -- --
0000:    00                                              .              
```

#### Opcodes

```
  0: 0x0001 [0x00] END_REQSTACK()
```

### Event 12

#### Metadata

| Field        | Value   |
|--------------|---------|
| Entrypoint   | 0x0002  |
| Data Size    | 1 bytes |
| Instructions | 1       |

```
      00 01 02 03 04 05 06 07  08 09 0A 0B 0C 0D 0E 0F
      -- -- -- -- -- -- -- --  -- -- -- -- -- -- -- --
0000:       00                                            .             
```

#### Opcodes

```
  0: 0x0002 [0x00] END_REQSTACK()
```

### Event 14

#### Metadata

| Field        | Value   |
|--------------|---------|
| Entrypoint   | 0x0003  |
| Data Size    | 1 bytes |
| Instructions | 1       |

```
      00 01 02 03 04 05 06 07  08 09 0A 0B 0C 0D 0E 0F
      -- -- -- -- -- -- -- --  -- -- -- -- -- -- -- --
0000:          00                                          .            
```

#### Opcodes

```
  0: 0x0003 [0x00] END_REQSTACK()
```

### Event 18

#### Metadata

| Field        | Value   |
|--------------|---------|
| Entrypoint   | 0x0004  |
| Data Size    | 1 bytes |
| Instructions | 1       |

```
      00 01 02 03 04 05 06 07  08 09 0A 0B 0C 0D 0E 0F
      -- -- -- -- -- -- -- --  -- -- -- -- -- -- -- --
0000:             00                                        .           
```

#### Opcodes

```
  0: 0x0004 [0x00] END_REQSTACK()
```

### Event 20

#### Metadata

| Field        | Value   |
|--------------|---------|
| Entrypoint   | 0x0005  |
| Data Size    | 1 bytes |
| Instructions | 1       |

```
      00 01 02 03 04 05 06 07  08 09 0A 0B 0C 0D 0E 0F
      -- -- -- -- -- -- -- --  -- -- -- -- -- -- -- --
0000:                00                                      .          
```

#### Opcodes

```
  0: 0x0005 [0x00] END_REQSTACK()
```

### Event 23

#### Metadata

| Field        | Value   |
|--------------|---------|
| Entrypoint   | 0x0006  |
| Data Size    | 1 bytes |
| Instructions | 1       |

```
      00 01 02 03 04 05 06 07  08 09 0A 0B 0C 0D 0E 0F
      -- -- -- -- -- -- -- --  -- -- -- -- -- -- -- --
0000:                   00                                    .         
```

#### Opcodes

```
  0: 0x0006 [0x00] END_REQSTACK()
```

### Event 25

#### Metadata

| Field        | Value   |
|--------------|---------|
| Entrypoint   | 0x0007  |
| Data Size    | 1 bytes |
| Instructions | 1       |

```
      00 01 02 03 04 05 06 07  08 09 0A 0B 0C 0D 0E 0F
      -- -- -- -- -- -- -- --  -- -- -- -- -- -- -- --
0000:                      00                                  .        
```

#### Opcodes

```
  0: 0x0007 [0x00] END_REQSTACK()
```

### Event 27

#### Metadata

| Field        | Value   |
|--------------|---------|
| Entrypoint   | 0x0008  |
| Data Size    | 1 bytes |
| Instructions | 1       |

```
      00 01 02 03 04 05 06 07  08 09 0A 0B 0C 0D 0E 0F
      -- -- -- -- -- -- -- --  -- -- -- -- -- -- -- --
0000:                          00                               .       
```

#### Opcodes

```
  0: 0x0008 [0x00] END_REQSTACK()
```

### Event 29

#### Metadata

| Field        | Value   |
|--------------|---------|
| Entrypoint   | 0x0009  |
| Data Size    | 1 bytes |
| Instructions | 1       |

```
      00 01 02 03 04 05 06 07  08 09 0A 0B 0C 0D 0E 0F
      -- -- -- -- -- -- -- --  -- -- -- -- -- -- -- --
0000:                             00                             .      
```

#### Opcodes

```
  0: 0x0009 [0x00] END_REQSTACK()
```

### Event 31

#### Metadata

| Field        | Value   |
|--------------|---------|
| Entrypoint   | 0x000A  |
| Data Size    | 1 bytes |
| Instructions | 1       |

```
      00 01 02 03 04 05 06 07  08 09 0A 0B 0C 0D 0E 0F
      -- -- -- -- -- -- -- --  -- -- -- -- -- -- -- --
0000:                                00                           .     
```

#### Opcodes

```
  0: 0x000A [0x00] END_REQSTACK()
```

### Event 32

#### Metadata

| Field        | Value   |
|--------------|---------|
| Entrypoint   | 0x000B  |
| Data Size    | 1 bytes |
| Instructions | 1       |

```
      00 01 02 03 04 05 06 07  08 09 0A 0B 0C 0D 0E 0F
      -- -- -- -- -- -- -- --  -- -- -- -- -- -- -- --
0000:                                   00                         .    
```

#### Opcodes

```
  0: 0x000B [0x00] END_REQSTACK()
```

### Event 34

#### Metadata

| Field        | Value   |
|--------------|---------|
| Entrypoint   | 0x000C  |
| Data Size    | 1 bytes |
| Instructions | 1       |

```
      00 01 02 03 04 05 06 07  08 09 0A 0B 0C 0D 0E 0F
      -- -- -- -- -- -- -- --  -- -- -- -- -- -- -- --
0000:                                      00                       .   
```

#### Opcodes

```
  0: 0x000C [0x00] END_REQSTACK()
```

### Event 65535.1

#### Metadata

| Field        | Value    |
|--------------|----------|
| Entrypoint   | 0x000D   |
| Data Size    | 96 bytes |
| Instructions | 10       |

```
      00 01 02 03 04 05 06 07  08 09 0A 0B 0C 0D 0E 0F
      -- -- -- -- -- -- -- --  -- -- -- -- -- -- -- --
0000:                                         5B 00 80               [..
0010: CC F2 0A 01 CC F2 0A 01  72 62 30 30 1C 01 80 BB  ........rb00....
0020: 02 80 D0 F2 0A 01 D0 F2  0A 01 6D 61 69 6E 03 80  ..........main..
0030: 27 10 F0 FF FF 7F 05 52  04 80 F0 FF FF 7F F0 FF  '......R........
0040: FF 7F 73 63 30 35 45 04  80 F0 FF FF 7F F0 FF FF  ..sc05E.........
0050: 7F 73 63 30 36 03 80 1C  01 80 5B 00 80 CC F2 0A  .sc06.....[.....
0060: 01 CC F2 0A 01 72 62 30  31 1C 01 80 00           .....rb01....   
```

#### Opcodes

```
  0: 0x000D [0x5B] LOAD_EXT_SCHEDULER: Load scheduler "rb00" with entities [Erlene (ID: 17494732/0x010AF2CC), Erlene (ID: 17494732/0x010AF2CC)], work=1290*
  1: 0x001C [0x1C] WAIT(120* ticks)
  2: 0x001F [0xBB] LOAD_EVENT_SCHEDULER_ALT: Load scheduler "main" with entities [Unnamed NPC (ID: 17494736/0x010AF2D0), Unnamed NPC (ID: 17494736/0x010AF2D0)], work=[149*, 0*]
  3: 0x0030 [0x27] REQ_SET(priority=0x10, entity_id=LocalPlayer, tag_num=0x05)
  4: 0x0037 [0x52] END_LOAD_SCHEDULER: End scheduler "sc05" with entities [LocalPlayer, LocalPlayer], work=377*
  5: 0x0046 [0x45] LOAD_SCHEDULED_TASK: Load scheduler "sc06" with entities [LocalPlayer, LocalPlayer], work=[377*, 0*]
  6: 0x0057 [0x1C] WAIT(120* ticks)
  7: 0x005A [0x5B] LOAD_EXT_SCHEDULER: Load scheduler "rb01" with entities [Erlene (ID: 17494732/0x010AF2CC), Erlene (ID: 17494732/0x010AF2CC)], work=1290*
  8: 0x0069 [0x1C] WAIT(120* ticks)
  9: 0x006C [0x00] END_REQSTACK()
```

### Event 65535.2

#### Metadata

| Field        | Value    |
|--------------|----------|
| Entrypoint   | 0x006D   |
| Data Size    | 57 bytes |
| Instructions | 7        |

```
      00 01 02 03 04 05 06 07  08 09 0A 0B 0C 0D 0E 0F
      -- -- -- -- -- -- -- --  -- -- -- -- -- -- -- --
0060:                                         5B 00 80               [..
0070: CC F2 0A 01 CC F2 0A 01  6C 62 30 30 1C 05 80 BB  ........lb00....
0080: 02 80 D0 F2 0A 01 D0 F2  0A 01 6D 61 69 6E 03 80  ..........main..
0090: 1C 01 80 5B 00 80 CC F2  0A 01 CC F2 0A 01 6C 62  ...[..........lb
00A0: 30 31 1C 01 80 00                                 01....          
```

#### Opcodes

```
  0: 0x006D [0x5B] LOAD_EXT_SCHEDULER: Load scheduler "lb00" with entities [Erlene (ID: 17494732/0x010AF2CC), Erlene (ID: 17494732/0x010AF2CC)], work=1290*
  1: 0x007C [0x1C] WAIT(60* ticks)
  2: 0x007F [0xBB] LOAD_EVENT_SCHEDULER_ALT: Load scheduler "main" with entities [Unnamed NPC (ID: 17494736/0x010AF2D0), Unnamed NPC (ID: 17494736/0x010AF2D0)], work=[149*, 0*]
  3: 0x0090 [0x1C] WAIT(120* ticks)
  4: 0x0093 [0x5B] LOAD_EXT_SCHEDULER: Load scheduler "lb01" with entities [Erlene (ID: 17494732/0x010AF2CC), Erlene (ID: 17494732/0x010AF2CC)], work=1290*
  5: 0x00A2 [0x1C] WAIT(120* ticks)
  6: 0x00A5 [0x00] END_REQSTACK()
```

### Event 65535.3

#### Metadata

| Field        | Value    |
|--------------|----------|
| Entrypoint   | 0x00A6   |
| Data Size    | 57 bytes |
| Instructions | 7        |

```
      00 01 02 03 04 05 06 07  08 09 0A 0B 0C 0D 0E 0F
      -- -- -- -- -- -- -- --  -- -- -- -- -- -- -- --
00A0:                   5B 00  80 CC F2 0A 01 CC F2 0A        [.........
00B0: 01 72 62 30 30 1C 05 80  BB 02 80 D0 F2 0A 01 D0  .rb00...........
00C0: F2 0A 01 6D 61 69 6E 03  80 1C 01 80 5B 00 80 CC  ...main.....[...
00D0: F2 0A 01 CC F2 0A 01 72  62 30 31 1C 01 80 00     .......rb01.... 
```

#### Opcodes

```
  0: 0x00A6 [0x5B] LOAD_EXT_SCHEDULER: Load scheduler "rb00" with entities [Erlene (ID: 17494732/0x010AF2CC), Erlene (ID: 17494732/0x010AF2CC)], work=1290*
  1: 0x00B5 [0x1C] WAIT(60* ticks)
  2: 0x00B8 [0xBB] LOAD_EVENT_SCHEDULER_ALT: Load scheduler "main" with entities [Unnamed NPC (ID: 17494736/0x010AF2D0), Unnamed NPC (ID: 17494736/0x010AF2D0)], work=[149*, 0*]
  3: 0x00C9 [0x1C] WAIT(120* ticks)
  4: 0x00CC [0x5B] LOAD_EXT_SCHEDULER: Load scheduler "rb01" with entities [Erlene (ID: 17494732/0x010AF2CC), Erlene (ID: 17494732/0x010AF2CC)], work=1290*
  5: 0x00DB [0x1C] WAIT(120* ticks)
  6: 0x00DE [0x00] END_REQSTACK()
```

### Event 65535.4

#### Metadata

| Field        | Value    |
|--------------|----------|
| Entrypoint   | 0x00DF   |
| Data Size    | 57 bytes |
| Instructions | 7        |

```
      00 01 02 03 04 05 06 07  08 09 0A 0B 0C 0D 0E 0F
      -- -- -- -- -- -- -- --  -- -- -- -- -- -- -- --
00D0:                                               5B                 [
00E0: 00 80 CC F2 0A 01 CC F2  0A 01 6C 62 30 30 1C 05  ..........lb00..
00F0: 80 BB 06 80 D0 F2 0A 01  D0 F2 0A 01 6D 61 69 6E  ............main
0100: 03 80 1C 01 80 5B 00 80  CC F2 0A 01 CC F2 0A 01  .....[..........
0110: 6C 62 30 31 1C 01 80 00                           lb01....        
```

#### Opcodes

```
  0: 0x00DF [0x5B] LOAD_EXT_SCHEDULER: Load scheduler "lb00" with entities [Erlene (ID: 17494732/0x010AF2CC), Erlene (ID: 17494732/0x010AF2CC)], work=1290*
  1: 0x00EE [0x1C] WAIT(60* ticks)
  2: 0x00F1 [0xBB] LOAD_EVENT_SCHEDULER_ALT: Load scheduler "main" with entities [Unnamed NPC (ID: 17494736/0x010AF2D0), Unnamed NPC (ID: 17494736/0x010AF2D0)], work=[150*, 0*]
  3: 0x0102 [0x1C] WAIT(120* ticks)
  4: 0x0105 [0x5B] LOAD_EXT_SCHEDULER: Load scheduler "lb01" with entities [Erlene (ID: 17494732/0x010AF2CC), Erlene (ID: 17494732/0x010AF2CC)], work=1290*
  5: 0x0114 [0x1C] WAIT(120* ticks)
  6: 0x0117 [0x00] END_REQSTACK()
```

### Event 65535.5

#### Metadata

| Field        | Value    |
|--------------|----------|
| Entrypoint   | 0x0118   |
| Data Size    | 57 bytes |
| Instructions | 7        |

```
      00 01 02 03 04 05 06 07  08 09 0A 0B 0C 0D 0E 0F
      -- -- -- -- -- -- -- --  -- -- -- -- -- -- -- --
0110:                          5B 00 80 CC F2 0A 01 CC          [.......
0120: F2 0A 01 72 62 30 30 1C  05 80 BB 06 80 D0 F2 0A  ...rb00.........
0130: 01 D0 F2 0A 01 6D 61 69  6E 03 80 1C 01 80 5B 00  .....main.....[.
0140: 80 CC F2 0A 01 CC F2 0A  01 72 62 30 31 1C 01 80  .........rb01...
0150: 00                                                .               
```

#### Opcodes

```
  0: 0x0118 [0x5B] LOAD_EXT_SCHEDULER: Load scheduler "rb00" with entities [Erlene (ID: 17494732/0x010AF2CC), Erlene (ID: 17494732/0x010AF2CC)], work=1290*
  1: 0x0127 [0x1C] WAIT(60* ticks)
  2: 0x012A [0xBB] LOAD_EVENT_SCHEDULER_ALT: Load scheduler "main" with entities [Unnamed NPC (ID: 17494736/0x010AF2D0), Unnamed NPC (ID: 17494736/0x010AF2D0)], work=[150*, 0*]
  3: 0x013B [0x1C] WAIT(120* ticks)
  4: 0x013E [0x5B] LOAD_EXT_SCHEDULER: Load scheduler "rb01" with entities [Erlene (ID: 17494732/0x010AF2CC), Erlene (ID: 17494732/0x010AF2CC)], work=1290*
  5: 0x014D [0x1C] WAIT(120* ticks)
  6: 0x0150 [0x00] END_REQSTACK()
```

### Event 65535.6

#### Metadata

| Field        | Value    |
|--------------|----------|
| Entrypoint   | 0x0151   |
| Data Size    | 57 bytes |
| Instructions | 7        |

```
      00 01 02 03 04 05 06 07  08 09 0A 0B 0C 0D 0E 0F
      -- -- -- -- -- -- -- --  -- -- -- -- -- -- -- --
0150:    5B 07 80 CE F2 0A 01  CE F2 0A 01 62 6F 6B 30   [..........bok0
0160: 1C 05 80 BB 02 80 CE F2  0A 01 CE F2 0A 01 6D 61  ..............ma
0170: 69 6E 03 80 1C 01 80 5B  07 80 CE F2 0A 01 CE F2  in.....[........
0180: 0A 01 62 6F 6B 31 1C 01  80 00                    ..bok1....      
```

#### Opcodes

```
  0: 0x0151 [0x5B] LOAD_EXT_SCHEDULER: Load scheduler "bok0" with entities [Schultz (ID: 17494734/0x010AF2CE), Schultz (ID: 17494734/0x010AF2CE)], work=1296*
  1: 0x0160 [0x1C] WAIT(60* ticks)
  2: 0x0163 [0xBB] LOAD_EVENT_SCHEDULER_ALT: Load scheduler "main" with entities [Schultz (ID: 17494734/0x010AF2CE), Schultz (ID: 17494734/0x010AF2CE)], work=[149*, 0*]
  3: 0x0174 [0x1C] WAIT(120* ticks)
  4: 0x0177 [0x5B] LOAD_EXT_SCHEDULER: Load scheduler "bok1" with entities [Schultz (ID: 17494734/0x010AF2CE), Schultz (ID: 17494734/0x010AF2CE)], work=1296*
  5: 0x0186 [0x1C] WAIT(120* ticks)
  6: 0x0189 [0x00] END_REQSTACK()
```

### Event 65535.7

#### Metadata

| Field        | Value    |
|--------------|----------|
| Entrypoint   | 0x018A   |
| Data Size    | 57 bytes |
| Instructions | 7        |

```
      00 01 02 03 04 05 06 07  08 09 0A 0B 0C 0D 0E 0F
      -- -- -- -- -- -- -- --  -- -- -- -- -- -- -- --
0180:                                5B 07 80 CE F2 0A            [.....
0190: 01 CE F2 0A 01 62 6F 6B  30 1C 05 80 BB 02 80 CE  .....bok0.......
01A0: F2 0A 01 CE F2 0A 01 6D  61 69 6E 03 80 1C 01 80  .......main.....
01B0: 5B 07 80 CE F2 0A 01 CE  F2 0A 01 62 6F 6B 31 1C  [..........bok1.
01C0: 01 80 00                                          ...             
```

#### Opcodes

```
  0: 0x018A [0x5B] LOAD_EXT_SCHEDULER: Load scheduler "bok0" with entities [Schultz (ID: 17494734/0x010AF2CE), Schultz (ID: 17494734/0x010AF2CE)], work=1296*
  1: 0x0199 [0x1C] WAIT(60* ticks)
  2: 0x019C [0xBB] LOAD_EVENT_SCHEDULER_ALT: Load scheduler "main" with entities [Schultz (ID: 17494734/0x010AF2CE), Schultz (ID: 17494734/0x010AF2CE)], work=[149*, 0*]
  3: 0x01AD [0x1C] WAIT(120* ticks)
  4: 0x01B0 [0x5B] LOAD_EXT_SCHEDULER: Load scheduler "bok1" with entities [Schultz (ID: 17494734/0x010AF2CE), Schultz (ID: 17494734/0x010AF2CE)], work=1296*
  5: 0x01BF [0x1C] WAIT(120* ticks)
  6: 0x01C2 [0x00] END_REQSTACK()
```

### Event 65535.8

#### Metadata

| Field        | Value    |
|--------------|----------|
| Entrypoint   | 0x01C3   |
| Data Size    | 57 bytes |
| Instructions | 7        |

```
      00 01 02 03 04 05 06 07  08 09 0A 0B 0C 0D 0E 0F
      -- -- -- -- -- -- -- --  -- -- -- -- -- -- -- --
01C0:          5B 07 80 CD F2  0A 01 CD F2 0A 01 62 6F     [..........bo
01D0: 6B 30 1C 05 80 BB 02 80  CD F2 0A 01 CD F2 0A 01  k0..............
01E0: 6D 61 69 6E 03 80 1C 01  80 5B 07 80 CD F2 0A 01  main.....[......
01F0: CD F2 0A 01 62 6F 6B 31  1C 01 80 00              ....bok1....    
```

#### Opcodes

```
  0: 0x01C3 [0x5B] LOAD_EXT_SCHEDULER: Load scheduler "bok0" with entities [Ulbrecht (ID: 17494733/0x010AF2CD), Ulbrecht (ID: 17494733/0x010AF2CD)], work=1296*
  1: 0x01D2 [0x1C] WAIT(60* ticks)
  2: 0x01D5 [0xBB] LOAD_EVENT_SCHEDULER_ALT: Load scheduler "main" with entities [Ulbrecht (ID: 17494733/0x010AF2CD), Ulbrecht (ID: 17494733/0x010AF2CD)], work=[149*, 0*]
  3: 0x01E6 [0x1C] WAIT(120* ticks)
  4: 0x01E9 [0x5B] LOAD_EXT_SCHEDULER: Load scheduler "bok1" with entities [Ulbrecht (ID: 17494733/0x010AF2CD), Ulbrecht (ID: 17494733/0x010AF2CD)], work=1296*
  5: 0x01F8 [0x1C] WAIT(120* ticks)
  6: 0x01FB [0x00] END_REQSTACK()
```

### Event 65535.9

#### Metadata

| Field        | Value    |
|--------------|----------|
| Entrypoint   | 0x01FC   |
| Data Size    | 13 bytes |
| Instructions | 3        |

```
      00 01 02 03 04 05 06 07  08 09 0A 0B 0C 0D 0E 0F
      -- -- -- -- -- -- -- --  -- -- -- -- -- -- -- --
01F0:                                      1C 08 80 6C              ...l
0200: D6 F2 0A 01 09 80 0A 80  00                       .........       
```

#### Opcodes

```
  0: 0x01FC [0x1C] WAIT(30* ticks)
  1: 0x01FF [0x6C] FADE_ENTITY_COLOR(entity_id=Unnamed NPC (ID: 17494742/0x010AF2D6), end_alpha=128*, fade_time=1*)
  2: 0x0208 [0x00] END_REQSTACK()
```

### Event 65535.10

#### Metadata

| Field        | Value    |
|--------------|----------|
| Entrypoint   | 0x0209   |
| Data Size    | 64 bytes |
| Instructions | 6        |

```
      00 01 02 03 04 05 06 07  08 09 0A 0B 0C 0D 0E 0F
      -- -- -- -- -- -- -- --  -- -- -- -- -- -- -- --
0200:                             1C 0B 80 52 0C 80 F0           ...R...
0210: FF FF 7F F0 FF FF 7F 61  62 31 30 45 0C 80 F0 FF  .......ab10E....
0220: FF 7F F0 FF FF 7F 61 62  31 31 03 80 5B 0D 80 CD  ......ab11..[...
0230: F2 0A 01 CD F2 0A 01 6B  65 69 30 53 CD F2 0A 01  .......kei0S....
0240: CD F2 0A 01 6B 65 69 30  00                       ....kei0.       
```

#### Opcodes

```
  0: 0x0209 [0x1C] WAIT(105* ticks)
  1: 0x020C [0x52] END_LOAD_SCHEDULER: End scheduler "ab10" with entities [LocalPlayer, LocalPlayer], work=381*
  2: 0x021B [0x45] LOAD_SCHEDULED_TASK: Load scheduler "ab11" with entities [LocalPlayer, LocalPlayer], work=[381*, 0*]
  3: 0x022C [0x5B] LOAD_EXT_SCHEDULER: Load scheduler "kei0" with entities [Ulbrecht (ID: 17494733/0x010AF2CD), Ulbrecht (ID: 17494733/0x010AF2CD)], work=1354*
  4: 0x023B [0x53] WAIT_SCHEDULER_TASK: Wait for scheduler "kei0" with entities [Ulbrecht (ID: 17494733/0x010AF2CD), Ulbrecht (ID: 17494733/0x010AF2CD)]
  5: 0x0248 [0x00] END_REQSTACK()
```

### Event 65535.11

#### Metadata

| Field        | Value    |
|--------------|----------|
| Entrypoint   | 0x0249   |
| Data Size    | 31 bytes |
| Instructions | 5        |

```
      00 01 02 03 04 05 06 07  08 09 0A 0B 0C 0D 0E 0F
      -- -- -- -- -- -- -- --  -- -- -- -- -- -- -- --
0240:                             7C 00 CC F2 0A 01 1C           |......
0250: 0B 80 66 0E 80 CC F2 0A  01 CC F2 0A 01 74 6C 73  ..f..........tls
0260: 30 7C 01 CC F2 0A 01 00                           0|......        
```

#### Opcodes

```
  0: 0x0249 [0x7C] Erlene (ID: 17494732/0x010AF2CC)->Render.Flags2 |= 0x00
  1: 0x024F [0x1C] WAIT(105* ticks)
  2: 0x0252 [0x66] LOAD_EXT_SCHEDULER_MAIN: Load scheduler "tls0" with entities [Erlene (ID: 17494732/0x010AF2CC), Erlene (ID: 17494732/0x010AF2CC)], work=19*
  3: 0x0261 [0x7C] Erlene (ID: 17494732/0x010AF2CC)->Render.Flags2 |= 0x01
  4: 0x0267 [0x00] END_REQSTACK()
```

### Event 65535.12

#### Metadata

| Field        | Value    |
|--------------|----------|
| Entrypoint   | 0x0268   |
| Data Size    | 13 bytes |
| Instructions | 3        |

```
      00 01 02 03 04 05 06 07  08 09 0A 0B 0C 0D 0E 0F
      -- -- -- -- -- -- -- --  -- -- -- -- -- -- -- --
0260:                          1C 08 80 6C D7 F2 0A 01          ...l....
0270: 09 80 0A 80 00                                    .....           
```

#### Opcodes

```
  0: 0x0268 [0x1C] WAIT(30* ticks)
  1: 0x026B [0x6C] FADE_ENTITY_COLOR(entity_id=Unnamed NPC (ID: 17494743/0x010AF2D7), end_alpha=128*, fade_time=1*)
  2: 0x0274 [0x00] END_REQSTACK()
```

### Event 65535.13

#### Metadata

| Field        | Value    |
|--------------|----------|
| Entrypoint   | 0x0275   |
| Data Size    | 12 bytes |
| Instructions | 3        |

```
      00 01 02 03 04 05 06 07  08 09 0A 0B 0C 0D 0E 0F
      -- -- -- -- -- -- -- --  -- -- -- -- -- -- -- --
0270:                33 01 37  0F 80 10 80 11 80 12 80       3.7........
0280: 00                                                .               
```

#### Opcodes

```
  0: 0x0275 [0x33] EventEntity->Render.Flags0 |= 0x200000 // Bit 21 (flag=0x01)
  1: 0x0277 [0x37] UPDATE_EVENT_POSITION_AND_DIR: x=-367.178*, z=-39.436*, y=-21.700*, direction=99.2°*
  2: 0x0280 [0x00] END_REQSTACK()
```

### Event 65535.14

#### Metadata

| Field        | Value    |
|--------------|----------|
| Entrypoint   | 0x0281   |
| Data Size    | 12 bytes |
| Instructions | 3        |

```
      00 01 02 03 04 05 06 07  08 09 0A 0B 0C 0D 0E 0F
      -- -- -- -- -- -- -- --  -- -- -- -- -- -- -- --
0280:    33 01 37 13 80 14 80  15 80 16 80 00            3.7.........   
```

#### Opcodes

```
  0: 0x0281 [0x33] EventEntity->Render.Flags0 |= 0x200000 // Bit 21 (flag=0x01)
  1: 0x0283 [0x37] UPDATE_EVENT_POSITION_AND_DIR: x=-288.011*, z=-106.048*, y=-56.000*, direction=166.6°*
  2: 0x028C [0x00] END_REQSTACK()
```
