# 17494768

## Common Data

| Field            | Value                                |
|------------------|--------------------------------------|
| Zone             | The Eldieme Necropolis [S] (ID: 175) |
| Block Size       | 184 bytes                            |
| Total Events     | 5                                    |
| References Count | 16                                   |

## List of Events

| Event ID                 | Entrypoint   |   Size |   Instructions |
|--------------------------|--------------|--------|----------------|
| [65535](#event-65535)    | 0x0000       |      1 |              1 |
| [17](#event-17)          | 0x0001       |      7 |              2 |
| [65535.1](#event-655351) | 0x0008       |     14 |              4 |
| [65535.2](#event-655352) | 0x0016       |     17 |              5 |
| [65535.3](#event-655353) | 0x0027       |     44 |             10 |

## DAT References (imed_data)

|   Index | Hex Value   |   Dec Value |
|---------|-------------|-------------|
|       0 | 0x0028      |          40 |
|       1 | 0x53213     |      340499 |
|       2 | 0xFFFE0EA4  |  4294839972 |
|       3 | 0xFFFF8300  |  4294935296 |
|       4 | 0x000D      |          13 |
|       5 | 0x54B07     |      346887 |
|       6 | 0xFFFE07EB  |  4294838251 |
|       7 | 0x001E      |          30 |
|       8 | 0x53518     |      341272 |
|       9 | 0xFFFE07C5  |  4294838213 |
|      10 | 0x53283     |      340611 |
|      11 | 0xFFFE04A3  |  4294837411 |
|      12 | 0x531A9     |      340393 |
|      13 | 0xFFFDFAAF  |  4294834863 |
|      14 | 0x531EC     |      340460 |
|      15 | 0xFFFDEF1D  |  4294831901 |

## Events

### Event 65535

#### Metadata

| Field        | Value   |
|--------------|---------|
| Entrypoint   | 0x0000  |
| Data Size    | 1 bytes |
| Instructions | 1       |

```
      00 01 02 03 04 05 06 07  08 09 0A 0B 0C 0D 0E 0F
      -- -- -- -- -- -- -- --  -- -- -- -- -- -- -- --
0000: 00                                                .               
```

#### Opcodes

```
  0: 0x0000 [0x00] END_REQSTACK()
```

### Event 17

#### Metadata

| Field        | Value   |
|--------------|---------|
| Entrypoint   | 0x0001  |
| Data Size    | 7 bytes |
| Instructions | 2       |

```
      00 01 02 03 04 05 06 07  08 09 0A 0B 0C 0D 0E 0F
      -- -- -- -- -- -- -- --  -- -- -- -- -- -- -- --
0000:    92 01 F8 FF FF 7F 00                            .......        
```

#### Opcodes

```
  0: 0x0001 [0x92] EventEntity->Render.Flags3 ^= 0x01
  1: 0x0007 [0x00] END_REQSTACK()
```

### Event 65535.1

#### Metadata

| Field        | Value    |
|--------------|----------|
| Entrypoint   | 0x0008   |
| Data Size    | 14 bytes |
| Instructions | 4        |

```
      00 01 02 03 04 05 06 07  08 09 0A 0B 0C 0D 0E 0F
      -- -- -- -- -- -- -- --  -- -- -- -- -- -- -- --
0000:                          32 00 80 1F 00 01 80 02          2.......
0010: 80 03 80 1F 01 00                                 ......          
```

#### Opcodes

```
  0: 0x0008 [0x32] ExtData[1]->MainSpeed = 40* * 0.1
  1: 0x000B [0x1F] MOVE_ENTITY: EventEntity moves to X=340.499*, Z=-127.324*, Y=-32.000*
  2: 0x0013 [0x1F] MOVE_ENTITY: Update entity position (mode=1)
  3: 0x0015 [0x00] END_REQSTACK()
```

### Event 65535.2

#### Metadata

| Field        | Value    |
|--------------|----------|
| Entrypoint   | 0x0016   |
| Data Size    | 17 bytes |
| Instructions | 5        |

```
      00 01 02 03 04 05 06 07  08 09 0A 0B 0C 0D 0E 0F
      -- -- -- -- -- -- -- --  -- -- -- -- -- -- -- --
0010:                   32 04  80 1F 00 05 80 06 80 03        2.........
0020: 80 1F 01 1C 07 80 00                              .......         
```

#### Opcodes

```
  0: 0x0016 [0x32] ExtData[1]->MainSpeed = 13* * 0.1
  1: 0x0019 [0x1F] MOVE_ENTITY: EventEntity moves to X=346.887*, Z=-129.045*, Y=-32.000*
  2: 0x0021 [0x1F] MOVE_ENTITY: Update entity position (mode=1)
  3: 0x0023 [0x1C] WAIT(30* ticks)
  4: 0x0026 [0x00] END_REQSTACK()
```

### Event 65535.3

#### Metadata

| Field        | Value    |
|--------------|----------|
| Entrypoint   | 0x0027   |
| Data Size    | 44 bytes |
| Instructions | 10       |

```
      00 01 02 03 04 05 06 07  08 09 0A 0B 0C 0D 0E 0F
      -- -- -- -- -- -- -- --  -- -- -- -- -- -- -- --
0020:                      32  04 80 1F 00 08 80 09 80         2........
0030: 03 80 1F 01 1F 00 0A 80  0B 80 03 80 1F 01 1F 00  ................
0040: 0C 80 0D 80 03 80 1F 01  1F 00 0E 80 0F 80 03 80  ................
0050: 1F 01 00                                          ...             
```

#### Opcodes

```
  0: 0x0027 [0x32] ExtData[1]->MainSpeed = 13* * 0.1
  1: 0x002A [0x1F] MOVE_ENTITY: EventEntity moves to X=341.272*, Z=-129.083*, Y=-32.000*
  2: 0x0032 [0x1F] MOVE_ENTITY: Update entity position (mode=1)
  3: 0x0034 [0x1F] MOVE_ENTITY: EventEntity moves to X=340.611*, Z=-129.885*, Y=-32.000*
  4: 0x003C [0x1F] MOVE_ENTITY: Update entity position (mode=1)
  5: 0x003E [0x1F] MOVE_ENTITY: EventEntity moves to X=340.393*, Z=-132.433*, Y=-32.000*
  6: 0x0046 [0x1F] MOVE_ENTITY: Update entity position (mode=1)
  7: 0x0048 [0x1F] MOVE_ENTITY: EventEntity moves to X=340.460*, Z=-135.395*, Y=-32.000*
  8: 0x0050 [0x1F] MOVE_ENTITY: Update entity position (mode=1)
  9: 0x0052 [0x00] END_REQSTACK()
```
