# 0x7FFFFFF0 - Zone Events

## Common Data

| Field            | Value                                |
|------------------|--------------------------------------|
| Zone             | The Eldieme Necropolis [S] (ID: 175) |
| Block Size       | 7988 bytes                           |
| Total Events     | 31                                   |
| References Count | 206                                  |

## List of Events

| Event ID                   | Entrypoint   |   Size |   Instructions |
|----------------------------|--------------|--------|----------------|
| [65535](#event-65535)      | 0x0000       |      1 |              1 |
| [65534](#event-65534)      | 0x0001       |      1 |              1 |
| [65535.1](#event-655351)   | 0x0002       |     41 |              5 |
| [65535.2](#event-655352)   | 0x002B       |     24 |              4 |
| [65535.3](#event-655353)   | 0x0043       |     24 |              4 |
| [65535.4](#event-655354)   | 0x005B       |     16 |              4 |
| [65535.5](#event-655355)   | 0x006B       |     45 |              7 |
| [65535.6](#event-655356)   | 0x0098       |     20 |              6 |
| [65535.7](#event-655357)   | 0x00AC       |      9 |              3 |
| [65535.8](#event-655358)   | 0x00B5       |      9 |              3 |
| [65535.9](#event-655359)   | 0x00BE       |     20 |              6 |
| [65535.10](#event-6553510) | 0x00D2       |     12 |              3 |
| [65535.11](#event-6553511) | 0x00DE       |      3 |              2 |
| [65535.12](#event-6553512) | 0x00E1       |     37 |              5 |
| [65535.13](#event-6553513) | 0x0106       |    185 |             37 |
| [65535.14](#event-6553514) | 0x01BF       |      6 |              2 |
| [65535.15](#event-6553515) | 0x01C5       |      6 |              2 |
| [17](#event-17)            | 0x01CB       |   5363 |            530 |
| [65535.16](#event-6553516) | 0x16BE       |      7 |              3 |
| [65535.17](#event-6553517) | 0x16C5       |      7 |              3 |
| [65535.18](#event-6553518) | 0x16CC       |      9 |              3 |
| [65535.19](#event-6553519) | 0x16D5       |     24 |              4 |
| [65535.20](#event-6553520) | 0x16ED       |    222 |             26 |
| [65535.21](#event-6553521) | 0x17CB       |    222 |             26 |
| [65535.22](#event-6553522) | 0x18A9       |    222 |             26 |
| [65535.23](#event-6553523) | 0x1987       |    222 |             26 |
| [65535.24](#event-6553524) | 0x1A65       |    222 |             26 |
| [65535.25](#event-6553525) | 0x1B43       |     15 |              5 |
| [65535.26](#event-6553526) | 0x1B52       |     15 |              5 |
| [65535.27](#event-6553527) | 0x1B61       |      7 |              3 |
| [65535.28](#event-6553528) | 0x1B68       |      7 |              3 |

## DAT References (imed_data)

|   Index | Hex Value   |   Dec Value |
|---------|-------------|-------------|
|       0 | 0x0001      |           1 |
|       1 | 0x0000      |           0 |
|       2 | 0x008C      |         140 |
|       3 | 0x00C8      |         200 |
|       4 | 0x003C      |          60 |
|       5 | 0x001E      |          30 |
|       6 | 0x0015      |          21 |
|       7 | 0x000B      |          11 |
|       8 | 0x5C6C6     |      378566 |
|       9 | 0x4C40      |       19520 |
|      10 | 0xFFFF63C0  |  4294927296 |
|      11 | 0x002D      |          45 |
|      12 | 0x2C6ED     |      181997 |
|      13 | 0x262F1     |      156401 |
|      14 | 0xFFFF939B  |  4294939547 |
|      15 | 0xFFF8FCF2  |  4294507762 |
|      16 | 0xFFFA54CF  |  4294595791 |
|      17 | 0x54BD      |       21693 |
|      18 | 0x0F66      |        3942 |
|      19 | 0x0005      |           5 |
|      20 | 0x0002      |           2 |
|      21 | 0x000A      |          10 |
|      22 | 0x0009      |           9 |
|      23 | 0x0046      |          70 |
|      24 | 0x00D2      |         210 |
|      25 | 0x0078      |         120 |
|      26 | 0x001B      |          27 |
|      27 | 0x0150      |         336 |
|      28 | 0x52FAC     |      339884 |
|      29 | 0xFFFE062B  |  4294837803 |
|      30 | 0xFFFF8301  |  4294935297 |
|      31 | 0x0007      |           7 |
|      32 | 0x53048     |      340040 |
|      33 | 0xFFFDFAA7  |  4294834855 |
|      34 | 0xFFFF8300  |  4294935296 |
|      35 | 0x0BDA      |        3034 |
|      36 | 0x5330A     |      340746 |
|      37 | 0xFFFDF565  |  4294833509 |
|      38 | 0x0C1C      |        3100 |
|      39 | 0x52BBA     |      338874 |
|      40 | 0xFFFDF665  |  4294833765 |
|      41 | 0x0556      |        1366 |
|      42 | 0x542F0     |      344816 |
|      43 | 0xFFFE0FF7  |  4294840311 |
|      44 | 0x0E71      |        3697 |
|      45 | 0x52FEC     |      339948 |
|      46 | 0xFFFDFF49  |  4294836041 |
|      47 | 0x0C92      |        3218 |
|      48 | 0x52C0B     |      338955 |
|      49 | 0xFFFDFA35  |  4294834741 |
|      50 | 0x0C19      |        3097 |
|      51 | 0x53438     |      341048 |
|      52 | 0xFFFDFB18  |  4294834968 |
|      53 | 0x0C56      |        3158 |
|      54 | 0x014E      |         334 |
|      55 | 0x000F      |          15 |
|      56 | 0x1EF2      |        7922 |
|      57 | 0x1EF3      |        7923 |
|      58 | 0x0013      |          19 |
|      59 | 0x1EF4      |        7924 |
|      60 | 0x1EF5      |        7925 |
|      61 | 0x007F      |         127 |
|      62 | 0x005A      |          90 |
|      63 | 0x1EF6      |        7926 |
|      64 | 0x00A4      |         164 |
|      65 | 0x00C9      |         201 |
|      66 | 0x014F      |         335 |
|      67 | 0x54B70     |      346992 |
|      68 | 0xFFFE13FC  |  4294841340 |
|      69 | 0xFFFF8168  |  4294934888 |
|      70 | 0x07EC      |        2028 |
|      71 | 0x541BA     |      344506 |
|      72 | 0xFFFE0979  |  4294838649 |
|      73 | 0x0CF8      |        3320 |
|      74 | 0x00FA      |         250 |
|      75 | 0x058D      |        1421 |
|      76 | 0x00B4      |         180 |
|      77 | 0x05A9      |        1449 |
|      78 | 0x05C3      |        1475 |
|      79 | 0x00A5      |         165 |
|      80 | 0x1EF7      |        7927 |
|      81 | 0x054D      |        1357 |
|      82 | 0x0548      |        1352 |
|      83 | 0x0549      |        1353 |
|      84 | 0x52FB9     |      339897 |
|      85 | 0xFFFE0808  |  4294838280 |
|      86 | 0x080A      |        2058 |
|      87 | 0x0032      |          50 |
|      88 | 0x001F      |          31 |
|      89 | 0x0027      |          39 |
|      90 | 0x00F0      |         240 |
|      91 | 0x55409     |      349193 |
|      92 | 0xFFFE086B  |  4294838379 |
|      93 | 0x0C0D      |        3085 |
|      94 | 0x00BB      |         187 |
|      95 | 0x0006      |           6 |
|      96 | 0x058F      |        1423 |
|      97 | 0x0593      |        1427 |
|      98 | 0x00BC      |         188 |
|      99 | 0x07E9      |        2025 |
|     100 | 0x054E      |        1358 |
|     101 | 0x1EF8      |        7928 |
|     102 | 0x53C66     |      343142 |
|     103 | 0xFFFE22FA  |  4294845178 |
|     104 | 0x01FB      |         507 |
|     105 | 0x1EF9      |        7929 |
|     106 | 0x54107     |      344327 |
|     107 | 0xFFFE059F  |  4294837663 |
|     108 | 0x0FD9      |        4057 |
|     109 | 0x53213     |      340499 |
|     110 | 0xFFFE0EA4  |  4294839972 |
|     111 | 0x0700      |        1792 |
|     112 | 0x53042     |      340034 |
|     113 | 0xFFFE1324  |  4294841124 |
|     114 | 0x0C1F      |        3103 |
|     115 | 0x1EFA      |        7930 |
|     116 | 0x1EFB      |        7931 |
|     117 | 0x00F4      |         244 |
|     118 | 0x1EFC      |        7932 |
|     119 | 0x549E6     |      346598 |
|     120 | 0xFFFE1D74  |  4294843764 |
|     121 | 0x01E0      |         480 |
|     122 | 0x1EFD      |        7933 |
|     123 | 0x1EFE      |        7934 |
|     124 | 0x1EFF      |        7935 |
|     125 | 0x1F00      |        7936 |
|     126 | 0x1F01      |        7937 |
|     127 | 0x1F02      |        7938 |
|     128 | 0x5404A     |      344138 |
|     129 | 0xFFFE1DF0  |  4294843888 |
|     130 | 0x01A7      |         423 |
|     131 | 0x0397      |         919 |
|     132 | 0x1F03      |        7939 |
|     133 | 0x1F04      |        7940 |
|     134 | 0x0594      |        1428 |
|     135 | 0x1F05      |        7941 |
|     136 | 0x00BE      |         190 |
|     137 | 0x52789     |      337801 |
|     138 | 0xFFFD96ED  |  4294809325 |
|     139 | 0x52DE7     |      339431 |
|     140 | 0xFFFD9862  |  4294809698 |
|     141 | 0x537A9     |      341929 |
|     142 | 0xFFFE239C  |  4294845340 |
|     143 | 0x03E8      |        1000 |
|     144 | 0x058E      |        1422 |
|     145 | 0x0591      |        1425 |
|     146 | 0x0575      |        1397 |
|     147 | 0x1F06      |        7942 |
|     148 | 0x1F07      |        7943 |
|     149 | 0x1F08      |        7944 |
|     150 | 0x0096      |         150 |
|     151 | 0x1F09      |        7945 |
|     152 | 0x0592      |        1426 |
|     153 | 0x1F0A      |        7946 |
|     154 | 0x1F0B      |        7947 |
|     155 | 0x007B      |         123 |
|     156 | 0x53AEE     |      342766 |
|     157 | 0xFFFE1FB9  |  4294844345 |
|     158 | 0x0FA1      |        4001 |
|     159 | 0xFFFE1D78  |  4294843768 |
|     160 | 0x1F0C      |        7948 |
|     161 | 0x1F0D      |        7949 |
|     162 | 0x1F0E      |        7950 |
|     163 | 0x1F0F      |        7951 |
|     164 | 0x1F10      |        7952 |
|     165 | 0x5422E     |      344622 |
|     166 | 0xFFFE12A3  |  4294840995 |
|     167 | 0x0FA2      |        4002 |
|     168 | 0x52C76     |      339062 |
|     169 | 0xFFFE1F55  |  4294844245 |
|     170 | 0x1F11      |        7953 |
|     171 | 0x1F12      |        7954 |
|     172 | 0x1F13      |        7955 |
|     173 | 0x1F14      |        7956 |
|     174 | 0x1F15      |        7957 |
|     175 | 0x1F16      |        7958 |
|     176 | 0x1F17      |        7959 |
|     177 | 0x0095      |         149 |
|     178 | 0x009F      |         159 |
|     179 | 0x0003      |           3 |
|     180 | 0x00A9      |         169 |
|     181 | 0x0004      |           4 |
|     182 | 0x00B3      |         179 |
|     183 | 0x00BD      |         189 |
|     184 | 0x00C7      |         199 |
|     185 | 0x0008      |           8 |
|     186 | 0x00D1      |         209 |
|     187 | 0x0047      |          71 |
|     188 | 0x0051      |          81 |
|     189 | 0x005B      |          91 |
|     190 | 0x0065      |         101 |
|     191 | 0x006F      |         111 |
|     192 | 0x0079      |         121 |
|     193 | 0x0083      |         131 |
|     194 | 0x001D      |          29 |
|     195 | 0x0031      |          49 |
|     196 | 0x003B      |          59 |
|     197 | 0x0045      |          69 |
|     198 | 0x0028      |          40 |
|     199 | 0xFFFC74CD  |  4294735053 |
|     200 | 0x1AE88     |      110216 |
|     201 | 0x03F3      |        1011 |
|     202 | 0x000D      |          13 |
|     203 | 0xFFFC5037  |  4294725687 |
|     204 | 0x1C29E     |      115358 |
|     205 | 0x03E7      |         999 |

## String References

- **7922**: You hear an odd skittering sound coming from beneath the sarcophagus...

## Events

### Event 65535

#### Metadata

| Field        | Value   |
|--------------|---------|
| Entrypoint   | 0x0000  |
| Data Size    | 1 bytes |
| Instructions | 1       |

```
      00 01 02 03 04 05 06 07  08 09 0A 0B 0C 0D 0E 0F
      -- -- -- -- -- -- -- --  -- -- -- -- -- -- -- --
0000: 00                                                .               
```

#### Opcodes

```
  0: 0x0000 [0x00] END_REQSTACK()
```

### Event 65534

#### Metadata

| Field        | Value   |
|--------------|---------|
| Entrypoint   | 0x0001  |
| Data Size    | 1 bytes |
| Instructions | 1       |

```
      00 01 02 03 04 05 06 07  08 09 0A 0B 0C 0D 0E 0F
      -- -- -- -- -- -- -- --  -- -- -- -- -- -- -- --
0000:    00                                              .              
```

#### Opcodes

```
  0: 0x0001 [0x00] END_REQSTACK()
```

### Event 65535.1

#### Metadata

| Field        | Value    |
|--------------|----------|
| Entrypoint   | 0x0002   |
| Data Size    | 41 bytes |
| Instructions | 5        |

```
      00 01 02 03 04 05 06 07  08 09 0A 0B 0C 0D 0E 0F
      -- -- -- -- -- -- -- --  -- -- -- -- -- -- -- --
0000:       62 00 80 F0 FF FF  7F F0 FF FF 7F 6D 61 69    b..........mai
0010: 6E 01 80 1C 02 80 45 03  80 F0 FF FF 7F F0 FF FF  n.....E.........
0020: 7F 66 64 6F 31 01 80 1C  04 80 00                 .fdo1......     
```

#### Opcodes

```
  0: 0x0002 [0x62] LOAD_EVENT_SCHEDULER: Load scheduler "main" with entities [LocalPlayer, LocalPlayer], work=[1*, 0*]
  1: 0x0013 [0x1C] WAIT(140* ticks)
  2: 0x0016 [0x45] LOAD_SCHEDULED_TASK: Load scheduler "fdo1" with entities [LocalPlayer, LocalPlayer], work=[200*, 0*]
  3: 0x0027 [0x1C] WAIT(60* ticks)
  4: 0x002A [0x00] END_REQSTACK()
```

### Event 65535.2

#### Metadata

| Field        | Value    |
|--------------|----------|
| Entrypoint   | 0x002B   |
| Data Size    | 24 bytes |
| Instructions | 4        |

```
      00 01 02 03 04 05 06 07  08 09 0A 0B 0C 0D 0E 0F
      -- -- -- -- -- -- -- --  -- -- -- -- -- -- -- --
0020:                                   03 00 00 07 7F             .....
0030: 1A 2B 01 66 01 00 F8 FF  FF 7F F8 FF FF 7F 74 6C  .+.f..........tl
0040: 6B 30 00                                          k0.             
```

#### Opcodes

```
  0: 0x002B [0x03] ExtData[1]->WorkLocal[0] = Entity->Race
  1: 0x0030 [0x1A] CALL_SUBROUTINE(address=0x012B)
  2: 0x0033 [0x66] LOAD_EXT_SCHEDULER_MAIN: Load scheduler "tlk0" with entities [EventEntity, EventEntity], work=ExtData[1]->WorkLocal[1]
  3: 0x0042 [0x00] END_REQSTACK()
```

### Event 65535.3

#### Metadata

| Field        | Value    |
|--------------|----------|
| Entrypoint   | 0x0043   |
| Data Size    | 24 bytes |
| Instructions | 4        |

```
      00 01 02 03 04 05 06 07  08 09 0A 0B 0C 0D 0E 0F
      -- -- -- -- -- -- -- --  -- -- -- -- -- -- -- --
0040:          03 00 00 07 7F  1A 2B 01 66 01 00 F8 FF     ......+.f....
0050: FF 7F F8 FF FF 7F 74 6C  6B 31 00                 ......tlk1.     
```

#### Opcodes

```
  0: 0x0043 [0x03] ExtData[1]->WorkLocal[0] = Entity->Race
  1: 0x0048 [0x1A] CALL_SUBROUTINE(address=0x012B)
  2: 0x004B [0x66] LOAD_EXT_SCHEDULER_MAIN: Load scheduler "tlk1" with entities [EventEntity, EventEntity], work=ExtData[1]->WorkLocal[1]
  3: 0x005A [0x00] END_REQSTACK()
```

### Event 65535.4

#### Metadata

| Field        | Value    |
|--------------|----------|
| Entrypoint   | 0x005B   |
| Data Size    | 16 bytes |
| Instructions | 4        |

```
      00 01 02 03 04 05 06 07  08 09 0A 0B 0C 0D 0E 0F
      -- -- -- -- -- -- -- --  -- -- -- -- -- -- -- --
0050:                                   1C 05 80 6E F8             ...n.
0060: FF FF 7F 06 80 99 F8 FF  FF 7F 00                 ...........     
```

#### Opcodes

```
  0: 0x005B [0x1C] WAIT(30* ticks)
  1: 0x005E [0x6E] EventEntity uses emote 21*
  2: 0x0065 [0x99] Wait for EventEntity animation to complete
  3: 0x006A [0x00] END_REQSTACK()
```

### Event 65535.5

#### Metadata

| Field        | Value    |
|--------------|----------|
| Entrypoint   | 0x006B   |
| Data Size    | 45 bytes |
| Instructions | 7        |

```
      00 01 02 03 04 05 06 07  08 09 0A 0B 0C 0D 0E 0F
      -- -- -- -- -- -- -- --  -- -- -- -- -- -- -- --
0060:                                   1C 04 80 03 00             .....
0070: 00 07 7F 1A 2B 01 66 01  00 F8 FF FF 7F F8 FF FF  ....+.f.........
0080: 7F 74 6C 6B 30 1C 04 80  66 01 00 F8 FF FF 7F F8  .tlk0...f.......
0090: FF FF 7F 74 6C 6B 31 00                           ...tlk1.        
```

#### Opcodes

```
  0: 0x006B [0x1C] WAIT(60* ticks)
  1: 0x006E [0x03] ExtData[1]->WorkLocal[0] = Entity->Race
  2: 0x0073 [0x1A] CALL_SUBROUTINE(address=0x012B)
  3: 0x0076 [0x66] LOAD_EXT_SCHEDULER_MAIN: Load scheduler "tlk0" with entities [EventEntity, EventEntity], work=ExtData[1]->WorkLocal[1]
  4: 0x0085 [0x1C] WAIT(60* ticks)
  5: 0x0088 [0x66] LOAD_EXT_SCHEDULER_MAIN: Load scheduler "tlk1" with entities [EventEntity, EventEntity], work=ExtData[1]->WorkLocal[1]
  6: 0x0097 [0x00] END_REQSTACK()
```

### Event 65535.6

#### Metadata

| Field        | Value    |
|--------------|----------|
| Entrypoint   | 0x0098   |
| Data Size    | 20 bytes |
| Instructions | 6        |

```
      00 01 02 03 04 05 06 07  08 09 0A 0B 0C 0D 0E 0F
      -- -- -- -- -- -- -- --  -- -- -- -- -- -- -- --
0090:                          32 07 80 1F 00 08 80 09          2.......
00A0: 80 0A 80 1F 01 6F 1E CD  F2 0A 01 00              .....o......    
```

#### Opcodes

```
  0: 0x0098 [0x32] ExtData[1]->MainSpeed = 11* * 0.1
  1: 0x009B [0x1F] MOVE_ENTITY: EventEntity moves to X=378.566*, Z=19.520*, Y=-40.000*
  2: 0x00A3 [0x1F] MOVE_ENTITY: Update entity position (mode=1)
  3: 0x00A5 [0x6F] WAIT_FRAME_DELAY: Yield until WaitTime reaches zero
  4: 0x00A6 [0x1E] EventEntity looks at Ulbrecht (ID: 17494733/0x010AF2CD) and starts talking
  5: 0x00AB [0x00] END_REQSTACK()
```

### Event 65535.7

#### Metadata

| Field        | Value   |
|--------------|---------|
| Entrypoint   | 0x00AC  |
| Data Size    | 9 bytes |
| Instructions | 3       |

```
      00 01 02 03 04 05 06 07  08 09 0A 0B 0C 0D 0E 0F
      -- -- -- -- -- -- -- --  -- -- -- -- -- -- -- --
00A0:                                      1C 0B 80 1E              ....
00B0: CC F2 0A 01 00                                    .....           
```

#### Opcodes

```
  0: 0x00AC [0x1C] WAIT(45* ticks)
  1: 0x00AF [0x1E] EventEntity looks at Erlene (ID: 17494732/0x010AF2CC) and starts talking
  2: 0x00B4 [0x00] END_REQSTACK()
```

### Event 65535.8

#### Metadata

| Field        | Value   |
|--------------|---------|
| Entrypoint   | 0x00B5  |
| Data Size    | 9 bytes |
| Instructions | 3       |

```
      00 01 02 03 04 05 06 07  08 09 0A 0B 0C 0D 0E 0F
      -- -- -- -- -- -- -- --  -- -- -- -- -- -- -- --
00B0:                1C 05 80  1E CD F2 0A 01 00             .........  
```

#### Opcodes

```
  0: 0x00B5 [0x1C] WAIT(30* ticks)
  1: 0x00B8 [0x1E] EventEntity looks at Ulbrecht (ID: 17494733/0x010AF2CD) and starts talking
  2: 0x00BD [0x00] END_REQSTACK()
```

### Event 65535.9

#### Metadata

| Field        | Value    |
|--------------|----------|
| Entrypoint   | 0x00BE   |
| Data Size    | 20 bytes |
| Instructions | 6        |

```
      00 01 02 03 04 05 06 07  08 09 0A 0B 0C 0D 0E 0F
      -- -- -- -- -- -- -- --  -- -- -- -- -- -- -- --
00B0:                                            32 07                2.
00C0: 80 1F 00 0C 80 0D 80 0E  80 1F 01 6F 1E CC F2 0A  ...........o....
00D0: 01 00                                             ..              
```

#### Opcodes

```
  0: 0x00BE [0x32] ExtData[1]->MainSpeed = 11* * 0.1
  1: 0x00C1 [0x1F] MOVE_ENTITY: EventEntity moves to X=181.997*, Z=156.401*, Y=-27.749*
  2: 0x00C9 [0x1F] MOVE_ENTITY: Update entity position (mode=1)
  3: 0x00CB [0x6F] WAIT_FRAME_DELAY: Yield until WaitTime reaches zero
  4: 0x00CC [0x1E] EventEntity looks at Erlene (ID: 17494732/0x010AF2CC) and starts talking
  5: 0x00D1 [0x00] END_REQSTACK()
```

### Event 65535.10

#### Metadata

| Field        | Value    |
|--------------|----------|
| Entrypoint   | 0x00D2   |
| Data Size    | 12 bytes |
| Instructions | 3        |

```
      00 01 02 03 04 05 06 07  08 09 0A 0B 0C 0D 0E 0F
      -- -- -- -- -- -- -- --  -- -- -- -- -- -- -- --
00D0:       33 01 37 0F 80 10  80 11 80 12 80 00          3.7.........  
```

#### Opcodes

```
  0: 0x00D2 [0x33] EventEntity->Render.Flags0 |= 0x200000 // Bit 21 (flag=0x01)
  1: 0x00D4 [0x37] UPDATE_EVENT_POSITION_AND_DIR: x=-459.534*, z=-371.505*, y=21.693*, direction=346.5°*
  2: 0x00DD [0x00] END_REQSTACK()
```

### Event 65535.11

#### Metadata

| Field        | Value   |
|--------------|---------|
| Entrypoint   | 0x00DE  |
| Data Size    | 3 bytes |
| Instructions | 2       |

```
      00 01 02 03 04 05 06 07  08 09 0A 0B 0C 0D 0E 0F
      -- -- -- -- -- -- -- --  -- -- -- -- -- -- -- --
00D0:                                            33 00                3.
00E0: 00                                                .               
```

#### Opcodes

```
  0: 0x00DE [0x33] EventEntity->Render.Flags0 &= ~ 0x200000 // Bit 21 (flag=0x00)
  1: 0x00E0 [0x00] END_REQSTACK()
```

### Event 65535.12

#### Metadata

| Field        | Value    |
|--------------|----------|
| Entrypoint   | 0x00E1   |
| Data Size    | 37 bytes |
| Instructions | 5        |

```
      00 01 02 03 04 05 06 07  08 09 0A 0B 0C 0D 0E 0F
      -- -- -- -- -- -- -- --  -- -- -- -- -- -- -- --
00E0:    03 00 00 07 7F 1A 2B  01 66 01 00 F8 FF FF 7F   ......+.f......
00F0: F8 FF FF 7F 73 68 61 30  53 F8 FF FF 7F F8 FF FF  ....sha0S.......
0100: 7F 73 68 61 30 00                                 .sha0.          
```

#### Opcodes

```
  0: 0x00E1 [0x03] ExtData[1]->WorkLocal[0] = Entity->Race
  1: 0x00E6 [0x1A] CALL_SUBROUTINE(address=0x012B)
  2: 0x00E9 [0x66] LOAD_EXT_SCHEDULER_MAIN: Load scheduler "sha0" with entities [EventEntity, EventEntity], work=ExtData[1]->WorkLocal[1]
  3: 0x00F8 [0x53] WAIT_SCHEDULER_TASK: Wait for scheduler "sha0" with entities [EventEntity, EventEntity]
  4: 0x0105 [0x00] END_REQSTACK()
```

### Event 65535.13

#### Metadata

| Field        | Value     |
|--------------|-----------|
| Entrypoint   | 0x0106    |
| Data Size    | 185 bytes |
| Instructions | 13        |

```
      00 01 02 03 04 05 06 07  08 09 0A 0B 0C 0D 0E 0F
      -- -- -- -- -- -- -- --  -- -- -- -- -- -- -- --
0100:                   03 00  00 07 7F 1A 2B 01 66 01        ......+.f.
0110: 00 F8 FF FF 7F F8 FF FF  7F 73 68 61 31 53 F8 FF  .........sha1S..
0120: FF 7F F8 FF FF 7F 73 68  61 31 00 03 01 00 00 00  ......sha1......
0130: 02 01 00 13 80 05 40 01  08 01 00 00 80 01 45 01  ......@.......E.
0140: 08 01 00 14 80 14 01 00  15 80 07 01 00 16 80 1B  ................
0150: 03 01 00 00 00 02 01 00  13 80 05 65 01 08 01 00  ...........e....
0160: 00 80 01 6A 01 08 01 00  14 80 14 01 00 15 80 07  ...j............
0170: 01 00 17 80 1B 03 01 00  00 00 02 01 00 13 80 05  ................
0180: 8A 01 08 01 00 00 80 01  8F 01 08 01 00 14 80 14  ................
0190: 01 00 15 80 07 01 00 02  80 1B 03 01 00 00 00 02  ................
01A0: 01 00 13 80 05 AF 01 08  01 00 00 80 01 B4 01 08  ................
01B0: 01 00 14 80 14 01 00 15  80 07 01 00 18 80 1B     ............... 
```

#### Opcodes

```
  0: 0x0106 [0x03] ExtData[1]->WorkLocal[0] = Entity->Race
  1: 0x010B [0x1A] CALL_SUBROUTINE(address=0x012B)
  2: 0x010E [0x66] LOAD_EXT_SCHEDULER_MAIN: Load scheduler "sha1" with entities [EventEntity, EventEntity], work=ExtData[1]->WorkLocal[1]
  3: 0x011D [0x53] WAIT_SCHEDULER_TASK: Wait for scheduler "sha1" with entities [EventEntity, EventEntity]
  4: 0x012A [0x00] END_REQSTACK()

SUBROUTINE_012B:
  5: 0x012B [0x03] ExtData[1]->WorkLocal[1] = ExtData[1]->WorkLocal[0]
  6: 0x0130 [0x02] IF !(ExtData[1]->WorkLocal[1] > 5*) GOTO 0x0140
  7: 0x0138 [0x08] ExtData[1]->WorkLocal[1] -= 1*
  8: 0x013D [0x01] GOTO 0x0145
  9: 0x0140 [0x08] ExtData[1]->WorkLocal[1] -= 2*

SUBROUTINE_0145:
 10: 0x0145 [0x14] ExtData[1]->WorkLocal[1] *= 10*
 11: 0x014A [0x07] ExtData[1]->WorkLocal[1] += 9*
 12: 0x014F [0x1B] RETURN
```

#### Data or dead code:

```
# Dead code (unreachable instructions):
     0x0150 [0x03] ExtData[1]->WorkLocal[1] = ExtData[1]->WorkLocal[0]
     0x0155 [0x02] IF !(ExtData[1]->WorkLocal[1] > 5*) GOTO 0x0165
     0x015D [0x08] ExtData[1]->WorkLocal[1] -= 1*
     0x0162 [0x01] GOTO 0x016A
     0x0165 [0x08] ExtData[1]->WorkLocal[1] -= 2*
     0x016A [0x14] ExtData[1]->WorkLocal[1] *= 10*
     0x016F [0x07] ExtData[1]->WorkLocal[1] += 70*
     0x0174 [0x1B] RETURN
     0x0175 [0x03] ExtData[1]->WorkLocal[1] = ExtData[1]->WorkLocal[0]
     0x017A [0x02] IF !(ExtData[1]->WorkLocal[1] > 5*) GOTO 0x018A
     0x0182 [0x08] ExtData[1]->WorkLocal[1] -= 1*
     0x0187 [0x01] GOTO 0x018F
     0x018A [0x08] ExtData[1]->WorkLocal[1] -= 2*
     0x018F [0x14] ExtData[1]->WorkLocal[1] *= 10*
     0x0194 [0x07] ExtData[1]->WorkLocal[1] += 140*
     0x0199 [0x1B] RETURN
     0x019A [0x03] ExtData[1]->WorkLocal[1] = ExtData[1]->WorkLocal[0]
     0x019F [0x02] IF !(ExtData[1]->WorkLocal[1] > 5*) GOTO 0x01AF
     0x01A7 [0x08] ExtData[1]->WorkLocal[1] -= 1*
     0x01AC [0x01] GOTO 0x01B4
     0x01AF [0x08] ExtData[1]->WorkLocal[1] -= 2*
     0x01B4 [0x14] ExtData[1]->WorkLocal[1] *= 10*
     0x01B9 [0x07] ExtData[1]->WorkLocal[1] += 210*
     0x01BE [0x1B] RETURN
```

### Event 65535.14

#### Metadata

| Field        | Value   |
|--------------|---------|
| Entrypoint   | 0x01BF  |
| Data Size    | 6 bytes |
| Instructions | 2       |

```
      00 01 02 03 04 05 06 07  08 09 0A 0B 0C 0D 0E 0F
      -- -- -- -- -- -- -- --  -- -- -- -- -- -- -- --
01B0:                                               03                 .
01C0: 02 10 07 7F 00                                    .....           
```

#### Opcodes

```
  0: 0x01BF [0x03] Work_Zone[2] = Entity->Race
  1: 0x01C4 [0x00] END_REQSTACK()
```

### Event 65535.15

#### Metadata

| Field        | Value   |
|--------------|---------|
| Entrypoint   | 0x01C5  |
| Data Size    | 6 bytes |
| Instructions | 2       |

```
      00 01 02 03 04 05 06 07  08 09 0A 0B 0C 0D 0E 0F
      -- -- -- -- -- -- -- --  -- -- -- -- -- -- -- --
01C0:                03 02 10  0B 7F 00                      ......     
```

#### Opcodes

```
  0: 0x01C5 [0x03] Work_Zone[2] = (Entity->Render.Flags01 >> 25) & 1
  1: 0x01CA [0x00] END_REQSTACK()
```

### Event 17

#### Metadata

| Field        | Value      |
|--------------|------------|
| Entrypoint   | 0x01CB     |
| Data Size    | 5363 bytes |
| Instructions | 530        |

```
      00 01 02 03 04 05 06 07  08 09 0A 0B 0C 0D 0E 0F
      -- -- -- -- -- -- -- --  -- -- -- -- -- -- -- --
01C0:                                   42 5D 01 80 19             B]...
01D0: 80 45 03 80 F8 FF FF 7F  F8 FF FF 7F 66 64 6F 31  .E..........fdo1
01E0: 01 80 55 03 80 F8 FF FF  7F F8 FF FF 7F 66 64 6F  ..U..........fdo
01F0: 31 46 01 38 1A 80 45 1B  80 F8 FF FF 7F F8 FF FF  1F.8..E.........
0200: 7F 73 74 65 73 01 80 2F  00 EA F2 0A 01 2F 00 EB  .stes../...../..
0210: F2 0A 01 2F 00 F0 F2 0A  01 2F 00 F1 F2 0A 01 2F  .../...../...../
0220: 00 ED F2 0A 01 4E 00 ED  F2 0A 01 2F 00 EE F2 0A  .....N...../....
0230: 01 4E 00 EE F2 0A 01 2F  00 EF F2 0A 01 4E 00 EF  .N...../.....N..
0240: F2 0A 01 2F 00 F2 F2 0A  01 2F 00 F3 F2 0A 01 2F  .../...../...../
0250: 00 F4 F2 0A 01 BA EA F2  0A 01 1C 80 1D 80 1E 80  ................
0260: 1F 80 BA EB F2 0A 01 20  80 21 80 22 80 23 80 BA  ....... .!.".#..
0270: F0 F2 0A 01 24 80 25 80  22 80 26 80 BA F1 F2 0A  ....$.%.".&.....
0280: 01 27 80 28 80 22 80 29  80 BA F0 FF FF 7F 2A 80  .'.(.".)......*.
0290: 2B 80 22 80 2C 80 BA ED  F2 0A 01 2D 80 2E 80 22  +.".,......-..."
02A0: 80 2F 80 BA EE F2 0A 01  30 80 31 80 22 80 32 80  ./......0.1.".2.
02B0: BA EF F2 0A 01 33 80 34  80 22 80 35 80 80 F0 FF  .....3.4.".5....
02C0: FF 7F 80 ED F2 0A 01 80  EE F2 0A 01 80 EF F2 0A  ................
02D0: 01 94 01 EE F2 0A 01 94  01 EF F2 0A 01 45 36 80  .............E6.
02E0: F8 FF FF 7F F8 FF FF 7F  73 30 30 30 01 80 1C 37  ........s000...7
02F0: 80 45 03 80 F8 FF FF 7F  F8 FF FF 7F 66 64 69 31  .E..........fdi1
0300: 01 80 55 03 80 F8 FF FF  7F F8 FF FF 7F 66 64 69  ..U..........fdi
0310: 31 48 38 80 23 27 05 ED  F2 0A 01 02 1C 37 80 27  1H8.#'.......7.'
0320: 05 EE F2 0A 01 02 1C 13  80 27 05 EF F2 0A 01 02  .........'......
0330: 1C 05 80 52 36 80 F8 FF  FF 7F F8 FF FF 7F 73 30  ...R6.........s0
0340: 30 30 45 36 80 F8 FF FF  7F F8 FF FF 7F 73 30 30  00E6.........s00
0350: 31 01 80 4A F0 FF FF 7F  ED F2 0A 01 2B ED F2 0A  1..J........+...
0360: 01 39 80 23 2A 05 ED F2  0A 01 2A 05 EE F2 0A 01  .9.#*.....*.....
0370: 2A 05 EF F2 0A 01 52 36  80 F8 FF FF 7F F8 FF FF  *.....R6........
0380: 7F 73 30 30 31 45 36 80  F8 FF FF 7F F8 FF FF 7F  .s001E6.........
0390: 73 30 30 32 01 80 66 3A  80 ED F2 0A 01 ED F2 0A  s002..f:........
03A0: 01 74 6C 6B 30 2B ED F2  0A 01 3B 80 23 2B ED F2  .tlk0+....;.#+..
03B0: 0A 01 3C 80 23 66 3A 80  ED F2 0A 01 ED F2 0A 01  ..<.#f:.........
03C0: 74 6C 6B 31 52 36 80 F8  FF FF 7F F8 FF FF 7F 73  tlk1R6.........s
03D0: 30 30 32 45 36 80 F8 FF  FF 7F F8 FF FF 7F 73 30  002E6.........s0
03E0: 30 33 01 80 9F 3D 80 F8  FF FF 7F F8 FF FF 7F 73  03...=.........s
03F0: 74 72 30 01 80 45 36 80  F8 FF FF 7F F8 FF FF 7F  tr0..E6.........
0400: 73 74 72 30 01 80 1C 3E  80 52 36 80 F8 FF FF 7F  str0...>.R6.....
0410: F8 FF FF 7F 73 30 30 33  45 36 80 F8 FF FF 7F F8  ....s003E6......
0420: FF FF 7F 73 31 38 34 01  80 9F 3D 80 F8 FF FF 7F  ...s184...=.....
0430: F8 FF FF 7F 6B 69 6C 6C  01 80 7C 00 ED F2 0A 01  ....kill..|.....
0440: 2B ED F2 0A 01 3F 80 23  7C 01 ED F2 0A 01 BB 40  +....?.#|......@
0450: 80 F8 FF FF 7F F8 FF FF  7F 73 30 30 31 01 80 52  .........s001..R
0460: 36 80 F8 FF FF 7F F8 FF  FF 7F 73 31 38 34 45 36  6.........s184E6
0470: 80 F8 FF FF 7F F8 FF FF  7F 73 30 30 34 01 80 9F  .........s004...
0480: 3D 80 F8 FF FF 7F F8 FF  FF 7F 73 74 72 30 01 80  =.........str0..
0490: 45 36 80 F8 FF FF 7F F8  FF FF 7F 73 74 72 31 01  E6.........str1.
04A0: 80 4B F0 FF FF 7F 2C 80  1C 19 80 6E F0 FF FF 7F  .K....,....n....
04B0: 06 80 99 F0 FF FF 7F 1C  19 80 45 41 80 F8 FF FF  ..........EA....
04C0: 7F F8 FF FF 7F 77 68 6F  31 01 80 1C 04 80 45 36  .....who1.....E6
04D0: 80 F8 FF FF 7F F8 FF FF  7F 73 74 72 65 01 80 1C  .........stre...
04E0: 05 80 45 42 80 F8 FF FF  7F F8 FF FF 7F 6F 70 65  ..EB.........ope
04F0: 6E 01 80 55 41 80 F8 FF  FF 7F F8 FF FF 7F 77 68  n..UA.........wh
0500: 6F 31 52 36 80 F8 FF FF  7F F8 FF FF 7F 73 30 30  o1R6.........s00
0510: 34 9F 3D 80 F8 FF FF 7F  F8 FF FF 7F 6B 69 6C 6C  4.=.........kill
0520: 01 80 7B ED F2 0A 01 2F  00 EC F2 0A 01 4E 00 EC  ..{..../.....N..
0530: F2 0A 01 BA EC F2 0A 01  43 80 44 80 45 80 46 80  ........C.D.E.F.
0540: 80 EC F2 0A 01 BA F0 FF  FF 7F 47 80 48 80 22 80  ..........G.H.".
0550: 49 80 80 F0 FF FF 7F 5C  00 4A 80 5C 01 4A 80 5C  I......\.J.\.J.\
0560: 02 4A 80 5C 03 4A 80 9A  1C 04 80 45 36 80 F8 FF  .J.\.J.....E6...
0570: FF 7F F8 FF FF 7F 73 30  30 35 01 80 1C 37 80 45  ......s005...7.E
0580: 1B 80 F8 FF FF 7F F8 FF  FF 7F 61 6E 61 79 01 80  ..........anay..
0590: 5B 4B 80 EC F2 0A 01 EC  F2 0A 01 61 6E 61 79 45  [K.........anayE
05A0: 41 80 F8 FF FF 7F F8 FF  FF 7F 77 68 69 31 01 80  A.........whi1..
05B0: BB 40 80 F8 FF FF 7F F8  FF FF 7F 73 30 30 32 01  .@.........s002.
05C0: 80 55 36 80 F8 FF FF 7F  F8 FF FF 7F 73 30 30 35  .U6.........s005
05D0: 1C 4C 80 45 42 80 F8 FF  FF 7F F8 FF FF 7F 73 32  .L.EB.........s2
05E0: 33 30 01 80 45 1B 80 F8  FF FF 7F F8 FF FF 7F 61  30..E..........a
05F0: 72 69 30 01 80 5B 4D 80  ED F2 0A 01 ED F2 0A 01  ri0..[M.........
0600: 61 72 69 30 5B 4E 80 EE  F2 0A 01 EE F2 0A 01 61  ari0[N.........a
0610: 72 69 61 5B 4E 80 EF F2  0A 01 EF F2 0A 01 61 72  ria[N.........ar
0620: 69 62 53 EC F2 0A 01 EC  F2 0A 01 61 6E 61 79 53  ibS........anayS
0630: ED F2 0A 01 ED F2 0A 01  61 72 69 30 53 EE F2 0A  ........ari0S...
0640: 01 EE F2 0A 01 61 72 69  61 53 EF F2 0A 01 EF F2  .....ariaS......
0650: 0A 01 61 72 69 62 5B 4B  80 EC F2 0A 01 EC F2 0A  ..arib[K........
0660: 01 61 6E 61 30 BB 4F 80  EC F2 0A 01 ED F2 0A 01  .ana0.O.........
0670: 73 30 30 31 01 80 52 42  80 F8 FF FF 7F F8 FF FF  s001..RB........
0680: 7F 73 32 33 30 45 36 80  F8 FF FF 7F F8 FF FF 7F  .s230E6.........
0690: 73 30 30 36 01 80 6E F0  FF FF 7F 06 80 99 F0 FF  s006..n.........
06A0: FF 7F 2B ED F2 0A 01 50  80 1C 05 80 5B 51 80 ED  ..+....P....[Q..
06B0: F2 0A 01 ED F2 0A 01 61  6E 62 30 5B 52 80 EE F2  .......anb0[R...
06C0: 0A 01 EE F2 0A 01 61 6E  62 30 5B 53 80 EF F2 0A  ......anb0[S....
06D0: 01 EF F2 0A 01 61 6E 62  30 1C 05 80 4E 01 EC F2  .....anb0...N...
06E0: 0A 01 BA EC F2 0A 01 54  80 55 80 22 80 56 80 52  .......T.U.".V.R
06F0: 36 80 F8 FF FF 7F F8 FF  FF 7F 73 30 30 36 45 36  6.........s006E6
0700: 80 F8 FF FF 7F F8 FF FF  7F 73 30 30 39 01 80 4E  .........s009..N
0710: 01 F0 FF FF 7F BA F0 FF  FF 7F 2A 80 2B 80 22 80  ..........*.+.".
0720: 2C 80 1C 17 80 52 36 80  F8 FF FF 7F F8 FF FF 7F  ,....R6.........
0730: 73 30 30 39 45 36 80 F8  FF FF 7F F8 FF FF 7F 73  s009E6.........s
0740: 30 35 33 01 80 5B 4B 80  EC F2 0A 01 EC F2 0A 01  053..[K.........
0750: 61 6E 62 30 45 36 80 F8  FF FF 7F F8 FF FF 7F 61  anb0E6.........a
0760: 6E 62 30 01 80 BB 4F 80  EC F2 0A 01 ED F2 0A 01  nb0...O.........
0770: 73 30 30 32 01 80 4E 00  EC F2 0A 01 1C 57 80 52  s002..N......W.R
0780: 36 80 F8 FF FF 7F F8 FF  FF 7F 73 30 35 33 45 36  6.........s053E6
0790: 80 F8 FF FF 7F F8 FF FF  7F 73 30 30 37 01 80 1C  .........s007...
07A0: 58 80 BB 4F 80 EC F2 0A  01 ED F2 0A 01 73 30 30  X..O.........s00
07B0: 33 01 80 BB 4F 80 EC F2  0A 01 EE F2 0A 01 73 30  3...O.........s0
07C0: 30 33 01 80 BB 4F 80 EC  F2 0A 01 EF F2 0A 01 73  03...O.........s
07D0: 30 30 33 01 80 1C 59 80  52 36 80 F8 FF FF 7F F8  003...Y.R6......
07E0: FF FF 7F 73 30 30 37 45  36 80 F8 FF FF 7F F8 FF  ...s007E6.......
07F0: FF 7F 73 30 30 38 01 80  4A F0 FF FF 7F EC F2 0A  ..s008..J.......
0800: 01 79 00 F0 FF FF 7F F0  FF FF 7F 1C 19 80 52 36  .y............R6
0810: 80 F8 FF FF 7F F8 FF FF  7F 73 30 30 38 45 36 80  .........s008E6.
0820: F8 FF FF 7F F8 FF FF 7F  73 30 35 32 01 80 1C 19  ........s052....
0830: 80 52 36 80 F8 FF FF 7F  F8 FF FF 7F 73 30 35 32  .R6.........s052
0840: 45 36 80 F8 FF FF 7F F8  FF FF 7F 73 31 38 31 01  E6.........s181.
0850: 80 BB 4F 80 EC F2 0A 01  ED F2 0A 01 73 30 30 34  ..O.........s004
0860: 01 80 1C 5A 80 52 36 80  F8 FF FF 7F F8 FF FF 7F  ...Z.R6.........
0870: 73 31 38 31 45 36 80 F8  FF FF 7F F8 FF FF 7F 73  s181E6.........s
0880: 30 31 30 01 80 5B 4B 80  EC F2 0A 01 EC F2 0A 01  010..[K.........
0890: 61 6E 62 31 45 36 80 F8  FF FF 7F F8 FF FF 7F 61  anb1E6.........a
08A0: 6E 62 31 01 80 BB 4F 80  EC F2 0A 01 ED F2 0A 01  nb1...O.........
08B0: 73 30 30 35 01 80 5B 51  80 ED F2 0A 01 ED F2 0A  s005..[Q........
08C0: 01 61 6E 62 31 5B 52 80  EE F2 0A 01 EE F2 0A 01  .anb1[R.........
08D0: 61 6E 62 31 5B 53 80 EF  F2 0A 01 EF F2 0A 01 61  anb1[S.........a
08E0: 6E 62 31 53 ED F2 0A 01  ED F2 0A 01 61 6E 62 31  nb1S........anb1
08F0: BA ED F2 0A 01 5B 80 5C  80 22 80 5D 80 80 ED F2  .....[.\.".]....
0900: 0A 01 5B 51 80 ED F2 0A  01 ED F2 0A 01 61 6E 63  ..[Q.........anc
0910: 30 BB 5E 80 ED F2 0A 01  ED F2 0A 01 73 30 30 31  0.^.........s001
0920: 01 80 52 36 80 F8 FF FF  7F F8 FF FF 7F 73 30 31  ..R6.........s01
0930: 30 45 36 80 F8 FF FF 7F  F8 FF FF 7F 73 30 31 31  0E6.........s011
0940: 01 80 4E 00 F0 FF FF 7F  80 F0 FF FF 7F 53 ED F2  ..N..........S..
0950: 0A 01 ED F2 0A 01 61 6E  63 30 55 36 80 F8 FF FF  ......anc0U6....
0960: 7F F8 FF FF 7F 73 30 31  31 45 36 80 F8 FF FF 7F  .....s011E6.....
0970: F8 FF FF 7F 73 30 31 32  01 80 45 36 80 F8 FF FF  ....s012..E6....
0980: 7F F8 FF FF 7F 74 69 72  61 01 80 5B 4B 80 EC F2  .....tira..[K...
0990: 0A 01 EC F2 0A 01 61 6E  62 32 53 EC F2 0A 01 EC  ......anb2S.....
09A0: F2 0A 01 61 6E 62 32 27  05 F0 FF FF 7F 12 52 36  ...anb2'......R6
09B0: 80 F8 FF FF 7F F8 FF FF  7F 73 30 31 32 02 87 7F  .........s012...
09C0: 13 80 80 D9 09 45 36 80  F8 FF FF 7F F8 FF FF 7F  .....E6.........
09D0: 73 30 31 34 01 80 01 06  0A 02 87 7F 5F 80 80 F5  s014........_...
09E0: 09 45 36 80 F8 FF FF 7F  F8 FF FF 7F 73 30 31 34  .E6.........s014
09F0: 01 80 01 06 0A 45 36 80  F8 FF FF 7F F8 FF FF 7F  .....E6.........
0A00: 73 30 31 33 01 80 1C 4C  80 4E 00 EA F2 0A 01 BA  s013...L.N......
0A10: EC F2 0A 01 1C 80 1D 80  1E 80 1F 80 80 EA F2 0A  ................
0A20: 01 80 EC F2 0A 01 94 01  EA F2 0A 01 94 01 EC F2  ................
0A30: 0A 01 5B 60 80 EC F2 0A  01 EC F2 0A 01 61 7A 30  ..[`.........az0
0A40: 30 5B 61 80 EA F2 0A 01  EA F2 0A 01 61 7A 30 31  0[a.........az01
0A50: 5B 60 80 EC F2 0A 01 EC  F2 0A 01 61 7A 30 31 BB  [`.........az01.
0A60: 62 80 EC F2 0A 01 EC F2  0A 01 73 30 30 30 01 80  b.........s000..
0A70: 52 36 80 F8 FF FF 7F F8  FF FF 7F 73 30 31 33 52  R6.........s013R
0A80: 36 80 F8 FF FF 7F F8 FF  FF 7F 73 30 31 34 45 36  6.........s014E6
0A90: 80 F8 FF FF 7F F8 FF FF  7F 73 30 31 35 01 80 45  .........s015..E
0AA0: 36 80 F8 FF FF 7F F8 FF  FF 7F 7A 65 69 64 01 80  6.........zeid..
0AB0: 1C 04 80 52 36 80 F8 FF  FF 7F F8 FF FF 7F 73 30  ...R6.........s0
0AC0: 31 35 45 36 80 F8 FF FF  7F F8 FF FF 7F 73 30 31  15E6.........s01
0AD0: 36 01 80 1C 3E 80 52 36  80 F8 FF FF 7F F8 FF FF  6...>.R6........
0AE0: 7F 73 30 31 36 45 36 80  F8 FF FF 7F F8 FF FF 7F  .s016E6.........
0AF0: 73 30 35 31 01 80 53 EA  F2 0A 01 EA F2 0A 01 61  s051..S........a
0B00: 7A 30 31 52 36 80 F8 FF  FF 7F F8 FF FF 7F 73 30  z01R6.........s0
0B10: 35 31 45 36 80 F8 FF FF  7F F8 FF FF 7F 73 30 31  51E6.........s01
0B20: 37 01 80 45 36 80 F8 FF  FF 7F F8 FF FF 7F 61 7A  7..E6.........az
0B30: 30 32 01 80 5B 61 80 EA  F2 0A 01 EA F2 0A 01 61  02..[a.........a
0B40: 7A 30 32 5B 60 80 EC F2  0A 01 EC F2 0A 01 61 7A  z02[`.........az
0B50: 30 32 BB 62 80 EC F2 0A  01 EC F2 0A 01 73 30 30  02.b.........s00
0B60: 31 01 80 27 05 F0 FF FF  7F 13 53 EC F2 0A 01 EC  1..'......S.....
0B70: F2 0A 01 61 7A 30 32 4E  00 EB F2 0A 01 4E 00 F0  ...az02N.....N..
0B80: F2 0A 01 4E 00 F1 F2 0A  01 80 EB F2 0A 01 80 F0  ...N............
0B90: F2 0A 01 80 F1 F2 0A 01  66 16 80 F1 F2 0A 01 F1  ........f.......
0BA0: F2 0A 01 73 68 61 30 27  05 EB F2 0A 01 02 4A F0  ...sha0'......J.
0BB0: FF FF 7F ED F2 0A 01 1C  05 80 27 05 F0 F2 0A 01  ..........'.....
0BC0: 02 52 36 80 F8 FF FF 7F  F8 FF FF 7F 73 30 31 37  .R6.........s017
0BD0: 45 36 80 F8 FF FF 7F F8  FF FF 7F 73 30 31 38 01  E6.........s018.
0BE0: 80 BA ED F2 0A 01 5B 80  5C 80 22 80 63 80 5B 64  ......[.\.".c.[d
0BF0: 80 ED F2 0A 01 ED F2 0A  01 64 77 6E 30 2A 05 EB  .........dwn0*..
0C00: F2 0A 01 2B EB F2 0A 01  65 80 23 52 36 80 F8 FF  ...+....e.#R6...
0C10: FF 7F F8 FF FF 7F 73 30  31 38 45 36 80 F8 FF FF  ......s018E6....
0C20: 7F F8 FF FF 7F 73 30 31  39 01 80 6B 69 64 6C 30  .....s019..kidl0
0C30: EA F2 0A 01 BA EA F2 0A  01 66 80 67 80 22 80 68  .........f.g.".h
0C40: 80 80 EA F2 0A 01 27 05  EA F2 0A 01 02 1C 04 80  ......'.........
0C50: 2B EA F2 0A 01 69 80 23  2A 05 EA F2 0A 01 5D 01  +....i.#*.....].
0C60: 80 19 80 52 36 80 F8 FF  FF 7F F8 FF FF 7F 73 30  ...R6.........s0
0C70: 31 39 45 36 80 F8 FF FF  7F F8 FF FF 7F 73 30 32  19E6.........s02
0C80: 30 01 80 BA F0 FF FF 7F  6A 80 6B 80 22 80 6C 80  0.......j.k.".l.
0C90: BA EB F2 0A 01 6D 80 6E  80 22 80 6F 80 BA F0 F2  .....m.n.".o....
0CA0: 0A 01 70 80 71 80 22 80  72 80 80 F0 FF FF 7F 80  ..p.q.".r.......
0CB0: EB F2 0A 01 80 F0 F2 0A  01 94 01 EB F2 0A 01 94  ................
0CC0: 01 F0 F2 0A 01 94 01 F1  F2 0A 01 4A F0 FF FF 7F  ...........J....
0CD0: ED F2 0A 01 4A EB F2 0A  01 ED F2 0A 01 4A F0 F2  ....J........J..
0CE0: 0A 01 ED F2 0A 01 4A F1  F2 0A 01 ED F2 0A 01 1C  ......J.........
0CF0: 05 80 2B ED F2 0A 01 73  80 23 5C 00 3D 80 5C 01  ..+....s.#\.=.\.
0D00: 3D 80 5C 02 3D 80 5C 03  3D 80 9A 52 36 80 F8 FF  =.\.=.\.=..R6...
0D10: FF 7F F8 FF FF 7F 73 30  32 30 45 36 80 F8 FF FF  ......s020E6....
0D20: 7F F8 FF FF 7F 73 30 32  31 01 80 2B ED F2 0A 01  .....s021..+....
0D30: 74 80 23 5B 75 80 EA F2  0A 01 EA F2 0A 01 74 73  t.#[u.........ts
0D40: 62 30 2B EA F2 0A 01 76  80 23 52 36 80 F8 FF FF  b0+....v.#R6....
0D50: 7F F8 FF FF 7F 73 30 32  31 45 36 80 F8 FF FF 7F  .....s021E6.....
0D60: F8 FF FF 7F 73 30 32 32  01 80 5B 64 80 ED F2 0A  ....s022..[d....
0D70: 01 ED F2 0A 01 64 77 6E  31 6B 69 64 6C 30 EA F2  .....dwn1kidl0..
0D80: 0A 01 BA EA F2 0A 01 77  80 78 80 22 80 79 80 80  .......w.x.".y..
0D90: EA F2 0A 01 2B ED F2 0A  01 7A 80 23 53 ED F2 0A  ....+....z.#S...
0DA0: 01 ED F2 0A 01 64 77 6E  31 52 36 80 F8 FF FF 7F  .....dwn1R6.....
0DB0: F8 FF FF 7F 73 30 32 32  45 36 80 F8 FF FF 7F F8  ....s022E6......
0DC0: FF FF 7F 73 30 32 33 01  80 7C 00 EA F2 0A 01 2B  ...s023..|.....+
0DD0: EA F2 0A 01 7B 80 23 7C  01 EA F2 0A 01 52 36 80  ....{.#|.....R6.
0DE0: F8 FF FF 7F F8 FF FF 7F  73 30 32 33 45 36 80 F8  ........s023E6..
0DF0: FF FF 7F F8 FF FF 7F 73  30 32 34 01 80 5B 75 80  .......s024..[u.
0E00: EA F2 0A 01 EA F2 0A 01  74 73 62 30 2B EA F2 0A  ........tsb0+...
0E10: 01 7C 80 23 5B 75 80 EA  F2 0A 01 EA F2 0A 01 74  .|.#[u.........t
0E20: 6B 62 31 5B 03 80 EB F2  0A 01 EB F2 0A 01 74 73  kb1[..........ts
0E30: 61 30 52 36 80 F8 FF FF  7F F8 FF FF 7F 73 30 32  a0R6.........s02
0E40: 34 45 36 80 F8 FF FF 7F  F8 FF FF 7F 73 30 32 35  4E6.........s025
0E50: 01 80 2B EB F2 0A 01 7D  80 23 2B EB F2 0A 01 7E  ..+....}.#+....~
0E60: 80 23 5B 03 80 EB F2 0A  01 EB F2 0A 01 74 73 61  .#[..........tsa
0E70: 31 52 36 80 F8 FF FF 7F  F8 FF FF 7F 73 30 32 35  1R6.........s025
0E80: 45 36 80 F8 FF FF 7F F8  FF FF 7F 73 30 32 36 01  E6.........s026.
0E90: 80 2B ED F2 0A 01 7F 80  23 52 36 80 F8 FF FF 7F  .+......#R6.....
0EA0: F8 FF FF 7F 73 30 32 36  45 36 80 F8 FF FF 7F F8  ....s026E6......
0EB0: FF FF 7F 73 30 32 37 01  80 BA EA F2 0A 01 80 80  ...s027.........
0EC0: 81 80 1E 80 82 80 80 EA  F2 0A 01 5B 64 80 ED F2  ...........[d...
0ED0: 0A 01 ED F2 0A 01 64 77  74 30 45 36 80 F8 FF FF  ......dwt0E6....
0EE0: 7F F8 FF FF 7F 64 77 74  30 01 80 03 02 10 83 80  .....dwt0.......
0EF0: 2B ED F2 0A 01 84 80 23  53 ED F2 0A 01 ED F2 0A  +......#S.......
0F00: 01 64 77 74 30 52 36 80  F8 FF FF 7F F8 FF FF 7F  .dwt0R6.........
0F10: 73 30 32 37 45 36 80 F8  FF FF 7F F8 FF FF 7F 73  s027E6.........s
0F20: 30 32 38 01 80 5B 64 80  ED F2 0A 01 ED F2 0A 01  028..[d.........
0F30: 64 77 74 31 2B EA F2 0A  01 85 80 23 52 36 80 F8  dwt1+......#R6..
0F40: FF FF 7F F8 FF FF 7F 73  30 32 38 45 36 80 F8 FF  .......s028E6...
0F50: FF 7F F8 FF FF 7F 73 30  32 39 01 80 5B 86 80 EA  ......s029..[...
0F60: F2 0A 01 EA F2 0A 01 61  7A 61 30 2B EA F2 0A 01  .......aza0+....
0F70: 87 80 23 53 EA F2 0A 01  EA F2 0A 01 61 7A 61 30  ..#S........aza0
0F80: 52 36 80 F8 FF FF 7F F8  FF FF 7F 73 30 32 39 45  R6.........s029E
0F90: 36 80 F8 FF FF 7F F8 FF  FF 7F 73 30 33 30 01 80  6.........s030..
0FA0: 5B 86 80 EA F2 0A 01 EA  F2 0A 01 61 7A 61 31 1C  [..........aza1.
0FB0: 88 80 45 36 80 F8 FF FF  7F F8 FF FF 7F 6B 65 6E  ..E6.........ken
0FC0: 30 01 80 45 41 80 F8 FF  FF 7F F8 FF FF 7F 77 68  0..EA.........wh
0FD0: 6F 30 01 80 55 41 80 F8  FF FF 7F F8 FF FF 7F 77  o0..UA.........w
0FE0: 68 6F 30 52 36 80 F8 FF  FF 7F F8 FF FF 7F 73 30  ho0R6.........s0
0FF0: 33 30 4E 00 F2 F2 0A 01  4E 00 F3 F2 0A 01 4E 00  30N.....N.....N.
1000: F4 F2 0A 01 BA F2 F2 0A  01 89 80 8A 80 22 80 26  .............".&
1010: 80 BA F3 F2 0A 01 89 80  8A 80 22 80 26 80 BA F4  ..........".&...
1020: F2 0A 01 8B 80 8C 80 22  80 26 80 BA EC F2 0A 01  .......".&......
1030: 8D 80 8E 80 22 80 8F 80  BA EA F2 0A 01 8D 80 8E  ...."...........
1040: 80 22 80 8F 80 BA EB F2  0A 01 8D 80 8E 80 22 80  ."............".
1050: 8F 80 80 F2 F2 0A 01 80  F3 F2 0A 01 80 F4 F2 0A  ................
1060: 01 80 EC F2 0A 01 80 EB  F2 0A 01 80 EA F2 0A 01  ................
1070: 5B 90 80 F4 F2 0A 01 F4  F2 0A 01 7A 66 30 30 5B  [..........zf00[
1080: 91 80 F2 F2 0A 01 F2 F2  0A 01 7A 66 30 30 5B 92  ..........zf00[.
1090: 80 F3 F2 0A 01 F3 F2 0A  01 7A 66 30 30 5B 90 80  .........zf00[..
10A0: EC F2 0A 01 EC F2 0A 01  7A 66 30 30 5B 91 80 EA  ........zf00[...
10B0: F2 0A 01 EA F2 0A 01 7A  66 30 30 5B 92 80 EB F2  .......zf00[....
10C0: 0A 01 EB F2 0A 01 7A 66  30 30 45 36 80 F8 FF FF  ......zf00E6....
10D0: 7F F8 FF FF 7F 73 30 33  31 01 80 1C 37 80 45 41  .....s031...7.EA
10E0: 80 F8 FF FF 7F F8 FF FF  7F 77 68 69 31 01 80 2B  .........whi1..+
10F0: EB F2 0A 01 93 80 23 52  36 80 F8 FF FF 7F F8 FF  ......#R6.......
1100: FF 7F 73 30 33 31 45 36  80 F8 FF FF 7F F8 FF FF  ..s031E6........
1110: 7F 73 30 33 32 01 80 5B  91 80 EA F2 0A 01 EA F2  .s032..[........
1120: 0A 01 7A 66 30 31 2B EA  F2 0A 01 94 80 23 2B EB  ..zf01+......#+.
1130: F2 0A 01 95 80 23 5B 90  80 F4 F2 0A 01 F4 F2 0A  .....#[.........
1140: 01 7A 66 30 32 5B 91 80  F2 F2 0A 01 F2 F2 0A 01  .zf02[..........
1150: 7A 66 30 32 5B 92 80 F3  F2 0A 01 F3 F2 0A 01 7A  zf02[..........z
1160: 66 30 32 5B 90 80 EC F2  0A 01 EC F2 0A 01 7A 66  f02[..........zf
1170: 30 32 5B 91 80 EA F2 0A  01 EA F2 0A 01 7A 66 30  02[..........zf0
1180: 32 5B 92 80 EB F2 0A 01  EB F2 0A 01 7A 66 30 32  2[..........zf02
1190: 5D 01 80 96 80 52 36 80  F8 FF FF 7F F8 FF FF 7F  ]....R6.........
11A0: 73 30 33 32 45 36 80 F8  FF FF 7F F8 FF FF 7F 73  s032E6.........s
11B0: 30 33 33 01 80 45 36 80  F8 FF FF 7F F8 FF FF 7F  033..E6.........
11C0: 7A 66 30 32 01 80 1C 18  80 52 36 80 F8 FF FF 7F  zf02.....R6.....
11D0: F8 FF FF 7F 73 30 33 33  45 36 80 F8 FF FF 7F F8  ....s033E6......
11E0: FF FF 7F 73 30 35 34 01  80 2B EB F2 0A 01 97 80  ...s054..+......
11F0: 23 1C 04 80 52 36 80 F8  FF FF 7F F8 FF FF 7F 73  #...R6.........s
1200: 30 35 34 45 36 80 F8 FF  FF 7F F8 FF FF 7F 73 30  054E6.........s0
1210: 33 35 01 80 1C 96 80 52  36 80 F8 FF FF 7F F8 FF  35.....R6.......
1220: FF 7F 73 30 33 35 45 36  80 F8 FF FF 7F F8 FF FF  ..s035E6........
1230: 7F 73 30 33 36 01 80 53  EA F2 0A 01 EA F2 0A 01  .s036..S........
1240: 7A 66 30 32 5B 98 80 EA  F2 0A 01 EA F2 0A 01 7A  zf02[..........z
1250: 66 30 33 5B 90 80 EC F2  0A 01 EC F2 0A 01 7A 66  f03[..........zf
1260: 30 33 52 36 80 F8 FF FF  7F F8 FF FF 7F 73 30 33  03R6.........s03
1270: 36 45 36 80 F8 FF FF 7F  F8 FF FF 7F 73 30 33 37  6E6.........s037
1280: 01 80 45 36 80 F8 FF FF  7F F8 FF FF 7F 7A 66 30  ..E6.........zf0
1290: 33 01 80 53 EC F2 0A 01  EC F2 0A 01 7A 66 30 33  3..S........zf03
12A0: 52 36 80 F8 FF FF 7F F8  FF FF 7F 73 30 33 37 45  R6.........s037E
12B0: 36 80 F8 FF FF 7F F8 FF  FF 7F 73 30 33 38 01 80  6.........s038..
12C0: 4A F0 FF FF 7F ED F2 0A  01 5B 98 80 EA F2 0A 01  J........[......
12D0: EA F2 0A 01 7A 66 30 34  2B EA F2 0A 01 99 80 23  ....zf04+......#
12E0: 2B EA F2 0A 01 9A 80 23  53 EA F2 0A 01 EA F2 0A  +......#S.......
12F0: 01 7A 66 30 34 5C 00 9B  80 5C 01 9B 80 5C 02 9B  .zf04\...\...\..
1300: 80 5C 03 9B 80 9A 52 36  80 F8 FF FF 7F F8 FF FF  .\....R6........
1310: 7F 73 30 33 38 45 36 80  F8 FF FF 7F F8 FF FF 7F  .s038E6.........
1320: 73 30 33 39 01 80 6B 69  64 6C 30 EA F2 0A 01 6B  s039..kidl0....k
1330: 69 64 6C 30 EB F2 0A 01  BA EA F2 0A 01 9C 80 9D  idl0............
1340: 80 22 80 9E 80 BA EB F2  0A 01 24 80 9F 80 22 80  ."........$...".
1350: 79 80 80 EA F2 0A 01 80  EB F2 0A 01 94 01 EB F2  y...............
1360: 0A 01 4A EA F2 0A 01 ED  F2 0A 01 1C 05 80 5B 64  ..J...........[d
1370: 80 ED F2 0A 01 ED F2 0A  01 64 77 74 30 45 36 80  .........dwt0E6.
1380: F8 FF FF 7F F8 FF FF 7F  64 77 74 30 01 80 2B ED  ........dwt0..+.
1390: F2 0A 01 A0 80 23 52 36  80 F8 FF FF 7F F8 FF FF  .....#R6........
13A0: 7F 73 30 33 39 45 36 80  F8 FF FF 7F F8 FF FF 7F  .s039E6.........
13B0: 73 30 34 30 01 80 2B ED  F2 0A 01 A1 80 23 5B 64  s040..+......#[d
13C0: 80 ED F2 0A 01 ED F2 0A  01 64 77 74 31 45 36 80  .........dwt1E6.
13D0: F8 FF FF 7F F8 FF FF 7F  64 77 74 31 01 80 2B ED  ........dwt1..+.
13E0: F2 0A 01 A2 80 23 52 36  80 F8 FF FF 7F F8 FF FF  .....#R6........
13F0: 7F 73 30 34 30 45 36 80  F8 FF FF 7F F8 FF FF 7F  .s040E6.........
1400: 73 30 34 31 01 80 2B EB  F2 0A 01 A3 80 23 52 36  s041..+......#R6
1410: 80 F8 FF FF 7F F8 FF FF  7F 73 30 34 31 45 36 80  .........s041E6.
1420: F8 FF FF 7F F8 FF FF 7F  73 30 34 32 01 80 2B ED  ........s042..+.
1430: F2 0A 01 A4 80 23 5D 01  80 4C 80 45 03 80 F8 FF  .....#]..L.E....
1440: FF 7F F8 FF FF 7F 66 64  6F 31 01 80 55 03 80 F8  ......fdo1..U...
1450: FF FF 7F F8 FF FF 7F 66  64 6F 31 52 36 80 F8 FF  .......fdo1R6...
1460: FF 7F F8 FF FF 7F 73 30  34 32 4E 01 ED F2 0A 01  ......s042N.....
1470: 4E 01 EE F2 0A 01 4E 01  EF F2 0A 01 4E 01 F0 F2  N.....N.....N...
1480: 0A 01 4E 01 F1 F2 0A 01  BA F0 FF FF 7F A5 80 A6  ..N.............
1490: 80 22 80 A7 80 BA EB F2  0A 01 A8 80 A9 80 22 80  ."............".
14A0: 05 80 80 F0 FF FF 7F 80  EB F2 0A 01 4A F0 FF FF  ............J...
14B0: 7F EB F2 0A 01 79 00 EA  F2 0A 01 F0 FF FF 7F 1C  .....y..........
14C0: 96 80 27 05 EB F2 0A 01  03 45 36 80 F8 FF FF 7F  ..'......E6.....
14D0: F8 FF FF 7F 73 30 34 33  01 80 1C 37 80 45 03 80  ....s043...7.E..
14E0: F8 FF FF 7F F8 FF FF 7F  66 64 69 31 01 80 55 03  ........fdi1..U.
14F0: 80 F8 FF FF 7F F8 FF FF  7F 66 64 69 31 2A 05 EB  .........fdi1*..
1500: F2 0A 01 1C 05 80 52 36  80 F8 FF FF 7F F8 FF FF  ......R6........
1510: 7F 73 30 34 33 45 36 80  F8 FF FF 7F F8 FF FF 7F  .s043E6.........
1520: 73 30 34 34 01 80 5B 03  80 EB F2 0A 01 EB F2 0A  s044..[.........
1530: 01 74 73 61 30 2B EB F2  0A 01 AA 80 23 52 36 80  .tsa0+......#R6.
1540: F8 FF FF 7F F8 FF FF 7F  73 30 34 34 45 36 80 F8  ........s044E6..
1550: FF FF 7F F8 FF FF 7F 73  30 34 35 01 80 2B EB F2  .......s045..+..
1560: 0A 01 AB 80 23 2B EB F2  0A 01 AC 80 23 52 36 80  ....#+......#R6.
1570: F8 FF FF 7F F8 FF FF 7F  73 30 34 35 45 36 80 F8  ........s045E6..
1580: FF FF 7F F8 FF FF 7F 73  30 34 36 01 80 5B 03 80  .......s046..[..
1590: EB F2 0A 01 EB F2 0A 01  74 73 61 31 2B EB F2 0A  ........tsa1+...
15A0: 01 AD 80 23 52 36 80 F8  FF FF 7F F8 FF FF 7F 73  ...#R6.........s
15B0: 30 34 36 45 36 80 F8 FF  FF 7F F8 FF FF 7F 73 30  046E6.........s0
15C0: 34 37 01 80 7C 00 EA F2  0A 01 2B EA F2 0A 01 AE  47..|.....+.....
15D0: 80 23 7C 01 EA F2 0A 01  52 36 80 F8 FF FF 7F F8  .#|.....R6......
15E0: FF FF 7F 73 30 34 37 45  36 80 F8 FF FF 7F F8 FF  ...s047E6.......
15F0: FF 7F 73 30 34 38 01 80  5B 92 80 EB F2 0A 01 EB  ..s048..[.......
1600: F2 0A 01 74 73 6B 31 2B  EB F2 0A 01 AF 80 23 4A  ...tsk1+......#J
1610: EA F2 0A 01 EB F2 0A 01  1C 05 80 2B EA F2 0A 01  ...........+....
1620: B0 80 23 5B 92 80 EB F2  0A 01 EB F2 0A 01 74 68  ..#[..........th
1630: 6B 32 52 36 80 F8 FF FF  7F F8 FF FF 7F 73 30 34  k2R6.........s04
1640: 38 45 36 80 F8 FF FF 7F  F8 FF FF 7F 73 30 34 39  8E6.........s049
1650: 01 80 27 05 EB F2 0A 01  04 1C 13 80 27 05 EA F2  ..'.........'...
1660: 0A 01 03 1C 04 80 45 03  80 F8 FF FF 7F F8 FF FF  ......E.........
1670: 7F 66 64 6F 31 01 80 55  03 80 F8 FF FF 7F F8 FF  .fdo1..U........
1680: FF 7F 66 64 6F 31 52 36  80 F8 FF FF 7F F8 FF FF  ..fdo1R6........
1690: 7F 73 30 34 39 5C 00 01  80 5C 01 01 80 5C 02 01  .s049\...\...\..
16A0: 80 5C 03 01 80 9A 46 00  1C 04 80 45 03 80 F8 FF  .\....F....E....
16B0: FF 7F F8 FF FF 7F 66 64  69 31 01 80 21 00        ......fdi1..!.  
```

#### Opcodes

```
  0: 0x01CB [0x42] SET_CLI_EVENT_CANCEL_DATA()
  1: 0x01CC [0x5D] SET_MUSIC_VOLUME(volume=0*, fade_time=120*)
  2: 0x01D1 [0x45] LOAD_SCHEDULED_TASK: Load scheduler "fdo1" with entities [EventEntity, EventEntity], work=[200*, 0*]
  3: 0x01E2 [0x55] WAIT_LOAD_SCHEDULER: Wait for scheduler "fdo1" with entities [EventEntity, EventEntity], work=200*
  4: 0x01F1 [0x46] CAMERA_CONTROL: Disable user control
  5: 0x01F3 [0x38] SET_CLIENT_EVENT_MODE(mode=27*)
  6: 0x01F6 [0x45] LOAD_SCHEDULED_TASK: Load scheduler "stes" with entities [EventEntity, EventEntity], work=[336*, 0*]
  7: 0x0207 [0x2F] Zeid (ID: 17494762/0x010AF2EA)->Render.Flags0 &= ~0x80000 // Bit 19
  8: 0x020D [0x2F] Volker (ID: 17494763/0x010AF2EB)->Render.Flags0 &= ~0x80000 // Bit 19
  9: 0x0213 [0x2F] Unnamed NPC (ID: 17494768/0x010AF2F0)->Render.Flags0 &= ~0x80000 // Bit 19
 10: 0x0219 [0x2F] Unnamed NPC (ID: 17494769/0x010AF2F1)->Render.Flags0 &= ~0x80000 // Bit 19
 11: 0x021F [0x2F] Ernestine (ID: 17494765/0x010AF2ED)->Render.Flags0 &= ~0x80000 // Bit 19
 12: 0x0225 [0x4E] SET_ENTITY_HIDE_FLAG: Show Ernestine (ID: 17494765/0x010AF2ED)
 13: 0x022B [0x2F] Unnamed NPC (ID: 17494766/0x010AF2EE)->Render.Flags0 &= ~0x80000 // Bit 19
 14: 0x0231 [0x4E] SET_ENTITY_HIDE_FLAG: Show Unnamed NPC (ID: 17494766/0x010AF2EE)
 15: 0x0237 [0x2F] Unnamed NPC (ID: 17494767/0x010AF2EF)->Render.Flags0 &= ~0x80000 // Bit 19
 16: 0x023D [0x4E] SET_ENTITY_HIDE_FLAG: Show Unnamed NPC (ID: 17494767/0x010AF2EF)
 17: 0x0243 [0x2F] Unnamed NPC (ID: 17494770/0x010AF2F2)->Render.Flags0 &= ~0x80000 // Bit 19
 18: 0x0249 [0x2F] Unnamed NPC (ID: 17494771/0x010AF2F3)->Render.Flags0 &= ~0x80000 // Bit 19
 19: 0x024F [0x2F] Unnamed NPC (ID: 17494772/0x010AF2F4)->Render.Flags0 &= ~0x80000 // Bit 19
 20: 0x0255 [0xBA] SET_ENTITY_POSITION(entity_id=Zeid (ID: 17494762/0x010AF2EA), pos_x=339.884*, pos_z=-129.493*, pos_y=-31.999*, direction=0.6°*)
 21: 0x0262 [0xBA] SET_ENTITY_POSITION(entity_id=Volker (ID: 17494763/0x010AF2EB), pos_x=340.040*, pos_z=-132.441*, pos_y=-32.000*, direction=266.7°*)
 22: 0x026F [0xBA] SET_ENTITY_POSITION(entity_id=Unnamed NPC (ID: 17494768/0x010AF2F0), pos_x=340.746*, pos_z=-133.787*, pos_y=-32.000*, direction=272.5°*)
 23: 0x027C [0xBA] SET_ENTITY_POSITION(entity_id=Unnamed NPC (ID: 17494769/0x010AF2F1), pos_x=338.874*, pos_z=-133.531*, pos_y=-32.000*, direction=120.1°*)
 24: 0x0289 [0xBA] SET_ENTITY_POSITION(entity_id=LocalPlayer, pos_x=344.816*, pos_z=-126.985*, pos_y=-32.000*, direction=324.9°*)
 25: 0x0296 [0xBA] SET_ENTITY_POSITION(entity_id=Ernestine (ID: 17494765/0x010AF2ED), pos_x=339.948*, pos_z=-131.255*, pos_y=-32.000*, direction=282.8°*)
 26: 0x02A3 [0xBA] SET_ENTITY_POSITION(entity_id=Unnamed NPC (ID: 17494766/0x010AF2EE), pos_x=338.955*, pos_z=-132.555*, pos_y=-32.000*, direction=272.2°*)
 27: 0x02B0 [0xBA] SET_ENTITY_POSITION(entity_id=Unnamed NPC (ID: 17494767/0x010AF2EF), pos_x=341.048*, pos_z=-132.328*, pos_y=-32.000*, direction=277.6°*)
 28: 0x02BD [0x80] LOAD_WAIT(entity=LocalPlayer)
 29: 0x02C2 [0x80] LOAD_WAIT(entity=Ernestine (ID: 17494765/0x010AF2ED))
 30: 0x02C7 [0x80] LOAD_WAIT(entity=Unnamed NPC (ID: 17494766/0x010AF2EE))
 31: 0x02CC [0x80] LOAD_WAIT(entity=Unnamed NPC (ID: 17494767/0x010AF2EF))
 32: 0x02D1 [0x94] Unnamed NPC (ID: 17494766/0x010AF2EE)->Render.Flags3 ^= 0x01
 33: 0x02D7 [0x94] Unnamed NPC (ID: 17494767/0x010AF2EF)->Render.Flags3 ^= 0x01
 34: 0x02DD [0x45] LOAD_SCHEDULED_TASK: Load scheduler "s000" with entities [EventEntity, EventEntity], work=[334*, 0*]
 35: 0x02EE [0x1C] WAIT(15* ticks)
 36: 0x02F1 [0x45] LOAD_SCHEDULED_TASK: Load scheduler "fdi1" with entities [EventEntity, EventEntity], work=[200*, 0*]
 37: 0x0302 [0x55] WAIT_LOAD_SCHEDULER: Wait for scheduler "fdi1" with entities [EventEntity, EventEntity], work=200*
 38: 0x0311 [0x48] [System] [7922*]:
    → "You hear an odd skittering sound coming from beneath the sarcophagus..."
 39: 0x0314 [0x23] WAIT_FOR_DIALOG_INTERACTION
 40: 0x0315 [0x27] REQ_SET(priority=0x05, entity_id=Ernestine (ID: 17494765/0x010AF2ED), tag_num=0x02)
 41: 0x031C [0x1C] WAIT(15* ticks)
 42: 0x031F [0x27] REQ_SET(priority=0x05, entity_id=Unnamed NPC (ID: 17494766/0x010AF2EE), tag_num=0x02)
 43: 0x0326 [0x1C] WAIT(5* ticks)
 44: 0x0329 [0x27] REQ_SET(priority=0x05, entity_id=Unnamed NPC (ID: 17494767/0x010AF2EF), tag_num=0x02)
 45: 0x0330 [0x1C] WAIT(30* ticks)
 46: 0x0333 [0x52] END_LOAD_SCHEDULER: End scheduler "s000" with entities [EventEntity, EventEntity], work=334*
 47: 0x0342 [0x45] LOAD_SCHEDULED_TASK: Load scheduler "s001" with entities [EventEntity, EventEntity], work=[334*, 0*]
 48: 0x0353 [0x4A] LocalPlayer looks at Ernestine (ID: 17494765/0x010AF2ED)
 49: 0x035C [0x2B] Ernestine (ID: 17494765/0x010AF2ED) [7923*]:
    → "Hey, what do you think you're doing down here?"
 50: 0x0363 [0x23] WAIT_FOR_DIALOG_INTERACTION
 51: 0x0364 [0x2A] GET_REQ_LEVEL(level=5, entity_id=Ernestine (ID: 17494765/0x010AF2ED))
 52: 0x036A [0x2A] GET_REQ_LEVEL(level=5, entity_id=Unnamed NPC (ID: 17494766/0x010AF2EE))
 53: 0x0370 [0x2A] GET_REQ_LEVEL(level=5, entity_id=Unnamed NPC (ID: 17494767/0x010AF2EF))
 54: 0x0376 [0x52] END_LOAD_SCHEDULER: End scheduler "s001" with entities [EventEntity, EventEntity], work=334*
 55: 0x0385 [0x45] LOAD_SCHEDULED_TASK: Load scheduler "s002" with entities [EventEntity, EventEntity], work=[334*, 0*]
 56: 0x0396 [0x66] LOAD_EXT_SCHEDULER_MAIN: Load scheduler "tlk0" with entities [Ernestine (ID: 17494765/0x010AF2ED), Ernestine (ID: 17494765/0x010AF2ED)], work=19*
 57: 0x03A5 [0x2B] Ernestine (ID: 17494765/0x010AF2ED) [7924*]:
    → "An odd sound, you say?"
 58: 0x03AC [0x23] WAIT_FOR_DIALOG_INTERACTION
 59: 0x03AD [0x2B] Ernestine (ID: 17494765/0x010AF2ED) [7925*]:
    → "I don't hear anything except your impending doom. This place is dangerous. I suggest you make tracks."
 60: 0x03B4 [0x23] WAIT_FOR_DIALOG_INTERACTION
 61: 0x03B5 [0x66] LOAD_EXT_SCHEDULER_MAIN: Load scheduler "tlk1" with entities [Ernestine (ID: 17494765/0x010AF2ED), Ernestine (ID: 17494765/0x010AF2ED)], work=19*
 62: 0x03C4 [0x52] END_LOAD_SCHEDULER: End scheduler "s002" with entities [EventEntity, EventEntity], work=334*
 63: 0x03D3 [0x45] LOAD_SCHEDULED_TASK: Load scheduler "s003" with entities [EventEntity, EventEntity], work=[334*, 0*]
 64: 0x03E4 [0x9F] LOAD_SCHEDULED_TASK_ALT: Load scheduler "str0" with entities [EventEntity, EventEntity], work=[127*, 0*]
 65: 0x03F5 [0x45] LOAD_SCHEDULED_TASK: Load scheduler "str0" with entities [EventEntity, EventEntity], work=[334*, 0*]
 66: 0x0406 [0x1C] WAIT(90* ticks)
 67: 0x0409 [0x52] END_LOAD_SCHEDULER: End scheduler "s003" with entities [EventEntity, EventEntity], work=334*
 68: 0x0418 [0x45] LOAD_SCHEDULED_TASK: Load scheduler "s184" with entities [EventEntity, EventEntity], work=[334*, 0*]
 69: 0x0429 [0x9F] LOAD_SCHEDULED_TASK_ALT: Load scheduler "kill" with entities [EventEntity, EventEntity], work=[127*, 0*]
 70: 0x043A [0x7C] Ernestine (ID: 17494765/0x010AF2ED)->Render.Flags2 |= 0x00
 71: 0x0440 [0x2B] Ernestine (ID: 17494765/0x010AF2ED) [7926*]:
    → "!?"
 72: 0x0447 [0x23] WAIT_FOR_DIALOG_INTERACTION
 73: 0x0448 [0x7C] Ernestine (ID: 17494765/0x010AF2ED)->Render.Flags2 |= 0x01
 74: 0x044E [0xBB] LOAD_EVENT_SCHEDULER_ALT: Load scheduler "s001" with entities [EventEntity, EventEntity], work=[164*, 0*]
 75: 0x045F [0x52] END_LOAD_SCHEDULER: End scheduler "s184" with entities [EventEntity, EventEntity], work=334*
 76: 0x046E [0x45] LOAD_SCHEDULED_TASK: Load scheduler "s004" with entities [EventEntity, EventEntity], work=[334*, 0*]
 77: 0x047F [0x9F] LOAD_SCHEDULED_TASK_ALT: Load scheduler "str0" with entities [EventEntity, EventEntity], work=[127*, 0*]
 78: 0x0490 [0x45] LOAD_SCHEDULED_TASK: Load scheduler "str1" with entities [EventEntity, EventEntity], work=[334*, 0*]
 79: 0x04A1 [0x4B] UPDATE_ENTITY_YAW(entity=LocalPlayer, yaw=20.3°*)
 80: 0x04A8 [0x1C] WAIT(120* ticks)
 81: 0x04AB [0x6E] LocalPlayer uses emote 21*
 82: 0x04B2 [0x99] Wait for LocalPlayer animation to complete
 83: 0x04B7 [0x1C] WAIT(120* ticks)
 84: 0x04BA [0x45] LOAD_SCHEDULED_TASK: Load scheduler "who1" with entities [EventEntity, EventEntity], work=[201*, 0*]
 85: 0x04CB [0x1C] WAIT(60* ticks)
 86: 0x04CE [0x45] LOAD_SCHEDULED_TASK: Load scheduler "stre" with entities [EventEntity, EventEntity], work=[334*, 0*]
 87: 0x04DF [0x1C] WAIT(30* ticks)
 88: 0x04E2 [0x45] LOAD_SCHEDULED_TASK: Load scheduler "open" with entities [EventEntity, EventEntity], work=[335*, 0*]
 89: 0x04F3 [0x55] WAIT_LOAD_SCHEDULER: Wait for scheduler "who1" with entities [EventEntity, EventEntity], work=201*
 90: 0x0502 [0x52] END_LOAD_SCHEDULER: End scheduler "s004" with entities [EventEntity, EventEntity], work=334*
 91: 0x0511 [0x9F] LOAD_SCHEDULED_TASK_ALT: Load scheduler "kill" with entities [EventEntity, EventEntity], work=[127*, 0*]
 92: 0x0522 [0x7B] Ernestine (ID: 17494765/0x010AF2ED) stops talking
 93: 0x0527 [0x2F] Unnamed NPC (ID: 17494764/0x010AF2EC)->Render.Flags0 &= ~0x80000 // Bit 19
 94: 0x052D [0x4E] SET_ENTITY_HIDE_FLAG: Show Unnamed NPC (ID: 17494764/0x010AF2EC)
 95: 0x0533 [0xBA] SET_ENTITY_POSITION(entity_id=Unnamed NPC (ID: 17494764/0x010AF2EC), pos_x=346.992*, pos_z=-125.956*, pos_y=-32.408*, direction=178.2°*)
 96: 0x0540 [0x80] LOAD_WAIT(entity=Unnamed NPC (ID: 17494764/0x010AF2EC))
 97: 0x0545 [0xBA] SET_ENTITY_POSITION(entity_id=LocalPlayer, pos_x=344.506*, pos_z=-128.647*, pos_y=-32.000*, direction=291.8°*)
 98: 0x0552 [0x80] LOAD_WAIT(entity=LocalPlayer)
 99: 0x0557 [0x5C] MUSIC_CONTROL: Set Idle (Day) music to song 250*
100: 0x055B [0x5C] MUSIC_CONTROL: Set Idle (Night) music to song 250*
101: 0x055F [0x5C] MUSIC_CONTROL: Set Combat (Solo) music to song 250*
102: 0x0563 [0x5C] MUSIC_CONTROL: Set Combat (Party) music to song 250*
103: 0x0567 [0x9A] WAIT_MUSIC_SERVER()
104: 0x0568 [0x1C] WAIT(60* ticks)
105: 0x056B [0x45] LOAD_SCHEDULED_TASK: Load scheduler "s005" with entities [EventEntity, EventEntity], work=[334*, 0*]
106: 0x057C [0x1C] WAIT(15* ticks)
107: 0x057F [0x45] LOAD_SCHEDULED_TASK: Load scheduler "anay" with entities [EventEntity, EventEntity], work=[336*, 0*]
108: 0x0590 [0x5B] LOAD_EXT_SCHEDULER: Load scheduler "anay" with entities [Unnamed NPC (ID: 17494764/0x010AF2EC), Unnamed NPC (ID: 17494764/0x010AF2EC)], work=1421*
109: 0x059F [0x45] LOAD_SCHEDULED_TASK: Load scheduler "whi1" with entities [EventEntity, EventEntity], work=[201*, 0*]
110: 0x05B0 [0xBB] LOAD_EVENT_SCHEDULER_ALT: Load scheduler "s002" with entities [EventEntity, EventEntity], work=[164*, 0*]
111: 0x05C1 [0x55] WAIT_LOAD_SCHEDULER: Wait for scheduler "s005" with entities [EventEntity, EventEntity], work=334*
112: 0x05D0 [0x1C] WAIT(180* ticks)
113: 0x05D3 [0x45] LOAD_SCHEDULED_TASK: Load scheduler "s230" with entities [EventEntity, EventEntity], work=[335*, 0*]
114: 0x05E4 [0x45] LOAD_SCHEDULED_TASK: Load scheduler "ari0" with entities [EventEntity, EventEntity], work=[336*, 0*]
115: 0x05F5 [0x5B] LOAD_EXT_SCHEDULER: Load scheduler "ari0" with entities [Ernestine (ID: 17494765/0x010AF2ED), Ernestine (ID: 17494765/0x010AF2ED)], work=1449*
116: 0x0604 [0x5B] LOAD_EXT_SCHEDULER: Load scheduler "aria" with entities [Unnamed NPC (ID: 17494766/0x010AF2EE), Unnamed NPC (ID: 17494766/0x010AF2EE)], work=1475*
117: 0x0613 [0x5B] LOAD_EXT_SCHEDULER: Load scheduler "arib" with entities [Unnamed NPC (ID: 17494767/0x010AF2EF), Unnamed NPC (ID: 17494767/0x010AF2EF)], work=1475*
118: 0x0622 [0x53] WAIT_SCHEDULER_TASK: Wait for scheduler "anay" with entities [Unnamed NPC (ID: 17494764/0x010AF2EC), Unnamed NPC (ID: 17494764/0x010AF2EC)]
119: 0x062F [0x53] WAIT_SCHEDULER_TASK: Wait for scheduler "ari0" with entities [Ernestine (ID: 17494765/0x010AF2ED), Ernestine (ID: 17494765/0x010AF2ED)]
120: 0x063C [0x53] WAIT_SCHEDULER_TASK: Wait for scheduler "aria" with entities [Unnamed NPC (ID: 17494766/0x010AF2EE), Unnamed NPC (ID: 17494766/0x010AF2EE)]
121: 0x0649 [0x53] WAIT_SCHEDULER_TASK: Wait for scheduler "arib" with entities [Unnamed NPC (ID: 17494767/0x010AF2EF), Unnamed NPC (ID: 17494767/0x010AF2EF)]
122: 0x0656 [0x5B] LOAD_EXT_SCHEDULER: Load scheduler "ana0" with entities [Unnamed NPC (ID: 17494764/0x010AF2EC), Unnamed NPC (ID: 17494764/0x010AF2EC)], work=1421*
123: 0x0665 [0xBB] LOAD_EVENT_SCHEDULER_ALT: Load scheduler "s001" with entities [Unnamed NPC (ID: 17494764/0x010AF2EC), Ernestine (ID: 17494765/0x010AF2ED)], work=[165*, 0*]
124: 0x0676 [0x52] END_LOAD_SCHEDULER: End scheduler "s230" with entities [EventEntity, EventEntity], work=335*
125: 0x0685 [0x45] LOAD_SCHEDULED_TASK: Load scheduler "s006" with entities [EventEntity, EventEntity], work=[334*, 0*]
126: 0x0696 [0x6E] LocalPlayer uses emote 21*
127: 0x069D [0x99] Wait for LocalPlayer animation to complete
128: 0x06A2 [0x2B] Ernestine (ID: 17494765/0x010AF2ED) [7927*]:
    → "What in the...!"
129: 0x06A9 [0x1C] WAIT(30* ticks)
130: 0x06AC [0x5B] LOAD_EXT_SCHEDULER: Load scheduler "anb0" with entities [Ernestine (ID: 17494765/0x010AF2ED), Ernestine (ID: 17494765/0x010AF2ED)], work=1357*
131: 0x06BB [0x5B] LOAD_EXT_SCHEDULER: Load scheduler "anb0" with entities [Unnamed NPC (ID: 17494766/0x010AF2EE), Unnamed NPC (ID: 17494766/0x010AF2EE)], work=1352*
132: 0x06CA [0x5B] LOAD_EXT_SCHEDULER: Load scheduler "anb0" with entities [Unnamed NPC (ID: 17494767/0x010AF2EF), Unnamed NPC (ID: 17494767/0x010AF2EF)], work=1353*
133: 0x06D9 [0x1C] WAIT(30* ticks)
134: 0x06DC [0x4E] SET_ENTITY_HIDE_FLAG: Hide Unnamed NPC (ID: 17494764/0x010AF2EC)
135: 0x06E2 [0xBA] SET_ENTITY_POSITION(entity_id=Unnamed NPC (ID: 17494764/0x010AF2EC), pos_x=339.897*, pos_z=-129.016*, pos_y=-32.000*, direction=180.9°*)
136: 0x06EF [0x52] END_LOAD_SCHEDULER: End scheduler "s006" with entities [EventEntity, EventEntity], work=334*
137: 0x06FE [0x45] LOAD_SCHEDULED_TASK: Load scheduler "s009" with entities [EventEntity, EventEntity], work=[334*, 0*]
138: 0x070F [0x4E] SET_ENTITY_HIDE_FLAG: Hide LocalPlayer
139: 0x0715 [0xBA] SET_ENTITY_POSITION(entity_id=LocalPlayer, pos_x=344.816*, pos_z=-126.985*, pos_y=-32.000*, direction=324.9°*)
140: 0x0722 [0x1C] WAIT(70* ticks)
141: 0x0725 [0x52] END_LOAD_SCHEDULER: End scheduler "s009" with entities [EventEntity, EventEntity], work=334*
142: 0x0734 [0x45] LOAD_SCHEDULED_TASK: Load scheduler "s053" with entities [EventEntity, EventEntity], work=[334*, 0*]
143: 0x0745 [0x5B] LOAD_EXT_SCHEDULER: Load scheduler "anb0" with entities [Unnamed NPC (ID: 17494764/0x010AF2EC), Unnamed NPC (ID: 17494764/0x010AF2EC)], work=1421*
144: 0x0754 [0x45] LOAD_SCHEDULED_TASK: Load scheduler "anb0" with entities [EventEntity, EventEntity], work=[334*, 0*]
145: 0x0765 [0xBB] LOAD_EVENT_SCHEDULER_ALT: Load scheduler "s002" with entities [Unnamed NPC (ID: 17494764/0x010AF2EC), Ernestine (ID: 17494765/0x010AF2ED)], work=[165*, 0*]
146: 0x0776 [0x4E] SET_ENTITY_HIDE_FLAG: Show Unnamed NPC (ID: 17494764/0x010AF2EC)
147: 0x077C [0x1C] WAIT(50* ticks)
148: 0x077F [0x52] END_LOAD_SCHEDULER: End scheduler "s053" with entities [EventEntity, EventEntity], work=334*
149: 0x078E [0x45] LOAD_SCHEDULED_TASK: Load scheduler "s007" with entities [EventEntity, EventEntity], work=[334*, 0*]
150: 0x079F [0x1C] WAIT(31* ticks)
151: 0x07A2 [0xBB] LOAD_EVENT_SCHEDULER_ALT: Load scheduler "s003" with entities [Unnamed NPC (ID: 17494764/0x010AF2EC), Ernestine (ID: 17494765/0x010AF2ED)], work=[165*, 0*]
152: 0x07B3 [0xBB] LOAD_EVENT_SCHEDULER_ALT: Load scheduler "s003" with entities [Unnamed NPC (ID: 17494764/0x010AF2EC), Unnamed NPC (ID: 17494766/0x010AF2EE)], work=[165*, 0*]
153: 0x07C4 [0xBB] LOAD_EVENT_SCHEDULER_ALT: Load scheduler "s003" with entities [Unnamed NPC (ID: 17494764/0x010AF2EC), Unnamed NPC (ID: 17494767/0x010AF2EF)], work=[165*, 0*]
154: 0x07D5 [0x1C] WAIT(39* ticks)
155: 0x07D8 [0x52] END_LOAD_SCHEDULER: End scheduler "s007" with entities [EventEntity, EventEntity], work=334*
156: 0x07E7 [0x45] LOAD_SCHEDULED_TASK: Load scheduler "s008" with entities [EventEntity, EventEntity], work=[334*, 0*]
157: 0x07F8 [0x4A] LocalPlayer looks at Unnamed NPC (ID: 17494764/0x010AF2EC)
158: 0x0801 [0x79] LocalPlayer looks at LocalPlayer (Basic look)
159: 0x080B [0x1C] WAIT(120* ticks)
160: 0x080E [0x52] END_LOAD_SCHEDULER: End scheduler "s008" with entities [EventEntity, EventEntity], work=334*
161: 0x081D [0x45] LOAD_SCHEDULED_TASK: Load scheduler "s052" with entities [EventEntity, EventEntity], work=[334*, 0*]
162: 0x082E [0x1C] WAIT(120* ticks)
163: 0x0831 [0x52] END_LOAD_SCHEDULER: End scheduler "s052" with entities [EventEntity, EventEntity], work=334*
164: 0x0840 [0x45] LOAD_SCHEDULED_TASK: Load scheduler "s181" with entities [EventEntity, EventEntity], work=[334*, 0*]
165: 0x0851 [0xBB] LOAD_EVENT_SCHEDULER_ALT: Load scheduler "s004" with entities [Unnamed NPC (ID: 17494764/0x010AF2EC), Ernestine (ID: 17494765/0x010AF2ED)], work=[165*, 0*]
166: 0x0862 [0x1C] WAIT(240* ticks)
167: 0x0865 [0x52] END_LOAD_SCHEDULER: End scheduler "s181" with entities [EventEntity, EventEntity], work=334*
168: 0x0874 [0x45] LOAD_SCHEDULED_TASK: Load scheduler "s010" with entities [EventEntity, EventEntity], work=[334*, 0*]
169: 0x0885 [0x5B] LOAD_EXT_SCHEDULER: Load scheduler "anb1" with entities [Unnamed NPC (ID: 17494764/0x010AF2EC), Unnamed NPC (ID: 17494764/0x010AF2EC)], work=1421*
170: 0x0894 [0x45] LOAD_SCHEDULED_TASK: Load scheduler "anb1" with entities [EventEntity, EventEntity], work=[334*, 0*]
171: 0x08A5 [0xBB] LOAD_EVENT_SCHEDULER_ALT: Load scheduler "s005" with entities [Unnamed NPC (ID: 17494764/0x010AF2EC), Ernestine (ID: 17494765/0x010AF2ED)], work=[165*, 0*]
172: 0x08B6 [0x5B] LOAD_EXT_SCHEDULER: Load scheduler "anb1" with entities [Ernestine (ID: 17494765/0x010AF2ED), Ernestine (ID: 17494765/0x010AF2ED)], work=1357*
173: 0x08C5 [0x5B] LOAD_EXT_SCHEDULER: Load scheduler "anb1" with entities [Unnamed NPC (ID: 17494766/0x010AF2EE), Unnamed NPC (ID: 17494766/0x010AF2EE)], work=1352*
174: 0x08D4 [0x5B] LOAD_EXT_SCHEDULER: Load scheduler "anb1" with entities [Unnamed NPC (ID: 17494767/0x010AF2EF), Unnamed NPC (ID: 17494767/0x010AF2EF)], work=1353*
175: 0x08E3 [0x53] WAIT_SCHEDULER_TASK: Wait for scheduler "anb1" with entities [Ernestine (ID: 17494765/0x010AF2ED), Ernestine (ID: 17494765/0x010AF2ED)]
176: 0x08F0 [0xBA] SET_ENTITY_POSITION(entity_id=Ernestine (ID: 17494765/0x010AF2ED), pos_x=349.193*, pos_z=-128.917*, pos_y=-32.000*, direction=271.1°*)
177: 0x08FD [0x80] LOAD_WAIT(entity=Ernestine (ID: 17494765/0x010AF2ED))
178: 0x0902 [0x5B] LOAD_EXT_SCHEDULER: Load scheduler "anc0" with entities [Ernestine (ID: 17494765/0x010AF2ED), Ernestine (ID: 17494765/0x010AF2ED)], work=1357*
179: 0x0911 [0xBB] LOAD_EVENT_SCHEDULER_ALT: Load scheduler "s001" with entities [Ernestine (ID: 17494765/0x010AF2ED), Ernestine (ID: 17494765/0x010AF2ED)], work=[187*, 0*]
180: 0x0922 [0x52] END_LOAD_SCHEDULER: End scheduler "s010" with entities [EventEntity, EventEntity], work=334*
181: 0x0931 [0x45] LOAD_SCHEDULED_TASK: Load scheduler "s011" with entities [EventEntity, EventEntity], work=[334*, 0*]
182: 0x0942 [0x4E] SET_ENTITY_HIDE_FLAG: Show LocalPlayer
183: 0x0948 [0x80] LOAD_WAIT(entity=LocalPlayer)
184: 0x094D [0x53] WAIT_SCHEDULER_TASK: Wait for scheduler "anc0" with entities [Ernestine (ID: 17494765/0x010AF2ED), Ernestine (ID: 17494765/0x010AF2ED)]
185: 0x095A [0x55] WAIT_LOAD_SCHEDULER: Wait for scheduler "s011" with entities [EventEntity, EventEntity], work=334*
186: 0x0969 [0x45] LOAD_SCHEDULED_TASK: Load scheduler "s012" with entities [EventEntity, EventEntity], work=[334*, 0*]
187: 0x097A [0x45] LOAD_SCHEDULED_TASK: Load scheduler "tira" with entities [EventEntity, EventEntity], work=[334*, 0*]
188: 0x098B [0x5B] LOAD_EXT_SCHEDULER: Load scheduler "anb2" with entities [Unnamed NPC (ID: 17494764/0x010AF2EC), Unnamed NPC (ID: 17494764/0x010AF2EC)], work=1421*
189: 0x099A [0x53] WAIT_SCHEDULER_TASK: Wait for scheduler "anb2" with entities [Unnamed NPC (ID: 17494764/0x010AF2EC), Unnamed NPC (ID: 17494764/0x010AF2EC)]
190: 0x09A7 [0x27] REQ_SET(priority=0x05, entity_id=LocalPlayer, tag_num=0x12)
191: 0x09AE [0x52] END_LOAD_SCHEDULER: End scheduler "s012" with entities [EventEntity, EventEntity], work=334*
192: 0x09BD [0x02] IF !(LocalPlayer->Race == 5*) GOTO 0x09D9
193: 0x09C5 [0x45] LOAD_SCHEDULED_TASK: Load scheduler "s014" with entities [EventEntity, EventEntity], work=[334*, 0*]
194: 0x09D6 [0x01] GOTO 0x0A06
195: 0x09D9 [0x02] IF !(LocalPlayer->Race == 6*) GOTO 0x09F5
196: 0x09E1 [0x45] LOAD_SCHEDULED_TASK: Load scheduler "s014" with entities [EventEntity, EventEntity], work=[334*, 0*]
197: 0x09F2 [0x01] GOTO 0x0A06
198: 0x09F5 [0x45] LOAD_SCHEDULED_TASK: Load scheduler "s013" with entities [EventEntity, EventEntity], work=[334*, 0*]

SUBROUTINE_0A06:
199: 0x0A06 [0x1C] WAIT(180* ticks)
200: 0x0A09 [0x4E] SET_ENTITY_HIDE_FLAG: Show Zeid (ID: 17494762/0x010AF2EA)
201: 0x0A0F [0xBA] SET_ENTITY_POSITION(entity_id=Unnamed NPC (ID: 17494764/0x010AF2EC), pos_x=339.884*, pos_z=-129.493*, pos_y=-31.999*, direction=0.6°*)
202: 0x0A1C [0x80] LOAD_WAIT(entity=Zeid (ID: 17494762/0x010AF2EA))
203: 0x0A21 [0x80] LOAD_WAIT(entity=Unnamed NPC (ID: 17494764/0x010AF2EC))
204: 0x0A26 [0x94] Zeid (ID: 17494762/0x010AF2EA)->Render.Flags3 ^= 0x01
205: 0x0A2C [0x94] Unnamed NPC (ID: 17494764/0x010AF2EC)->Render.Flags3 ^= 0x01
206: 0x0A32 [0x5B] LOAD_EXT_SCHEDULER: Load scheduler "az00" with entities [Unnamed NPC (ID: 17494764/0x010AF2EC), Unnamed NPC (ID: 17494764/0x010AF2EC)], work=1423*
207: 0x0A41 [0x5B] LOAD_EXT_SCHEDULER: Load scheduler "az01" with entities [Zeid (ID: 17494762/0x010AF2EA), Zeid (ID: 17494762/0x010AF2EA)], work=1427*
208: 0x0A50 [0x5B] LOAD_EXT_SCHEDULER: Load scheduler "az01" with entities [Unnamed NPC (ID: 17494764/0x010AF2EC), Unnamed NPC (ID: 17494764/0x010AF2EC)], work=1423*
209: 0x0A5F [0xBB] LOAD_EVENT_SCHEDULER_ALT: Load scheduler "s000" with entities [Unnamed NPC (ID: 17494764/0x010AF2EC), Unnamed NPC (ID: 17494764/0x010AF2EC)], work=[188*, 0*]
210: 0x0A70 [0x52] END_LOAD_SCHEDULER: End scheduler "s013" with entities [EventEntity, EventEntity], work=334*
211: 0x0A7F [0x52] END_LOAD_SCHEDULER: End scheduler "s014" with entities [EventEntity, EventEntity], work=334*
212: 0x0A8E [0x45] LOAD_SCHEDULED_TASK: Load scheduler "s015" with entities [EventEntity, EventEntity], work=[334*, 0*]
213: 0x0A9F [0x45] LOAD_SCHEDULED_TASK: Load scheduler "zeid" with entities [EventEntity, EventEntity], work=[334*, 0*]
214: 0x0AB0 [0x1C] WAIT(60* ticks)
215: 0x0AB3 [0x52] END_LOAD_SCHEDULER: End scheduler "s015" with entities [EventEntity, EventEntity], work=334*
216: 0x0AC2 [0x45] LOAD_SCHEDULED_TASK: Load scheduler "s016" with entities [EventEntity, EventEntity], work=[334*, 0*]
217: 0x0AD3 [0x1C] WAIT(90* ticks)
218: 0x0AD6 [0x52] END_LOAD_SCHEDULER: End scheduler "s016" with entities [EventEntity, EventEntity], work=334*
219: 0x0AE5 [0x45] LOAD_SCHEDULED_TASK: Load scheduler "s051" with entities [EventEntity, EventEntity], work=[334*, 0*]
220: 0x0AF6 [0x53] WAIT_SCHEDULER_TASK: Wait for scheduler "az01" with entities [Zeid (ID: 17494762/0x010AF2EA), Zeid (ID: 17494762/0x010AF2EA)]
221: 0x0B03 [0x52] END_LOAD_SCHEDULER: End scheduler "s051" with entities [EventEntity, EventEntity], work=334*
222: 0x0B12 [0x45] LOAD_SCHEDULED_TASK: Load scheduler "s017" with entities [EventEntity, EventEntity], work=[334*, 0*]
223: 0x0B23 [0x45] LOAD_SCHEDULED_TASK: Load scheduler "az02" with entities [EventEntity, EventEntity], work=[334*, 0*]
224: 0x0B34 [0x5B] LOAD_EXT_SCHEDULER: Load scheduler "az02" with entities [Zeid (ID: 17494762/0x010AF2EA), Zeid (ID: 17494762/0x010AF2EA)], work=1427*
225: 0x0B43 [0x5B] LOAD_EXT_SCHEDULER: Load scheduler "az02" with entities [Unnamed NPC (ID: 17494764/0x010AF2EC), Unnamed NPC (ID: 17494764/0x010AF2EC)], work=1423*
226: 0x0B52 [0xBB] LOAD_EVENT_SCHEDULER_ALT: Load scheduler "s001" with entities [Unnamed NPC (ID: 17494764/0x010AF2EC), Unnamed NPC (ID: 17494764/0x010AF2EC)], work=[188*, 0*]
227: 0x0B63 [0x27] REQ_SET(priority=0x05, entity_id=LocalPlayer, tag_num=0x13)
228: 0x0B6A [0x53] WAIT_SCHEDULER_TASK: Wait for scheduler "az02" with entities [Unnamed NPC (ID: 17494764/0x010AF2EC), Unnamed NPC (ID: 17494764/0x010AF2EC)]
229: 0x0B77 [0x4E] SET_ENTITY_HIDE_FLAG: Show Volker (ID: 17494763/0x010AF2EB)
230: 0x0B7D [0x4E] SET_ENTITY_HIDE_FLAG: Show Unnamed NPC (ID: 17494768/0x010AF2F0)
231: 0x0B83 [0x4E] SET_ENTITY_HIDE_FLAG: Show Unnamed NPC (ID: 17494769/0x010AF2F1)
232: 0x0B89 [0x80] LOAD_WAIT(entity=Volker (ID: 17494763/0x010AF2EB))
233: 0x0B8E [0x80] LOAD_WAIT(entity=Unnamed NPC (ID: 17494768/0x010AF2F0))
234: 0x0B93 [0x80] LOAD_WAIT(entity=Unnamed NPC (ID: 17494769/0x010AF2F1))
235: 0x0B98 [0x66] LOAD_EXT_SCHEDULER_MAIN: Load scheduler "sha0" with entities [Unnamed NPC (ID: 17494769/0x010AF2F1), Unnamed NPC (ID: 17494769/0x010AF2F1)], work=9*
236: 0x0BA7 [0x27] REQ_SET(priority=0x05, entity_id=Volker (ID: 17494763/0x010AF2EB), tag_num=0x02)
237: 0x0BAE [0x4A] LocalPlayer looks at Ernestine (ID: 17494765/0x010AF2ED)
238: 0x0BB7 [0x1C] WAIT(30* ticks)
239: 0x0BBA [0x27] REQ_SET(priority=0x05, entity_id=Unnamed NPC (ID: 17494768/0x010AF2F0), tag_num=0x02)
240: 0x0BC1 [0x52] END_LOAD_SCHEDULER: End scheduler "s017" with entities [EventEntity, EventEntity], work=334*
241: 0x0BD0 [0x45] LOAD_SCHEDULED_TASK: Load scheduler "s018" with entities [EventEntity, EventEntity], work=[334*, 0*]
242: 0x0BE1 [0xBA] SET_ENTITY_POSITION(entity_id=Ernestine (ID: 17494765/0x010AF2ED), pos_x=349.193*, pos_z=-128.917*, pos_y=-32.000*, direction=178.0°*)
243: 0x0BEE [0x5B] LOAD_EXT_SCHEDULER: Load scheduler "dwn0" with entities [Ernestine (ID: 17494765/0x010AF2ED), Ernestine (ID: 17494765/0x010AF2ED)], work=1358*
244: 0x0BFD [0x2A] GET_REQ_LEVEL(level=5, entity_id=Volker (ID: 17494763/0x010AF2EB))
245: 0x0C03 [0x2B] Volker (ID: 17494763/0x010AF2EB) [7928*]:
    → "An Antica!? How did that get in here...?"
246: 0x0C0A [0x23] WAIT_FOR_DIALOG_INTERACTION
247: 0x0C0B [0x52] END_LOAD_SCHEDULER: End scheduler "s018" with entities [EventEntity, EventEntity], work=334*
248: 0x0C1A [0x45] LOAD_SCHEDULED_TASK: Load scheduler "s019" with entities [EventEntity, EventEntity], work=[334*, 0*]
249: 0x0C2B [0x6B] STOP_AND_IDLE: Zeid (ID: 17494762/0x010AF2EA) stops current action and resets to idle (animation="idl0")
250: 0x0C34 [0xBA] SET_ENTITY_POSITION(entity_id=Zeid (ID: 17494762/0x010AF2EA), pos_x=343.142*, pos_z=-122.118*, pos_y=-32.000*, direction=44.6°*)
251: 0x0C41 [0x80] LOAD_WAIT(entity=Zeid (ID: 17494762/0x010AF2EA))
252: 0x0C46 [0x27] REQ_SET(priority=0x05, entity_id=Zeid (ID: 17494762/0x010AF2EA), tag_num=0x02)
253: 0x0C4D [0x1C] WAIT(60* ticks)
254: 0x0C50 [0x2B] Zeid (ID: 17494762/0x010AF2EA) [7929*]:
    → "You're one of Senator Werner's hired swords, aren't you? Let's hear what you have to say about this."
255: 0x0C57 [0x23] WAIT_FOR_DIALOG_INTERACTION
256: 0x0C58 [0x2A] GET_REQ_LEVEL(level=5, entity_id=Zeid (ID: 17494762/0x010AF2EA))
257: 0x0C5E [0x5D] SET_MUSIC_VOLUME(volume=0*, fade_time=120*)
258: 0x0C63 [0x52] END_LOAD_SCHEDULER: End scheduler "s019" with entities [EventEntity, EventEntity], work=334*
259: 0x0C72 [0x45] LOAD_SCHEDULED_TASK: Load scheduler "s020" with entities [EventEntity, EventEntity], work=[334*, 0*]
260: 0x0C83 [0xBA] SET_ENTITY_POSITION(entity_id=LocalPlayer, pos_x=344.327*, pos_z=-129.633*, pos_y=-32.000*, direction=356.6°*)
261: 0x0C90 [0xBA] SET_ENTITY_POSITION(entity_id=Volker (ID: 17494763/0x010AF2EB), pos_x=340.499*, pos_z=-127.324*, pos_y=-32.000*, direction=157.5°*)
262: 0x0C9D [0xBA] SET_ENTITY_POSITION(entity_id=Unnamed NPC (ID: 17494768/0x010AF2F0), pos_x=340.034*, pos_z=-126.172*, pos_y=-32.000*, direction=272.7°*)
263: 0x0CAA [0x80] LOAD_WAIT(entity=LocalPlayer)
264: 0x0CAF [0x80] LOAD_WAIT(entity=Volker (ID: 17494763/0x010AF2EB))
265: 0x0CB4 [0x80] LOAD_WAIT(entity=Unnamed NPC (ID: 17494768/0x010AF2F0))
266: 0x0CB9 [0x94] Volker (ID: 17494763/0x010AF2EB)->Render.Flags3 ^= 0x01
267: 0x0CBF [0x94] Unnamed NPC (ID: 17494768/0x010AF2F0)->Render.Flags3 ^= 0x01
268: 0x0CC5 [0x94] Unnamed NPC (ID: 17494769/0x010AF2F1)->Render.Flags3 ^= 0x01
269: 0x0CCB [0x4A] LocalPlayer looks at Ernestine (ID: 17494765/0x010AF2ED)
270: 0x0CD4 [0x4A] Volker (ID: 17494763/0x010AF2EB) looks at Ernestine (ID: 17494765/0x010AF2ED)
271: 0x0CDD [0x4A] Unnamed NPC (ID: 17494768/0x010AF2F0) looks at Ernestine (ID: 17494765/0x010AF2ED)
272: 0x0CE6 [0x4A] Unnamed NPC (ID: 17494769/0x010AF2F1) looks at Ernestine (ID: 17494765/0x010AF2ED)
273: 0x0CEF [0x1C] WAIT(30* ticks)
274: 0x0CF2 [0x2B] Ernestine (ID: 17494765/0x010AF2ED) [7930*]:
    → "Hmph. So, the Mythril Musketeers finally tracked us down... I knew Engelhart was getting sloppy."
275: 0x0CF9 [0x23] WAIT_FOR_DIALOG_INTERACTION
276: 0x0CFA [0x5C] MUSIC_CONTROL: Set Idle (Day) music to song 127*
277: 0x0CFE [0x5C] MUSIC_CONTROL: Set Idle (Night) music to song 127*
278: 0x0D02 [0x5C] MUSIC_CONTROL: Set Combat (Solo) music to song 127*
279: 0x0D06 [0x5C] MUSIC_CONTROL: Set Combat (Party) music to song 127*
280: 0x0D0A [0x9A] WAIT_MUSIC_SERVER()
281: 0x0D0B [0x52] END_LOAD_SCHEDULER: End scheduler "s020" with entities [EventEntity, EventEntity], work=334*
282: 0x0D1A [0x45] LOAD_SCHEDULED_TASK: Load scheduler "s021" with entities [EventEntity, EventEntity], work=[334*, 0*]
283: 0x0D2B [0x2B] Ernestine (ID: 17494765/0x010AF2ED) [7931*]:
    → "That Antica was being held here by order of the senator."
284: 0x0D32 [0x23] WAIT_FOR_DIALOG_INTERACTION
285: 0x0D33 [0x5B] LOAD_EXT_SCHEDULER: Load scheduler "tsb0" with entities [Zeid (ID: 17494762/0x010AF2EA), Zeid (ID: 17494762/0x010AF2EA)], work=244*
286: 0x0D42 [0x2B] Zeid (ID: 17494762/0x010AF2EA) [7932*]:
    → "By order of the senator!?"
287: 0x0D49 [0x23] WAIT_FOR_DIALOG_INTERACTION
288: 0x0D4A [0x52] END_LOAD_SCHEDULER: End scheduler "s021" with entities [EventEntity, EventEntity], work=334*
289: 0x0D59 [0x45] LOAD_SCHEDULED_TASK: Load scheduler "s022" with entities [EventEntity, EventEntity], work=[334*, 0*]
290: 0x0D6A [0x5B] LOAD_EXT_SCHEDULER: Load scheduler "dwn1" with entities [Ernestine (ID: 17494765/0x010AF2ED), Ernestine (ID: 17494765/0x010AF2ED)], work=1358*
291: 0x0D79 [0x6B] STOP_AND_IDLE: Zeid (ID: 17494762/0x010AF2EA) stops current action and resets to idle (animation="idl0")
292: 0x0D82 [0xBA] SET_ENTITY_POSITION(entity_id=Zeid (ID: 17494762/0x010AF2EA), pos_x=346.598*, pos_z=-123.532*, pos_y=-32.000*, direction=42.2°*)
293: 0x0D8F [0x80] LOAD_WAIT(entity=Zeid (ID: 17494762/0x010AF2EA))
294: 0x0D94 [0x2B] Ernestine (ID: 17494765/0x010AF2ED) [7933*]:
    → "He believed that the awesome military might of the Antican Empire could be harnessed for the war effort..."
295: 0x0D9B [0x23] WAIT_FOR_DIALOG_INTERACTION
296: 0x0D9C [0x53] WAIT_SCHEDULER_TASK: Wait for scheduler "dwn1" with entities [Ernestine (ID: 17494765/0x010AF2ED), Ernestine (ID: 17494765/0x010AF2ED)]
297: 0x0DA9 [0x52] END_LOAD_SCHEDULER: End scheduler "s022" with entities [EventEntity, EventEntity], work=334*
298: 0x0DB8 [0x45] LOAD_SCHEDULED_TASK: Load scheduler "s023" with entities [EventEntity, EventEntity], work=[334*, 0*]
299: 0x0DC9 [0x7C] Zeid (ID: 17494762/0x010AF2EA)->Render.Flags2 |= 0x00
300: 0x0DCF [0x2B] Zeid (ID: 17494762/0x010AF2EA) [7934*]:
    → "..."
301: 0x0DD6 [0x23] WAIT_FOR_DIALOG_INTERACTION
302: 0x0DD7 [0x7C] Zeid (ID: 17494762/0x010AF2EA)->Render.Flags2 |= 0x01
303: 0x0DDD [0x52] END_LOAD_SCHEDULER: End scheduler "s023" with entities [EventEntity, EventEntity], work=334*
304: 0x0DEC [0x45] LOAD_SCHEDULED_TASK: Load scheduler "s024" with entities [EventEntity, EventEntity], work=[334*, 0*]
305: 0x0DFD [0x5B] LOAD_EXT_SCHEDULER: Load scheduler "tsb0" with entities [Zeid (ID: 17494762/0x010AF2EA), Zeid (ID: 17494762/0x010AF2EA)], work=244*
306: 0x0E0C [0x2B] Zeid (ID: 17494762/0x010AF2EA) [7935*]:
    → "An alliance with those butchers? Even the ambitious senator would not suggest such madness."
307: 0x0E13 [0x23] WAIT_FOR_DIALOG_INTERACTION
308: 0x0E14 [0x5B] LOAD_EXT_SCHEDULER: Load scheduler "tkb1" with entities [Zeid (ID: 17494762/0x010AF2EA), Zeid (ID: 17494762/0x010AF2EA)], work=244*
309: 0x0E23 [0x5B] LOAD_EXT_SCHEDULER: Load scheduler "tsa0" with entities [Volker (ID: 17494763/0x010AF2EB), Volker (ID: 17494763/0x010AF2EB)], work=200*
310: 0x0E32 [0x52] END_LOAD_SCHEDULER: End scheduler "s024" with entities [EventEntity, EventEntity], work=334*
311: 0x0E41 [0x45] LOAD_SCHEDULED_TASK: Load scheduler "s025" with entities [EventEntity, EventEntity], work=[334*, 0*]
312: 0x0E52 [0x2B] Volker (ID: 17494763/0x010AF2EB) [7936*]:
    → "It is true that the slumbering legions of the Antica are so incredibly vast that their numbers would easily tip the balance of this conflict."
313: 0x0E59 [0x23] WAIT_FOR_DIALOG_INTERACTION
314: 0x0E5A [0x2B] Volker (ID: 17494763/0x010AF2EB) [7937*]:
    → "But to have dealings with the ancestral enemies of the Galka..."
315: 0x0E61 [0x23] WAIT_FOR_DIALOG_INTERACTION
316: 0x0E62 [0x5B] LOAD_EXT_SCHEDULER: Load scheduler "tsa1" with entities [Volker (ID: 17494763/0x010AF2EB), Volker (ID: 17494763/0x010AF2EB)], work=200*
317: 0x0E71 [0x52] END_LOAD_SCHEDULER: End scheduler "s025" with entities [EventEntity, EventEntity], work=334*
318: 0x0E80 [0x45] LOAD_SCHEDULED_TASK: Load scheduler "s026" with entities [EventEntity, EventEntity], work=[334*, 0*]
319: 0x0E91 [0x2B] Ernestine (ID: 17494765/0x010AF2ED) [7938*]:
    → "There was no idealistic plan to negotiate the Antica's integration into the Allied Forces of Altana."
320: 0x0E98 [0x23] WAIT_FOR_DIALOG_INTERACTION
321: 0x0E99 [0x52] END_LOAD_SCHEDULER: End scheduler "s026" with entities [EventEntity, EventEntity], work=334*
322: 0x0EA8 [0x45] LOAD_SCHEDULED_TASK: Load scheduler "s027" with entities [EventEntity, EventEntity], work=[334*, 0*]
323: 0x0EB9 [0xBA] SET_ENTITY_POSITION(entity_id=Zeid (ID: 17494762/0x010AF2EA), pos_x=344.138*, pos_z=-123.408*, pos_y=-31.999*, direction=37.2°*)
324: 0x0EC6 [0x80] LOAD_WAIT(entity=Zeid (ID: 17494762/0x010AF2EA))
325: 0x0ECB [0x5B] LOAD_EXT_SCHEDULER: Load scheduler "dwt0" with entities [Ernestine (ID: 17494765/0x010AF2ED), Ernestine (ID: 17494765/0x010AF2ED)], work=1358*
326: 0x0EDA [0x45] LOAD_SCHEDULED_TASK: Load scheduler "dwt0" with entities [EventEntity, EventEntity], work=[334*, 0*]
327: 0x0EEB [0x03] Work_Zone[2] = 919*
328: 0x0EF0 [0x2B] Ernestine (ID: 17494765/0x010AF2ED) [7939*]:
    → "Senator Werner meant to control the antmen using an improved version of the $3. This prisoner was nothing more than a test subject!"
329: 0x0EF7 [0x23] WAIT_FOR_DIALOG_INTERACTION
330: 0x0EF8 [0x53] WAIT_SCHEDULER_TASK: Wait for scheduler "dwt0" with entities [Ernestine (ID: 17494765/0x010AF2ED), Ernestine (ID: 17494765/0x010AF2ED)]
331: 0x0F05 [0x52] END_LOAD_SCHEDULER: End scheduler "s027" with entities [EventEntity, EventEntity], work=334*
332: 0x0F14 [0x45] LOAD_SCHEDULED_TASK: Load scheduler "s028" with entities [EventEntity, EventEntity], work=[334*, 0*]
333: 0x0F25 [0x5B] LOAD_EXT_SCHEDULER: Load scheduler "dwt1" with entities [Ernestine (ID: 17494765/0x010AF2ED), Ernestine (ID: 17494765/0x010AF2ED)], work=1358*
334: 0x0F34 [0x2B] Zeid (ID: 17494762/0x010AF2EA) [7940*]:
    → "Good Goddess..."
335: 0x0F3B [0x23] WAIT_FOR_DIALOG_INTERACTION
336: 0x0F3C [0x52] END_LOAD_SCHEDULER: End scheduler "s028" with entities [EventEntity, EventEntity], work=334*
337: 0x0F4B [0x45] LOAD_SCHEDULED_TASK: Load scheduler "s029" with entities [EventEntity, EventEntity], work=[334*, 0*]
338: 0x0F5C [0x5B] LOAD_EXT_SCHEDULER: Load scheduler "aza0" with entities [Zeid (ID: 17494762/0x010AF2EA), Zeid (ID: 17494762/0x010AF2EA)], work=1428*
339: 0x0F6B [0x2B] Zeid (ID: 17494762/0x010AF2EA) [7941*]:
    → "No such abomination will take place while I have the strength to wield a blade!"
340: 0x0F72 [0x23] WAIT_FOR_DIALOG_INTERACTION
341: 0x0F73 [0x53] WAIT_SCHEDULER_TASK: Wait for scheduler "aza0" with entities [Zeid (ID: 17494762/0x010AF2EA), Zeid (ID: 17494762/0x010AF2EA)]
342: 0x0F80 [0x52] END_LOAD_SCHEDULER: End scheduler "s029" with entities [EventEntity, EventEntity], work=334*
343: 0x0F8F [0x45] LOAD_SCHEDULED_TASK: Load scheduler "s030" with entities [EventEntity, EventEntity], work=[334*, 0*]
344: 0x0FA0 [0x5B] LOAD_EXT_SCHEDULER: Load scheduler "aza1" with entities [Zeid (ID: 17494762/0x010AF2EA), Zeid (ID: 17494762/0x010AF2EA)], work=1428*
345: 0x0FAF [0x1C] WAIT(190* ticks)
346: 0x0FB2 [0x45] LOAD_SCHEDULED_TASK: Load scheduler "ken0" with entities [EventEntity, EventEntity], work=[334*, 0*]
347: 0x0FC3 [0x45] LOAD_SCHEDULED_TASK: Load scheduler "who0" with entities [EventEntity, EventEntity], work=[201*, 0*]
348: 0x0FD4 [0x55] WAIT_LOAD_SCHEDULER: Wait for scheduler "who0" with entities [EventEntity, EventEntity], work=201*
349: 0x0FE3 [0x52] END_LOAD_SCHEDULER: End scheduler "s030" with entities [EventEntity, EventEntity], work=334*
350: 0x0FF2 [0x4E] SET_ENTITY_HIDE_FLAG: Show Unnamed NPC (ID: 17494770/0x010AF2F2)
351: 0x0FF8 [0x4E] SET_ENTITY_HIDE_FLAG: Show Unnamed NPC (ID: 17494771/0x010AF2F3)
352: 0x0FFE [0x4E] SET_ENTITY_HIDE_FLAG: Show Unnamed NPC (ID: 17494772/0x010AF2F4)
353: 0x1004 [0xBA] SET_ENTITY_POSITION(entity_id=Unnamed NPC (ID: 17494770/0x010AF2F2), pos_x=337.801*, pos_z=-157.971*, pos_y=-32.000*, direction=272.5°*)
354: 0x1011 [0xBA] SET_ENTITY_POSITION(entity_id=Unnamed NPC (ID: 17494771/0x010AF2F3), pos_x=337.801*, pos_z=-157.971*, pos_y=-32.000*, direction=272.5°*)
355: 0x101E [0xBA] SET_ENTITY_POSITION(entity_id=Unnamed NPC (ID: 17494772/0x010AF2F4), pos_x=339.431*, pos_z=-157.598*, pos_y=-32.000*, direction=272.5°*)
356: 0x102B [0xBA] SET_ENTITY_POSITION(entity_id=Unnamed NPC (ID: 17494764/0x010AF2EC), pos_x=341.929*, pos_z=-121.956*, pos_y=-32.000*, direction=87.9°*)
357: 0x1038 [0xBA] SET_ENTITY_POSITION(entity_id=Zeid (ID: 17494762/0x010AF2EA), pos_x=341.929*, pos_z=-121.956*, pos_y=-32.000*, direction=87.9°*)
358: 0x1045 [0xBA] SET_ENTITY_POSITION(entity_id=Volker (ID: 17494763/0x010AF2EB), pos_x=341.929*, pos_z=-121.956*, pos_y=-32.000*, direction=87.9°*)
359: 0x1052 [0x80] LOAD_WAIT(entity=Unnamed NPC (ID: 17494770/0x010AF2F2))
360: 0x1057 [0x80] LOAD_WAIT(entity=Unnamed NPC (ID: 17494771/0x010AF2F3))
361: 0x105C [0x80] LOAD_WAIT(entity=Unnamed NPC (ID: 17494772/0x010AF2F4))
362: 0x1061 [0x80] LOAD_WAIT(entity=Unnamed NPC (ID: 17494764/0x010AF2EC))
363: 0x1066 [0x80] LOAD_WAIT(entity=Volker (ID: 17494763/0x010AF2EB))
364: 0x106B [0x80] LOAD_WAIT(entity=Zeid (ID: 17494762/0x010AF2EA))
365: 0x1070 [0x5B] LOAD_EXT_SCHEDULER: Load scheduler "zf00" with entities [Unnamed NPC (ID: 17494772/0x010AF2F4), Unnamed NPC (ID: 17494772/0x010AF2F4)], work=1422*
366: 0x107F [0x5B] LOAD_EXT_SCHEDULER: Load scheduler "zf00" with entities [Unnamed NPC (ID: 17494770/0x010AF2F2), Unnamed NPC (ID: 17494770/0x010AF2F2)], work=1425*
367: 0x108E [0x5B] LOAD_EXT_SCHEDULER: Load scheduler "zf00" with entities [Unnamed NPC (ID: 17494771/0x010AF2F3), Unnamed NPC (ID: 17494771/0x010AF2F3)], work=1397*
368: 0x109D [0x5B] LOAD_EXT_SCHEDULER: Load scheduler "zf00" with entities [Unnamed NPC (ID: 17494764/0x010AF2EC), Unnamed NPC (ID: 17494764/0x010AF2EC)], work=1422*
369: 0x10AC [0x5B] LOAD_EXT_SCHEDULER: Load scheduler "zf00" with entities [Zeid (ID: 17494762/0x010AF2EA), Zeid (ID: 17494762/0x010AF2EA)], work=1425*
370: 0x10BB [0x5B] LOAD_EXT_SCHEDULER: Load scheduler "zf00" with entities [Volker (ID: 17494763/0x010AF2EB), Volker (ID: 17494763/0x010AF2EB)], work=1397*
371: 0x10CA [0x45] LOAD_SCHEDULED_TASK: Load scheduler "s031" with entities [EventEntity, EventEntity], work=[334*, 0*]
372: 0x10DB [0x1C] WAIT(15* ticks)
373: 0x10DE [0x45] LOAD_SCHEDULED_TASK: Load scheduler "whi1" with entities [EventEntity, EventEntity], work=[201*, 0*]
374: 0x10EF [0x2B] Volker (ID: 17494763/0x010AF2EB) [7942*]:
    → "War Cloud, no!"
375: 0x10F6 [0x23] WAIT_FOR_DIALOG_INTERACTION
376: 0x10F7 [0x52] END_LOAD_SCHEDULER: End scheduler "s031" with entities [EventEntity, EventEntity], work=334*
377: 0x1106 [0x45] LOAD_SCHEDULED_TASK: Load scheduler "s032" with entities [EventEntity, EventEntity], work=[334*, 0*]
378: 0x1117 [0x5B] LOAD_EXT_SCHEDULER: Load scheduler "zf01" with entities [Zeid (ID: 17494762/0x010AF2EA), Zeid (ID: 17494762/0x010AF2EA)], work=1425*
379: 0x1126 [0x2B] Zeid (ID: 17494762/0x010AF2EA) [7943*]:
    → "Never speak that name again, Volker..."
380: 0x112D [0x23] WAIT_FOR_DIALOG_INTERACTION
381: 0x112E [0x2B] Volker (ID: 17494763/0x010AF2EB) [7944*]:
    → "We must treat this beastman as we would any prisoner of war. Besides, it barely has the strength to--"
382: 0x1135 [0x23] WAIT_FOR_DIALOG_INTERACTION
383: 0x1136 [0x5B] LOAD_EXT_SCHEDULER: Load scheduler "zf02" with entities [Unnamed NPC (ID: 17494772/0x010AF2F4), Unnamed NPC (ID: 17494772/0x010AF2F4)], work=1422*
384: 0x1145 [0x5B] LOAD_EXT_SCHEDULER: Load scheduler "zf02" with entities [Unnamed NPC (ID: 17494770/0x010AF2F2), Unnamed NPC (ID: 17494770/0x010AF2F2)], work=1425*
385: 0x1154 [0x5B] LOAD_EXT_SCHEDULER: Load scheduler "zf02" with entities [Unnamed NPC (ID: 17494771/0x010AF2F3), Unnamed NPC (ID: 17494771/0x010AF2F3)], work=1397*
386: 0x1163 [0x5B] LOAD_EXT_SCHEDULER: Load scheduler "zf02" with entities [Unnamed NPC (ID: 17494764/0x010AF2EC), Unnamed NPC (ID: 17494764/0x010AF2EC)], work=1422*
387: 0x1172 [0x5B] LOAD_EXT_SCHEDULER: Load scheduler "zf02" with entities [Zeid (ID: 17494762/0x010AF2EA), Zeid (ID: 17494762/0x010AF2EA)], work=1425*
388: 0x1181 [0x5B] LOAD_EXT_SCHEDULER: Load scheduler "zf02" with entities [Volker (ID: 17494763/0x010AF2EB), Volker (ID: 17494763/0x010AF2EB)], work=1397*
389: 0x1190 [0x5D] SET_MUSIC_VOLUME(volume=0*, fade_time=150*)
390: 0x1195 [0x52] END_LOAD_SCHEDULER: End scheduler "s032" with entities [EventEntity, EventEntity], work=334*
391: 0x11A4 [0x45] LOAD_SCHEDULED_TASK: Load scheduler "s033" with entities [EventEntity, EventEntity], work=[334*, 0*]
392: 0x11B5 [0x45] LOAD_SCHEDULED_TASK: Load scheduler "zf02" with entities [EventEntity, EventEntity], work=[334*, 0*]
393: 0x11C6 [0x1C] WAIT(210* ticks)
394: 0x11C9 [0x52] END_LOAD_SCHEDULER: End scheduler "s033" with entities [EventEntity, EventEntity], work=334*
395: 0x11D8 [0x45] LOAD_SCHEDULED_TASK: Load scheduler "s054" with entities [EventEntity, EventEntity], work=[334*, 0*]
396: 0x11E9 [0x2B] Volker (ID: 17494763/0x010AF2EB) [7945*]:
    → "!!!"
397: 0x11F0 [0x23] WAIT_FOR_DIALOG_INTERACTION
398: 0x11F1 [0x1C] WAIT(60* ticks)
399: 0x11F4 [0x52] END_LOAD_SCHEDULER: End scheduler "s054" with entities [EventEntity, EventEntity], work=334*
400: 0x1203 [0x45] LOAD_SCHEDULED_TASK: Load scheduler "s035" with entities [EventEntity, EventEntity], work=[334*, 0*]
401: 0x1214 [0x1C] WAIT(150* ticks)
402: 0x1217 [0x52] END_LOAD_SCHEDULER: End scheduler "s035" with entities [EventEntity, EventEntity], work=334*
403: 0x1226 [0x45] LOAD_SCHEDULED_TASK: Load scheduler "s036" with entities [EventEntity, EventEntity], work=[334*, 0*]
404: 0x1237 [0x53] WAIT_SCHEDULER_TASK: Wait for scheduler "zf02" with entities [Zeid (ID: 17494762/0x010AF2EA), Zeid (ID: 17494762/0x010AF2EA)]
405: 0x1244 [0x5B] LOAD_EXT_SCHEDULER: Load scheduler "zf03" with entities [Zeid (ID: 17494762/0x010AF2EA), Zeid (ID: 17494762/0x010AF2EA)], work=1426*
406: 0x1253 [0x5B] LOAD_EXT_SCHEDULER: Load scheduler "zf03" with entities [Unnamed NPC (ID: 17494764/0x010AF2EC), Unnamed NPC (ID: 17494764/0x010AF2EC)], work=1422*
407: 0x1262 [0x52] END_LOAD_SCHEDULER: End scheduler "s036" with entities [EventEntity, EventEntity], work=334*
408: 0x1271 [0x45] LOAD_SCHEDULED_TASK: Load scheduler "s037" with entities [EventEntity, EventEntity], work=[334*, 0*]
409: 0x1282 [0x45] LOAD_SCHEDULED_TASK: Load scheduler "zf03" with entities [EventEntity, EventEntity], work=[334*, 0*]
410: 0x1293 [0x53] WAIT_SCHEDULER_TASK: Wait for scheduler "zf03" with entities [Unnamed NPC (ID: 17494764/0x010AF2EC), Unnamed NPC (ID: 17494764/0x010AF2EC)]
411: 0x12A0 [0x52] END_LOAD_SCHEDULER: End scheduler "s037" with entities [EventEntity, EventEntity], work=334*
412: 0x12AF [0x45] LOAD_SCHEDULED_TASK: Load scheduler "s038" with entities [EventEntity, EventEntity], work=[334*, 0*]
413: 0x12C0 [0x4A] LocalPlayer looks at Ernestine (ID: 17494765/0x010AF2ED)
414: 0x12C9 [0x5B] LOAD_EXT_SCHEDULER: Load scheduler "zf04" with entities [Zeid (ID: 17494762/0x010AF2EA), Zeid (ID: 17494762/0x010AF2EA)], work=1426*
415: 0x12D8 [0x2B] Zeid (ID: 17494762/0x010AF2EA) [7946*]:
    → "Do not underestimate the Antica. They are bred to be killing machines..."
416: 0x12DF [0x23] WAIT_FOR_DIALOG_INTERACTION
417: 0x12E0 [0x2B] Zeid (ID: 17494762/0x010AF2EA) [7947*]:
    → "Your precious ethics and morals do not exist for Antican soldiers. One tiny slip, and they would turn on us without the slightest hesitation."
418: 0x12E7 [0x23] WAIT_FOR_DIALOG_INTERACTION
419: 0x12E8 [0x53] WAIT_SCHEDULER_TASK: Wait for scheduler "zf04" with entities [Zeid (ID: 17494762/0x010AF2EA), Zeid (ID: 17494762/0x010AF2EA)]
420: 0x12F5 [0x5C] MUSIC_CONTROL: Set Idle (Day) music to song 123*
421: 0x12F9 [0x5C] MUSIC_CONTROL: Set Idle (Night) music to song 123*
422: 0x12FD [0x5C] MUSIC_CONTROL: Set Combat (Solo) music to song 123*
423: 0x1301 [0x5C] MUSIC_CONTROL: Set Combat (Party) music to song 123*
424: 0x1305 [0x9A] WAIT_MUSIC_SERVER()
425: 0x1306 [0x52] END_LOAD_SCHEDULER: End scheduler "s038" with entities [EventEntity, EventEntity], work=334*
426: 0x1315 [0x45] LOAD_SCHEDULED_TASK: Load scheduler "s039" with entities [EventEntity, EventEntity], work=[334*, 0*]
427: 0x1326 [0x6B] STOP_AND_IDLE: Zeid (ID: 17494762/0x010AF2EA) stops current action and resets to idle (animation="idl0")
428: 0x132F [0x6B] STOP_AND_IDLE: Volker (ID: 17494763/0x010AF2EB) stops current action and resets to idle (animation="idl0")
429: 0x1338 [0xBA] SET_ENTITY_POSITION(entity_id=Zeid (ID: 17494762/0x010AF2EA), pos_x=342.766*, pos_z=-122.951*, pos_y=-32.000*, direction=351.6°*)
430: 0x1345 [0xBA] SET_ENTITY_POSITION(entity_id=Volker (ID: 17494763/0x010AF2EB), pos_x=340.746*, pos_z=-123.528*, pos_y=-32.000*, direction=42.2°*)
431: 0x1352 [0x80] LOAD_WAIT(entity=Zeid (ID: 17494762/0x010AF2EA))
432: 0x1357 [0x80] LOAD_WAIT(entity=Volker (ID: 17494763/0x010AF2EB))
433: 0x135C [0x94] Volker (ID: 17494763/0x010AF2EB)->Render.Flags3 ^= 0x01
434: 0x1362 [0x4A] Zeid (ID: 17494762/0x010AF2EA) looks at Ernestine (ID: 17494765/0x010AF2ED)
435: 0x136B [0x1C] WAIT(30* ticks)
436: 0x136E [0x5B] LOAD_EXT_SCHEDULER: Load scheduler "dwt0" with entities [Ernestine (ID: 17494765/0x010AF2ED), Ernestine (ID: 17494765/0x010AF2ED)], work=1358*
437: 0x137D [0x45] LOAD_SCHEDULED_TASK: Load scheduler "dwt0" with entities [EventEntity, EventEntity], work=[334*, 0*]
438: 0x138E [0x2B] Ernestine (ID: 17494765/0x010AF2ED) [7948*]:
    → "You understand their nature well, Galka. There is little point in taking defeated Antica as prisoners--even should they manage to return to their homeland, a fate crueler than death awaits them."
439: 0x1395 [0x23] WAIT_FOR_DIALOG_INTERACTION
440: 0x1396 [0x52] END_LOAD_SCHEDULER: End scheduler "s039" with entities [EventEntity, EventEntity], work=334*
441: 0x13A5 [0x45] LOAD_SCHEDULED_TASK: Load scheduler "s040" with entities [EventEntity, EventEntity], work=[334*, 0*]
442: 0x13B6 [0x2B] Ernestine (ID: 17494765/0x010AF2ED) [7949*]:
    → "And the senator wished to control such unfeeling monsters."
443: 0x13BD [0x23] WAIT_FOR_DIALOG_INTERACTION
444: 0x13BE [0x5B] LOAD_EXT_SCHEDULER: Load scheduler "dwt1" with entities [Ernestine (ID: 17494765/0x010AF2ED), Ernestine (ID: 17494765/0x010AF2ED)], work=1358*
445: 0x13CD [0x45] LOAD_SCHEDULED_TASK: Load scheduler "dwt1" with entities [EventEntity, EventEntity], work=[334*, 0*]
446: 0x13DE [0x2B] Ernestine (ID: 17494765/0x010AF2ED) [7950*]:
    → "It's hardly surprising that President Prien and Chairman Pale Eagle chose to oppose this reckless plan."
447: 0x13E5 [0x23] WAIT_FOR_DIALOG_INTERACTION
448: 0x13E6 [0x52] END_LOAD_SCHEDULER: End scheduler "s040" with entities [EventEntity, EventEntity], work=334*
449: 0x13F5 [0x45] LOAD_SCHEDULED_TASK: Load scheduler "s041" with entities [EventEntity, EventEntity], work=[334*, 0*]
450: 0x1406 [0x2B] Volker (ID: 17494763/0x010AF2EB) [7951*]:
    → "The president knew of this...?"
451: 0x140D [0x23] WAIT_FOR_DIALOG_INTERACTION
452: 0x140E [0x52] END_LOAD_SCHEDULER: End scheduler "s041" with entities [EventEntity, EventEntity], work=334*
453: 0x141D [0x45] LOAD_SCHEDULED_TASK: Load scheduler "s042" with entities [EventEntity, EventEntity], work=[334*, 0*]
454: 0x142E [0x2B] Ernestine (ID: 17494765/0x010AF2ED) [7952*]:
    → "It seems quite a few things escaped your notice, Musketeer. Perhaps you should discuss it with him upon your return."
455: 0x1435 [0x23] WAIT_FOR_DIALOG_INTERACTION
456: 0x1436 [0x5D] SET_MUSIC_VOLUME(volume=0*, fade_time=180*)
457: 0x143B [0x45] LOAD_SCHEDULED_TASK: Load scheduler "fdo1" with entities [EventEntity, EventEntity], work=[200*, 0*]
458: 0x144C [0x55] WAIT_LOAD_SCHEDULER: Wait for scheduler "fdo1" with entities [EventEntity, EventEntity], work=200*
459: 0x145B [0x52] END_LOAD_SCHEDULER: End scheduler "s042" with entities [EventEntity, EventEntity], work=334*
460: 0x146A [0x4E] SET_ENTITY_HIDE_FLAG: Hide Ernestine (ID: 17494765/0x010AF2ED)
461: 0x1470 [0x4E] SET_ENTITY_HIDE_FLAG: Hide Unnamed NPC (ID: 17494766/0x010AF2EE)
462: 0x1476 [0x4E] SET_ENTITY_HIDE_FLAG: Hide Unnamed NPC (ID: 17494767/0x010AF2EF)
463: 0x147C [0x4E] SET_ENTITY_HIDE_FLAG: Hide Unnamed NPC (ID: 17494768/0x010AF2F0)
464: 0x1482 [0x4E] SET_ENTITY_HIDE_FLAG: Hide Unnamed NPC (ID: 17494769/0x010AF2F1)
