# Event 65535

## Metadata

| Field           | Value    |
|-----------------|----------|
| Event Index     | 6/10     |
| Offset          | 0x0030   |
| Data Size       | 83 bytes |
| Calculated Size | 83 bytes |
| Instructions    | 8        |

```
      00 01 02 03 04 05 06 07  08 09 0A 0B 0C 0D 0E 0F
      -- -- -- -- -- -- -- --  -- -- -- -- -- -- -- --
0030: 5B 0B 80 C3 C1 0C 01 C5  C1 0C 01 63 61 77 68 53  [..........cawhS
0040: C3 C1 0C 01 C5 C1 0C 01  63 61 77 68 6C CB C1 0C  ........cawhl...
0050: 01 0C 80 0D 80 4E 00 CB  C1 0C 01 73 0E 80 CB C1  .....N.....s....
0060: 0C 01 C5 C1 0C 01 5B 0B  80 C3 C1 0C 01 C5 C1 0C  ......[.........
0070: 01 73 68 77 68 53 C3 C1  0C 01 C5 C1 0C 01 73 68  .shwhS........sh
0080: 77 68 00                                          wh.             
```

## Opcodes

```
  0: 0x0030 [0x5B] LOAD_EXT_SCHEDULER(work_offset=122*, entity1=Pieuje (ID: 17613251/0x010CC1C3), entity2=Trion (ID: 17613253/0x010CC1C5), action="cawh")
  1: 0x003F [0x53] WAIT_SCHEDULER_TASK(entity1=Pieuje (ID: 17613251/0x010CC1C3), entity2=Trion (ID: 17613253/0x010CC1C5), action_id="cawh")
  2: 0x004C [0x6C] FADE_ENTITY_COLOR(entity_id=Rahal (ID: 17613259/0x010CC1CB), end_alpha=0*, fade_time=1*)
  3: 0x0055 [0x4E] SET_ENTITY_HIDE_FLAG: Show Rahal (ID: 17613259/0x010CC1CB)
  4: 0x005B [0x73] Rahal (ID: 17613259/0x010CC1CB) casts magic 52* on Trion (ID: 17613253/0x010CC1C5)
  5: 0x0066 [0x5B] LOAD_EXT_SCHEDULER(work_offset=122*, entity1=Pieuje (ID: 17613251/0x010CC1C3), entity2=Trion (ID: 17613253/0x010CC1C5), action="shwh")
  6: 0x0075 [0x53] WAIT_SCHEDULER_TASK(entity1=Pieuje (ID: 17613251/0x010CC1C3), entity2=Trion (ID: 17613253/0x010CC1C5), action_id="shwh")
  7: 0x0082 [0x00] END_REQSTACK()
```
