# Event 65535

## Metadata

| Field           | Value    |
|-----------------|----------|
| Event Index     | 73/73    |
| Offset          | 0x04E4   |
| Data Size       | 59 bytes |
| Calculated Size | 59 bytes |
| Instructions    | 9        |

```
      00 01 02 03 04 05 06 07  08 09 0A 0B 0C 0D 0E 0F
      -- -- -- -- -- -- -- --  -- -- -- -- -- -- -- --
04E0:             6C F8 FF FF  7F 0A 80 37 80 32 0C 80      l......7.2..
04F0: 1F 00 3C 80 3D 80 3E 80  1F 01 6F 1C 3F 80 45 40  ..<.=.>...o.?.E@
0500: 80 F0 FF FF 7F F0 FF FF  7F 36 30 37 39 1A 80 5B  .........6079..[
0510: 03 80 EB 80 00 01 EB 80  00 01 61 74 73 30 00     ..........ats0. 
```

## Opcodes

```
  0: 0x04E4 [0x6C] FADE_ENTITY_COLOR(entity_id=EventEntity, end_alpha=128*, fade_time=1*)
  1: 0x04ED [0x32] ExtData[1]->MainSpeed = 40* * 0.1
  2: 0x04F0 [0x1F] MOVE_ENTITY: EventEntity moves to X=-557.020*, Z=-430.573*, Y=2.964*
  3: 0x04F8 [0x1F] MOVE_ENTITY: Update entity position (mode=1)
  4: 0x04FA [0x6F] WAIT_FRAME_DELAY: Yield until WaitTime reaches zero
  5: 0x04FB [0x1C] WAIT(15* ticks)
  6: 0x04FE [0x45] LOAD_SCHEDULED_TASK(work_offset1=176*, entity1=LocalPlayer, entity2=LocalPlayer, scheduler_id="6079", work_offset2=0*)
  7: 0x050F [0x5B] LOAD_EXT_SCHEDULER(work_offset=664*, entity1=Shikaree Y (ID: 16810219/0x010080EB), entity2=Shikaree Y (ID: 16810219/0x010080EB), action="ats0")
  8: 0x051E [0x00] END_REQSTACK()
```
