# Event 65535

## Metadata

| Field           | Value    |
|-----------------|----------|
| Event Index     | 49/73    |
| Offset          | 0x0308   |
| Data Size       | 50 bytes |
| Calculated Size | 50 bytes |
| Instructions    | 13       |

```
      00 01 02 03 04 05 06 07  08 09 0A 0B 0C 0D 0E 0F
      -- -- -- -- -- -- -- --  -- -- -- -- -- -- -- --
0300:                          3A EA 80 00 01 00 00 07          :.......
0310: 00 00 0A 80 39 00 00 79  00 F8 FF FF 7F EA 80 00  ....9..y........
0320: 01 6F 70 03 01 00 0B 80  1A F7 03 32 0C 80 1F 00  .op........2....
0330: 02 00 03 00 04 00 1F 01  6F 00                    ........o.      
```

## Opcodes

```
  0: 0x0308 [0x3A] CONVERT_YAW_TO_BYTE(entity=Shikaree Z (ID: 16810218/0x010080EA), result_destination=ExtData[1]->WorkLocal[0])
  1: 0x030F [0x07] ExtData[1]->WorkLocal[0] += 128*
  2: 0x0314 [0x39] SET_ENTITY_DIRECTION(direction=0.0°)
  3: 0x0317 [0x79] EventEntity looks at Shikaree Z (ID: 16810218/0x010080EA) (Basic look)
  4: 0x0321 [0x6F] WAIT_FRAME_DELAY: Yield until WaitTime reaches zero
  5: 0x0322 [0x70] WAIT_ENTITY_RENDER_FLAG: Wait while EventEntity->Render.Flags3 bit 2 is set (cancel turn if not)
  6: 0x0323 [0x03] ExtData[1]->WorkLocal[1] = 10000*
  7: 0x0328 [0x1A] CALL_SUBROUTINE(address=0x03F7)
  8: 0x032B [0x32] ExtData[1]->MainSpeed = 40* * 0.1
  9: 0x032E [0x1F] MOVE_ENTITY: EventEntity moves to X=0.002, Z=0.003, Y=0.004
 10: 0x0336 [0x1F] MOVE_ENTITY: Update entity position (mode=1)
 11: 0x0338 [0x6F] WAIT_FRAME_DELAY: Yield until WaitTime reaches zero
 12: 0x0339 [0x00] END_REQSTACK()
```
