# Event 65535

## Metadata

| Field           | Value    |
|-----------------|----------|
| Event Index     | 23/38    |
| Offset          | 0x0136   |
| Data Size       | 59 bytes |
| Calculated Size | 59 bytes |
| Instructions    | 12       |

```
      00 01 02 03 04 05 06 07  08 09 0A 0B 0C 0D 0E 0F
      -- -- -- -- -- -- -- --  -- -- -- -- -- -- -- --
0130:                   59 04  F8 FF FF 7F 1C 80 1F 00        Y.........
0140: 1D 80 1E 80 06 80 1F 01  1F 00 1F 80 20 80 06 80  ............ ...
0150: 1F 01 1F 00 21 80 22 80  06 80 1F 01 1F 00 23 80  ....!.".......#.
0160: 24 80 06 80 1F 01 6F 4A  F8 FF FF 7F 00 E3 05 01  $.....oJ........
0170: 00                                                .               
```

## Opcodes

```
  0: 0x0136 [0x59] UPDATE_ENTITY_DATA: Set EventEntity main speed = 11* * 0.1
  1: 0x013E [0x1F] MOVE_ENTITY: EventEntity moves to X=305.946*, Z=39.219*, Y=-3.500*
  2: 0x0146 [0x1F] MOVE_ENTITY: Update entity position (mode=1)
  3: 0x0148 [0x1F] MOVE_ENTITY: EventEntity moves to X=305.425*, Z=40.893*, Y=-3.500*
  4: 0x0150 [0x1F] MOVE_ENTITY: Update entity position (mode=1)
  5: 0x0152 [0x1F] MOVE_ENTITY: EventEntity moves to X=306.760*, Z=42.864*, Y=-3.500*
  6: 0x015A [0x1F] MOVE_ENTITY: Update entity position (mode=1)
  7: 0x015C [0x1F] MOVE_ENTITY: EventEntity moves to X=306.465*, Z=43.464*, Y=-3.500*
  8: 0x0164 [0x1F] MOVE_ENTITY: Update entity position (mode=1)
  9: 0x0166 [0x6F] WAIT_FRAME_DELAY: Yield until WaitTime reaches zero
 10: 0x0167 [0x4A] EventEntity looks at 03 (ID: 17163008/0x0105E300)
 11: 0x0170 [0x00] END_REQSTACK()
```
