# Event 65535

## Metadata

| Field           | Value    |
|-----------------|----------|
| Event Index     | 33/38    |
| Offset          | 0x02F9   |
| Data Size       | 60 bytes |
| Calculated Size | 60 bytes |
| Instructions    | 13       |

```
      00 01 02 03 04 05 06 07  08 09 0A 0B 0C 0D 0E 0F
      -- -- -- -- -- -- -- --  -- -- -- -- -- -- -- --
02F0:                             59 04 F8 FF FF 7F 15           Y......
0300: 80 1F 00 4F 80 50 80 51  80 1F 01 1F 00 52 80 53  ...O.P.Q.....R.S
0310: 80 51 80 1F 01 1F 00 54  80 55 80 51 80 1F 01 1F  .Q.....T.U.Q....
0320: 00 56 80 57 80 51 80 1F  01 1F 00 58 80 59 80 5A  .V.W.Q.....X.Y.Z
0330: 80 1F 01 6F 00                                    ...o.           
```

## Opcodes

```
  0: 0x02F9 [0x59] UPDATE_ENTITY_DATA: Set EventEntity main speed = 13* * 0.1
  1: 0x0301 [0x1F] MOVE_ENTITY: EventEntity moves to X=-34.913*, Z=97.041*, Y=-5.000*
  2: 0x0309 [0x1F] MOVE_ENTITY: Update entity position (mode=1)
  3: 0x030B [0x1F] MOVE_ENTITY: EventEntity moves to X=-36.843*, Z=100.526*, Y=-5.000*
  4: 0x0313 [0x1F] MOVE_ENTITY: Update entity position (mode=1)
  5: 0x0315 [0x1F] MOVE_ENTITY: EventEntity moves to X=-38.413*, Z=104.758*, Y=-5.000*
  6: 0x031D [0x1F] MOVE_ENTITY: Update entity position (mode=1)
  7: 0x031F [0x1F] MOVE_ENTITY: EventEntity moves to X=-39.062*, Z=107.483*, Y=-5.000*
  8: 0x0327 [0x1F] MOVE_ENTITY: Update entity position (mode=1)
  9: 0x0329 [0x1F] MOVE_ENTITY: EventEntity moves to X=-40.133*, Z=167.579*, Y=-5.023*
 10: 0x0331 [0x1F] MOVE_ENTITY: Update entity position (mode=1)
 11: 0x0333 [0x6F] WAIT_FRAME_DELAY: Yield until WaitTime reaches zero
 12: 0x0334 [0x00] END_REQSTACK()
```
