# Event 221

## Metadata

| Field           | Value    |
|-----------------|----------|
| Event Index     | 13/16    |
| Offset          | 0x01B1   |
| Data Size       | 51 bytes |
| Calculated Size | 51 bytes |
| Instructions    | 11       |

```
      00 01 02 03 04 05 06 07  08 09 0A 0B 0C 0D 0E 0F
      -- -- -- -- -- -- -- --  -- -- -- -- -- -- -- --
01B0:    42 4A F0 FF FF 7F F8  FF FF 7F 1A 05 02 5B 00   BJ...........[.
01C0: 80 F8 FF FF 7F F8 FF FF  7F 70 61 73 30 1D 24 80  .........pas0.$.
01D0: 23 53 F8 FF FF 7F F8 FF  FF 7F 70 61 73 30 1D 25  #S........pas0.%
01E0: 80 23 21 00                                       .#!.            
```

## Opcodes

```
  0: 0x01B1 [0x42] SET_CLI_EVENT_CANCEL_DATA()
  1: 0x01B2 [0x4A] LocalPlayer looks at EventEntity
  2: 0x01BB [0x1A] CALL_SUBROUTINE(address=0x0205)
  3: 0x01BE [0x5B] LOAD_EXT_SCHEDULER: Load scheduler "pas0" with entities [EventEntity, EventEntity], work=70*
  4: 0x01CD [0x1D] PRINT_EVENT_MESSAGE(message_id=11125*)
    → "Here, take this flask.\u007F1\u0000\u0007"
  5: 0x01D0 [0x23] WAIT_FOR_DIALOG_INTERACTION
  6: 0x01D1 [0x53] WAIT_SCHEDULER_TASK: Wait for scheduler "pas0" with entities [EventEntity, EventEntity]
  7: 0x01DE [0x1D] PRINT_EVENT_MESSAGE(message_id=11126*)
    → "Fill it from the four big clams in the Korroloka Tunnel.\u0007We'll see who has the last laugh...\u007F1\u0000\u0007"
  8: 0x01E1 [0x23] WAIT_FOR_DIALOG_INTERACTION
  9: 0x01E2 [0x21] END_EVENT
 10: 0x01E3 [0x00] END_REQSTACK()
```
