# Event 24

## Metadata

| Field           | Value    |
|-----------------|----------|
| Event Index     | 6/16     |
| Offset          | 0x00BA   |
| Data Size       | 24 bytes |
| Calculated Size | 24 bytes |
| Instructions    | 9        |

```
      00 01 02 03 04 05 06 07  08 09 0A 0B 0C 0D 0E 0F
      -- -- -- -- -- -- -- --  -- -- -- -- -- -- -- --
00B0:                                1A 05 02 02 09 10            ......
00C0: 03 80 00 CC 00 1D 12 80  23 01 D0 00 1D 15 80 23  ........#......#
00D0: 21 00                                             !.              
```

## Opcodes

```
  0: 0x00BA [0x1A] CALL_SUBROUTINE(address=0x0205)
  1: 0x00BD [0x02] IF !(Work_Zone[9] == 1*) GOTO 0x00CC
  2: 0x00C5 [0x1D] PRINT_EVENT_MESSAGE(message_id=10183*)
    → "Now if only those hooligans would appreciate it! Knowing them, this batch will be gone by the end of the night...\u007F1\u0000\u0007"
  3: 0x00C8 [0x23] WAIT_FOR_DIALOG_INTERACTION
  4: 0x00C9 [0x01] GOTO 0x00D0
  5: 0x00CC [0x1D] PRINT_EVENT_MESSAGE(message_id=10185*)
    → "Oh, thanks again for helping me out. What's beyond this door? Why, that's the kitchen--the heart of Norg. I can't let you in there, you know.\u007F1\u0000\u0007"
  6: 0x00CF [0x23] WAIT_FOR_DIALOG_INTERACTION

SUBROUTINE_00D0:
  7: 0x00D0 [0x21] END_EVENT
  8: 0x00D1 [0x00] END_REQSTACK()
```
