# 0x7FFFFFF0 - Zone Events

## Common Data

| Field            | Value                         |
|------------------|-------------------------------|
| Zone             | Cloister of Tremors (ID: 209) |
| Block Size       | 11080 bytes                   |
| Total Events     | 8                             |
| References Count | 232                           |

## List of Events

| Event ID                 | Entrypoint   |   Size |   Instructions |
|--------------------------|--------------|--------|----------------|
| [65535](#event-65535)    | 0x0000       |      1 |              1 |
| [65534](#event-65534)    | 0x0001       |      1 |              1 |
| [32000](#event-32000)    | 0x0002       |   2116 |            412 |
| [32002](#event-32002)    | 0x0846       |    494 |             83 |
| [32001](#event-32001)    | 0x0A34       |   1060 |            185 |
| [32003](#event-32003)    | 0x0E58       |   6413 |            788 |
| [65535.1](#event-655351) | 0x2765       |     10 |              2 |
| [65535.2](#event-655352) | 0x276F       |      9 |              3 |

## DAT References (imed_data)

|   Index | Hex Value   |   Dec Value |
|---------|-------------|-------------|
|       0 | 0x0000      |           0 |
|       1 | 0x000F      |          15 |
|       2 | 0x0010      |          16 |
|       3 | 0x001F      |          31 |
|       4 | 0xFFFFFFFF  |  4294967295 |
|       5 | 0x0001      |           1 |
|       6 | 0x1DFC      |        7676 |
|       7 | 0x1DA8      |        7592 |
|       8 | 0x0005      |           5 |
|       9 | 0x0002      |           2 |
|      10 | 0x0003      |           3 |
|      11 | 0x0004      |           4 |
|      12 | 0x1C3B      |        7227 |
|      13 | 0x00FF      |         255 |
|      14 | 0x00C8      |         200 |
|      15 | 0x0013      |          19 |
|      16 | 0x0008      |           8 |
|      17 | 0x0009      |           9 |
|      18 | 0x000B      |          11 |
|      19 | 0x1C46      |        7238 |
|      20 | 0x1C47      |        7239 |
|      21 | 0x1C48      |        7240 |
|      22 | 0x1C49      |        7241 |
|      23 | 0x1C6D      |        7277 |
|      24 | 0x0006      |           6 |
|      25 | 0x0012      |          18 |
|      26 | 0x0007      |           7 |
|      27 | 0x000A      |          10 |
|      28 | 0x000C      |          12 |
|      29 | 0x000D      |          13 |
|      30 | 0x000E      |          14 |
|      31 | 0x0011      |          17 |
|      32 | 0x0014      |          20 |
|      33 | 0x0015      |          21 |
|      34 | 0x0016      |          22 |
|      35 | 0x0017      |          23 |
|      36 | 0x0018      |          24 |
|      37 | 0x0019      |          25 |
|      38 | 0x001A      |          26 |
|      39 | 0x001B      |          27 |
|      40 | 0x001C      |          28 |
|      41 | 0x001D      |          29 |
|      42 | 0x001E      |          30 |
|      43 | 0x1DA2      |        7586 |
|      44 | 0x1DA7      |        7591 |
|      45 | 0x1DA6      |        7590 |
|      46 | 0x003C      |          60 |
|      47 | 0x1DFA      |        7674 |
|      48 | 0x1DF9      |        7673 |
|      49 | 0x0064      |         100 |
|      50 | 0x1D8E      |        7566 |
|      51 | 0x00C1      |         193 |
|      52 | 0x1C3E      |        7230 |
|      53 | 0x00C9      |         201 |
|      54 | 0x00B4      |         180 |
|      55 | 0xFFF6C42B  |  4294362155 |
|      56 | 0x752B9     |      479929 |
|      57 | 0xFFFFA767  |  4294944615 |
|      58 | 0x03E0      |         992 |
|      59 | 0xFFFBFE43  |  4294704707 |
|      60 | 0x5C401     |      377857 |
|      61 | 0xFFFDE79F  |  4294829983 |
|      62 | 0x0D92      |        3474 |
|      63 | 0x47AC      |       18348 |
|      64 | 0x76E1C     |      486940 |
|      65 | 0xFFFC93B2  |  4294742962 |
|      66 | 0x00C2      |         194 |
|      67 | 0x388A9     |      231593 |
|      68 | 0x57E9E     |      360094 |
|      69 | 0xFFFD59FC  |  4294793724 |
|      70 | 0x0726      |        1830 |
|      71 | 0x872C0     |      553664 |
|      72 | 0x7FEA3     |      523939 |
|      73 | 0xFFFF6AC3  |  4294929091 |
|      74 | 0x0A65      |        2661 |
|      75 | 0xFFF7C29B  |  4294427291 |
|      76 | 0xFFF8369F  |  4294456991 |
|      77 | 0x055D      |        1373 |
|      78 | 0x0420      |        1056 |
|      79 | 0xFFF2A593  |  4294092179 |
|      80 | 0xFFFF548C  |  4294923404 |
|      81 | 0xFFFF442C  |  4294919212 |
|      82 | 0x0201      |         513 |
|      83 | 0xFFF478D5  |  4294211797 |
|      84 | 0x89AEB     |      563947 |
|      85 | 0xFFFE4A5D  |  4294855261 |
|      86 | 0x0DEF      |        3567 |
|      87 | 0x1E173     |      123251 |
|      88 | 0xB8221     |      754209 |
|      89 | 0xFFFD5FA4  |  4294795172 |
|      90 | 0x01B8      |         440 |
|      91 | 0xFFF81ECC  |  4294450892 |
|      92 | 0xFFF3BE05  |  4294163973 |
|      93 | 0x5E8E      |       24206 |
|      94 | 0x01B5      |         437 |
|      95 | 0x012C      |         300 |
|      96 | 0x0080      |         128 |
|      97 | 0xFFF690A7  |  4294348967 |
|      98 | 0xFFF62CE4  |  4294323428 |
|      99 | 0xFFFF9B33  |  4294941491 |
|     100 | 0x0EB1      |        3761 |
|     101 | 0xFFFAEE7D  |  4294635133 |
|     102 | 0xFFF941C6  |  4294525382 |
|     103 | 0xFFFE8CB1  |  4294872241 |
|     104 | 0x0EB0      |        3760 |
|     105 | 0xFFFFCF50  |  4294954832 |
|     106 | 0xFFF61B47  |  4294318919 |
|     107 | 0xFFFD07BB  |  4294772667 |
|     108 | 0x0EBA      |        3770 |
|     109 | 0x4EF35     |      323381 |
|     110 | 0xFFF93A6F  |  4294523503 |
|     111 | 0xFFFE5868  |  4294858856 |
|     112 | 0x0EA0      |        3744 |
|     113 | 0x92763     |      599907 |
|     114 | 0xFFF5AB97  |  4294290327 |
|     115 | 0xFFFFA837  |  4294944823 |
|     116 | 0x0EB3      |        3763 |
|     117 | 0x00A8      |         168 |
|     118 | 0x30D7B     |      200059 |
|     119 | 0xFFFFAA3A  |  4294945338 |
|     120 | 0xFFFFFF06  |  4294967046 |
|     121 | 0x0411      |        1041 |
|     122 | 0x00CA      |         202 |
|     123 | 0x837EC     |      538604 |
|     124 | 0x7A88C     |      501900 |
|     125 | 0xFFFFC98A  |  4294953354 |
|     126 | 0x0CBC      |        3260 |
|     127 | 0x00CB      |         203 |
|     128 | 0x870F5     |      553205 |
|     129 | 0x8FF41     |      589633 |
|     130 | 0xFFFFFFEB  |  4294967275 |
|     131 | 0x0587      |        1415 |
|     132 | 0x00D3      |         211 |
|     133 | 0x8AF88     |      569224 |
|     134 | 0x85E6E     |      548462 |
|     135 | 0x8FE5      |       36837 |
|     136 | 0x02A1      |         673 |
|     137 | 0x0024      |          36 |
|     138 | 0x1D90      |        7568 |
|     139 | 0x1D8F      |        7567 |
|     140 | 0x1DF8      |        7672 |
|     141 | 0x1D92      |        7570 |
|     142 | 0x1D91      |        7569 |
|     143 | 0xFFF7C2B6  |  4294427318 |
|     144 | 0xFFF87067  |  4294471783 |
|     145 | 0x073F      |        1855 |
|     146 | 0x0BF3      |        3059 |
|     147 | 0x00E9      |         233 |
|     148 | 0x0149      |         329 |
|     149 | 0x1DFD      |        7677 |
|     150 | 0x005A      |          90 |
|     151 | 0x002D      |          45 |
|     152 | 0x7967E     |      497278 |
|     153 | 0xFFF96516  |  4294534422 |
|     154 | 0xD8FF      |       55551 |
|     155 | 0x0980      |        2432 |
|     156 | 0x00F0      |         240 |
|     157 | 0x00FA      |         250 |
|     158 | 0x0096      |         150 |
|     159 | 0x1E1B      |        7707 |
|     160 | 0x1E1C      |        7708 |
|     161 | 0x0078      |         120 |
|     162 | 0x0032      |          50 |
|     163 | 0x0050      |          80 |
|     164 | 0x1E1D      |        7709 |
|     165 | 0x1E1E      |        7710 |
|     166 | 0x1E1F      |        7711 |
|     167 | 0x060B      |        1547 |
|     168 | 0x1E08      |        7688 |
|     169 | 0x0060      |          96 |
|     170 | 0x7A04E     |      499790 |
|     171 | 0xFFFA53B3  |  4294595507 |
|     172 | 0xA2B9      |       41657 |
|     173 | 0x0E01      |        3585 |
|     174 | 0x0079      |         121 |
|     175 | 0x1E31      |        7729 |
|     176 | 0x1E32      |        7730 |
|     177 | 0x1E33      |        7731 |
|     178 | 0x1E07      |        7687 |
|     179 | 0x1DFE      |        7678 |
|     180 | 0x1DFF      |        7679 |
|     181 | 0x1E00      |        7680 |
|     182 | 0x1E01      |        7681 |
|     183 | 0x1E02      |        7682 |
|     184 | 0x1E09      |        7689 |
|     185 | 0x1E0A      |        7690 |
|     186 | 0x1E0B      |        7691 |
|     187 | 0x1E0C      |        7692 |
|     188 | 0x0057      |          87 |
|     189 | 0x00D1      |         209 |
|     190 | 0x1E34      |        7732 |
|     191 | 0x005D      |          93 |
|     192 | 0x0099      |         153 |
|     193 | 0x1E35      |        7733 |
|     194 | 0x1E36      |        7734 |
|     195 | 0x1E37      |        7735 |
|     196 | 0x1E38      |        7736 |
|     197 | 0x1E39      |        7737 |
|     198 | 0x007C      |         124 |
|     199 | 0x1E03      |        7683 |
|     200 | 0x1E04      |        7684 |
|     201 | 0x1E05      |        7685 |
|     202 | 0x1E06      |        7686 |
|     203 | 0x1E0D      |        7693 |
|     204 | 0x1E0E      |        7694 |
|     205 | 0x1E0F      |        7695 |
|     206 | 0x1C3C      |        7228 |
|     207 | 0x7A07C     |      499836 |
|     208 | 0xFFF9598F  |  4294531471 |
|     209 | 0xD9E5      |       55781 |
|     210 | 0x01BD      |         445 |
|     211 | 0x0071      |         113 |
|     212 | 0x0074      |         116 |
|     213 | 0x0077      |         119 |
|     214 | 0x007B      |         123 |
|     215 | 0x0087      |         135 |
|     216 | 0x00D7      |         215 |
|     217 | 0x7966B     |      497259 |
|     218 | 0xFFF964A9  |  4294534313 |
|     219 | 0xD907      |       55559 |
|     220 | 0x098D      |        2445 |
|     221 | 0x430E      |       17166 |
|     222 | 0xFFFF7F7E  |  4294934398 |
|     223 | 0xFFFFEEA3  |  4294962851 |
|     224 | 0x0988      |        2440 |
|     225 | 0xFFFA2911  |  4294584593 |
|     226 | 0x6D260     |      447072 |
|     227 | 0xFFFF0444  |  4294902852 |
|     228 | 0x09C1      |        2497 |
|     229 | 0xFFF7BF4E  |  4294426446 |
|     230 | 0xFFF869E0  |  4294470112 |
|     231 | 0x0C80      |        3200 |

## String References

- **7227**: Enter the battlefield? [Enter./Decline.]
- **7228**: Leave the battlefield? [Run away./Stay.]
- **7230**: You cannot enter the battlefield at present. Please wait a little longer.
- **7238**: You are cleared to enter the battlefield, but you cannot while party members are engaged in combat.
- **7239**: You are cleared to enter the battlefield, but you cannot while party members are engaged in combat.
- **7240**: You are cleared to enter the battlefield, but you cannot while party members are engaged in combat.
- **7241**: You are cleared to enter the battlefield, but you cannot while party members are engaged in combat.
- **7277**: You do not meet the requirements to enter the battlefield. Access is denied.
- **7566**: Skip the event? [Yes./No.]
- **7567**: Battlefield clear time: $3 second[/s]!
- **7568**: Battlefield clear time: $3 minute[/s], $2 second[/s]!
- **7569**: The current battlefield clear time record is $3 second[/s].
- **7570**: The current battlefield clear time record is $3 minute[/s] $2 second[/s].
- **7586**: Only $3 [member/members] have clearance to enter the battlefield. This room has reached its maximum capacity.
- **7590**: That record is held by $5 adventurers, including %0!
- **7591**: That record is held by %0!
- **7592**: Select difficulty. [Very difficult. (Level: ???)/Difficult. (Level: ???)/Normal. (Level: $18)/Easy. (Level: $17)/Very Easy. (Level: $16)/Leave.]
- **7672**: You have broken the clear time record for "[Trial by Earth/The Puppet Master/Trial-Size Trial by Earth/Waking the Beast/Sugar-coated Directive/$26Trial by Earth]"!
- **7673**: The current battlefield clear time record for "[Trial by Earth/The Puppet Master/Trial-Size Trial by Earth/Waking the Beast/Sugar-coated Directive/$26Trial by Earth]" is $3 second[/s].
- **7674**: The current battlefield clear time record for "[Trial by Earth/The Puppet Master/Trial-Size Trial by Earth/Waking the Beast/Sugar-coated Directive/$26Trial by Earth]" is $3 minute[/s] $2 second[/s].
- **7676**: Which battlefield will you enter? [None./Trial by Earth./The Puppet Master./Trial-Size Trial by Earth./Waking the Beast./Sugar-coated Directive./$26Trial by Earth./././././././././././././././././././././././././]
- **7677**: As if sensing the presence of the protocrystal, the $3 begins to softly resonate...
- **7678**: ...Who interrupts my slumber?
- **7679**: Was I dreaming for but an instant, or an eternity? The radiance that illuminates all, lost...
- **7680**: Which is the real world, and which is the dream? Am I...?
- **7681**: But enough... Wager your life to prove your skill. Let us see if you can provide me with a moment of amusement.
- **7682**: Are you ready, you who is one yet many?
- **7683**: ...Impressive, child of Vana'diel.
- **7684**: We sleep in a time that is neither an instant, nor an eternity.
- **7685**: Is this world a dream, or is the dreamworld an illusion...?
- **7686**: Very well, child of Vana'diel. I will grant you a fragment of my power to bring order to chaos.
- **7687**: 
- **7688**: The $0 begins to softly resonate with the protocrystal.
- **7689**: Who interrupts...
- **7690**: Was I dreaming...? ...an eternity? ...lost...
- **7691**: But enough... Wager your life... ...provide me ...with...amusement.
- **7692**: Are you ready...?
- **7693**: ...Impressive...
- **7694**: ...time is neither ...an eternity.
- **7695**: ...to bring order...
- **7729**: If you dare disturb my slumber, then show me...
- **7730**: Show me the power I have given you...
- **7731**: And understand the frailty of your mortal existence...
- **7732**: What are you planning...? To where do you take my power...?
- **7733**: This world is no dream... The world I dream of is no illusion...
- **7734**: Your kind has forgotten its divinity...
- **7735**: Heed my words. The creature...Carbuncle?
- **7736**: It is a false god. And your world is a finite thing.
- **7737**: Remember your divine origin. Only then can we help you.

## Events

### Event 65535

#### Metadata

| Field        | Value   |
|--------------|---------|
| Entrypoint   | 0x0000  |
| Data Size    | 1 bytes |
| Instructions | 1       |

```
      00 01 02 03 04 05 06 07  08 09 0A 0B 0C 0D 0E 0F
      -- -- -- -- -- -- -- --  -- -- -- -- -- -- -- --
0000: 00                                                .               
```

#### Opcodes

```
  0: 0x0000 [0x00] END_REQSTACK()
```

### Event 65534

#### Metadata

| Field        | Value   |
|--------------|---------|
| Entrypoint   | 0x0001  |
| Data Size    | 1 bytes |
| Instructions | 1       |

```
      00 01 02 03 04 05 06 07  08 09 0A 0B 0C 0D 0E 0F
      -- -- -- -- -- -- -- --  -- -- -- -- -- -- -- --
0000:    00                                              .              
```

#### Opcodes

```
  0: 0x0001 [0x00] END_REQSTACK()
```

### Event 32000

#### Metadata

| Field        | Value      |
|--------------|------------|
| Entrypoint   | 0x0002     |
| Data Size    | 2116 bytes |
| Instructions | 279        |

```
      00 01 02 03 04 05 06 07  08 09 0A 0B 0C 0D 0E 0F
      -- -- -- -- -- -- -- --  -- -- -- -- -- -- -- --
0000:       20 01 79 00 F0 FF  FF 7F F0 FF FF 7F 03 02     .y...........
0010: 00 02 10 03 03 00 03 10  03 05 00 04 10 03 06 00  ................
0020: 05 10 03 0F 00 06 10 03  10 00 07 10 03 11 00 08  ................
0030: 10 41 00 80 01 80 09 10  07 00 41 02 80 03 80 09  .A........A.....
0040: 10 06 10 06 01 00 02 07  00 00 80 00 45 01 03 08  ............E...
0050: 00 04 80 0F 08 00 06 00  10 08 00 05 80 24 06 80  .............$..
0060: 00 80 08 00 25 02 00 10  00 80 00 73 00 01 2B 08  ....%......s..+.
0070: 01 45 01 03 03 00 00 10  0C 03 00 06 16 00 06 13  .E..............
0080: 00 3E 0F 00 03 00 21 01  06 0F 00 06 08 00 3E 11  .>....!.......>.
0090: 00 03 00 98 00 01 9F 00  3C 08 00 00 80 05 80 3E  ........<......>
00A0: 10 00 03 00 A9 00 01 B0  00 3C 08 00 05 80 05 80  .........<......
00B0: 1A 27 24 24 07 80 08 80  08 00 25 02 00 10 00 80  .'$$......%.....
00C0: 00 CB 00 03 0F 00 05 80  01 1E 01 02 00 10 05 80  ................
00D0: 00 DB 00 03 0F 00 09 80  01 1E 01 02 00 10 09 80  ................
00E0: 00 EB 00 03 0F 00 0A 80  01 1E 01 02 00 10 0A 80  ................
00F0: 00 FB 00 03 0F 00 0B 80  01 1E 01 02 00 10 0B 80  ................
0100: 00 0B 01 03 0F 00 08 80  01 1E 01 02 00 10 08 80  ................
0110: 00 19 01 01 2B 08 01 1E  01 03 0F 00 0A 80 01 45  ....+..........E
0120: 01 06 0F 00 1A 45 08 02  16 00 05 80 00 45 01 24  .....E.......E.$
0130: 0C 80 05 80 00 80 25 02  00 10 05 80 00 45 01 01  ......%......E..
0140: 2B 08 01 45 01 42 03 01  10 0D 80 43 00 43 01 06  +..E.B.....C.C..
0150: 01 10 45 0E 80 F0 FF FF  7F F0 FF FF 7F 66 64 6F  ..E..........fdo
0160: 31 00 80 55 0E 80 F0 FF  FF 7F F0 FF FF 7F 66 64  1..U..........fd
0170: 6F 31 3B F0 FF FF 7F 20  10 21 10 22 10 38 0F 80  o1;.... .!.".8..
0180: 02 07 00 05 80 00 9F 01  03 00 00 05 80 03 04 00  ................
0190: 03 00 03 02 00 00 80 03  1C 00 00 80 01 5F 05 03  ............._..
01A0: 00 00 05 80 02 00 00 0A  80 05 F4 07 02 00 80 05  ................
01B0: 80 00 B9 01 03 00 00 05  00 40 00 80 0A 80 01 10  .........@......
01C0: 00 00 40 0B 80 10 80 01  10 03 00 40 11 80 12 80  ..@........@....
01D0: 01 10 0F 00 06 02 10 06  03 10 06 04 10 1A E8 26  ...............&
01E0: 47 00 09 00 0A 00 0B 00  0C 00 47 01 03 04 00 03  G.........G.....
01F0: 10 03 02 00 04 10 03 1A  00 05 10 03 0D 00 06 10  ................
0200: 03 0E 00 07 10 03 1C 00  09 10 02 02 10 05 80 80  ................
0210: 15 02 01 E1 07 02 02 10  0B 80 80 5F 02 02 00 00  ..........._....
0220: 05 80 80 2C 02 48 13 80  23 01 59 02 02 00 00 09  ...,.H..#.Y.....
0230: 80 80 3B 02 48 14 80 23  01 59 02 02 00 00 0A 80  ..;.H..#.Y......
0240: 80 4A 02 48 15 80 23 01  59 02 02 00 00 0B 80 80  .J.H..#.Y.......
0250: 59 02 48 16 80 23 01 59  02 01 F8 07 01 E1 07 02  Y.H..#.Y........
0260: 02 10 08 80 80 71 02 48  17 80 23 01 F8 07 01 E1  .....q.H..#.....
0270: 07 02 02 10 18 80 80 73  04 02 04 00 00 80 80 89  .......s........
0280: 02 03 05 10 18 80 01 69  04 02 04 00 05 80 80 99  .......i........
0290: 02 03 05 10 19 80 01 69  04 02 04 00 09 80 80 A9  .......i........
02A0: 02 03 05 10 05 80 01 69  04 02 04 00 0A 80 80 B9  .......i........
02B0: 02 03 05 10 19 80 01 69  04 02 04 00 0B 80 80 C9  .......i........
02C0: 02 03 05 10 18 80 01 69  04 02 04 00 08 80 80 D9  .......i........
02D0: 02 03 05 10 18 80 01 69  04 02 04 00 18 80 80 E9  .......i........
02E0: 02 03 05 10 18 80 01 69  04 02 04 00 1A 80 80 F9  .......i........
02F0: 02 03 05 10 18 80 01 69  04 02 04 00 10 80 80 09  .......i........
0300: 03 03 05 10 18 80 01 69  04 02 04 00 11 80 80 19  .......i........
0310: 03 03 05 10 18 80 01 69  04 02 04 00 1B 80 80 29  .......i.......)
0320: 03 03 05 10 18 80 01 69  04 02 04 00 12 80 80 39  .......i.......9
0330: 03 03 05 10 18 80 01 69  04 02 04 00 1C 80 80 49  .......i.......I
0340: 03 03 05 10 18 80 01 69  04 02 04 00 1D 80 80 59  .......i.......Y
0350: 03 03 05 10 18 80 01 69  04 02 04 00 1E 80 80 69  .......i.......i
0360: 03 03 05 10 18 80 01 69  04 02 04 00 01 80 80 79  .......i.......y
0370: 03 03 05 10 18 80 01 69  04 02 04 00 02 80 80 89  .......i........
0380: 03 03 05 10 00 80 01 69  04 02 04 00 1F 80 80 99  .......i........
0390: 03 03 05 10 00 80 01 69  04 02 04 00 19 80 80 A9  .......i........
03A0: 03 03 05 10 00 80 01 69  04 02 04 00 0F 80 80 B9  .......i........
03B0: 03 03 05 10 00 80 01 69  04 02 04 00 20 80 80 C9  .......i.... ...
03C0: 03 03 05 10 00 80 01 69  04 02 04 00 21 80 80 D9  .......i....!...
03D0: 03 03 05 10 00 80 01 69  04 02 04 00 22 80 80 E9  .......i...."...
03E0: 03 03 05 10 00 80 01 69  04 02 04 00 23 80 80 F9  .......i....#...
03F0: 03 03 05 10 00 80 01 69  04 02 04 00 24 80 80 09  .......i....$...
0400: 04 03 05 10 00 80 01 69  04 02 04 00 25 80 80 19  .......i....%...
0410: 04 03 05 10 00 80 01 69  04 02 04 00 26 80 80 29  .......i....&..)
0420: 04 03 05 10 00 80 01 69  04 02 04 00 27 80 80 39  .......i....'..9
0430: 04 03 05 10 00 80 01 69  04 02 04 00 28 80 80 49  .......i....(..I
0440: 04 03 05 10 00 80 01 69  04 02 04 00 29 80 80 59  .......i....)..Y
0450: 04 03 05 10 00 80 01 69  04 02 04 00 2A 80 80 69  .......i....*..i
0460: 04 03 05 10 00 80 01 69  04 48 2B 80 23 01 F8 07  .......i.H+.#...
0470: 01 E1 07 02 02 10 0A 80  80 81 04 01 9F 01 01 E1  ................
0480: 07 02 02 10 09 80 80 E1  07 02 0D 00 00 80 01 15  ................
0490: 05 02 13 00 00 80 01 C9  04 03 05 10 1A 00 02 1A  ................
04A0: 00 00 80 02 A6 04 02 0D  00 05 80 05 B5 04 48 2C  ..............H,
04B0: 80 23 01 C6 04 03 06 10  0D 00 0C 06 10 03 07 10  .#..............
04C0: 0D 00 48 2D 80 23 01 15  05 03 05 10 1A 00 02 1A  ..H-.#..........
04D0: 00 00 80 02 F5 04 02 1A  00 2E 80 04 F1 04 3F 04  ..............?.
04E0: 10 05 10 2E 80 15 05 10  2E 80 48 2F 80 23 01 F5  ..........H/.#..
04F0: 04 48 30 80 23 02 0D 00  05 80 05 04 05 48 2C 80  .H0.#........H,.
0500: 23 01 15 05 03 06 10 0D  00 0C 06 10 03 07 10 0D  #...............
0510: 00 48 2D 80 23 03 03 00  04 00 03 14 00 31 80 07  .H-.#........1..
0520: 14 00 03 00 02 02 00 14  00 00 34 05 03 02 00 05  ..........4.....
0530: 80 01 39 05 03 02 00 00  80 02 02 00 00 80 00 5F  ..9............_
0540: 05 02 0E 00 05 80 00 5F  05 24 32 80 05 80 00 80  ......._.$2.....
0550: 25 02 00 10 00 80 00 5F  05 05 02 00 01 5F 05 06  %......_....._..
0560: 15 00 02 04 00 00 80 80  72 05 03 15 00 00 80 01  ........r.......
0570: 57 07 02 04 00 05 80 80  82 05 03 15 00 00 80 01  W...............
0580: 57 07 02 04 00 09 80 80  92 05 03 15 00 00 80 01  W...............
0590: 57 07 02 04 00 0A 80 80  A2 05 03 15 00 00 80 01  W...............
05A0: 57 07 02 04 00 0B 80 80  B2 05 03 15 00 00 80 01  W...............
05B0: 57 07 02 04 00 08 80 80  C2 05 03 15 00 00 80 01  W...............
05C0: 57 07 02 04 00 18 80 80  D2 05 03 15 00 00 80 01  W...............
05D0: 57 07 02 04 00 1A 80 80  E2 05 03 15 00 00 80 01  W...............
05E0: 57 07 02 04 00 10 80 80  F2 05 03 15 00 00 80 01  W...............
05F0: 57 07 02 04 00 11 80 80  02 06 03 15 00 00 80 01  W...............
0600: 57 07 02 04 00 1B 80 80  12 06 03 15 00 00 80 01  W...............
0610: 57 07 02 04 00 12 80 80  22 06 03 15 00 00 80 01  W.......".......
0620: 57 07 02 04 00 1C 80 80  32 06 03 15 00 00 80 01  W.......2.......
0630: 57 07 02 04 00 1D 80 80  42 06 03 15 00 00 80 01  W.......B.......
0640: 57 07 02 04 00 1E 80 80  52 06 03 15 00 00 80 01  W.......R.......
0650: 57 07 02 04 00 01 80 80  62 06 03 15 00 00 80 01  W.......b.......
0660: 57 07 02 04 00 02 80 80  72 06 03 15 00 00 80 01  W.......r.......
0670: 57 07 02 04 00 1F 80 80  82 06 03 15 00 00 80 01  W...............
0680: 57 07 02 04 00 19 80 80  92 06 03 15 00 00 80 01  W...............
0690: 57 07 02 04 00 0F 80 80  A2 06 03 15 00 00 80 01  W...............
06A0: 57 07 02 04 00 20 80 80  B2 06 03 15 00 00 80 01  W.... ..........
06B0: 57 07 02 04 00 21 80 80  C2 06 03 15 00 00 80 01  W....!..........
06C0: 57 07 02 04 00 22 80 80  D2 06 03 15 00 00 80 01  W...."..........
06D0: 57 07 02 04 00 23 80 80  E2 06 03 15 00 00 80 01  W....#..........
06E0: 57 07 02 04 00 24 80 80  F2 06 03 15 00 00 80 01  W....$..........
06F0: 57 07 02 04 00 25 80 80  02 07 03 15 00 00 80 01  W....%..........
0700: 57 07 02 04 00 26 80 80  12 07 03 15 00 00 80 01  W....&..........
0710: 57 07 02 04 00 27 80 80  22 07 03 15 00 00 80 01  W....'..".......
0720: 57 07 02 04 00 28 80 80  32 07 03 15 00 00 80 01  W....(..2.......
0730: 57 07 02 04 00 29 80 80  42 07 03 15 00 00 80 01  W....)..B.......
0740: 57 07 02 04 00 2A 80 80  52 07 03 15 00 00 80 01  W....*..R.......
0750: 57 07 03 15 00 00 80 02  02 00 05 80 00 72 07 5C  W............r.\
0760: 00 33 80 5C 01 33 80 5C  02 33 80 5C 03 33 80 01  .3.\.3.\.3.\.3..
0770: 8A 07 02 15 00 00 80 00  8A 07 5C 00 33 80 5C 01  ..........\.3.\.
0780: 33 80 5C 02 33 80 5C 03  33 80 02 02 00 00 80 00  3.\.3.\.3.......
0790: 98 07 1A 22 10 01 D1 07  6C F0 FF FF 7F 00 80 05  ..."....l.......
07A0: 80 62 09 80 F0 FF FF 7F  F0 FF FF 7F 6D 61 69 6E  .b..........main
07B0: 00 80 45 0E 80 F0 FF FF  7F F0 FF FF 7F 6F 76 6C  ..E..........ovl
07C0: 31 00 80 46 02 12 00 02  12 00 00 80 00 D1 07 46  1..F...........F
07D0: 00 03 01 10 31 80 07 01  10 03 00 01 F8 07 01 E1  ....1...........
07E0: 07 0B 00 00 02 00 80 05  80 00 F1 07 03 00 00 0B  ................
07F0: 80 01 A4 01 48 34 80 23  45 35 80 F0 FF FF 7F F0  ....H4.#E5......
0800: FF FF 7F 77 68 69 31 00  80 45 0E 80 F0 FF FF 7F  ...whi1..E......
0810: F0 FF FF 7F 62 6C 6F 66  00 80 45 0E 80 F0 FF FF  ....blof..E.....
0820: 7F F0 FF FF 7F 66 64 69  30 00 80 02 07 00 05 80  .....fdi0.......
0830: 00 43 08 5C 00 00 80 5C  01 00 80 5C 02 33 80 5C  .C.\...\...\.3.\
0840: 03 33 80 21 00 1B                                 .3.!..          
```

#### Opcodes

```
  0: 0x0002 [0x20] SET_CLI_EVENT_UC_FLAG: Lock player control
  1: 0x0004 [0x79] LocalPlayer looks at LocalPlayer (Basic look)
  2: 0x000E [0x03] ExtData[1]->WorkLocal[2] = Work_Zone[2]
  3: 0x0013 [0x03] ExtData[1]->WorkLocal[3] = Work_Zone[3]
  4: 0x0018 [0x03] ExtData[1]->WorkLocal[5] = Work_Zone[4]
  5: 0x001D [0x03] ExtData[1]->WorkLocal[6] = Work_Zone[5]
  6: 0x0022 [0x03] ExtData[1]->WorkLocal[15] = Work_Zone[6]
  7: 0x0027 [0x03] ExtData[1]->WorkLocal[16] = Work_Zone[7]
  8: 0x002C [0x03] ExtData[1]->WorkLocal[17] = Work_Zone[8]
  9: 0x0031 [0x41] ExtData[1]->WorkLocal[7] = Work_Zone[9] (bits 0*-15*)
 10: 0x003A [0x41] Work_Zone[6] = Work_Zone[9] (bits 16*-31*)
 11: 0x0043 [0x06] ExtData[1]->WorkLocal[1] = 0
 12: 0x0046 [0x02] IF !(ExtData[1]->WorkLocal[7] == 0*) GOTO 0x0145
 13: 0x004E [0x03] ExtData[1]->WorkLocal[8] = 4294967295*
 14: 0x0053 [0x0F] ExtData[1]->WorkLocal[8] ^= ExtData[1]->WorkLocal[6]
 15: 0x0058 [0x10] ExtData[1]->WorkLocal[8] <<= 1*
 16: 0x005D [0x24] CREATE_DIALOG(message_id=7676*, default_option=0*, option_flags=ExtData[1]->WorkLocal[8])
    → "Which battlefield will you enter? [None./Trial by Earth./The Puppet Master./Trial-Size Trial by Earth./Waking the Beast./Sugar-coated Directive./$26Trial by Earth./././././././././././././././././././././././././]"
 17: 0x0064 [0x25] WAIT_DIALOG_SELECT()
 18: 0x0065 [0x02] IF !(Work_Zone[0] == 0*) GOTO 0x0073
 19: 0x006D [0x01] GOTO 0x082B

SUBROUTINE_009F:
 20: 0x009F [0x3E] IF !(ExtData[1]->WorkLocal[16] bit ExtData[1]->WorkLocal[3]) GOTO 0x00A9
 21: 0x00A6 [0x01] GOTO 0x00B0
 22: 0x00A9 [0x3C] SET_BIT_FLAG_CONDITIONAL(target_work_offset=ExtData[1]->WorkLocal[8], bit_index_work_offset=1*, condition_work_offset=1*)

SUBROUTINE_00B0:
 23: 0x00B0 [0x1A] CALL_SUBROUTINE(address=0x2427)
 24: 0x00B3 [0x24] CREATE_DIALOG(message_id=7592*, default_option=5*, option_flags=ExtData[1]->WorkLocal[8])
    → "Select difficulty. [Very difficult. (Level: ???)/Difficult. (Level: ???)/Normal. (Level: $18)/Easy. (Level: $17)/Very Easy. (Level: $16)/Leave.]"
 25: 0x00BA [0x25] WAIT_DIALOG_SELECT()
 26: 0x00BB [0x02] IF !(Work_Zone[0] == 0*) GOTO 0x00CB
 27: 0x00C3 [0x03] ExtData[1]->WorkLocal[15] = 1*
 28: 0x00C8 [0x01] GOTO 0x011E
 29: 0x00CB [0x02] IF !(Work_Zone[0] == 1*) GOTO 0x00DB
 30: 0x00D3 [0x03] ExtData[1]->WorkLocal[15] = 2*
 31: 0x00D8 [0x01] GOTO 0x011E
 32: 0x00DB [0x02] IF !(Work_Zone[0] == 2*) GOTO 0x00EB
 33: 0x00E3 [0x03] ExtData[1]->WorkLocal[15] = 3*
 34: 0x00E8 [0x01] GOTO 0x011E
 35: 0x00EB [0x02] IF !(Work_Zone[0] == 3*) GOTO 0x00FB
 36: 0x00F3 [0x03] ExtData[1]->WorkLocal[15] = 4*
 37: 0x00F8 [0x01] GOTO 0x011E
 38: 0x00FB [0x02] IF !(Work_Zone[0] == 4*) GOTO 0x010B
 39: 0x0103 [0x03] ExtData[1]->WorkLocal[15] = 5*
 40: 0x0108 [0x01] GOTO 0x011E
 41: 0x010B [0x02] IF !(Work_Zone[0] == 5*) GOTO 0x0119
 42: 0x0113 [0x01] GOTO 0x082B

SUBROUTINE_011E:
 43: 0x011E [0x01] GOTO 0x0145
 44: 0x0121 [0x06] ExtData[1]->WorkLocal[15] = 0
 45: 0x0124 [0x1A] CALL_SUBROUTINE(address=0x0845)
 46: 0x0127 [0x02] IF !(ExtData[1]->WorkLocal[22] == 1*) GOTO 0x0145
 47: 0x012F [0x24] CREATE_DIALOG(message_id=7227*, default_option=1*, option_flags=0*)
    → "Enter the battlefield? [Enter./Decline.]"
 48: 0x0136 [0x25] WAIT_DIALOG_SELECT()
 49: 0x0137 [0x02] IF !(Work_Zone[0] == 1*) GOTO 0x0145
 50: 0x013F [0x01] GOTO 0x082B

SUBROUTINE_0145:
 51: 0x0145 [0x42] SET_CLI_EVENT_CANCEL_DATA()
 52: 0x0146 [0x03] Work_Zone[1] = 255*
 53: 0x014B [0x43] SEND_EVENT_UPDATE: Send pending tag to server (packet 0x005B)
 54: 0x014D [0x43] SEND_EVENT_UPDATE: Check pending flag (skip if not pending)
 55: 0x014F [0x06] Work_Zone[1] = 0
 56: 0x0152 [0x45] LOAD_SCHEDULED_TASK: Load scheduler "fdo1" with entities [LocalPlayer, LocalPlayer], work=[200*, 0*]
 57: 0x0163 [0x55] WAIT_LOAD_SCHEDULER: Wait for scheduler "fdo1" with entities [LocalPlayer, LocalPlayer], work=200*
 58: 0x0172 [0x3B] GET_ENTITY_POSITION(entity=LocalPlayer, x_destination=Work_Zone[32], y_destination=Work_Zone[33], z_destination=Work_Zone[34])
 59: 0x017D [0x38] SET_CLIENT_EVENT_MODE(mode=19*)
 60: 0x0180 [0x02] IF !(ExtData[1]->WorkLocal[7] == 1*) GOTO 0x019F
 61: 0x0188 [0x03] ExtData[1]->WorkLocal[0] = 1*
 62: 0x018D [0x03] ExtData[1]->WorkLocal[4] = ExtData[1]->WorkLocal[3]
 63: 0x0192 [0x03] ExtData[1]->WorkLocal[2] = 0*
 64: 0x0197 [0x03] ExtData[1]->WorkLocal[28] = 0*
 65: 0x019C [0x01] GOTO 0x055F

SUBROUTINE_019F:
 66: 0x019F [0x03] ExtData[1]->WorkLocal[0] = 1*

SUBROUTINE_01A4:
 67: 0x01A4 [0x02] IF !(ExtData[1]->WorkLocal[0] > 3*) GOTO 0x07F4
 68: 0x01AC [0x02] IF !(0* == 1*) GOTO 0x01B9
 69: 0x01B4 [0x03] ExtData[1]->WorkLocal[0] = ExtData[1]->WorkLocal[5]
 70: 0x01B9 [0x40] SET_BIT_WORK_RANGE(start_bit=0*, end_bit=3*, target=Work_Zone[1], source=ExtData[1]->WorkLocal[0])
 71: 0x01C2 [0x40] SET_BIT_WORK_RANGE(start_bit=4*, end_bit=8*, target=Work_Zone[1], source=ExtData[1]->WorkLocal[3])
 72: 0x01CB [0x40] SET_BIT_WORK_RANGE(start_bit=9*, end_bit=11*, target=Work_Zone[1], source=ExtData[1]->WorkLocal[15])
 73: 0x01D4 [0x06] Work_Zone[2] = 0
 74: 0x01D7 [0x06] Work_Zone[3] = 0
 75: 0x01DA [0x06] Work_Zone[4] = 0
 76: 0x01DD [0x1A] CALL_SUBROUTINE(address=0x26E8)
 77: 0x01E0 [0x47] UPDATE_PLAYER_POS(ExtData[1]->WorkLocal[9], ExtData[1]->WorkLocal[10], ExtData[1]->WorkLocal[11], yaw=ExtData[1]->WorkLocal[12])
 78: 0x01EA [0x47] WAIT_PLAYER_POS_UPDATE
 79: 0x01EC [0x03] ExtData[1]->WorkLocal[4] = Work_Zone[3]
 80: 0x01F1 [0x03] ExtData[1]->WorkLocal[2] = Work_Zone[4]
 81: 0x01F6 [0x03] ExtData[1]->WorkLocal[26] = Work_Zone[5]
 82: 0x01FB [0x03] ExtData[1]->WorkLocal[13] = Work_Zone[6]
 83: 0x0200 [0x03] ExtData[1]->WorkLocal[14] = Work_Zone[7]
 84: 0x0205 [0x03] ExtData[1]->WorkLocal[28] = Work_Zone[9]
 85: 0x020A [0x02] IF !(Work_Zone[2] == 1*) GOTO 0x0215
 86: 0x0212 [0x01] GOTO 0x07E1
 87: 0x0215 [0x02] IF !(Work_Zone[2] == 4*) GOTO 0x025F
 88: 0x021D [0x02] IF !(ExtData[1]->WorkLocal[0] == 1*) GOTO 0x022C
 89: 0x0225 [0x48] [System] [7238*]:
    → "You are cleared to enter the battlefield, but you cannot while party members are engaged in combat."
 90: 0x0228 [0x23] WAIT_FOR_DIALOG_INTERACTION
 91: 0x0229 [0x01] GOTO 0x0259
 92: 0x022C [0x02] IF !(ExtData[1]->WorkLocal[0] == 2*) GOTO 0x023B
 93: 0x0234 [0x48] [System] [7239*]:
    → "You are cleared to enter the battlefield, but you cannot while party members are engaged in combat."
 94: 0x0237 [0x23] WAIT_FOR_DIALOG_INTERACTION
 95: 0x0238 [0x01] GOTO 0x0259
 96: 0x023B [0x02] IF !(ExtData[1]->WorkLocal[0] == 3*) GOTO 0x024A
 97: 0x0243 [0x48] [System] [7240*]:
    → "You are cleared to enter the battlefield, but you cannot while party members are engaged in combat."
 98: 0x0246 [0x23] WAIT_FOR_DIALOG_INTERACTION
 99: 0x0247 [0x01] GOTO 0x0259
100: 0x024A [0x02] IF !(ExtData[1]->WorkLocal[0] == 4*) GOTO 0x0259
101: 0x0252 [0x48] [System] [7241*]:
    → "You are cleared to enter the battlefield, but you cannot while party members are engaged in combat."
102: 0x0255 [0x23] WAIT_FOR_DIALOG_INTERACTION
103: 0x0256 [0x01] GOTO 0x0259

SUBROUTINE_0259:
104: 0x0259 [0x01] GOTO 0x07F8

SUBROUTINE_0469:
105: 0x0469 [0x48] [System] [7586*]:
    → "Only $3 [member/members] have clearance to enter the battlefield. This room has reached its maximum capacity."
106: 0x046C [0x23] WAIT_FOR_DIALOG_INTERACTION
107: 0x046D [0x01] GOTO 0x07F8

SUBROUTINE_04C6:
108: 0x04C6 [0x01] GOTO 0x0515
109: 0x04C9 [0x03] Work_Zone[5] = ExtData[1]->WorkLocal[26]
110: 0x04CE [0x02] IF !(ExtData[1]->WorkLocal[26] <= 0*) GOTO 0x04F5
111: 0x04D6 [0x02] IF !(ExtData[1]->WorkLocal[26] < 60*) GOTO 0x04F1
112: 0x04DE [0x3F] Work_Zone[4] = Work_Zone[5] % 60*
113: 0x04E5 [0x15] Work_Zone[5] /= 60*
114: 0x04EA [0x48] [System] [7674*]:
    → "The current battlefield clear time record for "[Trial by Earth/The Puppet Master/Trial-Size Trial by Earth/Waking the Beast/Sugar-coated Directive/$26Trial by Earth]" is $3 minute[/s] $2 second[/s]."
115: 0x04ED [0x23] WAIT_FOR_DIALOG_INTERACTION
116: 0x04EE [0x01] GOTO 0x04F5
117: 0x04F1 [0x48] [System] [7673*]:
    → "The current battlefield clear time record for "[Trial by Earth/The Puppet Master/Trial-Size Trial by Earth/Waking the Beast/Sugar-coated Directive/$26Trial by Earth]" is $3 second[/s]."
118: 0x04F4 [0x23] WAIT_FOR_DIALOG_INTERACTION

SUBROUTINE_04F5:
119: 0x04F5 [0x02] IF !(ExtData[1]->WorkLocal[13] > 1*) GOTO 0x0504
120: 0x04FD [0x48] [System] [7591*]:
    → "That record is held by %0!"
121: 0x0500 [0x23] WAIT_FOR_DIALOG_INTERACTION
122: 0x0501 [0x01] GOTO 0x0515
123: 0x0504 [0x03] Work_Zone[6] = ExtData[1]->WorkLocal[13]
124: 0x0509 [0x0C] Work_Zone[6]--
125: 0x050C [0x03] Work_Zone[7] = ExtData[1]->WorkLocal[13]
126: 0x0511 [0x48] [System] [7590*]:
    → "That record is held by $5 adventurers, including %0!"
127: 0x0514 [0x23] WAIT_FOR_DIALOG_INTERACTION

SUBROUTINE_0515:
128: 0x0515 [0x03] ExtData[1]->WorkLocal[3] = ExtData[1]->WorkLocal[4]
129: 0x051A [0x03] ExtData[1]->WorkLocal[20] = 100*
130: 0x051F [0x07] ExtData[1]->WorkLocal[20] += ExtData[1]->WorkLocal[3]
131: 0x0524 [0x02] IF !(ExtData[1]->WorkLocal[2] == ExtData[1]->WorkLocal[20]) GOTO 0x0534
132: 0x052C [0x03] ExtData[1]->WorkLocal[2] = 1*
133: 0x0531 [0x01] GOTO 0x0539
134: 0x0534 [0x03] ExtData[1]->WorkLocal[2] = 0*

SUBROUTINE_0539:
135: 0x0539 [0x02] IF !(ExtData[1]->WorkLocal[2] == 0*) GOTO 0x055F
136: 0x0541 [0x02] IF !(ExtData[1]->WorkLocal[14] == 1*) GOTO 0x055F
137: 0x0549 [0x24] CREATE_DIALOG(message_id=7566*, default_option=1*, option_flags=0*)
    → "Skip the event? [Yes./No.]"
138: 0x0550 [0x25] WAIT_DIALOG_SELECT()
139: 0x0551 [0x02] IF !(Work_Zone[0] == 0*) GOTO 0x055F
140: 0x0559 [0x05] ExtData[1]->WorkLocal[2] = 1
141: 0x055C [0x01] GOTO 0x055F

SUBROUTINE_055F:
142: 0x055F [0x06] ExtData[1]->WorkLocal[21] = 0
143: 0x0562 [0x02] IF !(ExtData[1]->WorkLocal[4] == 0*) GOTO 0x0572
144: 0x056A [0x03] ExtData[1]->WorkLocal[21] = 0*
145: 0x056F [0x01] GOTO 0x0757
146: 0x0572 [0x02] IF !(ExtData[1]->WorkLocal[4] == 1*) GOTO 0x0582
147: 0x057A [0x03] ExtData[1]->WorkLocal[21] = 0*
148: 0x057F [0x01] GOTO 0x0757
149: 0x0582 [0x02] IF !(ExtData[1]->WorkLocal[4] == 2*) GOTO 0x0592
150: 0x058A [0x03] ExtData[1]->WorkLocal[21] = 0*
151: 0x058F [0x01] GOTO 0x0757
152: 0x0592 [0x02] IF !(ExtData[1]->WorkLocal[4] == 3*) GOTO 0x05A2
153: 0x059A [0x03] ExtData[1]->WorkLocal[21] = 0*
154: 0x059F [0x01] GOTO 0x0757
155: 0x05A2 [0x02] IF !(ExtData[1]->WorkLocal[4] == 4*) GOTO 0x05B2
156: 0x05AA [0x03] ExtData[1]->WorkLocal[21] = 0*
157: 0x05AF [0x01] GOTO 0x0757
158: 0x05B2 [0x02] IF !(ExtData[1]->WorkLocal[4] == 5*) GOTO 0x05C2
159: 0x05BA [0x03] ExtData[1]->WorkLocal[21] = 0*
160: 0x05BF [0x01] GOTO 0x0757
161: 0x05C2 [0x02] IF !(ExtData[1]->WorkLocal[4] == 6*) GOTO 0x05D2
162: 0x05CA [0x03] ExtData[1]->WorkLocal[21] = 0*
163: 0x05CF [0x01] GOTO 0x0757
164: 0x05D2 [0x02] IF !(ExtData[1]->WorkLocal[4] == 7*) GOTO 0x05E2
165: 0x05DA [0x03] ExtData[1]->WorkLocal[21] = 0*
166: 0x05DF [0x01] GOTO 0x0757
167: 0x05E2 [0x02] IF !(ExtData[1]->WorkLocal[4] == 8*) GOTO 0x05F2
168: 0x05EA [0x03] ExtData[1]->WorkLocal[21] = 0*
169: 0x05EF [0x01] GOTO 0x0757
170: 0x05F2 [0x02] IF !(ExtData[1]->WorkLocal[4] == 9*) GOTO 0x0602
171: 0x05FA [0x03] ExtData[1]->WorkLocal[21] = 0*
172: 0x05FF [0x01] GOTO 0x0757
173: 0x0602 [0x02] IF !(ExtData[1]->WorkLocal[4] == 10*) GOTO 0x0612
174: 0x060A [0x03] ExtData[1]->WorkLocal[21] = 0*
175: 0x060F [0x01] GOTO 0x0757
176: 0x0612 [0x02] IF !(ExtData[1]->WorkLocal[4] == 11*) GOTO 0x0622
177: 0x061A [0x03] ExtData[1]->WorkLocal[21] = 0*
178: 0x061F [0x01] GOTO 0x0757
179: 0x0622 [0x02] IF !(ExtData[1]->WorkLocal[4] == 12*) GOTO 0x0632
180: 0x062A [0x03] ExtData[1]->WorkLocal[21] = 0*
181: 0x062F [0x01] GOTO 0x0757
182: 0x0632 [0x02] IF !(ExtData[1]->WorkLocal[4] == 13*) GOTO 0x0642
183: 0x063A [0x03] ExtData[1]->WorkLocal[21] = 0*
184: 0x063F [0x01] GOTO 0x0757
185: 0x0642 [0x02] IF !(ExtData[1]->WorkLocal[4] == 14*) GOTO 0x0652
186: 0x064A [0x03] ExtData[1]->WorkLocal[21] = 0*
187: 0x064F [0x01] GOTO 0x0757
188: 0x0652 [0x02] IF !(ExtData[1]->WorkLocal[4] == 15*) GOTO 0x0662
189: 0x065A [0x03] ExtData[1]->WorkLocal[21] = 0*
190: 0x065F [0x01] GOTO 0x0757
191: 0x0662 [0x02] IF !(ExtData[1]->WorkLocal[4] == 16*) GOTO 0x0672
192: 0x066A [0x03] ExtData[1]->WorkLocal[21] = 0*
193: 0x066F [0x01] GOTO 0x0757
194: 0x0672 [0x02] IF !(ExtData[1]->WorkLocal[4] == 17*) GOTO 0x0682
195: 0x067A [0x03] ExtData[1]->WorkLocal[21] = 0*
196: 0x067F [0x01] GOTO 0x0757
197: 0x0682 [0x02] IF !(ExtData[1]->WorkLocal[4] == 18*) GOTO 0x0692
198: 0x068A [0x03] ExtData[1]->WorkLocal[21] = 0*
199: 0x068F [0x01] GOTO 0x0757
200: 0x0692 [0x02] IF !(ExtData[1]->WorkLocal[4] == 19*) GOTO 0x06A2
201: 0x069A [0x03] ExtData[1]->WorkLocal[21] = 0*
202: 0x069F [0x01] GOTO 0x0757
203: 0x06A2 [0x02] IF !(ExtData[1]->WorkLocal[4] == 20*) GOTO 0x06B2
204: 0x06AA [0x03] ExtData[1]->WorkLocal[21] = 0*
205: 0x06AF [0x01] GOTO 0x0757
206: 0x06B2 [0x02] IF !(ExtData[1]->WorkLocal[4] == 21*) GOTO 0x06C2
207: 0x06BA [0x03] ExtData[1]->WorkLocal[21] = 0*
208: 0x06BF [0x01] GOTO 0x0757
209: 0x06C2 [0x02] IF !(ExtData[1]->WorkLocal[4] == 22*) GOTO 0x06D2
210: 0x06CA [0x03] ExtData[1]->WorkLocal[21] = 0*
211: 0x06CF [0x01] GOTO 0x0757
212: 0x06D2 [0x02] IF !(ExtData[1]->WorkLocal[4] == 23*) GOTO 0x06E2
213: 0x06DA [0x03] ExtData[1]->WorkLocal[21] = 0*
214: 0x06DF [0x01] GOTO 0x0757
215: 0x06E2 [0x02] IF !(ExtData[1]->WorkLocal[4] == 24*) GOTO 0x06F2
216: 0x06EA [0x03] ExtData[1]->WorkLocal[21] = 0*
217: 0x06EF [0x01] GOTO 0x0757
218: 0x06F2 [0x02] IF !(ExtData[1]->WorkLocal[4] == 25*) GOTO 0x0702
219: 0x06FA [0x03] ExtData[1]->WorkLocal[21] = 0*
220: 0x06FF [0x01] GOTO 0x0757
221: 0x0702 [0x02] IF !(ExtData[1]->WorkLocal[4] == 26*) GOTO 0x0712
222: 0x070A [0x03] ExtData[1]->WorkLocal[21] = 0*
223: 0x070F [0x01] GOTO 0x0757
224: 0x0712 [0x02] IF !(ExtData[1]->WorkLocal[4] == 27*) GOTO 0x0722
225: 0x071A [0x03] ExtData[1]->WorkLocal[21] = 0*
226: 0x071F [0x01] GOTO 0x0757
227: 0x0722 [0x02] IF !(ExtData[1]->WorkLocal[4] == 28*) GOTO 0x0732
228: 0x072A [0x03] ExtData[1]->WorkLocal[21] = 0*
229: 0x072F [0x01] GOTO 0x0757
230: 0x0732 [0x02] IF !(ExtData[1]->WorkLocal[4] == 29*) GOTO 0x0742
231: 0x073A [0x03] ExtData[1]->WorkLocal[21] = 0*
232: 0x073F [0x01] GOTO 0x0757
233: 0x0742 [0x02] IF !(ExtData[1]->WorkLocal[4] == 30*) GOTO 0x0752
234: 0x074A [0x03] ExtData[1]->WorkLocal[21] = 0*
235: 0x074F [0x01] GOTO 0x0757
236: 0x0752 [0x03] ExtData[1]->WorkLocal[21] = 0*

SUBROUTINE_0757:
237: 0x0757 [0x02] IF !(ExtData[1]->WorkLocal[2] == 1*) GOTO 0x0772
238: 0x075F [0x5C] MUSIC_CONTROL: Set Idle (Day) music to song 193*
239: 0x0763 [0x5C] MUSIC_CONTROL: Set Idle (Night) music to song 193*
240: 0x0767 [0x5C] MUSIC_CONTROL: Set Combat (Solo) music to song 193*
241: 0x076B [0x5C] MUSIC_CONTROL: Set Combat (Party) music to song 193*
242: 0x076F [0x01] GOTO 0x078A
243: 0x0772 [0x02] IF !(ExtData[1]->WorkLocal[21] == 0*) GOTO 0x078A
244: 0x077A [0x5C] MUSIC_CONTROL: Set Idle (Day) music to song 193*
245: 0x077E [0x5C] MUSIC_CONTROL: Set Idle (Night) music to song 193*
246: 0x0782 [0x5C] MUSIC_CONTROL: Set Combat (Solo) music to song 193*
247: 0x0786 [0x5C] MUSIC_CONTROL: Set Combat (Party) music to song 193*

SUBROUTINE_078A:
248: 0x078A [0x02] IF !(ExtData[1]->WorkLocal[2] == 0*) GOTO 0x0798
249: 0x0792 [0x1A] CALL_SUBROUTINE(address=0x1022)
250: 0x0795 [0x01] GOTO 0x07D1
251: 0x0798 [0x6C] FADE_ENTITY_COLOR(entity_id=LocalPlayer, end_alpha=0*, fade_time=1*)
252: 0x07A1 [0x62] LOAD_EVENT_SCHEDULER: Load scheduler "main" with entities [LocalPlayer, LocalPlayer], work=[2*, 0*]
253: 0x07B2 [0x45] LOAD_SCHEDULED_TASK: Load scheduler "ovl1" with entities [LocalPlayer, LocalPlayer], work=[200*, 0*]
254: 0x07C3 [0x46] CAMERA_CONTROL: Query status
255: 0x07C5 [0x12] 0x0200 = rand()
256: 0x07C8 [0x12] ExtData[1]->WorkLocal[0] = rand()
257: 0x07CB [0x80] LOAD_WAIT(entity=Unknown NPC (ID: 1174917376/0x4607D100))
258: 0x07D0 [0x00] END_REQSTACK()

SUBROUTINE_07D1:
259: 0x07D1 [0x03] Work_Zone[1] = 100*
260: 0x07D6 [0x07] Work_Zone[1] += ExtData[1]->WorkLocal[3]
261: 0x07DB [0x01] GOTO 0x07F8

SUBROUTINE_07E1:
262: 0x07E1 [0x0B] ExtData[1]->WorkLocal[0]++
263: 0x07E4 [0x02] IF !(0* == 1*) GOTO 0x07F1
264: 0x07EC [0x03] ExtData[1]->WorkLocal[0] = 4*
265: 0x07F1 [0x01] GOTO 0x01A4
266: 0x07F4 [0x48] [System] [7230*]:
    → "You cannot enter the battlefield at present. Please wait a little longer."
267: 0x07F7 [0x23] WAIT_FOR_DIALOG_INTERACTION

SUBROUTINE_07F8:
268: 0x07F8 [0x45] LOAD_SCHEDULED_TASK: Load scheduler "whi1" with entities [LocalPlayer, LocalPlayer], work=[201*, 0*]
269: 0x0809 [0x45] LOAD_SCHEDULED_TASK: Load scheduler "blof" with entities [LocalPlayer, LocalPlayer], work=[200*, 0*]
270: 0x081A [0x45] LOAD_SCHEDULED_TASK: Load scheduler "fdi0" with entities [LocalPlayer, LocalPlayer], work=[200*, 0*]

SUBROUTINE_082B:
271: 0x082B [0x02] IF !(ExtData[1]->WorkLocal[7] == 1*) GOTO 0x0843
272: 0x0833 [0x5C] MUSIC_CONTROL: Set Idle (Day) music to song 0*
273: 0x0837 [0x5C] MUSIC_CONTROL: Set Idle (Night) music to song 0*
274: 0x083B [0x5C] MUSIC_CONTROL: Set Combat (Solo) music to song 193*
275: 0x083F [0x5C] MUSIC_CONTROL: Set Combat (Party) music to song 193*
276: 0x0843 [0x21] END_EVENT
277: 0x0844 [0x00] END_REQSTACK()

SUBROUTINE_0845:
278: 0x0845 [0x1B] RETURN
```

#### Data or dead code:

```
# Dead code (unreachable instructions):
     0x0070 [0x01] GOTO 0x0145
# Dead code (unreachable instructions):
     0x0116 [0x01] GOTO 0x011E
# Dead code (unreachable instructions):
     0x0142 [0x01] GOTO 0x0145
# Dead code (unreachable instructions):
     0x025C [0x01] GOTO 0x07E1
     0x026E [0x01] GOTO 0x07E1
# Dead code (unreachable instructions):
     0x0470 [0x01] GOTO 0x07E1
     0x047E [0x01] GOTO 0x07E1
# Dead code (unreachable instructions):
     0x07DE [0x01] GOTO 0x07E1
```

### Event 32002

#### Metadata

| Field        | Value     |
|--------------|-----------|
| Entrypoint   | 0x0846    |
| Data Size    | 494 bytes |
| Instructions | 83        |

```
      00 01 02 03 04 05 06 07  08 09 0A 0B 0C 0D 0E 0F
      -- -- -- -- -- -- -- --  -- -- -- -- -- -- -- --
0840:                   03 05  00 06 10 03 21 00 07 10        ......!...
0850: 03 20 00 08 10 20 01 42  3B F0 FF FF 7F 20 10 21  . ... .B;.... .!
0860: 10 22 10 3A F0 FF FF 7F  23 10 45 0E 80 F0 FF FF  .".:....#.E.....
0870: 7F F0 FF FF 7F 66 64 6F  31 00 80 55 0E 80 F0 FF  .....fdo1..U....
0880: FF 7F F0 FF FF 7F 66 64  6F 31 02 00 80 05 80 00  ......fdo1......
0890: F1 08 02 05 00 05 80 80  A9 08 47 00 00 80 00 80  ..........G.....
08A0: 00 80 00 80 47 01 01 EE  08 02 05 00 09 80 80 C0  ....G...........
08B0: 08 47 00 00 80 00 80 00  80 00 80 47 01 01 EE 08  .G.........G....
08C0: 02 05 00 0A 80 80 D7 08  47 00 00 80 00 80 00 80  ........G.......
08D0: 00 80 47 01 01 EE 08 02  05 00 0B 80 80 EE 08 47  ..G............G
08E0: 00 00 80 00 80 00 80 00  80 47 01 01 EE 08 01 FA  .........G......
08F0: 09 02 20 00 36 80 80 7B  09 02 21 00 00 80 80 10  .. .6..{..!.....
0900: 09 47 00 37 80 38 80 39  80 3A 80 47 01 01 78 09  .G.7.8.9.:.G..x.
0910: 02 21 00 05 80 80 27 09  47 00 3B 80 3C 80 3D 80  .!....'.G.;.<.=.
0920: 3E 80 47 01 01 78 09 02  21 00 09 80 80 3E 09 47  >.G..x..!....>.G
0930: 00 3F 80 40 80 41 80 42  80 47 01 01 78 09 02 21  .?.@.A.B.G..x..!
0940: 00 0A 80 80 55 09 47 00  43 80 44 80 45 80 46 80  ....U.G.C.D.E.F.
0950: 47 01 01 78 09 02 21 00  0B 80 80 6C 09 47 00 47  G..x..!....l.G.G
0960: 80 48 80 49 80 4A 80 47  01 01 78 09 47 00 4B 80  .H.I.J.G..x.G.K.
0970: 4C 80 4D 80 4E 80 47 01  01 FA 09 02 20 00 18 80  L.M.N.G..... ...
0980: 80 EE 09 02 21 00 05 80  80 9A 09 47 00 4F 80 50  ....!......G.O.P
0990: 80 51 80 52 80 47 01 01  EB 09 02 21 00 09 80 80  .Q.R.G.....!....
09A0: B1 09 47 00 53 80 54 80  55 80 56 80 47 01 01 EB  ..G.S.T.U.V.G...
09B0: 09 02 21 00 0A 80 80 C8  09 47 00 57 80 58 80 59  ..!......G.W.X.Y
09C0: 80 5A 80 47 01 01 EB 09  02 21 00 0B 80 80 DF 09  .Z.G.....!......
09D0: 47 00 5B 80 5C 80 5D 80  5E 80 47 01 01 EB 09 47  G.[.\.].^.G....G
09E0: 00 4B 80 4C 80 4D 80 4E  80 47 01 01 FA 09 47 00  .K.L.M.N.G....G.
09F0: 4B 80 4C 80 4D 80 4E 80  47 01 38 0F 80 1A 9E 23  K.L.M.N.G.8....#
0A00: 45 35 80 F0 FF FF 7F F0  FF FF 7F 77 68 69 31 00  E5.........whi1.
0A10: 80 45 0E 80 F0 FF FF 7F  F0 FF FF 7F 62 6C 6F 66  .E..........blof
0A20: 00 80 5C 00 00 80 5C 01  00 80 5C 02 33 80 5C 03  ..\...\...\.3.\.
0A30: 33 80 21 00                                       3.!.            
```

#### Opcodes

```
  0: 0x0846 [0x03] ExtData[1]->WorkLocal[5] = Work_Zone[6]
  1: 0x084B [0x03] ExtData[1]->WorkLocal[33] = Work_Zone[7]
  2: 0x0850 [0x03] ExtData[1]->WorkLocal[32] = Work_Zone[8]
  3: 0x0855 [0x20] SET_CLI_EVENT_UC_FLAG: Lock player control
  4: 0x0857 [0x42] SET_CLI_EVENT_CANCEL_DATA()
  5: 0x0858 [0x3B] GET_ENTITY_POSITION(entity=LocalPlayer, x_destination=Work_Zone[32], y_destination=Work_Zone[33], z_destination=Work_Zone[34])
  6: 0x0863 [0x3A] CONVERT_YAW_TO_BYTE(entity=LocalPlayer, result_destination=Work_Zone[35])
  7: 0x086A [0x45] LOAD_SCHEDULED_TASK: Load scheduler "fdo1" with entities [LocalPlayer, LocalPlayer], work=[200*, 0*]
  8: 0x087B [0x55] WAIT_LOAD_SCHEDULER: Wait for scheduler "fdo1" with entities [LocalPlayer, LocalPlayer], work=200*
  9: 0x088A [0x02] IF !(0* == 1*) GOTO 0x08F1
 10: 0x0892 [0x02] IF !(ExtData[1]->WorkLocal[5] == 1*) GOTO 0x08A9
 11: 0x089A [0x47] UPDATE_PLAYER_POS(0.000*, 0.000*, 0.000*, yaw=0.0°*)
 12: 0x08A4 [0x47] WAIT_PLAYER_POS_UPDATE
 13: 0x08A6 [0x01] GOTO 0x08EE
 14: 0x08A9 [0x02] IF !(ExtData[1]->WorkLocal[5] == 2*) GOTO 0x08C0
 15: 0x08B1 [0x47] UPDATE_PLAYER_POS(0.000*, 0.000*, 0.000*, yaw=0.0°*)
 16: 0x08BB [0x47] WAIT_PLAYER_POS_UPDATE
 17: 0x08BD [0x01] GOTO 0x08EE
 18: 0x08C0 [0x02] IF !(ExtData[1]->WorkLocal[5] == 3*) GOTO 0x08D7
 19: 0x08C8 [0x47] UPDATE_PLAYER_POS(0.000*, 0.000*, 0.000*, yaw=0.0°*)
 20: 0x08D2 [0x47] WAIT_PLAYER_POS_UPDATE
 21: 0x08D4 [0x01] GOTO 0x08EE
 22: 0x08D7 [0x02] IF !(ExtData[1]->WorkLocal[5] == 4*) GOTO 0x08EE
 23: 0x08DF [0x47] UPDATE_PLAYER_POS(0.000*, 0.000*, 0.000*, yaw=0.0°*)
 24: 0x08E9 [0x47] WAIT_PLAYER_POS_UPDATE
 25: 0x08EB [0x01] GOTO 0x08EE

SUBROUTINE_08EE:
 26: 0x08EE [0x01] GOTO 0x09FA
 27: 0x08F1 [0x02] IF !(ExtData[1]->WorkLocal[32] == 180*) GOTO 0x097B
 28: 0x08F9 [0x02] IF !(ExtData[1]->WorkLocal[33] == 0*) GOTO 0x0910
 29: 0x0901 [0x47] UPDATE_PLAYER_POS(-605.141*, 479.929*, -22.681*, yaw=87.2°*)
 30: 0x090B [0x47] WAIT_PLAYER_POS_UPDATE
 31: 0x090D [0x01] GOTO 0x0978
 32: 0x0910 [0x02] IF !(ExtData[1]->WorkLocal[33] == 1*) GOTO 0x0927
 33: 0x0918 [0x47] UPDATE_PLAYER_POS(-262.589*, 377.857*, -137.313*, yaw=305.3°*)
 34: 0x0922 [0x47] WAIT_PLAYER_POS_UPDATE
 35: 0x0924 [0x01] GOTO 0x0978
 36: 0x0927 [0x02] IF !(ExtData[1]->WorkLocal[33] == 2*) GOTO 0x093E
 37: 0x092F [0x47] UPDATE_PLAYER_POS(18.348*, 486.940*, -224.334*, yaw=17.1°*)
 38: 0x0939 [0x47] WAIT_PLAYER_POS_UPDATE
 39: 0x093B [0x01] GOTO 0x0978
 40: 0x093E [0x02] IF !(ExtData[1]->WorkLocal[33] == 3*) GOTO 0x0955
 41: 0x0946 [0x47] UPDATE_PLAYER_POS(231.593*, 360.094*, -173.572*, yaw=160.8°*)
 42: 0x0950 [0x47] WAIT_PLAYER_POS_UPDATE
 43: 0x0952 [0x01] GOTO 0x0978
 44: 0x0955 [0x02] IF !(ExtData[1]->WorkLocal[33] == 4*) GOTO 0x096C
 45: 0x095D [0x47] UPDATE_PLAYER_POS(553.664*, 523.939*, -38.205*, yaw=233.9°*)
 46: 0x0967 [0x47] WAIT_PLAYER_POS_UPDATE
 47: 0x0969 [0x01] GOTO 0x0978
 48: 0x096C [0x47] UPDATE_PLAYER_POS(-540.005*, -510.305*, 1.373*, yaw=92.8°*)
 49: 0x0976 [0x47] WAIT_PLAYER_POS_UPDATE

SUBROUTINE_0978:
 50: 0x0978 [0x01] GOTO 0x09FA
 51: 0x097B [0x02] IF !(ExtData[1]->WorkLocal[32] == 6*) GOTO 0x09EE
 52: 0x0983 [0x02] IF !(ExtData[1]->WorkLocal[33] == 1*) GOTO 0x099A
 53: 0x098B [0x47] UPDATE_PLAYER_POS(-875.117*, -43.892*, -48.084*, yaw=45.1°*)
 54: 0x0995 [0x47] WAIT_PLAYER_POS_UPDATE
 55: 0x0997 [0x01] GOTO 0x09EB
 56: 0x099A [0x02] IF !(ExtData[1]->WorkLocal[33] == 2*) GOTO 0x09B1
 57: 0x09A2 [0x47] UPDATE_PLAYER_POS(-755.499*, 563.947*, -112.035*, yaw=313.5°*)
 58: 0x09AC [0x47] WAIT_PLAYER_POS_UPDATE
 59: 0x09AE [0x01] GOTO 0x09EB
 60: 0x09B1 [0x02] IF !(ExtData[1]->WorkLocal[33] == 3*) GOTO 0x09C8
 61: 0x09B9 [0x47] UPDATE_PLAYER_POS(123.251*, 754.209*, -172.124*, yaw=38.7°*)
 62: 0x09C3 [0x47] WAIT_PLAYER_POS_UPDATE
 63: 0x09C5 [0x01] GOTO 0x09EB
 64: 0x09C8 [0x02] IF !(ExtData[1]->WorkLocal[33] == 4*) GOTO 0x09DF
 65: 0x09D0 [0x47] UPDATE_PLAYER_POS(-516.404*, -803.323*, 24.206*, yaw=38.4°*)
 66: 0x09DA [0x47] WAIT_PLAYER_POS_UPDATE
 67: 0x09DC [0x01] GOTO 0x09EB
 68: 0x09DF [0x47] UPDATE_PLAYER_POS(-540.005*, -510.305*, 1.373*, yaw=92.8°*)
 69: 0x09E9 [0x47] WAIT_PLAYER_POS_UPDATE

SUBROUTINE_09EB:
 70: 0x09EB [0x01] GOTO 0x09FA
 71: 0x09EE [0x47] UPDATE_PLAYER_POS(-540.005*, -510.305*, 1.373*, yaw=92.8°*)
 72: 0x09F8 [0x47] WAIT_PLAYER_POS_UPDATE

SUBROUTINE_09FA:
 73: 0x09FA [0x38] SET_CLIENT_EVENT_MODE(mode=19*)
 74: 0x09FD [0x1A] CALL_SUBROUTINE(address=0x239E)
 75: 0x0A00 [0x45] LOAD_SCHEDULED_TASK: Load scheduler "whi1" with entities [LocalPlayer, LocalPlayer], work=[201*, 0*]
 76: 0x0A11 [0x45] LOAD_SCHEDULED_TASK: Load scheduler "blof" with entities [LocalPlayer, LocalPlayer], work=[200*, 0*]
 77: 0x0A22 [0x5C] MUSIC_CONTROL: Set Idle (Day) music to song 0*
 78: 0x0A26 [0x5C] MUSIC_CONTROL: Set Idle (Night) music to song 0*
 79: 0x0A2A [0x5C] MUSIC_CONTROL: Set Combat (Solo) music to song 193*
 80: 0x0A2E [0x5C] MUSIC_CONTROL: Set Combat (Party) music to song 193*
 81: 0x0A32 [0x21] END_EVENT
 82: 0x0A33 [0x00] END_REQSTACK()
```

### Event 32001

#### Metadata

| Field        | Value      |
|--------------|------------|
| Entrypoint   | 0x0A34     |
| Data Size    | 1060 bytes |
| Instructions | 183        |

```
      00 01 02 03 04 05 06 07  08 09 0A 0B 0C 0D 0E 0F
      -- -- -- -- -- -- -- --  -- -- -- -- -- -- -- --
0A30:             79 00 F0 FF  FF 7F F0 FF FF 7F 03 21      y..........!
0A40: 00 02 10 03 1A 00 03 10  03 1B 00 05 10 03 20 00  .............. .
0A50: 06 10 03 19 00 07 10 03  17 00 08 10 02 17 00 0A  ................
0A60: 80 04 69 0A 03 17 00 00  80 03 1C 00 09 10 20 01  ..i........... .
0A70: 42 3B F0 FF FF 7F 20 10  21 10 22 10 3A F0 FF FF  B;.... .!.".:...
0A80: 7F 23 10 02 20 00 36 80  01 8E 0A 1C 5F 80 45 35  .#.. .6....._.E5
0A90: 80 F0 FF FF 7F F0 FF FF  7F 77 68 69 31 00 80 45  .........whi1..E
0AA0: 0E 80 F0 FF FF 7F F0 FF  FF 7F 62 6C 6F 66 00 80  ..........blof..
0AB0: 45 0E 80 F0 FF FF 7F F0  FF FF 7F 66 64 6F 31 00  E..........fdo1.
0AC0: 80 55 0E 80 F0 FF FF 7F  F0 FF FF 7F 66 64 6F 31  .U..........fdo1
0AD0: 6C F0 FF FF 7F 60 80 05  80 06 01 10 02 17 00 00  l....`..........
0AE0: 80 03 E7 0A 01 35 0C 02  20 00 36 80 80 71 0B 02  .....5.. .6..q..
0AF0: 21 00 00 80 80 06 0B 47  00 61 80 62 80 63 80 64  !......G.a.b.c.d
0B00: 80 47 01 01 6E 0B 02 21  00 05 80 80 1D 0B 47 00  .G..n..!......G.
0B10: 65 80 66 80 67 80 68 80  47 01 01 6E 0B 02 21 00  e.f.g.h.G..n..!.
0B20: 09 80 80 34 0B 47 00 69  80 6A 80 6B 80 6C 80 47  ...4.G.i.j.k.l.G
0B30: 01 01 6E 0B 02 21 00 0A  80 80 4B 0B 47 00 6D 80  ..n..!....K.G.m.
0B40: 6E 80 6F 80 70 80 47 01  01 6E 0B 02 21 00 0B 80  n.o.p.G..n..!...
0B50: 80 62 0B 47 00 71 80 72  80 73 80 74 80 47 01 01  .b.G.q.r.s.t.G..
0B60: 6E 0B 47 00 4B 80 4C 80  4D 80 4E 80 47 01 01 35  n.G.K.L.M.N.G..5
0B70: 0C 02 20 00 75 80 80 9F  0B 02 19 00 00 80 80 90  .. .u...........
0B80: 0B 47 00 4B 80 4C 80 4D  80 4E 80 47 01 01 9C 0B  .G.K.L.M.N.G....
0B90: 47 00 76 80 77 80 78 80  79 80 47 01 01 35 0C 02  G.v.w.x.y.G..5..
0BA0: 20 00 7A 80 80 CD 0B 02  19 00 0B 80 80 BE 0B 47   .z............G
0BB0: 00 7B 80 7C 80 7D 80 7E  80 47 01 01 CA 0B 47 00  .{.|.}.~.G....G.
0BC0: 4B 80 4C 80 4D 80 4E 80  47 01 01 35 0C 02 20 00  K.L.M.N.G..5.. .
0BD0: 7F 80 80 FB 0B 02 19 00  0B 80 80 EC 0B 47 00 80  .............G..
0BE0: 80 81 80 82 80 83 80 47  01 01 F8 0B 47 00 4B 80  .......G....G.K.
0BF0: 4C 80 4D 80 4E 80 47 01  01 35 0C 02 20 00 84 80  L.M.N.G..5.. ...
0C00: 80 29 0C 02 19 00 0A 80  80 1A 0C 47 00 85 80 86  .).........G....
0C10: 80 87 80 88 80 47 01 01  26 0C 47 00 4B 80 4C 80  .....G..&.G.K.L.
0C20: 4D 80 4E 80 47 01 01 35  0C 47 00 4B 80 4C 80 4D  M.N.G..5.G.K.L.M
0C30: 80 4E 80 47 01 38 0F 80  02 17 00 09 80 00 43 0C  .N.G.8........C.
0C40: 01 5E 0C 02 17 00 05 80  00 0E 0D 1C 01 80 24 32  .^............$2
0C50: 80 05 80 00 80 25 02 00  10 00 80 00 0E 0D 02 20  .....%......... 
0C60: 00 36 80 00 CA 0C 02 21  00 00 80 80 78 0C 36 61  .6.....!....x.6a
0C70: 80 62 80 63 80 01 C7 0C  02 21 00 05 80 80 8A 0C  .b.c.....!......
0C80: 36 65 80 66 80 67 80 01  C7 0C 02 21 00 09 80 80  6e.f.g.....!....
0C90: 9C 0C 36 69 80 6A 80 6B  80 01 C7 0C 02 21 00 0A  ..6i.j.k.....!..
0CA0: 80 80 AE 0C 36 6D 80 6E  80 6F 80 01 C7 0C 02 21  ....6m.n.o.....!
0CB0: 00 0B 80 80 C0 0C 36 71  80 72 80 73 80 01 C7 0C  ......6q.r.s....
0CC0: 36 4B 80 4C 80 4D 80 01  D3 0C 37 4B 80 4C 80 4D  6K.L.M....7K.L.M
0CD0: 80 4E 80 80 F0 FF FF 7F  62 09 80 F0 FF FF 7F F0  .N......b.......
0CE0: FF FF 7F 6D 61 69 6E 00  80 45 0E 80 F0 FF FF 7F  ...main..E......
0CF0: F0 FF FF 7F 66 64 69 32  00 80 46 02 12 00 02 12  ....fdi2..F.....
0D00: 00 00 80 00 08 0D 46 00  01 50 0D 01 0E 0D 02 17  ......F..P......
0D10: 00 04 80 04 42 0D 5C 00  33 80 5C 01 33 80 5C 02  ....B.\.3.\.3.\.
0D20: 33 80 5C 03 33 80 02 19  00 0A 80 80 41 0D 5C 00  3.\.3.......A.\.
0D30: 00 80 5C 01 00 80 5C 02  00 80 5C 03 00 80 01 41  ..\...\...\....A
0D40: 0D 9A 1A 4B 1A 02 17 00  00 80 03 50 0D 01 F0 0D  ...K.......P....
0D50: 02 20 00 89 80 80 5B 0D  01 5B 0D 02 20 00 1F 80  . ....[..[.. ...
0D60: 80 66 0D 01 F0 0D 02 20  00 0F 80 80 71 0D 01 F0  .f..... ....q...
0D70: 0D 02 20 00 21 80 80 7C  0D 01 F0 0D 02 20 00 23  .. .!..|..... .#
0D80: 80 80 87 0D 01 F0 0D 03  05 10 1B 00 02 05 10 00  ................
0D90: 80 02 F0 0D 02 05 10 2E  80 04 AF 0D 3F 04 10 05  ............?...
0DA0: 10 2E 80 15 05 10 2E 80  48 8A 80 23 01 B3 0D 48  ........H..#...H
0DB0: 8B 80 23 02 1B 00 1A 00  05 C7 0D 03 07 10 19 00  ..#.............
0DC0: 48 8C 80 23 01 F0 0D 02  1A 00 2E 80 04 E7 0D 03  H..#............
0DD0: 05 10 1A 00 3F 04 10 05  10 2E 80 15 05 10 2E 80  ....?...........
0DE0: 48 8D 80 23 01 F0 0D 03  05 10 1A 00 48 8E 80 23  H..#........H..#
0DF0: 02 18 00 00 80 00 08 0E  5C 00 00 80 5C 01 00 80  ........\...\...
0E00: 5C 02 33 80 5C 03 33 80  02 17 00 00 80 03 31 0E  \.3.\.3.......1.
0E10: 45 0E 80 F0 FF FF 7F F0  FF FF 7F 66 64 69 32 00  E..........fdi2.
0E20: 80 5C 00 00 80 5C 01 00  80 5C 02 33 80 5C 03 33  .\...\...\.3.\.3
0E30: 80 06 18 00 45 35 80 F0  FF FF 7F F0 FF FF 7F 77  ....E5.........w
0E40: 68 69 31 00 80 45 0E 80  F0 FF FF 7F F0 FF FF 7F  hi1..E..........
0E50: 62 6C 6F 66 00 80 21 00                           blof..!.        
```

#### Opcodes

```
  0: 0x0A34 [0x79] LocalPlayer looks at LocalPlayer (Basic look)
  1: 0x0A3E [0x03] ExtData[1]->WorkLocal[33] = Work_Zone[2]
  2: 0x0A43 [0x03] ExtData[1]->WorkLocal[26] = Work_Zone[3]
  3: 0x0A48 [0x03] ExtData[1]->WorkLocal[27] = Work_Zone[5]
  4: 0x0A4D [0x03] ExtData[1]->WorkLocal[32] = Work_Zone[6]
  5: 0x0A52 [0x03] ExtData[1]->WorkLocal[25] = Work_Zone[7]
  6: 0x0A57 [0x03] ExtData[1]->WorkLocal[23] = Work_Zone[8]
  7: 0x0A5C [0x02] IF !(ExtData[1]->WorkLocal[23] < 3*) GOTO 0x0A69
  8: 0x0A64 [0x03] ExtData[1]->WorkLocal[23] = 0*
  9: 0x0A69 [0x03] ExtData[1]->WorkLocal[28] = Work_Zone[9]
 10: 0x0A6E [0x20] SET_CLI_EVENT_UC_FLAG: Lock player control
 11: 0x0A70 [0x42] SET_CLI_EVENT_CANCEL_DATA()
 12: 0x0A71 [0x3B] GET_ENTITY_POSITION(entity=LocalPlayer, x_destination=Work_Zone[32], y_destination=Work_Zone[33], z_destination=Work_Zone[34])
 13: 0x0A7C [0x3A] CONVERT_YAW_TO_BYTE(entity=LocalPlayer, result_destination=Work_Zone[35])
 14: 0x0A83 [0x02] IF !(ExtData[1]->WorkLocal[32] == 180*) GOTO 0x0A8E
 15: 0x0A8B [0x1C] WAIT(300* ticks)
 16: 0x0A8E [0x45] LOAD_SCHEDULED_TASK: Load scheduler "whi1" with entities [LocalPlayer, LocalPlayer], work=[201*, 0*]
 17: 0x0A9F [0x45] LOAD_SCHEDULED_TASK: Load scheduler "blof" with entities [LocalPlayer, LocalPlayer], work=[200*, 0*]
 18: 0x0AB0 [0x45] LOAD_SCHEDULED_TASK: Load scheduler "fdo1" with entities [LocalPlayer, LocalPlayer], work=[200*, 0*]
 19: 0x0AC1 [0x55] WAIT_LOAD_SCHEDULER: Wait for scheduler "fdo1" with entities [LocalPlayer, LocalPlayer], work=200*
 20: 0x0AD0 [0x6C] FADE_ENTITY_COLOR(entity_id=LocalPlayer, end_alpha=128*, fade_time=1*)
 21: 0x0AD9 [0x06] Work_Zone[1] = 0
 22: 0x0ADC [0x02] IF !(ExtData[1]->WorkLocal[23] >= 0*) GOTO 0x0AE7
 23: 0x0AE4 [0x01] GOTO 0x0C35
 24: 0x0AE7 [0x02] IF !(ExtData[1]->WorkLocal[32] == 180*) GOTO 0x0B71
 25: 0x0AEF [0x02] IF !(ExtData[1]->WorkLocal[33] == 0*) GOTO 0x0B06
 26: 0x0AF7 [0x47] UPDATE_PLAYER_POS(-618.329*, -643.868*, -25.805*, yaw=330.5°*)
 27: 0x0B01 [0x47] WAIT_PLAYER_POS_UPDATE
 28: 0x0B03 [0x01] GOTO 0x0B6E
 29: 0x0B06 [0x02] IF !(ExtData[1]->WorkLocal[33] == 1*) GOTO 0x0B1D
 30: 0x0B0E [0x47] UPDATE_PLAYER_POS(-332.163*, -441.914*, -95.055*, yaw=330.5°*)
 31: 0x0B18 [0x47] WAIT_PLAYER_POS_UPDATE
 32: 0x0B1A [0x01] GOTO 0x0B6E
 33: 0x0B1D [0x02] IF !(ExtData[1]->WorkLocal[33] == 2*) GOTO 0x0B34
 34: 0x0B25 [0x47] UPDATE_PLAYER_POS(-12.464*, -648.377*, -194.629*, yaw=331.3°*)
 35: 0x0B2F [0x47] WAIT_PLAYER_POS_UPDATE
 36: 0x0B31 [0x01] GOTO 0x0B6E
 37: 0x0B34 [0x02] IF !(ExtData[1]->WorkLocal[33] == 3*) GOTO 0x0B4B
 38: 0x0B3C [0x47] UPDATE_PLAYER_POS(323.381*, -443.793*, -108.440*, yaw=329.1°*)
 39: 0x0B46 [0x47] WAIT_PLAYER_POS_UPDATE
 40: 0x0B48 [0x01] GOTO 0x0B6E
 41: 0x0B4B [0x02] IF !(ExtData[1]->WorkLocal[33] == 4*) GOTO 0x0B62
 42: 0x0B53 [0x47] UPDATE_PLAYER_POS(599.907*, -676.969*, -22.473*, yaw=330.7°*)
 43: 0x0B5D [0x47] WAIT_PLAYER_POS_UPDATE
 44: 0x0B5F [0x01] GOTO 0x0B6E
 45: 0x0B62 [0x47] UPDATE_PLAYER_POS(-540.005*, -510.305*, 1.373*, yaw=92.8°*)
 46: 0x0B6C [0x47] WAIT_PLAYER_POS_UPDATE

SUBROUTINE_0B6E:
 47: 0x0B6E [0x01] GOTO 0x0C35
 48: 0x0B71 [0x02] IF !(ExtData[1]->WorkLocal[32] == 168*) GOTO 0x0B9F
 49: 0x0B79 [0x02] IF !(ExtData[1]->WorkLocal[25] == 0*) GOTO 0x0B90
 50: 0x0B81 [0x47] UPDATE_PLAYER_POS(-540.005*, -510.305*, 1.373*, yaw=92.8°*)
 51: 0x0B8B [0x47] WAIT_PLAYER_POS_UPDATE
 52: 0x0B8D [0x01] GOTO 0x0B9C
 53: 0x0B90 [0x47] UPDATE_PLAYER_POS(200.059*, -21.958*, -0.250*, yaw=91.5°*)
 54: 0x0B9A [0x47] WAIT_PLAYER_POS_UPDATE

SUBROUTINE_0B9C:
 55: 0x0B9C [0x01] GOTO 0x0C35
 56: 0x0B9F [0x02] IF !(ExtData[1]->WorkLocal[32] == 202*) GOTO 0x0BCD
 57: 0x0BA7 [0x02] IF !(ExtData[1]->WorkLocal[25] == 4*) GOTO 0x0BBE
 58: 0x0BAF [0x47] UPDATE_PLAYER_POS(538.604*, 501.900*, -13.942*, yaw=286.5°*)
 59: 0x0BB9 [0x47] WAIT_PLAYER_POS_UPDATE
 60: 0x0BBB [0x01] GOTO 0x0BCA
 61: 0x0BBE [0x47] UPDATE_PLAYER_POS(-540.005*, -510.305*, 1.373*, yaw=92.8°*)
 62: 0x0BC8 [0x47] WAIT_PLAYER_POS_UPDATE

SUBROUTINE_0BCA:
 63: 0x0BCA [0x01] GOTO 0x0C35
 64: 0x0BCD [0x02] IF !(ExtData[1]->WorkLocal[32] == 203*) GOTO 0x0BFB
 65: 0x0BD5 [0x02] IF !(ExtData[1]->WorkLocal[25] == 4*) GOTO 0x0BEC
 66: 0x0BDD [0x47] UPDATE_PLAYER_POS(553.205*, 589.633*, -0.021*, yaw=124.4°*)
 67: 0x0BE7 [0x47] WAIT_PLAYER_POS_UPDATE
 68: 0x0BE9 [0x01] GOTO 0x0BF8
 69: 0x0BEC [0x47] UPDATE_PLAYER_POS(-540.005*, -510.305*, 1.373*, yaw=92.8°*)
 70: 0x0BF6 [0x47] WAIT_PLAYER_POS_UPDATE

SUBROUTINE_0BF8:
 71: 0x0BF8 [0x01] GOTO 0x0C35
 72: 0x0BFB [0x02] IF !(ExtData[1]->WorkLocal[32] == 211*) GOTO 0x0C29
 73: 0x0C03 [0x02] IF !(ExtData[1]->WorkLocal[25] == 3*) GOTO 0x0C1A
 74: 0x0C0B [0x47] UPDATE_PLAYER_POS(569.224*, 548.462*, 36.837*, yaw=59.1°*)
 75: 0x0C15 [0x47] WAIT_PLAYER_POS_UPDATE
 76: 0x0C17 [0x01] GOTO 0x0C26
 77: 0x0C1A [0x47] UPDATE_PLAYER_POS(-540.005*, -510.305*, 1.373*, yaw=92.8°*)
 78: 0x0C24 [0x47] WAIT_PLAYER_POS_UPDATE

SUBROUTINE_0C26:
 79: 0x0C26 [0x01] GOTO 0x0C35
 80: 0x0C29 [0x47] UPDATE_PLAYER_POS(-540.005*, -510.305*, 1.373*, yaw=92.8°*)
 81: 0x0C33 [0x47] WAIT_PLAYER_POS_UPDATE

SUBROUTINE_0C35:
 82: 0x0C35 [0x38] SET_CLIENT_EVENT_MODE(mode=19*)
 83: 0x0C38 [0x02] IF !(ExtData[1]->WorkLocal[23] == 2*) GOTO 0x0C43
 84: 0x0C40 [0x01] GOTO 0x0C5E
 85: 0x0C43 [0x02] IF !(ExtData[1]->WorkLocal[23] == 1*) GOTO 0x0D0E
 86: 0x0C4B [0x1C] WAIT(15* ticks)
 87: 0x0C4E [0x24] CREATE_DIALOG(message_id=7566*, default_option=1*, option_flags=0*)
    → "Skip the event? [Yes./No.]"
 88: 0x0C55 [0x25] WAIT_DIALOG_SELECT()
 89: 0x0C56 [0x02] IF !(Work_Zone[0] == 0*) GOTO 0x0D0E

SUBROUTINE_0C5E:
 90: 0x0C5E [0x02] IF !(ExtData[1]->WorkLocal[32] == 180*) GOTO 0x0CCA
 91: 0x0C66 [0x02] IF !(ExtData[1]->WorkLocal[33] == 0*) GOTO 0x0C78
 92: 0x0C6E [0x36] SET_ENTITY_EVENT_POSITION(pos_x=-618.329*, pos_z=-643.868*, pos_y=-25.805*)
 93: 0x0C75 [0x01] GOTO 0x0CC7
 94: 0x0C78 [0x02] IF !(ExtData[1]->WorkLocal[33] == 1*) GOTO 0x0C8A
 95: 0x0C80 [0x36] SET_ENTITY_EVENT_POSITION(pos_x=-332.163*, pos_z=-441.914*, pos_y=-95.055*)
 96: 0x0C87 [0x01] GOTO 0x0CC7
 97: 0x0C8A [0x02] IF !(ExtData[1]->WorkLocal[33] == 2*) GOTO 0x0C9C
 98: 0x0C92 [0x36] SET_ENTITY_EVENT_POSITION(pos_x=-12.464*, pos_z=-648.377*, pos_y=-194.629*)
 99: 0x0C99 [0x01] GOTO 0x0CC7
100: 0x0C9C [0x02] IF !(ExtData[1]->WorkLocal[33] == 3*) GOTO 0x0CAE
101: 0x0CA4 [0x36] SET_ENTITY_EVENT_POSITION(pos_x=323.381*, pos_z=-443.793*, pos_y=-108.440*)
102: 0x0CAB [0x01] GOTO 0x0CC7
103: 0x0CAE [0x02] IF !(ExtData[1]->WorkLocal[33] == 4*) GOTO 0x0CC0
104: 0x0CB6 [0x36] SET_ENTITY_EVENT_POSITION(pos_x=599.907*, pos_z=-676.969*, pos_y=-22.473*)
105: 0x0CBD [0x01] GOTO 0x0CC7
106: 0x0CC0 [0x36] SET_ENTITY_EVENT_POSITION(pos_x=-540.005*, pos_z=-510.305*, pos_y=1.373*)

SUBROUTINE_0CC7:
107: 0x0CC7 [0x01] GOTO 0x0CD3
108: 0x0CCA [0x37] UPDATE_EVENT_POSITION_AND_DIR: x=-540.005*, z=-510.305*, y=1.373*, direction=92.8°*

SUBROUTINE_0CD3:
109: 0x0CD3 [0x80] LOAD_WAIT(entity=LocalPlayer)
110: 0x0CD8 [0x62] LOAD_EVENT_SCHEDULER: Load scheduler "main" with entities [LocalPlayer, LocalPlayer], work=[2*, 0*]
111: 0x0CE9 [0x45] LOAD_SCHEDULED_TASK: Load scheduler "fdi2" with entities [LocalPlayer, LocalPlayer], work=[200*, 0*]
112: 0x0CFA [0x46] CAMERA_CONTROL: Query status
113: 0x0CFC [0x12] 0x0200 = rand()
114: 0x0CFF [0x12] ExtData[1]->WorkLocal[0] = rand()
115: 0x0D02 [0x80] LOAD_WAIT(entity=Unknown NPC (ID: 1175259136/0x460D0800))
116: 0x0D07 [0x00] END_REQSTACK()

SUBROUTINE_0D0E:
117: 0x0D0E [0x02] IF !(ExtData[1]->WorkLocal[23] < 4294967295*) GOTO 0x0D42
118: 0x0D16 [0x5C] MUSIC_CONTROL: Set Idle (Day) music to song 193*
119: 0x0D1A [0x5C] MUSIC_CONTROL: Set Idle (Night) music to song 193*
120: 0x0D1E [0x5C] MUSIC_CONTROL: Set Combat (Solo) music to song 193*
121: 0x0D22 [0x5C] MUSIC_CONTROL: Set Combat (Party) music to song 193*
122: 0x0D26 [0x02] IF !(ExtData[1]->WorkLocal[25] == 3*) GOTO 0x0D41
123: 0x0D2E [0x5C] MUSIC_CONTROL: Set Idle (Day) music to song 0*
124: 0x0D32 [0x5C] MUSIC_CONTROL: Set Idle (Night) music to song 0*
125: 0x0D36 [0x5C] MUSIC_CONTROL: Set Combat (Solo) music to song 0*
126: 0x0D3A [0x5C] MUSIC_CONTROL: Set Combat (Party) music to song 0*
127: 0x0D3E [0x01] GOTO 0x0D41

SUBROUTINE_0D41:
128: 0x0D41 [0x9A] WAIT_MUSIC_SERVER()
129: 0x0D42 [0x1A] CALL_SUBROUTINE(address=0x1A4B)
130: 0x0D45 [0x02] IF !(ExtData[1]->WorkLocal[23] >= 0*) GOTO 0x0D50
131: 0x0D4D [0x01] GOTO 0x0DF0

SUBROUTINE_0D50:
132: 0x0D50 [0x02] IF !(ExtData[1]->WorkLocal[32] == 36*) GOTO 0x0D5B
133: 0x0D58 [0x01] GOTO 0x0D5B

SUBROUTINE_0D5B:
134: 0x0D5B [0x02] IF !(ExtData[1]->WorkLocal[32] == 17*) GOTO 0x0D66
135: 0x0D63 [0x01] GOTO 0x0DF0
136: 0x0D66 [0x02] IF !(ExtData[1]->WorkLocal[32] == 19*) GOTO 0x0D71
137: 0x0D6E [0x01] GOTO 0x0DF0
138: 0x0D71 [0x02] IF !(ExtData[1]->WorkLocal[32] == 21*) GOTO 0x0D7C
139: 0x0D79 [0x01] GOTO 0x0DF0
140: 0x0D7C [0x02] IF !(ExtData[1]->WorkLocal[32] == 23*) GOTO 0x0D87
141: 0x0D84 [0x01] GOTO 0x0DF0
142: 0x0D87 [0x03] Work_Zone[5] = ExtData[1]->WorkLocal[27]
143: 0x0D8C [0x02] IF !(Work_Zone[5] <= 0*) GOTO 0x0DF0
144: 0x0D94 [0x02] IF !(Work_Zone[5] < 60*) GOTO 0x0DAF
145: 0x0D9C [0x3F] Work_Zone[4] = Work_Zone[5] % 60*
146: 0x0DA3 [0x15] Work_Zone[5] /= 60*
147: 0x0DA8 [0x48] [System] [7568*]:
    → "Battlefield clear time: $3 minute[/s], $2 second[/s]!"
148: 0x0DAB [0x23] WAIT_FOR_DIALOG_INTERACTION
149: 0x0DAC [0x01] GOTO 0x0DB3
150: 0x0DAF [0x48] [System] [7567*]:
    → "Battlefield clear time: $3 second[/s]!"
151: 0x0DB2 [0x23] WAIT_FOR_DIALOG_INTERACTION

SUBROUTINE_0DB3:
152: 0x0DB3 [0x02] IF !(ExtData[1]->WorkLocal[27] > ExtData[1]->WorkLocal[26]) GOTO 0x0DC7
153: 0x0DBB [0x03] Work_Zone[7] = ExtData[1]->WorkLocal[25]
154: 0x0DC0 [0x48] [System] [7672*]:
    → "You have broken the clear time record for "[Trial by Earth/The Puppet Master/Trial-Size Trial by Earth/Waking the Beast/Sugar-coated Directive/$26Trial by Earth]"!"
155: 0x0DC3 [0x23] WAIT_FOR_DIALOG_INTERACTION
156: 0x0DC4 [0x01] GOTO 0x0DF0
157: 0x0DC7 [0x02] IF !(ExtData[1]->WorkLocal[26] < 60*) GOTO 0x0DE7
158: 0x0DCF [0x03] Work_Zone[5] = ExtData[1]->WorkLocal[26]
159: 0x0DD4 [0x3F] Work_Zone[4] = Work_Zone[5] % 60*
160: 0x0DDB [0x15] Work_Zone[5] /= 60*
161: 0x0DE0 [0x48] [System] [7570*]:
    → "The current battlefield clear time record is $3 minute[/s] $2 second[/s]."
162: 0x0DE3 [0x23] WAIT_FOR_DIALOG_INTERACTION
163: 0x0DE4 [0x01] GOTO 0x0DF0
164: 0x0DE7 [0x03] Work_Zone[5] = ExtData[1]->WorkLocal[26]
165: 0x0DEC [0x48] [System] [7569*]:
    → "The current battlefield clear time record is $3 second[/s]."
166: 0x0DEF [0x23] WAIT_FOR_DIALOG_INTERACTION

SUBROUTINE_0DF0:
167: 0x0DF0 [0x02] IF !(ExtData[1]->WorkLocal[24] == 0*) GOTO 0x0E08
168: 0x0DF8 [0x5C] MUSIC_CONTROL: Set Idle (Day) music to song 0*
169: 0x0DFC [0x5C] MUSIC_CONTROL: Set Idle (Night) music to song 0*
170: 0x0E00 [0x5C] MUSIC_CONTROL: Set Combat (Solo) music to song 193*
171: 0x0E04 [0x5C] MUSIC_CONTROL: Set Combat (Party) music to song 193*
172: 0x0E08 [0x02] IF !(ExtData[1]->WorkLocal[23] >= 0*) GOTO 0x0E31
173: 0x0E10 [0x45] LOAD_SCHEDULED_TASK: Load scheduler "fdi2" with entities [LocalPlayer, LocalPlayer], work=[200*, 0*]
174: 0x0E21 [0x5C] MUSIC_CONTROL: Set Idle (Day) music to song 0*
175: 0x0E25 [0x5C] MUSIC_CONTROL: Set Idle (Night) music to song 0*
176: 0x0E29 [0x5C] MUSIC_CONTROL: Set Combat (Solo) music to song 193*
177: 0x0E2D [0x5C] MUSIC_CONTROL: Set Combat (Party) music to song 193*
178: 0x0E31 [0x06] ExtData[1]->WorkLocal[24] = 0
179: 0x0E34 [0x45] LOAD_SCHEDULED_TASK: Load scheduler "whi1" with entities [LocalPlayer, LocalPlayer], work=[201*, 0*]
180: 0x0E45 [0x45] LOAD_SCHEDULED_TASK: Load scheduler "blof" with entities [LocalPlayer, LocalPlayer], work=[200*, 0*]
181: 0x0E56 [0x21] END_EVENT
182: 0x0E57 [0x00] END_REQSTACK()
```

#### Data or dead code:

```
# Dead code (unreachable instructions):
     0x0D08 [0x01] GOTO 0x0D50
     0x0D0B [0x01] GOTO 0x0D0E
```

### Event 32003

#### Metadata

| Field        | Value      |
|--------------|------------|
| Entrypoint   | 0x0E58     |
| Data Size    | 6413 bytes |
| Instructions | 115        |

```
      00 01 02 03 04 05 06 07  08 09 0A 0B 0C 0D 0E 0F
      -- -- -- -- -- -- -- --  -- -- -- -- -- -- -- --
0E50:                          06 1D 00 06 1E 00 03 21          .......!
0E60: 00 06 10 03 20 00 07 10  03 1F 00 08 10 06 01 10  .... ...........
0E70: 1A A7 22 02 1D 00 05 80  00 09 10 42 03 01 10 09  .."........B....
0E80: 80 43 00 43 01 03 01 10  0A 80 43 00 43 01 1A BE  .C.C......C.C...
0E90: 22 02 1E 00 05 80 00 09  10 45 0E 80 F0 FF FF 7F  "........E......
0EA0: F0 FF FF 7F 66 64 6F 31  00 80 55 0E 80 F0 FF FF  ....fdo1..U.....
0EB0: 7F F0 FF FF 7F 66 64 6F  31 03 01 10 0B 80 02 20  .....fdo1...... 
0EC0: 00 36 80 80 48 0F 02 21  00 00 80 80 DD 0E 47 00  .6..H..!......G.
0ED0: 37 80 38 80 39 80 3A 80  47 01 01 45 0F 02 21 00  7.8.9.:.G..E..!.
0EE0: 05 80 80 F4 0E 47 00 3B  80 3C 80 3D 80 3E 80 47  .....G.;.<.=.>.G
0EF0: 01 01 45 0F 02 21 00 09  80 80 0B 0F 47 00 3F 80  ..E..!......G.?.
0F00: 40 80 41 80 42 80 47 01  01 45 0F 02 21 00 0A 80  @.A.B.G..E..!...
0F10: 80 22 0F 47 00 43 80 44  80 45 80 46 80 47 01 01  .".G.C.D.E.F.G..
0F20: 45 0F 02 21 00 0B 80 80  39 0F 47 00 47 80 48 80  E..!....9.G.G.H.
0F30: 49 80 4A 80 47 01 01 45  0F 47 00 4B 80 4C 80 4D  I.J.G..E.G.K.L.M
0F40: 80 4E 80 47 01 01 C7 0F  02 20 00 18 80 80 BB 0F  .N.G..... ......
0F50: 02 1F 00 05 80 80 67 0F  47 00 4F 80 50 80 51 80  ......g.G.O.P.Q.
0F60: 52 80 47 01 01 B8 0F 02  1F 00 09 80 80 7E 0F 47  R.G..........~.G
0F70: 00 53 80 54 80 55 80 56  80 47 01 01 B8 0F 02 1F  .S.T.U.V.G......
0F80: 00 0A 80 80 95 0F 47 00  57 80 58 80 59 80 5A 80  ......G.W.X.Y.Z.
0F90: 47 01 01 B8 0F 02 1F 00  0B 80 80 AC 0F 47 00 5B  G............G.[
0FA0: 80 5C 80 5D 80 5E 80 47  01 01 B8 0F 47 00 4B 80  .\.].^.G....G.K.
0FB0: 4C 80 4D 80 4E 80 47 01  01 C7 0F 47 00 4B 80 4C  L.M.N.G....G.K.L
0FC0: 80 4D 80 4E 80 47 01 38  0F 80 79 00 F0 FF FF 7F  .M.N.G.8..y.....
0FD0: F0 FF FF 7F 1A C2 22 45  35 80 F0 FF FF 7F F0 FF  ......"E5.......
0FE0: FF 7F 77 68 69 31 00 80  45 0E 80 F0 FF FF 7F F0  ..whi1..E.......
0FF0: FF FF 7F 62 6C 6F 66 00  80 5C 00 00 80 5C 01 00  ...blof..\...\..
1000: 80 5C 02 33 80 5C 03 33  80 21 00 24 0C 80 05 80  .\.3.\.3.!.$....
1010: 00 80 25 02 00 10 00 80  00 21 10 05 01 00 01 21  ..%......!.....!
1020: 10 1B 79 00 F0 FF FF 7F  F0 FF FF 7F 02 03 00 00  ..y.............
1030: 80 80 01 11 46 01 1A 78  24 92 01 F0 FF FF 7F 37  ....F..x$......7
1040: 8F 80 90 80 91 80 92 80  45 93 80 F0 FF FF 7F F0  ........E.......
1050: FF FF 7F 74 69 69 31 00  80 45 0E 80 F0 FF FF 7F  ...tii1..E......
1060: F0 FF FF 7F 66 64 69 32  00 80 03 02 10 94 80 48  ....fdi2.......H
1070: 95 80 23 55 93 80 F0 FF  FF 7F F0 FF FF 7F 74 69  ..#U..........ti
1080: 69 31 45 0E 80 F0 FF FF  7F F0 FF FF 7F 62 6C 6F  i1E..........blo
1090: 6E 00 80 45 93 80 F0 FF  FF 7F F0 FF FF 7F 74 69  n..E..........ti
10A0: 69 32 00 80 1C 96 80 1A  FC 24 1C 97 80 1A 22 18  i2.......$....".
10B0: 37 98 80 99 80 9A 80 9B  80 45 93 80 F0 FF FF 7F  7........E......
10C0: F0 FF FF 7F 65 78 30 38  00 80 1C 9C 80 1A FC 24  ....ex08.......$
10D0: 45 0E 80 F0 FF FF 7F F0  FF FF 7F 62 6C 6F 66 00  E..........blof.
10E0: 80 55 93 80 F0 FF FF 7F  F0 FF FF 7F 65 78 30 38  .U..........ex08
10F0: 1C 2A 80 1A DB 24 46 00  92 00 F0 FF FF 7F 01 E8  .*...$F.........
1100: 16 02 03 00 05 80 80 81  14 02 02 00 05 80 00 45  ...............E
1110: 11 45 0E 80 F0 FF FF 7F  F0 FF FF 7F 66 64 69 31  .E..........fdi1
1120: 00 80 62 09 80 F0 FF FF  7F F0 FF FF 7F 6D 61 69  ..b..........mai
1130: 6E 00 80 55 0E 80 F0 FF  FF 7F F0 FF FF 7F 66 64  n..U..........fd
1140: 69 31 01 7E 14 42 46 01  1E F0 FF FF 7F 1C 2E 80  i1.~.BF.........
1150: 6F 70 38 0A 80 29 0B 45  10 0D 01 21 29 0B F0 FF  op8..).E...!)...
1160: FF 7F 06 29 08 47 10 0D  01 06 4E 00 46 10 0D 01  ...).G....N.F...
1170: 4E 00 45 10 0D 01 1C 31  80 80 45 10 0D 01 45 9D  N.E....1..E...E.
1180: 80 45 10 0D 01 45 10 0D  01 73 30 31 35 00 80 45  .E...E...s015..E
1190: 0E 80 F8 FF FF 7F F8 FF  FF 7F 66 64 69 31 00 80  ..........fdi1..
11A0: 1C 9E 80 2B 45 10 0D 01  9F 80 23 4A F0 FF FF 7F  ...+E.....#J....
11B0: 45 10 0D 01 27 0B 45 10  0D 01 24 1C 2A 80 52 9D  E...'.E...$.*.R.
11C0: 80 45 10 0D 01 45 10 0D  01 73 30 31 35 45 9D 80  .E...E...s015E..
11D0: 45 10 0D 01 45 10 0D 01  73 30 31 34 00 80 2A 0B  E...E...s014..*.
11E0: 45 10 0D 01 2B 45 10 0D  01 A0 80 23 45 0E 80 F8  E...+E.....#E...
11F0: FF FF 7F F8 FF FF 7F 66  64 6F 31 00 80 1C 2E 80  .......fdo1.....
1200: 62 05 80 45 10 0D 01 45  10 0D 01 6D 61 69 6E 00  b..E...E...main.
1210: 80 1C A1 80 29 08 45 10  0D 01 23 52 9D 80 45 10  ....).E...#R..E.
1220: 0D 01 45 10 0D 01 73 30  31 34 45 9D 80 45 10 0D  ..E...s014E..E..
1230: 01 45 10 0D 01 73 30 31  36 00 80 1C 20 80 45 0E  .E...s016... .E.
1240: 80 F8 FF FF 7F F8 FF FF  7F 66 64 69 31 00 80 1C  .........fdi1...
1250: 2E 80 62 09 80 45 10 0D  01 45 10 0D 01 6D 61 69  ..b..E...E...mai
1260: 6E 00 80 1C 31 80 27 0B  45 10 0D 01 26 1C A2 80  n...1.'.E...&...
1270: 62 09 80 F0 FF FF 7F F0  FF FF 7F 6D 61 69 6E 00  b..........main.
1280: 80 1C A3 80 52 9D 80 45  10 0D 01 45 10 0D 01 73  ....R..E...E...s
1290: 30 31 36 45 0E 80 F0 FF  FF 7F F0 FF FF 7F 6F 76  016E..........ov
12A0: 6C 31 00 80 45 9D 80 F8  FF FF 7F F8 FF FF 7F 73  l1..E..........s
12B0: 30 31 37 00 80 1C 5F 80  2A 0B 45 10 0D 01 29 08  017..._.*.E...).
12C0: 45 10 0D 01 22 27 0B 45  10 0D 01 27 1C 2A 80 52  E..."'.E...'.*.R
12D0: 9D 80 F8 FF FF 7F F8 FF  FF 7F 73 30 31 37 45 9D  ..........s017E.
12E0: 80 F8 FF FF 7F F8 FF FF  7F 73 30 31 38 00 80 2B  .........s018..+
12F0: 45 10 0D 01 A4 80 23 2A  0B 45 10 0D 01 52 9D 80  E.....#*.E...R..
1300: F8 FF FF 7F F8 FF FF 7F  73 30 31 38 45 9D 80 F8  ........s018E...
1310: FF FF 7F F8 FF FF 7F 73  30 31 39 00 80 4E 00 47  .......s019..N.G
1320: 10 0D 01 27 0B 47 10 0D  01 08 27 0A 45 10 0D 01  ...'.G....'.E...
1330: 25 29 0B 46 10 0D 01 0A  29 0B 48 10 0D 01 04 4A  %).F....).H....J
1340: 48 10 0D 01 45 10 0D 01  2B 45 10 0D 01 A5 80 23  H...E...+E.....#
1350: 2A 0B 47 10 0D 01 29 0B  47 10 0D 01 03 2A 0A 45  *.G...).G....*.E
1360: 10 0D 01 4E 01 46 10 0D  01 52 9D 80 F8 FF FF 7F  ...N.F...R......
1370: F8 FF FF 7F 73 30 31 39  45 0E 80 F0 FF FF 7F F0  ....s019E.......
1380: FF FF 7F 62 6C 6F 6E 00  80 45 35 80 F0 FF FF 7F  ...blon..E5.....
1390: F0 FF FF 7F 62 6C 6F 6E  00 80 45 9D 80 45 10 0D  ....blon..E..E..
13A0: 01 45 10 0D 01 73 30 32  30 00 80 29 0B 47 10 0D  .E...s020..).G..
13B0: 01 07 27 0B 47 10 0D 01  04 27 0B 48 10 0D 01 01  ..'.G....'.H....
13C0: 9F 01 80 47 10 0D 01 47  10 0D 01 6D 61 69 6E 00  ...G...G...main.
13D0: 80 9F 1E 80 48 10 0D 01  48 10 0D 01 6D 61 69 6E  ....H...H...main
13E0: 00 80 27 0B 45 10 0D 01  28 62 05 80 47 10 0D 01  ..'.E...(b..G...
13F0: 47 10 0D 01 6D 61 69 6E  00 80 1C 2E 80 2B 45 10  G...main.....+E.
1400: 0D 01 A6 80 23 2A 0B 45  10 0D 01 62 05 80 45 10  ....#*.E...b..E.
1410: 0D 01 45 10 0D 01 6D 61  69 6E 00 80 45 35 80 F0  ..E...main..E5..
1420: FF FF 7F F0 FF FF 7F 77  68 6F 31 00 80 1C A1 80  .......who1.....
1430: 37 98 80 99 80 9A 80 9B  80 45 0E 80 F0 FF FF 7F  7........E......
1440: F0 FF FF 7F 62 6C 6F 66  00 80 52 9D 80 45 10 0D  ....blof..R..E..
1450: 01 45 10 0D 01 73 30 32  30 46 00 1C 0E 80 45 35  .E...s020F....E5
1460: 80 F0 FF FF 7F F0 FF FF  7F 77 68 69 31 00 80 55  .........whi1..U
1470: 35 80 F0 FF FF 7F F0 FF  FF 7F 77 68 69 31 01 E8  5.........whi1..
1480: 16 02 03 00 09 80 80 56  15 46 01 1A 78 24 92 01  .......V.F..x$..
1490: F0 FF FF 7F 37 8F 80 90  80 91 80 92 80 45 93 80  ....7........E..
14A0: F0 FF FF 7F F0 FF FF 7F  74 69 69 31 00 80 45 0E  ........tii1..E.
14B0: 80 F0 FF FF 7F F0 FF FF  7F 66 64 69 32 00 80 03  .........fdi2...
14C0: 02 10 A7 80 48 A8 80 23  55 93 80 F0 FF FF 7F F0  ....H..#U.......
14D0: FF FF 7F 74 69 69 31 45  0E 80 F0 FF FF 7F F0 FF  ...tii1E........
14E0: FF 7F 62 6C 6F 6E 00 80  45 93 80 F0 FF FF 7F F0  ..blon..E.......
14F0: FF FF 7F 74 69 69 32 00  80 1C 96 80 1A FC 24 1C  ...tii2.......$.
1500: 97 80 1A 17 19 37 98 80  99 80 9A 80 9B 80 45 93  .....7........E.
1510: 80 F0 FF FF 7F F0 FF FF  7F 65 78 30 38 00 80 1C  .........ex08...
1520: 9C 80 1A FC 24 45 0E 80  F0 FF FF 7F F0 FF FF 7F  ....$E..........
1530: 62 6C 6F 66 00 80 55 93  80 F0 FF FF 7F F0 FF FF  blof..U.........
1540: 7F 65 78 30 38 1C 2A 80  1A DB 24 46 00 92 00 F0  .ex08.*...$F....
1550: FF FF 7F 01 E8 16 02 03  00 0A 80 80 22 16 46 01  ............".F.
1560: 1A 78 24 92 01 F0 FF FF  7F 37 8F 80 90 80 91 80  .x$......7......
1570: 92 80 45 93 80 F0 FF FF  7F F0 FF FF 7F 74 69 69  ..E..........tii
1580: 31 00 80 45 0E 80 F0 FF  FF 7F F0 FF FF 7F 66 64  1..E..........fd
1590: 69 32 00 80 55 93 80 F0  FF FF 7F F0 FF FF 7F 74  i2..U..........t
15A0: 69 69 31 45 0E 80 F0 FF  FF 7F F0 FF FF 7F 62 6C  ii1E..........bl
15B0: 6F 6E 00 80 45 93 80 F0  FF FF 7F F0 FF FF 7F 74  on..E..........t
15C0: 69 69 32 00 80 1C 96 80  1A FC 24 1C 97 80 1A E9  ii2.......$.....
15D0: 16 37 98 80 99 80 9A 80  9B 80 45 93 80 F0 FF FF  .7........E.....
15E0: 7F F0 FF FF 7F 65 78 30  38 00 80 1C 9C 80 1A FC  .....ex08.......
15F0: 24 45 0E 80 F0 FF FF 7F  F0 FF FF 7F 62 6C 6F 66  $E..........blof
1600: 00 80 55 93 80 F0 FF FF  7F F0 FF FF 7F 65 78 30  ..U..........ex0
1610: 38 1C 2A 80 1A DB 24 46  00 92 00 F0 FF FF 7F 01  8.*...$F........
1620: E8 16 02 03 00 0B 80 80  E8 16 46 01 1A 78 24 92  ..........F..x$.
1630: 01 F0 FF FF 7F 37 8F 80  90 80 91 80 92 80 45 93  .....7........E.
1640: 80 F0 FF FF 7F F0 FF FF  7F 74 69 69 31 00 80 45  .........tii1..E
1650: 0E 80 F0 FF FF 7F F0 FF  FF 7F 66 64 69 32 00 80  ..........fdi2..
1660: 55 93 80 F0 FF FF 7F F0  FF FF 7F 74 69 69 31 45  U..........tii1E
1670: 0E 80 F0 FF FF 7F F0 FF  FF 7F 62 6C 6F 6E 00 80  ..........blon..
1680: 45 93 80 F0 FF FF 7F F0  FF FF 7F 74 69 69 32 00  E..........tii2.
1690: 80 1C 96 80 1A E8 19 37  98 80 99 80 9A 80 9B 80  .......7........
16A0: 45 93 80 F0 FF FF 7F F0  FF FF 7F 65 78 30 38 00  E..........ex08.
16B0: 80 1C 9C 80 1A FC 24 45  0E 80 F0 FF FF 7F F0 FF  ......$E........
16C0: FF 7F 62 6C 6F 66 00 80  55 93 80 F0 FF FF 7F F0  ..blof..U.......
16D0: FF FF 7F 65 78 30 38 1C  2A 80 1A DB 24 46 00 92  ...ex08.*...$F..
16E0: 00 F0 FF FF 7F 01 E8 16  1B 27 10 3B 10 0D 01 04  .........'.;....
16F0: 27 10 3B 10 0D 01 0A 80  3B 10 0D 01 6C F0 FF FF  '.;.....;...l...
1700: 7F A9 80 05 80 37 AA 80  AB 80 AC 80 AD 80 45 93  .....7........E.
1710: 80 F0 FF FF 7F F0 FF FF  7F 65 78 30 33 00 80 45  .........ex03..E
1720: 93 80 F0 FF FF 7F F0 FF  FF 7F 77 69 73 70 00 80  ..........wisp..
1730: 55 93 80 F0 FF FF 7F F0  FF FF 7F 65 78 30 33 45  U..........ex03E
1740: 0E 80 F0 FF FF 7F F0 FF  FF 7F 6F 76 6C 31 00 80  ..........ovl1..
1750: 45 AE 80 F0 FF FF 7F F0  FF FF 7F 73 30 31 30 00  E..........s010.
1760: 80 1C A1 80 48 AF 80 23  52 AE 80 F0 FF FF 7F F0  ....H..#R.......
1770: FF FF 7F 73 30 31 30 45  0E 80 F0 FF FF 7F F0 FF  ...s010E........
1780: FF 7F 6F 76 6C 32 00 80  45 AE 80 F0 FF FF 7F F0  ..ovl2..E.......
1790: FF FF 7F 73 30 30 38 00  80 1C A1 80 48 B0 80 23  ...s008.....H..#
17A0: 52 AE 80 F0 FF FF 7F F0  FF FF 7F 73 30 30 38 4E  R..........s008N
17B0: 01 3B 10 0D 01 1A E8 19  52 AE 80 F0 FF FF 7F F0  .;......R.......
17C0: FF FF 7F 73 30 30 38 45  AE 80 F0 FF FF 7F F0 FF  ...s008E........
17D0: FF 7F 73 30 36 31 00 80  1C 2E 80 48 B1 80 1C A1  ..s061.....H....
17E0: 80 45 35 80 F0 FF FF 7F  F0 FF FF 7F 77 68 6F 31  .E5.........who1
17F0: 00 80 55 35 80 F0 FF FF  7F F0 FF FF 7F 77 68 6F  ..U5.........who
1800: 31 52 AE 80 F0 FF FF 7F  F0 FF FF 7F 73 30 36 31  1R..........s061
1810: 45 35 80 F0 FF FF 7F F0  FF FF 7F 77 68 69 31 00  E5.........whi1.
1820: 80 1B 27 10 3B 10 0D 01  04 27 10 3B 10 0D 01 0A  ..'.;....'.;....
1830: 80 3B 10 0D 01 6C F0 FF  FF 7F A9 80 05 80 37 AA  .;...l........7.
1840: 80 AB 80 AC 80 AD 80 45  93 80 F0 FF FF 7F F0 FF  .......E........
1850: FF 7F 65 78 30 33 00 80  45 93 80 F0 FF FF 7F F0  ..ex03..E.......
1860: FF FF 7F 77 69 73 70 00  80 1C A1 80 48 B2 80 23  ...wisp.....H..#
1870: 48 B3 80 23 52 93 80 F0  FF FF 7F F0 FF FF 7F 65  H..#R..........e
1880: 78 30 33 45 93 80 F0 FF  FF 7F F0 FF FF 7F 65 78  x03E..........ex
1890: 30 34 00 80 48 B4 80 23  52 93 80 F0 FF FF 7F F0  04..H..#R.......
18A0: FF FF 7F 65 78 30 34 45  93 80 F0 FF FF 7F F0 FF  ...ex04E........
18B0: FF 7F 65 78 30 35 00 80  48 B5 80 23 52 93 80 F0  ..ex05..H..#R...
18C0: FF FF 7F F0 FF FF 7F 65  78 30 35 45 93 80 F0 FF  .......ex05E....
18D0: FF 7F F0 FF FF 7F 65 78  30 36 00 80 48 B6 80 23  ......ex06..H..#
18E0: 52 93 80 F0 FF FF 7F F0  FF FF 7F 65 78 30 36 45  R..........ex06E
18F0: 93 80 F0 FF FF 7F F0 FF  FF 7F 65 78 30 37 00 80  ..........ex07..
1900: 48 B7 80 23 55 93 80 F0  FF FF 7F F0 FF FF 7F 65  H..#U..........e
1910: 78 30 37 1A E8 19 1B 27  10 3B 10 0D 01 04 27 10  x07....'.;....'.
1920: 3B 10 0D 01 0A 80 3B 10  0D 01 6C F0 FF FF 7F A9  ;.....;...l.....
1930: 80 05 80 37 AA 80 AB 80  AC 80 AD 80 45 93 80 F0  ...7........E...
1940: FF FF 7F F0 FF FF 7F 65  78 30 33 00 80 45 93 80  .......ex03..E..
1950: F0 FF FF 7F F0 FF FF 7F  77 69 73 70 00 80 1C A1  ........wisp....
1960: 80 48 B2 80 23 48 B8 80  23 52 93 80 F0 FF FF 7F  .H..#H..#R......
1970: F0 FF FF 7F 65 78 30 33  45 93 80 F0 FF FF 7F F0  ....ex03E.......
1980: FF FF 7F 65 78 30 35 00  80 48 B9 80 23 52 93 80  ...ex05..H..#R..
1990: F0 FF FF 7F F0 FF FF 7F  65 78 30 35 45 93 80 F0  ........ex05E...
19A0: FF FF 7F F0 FF FF 7F 65  78 30 36 00 80 48 BA 80  .......ex06..H..
19B0: 23 52 93 80 F0 FF FF 7F  F0 FF FF 7F 65 78 30 36  #R..........ex06
19C0: 45 93 80 F0 FF FF 7F F0  FF FF 7F 65 78 30 37 00  E..........ex07.
19D0: 80 48 BB 80 23 55 93 80  F0 FF FF 7F F0 FF FF 7F  .H..#U..........
19E0: 65 78 30 37 1A E8 19 1B  1A 0D 26 27 10 3A 10 0D  ex07......&'.:..
19F0: 01 02 27 10 3A 10 0D 01  0A 80 3A 10 0D 01 1C 01  ..'.:.....:.....
1A00: 80 6C F0 FF FF 7F 00 80  05 80 45 93 80 F0 FF FF  .l........E.....
1A10: 7F F0 FF FF 7F 74 69 30  31 00 80 62 BC 80 3A 10  .....ti01..b..:.
1A20: 0D 01 3A 10 0D 01 6D 61  69 6E 00 80 1A DB 24 55  ..:...main....$U
1A30: 93 80 F0 FF FF 7F F0 FF  FF 7F 74 69 30 31 1C 01  ..........ti01..
1A40: 80 6C F0 FF FF 7F 60 80  05 80 1B 02 19 00 00 80  .l....`.........
1A50: 80 59 1A 1A D3 1D 01 D8  1A 02 19 00 09 80 80 67  .Y.............g
1A60: 1A 1A 85 1F 01 D8 1A 02  19 00 0A 80 80 75 1A 1A  .............u..
1A70: D9 1A 01 D8 1A 02 19 00  0B 80 80 83 1A 1A 4C 21  ..............L!
1A80: 01 D8 1A 45 0E 80 F0 FF  FF 7F F0 FF FF 7F 62 6C  ...E..........bl
1A90: 6F 66 00 80 45 0E 80 F0  FF FF 7F F0 FF FF 7F 66  of..E..........f
1AA0: 64 69 31 00 80 45 35 80  F0 FF FF 7F F0 FF FF 7F  di1..E5.........
1AB0: 77 68 69 31 00 80 62 09  80 F0 FF FF 7F F0 FF FF  whi1..b.........
1AC0: 7F 6D 61 69 6E 00 80 55  0E 80 F0 FF FF 7F F0 FF  .main..U........
1AD0: FF 7F 66 64 69 31 46 00  1B 46 01 1A 78 24 4E 01  ..fdi1F..F..x$N.
1AE0: 3B 10 0D 01 92 01 F0 FF  FF 7F 9F BD 80 F0 FF FF  ;...............
1AF0: 7F F0 FF FF 7F 69 6B 69  6C 00 80 9F BD 80 3A 10  .....ikil.....:.
1B00: 0D 01 3A 10 0D 01 6F 6B  69 6C 00 80 37 AA 80 AB  ..:...okil..7...
1B10: 80 AC 80 AD 80 27 10 3A  10 0D 01 04 27 10 3A 10  .....'.:....'.:.
1B20: 0D 01 0A 80 3A 10 0D 01  45 0E 80 F0 FF FF 7F F0  ....:...E.......
1B30: FF FF 7F 66 64 69 32 00  80 45 AE 80 F0 FF FF 7F  ...fdi2..E......
1B40: F0 FF FF 7F 73 30 36 32  00 80 9F BD 80 3A 10 0D  ....s062.....:..
1B50: 01 3A 10 0D 01 6F 75 74  30 00 80 1C 96 80 48 BE  .:...out0.....H.
1B60: 80 23 55 AE 80 F0 FF FF  7F F0 FF FF 7F 73 30 36  .#U..........s06
1B70: 32 45 0E 80 F0 FF FF 7F  F0 FF FF 7F 6F 76 6C 32  2E..........ovl2
1B80: 00 80 9F BD 80 3A 10 0D  01 3A 10 0D 01 6F 6B 69  .....:...:...oki
1B90: 6C 00 80 62 BF 80 3A 10  0D 01 3A 10 0D 01 6D 61  l..b..:...:...ma
1BA0: 69 6E 00 80 9F BD 80 F0  FF FF 7F F0 FF FF 7F 69  in.............i
1BB0: 6E 30 30 00 80 45 AE 80  F0 FF FF 7F F0 FF FF 7F  n00..E..........
1BC0: 73 30 31 32 00 80 45 0E  80 F0 FF FF 7F F0 FF FF  s012..E.........
1BD0: 7F 6F 76 6C 32 00 80 55  AE 80 F0 FF FF 7F F0 FF  .ovl2..U........
1BE0: FF 7F 73 30 31 32 5C 00  C0 80 5C 01 C0 80 45 0E  ..s012\...\...E.
1BF0: 80 F0 FF FF 7F F0 FF FF  7F 6F 76 6C 32 00 80 45  .........ovl2..E
1C00: AE 80 F0 FF FF 7F F0 FF  FF 7F 73 30 31 33 00 80  ..........s013..
1C10: 9F BD 80 F0 FF FF 7F F0  FF FF 7F 69 6B 69 6C 00  ...........ikil.
1C20: 80 1C 36 80 52 AE 80 F0  FF FF 7F F0 FF FF 7F 73  ..6.R..........s
1C30: 30 31 33 45 0E 80 F0 FF  FF 7F F0 FF FF 7F 6F 76  013E..........ov
1C40: 6C 32 00 80 45 AE 80 F0  FF FF 7F F0 FF FF 7F 73  l2..E..........s
1C50: 30 31 34 00 80 48 C1 80  23 52 AE 80 F0 FF FF 7F  014..H..#R......
1C60: F0 FF FF 7F 73 30 31 34  45 0E 80 F0 FF FF 7F F0  ....s014E.......
1C70: FF FF 7F 6F 76 6C 32 00  80 45 AE 80 F0 FF FF 7F  ...ovl2..E......
1C80: F0 FF FF 7F 73 30 31 35  00 80 1C 96 80 48 C2 80  ....s015.....H..
1C90: 23 55 AE 80 F0 FF FF 7F  F0 FF FF 7F 73 30 31 35  #U..........s015
1CA0: 45 0E 80 F0 FF FF 7F F0  FF FF 7F 6F 76 6C 32 00  E..........ovl2.
1CB0: 80 45 AE 80 F0 FF FF 7F  F0 FF FF 7F 73 30 31 36  .E..........s016
1CC0: 00 80 1C 36 80 48 C3 80  23 52 AE 80 F0 FF FF 7F  ...6.H..#R......
1CD0: F0 FF FF 7F 73 30 31 36  45 AE 80 F0 FF FF 7F F0  ....s016E.......
1CE0: FF FF 7F 73 30 31 37 00  80 45 0E 80 F0 FF FF 7F  ...s017..E......
1CF0: F0 FF FF 7F 6F 76 6C 32  00 80 1C 2E 80 48 C4 80  ....ovl2.....H..
1D00: 23 5D 00 80 A1 80 1A FC  24 45 0E 80 F0 FF FF 7F  #]......$E......
1D10: F0 FF FF 7F 66 64 6F 32  00 80 1C 2E 80 48 C5 80  ....fdo2.....H..
1D20: 23 1C 2E 80 37 4B 80 4C  80 4D 80 4E 80 2C F0 FF  #...7K.L.M.N.,..
1D30: FF 7F F0 FF FF 7F 72 65  73 30 1C 01 80 5C 00 00  ......res0...\..
1D40: 80 5C 01 00 80 52 AE 80  F0 FF FF 7F F0 FF FF 7F  .\...R..........
1D50: 73 30 31 37 45 0E 80 F0  FF FF 7F F0 FF FF 7F 66  s017E..........f
1D60: 64 69 31 00 80 52 93 80  F0 FF FF 7F F0 FF FF 7F  di1..R..........
1D70: 65 78 31 31 45 0E 80 F0  FF FF 7F F0 FF FF 7F 62  ex11E..........b
1D80: 6C 6F 6E 00 80 45 93 80  F0 FF FF 7F F0 FF FF 7F  lon..E..........
1D90: 74 69 65 31 00 80 45 93  80 F0 FF FF 7F F0 FF FF  tie1..E.........
1DA0: 7F 77 69 73 70 00 80 1C  36 80 45 0E 80 F0 FF FF  .wisp...6.E.....
1DB0: 7F F0 FF FF 7F 62 6C 6F  66 00 80 55 93 80 F0 FF  .....blof..U....
1DC0: FF 7F F0 FF FF 7F 74 69  65 31 46 00 92 00 F0 FF  ......tie1F.....
1DD0: FF 7F 1B 46 01 1A 78 24  27 10 3B 10 0D 01 04 27  ...F..x$'.;....'
1DE0: 10 3B 10 0D 01 0A 80 3B  10 0D 01 92 01 F0 FF FF  .;.....;........
1DF0: 7F 5C 00 C6 80 5C 01 C6  80 5C 02 C6 80 5C 03 C6  .\...\...\...\..
1E00: 80 5D 00 80 05 80 9A 5D  A3 80 A1 80 37 AA 80 AB  .].....]....7...
1E10: 80 AC 80 AD 80 27 10 3A  10 0D 01 04 27 10 3A 10  .....'.:....'.:.
1E20: 0D 01 0A 80 3A 10 0D 01  45 93 80 F0 FF FF 7F F0  ....:...E.......
1E30: FF FF 7F 65 78 30 39 00  80 45 0E 80 F0 FF FF 7F  ...ex09..E......
1E40: F0 FF FF 7F 66 64 69 32  00 80 48 B2 80 23 48 C7  ....fdi2..H..#H.
1E50: 80 23 52 93 80 F0 FF FF  7F F0 FF FF 7F 65 78 30  .#R..........ex0
1E60: 39 6C F0 FF FF 7F 00 80  05 80 45 93 80 F0 FF FF  9l........E.....
1E70: 7F F0 FF FF 7F 74 69 30  33 00 80 62 BF 80 3A 10  .....ti03..b..:.
1E80: 0D 01 3A 10 0D 01 6D 61  69 6E 00 80 55 93 80 F0  ..:...main..U...
1E90: FF FF 7F F0 FF FF 7F 74  69 30 33 1C 2A 80 45 93  .......ti03.*.E.
1EA0: 80 F0 FF FF 7F F0 FF FF  7F 65 78 31 30 00 80 48  .........ex10..H
1EB0: C8 80 23 48 C9 80 23 52  93 80 F0 FF FF 7F F0 FF  ..#H..#R........
1EC0: FF 7F 65 78 31 30 6C F0  FF FF 7F 60 80 05 80 45  ..ex10l....`...E
1ED0: 93 80 F0 FF FF 7F F0 FF  FF 7F 65 78 31 31 00 80  ..........ex11..
1EE0: 48 CA 80 23 62 26 80 F0  FF FF 7F F0 FF FF 7F 6D  H..#b&.........m
1EF0: 61 69 6E 00 80 1C A1 80  1A FC 24 1C 2E 80 37 4B  ain.......$...7K
1F00: 80 4C 80 4D 80 4E 80 2C  F0 FF FF 7F F0 FF FF 7F  .L.M.N.,........
1F10: 72 65 73 30 1C 01 80 52  93 80 F0 FF FF 7F F0 FF  res0...R........
1F20: FF 7F 65 78 31 31 45 0E  80 F0 FF FF 7F F0 FF FF  ..ex11E.........
1F30: 7F 62 6C 6F 6E 00 80 45  93 80 F0 FF FF 7F F0 FF  .blon..E........
1F40: FF 7F 74 69 65 31 00 80  45 93 80 F0 FF FF 7F F0  ..tie1..E.......
1F50: FF FF 7F 77 69 73 70 00  80 1C 36 80 45 0E 80 F0  ...wisp...6.E...
1F60: FF FF 7F F0 FF FF 7F 62  6C 6F 66 00 80 55 93 80  .......blof..U..
1F70: F0 FF FF 7F F0 FF FF 7F  74 69 65 31 46 00 92 00  ........tie1F...
1F80: F0 FF FF 7F 1B 46 01 1A  78 24 27 10 3B 10 0D 01  .....F..x$'.;...
1F90: 04 27 10 3B 10 0D 01 0A  80 3B 10 0D 01 92 01 F0  .'.;.....;......
1FA0: FF FF 7F 5C 00 C6 80 5C  01 C6 80 5C 02 C6 80 5C  ...\...\...\...\
1FB0: 03 C6 80 5D 00 80 05 80  9A 5D A3 80 A1 80 37 AA  ...].....]....7.
1FC0: 80 AB 80 AC 80 AD 80 27  10 3A 10 0D 01 04 27 10  .......'.:....'.
1FD0: 3A 10 0D 01 0A 80 3A 10  0D 01 45 93 80 F0 FF FF  :.....:...E.....
1FE0: 7F F0 FF FF 7F 65 78 30  39 00 80 45 0E 80 F0 FF  .....ex09..E....
1FF0: FF 7F F0 FF FF 7F 66 64  69 32 00 80 48 B2 80 23  ......fdi2..H..#
2000: 48 CB 80 23 52 93 80 F0  FF FF 7F F0 FF FF 7F 65  H..#R..........e
2010: 78 30 39 6C F0 FF FF 7F  00 80 05 80 45 93 80 F0  x09l........E...
2020: FF FF 7F F0 FF FF 7F 74  69 30 33 00 80 62 BF 80  .......ti03..b..
2030: 3A 10 0D 01 3A 10 0D 01  6D 61 69 6E 00 80 55 93  :...:...main..U.
2040: 80 F0 FF FF 7F F0 FF FF  7F 74 69 30 33 1C 2A 80  .........ti03.*.
2050: 45 93 80 F0 FF FF 7F F0  FF FF 7F 65 78 31 30 00  E..........ex10.
2060: 80 48 CC 80 23 52 93 80  F0 FF FF 7F F0 FF FF 7F  .H..#R..........
2070: 65 78 31 30 6C F0 FF FF  7F 60 80 05 80 45 93 80  ex10l....`...E..
2080: F0 FF FF 7F F0 FF FF 7F  65 78 31 31 00 80 48 CD  ........ex11..H.
2090: 80 23 62 26 80 F0 FF FF  7F F0 FF FF 7F 6D 61 69  .#b&.........mai
20A0: 6E 00 80 1C A1 80 1A FC  24 1C 2E 80 37 4B 80 4C  n.......$...7K.L
20B0: 80 4D 80 4E 80 2C F0 FF  FF 7F F0 FF FF 7F 72 65  .M.N.,........re
20C0: 73 30 1C 01 80 52 93 80  F0 FF FF 7F F0 FF FF 7F  s0...R..........
20D0: 65 78 31 31 45 0E 80 F0  FF FF 7F F0 FF FF 7F 62  ex11E..........b
20E0: 6C 6F 6E 00 80 45 93 80  F0 FF FF 7F F0 FF FF 7F  lon..E..........
20F0: 74 69 65 31 00 80 45 93  80 F0 FF FF 7F F0 FF FF  tie1..E.........
2100: 7F 77 69 73 70 00 80 1C  36 80 45 0E 80 F0 FF FF  .wisp...6.E.....
2110: 7F F0 FF FF 7F 62 6C 6F  66 00 80 55 93 80 F0 FF  .....blof..U....
2120: FF 7F F0 FF FF 7F 74 69  65 31 46 00 92 00 F0 FF  ......tie1F.....
2130: FF 7F 02 1C 00 05 80 00  4B 21 45 35 80 F0 FF FF  ........K!E5....
2140: 7F F0 FF FF 7F 71 73 74  63 00 80 1B 46 01 1A 78  .....qstc...F..x
2150: 24 27 10 3B 10 0D 01 04  27 10 3B 10 0D 01 0A 80  $'.;....'.;.....
2160: 3B 10 0D 01 92 01 F0 FF  FF 7F 5C 00 C6 80 5C 01  ;.........\...\.
2170: C6 80 5C 02 C6 80 5C 03  C6 80 5D 00 80 05 80 9A  ..\...\...].....
2180: 5D A3 80 A1 80 37 AA 80  AB 80 AC 80 AD 80 6C F0  ]....7........l.
2190: FF FF 7F 00 80 05 80 27  10 3A 10 0D 01 04 27 10  .......'.:....'.
21A0: 3A 10 0D 01 0A 80 3A 10  0D 01 45 93 80 F0 FF FF  :.....:...E.....
21B0: 7F F0 FF FF 7F 74 69 30  33 00 80 45 0E 80 F0 FF  .....ti03..E....
21C0: FF 7F F0 FF FF 7F 66 64  69 32 00 80 62 BF 80 3A  ......fdi2..b..:
21D0: 10 0D 01 3A 10 0D 01 6D  61 69 6E 00 80 55 93 80  ...:...main..U..
21E0: F0 FF FF 7F F0 FF FF 7F  74 69 30 33 6C F0 FF FF  ........ti03l...
21F0: 7F 60 80 05 80 45 93 80  F0 FF FF 7F F0 FF FF 7F  .`...E..........
2200: 65 78 31 31 00 80 62 26  80 F0 FF FF 7F F0 FF FF  ex11..b&........
2210: 7F 6D 61 69 6E 00 80 1C  A1 80 1A FC 24 1C 2E 80  .main.......$...
2220: 37 4B 80 4C 80 4D 80 4E  80 2C F0 FF FF 7F F0 FF  7K.L.M.N.,......
2230: FF 7F 72 65 73 30 1C 01  80 52 93 80 F0 FF FF 7F  ..res0...R......
2240: F0 FF FF 7F 65 78 31 31  45 0E 80 F0 FF FF 7F F0  ....ex11E.......
2250: FF FF 7F 62 6C 6F 6E 00  80 45 93 80 F0 FF FF 7F  ...blon..E......
2260: F0 FF FF 7F 74 69 65 31  00 80 45 93 80 F0 FF FF  ....tie1..E.....
2270: 7F F0 FF FF 7F 77 69 73  70 00 80 1C 36 80 45 0E  .....wisp...6.E.
2280: 80 F0 FF FF 7F F0 FF FF  7F 62 6C 6F 66 00 80 55  .........blof..U
2290: 93 80 F0 FF FF 7F F0 FF  FF 7F 74 69 65 31 46 00  ..........tie1F.
22A0: 92 00 F0 FF FF 7F 1B 24  CE 80 05 80 00 80 25 02  .......$......%.
22B0: 00 10 00 80 00 BD 22 05  1D 00 01 BD 22 1B 05 1E  ......"....."...
22C0: 00 1B 46 01 1A 78 24 92  01 F0 FF FF 7F 37 CF 80  ..F..x$......7..
22D0: D0 80 D1 80 D2 80 45 93  80 F0 FF FF 7F F0 FF FF  ......E.........
22E0: 7F 65 78 30 31 00 80 5D  00 80 36 80 45 0E 80 F0  .ex01..]..6.E...
22F0: FF FF 7F F0 FF FF 7F 66  64 69 32 00 80 55 93 80  .......fdi2..U..
2300: F0 FF FF 7F F0 FF FF 7F  65 78 30 31 45 0E 80 F0  ........ex01E...
2310: FF FF 7F F0 FF FF 7F 62  6C 6F 6E 00 80 45 93 80  .......blon..E..
2320: F0 FF FF 7F F0 FF FF 7F  65 78 30 32 00 80 1C 9E  ........ex02....
2330: 80 1A FC 24 1C 97 80 37  4B 80 4C 80 4D 80 4E 80  ...$...7K.L.M.N.
2340: 2C F0 FF FF 7F F0 FF FF  7F 72 65 73 30 1C 01 80  ,........res0...
2350: 45 93 80 F0 FF FF 7F F0  FF FF 7F 74 69 65 31 00  E..........tie1.
2360: 80 45 93 80 F0 FF FF 7F  F0 FF FF 7F 77 69 73 70  .E..........wisp
2370: 00 80 1C 36 80 45 0E 80  F0 FF FF 7F F0 FF FF 7F  ...6.E..........
2380: 62 6C 6F 66 00 80 55 93  80 F0 FF FF 7F F0 FF FF  blof..U.........
2390: 7F 74 69 65 31 46 00 92  00 F0 FF FF 7F 1B 46 01  .tie1F........F.
23A0: 1A FC 24 92 01 F0 FF FF  7F 1C 97 80 1A 57 24 45  ..$..........W$E
23B0: 0E 80 F0 FF FF 7F F0 FF  FF 7F 62 6C 6F 6E 00 80  ..........blon..
23C0: 37 4B 80 4C 80 4D 80 4E  80 2C F0 FF FF 7F F0 FF  7K.L.M.N.,......
23D0: FF 7F 72 65 73 30 1C 01  80 45 93 80 F0 FF FF 7F  ..res0...E......
23E0: F0 FF FF 7F 74 69 65 31  00 80 45 93 80 F0 FF FF  ....tie1..E.....
23F0: 7F F0 FF FF 7F 77 69 73  70 00 80 1C 36 80 45 0E  .....wisp...6.E.
2400: 80 F0 FF FF 7F F0 FF FF  7F 62 6C 6F 66 00 80 55  .........blof..U
2410: 93 80 F0 FF FF 7F F0 FF  FF 7F 74 69 65 31 46 00  ..........tie1F.
2420: 92 00 F0 FF FF 7F 1B 02  03 00 00 80 80 32 24 01  .............2$.
2430: 56 24 02 03 00 08 80 80  56 24 03 08 17 D3 80 03  V$......V$......
2440: 09 17 D4 80 03 0A 17 D5  80 03 0B 17 D6 80 03 0C  ................
2450: 17 D7 80 01 56 24 1B 45  0E 80 F0 FF FF 7F F0 FF  ....V$.E........
2460: FF 7F 66 64 69 30 00 80  55 0E 80 F0 FF FF 7F F0  ..fdi0..U.......
2470: FF FF 7F 66 64 69 30 1B  45 0E 80 F0 FF FF 7F F0  ...fdi0.E.......
2480: FF FF 7F 66 64 6F 30 00  80 55 0E 80 F0 FF FF 7F  ...fdo0..U......
2490: F0 FF FF 7F 66 64 6F 30  1B 45 0E 80 F0 FF FF 7F  ....fdo0.E......
24A0: F0 FF FF 7F 66 64 69 31  00 80 55 0E 80 F0 FF FF  ....fdi1..U.....
24B0: 7F F0 FF FF 7F 66 64 69  31 1B 45 0E 80 F0 FF FF  .....fdi1.E.....
24C0: 7F F0 FF FF 7F 66 64 6F  31 00 80 55 0E 80 F0 FF  .....fdo1..U....
24D0: FF 7F F0 FF FF 7F 66 64  6F 31 1B 45 35 80 F0 FF  ......fdo1.E5...
24E0: FF 7F F0 FF FF 7F 77 68  69 31 00 80 55 35 80 F0  ......whi1..U5..
24F0: FF FF 7F F0 FF FF 7F 77  68 69 31 1B 45 35 80 F0  .......whi1.E5..
2500: FF FF 7F F0 FF FF 7F 77  68 6F 31 00 80 55 35 80  .......who1..U5.
2510: F0 FF FF 7F F0 FF FF 7F  77 68 6F 31 1B 45 35 80  ........who1.E5.
2520: F0 FF FF 7F F0 FF FF 7F  77 68 6F 32 00 80 55 35  ........who2..U5
2530: 80 F0 FF FF 7F F0 FF FF  7F 77 68 6F 32 1B 45 35  .........who2.E5
2540: 80 F0 FF FF 7F F0 FF FF  7F 77 68 6F 33 00 80 55  .........who3..U
2550: 35 80 F0 FF FF 7F F0 FF  FF 7F 77 68 6F 33 1B 62  5.........who3.b
2560: 05 80 F0 FF FF 7F F0 FF  FF 7F 6D 61 69 6E 00 80  ..........main..
2570: 1C 97 80 45 0E 80 F0 FF  FF 7F F0 FF FF 7F 66 64  ...E..........fd
2580: 6F 31 00 80 55 0E 80 F0  FF FF 7F F0 FF FF 7F 66  o1..U..........f
2590: 64 6F 31 1B 45 0E 80 F0  FF FF 7F F0 FF FF 7F 66  do1.E..........f
25A0: 64 69 31 00 80 62 09 80  F0 FF FF 7F F0 FF FF 7F  di1..b..........
25B0: 6D 61 69 6E 00 80 1C 2A  80 55 0E 80 F0 FF FF 7F  main...*.U......
25C0: F0 FF FF 7F 66 64 69 31  1B 45 0E 80 F0 FF FF 7F  ....fdi1.E......
25D0: F0 FF FF 7F 62 6C 6F 6E  00 80 45 35 80 F0 FF FF  ....blon..E5....
25E0: 7F F0 FF FF 7F 62 6C 6F  6E 00 80 1B 45 35 80 F0  .....blon...E5..
25F0: FF FF 7F F0 FF FF 7F 77  68 69 30 00 80 55 35 80  .......whi0..U5.
2600: F0 FF FF 7F F0 FF FF 7F  77 68 69 30 1B 45 35 80  ........whi0.E5.
2610: F0 FF FF 7F F0 FF FF 7F  77 68 6F 30 00 80 55 35  ........who0..U5
2620: 80 F0 FF FF 7F F0 FF FF  7F 77 68 6F 30 1B 45 D8  .........who0.E.
2630: 80 F0 FF FF 7F F0 FF FF  7F 65 66 6F 6E 00 80 55  .........efon..U
2640: D8 80 F0 FF FF 7F F0 FF  FF 7F 65 66 6F 6E 1B 45  ..........efon.E
2650: 0E 80 F0 FF FF 7F F0 FF  FF 7F 66 64 69 73 00 80  ..........fdis..
2660: 1B 45 0E 80 F0 FF FF 7F  F0 FF FF 7F 66 64 6F 73  .E..........fdos
2670: 00 80 55 0E 80 F0 FF FF  7F F0 FF FF 7F 66 64 6F  ..U..........fdo
2680: 73 1B 45 0E 80 F0 FF FF  7F F0 FF FF 7F 66 64 69  s.E..........fdi
2690: 66 00 80 1B 45 0E 80 F0  FF FF 7F F0 FF FF 7F 66  f...E..........f
26A0: 64 6F 66 00 80 55 0E 80  F0 FF FF 7F F0 FF FF 7F  dof..U..........
26B0: 66 64 6F 66 1B 45 0E 80  F0 FF FF 7F F0 FF FF 7F  fdof.E..........
26C0: 66 64 69 70 00 80 1B 45  0E 80 F0 FF FF 7F F0 FF  fdip...E........
26D0: FF 7F 66 64 6F 70 00 80  55 0E 80 F0 FF FF 7F F0  ..fdop..U.......
26E0: FF FF 7F 66 64 6F 70 1B  02 00 00 05 80 80 07 27  ...fdop........'
26F0: 03 09 00 D9 80 03 0A 00  DA 80 03 0B 00 DB 80 03  ................
2700: 0C 00 DC 80 01 64 27 02  00 00 09 80 80 26 27 03  .....d'......&'.
2710: 09 00 DD 80 03 0A 00 DE  80 03 0B 00 DF 80 03 0C  ................
2720: 00 E0 80 01 64 27 02 00  00 0A 80 80 45 27 03 09  ....d'......E'..
2730: 00 E1 80 03 0A 00 E2 80  03 0B 00 E3 80 03 0C 00  ................
2740: E4 80 01 64 27 02 00 00  0B 80 80 64 27 03 09 00  ...d'......d'...
2750: 00 80 03 0A 00 00 80 03  0B 00 00 80 03 0C 00 00  ................
2760: 80 01 64 27 1B                                    ..d'.           
```

#### Opcodes

```
  0: 0x0E58 [0x06] ExtData[1]->WorkLocal[29] = 0
  1: 0x0E5B [0x06] ExtData[1]->WorkLocal[30] = 0
  2: 0x0E5E [0x03] ExtData[1]->WorkLocal[33] = Work_Zone[6]
  3: 0x0E63 [0x03] ExtData[1]->WorkLocal[32] = Work_Zone[7]
  4: 0x0E68 [0x03] ExtData[1]->WorkLocal[31] = Work_Zone[8]
  5: 0x0E6D [0x06] Work_Zone[1] = 0
  6: 0x0E70 [0x1A] CALL_SUBROUTINE(address=0x22A7)
  7: 0x0E73 [0x02] IF !(ExtData[1]->WorkLocal[29] == 1*) GOTO 0x1009
  8: 0x0E7B [0x42] SET_CLI_EVENT_CANCEL_DATA()
  9: 0x0E7C [0x03] Work_Zone[1] = 2*
 10: 0x0E81 [0x43] SEND_EVENT_UPDATE: Send pending tag to server (packet 0x005B)
 11: 0x0E83 [0x43] SEND_EVENT_UPDATE: Check pending flag (skip if not pending)
 12: 0x0E85 [0x03] Work_Zone[1] = 3*
 13: 0x0E8A [0x43] SEND_EVENT_UPDATE: Send pending tag to server (packet 0x005B)
 14: 0x0E8C [0x43] SEND_EVENT_UPDATE: Check pending flag (skip if not pending)
 15: 0x0E8E [0x1A] CALL_SUBROUTINE(address=0x22BE)
 16: 0x0E91 [0x02] IF !(ExtData[1]->WorkLocal[30] == 1*) GOTO 0x1009
 17: 0x0E99 [0x45] LOAD_SCHEDULED_TASK: Load scheduler "fdo1" with entities [LocalPlayer, LocalPlayer], work=[200*, 0*]
 18: 0x0EAA [0x55] WAIT_LOAD_SCHEDULER: Wait for scheduler "fdo1" with entities [LocalPlayer, LocalPlayer], work=200*
 19: 0x0EB9 [0x03] Work_Zone[1] = 4*
 20: 0x0EBE [0x02] IF !(ExtData[1]->WorkLocal[32] == 180*) GOTO 0x0F48
 21: 0x0EC6 [0x02] IF !(ExtData[1]->WorkLocal[33] == 0*) GOTO 0x0EDD
 22: 0x0ECE [0x47] UPDATE_PLAYER_POS(-605.141*, 479.929*, -22.681*, yaw=87.2°*)
 23: 0x0ED8 [0x47] WAIT_PLAYER_POS_UPDATE
 24: 0x0EDA [0x01] GOTO 0x0F45
 25: 0x0EDD [0x02] IF !(ExtData[1]->WorkLocal[33] == 1*) GOTO 0x0EF4
 26: 0x0EE5 [0x47] UPDATE_PLAYER_POS(-262.589*, 377.857*, -137.313*, yaw=305.3°*)
 27: 0x0EEF [0x47] WAIT_PLAYER_POS_UPDATE
 28: 0x0EF1 [0x01] GOTO 0x0F45
 29: 0x0EF4 [0x02] IF !(ExtData[1]->WorkLocal[33] == 2*) GOTO 0x0F0B
 30: 0x0EFC [0x47] UPDATE_PLAYER_POS(18.348*, 486.940*, -224.334*, yaw=17.1°*)
 31: 0x0F06 [0x47] WAIT_PLAYER_POS_UPDATE
 32: 0x0F08 [0x01] GOTO 0x0F45
 33: 0x0F0B [0x02] IF !(ExtData[1]->WorkLocal[33] == 3*) GOTO 0x0F22
 34: 0x0F13 [0x47] UPDATE_PLAYER_POS(231.593*, 360.094*, -173.572*, yaw=160.8°*)
 35: 0x0F1D [0x47] WAIT_PLAYER_POS_UPDATE
 36: 0x0F1F [0x01] GOTO 0x0F45
 37: 0x0F22 [0x02] IF !(ExtData[1]->WorkLocal[33] == 4*) GOTO 0x0F39
