# 17748010 - Karst

## Common Data

| Field            | Value                |
|------------------|----------------------|
| Zone             | Metalworks (ID: 237) |
| Block Size       | 1204 bytes           |
| Total Events     | 40                   |
| References Count | 96                   |

## List of Events

| Event ID                   | Entrypoint   |   Size |   Instructions |
|----------------------------|--------------|--------|----------------|
| [65535](#event-65535)      | 0x0000       |      1 |              1 |
| [65535.1](#event-655351)   | 0x0001       |     11 |              3 |
| [601](#event-601)          | 0x000C       |     11 |              5 |
| [65535.2](#event-655352)   | 0x0017       |      6 |              2 |
| [713](#event-713)          | 0x001D       |     10 |              2 |
| [714](#event-714)          | 0x0027       |     12 |              3 |
| [65535.3](#event-655353)   | 0x0033       |     19 |              5 |
| [65535.4](#event-655354)   | 0x0046       |     19 |              6 |
| [65535.5](#event-655355)   | 0x0059       |     19 |              5 |
| [65535.6](#event-655356)   | 0x006C       |     14 |              4 |
| [720](#event-720)          | 0x007A       |     10 |              2 |
| [65535.7](#event-655357)   | 0x0084       |     71 |             12 |
| [65535.8](#event-655358)   | 0x00CB       |     29 |              7 |
| [721](#event-721)          | 0x00E8       |     13 |              4 |
| [65535.9](#event-655359)   | 0x00F5       |     14 |              4 |
| [722](#event-722)          | 0x0103       |     10 |              2 |
| [602](#event-602)          | 0x010D       |      1 |              1 |
| [65535.10](#event-6553510) | 0x010E       |     14 |              4 |
| [65535.11](#event-6553511) | 0x011C       |     27 |              7 |
| [65535.12](#event-6553512) | 0x0137       |     16 |              4 |
| [603](#event-603)          | 0x0147       |     11 |              3 |
| [65535.13](#event-6553513) | 0x0152       |     65 |             11 |
| [765](#event-765)          | 0x0193       |      1 |              1 |
| [766](#event-766)          | 0x0194       |      1 |              1 |
| [65535.14](#event-6553514) | 0x0195       |     14 |              4 |
| [65535.15](#event-6553515) | 0x01A3       |     58 |             10 |
| [65535.16](#event-6553516) | 0x01DD       |     24 |              6 |
| [780](#event-780)          | 0x01F5       |     10 |              2 |
| [65535.17](#event-6553517) | 0x01FF       |     14 |              4 |
| [65535.18](#event-6553518) | 0x020D       |     14 |              4 |
| [782](#event-782)          | 0x021B       |     10 |              2 |
| [65535.19](#event-6553519) | 0x0225       |     34 |              8 |
| [65535.20](#event-6553520) | 0x0247       |     20 |              3 |
| [829](#event-829)          | 0x025B       |      1 |              1 |
| [65535.21](#event-6553521) | 0x025C       |     10 |              2 |
| [65535.22](#event-6553522) | 0x0266       |     14 |              4 |
| [65535.23](#event-6553523) | 0x0274       |     14 |              4 |
| [968](#event-968)          | 0x0282       |      1 |              1 |

## DAT References (imed_data)

|   Index | Hex Value   |   Dec Value |
|---------|-------------|-------------|
|       0 | 0x1A1EE     |      106990 |
|       1 | 0x00C5      |         197 |
|       2 | 0xFFFFB136  |  4294947126 |
|       3 | 0x0800      |        2048 |
|       4 | 0x1D61      |        7521 |
|       5 | 0x1A49B     |      107675 |
|       6 | 0x017D      |         381 |
|       7 | 0x0000      |           0 |
|       8 | 0x15D7E     |       89470 |
|       9 | 0x0F2F      |        3887 |
|      10 | 0xFFFFB3B4  |  4294947764 |
|      11 | 0x0387      |         903 |
|      12 | 0x000D      |          13 |
|      13 | 0x1A0E6     |      106726 |
|      14 | 0x00E2      |         226 |
|      15 | 0x003C      |          60 |
|      16 | 0x1628C     |       90764 |
|      17 | 0x0472      |        1138 |
|      18 | 0x16378     |       91000 |
|      19 | 0x173E3     |       95203 |
|      20 | 0xFFFFFFE4  |  4294967268 |
|      21 | 0x1A5E0     |      108000 |
|      22 | 0x11A2      |        4514 |
|      23 | 0x0818      |        2072 |
|      24 | 0x19F87     |      106375 |
|      25 | 0x10DF      |        4319 |
|      26 | 0x19449     |      103497 |
|      27 | 0x0C62      |        3170 |
|      28 | 0x18E03     |      101891 |
|      29 | 0x00D7      |         215 |
|      30 | 0xFFFFB12B  |  4294947115 |
|      31 | 0x1893B     |      100667 |
|      32 | 0xFFFFFE9B  |  4294966939 |
|      33 | 0x1A063     |      106595 |
|      34 | 0x3390      |       13200 |
|      35 | 0xFFFFB12E  |  4294947118 |
|      36 | 0x0320      |         800 |
|      37 | 0x1A550     |      107856 |
|      38 | 0x2FE0      |       12256 |
|      39 | 0x1A0D6     |      106710 |
|      40 | 0x010E      |         270 |
|      41 | 0x03E8      |        1000 |
|      42 | 0x1A860     |      108640 |
|      43 | 0x071C      |        1820 |
|      44 | 0x1AB86     |      109446 |
|      45 | 0x2EE0      |       12000 |
|      46 | 0x0A12      |        2578 |
|      47 | 0x001E      |          30 |
|      48 | 0x1A025     |      106533 |
|      49 | 0x38D9      |       14553 |
|      50 | 0x1A5F0     |      108016 |
|      51 | 0x241A      |        9242 |
|      52 | 0x0A95      |        2709 |
|      53 | 0x1A25B     |      107099 |
|      54 | 0xFFFFFCE0  |  4294966496 |
|      55 | 0x0E41      |        3649 |
|      56 | 0x19DCF     |      105935 |
|      57 | 0x10B8      |        4280 |
|      58 | 0xFFFFB138  |  4294947128 |
|      59 | 0x04D9      |        1241 |
|      60 | 0x193B4     |      103348 |
|      61 | 0x0016      |          22 |
|      62 | 0x1ABB7     |      109495 |
|      63 | 0x078D      |        1933 |
|      64 | 0x1BC14     |      113684 |
|      65 | 0xFFFFF007  |  4294963207 |
|      66 | 0x0489      |        1161 |
|      67 | 0x1B8EF     |      112879 |
|      68 | 0xFFFFE0CF  |  4294959311 |
|      69 | 0x0096      |         150 |
|      70 | 0x0078      |         120 |
|      71 | 0x07BB      |        1979 |
|      72 | 0x1946B     |      103531 |
|      73 | 0x033D      |         829 |
|      74 | 0x0045      |          69 |
|      75 | 0x190AE     |      102574 |
|      76 | 0x003B      |          59 |
|      77 | 0x1867F     |       99967 |
|      78 | 0x0056      |          86 |
|      79 | 0x19AAB     |      105131 |
|      80 | 0x0FA0      |        4000 |
|      81 | 0x1982F     |      104495 |
|      82 | 0x07E6      |        2022 |
|      83 | 0x19F73     |      106355 |
|      84 | 0x1020      |        4128 |
|      85 | 0x1AD8C     |      109964 |
|      86 | 0x11A1      |        4513 |
|      87 | 0x1A35E     |      107358 |
|      88 | 0x3B06      |       15110 |
|      89 | 0x04F0      |        1264 |
|      90 | 0x19836     |      104502 |
|      91 | 0xFFFFFFE7  |  4294967271 |
|      92 | 0x0E7C      |        3708 |
|      93 | 0x1876A     |      100202 |
|      94 | 0x1A426     |      107558 |
|      95 | 0x114A      |        4426 |

## String References

- **7521**: Do you not have any missions to complete? If not, go get one and stop bothering me.

## Events

### Event 65535

#### Metadata

| Field        | Value   |
|--------------|---------|
| Entrypoint   | 0x0000  |
| Data Size    | 1 bytes |
| Instructions | 1       |

```
      00 01 02 03 04 05 06 07  08 09 0A 0B 0C 0D 0E 0F
      -- -- -- -- -- -- -- --  -- -- -- -- -- -- -- --
0000: 00                                                .               
```

#### Opcodes

```
  0: 0x0000 [0x00] END_REQSTACK()
```

### Event 65535.1

#### Metadata

| Field        | Value    |
|--------------|----------|
| Entrypoint   | 0x0001   |
| Data Size    | 11 bytes |
| Instructions | 3        |

```
      00 01 02 03 04 05 06 07  08 09 0A 0B 0C 0D 0E 0F
      -- -- -- -- -- -- -- --  -- -- -- -- -- -- -- --
0000:    37 00 80 01 80 02 80  03 80 84 00               7..........    
```

#### Opcodes

```
  0: 0x0001 [0x37] UPDATE_EVENT_POSITION_AND_DIR: x=106.990*, z=0.197*, y=-20.170*, direction=180.0°*
  1: 0x000A [0x84] ADJUST_RENDER_FLAGS3_BIT0()
  2: 0x000B [0x00] END_REQSTACK()
```

### Event 601

#### Metadata

| Field        | Value    |
|--------------|----------|
| Entrypoint   | 0x000C   |
| Data Size    | 11 bytes |
| Instructions | 5        |

```
      00 01 02 03 04 05 06 07  08 09 0A 0B 0C 0D 0E 0F
      -- -- -- -- -- -- -- --  -- -- -- -- -- -- -- --
0000:                                      1E F0 FF FF              ....
0010: 7F 1D 04 80 23 21 00                              ....#!.         
```

#### Opcodes

```
  0: 0x000C [0x1E] EventEntity looks at LocalPlayer and starts talking
  1: 0x0011 [0x1D] PRINT_EVENT_MESSAGE(message_id=7521*)
    → "Do you not have any missions to complete? If not, go get one and stop bothering me."
  2: 0x0014 [0x23] WAIT_FOR_DIALOG_INTERACTION
  3: 0x0015 [0x21] END_EVENT
  4: 0x0016 [0x00] END_REQSTACK()
```

### Event 65535.2

#### Metadata

| Field        | Value   |
|--------------|---------|
| Entrypoint   | 0x0017  |
| Data Size    | 6 bytes |
| Instructions | 2       |

```
      00 01 02 03 04 05 06 07  08 09 0A 0B 0C 0D 0E 0F
      -- -- -- -- -- -- -- --  -- -- -- -- -- -- -- --
0010:                      5E  69 64 6C 30 00                  ^idl0.   
```

#### Opcodes

```
  0: 0x0017 [0x5E] EventEntity goes idle (kills current action) (animation: "idl0")
  1: 0x001C [0x00] END_REQSTACK()
```

### Event 713

#### Metadata

| Field        | Value    |
|--------------|----------|
| Entrypoint   | 0x001D   |
| Data Size    | 10 bytes |
| Instructions | 2        |

```
      00 01 02 03 04 05 06 07  08 09 0A 0B 0C 0D 0E 0F
      -- -- -- -- -- -- -- --  -- -- -- -- -- -- -- --
0010:                                         37 05 80               7..
0020: 06 80 02 80 07 80 00                              .......         
```

#### Opcodes

```
  0: 0x001D [0x37] UPDATE_EVENT_POSITION_AND_DIR: x=107.675*, z=0.381*, y=-20.170*, direction=0.0°*
  1: 0x0026 [0x00] END_REQSTACK()
```

### Event 714

#### Metadata

| Field        | Value    |
|--------------|----------|
| Entrypoint   | 0x0027   |
| Data Size    | 12 bytes |
| Instructions | 3        |

```
      00 01 02 03 04 05 06 07  08 09 0A 0B 0C 0D 0E 0F
      -- -- -- -- -- -- -- --  -- -- -- -- -- -- -- --
0020:                      22  01 37 08 80 09 80 0A 80         ".7......
0030: 0B 80 00                                          ...             
```

#### Opcodes

```
  0: 0x0027 [0x22] ENTITY_HIDE_FLAG(enabled=0x01)
  1: 0x0029 [0x37] UPDATE_EVENT_POSITION_AND_DIR: x=89.470*, z=3.887*, y=-19.532*, direction=79.4°*
  2: 0x0032 [0x00] END_REQSTACK()
```

### Event 65535.3

#### Metadata

| Field        | Value    |
|--------------|----------|
| Entrypoint   | 0x0033   |
| Data Size    | 19 bytes |
| Instructions | 5        |

```
      00 01 02 03 04 05 06 07  08 09 0A 0B 0C 0D 0E 0F
      -- -- -- -- -- -- -- --  -- -- -- -- -- -- -- --
0030:          32 0C 80 1F 00  0D 80 0E 80 02 80 1F 01     2............
0040: 1E F0 FF FF 7F 00                                 ......          
```

#### Opcodes

```
  0: 0x0033 [0x32] ExtData[1]->MainSpeed = 13* * 0.1
  1: 0x0036 [0x1F] MOVE_ENTITY: EventEntity moves to X=106.726*, Z=0.226*, Y=-20.170*
  2: 0x003E [0x1F] MOVE_ENTITY: Update entity position (mode=1)
  3: 0x0040 [0x1E] EventEntity looks at LocalPlayer and starts talking
  4: 0x0045 [0x00] END_REQSTACK()
```

### Event 65535.4

#### Metadata

| Field        | Value    |
|--------------|----------|
| Entrypoint   | 0x0046   |
| Data Size    | 19 bytes |
| Instructions | 6        |

```
      00 01 02 03 04 05 06 07  08 09 0A 0B 0C 0D 0E 0F
      -- -- -- -- -- -- -- --  -- -- -- -- -- -- -- --
0040:                   22 00  1C 0F 80 32 0C 80 1F 00        "....2....
0050: 10 80 11 80 0A 80 1F 01  00                       .........       
```

#### Opcodes

```
  0: 0x0046 [0x22] ENTITY_HIDE_FLAG(enabled=0x00)
  1: 0x0048 [0x1C] WAIT(60* ticks)
  2: 0x004B [0x32] ExtData[1]->MainSpeed = 13* * 0.1
  3: 0x004E [0x1F] MOVE_ENTITY: EventEntity moves to X=90.764*, Z=1.138*, Y=-19.532*
  4: 0x0056 [0x1F] MOVE_ENTITY: Update entity position (mode=1)
  5: 0x0058 [0x00] END_REQSTACK()
```

### Event 65535.5

#### Metadata

| Field        | Value    |
|--------------|----------|
| Entrypoint   | 0x0059   |
| Data Size    | 19 bytes |
| Instructions | 5        |

```
      00 01 02 03 04 05 06 07  08 09 0A 0B 0C 0D 0E 0F
      -- -- -- -- -- -- -- --  -- -- -- -- -- -- -- --
0050:                             32 0C 80 1F 00 12 80           2......
0060: 07 80 0A 80 1F 01 1E F0  FF FF 7F 00              ............    
```

#### Opcodes

```
  0: 0x0059 [0x32] ExtData[1]->MainSpeed = 13* * 0.1
  1: 0x005C [0x1F] MOVE_ENTITY: EventEntity moves to X=91.000*, Z=0.000*, Y=-19.532*
  2: 0x0064 [0x1F] MOVE_ENTITY: Update entity position (mode=1)
  3: 0x0066 [0x1E] EventEntity looks at LocalPlayer and starts talking
  4: 0x006B [0x00] END_REQSTACK()
```

### Event 65535.6

#### Metadata

| Field        | Value    |
|--------------|----------|
| Entrypoint   | 0x006C   |
| Data Size    | 14 bytes |
| Instructions | 4        |

```
      00 01 02 03 04 05 06 07  08 09 0A 0B 0C 0D 0E 0F
      -- -- -- -- -- -- -- --  -- -- -- -- -- -- -- --
0060:                                      32 0C 80 1F              2...
0070: 00 13 80 14 80 02 80 1F  01 00                    ..........      
```

#### Opcodes

```
  0: 0x006C [0x32] ExtData[1]->MainSpeed = 13* * 0.1
  1: 0x006F [0x1F] MOVE_ENTITY: EventEntity moves to X=95.203*, Z=-0.028*, Y=-20.170*
  2: 0x0077 [0x1F] MOVE_ENTITY: Update entity position (mode=1)
  3: 0x0079 [0x00] END_REQSTACK()
```

### Event 720

#### Metadata

| Field        | Value    |
|--------------|----------|
| Entrypoint   | 0x007A   |
| Data Size    | 10 bytes |
| Instructions | 2        |

```
      00 01 02 03 04 05 06 07  08 09 0A 0B 0C 0D 0E 0F
      -- -- -- -- -- -- -- --  -- -- -- -- -- -- -- --
0070:                                37 15 80 16 80 02            7.....
0080: 80 17 80 00                                       ....            
```

#### Opcodes

```
  0: 0x007A [0x37] UPDATE_EVENT_POSITION_AND_DIR: x=108.000*, z=4.514*, y=-20.170*, direction=182.1°*
  1: 0x0083 [0x00] END_REQSTACK()
```

### Event 65535.7

#### Metadata

| Field        | Value    |
|--------------|----------|
| Entrypoint   | 0x0084   |
| Data Size    | 71 bytes |
| Instructions | 12       |

```
      00 01 02 03 04 05 06 07  08 09 0A 0B 0C 0D 0E 0F
      -- -- -- -- -- -- -- --  -- -- -- -- -- -- -- --
0080:             22 00 32 0C  80 37 15 80 16 80 02 80      ".2..7......
0090: 17 80 1F 00 18 80 19 80  02 80 1F 01 4A 2B D0 0E  ............J+..
00A0: 01 2A D0 0E 01 4A 30 D0  0E 01 2A D0 0E 01 4A 2E  .*...J0...*...J.
00B0: D0 0E 01 2A D0 0E 01 4A  32 D0 0E 01 2A D0 0E 01  ...*...J2...*...
00C0: 1F 00 1A 80 1B 80 02 80  1F 01 00                 ...........     
```

#### Opcodes

```
  0: 0x0084 [0x22] ENTITY_HIDE_FLAG(enabled=0x00)
  1: 0x0086 [0x32] ExtData[1]->MainSpeed = 13* * 0.1
  2: 0x0089 [0x37] UPDATE_EVENT_POSITION_AND_DIR: x=108.000*, z=4.514*, y=-20.170*, direction=182.1°*
  3: 0x0092 [0x1F] MOVE_ENTITY: EventEntity moves to X=106.375*, Z=4.319*, Y=-20.170*
  4: 0x009A [0x1F] MOVE_ENTITY: Update entity position (mode=1)
  5: 0x009C [0x4A] Cid (ID: 17748011/0x010ED02B) looks at Karst (ID: 17748010/0x010ED02A)
  6: 0x00A5 [0x4A] Iron Eater (ID: 17748016/0x010ED030) looks at Karst (ID: 17748010/0x010ED02A)
  7: 0x00AE [0x4A] Volker (ID: 17748014/0x010ED02E) looks at Karst (ID: 17748010/0x010ED02A)
  8: 0x00B7 [0x4A] Cornelia (ID: 17748018/0x010ED032) looks at Karst (ID: 17748010/0x010ED02A)
  9: 0x00C0 [0x1F] MOVE_ENTITY: EventEntity moves to X=103.497*, Z=3.170*, Y=-20.170*
 10: 0x00C8 [0x1F] MOVE_ENTITY: Update entity position (mode=1)
 11: 0x00CA [0x00] END_REQSTACK()
```

### Event 65535.8

#### Metadata

| Field        | Value    |
|--------------|----------|
| Entrypoint   | 0x00CB   |
| Data Size    | 29 bytes |
| Instructions | 7        |

```
      00 01 02 03 04 05 06 07  08 09 0A 0B 0C 0D 0E 0F
      -- -- -- -- -- -- -- --  -- -- -- -- -- -- -- --
00C0:                                   32 0C 80 1F 00             2....
00D0: 1C 80 1D 80 1E 80 1F 01  1F 00 1F 80 20 80 1E 80  ............ ...
00E0: 1F 01 1E F0 FF FF 7F 00                           ........        
```

#### Opcodes

```
  0: 0x00CB [0x32] ExtData[1]->MainSpeed = 13* * 0.1
  1: 0x00CE [0x1F] MOVE_ENTITY: EventEntity moves to X=101.891*, Z=0.215*, Y=-20.181*
  2: 0x00D6 [0x1F] MOVE_ENTITY: Update entity position (mode=1)
  3: 0x00D8 [0x1F] MOVE_ENTITY: EventEntity moves to X=100.667*, Z=-0.357*, Y=-20.181*
  4: 0x00E0 [0x1F] MOVE_ENTITY: Update entity position (mode=1)
  5: 0x00E2 [0x1E] EventEntity looks at LocalPlayer and starts talking
  6: 0x00E7 [0x00] END_REQSTACK()
```

### Event 721

#### Metadata

| Field        | Value    |
|--------------|----------|
| Entrypoint   | 0x00E8   |
| Data Size    | 13 bytes |
| Instructions | 4        |

```
      00 01 02 03 04 05 06 07  08 09 0A 0B 0C 0D 0E 0F
      -- -- -- -- -- -- -- --  -- -- -- -- -- -- -- --
00E0:                          37 21 80 22 80 23 80 24          7!.".#.$
00F0: 80 22 00 84 00                                    ."...           
```

#### Opcodes

```
  0: 0x00E8 [0x37] UPDATE_EVENT_POSITION_AND_DIR: x=106.595*, z=13.200*, y=-20.178*, direction=70.3°*
  1: 0x00F1 [0x22] ENTITY_HIDE_FLAG(enabled=0x00)
  2: 0x00F3 [0x84] ADJUST_RENDER_FLAGS3_BIT0()
  3: 0x00F4 [0x00] END_REQSTACK()
```

### Event 65535.9

#### Metadata

| Field        | Value    |
|--------------|----------|
| Entrypoint   | 0x00F5   |
| Data Size    | 14 bytes |
| Instructions | 4        |

```
      00 01 02 03 04 05 06 07  08 09 0A 0B 0C 0D 0E 0F
      -- -- -- -- -- -- -- --  -- -- -- -- -- -- -- --
00F0:                32 0C 80  1F 00 25 80 26 80 23 80       2....%.&.#.
0100: 1F 01 00                                          ...             
```

#### Opcodes

```
  0: 0x00F5 [0x32] ExtData[1]->MainSpeed = 13* * 0.1
  1: 0x00F8 [0x1F] MOVE_ENTITY: EventEntity moves to X=107.856*, Z=12.256*, Y=-20.178*
  2: 0x0100 [0x1F] MOVE_ENTITY: Update entity position (mode=1)
  3: 0x0102 [0x00] END_REQSTACK()
```

### Event 722

#### Metadata

| Field        | Value    |
|--------------|----------|
| Entrypoint   | 0x0103   |
| Data Size    | 10 bytes |
| Instructions | 2        |

```
      00 01 02 03 04 05 06 07  08 09 0A 0B 0C 0D 0E 0F
      -- -- -- -- -- -- -- --  -- -- -- -- -- -- -- --
0100:          37 27 80 28 80  02 80 29 80 00              7'.(...)..   
```

#### Opcodes

```
  0: 0x0103 [0x37] UPDATE_EVENT_POSITION_AND_DIR: x=106.710*, z=0.270*, y=-20.170*, direction=87.9°*
  1: 0x010C [0x00] END_REQSTACK()
```

### Event 602

#### Metadata

| Field        | Value   |
|--------------|---------|
| Entrypoint   | 0x010D  |
| Data Size    | 1 bytes |
| Instructions | 1       |

```
      00 01 02 03 04 05 06 07  08 09 0A 0B 0C 0D 0E 0F
      -- -- -- -- -- -- -- --  -- -- -- -- -- -- -- --
0100:                                         00                     .  
```

#### Opcodes

```
  0: 0x010D [0x00] END_REQSTACK()
```

### Event 65535.10

#### Metadata

| Field        | Value    |
|--------------|----------|
| Entrypoint   | 0x010E   |
| Data Size    | 14 bytes |
| Instructions | 4        |

```
      00 01 02 03 04 05 06 07  08 09 0A 0B 0C 0D 0E 0F
      -- -- -- -- -- -- -- --  -- -- -- -- -- -- -- --
0100:                                            32 0C                2.
0110: 80 1F 00 2A 80 2B 80 02  80 1F 01 00              ...*.+......    
```

#### Opcodes

```
  0: 0x010E [0x32] ExtData[1]->MainSpeed = 13* * 0.1
  1: 0x0111 [0x1F] MOVE_ENTITY: EventEntity moves to X=108.640*, Z=1.820*, Y=-20.170*
  2: 0x0119 [0x1F] MOVE_ENTITY: Update entity position (mode=1)
  3: 0x011B [0x00] END_REQSTACK()
```

### Event 65535.11

#### Metadata

| Field        | Value    |
|--------------|----------|
| Entrypoint   | 0x011C   |
| Data Size    | 27 bytes |
| Instructions | 7        |

```
      00 01 02 03 04 05 06 07  08 09 0A 0B 0C 0D 0E 0F
      -- -- -- -- -- -- -- --  -- -- -- -- -- -- -- --
0110:                                      32 0C 80 37              2..7
0120: 2C 80 2D 80 02 80 2E 80  84 1C 2F 80 1F 00 30 80  ,.-......./...0.
0130: 31 80 23 80 1F 01 00                              1.#....         
```

#### Opcodes

```
  0: 0x011C [0x32] ExtData[1]->MainSpeed = 13* * 0.1
  1: 0x011F [0x37] UPDATE_EVENT_POSITION_AND_DIR: x=109.446*, z=12.000*, y=-20.170*, direction=226.6°*
  2: 0x0128 [0x84] ADJUST_RENDER_FLAGS3_BIT0()
  3: 0x0129 [0x1C] WAIT(30* ticks)
  4: 0x012C [0x1F] MOVE_ENTITY: EventEntity moves to X=106.533*, Z=14.553*, Y=-20.178*
  5: 0x0134 [0x1F] MOVE_ENTITY: Update entity position (mode=1)
  6: 0x0136 [0x00] END_REQSTACK()
```

### Event 65535.12

#### Metadata

| Field        | Value    |
|--------------|----------|
| Entrypoint   | 0x0137   |
| Data Size    | 16 bytes |
| Instructions | 4        |

```
      00 01 02 03 04 05 06 07  08 09 0A 0B 0C 0D 0E 0F
      -- -- -- -- -- -- -- --  -- -- -- -- -- -- -- --
0130:                      84  37 32 80 33 80 1E 80 34         .72.3...4
0140: 80 1E 2E D0 0E 01 00                              .......         
```

#### Opcodes

```
  0: 0x0137 [0x84] ADJUST_RENDER_FLAGS3_BIT0()
  1: 0x0138 [0x37] UPDATE_EVENT_POSITION_AND_DIR: x=108.016*, z=9.242*, y=-20.181*, direction=238.1°*
  2: 0x0141 [0x1E] EventEntity looks at Volker (ID: 17748014/0x010ED02E) and starts talking
  3: 0x0146 [0x00] END_REQSTACK()
```

### Event 603

#### Metadata

| Field        | Value    |
|--------------|----------|
| Entrypoint   | 0x0147   |
| Data Size    | 11 bytes |
| Instructions | 3        |

```
      00 01 02 03 04 05 06 07  08 09 0A 0B 0C 0D 0E 0F
      -- -- -- -- -- -- -- --  -- -- -- -- -- -- -- --
0140:                      37  35 80 36 80 02 80 37 80         75.6...7.
0150: 84 00                                             ..              
```

#### Opcodes

```
  0: 0x0147 [0x37] UPDATE_EVENT_POSITION_AND_DIR: x=107.099*, z=-0.800*, y=-20.170*, direction=320.7°*
  1: 0x0150 [0x84] ADJUST_RENDER_FLAGS3_BIT0()
  2: 0x0151 [0x00] END_REQSTACK()
```

### Event 65535.13

#### Metadata

| Field        | Value    |
|--------------|----------|
| Entrypoint   | 0x0152   |
| Data Size    | 65 bytes |
| Instructions | 11       |

```
      00 01 02 03 04 05 06 07  08 09 0A 0B 0C 0D 0E 0F
      -- -- -- -- -- -- -- --  -- -- -- -- -- -- -- --
0150:       32 0C 80 37 38 80  39 80 3A 80 3B 80 84 1C    2..78.9.:.;...
0160: 2F 80 4A 18 D0 0E 01 2A  D0 0E 01 79 00 2E D0 0E  /.J....*...y....
0170: 01 2A D0 0E 01 79 00 2B  D0 0E 01 2A D0 0E 01 4A  .*...y.+...*...J
0180: F0 FF FF 7F 2A D0 0E 01  1F 00 3C 80 3D 80 3A 80  ....*.....<.=.:.
0190: 1F 01 00                                          ...             
```

#### Opcodes

```
  0: 0x0152 [0x32] ExtData[1]->MainSpeed = 13* * 0.1
  1: 0x0155 [0x37] UPDATE_EVENT_POSITION_AND_DIR: x=105.935*, z=4.280*, y=-20.168*, direction=109.1°*
  2: 0x015E [0x84] ADJUST_RENDER_FLAGS3_BIT0()
  3: 0x015F [0x1C] WAIT(30* ticks)
  4: 0x0162 [0x4A] Lucius (ID: 17747992/0x010ED018) looks at Karst (ID: 17748010/0x010ED02A)
  5: 0x016B [0x79] Volker (ID: 17748014/0x010ED02E) looks at Karst (ID: 17748010/0x010ED02A) (Basic look)
  6: 0x0175 [0x79] Cid (ID: 17748011/0x010ED02B) looks at Karst (ID: 17748010/0x010ED02A) (Basic look)
  7: 0x017F [0x4A] LocalPlayer looks at Karst (ID: 17748010/0x010ED02A)
  8: 0x0188 [0x1F] MOVE_ENTITY: EventEntity moves to X=103.348*, Z=0.022*, Y=-20.168*
  9: 0x0190 [0x1F] MOVE_ENTITY: Update entity position (mode=1)
 10: 0x0192 [0x00] END_REQSTACK()
```

### Event 765

#### Metadata

| Field        | Value   |
|--------------|---------|
| Entrypoint   | 0x0193  |
| Data Size    | 1 bytes |
| Instructions | 1       |

```
      00 01 02 03 04 05 06 07  08 09 0A 0B 0C 0D 0E 0F
      -- -- -- -- -- -- -- --  -- -- -- -- -- -- -- --
0190:          00                                          .            
```

#### Opcodes

```
  0: 0x0193 [0x00] END_REQSTACK()
```

### Event 766

#### Metadata

| Field        | Value   |
|--------------|---------|
| Entrypoint   | 0x0194  |
| Data Size    | 1 bytes |
| Instructions | 1       |

```
      00 01 02 03 04 05 06 07  08 09 0A 0B 0C 0D 0E 0F
      -- -- -- -- -- -- -- --  -- -- -- -- -- -- -- --
0190:             00                                        .           
```

#### Opcodes

```
  0: 0x0194 [0x00] END_REQSTACK()
```

### Event 65535.14

#### Metadata

| Field        | Value    |
|--------------|----------|
| Entrypoint   | 0x0195   |
| Data Size    | 14 bytes |
| Instructions | 4        |

```
      00 01 02 03 04 05 06 07  08 09 0A 0B 0C 0D 0E 0F
      -- -- -- -- -- -- -- --  -- -- -- -- -- -- -- --
0190:                32 0C 80  1F 00 3E 80 3F 80 02 80       2....>.?...
01A0: 1F 01 00                                          ...             
```

#### Opcodes

```
  0: 0x0195 [0x32] ExtData[1]->MainSpeed = 13* * 0.1
  1: 0x0198 [0x1F] MOVE_ENTITY: EventEntity moves to X=109.495*, Z=1.933*, Y=-20.170*
  2: 0x01A0 [0x1F] MOVE_ENTITY: Update entity position (mode=1)
  3: 0x01A2 [0x00] END_REQSTACK()
```

### Event 65535.15

#### Metadata

| Field        | Value    |
|--------------|----------|
| Entrypoint   | 0x01A3   |
| Data Size    | 58 bytes |
| Instructions | 10       |

```
      00 01 02 03 04 05 06 07  08 09 0A 0B 0C 0D 0E 0F
      -- -- -- -- -- -- -- --  -- -- -- -- -- -- -- --
01A0:          32 0C 80 37 40  80 41 80 02 80 42 80 84     2..7@.A...B..
01B0: 1F 00 43 80 44 80 02 80  1F 01 6F 5B 45 80 2A D0  ..C.D.....o[E.*.
01C0: 0E 01 2A D0 0E 01 73 69  7A 30 1C 46 80 5B 45 80  ..*...siz0.F.[E.
01D0: 2A D0 0E 01 2A D0 0E 01  73 69 7A 31 00           *...*...siz1.   
```

#### Opcodes

```
  0: 0x01A3 [0x32] ExtData[1]->MainSpeed = 13* * 0.1
  1: 0x01A6 [0x37] UPDATE_EVENT_POSITION_AND_DIR: x=113.684*, z=-4.089*, y=-20.170*, direction=102.0°*
  2: 0x01AF [0x84] ADJUST_RENDER_FLAGS3_BIT0()
  3: 0x01B0 [0x1F] MOVE_ENTITY: EventEntity moves to X=112.879*, Z=-7.985*, Y=-20.170*
  4: 0x01B8 [0x1F] MOVE_ENTITY: Update entity position (mode=1)
  5: 0x01BA [0x6F] WAIT_FRAME_DELAY: Yield until WaitTime reaches zero
  6: 0x01BB [0x5B] LOAD_EXT_SCHEDULER: Load scheduler "siz0" with entities [Karst (ID: 17748010/0x010ED02A), Karst (ID: 17748010/0x010ED02A)], work=150*
  7: 0x01CA [0x1C] WAIT(120* ticks)
  8: 0x01CD [0x5B] LOAD_EXT_SCHEDULER: Load scheduler "siz1" with entities [Karst (ID: 17748010/0x010ED02A), Karst (ID: 17748010/0x010ED02A)], work=150*
  9: 0x01DC [0x00] END_REQSTACK()
```

### Event 65535.16

#### Metadata

| Field        | Value    |
|--------------|----------|
| Entrypoint   | 0x01DD   |
| Data Size    | 24 bytes |
| Instructions | 6        |

```
      00 01 02 03 04 05 06 07  08 09 0A 0B 0C 0D 0E 0F
      -- -- -- -- -- -- -- --  -- -- -- -- -- -- -- --
01D0:                                         32 0C 80               2..
01E0: 1F 00 40 80 41 80 02 80  1F 01 37 00 80 01 80 02  ..@.A.....7.....
01F0: 80 47 80 84 00                                    .G...           
```

#### Opcodes

```
  0: 0x01DD [0x32] ExtData[1]->MainSpeed = 13* * 0.1
  1: 0x01E0 [0x1F] MOVE_ENTITY: EventEntity moves to X=113.684*, Z=-4.089*, Y=-20.170*
  2: 0x01E8 [0x1F] MOVE_ENTITY: Update entity position (mode=1)
  3: 0x01EA [0x37] UPDATE_EVENT_POSITION_AND_DIR: x=106.990*, z=0.197*, y=-20.170*, direction=173.9°*
  4: 0x01F3 [0x84] ADJUST_RENDER_FLAGS3_BIT0()
  5: 0x01F4 [0x00] END_REQSTACK()
```

### Event 780

#### Metadata

| Field        | Value    |
|--------------|----------|
| Entrypoint   | 0x01F5   |
| Data Size    | 10 bytes |
| Instructions | 2        |

```
      00 01 02 03 04 05 06 07  08 09 0A 0B 0C 0D 0E 0F
      -- -- -- -- -- -- -- --  -- -- -- -- -- -- -- --
01F0:                37 48 80  49 80 1E 80 4A 80 00          7H.I...J.. 
```

#### Opcodes

```
  0: 0x01F5 [0x37] UPDATE_EVENT_POSITION_AND_DIR: x=103.531*, z=0.829*, y=-20.181*, direction=6.1°*
  1: 0x01FE [0x00] END_REQSTACK()
```

### Event 65535.17

#### Metadata

| Field        | Value    |
|--------------|----------|
| Entrypoint   | 0x01FF   |
| Data Size    | 14 bytes |
| Instructions | 4        |

```
      00 01 02 03 04 05 06 07  08 09 0A 0B 0C 0D 0E 0F
      -- -- -- -- -- -- -- --  -- -- -- -- -- -- -- --
01F0:                                               32                 2
0200: 0C 80 1F 00 4B 80 4C 80  1E 80 1F 01 00           ....K.L......   
```

#### Opcodes

```
  0: 0x01FF [0x32] ExtData[1]->MainSpeed = 13* * 0.1
  1: 0x0202 [0x1F] MOVE_ENTITY: EventEntity moves to X=102.574*, Z=0.059*, Y=-20.181*
  2: 0x020A [0x1F] MOVE_ENTITY: Update entity position (mode=1)
  3: 0x020C [0x00] END_REQSTACK()
```

### Event 65535.18

#### Metadata

| Field        | Value    |
|--------------|----------|
| Entrypoint   | 0x020D   |
| Data Size    | 14 bytes |
| Instructions | 4        |

```
      00 01 02 03 04 05 06 07  08 09 0A 0B 0C 0D 0E 0F
      -- -- -- -- -- -- -- --  -- -- -- -- -- -- -- --
0200:                                         32 0C 80               2..
0210: 1F 00 4D 80 4E 80 1E 80  1F 01 00                 ..M.N......     
```

#### Opcodes

```
  0: 0x020D [0x32] ExtData[1]->MainSpeed = 13* * 0.1
  1: 0x0210 [0x1F] MOVE_ENTITY: EventEntity moves to X=99.967*, Z=0.086*, Y=-20.181*
  2: 0x0218 [0x1F] MOVE_ENTITY: Update entity position (mode=1)
  3: 0x021A [0x00] END_REQSTACK()
```

### Event 782

#### Metadata

| Field        | Value    |
|--------------|----------|
| Entrypoint   | 0x021B   |
| Data Size    | 10 bytes |
| Instructions | 2        |

```
      00 01 02 03 04 05 06 07  08 09 0A 0B 0C 0D 0E 0F
      -- -- -- -- -- -- -- --  -- -- -- -- -- -- -- --
0210:                                   37 4F 80 49 80             7O.I.
0220: 1E 80 50 80 00                                    ..P..           
```

#### Opcodes

```
  0: 0x021B [0x37] UPDATE_EVENT_POSITION_AND_DIR: x=105.131*, z=0.829*, y=-20.181*, direction=351.6°*
  1: 0x0224 [0x00] END_REQSTACK()
```

### Event 65535.19

#### Metadata

| Field        | Value    |
|--------------|----------|
| Entrypoint   | 0x0225   |
| Data Size    | 34 bytes |
| Instructions | 8        |

```
      00 01 02 03 04 05 06 07  08 09 0A 0B 0C 0D 0E 0F
      -- -- -- -- -- -- -- --  -- -- -- -- -- -- -- --
0220:                32 0C 80  1F 00 51 80 52 80 1E 80       2....Q.R...
0230: 1F 01 1F 00 53 80 54 80  02 80 1F 01 1F 00 55 80  ....S.T.......U.
0240: 56 80 02 80 1F 01 00                              V......         
```

#### Opcodes

```
  0: 0x0225 [0x32] ExtData[1]->MainSpeed = 13* * 0.1
  1: 0x0228 [0x1F] MOVE_ENTITY: EventEntity moves to X=104.495*, Z=2.022*, Y=-20.181*
  2: 0x0230 [0x1F] MOVE_ENTITY: Update entity position (mode=1)
  3: 0x0232 [0x1F] MOVE_ENTITY: EventEntity moves to X=106.355*, Z=4.128*, Y=-20.170*
  4: 0x023A [0x1F] MOVE_ENTITY: Update entity position (mode=1)
  5: 0x023C [0x1F] MOVE_ENTITY: EventEntity moves to X=109.964*, Z=4.513*, Y=-20.170*
  6: 0x0244 [0x1F] MOVE_ENTITY: Update entity position (mode=1)
  7: 0x0246 [0x00] END_REQSTACK()
```

### Event 65535.20

#### Metadata

| Field        | Value    |
|--------------|----------|
| Entrypoint   | 0x0247   |
| Data Size    | 20 bytes |
| Instructions | 3        |

```
      00 01 02 03 04 05 06 07  08 09 0A 0B 0C 0D 0E 0F
      -- -- -- -- -- -- -- --  -- -- -- -- -- -- -- --
0240:                      79  00 F8 FF FF 7F 32 D0 0E         y.....2..
0250: 01 37 57 80 58 80 23 80  59 80 00                 .7W.X.#.Y..     
```

#### Opcodes

```
  0: 0x0247 [0x79] EventEntity looks at Cornelia (ID: 17748018/0x010ED032) (Basic look)
  1: 0x0251 [0x37] UPDATE_EVENT_POSITION_AND_DIR: x=107.358*, z=15.110*, y=-20.178*, direction=111.1°*
  2: 0x025A [0x00] END_REQSTACK()
```

### Event 829

#### Metadata

| Field        | Value   |
|--------------|---------|
| Entrypoint   | 0x025B  |
| Data Size    | 1 bytes |
| Instructions | 1       |

```
      00 01 02 03 04 05 06 07  08 09 0A 0B 0C 0D 0E 0F
      -- -- -- -- -- -- -- --  -- -- -- -- -- -- -- --
0250:                                   00                         .    
```

#### Opcodes

```
  0: 0x025B [0x00] END_REQSTACK()
```

### Event 65535.21

#### Metadata

| Field        | Value    |
|--------------|----------|
| Entrypoint   | 0x025C   |
| Data Size    | 10 bytes |
| Instructions | 2        |

```
      00 01 02 03 04 05 06 07  08 09 0A 0B 0C 0D 0E 0F
      -- -- -- -- -- -- -- --  -- -- -- -- -- -- -- --
0250:                                      37 5A 80 5B              7Z.[
0260: 80 1E 80 5C 80 00                                 ...\..          
```

#### Opcodes

```
  0: 0x025C [0x37] UPDATE_EVENT_POSITION_AND_DIR: x=104.502*, z=-0.025*, y=-20.181*, direction=325.9°*
  1: 0x0265 [0x00] END_REQSTACK()
```

### Event 65535.22

#### Metadata

| Field        | Value    |
|--------------|----------|
| Entrypoint   | 0x0266   |
| Data Size    | 14 bytes |
| Instructions | 4        |

```
      00 01 02 03 04 05 06 07  08 09 0A 0B 0C 0D 0E 0F
      -- -- -- -- -- -- -- --  -- -- -- -- -- -- -- --
0260:                   32 0C  80 1F 00 5D 80 5B 80 1E        2....].[..
0270: 80 1F 01 00                                       ....            
```

#### Opcodes

```
  0: 0x0266 [0x32] ExtData[1]->MainSpeed = 13* * 0.1
  1: 0x0269 [0x1F] MOVE_ENTITY: EventEntity moves to X=100.202*, Z=-0.025*, Y=-20.181*
  2: 0x0271 [0x1F] MOVE_ENTITY: Update entity position (mode=1)
  3: 0x0273 [0x00] END_REQSTACK()
```

### Event 65535.23

#### Metadata

| Field        | Value    |
|--------------|----------|
| Entrypoint   | 0x0274   |
| Data Size    | 14 bytes |
| Instructions | 4        |

```
      00 01 02 03 04 05 06 07  08 09 0A 0B 0C 0D 0E 0F
      -- -- -- -- -- -- -- --  -- -- -- -- -- -- -- --
0270:             32 0C 80 1F  00 5E 80 5F 80 02 80 1F      2....^._....
0280: 01 00                                             ..              
```

#### Opcodes

```
  0: 0x0274 [0x32] ExtData[1]->MainSpeed = 13* * 0.1
  1: 0x0277 [0x1F] MOVE_ENTITY: EventEntity moves to X=107.558*, Z=4.426*, Y=-20.170*
  2: 0x027F [0x1F] MOVE_ENTITY: Update entity position (mode=1)
  3: 0x0281 [0x00] END_REQSTACK()
```

### Event 968

#### Metadata

| Field        | Value   |
|--------------|---------|
| Entrypoint   | 0x0282  |
| Data Size    | 1 bytes |
| Instructions | 1       |

```
      00 01 02 03 04 05 06 07  08 09 0A 0B 0C 0D 0E 0F
      -- -- -- -- -- -- -- --  -- -- -- -- -- -- -- --
0280:       00                                            .             
```

#### Opcodes

```
  0: 0x0282 [0x00] END_REQSTACK()
```
