# 17748062 - Quasim

## Common Data

| Field            | Value                |
|------------------|----------------------|
| Zone             | Metalworks (ID: 237) |
| Block Size       | 100 bytes            |
| Total Events     | 2                    |
| References Count | 7                    |

## List of Events

| Event ID              | Entrypoint   |   Size |   Instructions |
|-----------------------|--------------|--------|----------------|
| [65535](#event-65535) | 0x0000       |      1 |              1 |
| [742](#event-742)     | 0x0001       |     44 |             15 |

## DAT References (imed_data)

|   Index | Hex Value   |   Dec Value |
|---------|-------------|-------------|
|       0 | 0x1F4D      |        8013 |
|       1 | 0x1F4E      |        8014 |
|       2 | 0x0000      |           0 |
|       3 | 0xFFFFFFFF  |  4294967295 |
|       4 | 0x0003      |           3 |
|       5 | 0x1F4F      |        8015 |
|       6 | 0x1F50      |        8016 |

## String References

- **8013**: You are in the Metalworks. Would you like to see a map of Bastok?
- **8014**: Look at map of Bastok? [Yes./No.]
- **8015**: Factories, the Blacksmiths' Guild, and administrative buildings--including the President's Office--are all here in the Metalworks.
- **8016**: The Blacksmiths' Guild is on the first floor. Ride the elevator up to the second floor and go east past the water wheels to get to the President's Office.

## Events

### Event 65535

#### Metadata

| Field        | Value   |
|--------------|---------|
| Entrypoint   | 0x0000  |
| Data Size    | 1 bytes |
| Instructions | 1       |

```
      00 01 02 03 04 05 06 07  08 09 0A 0B 0C 0D 0E 0F
      -- -- -- -- -- -- -- --  -- -- -- -- -- -- -- --
0000: 00                                                .               
```

#### Opcodes

```
  0: 0x0000 [0x00] END_REQSTACK()
```

### Event 742

#### Metadata

| Field        | Value    |
|--------------|----------|
| Entrypoint   | 0x0001   |
| Data Size    | 44 bytes |
| Instructions | 15       |

```
      00 01 02 03 04 05 06 07  08 09 0A 0B 0C 0D 0E 0F
      -- -- -- -- -- -- -- --  -- -- -- -- -- -- -- --
0000:    1E F0 FF FF 7F 1D 00  80 23 24 01 80 02 80 02   ........#$.....
0010: 80 25 02 00 10 02 80 00  2B 00 8D 03 80 04 80 1D  .%......+.......
0020: 05 80 23 1D 06 80 23 8A  01 2B 00 21 00           ..#...#..+.!.   
```

#### Opcodes

```
  0: 0x0001 [0x1E] EventEntity looks at LocalPlayer and starts talking
  1: 0x0006 [0x1D] PRINT_EVENT_MESSAGE(message_id=8013*)
    → "You are in the Metalworks. Would you like to see a map of Bastok?"
  2: 0x0009 [0x23] WAIT_FOR_DIALOG_INTERACTION
  3: 0x000A [0x24] CREATE_DIALOG(message_id=8014*, default_option=0*, option_flags=0*)
    → "Look at map of Bastok? [Yes./No.]"
  4: 0x0011 [0x25] WAIT_DIALOG_SELECT()
  5: 0x0012 [0x02] IF !(Work_Zone[0] == 0*) GOTO 0x002B
  6: 0x001A [0x8D] OPEN_MAP_WITH_PROPERTIES(map_id=4294967295*, properties=3*)
  7: 0x001F [0x1D] PRINT_EVENT_MESSAGE(message_id=8015*)
    → "Factories, the Blacksmiths' Guild, and administrative buildings--including the President's Office--are all here in the Metalworks."
  8: 0x0022 [0x23] WAIT_FOR_DIALOG_INTERACTION
  9: 0x0023 [0x1D] PRINT_EVENT_MESSAGE(message_id=8016*)
    → "The Blacksmiths' Guild is on the first floor. Ride the elevator up to the second floor and go east past the water wheels to get to the President's Office."
 10: 0x0026 [0x23] WAIT_FOR_DIALOG_INTERACTION
 11: 0x0027 [0x8A] CLOSE_MAP()
 12: 0x0028 [0x01] GOTO 0x002B

SUBROUTINE_002B:
 13: 0x002B [0x21] END_EVENT
 14: 0x002C [0x00] END_REQSTACK()
```
