# 17748146 - Gentle Tiger

## Common Data

| Field            | Value                |
|------------------|----------------------|
| Zone             | Metalworks (ID: 237) |
| Block Size       | 708 bytes            |
| Total Events     | 24                   |
| References Count | 61                   |

## List of Events

| Event ID                   | Entrypoint   |   Size |   Instructions |
|----------------------------|--------------|--------|----------------|
| [65535](#event-65535)      | 0x0000       |      1 |              1 |
| [900](#event-900)          | 0x0001       |      1 |              1 |
| [65535.1](#event-655351)   | 0x0002       |     15 |              3 |
| [65535.2](#event-655352)   | 0x0011       |     29 |              7 |
| [908](#event-908)          | 0x002E       |      1 |              1 |
| [909](#event-909)          | 0x002F       |      1 |              1 |
| [910](#event-910)          | 0x0030       |      1 |              1 |
| [65535.3](#event-655353)   | 0x0031       |     15 |              3 |
| [65535.4](#event-655354)   | 0x0040       |     44 |             10 |
| [65535.5](#event-655355)   | 0x006C       |     14 |              4 |
| [65535.6](#event-655356)   | 0x007A       |     24 |              6 |
| [65535.7](#event-655357)   | 0x0092       |     15 |              3 |
| [65535.8](#event-655358)   | 0x00A1       |     24 |              6 |
| [65535.9](#event-655359)   | 0x00B9       |     14 |              4 |
| [65535.10](#event-6553510) | 0x00C7       |     14 |              4 |
| [65535.11](#event-6553511) | 0x00D5       |     14 |              4 |
| [65535.12](#event-6553512) | 0x00E3       |     15 |              3 |
| [65535.13](#event-6553513) | 0x00F2       |     24 |              6 |
| [65535.14](#event-6553514) | 0x010A       |     14 |              4 |
| [65535.15](#event-6553515) | 0x0118       |     24 |              6 |
| [922](#event-922)          | 0x0130       |      1 |              1 |
| [65535.16](#event-6553516) | 0x0131       |     15 |              3 |
| [65535.17](#event-6553517) | 0x0140       |     15 |              3 |
| [65535.18](#event-6553518) | 0x014F       |     14 |              4 |

## DAT References (imed_data)

|   Index | Hex Value   |   Dec Value |
|---------|-------------|-------------|
|       0 | 0xFFFECF9C  |  4294889372 |
|       1 | 0x12D9      |        4825 |
|       2 | 0x07CF      |        1999 |
|       3 | 0x0845      |        2117 |
|       4 | 0x0007      |           7 |
|       5 | 0x0078      |         120 |
|       6 | 0x000D      |          13 |
|       7 | 0xFFFEDAAB  |  4294892203 |
|       8 | 0x013A      |         314 |
|       9 | 0x07D0      |        2000 |
|      10 | 0xFFFF43AB  |  4294919083 |
|      11 | 0x6014      |       24596 |
|      12 | 0x0AD5      |        2773 |
|      13 | 0x0C80      |        3200 |
|      14 | 0x0028      |          40 |
|      15 | 0xFFFF3419  |  4294915097 |
|      16 | 0x7238      |       29240 |
|      17 | 0xFFFF27FC  |  4294911996 |
|      18 | 0x723A      |       29242 |
|      19 | 0xFFFF15F3  |  4294907379 |
|      20 | 0x5D77      |       23927 |
|      21 | 0xFFFF08AB  |  4294903979 |
|      22 | 0x4F94      |       20372 |
|      23 | 0xFFFF3A95  |  4294916757 |
|      24 | 0x6247      |       25159 |
|      25 | 0xFFFF3079  |  4294914169 |
|      26 | 0x7479      |       29817 |
|      27 | 0x095E      |        2398 |
|      28 | 0xFFFF2A51  |  4294912593 |
|      29 | 0x741C      |       29724 |
|      30 | 0xFFFFC61A  |  4294952474 |
|      31 | 0xFFFFDC58  |  4294958168 |
|      32 | 0x0000      |           0 |
|      33 | 0x0C69      |        3177 |
|      34 | 0xFFFF9BF6  |  4294941686 |
|      35 | 0xFFFFE94D  |  4294961485 |
|      36 | 0xFFFF85AA  |  4294935978 |
|      37 | 0xFFFFD3AF  |  4294955951 |
|      38 | 0xFFFFCA61  |  4294953569 |
|      39 | 0xFFFFF929  |  4294965545 |
|      40 | 0xFFFFC080  |  4294951040 |
|      41 | 0xFFFFE1F8  |  4294959608 |
|      42 | 0xFFFF984E  |  4294940750 |
|      43 | 0xFFFFE556  |  4294960470 |
|      44 | 0xFFFEA916  |  4294879510 |
|      45 | 0xFFFFCF87  |  4294954887 |
|      46 | 0x0B9C      |        2972 |
|      47 | 0xFFFEAB5B  |  4294880091 |
|      48 | 0xFFFFDE46  |  4294958662 |
|      49 | 0xFFFEC7D1  |  4294887377 |
|      50 | 0xFFFFD5F9  |  4294956537 |
|      51 | 0xFFFEA4A8  |  4294878376 |
|      52 | 0xFFFFD651  |  4294956625 |
|      53 | 0xFFFEB23E  |  4294881854 |
|      54 | 0xFFFFF1F8  |  4294963704 |
|      55 | 0x0A93      |        2707 |
|      56 | 0xFFFF36BA  |  4294915770 |
|      57 | 0x03ED      |        1005 |
|      58 | 0x0495      |        1173 |
|      59 | 0xFFFF2F1D  |  4294913821 |
|      60 | 0x0F06      |        3846 |

## Events

### Event 65535

#### Metadata

| Field        | Value   |
|--------------|---------|
| Entrypoint   | 0x0000  |
| Data Size    | 1 bytes |
| Instructions | 1       |

```
      00 01 02 03 04 05 06 07  08 09 0A 0B 0C 0D 0E 0F
      -- -- -- -- -- -- -- --  -- -- -- -- -- -- -- --
0000: 00                                                .               
```

#### Opcodes

```
  0: 0x0000 [0x00] END_REQSTACK()
```

### Event 900

#### Metadata

| Field        | Value   |
|--------------|---------|
| Entrypoint   | 0x0001  |
| Data Size    | 1 bytes |
| Instructions | 1       |

```
      00 01 02 03 04 05 06 07  08 09 0A 0B 0C 0D 0E 0F
      -- -- -- -- -- -- -- --  -- -- -- -- -- -- -- --
0000:    00                                              .              
```

#### Opcodes

```
  0: 0x0001 [0x00] END_REQSTACK()
```

### Event 65535.1

#### Metadata

| Field        | Value    |
|--------------|----------|
| Entrypoint   | 0x0002   |
| Data Size    | 15 bytes |
| Instructions | 3        |

```
      00 01 02 03 04 05 06 07  08 09 0A 0B 0C 0D 0E 0F
      -- -- -- -- -- -- -- --  -- -- -- -- -- -- -- --
0000:       37 00 80 01 80 02  80 03 80 80 F8 FF FF 7F    7.............
0010: 00                                                .               
```

#### Opcodes

```
  0: 0x0002 [0x37] UPDATE_EVENT_POSITION_AND_DIR: x=-77.924*, z=4.825*, y=1.999*, direction=186.1°*
  1: 0x000B [0x80] LOAD_WAIT(entity=EventEntity)
  2: 0x0010 [0x00] END_REQSTACK()
```

### Event 65535.2

#### Metadata

| Field        | Value    |
|--------------|----------|
| Entrypoint   | 0x0011   |
| Data Size    | 29 bytes |
| Instructions | 7        |

```
      00 01 02 03 04 05 06 07  08 09 0A 0B 0C 0D 0E 0F
      -- -- -- -- -- -- -- --  -- -- -- -- -- -- -- --
0010:    6E B2 D0 0E 01 04 80  99 B2 D0 0E 01 1C 05 80   n..............
0020: 32 06 80 1F 00 07 80 08  80 09 80 1F 01 00        2.............  
```

#### Opcodes

```
  0: 0x0011 [0x6E] Gentle Tiger (ID: 17748146/0x010ED0B2) uses emote 7*
  1: 0x0018 [0x99] Wait for Gentle Tiger (ID: 17748146/0x010ED0B2) animation to complete
  2: 0x001D [0x1C] WAIT(120* ticks)
  3: 0x0020 [0x32] ExtData[1]->MainSpeed = 13* * 0.1
  4: 0x0023 [0x1F] MOVE_ENTITY: EventEntity moves to X=-75.093*, Z=0.314*, Y=2.000*
  5: 0x002B [0x1F] MOVE_ENTITY: Update entity position (mode=1)
  6: 0x002D [0x00] END_REQSTACK()
```

### Event 908

#### Metadata

| Field        | Value   |
|--------------|---------|
| Entrypoint   | 0x002E  |
| Data Size    | 1 bytes |
| Instructions | 1       |

```
      00 01 02 03 04 05 06 07  08 09 0A 0B 0C 0D 0E 0F
      -- -- -- -- -- -- -- --  -- -- -- -- -- -- -- --
0020:                                            00                   . 
```

#### Opcodes

```
  0: 0x002E [0x00] END_REQSTACK()
```

### Event 909

#### Metadata

| Field        | Value   |
|--------------|---------|
| Entrypoint   | 0x002F  |
| Data Size    | 1 bytes |
| Instructions | 1       |

```
      00 01 02 03 04 05 06 07  08 09 0A 0B 0C 0D 0E 0F
      -- -- -- -- -- -- -- --  -- -- -- -- -- -- -- --
0020:                                               00                 .
```

#### Opcodes

```
  0: 0x002F [0x00] END_REQSTACK()
```

### Event 910

#### Metadata

| Field        | Value   |
|--------------|---------|
| Entrypoint   | 0x0030  |
| Data Size    | 1 bytes |
| Instructions | 1       |

```
      00 01 02 03 04 05 06 07  08 09 0A 0B 0C 0D 0E 0F
      -- -- -- -- -- -- -- --  -- -- -- -- -- -- -- --
0030: 00                                                .               
```

#### Opcodes

```
  0: 0x0030 [0x00] END_REQSTACK()
```

### Event 65535.3

#### Metadata

| Field        | Value    |
|--------------|----------|
| Entrypoint   | 0x0031   |
| Data Size    | 15 bytes |
| Instructions | 3        |

```
      00 01 02 03 04 05 06 07  08 09 0A 0B 0C 0D 0E 0F
      -- -- -- -- -- -- -- --  -- -- -- -- -- -- -- --
0030:    37 0A 80 0B 80 0C 80  0D 80 80 F8 FF FF 7F 00   7..............
```

#### Opcodes

```
  0: 0x0031 [0x37] UPDATE_EVENT_POSITION_AND_DIR: x=-48.213*, z=24.596*, y=2.773*, direction=281.2°*
  1: 0x003A [0x80] LOAD_WAIT(entity=EventEntity)
  2: 0x003F [0x00] END_REQSTACK()
```

### Event 65535.4

#### Metadata

| Field        | Value    |
|--------------|----------|
| Entrypoint   | 0x0040   |
| Data Size    | 44 bytes |
| Instructions | 10       |

```
      00 01 02 03 04 05 06 07  08 09 0A 0B 0C 0D 0E 0F
      -- -- -- -- -- -- -- --  -- -- -- -- -- -- -- --
0040: 32 0E 80 1F 00 0F 80 10  80 0C 80 1F 01 1F 00 11  2...............
0050: 80 12 80 09 80 1F 01 1F  00 13 80 14 80 09 80 1F  ................
0060: 01 1F 00 15 80 16 80 09  80 1F 01 00              ............    
```

#### Opcodes

```
  0: 0x0040 [0x32] ExtData[1]->MainSpeed = 40* * 0.1
  1: 0x0043 [0x1F] MOVE_ENTITY: EventEntity moves to X=-52.199*, Z=29.240*, Y=2.773*
  2: 0x004B [0x1F] MOVE_ENTITY: Update entity position (mode=1)
  3: 0x004D [0x1F] MOVE_ENTITY: EventEntity moves to X=-55.300*, Z=29.242*, Y=2.000*
  4: 0x0055 [0x1F] MOVE_ENTITY: Update entity position (mode=1)
  5: 0x0057 [0x1F] MOVE_ENTITY: EventEntity moves to X=-59.917*, Z=23.927*, Y=2.000*
  6: 0x005F [0x1F] MOVE_ENTITY: Update entity position (mode=1)
  7: 0x0061 [0x1F] MOVE_ENTITY: EventEntity moves to X=-63.317*, Z=20.372*, Y=2.000*
  8: 0x0069 [0x1F] MOVE_ENTITY: Update entity position (mode=1)
  9: 0x006B [0x00] END_REQSTACK()
```

### Event 65535.5

#### Metadata

| Field        | Value    |
|--------------|----------|
| Entrypoint   | 0x006C   |
| Data Size    | 14 bytes |
| Instructions | 4        |

```
      00 01 02 03 04 05 06 07  08 09 0A 0B 0C 0D 0E 0F
      -- -- -- -- -- -- -- --  -- -- -- -- -- -- -- --
0060:                                      32 06 80 1F              2...
0070: 00 17 80 18 80 0C 80 1F  01 00                    ..........      
```

#### Opcodes

```
  0: 0x006C [0x32] ExtData[1]->MainSpeed = 13* * 0.1
  1: 0x006F [0x1F] MOVE_ENTITY: EventEntity moves to X=-50.539*, Z=25.159*, Y=2.773*
  2: 0x0077 [0x1F] MOVE_ENTITY: Update entity position (mode=1)
  3: 0x0079 [0x00] END_REQSTACK()
```

### Event 65535.6

#### Metadata

| Field        | Value    |
|--------------|----------|
| Entrypoint   | 0x007A   |
| Data Size    | 24 bytes |
| Instructions | 6        |

```
      00 01 02 03 04 05 06 07  08 09 0A 0B 0C 0D 0E 0F
      -- -- -- -- -- -- -- --  -- -- -- -- -- -- -- --
0070:                                32 06 80 1F 00 19            2.....
0080: 80 1A 80 1B 80 1F 01 1F  00 1C 80 1D 80 09 80 1F  ................
0090: 01 00                                             ..              
```

#### Opcodes

```
  0: 0x007A [0x32] ExtData[1]->MainSpeed = 13* * 0.1
  1: 0x007D [0x1F] MOVE_ENTITY: EventEntity moves to X=-53.127*, Z=29.817*, Y=2.398*
  2: 0x0085 [0x1F] MOVE_ENTITY: Update entity position (mode=1)
  3: 0x0087 [0x1F] MOVE_ENTITY: EventEntity moves to X=-54.703*, Z=29.724*, Y=2.000*
  4: 0x008F [0x1F] MOVE_ENTITY: Update entity position (mode=1)
  5: 0x0091 [0x00] END_REQSTACK()
```

### Event 65535.7

#### Metadata

| Field        | Value    |
|--------------|----------|
| Entrypoint   | 0x0092   |
| Data Size    | 15 bytes |
| Instructions | 3        |

```
      00 01 02 03 04 05 06 07  08 09 0A 0B 0C 0D 0E 0F
      -- -- -- -- -- -- -- --  -- -- -- -- -- -- -- --
0090:       37 1E 80 1F 80 20  80 21 80 80 F8 FF FF 7F    7.... .!......
00A0: 00                                                .               
```

#### Opcodes

```
  0: 0x0092 [0x37] UPDATE_EVENT_POSITION_AND_DIR: x=-14.822*, z=-9.128*, y=0.000*, direction=279.2°*
  1: 0x009B [0x80] LOAD_WAIT(entity=EventEntity)
  2: 0x00A0 [0x00] END_REQSTACK()
```

### Event 65535.8

#### Metadata

| Field        | Value    |
|--------------|----------|
| Entrypoint   | 0x00A1   |
| Data Size    | 24 bytes |
| Instructions | 6        |

```
      00 01 02 03 04 05 06 07  08 09 0A 0B 0C 0D 0E 0F
      -- -- -- -- -- -- -- --  -- -- -- -- -- -- -- --
00A0:    32 0E 80 1F 00 22 80  23 80 20 80 1F 01 1F 00   2....".#. .....
00B0: 24 80 25 80 20 80 1F 01  00                       $.%. ....       
```

#### Opcodes

```
  0: 0x00A1 [0x32] ExtData[1]->MainSpeed = 40* * 0.1
  1: 0x00A4 [0x1F] MOVE_ENTITY: EventEntity moves to X=-25.610*, Z=-5.811*, Y=0.000*
  2: 0x00AC [0x1F] MOVE_ENTITY: Update entity position (mode=1)
  3: 0x00AE [0x1F] MOVE_ENTITY: EventEntity moves to X=-31.318*, Z=-11.345*, Y=0.000*
  4: 0x00B6 [0x1F] MOVE_ENTITY: Update entity position (mode=1)
  5: 0x00B8 [0x00] END_REQSTACK()
```

### Event 65535.9

#### Metadata

| Field        | Value    |
|--------------|----------|
| Entrypoint   | 0x00B9   |
| Data Size    | 14 bytes |
| Instructions | 4        |

```
      00 01 02 03 04 05 06 07  08 09 0A 0B 0C 0D 0E 0F
      -- -- -- -- -- -- -- --  -- -- -- -- -- -- -- --
00B0:                             32 0E 80 1F 00 26 80           2....&.
00C0: 27 80 20 80 1F 01 00                              '. ....         
```

#### Opcodes

```
  0: 0x00B9 [0x32] ExtData[1]->MainSpeed = 40* * 0.1
  1: 0x00BC [0x1F] MOVE_ENTITY: EventEntity moves to X=-13.727*, Z=-1.751*, Y=0.000*
  2: 0x00C4 [0x1F] MOVE_ENTITY: Update entity position (mode=1)
  3: 0x00C6 [0x00] END_REQSTACK()
```

### Event 65535.10

#### Metadata

| Field        | Value    |
|--------------|----------|
| Entrypoint   | 0x00C7   |
| Data Size    | 14 bytes |
| Instructions | 4        |

```
      00 01 02 03 04 05 06 07  08 09 0A 0B 0C 0D 0E 0F
      -- -- -- -- -- -- -- --  -- -- -- -- -- -- -- --
00C0:                      32  06 80 1F 00 28 80 29 80         2....(.).
00D0: 20 80 1F 01 00                                     ....           
```

#### Opcodes

```
  0: 0x00C7 [0x32] ExtData[1]->MainSpeed = 13* * 0.1
  1: 0x00CA [0x1F] MOVE_ENTITY: EventEntity moves to X=-16.256*, Z=-7.688*, Y=0.000*
  2: 0x00D2 [0x1F] MOVE_ENTITY: Update entity position (mode=1)
  3: 0x00D4 [0x00] END_REQSTACK()
```

### Event 65535.11

#### Metadata

| Field        | Value    |
|--------------|----------|
| Entrypoint   | 0x00D5   |
| Data Size    | 14 bytes |
| Instructions | 4        |

```
      00 01 02 03 04 05 06 07  08 09 0A 0B 0C 0D 0E 0F
      -- -- -- -- -- -- -- --  -- -- -- -- -- -- -- --
00D0:                32 06 80  1F 00 2A 80 2B 80 20 80       2....*.+. .
00E0: 1F 01 00                                          ...             
```

#### Opcodes

```
  0: 0x00D5 [0x32] ExtData[1]->MainSpeed = 13* * 0.1
  1: 0x00D8 [0x1F] MOVE_ENTITY: EventEntity moves to X=-26.546*, Z=-6.826*, Y=0.000*
  2: 0x00E0 [0x1F] MOVE_ENTITY: Update entity position (mode=1)
  3: 0x00E2 [0x00] END_REQSTACK()
```

### Event 65535.12

#### Metadata

| Field        | Value    |
|--------------|----------|
| Entrypoint   | 0x00E3   |
| Data Size    | 15 bytes |
| Instructions | 3        |

```
      00 01 02 03 04 05 06 07  08 09 0A 0B 0C 0D 0E 0F
      -- -- -- -- -- -- -- --  -- -- -- -- -- -- -- --
00E0:          37 2C 80 2D 80  09 80 2E 80 80 F8 FF FF     7,.-.........
00F0: 7F 00                                             ..              
```

#### Opcodes

```
  0: 0x00E3 [0x37] UPDATE_EVENT_POSITION_AND_DIR: x=-87.786*, z=-12.409*, y=2.000*, direction=261.2°*
  1: 0x00EC [0x80] LOAD_WAIT(entity=EventEntity)
  2: 0x00F1 [0x00] END_REQSTACK()
```

### Event 65535.13

#### Metadata

| Field        | Value    |
|--------------|----------|
| Entrypoint   | 0x00F2   |
| Data Size    | 24 bytes |
| Instructions | 6        |

```
      00 01 02 03 04 05 06 07  08 09 0A 0B 0C 0D 0E 0F
      -- -- -- -- -- -- -- --  -- -- -- -- -- -- -- --
00F0:       32 0E 80 1F 00 2F  80 30 80 09 80 1F 01 1F    2..../.0......
0100: 00 31 80 32 80 09 80 1F  01 00                    .1.2......      
```

#### Opcodes

```
  0: 0x00F2 [0x32] ExtData[1]->MainSpeed = 40* * 0.1
  1: 0x00F5 [0x1F] MOVE_ENTITY: EventEntity moves to X=-87.205*, Z=-8.634*, Y=2.000*
  2: 0x00FD [0x1F] MOVE_ENTITY: Update entity position (mode=1)
  3: 0x00FF [0x1F] MOVE_ENTITY: EventEntity moves to X=-79.919*, Z=-10.759*, Y=2.000*
  4: 0x0107 [0x1F] MOVE_ENTITY: Update entity position (mode=1)
  5: 0x0109 [0x00] END_REQSTACK()
```

### Event 65535.14

#### Metadata

| Field        | Value    |
|--------------|----------|
| Entrypoint   | 0x010A   |
| Data Size    | 14 bytes |
| Instructions | 4        |

```
      00 01 02 03 04 05 06 07  08 09 0A 0B 0C 0D 0E 0F
      -- -- -- -- -- -- -- --  -- -- -- -- -- -- -- --
0100:                                32 06 80 1F 00 33            2....3
0110: 80 34 80 09 80 1F 01 00                           .4......        
```

#### Opcodes

```
  0: 0x010A [0x32] ExtData[1]->MainSpeed = 13* * 0.1
  1: 0x010D [0x1F] MOVE_ENTITY: EventEntity moves to X=-88.920*, Z=-10.671*, Y=2.000*
  2: 0x0115 [0x1F] MOVE_ENTITY: Update entity position (mode=1)
  3: 0x0117 [0x00] END_REQSTACK()
```

### Event 65535.15

#### Metadata

| Field        | Value    |
|--------------|----------|
| Entrypoint   | 0x0118   |
| Data Size    | 24 bytes |
| Instructions | 6        |

```
      00 01 02 03 04 05 06 07  08 09 0A 0B 0C 0D 0E 0F
      -- -- -- -- -- -- -- --  -- -- -- -- -- -- -- --
0110:                          32 06 80 1F 00 2F 80 30          2..../.0
0120: 80 09 80 1F 01 1F 00 31  80 32 80 09 80 1F 01 00  .......1.2......
```

#### Opcodes

```
  0: 0x0118 [0x32] ExtData[1]->MainSpeed = 13* * 0.1
  1: 0x011B [0x1F] MOVE_ENTITY: EventEntity moves to X=-87.205*, Z=-8.634*, Y=2.000*
  2: 0x0123 [0x1F] MOVE_ENTITY: Update entity position (mode=1)
  3: 0x0125 [0x1F] MOVE_ENTITY: EventEntity moves to X=-79.919*, Z=-10.759*, Y=2.000*
  4: 0x012D [0x1F] MOVE_ENTITY: Update entity position (mode=1)
  5: 0x012F [0x00] END_REQSTACK()
```

### Event 922

#### Metadata

| Field        | Value   |
|--------------|---------|
| Entrypoint   | 0x0130  |
| Data Size    | 1 bytes |
| Instructions | 1       |

```
      00 01 02 03 04 05 06 07  08 09 0A 0B 0C 0D 0E 0F
      -- -- -- -- -- -- -- --  -- -- -- -- -- -- -- --
0130: 00                                                .               
```

#### Opcodes

```
  0: 0x0130 [0x00] END_REQSTACK()
```

### Event 65535.16

#### Metadata

| Field        | Value    |
|--------------|----------|
| Entrypoint   | 0x0131   |
| Data Size    | 15 bytes |
| Instructions | 3        |

```
      00 01 02 03 04 05 06 07  08 09 0A 0B 0C 0D 0E 0F
      -- -- -- -- -- -- -- --  -- -- -- -- -- -- -- --
0130:    37 35 80 36 80 09 80  37 80 80 F8 FF FF 7F 00   75.6...7.......
```

#### Opcodes

```
  0: 0x0131 [0x37] UPDATE_EVENT_POSITION_AND_DIR: x=-85.442*, z=-3.592*, y=2.000*, direction=237.9°*
  1: 0x013A [0x80] LOAD_WAIT(entity=EventEntity)
  2: 0x013F [0x00] END_REQSTACK()
```

### Event 65535.17

#### Metadata

| Field        | Value    |
|--------------|----------|
| Entrypoint   | 0x0140   |
| Data Size    | 15 bytes |
| Instructions | 3        |

```
      00 01 02 03 04 05 06 07  08 09 0A 0B 0C 0D 0E 0F
      -- -- -- -- -- -- -- --  -- -- -- -- -- -- -- --
0140: 37 38 80 39 80 09 80 3A  80 80 F8 FF FF 7F 00     78.9...:....... 
```

#### Opcodes

```
  0: 0x0140 [0x37] UPDATE_EVENT_POSITION_AND_DIR: x=-51.526*, z=1.005*, y=2.000*, direction=103.1°*
  1: 0x0149 [0x80] LOAD_WAIT(entity=EventEntity)
  2: 0x014E [0x00] END_REQSTACK()
```

### Event 65535.18

#### Metadata

| Field        | Value    |
|--------------|----------|
| Entrypoint   | 0x014F   |
| Data Size    | 14 bytes |
| Instructions | 4        |

```
      00 01 02 03 04 05 06 07  08 09 0A 0B 0C 0D 0E 0F
      -- -- -- -- -- -- -- --  -- -- -- -- -- -- -- --
0140:                                               32                 2
0150: 06 80 1F 00 3B 80 3C 80  09 80 1F 01 00           ....;.<......   
```

#### Opcodes

```
  0: 0x014F [0x32] ExtData[1]->MainSpeed = 13* * 0.1
  1: 0x0152 [0x1F] MOVE_ENTITY: EventEntity moves to X=-53.475*, Z=3.846*, Y=2.000*
  2: 0x015A [0x1F] MOVE_ENTITY: Update entity position (mode=1)
  3: 0x015C [0x00] END_REQSTACK()
```
