# 17748024 - Baldric

## Common Data

| Field            | Value                |
|------------------|----------------------|
| Zone             | Metalworks (ID: 237) |
| Block Size       | 180 bytes            |
| Total Events     | 4                    |
| References Count | 8                    |

## List of Events

| Event ID              | Entrypoint   |   Size |   Instructions |
|-----------------------|--------------|--------|----------------|
| [65535](#event-65535) | 0x0000       |      1 |              1 |
| [552](#event-552)     | 0x0001       |     11 |              5 |
| [554](#event-554)     | 0x000C       |     35 |              9 |
| [555](#event-555)     | 0x002F       |     66 |             13 |

## DAT References (imed_data)

|   Index | Hex Value   |   Dec Value |
|---------|-------------|-------------|
|       0 | 0x1ED9      |        7897 |
|       1 | 0x01F7      |         503 |
|       2 | 0x1ED1      |        7889 |
|       3 | 0x0005      |           5 |
|       4 | 0x1ED2      |        7890 |
|       5 | 0x1ED4      |        7892 |
|       6 | 0x00C9      |         201 |
|       7 | 0x0000      |           0 |

## String References

- **7889**: Hey, you're an adventurer, right? I need $7 for one of my experiments.
- **7890**: Can you get me some? I've heard they appear during dust storms...
- **7892**: $7! Thanks, this will help me with my experiments! But I can always use more if you happen to come upon additional quantities.
- **7897**: Designing new products isn't easy. I don't know how Chief Cid does it, coming up with new inventions almost every week.

## Events

### Event 65535

#### Metadata

| Field        | Value   |
|--------------|---------|
| Entrypoint   | 0x0000  |
| Data Size    | 1 bytes |
| Instructions | 1       |

```
      00 01 02 03 04 05 06 07  08 09 0A 0B 0C 0D 0E 0F
      -- -- -- -- -- -- -- --  -- -- -- -- -- -- -- --
0000: 00                                                .               
```

#### Opcodes

```
  0: 0x0000 [0x00] END_REQSTACK()
```

### Event 552

#### Metadata

| Field        | Value    |
|--------------|----------|
| Entrypoint   | 0x0001   |
| Data Size    | 11 bytes |
| Instructions | 5        |

```
      00 01 02 03 04 05 06 07  08 09 0A 0B 0C 0D 0E 0F
      -- -- -- -- -- -- -- --  -- -- -- -- -- -- -- --
0000:    1E F0 FF FF 7F 1D 00  80 23 21 00               ........#!.    
```

#### Opcodes

```
  0: 0x0001 [0x1E] EventEntity looks at LocalPlayer and starts talking
  1: 0x0006 [0x1D] PRINT_EVENT_MESSAGE(message_id=7897*)
    → "Designing new products isn't easy. I don't know how Chief Cid does it, coming up with new inventions almost every week."
  2: 0x0009 [0x23] WAIT_FOR_DIALOG_INTERACTION
  3: 0x000A [0x21] END_EVENT
  4: 0x000B [0x00] END_REQSTACK()
```

### Event 554

#### Metadata

| Field        | Value    |
|--------------|----------|
| Entrypoint   | 0x000C   |
| Data Size    | 35 bytes |
| Instructions | 9        |

```
      00 01 02 03 04 05 06 07  08 09 0A 0B 0C 0D 0E 0F
      -- -- -- -- -- -- -- --  -- -- -- -- -- -- -- --
0000:                                      03 09 10 01              ....
0010: 80 1E F0 FF FF 7F 1D 02  80 23 5B 03 80 F8 FF FF  .........#[.....
0020: 7F F8 FF FF 7F 74 6C 6B  30 1D 04 80 23 21 00     .....tlk0...#!. 
```

#### Opcodes

```
  0: 0x000C [0x03] Work_Zone[9] = 503*
  1: 0x0011 [0x1E] EventEntity looks at LocalPlayer and starts talking
  2: 0x0016 [0x1D] PRINT_EVENT_MESSAGE(message_id=7889*)
    → "Hey, you're an adventurer, right? I need $7 for one of my experiments."
  3: 0x0019 [0x23] WAIT_FOR_DIALOG_INTERACTION
  4: 0x001A [0x5B] LOAD_EXT_SCHEDULER: Load scheduler "tlk0" with entities [EventEntity, EventEntity], work=5*
  5: 0x0029 [0x1D] PRINT_EVENT_MESSAGE(message_id=7890*)
    → "Can you get me some? I've heard they appear during dust storms..."
  6: 0x002C [0x23] WAIT_FOR_DIALOG_INTERACTION
  7: 0x002D [0x21] END_EVENT
  8: 0x002E [0x00] END_REQSTACK()
```

### Event 555

#### Metadata

| Field        | Value    |
|--------------|----------|
| Entrypoint   | 0x002F   |
| Data Size    | 66 bytes |
| Instructions | 13       |

```
      00 01 02 03 04 05 06 07  08 09 0A 0B 0C 0D 0E 0F
      -- -- -- -- -- -- -- --  -- -- -- -- -- -- -- --
0020:                                               03                 .
0030: 09 10 01 80 42 20 01 1E  F0 FF FF 7F 6F 70 5B 03  ....B ......op[.
0040: 80 F8 FF FF 7F F8 FF FF  7F 70 61 73 30 1D 05 80  .........pas0...
0050: 23 53 F8 FF FF 7F F8 FF  FF 7F 70 61 73 30 45 06  #S........pas0E.
0060: 80 F8 FF FF 7F F8 FF FF  7F 71 73 74 63 07 80 21  .........qstc..!
0070: 00                                                .               
```

#### Opcodes

```
  0: 0x002F [0x03] Work_Zone[9] = 503*
  1: 0x0034 [0x42] SET_CLI_EVENT_CANCEL_DATA()
  2: 0x0035 [0x20] SET_CLI_EVENT_UC_FLAG: Lock player control
  3: 0x0037 [0x1E] EventEntity looks at LocalPlayer and starts talking
  4: 0x003C [0x6F] WAIT_FRAME_DELAY: Yield until WaitTime reaches zero
  5: 0x003D [0x70] WAIT_ENTITY_RENDER_FLAG: Wait while EventEntity->Render.Flags3 bit 2 is set (cancel turn if not)
  6: 0x003E [0x5B] LOAD_EXT_SCHEDULER: Load scheduler "pas0" with entities [EventEntity, EventEntity], work=5*
  7: 0x004D [0x1D] PRINT_EVENT_MESSAGE(message_id=7892*)
    → "$7! Thanks, this will help me with my experiments! But I can always use more if you happen to come upon additional quantities."
  8: 0x0050 [0x23] WAIT_FOR_DIALOG_INTERACTION
  9: 0x0051 [0x53] WAIT_SCHEDULER_TASK: Wait for scheduler "pas0" with entities [EventEntity, EventEntity]
 10: 0x005E [0x45] LOAD_SCHEDULED_TASK: Load scheduler "qstc" with entities [EventEntity, EventEntity], work=[201*, 0*]
 11: 0x006F [0x21] END_EVENT
 12: 0x0070 [0x00] END_REQSTACK()
```
