# 17748094 - Invincible Shield

## Common Data

| Field            | Value                |
|------------------|----------------------|
| Zone             | Metalworks (ID: 237) |
| Block Size       | 8112 bytes           |
| Total Events     | 13                   |
| References Count | 342                  |

## List of Events

| Event ID              | Entrypoint   |   Size |   Instructions |
|-----------------------|--------------|--------|----------------|
| [65535](#event-65535) | 0x0000       |      1 |              1 |
| [932](#event-932)     | 0x0001       |     31 |             11 |
| [810](#event-810)     | 0x0020       |     33 |             11 |
| [813](#event-813)     | 0x0041       |   3350 |            516 |
| [814](#event-814)     | 0x0D57       |    116 |             33 |
| [815](#event-815)     | 0x0DCB       |     25 |              9 |
| [819](#event-819)     | 0x0DE4       |     33 |             11 |
| [820](#event-820)     | 0x0E05       |   2900 |            707 |
| [821](#event-821)     | 0x1959       |     36 |             13 |
| [822](#event-822)     | 0x197D       |     12 |              7 |
| [823](#event-823)     | 0x1989       |     36 |             13 |
| [824](#event-824)     | 0x19AD       |     77 |             19 |
| [825](#event-825)     | 0x19FA       |     25 |              9 |

## DAT References (imed_data)

|   Index | Hex Value   |   Dec Value |
|---------|-------------|-------------|
|       0 | 0x29BB      |       10683 |
|       1 | 0x29BE      |       10686 |
|       2 | 0x0006      |           6 |
|       3 | 0x29BF      |       10687 |
|       4 | 0x1BEC      |        7148 |
|       5 | 0x1BED      |        7149 |
|       6 | 0x1BEE      |        7150 |
|       7 | 0x0000      |           0 |
|       8 | 0x1C02      |        7170 |
|       9 | 0x1C03      |        7171 |
|      10 | 0x1C04      |        7172 |
|      11 | 0x1C05      |        7173 |
|      12 | 0x1C06      |        7174 |
|      13 | 0x1C07      |        7175 |
|      14 | 0x1C08      |        7176 |
|      15 | 0x00C8      |         200 |
|      16 | 0x0003      |           3 |
|      17 | 0x007F      |         127 |
|      18 | 0x0013      |          19 |
|      19 | 0x00F3      |         243 |
|      20 | 0x0064      |         100 |
|      21 | 0x01B7      |         439 |
|      22 | 0x0040      |          64 |
|      23 | 0x0001      |           1 |
|      24 | 0x1B13      |        6931 |
|      25 | 0x005A      |          90 |
|      26 | 0x000F      |          15 |
|      27 | 0x1B14      |        6932 |
|      28 | 0x000A      |          10 |
|      29 | 0x1B15      |        6933 |
|      30 | 0x0014      |          20 |
|      31 | 0x1B16      |        6934 |
|      32 | 0x1B17      |        6935 |
|      33 | 0x1B18      |        6936 |
|      34 | 0x1B19      |        6937 |
|      35 | 0x1B1A      |        6938 |
|      36 | 0x1B1B      |        6939 |
|      37 | 0x1B1C      |        6940 |
|      38 | 0x1B1D      |        6941 |
|      39 | 0x1B1E      |        6942 |
|      40 | 0x1B1F      |        6943 |
|      41 | 0x1B20      |        6944 |
|      42 | 0x1B21      |        6945 |
|      43 | 0x1B22      |        6946 |
|      44 | 0x1B23      |        6947 |
|      45 | 0x1B24      |        6948 |
|      46 | 0x1B25      |        6949 |
|      47 | 0x1B26      |        6950 |
|      48 | 0x1B27      |        6951 |
|      49 | 0x1B28      |        6952 |
|      50 | 0x1B29      |        6953 |
|      51 | 0x1B2A      |        6954 |
|      52 | 0x1B2B      |        6955 |
|      53 | 0x1B2C      |        6956 |
|      54 | 0x1B2D      |        6957 |
|      55 | 0x1B2E      |        6958 |
|      56 | 0x1B2F      |        6959 |
|      57 | 0x1B30      |        6960 |
|      58 | 0x1B31      |        6961 |
|      59 | 0x1B32      |        6962 |
|      60 | 0x1B33      |        6963 |
|      61 | 0x1B34      |        6964 |
|      62 | 0x1B35      |        6965 |
|      63 | 0x1B36      |        6966 |
|      64 | 0x1B37      |        6967 |
|      65 | 0x003C      |          60 |
|      66 | 0x1B38      |        6968 |
|      67 | 0x1B39      |        6969 |
|      68 | 0x1B3A      |        6970 |
|      69 | 0x1B3B      |        6971 |
|      70 | 0x1B3C      |        6972 |
|      71 | 0x1B3D      |        6973 |
|      72 | 0x001E      |          30 |
|      73 | 0x1B3E      |        6974 |
|      74 | 0x0032      |          50 |
|      75 | 0x1B3F      |        6975 |
|      76 | 0x1B40      |        6976 |
|      77 | 0x1B41      |        6977 |
|      78 | 0x1B42      |        6978 |
|      79 | 0x1B43      |        6979 |
|      80 | 0x1B44      |        6980 |
|      81 | 0x1B45      |        6981 |
|      82 | 0x1B46      |        6982 |
|      83 | 0x1B47      |        6983 |
|      84 | 0x1B48      |        6984 |
|      85 | 0x1B49      |        6985 |
|      86 | 0x1B4A      |        6986 |
|      87 | 0x1B4B      |        6987 |
|      88 | 0x0168      |         360 |
|      89 | 0x1B4C      |        6988 |
|      90 | 0x0078      |         120 |
|      91 | 0x1B4D      |        6989 |
|      92 | 0x1B4E      |        6990 |
|      93 | 0x1B4F      |        6991 |
|      94 | 0x1B50      |        6992 |
|      95 | 0x1B51      |        6993 |
|      96 | 0x1B52      |        6994 |
|      97 | 0x1B53      |        6995 |
|      98 | 0x1B54      |        6996 |
|      99 | 0x1B55      |        6997 |
|     100 | 0x1B56      |        6998 |
|     101 | 0x1B57      |        6999 |
|     102 | 0x1B58      |        7000 |
|     103 | 0x1B59      |        7001 |
|     104 | 0x1B5B      |        7003 |
|     105 | 0x1B5A      |        7002 |
|     106 | 0x0005      |           5 |
|     107 | 0x1B5C      |        7004 |
|     108 | 0x1B5D      |        7005 |
|     109 | 0x1B5E      |        7006 |
|     110 | 0x0400      |        1024 |
|     111 | 0x1B5F      |        7007 |
|     112 | 0x1B60      |        7008 |
|     113 | 0x1B61      |        7009 |
|     114 | 0x1B62      |        7010 |
|     115 | 0x1B63      |        7011 |
|     116 | 0x1B64      |        7012 |
|     117 | 0x0766      |        1894 |
|     118 | 0x1B65      |        7013 |
|     119 | 0x1B66      |        7014 |
|     120 | 0x1B67      |        7015 |
|     121 | 0x00ED      |         237 |
|     122 | 0x009A      |         154 |
|     123 | 0x1C09      |        7177 |
|     124 | 0x1C0A      |        7178 |
|     125 | 0x1C0E      |        7182 |
|     126 | 0x1BCF      |        7119 |
|     127 | 0x1C1B      |        7195 |
|     128 | 0x1C1C      |        7196 |
|     129 | 0x1C1D      |        7197 |
|     130 | 0x1C1E      |        7198 |
|     131 | 0x1C1F      |        7199 |
|     132 | 0x1C20      |        7200 |
|     133 | 0x1C0B      |        7179 |
|     134 | 0x1C25      |        7205 |
|     135 | 0x1C26      |        7206 |
|     136 | 0x1C2B      |        7211 |
|     137 | 0x1C2C      |        7212 |
|     138 | 0x1C2D      |        7213 |
|     139 | 0x0002      |           2 |
|     140 | 0x0004      |           4 |
|     141 | 0x0009      |           9 |
|     142 | 0x0240      |         576 |
|     143 | 0x1C38      |        7224 |
|     144 | 0x1C39      |        7225 |
|     145 | 0x1C3A      |        7226 |
|     146 | 0x1C44      |        7236 |
|     147 | 0x1C45      |        7237 |
|     148 | 0x1C54      |        7252 |
|     149 | 0x1C55      |        7253 |
|     150 | 0x1C4E      |        7246 |
|     151 | 0x1C4F      |        7247 |
|     152 | 0x1C50      |        7248 |
|     153 | 0x1C51      |        7249 |
|     154 | 0x1BD4      |        7124 |
|     155 | 0x1BD5      |        7125 |
|     156 | 0x1BD7      |        7127 |
|     157 | 0x1BDE      |        7134 |
|     158 | 0x1BE1      |        7137 |
|     159 | 0x01F4      |         500 |
|     160 | 0x1C5E      |        7262 |
|     161 | 0x1C5F      |        7263 |
|     162 | 0x1C60      |        7264 |
|     163 | 0x1C61      |        7265 |
|     164 | 0x1C64      |        7268 |
|     165 | 0x1C67      |        7271 |
|     166 | 0x1C6A      |        7274 |
|     167 | 0x1C6B      |        7275 |
|     168 | 0x1C6E      |        7278 |
|     169 | 0x1C3E      |        7230 |
|     170 | 0x1C94      |        7316 |
|     171 | 0x00B4      |         180 |
|     172 | 0x1C95      |        7317 |
|     173 | 0x1B68      |        7016 |
|     174 | 0x1B69      |        7017 |
|     175 | 0x1B6A      |        7018 |
|     176 | 0x1B6B      |        7019 |
|     177 | 0x1B6C      |        7020 |
|     178 | 0x1B6D      |        7021 |
|     179 | 0x1B6E      |        7022 |
|     180 | 0x1B6F      |        7023 |
|     181 | 0x1B70      |        7024 |
|     182 | 0x1B71      |        7025 |
|     183 | 0x1B72      |        7026 |
|     184 | 0x1B73      |        7027 |
|     185 | 0x1B74      |        7028 |
|     186 | 0x1B75      |        7029 |
|     187 | 0x1B76      |        7030 |
|     188 | 0x1B77      |        7031 |
|     189 | 0x1B78      |        7032 |
|     190 | 0x1B79      |        7033 |
|     191 | 0x1B7A      |        7034 |
|     192 | 0x1B7B      |        7035 |
|     193 | 0x1B7C      |        7036 |
|     194 | 0x1B7D      |        7037 |
|     195 | 0x1B7E      |        7038 |
|     196 | 0x1B7F      |        7039 |
|     197 | 0x1B80      |        7040 |
|     198 | 0x1B81      |        7041 |
|     199 | 0x1B82      |        7042 |
|     200 | 0x1B83      |        7043 |
|     201 | 0x1B84      |        7044 |
|     202 | 0x1B85      |        7045 |
|     203 | 0x0007      |           7 |
|     204 | 0x1B86      |        7046 |
|     205 | 0x1B87      |        7047 |
|     206 | 0x1B88      |        7048 |
|     207 | 0x1B89      |        7049 |
|     208 | 0x1B8A      |        7050 |
|     209 | 0x1B8B      |        7051 |
|     210 | 0x1B8C      |        7052 |
|     211 | 0x1B91      |        7057 |
|     212 | 0x1B92      |        7058 |
|     213 | 0x1B93      |        7059 |
|     214 | 0x0A20      |        2592 |
|     215 | 0x1B94      |        7060 |
|     216 | 0x1B95      |        7061 |
|     217 | 0x1B96      |        7062 |
|     218 | 0x1B97      |        7063 |
|     219 | 0x0008      |           8 |
|     220 | 0x1B98      |        7064 |
|     221 | 0x1B99      |        7065 |
|     222 | 0x07D0      |        2000 |
|     223 | 0x1B8D      |        7053 |
|     224 | 0x1B8E      |        7054 |
|     225 | 0x1B8F      |        7055 |
|     226 | 0x1B90      |        7056 |
|     227 | 0x1B9A      |        7066 |
|     228 | 0x1B9B      |        7067 |
|     229 | 0x1B9C      |        7068 |
|     230 | 0x1B9D      |        7069 |
|     231 | 0x1B9E      |        7070 |
|     232 | 0x1B9F      |        7071 |
|     233 | 0x1BA0      |        7072 |
|     234 | 0x1BA1      |        7073 |
|     235 | 0x1BA2      |        7074 |
|     236 | 0x1BA3      |        7075 |
|     237 | 0x1BA4      |        7076 |
|     238 | 0x02AA      |         682 |
|     239 | 0x1BA5      |        7077 |
|     240 | 0x02AB      |         683 |
|     241 | 0x1BA6      |        7078 |
|     242 | 0x02AC      |         684 |
|     243 | 0x1BA7      |        7079 |
|     244 | 0x02AD      |         685 |
|     245 | 0x1BA8      |        7080 |
|     246 | 0x02AE      |         686 |
|     247 | 0x1BA9      |        7081 |
|     248 | 0x02AF      |         687 |
|     249 | 0x1BAA      |        7082 |
|     250 | 0x02B0      |         688 |
|     251 | 0x1BAB      |        7083 |
|     252 | 0x02B1      |         689 |
|     253 | 0x1BAC      |        7084 |
|     254 | 0x02B2      |         690 |
|     255 | 0x1BAD      |        7085 |
|     256 | 0x02B3      |         691 |
|     257 | 0x1BAE      |        7086 |
|     258 | 0x02B4      |         692 |
|     259 | 0x1BAF      |        7087 |
|     260 | 0x000B      |          11 |
|     261 | 0x02B5      |         693 |
|     262 | 0x1BB0      |        7088 |
|     263 | 0x000C      |          12 |
|     264 | 0x02B6      |         694 |
|     265 | 0x1BB1      |        7089 |
|     266 | 0x000D      |          13 |
|     267 | 0x02B7      |         695 |
|     268 | 0x1BB2      |        7090 |
|     269 | 0x000E      |          14 |
|     270 | 0x02B8      |         696 |
|     271 | 0x1BB3      |        7091 |
|     272 | 0x02B9      |         697 |
|     273 | 0x1BB4      |        7092 |
|     274 | 0x0010      |          16 |
|     275 | 0x02BA      |         698 |
|     276 | 0x1BB5      |        7093 |
|     277 | 0x0011      |          17 |
|     278 | 0x02BB      |         699 |
|     279 | 0x1BB6      |        7094 |
|     280 | 0x0012      |          18 |
|     281 | 0x02BC      |         700 |
|     282 | 0x1BB7      |        7095 |
|     283 | 0x0309      |         777 |
|     284 | 0x1BB8      |        7096 |
|     285 | 0x030A      |         778 |
|     286 | 0x1BB9      |        7097 |
|     287 | 0x0015      |          21 |
|     288 | 0x030B      |         779 |
|     289 | 0x1BBA      |        7098 |
|     290 | 0x0016      |          22 |
|     291 | 0x0393      |         915 |
|     292 | 0x1BBB      |        7099 |
|     293 | 0x0017      |          23 |
|     294 | 0x0394      |         916 |
|     295 | 0x1BBC      |        7100 |
|     296 | 0x0018      |          24 |
|     297 | 0x0737      |        1847 |
|     298 | 0x1BBD      |        7101 |
|     299 | 0x0019      |          25 |
|     300 | 0x0738      |        1848 |
|     301 | 0x1BBE      |        7102 |
|     302 | 0x1B00      |        6912 |
|     303 | 0x3600      |       13824 |
|     304 | 0x5100      |       20736 |
|     305 | 0x06C0      |        1728 |
|     306 | 0x0C60      |        3168 |
|     307 | 0x0D80      |        3456 |
|     308 | 0x2880      |       10368 |
|     309 | 0x65400     |      414720 |
|     310 | 0x0028      |          40 |
|     311 | 0x03E8      |        1000 |
|     312 | 0x05DC      |        1500 |
|     313 | 0x0BB8      |        3000 |
|     314 | 0x19500     |      103680 |
|     315 | 0x7FFF      |       32767 |
|     316 | 0x116700    |     1140480 |
|     317 | 0x1BC8      |        7112 |
|     318 | 0x1BC7      |        7111 |
|     319 | 0x1BC6      |        7110 |
|     320 | 0x1BC9      |        7113 |
|     321 | 0x1BCA      |        7114 |
|     322 | 0x1BCB      |        7115 |
|     323 | 0x1BCC      |        7116 |
|     324 | 0x1BCD      |        7117 |
|     325 | 0x1BCE      |        7118 |
|     326 | 0x1BC1      |        7105 |
|     327 | 0x1BC2      |        7106 |
|     328 | 0x1BC3      |        7107 |
|     329 | 0x1BC4      |        7108 |
|     330 | 0x1BC5      |        7109 |
|     331 | 0x1C84      |        7300 |
|     332 | 0x1C85      |        7301 |
|     333 | 0x1C86      |        7302 |
|     334 | 0x1C8D      |        7309 |
|     335 | 0x1C8E      |        7310 |
|     336 | 0x1C8F      |        7311 |
|     337 | 0x1C77      |        7287 |
|     338 | 0x1C74      |        7284 |
|     339 | 0x1C71      |        7281 |
|     340 | 0x1C7C      |        7292 |
|     341 | 0x1C7D      |        7293 |

## String References

- **7016**: What do you wish to know about? [Basic rules./About the Petra./About Sprint./About Scout./About Gate Breach./About area-specific rules./About returning to battle./About special rules./Nothing at the moment.]
- **7017**: Ballista is an exercise once used by the San d'Orian armies to train the Royal Knights in the art of the siege. The word "ballista" means "to throw a stone," and the game has been a part of Vana'dielian military history for centuries.
- **7018**: The rules are simple. Ballista is played by two teams over a number of hours (Vana'diel time). The team with the most points at the end of the match is the victor.
- **7019**: Players from both teams must search for Petras that a Herald has buried in various locations across the battlefield. The players must then take these stones and throw them into targets known as Rooks.
- **7020**: These Rooks can appear in various locations around the battlefield, and both teams are allowed to throw their Petras into them.
- **7021**: Finally, a player's strength is adjusted depending on his or her level. It is felt that this ultimately allows for a more balanced battle.
- **7022**: Petras can be buried anywhere. Once a player believes he or she has found one, the Quarry (/quarry) command should be used to dig up the area at his or her feet.
- **7023**: Sometimes a player may find items other than Petras, such as potions. These temporary items can only be used during the current match (or Best of Three series).
- **7024**: Players can carry more than one Petra, but they cannot throw the stones away once they have obtained them. However, players will lose their Petras if they: (1) Successfully throw them into a rook. (2) Leave the area. (3) Are knocked out.
- **7025**: But don't forget, a player will be unable to use the Sprint command while in possession of a Petra. And, players can only use the Scout command if they carry one of the stones.
- **7026**: As one can see, careful planning and impeccable timing are the keys to victory.
- **7027**: All participants of Ballista will have the ability to use the Sprint command. This will temporarily increase one's movement speed, creating a better chance to find and obtain Petras.
- **7028**: However, remember that once a player has obtained a Petra, he or she will be unable to use the Sprint command. In its place, though, one may use the Scout command.
- **7029**: The locations of the Rooks are constantly changing. This makes it quite difficult to find the targets by just randomly walking about the area.
- **7030**: Communication with one's team members is, of course, one way to locate Rooks. However, another way is by using the Scout command. This will inform a player of the approximate location of the nearest Rook.
- **7031**: Finally, Scout can only be used when a player is carrying a Petra. Because Sprint cannot be used at this time, players must be weary of approaching enemies.
- **7032**: So, a Petra has been obtained and a Rook located. Now all that's left is tossing the stone in, right? Wrong.
- **7033**: There is one aspect of Ballista that has yet to be mentioned...and this is where the real battle begins.
- **7034**: To throw a Petra into a Rook, a player must first wait until the Rook's gate is open. This takes impeccable timing, as the gate is only open for a short while.
- **7035**: But not just anyone can score points this way. A player must first take down a member of the opposing team and achieve Gate Breach status. Only then will his or her shots count.
- **7036**: This extreme method of combat is what made the ancient game of Ballista famous, and transformed its participants into heroes.
- **7037**: Running about looking for stones is no different from a child's game of hide-and-seek. Knowing when to strike is what separates the men from the boys.
- **7038**: The following match types are area-specific: All or Nothing (one match) * Normal Items Allowed: Jugner Forest All or Nothing (one match) * Normal Items Restricted: Pashhow Marshlands Best of Three (three matches) * Normal Items Allowed: Meriphataud Mountains
- **7039**: Best of Three series rules are as follows: Winning a match will earn a nation one "match point." The nation with the most match points at the end of the series will be declared the victor. Winning the third and final match and producing the high scorer will result in two match points awarded. This allows both sides the chance for "come-from-behind" victories.
- **7040**: Between each of the matches, a short interval will be implemented. During this interval, Invisible and Sneak will be cast on all participants. We suggest this time be used to discuss strategies with the other members of your nation's forces.
- **7041**: Players will be forbidden from using any items they bring to the battlefield. Only temporary items that are quarried may be used. A total of fifteen temporary items (though only one of each type) can be carried.
- **7042**: When this rule is in effect, all players will be presented with five complimentary temporary items at the beginning of the match.
- **7043**: For more information on temporary items, refer to the "special rules."
- **7044**: After being KO'd, if a player chooses to be revived at the spot he was defeated, 100% of all HP and 50% of all MP will be restored. In addition, the player will maintain 50% of the TP he had earned.
- **7045**: If a player chooses to return to their force's camp, HP and MP will be fully restored, but all TP will be lost.
- **7046**: Please note that many of the rules previously considered "special" have been fully implemented. Also, several new special rules have been added.
- **7047**: Learn about which special rules? [Temporary items./Ballista Points./Scoring restrictions./Gate Breach radius expansion./Resistance to Sleep./Open entries./Minimum level restrictions./Re-entry restrictions./Participant & Rook numbers./Experience Points./Return.]
- **7048**: Previously, participants in Ballista were required to use an item the moment they dug it up using the /quarry command. However, players can now stock these items as temporary items for use at any time during the match.
- **7049**: Players can hold up to ten temporary items, but only one of each type. If a player finds an item that they already possess, they must use it immediately or throw it away.
- **7050**: If players who possess ten temporary items find an item that they have not already obtained, they will also have the option to exchange it with one of their current items.
- **7051**: Also, players will not, at any time, be allowed to trade temporary items. However, there are items that can be used on other Ballista participants. Please note that players may not be able to use these special items as soon as they are quarried.
- **7052**: Finally, the Heralds will collect temporary items when the match (the third in a Best of Three series) has concluded.
- **7053**: Ballista Points are rewarded to each competitor based on his or her performance in a single Ballista match. The maximum number of points that can be accumulated per match is $0.
- **7054**: While it is taken into consideration, scoring Petras is not the only way to earn Ballista Points. Assisting allies and defeating members of the enemy forces can also earn a high score.
- **7055**: Ballista Points can be traded for special "vouchers," which may be exchanged for free temporary items at the start of new matches.
- **7056**: However, remember that depending on the level restriction of the match, certain vouchers will not be redeemed at the beginning of a match. Speak with a Marshal directly after a match to register your points.
- **7057**: Players will only be allowed to score up to five Petras at a time. Also, a player's Gate Breach status will be automatically disengaged if a Petra is not scored within a certain amount of time. The amount of time is increased for those members of the team currently behind in points.
- **7058**: All allies within a certain radius will achieve Gate Breach status when a member of the enemy forces is defeated.
- **7059**: Players' resistance to sleep will be increased.
- **7060**: During the entry period, from $0:, all adventurers will be allowed to join the forces with the smallest number of participants, regardless of allegiance. Open entries will be accepted until both sides have reached maximum capacity.
- **7061**: In order to ensure balanced matches, the following level limits are enforced: Level 30 matches: 1\`30
- **7062**: Level 40 matches: 31\`40 Level 50 matches: 41\`50 Level 60 matches: 51\`60 Unrestricted matches: 61\`
- **7063**: Please note that any participant who cancels his or her registration will not be allowed to re-apply for the same match.
- **7064**: When the total number of participants in a match is less than 40, the location of the two camps will be adjusted. Also in this case, the number of Rooks will be reduced to two.
- **7065**: Any adventurer whose main level is over 30 will receive EXP for participating in a Ballista match. However, no EXP will be rewarded if the adventurer fails to actively take part in the match.
- **7066**: Read which chapter on B.P. Ranking? [Basic Information./Registering Points./Rewards./Chevron & Title List./None.]
- **7067**: Ballista Point Ranking is based upon all Ballista Points registered from the past ten matches in each of the three participating battle areas.
- **7068**: Anyone who wishes to take part in the ranking needs to register [his/her] points within four hours (Vana'diel time) from the end of the previous match.
- **7069**: After the registration period ends, players can compare their record with those of the previous nine matches.
- **7070**: If, at any time, a player ranks in the top ten (overall) or first for a specific job, [he/she] will have the opportunity to receive a special chevron as well as a new title.
- **7071**: There are four types of chevrons and titles awarded to top-ten players (gold/mythril/silver/bronze), as well as twenty-two different types awarded for outstanding performances by players of each of the twenty-two jobs.
- **7072**: Wearing a chevron during a Ballista match will automatically change a player's current title. If a player wishes to possess this title after a match as well, [he/she] must contact a certain bard in San d'Oria.
- **7073**: Also, while wearing a chevron, players will be able to trade Ballista Points for temporary items not available to all players.
- **7074**: However, the rules of Ballista state that players may only possess a certain chevron for no longer than one half Vana'diel year. When that time comes, they are required to return the chevron before being allowed to participate in any further matches.
- **7075**: Finally, checking someone during a Ballista match will display the total number of chevrons that person has accumulated to date.
- **7076**: View which chevron/title? [1st (overall)./2nd (overall)./3rd (overall)./4th-10th (overall)./1st (warrior)./1st (monk)./1st (white mage)./1st (black mage)./1st (red mage)./1st (thief)./1st (paladin)./1st (dark knight)./1st (beastmaster)./1st (bard)./1st (ranger)./1st (samurai)./1st (ninja)./1st (dragoon)./1st (summoner)./1st (blue mage)./1st (corsair)./1st (puppetmaster)./1st (dancer)./1st (scholar)./1st (geomancer)./1st (rune fencer)./Return.]
- **7077**: Key Item: $3 Title: Gold Balli$25$25$25$25star
- **7078**: Key Item: $3 Title: Mythril Balli$25$25$25star
- **7079**: Key Item: $3 Title: Silver Balli$25$25star
- **7080**: Key Item: $3 Title: Bronze Balli$25star
- **7081**: Key Item: $3 Title: Searing$26Star
- **7082**: Key Item: $3 Title: Striking$26Star
- **7083**: Key Item: $3 Title: Soothing$26Star
- **7084**: Key Item: $3 Title: Sable$26Star
- **7085**: Key Item: $3 Title: Scarlet$26Star
- **7086**: Key Item: $3 Title: Sonic$26Star
- **7087**: Key Item: $3 Title: Saintly$26Star
- **7088**: Key Item: $3 Title: Shadowy$26Star
- **7089**: Key Item: $3 Title: Savage$26Star
- **7090**: Key Item: $3 Title: Singing$26Star
- **7091**: Key Item: $3 Title: Sniping$26Star
- **7092**: Key Item: $3 Title: Slicing$26Star
- **7093**: Key Item: $3 Title: Sneaking$26Star
- **7094**: Key Item: $3 Title: Spearing$26Star
- **7095**: Key Item: $3 Title: Summoning$26Star
- **7096**: Key Item: $3 Title: Sapphire$26Star
- **7097**: Key Item: $3 Title: Surging$26Star
- **7098**: Key Item: $3 Title: Swaying$26Star
- **7099**: Key Item: $3 Title: Sprightly$26Star
- **7100**: Key Item: $3 Title: Sagacious$26Star
- **7101**: Key Item: $3 Title: Spiritual$26Star
- **7102**: Key Item: $3 Title: Stippling$26Star
- **7105**: Matches are only played on even days (Vana'diel time).
- **7106**: Areas where Ballista matches will be held are:", 8, 14, 20, 26 -> Jugner 4, 10, 16, 22, 28 -> Pashhow 6, 12, 18, 24, 30 -> Meriphataud
- **7107**: Level restrictions are:", 4, 6 -> Lv. 30 8, 10, 12 -> Lv. 40 14, 16, 18 -> Lv. 50"0, 22, 24 -> Lv. 60"6, 28, 30 -> None
- **7108**: And finally, participation fees are: Lv. 30 matches: $0 gil Lv. 40 matches: $1 gil Lv. 50 matches: $2 gil Lv. 60 matches: $3 gil Unrestricted matches: $4 gil
- **7109**: Participating nations are selected in the following manner...
- **7110**: Matches for the 1st\`4th month are: Jugner: Bastok vs San d'Oria Pashhow: Bastok vs Windurst Meriphataud: San d'Oria vs Windurst
- **7111**: Matches for the 5th\`8th month are: Jugner: Bastok vs Windurst Pashhow: San d'Oria vs Windurst Meriphataud: Bastok vs San d'Oria
- **7112**: Matches for the 9th\`12th month are: Jugner: San d'Oria vs Windurst Pashhow: San d'Oria vs Bastok Meriphataud: Bastok vs Windurst
- **7113**: Learn about which match: [View previous month./$3/$4/2 Lv.30 Jugner/$3/$4/4 Lv.30 Pashhow/$3/$4/6 Lv.30 Meriphataud/$3/$4/8 Lv.40 Jugner/$3/$4/10 Lv.40 Pashhow/$3/$4/12 Lv.40 Meriphataud/$3/$4/14 Lv.50 Jugner/$3/$4/16 Lv.50 Pashhow/$3/$4/18 Lv.50 Meriphataud/$3/$4/20 Lv.60 Jugner/$3/$4/22 Lv.60 Pashhow/$3/$4/24 Lv.60 Meriphataud/$3/$4/26 Lv.$7 Jugner/$3/$4/28 Lv.$7 Pashhow/$3/$4/30 Lv.$7 Meriphataud/View next month./Quit.]
- **7114**: Learn about which match: [View previous month./$4/2/$3 Lv.30 Jugner/$4/4/$3 Lv.30 Pashhow/$4/6/$3 Lv.30 Meriphataud/$4/8/$3 Lv.40 Jugner/$4/10/$3 Lv.40 Pashhow/$4/12/$3 Lv.40 Meriphataud/$4/14/$3 Lv.50 Jugner/$4/16/$3 Lv.50 Pashhow/$4/18/$3 Lv.50 Meriphataud/$4/20/$3 Lv.60 Jugner/$4/22/$3 Lv.60 Pashhow/$4/24/$3 Lv.60 Meriphataud/$4/26/$3 Lv.$7 Jugner/$4/28/$3 Lv.$7 Pashhow/$4/30/$3 Lv.$7 Meriphataud/View next month./Quit.]
- **7115**: Learn about which match: [View previous month."/$4/$3 Lv.30 Jugner/4/$4/$3 Lv.30 Pashhow/6/$4/$3 Lv.30 Meriphataud/8/$4/$3 Lv.40 Jugner/10/$4/$3 Lv.40 Pashhow/12/$4/$3 Lv.40 Meriphataud/14/$4/$3 Lv.50 Jugner/16/$4/$3 Lv.50 Pashhow/18/$4/$3 Lv.50 Meriphataud"0/$4/$3 Lv.60 Jugner"2/$4/$3 Lv.60 Pashhow"4/$4/$3 Lv.60 Meriphataud"6/$4/$3 Lv.$7 Jugner"8/$4/$3 Lv.$7 Pashhow"0/$4/$3 Lv.$7 Meriphataud/View next month./Quit.]
- **7116**: Place: [Jugner Forest/Pashhow Marshlands/Meriphataud Mountains] Nations: [San d'Oria/Bastok/Windurst] vs [San d'Oria/Bastok/Windurst] Level Restriction: [None/ / /30/40/50/60/] Participation Fee: $4 gil Match Format: [All or Nothing/Best of Three] * [Normal Items Restricted/Normal Items Allowed]
- **7117**: Entry period begins: Vana'diel: Earth:
- **7118**: Match begins: Vana'diel: Earth:
- **7119**: Register for Conflict? [Sign me up!/I need more time to think.]
- **7125**: What shall you ask? [About the coming Ballista matches./About the Ballista schedule./About Ballista Earrings./About the rules of Ballista./Nothing at the moment.]
- **7265**: Ask for an earring? [Yes./No.]
- **7275**: Return the earring? [Yes./Not yet.]
- **10683**: <Player>'s badge flashes brightly.
- **10686**: Look sharp, maggot! Huh? What's that medal you've got there? You an officer dispatched from some foreign land, squirt? Well!?
- **10687**: You're not? Well, how the hell am I supposed to know!?

## Events

### Event 65535

#### Metadata

| Field        | Value   |
|--------------|---------|
| Entrypoint   | 0x0000  |
| Data Size    | 1 bytes |
| Instructions | 1       |

```
      00 01 02 03 04 05 06 07  08 09 0A 0B 0C 0D 0E 0F
      -- -- -- -- -- -- -- --  -- -- -- -- -- -- -- --
0000: 00                                                .               
```

#### Opcodes

```
  0: 0x0000 [0x00] END_REQSTACK()
```

### Event 932

#### Metadata

| Field        | Value    |
|--------------|----------|
| Entrypoint   | 0x0001   |
| Data Size    | 31 bytes |
| Instructions | 11       |

```
      00 01 02 03 04 05 06 07  08 09 0A 0B 0C 0D 0E 0F
      -- -- -- -- -- -- -- --  -- -- -- -- -- -- -- --
0000:    42 48 00 80 1E F0 FF  FF 7F 1D 01 80 23 6E 7E   BH..........#n~
0010: D0 0E 01 02 80 99 7E D0  0E 01 1D 03 80 23 21 00  ......~......#!.
```

#### Opcodes

```
  0: 0x0001 [0x42] SET_CLI_EVENT_CANCEL_DATA()
  1: 0x0002 [0x48] [System] [10683*]:
    → "<Player>'s badge flashes brightly."
  2: 0x0005 [0x1E] EventEntity looks at LocalPlayer and starts talking
  3: 0x000A [0x1D] PRINT_EVENT_MESSAGE(message_id=10686*)
    → "Look sharp, maggot! Huh? What's that medal you've got there? You an officer dispatched from some foreign land, squirt? Well!?"
  4: 0x000D [0x23] WAIT_FOR_DIALOG_INTERACTION
  5: 0x000E [0x6E] Invincible Shield (ID: 17748094/0x010ED07E) uses emote 6*
  6: 0x0015 [0x99] Wait for Invincible Shield (ID: 17748094/0x010ED07E) animation to complete
  7: 0x001A [0x1D] PRINT_EVENT_MESSAGE(message_id=10687*)
    → "You're not? Well, how the hell am I supposed to know!?"
  8: 0x001D [0x23] WAIT_FOR_DIALOG_INTERACTION
  9: 0x001E [0x21] END_EVENT
 10: 0x001F [0x00] END_REQSTACK()
```

### Event 810

#### Metadata

| Field        | Value    |
|--------------|----------|
| Entrypoint   | 0x0020   |
| Data Size    | 33 bytes |
| Instructions | 11       |

```
      00 01 02 03 04 05 06 07  08 09 0A 0B 0C 0D 0E 0F
      -- -- -- -- -- -- -- --  -- -- -- -- -- -- -- --
0020: 1E F0 FF FF 7F 6F 70 2B  7E D0 0E 01 04 80 23 2B  .....op+~.....#+
0030: 7E D0 0E 01 05 80 23 2B  7E D0 0E 01 06 80 23 21  ~.....#+~.....#!
0040: 00                                                .               
```

#### Opcodes

```
  0: 0x0020 [0x1E] EventEntity looks at LocalPlayer and starts talking
  1: 0x0025 [0x6F] WAIT_FRAME_DELAY: Yield until WaitTime reaches zero
  2: 0x0026 [0x70] WAIT_ENTITY_RENDER_FLAG: Wait while EventEntity->Render.Flags3 bit 2 is set (cancel turn if not)
  3: 0x0027 [0x2B] Invincible Shield (ID: 17748094/0x010ED07E) [7148*]:
    → "What!? You think you're [man/woman] enough to join our nation's Conflict forces!?"
  4: 0x002E [0x23] WAIT_FOR_DIALOG_INTERACTION
  5: 0x002F [0x2B] Invincible Shield (ID: 17748094/0x010ED07E) [7149*]:
    → "Why, you're still a worthless maggot that hasn't done squat for the Republic! Come back when your rank is at least higher than your IQ!"
  6: 0x0036 [0x23] WAIT_FOR_DIALOG_INTERACTION
  7: 0x0037 [0x2B] Invincible Shield (ID: 17748094/0x010ED07E) [7150*]:
    → "I'll be watching you, soldier!"
  8: 0x003E [0x23] WAIT_FOR_DIALOG_INTERACTION
  9: 0x003F [0x21] END_EVENT
 10: 0x0040 [0x00] END_REQSTACK()
```

### Event 813

#### Metadata

| Field        | Value      |
|--------------|------------|
| Entrypoint   | 0x0041     |
| Data Size    | 3350 bytes |
| Instructions | 516        |

```
      00 01 02 03 04 05 06 07  08 09 0A 0B 0C 0D 0E 0F
      -- -- -- -- -- -- -- --  -- -- -- -- -- -- -- --
0040:    20 01 42 02 03 10 07  80 00 8B 00 1E F0 FF FF    .B............
0050: 7F 6F 70 2B 7E D0 0E 01  08 80 23 2B 7E D0 0E 01  .op+~.....#+~...
0060: 09 80 23 2B 7E D0 0E 01  0A 80 23 2B 7E D0 0E 01  ..#+~.....#+~...
0070: 0B 80 23 2B 7E D0 0E 01  0C 80 23 2B 7E D0 0E 01  ..#+~.....#+~...
0080: 0D 80 23 2B 7E D0 0E 01  0E 80 23 45 0F 80 F0 FF  ..#+~.....#E....
0090: FF 7F F0 FF FF 7F 66 64  6F 31 07 80 55 0F 80 F0  ......fdo1..U...
00A0: FF FF 7F F0 FF FF 7F 66  64 6F 31 38 10 80 27 03  .......fdo18..'.
00B0: F0 FF FF 7F 40 3B F8 FF  FF 7F 00 00 01 00 02 00  ....@;..........
00C0: 3A F8 FF FF 7F 03 00 46  01 5C 00 11 80 5C 01 11  :......F.\...\..
00D0: 80 38 12 80 34 13 80 1C  14 80 77 07 80 07 80 03  .8..4.....w.....
00E0: 04 00 02 10 75 00 15 80  75 01 94 01 F0 FF FF 7F  ....u...u.......
00F0: 94 01 F8 FF FF 7F 4E 01  F0 FF FF 7F 4E 01 F8 FF  ......N.....N...
0100: FF 7F 4E 00 90 D0 0E 01  4E 00 93 D0 0E 01 4E 00  ..N.....N.....N.
0110: 95 D0 0E 01 4E 00 94 D0  0E 01 02 04 00 07 80 00  ....N...........
0120: 2B 01 4E 00 96 D0 0E 01  01 32 01 27 03 95 D0 0E  +.N......2.'....
0130: 01 02 4E 00 2E D0 0E 01  4E 00 2F D0 0E 01 79 00  ..N.....N./...y.
0140: 93 D0 0E 01 90 D0 0E 01  79 00 95 D0 0E 01 90 D0  ........y.......
0150: 0E 01 79 00 96 D0 0E 01  90 D0 0E 01 79 00 2E D0  ..y.........y...
0160: 0E 01 90 D0 0E 01 79 00  2F D0 0E 01 90 D0 0E 01  ......y./.......
0170: 80 90 D0 0E 01 80 93 D0  0E 01 80 2E D0 0E 01 4E  ...............N
0180: 00 91 D0 0E 01 4E 00 92  D0 0E 01 45 16 80 F0 FF  .....N.....E....
0190: FF 7F F0 FF FF 7F 7A 30  30 30 07 80 97 07 80 17  ......z000......
01A0: 80 45 0F 80 F0 FF FF 7F  F0 FF FF 7F 66 64 69 31  .E..........fdi1
01B0: 07 80 55 0F 80 F0 FF FF  7F F0 FF FF 7F 66 64 69  ..U..........fdi
01C0: 31 55 16 80 F0 FF FF 7F  F0 FF FF 7F 7A 30 30 30  1U..........z000
01D0: 2B 90 D0 0E 01 18 80 79  00 90 D0 0E 01 93 D0 0E  +......y........
01E0: 01 1C 19 80 79 00 90 D0  0E 01 2E D0 0E 01 1C 19  ....y...........
01F0: 80 7B 90 D0 0E 01 23 45  16 80 F0 FF FF 7F F0 FF  .{....#E........
0200: FF 7F 7A 30 30 31 07 80  55 16 80 F0 FF FF 7F F0  ..z001..U.......
0210: FF FF 7F 7A 30 30 31 1C  1A 80 2B 90 D0 0E 01 1B  ...z001...+.....
0220: 80 23 1C 1C 80 2B 93 D0  0E 01 1D 80 23 1C 1E 80  .#...+......#...
0230: 4A 90 D0 0E 01 93 D0 0E  01 1C 1C 80 45 16 80 F0  J...........E...
0240: FF FF 7F F0 FF FF 7F 7A  30 30 32 07 80 6F 76 90  .......z002..ov.
0250: D0 0E 01 4A 2E D0 0E 01  93 D0 0E 01 4A 96 D0 0E  ...J........J...
0260: 01 93 D0 0E 01 4A 95 D0  0E 01 93 D0 0E 01 1C 1E  .....J..........
0270: 80 2B 90 D0 0E 01 1F 80  23 55 16 80 F0 FF FF 7F  .+......#U......
0280: F0 FF FF 7F 7A 30 30 32  2B 93 D0 0E 01 20 80 23  ....z002+.... .#
0290: 2B 93 D0 0E 01 21 80 23  81 00 93 D0 0E 01 45 16  +....!.#......E.
02A0: 80 F0 FF FF 7F F0 FF FF  7F 7A 30 30 33 07 80 2B  .........z003..+
02B0: 93 D0 0E 01 22 80 23 2B  93 D0 0E 01 23 80 23 81  ....".#+....#.#.
02C0: 01 93 D0 0E 01 7B 93 D0  0E 01 55 16 80 F0 FF FF  .....{....U.....
02D0: 7F F0 FF FF 7F 7A 30 30  33 4B 93 D0 0E 01 07 80  .....z003K......
02E0: 1C 1E 80 45 16 80 F0 FF  FF 7F F0 FF FF 7F 7A 30  ...E..........z0
02F0: 30 34 07 80 55 16 80 F0  FF FF 7F F0 FF FF 7F 7A  04..U..........z
0300: 30 30 34 6F 76 93 D0 0E  01 27 03 93 D0 0E 01 08  004ov....'......
0310: 2B 93 D0 0E 01 24 80 23  27 03 2E D0 0E 01 03 2B  +....$.#'......+
0320: 2E D0 0E 01 25 80 23 27  03 2E D0 0E 01 04 02 04  ....%.#'........
0330: 00 07 80 00 41 03 2B 96  D0 0E 01 26 80 23 01 49  ....A.+....&.#.I
0340: 03 2B 95 D0 0E 01 27 80  23 27 03 93 D0 0E 01 09  .+....'.#'......
0350: 2B 93 D0 0E 01 28 80 23  02 04 00 07 80 00 C4 03  +....(.#........
0360: 4A 2E D0 0E 01 96 D0 0E  01 1C 1C 80 45 16 80 F0  J...........E...
0370: FF FF 7F F0 FF FF 7F 7A  30 30 35 07 80 55 16 80  .......z005..U..
0380: F0 FF FF 7F F0 FF FF 7F  7A 30 30 35 6F 76 2E D0  ........z005ov..
0390: 0E 01 27 03 2E D0 0E 01  07 2B 2E D0 0E 01 29 80  ..'......+....).
03A0: 1C 1C 80 4A 96 D0 0E 01  2E D0 0E 01 1C 1C 80 4A  ...J...........J
03B0: 95 D0 0E 01 2E D0 0E 01  23 2B 2E D0 0E 01 2A 80  ........#+....*.
03C0: 23 01 11 04 4A 2E D0 0E  01 95 D0 0E 01 1C 1C 80  #...J...........
03D0: 45 16 80 F0 FF FF 7F F0  FF FF 7F 7A 30 30 35 07  E..........z005.
03E0: 80 55 16 80 F0 FF FF 7F  F0 FF FF 7F 7A 30 30 35  .U..........z005
03F0: 6F 76 2E D0 0E 01 27 03  2E D0 0E 01 07 2B 2E D0  ov....'......+..
0400: 0E 01 2B 80 1C 1C 80 4A  95 D0 0E 01 2E D0 0E 01  ..+....J........
0410: 23 2B 2E D0 0E 01 2C 80  23 45 16 80 F0 FF FF 7F  #+....,.#E......
0420: F0 FF FF 7F 7A 30 30 36  07 80 55 16 80 F0 FF FF  ....z006..U.....
0430: 7F F0 FF FF 7F 7A 30 30  36 02 04 00 07 80 00 76  .....z006......v
0440: 04 6F 76 96 D0 0E 01 27  03 96 D0 0E 01 06 2B 96  .ov....'......+.
0450: D0 0E 01 2D 80 23 2B 96  D0 0E 01 2E 80 23 27 03  ...-.#+......#'.
0460: 96 D0 0E 01 07 2B 96 D0  0E 01 2F 80 23 2A 03 96  .....+..../.#*..
0470: D0 0E 01 01 9C 04 27 03  95 D0 0E 01 06 2B 95 D0  ......'......+..
0480: 0E 01 30 80 23 2B 95 D0  0E 01 31 80 23 2B 95 D0  ..0.#+....1.#+..
0490: 0E 01 32 80 23 29 03 95  D0 0E 01 07 45 16 80 F0  ..2.#)......E...
04A0: FF FF 7F F0 FF FF 7F 7A  30 30 37 07 80 2B 93 D0  .......z007..+..
04B0: 0E 01 33 80 1C 14 80 29  03 2E D0 0E 01 08 23 55  ..3....)......#U
04C0: 16 80 F0 FF FF 7F F0 FF  FF 7F 7A 30 30 37 02 04  ..........z007..
04D0: 00 07 80 00 E1 04 2B 2E  D0 0E 01 34 80 23 01 E9  ......+....4.#..
04E0: 04 2B 2E D0 0E 01 35 80  23 2B 2E D0 0E 01 36 80  .+....5.#+....6.
04F0: 23 2B 2E D0 0E 01 37 80  23 02 04 00 07 80 00 98  #+....7.#.......
0500: 05 2B 96 D0 0E 01 38 80  23 45 16 80 F0 FF FF 7F  .+....8.#E......
0510: F0 FF FF 7F 7A 30 30 38  07 80 27 03 95 D0 0E 01  ....z008..'.....
0520: 09 2B 95 D0 0E 01 39 80  23 79 00 2E D0 0E 01 95  .+....9.#y......
0530: D0 0E 01 55 16 80 F0 FF  FF 7F F0 FF FF 7F 7A 30  ...U..........z0
0540: 30 38 45 16 80 F0 FF FF  7F F0 FF FF 7F 7A 30 30  08E..........z00
0550: 39 07 80 2B 95 D0 0E 01  3A 80 1C 1C 80 4A 96 D0  9..+....:....J..
0560: 0E 01 95 D0 0E 01 6F 76  96 D0 0E 01 23 2B 96 D0  ......ov....#+..
0570: 0E 01 3B 80 23 6B 69 64  6C 30 95 D0 0E 01 2B 95  ..;.#kidl0....+.
0580: D0 0E 01 3C 80 23 55 16  80 F0 FF FF 7F F0 FF FF  ...<.#U.........
0590: 7F 7A 30 30 39 01 F2 05  45 16 80 F0 FF FF 7F F0  .z009...E.......
05A0: FF FF 7F 73 30 30 30 07  80 27 03 95 D0 0E 01 0B  ...s000..'......
05B0: 2B 95 D0 0E 01 3D 80 23  2B 95 D0 0E 01 3E 80 23  +....=.#+....>.#
05C0: 2B 95 D0 0E 01 3F 80 23  2A 03 95 D0 0E 01 2B 95  +....?.#*.....+.
05D0: D0 0E 01 40 80 1C 41 80  27 03 95 D0 0E 01 08 1C  ...@..A.'.......
05E0: 41 80 23 55 16 80 F0 FF  FF 7F F0 FF FF 7F 73 30  A.#U..........s0
05F0: 30 30 45 16 80 F0 FF FF  7F F0 FF FF 7F 79 30 30  00E..........y00
0600: 30 07 80 2B 2E D0 0E 01  42 80 23 7B 2E D0 0E 01  0..+....B.#{....
0610: 2B 2E D0 0E 01 43 80 23  55 16 80 F0 FF FF 7F F0  +....C.#U.......
0620: FF FF 7F 79 30 30 30 45  16 80 F0 FF FF 7F F0 FF  ...y000E........
0630: FF 7F 79 30 30 31 07 80  2B 93 D0 0E 01 44 80 23  ..y001..+....D.#
0640: 4A 95 D0 0E 01 93 D0 0E  01 02 04 00 07 80 00 5C  J..............\
0650: 06 2B 93 D0 0E 01 45 80  23 01 64 06 2B 93 D0 0E  .+....E.#.d.+...
0660: 01 46 80 23 55 16 80 F0  FF FF 7F F0 FF FF 7F 79  .F.#U..........y
0670: 30 30 31 6F 76 95 D0 0E  01 2B 95 D0 0E 01 47 80  001ov....+....G.
0680: 23 1C 48 80 4A 2E D0 0E  01 93 D0 0E 01 1C 1C 80  #.H.J...........
0690: 4A 95 D0 0E 01 93 D0 0E  01 45 16 80 F0 FF FF 7F  J........E......
06A0: F0 FF FF 7F 79 30 30 32  07 80 55 16 80 F0 FF FF  ....y002..U.....
06B0: 7F F0 FF FF 7F 79 30 30  32 6F 76 2E D0 0E 01 27  .....y002ov....'
06C0: 03 2E D0 0E 01 05 2B 2E  D0 0E 01 49 80 23 02 04  ......+....I.#..
06D0: 00 07 80 00 1E 07 45 16  80 F0 FF FF 7F F0 FF FF  ......E.........
06E0: 7F 79 30 30 33 07 80 1C  4A 80 4A 96 D0 0E 01 93  .y003...J.J.....
06F0: D0 0E 01 1C 4A 80 27 03  95 D0 0E 01 04 2B 95 D0  ....J.'......+..
0700: 0E 01 4B 80 23 27 03 95  D0 0E 01 05 55 16 80 F0  ..K.#'......U...
0710: FF FF 7F F0 FF FF 7F 79  30 30 33 1C 1A 80 7B 93  .......y003...{.
0720: D0 0E 01 1C 41 80 27 03  93 D0 0E 01 02 1C 1A 80  ....A.'.........
0730: 27 03 2E D0 0E 01 06 45  16 80 F0 FF FF 7F F0 FF  '......E........
0740: FF 7F 79 30 30 34 07 80  55 16 80 F0 FF FF 7F F0  ..y004..U.......
0750: FF FF 7F 79 30 30 34 2A  03 93 D0 0E 01 2B 93 D0  ...y004*.....+..
0760: 0E 01 4C 80 23 4A 90 D0  0E 01 93 D0 0E 01 2B 90  ..L.#J........+.
0770: D0 0E 01 4D 80 23 2B 93  D0 0E 01 4E 80 23 2B 93  ...M.#+....N.#+.
0780: D0 0E 01 4F 80 23 4B 93  D0 0E 01 07 80 1C 1A 80  ...O.#K.........
0790: 45 16 80 F0 FF FF 7F F0  FF FF 7F 79 30 30 62 07  E..........y00b.
07A0: 80 6F 76 93 D0 0E 01 1C  48 80 2B 93 D0 0E 01 50  .ov.....H.+....P
07B0: 80 23 55 16 80 F0 FF FF  7F F0 FF FF 7F 79 30 30  .#U..........y00
07C0: 62 45 16 80 F0 FF FF 7F  F0 FF FF 7F 79 30 30 36  bE..........y006
07D0: 07 80 55 16 80 F0 FF FF  7F F0 FF FF 7F 79 30 30  ..U..........y00
07E0: 36 2B 90 D0 0E 01 51 80  23 79 00 93 D0 0E 01 90  6+....Q.#y......
07F0: D0 0E 01 1C 1C 80 27 03  93 D0 0E 01 06 2B 93 D0  ......'......+..
0800: 0E 01 52 80 23 2B 93 D0  0E 01 53 80 23 45 16 80  ..R.#+....S.#E..
0810: F0 FF FF 7F F0 FF FF 7F  78 30 30 30 07 80 55 16  ........x000..U.
0820: 80 F0 FF FF 7F F0 FF FF  7F 78 30 30 30 2B 90 D0  .........x000+..
0830: 0E 01 54 80 23 45 16 80  F0 FF FF 7F F0 FF FF 7F  ..T.#E..........
0840: 79 30 30 38 07 80 55 16  80 F0 FF FF 7F F0 FF FF  y008..U.........
0850: 7F 79 30 30 38 27 03 93  D0 0E 01 07 2B 93 D0 0E  .y008'......+...
0860: 01 55 80 23 27 03 95 D0  0E 01 0B 02 04 00 07 80  .U.#'...........
0870: 00 96 08 45 16 80 F0 FF  FF 7F F0 FF FF 7F 79 30  ...E..........y0
0880: 30 37 07 80 55 16 80 F0  FF FF 7F F0 FF FF 7F 79  07..U..........y
0890: 30 30 37 01 B6 08 45 16  80 F0 FF FF 7F F0 FF FF  007...E.........
08A0: 7F 73 30 30 31 07 80 55  16 80 F0 FF FF 7F F0 FF  .s001..U........
08B0: FF 7F 73 30 30 31 2B 95  D0 0E 01 56 80 23 2A 03  ..s001+....V.#*.
08C0: 93 D0 0E 01 7B 93 D0 0E  01 45 16 80 F0 FF FF 7F  ....{....E......
08D0: F0 FF FF 7F 79 30 30 35  07 80 1C 48 80 27 03 93  ....y005...H.'..
08E0: D0 0E 01 08 2B 93 D0 0E  01 57 80 23 5D 07 80 58  ....+....W.#]..X
08F0: 80 55 16 80 F0 FF FF 7F  F0 FF FF 7F 79 30 30 35  .U..........y005
0900: 2B 93 D0 0E 01 59 80 23  27 03 93 D0 0E 01 09 45  +....Y.#'......E
0910: 16 80 F0 FF FF 7F F0 FF  FF 7F 79 30 30 39 07 80  ..........y009..
0920: 55 16 80 F0 FF FF 7F F0  FF FF 7F 79 30 30 39 5C  U..........y009\
0930: 00 5A 80 5C 01 5A 80 7C  00 2E D0 0E 01 2B 2E D0  .Z.\.Z.|.....+..
0940: 0E 01 5B 80 23 7C 01 2E  D0 0E 01 02 04 00 07 80  ..[.#|..........
0950: 00 76 09 45 16 80 F0 FF  FF 7F F0 FF FF 7F 79 30  .v.E..........y0
0960: 30 61 07 80 55 16 80 F0  FF FF 7F F0 FF FF 7F 79  0a..U..........y
0970: 30 30 61 01 96 09 45 16  80 F0 FF FF 7F F0 FF FF  00a...E.........
0980: 7F 73 30 30 32 07 80 55  16 80 F0 FF FF 7F F0 FF  .s002..U........
0990: FF 7F 73 30 30 32 7C 00  95 D0 0E 01 2B 95 D0 0E  ..s002|.....+...
09A0: 01 5C 80 23 7C 01 95 D0  0E 01 45 16 80 F0 FF FF  .\.#|.....E.....
09B0: 7F F0 FF FF 7F 78 30 30  31 07 80 1C 1E 80 27 03  .....x001.....'.
09C0: 90 D0 0E 01 02 2B 90 D0  0E 01 5D 80 23 55 16 80  .....+....].#U..
09D0: F0 FF FF 7F F0 FF FF 7F  78 30 30 31 2B 90 D0 0E  ........x001+...
09E0: 01 5E 80 23 1C 48 80 2B  93 D0 0E 01 5F 80 23 27  .^.#.H.+...._.#'
09F0: 03 90 D0 0E 01 03 45 16  80 F0 FF FF 7F F0 FF FF  ......E.........
0A00: 7F 78 30 30 32 07 80 27  03 2E D0 0E 01 07 2B 2E  .x002..'......+.
0A10: D0 0E 01 60 80 23 2B 2E  D0 0E 01 61 80 23 27 03  ...`.#+....a.#'.
0A20: 2E D0 0E 01 08 2B 2E D0  0E 01 62 80 23 2B 2E D0  .....+....b.#+..
0A30: 0E 01 63 80 23 55 16 80  F0 FF FF 7F F0 FF FF 7F  ..c.#U..........
0A40: 78 30 30 32 02 04 00 07  80 00 CE 0A 45 16 80 F0  x002........E...
0A50: FF FF 7F F0 FF FF 7F 78  30 30 33 07 80 27 03 95  .......x003..'..
0A60: D0 0E 01 06 2B 95 D0 0E  01 64 80 23 2B 95 D0 0E  ....+....d.#+...
0A70: 01 65 80 23 27 03 95 D0  0E 01 07 4A 96 D0 0E 01  .e.#'......J....
0A80: 95 D0 0E 01 1C 1C 80 2B  96 D0 0E 01 66 80 23 2A  .......+....f.#*
0A90: 03 95 D0 0E 01 27 03 95  D0 0E 01 09 2B 95 D0 0E  .....'......+...
0AA0: 01 67 80 23 2B 95 D0 0E  01 68 80 23 6F 76 96 D0  .g.#+....h.#ov..
0AB0: 0E 01 27 03 96 D0 0E 01  08 1C 41 80 55 16 80 F0  ..'.......A.U...
0AC0: FF FF 7F F0 FF FF 7F 78  30 30 33 01 1C 0B 45 16  .......x003...E.
0AD0: 80 F0 FF FF 7F F0 FF FF  7F 73 30 30 33 07 80 27  .........s003..'
0AE0: 03 95 D0 0E 01 06 2B 95  D0 0E 01 64 80 23 2B 95  ......+....d.#+.
0AF0: D0 0E 01 65 80 23 27 03  95 D0 0E 01 07 2B 95 D0  ...e.#'......+..
0B00: 0E 01 69 80 23 2B 95 D0  0E 01 68 80 23 55 16 80  ..i.#+....h.#U..
0B10: F0 FF FF 7F F0 FF FF 7F  73 30 30 33 7B 90 D0 0E  ........s003{...
0B20: 01 4A 2E D0 0E 01 90 D0  0E 01 1C 6A 80 45 16 80  .J.........j.E..
0B30: F0 FF FF 7F F0 FF FF 7F  78 30 30 34 07 80 55 16  ........x004..U.
0B40: 80 F0 FF FF 7F F0 FF FF  7F 78 30 30 34 02 04 00  .........x004...
0B50: 07 80 00 5E 0B 6B 69 64  6C 30 95 D0 0E 01 6F 76  ...^.kidl0....ov
0B60: 2E D0 0E 01 27 03 2E D0  0E 01 03 2B 2E D0 0E 01  ....'......+....
0B70: 6B 80 23 2B 2E D0 0E 01  6C 80 23 27 03 2E D0 0E  k.#+....l.#'....
0B80: 01 04 4A 93 D0 0E 01 90  D0 0E 01 1C 1C 80 2B 93  ..J...........+.
0B90: D0 0E 01 6D 80 23 4B 90  D0 0E 01 6E 80 1C 1C 80  ...m.#K....n....
0BA0: 4A 95 D0 0E 01 90 D0 0E  01 1C 1C 80 4A 96 D0 0E  J...........J...
0BB0: 01 90 D0 0E 01 1C 1C 80  45 16 80 F0 FF FF 7F F0  ........E.......
0BC0: FF FF 7F 78 30 30 35 07  80 2B 90 D0 0E 01 6F 80  ...x005..+....o.
0BD0: 23 2B 90 D0 0E 01 70 80  23 2B 90 D0 0E 01 71 80  #+....p.#+....q.
0BE0: 23 55 16 80 F0 FF FF 7F  F0 FF FF 7F 78 30 30 35  #U..........x005
0BF0: 27 03 2E D0 0E 01 05 2B  2E D0 0E 01 72 80 23 27  '......+....r.#'
0C00: 03 93 D0 0E 01 04 2B 93  D0 0E 01 73 80 23 45 16  ......+....s.#E.
0C10: 80 F0 FF FF 7F F0 FF FF  7F 78 30 30 36 07 80 1C  .........x006...
0C20: 48 80 27 03 2E D0 0E 01  06 27 03 93 D0 0E 01 05  H.'......'......
0C30: 2B 90 D0 0E 01 74 80 23  55 16 80 F0 FF FF 7F F0  +....t.#U.......
0C40: FF FF 7F 78 30 30 36 7B  95 D0 0E 01 02 04 00 07  ...x006{........
0C50: 80 00 57 0C 01 5E 0C 29  03 95 D0 0E 01 03 4B 95  ..W..^.)......K.
0C60: D0 0E 01 75 80 27 03 2E  D0 0E 01 02 27 03 93 D0  ...u.'......'...
0C70: 0E 01 03 1C 14 80 4A 94  D0 0E 01 93 D0 0E 01 1C  ......J.........
0C80: 4A 80 45 16 80 F0 FF FF  7F F0 FF FF 7F 78 30 30  J.E..........x00
0C90: 37 07 80 02 04 00 07 80  00 A6 0C 2B 95 D0 0E 01  7..........+....
0CA0: 76 80 23 01 AE 0C 2B 95  D0 0E 01 77 80 23 27 03  v.#...+....w.#'.
0CB0: 95 D0 0E 01 09 2B 95 D0  0E 01 78 80 1C 14 80 55  .....+....x....U
0CC0: 16 80 F0 FF FF 7F F0 FF  FF 7F 78 30 30 37 45 0F  ..........x007E.
0CD0: 80 F0 FF FF 7F F0 FF FF  7F 66 64 6F 32 07 80 55  .........fdo2..U
0CE0: 0F 80 F0 FF FF 7F F0 FF  FF 7F 66 64 6F 32 23 35  ..........fdo2#5
0CF0: 79 80 1C 14 80 78 46 00  38 07 80 37 00 00 01 00  y....xF.8..7....
0D00: 02 00 03 00 29 03 F0 FF  FF 7F 41 4E 00 F0 FF FF  ....).....AN....
0D10: 7F 4E 00 F8 FF FF 7F 80  F0 FF FF 7F 80 F8 FF FF  .N..............
0D20: 7F 45 0F 80 F0 FF FF 7F  F0 FF FF 7F 66 64 69 32  .E..........fdi2
0D30: 07 80 5C 00 7A 80 5C 01  7A 80 02 03 10 07 80 00  ..\.z.\.z.......
0D40: 55 0D 2B 7E D0 0E 01 7B  80 23 2B 7E D0 0E 01 7C  U.+~...{.#+~...|
0D50: 80 23 1A 6D 0D 21 00                              .#.m.!.         
```

#### Opcodes

```
  0: 0x0041 [0x20] SET_CLI_EVENT_UC_FLAG: Lock player control
  1: 0x0043 [0x42] SET_CLI_EVENT_CANCEL_DATA()
  2: 0x0044 [0x02] IF !(Work_Zone[3] == 0*) GOTO 0x008B
  3: 0x004C [0x1E] EventEntity looks at LocalPlayer and starts talking
  4: 0x0051 [0x6F] WAIT_FRAME_DELAY: Yield until WaitTime reaches zero
  5: 0x0052 [0x70] WAIT_ENTITY_RENDER_FLAG: Wait while EventEntity->Render.Flags3 bit 2 is set (cancel turn if not)
  6: 0x0053 [0x2B] Invincible Shield (ID: 17748094/0x010ED07E) [7170*]:
    → "What!? You think you're [man/woman] enough to join our nation's Conflict forces!?"
  7: 0x005A [0x23] WAIT_FOR_DIALOG_INTERACTION
  8: 0x005B [0x2B] Invincible Shield (ID: 17748094/0x010ED07E) [7171*]:
    → "You think that just because you have a few missions under your belt that you're ready to play with the big boys!?"
  9: 0x0062 [0x23] WAIT_FOR_DIALOG_INTERACTION
 10: 0x0063 [0x2B] Invincible Shield (ID: 17748094/0x010ED07E) [7172*]:
    → "Well, soldier, I've scraped bigger things than you off the bottom of my boot!"
 11: 0x006A [0x23] WAIT_FOR_DIALOG_INTERACTION
 12: 0x006B [0x2B] Invincible Shield (ID: 17748094/0x010ED07E) [7173*]:
    → "Listen up! My name is Invincible Shield, Legatus of the third division of the Republican Legion."
 13: 0x0072 [0x23] WAIT_FOR_DIALOG_INTERACTION
 14: 0x0073 [0x2B] Invincible Shield (ID: 17748094/0x010ED07E) [7174*]:
    → "The president himself has made me Conflict Commander and put the Bastokan forces under my control. If you join, you will serve under me and under me only!"
 15: 0x007A [0x23] WAIT_FOR_DIALOG_INTERACTION
 16: 0x007B [0x2B] Invincible Shield (ID: 17748094/0x010ED07E) [7175*]:
    → "What!? You have questions about Conflict!? I don't remember anyone giving you permission to ask questions, soldier!"
 17: 0x0082 [0x23] WAIT_FOR_DIALOG_INTERACTION
 18: 0x0083 [0x2B] Invincible Shield (ID: 17748094/0x010ED07E) [7176*]:
    → "I will let it slide this time, but it better not happen again! Now, listen up!"
 19: 0x008A [0x23] WAIT_FOR_DIALOG_INTERACTION
 20: 0x008B [0x45] LOAD_SCHEDULED_TASK: Load scheduler "fdo1" with entities [LocalPlayer, LocalPlayer], work=[200*, 0*]
 21: 0x009C [0x55] WAIT_LOAD_SCHEDULER: Wait for scheduler "fdo1" with entities [LocalPlayer, LocalPlayer], work=200*
 22: 0x00AB [0x38] SET_CLIENT_EVENT_MODE(mode=3*)
 23: 0x00AE [0x27] REQ_SET(priority=0x03, entity_id=LocalPlayer, tag_num=0x40)
 24: 0x00B5 [0x3B] GET_ENTITY_POSITION(entity=EventEntity, x_destination=ExtData[1]->WorkLocal[0], y_destination=ExtData[1]->WorkLocal[1], z_destination=ExtData[1]->WorkLocal[2])
 25: 0x00C0 [0x3A] CONVERT_YAW_TO_BYTE(entity=EventEntity, result_destination=ExtData[1]->WorkLocal[3])
 26: 0x00C7 [0x46] CAMERA_CONTROL: Disable user control
 27: 0x00C9 [0x5C] MUSIC_CONTROL: Set Idle (Day) music to song 127*
 28: 0x00CD [0x5C] MUSIC_CONTROL: Set Idle (Night) music to song 127*
 29: 0x00D1 [0x38] SET_CLIENT_EVENT_MODE(mode=19*)
 30: 0x00D4 [0x34] LOAD_UNLOAD_ZONE(zone_id=243*)
 31: 0x00D7 [0x1C] WAIT(100* ticks)
 32: 0x00DA [0x77] SET_EVENT_TIME_WEATHER(hour=0*, weather=0*)
 33: 0x00DF [0x03] ExtData[1]->WorkLocal[4] = Work_Zone[2]
 34: 0x00E4 [0x75] LOAD_ROOM(Load indoor room, room=439*)
 35: 0x00E8 [0x75] LOAD_ROOM(No action)
 36: 0x00EA [0x94] LocalPlayer->Render.Flags3 ^= 0x01
 37: 0x00F0 [0x94] EventEntity->Render.Flags3 ^= 0x01
 38: 0x00F6 [0x4E] SET_ENTITY_HIDE_FLAG: Hide LocalPlayer
 39: 0x00FC [0x4E] SET_ENTITY_HIDE_FLAG: Hide EventEntity
 40: 0x0102 [0x4E] SET_ENTITY_HIDE_FLAG: Show Wolfgang (ID: 17748112/0x010ED090)
 41: 0x0108 [0x4E] SET_ENTITY_HIDE_FLAG: Show Trion (ID: 17748115/0x010ED093)
 42: 0x010E [0x4E] SET_ENTITY_HIDE_FLAG: Show Shantotto (ID: 17748117/0x010ED095)
 43: 0x0114 [0x4E] SET_ENTITY_HIDE_FLAG: Show Rahal (ID: 17748116/0x010ED094)
 44: 0x011A [0x02] IF !(ExtData[1]->WorkLocal[4] == 0*) GOTO 0x012B
 45: 0x0122 [0x4E] SET_ENTITY_HIDE_FLAG: Show Ajido-Marujido (ID: 17748118/0x010ED096)
 46: 0x0128 [0x01] GOTO 0x0132
 47: 0x012B [0x27] REQ_SET(priority=0x03, entity_id=Shantotto (ID: 17748117/0x010ED095), tag_num=0x02)

SUBROUTINE_0132:
 48: 0x0132 [0x4E] SET_ENTITY_HIDE_FLAG: Show Volker (ID: 17748014/0x010ED02E)
 49: 0x0138 [0x4E] SET_ENTITY_HIDE_FLAG: Show Ayame (ID: 17748015/0x010ED02F)
 50: 0x013E [0x79] Trion (ID: 17748115/0x010ED093) looks at Wolfgang (ID: 17748112/0x010ED090) (Basic look)
 51: 0x0148 [0x79] Shantotto (ID: 17748117/0x010ED095) looks at Wolfgang (ID: 17748112/0x010ED090) (Basic look)
 52: 0x0152 [0x79] Ajido-Marujido (ID: 17748118/0x010ED096) looks at Wolfgang (ID: 17748112/0x010ED090) (Basic look)
 53: 0x015C [0x79] Volker (ID: 17748014/0x010ED02E) looks at Wolfgang (ID: 17748112/0x010ED090) (Basic look)
 54: 0x0166 [0x79] Ayame (ID: 17748015/0x010ED02F) looks at Wolfgang (ID: 17748112/0x010ED090) (Basic look)
 55: 0x0170 [0x80] LOAD_WAIT(entity=Wolfgang (ID: 17748112/0x010ED090))
 56: 0x0175 [0x80] LOAD_WAIT(entity=Trion (ID: 17748115/0x010ED093))
 57: 0x017A [0x80] LOAD_WAIT(entity=Volker (ID: 17748014/0x010ED02E))
 58: 0x017F [0x4E] SET_ENTITY_HIDE_FLAG: Show Arenuel (ID: 17748113/0x010ED091)
 59: 0x0185 [0x4E] SET_ENTITY_HIDE_FLAG: Show Falreze (ID: 17748114/0x010ED092)
 60: 0x018B [0x45] LOAD_SCHEDULED_TASK: Load scheduler "z000" with entities [LocalPlayer, LocalPlayer], work=[64*, 0*]
 61: 0x019C [0x97] SAVE_SET_WIND_VALUES(wind_base=0x8007, wind_width=0x8017)
 62: 0x01A1 [0x45] LOAD_SCHEDULED_TASK: Load scheduler "fdi1" with entities [LocalPlayer, LocalPlayer], work=[200*, 0*]
 63: 0x01B2 [0x55] WAIT_LOAD_SCHEDULER: Wait for scheduler "fdi1" with entities [LocalPlayer, LocalPlayer], work=200*
 64: 0x01C1 [0x55] WAIT_LOAD_SCHEDULER: Wait for scheduler "z000" with entities [LocalPlayer, LocalPlayer], work=64*
 65: 0x01D0 [0x2B] Wolfgang (ID: 17748112/0x010ED090) [6931*]:
    → "I think we have covered all of the topics on our agenda today."
 66: 0x01D7 [0x79] Wolfgang (ID: 17748112/0x010ED090) looks at Trion (ID: 17748115/0x010ED093) (Basic look)
 67: 0x01E1 [0x1C] WAIT(90* ticks)
 68: 0x01E4 [0x79] Wolfgang (ID: 17748112/0x010ED090) looks at Volker (ID: 17748014/0x010ED02E) (Basic look)
 69: 0x01EE [0x1C] WAIT(90* ticks)
 70: 0x01F1 [0x7B] Wolfgang (ID: 17748112/0x010ED090) stops talking
 71: 0x01F6 [0x23] WAIT_FOR_DIALOG_INTERACTION
 72: 0x01F7 [0x45] LOAD_SCHEDULED_TASK: Load scheduler "z001" with entities [LocalPlayer, LocalPlayer], work=[64*, 0*]
 73: 0x0208 [0x55] WAIT_LOAD_SCHEDULER: Wait for scheduler "z001" with entities [LocalPlayer, LocalPlayer], work=64*
 74: 0x0217 [0x1C] WAIT(15* ticks)
 75: 0x021A [0x2B] Wolfgang (ID: 17748112/0x010ED090) [6932*]:
    → "If there are no objections, I would like to call the 136th Conquest Evaluation Assembly to a close."
 76: 0x0221 [0x23] WAIT_FOR_DIALOG_INTERACTION
 77: 0x0222 [0x1C] WAIT(10* ticks)
 78: 0x0225 [0x2B] Trion (ID: 17748115/0x010ED093) [6933*]:
    → "Just a moment."
 79: 0x022C [0x23] WAIT_FOR_DIALOG_INTERACTION
 80: 0x022D [0x1C] WAIT(20* ticks)
 81: 0x0230 [0x4A] Wolfgang (ID: 17748112/0x010ED090) looks at Trion (ID: 17748115/0x010ED093)
 82: 0x0239 [0x1C] WAIT(10* ticks)
 83: 0x023C [0x45] LOAD_SCHEDULED_TASK: Load scheduler "z002" with entities [LocalPlayer, LocalPlayer], work=[64*, 0*]
 84: 0x024D [0x6F] WAIT_FRAME_DELAY: Yield until WaitTime reaches zero
 85: 0x024E [0x76] CHECK_ENTITY_RENDER_FLAGS: Wait until Wolfgang (ID: 17748112/0x010ED090) Render.Flags0 and Render.Flags3 conditions are met
 86: 0x0253 [0x4A] Volker (ID: 17748014/0x010ED02E) looks at Trion (ID: 17748115/0x010ED093)
 87: 0x025C [0x4A] Ajido-Marujido (ID: 17748118/0x010ED096) looks at Trion (ID: 17748115/0x010ED093)
 88: 0x0265 [0x4A] Shantotto (ID: 17748117/0x010ED095) looks at Trion (ID: 17748115/0x010ED093)
 89: 0x026E [0x1C] WAIT(20* ticks)
 90: 0x0271 [0x2B] Wolfgang (ID: 17748112/0x010ED090) [6934*]:
    → "Prince Trion, is there something you wish to add?"
 91: 0x0278 [0x23] WAIT_FOR_DIALOG_INTERACTION
 92: 0x0279 [0x55] WAIT_LOAD_SCHEDULER: Wait for scheduler "z002" with entities [LocalPlayer, LocalPlayer], work=64*
 93: 0x0288 [0x2B] Trion (ID: 17748115/0x010ED093) [6935*]:
    → "... I will not deny that the participation of adventurers has been of great benefit to the conquest, as well as maintained a new level of safety in the outlying regions."
 94: 0x028F [0x23] WAIT_FOR_DIALOG_INTERACTION
 95: 0x0290 [0x2B] Trion (ID: 17748115/0x010ED093) [6936*]:
    → "In addition, the many treaties signed by our nations have successfully paved a path of peace. No longer need our border guards fear attacks from our friends to the south and east."
 96: 0x0297 [0x23] WAIT_FOR_DIALOG_INTERACTION
 97: 0x0298 [0x81] SET_ENTITY_BLINKING(blink_flag=0x00, entity=Trion (ID: 17748115/0x010ED093))
 98: 0x029E [0x45] LOAD_SCHEDULED_TASK: Load scheduler "z003" with entities [LocalPlayer, LocalPlayer], work=[64*, 0*]
 99: 0x02AF [0x2B] Trion (ID: 17748115/0x010ED093) [6937*]:
    → "However, the beastman forces display no signs of weakening. Those noble guards stationed in faraway lands must deal with this reality constantly...and the burden has begun taking its toll."
100: 0x02B6 [0x23] WAIT_FOR_DIALOG_INTERACTION
101: 0x02B7 [0x2B] Trion (ID: 17748115/0x010ED093) [6938*]:
    → "The already large gap between the guards on our borders and the guards in the Outlands expands with each day. If nothing is done, morale shall continue to fall while discontent grows."
102: 0x02BE [0x23] WAIT_FOR_DIALOG_INTERACTION
103: 0x02BF [0x81] SET_ENTITY_BLINKING(blink_flag=0x01, entity=Trion (ID: 17748115/0x010ED093))
104: 0x02C5 [0x7B] Trion (ID: 17748115/0x010ED093) stops talking
105: 0x02CA [0x55] WAIT_LOAD_SCHEDULER: Wait for scheduler "z003" with entities [LocalPlayer, LocalPlayer], work=64*
106: 0x02D9 [0x4B] UPDATE_ENTITY_YAW(entity=Trion (ID: 17748115/0x010ED093), yaw=0.0°*)
107: 0x02E0 [0x1C] WAIT(20* ticks)
108: 0x02E3 [0x45] LOAD_SCHEDULED_TASK: Load scheduler "z004" with entities [LocalPlayer, LocalPlayer], work=[64*, 0*]
109: 0x02F4 [0x55] WAIT_LOAD_SCHEDULER: Wait for scheduler "z004" with entities [LocalPlayer, LocalPlayer], work=64*
110: 0x0303 [0x6F] WAIT_FRAME_DELAY: Yield until WaitTime reaches zero
111: 0x0304 [0x76] CHECK_ENTITY_RENDER_FLAGS: Wait until Trion (ID: 17748115/0x010ED093) Render.Flags0 and Render.Flags3 conditions are met
112: 0x0309 [0x27] REQ_SET(priority=0x03, entity_id=Trion (ID: 17748115/0x010ED093), tag_num=0x08)
113: 0x0310 [0x2B] Trion (ID: 17748115/0x010ED093) [6939*]:
    → "I sense that my kingdom is not alone in these worries."
114: 0x0317 [0x23] WAIT_FOR_DIALOG_INTERACTION
115: 0x0318 [0x27] REQ_SET(priority=0x03, entity_id=Volker (ID: 17748014/0x010ED02E), tag_num=0x03)
116: 0x031F [0x2B] Volker (ID: 17748014/0x010ED02E) [6940*]:
    → "Soldier morale..."
117: 0x0326 [0x23] WAIT_FOR_DIALOG_INTERACTION
118: 0x0327 [0x27] REQ_SET(priority=0x03, entity_id=Volker (ID: 17748014/0x010ED02E), tag_num=0x04)
119: 0x032E [0x02] IF !(ExtData[1]->WorkLocal[4] == 0*) GOTO 0x0341
120: 0x0336 [0x2B] Ajido-Marujido (ID: 17748118/0x010ED096) [6941*]:
    → "Well, well, well! I never thought I'd see such a lack of confidence from a member of the mighty d'Oraguille family!"
121: 0x033D [0x23] WAIT_FOR_DIALOG_INTERACTION
122: 0x033E [0x01] GOTO 0x0349
123: 0x0341 [0x2B] Shantotto (ID: 17748117/0x010ED095) [6942*]:
    → "Ohohoho! I never thought I'd see such a lack of confidence from Destin's baby boy--Trion, the prince."
124: 0x0348 [0x23] WAIT_FOR_DIALOG_INTERACTION

SUBROUTINE_0349:
125: 0x0349 [0x27] REQ_SET(priority=0x03, entity_id=Trion (ID: 17748115/0x010ED093), tag_num=0x09)
126: 0x0350 [0x2B] Trion (ID: 17748115/0x010ED093) [6943*]:
    → "How dare you!?"
127: 0x0357 [0x23] WAIT_FOR_DIALOG_INTERACTION
128: 0x0358 [0x02] IF !(ExtData[1]->WorkLocal[4] == 0*) GOTO 0x03C4
129: 0x0360 [0x4A] Volker (ID: 17748014/0x010ED02E) looks at Ajido-Marujido (ID: 17748118/0x010ED096)
130: 0x0369 [0x1C] WAIT(10* ticks)
131: 0x036C [0x45] LOAD_SCHEDULED_TASK: Load scheduler "z005" with entities [LocalPlayer, LocalPlayer], work=[64*, 0*]
132: 0x037D [0x55] WAIT_LOAD_SCHEDULER: Wait for scheduler "z005" with entities [LocalPlayer, LocalPlayer], work=64*
133: 0x038C [0x6F] WAIT_FRAME_DELAY: Yield until WaitTime reaches zero
134: 0x038D [0x76] CHECK_ENTITY_RENDER_FLAGS: Wait until Volker (ID: 17748014/0x010ED02E) Render.Flags0 and Render.Flags3 conditions are met
135: 0x0392 [0x27] REQ_SET(priority=0x03, entity_id=Volker (ID: 17748014/0x010ED02E), tag_num=0x07)
136: 0x0399 [0x2B] Volker (ID: 17748014/0x010ED02E) [6944*]:
    → "I think that is quite enough, Minister."
137: 0x03A0 [0x1C] WAIT(10* ticks)
138: 0x03A3 [0x4A] Ajido-Marujido (ID: 17748118/0x010ED096) looks at Volker (ID: 17748014/0x010ED02E)
139: 0x03AC [0x1C] WAIT(10* ticks)
140: 0x03AF [0x4A] Shantotto (ID: 17748117/0x010ED095) looks at Volker (ID: 17748014/0x010ED02E)
141: 0x03B8 [0x23] WAIT_FOR_DIALOG_INTERACTION
142: 0x03B9 [0x2B] Volker (ID: 17748014/0x010ED02E) [6945*]:
    → "I fully understand the concerns of Prince Trion, and believe he has a point."
143: 0x03C0 [0x23] WAIT_FOR_DIALOG_INTERACTION
144: 0x03C1 [0x01] GOTO 0x0411
145: 0x03C4 [0x4A] Volker (ID: 17748014/0x010ED02E) looks at Shantotto (ID: 17748117/0x010ED095)
146: 0x03CD [0x1C] WAIT(10* ticks)
147: 0x03D0 [0x45] LOAD_SCHEDULED_TASK: Load scheduler "z005" with entities [LocalPlayer, LocalPlayer], work=[64*, 0*]
148: 0x03E1 [0x55] WAIT_LOAD_SCHEDULER: Wait for scheduler "z005" with entities [LocalPlayer, LocalPlayer], work=64*
149: 0x03F0 [0x6F] WAIT_FRAME_DELAY: Yield until WaitTime reaches zero
150: 0x03F1 [0x76] CHECK_ENTITY_RENDER_FLAGS: Wait until Volker (ID: 17748014/0x010ED02E) Render.Flags0 and Render.Flags3 conditions are met
151: 0x03F6 [0x27] REQ_SET(priority=0x03, entity_id=Volker (ID: 17748014/0x010ED02E), tag_num=0x07)
152: 0x03FD [0x2B] Volker (ID: 17748014/0x010ED02E) [6946*]:
    → "Doctor Shantotto... I fully understand the concerns of Prince Trion, and believe he has a point."
153: 0x0404 [0x1C] WAIT(10* ticks)
154: 0x0407 [0x4A] Shantotto (ID: 17748117/0x010ED095) looks at Volker (ID: 17748014/0x010ED02E)
155: 0x0410 [0x23] WAIT_FOR_DIALOG_INTERACTION

SUBROUTINE_0411:
156: 0x0411 [0x2B] Volker (ID: 17748014/0x010ED02E) [6947*]:
    → "In a republic like Bastok, where a large portion of our army is made up of normal citizens, it is easy for morale levels to slide. This is a problem that is constantly being tackled by our officials."
157: 0x0418 [0x23] WAIT_FOR_DIALOG_INTERACTION
158: 0x0419 [0x45] LOAD_SCHEDULED_TASK: Load scheduler "z006" with entities [LocalPlayer, LocalPlayer], work=[64*, 0*]
159: 0x042A [0x55] WAIT_LOAD_SCHEDULER: Wait for scheduler "z006" with entities [LocalPlayer, LocalPlayer], work=64*
160: 0x0439 [0x02] IF !(ExtData[1]->WorkLocal[4] == 0*) GOTO 0x0476
161: 0x0441 [0x6F] WAIT_FRAME_DELAY: Yield until WaitTime reaches zero
162: 0x0442 [0x76] CHECK_ENTITY_RENDER_FLAGS: Wait until Ajido-Marujido (ID: 17748118/0x010ED096) Render.Flags0 and Render.Flags3 conditions are met
163: 0x0447 [0x27] REQ_SET(priority=0x03, entity_id=Ajido-Marujido (ID: 17748118/0x010ED096), tag_num=0x06)
164: 0x044E [0x2B] Ajido-Marujido (ID: 17748118/0x010ED096) [6948*]:
    → "Really? Well, that's your nation. Windurst doesn't face such problems."
165: 0x0455 [0x23] WAIT_FOR_DIALOG_INTERACTION
166: 0x0456 [0x2B] Ajido-Marujido (ID: 17748118/0x010ED096) [6949*]:
    → "Our Mithran Mercenaries enjoy being sent to far-off places. It gives them the opportunity to run and jump and hunt and roll around in the mud--whatever those feminine felines like to do in their free time."
167: 0x045D [0x23] WAIT_FOR_DIALOG_INTERACTION
168: 0x045E [0x27] REQ_SET(priority=0x03, entity_id=Ajido-Marujido (ID: 17748118/0x010ED096), tag_num=0x07)
169: 0x0465 [0x2B] Ajido-Marujido (ID: 17748118/0x010ED096) [6950*]:
    → "Maybe instead of buffing up your soldiers' muscles all day, you should try training their minds...like we do. And that's my two gil!"
170: 0x046C [0x23] WAIT_FOR_DIALOG_INTERACTION
171: 0x046D [0x2A] GET_REQ_LEVEL(level=3, entity_id=Ajido-Marujido (ID: 17748118/0x010ED096))
172: 0x0473 [0x01] GOTO 0x049C
173: 0x0476 [0x27] REQ_SET(priority=0x03, entity_id=Shantotto (ID: 17748117/0x010ED095), tag_num=0x06)
174: 0x047D [0x2B] Shantotto (ID: 17748117/0x010ED095) [6951*]:
    → "Oh, rea`lly? Well, that's your nation. We don't have such problems in the Federation."
175: 0x0484 [0x23] WAIT_FOR_DIALOG_INTERACTION
176: 0x0485 [0x2B] Shantotto (ID: 17748117/0x010ED095) [6952*]:
    → "Our Mithran Mercenaries enjoy being sent to faraway places. It gives them time to take their naps, hunt their mice, and go on their chases."
177: 0x048C [0x23] WAIT_FOR_DIALOG_INTERACTION
178: 0x048D [0x2B] Shantotto (ID: 17748117/0x010ED095) [6953*]:
    → "Maybe it's to the lack of confidence that you can give thanks for the drastic fall of morale in your pathetic ranks."
179: 0x0494 [0x23] WAIT_FOR_DIALOG_INTERACTION
180: 0x0495 [0x29] REQ_SET_WAIT(priority=0x03, entity_id=Shantotto (ID: 17748117/0x010ED095), tag_num=0x07)

SUBROUTINE_049C:
181: 0x049C [0x45] LOAD_SCHEDULED_TASK: Load scheduler "z007" with entities [LocalPlayer, LocalPlayer], work=[64*, 0*]
182: 0x04AD [0x2B] Trion (ID: 17748115/0x010ED093) [6954*]:
    → "..."
183: 0x04B4 [0x1C] WAIT(100* ticks)
184: 0x04B7 [0x29] REQ_SET_WAIT(priority=0x03, entity_id=Volker (ID: 17748014/0x010ED02E), tag_num=0x08)
185: 0x04BE [0x23] WAIT_FOR_DIALOG_INTERACTION
186: 0x04BF [0x55] WAIT_LOAD_SCHEDULER: Wait for scheduler "z007" with entities [LocalPlayer, LocalPlayer], work=64*
187: 0x04CE [0x02] IF !(ExtData[1]->WorkLocal[4] == 0*) GOTO 0x04E1
188: 0x04D6 [0x2B] Volker (ID: 17748014/0x010ED02E) [6955*]:
    → "Yes, but hiring mercenaries can be quite the burden on the Federation's treasury, can it not?"
189: 0x04DD [0x23] WAIT_FOR_DIALOG_INTERACTION
190: 0x04DE [0x01] GOTO 0x04E9
191: 0x04E1 [0x2B] Volker (ID: 17748014/0x010ED02E) [6956*]:
    → "Yes, but hiring mercenaries can be quite the burden on the Federation's treasury, can it not?"
192: 0x04E8 [0x23] WAIT_FOR_DIALOG_INTERACTION

SUBROUTINE_04E9:
193: 0x04E9 [0x2B] Volker (ID: 17748014/0x010ED02E) [6957*]:
    → "The more regions under your nation's control, the more mercenaries you must hire. And before you realize it, your vaults will be empty."
194: 0x04F0 [0x23] WAIT_FOR_DIALOG_INTERACTION
195: 0x04F1 [0x2B] Volker (ID: 17748014/0x010ED02E) [6958*]:
    → "I suspect that the conquest is taking its toll on the Federation."
196: 0x04F8 [0x23] WAIT_FOR_DIALOG_INTERACTION
197: 0x04F9 [0x02] IF !(ExtData[1]->WorkLocal[4] == 0*) GOTO 0x0598
198: 0x0501 [0x2B] Ajido-Marujido (ID: 17748118/0x010ED096) [6959*]:
    → "Well, we..."
199: 0x0508 [0x23] WAIT_FOR_DIALOG_INTERACTION
200: 0x0509 [0x45] LOAD_SCHEDULED_TASK: Load scheduler "z008" with entities [LocalPlayer, LocalPlayer], work=[64*, 0*]
201: 0x051A [0x27] REQ_SET(priority=0x03, entity_id=Shantotto (ID: 17748117/0x010ED095), tag_num=0x09)
202: 0x0521 [0x2B] Shantotto (ID: 17748117/0x010ED095) [6960*]:
    → "Ohohohoho! In a matter of months, our wishy-worries will be gone, When our Outland regions are patrolled by automatons."
203: 0x0528 [0x23] WAIT_FOR_DIALOG_INTERACTION
204: 0x0529 [0x79] Volker (ID: 17748014/0x010ED02E) looks at Shantotto (ID: 17748117/0x010ED095) (Basic look)
205: 0x0533 [0x55] WAIT_LOAD_SCHEDULER: Wait for scheduler "z008" with entities [LocalPlayer, LocalPlayer], work=64*
206: 0x0542 [0x45] LOAD_SCHEDULED_TASK: Load scheduler "z009" with entities [LocalPlayer, LocalPlayer], work=[64*, 0*]
207: 0x0553 [0x2B] Shantotto (ID: 17748117/0x010ED095) [6961*]:
    → "Operation costs will stay lower than low. And into our vaults the gil shall flow. Ohoho!"
208: 0x055A [0x1C] WAIT(10* ticks)
209: 0x055D [0x4A] Ajido-Marujido (ID: 17748118/0x010ED096) looks at Shantotto (ID: 17748117/0x010ED095)
210: 0x0566 [0x6F] WAIT_FRAME_DELAY: Yield until WaitTime reaches zero
211: 0x0567 [0x76] CHECK_ENTITY_RENDER_FLAGS: Wait until Ajido-Marujido (ID: 17748118/0x010ED096) Render.Flags0 and Render.Flags3 conditions are met
212: 0x056C [0x23] WAIT_FOR_DIALOG_INTERACTION
213: 0x056D [0x2B] Ajido-Marujido (ID: 17748118/0x010ED096) [6962*]:
    → "Shantotto!"
214: 0x0574 [0x23] WAIT_FOR_DIALOG_INTERACTION
215: 0x0575 [0x6B] STOP_AND_IDLE: Shantotto (ID: 17748117/0x010ED095) stops current action and resets to idle (animation="idl0")
216: 0x057E [0x2B] Shantotto (ID: 17748117/0x010ED095) [6963*]:
    → "If you wish, Windurst can also build some for use by the king and the president. All for a small fee payable in five easy installments."
217: 0x0585 [0x23] WAIT_FOR_DIALOG_INTERACTION
218: 0x0586 [0x55] WAIT_LOAD_SCHEDULER: Wait for scheduler "z009" with entities [LocalPlayer, LocalPlayer], work=64*
219: 0x0595 [0x01] GOTO 0x05F2
220: 0x0598 [0x45] LOAD_SCHEDULED_TASK: Load scheduler "s000" with entities [LocalPlayer, LocalPlayer], work=[64*, 0*]
221: 0x05A9 [0x27] REQ_SET(priority=0x03, entity_id=Shantotto (ID: 17748117/0x010ED095), tag_num=0x0B)
222: 0x05B0 [0x2B] Shantotto (ID: 17748117/0x010ED095) [6964*]:
    → "Ohohohoho! In a matter of months, our wishy-worries will be gone, when our Outland regions are patrolled by automatons."
223: 0x05B7 [0x23] WAIT_FOR_DIALOG_INTERACTION
224: 0x05B8 [0x2B] Shantotto (ID: 17748117/0x010ED095) [6965*]:
    → "Operation costs will stay lower than low. And into our vaults the gil shall flow. Ohoho!"
225: 0x05BF [0x23] WAIT_FOR_DIALOG_INTERACTION
226: 0x05C0 [0x2B] Shantotto (ID: 17748117/0x010ED095) [6966*]:
    → "While we appreciate the concern from Destin's baby and Karst's pet, I don't think Windurst will be taking any drastic actions yet."
227: 0x05C7 [0x23] WAIT_FOR_DIALOG_INTERACTION
228: 0x05C8 [0x2A] GET_REQ_LEVEL(level=3, entity_id=Shantotto (ID: 17748117/0x010ED095))
229: 0x05CE [0x2B] Shantotto (ID: 17748117/0x010ED095) [6967*]:
    → "But if you wish, we could build some Cardians for use by the king and the president. All for a small fee payable in five easy installments. O`hohohohoho!"
230: 0x05D5 [0x1C] WAIT(60* ticks)
231: 0x05D8 [0x27] REQ_SET(priority=0x03, entity_id=Shantotto (ID: 17748117/0x010ED095), tag_num=0x08)
232: 0x05DF [0x1C] WAIT(60* ticks)
233: 0x05E2 [0x23] WAIT_FOR_DIALOG_INTERACTION
234: 0x05E3 [0x55] WAIT_LOAD_SCHEDULER: Wait for scheduler "s000" with entities [LocalPlayer, LocalPlayer], work=64*

SUBROUTINE_05F2:
235: 0x05F2 [0x45] LOAD_SCHEDULED_TASK: Load scheduler "y000" with entities [LocalPlayer, LocalPlayer], work=[64*, 0*]
236: 0x0603 [0x2B] Volker (ID: 17748014/0x010ED02E) [6968*]:
    → "That sounds like a lovely plan, Minister Shantotto."
237: 0x060A [0x23] WAIT_FOR_DIALOG_INTERACTION
238: 0x060B [0x7B] Volker (ID: 17748014/0x010ED02E) stops talking
239: 0x0610 [0x2B] Volker (ID: 17748014/0x010ED02E) [6969*]:
    → "But wouldn't the use of automatons in the conquest be in violation of the Treaty of Nations...?"
240: 0x0617 [0x23] WAIT_FOR_DIALOG_INTERACTION
241: 0x0618 [0x55] WAIT_LOAD_SCHEDULER: Wait for scheduler "y000" with entities [LocalPlayer, LocalPlayer], work=64*
242: 0x0627 [0x45] LOAD_SCHEDULED_TASK: Load scheduler "y001" with entities [LocalPlayer, LocalPlayer], work=[64*, 0*]
243: 0x0638 [0x2B] Trion (ID: 17748115/0x010ED093) [6970*]:
    → "Hmph. And I have heard many a tale of those walking scarecrows turning on their masters..."
244: 0x063F [0x23] WAIT_FOR_DIALOG_INTERACTION
245: 0x0640 [0x4A] Shantotto (ID: 17748117/0x010ED095) looks at Trion (ID: 17748115/0x010ED093)
246: 0x0649 [0x02] IF !(ExtData[1]->WorkLocal[4] == 0*) GOTO 0x065C
247: 0x0651 [0x2B] Trion (ID: 17748115/0x010ED093) [6971*]:
    → "Like father, like son, I say. I would not trust a lump of rubbish made by one of you lunatics any more than I would trust one of you lunatics!"
248: 0x0658 [0x23] WAIT_FOR_DIALOG_INTERACTION
249: 0x0659 [0x01] GOTO 0x0664
250: 0x065C [0x2B] Trion (ID: 17748115/0x010ED093) [6972*]:
    → "How can one call a soldier that does not obey his leader a soldier? And how can one call a leader who cannot control his soldiers a leader?"
251: 0x0663 [0x23] WAIT_FOR_DIALOG_INTERACTION

SUBROUTINE_0664:
252: 0x0664 [0x55] WAIT_LOAD_SCHEDULER: Wait for scheduler "y001" with entities [LocalPlayer, LocalPlayer], work=64*
253: 0x0673 [0x6F] WAIT_FRAME_DELAY: Yield until WaitTime reaches zero
254: 0x0674 [0x76] CHECK_ENTITY_RENDER_FLAGS: Wait until Shantotto (ID: 17748117/0x010ED095) Render.Flags0 and Render.Flags3 conditions are met
255: 0x0679 [0x2B] Shantotto (ID: 17748117/0x010ED095) [6973*]:
    → "Ooh, somebody's in a bad mood..."
256: 0x0680 [0x23] WAIT_FOR_DIALOG_INTERACTION
257: 0x0681 [0x1C] WAIT(30* ticks)
258: 0x0684 [0x4A] Volker (ID: 17748014/0x010ED02E) looks at Trion (ID: 17748115/0x010ED093)
259: 0x068D [0x1C] WAIT(10* ticks)
260: 0x0690 [0x4A] Shantotto (ID: 17748117/0x010ED095) looks at Trion (ID: 17748115/0x010ED093)
261: 0x0699 [0x45] LOAD_SCHEDULED_TASK: Load scheduler "y002" with entities [LocalPlayer, LocalPlayer], work=[64*, 0*]
262: 0x06AA [0x55] WAIT_LOAD_SCHEDULER: Wait for scheduler "y002" with entities [LocalPlayer, LocalPlayer], work=64*
263: 0x06B9 [0x6F] WAIT_FRAME_DELAY: Yield until WaitTime reaches zero
264: 0x06BA [0x76] CHECK_ENTITY_RENDER_FLAGS: Wait until Volker (ID: 17748014/0x010ED02E) Render.Flags0 and Render.Flags3 conditions are met
265: 0x06BF [0x27] REQ_SET(priority=0x03, entity_id=Volker (ID: 17748014/0x010ED02E), tag_num=0x05)
266: 0x06C6 [0x2B] Volker (ID: 17748014/0x010ED02E) [6974*]:
    → "Prince Trion. You certainly did not bring up this issue without having a solution in mind."
267: 0x06CD [0x23] WAIT_FOR_DIALOG_INTERACTION
268: 0x06CE [0x02] IF !(ExtData[1]->WorkLocal[4] == 0*) GOTO 0x071E
269: 0x06D6 [0x45] LOAD_SCHEDULED_TASK: Load scheduler "y003" with entities [LocalPlayer, LocalPlayer], work=[64*, 0*]
270: 0x06E7 [0x1C] WAIT(50* ticks)
271: 0x06EA [0x4A] Ajido-Marujido (ID: 17748118/0x010ED096) looks at Trion (ID: 17748115/0x010ED093)
272: 0x06F3 [0x1C] WAIT(50* ticks)
273: 0x06F6 [0x27] REQ_SET(priority=0x03, entity_id=Shantotto (ID: 17748117/0x010ED095), tag_num=0x04)
274: 0x06FD [0x2B] Shantotto (ID: 17748117/0x010ED095) [6975*]:
    → "Exactly! You'd better have something interesting to say. Or Ajido and I will pack up our things and be on our way."
275: 0x0704 [0x23] WAIT_FOR_DIALOG_INTERACTION
276: 0x0705 [0x27] REQ_SET(priority=0x03, entity_id=Shantotto (ID: 17748117/0x010ED095), tag_num=0x05)
277: 0x070C [0x55] WAIT_LOAD_SCHEDULER: Wait for scheduler "y003" with entities [LocalPlayer, LocalPlayer], work=64*
278: 0x071B [0x1C] WAIT(15* ticks)
279: 0x071E [0x7B] Trion (ID: 17748115/0x010ED093) stops talking
280: 0x0723 [0x1C] WAIT(60* ticks)
281: 0x0726 [0x27] REQ_SET(priority=0x03, entity_id=Trion (ID: 17748115/0x010ED093), tag_num=0x02)
282: 0x072D [0x1C] WAIT(15* ticks)
283: 0x0730 [0x27] REQ_SET(priority=0x03, entity_id=Volker (ID: 17748014/0x010ED02E), tag_num=0x06)
284: 0x0737 [0x45] LOAD_SCHEDULED_TASK: Load scheduler "y004" with entities [LocalPlayer, LocalPlayer], work=[64*, 0*]
285: 0x0748 [0x55] WAIT_LOAD_SCHEDULER: Wait for scheduler "y004" with entities [LocalPlayer, LocalPlayer], work=64*
286: 0x0757 [0x2A] GET_REQ_LEVEL(level=3, entity_id=Trion (ID: 17748115/0x010ED093))
287: 0x075D [0x2B] Trion (ID: 17748115/0x010ED093) [6976*]:
    → "Recently one of our Royal Knights made his return journey from our kingdom's territories to the north--Lord Excenmille."
288: 0x0764 [0x23] WAIT_FOR_DIALOG_INTERACTION
289: 0x0765 [0x4A] Wolfgang (ID: 17748112/0x010ED090) looks at Trion (ID: 17748115/0x010ED093)
290: 0x076E [0x2B] Wolfgang (ID: 17748112/0x010ED090) [6977*]:
    → "Excenmille? The man who, after the Great War, took a handful of soldiers and successfully invaded the Orcish Empire using guerilla tactics?"
291: 0x0775 [0x23] WAIT_FOR_DIALOG_INTERACTION
292: 0x0776 [0x2B] Trion (ID: 17748115/0x010ED093) [6978*]:
    → "Yes. Sword in hand, donning armor stained with the blood of a thousand foes, he returned to his homeland for the first time in twenty years...and was shocked at what he found lurking beyond its gates."
293: 0x077D [0x23] WAIT_FOR_DIALOG_INTERACTION
294: 0x077E [0x2B] Trion (ID: 17748115/0x010ED093) [6979*]:
    → "Foreign merchants of all shapes and sizes peddling their trinkets. Scruffy adventurers shouting out their petty problems as they walked freely among the streets and alleys. Local shopkeeps and Temple Knights laughing as they mingled with the scum washed up from all corners of the continent."
295: 0x0785 [0x23] WAIT_FOR_DIALOG_INTERACTION
296: 0x0786 [0x4B] UPDATE_ENTITY_YAW(entity=Trion (ID: 17748115/0x010ED093), yaw=0.0°*)
297: 0x078D [0x1C] WAIT(15* ticks)
298: 0x0790 [0x45] LOAD_SCHEDULED_TASK: Load scheduler "y00b" with entities [LocalPlayer, LocalPlayer], work=[64*, 0*]
299: 0x07A1 [0x6F] WAIT_FRAME_DELAY: Yield until WaitTime reaches zero
300: 0x07A2 [0x76] CHECK_ENTITY_RENDER_FLAGS: Wait until Trion (ID: 17748115/0x010ED093) Render.Flags0 and Render.Flags3 conditions are met
301: 0x07A7 [0x1C] WAIT(30* ticks)
302: 0x07AA [0x2B] Trion (ID: 17748115/0x010ED093) [6980*]:
    → "Excenmille was furious."
303: 0x07B1 [0x23] WAIT_FOR_DIALOG_INTERACTION
304: 0x07B2 [0x55] WAIT_LOAD_SCHEDULER: Wait for scheduler "y00b" with entities [LocalPlayer, LocalPlayer], work=64*
305: 0x07C1 [0x45] LOAD_SCHEDULED_TASK: Load scheduler "y006" with entities [LocalPlayer, LocalPlayer], work=[64*, 0*]
306: 0x07D2 [0x55] WAIT_LOAD_SCHEDULER: Wait for scheduler "y006" with entities [LocalPlayer, LocalPlayer], work=64*
307: 0x07E1 [0x2B] Wolfgang (ID: 17748112/0x010ED090) [6981*]:
    → "Why would he be furious? The influx of adventurers has revitalized your nation."
308: 0x07E8 [0x23] WAIT_FOR_DIALOG_INTERACTION
309: 0x07E9 [0x79] Trion (ID: 17748115/0x010ED093) looks at Wolfgang (ID: 17748112/0x010ED090) (Basic look)
310: 0x07F3 [0x1C] WAIT(10* ticks)
311: 0x07F6 [0x27] REQ_SET(priority=0x03, entity_id=Trion (ID: 17748115/0x010ED093), tag_num=0x06)
312: 0x07FD [0x2B] Trion (ID: 17748115/0x010ED093) [6982*]:
    → "According to Excenmille, twenty-five years ago, a union among the children of Altana was necessary to defeat the armies of darkness."
313: 0x0804 [0x23] WAIT_FOR_DIALOG_INTERACTION
314: 0x0805 [0x2B] Trion (ID: 17748115/0x010ED093) [6983*]:
    → "However, now that the threat has gone, there is no reason for San d'Oria's citizens to be brushing shoulders with the common folk of other nations. It is this symbiotic relationship that plagues the Kingdom and keeps the once mighty red lion shackled down."
315: 0x080C [0x23] WAIT_FOR_DIALOG_INTERACTION
316: 0x080D [0x45] LOAD_SCHEDULED_TASK: Load scheduler "x000" with entities [LocalPlayer, LocalPlayer], work=[64*, 0*]
317: 0x081E [0x55] WAIT_LOAD_SCHEDULER: Wait for scheduler "x000" with entities [LocalPlayer, LocalPlayer], work=64*
318: 0x082D [0x2B] Wolfgang (ID: 17748112/0x010ED090) [6984*]:
    → "That seems like quite an anachronous opinion..."
319: 0x0834 [0x23] WAIT_FOR_DIALOG_INTERACTION
320: 0x0835 [0x45] LOAD_SCHEDULED_TASK: Load scheduler "y008" with entities [LocalPlayer, LocalPlayer], work=[64*, 0*]
321: 0x0846 [0x55] WAIT_LOAD_SCHEDULER: Wait for scheduler "y008" with entities [LocalPlayer, LocalPlayer], work=64*
322: 0x0855 [0x27] REQ_SET(priority=0x03, entity_id=Trion (ID: 17748115/0x010ED093), tag_num=0x07)
323: 0x085C [0x2B] Trion (ID: 17748115/0x010ED093) [6985*]:
    → "Excenmille's way of thinking may seem out-of-date, but his logic cannot be denied. Ever since the opening of our gates to outsiders, the quality of our knights has fallen dramatically."
324: 0x0863 [0x23] WAIT_FOR_DIALOG_INTERACTION
325: 0x0864 [0x27] REQ_SET(priority=0x03, entity_id=Shantotto (ID: 17748117/0x010ED095), tag_num=0x0B)
326: 0x086B [0x02] IF !(ExtData[1]->WorkLocal[4] == 0*) GOTO 0x0896
327: 0x0873 [0x45] LOAD_SCHEDULED_TASK: Load scheduler "y007" with entities [LocalPlayer, LocalPlayer], work=[64*, 0*]
328: 0x0884 [0x55] WAIT_LOAD_SCHEDULER: Wait for scheduler "y007" with entities [LocalPlayer, LocalPlayer], work=64*
329: 0x0893 [0x01] GOTO 0x08B6
330: 0x0896 [0x45] LOAD_SCHEDULED_TASK: Load scheduler "s001" with entities [LocalPlayer, LocalPlayer], work=[64*, 0*]
331: 0x08A7 [0x55] WAIT_LOAD_SCHEDULER: Wait for scheduler "s001" with entities [LocalPlayer, LocalPlayer], work=64*

SUBROUTINE_08B6:
332: 0x08B6 [0x2B] Shantotto (ID: 17748117/0x010ED095) [6986*]:
    → "... I'm tired of hearing stories about some pumpkin-bumpkin knight. Are you going to get to the point, or are we going to be here all night?"
333: 0x08BD [0x23] WAIT_FOR_DIALOG_INTERACTION
334: 0x08BE [0x2A] GET_REQ_LEVEL(level=3, entity_id=Trion (ID: 17748115/0x010ED093))
335: 0x08C4 [0x7B] Trion (ID: 17748115/0x010ED093) stops talking
336: 0x08C9 [0x45] LOAD_SCHEDULED_TASK: Load scheduler "y005" with entities [LocalPlayer, LocalPlayer], work=[64*, 0*]
337: 0x08DA [0x1C] WAIT(30* ticks)
338: 0x08DD [0x27] REQ_SET(priority=0x03, entity_id=Trion (ID: 17748115/0x010ED093), tag_num=0x08)
339: 0x08E4 [0x2B] Trion (ID: 17748115/0x010ED093) [6987*]:
    → "Excenmille offered me with the following suggestion..."
340: 0x08EB [0x23] WAIT_FOR_DIALOG_INTERACTION
341: 0x08EC [0x5D] SET_MUSIC_VOLUME(volume=0*, fade_time=360*)
342: 0x08F1 [0x55] WAIT_LOAD_SCHEDULER: Wait for scheduler "y005" with entities [LocalPlayer, LocalPlayer], work=64*
343: 0x0900 [0x2B] Trion (ID: 17748115/0x010ED093) [6988*]:
    → "Revive Conflict!"
344: 0x0907 [0x23] WAIT_FOR_DIALOG_INTERACTION
345: 0x0908 [0x27] REQ_SET(priority=0x03, entity_id=Trion (ID: 17748115/0x010ED093), tag_num=0x09)
346: 0x090F [0x45] LOAD_SCHEDULED_TASK: Load scheduler "y009" with entities [LocalPlayer, LocalPlayer], work=[64*, 0*]
347: 0x0920 [0x55] WAIT_LOAD_SCHEDULER: Wait for scheduler "y009" with entities [LocalPlayer, LocalPlayer], work=64*
348: 0x092F [0x5C] MUSIC_CONTROL: Set Idle (Day) music to song 120*
349: 0x0933 [0x5C] MUSIC_CONTROL: Set Idle (Night) music to song 120*
350: 0x0937 [0x7C] Volker (ID: 17748014/0x010ED02E)->Render.Flags2 |= 0x00
351: 0x093D [0x2B] Volker (ID: 17748014/0x010ED02E) [6989*]:
    → "..."
352: 0x0944 [0x23] WAIT_FOR_DIALOG_INTERACTION
353: 0x0945 [0x7C] Volker (ID: 17748014/0x010ED02E)->Render.Flags2 |= 0x01
354: 0x094B [0x02] IF !(ExtData[1]->WorkLocal[4] == 0*) GOTO 0x0976
355: 0x0953 [0x45] LOAD_SCHEDULED_TASK: Load scheduler "y00a" with entities [LocalPlayer, LocalPlayer], work=[64*, 0*]
356: 0x0964 [0x55] WAIT_LOAD_SCHEDULER: Wait for scheduler "y00a" with entities [LocalPlayer, LocalPlayer], work=64*
357: 0x0973 [0x01] GOTO 0x0996
358: 0x0976 [0x45] LOAD_SCHEDULED_TASK: Load scheduler "s002" with entities [LocalPlayer, LocalPlayer], work=[64*, 0*]
359: 0x0987 [0x55] WAIT_LOAD_SCHEDULER: Wait for scheduler "s002" with entities [LocalPlayer, LocalPlayer], work=64*

SUBROUTINE_0996:
360: 0x0996 [0x7C] Shantotto (ID: 17748117/0x010ED095)->Render.Flags2 |= 0x00
361: 0x099C [0x2B] Shantotto (ID: 17748117/0x010ED095) [6990*]:
    → "...!?"
362: 0x09A3 [0x23] WAIT_FOR_DIALOG_INTERACTION
363: 0x09A4 [0x7C] Shantotto (ID: 17748117/0x010ED095)->Render.Flags2 |= 0x01
364: 0x09AA [0x45] LOAD_SCHEDULED_TASK: Load scheduler "x001" with entities [LocalPlayer, LocalPlayer], work=[64*, 0*]
365: 0x09BB [0x1C] WAIT(20* ticks)
366: 0x09BE [0x27] REQ_SET(priority=0x03, entity_id=Wolfgang (ID: 17748112/0x010ED090), tag_num=0x02)
367: 0x09C5 [0x2B] Wolfgang (ID: 17748112/0x010ED090) [6991*]:
    → "C-Conflict!? A series of games based on battle exercises, played by select heroes from each of the nations..."
368: 0x09CC [0x23] WAIT_FOR_DIALOG_INTERACTION
369: 0x09CD [0x55] WAIT_LOAD_SCHEDULER: Wait for scheduler "x001" with entities [LocalPlayer, LocalPlayer], work=64*
370: 0x09DC [0x2B] Wolfgang (ID: 17748112/0x010ED090) [6992*]:
    → "Due to the extreme level of danger involved, it was banned well before the Great War. You are not suggesting that we reinstate Conflict, are you?"
371: 0x09E3 [0x23] WAIT_FOR_DIALOG_INTERACTION
372: 0x09E4 [0x1C] WAIT(30* ticks)
373: 0x09E7 [0x2B] Trion (ID: 17748115/0x010ED093) [6993*]:
    → "That is what I propose."
374: 0x09EE [0x23] WAIT_FOR_DIALOG_INTERACTION
375: 0x09EF [0x27] REQ_SET(priority=0x03, entity_id=Wolfgang (ID: 17748112/0x010ED090), tag_num=0x03)
376: 0x09F6 [0x45] LOAD_SCHEDULED_TASK: Load scheduler "x002" with entities [LocalPlayer, LocalPlayer], work=[64*, 0*]
377: 0x0A07 [0x27] REQ_SET(priority=0x03, entity_id=Volker (ID: 17748014/0x010ED02E), tag_num=0x07)
378: 0x0A0E [0x2B] Volker (ID: 17748014/0x010ED02E) [6994*]:
    → "Conflict... An interesting idea..."
379: 0x0A15 [0x23] WAIT_FOR_DIALOG_INTERACTION
380: 0x0A16 [0x2B] Volker (ID: 17748014/0x010ED02E) [6995*]:
    → "There was once a time when Conflict ignited the spirits of the people of Bastok--players and fans alike."
381: 0x0A1D [0x23] WAIT_FOR_DIALOG_INTERACTION
382: 0x0A1E [0x27] REQ_SET(priority=0x03, entity_id=Volker (ID: 17748014/0x010ED02E), tag_num=0x08)
383: 0x0A25 [0x2B] Volker (ID: 17748014/0x010ED02E) [6996*]:
    → "However, after numerous "accidents," the games were deemed a bad influence on the Republic's image, and were banned by law."
384: 0x0A2C [0x23] WAIT_FOR_DIALOG_INTERACTION
385: 0x0A2D [0x2B] Volker (ID: 17748014/0x010ED02E) [6997*]:
    → "If Conflict was reinstated, it could re-ignite the flames in the hearts of all Bastokers and renew their faith in the Republican Army. Morale would be restored, and our problems solved."
386: 0x0A34 [0x23] WAIT_FOR_DIALOG_INTERACTION
387: 0x0A35 [0x55] WAIT_LOAD_SCHEDULER: Wait for scheduler "x002" with entities [LocalPlayer, LocalPlayer], work=64*
388: 0x0A44 [0x02] IF !(ExtData[1]->WorkLocal[4] == 0*) GOTO 0x0ACE
389: 0x0A4C [0x45] LOAD_SCHEDULED_TASK: Load scheduler "x003" with entities [LocalPlayer, LocalPlayer], work=[64*, 0*]
390: 0x0A5D [0x27] REQ_SET(priority=0x03, entity_id=Shantotto (ID: 17748117/0x010ED095), tag_num=0x06)
391: 0x0A64 [0x2B] Shantotto (ID: 17748117/0x010ED095) [6998*]:
    → "Prince Trion, Prince Trion. If that's all that you wanted to say, you didn't have to go beat around the bush all day."
392: 0x0A6B [0x23] WAIT_FOR_DIALOG_INTERACTION
393: 0x0A6C [0x2B] Shantotto (ID: 17748117/0x010ED095) [6999*]:
    → "Windurst welcomes Conflict with open arms! A little feuding fun could do no harm."
394: 0x0A73 [0x23] WAIT_FOR_DIALOG_INTERACTION
395: 0x0A74 [0x27] REQ_SET(priority=0x03, entity_id=Shantotto (ID: 17748117/0x010ED095), tag_num=0x07)
396: 0x0A7B [0x4A] Ajido-Marujido (ID: 17748118/0x010ED096) looks at Shantotto (ID: 17748117/0x010ED095)
397: 0x0A84 [0x1C] WAIT(10* ticks)
398: 0x0A87 [0x2B] Ajido-Marujido (ID: 17748118/0x010ED096) [7000*]:
    → "Shantotto!?"
399: 0x0A8E [0x23] WAIT_FOR_DIALOG_INTERACTION
400: 0x0A8F [0x2A] GET_REQ_LEVEL(level=3, entity_id=Shantotto (ID: 17748117/0x010ED095))
401: 0x0A95 [0x27] REQ_SET(priority=0x03, entity_id=Shantotto (ID: 17748117/0x010ED095), tag_num=0x09)
402: 0x0A9C [0x2B] Shantotto (ID: 17748117/0x010ED095) [7001*]:
    → "Oh, there's nothing to get all excited about. The forces of Windurst are in good hands. A couple of knutty knights and measly musketeers are no match for Shantotto's superior battle plans."
403: 0x0AA3 [0x23] WAIT_FOR_DIALOG_INTERACTION
404: 0x0AA4 [0x2B] Shantotto (ID: 17748117/0x010ED095) [7003*]:
    → "And once we get our fearless loyal adventurers to help, it will be your two nations letting out cries and yelps."
405: 0x0AAB [0x23] WAIT_FOR_DIALOG_INTERACTION
406: 0x0AAC [0x6F] WAIT_FRAME_DELAY: Yield until WaitTime reaches zero
407: 0x0AAD [0x76] CHECK_ENTITY_RENDER_FLAGS: Wait until Ajido-Marujido (ID: 17748118/0x010ED096) Render.Flags0 and Render.Flags3 conditions are met
408: 0x0AB2 [0x27] REQ_SET(priority=0x03, entity_id=Ajido-Marujido (ID: 17748118/0x010ED096), tag_num=0x08)
409: 0x0AB9 [0x1C] WAIT(60* ticks)
410: 0x0ABC [0x55] WAIT_LOAD_SCHEDULER: Wait for scheduler "x003" with entities [LocalPlayer, LocalPlayer], work=64*
411: 0x0ACB [0x01] GOTO 0x0B1C
412: 0x0ACE [0x45] LOAD_SCHEDULED_TASK: Load scheduler "s003" with entities [LocalPlayer, LocalPlayer], work=[64*, 0*]
413: 0x0ADF [0x27] REQ_SET(priority=0x03, entity_id=Shantotto (ID: 17748117/0x010ED095), tag_num=0x06)
414: 0x0AE6 [0x2B] Shantotto (ID: 17748117/0x010ED095) [6998*]:
    → "Prince Trion, Prince Trion. If that's all that you wanted to say, you didn't have to go beat around the bush all day."
415: 0x0AED [0x23] WAIT_FOR_DIALOG_INTERACTION
416: 0x0AEE [0x2B] Shantotto (ID: 17748117/0x010ED095) [6999*]:
    → "Windurst welcomes Conflict with open arms! A little feuding fun could do no harm."
417: 0x0AF5 [0x23] WAIT_FOR_DIALOG_INTERACTION
418: 0x0AF6 [0x27] REQ_SET(priority=0x03, entity_id=Shantotto (ID: 17748117/0x010ED095), tag_num=0x07)
419: 0x0AFD [0x2B] Shantotto (ID: 17748117/0x010ED095) [7002*]:
    → "The forces of Windurst are in good hands. A couple of knutty knights and measly musketeers are no match for Shantotto's superior battle plans."
420: 0x0B04 [0x23] WAIT_FOR_DIALOG_INTERACTION
421: 0x0B05 [0x2B] Shantotto (ID: 17748117/0x010ED095) [7003*]:
    → "And once we get our fearless loyal adventurers to help, it will be your two nations letting out cries and yelps."
422: 0x0B0C [0x23] WAIT_FOR_DIALOG_INTERACTION
423: 0x0B0D [0x55] WAIT_LOAD_SCHEDULER: Wait for scheduler "s003" with entities [LocalPlayer, LocalPlayer], work=64*

SUBROUTINE_0B1C:
424: 0x0B1C [0x7B] Wolfgang (ID: 17748112/0x010ED090) stops talking
425: 0x0B21 [0x4A] Volker (ID: 17748014/0x010ED02E) looks at Wolfgang (ID: 17748112/0x010ED090)
426: 0x0B2A [0x1C] WAIT(5* ticks)
427: 0x0B2D [0x45] LOAD_SCHEDULED_TASK: Load scheduler "x004" with entities [LocalPlayer, LocalPlayer], work=[64*, 0*]
428: 0x0B3E [0x55] WAIT_LOAD_SCHEDULER: Wait for scheduler "x004" with entities [LocalPlayer, LocalPlayer], work=64*
429: 0x0B4D [0x02] IF !(ExtData[1]->WorkLocal[4] == 0*) GOTO 0x0B5E
430: 0x0B55 [0x6B] STOP_AND_IDLE: Shantotto (ID: 17748117/0x010ED095) stops current action and resets to idle (animation="idl0")
431: 0x0B5E [0x6F] WAIT_FRAME_DELAY: Yield until WaitTime reaches zero
432: 0x0B5F [0x76] CHECK_ENTITY_RENDER_FLAGS: Wait until Volker (ID: 17748014/0x010ED02E) Render.Flags0 and Render.Flags3 conditions are met
433: 0x0B64 [0x27] REQ_SET(priority=0x03, entity_id=Volker (ID: 17748014/0x010ED02E), tag_num=0x03)
434: 0x0B6B [0x2B] Volker (ID: 17748014/0x010ED02E) [7004*]:
    → "If San d'Oria and Windurst have agreed to participate, the president is sure to grant his approval."
435: 0x0B72 [0x23] WAIT_FOR_DIALOG_INTERACTION
436: 0x0B73 [0x2B] Volker (ID: 17748014/0x010ED02E) [7005*]:
    → "And I know our adventurers will be more than happy to take up their swords for the Republic."
437: 0x0B7A [0x23] WAIT_FOR_DIALOG_INTERACTION
438: 0x0B7B [0x27] REQ_SET(priority=0x03, entity_id=Volker (ID: 17748014/0x010ED02E), tag_num=0x04)
439: 0x0B82 [0x4A] Trion (ID: 17748115/0x010ED093) looks at Wolfgang (ID: 17748112/0x010ED090)
440: 0x0B8B [0x1C] WAIT(10* ticks)
441: 0x0B8E [0x2B] Trion (ID: 17748115/0x010ED093) [7006*]:
    → "Excellent. I look forward to meeting you all again on the battlefield."
442: 0x0B95 [0x23] WAIT_FOR_DIALOG_INTERACTION
443: 0x0B96 [0x4B] UPDATE_ENTITY_YAW(entity=Wolfgang (ID: 17748112/0x010ED090), yaw=5.6°*)
444: 0x0B9D [0x1C] WAIT(10* ticks)
445: 0x0BA0 [0x4A] Shantotto (ID: 17748117/0x010ED095) looks at Wolfgang (ID: 17748112/0x010ED090)
446: 0x0BA9 [0x1C] WAIT(10* ticks)
447: 0x0BAC [0x4A] Ajido-Marujido (ID: 17748118/0x010ED096) looks at Wolfgang (ID: 17748112/0x010ED090)
448: 0x0BB5 [0x1C] WAIT(10* ticks)
449: 0x0BB8 [0x45] LOAD_SCHEDULED_TASK: Load scheduler "x005" with entities [LocalPlayer, LocalPlayer], work=[64*, 0*]
450: 0x0BC9 [0x2B] Wolfgang (ID: 17748112/0x010ED090) [7007*]:
    → "Well... It is a rare occasion that all three nations agree on an issue."
451: 0x0BD0 [0x23] WAIT_FOR_DIALOG_INTERACTION
452: 0x0BD1 [0x2B] Wolfgang (ID: 17748112/0x010ED090) [7008*]:
    → "Unfortunately, ducal law prevents Jeuno from participating in such matters."
453: 0x0BD8 [0x23] WAIT_FOR_DIALOG_INTERACTION
454: 0x0BD9 [0x2B] Wolfgang (ID: 17748112/0x010ED090) [7009*]:
    → "However, we will assign officials to take part as Heralds and watch over the games."
455: 0x0BE0 [0x23] WAIT_FOR_DIALOG_INTERACTION
456: 0x0BE1 [0x55] WAIT_LOAD_SCHEDULER: Wait for scheduler "x005" with entities [LocalPlayer, LocalPlayer], work=64*
457: 0x0BF0 [0x27] REQ_SET(priority=0x03, entity_id=Volker (ID: 17748014/0x010ED02E), tag_num=0x05)
458: 0x0BF7 [0x2B] Volker (ID: 17748014/0x010ED02E) [7010*]:
    → "I have no objections. Now let us return to our nations and begin with the preparations."
459: 0x0BFE [0x23] WAIT_FOR_DIALOG_INTERACTION
460: 0x0BFF [0x27] REQ_SET(priority=0x03, entity_id=Trion (ID: 17748115/0x010ED093), tag_num=0x04)
461: 0x0C06 [0x2B] Trion (ID: 17748115/0x010ED093) [7011*]:
    → "Then it has been decided. Sir Wolfgang."
462: 0x0C0D [0x23] WAIT_FOR_DIALOG_INTERACTION
463: 0x0C0E [0x45] LOAD_SCHEDULED_TASK: Load scheduler "x006" with entities [LocalPlayer, LocalPlayer], work=[64*, 0*]
464: 0x0C1F [0x1C] WAIT(30* ticks)
465: 0x0C22 [0x27] REQ_SET(priority=0x03, entity_id=Volker (ID: 17748014/0x010ED02E), tag_num=0x06)
466: 0x0C29 [0x27] REQ_SET(priority=0x03, entity_id=Trion (ID: 17748115/0x010ED093), tag_num=0x05)
467: 0x0C30 [0x2B] Wolfgang (ID: 17748112/0x010ED090) [7012*]:
    → "Ahem. Then, if there is nothing further, I call the 136th Conquest Evaluation Assembly to a close."
468: 0x0C37 [0x23] WAIT_FOR_DIALOG_INTERACTION
469: 0x0C38 [0x55] WAIT_LOAD_SCHEDULER: Wait for scheduler "x006" with entities [LocalPlayer, LocalPlayer], work=64*
470: 0x0C47 [0x7B] Shantotto (ID: 17748117/0x010ED095) stops talking
471: 0x0C4C [0x02] IF !(ExtData[1]->WorkLocal[4] == 0*) GOTO 0x0C57
472: 0x0C54 [0x01] GOTO 0x0C5E
473: 0x0C57 [0x29] REQ_SET_WAIT(priority=0x03, entity_id=Shantotto (ID: 17748117/0x010ED095), tag_num=0x03)

SUBROUTINE_0C5E:
474: 0x0C5E [0x4B] UPDATE_ENTITY_YAW(entity=Shantotto (ID: 17748117/0x010ED095), yaw=10.4°*)
475: 0x0C65 [0x27] REQ_SET(priority=0x03, entity_id=Volker (ID: 17748014/0x010ED02E), tag_num=0x02)
476: 0x0C6C [0x27] REQ_SET(priority=0x03, entity_id=Trion (ID: 17748115/0x010ED093), tag_num=0x03)
477: 0x0C73 [0x1C] WAIT(100* ticks)
478: 0x0C76 [0x4A] Rahal (ID: 17748116/0x010ED094) looks at Trion (ID: 17748115/0x010ED093)
479: 0x0C7F [0x1C] WAIT(50* ticks)
480: 0x0C82 [0x45] LOAD_SCHEDULED_TASK: Load scheduler "x007" with entities [LocalPlayer, LocalPlayer], work=[64*, 0*]
481: 0x0C93 [0x02] IF !(ExtData[1]->WorkLocal[4] == 0*) GOTO 0x0CA6
482: 0x0C9B [0x2B] Shantotto (ID: 17748117/0x010ED095) [7013*]:
    → "Though I'd rather be sitting on the beach, catching some sun, sometimes these stuffy-snuffy meetings can be kind of fun!"
483: 0x0CA2 [0x23] WAIT_FOR_DIALOG_INTERACTION
484: 0x0CA3 [0x01] GOTO 0x0CAE
485: 0x0CA6 [0x2B] Shantotto (ID: 17748117/0x010ED095) [7014*]:
    → "Though I'd rather be sitting on the beach, catching some sun, sometimes these stuffy-snuffy meetings can be kind of fun!"
486: 0x0CAD [0x23] WAIT_FOR_DIALOG_INTERACTION

SUBROUTINE_0CAE:
487: 0x0CAE [0x27] REQ_SET(priority=0x03, entity_id=Shantotto (ID: 17748117/0x010ED095), tag_num=0x09)
488: 0x0CB5 [0x2B] Shantotto (ID: 17748117/0x010ED095) [7015*]:
    → "I could take up my staff and participate in Conflict myself, but my super-duper whammy-slammy spells would be bad for my opponents' health! Ohohohohoho!"
489: 0x0CBC [0x1C] WAIT(100* ticks)
490: 0x0CBF [0x55] WAIT_LOAD_SCHEDULER: Wait for scheduler "x007" with entities [LocalPlayer, LocalPlayer], work=64*
491: 0x0CCE [0x45] LOAD_SCHEDULED_TASK: Load scheduler "fdo2" with entities [LocalPlayer, LocalPlayer], work=[200*, 0*]
492: 0x0CDF [0x55] WAIT_LOAD_SCHEDULER: Wait for scheduler "fdo2" with entities [LocalPlayer, LocalPlayer], work=200*
493: 0x0CEE [0x23] WAIT_FOR_DIALOG_INTERACTION
494: 0x0CEF [0x35] LOAD_ZONE_NO_CLOSE(zone_id=237*)
495: 0x0CF2 [0x1C] WAIT(100* ticks)
496: 0x0CF5 [0x78] ENABLE_GAME_TIMER_RESET_WEATHER()
497: 0x0CF6 [0x46] CAMERA_CONTROL: Restore default settings
498: 0x0CF8 [0x38] SET_CLIENT_EVENT_MODE(mode=0*)
499: 0x0CFB [0x37] UPDATE_EVENT_POSITION_AND_DIR: x=ExtData[1]->WorkLocal[0], z=ExtData[1]->WorkLocal[1], y=ExtData[1]->WorkLocal[2], direction=ExtData[1]->WorkLocal[3]
500: 0x0D04 [0x29] REQ_SET_WAIT(priority=0x03, entity_id=LocalPlayer, tag_num=0x41)
501: 0x0D0B [0x4E] SET_ENTITY_HIDE_FLAG: Show LocalPlayer
502: 0x0D11 [0x4E] SET_ENTITY_HIDE_FLAG: Show EventEntity
503: 0x0D17 [0x80] LOAD_WAIT(entity=LocalPlayer)
504: 0x0D1C [0x80] LOAD_WAIT(entity=EventEntity)
505: 0x0D21 [0x45] LOAD_SCHEDULED_TASK: Load scheduler "fdi2" with entities [LocalPlayer, LocalPlayer], work=[200*, 0*]
506: 0x0D32 [0x5C] MUSIC_CONTROL: Set Idle (Day) music to song 154*
507: 0x0D36 [0x5C] MUSIC_CONTROL: Set Idle (Night) music to song 154*
508: 0x0D3A [0x02] IF !(Work_Zone[3] == 0*) GOTO 0x0D55
509: 0x0D42 [0x2B] Invincible Shield (ID: 17748094/0x010ED07E) [7177*]:
    → "Did you understand what I just told you!? It is an honor and a privilege to participate in Conflict!"
510: 0x0D49 [0x23] WAIT_FOR_DIALOG_INTERACTION
511: 0x0D4A [0x2B] Invincible Shield (ID: 17748094/0x010ED07E) [7178*]:
    → "You want to be a hero!? Well, here's your chance, soldier! Sign this application form and you can be on your way!"
512: 0x0D51 [0x23] WAIT_FOR_DIALOG_INTERACTION
513: 0x0D52 [0x1A] CALL_SUBROUTINE(address=0x0D6D)
514: 0x0D55 [0x21] END_EVENT
515: 0x0D56 [0x00] END_REQSTACK()
```

### Event 814

#### Metadata

| Field        | Value     |
|--------------|-----------|
| Entrypoint   | 0x0D57    |
| Data Size    | 116 bytes |
| Instructions | 33        |

```
      00 01 02 03 04 05 06 07  08 09 0A 0B 0C 0D 0E 0F
      -- -- -- -- -- -- -- --  -- -- -- -- -- -- -- --
0D50:                      20  01 1E F0 FF FF 7F 6F 70          ......op
0D60: 2B 7E D0 0E 01 7D 80 23  1A 6D 0D 21 00 06 01 10  +~...}.#.m.!....
0D70: 24 7E 80 17 80 07 80 25  02 00 10 07 80 00 B7 0D  $~.....%........
0D80: 42 2B 7E D0 0E 01 7F 80  23 2B 7E D0 0E 01 80 80  B+~.....#+~.....
0D90: 23 2B 7E D0 0E 01 81 80  23 2B 7E D0 0E 01 82 80  #+~.....#+~.....
