# 17747992 - Lucius

## Common Data

| Field            | Value                |
|------------------|----------------------|
| Zone             | Metalworks (ID: 237) |
| Block Size       | 1816 bytes           |
| Total Events     | 43                   |
| References Count | 124                  |

## List of Events

| Event ID                   | Entrypoint   |   Size |   Instructions |
|----------------------------|--------------|--------|----------------|
| [65535](#event-65535)      | 0x0000       |      1 |              1 |
| [710](#event-710)          | 0x0001       |     12 |              3 |
| [320](#event-320)          | 0x000D       |     11 |              5 |
| [65535.1](#event-655351)   | 0x0018       |      6 |              2 |
| [65535.2](#event-655352)   | 0x001E       |     26 |              7 |
| [65535.3](#event-655353)   | 0x0038       |     14 |              4 |
| [713](#event-713)          | 0x0046       |     10 |              2 |
| [65535.4](#event-655354)   | 0x0050       |     31 |              9 |
| [65535.5](#event-655355)   | 0x006F       |    341 |             44 |
| [65535.6](#event-655356)   | 0x01C4       |     19 |              5 |
| [65535.7](#event-655357)   | 0x01D7       |     19 |              5 |
| [714](#event-714)          | 0x01EA       |     10 |              2 |
| [65535.8](#event-655358)   | 0x01F4       |     19 |              5 |
| [65535.9](#event-655359)   | 0x0207       |     37 |              7 |
| [322](#event-322)          | 0x022C       |      1 |              1 |
| [65535.10](#event-6553510) | 0x022D       |     49 |             10 |
| [720](#event-720)          | 0x025E       |     10 |              2 |
| [65535.11](#event-6553511) | 0x0268       |     30 |              7 |
| [65535.12](#event-6553512) | 0x0286       |     19 |              5 |
| [721](#event-721)          | 0x0299       |     12 |              3 |
| [65535.13](#event-6553513) | 0x02A5       |     30 |              6 |
| [722](#event-722)          | 0x02C3       |     10 |              2 |
| [603](#event-603)          | 0x02CD       |     12 |              3 |
| [65535.14](#event-6553514) | 0x02D9       |     36 |              9 |
| [65535.15](#event-6553515) | 0x02FD       |     45 |              9 |
| [65535.16](#event-6553516) | 0x032A       |     28 |              6 |
| [1010](#event-1010)        | 0x0346       |      1 |              1 |
| [65535.17](#event-6553517) | 0x0347       |     45 |             10 |
| [65535.18](#event-6553518) | 0x0374       |     14 |              4 |
| [65535.19](#event-6553519) | 0x0382       |     34 |              7 |
| [776](#event-776)          | 0x03A4       |      1 |              1 |
| [65535.20](#event-6553520) | 0x03A5       |     51 |             12 |
| [65535.21](#event-6553521) | 0x03D8       |     14 |              4 |
| [782](#event-782)          | 0x03E6       |     10 |              2 |
| [65535.22](#event-6553522) | 0x03F0       |     39 |              7 |
| [65535.23](#event-6553523) | 0x0417       |     20 |              3 |
| [968](#event-968)          | 0x042B       |      1 |              1 |
| [65535.24](#event-6553524) | 0x042C       |     12 |              4 |
| [65535.25](#event-6553525) | 0x0438       |     11 |              3 |
| [65535.26](#event-6553526) | 0x0443       |     37 |              9 |
| [986](#event-986)          | 0x0468       |      1 |              1 |

## DAT References (imed_data)

|   Index | Hex Value   |   Dec Value |
|---------|-------------|-------------|
|       0 | 0x12574     |       75124 |
|       1 | 0xFFFFF9FC  |  4294965756 |
|       2 | 0xFFFFB71C  |  4294948636 |
|       3 | 0x077F      |        1919 |
|       4 | 0x1D4C      |        7500 |
|       5 | 0x000D      |          13 |
|       6 | 0x1068C     |       67212 |
|       7 | 0xFFFFF6EF  |  4294964975 |
|       8 | 0xFFFFC950  |  4294953296 |
|       9 | 0x10498     |       66712 |
|      10 | 0xFFFFF5C3  |  4294964675 |
|      11 | 0xEC78      |       60536 |
|      12 | 0xFFFFE1BB  |  4294959547 |
|      13 | 0xFFFFC951  |  4294953297 |
|      14 | 0x19C1B     |      105499 |
|      15 | 0x0A7D      |        2685 |
|      16 | 0xFFFFB136  |  4294947126 |
|      17 | 0x069E      |        1694 |
|      18 | 0x0078      |         120 |
|      19 | 0x1DE9      |        7657 |
|      20 | 0x0014      |          20 |
|      21 | 0x1DEA      |        7658 |
|      22 | 0x1DEB      |        7659 |
|      23 | 0x0005      |           5 |
|      24 | 0x1DC7      |        7623 |
|      25 | 0x1DC8      |        7624 |
|      26 | 0x00C8      |         200 |
|      27 | 0x0000      |           0 |
|      28 | 0x0089      |         137 |
|      29 | 0x000A      |          10 |
|      30 | 0x1DC9      |        7625 |
|      31 | 0x1DCA      |        7626 |
|      32 | 0x001E      |          30 |
|      33 | 0x1DCB      |        7627 |
|      34 | 0x1DCC      |        7628 |
|      35 | 0x00F0      |         240 |
|      36 | 0x194F2     |      103666 |
|      37 | 0x0747      |        1863 |
|      38 | 0xFFFFB12B  |  4294947115 |
|      39 | 0x199FE     |      104958 |
|      40 | 0x0515      |        1301 |
|      41 | 0x15AEC     |       88812 |
|      42 | 0x1542      |        5442 |
|      43 | 0xFFFFB138  |  4294947128 |
|      44 | 0x059C      |        1436 |
|      45 | 0x1628C     |       90764 |
|      46 | 0x0472      |        1138 |
|      47 | 0xFFFFB3B4  |  4294947764 |
|      48 | 0x16120     |       90400 |
|      49 | 0x02BC      |         700 |
|      50 | 0xE353      |       58195 |
|      51 | 0xFFFF57A2  |  4294924194 |
|      52 | 0xFFFFBFFA  |  4294950906 |
|      53 | 0xDF4B      |       57163 |
|      54 | 0xFFFF5752  |  4294924114 |
|      55 | 0xDD0E      |       56590 |
|      56 | 0xFFFF5928  |  4294924584 |
|      57 | 0x1B68B     |      112267 |
|      58 | 0x126A      |        4714 |
|      59 | 0x0818      |        2072 |
|      60 | 0x1AAD3     |      109267 |
|      61 | 0x1396      |        5014 |
|      62 | 0x1900F     |      102415 |
|      63 | 0x104D      |        4173 |
|      64 | 0x17E08     |       97800 |
|      65 | 0x04BE      |        1214 |
|      66 | 0x19F6B     |      106347 |
|      67 | 0x2AC3      |       10947 |
|      68 | 0xFFFFB12E  |  4294947118 |
|      69 | 0x0FBF      |        4031 |
|      70 | 0x1A47F     |      107647 |
|      71 | 0x29A4      |       10660 |
|      72 | 0x19B6B     |      105323 |
|      73 | 0x09BD      |        2493 |
|      74 | 0x057B      |        1403 |
|      75 | 0x18447     |       99399 |
|      76 | 0xFFFFFA24  |  4294965796 |
|      77 | 0x0F8E      |        3982 |
|      78 | 0x0FE5      |        4069 |
|      79 | 0x19169     |      102761 |
|      80 | 0x19096     |      102550 |
|      81 | 0xFFFFFC70  |  4294966384 |
|      82 | 0x14FF0     |       86000 |
|      83 | 0x03E8      |        1000 |
|      84 | 0xFFFFB3B5  |  4294947765 |
|      85 | 0x073B      |        1851 |
|      86 | 0x130B0     |       78000 |
|      87 | 0x113BC     |       70588 |
|      88 | 0x068F      |        1679 |
|      89 | 0xFFFFC107  |  4294951175 |
|      90 | 0x0873      |        2163 |
|      91 | 0xFEE2      |       65250 |
|      92 | 0x076B      |        1899 |
|      93 | 0xE21B      |       57883 |
|      94 | 0xFFFFE5BB  |  4294960571 |
|      95 | 0xE7EB      |       59371 |
|      96 | 0x042E      |        1070 |
|      97 | 0x0C47      |        3143 |
|      98 | 0xFB2A      |       64298 |
|      99 | 0x09FA      |        2554 |
|     100 | 0x1748D     |       95373 |
|     101 | 0x25D6      |        9686 |
|     102 | 0x0056      |          86 |
|     103 | 0x18013     |       98323 |
|     104 | 0x285A      |       10330 |
|     105 | 0x180CD     |       98509 |
|     106 | 0x2F3D      |       12093 |
|     107 | 0xFFFFB127  |  4294947111 |
|     108 | 0x19574     |      103796 |
|     109 | 0x0BC0      |        3008 |
|     110 | 0x0321      |         801 |
|     111 | 0x18C5B     |      101467 |
|     112 | 0x0547      |        1351 |
|     113 | 0x0684      |        1668 |
|     114 | 0x188DF     |      100575 |
|     115 | 0x0371      |         881 |
|     116 | 0xE9F0      |       59888 |
|     117 | 0xFFFF5BBE  |  4294925246 |
|     118 | 0x0E71      |        3697 |
|     119 | 0x15BD2     |       89042 |
|     120 | 0xFFFFFF8C  |  4294967180 |
|     121 | 0x18AED     |      101101 |
|     122 | 0x002E      |          46 |
|     123 | 0x168EB     |       92395 |

## String References

- **7500**: I am sorry, but I am a little busy at the moment. Would you mind coming back later?

## Events

### Event 65535

#### Metadata

| Field        | Value   |
|--------------|---------|
| Entrypoint   | 0x0000  |
| Data Size    | 1 bytes |
| Instructions | 1       |

```
      00 01 02 03 04 05 06 07  08 09 0A 0B 0C 0D 0E 0F
      -- -- -- -- -- -- -- --  -- -- -- -- -- -- -- --
0000: 00                                                .               
```

#### Opcodes

```
  0: 0x0000 [0x00] END_REQSTACK()
```

### Event 710

#### Metadata

| Field        | Value    |
|--------------|----------|
| Entrypoint   | 0x0001   |
| Data Size    | 12 bytes |
| Instructions | 3        |

```
      00 01 02 03 04 05 06 07  08 09 0A 0B 0C 0D 0E 0F
      -- -- -- -- -- -- -- --  -- -- -- -- -- -- -- --
0000:    22 01 37 00 80 01 80  02 80 03 80 00            ".7.........   
```

#### Opcodes

```
  0: 0x0001 [0x22] ENTITY_HIDE_FLAG(enabled=0x01)
  1: 0x0003 [0x37] UPDATE_EVENT_POSITION_AND_DIR: x=75.124*, z=-1.540*, y=-18.660*, direction=168.7°*
  2: 0x000C [0x00] END_REQSTACK()
```

### Event 320

#### Metadata

| Field        | Value    |
|--------------|----------|
| Entrypoint   | 0x000D   |
| Data Size    | 11 bytes |
| Instructions | 5        |

```
      00 01 02 03 04 05 06 07  08 09 0A 0B 0C 0D 0E 0F
      -- -- -- -- -- -- -- --  -- -- -- -- -- -- -- --
0000:                                         1E F0 FF               ...
0010: FF 7F 1D 04 80 23 21 00                           .....#!.        
```

#### Opcodes

```
  0: 0x000D [0x1E] EventEntity looks at LocalPlayer and starts talking
  1: 0x0012 [0x1D] PRINT_EVENT_MESSAGE(message_id=7500*)
    → "I am sorry, but I am a little busy at the moment. Would you mind coming back later?"
  2: 0x0015 [0x23] WAIT_FOR_DIALOG_INTERACTION
  3: 0x0016 [0x21] END_EVENT
  4: 0x0017 [0x00] END_REQSTACK()
```

### Event 65535.1

#### Metadata

| Field        | Value   |
|--------------|---------|
| Entrypoint   | 0x0018  |
| Data Size    | 6 bytes |
| Instructions | 2       |

```
      00 01 02 03 04 05 06 07  08 09 0A 0B 0C 0D 0E 0F
      -- -- -- -- -- -- -- --  -- -- -- -- -- -- -- --
0010:                          5E 69 64 6C 30 00                ^idl0.  
```

#### Opcodes

```
  0: 0x0018 [0x5E] EventEntity goes idle (kills current action) (animation: "idl0")
  1: 0x001D [0x00] END_REQSTACK()
```

### Event 65535.2

#### Metadata

| Field        | Value    |
|--------------|----------|
| Entrypoint   | 0x001E   |
| Data Size    | 26 bytes |
| Instructions | 7        |

```
      00 01 02 03 04 05 06 07  08 09 0A 0B 0C 0D 0E 0F
      -- -- -- -- -- -- -- --  -- -- -- -- -- -- -- --
0010:                                            22 00                ".
0020: 32 05 80 1F 00 06 80 07  80 08 80 1F 01 1F 00 09  2...............
0030: 80 0A 80 08 80 1F 01 00                           ........        
```

#### Opcodes

```
  0: 0x001E [0x22] ENTITY_HIDE_FLAG(enabled=0x00)
  1: 0x0020 [0x32] ExtData[1]->MainSpeed = 13* * 0.1
  2: 0x0023 [0x1F] MOVE_ENTITY: EventEntity moves to X=67.212*, Z=-2.321*, Y=-14.000*
  3: 0x002B [0x1F] MOVE_ENTITY: Update entity position (mode=1)
  4: 0x002D [0x1F] MOVE_ENTITY: EventEntity moves to X=66.712*, Z=-2.621*, Y=-14.000*
  5: 0x0035 [0x1F] MOVE_ENTITY: Update entity position (mode=1)
  6: 0x0037 [0x00] END_REQSTACK()
```

### Event 65535.3

#### Metadata

| Field        | Value    |
|--------------|----------|
| Entrypoint   | 0x0038   |
| Data Size    | 14 bytes |
| Instructions | 4        |

```
      00 01 02 03 04 05 06 07  08 09 0A 0B 0C 0D 0E 0F
      -- -- -- -- -- -- -- --  -- -- -- -- -- -- -- --
0030:                          32 05 80 1F 00 0B 80 0C          2.......
0040: 80 0D 80 1F 01 00                                 ......          
```

#### Opcodes

```
  0: 0x0038 [0x32] ExtData[1]->MainSpeed = 13* * 0.1
  1: 0x003B [0x1F] MOVE_ENTITY: EventEntity moves to X=60.536*, Z=-7.749*, Y=-13.999*
  2: 0x0043 [0x1F] MOVE_ENTITY: Update entity position (mode=1)
  3: 0x0045 [0x00] END_REQSTACK()
```

### Event 713

#### Metadata

| Field        | Value    |
|--------------|----------|
| Entrypoint   | 0x0046   |
| Data Size    | 10 bytes |
| Instructions | 2        |

```
      00 01 02 03 04 05 06 07  08 09 0A 0B 0C 0D 0E 0F
      -- -- -- -- -- -- -- --  -- -- -- -- -- -- -- --
0040:                   37 0E  80 0F 80 10 80 11 80 00        7.........
```

#### Opcodes

```
  0: 0x0046 [0x37] UPDATE_EVENT_POSITION_AND_DIR: x=105.499*, z=2.685*, y=-20.170*, direction=148.9°*
  1: 0x004F [0x00] END_REQSTACK()
```

### Event 65535.4

#### Metadata

| Field        | Value    |
|--------------|----------|
| Entrypoint   | 0x0050   |
| Data Size    | 31 bytes |
| Instructions | 9        |

```
      00 01 02 03 04 05 06 07  08 09 0A 0B 0C 0D 0E 0F
      -- -- -- -- -- -- -- --  -- -- -- -- -- -- -- --
0050: 1C 12 80 2B 2D D0 0E 01  13 80 23 1C 14 80 2B 2D  ...+-.....#...+-
0060: D0 0E 01 15 80 23 2B 2D  D0 0E 01 16 80 23 00     .....#+-.....#. 
```

#### Opcodes

```
  0: 0x0050 [0x1C] WAIT(120* ticks)
  1: 0x0053 [0x2B] Naji (ID: 17748013/0x010ED02D) [7657*]:
    → "So, how was it? Did the Orcs in Ghelsba or the Yagudo in Giddeus give you any trouble?"
  2: 0x005A [0x23] WAIT_FOR_DIALOG_INTERACTION
  3: 0x005B [0x1C] WAIT(20* ticks)
  4: 0x005E [0x2B] Naji (ID: 17748013/0x010ED02D) [7658*]:
    → "Man, I envy you. I'm a Mythril Musketeer, but all they make me do is stand guard at that door."
  5: 0x0065 [0x23] WAIT_FOR_DIALOG_INTERACTION
  6: 0x0066 [0x2B] Naji (ID: 17748013/0x010ED02D) [7659*]:
    → "Captain Volker and Iron Eater get all the good missions, and Ayame always puts me down..."
  7: 0x006D [0x23] WAIT_FOR_DIALOG_INTERACTION
  8: 0x006E [0x00] END_REQSTACK()
```

### Event 65535.5

#### Metadata

| Field        | Value     |
|--------------|-----------|
| Entrypoint   | 0x006F    |
| Data Size    | 341 bytes |
| Instructions | 44        |

```
      00 01 02 03 04 05 06 07  08 09 0A 0B 0C 0D 0E 0F
      -- -- -- -- -- -- -- --  -- -- -- -- -- -- -- --
0060:                                               1C                 .
0070: 17 80 27 0A F0 FF FF 7F  06 2B 2D D0 0E 01 18 80  ..'......+-.....
0080: 23 2B 2D D0 0E 01 19 80  23 2A 0A 2D D0 0E 01 45  #+-.....#*.-...E
0090: 1A 80 F0 FF FF 7F F0 FF  FF 7F 66 64 6F 31 1B 80  ..........fdo1..
00A0: 55 1C 80 F0 FF FF 7F F0  FF FF 7F 73 30 32 35 55  U..........s025U
00B0: 1A 80 F0 FF FF 7F F0 FF  FF 7F 66 64 6F 31 2A 0A  ..........fdo1*.
00C0: F0 FF FF 7F 27 0A 2D D0  0E 01 0A 1C 1D 80 27 0A  ....'.-.......'.
00D0: F0 FF FF 7F 07 45 1C 80  F0 FF FF 7F F0 FF FF 7F  .....E..........
00E0: 73 30 32 36 1B 80 45 1A  80 F0 FF FF 7F F0 FF FF  s026..E.........
00F0: 7F 66 64 69 31 1B 80 2B  2D D0 0E 01 1E 80 23 2B  .fdi1..+-.....#+
0100: 2D D0 0E 01 1F 80 23 1C  20 80 2A 0A 2D D0 0E 01  -.....#. .*.-...
0110: 4A 2D D0 0E 01 F0 FF FF  7F 2B 2D D0 0E 01 21 80  J-.......+-...!.
0120: 23 66 1B 80 2D D0 0E 01  2D D0 0E 01 74 6C 6B 30  #f..-...-...tlk0
0130: 2B 2D D0 0E 01 22 80 23  66 1B 80 2D D0 0E 01 2D  +-...".#f..-...-
0140: D0 0E 01 74 65 6E 30 2A  0A 2D D0 0E 01 27 0A F0  ...ten0*.-...'..
0150: FF FF 7F 08 27 0A 56 D0  0E 01 05 1C 20 80 45 1A  ....'.V..... .E.
0160: 80 F0 FF FF 7F F0 FF FF  7F 66 64 6F 31 1B 80 55  .........fdo1..U
0170: 1A 80 F0 FF FF 7F F0 FF  FF 7F 66 64 6F 31 2A 0A  ..........fdo1*.
0180: F0 FF FF 7F 27 0A F0 FF  FF 7F 09 45 1A 80 F0 FF  ....'......E....
0190: FF 7F F0 FF FF 7F 66 64  69 31 1B 80 45 1C 80 F0  ......fdi1..E...
01A0: FF FF 7F F0 FF FF 7F 73  30 32 37 1B 80 1C 12 80  .......s027.....
01B0: 4A 2D D0 0E 01 F0 FF FF  7F 1C 23 80 27 0A E3 D0  J-........#.'...
01C0: 0E 01 02 00                                       ....            
```

#### Opcodes

```
  0: 0x006F [0x1C] WAIT(5* ticks)
  1: 0x0072 [0x27] REQ_SET(priority=0x0A, entity_id=LocalPlayer, tag_num=0x06)
  2: 0x0079 [0x2B] Naji (ID: 17748013/0x010ED02D) [7623*]:
    → "I don't know if the missions you've been on so far were tough for you..."
  3: 0x0080 [0x23] WAIT_FOR_DIALOG_INTERACTION
  4: 0x0081 [0x2B] Naji (ID: 17748013/0x010ED02D) [7624*]:
    → "But this time, I'm sure it's going to be a real challenge."
  5: 0x0088 [0x23] WAIT_FOR_DIALOG_INTERACTION
  6: 0x0089 [0x2A] GET_REQ_LEVEL(level=10, entity_id=Naji (ID: 17748013/0x010ED02D))
  7: 0x008F [0x45] LOAD_SCHEDULED_TASK: Load scheduler "fdo1" with entities [LocalPlayer, LocalPlayer], work=[200*, 0*]
  8: 0x00A0 [0x55] WAIT_LOAD_SCHEDULER: Wait for scheduler "s025" with entities [LocalPlayer, LocalPlayer], work=137*
  9: 0x00AF [0x55] WAIT_LOAD_SCHEDULER: Wait for scheduler "fdo1" with entities [LocalPlayer, LocalPlayer], work=200*
 10: 0x00BE [0x2A] GET_REQ_LEVEL(level=10, entity_id=LocalPlayer)
 11: 0x00C4 [0x27] REQ_SET(priority=0x0A, entity_id=Naji (ID: 17748013/0x010ED02D), tag_num=0x0A)
 12: 0x00CB [0x1C] WAIT(10* ticks)
 13: 0x00CE [0x27] REQ_SET(priority=0x0A, entity_id=LocalPlayer, tag_num=0x07)
 14: 0x00D5 [0x45] LOAD_SCHEDULED_TASK: Load scheduler "s026" with entities [LocalPlayer, LocalPlayer], work=[137*, 0*]
 15: 0x00E6 [0x45] LOAD_SCHEDULED_TASK: Load scheduler "fdi1" with entities [LocalPlayer, LocalPlayer], work=[200*, 0*]
 16: 0x00F7 [0x2B] Naji (ID: 17748013/0x010ED02D) [7625*]:
    → "I mean, you're going to have to go to both San d'Oria and Windurst..."
 17: 0x00FE [0x23] WAIT_FOR_DIALOG_INTERACTION
 18: 0x00FF [0x2B] Naji (ID: 17748013/0x010ED02D) [7626*]:
    → "It's not like going somewhere nearby, like Gustaberg or the Konschtat Highlands. You'll have to travel by sea, too."
 19: 0x0106 [0x23] WAIT_FOR_DIALOG_INTERACTION
 20: 0x0107 [0x1C] WAIT(30* ticks)
 21: 0x010A [0x2A] GET_REQ_LEVEL(level=10, entity_id=Naji (ID: 17748013/0x010ED02D))
 22: 0x0110 [0x4A] Naji (ID: 17748013/0x010ED02D) looks at LocalPlayer
 23: 0x0119 [0x2B] Naji (ID: 17748013/0x010ED02D) [7627*]:
    → "This is the President's Room. Remember to be polite."
 24: 0x0120 [0x23] WAIT_FOR_DIALOG_INTERACTION
 25: 0x0121 [0x66] LOAD_EXT_SCHEDULER_MAIN: Load scheduler "tlk0" with entities [Naji (ID: 17748013/0x010ED02D), Naji (ID: 17748013/0x010ED02D)], work=0*
 26: 0x0130 [0x2B] Naji (ID: 17748013/0x010ED02D) [7628*]:
    → "(Oh, and make sure you don't say anything that might offend him... He's really touchy.)"
 27: 0x0137 [0x23] WAIT_FOR_DIALOG_INTERACTION
 28: 0x0138 [0x66] LOAD_EXT_SCHEDULER_MAIN: Load scheduler "ten0" with entities [Naji (ID: 17748013/0x010ED02D), Naji (ID: 17748013/0x010ED02D)], work=0*
 29: 0x0147 [0x2A] GET_REQ_LEVEL(level=10, entity_id=Naji (ID: 17748013/0x010ED02D))
 30: 0x014D [0x27] REQ_SET(priority=0x0A, entity_id=LocalPlayer, tag_num=0x08)
 31: 0x0154 [0x27] REQ_SET(priority=0x0A, entity_id=Door:President's Office (ID: 17748054/0x010ED056), tag_num=0x05)
 32: 0x015B [0x1C] WAIT(30* ticks)
 33: 0x015E [0x45] LOAD_SCHEDULED_TASK: Load scheduler "fdo1" with entities [LocalPlayer, LocalPlayer], work=[200*, 0*]
 34: 0x016F [0x55] WAIT_LOAD_SCHEDULER: Wait for scheduler "fdo1" with entities [LocalPlayer, LocalPlayer], work=200*
 35: 0x017E [0x2A] GET_REQ_LEVEL(level=10, entity_id=LocalPlayer)
 36: 0x0184 [0x27] REQ_SET(priority=0x0A, entity_id=LocalPlayer, tag_num=0x09)
 37: 0x018B [0x45] LOAD_SCHEDULED_TASK: Load scheduler "fdi1" with entities [LocalPlayer, LocalPlayer], work=[200*, 0*]
 38: 0x019C [0x45] LOAD_SCHEDULED_TASK: Load scheduler "s027" with entities [LocalPlayer, LocalPlayer], work=[137*, 0*]
 39: 0x01AD [0x1C] WAIT(120* ticks)
 40: 0x01B0 [0x4A] Naji (ID: 17748013/0x010ED02D) looks at LocalPlayer
 41: 0x01B9 [0x1C] WAIT(240* ticks)
 42: 0x01BC [0x27] REQ_SET(priority=0x0A, entity_id=??? (ID: 17748195/0x010ED0E3), tag_num=0x02)
 43: 0x01C3 [0x00] END_REQSTACK()
```

### Event 65535.6

#### Metadata

| Field        | Value    |
|--------------|----------|
| Entrypoint   | 0x01C4   |
| Data Size    | 19 bytes |
| Instructions | 5        |

```
      00 01 02 03 04 05 06 07  08 09 0A 0B 0C 0D 0E 0F
      -- -- -- -- -- -- -- --  -- -- -- -- -- -- -- --
01C0:             32 05 80 1F  00 24 80 25 80 26 80 1F      2....$.%.&..
01D0: 01 1E F0 FF FF 7F 00                              .......         
```

#### Opcodes

```
  0: 0x01C4 [0x32] ExtData[1]->MainSpeed = 13* * 0.1
  1: 0x01C7 [0x1F] MOVE_ENTITY: EventEntity moves to X=103.666*, Z=1.863*, Y=-20.181*
  2: 0x01CF [0x1F] MOVE_ENTITY: Update entity position (mode=1)
  3: 0x01D1 [0x1E] EventEntity looks at LocalPlayer and starts talking
  4: 0x01D6 [0x00] END_REQSTACK()
```

### Event 65535.7

#### Metadata

| Field        | Value    |
|--------------|----------|
| Entrypoint   | 0x01D7   |
| Data Size    | 19 bytes |
| Instructions | 5        |

```
      00 01 02 03 04 05 06 07  08 09 0A 0B 0C 0D 0E 0F
      -- -- -- -- -- -- -- --  -- -- -- -- -- -- -- --
01D0:                      32  05 80 1F 00 27 80 28 80         2....'.(.
01E0: 10 80 1F 01 1E 2A D0 0E  01 00                    .....*....      
```

#### Opcodes

```
  0: 0x01D7 [0x32] ExtData[1]->MainSpeed = 13* * 0.1
  1: 0x01DA [0x1F] MOVE_ENTITY: EventEntity moves to X=104.958*, Z=1.301*, Y=-20.170*
  2: 0x01E2 [0x1F] MOVE_ENTITY: Update entity position (mode=1)
  3: 0x01E4 [0x1E] EventEntity looks at Karst (ID: 17748010/0x010ED02A) and starts talking
  4: 0x01E9 [0x00] END_REQSTACK()
```

### Event 714

#### Metadata

| Field        | Value    |
|--------------|----------|
| Entrypoint   | 0x01EA   |
| Data Size    | 10 bytes |
| Instructions | 2        |

```
      00 01 02 03 04 05 06 07  08 09 0A 0B 0C 0D 0E 0F
      -- -- -- -- -- -- -- --  -- -- -- -- -- -- -- --
01E0:                                37 29 80 2A 80 2B            7).*.+
01F0: 80 2C 80 00                                       .,..            
```

#### Opcodes

```
  0: 0x01EA [0x37] UPDATE_EVENT_POSITION_AND_DIR: x=88.812*, z=5.442*, y=-20.168*, direction=126.2°*
  1: 0x01F3 [0x00] END_REQSTACK()
```

### Event 65535.8

#### Metadata

| Field        | Value    |
|--------------|----------|
| Entrypoint   | 0x01F4   |
| Data Size    | 19 bytes |
| Instructions | 5        |

```
      00 01 02 03 04 05 06 07  08 09 0A 0B 0C 0D 0E 0F
      -- -- -- -- -- -- -- --  -- -- -- -- -- -- -- --
01F0:             32 05 80 1F  00 2D 80 2E 80 2F 80 1F      2....-.../..
0200: 01 1E F0 FF FF 7F 00                              .......         
```

#### Opcodes

```
  0: 0x01F4 [0x32] ExtData[1]->MainSpeed = 13* * 0.1
  1: 0x01F7 [0x1F] MOVE_ENTITY: EventEntity moves to X=90.764*, Z=1.138*, Y=-19.532*
  2: 0x01FF [0x1F] MOVE_ENTITY: Update entity position (mode=1)
  3: 0x0201 [0x1E] EventEntity looks at LocalPlayer and starts talking
  4: 0x0206 [0x00] END_REQSTACK()
```

### Event 65535.9

#### Metadata

| Field        | Value    |
|--------------|----------|
| Entrypoint   | 0x0207   |
| Data Size    | 37 bytes |
| Instructions | 7        |

```
      00 01 02 03 04 05 06 07  08 09 0A 0B 0C 0D 0E 0F
      -- -- -- -- -- -- -- --  -- -- -- -- -- -- -- --
0200:                      32  05 80 1F 00 30 80 31 80         2....0.1.
0210: 2F 80 1F 01 1E F0 FF FF  7F 1C 14 80 66 1B 80 18  /...........f...
0220: D0 0E 01 18 D0 0E 01 74  6C 6B 30 00              .......tlk0.    
```

#### Opcodes

```
  0: 0x0207 [0x32] ExtData[1]->MainSpeed = 13* * 0.1
  1: 0x020A [0x1F] MOVE_ENTITY: EventEntity moves to X=90.400*, Z=0.700*, Y=-19.532*
  2: 0x0212 [0x1F] MOVE_ENTITY: Update entity position (mode=1)
  3: 0x0214 [0x1E] EventEntity looks at LocalPlayer and starts talking
  4: 0x0219 [0x1C] WAIT(20* ticks)
  5: 0x021C [0x66] LOAD_EXT_SCHEDULER_MAIN: Load scheduler "tlk0" with entities [Lucius (ID: 17747992/0x010ED018), Lucius (ID: 17747992/0x010ED018)], work=0*
  6: 0x022B [0x00] END_REQSTACK()
```

### Event 322

#### Metadata

| Field        | Value   |
|--------------|---------|
| Entrypoint   | 0x022C  |
| Data Size    | 1 bytes |
| Instructions | 1       |

```
      00 01 02 03 04 05 06 07  08 09 0A 0B 0C 0D 0E 0F
      -- -- -- -- -- -- -- --  -- -- -- -- -- -- -- --
0220:                                      00                       .   
```

#### Opcodes

```
  0: 0x022C [0x00] END_REQSTACK()
```

### Event 65535.10

#### Metadata

| Field        | Value    |
|--------------|----------|
| Entrypoint   | 0x022D   |
| Data Size    | 49 bytes |
| Instructions | 10       |

```
      00 01 02 03 04 05 06 07  08 09 0A 0B 0C 0D 0E 0F
      -- -- -- -- -- -- -- --  -- -- -- -- -- -- -- --
0220:                                         32 05 80               2..
0230: 1F 00 32 80 33 80 34 80  1F 01 1F 00 35 80 36 80  ..2.3.4.....5.6.
0240: 34 80 1F 01 79 00 F0 FF  FF 7F F8 FF FF 7F 1F 00  4...y...........
0250: 37 80 38 80 34 80 1F 01  1E F0 FF FF 7F 00        7.8.4.........  
```

#### Opcodes

```
  0: 0x022D [0x32] ExtData[1]->MainSpeed = 13* * 0.1
  1: 0x0230 [0x1F] MOVE_ENTITY: EventEntity moves to X=58.195*, Z=-43.102*, Y=-16.390*
  2: 0x0238 [0x1F] MOVE_ENTITY: Update entity position (mode=1)
  3: 0x023A [0x1F] MOVE_ENTITY: EventEntity moves to X=57.163*, Z=-43.182*, Y=-16.390*
  4: 0x0242 [0x1F] MOVE_ENTITY: Update entity position (mode=1)
  5: 0x0244 [0x79] LocalPlayer looks at EventEntity (Basic look)
  6: 0x024E [0x1F] MOVE_ENTITY: EventEntity moves to X=56.590*, Z=-42.712*, Y=-16.390*
  7: 0x0256 [0x1F] MOVE_ENTITY: Update entity position (mode=1)
  8: 0x0258 [0x1E] EventEntity looks at LocalPlayer and starts talking
  9: 0x025D [0x00] END_REQSTACK()
```

### Event 720

#### Metadata

| Field        | Value    |
|--------------|----------|
| Entrypoint   | 0x025E   |
| Data Size    | 10 bytes |
| Instructions | 2        |

```
      00 01 02 03 04 05 06 07  08 09 0A 0B 0C 0D 0E 0F
      -- -- -- -- -- -- -- --  -- -- -- -- -- -- -- --
0250:                                            37 39                79
0260: 80 3A 80 10 80 3B 80 00                           .:...;..        
```

#### Opcodes

```
  0: 0x025E [0x37] UPDATE_EVENT_POSITION_AND_DIR: x=112.267*, z=4.714*, y=-20.170*, direction=182.1°*
  1: 0x0267 [0x00] END_REQSTACK()
```

### Event 65535.11

#### Metadata

| Field        | Value    |
|--------------|----------|
| Entrypoint   | 0x0268   |
| Data Size    | 30 bytes |
| Instructions | 7        |

```
      00 01 02 03 04 05 06 07  08 09 0A 0B 0C 0D 0E 0F
      -- -- -- -- -- -- -- --  -- -- -- -- -- -- -- --
0260:                          22 00 32 05 80 37 3C 80          ".2..7<.
0270: 3D 80 10 80 3B 80 1F 00  3E 80 3F 80 10 80 1F 01  =...;...>.?.....
0280: 1E 2E D0 0E 01 00                                 ......          
```

#### Opcodes

```
  0: 0x0268 [0x22] ENTITY_HIDE_FLAG(enabled=0x00)
  1: 0x026A [0x32] ExtData[1]->MainSpeed = 13* * 0.1
  2: 0x026D [0x37] UPDATE_EVENT_POSITION_AND_DIR: x=109.267*, z=5.014*, y=-20.170*, direction=182.1°*
  3: 0x0276 [0x1F] MOVE_ENTITY: EventEntity moves to X=102.415*, Z=4.173*, Y=-20.170*
  4: 0x027E [0x1F] MOVE_ENTITY: Update entity position (mode=1)
  5: 0x0280 [0x1E] EventEntity looks at Volker (ID: 17748014/0x010ED02E) and starts talking
  6: 0x0285 [0x00] END_REQSTACK()
```

### Event 65535.12

#### Metadata

| Field        | Value    |
|--------------|----------|
| Entrypoint   | 0x0286   |
| Data Size    | 19 bytes |
| Instructions | 5        |

```
      00 01 02 03 04 05 06 07  08 09 0A 0B 0C 0D 0E 0F
      -- -- -- -- -- -- -- --  -- -- -- -- -- -- -- --
0280:                   32 05  80 1F 00 40 80 41 80 26        2....@.A.&
0290: 80 1F 01 1E F0 FF FF 7F  00                       .........       
```

#### Opcodes

```
  0: 0x0286 [0x32] ExtData[1]->MainSpeed = 13* * 0.1
  1: 0x0289 [0x1F] MOVE_ENTITY: EventEntity moves to X=97.800*, Z=1.214*, Y=-20.181*
  2: 0x0291 [0x1F] MOVE_ENTITY: Update entity position (mode=1)
  3: 0x0293 [0x1E] EventEntity looks at LocalPlayer and starts talking
  4: 0x0298 [0x00] END_REQSTACK()
```

### Event 721

#### Metadata

| Field        | Value    |
|--------------|----------|
| Entrypoint   | 0x0299   |
| Data Size    | 12 bytes |
| Instructions | 3        |

```
      00 01 02 03 04 05 06 07  08 09 0A 0B 0C 0D 0E 0F
      -- -- -- -- -- -- -- --  -- -- -- -- -- -- -- --
0290:                             22 00 37 42 80 43 80           ".7B.C.
02A0: 44 80 45 80 00                                    D.E..           
```

#### Opcodes

```
  0: 0x0299 [0x22] ENTITY_HIDE_FLAG(enabled=0x00)
  1: 0x029B [0x37] UPDATE_EVENT_POSITION_AND_DIR: x=106.347*, z=10.947*, y=-20.178*, direction=354.3°*
  2: 0x02A4 [0x00] END_REQSTACK()
```

### Event 65535.13

#### Metadata

| Field        | Value    |
|--------------|----------|
| Entrypoint   | 0x02A5   |
| Data Size    | 30 bytes |
| Instructions | 6        |

```
      00 01 02 03 04 05 06 07  08 09 0A 0B 0C 0D 0E 0F
      -- -- -- -- -- -- -- --  -- -- -- -- -- -- -- --
02A0:                32 05 80  1F 00 46 80 47 80 44 80       2....F.G.D.
02B0: 1F 01 6F 66 1B 80 F8 FF  FF 7F F8 FF FF 7F 70 61  ..of..........pa
02C0: 73 30 00                                          s0.             
```

#### Opcodes

```
  0: 0x02A5 [0x32] ExtData[1]->MainSpeed = 13* * 0.1
  1: 0x02A8 [0x1F] MOVE_ENTITY: EventEntity moves to X=107.647*, Z=10.660*, Y=-20.178*
  2: 0x02B0 [0x1F] MOVE_ENTITY: Update entity position (mode=1)
  3: 0x02B2 [0x6F] WAIT_FRAME_DELAY: Yield until WaitTime reaches zero
  4: 0x02B3 [0x66] LOAD_EXT_SCHEDULER_MAIN: Load scheduler "pas0" with entities [EventEntity, EventEntity], work=0*
  5: 0x02C2 [0x00] END_REQSTACK()
```

### Event 722

#### Metadata

| Field        | Value    |
|--------------|----------|
| Entrypoint   | 0x02C3   |
| Data Size    | 10 bytes |
| Instructions | 2        |

```
      00 01 02 03 04 05 06 07  08 09 0A 0B 0C 0D 0E 0F
      -- -- -- -- -- -- -- --  -- -- -- -- -- -- -- --
02C0:          37 48 80 49 80  10 80 4A 80 00              7H.I...J..   
```

#### Opcodes

```
  0: 0x02C3 [0x37] UPDATE_EVENT_POSITION_AND_DIR: x=105.323*, z=2.493*, y=-20.170*, direction=123.3°*
  1: 0x02CC [0x00] END_REQSTACK()
```

### Event 603

#### Metadata

| Field        | Value    |
|--------------|----------|
| Entrypoint   | 0x02CD   |
| Data Size    | 12 bytes |
| Instructions | 3        |

```
      00 01 02 03 04 05 06 07  08 09 0A 0B 0C 0D 0E 0F
      -- -- -- -- -- -- -- --  -- -- -- -- -- -- -- --
02C0:                                         22 01 37               ".7
02D0: 4B 80 4C 80 26 80 4D 80  00                       K.L.&.M..       
```

#### Opcodes

```
  0: 0x02CD [0x22] ENTITY_HIDE_FLAG(enabled=0x01)
  1: 0x02CF [0x37] UPDATE_EVENT_POSITION_AND_DIR: x=99.399*, z=-1.500*, y=-20.181*, direction=350.0°*
  2: 0x02D8 [0x00] END_REQSTACK()
```

### Event 65535.14

#### Metadata

| Field        | Value    |
|--------------|----------|
| Entrypoint   | 0x02D9   |
| Data Size    | 36 bytes |
| Instructions | 9        |

```
      00 01 02 03 04 05 06 07  08 09 0A 0B 0C 0D 0E 0F
      -- -- -- -- -- -- -- --  -- -- -- -- -- -- -- --
02D0:                             86 01 F8 FF FF 7F 39           ......9
02E0: 4E 80 22 00 32 05 80 1F  00 4F 80 4C 80 2B 80 1F  N.".2....O.L.+..
02F0: 01 86 00 F8 FF FF 7F 1E  2E D0 0E 01 00           .............   
```

#### Opcodes

```
  0: 0x02D9 [0x86] EventEntity->Render.Flags3 ^= 0x01
  1: 0x02DF [0x39] SET_ENTITY_DIRECTION(direction=22.4°*)
  2: 0x02E2 [0x22] ENTITY_HIDE_FLAG(enabled=0x00)
  3: 0x02E4 [0x32] ExtData[1]->MainSpeed = 13* * 0.1
  4: 0x02E7 [0x1F] MOVE_ENTITY: EventEntity moves to X=102.761*, Z=-1.500*, Y=-20.168*
  5: 0x02EF [0x1F] MOVE_ENTITY: Update entity position (mode=1)
  6: 0x02F1 [0x86] EventEntity->Render.Flags3 = Flags3  // No change (flag=0)
  7: 0x02F7 [0x1E] EventEntity looks at Volker (ID: 17748014/0x010ED02E) and starts talking
  8: 0x02FC [0x00] END_REQSTACK()
```

### Event 65535.15

#### Metadata

| Field        | Value    |
|--------------|----------|
| Entrypoint   | 0x02FD   |
| Data Size    | 45 bytes |
| Instructions | 9        |

```
      00 01 02 03 04 05 06 07  08 09 0A 0B 0C 0D 0E 0F
      -- -- -- -- -- -- -- --  -- -- -- -- -- -- -- --
02F0:                                         32 05 80               2..
0300: 1E F0 FF FF 7F 1F 00 50  80 51 80 2B 80 1F 01 6F  .......P.Q.+...o
0310: 66 1B 80 F8 FF FF 7F F8  FF FF 7F 70 61 73 30 1C  f..........pas0.
0320: 1D 80 27 0A F0 FF FF 7F  18 00                    ..'.......      
```

#### Opcodes

```
  0: 0x02FD [0x32] ExtData[1]->MainSpeed = 13* * 0.1
  1: 0x0300 [0x1E] EventEntity looks at LocalPlayer and starts talking
  2: 0x0305 [0x1F] MOVE_ENTITY: EventEntity moves to X=102.550*, Z=-0.912*, Y=-20.168*
  3: 0x030D [0x1F] MOVE_ENTITY: Update entity position (mode=1)
  4: 0x030F [0x6F] WAIT_FRAME_DELAY: Yield until WaitTime reaches zero
  5: 0x0310 [0x66] LOAD_EXT_SCHEDULER_MAIN: Load scheduler "pas0" with entities [EventEntity, EventEntity], work=0*
  6: 0x031F [0x1C] WAIT(10* ticks)
  7: 0x0322 [0x27] REQ_SET(priority=0x0A, entity_id=LocalPlayer, tag_num=0x18)
  8: 0x0329 [0x00] END_REQSTACK()
```

### Event 65535.16

#### Metadata

| Field        | Value    |
|--------------|----------|
| Entrypoint   | 0x032A   |
| Data Size    | 28 bytes |
| Instructions | 6        |

```
      00 01 02 03 04 05 06 07  08 09 0A 0B 0C 0D 0E 0F
      -- -- -- -- -- -- -- --  -- -- -- -- -- -- -- --
0320:                                32 05 80 37 52 80            2..7R.
0330: 53 80 54 80 55 80 1F 00  56 80 53 80 54 80 1F 01  S.T.U...V.S.T...
0340: 1E 2B D0 0E 01 00                                 .+....          
```

#### Opcodes

```
  0: 0x032A [0x32] ExtData[1]->MainSpeed = 13* * 0.1
  1: 0x032D [0x37] UPDATE_EVENT_POSITION_AND_DIR: x=86.000*, z=1.000*, y=-19.531*, direction=162.7°*
  2: 0x0336 [0x1F] MOVE_ENTITY: EventEntity moves to X=78.000*, Z=1.000*, Y=-19.531*
  3: 0x033E [0x1F] MOVE_ENTITY: Update entity position (mode=1)
  4: 0x0340 [0x1E] EventEntity looks at Cid (ID: 17748011/0x010ED02B) and starts talking
  5: 0x0345 [0x00] END_REQSTACK()
```

### Event 1010

#### Metadata

| Field        | Value   |
|--------------|---------|
| Entrypoint   | 0x0346  |
| Data Size    | 1 bytes |
| Instructions | 1       |

```
      00 01 02 03 04 05 06 07  08 09 0A 0B 0C 0D 0E 0F
      -- -- -- -- -- -- -- --  -- -- -- -- -- -- -- --
0340:                   00                                    .         
```

#### Opcodes

```
  0: 0x0346 [0x00] END_REQSTACK()
```

### Event 65535.17

#### Metadata

| Field        | Value    |
|--------------|----------|
| Entrypoint   | 0x0347   |
| Data Size    | 45 bytes |
| Instructions | 10       |

```
      00 01 02 03 04 05 06 07  08 09 0A 0B 0C 0D 0E 0F
      -- -- -- -- -- -- -- --  -- -- -- -- -- -- -- --
0340:                      32  05 80 37 57 80 58 80 59         2..7W.X.Y
0350: 80 5A 80 1F 00 5B 80 5C  80 08 80 1F 01 6F 4A 18  .Z...[.\.....oJ.
0360: D0 0E 01 F0 FF FF 7F 79  00 18 D0 0E 01 2D D0 0E  .......y.....-..
0370: 01 6F 70 00                                       .op.            
```

#### Opcodes

```
  0: 0x0347 [0x32] ExtData[1]->MainSpeed = 13* * 0.1
  1: 0x034A [0x37] UPDATE_EVENT_POSITION_AND_DIR: x=70.588*, z=1.679*, y=-16.121*, direction=190.1°*
  2: 0x0353 [0x1F] MOVE_ENTITY: EventEntity moves to X=65.250*, Z=1.899*, Y=-14.000*
  3: 0x035B [0x1F] MOVE_ENTITY: Update entity position (mode=1)
  4: 0x035D [0x6F] WAIT_FRAME_DELAY: Yield until WaitTime reaches zero
  5: 0x035E [0x4A] Lucius (ID: 17747992/0x010ED018) looks at LocalPlayer
  6: 0x0367 [0x79] Lucius (ID: 17747992/0x010ED018) looks at Naji (ID: 17748013/0x010ED02D) (Basic look)
  7: 0x0371 [0x6F] WAIT_FRAME_DELAY: Yield until WaitTime reaches zero
  8: 0x0372 [0x70] WAIT_ENTITY_RENDER_FLAG: Wait while EventEntity->Render.Flags3 bit 2 is set (cancel turn if not)
  9: 0x0373 [0x00] END_REQSTACK()
```

### Event 65535.18

#### Metadata

| Field        | Value    |
|--------------|----------|
| Entrypoint   | 0x0374   |
| Data Size    | 14 bytes |
| Instructions | 4        |

```
      00 01 02 03 04 05 06 07  08 09 0A 0B 0C 0D 0E 0F
      -- -- -- -- -- -- -- --  -- -- -- -- -- -- -- --
0370:             32 05 80 1F  00 5D 80 5E 80 0D 80 1F      2....].^....
0380: 01 00                                             ..              
```

#### Opcodes

```
  0: 0x0374 [0x32] ExtData[1]->MainSpeed = 13* * 0.1
  1: 0x0377 [0x1F] MOVE_ENTITY: EventEntity moves to X=57.883*, Z=-6.725*, Y=-13.999*
  2: 0x037F [0x1F] MOVE_ENTITY: Update entity position (mode=1)
  3: 0x0381 [0x00] END_REQSTACK()
```

### Event 65535.19

#### Metadata

| Field        | Value    |
|--------------|----------|
| Entrypoint   | 0x0382   |
| Data Size    | 34 bytes |
| Instructions | 7        |

```
      00 01 02 03 04 05 06 07  08 09 0A 0B 0C 0D 0E 0F
      -- -- -- -- -- -- -- --  -- -- -- -- -- -- -- --
0380:       32 05 80 79 00 F8  FF FF 7F 31 D0 0E 01 37    2..y.....1...7
0390: 5F 80 60 80 0D 80 61 80  1F 00 62 80 63 80 0D 80  _.`...a...b.c...
03A0: 1F 01 6F 00                                       ..o.            
```

#### Opcodes

```
  0: 0x0382 [0x32] ExtData[1]->MainSpeed = 13* * 0.1
  1: 0x0385 [0x79] EventEntity looks at Malduc (ID: 17748017/0x010ED031) (Basic look)
  2: 0x038F [0x37] UPDATE_EVENT_POSITION_AND_DIR: x=59.371*, z=1.070*, y=-13.999*, direction=276.2°*
  3: 0x0398 [0x1F] MOVE_ENTITY: EventEntity moves to X=64.298*, Z=2.554*, Y=-13.999*
  4: 0x03A0 [0x1F] MOVE_ENTITY: Update entity position (mode=1)
  5: 0x03A2 [0x6F] WAIT_FRAME_DELAY: Yield until WaitTime reaches zero
  6: 0x03A3 [0x00] END_REQSTACK()
```

### Event 776

#### Metadata

| Field        | Value   |
|--------------|---------|
| Entrypoint   | 0x03A4  |
| Data Size    | 1 bytes |
| Instructions | 1       |

```
      00 01 02 03 04 05 06 07  08 09 0A 0B 0C 0D 0E 0F
      -- -- -- -- -- -- -- --  -- -- -- -- -- -- -- --
03A0:             00                                        .           
```

#### Opcodes

```
  0: 0x03A4 [0x00] END_REQSTACK()
```

### Event 65535.20

#### Metadata

| Field        | Value    |
|--------------|----------|
| Entrypoint   | 0x03A5   |
| Data Size    | 51 bytes |
| Instructions | 12       |

```
      00 01 02 03 04 05 06 07  08 09 0A 0B 0C 0D 0E 0F
      -- -- -- -- -- -- -- --  -- -- -- -- -- -- -- --
03A0:                32 05 80  79 00 18 D0 0E 01 1D D0       2..y.......
03B0: 0E 01 37 64 80 65 80 10  80 66 80 1F 00 67 80 68  ..7d.e...f...g.h
03C0: 80 10 80 1F 01 1F 00 69  80 6A 80 6B 80 1F 01 6F  .......i.j.k...o
03D0: 1E 1D D0 0E 01 6F 70 00                           .....op.        
```

#### Opcodes

```
  0: 0x03A5 [0x32] ExtData[1]->MainSpeed = 13* * 0.1
  1: 0x03A8 [0x79] Lucius (ID: 17747992/0x010ED018) looks at Alois (ID: 17747997/0x010ED01D) (Basic look)
  2: 0x03B2 [0x37] UPDATE_EVENT_POSITION_AND_DIR: x=95.373*, z=9.686*, y=-20.170*, direction=7.6°*
  3: 0x03BB [0x1F] MOVE_ENTITY: EventEntity moves to X=98.323*, Z=10.330*, Y=-20.170*
  4: 0x03C3 [0x1F] MOVE_ENTITY: Update entity position (mode=1)
  5: 0x03C5 [0x1F] MOVE_ENTITY: EventEntity moves to X=98.509*, Z=12.093*, Y=-20.185*
  6: 0x03CD [0x1F] MOVE_ENTITY: Update entity position (mode=1)
  7: 0x03CF [0x6F] WAIT_FRAME_DELAY: Yield until WaitTime reaches zero
  8: 0x03D0 [0x1E] EventEntity looks at Alois (ID: 17747997/0x010ED01D) and starts talking
  9: 0x03D5 [0x6F] WAIT_FRAME_DELAY: Yield until WaitTime reaches zero
 10: 0x03D6 [0x70] WAIT_ENTITY_RENDER_FLAG: Wait while EventEntity->Render.Flags3 bit 2 is set (cancel turn if not)
 11: 0x03D7 [0x00] END_REQSTACK()
```

### Event 65535.21

#### Metadata

| Field        | Value    |
|--------------|----------|
| Entrypoint   | 0x03D8   |
| Data Size    | 14 bytes |
| Instructions | 4        |

```
      00 01 02 03 04 05 06 07  08 09 0A 0B 0C 0D 0E 0F
      -- -- -- -- -- -- -- --  -- -- -- -- -- -- -- --
03D0:                          32 05 80 1F 00 67 80 68          2....g.h
03E0: 80 10 80 1F 01 00                                 ......          
```

#### Opcodes

```
  0: 0x03D8 [0x32] ExtData[1]->MainSpeed = 13* * 0.1
  1: 0x03DB [0x1F] MOVE_ENTITY: EventEntity moves to X=98.323*, Z=10.330*, Y=-20.170*
  2: 0x03E3 [0x1F] MOVE_ENTITY: Update entity position (mode=1)
  3: 0x03E5 [0x00] END_REQSTACK()
```

### Event 782

#### Metadata

| Field        | Value    |
|--------------|----------|
| Entrypoint   | 0x03E6   |
| Data Size    | 10 bytes |
| Instructions | 2        |

```
      00 01 02 03 04 05 06 07  08 09 0A 0B 0C 0D 0E 0F
      -- -- -- -- -- -- -- --  -- -- -- -- -- -- -- --
03E0:                   37 6C  80 6D 80 10 80 6E 80 00        7l.m...n..
```

#### Opcodes

```
  0: 0x03E6 [0x37] UPDATE_EVENT_POSITION_AND_DIR: x=103.796*, z=3.008*, y=-20.170*, direction=70.4°*
  1: 0x03EF [0x00] END_REQSTACK()
```

### Event 65535.22

#### Metadata

| Field        | Value    |
|--------------|----------|
| Entrypoint   | 0x03F0   |
| Data Size    | 39 bytes |
| Instructions | 7        |

```
      00 01 02 03 04 05 06 07  08 09 0A 0B 0C 0D 0E 0F
      -- -- -- -- -- -- -- --  -- -- -- -- -- -- -- --
03F0: 32 05 80 37 6F 80 70 80  26 80 71 80 1F 00 72 80  2..7o.p.&.q...r.
0400: 73 80 26 80 1F 01 6F 66  1B 80 F8 FF FF 7F F8 FF  s.&...of........
0410: FF 7F 70 61 73 30 00                              ..pas0.         
```

#### Opcodes

```
  0: 0x03F0 [0x32] ExtData[1]->MainSpeed = 13* * 0.1
  1: 0x03F3 [0x37] UPDATE_EVENT_POSITION_AND_DIR: x=101.467*, z=1.351*, y=-20.181*, direction=146.6°*
  2: 0x03FC [0x1F] MOVE_ENTITY: EventEntity moves to X=100.575*, Z=0.881*, Y=-20.181*
  3: 0x0404 [0x1F] MOVE_ENTITY: Update entity position (mode=1)
  4: 0x0406 [0x6F] WAIT_FRAME_DELAY: Yield until WaitTime reaches zero
  5: 0x0407 [0x66] LOAD_EXT_SCHEDULER_MAIN: Load scheduler "pas0" with entities [EventEntity, EventEntity], work=0*
  6: 0x0416 [0x00] END_REQSTACK()
```

### Event 65535.23

#### Metadata

| Field        | Value    |
|--------------|----------|
| Entrypoint   | 0x0417   |
| Data Size    | 20 bytes |
| Instructions | 3        |

```
      00 01 02 03 04 05 06 07  08 09 0A 0B 0C 0D 0E 0F
      -- -- -- -- -- -- -- --  -- -- -- -- -- -- -- --
0410:                      79  00 F8 FF FF 7F 32 D0 0E         y.....2..
0420: 01 37 74 80 75 80 34 80  76 80 00                 .7t.u.4.v..     
```

#### Opcodes

```
  0: 0x0417 [0x79] EventEntity looks at Cornelia (ID: 17748018/0x010ED032) (Basic look)
  1: 0x0421 [0x37] UPDATE_EVENT_POSITION_AND_DIR: x=59.888*, z=-42.050*, y=-16.390*, direction=324.9°*
  2: 0x042A [0x00] END_REQSTACK()
```

### Event 968

#### Metadata

| Field        | Value   |
|--------------|---------|
| Entrypoint   | 0x042B  |
| Data Size    | 1 bytes |
| Instructions | 1       |

```
      00 01 02 03 04 05 06 07  08 09 0A 0B 0C 0D 0E 0F
      -- -- -- -- -- -- -- --  -- -- -- -- -- -- -- --
0420:                                   00                         .    
```

#### Opcodes

```
  0: 0x042B [0x00] END_REQSTACK()
```

### Event 65535.24

#### Metadata

| Field        | Value    |
|--------------|----------|
| Entrypoint   | 0x042C   |
| Data Size    | 12 bytes |
| Instructions | 4        |

```
      00 01 02 03 04 05 06 07  08 09 0A 0B 0C 0D 0E 0F
      -- -- -- -- -- -- -- --  -- -- -- -- -- -- -- --
0420:                                      1F 00 77 80              ..w.
0430: 78 80 2F 80 1F 01 6F 00                           x./...o.        
```

#### Opcodes

```
  0: 0x042C [0x1F] MOVE_ENTITY: EventEntity moves to X=89.042*, Z=-0.116*, Y=-19.532*
  1: 0x0434 [0x1F] MOVE_ENTITY: Update entity position (mode=1)
  2: 0x0436 [0x6F] WAIT_FRAME_DELAY: Yield until WaitTime reaches zero
  3: 0x0437 [0x00] END_REQSTACK()
```

### Event 65535.25

#### Metadata

| Field        | Value    |
|--------------|----------|
| Entrypoint   | 0x0438   |
| Data Size    | 11 bytes |
| Instructions | 3        |

```
      00 01 02 03 04 05 06 07  08 09 0A 0B 0C 0D 0E 0F
      -- -- -- -- -- -- -- --  -- -- -- -- -- -- -- --
0430:                          1F 00 79 80 7A 80 10 80          ..y.z...
0440: 1F 01 00                                          ...             
```

#### Opcodes

```
  0: 0x0438 [0x1F] MOVE_ENTITY: EventEntity moves to X=101.101*, Z=0.046*, Y=-20.170*
  1: 0x0440 [0x1F] MOVE_ENTITY: Update entity position (mode=1)
  2: 0x0442 [0x00] END_REQSTACK()
```

### Event 65535.26

#### Metadata

| Field        | Value    |
|--------------|----------|
| Entrypoint   | 0x0443   |
| Data Size    | 37 bytes |
| Instructions | 9        |

```
      00 01 02 03 04 05 06 07  08 09 0A 0B 0C 0D 0E 0F
      -- -- -- -- -- -- -- --  -- -- -- -- -- -- -- --
0440:          1F 00 7B 80 1B  80 2F 80 1F 01 6F 1E 30     ..{.../...o.0
0450: D0 0E 01 6F 70 1C 17 80  66 1B 80 18 D0 0E 01 18  ...op...f.......
0460: D0 0E 01 74 68 6B 31 00                           ...thk1.        
```

#### Opcodes

```
  0: 0x0443 [0x1F] MOVE_ENTITY: EventEntity moves to X=92.395*, Z=0.000*, Y=-19.532*
  1: 0x044B [0x1F] MOVE_ENTITY: Update entity position (mode=1)
  2: 0x044D [0x6F] WAIT_FRAME_DELAY: Yield until WaitTime reaches zero
  3: 0x044E [0x1E] EventEntity looks at Iron Eater (ID: 17748016/0x010ED030) and starts talking
  4: 0x0453 [0x6F] WAIT_FRAME_DELAY: Yield until WaitTime reaches zero
  5: 0x0454 [0x70] WAIT_ENTITY_RENDER_FLAG: Wait while EventEntity->Render.Flags3 bit 2 is set (cancel turn if not)
  6: 0x0455 [0x1C] WAIT(5* ticks)
  7: 0x0458 [0x66] LOAD_EXT_SCHEDULER_MAIN: Load scheduler "thk1" with entities [Lucius (ID: 17747992/0x010ED018), Lucius (ID: 17747992/0x010ED018)], work=0*
  8: 0x0467 [0x00] END_REQSTACK()
```

### Event 986

#### Metadata

| Field        | Value   |
|--------------|---------|
| Entrypoint   | 0x0468  |
| Data Size    | 1 bytes |
| Instructions | 1       |

```
      00 01 02 03 04 05 06 07  08 09 0A 0B 0C 0D 0E 0F
      -- -- -- -- -- -- -- --  -- -- -- -- -- -- -- --
0460:                          00                               .       
```

#### Opcodes

```
  0: 0x0468 [0x00] END_REQSTACK()
```
