# 17748196

## Common Data

| Field            | Value                |
|------------------|----------------------|
| Zone             | Metalworks (ID: 237) |
| Block Size       | 3836 bytes           |
| Total Events     | 4                    |
| References Count | 80                   |

## List of Events

| Event ID              | Entrypoint   |   Size |   Instructions |
|-----------------------|--------------|--------|----------------|
| [65535](#event-65535) | 0x0000       |      1 |              1 |
| [990](#event-990)     | 0x0001       |   1070 |            151 |
| [991](#event-991)     | 0x042F       |    760 |            108 |
| [992](#event-992)     | 0x0727       |   1650 |            227 |

## DAT References (imed_data)

|   Index | Hex Value   |   Dec Value |
|---------|-------------|-------------|
|       0 | 0x0001      |           1 |
|       1 | 0x1D07      |        7431 |
|       2 | 0x0000      |           0 |
|       3 | 0x1CFA      |        7418 |
|       4 | 0x00C8      |         200 |
|       5 | 0x0013      |          19 |
|       6 | 0x012C      |         300 |
|       7 | 0xFFFF3EA4  |  4294917796 |
|       8 | 0xFFFFD8F0  |  4294957296 |
|       9 | 0x007F      |         127 |
|      10 | 0xFFFF4868  |  4294920296 |
|      11 | 0xFFFFFE0C  |  4294966796 |
|      12 | 0x087F      |        2175 |
|      13 | 0x003C      |          60 |
|      14 | 0x030F      |         783 |
|      15 | 0x001E      |          30 |
|      16 | 0x0078      |         120 |
|      17 | 0x1CFB      |        7419 |
|      18 | 0x1CFC      |        7420 |
|      19 | 0x005A      |          90 |
|      20 | 0x000F      |          15 |
|      21 | 0x009F      |         159 |
|      22 | 0x1CFD      |        7421 |
|      23 | 0x2C71      |       11377 |
|      24 | 0x006E      |         110 |
|      25 | 0x1CFE      |        7422 |
|      26 | 0x1CFF      |        7423 |
|      27 | 0x1D00      |        7424 |
|      28 | 0x1D01      |        7425 |
|      29 | 0x1D02      |        7426 |
|      30 | 0x0005      |           5 |
|      31 | 0x0006      |           6 |
|      32 | 0x1D03      |        7427 |
|      33 | 0x1D04      |        7428 |
|      34 | 0x1D05      |        7429 |
|      35 | 0x003E      |          62 |
|      36 | 0x1D06      |        7430 |
|      37 | 0x009A      |         154 |
|      38 | 0x1D0E      |        7438 |
|      39 | 0x1D0C      |        7436 |
|      40 | 0x1D08      |        7432 |
|      41 | 0x0096      |         150 |
|      42 | 0x1D09      |        7433 |
|      43 | 0x1D0A      |        7434 |
|      44 | 0x1D0B      |        7435 |
|      45 | 0x000A      |          10 |
|      46 | 0x1D0D      |        7437 |
|      47 | 0x00B4      |         180 |
|      48 | 0x1D1D      |        7453 |
|      49 | 0x1D1E      |        7454 |
|      50 | 0x007C      |         124 |
|      51 | 0x0045      |          69 |
|      52 | 0x1D0F      |        7439 |
|      53 | 0x004B      |          75 |
|      54 | 0x00C9      |         201 |
|      55 | 0x0BD4      |        3028 |
|      56 | 0x0BD5      |        3029 |
|      57 | 0x1D10      |        7440 |
|      58 | 0x1D11      |        7441 |
|      59 | 0x1D12      |        7442 |
|      60 | 0x1D14      |        7444 |
|      61 | 0x1D15      |        7445 |
|      62 | 0x01E0      |         480 |
|      63 | 0x0004      |           4 |
|      64 | 0x1D16      |        7446 |
|      65 | 0x00F0      |         240 |
|      66 | 0x1D17      |        7447 |
|      67 | 0x1D18      |        7448 |
|      68 | 0x1D19      |        7449 |
|      69 | 0x1D1A      |        7450 |
|      70 | 0x1D1B      |        7451 |
|      71 | 0x1D1C      |        7452 |
|      72 | 0x0083      |         131 |
|      73 | 0x1D1F      |        7455 |
|      74 | 0x1D20      |        7456 |
|      75 | 0x1D21      |        7457 |
|      76 | 0x001A      |          26 |
|      77 | 0x1D22      |        7458 |
|      78 | 0x1122      |        4386 |
|      79 | 0x1D23      |        7459 |

## String References

- **7440**: You hand over the $3 and $3.
- **11377**: @@

## Events

### Event 65535

#### Metadata

| Field        | Value   |
|--------------|---------|
| Entrypoint   | 0x0000  |
| Data Size    | 1 bytes |
| Instructions | 1       |

```
      00 01 02 03 04 05 06 07  08 09 0A 0B 0C 0D 0E 0F
      -- -- -- -- -- -- -- --  -- -- -- -- -- -- -- --
0000: 00                                                .               
```

#### Opcodes

```
  0: 0x0000 [0x00] END_REQSTACK()
```

### Event 990

#### Metadata

| Field        | Value      |
|--------------|------------|
| Entrypoint   | 0x0001     |
| Data Size    | 1070 bytes |
| Instructions | 151        |

```
      00 01 02 03 04 05 06 07  08 09 0A 0B 0C 0D 0E 0F
      -- -- -- -- -- -- -- --  -- -- -- -- -- -- -- --
0000:    02 02 10 00 80 00 22  00 4A 2C D0 0E 01 F0 FF   ......".J,.....
0010: FF 7F 6F 76 2C D0 0E 01  2B 2C D0 0E 01 01 80 23  ..ov,...+,.....#
0020: 21 00 42 02 09 10 02 80  00 42 00 4A 2C D0 0E 01  !.B......B.J,...
0030: F0 FF FF 7F 6F 76 2C D0  0E 01 2B 2C D0 0E 01 03  ....ov,...+,....
0040: 80 23 5D 02 80 04 80 45  04 80 F0 FF FF 7F F0 FF  .#]....E........
0050: FF 7F 66 64 6F 31 02 80  55 04 80 F0 FF FF 7F F0  ..fdo1..U.......
0060: FF FF 7F 66 64 6F 31 46  01 38 05 80 75 00 06 80  ...fdo1F.8..u...
0070: 75 01 92 01 2B D0 0E 01  92 01 2C D0 0E 01 94 01  u...+.....,.....
0080: 2B D0 0E 01 94 01 2C D0  0E 01 94 01 F0 FF FF 7F  +.....,.........
0090: 6B 69 64 6C 30 2B D0 0E  01 BA 2C D0 0E 01 07 80  kidl0+....,.....
00A0: 02 80 08 80 09 80 BA F0  FF FF 7F 0A 80 0B 80 08  ................
00B0: 80 0C 80 4A 2C D0 0E 01  F0 FF FF 7F 4A F0 FF FF  ...J,.......J...
00C0: 7F 2C D0 0E 01 6F 76 2C  D0 0E 01 80 2C D0 0E 01  .,...ov,....,...
00D0: 1C 0D 80 45 04 80 F0 FF  FF 7F F0 FF FF 7F 66 64  ...E..........fd
00E0: 69 31 02 80 45 0E 80 F8  FF FF 7F F8 FF FF 7F 73  i1..E..........s
00F0: 30 30 30 02 80 1C 0F 80  27 10 F0 FF FF 7F B8 1C  000.....'.......
0100: 10 80 2A 10 F0 FF FF 7F  66 0D 80 2C D0 0E 01 2C  ..*.....f..,...,
0110: D0 0E 01 74 6C 6B 30 2B  2C D0 0E 01 11 80 1C 10  ...tlk0+,.......
0120: 80 23 66 0D 80 2C D0 0E  01 2C D0 0E 01 74 6C 6B  .#f..,...,...tlk
0130: 31 2B 2C D0 0E 01 12 80  23 1C 13 80 7B 2C D0 0E  1+,.....#...{,..
0140: 01 27 10 2C D0 0E 01 58  1C 14 80 52 0E 80 F8 FF  .'.,...X...R....
0150: FF 7F F8 FF FF 7F 73 30  30 30 45 0E 80 F8 FF FF  ......s000E.....
0160: 7F F8 FF FF 7F 73 30 30  31 02 80 5C 00 15 80 5C  .....s001..\...\
0170: 01 15 80 2A 10 2C D0 0E  01 1C 0F 80 2B 2C D0 0E  ...*.,......+,..
0180: 01 16 80 23 1C 13 80 52  0E 80 F8 FF FF 7F F8 FF  ...#...R........
0190: FF 7F 73 30 30 31 45 0E  80 F8 FF FF 7F F8 FF FF  ..s001E.........
01A0: 7F 73 30 30 32 02 80 48  17 80 1C 0D 80 23 5B 18  .s002..H.....#[.
01B0: 80 2B D0 0E 01 2B D0 0E  01 6B 61 6B 30 2B 2C D0  .+...+...kak0+,.
01C0: 0E 01 19 80 1C 10 80 23  5B 18 80 2B D0 0E 01 2B  .......#[..+...+
01D0: D0 0E 01 6B 61 6B 31 2B  2C D0 0E 01 1A 80 23 1C  ...kak1+,.....#.
01E0: 0D 80 2B 2C D0 0E 01 1B  80 23 5B 18 80 2B D0 0E  ..+,.....#[..+..
01F0: 01 2B D0 0E 01 74 68 6B  31 2B 2C D0 0E 01 1C 80  .+...thk1+,.....
0200: 23 48 17 80 1C 0D 80 23  52 0E 80 F8 FF FF 7F F8  #H.....#R.......
0210: FF FF 7F 73 30 30 32 45  0E 80 F8 FF FF 7F F8 FF  ...s002E........
0220: FF 7F 73 30 30 33 02 80  4A 2C D0 0E 01 F0 FF FF  ..s003..J,......
0230: 7F 6F 76 2C D0 0E 01 1C  0F 80 66 0D 80 2C D0 0E  .ov,......f..,..
0240: 01 2C D0 0E 01 74 6C 6B  30 2B 2C D0 0E 01 1D 80  .,...tlk0+,.....
0250: 1C 10 80 23 66 0D 80 2C  D0 0E 01 2C D0 0E 01 74  ...#f..,...,...t
0260: 6C 6B 31 52 0E 80 F8 FF  FF 7F F8 FF FF 7F 73 30  lk1R..........s0
0270: 30 33 02 87 7F 1E 80 80  8E 02 45 0E 80 F8 FF FF  03........E.....
0280: 7F F8 FF FF 7F 73 74 30  34 02 80 01 BB 02 02 87  .....st04.......
0290: 7F 1F 80 80 AA 02 45 0E  80 F8 FF FF 7F F8 FF FF  ......E.........
02A0: 7F 73 74 30 34 02 80 01  BB 02 45 0E 80 F8 FF FF  .st04.....E.....
02B0: 7F F8 FF FF 7F 73 30 30  34 02 80 27 10 F0 FF FF  .....s004..'....
02C0: 7F B8 1C 10 80 2A 10 F0  FF FF 7F 2B 2C D0 0E 01  .....*.....+,...
02D0: 20 80 23 1C 13 80 02 87  7F 1E 80 80 01 03 52 0E   .#...........R.
02E0: 80 F8 FF FF 7F F8 FF FF  7F 73 74 30 34 45 0E 80  .........st04E..
02F0: F8 FF FF 7F F8 FF FF 7F  73 74 30 35 02 80 01 4C  ........st05...L
0300: 03 02 87 7F 1F 80 80 2C  03 52 0E 80 F8 FF FF 7F  .......,.R......
0310: F8 FF FF 7F 73 74 30 34  45 0E 80 F8 FF FF 7F F8  ....st04E.......
0320: FF FF 7F 73 74 30 35 02  80 01 4C 03 52 0E 80 F8  ...st05...L.R...
0330: FF FF 7F F8 FF FF 7F 73  30 30 34 45 0E 80 F8 FF  .......s004E....
0340: FF 7F F8 FF FF 7F 73 30  30 35 02 80 2B 2C D0 0E  ......s005..+,..
0350: 01 21 80 23 1C 10 80 23  7B 2C D0 0E 01 02 87 7F  .!.#...#{,......
0360: 1E 80 80 77 03 52 0E 80  F8 FF FF 7F F8 FF FF 7F  ...w.R..........
0370: 73 74 30 35 01 A0 03 02  87 7F 1F 80 80 91 03 52  st05...........R
0380: 0E 80 F8 FF FF 7F F8 FF  FF 7F 73 74 30 35 01 A0  ..........st05..
0390: 03 52 0E 80 F8 FF FF 7F  F8 FF FF 7F 73 30 30 35  .R..........s005
03A0: 45 0E 80 F8 FF FF 7F F8  FF FF 7F 73 30 30 36 02  E..........s006.
03B0: 80 2B 2C D0 0E 01 22 80  23 66 23 80 2C D0 0E 01  .+,...".#f#.,...
03C0: 2C D0 0E 01 64 65 6E 30  2B 2C D0 0E 01 24 80 1C  ,...den0+,...$..
03D0: 10 80 23 45 04 80 F0 FF  FF 7F F0 FF FF 7F 66 64  ..#E..........fd
03E0: 6F 31 02 80 55 04 80 F0  FF FF 7F F0 FF FF 7F 66  o1..U..........f
03F0: 64 6F 31 52 0E 80 F8 FF  FF 7F F8 FF FF 7F 73 30  do1R..........s0
0400: 30 36 5C 00 25 80 5C 01  25 80 9A 5D 09 80 00 80  06\.%.\.%..]....
0410: 1C 14 80 AB 11 02 80 1C  00 80 46 00 45 04 80 F0  ..........F.E...
0420: FF FF 7F F0 FF FF 7F 66  64 69 32 02 80 21 00     .......fdi2..!. 
```

#### Opcodes

```
  0: 0x0001 [0x02] IF !(Work_Zone[2] == 1*) GOTO 0x0022
  1: 0x0009 [0x4A] Raibaht (ID: 17748012/0x010ED02C) looks at LocalPlayer
  2: 0x0012 [0x6F] WAIT_FRAME_DELAY: Yield until WaitTime reaches zero
  3: 0x0013 [0x76] CHECK_ENTITY_RENDER_FLAGS: Wait until Raibaht (ID: 17748012/0x010ED02C) Render.Flags0 and Render.Flags3 conditions are met
  4: 0x0018 [0x2B] Raibaht (ID: 17748012/0x010ED02C) [7431*]:
    → "The accident happened in Palborough Mines. Take the elevator up to the third floor and head to the unfinished shaft around G-8."
  5: 0x001F [0x23] WAIT_FOR_DIALOG_INTERACTION
  6: 0x0020 [0x21] END_EVENT
  7: 0x0021 [0x00] END_REQSTACK()
  8: 0x0022 [0x42] SET_CLI_EVENT_CANCEL_DATA()
  9: 0x0023 [0x02] IF !(Work_Zone[9] == 0*) GOTO 0x0042
 10: 0x002B [0x4A] Raibaht (ID: 17748012/0x010ED02C) looks at LocalPlayer
 11: 0x0034 [0x6F] WAIT_FRAME_DELAY: Yield until WaitTime reaches zero
 12: 0x0035 [0x76] CHECK_ENTITY_RENDER_FLAGS: Wait until Raibaht (ID: 17748012/0x010ED02C) Render.Flags0 and Render.Flags3 conditions are met
 13: 0x003A [0x2B] Raibaht (ID: 17748012/0x010ED02C) [7418*]:
    → "Let's talk outside."
 14: 0x0041 [0x23] WAIT_FOR_DIALOG_INTERACTION
 15: 0x0042 [0x5D] SET_MUSIC_VOLUME(volume=0*, fade_time=200*)
 16: 0x0047 [0x45] LOAD_SCHEDULED_TASK: Load scheduler "fdo1" with entities [LocalPlayer, LocalPlayer], work=[200*, 0*]
 17: 0x0058 [0x55] WAIT_LOAD_SCHEDULER: Wait for scheduler "fdo1" with entities [LocalPlayer, LocalPlayer], work=200*
 18: 0x0067 [0x46] CAMERA_CONTROL: Disable user control
 19: 0x0069 [0x38] SET_CLIENT_EVENT_MODE(mode=19*)
 20: 0x006C [0x75] LOAD_ROOM(Load indoor room, room=300*)
 21: 0x0070 [0x75] LOAD_ROOM(No action)
 22: 0x0072 [0x92] Cid (ID: 17748011/0x010ED02B)->Render.Flags3 ^= 0x01
 23: 0x0078 [0x92] Raibaht (ID: 17748012/0x010ED02C)->Render.Flags3 ^= 0x01
 24: 0x007E [0x94] Cid (ID: 17748011/0x010ED02B)->Render.Flags3 ^= 0x01
 25: 0x0084 [0x94] Raibaht (ID: 17748012/0x010ED02C)->Render.Flags3 ^= 0x01
 26: 0x008A [0x94] LocalPlayer->Render.Flags3 ^= 0x01
 27: 0x0090 [0x6B] STOP_AND_IDLE: Cid (ID: 17748011/0x010ED02B) stops current action and resets to idle (animation="idl0")
 28: 0x0099 [0xBA] SET_ENTITY_POSITION(entity_id=Raibaht (ID: 17748012/0x010ED02C), pos_x=-49.500*, pos_z=0.000*, pos_y=-10.000*, direction=11.2°*)
 29: 0x00A6 [0xBA] SET_ENTITY_POSITION(entity_id=LocalPlayer, pos_x=-47.000*, pos_z=-0.500*, pos_y=-10.000*, direction=191.2°*)
 30: 0x00B3 [0x4A] Raibaht (ID: 17748012/0x010ED02C) looks at LocalPlayer
 31: 0x00BC [0x4A] LocalPlayer looks at Raibaht (ID: 17748012/0x010ED02C)
 32: 0x00C5 [0x6F] WAIT_FRAME_DELAY: Yield until WaitTime reaches zero
 33: 0x00C6 [0x76] CHECK_ENTITY_RENDER_FLAGS: Wait until Raibaht (ID: 17748012/0x010ED02C) Render.Flags0 and Render.Flags3 conditions are met
 34: 0x00CB [0x80] LOAD_WAIT(entity=Raibaht (ID: 17748012/0x010ED02C))
 35: 0x00D0 [0x1C] WAIT(60* ticks)
 36: 0x00D3 [0x45] LOAD_SCHEDULED_TASK: Load scheduler "fdi1" with entities [LocalPlayer, LocalPlayer], work=[200*, 0*]
 37: 0x00E4 [0x45] LOAD_SCHEDULED_TASK: Load scheduler "s000" with entities [EventEntity, EventEntity], work=[783*, 0*]
 38: 0x00F5 [0x1C] WAIT(30* ticks)
 39: 0x00F8 [0x27] REQ_SET(priority=0x10, entity_id=LocalPlayer, tag_num=0xB8)
 40: 0x00FF [0x1C] WAIT(120* ticks)
 41: 0x0102 [0x2A] GET_REQ_LEVEL(level=16, entity_id=LocalPlayer)
 42: 0x0108 [0x66] LOAD_EXT_SCHEDULER_MAIN: Load scheduler "tlk0" with entities [Raibaht (ID: 17748012/0x010ED02C), Raibaht (ID: 17748012/0x010ED02C)], work=60*
 43: 0x0117 [0x2B] Raibaht (ID: 17748012/0x010ED02C) [7419*]:
    → "Hmmm... What made Midras want to become an engineer?"
 44: 0x011E [0x1C] WAIT(120* ticks)
 45: 0x0121 [0x23] WAIT_FOR_DIALOG_INTERACTION
 46: 0x0122 [0x66] LOAD_EXT_SCHEDULER_MAIN: Load scheduler "tlk1" with entities [Raibaht (ID: 17748012/0x010ED02C), Raibaht (ID: 17748012/0x010ED02C)], work=60*
 47: 0x0131 [0x2B] Raibaht (ID: 17748012/0x010ED02C) [7420*]:
    → "The only person who can answer that properly is Midras himself. Ah, but wait."
 48: 0x0138 [0x23] WAIT_FOR_DIALOG_INTERACTION
 49: 0x0139 [0x1C] WAIT(90* ticks)
 50: 0x013C [0x7B] Raibaht (ID: 17748012/0x010ED02C) stops talking
 51: 0x0141 [0x27] REQ_SET(priority=0x10, entity_id=Raibaht (ID: 17748012/0x010ED02C), tag_num=0x58)
 52: 0x0148 [0x1C] WAIT(15* ticks)
 53: 0x014B [0x52] END_LOAD_SCHEDULER: End scheduler "s000" with entities [EventEntity, EventEntity], work=783*
 54: 0x015A [0x45] LOAD_SCHEDULED_TASK: Load scheduler "s001" with entities [EventEntity, EventEntity], work=[783*, 0*]
 55: 0x016B [0x5C] MUSIC_CONTROL: Set Idle (Day) music to song 159*
 56: 0x016F [0x5C] MUSIC_CONTROL: Set Idle (Night) music to song 159*
 57: 0x0173 [0x2A] GET_REQ_LEVEL(level=16, entity_id=Raibaht (ID: 17748012/0x010ED02C))
 58: 0x0179 [0x1C] WAIT(30* ticks)
 59: 0x017C [0x2B] Raibaht (ID: 17748012/0x010ED02C) [7421*]:
    → "I remember now. Back when he was still a boy, no older than ten. He got in a fight with one of the other children."
 60: 0x0183 [0x23] WAIT_FOR_DIALOG_INTERACTION
 61: 0x0184 [0x1C] WAIT(90* ticks)
 62: 0x0187 [0x52] END_LOAD_SCHEDULER: End scheduler "s001" with entities [EventEntity, EventEntity], work=783*
 63: 0x0196 [0x45] LOAD_SCHEDULED_TASK: Load scheduler "s002" with entities [EventEntity, EventEntity], work=[783*, 0*]
 64: 0x01A7 [0x48] [System] [11377*]:
    → "@@"
 65: 0x01AA [0x1C] WAIT(60* ticks)
 66: 0x01AD [0x23] WAIT_FOR_DIALOG_INTERACTION
 67: 0x01AE [0x5B] LOAD_EXT_SCHEDULER: Load scheduler "kak0" with entities [Cid (ID: 17748011/0x010ED02B), Cid (ID: 17748011/0x010ED02B)], work=110*
 68: 0x01BD [0x2B] Raibaht (ID: 17748012/0x010ED02C) [7422*]:
    → "The other child had a father who was seriously injured in the mining accident, and he took it all out on Midras. "If it weren't for your father's rotten powder, that explosion never would have happened!" or something like that."
 69: 0x01C4 [0x1C] WAIT(120* ticks)
 70: 0x01C7 [0x23] WAIT_FOR_DIALOG_INTERACTION
 71: 0x01C8 [0x5B] LOAD_EXT_SCHEDULER: Load scheduler "kak1" with entities [Cid (ID: 17748011/0x010ED02B), Cid (ID: 17748011/0x010ED02B)], work=110*
 72: 0x01D7 [0x2B] Raibaht (ID: 17748012/0x010ED02C) [7423*]:
    → "Midras was dumbfounded, and came to me for the truth. Sadly, it's not easy to lie to a child."
 73: 0x01DE [0x23] WAIT_FOR_DIALOG_INTERACTION
 74: 0x01DF [0x1C] WAIT(60* ticks)
 75: 0x01E2 [0x2B] Raibaht (ID: 17748012/0x010ED02C) [7424*]:
    → "He didn't say anything after that, but now that I think of it, that might have been the day."
 76: 0x01E9 [0x23] WAIT_FOR_DIALOG_INTERACTION
 77: 0x01EA [0x5B] LOAD_EXT_SCHEDULER: Load scheduler "thk1" with entities [Cid (ID: 17748011/0x010ED02B), Cid (ID: 17748011/0x010ED02B)], work=110*
 78: 0x01F9 [0x2B] Raibaht (ID: 17748012/0x010ED02C) [7425*]:
    → "Ever since then, he would always be reading the explosives manual Cid gave him and would sometimes come to me with questions on mixtures and component ratios."
 79: 0x0200 [0x23] WAIT_FOR_DIALOG_INTERACTION
 80: 0x0201 [0x48] [System] [11377*]:
    → "@@"
 81: 0x0204 [0x1C] WAIT(60* ticks)
 82: 0x0207 [0x23] WAIT_FOR_DIALOG_INTERACTION
 83: 0x0208 [0x52] END_LOAD_SCHEDULER: End scheduler "s002" with entities [EventEntity, EventEntity], work=783*
 84: 0x0217 [0x45] LOAD_SCHEDULED_TASK: Load scheduler "s003" with entities [EventEntity, EventEntity], work=[783*, 0*]
 85: 0x0228 [0x4A] Raibaht (ID: 17748012/0x010ED02C) looks at LocalPlayer
 86: 0x0231 [0x6F] WAIT_FRAME_DELAY: Yield until WaitTime reaches zero
 87: 0x0232 [0x76] CHECK_ENTITY_RENDER_FLAGS: Wait until Raibaht (ID: 17748012/0x010ED02C) Render.Flags0 and Render.Flags3 conditions are met
 88: 0x0237 [0x1C] WAIT(30* ticks)
 89: 0x023A [0x66] LOAD_EXT_SCHEDULER_MAIN: Load scheduler "tlk0" with entities [Raibaht (ID: 17748012/0x010ED02C), Raibaht (ID: 17748012/0x010ED02C)], work=60*
 90: 0x0249 [0x2B] Raibaht (ID: 17748012/0x010ED02C) [7426*]:
    → "That's about all I can remember, though. Hard to say if that's really what made him take up the hammer."
 91: 0x0250 [0x1C] WAIT(120* ticks)
 92: 0x0253 [0x23] WAIT_FOR_DIALOG_INTERACTION
 93: 0x0254 [0x66] LOAD_EXT_SCHEDULER_MAIN: Load scheduler "tlk1" with entities [Raibaht (ID: 17748012/0x010ED02C), Raibaht (ID: 17748012/0x010ED02C)], work=60*
 94: 0x0263 [0x52] END_LOAD_SCHEDULER: End scheduler "s003" with entities [EventEntity, EventEntity], work=783*
 95: 0x0272 [0x02] IF !(LocalPlayer->Race == 5*) GOTO 0x028E
 96: 0x027A [0x45] LOAD_SCHEDULED_TASK: Load scheduler "st04" with entities [EventEntity, EventEntity], work=[783*, 0*]
 97: 0x028B [0x01] GOTO 0x02BB
 98: 0x028E [0x02] IF !(LocalPlayer->Race == 6*) GOTO 0x02AA
 99: 0x0296 [0x45] LOAD_SCHEDULED_TASK: Load scheduler "st04" with entities [EventEntity, EventEntity], work=[783*, 0*]
100: 0x02A7 [0x01] GOTO 0x02BB
101: 0x02AA [0x45] LOAD_SCHEDULED_TASK: Load scheduler "s004" with entities [EventEntity, EventEntity], work=[783*, 0*]

SUBROUTINE_02BB:
102: 0x02BB [0x27] REQ_SET(priority=0x10, entity_id=LocalPlayer, tag_num=0xB8)
103: 0x02C2 [0x1C] WAIT(120* ticks)
104: 0x02C5 [0x2A] GET_REQ_LEVEL(level=16, entity_id=LocalPlayer)
105: 0x02CB [0x2B] Raibaht (ID: 17748012/0x010ED02C) [7427*]:
    → "What? You want to know where the accident happened?"
106: 0x02D2 [0x23] WAIT_FOR_DIALOG_INTERACTION
107: 0x02D3 [0x1C] WAIT(90* ticks)
108: 0x02D6 [0x02] IF !(LocalPlayer->Race == 5*) GOTO 0x0301
109: 0x02DE [0x52] END_LOAD_SCHEDULER: End scheduler "st04" with entities [EventEntity, EventEntity], work=783*
110: 0x02ED [0x45] LOAD_SCHEDULED_TASK: Load scheduler "st05" with entities [EventEntity, EventEntity], work=[783*, 0*]
111: 0x02FE [0x01] GOTO 0x034C
112: 0x0301 [0x02] IF !(LocalPlayer->Race == 6*) GOTO 0x032C
113: 0x0309 [0x52] END_LOAD_SCHEDULER: End scheduler "st04" with entities [EventEntity, EventEntity], work=783*
114: 0x0318 [0x45] LOAD_SCHEDULED_TASK: Load scheduler "st05" with entities [EventEntity, EventEntity], work=[783*, 0*]
115: 0x0329 [0x01] GOTO 0x034C
116: 0x032C [0x52] END_LOAD_SCHEDULER: End scheduler "s004" with entities [EventEntity, EventEntity], work=783*
117: 0x033B [0x45] LOAD_SCHEDULED_TASK: Load scheduler "s005" with entities [EventEntity, EventEntity], work=[783*, 0*]

SUBROUTINE_034C:
118: 0x034C [0x2B] Raibaht (ID: 17748012/0x010ED02C) [7428*]:
    → "Listen, it's been over twenty years now. I don't go there anymore--none of us do, but I won't stop you if you're serious."
119: 0x0353 [0x23] WAIT_FOR_DIALOG_INTERACTION
120: 0x0354 [0x1C] WAIT(120* ticks)
121: 0x0357 [0x23] WAIT_FOR_DIALOG_INTERACTION
122: 0x0358 [0x7B] Raibaht (ID: 17748012/0x010ED02C) stops talking
123: 0x035D [0x02] IF !(LocalPlayer->Race == 5*) GOTO 0x0377
124: 0x0365 [0x52] END_LOAD_SCHEDULER: End scheduler "st05" with entities [EventEntity, EventEntity], work=783*
125: 0x0374 [0x01] GOTO 0x03A0
126: 0x0377 [0x02] IF !(LocalPlayer->Race == 6*) GOTO 0x0391
127: 0x037F [0x52] END_LOAD_SCHEDULER: End scheduler "st05" with entities [EventEntity, EventEntity], work=783*
128: 0x038E [0x01] GOTO 0x03A0
129: 0x0391 [0x52] END_LOAD_SCHEDULER: End scheduler "s005" with entities [EventEntity, EventEntity], work=783*

SUBROUTINE_03A0:
130: 0x03A0 [0x45] LOAD_SCHEDULED_TASK: Load scheduler "s006" with entities [EventEntity, EventEntity], work=[783*, 0*]
131: 0x03B1 [0x2B] Raibaht (ID: 17748012/0x010ED02C) [7429*]:
    → "It was in Palborough Mines. Take the elevator up to the third floor. The explosion happened down the unfinished shaft around G-8. I'll never forget that shaft."
132: 0x03B8 [0x23] WAIT_FOR_DIALOG_INTERACTION
133: 0x03B9 [0x66] LOAD_EXT_SCHEDULER_MAIN: Load scheduler "den0" with entities [Raibaht (ID: 17748012/0x010ED02C), Raibaht (ID: 17748012/0x010ED02C)], work=62*
134: 0x03C8 [0x2B] Raibaht (ID: 17748012/0x010ED02C) [7430*]:
    → "It's been ages, though. I wouldn't get your hopes up of finding anything down there."
135: 0x03CF [0x1C] WAIT(120* ticks)
136: 0x03D2 [0x23] WAIT_FOR_DIALOG_INTERACTION
137: 0x03D3 [0x45] LOAD_SCHEDULED_TASK: Load scheduler "fdo1" with entities [LocalPlayer, LocalPlayer], work=[200*, 0*]
138: 0x03E4 [0x55] WAIT_LOAD_SCHEDULER: Wait for scheduler "fdo1" with entities [LocalPlayer, LocalPlayer], work=200*
139: 0x03F3 [0x52] END_LOAD_SCHEDULER: End scheduler "s006" with entities [EventEntity, EventEntity], work=783*
140: 0x0402 [0x5C] MUSIC_CONTROL: Set Idle (Day) music to song 154*
141: 0x0406 [0x5C] MUSIC_CONTROL: Set Idle (Night) music to song 154*
142: 0x040A [0x9A] WAIT_MUSIC_SERVER()
143: 0x040B [0x5D] SET_MUSIC_VOLUME(volume=127*, fade_time=1*)
144: 0x0410 [0x1C] WAIT(15* ticks)
145: 0x0413 [0xAB] EventEntity->DespawnValue = 0* // Set despawn value
146: 0x0417 [0x1C] WAIT(1* ticks)
147: 0x041A [0x46] CAMERA_CONTROL: Restore default settings
148: 0x041C [0x45] LOAD_SCHEDULED_TASK: Load scheduler "fdi2" with entities [LocalPlayer, LocalPlayer], work=[200*, 0*]
149: 0x042D [0x21] END_EVENT
150: 0x042E [0x00] END_REQSTACK()
```

### Event 991

#### Metadata

| Field        | Value     |
|--------------|-----------|
| Entrypoint   | 0x042F    |
| Data Size    | 760 bytes |
| Instructions | 108       |

```
      00 01 02 03 04 05 06 07  08 09 0A 0B 0C 0D 0E 0F
      -- -- -- -- -- -- -- --  -- -- -- -- -- -- -- --
0420:                                               02                 .
0430: 02 10 00 80 00 58 04 4A  2C D0 0E 01 F0 FF FF 7F  .....X.J,.......
0440: 6F 76 2C D0 0E 01 2B 2C  D0 0E 01 26 80 23 2B 2C  ov,...+,...&.#+,
0450: D0 0E 01 27 80 23 21 00  42 02 09 10 02 80 00 78  ...'.#!.B......x
0460: 04 4A 2C D0 0E 01 F0 FF  FF 7F 6F 76 2C D0 0E 01  .J,.......ov,...
0470: 2B 2C D0 0E 01 28 80 23  5D 02 80 06 80 45 04 80  +,...(.#]....E..
0480: F0 FF FF 7F F0 FF FF 7F  66 64 6F 31 02 80 55 04  ........fdo1..U.
0490: 80 F0 FF FF 7F F0 FF FF  7F 66 64 6F 31 46 01 38  .........fdo1F.8
04A0: 05 80 75 00 06 80 75 01  92 01 2B D0 0E 01 92 01  ..u...u...+.....
04B0: 2C D0 0E 01 94 01 2B D0  0E 01 94 01 2C D0 0E 01  ,.....+.....,...
04C0: 94 01 F0 FF FF 7F BA 2C  D0 0E 01 07 80 02 80 08  .......,........
04D0: 80 09 80 BA F0 FF FF 7F  0A 80 0B 80 08 80 0C 80  ................
04E0: 4A 2C D0 0E 01 F0 FF FF  7F 4A F0 FF FF 7F 2C D0  J,.......J....,.
04F0: 0E 01 6F 76 2C D0 0E 01  80 2C D0 0E 01 1C 0D 80  ..ov,....,......
0500: 45 04 80 F0 FF FF 7F F0  FF FF 7F 66 64 69 31 02  E..........fdi1.
0510: 80 02 87 7F 1E 80 80 2D  05 45 0E 80 F8 FF FF 7F  .......-.E......
0520: F8 FF FF 7F 73 74 31 30  02 80 01 5A 05 02 87 7F  ....st10...Z....
0530: 1F 80 80 49 05 45 0E 80  F8 FF FF 7F F8 FF FF 7F  ...I.E..........
0540: 73 74 31 30 02 80 01 5A  05 45 0E 80 F8 FF FF 7F  st10...Z.E......
0550: F8 FF FF 7F 73 30 31 30  02 80 1C 0F 80 27 10 F0  ....s010.....'..
0560: FF FF 7F B8 1C 29 80 2A  10 F0 FF FF 7F 66 0D 80  .....).*.....f..
0570: 2C D0 0E 01 2C D0 0E 01  74 6C 6B 30 2B 2C D0 0E  ,...,...tlk0+,..
0580: 01 2A 80 1C 10 80 23 66  0D 80 2C D0 0E 01 2C D0  .*....#f..,...,.
0590: 0E 01 74 6C 6B 31 02 87  7F 1E 80 80 B0 05 52 0E  ..tlk1........R.
05A0: 80 F8 FF FF 7F F8 FF FF  7F 73 74 31 30 01 D9 05  .........st10...
05B0: 02 87 7F 1F 80 80 CA 05  52 0E 80 F8 FF FF 7F F8  ........R.......
05C0: FF FF 7F 73 74 31 30 01  D9 05 52 0E 80 F8 FF FF  ...st10...R.....
05D0: 7F F8 FF FF 7F 73 30 31  30 45 0E 80 F8 FF FF 7F  .....s010E......
05E0: F8 FF FF 7F 73 30 31 31  02 80 2B 2C D0 0E 01 2B  ....s011..+,...+
05F0: 80 23 2B 2C D0 0E 01 2C  80 23 1C 0D 80 7B 2C D0  .#+,...,.#...{,.
0600: 0E 01 27 10 2C D0 0E 01  59 7B F0 FF FF 7F 27 10  ..'.,...Y{....'.
0610: F0 FF FF 7F BF 1C 2D 80  52 0E 80 F8 FF FF 7F F8  ......-.R.......
0620: FF FF 7F 73 30 31 31 45  0E 80 F8 FF FF 7F F8 FF  ...s011E........
0630: FF 7F 73 30 31 32 02 80  2A 10 2C D0 0E 01 4A F0  ..s012..*.,...J.
0640: FF FF 7F 2C D0 0E 01 1C  10 80 52 0E 80 F8 FF FF  ...,......R.....
0650: 7F F8 FF FF 7F 73 30 31  32 45 0E 80 F8 FF FF 7F  .....s012E......
0660: F8 FF FF 7F 73 30 31 33  02 80 81 00 2C D0 0E 01  ....s013....,...
0670: 1C 0F 80 2B 2C D0 0E 01  27 80 23 1C 10 80 81 01  ...+,...'.#.....
0680: 2C D0 0E 01 27 10 2C D0  0E 01 5A 52 0E 80 F8 FF  ,...'.,...ZR....
0690: FF 7F F8 FF FF 7F 73 30  31 33 45 0E 80 F8 FF FF  ......s013E.....
06A0: 7F F8 FF FF 7F 73 30 31  34 02 80 2B 2C D0 0E 01  .....s014..+,...
06B0: 2E 80 1C 0D 80 4A F0 FF  FF 7F 2C D0 0E 01 1C 2F  .....J....,..../
06C0: 80 27 10 4E D0 0E 01 03  1C 10 80 45 04 80 F0 FF  .'.N.......E....
06D0: FF 7F F0 FF FF 7F 66 64  6F 31 02 80 55 04 80 F0  ......fdo1..U...
06E0: FF FF 7F F0 FF FF 7F 66  64 6F 31 52 0E 80 F8 FF  .......fdo1R....
06F0: FF 7F F8 FF FF 7F 73 30  31 34 5C 00 25 80 5C 01  ......s014\.%.\.
0700: 25 80 9A 5D 09 80 10 80  1C 14 80 AB 11 02 80 1C  %..]............
0710: 00 80 46 00 45 04 80 F0  FF FF 7F F0 FF FF 7F 66  ..F.E..........f
0720: 64 69 32 02 80 21 00                              di2..!.         
```

#### Opcodes

```
  0: 0x042F [0x02] IF !(Work_Zone[2] == 1*) GOTO 0x0458
  1: 0x0437 [0x4A] Raibaht (ID: 17748012/0x010ED02C) looks at LocalPlayer
  2: 0x0440 [0x6F] WAIT_FRAME_DELAY: Yield until WaitTime reaches zero
  3: 0x0441 [0x76] CHECK_ENTITY_RENDER_FLAGS: Wait until Raibaht (ID: 17748012/0x010ED02C) Render.Flags0 and Render.Flags3 conditions are met
  4: 0x0446 [0x2B] Raibaht (ID: 17748012/0x010ED02C) [7438*]:
    → "Talk to Midras. He'll know which explosives you need."
  5: 0x044D [0x23] WAIT_FOR_DIALOG_INTERACTION
  6: 0x044E [0x2B] Raibaht (ID: 17748012/0x010ED02C) [7436*]:
    → "That kid would always be hanging around the port docks when something was on his mind. If they have docks over in Adoulin, I'm guessing that's where he'd be."
  7: 0x0455 [0x23] WAIT_FOR_DIALOG_INTERACTION
  8: 0x0456 [0x21] END_EVENT
  9: 0x0457 [0x00] END_REQSTACK()
 10: 0x0458 [0x42] SET_CLI_EVENT_CANCEL_DATA()
 11: 0x0459 [0x02] IF !(Work_Zone[9] == 0*) GOTO 0x0478
 12: 0x0461 [0x4A] Raibaht (ID: 17748012/0x010ED02C) looks at LocalPlayer
 13: 0x046A [0x6F] WAIT_FRAME_DELAY: Yield until WaitTime reaches zero
 14: 0x046B [0x76] CHECK_ENTITY_RENDER_FLAGS: Wait until Raibaht (ID: 17748012/0x010ED02C) Render.Flags0 and Render.Flags3 conditions are met
 15: 0x0470 [0x2B] Raibaht (ID: 17748012/0x010ED02C) [7432*]:
    → "You're back. Not so loud."
 16: 0x0477 [0x23] WAIT_FOR_DIALOG_INTERACTION
 17: 0x0478 [0x5D] SET_MUSIC_VOLUME(volume=0*, fade_time=300*)
 18: 0x047D [0x45] LOAD_SCHEDULED_TASK: Load scheduler "fdo1" with entities [LocalPlayer, LocalPlayer], work=[200*, 0*]
 19: 0x048E [0x55] WAIT_LOAD_SCHEDULER: Wait for scheduler "fdo1" with entities [LocalPlayer, LocalPlayer], work=200*
 20: 0x049D [0x46] CAMERA_CONTROL: Disable user control
 21: 0x049F [0x38] SET_CLIENT_EVENT_MODE(mode=19*)
 22: 0x04A2 [0x75] LOAD_ROOM(Load indoor room, room=300*)
 23: 0x04A6 [0x75] LOAD_ROOM(No action)
 24: 0x04A8 [0x92] Cid (ID: 17748011/0x010ED02B)->Render.Flags3 ^= 0x01
 25: 0x04AE [0x92] Raibaht (ID: 17748012/0x010ED02C)->Render.Flags3 ^= 0x01
 26: 0x04B4 [0x94] Cid (ID: 17748011/0x010ED02B)->Render.Flags3 ^= 0x01
 27: 0x04BA [0x94] Raibaht (ID: 17748012/0x010ED02C)->Render.Flags3 ^= 0x01
 28: 0x04C0 [0x94] LocalPlayer->Render.Flags3 ^= 0x01
 29: 0x04C6 [0xBA] SET_ENTITY_POSITION(entity_id=Raibaht (ID: 17748012/0x010ED02C), pos_x=-49.500*, pos_z=0.000*, pos_y=-10.000*, direction=11.2°*)
 30: 0x04D3 [0xBA] SET_ENTITY_POSITION(entity_id=LocalPlayer, pos_x=-47.000*, pos_z=-0.500*, pos_y=-10.000*, direction=191.2°*)
 31: 0x04E0 [0x4A] Raibaht (ID: 17748012/0x010ED02C) looks at LocalPlayer
 32: 0x04E9 [0x4A] LocalPlayer looks at Raibaht (ID: 17748012/0x010ED02C)
 33: 0x04F2 [0x6F] WAIT_FRAME_DELAY: Yield until WaitTime reaches zero
 34: 0x04F3 [0x76] CHECK_ENTITY_RENDER_FLAGS: Wait until Raibaht (ID: 17748012/0x010ED02C) Render.Flags0 and Render.Flags3 conditions are met
 35: 0x04F8 [0x80] LOAD_WAIT(entity=Raibaht (ID: 17748012/0x010ED02C))
 36: 0x04FD [0x1C] WAIT(60* ticks)
 37: 0x0500 [0x45] LOAD_SCHEDULED_TASK: Load scheduler "fdi1" with entities [LocalPlayer, LocalPlayer], work=[200*, 0*]
 38: 0x0511 [0x02] IF !(LocalPlayer->Race == 5*) GOTO 0x052D
 39: 0x0519 [0x45] LOAD_SCHEDULED_TASK: Load scheduler "st10" with entities [EventEntity, EventEntity], work=[783*, 0*]
 40: 0x052A [0x01] GOTO 0x055A
 41: 0x052D [0x02] IF !(LocalPlayer->Race == 6*) GOTO 0x0549
 42: 0x0535 [0x45] LOAD_SCHEDULED_TASK: Load scheduler "st10" with entities [EventEntity, EventEntity], work=[783*, 0*]
 43: 0x0546 [0x01] GOTO 0x055A
 44: 0x0549 [0x45] LOAD_SCHEDULED_TASK: Load scheduler "s010" with entities [EventEntity, EventEntity], work=[783*, 0*]

SUBROUTINE_055A:
 45: 0x055A [0x1C] WAIT(30* ticks)
 46: 0x055D [0x27] REQ_SET(priority=0x10, entity_id=LocalPlayer, tag_num=0xB8)
 47: 0x0564 [0x1C] WAIT(150* ticks)
 48: 0x0567 [0x2A] GET_REQ_LEVEL(level=16, entity_id=LocalPlayer)
 49: 0x056D [0x66] LOAD_EXT_SCHEDULER_MAIN: Load scheduler "tlk0" with entities [Raibaht (ID: 17748012/0x010ED02C), Raibaht (ID: 17748012/0x010ED02C)], work=60*
 50: 0x057C [0x2B] Raibaht (ID: 17748012/0x010ED02C) [7433*]:
    → "Hrmmm... You know who knows the right explosive mixtures for the bedrock in Palborough better than anyone?"
 51: 0x0583 [0x1C] WAIT(120* ticks)
 52: 0x0586 [0x23] WAIT_FOR_DIALOG_INTERACTION
 53: 0x0587 [0x66] LOAD_EXT_SCHEDULER_MAIN: Load scheduler "tlk1" with entities [Raibaht (ID: 17748012/0x010ED02C), Raibaht (ID: 17748012/0x010ED02C)], work=60*
 54: 0x0596 [0x02] IF !(LocalPlayer->Race == 5*) GOTO 0x05B0
 55: 0x059E [0x52] END_LOAD_SCHEDULER: End scheduler "st10" with entities [EventEntity, EventEntity], work=783*
 56: 0x05AD [0x01] GOTO 0x05D9
 57: 0x05B0 [0x02] IF !(LocalPlayer->Race == 6*) GOTO 0x05CA
 58: 0x05B8 [0x52] END_LOAD_SCHEDULER: End scheduler "st10" with entities [EventEntity, EventEntity], work=783*
 59: 0x05C7 [0x01] GOTO 0x05D9
 60: 0x05CA [0x52] END_LOAD_SCHEDULER: End scheduler "s010" with entities [EventEntity, EventEntity], work=783*

SUBROUTINE_05D9:
 61: 0x05D9 [0x45] LOAD_SCHEDULED_TASK: Load scheduler "s011" with entities [EventEntity, EventEntity], work=[783*, 0*]
 62: 0x05EA [0x2B] Raibaht (ID: 17748012/0x010ED02C) [7434*]:
    → "That's right. Midras."
 63: 0x05F1 [0x23] WAIT_FOR_DIALOG_INTERACTION
 64: 0x05F2 [0x2B] Raibaht (ID: 17748012/0x010ED02C) [7435*]:
    → "I don't know if he'd be willing to help, but he's the one you need to talk to."
 65: 0x05F9 [0x23] WAIT_FOR_DIALOG_INTERACTION
 66: 0x05FA [0x1C] WAIT(60* ticks)
 67: 0x05FD [0x7B] Raibaht (ID: 17748012/0x010ED02C) stops talking
 68: 0x0602 [0x27] REQ_SET(priority=0x10, entity_id=Raibaht (ID: 17748012/0x010ED02C), tag_num=0x59)
 69: 0x0609 [0x7B] LocalPlayer stops talking
 70: 0x060E [0x27] REQ_SET(priority=0x10, entity_id=LocalPlayer, tag_num=0xBF)
 71: 0x0615 [0x1C] WAIT(10* ticks)
 72: 0x0618 [0x52] END_LOAD_SCHEDULER: End scheduler "s011" with entities [EventEntity, EventEntity], work=783*
 73: 0x0627 [0x45] LOAD_SCHEDULED_TASK: Load scheduler "s012" with entities [EventEntity, EventEntity], work=[783*, 0*]
 74: 0x0638 [0x2A] GET_REQ_LEVEL(level=16, entity_id=Raibaht (ID: 17748012/0x010ED02C))
 75: 0x063E [0x4A] LocalPlayer looks at Raibaht (ID: 17748012/0x010ED02C)
 76: 0x0647 [0x1C] WAIT(120* ticks)
 77: 0x064A [0x52] END_LOAD_SCHEDULER: End scheduler "s012" with entities [EventEntity, EventEntity], work=783*
 78: 0x0659 [0x45] LOAD_SCHEDULED_TASK: Load scheduler "s013" with entities [EventEntity, EventEntity], work=[783*, 0*]
 79: 0x066A [0x81] SET_ENTITY_BLINKING(blink_flag=0x00, entity=Raibaht (ID: 17748012/0x010ED02C))
 80: 0x0670 [0x1C] WAIT(30* ticks)
 81: 0x0673 [0x2B] Raibaht (ID: 17748012/0x010ED02C) [7436*]:
    → "That kid would always be hanging around the port docks when something was on his mind. If they have docks over in Adoulin, I'm guessing that's where he'd be."
 82: 0x067A [0x23] WAIT_FOR_DIALOG_INTERACTION
 83: 0x067B [0x1C] WAIT(120* ticks)
 84: 0x067E [0x81] SET_ENTITY_BLINKING(blink_flag=0x01, entity=Raibaht (ID: 17748012/0x010ED02C))
 85: 0x0684 [0x27] REQ_SET(priority=0x10, entity_id=Raibaht (ID: 17748012/0x010ED02C), tag_num=0x5A)
 86: 0x068B [0x52] END_LOAD_SCHEDULER: End scheduler "s013" with entities [EventEntity, EventEntity], work=783*
 87: 0x069A [0x45] LOAD_SCHEDULED_TASK: Load scheduler "s014" with entities [EventEntity, EventEntity], work=[783*, 0*]
 88: 0x06AB [0x2B] Raibaht (ID: 17748012/0x010ED02C) [7437*]:
    → "I've got to get back to work now."
 89: 0x06B2 [0x1C] WAIT(60* ticks)
 90: 0x06B5 [0x4A] LocalPlayer looks at Raibaht (ID: 17748012/0x010ED02C)
 91: 0x06BE [0x1C] WAIT(180* ticks)
 92: 0x06C1 [0x27] REQ_SET(priority=0x10, entity_id=Door:Cid's Lab (ID: 17748046/0x010ED04E), tag_num=0x03)
 93: 0x06C8 [0x1C] WAIT(120* ticks)
 94: 0x06CB [0x45] LOAD_SCHEDULED_TASK: Load scheduler "fdo1" with entities [LocalPlayer, LocalPlayer], work=[200*, 0*]
 95: 0x06DC [0x55] WAIT_LOAD_SCHEDULER: Wait for scheduler "fdo1" with entities [LocalPlayer, LocalPlayer], work=200*
 96: 0x06EB [0x52] END_LOAD_SCHEDULER: End scheduler "s014" with entities [EventEntity, EventEntity], work=783*
 97: 0x06FA [0x5C] MUSIC_CONTROL: Set Idle (Day) music to song 154*
 98: 0x06FE [0x5C] MUSIC_CONTROL: Set Idle (Night) music to song 154*
 99: 0x0702 [0x9A] WAIT_MUSIC_SERVER()
100: 0x0703 [0x5D] SET_MUSIC_VOLUME(volume=127*, fade_time=120*)
101: 0x0708 [0x1C] WAIT(15* ticks)
102: 0x070B [0xAB] EventEntity->DespawnValue = 0* // Set despawn value
103: 0x070F [0x1C] WAIT(1* ticks)
104: 0x0712 [0x46] CAMERA_CONTROL: Restore default settings
105: 0x0714 [0x45] LOAD_SCHEDULED_TASK: Load scheduler "fdi2" with entities [LocalPlayer, LocalPlayer], work=[200*, 0*]
106: 0x0725 [0x21] END_EVENT
107: 0x0726 [0x00] END_REQSTACK()
```

### Event 992

#### Metadata

| Field        | Value      |
|--------------|------------|
| Entrypoint   | 0x0727     |
| Data Size    | 1650 bytes |
| Instructions | 227        |

```
      00 01 02 03 04 05 06 07  08 09 0A 0B 0C 0D 0E 0F
      -- -- -- -- -- -- -- --  -- -- -- -- -- -- -- --
0720:                      02  02 10 00 80 00 50 07 4A         ......P.J
0730: 2C D0 0E 01 F0 FF FF 7F  6F 76 2C D0 0E 01 2B 2C  ,.......ov,...+,
0740: D0 0E 01 30 80 23 2B 2C  D0 0E 01 31 80 23 21 00  ...0.#+,...1.#!.
0750: 42 02 09 10 02 80 00 70  07 4A 2C D0 0E 01 F0 FF  B......p.J,.....
0760: FF 7F 6F 76 2C D0 0E 01  2B 2C D0 0E 01 28 80 23  ..ov,...+,...(.#
0770: 5C 00 32 80 5C 01 32 80  45 04 80 F0 FF FF 7F F0  \.2.\.2.E.......
0780: FF FF 7F 66 64 6F 31 02  80 55 04 80 F0 FF FF 7F  ...fdo1..U......
0790: F0 FF FF 7F 66 64 6F 31  46 01 38 05 80 75 00 06  ....fdo1F.8..u..
07A0: 80 75 01 92 01 2B D0 0E  01 92 01 2C D0 0E 01 94  .u...+.....,....
07B0: 01 2B D0 0E 01 94 01 2C  D0 0E 01 94 01 F0 FF FF  .+.....,........
07C0: 7F BA 2C D0 0E 01 07 80  02 80 08 80 09 80 BA F0  ..,.............
07D0: FF FF 7F 0A 80 0B 80 08  80 0C 80 4A 2C D0 0E 01  ...........J,...
07E0: F0 FF FF 7F 4A F0 FF FF  7F 2C D0 0E 01 6F 76 2C  ....J....,...ov,
07F0: D0 0E 01 29 10 2C D0 0E  01 56 80 2C D0 0E 01 1C  ...).,...V.,....
0800: 0D 80 45 04 80 F0 FF FF  7F F0 FF FF 7F 66 64 69  ..E..........fdi
0810: 31 02 80 45 0E 80 F8 FF  FF 7F F8 FF FF 7F 73 30  1..E..........s0
0820: 32 30 02 80 1C 0F 80 27  10 F0 FF FF 7F B8 1C 10  20.....'........
0830: 80 2A 10 F0 FF FF 7F 66  33 80 2C D0 0E 01 2C D0  .*.....f3.,...,.
0840: 0E 01 74 6C 6B 30 2B 2C  D0 0E 01 34 80 1C 10 80  ..tlk0+,...4....
0850: 23 66 33 80 2C D0 0E 01  2C D0 0E 01 74 6C 6B 31  #f3.,...,...tlk1
0860: 27 10 F0 FF FF 7F BA 1C  35 80 66 36 80 2C D0 0E  '.......5.f6.,..
0870: 01 2C D0 0E 01 6B 69 7A  6C 03 02 10 37 80 03 03  .,...kizl...7...
0880: 10 38 80 48 39 80 1C 0D  80 52 0E 80 F8 FF FF 7F  .8.H9....R......
0890: F8 FF FF 7F 73 30 32 30  45 0E 80 F8 FF FF 7F F8  ....s020E.......
08A0: FF FF 7F 73 30 32 31 02  80 1C 0D 80 66 36 80 2C  ...s021.....f6.,
08B0: D0 0E 01 2C D0 0E 01 6B  69 7A 6D 1C 10 80 7C 00  ...,...kizm...|.
08C0: 2C D0 0E 01 2B 2C D0 0E  01 3A 80 23 1C 2F 80 7C  ,...+,...:.#./.|
08D0: 01 2C D0 0E 01 2B 2C D0  0E 01 3B 80 23 1C 10 80  .,...+,...;.#...
08E0: 23 52 0E 80 F8 FF FF 7F  F8 FF FF 7F 73 30 32 31  #R..........s021
08F0: 02 87 7F 1E 80 80 0C 09  45 0E 80 F8 FF FF 7F F8  ........E.......
0900: FF FF 7F 73 74 32 32 02  80 01 39 09 02 87 7F 1F  ...st22...9.....
0910: 80 80 28 09 45 0E 80 F8  FF FF 7F F8 FF FF 7F 73  ..(.E..........s
0920: 74 32 32 02 80 01 39 09  45 0E 80 F8 FF FF 7F F8  t22...9.E.......
0930: FF FF 7F 73 30 32 32 02  80 66 36 80 2C D0 0E 01  ...s022..f6.,...
0940: 2C D0 0E 01 6B 69 7A 31  2B 2C D0 0E 01 3C 80 1C  ,...kiz1+,...<..
0950: 2F 80 23 02 87 7F 1E 80  80 6D 09 52 0E 80 F8 FF  /.#......m.R....
0960: FF 7F F8 FF FF 7F 73 74  32 32 01 96 09 02 87 7F  ......st22......
0970: 1F 80 80 87 09 52 0E 80  F8 FF FF 7F F8 FF FF 7F  .....R..........
0980: 73 74 32 32 01 96 09 52  0E 80 F8 FF FF 7F F8 FF  st22...R........
0990: FF 7F 73 30 32 32 45 0E  80 F8 FF FF 7F F8 FF FF  ..s022E.........
09A0: 7F 73 30 32 33 02 80 66  36 80 2C D0 0E 01 2C D0  .s023..f6.,...,.
09B0: 0E 01 6B 69 7A 32 2B 2C  D0 0E 01 3D 80 1C 10 80  ..kiz2+,...=....
09C0: 23 6B 69 64 6C 30 2C D0  0E 01 7B 2C D0 0E 01 52  #kidl0,...{,...R
09D0: 0E 80 F8 FF FF 7F F8 FF  FF 7F 73 30 32 33 45 0E  ..........s023E.
09E0: 80 F8 FF FF 7F F8 FF FF  7F 73 30 32 34 02 80 1C  .........s024...
09F0: 0F 80 27 10 2C D0 0E 01  58 1C 14 80 2A 10 2C D0  ..'.,...X...*.,.
0A00: 0E 01 1C 3E 80 52 0E 80  F8 FF FF 7F F8 FF FF 7F  ...>.R..........
0A10: 73 30 32 34 45 0E 80 F8  FF FF 7F F8 FF FF 7F 73  s024E..........s
0A20: 30 32 35 02 80 6E 2C D0  0E 01 3F 80 99 2C D0 0E  025..n,...?..,..
0A30: 01 2B 2C D0 0E 01 40 80  1C 41 80 23 6E 2C D0 0E  .+,...@..A.#n,..
0A40: 01 1F 80 99 2C D0 0E 01  2B 2C D0 0E 01 42 80 23  ....,...+,...B.#
0A50: 2B 2C D0 0E 01 43 80 1C  10 80 23 52 0E 80 F8 FF  +,...C....#R....
0A60: FF 7F F8 FF FF 7F 73 30  32 35 45 0E 80 F8 FF FF  ......s025E.....
0A70: 7F F8 FF FF 7F 73 30 33  30 02 80 2B 2B D0 0E 01  .....s030..++...
0A80: 44 80 23 1C 0D 80 52 0E  80 F8 FF FF 7F F8 FF FF  D.#...R.........
0A90: 7F 73 30 33 30 45 0E 80  F8 FF FF 7F F8 FF FF 7F  .s030E..........
0AA0: 73 30 33 31 02 80 2B 2C  D0 0E 01 45 80 23 6E 2C  s031..+,...E.#n,
0AB0: D0 0E 01 3F 80 99 2C D0  0E 01 2B 2C D0 0E 01 40  ...?..,...+,...@
0AC0: 80 1C 41 80 23 52 0E 80  F8 FF FF 7F F8 FF FF 7F  ..A.#R..........
0AD0: 73 30 33 31 45 0E 80 F8  FF FF 7F F8 FF FF 7F 73  s031E..........s
0AE0: 30 33 32 02 80 2B 2B D0  0E 01 46 80 23 1C 0D 80  032..++...F.#...
0AF0: 45 0E 80 F8 FF FF 7F F8  FF FF 7F 62 6F 66 66 02  E..........boff.
0B00: 80 55 0E 80 F8 FF FF 7F  F8 FF FF 7F 62 6F 66 66  .U..........boff
0B10: 52 0E 80 F8 FF FF 7F F8  FF FF 7F 73 30 33 32 45  R..........s032E
0B20: 0E 80 F8 FF FF 7F F8 FF  FF 7F 73 30 32 36 02 80  ..........s026..
0B30: 81 00 2C D0 0E 01 2B 2C  D0 0E 01 47 80 23 1C 10  ..,...+,...G.#..
0B40: 80 81 01 2C D0 0E 01 52  0E 80 F8 FF FF 7F F8 FF  ...,...R........
0B50: FF 7F 73 30 32 36 02 87  7F 1E 80 80 72 0B 45 0E  ..s026......r.E.
0B60: 80 F8 FF FF 7F F8 FF FF  7F 73 74 32 37 02 80 01  .........st27...
0B70: 9F 0B 02 87 7F 1F 80 80  8E 0B 45 0E 80 F8 FF FF  ..........E.....
0B80: 7F F8 FF FF 7F 73 74 32  37 02 80 01 9F 0B 45 0E  .....st27.....E.
0B90: 80 F8 FF FF 7F F8 FF FF  7F 73 30 32 37 02 80 4A  .........s027..J
0BA0: 2C D0 0E 01 F0 FF FF 7F  6F 76 2C D0 0E 01 1C 14  ,.......ov,.....
0BB0: 80 27 10 2C D0 0E 01 5B  2A 10 2C D0 0E 01 1C 14  .'.,...[*.,.....
0BC0: 80 2B 2C D0 0E 01 30 80  23 1C 10 80 7B 2C D0 0E  .+,...0.#...{,..
0BD0: 01 66 48 80 2C D0 0E 01  2C D0 0E 01 70 61 73 30  .fH.,...,...pas0
0BE0: 1C 2D 80 02 87 7F 1E 80  80 FD 0B 52 0E 80 F8 FF  .-.........R....
0BF0: FF 7F F8 FF FF 7F 73 74  32 37 01 26 0C 02 87 7F  ......st27.&....
0C00: 1F 80 80 17 0C 52 0E 80  F8 FF FF 7F F8 FF FF 7F  .....R..........
0C10: 73 74 32 37 01 26 0C 52  0E 80 F8 FF FF 7F F8 FF  st27.&.R........
0C20: FF 7F 73 30 32 37 45 0E  80 F8 FF FF 7F F8 FF FF  ..s027E.........
0C30: 7F 73 30 32 38 02 80 1C  2F 80 2B 2C D0 0E 01 31  .s028.../.+,...1
0C40: 80 23 1C 0F 80 66 33 80  2C D0 0E 01 2C D0 0E 01  .#...f3.,...,...
0C50: 74 6C 6B 30 2B 2C D0 0E  01 49 80 1C 10 80 23 66  tlk0+,...I....#f
0C60: 33 80 2C D0 0E 01 2C D0  0E 01 74 6C 6B 31 2B 2C  3.,...,...tlk1+,
0C70: D0 0E 01 4A 80 23 1C 0F  80 52 0E 80 F8 FF FF 7F  ...J.#...R......
0C80: F8 FF FF 7F 73 30 32 38  45 0E 80 F8 FF FF 7F F8  ....s028E.......
0C90: FF FF 7F 73 30 33 33 02  80 2B 2B D0 0E 01 4B 80  ...s033..++...K.
0CA0: 23 1C 0D 80 45 0E 80 F8  FF FF 7F F8 FF FF 7F 62  #...E..........b
0CB0: 6F 66 66 02 80 55 0E 80  F8 FF FF 7F F8 FF FF 7F  off..U..........
0CC0: 62 6F 66 66 52 0E 80 F8  FF FF 7F F8 FF FF 7F 73  boffR..........s
0CD0: 30 33 33 45 0E 80 F8 FF  FF 7F F8 FF FF 7F 73 30  033E..........s0
0CE0: 32 39 02 80 6E 2C D0 0E  01 4C 80 99 2C D0 0E 01  29..n,...L..,...
0CF0: 2B 2C D0 0E 01 4D 80 1C  2F 80 23 27 10 2C D0 0E  +,...M../.#'.,..
0D00: 01 5A 7B F0 FF FF 7F 27  10 F0 FF FF 7F BF 1C 2D  .Z{....'.......-
0D10: 80 03 02 10 4E 80 2B 2C  D0 0E 01 4F 80 1C 0D 80  ....N.+,...O....
0D20: 4A F0 FF FF 7F 2C D0 0E  01 1C 2F 80 27 10 4E D0  J....,..../.'.N.
0D30: 0E 01 03 1C 10 80 45 04  80 F0 FF FF 7F F0 FF FF  ......E.........
0D40: 7F 66 64 6F 31 02 80 55  04 80 F0 FF FF 7F F0 FF  .fdo1..U........
0D50: FF 7F 66 64 6F 31 52 0E  80 F8 FF FF 7F F8 FF FF  ..fdo1R.........
0D60: 7F 73 30 32 39 27 10 2C  D0 0E 01 57 5C 00 25 80  .s029'.,...W\.%.
0D70: 5C 01 25 80 9A 5D 09 80  00 80 1C 14 80 AB 11 02  \.%..]..........
0D80: 80 1C 00 80 46 00 45 04  80 F0 FF FF 7F F0 FF FF  ....F.E.........
0D90: 7F 66 64 69 32 02 80 21  00                       .fdi2..!.       
```

#### Opcodes

```
  0: 0x0727 [0x02] IF !(Work_Zone[2] == 1*) GOTO 0x0750
  1: 0x072F [0x4A] Raibaht (ID: 17748012/0x010ED02C) looks at LocalPlayer
  2: 0x0738 [0x6F] WAIT_FRAME_DELAY: Yield until WaitTime reaches zero
  3: 0x0739 [0x76] CHECK_ENTITY_RENDER_FLAGS: Wait until Raibaht (ID: 17748012/0x010ED02C) Render.Flags0 and Render.Flags3 conditions are met
  4: 0x073E [0x2B] Raibaht (ID: 17748012/0x010ED02C) [7453*]:
    → "Hey, listen. Don't tell Cid about any of this. It's better if he doesn't know."
  5: 0x0745 [0x23] WAIT_FOR_DIALOG_INTERACTION
  6: 0x0746 [0x2B] Raibaht (ID: 17748012/0x010ED02C) [7454*]:
    → "Hurry and take that locket to Midras. He should have it."
  7: 0x074D [0x23] WAIT_FOR_DIALOG_INTERACTION
  8: 0x074E [0x21] END_EVENT
  9: 0x074F [0x00] END_REQSTACK()
 10: 0x0750 [0x42] SET_CLI_EVENT_CANCEL_DATA()
 11: 0x0751 [0x02] IF !(Work_Zone[9] == 0*) GOTO 0x0770
 12: 0x0759 [0x4A] Raibaht (ID: 17748012/0x010ED02C) looks at LocalPlayer
 13: 0x0762 [0x6F] WAIT_FRAME_DELAY: Yield until WaitTime reaches zero
 14: 0x0763 [0x76] CHECK_ENTITY_RENDER_FLAGS: Wait until Raibaht (ID: 17748012/0x010ED02C) Render.Flags0 and Render.Flags3 conditions are met
 15: 0x0768 [0x2B] Raibaht (ID: 17748012/0x010ED02C) [7432*]:
    → "You're back. Not so loud."
 16: 0x076F [0x23] WAIT_FOR_DIALOG_INTERACTION
 17: 0x0770 [0x5C] MUSIC_CONTROL: Set Idle (Day) music to song 124*
 18: 0x0774 [0x5C] MUSIC_CONTROL: Set Idle (Night) music to song 124*
 19: 0x0778 [0x45] LOAD_SCHEDULED_TASK: Load scheduler "fdo1" with entities [LocalPlayer, LocalPlayer], work=[200*, 0*]
 20: 0x0789 [0x55] WAIT_LOAD_SCHEDULER: Wait for scheduler "fdo1" with entities [LocalPlayer, LocalPlayer], work=200*
 21: 0x0798 [0x46] CAMERA_CONTROL: Disable user control
 22: 0x079A [0x38] SET_CLIENT_EVENT_MODE(mode=19*)
 23: 0x079D [0x75] LOAD_ROOM(Load indoor room, room=300*)
 24: 0x07A1 [0x75] LOAD_ROOM(No action)
 25: 0x07A3 [0x92] Cid (ID: 17748011/0x010ED02B)->Render.Flags3 ^= 0x01
 26: 0x07A9 [0x92] Raibaht (ID: 17748012/0x010ED02C)->Render.Flags3 ^= 0x01
 27: 0x07AF [0x94] Cid (ID: 17748011/0x010ED02B)->Render.Flags3 ^= 0x01
 28: 0x07B5 [0x94] Raibaht (ID: 17748012/0x010ED02C)->Render.Flags3 ^= 0x01
 29: 0x07BB [0x94] LocalPlayer->Render.Flags3 ^= 0x01
 30: 0x07C1 [0xBA] SET_ENTITY_POSITION(entity_id=Raibaht (ID: 17748012/0x010ED02C), pos_x=-49.500*, pos_z=0.000*, pos_y=-10.000*, direction=11.2°*)
 31: 0x07CE [0xBA] SET_ENTITY_POSITION(entity_id=LocalPlayer, pos_x=-47.000*, pos_z=-0.500*, pos_y=-10.000*, direction=191.2°*)
 32: 0x07DB [0x4A] Raibaht (ID: 17748012/0x010ED02C) looks at LocalPlayer
 33: 0x07E4 [0x4A] LocalPlayer looks at Raibaht (ID: 17748012/0x010ED02C)
 34: 0x07ED [0x6F] WAIT_FRAME_DELAY: Yield until WaitTime reaches zero
 35: 0x07EE [0x76] CHECK_ENTITY_RENDER_FLAGS: Wait until Raibaht (ID: 17748012/0x010ED02C) Render.Flags0 and Render.Flags3 conditions are met
 36: 0x07F3 [0x29] REQ_SET_WAIT(priority=0x10, entity_id=Raibaht (ID: 17748012/0x010ED02C), tag_num=0x56)
 37: 0x07FA [0x80] LOAD_WAIT(entity=Raibaht (ID: 17748012/0x010ED02C))
 38: 0x07FF [0x1C] WAIT(60* ticks)
 39: 0x0802 [0x45] LOAD_SCHEDULED_TASK: Load scheduler "fdi1" with entities [LocalPlayer, LocalPlayer], work=[200*, 0*]
 40: 0x0813 [0x45] LOAD_SCHEDULED_TASK: Load scheduler "s020" with entities [EventEntity, EventEntity], work=[783*, 0*]
 41: 0x0824 [0x1C] WAIT(30* ticks)
 42: 0x0827 [0x27] REQ_SET(priority=0x10, entity_id=LocalPlayer, tag_num=0xB8)
 43: 0x082E [0x1C] WAIT(120* ticks)
 44: 0x0831 [0x2A] GET_REQ_LEVEL(level=16, entity_id=LocalPlayer)
 45: 0x0837 [0x66] LOAD_EXT_SCHEDULER_MAIN: Load scheduler "tlk0" with entities [Raibaht (ID: 17748012/0x010ED02C), Raibaht (ID: 17748012/0x010ED02C)], work=69*
 46: 0x0846 [0x2B] Raibaht (ID: 17748012/0x010ED02C) [7439*]:
    → "Wh-what!? You say you...saw them?"
 47: 0x084D [0x1C] WAIT(120* ticks)
 48: 0x0850 [0x23] WAIT_FOR_DIALOG_INTERACTION
 49: 0x0851 [0x66] LOAD_EXT_SCHEDULER_MAIN: Load scheduler "tlk1" with entities [Raibaht (ID: 17748012/0x010ED02C), Raibaht (ID: 17748012/0x010ED02C)], work=69*
 50: 0x0860 [0x27] REQ_SET(priority=0x10, entity_id=LocalPlayer, tag_num=0xBA)
 51: 0x0867 [0x1C] WAIT(75* ticks)
 52: 0x086A [0x66] LOAD_EXT_SCHEDULER_MAIN: Load scheduler "kizl" with entities [Raibaht (ID: 17748012/0x010ED02C), Raibaht (ID: 17748012/0x010ED02C)], work=201*
 53: 0x0879 [0x03] Work_Zone[2] = 3028*
 54: 0x087E [0x03] Work_Zone[3] = 3029*
 55: 0x0883 [0x48] [System] [7440*]:
    → "You hand over the $3 and $3."
 56: 0x0886 [0x1C] WAIT(60* ticks)
 57: 0x0889 [0x52] END_LOAD_SCHEDULER: End scheduler "s020" with entities [EventEntity, EventEntity], work=783*
 58: 0x0898 [0x45] LOAD_SCHEDULED_TASK: Load scheduler "s021" with entities [EventEntity, EventEntity], work=[783*, 0*]
 59: 0x08A9 [0x1C] WAIT(60* ticks)
 60: 0x08AC [0x66] LOAD_EXT_SCHEDULER_MAIN: Load scheduler "kizm" with entities [Raibaht (ID: 17748012/0x010ED02C), Raibaht (ID: 17748012/0x010ED02C)], work=201*
 61: 0x08BB [0x1C] WAIT(120* ticks)
 62: 0x08BE [0x7C] Raibaht (ID: 17748012/0x010ED02C)->Render.Flags2 |= 0x00
 63: 0x08C4 [0x2B] Raibaht (ID: 17748012/0x010ED02C) [7441*]:
    → "This..."
 64: 0x08CB [0x23] WAIT_FOR_DIALOG_INTERACTION
 65: 0x08CC [0x1C] WAIT(180* ticks)
 66: 0x08CF [0x7C] Raibaht (ID: 17748012/0x010ED02C)->Render.Flags2 |= 0x01
 67: 0x08D5 [0x2B] Raibaht (ID: 17748012/0x010ED02C) [7442*]:
    → "This was Sirius's ring."
 68: 0x08DC [0x23] WAIT_FOR_DIALOG_INTERACTION
 69: 0x08DD [0x1C] WAIT(120* ticks)
 70: 0x08E0 [0x23] WAIT_FOR_DIALOG_INTERACTION
 71: 0x08E1 [0x52] END_LOAD_SCHEDULER: End scheduler "s021" with entities [EventEntity, EventEntity], work=783*
 72: 0x08F0 [0x02] IF !(LocalPlayer->Race == 5*) GOTO 0x090C
 73: 0x08F8 [0x45] LOAD_SCHEDULED_TASK: Load scheduler "st22" with entities [EventEntity, EventEntity], work=[783*, 0*]
 74: 0x0909 [0x01] GOTO 0x0939
 75: 0x090C [0x02] IF !(LocalPlayer->Race == 6*) GOTO 0x0928
 76: 0x0914 [0x45] LOAD_SCHEDULED_TASK: Load scheduler "st22" with entities [EventEntity, EventEntity], work=[783*, 0*]
 77: 0x0925 [0x01] GOTO 0x0939
 78: 0x0928 [0x45] LOAD_SCHEDULED_TASK: Load scheduler "s022" with entities [EventEntity, EventEntity], work=[783*, 0*]

SUBROUTINE_0939:
 79: 0x0939 [0x66] LOAD_EXT_SCHEDULER_MAIN: Load scheduler "kiz1" with entities [Raibaht (ID: 17748012/0x010ED02C), Raibaht (ID: 17748012/0x010ED02C)], work=201*
 80: 0x0948 [0x2B] Raibaht (ID: 17748012/0x010ED02C) [7444*]:
    → "And this... This is Almid's locket."
 81: 0x094F [0x1C] WAIT(180* ticks)
 82: 0x0952 [0x23] WAIT_FOR_DIALOG_INTERACTION
 83: 0x0953 [0x02] IF !(LocalPlayer->Race == 5*) GOTO 0x096D
 84: 0x095B [0x52] END_LOAD_SCHEDULER: End scheduler "st22" with entities [EventEntity, EventEntity], work=783*
 85: 0x096A [0x01] GOTO 0x0996
 86: 0x096D [0x02] IF !(LocalPlayer->Race == 6*) GOTO 0x0987
 87: 0x0975 [0x52] END_LOAD_SCHEDULER: End scheduler "st22" with entities [EventEntity, EventEntity], work=783*
 88: 0x0984 [0x01] GOTO 0x0996
 89: 0x0987 [0x52] END_LOAD_SCHEDULER: End scheduler "s022" with entities [EventEntity, EventEntity], work=783*

SUBROUTINE_0996:
 90: 0x0996 [0x45] LOAD_SCHEDULED_TASK: Load scheduler "s023" with entities [EventEntity, EventEntity], work=[783*, 0*]
 91: 0x09A7 [0x66] LOAD_EXT_SCHEDULER_MAIN: Load scheduler "kiz2" with entities [Raibaht (ID: 17748012/0x010ED02C), Raibaht (ID: 17748012/0x010ED02C)], work=201*
 92: 0x09B6 [0x2B] Raibaht (ID: 17748012/0x010ED02C) [7445*]:
    → "Almid, father of Midras. His real father."
 93: 0x09BD [0x1C] WAIT(120* ticks)
 94: 0x09C0 [0x23] WAIT_FOR_DIALOG_INTERACTION
 95: 0x09C1 [0x6B] STOP_AND_IDLE: Raibaht (ID: 17748012/0x010ED02C) stops current action and resets to idle (animation="idl0")
 96: 0x09CA [0x7B] Raibaht (ID: 17748012/0x010ED02C) stops talking
 97: 0x09CF [0x52] END_LOAD_SCHEDULER: End scheduler "s023" with entities [EventEntity, EventEntity], work=783*
 98: 0x09DE [0x45] LOAD_SCHEDULED_TASK: Load scheduler "s024" with entities [EventEntity, EventEntity], work=[783*, 0*]
 99: 0x09EF [0x1C] WAIT(30* ticks)
100: 0x09F2 [0x27] REQ_SET(priority=0x10, entity_id=Raibaht (ID: 17748012/0x010ED02C), tag_num=0x58)
101: 0x09F9 [0x1C] WAIT(15* ticks)
102: 0x09FC [0x2A] GET_REQ_LEVEL(level=16, entity_id=Raibaht (ID: 17748012/0x010ED02C))
103: 0x0A02 [0x1C] WAIT(480* ticks)
104: 0x0A05 [0x52] END_LOAD_SCHEDULER: End scheduler "s024" with entities [EventEntity, EventEntity], work=783*
105: 0x0A14 [0x45] LOAD_SCHEDULED_TASK: Load scheduler "s025" with entities [EventEntity, EventEntity], work=[783*, 0*]
106: 0x0A25 [0x6E] Raibaht (ID: 17748012/0x010ED02C) uses emote 4*
107: 0x0A2C [0x99] Wait for Raibaht (ID: 17748012/0x010ED02C) animation to complete
108: 0x0A31 [0x2B] Raibaht (ID: 17748012/0x010ED02C) [7446*]:
    → "Gah...Gahahahaha!!!"
109: 0x0A38 [0x1C] WAIT(240* ticks)
110: 0x0A3B [0x23] WAIT_FOR_DIALOG_INTERACTION
111: 0x0A3C [0x6E] Raibaht (ID: 17748012/0x010ED02C) uses emote 6*
112: 0x0A43 [0x99] Wait for Raibaht (ID: 17748012/0x010ED02C) animation to complete
113: 0x0A48 [0x2B] Raibaht (ID: 17748012/0x010ED02C) [7447*]:
    → "Pathetic! And here I was all this time feeling useless, while they were waiting for me the whole time in there!"
114: 0x0A4F [0x23] WAIT_FOR_DIALOG_INTERACTION
115: 0x0A50 [0x2B] Raibaht (ID: 17748012/0x010ED02C) [7448*]:
    → "If only I could have done something...anything. At the time of the accident, we all felt that way, but there was nothing to be done but clear the rubble and bury the bodies."
116: 0x0A57 [0x1C] WAIT(120* ticks)
117: 0x0A5A [0x23] WAIT_FOR_DIALOG_INTERACTION
118: 0x0A5B [0x52] END_LOAD_SCHEDULER: End scheduler "s025" with entities [EventEntity, EventEntity], work=783*
119: 0x0A6A [0x45] LOAD_SCHEDULED_TASK: Load scheduler "s030" with entities [EventEntity, EventEntity], work=[783*, 0*]
120: 0x0A7B [0x2B] Cid (ID: 17748011/0x010ED02B) [7449*]:
    → "Hey, Raibaht! Come in here and give me a hand!"
121: 0x0A82 [0x23] WAIT_FOR_DIALOG_INTERACTION
122: 0x0A83 [0x1C] WAIT(60* ticks)
123: 0x0A86 [0x52] END_LOAD_SCHEDULER: End scheduler "s030" with entities [EventEntity, EventEntity], work=783*
124: 0x0A95 [0x45] LOAD_SCHEDULED_TASK: Load scheduler "s031" with entities [EventEntity, EventEntity], work=[783*, 0*]
125: 0x0AA6 [0x2B] Raibaht (ID: 17748012/0x010ED02C) [7450*]:
    → "At times like this, you're better off laughing!"
126: 0x0AAD [0x23] WAIT_FOR_DIALOG_INTERACTION
127: 0x0AAE [0x6E] Raibaht (ID: 17748012/0x010ED02C) uses emote 4*
128: 0x0AB5 [0x99] Wait for Raibaht (ID: 17748012/0x010ED02C) animation to complete
129: 0x0ABA [0x2B] Raibaht (ID: 17748012/0x010ED02C) [7446*]:
    → "Gah...Gahahahaha!!!"
130: 0x0AC1 [0x1C] WAIT(240* ticks)
131: 0x0AC4 [0x23] WAIT_FOR_DIALOG_INTERACTION
132: 0x0AC5 [0x52] END_LOAD_SCHEDULER: End scheduler "s031" with entities [EventEntity, EventEntity], work=783*
133: 0x0AD4 [0x45] LOAD_SCHEDULED_TASK: Load scheduler "s032" with entities [EventEntity, EventEntity], work=[783*, 0*]
134: 0x0AE5 [0x2B] Cid (ID: 17748011/0x010ED02B) [7451*]:
    → "Yeesh! What's with that racket? If you don't quit that, I might just start calling you "Loud Mountain" or something!"
135: 0x0AEC [0x23] WAIT_FOR_DIALOG_INTERACTION
136: 0x0AED [0x1C] WAIT(60* ticks)
137: 0x0AF0 [0x45] LOAD_SCHEDULED_TASK: Load scheduler "boff" with entities [EventEntity, EventEntity], work=[783*, 0*]
138: 0x0B01 [0x55] WAIT_LOAD_SCHEDULER: Wait for scheduler "boff" with entities [EventEntity, EventEntity], work=783*
139: 0x0B10 [0x52] END_LOAD_SCHEDULER: End scheduler "s032" with entities [EventEntity, EventEntity], work=783*
140: 0x0B1F [0x45] LOAD_SCHEDULED_TASK: Load scheduler "s026" with entities [EventEntity, EventEntity], work=[783*, 0*]
141: 0x0B30 [0x81] SET_ENTITY_BLINKING(blink_flag=0x00, entity=Raibaht (ID: 17748012/0x010ED02C))
142: 0x0B36 [0x2B] Raibaht (ID: 17748012/0x010ED02C) [7452*]:
    → "Of course, Chief. You may call me whatever you wish!"
143: 0x0B3D [0x23] WAIT_FOR_DIALOG_INTERACTION
144: 0x0B3E [0x1C] WAIT(120* ticks)
145: 0x0B41 [0x81] SET_ENTITY_BLINKING(blink_flag=0x01, entity=Raibaht (ID: 17748012/0x010ED02C))
146: 0x0B47 [0x52] END_LOAD_SCHEDULER: End scheduler "s026" with entities [EventEntity, EventEntity], work=783*
147: 0x0B56 [0x02] IF !(LocalPlayer->Race == 5*) GOTO 0x0B72
148: 0x0B5E [0x45] LOAD_SCHEDULED_TASK: Load scheduler "st27" with entities [EventEntity, EventEntity], work=[783*, 0*]
149: 0x0B6F [0x01] GOTO 0x0B9F
150: 0x0B72 [0x02] IF !(LocalPlayer->Race == 6*) GOTO 0x0B8E
151: 0x0B7A [0x45] LOAD_SCHEDULED_TASK: Load scheduler "st27" with entities [EventEntity, EventEntity], work=[783*, 0*]
152: 0x0B8B [0x01] GOTO 0x0B9F
153: 0x0B8E [0x45] LOAD_SCHEDULED_TASK: Load scheduler "s027" with entities [EventEntity, EventEntity], work=[783*, 0*]

SUBROUTINE_0B9F:
154: 0x0B9F [0x4A] Raibaht (ID: 17748012/0x010ED02C) looks at LocalPlayer
155: 0x0BA8 [0x6F] WAIT_FRAME_DELAY: Yield until WaitTime reaches zero
156: 0x0BA9 [0x76] CHECK_ENTITY_RENDER_FLAGS: Wait until Raibaht (ID: 17748012/0x010ED02C) Render.Flags0 and Render.Flags3 conditions are met
157: 0x0BAE [0x1C] WAIT(15* ticks)
158: 0x0BB1 [0x27] REQ_SET(priority=0x10, entity_id=Raibaht (ID: 17748012/0x010ED02C), tag_num=0x5B)
159: 0x0BB8 [0x2A] GET_REQ_LEVEL(level=16, entity_id=Raibaht (ID: 17748012/0x010ED02C))
160: 0x0BBE [0x1C] WAIT(15* ticks)
161: 0x0BC1 [0x2B] Raibaht (ID: 17748012/0x010ED02C) [7453*]:
    → "Hey, listen. Don't tell Cid about any of this. It's better if he doesn't know."
162: 0x0BC8 [0x23] WAIT_FOR_DIALOG_INTERACTION
163: 0x0BC9 [0x1C] WAIT(120* ticks)
164: 0x0BCC [0x7B] Raibaht (ID: 17748012/0x010ED02C) stops talking
165: 0x0BD1 [0x66] LOAD_EXT_SCHEDULER_MAIN: Load scheduler "pas0" with entities [Raibaht (ID: 17748012/0x010ED02C), Raibaht (ID: 17748012/0x010ED02C)], work=131*
166: 0x0BE0 [0x1C] WAIT(10* ticks)
167: 0x0BE3 [0x02] IF !(LocalPlayer->Race == 5*) GOTO 0x0BFD
168: 0x0BEB [0x52] END_LOAD_SCHEDULER: End scheduler "st27" with entities [EventEntity, EventEntity], work=783*
169: 0x0BFA [0x01] GOTO 0x0C26
170: 0x0BFD [0x02] IF !(LocalPlayer->Race == 6*) GOTO 0x0C17
171: 0x0C05 [0x52] END_LOAD_SCHEDULER: End scheduler "st27" with entities [EventEntity, EventEntity], work=783*
172: 0x0C14 [0x01] GOTO 0x0C26
173: 0x0C17 [0x52] END_LOAD_SCHEDULER: End scheduler "s027" with entities [EventEntity, EventEntity], work=783*

SUBROUTINE_0C26:
174: 0x0C26 [0x45] LOAD_SCHEDULED_TASK: Load scheduler "s028" with entities [EventEntity, EventEntity], work=[783*, 0*]
175: 0x0C37 [0x1C] WAIT(180* ticks)
176: 0x0C3A [0x2B] Raibaht (ID: 17748012/0x010ED02C) [7454*]:
    → "Hurry and take that locket to Midras. He should have it."
177: 0x0C41 [0x23] WAIT_FOR_DIALOG_INTERACTION
178: 0x0C42 [0x1C] WAIT(30* ticks)
179: 0x0C45 [0x66] LOAD_EXT_SCHEDULER_MAIN: Load scheduler "tlk0" with entities [Raibaht (ID: 17748012/0x010ED02C), Raibaht (ID: 17748012/0x010ED02C)], work=69*
180: 0x0C54 [0x2B] Raibaht (ID: 17748012/0x010ED02C) [7455*]:
    → "Hopefully it will help him understand his real father."
181: 0x0C5B [0x1C] WAIT(120* ticks)
182: 0x0C5E [0x23] WAIT_FOR_DIALOG_INTERACTION
183: 0x0C5F [0x66] LOAD_EXT_SCHEDULER_MAIN: Load scheduler "tlk1" with entities [Raibaht (ID: 17748012/0x010ED02C), Raibaht (ID: 17748012/0x010ED02C)], work=69*
184: 0x0C6E [0x2B] Raibaht (ID: 17748012/0x010ED02C) [7456*]:
    → "I will take the ring to Hilda. It's hers now."
185: 0x0C75 [0x23] WAIT_FOR_DIALOG_INTERACTION
186: 0x0C76 [0x1C] WAIT(30* ticks)
187: 0x0C79 [0x52] END_LOAD_SCHEDULER: End scheduler "s028" with entities [EventEntity, EventEntity], work=783*
188: 0x0C88 [0x45] LOAD_SCHEDULED_TASK: Load scheduler "s033" with entities [EventEntity, EventEntity], work=[783*, 0*]
189: 0x0C99 [0x2B] Cid (ID: 17748011/0x010ED02B) [7457*]:
    → "Hey, Raibaht! You got ears on your head!?"
190: 0x0CA0 [0x23] WAIT_FOR_DIALOG_INTERACTION
191: 0x0CA1 [0x1C] WAIT(60* ticks)
192: 0x0CA4 [0x45] LOAD_SCHEDULED_TASK: Load scheduler "boff" with entities [EventEntity, EventEntity], work=[783*, 0*]
193: 0x0CB5 [0x55] WAIT_LOAD_SCHEDULER: Wait for scheduler "boff" with entities [EventEntity, EventEntity], work=783*
194: 0x0CC4 [0x52] END_LOAD_SCHEDULER: End scheduler "s033" with entities [EventEntity, EventEntity], work=783*
195: 0x0CD3 [0x45] LOAD_SCHEDULED_TASK: Load scheduler "s029" with entities [EventEntity, EventEntity], work=[783*, 0*]
196: 0x0CE4 [0x6E] Raibaht (ID: 17748012/0x010ED02C) uses emote 26*
197: 0x0CEB [0x99] Wait for Raibaht (ID: 17748012/0x010ED02C) animation to complete
198: 0x0CF0 [0x2B] Raibaht (ID: 17748012/0x010ED02C) [7458*]:
    → "Yes, Chief. I have ears."
199: 0x0CF7 [0x1C] WAIT(180* ticks)
200: 0x0CFA [0x23] WAIT_FOR_DIALOG_INTERACTION
201: 0x0CFB [0x27] REQ_SET(priority=0x10, entity_id=Raibaht (ID: 17748012/0x010ED02C), tag_num=0x5A)
202: 0x0D02 [0x7B] LocalPlayer stops talking
203: 0x0D07 [0x27] REQ_SET(priority=0x10, entity_id=LocalPlayer, tag_num=0xBF)
204: 0x0D0E [0x1C] WAIT(10* ticks)
205: 0x0D11 [0x03] Work_Zone[2] = 4386*
206: 0x0D16 [0x2B] Raibaht (ID: 17748012/0x010ED02C) [7459*]:
    → "Well, then. I think I'll finish early today and go out for a big plate...of $0."
207: 0x0D1D [0x1C] WAIT(60* ticks)
208: 0x0D20 [0x4A] LocalPlayer looks at Raibaht (ID: 17748012/0x010ED02C)
209: 0x0D29 [0x1C] WAIT(180* ticks)
210: 0x0D2C [0x27] REQ_SET(priority=0x10, entity_id=Door:Cid's Lab (ID: 17748046/0x010ED04E), tag_num=0x03)
211: 0x0D33 [0x1C] WAIT(120* ticks)
212: 0x0D36 [0x45] LOAD_SCHEDULED_TASK: Load scheduler "fdo1" with entities [LocalPlayer, LocalPlayer], work=[200*, 0*]
213: 0x0D47 [0x55] WAIT_LOAD_SCHEDULER: Wait for scheduler "fdo1" with entities [LocalPlayer, LocalPlayer], work=200*
214: 0x0D56 [0x52] END_LOAD_SCHEDULER: End scheduler "s029" with entities [EventEntity, EventEntity], work=783*
215: 0x0D65 [0x27] REQ_SET(priority=0x10, entity_id=Raibaht (ID: 17748012/0x010ED02C), tag_num=0x57)
216: 0x0D6C [0x5C] MUSIC_CONTROL: Set Idle (Day) music to song 154*
217: 0x0D70 [0x5C] MUSIC_CONTROL: Set Idle (Night) music to song 154*
218: 0x0D74 [0x9A] WAIT_MUSIC_SERVER()
219: 0x0D75 [0x5D] SET_MUSIC_VOLUME(volume=127*, fade_time=1*)
220: 0x0D7A [0x1C] WAIT(15* ticks)
221: 0x0D7D [0xAB] EventEntity->DespawnValue = 0* // Set despawn value
222: 0x0D81 [0x1C] WAIT(1* ticks)
223: 0x0D84 [0x46] CAMERA_CONTROL: Restore default settings
224: 0x0D86 [0x45] LOAD_SCHEDULED_TASK: Load scheduler "fdi2" with entities [LocalPlayer, LocalPlayer], work=[200*, 0*]
225: 0x0D97 [0x21] END_EVENT
226: 0x0D98 [0x00] END_REQSTACK()
```
