# 17747997 - Alois

## Common Data

| Field            | Value                |
|------------------|----------------------|
| Zone             | Metalworks (ID: 237) |
| Block Size       | 324 bytes            |
| Total Events     | 14                   |
| References Count | 16                   |

## List of Events

| Event ID                 | Entrypoint   |   Size |   Instructions |
|--------------------------|--------------|--------|----------------|
| [65535](#event-65535)    | 0x0000       |      1 |              1 |
| [372](#event-372)        | 0x0001       |      1 |              1 |
| [373](#event-373)        | 0x0002       |     97 |             17 |
| [370](#event-370)        | 0x0063       |     11 |              5 |
| [65535.1](#event-655351) | 0x006E       |      6 |              2 |
| [715](#event-715)        | 0x0074       |      3 |              2 |
| [767](#event-767)        | 0x0077       |      3 |              2 |
| [773](#event-773)        | 0x007A       |      1 |              1 |
| [774](#event-774)        | 0x007B       |     16 |              6 |
| [775](#event-775)        | 0x008B       |     16 |              6 |
| [776](#event-776)        | 0x009B       |      1 |              1 |
| [65535.2](#event-655352) | 0x009C       |     19 |              7 |
| [778](#event-778)        | 0x00AF       |     11 |              5 |
| [805](#event-805)        | 0x00BA       |      1 |              1 |

## DAT References (imed_data)

|   Index | Hex Value   |   Dec Value |
|---------|-------------|-------------|
|       0 | 0x110A      |        4362 |
|       1 | 0x000A      |          10 |
|       2 | 0x00EE      |         238 |
|       3 | 0x1DB7      |        7607 |
|       4 | 0x1DB8      |        7608 |
|       5 | 0x1DB9      |        7609 |
|       6 | 0x00C9      |         201 |
|       7 | 0x0000      |           0 |
|       8 | 0x1D50      |        7504 |
|       9 | 0x01DD      |         477 |
|      10 | 0x2292      |        8850 |
|      11 | 0x2297      |        8855 |
|      12 | 0x1802D     |       98349 |
|      13 | 0x33E0      |       13280 |
|      14 | 0xFFFFB127  |  4294947111 |
|      15 | 0x22AA      |        8874 |

## String References

- **7504**: Good senators like myself take time to listen to the pleas of the masses, unlike our young and inept president.
- **7607**: Oooh! You've brought me $7! I just love these cooked--
- **7608**: Uh...I mean, this is very important to the safety of Bastok, yes! It's imperative that you do not tell anyone you've brought this to me!
- **7609**: You have proven yourself to be a great patriot! I will be following your career with great interest.
- **8850**: <Player>, you are to travel to Rabao and obtain further details on your task from Dancing Wolf. He has already been sent to investigate the location of the salt.
- **8855**: Did you have this salt inspected by Dancing Wolf before bringing it to me? How am I supposed to know that this is truly $3 if you haven't had it checked? Back to Rabao with you!
- **8874**: The young politicians these days have no respect for their elders! Why, in my day...

## Events

### Event 65535

#### Metadata

| Field        | Value   |
|--------------|---------|
| Entrypoint   | 0x0000  |
| Data Size    | 1 bytes |
| Instructions | 1       |

```
      00 01 02 03 04 05 06 07  08 09 0A 0B 0C 0D 0E 0F
      -- -- -- -- -- -- -- --  -- -- -- -- -- -- -- --
0000: 00                                                .               
```

#### Opcodes

```
  0: 0x0000 [0x00] END_REQSTACK()
```

### Event 372

#### Metadata

| Field        | Value   |
|--------------|---------|
| Entrypoint   | 0x0001  |
| Data Size    | 1 bytes |
| Instructions | 1       |

```
      00 01 02 03 04 05 06 07  08 09 0A 0B 0C 0D 0E 0F
      -- -- -- -- -- -- -- --  -- -- -- -- -- -- -- --
0000:    00                                              .              
```

#### Opcodes

```
  0: 0x0001 [0x00] END_REQSTACK()
```

### Event 373

#### Metadata

| Field        | Value    |
|--------------|----------|
| Entrypoint   | 0x0002   |
| Data Size    | 97 bytes |
| Instructions | 17       |

```
      00 01 02 03 04 05 06 07  08 09 0A 0B 0C 0D 0E 0F
      -- -- -- -- -- -- -- --  -- -- -- -- -- -- -- --
0000:       03 09 10 00 80 42  1E F0 FF FF 7F 1C 01 80    .....B........
0010: 5B 02 80 1D D0 0E 01 1D  D0 0E 01 74 6C 6B 30 1D  [..........tlk0.
0020: 03 80 23 6B 69 64 6C 30  1D D0 0E 01 1D 04 80 23  ..#kidl0.......#
0030: 5B 02 80 1D D0 0E 01 1D  D0 0E 01 70 61 73 30 1D  [..........pas0.
0040: 05 80 23 53 1D D0 0E 01  1D D0 0E 01 70 61 73 30  ..#S........pas0
0050: 45 06 80 F8 FF FF 7F F8  FF FF 7F 71 73 74 63 07  E..........qstc.
0060: 80 21 00                                          .!.             
```

#### Opcodes

```
  0: 0x0002 [0x03] Work_Zone[9] = 4362*
  1: 0x0007 [0x42] SET_CLI_EVENT_CANCEL_DATA()
  2: 0x0008 [0x1E] EventEntity looks at LocalPlayer and starts talking
  3: 0x000D [0x1C] WAIT(10* ticks)
  4: 0x0010 [0x5B] LOAD_EXT_SCHEDULER: Load scheduler "tlk0" with entities [Alois (ID: 17747997/0x010ED01D), Alois (ID: 17747997/0x010ED01D)], work=238*
  5: 0x001F [0x1D] PRINT_EVENT_MESSAGE(message_id=7607*)
    → "Oooh! You've brought me $7! I just love these cooked--"
  6: 0x0022 [0x23] WAIT_FOR_DIALOG_INTERACTION
  7: 0x0023 [0x6B] STOP_AND_IDLE: Alois (ID: 17747997/0x010ED01D) stops current action and resets to idle (animation="idl0")
  8: 0x002C [0x1D] PRINT_EVENT_MESSAGE(message_id=7608*)
    → "Uh...I mean, this is very important to the safety of Bastok, yes! It's imperative that you do not tell anyone you've brought this to me!"
  9: 0x002F [0x23] WAIT_FOR_DIALOG_INTERACTION
 10: 0x0030 [0x5B] LOAD_EXT_SCHEDULER: Load scheduler "pas0" with entities [Alois (ID: 17747997/0x010ED01D), Alois (ID: 17747997/0x010ED01D)], work=238*
 11: 0x003F [0x1D] PRINT_EVENT_MESSAGE(message_id=7609*)
    → "You have proven yourself to be a great patriot! I will be following your career with great interest."
 12: 0x0042 [0x23] WAIT_FOR_DIALOG_INTERACTION
 13: 0x0043 [0x53] WAIT_SCHEDULER_TASK: Wait for scheduler "pas0" with entities [Alois (ID: 17747997/0x010ED01D), Alois (ID: 17747997/0x010ED01D)]
 14: 0x0050 [0x45] LOAD_SCHEDULED_TASK: Load scheduler "qstc" with entities [EventEntity, EventEntity], work=[201*, 0*]
 15: 0x0061 [0x21] END_EVENT
 16: 0x0062 [0x00] END_REQSTACK()
```

### Event 370

#### Metadata

| Field        | Value    |
|--------------|----------|
| Entrypoint   | 0x0063   |
| Data Size    | 11 bytes |
| Instructions | 5        |

```
      00 01 02 03 04 05 06 07  08 09 0A 0B 0C 0D 0E 0F
      -- -- -- -- -- -- -- --  -- -- -- -- -- -- -- --
0060:          1E F0 FF FF 7F  1D 08 80 23 21 00           ........#!.  
```

#### Opcodes

```
  0: 0x0063 [0x1E] EventEntity looks at LocalPlayer and starts talking
  1: 0x0068 [0x1D] PRINT_EVENT_MESSAGE(message_id=7504*)
    → "Good senators like myself take time to listen to the pleas of the masses, unlike our young and inept president."
  2: 0x006B [0x23] WAIT_FOR_DIALOG_INTERACTION
  3: 0x006C [0x21] END_EVENT
  4: 0x006D [0x00] END_REQSTACK()
```

### Event 65535.1

#### Metadata

| Field        | Value   |
|--------------|---------|
| Entrypoint   | 0x006E  |
| Data Size    | 6 bytes |
| Instructions | 2       |

```
      00 01 02 03 04 05 06 07  08 09 0A 0B 0C 0D 0E 0F
      -- -- -- -- -- -- -- --  -- -- -- -- -- -- -- --
0060:                                            5E 69                ^i
0070: 64 6C 30 00                                       dl0.            
```

#### Opcodes

```
  0: 0x006E [0x5E] EventEntity goes idle (kills current action) (animation: "idl0")
  1: 0x0073 [0x00] END_REQSTACK()
```

### Event 715

#### Metadata

| Field        | Value   |
|--------------|---------|
| Entrypoint   | 0x0074  |
| Data Size    | 3 bytes |
| Instructions | 2       |

```
      00 01 02 03 04 05 06 07  08 09 0A 0B 0C 0D 0E 0F
      -- -- -- -- -- -- -- --  -- -- -- -- -- -- -- --
0070:             22 01 00                                  "..         
```

#### Opcodes

```
  0: 0x0074 [0x22] ENTITY_HIDE_FLAG(enabled=0x01)
  1: 0x0076 [0x00] END_REQSTACK()
```

### Event 767

#### Metadata

| Field        | Value   |
|--------------|---------|
| Entrypoint   | 0x0077  |
| Data Size    | 3 bytes |
| Instructions | 2       |

```
      00 01 02 03 04 05 06 07  08 09 0A 0B 0C 0D 0E 0F
      -- -- -- -- -- -- -- --  -- -- -- -- -- -- -- --
0070:                      22  01 00                           "..      
```

#### Opcodes

```
  0: 0x0077 [0x22] ENTITY_HIDE_FLAG(enabled=0x01)
  1: 0x0079 [0x00] END_REQSTACK()
```

### Event 773

#### Metadata

| Field        | Value   |
|--------------|---------|
| Entrypoint   | 0x007A  |
| Data Size    | 1 bytes |
| Instructions | 1       |

```
      00 01 02 03 04 05 06 07  08 09 0A 0B 0C 0D 0E 0F
      -- -- -- -- -- -- -- --  -- -- -- -- -- -- -- --
0070:                                00                           .     
```

#### Opcodes

```
  0: 0x007A [0x00] END_REQSTACK()
```

### Event 774

#### Metadata

| Field        | Value    |
|--------------|----------|
| Entrypoint   | 0x007B   |
| Data Size    | 16 bytes |
| Instructions | 6        |

```
      00 01 02 03 04 05 06 07  08 09 0A 0B 0C 0D 0E 0F
      -- -- -- -- -- -- -- --  -- -- -- -- -- -- -- --
0070:                                   03 09 10 09 80             .....
0080: 1E F0 FF FF 7F 1D 0A 80  23 21 00                 ........#!.     
```

#### Opcodes

```
  0: 0x007B [0x03] Work_Zone[9] = 477*
  1: 0x0080 [0x1E] EventEntity looks at LocalPlayer and starts talking
  2: 0x0085 [0x1D] PRINT_EVENT_MESSAGE(message_id=8850*)
    → "<Player>, you are to travel to Rabao and obtain further details on your task from Dancing Wolf. He has already been sent to investigate the location of the salt."
  3: 0x0088 [0x23] WAIT_FOR_DIALOG_INTERACTION
  4: 0x0089 [0x21] END_EVENT
  5: 0x008A [0x00] END_REQSTACK()
```

### Event 775

#### Metadata

| Field        | Value    |
|--------------|----------|
| Entrypoint   | 0x008B   |
| Data Size    | 16 bytes |
| Instructions | 6        |

```
      00 01 02 03 04 05 06 07  08 09 0A 0B 0C 0D 0E 0F
      -- -- -- -- -- -- -- --  -- -- -- -- -- -- -- --
0080:                                   03 09 10 09 80             .....
0090: 1E F0 FF FF 7F 1D 0B 80  23 21 00                 ........#!.     
```

#### Opcodes

```
  0: 0x008B [0x03] Work_Zone[9] = 477*
  1: 0x0090 [0x1E] EventEntity looks at LocalPlayer and starts talking
  2: 0x0095 [0x1D] PRINT_EVENT_MESSAGE(message_id=8855*)
    → "Did you have this salt inspected by Dancing Wolf before bringing it to me? How am I supposed to know that this is truly $3 if you haven't had it checked? Back to Rabao with you!"
  3: 0x0098 [0x23] WAIT_FOR_DIALOG_INTERACTION
  4: 0x0099 [0x21] END_EVENT
  5: 0x009A [0x00] END_REQSTACK()
```

### Event 776

#### Metadata

| Field        | Value   |
|--------------|---------|
| Entrypoint   | 0x009B  |
| Data Size    | 1 bytes |
| Instructions | 1       |

```
      00 01 02 03 04 05 06 07  08 09 0A 0B 0C 0D 0E 0F
      -- -- -- -- -- -- -- --  -- -- -- -- -- -- -- --
0090:                                   00                         .    
```

#### Opcodes

```
  0: 0x009B [0x00] END_REQSTACK()
```

### Event 65535.2

#### Metadata

| Field        | Value    |
|--------------|----------|
| Entrypoint   | 0x009C   |
| Data Size    | 19 bytes |
| Instructions | 7        |

```
      00 01 02 03 04 05 06 07  08 09 0A 0B 0C 0D 0E 0F
      -- -- -- -- -- -- -- --  -- -- -- -- -- -- -- --
0090:                                      1F 00 0C 80              ....
00A0: 0D 80 0E 80 1F 01 6F 1E  18 D0 0E 01 6F 70 00     ......o.....op. 
```

#### Opcodes

```
  0: 0x009C [0x1F] MOVE_ENTITY: EventEntity moves to X=98.349*, Z=13.280*, Y=-20.185*
  1: 0x00A4 [0x1F] MOVE_ENTITY: Update entity position (mode=1)
  2: 0x00A6 [0x6F] WAIT_FRAME_DELAY: Yield until WaitTime reaches zero
  3: 0x00A7 [0x1E] EventEntity looks at Lucius (ID: 17747992/0x010ED018) and starts talking
  4: 0x00AC [0x6F] WAIT_FRAME_DELAY: Yield until WaitTime reaches zero
  5: 0x00AD [0x70] WAIT_ENTITY_RENDER_FLAG: Wait while EventEntity->Render.Flags3 bit 2 is set (cancel turn if not)
  6: 0x00AE [0x00] END_REQSTACK()
```

### Event 778

#### Metadata

| Field        | Value    |
|--------------|----------|
| Entrypoint   | 0x00AF   |
| Data Size    | 11 bytes |
| Instructions | 5        |

```
      00 01 02 03 04 05 06 07  08 09 0A 0B 0C 0D 0E 0F
      -- -- -- -- -- -- -- --  -- -- -- -- -- -- -- --
00A0:                                               1E                 .
00B0: F0 FF FF 7F 1D 0F 80 23  21 00                    .......#!.      
```

#### Opcodes

```
  0: 0x00AF [0x1E] EventEntity looks at LocalPlayer and starts talking
  1: 0x00B4 [0x1D] PRINT_EVENT_MESSAGE(message_id=8874*)
    → "The young politicians these days have no respect for their elders! Why, in my day..."
  2: 0x00B7 [0x23] WAIT_FOR_DIALOG_INTERACTION
  3: 0x00B8 [0x21] END_EVENT
  4: 0x00B9 [0x00] END_REQSTACK()
```

### Event 805

#### Metadata

| Field        | Value   |
|--------------|---------|
| Entrypoint   | 0x00BA  |
| Data Size    | 1 bytes |
| Instructions | 1       |

```
      00 01 02 03 04 05 06 07  08 09 0A 0B 0C 0D 0E 0F
      -- -- -- -- -- -- -- --  -- -- -- -- -- -- -- --
00B0:                                00                           .     
```

#### Opcodes

```
  0: 0x00BA [0x00] END_REQSTACK()
```
