# 17748012 - Raibaht

## Common Data

| Field            | Value                |
|------------------|----------------------|
| Zone             | Metalworks (ID: 237) |
| Block Size       | 2348 bytes           |
| Total Events     | 94                   |
| References Count | 114                  |

## List of Events

| Event ID                   | Entrypoint   |   Size |   Instructions |
|----------------------------|--------------|--------|----------------|
| [65535](#event-65535)      | 0x0000       |      1 |              1 |
| [501](#event-501)          | 0x0001       |     11 |              5 |
| [503](#event-503)          | 0x000C       |     10 |              2 |
| [65535.1](#event-655351)   | 0x0016       |     14 |              4 |
| [65535.2](#event-655352)   | 0x0024       |     42 |             10 |
| [65535.3](#event-655353)   | 0x004E       |     48 |              8 |
| [65535.4](#event-655354)   | 0x007E       |     67 |             17 |
| [509](#event-509)          | 0x00C1       |      1 |              1 |
| [65535.5](#event-655355)   | 0x00C2       |     23 |              5 |
| [510](#event-510)          | 0x00D9       |     11 |              5 |
| [751](#event-751)          | 0x00E4       |     52 |             16 |
| [755](#event-755)          | 0x0118       |      1 |              1 |
| [760](#event-760)          | 0x0119       |      1 |              1 |
| [65535.6](#event-655356)   | 0x011A       |     39 |              8 |
| [764](#event-764)          | 0x0141       |      1 |              1 |
| [65535.7](#event-655357)   | 0x0142       |     34 |              7 |
| [798](#event-798)          | 0x0164       |      1 |              1 |
| [849](#event-849)          | 0x0165       |      7 |              2 |
| [65535.8](#event-655358)   | 0x016C       |     10 |              2 |
| [852](#event-852)          | 0x0176       |      7 |              2 |
| [853](#event-853)          | 0x017D       |      7 |              2 |
| [854](#event-854)          | 0x0184       |      7 |              2 |
| [855](#event-855)          | 0x018B       |      7 |              2 |
| [65535.9](#event-655359)   | 0x0192       |     20 |              3 |
| [65535.10](#event-6553510) | 0x01A6       |     15 |              3 |
| [857](#event-857)          | 0x01B5       |      7 |              2 |
| [65535.11](#event-6553511) | 0x01BC       |     10 |              2 |
| [65535.12](#event-6553512) | 0x01C6       |     16 |              2 |
| [65535.13](#event-6553513) | 0x01D6       |     22 |              4 |
| [65535.14](#event-6553514) | 0x01EC       |     16 |              2 |
| [65535.15](#event-6553515) | 0x01FC       |     14 |              2 |
| [65535.16](#event-6553516) | 0x020A       |     16 |              2 |
| [65535.17](#event-6553517) | 0x021A       |     14 |              2 |
| [65535.18](#event-6553518) | 0x0228       |     16 |              2 |
| [65535.19](#event-6553519) | 0x0238       |     14 |              2 |
| [65535.20](#event-6553520) | 0x0246       |     16 |              2 |
| [65535.21](#event-6553521) | 0x0256       |     14 |              2 |
| [65535.22](#event-6553522) | 0x0264       |     16 |              2 |
| [65535.23](#event-6553523) | 0x0274       |     22 |              4 |
| [65535.24](#event-6553524) | 0x028A       |     16 |              2 |
| [65535.25](#event-6553525) | 0x029A       |     14 |              2 |
| [65535.26](#event-6553526) | 0x02A8       |     16 |              2 |
| [65535.27](#event-6553527) | 0x02B8       |     14 |              2 |
| [65535.28](#event-6553528) | 0x02C6       |     16 |              2 |
| [65535.29](#event-6553529) | 0x02D6       |     14 |              2 |
| [65535.30](#event-6553530) | 0x02E4       |     16 |              2 |
| [65535.31](#event-6553531) | 0x02F4       |     14 |              2 |
| [65535.32](#event-6553532) | 0x0302       |      9 |              3 |
| [65535.33](#event-6553533) | 0x030B       |     16 |              2 |
| [65535.34](#event-6553534) | 0x031B       |     14 |              2 |
| [65535.35](#event-6553535) | 0x0329       |     16 |              2 |
| [65535.36](#event-6553536) | 0x0339       |     14 |              2 |
| [65535.37](#event-6553537) | 0x0347       |     16 |              2 |
| [65535.38](#event-6553538) | 0x0357       |     14 |              2 |
| [65535.39](#event-6553539) | 0x0365       |     16 |              2 |
| [65535.40](#event-6553540) | 0x0375       |     14 |              2 |
| [864](#event-864)          | 0x0383       |      1 |              1 |
| [65535.41](#event-6553541) | 0x0384       |     10 |              2 |
| [871](#event-871)          | 0x038E       |     27 |             10 |
| [865](#event-865)          | 0x03A9       |     59 |             14 |
| [866](#event-866)          | 0x03E4       |      1 |              1 |
| [872](#event-872)          | 0x03E5       |     33 |             12 |
| [867](#event-867)          | 0x0406       |     59 |             14 |
| [868](#event-868)          | 0x0441       |      1 |              1 |
| [873](#event-873)          | 0x0442       |     51 |             16 |
| [869](#event-869)          | 0x0475       |      1 |              1 |
| [65535.42](#event-6553542) | 0x0476       |     10 |              2 |
| [65535.43](#event-6553543) | 0x0480       |     15 |              5 |
| [874](#event-874)          | 0x048F       |     15 |              8 |
| [870](#event-870)          | 0x049E       |      1 |              1 |
| [897](#event-897)          | 0x049F       |      1 |              1 |
| [898](#event-898)          | 0x04A0       |      1 |              1 |
| [65535.44](#event-6553544) | 0x04A1       |      1 |              1 |
| [65535.45](#event-6553545) | 0x04A2       |     10 |              2 |
| [65535.46](#event-6553546) | 0x04AC       |     10 |              2 |
| [65535.47](#event-6553547) | 0x04B6       |     15 |              5 |
| [933](#event-933)          | 0x04C5       |     18 |              8 |
| [979](#event-979)          | 0x04D7       |      1 |              1 |
| [65535.48](#event-6553548) | 0x04D8       |     39 |              8 |
| [65535.49](#event-6553549) | 0x04FF       |     14 |              4 |
| [65535.50](#event-6553550) | 0x050D       |     19 |              3 |
| [987](#event-987)          | 0x0520       |      1 |              1 |
| [65535.51](#event-6553551) | 0x0521       |     32 |              8 |
| [990](#event-990)          | 0x0541       |      1 |              1 |
| [991](#event-991)          | 0x0542       |      1 |              1 |
| [992](#event-992)          | 0x0543       |      1 |              1 |
| [65535.52](#event-6553552) | 0x0544       |      4 |              2 |
| [65535.53](#event-6553553) | 0x0548       |      2 |              2 |
| [65535.54](#event-6553554) | 0x054A       |     22 |              8 |
| [65535.55](#event-6553555) | 0x0560       |     14 |              4 |
| [65535.56](#event-6553556) | 0x056E       |     41 |              9 |
| [65535.57](#event-6553557) | 0x0597       |     14 |              4 |
| [1035](#event-1035)        | 0x05A5       |     26 |              8 |
| [1036](#event-1036)        | 0x05BF       |     28 |             10 |

## DAT References (imed_data)

|   Index | Hex Value   |   Dec Value |
|---------|-------------|-------------|
|       0 | 0x1D64      |        7524 |
|       1 | 0xFFFF9969  |  4294941033 |
|       2 | 0xFFFFF1F4  |  4294963700 |
|       3 | 0xFFFFD8F0  |  4294957296 |
|       4 | 0x00F9      |         249 |
|       5 | 0x000D      |          13 |
|       6 | 0xFFFFAE71  |  4294946417 |
|       7 | 0xFFFFF668  |  4294964840 |
|       8 | 0xFFFFC087  |  4294951047 |
|       9 | 0xFFFFEE78  |  4294962808 |
|      10 | 0xFFFFD602  |  4294956546 |
|      11 | 0xFFFFC40E  |  4294951950 |
|      12 | 0xFFFFF28C  |  4294963852 |
|      13 | 0xFFFFD514  |  4294956308 |
|      14 | 0xFFFFC4AF  |  4294952111 |
|      15 | 0xFFFFF7AE  |  4294965166 |
|      16 | 0x003C      |          60 |
|      17 | 0xFFFFC3F7  |  4294951927 |
|      18 | 0xFFFFFCE0  |  4294966496 |
|      19 | 0x001E      |          30 |
|      20 | 0x0064      |         100 |
|      21 | 0x03FE      |        1022 |
|      22 | 0xFFFFC277  |  4294951543 |
|      23 | 0xFFFFEF3E  |  4294963006 |
|      24 | 0x0DAF      |        3503 |
|      25 | 0xFFFFC6D0  |  4294952656 |
|      26 | 0xFFFFF474  |  4294964340 |
|      27 | 0x1EF4      |        7924 |
|      28 | 0x00EB      |         235 |
|      29 | 0x2170      |        8560 |
|      30 | 0x2171      |        8561 |
|      31 | 0x2172      |        8562 |
|      32 | 0x2173      |        8563 |
|      33 | 0x2174      |        8564 |
|      34 | 0xFFFFD106  |  4294955270 |
|      35 | 0xFFFFF8E0  |  4294965472 |
|      36 | 0x0CB2      |        3250 |
|      37 | 0xFFFFD252  |  4294955602 |
|      38 | 0x00C4      |         196 |
|      39 | 0xFFFFC4DF  |  4294952159 |
|      40 | 0xFFFFE929  |  4294961449 |
|      41 | 0x0D78      |        3448 |
|      42 | 0xFFFFCC2E  |  4294954030 |
|      43 | 0xFFFFF06E  |  4294963310 |
|      44 | 0xFFFF9390  |  4294939536 |
|      45 | 0xFFFFF0ED  |  4294963437 |
|      46 | 0x0DB8      |        3512 |
|      47 | 0xFFFF912C  |  4294938924 |
|      48 | 0xFFFFEF76  |  4294963062 |
|      49 | 0xFFFFD8F1  |  4294957297 |
|      50 | 0x0C40      |        3136 |
|      51 | 0xFFFF901E  |  4294938654 |
|      52 | 0xFFFFED6C  |  4294962540 |
|      53 | 0x0D26      |        3366 |
|      54 | 0x003D      |          61 |
|      55 | 0x0041      |          65 |
|      56 | 0x0045      |          69 |
|      57 | 0xFFFF90D6  |  4294938838 |
|      58 | 0xFFFFF2F9  |  4294963961 |
|      59 | 0x096E      |        2414 |
|      60 | 0x26D4      |        9940 |
|      61 | 0x26D5      |        9941 |
|      62 | 0x26D6      |        9942 |
|      63 | 0x26D7      |        9943 |
|      64 | 0x00C9      |         201 |
|      65 | 0x0000      |           0 |
|      66 | 0x26DF      |        9951 |
|      67 | 0x26E0      |        9952 |
|      68 | 0x26E1      |        9953 |
|      69 | 0x26E2      |        9954 |
|      70 | 0x26E8      |        9960 |
|      71 | 0x26E9      |        9961 |
|      72 | 0x26EA      |        9962 |
|      73 | 0xFFFFC77A  |  4294952826 |
|      74 | 0xFFFFF3A9  |  4294964137 |
|      75 | 0x0D2F      |        3375 |
|      76 | 0xFFFFCA42  |  4294953538 |
|      77 | 0xFFFFFFA1  |  4294967201 |
|      78 | 0x2701      |        9985 |
|      79 | 0x1E622     |      124450 |
|      80 | 0xFFFEDACE  |  4294892238 |
|      81 | 0x2133      |        8499 |
|      82 | 0x0236      |         566 |
|      83 | 0xFFFFAF1C  |  4294946588 |
|      84 | 0x2A7E      |       10878 |
|      85 | 0xFFFFF31C  |  4294963996 |
|      86 | 0x0BF9      |        3065 |
|      87 | 0x000B      |          11 |
|      88 | 0xFFFF8FD5  |  4294938581 |
|      89 | 0x2A12      |       10770 |
|      90 | 0x29BB      |       10683 |
|      91 | 0x29C0      |       10688 |
|      92 | 0xFFFFBBC8  |  4294949832 |
|      93 | 0xFFFFF45B  |  4294964315 |
|      94 | 0xFFFFC95A  |  4294953306 |
|      95 | 0x063A      |        1594 |
|      96 | 0xFFFFC289  |  4294951561 |
|      97 | 0xFFFFD515  |  4294956309 |
|      98 | 0xFFFFC6C5  |  4294952645 |
|      99 | 0xFFFFF0E0  |  4294963424 |
|     100 | 0x000A      |          10 |
|     101 | 0x087F      |        2175 |
|     102 | 0x000F      |          15 |
|     103 | 0xFFFF38C8  |  4294916296 |
|     104 | 0x012C      |         300 |
|     105 | 0xFFFF48AE  |  4294920366 |
|     106 | 0xFFFFFEAC  |  4294966956 |
|     107 | 0xFFFF6AFA  |  4294929146 |
|     108 | 0xFFFFFA06  |  4294965766 |
|     109 | 0xFFFF81CA  |  4294934986 |
|     110 | 0xFFFFF952  |  4294965586 |
|     111 | 0xFFFF9C50  |  4294941776 |
|     112 | 0xFFFFF8D0  |  4294965456 |
|     113 | 0xFFFF3CB0  |  4294917296 |

## String References

- **7524**: Do not bother the chief. Every second he spends away from his research is a loss to the Metalworks.
- **7924**: An invitation from the Steaming Sheep? Hmm... Please do not mention this to the Chief. But tell the proprietor I will go visit her establishment as soon as I can.
- **8560**: You're a dark knight, I see. I have a favor to ask that may be of some interest to you.
- **8561**: The Galka methods of darksteel-working are recently being looked on in a different light. This, coupled with the recent rise in adventurers bringing in darksteel ore, has resulted in an increase in the production of darksteel goods.
- **8562**: This is why I need an old book called $3.
- **8563**: I heard that it was once kept here in the Metalworks, but I have no knowledge of its present location.
- **8564**: They say that in the olden days, all dark knight equipment was forged from darksteel. I would be willing to repay you handsomely if you could retrieve that book for me.
- **9951**: The adventurer we seek has been ordered to travel to Delkfutt's Tower and defeat a monster known as Orna.
- **9952**: Find that man and have him tell you where he hid the $3.
- **9960**: Until recently, Chief Cid had been working on what he called a "semiperpetual motion engine." However, after months of making little or no progress, he finally gave up on the idea.
- **9961**: If he were only able to acquire the $1 that had been used in previous semiperpetual motion experiments...
- **9962**: It is said that the ancients were able to process the material and harness its hidden power, but since then, no one has succeeded in reproducing those results.
- **9985**: ...<Player>. If you ever wish to...rethink the name you have given the chief's airship, please bring another $1. Any further aid would be greatly appreciated.
- **10683**: <Player>'s badge flashes brightly.
- **10688**: Chief Cid has nothing to say about that nation...

## Events

### Event 65535

#### Metadata

| Field        | Value   |
|--------------|---------|
| Entrypoint   | 0x0000  |
| Data Size    | 1 bytes |
| Instructions | 1       |

```
      00 01 02 03 04 05 06 07  08 09 0A 0B 0C 0D 0E 0F
      -- -- -- -- -- -- -- --  -- -- -- -- -- -- -- --
0000: 00                                                .               
```

#### Opcodes

```
  0: 0x0000 [0x00] END_REQSTACK()
```

### Event 501

#### Metadata

| Field        | Value    |
|--------------|----------|
| Entrypoint   | 0x0001   |
| Data Size    | 11 bytes |
| Instructions | 5        |

```
      00 01 02 03 04 05 06 07  08 09 0A 0B 0C 0D 0E 0F
      -- -- -- -- -- -- -- --  -- -- -- -- -- -- -- --
0000:    1E F0 FF FF 7F 1D 00  80 23 21 00               ........#!.    
```

#### Opcodes

```
  0: 0x0001 [0x1E] EventEntity looks at LocalPlayer and starts talking
  1: 0x0006 [0x1D] PRINT_EVENT_MESSAGE(message_id=7524*)
    → "Do not bother the chief. Every second he spends away from his research is a loss to the Metalworks."
  2: 0x0009 [0x23] WAIT_FOR_DIALOG_INTERACTION
  3: 0x000A [0x21] END_EVENT
  4: 0x000B [0x00] END_REQSTACK()
```

### Event 503

#### Metadata

| Field        | Value    |
|--------------|----------|
| Entrypoint   | 0x000C   |
| Data Size    | 10 bytes |
| Instructions | 2        |

```
      00 01 02 03 04 05 06 07  08 09 0A 0B 0C 0D 0E 0F
      -- -- -- -- -- -- -- --  -- -- -- -- -- -- -- --
0000:                                      37 01 80 02              7...
0010: 80 03 80 04 80 00                                 ......          
```

#### Opcodes

```
  0: 0x000C [0x37] UPDATE_EVENT_POSITION_AND_DIR: x=-26.263*, z=-3.596*, y=-10.000*, direction=21.9°*
  1: 0x0015 [0x00] END_REQSTACK()
```

### Event 65535.1

#### Metadata

| Field        | Value    |
|--------------|----------|
| Entrypoint   | 0x0016   |
| Data Size    | 14 bytes |
| Instructions | 4        |

```
      00 01 02 03 04 05 06 07  08 09 0A 0B 0C 0D 0E 0F
      -- -- -- -- -- -- -- --  -- -- -- -- -- -- -- --
0010:                   32 05  80 1F 00 06 80 07 80 03        2.........
0020: 80 1F 01 00                                       ....            
```

#### Opcodes

```
  0: 0x0016 [0x32] ExtData[1]->MainSpeed = 13* * 0.1
  1: 0x0019 [0x1F] MOVE_ENTITY: EventEntity moves to X=-20.879*, Z=-2.456*, Y=-10.000*
  2: 0x0021 [0x1F] MOVE_ENTITY: Update entity position (mode=1)
  3: 0x0023 [0x00] END_REQSTACK()
```

### Event 65535.2

#### Metadata

| Field        | Value    |
|--------------|----------|
| Entrypoint   | 0x0024   |
| Data Size    | 42 bytes |
| Instructions | 10       |

```
      00 01 02 03 04 05 06 07  08 09 0A 0B 0C 0D 0E 0F
      -- -- -- -- -- -- -- --  -- -- -- -- -- -- -- --
0020:             32 05 80 1F  00 08 80 09 80 0A 80 1F      2...........
0030: 01 1F 00 0B 80 0C 80 0D  80 1F 01 1F 00 0E 80 0F  ................
0040: 80 0D 80 1F 01 1E 2B D0  0E 01 1C 10 80 00        ......+.......  
```

#### Opcodes

```
  0: 0x0024 [0x32] ExtData[1]->MainSpeed = 13* * 0.1
  1: 0x0027 [0x1F] MOVE_ENTITY: EventEntity moves to X=-16.249*, Z=-4.488*, Y=-10.750*
  2: 0x002F [0x1F] MOVE_ENTITY: Update entity position (mode=1)
  3: 0x0031 [0x1F] MOVE_ENTITY: EventEntity moves to X=-15.346*, Z=-3.444*, Y=-10.988*
  4: 0x0039 [0x1F] MOVE_ENTITY: Update entity position (mode=1)
  5: 0x003B [0x1F] MOVE_ENTITY: EventEntity moves to X=-15.185*, Z=-2.130*, Y=-10.988*
  6: 0x0043 [0x1F] MOVE_ENTITY: Update entity position (mode=1)
  7: 0x0045 [0x1E] EventEntity looks at Cid (ID: 17748011/0x010ED02B) and starts talking
  8: 0x004A [0x1C] WAIT(60* ticks)
  9: 0x004D [0x00] END_REQSTACK()
```

### Event 65535.3

#### Metadata

| Field        | Value    |
|--------------|----------|
| Entrypoint   | 0x004E   |
| Data Size    | 48 bytes |
| Instructions | 8        |

```
      00 01 02 03 04 05 06 07  08 09 0A 0B 0C 0D 0E 0F
      -- -- -- -- -- -- -- --  -- -- -- -- -- -- -- --
0040:                                            32 05                2.
0050: 80 1F 00 11 80 12 80 0D  80 1F 01 1C 13 80 66 10  ..............f.
0060: 80 F8 FF FF 7F F8 FF FF  7F 70 61 73 30 1C 14 80  .........pas0...
0070: 53 F8 FF FF 7F F8 FF FF  7F 70 61 73 30 00        S........pas0.  
```

#### Opcodes

```
  0: 0x004E [0x32] ExtData[1]->MainSpeed = 13* * 0.1
  1: 0x0051 [0x1F] MOVE_ENTITY: EventEntity moves to X=-15.369*, Z=-0.800*, Y=-10.988*
  2: 0x0059 [0x1F] MOVE_ENTITY: Update entity position (mode=1)
  3: 0x005B [0x1C] WAIT(30* ticks)
  4: 0x005E [0x66] LOAD_EXT_SCHEDULER_MAIN: Load scheduler "pas0" with entities [EventEntity, EventEntity], work=60*
  5: 0x006D [0x1C] WAIT(100* ticks)
  6: 0x0070 [0x53] WAIT_SCHEDULER_TASK: Wait for scheduler "pas0" with entities [EventEntity, EventEntity]
  7: 0x007D [0x00] END_REQSTACK()
```

### Event 65535.4

#### Metadata

| Field        | Value    |
|--------------|----------|
| Entrypoint   | 0x007E   |
| Data Size    | 67 bytes |
| Instructions | 17       |

```
      00 01 02 03 04 05 06 07  08 09 0A 0B 0C 0D 0E 0F
      -- -- -- -- -- -- -- --  -- -- -- -- -- -- -- --
0070:                                            7B F8                {.
0080: FF FF 7F 1C 10 80 39 15  80 6F 70 32 05 80 1F 00  ......9..op2....
0090: 11 80 12 80 0D 80 1F 01  1F 00 0E 80 0F 80 0D 80  ................
00A0: 1F 01 1F 00 0B 80 0C 80  0D 80 1F 01 1F 00 08 80  ................
00B0: 09 80 0A 80 1F 01 1F 00  06 80 07 80 03 80 1F 01  ................
00C0: 00                                                .               
```

#### Opcodes

```
  0: 0x007E [0x7B] EventEntity stops talking
  1: 0x0083 [0x1C] WAIT(60* ticks)
  2: 0x0086 [0x39] SET_ENTITY_DIRECTION(direction=5.6°*)
  3: 0x0089 [0x6F] WAIT_FRAME_DELAY: Yield until WaitTime reaches zero
  4: 0x008A [0x70] WAIT_ENTITY_RENDER_FLAG: Wait while EventEntity->Render.Flags3 bit 2 is set (cancel turn if not)
  5: 0x008B [0x32] ExtData[1]->MainSpeed = 13* * 0.1
  6: 0x008E [0x1F] MOVE_ENTITY: EventEntity moves to X=-15.369*, Z=-0.800*, Y=-10.988*
  7: 0x0096 [0x1F] MOVE_ENTITY: Update entity position (mode=1)
  8: 0x0098 [0x1F] MOVE_ENTITY: EventEntity moves to X=-15.185*, Z=-2.130*, Y=-10.988*
  9: 0x00A0 [0x1F] MOVE_ENTITY: Update entity position (mode=1)
 10: 0x00A2 [0x1F] MOVE_ENTITY: EventEntity moves to X=-15.346*, Z=-3.444*, Y=-10.988*
 11: 0x00AA [0x1F] MOVE_ENTITY: Update entity position (mode=1)
 12: 0x00AC [0x1F] MOVE_ENTITY: EventEntity moves to X=-16.249*, Z=-4.488*, Y=-10.750*
 13: 0x00B4 [0x1F] MOVE_ENTITY: Update entity position (mode=1)
 14: 0x00B6 [0x1F] MOVE_ENTITY: EventEntity moves to X=-20.879*, Z=-2.456*, Y=-10.000*
 15: 0x00BE [0x1F] MOVE_ENTITY: Update entity position (mode=1)
 16: 0x00C0 [0x00] END_REQSTACK()
```

### Event 509

#### Metadata

| Field        | Value   |
|--------------|---------|
| Entrypoint   | 0x00C1  |
| Data Size    | 1 bytes |
| Instructions | 1       |

```
      00 01 02 03 04 05 06 07  08 09 0A 0B 0C 0D 0E 0F
      -- -- -- -- -- -- -- --  -- -- -- -- -- -- -- --
00C0:    00                                              .              
```

#### Opcodes

```
  0: 0x00C1 [0x00] END_REQSTACK()
```

### Event 65535.5

#### Metadata

| Field        | Value    |
|--------------|----------|
| Entrypoint   | 0x00C2   |
| Data Size    | 23 bytes |
| Instructions | 5        |

```
      00 01 02 03 04 05 06 07  08 09 0A 0B 0C 0D 0E 0F
      -- -- -- -- -- -- -- --  -- -- -- -- -- -- -- --
00C0:       32 05 80 37 16 80  17 80 0D 80 18 80 1F 00    2..7..........
00D0: 19 80 1A 80 0D 80 1F 01  00                       .........       
```

#### Opcodes

```
  0: 0x00C2 [0x32] ExtData[1]->MainSpeed = 13* * 0.1
  1: 0x00C5 [0x37] UPDATE_EVENT_POSITION_AND_DIR: x=-15.753*, z=-4.290*, y=-10.988*, direction=307.9°*
  2: 0x00CE [0x1F] MOVE_ENTITY: EventEntity moves to X=-14.640*, Z=-2.956*, Y=-10.988*
  3: 0x00D6 [0x1F] MOVE_ENTITY: Update entity position (mode=1)
  4: 0x00D8 [0x00] END_REQSTACK()
```

### Event 510

#### Metadata

| Field        | Value    |
|--------------|----------|
| Entrypoint   | 0x00D9   |
| Data Size    | 11 bytes |
| Instructions | 5        |

```
      00 01 02 03 04 05 06 07  08 09 0A 0B 0C 0D 0E 0F
      -- -- -- -- -- -- -- --  -- -- -- -- -- -- -- --
00D0:                             1E F0 FF FF 7F 1D 1B           .......
00E0: 80 23 21 00                                       .#!.            
```

#### Opcodes

```
  0: 0x00D9 [0x1E] EventEntity looks at LocalPlayer and starts talking
  1: 0x00DE [0x1D] PRINT_EVENT_MESSAGE(message_id=7924*)
    → "An invitation from the Steaming Sheep? Hmm... Please do not mention this to the Chief. But tell the proprietor I will go visit her establishment as soon as I can."
  2: 0x00E1 [0x23] WAIT_FOR_DIALOG_INTERACTION
  3: 0x00E2 [0x21] END_EVENT
  4: 0x00E3 [0x00] END_REQSTACK()
```

### Event 751

#### Metadata

| Field        | Value    |
|--------------|----------|
| Entrypoint   | 0x00E4   |
| Data Size    | 52 bytes |
| Instructions | 16       |

```
      00 01 02 03 04 05 06 07  08 09 0A 0B 0C 0D 0E 0F
      -- -- -- -- -- -- -- --  -- -- -- -- -- -- -- --
00E0:             03 09 10 1C  80 1E F0 FF FF 7F 1D 1D      ............
00F0: 80 23 66 10 80 F8 FF FF  7F F8 FF FF 7F 74 6C 6B  .#f..........tlk
0100: 30 1D 1E 80 23 1D 1F 80  23 1D 20 80 23 5E 69 64  0...#...#. .#^id
0110: 6C 30 1D 21 80 23 21 00                           l0.!.#!.        
```

#### Opcodes

```
  0: 0x00E4 [0x03] Work_Zone[9] = 235*
  1: 0x00E9 [0x1E] EventEntity looks at LocalPlayer and starts talking
  2: 0x00EE [0x1D] PRINT_EVENT_MESSAGE(message_id=8560*)
    → "You're a dark knight, I see. I have a favor to ask that may be of some interest to you."
  3: 0x00F1 [0x23] WAIT_FOR_DIALOG_INTERACTION
  4: 0x00F2 [0x66] LOAD_EXT_SCHEDULER_MAIN: Load scheduler "tlk0" with entities [EventEntity, EventEntity], work=60*
  5: 0x0101 [0x1D] PRINT_EVENT_MESSAGE(message_id=8561*)
    → "The Galka methods of darksteel-working are recently being looked on in a different light. This, coupled with the recent rise in adventurers bringing in darksteel ore, has resulted in an increase in the production of darksteel goods."
  6: 0x0104 [0x23] WAIT_FOR_DIALOG_INTERACTION
  7: 0x0105 [0x1D] PRINT_EVENT_MESSAGE(message_id=8562*)
    → "This is why I need an old book called $3."
  8: 0x0108 [0x23] WAIT_FOR_DIALOG_INTERACTION
  9: 0x0109 [0x1D] PRINT_EVENT_MESSAGE(message_id=8563*)
    → "I heard that it was once kept here in the Metalworks, but I have no knowledge of its present location."
 10: 0x010C [0x23] WAIT_FOR_DIALOG_INTERACTION
 11: 0x010D [0x5E] EventEntity goes idle (kills current action) (animation: "idl0")
 12: 0x0112 [0x1D] PRINT_EVENT_MESSAGE(message_id=8564*)
    → "They say that in the olden days, all dark knight equipment was forged from darksteel. I would be willing to repay you handsomely if you could retrieve that book for me."
 13: 0x0115 [0x23] WAIT_FOR_DIALOG_INTERACTION
 14: 0x0116 [0x21] END_EVENT
 15: 0x0117 [0x00] END_REQSTACK()
```

### Event 755

#### Metadata

| Field        | Value   |
|--------------|---------|
| Entrypoint   | 0x0118  |
| Data Size    | 1 bytes |
| Instructions | 1       |

```
      00 01 02 03 04 05 06 07  08 09 0A 0B 0C 0D 0E 0F
      -- -- -- -- -- -- -- --  -- -- -- -- -- -- -- --
0110:                          00                               .       
```

#### Opcodes

```
  0: 0x0118 [0x00] END_REQSTACK()
```

### Event 760

#### Metadata

| Field        | Value   |
|--------------|---------|
| Entrypoint   | 0x0119  |
| Data Size    | 1 bytes |
| Instructions | 1       |

```
      00 01 02 03 04 05 06 07  08 09 0A 0B 0C 0D 0E 0F
      -- -- -- -- -- -- -- --  -- -- -- -- -- -- -- --
0110:                             00                             .      
```

#### Opcodes

```
  0: 0x0119 [0x00] END_REQSTACK()
```

### Event 65535.6

#### Metadata

| Field        | Value    |
|--------------|----------|
| Entrypoint   | 0x011A   |
| Data Size    | 39 bytes |
| Instructions | 8        |

```
      00 01 02 03 04 05 06 07  08 09 0A 0B 0C 0D 0E 0F
      -- -- -- -- -- -- -- --  -- -- -- -- -- -- -- --
0110:                                32 05 80 79 00 F8            2..y..
0120: FF FF 7F 2B D0 0E 01 37  22 80 23 80 0D 80 24 80  ...+...7".#...$.
0130: 1F 00 25 80 26 80 0D 80  1F 01 6F 1E 2B D0 0E 01  ..%.&.....o.+...
0140: 00                                                .               
```

#### Opcodes

```
  0: 0x011A [0x32] ExtData[1]->MainSpeed = 13* * 0.1
  1: 0x011D [0x79] EventEntity looks at Cid (ID: 17748011/0x010ED02B) (Basic look)
  2: 0x0127 [0x37] UPDATE_EVENT_POSITION_AND_DIR: x=-12.026*, z=-1.824*, y=-10.988*, direction=285.6°*
  3: 0x0130 [0x1F] MOVE_ENTITY: EventEntity moves to X=-11.694*, Z=0.196*, Y=-10.988*
  4: 0x0138 [0x1F] MOVE_ENTITY: Update entity position (mode=1)
  5: 0x013A [0x6F] WAIT_FRAME_DELAY: Yield until WaitTime reaches zero
  6: 0x013B [0x1E] EventEntity looks at Cid (ID: 17748011/0x010ED02B) and starts talking
  7: 0x0140 [0x00] END_REQSTACK()
```

### Event 764

#### Metadata

| Field        | Value   |
|--------------|---------|
| Entrypoint   | 0x0141  |
| Data Size    | 1 bytes |
| Instructions | 1       |

```
      00 01 02 03 04 05 06 07  08 09 0A 0B 0C 0D 0E 0F
      -- -- -- -- -- -- -- --  -- -- -- -- -- -- -- --
0140:    00                                              .              
```

#### Opcodes

```
  0: 0x0141 [0x00] END_REQSTACK()
```

### Event 65535.7

#### Metadata

| Field        | Value    |
|--------------|----------|
| Entrypoint   | 0x0142   |
| Data Size    | 34 bytes |
| Instructions | 7        |

```
      00 01 02 03 04 05 06 07  08 09 0A 0B 0C 0D 0E 0F
      -- -- -- -- -- -- -- --  -- -- -- -- -- -- -- --
0140:       79 00 F8 FF FF 7F  2B D0 0E 01 37 27 80 28    y.....+...7'.(
0150: 80 0D 80 29 80 32 05 80  1F 00 2A 80 2B 80 0D 80  ...).2....*.+...
0160: 1F 01 6F 00                                       ..o.            
```

#### Opcodes

```
  0: 0x0142 [0x79] EventEntity looks at Cid (ID: 17748011/0x010ED02B) (Basic look)
  1: 0x014C [0x37] UPDATE_EVENT_POSITION_AND_DIR: x=-15.137*, z=-5.847*, y=-10.988*, direction=303.0°*
  2: 0x0155 [0x32] ExtData[1]->MainSpeed = 13* * 0.1
  3: 0x0158 [0x1F] MOVE_ENTITY: EventEntity moves to X=-13.266*, Z=-3.986*, Y=-10.988*
  4: 0x0160 [0x1F] MOVE_ENTITY: Update entity position (mode=1)
  5: 0x0162 [0x6F] WAIT_FRAME_DELAY: Yield until WaitTime reaches zero
  6: 0x0163 [0x00] END_REQSTACK()
```

### Event 798

#### Metadata

| Field        | Value   |
|--------------|---------|
| Entrypoint   | 0x0164  |
| Data Size    | 1 bytes |
| Instructions | 1       |

```
      00 01 02 03 04 05 06 07  08 09 0A 0B 0C 0D 0E 0F
      -- -- -- -- -- -- -- --  -- -- -- -- -- -- -- --
0160:             00                                        .           
```

#### Opcodes

```
  0: 0x0164 [0x00] END_REQSTACK()
```

### Event 849

#### Metadata

| Field        | Value   |
|--------------|---------|
| Entrypoint   | 0x0165  |
| Data Size    | 7 bytes |
| Instructions | 2       |

```
      00 01 02 03 04 05 06 07  08 09 0A 0B 0C 0D 0E 0F
      -- -- -- -- -- -- -- --  -- -- -- -- -- -- -- --
0160:                92 01 F8  FF FF 7F 00                   .......    
```

#### Opcodes

```
  0: 0x0165 [0x92] EventEntity->Render.Flags3 ^= 0x01
  1: 0x016B [0x00] END_REQSTACK()
```

### Event 65535.8

#### Metadata

| Field        | Value    |
|--------------|----------|
| Entrypoint   | 0x016C   |
| Data Size    | 10 bytes |
| Instructions | 2        |

```
      00 01 02 03 04 05 06 07  08 09 0A 0B 0C 0D 0E 0F
      -- -- -- -- -- -- -- --  -- -- -- -- -- -- -- --
0160:                                      37 2C 80 2D              7,.-
0170: 80 03 80 2E 80 00                                 ......          
```

#### Opcodes

```
  0: 0x016C [0x37] UPDATE_EVENT_POSITION_AND_DIR: x=-27.760*, z=-3.859*, y=-10.000*, direction=308.7°*
  1: 0x0175 [0x00] END_REQSTACK()
```

### Event 852

#### Metadata

| Field        | Value   |
|--------------|---------|
| Entrypoint   | 0x0176  |
| Data Size    | 7 bytes |
| Instructions | 2       |

```
      00 01 02 03 04 05 06 07  08 09 0A 0B 0C 0D 0E 0F
      -- -- -- -- -- -- -- --  -- -- -- -- -- -- -- --
0170:                   92 01  F8 FF FF 7F 00                 .......   
```

#### Opcodes

```
  0: 0x0176 [0x92] EventEntity->Render.Flags3 ^= 0x01
  1: 0x017C [0x00] END_REQSTACK()
```

### Event 853

#### Metadata

| Field        | Value   |
|--------------|---------|
| Entrypoint   | 0x017D  |
| Data Size    | 7 bytes |
| Instructions | 2       |

```
      00 01 02 03 04 05 06 07  08 09 0A 0B 0C 0D 0E 0F
      -- -- -- -- -- -- -- --  -- -- -- -- -- -- -- --
0170:                                         92 01 F8               ...
0180: FF FF 7F 00                                       ....            
```

#### Opcodes

```
  0: 0x017D [0x92] EventEntity->Render.Flags3 ^= 0x01
  1: 0x0183 [0x00] END_REQSTACK()
```

### Event 854

#### Metadata

| Field        | Value   |
|--------------|---------|
| Entrypoint   | 0x0184  |
| Data Size    | 7 bytes |
| Instructions | 2       |

```
      00 01 02 03 04 05 06 07  08 09 0A 0B 0C 0D 0E 0F
      -- -- -- -- -- -- -- --  -- -- -- -- -- -- -- --
0180:             92 01 F8 FF  FF 7F 00                     .......     
```

#### Opcodes

```
  0: 0x0184 [0x92] EventEntity->Render.Flags3 ^= 0x01
  1: 0x018A [0x00] END_REQSTACK()
```

### Event 855

#### Metadata

| Field        | Value   |
|--------------|---------|
| Entrypoint   | 0x018B  |
| Data Size    | 7 bytes |
| Instructions | 2       |

```
      00 01 02 03 04 05 06 07  08 09 0A 0B 0C 0D 0E 0F
      -- -- -- -- -- -- -- --  -- -- -- -- -- -- -- --
0180:                                   92 01 F8 FF FF             .....
0190: 7F 00                                             ..              
```

#### Opcodes

```
  0: 0x018B [0x92] EventEntity->Render.Flags3 ^= 0x01
  1: 0x0191 [0x00] END_REQSTACK()
```

### Event 65535.9

#### Metadata

| Field        | Value    |
|--------------|----------|
| Entrypoint   | 0x0192   |
| Data Size    | 20 bytes |
| Instructions | 3        |

```
      00 01 02 03 04 05 06 07  08 09 0A 0B 0C 0D 0E 0F
      -- -- -- -- -- -- -- --  -- -- -- -- -- -- -- --
0190:       37 2F 80 30 80 31  80 32 80 79 00 2C D0 0E    7/.0.1.2.y.,..
01A0: 01 9D D0 0E 01 00                                 ......          
```

#### Opcodes

```
  0: 0x0192 [0x37] UPDATE_EVENT_POSITION_AND_DIR: x=-28.372*, z=-4.234*, y=-9.999*, direction=275.6°*
  1: 0x019B [0x79] Raibaht (ID: 17748012/0x010ED02C) looks at Ulmia (ID: 17748125/0x010ED09D) (Basic look)
  2: 0x01A5 [0x00] END_REQSTACK()
```

### Event 65535.10

#### Metadata

| Field        | Value    |
|--------------|----------|
| Entrypoint   | 0x01A6   |
| Data Size    | 15 bytes |
| Instructions | 3        |

```
      00 01 02 03 04 05 06 07  08 09 0A 0B 0C 0D 0E 0F
      -- -- -- -- -- -- -- --  -- -- -- -- -- -- -- --
01A0:                   37 01  80 02 80 03 80 04 80 1E        7.........
01B0: 2B D0 0E 01 00                                    +....           
```

#### Opcodes

```
  0: 0x01A6 [0x37] UPDATE_EVENT_POSITION_AND_DIR: x=-26.263*, z=-3.596*, y=-10.000*, direction=21.9°*
  1: 0x01AF [0x1E] EventEntity looks at Cid (ID: 17748011/0x010ED02B) and starts talking
  2: 0x01B4 [0x00] END_REQSTACK()
```

### Event 857

#### Metadata

| Field        | Value   |
|--------------|---------|
| Entrypoint   | 0x01B5  |
| Data Size    | 7 bytes |
| Instructions | 2       |

```
      00 01 02 03 04 05 06 07  08 09 0A 0B 0C 0D 0E 0F
      -- -- -- -- -- -- -- --  -- -- -- -- -- -- -- --
01B0:                92 01 F8  FF FF 7F 00                   .......    
```

#### Opcodes

```
  0: 0x01B5 [0x92] EventEntity->Render.Flags3 ^= 0x01
  1: 0x01BB [0x00] END_REQSTACK()
```

### Event 65535.11

#### Metadata

| Field        | Value    |
|--------------|----------|
| Entrypoint   | 0x01BC   |
| Data Size    | 10 bytes |
| Instructions | 2        |

```
      00 01 02 03 04 05 06 07  08 09 0A 0B 0C 0D 0E 0F
      -- -- -- -- -- -- -- --  -- -- -- -- -- -- -- --
01B0:                                      37 33 80 34              73.4
01C0: 80 31 80 35 80 00                                 .1.5..          
```

#### Opcodes

```
  0: 0x01BC [0x37] UPDATE_EVENT_POSITION_AND_DIR: x=-28.642*, z=-4.756*, y=-9.999*, direction=295.8°*
  1: 0x01C5 [0x00] END_REQSTACK()
```

### Event 65535.12

#### Metadata

| Field        | Value    |
|--------------|----------|
| Entrypoint   | 0x01C6   |
| Data Size    | 16 bytes |
| Instructions | 2        |

```
      00 01 02 03 04 05 06 07  08 09 0A 0B 0C 0D 0E 0F
      -- -- -- -- -- -- -- --  -- -- -- -- -- -- -- --
01C0:                   66 10  80 F8 FF FF 7F F8 FF FF        f.........
01D0: 7F 74 6C 6B 30 00                                 .tlk0.          
```

#### Opcodes

```
  0: 0x01C6 [0x66] LOAD_EXT_SCHEDULER_MAIN: Load scheduler "tlk0" with entities [EventEntity, EventEntity], work=60*
  1: 0x01D5 [0x00] END_REQSTACK()
```

### Event 65535.13

#### Metadata

| Field        | Value    |
|--------------|----------|
| Entrypoint   | 0x01D6   |
| Data Size    | 22 bytes |
| Instructions | 4        |

```
      00 01 02 03 04 05 06 07  08 09 0A 0B 0C 0D 0E 0F
      -- -- -- -- -- -- -- --  -- -- -- -- -- -- -- --
01D0:                   53 F8  FF FF 7F F8 FF FF 7F 74        S........t
01E0: 6C 6B 30 5E 69 64 6C 30  1C 10 80 00              lk0^idl0....    
```

#### Opcodes

```
  0: 0x01D6 [0x53] WAIT_SCHEDULER_TASK: Wait for scheduler "tlk0" with entities [EventEntity, EventEntity]
  1: 0x01E3 [0x5E] EventEntity goes idle (kills current action) (animation: "idl0")
  2: 0x01E8 [0x1C] WAIT(60* ticks)
  3: 0x01EB [0x00] END_REQSTACK()
```

### Event 65535.14

#### Metadata

| Field        | Value    |
|--------------|----------|
| Entrypoint   | 0x01EC   |
| Data Size    | 16 bytes |
| Instructions | 2        |

```
      00 01 02 03 04 05 06 07  08 09 0A 0B 0C 0D 0E 0F
      -- -- -- -- -- -- -- --  -- -- -- -- -- -- -- --
01E0:                                      66 10 80 F8              f...
01F0: FF FF 7F F8 FF FF 7F 70  61 73 30 00              .......pas0.    
```

#### Opcodes

```
  0: 0x01EC [0x66] LOAD_EXT_SCHEDULER_MAIN: Load scheduler "pas0" with entities [EventEntity, EventEntity], work=60*
  1: 0x01FB [0x00] END_REQSTACK()
```

### Event 65535.15

#### Metadata

| Field        | Value    |
|--------------|----------|
| Entrypoint   | 0x01FC   |
| Data Size    | 14 bytes |
| Instructions | 2        |

```
      00 01 02 03 04 05 06 07  08 09 0A 0B 0C 0D 0E 0F
      -- -- -- -- -- -- -- --  -- -- -- -- -- -- -- --
01F0:                                      53 F8 FF FF              S...
0200: 7F F8 FF FF 7F 70 61 73  30 00                    .....pas0.      
```

#### Opcodes

```
  0: 0x01FC [0x53] WAIT_SCHEDULER_TASK: Wait for scheduler "pas0" with entities [EventEntity, EventEntity]
  1: 0x0209 [0x00] END_REQSTACK()
```

### Event 65535.16

#### Metadata

| Field        | Value    |
|--------------|----------|
| Entrypoint   | 0x020A   |
| Data Size    | 16 bytes |
| Instructions | 2        |

```
      00 01 02 03 04 05 06 07  08 09 0A 0B 0C 0D 0E 0F
      -- -- -- -- -- -- -- --  -- -- -- -- -- -- -- --
0200:                                66 10 80 F8 FF FF            f.....
0210: 7F F8 FF FF 7F 74 68 6B  31 00                    .....thk1.      
```

#### Opcodes

```
  0: 0x020A [0x66] LOAD_EXT_SCHEDULER_MAIN: Load scheduler "thk1" with entities [EventEntity, EventEntity], work=60*
  1: 0x0219 [0x00] END_REQSTACK()
```

### Event 65535.17

#### Metadata

| Field        | Value    |
|--------------|----------|
| Entrypoint   | 0x021A   |
| Data Size    | 14 bytes |
| Instructions | 2        |

```
      00 01 02 03 04 05 06 07  08 09 0A 0B 0C 0D 0E 0F
      -- -- -- -- -- -- -- --  -- -- -- -- -- -- -- --
0210:                                53 F8 FF FF 7F F8            S.....
0220: FF FF 7F 74 68 6B 31 00                           ...thk1.        
```

#### Opcodes

```
  0: 0x021A [0x53] WAIT_SCHEDULER_TASK: Wait for scheduler "thk1" with entities [EventEntity, EventEntity]
  1: 0x0227 [0x00] END_REQSTACK()
```

### Event 65535.18

#### Metadata

| Field        | Value    |
|--------------|----------|
| Entrypoint   | 0x0228   |
| Data Size    | 16 bytes |
| Instructions | 2        |

```
      00 01 02 03 04 05 06 07  08 09 0A 0B 0C 0D 0E 0F
      -- -- -- -- -- -- -- --  -- -- -- -- -- -- -- --
0220:                          66 10 80 F8 FF FF 7F F8          f.......
0230: FF FF 7F 74 68 6B 32 00                           ...thk2.        
```

#### Opcodes

```
  0: 0x0228 [0x66] LOAD_EXT_SCHEDULER_MAIN: Load scheduler "thk2" with entities [EventEntity, EventEntity], work=60*
  1: 0x0237 [0x00] END_REQSTACK()
```

### Event 65535.19

#### Metadata

| Field        | Value    |
|--------------|----------|
| Entrypoint   | 0x0238   |
| Data Size    | 14 bytes |
| Instructions | 2        |

```
      00 01 02 03 04 05 06 07  08 09 0A 0B 0C 0D 0E 0F
      -- -- -- -- -- -- -- --  -- -- -- -- -- -- -- --
0230:                          53 F8 FF FF 7F F8 FF FF          S.......
0240: 7F 74 68 6B 32 00                                 .thk2.          
```

#### Opcodes

```
  0: 0x0238 [0x53] WAIT_SCHEDULER_TASK: Wait for scheduler "thk2" with entities [EventEntity, EventEntity]
  1: 0x0245 [0x00] END_REQSTACK()
```

### Event 65535.20

#### Metadata

| Field        | Value    |
|--------------|----------|
| Entrypoint   | 0x0246   |
| Data Size    | 16 bytes |
| Instructions | 2        |

```
      00 01 02 03 04 05 06 07  08 09 0A 0B 0C 0D 0E 0F
      -- -- -- -- -- -- -- --  -- -- -- -- -- -- -- --
0240:                   66 10  80 F8 FF FF 7F F8 FF FF        f.........
0250: 7F 70 6F 69 30 00                                 .poi0.          
```

#### Opcodes

```
  0: 0x0246 [0x66] LOAD_EXT_SCHEDULER_MAIN: Load scheduler "poi0" with entities [EventEntity, EventEntity], work=60*
  1: 0x0255 [0x00] END_REQSTACK()
```

### Event 65535.21

#### Metadata

| Field        | Value    |
|--------------|----------|
| Entrypoint   | 0x0256   |
| Data Size    | 14 bytes |
| Instructions | 2        |

```
      00 01 02 03 04 05 06 07  08 09 0A 0B 0C 0D 0E 0F
      -- -- -- -- -- -- -- --  -- -- -- -- -- -- -- --
0250:                   53 F8  FF FF 7F F8 FF FF 7F 70        S........p
0260: 6F 69 30 00                                       oi0.            
```

#### Opcodes

```
  0: 0x0256 [0x53] WAIT_SCHEDULER_TASK: Wait for scheduler "poi0" with entities [EventEntity, EventEntity]
  1: 0x0263 [0x00] END_REQSTACK()
```

### Event 65535.22

#### Metadata

| Field        | Value    |
|--------------|----------|
| Entrypoint   | 0x0264   |
| Data Size    | 16 bytes |
| Instructions | 2        |

```
      00 01 02 03 04 05 06 07  08 09 0A 0B 0C 0D 0E 0F
      -- -- -- -- -- -- -- --  -- -- -- -- -- -- -- --
0260:             66 10 80 F8  FF FF 7F F8 FF FF 7F 61      f..........a
0270: 6E 67 30 00                                       ng0.            
```

#### Opcodes

```
  0: 0x0264 [0x66] LOAD_EXT_SCHEDULER_MAIN: Load scheduler "ang0" with entities [EventEntity, EventEntity], work=60*
  1: 0x0273 [0x00] END_REQSTACK()
```

### Event 65535.23

#### Metadata

| Field        | Value    |
|--------------|----------|
| Entrypoint   | 0x0274   |
| Data Size    | 22 bytes |
| Instructions | 4        |

```
      00 01 02 03 04 05 06 07  08 09 0A 0B 0C 0D 0E 0F
      -- -- -- -- -- -- -- --  -- -- -- -- -- -- -- --
0270:             53 F8 FF FF  7F F8 FF FF 7F 61 6E 67      S........ang
0280: 30 5E 69 64 6C 30 1C 10  80 00                    0^idl0....      
```

#### Opcodes

```
  0: 0x0274 [0x53] WAIT_SCHEDULER_TASK: Wait for scheduler "ang0" with entities [EventEntity, EventEntity]
  1: 0x0281 [0x5E] EventEntity goes idle (kills current action) (animation: "idl0")
  2: 0x0286 [0x1C] WAIT(60* ticks)
  3: 0x0289 [0x00] END_REQSTACK()
```

### Event 65535.24

#### Metadata

| Field        | Value    |
|--------------|----------|
| Entrypoint   | 0x028A   |
| Data Size    | 16 bytes |
| Instructions | 2        |

```
      00 01 02 03 04 05 06 07  08 09 0A 0B 0C 0D 0E 0F
      -- -- -- -- -- -- -- --  -- -- -- -- -- -- -- --
0280:                                66 10 80 F8 FF FF            f.....
0290: 7F F8 FF FF 7F 64 69 73  30 00                    .....dis0.      
```

#### Opcodes

```
  0: 0x028A [0x66] LOAD_EXT_SCHEDULER_MAIN: Load scheduler "dis0" with entities [EventEntity, EventEntity], work=60*
  1: 0x0299 [0x00] END_REQSTACK()
```

### Event 65535.25

#### Metadata

| Field        | Value    |
|--------------|----------|
| Entrypoint   | 0x029A   |
| Data Size    | 14 bytes |
| Instructions | 2        |

```
      00 01 02 03 04 05 06 07  08 09 0A 0B 0C 0D 0E 0F
      -- -- -- -- -- -- -- --  -- -- -- -- -- -- -- --
0290:                                53 F8 FF FF 7F F8            S.....
02A0: FF FF 7F 64 69 73 30 00                           ...dis0.        
```

#### Opcodes

```
  0: 0x029A [0x53] WAIT_SCHEDULER_TASK: Wait for scheduler "dis0" with entities [EventEntity, EventEntity]
  1: 0x02A7 [0x00] END_REQSTACK()
```

### Event 65535.26

#### Metadata

| Field        | Value    |
|--------------|----------|
| Entrypoint   | 0x02A8   |
| Data Size    | 16 bytes |
| Instructions | 2        |

```
      00 01 02 03 04 05 06 07  08 09 0A 0B 0C 0D 0E 0F
      -- -- -- -- -- -- -- --  -- -- -- -- -- -- -- --
02A0:                          66 36 80 F8 FF FF 7F F8          f6......
02B0: FF FF 7F 77 61 76 30 00                           ...wav0.        
```

#### Opcodes

```
  0: 0x02A8 [0x66] LOAD_EXT_SCHEDULER_MAIN: Load scheduler "wav0" with entities [EventEntity, EventEntity], work=61*
  1: 0x02B7 [0x00] END_REQSTACK()
```

### Event 65535.27

#### Metadata

| Field        | Value    |
|--------------|----------|
| Entrypoint   | 0x02B8   |
| Data Size    | 14 bytes |
| Instructions | 2        |

```
      00 01 02 03 04 05 06 07  08 09 0A 0B 0C 0D 0E 0F
      -- -- -- -- -- -- -- --  -- -- -- -- -- -- -- --
02B0:                          53 F8 FF FF 7F F8 FF FF          S.......
02C0: 7F 77 61 76 30 00                                 .wav0.          
```

#### Opcodes

```
  0: 0x02B8 [0x53] WAIT_SCHEDULER_TASK: Wait for scheduler "wav0" with entities [EventEntity, EventEntity]
  1: 0x02C5 [0x00] END_REQSTACK()
```

### Event 65535.28

#### Metadata

| Field        | Value    |
|--------------|----------|
| Entrypoint   | 0x02C6   |
| Data Size    | 16 bytes |
| Instructions | 2        |

```
      00 01 02 03 04 05 06 07  08 09 0A 0B 0C 0D 0E 0F
      -- -- -- -- -- -- -- --  -- -- -- -- -- -- -- --
02C0:                   66 37  80 F8 FF FF 7F F8 FF FF        f7........
02D0: 7F 74 6C 62 30 00                                 .tlb0.          
```

#### Opcodes

```
  0: 0x02C6 [0x66] LOAD_EXT_SCHEDULER_MAIN: Load scheduler "tlb0" with entities [EventEntity, EventEntity], work=65*
  1: 0x02D5 [0x00] END_REQSTACK()
```

### Event 65535.29

#### Metadata

| Field        | Value    |
|--------------|----------|
| Entrypoint   | 0x02D6   |
| Data Size    | 14 bytes |
| Instructions | 2        |

```
      00 01 02 03 04 05 06 07  08 09 0A 0B 0C 0D 0E 0F
      -- -- -- -- -- -- -- --  -- -- -- -- -- -- -- --
02D0:                   53 F8  FF FF 7F F8 FF FF 7F 74        S........t
02E0: 6C 62 30 00                                       lb0.            
```

#### Opcodes

```
  0: 0x02D6 [0x53] WAIT_SCHEDULER_TASK: Wait for scheduler "tlb0" with entities [EventEntity, EventEntity]
  1: 0x02E3 [0x00] END_REQSTACK()
```

### Event 65535.30

#### Metadata

| Field        | Value    |
|--------------|----------|
| Entrypoint   | 0x02E4   |
| Data Size    | 16 bytes |
| Instructions | 2        |

```
      00 01 02 03 04 05 06 07  08 09 0A 0B 0C 0D 0E 0F
      -- -- -- -- -- -- -- --  -- -- -- -- -- -- -- --
02E0:             66 37 80 F8  FF FF 7F F8 FF FF 7F 74      f7.........t
02F0: 6C 62 31 00                                       lb1.            
```

#### Opcodes

```
  0: 0x02E4 [0x66] LOAD_EXT_SCHEDULER_MAIN: Load scheduler "tlb1" with entities [EventEntity, EventEntity], work=65*
  1: 0x02F3 [0x00] END_REQSTACK()
```

### Event 65535.31

#### Metadata

| Field        | Value    |
|--------------|----------|
| Entrypoint   | 0x02F4   |
| Data Size    | 14 bytes |
| Instructions | 2        |

```
      00 01 02 03 04 05 06 07  08 09 0A 0B 0C 0D 0E 0F
      -- -- -- -- -- -- -- --  -- -- -- -- -- -- -- --
02F0:             53 F8 FF FF  7F F8 FF FF 7F 74 6C 62      S........tlb
0300: 31 00                                             1.              
```

#### Opcodes

```
  0: 0x02F4 [0x53] WAIT_SCHEDULER_TASK: Wait for scheduler "tlb1" with entities [EventEntity, EventEntity]
  1: 0x0301 [0x00] END_REQSTACK()
```

### Event 65535.32

#### Metadata

| Field        | Value   |
|--------------|---------|
| Entrypoint   | 0x0302  |
| Data Size    | 9 bytes |
| Instructions | 3       |

```
      00 01 02 03 04 05 06 07  08 09 0A 0B 0C 0D 0E 0F
      -- -- -- -- -- -- -- --  -- -- -- -- -- -- -- --
0300:       5E 69 64 6C 30 1C  10 80 00                   ^idl0....     
```

#### Opcodes

```
  0: 0x0302 [0x5E] EventEntity goes idle (kills current action) (animation: "idl0")
  1: 0x0307 [0x1C] WAIT(60* ticks)
  2: 0x030A [0x00] END_REQSTACK()
```

### Event 65535.33

#### Metadata

| Field        | Value    |
|--------------|----------|
| Entrypoint   | 0x030B   |
| Data Size    | 16 bytes |
| Instructions | 2        |

```
      00 01 02 03 04 05 06 07  08 09 0A 0B 0C 0D 0E 0F
      -- -- -- -- -- -- -- --  -- -- -- -- -- -- -- --
0300:                                   66 38 80 F8 FF             f8...
0310: FF 7F F8 FF FF 7F 73 68  61 30 00                 ......sha0.     
```

#### Opcodes

```
  0: 0x030B [0x66] LOAD_EXT_SCHEDULER_MAIN: Load scheduler "sha0" with entities [EventEntity, EventEntity], work=69*
  1: 0x031A [0x00] END_REQSTACK()
```

### Event 65535.34

#### Metadata

| Field        | Value    |
|--------------|----------|
| Entrypoint   | 0x031B   |
| Data Size    | 14 bytes |
| Instructions | 2        |

```
      00 01 02 03 04 05 06 07  08 09 0A 0B 0C 0D 0E 0F
      -- -- -- -- -- -- -- --  -- -- -- -- -- -- -- --
0310:                                   53 F8 FF FF 7F             S....
0320: F8 FF FF 7F 73 68 61 30  00                       ....sha0.       
```

#### Opcodes

```
  0: 0x031B [0x53] WAIT_SCHEDULER_TASK: Wait for scheduler "sha0" with entities [EventEntity, EventEntity]
  1: 0x0328 [0x00] END_REQSTACK()
```

### Event 65535.35

#### Metadata

| Field        | Value    |
|--------------|----------|
| Entrypoint   | 0x0329   |
| Data Size    | 16 bytes |
| Instructions | 2        |

```
      00 01 02 03 04 05 06 07  08 09 0A 0B 0C 0D 0E 0F
      -- -- -- -- -- -- -- --  -- -- -- -- -- -- -- --
0320:                             66 38 80 F8 FF FF 7F           f8.....
0330: F8 FF FF 7F 73 69 72 30  00                       ....sir0.       
```

#### Opcodes

```
  0: 0x0329 [0x66] LOAD_EXT_SCHEDULER_MAIN: Load scheduler "sir0" with entities [EventEntity, EventEntity], work=69*
  1: 0x0338 [0x00] END_REQSTACK()
```

### Event 65535.36

#### Metadata

| Field        | Value    |
|--------------|----------|
| Entrypoint   | 0x0339   |
| Data Size    | 14 bytes |
| Instructions | 2        |

```
      00 01 02 03 04 05 06 07  08 09 0A 0B 0C 0D 0E 0F
      -- -- -- -- -- -- -- --  -- -- -- -- -- -- -- --
0330:                             53 F8 FF FF 7F F8 FF           S......
0340: FF 7F 73 69 72 30 00                              ..sir0.         
```

#### Opcodes

```
  0: 0x0339 [0x53] WAIT_SCHEDULER_TASK: Wait for scheduler "sir0" with entities [EventEntity, EventEntity]
  1: 0x0346 [0x00] END_REQSTACK()
```

### Event 65535.37

#### Metadata

| Field        | Value    |
|--------------|----------|
| Entrypoint   | 0x0347   |
| Data Size    | 16 bytes |
| Instructions | 2        |

```
      00 01 02 03 04 05 06 07  08 09 0A 0B 0C 0D 0E 0F
      -- -- -- -- -- -- -- --  -- -- -- -- -- -- -- --
0340:                      66  38 80 F8 FF FF 7F F8 FF         f8.......
0350: FF 7F 73 69 72 31 00                              ..sir1.         
```

#### Opcodes

```
  0: 0x0347 [0x66] LOAD_EXT_SCHEDULER_MAIN: Load scheduler "sir1" with entities [EventEntity, EventEntity], work=69*
  1: 0x0356 [0x00] END_REQSTACK()
```

### Event 65535.38

#### Metadata

| Field        | Value    |
|--------------|----------|
| Entrypoint   | 0x0357   |
| Data Size    | 14 bytes |
| Instructions | 2        |

```
      00 01 02 03 04 05 06 07  08 09 0A 0B 0C 0D 0E 0F
      -- -- -- -- -- -- -- --  -- -- -- -- -- -- -- --
0350:                      53  F8 FF FF 7F F8 FF FF 7F         S........
0360: 73 69 72 31 00                                    sir1.           
```

#### Opcodes

```
  0: 0x0357 [0x53] WAIT_SCHEDULER_TASK: Wait for scheduler "sir1" with entities [EventEntity, EventEntity]
  1: 0x0364 [0x00] END_REQSTACK()
```

### Event 65535.39

#### Metadata

| Field        | Value    |
|--------------|----------|
| Entrypoint   | 0x0365   |
| Data Size    | 16 bytes |
| Instructions | 2        |

```
      00 01 02 03 04 05 06 07  08 09 0A 0B 0C 0D 0E 0F
      -- -- -- -- -- -- -- --  -- -- -- -- -- -- -- --
0360:                66 38 80  F8 FF FF 7F F8 FF FF 7F       f8.........
0370: 73 68 61 31 00                                    sha1.           
```

#### Opcodes

```
  0: 0x0365 [0x66] LOAD_EXT_SCHEDULER_MAIN: Load scheduler "sha1" with entities [EventEntity, EventEntity], work=69*
  1: 0x0374 [0x00] END_REQSTACK()
```

### Event 65535.40

#### Metadata

| Field        | Value    |
|--------------|----------|
| Entrypoint   | 0x0375   |
| Data Size    | 14 bytes |
| Instructions | 2        |

```
      00 01 02 03 04 05 06 07  08 09 0A 0B 0C 0D 0E 0F
      -- -- -- -- -- -- -- --  -- -- -- -- -- -- -- --
0370:                53 F8 FF  FF 7F F8 FF FF 7F 73 68       S........sh
0380: 61 31 00                                          a1.             
```

#### Opcodes

```
  0: 0x0375 [0x53] WAIT_SCHEDULER_TASK: Wait for scheduler "sha1" with entities [EventEntity, EventEntity]
  1: 0x0382 [0x00] END_REQSTACK()
```

### Event 864

#### Metadata

| Field        | Value   |
|--------------|---------|
| Entrypoint   | 0x0383  |
| Data Size    | 1 bytes |
| Instructions | 1       |

```
      00 01 02 03 04 05 06 07  08 09 0A 0B 0C 0D 0E 0F
      -- -- -- -- -- -- -- --  -- -- -- -- -- -- -- --
0380:          00                                          .            
```

#### Opcodes

```
  0: 0x0383 [0x00] END_REQSTACK()
```

### Event 65535.41

#### Metadata

| Field        | Value    |
|--------------|----------|
| Entrypoint   | 0x0384   |
| Data Size    | 10 bytes |
| Instructions | 2        |

```
      00 01 02 03 04 05 06 07  08 09 0A 0B 0C 0D 0E 0F
      -- -- -- -- -- -- -- --  -- -- -- -- -- -- -- --
0380:             37 39 80 3A  80 31 80 3B 80 00            79.:.1.;..  
```

#### Opcodes

```
  0: 0x0384 [0x37] UPDATE_EVENT_POSITION_AND_DIR: x=-28.458*, z=-3.335*, y=-9.999*, direction=212.2°*
  1: 0x038D [0x00] END_REQSTACK()
```

### Event 871

#### Metadata

| Field        | Value    |
|--------------|----------|
| Entrypoint   | 0x038E   |
| Data Size    | 27 bytes |
| Instructions | 10       |

```
      00 01 02 03 04 05 06 07  08 09 0A 0B 0C 0D 0E 0F
      -- -- -- -- -- -- -- --  -- -- -- -- -- -- -- --
0380:                                            1E F0                ..
0390: FF FF 7F 6F 70 2B 2C D0  0E 01 3C 80 23 2B 2C D0  ...op+,...<.#+,.
03A0: 0E 01 3D 80 23 20 00 21  00                       ..=.# .!.       
```

#### Opcodes

```
  0: 0x038E [0x1E] EventEntity looks at LocalPlayer and starts talking
  1: 0x0393 [0x6F] WAIT_FRAME_DELAY: Yield until WaitTime reaches zero
  2: 0x0394 [0x70] WAIT_ENTITY_RENDER_FLAG: Wait while EventEntity->Render.Flags3 bit 2 is set (cancel turn if not)
  3: 0x0395 [0x2B] Raibaht (ID: 17748012/0x010ED02C) [9940*]:
    → "To help the chief with his airship modification project, we need a large quantity of $1..."
  4: 0x039C [0x23] WAIT_FOR_DIALOG_INTERACTION
  5: 0x039D [0x2B] Raibaht (ID: 17748012/0x010ED02C) [9941*]:
    → "However, we do not want to draw any unwanted attention to ourselves by importing through Jeuno..."
  6: 0x03A4 [0x23] WAIT_FOR_DIALOG_INTERACTION
  7: 0x03A5 [0x20] SET_CLI_EVENT_UC_FLAG: Unlock player control
  8: 0x03A7 [0x21] END_EVENT
  9: 0x03A8 [0x00] END_REQSTACK()
```

### Event 865

#### Metadata

| Field        | Value    |
|--------------|----------|
| Entrypoint   | 0x03A9   |
| Data Size    | 59 bytes |
| Instructions | 14       |

```
      00 01 02 03 04 05 06 07  08 09 0A 0B 0C 0D 0E 0F
      -- -- -- -- -- -- -- --  -- -- -- -- -- -- -- --
03A0:                             42 1E F0 FF FF 7F 6F           B.....o
03B0: 70 29 08 2C D0 0E 01 1B  2B 2C D0 0E 01 3E 80 23  p).,....+,...>.#
03C0: 2B 2C D0 0E 01 3F 80 23  29 08 2C D0 0E 01 1C 45  +,...?.#).,....E
03D0: 40 80 F0 FF FF 7F F0 FF  FF 7F 71 73 74 63 41 80  @.........qstcA.
03E0: 20 00 21 00                                        .!.            
```

#### Opcodes

```
  0: 0x03A9 [0x42] SET_CLI_EVENT_CANCEL_DATA()
  1: 0x03AA [0x1E] EventEntity looks at LocalPlayer and starts talking
  2: 0x03AF [0x6F] WAIT_FRAME_DELAY: Yield until WaitTime reaches zero
  3: 0x03B0 [0x70] WAIT_ENTITY_RENDER_FLAG: Wait while EventEntity->Render.Flags3 bit 2 is set (cancel turn if not)
  4: 0x03B1 [0x29] REQ_SET_WAIT(priority=0x08, entity_id=Raibaht (ID: 17748012/0x010ED02C), tag_num=0x1B)
  5: 0x03B8 [0x2B] Raibaht (ID: 17748012/0x010ED02C) [9942*]:
    → "This is exactly what the chief needs for his project. The Republic thanks you for your assistance."
  6: 0x03BF [0x23] WAIT_FOR_DIALOG_INTERACTION
  7: 0x03C0 [0x2B] Raibaht (ID: 17748012/0x010ED02C) [9943*]:
    → "It is not much, but here is a bit of reimbursement."
  8: 0x03C7 [0x23] WAIT_FOR_DIALOG_INTERACTION
  9: 0x03C8 [0x29] REQ_SET_WAIT(priority=0x08, entity_id=Raibaht (ID: 17748012/0x010ED02C), tag_num=0x1C)
 10: 0x03CF [0x45] LOAD_SCHEDULED_TASK: Load scheduler "qstc" with entities [LocalPlayer, LocalPlayer], work=[201*, 0*]
 11: 0x03E0 [0x20] SET_CLI_EVENT_UC_FLAG: Unlock player control
 12: 0x03E2 [0x21] END_EVENT
 13: 0x03E3 [0x00] END_REQSTACK()
```

### Event 866

#### Metadata

| Field        | Value   |
|--------------|---------|
| Entrypoint   | 0x03E4  |
| Data Size    | 1 bytes |
| Instructions | 1       |

```
      00 01 02 03 04 05 06 07  08 09 0A 0B 0C 0D 0E 0F
      -- -- -- -- -- -- -- --  -- -- -- -- -- -- -- --
03E0:             00                                        .           
```

#### Opcodes

```
  0: 0x03E4 [0x00] END_REQSTACK()
```

### Event 872

#### Metadata

| Field        | Value    |
|--------------|----------|
| Entrypoint   | 0x03E5   |
| Data Size    | 33 bytes |
| Instructions | 12       |

```
      00 01 02 03 04 05 06 07  08 09 0A 0B 0C 0D 0E 0F
      -- -- -- -- -- -- -- --  -- -- -- -- -- -- -- --
03E0:                1E F0 FF  FF 7F 6F 70 29 08 2C D0       .....op).,.
03F0: 0E 01 1B 1D 42 80 23 1D  43 80 23 29 08 2C D0 0E  ....B.#.C.#).,..
0400: 01 1C 20 00 21 00                                 .. .!.          
```

#### Opcodes

```
  0: 0x03E5 [0x1E] EventEntity looks at LocalPlayer and starts talking
  1: 0x03EA [0x6F] WAIT_FRAME_DELAY: Yield until WaitTime reaches zero
  2: 0x03EB [0x70] WAIT_ENTITY_RENDER_FLAG: Wait while EventEntity->Render.Flags3 bit 2 is set (cancel turn if not)
  3: 0x03EC [0x29] REQ_SET_WAIT(priority=0x08, entity_id=Raibaht (ID: 17748012/0x010ED02C), tag_num=0x1B)
  4: 0x03F3 [0x1D] PRINT_EVENT_MESSAGE(message_id=9951*)
    → "The adventurer we seek has been ordered to travel to Delkfutt's Tower and defeat a monster known as Orna."
  5: 0x03F6 [0x23] WAIT_FOR_DIALOG_INTERACTION
  6: 0x03F7 [0x1D] PRINT_EVENT_MESSAGE(message_id=9952*)
    → "Find that man and have him tell you where he hid the $3."
  7: 0x03FA [0x23] WAIT_FOR_DIALOG_INTERACTION
  8: 0x03FB [0x29] REQ_SET_WAIT(priority=0x08, entity_id=Raibaht (ID: 17748012/0x010ED02C), tag_num=0x1C)
  9: 0x0402 [0x20] SET_CLI_EVENT_UC_FLAG: Unlock player control
 10: 0x0404 [0x21] END_EVENT
 11: 0x0405 [0x00] END_REQSTACK()
```

### Event 867

#### Metadata

| Field        | Value    |
|--------------|----------|
| Entrypoint   | 0x0406   |
| Data Size    | 59 bytes |
| Instructions | 14       |

```
      00 01 02 03 04 05 06 07  08 09 0A 0B 0C 0D 0E 0F
      -- -- -- -- -- -- -- --  -- -- -- -- -- -- -- --
0400:                   42 1E  F0 FF FF 7F 6F 70 29 08        B.....op).
0410: 2C D0 0E 01 1B 2B 2C D0  0E 01 44 80 23 2B 2C D0  ,....+,...D.#+,.
0420: 0E 01 45 80 23 29 08 2C  D0 0E 01 1C 45 40 80 F0  ..E.#).,....E@..
0430: FF FF 7F F0 FF FF 7F 71  73 74 63 41 80 20 00 21  .......qstcA. .!
0440: 00                                                .               
```

#### Opcodes

```
  0: 0x0406 [0x42] SET_CLI_EVENT_CANCEL_DATA()
  1: 0x0407 [0x1E] EventEntity looks at LocalPlayer and starts talking
  2: 0x040C [0x6F] WAIT_FRAME_DELAY: Yield until WaitTime reaches zero
  3: 0x040D [0x70] WAIT_ENTITY_RENDER_FLAG: Wait while EventEntity->Render.Flags3 bit 2 is set (cancel turn if not)
  4: 0x040E [0x29] REQ_SET_WAIT(priority=0x08, entity_id=Raibaht (ID: 17748012/0x010ED02C), tag_num=0x1B)
  5: 0x0415 [0x2B] Raibaht (ID: 17748012/0x010ED02C) [9953*]:
    → "With this, the chief will be able to improve on his current theories and further develop new aerodynamic technologies."
  6: 0x041C [0x23] WAIT_FOR_DIALOG_INTERACTION
  7: 0x041D [0x2B] Raibaht (ID: 17748012/0x010ED02C) [9954*]:
    → "Again, it is not much, but please accept this reward for your services."
  8: 0x0424 [0x23] WAIT_FOR_DIALOG_INTERACTION
  9: 0x0425 [0x29] REQ_SET_WAIT(priority=0x08, entity_id=Raibaht (ID: 17748012/0x010ED02C), tag_num=0x1C)
 10: 0x042C [0x45] LOAD_SCHEDULED_TASK: Load scheduler "qstc" with entities [LocalPlayer, LocalPlayer], work=[201*, 0*]
 11: 0x043D [0x20] SET_CLI_EVENT_UC_FLAG: Unlock player control
 12: 0x043F [0x21] END_EVENT
 13: 0x0440 [0x00] END_REQSTACK()
```

### Event 868

#### Metadata

| Field        | Value   |
|--------------|---------|
| Entrypoint   | 0x0441  |
| Data Size    | 1 bytes |
| Instructions | 1       |

```
      00 01 02 03 04 05 06 07  08 09 0A 0B 0C 0D 0E 0F
      -- -- -- -- -- -- -- --  -- -- -- -- -- -- -- --
0440:    00                                              .              
```

#### Opcodes

```
  0: 0x0441 [0x00] END_REQSTACK()
```

### Event 873

#### Metadata

| Field        | Value    |
|--------------|----------|
| Entrypoint   | 0x0442   |
| Data Size    | 51 bytes |
| Instructions | 16       |

```
      00 01 02 03 04 05 06 07  08 09 0A 0B 0C 0D 0E 0F
      -- -- -- -- -- -- -- --  -- -- -- -- -- -- -- --
0440:       1E F0 FF FF 7F 6F  70 29 08 2C D0 0E 01 1F    .....op).,....
0450: 1D 46 80 23 1D 47 80 23  29 08 2C D0 0E 01 20 29  .F.#.G.#).,... )
0460: 08 2C D0 0E 01 21 1D 48  80 23 29 08 2C D0 0E 01  .,...!.H.#).,...
0470: 22 20 00 21 00                                    " .!.           
```

#### Opcodes

```
  0: 0x0442 [0x1E] EventEntity looks at LocalPlayer and starts talking
  1: 0x0447 [0x6F] WAIT_FRAME_DELAY: Yield until WaitTime reaches zero
  2: 0x0448 [0x70] WAIT_ENTITY_RENDER_FLAG: Wait while EventEntity->Render.Flags3 bit 2 is set (cancel turn if not)
  3: 0x0449 [0x29] REQ_SET_WAIT(priority=0x08, entity_id=Raibaht (ID: 17748012/0x010ED02C), tag_num=0x1F)
  4: 0x0450 [0x1D] PRINT_EVENT_MESSAGE(message_id=9960*)
    → "Until recently, Chief Cid had been working on what he called a "semiperpetual motion engine." However, after months of making little or no progress, he finally gave up on the idea."
  5: 0x0453 [0x23] WAIT_FOR_DIALOG_INTERACTION
  6: 0x0454 [0x1D] PRINT_EVENT_MESSAGE(message_id=9961*)
    → "If he were only able to acquire the $1 that had been used in previous semiperpetual motion experiments..."
  7: 0x0457 [0x23] WAIT_FOR_DIALOG_INTERACTION
  8: 0x0458 [0x29] REQ_SET_WAIT(priority=0x08, entity_id=Raibaht (ID: 17748012/0x010ED02C), tag_num=0x20)
  9: 0x045F [0x29] REQ_SET_WAIT(priority=0x08, entity_id=Raibaht (ID: 17748012/0x010ED02C), tag_num=0x21)
 10: 0x0466 [0x1D] PRINT_EVENT_MESSAGE(message_id=9962*)
    → "It is said that the ancients were able to process the material and harness its hidden power, but since then, no one has succeeded in reproducing those results."
 11: 0x0469 [0x23] WAIT_FOR_DIALOG_INTERACTION
 12: 0x046A [0x29] REQ_SET_WAIT(priority=0x08, entity_id=Raibaht (ID: 17748012/0x010ED02C), tag_num=0x22)
 13: 0x0471 [0x20] SET_CLI_EVENT_UC_FLAG: Unlock player control
 14: 0x0473 [0x21] END_EVENT
 15: 0x0474 [0x00] END_REQSTACK()
```

### Event 869

#### Metadata

| Field        | Value   |
|--------------|---------|
| Entrypoint   | 0x0475  |
| Data Size    | 1 bytes |
| Instructions | 1       |

```
      00 01 02 03 04 05 06 07  08 09 0A 0B 0C 0D 0E 0F
      -- -- -- -- -- -- -- --  -- -- -- -- -- -- -- --
0470:                00                                      .          
```

#### Opcodes

```
  0: 0x0475 [0x00] END_REQSTACK()
```

### Event 65535.42

#### Metadata

| Field        | Value    |
|--------------|----------|
| Entrypoint   | 0x0476   |
| Data Size    | 10 bytes |
| Instructions | 2        |

```
      00 01 02 03 04 05 06 07  08 09 0A 0B 0C 0D 0E 0F
      -- -- -- -- -- -- -- --  -- -- -- -- -- -- -- --
0470:                   37 49  80 4A 80 0D 80 4B 80 00        7I.J...K..
```

#### Opcodes

```
  0: 0x0476 [0x37] UPDATE_EVENT_POSITION_AND_DIR: x=-14.470*, z=-3.159*, y=-10.988*, direction=296.6°*
  1: 0x047F [0x00] END_REQSTACK()
```

### Event 65535.43

#### Metadata

| Field        | Value    |
|--------------|----------|
| Entrypoint   | 0x0480   |
| Data Size    | 15 bytes |
| Instructions | 5        |

```
      00 01 02 03 04 05 06 07  08 09 0A 0B 0C 0D 0E 0F
      -- -- -- -- -- -- -- --  -- -- -- -- -- -- -- --
0480: 32 05 80 1F 00 4C 80 4D  80 0D 80 1F 01 6F 00     2....L.M.....o. 
```

#### Opcodes

```
  0: 0x0480 [0x32] ExtData[1]->MainSpeed = 13* * 0.1
  1: 0x0483 [0x1F] MOVE_ENTITY: EventEntity moves to X=-13.758*, Z=-0.095*, Y=-10.988*
  2: 0x048B [0x1F] MOVE_ENTITY: Update entity position (mode=1)
  3: 0x048D [0x6F] WAIT_FRAME_DELAY: Yield until WaitTime reaches zero
  4: 0x048E [0x00] END_REQSTACK()
```

### Event 874

#### Metadata

| Field        | Value    |
|--------------|----------|
| Entrypoint   | 0x048F   |
| Data Size    | 15 bytes |
| Instructions | 8        |

```
      00 01 02 03 04 05 06 07  08 09 0A 0B 0C 0D 0E 0F
      -- -- -- -- -- -- -- --  -- -- -- -- -- -- -- --
0480:                                               1E                 .
0490: F0 FF FF 7F 6F 70 1D 4E  80 23 20 00 21 00        ....op.N.# .!.  
```

#### Opcodes

```
  0: 0x048F [0x1E] EventEntity looks at LocalPlayer and starts talking
  1: 0x0494 [0x6F] WAIT_FRAME_DELAY: Yield until WaitTime reaches zero
  2: 0x0495 [0x70] WAIT_ENTITY_RENDER_FLAG: Wait while EventEntity->Render.Flags3 bit 2 is set (cancel turn if not)
  3: 0x0496 [0x1D] PRINT_EVENT_MESSAGE(message_id=9985*)
    → "...<Player>. If you ever wish to...rethink the name you have given the chief's airship, please bring another $1. Any further aid would be greatly appreciated."
  4: 0x0499 [0x23] WAIT_FOR_DIALOG_INTERACTION
  5: 0x049A [0x20] SET_CLI_EVENT_UC_FLAG: Unlock player control
  6: 0x049C [0x21] END_EVENT
  7: 0x049D [0x00] END_REQSTACK()
```

### Event 870

#### Metadata

| Field        | Value   |
|--------------|---------|
| Entrypoint   | 0x049E  |
| Data Size    | 1 bytes |
| Instructions | 1       |

```
      00 01 02 03 04 05 06 07  08 09 0A 0B 0C 0D 0E 0F
      -- -- -- -- -- -- -- --  -- -- -- -- -- -- -- --
0490:                                            00                   . 
```

#### Opcodes

```
  0: 0x049E [0x00] END_REQSTACK()
```

### Event 897

#### Metadata

| Field        | Value   |
|--------------|---------|
| Entrypoint   | 0x049F  |
| Data Size    | 1 bytes |
| Instructions | 1       |

```
      00 01 02 03 04 05 06 07  08 09 0A 0B 0C 0D 0E 0F
      -- -- -- -- -- -- -- --  -- -- -- -- -- -- -- --
0490:                                               00                 .
```

#### Opcodes

```
  0: 0x049F [0x00] END_REQSTACK()
```

### Event 898

#### Metadata

| Field        | Value   |
|--------------|---------|
| Entrypoint   | 0x04A0  |
| Data Size    | 1 bytes |
| Instructions | 1       |

```
      00 01 02 03 04 05 06 07  08 09 0A 0B 0C 0D 0E 0F
      -- -- -- -- -- -- -- --  -- -- -- -- -- -- -- --
04A0: 00                                                .               
```

#### Opcodes

```
  0: 0x04A0 [0x00] END_REQSTACK()
```

### Event 65535.44

#### Metadata

| Field        | Value   |
|--------------|---------|
| Entrypoint   | 0x04A1  |
| Data Size    | 1 bytes |
| Instructions | 1       |

```
      00 01 02 03 04 05 06 07  08 09 0A 0B 0C 0D 0E 0F
      -- -- -- -- -- -- -- --  -- -- -- -- -- -- -- --
04A0:    00                                              .              
```

#### Opcodes

```
  0: 0x04A1 [0x00] END_REQSTACK()
```

### Event 65535.45

#### Metadata

| Field        | Value    |
|--------------|----------|
| Entrypoint   | 0x04A2   |
| Data Size    | 10 bytes |
| Instructions | 2        |

```
      00 01 02 03 04 05 06 07  08 09 0A 0B 0C 0D 0E 0F
      -- -- -- -- -- -- -- --  -- -- -- -- -- -- -- --
04A0:       37 4F 80 50 80 51  80 52 80 00                7O.P.Q.R..    
```

#### Opcodes

```
  0: 0x04A2 [0x37] UPDATE_EVENT_POSITION_AND_DIR: x=124.450*, z=-75.058*, y=8.499*, direction=49.7°*
  1: 0x04AB [0x00] END_REQSTACK()
```

### Event 65535.46

#### Metadata

| Field        | Value    |
|--------------|----------|
| Entrypoint   | 0x04AC   |
| Data Size    | 10 bytes |
| Instructions | 2        |

```
      00 01 02 03 04 05 06 07  08 09 0A 0B 0C 0D 0E 0F
      -- -- -- -- -- -- -- --  -- -- -- -- -- -- -- --
04A0:                                      37 53 80 54              7S.T
04B0: 80 55 80 56 80 00                                 .U.V..          
```

#### Opcodes

```
  0: 0x04AC [0x37] UPDATE_EVENT_POSITION_AND_DIR: x=-20.708*, z=10.878*, y=-3.300*, direction=269.4°*
  1: 0x04B5 [0x00] END_REQSTACK()
```

### Event 65535.47

#### Metadata

| Field        | Value    |
|--------------|----------|
| Entrypoint   | 0x04B6   |
| Data Size    | 15 bytes |
| Instructions | 5        |

```
      00 01 02 03 04 05 06 07  08 09 0A 0B 0C 0D 0E 0F
      -- -- -- -- -- -- -- --  -- -- -- -- -- -- -- --
04B0:                   32 57  80 1F 00 58 80 59 80 55        2W...X.Y.U
04C0: 80 1F 01 6F 00                                    ...o.           
```

#### Opcodes

```
  0: 0x04B6 [0x32] ExtData[1]->MainSpeed = 11* * 0.1
  1: 0x04B9 [0x1F] MOVE_ENTITY: EventEntity moves to X=-28.715*, Z=10.770*, Y=-3.300*
  2: 0x04C1 [0x1F] MOVE_ENTITY: Update entity position (mode=1)
  3: 0x04C3 [0x6F] WAIT_FRAME_DELAY: Yield until WaitTime reaches zero
  4: 0x04C4 [0x00] END_REQSTACK()
```

### Event 933

#### Metadata

| Field        | Value    |
|--------------|----------|
| Entrypoint   | 0x04C5   |
| Data Size    | 18 bytes |
| Instructions | 8        |

```
      00 01 02 03 04 05 06 07  08 09 0A 0B 0C 0D 0E 0F
      -- -- -- -- -- -- -- --  -- -- -- -- -- -- -- --
04C0:                42 48 5A  80 1E F0 FF FF 7F 1C 10       BHZ........
04D0: 80 1D 5B 80 23 21 00                              ..[.#!.         
```

#### Opcodes

```
  0: 0x04C5 [0x42] SET_CLI_EVENT_CANCEL_DATA()
  1: 0x04C6 [0x48] [System] [10683*]:
    → "<Player>'s badge flashes brightly."
  2: 0x04C9 [0x1E] EventEntity looks at LocalPlayer and starts talking
  3: 0x04CE [0x1C] WAIT(60* ticks)
  4: 0x04D1 [0x1D] PRINT_EVENT_MESSAGE(message_id=10688*)
    → "Chief Cid has nothing to say about that nation..."
  5: 0x04D4 [0x23] WAIT_FOR_DIALOG_INTERACTION
  6: 0x04D5 [0x21] END_EVENT
  7: 0x04D6 [0x00] END_REQSTACK()
```

### Event 979

#### Metadata

| Field        | Value   |
|--------------|---------|
| Entrypoint   | 0x04D7  |
| Data Size    | 1 bytes |
| Instructions | 1       |

```
      00 01 02 03 04 05 06 07  08 09 0A 0B 0C 0D 0E 0F
      -- -- -- -- -- -- -- --  -- -- -- -- -- -- -- --
04D0:                      00                                  .        
```

#### Opcodes

```
  0: 0x04D7 [0x00] END_REQSTACK()
```

### Event 65535.48

#### Metadata

| Field        | Value    |
|--------------|----------|
| Entrypoint   | 0x04D8   |
| Data Size    | 39 bytes |
| Instructions | 8        |

```
      00 01 02 03 04 05 06 07  08 09 0A 0B 0C 0D 0E 0F
      -- -- -- -- -- -- -- --  -- -- -- -- -- -- -- --
04D0:                          32 05 80 79 00 F8 FF FF          2..y....
04E0: 7F 2B D0 0E 01 37 5C 80  5D 80 03 80 24 80 1F 00  .+...7\.]...$...
04F0: 5E 80 5F 80 0D 80 1F 01  6F 1E 2B D0 0E 01 00     ^._.....o.+.... 
```

#### Opcodes

```
  0: 0x04D8 [0x32] ExtData[1]->MainSpeed = 13* * 0.1
  1: 0x04DB [0x79] EventEntity looks at Cid (ID: 17748011/0x010ED02B) (Basic look)
  2: 0x04E5 [0x37] UPDATE_EVENT_POSITION_AND_DIR: x=-17.464*, z=-2.981*, y=-10.000*, direction=285.6°*
  3: 0x04EE [0x1F] MOVE_ENTITY: EventEntity moves to X=-13.990*, Z=1.594*, Y=-10.988*
  4: 0x04F6 [0x1F] MOVE_ENTITY: Update entity position (mode=1)
  5: 0x04F8 [0x6F] WAIT_FRAME_DELAY: Yield until WaitTime reaches zero
  6: 0x04F9 [0x1E] EventEntity looks at Cid (ID: 17748011/0x010ED02B) and starts talking
  7: 0x04FE [0x00] END_REQSTACK()
```

### Event 65535.49

#### Metadata

| Field        | Value    |
|--------------|----------|
| Entrypoint   | 0x04FF   |
| Data Size    | 14 bytes |
| Instructions | 4        |

```
      00 01 02 03 04 05 06 07  08 09 0A 0B 0C 0D 0E 0F
      -- -- -- -- -- -- -- --  -- -- -- -- -- -- -- --
04F0:                                               32                 2
0500: 05 80 1F 00 60 80 5D 80  61 80 1F 01 00           ....`.].a....   
```

#### Opcodes

```
  0: 0x04FF [0x32] ExtData[1]->MainSpeed = 13* * 0.1
  1: 0x0502 [0x1F] MOVE_ENTITY: EventEntity moves to X=-15.735*, Z=-2.981*, Y=-10.987*
  2: 0x050A [0x1F] MOVE_ENTITY: Update entity position (mode=1)
  3: 0x050C [0x00] END_REQSTACK()
```

### Event 65535.50

#### Metadata

| Field        | Value    |
|--------------|----------|
| Entrypoint   | 0x050D   |
| Data Size    | 19 bytes |
| Instructions | 3        |

```
      00 01 02 03 04 05 06 07  08 09 0A 0B 0C 0D 0E 0F
      -- -- -- -- -- -- -- --  -- -- -- -- -- -- -- --
0500:                                         66 10 80               f..
0510: F8 FF FF 7F F8 FF FF 7F  70 61 73 30 1C 00 17 00  ........pas0....
```

#### Opcodes

```
  0: 0x050D [0x66] LOAD_EXT_SCHEDULER_MAIN: Load scheduler "pas0" with entities [EventEntity, EventEntity], work=60*
  1: 0x051C [0x1C] WAIT(Work_Zone_1700[0] ticks)
  2: 0x051F [0x00] END_REQSTACK()
```

### Event 987

#### Metadata

| Field        | Value   |
|--------------|---------|
| Entrypoint   | 0x0520  |
| Data Size    | 1 bytes |
| Instructions | 1       |

```
      00 01 02 03 04 05 06 07  08 09 0A 0B 0C 0D 0E 0F
      -- -- -- -- -- -- -- --  -- -- -- -- -- -- -- --
0520: 00                                                .               
```

#### Opcodes

```
  0: 0x0520 [0x00] END_REQSTACK()
```

### Event 65535.51

#### Metadata

| Field        | Value    |
|--------------|----------|
| Entrypoint   | 0x0521   |
| Data Size    | 32 bytes |
| Instructions | 8        |

```
      00 01 02 03 04 05 06 07  08 09 0A 0B 0C 0D 0E 0F
      -- -- -- -- -- -- -- --  -- -- -- -- -- -- -- --
0520:    32 05 80 1F 00 62 80  63 80 0D 80 1F 01 1C 64   2....b.c......d
0530: 80 4A 2C D0 0E 01 F0 FF  FF 7F 6F 76 2C D0 0E 01  .J,.......ov,...
0540: 00                                                .               
```

#### Opcodes

```
  0: 0x0521 [0x32] ExtData[1]->MainSpeed = 13* * 0.1
  1: 0x0524 [0x1F] MOVE_ENTITY: EventEntity moves to X=-14.651*, Z=-3.872*, Y=-10.988*
  2: 0x052C [0x1F] MOVE_ENTITY: Update entity position (mode=1)
  3: 0x052E [0x1C] WAIT(10* ticks)
  4: 0x0531 [0x4A] Raibaht (ID: 17748012/0x010ED02C) looks at LocalPlayer
  5: 0x053A [0x6F] WAIT_FRAME_DELAY: Yield until WaitTime reaches zero
  6: 0x053B [0x76] CHECK_ENTITY_RENDER_FLAGS: Wait until Raibaht (ID: 17748012/0x010ED02C) Render.Flags0 and Render.Flags3 conditions are met
  7: 0x0540 [0x00] END_REQSTACK()
```

### Event 990

#### Metadata

| Field        | Value   |
|--------------|---------|
| Entrypoint   | 0x0541  |
| Data Size    | 1 bytes |
| Instructions | 1       |

```
      00 01 02 03 04 05 06 07  08 09 0A 0B 0C 0D 0E 0F
      -- -- -- -- -- -- -- --  -- -- -- -- -- -- -- --
0540:    00                                              .              
```

#### Opcodes

```
  0: 0x0541 [0x00] END_REQSTACK()
```

### Event 991

#### Metadata

| Field        | Value   |
|--------------|---------|
| Entrypoint   | 0x0542  |
| Data Size    | 1 bytes |
| Instructions | 1       |

```
      00 01 02 03 04 05 06 07  08 09 0A 0B 0C 0D 0E 0F
      -- -- -- -- -- -- -- --  -- -- -- -- -- -- -- --
0540:       00                                            .             
```

#### Opcodes

```
  0: 0x0542 [0x00] END_REQSTACK()
```

### Event 992

#### Metadata

| Field        | Value   |
|--------------|---------|
| Entrypoint   | 0x0543  |
| Data Size    | 1 bytes |
| Instructions | 1       |

```
      00 01 02 03 04 05 06 07  08 09 0A 0B 0C 0D 0E 0F
      -- -- -- -- -- -- -- --  -- -- -- -- -- -- -- --
0540:          00                                          .            
```

#### Opcodes

```
  0: 0x0543 [0x00] END_REQSTACK()
```

### Event 65535.52

#### Metadata

| Field        | Value   |
|--------------|---------|
| Entrypoint   | 0x0544  |
| Data Size    | 4 bytes |
| Instructions | 2       |

```
      00 01 02 03 04 05 06 07  08 09 0A 0B 0C 0D 0E 0F
      -- -- -- -- -- -- -- --  -- -- -- -- -- -- -- --
0540:             95 41 80 00                               .A..        
```

#### Opcodes

```
  0: 0x0544 [0x95] SETUP_EVENT_NPC: Prepare NPC for event (Render.Flags3 = 0*)
  1: 0x0547 [0x00] END_REQSTACK()
```

### Event 65535.53

#### Metadata

| Field        | Value   |
|--------------|---------|
| Entrypoint   | 0x0548  |
| Data Size    | 2 bytes |
| Instructions | 2       |

```
      00 01 02 03 04 05 06 07  08 09 0A 0B 0C 0D 0E 0F
      -- -- -- -- -- -- -- --  -- -- -- -- -- -- -- --
0540:                          96 00                            ..      
```

#### Opcodes

```
  0: 0x0548 [0x96] UNSET_EVENT_NPC: Restore NPC after event (removes event NPC status)
  1: 0x0549 [0x00] END_REQSTACK()
```

### Event 65535.54

#### Metadata

| Field        | Value    |
|--------------|----------|
| Entrypoint   | 0x054A   |
| Data Size    | 22 bytes |
| Instructions | 8        |

```
      00 01 02 03 04 05 06 07  08 09 0A 0B 0C 0D 0E 0F
      -- -- -- -- -- -- -- --  -- -- -- -- -- -- -- --
0540:                                39 65 80 6F 70 1C            9e.op.
0550: 66 80 32 05 80 1F 00 67  80 68 80 03 80 1F 01 00  f.2....g.h......
```

#### Opcodes

```
  0: 0x054A [0x39] SET_ENTITY_DIRECTION(direction=11.9°*)
  1: 0x054D [0x6F] WAIT_FRAME_DELAY: Yield until WaitTime reaches zero
  2: 0x054E [0x70] WAIT_ENTITY_RENDER_FLAG: Wait while EventEntity->Render.Flags3 bit 2 is set (cancel turn if not)
  3: 0x054F [0x1C] WAIT(15* ticks)
  4: 0x0552 [0x32] ExtData[1]->MainSpeed = 13* * 0.1
  5: 0x0555 [0x1F] MOVE_ENTITY: EventEntity moves to X=-51.000*, Z=0.300*, Y=-10.000*
  6: 0x055D [0x1F] MOVE_ENTITY: Update entity position (mode=1)
  7: 0x055F [0x00] END_REQSTACK()
```

### Event 65535.55

#### Metadata

| Field        | Value    |
|--------------|----------|
| Entrypoint   | 0x0560   |
| Data Size    | 14 bytes |
| Instructions | 4        |

```
      00 01 02 03 04 05 06 07  08 09 0A 0B 0C 0D 0E 0F
      -- -- -- -- -- -- -- --  -- -- -- -- -- -- -- --
0560: 32 05 80 1F 00 69 80 6A  80 03 80 1F 01 00        2....i.j......  
```

#### Opcodes

```
  0: 0x0560 [0x32] ExtData[1]->MainSpeed = 13* * 0.1
  1: 0x0563 [0x1F] MOVE_ENTITY: EventEntity moves to X=-46.930*, Z=-0.340*, Y=-10.000*
  2: 0x056B [0x1F] MOVE_ENTITY: Update entity position (mode=1)
  3: 0x056D [0x00] END_REQSTACK()
```

### Event 65535.56

#### Metadata

| Field        | Value    |
|--------------|----------|
| Entrypoint   | 0x056E   |
| Data Size    | 41 bytes |
| Instructions | 9        |

```
      00 01 02 03 04 05 06 07  08 09 0A 0B 0C 0D 0E 0F
      -- -- -- -- -- -- -- --  -- -- -- -- -- -- -- --
0560:                                            32 05                2.
0570: 80 1F 00 6B 80 6C 80 03  80 1F 01 1F 00 6D 80 6E  ...k.l.......m.n
0580: 80 03 80 1F 01 27 10 4E  D0 0E 01 04 1F 00 6F 80  .....'.N......o.
0590: 70 80 03 80 1F 01 00                              p......         
```

#### Opcodes

```
  0: 0x056E [0x32] ExtData[1]->MainSpeed = 13* * 0.1
  1: 0x0571 [0x1F] MOVE_ENTITY: EventEntity moves to X=-38.150*, Z=-1.530*, Y=-10.000*
  2: 0x0579 [0x1F] MOVE_ENTITY: Update entity position (mode=1)
  3: 0x057B [0x1F] MOVE_ENTITY: EventEntity moves to X=-32.310*, Z=-1.710*, Y=-10.000*
  4: 0x0583 [0x1F] MOVE_ENTITY: Update entity position (mode=1)
  5: 0x0585 [0x27] REQ_SET(priority=0x10, entity_id=Door:Cid's Lab (ID: 17748046/0x010ED04E), tag_num=0x04)
  6: 0x058C [0x1F] MOVE_ENTITY: EventEntity moves to X=-25.520*, Z=-1.840*, Y=-10.000*
  7: 0x0594 [0x1F] MOVE_ENTITY: Update entity position (mode=1)
  8: 0x0596 [0x00] END_REQSTACK()
```

### Event 65535.57

#### Metadata

| Field        | Value    |
|--------------|----------|
| Entrypoint   | 0x0597   |
| Data Size    | 14 bytes |
| Instructions | 4        |

```
      00 01 02 03 04 05 06 07  08 09 0A 0B 0C 0D 0E 0F
      -- -- -- -- -- -- -- --  -- -- -- -- -- -- -- --
0590:                      32  05 80 1F 00 71 80 41 80         2....q.A.
05A0: 03 80 1F 01 00                                    .....           
```

#### Opcodes

```
  0: 0x0597 [0x32] ExtData[1]->MainSpeed = 13* * 0.1
  1: 0x059A [0x1F] MOVE_ENTITY: EventEntity moves to X=-50.000*, Z=0.000*, Y=-10.000*
  2: 0x05A2 [0x1F] MOVE_ENTITY: Update entity position (mode=1)
  3: 0x05A4 [0x00] END_REQSTACK()
```

### Event 1035

#### Metadata

| Field        | Value    |
|--------------|----------|
| Entrypoint   | 0x05A5   |
| Data Size    | 26 bytes |
| Instructions | 8        |

```
      00 01 02 03 04 05 06 07  08 09 0A 0B 0C 0D 0E 0F
      -- -- -- -- -- -- -- --  -- -- -- -- -- -- -- --
05A0:                4A F8 FF  FF 7F F0 FF FF 7F 4A F0       J........J.
05B0: FF FF 7F F8 FF FF 7F 6F  70 1D 05 10 23 21 00     .......op...#!. 
```

#### Opcodes

```
  0: 0x05A5 [0x4A] EventEntity looks at LocalPlayer
  1: 0x05AE [0x4A] LocalPlayer looks at EventEntity
  2: 0x05B7 [0x6F] WAIT_FRAME_DELAY: Yield until WaitTime reaches zero
  3: 0x05B8 [0x70] WAIT_ENTITY_RENDER_FLAG: Wait while EventEntity->Render.Flags3 bit 2 is set (cancel turn if not)
  4: 0x05B9 [0x1D] PRINT_EVENT_MESSAGE(message_id=Work_Zone[5])
  5: 0x05BC [0x23] WAIT_FOR_DIALOG_INTERACTION
  6: 0x05BD [0x21] END_EVENT
  7: 0x05BE [0x00] END_REQSTACK()
```

### Event 1036

#### Metadata

| Field        | Value    |
|--------------|----------|
| Entrypoint   | 0x05BF   |
| Data Size    | 28 bytes |
| Instructions | 8        |

```
      00 01 02 03 04 05 06 07  08 09 0A 0B 0C 0D 0E 0F
      -- -- -- -- -- -- -- --  -- -- -- -- -- -- -- --
05B0:                                               42                 B
05C0: 4A F8 FF FF 7F F0 FF FF  7F 4A F0 FF FF 7F F8 FF  J........J......
05D0: FF 7F 6F 70 1D 05 10 23  21 21 00                 ..op...#!!.     
```

#### Opcodes

```
  0: 0x05BF [0x42] SET_CLI_EVENT_CANCEL_DATA()
  1: 0x05C0 [0x4A] EventEntity looks at LocalPlayer
  2: 0x05C9 [0x4A] LocalPlayer looks at EventEntity
  3: 0x05D2 [0x6F] WAIT_FRAME_DELAY: Yield until WaitTime reaches zero
  4: 0x05D3 [0x70] WAIT_ENTITY_RENDER_FLAG: Wait while EventEntity->Render.Flags3 bit 2 is set (cancel turn if not)
  5: 0x05D4 [0x1D] PRINT_EVENT_MESSAGE(message_id=Work_Zone[5])
  6: 0x05D7 [0x23] WAIT_FOR_DIALOG_INTERACTION
  7: 0x05D8 [0x21] END_EVENT
```

#### Data or dead code:

```
# Dead code (unreachable instructions):
     0x05D9 [0x21] END_EVENT
     0x05DA [0x00] END_REQSTACK()
```
