# 17747999 - Salim

## Common Data

| Field            | Value                |
|------------------|----------------------|
| Zone             | Metalworks (ID: 237) |
| Block Size       | 1044 bytes           |
| Total Events     | 38                   |
| References Count | 88                   |

## List of Events

| Event ID                   | Entrypoint   |   Size |   Instructions |
|----------------------------|--------------|--------|----------------|
| [65535](#event-65535)      | 0x0000       |      1 |              1 |
| [400](#event-400)          | 0x0001       |     11 |              5 |
| [899](#event-899)          | 0x000C       |      1 |              1 |
| [65535.1](#event-655351)   | 0x000D       |     14 |              4 |
| [900](#event-900)          | 0x001B       |      1 |              1 |
| [65535.2](#event-655352)   | 0x001C       |     35 |              7 |
| [65535.3](#event-655353)   | 0x003F       |     15 |              3 |
| [901](#event-901)          | 0x004E       |      1 |              1 |
| [908](#event-908)          | 0x004F       |      1 |              1 |
| [909](#event-909)          | 0x0050       |      1 |              1 |
| [910](#event-910)          | 0x0051       |      1 |              1 |
| [65535.4](#event-655354)   | 0x0052       |     15 |              3 |
| [65535.5](#event-655355)   | 0x0061       |     14 |              4 |
| [65535.6](#event-655356)   | 0x006F       |     34 |              8 |
| [65535.7](#event-655357)   | 0x0091       |     44 |             10 |
| [65535.8](#event-655358)   | 0x00BD       |     15 |              3 |
| [65535.9](#event-655359)   | 0x00CC       |     14 |              4 |
| [65535.10](#event-6553510) | 0x00DA       |     14 |              4 |
| [65535.11](#event-6553511) | 0x00E8       |     14 |              4 |
| [65535.12](#event-6553512) | 0x00F6       |     15 |              3 |
| [65535.13](#event-6553513) | 0x0105       |     14 |              4 |
| [65535.14](#event-6553514) | 0x0113       |     14 |              4 |
| [65535.15](#event-6553515) | 0x0121       |     14 |              4 |
| [920](#event-920)          | 0x012F       |      1 |              1 |
| [65535.16](#event-6553516) | 0x0130       |     15 |              3 |
| [65535.17](#event-6553517) | 0x013F       |     14 |              4 |
| [65535.18](#event-6553518) | 0x014D       |     14 |              4 |
| [65535.19](#event-6553519) | 0x015B       |     34 |              8 |
| [65535.20](#event-6553520) | 0x017D       |     14 |              4 |
| [65535.21](#event-6553521) | 0x018B       |     14 |              4 |
| [65535.22](#event-6553522) | 0x0199       |     14 |              4 |
| [65535.23](#event-6553523) | 0x01A7       |     14 |              4 |
| [65535.24](#event-6553524) | 0x01B5       |     24 |              6 |
| [65535.25](#event-6553525) | 0x01CD       |     14 |              4 |
| [65535.26](#event-6553526) | 0x01DB       |     14 |              4 |
| [65535.27](#event-6553527) | 0x01E9       |     19 |              5 |
| [65535.28](#event-6553528) | 0x01FC       |     14 |              4 |
| [930](#event-930)          | 0x020A       |      1 |              1 |

## DAT References (imed_data)

|   Index | Hex Value   |   Dec Value |
|---------|-------------|-------------|
|       0 | 0x1D52      |        7506 |
|       1 | 0x000D      |          13 |
|       2 | 0xFFFF16B8  |  4294907576 |
|       3 | 0x5A1D      |       23069 |
|       4 | 0xFFFFD8F1  |  4294957297 |
|       5 | 0xFFFF3B5F  |  4294916959 |
|       6 | 0x57A1      |       22433 |
|       7 | 0x003C      |          60 |
|       8 | 0x00EE      |         238 |
|       9 | 0xFFFEC6CB  |  4294887115 |
|      10 | 0x12D6      |        4822 |
|      11 | 0x07CF      |        1999 |
|      12 | 0x0F21      |        3873 |
|      13 | 0xFFFF43AB  |  4294919083 |
|      14 | 0x6014      |       24596 |
|      15 | 0x0AD5      |        2773 |
|      16 | 0x0C80      |        3200 |
|      17 | 0xFFFF3A95  |  4294916757 |
|      18 | 0x6247      |       25159 |
|      19 | 0xFFFF3079  |  4294914169 |
|      20 | 0x7479      |       29817 |
|      21 | 0x095E      |        2398 |
|      22 | 0xFFFF2A51  |  4294912593 |
|      23 | 0x741C      |       29724 |
|      24 | 0x07D0      |        2000 |
|      25 | 0xFFFF177D  |  4294907773 |
|      26 | 0x616E      |       24942 |
|      27 | 0x0028      |          40 |
|      28 | 0xFFFF3419  |  4294915097 |
|      29 | 0x7238      |       29240 |
|      30 | 0xFFFF27FC  |  4294911996 |
|      31 | 0x723A      |       29242 |
|      32 | 0xFFFF15F3  |  4294907379 |
|      33 | 0x5D77      |       23927 |
|      34 | 0xFFFF08AB  |  4294903979 |
|      35 | 0x4F94      |       20372 |
|      36 | 0xFFFFC61A  |  4294952474 |
|      37 | 0xFFFFDC58  |  4294958168 |
|      38 | 0x0000      |           0 |
|      39 | 0x0C69      |        3177 |
|      40 | 0xFFFFC080  |  4294951040 |
|      41 | 0xFFFFE1F8  |  4294959608 |
|      42 | 0xFFFF984E  |  4294940750 |
|      43 | 0xFFFFE556  |  4294960470 |
|      44 | 0xFFFFCA61  |  4294953569 |
|      45 | 0xFFFFF929  |  4294965545 |
|      46 | 0xFFFEA916  |  4294879510 |
|      47 | 0xFFFFCF87  |  4294954887 |
|      48 | 0x0B9C      |        2972 |
|      49 | 0xFFFEA4A8  |  4294878376 |
|      50 | 0xFFFFD651  |  4294956625 |
|      51 | 0xFFFEAB5B  |  4294880091 |
|      52 | 0xFFFFDE46  |  4294958662 |
|      53 | 0xFFFEA5D1  |  4294878673 |
|      54 | 0xFFFFF599  |  4294964633 |
|      55 | 0xFFFF83B7  |  4294935479 |
|      56 | 0xFFFFFFA2  |  4294967202 |
|      57 | 0x1F3F      |        7999 |
|      58 | 0x0F24      |        3876 |
|      59 | 0xFFFFA072  |  4294942834 |
|      60 | 0xFFFFFFBF  |  4294967231 |
|      61 | 0xFFFF86AD  |  4294936237 |
|      62 | 0xFFFFFFEA  |  4294967274 |
|      63 | 0xFFFF32AB  |  4294914731 |
|      64 | 0x7225      |       29221 |
|      65 | 0x0A1D      |        2589 |
|      66 | 0xFFFF2BB2  |  4294912946 |
|      67 | 0x7309      |       29449 |
|      68 | 0xFFFF2A7B  |  4294912635 |
|      69 | 0x6826      |       26662 |
|      70 | 0xFFFF2486  |  4294911110 |
|      71 | 0x621E      |       25118 |
|      72 | 0xFFFFB2CE  |  4294947534 |
|      73 | 0xFFFFE8B5  |  4294961333 |
|      74 | 0xFFFFBB86  |  4294949766 |
|      75 | 0xFFFFEDB7  |  4294962615 |
|      76 | 0xFFFE969D  |  4294874781 |
|      77 | 0xFFFFD9B7  |  4294957495 |
|      78 | 0xFFFEA25D  |  4294877789 |
|      79 | 0xFFFFE6F6  |  4294960886 |
|      80 | 0xFFFEA852  |  4294879314 |
|      81 | 0xFFFFDCBC  |  4294958268 |
|      82 | 0xFFFF9B5C  |  4294941532 |
|      83 | 0xFFFFFFA5  |  4294967205 |
|      84 | 0xFFFF9C29  |  4294941737 |
|      85 | 0x04E6      |        1254 |
|      86 | 0xFFFF9527  |  4294939943 |
|      87 | 0x000E      |          14 |

## String References

- **7506**: I must raise the Metalworks output before my term here ends. I should start by raising everyone's daily quota...

## Events

### Event 65535

#### Metadata

| Field        | Value   |
|--------------|---------|
| Entrypoint   | 0x0000  |
| Data Size    | 1 bytes |
| Instructions | 1       |

```
      00 01 02 03 04 05 06 07  08 09 0A 0B 0C 0D 0E 0F
      -- -- -- -- -- -- -- --  -- -- -- -- -- -- -- --
0000: 00                                                .               
```

#### Opcodes

```
  0: 0x0000 [0x00] END_REQSTACK()
```

### Event 400

#### Metadata

| Field        | Value    |
|--------------|----------|
| Entrypoint   | 0x0001   |
| Data Size    | 11 bytes |
| Instructions | 5        |

```
      00 01 02 03 04 05 06 07  08 09 0A 0B 0C 0D 0E 0F
      -- -- -- -- -- -- -- --  -- -- -- -- -- -- -- --
0000:    1E F0 FF FF 7F 1D 00  80 23 21 00               ........#!.    
```

#### Opcodes

```
  0: 0x0001 [0x1E] EventEntity looks at LocalPlayer and starts talking
  1: 0x0006 [0x1D] PRINT_EVENT_MESSAGE(message_id=7506*)
    → "I must raise the Metalworks output before my term here ends. I should start by raising everyone's daily quota..."
  2: 0x0009 [0x23] WAIT_FOR_DIALOG_INTERACTION
  3: 0x000A [0x21] END_EVENT
  4: 0x000B [0x00] END_REQSTACK()
```

### Event 899

#### Metadata

| Field        | Value   |
|--------------|---------|
| Entrypoint   | 0x000C  |
| Data Size    | 1 bytes |
| Instructions | 1       |

```
      00 01 02 03 04 05 06 07  08 09 0A 0B 0C 0D 0E 0F
      -- -- -- -- -- -- -- --  -- -- -- -- -- -- -- --
0000:                                      00                       .   
```

#### Opcodes

```
  0: 0x000C [0x00] END_REQSTACK()
```

### Event 65535.1

#### Metadata

| Field        | Value    |
|--------------|----------|
| Entrypoint   | 0x000D   |
| Data Size    | 14 bytes |
| Instructions | 4        |

```
      00 01 02 03 04 05 06 07  08 09 0A 0B 0C 0D 0E 0F
      -- -- -- -- -- -- -- --  -- -- -- -- -- -- -- --
0000:                                         32 01 80               2..
0010: 1F 00 02 80 03 80 04 80  1F 01 00                 ...........     
```

#### Opcodes

```
  0: 0x000D [0x32] ExtData[1]->MainSpeed = 13* * 0.1
  1: 0x0010 [0x1F] MOVE_ENTITY: EventEntity moves to X=-59.720*, Z=23.069*, Y=-9.999*
  2: 0x0018 [0x1F] MOVE_ENTITY: Update entity position (mode=1)
  3: 0x001A [0x00] END_REQSTACK()
```

### Event 900

#### Metadata

| Field        | Value   |
|--------------|---------|
| Entrypoint   | 0x001B  |
| Data Size    | 1 bytes |
| Instructions | 1       |

```
      00 01 02 03 04 05 06 07  08 09 0A 0B 0C 0D 0E 0F
      -- -- -- -- -- -- -- --  -- -- -- -- -- -- -- --
0010:                                   00                         .    
```

#### Opcodes

```
  0: 0x001B [0x00] END_REQSTACK()
```

### Event 65535.2

#### Metadata

| Field        | Value    |
|--------------|----------|
| Entrypoint   | 0x001C   |
| Data Size    | 35 bytes |
| Instructions | 7        |

```
      00 01 02 03 04 05 06 07  08 09 0A 0B 0C 0D 0E 0F
      -- -- -- -- -- -- -- --  -- -- -- -- -- -- -- --
0010:                                      32 01 80 1F              2...
0020: 00 05 80 06 80 04 80 1F  01 1C 07 80 5B 08 80 F8  ............[...
0030: FF FF 7F F8 FF FF 7F 74  68 6B 30 1C 07 80 00     .......thk0.... 
```

#### Opcodes

```
  0: 0x001C [0x32] ExtData[1]->MainSpeed = 13* * 0.1
  1: 0x001F [0x1F] MOVE_ENTITY: EventEntity moves to X=-50.337*, Z=22.433*, Y=-9.999*
  2: 0x0027 [0x1F] MOVE_ENTITY: Update entity position (mode=1)
  3: 0x0029 [0x1C] WAIT(60* ticks)
  4: 0x002C [0x5B] LOAD_EXT_SCHEDULER: Load scheduler "thk0" with entities [EventEntity, EventEntity], work=238*
  5: 0x003B [0x1C] WAIT(60* ticks)
  6: 0x003E [0x00] END_REQSTACK()
```

### Event 65535.3

#### Metadata

| Field        | Value    |
|--------------|----------|
| Entrypoint   | 0x003F   |
| Data Size    | 15 bytes |
| Instructions | 3        |

```
      00 01 02 03 04 05 06 07  08 09 0A 0B 0C 0D 0E 0F
      -- -- -- -- -- -- -- --  -- -- -- -- -- -- -- --
0030:                                               37                 7
0040: 09 80 0A 80 0B 80 0C 80  80 F8 FF FF 7F 00        ..............  
```

#### Opcodes

```
  0: 0x003F [0x37] UPDATE_EVENT_POSITION_AND_DIR: x=-80.181*, z=4.822*, y=1.999*, direction=340.4°*
  1: 0x0048 [0x80] LOAD_WAIT(entity=EventEntity)
  2: 0x004D [0x00] END_REQSTACK()
```

### Event 901

#### Metadata

| Field        | Value   |
|--------------|---------|
| Entrypoint   | 0x004E  |
| Data Size    | 1 bytes |
| Instructions | 1       |

```
      00 01 02 03 04 05 06 07  08 09 0A 0B 0C 0D 0E 0F
      -- -- -- -- -- -- -- --  -- -- -- -- -- -- -- --
0040:                                            00                   . 
```

#### Opcodes

```
  0: 0x004E [0x00] END_REQSTACK()
```

### Event 908

#### Metadata

| Field        | Value   |
|--------------|---------|
| Entrypoint   | 0x004F  |
| Data Size    | 1 bytes |
| Instructions | 1       |

```
      00 01 02 03 04 05 06 07  08 09 0A 0B 0C 0D 0E 0F
      -- -- -- -- -- -- -- --  -- -- -- -- -- -- -- --
0040:                                               00                 .
```

#### Opcodes

```
  0: 0x004F [0x00] END_REQSTACK()
```

### Event 909

#### Metadata

| Field        | Value   |
|--------------|---------|
| Entrypoint   | 0x0050  |
| Data Size    | 1 bytes |
| Instructions | 1       |

```
      00 01 02 03 04 05 06 07  08 09 0A 0B 0C 0D 0E 0F
      -- -- -- -- -- -- -- --  -- -- -- -- -- -- -- --
0050: 00                                                .               
```

#### Opcodes

```
  0: 0x0050 [0x00] END_REQSTACK()
```

### Event 910

#### Metadata

| Field        | Value   |
|--------------|---------|
| Entrypoint   | 0x0051  |
| Data Size    | 1 bytes |
| Instructions | 1       |

```
      00 01 02 03 04 05 06 07  08 09 0A 0B 0C 0D 0E 0F
      -- -- -- -- -- -- -- --  -- -- -- -- -- -- -- --
0050:    00                                              .              
```

#### Opcodes

```
  0: 0x0051 [0x00] END_REQSTACK()
```

### Event 65535.4

#### Metadata

| Field        | Value    |
|--------------|----------|
| Entrypoint   | 0x0052   |
| Data Size    | 15 bytes |
| Instructions | 3        |

```
      00 01 02 03 04 05 06 07  08 09 0A 0B 0C 0D 0E 0F
      -- -- -- -- -- -- -- --  -- -- -- -- -- -- -- --
0050:       37 0D 80 0E 80 0F  80 10 80 80 F8 FF FF 7F    7.............
0060: 00                                                .               
```

#### Opcodes

```
  0: 0x0052 [0x37] UPDATE_EVENT_POSITION_AND_DIR: x=-48.213*, z=24.596*, y=2.773*, direction=281.2°*
  1: 0x005B [0x80] LOAD_WAIT(entity=EventEntity)
  2: 0x0060 [0x00] END_REQSTACK()
```

### Event 65535.5

#### Metadata

| Field        | Value    |
|--------------|----------|
| Entrypoint   | 0x0061   |
| Data Size    | 14 bytes |
| Instructions | 4        |

```
      00 01 02 03 04 05 06 07  08 09 0A 0B 0C 0D 0E 0F
      -- -- -- -- -- -- -- --  -- -- -- -- -- -- -- --
0060:    32 01 80 1F 00 11 80  12 80 0F 80 1F 01 00      2............. 
```

#### Opcodes

```
  0: 0x0061 [0x32] ExtData[1]->MainSpeed = 13* * 0.1
  1: 0x0064 [0x1F] MOVE_ENTITY: EventEntity moves to X=-50.539*, Z=25.159*, Y=2.773*
  2: 0x006C [0x1F] MOVE_ENTITY: Update entity position (mode=1)
  3: 0x006E [0x00] END_REQSTACK()
```

### Event 65535.6

#### Metadata

| Field        | Value    |
|--------------|----------|
| Entrypoint   | 0x006F   |
| Data Size    | 34 bytes |
| Instructions | 8        |

```
      00 01 02 03 04 05 06 07  08 09 0A 0B 0C 0D 0E 0F
      -- -- -- -- -- -- -- --  -- -- -- -- -- -- -- --
0060:                                               32                 2
0070: 01 80 1F 00 13 80 14 80  15 80 1F 01 1F 00 16 80  ................
0080: 17 80 18 80 1F 01 1F 00  19 80 1A 80 18 80 1F 01  ................
0090: 00                                                .               
```

#### Opcodes

```
  0: 0x006F [0x32] ExtData[1]->MainSpeed = 13* * 0.1
  1: 0x0072 [0x1F] MOVE_ENTITY: EventEntity moves to X=-53.127*, Z=29.817*, Y=2.398*
  2: 0x007A [0x1F] MOVE_ENTITY: Update entity position (mode=1)
  3: 0x007C [0x1F] MOVE_ENTITY: EventEntity moves to X=-54.703*, Z=29.724*, Y=2.000*
  4: 0x0084 [0x1F] MOVE_ENTITY: Update entity position (mode=1)
  5: 0x0086 [0x1F] MOVE_ENTITY: EventEntity moves to X=-59.523*, Z=24.942*, Y=2.000*
  6: 0x008E [0x1F] MOVE_ENTITY: Update entity position (mode=1)
  7: 0x0090 [0x00] END_REQSTACK()
```

### Event 65535.7

#### Metadata

| Field        | Value    |
|--------------|----------|
| Entrypoint   | 0x0091   |
| Data Size    | 44 bytes |
| Instructions | 10       |

```
      00 01 02 03 04 05 06 07  08 09 0A 0B 0C 0D 0E 0F
      -- -- -- -- -- -- -- --  -- -- -- -- -- -- -- --
0090:    32 1B 80 1F 00 1C 80  1D 80 0F 80 1F 01 1F 00   2..............
00A0: 1E 80 1F 80 18 80 1F 01  1F 00 20 80 21 80 18 80  .......... .!...
00B0: 1F 01 1F 00 22 80 23 80  18 80 1F 01 00           ....".#......   
```

#### Opcodes

```
  0: 0x0091 [0x32] ExtData[1]->MainSpeed = 40* * 0.1
  1: 0x0094 [0x1F] MOVE_ENTITY: EventEntity moves to X=-52.199*, Z=29.240*, Y=2.773*
  2: 0x009C [0x1F] MOVE_ENTITY: Update entity position (mode=1)
  3: 0x009E [0x1F] MOVE_ENTITY: EventEntity moves to X=-55.300*, Z=29.242*, Y=2.000*
  4: 0x00A6 [0x1F] MOVE_ENTITY: Update entity position (mode=1)
  5: 0x00A8 [0x1F] MOVE_ENTITY: EventEntity moves to X=-59.917*, Z=23.927*, Y=2.000*
  6: 0x00B0 [0x1F] MOVE_ENTITY: Update entity position (mode=1)
  7: 0x00B2 [0x1F] MOVE_ENTITY: EventEntity moves to X=-63.317*, Z=20.372*, Y=2.000*
  8: 0x00BA [0x1F] MOVE_ENTITY: Update entity position (mode=1)
  9: 0x00BC [0x00] END_REQSTACK()
```

### Event 65535.8

#### Metadata

| Field        | Value    |
|--------------|----------|
| Entrypoint   | 0x00BD   |
| Data Size    | 15 bytes |
| Instructions | 3        |

```
      00 01 02 03 04 05 06 07  08 09 0A 0B 0C 0D 0E 0F
      -- -- -- -- -- -- -- --  -- -- -- -- -- -- -- --
00B0:                                         37 24 80               7$.
00C0: 25 80 26 80 27 80 80 F8  FF FF 7F 00              %.&.'.......    
```

#### Opcodes

```
  0: 0x00BD [0x37] UPDATE_EVENT_POSITION_AND_DIR: x=-14.822*, z=-9.128*, y=0.000*, direction=279.2°*
  1: 0x00C6 [0x80] LOAD_WAIT(entity=EventEntity)
  2: 0x00CB [0x00] END_REQSTACK()
```

### Event 65535.9

#### Metadata

| Field        | Value    |
|--------------|----------|
| Entrypoint   | 0x00CC   |
| Data Size    | 14 bytes |
| Instructions | 4        |

```
      00 01 02 03 04 05 06 07  08 09 0A 0B 0C 0D 0E 0F
      -- -- -- -- -- -- -- --  -- -- -- -- -- -- -- --
00C0:                                      32 01 80 1F              2...
00D0: 00 28 80 29 80 26 80 1F  01 00                    .(.).&....      
```

#### Opcodes

```
  0: 0x00CC [0x32] ExtData[1]->MainSpeed = 13* * 0.1
  1: 0x00CF [0x1F] MOVE_ENTITY: EventEntity moves to X=-16.256*, Z=-7.688*, Y=0.000*
  2: 0x00D7 [0x1F] MOVE_ENTITY: Update entity position (mode=1)
  3: 0x00D9 [0x00] END_REQSTACK()
```

### Event 65535.10

#### Metadata

| Field        | Value    |
|--------------|----------|
| Entrypoint   | 0x00DA   |
| Data Size    | 14 bytes |
| Instructions | 4        |

```
      00 01 02 03 04 05 06 07  08 09 0A 0B 0C 0D 0E 0F
      -- -- -- -- -- -- -- --  -- -- -- -- -- -- -- --
00D0:                                32 01 80 1F 00 2A            2....*
00E0: 80 2B 80 26 80 1F 01 00                           .+.&....        
```

#### Opcodes

```
  0: 0x00DA [0x32] ExtData[1]->MainSpeed = 13* * 0.1
  1: 0x00DD [0x1F] MOVE_ENTITY: EventEntity moves to X=-26.546*, Z=-6.826*, Y=0.000*
  2: 0x00E5 [0x1F] MOVE_ENTITY: Update entity position (mode=1)
  3: 0x00E7 [0x00] END_REQSTACK()
```

### Event 65535.11

#### Metadata

| Field        | Value    |
|--------------|----------|
| Entrypoint   | 0x00E8   |
| Data Size    | 14 bytes |
| Instructions | 4        |

```
      00 01 02 03 04 05 06 07  08 09 0A 0B 0C 0D 0E 0F
      -- -- -- -- -- -- -- --  -- -- -- -- -- -- -- --
00E0:                          32 1B 80 1F 00 2C 80 2D          2....,.-
00F0: 80 26 80 1F 01 00                                 .&....          
```

#### Opcodes

```
  0: 0x00E8 [0x32] ExtData[1]->MainSpeed = 40* * 0.1
  1: 0x00EB [0x1F] MOVE_ENTITY: EventEntity moves to X=-13.727*, Z=-1.751*, Y=0.000*
  2: 0x00F3 [0x1F] MOVE_ENTITY: Update entity position (mode=1)
  3: 0x00F5 [0x00] END_REQSTACK()
```

### Event 65535.12

#### Metadata

| Field        | Value    |
|--------------|----------|
| Entrypoint   | 0x00F6   |
| Data Size    | 15 bytes |
| Instructions | 3        |

```
      00 01 02 03 04 05 06 07  08 09 0A 0B 0C 0D 0E 0F
      -- -- -- -- -- -- -- --  -- -- -- -- -- -- -- --
00F0:                   37 2E  80 2F 80 18 80 30 80 80        7../...0..
0100: F8 FF FF 7F 00                                    .....           
```

#### Opcodes

```
  0: 0x00F6 [0x37] UPDATE_EVENT_POSITION_AND_DIR: x=-87.786*, z=-12.409*, y=2.000*, direction=261.2°*
  1: 0x00FF [0x80] LOAD_WAIT(entity=EventEntity)
  2: 0x0104 [0x00] END_REQSTACK()
```

### Event 65535.13

#### Metadata

| Field        | Value    |
|--------------|----------|
| Entrypoint   | 0x0105   |
| Data Size    | 14 bytes |
| Instructions | 4        |

```
      00 01 02 03 04 05 06 07  08 09 0A 0B 0C 0D 0E 0F
      -- -- -- -- -- -- -- --  -- -- -- -- -- -- -- --
0100:                32 01 80  1F 00 31 80 32 80 18 80       2....1.2...
0110: 1F 01 00                                          ...             
```

#### Opcodes

```
  0: 0x0105 [0x32] ExtData[1]->MainSpeed = 13* * 0.1
  1: 0x0108 [0x1F] MOVE_ENTITY: EventEntity moves to X=-88.920*, Z=-10.671*, Y=2.000*
  2: 0x0110 [0x1F] MOVE_ENTITY: Update entity position (mode=1)
  3: 0x0112 [0x00] END_REQSTACK()
```

### Event 65535.14

#### Metadata

| Field        | Value    |
|--------------|----------|
| Entrypoint   | 0x0113   |
| Data Size    | 14 bytes |
| Instructions | 4        |

```
      00 01 02 03 04 05 06 07  08 09 0A 0B 0C 0D 0E 0F
      -- -- -- -- -- -- -- --  -- -- -- -- -- -- -- --
0110:          32 01 80 1F 00  33 80 34 80 18 80 1F 01     2....3.4.....
0120: 00                                                .               
```

#### Opcodes

```
  0: 0x0113 [0x32] ExtData[1]->MainSpeed = 13* * 0.1
  1: 0x0116 [0x1F] MOVE_ENTITY: EventEntity moves to X=-87.205*, Z=-8.634*, Y=2.000*
  2: 0x011E [0x1F] MOVE_ENTITY: Update entity position (mode=1)
  3: 0x0120 [0x00] END_REQSTACK()
```

### Event 65535.15

#### Metadata

| Field        | Value    |
|--------------|----------|
| Entrypoint   | 0x0121   |
| Data Size    | 14 bytes |
| Instructions | 4        |

```
      00 01 02 03 04 05 06 07  08 09 0A 0B 0C 0D 0E 0F
      -- -- -- -- -- -- -- --  -- -- -- -- -- -- -- --
0120:    32 1B 80 1F 00 35 80  36 80 18 80 1F 01 00      2....5.6...... 
```

#### Opcodes

```
  0: 0x0121 [0x32] ExtData[1]->MainSpeed = 40* * 0.1
  1: 0x0124 [0x1F] MOVE_ENTITY: EventEntity moves to X=-88.623*, Z=-2.663*, Y=2.000*
  2: 0x012C [0x1F] MOVE_ENTITY: Update entity position (mode=1)
  3: 0x012E [0x00] END_REQSTACK()
```

### Event 920

#### Metadata

| Field        | Value   |
|--------------|---------|
| Entrypoint   | 0x012F  |
| Data Size    | 1 bytes |
| Instructions | 1       |

```
      00 01 02 03 04 05 06 07  08 09 0A 0B 0C 0D 0E 0F
      -- -- -- -- -- -- -- --  -- -- -- -- -- -- -- --
0120:                                               00                 .
```

#### Opcodes

```
  0: 0x012F [0x00] END_REQSTACK()
```

### Event 65535.16

#### Metadata

| Field        | Value    |
|--------------|----------|
| Entrypoint   | 0x0130   |
| Data Size    | 15 bytes |
| Instructions | 3        |

```
      00 01 02 03 04 05 06 07  08 09 0A 0B 0C 0D 0E 0F
      -- -- -- -- -- -- -- --  -- -- -- -- -- -- -- --
0130: 37 37 80 38 80 39 80 3A  80 80 F8 FF FF 7F 00     77.8.9.:....... 
```

#### Opcodes

```
  0: 0x0130 [0x37] UPDATE_EVENT_POSITION_AND_DIR: x=-31.817*, z=-0.094*, y=7.999*, direction=340.7°*
  1: 0x0139 [0x80] LOAD_WAIT(entity=EventEntity)
  2: 0x013E [0x00] END_REQSTACK()
```

### Event 65535.17

#### Metadata

| Field        | Value    |
|--------------|----------|
| Entrypoint   | 0x013F   |
| Data Size    | 14 bytes |
| Instructions | 4        |

```
      00 01 02 03 04 05 06 07  08 09 0A 0B 0C 0D 0E 0F
      -- -- -- -- -- -- -- --  -- -- -- -- -- -- -- --
0130:                                               32                 2
0140: 1B 80 1F 00 3B 80 3C 80  39 80 1F 01 00           ....;.<.9....   
```

#### Opcodes

```
  0: 0x013F [0x32] ExtData[1]->MainSpeed = 40* * 0.1
  1: 0x0142 [0x1F] MOVE_ENTITY: EventEntity moves to X=-24.462*, Z=-0.065*, Y=7.999*
  2: 0x014A [0x1F] MOVE_ENTITY: Update entity position (mode=1)
  3: 0x014C [0x00] END_REQSTACK()
```

### Event 65535.18

#### Metadata

| Field        | Value    |
|--------------|----------|
| Entrypoint   | 0x014D   |
| Data Size    | 14 bytes |
| Instructions | 4        |

```
      00 01 02 03 04 05 06 07  08 09 0A 0B 0C 0D 0E 0F
      -- -- -- -- -- -- -- --  -- -- -- -- -- -- -- --
0140:                                         32 01 80               2..
0150: 1F 00 3D 80 3E 80 39 80  1F 01 00                 ..=.>.9....     
```

#### Opcodes

```
  0: 0x014D [0x32] ExtData[1]->MainSpeed = 13* * 0.1
  1: 0x0150 [0x1F] MOVE_ENTITY: EventEntity moves to X=-31.059*, Z=-0.022*, Y=7.999*
  2: 0x0158 [0x1F] MOVE_ENTITY: Update entity position (mode=1)
  3: 0x015A [0x00] END_REQSTACK()
```

### Event 65535.19

#### Metadata

| Field        | Value    |
|--------------|----------|
| Entrypoint   | 0x015B   |
| Data Size    | 34 bytes |
| Instructions | 8        |

```
      00 01 02 03 04 05 06 07  08 09 0A 0B 0C 0D 0E 0F
      -- -- -- -- -- -- -- --  -- -- -- -- -- -- -- --
0150:                                   32 1B 80 1F 00             2....
0160: 3F 80 40 80 41 80 1F 01  1F 00 42 80 43 80 18 80  ?.@.A.....B.C...
0170: 1F 01 1F 00 44 80 45 80  0B 80 1F 01 00           ....D.E......   
```

#### Opcodes

```
  0: 0x015B [0x32] ExtData[1]->MainSpeed = 40* * 0.1
  1: 0x015E [0x1F] MOVE_ENTITY: EventEntity moves to X=-52.565*, Z=29.221*, Y=2.589*
  2: 0x0166 [0x1F] MOVE_ENTITY: Update entity position (mode=1)
  3: 0x0168 [0x1F] MOVE_ENTITY: EventEntity moves to X=-54.350*, Z=29.449*, Y=2.000*
  4: 0x0170 [0x1F] MOVE_ENTITY: Update entity position (mode=1)
  5: 0x0172 [0x1F] MOVE_ENTITY: EventEntity moves to X=-54.661*, Z=26.662*, Y=1.999*
  6: 0x017A [0x1F] MOVE_ENTITY: Update entity position (mode=1)
  7: 0x017C [0x00] END_REQSTACK()
```

### Event 65535.20

#### Metadata

| Field        | Value    |
|--------------|----------|
| Entrypoint   | 0x017D   |
| Data Size    | 14 bytes |
| Instructions | 4        |

```
      00 01 02 03 04 05 06 07  08 09 0A 0B 0C 0D 0E 0F
      -- -- -- -- -- -- -- --  -- -- -- -- -- -- -- --
0170:                                         32 1B 80               2..
0180: 1F 00 46 80 47 80 0B 80  1F 01 00                 ..F.G......     
```

#### Opcodes

```
  0: 0x017D [0x32] ExtData[1]->MainSpeed = 40* * 0.1
  1: 0x0180 [0x1F] MOVE_ENTITY: EventEntity moves to X=-56.186*, Z=25.118*, Y=1.999*
  2: 0x0188 [0x1F] MOVE_ENTITY: Update entity position (mode=1)
  3: 0x018A [0x00] END_REQSTACK()
```

### Event 65535.21

#### Metadata

| Field        | Value    |
|--------------|----------|
| Entrypoint   | 0x018B   |
| Data Size    | 14 bytes |
| Instructions | 4        |

```
      00 01 02 03 04 05 06 07  08 09 0A 0B 0C 0D 0E 0F
      -- -- -- -- -- -- -- --  -- -- -- -- -- -- -- --
0180:                                   32 01 80 1F 00             2....
0190: 19 80 1A 80 18 80 1F 01  00                       .........       
```

#### Opcodes

```
  0: 0x018B [0x32] ExtData[1]->MainSpeed = 13* * 0.1
  1: 0x018E [0x1F] MOVE_ENTITY: EventEntity moves to X=-59.523*, Z=24.942*, Y=2.000*
  2: 0x0196 [0x1F] MOVE_ENTITY: Update entity position (mode=1)
  3: 0x0198 [0x00] END_REQSTACK()
```

### Event 65535.22

#### Metadata

| Field        | Value    |
|--------------|----------|
| Entrypoint   | 0x0199   |
| Data Size    | 14 bytes |
| Instructions | 4        |

```
      00 01 02 03 04 05 06 07  08 09 0A 0B 0C 0D 0E 0F
      -- -- -- -- -- -- -- --  -- -- -- -- -- -- -- --
0190:                             32 1B 80 1F 00 48 80           2....H.
01A0: 49 80 26 80 1F 01 00                              I.&....         
```

#### Opcodes

```
  0: 0x0199 [0x32] ExtData[1]->MainSpeed = 40* * 0.1
  1: 0x019C [0x1F] MOVE_ENTITY: EventEntity moves to X=-19.762*, Z=-5.963*, Y=0.000*
  2: 0x01A4 [0x1F] MOVE_ENTITY: Update entity position (mode=1)
  3: 0x01A6 [0x00] END_REQSTACK()
```

### Event 65535.23

#### Metadata

| Field        | Value    |
|--------------|----------|
| Entrypoint   | 0x01A7   |
| Data Size    | 14 bytes |
| Instructions | 4        |

```
      00 01 02 03 04 05 06 07  08 09 0A 0B 0C 0D 0E 0F
      -- -- -- -- -- -- -- --  -- -- -- -- -- -- -- --
01A0:                      32  1B 80 1F 00 4A 80 4B 80         2....J.K.
01B0: 26 80 1F 01 00                                    &....           
```

#### Opcodes

```
  0: 0x01A7 [0x32] ExtData[1]->MainSpeed = 40* * 0.1
  1: 0x01AA [0x1F] MOVE_ENTITY: EventEntity moves to X=-17.530*, Z=-4.681*, Y=0.000*
  2: 0x01B2 [0x1F] MOVE_ENTITY: Update entity position (mode=1)
  3: 0x01B4 [0x00] END_REQSTACK()
```

### Event 65535.24

#### Metadata

| Field        | Value    |
|--------------|----------|
| Entrypoint   | 0x01B5   |
| Data Size    | 24 bytes |
| Instructions | 6        |

```
      00 01 02 03 04 05 06 07  08 09 0A 0B 0C 0D 0E 0F
      -- -- -- -- -- -- -- --  -- -- -- -- -- -- -- --
01B0:                32 1B 80  1F 00 4C 80 4D 80 18 80       2....L.M...
01C0: 1F 01 1F 00 4E 80 4F 80  18 80 1F 01 00           ....N.O......   
```

#### Opcodes

```
  0: 0x01B5 [0x32] ExtData[1]->MainSpeed = 40* * 0.1
  1: 0x01B8 [0x1F] MOVE_ENTITY: EventEntity moves to X=-92.515*, Z=-9.801*, Y=2.000*
  2: 0x01C0 [0x1F] MOVE_ENTITY: Update entity position (mode=1)
  3: 0x01C2 [0x1F] MOVE_ENTITY: EventEntity moves to X=-89.507*, Z=-6.410*, Y=2.000*
  4: 0x01CA [0x1F] MOVE_ENTITY: Update entity position (mode=1)
  5: 0x01CC [0x00] END_REQSTACK()
```

### Event 65535.25

#### Metadata

| Field        | Value    |
|--------------|----------|
| Entrypoint   | 0x01CD   |
| Data Size    | 14 bytes |
| Instructions | 4        |

```
      00 01 02 03 04 05 06 07  08 09 0A 0B 0C 0D 0E 0F
      -- -- -- -- -- -- -- --  -- -- -- -- -- -- -- --
01C0:                                         32 1B 80               2..
01D0: 1F 00 50 80 51 80 18 80  1F 01 00                 ..P.Q......     
```

#### Opcodes

```
  0: 0x01CD [0x32] ExtData[1]->MainSpeed = 40* * 0.1
  1: 0x01D0 [0x1F] MOVE_ENTITY: EventEntity moves to X=-87.982*, Z=-9.028*, Y=2.000*
  2: 0x01D8 [0x1F] MOVE_ENTITY: Update entity position (mode=1)
  3: 0x01DA [0x00] END_REQSTACK()
```

### Event 65535.26

#### Metadata

| Field        | Value    |
|--------------|----------|
| Entrypoint   | 0x01DB   |
| Data Size    | 14 bytes |
| Instructions | 4        |

```
      00 01 02 03 04 05 06 07  08 09 0A 0B 0C 0D 0E 0F
      -- -- -- -- -- -- -- --  -- -- -- -- -- -- -- --
01D0:                                   32 01 80 1F 00             2....
01E0: 52 80 53 80 39 80 1F 01  00                       R.S.9....       
```

#### Opcodes

```
  0: 0x01DB [0x32] ExtData[1]->MainSpeed = 13* * 0.1
  1: 0x01DE [0x1F] MOVE_ENTITY: EventEntity moves to X=-25.764*, Z=-0.091*, Y=7.999*
  2: 0x01E6 [0x1F] MOVE_ENTITY: Update entity position (mode=1)
  3: 0x01E8 [0x00] END_REQSTACK()
```

### Event 65535.27

#### Metadata

| Field        | Value    |
|--------------|----------|
| Entrypoint   | 0x01E9   |
| Data Size    | 19 bytes |
| Instructions | 5        |

```
      00 01 02 03 04 05 06 07  08 09 0A 0B 0C 0D 0E 0F
      -- -- -- -- -- -- -- --  -- -- -- -- -- -- -- --
01E0:                             32 01 80 1F 00 54 80           2....T.
01F0: 55 80 39 80 1F 01 1E B1  D0 0E 01 00              U.9.........    
```

#### Opcodes

```
  0: 0x01E9 [0x32] ExtData[1]->MainSpeed = 13* * 0.1
  1: 0x01EC [0x1F] MOVE_ENTITY: EventEntity moves to X=-25.559*, Z=1.254*, Y=7.999*
  2: 0x01F4 [0x1F] MOVE_ENTITY: Update entity position (mode=1)
  3: 0x01F6 [0x1E] EventEntity looks at Nabima-Hyonbima (ID: 17748145/0x010ED0B1) and starts talking
  4: 0x01FB [0x00] END_REQSTACK()
```

### Event 65535.28

#### Metadata

| Field        | Value    |
|--------------|----------|
| Entrypoint   | 0x01FC   |
| Data Size    | 14 bytes |
| Instructions | 4        |

```
      00 01 02 03 04 05 06 07  08 09 0A 0B 0C 0D 0E 0F
      -- -- -- -- -- -- -- --  -- -- -- -- -- -- -- --
01F0:                                      32 01 80 1F              2...
0200: 00 56 80 57 80 39 80 1F  01 00                    .V.W.9....      
```

#### Opcodes

```
  0: 0x01FC [0x32] ExtData[1]->MainSpeed = 13* * 0.1
  1: 0x01FF [0x1F] MOVE_ENTITY: EventEntity moves to X=-27.353*, Z=0.014*, Y=7.999*
  2: 0x0207 [0x1F] MOVE_ENTITY: Update entity position (mode=1)
  3: 0x0209 [0x00] END_REQSTACK()
```

### Event 930

#### Metadata

| Field        | Value   |
|--------------|---------|
| Entrypoint   | 0x020A  |
| Data Size    | 1 bytes |
| Instructions | 1       |

```
      00 01 02 03 04 05 06 07  08 09 0A 0B 0C 0D 0E 0F
      -- -- -- -- -- -- -- --  -- -- -- -- -- -- -- --
0200:                                00                           .     
```

#### Opcodes

```
  0: 0x020A [0x00] END_REQSTACK()
```
