# 17748144 - Miledo-Shiraddo

## Common Data

| Field            | Value                |
|------------------|----------------------|
| Zone             | Metalworks (ID: 237) |
| Block Size       | 1984 bytes           |
| Total Events     | 78                   |
| References Count | 156                  |

## List of Events

| Event ID                   | Entrypoint   |   Size |   Instructions |
|----------------------------|--------------|--------|----------------|
| [65535](#event-65535)      | 0x0000       |      1 |              1 |
| [900](#event-900)          | 0x0001       |      1 |              1 |
| [65535.1](#event-655351)   | 0x0002       |     19 |              5 |
| [65535.2](#event-655352)   | 0x0015       |     14 |              4 |
| [65535.3](#event-655353)   | 0x0023       |     15 |              3 |
| [65535.4](#event-655354)   | 0x0032       |     30 |              8 |
| [65535.5](#event-655355)   | 0x0050       |     15 |              3 |
| [65535.6](#event-655356)   | 0x005F       |     19 |              5 |
| [908](#event-908)          | 0x0072       |      1 |              1 |
| [909](#event-909)          | 0x0073       |      1 |              1 |
| [910](#event-910)          | 0x0074       |      1 |              1 |
| [916](#event-916)          | 0x0075       |      1 |              1 |
| [917](#event-917)          | 0x0076       |      1 |              1 |
| [918](#event-918)          | 0x0077       |      1 |              1 |
| [919](#event-919)          | 0x0078       |      1 |              1 |
| [65535.7](#event-655357)   | 0x0079       |     15 |              3 |
| [65535.8](#event-655358)   | 0x0088       |     14 |              4 |
| [65535.9](#event-655359)   | 0x0096       |     15 |              3 |
| [65535.10](#event-6553510) | 0x00A5       |     37 |              9 |
| [65535.11](#event-6553511) | 0x00CA       |     19 |              5 |
| [65535.12](#event-6553512) | 0x00DD       |     19 |              5 |
| [65535.13](#event-6553513) | 0x00F0       |     15 |              3 |
| [65535.14](#event-6553514) | 0x00FF       |     14 |              4 |
| [65535.15](#event-6553515) | 0x010D       |     15 |              3 |
| [65535.16](#event-6553516) | 0x011C       |     19 |              5 |
| [65535.17](#event-6553517) | 0x012F       |     23 |              5 |
| [65535.18](#event-6553518) | 0x0146       |     33 |              7 |
| [65535.19](#event-6553519) | 0x0167       |     14 |              4 |
| [65535.20](#event-6553520) | 0x0175       |     15 |              3 |
| [65535.21](#event-6553521) | 0x0184       |     19 |              5 |
| [65535.22](#event-6553522) | 0x0197       |     15 |              3 |
| [65535.23](#event-6553523) | 0x01A6       |     19 |              5 |
| [65535.24](#event-6553524) | 0x01B9       |     14 |              4 |
| [65535.25](#event-6553525) | 0x01C7       |     15 |              3 |
| [65535.26](#event-6553526) | 0x01D6       |     19 |              5 |
| [65535.27](#event-6553527) | 0x01E9       |     14 |              4 |
| [65535.28](#event-6553528) | 0x01F7       |     15 |              3 |
| [65535.29](#event-6553529) | 0x0206       |     19 |              5 |
| [65535.30](#event-6553530) | 0x0219       |     14 |              4 |
| [65535.31](#event-6553531) | 0x0227       |     15 |              3 |
| [65535.32](#event-6553532) | 0x0236       |     19 |              5 |
| [65535.33](#event-6553533) | 0x0249       |     15 |              3 |
| [65535.34](#event-6553534) | 0x0258       |     19 |              5 |
| [65535.35](#event-6553535) | 0x026B       |     14 |              4 |
| [65535.36](#event-6553536) | 0x0279       |     15 |              3 |
| [65535.37](#event-6553537) | 0x0288       |     19 |              5 |
| [65535.38](#event-6553538) | 0x029B       |     15 |              3 |
| [65535.39](#event-6553539) | 0x02AA       |     21 |              5 |
| [65535.40](#event-6553540) | 0x02BF       |     31 |              7 |
| [65535.41](#event-6553541) | 0x02DE       |     31 |              7 |
| [65535.42](#event-6553542) | 0x02FD       |     15 |              3 |
| [65535.43](#event-6553543) | 0x030C       |     14 |              4 |
| [65535.44](#event-6553544) | 0x031A       |     23 |              5 |
| [65535.45](#event-6553545) | 0x0331       |     15 |              3 |
| [901](#event-901)          | 0x0340       |      1 |              1 |
| [65535.46](#event-6553546) | 0x0341       |     15 |              3 |
| [902](#event-902)          | 0x0350       |      1 |              1 |
| [65535.47](#event-6553547) | 0x0351       |     15 |              3 |
| [903](#event-903)          | 0x0360       |      1 |              1 |
| [65535.48](#event-6553548) | 0x0361       |     15 |              3 |
| [904](#event-904)          | 0x0370       |      1 |              1 |
| [65535.49](#event-6553549) | 0x0371       |     15 |              3 |
| [913](#event-913)          | 0x0380       |      1 |              1 |
| [65535.50](#event-6553550) | 0x0381       |     15 |              3 |
| [905](#event-905)          | 0x0390       |      1 |              1 |
| [65535.51](#event-6553551) | 0x0391       |     15 |              3 |
| [906](#event-906)          | 0x03A0       |      1 |              1 |
| [65535.52](#event-6553552) | 0x03A1       |     15 |              3 |
| [920](#event-920)          | 0x03B0       |      1 |              1 |
| [65535.53](#event-6553553) | 0x03B1       |     14 |              4 |
| [65535.54](#event-6553554) | 0x03BF       |     15 |              3 |
| [65535.55](#event-6553555) | 0x03CE       |     24 |              6 |
| [65535.56](#event-6553556) | 0x03E6       |     14 |              4 |
| [921](#event-921)          | 0x03F4       |      1 |              1 |
| [922](#event-922)          | 0x03F5       |      1 |              1 |
| [65535.57](#event-6553557) | 0x03F6       |     15 |              3 |
| [924](#event-924)          | 0x0405       |      1 |              1 |
| [930](#event-930)          | 0x0406       |      1 |              1 |

## DAT References (imed_data)

|   Index | Hex Value   |   Dec Value |
|---------|-------------|-------------|
|       0 | 0x000D      |          13 |
|       1 | 0xFFFF9ED0  |  4294942416 |
|       2 | 0x004F      |          79 |
|       3 | 0x1F3F      |        7999 |
|       4 | 0xFFFF8AE4  |  4294937316 |
|       5 | 0x0934      |        2356 |
|       6 | 0xFFFF4330  |  4294918960 |
|       7 | 0x6669      |       26217 |
|       8 | 0xFFFFD8F1  |  4294957297 |
|       9 | 0x05E7      |        1511 |
|      10 | 0x0028      |          40 |
|      11 | 0xFFFF3F9E  |  4294918046 |
|      12 | 0x5B73      |       23411 |
|      13 | 0x003C      |          60 |
|      14 | 0xFFFF69EB  |  4294928875 |
|      15 | 0x54DC      |       21724 |
|      16 | 0xFFFF8BA4  |  4294937508 |
|      17 | 0xFFFFFF54  |  4294967124 |
|      18 | 0x0F05      |        3845 |
|      19 | 0xFFFF95C8  |  4294940104 |
|      20 | 0xFFFFFF86  |  4294967174 |
|      21 | 0xFFFF232C  |  4294910764 |
|      22 | 0x5B7A      |       23418 |
|      23 | 0x07D0      |        2000 |
|      24 | 0x0F01      |        3841 |
|      25 | 0xFFFF223C  |  4294910524 |
|      26 | 0x59E5      |       23013 |
|      27 | 0xFFFF2942  |  4294912322 |
|      28 | 0x6132      |       24882 |
|      29 | 0x000F      |          15 |
|      30 | 0xFFFF1823  |  4294907939 |
|      31 | 0x5A7E      |       23166 |
|      32 | 0x07CF      |        1999 |
|      33 | 0x0078      |         120 |
|      34 | 0xFFFF08AB  |  4294903979 |
|      35 | 0x4F94      |       20372 |
|      36 | 0xFFFF15CA  |  4294907338 |
|      37 | 0x5D7D      |       23933 |
|      38 | 0xFFFF20C7  |  4294910151 |
|      39 | 0x6243      |       25155 |
|      40 | 0xFFFF9E28  |  4294942248 |
|      41 | 0x1A8E      |        6798 |
|      42 | 0x0000      |           0 |
|      43 | 0x02CF      |         719 |
|      44 | 0xFFFF8A3B  |  4294937147 |
|      45 | 0x01F2      |         498 |
|      46 | 0xFFFFA6A7  |  4294944423 |
|      47 | 0xFFFFEFB2  |  4294963122 |
|      48 | 0x08C9      |        2249 |
|      49 | 0xFFFF9501  |  4294939905 |
|      50 | 0x0032      |          50 |
|      51 | 0xFFFF978B  |  4294940555 |
|      52 | 0x0771      |        1905 |
|      53 | 0xFFFE941A  |  4294874138 |
|      54 | 0x33A9      |       13225 |
|      55 | 0x0393      |         915 |
|      56 | 0xFFFE96E4  |  4294874852 |
|      57 | 0x2B42      |       11074 |
|      58 | 0xFFFE94D1  |  4294874321 |
|      59 | 0x38B9      |       14521 |
|      60 | 0x0206      |         518 |
|      61 | 0xFFFE9B11  |  4294875921 |
|      62 | 0x2C52      |       11346 |
|      63 | 0xFFFF8EF5  |  4294938357 |
|      64 | 0xFFFFA5BD  |  4294944189 |
|      65 | 0x03F0      |        1008 |
|      66 | 0xFFFF982E  |  4294940718 |
|      67 | 0xFFFF9A0F  |  4294941199 |
|      68 | 0xFFFF9474  |  4294939764 |
|      69 | 0xFFFFA916  |  4294945046 |
|      70 | 0x0390      |         912 |
|      71 | 0xFFFF960B  |  4294940171 |
|      72 | 0xFFFF9FF8  |  4294942712 |
|      73 | 0xFFFFC33B  |  4294951739 |
|      74 | 0x07EB      |        2027 |
|      75 | 0xFFFECF86  |  4294889350 |
|      76 | 0x380A      |       14346 |
|      77 | 0x0B5E      |        2910 |
|      78 | 0xFFFEC987  |  4294887815 |
|      79 | 0x469E      |       18078 |
|      80 | 0xFFFECF0F  |  4294889231 |
|      81 | 0x3151      |       12625 |
|      82 | 0x0B6F      |        2927 |
|      83 | 0xFFFEC39E  |  4294886302 |
|      84 | 0x4582      |       17794 |
|      85 | 0xFFFFA309  |  4294943497 |
|      86 | 0x5203      |       20995 |
|      87 | 0xFFFFD8F2  |  4294957298 |
|      88 | 0x0F8A      |        3978 |
|      89 | 0xFFFFB8D8  |  4294949080 |
|      90 | 0x53A9      |       21417 |
|      91 | 0xFFFFDBE4  |  4294958052 |
|      92 | 0xFFFF9F53  |  4294942547 |
|      93 | 0x5654      |       22100 |
|      94 | 0x0F5A      |        3930 |
|      95 | 0xFFFFB89D  |  4294949021 |
|      96 | 0x5C3B      |       23611 |
|      97 | 0xFFFE9303  |  4294873859 |
|      98 | 0xFFFFF6A0  |  4294964896 |
|      99 | 0x0914      |        2324 |
|     100 | 0x0128      |         296 |
|     101 | 0xFFFE8E1E  |  4294872606 |
|     102 | 0xFFFFF183  |  4294963587 |
|     103 | 0x08FC      |        2300 |
|     104 | 0xFFFE927C  |  4294873724 |
|     105 | 0xFFFFF3DB  |  4294964187 |
|     106 | 0xFFFE939C  |  4294874012 |
|     107 | 0xFFFFFFFE  |  4294967294 |
|     108 | 0x0895      |        2197 |
|     109 | 0xFFFE90C5  |  4294873285 |
|     110 | 0xFFFFF079  |  4294963321 |
|     111 | 0xFFFE8F1A  |  4294872858 |
|     112 | 0xFFFFF130  |  4294963504 |
|     113 | 0xFFFEA1C3  |  4294877635 |
|     114 | 0xFFFFDFF8  |  4294959096 |
|     115 | 0x0313      |         787 |
|     116 | 0xFFFEB2D1  |  4294882001 |
|     117 | 0x0003      |           3 |
|     118 | 0xFFFEA645  |  4294878789 |
|     119 | 0xFFFFEBDF  |  4294962143 |
|     120 | 0x0999      |        2457 |
|     121 | 0xFFFF1095  |  4294906005 |
|     122 | 0x5C23      |       23587 |
|     123 | 0x01C4      |         452 |
|     124 | 0xFFFE916B  |  4294873451 |
|     125 | 0x2A46      |       10822 |
|     126 | 0x0327      |         807 |
|     127 | 0xFFFFB84B  |  4294948939 |
|     128 | 0x5234      |       21044 |
|     129 | 0x0058      |          88 |
|     130 | 0xFFFEEB60  |  4294896480 |
|     131 | 0xFFFFDFDA  |  4294959066 |
|     132 | 0x0C99      |        3225 |
|     133 | 0xFFFFA65C  |  4294944348 |
|     134 | 0xFFFFA3D2  |  4294943698 |
|     135 | 0x0414      |        1044 |
|     136 | 0xFFFF8EA3  |  4294938275 |
|     137 | 0xFFFF955E  |  4294939998 |
|     138 | 0x00C9      |         201 |
|     139 | 0xFFFEC844  |  4294887492 |
|     140 | 0x4656      |       18006 |
|     141 | 0x0E18      |        3608 |
|     142 | 0xFFFF86AD  |  4294936237 |
|     143 | 0xFFFFFFEA  |  4294967274 |
|     144 | 0xFFFFC015  |  4294950933 |
|     145 | 0xFFFFA2E6  |  4294943462 |
|     146 | 0x04BC      |        1212 |
|     147 | 0xFFFFB975  |  4294949237 |
|     148 | 0xFFFFAD3D  |  4294946109 |
|     149 | 0xFFFFAFA2  |  4294946722 |
|     150 | 0xFFFFAE5E  |  4294946398 |
|     151 | 0xFFFF925A  |  4294939226 |
|     152 | 0xFFFFAE96  |  4294946454 |
|     153 | 0xFFFEB4DB  |  4294882523 |
|     154 | 0xFFFFE511  |  4294960401 |
|     155 | 0x0A4A      |        2634 |

## Events

### Event 65535

#### Metadata

| Field        | Value   |
|--------------|---------|
| Entrypoint   | 0x0000  |
| Data Size    | 1 bytes |
| Instructions | 1       |

```
      00 01 02 03 04 05 06 07  08 09 0A 0B 0C 0D 0E 0F
      -- -- -- -- -- -- -- --  -- -- -- -- -- -- -- --
0000: 00                                                .               
```

#### Opcodes

```
  0: 0x0000 [0x00] END_REQSTACK()
```

### Event 900

#### Metadata

| Field        | Value   |
|--------------|---------|
| Entrypoint   | 0x0001  |
| Data Size    | 1 bytes |
| Instructions | 1       |

```
      00 01 02 03 04 05 06 07  08 09 0A 0B 0C 0D 0E 0F
      -- -- -- -- -- -- -- --  -- -- -- -- -- -- -- --
0000:    00                                              .              
```

#### Opcodes

```
  0: 0x0001 [0x00] END_REQSTACK()
```

### Event 65535.1

#### Metadata

| Field        | Value    |
|--------------|----------|
| Entrypoint   | 0x0002   |
| Data Size    | 19 bytes |
| Instructions | 5        |

```
      00 01 02 03 04 05 06 07  08 09 0A 0B 0C 0D 0E 0F
      -- -- -- -- -- -- -- --  -- -- -- -- -- -- -- --
0000:       32 00 80 1F 00 01  80 02 80 03 80 1F 01 1E    2.............
0010: F0 FF FF 7F 00                                    .....           
```

#### Opcodes

```
  0: 0x0002 [0x32] ExtData[1]->MainSpeed = 13* * 0.1
  1: 0x0005 [0x1F] MOVE_ENTITY: EventEntity moves to X=-24.880*, Z=0.079*, Y=7.999*
  2: 0x000D [0x1F] MOVE_ENTITY: Update entity position (mode=1)
  3: 0x000F [0x1E] EventEntity looks at LocalPlayer and starts talking
  4: 0x0014 [0x00] END_REQSTACK()
```

### Event 65535.2

#### Metadata

| Field        | Value    |
|--------------|----------|
| Entrypoint   | 0x0015   |
| Data Size    | 14 bytes |
| Instructions | 4        |

```
      00 01 02 03 04 05 06 07  08 09 0A 0B 0C 0D 0E 0F
      -- -- -- -- -- -- -- --  -- -- -- -- -- -- -- --
0010:                32 00 80  1F 00 04 80 05 80 03 80       2..........
0020: 1F 01 00                                          ...             
```

#### Opcodes

```
  0: 0x0015 [0x32] ExtData[1]->MainSpeed = 13* * 0.1
  1: 0x0018 [0x1F] MOVE_ENTITY: EventEntity moves to X=-29.980*, Z=2.356*, Y=7.999*
  2: 0x0020 [0x1F] MOVE_ENTITY: Update entity position (mode=1)
  3: 0x0022 [0x00] END_REQSTACK()
```

### Event 65535.3

#### Metadata

| Field        | Value    |
|--------------|----------|
| Entrypoint   | 0x0023   |
| Data Size    | 15 bytes |
| Instructions | 3        |

```
      00 01 02 03 04 05 06 07  08 09 0A 0B 0C 0D 0E 0F
      -- -- -- -- -- -- -- --  -- -- -- -- -- -- -- --
0020:          37 06 80 07 80  08 80 09 80 80 F8 FF FF     7............
0030: 7F 00                                             ..              
```

#### Opcodes

```
  0: 0x0023 [0x37] UPDATE_EVENT_POSITION_AND_DIR: x=-48.336*, z=26.217*, y=-9.999*, direction=132.8°*
  1: 0x002C [0x80] LOAD_WAIT(entity=EventEntity)
  2: 0x0031 [0x00] END_REQSTACK()
```

### Event 65535.4

#### Metadata

| Field        | Value    |
|--------------|----------|
| Entrypoint   | 0x0032   |
| Data Size    | 30 bytes |
| Instructions | 8        |

```
      00 01 02 03 04 05 06 07  08 09 0A 0B 0C 0D 0E 0F
      -- -- -- -- -- -- -- --  -- -- -- -- -- -- -- --
0030:       32 0A 80 1F 00 0B  80 0C 80 08 80 1F 01 1C    2.............
0040: 0D 80 32 0A 80 1F 00 0E  80 0F 80 08 80 1F 01 00  ..2.............
```

#### Opcodes

```
  0: 0x0032 [0x32] ExtData[1]->MainSpeed = 40* * 0.1
  1: 0x0035 [0x1F] MOVE_ENTITY: EventEntity moves to X=-49.250*, Z=23.411*, Y=-9.999*
  2: 0x003D [0x1F] MOVE_ENTITY: Update entity position (mode=1)
  3: 0x003F [0x1C] WAIT(60* ticks)
  4: 0x0042 [0x32] ExtData[1]->MainSpeed = 40* * 0.1
  5: 0x0045 [0x1F] MOVE_ENTITY: EventEntity moves to X=-38.421*, Z=21.724*, Y=-9.999*
  6: 0x004D [0x1F] MOVE_ENTITY: Update entity position (mode=1)
  7: 0x004F [0x00] END_REQSTACK()
```

### Event 65535.5

#### Metadata

| Field        | Value    |
|--------------|----------|
| Entrypoint   | 0x0050   |
| Data Size    | 15 bytes |
| Instructions | 3        |

```
      00 01 02 03 04 05 06 07  08 09 0A 0B 0C 0D 0E 0F
      -- -- -- -- -- -- -- --  -- -- -- -- -- -- -- --
0050: 37 10 80 11 80 03 80 12  80 80 F8 FF FF 7F 00     7.............. 
```

#### Opcodes

```
  0: 0x0050 [0x37] UPDATE_EVENT_POSITION_AND_DIR: x=-29.788*, z=-0.172*, y=7.999*, direction=337.9°*
  1: 0x0059 [0x80] LOAD_WAIT(entity=EventEntity)
  2: 0x005E [0x00] END_REQSTACK()
```

### Event 65535.6

#### Metadata

| Field        | Value    |
|--------------|----------|
| Entrypoint   | 0x005F   |
| Data Size    | 19 bytes |
| Instructions | 5        |

```
      00 01 02 03 04 05 06 07  08 09 0A 0B 0C 0D 0E 0F
      -- -- -- -- -- -- -- --  -- -- -- -- -- -- -- --
0050:                                               32                 2
0060: 00 80 1F 00 13 80 14 80  03 80 1F 01 1E AF D0 0E  ................
0070: 01 00                                             ..              
```

#### Opcodes

```
  0: 0x005F [0x32] ExtData[1]->MainSpeed = 13* * 0.1
  1: 0x0062 [0x1F] MOVE_ENTITY: EventEntity moves to X=-27.192*, Z=-0.122*, Y=7.999*
  2: 0x006A [0x1F] MOVE_ENTITY: Update entity position (mode=1)
  3: 0x006C [0x1E] EventEntity looks at Luto Mewrilah (ID: 17748143/0x010ED0AF) and starts talking
  4: 0x0071 [0x00] END_REQSTACK()
```

### Event 908

#### Metadata

| Field        | Value   |
|--------------|---------|
| Entrypoint   | 0x0072  |
| Data Size    | 1 bytes |
| Instructions | 1       |

```
      00 01 02 03 04 05 06 07  08 09 0A 0B 0C 0D 0E 0F
      -- -- -- -- -- -- -- --  -- -- -- -- -- -- -- --
0070:       00                                            .             
```

#### Opcodes

```
  0: 0x0072 [0x00] END_REQSTACK()
```

### Event 909

#### Metadata

| Field        | Value   |
|--------------|---------|
| Entrypoint   | 0x0073  |
| Data Size    | 1 bytes |
| Instructions | 1       |

```
      00 01 02 03 04 05 06 07  08 09 0A 0B 0C 0D 0E 0F
      -- -- -- -- -- -- -- --  -- -- -- -- -- -- -- --
0070:          00                                          .            
```

#### Opcodes

```
  0: 0x0073 [0x00] END_REQSTACK()
```

### Event 910

#### Metadata

| Field        | Value   |
|--------------|---------|
| Entrypoint   | 0x0074  |
| Data Size    | 1 bytes |
| Instructions | 1       |

```
      00 01 02 03 04 05 06 07  08 09 0A 0B 0C 0D 0E 0F
      -- -- -- -- -- -- -- --  -- -- -- -- -- -- -- --
0070:             00                                        .           
```

#### Opcodes

```
  0: 0x0074 [0x00] END_REQSTACK()
```

### Event 916

#### Metadata

| Field        | Value   |
|--------------|---------|
| Entrypoint   | 0x0075  |
| Data Size    | 1 bytes |
| Instructions | 1       |

```
      00 01 02 03 04 05 06 07  08 09 0A 0B 0C 0D 0E 0F
      -- -- -- -- -- -- -- --  -- -- -- -- -- -- -- --
0070:                00                                      .          
```

#### Opcodes

```
  0: 0x0075 [0x00] END_REQSTACK()
```

### Event 917

#### Metadata

| Field        | Value   |
|--------------|---------|
| Entrypoint   | 0x0076  |
| Data Size    | 1 bytes |
| Instructions | 1       |

```
      00 01 02 03 04 05 06 07  08 09 0A 0B 0C 0D 0E 0F
      -- -- -- -- -- -- -- --  -- -- -- -- -- -- -- --
0070:                   00                                    .         
```

#### Opcodes

```
  0: 0x0076 [0x00] END_REQSTACK()
```

### Event 918

#### Metadata

| Field        | Value   |
|--------------|---------|
| Entrypoint   | 0x0077  |
| Data Size    | 1 bytes |
| Instructions | 1       |

```
      00 01 02 03 04 05 06 07  08 09 0A 0B 0C 0D 0E 0F
      -- -- -- -- -- -- -- --  -- -- -- -- -- -- -- --
0070:                      00                                  .        
```

#### Opcodes

```
  0: 0x0077 [0x00] END_REQSTACK()
```

### Event 919

#### Metadata

| Field        | Value   |
|--------------|---------|
| Entrypoint   | 0x0078  |
| Data Size    | 1 bytes |
| Instructions | 1       |

```
      00 01 02 03 04 05 06 07  08 09 0A 0B 0C 0D 0E 0F
      -- -- -- -- -- -- -- --  -- -- -- -- -- -- -- --
0070:                          00                               .       
```

#### Opcodes

```
  0: 0x0078 [0x00] END_REQSTACK()
```

### Event 65535.7

#### Metadata

| Field        | Value    |
|--------------|----------|
| Entrypoint   | 0x0079   |
| Data Size    | 15 bytes |
| Instructions | 3        |

```
      00 01 02 03 04 05 06 07  08 09 0A 0B 0C 0D 0E 0F
      -- -- -- -- -- -- -- --  -- -- -- -- -- -- -- --
0070:                             37 15 80 16 80 17 80           7......
0080: 18 80 80 F8 FF FF 7F 00                           ........        
```

#### Opcodes

```
  0: 0x0079 [0x37] UPDATE_EVENT_POSITION_AND_DIR: x=-56.532*, z=23.418*, y=2.000*, direction=337.6°*
  1: 0x0082 [0x80] LOAD_WAIT(entity=EventEntity)
  2: 0x0087 [0x00] END_REQSTACK()
```

### Event 65535.8

#### Metadata

| Field        | Value    |
|--------------|----------|
| Entrypoint   | 0x0088   |
| Data Size    | 14 bytes |
| Instructions | 4        |

```
      00 01 02 03 04 05 06 07  08 09 0A 0B 0C 0D 0E 0F
      -- -- -- -- -- -- -- --  -- -- -- -- -- -- -- --
0080:                          32 00 80 1F 00 19 80 1A          2.......
0090: 80 17 80 1F 01 00                                 ......          
```

#### Opcodes

```
  0: 0x0088 [0x32] ExtData[1]->MainSpeed = 13* * 0.1
  1: 0x008B [0x1F] MOVE_ENTITY: EventEntity moves to X=-56.772*, Z=23.013*, Y=2.000*
  2: 0x0093 [0x1F] MOVE_ENTITY: Update entity position (mode=1)
  3: 0x0095 [0x00] END_REQSTACK()
```

### Event 65535.9

#### Metadata

| Field        | Value    |
|--------------|----------|
| Entrypoint   | 0x0096   |
| Data Size    | 15 bytes |
| Instructions | 3        |

```
      00 01 02 03 04 05 06 07  08 09 0A 0B 0C 0D 0E 0F
      -- -- -- -- -- -- -- --  -- -- -- -- -- -- -- --
0090:                   37 1B  80 1C 80 17 80 1D 80 80        7.........
00A0: F8 FF FF 7F 00                                    .....           
```

#### Opcodes

```
  0: 0x0096 [0x37] UPDATE_EVENT_POSITION_AND_DIR: x=-54.974*, z=24.882*, y=2.000*, direction=1.3°*
  1: 0x009F [0x80] LOAD_WAIT(entity=EventEntity)
  2: 0x00A4 [0x00] END_REQSTACK()
```

### Event 65535.10

#### Metadata

| Field        | Value    |
|--------------|----------|
| Entrypoint   | 0x00A5   |
| Data Size    | 37 bytes |
| Instructions | 9        |

```
      00 01 02 03 04 05 06 07  08 09 0A 0B 0C 0D 0E 0F
      -- -- -- -- -- -- -- --  -- -- -- -- -- -- -- --
00A0:                32 0A 80  1F 00 1E 80 1F 80 20 80       2........ .
00B0: 1F 01 29 05 4C D0 0E 01  03 1C 21 80 32 0A 80 1F  ..).L.....!.2...
00C0: 00 22 80 23 80 17 80 1F  01 00                    .".#......      
```

#### Opcodes

```
  0: 0x00A5 [0x32] ExtData[1]->MainSpeed = 40* * 0.1
  1: 0x00A8 [0x1F] MOVE_ENTITY: EventEntity moves to X=-59.357*, Z=23.166*, Y=1.999*
  2: 0x00B0 [0x1F] MOVE_ENTITY: Update entity position (mode=1)
  3: 0x00B2 [0x29] REQ_SET_WAIT(priority=0x05, entity_id=Door:Cermet Refinery (ID: 17748044/0x010ED04C), tag_num=0x03)
  4: 0x00B9 [0x1C] WAIT(120* ticks)
  5: 0x00BC [0x32] ExtData[1]->MainSpeed = 40* * 0.1
  6: 0x00BF [0x1F] MOVE_ENTITY: EventEntity moves to X=-63.317*, Z=20.372*, Y=2.000*
  7: 0x00C7 [0x1F] MOVE_ENTITY: Update entity position (mode=1)
  8: 0x00C9 [0x00] END_REQSTACK()
```

### Event 65535.11

#### Metadata

| Field        | Value    |
|--------------|----------|
| Entrypoint   | 0x00CA   |
| Data Size    | 19 bytes |
| Instructions | 5        |

```
      00 01 02 03 04 05 06 07  08 09 0A 0B 0C 0D 0E 0F
      -- -- -- -- -- -- -- --  -- -- -- -- -- -- -- --
00C0:                                32 00 80 1F 00 24            2....$
00D0: 80 25 80 20 80 1F 01 1E  F0 FF FF 7F 00           .%. .........   
```

#### Opcodes

```
  0: 0x00CA [0x32] ExtData[1]->MainSpeed = 13* * 0.1
  1: 0x00CD [0x1F] MOVE_ENTITY: EventEntity moves to X=-59.958*, Z=23.933*, Y=1.999*
  2: 0x00D5 [0x1F] MOVE_ENTITY: Update entity position (mode=1)
  3: 0x00D7 [0x1E] EventEntity looks at LocalPlayer and starts talking
  4: 0x00DC [0x00] END_REQSTACK()
```

### Event 65535.12

#### Metadata

| Field        | Value    |
|--------------|----------|
| Entrypoint   | 0x00DD   |
| Data Size    | 19 bytes |
| Instructions | 5        |

```
      00 01 02 03 04 05 06 07  08 09 0A 0B 0C 0D 0E 0F
      -- -- -- -- -- -- -- --  -- -- -- -- -- -- -- --
00D0:                                         32 00 80               2..
00E0: 1F 00 26 80 27 80 20 80  1F 01 1E F0 FF FF 7F 00  ..&.'. .........
```

#### Opcodes

```
  0: 0x00DD [0x32] ExtData[1]->MainSpeed = 13* * 0.1
  1: 0x00E0 [0x1F] MOVE_ENTITY: EventEntity moves to X=-57.145*, Z=25.155*, Y=1.999*
  2: 0x00E8 [0x1F] MOVE_ENTITY: Update entity position (mode=1)
  3: 0x00EA [0x1E] EventEntity looks at LocalPlayer and starts talking
  4: 0x00EF [0x00] END_REQSTACK()
```

### Event 65535.13

#### Metadata

| Field        | Value    |
|--------------|----------|
| Entrypoint   | 0x00F0   |
| Data Size    | 15 bytes |
| Instructions | 3        |

```
      00 01 02 03 04 05 06 07  08 09 0A 0B 0C 0D 0E 0F
      -- -- -- -- -- -- -- --  -- -- -- -- -- -- -- --
00F0: 37 28 80 29 80 2A 80 2B  80 80 F8 FF FF 7F 00     7(.).*.+....... 
```

#### Opcodes

```
  0: 0x00F0 [0x37] UPDATE_EVENT_POSITION_AND_DIR: x=-25.048*, z=6.798*, y=0.000*, direction=63.2°*
  1: 0x00F9 [0x80] LOAD_WAIT(entity=EventEntity)
  2: 0x00FE [0x00] END_REQSTACK()
```

### Event 65535.14

#### Metadata

| Field        | Value    |
|--------------|----------|
| Entrypoint   | 0x00FF   |
| Data Size    | 14 bytes |
| Instructions | 4        |

```
      00 01 02 03 04 05 06 07  08 09 0A 0B 0C 0D 0E 0F
      -- -- -- -- -- -- -- --  -- -- -- -- -- -- -- --
00F0:                                               32                 2
0100: 00 80 1F 00 2C 80 2D 80  2A 80 1F 01 00           ....,.-.*....   
```

#### Opcodes

```
  0: 0x00FF [0x32] ExtData[1]->MainSpeed = 13* * 0.1
  1: 0x0102 [0x1F] MOVE_ENTITY: EventEntity moves to X=-30.149*, Z=0.498*, Y=0.000*
  2: 0x010A [0x1F] MOVE_ENTITY: Update entity position (mode=1)
  3: 0x010C [0x00] END_REQSTACK()
```

### Event 65535.15

#### Metadata

| Field        | Value    |
|--------------|----------|
| Entrypoint   | 0x010D   |
| Data Size    | 15 bytes |
| Instructions | 3        |

```
      00 01 02 03 04 05 06 07  08 09 0A 0B 0C 0D 0E 0F
      -- -- -- -- -- -- -- --  -- -- -- -- -- -- -- --
0100:                                         37 2E 80               7..
0110: 2F 80 2A 80 30 80 80 F8  FF FF 7F 00              /.*.0.......    
```

#### Opcodes

```
  0: 0x010D [0x37] UPDATE_EVENT_POSITION_AND_DIR: x=-22.873*, z=-4.174*, y=0.000*, direction=197.7°*
  1: 0x0116 [0x80] LOAD_WAIT(entity=EventEntity)
  2: 0x011B [0x00] END_REQSTACK()
```

### Event 65535.16

#### Metadata

| Field        | Value    |
|--------------|----------|
| Entrypoint   | 0x011C   |
| Data Size    | 19 bytes |
| Instructions | 5        |

```
      00 01 02 03 04 05 06 07  08 09 0A 0B 0C 0D 0E 0F
      -- -- -- -- -- -- -- --  -- -- -- -- -- -- -- --
0110:                                      32 00 80 1F              2...
0120: 00 31 80 32 80 2A 80 1F  01 1E F0 FF FF 7F 00     .1.2.*......... 
```

#### Opcodes

```
  0: 0x011C [0x32] ExtData[1]->MainSpeed = 13* * 0.1
  1: 0x011F [0x1F] MOVE_ENTITY: EventEntity moves to X=-27.391*, Z=0.050*, Y=0.000*
  2: 0x0127 [0x1F] MOVE_ENTITY: Update entity position (mode=1)
  3: 0x0129 [0x1E] EventEntity looks at LocalPlayer and starts talking
  4: 0x012E [0x00] END_REQSTACK()
```

### Event 65535.17

#### Metadata

| Field        | Value    |
|--------------|----------|
| Entrypoint   | 0x012F   |
| Data Size    | 23 bytes |
| Instructions | 5        |

```
      00 01 02 03 04 05 06 07  08 09 0A 0B 0C 0D 0E 0F
      -- -- -- -- -- -- -- --  -- -- -- -- -- -- -- --
0120:                                               32                 2
0130: 00 80 1F 00 33 80 34 80  2A 80 1F 01 4A B0 D0 0E  ....3.4.*...J...
0140: 01 AF D0 0E 01 00                                 ......          
```

#### Opcodes

```
  0: 0x012F [0x32] ExtData[1]->MainSpeed = 13* * 0.1
  1: 0x0132 [0x1F] MOVE_ENTITY: EventEntity moves to X=-26.741*, Z=1.905*, Y=0.000*
  2: 0x013A [0x1F] MOVE_ENTITY: Update entity position (mode=1)
  3: 0x013C [0x4A] Miledo-Shiraddo (ID: 17748144/0x010ED0B0) looks at Luto Mewrilah (ID: 17748143/0x010ED0AF)
  4: 0x0145 [0x00] END_REQSTACK()
```

### Event 65535.18

#### Metadata

| Field        | Value    |
|--------------|----------|
| Entrypoint   | 0x0146   |
| Data Size    | 33 bytes |
| Instructions | 7        |

```
      00 01 02 03 04 05 06 07  08 09 0A 0B 0C 0D 0E 0F
      -- -- -- -- -- -- -- --  -- -- -- -- -- -- -- --
0140:                   37 35  80 36 80 20 80 37 80 80        75.6. .7..
0150: F8 FF FF 7F 32 00 80 1F  00 38 80 39 80 20 80 1F  ....2....8.9. ..
0160: 01 1E F0 FF FF 7F 00                              .......         
```

#### Opcodes

```
  0: 0x0146 [0x37] UPDATE_EVENT_POSITION_AND_DIR: x=-93.158*, z=13.225*, y=1.999*, direction=80.4°*
  1: 0x014F [0x80] LOAD_WAIT(entity=EventEntity)
  2: 0x0154 [0x32] ExtData[1]->MainSpeed = 13* * 0.1
  3: 0x0157 [0x1F] MOVE_ENTITY: EventEntity moves to X=-92.444*, Z=11.074*, Y=1.999*
  4: 0x015F [0x1F] MOVE_ENTITY: Update entity position (mode=1)
  5: 0x0161 [0x1E] EventEntity looks at LocalPlayer and starts talking
  6: 0x0166 [0x00] END_REQSTACK()
```

### Event 65535.19

#### Metadata

| Field        | Value    |
|--------------|----------|
| Entrypoint   | 0x0167   |
| Data Size    | 14 bytes |
| Instructions | 4        |

```
      00 01 02 03 04 05 06 07  08 09 0A 0B 0C 0D 0E 0F
      -- -- -- -- -- -- -- --  -- -- -- -- -- -- -- --
0160:                      32  00 80 1F 00 35 80 36 80         2....5.6.
0170: 20 80 1F 01 00                                     ....           
```

#### Opcodes

```
  0: 0x0167 [0x32] ExtData[1]->MainSpeed = 13* * 0.1
  1: 0x016A [0x1F] MOVE_ENTITY: EventEntity moves to X=-93.158*, Z=13.225*, Y=1.999*
  2: 0x0172 [0x1F] MOVE_ENTITY: Update entity position (mode=1)
  3: 0x0174 [0x00] END_REQSTACK()
```

### Event 65535.20

#### Metadata

| Field        | Value    |
|--------------|----------|
| Entrypoint   | 0x0175   |
| Data Size    | 15 bytes |
| Instructions | 3        |

```
      00 01 02 03 04 05 06 07  08 09 0A 0B 0C 0D 0E 0F
      -- -- -- -- -- -- -- --  -- -- -- -- -- -- -- --
0170:                37 3A 80  3B 80 20 80 3C 80 80 F8       7:.;. .<...
0180: FF FF 7F 00                                       ....            
```

#### Opcodes

```
  0: 0x0175 [0x37] UPDATE_EVENT_POSITION_AND_DIR: x=-92.975*, z=14.521*, y=1.999*, direction=45.5°*
  1: 0x017E [0x80] LOAD_WAIT(entity=EventEntity)
  2: 0x0183 [0x00] END_REQSTACK()
```

### Event 65535.21

#### Metadata

| Field        | Value    |
|--------------|----------|
| Entrypoint   | 0x0184   |
| Data Size    | 19 bytes |
| Instructions | 5        |

```
      00 01 02 03 04 05 06 07  08 09 0A 0B 0C 0D 0E 0F
      -- -- -- -- -- -- -- --  -- -- -- -- -- -- -- --
0180:             32 00 80 1F  00 3D 80 3E 80 20 80 1F      2....=.>. ..
0190: 01 1E F0 FF FF 7F 00                              .......         
```

#### Opcodes

```
  0: 0x0184 [0x32] ExtData[1]->MainSpeed = 13* * 0.1
  1: 0x0187 [0x1F] MOVE_ENTITY: EventEntity moves to X=-91.375*, Z=11.346*, Y=1.999*
  2: 0x018F [0x1F] MOVE_ENTITY: Update entity position (mode=1)
  3: 0x0191 [0x1E] EventEntity looks at LocalPlayer and starts talking
  4: 0x0196 [0x00] END_REQSTACK()
```

### Event 65535.22

#### Metadata

| Field        | Value    |
|--------------|----------|
| Entrypoint   | 0x0197   |
| Data Size    | 15 bytes |
| Instructions | 3        |

```
      00 01 02 03 04 05 06 07  08 09 0A 0B 0C 0D 0E 0F
      -- -- -- -- -- -- -- --  -- -- -- -- -- -- -- --
0190:                      37  3F 80 40 80 08 80 41 80         7?.@...A.
01A0: 80 F8 FF FF 7F 00                                 ......          
```

#### Opcodes

```
  0: 0x0197 [0x37] UPDATE_EVENT_POSITION_AND_DIR: x=-28.939*, z=-23.107*, y=-9.999*, direction=88.6°*
  1: 0x01A0 [0x80] LOAD_WAIT(entity=EventEntity)
  2: 0x01A5 [0x00] END_REQSTACK()
```

### Event 65535.23

#### Metadata

| Field        | Value    |
|--------------|----------|
| Entrypoint   | 0x01A6   |
| Data Size    | 19 bytes |
| Instructions | 5        |

```
      00 01 02 03 04 05 06 07  08 09 0A 0B 0C 0D 0E 0F
      -- -- -- -- -- -- -- --  -- -- -- -- -- -- -- --
01A0:                   32 00  80 1F 00 42 80 43 80 08        2....B.C..
01B0: 80 1F 01 1E F0 FF FF 7F  00                       .........       
```

#### Opcodes

```
  0: 0x01A6 [0x32] ExtData[1]->MainSpeed = 13* * 0.1
  1: 0x01A9 [0x1F] MOVE_ENTITY: EventEntity moves to X=-26.578*, Z=-26.097*, Y=-9.999*
  2: 0x01B1 [0x1F] MOVE_ENTITY: Update entity position (mode=1)
  3: 0x01B3 [0x1E] EventEntity looks at LocalPlayer and starts talking
  4: 0x01B8 [0x00] END_REQSTACK()
```

### Event 65535.24

#### Metadata

| Field        | Value    |
|--------------|----------|
| Entrypoint   | 0x01B9   |
| Data Size    | 14 bytes |
| Instructions | 4        |

```
      00 01 02 03 04 05 06 07  08 09 0A 0B 0C 0D 0E 0F
      -- -- -- -- -- -- -- --  -- -- -- -- -- -- -- --
01B0:                             32 00 80 1F 00 3F 80           2....?.
01C0: 40 80 08 80 1F 01 00                              @......         
```

#### Opcodes

```
  0: 0x01B9 [0x32] ExtData[1]->MainSpeed = 13* * 0.1
  1: 0x01BC [0x1F] MOVE_ENTITY: EventEntity moves to X=-28.939*, Z=-23.107*, Y=-9.999*
  2: 0x01C4 [0x1F] MOVE_ENTITY: Update entity position (mode=1)
  3: 0x01C6 [0x00] END_REQSTACK()
```

### Event 65535.25

#### Metadata

| Field        | Value    |
|--------------|----------|
| Entrypoint   | 0x01C7   |
| Data Size    | 15 bytes |
| Instructions | 3        |

```
      00 01 02 03 04 05 06 07  08 09 0A 0B 0C 0D 0E 0F
      -- -- -- -- -- -- -- --  -- -- -- -- -- -- -- --
01C0:                      37  44 80 45 80 08 80 46 80         7D.E...F.
01D0: 80 F8 FF FF 7F 00                                 ......          
```

#### Opcodes

```
  0: 0x01C7 [0x37] UPDATE_EVENT_POSITION_AND_DIR: x=-27.532*, z=-22.250*, y=-9.999*, direction=80.2°*
  1: 0x01D0 [0x80] LOAD_WAIT(entity=EventEntity)
  2: 0x01D5 [0x00] END_REQSTACK()
```

### Event 65535.26

#### Metadata

| Field        | Value    |
|--------------|----------|
| Entrypoint   | 0x01D6   |
| Data Size    | 19 bytes |
| Instructions | 5        |

```
      00 01 02 03 04 05 06 07  08 09 0A 0B 0C 0D 0E 0F
      -- -- -- -- -- -- -- --  -- -- -- -- -- -- -- --
01D0:                   32 00  80 1F 00 47 80 48 80 08        2....G.H..
01E0: 80 1F 01 1E F0 FF FF 7F  00                       .........       
```

#### Opcodes

```
  0: 0x01D6 [0x32] ExtData[1]->MainSpeed = 13* * 0.1
  1: 0x01D9 [0x1F] MOVE_ENTITY: EventEntity moves to X=-27.125*, Z=-24.584*, Y=-9.999*
  2: 0x01E1 [0x1F] MOVE_ENTITY: Update entity position (mode=1)
  3: 0x01E3 [0x1E] EventEntity looks at LocalPlayer and starts talking
  4: 0x01E8 [0x00] END_REQSTACK()
```

### Event 65535.27

#### Metadata

| Field        | Value    |
|--------------|----------|
| Entrypoint   | 0x01E9   |
| Data Size    | 14 bytes |
| Instructions | 4        |

```
      00 01 02 03 04 05 06 07  08 09 0A 0B 0C 0D 0E 0F
      -- -- -- -- -- -- -- --  -- -- -- -- -- -- -- --
01E0:                             32 0A 80 1F 00 49 80           2....I.
01F0: 4A 80 2A 80 1F 01 00                              J.*....         
```

#### Opcodes

```
  0: 0x01E9 [0x32] ExtData[1]->MainSpeed = 40* * 0.1
  1: 0x01EC [0x1F] MOVE_ENTITY: EventEntity moves to X=-15.557*, Z=2.027*, Y=0.000*
  2: 0x01F4 [0x1F] MOVE_ENTITY: Update entity position (mode=1)
  3: 0x01F6 [0x00] END_REQSTACK()
```

### Event 65535.28

#### Metadata

| Field        | Value    |
|--------------|----------|
| Entrypoint   | 0x01F7   |
| Data Size    | 15 bytes |
| Instructions | 3        |

```
      00 01 02 03 04 05 06 07  08 09 0A 0B 0C 0D 0E 0F
      -- -- -- -- -- -- -- --  -- -- -- -- -- -- -- --
01F0:                      37  4B 80 4C 80 17 80 4D 80         7K.L...M.
0200: 80 F8 FF FF 7F 00                                 ......          
```

#### Opcodes

```
  0: 0x01F7 [0x37] UPDATE_EVENT_POSITION_AND_DIR: x=-77.946*, z=14.346*, y=2.000*, direction=255.8°*
  1: 0x0200 [0x80] LOAD_WAIT(entity=EventEntity)
  2: 0x0205 [0x00] END_REQSTACK()
```

### Event 65535.29

#### Metadata

| Field        | Value    |
|--------------|----------|
| Entrypoint   | 0x0206   |
| Data Size    | 19 bytes |
| Instructions | 5        |

```
      00 01 02 03 04 05 06 07  08 09 0A 0B 0C 0D 0E 0F
      -- -- -- -- -- -- -- --  -- -- -- -- -- -- -- --
0200:                   32 00  80 1F 00 4E 80 4F 80 17        2....N.O..
0210: 80 1F 01 1E F0 FF FF 7F  00                       .........       
```

#### Opcodes

```
  0: 0x0206 [0x32] ExtData[1]->MainSpeed = 13* * 0.1
  1: 0x0209 [0x1F] MOVE_ENTITY: EventEntity moves to X=-79.481*, Z=18.078*, Y=2.000*
  2: 0x0211 [0x1F] MOVE_ENTITY: Update entity position (mode=1)
  3: 0x0213 [0x1E] EventEntity looks at LocalPlayer and starts talking
  4: 0x0218 [0x00] END_REQSTACK()
```

### Event 65535.30

#### Metadata

| Field        | Value    |
|--------------|----------|
| Entrypoint   | 0x0219   |
| Data Size    | 14 bytes |
| Instructions | 4        |

```
      00 01 02 03 04 05 06 07  08 09 0A 0B 0C 0D 0E 0F
      -- -- -- -- -- -- -- --  -- -- -- -- -- -- -- --
0210:                             32 00 80 1F 00 4B 80           2....K.
0220: 4C 80 17 80 1F 01 00                              L......         
```

#### Opcodes

```
  0: 0x0219 [0x32] ExtData[1]->MainSpeed = 13* * 0.1
  1: 0x021C [0x1F] MOVE_ENTITY: EventEntity moves to X=-77.946*, Z=14.346*, Y=2.000*
  2: 0x0224 [0x1F] MOVE_ENTITY: Update entity position (mode=1)
  3: 0x0226 [0x00] END_REQSTACK()
```

### Event 65535.31

#### Metadata

| Field        | Value    |
|--------------|----------|
| Entrypoint   | 0x0227   |
| Data Size    | 15 bytes |
| Instructions | 3        |

```
      00 01 02 03 04 05 06 07  08 09 0A 0B 0C 0D 0E 0F
      -- -- -- -- -- -- -- --  -- -- -- -- -- -- -- --
0220:                      37  50 80 51 80 17 80 52 80         7P.Q...R.
0230: 80 F8 FF FF 7F 00                                 ......          
```

#### Opcodes

```
  0: 0x0227 [0x37] UPDATE_EVENT_POSITION_AND_DIR: x=-78.065*, z=12.625*, y=2.000*, direction=257.2°*
  1: 0x0230 [0x80] LOAD_WAIT(entity=EventEntity)
  2: 0x0235 [0x00] END_REQSTACK()
```

### Event 65535.32

#### Metadata

| Field        | Value    |
|--------------|----------|
| Entrypoint   | 0x0236   |
| Data Size    | 19 bytes |
| Instructions | 5        |

```
      00 01 02 03 04 05 06 07  08 09 0A 0B 0C 0D 0E 0F
      -- -- -- -- -- -- -- --  -- -- -- -- -- -- -- --
0230:                   32 00  80 1F 00 53 80 54 80 17        2....S.T..
0240: 80 1F 01 1E F0 FF FF 7F  00                       .........       
```

#### Opcodes

```
  0: 0x0236 [0x32] ExtData[1]->MainSpeed = 13* * 0.1
  1: 0x0239 [0x1F] MOVE_ENTITY: EventEntity moves to X=-80.994*, Z=17.794*, Y=2.000*
  2: 0x0241 [0x1F] MOVE_ENTITY: Update entity position (mode=1)
  3: 0x0243 [0x1E] EventEntity looks at LocalPlayer and starts talking
  4: 0x0248 [0x00] END_REQSTACK()
```

### Event 65535.33

#### Metadata

| Field        | Value    |
|--------------|----------|
| Entrypoint   | 0x0249   |
| Data Size    | 15 bytes |
| Instructions | 3        |

```
      00 01 02 03 04 05 06 07  08 09 0A 0B 0C 0D 0E 0F
      -- -- -- -- -- -- -- --  -- -- -- -- -- -- -- --
0240:                             37 55 80 56 80 57 80           7U.V.W.
0250: 58 80 80 F8 FF FF 7F 00                           X.......        
```

#### Opcodes

```
  0: 0x0249 [0x37] UPDATE_EVENT_POSITION_AND_DIR: x=-23.799*, z=20.995*, y=-9.998*, direction=349.6°*
  1: 0x0252 [0x80] LOAD_WAIT(entity=EventEntity)
  2: 0x0257 [0x00] END_REQSTACK()
```

### Event 65535.34

#### Metadata

| Field        | Value    |
|--------------|----------|
| Entrypoint   | 0x0258   |
| Data Size    | 19 bytes |
| Instructions | 5        |

```
      00 01 02 03 04 05 06 07  08 09 0A 0B 0C 0D 0E 0F
      -- -- -- -- -- -- -- --  -- -- -- -- -- -- -- --
0250:                          32 00 80 1F 00 59 80 5A          2....Y.Z
0260: 80 5B 80 1F 01 1E F0 FF  FF 7F 00                 .[.........     
```

#### Opcodes

```
  0: 0x0258 [0x32] ExtData[1]->MainSpeed = 13* * 0.1
  1: 0x025B [0x1F] MOVE_ENTITY: EventEntity moves to X=-18.216*, Z=21.417*, Y=-9.244*
  2: 0x0263 [0x1F] MOVE_ENTITY: Update entity position (mode=1)
  3: 0x0265 [0x1E] EventEntity looks at LocalPlayer and starts talking
  4: 0x026A [0x00] END_REQSTACK()
```

### Event 65535.35

#### Metadata

| Field        | Value    |
|--------------|----------|
| Entrypoint   | 0x026B   |
| Data Size    | 14 bytes |
| Instructions | 4        |

```
      00 01 02 03 04 05 06 07  08 09 0A 0B 0C 0D 0E 0F
      -- -- -- -- -- -- -- --  -- -- -- -- -- -- -- --
0260:                                   32 00 80 1F 00             2....
0270: 55 80 56 80 57 80 1F 01  00                       U.V.W....       
```

#### Opcodes

```
  0: 0x026B [0x32] ExtData[1]->MainSpeed = 13* * 0.1
  1: 0x026E [0x1F] MOVE_ENTITY: EventEntity moves to X=-23.799*, Z=20.995*, Y=-9.998*
  2: 0x0276 [0x1F] MOVE_ENTITY: Update entity position (mode=1)
  3: 0x0278 [0x00] END_REQSTACK()
```

### Event 65535.36

#### Metadata

| Field        | Value    |
|--------------|----------|
| Entrypoint   | 0x0279   |
| Data Size    | 15 bytes |
| Instructions | 3        |

```
      00 01 02 03 04 05 06 07  08 09 0A 0B 0C 0D 0E 0F
      -- -- -- -- -- -- -- --  -- -- -- -- -- -- -- --
0270:                             37 5C 80 5D 80 57 80           7\.].W.
0280: 5E 80 80 F8 FF FF 7F 00                           ^.......        
```

#### Opcodes

```
  0: 0x0279 [0x37] UPDATE_EVENT_POSITION_AND_DIR: x=-24.749*, z=22.100*, y=-9.998*, direction=345.4°*
  1: 0x0282 [0x80] LOAD_WAIT(entity=EventEntity)
  2: 0x0287 [0x00] END_REQSTACK()
```

### Event 65535.37

#### Metadata

| Field        | Value    |
|--------------|----------|
| Entrypoint   | 0x0288   |
| Data Size    | 19 bytes |
| Instructions | 5        |

```
      00 01 02 03 04 05 06 07  08 09 0A 0B 0C 0D 0E 0F
      -- -- -- -- -- -- -- --  -- -- -- -- -- -- -- --
0280:                          32 00 80 1F 00 5F 80 60          2...._.`
0290: 80 5B 80 1F 01 1E F0 FF  FF 7F 00                 .[.........     
```

#### Opcodes

```
  0: 0x0288 [0x32] ExtData[1]->MainSpeed = 13* * 0.1
  1: 0x028B [0x1F] MOVE_ENTITY: EventEntity moves to X=-18.275*, Z=23.611*, Y=-9.244*
  2: 0x0293 [0x1F] MOVE_ENTITY: Update entity position (mode=1)
  3: 0x0295 [0x1E] EventEntity looks at LocalPlayer and starts talking
  4: 0x029A [0x00] END_REQSTACK()
```

### Event 65535.38

#### Metadata

| Field        | Value    |
|--------------|----------|
| Entrypoint   | 0x029B   |
| Data Size    | 15 bytes |
| Instructions | 3        |

```
      00 01 02 03 04 05 06 07  08 09 0A 0B 0C 0D 0E 0F
      -- -- -- -- -- -- -- --  -- -- -- -- -- -- -- --
0290:                                   37 61 80 62 80             7a.b.
02A0: 63 80 64 80 80 F8 FF FF  7F 00                    c.d.......      
```

#### Opcodes

```
  0: 0x029B [0x37] UPDATE_EVENT_POSITION_AND_DIR: x=-93.437*, z=-2.400*, y=2.324*, direction=26.0°*
  1: 0x02A4 [0x80] LOAD_WAIT(entity=EventEntity)
  2: 0x02A9 [0x00] END_REQSTACK()
```

### Event 65535.39

#### Metadata

| Field        | Value    |
|--------------|----------|
| Entrypoint   | 0x02AA   |
| Data Size    | 21 bytes |
| Instructions | 5        |

```
      00 01 02 03 04 05 06 07  08 09 0A 0B 0C 0D 0E 0F
      -- -- -- -- -- -- -- --  -- -- -- -- -- -- -- --
02A0:                                32 0A 80 1F 00 65            2....e
02B0: 80 66 80 63 80 1F 01 4B  B0 D0 0E 01 67 80 00     .f.c...K....g.. 
```

#### Opcodes

```
  0: 0x02AA [0x32] ExtData[1]->MainSpeed = 40* * 0.1
  1: 0x02AD [0x1F] MOVE_ENTITY: EventEntity moves to X=-94.690*, Z=-3.709*, Y=2.324*
  2: 0x02B5 [0x1F] MOVE_ENTITY: Update entity position (mode=1)
  3: 0x02B7 [0x4B] UPDATE_ENTITY_YAW(entity=Miledo-Shiraddo (ID: 17748144/0x010ED0B0), yaw=12.6°*)
  4: 0x02BE [0x00] END_REQSTACK()
```

### Event 65535.40

#### Metadata

| Field        | Value    |
|--------------|----------|
| Entrypoint   | 0x02BF   |
| Data Size    | 31 bytes |
| Instructions | 7        |

```
      00 01 02 03 04 05 06 07  08 09 0A 0B 0C 0D 0E 0F
      -- -- -- -- -- -- -- --  -- -- -- -- -- -- -- --
02B0:                                               32                 2
02C0: 00 80 1F 00 68 80 69 80  63 80 1F 01 1F 00 6A 80  ....h.i.c.....j.
02D0: 6B 80 63 80 1F 01 4B B0  D0 0E 01 6C 80 00        k.c...K....l..  
```

#### Opcodes

```
  0: 0x02BF [0x32] ExtData[1]->MainSpeed = 13* * 0.1
  1: 0x02C2 [0x1F] MOVE_ENTITY: EventEntity moves to X=-93.572*, Z=-3.109*, Y=2.324*
  2: 0x02CA [0x1F] MOVE_ENTITY: Update entity position (mode=1)
  3: 0x02CC [0x1F] MOVE_ENTITY: EventEntity moves to X=-93.284*, Z=-0.002*, Y=2.324*
  4: 0x02D4 [0x1F] MOVE_ENTITY: Update entity position (mode=1)
  5: 0x02D6 [0x4B] UPDATE_ENTITY_YAW(entity=Miledo-Shiraddo (ID: 17748144/0x010ED0B0), yaw=12.1°*)
  6: 0x02DD [0x00] END_REQSTACK()
```

### Event 65535.41

#### Metadata

| Field        | Value    |
|--------------|----------|
| Entrypoint   | 0x02DE   |
| Data Size    | 31 bytes |
| Instructions | 7        |

```
      00 01 02 03 04 05 06 07  08 09 0A 0B 0C 0D 0E 0F
      -- -- -- -- -- -- -- --  -- -- -- -- -- -- -- --
02D0:                                            32 00                2.
02E0: 80 1F 00 6D 80 6E 80 63  80 1F 01 1F 00 6F 80 70  ...m.n.c.....o.p
02F0: 80 63 80 1F 01 4B B0 D0  0E 01 67 80 00           .c...K....g..   
```

#### Opcodes

```
  0: 0x02DE [0x32] ExtData[1]->MainSpeed = 13* * 0.1
  1: 0x02E1 [0x1F] MOVE_ENTITY: EventEntity moves to X=-94.011*, Z=-3.975*, Y=2.324*
  2: 0x02E9 [0x1F] MOVE_ENTITY: Update entity position (mode=1)
  3: 0x02EB [0x1F] MOVE_ENTITY: EventEntity moves to X=-94.438*, Z=-3.792*, Y=2.324*
  4: 0x02F3 [0x1F] MOVE_ENTITY: Update entity position (mode=1)
  5: 0x02F5 [0x4B] UPDATE_ENTITY_YAW(entity=Miledo-Shiraddo (ID: 17748144/0x010ED0B0), yaw=12.6°*)
  6: 0x02FC [0x00] END_REQSTACK()
```

### Event 65535.42

#### Metadata

| Field        | Value    |
|--------------|----------|
| Entrypoint   | 0x02FD   |
| Data Size    | 15 bytes |
| Instructions | 3        |

```
      00 01 02 03 04 05 06 07  08 09 0A 0B 0C 0D 0E 0F
      -- -- -- -- -- -- -- --  -- -- -- -- -- -- -- --
02F0:                                         37 71 80               7q.
0300: 72 80 17 80 73 80 80 F8  FF FF 7F 00              r...s.......    
```

#### Opcodes

```
  0: 0x02FD [0x37] UPDATE_EVENT_POSITION_AND_DIR: x=-89.661*, z=-8.200*, y=2.000*, direction=69.2°*
  1: 0x0306 [0x80] LOAD_WAIT(entity=EventEntity)
  2: 0x030B [0x00] END_REQSTACK()
```

### Event 65535.43

#### Metadata

| Field        | Value    |
|--------------|----------|
| Entrypoint   | 0x030C   |
| Data Size    | 14 bytes |
| Instructions | 4        |

```
      00 01 02 03 04 05 06 07  08 09 0A 0B 0C 0D 0E 0F
      -- -- -- -- -- -- -- --  -- -- -- -- -- -- -- --
0300:                                      32 0A 80 1F              2...
0310: 00 74 80 75 80 17 80 1F  01 00                    .t.u......      
```

#### Opcodes

```
  0: 0x030C [0x32] ExtData[1]->MainSpeed = 40* * 0.1
  1: 0x030F [0x1F] MOVE_ENTITY: EventEntity moves to X=-85.295*, Z=0.003*, Y=2.000*
  2: 0x0317 [0x1F] MOVE_ENTITY: Update entity position (mode=1)
  3: 0x0319 [0x00] END_REQSTACK()
```

### Event 65535.44

#### Metadata

| Field        | Value    |
|--------------|----------|
| Entrypoint   | 0x031A   |
| Data Size    | 23 bytes |
| Instructions | 5        |

```
      00 01 02 03 04 05 06 07  08 09 0A 0B 0C 0D 0E 0F
      -- -- -- -- -- -- -- --  -- -- -- -- -- -- -- --
0310:                                32 00 80 1F 00 76            2....v
0320: 80 77 80 17 80 1F 01 4A  B0 D0 0E 01 AF D0 0E 01  .w.....J........
0330: 00                                                .               
```

#### Opcodes

```
  0: 0x031A [0x32] ExtData[1]->MainSpeed = 13* * 0.1
  1: 0x031D [0x1F] MOVE_ENTITY: EventEntity moves to X=-88.507*, Z=-5.153*, Y=2.000*
  2: 0x0325 [0x1F] MOVE_ENTITY: Update entity position (mode=1)
  3: 0x0327 [0x4A] Miledo-Shiraddo (ID: 17748144/0x010ED0B0) looks at Luto Mewrilah (ID: 17748143/0x010ED0AF)
  4: 0x0330 [0x00] END_REQSTACK()
```

### Event 65535.45

#### Metadata

| Field        | Value    |
|--------------|----------|
| Entrypoint   | 0x0331   |
| Data Size    | 15 bytes |
| Instructions | 3        |

```
      00 01 02 03 04 05 06 07  08 09 0A 0B 0C 0D 0E 0F
      -- -- -- -- -- -- -- --  -- -- -- -- -- -- -- --
0330:    37 76 80 77 80 17 80  78 80 80 F8 FF FF 7F 00   7v.w...x.......
```

#### Opcodes

```
  0: 0x0331 [0x37] UPDATE_EVENT_POSITION_AND_DIR: x=-88.507*, z=-5.153*, y=2.000*, direction=215.9°*
  1: 0x033A [0x80] LOAD_WAIT(entity=EventEntity)
  2: 0x033F [0x00] END_REQSTACK()
```

### Event 901

#### Metadata

| Field        | Value   |
|--------------|---------|
| Entrypoint   | 0x0340  |
| Data Size    | 1 bytes |
| Instructions | 1       |

```
      00 01 02 03 04 05 06 07  08 09 0A 0B 0C 0D 0E 0F
      -- -- -- -- -- -- -- --  -- -- -- -- -- -- -- --
0340: 00                                                .               
```

#### Opcodes

```
  0: 0x0340 [0x00] END_REQSTACK()
```

### Event 65535.46

#### Metadata

| Field        | Value    |
|--------------|----------|
| Entrypoint   | 0x0341   |
| Data Size    | 15 bytes |
| Instructions | 3        |

```
      00 01 02 03 04 05 06 07  08 09 0A 0B 0C 0D 0E 0F
      -- -- -- -- -- -- -- --  -- -- -- -- -- -- -- --
0340:    37 79 80 7A 80 08 80  7B 80 80 F8 FF FF 7F 00   7y.z...{.......
```

#### Opcodes

```
  0: 0x0341 [0x37] UPDATE_EVENT_POSITION_AND_DIR: x=-61.291*, z=23.587*, y=-9.999*, direction=39.7°*
  1: 0x034A [0x80] LOAD_WAIT(entity=EventEntity)
  2: 0x034F [0x00] END_REQSTACK()
```

### Event 902

#### Metadata

| Field        | Value   |
|--------------|---------|
| Entrypoint   | 0x0350  |
| Data Size    | 1 bytes |
| Instructions | 1       |

```
      00 01 02 03 04 05 06 07  08 09 0A 0B 0C 0D 0E 0F
      -- -- -- -- -- -- -- --  -- -- -- -- -- -- -- --
0350: 00                                                .               
```

#### Opcodes

```
  0: 0x0350 [0x00] END_REQSTACK()
```

### Event 65535.47

#### Metadata

| Field        | Value    |
|--------------|----------|
| Entrypoint   | 0x0351   |
| Data Size    | 15 bytes |
| Instructions | 3        |

```
      00 01 02 03 04 05 06 07  08 09 0A 0B 0C 0D 0E 0F
      -- -- -- -- -- -- -- --  -- -- -- -- -- -- -- --
0350:    37 7C 80 7D 80 20 80  7E 80 80 F8 FF FF 7F 00   7|.}. .~.......
```

#### Opcodes

```
  0: 0x0351 [0x37] UPDATE_EVENT_POSITION_AND_DIR: x=-93.845*, z=10.822*, y=1.999*, direction=70.9°*
  1: 0x035A [0x80] LOAD_WAIT(entity=EventEntity)
  2: 0x035F [0x00] END_REQSTACK()
```

### Event 903

#### Metadata

| Field        | Value   |
|--------------|---------|
| Entrypoint   | 0x0360  |
| Data Size    | 1 bytes |
| Instructions | 1       |

```
      00 01 02 03 04 05 06 07  08 09 0A 0B 0C 0D 0E 0F
      -- -- -- -- -- -- -- --  -- -- -- -- -- -- -- --
0360: 00                                                .               
```

#### Opcodes

```
  0: 0x0360 [0x00] END_REQSTACK()
```

### Event 65535.48

#### Metadata

| Field        | Value    |
|--------------|----------|
| Entrypoint   | 0x0361   |
| Data Size    | 15 bytes |
| Instructions | 3        |

```
      00 01 02 03 04 05 06 07  08 09 0A 0B 0C 0D 0E 0F
      -- -- -- -- -- -- -- --  -- -- -- -- -- -- -- --
0360:    37 7F 80 80 80 5B 80  81 80 80 F8 FF FF 7F 00   7....[.........
```

#### Opcodes

```
  0: 0x0361 [0x37] UPDATE_EVENT_POSITION_AND_DIR: x=-18.357*, z=21.044*, y=-9.244*, direction=7.7°*
  1: 0x036A [0x80] LOAD_WAIT(entity=EventEntity)
  2: 0x036F [0x00] END_REQSTACK()
```

### Event 904

#### Metadata

| Field        | Value   |
|--------------|---------|
| Entrypoint   | 0x0370  |
| Data Size    | 1 bytes |
| Instructions | 1       |

```
      00 01 02 03 04 05 06 07  08 09 0A 0B 0C 0D 0E 0F
      -- -- -- -- -- -- -- --  -- -- -- -- -- -- -- --
0370: 00                                                .               
```

#### Opcodes

```
  0: 0x0370 [0x00] END_REQSTACK()
```

### Event 65535.49

#### Metadata

| Field        | Value    |
|--------------|----------|
| Entrypoint   | 0x0371   |
| Data Size    | 15 bytes |
| Instructions | 3        |

```
      00 01 02 03 04 05 06 07  08 09 0A 0B 0C 0D 0E 0F
      -- -- -- -- -- -- -- --  -- -- -- -- -- -- -- --
0370:    37 82 80 83 80 20 80  84 80 80 F8 FF FF 7F 00   7.... .........
```

#### Opcodes

```
  0: 0x0371 [0x37] UPDATE_EVENT_POSITION_AND_DIR: x=-70.816*, z=-8.230*, y=1.999*, direction=283.4°*
  1: 0x037A [0x80] LOAD_WAIT(entity=EventEntity)
  2: 0x037F [0x00] END_REQSTACK()
```

### Event 913

#### Metadata

| Field        | Value   |
|--------------|---------|
| Entrypoint   | 0x0380  |
| Data Size    | 1 bytes |
| Instructions | 1       |

```
      00 01 02 03 04 05 06 07  08 09 0A 0B 0C 0D 0E 0F
      -- -- -- -- -- -- -- --  -- -- -- -- -- -- -- --
0380: 00                                                .               
```

#### Opcodes

```
  0: 0x0380 [0x00] END_REQSTACK()
```

### Event 65535.50

#### Metadata

| Field        | Value    |
|--------------|----------|
| Entrypoint   | 0x0381   |
| Data Size    | 15 bytes |
| Instructions | 3        |

```
      00 01 02 03 04 05 06 07  08 09 0A 0B 0C 0D 0E 0F
      -- -- -- -- -- -- -- --  -- -- -- -- -- -- -- --
0380:    37 85 80 86 80 08 80  87 80 80 F8 FF FF 7F 00   7..............
```

#### Opcodes

```
  0: 0x0381 [0x37] UPDATE_EVENT_POSITION_AND_DIR: x=-22.948*, z=-23.598*, y=-9.999*, direction=91.8°*
  1: 0x038A [0x80] LOAD_WAIT(entity=EventEntity)
  2: 0x038F [0x00] END_REQSTACK()
```

### Event 905

#### Metadata

| Field        | Value   |
|--------------|---------|
| Entrypoint   | 0x0390  |
| Data Size    | 1 bytes |
| Instructions | 1       |

```
      00 01 02 03 04 05 06 07  08 09 0A 0B 0C 0D 0E 0F
      -- -- -- -- -- -- -- --  -- -- -- -- -- -- -- --
0390: 00                                                .               
```

#### Opcodes

```
  0: 0x0390 [0x00] END_REQSTACK()
```

### Event 65535.51

#### Metadata

| Field        | Value    |
|--------------|----------|
| Entrypoint   | 0x0391   |
| Data Size    | 15 bytes |
| Instructions | 3        |

```
      00 01 02 03 04 05 06 07  08 09 0A 0B 0C 0D 0E 0F
      -- -- -- -- -- -- -- --  -- -- -- -- -- -- -- --
0390:    37 88 80 89 80 08 80  8A 80 80 F8 FF FF 7F 00   7..............
```

#### Opcodes

```
  0: 0x0391 [0x37] UPDATE_EVENT_POSITION_AND_DIR: x=-29.021*, z=-27.298*, y=-9.999*, direction=17.7°*
  1: 0x039A [0x80] LOAD_WAIT(entity=EventEntity)
  2: 0x039F [0x00] END_REQSTACK()
```

### Event 906

#### Metadata

| Field        | Value   |
|--------------|---------|
| Entrypoint   | 0x03A0  |
| Data Size    | 1 bytes |
| Instructions | 1       |

```
      00 01 02 03 04 05 06 07  08 09 0A 0B 0C 0D 0E 0F
      -- -- -- -- -- -- -- --  -- -- -- -- -- -- -- --
03A0: 00                                                .               
```

#### Opcodes

```
  0: 0x03A0 [0x00] END_REQSTACK()
```

### Event 65535.52

#### Metadata

| Field        | Value    |
|--------------|----------|
| Entrypoint   | 0x03A1   |
| Data Size    | 15 bytes |
| Instructions | 3        |

```
      00 01 02 03 04 05 06 07  08 09 0A 0B 0C 0D 0E 0F
      -- -- -- -- -- -- -- --  -- -- -- -- -- -- -- --
03A0:    37 8B 80 8C 80 17 80  8D 80 80 F8 FF FF 7F 00   7..............
```

#### Opcodes

```
  0: 0x03A1 [0x37] UPDATE_EVENT_POSITION_AND_DIR: x=-79.804*, z=18.006*, y=2.000*, direction=317.1°*
  1: 0x03AA [0x80] LOAD_WAIT(entity=EventEntity)
  2: 0x03AF [0x00] END_REQSTACK()
```

### Event 920

#### Metadata

| Field        | Value   |
|--------------|---------|
| Entrypoint   | 0x03B0  |
| Data Size    | 1 bytes |
| Instructions | 1       |

```
      00 01 02 03 04 05 06 07  08 09 0A 0B 0C 0D 0E 0F
      -- -- -- -- -- -- -- --  -- -- -- -- -- -- -- --
03B0: 00                                                .               
```

#### Opcodes

```
  0: 0x03B0 [0x00] END_REQSTACK()
```

### Event 65535.53

#### Metadata

| Field        | Value    |
|--------------|----------|
| Entrypoint   | 0x03B1   |
| Data Size    | 14 bytes |
| Instructions | 4        |

```
      00 01 02 03 04 05 06 07  08 09 0A 0B 0C 0D 0E 0F
      -- -- -- -- -- -- -- --  -- -- -- -- -- -- -- --
03B0:    32 0A 80 1F 00 8E 80  8F 80 03 80 1F 01 00      2............. 
```

#### Opcodes

```
  0: 0x03B1 [0x32] ExtData[1]->MainSpeed = 40* * 0.1
  1: 0x03B4 [0x1F] MOVE_ENTITY: EventEntity moves to X=-31.059*, Z=-0.022*, Y=7.999*
  2: 0x03BC [0x1F] MOVE_ENTITY: Update entity position (mode=1)
  3: 0x03BE [0x00] END_REQSTACK()
```

### Event 65535.54

#### Metadata

| Field        | Value    |
|--------------|----------|
| Entrypoint   | 0x03BF   |
| Data Size    | 15 bytes |
| Instructions | 3        |

```
      00 01 02 03 04 05 06 07  08 09 0A 0B 0C 0D 0E 0F
      -- -- -- -- -- -- -- --  -- -- -- -- -- -- -- --
03B0:                                               37                 7
03C0: 90 80 91 80 08 80 92 80  80 F8 FF FF 7F 00        ..............  
```

#### Opcodes

```
  0: 0x03BF [0x37] UPDATE_EVENT_POSITION_AND_DIR: x=-16.363*, z=-23.834*, y=-9.999*, direction=106.5°*
  1: 0x03C8 [0x80] LOAD_WAIT(entity=EventEntity)
  2: 0x03CD [0x00] END_REQSTACK()
```

### Event 65535.55

#### Metadata

| Field        | Value    |
|--------------|----------|
| Entrypoint   | 0x03CE   |
| Data Size    | 24 bytes |
| Instructions | 6        |

```
      00 01 02 03 04 05 06 07  08 09 0A 0B 0C 0D 0E 0F
      -- -- -- -- -- -- -- --  -- -- -- -- -- -- -- --
03C0:                                            32 0A                2.
03D0: 80 1F 00 93 80 94 80 08  80 1F 01 1F 00 95 80 96  ................
03E0: 80 08 80 1F 01 00                                 ......          
```

#### Opcodes

```
  0: 0x03CE [0x32] ExtData[1]->MainSpeed = 40* * 0.1
  1: 0x03D1 [0x1F] MOVE_ENTITY: EventEntity moves to X=-18.059*, Z=-21.187*, Y=-9.999*
  2: 0x03D9 [0x1F] MOVE_ENTITY: Update entity position (mode=1)
  3: 0x03DB [0x1F] MOVE_ENTITY: EventEntity moves to X=-20.574*, Z=-20.898*, Y=-9.999*
  4: 0x03E3 [0x1F] MOVE_ENTITY: Update entity position (mode=1)
  5: 0x03E5 [0x00] END_REQSTACK()
```

### Event 65535.56

#### Metadata

| Field        | Value    |
|--------------|----------|
| Entrypoint   | 0x03E6   |
| Data Size    | 14 bytes |
| Instructions | 4        |

```
      00 01 02 03 04 05 06 07  08 09 0A 0B 0C 0D 0E 0F
      -- -- -- -- -- -- -- --  -- -- -- -- -- -- -- --
03E0:                   32 00  80 1F 00 97 80 98 80 08        2.........
03F0: 80 1F 01 00                                       ....            
```

#### Opcodes

```
  0: 0x03E6 [0x32] ExtData[1]->MainSpeed = 13* * 0.1
  1: 0x03E9 [0x1F] MOVE_ENTITY: EventEntity moves to X=-28.070*, Z=-20.842*, Y=-9.999*
  2: 0x03F1 [0x1F] MOVE_ENTITY: Update entity position (mode=1)
  3: 0x03F3 [0x00] END_REQSTACK()
```

### Event 921

#### Metadata

| Field        | Value   |
|--------------|---------|
| Entrypoint   | 0x03F4  |
| Data Size    | 1 bytes |
| Instructions | 1       |

```
      00 01 02 03 04 05 06 07  08 09 0A 0B 0C 0D 0E 0F
      -- -- -- -- -- -- -- --  -- -- -- -- -- -- -- --
03F0:             00                                        .           
```

#### Opcodes

```
  0: 0x03F4 [0x00] END_REQSTACK()
```

### Event 922

#### Metadata

| Field        | Value   |
|--------------|---------|
| Entrypoint   | 0x03F5  |
| Data Size    | 1 bytes |
| Instructions | 1       |

```
      00 01 02 03 04 05 06 07  08 09 0A 0B 0C 0D 0E 0F
      -- -- -- -- -- -- -- --  -- -- -- -- -- -- -- --
03F0:                00                                      .          
```

#### Opcodes

```
  0: 0x03F5 [0x00] END_REQSTACK()
```

### Event 65535.57

#### Metadata

| Field        | Value    |
|--------------|----------|
| Entrypoint   | 0x03F6   |
| Data Size    | 15 bytes |
| Instructions | 3        |

```
      00 01 02 03 04 05 06 07  08 09 0A 0B 0C 0D 0E 0F
      -- -- -- -- -- -- -- --  -- -- -- -- -- -- -- --
03F0:                   37 99  80 9A 80 20 80 9B 80 80        7.... ....
0400: F8 FF FF 7F 00                                    .....           
```

#### Opcodes

```
  0: 0x03F6 [0x37] UPDATE_EVENT_POSITION_AND_DIR: x=-84.773*, z=-6.895*, y=1.999*, direction=231.5°*
  1: 0x03FF [0x80] LOAD_WAIT(entity=EventEntity)
  2: 0x0404 [0x00] END_REQSTACK()
```

### Event 924

#### Metadata

| Field        | Value   |
|--------------|---------|
| Entrypoint   | 0x0405  |
| Data Size    | 1 bytes |
| Instructions | 1       |

```
      00 01 02 03 04 05 06 07  08 09 0A 0B 0C 0D 0E 0F
      -- -- -- -- -- -- -- --  -- -- -- -- -- -- -- --
0400:                00                                      .          
```

#### Opcodes

```
  0: 0x0405 [0x00] END_REQSTACK()
```

### Event 930

#### Metadata

| Field        | Value   |
|--------------|---------|
| Entrypoint   | 0x0406  |
| Data Size    | 1 bytes |
| Instructions | 1       |

```
      00 01 02 03 04 05 06 07  08 09 0A 0B 0C 0D 0E 0F
      -- -- -- -- -- -- -- --  -- -- -- -- -- -- -- --
0400:                   00                                    .         
```

#### Opcodes

```
  0: 0x0406 [0x00] END_REQSTACK()
```
