# 17748021 - Lion

## Common Data

| Field            | Value                |
|------------------|----------------------|
| Zone             | Metalworks (ID: 237) |
| Block Size       | 160 bytes            |
| Total Events     | 5                    |
| References Count | 14                   |

## List of Events

| Event ID                 | Entrypoint   |   Size |   Instructions |
|--------------------------|--------------|--------|----------------|
| [65535](#event-65535)    | 0x0000       |      1 |              1 |
| [423](#event-423)        | 0x0001       |     15 |              4 |
| [65535.1](#event-655351) | 0x0010       |     22 |              6 |
| [65535.2](#event-655352) | 0x0026       |     14 |              4 |
| [65535.3](#event-655353) | 0x0034       |     14 |              4 |

## DAT References (imed_data)

|   Index | Hex Value   |   Dec Value |
|---------|-------------|-------------|
|       0 | 0x003C      |          60 |
|       1 | 0xFFFF8385  |  4294935429 |
|       2 | 0xFFFFB8BF  |  4294949055 |
|       3 | 0xFFFFD8F0  |  4294957296 |
|       4 | 0x0958      |        2392 |
|       5 | 0x000D      |          13 |
|       6 | 0xFFFF810A  |  4294934794 |
|       7 | 0xFFFFBCF9  |  4294950137 |
|       8 | 0xFFFFD8F1  |  4294957297 |
|       9 | 0x001E      |          30 |
|      10 | 0xFFFF5E6F  |  4294925935 |
|      11 | 0xFFFFCDCE  |  4294954446 |
|      12 | 0xFFFF76EB  |  4294932203 |
|      13 | 0xFFFFC1E6  |  4294951398 |

## Events

### Event 65535

#### Metadata

| Field        | Value   |
|--------------|---------|
| Entrypoint   | 0x0000  |
| Data Size    | 1 bytes |
| Instructions | 1       |

```
      00 01 02 03 04 05 06 07  08 09 0A 0B 0C 0D 0E 0F
      -- -- -- -- -- -- -- --  -- -- -- -- -- -- -- --
0000: 00                                                .               
```

#### Opcodes

```
  0: 0x0000 [0x00] END_REQSTACK()
```

### Event 423

#### Metadata

| Field        | Value    |
|--------------|----------|
| Entrypoint   | 0x0001   |
| Data Size    | 15 bytes |
| Instructions | 4        |

```
      00 01 02 03 04 05 06 07  08 09 0A 0B 0C 0D 0E 0F
      -- -- -- -- -- -- -- --  -- -- -- -- -- -- -- --
0000:    1C 00 80 22 00 37 01  80 02 80 03 80 04 80 00   ...".7.........
```

#### Opcodes

```
  0: 0x0001 [0x1C] WAIT(60* ticks)
  1: 0x0004 [0x22] ENTITY_HIDE_FLAG(enabled=0x00)
  2: 0x0006 [0x37] UPDATE_EVENT_POSITION_AND_DIR: x=-31.867*, z=-18.241*, y=-10.000*, direction=210.2°*
  3: 0x000F [0x00] END_REQSTACK()
```

### Event 65535.1

#### Metadata

| Field        | Value    |
|--------------|----------|
| Entrypoint   | 0x0010   |
| Data Size    | 22 bytes |
| Instructions | 6        |

```
      00 01 02 03 04 05 06 07  08 09 0A 0B 0C 0D 0E 0F
      -- -- -- -- -- -- -- --  -- -- -- -- -- -- -- --
0010: 32 05 80 1F 00 06 80 07  80 08 80 1F 01 1E F0 FF  2...............
0020: FF 7F 1C 09 80 00                                 ......          
```

#### Opcodes

```
  0: 0x0010 [0x32] ExtData[1]->MainSpeed = 13* * 0.1
  1: 0x0013 [0x1F] MOVE_ENTITY: EventEntity moves to X=-32.502*, Z=-17.159*, Y=-9.999*
  2: 0x001B [0x1F] MOVE_ENTITY: Update entity position (mode=1)
  3: 0x001D [0x1E] EventEntity looks at LocalPlayer and starts talking
  4: 0x0022 [0x1C] WAIT(30* ticks)
  5: 0x0025 [0x00] END_REQSTACK()
```

### Event 65535.2

#### Metadata

| Field        | Value    |
|--------------|----------|
| Entrypoint   | 0x0026   |
| Data Size    | 14 bytes |
| Instructions | 4        |

```
      00 01 02 03 04 05 06 07  08 09 0A 0B 0C 0D 0E 0F
      -- -- -- -- -- -- -- --  -- -- -- -- -- -- -- --
0020:                   32 05  80 1F 00 0A 80 0B 80 08        2.........
0030: 80 1F 01 00                                       ....            
```

#### Opcodes

```
  0: 0x0026 [0x32] ExtData[1]->MainSpeed = 13* * 0.1
  1: 0x0029 [0x1F] MOVE_ENTITY: EventEntity moves to X=-41.361*, Z=-12.850*, Y=-9.999*
  2: 0x0031 [0x1F] MOVE_ENTITY: Update entity position (mode=1)
  3: 0x0033 [0x00] END_REQSTACK()
```

### Event 65535.3

#### Metadata

| Field        | Value    |
|--------------|----------|
| Entrypoint   | 0x0034   |
| Data Size    | 14 bytes |
| Instructions | 4        |

```
      00 01 02 03 04 05 06 07  08 09 0A 0B 0C 0D 0E 0F
      -- -- -- -- -- -- -- --  -- -- -- -- -- -- -- --
0030:             32 05 80 1F  00 0C 80 0D 80 08 80 1F      2...........
0040: 01 00                                             ..              
```

#### Opcodes

```
  0: 0x0034 [0x32] ExtData[1]->MainSpeed = 13* * 0.1
  1: 0x0037 [0x1F] MOVE_ENTITY: EventEntity moves to X=-35.093*, Z=-15.898*, Y=-9.999*
  2: 0x003F [0x1F] MOVE_ENTITY: Update entity position (mode=1)
  3: 0x0041 [0x00] END_REQSTACK()
```
