# 17748016 - Iron Eater

## Common Data

| Field            | Value                |
|------------------|----------------------|
| Zone             | Metalworks (ID: 237) |
| Block Size       | 1980 bytes           |
| Total Events     | 78                   |
| References Count | 122                  |

## List of Events

| Event ID                   | Entrypoint   |   Size |   Instructions |
|----------------------------|--------------|--------|----------------|
| [65535](#event-65535)      | 0x0000       |      1 |              1 |
| [372](#event-372)          | 0x0001       |      1 |              1 |
| [702](#event-702)          | 0x0002       |     11 |              5 |
| [65535.1](#event-655351)   | 0x000D       |     53 |             12 |
| [65535.2](#event-655352)   | 0x0042       |      6 |              2 |
| [65535.3](#event-655353)   | 0x0048       |     14 |              4 |
| [65535.4](#event-655354)   | 0x0056       |     10 |              2 |
| [65535.5](#event-655355)   | 0x0060       |      4 |              2 |
| [65535.6](#event-655356)   | 0x0064       |     14 |              4 |
| [715](#event-715)          | 0x0072       |     10 |              2 |
| [65535.7](#event-655357)   | 0x007C       |     14 |              4 |
| [65535.8](#event-655358)   | 0x008A       |     23 |              5 |
| [716](#event-716)          | 0x00A1       |     11 |              5 |
| [720](#event-720)          | 0x00AC       |     10 |              2 |
| [750](#event-750)          | 0x00B6       |      1 |              1 |
| [65535.9](#event-655359)   | 0x00B7       |     49 |             11 |
| [65535.10](#event-6553510) | 0x00E8       |     18 |              6 |
| [604](#event-604)          | 0x00FA       |      1 |              1 |
| [767](#event-767)          | 0x00FB       |      1 |              1 |
| [65535.11](#event-6553511) | 0x00FC       |     14 |              4 |
| [65535.12](#event-6553512) | 0x010A       |     29 |              7 |
| [768](#event-768)          | 0x0127       |      1 |              1 |
| [769](#event-769)          | 0x0128       |      1 |              1 |
| [773](#event-773)          | 0x0129       |      1 |              1 |
| [65535.13](#event-6553513) | 0x012A       |     44 |              9 |
| [776](#event-776)          | 0x0156       |      1 |              1 |
| [65535.14](#event-6553514) | 0x0157       |     31 |              9 |
| [65535.15](#event-6553515) | 0x0176       |     10 |              2 |
| [780](#event-780)          | 0x0180       |      1 |              1 |
| [782](#event-782)          | 0x0181       |      1 |              1 |
| [65535.16](#event-6553516) | 0x0182       |     23 |              5 |
| [65535.17](#event-6553517) | 0x0199       |     23 |              5 |
| [65535.18](#event-6553518) | 0x01B0       |     20 |              3 |
| [790](#event-790)          | 0x01C4       |      1 |              1 |
| [791](#event-791)          | 0x01C5       |    146 |             34 |
| [792](#event-792)          | 0x0257       |     12 |              6 |
| [793](#event-793)          | 0x0263       |      1 |              1 |
| [794](#event-794)          | 0x0264       |      1 |              1 |
| [65535.19](#event-6553519) | 0x0265       |     20 |              3 |
| [805](#event-805)          | 0x0279       |      1 |              1 |
| [829](#event-829)          | 0x027A       |      1 |              1 |
| [65535.20](#event-6553520) | 0x027B       |     23 |              5 |
| [65535.21](#event-6553521) | 0x0292       |     10 |              2 |
| [878](#event-878)          | 0x029C       |     30 |              8 |
| [956](#event-956)          | 0x02BA       |      1 |              1 |
| [957](#event-957)          | 0x02BB       |     33 |              9 |
| [968](#event-968)          | 0x02DC       |      1 |              1 |
| [988](#event-988)          | 0x02DD       |      1 |              1 |
| [989](#event-989)          | 0x02DE       |     49 |             12 |
| [1051](#event-1051)        | 0x030F       |      7 |              2 |
| [65535.22](#event-6553522) | 0x0316       |     16 |              2 |
| [65535.23](#event-6553523) | 0x0326       |     14 |              2 |
| [65535.24](#event-6553524) | 0x0334       |     16 |              2 |
| [65535.25](#event-6553525) | 0x0344       |     14 |              2 |
| [65535.26](#event-6553526) | 0x0352       |     16 |              2 |
| [65535.27](#event-6553527) | 0x0362       |     14 |              2 |
| [65535.28](#event-6553528) | 0x0370       |     16 |              2 |
| [65535.29](#event-6553529) | 0x0380       |     14 |              2 |
| [65535.30](#event-6553530) | 0x038E       |     16 |              2 |
| [65535.31](#event-6553531) | 0x039E       |     14 |              2 |
| [65535.32](#event-6553532) | 0x03AC       |     16 |              4 |
| [65535.33](#event-6553533) | 0x03BC       |     16 |              4 |
| [65535.34](#event-6553534) | 0x03CC       |     16 |              4 |
| [65535.35](#event-6553535) | 0x03DC       |     16 |              4 |
| [65535.36](#event-6553536) | 0x03EC       |     16 |              4 |
| [65535.37](#event-6553537) | 0x03FC       |     16 |              4 |
| [65535.38](#event-6553538) | 0x040C       |     16 |              4 |
| [65535.39](#event-6553539) | 0x041C       |     16 |              4 |
| [65535.40](#event-6553540) | 0x042C       |     16 |              4 |
| [65535.41](#event-6553541) | 0x043C       |     16 |              4 |
| [65535.42](#event-6553542) | 0x044C       |      9 |              3 |
| [65535.43](#event-6553543) | 0x0455       |     15 |              5 |
| [1052](#event-1052)        | 0x0464       |      7 |              2 |
| [65535.44](#event-6553544) | 0x046B       |     15 |              5 |
| [65535.45](#event-6553545) | 0x047A       |     17 |              6 |
| [1055](#event-1055)        | 0x048B       |      1 |              1 |

## DAT References (imed_data)

|   Index | Hex Value   |   Dec Value |
|---------|-------------|-------------|
|       0 | 0x1D68      |        7528 |
|       1 | 0x159B1     |       88497 |
|       2 | 0x3007      |       12295 |
|       3 | 0xFFFFB136  |  4294947126 |
|       4 | 0x0D1F      |        3359 |
|       5 | 0x000D      |          13 |
|       6 | 0x15CD1     |       89297 |
|       7 | 0x33EF      |       13295 |
|       8 | 0x1650C     |       91404 |
|       9 | 0x382E      |       14382 |
|      10 | 0xFFFFB127  |  4294947111 |
|      11 | 0x17659     |       95833 |
|      12 | 0x3905      |       14597 |
|      13 | 0x001E      |          30 |
|      14 | 0x1612B     |       90411 |
|      15 | 0x0DC7      |        3527 |
|      16 | 0xFFFFB3B4  |  4294947764 |
|      17 | 0x0258      |         600 |
|      18 | 0x16DEC     |       93676 |
|      19 | 0xFFFFFFB7  |  4294967223 |
|      20 | 0xFFFFB138  |  4294947128 |
|      21 | 0x16B08     |       92936 |
|      22 | 0x0716      |        1814 |
|      23 | 0x0572      |        1394 |
|      24 | 0x1619D     |       90525 |
|      25 | 0x0322      |         802 |
|      26 | 0x159FD     |       88573 |
|      27 | 0x0FAE      |        4014 |
|      28 | 0xFFFFB2DD  |  4294947549 |
|      29 | 0x175D0     |       95696 |
|      30 | 0x3E82      |       16002 |
|      31 | 0x042B      |        1067 |
|      32 | 0x1E83      |        7811 |
|      33 | 0x189D0     |      100816 |
|      34 | 0x0F00      |        3840 |
|      35 | 0x0209      |         521 |
|      36 | 0x1212F     |       74031 |
|      37 | 0xFFFFFFDE  |  4294967262 |
|      38 | 0xFFFFB9B0  |  4294949296 |
|      39 | 0x0777      |        1911 |
|      40 | 0x107D3     |       67539 |
|      41 | 0xFFFFFB84  |  4294966148 |
|      42 | 0xFFFFC950  |  4294953296 |
|      43 | 0x10589     |       66953 |
|      44 | 0xFFFFF6F5  |  4294964981 |
|      45 | 0x160DB     |       90331 |
|      46 | 0x0F64      |        3940 |
|      47 | 0x159D8     |       88536 |
|      48 | 0x291E      |       10526 |
|      49 | 0x0AFC      |        2812 |
|      50 | 0x1622D     |       90669 |
|      51 | 0x3664      |       13924 |
|      52 | 0x16497     |       91287 |
|      53 | 0x3B30      |       15152 |
|      54 | 0x0F43      |        3907 |
|      55 | 0x17051     |       94289 |
|      56 | 0x3F56      |       16214 |
|      57 | 0x17A04     |       96772 |
|      58 | 0x3D54      |       15700 |
|      59 | 0x1680C     |       92172 |
|      60 | 0x232D      |        9005 |
|      61 | 0x002B      |          43 |
|      62 | 0x17D81     |       97665 |
|      63 | 0x2B14      |       11028 |
|      64 | 0x17E91     |       97937 |
|      65 | 0x3845      |       14405 |
|      66 | 0x0A0D      |        2573 |
|      67 | 0x17901     |       96513 |
|      68 | 0x0402      |        1026 |
|      69 | 0x00C3      |         195 |
|      70 | 0x17E13     |       97811 |
|      71 | 0x047D      |        1149 |
|      72 | 0xFFFFB12B  |  4294947115 |
|      73 | 0x17CE9     |       97513 |
|      74 | 0x0B0A      |        2826 |
|      75 | 0x18E0B     |      101899 |
|      76 | 0x0B9E      |        2974 |
|      77 | 0x16B4D     |       93005 |
|      78 | 0x07B0      |        1968 |
|      79 | 0x04AE      |        1198 |
|      80 | 0x2335      |        9013 |
|      81 | 0x0000      |           0 |
|      82 | 0x0002      |           2 |
|      83 | 0x2336      |        9014 |
|      84 | 0x0001      |           1 |
|      85 | 0x0045      |          69 |
|      86 | 0x2337      |        9015 |
|      87 | 0x2338      |        9016 |
|      88 | 0x2339      |        9017 |
|      89 | 0x233A      |        9018 |
|      90 | 0x233B      |        9019 |
|      91 | 0x5BF6      |       23542 |
|      92 | 0xFFFFEF7F  |  4294963071 |
|      93 | 0xFFFFC951  |  4294953297 |
|      94 | 0x0789      |        1929 |
|      95 | 0x17CE3     |       97507 |
|      96 | 0x0581      |        1409 |
|      97 | 0x00CA      |         202 |
|      98 | 0x183C3     |       99267 |
|      99 | 0x052F      |        1327 |
|     100 | 0x252C      |        9516 |
|     101 | 0x252D      |        9517 |
|     102 | 0x2A2C      |       10796 |
|     103 | 0x2A2D      |       10797 |
|     104 | 0x2B31      |       11057 |
|     105 | 0x2B32      |       11058 |
|     106 | 0x0083      |         131 |
|     107 | 0x0015      |          21 |
|     108 | 0x003C      |          60 |
|     109 | 0x0007      |           7 |
|     110 | 0x0006      |           6 |
|     111 | 0x000B      |          11 |
|     112 | 0x000E      |          14 |
|     113 | 0x0004      |           4 |
|     114 | 0x0013      |          19 |
|     115 | 0x000C      |          12 |
|     116 | 0x001D      |          29 |
|     117 | 0x1603A     |       90170 |
|     118 | 0x0430      |        1072 |
|     119 | 0x12A4E     |       76366 |
|     120 | 0x0415      |        1045 |
|     121 | 0xFFFFB4CE  |  4294948046 |

## String References

- **7528**: These doors lead to the President's Office. Only those on special missions and high-ranking Bastokan adventurers may enter.
- **7811**: The way to the rendezvous point is through the Pashhow Marshlands. It is right inside Beadeaux.
- **9013**: Is something wrong? Are you giving up so easily?
- **9014**: What is wrong? [Nothing./I've lost the axe./I've decided to give up.]
- **9015**: And you call yourself an adventurer. You should learn to take better care of your property! Here, take this axe, and be more careful this time.
- **9016**: Give up? After coming this far?
- **9017**: Do you really want to give up? [Yes./Not just yet.]
- **9018**: I see you were not ready for the task I offered you... Do what you wish with that axe. I have no need for it.
- **9019**: Your journey is not yet over, <Player>. There are still many roads that this axe has to lead you down.
- **9516**: You will find there are not many people who are willing to speak of the Multinational Expedition.
- **9517**: Especially among us Galka...
- **10796**: Now that you mention it, he and Gumbah often used to travel to Grauberg.
- **10797**: What was it about that mountain...?
- **11057**: A document about this new "Trust Initiative"... What would the Jeuno Institute of Magical Studies want with me?
- **11058**: On the surface, it does not seem particularly dangerous...

## Events

### Event 65535

#### Metadata

| Field        | Value   |
|--------------|---------|
| Entrypoint   | 0x0000  |
| Data Size    | 1 bytes |
| Instructions | 1       |

```
      00 01 02 03 04 05 06 07  08 09 0A 0B 0C 0D 0E 0F
      -- -- -- -- -- -- -- --  -- -- -- -- -- -- -- --
0000: 00                                                .               
```

#### Opcodes

```
  0: 0x0000 [0x00] END_REQSTACK()
```

### Event 372

#### Metadata

| Field        | Value   |
|--------------|---------|
| Entrypoint   | 0x0001  |
| Data Size    | 1 bytes |
| Instructions | 1       |

```
      00 01 02 03 04 05 06 07  08 09 0A 0B 0C 0D 0E 0F
      -- -- -- -- -- -- -- --  -- -- -- -- -- -- -- --
0000:    00                                              .              
```

#### Opcodes

```
  0: 0x0001 [0x00] END_REQSTACK()
```

### Event 702

#### Metadata

| Field        | Value    |
|--------------|----------|
| Entrypoint   | 0x0002   |
| Data Size    | 11 bytes |
| Instructions | 5        |

```
      00 01 02 03 04 05 06 07  08 09 0A 0B 0C 0D 0E 0F
      -- -- -- -- -- -- -- --  -- -- -- -- -- -- -- --
0000:       1E F0 FF FF 7F 1D  00 80 23 21 00             ........#!.   
```

#### Opcodes

```
  0: 0x0002 [0x1E] EventEntity looks at LocalPlayer and starts talking
  1: 0x0007 [0x1D] PRINT_EVENT_MESSAGE(message_id=7528*)
    → "These doors lead to the President's Office. Only those on special missions and high-ranking Bastokan adventurers may enter."
  2: 0x000A [0x23] WAIT_FOR_DIALOG_INTERACTION
  3: 0x000B [0x21] END_EVENT
  4: 0x000C [0x00] END_REQSTACK()
```

### Event 65535.1

#### Metadata

| Field        | Value    |
|--------------|----------|
| Entrypoint   | 0x000D   |
| Data Size    | 53 bytes |
| Instructions | 12       |

```
      00 01 02 03 04 05 06 07  08 09 0A 0B 0C 0D 0E 0F
      -- -- -- -- -- -- -- --  -- -- -- -- -- -- -- --
0000:                                         22 00 37               ".7
0010: 01 80 02 80 03 80 04 80  32 05 80 1F 00 06 80 07  ........2.......
0020: 80 03 80 1F 01 1F 00 08  80 09 80 0A 80 1F 01 1F  ................
0030: 00 0B 80 0C 80 0A 80 1F  01 1E 1D D0 0E 01 1C 0D  ................
0040: 80 00                                             ..              
```

#### Opcodes

```
  0: 0x000D [0x22] ENTITY_HIDE_FLAG(enabled=0x00)
  1: 0x000F [0x37] UPDATE_EVENT_POSITION_AND_DIR: x=88.497*, z=12.295*, y=-20.170*, direction=295.2°*
  2: 0x0018 [0x32] ExtData[1]->MainSpeed = 13* * 0.1
  3: 0x001B [0x1F] MOVE_ENTITY: EventEntity moves to X=89.297*, Z=13.295*, Y=-20.170*
  4: 0x0023 [0x1F] MOVE_ENTITY: Update entity position (mode=1)
  5: 0x0025 [0x1F] MOVE_ENTITY: EventEntity moves to X=91.404*, Z=14.382*, Y=-20.185*
  6: 0x002D [0x1F] MOVE_ENTITY: Update entity position (mode=1)
  7: 0x002F [0x1F] MOVE_ENTITY: EventEntity moves to X=95.833*, Z=14.597*, Y=-20.185*
  8: 0x0037 [0x1F] MOVE_ENTITY: Update entity position (mode=1)
  9: 0x0039 [0x1E] EventEntity looks at Alois (ID: 17747997/0x010ED01D) and starts talking
 10: 0x003E [0x1C] WAIT(30* ticks)
 11: 0x0041 [0x00] END_REQSTACK()
```

### Event 65535.2

#### Metadata

| Field        | Value   |
|--------------|---------|
| Entrypoint   | 0x0042  |
| Data Size    | 6 bytes |
| Instructions | 2       |

```
      00 01 02 03 04 05 06 07  08 09 0A 0B 0C 0D 0E 0F
      -- -- -- -- -- -- -- --  -- -- -- -- -- -- -- --
0040:       5E 69 64 6C 30 00                             ^idl0.        
```

#### Opcodes

```
  0: 0x0042 [0x5E] EventEntity goes idle (kills current action) (animation: "idl0")
  1: 0x0047 [0x00] END_REQSTACK()
```

### Event 65535.3

#### Metadata

| Field        | Value    |
|--------------|----------|
| Entrypoint   | 0x0048   |
| Data Size    | 14 bytes |
| Instructions | 4        |

```
      00 01 02 03 04 05 06 07  08 09 0A 0B 0C 0D 0E 0F
      -- -- -- -- -- -- -- --  -- -- -- -- -- -- -- --
0040:                          32 05 80 1F 00 08 80 09          2.......
0050: 80 0A 80 1F 01 00                                 ......          
```

#### Opcodes

```
  0: 0x0048 [0x32] ExtData[1]->MainSpeed = 13* * 0.1
  1: 0x004B [0x1F] MOVE_ENTITY: EventEntity moves to X=91.404*, Z=14.382*, Y=-20.185*
  2: 0x0053 [0x1F] MOVE_ENTITY: Update entity position (mode=1)
  3: 0x0055 [0x00] END_REQSTACK()
```

### Event 65535.4

#### Metadata

| Field        | Value    |
|--------------|----------|
| Entrypoint   | 0x0056   |
| Data Size    | 10 bytes |
| Instructions | 2        |

```
      00 01 02 03 04 05 06 07  08 09 0A 0B 0C 0D 0E 0F
      -- -- -- -- -- -- -- --  -- -- -- -- -- -- -- --
0050:                   37 0E  80 0F 80 10 80 11 80 00        7.........
```

#### Opcodes

```
  0: 0x0056 [0x37] UPDATE_EVENT_POSITION_AND_DIR: x=90.411*, z=3.527*, y=-19.532*, direction=52.7°*
  1: 0x005F [0x00] END_REQSTACK()
```

### Event 65535.5

#### Metadata

| Field        | Value   |
|--------------|---------|
| Entrypoint   | 0x0060  |
| Data Size    | 4 bytes |
| Instructions | 2       |

```
      00 01 02 03 04 05 06 07  08 09 0A 0B 0C 0D 0E 0F
      -- -- -- -- -- -- -- --  -- -- -- -- -- -- -- --
0060: 39 11 80 00                                       9...            
```

#### Opcodes

```
  0: 0x0060 [0x39] SET_ENTITY_DIRECTION(direction=3.3°*)
  1: 0x0063 [0x00] END_REQSTACK()
```

### Event 65535.6

#### Metadata

| Field        | Value    |
|--------------|----------|
| Entrypoint   | 0x0064   |
| Data Size    | 14 bytes |
| Instructions | 4        |

```
      00 01 02 03 04 05 06 07  08 09 0A 0B 0C 0D 0E 0F
      -- -- -- -- -- -- -- --  -- -- -- -- -- -- -- --
0060:             32 05 80 1F  00 12 80 13 80 14 80 1F      2...........
0070: 01 00                                             ..              
```

#### Opcodes

```
  0: 0x0064 [0x32] ExtData[1]->MainSpeed = 13* * 0.1
  1: 0x0067 [0x1F] MOVE_ENTITY: EventEntity moves to X=93.676*, Z=-0.073*, Y=-20.168*
  2: 0x006F [0x1F] MOVE_ENTITY: Update entity position (mode=1)
  3: 0x0071 [0x00] END_REQSTACK()
```

### Event 715

#### Metadata

| Field        | Value    |
|--------------|----------|
| Entrypoint   | 0x0072   |
| Data Size    | 10 bytes |
| Instructions | 2        |

```
      00 01 02 03 04 05 06 07  08 09 0A 0B 0C 0D 0E 0F
      -- -- -- -- -- -- -- --  -- -- -- -- -- -- -- --
0070:       37 15 80 16 80 10  80 17 80 00                7.........    
```

#### Opcodes

```
  0: 0x0072 [0x37] UPDATE_EVENT_POSITION_AND_DIR: x=92.936*, z=1.814*, y=-19.532*, direction=122.5°*
  1: 0x007B [0x00] END_REQSTACK()
```

### Event 65535.7

#### Metadata

| Field        | Value    |
|--------------|----------|
| Entrypoint   | 0x007C   |
| Data Size    | 14 bytes |
| Instructions | 4        |

```
      00 01 02 03 04 05 06 07  08 09 0A 0B 0C 0D 0E 0F
      -- -- -- -- -- -- -- --  -- -- -- -- -- -- -- --
0070:                                      32 05 80 1F              2...
0080: 00 18 80 19 80 10 80 1F  01 00                    ..........      
```

#### Opcodes

```
  0: 0x007C [0x32] ExtData[1]->MainSpeed = 13* * 0.1
  1: 0x007F [0x1F] MOVE_ENTITY: EventEntity moves to X=90.525*, Z=0.802*, Y=-19.532*
  2: 0x0087 [0x1F] MOVE_ENTITY: Update entity position (mode=1)
  3: 0x0089 [0x00] END_REQSTACK()
```

### Event 65535.8

#### Metadata

| Field        | Value    |
|--------------|----------|
| Entrypoint   | 0x008A   |
| Data Size    | 23 bytes |
| Instructions | 5        |

```
      00 01 02 03 04 05 06 07  08 09 0A 0B 0C 0D 0E 0F
      -- -- -- -- -- -- -- --  -- -- -- -- -- -- -- --
0080:                                32 05 80 1F 00 1A            2.....
0090: 80 1B 80 1C 80 1F 01 37  1D 80 1E 80 03 80 1F 80  .......7........
00A0: 00                                                .               
```

#### Opcodes

```
  0: 0x008A [0x32] ExtData[1]->MainSpeed = 13* * 0.1
  1: 0x008D [0x1F] MOVE_ENTITY: EventEntity moves to X=88.573*, Z=4.014*, Y=-19.747*
  2: 0x0095 [0x1F] MOVE_ENTITY: Update entity position (mode=1)
  3: 0x0097 [0x37] UPDATE_EVENT_POSITION_AND_DIR: x=95.696*, z=16.002*, y=-20.170*, direction=93.8°*
  4: 0x00A0 [0x00] END_REQSTACK()
```

### Event 716

#### Metadata

| Field        | Value    |
|--------------|----------|
| Entrypoint   | 0x00A1   |
| Data Size    | 11 bytes |
| Instructions | 5        |

```
      00 01 02 03 04 05 06 07  08 09 0A 0B 0C 0D 0E 0F
      -- -- -- -- -- -- -- --  -- -- -- -- -- -- -- --
00A0:    1E F0 FF FF 7F 1D 20  80 23 21 00               ...... .#!.    
```

#### Opcodes

```
  0: 0x00A1 [0x1E] EventEntity looks at LocalPlayer and starts talking
  1: 0x00A6 [0x1D] PRINT_EVENT_MESSAGE(message_id=7811*)
    → "The way to the rendezvous point is through the Pashhow Marshlands. It is right inside Beadeaux."
  2: 0x00A9 [0x23] WAIT_FOR_DIALOG_INTERACTION
  3: 0x00AA [0x21] END_EVENT
  4: 0x00AB [0x00] END_REQSTACK()
```

### Event 720

#### Metadata

| Field        | Value    |
|--------------|----------|
| Entrypoint   | 0x00AC   |
| Data Size    | 10 bytes |
| Instructions | 2        |

```
      00 01 02 03 04 05 06 07  08 09 0A 0B 0C 0D 0E 0F
      -- -- -- -- -- -- -- --  -- -- -- -- -- -- -- --
00A0:                                      37 21 80 22              7!."
00B0: 80 03 80 23 80 00                                 ...#..          
```

#### Opcodes

```
  0: 0x00AC [0x37] UPDATE_EVENT_POSITION_AND_DIR: x=100.816*, z=3.840*, y=-20.170*, direction=45.8°*
  1: 0x00B5 [0x00] END_REQSTACK()
```

### Event 750

#### Metadata

| Field        | Value   |
|--------------|---------|
| Entrypoint   | 0x00B6  |
| Data Size    | 1 bytes |
| Instructions | 1       |

```
      00 01 02 03 04 05 06 07  08 09 0A 0B 0C 0D 0E 0F
      -- -- -- -- -- -- -- --  -- -- -- -- -- -- -- --
00B0:                   00                                    .         
```

#### Opcodes

```
  0: 0x00B6 [0x00] END_REQSTACK()
```

### Event 65535.9

#### Metadata

| Field        | Value    |
|--------------|----------|
| Entrypoint   | 0x00B7   |
| Data Size    | 49 bytes |
| Instructions | 11       |

```
      00 01 02 03 04 05 06 07  08 09 0A 0B 0C 0D 0E 0F
      -- -- -- -- -- -- -- --  -- -- -- -- -- -- -- --
00B0:                      22  00 32 05 80 33 01 37 24         ".2..3.7$
00C0: 80 25 80 26 80 27 80 79  00 F8 FF FF 7F 2D D0 0E  .%.&.'.y.....-..
00D0: 01 5A 00 28 80 29 80 2A  80 5A 01 5A 00 2B 80 2C  .Z.(.).*.Z.Z.+.,
00E0: 80 2A 80 5A 01 33 01 00                           .*.Z.3..        
```

#### Opcodes

```
  0: 0x00B7 [0x22] ENTITY_HIDE_FLAG(enabled=0x00)
  1: 0x00B9 [0x32] ExtData[1]->MainSpeed = 13* * 0.1
  2: 0x00BC [0x33] EventEntity->Render.Flags0 |= 0x200000 // Bit 21 (flag=0x01)
  3: 0x00BE [0x37] UPDATE_EVENT_POSITION_AND_DIR: x=74.031*, z=-0.034*, y=-18.000*, direction=168.0°*
  4: 0x00C7 [0x79] EventEntity looks at Naji (ID: 17748013/0x010ED02D) (Basic look)
  5: 0x00D1 [0x5A] UPDATE_EVENT_POSITION: Set EventEntity MovePosition to X=67.539*, Z=-1.148*, Y=-14.000*
  6: 0x00D9 [0x5A] UPDATE_EVENT_POSITION: Move EventEntity incrementally towards MovePosition
  7: 0x00DB [0x5A] UPDATE_EVENT_POSITION: Set EventEntity MovePosition to X=66.953*, Z=-2.315*, Y=-14.000*
  8: 0x00E3 [0x5A] UPDATE_EVENT_POSITION: Move EventEntity incrementally towards MovePosition
  9: 0x00E5 [0x33] EventEntity->Render.Flags0 |= 0x200000 // Bit 21 (flag=0x01)
 10: 0x00E7 [0x00] END_REQSTACK()
```

### Event 65535.10

#### Metadata

| Field        | Value    |
|--------------|----------|
| Entrypoint   | 0x00E8   |
| Data Size    | 18 bytes |
| Instructions | 6        |

```
      00 01 02 03 04 05 06 07  08 09 0A 0B 0C 0D 0E 0F
      -- -- -- -- -- -- -- --  -- -- -- -- -- -- -- --
00E0:                          22 00 32 05 80 33 01 5A          ".2..3.Z
00F0: 00 24 80 25 80 26 80 5A  01 00                    .$.%.&.Z..      
```

#### Opcodes

```
  0: 0x00E8 [0x22] ENTITY_HIDE_FLAG(enabled=0x00)
  1: 0x00EA [0x32] ExtData[1]->MainSpeed = 13* * 0.1
  2: 0x00ED [0x33] EventEntity->Render.Flags0 |= 0x200000 // Bit 21 (flag=0x01)
  3: 0x00EF [0x5A] UPDATE_EVENT_POSITION: Set EventEntity MovePosition to X=74.031*, Z=-0.034*, Y=-18.000*
  4: 0x00F7 [0x5A] UPDATE_EVENT_POSITION: Move EventEntity incrementally towards MovePosition
  5: 0x00F9 [0x00] END_REQSTACK()
```

### Event 604

#### Metadata

| Field        | Value   |
|--------------|---------|
| Entrypoint   | 0x00FA  |
| Data Size    | 1 bytes |
| Instructions | 1       |

```
      00 01 02 03 04 05 06 07  08 09 0A 0B 0C 0D 0E 0F
      -- -- -- -- -- -- -- --  -- -- -- -- -- -- -- --
00F0:                                00                           .     
```

#### Opcodes

```
  0: 0x00FA [0x00] END_REQSTACK()
```

### Event 767

#### Metadata

| Field        | Value   |
|--------------|---------|
| Entrypoint   | 0x00FB  |
| Data Size    | 1 bytes |
| Instructions | 1       |

```
      00 01 02 03 04 05 06 07  08 09 0A 0B 0C 0D 0E 0F
      -- -- -- -- -- -- -- --  -- -- -- -- -- -- -- --
00F0:                                   00                         .    
```

#### Opcodes

```
  0: 0x00FB [0x00] END_REQSTACK()
```

### Event 65535.11

#### Metadata

| Field        | Value    |
|--------------|----------|
| Entrypoint   | 0x00FC   |
| Data Size    | 14 bytes |
| Instructions | 4        |

```
      00 01 02 03 04 05 06 07  08 09 0A 0B 0C 0D 0E 0F
      -- -- -- -- -- -- -- --  -- -- -- -- -- -- -- --
00F0:                                      32 05 80 1F              2...
0100: 00 2D 80 2E 80 10 80 1F  01 00                    .-........      
```

#### Opcodes

```
  0: 0x00FC [0x32] ExtData[1]->MainSpeed = 13* * 0.1
  1: 0x00FF [0x1F] MOVE_ENTITY: EventEntity moves to X=90.331*, Z=3.940*, Y=-19.532*
  2: 0x0107 [0x1F] MOVE_ENTITY: Update entity position (mode=1)
  3: 0x0109 [0x00] END_REQSTACK()
```

### Event 65535.12

#### Metadata

| Field        | Value    |
|--------------|----------|
| Entrypoint   | 0x010A   |
| Data Size    | 29 bytes |
| Instructions | 7        |

```
      00 01 02 03 04 05 06 07  08 09 0A 0B 0C 0D 0E 0F
      -- -- -- -- -- -- -- --  -- -- -- -- -- -- -- --
0100:                                32 05 80 37 2F 80            2..7/.
0110: 30 80 03 80 31 80 1F 00  32 80 33 80 03 80 1F 01  0...1...2.3.....
0120: 6F 1E F0 FF FF 7F 00                              o......         
```

#### Opcodes

```
  0: 0x010A [0x32] ExtData[1]->MainSpeed = 13* * 0.1
  1: 0x010D [0x37] UPDATE_EVENT_POSITION_AND_DIR: x=88.536*, z=10.526*, y=-20.170*, direction=247.1°*
  2: 0x0116 [0x1F] MOVE_ENTITY: EventEntity moves to X=90.669*, Z=13.924*, Y=-20.170*
  3: 0x011E [0x1F] MOVE_ENTITY: Update entity position (mode=1)
  4: 0x0120 [0x6F] WAIT_FRAME_DELAY: Yield until WaitTime reaches zero
  5: 0x0121 [0x1E] EventEntity looks at LocalPlayer and starts talking
  6: 0x0126 [0x00] END_REQSTACK()
```

### Event 768

#### Metadata

| Field        | Value   |
|--------------|---------|
| Entrypoint   | 0x0127  |
| Data Size    | 1 bytes |
| Instructions | 1       |

```
      00 01 02 03 04 05 06 07  08 09 0A 0B 0C 0D 0E 0F
      -- -- -- -- -- -- -- --  -- -- -- -- -- -- -- --
0120:                      00                                  .        
```

#### Opcodes

```
  0: 0x0127 [0x00] END_REQSTACK()
```

### Event 769

#### Metadata

| Field        | Value   |
|--------------|---------|
| Entrypoint   | 0x0128  |
| Data Size    | 1 bytes |
| Instructions | 1       |

```
      00 01 02 03 04 05 06 07  08 09 0A 0B 0C 0D 0E 0F
      -- -- -- -- -- -- -- --  -- -- -- -- -- -- -- --
0120:                          00                               .       
```

#### Opcodes

```
  0: 0x0128 [0x00] END_REQSTACK()
```

### Event 773

#### Metadata

| Field        | Value   |
|--------------|---------|
| Entrypoint   | 0x0129  |
| Data Size    | 1 bytes |
| Instructions | 1       |

```
      00 01 02 03 04 05 06 07  08 09 0A 0B 0C 0D 0E 0F
      -- -- -- -- -- -- -- --  -- -- -- -- -- -- -- --
0120:                             00                             .      
```

#### Opcodes

```
  0: 0x0129 [0x00] END_REQSTACK()
```

### Event 65535.13

#### Metadata

| Field        | Value    |
|--------------|----------|
| Entrypoint   | 0x012A   |
| Data Size    | 44 bytes |
| Instructions | 9        |

```
      00 01 02 03 04 05 06 07  08 09 0A 0B 0C 0D 0E 0F
      -- -- -- -- -- -- -- --  -- -- -- -- -- -- -- --
0120:                                32 05 80 37 34 80            2..74.
0130: 35 80 03 80 36 80 79 00  30 D0 0E 01 1D D0 0E 01  5...6.y.0.......
0140: 1F 00 37 80 38 80 03 80  1F 01 1F 00 39 80 3A 80  ..7.8.......9.:.
0150: 03 80 1F 01 6F 00                                 ....o.          
```

#### Opcodes

```
  0: 0x012A [0x32] ExtData[1]->MainSpeed = 13* * 0.1
  1: 0x012D [0x37] UPDATE_EVENT_POSITION_AND_DIR: x=91.287*, z=15.152*, y=-20.170*, direction=343.4°*
  2: 0x0136 [0x79] Iron Eater (ID: 17748016/0x010ED030) looks at Alois (ID: 17747997/0x010ED01D) (Basic look)
  3: 0x0140 [0x1F] MOVE_ENTITY: EventEntity moves to X=94.289*, Z=16.214*, Y=-20.170*
  4: 0x0148 [0x1F] MOVE_ENTITY: Update entity position (mode=1)
  5: 0x014A [0x1F] MOVE_ENTITY: EventEntity moves to X=96.772*, Z=15.700*, Y=-20.170*
  6: 0x0152 [0x1F] MOVE_ENTITY: Update entity position (mode=1)
  7: 0x0154 [0x6F] WAIT_FRAME_DELAY: Yield until WaitTime reaches zero
  8: 0x0155 [0x00] END_REQSTACK()
```

### Event 776

#### Metadata

| Field        | Value   |
|--------------|---------|
| Entrypoint   | 0x0156  |
| Data Size    | 1 bytes |
| Instructions | 1       |

```
      00 01 02 03 04 05 06 07  08 09 0A 0B 0C 0D 0E 0F
      -- -- -- -- -- -- -- --  -- -- -- -- -- -- -- --
0150:                   00                                    .         
```

#### Opcodes

```
  0: 0x0156 [0x00] END_REQSTACK()
```

### Event 65535.14

#### Metadata

| Field        | Value    |
|--------------|----------|
| Entrypoint   | 0x0157   |
| Data Size    | 31 bytes |
| Instructions | 9        |

```
      00 01 02 03 04 05 06 07  08 09 0A 0B 0C 0D 0E 0F
      -- -- -- -- -- -- -- --  -- -- -- -- -- -- -- --
0150:                      32  05 80 37 3B 80 3C 80 03         2..7;.<..
0160: 80 3D 80 1F 00 3E 80 3F  80 0A 80 1F 01 6F 1E 1D  .=...>.?.....o..
0170: D0 0E 01 6F 70 00                                 ...op.          
```

#### Opcodes

```
  0: 0x0157 [0x32] ExtData[1]->MainSpeed = 13* * 0.1
  1: 0x015A [0x37] UPDATE_EVENT_POSITION_AND_DIR: x=92.172*, z=9.005*, y=-20.170*, direction=3.8°*
  2: 0x0163 [0x1F] MOVE_ENTITY: EventEntity moves to X=97.665*, Z=11.028*, Y=-20.185*
  3: 0x016B [0x1F] MOVE_ENTITY: Update entity position (mode=1)
  4: 0x016D [0x6F] WAIT_FRAME_DELAY: Yield until WaitTime reaches zero
  5: 0x016E [0x1E] EventEntity looks at Alois (ID: 17747997/0x010ED01D) and starts talking
  6: 0x0173 [0x6F] WAIT_FRAME_DELAY: Yield until WaitTime reaches zero
  7: 0x0174 [0x70] WAIT_ENTITY_RENDER_FLAG: Wait while EventEntity->Render.Flags3 bit 2 is set (cancel turn if not)
  8: 0x0175 [0x00] END_REQSTACK()
```

### Event 65535.15

#### Metadata

| Field        | Value    |
|--------------|----------|
| Entrypoint   | 0x0176   |
| Data Size    | 10 bytes |
| Instructions | 2        |

```
      00 01 02 03 04 05 06 07  08 09 0A 0B 0C 0D 0E 0F
      -- -- -- -- -- -- -- --  -- -- -- -- -- -- -- --
0170:                   37 40  80 41 80 0A 80 42 80 00        7@.A...B..
```

#### Opcodes

```
  0: 0x0176 [0x37] UPDATE_EVENT_POSITION_AND_DIR: x=97.937*, z=14.405*, y=-20.185*, direction=226.1°*
  1: 0x017F [0x00] END_REQSTACK()
```

### Event 780

#### Metadata

| Field        | Value   |
|--------------|---------|
| Entrypoint   | 0x0180  |
| Data Size    | 1 bytes |
| Instructions | 1       |

```
      00 01 02 03 04 05 06 07  08 09 0A 0B 0C 0D 0E 0F
      -- -- -- -- -- -- -- --  -- -- -- -- -- -- -- --
0180: 00                                                .               
```

#### Opcodes

```
  0: 0x0180 [0x00] END_REQSTACK()
```

### Event 782

#### Metadata

| Field        | Value   |
|--------------|---------|
| Entrypoint   | 0x0181  |
| Data Size    | 1 bytes |
| Instructions | 1       |

```
      00 01 02 03 04 05 06 07  08 09 0A 0B 0C 0D 0E 0F
      -- -- -- -- -- -- -- --  -- -- -- -- -- -- -- --
0180:    00                                              .              
```

#### Opcodes

```
  0: 0x0181 [0x00] END_REQSTACK()
```

### Event 65535.16

#### Metadata

| Field        | Value    |
|--------------|----------|
| Entrypoint   | 0x0182   |
| Data Size    | 23 bytes |
| Instructions | 5        |

```
      00 01 02 03 04 05 06 07  08 09 0A 0B 0C 0D 0E 0F
      -- -- -- -- -- -- -- --  -- -- -- -- -- -- -- --
0180:       32 05 80 37 43 80  44 80 03 80 45 80 1F 00    2..7C.D...E...
0190: 46 80 47 80 48 80 1F 01  00                       F.G.H....       
```

#### Opcodes

```
  0: 0x0182 [0x32] ExtData[1]->MainSpeed = 13* * 0.1
  1: 0x0185 [0x37] UPDATE_EVENT_POSITION_AND_DIR: x=96.513*, z=1.026*, y=-20.170*, direction=17.1°*
  2: 0x018E [0x1F] MOVE_ENTITY: EventEntity moves to X=97.811*, Z=1.149*, Y=-20.181*
  3: 0x0196 [0x1F] MOVE_ENTITY: Update entity position (mode=1)
  4: 0x0198 [0x00] END_REQSTACK()
```

### Event 65535.17

#### Metadata

| Field        | Value    |
|--------------|----------|
| Entrypoint   | 0x0199   |
| Data Size    | 23 bytes |
| Instructions | 5        |

```
      00 01 02 03 04 05 06 07  08 09 0A 0B 0C 0D 0E 0F
      -- -- -- -- -- -- -- --  -- -- -- -- -- -- -- --
0190:                             32 05 80 37 49 80 4A           2..7I.J
01A0: 80 03 80 45 80 1F 00 4B  80 4C 80 03 80 1F 01 00  ...E...K.L......
```

#### Opcodes

```
  0: 0x0199 [0x32] ExtData[1]->MainSpeed = 13* * 0.1
  1: 0x019C [0x37] UPDATE_EVENT_POSITION_AND_DIR: x=97.513*, z=2.826*, y=-20.170*, direction=17.1°*
  2: 0x01A5 [0x1F] MOVE_ENTITY: EventEntity moves to X=101.899*, Z=2.974*, Y=-20.170*
  3: 0x01AD [0x1F] MOVE_ENTITY: Update entity position (mode=1)
  4: 0x01AF [0x00] END_REQSTACK()
```

### Event 65535.18

#### Metadata

| Field        | Value    |
|--------------|----------|
| Entrypoint   | 0x01B0   |
| Data Size    | 20 bytes |
| Instructions | 3        |

```
      00 01 02 03 04 05 06 07  08 09 0A 0B 0C 0D 0E 0F
      -- -- -- -- -- -- -- --  -- -- -- -- -- -- -- --
01B0: 79 00 F8 FF FF 7F 32 D0  0E 01 37 4D 80 4E 80 10  y.....2...7M.N..
01C0: 80 4F 80 00                                       .O..            
```

#### Opcodes

```
  0: 0x01B0 [0x79] EventEntity looks at Cornelia (ID: 17748018/0x010ED032) (Basic look)
  1: 0x01BA [0x37] UPDATE_EVENT_POSITION_AND_DIR: x=93.005*, z=1.968*, y=-19.532*, direction=105.3°*
  2: 0x01C3 [0x00] END_REQSTACK()
```

### Event 790

#### Metadata

| Field        | Value   |
|--------------|---------|
| Entrypoint   | 0x01C4  |
| Data Size    | 1 bytes |
| Instructions | 1       |

```
      00 01 02 03 04 05 06 07  08 09 0A 0B 0C 0D 0E 0F
      -- -- -- -- -- -- -- --  -- -- -- -- -- -- -- --
01C0:             00                                        .           
```

#### Opcodes

```
  0: 0x01C4 [0x00] END_REQSTACK()
```

### Event 791

#### Metadata

| Field        | Value     |
|--------------|-----------|
| Entrypoint   | 0x01C5    |
| Data Size    | 146 bytes |
| Instructions | 34        |

```
      00 01 02 03 04 05 06 07  08 09 0A 0B 0C 0D 0E 0F
      -- -- -- -- -- -- -- --  -- -- -- -- -- -- -- --
01C0:                1E F0 FF  FF 7F 1D 50 80 23 02 02       ......P.#..
01D0: 10 51 80 00 DE 01 03 00  00 51 80 01 E3 01 03 00  .Q.......Q......
01E0: 00 52 80 24 53 80 51 80  00 00 25 02 00 10 51 80  .R.$S.Q...%...Q.
01F0: 00 F9 01 06 01 10 01 55  02 02 00 10 54 80 00 1C  .......U....T...
0200: 02 66 55 80 30 D0 0E 01  30 D0 0E 01 70 61 73 30  .fU.0...0...pas0
0210: 1D 56 80 23 03 01 10 54  80 01 55 02 02 00 10 52  .V.#...T..U....R
0220: 80 00 55 02 1D 57 80 23  24 58 80 54 80 51 80 25  ..U..W.#$X.T.Q.%
0230: 02 00 10 51 80 00 44 02  1D 59 80 23 03 01 10 52  ...Q..D..Y.#...R
0240: 80 01 52 02 02 00 10 54  80 00 52 02 06 01 10 01  ..R....T..R.....
0250: 52 02 01 55 02 21 00                              R..U.!.         
```

#### Opcodes

```
  0: 0x01C5 [0x1E] EventEntity looks at LocalPlayer and starts talking
  1: 0x01CA [0x1D] PRINT_EVENT_MESSAGE(message_id=9013*)
    → "Is something wrong? Are you giving up so easily?"
  2: 0x01CD [0x23] WAIT_FOR_DIALOG_INTERACTION
  3: 0x01CE [0x02] IF !(Work_Zone[2] == 0*) GOTO 0x01DE
  4: 0x01D6 [0x03] ExtData[1]->WorkLocal[0] = 0*
  5: 0x01DB [0x01] GOTO 0x01E3
  6: 0x01DE [0x03] ExtData[1]->WorkLocal[0] = 2*

SUBROUTINE_01E3:
  7: 0x01E3 [0x24] CREATE_DIALOG(message_id=9014*, default_option=0*, option_flags=ExtData[1]->WorkLocal[0])
    → "What is wrong? [Nothing./I've lost the axe./I've decided to give up.]"
  8: 0x01EA [0x25] WAIT_DIALOG_SELECT()
  9: 0x01EB [0x02] IF !(Work_Zone[0] == 0*) GOTO 0x01F9
 10: 0x01F3 [0x06] Work_Zone[1] = 0
 11: 0x01F6 [0x01] GOTO 0x0255
 12: 0x01F9 [0x02] IF !(Work_Zone[0] == 1*) GOTO 0x021C
 13: 0x0201 [0x66] LOAD_EXT_SCHEDULER_MAIN: Load scheduler "pas0" with entities [Iron Eater (ID: 17748016/0x010ED030), Iron Eater (ID: 17748016/0x010ED030)], work=69*
 14: 0x0210 [0x1D] PRINT_EVENT_MESSAGE(message_id=9015*)
    → "And you call yourself an adventurer. You should learn to take better care of your property! Here, take this axe, and be more careful this time."
 15: 0x0213 [0x23] WAIT_FOR_DIALOG_INTERACTION
 16: 0x0214 [0x03] Work_Zone[1] = 1*
 17: 0x0219 [0x01] GOTO 0x0255
 18: 0x021C [0x02] IF !(Work_Zone[0] == 2*) GOTO 0x0255
 19: 0x0224 [0x1D] PRINT_EVENT_MESSAGE(message_id=9016*)
    → "Give up? After coming this far?"
 20: 0x0227 [0x23] WAIT_FOR_DIALOG_INTERACTION
 21: 0x0228 [0x24] CREATE_DIALOG(message_id=9017*, default_option=1*, option_flags=0*)
    → "Do you really want to give up? [Yes./Not just yet.]"
 22: 0x022F [0x25] WAIT_DIALOG_SELECT()
 23: 0x0230 [0x02] IF !(Work_Zone[0] == 0*) GOTO 0x0244
 24: 0x0238 [0x1D] PRINT_EVENT_MESSAGE(message_id=9018*)
    → "I see you were not ready for the task I offered you... Do what you wish with that axe. I have no need for it."
 25: 0x023B [0x23] WAIT_FOR_DIALOG_INTERACTION
 26: 0x023C [0x03] Work_Zone[1] = 2*
 27: 0x0241 [0x01] GOTO 0x0252
 28: 0x0244 [0x02] IF !(Work_Zone[0] == 1*) GOTO 0x0252
 29: 0x024C [0x06] Work_Zone[1] = 0
 30: 0x024F [0x01] GOTO 0x0252

SUBROUTINE_0252:
 31: 0x0252 [0x01] GOTO 0x0255

SUBROUTINE_0255:
 32: 0x0255 [0x21] END_EVENT
 33: 0x0256 [0x00] END_REQSTACK()
```

### Event 792

#### Metadata

| Field        | Value    |
|--------------|----------|
| Entrypoint   | 0x0257   |
| Data Size    | 12 bytes |
| Instructions | 6        |

```
      00 01 02 03 04 05 06 07  08 09 0A 0B 0C 0D 0E 0F
      -- -- -- -- -- -- -- --  -- -- -- -- -- -- -- --
0250:                      42  1E F0 FF FF 7F 1D 5A 80         B......Z.
0260: 23 21 00                                          #!.             
```

#### Opcodes

```
  0: 0x0257 [0x42] SET_CLI_EVENT_CANCEL_DATA()
  1: 0x0258 [0x1E] EventEntity looks at LocalPlayer and starts talking
  2: 0x025D [0x1D] PRINT_EVENT_MESSAGE(message_id=9019*)
    → "Your journey is not yet over, <Player>. There are still many roads that this axe has to lead you down."
  3: 0x0260 [0x23] WAIT_FOR_DIALOG_INTERACTION
  4: 0x0261 [0x21] END_EVENT
  5: 0x0262 [0x00] END_REQSTACK()
```

### Event 793

#### Metadata

| Field        | Value   |
|--------------|---------|
| Entrypoint   | 0x0263  |
| Data Size    | 1 bytes |
| Instructions | 1       |

```
      00 01 02 03 04 05 06 07  08 09 0A 0B 0C 0D 0E 0F
      -- -- -- -- -- -- -- --  -- -- -- -- -- -- -- --
0260:          00                                          .            
```

#### Opcodes

```
  0: 0x0263 [0x00] END_REQSTACK()
```

### Event 794

#### Metadata

| Field        | Value   |
|--------------|---------|
| Entrypoint   | 0x0264  |
| Data Size    | 1 bytes |
| Instructions | 1       |

```
      00 01 02 03 04 05 06 07  08 09 0A 0B 0C 0D 0E 0F
      -- -- -- -- -- -- -- --  -- -- -- -- -- -- -- --
0260:             00                                        .           
```

#### Opcodes

```
  0: 0x0264 [0x00] END_REQSTACK()
```

### Event 65535.19

#### Metadata

| Field        | Value    |
|--------------|----------|
| Entrypoint   | 0x0265   |
| Data Size    | 20 bytes |
| Instructions | 3        |

```
      00 01 02 03 04 05 06 07  08 09 0A 0B 0C 0D 0E 0F
      -- -- -- -- -- -- -- --  -- -- -- -- -- -- -- --
0260:                79 00 F8  FF FF 7F 7A D0 0E 01 37       y.....z...7
0270: 5B 80 5C 80 5D 80 5E 80  00                       [.\.].^..       
```

#### Opcodes

```
  0: 0x0265 [0x79] EventEntity looks at Werei (ID: 17748090/0x010ED07A) (Basic look)
  1: 0x026F [0x37] UPDATE_EVENT_POSITION_AND_DIR: x=23.542*, z=-4.225*, y=-13.999*, direction=169.5°*
  2: 0x0278 [0x00] END_REQSTACK()
```

### Event 805

#### Metadata

| Field        | Value   |
|--------------|---------|
| Entrypoint   | 0x0279  |
| Data Size    | 1 bytes |
| Instructions | 1       |

```
      00 01 02 03 04 05 06 07  08 09 0A 0B 0C 0D 0E 0F
      -- -- -- -- -- -- -- --  -- -- -- -- -- -- -- --
0270:                             00                             .      
```

#### Opcodes

```
  0: 0x0279 [0x00] END_REQSTACK()
```

### Event 829

#### Metadata

| Field        | Value   |
|--------------|---------|
| Entrypoint   | 0x027A  |
| Data Size    | 1 bytes |
| Instructions | 1       |

```
      00 01 02 03 04 05 06 07  08 09 0A 0B 0C 0D 0E 0F
      -- -- -- -- -- -- -- --  -- -- -- -- -- -- -- --
0270:                                00                           .     
```

#### Opcodes

```
  0: 0x027A [0x00] END_REQSTACK()
```

### Event 65535.20

#### Metadata

| Field        | Value    |
|--------------|----------|
| Entrypoint   | 0x027B   |
| Data Size    | 23 bytes |
| Instructions | 5        |

```
      00 01 02 03 04 05 06 07  08 09 0A 0B 0C 0D 0E 0F
      -- -- -- -- -- -- -- --  -- -- -- -- -- -- -- --
0270:                                   37 5F 80 60 80             7_.`.
0280: 48 80 61 80 32 05 80 1F  00 62 80 63 80 48 80 1F  H.a.2....b.c.H..
0290: 01 00                                             ..              
```

#### Opcodes

```
  0: 0x027B [0x37] UPDATE_EVENT_POSITION_AND_DIR: x=97.507*, z=1.409*, y=-20.181*, direction=17.8°*
  1: 0x0284 [0x32] ExtData[1]->MainSpeed = 13* * 0.1
  2: 0x0287 [0x1F] MOVE_ENTITY: EventEntity moves to X=99.267*, Z=1.327*, Y=-20.181*
  3: 0x028F [0x1F] MOVE_ENTITY: Update entity position (mode=1)
  4: 0x0291 [0x00] END_REQSTACK()
```

### Event 65535.21

#### Metadata

| Field        | Value    |
|--------------|----------|
| Entrypoint   | 0x0292   |
| Data Size    | 10 bytes |
| Instructions | 2        |

```
      00 01 02 03 04 05 06 07  08 09 0A 0B 0C 0D 0E 0F
      -- -- -- -- -- -- -- --  -- -- -- -- -- -- -- --
0290:       37 15 80 16 80 10  80 17 80 00                7.........    
```

#### Opcodes

```
  0: 0x0292 [0x37] UPDATE_EVENT_POSITION_AND_DIR: x=92.936*, z=1.814*, y=-19.532*, direction=122.5°*
  1: 0x029B [0x00] END_REQSTACK()
```

### Event 878

#### Metadata

| Field        | Value    |
|--------------|----------|
| Entrypoint   | 0x029C   |
| Data Size    | 30 bytes |
| Instructions | 8        |

```
      00 01 02 03 04 05 06 07  08 09 0A 0B 0C 0D 0E 0F
      -- -- -- -- -- -- -- --  -- -- -- -- -- -- -- --
0290:                                      1E F0 FF FF              ....
02A0: 7F 1D 64 80 23 66 55 80  30 D0 0E 01 30 D0 0E 01  ..d.#fU.0...0...
02B0: 74 77 61 30 1D 65 80 23  21 00                    twa0.e.#!.      
```

#### Opcodes

```
  0: 0x029C [0x1E] EventEntity looks at LocalPlayer and starts talking
  1: 0x02A1 [0x1D] PRINT_EVENT_MESSAGE(message_id=9516*)
    → "You will find there are not many people who are willing to speak of the Multinational Expedition."
  2: 0x02A4 [0x23] WAIT_FOR_DIALOG_INTERACTION
  3: 0x02A5 [0x66] LOAD_EXT_SCHEDULER_MAIN: Load scheduler "twa0" with entities [Iron Eater (ID: 17748016/0x010ED030), Iron Eater (ID: 17748016/0x010ED030)], work=69*
  4: 0x02B4 [0x1D] PRINT_EVENT_MESSAGE(message_id=9517*)
    → "Especially among us Galka..."
  5: 0x02B7 [0x23] WAIT_FOR_DIALOG_INTERACTION
  6: 0x02B8 [0x21] END_EVENT
  7: 0x02B9 [0x00] END_REQSTACK()
```

### Event 956

#### Metadata

| Field        | Value   |
|--------------|---------|
| Entrypoint   | 0x02BA  |
| Data Size    | 1 bytes |
| Instructions | 1       |

```
      00 01 02 03 04 05 06 07  08 09 0A 0B 0C 0D 0E 0F
      -- -- -- -- -- -- -- --  -- -- -- -- -- -- -- --
02B0:                                00                           .     
```

#### Opcodes

```
  0: 0x02BA [0x00] END_REQSTACK()
```

### Event 957

#### Metadata

| Field        | Value    |
|--------------|----------|
| Entrypoint   | 0x02BB   |
| Data Size    | 33 bytes |
| Instructions | 9        |

```
      00 01 02 03 04 05 06 07  08 09 0A 0B 0C 0D 0E 0F
      -- -- -- -- -- -- -- --  -- -- -- -- -- -- -- --
02B0:                                   1E F0 FF FF 7F             .....
02C0: 1C 0D 80 66 55 80 F8 FF  FF 7F F8 FF FF 7F 74 6C  ...fU.........tl
02D0: 6B 30 1D 66 80 23 1D 67  80 23 21 00              k0.f.#.g.#!.    
```

#### Opcodes

```
  0: 0x02BB [0x1E] EventEntity looks at LocalPlayer and starts talking
  1: 0x02C0 [0x1C] WAIT(30* ticks)
  2: 0x02C3 [0x66] LOAD_EXT_SCHEDULER_MAIN: Load scheduler "tlk0" with entities [EventEntity, EventEntity], work=69*
  3: 0x02D2 [0x1D] PRINT_EVENT_MESSAGE(message_id=10796*)
    → "Now that you mention it, he and Gumbah often used to travel to Grauberg."
  4: 0x02D5 [0x23] WAIT_FOR_DIALOG_INTERACTION
  5: 0x02D6 [0x1D] PRINT_EVENT_MESSAGE(message_id=10797*)
    → "What was it about that mountain...?"
  6: 0x02D9 [0x23] WAIT_FOR_DIALOG_INTERACTION
  7: 0x02DA [0x21] END_EVENT
  8: 0x02DB [0x00] END_REQSTACK()
```

### Event 968

#### Metadata

| Field        | Value   |
|--------------|---------|
| Entrypoint   | 0x02DC  |
| Data Size    | 1 bytes |
| Instructions | 1       |

```
      00 01 02 03 04 05 06 07  08 09 0A 0B 0C 0D 0E 0F
      -- -- -- -- -- -- -- --  -- -- -- -- -- -- -- --
02D0:                                      00                       .   
```

#### Opcodes

```
  0: 0x02DC [0x00] END_REQSTACK()
```

### Event 988

#### Metadata

| Field        | Value   |
|--------------|---------|
| Entrypoint   | 0x02DD  |
| Data Size    | 1 bytes |
| Instructions | 1       |

```
      00 01 02 03 04 05 06 07  08 09 0A 0B 0C 0D 0E 0F
      -- -- -- -- -- -- -- --  -- -- -- -- -- -- -- --
02D0:                                         00                     .  
```

#### Opcodes

```
  0: 0x02DD [0x00] END_REQSTACK()
```

### Event 989

#### Metadata

| Field        | Value    |
|--------------|----------|
| Entrypoint   | 0x02DE   |
| Data Size    | 49 bytes |
| Instructions | 12       |

```
      00 01 02 03 04 05 06 07  08 09 0A 0B 0C 0D 0E 0F
      -- -- -- -- -- -- -- --  -- -- -- -- -- -- -- --
02D0:                                            1E F0                ..
02E0: FF FF 7F 6F 70 66 55 80  F8 FF FF 7F F8 FF FF 7F  ...opfU.........
02F0: 74 68 6B 31 1D 68 80 23  1D 69 80 23 66 55 80 F8  thk1.h.#.i.#fU..
0300: FF FF 7F F8 FF FF 7F 74  68 6B 32 20 00 21 00     .......thk2 .!. 
```

#### Opcodes

```
  0: 0x02DE [0x1E] EventEntity looks at LocalPlayer and starts talking
  1: 0x02E3 [0x6F] WAIT_FRAME_DELAY: Yield until WaitTime reaches zero
  2: 0x02E4 [0x70] WAIT_ENTITY_RENDER_FLAG: Wait while EventEntity->Render.Flags3 bit 2 is set (cancel turn if not)
  3: 0x02E5 [0x66] LOAD_EXT_SCHEDULER_MAIN: Load scheduler "thk1" with entities [EventEntity, EventEntity], work=69*
  4: 0x02F4 [0x1D] PRINT_EVENT_MESSAGE(message_id=11057*)
    → "A document about this new "Trust Initiative"... What would the Jeuno Institute of Magical Studies want with me?"
  5: 0x02F7 [0x23] WAIT_FOR_DIALOG_INTERACTION
  6: 0x02F8 [0x1D] PRINT_EVENT_MESSAGE(message_id=11058*)
    → "On the surface, it does not seem particularly dangerous..."
  7: 0x02FB [0x23] WAIT_FOR_DIALOG_INTERACTION
  8: 0x02FC [0x66] LOAD_EXT_SCHEDULER_MAIN: Load scheduler "thk2" with entities [EventEntity, EventEntity], work=69*
  9: 0x030B [0x20] SET_CLI_EVENT_UC_FLAG: Unlock player control
 10: 0x030D [0x21] END_EVENT
 11: 0x030E [0x00] END_REQSTACK()
```

### Event 1051

#### Metadata

| Field        | Value   |
|--------------|---------|
| Entrypoint   | 0x030F  |
| Data Size    | 7 bytes |
| Instructions | 2       |

```
      00 01 02 03 04 05 06 07  08 09 0A 0B 0C 0D 0E 0F
      -- -- -- -- -- -- -- --  -- -- -- -- -- -- -- --
0300:                                               92                 .
0310: 01 F8 FF FF 7F 00                                 ......          
```

#### Opcodes

```
  0: 0x030F [0x92] EventEntity->Render.Flags3 ^= 0x01
  1: 0x0315 [0x00] END_REQSTACK()
```

### Event 65535.22

#### Metadata

| Field        | Value    |
|--------------|----------|
| Entrypoint   | 0x0316   |
| Data Size    | 16 bytes |
| Instructions | 2        |

```
      00 01 02 03 04 05 06 07  08 09 0A 0B 0C 0D 0E 0F
      -- -- -- -- -- -- -- --  -- -- -- -- -- -- -- --
0310:                   66 55  80 F8 FF FF 7F F8 FF FF        fU........
0320: 7F 74 6C 6B 30 00                                 .tlk0.          
```

#### Opcodes

```
  0: 0x0316 [0x66] LOAD_EXT_SCHEDULER_MAIN: Load scheduler "tlk0" with entities [EventEntity, EventEntity], work=69*
  1: 0x0325 [0x00] END_REQSTACK()
```

### Event 65535.23

#### Metadata

| Field        | Value    |
|--------------|----------|
| Entrypoint   | 0x0326   |
| Data Size    | 14 bytes |
| Instructions | 2        |

```
      00 01 02 03 04 05 06 07  08 09 0A 0B 0C 0D 0E 0F
      -- -- -- -- -- -- -- --  -- -- -- -- -- -- -- --
0320:                   53 F8  FF FF 7F F8 FF FF 7F 74        S........t
0330: 6C 6B 30 00                                       lk0.            
```

#### Opcodes

```
  0: 0x0326 [0x53] WAIT_SCHEDULER_TASK: Wait for scheduler "tlk0" with entities [EventEntity, EventEntity]
  1: 0x0333 [0x00] END_REQSTACK()
```

### Event 65535.24

#### Metadata

| Field        | Value    |
|--------------|----------|
| Entrypoint   | 0x0334   |
| Data Size    | 16 bytes |
| Instructions | 2        |

```
      00 01 02 03 04 05 06 07  08 09 0A 0B 0C 0D 0E 0F
      -- -- -- -- -- -- -- --  -- -- -- -- -- -- -- --
0330:             66 55 80 F8  FF FF 7F F8 FF FF 7F 74      fU.........t
0340: 6C 6B 31 00                                       lk1.            
```

#### Opcodes

```
  0: 0x0334 [0x66] LOAD_EXT_SCHEDULER_MAIN: Load scheduler "tlk1" with entities [EventEntity, EventEntity], work=69*
  1: 0x0343 [0x00] END_REQSTACK()
```

### Event 65535.25

#### Metadata

| Field        | Value    |
|--------------|----------|
| Entrypoint   | 0x0344   |
| Data Size    | 14 bytes |
| Instructions | 2        |

```
      00 01 02 03 04 05 06 07  08 09 0A 0B 0C 0D 0E 0F
      -- -- -- -- -- -- -- --  -- -- -- -- -- -- -- --
0340:             53 F8 FF FF  7F F8 FF FF 7F 74 6C 6B      S........tlk
0350: 31 00                                             1.              
```

#### Opcodes

```
  0: 0x0344 [0x53] WAIT_SCHEDULER_TASK: Wait for scheduler "tlk1" with entities [EventEntity, EventEntity]
  1: 0x0351 [0x00] END_REQSTACK()
```

### Event 65535.26

#### Metadata

| Field        | Value    |
|--------------|----------|
| Entrypoint   | 0x0352   |
| Data Size    | 16 bytes |
| Instructions | 2        |

```
      00 01 02 03 04 05 06 07  08 09 0A 0B 0C 0D 0E 0F
      -- -- -- -- -- -- -- --  -- -- -- -- -- -- -- --
0350:       66 6A 80 F8 FF FF  7F F8 FF FF 7F 70 61 73    fj.........pas
0360: 30 00                                             0.              
```

#### Opcodes

```
  0: 0x0352 [0x66] LOAD_EXT_SCHEDULER_MAIN: Load scheduler "pas0" with entities [EventEntity, EventEntity], work=131*
  1: 0x0361 [0x00] END_REQSTACK()
```

### Event 65535.27

#### Metadata

| Field        | Value    |
|--------------|----------|
| Entrypoint   | 0x0362   |
| Data Size    | 14 bytes |
| Instructions | 2        |

```
      00 01 02 03 04 05 06 07  08 09 0A 0B 0C 0D 0E 0F
      -- -- -- -- -- -- -- --  -- -- -- -- -- -- -- --
0360:       53 F8 FF FF 7F F8  FF FF 7F 70 61 73 30 00    S........pas0.
```

#### Opcodes

```
  0: 0x0362 [0x53] WAIT_SCHEDULER_TASK: Wait for scheduler "pas0" with entities [EventEntity, EventEntity]
  1: 0x036F [0x00] END_REQSTACK()
```

### Event 65535.28

#### Metadata

| Field        | Value    |
|--------------|----------|
| Entrypoint   | 0x0370   |
| Data Size    | 16 bytes |
| Instructions | 2        |

```
      00 01 02 03 04 05 06 07  08 09 0A 0B 0C 0D 0E 0F
      -- -- -- -- -- -- -- --  -- -- -- -- -- -- -- --
0370: 66 55 80 F8 FF FF 7F F8  FF FF 7F 74 68 6B 31 00  fU.........thk1.
```

#### Opcodes

```
  0: 0x0370 [0x66] LOAD_EXT_SCHEDULER_MAIN: Load scheduler "thk1" with entities [EventEntity, EventEntity], work=69*
  1: 0x037F [0x00] END_REQSTACK()
```

### Event 65535.29

#### Metadata

| Field        | Value    |
|--------------|----------|
| Entrypoint   | 0x0380   |
| Data Size    | 14 bytes |
| Instructions | 2        |

```
      00 01 02 03 04 05 06 07  08 09 0A 0B 0C 0D 0E 0F
      -- -- -- -- -- -- -- --  -- -- -- -- -- -- -- --
0380: 53 F8 FF FF 7F F8 FF FF  7F 74 68 6B 31 00        S........thk1.  
```

#### Opcodes

```
  0: 0x0380 [0x53] WAIT_SCHEDULER_TASK: Wait for scheduler "thk1" with entities [EventEntity, EventEntity]
  1: 0x038D [0x00] END_REQSTACK()
```

### Event 65535.30

#### Metadata

| Field        | Value    |
|--------------|----------|
| Entrypoint   | 0x038E   |
| Data Size    | 16 bytes |
| Instructions | 2        |

```
      00 01 02 03 04 05 06 07  08 09 0A 0B 0C 0D 0E 0F
      -- -- -- -- -- -- -- --  -- -- -- -- -- -- -- --
0380:                                            66 55                fU
0390: 80 F8 FF FF 7F F8 FF FF  7F 74 68 6B 32 00        .........thk2.  
```

#### Opcodes

```
  0: 0x038E [0x66] LOAD_EXT_SCHEDULER_MAIN: Load scheduler "thk2" with entities [EventEntity, EventEntity], work=69*
  1: 0x039D [0x00] END_REQSTACK()
```

### Event 65535.31

#### Metadata

| Field        | Value    |
|--------------|----------|
| Entrypoint   | 0x039E   |
| Data Size    | 14 bytes |
| Instructions | 2        |

```
      00 01 02 03 04 05 06 07  08 09 0A 0B 0C 0D 0E 0F
      -- -- -- -- -- -- -- --  -- -- -- -- -- -- -- --
0390:                                            53 F8                S.
03A0: FF FF 7F F8 FF FF 7F 74  68 6B 32 00              .......thk2.    
```

#### Opcodes

```
  0: 0x039E [0x53] WAIT_SCHEDULER_TASK: Wait for scheduler "thk2" with entities [EventEntity, EventEntity]
  1: 0x03AB [0x00] END_REQSTACK()
```

### Event 65535.32

#### Metadata

| Field        | Value    |
|--------------|----------|
| Entrypoint   | 0x03AC   |
| Data Size    | 16 bytes |
| Instructions | 4        |

```
      00 01 02 03 04 05 06 07  08 09 0A 0B 0C 0D 0E 0F
      -- -- -- -- -- -- -- --  -- -- -- -- -- -- -- --
03A0:                                      6E F8 FF FF              n...
03B0: 7F 6B 80 99 F8 FF FF 7F  1C 6C 80 00              .k.......l..    
```

#### Opcodes

```
  0: 0x03AC [0x6E] EventEntity uses emote 21*
  1: 0x03B3 [0x99] Wait for EventEntity animation to complete
  2: 0x03B8 [0x1C] WAIT(60* ticks)
  3: 0x03BB [0x00] END_REQSTACK()
```

### Event 65535.33

#### Metadata

| Field        | Value    |
|--------------|----------|
| Entrypoint   | 0x03BC   |
| Data Size    | 16 bytes |
| Instructions | 4        |

```
      00 01 02 03 04 05 06 07  08 09 0A 0B 0C 0D 0E 0F
      -- -- -- -- -- -- -- --  -- -- -- -- -- -- -- --
03B0:                                      6E F8 FF FF              n...
03C0: 7F 6D 80 99 F8 FF FF 7F  1C 6C 80 00              .m.......l..    
```

#### Opcodes

```
  0: 0x03BC [0x6E] EventEntity uses emote 7*
  1: 0x03C3 [0x99] Wait for EventEntity animation to complete
  2: 0x03C8 [0x1C] WAIT(60* ticks)
  3: 0x03CB [0x00] END_REQSTACK()
```

### Event 65535.34

#### Metadata

| Field        | Value    |
|--------------|----------|
| Entrypoint   | 0x03CC   |
| Data Size    | 16 bytes |
| Instructions | 4        |

```
      00 01 02 03 04 05 06 07  08 09 0A 0B 0C 0D 0E 0F
      -- -- -- -- -- -- -- --  -- -- -- -- -- -- -- --
03C0:                                      6E F8 FF FF              n...
03D0: 7F 6E 80 99 F8 FF FF 7F  1C 6C 80 00              .n.......l..    
```

#### Opcodes

```
  0: 0x03CC [0x6E] EventEntity uses emote 6*
  1: 0x03D3 [0x99] Wait for EventEntity animation to complete
  2: 0x03D8 [0x1C] WAIT(60* ticks)
  3: 0x03DB [0x00] END_REQSTACK()
```

### Event 65535.35

#### Metadata

| Field        | Value    |
|--------------|----------|
| Entrypoint   | 0x03DC   |
| Data Size    | 16 bytes |
| Instructions | 4        |

```
      00 01 02 03 04 05 06 07  08 09 0A 0B 0C 0D 0E 0F
      -- -- -- -- -- -- -- --  -- -- -- -- -- -- -- --
03D0:                                      6E F8 FF FF              n...
03E0: 7F 6F 80 99 F8 FF FF 7F  1C 6C 80 00              .o.......l..    
```

#### Opcodes

```
  0: 0x03DC [0x6E] EventEntity uses emote 11*
  1: 0x03E3 [0x99] Wait for EventEntity animation to complete
  2: 0x03E8 [0x1C] WAIT(60* ticks)
  3: 0x03EB [0x00] END_REQSTACK()
```

### Event 65535.36

#### Metadata

| Field        | Value    |
|--------------|----------|
| Entrypoint   | 0x03EC   |
| Data Size    | 16 bytes |
| Instructions | 4        |

```
      00 01 02 03 04 05 06 07  08 09 0A 0B 0C 0D 0E 0F
      -- -- -- -- -- -- -- --  -- -- -- -- -- -- -- --
03E0:                                      6E F8 FF FF              n...
03F0: 7F 70 80 99 F8 FF FF 7F  1C 6C 80 00              .p.......l..    
```

#### Opcodes

```
  0: 0x03EC [0x6E] EventEntity uses emote 14*
  1: 0x03F3 [0x99] Wait for EventEntity animation to complete
  2: 0x03F8 [0x1C] WAIT(60* ticks)
  3: 0x03FB [0x00] END_REQSTACK()
```

### Event 65535.37

#### Metadata

| Field        | Value    |
|--------------|----------|
| Entrypoint   | 0x03FC   |
| Data Size    | 16 bytes |
| Instructions | 4        |

```
      00 01 02 03 04 05 06 07  08 09 0A 0B 0C 0D 0E 0F
      -- -- -- -- -- -- -- --  -- -- -- -- -- -- -- --
03F0:                                      6E F8 FF FF              n...
0400: 7F 71 80 99 F8 FF FF 7F  1C 6C 80 00              .q.......l..    
```

#### Opcodes

```
  0: 0x03FC [0x6E] EventEntity uses emote 4*
  1: 0x0403 [0x99] Wait for EventEntity animation to complete
  2: 0x0408 [0x1C] WAIT(60* ticks)
  3: 0x040B [0x00] END_REQSTACK()
```

### Event 65535.38

#### Metadata

| Field        | Value    |
|--------------|----------|
| Entrypoint   | 0x040C   |
| Data Size    | 16 bytes |
| Instructions | 4        |

```
      00 01 02 03 04 05 06 07  08 09 0A 0B 0C 0D 0E 0F
      -- -- -- -- -- -- -- --  -- -- -- -- -- -- -- --
0400:                                      6E F8 FF FF              n...
0410: 7F 72 80 99 F8 FF FF 7F  1C 6C 80 00              .r.......l..    
```

#### Opcodes

```
  0: 0x040C [0x6E] EventEntity uses emote 19*
  1: 0x0413 [0x99] Wait for EventEntity animation to complete
  2: 0x0418 [0x1C] WAIT(60* ticks)
  3: 0x041B [0x00] END_REQSTACK()
```

### Event 65535.39

#### Metadata

| Field        | Value    |
|--------------|----------|
| Entrypoint   | 0x041C   |
| Data Size    | 16 bytes |
| Instructions | 4        |

```
      00 01 02 03 04 05 06 07  08 09 0A 0B 0C 0D 0E 0F
      -- -- -- -- -- -- -- --  -- -- -- -- -- -- -- --
0410:                                      6E F8 FF FF              n...
0420: 7F 73 80 99 F8 FF FF 7F  1C 6C 80 00              .s.......l..    
```

#### Opcodes

```
  0: 0x041C [0x6E] EventEntity uses emote 12*
  1: 0x0423 [0x99] Wait for EventEntity animation to complete
  2: 0x0428 [0x1C] WAIT(60* ticks)
  3: 0x042B [0x00] END_REQSTACK()
```

### Event 65535.40

#### Metadata

| Field        | Value    |
|--------------|----------|
| Entrypoint   | 0x042C   |
| Data Size    | 16 bytes |
| Instructions | 4        |

```
      00 01 02 03 04 05 06 07  08 09 0A 0B 0C 0D 0E 0F
      -- -- -- -- -- -- -- --  -- -- -- -- -- -- -- --
0420:                                      6E F8 FF FF              n...
0430: 7F 73 80 99 F8 FF FF 7F  1C 6C 80 00              .s.......l..    
```

#### Opcodes

```
  0: 0x042C [0x6E] EventEntity uses emote 12*
  1: 0x0433 [0x99] Wait for EventEntity animation to complete
  2: 0x0438 [0x1C] WAIT(60* ticks)
  3: 0x043B [0x00] END_REQSTACK()
```

### Event 65535.41

#### Metadata

| Field        | Value    |
|--------------|----------|
| Entrypoint   | 0x043C   |
| Data Size    | 16 bytes |
| Instructions | 4        |

```
      00 01 02 03 04 05 06 07  08 09 0A 0B 0C 0D 0E 0F
      -- -- -- -- -- -- -- --  -- -- -- -- -- -- -- --
0430:                                      6E F8 FF FF              n...
0440: 7F 74 80 99 F8 FF FF 7F  1C 6C 80 00              .t.......l..    
```

#### Opcodes

```
  0: 0x043C [0x6E] EventEntity uses emote 29*
  1: 0x0443 [0x99] Wait for EventEntity animation to complete
  2: 0x0448 [0x1C] WAIT(60* ticks)
  3: 0x044B [0x00] END_REQSTACK()
```

### Event 65535.42

#### Metadata

| Field        | Value   |
|--------------|---------|
| Entrypoint   | 0x044C  |
| Data Size    | 9 bytes |
| Instructions | 3       |

```
      00 01 02 03 04 05 06 07  08 09 0A 0B 0C 0D 0E 0F
      -- -- -- -- -- -- -- --  -- -- -- -- -- -- -- --
0440:                                      5E 69 64 6C              ^idl
0450: 30 1C 6C 80 00                                    0.l..           
```

#### Opcodes

```
  0: 0x044C [0x5E] EventEntity goes idle (kills current action) (animation: "idl0")
  1: 0x0451 [0x1C] WAIT(60* ticks)
  2: 0x0454 [0x00] END_REQSTACK()
```

### Event 65535.43

#### Metadata

| Field        | Value    |
|--------------|----------|
| Entrypoint   | 0x0455   |
| Data Size    | 15 bytes |
| Instructions | 5        |

```
      00 01 02 03 04 05 06 07  08 09 0A 0B 0C 0D 0E 0F
      -- -- -- -- -- -- -- --  -- -- -- -- -- -- -- --
0450:                32 05 80  1F 00 75 80 76 80 10 80       2....u.v...
0460: 1F 01 6F 00                                       ..o.            
```

#### Opcodes

```
  0: 0x0455 [0x32] ExtData[1]->MainSpeed = 13* * 0.1
  1: 0x0458 [0x1F] MOVE_ENTITY: EventEntity moves to X=90.170*, Z=1.072*, Y=-19.532*
  2: 0x0460 [0x1F] MOVE_ENTITY: Update entity position (mode=1)
  3: 0x0462 [0x6F] WAIT_FRAME_DELAY: Yield until WaitTime reaches zero
  4: 0x0463 [0x00] END_REQSTACK()
```

### Event 1052

#### Metadata

| Field        | Value   |
|--------------|---------|
| Entrypoint   | 0x0464  |
| Data Size    | 7 bytes |
| Instructions | 2       |

```
      00 01 02 03 04 05 06 07  08 09 0A 0B 0C 0D 0E 0F
      -- -- -- -- -- -- -- --  -- -- -- -- -- -- -- --
0460:             92 01 F8 FF  FF 7F 00                     .......     
```

#### Opcodes

```
  0: 0x0464 [0x92] EventEntity->Render.Flags3 ^= 0x01
  1: 0x046A [0x00] END_REQSTACK()
```

### Event 65535.44

#### Metadata

| Field        | Value    |
|--------------|----------|
| Entrypoint   | 0x046B   |
| Data Size    | 15 bytes |
| Instructions | 5        |

```
      00 01 02 03 04 05 06 07  08 09 0A 0B 0C 0D 0E 0F
      -- -- -- -- -- -- -- --  -- -- -- -- -- -- -- --
0460:                                   32 05 80 1F 00             2....
0470: 75 80 76 80 10 80 1F 01  6F 00                    u.v.....o.      
```

#### Opcodes

```
  0: 0x046B [0x32] ExtData[1]->MainSpeed = 13* * 0.1
  1: 0x046E [0x1F] MOVE_ENTITY: EventEntity moves to X=90.170*, Z=1.072*, Y=-19.532*
  2: 0x0476 [0x1F] MOVE_ENTITY: Update entity position (mode=1)
  3: 0x0478 [0x6F] WAIT_FRAME_DELAY: Yield until WaitTime reaches zero
  4: 0x0479 [0x00] END_REQSTACK()
```

### Event 65535.45

#### Metadata

| Field        | Value    |
|--------------|----------|
| Entrypoint   | 0x047A   |
| Data Size    | 17 bytes |
| Instructions | 6        |

```
      00 01 02 03 04 05 06 07  08 09 0A 0B 0C 0D 0E 0F
      -- -- -- -- -- -- -- --  -- -- -- -- -- -- -- --
0470:                                32 05 80 1F 00 77            2....w
0480: 80 78 80 79 80 1F 01 6F  22 01 00                 .x.y...o"..     
```

#### Opcodes

```
  0: 0x047A [0x32] ExtData[1]->MainSpeed = 13* * 0.1
  1: 0x047D [0x1F] MOVE_ENTITY: EventEntity moves to X=76.366*, Z=1.045*, Y=-19.250*
  2: 0x0485 [0x1F] MOVE_ENTITY: Update entity position (mode=1)
  3: 0x0487 [0x6F] WAIT_FRAME_DELAY: Yield until WaitTime reaches zero
  4: 0x0488 [0x22] ENTITY_HIDE_FLAG(enabled=0x01)
  5: 0x048A [0x00] END_REQSTACK()
```

### Event 1055

#### Metadata

| Field        | Value   |
|--------------|---------|
| Entrypoint   | 0x048B  |
| Data Size    | 1 bytes |
| Instructions | 1       |

```
      00 01 02 03 04 05 06 07  08 09 0A 0B 0C 0D 0E 0F
      -- -- -- -- -- -- -- --  -- -- -- -- -- -- -- --
0480:                                   00                         .    
```

#### Opcodes

```
  0: 0x048B [0x00] END_REQSTACK()
```
