# 17748123 - Tenzen

## Common Data

| Field            | Value                |
|------------------|----------------------|
| Zone             | Metalworks (ID: 237) |
| Block Size       | 712 bytes            |
| Total Events     | 23                   |
| References Count | 58                   |

## List of Events

| Event ID                   | Entrypoint   |   Size |   Instructions |
|----------------------------|--------------|--------|----------------|
| [65535](#event-65535)      | 0x0000       |      7 |              2 |
| [849](#event-849)          | 0x0007       |     10 |              2 |
| [65535.1](#event-655351)   | 0x0011       |     50 |             11 |
| [65535.2](#event-655352)   | 0x0043       |     34 |              7 |
| [65535.3](#event-655353)   | 0x0065       |     19 |              5 |
| [65535.4](#event-655354)   | 0x0078       |     26 |              7 |
| [850](#event-850)          | 0x0092       |     10 |              2 |
| [65535.5](#event-655355)   | 0x009C       |     18 |              6 |
| [65535.6](#event-655356)   | 0x00AE       |     15 |              5 |
| [854](#event-854)          | 0x00BD       |     10 |              2 |
| [65535.7](#event-655357)   | 0x00C7       |     20 |              7 |
| [65535.8](#event-655358)   | 0x00DB       |     26 |              7 |
| [856](#event-856)          | 0x00F5       |     10 |              2 |
| [857](#event-857)          | 0x00FF       |     10 |              2 |
| [65535.9](#event-655359)   | 0x0109       |     15 |              5 |
| [65535.10](#event-6553510) | 0x0118       |     26 |              7 |
| [897](#event-897)          | 0x0132       |      1 |              1 |
| [898](#event-898)          | 0x0133       |      1 |              1 |
| [65535.11](#event-6553511) | 0x0134       |     10 |              2 |
| [65535.12](#event-6553512) | 0x013E       |     10 |              2 |
| [65535.13](#event-6553513) | 0x0148       |     19 |              3 |
| [65535.14](#event-6553514) | 0x015B       |     10 |              2 |
| [65535.15](#event-6553515) | 0x0165       |     15 |              5 |

## DAT References (imed_data)

|   Index | Hex Value   |   Dec Value |
|---------|-------------|-------------|
|       0 | 0xFFFF6519  |  4294927641 |
|       1 | 0xFFFFF996  |  4294965654 |
|       2 | 0xFFFFD8F1  |  4294957297 |
|       3 | 0x0FD6      |        4054 |
|       4 | 0x003C      |          60 |
|       5 | 0x000D      |          13 |
|       6 | 0xFFFF8C73  |  4294937715 |
|       7 | 0xFFFFF915  |  4294965525 |
|       8 | 0xFFFF976F  |  4294940527 |
|       9 | 0xFFFFF2A8  |  4294963880 |
|      10 | 0xFFFFA06A  |  4294942826 |
|      11 | 0xFFFFF3D4  |  4294964180 |
|      12 | 0x0E63      |        3683 |
|      13 | 0xFFFFAC37  |  4294945847 |
|      14 | 0xFFFFF7C0  |  4294965184 |
|      15 | 0x0028      |          40 |
|      16 | 0xFFFFA207  |  4294943239 |
|      17 | 0xFFFFF691  |  4294964881 |
|      18 | 0xFFFF6FCD  |  4294930381 |
|      19 | 0xFFFFF95B  |  4294965595 |
|      20 | 0xFFFF6072  |  4294926450 |
|      21 | 0xFFFFE98B  |  4294961547 |
|      22 | 0xFFFFCB53  |  4294953811 |
|      23 | 0xFFFFEC0E  |  4294962190 |
|      24 | 0xFFFFD514  |  4294956308 |
|      25 | 0x0D8C      |        3468 |
|      26 | 0xFFFFCD3B  |  4294954299 |
|      27 | 0xFFFFF410  |  4294964240 |
|      28 | 0x0B86      |        2950 |
|      29 | 0xFFFF71D3  |  4294930899 |
|      30 | 0xFFFFF9C5  |  4294965701 |
|      31 | 0x0F8D      |        3981 |
|      32 | 0x000A      |          10 |
|      33 | 0xFFFFA077  |  4294942839 |
|      34 | 0xFFFFF8C0  |  4294965440 |
|      35 | 0x17504     |       95492 |
|      36 | 0x38B6      |       14518 |
|      37 | 0xFFFFB127  |  4294947111 |
|      38 | 0x03F7      |        1015 |
|      39 | 0xFFFF8EE1  |  4294938337 |
|      40 | 0xFFFFF7CA  |  4294965194 |
|      41 | 0x0019      |          25 |
|      42 | 0xFFFFA651  |  4294944337 |
|      43 | 0x20735     |      132917 |
|      44 | 0xFFFEB020  |  4294881312 |
|      45 | 0x238D      |        9101 |
|      46 | 0x00AF      |         175 |
|      47 | 0x20447     |      132167 |
|      48 | 0xFFFEB2ED  |  4294882029 |
|      49 | 0x09F6      |        2550 |
|      50 | 0x005A      |          90 |
|      51 | 0x01AA      |         426 |
|      52 | 0xFFFFAAB0  |  4294945456 |
|      53 | 0x3701      |       14081 |
|      54 | 0xFFFFF31C  |  4294963996 |
|      55 | 0x0000      |           0 |
|      56 | 0xFFFF892E  |  4294936878 |
|      57 | 0x379F      |       14239 |

## Events

### Event 65535

#### Metadata

| Field        | Value   |
|--------------|---------|
| Entrypoint   | 0x0000  |
| Data Size    | 7 bytes |
| Instructions | 2       |

```
      00 01 02 03 04 05 06 07  08 09 0A 0B 0C 0D 0E 0F
      -- -- -- -- -- -- -- --  -- -- -- -- -- -- -- --
0000: 92 01 F8 FF FF 7F 00                              .......         
```

#### Opcodes

```
  0: 0x0000 [0x92] EventEntity->Render.Flags3 ^= 0x01
  1: 0x0006 [0x00] END_REQSTACK()
```

### Event 849

#### Metadata

| Field        | Value    |
|--------------|----------|
| Entrypoint   | 0x0007   |
| Data Size    | 10 bytes |
| Instructions | 2        |

```
      00 01 02 03 04 05 06 07  08 09 0A 0B 0C 0D 0E 0F
      -- -- -- -- -- -- -- --  -- -- -- -- -- -- -- --
0000:                      37  00 80 01 80 02 80 03 80         7........
0010: 00                                                .               
```

#### Opcodes

```
  0: 0x0007 [0x37] UPDATE_EVENT_POSITION_AND_DIR: x=-39.655*, z=-1.642*, y=-9.999*, direction=356.3°*
  1: 0x0010 [0x00] END_REQSTACK()
```

### Event 65535.1

#### Metadata

| Field        | Value    |
|--------------|----------|
| Entrypoint   | 0x0011   |
| Data Size    | 50 bytes |
| Instructions | 11       |

```
      00 01 02 03 04 05 06 07  08 09 0A 0B 0C 0D 0E 0F
      -- -- -- -- -- -- -- --  -- -- -- -- -- -- -- --
0010:    1C 04 80 33 01 32 05  80 79 00 F8 FF FF 7F 2C   ...3.2..y.....,
0020: D0 0E 01 1F 00 06 80 07  80 02 80 1F 01 79 00 2C  .............y.,
0030: D0 0E 01 F8 FF FF 7F 1F  00 08 80 09 80 02 80 1F  ................
0040: 01 6F 00                                          .o.             
```

#### Opcodes

```
  0: 0x0011 [0x1C] WAIT(60* ticks)
  1: 0x0014 [0x33] EventEntity->Render.Flags0 |= 0x200000 // Bit 21 (flag=0x01)
  2: 0x0016 [0x32] ExtData[1]->MainSpeed = 13* * 0.1
  3: 0x0019 [0x79] EventEntity looks at Raibaht (ID: 17748012/0x010ED02C) (Basic look)
  4: 0x0023 [0x1F] MOVE_ENTITY: EventEntity moves to X=-29.581*, Z=-1.771*, Y=-9.999*
  5: 0x002B [0x1F] MOVE_ENTITY: Update entity position (mode=1)
  6: 0x002D [0x79] Raibaht (ID: 17748012/0x010ED02C) looks at EventEntity (Basic look)
  7: 0x0037 [0x1F] MOVE_ENTITY: EventEntity moves to X=-26.769*, Z=-3.416*, Y=-9.999*
  8: 0x003F [0x1F] MOVE_ENTITY: Update entity position (mode=1)
  9: 0x0041 [0x6F] WAIT_FRAME_DELAY: Yield until WaitTime reaches zero
 10: 0x0042 [0x00] END_REQSTACK()
```

### Event 65535.2

#### Metadata

| Field        | Value    |
|--------------|----------|
| Entrypoint   | 0x0043   |
| Data Size    | 34 bytes |
| Instructions | 7        |

```
      00 01 02 03 04 05 06 07  08 09 0A 0B 0C 0D 0E 0F
      -- -- -- -- -- -- -- --  -- -- -- -- -- -- -- --
0040:          32 05 80 79 00  F8 FF FF 7F 2B D0 0E 01     2..y.....+...
0050: 37 0A 80 0B 80 02 80 0C  80 1F 00 0D 80 0E 80 02  7...............
0060: 80 1F 01 6F 00                                    ...o.           
```

#### Opcodes

```
  0: 0x0043 [0x32] ExtData[1]->MainSpeed = 13* * 0.1
  1: 0x0046 [0x79] EventEntity looks at Cid (ID: 17748011/0x010ED02B) (Basic look)
  2: 0x0050 [0x37] UPDATE_EVENT_POSITION_AND_DIR: x=-24.470*, z=-3.116*, y=-9.999*, direction=323.7°*
  3: 0x0059 [0x1F] MOVE_ENTITY: EventEntity moves to X=-21.449*, Z=-2.112*, Y=-9.999*
  4: 0x0061 [0x1F] MOVE_ENTITY: Update entity position (mode=1)
  5: 0x0063 [0x6F] WAIT_FRAME_DELAY: Yield until WaitTime reaches zero
  6: 0x0064 [0x00] END_REQSTACK()
```

### Event 65535.3

#### Metadata

| Field        | Value    |
|--------------|----------|
| Entrypoint   | 0x0065   |
| Data Size    | 19 bytes |
| Instructions | 5        |

```
      00 01 02 03 04 05 06 07  08 09 0A 0B 0C 0D 0E 0F
      -- -- -- -- -- -- -- --  -- -- -- -- -- -- -- --
0060:                7B 9B D0  0E 01 32 0F 80 1F 00 10       {....2.....
0070: 80 11 80 02 80 1F 01 00                           ........        
```

#### Opcodes

```
  0: 0x0065 [0x7B] Tenzen (ID: 17748123/0x010ED09B) stops talking
  1: 0x006A [0x32] ExtData[1]->MainSpeed = 40* * 0.1
  2: 0x006D [0x1F] MOVE_ENTITY: EventEntity moves to X=-24.057*, Z=-2.415*, Y=-9.999*
  3: 0x0075 [0x1F] MOVE_ENTITY: Update entity position (mode=1)
  4: 0x0077 [0x00] END_REQSTACK()
```

### Event 65535.4

#### Metadata

| Field        | Value    |
|--------------|----------|
| Entrypoint   | 0x0078   |
| Data Size    | 26 bytes |
| Instructions | 7        |

```
      00 01 02 03 04 05 06 07  08 09 0A 0B 0C 0D 0E 0F
      -- -- -- -- -- -- -- --  -- -- -- -- -- -- -- --
0070:                          32 0F 80 1F 00 12 80 13          2.......
0080: 80 02 80 1F 01 1F 00 14  80 15 80 02 80 1F 01 22  ..............."
0090: 01 00                                             ..              
```

#### Opcodes

```
  0: 0x0078 [0x32] ExtData[1]->MainSpeed = 40* * 0.1
  1: 0x007B [0x1F] MOVE_ENTITY: EventEntity moves to X=-36.915*, Z=-1.701*, Y=-9.999*
  2: 0x0083 [0x1F] MOVE_ENTITY: Update entity position (mode=1)
  3: 0x0085 [0x1F] MOVE_ENTITY: EventEntity moves to X=-40.846*, Z=-5.749*, Y=-9.999*
  4: 0x008D [0x1F] MOVE_ENTITY: Update entity position (mode=1)
  5: 0x008F [0x22] ENTITY_HIDE_FLAG(enabled=0x01)
  6: 0x0091 [0x00] END_REQSTACK()
```

### Event 850

#### Metadata

| Field        | Value    |
|--------------|----------|
| Entrypoint   | 0x0092   |
| Data Size    | 10 bytes |
| Instructions | 2        |

```
      00 01 02 03 04 05 06 07  08 09 0A 0B 0C 0D 0E 0F
      -- -- -- -- -- -- -- --  -- -- -- -- -- -- -- --
0090:       37 16 80 17 80 18  80 19 80 00                7.........    
```

#### Opcodes

```
  0: 0x0092 [0x37] UPDATE_EVENT_POSITION_AND_DIR: x=-13.485*, z=-5.106*, y=-10.988*, direction=304.8°*
  1: 0x009B [0x00] END_REQSTACK()
```

### Event 65535.5

#### Metadata

| Field        | Value    |
|--------------|----------|
| Entrypoint   | 0x009C   |
| Data Size    | 18 bytes |
| Instructions | 6        |

```
      00 01 02 03 04 05 06 07  08 09 0A 0B 0C 0D 0E 0F
      -- -- -- -- -- -- -- --  -- -- -- -- -- -- -- --
0090:                                      32 05 80 1F              2...
00A0: 00 1A 80 1B 80 18 80 1F  01 6F 39 1C 80 00        .........o9...  
```

#### Opcodes

```
  0: 0x009C [0x32] ExtData[1]->MainSpeed = 13* * 0.1
  1: 0x009F [0x1F] MOVE_ENTITY: EventEntity moves to X=-12.997*, Z=-3.056*, Y=-10.988*
  2: 0x00A7 [0x1F] MOVE_ENTITY: Update entity position (mode=1)
  3: 0x00A9 [0x6F] WAIT_FRAME_DELAY: Yield until WaitTime reaches zero
  4: 0x00AA [0x39] SET_ENTITY_DIRECTION(direction=16.2°*)
  5: 0x00AD [0x00] END_REQSTACK()
```

### Event 65535.6

#### Metadata

| Field        | Value    |
|--------------|----------|
| Entrypoint   | 0x00AE   |
| Data Size    | 15 bytes |
| Instructions | 5        |

```
      00 01 02 03 04 05 06 07  08 09 0A 0B 0C 0D 0E 0F
      -- -- -- -- -- -- -- --  -- -- -- -- -- -- -- --
00A0:                                            32 05                2.
00B0: 80 1F 00 16 80 17 80 18  80 1F 01 6F 00           ...........o.   
```

#### Opcodes

```
  0: 0x00AE [0x32] ExtData[1]->MainSpeed = 13* * 0.1
  1: 0x00B1 [0x1F] MOVE_ENTITY: EventEntity moves to X=-13.485*, Z=-5.106*, Y=-10.988*
  2: 0x00B9 [0x1F] MOVE_ENTITY: Update entity position (mode=1)
  3: 0x00BB [0x6F] WAIT_FRAME_DELAY: Yield until WaitTime reaches zero
  4: 0x00BC [0x00] END_REQSTACK()
```

### Event 854

#### Metadata

| Field        | Value    |
|--------------|----------|
| Entrypoint   | 0x00BD   |
| Data Size    | 10 bytes |
| Instructions | 2        |

```
      00 01 02 03 04 05 06 07  08 09 0A 0B 0C 0D 0E 0F
      -- -- -- -- -- -- -- --  -- -- -- -- -- -- -- --
00B0:                                         37 1D 80               7..
00C0: 1E 80 02 80 1F 80 00                              .......         
```

#### Opcodes

```
  0: 0x00BD [0x37] UPDATE_EVENT_POSITION_AND_DIR: x=-36.397*, z=-1.595*, y=-9.999*, direction=349.9°*
  1: 0x00C6 [0x00] END_REQSTACK()
```

### Event 65535.7

#### Metadata

| Field        | Value    |
|--------------|----------|
| Entrypoint   | 0x00C7   |
| Data Size    | 20 bytes |
| Instructions | 7        |

```
      00 01 02 03 04 05 06 07  08 09 0A 0B 0C 0D 0E 0F
      -- -- -- -- -- -- -- --  -- -- -- -- -- -- -- --
00C0:                      33  01 1C 20 80 32 0F 80 1F         3.. .2...
00D0: 00 21 80 22 80 02 80 1F  01 6F 00                 .!.".....o.     
```

#### Opcodes

```
  0: 0x00C7 [0x33] EventEntity->Render.Flags0 |= 0x200000 // Bit 21 (flag=0x01)
  1: 0x00C9 [0x1C] WAIT(10* ticks)
  2: 0x00CC [0x32] ExtData[1]->MainSpeed = 40* * 0.1
  3: 0x00CF [0x1F] MOVE_ENTITY: EventEntity moves to X=-24.457*, Z=-1.856*, Y=-9.999*
  4: 0x00D7 [0x1F] MOVE_ENTITY: Update entity position (mode=1)
  5: 0x00D9 [0x6F] WAIT_FRAME_DELAY: Yield until WaitTime reaches zero
  6: 0x00DA [0x00] END_REQSTACK()
```

### Event 65535.8

#### Metadata

| Field        | Value    |
|--------------|----------|
| Entrypoint   | 0x00DB   |
| Data Size    | 26 bytes |
| Instructions | 7        |

```
      00 01 02 03 04 05 06 07  08 09 0A 0B 0C 0D 0E 0F
      -- -- -- -- -- -- -- --  -- -- -- -- -- -- -- --
00D0:                                   32 05 80 1F 00             2....
00E0: 12 80 13 80 02 80 1F 01  1F 00 14 80 15 80 02 80  ................
00F0: 1F 01 22 01 00                                    .."..           
```

#### Opcodes

```
  0: 0x00DB [0x32] ExtData[1]->MainSpeed = 13* * 0.1
  1: 0x00DE [0x1F] MOVE_ENTITY: EventEntity moves to X=-36.915*, Z=-1.701*, Y=-9.999*
  2: 0x00E6 [0x1F] MOVE_ENTITY: Update entity position (mode=1)
  3: 0x00E8 [0x1F] MOVE_ENTITY: EventEntity moves to X=-40.846*, Z=-5.749*, Y=-9.999*
  4: 0x00F0 [0x1F] MOVE_ENTITY: Update entity position (mode=1)
  5: 0x00F2 [0x22] ENTITY_HIDE_FLAG(enabled=0x01)
  6: 0x00F4 [0x00] END_REQSTACK()
```

### Event 856

#### Metadata

| Field        | Value    |
|--------------|----------|
| Entrypoint   | 0x00F5   |
| Data Size    | 10 bytes |
| Instructions | 2        |

```
      00 01 02 03 04 05 06 07  08 09 0A 0B 0C 0D 0E 0F
      -- -- -- -- -- -- -- --  -- -- -- -- -- -- -- --
00F0:                37 23 80  24 80 25 80 26 80 00          7#.$.%.&.. 
```

#### Opcodes

```
  0: 0x00F5 [0x37] UPDATE_EVENT_POSITION_AND_DIR: x=95.492*, z=14.518*, y=-20.185*, direction=89.2°*
  1: 0x00FE [0x00] END_REQSTACK()
```

### Event 857

#### Metadata

| Field        | Value    |
|--------------|----------|
| Entrypoint   | 0x00FF   |
| Data Size    | 10 bytes |
| Instructions | 2        |

```
      00 01 02 03 04 05 06 07  08 09 0A 0B 0C 0D 0E 0F
      -- -- -- -- -- -- -- --  -- -- -- -- -- -- -- --
00F0:                                               37                 7
0100: 27 80 28 80 02 80 29 80  00                       '.(...)..       
```

#### Opcodes

```
  0: 0x00FF [0x37] UPDATE_EVENT_POSITION_AND_DIR: x=-28.959*, z=-2.102*, y=-9.999*, direction=2.2°*
  1: 0x0108 [0x00] END_REQSTACK()
```

### Event 65535.9

#### Metadata

| Field        | Value    |
|--------------|----------|
| Entrypoint   | 0x0109   |
| Data Size    | 15 bytes |
| Instructions | 5        |

```
      00 01 02 03 04 05 06 07  08 09 0A 0B 0C 0D 0E 0F
      -- -- -- -- -- -- -- --  -- -- -- -- -- -- -- --
0100:                             32 05 80 1F 00 2A 80           2....*.
0110: 28 80 02 80 1F 01 6F 00                           (.....o.        
```

#### Opcodes

```
  0: 0x0109 [0x32] ExtData[1]->MainSpeed = 13* * 0.1
  1: 0x010C [0x1F] MOVE_ENTITY: EventEntity moves to X=-22.959*, Z=-2.102*, Y=-9.999*
  2: 0x0114 [0x1F] MOVE_ENTITY: Update entity position (mode=1)
  3: 0x0116 [0x6F] WAIT_FRAME_DELAY: Yield until WaitTime reaches zero
  4: 0x0117 [0x00] END_REQSTACK()
```

### Event 65535.10

#### Metadata

| Field        | Value    |
|--------------|----------|
| Entrypoint   | 0x0118   |
| Data Size    | 26 bytes |
| Instructions | 7        |

```
      00 01 02 03 04 05 06 07  08 09 0A 0B 0C 0D 0E 0F
      -- -- -- -- -- -- -- --  -- -- -- -- -- -- -- --
0110:                          32 05 80 1F 00 12 80 13          2.......
0120: 80 02 80 1F 01 1F 00 14  80 15 80 02 80 1F 01 22  ..............."
0130: 01 00                                             ..              
```

#### Opcodes

```
  0: 0x0118 [0x32] ExtData[1]->MainSpeed = 13* * 0.1
  1: 0x011B [0x1F] MOVE_ENTITY: EventEntity moves to X=-36.915*, Z=-1.701*, Y=-9.999*
  2: 0x0123 [0x1F] MOVE_ENTITY: Update entity position (mode=1)
  3: 0x0125 [0x1F] MOVE_ENTITY: EventEntity moves to X=-40.846*, Z=-5.749*, Y=-9.999*
  4: 0x012D [0x1F] MOVE_ENTITY: Update entity position (mode=1)
  5: 0x012F [0x22] ENTITY_HIDE_FLAG(enabled=0x01)
  6: 0x0131 [0x00] END_REQSTACK()
```

### Event 897

#### Metadata

| Field        | Value   |
|--------------|---------|
| Entrypoint   | 0x0132  |
| Data Size    | 1 bytes |
| Instructions | 1       |

```
      00 01 02 03 04 05 06 07  08 09 0A 0B 0C 0D 0E 0F
      -- -- -- -- -- -- -- --  -- -- -- -- -- -- -- --
0130:       00                                            .             
```

#### Opcodes

```
  0: 0x0132 [0x00] END_REQSTACK()
```

### Event 898

#### Metadata

| Field        | Value   |
|--------------|---------|
| Entrypoint   | 0x0133  |
| Data Size    | 1 bytes |
| Instructions | 1       |

```
      00 01 02 03 04 05 06 07  08 09 0A 0B 0C 0D 0E 0F
      -- -- -- -- -- -- -- --  -- -- -- -- -- -- -- --
0130:          00                                          .            
```

#### Opcodes

```
  0: 0x0133 [0x00] END_REQSTACK()
```

### Event 65535.11

#### Metadata

| Field        | Value    |
|--------------|----------|
| Entrypoint   | 0x0134   |
| Data Size    | 10 bytes |
| Instructions | 2        |

```
      00 01 02 03 04 05 06 07  08 09 0A 0B 0C 0D 0E 0F
      -- -- -- -- -- -- -- --  -- -- -- -- -- -- -- --
0130:             37 2B 80 2C  80 2D 80 2E 80 00            7+.,.-....  
```

#### Opcodes

```
  0: 0x0134 [0x37] UPDATE_EVENT_POSITION_AND_DIR: x=132.917*, z=-85.984*, y=9.101*, direction=15.4°*
  1: 0x013D [0x00] END_REQSTACK()
```

### Event 65535.12

#### Metadata

| Field        | Value    |
|--------------|----------|
| Entrypoint   | 0x013E   |
| Data Size    | 10 bytes |
| Instructions | 2        |

```
      00 01 02 03 04 05 06 07  08 09 0A 0B 0C 0D 0E 0F
      -- -- -- -- -- -- -- --  -- -- -- -- -- -- -- --
0130:                                            37 2F                7/
0140: 80 30 80 2D 80 31 80 00                           .0.-.1..        
```

#### Opcodes

```
  0: 0x013E [0x37] UPDATE_EVENT_POSITION_AND_DIR: x=132.167*, z=-85.267*, y=9.101*, direction=224.1°*
  1: 0x0147 [0x00] END_REQSTACK()
```

### Event 65535.13

#### Metadata

| Field        | Value    |
|--------------|----------|
| Entrypoint   | 0x0148   |
| Data Size    | 19 bytes |
| Instructions | 3        |

```
      00 01 02 03 04 05 06 07  08 09 0A 0B 0C 0D 0E 0F
      -- -- -- -- -- -- -- --  -- -- -- -- -- -- -- --
0140:                          1C 32 80 5B 33 80 9B D0          .2.[3...
0150: 0E 01 9B D0 0E 01 65 6B  30 31 00                 ......ek01.     
```

#### Opcodes

```
  0: 0x0148 [0x1C] WAIT(90* ticks)
  1: 0x014B [0x5B] LOAD_EXT_SCHEDULER: Load scheduler "ek01" with entities [Tenzen (ID: 17748123/0x010ED09B), Tenzen (ID: 17748123/0x010ED09B)], work=426*
  2: 0x015A [0x00] END_REQSTACK()
```

### Event 65535.14

#### Metadata

| Field        | Value    |
|--------------|----------|
| Entrypoint   | 0x015B   |
| Data Size    | 10 bytes |
| Instructions | 2        |

```
      00 01 02 03 04 05 06 07  08 09 0A 0B 0C 0D 0E 0F
      -- -- -- -- -- -- -- --  -- -- -- -- -- -- -- --
0150:                                   37 34 80 35 80             74.5.
0160: 36 80 37 80 00                                    6.7..           
```

#### Opcodes

```
  0: 0x015B [0x37] UPDATE_EVENT_POSITION_AND_DIR: x=-21.840*, z=14.081*, y=-3.300*, direction=0.0°*
  1: 0x0164 [0x00] END_REQSTACK()
```

### Event 65535.15

#### Metadata

| Field        | Value    |
|--------------|----------|
| Entrypoint   | 0x0165   |
| Data Size    | 15 bytes |
| Instructions | 5        |

```
      00 01 02 03 04 05 06 07  08 09 0A 0B 0C 0D 0E 0F
      -- -- -- -- -- -- -- --  -- -- -- -- -- -- -- --
0160:                32 05 80  1F 00 38 80 39 80 36 80       2....8.9.6.
0170: 1F 01 6F 00                                       ..o.            
```

#### Opcodes

```
  0: 0x0165 [0x32] ExtData[1]->MainSpeed = 13* * 0.1
  1: 0x0168 [0x1F] MOVE_ENTITY: EventEntity moves to X=-30.418*, Z=14.239*, Y=-3.300*
  2: 0x0170 [0x1F] MOVE_ENTITY: Update entity position (mode=1)
  3: 0x0172 [0x6F] WAIT_FRAME_DELAY: Yield until WaitTime reaches zero
  4: 0x0173 [0x00] END_REQSTACK()
```
