# 17748030 - High Bear

## Common Data

| Field            | Value                |
|------------------|----------------------|
| Zone             | Metalworks (ID: 237) |
| Block Size       | 220 bytes            |
| Total Events     | 4                    |
| References Count | 10                   |

## List of Events

| Event ID              | Entrypoint   |   Size |   Instructions |
|-----------------------|--------------|--------|----------------|
| [65535](#event-65535) | 0x0000       |      1 |              1 |
| [730](#event-730)     | 0x0001       |     36 |             10 |
| [731](#event-731)     | 0x0025       |     44 |             12 |
| [732](#event-732)     | 0x0051       |     66 |             12 |

## DAT References (imed_data)

|   Index | Hex Value   |   Dec Value |
|---------|-------------|-------------|
|       0 | 0x1F3A      |        7994 |
|       1 | 0x003C      |          60 |
|       2 | 0x1F3B      |        7995 |
|       3 | 0x008C      |         140 |
|       4 | 0x1F3C      |        7996 |
|       5 | 0x1F3D      |        7997 |
|       6 | 0x1F3E      |        7998 |
|       7 | 0x1F3F      |        7999 |
|       8 | 0x00C9      |         201 |
|       9 | 0x0000      |           0 |

## String References

- **7994**: I am compiling data on the effects of Bastok's mining and industrial projects on the environment.
- **7995**: These wheels are enough to power Bastok now, but what will they do when the city's needs exceed the amount of energy they can produce?
- **7996**: I've heard adventurers say that the Quadav dumping of industrial waste has polluted Beadeaux and its surrounding areas.
- **7997**: I'd like to examine some of that $3. I've heard you can find some near their forges, and that it's also easier to spot on rainy days.
- **7998**: Ah, you've brought me some of the $3 from Beadeaux I asked for! Thank you. This will help me in my research.
- **7999**: Hume scientists say they don't give a damn about the Quadav environment, but this may be of use to us in the future... Oh, I'm sorry, I didn't mean to gripe. Here, let me reward you.

## Events

### Event 65535

#### Metadata

| Field        | Value   |
|--------------|---------|
| Entrypoint   | 0x0000  |
| Data Size    | 1 bytes |
| Instructions | 1       |

```
      00 01 02 03 04 05 06 07  08 09 0A 0B 0C 0D 0E 0F
      -- -- -- -- -- -- -- --  -- -- -- -- -- -- -- --
0000: 00                                                .               
```

#### Opcodes

```
  0: 0x0000 [0x00] END_REQSTACK()
```

### Event 730

#### Metadata

| Field        | Value    |
|--------------|----------|
| Entrypoint   | 0x0001   |
| Data Size    | 36 bytes |
| Instructions | 10       |

```
      00 01 02 03 04 05 06 07  08 09 0A 0B 0C 0D 0E 0F
      -- -- -- -- -- -- -- --  -- -- -- -- -- -- -- --
0000:    42 1E F0 FF FF 7F 1D  00 80 23 66 01 80 F8 FF   B........#f....
0010: FF 7F F8 FF FF 7F 74 6C  6B 30 1D 02 80 23 5E 69  ......tlk0...#^i
0020: 64 6C 30 21 00                                    dl0!.           
```

#### Opcodes

```
  0: 0x0001 [0x42] SET_CLI_EVENT_CANCEL_DATA()
  1: 0x0002 [0x1E] EventEntity looks at LocalPlayer and starts talking
  2: 0x0007 [0x1D] PRINT_EVENT_MESSAGE(message_id=7994*)
    → "I am compiling data on the effects of Bastok's mining and industrial projects on the environment."
  3: 0x000A [0x23] WAIT_FOR_DIALOG_INTERACTION
  4: 0x000B [0x66] LOAD_EXT_SCHEDULER_MAIN: Load scheduler "tlk0" with entities [EventEntity, EventEntity], work=60*
  5: 0x001A [0x1D] PRINT_EVENT_MESSAGE(message_id=7995*)
    → "These wheels are enough to power Bastok now, but what will they do when the city's needs exceed the amount of energy they can produce?"
  6: 0x001D [0x23] WAIT_FOR_DIALOG_INTERACTION
  7: 0x001E [0x5E] EventEntity goes idle (kills current action) (animation: "idl0")
  8: 0x0023 [0x21] END_EVENT
  9: 0x0024 [0x00] END_REQSTACK()
```

### Event 731

#### Metadata

| Field        | Value    |
|--------------|----------|
| Entrypoint   | 0x0025   |
| Data Size    | 44 bytes |
| Instructions | 12       |

```
      00 01 02 03 04 05 06 07  08 09 0A 0B 0C 0D 0E 0F
      -- -- -- -- -- -- -- --  -- -- -- -- -- -- -- --
0020:                03 09 10  03 80 1E F0 FF FF 7F 1D       ...........
0030: 00 80 23 66 01 80 F8 FF  FF 7F F8 FF FF 7F 74 6C  ..#f..........tl
0040: 6B 30 1D 04 80 23 5E 69  64 6C 30 1D 05 80 23 21  k0...#^idl0...#!
0050: 00                                                .               
```

#### Opcodes

```
  0: 0x0025 [0x03] Work_Zone[9] = 140*
  1: 0x002A [0x1E] EventEntity looks at LocalPlayer and starts talking
  2: 0x002F [0x1D] PRINT_EVENT_MESSAGE(message_id=7994*)
    → "I am compiling data on the effects of Bastok's mining and industrial projects on the environment."
  3: 0x0032 [0x23] WAIT_FOR_DIALOG_INTERACTION
  4: 0x0033 [0x66] LOAD_EXT_SCHEDULER_MAIN: Load scheduler "tlk0" with entities [EventEntity, EventEntity], work=60*
  5: 0x0042 [0x1D] PRINT_EVENT_MESSAGE(message_id=7996*)
    → "I've heard adventurers say that the Quadav dumping of industrial waste has polluted Beadeaux and its surrounding areas."
  6: 0x0045 [0x23] WAIT_FOR_DIALOG_INTERACTION
  7: 0x0046 [0x5E] EventEntity goes idle (kills current action) (animation: "idl0")
  8: 0x004B [0x1D] PRINT_EVENT_MESSAGE(message_id=7997*)
    → "I'd like to examine some of that $3. I've heard you can find some near their forges, and that it's also easier to spot on rainy days."
  9: 0x004E [0x23] WAIT_FOR_DIALOG_INTERACTION
 10: 0x004F [0x21] END_EVENT
 11: 0x0050 [0x00] END_REQSTACK()
```

### Event 732

#### Metadata

| Field        | Value    |
|--------------|----------|
| Entrypoint   | 0x0051   |
| Data Size    | 66 bytes |
| Instructions | 12       |

```
      00 01 02 03 04 05 06 07  08 09 0A 0B 0C 0D 0E 0F
      -- -- -- -- -- -- -- --  -- -- -- -- -- -- -- --
0050:    42 03 09 10 03 80 1E  F0 FF FF 7F 1D 06 80 23   B.............#
0060: 66 01 80 F8 FF FF 7F F8  FF FF 7F 70 61 73 30 1D  f..........pas0.
0070: 07 80 23 53 F8 FF FF 7F  F8 FF FF 7F 70 61 73 30  ..#S........pas0
0080: 45 08 80 F8 FF FF 7F F8  FF FF 7F 71 73 74 63 09  E..........qstc.
0090: 80 21 00                                          .!.             
```

#### Opcodes

```
  0: 0x0051 [0x42] SET_CLI_EVENT_CANCEL_DATA()
  1: 0x0052 [0x03] Work_Zone[9] = 140*
  2: 0x0057 [0x1E] EventEntity looks at LocalPlayer and starts talking
  3: 0x005C [0x1D] PRINT_EVENT_MESSAGE(message_id=7998*)
    → "Ah, you've brought me some of the $3 from Beadeaux I asked for! Thank you. This will help me in my research."
  4: 0x005F [0x23] WAIT_FOR_DIALOG_INTERACTION
  5: 0x0060 [0x66] LOAD_EXT_SCHEDULER_MAIN: Load scheduler "pas0" with entities [EventEntity, EventEntity], work=60*
  6: 0x006F [0x1D] PRINT_EVENT_MESSAGE(message_id=7999*)
    → "Hume scientists say they don't give a damn about the Quadav environment, but this may be of use to us in the future... Oh, I'm sorry, I didn't mean to gripe. Here, let me reward you."
  7: 0x0072 [0x23] WAIT_FOR_DIALOG_INTERACTION
  8: 0x0073 [0x53] WAIT_SCHEDULER_TASK: Wait for scheduler "pas0" with entities [EventEntity, EventEntity]
  9: 0x0080 [0x45] LOAD_SCHEDULED_TASK: Load scheduler "qstc" with entities [EventEntity, EventEntity], work=[201*, 0*]
 10: 0x0091 [0x21] END_EVENT
 11: 0x0092 [0x00] END_REQSTACK()
```
