# 17748014 - Volker

## Common Data

| Field            | Value                |
|------------------|----------------------|
| Zone             | Metalworks (ID: 237) |
| Block Size       | 1736 bytes           |
| Total Events     | 64                   |
| References Count | 95                   |

## List of Events

| Event ID                   | Entrypoint   |   Size |   Instructions |
|----------------------------|--------------|--------|----------------|
| [65535](#event-65535)      | 0x0000       |      1 |              1 |
| [813](#event-813)          | 0x0001       |     16 |              3 |
| [65535.1](#event-655351)   | 0x0011       |     24 |              6 |
| [65535.2](#event-655352)   | 0x0029       |     16 |              2 |
| [65535.3](#event-655353)   | 0x0039       |     29 |              3 |
| [65535.4](#event-655354)   | 0x0056       |     16 |              2 |
| [65535.5](#event-655355)   | 0x0066       |     29 |              3 |
| [65535.6](#event-655356)   | 0x0083       |     16 |              2 |
| [65535.7](#event-655357)   | 0x0093       |     29 |              3 |
| [504](#event-504)          | 0x00B0       |     10 |              2 |
| [703](#event-703)          | 0x00BA       |     11 |              5 |
| [65535.8](#event-655358)   | 0x00C5       |      6 |              2 |
| [65535.9](#event-655359)   | 0x00CB       |     36 |              9 |
| [65535.10](#event-6553510) | 0x00EF       |     37 |              7 |
| [65535.11](#event-6553511) | 0x0114       |     49 |             11 |
| [715](#event-715)          | 0x0145       |     12 |              3 |
| [720](#event-720)          | 0x0151       |     12 |              3 |
| [65535.12](#event-6553512) | 0x015D       |     43 |              9 |
| [721](#event-721)          | 0x0188       |     10 |              2 |
| [722](#event-722)          | 0x0192       |     10 |              2 |
| [65535.13](#event-6553513) | 0x019C       |     23 |              5 |
| [602](#event-602)          | 0x01B3       |     12 |              3 |
| [65535.14](#event-6553514) | 0x01BF       |     21 |              6 |
| [65535.15](#event-6553515) | 0x01D4       |     35 |              6 |
| [603](#event-603)          | 0x01F7       |     12 |              3 |
| [65535.16](#event-6553516) | 0x0203       |     30 |              8 |
| [767](#event-767)          | 0x0221       |     10 |              2 |
| [780](#event-780)          | 0x022B       |     10 |              2 |
| [782](#event-782)          | 0x0235       |     10 |              2 |
| [65535.17](#event-6553517) | 0x023F       |     14 |              4 |
| [65535.18](#event-6553518) | 0x024D       |     25 |              6 |
| [65535.19](#event-6553519) | 0x0266       |     20 |              3 |
| [65535.20](#event-6553520) | 0x027A       |     14 |              4 |
| [968](#event-968)          | 0x0288       |      1 |              1 |
| [986](#event-986)          | 0x0289       |      1 |              1 |
| [65535.21](#event-6553521) | 0x028A       |     22 |              6 |
| [1051](#event-1051)        | 0x02A0       |      7 |              2 |
| [65535.22](#event-6553522) | 0x02A7       |     15 |              5 |
| [65535.23](#event-6553523) | 0x02B6       |     15 |              5 |
| [65535.24](#event-6553524) | 0x02C5       |     15 |              5 |
| [65535.25](#event-6553525) | 0x02D4       |     16 |              2 |
| [65535.26](#event-6553526) | 0x02E4       |     14 |              2 |
| [65535.27](#event-6553527) | 0x02F2       |     16 |              2 |
| [65535.28](#event-6553528) | 0x0302       |     14 |              2 |
| [65535.29](#event-6553529) | 0x0310       |     16 |              2 |
| [65535.30](#event-6553530) | 0x0320       |     14 |              2 |
| [65535.31](#event-6553531) | 0x032E       |     16 |              2 |
| [65535.32](#event-6553532) | 0x033E       |     14 |              2 |
| [65535.33](#event-6553533) | 0x034C       |     16 |              2 |
| [65535.34](#event-6553534) | 0x035C       |     14 |              2 |
| [65535.35](#event-6553535) | 0x036A       |     16 |              2 |
| [65535.36](#event-6553536) | 0x037A       |     14 |              2 |
| [65535.37](#event-6553537) | 0x0388       |     16 |              2 |
| [65535.38](#event-6553538) | 0x0398       |     14 |              2 |
| [65535.39](#event-6553539) | 0x03A6       |     16 |              2 |
| [65535.40](#event-6553540) | 0x03B6       |     14 |              2 |
| [65535.41](#event-6553541) | 0x03C4       |     16 |              2 |
| [65535.42](#event-6553542) | 0x03D4       |     14 |              2 |
| [65535.43](#event-6553543) | 0x03E2       |     16 |              2 |
| [65535.44](#event-6553544) | 0x03F2       |     14 |              2 |
| [65535.45](#event-6553545) | 0x0400       |     16 |              2 |
| [65535.46](#event-6553546) | 0x0410       |     14 |              2 |
| [65535.47](#event-6553547) | 0x041E       |     16 |              2 |
| [65535.48](#event-6553548) | 0x042E       |     14 |              2 |

## DAT References (imed_data)

|   Index | Hex Value   |   Dec Value |
|---------|-------------|-------------|
|       0 | 0x8744      |       34628 |
|       1 | 0x10378     |       66424 |
|       2 | 0x07C7      |        1991 |
|       3 | 0x0A53      |        2643 |
|       4 | 0x000D      |          13 |
|       5 | 0x874C      |       34636 |
|       6 | 0xF09B      |       61595 |
|       7 | 0x00C8      |         200 |
|       8 | 0xFFFFB7CD  |  4294948813 |
|       9 | 0xFFFFEA0D  |  4294961677 |
|      10 | 0xFFFFD8F1  |  4294957297 |
|      11 | 0x0F8E      |        3982 |
|      12 | 0x1D66      |        7526 |
|      13 | 0xFFFFBDF6  |  4294950390 |
|      14 | 0xFFFFEAA1  |  4294961825 |
|      15 | 0xFFFFD6FC  |  4294956796 |
|      16 | 0xFFFFC37C  |  4294951804 |
|      17 | 0xFFFFEDF6  |  4294962678 |
|      18 | 0xFFFFD514  |  4294956308 |
|      19 | 0xFFFFCC74  |  4294954100 |
|      20 | 0xFFFFF757  |  4294965079 |
|      21 | 0xFFFFFC07  |  4294966279 |
|      22 | 0x000A      |          10 |
|      23 | 0x178F0     |       96496 |
|      24 | 0x37D5      |       14293 |
|      25 | 0xFFFFB127  |  4294947111 |
|      26 | 0x0516      |        1302 |
|      27 | 0x18CEE     |      101614 |
|      28 | 0x0760      |        1888 |
|      29 | 0xFFFFB12B  |  4294947115 |
|      30 | 0x0B14      |        2836 |
|      31 | 0x1BCCF     |      113871 |
|      32 | 0x1D0F      |        7439 |
|      33 | 0xFFFFB136  |  4294947126 |
|      34 | 0x09DF      |        2527 |
|      35 | 0x1AC71     |      109681 |
|      36 | 0x27F8      |       10232 |
|      37 | 0x1AA1E     |      109086 |
|      38 | 0x3175      |       12661 |
|      39 | 0x0400      |        1024 |
|      40 | 0x198CD     |      104653 |
|      41 | 0xFFFFF9B7  |  4294965687 |
|      42 | 0x0BA1      |        2977 |
|      43 | 0x16B18     |       92952 |
|      44 | 0xFFFFFDC4  |  4294966724 |
|      45 | 0xFFFFB2DD  |  4294947549 |
|      46 | 0x08AD      |        2221 |
|      47 | 0x15AC5     |       88773 |
|      48 | 0xFFFFFD8D  |  4294966669 |
|      49 | 0xFFFFB3B4  |  4294947764 |
|      50 | 0x1BA2E     |      113198 |
|      51 | 0x1279      |        4729 |
|      52 | 0x0B44      |        2884 |
|      53 | 0x1B936     |      112950 |
|      54 | 0x207A      |        8314 |
|      55 | 0x1AD5C     |      109916 |
|      56 | 0x241A      |        9242 |
|      57 | 0x19757     |      104279 |
|      58 | 0xFFFFFBBC  |  4294966204 |
|      59 | 0x09D8      |        2520 |
|      60 | 0x14244     |       82500 |
|      61 | 0xFFFFF830  |  4294965296 |
|      62 | 0xFFFFB3B5  |  4294947765 |
|      63 | 0x073B      |        1851 |
|      64 | 0x12EBC     |       77500 |
|      65 | 0xFFFFFC18  |  4294966296 |
|      66 | 0x169CE     |       92622 |
|      67 | 0x345C      |       13404 |
|      68 | 0x0E6C      |        3692 |
|      69 | 0x18A6D     |      100973 |
|      70 | 0x002F      |          47 |
|      71 | 0x0F9C      |        3996 |
|      72 | 0x1923D     |      102973 |
|      73 | 0x16FC2     |       94146 |
|      74 | 0x01E2      |         482 |
|      75 | 0xFFFFB138  |  4294947128 |
|      76 | 0x189DC     |      100828 |
|      77 | 0x007E      |         126 |
|      78 | 0x5BF6      |       23542 |
|      79 | 0xFFFFEF7F  |  4294963071 |
|      80 | 0xFFFFC951  |  4294953297 |
|      81 | 0x0789      |        1929 |
|      82 | 0xCBB5      |       52149 |
|      83 | 0xFFFFF17E  |  4294963582 |
|      84 | 0xEFBA      |       61370 |
|      85 | 0xFFFF67CE  |  4294928334 |
|      86 | 0xFFFFBFFA  |  4294950906 |
|      87 | 0x001E      |          30 |
|      88 | 0x14EDA     |       85722 |
|      89 | 0x008C      |         140 |
|      90 | 0x1590D     |       88333 |
|      91 | 0xFFFFFCB2  |  4294966450 |
|      92 | 0x12FC2     |       77762 |
|      93 | 0xFFFFFE69  |  4294966889 |
|      94 | 0x00CA      |         202 |

## String References

- **7526**: How are you faring, adventurer? Remember, experience is the best teacher.

## Events

### Event 65535

#### Metadata

| Field        | Value   |
|--------------|---------|
| Entrypoint   | 0x0000  |
| Data Size    | 1 bytes |
| Instructions | 1       |

```
      00 01 02 03 04 05 06 07  08 09 0A 0B 0C 0D 0E 0F
      -- -- -- -- -- -- -- --  -- -- -- -- -- -- -- --
0000: 00                                                .               
```

#### Opcodes

```
  0: 0x0000 [0x00] END_REQSTACK()
```

### Event 813

#### Metadata

| Field        | Value    |
|--------------|----------|
| Entrypoint   | 0x0001   |
| Data Size    | 16 bytes |
| Instructions | 3        |

```
      00 01 02 03 04 05 06 07  08 09 0A 0B 0C 0D 0E 0F
      -- -- -- -- -- -- -- --  -- -- -- -- -- -- -- --
0000:    94 01 F8 FF FF 7F 37  00 80 01 80 02 80 03 80   ......7........
0010: 00                                                .               
```

#### Opcodes

```
  0: 0x0001 [0x94] EventEntity->Render.Flags3 ^= 0x01
  1: 0x0007 [0x37] UPDATE_EVENT_POSITION_AND_DIR: x=34.628*, z=66.424*, y=1.991*, direction=232.3°*
  2: 0x0010 [0x00] END_REQSTACK()
```

### Event 65535.1

#### Metadata

| Field        | Value    |
|--------------|----------|
| Entrypoint   | 0x0011   |
| Data Size    | 24 bytes |
| Instructions | 6        |

```
      00 01 02 03 04 05 06 07  08 09 0A 0B 0C 0D 0E 0F
      -- -- -- -- -- -- -- --  -- -- -- -- -- -- -- --
0010:    32 04 80 1F 00 05 80  06 80 02 80 1F 01 1F 00   2..............
0020: 05 80 06 80 02 80 1F 01  00                       .........       
```

#### Opcodes

```
  0: 0x0011 [0x32] ExtData[1]->MainSpeed = 13* * 0.1
  1: 0x0014 [0x1F] MOVE_ENTITY: EventEntity moves to X=34.636*, Z=61.595*, Y=1.991*
  2: 0x001C [0x1F] MOVE_ENTITY: Update entity position (mode=1)
  3: 0x001E [0x1F] MOVE_ENTITY: EventEntity moves to X=34.636*, Z=61.595*, Y=1.991*
  4: 0x0026 [0x1F] MOVE_ENTITY: Update entity position (mode=1)
  5: 0x0028 [0x00] END_REQSTACK()
```

### Event 65535.2

#### Metadata

| Field        | Value    |
|--------------|----------|
| Entrypoint   | 0x0029   |
| Data Size    | 16 bytes |
| Instructions | 2        |

```
      00 01 02 03 04 05 06 07  08 09 0A 0B 0C 0D 0E 0F
      -- -- -- -- -- -- -- --  -- -- -- -- -- -- -- --
0020:                             5B 07 80 F8 FF FF 7F           [......
0030: F8 FF FF 7F 74 6C 61 30  00                       ....tla0.       
```

#### Opcodes

```
  0: 0x0029 [0x5B] LOAD_EXT_SCHEDULER: Load scheduler "tla0" with entities [EventEntity, EventEntity], work=200*
  1: 0x0038 [0x00] END_REQSTACK()
```

### Event 65535.3

#### Metadata

| Field        | Value    |
|--------------|----------|
| Entrypoint   | 0x0039   |
| Data Size    | 29 bytes |
| Instructions | 3        |

```
      00 01 02 03 04 05 06 07  08 09 0A 0B 0C 0D 0E 0F
      -- -- -- -- -- -- -- --  -- -- -- -- -- -- -- --
0030:                             5B 07 80 F8 FF FF 7F           [......
0040: F8 FF FF 7F 74 6C 61 31  53 F8 FF FF 7F F8 FF FF  ....tla1S.......
0050: 7F 74 6C 61 31 00                                 .tla1.          
```

#### Opcodes

```
  0: 0x0039 [0x5B] LOAD_EXT_SCHEDULER: Load scheduler "tla1" with entities [EventEntity, EventEntity], work=200*
  1: 0x0048 [0x53] WAIT_SCHEDULER_TASK: Wait for scheduler "tla1" with entities [EventEntity, EventEntity]
  2: 0x0055 [0x00] END_REQSTACK()
```

### Event 65535.4

#### Metadata

| Field        | Value    |
|--------------|----------|
| Entrypoint   | 0x0056   |
| Data Size    | 16 bytes |
| Instructions | 2        |

```
      00 01 02 03 04 05 06 07  08 09 0A 0B 0C 0D 0E 0F
      -- -- -- -- -- -- -- --  -- -- -- -- -- -- -- --
0050:                   5B 07  80 F8 FF FF 7F F8 FF FF        [.........
0060: 7F 74 6C 62 30 00                                 .tlb0.          
```

#### Opcodes

```
  0: 0x0056 [0x5B] LOAD_EXT_SCHEDULER: Load scheduler "tlb0" with entities [EventEntity, EventEntity], work=200*
  1: 0x0065 [0x00] END_REQSTACK()
```

### Event 65535.5

#### Metadata

| Field        | Value    |
|--------------|----------|
| Entrypoint   | 0x0066   |
| Data Size    | 29 bytes |
| Instructions | 3        |

```
      00 01 02 03 04 05 06 07  08 09 0A 0B 0C 0D 0E 0F
      -- -- -- -- -- -- -- --  -- -- -- -- -- -- -- --
0060:                   5B 07  80 F8 FF FF 7F F8 FF FF        [.........
0070: 7F 74 6C 62 31 53 F8 FF  FF 7F F8 FF FF 7F 74 6C  .tlb1S........tl
0080: 62 31 00                                          b1.             
```

#### Opcodes

```
  0: 0x0066 [0x5B] LOAD_EXT_SCHEDULER: Load scheduler "tlb1" with entities [EventEntity, EventEntity], work=200*
  1: 0x0075 [0x53] WAIT_SCHEDULER_TASK: Wait for scheduler "tlb1" with entities [EventEntity, EventEntity]
  2: 0x0082 [0x00] END_REQSTACK()
```

### Event 65535.6

#### Metadata

| Field        | Value    |
|--------------|----------|
| Entrypoint   | 0x0083   |
| Data Size    | 16 bytes |
| Instructions | 2        |

```
      00 01 02 03 04 05 06 07  08 09 0A 0B 0C 0D 0E 0F
      -- -- -- -- -- -- -- --  -- -- -- -- -- -- -- --
0080:          5B 07 80 F8 FF  FF 7F F8 FF FF 7F 74 68     [..........th
0090: 6B 31 00                                          k1.             
```

#### Opcodes

```
  0: 0x0083 [0x5B] LOAD_EXT_SCHEDULER: Load scheduler "thk1" with entities [EventEntity, EventEntity], work=200*
  1: 0x0092 [0x00] END_REQSTACK()
```

### Event 65535.7

#### Metadata

| Field        | Value    |
|--------------|----------|
| Entrypoint   | 0x0093   |
| Data Size    | 29 bytes |
| Instructions | 3        |

```
      00 01 02 03 04 05 06 07  08 09 0A 0B 0C 0D 0E 0F
      -- -- -- -- -- -- -- --  -- -- -- -- -- -- -- --
0090:          5B 07 80 F8 FF  FF 7F F8 FF FF 7F 74 68     [..........th
00A0: 6B 32 53 F8 FF FF 7F F8  FF FF 7F 74 68 6B 32 00  k2S........thk2.
```

#### Opcodes

```
  0: 0x0093 [0x5B] LOAD_EXT_SCHEDULER: Load scheduler "thk2" with entities [EventEntity, EventEntity], work=200*
  1: 0x00A2 [0x53] WAIT_SCHEDULER_TASK: Wait for scheduler "thk2" with entities [EventEntity, EventEntity]
  2: 0x00AF [0x00] END_REQSTACK()
```

### Event 504

#### Metadata

| Field        | Value    |
|--------------|----------|
| Entrypoint   | 0x00B0   |
| Data Size    | 10 bytes |
| Instructions | 2        |

```
      00 01 02 03 04 05 06 07  08 09 0A 0B 0C 0D 0E 0F
      -- -- -- -- -- -- -- --  -- -- -- -- -- -- -- --
00B0: 37 08 80 09 80 0A 80 0B  80 00                    7.........      
```

#### Opcodes

```
  0: 0x00B0 [0x37] UPDATE_EVENT_POSITION_AND_DIR: x=-18.483*, z=-5.619*, y=-9.999*, direction=350.0°*
  1: 0x00B9 [0x00] END_REQSTACK()
```

### Event 703

#### Metadata

| Field        | Value    |
|--------------|----------|
| Entrypoint   | 0x00BA   |
| Data Size    | 11 bytes |
| Instructions | 5        |

```
      00 01 02 03 04 05 06 07  08 09 0A 0B 0C 0D 0E 0F
      -- -- -- -- -- -- -- --  -- -- -- -- -- -- -- --
00B0:                                1E F0 FF FF 7F 1D            ......
00C0: 0C 80 23 21 00                                    ..#!.           
```

#### Opcodes

```
  0: 0x00BA [0x1E] EventEntity looks at LocalPlayer and starts talking
  1: 0x00BF [0x1D] PRINT_EVENT_MESSAGE(message_id=7526*)
    → "How are you faring, adventurer? Remember, experience is the best teacher."
  2: 0x00C2 [0x23] WAIT_FOR_DIALOG_INTERACTION
  3: 0x00C3 [0x21] END_EVENT
  4: 0x00C4 [0x00] END_REQSTACK()
```

### Event 65535.8

#### Metadata

| Field        | Value   |
|--------------|---------|
| Entrypoint   | 0x00C5  |
| Data Size    | 6 bytes |
| Instructions | 2       |

```
      00 01 02 03 04 05 06 07  08 09 0A 0B 0C 0D 0E 0F
      -- -- -- -- -- -- -- --  -- -- -- -- -- -- -- --
00C0:                5E 69 64  6C 30 00                      ^idl0.     
```

#### Opcodes

```
  0: 0x00C5 [0x5E] EventEntity goes idle (kills current action) (animation: "idl0")
  1: 0x00CA [0x00] END_REQSTACK()
```

### Event 65535.9

#### Metadata

| Field        | Value    |
|--------------|----------|
| Entrypoint   | 0x00CB   |
| Data Size    | 36 bytes |
| Instructions | 9        |

```
      00 01 02 03 04 05 06 07  08 09 0A 0B 0C 0D 0E 0F
      -- -- -- -- -- -- -- --  -- -- -- -- -- -- -- --
00C0:                                   22 00 32 04 80             ".2..
00D0: 1F 00 0D 80 0E 80 0F 80  1F 01 1F 00 10 80 11 80  ................
00E0: 12 80 1F 01 1F 00 13 80  14 80 12 80 1F 01 00     ............... 
```

#### Opcodes

```
  0: 0x00CB [0x22] ENTITY_HIDE_FLAG(enabled=0x00)
  1: 0x00CD [0x32] ExtData[1]->MainSpeed = 13* * 0.1
  2: 0x00D0 [0x1F] MOVE_ENTITY: EventEntity moves to X=-16.906*, Z=-5.471*, Y=-10.500*
  3: 0x00D8 [0x1F] MOVE_ENTITY: Update entity position (mode=1)
  4: 0x00DA [0x1F] MOVE_ENTITY: EventEntity moves to X=-15.492*, Z=-4.618*, Y=-10.988*
  5: 0x00E2 [0x1F] MOVE_ENTITY: Update entity position (mode=1)
  6: 0x00E4 [0x1F] MOVE_ENTITY: EventEntity moves to X=-13.196*, Z=-2.217*, Y=-10.988*
  7: 0x00EC [0x1F] MOVE_ENTITY: Update entity position (mode=1)
  8: 0x00EE [0x00] END_REQSTACK()
```

### Event 65535.10

#### Metadata

| Field        | Value    |
|--------------|----------|
| Entrypoint   | 0x00EF   |
| Data Size    | 37 bytes |
| Instructions | 7        |

```
      00 01 02 03 04 05 06 07  08 09 0A 0B 0C 0D 0E 0F
      -- -- -- -- -- -- -- --  -- -- -- -- -- -- -- --
00E0:                                               32                 2
00F0: 04 80 1F 00 13 80 15 80  12 80 1F 01 1E F0 FF FF  ................
0100: 7F 1C 16 80 5B 07 80 2E  D0 0E 01 2E D0 0E 01 74  ....[..........t
0110: 6C 62 30 00                                       lb0.            
```

#### Opcodes

```
  0: 0x00EF [0x32] ExtData[1]->MainSpeed = 13* * 0.1
  1: 0x00F2 [0x1F] MOVE_ENTITY: EventEntity moves to X=-13.196*, Z=-1.017*, Y=-10.988*
  2: 0x00FA [0x1F] MOVE_ENTITY: Update entity position (mode=1)
  3: 0x00FC [0x1E] EventEntity looks at LocalPlayer and starts talking
  4: 0x0101 [0x1C] WAIT(10* ticks)
  5: 0x0104 [0x5B] LOAD_EXT_SCHEDULER: Load scheduler "tlb0" with entities [Volker (ID: 17748014/0x010ED02E), Volker (ID: 17748014/0x010ED02E)], work=200*
  6: 0x0113 [0x00] END_REQSTACK()
```

### Event 65535.11

#### Metadata

| Field        | Value    |
|--------------|----------|
| Entrypoint   | 0x0114   |
| Data Size    | 49 bytes |
| Instructions | 11       |

```
      00 01 02 03 04 05 06 07  08 09 0A 0B 0C 0D 0E 0F
      -- -- -- -- -- -- -- --  -- -- -- -- -- -- -- --
0110:             7B F8 FF FF  7F 32 04 80 1F 00 13 80      {....2......
0120: 14 80 12 80 1F 01 1F 00  10 80 11 80 12 80 1F 01  ................
0130: 1F 00 0D 80 0E 80 0F 80  1F 01 1F 00 08 80 09 80  ................
0140: 0A 80 1F 01 00                                    .....           
```

#### Opcodes

```
  0: 0x0114 [0x7B] EventEntity stops talking
  1: 0x0119 [0x32] ExtData[1]->MainSpeed = 13* * 0.1
  2: 0x011C [0x1F] MOVE_ENTITY: EventEntity moves to X=-13.196*, Z=-2.217*, Y=-10.988*
  3: 0x0124 [0x1F] MOVE_ENTITY: Update entity position (mode=1)
  4: 0x0126 [0x1F] MOVE_ENTITY: EventEntity moves to X=-15.492*, Z=-4.618*, Y=-10.988*
  5: 0x012E [0x1F] MOVE_ENTITY: Update entity position (mode=1)
  6: 0x0130 [0x1F] MOVE_ENTITY: EventEntity moves to X=-16.906*, Z=-5.471*, Y=-10.500*
  7: 0x0138 [0x1F] MOVE_ENTITY: Update entity position (mode=1)
  8: 0x013A [0x1F] MOVE_ENTITY: EventEntity moves to X=-18.483*, Z=-5.619*, Y=-9.999*
  9: 0x0142 [0x1F] MOVE_ENTITY: Update entity position (mode=1)
 10: 0x0144 [0x00] END_REQSTACK()
```

### Event 715

#### Metadata

| Field        | Value    |
|--------------|----------|
| Entrypoint   | 0x0145   |
| Data Size    | 12 bytes |
| Instructions | 3        |

```
      00 01 02 03 04 05 06 07  08 09 0A 0B 0C 0D 0E 0F
      -- -- -- -- -- -- -- --  -- -- -- -- -- -- -- --
0140:                22 00 37  17 80 18 80 19 80 1A 80       ".7........
0150: 00                                                .               
```

#### Opcodes

```
  0: 0x0145 [0x22] ENTITY_HIDE_FLAG(enabled=0x00)
  1: 0x0147 [0x37] UPDATE_EVENT_POSITION_AND_DIR: x=96.496*, z=14.293*, y=-20.185*, direction=114.4°*
  2: 0x0150 [0x00] END_REQSTACK()
```

### Event 720

#### Metadata

| Field        | Value    |
|--------------|----------|
| Entrypoint   | 0x0151   |
| Data Size    | 12 bytes |
| Instructions | 3        |

```
      00 01 02 03 04 05 06 07  08 09 0A 0B 0C 0D 0E 0F
      -- -- -- -- -- -- -- --  -- -- -- -- -- -- -- --
0150:    22 00 37 1B 80 1C 80  1D 80 1E 80 00            ".7.........   
```

#### Opcodes

```
  0: 0x0151 [0x22] ENTITY_HIDE_FLAG(enabled=0x00)
  1: 0x0153 [0x37] UPDATE_EVENT_POSITION_AND_DIR: x=101.614*, z=1.888*, y=-20.181*, direction=249.3°*
  2: 0x015C [0x00] END_REQSTACK()
```

### Event 65535.12

#### Metadata

| Field        | Value    |
|--------------|----------|
| Entrypoint   | 0x015D   |
| Data Size    | 43 bytes |
| Instructions | 9        |

```
      00 01 02 03 04 05 06 07  08 09 0A 0B 0C 0D 0E 0F
      -- -- -- -- -- -- -- --  -- -- -- -- -- -- -- --
0150:                                         7B F8 FF               {..
0160: FF 7F 32 04 80 37 1F 80  20 80 21 80 22 80 1F 00  ..2..7.. .!."...
0170: 23 80 24 80 21 80 1F 01  1F 00 25 80 26 80 21 80  #.$.!.....%.&.!.
0180: 1F 01 1E F0 FF FF 7F 00                           ........        
```

#### Opcodes

```
  0: 0x015D [0x7B] EventEntity stops talking
  1: 0x0162 [0x32] ExtData[1]->MainSpeed = 13* * 0.1
  2: 0x0165 [0x37] UPDATE_EVENT_POSITION_AND_DIR: x=113.871*, z=7.439*, y=-20.170*, direction=222.1°*
  3: 0x016E [0x1F] MOVE_ENTITY: EventEntity moves to X=109.681*, Z=10.232*, Y=-20.170*
  4: 0x0176 [0x1F] MOVE_ENTITY: Update entity position (mode=1)
  5: 0x0178 [0x1F] MOVE_ENTITY: EventEntity moves to X=109.086*, Z=12.661*, Y=-20.170*
  6: 0x0180 [0x1F] MOVE_ENTITY: Update entity position (mode=1)
  7: 0x0182 [0x1E] EventEntity looks at LocalPlayer and starts talking
  8: 0x0187 [0x00] END_REQSTACK()
```

### Event 721

#### Metadata

| Field        | Value    |
|--------------|----------|
| Entrypoint   | 0x0188   |
| Data Size    | 10 bytes |
| Instructions | 2        |

```
      00 01 02 03 04 05 06 07  08 09 0A 0B 0C 0D 0E 0F
      -- -- -- -- -- -- -- --  -- -- -- -- -- -- -- --
0180:                          37 25 80 26 80 21 80 27          7%.&.!.'
0190: 80 00                                             ..              
```

#### Opcodes

```
  0: 0x0188 [0x37] UPDATE_EVENT_POSITION_AND_DIR: x=109.086*, z=12.661*, y=-20.170*, direction=90.0°*
  1: 0x0191 [0x00] END_REQSTACK()
```

### Event 722

#### Metadata

| Field        | Value    |
|--------------|----------|
| Entrypoint   | 0x0192   |
| Data Size    | 10 bytes |
| Instructions | 2        |

```
      00 01 02 03 04 05 06 07  08 09 0A 0B 0C 0D 0E 0F
      -- -- -- -- -- -- -- --  -- -- -- -- -- -- -- --
0190:       37 28 80 29 80 1D  80 2A 80 00                7(.)...*..    
```

#### Opcodes

```
  0: 0x0192 [0x37] UPDATE_EVENT_POSITION_AND_DIR: x=104.653*, z=-1.609*, y=-20.181*, direction=261.6°*
  1: 0x019B [0x00] END_REQSTACK()
```

### Event 65535.13

#### Metadata

| Field        | Value    |
|--------------|----------|
| Entrypoint   | 0x019C   |
| Data Size    | 23 bytes |
| Instructions | 5        |

```
      00 01 02 03 04 05 06 07  08 09 0A 0B 0C 0D 0E 0F
      -- -- -- -- -- -- -- --  -- -- -- -- -- -- -- --
0190:                                      32 04 80 37              2..7
01A0: 2B 80 2C 80 2D 80 2E 80  1F 00 2F 80 30 80 31 80  +.,.-...../.0.1.
01B0: 1F 01 00                                          ...             
```

#### Opcodes

```
  0: 0x019C [0x32] ExtData[1]->MainSpeed = 13* * 0.1
  1: 0x019F [0x37] UPDATE_EVENT_POSITION_AND_DIR: x=92.952*, z=-0.572*, y=-19.747*, direction=195.2°*
  2: 0x01A8 [0x1F] MOVE_ENTITY: EventEntity moves to X=88.773*, Z=-0.627*, Y=-19.532*
  3: 0x01B0 [0x1F] MOVE_ENTITY: Update entity position (mode=1)
  4: 0x01B2 [0x00] END_REQSTACK()
```

### Event 602

#### Metadata

| Field        | Value    |
|--------------|----------|
| Entrypoint   | 0x01B3   |
| Data Size    | 12 bytes |
| Instructions | 3        |

```
      00 01 02 03 04 05 06 07  08 09 0A 0B 0C 0D 0E 0F
      -- -- -- -- -- -- -- --  -- -- -- -- -- -- -- --
01B0:          22 01 37 32 80  33 80 21 80 34 80 00        ".72.3.!.4.. 
```

#### Opcodes

```
  0: 0x01B3 [0x22] ENTITY_HIDE_FLAG(enabled=0x01)
  1: 0x01B5 [0x37] UPDATE_EVENT_POSITION_AND_DIR: x=113.198*, z=4.729*, y=-20.170*, direction=253.5°*
  2: 0x01BE [0x00] END_REQSTACK()
```

### Event 65535.14

#### Metadata

| Field        | Value    |
|--------------|----------|
| Entrypoint   | 0x01BF   |
| Data Size    | 21 bytes |
| Instructions | 6        |

```
      00 01 02 03 04 05 06 07  08 09 0A 0B 0C 0D 0E 0F
      -- -- -- -- -- -- -- --  -- -- -- -- -- -- -- --
01B0:                                               22                 "
01C0: 00 32 04 80 1F 00 35 80  36 80 21 80 1F 01 1E F0  .2....5.6.!.....
01D0: FF FF 7F 00                                       ....            
```

#### Opcodes

```
  0: 0x01BF [0x22] ENTITY_HIDE_FLAG(enabled=0x00)
  1: 0x01C1 [0x32] ExtData[1]->MainSpeed = 13* * 0.1
  2: 0x01C4 [0x1F] MOVE_ENTITY: EventEntity moves to X=112.950*, Z=8.314*, Y=-20.170*
  3: 0x01CC [0x1F] MOVE_ENTITY: Update entity position (mode=1)
  4: 0x01CE [0x1E] EventEntity looks at LocalPlayer and starts talking
  5: 0x01D3 [0x00] END_REQSTACK()
```

### Event 65535.15

#### Metadata

| Field        | Value    |
|--------------|----------|
| Entrypoint   | 0x01D4   |
| Data Size    | 35 bytes |
| Instructions | 6        |

```
      00 01 02 03 04 05 06 07  08 09 0A 0B 0C 0D 0E 0F
      -- -- -- -- -- -- -- --  -- -- -- -- -- -- -- --
01D0:             79 00 F8 FF  FF 7F 2A D0 0E 01 27 0A      y.....*...'.
01E0: 57 D0 0E 01 02 1F 00 37  80 38 80 1D 80 1F 01 27  W......7.8.....'
01F0: 0A 57 D0 0E 01 03 00                              .W.....         
```

#### Opcodes

```
  0: 0x01D4 [0x79] EventEntity looks at Karst (ID: 17748010/0x010ED02A) (Basic look)
  1: 0x01DE [0x27] REQ_SET(priority=0x0A, entity_id=Door:Presidential Suite (ID: 17748055/0x010ED057), tag_num=0x02)
  2: 0x01E5 [0x1F] MOVE_ENTITY: EventEntity moves to X=109.916*, Z=9.242*, Y=-20.181*
  3: 0x01ED [0x1F] MOVE_ENTITY: Update entity position (mode=1)
  4: 0x01EF [0x27] REQ_SET(priority=0x0A, entity_id=Door:Presidential Suite (ID: 17748055/0x010ED057), tag_num=0x03)
  5: 0x01F6 [0x00] END_REQSTACK()
```

### Event 603

#### Metadata

| Field        | Value    |
|--------------|----------|
| Entrypoint   | 0x01F7   |
| Data Size    | 12 bytes |
| Instructions | 3        |

```
      00 01 02 03 04 05 06 07  08 09 0A 0B 0C 0D 0E 0F
      -- -- -- -- -- -- -- --  -- -- -- -- -- -- -- --
01F0:                      37  39 80 3A 80 1D 80 3B 80         79.:...;.
0200: 22 00 00                                          "..             
```

#### Opcodes

```
  0: 0x01F7 [0x37] UPDATE_EVENT_POSITION_AND_DIR: x=104.279*, z=-1.092*, y=-20.181*, direction=221.5°*
  1: 0x0200 [0x22] ENTITY_HIDE_FLAG(enabled=0x00)
  2: 0x0202 [0x00] END_REQSTACK()
```

### Event 65535.16

#### Metadata

| Field        | Value    |
|--------------|----------|
| Entrypoint   | 0x0203   |
| Data Size    | 30 bytes |
| Instructions | 8        |

```
      00 01 02 03 04 05 06 07  08 09 0A 0B 0C 0D 0E 0F
      -- -- -- -- -- -- -- --  -- -- -- -- -- -- -- --
0200:          32 04 80 37 3C  80 3D 80 3E 80 3F 80 1F     2..7<.=.>.?..
0210: 00 40 80 41 80 3E 80 1F  01 1E 2B D0 0E 01 6F 70  .@.A.>....+...op
0220: 00                                                .               
```

#### Opcodes

```
  0: 0x0203 [0x32] ExtData[1]->MainSpeed = 13* * 0.1
  1: 0x0206 [0x37] UPDATE_EVENT_POSITION_AND_DIR: x=82.500*, z=-2.000*, y=-19.531*, direction=162.7°*
  2: 0x020F [0x1F] MOVE_ENTITY: EventEntity moves to X=77.500*, Z=-1.000*, Y=-19.531*
  3: 0x0217 [0x1F] MOVE_ENTITY: Update entity position (mode=1)
  4: 0x0219 [0x1E] EventEntity looks at Cid (ID: 17748011/0x010ED02B) and starts talking
  5: 0x021E [0x6F] WAIT_FRAME_DELAY: Yield until WaitTime reaches zero
  6: 0x021F [0x70] WAIT_ENTITY_RENDER_FLAG: Wait while EventEntity->Render.Flags3 bit 2 is set (cancel turn if not)
  7: 0x0220 [0x00] END_REQSTACK()
```

### Event 767

#### Metadata

| Field        | Value    |
|--------------|----------|
| Entrypoint   | 0x0221   |
| Data Size    | 10 bytes |
| Instructions | 2        |

```
      00 01 02 03 04 05 06 07  08 09 0A 0B 0C 0D 0E 0F
      -- -- -- -- -- -- -- --  -- -- -- -- -- -- -- --
0220:    37 42 80 43 80 19 80  44 80 00                  7B.C...D..     
```

#### Opcodes

```
  0: 0x0221 [0x37] UPDATE_EVENT_POSITION_AND_DIR: x=92.622*, z=13.404*, y=-20.185*, direction=324.5°*
  1: 0x022A [0x00] END_REQSTACK()
```

### Event 780

#### Metadata

| Field        | Value    |
|--------------|----------|
| Entrypoint   | 0x022B   |
| Data Size    | 10 bytes |
| Instructions | 2        |

```
      00 01 02 03 04 05 06 07  08 09 0A 0B 0C 0D 0E 0F
      -- -- -- -- -- -- -- --  -- -- -- -- -- -- -- --
0220:                                   37 45 80 46 80             7E.F.
0230: 1D 80 47 80 00                                    ..G..           
```

#### Opcodes

```
  0: 0x022B [0x37] UPDATE_EVENT_POSITION_AND_DIR: x=100.973*, z=0.047*, y=-20.181*, direction=351.2°*
  1: 0x0234 [0x00] END_REQSTACK()
```

### Event 782

#### Metadata

| Field        | Value    |
|--------------|----------|
| Entrypoint   | 0x0235   |
| Data Size    | 10 bytes |
| Instructions | 2        |

```
      00 01 02 03 04 05 06 07  08 09 0A 0B 0C 0D 0E 0F
      -- -- -- -- -- -- -- --  -- -- -- -- -- -- -- --
0230:                37 48 80  46 80 1D 80 47 80 00          7H.F...G.. 
```

#### Opcodes

```
  0: 0x0235 [0x37] UPDATE_EVENT_POSITION_AND_DIR: x=102.973*, z=0.047*, y=-20.181*, direction=351.2°*
  1: 0x023E [0x00] END_REQSTACK()
```

### Event 65535.17

#### Metadata

| Field        | Value    |
|--------------|----------|
| Entrypoint   | 0x023F   |
| Data Size    | 14 bytes |
| Instructions | 4        |

```
      00 01 02 03 04 05 06 07  08 09 0A 0B 0C 0D 0E 0F
      -- -- -- -- -- -- -- --  -- -- -- -- -- -- -- --
0230:                                               32                 2
0240: 04 80 1F 00 49 80 4A 80  4B 80 1F 01 00           ....I.J.K....   
```

#### Opcodes

```
  0: 0x023F [0x32] ExtData[1]->MainSpeed = 13* * 0.1
  1: 0x0242 [0x1F] MOVE_ENTITY: EventEntity moves to X=94.146*, Z=0.482*, Y=-20.168*
  2: 0x024A [0x1F] MOVE_ENTITY: Update entity position (mode=1)
  3: 0x024C [0x00] END_REQSTACK()
```

### Event 65535.18

#### Metadata

| Field        | Value    |
|--------------|----------|
| Entrypoint   | 0x024D   |
| Data Size    | 25 bytes |
| Instructions | 6        |

```
      00 01 02 03 04 05 06 07  08 09 0A 0B 0C 0D 0E 0F
      -- -- -- -- -- -- -- --  -- -- -- -- -- -- -- --
0240:                                         32 04 80               2..
0250: 1F 00 4C 80 4D 80 1D 80  1F 01 6F 79 00 2E D0 0E  ..L.M.....oy....
0260: 01 F0 FF FF 7F 00                                 ......          
```

#### Opcodes

```
  0: 0x024D [0x32] ExtData[1]->MainSpeed = 13* * 0.1
  1: 0x0250 [0x1F] MOVE_ENTITY: EventEntity moves to X=100.828*, Z=0.126*, Y=-20.181*
  2: 0x0258 [0x1F] MOVE_ENTITY: Update entity position (mode=1)
  3: 0x025A [0x6F] WAIT_FRAME_DELAY: Yield until WaitTime reaches zero
  4: 0x025B [0x79] Volker (ID: 17748014/0x010ED02E) looks at LocalPlayer (Basic look)
  5: 0x0265 [0x00] END_REQSTACK()
```

### Event 65535.19

#### Metadata

| Field        | Value    |
|--------------|----------|
| Entrypoint   | 0x0266   |
| Data Size    | 20 bytes |
| Instructions | 3        |

```
      00 01 02 03 04 05 06 07  08 09 0A 0B 0C 0D 0E 0F
      -- -- -- -- -- -- -- --  -- -- -- -- -- -- -- --
0260:                   79 00  2E D0 0E 01 32 D0 0E 01        y.....2...
0270: 37 4E 80 4F 80 50 80 51  80 00                    7N.O.P.Q..      
```

#### Opcodes

```
  0: 0x0266 [0x79] Volker (ID: 17748014/0x010ED02E) looks at Cornelia (ID: 17748018/0x010ED032) (Basic look)
  1: 0x0270 [0x37] UPDATE_EVENT_POSITION_AND_DIR: x=23.542*, z=-4.225*, y=-13.999*, direction=169.5°*
  2: 0x0279 [0x00] END_REQSTACK()
```

### Event 65535.20

#### Metadata

| Field        | Value    |
|--------------|----------|
| Entrypoint   | 0x027A   |
| Data Size    | 14 bytes |
| Instructions | 4        |

```
      00 01 02 03 04 05 06 07  08 09 0A 0B 0C 0D 0E 0F
      -- -- -- -- -- -- -- --  -- -- -- -- -- -- -- --
0270:                                32 04 80 1F 00 52            2....R
0280: 80 53 80 50 80 1F 01 00                           .S.P....        
```

#### Opcodes

```
  0: 0x027A [0x32] ExtData[1]->MainSpeed = 13* * 0.1
  1: 0x027D [0x1F] MOVE_ENTITY: EventEntity moves to X=52.149*, Z=-3.714*, Y=-13.999*
  2: 0x0285 [0x1F] MOVE_ENTITY: Update entity position (mode=1)
  3: 0x0287 [0x00] END_REQSTACK()
```

### Event 968

#### Metadata

| Field        | Value   |
|--------------|---------|
| Entrypoint   | 0x0288  |
| Data Size    | 1 bytes |
| Instructions | 1       |

```
      00 01 02 03 04 05 06 07  08 09 0A 0B 0C 0D 0E 0F
      -- -- -- -- -- -- -- --  -- -- -- -- -- -- -- --
0280:                          00                               .       
```

#### Opcodes

```
  0: 0x0288 [0x00] END_REQSTACK()
```

### Event 986

#### Metadata

| Field        | Value   |
|--------------|---------|
| Entrypoint   | 0x0289  |
| Data Size    | 1 bytes |
| Instructions | 1       |

```
      00 01 02 03 04 05 06 07  08 09 0A 0B 0C 0D 0E 0F
      -- -- -- -- -- -- -- --  -- -- -- -- -- -- -- --
0280:                             00                             .      
```

#### Opcodes

```
  0: 0x0289 [0x00] END_REQSTACK()
```

### Event 65535.21

#### Metadata

| Field        | Value    |
|--------------|----------|
| Entrypoint   | 0x028A   |
| Data Size    | 22 bytes |
| Instructions | 6        |

```
      00 01 02 03 04 05 06 07  08 09 0A 0B 0C 0D 0E 0F
      -- -- -- -- -- -- -- --  -- -- -- -- -- -- -- --
0280:                                32 04 80 1F 00 54            2....T
0290: 80 55 80 56 80 1F 01 1E  F0 FF FF 7F 1C 57 80 00  .U.V.........W..
```

#### Opcodes

```
  0: 0x028A [0x32] ExtData[1]->MainSpeed = 13* * 0.1
  1: 0x028D [0x1F] MOVE_ENTITY: EventEntity moves to X=61.370*, Z=-38.962*, Y=-16.390*
  2: 0x0295 [0x1F] MOVE_ENTITY: Update entity position (mode=1)
  3: 0x0297 [0x1E] EventEntity looks at LocalPlayer and starts talking
  4: 0x029C [0x1C] WAIT(30* ticks)
  5: 0x029F [0x00] END_REQSTACK()
```

### Event 1051

#### Metadata

| Field        | Value   |
|--------------|---------|
| Entrypoint   | 0x02A0  |
| Data Size    | 7 bytes |
| Instructions | 2       |

```
      00 01 02 03 04 05 06 07  08 09 0A 0B 0C 0D 0E 0F
      -- -- -- -- -- -- -- --  -- -- -- -- -- -- -- --
02A0: 92 01 F8 FF FF 7F 00                              .......         
```

#### Opcodes

```
  0: 0x02A0 [0x92] EventEntity->Render.Flags3 ^= 0x01
  1: 0x02A6 [0x00] END_REQSTACK()
```

### Event 65535.22

#### Metadata

| Field        | Value    |
|--------------|----------|
| Entrypoint   | 0x02A7   |
| Data Size    | 15 bytes |
| Instructions | 5        |

```
      00 01 02 03 04 05 06 07  08 09 0A 0B 0C 0D 0E 0F
      -- -- -- -- -- -- -- --  -- -- -- -- -- -- -- --
02A0:                      32  04 80 1F 00 58 80 59 80         2....X.Y.
02B0: 31 80 1F 01 6F 00                                 1...o.          
```

#### Opcodes

```
  0: 0x02A7 [0x32] ExtData[1]->MainSpeed = 13* * 0.1
  1: 0x02AA [0x1F] MOVE_ENTITY: EventEntity moves to X=85.722*, Z=0.140*, Y=-19.532*
  2: 0x02B2 [0x1F] MOVE_ENTITY: Update entity position (mode=1)
  3: 0x02B4 [0x6F] WAIT_FRAME_DELAY: Yield until WaitTime reaches zero
  4: 0x02B5 [0x00] END_REQSTACK()
```

### Event 65535.23

#### Metadata

| Field        | Value    |
|--------------|----------|
| Entrypoint   | 0x02B6   |
| Data Size    | 15 bytes |
| Instructions | 5        |

```
      00 01 02 03 04 05 06 07  08 09 0A 0B 0C 0D 0E 0F
      -- -- -- -- -- -- -- --  -- -- -- -- -- -- -- --
02B0:                   32 04  80 1F 00 5A 80 5B 80 31        2....Z.[.1
02C0: 80 1F 01 6F 00                                    ...o.           
```

#### Opcodes

```
  0: 0x02B6 [0x32] ExtData[1]->MainSpeed = 13* * 0.1
  1: 0x02B9 [0x1F] MOVE_ENTITY: EventEntity moves to X=88.333*, Z=-0.846*, Y=-19.532*
  2: 0x02C1 [0x1F] MOVE_ENTITY: Update entity position (mode=1)
  3: 0x02C3 [0x6F] WAIT_FRAME_DELAY: Yield until WaitTime reaches zero
  4: 0x02C4 [0x00] END_REQSTACK()
```

### Event 65535.24

#### Metadata

| Field        | Value    |
|--------------|----------|
| Entrypoint   | 0x02C5   |
| Data Size    | 15 bytes |
| Instructions | 5        |

```
      00 01 02 03 04 05 06 07  08 09 0A 0B 0C 0D 0E 0F
      -- -- -- -- -- -- -- --  -- -- -- -- -- -- -- --
02C0:                32 04 80  1F 00 5C 80 5D 80 3E 80       2....\.].>.
02D0: 1F 01 6F 00                                       ..o.            
```

#### Opcodes

```
  0: 0x02C5 [0x32] ExtData[1]->MainSpeed = 13* * 0.1
  1: 0x02C8 [0x1F] MOVE_ENTITY: EventEntity moves to X=77.762*, Z=-0.407*, Y=-19.531*
  2: 0x02D0 [0x1F] MOVE_ENTITY: Update entity position (mode=1)
  3: 0x02D2 [0x6F] WAIT_FRAME_DELAY: Yield until WaitTime reaches zero
  4: 0x02D3 [0x00] END_REQSTACK()
```

### Event 65535.25

#### Metadata

| Field        | Value    |
|--------------|----------|
| Entrypoint   | 0x02D4   |
| Data Size    | 16 bytes |
| Instructions | 2        |

```
      00 01 02 03 04 05 06 07  08 09 0A 0B 0C 0D 0E 0F
      -- -- -- -- -- -- -- --  -- -- -- -- -- -- -- --
02D0:             5B 07 80 F8  FF FF 7F F8 FF FF 7F 74      [..........t
02E0: 6C 61 30 00                                       la0.            
```

#### Opcodes

```
  0: 0x02D4 [0x5B] LOAD_EXT_SCHEDULER: Load scheduler "tla0" with entities [EventEntity, EventEntity], work=200*
  1: 0x02E3 [0x00] END_REQSTACK()
```

### Event 65535.26

#### Metadata

| Field        | Value    |
|--------------|----------|
| Entrypoint   | 0x02E4   |
| Data Size    | 14 bytes |
| Instructions | 2        |

```
      00 01 02 03 04 05 06 07  08 09 0A 0B 0C 0D 0E 0F
      -- -- -- -- -- -- -- --  -- -- -- -- -- -- -- --
02E0:             53 F8 FF FF  7F F8 FF FF 7F 74 6C 61      S........tla
02F0: 30 00                                             0.              
```

#### Opcodes

```
  0: 0x02E4 [0x53] WAIT_SCHEDULER_TASK: Wait for scheduler "tla0" with entities [EventEntity, EventEntity]
  1: 0x02F1 [0x00] END_REQSTACK()
```

### Event 65535.27

#### Metadata

| Field        | Value    |
|--------------|----------|
| Entrypoint   | 0x02F2   |
| Data Size    | 16 bytes |
| Instructions | 2        |

```
      00 01 02 03 04 05 06 07  08 09 0A 0B 0C 0D 0E 0F
      -- -- -- -- -- -- -- --  -- -- -- -- -- -- -- --
02F0:       5B 07 80 F8 FF FF  7F F8 FF FF 7F 74 6C 61    [..........tla
0300: 31 00                                             1.              
```

#### Opcodes

```
  0: 0x02F2 [0x5B] LOAD_EXT_SCHEDULER: Load scheduler "tla1" with entities [EventEntity, EventEntity], work=200*
  1: 0x0301 [0x00] END_REQSTACK()
```

### Event 65535.28

#### Metadata

| Field        | Value    |
|--------------|----------|
| Entrypoint   | 0x0302   |
| Data Size    | 14 bytes |
| Instructions | 2        |

```
      00 01 02 03 04 05 06 07  08 09 0A 0B 0C 0D 0E 0F
      -- -- -- -- -- -- -- --  -- -- -- -- -- -- -- --
0300:       53 F8 FF FF 7F F8  FF FF 7F 74 6C 61 31 00    S........tla1.
```

#### Opcodes

```
  0: 0x0302 [0x53] WAIT_SCHEDULER_TASK: Wait for scheduler "tla1" with entities [EventEntity, EventEntity]
  1: 0x030F [0x00] END_REQSTACK()
```

### Event 65535.29

#### Metadata

| Field        | Value    |
|--------------|----------|
| Entrypoint   | 0x0310   |
| Data Size    | 16 bytes |
| Instructions | 2        |

```
      00 01 02 03 04 05 06 07  08 09 0A 0B 0C 0D 0E 0F
      -- -- -- -- -- -- -- --  -- -- -- -- -- -- -- --
0310: 5B 07 80 F8 FF FF 7F F8  FF FF 7F 74 6C 62 30 00  [..........tlb0.
```

#### Opcodes

```
  0: 0x0310 [0x5B] LOAD_EXT_SCHEDULER: Load scheduler "tlb0" with entities [EventEntity, EventEntity], work=200*
  1: 0x031F [0x00] END_REQSTACK()
```

### Event 65535.30

#### Metadata

| Field        | Value    |
|--------------|----------|
| Entrypoint   | 0x0320   |
| Data Size    | 14 bytes |
| Instructions | 2        |

```
      00 01 02 03 04 05 06 07  08 09 0A 0B 0C 0D 0E 0F
      -- -- -- -- -- -- -- --  -- -- -- -- -- -- -- --
0320: 53 F8 FF FF 7F F8 FF FF  7F 74 6C 62 30 00        S........tlb0.  
```

#### Opcodes

```
  0: 0x0320 [0x53] WAIT_SCHEDULER_TASK: Wait for scheduler "tlb0" with entities [EventEntity, EventEntity]
  1: 0x032D [0x00] END_REQSTACK()
```

### Event 65535.31

#### Metadata

| Field        | Value    |
|--------------|----------|
| Entrypoint   | 0x032E   |
| Data Size    | 16 bytes |
| Instructions | 2        |

```
      00 01 02 03 04 05 06 07  08 09 0A 0B 0C 0D 0E 0F
      -- -- -- -- -- -- -- --  -- -- -- -- -- -- -- --
0320:                                            5B 07                [.
0330: 80 F8 FF FF 7F F8 FF FF  7F 74 6C 62 31 00        .........tlb1.  
```

#### Opcodes

```
  0: 0x032E [0x5B] LOAD_EXT_SCHEDULER: Load scheduler "tlb1" with entities [EventEntity, EventEntity], work=200*
  1: 0x033D [0x00] END_REQSTACK()
```

### Event 65535.32

#### Metadata

| Field        | Value    |
|--------------|----------|
| Entrypoint   | 0x033E   |
| Data Size    | 14 bytes |
| Instructions | 2        |

```
      00 01 02 03 04 05 06 07  08 09 0A 0B 0C 0D 0E 0F
      -- -- -- -- -- -- -- --  -- -- -- -- -- -- -- --
0330:                                            53 F8                S.
0340: FF FF 7F F8 FF FF 7F 74  6C 62 31 00              .......tlb1.    
```

#### Opcodes

```
  0: 0x033E [0x53] WAIT_SCHEDULER_TASK: Wait for scheduler "tlb1" with entities [EventEntity, EventEntity]
  1: 0x034B [0x00] END_REQSTACK()
```

### Event 65535.33

#### Metadata

| Field        | Value    |
|--------------|----------|
| Entrypoint   | 0x034C   |
| Data Size    | 16 bytes |
| Instructions | 2        |

```
      00 01 02 03 04 05 06 07  08 09 0A 0B 0C 0D 0E 0F
      -- -- -- -- -- -- -- --  -- -- -- -- -- -- -- --
0340:                                      5B 5E 80 F8              [^..
0350: FF FF 7F F8 FF FF 7F 68  67 73 30 00              .......hgs0.    
```

#### Opcodes

```
  0: 0x034C [0x5B] LOAD_EXT_SCHEDULER: Load scheduler "hgs0" with entities [EventEntity, EventEntity], work=202*
  1: 0x035B [0x00] END_REQSTACK()
```

### Event 65535.34

#### Metadata

| Field        | Value    |
|--------------|----------|
| Entrypoint   | 0x035C   |
| Data Size    | 14 bytes |
| Instructions | 2        |

```
      00 01 02 03 04 05 06 07  08 09 0A 0B 0C 0D 0E 0F
      -- -- -- -- -- -- -- --  -- -- -- -- -- -- -- --
0350:                                      53 F8 FF FF              S...
0360: 7F F8 FF FF 7F 68 67 73  30 00                    .....hgs0.      
```

#### Opcodes

```
  0: 0x035C [0x53] WAIT_SCHEDULER_TASK: Wait for scheduler "hgs0" with entities [EventEntity, EventEntity]
  1: 0x0369 [0x00] END_REQSTACK()
```

### Event 65535.35

#### Metadata

| Field        | Value    |
|--------------|----------|
| Entrypoint   | 0x036A   |
| Data Size    | 16 bytes |
| Instructions | 2        |

```
      00 01 02 03 04 05 06 07  08 09 0A 0B 0C 0D 0E 0F
      -- -- -- -- -- -- -- --  -- -- -- -- -- -- -- --
0360:                                5B 5E 80 F8 FF FF            [^....
0370: 7F F8 FF FF 7F 68 67 73  31 00                    .....hgs1.      
```

#### Opcodes

```
  0: 0x036A [0x5B] LOAD_EXT_SCHEDULER: Load scheduler "hgs1" with entities [EventEntity, EventEntity], work=202*
  1: 0x0379 [0x00] END_REQSTACK()
```

### Event 65535.36

#### Metadata

| Field        | Value    |
|--------------|----------|
| Entrypoint   | 0x037A   |
| Data Size    | 14 bytes |
| Instructions | 2        |

```
      00 01 02 03 04 05 06 07  08 09 0A 0B 0C 0D 0E 0F
      -- -- -- -- -- -- -- --  -- -- -- -- -- -- -- --
0370:                                53 F8 FF FF 7F F8            S.....
0380: FF FF 7F 68 67 73 31 00                           ...hgs1.        
```

#### Opcodes

```
  0: 0x037A [0x53] WAIT_SCHEDULER_TASK: Wait for scheduler "hgs1" with entities [EventEntity, EventEntity]
  1: 0x0387 [0x00] END_REQSTACK()
```

### Event 65535.37

#### Metadata

| Field        | Value    |
|--------------|----------|
| Entrypoint   | 0x0388   |
| Data Size    | 16 bytes |
| Instructions | 2        |

```
      00 01 02 03 04 05 06 07  08 09 0A 0B 0C 0D 0E 0F
      -- -- -- -- -- -- -- --  -- -- -- -- -- -- -- --
0380:                          5B 07 80 F8 FF FF 7F F8          [.......
0390: FF FF 7F 69 62 30 30 00                           ...ib00.        
```

#### Opcodes

```
  0: 0x0388 [0x5B] LOAD_EXT_SCHEDULER: Load scheduler "ib00" with entities [EventEntity, EventEntity], work=200*
  1: 0x0397 [0x00] END_REQSTACK()
```

### Event 65535.38

#### Metadata

| Field        | Value    |
|--------------|----------|
| Entrypoint   | 0x0398   |
| Data Size    | 14 bytes |
| Instructions | 2        |

```
      00 01 02 03 04 05 06 07  08 09 0A 0B 0C 0D 0E 0F
      -- -- -- -- -- -- -- --  -- -- -- -- -- -- -- --
0390:                          53 F8 FF FF 7F F8 FF FF          S.......
03A0: 7F 69 62 30 30 00                                 .ib00.          
```

#### Opcodes

```
  0: 0x0398 [0x53] WAIT_SCHEDULER_TASK: Wait for scheduler "ib00" with entities [EventEntity, EventEntity]
  1: 0x03A5 [0x00] END_REQSTACK()
```

### Event 65535.39

#### Metadata

| Field        | Value    |
|--------------|----------|
| Entrypoint   | 0x03A6   |
| Data Size    | 16 bytes |
| Instructions | 2        |

```
      00 01 02 03 04 05 06 07  08 09 0A 0B 0C 0D 0E 0F
      -- -- -- -- -- -- -- --  -- -- -- -- -- -- -- --
03A0:                   5B 07  80 F8 FF FF 7F F8 FF FF        [.........
03B0: 7F 69 62 30 31 00                                 .ib01.          
```

#### Opcodes

```
  0: 0x03A6 [0x5B] LOAD_EXT_SCHEDULER: Load scheduler "ib01" with entities [EventEntity, EventEntity], work=200*
  1: 0x03B5 [0x00] END_REQSTACK()
```

### Event 65535.40

#### Metadata

| Field        | Value    |
|--------------|----------|
| Entrypoint   | 0x03B6   |
| Data Size    | 14 bytes |
| Instructions | 2        |

```
      00 01 02 03 04 05 06 07  08 09 0A 0B 0C 0D 0E 0F
      -- -- -- -- -- -- -- --  -- -- -- -- -- -- -- --
03B0:                   53 F8  FF FF 7F F8 FF FF 7F 69        S........i
03C0: 62 30 31 00                                       b01.            
```

#### Opcodes

```
  0: 0x03B6 [0x53] WAIT_SCHEDULER_TASK: Wait for scheduler "ib01" with entities [EventEntity, EventEntity]
  1: 0x03C3 [0x00] END_REQSTACK()
```

### Event 65535.41

#### Metadata

| Field        | Value    |
|--------------|----------|
| Entrypoint   | 0x03C4   |
| Data Size    | 16 bytes |
| Instructions | 2        |

```
      00 01 02 03 04 05 06 07  08 09 0A 0B 0C 0D 0E 0F
      -- -- -- -- -- -- -- --  -- -- -- -- -- -- -- --
03C0:             5B 07 80 F8  FF FF 7F F8 FF FF 7F 6E      [..........n
03D0: 6F 74 30 00                                       ot0.            
```

#### Opcodes

```
  0: 0x03C4 [0x5B] LOAD_EXT_SCHEDULER: Load scheduler "not0" with entities [EventEntity, EventEntity], work=200*
  1: 0x03D3 [0x00] END_REQSTACK()
```

### Event 65535.42

#### Metadata

| Field        | Value    |
|--------------|----------|
| Entrypoint   | 0x03D4   |
| Data Size    | 14 bytes |
| Instructions | 2        |

```
      00 01 02 03 04 05 06 07  08 09 0A 0B 0C 0D 0E 0F
      -- -- -- -- -- -- -- --  -- -- -- -- -- -- -- --
03D0:             53 F8 FF FF  7F F8 FF FF 7F 6E 6F 74      S........not
03E0: 30 00                                             0.              
```

#### Opcodes

```
  0: 0x03D4 [0x53] WAIT_SCHEDULER_TASK: Wait for scheduler "not0" with entities [EventEntity, EventEntity]
  1: 0x03E1 [0x00] END_REQSTACK()
```

### Event 65535.43

#### Metadata

| Field        | Value    |
|--------------|----------|
| Entrypoint   | 0x03E2   |
| Data Size    | 16 bytes |
| Instructions | 2        |

```
      00 01 02 03 04 05 06 07  08 09 0A 0B 0C 0D 0E 0F
      -- -- -- -- -- -- -- --  -- -- -- -- -- -- -- --
03E0:       5B 07 80 F8 FF FF  7F F8 FF FF 7F 70 61 73    [..........pas
03F0: 30 00                                             0.              
```

#### Opcodes

```
  0: 0x03E2 [0x5B] LOAD_EXT_SCHEDULER: Load scheduler "pas0" with entities [EventEntity, EventEntity], work=200*
  1: 0x03F1 [0x00] END_REQSTACK()
```

### Event 65535.44

#### Metadata

| Field        | Value    |
|--------------|----------|
| Entrypoint   | 0x03F2   |
| Data Size    | 14 bytes |
| Instructions | 2        |

```
      00 01 02 03 04 05 06 07  08 09 0A 0B 0C 0D 0E 0F
      -- -- -- -- -- -- -- --  -- -- -- -- -- -- -- --
03F0:       53 F8 FF FF 7F F8  FF FF 7F 70 61 73 30 00    S........pas0.
```

#### Opcodes

```
  0: 0x03F2 [0x53] WAIT_SCHEDULER_TASK: Wait for scheduler "pas0" with entities [EventEntity, EventEntity]
  1: 0x03FF [0x00] END_REQSTACK()
```

### Event 65535.45

#### Metadata

| Field        | Value    |
|--------------|----------|
| Entrypoint   | 0x0400   |
| Data Size    | 16 bytes |
| Instructions | 2        |

```
      00 01 02 03 04 05 06 07  08 09 0A 0B 0C 0D 0E 0F
      -- -- -- -- -- -- -- --  -- -- -- -- -- -- -- --
0400: 5B 07 80 F8 FF FF 7F F8  FF FF 7F 74 68 6B 31 00  [..........thk1.
```

#### Opcodes

```
  0: 0x0400 [0x5B] LOAD_EXT_SCHEDULER: Load scheduler "thk1" with entities [EventEntity, EventEntity], work=200*
  1: 0x040F [0x00] END_REQSTACK()
```

### Event 65535.46

#### Metadata

| Field        | Value    |
|--------------|----------|
| Entrypoint   | 0x0410   |
| Data Size    | 14 bytes |
| Instructions | 2        |

```
      00 01 02 03 04 05 06 07  08 09 0A 0B 0C 0D 0E 0F
      -- -- -- -- -- -- -- --  -- -- -- -- -- -- -- --
0410: 53 F8 FF FF 7F F8 FF FF  7F 74 68 6B 31 00        S........thk1.  
```

#### Opcodes

```
  0: 0x0410 [0x53] WAIT_SCHEDULER_TASK: Wait for scheduler "thk1" with entities [EventEntity, EventEntity]
  1: 0x041D [0x00] END_REQSTACK()
```

### Event 65535.47

#### Metadata

| Field        | Value    |
|--------------|----------|
| Entrypoint   | 0x041E   |
| Data Size    | 16 bytes |
| Instructions | 2        |

```
      00 01 02 03 04 05 06 07  08 09 0A 0B 0C 0D 0E 0F
      -- -- -- -- -- -- -- --  -- -- -- -- -- -- -- --
0410:                                            5B 07                [.
0420: 80 F8 FF FF 7F F8 FF FF  7F 74 68 6B 32 00        .........thk2.  
```

#### Opcodes

```
  0: 0x041E [0x5B] LOAD_EXT_SCHEDULER: Load scheduler "thk2" with entities [EventEntity, EventEntity], work=200*
  1: 0x042D [0x00] END_REQSTACK()
```

### Event 65535.48

#### Metadata

| Field        | Value    |
|--------------|----------|
| Entrypoint   | 0x042E   |
| Data Size    | 14 bytes |
| Instructions | 2        |

```
      00 01 02 03 04 05 06 07  08 09 0A 0B 0C 0D 0E 0F
      -- -- -- -- -- -- -- --  -- -- -- -- -- -- -- --
0420:                                            53 F8                S.
0430: FF FF 7F F8 FF FF 7F 74  68 6B 32 00              .......thk2.    
```

#### Opcodes

```
  0: 0x042E [0x53] WAIT_SCHEDULER_TASK: Wait for scheduler "thk2" with entities [EventEntity, EventEntity]
  1: 0x043B [0x00] END_REQSTACK()
```
