# 17748018 - Cornelia

## Common Data

| Field            | Value                |
|------------------|----------------------|
| Zone             | Metalworks (ID: 237) |
| Block Size       | 2920 bytes           |
| Total Events     | 114                  |
| References Count | 157                  |

## List of Events

| Event ID                   | Entrypoint   |   Size |   Instructions |
|----------------------------|--------------|--------|----------------|
| [65535](#event-65535)      | 0x0000       |      1 |              1 |
| [715](#event-715)          | 0x0001       |     12 |              3 |
| [65535.1](#event-655351)   | 0x000D       |     16 |              5 |
| [65535.2](#event-655352)   | 0x001D       |     14 |              4 |
| [65535.3](#event-655353)   | 0x002B       |     16 |              5 |
| [720](#event-720)          | 0x003B       |     12 |              3 |
| [65535.4](#event-655354)   | 0x0047       |     24 |              6 |
| [65535.5](#event-655355)   | 0x005F       |     32 |              6 |
| [65535.6](#event-655356)   | 0x007F       |     24 |              6 |
| [65535.7](#event-655357)   | 0x0097       |     16 |              5 |
| [777](#event-777)          | 0x00A7       |     12 |              3 |
| [65535.8](#event-655358)   | 0x00B3       |     15 |              5 |
| [65535.9](#event-655359)   | 0x00C2       |     21 |              7 |
| [65535.10](#event-6553510) | 0x00D7       |     20 |              6 |
| [65535.11](#event-6553511) | 0x00EB       |     27 |              7 |
| [65535.12](#event-6553512) | 0x0106       |     14 |              4 |
| [65535.13](#event-6553513) | 0x0114       |     24 |              6 |
| [65535.14](#event-6553514) | 0x012C       |     23 |              5 |
| [764](#event-764)          | 0x0143       |      1 |              1 |
| [65535.15](#event-6553515) | 0x0144       |     45 |              9 |
| [65535.16](#event-6553516) | 0x0171       |     16 |              4 |
| [65535.17](#event-6553517) | 0x0181       |     16 |              4 |
| [765](#event-765)          | 0x0191       |     12 |              3 |
| [65535.18](#event-6553518) | 0x019D       |     17 |              5 |
| [782](#event-782)          | 0x01AE       |      1 |              1 |
| [65535.19](#event-6553519) | 0x01AF       |     10 |              2 |
| [65535.20](#event-6553520) | 0x01B9       |     14 |              4 |
| [65535.21](#event-6553521) | 0x01C7       |     21 |              4 |
| [65535.22](#event-6553522) | 0x01DC       |     21 |              4 |
| [65535.23](#event-6553523) | 0x01F1       |     21 |              4 |
| [65535.24](#event-6553524) | 0x0206       |     22 |              5 |
| [65535.25](#event-6553525) | 0x021C       |     21 |              4 |
| [65535.26](#event-6553526) | 0x0231       |     21 |              4 |
| [65535.27](#event-6553527) | 0x0246       |     21 |              4 |
| [65535.28](#event-6553528) | 0x025B       |     21 |              4 |
| [65535.29](#event-6553529) | 0x0270       |     21 |              4 |
| [65535.30](#event-6553530) | 0x0285       |     21 |              4 |
| [65535.31](#event-6553531) | 0x029A       |     21 |              4 |
| [65535.32](#event-6553532) | 0x02AF       |     14 |              4 |
| [845](#event-845)          | 0x02BD       |     16 |              3 |
| [65535.33](#event-6553533) | 0x02CD       |     24 |              6 |
| [65535.34](#event-6553534) | 0x02E5       |     38 |              8 |
| [852](#event-852)          | 0x030B       |     16 |              3 |
| [65535.35](#event-6553535) | 0x031B       |     38 |              8 |
| [855](#event-855)          | 0x0341       |     16 |              3 |
| [65535.36](#event-6553536) | 0x0351       |     17 |              6 |
| [1051](#event-1051)        | 0x0362       |      7 |              2 |
| [65535.37](#event-6553537) | 0x0369       |     15 |              5 |
| [65535.38](#event-6553538) | 0x0378       |     14 |              4 |
| [65535.39](#event-6553539) | 0x0386       |     15 |              5 |
| [65535.40](#event-6553540) | 0x0395       |     15 |              5 |
| [65535.41](#event-6553541) | 0x03A4       |     15 |              5 |
| [65535.42](#event-6553542) | 0x03B3       |     17 |              6 |
| [65535.43](#event-6553543) | 0x03C4       |     16 |              2 |
| [65535.44](#event-6553544) | 0x03D4       |     14 |              2 |
| [65535.45](#event-6553545) | 0x03E2       |     16 |              2 |
| [65535.46](#event-6553546) | 0x03F2       |     14 |              2 |
| [65535.47](#event-6553547) | 0x0400       |     16 |              2 |
| [65535.48](#event-6553548) | 0x0410       |     14 |              2 |
| [65535.49](#event-6553549) | 0x041E       |     16 |              2 |
| [65535.50](#event-6553550) | 0x042E       |     14 |              2 |
| [65535.51](#event-6553551) | 0x043C       |     16 |              2 |
| [65535.52](#event-6553552) | 0x044C       |     14 |              2 |
| [65535.53](#event-6553553) | 0x045A       |     16 |              2 |
| [65535.54](#event-6553554) | 0x046A       |     14 |              2 |
| [65535.55](#event-6553555) | 0x0478       |     16 |              2 |
| [65535.56](#event-6553556) | 0x0488       |     14 |              2 |
| [65535.57](#event-6553557) | 0x0496       |     16 |              2 |
| [65535.58](#event-6553558) | 0x04A6       |     14 |              2 |
| [65535.59](#event-6553559) | 0x04B4       |     16 |              2 |
| [65535.60](#event-6553560) | 0x04C4       |     14 |              2 |
| [65535.61](#event-6553561) | 0x04D2       |     16 |              2 |
| [65535.62](#event-6553562) | 0x04E2       |     14 |              2 |
| [65535.63](#event-6553563) | 0x04F0       |     16 |              2 |
| [65535.64](#event-6553564) | 0x0500       |     14 |              2 |
| [65535.65](#event-6553565) | 0x050E       |     16 |              2 |
| [65535.66](#event-6553566) | 0x051E       |     14 |              2 |
| [65535.67](#event-6553567) | 0x052C       |     16 |              2 |
| [65535.68](#event-6553568) | 0x053C       |     14 |              2 |
| [65535.69](#event-6553569) | 0x054A       |     22 |              3 |
| [65535.70](#event-6553570) | 0x0560       |     14 |              2 |
| [65535.71](#event-6553571) | 0x056E       |     22 |              3 |
| [65535.72](#event-6553572) | 0x0584       |     14 |              2 |
| [65535.73](#event-6553573) | 0x0592       |     16 |              2 |
| [65535.74](#event-6553574) | 0x05A2       |     14 |              2 |
| [65535.75](#event-6553575) | 0x05B0       |     16 |              2 |
| [65535.76](#event-6553576) | 0x05C0       |     14 |              2 |
| [65535.77](#event-6553577) | 0x05CE       |     16 |              2 |
| [65535.78](#event-6553578) | 0x05DE       |     14 |              2 |
| [65535.79](#event-6553579) | 0x05EC       |     16 |              2 |
| [65535.80](#event-6553580) | 0x05FC       |     14 |              2 |
| [65535.81](#event-6553581) | 0x060A       |     16 |              2 |
| [65535.82](#event-6553582) | 0x061A       |     14 |              2 |
| [65535.83](#event-6553583) | 0x0628       |     16 |              2 |
| [65535.84](#event-6553584) | 0x0638       |     14 |              2 |
| [65535.85](#event-6553585) | 0x0646       |     16 |              2 |
| [65535.86](#event-6553586) | 0x0656       |     14 |              2 |
| [65535.87](#event-6553587) | 0x0664       |     16 |              2 |
| [65535.88](#event-6553588) | 0x0674       |     14 |              2 |
| [65535.89](#event-6553589) | 0x0682       |     16 |              2 |
| [65535.90](#event-6553590) | 0x0692       |     14 |              2 |
| [65535.91](#event-6553591) | 0x06A0       |     16 |              2 |
| [65535.92](#event-6553592) | 0x06B0       |     14 |              2 |
| [1052](#event-1052)        | 0x06BE       |      7 |              2 |
| [65535.93](#event-6553593) | 0x06C5       |     15 |              5 |
| [65535.94](#event-6553594) | 0x06D4       |     15 |              5 |
| [65535.95](#event-6553595) | 0x06E3       |     15 |              5 |
| [65535.96](#event-6553596) | 0x06F2       |     22 |              8 |
| [65535.97](#event-6553597) | 0x0708       |     17 |              6 |
| [65535.98](#event-6553598) | 0x0719       |      2 |              2 |

## DAT References (imed_data)

|   Index | Hex Value   |   Dec Value |
|---------|-------------|-------------|
|       0 | 0x17086     |       94342 |
|       1 | 0xFFFFFDE3  |  4294966755 |
|       2 | 0xFFFFB138  |  4294947128 |
|       3 | 0x0779      |        1913 |
|       4 | 0x0028      |          40 |
|       5 | 0x156AE     |       87726 |
|       6 | 0x0000      |           0 |
|       7 | 0xFFFFB3B4  |  4294947764 |
|       8 | 0x15C01     |       89089 |
|       9 | 0x0203      |         515 |
|      10 | 0x11815     |       71701 |
|      11 | 0xFFFFFCF4  |  4294966516 |
|      12 | 0xFFFFBE7B  |  4294950523 |
|      13 | 0x17362     |       95074 |
|      14 | 0xFFFFFED3  |  4294966995 |
|      15 | 0xFFFFB136  |  4294947126 |
|      16 | 0x0FF2      |        4082 |
|      17 | 0x17D81     |       97665 |
|      18 | 0x035E      |         862 |
|      19 | 0xFFFFB12B  |  4294947115 |
|      20 | 0x184B8     |       99512 |
|      21 | 0x04FA      |        1274 |
|      22 | 0x000F      |          15 |
|      23 | 0x000D      |          13 |
|      24 | 0x185A9     |       99753 |
|      25 | 0x0708      |        1800 |
|      26 | 0x0093      |         147 |
|      27 | 0x18B26     |      101158 |
|      28 | 0x0B29      |        2857 |
|      29 | 0x18DAA     |      101802 |
|      30 | 0x0B44      |        2884 |
|      31 | 0x1AF33     |      110387 |
|      32 | 0xFFFFDAF7  |  4294957815 |
|      33 | 0x02CE      |         718 |
|      34 | 0x1B8A0     |      112800 |
|      35 | 0xFFFFDEA5  |  4294958757 |
|      36 | 0x0400      |        1024 |
|      37 | 0x0005      |           5 |
|      38 | 0x1AD05     |      109829 |
|      39 | 0xFFFFDA32  |  4294957618 |
|      40 | 0x003C      |          60 |
|      41 | 0x1A30E     |      107278 |
|      42 | 0xFFFFD159  |  4294955353 |
|      43 | 0xFFFFB12E  |  4294947118 |
|      44 | 0x19F8D     |      106381 |
|      45 | 0xFFFFCA0B  |  4294953483 |
|      46 | 0x1BC57     |      113751 |
|      47 | 0x0431      |        1073 |
|      48 | 0x19969     |      104809 |
|      49 | 0xFFFFD28D  |  4294955661 |
|      50 | 0xFFFFBAA6  |  4294949542 |
|      51 | 0xFFFFEF54  |  4294963028 |
|      52 | 0xFFFFD8F0  |  4294957296 |
|      53 | 0x0FAD      |        4013 |
|      54 | 0xFFFFC36D  |  4294951789 |
|      55 | 0xFFFFF1D0  |  4294963664 |
|      56 | 0xFFFFD514  |  4294956308 |
|      57 | 0xFFFFC9ED  |  4294953453 |
|      58 | 0xFFFFF953  |  4294965587 |
|      59 | 0xFFFF4EB1  |  4294921905 |
|      60 | 0xFFFFD206  |  4294955526 |
|      61 | 0xFFFFD8EF  |  4294957295 |
|      62 | 0x0CF5      |        3317 |
|      63 | 0x1B278     |      111224 |
|      64 | 0xFFFFDCA5  |  4294958245 |
|      65 | 0x0FE3      |        4067 |
|      66 | 0x1B037     |      110647 |
|      67 | 0xFFFFDA22  |  4294957602 |
|      68 | 0x0799      |        1945 |
|      69 | 0xFFFBFBB2  |  4294704050 |
|      70 | 0xFFFEBACE  |  4294884046 |
|      71 | 0xFFFFD10B  |  4294955275 |
|      72 | 0x0A84      |        2692 |
|      73 | 0xFFFBE768  |  4294698856 |
|      74 | 0xFFFEA583  |  4294878595 |
|      75 | 0xFFFB6E29  |  4294667817 |
|      76 | 0xFFFD9CEE  |  4294810862 |
|      77 | 0xFFFFC19D  |  4294951325 |
|      78 | 0x00F3      |         243 |
|      79 | 0xFFFF7E72  |  4294934130 |
|      80 | 0xFFFEE400  |  4294894592 |
|      81 | 0xFFFFE558  |  4294960472 |
|      82 | 0x006A      |         106 |
|      83 | 0x3C87      |       15495 |
|      84 | 0xFFFFC0A6  |  4294951078 |
|      85 | 0x1B49      |        6985 |
|      86 | 0x0E0D      |        3597 |
|      87 | 0xCB73      |       52083 |
|      88 | 0xFFFF750E  |  4294931726 |
|      89 | 0xFFFFFFC5  |  4294967237 |
|      90 | 0x013F      |         319 |
|      91 | 0x20FF2     |      135154 |
|      92 | 0x8EE4      |       36580 |
|      93 | 0xFFFFB7D5  |  4294948821 |
|      94 | 0x0A64      |        2660 |
|      95 | 0xFFFFD4DB  |  4294956251 |
|      96 | 0x0274      |         628 |
|      97 | 0x0A27      |        2599 |
|      98 | 0xF652      |       63058 |
|      99 | 0xFFFFF0CF  |  4294963407 |
|     100 | 0xFFFFC951  |  4294953297 |
|     101 | 0x00EA      |         234 |
|     102 | 0xE96C      |       59756 |
|     103 | 0xFFFF605B  |  4294926427 |
|     104 | 0xFFFFBFFA  |  4294950906 |
|     105 | 0x02F7      |         759 |
|     106 | 0x166C8     |       91848 |
|     107 | 0x0258      |         600 |
|     108 | 0x0DBB      |        3515 |
|     109 | 0x1A0F7     |      106743 |
|     110 | 0x37E5      |       14309 |
|     111 | 0x0DDB      |        3547 |
|     112 | 0x54BE      |       21694 |
|     113 | 0xFFFFF01F  |  4294963231 |
|     114 | 0xFFFFC950  |  4294953296 |
|     115 | 0x0118      |         280 |
|     116 | 0x393A      |       14650 |
|     117 | 0xFFFFE346  |  4294959942 |
|     118 | 0xFFFFC8F8  |  4294953208 |
|     119 | 0xFFFFEE6C  |  4294962796 |
|     120 | 0x0CD9      |        3289 |
|     121 | 0xFFFFCD80  |  4294954368 |
|     122 | 0xFFFFFDD5  |  4294966741 |
|     123 | 0xFFFFC2C7  |  4294951623 |
|     124 | 0xFFFFF767  |  4294965095 |
|     125 | 0x0092      |         146 |
|     126 | 0xFFFF6DED  |  4294929901 |
|     127 | 0xFFFFF8FB  |  4294965499 |
|     128 | 0xFFFFD8F1  |  4294957297 |
|     129 | 0x0059      |          89 |
|     130 | 0xFFFF95AB  |  4294940075 |
|     131 | 0xFFFFFBD6  |  4294966230 |
|     132 | 0xFFFF71D3  |  4294930899 |
|     133 | 0xFFFFF9C5  |  4294965701 |
|     134 | 0x0F8D      |        3981 |
|     135 | 0xFFFF9683  |  4294940291 |
|     136 | 0x17210     |       94736 |
|     137 | 0xFFFFFF38  |  4294967096 |
|     138 | 0x16730     |       91952 |
|     139 | 0x15F31     |       89905 |
|     140 | 0x162CB     |       90827 |
|     141 | 0xFFFFFE73  |  4294966899 |
|     142 | 0x15FD9     |       90073 |
|     143 | 0xFFFFFC22  |  4294966306 |
|     144 | 0x12F20     |       77600 |
|     145 | 0xFFFFFC9D  |  4294966429 |
|     146 | 0xFFFFB3B5  |  4294947765 |
|     147 | 0x0091      |         145 |
|     148 | 0x0094      |         148 |
|     149 | 0x143CB     |       82891 |
|     150 | 0x0064      |         100 |
|     151 | 0x14EDA     |       85722 |
|     152 | 0x008C      |         140 |
|     153 | 0x157CF     |       88015 |
|     154 | 0xFFFFF8A5  |  4294965413 |
|     155 | 0x1564B     |       87627 |
|     156 | 0xFFFFFCC3  |  4294966467 |

## Events

### Event 65535

#### Metadata

| Field        | Value   |
|--------------|---------|
| Entrypoint   | 0x0000  |
| Data Size    | 1 bytes |
| Instructions | 1       |

```
      00 01 02 03 04 05 06 07  08 09 0A 0B 0C 0D 0E 0F
      -- -- -- -- -- -- -- --  -- -- -- -- -- -- -- --
0000: 00                                                .               
```

#### Opcodes

```
  0: 0x0000 [0x00] END_REQSTACK()
```

### Event 715

#### Metadata

| Field        | Value    |
|--------------|----------|
| Entrypoint   | 0x0001   |
| Data Size    | 12 bytes |
| Instructions | 3        |

```
      00 01 02 03 04 05 06 07  08 09 0A 0B 0C 0D 0E 0F
      -- -- -- -- -- -- -- --  -- -- -- -- -- -- -- --
0000:    22 01 37 00 80 01 80  02 80 03 80 00            ".7.........   
```

#### Opcodes

```
  0: 0x0001 [0x22] ENTITY_HIDE_FLAG(enabled=0x01)
  1: 0x0003 [0x37] UPDATE_EVENT_POSITION_AND_DIR: x=94.342*, z=-0.541*, y=-20.168*, direction=168.1°*
  2: 0x000C [0x00] END_REQSTACK()
```

### Event 65535.1

#### Metadata

| Field        | Value    |
|--------------|----------|
| Entrypoint   | 0x000D   |
| Data Size    | 16 bytes |
| Instructions | 5        |

```
      00 01 02 03 04 05 06 07  08 09 0A 0B 0C 0D 0E 0F
      -- -- -- -- -- -- -- --  -- -- -- -- -- -- -- --
0000:                                         22 00 32               ".2
0010: 04 80 1F 00 05 80 06 80  07 80 1F 01 00           .............   
```

#### Opcodes

```
  0: 0x000D [0x22] ENTITY_HIDE_FLAG(enabled=0x00)
  1: 0x000F [0x32] ExtData[1]->MainSpeed = 40* * 0.1
  2: 0x0012 [0x1F] MOVE_ENTITY: EventEntity moves to X=87.726*, Z=0.000*, Y=-19.532*
  3: 0x001A [0x1F] MOVE_ENTITY: Update entity position (mode=1)
  4: 0x001C [0x00] END_REQSTACK()
```

### Event 65535.2

#### Metadata

| Field        | Value    |
|--------------|----------|
| Entrypoint   | 0x001D   |
| Data Size    | 14 bytes |
| Instructions | 4        |

```
      00 01 02 03 04 05 06 07  08 09 0A 0B 0C 0D 0E 0F
      -- -- -- -- -- -- -- --  -- -- -- -- -- -- -- --
0010:                                         32 04 80               2..
0020: 1F 00 08 80 09 80 07 80  1F 01 00                 ...........     
```

#### Opcodes

```
  0: 0x001D [0x32] ExtData[1]->MainSpeed = 40* * 0.1
  1: 0x0020 [0x1F] MOVE_ENTITY: EventEntity moves to X=89.089*, Z=0.515*, Y=-19.532*
  2: 0x0028 [0x1F] MOVE_ENTITY: Update entity position (mode=1)
  3: 0x002A [0x00] END_REQSTACK()
```

### Event 65535.3

#### Metadata

| Field        | Value    |
|--------------|----------|
| Entrypoint   | 0x002B   |
| Data Size    | 16 bytes |
| Instructions | 5        |

```
      00 01 02 03 04 05 06 07  08 09 0A 0B 0C 0D 0E 0F
      -- -- -- -- -- -- -- --  -- -- -- -- -- -- -- --
0020:                                   32 04 80 1F 00             2....
0030: 0A 80 0B 80 0C 80 1F 01  22 01 00                 ........"..     
```

#### Opcodes

```
  0: 0x002B [0x32] ExtData[1]->MainSpeed = 40* * 0.1
  1: 0x002E [0x1F] MOVE_ENTITY: EventEntity moves to X=71.701*, Z=-0.780*, Y=-16.773*
  2: 0x0036 [0x1F] MOVE_ENTITY: Update entity position (mode=1)
  3: 0x0038 [0x22] ENTITY_HIDE_FLAG(enabled=0x01)
  4: 0x003A [0x00] END_REQSTACK()
```

### Event 720

#### Metadata

| Field        | Value    |
|--------------|----------|
| Entrypoint   | 0x003B   |
| Data Size    | 12 bytes |
| Instructions | 3        |

```
      00 01 02 03 04 05 06 07  08 09 0A 0B 0C 0D 0E 0F
      -- -- -- -- -- -- -- --  -- -- -- -- -- -- -- --
0030:                                   22 01 37 0D 80             ".7..
0040: 0E 80 0F 80 10 80 00                              .......         
```

#### Opcodes

```
  0: 0x003B [0x22] ENTITY_HIDE_FLAG(enabled=0x01)
  1: 0x003D [0x37] UPDATE_EVENT_POSITION_AND_DIR: x=95.074*, z=-0.301*, y=-20.170*, direction=358.8°*
  2: 0x0046 [0x00] END_REQSTACK()
```

### Event 65535.4

#### Metadata

| Field        | Value    |
|--------------|----------|
| Entrypoint   | 0x0047   |
| Data Size    | 24 bytes |
| Instructions | 6        |

```
      00 01 02 03 04 05 06 07  08 09 0A 0B 0C 0D 0E 0F
      -- -- -- -- -- -- -- --  -- -- -- -- -- -- -- --
0040:                      32  04 80 1F 00 11 80 12 80         2........
0050: 13 80 1F 01 1F 00 14 80  15 80 13 80 1F 01 00     ............... 
```

#### Opcodes

```
  0: 0x0047 [0x32] ExtData[1]->MainSpeed = 40* * 0.1
  1: 0x004A [0x1F] MOVE_ENTITY: EventEntity moves to X=97.665*, Z=0.862*, Y=-20.181*
  2: 0x0052 [0x1F] MOVE_ENTITY: Update entity position (mode=1)
  3: 0x0054 [0x1F] MOVE_ENTITY: EventEntity moves to X=99.512*, Z=1.274*, Y=-20.181*
  4: 0x005C [0x1F] MOVE_ENTITY: Update entity position (mode=1)
  5: 0x005E [0x00] END_REQSTACK()
```

### Event 65535.5

#### Metadata

| Field        | Value    |
|--------------|----------|
| Entrypoint   | 0x005F   |
| Data Size    | 32 bytes |
| Instructions | 6        |

```
      00 01 02 03 04 05 06 07  08 09 0A 0B 0C 0D 0E 0F
      -- -- -- -- -- -- -- --  -- -- -- -- -- -- -- --
0050:                                               1C                 .
0060: 16 80 32 17 80 1F 00 18  80 19 80 13 80 1F 01 5B  ..2............[
0070: 1A 80 32 D0 0E 01 32 D0  0E 01 72 6F 75 30 00     ..2...2...rou0. 
```

#### Opcodes

```
  0: 0x005F [0x1C] WAIT(15* ticks)
  1: 0x0062 [0x32] ExtData[1]->MainSpeed = 13* * 0.1
  2: 0x0065 [0x1F] MOVE_ENTITY: EventEntity moves to X=99.753*, Z=1.800*, Y=-20.181*
  3: 0x006D [0x1F] MOVE_ENTITY: Update entity position (mode=1)
  4: 0x006F [0x5B] LOAD_EXT_SCHEDULER: Load scheduler "rou0" with entities [Cornelia (ID: 17748018/0x010ED032), Cornelia (ID: 17748018/0x010ED032)], work=147*
  5: 0x007E [0x00] END_REQSTACK()
```

### Event 65535.6

#### Metadata

| Field        | Value    |
|--------------|----------|
| Entrypoint   | 0x007F   |
| Data Size    | 24 bytes |
| Instructions | 6        |

```
      00 01 02 03 04 05 06 07  08 09 0A 0B 0C 0D 0E 0F
      -- -- -- -- -- -- -- --  -- -- -- -- -- -- -- --
0070:                                               32                 2
0080: 04 80 1F 00 1B 80 1C 80  0F 80 1F 01 1F 00 1D 80  ................
0090: 1E 80 0F 80 1F 01 00                              .......         
```

#### Opcodes

```
  0: 0x007F [0x32] ExtData[1]->MainSpeed = 40* * 0.1
  1: 0x0082 [0x1F] MOVE_ENTITY: EventEntity moves to X=101.158*, Z=2.857*, Y=-20.170*
  2: 0x008A [0x1F] MOVE_ENTITY: Update entity position (mode=1)
  3: 0x008C [0x1F] MOVE_ENTITY: EventEntity moves to X=101.802*, Z=2.884*, Y=-20.170*
  4: 0x0094 [0x1F] MOVE_ENTITY: Update entity position (mode=1)
  5: 0x0096 [0x00] END_REQSTACK()
```

### Event 65535.7

#### Metadata

| Field        | Value    |
|--------------|----------|
| Entrypoint   | 0x0097   |
| Data Size    | 16 bytes |
| Instructions | 5        |

```
      00 01 02 03 04 05 06 07  08 09 0A 0B 0C 0D 0E 0F
      -- -- -- -- -- -- -- --  -- -- -- -- -- -- -- --
0090:                      32  04 80 1F 00 14 80 15 80         2........
00A0: 13 80 1F 01 22 01 00                              ...."..         
```

#### Opcodes

```
  0: 0x0097 [0x32] ExtData[1]->MainSpeed = 40* * 0.1
  1: 0x009A [0x1F] MOVE_ENTITY: EventEntity moves to X=99.512*, Z=1.274*, Y=-20.181*
  2: 0x00A2 [0x1F] MOVE_ENTITY: Update entity position (mode=1)
  3: 0x00A4 [0x22] ENTITY_HIDE_FLAG(enabled=0x01)
  4: 0x00A6 [0x00] END_REQSTACK()
```

### Event 777

#### Metadata

| Field        | Value    |
|--------------|----------|
| Entrypoint   | 0x00A7   |
| Data Size    | 12 bytes |
| Instructions | 3        |

```
      00 01 02 03 04 05 06 07  08 09 0A 0B 0C 0D 0E 0F
      -- -- -- -- -- -- -- --  -- -- -- -- -- -- -- --
00A0:                      22  00 37 1F 80 20 80 0F 80         ".7.. ...
00B0: 21 80 00                                          !..             
```

#### Opcodes

```
  0: 0x00A7 [0x22] ENTITY_HIDE_FLAG(enabled=0x00)
  1: 0x00A9 [0x37] UPDATE_EVENT_POSITION_AND_DIR: x=110.387*, z=-9.481*, y=-20.170*, direction=63.1°*
  2: 0x00B2 [0x00] END_REQSTACK()
```

### Event 65535.8

#### Metadata

| Field        | Value    |
|--------------|----------|
| Entrypoint   | 0x00B3   |
| Data Size    | 15 bytes |
| Instructions | 5        |

```
      00 01 02 03 04 05 06 07  08 09 0A 0B 0C 0D 0E 0F
      -- -- -- -- -- -- -- --  -- -- -- -- -- -- -- --
00B0:          32 17 80 1F 00  22 80 23 80 0F 80 1F 01     2....".#.....
00C0: 6F 00                                             o.              
```

#### Opcodes

```
  0: 0x00B3 [0x32] ExtData[1]->MainSpeed = 13* * 0.1
  1: 0x00B6 [0x1F] MOVE_ENTITY: EventEntity moves to X=112.800*, Z=-8.539*, Y=-20.170*
  2: 0x00BE [0x1F] MOVE_ENTITY: Update entity position (mode=1)
  3: 0x00C0 [0x6F] WAIT_FRAME_DELAY: Yield until WaitTime reaches zero
  4: 0x00C1 [0x00] END_REQSTACK()
```

### Event 65535.9

#### Metadata

| Field        | Value    |
|--------------|----------|
| Entrypoint   | 0x00C2   |
| Data Size    | 21 bytes |
| Instructions | 7        |

```
      00 01 02 03 04 05 06 07  08 09 0A 0B 0C 0D 0E 0F
      -- -- -- -- -- -- -- --  -- -- -- -- -- -- -- --
00C0:       32 17 80 1F 00 22  80 23 80 0F 80 1F 01 1E    2....".#......
00D0: F0 FF FF 7F 6F 70 00                              ....op.         
```

#### Opcodes

```
  0: 0x00C2 [0x32] ExtData[1]->MainSpeed = 13* * 0.1
  1: 0x00C5 [0x1F] MOVE_ENTITY: EventEntity moves to X=112.800*, Z=-8.539*, Y=-20.170*
  2: 0x00CD [0x1F] MOVE_ENTITY: Update entity position (mode=1)
  3: 0x00CF [0x1E] EventEntity looks at LocalPlayer and starts talking
  4: 0x00D4 [0x6F] WAIT_FRAME_DELAY: Yield until WaitTime reaches zero
  5: 0x00D5 [0x70] WAIT_ENTITY_RENDER_FLAG: Wait while EventEntity->Render.Flags3 bit 2 is set (cancel turn if not)
  6: 0x00D6 [0x00] END_REQSTACK()
```

### Event 65535.10

#### Metadata

| Field        | Value    |
|--------------|----------|
| Entrypoint   | 0x00D7   |
| Data Size    | 20 bytes |
| Instructions | 6        |

```
      00 01 02 03 04 05 06 07  08 09 0A 0B 0C 0D 0E 0F
      -- -- -- -- -- -- -- --  -- -- -- -- -- -- -- --
00D0:                      39  24 80 1C 25 80 32 17 80         9$..%.2..
00E0: 1F 00 26 80 27 80 0F 80  1F 01 00                 ..&.'......     
```

#### Opcodes

```
  0: 0x00D7 [0x39] SET_ENTITY_DIRECTION(direction=5.6°*)
  1: 0x00DA [0x1C] WAIT(5* ticks)
  2: 0x00DD [0x32] ExtData[1]->MainSpeed = 13* * 0.1
  3: 0x00E0 [0x1F] MOVE_ENTITY: EventEntity moves to X=109.829*, Z=-9.678*, Y=-20.170*
  4: 0x00E8 [0x1F] MOVE_ENTITY: Update entity position (mode=1)
  5: 0x00EA [0x00] END_REQSTACK()
```

### Event 65535.11

#### Metadata

| Field        | Value    |
|--------------|----------|
| Entrypoint   | 0x00EB   |
| Data Size    | 27 bytes |
| Instructions | 7        |

```
      00 01 02 03 04 05 06 07  08 09 0A 0B 0C 0D 0E 0F
      -- -- -- -- -- -- -- --  -- -- -- -- -- -- -- --
00E0:                                   1C 28 80 32 17             .(.2.
00F0: 80 1F 00 29 80 2A 80 2B  80 1F 01 1F 00 2C 80 2D  ...).*.+.....,.-
0100: 80 2B 80 1F 01 00                                 .+....          
```

#### Opcodes

```
  0: 0x00EB [0x1C] WAIT(60* ticks)
  1: 0x00EE [0x32] ExtData[1]->MainSpeed = 13* * 0.1
  2: 0x00F1 [0x1F] MOVE_ENTITY: EventEntity moves to X=107.278*, Z=-11.943*, Y=-20.178*
  3: 0x00F9 [0x1F] MOVE_ENTITY: Update entity position (mode=1)
  4: 0x00FB [0x1F] MOVE_ENTITY: EventEntity moves to X=106.381*, Z=-13.813*, Y=-20.178*
  5: 0x0103 [0x1F] MOVE_ENTITY: Update entity position (mode=1)
  6: 0x0105 [0x00] END_REQSTACK()
```

### Event 65535.12

#### Metadata

| Field        | Value    |
|--------------|----------|
| Entrypoint   | 0x0106   |
| Data Size    | 14 bytes |
| Instructions | 4        |

```
      00 01 02 03 04 05 06 07  08 09 0A 0B 0C 0D 0E 0F
      -- -- -- -- -- -- -- --  -- -- -- -- -- -- -- --
0100:                   32 04  80 1F 00 2E 80 2F 80 0F        2....../..
0110: 80 1F 01 00                                       ....            
```

#### Opcodes

```
  0: 0x0106 [0x32] ExtData[1]->MainSpeed = 40* * 0.1
  1: 0x0109 [0x1F] MOVE_ENTITY: EventEntity moves to X=113.751*, Z=1.073*, Y=-20.170*
  2: 0x0111 [0x1F] MOVE_ENTITY: Update entity position (mode=1)
  3: 0x0113 [0x00] END_REQSTACK()
```

### Event 65535.13

#### Metadata

| Field        | Value    |
|--------------|----------|
| Entrypoint   | 0x0114   |
| Data Size    | 24 bytes |
| Instructions | 6        |

```
      00 01 02 03 04 05 06 07  08 09 0A 0B 0C 0D 0E 0F
      -- -- -- -- -- -- -- --  -- -- -- -- -- -- -- --
0110:             32 04 80 1F  00 22 80 23 80 0F 80 1F      2....".#....
0120: 01 1F 00 2E 80 2F 80 0F  80 1F 01 00              ...../......    
```

#### Opcodes

```
  0: 0x0114 [0x32] ExtData[1]->MainSpeed = 40* * 0.1
  1: 0x0117 [0x1F] MOVE_ENTITY: EventEntity moves to X=112.800*, Z=-8.539*, Y=-20.170*
  2: 0x011F [0x1F] MOVE_ENTITY: Update entity position (mode=1)
  3: 0x0121 [0x1F] MOVE_ENTITY: EventEntity moves to X=113.751*, Z=1.073*, Y=-20.170*
  4: 0x0129 [0x1F] MOVE_ENTITY: Update entity position (mode=1)
  5: 0x012B [0x00] END_REQSTACK()
```

### Event 65535.14

#### Metadata

| Field        | Value    |
|--------------|----------|
| Entrypoint   | 0x012C   |
| Data Size    | 23 bytes |
| Instructions | 5        |

```
      00 01 02 03 04 05 06 07  08 09 0A 0B 0C 0D 0E 0F
      -- -- -- -- -- -- -- --  -- -- -- -- -- -- -- --
0120:                                      32 17 80 1F              2...
0130: 00 30 80 31 80 2B 80 1F  01 4A F0 FF FF 7F F8 FF  .0.1.+...J......
0140: FF 7F 00                                          ...             
```

#### Opcodes

```
  0: 0x012C [0x32] ExtData[1]->MainSpeed = 13* * 0.1
  1: 0x012F [0x1F] MOVE_ENTITY: EventEntity moves to X=104.809*, Z=-11.635*, Y=-20.178*
  2: 0x0137 [0x1F] MOVE_ENTITY: Update entity position (mode=1)
  3: 0x0139 [0x4A] LocalPlayer looks at EventEntity
  4: 0x0142 [0x00] END_REQSTACK()
```

### Event 764

#### Metadata

| Field        | Value   |
|--------------|---------|
| Entrypoint   | 0x0143  |
| Data Size    | 1 bytes |
| Instructions | 1       |

```
      00 01 02 03 04 05 06 07  08 09 0A 0B 0C 0D 0E 0F
      -- -- -- -- -- -- -- --  -- -- -- -- -- -- -- --
0140:          00                                          .            
```

#### Opcodes

```
  0: 0x0143 [0x00] END_REQSTACK()
```

### Event 65535.15

#### Metadata

| Field        | Value    |
|--------------|----------|
| Entrypoint   | 0x0144   |
| Data Size    | 45 bytes |
| Instructions | 9        |

```
      00 01 02 03 04 05 06 07  08 09 0A 0B 0C 0D 0E 0F
      -- -- -- -- -- -- -- --  -- -- -- -- -- -- -- --
0140:             22 00 37 32  80 33 80 34 80 35 80 79      ".72.3.4.5.y
0150: 00 F8 FF FF 7F 2B D0 0E  01 32 17 80 1F 00 36 80  .....+...2....6.
0160: 37 80 38 80 1F 01 1F 00  39 80 3A 80 38 80 1F 01  7.8.....9.:.8...
0170: 00                                                .               
```

#### Opcodes

```
  0: 0x0144 [0x22] ENTITY_HIDE_FLAG(enabled=0x00)
  1: 0x0146 [0x37] UPDATE_EVENT_POSITION_AND_DIR: x=-17.754*, z=-4.268*, y=-10.000*, direction=352.7°*
  2: 0x014F [0x79] EventEntity looks at Cid (ID: 17748011/0x010ED02B) (Basic look)
  3: 0x0159 [0x32] ExtData[1]->MainSpeed = 13* * 0.1
  4: 0x015C [0x1F] MOVE_ENTITY: EventEntity moves to X=-15.507*, Z=-3.632*, Y=-10.988*
  5: 0x0164 [0x1F] MOVE_ENTITY: Update entity position (mode=1)
  6: 0x0166 [0x1F] MOVE_ENTITY: EventEntity moves to X=-13.843*, Z=-1.709*, Y=-10.988*
  7: 0x016E [0x1F] MOVE_ENTITY: Update entity position (mode=1)
  8: 0x0170 [0x00] END_REQSTACK()
```

### Event 65535.16

#### Metadata

| Field        | Value    |
|--------------|----------|
| Entrypoint   | 0x0171   |
| Data Size    | 16 bytes |
| Instructions | 4        |

```
      00 01 02 03 04 05 06 07  08 09 0A 0B 0C 0D 0E 0F
      -- -- -- -- -- -- -- --  -- -- -- -- -- -- -- --
0170:    37 3B 80 3C 80 3D 80  1A 80 84 80 F8 FF FF 7F   7;.<.=.........
0180: 00                                                .               
```

#### Opcodes

```
  0: 0x0171 [0x37] UPDATE_EVENT_POSITION_AND_DIR: x=-45.391*, z=-11.770*, y=-10.001*, direction=12.9°*
  1: 0x017A [0x84] ADJUST_RENDER_FLAGS3_BIT0()
  2: 0x017B [0x80] LOAD_WAIT(entity=EventEntity)
  3: 0x0180 [0x00] END_REQSTACK()
```

### Event 65535.17

#### Metadata

| Field        | Value    |
|--------------|----------|
| Entrypoint   | 0x0181   |
| Data Size    | 16 bytes |
| Instructions | 4        |

```
      00 01 02 03 04 05 06 07  08 09 0A 0B 0C 0D 0E 0F
      -- -- -- -- -- -- -- --  -- -- -- -- -- -- -- --
0180:    37 39 80 3A 80 38 80  3E 80 84 80 F8 FF FF 7F   79.:.8.>.......
0190: 00                                                .               
```

#### Opcodes

```
  0: 0x0181 [0x37] UPDATE_EVENT_POSITION_AND_DIR: x=-13.843*, z=-1.709*, y=-10.988*, direction=291.5°*
  1: 0x018A [0x84] ADJUST_RENDER_FLAGS3_BIT0()
  2: 0x018B [0x80] LOAD_WAIT(entity=EventEntity)
  3: 0x0190 [0x00] END_REQSTACK()
```

### Event 765

#### Metadata

| Field        | Value    |
|--------------|----------|
| Entrypoint   | 0x0191   |
| Data Size    | 12 bytes |
| Instructions | 3        |

```
      00 01 02 03 04 05 06 07  08 09 0A 0B 0C 0D 0E 0F
      -- -- -- -- -- -- -- --  -- -- -- -- -- -- -- --
0190:    22 00 37 3F 80 40 80  0F 80 41 80 00            ".7?.@...A..   
```

#### Opcodes

```
  0: 0x0191 [0x22] ENTITY_HIDE_FLAG(enabled=0x00)
  1: 0x0193 [0x37] UPDATE_EVENT_POSITION_AND_DIR: x=111.224*, z=-9.051*, y=-20.170*, direction=357.4°*
  2: 0x019C [0x00] END_REQSTACK()
```

### Event 65535.18

#### Metadata

| Field        | Value    |
|--------------|----------|
| Entrypoint   | 0x019D   |
| Data Size    | 17 bytes |
| Instructions | 5        |

```
      00 01 02 03 04 05 06 07  08 09 0A 0B 0C 0D 0E 0F
      -- -- -- -- -- -- -- --  -- -- -- -- -- -- -- --
0190:                                         32 04 80               2..
01A0: 1F 00 42 80 43 80 0F 80  1F 01 39 44 80 00        ..B.C.....9D..  
```

#### Opcodes

```
  0: 0x019D [0x32] ExtData[1]->MainSpeed = 40* * 0.1
  1: 0x01A0 [0x1F] MOVE_ENTITY: EventEntity moves to X=110.647*, Z=-9.694*, Y=-20.170*
  2: 0x01A8 [0x1F] MOVE_ENTITY: Update entity position (mode=1)
  3: 0x01AA [0x39] SET_ENTITY_DIRECTION(direction=10.7°*)
  4: 0x01AD [0x00] END_REQSTACK()
```

### Event 782

#### Metadata

| Field        | Value   |
|--------------|---------|
| Entrypoint   | 0x01AE  |
| Data Size    | 1 bytes |
| Instructions | 1       |

```
      00 01 02 03 04 05 06 07  08 09 0A 0B 0C 0D 0E 0F
      -- -- -- -- -- -- -- --  -- -- -- -- -- -- -- --
01A0:                                            00                   . 
```

#### Opcodes

```
  0: 0x01AE [0x00] END_REQSTACK()
```

### Event 65535.19

#### Metadata

| Field        | Value    |
|--------------|----------|
| Entrypoint   | 0x01AF   |
| Data Size    | 10 bytes |
| Instructions | 2        |

```
      00 01 02 03 04 05 06 07  08 09 0A 0B 0C 0D 0E 0F
      -- -- -- -- -- -- -- --  -- -- -- -- -- -- -- --
01A0:                                               37                 7
01B0: 45 80 46 80 47 80 48 80  00                       E.F.G.H..       
```

#### Opcodes

```
  0: 0x01AF [0x37] UPDATE_EVENT_POSITION_AND_DIR: x=-263.246*, z=-83.250*, y=-12.021*, direction=236.6°*
  1: 0x01B8 [0x00] END_REQSTACK()
```

### Event 65535.20

#### Metadata

| Field        | Value    |
|--------------|----------|
| Entrypoint   | 0x01B9   |
| Data Size    | 14 bytes |
| Instructions | 4        |

```
      00 01 02 03 04 05 06 07  08 09 0A 0B 0C 0D 0E 0F
      -- -- -- -- -- -- -- --  -- -- -- -- -- -- -- --
01B0:                             32 04 80 1F 00 49 80           2....I.
01C0: 4A 80 47 80 1F 01 00                              J.G....         
```

#### Opcodes

```
  0: 0x01B9 [0x32] ExtData[1]->MainSpeed = 40* * 0.1
  1: 0x01BC [0x1F] MOVE_ENTITY: EventEntity moves to X=-268.440*, Z=-88.701*, Y=-12.021*
  2: 0x01C4 [0x1F] MOVE_ENTITY: Update entity position (mode=1)
  3: 0x01C6 [0x00] END_REQSTACK()
```

### Event 65535.21

#### Metadata

| Field        | Value    |
|--------------|----------|
| Entrypoint   | 0x01C7   |
| Data Size    | 21 bytes |
| Instructions | 4        |

```
      00 01 02 03 04 05 06 07  08 09 0A 0B 0C 0D 0E 0F
      -- -- -- -- -- -- -- --  -- -- -- -- -- -- -- --
01C0:                      79  00 32 D0 0E 01 78 D0 0E         y.2...x..
01D0: 01 37 4B 80 4C 80 4D 80  4E 80 84 00              .7K.L.M.N...    
```

#### Opcodes

```
  0: 0x01C7 [0x79] Cornelia (ID: 17748018/0x010ED032) looks at Michea (ID: 17748088/0x010ED078) (Basic look)
  1: 0x01D1 [0x37] UPDATE_EVENT_POSITION_AND_DIR: x=-299.479*, z=-156.434*, y=-15.971*, direction=21.4°*
  2: 0x01DA [0x84] ADJUST_RENDER_FLAGS3_BIT0()
  3: 0x01DB [0x00] END_REQSTACK()
```

### Event 65535.22

#### Metadata

| Field        | Value    |
|--------------|----------|
| Entrypoint   | 0x01DC   |
| Data Size    | 21 bytes |
| Instructions | 4        |

```
      00 01 02 03 04 05 06 07  08 09 0A 0B 0C 0D 0E 0F
      -- -- -- -- -- -- -- --  -- -- -- -- -- -- -- --
01D0:                                      79 00 32 D0              y.2.
01E0: 0E 01 79 D0 0E 01 37 4F  80 50 80 51 80 52 80 84  ..y...7O.P.Q.R..
01F0: 00                                                .               
```

#### Opcodes

```
  0: 0x01DC [0x79] Cornelia (ID: 17748018/0x010ED032) looks at Salimah (ID: 17748089/0x010ED079) (Basic look)
  1: 0x01E6 [0x37] UPDATE_EVENT_POSITION_AND_DIR: x=-33.166*, z=-72.704*, y=-6.824*, direction=9.3°*
  2: 0x01EF [0x84] ADJUST_RENDER_FLAGS3_BIT0()
  3: 0x01F0 [0x00] END_REQSTACK()
```

### Event 65535.23

#### Metadata

| Field        | Value    |
|--------------|----------|
| Entrypoint   | 0x01F1   |
| Data Size    | 21 bytes |
| Instructions | 4        |

```
      00 01 02 03 04 05 06 07  08 09 0A 0B 0C 0D 0E 0F
      -- -- -- -- -- -- -- --  -- -- -- -- -- -- -- --
01F0:    79 00 32 D0 0E 01 77  D0 0E 01 37 53 80 54 80   y.2...w...7S.T.
0200: 55 80 56 80 84 00                                 U.V...          
```

#### Opcodes

```
  0: 0x01F1 [0x79] Cornelia (ID: 17748018/0x010ED032) looks at Pavvke (ID: 17748087/0x010ED077) (Basic look)
  1: 0x01FB [0x37] UPDATE_EVENT_POSITION_AND_DIR: x=15.495*, z=-16.218*, y=6.985*, direction=316.1°*
  2: 0x0204 [0x84] ADJUST_RENDER_FLAGS3_BIT0()
  3: 0x0205 [0x00] END_REQSTACK()
```

### Event 65535.24

#### Metadata

| Field        | Value    |
|--------------|----------|
| Entrypoint   | 0x0206   |
| Data Size    | 22 bytes |
| Instructions | 5        |

```
      00 01 02 03 04 05 06 07  08 09 0A 0B 0C 0D 0E 0F
      -- -- -- -- -- -- -- --  -- -- -- -- -- -- -- --
0200:                   84 79  00 32 D0 0E 01 71 D0 0E        .y.2...q..
0210: 01 37 57 80 58 80 59 80  5A 80 84 00              .7W.X.Y.Z...    
```

#### Opcodes

```
  0: 0x0206 [0x84] ADJUST_RENDER_FLAGS3_BIT0()
  1: 0x0207 [0x79] Cornelia (ID: 17748018/0x010ED032) looks at Gumbah (ID: 17748081/0x010ED071) (Basic look)
  2: 0x0211 [0x37] UPDATE_EVENT_POSITION_AND_DIR: x=52.083*, z=-35.570*, y=-0.059*, direction=28.0°*
  3: 0x021A [0x84] ADJUST_RENDER_FLAGS3_BIT0()
  4: 0x021B [0x00] END_REQSTACK()
```

### Event 65535.25

#### Metadata

| Field        | Value    |
|--------------|----------|
| Entrypoint   | 0x021C   |
| Data Size    | 21 bytes |
| Instructions | 4        |

```
      00 01 02 03 04 05 06 07  08 09 0A 0B 0C 0D 0E 0F
      -- -- -- -- -- -- -- --  -- -- -- -- -- -- -- --
0210:                                      79 00 32 D0              y.2.
0220: 0E 01 2F D0 0E 01 37 5B  80 5C 80 5D 80 5E 80 84  ../...7[.\.].^..
0230: 00                                                .               
```

#### Opcodes

```
  0: 0x021C [0x79] Cornelia (ID: 17748018/0x010ED032) looks at Ayame (ID: 17748015/0x010ED02F) (Basic look)
  1: 0x0226 [0x37] UPDATE_EVENT_POSITION_AND_DIR: x=135.154*, z=36.580*, y=-18.475*, direction=233.8°*
  2: 0x022F [0x84] ADJUST_RENDER_FLAGS3_BIT0()
  3: 0x0230 [0x00] END_REQSTACK()
```

### Event 65535.26

#### Metadata

| Field        | Value    |
|--------------|----------|
| Entrypoint   | 0x0231   |
| Data Size    | 21 bytes |
| Instructions | 4        |

```
      00 01 02 03 04 05 06 07  08 09 0A 0B 0C 0D 0E 0F
      -- -- -- -- -- -- -- --  -- -- -- -- -- -- -- --
0230:    79 00 32 D0 0E 01 2B  D0 0E 01 37 5F 80 60 80   y.2...+...7_.`.
0240: 38 80 61 80 84 00                                 8.a...          
```

#### Opcodes

```
  0: 0x0231 [0x79] Cornelia (ID: 17748018/0x010ED032) looks at Cid (ID: 17748011/0x010ED02B) (Basic look)
  1: 0x023B [0x37] UPDATE_EVENT_POSITION_AND_DIR: x=-11.045*, z=0.628*, y=-10.988*, direction=228.4°*
  2: 0x0244 [0x84] ADJUST_RENDER_FLAGS3_BIT0()
  3: 0x0245 [0x00] END_REQSTACK()
```

### Event 65535.27

#### Metadata

| Field        | Value    |
|--------------|----------|
| Entrypoint   | 0x0246   |
| Data Size    | 21 bytes |
| Instructions | 4        |

```
      00 01 02 03 04 05 06 07  08 09 0A 0B 0C 0D 0E 0F
      -- -- -- -- -- -- -- --  -- -- -- -- -- -- -- --
0240:                   79 00  32 D0 0E 01 2D D0 0E 01        y.2...-...
0250: 37 62 80 63 80 64 80 65  80 84 00                 7b.c.d.e...     
```

#### Opcodes

```
  0: 0x0246 [0x79] Cornelia (ID: 17748018/0x010ED032) looks at Naji (ID: 17748013/0x010ED02D) (Basic look)
  1: 0x0250 [0x37] UPDATE_EVENT_POSITION_AND_DIR: x=63.058*, z=-3.889*, y=-13.999*, direction=20.6°*
  2: 0x0259 [0x84] ADJUST_RENDER_FLAGS3_BIT0()
  3: 0x025A [0x00] END_REQSTACK()
```

### Event 65535.28

#### Metadata

| Field        | Value    |
|--------------|----------|
| Entrypoint   | 0x025B   |
| Data Size    | 21 bytes |
| Instructions | 4        |

```
      00 01 02 03 04 05 06 07  08 09 0A 0B 0C 0D 0E 0F
      -- -- -- -- -- -- -- --  -- -- -- -- -- -- -- --
0250:                                   79 00 32 D0 0E             y.2..
0260: 01 18 D0 0E 01 37 66 80  67 80 68 80 69 80 84 00  .....7f.g.h.i...
```

#### Opcodes

```
  0: 0x025B [0x79] Cornelia (ID: 17748018/0x010ED032) looks at Lucius (ID: 17747992/0x010ED018) (Basic look)
  1: 0x0265 [0x37] UPDATE_EVENT_POSITION_AND_DIR: x=59.756*, z=-40.869*, y=-16.390*, direction=66.7°*
  2: 0x026E [0x84] ADJUST_RENDER_FLAGS3_BIT0()
  3: 0x026F [0x00] END_REQSTACK()
```

### Event 65535.29

#### Metadata

| Field        | Value    |
|--------------|----------|
| Entrypoint   | 0x0270   |
| Data Size    | 21 bytes |
| Instructions | 4        |

```
      00 01 02 03 04 05 06 07  08 09 0A 0B 0C 0D 0E 0F
      -- -- -- -- -- -- -- --  -- -- -- -- -- -- -- --
0270: 79 00 32 D0 0E 01 30 D0  0E 01 37 6A 80 6B 80 07  y.2...0...7j.k..
0280: 80 6C 80 84 00                                    .l...           
```

#### Opcodes

```
  0: 0x0270 [0x79] Cornelia (ID: 17748018/0x010ED032) looks at Iron Eater (ID: 17748016/0x010ED030) (Basic look)
  1: 0x027A [0x37] UPDATE_EVENT_POSITION_AND_DIR: x=91.848*, z=0.600*, y=-19.532*, direction=308.9°*
  2: 0x0283 [0x84] ADJUST_RENDER_FLAGS3_BIT0()
  3: 0x0284 [0x00] END_REQSTACK()
```

### Event 65535.30

#### Metadata

| Field        | Value    |
|--------------|----------|
| Entrypoint   | 0x0285   |
| Data Size    | 21 bytes |
| Instructions | 4        |

```
      00 01 02 03 04 05 06 07  08 09 0A 0B 0C 0D 0E 0F
      -- -- -- -- -- -- -- --  -- -- -- -- -- -- -- --
0280:                79 00 32  D0 0E 01 2A D0 0E 01 37       y.2...*...7
0290: 6D 80 6E 80 2B 80 6F 80  84 00                    m.n.+.o...      
```

#### Opcodes

```
  0: 0x0285 [0x79] Cornelia (ID: 17748018/0x010ED032) looks at Karst (ID: 17748010/0x010ED02A) (Basic look)
  1: 0x028F [0x37] UPDATE_EVENT_POSITION_AND_DIR: x=106.743*, z=14.309*, y=-20.178*, direction=311.7°*
  2: 0x0298 [0x84] ADJUST_RENDER_FLAGS3_BIT0()
  3: 0x0299 [0x00] END_REQSTACK()
```

### Event 65535.31

#### Metadata

| Field        | Value    |
|--------------|----------|
| Entrypoint   | 0x029A   |
| Data Size    | 21 bytes |
| Instructions | 4        |

```
      00 01 02 03 04 05 06 07  08 09 0A 0B 0C 0D 0E 0F
      -- -- -- -- -- -- -- --  -- -- -- -- -- -- -- --
0290:                                79 00 32 D0 0E 01            y.2...
02A0: 2E D0 0E 01 37 70 80 71  80 72 80 73 80 84 00     ....7p.q.r.s... 
```

#### Opcodes

```
  0: 0x029A [0x79] Cornelia (ID: 17748018/0x010ED032) looks at Volker (ID: 17748014/0x010ED02E) (Basic look)
  1: 0x02A4 [0x37] UPDATE_EVENT_POSITION_AND_DIR: x=21.694*, z=-4.065*, y=-14.000*, direction=24.6°*
  2: 0x02AD [0x84] ADJUST_RENDER_FLAGS3_BIT0()
  3: 0x02AE [0x00] END_REQSTACK()
```

### Event 65535.32

#### Metadata

| Field        | Value    |
|--------------|----------|
| Entrypoint   | 0x02AF   |
| Data Size    | 14 bytes |
| Instructions | 4        |

```
      00 01 02 03 04 05 06 07  08 09 0A 0B 0C 0D 0E 0F
      -- -- -- -- -- -- -- --  -- -- -- -- -- -- -- --
02A0:                                               32                 2
02B0: 17 80 1F 00 74 80 75 80  72 80 1F 01 00           ....t.u.r....   
```

#### Opcodes

```
  0: 0x02AF [0x32] ExtData[1]->MainSpeed = 13* * 0.1
  1: 0x02B2 [0x1F] MOVE_ENTITY: EventEntity moves to X=14.650*, Z=-7.354*, Y=-14.000*
  2: 0x02BA [0x1F] MOVE_ENTITY: Update entity position (mode=1)
  3: 0x02BC [0x00] END_REQSTACK()
```

### Event 845

#### Metadata

| Field        | Value    |
|--------------|----------|
| Entrypoint   | 0x02BD   |
| Data Size    | 16 bytes |
| Instructions | 3        |

```
      00 01 02 03 04 05 06 07  08 09 0A 0B 0C 0D 0E 0F
      -- -- -- -- -- -- -- --  -- -- -- -- -- -- -- --
02B0:                                         92 01 F8               ...
02C0: FF FF 7F 37 76 80 77 80  38 80 78 80 00           ...7v.w.8.x..   
```

#### Opcodes

```
  0: 0x02BD [0x92] EventEntity->Render.Flags3 ^= 0x01
  1: 0x02C3 [0x37] UPDATE_EVENT_POSITION_AND_DIR: x=-14.088*, z=-4.500*, y=-10.988*, direction=289.1°*
  2: 0x02CC [0x00] END_REQSTACK()
```

### Event 65535.33

#### Metadata

| Field        | Value    |
|--------------|----------|
| Entrypoint   | 0x02CD   |
| Data Size    | 24 bytes |
| Instructions | 6        |

```
      00 01 02 03 04 05 06 07  08 09 0A 0B 0C 0D 0E 0F
      -- -- -- -- -- -- -- --  -- -- -- -- -- -- -- --
02C0:                                         32 17 80               2..
02D0: 37 76 80 77 80 38 80 78  80 1F 00 79 80 7A 80 38  7v.w.8.x...y.z.8
02E0: 80 1F 01 6F 00                                    ...o.           
```

#### Opcodes

```
  0: 0x02CD [0x32] ExtData[1]->MainSpeed = 13* * 0.1
  1: 0x02D0 [0x37] UPDATE_EVENT_POSITION_AND_DIR: x=-14.088*, z=-4.500*, y=-10.988*, direction=289.1°*
  2: 0x02D9 [0x1F] MOVE_ENTITY: EventEntity moves to X=-12.928*, Z=-0.555*, Y=-10.988*
  3: 0x02E1 [0x1F] MOVE_ENTITY: Update entity position (mode=1)
  4: 0x02E3 [0x6F] WAIT_FRAME_DELAY: Yield until WaitTime reaches zero
  5: 0x02E4 [0x00] END_REQSTACK()
```

### Event 65535.34

#### Metadata

| Field        | Value    |
|--------------|----------|
| Entrypoint   | 0x02E5   |
| Data Size    | 38 bytes |
| Instructions | 8        |

```
      00 01 02 03 04 05 06 07  08 09 0A 0B 0C 0D 0E 0F
      -- -- -- -- -- -- -- --  -- -- -- -- -- -- -- --
02E0:                32 04 80  1F 00 7B 80 7C 80 38 80       2....{.|.8.
02F0: 1F 01 6F 1E 9A D0 0E 01  1C 16 80 5B 7D 80 32 D0  ..o........[}.2.
0300: 0E 01 32 D0 0E 01 69 74  6C 30 00                 ..2...itl0.     
```

#### Opcodes

```
  0: 0x02E5 [0x32] ExtData[1]->MainSpeed = 40* * 0.1
  1: 0x02E8 [0x1F] MOVE_ENTITY: EventEntity moves to X=-15.673*, Z=-2.201*, Y=-10.988*
  2: 0x02F0 [0x1F] MOVE_ENTITY: Update entity position (mode=1)
  3: 0x02F2 [0x6F] WAIT_FRAME_DELAY: Yield until WaitTime reaches zero
  4: 0x02F3 [0x1E] EventEntity looks at Prishe (ID: 17748122/0x010ED09A) and starts talking
  5: 0x02F8 [0x1C] WAIT(15* ticks)
  6: 0x02FB [0x5B] LOAD_EXT_SCHEDULER: Load scheduler "itl0" with entities [Cornelia (ID: 17748018/0x010ED032), Cornelia (ID: 17748018/0x010ED032)], work=146*
  7: 0x030A [0x00] END_REQSTACK()
```

### Event 852

#### Metadata

| Field        | Value    |
|--------------|----------|
| Entrypoint   | 0x030B   |
| Data Size    | 16 bytes |
| Instructions | 3        |

```
      00 01 02 03 04 05 06 07  08 09 0A 0B 0C 0D 0E 0F
      -- -- -- -- -- -- -- --  -- -- -- -- -- -- -- --
0300:                                   92 01 F8 FF FF             .....
0310: 7F 37 7E 80 7F 80 80 80  81 80 00                 .7~........     
```

#### Opcodes

```
  0: 0x030B [0x92] EventEntity->Render.Flags3 ^= 0x01
  1: 0x0311 [0x37] UPDATE_EVENT_POSITION_AND_DIR: x=-37.395*, z=-1.797*, y=-9.999*, direction=7.8°*
  2: 0x031A [0x00] END_REQSTACK()
```

### Event 65535.35

#### Metadata

| Field        | Value    |
|--------------|----------|
| Entrypoint   | 0x031B   |
| Data Size    | 38 bytes |
| Instructions | 8        |

```
      00 01 02 03 04 05 06 07  08 09 0A 0B 0C 0D 0E 0F
      -- -- -- -- -- -- -- --  -- -- -- -- -- -- -- --
0310:                                   33 01 92 01 F8             3....
0320: FF FF 7F 32 04 80 1F 00  82 80 83 80 80 80 1F 01  ...2............
0330: 6F 5B 7D 80 32 D0 0E 01  32 D0 0E 01 69 74 6C 30  o[}.2...2...itl0
0340: 00                                                .               
```

#### Opcodes

```
  0: 0x031B [0x33] EventEntity->Render.Flags0 |= 0x200000 // Bit 21 (flag=0x01)
  1: 0x031D [0x92] EventEntity->Render.Flags3 ^= 0x01
  2: 0x0323 [0x32] ExtData[1]->MainSpeed = 40* * 0.1
  3: 0x0326 [0x1F] MOVE_ENTITY: EventEntity moves to X=-27.221*, Z=-1.066*, Y=-9.999*
  4: 0x032E [0x1F] MOVE_ENTITY: Update entity position (mode=1)
  5: 0x0330 [0x6F] WAIT_FRAME_DELAY: Yield until WaitTime reaches zero
  6: 0x0331 [0x5B] LOAD_EXT_SCHEDULER: Load scheduler "itl0" with entities [Cornelia (ID: 17748018/0x010ED032), Cornelia (ID: 17748018/0x010ED032)], work=146*
  7: 0x0340 [0x00] END_REQSTACK()
```

### Event 855

#### Metadata

| Field        | Value    |
|--------------|----------|
| Entrypoint   | 0x0341   |
| Data Size    | 16 bytes |
| Instructions | 3        |

```
      00 01 02 03 04 05 06 07  08 09 0A 0B 0C 0D 0E 0F
      -- -- -- -- -- -- -- --  -- -- -- -- -- -- -- --
0340:    92 01 F8 FF FF 7F 37  84 80 85 80 80 80 86 80   ......7........
0350: 00                                                .               
```

#### Opcodes

```
  0: 0x0341 [0x92] EventEntity->Render.Flags3 ^= 0x01
  1: 0x0347 [0x37] UPDATE_EVENT_POSITION_AND_DIR: x=-36.397*, z=-1.595*, y=-9.999*, direction=349.9°*
  2: 0x0350 [0x00] END_REQSTACK()
```

### Event 65535.36

#### Metadata

| Field        | Value    |
|--------------|----------|
| Entrypoint   | 0x0351   |
| Data Size    | 17 bytes |
| Instructions | 6        |

```
      00 01 02 03 04 05 06 07  08 09 0A 0B 0C 0D 0E 0F
      -- -- -- -- -- -- -- --  -- -- -- -- -- -- -- --
0350:    33 01 32 04 80 1F 00  87 80 7A 80 80 80 1F 01   3.2......z.....
0360: 6F 00                                             o.              
```

#### Opcodes

```
  0: 0x0351 [0x33] EventEntity->Render.Flags0 |= 0x200000 // Bit 21 (flag=0x01)
  1: 0x0353 [0x32] ExtData[1]->MainSpeed = 40* * 0.1
  2: 0x0356 [0x1F] MOVE_ENTITY: EventEntity moves to X=-27.005*, Z=-0.555*, Y=-9.999*
  3: 0x035E [0x1F] MOVE_ENTITY: Update entity position (mode=1)
  4: 0x0360 [0x6F] WAIT_FRAME_DELAY: Yield until WaitTime reaches zero
  5: 0x0361 [0x00] END_REQSTACK()
```

### Event 1051

#### Metadata

| Field        | Value   |
|--------------|---------|
| Entrypoint   | 0x0362  |
| Data Size    | 7 bytes |
| Instructions | 2       |

```
      00 01 02 03 04 05 06 07  08 09 0A 0B 0C 0D 0E 0F
      -- -- -- -- -- -- -- --  -- -- -- -- -- -- -- --
0360:       92 01 F8 FF FF 7F  00                         .......       
```

#### Opcodes

```
  0: 0x0362 [0x92] EventEntity->Render.Flags3 ^= 0x01
  1: 0x0368 [0x00] END_REQSTACK()
```

### Event 65535.37

#### Metadata

| Field        | Value    |
|--------------|----------|
| Entrypoint   | 0x0369   |
| Data Size    | 15 bytes |
| Instructions | 5        |

```
      00 01 02 03 04 05 06 07  08 09 0A 0B 0C 0D 0E 0F
      -- -- -- -- -- -- -- --  -- -- -- -- -- -- -- --
0360:                             32 04 80 1F 00 88 80           2......
0370: 89 80 0F 80 1F 01 6F 00                           ......o.        
```

#### Opcodes

```
  0: 0x0369 [0x32] ExtData[1]->MainSpeed = 40* * 0.1
  1: 0x036C [0x1F] MOVE_ENTITY: EventEntity moves to X=94.736*, Z=-0.200*, Y=-20.170*
  2: 0x0374 [0x1F] MOVE_ENTITY: Update entity position (mode=1)
  3: 0x0376 [0x6F] WAIT_FRAME_DELAY: Yield until WaitTime reaches zero
  4: 0x0377 [0x00] END_REQSTACK()
```

### Event 65535.38

#### Metadata

| Field        | Value    |
|--------------|----------|
| Entrypoint   | 0x0378   |
| Data Size    | 14 bytes |
| Instructions | 4        |

```
      00 01 02 03 04 05 06 07  08 09 0A 0B 0C 0D 0E 0F
      -- -- -- -- -- -- -- --  -- -- -- -- -- -- -- --
0370:                          32 17 80 5A 00 8A 80 89          2..Z....
0380: 80 07 80 5A 01 00                                 ...Z..          
```

#### Opcodes

```
  0: 0x0378 [0x32] ExtData[1]->MainSpeed = 13* * 0.1
  1: 0x037B [0x5A] UPDATE_EVENT_POSITION: Set EventEntity MovePosition to X=91.952*, Z=-0.200*, Y=-19.532*
  2: 0x0383 [0x5A] UPDATE_EVENT_POSITION: Move EventEntity incrementally towards MovePosition
  3: 0x0385 [0x00] END_REQSTACK()
```

### Event 65535.39

#### Metadata

| Field        | Value    |
|--------------|----------|
| Entrypoint   | 0x0386   |
| Data Size    | 15 bytes |
| Instructions | 5        |

```
      00 01 02 03 04 05 06 07  08 09 0A 0B 0C 0D 0E 0F
      -- -- -- -- -- -- -- --  -- -- -- -- -- -- -- --
0380:                   32 17  80 1F 00 8B 80 89 80 07        2.........
0390: 80 1F 01 6F 00                                    ...o.           
```

#### Opcodes

```
  0: 0x0386 [0x32] ExtData[1]->MainSpeed = 13* * 0.1
  1: 0x0389 [0x1F] MOVE_ENTITY: EventEntity moves to X=89.905*, Z=-0.200*, Y=-19.532*
  2: 0x0391 [0x1F] MOVE_ENTITY: Update entity position (mode=1)
  3: 0x0393 [0x6F] WAIT_FRAME_DELAY: Yield until WaitTime reaches zero
  4: 0x0394 [0x00] END_REQSTACK()
```

### Event 65535.40

#### Metadata

| Field        | Value    |
|--------------|----------|
| Entrypoint   | 0x0395   |
| Data Size    | 15 bytes |
| Instructions | 5        |

```
      00 01 02 03 04 05 06 07  08 09 0A 0B 0C 0D 0E 0F
      -- -- -- -- -- -- -- --  -- -- -- -- -- -- -- --
0390:                32 17 80  1F 00 8C 80 8D 80 07 80       2..........
03A0: 1F 01 6F 00                                       ..o.            
```

#### Opcodes

```
  0: 0x0395 [0x32] ExtData[1]->MainSpeed = 13* * 0.1
  1: 0x0398 [0x1F] MOVE_ENTITY: EventEntity moves to X=90.827*, Z=-0.397*, Y=-19.532*
  2: 0x03A0 [0x1F] MOVE_ENTITY: Update entity position (mode=1)
  3: 0x03A2 [0x6F] WAIT_FRAME_DELAY: Yield until WaitTime reaches zero
  4: 0x03A3 [0x00] END_REQSTACK()
```

### Event 65535.41

#### Metadata

| Field        | Value    |
|--------------|----------|
| Entrypoint   | 0x03A4   |
| Data Size    | 15 bytes |
| Instructions | 5        |

```
      00 01 02 03 04 05 06 07  08 09 0A 0B 0C 0D 0E 0F
      -- -- -- -- -- -- -- --  -- -- -- -- -- -- -- --
03A0:             32 17 80 1F  00 8E 80 8F 80 07 80 1F      2...........
03B0: 01 6F 00                                          .o.             
```

#### Opcodes

```
  0: 0x03A4 [0x32] ExtData[1]->MainSpeed = 13* * 0.1
  1: 0x03A7 [0x1F] MOVE_ENTITY: EventEntity moves to X=90.073*, Z=-0.990*, Y=-19.532*
  2: 0x03AF [0x1F] MOVE_ENTITY: Update entity position (mode=1)
  3: 0x03B1 [0x6F] WAIT_FRAME_DELAY: Yield until WaitTime reaches zero
  4: 0x03B2 [0x00] END_REQSTACK()
```

### Event 65535.42

#### Metadata

| Field        | Value    |
|--------------|----------|
| Entrypoint   | 0x03B3   |
| Data Size    | 17 bytes |
| Instructions | 6        |

```
      00 01 02 03 04 05 06 07  08 09 0A 0B 0C 0D 0E 0F
      -- -- -- -- -- -- -- --  -- -- -- -- -- -- -- --
03B0:          32 04 80 1F 00  90 80 91 80 92 80 1F 01     2............
03C0: 6F 22 01 00                                       o"..            
```

#### Opcodes

```
  0: 0x03B3 [0x32] ExtData[1]->MainSpeed = 40* * 0.1
  1: 0x03B6 [0x1F] MOVE_ENTITY: EventEntity moves to X=77.600*, Z=-0.867*, Y=-19.531*
  2: 0x03BE [0x1F] MOVE_ENTITY: Update entity position (mode=1)
  3: 0x03C0 [0x6F] WAIT_FRAME_DELAY: Yield until WaitTime reaches zero
  4: 0x03C1 [0x22] ENTITY_HIDE_FLAG(enabled=0x01)
  5: 0x03C3 [0x00] END_REQSTACK()
```

### Event 65535.43

#### Metadata

| Field        | Value    |
|--------------|----------|
| Entrypoint   | 0x03C4   |
| Data Size    | 16 bytes |
| Instructions | 2        |

```
      00 01 02 03 04 05 06 07  08 09 0A 0B 0C 0D 0E 0F
      -- -- -- -- -- -- -- --  -- -- -- -- -- -- -- --
03C0:             5B 93 80 F8  FF FF 7F F8 FF FF 7F 74      [..........t
03D0: 6C 61 30 00                                       la0.            
```

#### Opcodes

```
  0: 0x03C4 [0x5B] LOAD_EXT_SCHEDULER: Load scheduler "tla0" with entities [EventEntity, EventEntity], work=145*
  1: 0x03D3 [0x00] END_REQSTACK()
```

### Event 65535.44

#### Metadata

| Field        | Value    |
|--------------|----------|
| Entrypoint   | 0x03D4   |
| Data Size    | 14 bytes |
| Instructions | 2        |

```
      00 01 02 03 04 05 06 07  08 09 0A 0B 0C 0D 0E 0F
      -- -- -- -- -- -- -- --  -- -- -- -- -- -- -- --
03D0:             53 F8 FF FF  7F F8 FF FF 7F 74 6C 61      S........tla
03E0: 30 00                                             0.              
```

#### Opcodes

```
  0: 0x03D4 [0x53] WAIT_SCHEDULER_TASK: Wait for scheduler "tla0" with entities [EventEntity, EventEntity]
  1: 0x03E1 [0x00] END_REQSTACK()
```

### Event 65535.45

#### Metadata

| Field        | Value    |
|--------------|----------|
| Entrypoint   | 0x03E2   |
| Data Size    | 16 bytes |
| Instructions | 2        |

```
      00 01 02 03 04 05 06 07  08 09 0A 0B 0C 0D 0E 0F
      -- -- -- -- -- -- -- --  -- -- -- -- -- -- -- --
03E0:       5B 93 80 F8 FF FF  7F F8 FF FF 7F 74 6C 61    [..........tla
03F0: 31 00                                             1.              
```

#### Opcodes

```
  0: 0x03E2 [0x5B] LOAD_EXT_SCHEDULER: Load scheduler "tla1" with entities [EventEntity, EventEntity], work=145*
  1: 0x03F1 [0x00] END_REQSTACK()
```

### Event 65535.46

#### Metadata

| Field        | Value    |
|--------------|----------|
| Entrypoint   | 0x03F2   |
| Data Size    | 14 bytes |
| Instructions | 2        |

```
      00 01 02 03 04 05 06 07  08 09 0A 0B 0C 0D 0E 0F
      -- -- -- -- -- -- -- --  -- -- -- -- -- -- -- --
03F0:       53 F8 FF FF 7F F8  FF FF 7F 74 6C 61 31 00    S........tla1.
```

#### Opcodes

```
  0: 0x03F2 [0x53] WAIT_SCHEDULER_TASK: Wait for scheduler "tla1" with entities [EventEntity, EventEntity]
  1: 0x03FF [0x00] END_REQSTACK()
```

### Event 65535.47

#### Metadata

| Field        | Value    |
|--------------|----------|
| Entrypoint   | 0x0400   |
| Data Size    | 16 bytes |
| Instructions | 2        |

```
      00 01 02 03 04 05 06 07  08 09 0A 0B 0C 0D 0E 0F
      -- -- -- -- -- -- -- --  -- -- -- -- -- -- -- --
0400: 5B 1A 80 F8 FF FF 7F F8  FF FF 7F 74 6C 62 30 00  [..........tlb0.
```

#### Opcodes

```
  0: 0x0400 [0x5B] LOAD_EXT_SCHEDULER: Load scheduler "tlb0" with entities [EventEntity, EventEntity], work=147*
  1: 0x040F [0x00] END_REQSTACK()
```

### Event 65535.48

#### Metadata

| Field        | Value    |
|--------------|----------|
| Entrypoint   | 0x0410   |
| Data Size    | 14 bytes |
| Instructions | 2        |

```
      00 01 02 03 04 05 06 07  08 09 0A 0B 0C 0D 0E 0F
      -- -- -- -- -- -- -- --  -- -- -- -- -- -- -- --
0410: 53 F8 FF FF 7F F8 FF FF  7F 74 6C 62 30 00        S........tlb0.  
```

#### Opcodes

```
  0: 0x0410 [0x53] WAIT_SCHEDULER_TASK: Wait for scheduler "tlb0" with entities [EventEntity, EventEntity]
  1: 0x041D [0x00] END_REQSTACK()
```

### Event 65535.49

#### Metadata

| Field        | Value    |
|--------------|----------|
| Entrypoint   | 0x041E   |
| Data Size    | 16 bytes |
| Instructions | 2        |

```
      00 01 02 03 04 05 06 07  08 09 0A 0B 0C 0D 0E 0F
      -- -- -- -- -- -- -- --  -- -- -- -- -- -- -- --
0410:                                            5B 1A                [.
0420: 80 F8 FF FF 7F F8 FF FF  7F 74 6C 62 31 00        .........tlb1.  
```

#### Opcodes

```
  0: 0x041E [0x5B] LOAD_EXT_SCHEDULER: Load scheduler "tlb1" with entities [EventEntity, EventEntity], work=147*
  1: 0x042D [0x00] END_REQSTACK()
```

### Event 65535.50

#### Metadata

| Field        | Value    |
|--------------|----------|
| Entrypoint   | 0x042E   |
| Data Size    | 14 bytes |
| Instructions | 2        |

```
      00 01 02 03 04 05 06 07  08 09 0A 0B 0C 0D 0E 0F
      -- -- -- -- -- -- -- --  -- -- -- -- -- -- -- --
0420:                                            53 F8                S.
0430: FF FF 7F F8 FF FF 7F 74  6C 62 31 00              .......tlb1.    
```

#### Opcodes

```
  0: 0x042E [0x53] WAIT_SCHEDULER_TASK: Wait for scheduler "tlb1" with entities [EventEntity, EventEntity]
  1: 0x043B [0x00] END_REQSTACK()
```

### Event 65535.51

#### Metadata

| Field        | Value    |
|--------------|----------|
| Entrypoint   | 0x043C   |
| Data Size    | 16 bytes |
| Instructions | 2        |

```
      00 01 02 03 04 05 06 07  08 09 0A 0B 0C 0D 0E 0F
      -- -- -- -- -- -- -- --  -- -- -- -- -- -- -- --
0430:                                      5B 1A 80 F8              [...
0440: FF FF 7F F8 FF FF 7F 74  6C 63 30 00              .......tlc0.    
```

#### Opcodes

```
  0: 0x043C [0x5B] LOAD_EXT_SCHEDULER: Load scheduler "tlc0" with entities [EventEntity, EventEntity], work=147*
  1: 0x044B [0x00] END_REQSTACK()
```

### Event 65535.52

#### Metadata

| Field        | Value    |
|--------------|----------|
| Entrypoint   | 0x044C   |
| Data Size    | 14 bytes |
| Instructions | 2        |

```
      00 01 02 03 04 05 06 07  08 09 0A 0B 0C 0D 0E 0F
      -- -- -- -- -- -- -- --  -- -- -- -- -- -- -- --
0440:                                      53 F8 FF FF              S...
0450: 7F F8 FF FF 7F 74 6C 63  30 00                    .....tlc0.      
```

#### Opcodes

```
  0: 0x044C [0x53] WAIT_SCHEDULER_TASK: Wait for scheduler "tlc0" with entities [EventEntity, EventEntity]
  1: 0x0459 [0x00] END_REQSTACK()
```

### Event 65535.53

#### Metadata

| Field        | Value    |
|--------------|----------|
| Entrypoint   | 0x045A   |
| Data Size    | 16 bytes |
| Instructions | 2        |

```
      00 01 02 03 04 05 06 07  08 09 0A 0B 0C 0D 0E 0F
      -- -- -- -- -- -- -- --  -- -- -- -- -- -- -- --
0450:                                5B 93 80 F8 FF FF            [.....
0460: 7F F8 FF FF 7F 74 68 6B  31 00                    .....thk1.      
```

#### Opcodes

```
  0: 0x045A [0x5B] LOAD_EXT_SCHEDULER: Load scheduler "thk1" with entities [EventEntity, EventEntity], work=145*
  1: 0x0469 [0x00] END_REQSTACK()
```

### Event 65535.54

#### Metadata

| Field        | Value    |
|--------------|----------|
| Entrypoint   | 0x046A   |
| Data Size    | 14 bytes |
| Instructions | 2        |

```
      00 01 02 03 04 05 06 07  08 09 0A 0B 0C 0D 0E 0F
      -- -- -- -- -- -- -- --  -- -- -- -- -- -- -- --
0460:                                53 F8 FF FF 7F F8            S.....
0470: FF FF 7F 74 68 6B 31 00                           ...thk1.        
```

#### Opcodes

```
  0: 0x046A [0x53] WAIT_SCHEDULER_TASK: Wait for scheduler "thk1" with entities [EventEntity, EventEntity]
  1: 0x0477 [0x00] END_REQSTACK()
```

### Event 65535.55

#### Metadata

| Field        | Value    |
|--------------|----------|
| Entrypoint   | 0x0478   |
| Data Size    | 16 bytes |
| Instructions | 2        |

```
      00 01 02 03 04 05 06 07  08 09 0A 0B 0C 0D 0E 0F
      -- -- -- -- -- -- -- --  -- -- -- -- -- -- -- --
0470:                          5B 93 80 F8 FF FF 7F F8          [.......
0480: FF FF 7F 74 68 6B 32 00                           ...thk2.        
```

#### Opcodes

```
  0: 0x0478 [0x5B] LOAD_EXT_SCHEDULER: Load scheduler "thk2" with entities [EventEntity, EventEntity], work=145*
  1: 0x0487 [0x00] END_REQSTACK()
```

### Event 65535.56

#### Metadata

| Field        | Value    |
|--------------|----------|
| Entrypoint   | 0x0488   |
| Data Size    | 14 bytes |
| Instructions | 2        |

```
      00 01 02 03 04 05 06 07  08 09 0A 0B 0C 0D 0E 0F
      -- -- -- -- -- -- -- --  -- -- -- -- -- -- -- --
0480:                          53 F8 FF FF 7F F8 FF FF          S.......
0490: 7F 74 68 6B 32 00                                 .thk2.          
```

#### Opcodes

```
  0: 0x0488 [0x53] WAIT_SCHEDULER_TASK: Wait for scheduler "thk2" with entities [EventEntity, EventEntity]
  1: 0x0495 [0x00] END_REQSTACK()
```

### Event 65535.57

#### Metadata

| Field        | Value    |
|--------------|----------|
| Entrypoint   | 0x0496   |
| Data Size    | 16 bytes |
| Instructions | 2        |

```
      00 01 02 03 04 05 06 07  08 09 0A 0B 0C 0D 0E 0F
      -- -- -- -- -- -- -- --  -- -- -- -- -- -- -- --
0490:                   5B 93  80 F8 FF FF 7F F8 FF FF        [.........
04A0: 7F 77 61 76 30 00                                 .wav0.          
```

#### Opcodes

```
  0: 0x0496 [0x5B] LOAD_EXT_SCHEDULER: Load scheduler "wav0" with entities [EventEntity, EventEntity], work=145*
  1: 0x04A5 [0x00] END_REQSTACK()
```

### Event 65535.58

#### Metadata

| Field        | Value    |
|--------------|----------|
| Entrypoint   | 0x04A6   |
| Data Size    | 14 bytes |
| Instructions | 2        |

```
      00 01 02 03 04 05 06 07  08 09 0A 0B 0C 0D 0E 0F
      -- -- -- -- -- -- -- --  -- -- -- -- -- -- -- --
04A0:                   53 F8  FF FF 7F F8 FF FF 7F 77        S........w
04B0: 61 76 30 00                                       av0.            
```

#### Opcodes

```
  0: 0x04A6 [0x53] WAIT_SCHEDULER_TASK: Wait for scheduler "wav0" with entities [EventEntity, EventEntity]
  1: 0x04B3 [0x00] END_REQSTACK()
```

### Event 65535.59

#### Metadata

| Field        | Value    |
|--------------|----------|
| Entrypoint   | 0x04B4   |
| Data Size    | 16 bytes |
| Instructions | 2        |

```
      00 01 02 03 04 05 06 07  08 09 0A 0B 0C 0D 0E 0F
      -- -- -- -- -- -- -- --  -- -- -- -- -- -- -- --
04B0:             5B 93 80 F8  FF FF 7F F8 FF FF 7F 70      [..........p
04C0: 61 73 30 00                                       as0.            
```

#### Opcodes

```
  0: 0x04B4 [0x5B] LOAD_EXT_SCHEDULER: Load scheduler "pas0" with entities [EventEntity, EventEntity], work=145*
  1: 0x04C3 [0x00] END_REQSTACK()
```

### Event 65535.60

#### Metadata

| Field        | Value    |
|--------------|----------|
| Entrypoint   | 0x04C4   |
| Data Size    | 14 bytes |
| Instructions | 2        |

```
      00 01 02 03 04 05 06 07  08 09 0A 0B 0C 0D 0E 0F
      -- -- -- -- -- -- -- --  -- -- -- -- -- -- -- --
04C0:             53 F8 FF FF  7F F8 FF FF 7F 70 61 73      S........pas
04D0: 30 00                                             0.              
```

#### Opcodes

```
  0: 0x04C4 [0x53] WAIT_SCHEDULER_TASK: Wait for scheduler "pas0" with entities [EventEntity, EventEntity]
  1: 0x04D1 [0x00] END_REQSTACK()
```

### Event 65535.61

#### Metadata

| Field        | Value    |
|--------------|----------|
| Entrypoint   | 0x04D2   |
| Data Size    | 16 bytes |
| Instructions | 2        |

```
      00 01 02 03 04 05 06 07  08 09 0A 0B 0C 0D 0E 0F
      -- -- -- -- -- -- -- --  -- -- -- -- -- -- -- --
04D0:       5B 7D 80 F8 FF FF  7F F8 FF FF 7F 69 6B 72    [}.........ikr
04E0: 30 00                                             0.              
```

#### Opcodes

```
  0: 0x04D2 [0x5B] LOAD_EXT_SCHEDULER: Load scheduler "ikr0" with entities [EventEntity, EventEntity], work=146*
  1: 0x04E1 [0x00] END_REQSTACK()
```

### Event 65535.62

#### Metadata

| Field        | Value    |
|--------------|----------|
| Entrypoint   | 0x04E2   |
| Data Size    | 14 bytes |
| Instructions | 2        |

```
      00 01 02 03 04 05 06 07  08 09 0A 0B 0C 0D 0E 0F
      -- -- -- -- -- -- -- --  -- -- -- -- -- -- -- --
04E0:       53 F8 FF FF 7F F8  FF FF 7F 69 6B 72 30 00    S........ikr0.
```

#### Opcodes

```
  0: 0x04E2 [0x53] WAIT_SCHEDULER_TASK: Wait for scheduler "ikr0" with entities [EventEntity, EventEntity]
  1: 0x04EF [0x00] END_REQSTACK()
```

### Event 65535.63

#### Metadata

| Field        | Value    |
|--------------|----------|
| Entrypoint   | 0x04F0   |
| Data Size    | 16 bytes |
| Instructions | 2        |

```
      00 01 02 03 04 05 06 07  08 09 0A 0B 0C 0D 0E 0F
      -- -- -- -- -- -- -- --  -- -- -- -- -- -- -- --
04F0: 5B 7D 80 F8 FF FF 7F F8  FF FF 7F 69 6B 72 31 00  [}.........ikr1.
```

#### Opcodes

```
  0: 0x04F0 [0x5B] LOAD_EXT_SCHEDULER: Load scheduler "ikr1" with entities [EventEntity, EventEntity], work=146*
  1: 0x04FF [0x00] END_REQSTACK()
```

### Event 65535.64

#### Metadata

| Field        | Value    |
|--------------|----------|
| Entrypoint   | 0x0500   |
| Data Size    | 14 bytes |
| Instructions | 2        |

```
      00 01 02 03 04 05 06 07  08 09 0A 0B 0C 0D 0E 0F
      -- -- -- -- -- -- -- --  -- -- -- -- -- -- -- --
0500: 53 F8 FF FF 7F F8 FF FF  7F 69 6B 72 31 00        S........ikr1.  
```

#### Opcodes

```
  0: 0x0500 [0x53] WAIT_SCHEDULER_TASK: Wait for scheduler "ikr1" with entities [EventEntity, EventEntity]
  1: 0x050D [0x00] END_REQSTACK()
```

### Event 65535.65

#### Metadata

| Field        | Value    |
|--------------|----------|
| Entrypoint   | 0x050E   |
| Data Size    | 16 bytes |
| Instructions | 2        |

```
      00 01 02 03 04 05 06 07  08 09 0A 0B 0C 0D 0E 0F
      -- -- -- -- -- -- -- --  -- -- -- -- -- -- -- --
0500:                                            5B 7D                [}
0510: 80 F8 FF FF 7F F8 FF FF  7F 69 74 6C 30 00        .........itl0.  
```

#### Opcodes

```
  0: 0x050E [0x5B] LOAD_EXT_SCHEDULER: Load scheduler "itl0" with entities [EventEntity, EventEntity], work=146*
  1: 0x051D [0x00] END_REQSTACK()
```

### Event 65535.66

#### Metadata

| Field        | Value    |
|--------------|----------|
| Entrypoint   | 0x051E   |
| Data Size    | 14 bytes |
| Instructions | 2        |

```
      00 01 02 03 04 05 06 07  08 09 0A 0B 0C 0D 0E 0F
      -- -- -- -- -- -- -- --  -- -- -- -- -- -- -- --
0510:                                            53 F8                S.
0520: FF FF 7F F8 FF FF 7F 69  74 6C 30 00              .......itl0.    
```

#### Opcodes

```
  0: 0x051E [0x53] WAIT_SCHEDULER_TASK: Wait for scheduler "itl0" with entities [EventEntity, EventEntity]
  1: 0x052B [0x00] END_REQSTACK()
```

### Event 65535.67

#### Metadata

| Field        | Value    |
|--------------|----------|
| Entrypoint   | 0x052C   |
| Data Size    | 16 bytes |
| Instructions | 2        |

```
      00 01 02 03 04 05 06 07  08 09 0A 0B 0C 0D 0E 0F
      -- -- -- -- -- -- -- --  -- -- -- -- -- -- -- --
0520:                                      5B 7D 80 F8              [}..
0530: FF FF 7F F8 FF FF 7F 69  74 6C 31 00              .......itl1.    
```

#### Opcodes

```
  0: 0x052C [0x5B] LOAD_EXT_SCHEDULER: Load scheduler "itl1" with entities [EventEntity, EventEntity], work=146*
  1: 0x053B [0x00] END_REQSTACK()
```

### Event 65535.68

#### Metadata

| Field        | Value    |
|--------------|----------|
| Entrypoint   | 0x053C   |
| Data Size    | 14 bytes |
| Instructions | 2        |

```
      00 01 02 03 04 05 06 07  08 09 0A 0B 0C 0D 0E 0F
      -- -- -- -- -- -- -- --  -- -- -- -- -- -- -- --
0530:                                      53 F8 FF FF              S...
0540: 7F F8 FF FF 7F 69 74 6C  31 00                    .....itl1.      
```

#### Opcodes

```
  0: 0x053C [0x53] WAIT_SCHEDULER_TASK: Wait for scheduler "itl1" with entities [EventEntity, EventEntity]
  1: 0x0549 [0x00] END_REQSTACK()
```

### Event 65535.69

#### Metadata

| Field        | Value    |
|--------------|----------|
| Entrypoint   | 0x054A   |
| Data Size    | 22 bytes |
| Instructions | 3        |

```
      00 01 02 03 04 05 06 07  08 09 0A 0B 0C 0D 0E 0F
      -- -- -- -- -- -- -- --  -- -- -- -- -- -- -- --
0540:                                81 00 F8 FF FF 7F            ......
0550: 5B 7D 80 F8 FF FF 7F F8  FF FF 7F 6B 6F 75 30 00  [}.........kou0.
```

#### Opcodes

```
  0: 0x054A [0x81] SET_ENTITY_BLINKING(blink_flag=0x00, entity=EventEntity)
  1: 0x0550 [0x5B] LOAD_EXT_SCHEDULER: Load scheduler "kou0" with entities [EventEntity, EventEntity], work=146*
  2: 0x055F [0x00] END_REQSTACK()
```

### Event 65535.70

#### Metadata

| Field        | Value    |
|--------------|----------|
| Entrypoint   | 0x0560   |
| Data Size    | 14 bytes |
| Instructions | 2        |

```
      00 01 02 03 04 05 06 07  08 09 0A 0B 0C 0D 0E 0F
      -- -- -- -- -- -- -- --  -- -- -- -- -- -- -- --
0560: 53 F8 FF FF 7F F8 FF FF  7F 6B 6F 75 30 00        S........kou0.  
```

#### Opcodes

```
  0: 0x0560 [0x53] WAIT_SCHEDULER_TASK: Wait for scheduler "kou0" with entities [EventEntity, EventEntity]
  1: 0x056D [0x00] END_REQSTACK()
```

### Event 65535.71

#### Metadata

| Field        | Value    |
|--------------|----------|
| Entrypoint   | 0x056E   |
| Data Size    | 22 bytes |
| Instructions | 3        |

```
      00 01 02 03 04 05 06 07  08 09 0A 0B 0C 0D 0E 0F
      -- -- -- -- -- -- -- --  -- -- -- -- -- -- -- --
0560:                                            81 01                ..
0570: F8 FF FF 7F 5B 7D 80 F8  FF FF 7F F8 FF FF 7F 6B  ....[}.........k
0580: 6F 75 31 00                                       ou1.            
```

#### Opcodes

```
  0: 0x056E [0x81] SET_ENTITY_BLINKING(blink_flag=0x01, entity=EventEntity)
  1: 0x0574 [0x5B] LOAD_EXT_SCHEDULER: Load scheduler "kou1" with entities [EventEntity, EventEntity], work=146*
  2: 0x0583 [0x00] END_REQSTACK()
```

### Event 65535.72

#### Metadata

| Field        | Value    |
|--------------|----------|
| Entrypoint   | 0x0584   |
| Data Size    | 14 bytes |
| Instructions | 2        |

```
      00 01 02 03 04 05 06 07  08 09 0A 0B 0C 0D 0E 0F
      -- -- -- -- -- -- -- --  -- -- -- -- -- -- -- --
0580:             53 F8 FF FF  7F F8 FF FF 7F 6B 6F 75      S........kou
0590: 31 00                                             1.              
```

#### Opcodes

```
  0: 0x0584 [0x53] WAIT_SCHEDULER_TASK: Wait for scheduler "kou1" with entities [EventEntity, EventEntity]
  1: 0x0591 [0x00] END_REQSTACK()
```

### Event 65535.73

#### Metadata

| Field        | Value    |
|--------------|----------|
| Entrypoint   | 0x0592   |
| Data Size    | 16 bytes |
| Instructions | 2        |

```
      00 01 02 03 04 05 06 07  08 09 0A 0B 0C 0D 0E 0F
      -- -- -- -- -- -- -- --  -- -- -- -- -- -- -- --
0590:       5B 7D 80 F8 FF FF  7F F8 FF FF 7F 6C 61 75    [}.........lau
05A0: 30 00                                             0.              
```

#### Opcodes

```
  0: 0x0592 [0x5B] LOAD_EXT_SCHEDULER: Load scheduler "lau0" with entities [EventEntity, EventEntity], work=146*
  1: 0x05A1 [0x00] END_REQSTACK()
```

### Event 65535.74

#### Metadata

| Field        | Value    |
|--------------|----------|
| Entrypoint   | 0x05A2   |
| Data Size    | 14 bytes |
| Instructions | 2        |

```
      00 01 02 03 04 05 06 07  08 09 0A 0B 0C 0D 0E 0F
      -- -- -- -- -- -- -- --  -- -- -- -- -- -- -- --
05A0:       53 F8 FF FF 7F F8  FF FF 7F 6C 61 75 30 00    S........lau0.
```

#### Opcodes

```
  0: 0x05A2 [0x53] WAIT_SCHEDULER_TASK: Wait for scheduler "lau0" with entities [EventEntity, EventEntity]
  1: 0x05AF [0x00] END_REQSTACK()
```

### Event 65535.75

#### Metadata

| Field        | Value    |
|--------------|----------|
| Entrypoint   | 0x05B0   |
| Data Size    | 16 bytes |
| Instructions | 2        |

```
      00 01 02 03 04 05 06 07  08 09 0A 0B 0C 0D 0E 0F
      -- -- -- -- -- -- -- --  -- -- -- -- -- -- -- --
05B0: 5B 7D 80 F8 FF FF 7F F8  FF FF 7F 6C 61 75 31 00  [}.........lau1.
```

#### Opcodes

```
  0: 0x05B0 [0x5B] LOAD_EXT_SCHEDULER: Load scheduler "lau1" with entities [EventEntity, EventEntity], work=146*
  1: 0x05BF [0x00] END_REQSTACK()
```

### Event 65535.76

#### Metadata

| Field        | Value    |
|--------------|----------|
| Entrypoint   | 0x05C0   |
| Data Size    | 14 bytes |
| Instructions | 2        |

```
      00 01 02 03 04 05 06 07  08 09 0A 0B 0C 0D 0E 0F
      -- -- -- -- -- -- -- --  -- -- -- -- -- -- -- --
05C0: 53 F8 FF FF 7F F8 FF FF  7F 6C 61 75 31 00        S........lau1.  
```

#### Opcodes

```
  0: 0x05C0 [0x53] WAIT_SCHEDULER_TASK: Wait for scheduler "lau1" with entities [EventEntity, EventEntity]
  1: 0x05CD [0x00] END_REQSTACK()
```

### Event 65535.77

#### Metadata

| Field        | Value    |
|--------------|----------|
| Entrypoint   | 0x05CE   |
| Data Size    | 16 bytes |
| Instructions | 2        |

```
      00 01 02 03 04 05 06 07  08 09 0A 0B 0C 0D 0E 0F
      -- -- -- -- -- -- -- --  -- -- -- -- -- -- -- --
05C0:                                            5B 1A                [.
05D0: 80 F8 FF FF 7F F8 FF FF  7F 6F 74 69 30 00        .........oti0.  
```

#### Opcodes

```
  0: 0x05CE [0x5B] LOAD_EXT_SCHEDULER: Load scheduler "oti0" with entities [EventEntity, EventEntity], work=147*
  1: 0x05DD [0x00] END_REQSTACK()
```

### Event 65535.78

#### Metadata

| Field        | Value    |
|--------------|----------|
| Entrypoint   | 0x05DE   |
| Data Size    | 14 bytes |
| Instructions | 2        |

```
      00 01 02 03 04 05 06 07  08 09 0A 0B 0C 0D 0E 0F
      -- -- -- -- -- -- -- --  -- -- -- -- -- -- -- --
05D0:                                            53 F8                S.
05E0: FF FF 7F F8 FF FF 7F 6F  74 69 30 00              .......oti0.    
```

#### Opcodes

```
  0: 0x05DE [0x53] WAIT_SCHEDULER_TASK: Wait for scheduler "oti0" with entities [EventEntity, EventEntity]
  1: 0x05EB [0x00] END_REQSTACK()
```

### Event 65535.79

#### Metadata

| Field        | Value    |
|--------------|----------|
| Entrypoint   | 0x05EC   |
| Data Size    | 16 bytes |
| Instructions | 2        |

```
      00 01 02 03 04 05 06 07  08 09 0A 0B 0C 0D 0E 0F
      -- -- -- -- -- -- -- --  -- -- -- -- -- -- -- --
05E0:                                      5B 1A 80 F8              [...
05F0: FF FF 7F F8 FF FF 7F 6F  74 69 31 00              .......oti1.    
```

#### Opcodes

```
  0: 0x05EC [0x5B] LOAD_EXT_SCHEDULER: Load scheduler "oti1" with entities [EventEntity, EventEntity], work=147*
  1: 0x05FB [0x00] END_REQSTACK()
```

### Event 65535.80

#### Metadata

| Field        | Value    |
|--------------|----------|
| Entrypoint   | 0x05FC   |
| Data Size    | 14 bytes |
| Instructions | 2        |

```
      00 01 02 03 04 05 06 07  08 09 0A 0B 0C 0D 0E 0F
      -- -- -- -- -- -- -- --  -- -- -- -- -- -- -- --
05F0:                                      53 F8 FF FF              S...
0600: 7F F8 FF FF 7F 6F 74 69  31 00                    .....oti1.      
```

#### Opcodes

```
  0: 0x05FC [0x53] WAIT_SCHEDULER_TASK: Wait for scheduler "oti1" with entities [EventEntity, EventEntity]
  1: 0x0609 [0x00] END_REQSTACK()
```

### Event 65535.81

#### Metadata

| Field        | Value    |
|--------------|----------|
| Entrypoint   | 0x060A   |
| Data Size    | 16 bytes |
| Instructions | 2        |

```
      00 01 02 03 04 05 06 07  08 09 0A 0B 0C 0D 0E 0F
      -- -- -- -- -- -- -- --  -- -- -- -- -- -- -- --
0600:                                5B 1A 80 F8 FF FF            [.....
0610: 7F F8 FF FF 7F 72 6F 75  30 00                    .....rou0.      
```

#### Opcodes

```
  0: 0x060A [0x5B] LOAD_EXT_SCHEDULER: Load scheduler "rou0" with entities [EventEntity, EventEntity], work=147*
  1: 0x0619 [0x00] END_REQSTACK()
```

### Event 65535.82

#### Metadata

| Field        | Value    |
|--------------|----------|
| Entrypoint   | 0x061A   |
| Data Size    | 14 bytes |
| Instructions | 2        |

```
      00 01 02 03 04 05 06 07  08 09 0A 0B 0C 0D 0E 0F
      -- -- -- -- -- -- -- --  -- -- -- -- -- -- -- --
0610:                                53 F8 FF FF 7F F8            S.....
0620: FF FF 7F 72 6F 75 30 00                           ...rou0.        
```

#### Opcodes

```
  0: 0x061A [0x53] WAIT_SCHEDULER_TASK: Wait for scheduler "rou0" with entities [EventEntity, EventEntity]
  1: 0x0627 [0x00] END_REQSTACK()
```

### Event 65535.83

#### Metadata

| Field        | Value    |
|--------------|----------|
| Entrypoint   | 0x0628   |
| Data Size    | 16 bytes |
| Instructions | 2        |

```
      00 01 02 03 04 05 06 07  08 09 0A 0B 0C 0D 0E 0F
      -- -- -- -- -- -- -- --  -- -- -- -- -- -- -- --
0620:                          5B 1A 80 F8 FF FF 7F F8          [.......
0630: FF FF 7F 72 6F 75 31 00                           ...rou1.        
```

#### Opcodes

```
  0: 0x0628 [0x5B] LOAD_EXT_SCHEDULER: Load scheduler "rou1" with entities [EventEntity, EventEntity], work=147*
  1: 0x0637 [0x00] END_REQSTACK()
```

### Event 65535.84

#### Metadata

| Field        | Value    |
|--------------|----------|
| Entrypoint   | 0x0638   |
| Data Size    | 14 bytes |
| Instructions | 2        |

```
      00 01 02 03 04 05 06 07  08 09 0A 0B 0C 0D 0E 0F
      -- -- -- -- -- -- -- --  -- -- -- -- -- -- -- --
0630:                          53 F8 FF FF 7F F8 FF FF          S.......
0640: 7F 72 6F 75 31 00                                 .rou1.          
```

#### Opcodes

```
  0: 0x0638 [0x53] WAIT_SCHEDULER_TASK: Wait for scheduler "rou1" with entities [EventEntity, EventEntity]
  1: 0x0645 [0x00] END_REQSTACK()
```

### Event 65535.85

#### Metadata

| Field        | Value    |
|--------------|----------|
| Entrypoint   | 0x0646   |
| Data Size    | 16 bytes |
| Instructions | 2        |

```
      00 01 02 03 04 05 06 07  08 09 0A 0B 0C 0D 0E 0F
      -- -- -- -- -- -- -- --  -- -- -- -- -- -- -- --
0640:                   5B 1A  80 F8 FF FF 7F F8 FF FF        [.........
0650: 7F 73 69 74 30 00                                 .sit0.          
```

#### Opcodes

```
  0: 0x0646 [0x5B] LOAD_EXT_SCHEDULER: Load scheduler "sit0" with entities [EventEntity, EventEntity], work=147*
  1: 0x0655 [0x00] END_REQSTACK()
```

### Event 65535.86

#### Metadata

| Field        | Value    |
|--------------|----------|
| Entrypoint   | 0x0656   |
| Data Size    | 14 bytes |
| Instructions | 2        |

```
      00 01 02 03 04 05 06 07  08 09 0A 0B 0C 0D 0E 0F
      -- -- -- -- -- -- -- --  -- -- -- -- -- -- -- --
0650:                   53 F8  FF FF 7F F8 FF FF 7F 73        S........s
0660: 69 74 30 00                                       it0.            
```

#### Opcodes

```
  0: 0x0656 [0x53] WAIT_SCHEDULER_TASK: Wait for scheduler "sit0" with entities [EventEntity, EventEntity]
  1: 0x0663 [0x00] END_REQSTACK()
```

### Event 65535.87

#### Metadata

| Field        | Value    |
|--------------|----------|
| Entrypoint   | 0x0664   |
| Data Size    | 16 bytes |
| Instructions | 2        |

```
      00 01 02 03 04 05 06 07  08 09 0A 0B 0C 0D 0E 0F
      -- -- -- -- -- -- -- --  -- -- -- -- -- -- -- --
0660:             5B 1A 80 F8  FF FF 7F F8 FF FF 7F 73      [..........s
0670: 69 74 31 00                                       it1.            
```

#### Opcodes

```
  0: 0x0664 [0x5B] LOAD_EXT_SCHEDULER: Load scheduler "sit1" with entities [EventEntity, EventEntity], work=147*
  1: 0x0673 [0x00] END_REQSTACK()
```

### Event 65535.88

#### Metadata

| Field        | Value    |
|--------------|----------|
| Entrypoint   | 0x0674   |
| Data Size    | 14 bytes |
| Instructions | 2        |

```
      00 01 02 03 04 05 06 07  08 09 0A 0B 0C 0D 0E 0F
      -- -- -- -- -- -- -- --  -- -- -- -- -- -- -- --
0670:             53 F8 FF FF  7F F8 FF FF 7F 73 69 74      S........sit
0680: 31 00                                             1.              
```

#### Opcodes

```
  0: 0x0674 [0x53] WAIT_SCHEDULER_TASK: Wait for scheduler "sit1" with entities [EventEntity, EventEntity]
  1: 0x0681 [0x00] END_REQSTACK()
```

### Event 65535.89

#### Metadata

| Field        | Value    |
|--------------|----------|
| Entrypoint   | 0x0682   |
| Data Size    | 16 bytes |
| Instructions | 2        |

```
      00 01 02 03 04 05 06 07  08 09 0A 0B 0C 0D 0E 0F
      -- -- -- -- -- -- -- --  -- -- -- -- -- -- -- --
0680:       5B 94 80 F8 FF FF  7F F8 FF FF 7F 75 74 75    [..........utu
0690: 30 00                                             0.              
```

#### Opcodes

```
  0: 0x0682 [0x5B] LOAD_EXT_SCHEDULER: Load scheduler "utu0" with entities [EventEntity, EventEntity], work=148*
  1: 0x0691 [0x00] END_REQSTACK()
```

### Event 65535.90

#### Metadata

| Field        | Value    |
|--------------|----------|
| Entrypoint   | 0x0692   |
| Data Size    | 14 bytes |
| Instructions | 2        |

```
      00 01 02 03 04 05 06 07  08 09 0A 0B 0C 0D 0E 0F
      -- -- -- -- -- -- -- --  -- -- -- -- -- -- -- --
0690:       53 F8 FF FF 7F F8  FF FF 7F 75 74 75 30 00    S........utu0.
```

#### Opcodes

```
  0: 0x0692 [0x53] WAIT_SCHEDULER_TASK: Wait for scheduler "utu0" with entities [EventEntity, EventEntity]
  1: 0x069F [0x00] END_REQSTACK()
```

### Event 65535.91

#### Metadata

| Field        | Value    |
|--------------|----------|
| Entrypoint   | 0x06A0   |
| Data Size    | 16 bytes |
| Instructions | 2        |

```
      00 01 02 03 04 05 06 07  08 09 0A 0B 0C 0D 0E 0F
      -- -- -- -- -- -- -- --  -- -- -- -- -- -- -- --
06A0: 5B 94 80 F8 FF FF 7F F8  FF FF 7F 75 74 75 31 00  [..........utu1.
```

#### Opcodes

```
  0: 0x06A0 [0x5B] LOAD_EXT_SCHEDULER: Load scheduler "utu1" with entities [EventEntity, EventEntity], work=148*
  1: 0x06AF [0x00] END_REQSTACK()
```

### Event 65535.92

#### Metadata

| Field        | Value    |
|--------------|----------|
| Entrypoint   | 0x06B0   |
| Data Size    | 14 bytes |
| Instructions | 2        |

```
      00 01 02 03 04 05 06 07  08 09 0A 0B 0C 0D 0E 0F
      -- -- -- -- -- -- -- --  -- -- -- -- -- -- -- --
06B0: 53 F8 FF FF 7F F8 FF FF  7F 75 74 75 31 00        S........utu1.  
```

#### Opcodes

```
  0: 0x06B0 [0x53] WAIT_SCHEDULER_TASK: Wait for scheduler "utu1" with entities [EventEntity, EventEntity]
  1: 0x06BD [0x00] END_REQSTACK()
```

### Event 1052

#### Metadata

| Field        | Value   |
|--------------|---------|
| Entrypoint   | 0x06BE  |
| Data Size    | 7 bytes |
| Instructions | 2       |

```
      00 01 02 03 04 05 06 07  08 09 0A 0B 0C 0D 0E 0F
      -- -- -- -- -- -- -- --  -- -- -- -- -- -- -- --
06B0:                                            92 01                ..
06C0: F8 FF FF 7F 00                                    .....           
```

#### Opcodes

```
  0: 0x06BE [0x92] EventEntity->Render.Flags3 ^= 0x01
  1: 0x06C4 [0x00] END_REQSTACK()
```

### Event 65535.93

#### Metadata

| Field        | Value    |
|--------------|----------|
| Entrypoint   | 0x06C5   |
| Data Size    | 15 bytes |
| Instructions | 5        |

```
      00 01 02 03 04 05 06 07  08 09 0A 0B 0C 0D 0E 0F
      -- -- -- -- -- -- -- --  -- -- -- -- -- -- -- --
06C0:                32 04 80  1F 00 95 80 96 80 07 80       2..........
06D0: 1F 01 6F 00                                       ..o.            
```

#### Opcodes

```
  0: 0x06C5 [0x32] ExtData[1]->MainSpeed = 40* * 0.1
  1: 0x06C8 [0x1F] MOVE_ENTITY: EventEntity moves to X=82.891*, Z=0.100*, Y=-19.532*
  2: 0x06D0 [0x1F] MOVE_ENTITY: Update entity position (mode=1)
  3: 0x06D2 [0x6F] WAIT_FRAME_DELAY: Yield until WaitTime reaches zero
  4: 0x06D3 [0x00] END_REQSTACK()
```

### Event 65535.94

#### Metadata

| Field        | Value    |
|--------------|----------|
| Entrypoint   | 0x06D4   |
| Data Size    | 15 bytes |
| Instructions | 5        |

```
      00 01 02 03 04 05 06 07  08 09 0A 0B 0C 0D 0E 0F
      -- -- -- -- -- -- -- --  -- -- -- -- -- -- -- --
06D0:             32 17 80 1F  00 97 80 98 80 07 80 1F      2...........
06E0: 01 6F 00                                          .o.             
```

#### Opcodes

```
  0: 0x06D4 [0x32] ExtData[1]->MainSpeed = 13* * 0.1
  1: 0x06D7 [0x1F] MOVE_ENTITY: EventEntity moves to X=85.722*, Z=0.140*, Y=-19.532*
  2: 0x06DF [0x1F] MOVE_ENTITY: Update entity position (mode=1)
  3: 0x06E1 [0x6F] WAIT_FRAME_DELAY: Yield until WaitTime reaches zero
  4: 0x06E2 [0x00] END_REQSTACK()
```

### Event 65535.95

#### Metadata

| Field        | Value    |
|--------------|----------|
| Entrypoint   | 0x06E3   |
| Data Size    | 15 bytes |
| Instructions | 5        |

```
      00 01 02 03 04 05 06 07  08 09 0A 0B 0C 0D 0E 0F
      -- -- -- -- -- -- -- --  -- -- -- -- -- -- -- --
06E0:          32 17 80 1F 00  99 80 9A 80 07 80 1F 01     2............
06F0: 6F 00                                             o.              
```

#### Opcodes

```
  0: 0x06E3 [0x32] ExtData[1]->MainSpeed = 13* * 0.1
  1: 0x06E6 [0x1F] MOVE_ENTITY: EventEntity moves to X=88.015*, Z=-1.883*, Y=-19.532*
  2: 0x06EE [0x1F] MOVE_ENTITY: Update entity position (mode=1)
  3: 0x06F0 [0x6F] WAIT_FRAME_DELAY: Yield until WaitTime reaches zero
  4: 0x06F1 [0x00] END_REQSTACK()
```

### Event 65535.96

#### Metadata

| Field        | Value    |
|--------------|----------|
| Entrypoint   | 0x06F2   |
| Data Size    | 22 bytes |
| Instructions | 8        |

```
      00 01 02 03 04 05 06 07  08 09 0A 0B 0C 0D 0E 0F
      -- -- -- -- -- -- -- --  -- -- -- -- -- -- -- --
06F0:       32 17 80 1F 00 9B  80 9C 80 07 80 1F 01 6F    2............o
0700: 1E F0 FF FF 7F 6F 70 00                           .....op.        
```

#### Opcodes

```
  0: 0x06F2 [0x32] ExtData[1]->MainSpeed = 13* * 0.1
  1: 0x06F5 [0x1F] MOVE_ENTITY: EventEntity moves to X=87.627*, Z=-0.829*, Y=-19.532*
  2: 0x06FD [0x1F] MOVE_ENTITY: Update entity position (mode=1)
  3: 0x06FF [0x6F] WAIT_FRAME_DELAY: Yield until WaitTime reaches zero
  4: 0x0700 [0x1E] EventEntity looks at LocalPlayer and starts talking
  5: 0x0705 [0x6F] WAIT_FRAME_DELAY: Yield until WaitTime reaches zero
  6: 0x0706 [0x70] WAIT_ENTITY_RENDER_FLAG: Wait while EventEntity->Render.Flags3 bit 2 is set (cancel turn if not)
  7: 0x0707 [0x00] END_REQSTACK()
```

### Event 65535.97

#### Metadata

| Field        | Value    |
|--------------|----------|
| Entrypoint   | 0x0708   |
| Data Size    | 17 bytes |
| Instructions | 6        |

```
      00 01 02 03 04 05 06 07  08 09 0A 0B 0C 0D 0E 0F
      -- -- -- -- -- -- -- --  -- -- -- -- -- -- -- --
0700:                          32 17 80 1F 00 90 80 91          2.......
0710: 80 92 80 1F 01 6F 22 01  00                       .....o"..       
```

#### Opcodes

```
  0: 0x0708 [0x32] ExtData[1]->MainSpeed = 13* * 0.1
  1: 0x070B [0x1F] MOVE_ENTITY: EventEntity moves to X=77.600*, Z=-0.867*, Y=-19.531*
  2: 0x0713 [0x1F] MOVE_ENTITY: Update entity position (mode=1)
  3: 0x0715 [0x6F] WAIT_FRAME_DELAY: Yield until WaitTime reaches zero
  4: 0x0716 [0x22] ENTITY_HIDE_FLAG(enabled=0x01)
  5: 0x0718 [0x00] END_REQSTACK()
```

### Event 65535.98

#### Metadata

| Field        | Value   |
|--------------|---------|
| Entrypoint   | 0x0719  |
| Data Size    | 2 bytes |
| Instructions | 2       |

```
      00 01 02 03 04 05 06 07  08 09 0A 0B 0C 0D 0E 0F
      -- -- -- -- -- -- -- --  -- -- -- -- -- -- -- --
0710:                             84 00                          ..     
```

#### Opcodes

```
  0: 0x0719 [0x84] ADJUST_RENDER_FLAGS3_BIT0()
  1: 0x071A [0x00] END_REQSTACK()
```
