# 17748165 - Helga

## Common Data

| Field            | Value                |
|------------------|----------------------|
| Zone             | Metalworks (ID: 237) |
| Block Size       | 148 bytes            |
| Total Events     | 2                    |
| References Count | 11                   |

## List of Events

| Event ID              | Entrypoint   |   Size |   Instructions |
|-----------------------|--------------|--------|----------------|
| [65535](#event-65535) | 0x0000       |      1 |              1 |
| [937](#event-937)     | 0x0001       |     79 |             23 |

## DAT References (imed_data)

|   Index | Hex Value   |   Dec Value |
|---------|-------------|-------------|
|       0 | 0x001E      |          30 |
|       1 | 0x29C8      |       10696 |
|       2 | 0x29C9      |       10697 |
|       3 | 0x0000      |           0 |
|       4 | 0x0013      |          19 |
|       5 | 0x29CB      |       10699 |
|       6 | 0x29CC      |       10700 |
|       7 | 0x29CD      |       10701 |
|       8 | 0x29CE      |       10702 |
|       9 | 0x0001      |           1 |
|      10 | 0x29CA      |       10698 |

## String References

- **10696**: Greetings, adventurer. I am Gold Musketeer first captain, Helga. Would you like me to give you a simple briefing on the Republican military?
- **10697**: Listen in? [Yes./No.]
- **10698**: Ah, I suppose you are already an expert on the subject. My apologies.
- **10699**: The Republican military is comprised of two groups: the Republican Legion and the Musketeers.
- **10700**: The legionary forces are formed from volunteers and draftees, and are divided into four different organizations. It is these organizations that handle the responsibility of defending our nation from invasion.
- **10701**: The musketeers are an elite group of officers hand-selected from legion ranks. As with the legion, this group is also divided into several smaller units.
- **10702**: Of those units, the two most prominent would be the Iron Musketeers, who answer directly to the Department of Industry, and the Gold Musketeers, who take their orders from the Department of Mining.

## Events

### Event 65535

#### Metadata

| Field        | Value   |
|--------------|---------|
| Entrypoint   | 0x0000  |
| Data Size    | 1 bytes |
| Instructions | 1       |

```
      00 01 02 03 04 05 06 07  08 09 0A 0B 0C 0D 0E 0F
      -- -- -- -- -- -- -- --  -- -- -- -- -- -- -- --
0000: 00                                                .               
```

#### Opcodes

```
  0: 0x0000 [0x00] END_REQSTACK()
```

### Event 937

#### Metadata

| Field        | Value    |
|--------------|----------|
| Entrypoint   | 0x0001   |
| Data Size    | 79 bytes |
| Instructions | 23       |

```
      00 01 02 03 04 05 06 07  08 09 0A 0B 0C 0D 0E 0F
      -- -- -- -- -- -- -- --  -- -- -- -- -- -- -- --
0000:    1E F0 FF FF 7F 1C 00  80 1D 01 80 23 24 02 80   ...........#$..
0010: 03 80 03 80 25 02 00 10  03 80 00 3F 00 66 04 80  ....%......?.f..
0020: F8 FF FF 7F F8 FF FF 7F  74 6C 6B 30 1D 05 80 23  ........tlk0...#
0030: 1D 06 80 23 1D 07 80 23  1D 08 80 23 01 4E 00 02  ...#...#...#.N..
0040: 00 10 09 80 00 4E 00 1D  0A 80 23 01 4E 00 21 00  .....N....#.N.!.
```

#### Opcodes

```
  0: 0x0001 [0x1E] EventEntity looks at LocalPlayer and starts talking
  1: 0x0006 [0x1C] WAIT(30* ticks)
  2: 0x0009 [0x1D] PRINT_EVENT_MESSAGE(message_id=10696*)
    → "Greetings, adventurer. I am Gold Musketeer first captain, Helga. Would you like me to give you a simple briefing on the Republican military?"
  3: 0x000C [0x23] WAIT_FOR_DIALOG_INTERACTION
  4: 0x000D [0x24] CREATE_DIALOG(message_id=10697*, default_option=0*, option_flags=0*)
    → "Listen in? [Yes./No.]"
  5: 0x0014 [0x25] WAIT_DIALOG_SELECT()
  6: 0x0015 [0x02] IF !(Work_Zone[0] == 0*) GOTO 0x003F
  7: 0x001D [0x66] LOAD_EXT_SCHEDULER_MAIN: Load scheduler "tlk0" with entities [EventEntity, EventEntity], work=19*
  8: 0x002C [0x1D] PRINT_EVENT_MESSAGE(message_id=10699*)
    → "The Republican military is comprised of two groups: the Republican Legion and the Musketeers."
  9: 0x002F [0x23] WAIT_FOR_DIALOG_INTERACTION
 10: 0x0030 [0x1D] PRINT_EVENT_MESSAGE(message_id=10700*)
    → "The legionary forces are formed from volunteers and draftees, and are divided into four different organizations. It is these organizations that handle the responsibility of defending our nation from invasion."
 11: 0x0033 [0x23] WAIT_FOR_DIALOG_INTERACTION
 12: 0x0034 [0x1D] PRINT_EVENT_MESSAGE(message_id=10701*)
    → "The musketeers are an elite group of officers hand-selected from legion ranks. As with the legion, this group is also divided into several smaller units."
 13: 0x0037 [0x23] WAIT_FOR_DIALOG_INTERACTION
 14: 0x0038 [0x1D] PRINT_EVENT_MESSAGE(message_id=10702*)
    → "Of those units, the two most prominent would be the Iron Musketeers, who answer directly to the Department of Industry, and the Gold Musketeers, who take their orders from the Department of Mining."
 15: 0x003B [0x23] WAIT_FOR_DIALOG_INTERACTION
 16: 0x003C [0x01] GOTO 0x004E
 17: 0x003F [0x02] IF !(Work_Zone[0] == 1*) GOTO 0x004E
 18: 0x0047 [0x1D] PRINT_EVENT_MESSAGE(message_id=10698*)
    → "Ah, I suppose you are already an expert on the subject. My apologies."
 19: 0x004A [0x23] WAIT_FOR_DIALOG_INTERACTION
 20: 0x004B [0x01] GOTO 0x004E

SUBROUTINE_004E:
 21: 0x004E [0x21] END_EVENT
 22: 0x004F [0x00] END_REQSTACK()
```
