# 17747974 - Romero

## Common Data

| Field            | Value                |
|------------------|----------------------|
| Zone             | Metalworks (ID: 237) |
| Block Size       | 1024 bytes           |
| Total Events     | 2                    |
| References Count | 37                   |

## List of Events

| Event ID              | Entrypoint   |   Size |   Instructions |
|-----------------------|--------------|--------|----------------|
| [65535](#event-65535) | 0x0000       |      1 |              1 |
| [105](#event-105)     | 0x0001       |    849 |            174 |

## DAT References (imed_data)

|   Index | Hex Value   |   Dec Value |
|---------|-------------|-------------|
|       0 | 0x0002      |           2 |
|       1 | 0x1ADC      |        6876 |
|       2 | 0x0000      |           0 |
|       3 | 0x1AAD      |        6829 |
|       4 | 0x1AAF      |        6831 |
|       5 | 0x00C8      |         200 |
|       6 | 0x005A      |          90 |
|       7 | 0x0001      |           1 |
|       8 | 0x008C      |         140 |
|       9 | 0x000F      |          15 |
|      10 | 0x000A      |          10 |
|      11 | 0x1B0D      |        6925 |
|      12 | 0x40000000  |  1073741824 |
|      13 | 0x0010      |          16 |
|      14 | 0x0003      |           3 |
|      15 | 0x0004      |           4 |
|      16 | 0x0005      |           5 |
|      17 | 0x0006      |           6 |
|      18 | 0x0007      |           7 |
|      19 | 0x0008      |           8 |
|      20 | 0x0009      |           9 |
|      21 | 0x000B      |          11 |
|      22 | 0x000C      |          12 |
|      23 | 0x000D      |          13 |
|      24 | 0x000E      |          14 |
|      25 | 0x0011      |          17 |
|      26 | 0x1B0E      |        6926 |
|      27 | 0x1AC0      |        6848 |
|      28 | 0x1AB0      |        6832 |
|      29 | 0x1AE1      |        6881 |
|      30 | 0x1B07      |        6919 |
|      31 | 0x1AE5      |        6885 |
|      32 | 0x1AE4      |        6884 |
|      33 | 0x1AE3      |        6883 |
|      34 | 0x1AE2      |        6882 |
|      35 | 0x1AB1      |        6833 |
|      36 | 0x1AAC      |        6828 |

## String References

- **6828**: Phew, it's hot! Me? Oh, my dad owns half this place, and he's making me work here so I can learn about the "real world."
- **6829**: Hey man, don't gimme any more work than I gotta do.
- **6831**: Don't worry. I know what I'm doing. I'm already in my second month! Now close your eyes and say "ahhhhhh."
- **6832**: Hold on a second. Let's see if I can remember... Oh yeah. You should try making $0. You use...
- **6833**: ...and that's it! But, with all that adventuring and blacksmithing and whatever, when do you have time to go out and have any fun?
- **6848**: Sorry, I don't think you're up for that rank of synthesis yet.
- **6876**: Request...? [[Advanced synthesis/Synthesis/Synthesis] image support./Information on synthesis materials./Nothing.]
- **6881**: Necessary skills: [Fishing/Woodworking/Smithing/Goldsmithing/Clothcraft/Leatherworking/Bonecraft/Alchemy/Cooking][ /, Woodworking/, Smithing/, Goldsmithing/, Clothcraft/, Leatherworking/, Bonecraft/, Alchemy/, Cooking][ /, Woodworking/, Smithing/, Goldsmithing/, Clothcraft/, Leatherworking/, Bonecraft/, Alchemy/, Cooking][ /, & Woodworking/, & Smithing/, & Goldsmithing/, & Clothcraft/, & Leatherworking/, & Bonecraft/, & Alchemy/, & Cooking] Necessary crystal: $4 Necessary items:
- **6882**: $4 x $0 $5 x $0$0 $6 x $0 $7 x $0$3
- **6883**: $4 x $0 $5 x $0$0 $6 x $0
- **6884**: $4 x $0 $5 x $0$0
- **6885**: $4 x $0
- **6919**: Necessary skills: [Fishing/Woodworking/Smithing/Goldsmithing/Clothcraft/Leatherworking/Bonecraft/Alchemy/Cooking][ /, Woodworking/, Smithing/, Goldsmithing/, Clothcraft/, Leatherworking/, Bonecraft/, Alchemy/, Cooking][ /, Woodworking/, Smithing/, Goldsmithing/, Clothcraft/, Leatherworking/, Bonecraft/, Alchemy/, Cooking][ /, & Woodworking/, & Smithing/, & Goldsmithing/, & Clothcraft/, & Leatherworking/, & Bonecraft/, & Alchemy/, & Cooking] Necessary crystal: $4 Necessary key item: $3 Necessary items:
- **6925**: Which rank of synthesis do you ask about? [Never mind./Amateur./Recruit./Initiate./Novice./Apprentice./Journeyman./Craftsman./Artisan./Adept./Veteran./Expert./Authority./Luminary./Master./Grandmaster.]
- **6926**: Which synthesis recipe do you ask about? [None./%./$1./$2./$3./$4./$5./$6./$7./$8./$9./$10./$11./$12./$13./$14./$15./View more recipes.]

## Events

### Event 65535

#### Metadata

| Field        | Value   |
|--------------|---------|
| Entrypoint   | 0x0000  |
| Data Size    | 1 bytes |
| Instructions | 1       |

```
      00 01 02 03 04 05 06 07  08 09 0A 0B 0C 0D 0E 0F
      -- -- -- -- -- -- -- --  -- -- -- -- -- -- -- --
0000: 00                                                .               
```

#### Opcodes

```
  0: 0x0000 [0x00] END_REQSTACK()
```

### Event 105

#### Metadata

| Field        | Value     |
|--------------|-----------|
| Entrypoint   | 0x0001    |
| Data Size    | 849 bytes |
| Instructions | 167       |

```
      00 01 02 03 04 05 06 07  08 09 0A 0B 0C 0D 0E 0F
      -- -- -- -- -- -- -- --  -- -- -- -- -- -- -- --
0000:    1E F0 FF FF 7F 3E 05  10 00 80 4C 03 24 01 80   .....>....L.$..
0010: 00 80 02 80 25 02 00 10  02 80 00 5E 00 02 07 10  ....%......^....
0020: 02 80 01 2C 00 1D 03 80  23 01 5B 00 1D 04 80 23  ...,....#.[....#
0030: 42 45 05 80 F8 FF FF 7F  F8 FF FF 7F 66 64 6F 31  BE..........fdo1
0040: 02 80 1C 06 80 45 05 80  F8 FF FF 7F F8 FF FF 7F  .....E..........
0050: 66 64 69 31 02 80 03 01  10 07 80 01 49 03 02 00  fdi1........I...
0060: 10 07 80 00 3E 03 03 08  10 00 80 03 03 00 08 10  ....>...........
0070: 03 05 00 03 10 06 00 00  03 02 00 08 80 03 01 00  ................
0080: 09 80 02 03 10 02 00 05  94 00 3C 00 00 01 00 07  ..........<.....
0090: 80 01 97 00 01 AA 00 02  01 00 00 80 02 AA 00 0C  ................
00A0: 01 00 08 02 00 0A 80 01  82 00 24 0B 80 02 80 00  ..........$.....
00B0: 00 25 02 00 10 02 80 00  C4 00 03 01 10 0C 80 21  .%.............!
00C0: 00 01 C4 00 03 04 00 00  10 0C 04 00 03 06 00 02  ................
00D0: 80 03 07 00 0D 80 8C 02  03 00 05 00 04 00 06 00  ................
00E0: 07 00 8C 01 03 00 00 02  80 02 02 10 02 80 00 F7  ................
00F0: 00 06 40 10 01 32 02 02  03 10 02 80 00 06 01 3C  ..@..2.........<
0100: 00 00 00 80 07 80 02 04  10 02 80 00 15 01 3C 00  ..............<.
0110: 00 0E 80 07 80 02 05 10  02 80 00 24 01 3C 00 00  ...........$.<..
0120: 0F 80 07 80 02 06 10 02  80 00 33 01 3C 00 00 10  ..........3.<...
0130: 80 07 80 02 07 10 02 80  00 42 01 3C 00 00 11 80  .........B.<....
0140: 07 80 02 08 10 02 80 00  51 01 3C 00 00 12 80 07  ........Q.<.....
0150: 80 02 09 10 02 80 00 60  01 3C 00 00 13 80 07 80  .......`.<......
0160: 02 00 17 02 80 00 6F 01  3C 00 00 14 80 07 80 02  ......o.<.......
0170: 01 17 02 80 00 7E 01 3C  00 00 0A 80 07 80 02 02  .....~.<........
0180: 17 02 80 00 8D 01 3C 00  00 15 80 07 80 02 03 17  ......<.........
0190: 02 80 00 9C 01 3C 00 00  16 80 07 80 02 04 17 02  .....<..........
01A0: 80 00 AB 01 3C 00 00 17  80 07 80 02 05 17 02 80  ....<...........
01B0: 00 BA 01 3C 00 00 18 80  07 80 02 06 17 02 80 00  ...<............
01C0: C9 01 3C 00 00 09 80 07  80 02 07 17 02 80 00 D8  ..<.............
01D0: 01 3C 00 00 0D 80 07 80  02 08 17 02 80 00 E7 01  .<..............
01E0: 3C 00 00 19 80 07 80 24  1A 80 02 80 00 00 25 02  <......$......%.
01F0: 00 10 02 80 00 01 02 03  01 10 0C 80 21 00 01 19  ............!...
0200: 02 02 00 10 19 80 00 19  02 07 06 00 0D 80 07 07  ................
0210: 00 0D 80 01 D6 00 01 19  02 03 08 00 06 00 07 08  ................
0220: 00 00 10 0C 08 00 8C 03  03 00 05 00 04 00 08 00  ................
0230: 8C 01 02 40 10 02 80 00  40 02 1D 1B 80 23 21 00  ...@....@....#!.
0240: 03 02 10 40 10 1D 1C 80  23 03 08 10 00 80 03 03  ...@....#.......
0250: 10 41 10 03 04 10 42 10  03 05 10 43 10 03 06 10  .A....B....C....
0260: 44 10 03 07 10 55 10 02  07 10 02 80 00 76 02 48  D....U.......v.H
0270: 1D 80 23 01 7A 02 48 1E  80 23 03 02 10 45 10 03  ..#.z.H..#...E..
0280: 03 10 46 10 03 04 10 47  10 03 05 10 48 10 03 06  ..F....G....H...
0290: 10 4D 10 03 07 10 4E 10  03 08 10 4F 10 03 09 10  .M....N....O....
02A0: 50 10 02 07 10 02 80 00  B1 02 48 1F 80 23 01 37  P.........H..#.7
02B0: 03 02 08 10 02 80 00 C0  02 48 20 80 23 01 37 03  .........H .#.7.
02C0: 02 09 10 02 80 00 CF 02  48 21 80 23 01 37 03 48  ........H!.#.7.H
02D0: 22 80 23 03 02 10 49 10  03 03 10 4A 10 03 04 10  ".#...I....J....
02E0: 4B 10 03 05 10 4C 10 03  06 10 51 10 03 07 10 52  K....L....Q....R
02F0: 10 03 08 10 53 10 03 09  10 54 10 02 06 10 02 80  ....S....T......
0300: 00 06 03 01 37 03 02 07  10 02 80 00 15 03 48 1F  ....7.........H.
0310: 80 23 01 37 03 02 08 10  02 80 00 24 03 48 20 80  .#.7.......$.H .
0320: 23 01 37 03 02 09 10 02  80 00 33 03 48 21 80 23  #.7.......3.H!.#
0330: 01 37 03 48 22 80 23 1D  23 80 23 01 49 03 02 00  .7.H".#.#.#.I...
0340: 10 00 80 00 49 03 01 49  03 01 50 03 1D 24 80 23  ....I..I..P..$.#
0350: 21 00                                             !.              
```

#### Opcodes

```
  0: 0x0001 [0x1E] EventEntity looks at LocalPlayer and starts talking
  1: 0x0006 [0x3E] IF !(Work_Zone[5] bit 2*) GOTO 0x034C
  2: 0x000D [0x24] CREATE_DIALOG(message_id=6876*, default_option=2*, option_flags=0*)
    → "Request...? [[Advanced synthesis/Synthesis/Synthesis] image support./Information on synthesis materials./Nothing.]"
  3: 0x0014 [0x25] WAIT_DIALOG_SELECT()
  4: 0x0015 [0x02] IF !(Work_Zone[0] == 0*) GOTO 0x005E
  5: 0x001D [0x02] IF !(Work_Zone[7] == 0*) GOTO 0x002C
  6: 0x0025 [0x1D] PRINT_EVENT_MESSAGE(message_id=6829*)
    → "Hey man, don't gimme any more work than I gotta do."
  7: 0x0028 [0x23] WAIT_FOR_DIALOG_INTERACTION
  8: 0x0029 [0x01] GOTO 0x005B
  9: 0x002C [0x1D] PRINT_EVENT_MESSAGE(message_id=6831*)
    → "Don't worry. I know what I'm doing. I'm already in my second month! Now close your eyes and say "ahhhhhh.""
 10: 0x002F [0x23] WAIT_FOR_DIALOG_INTERACTION
 11: 0x0030 [0x42] SET_CLI_EVENT_CANCEL_DATA()
 12: 0x0031 [0x45] LOAD_SCHEDULED_TASK: Load scheduler "fdo1" with entities [EventEntity, EventEntity], work=[200*, 0*]
 13: 0x0042 [0x1C] WAIT(90* ticks)
 14: 0x0045 [0x45] LOAD_SCHEDULED_TASK: Load scheduler "fdi1" with entities [EventEntity, EventEntity], work=[200*, 0*]
 15: 0x0056 [0x03] Work_Zone[1] = 1*

SUBROUTINE_005B:
 16: 0x005B [0x01] GOTO 0x0349
 17: 0x005E [0x02] IF !(Work_Zone[0] == 1*) GOTO 0x033E
 18: 0x0066 [0x03] Work_Zone[8] = 2*
 19: 0x006B [0x03] ExtData[1]->WorkLocal[3] = Work_Zone[8]
 20: 0x0070 [0x03] ExtData[1]->WorkLocal[5] = Work_Zone[3]
 21: 0x0075 [0x06] ExtData[1]->WorkLocal[0] = 0
 22: 0x0078 [0x03] ExtData[1]->WorkLocal[2] = 140*
 23: 0x007D [0x03] ExtData[1]->WorkLocal[1] = 15*

SUBROUTINE_0082:
 24: 0x0082 [0x02] IF !(Work_Zone[3] > ExtData[1]->WorkLocal[2]) GOTO 0x0094
 25: 0x008A [0x3C] SET_BIT_FLAG_CONDITIONAL(target_work_offset=ExtData[1]->WorkLocal[0], bit_index_work_offset=ExtData[1]->WorkLocal[1], condition_work_offset=1*)
 26: 0x0091 [0x01] GOTO 0x0097
 27: 0x0094 [0x01] GOTO 0x00AA

SUBROUTINE_0097:
 28: 0x0097 [0x02] IF !(ExtData[1]->WorkLocal[1] <= 2*) GOTO 0x00AA
 29: 0x009F [0x0C] ExtData[1]->WorkLocal[1]--
 30: 0x00A2 [0x08] ExtData[1]->WorkLocal[2] -= 10*
 31: 0x00A7 [0x01] GOTO 0x0082

SUBROUTINE_00AA:
 32: 0x00AA [0x24] CREATE_DIALOG(message_id=6925*, default_option=0*, option_flags=ExtData[1]->WorkLocal[0])
    → "Which rank of synthesis do you ask about? [Never mind./Amateur./Recruit./Initiate./Novice./Apprentice./Journeyman./Craftsman./Artisan./Adept./Veteran./Expert./Authority./Luminary./Master./Grandmaster.]"
 33: 0x00B1 [0x25] WAIT_DIALOG_SELECT()
 34: 0x00B2 [0x02] IF !(Work_Zone[0] == 0*) GOTO 0x00C4
 35: 0x00BA [0x03] Work_Zone[1] = 1073741824*
 36: 0x00BF [0x21] END_EVENT
 37: 0x00C0 [0x00] END_REQSTACK()

SUBROUTINE_00C4:
 38: 0x00C4 [0x03] ExtData[1]->WorkLocal[4] = Work_Zone[0]
 39: 0x00C9 [0x0C] ExtData[1]->WorkLocal[4]--
 40: 0x00CC [0x03] ExtData[1]->WorkLocal[6] = 0*
 41: 0x00D1 [0x03] ExtData[1]->WorkLocal[7] = 16*

SUBROUTINE_00D6:
 42: 0x00D6 [0x8C] CRAFTING_HANDLER(mode=0x02) // Set recipe data
 43: 0x00E2 [0x8C] CRAFTING_HANDLER(mode=0x01) // End crafting session
 44: 0x00E4 [0x03] ExtData[1]->WorkLocal[0] = 0*
 45: 0x00E9 [0x02] IF !(Work_Zone[2] == 0*) GOTO 0x00F7
 46: 0x00F1 [0x06] Work_Zone[64] = 0
 47: 0x00F4 [0x01] GOTO 0x0232
 48: 0x00F7 [0x02] IF !(Work_Zone[3] == 0*) GOTO 0x0106
 49: 0x00FF [0x3C] SET_BIT_FLAG_CONDITIONAL(target_work_offset=ExtData[1]->WorkLocal[0], bit_index_work_offset=2*, condition_work_offset=1*)
 50: 0x0106 [0x02] IF !(Work_Zone[4] == 0*) GOTO 0x0115
 51: 0x010E [0x3C] SET_BIT_FLAG_CONDITIONAL(target_work_offset=ExtData[1]->WorkLocal[0], bit_index_work_offset=3*, condition_work_offset=1*)
 52: 0x0115 [0x02] IF !(Work_Zone[5] == 0*) GOTO 0x0124
 53: 0x011D [0x3C] SET_BIT_FLAG_CONDITIONAL(target_work_offset=ExtData[1]->WorkLocal[0], bit_index_work_offset=4*, condition_work_offset=1*)
 54: 0x0124 [0x02] IF !(Work_Zone[6] == 0*) GOTO 0x0133
 55: 0x012C [0x3C] SET_BIT_FLAG_CONDITIONAL(target_work_offset=ExtData[1]->WorkLocal[0], bit_index_work_offset=5*, condition_work_offset=1*)
 56: 0x0133 [0x02] IF !(Work_Zone[7] == 0*) GOTO 0x0142
 57: 0x013B [0x3C] SET_BIT_FLAG_CONDITIONAL(target_work_offset=ExtData[1]->WorkLocal[0], bit_index_work_offset=6*, condition_work_offset=1*)
 58: 0x0142 [0x02] IF !(Work_Zone[8] == 0*) GOTO 0x0151
 59: 0x014A [0x3C] SET_BIT_FLAG_CONDITIONAL(target_work_offset=ExtData[1]->WorkLocal[0], bit_index_work_offset=7*, condition_work_offset=1*)
 60: 0x0151 [0x02] IF !(Work_Zone[9] == 0*) GOTO 0x0160
 61: 0x0159 [0x3C] SET_BIT_FLAG_CONDITIONAL(target_work_offset=ExtData[1]->WorkLocal[0], bit_index_work_offset=8*, condition_work_offset=1*)
 62: 0x0160 [0x02] IF !(Work_Zone_1700[0] == 0*) GOTO 0x016F
 63: 0x0168 [0x3C] SET_BIT_FLAG_CONDITIONAL(target_work_offset=ExtData[1]->WorkLocal[0], bit_index_work_offset=9*, condition_work_offset=1*)
 64: 0x016F [0x02] IF !(Work_Zone_1700[1] == 0*) GOTO 0x017E
 65: 0x0177 [0x3C] SET_BIT_FLAG_CONDITIONAL(target_work_offset=ExtData[1]->WorkLocal[0], bit_index_work_offset=10*, condition_work_offset=1*)
 66: 0x017E [0x02] IF !(Work_Zone_1700[2] == 0*) GOTO 0x018D
 67: 0x0186 [0x3C] SET_BIT_FLAG_CONDITIONAL(target_work_offset=ExtData[1]->WorkLocal[0], bit_index_work_offset=11*, condition_work_offset=1*)
 68: 0x018D [0x02] IF !(Work_Zone_1700[3] == 0*) GOTO 0x019C
 69: 0x0195 [0x3C] SET_BIT_FLAG_CONDITIONAL(target_work_offset=ExtData[1]->WorkLocal[0], bit_index_work_offset=12*, condition_work_offset=1*)
 70: 0x019C [0x02] IF !(Work_Zone_1700[4] == 0*) GOTO 0x01AB
 71: 0x01A4 [0x3C] SET_BIT_FLAG_CONDITIONAL(target_work_offset=ExtData[1]->WorkLocal[0], bit_index_work_offset=13*, condition_work_offset=1*)
 72: 0x01AB [0x02] IF !(Work_Zone_1700[5] == 0*) GOTO 0x01BA
 73: 0x01B3 [0x3C] SET_BIT_FLAG_CONDITIONAL(target_work_offset=ExtData[1]->WorkLocal[0], bit_index_work_offset=14*, condition_work_offset=1*)
 74: 0x01BA [0x02] IF !(Work_Zone_1700[6] == 0*) GOTO 0x01C9
 75: 0x01C2 [0x3C] SET_BIT_FLAG_CONDITIONAL(target_work_offset=ExtData[1]->WorkLocal[0], bit_index_work_offset=15*, condition_work_offset=1*)
 76: 0x01C9 [0x02] IF !(Work_Zone_1700[7] == 0*) GOTO 0x01D8
 77: 0x01D1 [0x3C] SET_BIT_FLAG_CONDITIONAL(target_work_offset=ExtData[1]->WorkLocal[0], bit_index_work_offset=16*, condition_work_offset=1*)
 78: 0x01D8 [0x02] IF !(Work_Zone_1700[8] == 0*) GOTO 0x01E7
 79: 0x01E0 [0x3C] SET_BIT_FLAG_CONDITIONAL(target_work_offset=ExtData[1]->WorkLocal[0], bit_index_work_offset=17*, condition_work_offset=1*)
 80: 0x01E7 [0x24] CREATE_DIALOG(message_id=6926*, default_option=0*, option_flags=ExtData[1]->WorkLocal[0])
    → "Which synthesis recipe do you ask about? [None./%./$1./$2./$3./$4./$5./$6./$7./$8./$9./$10./$11./$12./$13./$14./$15./View more recipes.]"
 81: 0x01EE [0x25] WAIT_DIALOG_SELECT()
 82: 0x01EF [0x02] IF !(Work_Zone[0] == 0*) GOTO 0x0201
 83: 0x01F7 [0x03] Work_Zone[1] = 1073741824*
 84: 0x01FC [0x21] END_EVENT
 85: 0x01FD [0x00] END_REQSTACK()

SUBROUTINE_0219:
 86: 0x0219 [0x03] ExtData[1]->WorkLocal[8] = ExtData[1]->WorkLocal[6]
 87: 0x021E [0x07] ExtData[1]->WorkLocal[8] += Work_Zone[0]
 88: 0x0223 [0x0C] ExtData[1]->WorkLocal[8]--
 89: 0x0226 [0x8C] CRAFTING_HANDLER(mode=0x03) // Get synthesis recipe
 90: 0x0230 [0x8C] CRAFTING_HANDLER(mode=0x01) // End crafting session

SUBROUTINE_0232:
 91: 0x0232 [0x02] IF !(Work_Zone[64] == 0*) GOTO 0x0240
 92: 0x023A [0x1D] PRINT_EVENT_MESSAGE(message_id=6848*)
    → "Sorry, I don't think you're up for that rank of synthesis yet."
 93: 0x023D [0x23] WAIT_FOR_DIALOG_INTERACTION
 94: 0x023E [0x21] END_EVENT
 95: 0x023F [0x00] END_REQSTACK()
 96: 0x0240 [0x03] Work_Zone[2] = Work_Zone[64]
 97: 0x0245 [0x1D] PRINT_EVENT_MESSAGE(message_id=6832*)
    → "Hold on a second. Let's see if I can remember... Oh yeah. You should try making $0. You use..."
 98: 0x0248 [0x23] WAIT_FOR_DIALOG_INTERACTION
 99: 0x0249 [0x03] Work_Zone[8] = 2*
100: 0x024E [0x03] Work_Zone[3] = Work_Zone[65]
101: 0x0253 [0x03] Work_Zone[4] = Work_Zone[66]
102: 0x0258 [0x03] Work_Zone[5] = Work_Zone[67]
103: 0x025D [0x03] Work_Zone[6] = Work_Zone[68]
104: 0x0262 [0x03] Work_Zone[7] = Work_Zone[85]
105: 0x0267 [0x02] IF !(Work_Zone[7] == 0*) GOTO 0x0276
106: 0x026F [0x48] [System] [6881*]:
    → "Necessary skills: [Fishing/Woodworking/Smithing/Goldsmithing/Clothcraft/Leatherworking/Bonecraft/Alchemy/Cooking][ /, Woodworking/, Smithing/, Goldsmithing/, Clothcraft/, Leatherworking/, Bonecraft/, Alchemy/, Cooking][ /, Woodworking/, Smithing/, Goldsmithing/, Clothcraft/, Leatherworking/, Bonecraft/, Alchemy/, Cooking][ /, & Woodworking/, & Smithing/, & Goldsmithing/, & Clothcraft/, & Leatherworking/, & Bonecraft/, & Alchemy/, & Cooking] Necessary crystal: $4 Necessary items:"
107: 0x0272 [0x23] WAIT_FOR_DIALOG_INTERACTION
108: 0x0273 [0x01] GOTO 0x027A
109: 0x0276 [0x48] [System] [6919*]:
    → "Necessary skills: [Fishing/Woodworking/Smithing/Goldsmithing/Clothcraft/Leatherworking/Bonecraft/Alchemy/Cooking][ /, Woodworking/, Smithing/, Goldsmithing/, Clothcraft/, Leatherworking/, Bonecraft/, Alchemy/, Cooking][ /, Woodworking/, Smithing/, Goldsmithing/, Clothcraft/, Leatherworking/, Bonecraft/, Alchemy/, Cooking][ /, & Woodworking/, & Smithing/, & Goldsmithing/, & Clothcraft/, & Leatherworking/, & Bonecraft/, & Alchemy/, & Cooking] Necessary crystal: $4 Necessary key item: $3 Necessary items:"
110: 0x0279 [0x23] WAIT_FOR_DIALOG_INTERACTION

SUBROUTINE_027A:
111: 0x027A [0x03] Work_Zone[2] = Work_Zone[69]
112: 0x027F [0x03] Work_Zone[3] = Work_Zone[70]
113: 0x0284 [0x03] Work_Zone[4] = Work_Zone[71]
114: 0x0289 [0x03] Work_Zone[5] = Work_Zone[72]
115: 0x028E [0x03] Work_Zone[6] = Work_Zone[77]
116: 0x0293 [0x03] Work_Zone[7] = Work_Zone[78]
117: 0x0298 [0x03] Work_Zone[8] = Work_Zone[79]
118: 0x029D [0x03] Work_Zone[9] = Work_Zone[80]
119: 0x02A2 [0x02] IF !(Work_Zone[7] == 0*) GOTO 0x02B1
120: 0x02AA [0x48] [System] [6885*]:
    → "$4 x $0"
121: 0x02AD [0x23] WAIT_FOR_DIALOG_INTERACTION
122: 0x02AE [0x01] GOTO 0x0337
123: 0x02B1 [0x02] IF !(Work_Zone[8] == 0*) GOTO 0x02C0
124: 0x02B9 [0x48] [System] [6884*]:
    → "$4 x $0 $5 x $0$0"
125: 0x02BC [0x23] WAIT_FOR_DIALOG_INTERACTION
126: 0x02BD [0x01] GOTO 0x0337
127: 0x02C0 [0x02] IF !(Work_Zone[9] == 0*) GOTO 0x02CF
128: 0x02C8 [0x48] [System] [6883*]:
    → "$4 x $0 $5 x $0$0 $6 x $0"
129: 0x02CB [0x23] WAIT_FOR_DIALOG_INTERACTION
130: 0x02CC [0x01] GOTO 0x0337
131: 0x02CF [0x48] [System] [6882*]:
    → "$4 x $0 $5 x $0$0 $6 x $0 $7 x $0$3"
132: 0x02D2 [0x23] WAIT_FOR_DIALOG_INTERACTION
133: 0x02D3 [0x03] Work_Zone[2] = Work_Zone[73]
134: 0x02D8 [0x03] Work_Zone[3] = Work_Zone[74]
135: 0x02DD [0x03] Work_Zone[4] = Work_Zone[75]
136: 0x02E2 [0x03] Work_Zone[5] = Work_Zone[76]
137: 0x02E7 [0x03] Work_Zone[6] = Work_Zone[81]
138: 0x02EC [0x03] Work_Zone[7] = Work_Zone[82]
139: 0x02F1 [0x03] Work_Zone[8] = Work_Zone[83]
140: 0x02F6 [0x03] Work_Zone[9] = Work_Zone[84]
141: 0x02FB [0x02] IF !(Work_Zone[6] == 0*) GOTO 0x0306
142: 0x0303 [0x01] GOTO 0x0337
143: 0x0306 [0x02] IF !(Work_Zone[7] == 0*) GOTO 0x0315
144: 0x030E [0x48] [System] [6885*]:
    → "$4 x $0"
145: 0x0311 [0x23] WAIT_FOR_DIALOG_INTERACTION
146: 0x0312 [0x01] GOTO 0x0337
147: 0x0315 [0x02] IF !(Work_Zone[8] == 0*) GOTO 0x0324
148: 0x031D [0x48] [System] [6884*]:
    → "$4 x $0 $5 x $0$0"
149: 0x0320 [0x23] WAIT_FOR_DIALOG_INTERACTION
150: 0x0321 [0x01] GOTO 0x0337
151: 0x0324 [0x02] IF !(Work_Zone[9] == 0*) GOTO 0x0333
152: 0x032C [0x48] [System] [6883*]:
    → "$4 x $0 $5 x $0$0 $6 x $0"
153: 0x032F [0x23] WAIT_FOR_DIALOG_INTERACTION
154: 0x0330 [0x01] GOTO 0x0337
155: 0x0333 [0x48] [System] [6882*]:
    → "$4 x $0 $5 x $0$0 $6 x $0 $7 x $0$3"
156: 0x0336 [0x23] WAIT_FOR_DIALOG_INTERACTION

SUBROUTINE_0337:
157: 0x0337 [0x1D] PRINT_EVENT_MESSAGE(message_id=6833*)
    → "...and that's it! But, with all that adventuring and blacksmithing and whatever, when do you have time to go out and have any fun?"
158: 0x033A [0x23] WAIT_FOR_DIALOG_INTERACTION
159: 0x033B [0x01] GOTO 0x0349
160: 0x033E [0x02] IF !(Work_Zone[0] == 2*) GOTO 0x0349
161: 0x0346 [0x01] GOTO 0x0349

SUBROUTINE_0349:
162: 0x0349 [0x01] GOTO 0x0350
163: 0x034C [0x1D] PRINT_EVENT_MESSAGE(message_id=6828*)
    → "Phew, it's hot! Me? Oh, my dad owns half this place, and he's making me work here so I can learn about the "real world.""
164: 0x034F [0x23] WAIT_FOR_DIALOG_INTERACTION

SUBROUTINE_0350:
165: 0x0350 [0x21] END_EVENT
166: 0x0351 [0x00] END_REQSTACK()
```

#### Data or dead code:

```
# Dead code (unreachable instructions):
     0x00C1 [0x01] GOTO 0x00C4
# Dead code (unreachable instructions):
     0x01FE [0x01] GOTO 0x0219
     0x0216 [0x01] GOTO 0x0219
```
