# 17748147 - Militant Gale

## Common Data

| Field            | Value                |
|------------------|----------------------|
| Zone             | Metalworks (ID: 237) |
| Block Size       | 644 bytes            |
| Total Events     | 24                   |
| References Count | 55                   |

## List of Events

| Event ID                   | Entrypoint   |   Size |   Instructions |
|----------------------------|--------------|--------|----------------|
| [65535](#event-65535)      | 0x0000       |      1 |              1 |
| [900](#event-900)          | 0x0001       |      1 |              1 |
| [65535.1](#event-655351)   | 0x0002       |     15 |              3 |
| [65535.2](#event-655352)   | 0x0011       |     22 |              6 |
| [908](#event-908)          | 0x0027       |      1 |              1 |
| [909](#event-909)          | 0x0028       |      1 |              1 |
| [910](#event-910)          | 0x0029       |      1 |              1 |
| [65535.3](#event-655353)   | 0x002A       |     15 |              3 |
| [65535.4](#event-655354)   | 0x0039       |     24 |              6 |
| [65535.5](#event-655355)   | 0x0051       |     14 |              4 |
| [65535.6](#event-655356)   | 0x005F       |     24 |              6 |
| [65535.7](#event-655357)   | 0x0077       |     24 |              6 |
| [65535.8](#event-655358)   | 0x008F       |     15 |              3 |
| [65535.9](#event-655359)   | 0x009E       |     14 |              4 |
| [65535.10](#event-6553510) | 0x00AC       |     14 |              4 |
| [65535.11](#event-6553511) | 0x00BA       |     14 |              4 |
| [65535.12](#event-6553512) | 0x00C8       |     15 |              3 |
| [65535.13](#event-6553513) | 0x00D7       |     14 |              4 |
| [65535.14](#event-6553514) | 0x00E5       |     24 |              6 |
| [65535.15](#event-6553515) | 0x00FD       |     14 |              4 |
| [921](#event-921)          | 0x010B       |      1 |              1 |
| [65535.16](#event-6553516) | 0x010C       |     15 |              3 |
| [65535.17](#event-6553517) | 0x011B       |     15 |              3 |
| [65535.18](#event-6553518) | 0x012A       |     14 |              4 |

## DAT References (imed_data)

|   Index | Hex Value   |   Dec Value |
|---------|-------------|-------------|
|       0 | 0xFFFECCD2  |  4294888658 |
|       1 | 0x1846      |        6214 |
|       2 | 0x07CF      |        1999 |
|       3 | 0x0424      |        1060 |
|       4 | 0x0078      |         120 |
|       5 | 0x000D      |          13 |
|       6 | 0xFFFED355  |  4294890325 |
|       7 | 0x2D72      |       11634 |
|       8 | 0x07D0      |        2000 |
|       9 | 0xFFFF43AB  |  4294919083 |
|      10 | 0x6014      |       24596 |
|      11 | 0x0AD5      |        2773 |
|      12 | 0x0C80      |        3200 |
|      13 | 0xFFFF3079  |  4294914169 |
|      14 | 0x7479      |       29817 |
|      15 | 0x095E      |        2398 |
|      16 | 0xFFFF2A51  |  4294912593 |
|      17 | 0x741C      |       29724 |
|      18 | 0xFFFF3A95  |  4294916757 |
|      19 | 0x6247      |       25159 |
|      20 | 0x0028      |          40 |
|      21 | 0xFFFF3419  |  4294915097 |
|      22 | 0x7238      |       29240 |
|      23 | 0xFFFF27FC  |  4294911996 |
|      24 | 0x723A      |       29242 |
|      25 | 0xFFFFC61A  |  4294952474 |
|      26 | 0xFFFFDC58  |  4294958168 |
|      27 | 0x0000      |           0 |
|      28 | 0x0C69      |        3177 |
|      29 | 0xFFFFC080  |  4294951040 |
|      30 | 0xFFFFE1F8  |  4294959608 |
|      31 | 0xFFFF984E  |  4294940750 |
|      32 | 0xFFFFE556  |  4294960470 |
|      33 | 0xFFFFCA61  |  4294953569 |
|      34 | 0xFFFFF929  |  4294965545 |
|      35 | 0xFFFEA916  |  4294879510 |
|      36 | 0xFFFFCF87  |  4294954887 |
|      37 | 0x0B9C      |        2972 |
|      38 | 0xFFFEA4A8  |  4294878376 |
|      39 | 0xFFFFD651  |  4294956625 |
|      40 | 0xFFFEAB5B  |  4294880091 |
|      41 | 0xFFFFDE46  |  4294958662 |
|      42 | 0xFFFEC7D1  |  4294887377 |
|      43 | 0xFFFFD5F9  |  4294956537 |
|      44 | 0xFFFEA5D1  |  4294878673 |
|      45 | 0xFFFFF599  |  4294964633 |
|      46 | 0xFFFFB95C  |  4294949212 |
|      47 | 0xFFFF9448  |  4294939720 |
|      48 | 0xFFFFD8F0  |  4294957296 |
|      49 | 0x07A3      |        1955 |
|      50 | 0xFFFF3062  |  4294914146 |
|      51 | 0x00E3      |         227 |
|      52 | 0x018C      |         396 |
|      53 | 0xFFFF2F1D  |  4294913821 |
|      54 | 0x0F06      |        3846 |

## Events

### Event 65535

#### Metadata

| Field        | Value   |
|--------------|---------|
| Entrypoint   | 0x0000  |
| Data Size    | 1 bytes |
| Instructions | 1       |

```
      00 01 02 03 04 05 06 07  08 09 0A 0B 0C 0D 0E 0F
      -- -- -- -- -- -- -- --  -- -- -- -- -- -- -- --
0000: 00                                                .               
```

#### Opcodes

```
  0: 0x0000 [0x00] END_REQSTACK()
```

### Event 900

#### Metadata

| Field        | Value   |
|--------------|---------|
| Entrypoint   | 0x0001  |
| Data Size    | 1 bytes |
| Instructions | 1       |

```
      00 01 02 03 04 05 06 07  08 09 0A 0B 0C 0D 0E 0F
      -- -- -- -- -- -- -- --  -- -- -- -- -- -- -- --
0000:    00                                              .              
```

#### Opcodes

```
  0: 0x0001 [0x00] END_REQSTACK()
```

### Event 65535.1

#### Metadata

| Field        | Value    |
|--------------|----------|
| Entrypoint   | 0x0002   |
| Data Size    | 15 bytes |
| Instructions | 3        |

```
      00 01 02 03 04 05 06 07  08 09 0A 0B 0C 0D 0E 0F
      -- -- -- -- -- -- -- --  -- -- -- -- -- -- -- --
0000:       37 00 80 01 80 02  80 03 80 80 F8 FF FF 7F    7.............
0010: 00                                                .               
```

#### Opcodes

```
  0: 0x0002 [0x37] UPDATE_EVENT_POSITION_AND_DIR: x=-78.638*, z=6.214*, y=1.999*, direction=93.2°*
  1: 0x000B [0x80] LOAD_WAIT(entity=EventEntity)
  2: 0x0010 [0x00] END_REQSTACK()
```

### Event 65535.2

#### Metadata

| Field        | Value    |
|--------------|----------|
| Entrypoint   | 0x0011   |
| Data Size    | 22 bytes |
| Instructions | 6        |

```
      00 01 02 03 04 05 06 07  08 09 0A 0B 0C 0D 0E 0F
      -- -- -- -- -- -- -- --  -- -- -- -- -- -- -- --
0010:    1E B2 D0 0E 01 1C 04  80 32 05 80 1F 00 06 80   ........2......
0020: 07 80 08 80 1F 01 00                              .......         
```

#### Opcodes

```
  0: 0x0011 [0x1E] EventEntity looks at Gentle Tiger (ID: 17748146/0x010ED0B2) and starts talking
  1: 0x0016 [0x1C] WAIT(120* ticks)
  2: 0x0019 [0x32] ExtData[1]->MainSpeed = 13* * 0.1
  3: 0x001C [0x1F] MOVE_ENTITY: EventEntity moves to X=-76.971*, Z=11.634*, Y=2.000*
  4: 0x0024 [0x1F] MOVE_ENTITY: Update entity position (mode=1)
  5: 0x0026 [0x00] END_REQSTACK()
```

### Event 908

#### Metadata

| Field        | Value   |
|--------------|---------|
| Entrypoint   | 0x0027  |
| Data Size    | 1 bytes |
| Instructions | 1       |

```
      00 01 02 03 04 05 06 07  08 09 0A 0B 0C 0D 0E 0F
      -- -- -- -- -- -- -- --  -- -- -- -- -- -- -- --
0020:                      00                                  .        
```

#### Opcodes

```
  0: 0x0027 [0x00] END_REQSTACK()
```

### Event 909

#### Metadata

| Field        | Value   |
|--------------|---------|
| Entrypoint   | 0x0028  |
| Data Size    | 1 bytes |
| Instructions | 1       |

```
      00 01 02 03 04 05 06 07  08 09 0A 0B 0C 0D 0E 0F
      -- -- -- -- -- -- -- --  -- -- -- -- -- -- -- --
0020:                          00                               .       
```

#### Opcodes

```
  0: 0x0028 [0x00] END_REQSTACK()
```

### Event 910

#### Metadata

| Field        | Value   |
|--------------|---------|
| Entrypoint   | 0x0029  |
| Data Size    | 1 bytes |
| Instructions | 1       |

```
      00 01 02 03 04 05 06 07  08 09 0A 0B 0C 0D 0E 0F
      -- -- -- -- -- -- -- --  -- -- -- -- -- -- -- --
0020:                             00                             .      
```

#### Opcodes

```
  0: 0x0029 [0x00] END_REQSTACK()
```

### Event 65535.3

#### Metadata

| Field        | Value    |
|--------------|----------|
| Entrypoint   | 0x002A   |
| Data Size    | 15 bytes |
| Instructions | 3        |

```
      00 01 02 03 04 05 06 07  08 09 0A 0B 0C 0D 0E 0F
      -- -- -- -- -- -- -- --  -- -- -- -- -- -- -- --
0020:                                37 09 80 0A 80 0B            7.....
0030: 80 0C 80 80 F8 FF FF 7F  00                       .........       
```

#### Opcodes

```
  0: 0x002A [0x37] UPDATE_EVENT_POSITION_AND_DIR: x=-48.213*, z=24.596*, y=2.773*, direction=281.2°*
  1: 0x0033 [0x80] LOAD_WAIT(entity=EventEntity)
  2: 0x0038 [0x00] END_REQSTACK()
```

### Event 65535.4

#### Metadata

| Field        | Value    |
|--------------|----------|
| Entrypoint   | 0x0039   |
| Data Size    | 24 bytes |
| Instructions | 6        |

```
      00 01 02 03 04 05 06 07  08 09 0A 0B 0C 0D 0E 0F
      -- -- -- -- -- -- -- --  -- -- -- -- -- -- -- --
0030:                             32 05 80 1F 00 0D 80           2......
0040: 0E 80 0F 80 1F 01 1F 00  10 80 11 80 08 80 1F 01  ................
0050: 00                                                .               
```

#### Opcodes

```
  0: 0x0039 [0x32] ExtData[1]->MainSpeed = 13* * 0.1
  1: 0x003C [0x1F] MOVE_ENTITY: EventEntity moves to X=-53.127*, Z=29.817*, Y=2.398*
  2: 0x0044 [0x1F] MOVE_ENTITY: Update entity position (mode=1)
  3: 0x0046 [0x1F] MOVE_ENTITY: EventEntity moves to X=-54.703*, Z=29.724*, Y=2.000*
  4: 0x004E [0x1F] MOVE_ENTITY: Update entity position (mode=1)
  5: 0x0050 [0x00] END_REQSTACK()
```

### Event 65535.5

#### Metadata

| Field        | Value    |
|--------------|----------|
| Entrypoint   | 0x0051   |
| Data Size    | 14 bytes |
| Instructions | 4        |

```
      00 01 02 03 04 05 06 07  08 09 0A 0B 0C 0D 0E 0F
      -- -- -- -- -- -- -- --  -- -- -- -- -- -- -- --
0050:    32 05 80 1F 00 12 80  13 80 0B 80 1F 01 00      2............. 
```

#### Opcodes

```
  0: 0x0051 [0x32] ExtData[1]->MainSpeed = 13* * 0.1
  1: 0x0054 [0x1F] MOVE_ENTITY: EventEntity moves to X=-50.539*, Z=25.159*, Y=2.773*
  2: 0x005C [0x1F] MOVE_ENTITY: Update entity position (mode=1)
  3: 0x005E [0x00] END_REQSTACK()
```

### Event 65535.6

#### Metadata

| Field        | Value    |
|--------------|----------|
| Entrypoint   | 0x005F   |
| Data Size    | 24 bytes |
| Instructions | 6        |

```
      00 01 02 03 04 05 06 07  08 09 0A 0B 0C 0D 0E 0F
      -- -- -- -- -- -- -- --  -- -- -- -- -- -- -- --
0050:                                               32                 2
0060: 05 80 1F 00 0D 80 0E 80  0F 80 1F 01 1F 00 10 80  ................
0070: 11 80 08 80 1F 01 00                              .......         
```

#### Opcodes

```
  0: 0x005F [0x32] ExtData[1]->MainSpeed = 13* * 0.1
  1: 0x0062 [0x1F] MOVE_ENTITY: EventEntity moves to X=-53.127*, Z=29.817*, Y=2.398*
  2: 0x006A [0x1F] MOVE_ENTITY: Update entity position (mode=1)
  3: 0x006C [0x1F] MOVE_ENTITY: EventEntity moves to X=-54.703*, Z=29.724*, Y=2.000*
  4: 0x0074 [0x1F] MOVE_ENTITY: Update entity position (mode=1)
  5: 0x0076 [0x00] END_REQSTACK()
```

### Event 65535.7

#### Metadata

| Field        | Value    |
|--------------|----------|
| Entrypoint   | 0x0077   |
| Data Size    | 24 bytes |
| Instructions | 6        |

```
      00 01 02 03 04 05 06 07  08 09 0A 0B 0C 0D 0E 0F
      -- -- -- -- -- -- -- --  -- -- -- -- -- -- -- --
0070:                      32  14 80 1F 00 15 80 16 80         2........
0080: 0B 80 1F 01 1F 00 17 80  18 80 08 80 1F 01 00     ............... 
```

#### Opcodes

```
  0: 0x0077 [0x32] ExtData[1]->MainSpeed = 40* * 0.1
  1: 0x007A [0x1F] MOVE_ENTITY: EventEntity moves to X=-52.199*, Z=29.240*, Y=2.773*
  2: 0x0082 [0x1F] MOVE_ENTITY: Update entity position (mode=1)
  3: 0x0084 [0x1F] MOVE_ENTITY: EventEntity moves to X=-55.300*, Z=29.242*, Y=2.000*
  4: 0x008C [0x1F] MOVE_ENTITY: Update entity position (mode=1)
  5: 0x008E [0x00] END_REQSTACK()
```

### Event 65535.8

#### Metadata

| Field        | Value    |
|--------------|----------|
| Entrypoint   | 0x008F   |
| Data Size    | 15 bytes |
| Instructions | 3        |

```
      00 01 02 03 04 05 06 07  08 09 0A 0B 0C 0D 0E 0F
      -- -- -- -- -- -- -- --  -- -- -- -- -- -- -- --
0080:                                               37                 7
0090: 19 80 1A 80 1B 80 1C 80  80 F8 FF FF 7F 00        ..............  
```

#### Opcodes

```
  0: 0x008F [0x37] UPDATE_EVENT_POSITION_AND_DIR: x=-14.822*, z=-9.128*, y=0.000*, direction=279.2°*
  1: 0x0098 [0x80] LOAD_WAIT(entity=EventEntity)
  2: 0x009D [0x00] END_REQSTACK()
```

### Event 65535.9

#### Metadata

| Field        | Value    |
|--------------|----------|
| Entrypoint   | 0x009E   |
| Data Size    | 14 bytes |
| Instructions | 4        |

```
      00 01 02 03 04 05 06 07  08 09 0A 0B 0C 0D 0E 0F
      -- -- -- -- -- -- -- --  -- -- -- -- -- -- -- --
0090:                                            32 05                2.
00A0: 80 1F 00 1D 80 1E 80 1B  80 1F 01 00              ............    
```

#### Opcodes

```
  0: 0x009E [0x32] ExtData[1]->MainSpeed = 13* * 0.1
  1: 0x00A1 [0x1F] MOVE_ENTITY: EventEntity moves to X=-16.256*, Z=-7.688*, Y=0.000*
  2: 0x00A9 [0x1F] MOVE_ENTITY: Update entity position (mode=1)
  3: 0x00AB [0x00] END_REQSTACK()
```

### Event 65535.10

#### Metadata

| Field        | Value    |
|--------------|----------|
| Entrypoint   | 0x00AC   |
| Data Size    | 14 bytes |
| Instructions | 4        |

```
      00 01 02 03 04 05 06 07  08 09 0A 0B 0C 0D 0E 0F
      -- -- -- -- -- -- -- --  -- -- -- -- -- -- -- --
00A0:                                      32 05 80 1F              2...
00B0: 00 1F 80 20 80 1B 80 1F  01 00                    ... ......      
```

#### Opcodes

```
  0: 0x00AC [0x32] ExtData[1]->MainSpeed = 13* * 0.1
  1: 0x00AF [0x1F] MOVE_ENTITY: EventEntity moves to X=-26.546*, Z=-6.826*, Y=0.000*
  2: 0x00B7 [0x1F] MOVE_ENTITY: Update entity position (mode=1)
  3: 0x00B9 [0x00] END_REQSTACK()
```

### Event 65535.11

#### Metadata

| Field        | Value    |
|--------------|----------|
| Entrypoint   | 0x00BA   |
| Data Size    | 14 bytes |
| Instructions | 4        |

```
      00 01 02 03 04 05 06 07  08 09 0A 0B 0C 0D 0E 0F
      -- -- -- -- -- -- -- --  -- -- -- -- -- -- -- --
00B0:                                32 14 80 1F 00 21            2....!
00C0: 80 22 80 1B 80 1F 01 00                           ."......        
```

#### Opcodes

```
  0: 0x00BA [0x32] ExtData[1]->MainSpeed = 40* * 0.1
  1: 0x00BD [0x1F] MOVE_ENTITY: EventEntity moves to X=-13.727*, Z=-1.751*, Y=0.000*
  2: 0x00C5 [0x1F] MOVE_ENTITY: Update entity position (mode=1)
  3: 0x00C7 [0x00] END_REQSTACK()
```

### Event 65535.12

#### Metadata

| Field        | Value    |
|--------------|----------|
| Entrypoint   | 0x00C8   |
| Data Size    | 15 bytes |
| Instructions | 3        |

```
      00 01 02 03 04 05 06 07  08 09 0A 0B 0C 0D 0E 0F
      -- -- -- -- -- -- -- --  -- -- -- -- -- -- -- --
00C0:                          37 23 80 24 80 08 80 25          7#.$...%
00D0: 80 80 F8 FF FF 7F 00                              .......         
```

#### Opcodes

```
  0: 0x00C8 [0x37] UPDATE_EVENT_POSITION_AND_DIR: x=-87.786*, z=-12.409*, y=2.000*, direction=261.2°*
  1: 0x00D1 [0x80] LOAD_WAIT(entity=EventEntity)
  2: 0x00D6 [0x00] END_REQSTACK()
```

### Event 65535.13

#### Metadata

| Field        | Value    |
|--------------|----------|
| Entrypoint   | 0x00D7   |
| Data Size    | 14 bytes |
| Instructions | 4        |

```
      00 01 02 03 04 05 06 07  08 09 0A 0B 0C 0D 0E 0F
      -- -- -- -- -- -- -- --  -- -- -- -- -- -- -- --
00D0:                      32  05 80 1F 00 26 80 27 80         2....&.'.
00E0: 08 80 1F 01 00                                    .....           
```

#### Opcodes

```
  0: 0x00D7 [0x32] ExtData[1]->MainSpeed = 13* * 0.1
  1: 0x00DA [0x1F] MOVE_ENTITY: EventEntity moves to X=-88.920*, Z=-10.671*, Y=2.000*
  2: 0x00E2 [0x1F] MOVE_ENTITY: Update entity position (mode=1)
  3: 0x00E4 [0x00] END_REQSTACK()
```

### Event 65535.14

#### Metadata

| Field        | Value    |
|--------------|----------|
| Entrypoint   | 0x00E5   |
| Data Size    | 24 bytes |
| Instructions | 6        |

```
      00 01 02 03 04 05 06 07  08 09 0A 0B 0C 0D 0E 0F
      -- -- -- -- -- -- -- --  -- -- -- -- -- -- -- --
00E0:                32 05 80  1F 00 28 80 29 80 08 80       2....(.)...
00F0: 1F 01 1F 00 2A 80 2B 80  08 80 1F 01 00           ....*.+......   
```

#### Opcodes

```
  0: 0x00E5 [0x32] ExtData[1]->MainSpeed = 13* * 0.1
  1: 0x00E8 [0x1F] MOVE_ENTITY: EventEntity moves to X=-87.205*, Z=-8.634*, Y=2.000*
  2: 0x00F0 [0x1F] MOVE_ENTITY: Update entity position (mode=1)
  3: 0x00F2 [0x1F] MOVE_ENTITY: EventEntity moves to X=-79.919*, Z=-10.759*, Y=2.000*
  4: 0x00FA [0x1F] MOVE_ENTITY: Update entity position (mode=1)
  5: 0x00FC [0x00] END_REQSTACK()
```

### Event 65535.15

#### Metadata

| Field        | Value    |
|--------------|----------|
| Entrypoint   | 0x00FD   |
| Data Size    | 14 bytes |
| Instructions | 4        |

```
      00 01 02 03 04 05 06 07  08 09 0A 0B 0C 0D 0E 0F
      -- -- -- -- -- -- -- --  -- -- -- -- -- -- -- --
00F0:                                         32 14 80               2..
0100: 1F 00 2C 80 2D 80 08 80  1F 01 00                 ..,.-......     
```

#### Opcodes

```
  0: 0x00FD [0x32] ExtData[1]->MainSpeed = 40* * 0.1
  1: 0x0100 [0x1F] MOVE_ENTITY: EventEntity moves to X=-88.623*, Z=-2.663*, Y=2.000*
  2: 0x0108 [0x1F] MOVE_ENTITY: Update entity position (mode=1)
  3: 0x010A [0x00] END_REQSTACK()
```

### Event 921

#### Metadata

| Field        | Value   |
|--------------|---------|
| Entrypoint   | 0x010B  |
| Data Size    | 1 bytes |
| Instructions | 1       |

```
      00 01 02 03 04 05 06 07  08 09 0A 0B 0C 0D 0E 0F
      -- -- -- -- -- -- -- --  -- -- -- -- -- -- -- --
0100:                                   00                         .    
```

#### Opcodes

```
  0: 0x010B [0x00] END_REQSTACK()
```

### Event 65535.16

#### Metadata

| Field        | Value    |
|--------------|----------|
| Entrypoint   | 0x010C   |
| Data Size    | 15 bytes |
| Instructions | 3        |

```
      00 01 02 03 04 05 06 07  08 09 0A 0B 0C 0D 0E 0F
      -- -- -- -- -- -- -- --  -- -- -- -- -- -- -- --
0100:                                      37 2E 80 2F              7../
0110: 80 30 80 31 80 80 F8 FF  FF 7F 00                 .0.1.......     
```

#### Opcodes

```
  0: 0x010C [0x37] UPDATE_EVENT_POSITION_AND_DIR: x=-18.084*, z=-27.576*, y=-10.000*, direction=171.8°*
  1: 0x0115 [0x80] LOAD_WAIT(entity=EventEntity)
  2: 0x011A [0x00] END_REQSTACK()
```

### Event 65535.17

#### Metadata

| Field        | Value    |
|--------------|----------|
| Entrypoint   | 0x011B   |
| Data Size    | 15 bytes |
| Instructions | 3        |

```
      00 01 02 03 04 05 06 07  08 09 0A 0B 0C 0D 0E 0F
      -- -- -- -- -- -- -- --  -- -- -- -- -- -- -- --
0110:                                   37 32 80 33 80             72.3.
0120: 08 80 34 80 80 F8 FF FF  7F 00                    ..4.......      
```

#### Opcodes

```
  0: 0x011B [0x37] UPDATE_EVENT_POSITION_AND_DIR: x=-53.150*, z=0.227*, y=2.000*, direction=34.8°*
  1: 0x0124 [0x80] LOAD_WAIT(entity=EventEntity)
  2: 0x0129 [0x00] END_REQSTACK()
```

### Event 65535.18

#### Metadata

| Field        | Value    |
|--------------|----------|
| Entrypoint   | 0x012A   |
| Data Size    | 14 bytes |
| Instructions | 4        |

```
      00 01 02 03 04 05 06 07  08 09 0A 0B 0C 0D 0E 0F
      -- -- -- -- -- -- -- --  -- -- -- -- -- -- -- --
0120:                                32 05 80 1F 00 35            2....5
0130: 80 36 80 08 80 1F 01 00                           .6......        
```

#### Opcodes

```
  0: 0x012A [0x32] ExtData[1]->MainSpeed = 13* * 0.1
  1: 0x012D [0x1F] MOVE_ENTITY: EventEntity moves to X=-53.475*, Z=3.846*, Y=2.000*
  2: 0x0135 [0x1F] MOVE_ENTITY: Update entity position (mode=1)
  3: 0x0137 [0x00] END_REQSTACK()
```
