# 17748125 - Ulmia

## Common Data

| Field            | Value                |
|------------------|----------------------|
| Zone             | Metalworks (ID: 237) |
| Block Size       | 700 bytes            |
| Total Events     | 23                   |
| References Count | 53                   |

## List of Events

| Event ID                   | Entrypoint   |   Size |   Instructions |
|----------------------------|--------------|--------|----------------|
| [65535](#event-65535)      | 0x0000       |      7 |              2 |
| [849](#event-849)          | 0x0007       |     10 |              2 |
| [65535.1](#event-655351)   | 0x0011       |     28 |              8 |
| [65535.2](#event-655352)   | 0x002D       |     24 |              6 |
| [65535.3](#event-655353)   | 0x0045       |     26 |              7 |
| [850](#event-850)          | 0x005F       |     10 |              2 |
| [65535.4](#event-655354)   | 0x0069       |     18 |              6 |
| [65535.5](#event-655355)   | 0x007B       |     15 |              5 |
| [854](#event-854)          | 0x008A       |     10 |              2 |
| [855](#event-855)          | 0x0094       |     10 |              2 |
| [65535.6](#event-655356)   | 0x009E       |     15 |              5 |
| [65535.7](#event-655357)   | 0x00AD       |     15 |              5 |
| [65535.8](#event-655358)   | 0x00BC       |     26 |              7 |
| [857](#event-857)          | 0x00D6       |     10 |              2 |
| [65535.9](#event-655359)   | 0x00E0       |     15 |              5 |
| [65535.10](#event-6553510) | 0x00EF       |     62 |             11 |
| [890](#event-890)          | 0x012D       |      1 |              1 |
| [892](#event-892)          | 0x012E       |      1 |              1 |
| [893](#event-893)          | 0x012F       |      1 |              1 |
| [65535.11](#event-6553511) | 0x0130       |     24 |              6 |
| [65535.12](#event-6553512) | 0x0148       |     26 |              7 |
| [65535.13](#event-6553513) | 0x0162       |     24 |              6 |

## DAT References (imed_data)

|   Index | Hex Value   |   Dec Value |
|---------|-------------|-------------|
|       0 | 0xFFFF6AD8  |  4294929112 |
|       1 | 0xFFFFF7A2  |  4294965154 |
|       2 | 0xFFFFD8F1  |  4294957297 |
|       3 | 0x0099      |         153 |
|       4 | 0x002D      |          45 |
|       5 | 0x000D      |          13 |
|       6 | 0xFFFF7A03  |  4294932995 |
|       7 | 0xFFFFF8F8  |  4294965496 |
|       8 | 0xFFFFA178  |  4294943096 |
|       9 | 0xFFFFFAEC  |  4294965996 |
|      10 | 0x0FFE      |        4094 |
|      11 | 0xFFFFA498  |  4294943896 |
|      12 | 0xFFFFFC18  |  4294966296 |
|      13 | 0x0028      |          40 |
|      14 | 0xFFFF6FCD  |  4294930381 |
|      15 | 0xFFFFF95B  |  4294965595 |
|      16 | 0xFFFF6072  |  4294926450 |
|      17 | 0xFFFFE98B  |  4294961547 |
|      18 | 0xFFFFC61C  |  4294952476 |
|      19 | 0xFFFFE994  |  4294961556 |
|      20 | 0xFFFFD514  |  4294956308 |
|      21 | 0x0DE5      |        3557 |
|      22 | 0xFFFFC9C3  |  4294953411 |
|      23 | 0xFFFFF359  |  4294964057 |
|      24 | 0x0B86      |        2950 |
|      25 | 0xFFFF6CE2  |  4294929634 |
|      26 | 0xFFFFF7CF  |  4294965199 |
|      27 | 0x004A      |          74 |
|      28 | 0xFFFF71D3  |  4294930899 |
|      29 | 0xFFFFF9C5  |  4294965701 |
|      30 | 0x0F8D      |        3981 |
|      31 | 0xFFFF94EA  |  4294939882 |
|      32 | 0xFFFFF9DF  |  4294965727 |
|      33 | 0xFFFF924D  |  4294939213 |
|      34 | 0xFFFFFF13  |  4294967059 |
|      35 | 0x0FE7      |        4071 |
|      36 | 0xFFFFA5D5  |  4294944213 |
|      37 | 0x01A4      |         420 |
|      38 | 0x003C      |          60 |
|      39 | 0x001E      |          30 |
|      40 | 0xFFFFCA35  |  4294953525 |
|      41 | 0xFFFFF1B9  |  4294963641 |
|      42 | 0x0D50      |        3408 |
|      43 | 0xFFFFC9AD  |  4294953389 |
|      44 | 0xFFFFFE9B  |  4294966939 |
|      45 | 0xFFFF7786  |  4294932358 |
|      46 | 0xFFFFFC02  |  4294966274 |
|      47 | 0x0023      |          35 |
|      48 | 0xFFFF89FD  |  4294937085 |
|      49 | 0xFFFFFCC8  |  4294966472 |
|      50 | 0xFFFFF5A1  |  4294964641 |
|      51 | 0xFFFFCCCD  |  4294954189 |
|      52 | 0xFFFFFD6F  |  4294966639 |

## Events

### Event 65535

#### Metadata

| Field        | Value   |
|--------------|---------|
| Entrypoint   | 0x0000  |
| Data Size    | 7 bytes |
| Instructions | 2       |

```
      00 01 02 03 04 05 06 07  08 09 0A 0B 0C 0D 0E 0F
      -- -- -- -- -- -- -- --  -- -- -- -- -- -- -- --
0000: 92 01 F8 FF FF 7F 00                              .......         
```

#### Opcodes

```
  0: 0x0000 [0x92] EventEntity->Render.Flags3 ^= 0x01
  1: 0x0006 [0x00] END_REQSTACK()
```

### Event 849

#### Metadata

| Field        | Value    |
|--------------|----------|
| Entrypoint   | 0x0007   |
| Data Size    | 10 bytes |
| Instructions | 2        |

```
      00 01 02 03 04 05 06 07  08 09 0A 0B 0C 0D 0E 0F
      -- -- -- -- -- -- -- --  -- -- -- -- -- -- -- --
0000:                      37  00 80 01 80 02 80 03 80         7........
0010: 00                                                .               
```

#### Opcodes

```
  0: 0x0007 [0x37] UPDATE_EVENT_POSITION_AND_DIR: x=-38.184*, z=-2.142*, y=-9.999*, direction=13.4°*
  1: 0x0010 [0x00] END_REQSTACK()
```

### Event 65535.1

#### Metadata

| Field        | Value    |
|--------------|----------|
| Entrypoint   | 0x0011   |
| Data Size    | 28 bytes |
| Instructions | 8        |

```
      00 01 02 03 04 05 06 07  08 09 0A 0B 0C 0D 0E 0F
      -- -- -- -- -- -- -- --  -- -- -- -- -- -- -- --
0010:    1C 04 80 32 05 80 1F  00 06 80 07 80 02 80 1F   ...2...........
0020: 01 1F 00 08 80 07 80 02  80 1F 01 6F 00           ...........o.   
```

#### Opcodes

```
  0: 0x0011 [0x1C] WAIT(45* ticks)
  1: 0x0014 [0x32] ExtData[1]->MainSpeed = 13* * 0.1
  2: 0x0017 [0x1F] MOVE_ENTITY: EventEntity moves to X=-34.301*, Z=-1.800*, Y=-9.999*
  3: 0x001F [0x1F] MOVE_ENTITY: Update entity position (mode=1)
  4: 0x0021 [0x1F] MOVE_ENTITY: EventEntity moves to X=-24.200*, Z=-1.800*, Y=-9.999*
  5: 0x0029 [0x1F] MOVE_ENTITY: Update entity position (mode=1)
  6: 0x002B [0x6F] WAIT_FRAME_DELAY: Yield until WaitTime reaches zero
  7: 0x002C [0x00] END_REQSTACK()
```

### Event 65535.2

#### Metadata

| Field        | Value    |
|--------------|----------|
| Entrypoint   | 0x002D   |
| Data Size    | 24 bytes |
| Instructions | 6        |

```
      00 01 02 03 04 05 06 07  08 09 0A 0B 0C 0D 0E 0F
      -- -- -- -- -- -- -- --  -- -- -- -- -- -- -- --
0020:                                         32 05 80               2..
0030: 37 08 80 09 80 02 80 0A  80 1F 00 0B 80 0C 80 02  7...............
0040: 80 1F 01 6F 00                                    ...o.           
```

#### Opcodes

```
  0: 0x002D [0x32] ExtData[1]->MainSpeed = 13* * 0.1
  1: 0x0030 [0x37] UPDATE_EVENT_POSITION_AND_DIR: x=-24.200*, z=-1.300*, y=-9.999*, direction=359.8°*
  2: 0x0039 [0x1F] MOVE_ENTITY: EventEntity moves to X=-23.400*, Z=-1.000*, Y=-9.999*
  3: 0x0041 [0x1F] MOVE_ENTITY: Update entity position (mode=1)
  4: 0x0043 [0x6F] WAIT_FRAME_DELAY: Yield until WaitTime reaches zero
  5: 0x0044 [0x00] END_REQSTACK()
```

### Event 65535.3

#### Metadata

| Field        | Value    |
|--------------|----------|
| Entrypoint   | 0x0045   |
| Data Size    | 26 bytes |
| Instructions | 7        |

```
      00 01 02 03 04 05 06 07  08 09 0A 0B 0C 0D 0E 0F
      -- -- -- -- -- -- -- --  -- -- -- -- -- -- -- --
0040:                32 0D 80  1F 00 0E 80 0F 80 02 80       2..........
0050: 1F 01 1F 00 10 80 11 80  02 80 1F 01 22 01 00     ............".. 
```

#### Opcodes

```
  0: 0x0045 [0x32] ExtData[1]->MainSpeed = 40* * 0.1
  1: 0x0048 [0x1F] MOVE_ENTITY: EventEntity moves to X=-36.915*, Z=-1.701*, Y=-9.999*
  2: 0x0050 [0x1F] MOVE_ENTITY: Update entity position (mode=1)
  3: 0x0052 [0x1F] MOVE_ENTITY: EventEntity moves to X=-40.846*, Z=-5.749*, Y=-9.999*
  4: 0x005A [0x1F] MOVE_ENTITY: Update entity position (mode=1)
  5: 0x005C [0x22] ENTITY_HIDE_FLAG(enabled=0x01)
  6: 0x005E [0x00] END_REQSTACK()
```

### Event 850

#### Metadata

| Field        | Value    |
|--------------|----------|
| Entrypoint   | 0x005F   |
| Data Size    | 10 bytes |
| Instructions | 2        |

```
      00 01 02 03 04 05 06 07  08 09 0A 0B 0C 0D 0E 0F
      -- -- -- -- -- -- -- --  -- -- -- -- -- -- -- --
0050:                                               37                 7
0060: 12 80 13 80 14 80 15 80  00                       .........       
```

#### Opcodes

```
  0: 0x005F [0x37] UPDATE_EVENT_POSITION_AND_DIR: x=-14.820*, z=-5.740*, y=-10.988*, direction=312.6°*
  1: 0x0068 [0x00] END_REQSTACK()
```

### Event 65535.4

#### Metadata

| Field        | Value    |
|--------------|----------|
| Entrypoint   | 0x0069   |
| Data Size    | 18 bytes |
| Instructions | 6        |

```
      00 01 02 03 04 05 06 07  08 09 0A 0B 0C 0D 0E 0F
      -- -- -- -- -- -- -- --  -- -- -- -- -- -- -- --
0060:                             32 05 80 1F 00 16 80           2......
0070: 17 80 14 80 1F 01 6F 39  18 80 00                 ......o9...     
```

#### Opcodes

```
  0: 0x0069 [0x32] ExtData[1]->MainSpeed = 13* * 0.1
  1: 0x006C [0x1F] MOVE_ENTITY: EventEntity moves to X=-13.885*, Z=-3.239*, Y=-10.988*
  2: 0x0074 [0x1F] MOVE_ENTITY: Update entity position (mode=1)
  3: 0x0076 [0x6F] WAIT_FRAME_DELAY: Yield until WaitTime reaches zero
  4: 0x0077 [0x39] SET_ENTITY_DIRECTION(direction=16.2°*)
  5: 0x007A [0x00] END_REQSTACK()
```

### Event 65535.5

#### Metadata

| Field        | Value    |
|--------------|----------|
| Entrypoint   | 0x007B   |
| Data Size    | 15 bytes |
| Instructions | 5        |

```
      00 01 02 03 04 05 06 07  08 09 0A 0B 0C 0D 0E 0F
      -- -- -- -- -- -- -- --  -- -- -- -- -- -- -- --
0070:                                   32 05 80 1F 00             2....
0080: 12 80 13 80 14 80 1F 01  6F 00                    ........o.      
```

#### Opcodes

```
  0: 0x007B [0x32] ExtData[1]->MainSpeed = 13* * 0.1
  1: 0x007E [0x1F] MOVE_ENTITY: EventEntity moves to X=-14.820*, Z=-5.740*, Y=-10.988*
  2: 0x0086 [0x1F] MOVE_ENTITY: Update entity position (mode=1)
  3: 0x0088 [0x6F] WAIT_FRAME_DELAY: Yield until WaitTime reaches zero
  4: 0x0089 [0x00] END_REQSTACK()
```

### Event 854

#### Metadata

| Field        | Value    |
|--------------|----------|
| Entrypoint   | 0x008A   |
| Data Size    | 10 bytes |
| Instructions | 2        |

```
      00 01 02 03 04 05 06 07  08 09 0A 0B 0C 0D 0E 0F
      -- -- -- -- -- -- -- --  -- -- -- -- -- -- -- --
0080:                                37 19 80 1A 80 02            7.....
0090: 80 1B 80 00                                       ....            
```

#### Opcodes

```
  0: 0x008A [0x37] UPDATE_EVENT_POSITION_AND_DIR: x=-37.662*, z=-2.097*, y=-9.999*, direction=6.5°*
  1: 0x0093 [0x00] END_REQSTACK()
```

### Event 855

#### Metadata

| Field        | Value    |
|--------------|----------|
| Entrypoint   | 0x0094   |
| Data Size    | 10 bytes |
| Instructions | 2        |

```
      00 01 02 03 04 05 06 07  08 09 0A 0B 0C 0D 0E 0F
      -- -- -- -- -- -- -- --  -- -- -- -- -- -- -- --
0090:             37 1C 80 1D  80 02 80 1E 80 00            7.........  
```

#### Opcodes

```
  0: 0x0094 [0x37] UPDATE_EVENT_POSITION_AND_DIR: x=-36.397*, z=-1.595*, y=-9.999*, direction=349.9°*
  1: 0x009D [0x00] END_REQSTACK()
```

### Event 65535.6

#### Metadata

| Field        | Value    |
|--------------|----------|
| Entrypoint   | 0x009E   |
| Data Size    | 15 bytes |
| Instructions | 5        |

```
      00 01 02 03 04 05 06 07  08 09 0A 0B 0C 0D 0E 0F
      -- -- -- -- -- -- -- --  -- -- -- -- -- -- -- --
0090:                                            32 0D                2.
00A0: 80 1F 00 1F 80 20 80 02  80 1F 01 6F 00           ..... .....o.   
```

#### Opcodes

```
  0: 0x009E [0x32] ExtData[1]->MainSpeed = 40* * 0.1
  1: 0x00A1 [0x1F] MOVE_ENTITY: EventEntity moves to X=-27.414*, Z=-1.569*, Y=-9.999*
  2: 0x00A9 [0x1F] MOVE_ENTITY: Update entity position (mode=1)
  3: 0x00AB [0x6F] WAIT_FRAME_DELAY: Yield until WaitTime reaches zero
  4: 0x00AC [0x00] END_REQSTACK()
```

### Event 65535.7

#### Metadata

| Field        | Value    |
|--------------|----------|
| Entrypoint   | 0x00AD   |
| Data Size    | 15 bytes |
| Instructions | 5        |

```
      00 01 02 03 04 05 06 07  08 09 0A 0B 0C 0D 0E 0F
      -- -- -- -- -- -- -- --  -- -- -- -- -- -- -- --
00A0:                                         32 05 80               2..
00B0: 1F 00 1F 80 20 80 02 80  1F 01 6F 00              .... .....o.    
```

#### Opcodes

```
  0: 0x00AD [0x32] ExtData[1]->MainSpeed = 13* * 0.1
  1: 0x00B0 [0x1F] MOVE_ENTITY: EventEntity moves to X=-27.414*, Z=-1.569*, Y=-9.999*
  2: 0x00B8 [0x1F] MOVE_ENTITY: Update entity position (mode=1)
  3: 0x00BA [0x6F] WAIT_FRAME_DELAY: Yield until WaitTime reaches zero
  4: 0x00BB [0x00] END_REQSTACK()
```

### Event 65535.8

#### Metadata

| Field        | Value    |
|--------------|----------|
| Entrypoint   | 0x00BC   |
| Data Size    | 26 bytes |
| Instructions | 7        |

```
      00 01 02 03 04 05 06 07  08 09 0A 0B 0C 0D 0E 0F
      -- -- -- -- -- -- -- --  -- -- -- -- -- -- -- --
00B0:                                      32 0D 80 1F              2...
00C0: 00 0E 80 0F 80 02 80 1F  01 1F 00 10 80 11 80 02  ................
00D0: 80 1F 01 22 01 00                                 ..."..          
```

#### Opcodes

```
  0: 0x00BC [0x32] ExtData[1]->MainSpeed = 40* * 0.1
  1: 0x00BF [0x1F] MOVE_ENTITY: EventEntity moves to X=-36.915*, Z=-1.701*, Y=-9.999*
  2: 0x00C7 [0x1F] MOVE_ENTITY: Update entity position (mode=1)
  3: 0x00C9 [0x1F] MOVE_ENTITY: EventEntity moves to X=-40.846*, Z=-5.749*, Y=-9.999*
  4: 0x00D1 [0x1F] MOVE_ENTITY: Update entity position (mode=1)
  5: 0x00D3 [0x22] ENTITY_HIDE_FLAG(enabled=0x01)
  6: 0x00D5 [0x00] END_REQSTACK()
```

### Event 857

#### Metadata

| Field        | Value    |
|--------------|----------|
| Entrypoint   | 0x00D6   |
| Data Size    | 10 bytes |
| Instructions | 2        |

```
      00 01 02 03 04 05 06 07  08 09 0A 0B 0C 0D 0E 0F
      -- -- -- -- -- -- -- --  -- -- -- -- -- -- -- --
00D0:                   37 21  80 22 80 02 80 23 80 00        7!."...#..
```

#### Opcodes

```
  0: 0x00D6 [0x37] UPDATE_EVENT_POSITION_AND_DIR: x=-28.083*, z=-0.237*, y=-9.999*, direction=357.8°*
  1: 0x00DF [0x00] END_REQSTACK()
```

### Event 65535.9

#### Metadata

| Field        | Value    |
|--------------|----------|
| Entrypoint   | 0x00E0   |
| Data Size    | 15 bytes |
| Instructions | 5        |

```
      00 01 02 03 04 05 06 07  08 09 0A 0B 0C 0D 0E 0F
      -- -- -- -- -- -- -- --  -- -- -- -- -- -- -- --
00E0: 32 05 80 1F 00 24 80 22  80 02 80 1F 01 6F 00     2....$.".....o. 
```

#### Opcodes

```
  0: 0x00E0 [0x32] ExtData[1]->MainSpeed = 13* * 0.1
  1: 0x00E3 [0x1F] MOVE_ENTITY: EventEntity moves to X=-23.083*, Z=-0.237*, Y=-9.999*
  2: 0x00EB [0x1F] MOVE_ENTITY: Update entity position (mode=1)
  3: 0x00ED [0x6F] WAIT_FRAME_DELAY: Yield until WaitTime reaches zero
  4: 0x00EE [0x00] END_REQSTACK()
```

### Event 65535.10

#### Metadata

| Field        | Value    |
|--------------|----------|
| Entrypoint   | 0x00EF   |
| Data Size    | 62 bytes |
| Instructions | 11       |

```
      00 01 02 03 04 05 06 07  08 09 0A 0B 0C 0D 0E 0F
      -- -- -- -- -- -- -- --  -- -- -- -- -- -- -- --
00E0:                                               5B                 [
00F0: 25 80 9D D0 0E 01 9D D0  0E 01 74 6C 61 30 1C 26  %.........tla0.&
0100: 80 5B 25 80 9D D0 0E 01  9D D0 0E 01 74 6C 61 31  .[%.........tla1
0110: 1C 27 80 32 05 80 1F 00  0E 80 0F 80 02 80 1F 01  .'.2............
0120: 1F 00 10 80 11 80 02 80  1F 01 22 01 00           .........."..   
```

#### Opcodes

```
  0: 0x00EF [0x5B] LOAD_EXT_SCHEDULER: Load scheduler "tla0" with entities [Ulmia (ID: 17748125/0x010ED09D), Ulmia (ID: 17748125/0x010ED09D)], work=420*
  1: 0x00FE [0x1C] WAIT(60* ticks)
  2: 0x0101 [0x5B] LOAD_EXT_SCHEDULER: Load scheduler "tla1" with entities [Ulmia (ID: 17748125/0x010ED09D), Ulmia (ID: 17748125/0x010ED09D)], work=420*
  3: 0x0110 [0x1C] WAIT(30* ticks)
  4: 0x0113 [0x32] ExtData[1]->MainSpeed = 13* * 0.1
  5: 0x0116 [0x1F] MOVE_ENTITY: EventEntity moves to X=-36.915*, Z=-1.701*, Y=-9.999*
  6: 0x011E [0x1F] MOVE_ENTITY: Update entity position (mode=1)
  7: 0x0120 [0x1F] MOVE_ENTITY: EventEntity moves to X=-40.846*, Z=-5.749*, Y=-9.999*
  8: 0x0128 [0x1F] MOVE_ENTITY: Update entity position (mode=1)
  9: 0x012A [0x22] ENTITY_HIDE_FLAG(enabled=0x01)
 10: 0x012C [0x00] END_REQSTACK()
```

### Event 890

#### Metadata

| Field        | Value   |
|--------------|---------|
| Entrypoint   | 0x012D  |
| Data Size    | 1 bytes |
| Instructions | 1       |

```
      00 01 02 03 04 05 06 07  08 09 0A 0B 0C 0D 0E 0F
      -- -- -- -- -- -- -- --  -- -- -- -- -- -- -- --
0120:                                         00                     .  
```

#### Opcodes

```
  0: 0x012D [0x00] END_REQSTACK()
```

### Event 892

#### Metadata

| Field        | Value   |
|--------------|---------|
| Entrypoint   | 0x012E  |
| Data Size    | 1 bytes |
| Instructions | 1       |

```
      00 01 02 03 04 05 06 07  08 09 0A 0B 0C 0D 0E 0F
      -- -- -- -- -- -- -- --  -- -- -- -- -- -- -- --
0120:                                            00                   . 
```

#### Opcodes

```
  0: 0x012E [0x00] END_REQSTACK()
```

### Event 893

#### Metadata

| Field        | Value   |
|--------------|---------|
| Entrypoint   | 0x012F  |
| Data Size    | 1 bytes |
| Instructions | 1       |

```
      00 01 02 03 04 05 06 07  08 09 0A 0B 0C 0D 0E 0F
      -- -- -- -- -- -- -- --  -- -- -- -- -- -- -- --
0120:                                               00                 .
```

#### Opcodes

```
  0: 0x012F [0x00] END_REQSTACK()
```

### Event 65535.11

#### Metadata

| Field        | Value    |
|--------------|----------|
| Entrypoint   | 0x0130   |
| Data Size    | 24 bytes |
| Instructions | 6        |

```
      00 01 02 03 04 05 06 07  08 09 0A 0B 0C 0D 0E 0F
      -- -- -- -- -- -- -- --  -- -- -- -- -- -- -- --
0130: 37 28 80 29 80 14 80 2A  80 32 05 80 1F 00 2B 80  7(.)...*.2....+.
0140: 2C 80 14 80 1F 01 6F 00                           ,.....o.        
```

#### Opcodes

```
  0: 0x0130 [0x37] UPDATE_EVENT_POSITION_AND_DIR: x=-13.771*, z=-3.655*, y=-10.988*, direction=299.5°*
  1: 0x0139 [0x32] ExtData[1]->MainSpeed = 13* * 0.1
  2: 0x013C [0x1F] MOVE_ENTITY: EventEntity moves to X=-13.907*, Z=-0.357*, Y=-10.988*
  3: 0x0144 [0x1F] MOVE_ENTITY: Update entity position (mode=1)
  4: 0x0146 [0x6F] WAIT_FRAME_DELAY: Yield until WaitTime reaches zero
  5: 0x0147 [0x00] END_REQSTACK()
```

### Event 65535.12

#### Metadata

| Field        | Value    |
|--------------|----------|
| Entrypoint   | 0x0148   |
| Data Size    | 26 bytes |
| Instructions | 7        |

```
      00 01 02 03 04 05 06 07  08 09 0A 0B 0C 0D 0E 0F
      -- -- -- -- -- -- -- --  -- -- -- -- -- -- -- --
0140:                          22 00 32 05 80 37 2D 80          ".2..7-.
0150: 2E 80 02 80 2F 80 1F 00  30 80 31 80 02 80 1F 01  ..../...0.1.....
0160: 6F 00                                             o.              
```

#### Opcodes

```
  0: 0x0148 [0x22] ENTITY_HIDE_FLAG(enabled=0x00)
  1: 0x014A [0x32] ExtData[1]->MainSpeed = 13* * 0.1
  2: 0x014D [0x37] UPDATE_EVENT_POSITION_AND_DIR: x=-34.938*, z=-1.022*, y=-9.999*, direction=3.1°*
  3: 0x0156 [0x1F] MOVE_ENTITY: EventEntity moves to X=-30.211*, Z=-0.824*, Y=-9.999*
  4: 0x015E [0x1F] MOVE_ENTITY: Update entity position (mode=1)
  5: 0x0160 [0x6F] WAIT_FRAME_DELAY: Yield until WaitTime reaches zero
  6: 0x0161 [0x00] END_REQSTACK()
```

### Event 65535.13

#### Metadata

| Field        | Value    |
|--------------|----------|
| Entrypoint   | 0x0162   |
| Data Size    | 24 bytes |
| Instructions | 6        |

```
      00 01 02 03 04 05 06 07  08 09 0A 0B 0C 0D 0E 0F
      -- -- -- -- -- -- -- --  -- -- -- -- -- -- -- --
0160:       37 28 80 32 80 14  80 2A 80 32 05 80 1F 00    7(.2...*.2....
0170: 33 80 34 80 14 80 1F 01  6F 00                    3.4.....o.      
```

#### Opcodes

```
  0: 0x0162 [0x37] UPDATE_EVENT_POSITION_AND_DIR: x=-13.771*, z=-2.655*, y=-10.988*, direction=299.5°*
  1: 0x016B [0x32] ExtData[1]->MainSpeed = 13* * 0.1
  2: 0x016E [0x1F] MOVE_ENTITY: EventEntity moves to X=-13.107*, Z=-0.657*, Y=-10.988*
  3: 0x0176 [0x1F] MOVE_ENTITY: Update entity position (mode=1)
  4: 0x0178 [0x6F] WAIT_FRAME_DELAY: Yield until WaitTime reaches zero
  5: 0x0179 [0x00] END_REQSTACK()
```
