# 17748198

## Common Data

| Field            | Value                |
|------------------|----------------------|
| Zone             | Metalworks (ID: 237) |
| Block Size       | 15144 bytes          |
| Total Events     | 10                   |
| References Count | 193                  |

## List of Events

| Event ID              | Entrypoint   |   Size |   Instructions |
|-----------------------|--------------|--------|----------------|
| [65535](#event-65535) | 0x0000       |    658 |             62 |
| [1045](#event-1045)   | 0x0292       |     93 |             15 |
| [1046](#event-1046)   | 0x02EF       |    129 |             19 |
| [1049](#event-1049)   | 0x0370       |     56 |             11 |
| [1050](#event-1050)   | 0x03A8       |     84 |             13 |
| [1051](#event-1051)   | 0x03FC       |   8914 |           1132 |
| [1053](#event-1053)   | 0x26CE       |     84 |             13 |
| [1054](#event-1054)   | 0x2722       |     59 |             11 |
| [1055](#event-1055)   | 0x275D       |    213 |             32 |
| [1052](#event-1052)   | 0x2832       |   4024 |            521 |

## DAT References (imed_data)

|   Index | Hex Value   |   Dec Value |
|---------|-------------|-------------|
|       0 | 0x00C8      |         200 |
|       1 | 0x0000      |           0 |
|       2 | 0x00C9      |         201 |
|       3 | 0x0001      |           1 |
|       4 | 0x002D      |          45 |
|       5 | 0x0002      |           2 |
|       6 | 0x001E      |          30 |
|       7 | 0x00D7      |         215 |
|       8 | 0x0009      |           9 |
|       9 | 0x2C72      |       11378 |
|      10 | 0x2C73      |       11379 |
|      11 | 0x2C74      |       11380 |
|      12 | 0x2C75      |       11381 |
|      13 | 0x2C76      |       11382 |
|      14 | 0x2C77      |       11383 |
|      15 | 0x2C78      |       11384 |
|      16 | 0x010E      |         270 |
|      17 | 0x2C79      |       11385 |
|      18 | 0x2C7A      |       11386 |
|      19 | 0x0013      |          19 |
|      20 | 0x2C7B      |       11387 |
|      21 | 0x2C7C      |       11388 |
|      22 | 0x012C      |         300 |
|      23 | 0x0093      |         147 |
|      24 | 0x0131      |         305 |
|      25 | 0x16B08     |       92936 |
|      26 | 0x0716      |        1814 |
|      27 | 0xFFFFB3B4  |  4294947764 |
|      28 | 0x0572      |        1394 |
|      29 | 0x13C7F     |       81023 |
|      30 | 0x0109      |         265 |
|      31 | 0x0F4C      |        3916 |
|      32 | 0x18565     |       99685 |
|      33 | 0xFFFFFF48  |  4294967112 |
|      34 | 0xFFFFB12B  |  4294947115 |
|      35 | 0x083A      |        2106 |
|      36 | 0x157A1     |       87969 |
|      37 | 0x0190      |         400 |
|      38 | 0x0EC5      |        3781 |
|      39 | 0x0003      |           3 |
|      40 | 0x0354      |         852 |
|      41 | 0x0005      |           5 |
|      42 | 0x0006      |           6 |
|      43 | 0x0008      |           8 |
|      44 | 0x2C7D      |       11389 |
|      45 | 0x2C7E      |       11390 |
|      46 | 0x000A      |          10 |
|      47 | 0x2C7F      |       11391 |
|      48 | 0x005A      |          90 |
|      49 | 0x00CE      |         206 |
|      50 | 0x007F      |         127 |
|      51 | 0x2C80      |       11392 |
|      52 | 0x2C81      |       11393 |
|      53 | 0x2C82      |       11394 |
|      54 | 0x2C83      |       11395 |
|      55 | 0x0014      |          20 |
|      56 | 0x03CC      |         972 |
|      57 | 0x2C84      |       11396 |
|      58 | 0x0080      |         128 |
|      59 | 0x2C85      |       11397 |
|      60 | 0x0857      |        2135 |
|      61 | 0x0AF0      |        2800 |
|      62 | 0x2C86      |       11398 |
|      63 | 0x003C      |          60 |
|      64 | 0x0028      |          40 |
|      65 | 0x2C87      |       11399 |
|      66 | 0x151E7     |       86503 |
|      67 | 0xFFFFFC13  |  4294966291 |
|      68 | 0x0FA0      |        4000 |
|      69 | 0x2C88      |       11400 |
|      70 | 0x2C89      |       11401 |
|      71 | 0x2C8A      |       11402 |
|      72 | 0x2C8B      |       11403 |
|      73 | 0x2C8C      |       11404 |
|      74 | 0x2C8D      |       11405 |
|      75 | 0x2C8E      |       11406 |
|      76 | 0x2C8F      |       11407 |
|      77 | 0x2C90      |       11408 |
|      78 | 0x08BB      |        2235 |
|      79 | 0x2C91      |       11409 |
|      80 | 0x2C92      |       11410 |
|      81 | 0x2C93      |       11411 |
|      82 | 0x2C94      |       11412 |
|      83 | 0x0007      |           7 |
|      84 | 0x2C95      |       11413 |
|      85 | 0x2C96      |       11414 |
|      86 | 0x2C97      |       11415 |
|      87 | 0x2C98      |       11416 |
|      88 | 0x0E74      |        3700 |
|      89 | 0x2C99      |       11417 |
|      90 | 0x2C9A      |       11418 |
|      91 | 0x2C9B      |       11419 |
|      92 | 0x2C9C      |       11420 |
|      93 | 0x0050      |          80 |
|      94 | 0x2C9D      |       11421 |
|      95 | 0x2C9E      |       11422 |
|      96 | 0x2C9F      |       11423 |
|      97 | 0x2CA0      |       11424 |
|      98 | 0x2CA1      |       11425 |
|      99 | 0x2CA2      |       11426 |
|     100 | 0x2CA3      |       11427 |
|     101 | 0x09C4      |        2500 |
|     102 | 0x001B      |          27 |
|     103 | 0x2CA4      |       11428 |
|     104 | 0x2CA5      |       11429 |
|     105 | 0x2CA6      |       11430 |
|     106 | 0x2CA7      |       11431 |
|     107 | 0x2CA8      |       11432 |
|     108 | 0x2CA9      |       11433 |
|     109 | 0x2CAA      |       11434 |
|     110 | 0x2CAB      |       11435 |
|     111 | 0x2CAC      |       11436 |
|     112 | 0x2CAD      |       11437 |
|     113 | 0x0078      |         120 |
|     114 | 0x2CAE      |       11438 |
|     115 | 0x2CAF      |       11439 |
|     116 | 0x0032      |          50 |
|     117 | 0x2CB0      |       11440 |
|     118 | 0x2CB1      |       11441 |
|     119 | 0x2CB2      |       11442 |
|     120 | 0x2CB3      |       11443 |
|     121 | 0x2CB4      |       11444 |
|     122 | 0x2CB5      |       11445 |
|     123 | 0x2CB6      |       11446 |
|     124 | 0x2CB7      |       11447 |
|     125 | 0x2CB9      |       11449 |
|     126 | 0x2CB8      |       11448 |
|     127 | 0x2CBA      |       11450 |
|     128 | 0x2CBB      |       11451 |
|     129 | 0x009A      |         154 |
|     130 | 0x000F      |          15 |
|     131 | 0x011E      |         286 |
|     132 | 0x2CE8      |       11496 |
|     133 | 0x2CE9      |       11497 |
|     134 | 0x009E      |         158 |
|     135 | 0x0082      |         130 |
|     136 | 0x2CE6      |       11494 |
|     137 | 0x2CE7      |       11495 |
|     138 | 0x011C      |         284 |
|     139 | 0x0110      |         272 |
|     140 | 0x0116      |         278 |
|     141 | 0x0045      |          69 |
|     142 | 0x2CBC      |       11452 |
|     143 | 0x2CBD      |       11453 |
|     144 | 0x0083      |         131 |
|     145 | 0x2CE2      |       11490 |
|     146 | 0x2CE3      |       11491 |
|     147 | 0x2CE4      |       11492 |
|     148 | 0x2CE5      |       11493 |
|     149 | 0x132D4     |       78548 |
|     150 | 0x0064      |         100 |
|     151 | 0xFFFFB4CF  |  4294948047 |
|     152 | 0x0F3C      |        3900 |
|     153 | 0x2CBE      |       11454 |
|     154 | 0x2CBF      |       11455 |
|     155 | 0x2CC0      |       11456 |
|     156 | 0x2CC1      |       11457 |
|     157 | 0x2CC2      |       11458 |
|     158 | 0x2CC3      |       11459 |
|     159 | 0x2CC4      |       11460 |
|     160 | 0x2CC5      |       11461 |
|     161 | 0x2CC6      |       11462 |
|     162 | 0x2CC7      |       11463 |
|     163 | 0x2CC8      |       11464 |
|     164 | 0x2CC9      |       11465 |
|     165 | 0x2CCA      |       11466 |
|     166 | 0x2CCB      |       11467 |
|     167 | 0x00C7      |         199 |
|     168 | 0x2CCC      |       11468 |
|     169 | 0x2CCD      |       11469 |
|     170 | 0x2CCE      |       11470 |
|     171 | 0x2CCF      |       11471 |
|     172 | 0x2CD0      |       11472 |
|     173 | 0x2CD1      |       11473 |
|     174 | 0x0C18      |        3096 |
|     175 | 0x0800      |        2048 |
|     176 | 0x2CD2      |       11474 |
|     177 | 0x007C      |         124 |
|     178 | 0x2CD3      |       11475 |
|     179 | 0x2CD4      |       11476 |
|     180 | 0x2CD5      |       11477 |
|     181 | 0x2CD6      |       11478 |
|     182 | 0x2CD7      |       11479 |
|     183 | 0x2CD8      |       11480 |
|     184 | 0x2CD9      |       11481 |
|     185 | 0x2CDA      |       11482 |
|     186 | 0x2CDB      |       11483 |
|     187 | 0x2CDC      |       11484 |
|     188 | 0x2CDD      |       11485 |
|     189 | 0x2CDE      |       11486 |
|     190 | 0x2CDF      |       11487 |
|     191 | 0x2CE0      |       11488 |
|     192 | 0x2CE1      |       11489 |

## String References

- **11403**: Who was it? [The Gloom Phantom./The Destiny Destroyers./Zeid.]
- **11413**: What will you talk about? [The Yagudo and Orc conspiracy./The Destiny Destroyers./The "World Eater Egg."]
- **11445**: Will you agree to the request? [Yes, I'll do it./Sorry, I can't help you.]

## Events

### Event 65535

#### Metadata

| Field        | Value     |
|--------------|-----------|
| Entrypoint   | 0x0000    |
| Data Size    | 658 bytes |
| Instructions | 1         |

```
      00 01 02 03 04 05 06 07  08 09 0A 0B 0C 0D 0E 0F
      -- -- -- -- -- -- -- --  -- -- -- -- -- -- -- --
0000: 00 45 00 80 F0 FF FF 7F  F0 FF FF 7F 66 64 69 30  .E..........fdi0
0010: 01 80 55 00 80 F0 FF FF  7F F0 FF FF 7F 66 64 69  ..U..........fdi
0020: 30 1B 45 00 80 F0 FF FF  7F F0 FF FF 7F 66 64 6F  0.E..........fdo
0030: 30 01 80 55 00 80 F0 FF  FF 7F F0 FF FF 7F 66 64  0..U..........fd
0040: 6F 30 1B 45 00 80 F0 FF  FF 7F F0 FF FF 7F 66 64  o0.E..........fd
0050: 69 31 01 80 55 00 80 F0  FF FF 7F F0 FF FF 7F 66  i1..U..........f
0060: 64 69 31 1B 45 00 80 F0  FF FF 7F F0 FF FF 7F 66  di1.E..........f
0070: 64 6F 31 01 80 55 00 80  F0 FF FF 7F F0 FF FF 7F  do1..U..........
0080: 66 64 6F 31 1B 45 02 80  F0 FF FF 7F F0 FF FF 7F  fdo1.E..........
0090: 77 68 69 31 01 80 55 02  80 F0 FF FF 7F F0 FF FF  whi1..U.........
00A0: 7F 77 68 69 31 1B 45 02  80 F0 FF FF 7F F0 FF FF  .whi1.E.........
00B0: 7F 77 68 6F 31 01 80 55  02 80 F0 FF FF 7F F0 FF  .who1..U........
00C0: FF 7F 77 68 6F 31 1B 45  02 80 F0 FF FF 7F F0 FF  ..who1.E........
00D0: FF 7F 77 68 6F 32 01 80  55 02 80 F0 FF FF 7F F0  ..who2..U.......
00E0: FF FF 7F 77 68 6F 32 1B  45 02 80 F0 FF FF 7F F0  ...who2.E.......
00F0: FF FF 7F 77 68 6F 33 01  80 55 02 80 F0 FF FF 7F  ...who3..U......
0100: F0 FF FF 7F 77 68 6F 33  1B 62 03 80 F0 FF FF 7F  ....who3.b......
0110: F0 FF FF 7F 6D 61 69 6E  01 80 1C 04 80 45 00 80  ....main.....E..
0120: F0 FF FF 7F F0 FF FF 7F  66 64 6F 31 01 80 55 00  ........fdo1..U.
0130: 80 F0 FF FF 7F F0 FF FF  7F 66 64 6F 31 1B 45 00  .........fdo1.E.
0140: 80 F0 FF FF 7F F0 FF FF  7F 66 64 69 31 01 80 62  .........fdi1..b
0150: 05 80 F0 FF FF 7F F0 FF  FF 7F 6D 61 69 6E 01 80  ..........main..
0160: 1C 06 80 55 00 80 F0 FF  FF 7F F0 FF FF 7F 66 64  ...U..........fd
0170: 69 31 1B 45 00 80 F0 FF  FF 7F F0 FF FF 7F 62 6C  i1.E..........bl
0180: 6F 6E 01 80 45 02 80 F0  FF FF 7F F0 FF FF 7F 62  on..E..........b
0190: 6C 6F 6E 01 80 1B 45 02  80 F0 FF FF 7F F0 FF FF  lon...E.........
01A0: 7F 77 68 69 30 01 80 55  02 80 F0 FF FF 7F F0 FF  .whi0..U........
01B0: FF 7F 77 68 69 30 1B 45  02 80 F0 FF FF 7F F0 FF  ..whi0.E........
01C0: FF 7F 77 68 6F 30 01 80  55 02 80 F0 FF FF 7F F0  ..who0..U.......
01D0: FF FF 7F 77 68 6F 30 1B  45 07 80 F0 FF FF 7F F0  ...who0.E.......
01E0: FF FF 7F 65 66 6F 6E 01  80 55 07 80 F0 FF FF 7F  ...efon..U......
01F0: F0 FF FF 7F 65 66 6F 6E  1B 45 00 80 F0 FF FF 7F  ....efon.E......
0200: F0 FF FF 7F 66 64 69 73  01 80 1B 45 00 80 F0 FF  ....fdis...E....
0210: FF 7F F0 FF FF 7F 66 64  6F 73 01 80 55 00 80 F0  ......fdos..U...
0220: FF FF 7F F0 FF FF 7F 66  64 6F 73 1B 45 00 80 F0  .......fdos.E...
0230: FF FF 7F F0 FF FF 7F 66  64 69 66 01 80 1B 45 00  .......fdif...E.
0240: 80 F0 FF FF 7F F0 FF FF  7F 66 64 6F 66 01 80 55  .........fdof..U
0250: 00 80 F0 FF FF 7F F0 FF  FF 7F 66 64 6F 66 1B 45  ..........fdof.E
0260: 00 80 F0 FF FF 7F F0 FF  FF 7F 66 64 69 70 01 80  ..........fdip..
0270: 1B 45 00 80 F0 FF FF 7F  F0 FF FF 7F 66 64 6F 70  .E..........fdop
0280: 01 80 55 00 80 F0 FF FF  7F F0 FF FF 7F 66 64 6F  ..U..........fdo
0290: 70 1B                                             p.              
```

#### Opcodes

```
  0: 0x0000 [0x00] END_REQSTACK()
```

#### Data or dead code:

```
# Dead code (unreachable instructions):
     0x0001 [0x45] LOAD_SCHEDULED_TASK: Load scheduler "fdi0" with entities [LocalPlayer, LocalPlayer], work=[200*, 0*]
     0x0012 [0x55] WAIT_LOAD_SCHEDULER: Wait for scheduler "fdi0" with entities [LocalPlayer, LocalPlayer], work=200*
     0x0021 [0x1B] RETURN
     0x0022 [0x45] LOAD_SCHEDULED_TASK: Load scheduler "fdo0" with entities [LocalPlayer, LocalPlayer], work=[200*, 0*]
     0x0033 [0x55] WAIT_LOAD_SCHEDULER: Wait for scheduler "fdo0" with entities [LocalPlayer, LocalPlayer], work=200*
     0x0042 [0x1B] RETURN
     0x0043 [0x45] LOAD_SCHEDULED_TASK: Load scheduler "fdi1" with entities [LocalPlayer, LocalPlayer], work=[200*, 0*]
     0x0054 [0x55] WAIT_LOAD_SCHEDULER: Wait for scheduler "fdi1" with entities [LocalPlayer, LocalPlayer], work=200*
     0x0063 [0x1B] RETURN
     0x0064 [0x45] LOAD_SCHEDULED_TASK: Load scheduler "fdo1" with entities [LocalPlayer, LocalPlayer], work=[200*, 0*]
     0x0075 [0x55] WAIT_LOAD_SCHEDULER: Wait for scheduler "fdo1" with entities [LocalPlayer, LocalPlayer], work=200*
     0x0084 [0x1B] RETURN
     0x0085 [0x45] LOAD_SCHEDULED_TASK: Load scheduler "whi1" with entities [LocalPlayer, LocalPlayer], work=[201*, 0*]
     0x0096 [0x55] WAIT_LOAD_SCHEDULER: Wait for scheduler "whi1" with entities [LocalPlayer, LocalPlayer], work=201*
     0x00A5 [0x1B] RETURN
     0x00A6 [0x45] LOAD_SCHEDULED_TASK: Load scheduler "who1" with entities [LocalPlayer, LocalPlayer], work=[201*, 0*]
     0x00B7 [0x55] WAIT_LOAD_SCHEDULER: Wait for scheduler "who1" with entities [LocalPlayer, LocalPlayer], work=201*
     0x00C6 [0x1B] RETURN
     0x00C7 [0x45] LOAD_SCHEDULED_TASK: Load scheduler "who2" with entities [LocalPlayer, LocalPlayer], work=[201*, 0*]
     0x00D8 [0x55] WAIT_LOAD_SCHEDULER: Wait for scheduler "who2" with entities [LocalPlayer, LocalPlayer], work=201*
     0x00E7 [0x1B] RETURN
     0x00E8 [0x45] LOAD_SCHEDULED_TASK: Load scheduler "who3" with entities [LocalPlayer, LocalPlayer], work=[201*, 0*]
     0x00F9 [0x55] WAIT_LOAD_SCHEDULER: Wait for scheduler "who3" with entities [LocalPlayer, LocalPlayer], work=201*
     0x0108 [0x1B] RETURN
     0x0109 [0x62] LOAD_EVENT_SCHEDULER: Load scheduler "main" with entities [LocalPlayer, LocalPlayer], work=[1*, 0*]
     0x011A [0x1C] WAIT(45* ticks)
     0x011D [0x45] LOAD_SCHEDULED_TASK: Load scheduler "fdo1" with entities [LocalPlayer, LocalPlayer], work=[200*, 0*]
     0x012E [0x55] WAIT_LOAD_SCHEDULER: Wait for scheduler "fdo1" with entities [LocalPlayer, LocalPlayer], work=200*
     0x013D [0x1B] RETURN
     0x013E [0x45] LOAD_SCHEDULED_TASK: Load scheduler "fdi1" with entities [LocalPlayer, LocalPlayer], work=[200*, 0*]
     0x014F [0x62] LOAD_EVENT_SCHEDULER: Load scheduler "main" with entities [LocalPlayer, LocalPlayer], work=[2*, 0*]
     0x0160 [0x1C] WAIT(30* ticks)
     0x0163 [0x55] WAIT_LOAD_SCHEDULER: Wait for scheduler "fdi1" with entities [LocalPlayer, LocalPlayer], work=200*
     0x0172 [0x1B] RETURN
     0x0173 [0x45] LOAD_SCHEDULED_TASK: Load scheduler "blon" with entities [LocalPlayer, LocalPlayer], work=[200*, 0*]
     0x0184 [0x45] LOAD_SCHEDULED_TASK: Load scheduler "blon" with entities [LocalPlayer, LocalPlayer], work=[201*, 0*]
     0x0195 [0x1B] RETURN
     0x0196 [0x45] LOAD_SCHEDULED_TASK: Load scheduler "whi0" with entities [LocalPlayer, LocalPlayer], work=[201*, 0*]
     0x01A7 [0x55] WAIT_LOAD_SCHEDULER: Wait for scheduler "whi0" with entities [LocalPlayer, LocalPlayer], work=201*
     0x01B6 [0x1B] RETURN
     0x01B7 [0x45] LOAD_SCHEDULED_TASK: Load scheduler "who0" with entities [LocalPlayer, LocalPlayer], work=[201*, 0*]
     0x01C8 [0x55] WAIT_LOAD_SCHEDULER: Wait for scheduler "who0" with entities [LocalPlayer, LocalPlayer], work=201*
     0x01D7 [0x1B] RETURN
     0x01D8 [0x45] LOAD_SCHEDULED_TASK: Load scheduler "efon" with entities [LocalPlayer, LocalPlayer], work=[215*, 0*]
     0x01E9 [0x55] WAIT_LOAD_SCHEDULER: Wait for scheduler "efon" with entities [LocalPlayer, LocalPlayer], work=215*
     0x01F8 [0x1B] RETURN
     0x01F9 [0x45] LOAD_SCHEDULED_TASK: Load scheduler "fdis" with entities [LocalPlayer, LocalPlayer], work=[200*, 0*]
     0x020A [0x1B] RETURN
     0x020B [0x45] LOAD_SCHEDULED_TASK: Load scheduler "fdos" with entities [LocalPlayer, LocalPlayer], work=[200*, 0*]
     0x021C [0x55] WAIT_LOAD_SCHEDULER: Wait for scheduler "fdos" with entities [LocalPlayer, LocalPlayer], work=200*
     0x022B [0x1B] RETURN
     0x022C [0x45] LOAD_SCHEDULED_TASK: Load scheduler "fdif" with entities [LocalPlayer, LocalPlayer], work=[200*, 0*]
     0x023D [0x1B] RETURN
     0x023E [0x45] LOAD_SCHEDULED_TASK: Load scheduler "fdof" with entities [LocalPlayer, LocalPlayer], work=[200*, 0*]
     0x024F [0x55] WAIT_LOAD_SCHEDULER: Wait for scheduler "fdof" with entities [LocalPlayer, LocalPlayer], work=200*
     0x025E [0x1B] RETURN
     0x025F [0x45] LOAD_SCHEDULED_TASK: Load scheduler "fdip" with entities [LocalPlayer, LocalPlayer], work=[200*, 0*]
     0x0270 [0x1B] RETURN
     0x0271 [0x45] LOAD_SCHEDULED_TASK: Load scheduler "fdop" with entities [LocalPlayer, LocalPlayer], work=[200*, 0*]
     0x0282 [0x55] WAIT_LOAD_SCHEDULER: Wait for scheduler "fdop" with entities [LocalPlayer, LocalPlayer], work=200*
     0x0291 [0x1B] RETURN
```

### Event 1045

#### Metadata

| Field        | Value    |
|--------------|----------|
| Entrypoint   | 0x0292   |
| Data Size    | 93 bytes |
| Instructions | 15       |

```
      00 01 02 03 04 05 06 07  08 09 0A 0B 0C 0D 0E 0F
      -- -- -- -- -- -- -- --  -- -- -- -- -- -- -- --
0290:       4A 2D D0 0E 01 F0  FF FF 7F 6F 76 2D D0 0E    J-.......ov-..
02A0: 01 4A F0 FF FF 7F 2D D0  0E 01 66 08 80 2D D0 0E  .J....-...f..-..
02B0: 01 2D D0 0E 01 74 68 6B  31 2B 2D D0 0E 01 09 80  .-...thk1+-.....
02C0: 23 2B 2D D0 0E 01 0A 80  23 53 2D D0 0E 01 2D D0  #+-.....#S-...-.
02D0: 0E 01 74 68 6B 31 66 08  80 2D D0 0E 01 2D D0 0E  ..thk1f..-...-..
02E0: 01 74 68 6B 32 2B 2D D0  0E 01 0B 80 23 21 00     .thk2+-.....#!. 
```

#### Opcodes

```
  0: 0x0292 [0x4A] Naji (ID: 17748013/0x010ED02D) looks at LocalPlayer
  1: 0x029B [0x6F] WAIT_FRAME_DELAY: Yield until WaitTime reaches zero
  2: 0x029C [0x76] CHECK_ENTITY_RENDER_FLAGS: Wait until Naji (ID: 17748013/0x010ED02D) Render.Flags0 and Render.Flags3 conditions are met
  3: 0x02A1 [0x4A] LocalPlayer looks at Naji (ID: 17748013/0x010ED02D)
  4: 0x02AA [0x66] LOAD_EXT_SCHEDULER_MAIN: Load scheduler "thk1" with entities [Naji (ID: 17748013/0x010ED02D), Naji (ID: 17748013/0x010ED02D)], work=9*
  5: 0x02B9 [0x2B] Naji (ID: 17748013/0x010ED02D) [11378*]:
    → "How!? How did I not place first? If there's one thing I know, it's how to get my outfit perfect..."
  6: 0x02C0 [0x23] WAIT_FOR_DIALOG_INTERACTION
  7: 0x02C1 [0x2B] Naji (ID: 17748013/0x010ED02D) [11379*]:
    → "And now I've got to track down a Goblin...ugh."
  8: 0x02C8 [0x23] WAIT_FOR_DIALOG_INTERACTION
  9: 0x02C9 [0x53] WAIT_SCHEDULER_TASK: Wait for scheduler "thk1" with entities [Naji (ID: 17748013/0x010ED02D), Naji (ID: 17748013/0x010ED02D)]
 10: 0x02D6 [0x66] LOAD_EXT_SCHEDULER_MAIN: Load scheduler "thk2" with entities [Naji (ID: 17748013/0x010ED02D), Naji (ID: 17748013/0x010ED02D)], work=9*
 11: 0x02E5 [0x2B] Naji (ID: 17748013/0x010ED02D) [11380*]:
    → "Hang on... Maybe that's the key. Maybe I should have gone dressed in all black. <Grumble, grumble>"
 12: 0x02EC [0x23] WAIT_FOR_DIALOG_INTERACTION
 13: 0x02ED [0x21] END_EVENT
 14: 0x02EE [0x00] END_REQSTACK()
```

### Event 1046

#### Metadata

| Field        | Value     |
|--------------|-----------|
| Entrypoint   | 0x02EF    |
| Data Size    | 129 bytes |
| Instructions | 19        |

```
      00 01 02 03 04 05 06 07  08 09 0A 0B 0C 0D 0E 0F
      -- -- -- -- -- -- -- --  -- -- -- -- -- -- -- --
02E0:                                               4A                 J
02F0: 2D D0 0E 01 F0 FF FF 7F  6F 76 2D D0 0E 01 4A F0  -.......ov-...J.
0300: FF FF 7F 2D D0 0E 01 66  08 80 2D D0 0E 01 2D D0  ...-...f..-...-.
0310: 0E 01 74 6C 6B 30 2B 2D  D0 0E 01 0C 80 23 53 2D  ..tlk0+-.....#S-
0320: D0 0E 01 2D D0 0E 01 74  6C 6B 30 66 08 80 2D D0  ...-...tlk0f..-.
0330: 0E 01 2D D0 0E 01 74 6C  6B 31 2B 2D D0 0E 01 0D  ..-...tlk1+-....
0340: 80 23 53 2D D0 0E 01 2D  D0 0E 01 74 6C 6B 31 66  .#S-...-...tlk1f
0350: 08 80 2D D0 0E 01 2D D0  0E 01 74 68 6B 31 2B 2D  ..-...-...thk1+-
0360: D0 0E 01 0E 80 23 2B 2D  D0 0E 01 0F 80 23 21 00  .....#+-.....#!.
```

#### Opcodes

```
  0: 0x02EF [0x4A] Naji (ID: 17748013/0x010ED02D) looks at LocalPlayer
  1: 0x02F8 [0x6F] WAIT_FRAME_DELAY: Yield until WaitTime reaches zero
  2: 0x02F9 [0x76] CHECK_ENTITY_RENDER_FLAGS: Wait until Naji (ID: 17748013/0x010ED02D) Render.Flags0 and Render.Flags3 conditions are met
  3: 0x02FE [0x4A] LocalPlayer looks at Naji (ID: 17748013/0x010ED02D)
  4: 0x0307 [0x66] LOAD_EXT_SCHEDULER_MAIN: Load scheduler "tlk0" with entities [Naji (ID: 17748013/0x010ED02D), Naji (ID: 17748013/0x010ED02D)], work=9*
  5: 0x0316 [0x2B] Naji (ID: 17748013/0x010ED02D) [11381*]:
    → "Ugh...those three fiends are sneakier than they look. I lost sight of them for one second and completely lost the trail."
  6: 0x031D [0x23] WAIT_FOR_DIALOG_INTERACTION
  7: 0x031E [0x53] WAIT_SCHEDULER_TASK: Wait for scheduler "tlk0" with entities [Naji (ID: 17748013/0x010ED02D), Naji (ID: 17748013/0x010ED02D)]
  8: 0x032B [0x66] LOAD_EXT_SCHEDULER_MAIN: Load scheduler "tlk1" with entities [Naji (ID: 17748013/0x010ED02D), Naji (ID: 17748013/0x010ED02D)], work=9*
  9: 0x033A [0x2B] Naji (ID: 17748013/0x010ED02D) [11382*]:
    → "I did see an eggshell lying on the ground, though, and figured it may have been the one Raebrimm gave them..."
 10: 0x0341 [0x23] WAIT_FOR_DIALOG_INTERACTION
 11: 0x0342 [0x53] WAIT_SCHEDULER_TASK: Wait for scheduler "tlk1" with entities [Naji (ID: 17748013/0x010ED02D), Naji (ID: 17748013/0x010ED02D)]
 12: 0x034F [0x66] LOAD_EXT_SCHEDULER_MAIN: Load scheduler "thk1" with entities [Naji (ID: 17748013/0x010ED02D), Naji (ID: 17748013/0x010ED02D)], work=9*
 13: 0x035E [0x2B] Naji (ID: 17748013/0x010ED02D) [11383*]:
    → "But it was just an ordinary eggshell."
 14: 0x0365 [0x23] WAIT_FOR_DIALOG_INTERACTION
 15: 0x0366 [0x2B] Naji (ID: 17748013/0x010ED02D) [11384*]:
    → "Great. What am I supposed to tell Iron Eater?"
 16: 0x036D [0x23] WAIT_FOR_DIALOG_INTERACTION
 17: 0x036E [0x21] END_EVENT
 18: 0x036F [0x00] END_REQSTACK()
```

### Event 1049

#### Metadata

| Field        | Value    |
|--------------|----------|
| Entrypoint   | 0x0370   |
| Data Size    | 56 bytes |
| Instructions | 11       |

```
      00 01 02 03 04 05 06 07  08 09 0A 0B 0C 0D 0E 0F
      -- -- -- -- -- -- -- --  -- -- -- -- -- -- -- --
0370: 4A 2D D0 0E 01 F0 FF FF  7F 6F 76 2D D0 0E 01 02  J-.......ov-....
0380: 02 10 10 80 00 A6 03 66  08 80 2D D0 0E 01 2D D0  .......f..-...-.
0390: 0E 01 74 77 61 30 2B 2D  D0 0E 01 11 80 23 2B 2D  ..twa0+-.....#+-
03A0: D0 0E 01 12 80 23 21 00                           .....#!.        
```

#### Opcodes

```
  0: 0x0370 [0x4A] Naji (ID: 17748013/0x010ED02D) looks at LocalPlayer
  1: 0x0379 [0x6F] WAIT_FRAME_DELAY: Yield until WaitTime reaches zero
  2: 0x037A [0x76] CHECK_ENTITY_RENDER_FLAGS: Wait until Naji (ID: 17748013/0x010ED02D) Render.Flags0 and Render.Flags3 conditions are met
  3: 0x037F [0x02] IF !(Work_Zone[2] == 270*) GOTO 0x03A6
  4: 0x0387 [0x66] LOAD_EXT_SCHEDULER_MAIN: Load scheduler "twa0" with entities [Naji (ID: 17748013/0x010ED02D), Naji (ID: 17748013/0x010ED02D)], work=9*
  5: 0x0396 [0x2B] Naji (ID: 17748013/0x010ED02D) [11385*]:
    → "You needn't worry. I tended to the wounds of those injured in the mines."
  6: 0x039D [0x23] WAIT_FOR_DIALOG_INTERACTION
  7: 0x039E [0x2B] Naji (ID: 17748013/0x010ED02D) [11386*]:
    → "As a musketeer, I'm well-trained in the art of healing. Plus, I've had more than my fair share of injuries over the years, which has given me plenty of practice in the field."
  8: 0x03A5 [0x23] WAIT_FOR_DIALOG_INTERACTION
  9: 0x03A6 [0x21] END_EVENT
 10: 0x03A7 [0x00] END_REQSTACK()
```

### Event 1050

#### Metadata

| Field        | Value    |
|--------------|----------|
| Entrypoint   | 0x03A8   |
| Data Size    | 84 bytes |
| Instructions | 13       |

```
      00 01 02 03 04 05 06 07  08 09 0A 0B 0C 0D 0E 0F
      -- -- -- -- -- -- -- --  -- -- -- -- -- -- -- --
03A0:                          4A 2F D0 0E 01 F0 FF FF          J/......
03B0: 7F 6F 76 2F D0 0E 01 02  02 10 10 80 00 FA 03 66  .ov/...........f
03C0: 13 80 2F D0 0E 01 2F D0  0E 01 74 68 6B 31 2B 2F  ../.../...thk1+/
03D0: D0 0E 01 14 80 23 53 2F  D0 0E 01 2F D0 0E 01 74  .....#S/.../...t
03E0: 68 6B 31 66 13 80 2F D0  0E 01 2F D0 0E 01 74 68  hk1f../.../...th
03F0: 6B 32 2B 2F D0 0E 01 15  80 23 21 00              k2+/.....#!.    
```

#### Opcodes

```
  0: 0x03A8 [0x4A] Ayame (ID: 17748015/0x010ED02F) looks at LocalPlayer
  1: 0x03B1 [0x6F] WAIT_FRAME_DELAY: Yield until WaitTime reaches zero
  2: 0x03B2 [0x76] CHECK_ENTITY_RENDER_FLAGS: Wait until Ayame (ID: 17748015/0x010ED02F) Render.Flags0 and Render.Flags3 conditions are met
  3: 0x03B7 [0x02] IF !(Work_Zone[2] == 270*) GOTO 0x03FA
  4: 0x03BF [0x66] LOAD_EXT_SCHEDULER_MAIN: Load scheduler "thk1" with entities [Ayame (ID: 17748015/0x010ED02F), Ayame (ID: 17748015/0x010ED02F)], work=19*
  5: 0x03CE [0x2B] Ayame (ID: 17748015/0x010ED02F) [11387*]:
    → "I heard from Lady Cornelia and the people who saw the Quadav. It seems the Quadav were searching for something."
  6: 0x03D5 [0x23] WAIT_FOR_DIALOG_INTERACTION
  7: 0x03D6 [0x53] WAIT_SCHEDULER_TASK: Wait for scheduler "thk1" with entities [Ayame (ID: 17748015/0x010ED02F), Ayame (ID: 17748015/0x010ED02F)]
  8: 0x03E3 [0x66] LOAD_EXT_SCHEDULER_MAIN: Load scheduler "thk2" with entities [Ayame (ID: 17748015/0x010ED02F), Ayame (ID: 17748015/0x010ED02F)], work=19*
  9: 0x03F2 [0x2B] Ayame (ID: 17748015/0x010ED02F) [11388*]:
    → "At any rate, I'm glad no real harm came to the Zeruhn Mines or the people working them."
 10: 0x03F9 [0x23] WAIT_FOR_DIALOG_INTERACTION
 11: 0x03FA [0x21] END_EVENT
 12: 0x03FB [0x00] END_REQSTACK()
```

### Event 1051

#### Metadata

| Field        | Value      |
|--------------|------------|
| Entrypoint   | 0x03FC     |
| Data Size    | 8914 bytes |
| Instructions | 1132       |

```
      00 01 02 03 04 05 06 07  08 09 0A 0B 0C 0D 0E 0F
      -- -- -- -- -- -- -- --  -- -- -- -- -- -- -- --
03F0:                                      42 5D 01 80              B]..
0400: 16 80 1A 64 00 46 01 38  17 80 75 00 18 80 75 01  ...d.F.8..u...u.
0410: 2F 00 30 D0 0E 01 2F 00  2E D0 0E 01 2F 00 32 D0  /.0.../...../.2.
0420: 0E 01 4E 00 30 D0 0E 01  4E 00 2E D0 0E 01 4E 00  ..N.0...N.....N.
0430: 32 D0 0E 01 92 01 30 D0  0E 01 94 01 30 D0 0E 01  2.....0.....0...
0440: 94 01 2E D0 0E 01 94 01  32 D0 0E 01 94 01 F0 FF  ........2.......
0450: FF 7F BA 30 D0 0E 01 19  80 1A 80 1B 80 1C 80 BA  ...0............
0460: 2E D0 0E 01 1D 80 1E 80  1B 80 1F 80 29 10 32 D0  ............).2.
0470: 0E 01 71 BA 32 D0 0E 01  20 80 21 80 22 80 23 80  ..q.2... .!.".#.
0480: 29 10 32 D0 0E 01 71 BA  F0 FF FF 7F 24 80 25 80  ).2...q.....$.%.
0490: 1B 80 26 80 80 30 D0 0E  01 80 2E D0 0E 01 80 32  ..&..0.........2
04A0: D0 0E 01 80 F0 FF FF 7F  79 00 30 D0 0E 01 F0 FF  ........y.0.....
04B0: FF 7F 4A F0 FF FF 7F 30  D0 0E 01 6F 76 F0 FF FF  ..J....0...ov...
04C0: 7F 29 0F F0 FF FF 7F 5D  6C 2E D0 0E 01 01 80 03  .).....]l.......
04D0: 80 27 08 30 D0 0E 01 49  02 09 10 27 80 00 F4 04  .'.0...I...'....
04E0: 45 28 80 F8 FF FF 7F F8  FF FF 7F 73 30 30 30 01  E(.........s000.
04F0: 80 01 59 05 02 09 10 29  80 00 10 05 45 28 80 F8  ..Y....)....E(..
0500: FF FF 7F F8 FF FF 7F 73  30 35 33 01 80 01 59 05  .......s053...Y.
0510: 02 09 10 2A 80 00 2C 05  45 28 80 F8 FF FF 7F F8  ...*..,.E(......
0520: FF FF 7F 73 30 35 33 01  80 01 59 05 02 09 10 2B  ...s053...Y....+
0530: 80 00 48 05 45 28 80 F8  FF FF 7F F8 FF FF 7F 73  ..H.E(.........s
0540: 30 30 30 01 80 01 59 05  45 28 80 F8 FF FF 7F F8  000...Y.E(......
0550: FF FF 7F 73 30 37 31 01  80 1A 43 00 2B 30 D0 0E  ...s071...C.+0..
0560: 01 2C 80 23 29 08 56 D0  0E 01 05 1C 06 80 79 00  .,.#).V.......y.
0570: F0 FF FF 7F 32 D0 0E 01  27 08 32 D0 0E 01 33 1C  ....2...'.2...3.
0580: 06 80 2A 08 30 D0 0E 01  02 09 10 27 80 00 A2 05  ..*.0......'....
0590: 52 28 80 F8 FF FF 7F F8  FF FF 7F 73 30 30 30 01  R(.........s000.
05A0: FF 05 02 09 10 29 80 00  BC 05 52 28 80 F8 FF FF  .....)....R(....
05B0: 7F F8 FF FF 7F 73 30 35  33 01 FF 05 02 09 10 2A  .....s053......*
05C0: 80 00 D6 05 52 28 80 F8  FF FF 7F F8 FF FF 7F 73  ....R(.........s
05D0: 30 35 33 01 FF 05 02 09  10 2B 80 00 F0 05 52 28  053......+....R(
05E0: 80 F8 FF FF 7F F8 FF FF  7F 73 30 30 30 01 FF 05  .........s000...
05F0: 52 28 80 F8 FF FF 7F F8  FF FF 7F 73 30 37 31 45  R(.........s071E
0600: 28 80 F8 FF FF 7F F8 FF  FF 7F 73 30 30 31 01 80  (.........s001..
0610: 79 00 32 D0 0E 01 30 D0  0E 01 4A 30 D0 0E 01 32  y.2...0...J0...2
0620: D0 0E 01 6F 76 30 D0 0E  01 2A 08 32 D0 0E 01 4A  ...ov0...*.2...J
0630: F0 FF FF 7F 32 D0 0E 01  2B 32 D0 0E 01 2D 80 23  ....2...+2...-.#
0640: 6F 76 F0 FF FF 7F 27 08  32 D0 0E 01 34 1C 2E 80  ov....'.2...4...
0650: 52 28 80 F8 FF FF 7F F8  FF FF 7F 73 30 30 31 45  R(.........s001E
0660: 28 80 F8 FF FF 7F F8 FF  FF 7F 73 30 30 32 01 80  (.........s002..
0670: 29 08 56 D0 0E 01 06 2B  32 D0 0E 01 2F 80 1C 30  ).V....+2.../..0
0680: 80 52 28 80 F8 FF FF 7F  F8 FF FF 7F 73 30 30 32  .R(.........s002
0690: 45 28 80 F8 FF FF 7F F8  FF FF 7F 73 30 30 33 01  E(.........s003.
06A0: 80 23 2A 08 32 D0 0E 01  5C 00 31 80 5C 01 31 80  .#*.2...\.1.\.1.
06B0: 9A 5D 32 80 03 80 52 28  80 F8 FF FF 7F F8 FF FF  .]2...R(........
06C0: 7F 73 30 30 33 45 28 80  F8 FF FF 7F F8 FF FF 7F  .s003E(.........
06D0: 73 30 30 34 01 80 4A 32  D0 0E 01 30 D0 0E 01 6F  s004..J2...0...o
06E0: 76 32 D0 0E 01 4A F0 FF  FF 7F 32 D0 0E 01 29 08  v2...J....2...).
06F0: 32 D0 0E 01 39 2B 32 D0  0E 01 33 80 23 29 08 32  2...9+2...3.#).2
0700: D0 0E 01 3A 29 08 32 D0  0E 01 3B 29 08 30 D0 0E  ...:).2...;).0..
0710: 01 34 2B 30 D0 0E 01 34  80 23 29 08 30 D0 0E 01  .4+0...4.#).0...
0720: 35 29 08 32 D0 0E 01 3C  6F 76 F0 FF FF 7F 29 08  5).2...<ov....).
0730: 32 D0 0E 01 3D 1C 2B 80  52 28 80 F8 FF FF 7F F8  2...=.+.R(......
0740: FF FF 7F 73 30 30 34 45  28 80 F8 FF FF 7F F8 FF  ...s004E(.......
0750: FF 7F 73 30 30 35 01 80  29 08 30 D0 0E 01 36 2B  ..s005..).0...6+
0760: 32 D0 0E 01 35 80 23 29  08 32 D0 0E 01 3E 29 08  2...5.#).2...>).
0770: 30 D0 0E 01 37 52 28 80  F8 FF FF 7F F8 FF FF 7F  0...7R(.........
0780: 73 30 30 35 02 09 10 29  80 00 A0 07 45 28 80 F8  s005...)....E(..
0790: FF FF 7F F8 FF FF 7F 73  30 35 34 01 80 01 CD 07  .......s054.....
07A0: 02 09 10 2A 80 00 BC 07  45 28 80 F8 FF FF 7F F8  ...*....E(......
07B0: FF FF 7F 73 30 35 34 01  80 01 CD 07 45 28 80 F8  ...s054.....E(..
07C0: FF FF 7F F8 FF FF 7F 73  30 30 36 01 80 29 08 32  .......s006..).2
07D0: D0 0E 01 3F 29 08 32 D0  0E 01 40 4A 32 D0 0E 01  ...?).2...@J2...
07E0: F0 FF FF 7F 6F 76 32 D0  0E 01 79 00 30 D0 0E 01  ....ov2...y.0...
07F0: F0 FF FF 7F 2B 32 D0 0E  01 36 80 1C 37 80 4B 30  ....+2...6..7.K0
0800: D0 0E 01 38 80 6F 76 30  D0 0E 01 23 6E F0 FF FF  ...8.ov0...#n...
0810: 7F 2A 80 99 F0 FF FF 7F  1C 30 80 02 09 10 29 80  .*.......0....).
0820: 00 35 08 52 28 80 F8 FF  FF 7F F8 FF FF 7F 73 30  .5.R(.........s0
0830: 35 34 01 5E 08 02 09 10  2A 80 00 4F 08 52 28 80  54.^....*..O.R(.
0840: F8 FF FF 7F F8 FF FF 7F  73 30 35 34 01 5E 08 52  ........s054.^.R
0850: 28 80 F8 FF FF 7F F8 FF  FF 7F 73 30 30 36 02 09  (.........s006..
0860: 10 29 80 00 7A 08 45 28  80 F8 FF FF 7F F8 FF FF  .)..z.E(........
0870: 7F 73 30 35 35 01 80 01  A7 08 02 09 10 2A 80 00  .s055........*..
0880: 96 08 45 28 80 F8 FF FF  7F F8 FF FF 7F 73 30 35  ..E(.........s05
0890: 35 01 80 01 A7 08 45 28  80 F8 FF FF 7F F8 FF FF  5.....E(........
08A0: 7F 73 30 30 38 01 80 7B  F0 FF FF 7F 29 08 32 D0  .s008..{....).2.
08B0: 0E 01 39 2B 32 D0 0E 01  39 80 23 29 08 32 D0 0E  ..9+2...9.#).2..
08C0: 01 3A 02 09 10 29 80 00  DC 08 52 28 80 F8 FF FF  .:...)....R(....
08D0: 7F F8 FF FF 7F 73 30 35  35 01 05 09 02 09 10 2A  .....s055......*
08E0: 80 00 F6 08 52 28 80 F8  FF FF 7F F8 FF FF 7F 73  ....R(.........s
08F0: 30 35 35 01 05 09 52 28  80 F8 FF FF 7F F8 FF FF  055...R(........
0900: 7F 73 30 30 38 6C 2E D0  0E 01 3A 80 03 80 45 28  .s008l....:...E(
0910: 80 F8 FF FF 7F F8 FF FF  7F 73 30 30 37 01 80 27  .........s007..'
0920: 08 2E D0 0E 01 25 79 00  32 D0 0E 01 2E D0 0E 01  .....%y.2.......
0930: 2B 2E D0 0E 01 3B 80 1C  37 80 4B F0 FF FF 7F 3C  +....;..7.K....<
0940: 80 6F 76 F0 FF FF 7F 4A  30 D0 0E 01 2E D0 0E 01  .ov....J0.......
0950: 6F 76 30 D0 0E 01 1C 06  80 52 28 80 F8 FF FF 7F  ov0......R(.....
0960: F8 FF FF 7F 73 30 30 37  45 28 80 F8 FF FF 7F F8  ....s007E(......
0970: FF FF 7F 73 30 30 39 01  80 02 09 10 29 80 00 8E  ...s009.....)...
0980: 09 79 00 F0 FF FF 7F 2E  D0 0E 01 01 BD 09 02 09  .y..............
0990: 10 2A 80 00 A3 09 79 00  F0 FF FF 7F 2E D0 0E 01  .*....y.........
09A0: 01 BD 09 4B F0 FF FF 7F  3D 80 1C 06 80 79 00 F0  ...K....=....y..
09B0: FF FF 7F 2E D0 0E 01 6F  76 F0 FF FF 7F 23 2A 08  .......ov....#*.
09C0: 2E D0 0E 01 4A 30 D0 0E  01 2E D0 0E 01 6F 76 30  ....J0.......ov0
09D0: D0 0E 01 2B 2E D0 0E 01  3E 80 1C 3F 80 52 28 80  ...+....>..?.R(.
09E0: F8 FF FF 7F F8 FF FF 7F  73 30 30 39 02 09 10 29  ........s009...)
09F0: 80 00 08 0A 45 28 80 F8  FF FF 7F F8 FF FF 7F 73  ....E(.........s
0A00: 30 37 30 01 80 01 35 0A  02 09 10 2A 80 00 24 0A  070...5....*..$.
0A10: 45 28 80 F8 FF FF 7F F8  FF FF 7F 73 30 37 30 01  E(.........s070.
0A20: 80 01 35 0A 45 28 80 F8  FF FF 7F F8 FF FF 7F 73  ..5.E(.........s
0A30: 30 31 30 01 80 79 00 2E  D0 0E 01 30 D0 0E 01 23  010..y.....0...#
0A40: 27 08 30 D0 0E 01 3F 1C  40 80 02 09 10 29 80 00  '.0...?.@....)..
0A50: 64 0A 4A F0 FF FF 7F 30  D0 0E 01 6F 76 F0 FF FF  d.J....0...ov...
0A60: 7F 01 88 0A 02 09 10 2A  80 00 7E 0A 4A F0 FF FF  .......*..~.J...
0A70: 7F 30 D0 0E 01 6F 76 F0  FF FF 7F 01 88 0A 79 00  .0...ov.......y.
0A80: F0 FF FF 7F 30 D0 0E 01  2A 08 30 D0 0E 01 02 09  ....0...*.0.....
0A90: 10 29 80 00 A8 0A 52 28  80 F8 FF FF 7F F8 FF FF  .)....R(........
0AA0: 7F 73 30 37 30 01 D1 0A  02 09 10 2A 80 00 C2 0A  .s070......*....
0AB0: 52 28 80 F8 FF FF 7F F8  FF FF 7F 73 30 37 30 01  R(.........s070.
0AC0: D1 0A 52 28 80 F8 FF FF  7F F8 FF FF 7F 73 30 31  ..R(.........s01
0AD0: 30 02 09 10 29 80 00 ED  0A 45 28 80 F8 FF FF 7F  0...)....E(.....
0AE0: F8 FF FF 7F 73 30 35 36  01 80 01 1A 0B 02 09 10  ....s056........
0AF0: 2A 80 00 09 0B 45 28 80  F8 FF FF 7F F8 FF FF 7F  *....E(.........
0B00: 73 30 35 36 01 80 01 1A  0B 45 28 80 F8 FF FF 7F  s056.....E(.....
0B10: F8 FF FF 7F 73 30 31 32  01 80 4A 30 D0 0E 01 F0  ....s012..J0....
0B20: FF FF 7F 6F 76 30 D0 0E  01 79 00 F0 FF FF 7F 30  ...ov0...y.....0
0B30: D0 0E 01 29 08 30 D0 0E  01 34 2B 30 D0 0E 01 41  ...).0...4+0...A
0B40: 80 1C 2E 80 BA 2E D0 0E  01 42 80 43 80 1B 80 44  .........B.C...D
0B50: 80 79 00 2E D0 0E 01 32  D0 0E 01 4B F0 FF FF 7F  .y.....2...K....
0B60: 44 80 7B 32 D0 0E 01 29  08 32 D0 0E 01 43 29 08  D.{2...).2...C).
0B70: 32 D0 0E 01 44 6F 76 F0  FF FF 7F 23 2B 30 D0 0E  2...Dov....#+0..
0B80: 01 45 80 23 29 08 30 D0  0E 01 35 7B 30 D0 0E 01  .E.#).0...5{0...
0B90: 27 08 2E D0 0E 01 26 1C  29 80 02 09 10 29 80 00  '.....&.)....)..
0BA0: B4 0B 52 28 80 F8 FF FF  7F F8 FF FF 7F 73 30 35  ..R(.........s05
0BB0: 36 01 DD 0B 02 09 10 2A  80 00 CE 0B 52 28 80 F8  6......*....R(..
0BC0: FF FF 7F F8 FF FF 7F 73  30 35 36 01 DD 0B 52 28  .......s056...R(
0BD0: 80 F8 FF FF 7F F8 FF FF  7F 73 30 31 32 02 09 10  .........s012...
0BE0: 29 80 00 F9 0B 45 28 80  F8 FF FF 7F F8 FF FF 7F  )....E(.........
0BF0: 73 30 35 37 01 80 01 42  0C 02 09 10 2A 80 00 15  s057...B....*...
0C00: 0C 45 28 80 F8 FF FF 7F  F8 FF FF 7F 73 30 35 37  .E(.........s057
0C10: 01 80 01 42 0C 02 09 10  2B 80 00 31 0C 45 28 80  ...B....+..1.E(.
0C20: F8 FF FF 7F F8 FF FF 7F  73 30 31 31 01 80 01 42  ........s011...B
0C30: 0C 45 28 80 F8 FF FF 7F  F8 FF FF 7F 73 30 38 31  .E(.........s081
0C40: 01 80 29 08 32 D0 0E 01  45 2B 30 D0 0E 01 46 80  ..).2...E+0...F.
0C50: 23 29 08 30 D0 0E 01 36  29 08 32 D0 0E 01 46 27  #).0...6).2...F'
0C60: 08 32 D0 0E 01 35 79 00  30 D0 0E 01 32 D0 0E 01  .2...5y.0...2...
0C70: 79 00 F0 FF FF 7F 32 D0  0E 01 02 09 10 29 80 00  y.....2......)..
0C80: 94 0C 52 28 80 F8 FF FF  7F F8 FF FF 7F 73 30 35  ..R(.........s05
0C90: 37 01 D7 0C 02 09 10 2A  80 00 AE 0C 52 28 80 F8  7......*....R(..
0CA0: FF FF 7F F8 FF FF 7F 73  30 35 37 01 D7 0C 02 09  .......s057.....
0CB0: 10 2B 80 00 C8 0C 52 28  80 F8 FF FF 7F F8 FF FF  .+....R(........
0CC0: 7F 73 30 31 31 01 D7 0C  52 28 80 F8 FF FF 7F F8  .s011...R(......
0CD0: FF FF 7F 73 30 38 31 45  28 80 F8 FF FF 7F F8 FF  ...s081E(.......
0CE0: FF 7F 73 30 31 33 01 80  4A F0 FF FF 7F 32 D0 0E  ..s013..J....2..
0CF0: 01 79 00 32 D0 0E 01 F0  FF FF 7F 4A 2E D0 0E 01  .y.2.......J....
0D00: 32 D0 0E 01 2B 32 D0 0E  01 47 80 23 29 08 30 D0  2...+2...G.#).0.
0D10: 0E 01 37 6F 76 2E D0 0E  01 6F 76 F0 FF FF 7F 2A  ..7ov....ov....*
0D20: 08 32 D0 0E 01 2A 08 2E  D0 0E 01 52 28 80 F8 FF  .2...*.....R(...
0D30: FF 7F F8 FF FF 7F 73 30  31 33 02 09 10 29 80 00  ......s013...)..
0D40: 56 0D 45 28 80 F8 FF FF  7F F8 FF FF 7F 73 30 35  V.E(.........s05
0D50: 38 01 80 01 83 0D 02 09  10 2A 80 00 72 0D 45 28  8........*..r.E(
0D60: 80 F8 FF FF 7F F8 FF FF  7F 73 30 35 38 01 80 01  .........s058...
0D70: 83 0D 45 28 80 F8 FF FF  7F F8 FF FF 7F 73 30 31  ..E(.........s01
0D80: 34 01 80 79 00 32 D0 0E  01 F0 FF FF 7F 24 48 80  4..y.2.......$H.
0D90: 01 80 01 80 25 02 00 10  01 80 00 20 0E 4A 2E D0  ....%...... .J..
0DA0: 0E 01 30 D0 0E 01 29 08  F0 FF FF 7F B3 1C 30 80  ..0...).......0.
0DB0: 29 08 F0 FF FF 7F B4 29  08 32 D0 0E 01 53 2B 32  )......).2...S+2
0DC0: D0 0E 01 49 80 23 29 08  32 D0 0E 01 54 29 08 32  ...I.#).2...T).2
0DD0: D0 0E 01 55 6F 76 2E D0  0E 01 02 09 10 29 80 00  ...Uov.......)..
0DE0: F4 0D 52 28 80 F8 FF FF  7F F8 FF FF 7F 73 30 35  ..R(.........s05
0DF0: 38 01 1D 0E 02 09 10 2A  80 00 0E 0E 52 28 80 F8  8......*....R(..
0E00: FF FF 7F F8 FF FF 7F 73  30 35 38 01 1D 0E 52 28  .......s058...R(
0E10: 80 F8 FF FF 7F F8 FF FF  7F 73 30 31 34 01 6F 0F  .........s014.o.
0E20: 02 00 10 03 80 00 AB 0E  4A 2E D0 0E 01 30 D0 0E  ........J....0..
0E30: 01 29 08 F0 FF FF 7F B3  1C 30 80 29 08 F0 FF FF  .).......0.)....
0E40: 7F B4 29 08 32 D0 0E 01  53 2B 32 D0 0E 01 4A 80  ..).2...S+2...J.
0E50: 23 29 08 32 D0 0E 01 54  29 08 32 D0 0E 01 55 6F  #).2...T).2...Uo
0E60: 76 2E D0 0E 01 02 09 10  29 80 00 7F 0E 52 28 80  v.......)....R(.
0E70: F8 FF FF 7F F8 FF FF 7F  73 30 35 38 01 A8 0E 02  ........s058....
0E80: 09 10 2A 80 00 99 0E 52  28 80 F8 FF FF 7F F8 FF  ..*....R(.......
0E90: FF 7F 73 30 35 38 01 A8  0E 52 28 80 F8 FF FF 7F  ..s058...R(.....
0EA0: F8 FF FF 7F 73 30 31 34  01 6F 0F 02 00 10 05 80  ....s014.o......
0EB0: 00 6F 0F 4A 2E D0 0E 01  30 D0 0E 01 29 08 F0 FF  .o.J....0...)...
0EC0: FF 7F B3 1C 30 80 29 08  F0 FF FF 7F B4 5D 01 80  ....0.)......]..
0ED0: 03 80 29 08 32 D0 0E 01  5B 2B 32 D0 0E 01 4B 80  ..).2...[+2...K.
0EE0: 23 29 08 32 D0 0E 01 5C  02 09 10 29 80 00 02 0F  #).2...\...)....
0EF0: 52 28 80 F8 FF FF 7F F8  FF FF 7F 73 30 35 38 01  R(.........s058.
0F00: 2B 0F 02 09 10 2A 80 00  1C 0F 52 28 80 F8 FF FF  +....*....R(....
0F10: 7F F8 FF FF 7F 73 30 35  38 01 2B 0F 52 28 80 F8  .....s058.+.R(..
0F20: FF FF 7F F8 FF FF 7F 73  30 31 34 45 28 80 F8 FF  .......s014E(...
0F30: FF 7F F8 FF FF 7F 73 30  33 35 01 80 5D 32 80 16  ......s035..]2..
0F40: 80 29 08 32 D0 0E 01 5D  2B 32 D0 0E 01 4C 80 23  .).2...]+2...L.#
0F50: 29 08 32 D0 0E 01 5E 52  28 80 F8 FF FF 7F F8 FF  ).2...^R(.......
0F60: FF 7F 73 30 33 35 6F 76  2E D0 0E 01 01 6F 0F 02  ..s035ov.....o..
0F70: 09 10 29 80 00 8B 0F 45  28 80 F8 FF FF 7F F8 FF  ..)....E(.......
0F80: FF 7F 73 30 35 39 01 80  01 B8 0F 02 09 10 2A 80  ..s059........*.
0F90: 00 A7 0F 45 28 80 F8 FF  FF 7F F8 FF FF 7F 73 30  ...E(.........s0
0FA0: 35 39 01 80 01 B8 0F 45  28 80 F8 FF FF 7F F8 FF  59.....E(.......
0FB0: FF 7F 73 30 31 35 01 80  79 00 30 D0 0E 01 F0 FF  ..s015..y.0.....
0FC0: FF 7F 2B 30 D0 0E 01 4D  80 1C 2E 80 79 00 F0 FF  ..+0...M....y...
0FD0: FF 7F 30 D0 0E 01 79 00  32 D0 0E 01 30 D0 0E 01  ..0...y.2...0...
0FE0: 4B 32 D0 0E 01 4E 80 6F  76 32 D0 0E 01 23 27 08  K2...N.ov2...#'.
0FF0: 30 D0 0E 01 40 2B 30 D0  0E 01 4F 80 23 2A 08 30  0...@+0...O.#*.0
1000: D0 0E 01 02 09 10 29 80  00 1D 10 52 28 80 F8 FF  ......)....R(...
1010: FF 7F F8 FF FF 7F 73 30  35 39 01 46 10 02 09 10  ......s059.F....
1020: 2A 80 00 37 10 52 28 80  F8 FF FF 7F F8 FF FF 7F  *..7.R(.........
1030: 73 30 35 39 01 46 10 52  28 80 F8 FF FF 7F F8 FF  s059.F.R(.......
1040: FF 7F 73 30 31 35 45 28  80 F8 FF FF 7F F8 FF FF  ..s015E(........
1050: 7F 73 30 31 36 01 80 79  00 32 D0 0E 01 30 D0 0E  .s016..y.2...0..
1060: 01 79 00 30 D0 0E 01 32  D0 0E 01 2B 32 D0 0E 01  .y.0...2...+2...
1070: 50 80 23 29 08 30 D0 0E  01 3F 52 28 80 F8 FF FF  P.#).0...?R(....
1080: 7F F8 FF FF 7F 73 30 31  36 45 28 80 F8 FF FF 7F  .....s016E(.....
1090: F8 FF FF 7F 73 30 31 37  01 80 79 00 F0 FF FF 7F  ....s017..y.....
10A0: 32 D0 0E 01 79 00 2E D0  0E 01 32 D0 0E 01 7B 32  2...y.....2...{2
10B0: D0 0E 01 29 08 32 D0 0E  01 43 2B 32 D0 0E 01 51  ...).2...C+2...Q
10C0: 80 23 29 08 32 D0 0E 01  44 29 08 32 D0 0E 01 45  .#).2...D).2...E
10D0: 29 08 32 D0 0E 01 46 52  28 80 F8 FF FF 7F F8 FF  ).2...FR(.......
10E0: FF 7F 73 30 31 37 02 09  10 29 80 00 02 11 45 28  ..s017...)....E(
10F0: 80 F8 FF FF 7F F8 FF FF  7F 73 30 36 30 01 80 01  .........s060...
1100: 2F 11 02 09 10 2A 80 00  1E 11 45 28 80 F8 FF FF  /....*....E(....
1110: 7F F8 FF FF 7F 73 30 36  30 01 80 01 2F 11 45 28  .....s060.../.E(
1120: 80 F8 FF FF 7F F8 FF FF  7F 73 30 31 38 01 80 4A  .........s018..J
1130: 32 D0 0E 01 F0 FF FF 7F  6F 76 32 D0 0E 01 2B 32  2.......ov2...+2
1140: D0 0E 01 52 80 23 02 09  10 29 80 00 60 11 52 28  ...R.#...)..`.R(
1150: 80 F8 FF FF 7F F8 FF FF  7F 73 30 36 30 01 89 11  .........s060...
1160: 02 09 10 2A 80 00 7A 11  52 28 80 F8 FF FF 7F F8  ...*..z.R(......
1170: FF FF 7F 73 30 36 30 01  89 11 52 28 80 F8 FF FF  ...s060...R(....
1180: 7F F8 FF FF 7F 73 30 31  38 02 09 10 05 80 00 A5  .....s018.......
1190: 11 45 28 80 F8 FF FF 7F  F8 FF FF 7F 73 30 37 38  .E(.........s078
11A0: 01 80 01 42 12 02 09 10  27 80 00 C1 11 45 28 80  ...B....'....E(.
11B0: F8 FF FF 7F F8 FF FF 7F  73 30 32 31 01 80 01 42  ........s021...B
11C0: 12 02 09 10 29 80 00 DD  11 45 28 80 F8 FF FF 7F  ....)....E(.....
11D0: F8 FF FF 7F 73 30 36 31  01 80 01 42 12 02 09 10  ....s061...B....
11E0: 2A 80 00 F9 11 45 28 80  F8 FF FF 7F F8 FF FF 7F  *....E(.........
11F0: 73 30 36 31 01 80 01 42  12 02 09 10 53 80 00 15  s061...B....S...
1200: 12 45 28 80 F8 FF FF 7F  F8 FF FF 7F 73 30 37 38  .E(.........s078
1210: 01 80 01 42 12 02 09 10  2B 80 00 31 12 45 28 80  ...B....+..1.E(.
1220: F8 FF FF 7F F8 FF FF 7F  73 30 32 31 01 80 01 42  ........s021...B
1230: 12 45 28 80 F8 FF FF 7F  F8 FF FF 7F 73 30 37 32  .E(.........s072
1240: 01 80 03 01 00 01 80 02  01 00 53 80 01 60 18 24  ..........S..`.$
1250: 54 80 01 80 01 00 25 02  00 10 01 80 00 EB 13 29  T.....%........)
1260: 08 F0 FF FF 7F B3 1C 06  80 1A 64 00 29 08 F0 FF  ..........d.)...
1270: FF 7F B4 02 09 10 27 80  00 8D 12 52 28 80 F8 FF  ......'....R(...
1280: FF 7F F8 FF FF 7F 73 30  32 31 01 EA 12 02 09 10  ......s021......
1290: 29 80 00 A7 12 52 28 80  F8 FF FF 7F F8 FF FF 7F  )....R(.........
12A0: 73 30 36 31 01 EA 12 02  09 10 2A 80 00 C1 12 52  s061......*....R
12B0: 28 80 F8 FF FF 7F F8 FF  FF 7F 73 30 36 31 01 EA  (.........s061..
12C0: 12 02 09 10 2B 80 00 DB  12 52 28 80 F8 FF FF 7F  ....+....R(.....
12D0: F8 FF FF 7F 73 30 32 31  01 EA 12 52 28 80 F8 FF  ....s021...R(...
12E0: FF 7F F8 FF FF 7F 73 30  37 32 79 00 30 D0 0E 01  ......s072y.0...
12F0: F0 FF FF 7F 79 00 32 D0  0E 01 F0 FF FF 7F 4A 2E  ....y.2.......J.
1300: D0 0E 01 F0 FF FF 7F 6F  76 2E D0 0E 01 1C 37 80  .......ov.....7.
1310: 45 28 80 F8 FF FF 7F F8  FF FF 7F 73 30 31 39 01  E(.........s019.
1320: 80 1A 43 00 27 08 30 D0  0E 01 3E 2B 30 D0 0E 01  ..C.'.0...>+0...
1330: 55 80 23 29 08 32 D0 0E  01 3D 52 28 80 F8 FF FF  U.#).2...=R(....
1340: 7F F8 FF FF 7F 73 30 31  39 45 28 80 F8 FF FF 7F  .....s019E(.....
1350: F8 FF FF 7F 73 30 32 30  01 80 7B 32 D0 0E 01 29  ....s020..{2...)
1360: 08 32 D0 0E 01 43 2B 32  D0 0E 01 56 80 1C 2E 80  .2...C+2...V....
1370: 79 00 F0 FF FF 7F 32 D0  0E 01 23 2A 08 30 D0 0E  y.....2...#*.0..
1380: 01 52 28 80 F8 FF FF 7F  F8 FF FF 7F 73 30 32 30  .R(.........s020
1390: 45 28 80 F8 FF FF 7F F8  FF FF 7F 73 30 37 39 01  E(.........s079.
13A0: 80 29 08 2E D0 0E 01 2C  2B 2E D0 0E 01 57 80 1C  .).....,+....W..
13B0: 2E 80 79 00 F0 FF FF 7F  2E D0 0E 01 23 29 08 2E  ..y.........#)..
13C0: D0 0E 01 2D 29 08 32 D0  0E 01 44 52 28 80 F8 FF  ...-).2...DR(...
13D0: FF 7F F8 FF FF 7F 73 30  37 39 29 08 32 D0 0E 01  ......s079).2...
13E0: 45 29 08 2E D0 0E 01 2E  01 C3 17 02 00 10 03 80  E)..............
13F0: 00 05 16 29 08 F0 FF FF  7F B3 1C 06 80 1A 64 00  ...)..........d.
1400: 29 08 F0 FF FF 7F B4 02  09 10 27 80 00 21 14 52  ).........'..!.R
1410: 28 80 F8 FF FF 7F F8 FF  FF 7F 73 30 32 31 01 7E  (.........s021.~
1420: 14 02 09 10 29 80 00 3B  14 52 28 80 F8 FF FF 7F  ....)..;.R(.....
1430: F8 FF FF 7F 73 30 36 31  01 7E 14 02 09 10 2A 80  ....s061.~....*.
1440: 00 55 14 52 28 80 F8 FF  FF 7F F8 FF FF 7F 73 30  .U.R(.........s0
1450: 36 31 01 7E 14 02 09 10  2B 80 00 6F 14 52 28 80  61.~....+..o.R(.
1460: F8 FF FF 7F F8 FF FF 7F  73 30 32 31 01 7E 14 52  ........s021.~.R
1470: 28 80 F8 FF FF 7F F8 FF  FF 7F 73 30 37 32 79 00  (.........s072y.
1480: 30 D0 0E 01 F0 FF FF 7F  79 00 32 D0 0E 01 F0 FF  0.......y.2.....
1490: FF 7F 79 00 2E D0 0E 01  32 D0 0E 01 4B 2E D0 0E  ..y.....2...K...
14A0: 01 58 80 6F 76 2E D0 0E  01 7B 32 D0 0E 01 29 08  .X.ov....{2...).
14B0: 32 D0 0E 01 43 29 08 32  D0 0E 01 44 02 09 10 29  2...C).2...D...)
14C0: 80 00 D8 14 45 28 80 F8  FF FF 7F F8 FF FF 7F 73  ....E(.........s
14D0: 30 36 32 01 80 01 05 15  02 09 10 2A 80 00 F4 14  062........*....
14E0: 45 28 80 F8 FF FF 7F F8  FF FF 7F 73 30 36 32 01  E(.........s062.
14F0: 80 01 05 15 45 28 80 F8  FF FF 7F F8 FF FF 7F 73  ....E(.........s
1500: 30 32 32 01 80 1A 43 00  2B 32 D0 0E 01 59 80 23  022...C.+2...Y.#
1510: 2B 32 D0 0E 01 5A 80 23  6E F0 FF FF 7F 53 80 99  +2...Z.#n....S..
1520: F0 FF FF 7F 1C 3F 80 02  09 10 29 80 00 41 15 52  .....?....)..A.R
1530: 28 80 F8 FF FF 7F F8 FF  FF 7F 73 30 36 32 01 6A  (.........s062.j
1540: 15 02 09 10 2A 80 00 5B  15 52 28 80 F8 FF FF 7F  ....*..[.R(.....
1550: F8 FF FF 7F 73 30 36 32  01 6A 15 52 28 80 F8 FF  ....s062.j.R(...
1560: FF 7F F8 FF FF 7F 73 30  32 32 45 28 80 F8 FF FF  ......s022E(....
1570: 7F F8 FF FF 7F 73 30 32  33 01 80 29 08 32 D0 0E  .....s023..).2..
1580: 01 45 79 00 2E D0 0E 01  F0 FF FF 7F 2B 30 D0 0E  .Ey.........+0..
1590: 01 5B 80 23 52 28 80 F8  FF FF 7F F8 FF FF 7F 73  .[.#R(.........s
15A0: 30 32 33 45 28 80 F8 FF  FF 7F F8 FF FF 7F 73 30  023E(.........s0
15B0: 32 34 01 80 79 00 F0 FF  FF 7F 2E D0 0E 01 29 08  24..y.........).
15C0: 2E D0 0E 01 28 2B 2E D0  0E 01 5C 80 23 29 08 2E  ....(+....\.#)..
15D0: D0 0E 01 29 52 28 80 F8  FF FF 7F F8 FF FF 7F 73  ...)R(.........s
15E0: 30 32 34 79 00 F0 FF FF  7F 32 D0 0E 01 29 08 2E  024y.....2...)..
15F0: D0 0E 01 2A 29 08 32 D0  0E 01 46 29 08 2E D0 0E  ...*).2...F)....
1600: 01 2B 01 C3 17 02 00 10  05 80 00 C3 17 29 08 F0  .+...........)..
1610: FF FF 7F B3 1C 06 80 1A  64 00 29 08 F0 FF FF 7F  ........d.).....
1620: B4 79 00 30 D0 0E 01 F0  FF FF 7F 79 00 32 D0 0E  .y.0.......y.2..
1630: 01 F0 FF FF 7F 4A 2E D0  0E 01 F0 FF FF 7F 6F 76  .....J........ov
1640: 2E D0 0E 01 79 00 F0 FF  FF 7F 2E D0 0E 01 02 09  ....y...........
1650: 10 27 80 00 68 16 52 28  80 F8 FF FF 7F F8 FF FF  .'..h.R(........
1660: 7F 73 30 32 31 01 C5 16  02 09 10 29 80 00 82 16  .s021......)....
1670: 52 28 80 F8 FF FF 7F F8  FF FF 7F 73 30 36 31 01  R(.........s061.
1680: C5 16 02 09 10 2A 80 00  9C 16 52 28 80 F8 FF FF  .....*....R(....
1690: 7F F8 FF FF 7F 73 30 36  31 01 C5 16 02 09 10 2B  .....s061......+
16A0: 80 00 B6 16 52 28 80 F8  FF FF 7F F8 FF FF 7F 73  ....R(.........s
16B0: 30 32 31 01 C5 16 52 28  80 F8 FF FF 7F F8 FF FF  021...R(........
16C0: 7F 73 30 37 32 45 28 80  F8 FF FF 7F F8 FF FF 7F  .s072E(.........
16D0: 73 30 32 35 01 80 7B 2E  D0 0E 01 29 08 2E D0 0E  s025..{....)....
16E0: 01 3C 29 08 2E D0 0E 01  3D 1A 43 00 1C 5D 80 2B  .<).....=.C..].+
16F0: 2E D0 0E 01 5E 80 1C 3F  80 52 28 80 F8 FF FF 7F  ....^..?.R(.....
1700: F8 FF FF 7F 73 30 32 35  45 28 80 F8 FF FF 7F F8  ....s025E(......
1710: FF FF 7F 73 30 32 36 01  80 23 29 08 2E D0 0E 01  ...s026..#).....
1720: 3E 2B 2E D0 0E 01 5F 80  23 29 08 2E D0 0E 01 3F  >+...._.#).....?
1730: 52 28 80 F8 FF FF 7F F8  FF FF 7F 73 30 32 36 45  R(.........s026E
1740: 28 80 F8 FF FF 7F F8 FF  FF 7F 73 30 32 37 01 80  (.........s027..
1750: 2B 30 D0 0E 01 60 80 23  52 28 80 F8 FF FF 7F F8  +0...`.#R(......
1760: FF FF 7F 73 30 32 37 45  28 80 F8 FF FF 7F F8 FF  ...s027E(.......
1770: FF 7F 73 30 33 30 01 80  79 00 F0 FF FF 7F 32 D0  ..s030..y.....2.
1780: 0E 01 7B 32 D0 0E 01 29  08 32 D0 0E 01 5B 2B 32  ..{2...).2...[+2
1790: D0 0E 01 61 80 1C 2E 80  79 00 30 D0 0E 01 32 D0  ...a....y.0...2.
17A0: 0E 01 23 29 08 32 D0 0E  01 5C 52 28 80 F8 FF FF  ..#).2...\R(....
17B0: 7F F8 FF FF 7F 73 30 33  30 29 08 32 D0 0E 01 5D  .....s030).2...]
17C0: 01 C3 17 3C 01 00 00 10  03 80 02 01 00 53 80 01  ...<.........S..
17D0: 5D 18 02 09 10 27 80 00  EE 17 45 28 80 F8 FF FF  ]....'....E(....
17E0: 7F F8 FF FF 7F 73 30 32  31 01 80 01 53 18 02 09  .....s021...S...
17F0: 10 29 80 00 0A 18 45 28  80 F8 FF FF 7F F8 FF FF  .)....E(........
1800: 7F 73 30 36 31 01 80 01  53 18 02 09 10 2A 80 00  .s061...S....*..
1810: 26 18 45 28 80 F8 FF FF  7F F8 FF FF 7F 73 30 36  &.E(.........s06
1820: 31 01 80 01 53 18 02 09  10 2B 80 00 42 18 45 28  1...S....+..B.E(
1830: 80 F8 FF FF 7F F8 FF FF  7F 73 30 32 31 01 80 01  .........s021...
1840: 53 18 45 28 80 F8 FF FF  7F F8 FF FF 7F 73 30 37  S.E(.........s07
1850: 32 01 80 79 00 F0 FF FF  7F 32 D0 0E 01 01 47 12  2..y.....2....G.
1860: 52 28 80 F8 FF FF 7F F8  FF FF 7F 73 30 32 31 45  R(.........s021E
1870: 28 80 F8 FF FF 7F F8 FF  FF 7F 73 30 32 38 01 80  (.........s028..
1880: 5D 01 80 16 80 7B 2E D0  0E 01 29 08 2E D0 0E 01  ]....{....).....
1890: 3C 29 08 2E D0 0E 01 3D  2B 2E D0 0E 01 62 80 1C  <).....=+....b..
18A0: 2E 80 7B 32 D0 0E 01 4A  F0 FF FF 7F 2E D0 0E 01  ..{2...J........
18B0: 6F 76 F0 FF FF 7F 23 52  28 80 F8 FF FF 7F F8 FF  ov....#R(.......
18C0: FF 7F 73 30 32 38 45 28  80 F8 FF FF 7F F8 FF FF  ..s028E(........
18D0: 7F 73 30 32 39 01 80 27  08 32 D0 0E 01 36 2B 32  .s029..'.2...6+2
18E0: D0 0E 01 63 80 1C 2E 80  4A F0 FF FF 7F 32 D0 0E  ...c....J....2..
18F0: 01 4A 30 D0 0E 01 32 D0  0E 01 6F 76 30 D0 0E 01  .J0...2...ov0...
1900: 6F 76 F0 FF FF 7F 23 52  28 80 F8 FF FF 7F F8 FF  ov....#R(.......
1910: FF 7F 73 30 32 39 02 09  10 29 80 00 32 19 45 28  ..s029...)..2.E(
1920: 80 F8 FF FF 7F F8 FF FF  7F 73 30 36 33 01 80 01  .........s063...
1930: 5F 19 02 09 10 2A 80 00  4E 19 45 28 80 F8 FF FF  _....*..N.E(....
1940: 7F F8 FF FF 7F 73 30 36  33 01 80 01 5F 19 45 28  .....s063..._.E(
1950: 80 F8 FF FF 7F F8 FF FF  7F 73 30 33 31 01 80 29  .........s031..)
1960: 08 30 D0 0E 01 34 2B 30  D0 0E 01 64 80 2A 08 32  .0...4+0...d.*.2
1970: D0 0E 01 1C 06 80 79 00  32 D0 0E 01 30 D0 0E 01  ......y.2...0...
1980: 4B 32 D0 0E 01 65 80 6F  76 32 D0 0E 01 23 29 08  K2...e.ov2...#).
1990: 30 D0 0E 01 35 29 08 30  D0 0E 01 36 79 00 F0 FF  0...5).0...6y...
19A0: FF 7F 30 D0 0E 01 02 09  10 29 80 00 C0 19 52 28  ..0......)....R(
19B0: 80 F8 FF FF 7F F8 FF FF  7F 73 30 36 33 01 E9 19  .........s063...
19C0: 02 09 10 2A 80 00 DA 19  52 28 80 F8 FF FF 7F F8  ...*....R(......
19D0: FF FF 7F 73 30 36 33 01  E9 19 52 28 80 F8 FF FF  ...s063...R(....
19E0: 7F F8 FF FF 7F 73 30 33  31 45 28 80 F8 FF FF 7F  .....s031E(.....
19F0: F8 FF FF 7F 73 30 33 32  01 80 5C 00 66 80 5C 01  ....s032..\.f.\.
1A00: 66 80 9A 5D 32 80 03 80  2B 30 D0 0E 01 67 80 29  f..]2...+0...g.)
1A10: 08 2E D0 0E 01 3E 29 08  2E D0 0E 01 3F 4A 2E D0  .....>).....?J..
1A20: 0E 01 30 D0 0E 01 6F 76  2E D0 0E 01 23 29 08 2E  ..0...ov....#)..
1A30: D0 0E 01 28 2B 2E D0 0E  01 68 80 1C 37 80 79 00  ...(+....h..7.y.
1A40: 30 D0 0E 01 2E D0 0E 01  79 00 32 D0 0E 01 2E D0  0.......y.2.....
1A50: 0E 01 79 00 F0 FF FF 7F  2E D0 0E 01 23 29 08 2E  ..y.........#)..
1A60: D0 0E 01 29 52 28 80 F8  FF FF 7F F8 FF FF 7F 73  ...)R(.........s
1A70: 30 33 32 45 28 80 F8 FF  FF 7F F8 FF FF 7F 73 30  032E(.........s0
1A80: 33 34 01 80 29 08 2E D0  0E 01 2A 29 08 30 D0 0E  34..).....*).0..
1A90: 01 37 29 08 30 D0 0E 01  3F 29 08 30 D0 0E 01 34  .7).0...?).0...4
1AA0: 2B 30 D0 0E 01 69 80 1C  2E 80 79 00 32 D0 0E 01  +0...i....y.2...
1AB0: 30 D0 0E 01 23 29 08 30  D0 0E 01 35 29 08 2E D0  0...#).0...5)...
1AC0: 0E 01 2B 29 08 32 D0 0E  01 4F 1C 2A 80 52 28 80  ..+).2...O.*.R(.
1AD0: F8 FF FF 7F F8 FF FF 7F  73 30 33 34 02 09 10 27  ........s034...'
1AE0: 80 00 F8 1A 45 28 80 F8  FF FF 7F F8 FF FF 7F 73  ....E(.........s
1AF0: 30 33 33 01 80 01 5D 1B  02 09 10 29 80 00 14 1B  033...]....)....
1B00: 45 28 80 F8 FF FF 7F F8  FF FF 7F 73 30 36 34 01  E(.........s064.
1B10: 80 01 5D 1B 02 09 10 2A  80 00 30 1B 45 28 80 F8  ..]....*..0.E(..
1B20: FF FF 7F F8 FF FF 7F 73  30 36 34 01 80 01 5D 1B  .......s064...].
1B30: 02 09 10 2B 80 00 4C 1B  45 28 80 F8 FF FF 7F F8  ...+..L.E(......
1B40: FF FF 7F 73 30 33 33 01  80 01 5D 1B 45 28 80 F8  ...s033...].E(..
1B50: FF FF 7F F8 FF FF 7F 73  30 37 33 01 80 4A 2E D0  .......s073..J..
1B60: 0E 01 32 D0 0E 01 6F 76  2E D0 0E 01 79 00 F0 FF  ..2...ov....y...
1B70: FF 7F 32 D0 0E 01 5D 01  80 03 80 29 08 30 D0 0E  ..2...]....).0..
1B80: 01 36 2B 32 D0 0E 01 6A  80 79 00 32 D0 0E 01 2E  .6+2...j.y.2....
1B90: D0 0E 01 29 08 30 D0 0E  01 37 4A 30 D0 0E 01 32  ...).0...7J0...2
1BA0: D0 0E 01 6F 76 30 D0 0E  01 79 00 32 D0 0E 01 30  ...ov0...y.2...0
1BB0: D0 0E 01 23 29 08 32 D0  0E 01 50 02 09 10 27 80  ...#).2...P...'.
1BC0: 00 D5 1B 52 28 80 F8 FF  FF 7F F8 FF FF 7F 73 30  ...R(.........s0
1BD0: 33 33 01 32 1C 02 09 10  29 80 00 EF 1B 52 28 80  33.2....)....R(.
1BE0: F8 FF FF 7F F8 FF FF 7F  73 30 36 34 01 32 1C 02  ........s064.2..
1BF0: 09 10 2A 80 00 09 1C 52  28 80 F8 FF FF 7F F8 FF  ..*....R(.......
1C00: FF 7F 73 30 36 34 01 32  1C 02 09 10 2B 80 00 23  ..s064.2....+..#
1C10: 1C 52 28 80 F8 FF FF 7F  F8 FF FF 7F 73 30 33 33  .R(.........s033
1C20: 01 32 1C 52 28 80 F8 FF  FF 7F F8 FF FF 7F 73 30  .2.R(.........s0
1C30: 37 33 45 28 80 F8 FF FF  7F F8 FF FF 7F 62 6C 6F  73E(.........blo
1C40: 66 01 80 45 28 80 F8 FF  FF 7F F8 FF FF 7F 73 30  f..E(.........s0
1C50: 33 36 01 80 45 28 80 F8  FF FF 7F F8 FF FF 7F 38  36..E(.........8
1C60: 31 36 30 01 80 79 00 32  D0 0E 01 2E D0 0E 01 29  160..y.2.......)
1C70: 08 32 D0 0E 01 51 2B 32  D0 0E 01 6B 80 23 29 08  .2...Q+2...k.#).
1C80: 32 D0 0E 01 52 52 28 80  F8 FF FF 7F F8 FF FF 7F  2...RR(.........
1C90: 73 30 33 36 45 28 80 F8  FF FF 7F F8 FF FF 7F 73  s036E(.........s
1CA0: 30 33 37 01 80 29 08 2E  D0 0E 01 34 5D 32 80 16  037..).....4]2..
1CB0: 80 7C 00 2E D0 0E 01 2B  2E D0 0E 01 6C 80 23 7C  .|.....+....l.#|
1CC0: 01 2E D0 0E 01 29 08 2E  D0 0E 01 35 52 28 80 F8  .....).....5R(..
1CD0: FF FF 7F F8 FF FF 7F 73  30 33 37 45 28 80 F8 FF  .......s037E(...
1CE0: FF 7F F8 FF FF 7F 73 30  33 38 01 80 29 08 32 D0  ......s038..).2.
1CF0: 0E 01 3D 2B 32 D0 0E 01  6D 80 23 29 08 32 D0 0E  ..=+2...m.#).2..
1D00: 01 3E 29 08 32 D0 0E 01  3F 2B 30 D0 0E 01 6E 80  .>).2...?+0...n.
1D10: 1C 2E 80 79 00 32 D0 0E  01 30 D0 0E 01 1C 3F 80  ...y.2...0....?.
1D20: 52 28 80 F8 FF FF 7F F8  FF FF 7F 73 30 33 38 45  R(.........s038E
1D30: 28 80 F8 FF FF 7F F8 FF  FF 7F 73 30 35 31 01 80  (.........s051..
1D40: 23 29 08 32 D0 0E 01 40  29 08 32 D0 0E 01 4F 1C  #).2...@).2...O.
1D50: 2A 80 52 28 80 F8 FF FF  7F F8 FF FF 7F 73 30 35  *.R(.........s05
1D60: 31 45 28 80 F8 FF FF 7F  F8 FF FF 7F 73 30 33 39  1E(.........s039
1D70: 01 80 2B 32 D0 0E 01 6F  80 1C 37 80 29 08 2E D0  ..+2...o..7.)...
1D80: 0E 01 36 23 29 08 32 D0  0E 01 50 29 08 2E D0 0E  ..6#).2...P)....
1D90: 01 37 52 28 80 F8 FF FF  7F F8 FF FF 7F 73 30 33  .7R(.........s03
1DA0: 39 45 28 80 F8 FF FF 7F  F8 FF FF 7F 73 30 34 30  9E(.........s040
1DB0: 01 80 29 08 32 D0 0E 01  51 7B 2E D0 0E 01 29 08  ..).2...Q{....).
1DC0: 2E D0 0E 01 3C 2B 2E D0  0E 01 70 80 4B 32 D0 0E  ....<+....p.K2..
1DD0: 01 4E 80 1C 2E 80 79 00  32 D0 0E 01 2E D0 0E 01  .N....y.2.......
1DE0: 6F 76 32 D0 0E 01 23 29  08 2E D0 0E 01 3D 52 28  ov2...#).....=R(
1DF0: 80 F8 FF FF 7F F8 FF FF  7F 73 30 34 30 45 28 80  .........s040E(.
1E00: F8 FF FF 7F F8 FF FF 7F  73 30 34 31 01 80 29 08  ........s041..).
1E10: 32 D0 0E 01 52 7B 32 D0  0E 01 29 08 32 D0 0E 01  2...R{2...).2...
1E20: 5B 1C 71 80 29 08 2E D0  0E 01 3E 2B 32 D0 0E 01  [.q.).....>+2...
1E30: 72 80 1C 06 80 29 08 32  D0 0E 01 5C 23 52 28 80  r....).2...\#R(.
1E40: F8 FF FF 7F F8 FF FF 7F  73 30 34 31 45 28 80 F8  ........s041E(..
1E50: FF FF 7F F8 FF FF 7F 73  30 34 32 01 80 29 08 32  .......s042..).2
1E60: D0 0E 01 5D 2B 32 D0 0E  01 73 80 23 29 08 32 D0  ...]+2...s.#).2.
1E70: 0E 01 5E 29 08 2E D0 0E  01 3F 52 28 80 F8 FF FF  ..^).....?R(....
1E80: 7F F8 FF FF 7F 73 30 34  32 45 28 80 F8 FF FF 7F  .....s042E(.....
1E90: F8 FF FF 7F 73 30 34 34  01 80 1C 30 80 52 28 80  ....s044...0.R(.
1EA0: F8 FF FF 7F F8 FF FF 7F  73 30 34 34 45 28 80 F8  ........s044E(..
1EB0: FF FF 7F F8 FF FF 7F 73  30 35 30 01 80 1C 74 80  .......s050...t.
1EC0: 2B 30 D0 0E 01 75 80 1C  2E 80 79 00 F0 FF FF 7F  +0...u....y.....
1ED0: 30 D0 0E 01 79 00 32 D0  0E 01 30 D0 0E 01 1C 5D  0...y.2...0....]
1EE0: 80 52 28 80 F8 FF FF 7F  F8 FF FF 7F 73 30 35 30  .R(.........s050
1EF0: 02 09 10 29 80 00 0C 1F  45 28 80 F8 FF FF 7F F8  ...)....E(......
1F00: FF FF 7F 73 30 36 35 01  80 01 39 1F 02 09 10 2A  ...s065...9....*
1F10: 80 00 28 1F 45 28 80 F8  FF FF 7F F8 FF FF 7F 73  ..(.E(.........s
1F20: 30 36 35 01 80 01 39 1F  45 28 80 F8 FF FF 7F F8  065...9.E(......
1F30: FF FF 7F 73 30 37 34 01  80 79 00 F0 FF FF 7F 32  ...s074..y.....2
1F40: D0 0E 01 23 79 00 32 D0  0E 01 F0 FF FF 7F 1C 71  ...#y.2........q
1F50: 80 02 09 10 29 80 00 6B  1F 52 28 80 F8 FF FF 7F  ....)..k.R(.....
1F60: F8 FF FF 7F 73 30 36 35  01 94 1F 02 09 10 2A 80  ....s065......*.
1F70: 00 85 1F 52 28 80 F8 FF  FF 7F F8 FF FF 7F 73 30  ...R(.........s0
1F80: 36 35 01 94 1F 52 28 80  F8 FF FF 7F F8 FF FF 7F  65...R(.........
1F90: 73 30 37 34 02 09 10 27  80 00 B0 1F 45 28 80 F8  s074...'....E(..
1FA0: FF FF 7F F8 FF FF 7F 73  30 34 33 01 80 01 DD 1F  .......s043.....
1FB0: 02 09 10 2B 80 00 CC 1F  45 28 80 F8 FF FF 7F F8  ...+....E(......
1FC0: FF FF 7F 73 30 34 33 01  80 01 DD 1F 45 28 80 F8  ...s043.....E(..
1FD0: FF FF 7F F8 FF FF 7F 73  30 38 30 01 80 2B 2E D0  .......s080..+..
1FE0: 0E 01 76 80 1C 37 80 79  00 F0 FF FF 7F 2E D0 0E  ..v..7.y........
1FF0: 01 79 00 32 D0 0E 01 2E  D0 0E 01 7B 32 D0 0E 01  .y.2.......{2...
2000: 23 79 00 F0 FF FF 7F 32  D0 0E 01 02 09 10 27 80  #y.....2......'.
2010: 00 25 20 52 28 80 F8 FF  FF 7F F8 FF FF 7F 73 30  .% R(.........s0
2020: 34 33 01 4E 20 02 09 10  2B 80 00 3F 20 52 28 80  43.N ...+..? R(.
2030: F8 FF FF 7F F8 FF FF 7F  73 30 34 33 01 4E 20 52  ........s043.N R
2040: 28 80 F8 FF FF 7F F8 FF  FF 7F 73 30 38 30 45 28  (.........s080E(
2050: 80 F8 FF FF 7F F8 FF FF  7F 73 30 37 37 01 80 29  .........s077..)
2060: 08 32 D0 0E 01 53 29 08  32 D0 0E 01 54 52 28 80  .2...S).2...TR(.
2070: F8 FF FF 7F F8 FF FF 7F  73 30 37 37 02 09 10 29  ........s077...)
2080: 80 00 98 20 45 28 80 F8  FF FF 7F F8 FF FF 7F 73  ... E(.........s
2090: 30 36 36 01 80 01 C5 20  02 09 10 2A 80 00 B4 20  066.... ...*... 
20A0: 45 28 80 F8 FF FF 7F F8  FF FF 7F 73 30 36 36 01  E(.........s066.
20B0: 80 01 C5 20 45 28 80 F8  FF FF 7F F8 FF FF 7F 73  ... E(.........s
20C0: 30 34 35 01 80 79 00 32  D0 0E 01 F0 FF FF 7F 2B  045..y.2.......+
20D0: 32 D0 0E 01 77 80 23 2B  32 D0 0E 01 78 80 1C 3F  2...w.#+2...x..?
20E0: 80 02 09 10 29 80 00 FB  20 52 28 80 F8 FF FF 7F  ....)... R(.....
20F0: F8 FF FF 7F 73 30 36 36  01 24 21 02 09 10 2A 80  ....s066.$!...*.
2100: 00 15 21 52 28 80 F8 FF  FF 7F F8 FF FF 7F 73 30  ..!R(.........s0
2110: 36 36 01 24 21 52 28 80  F8 FF FF 7F F8 FF FF 7F  66.$!R(.........
2120: 73 30 34 35 45 28 80 F8  FF FF 7F F8 FF FF 7F 73  s045E(.........s
2130: 30 34 36 01 80 29 08 32  D0 0E 01 55 23 2B 32 D0  046..).2...U#+2.
2140: 0E 01 79 80 23 29 08 32  D0 0E 01 56 52 28 80 F8  ..y.#).2...VR(..
2150: FF FF 7F F8 FF FF 7F 73  30 34 36 02 09 10 27 80  .......s046...'.
2160: 00 77 21 45 28 80 F8 FF  FF 7F F8 FF FF 7F 73 30  .w!E(.........s0
2170: 35 32 01 80 01 DC 21 02  09 10 29 80 00 93 21 45  52....!...)...!E
2180: 28 80 F8 FF FF 7F F8 FF  FF 7F 73 30 36 37 01 80  (.........s067..
2190: 01 DC 21 02 09 10 2A 80  00 AF 21 45 28 80 F8 FF  ..!...*...!E(...
21A0: FF 7F F8 FF FF 7F 73 30  36 37 01 80 01 DC 21 02  ......s067....!.
21B0: 09 10 2B 80 00 CB 21 45  28 80 F8 FF FF 7F F8 FF  ..+...!E(.......
21C0: FF 7F 73 30 35 32 01 80  01 DC 21 45 28 80 F8 FF  ..s052....!E(...
21D0: FF 7F F8 FF FF 7F 73 30  37 35 01 80 03 00 10 03  ......s075......
21E0: 80 02 00 10 01 80 01 32  25 24 7A 80 01 80 01 80  .......2%$z.....
21F0: 25 02 00 10 01 80 00 7B  23 6E F0 FF FF 7F 53 80  %......{#n....S.
2200: 99 F0 FF FF 7F 1C 3F 80  79 00 2E D0 0E 01 32 D0  ......?.y.....2.
2210: 0E 01 02 09 10 27 80 00  2C 22 52 28 80 F8 FF FF  .....'..,"R(....
2220: 7F F8 FF FF 7F 73 30 35  32 01 89 22 02 09 10 29  .....s052.."...)
2230: 80 00 46 22 52 28 80 F8  FF FF 7F F8 FF FF 7F 73  ..F"R(.........s
2240: 30 36 37 01 89 22 02 09  10 2A 80 00 60 22 52 28  067.."...*..`"R(
2250: 80 F8 FF FF 7F F8 FF FF  7F 73 30 36 37 01 89 22  .........s067.."
2260: 02 09 10 2B 80 00 7A 22  52 28 80 F8 FF FF 7F F8  ...+..z"R(......
2270: FF FF 7F 73 30 35 32 01  89 22 52 28 80 F8 FF FF  ...s052.."R(....
2280: 7F F8 FF FF 7F 73 30 37  35 45 28 80 F8 FF FF 7F  .....s075E(.....
2290: F8 FF FF 7F 73 30 38 32  01 80 29 08 32 D0 0E 01  ....s082..).2...
22A0: 39 2B 32 D0 0E 01 7B 80  23 29 08 32 D0 0E 01 3A  9+2...{.#).2...:
22B0: 52 28 80 F8 FF FF 7F F8  FF FF 7F 73 30 38 32 02  R(.........s082.
22C0: 09 10 29 80 00 DB 22 45  28 80 F8 FF FF 7F F8 FF  ..)..."E(.......
22D0: FF 7F 73 30 36 38 01 80  01 08 23 02 09 10 2A 80  ..s068....#...*.
22E0: 00 F7 22 45 28 80 F8 FF  FF 7F F8 FF FF 7F 73 30  .."E(.........s0
22F0: 36 38 01 80 01 08 23 45  28 80 F8 FF FF 7F F8 FF  68....#E(.......
2300: FF 7F 73 30 37 36 01 80  2B 32 D0 0E 01 7C 80 27  ..s076..+2...|.'
2310: 08 32 D0 0E 01 37 23 2A  08 32 D0 0E 01 7B 32 D0  .2...7#*.2...{2.
2320: 0E 01 27 08 32 D0 0E 01  38 1C 06 80 4A 2E D0 0E  ..'.2...8...J...
2330: 01 32 D0 0E 01 02 09 10  29 80 00 4F 23 52 28 80  .2......)..O#R(.
2340: F8 FF FF 7F F8 FF FF 7F  73 30 36 38 01 78 23 02  ........s068.x#.
2350: 09 10 2A 80 00 69 23 52  28 80 F8 FF FF 7F F8 FF  ..*..i#R(.......
2360: FF 7F 73 30 36 38 01 78  23 52 28 80 F8 FF FF 7F  ..s068.x#R(.....
2370: F8 FF FF 7F 73 30 37 36  01 2F 25 02 00 10 03 80  ....s076./%.....
2380: 00 2F 25 02 09 10 27 80  00 9D 23 52 28 80 F8 FF  ./%...'...#R(...
2390: FF 7F F8 FF FF 7F 73 30  35 32 01 FA 23 02 09 10  ......s052..#...
23A0: 29 80 00 B7 23 52 28 80  F8 FF FF 7F F8 FF FF 7F  )...#R(.........
23B0: 73 30 36 37 01 FA 23 02  09 10 2A 80 00 D1 23 52  s067..#...*...#R
23C0: 28 80 F8 FF FF 7F F8 FF  FF 7F 73 30 36 37 01 FA  (.........s067..
23D0: 23 02 09 10 2B 80 00 EB  23 52 28 80 F8 FF FF 7F  #...+...#R(.....
23E0: F8 FF FF 7F 73 30 35 32  01 FA 23 52 28 80 F8 FF  ....s052..#R(...
23F0: FF 7F F8 FF FF 7F 73 30  37 35 02 09 10 29 80 00  ......s075...)..
2400: 16 24 45 28 80 F8 FF FF  7F F8 FF FF 7F 73 30 36  .$E(.........s06
2410: 36 01 80 01 43 24 02 09  10 2A 80 00 32 24 45 28  6...C$...*..2$E(
2420: 80 F8 FF FF 7F F8 FF FF  7F 73 30 36 36 01 80 01  .........s066...
2430: 43 24 45 28 80 F8 FF FF  7F F8 FF FF 7F 73 30 34  C$E(.........s04
2440: 35 01 80 6E F0 FF FF 7F  2A 80 99 F0 FF FF 7F 1C  5..n....*.......
2450: 3F 80 02 09 10 29 80 00  6C 24 52 28 80 F8 FF FF  ?....)..l$R(....
2460: 7F F8 FF FF 7F 73 30 36  36 01 95 24 02 09 10 2A  .....s066..$...*
2470: 80 00 86 24 52 28 80 F8  FF FF 7F F8 FF FF 7F 73  ...$R(.........s
2480: 30 36 36 01 95 24 52 28  80 F8 FF FF 7F F8 FF FF  066..$R(........
2490: 7F 73 30 34 35 02 09 10  27 80 00 B1 24 45 28 80  .s045...'...$E(.
24A0: F8 FF FF 7F F8 FF FF 7F  73 30 35 32 01 80 01 16  ........s052....
24B0: 25 02 09 10 29 80 00 CD  24 45 28 80 F8 FF FF 7F  %...)...$E(.....
24C0: F8 FF FF 7F 73 30 36 37  01 80 01 16 25 02 09 10  ....s067....%...
24D0: 2A 80 00 E9 24 45 28 80  F8 FF FF 7F F8 FF FF 7F  *...$E(.........
24E0: 73 30 36 37 01 80 01 16  25 02 09 10 2B 80 00 05  s067....%...+...
24F0: 25 45 28 80 F8 FF FF 7F  F8 FF FF 7F 73 30 35 32  %E(.........s052
2500: 01 80 01 16 25 45 28 80  F8 FF FF 7F F8 FF FF 7F  ....%E(.........
2510: 73 30 37 35 01 80 29 08  32 D0 0E 01 41 2B 32 D0  s075..).2...A+2.
2520: 0E 01 7D 80 23 29 08 32  D0 0E 01 42 01 2F 25 01  ..}.#).2...B./%.
2530: E1 21 45 28 80 F8 FF FF  7F F8 FF FF 7F 73 30 34  .!E(.........s04
2540: 37 01 80 1C 06 80 2B 32  D0 0E 01 7E 80 23 4A 30  7.....+2...~.#J0
2550: D0 0E 01 32 D0 0E 01 4A  F0 FF FF 7F 32 D0 0E 01  ...2...J....2...
2560: 6F 76 30 D0 0E 01 6F 76  F0 FF FF 7F 4A 2E D0 0E  ov0...ov....J...
2570: 01 32 D0 0E 01 6F 76 2E  D0 0E 01 1C 3F 80 52 28  .2...ov.....?.R(
2580: 80 F8 FF FF 7F F8 FF FF  7F 73 30 34 37 02 09 10  .........s047...
2590: 29 80 00 A9 25 45 28 80  F8 FF FF 7F F8 FF FF 7F  )...%E(.........
25A0: 73 30 36 39 01 80 01 D6  25 02 09 10 2A 80 00 C5  s069....%...*...
25B0: 25 45 28 80 F8 FF FF 7F  F8 FF FF 7F 73 30 36 39  %E(.........s069
25C0: 01 80 01 D6 25 45 28 80  F8 FF FF 7F F8 FF FF 7F  ....%E(.........
25D0: 73 30 34 38 01 80 1C 3F  80 4A 2E D0 0E 01 F0 FF  s048...?.J......
25E0: FF 7F 4A 30 D0 0E 01 F0  FF FF 7F 6F 76 2E D0 0E  ..J0.......ov...
25F0: 01 29 08 2E D0 0E 01 2C  2B 2E D0 0E 01 7F 80 1C  .).....,+.......
2600: 37 80 4A F0 FF FF 7F 2E  D0 0E 01 6F 76 F0 FF FF  7.J........ov...
2610: 7F 23 29 08 2E D0 0E 01  2D 29 08 2E D0 0E 01 2E  .#).....-)......
2620: 2B 2E D0 0E 01 80 80 23  29 08 2E D0 0E 01 2F 6F  +......#)...../o
2630: 76 30 D0 0E 01 52 28 80  F8 FF FF 7F F8 FF FF 7F  v0...R(.........
2640: 73 30 34 38 45 28 80 F8  FF FF 7F F8 FF FF 7F 73  s048E(.........s
2650: 30 34 39 01 80 7B 2E D0  0E 01 27 08 2E D0 0E 01  049..{....'.....
2660: 27 1C 2E 80 1C 06 80 4A  F0 FF FF 7F 2E D0 0E 01  '......J........
2670: 6F 76 F0 FF FF 7F 5D 01  80 16 80 1C 30 80 1A 64  ov....].....0..d
2680: 00 52 28 80 F8 FF FF 7F  F8 FF FF 7F 73 30 34 39  .R(.........s049
2690: 45 28 80 F8 FF FF 7F F8  FF FF 7F 62 6C 6F 66 01  E(.........blof.
26A0: 80 5C 00 81 80 5C 01 81  80 9A 5D 32 80 03 80 1C  .\...\....]2....
26B0: 82 80 AB 11 01 80 1C 03  80 46 00 45 00 80 F8 FF  .........F.E....
26C0: FF 7F F8 FF FF 7F 66 64  69 32 01 80 21 00        ......fdi2..!.  
```

#### Opcodes

```
  0: 0x03FC [0x42] SET_CLI_EVENT_CANCEL_DATA()
  1: 0x03FD [0x5D] SET_MUSIC_VOLUME(volume=0*, fade_time=300*)
  2: 0x0402 [0x1A] CALL_SUBROUTINE(address=0x0064)
  3: 0x0405 [0x46] CAMERA_CONTROL: Disable user control
  4: 0x0407 [0x38] SET_CLIENT_EVENT_MODE(mode=147*)
  5: 0x040A [0x75] LOAD_ROOM(Load indoor room, room=305*)
  6: 0x040E [0x75] LOAD_ROOM(No action)
  7: 0x0410 [0x2F] Iron Eater (ID: 17748016/0x010ED030)->Render.Flags0 &= ~0x80000 // Bit 19
  8: 0x0416 [0x2F] Volker (ID: 17748014/0x010ED02E)->Render.Flags0 &= ~0x80000 // Bit 19
  9: 0x041C [0x2F] Cornelia (ID: 17748018/0x010ED032)->Render.Flags0 &= ~0x80000 // Bit 19
 10: 0x0422 [0x4E] SET_ENTITY_HIDE_FLAG: Show Iron Eater (ID: 17748016/0x010ED030)
 11: 0x0428 [0x4E] SET_ENTITY_HIDE_FLAG: Show Volker (ID: 17748014/0x010ED02E)
 12: 0x042E [0x4E] SET_ENTITY_HIDE_FLAG: Show Cornelia (ID: 17748018/0x010ED032)
 13: 0x0434 [0x92] Iron Eater (ID: 17748016/0x010ED030)->Render.Flags3 ^= 0x01
 14: 0x043A [0x94] Iron Eater (ID: 17748016/0x010ED030)->Render.Flags3 ^= 0x01
 15: 0x0440 [0x94] Volker (ID: 17748014/0x010ED02E)->Render.Flags3 ^= 0x01
 16: 0x0446 [0x94] Cornelia (ID: 17748018/0x010ED032)->Render.Flags3 ^= 0x01
 17: 0x044C [0x94] LocalPlayer->Render.Flags3 ^= 0x01
 18: 0x0452 [0xBA] SET_ENTITY_POSITION(entity_id=Iron Eater (ID: 17748016/0x010ED030), pos_x=92.936*, pos_z=1.814*, pos_y=-19.532*, direction=122.5°*)
 19: 0x045F [0xBA] SET_ENTITY_POSITION(entity_id=Volker (ID: 17748014/0x010ED02E), pos_x=81.023*, pos_z=0.265*, pos_y=-19.532*, direction=344.2°*)
 20: 0x046C [0x29] REQ_SET_WAIT(priority=0x10, entity_id=Cornelia (ID: 17748018/0x010ED032), tag_num=0x71)
 21: 0x0473 [0xBA] SET_ENTITY_POSITION(entity_id=Cornelia (ID: 17748018/0x010ED032), pos_x=99.685*, pos_z=-0.184*, pos_y=-20.181*, direction=185.1°*)
 22: 0x0480 [0x29] REQ_SET_WAIT(priority=0x10, entity_id=Cornelia (ID: 17748018/0x010ED032), tag_num=0x71)
 23: 0x0487 [0xBA] SET_ENTITY_POSITION(entity_id=LocalPlayer, pos_x=87.969*, pos_z=0.400*, pos_y=-19.532*, direction=332.3°*)
 24: 0x0494 [0x80] LOAD_WAIT(entity=Iron Eater (ID: 17748016/0x010ED030))
 25: 0x0499 [0x80] LOAD_WAIT(entity=Volker (ID: 17748014/0x010ED02E))
 26: 0x049E [0x80] LOAD_WAIT(entity=Cornelia (ID: 17748018/0x010ED032))
 27: 0x04A3 [0x80] LOAD_WAIT(entity=LocalPlayer)
 28: 0x04A8 [0x79] Iron Eater (ID: 17748016/0x010ED030) looks at LocalPlayer (Basic look)
 29: 0x04B2 [0x4A] LocalPlayer looks at Iron Eater (ID: 17748016/0x010ED030)
 30: 0x04BB [0x6F] WAIT_FRAME_DELAY: Yield until WaitTime reaches zero
 31: 0x04BC [0x76] CHECK_ENTITY_RENDER_FLAGS: Wait until LocalPlayer Render.Flags0 and Render.Flags3 conditions are met
 32: 0x04C1 [0x29] REQ_SET_WAIT(priority=0x0F, entity_id=LocalPlayer, tag_num=0x5D)
 33: 0x04C8 [0x6C] FADE_ENTITY_COLOR(entity_id=Volker (ID: 17748014/0x010ED02E), end_alpha=0*, fade_time=1*)
 34: 0x04D1 [0x27] REQ_SET(priority=0x08, entity_id=Iron Eater (ID: 17748016/0x010ED030), tag_num=0x49)
 35: 0x04D8 [0x02] IF !(Work_Zone[9] == 3*) GOTO 0x04F4
 36: 0x04E0 [0x45] LOAD_SCHEDULED_TASK: Load scheduler "s000" with entities [EventEntity, EventEntity], work=[852*, 0*]
 37: 0x04F1 [0x01] GOTO 0x0559
 38: 0x04F4 [0x02] IF !(Work_Zone[9] == 5*) GOTO 0x0510
 39: 0x04FC [0x45] LOAD_SCHEDULED_TASK: Load scheduler "s053" with entities [EventEntity, EventEntity], work=[852*, 0*]
 40: 0x050D [0x01] GOTO 0x0559
 41: 0x0510 [0x02] IF !(Work_Zone[9] == 6*) GOTO 0x052C
 42: 0x0518 [0x45] LOAD_SCHEDULED_TASK: Load scheduler "s053" with entities [EventEntity, EventEntity], work=[852*, 0*]
 43: 0x0529 [0x01] GOTO 0x0559
 44: 0x052C [0x02] IF !(Work_Zone[9] == 8*) GOTO 0x0548
 45: 0x0534 [0x45] LOAD_SCHEDULED_TASK: Load scheduler "s000" with entities [EventEntity, EventEntity], work=[852*, 0*]
 46: 0x0545 [0x01] GOTO 0x0559
 47: 0x0548 [0x45] LOAD_SCHEDULED_TASK: Load scheduler "s071" with entities [EventEntity, EventEntity], work=[852*, 0*]

SUBROUTINE_0559:
 48: 0x0559 [0x1A] CALL_SUBROUTINE(address=0x0043)
 49: 0x055C [0x2B] Iron Eater (ID: 17748016/0x010ED030) [11389*]:
    → "Ah, it's you. Do you have business in the President's Office?"
 50: 0x0563 [0x23] WAIT_FOR_DIALOG_INTERACTION
 51: 0x0564 [0x29] REQ_SET_WAIT(priority=0x08, entity_id=Door:President's Office (ID: 17748054/0x010ED056), tag_num=0x05)
 52: 0x056B [0x1C] WAIT(30* ticks)
 53: 0x056E [0x79] LocalPlayer looks at Cornelia (ID: 17748018/0x010ED032) (Basic look)
 54: 0x0578 [0x27] REQ_SET(priority=0x08, entity_id=Cornelia (ID: 17748018/0x010ED032), tag_num=0x33)
 55: 0x057F [0x1C] WAIT(30* ticks)
 56: 0x0582 [0x2A] GET_REQ_LEVEL(level=8, entity_id=Iron Eater (ID: 17748016/0x010ED030))
 57: 0x0588 [0x02] IF !(Work_Zone[9] == 3*) GOTO 0x05A2
 58: 0x0590 [0x52] END_LOAD_SCHEDULER: End scheduler "s000" with entities [EventEntity, EventEntity], work=852*
 59: 0x059F [0x01] GOTO 0x05FF
 60: 0x05A2 [0x02] IF !(Work_Zone[9] == 5*) GOTO 0x05BC
 61: 0x05AA [0x52] END_LOAD_SCHEDULER: End scheduler "s053" with entities [EventEntity, EventEntity], work=852*
 62: 0x05B9 [0x01] GOTO 0x05FF
 63: 0x05BC [0x02] IF !(Work_Zone[9] == 6*) GOTO 0x05D6
 64: 0x05C4 [0x52] END_LOAD_SCHEDULER: End scheduler "s053" with entities [EventEntity, EventEntity], work=852*
 65: 0x05D3 [0x01] GOTO 0x05FF
 66: 0x05D6 [0x02] IF !(Work_Zone[9] == 8*) GOTO 0x05F0
 67: 0x05DE [0x52] END_LOAD_SCHEDULER: End scheduler "s000" with entities [EventEntity, EventEntity], work=852*
 68: 0x05ED [0x01] GOTO 0x05FF
 69: 0x05F0 [0x52] END_LOAD_SCHEDULER: End scheduler "s071" with entities [EventEntity, EventEntity], work=852*

SUBROUTINE_05FF:
 70: 0x05FF [0x45] LOAD_SCHEDULED_TASK: Load scheduler "s001" with entities [EventEntity, EventEntity], work=[852*, 0*]
 71: 0x0610 [0x79] Cornelia (ID: 17748018/0x010ED032) looks at Iron Eater (ID: 17748016/0x010ED030) (Basic look)
 72: 0x061A [0x4A] Iron Eater (ID: 17748016/0x010ED030) looks at Cornelia (ID: 17748018/0x010ED032)
 73: 0x0623 [0x6F] WAIT_FRAME_DELAY: Yield until WaitTime reaches zero
 74: 0x0624 [0x76] CHECK_ENTITY_RENDER_FLAGS: Wait until Iron Eater (ID: 17748016/0x010ED030) Render.Flags0 and Render.Flags3 conditions are met
 75: 0x0629 [0x2A] GET_REQ_LEVEL(level=8, entity_id=Cornelia (ID: 17748018/0x010ED032))
 76: 0x062F [0x4A] LocalPlayer looks at Cornelia (ID: 17748018/0x010ED032)
 77: 0x0638 [0x2B] Cornelia (ID: 17748018/0x010ED032) [11390*]:
    → "Yes, as a matter of fact, [he/she] does."
 78: 0x063F [0x23] WAIT_FOR_DIALOG_INTERACTION
 79: 0x0640 [0x6F] WAIT_FRAME_DELAY: Yield until WaitTime reaches zero
 80: 0x0641 [0x76] CHECK_ENTITY_RENDER_FLAGS: Wait until LocalPlayer Render.Flags0 and Render.Flags3 conditions are met
 81: 0x0646 [0x27] REQ_SET(priority=0x08, entity_id=Cornelia (ID: 17748018/0x010ED032), tag_num=0x34)
 82: 0x064D [0x1C] WAIT(10* ticks)
 83: 0x0650 [0x52] END_LOAD_SCHEDULER: End scheduler "s001" with entities [EventEntity, EventEntity], work=852*
 84: 0x065F [0x45] LOAD_SCHEDULED_TASK: Load scheduler "s002" with entities [EventEntity, EventEntity], work=[852*, 0*]
 85: 0x0670 [0x29] REQ_SET_WAIT(priority=0x08, entity_id=Door:President's Office (ID: 17748054/0x010ED056), tag_num=0x06)
 86: 0x0677 [0x2B] Cornelia (ID: 17748018/0x010ED032) [11391*]:
    → "[He/She] is here about the Quadav attack on the Zeruhn Mines led by Do'Bho Venomtail."
 87: 0x067E [0x1C] WAIT(90* ticks)
 88: 0x0681 [0x52] END_LOAD_SCHEDULER: End scheduler "s002" with entities [EventEntity, EventEntity], work=852*
 89: 0x0690 [0x45] LOAD_SCHEDULED_TASK: Load scheduler "s003" with entities [EventEntity, EventEntity], work=[852*, 0*]
 90: 0x06A1 [0x23] WAIT_FOR_DIALOG_INTERACTION
 91: 0x06A2 [0x2A] GET_REQ_LEVEL(level=8, entity_id=Cornelia (ID: 17748018/0x010ED032))
 92: 0x06A8 [0x5C] MUSIC_CONTROL: Set Idle (Day) music to song 206*
 93: 0x06AC [0x5C] MUSIC_CONTROL: Set Idle (Night) music to song 206*
 94: 0x06B0 [0x9A] WAIT_MUSIC_SERVER()
 95: 0x06B1 [0x5D] SET_MUSIC_VOLUME(volume=127*, fade_time=1*)
 96: 0x06B6 [0x52] END_LOAD_SCHEDULER: End scheduler "s003" with entities [EventEntity, EventEntity], work=852*
 97: 0x06C5 [0x45] LOAD_SCHEDULED_TASK: Load scheduler "s004" with entities [EventEntity, EventEntity], work=[852*, 0*]
 98: 0x06D6 [0x4A] Cornelia (ID: 17748018/0x010ED032) looks at Iron Eater (ID: 17748016/0x010ED030)
 99: 0x06DF [0x6F] WAIT_FRAME_DELAY: Yield until WaitTime reaches zero
100: 0x06E0 [0x76] CHECK_ENTITY_RENDER_FLAGS: Wait until Cornelia (ID: 17748018/0x010ED032) Render.Flags0 and Render.Flags3 conditions are met
101: 0x06E5 [0x4A] LocalPlayer looks at Cornelia (ID: 17748018/0x010ED032)
102: 0x06EE [0x29] REQ_SET_WAIT(priority=0x08, entity_id=Cornelia (ID: 17748018/0x010ED032), tag_num=0x39)
103: 0x06F5 [0x2B] Cornelia (ID: 17748018/0x010ED032) [11392*]:
    → "Surely you know of my father's decision, Iron Eater..."
104: 0x06FC [0x23] WAIT_FOR_DIALOG_INTERACTION
105: 0x06FD [0x29] REQ_SET_WAIT(priority=0x08, entity_id=Cornelia (ID: 17748018/0x010ED032), tag_num=0x3A)
106: 0x0704 [0x29] REQ_SET_WAIT(priority=0x08, entity_id=Cornelia (ID: 17748018/0x010ED032), tag_num=0x3B)
107: 0x070B [0x29] REQ_SET_WAIT(priority=0x08, entity_id=Iron Eater (ID: 17748016/0x010ED030), tag_num=0x34)
108: 0x0712 [0x2B] Iron Eater (ID: 17748016/0x010ED030) [11393*]:
    → "You should ask him yourself, my lady."
109: 0x0719 [0x23] WAIT_FOR_DIALOG_INTERACTION
110: 0x071A [0x29] REQ_SET_WAIT(priority=0x08, entity_id=Iron Eater (ID: 17748016/0x010ED030), tag_num=0x35)
111: 0x0721 [0x29] REQ_SET_WAIT(priority=0x08, entity_id=Cornelia (ID: 17748018/0x010ED032), tag_num=0x3C)
112: 0x0728 [0x6F] WAIT_FRAME_DELAY: Yield until WaitTime reaches zero
113: 0x0729 [0x76] CHECK_ENTITY_RENDER_FLAGS: Wait until LocalPlayer Render.Flags0 and Render.Flags3 conditions are met
114: 0x072E [0x29] REQ_SET_WAIT(priority=0x08, entity_id=Cornelia (ID: 17748018/0x010ED032), tag_num=0x3D)
115: 0x0735 [0x1C] WAIT(8* ticks)
116: 0x0738 [0x52] END_LOAD_SCHEDULER: End scheduler "s004" with entities [EventEntity, EventEntity], work=852*
117: 0x0747 [0x45] LOAD_SCHEDULED_TASK: Load scheduler "s005" with entities [EventEntity, EventEntity], work=[852*, 0*]
118: 0x0758 [0x29] REQ_SET_WAIT(priority=0x08, entity_id=Iron Eater (ID: 17748016/0x010ED030), tag_num=0x36)
119: 0x075F [0x2B] Cornelia (ID: 17748018/0x010ED032) [11394*]:
    → "I already tried. He just got angry and told me to go to my room."
120: 0x0766 [0x23] WAIT_FOR_DIALOG_INTERACTION
121: 0x0767 [0x29] REQ_SET_WAIT(priority=0x08, entity_id=Cornelia (ID: 17748018/0x010ED032), tag_num=0x3E)
122: 0x076E [0x29] REQ_SET_WAIT(priority=0x08, entity_id=Iron Eater (ID: 17748016/0x010ED030), tag_num=0x37)
123: 0x0775 [0x52] END_LOAD_SCHEDULER: End scheduler "s005" with entities [EventEntity, EventEntity], work=852*
124: 0x0784 [0x02] IF !(Work_Zone[9] == 5*) GOTO 0x07A0
125: 0x078C [0x45] LOAD_SCHEDULED_TASK: Load scheduler "s054" with entities [EventEntity, EventEntity], work=[852*, 0*]
126: 0x079D [0x01] GOTO 0x07CD
127: 0x07A0 [0x02] IF !(Work_Zone[9] == 6*) GOTO 0x07BC
128: 0x07A8 [0x45] LOAD_SCHEDULED_TASK: Load scheduler "s054" with entities [EventEntity, EventEntity], work=[852*, 0*]
129: 0x07B9 [0x01] GOTO 0x07CD
130: 0x07BC [0x45] LOAD_SCHEDULED_TASK: Load scheduler "s006" with entities [EventEntity, EventEntity], work=[852*, 0*]

SUBROUTINE_07CD:
131: 0x07CD [0x29] REQ_SET_WAIT(priority=0x08, entity_id=Cornelia (ID: 17748018/0x010ED032), tag_num=0x3F)
132: 0x07D4 [0x29] REQ_SET_WAIT(priority=0x08, entity_id=Cornelia (ID: 17748018/0x010ED032), tag_num=0x40)
133: 0x07DB [0x4A] Cornelia (ID: 17748018/0x010ED032) looks at LocalPlayer
134: 0x07E4 [0x6F] WAIT_FRAME_DELAY: Yield until WaitTime reaches zero
135: 0x07E5 [0x76] CHECK_ENTITY_RENDER_FLAGS: Wait until Cornelia (ID: 17748018/0x010ED032) Render.Flags0 and Render.Flags3 conditions are met
136: 0x07EA [0x79] Iron Eater (ID: 17748016/0x010ED030) looks at LocalPlayer (Basic look)
137: 0x07F4 [0x2B] Cornelia (ID: 17748018/0x010ED032) [11395*]:
    → "Do you know something, <Player>? Were you summoned to the meeting?"
138: 0x07FB [0x1C] WAIT(20* ticks)
139: 0x07FE [0x4B] UPDATE_ENTITY_YAW(entity=Iron Eater (ID: 17748016/0x010ED030), yaw=5.3°*)
140: 0x0805 [0x6F] WAIT_FRAME_DELAY: Yield until WaitTime reaches zero
141: 0x0806 [0x76] CHECK_ENTITY_RENDER_FLAGS: Wait until Iron Eater (ID: 17748016/0x010ED030) Render.Flags0 and Render.Flags3 conditions are met
142: 0x080B [0x23] WAIT_FOR_DIALOG_INTERACTION
143: 0x080C [0x6E] LocalPlayer uses emote 6*
144: 0x0813 [0x99] Wait for LocalPlayer animation to complete
145: 0x0818 [0x1C] WAIT(90* ticks)
146: 0x081B [0x02] IF !(Work_Zone[9] == 5*) GOTO 0x0835
147: 0x0823 [0x52] END_LOAD_SCHEDULER: End scheduler "s054" with entities [EventEntity, EventEntity], work=852*
148: 0x0832 [0x01] GOTO 0x085E
149: 0x0835 [0x02] IF !(Work_Zone[9] == 6*) GOTO 0x084F
150: 0x083D [0x52] END_LOAD_SCHEDULER: End scheduler "s054" with entities [EventEntity, EventEntity], work=852*
151: 0x084C [0x01] GOTO 0x085E
152: 0x084F [0x52] END_LOAD_SCHEDULER: End scheduler "s006" with entities [EventEntity, EventEntity], work=852*

SUBROUTINE_085E:
153: 0x085E [0x02] IF !(Work_Zone[9] == 5*) GOTO 0x087A
154: 0x0866 [0x45] LOAD_SCHEDULED_TASK: Load scheduler "s055" with entities [EventEntity, EventEntity], work=[852*, 0*]
155: 0x0877 [0x01] GOTO 0x08A7
156: 0x087A [0x02] IF !(Work_Zone[9] == 6*) GOTO 0x0896
157: 0x0882 [0x45] LOAD_SCHEDULED_TASK: Load scheduler "s055" with entities [EventEntity, EventEntity], work=[852*, 0*]
158: 0x0893 [0x01] GOTO 0x08A7
159: 0x0896 [0x45] LOAD_SCHEDULED_TASK: Load scheduler "s008" with entities [EventEntity, EventEntity], work=[852*, 0*]

SUBROUTINE_08A7:
160: 0x08A7 [0x7B] LocalPlayer stops talking
161: 0x08AC [0x29] REQ_SET_WAIT(priority=0x08, entity_id=Cornelia (ID: 17748018/0x010ED032), tag_num=0x39)
162: 0x08B3 [0x2B] Cornelia (ID: 17748018/0x010ED032) [11396*]:
    → "But you were the one who defeated Do'Bho Venomtail! It's not fair to leave you out of this!"
163: 0x08BA [0x23] WAIT_FOR_DIALOG_INTERACTION
164: 0x08BB [0x29] REQ_SET_WAIT(priority=0x08, entity_id=Cornelia (ID: 17748018/0x010ED032), tag_num=0x3A)
165: 0x08C2 [0x02] IF !(Work_Zone[9] == 5*) GOTO 0x08DC
166: 0x08CA [0x52] END_LOAD_SCHEDULER: End scheduler "s055" with entities [EventEntity, EventEntity], work=852*
167: 0x08D9 [0x01] GOTO 0x0905
168: 0x08DC [0x02] IF !(Work_Zone[9] == 6*) GOTO 0x08F6
169: 0x08E4 [0x52] END_LOAD_SCHEDULER: End scheduler "s055" with entities [EventEntity, EventEntity], work=852*
170: 0x08F3 [0x01] GOTO 0x0905
171: 0x08F6 [0x52] END_LOAD_SCHEDULER: End scheduler "s008" with entities [EventEntity, EventEntity], work=852*

SUBROUTINE_0905:
172: 0x0905 [0x6C] FADE_ENTITY_COLOR(entity_id=Volker (ID: 17748014/0x010ED02E), end_alpha=128*, fade_time=1*)
173: 0x090E [0x45] LOAD_SCHEDULED_TASK: Load scheduler "s007" with entities [EventEntity, EventEntity], work=[852*, 0*]
174: 0x091F [0x27] REQ_SET(priority=0x08, entity_id=Volker (ID: 17748014/0x010ED02E), tag_num=0x25)
175: 0x0926 [0x79] Cornelia (ID: 17748018/0x010ED032) looks at Volker (ID: 17748014/0x010ED02E) (Basic look)
176: 0x0930 [0x2B] Volker (ID: 17748014/0x010ED02E) [11397*]:
    → "Yes, I also believe that <Player> has a right to know the truth."
177: 0x0937 [0x1C] WAIT(20* ticks)
178: 0x093A [0x4B] UPDATE_ENTITY_YAW(entity=LocalPlayer, yaw=11.7°*)
179: 0x0941 [0x6F] WAIT_FRAME_DELAY: Yield until WaitTime reaches zero
180: 0x0942 [0x76] CHECK_ENTITY_RENDER_FLAGS: Wait until LocalPlayer Render.Flags0 and Render.Flags3 conditions are met
181: 0x0947 [0x4A] Iron Eater (ID: 17748016/0x010ED030) looks at Volker (ID: 17748014/0x010ED02E)
182: 0x0950 [0x6F] WAIT_FRAME_DELAY: Yield until WaitTime reaches zero
183: 0x0951 [0x76] CHECK_ENTITY_RENDER_FLAGS: Wait until Iron Eater (ID: 17748016/0x010ED030) Render.Flags0 and Render.Flags3 conditions are met
184: 0x0956 [0x1C] WAIT(30* ticks)
185: 0x0959 [0x52] END_LOAD_SCHEDULER: End scheduler "s007" with entities [EventEntity, EventEntity], work=852*
186: 0x0968 [0x45] LOAD_SCHEDULED_TASK: Load scheduler "s009" with entities [EventEntity, EventEntity], work=[852*, 0*]
187: 0x0979 [0x02] IF !(Work_Zone[9] == 5*) GOTO 0x098E
188: 0x0981 [0x79] LocalPlayer looks at Volker (ID: 17748014/0x010ED02E) (Basic look)
189: 0x098B [0x01] GOTO 0x09BD
190: 0x098E [0x02] IF !(Work_Zone[9] == 6*) GOTO 0x09A3
191: 0x0996 [0x79] LocalPlayer looks at Volker (ID: 17748014/0x010ED02E) (Basic look)
192: 0x09A0 [0x01] GOTO 0x09BD
193: 0x09A3 [0x4B] UPDATE_ENTITY_YAW(entity=LocalPlayer, yaw=15.4°*)
194: 0x09AA [0x1C] WAIT(30* ticks)
195: 0x09AD [0x79] LocalPlayer looks at Volker (ID: 17748014/0x010ED02E) (Basic look)
196: 0x09B7 [0x6F] WAIT_FRAME_DELAY: Yield until WaitTime reaches zero
197: 0x09B8 [0x76] CHECK_ENTITY_RENDER_FLAGS: Wait until LocalPlayer Render.Flags0 and Render.Flags3 conditions are met

SUBROUTINE_09BD:
198: 0x09BD [0x23] WAIT_FOR_DIALOG_INTERACTION
199: 0x09BE [0x2A] GET_REQ_LEVEL(level=8, entity_id=Volker (ID: 17748014/0x010ED02E))
200: 0x09C4 [0x4A] Iron Eater (ID: 17748016/0x010ED030) looks at Volker (ID: 17748014/0x010ED02E)
201: 0x09CD [0x6F] WAIT_FRAME_DELAY: Yield until WaitTime reaches zero
202: 0x09CE [0x76] CHECK_ENTITY_RENDER_FLAGS: Wait until Iron Eater (ID: 17748016/0x010ED030) Render.Flags0 and Render.Flags3 conditions are met
203: 0x09D3 [0x2B] Volker (ID: 17748014/0x010ED02E) [11398*]:
    → "Iron Eater, would you mind explaining it to [him/her]?"
204: 0x09DA [0x1C] WAIT(60* ticks)
205: 0x09DD [0x52] END_LOAD_SCHEDULER: End scheduler "s009" with entities [EventEntity, EventEntity], work=852*
206: 0x09EC [0x02] IF !(Work_Zone[9] == 5*) GOTO 0x0A08
207: 0x09F4 [0x45] LOAD_SCHEDULED_TASK: Load scheduler "s070" with entities [EventEntity, EventEntity], work=[852*, 0*]
208: 0x0A05 [0x01] GOTO 0x0A35
209: 0x0A08 [0x02] IF !(Work_Zone[9] == 6*) GOTO 0x0A24
210: 0x0A10 [0x45] LOAD_SCHEDULED_TASK: Load scheduler "s070" with entities [EventEntity, EventEntity], work=[852*, 0*]
211: 0x0A21 [0x01] GOTO 0x0A35
212: 0x0A24 [0x45] LOAD_SCHEDULED_TASK: Load scheduler "s010" with entities [EventEntity, EventEntity], work=[852*, 0*]

SUBROUTINE_0A35:
213: 0x0A35 [0x79] Volker (ID: 17748014/0x010ED02E) looks at Iron Eater (ID: 17748016/0x010ED030) (Basic look)
214: 0x0A3F [0x23] WAIT_FOR_DIALOG_INTERACTION
215: 0x0A40 [0x27] REQ_SET(priority=0x08, entity_id=Iron Eater (ID: 17748016/0x010ED030), tag_num=0x3F)
216: 0x0A47 [0x1C] WAIT(40* ticks)
217: 0x0A4A [0x02] IF !(Work_Zone[9] == 5*) GOTO 0x0A64
218: 0x0A52 [0x4A] LocalPlayer looks at Iron Eater (ID: 17748016/0x010ED030)
219: 0x0A5B [0x6F] WAIT_FRAME_DELAY: Yield until WaitTime reaches zero
220: 0x0A5C [0x76] CHECK_ENTITY_RENDER_FLAGS: Wait until LocalPlayer Render.Flags0 and Render.Flags3 conditions are met
221: 0x0A61 [0x01] GOTO 0x0A88
222: 0x0A64 [0x02] IF !(Work_Zone[9] == 6*) GOTO 0x0A7E
223: 0x0A6C [0x4A] LocalPlayer looks at Iron Eater (ID: 17748016/0x010ED030)
224: 0x0A75 [0x6F] WAIT_FRAME_DELAY: Yield until WaitTime reaches zero
225: 0x0A76 [0x76] CHECK_ENTITY_RENDER_FLAGS: Wait until LocalPlayer Render.Flags0 and Render.Flags3 conditions are met
226: 0x0A7B [0x01] GOTO 0x0A88
227: 0x0A7E [0x79] LocalPlayer looks at Iron Eater (ID: 17748016/0x010ED030) (Basic look)

SUBROUTINE_0A88:
228: 0x0A88 [0x2A] GET_REQ_LEVEL(level=8, entity_id=Iron Eater (ID: 17748016/0x010ED030))
229: 0x0A8E [0x02] IF !(Work_Zone[9] == 5*) GOTO 0x0AA8
230: 0x0A96 [0x52] END_LOAD_SCHEDULER: End scheduler "s070" with entities [EventEntity, EventEntity], work=852*
231: 0x0AA5 [0x01] GOTO 0x0AD1
232: 0x0AA8 [0x02] IF !(Work_Zone[9] == 6*) GOTO 0x0AC2
233: 0x0AB0 [0x52] END_LOAD_SCHEDULER: End scheduler "s070" with entities [EventEntity, EventEntity], work=852*
234: 0x0ABF [0x01] GOTO 0x0AD1
235: 0x0AC2 [0x52] END_LOAD_SCHEDULER: End scheduler "s010" with entities [EventEntity, EventEntity], work=852*

SUBROUTINE_0AD1:
236: 0x0AD1 [0x02] IF !(Work_Zone[9] == 5*) GOTO 0x0AED
237: 0x0AD9 [0x45] LOAD_SCHEDULED_TASK: Load scheduler "s056" with entities [EventEntity, EventEntity], work=[852*, 0*]
238: 0x0AEA [0x01] GOTO 0x0B1A
239: 0x0AED [0x02] IF !(Work_Zone[9] == 6*) GOTO 0x0B09
240: 0x0AF5 [0x45] LOAD_SCHEDULED_TASK: Load scheduler "s056" with entities [EventEntity, EventEntity], work=[852*, 0*]
241: 0x0B06 [0x01] GOTO 0x0B1A
242: 0x0B09 [0x45] LOAD_SCHEDULED_TASK: Load scheduler "s012" with entities [EventEntity, EventEntity], work=[852*, 0*]

SUBROUTINE_0B1A:
243: 0x0B1A [0x4A] Iron Eater (ID: 17748016/0x010ED030) looks at LocalPlayer
244: 0x0B23 [0x6F] WAIT_FRAME_DELAY: Yield until WaitTime reaches zero
245: 0x0B24 [0x76] CHECK_ENTITY_RENDER_FLAGS: Wait until Iron Eater (ID: 17748016/0x010ED030) Render.Flags0 and Render.Flags3 conditions are met
246: 0x0B29 [0x79] LocalPlayer looks at Iron Eater (ID: 17748016/0x010ED030) (Basic look)
247: 0x0B33 [0x29] REQ_SET_WAIT(priority=0x08, entity_id=Iron Eater (ID: 17748016/0x010ED030), tag_num=0x34)
248: 0x0B3A [0x2B] Iron Eater (ID: 17748016/0x010ED030) [11399*]:
    → "First of all, our investigation at the Zeruhn Mines went exactly as we expected. The Quadav forces came down the river from the Palborough Mines."
249: 0x0B41 [0x1C] WAIT(10* ticks)
250: 0x0B44 [0xBA] SET_ENTITY_POSITION(entity_id=Volker (ID: 17748014/0x010ED02E), pos_x=86.503*, pos_z=-1.005*, pos_y=-19.532*, direction=351.6°*)
251: 0x0B51 [0x79] Volker (ID: 17748014/0x010ED02E) looks at Cornelia (ID: 17748018/0x010ED032) (Basic look)
252: 0x0B5B [0x4B] UPDATE_ENTITY_YAW(entity=LocalPlayer, yaw=22.0°*)
253: 0x0B62 [0x7B] Cornelia (ID: 17748018/0x010ED032) stops talking
254: 0x0B67 [0x29] REQ_SET_WAIT(priority=0x08, entity_id=Cornelia (ID: 17748018/0x010ED032), tag_num=0x43)
255: 0x0B6E [0x29] REQ_SET_WAIT(priority=0x08, entity_id=Cornelia (ID: 17748018/0x010ED032), tag_num=0x44)
256: 0x0B75 [0x6F] WAIT_FRAME_DELAY: Yield until WaitTime reaches zero
257: 0x0B76 [0x76] CHECK_ENTITY_RENDER_FLAGS: Wait until LocalPlayer Render.Flags0 and Render.Flags3 conditions are met
258: 0x0B7B [0x23] WAIT_FOR_DIALOG_INTERACTION
259: 0x0B7C [0x2B] Iron Eater (ID: 17748016/0x010ED030) [11400*]:
    → "Witnesses at the scene say that the Quadav were chasing something."
260: 0x0B83 [0x23] WAIT_FOR_DIALOG_INTERACTION
261: 0x0B84 [0x29] REQ_SET_WAIT(priority=0x08, entity_id=Iron Eater (ID: 17748016/0x010ED030), tag_num=0x35)
262: 0x0B8B [0x7B] Iron Eater (ID: 17748016/0x010ED030) stops talking
263: 0x0B90 [0x27] REQ_SET(priority=0x08, entity_id=Volker (ID: 17748014/0x010ED02E), tag_num=0x26)
264: 0x0B97 [0x1C] WAIT(5* ticks)
265: 0x0B9A [0x02] IF !(Work_Zone[9] == 5*) GOTO 0x0BB4
266: 0x0BA2 [0x52] END_LOAD_SCHEDULER: End scheduler "s056" with entities [EventEntity, EventEntity], work=852*
267: 0x0BB1 [0x01] GOTO 0x0BDD
268: 0x0BB4 [0x02] IF !(Work_Zone[9] == 6*) GOTO 0x0BCE
269: 0x0BBC [0x52] END_LOAD_SCHEDULER: End scheduler "s056" with entities [EventEntity, EventEntity], work=852*
270: 0x0BCB [0x01] GOTO 0x0BDD
271: 0x0BCE [0x52] END_LOAD_SCHEDULER: End scheduler "s012" with entities [EventEntity, EventEntity], work=852*

SUBROUTINE_0BDD:
272: 0x0BDD [0x02] IF !(Work_Zone[9] == 5*) GOTO 0x0BF9
273: 0x0BE5 [0x45] LOAD_SCHEDULED_TASK: Load scheduler "s057" with entities [EventEntity, EventEntity], work=[852*, 0*]
274: 0x0BF6 [0x01] GOTO 0x0C42
275: 0x0BF9 [0x02] IF !(Work_Zone[9] == 6*) GOTO 0x0C15
276: 0x0C01 [0x45] LOAD_SCHEDULED_TASK: Load scheduler "s057" with entities [EventEntity, EventEntity], work=[852*, 0*]
277: 0x0C12 [0x01] GOTO 0x0C42
278: 0x0C15 [0x02] IF !(Work_Zone[9] == 8*) GOTO 0x0C31
279: 0x0C1D [0x45] LOAD_SCHEDULED_TASK: Load scheduler "s011" with entities [EventEntity, EventEntity], work=[852*, 0*]
280: 0x0C2E [0x01] GOTO 0x0C42
281: 0x0C31 [0x45] LOAD_SCHEDULED_TASK: Load scheduler "s081" with entities [EventEntity, EventEntity], work=[852*, 0*]

SUBROUTINE_0C42:
282: 0x0C42 [0x29] REQ_SET_WAIT(priority=0x08, entity_id=Cornelia (ID: 17748018/0x010ED032), tag_num=0x45)
283: 0x0C49 [0x2B] Iron Eater (ID: 17748016/0x010ED030) [11401*]:
    → "Meanwhile, three beastmen led by a Goblin clad in black were seen racing toward the Bastok Mines."
284: 0x0C50 [0x23] WAIT_FOR_DIALOG_INTERACTION
285: 0x0C51 [0x29] REQ_SET_WAIT(priority=0x08, entity_id=Iron Eater (ID: 17748016/0x010ED030), tag_num=0x36)
286: 0x0C58 [0x29] REQ_SET_WAIT(priority=0x08, entity_id=Cornelia (ID: 17748018/0x010ED032), tag_num=0x46)
287: 0x0C5F [0x27] REQ_SET(priority=0x08, entity_id=Cornelia (ID: 17748018/0x010ED032), tag_num=0x35)
288: 0x0C66 [0x79] Iron Eater (ID: 17748016/0x010ED030) looks at Cornelia (ID: 17748018/0x010ED032) (Basic look)
289: 0x0C70 [0x79] LocalPlayer looks at Cornelia (ID: 17748018/0x010ED032) (Basic look)
290: 0x0C7A [0x02] IF !(Work_Zone[9] == 5*) GOTO 0x0C94
291: 0x0C82 [0x52] END_LOAD_SCHEDULER: End scheduler "s057" with entities [EventEntity, EventEntity], work=852*
292: 0x0C91 [0x01] GOTO 0x0CD7
293: 0x0C94 [0x02] IF !(Work_Zone[9] == 6*) GOTO 0x0CAE
294: 0x0C9C [0x52] END_LOAD_SCHEDULER: End scheduler "s057" with entities [EventEntity, EventEntity], work=852*
295: 0x0CAB [0x01] GOTO 0x0CD7
296: 0x0CAE [0x02] IF !(Work_Zone[9] == 8*) GOTO 0x0CC8
297: 0x0CB6 [0x52] END_LOAD_SCHEDULER: End scheduler "s011" with entities [EventEntity, EventEntity], work=852*
298: 0x0CC5 [0x01] GOTO 0x0CD7
299: 0x0CC8 [0x52] END_LOAD_SCHEDULER: End scheduler "s081" with entities [EventEntity, EventEntity], work=852*

SUBROUTINE_0CD7:
300: 0x0CD7 [0x45] LOAD_SCHEDULED_TASK: Load scheduler "s013" with entities [EventEntity, EventEntity], work=[852*, 0*]
301: 0x0CE8 [0x4A] LocalPlayer looks at Cornelia (ID: 17748018/0x010ED032)
302: 0x0CF1 [0x79] Cornelia (ID: 17748018/0x010ED032) looks at LocalPlayer (Basic look)
303: 0x0CFB [0x4A] Volker (ID: 17748014/0x010ED02E) looks at Cornelia (ID: 17748018/0x010ED032)
304: 0x0D04 [0x2B] Cornelia (ID: 17748018/0x010ED032) [11402*]:
    → "What!? A black-clad Goblin? Surely, it must've been..."
305: 0x0D0B [0x23] WAIT_FOR_DIALOG_INTERACTION
306: 0x0D0C [0x29] REQ_SET_WAIT(priority=0x08, entity_id=Iron Eater (ID: 17748016/0x010ED030), tag_num=0x37)
307: 0x0D13 [0x6F] WAIT_FRAME_DELAY: Yield until WaitTime reaches zero
308: 0x0D14 [0x76] CHECK_ENTITY_RENDER_FLAGS: Wait until Volker (ID: 17748014/0x010ED02E) Render.Flags0 and Render.Flags3 conditions are met
309: 0x0D19 [0x6F] WAIT_FRAME_DELAY: Yield until WaitTime reaches zero
310: 0x0D1A [0x76] CHECK_ENTITY_RENDER_FLAGS: Wait until LocalPlayer Render.Flags0 and Render.Flags3 conditions are met
311: 0x0D1F [0x2A] GET_REQ_LEVEL(level=8, entity_id=Cornelia (ID: 17748018/0x010ED032))
312: 0x0D25 [0x2A] GET_REQ_LEVEL(level=8, entity_id=Volker (ID: 17748014/0x010ED02E))
313: 0x0D2B [0x52] END_LOAD_SCHEDULER: End scheduler "s013" with entities [EventEntity, EventEntity], work=852*
314: 0x0D3A [0x02] IF !(Work_Zone[9] == 5*) GOTO 0x0D56
315: 0x0D42 [0x45] LOAD_SCHEDULED_TASK: Load scheduler "s058" with entities [EventEntity, EventEntity], work=[852*, 0*]
316: 0x0D53 [0x01] GOTO 0x0D83
317: 0x0D56 [0x02] IF !(Work_Zone[9] == 6*) GOTO 0x0D72
318: 0x0D5E [0x45] LOAD_SCHEDULED_TASK: Load scheduler "s058" with entities [EventEntity, EventEntity], work=[852*, 0*]
319: 0x0D6F [0x01] GOTO 0x0D83
320: 0x0D72 [0x45] LOAD_SCHEDULED_TASK: Load scheduler "s014" with entities [EventEntity, EventEntity], work=[852*, 0*]

SUBROUTINE_0D83:
321: 0x0D83 [0x79] Cornelia (ID: 17748018/0x010ED032) looks at LocalPlayer (Basic look)
322: 0x0D8D [0x24] CREATE_DIALOG(message_id=11403*, default_option=0*, option_flags=0*)
    → "Who was it? [The Gloom Phantom./The Destiny Destroyers./Zeid.]"
323: 0x0D94 [0x25] WAIT_DIALOG_SELECT()
324: 0x0D95 [0x02] IF !(Work_Zone[0] == 0*) GOTO 0x0E20
325: 0x0D9D [0x4A] Volker (ID: 17748014/0x010ED02E) looks at Iron Eater (ID: 17748016/0x010ED030)
326: 0x0DA6 [0x29] REQ_SET_WAIT(priority=0x08, entity_id=LocalPlayer, tag_num=0xB3)
327: 0x0DAD [0x1C] WAIT(90* ticks)
328: 0x0DB0 [0x29] REQ_SET_WAIT(priority=0x08, entity_id=LocalPlayer, tag_num=0xB4)
329: 0x0DB7 [0x29] REQ_SET_WAIT(priority=0x08, entity_id=Cornelia (ID: 17748018/0x010ED032), tag_num=0x53)
330: 0x0DBE [0x2B] Cornelia (ID: 17748018/0x010ED032) [11404*]:
    → "Yes, that's the one! You're absolutely right!"
331: 0x0DC5 [0x23] WAIT_FOR_DIALOG_INTERACTION
332: 0x0DC6 [0x29] REQ_SET_WAIT(priority=0x08, entity_id=Cornelia (ID: 17748018/0x010ED032), tag_num=0x54)
333: 0x0DCD [0x29] REQ_SET_WAIT(priority=0x08, entity_id=Cornelia (ID: 17748018/0x010ED032), tag_num=0x55)
334: 0x0DD4 [0x6F] WAIT_FRAME_DELAY: Yield until WaitTime reaches zero
335: 0x0DD5 [0x76] CHECK_ENTITY_RENDER_FLAGS: Wait until Volker (ID: 17748014/0x010ED02E) Render.Flags0 and Render.Flags3 conditions are met
336: 0x0DDA [0x02] IF !(Work_Zone[9] == 5*) GOTO 0x0DF4
337: 0x0DE2 [0x52] END_LOAD_SCHEDULER: End scheduler "s058" with entities [EventEntity, EventEntity], work=852*
338: 0x0DF1 [0x01] GOTO 0x0E1D
339: 0x0DF4 [0x02] IF !(Work_Zone[9] == 6*) GOTO 0x0E0E
340: 0x0DFC [0x52] END_LOAD_SCHEDULER: End scheduler "s058" with entities [EventEntity, EventEntity], work=852*
341: 0x0E0B [0x01] GOTO 0x0E1D
342: 0x0E0E [0x52] END_LOAD_SCHEDULER: End scheduler "s014" with entities [EventEntity, EventEntity], work=852*

SUBROUTINE_0E1D:
343: 0x0E1D [0x01] GOTO 0x0F6F
344: 0x0E20 [0x02] IF !(Work_Zone[0] == 1*) GOTO 0x0EAB
345: 0x0E28 [0x4A] Volker (ID: 17748014/0x010ED02E) looks at Iron Eater (ID: 17748016/0x010ED030)
346: 0x0E31 [0x29] REQ_SET_WAIT(priority=0x08, entity_id=LocalPlayer, tag_num=0xB3)
347: 0x0E38 [0x1C] WAIT(90* ticks)
348: 0x0E3B [0x29] REQ_SET_WAIT(priority=0x08, entity_id=LocalPlayer, tag_num=0xB4)
349: 0x0E42 [0x29] REQ_SET_WAIT(priority=0x08, entity_id=Cornelia (ID: 17748018/0x010ED032), tag_num=0x53)
350: 0x0E49 [0x2B] Cornelia (ID: 17748018/0x010ED032) [11405*]:
    → "Yes, that's them! The group consisting of the Gloom Phantom and his friends!"
351: 0x0E50 [0x23] WAIT_FOR_DIALOG_INTERACTION
352: 0x0E51 [0x29] REQ_SET_WAIT(priority=0x08, entity_id=Cornelia (ID: 17748018/0x010ED032), tag_num=0x54)
353: 0x0E58 [0x29] REQ_SET_WAIT(priority=0x08, entity_id=Cornelia (ID: 17748018/0x010ED032), tag_num=0x55)
354: 0x0E5F [0x6F] WAIT_FRAME_DELAY: Yield until WaitTime reaches zero
355: 0x0E60 [0x76] CHECK_ENTITY_RENDER_FLAGS: Wait until Volker (ID: 17748014/0x010ED02E) Render.Flags0 and Render.Flags3 conditions are met
356: 0x0E65 [0x02] IF !(Work_Zone[9] == 5*) GOTO 0x0E7F
357: 0x0E6D [0x52] END_LOAD_SCHEDULER: End scheduler "s058" with entities [EventEntity, EventEntity], work=852*
358: 0x0E7C [0x01] GOTO 0x0EA8
359: 0x0E7F [0x02] IF !(Work_Zone[9] == 6*) GOTO 0x0E99
360: 0x0E87 [0x52] END_LOAD_SCHEDULER: End scheduler "s058" with entities [EventEntity, EventEntity], work=852*
361: 0x0E96 [0x01] GOTO 0x0EA8
362: 0x0E99 [0x52] END_LOAD_SCHEDULER: End scheduler "s014" with entities [EventEntity, EventEntity], work=852*

SUBROUTINE_0EA8:
363: 0x0EA8 [0x01] GOTO 0x0F6F
364: 0x0EAB [0x02] IF !(Work_Zone[0] == 2*) GOTO 0x0F6F
365: 0x0EB3 [0x4A] Volker (ID: 17748014/0x010ED02E) looks at Iron Eater (ID: 17748016/0x010ED030)
366: 0x0EBC [0x29] REQ_SET_WAIT(priority=0x08, entity_id=LocalPlayer, tag_num=0xB3)
367: 0x0EC3 [0x1C] WAIT(90* ticks)
368: 0x0EC6 [0x29] REQ_SET_WAIT(priority=0x08, entity_id=LocalPlayer, tag_num=0xB4)
369: 0x0ECD [0x5D] SET_MUSIC_VOLUME(volume=0*, fade_time=1*)
370: 0x0ED2 [0x29] REQ_SET_WAIT(priority=0x08, entity_id=Cornelia (ID: 17748018/0x010ED032), tag_num=0x5B)
371: 0x0ED9 [0x2B] Cornelia (ID: 17748018/0x010ED032) [11406*]:
    → "Huh!? Sure, he wears black, but I don't think it was him."
372: 0x0EE0 [0x23] WAIT_FOR_DIALOG_INTERACTION
373: 0x0EE1 [0x29] REQ_SET_WAIT(priority=0x08, entity_id=Cornelia (ID: 17748018/0x010ED032), tag_num=0x5C)
374: 0x0EE8 [0x02] IF !(Work_Zone[9] == 5*) GOTO 0x0F02
375: 0x0EF0 [0x52] END_LOAD_SCHEDULER: End scheduler "s058" with entities [EventEntity, EventEntity], work=852*
376: 0x0EFF [0x01] GOTO 0x0F2B
377: 0x0F02 [0x02] IF !(Work_Zone[9] == 6*) GOTO 0x0F1C
378: 0x0F0A [0x52] END_LOAD_SCHEDULER: End scheduler "s058" with entities [EventEntity, EventEntity], work=852*
379: 0x0F19 [0x01] GOTO 0x0F2B
380: 0x0F1C [0x52] END_LOAD_SCHEDULER: End scheduler "s014" with entities [EventEntity, EventEntity], work=852*

SUBROUTINE_0F2B:
