# 17748164

## Common Data

| Field            | Value                |
|------------------|----------------------|
| Zone             | Metalworks (ID: 237) |
| Block Size       | 63184 bytes          |
| Total Events     | 31                   |
| References Count | 643                  |

## List of Events

| Event ID              | Entrypoint   |   Size |   Instructions |
|-----------------------|--------------|--------|----------------|
| [65535](#event-65535) | 0x0000       |      1 |              1 |
| [900](#event-900)     | 0x0001       |   4541 |            681 |
| [901](#event-901)     | 0x11BE       |   2067 |            280 |
| [902](#event-902)     | 0x19D1       |   2560 |            366 |
| [903](#event-903)     | 0x23D1       |   2331 |            331 |
| [904](#event-904)     | 0x2CEC       |   2050 |            311 |
| [905](#event-905)     | 0x34EE       |   2790 |            430 |
| [906](#event-906)     | 0x3FD4       |   2370 |            336 |
| [923](#event-923)     | 0x4916       |   2038 |            268 |
| [914](#event-914)     | 0x510C       |   1602 |            219 |
| [915](#event-915)     | 0x574E       |   1624 |            225 |
| [916](#event-916)     | 0x5DA6       |   1065 |            138 |
| [917](#event-917)     | 0x61CF       |   2456 |            328 |
| [918](#event-918)     | 0x6B67       |   2480 |            329 |
| [919](#event-919)     | 0x7517       |   2495 |            328 |
| [920](#event-920)     | 0x7ED6       |   7203 |            917 |
| [921](#event-921)     | 0x9AF9       |    739 |             97 |
| [922](#event-922)     | 0x9DDC       |    708 |             93 |
| [924](#event-924)     | 0xA0A0       |   1080 |            136 |
| [925](#event-925)     | 0xA4D8       |   1162 |            153 |
| [926](#event-926)     | 0xA962       |    610 |             75 |
| [927](#event-927)     | 0xABC4       |    800 |             98 |
| [928](#event-928)     | 0xAEE4       |    812 |            103 |
| [929](#event-929)     | 0xB210       |    781 |            100 |
| [930](#event-930)     | 0xB51D       |   5876 |            777 |
| [946](#event-946)     | 0xCC11       |   1520 |            177 |
| [948](#event-948)     | 0xD201       |    692 |             80 |
| [950](#event-950)     | 0xD4B5       |   1149 |            136 |
| [953](#event-953)     | 0xD932       |    550 |             62 |
| [956](#event-956)     | 0xDB58       |    757 |             81 |
| [972](#event-972)     | 0xDE4D       |   3562 |            392 |

## DAT References (imed_data)

|   Index | Hex Value   |   Dec Value |
|---------|-------------|-------------|
|       0 | 0x0000      |           0 |
|       1 | 0x0078      |         120 |
|       2 | 0x00C8      |         200 |
|       3 | 0x0136      |         310 |
|       4 | 0x001B      |          27 |
|       5 | 0x00A3      |         163 |
|       6 | 0x0002      |           2 |
|       7 | 0x001E      |          30 |
|       8 | 0x00C6      |         198 |
|       9 | 0x003C      |          60 |
|      10 | 0x27DB      |       10203 |
|      11 | 0x00C9      |         201 |
|      12 | 0x000A      |          10 |
|      13 | 0x27DC      |       10204 |
|      14 | 0x00C5      |         197 |
|      15 | 0x27DD      |       10205 |
|      16 | 0x27DE      |       10206 |
|      17 | 0x27DF      |       10207 |
|      18 | 0x27E0      |       10208 |
|      19 | 0x27C6      |       10182 |
|      20 | 0x27C7      |       10183 |
|      21 | 0x0006      |           6 |
|      22 | 0x0019      |          25 |
|      23 | 0x27C8      |       10184 |
|      24 | 0x27C9      |       10185 |
|      25 | 0x0007      |           7 |
|      26 | 0x27CA      |       10186 |
|      27 | 0x0001      |           1 |
|      28 | 0x27CC      |       10188 |
|      29 | 0x27CD      |       10189 |
|      30 | 0x27CE      |       10190 |
|      31 | 0x27CF      |       10191 |
|      32 | 0x27D0      |       10192 |
|      33 | 0x000F      |          15 |
|      34 | 0x27D1      |       10193 |
|      35 | 0x0032      |          50 |
|      36 | 0x27D2      |       10194 |
|      37 | 0x27D3      |       10195 |
|      38 | 0x27D4      |       10196 |
|      39 | 0x27D5      |       10197 |
|      40 | 0x27D6      |       10198 |
|      41 | 0x0FA6      |        4006 |
|      42 | 0x0010      |          16 |
|      43 | 0x27D7      |       10199 |
|      44 | 0x27D8      |       10200 |
|      45 | 0x27D9      |       10201 |
|      46 | 0x27DA      |       10202 |
|      47 | 0x0008      |           8 |
|      48 | 0x27E1      |       10209 |
|      49 | 0x27E2      |       10210 |
|      50 | 0x27E3      |       10211 |
|      51 | 0x02D7      |         727 |
|      52 | 0x27E4      |       10212 |
|      53 | 0x27E6      |       10214 |
|      54 | 0x27E7      |       10215 |
|      55 | 0x27E8      |       10216 |
|      56 | 0x0003      |           3 |
|      57 | 0x27E9      |       10217 |
|      58 | 0x0004      |           4 |
|      59 | 0x27EA      |       10218 |
|      60 | 0x0005      |           5 |
|      61 | 0x27EB      |       10219 |
|      62 | 0x27EC      |       10220 |
|      63 | 0x27EE      |       10222 |
|      64 | 0x27E5      |       10213 |
|      65 | 0x27ED      |       10221 |
|      66 | 0x27EF      |       10223 |
|      67 | 0x27F0      |       10224 |
|      68 | 0x27F1      |       10225 |
|      69 | 0x27F2      |       10226 |
|      70 | 0x27F3      |       10227 |
|      71 | 0x27F4      |       10228 |
|      72 | 0x27F5      |       10229 |
|      73 | 0x27F6      |       10230 |
|      74 | 0x27F7      |       10231 |
|      75 | 0x27F8      |       10232 |
|      76 | 0x27F9      |       10233 |
|      77 | 0x27FA      |       10234 |
|      78 | 0x27FB      |       10235 |
|      79 | 0x27FF      |       10239 |
|      80 | 0x005A      |          90 |
|      81 | 0x2800      |       10240 |
|      82 | 0x27FC      |       10236 |
|      83 | 0x27FD      |       10237 |
|      84 | 0x27FE      |       10238 |
|      85 | 0x2801      |       10241 |
|      86 | 0x2802      |       10242 |
|      87 | 0x00B4      |         180 |
|      88 | 0x07F5      |        2037 |
|      89 | 0x28DD      |       10461 |
|      90 | 0x28DE      |       10462 |
|      91 | 0x28DF      |       10463 |
|      92 | 0x28C7      |       10439 |
|      93 | 0x28E0      |       10464 |
|      94 | 0x28E1      |       10465 |
|      95 | 0x28E2      |       10466 |
|      96 | 0x28E3      |       10467 |
|      97 | 0x28E4      |       10468 |
|      98 | 0x2803      |       10243 |
|      99 | 0x2804      |       10244 |
|     100 | 0x2805      |       10245 |
|     101 | 0x0009      |           9 |
|     102 | 0x000B      |          11 |
|     103 | 0x000C      |          12 |
|     104 | 0x000D      |          13 |
|     105 | 0x000E      |          14 |
|     106 | 0x2806      |       10246 |
|     107 | 0x009A      |         154 |
|     108 | 0x288A      |       10378 |
|     109 | 0x280B      |       10251 |
|     110 | 0x288C      |       10380 |
|     111 | 0x2907      |       10503 |
|     112 | 0x2908      |       10504 |
|     113 | 0x2909      |       10505 |
|     114 | 0x0B3B      |        2875 |
|     115 | 0x280E      |       10254 |
|     116 | 0x280F      |       10255 |
|     117 | 0x2814      |       10260 |
|     118 | 0x288B      |       10379 |
|     119 | 0x2892      |       10386 |
|     120 | 0x2810      |       10256 |
|     121 | 0x2811      |       10257 |
|     122 | 0x2812      |       10258 |
|     123 | 0x280C      |       10252 |
|     124 | 0x280D      |       10253 |
|     125 | 0x0EC6      |        3782 |
|     126 | 0x2813      |       10259 |
|     127 | 0x0F3F      |        3903 |
|     128 | 0x0127      |         295 |
|     129 | 0x2815      |       10261 |
|     130 | 0x2817      |       10263 |
|     131 | 0x2816      |       10262 |
|     132 | 0x2893      |       10387 |
|     133 | 0x0AC6      |        2758 |
|     134 | 0x282A      |       10282 |
|     135 | 0x058F      |        1423 |
|     136 | 0x282B      |       10283 |
|     137 | 0x282C      |       10284 |
|     138 | 0x282D      |       10285 |
|     139 | 0x282E      |       10286 |
|     140 | 0x282F      |       10287 |
|     141 | 0x281B      |       10267 |
|     142 | 0x281D      |       10269 |
|     143 | 0x281C      |       10268 |
|     144 | 0x281E      |       10270 |
|     145 | 0x281F      |       10271 |
|     146 | 0x2820      |       10272 |
|     147 | 0x2821      |       10273 |
|     148 | 0x2822      |       10274 |
|     149 | 0x2823      |       10275 |
|     150 | 0x2824      |       10276 |
|     151 | 0x2825      |       10277 |
|     152 | 0x2826      |       10278 |
|     153 | 0x2827      |       10279 |
|     154 | 0x2828      |       10280 |
|     155 | 0x2829      |       10281 |
|     156 | 0x012B      |         299 |
|     157 | 0x0A85      |        2693 |
|     158 | 0x2849      |       10313 |
|     159 | 0x284A      |       10314 |
|     160 | 0x284B      |       10315 |
|     161 | 0x284C      |       10316 |
|     162 | 0x284D      |       10317 |
|     163 | 0x284E      |       10318 |
|     164 | 0x284F      |       10319 |
|     165 | 0x2850      |       10320 |
|     166 | 0x2851      |       10321 |
|     167 | 0x2832      |       10290 |
|     168 | 0x2833      |       10291 |
|     169 | 0x2834      |       10292 |
|     170 | 0x2895      |       10389 |
|     171 | 0x0027      |          39 |
|     172 | 0x0037      |          55 |
|     173 | 0x2896      |       10390 |
|     174 | 0x2897      |       10391 |
|     175 | 0x2835      |       10293 |
|     176 | 0x2836      |       10294 |
|     177 | 0x2837      |       10295 |
|     178 | 0x2838      |       10296 |
|     179 | 0x2839      |       10297 |
|     180 | 0x283A      |       10298 |
|     181 | 0x283B      |       10299 |
|     182 | 0x283C      |       10300 |
|     183 | 0x283D      |       10301 |
|     184 | 0x283E      |       10302 |
|     185 | 0x283F      |       10303 |
|     186 | 0x2840      |       10304 |
|     187 | 0x2841      |       10305 |
|     188 | 0x2842      |       10306 |
|     189 | 0x2843      |       10307 |
|     190 | 0x2844      |       10308 |
|     191 | 0x2845      |       10309 |
|     192 | 0x2846      |       10310 |
|     193 | 0x2847      |       10311 |
|     194 | 0x2848      |       10312 |
|     195 | 0x0832      |        2098 |
|     196 | 0x2818      |       10264 |
|     197 | 0x2819      |       10265 |
|     198 | 0x281A      |       10266 |
|     199 | 0x2894      |       10388 |
|     200 | 0x0E1E      |        3614 |
|     201 | 0x2831      |       10289 |
|     202 | 0x2993      |       10643 |
|     203 | 0x2991      |       10641 |
|     204 | 0x2992      |       10642 |
|     205 | 0x2994      |       10644 |
|     206 | 0x2995      |       10645 |
|     207 | 0x2996      |       10646 |
|     208 | 0x2997      |       10647 |
|     209 | 0x00C4      |         196 |
|     210 | 0x2990      |       10640 |
|     211 | 0x29A1      |       10657 |
|     212 | 0x29A2      |       10658 |
|     213 | 0x001C      |          28 |
|     214 | 0x29A3      |       10659 |
|     215 | 0x29A4      |       10660 |
|     216 | 0x29A5      |       10661 |
|     217 | 0x29A6      |       10662 |
|     218 | 0x29A7      |       10663 |
|     219 | 0x29A8      |       10664 |
|     220 | 0x29A9      |       10665 |
|     221 | 0x29AA      |       10666 |
|     222 | 0x2998      |       10648 |
|     223 | 0x2999      |       10649 |
|     224 | 0x299A      |       10650 |
|     225 | 0x299B      |       10651 |
|     226 | 0x299C      |       10652 |
|     227 | 0x299D      |       10653 |
|     228 | 0x02AC      |         684 |
|     229 | 0x299E      |       10654 |
|     230 | 0x299F      |       10655 |
|     231 | 0x29A0      |       10656 |
|     232 | 0x020A      |         522 |
|     233 | 0x2905      |       10501 |
|     234 | 0x0020      |          32 |
|     235 | 0x2906      |       10502 |
|     236 | 0x29AB      |       10667 |
|     237 | 0x29AC      |       10668 |
|     238 | 0x29AD      |       10669 |
|     239 | 0x29AE      |       10670 |
|     240 | 0x29AF      |       10671 |
|     241 | 0x29B0      |       10672 |
|     242 | 0x00EE      |         238 |
|     243 | 0x29B1      |       10673 |
|     244 | 0x29B3      |       10675 |
|     245 | 0x29B4      |       10676 |
|     246 | 0x29B2      |       10674 |
|     247 | 0x29B5      |       10677 |
|     248 | 0x29B6      |       10678 |
|     249 | 0x29B7      |       10679 |
|     250 | 0x29B8      |       10680 |
|     251 | 0x29B9      |       10681 |
|     252 | 0x2898      |       10392 |
|     253 | 0x0016      |          22 |
|     254 | 0x2899      |       10393 |
|     255 | 0x289A      |       10394 |
|     256 | 0x28B8      |       10424 |
|     257 | 0x28B9      |       10425 |
|     258 | 0x28BA      |       10426 |
|     259 | 0x28BB      |       10427 |
|     260 | 0x004B      |          75 |
|     261 | 0x28BC      |       10428 |
|     262 | 0x0801      |        2049 |
|     263 | 0x28BD      |       10429 |
|     264 | 0x28BE      |       10430 |
|     265 | 0x28CE      |       10446 |
|     266 | 0x28DA      |       10458 |
|     267 | 0x28DB      |       10459 |
|     268 | 0x28DC      |       10460 |
|     269 | 0x28FA      |       10490 |
|     270 | 0x0014      |          20 |
|     271 | 0x28FB      |       10491 |
|     272 | 0x28FC      |       10492 |
|     273 | 0x28FD      |       10493 |
|     274 | 0x2925      |       10533 |
|     275 | 0x2926      |       10534 |
|     276 | 0x2927      |       10535 |
|     277 | 0x2928      |       10536 |
|     278 | 0x0022      |          34 |
|     279 | 0x2929      |       10537 |
|     280 | 0x292A      |       10538 |
|     281 | 0x292B      |       10539 |
|     282 | 0x292C      |       10540 |
|     283 | 0x292D      |       10541 |
|     284 | 0x0018      |          24 |
|     285 | 0x292E      |       10542 |
|     286 | 0x292F      |       10543 |
|     287 | 0x2930      |       10544 |
|     288 | 0x2931      |       10545 |
|     289 | 0x2932      |       10546 |
|     290 | 0x0015      |          21 |
|     291 | 0x2933      |       10547 |
|     292 | 0x2934      |       10548 |
|     293 | 0x2935      |       10549 |
|     294 | 0x2936      |       10550 |
|     295 | 0x2937      |       10551 |
|     296 | 0x2938      |       10552 |
|     297 | 0x2939      |       10553 |
|     298 | 0x293A      |       10554 |
|     299 | 0x293B      |       10555 |
|     300 | 0x293C      |       10556 |
|     301 | 0x0F6B      |        3947 |
|     302 | 0x293D      |       10557 |
|     303 | 0x293E      |       10558 |
|     304 | 0x293F      |       10559 |
|     305 | 0x2940      |       10560 |
|     306 | 0x2941      |       10561 |
|     307 | 0x2942      |       10562 |
|     308 | 0x2943      |       10563 |
|     309 | 0x2944      |       10564 |
|     310 | 0x2945      |       10565 |
|     311 | 0x2946      |       10566 |
|     312 | 0x2947      |       10567 |
|     313 | 0x2948      |       10568 |
|     314 | 0x2949      |       10569 |
|     315 | 0x294A      |       10570 |
|     316 | 0x294B      |       10571 |
|     317 | 0x294C      |       10572 |
|     318 | 0x294D      |       10573 |
|     319 | 0x294E      |       10574 |
|     320 | 0x294F      |       10575 |
|     321 | 0x2950      |       10576 |
|     322 | 0x2951      |       10577 |
|     323 | 0x2952      |       10578 |
|     324 | 0x2953      |       10579 |
|     325 | 0x2954      |       10580 |
|     326 | 0x2955      |       10581 |
|     327 | 0x2956      |       10582 |
|     328 | 0x2957      |       10583 |
|     329 | 0x009F      |         159 |
|     330 | 0x2958      |       10584 |
|     331 | 0x2959      |       10585 |
|     332 | 0x295A      |       10586 |
|     333 | 0x295B      |       10587 |
|     334 | 0x295C      |       10588 |
|     335 | 0x295D      |       10589 |
|     336 | 0x295E      |       10590 |
|     337 | 0x295F      |       10591 |
|     338 | 0x2960      |       10592 |
|     339 | 0x2961      |       10593 |
|     340 | 0x2962      |       10594 |
|     341 | 0x2963      |       10595 |
|     342 | 0x0313      |         787 |
|     343 | 0x2964      |       10596 |
|     344 | 0x0BAB      |        2987 |
|     345 | 0x2965      |       10597 |
|     346 | 0x2966      |       10598 |
|     347 | 0x2967      |       10599 |
|     348 | 0x2968      |       10600 |
|     349 | 0x2969      |       10601 |
|     350 | 0x296A      |       10602 |
|     351 | 0x296B      |       10603 |
|     352 | 0x296C      |       10604 |
|     353 | 0x00F0      |         240 |
|     354 | 0x00C7      |         199 |
|     355 | 0x296D      |       10605 |
|     356 | 0x296E      |       10606 |
|     357 | 0x296F      |       10607 |
|     358 | 0x2970      |       10608 |
|     359 | 0x2971      |       10609 |
|     360 | 0x2972      |       10610 |
|     361 | 0x2973      |       10611 |
|     362 | 0x2974      |       10612 |
|     363 | 0x2975      |       10613 |
|     364 | 0x001D      |          29 |
|     365 | 0x2976      |       10614 |
|     366 | 0x2977      |       10615 |
|     367 | 0x2978      |       10616 |
|     368 | 0x2979      |       10617 |
|     369 | 0x297A      |       10618 |
|     370 | 0x297B      |       10619 |
|     371 | 0x297C      |       10620 |
|     372 | 0x297D      |       10621 |
|     373 | 0x297E      |       10622 |
|     374 | 0x297F      |       10623 |
|     375 | 0x2980      |       10624 |
|     376 | 0x2981      |       10625 |
|     377 | 0x2982      |       10626 |
|     378 | 0x2983      |       10627 |
|     379 | 0x2984      |       10628 |
|     380 | 0x2985      |       10629 |
|     381 | 0x288E      |       10382 |
|     382 | 0x286F      |       10351 |
|     383 | 0x2870      |       10352 |
|     384 | 0x2871      |       10353 |
|     385 | 0x2874      |       10356 |
|     386 | 0x2872      |       10354 |
|     387 | 0x2873      |       10355 |
|     388 | 0x288D      |       10381 |
|     389 | 0x288F      |       10383 |
|     390 | 0x287E      |       10366 |
|     391 | 0x287F      |       10367 |
|     392 | 0x2880      |       10368 |
|     393 | 0x2883      |       10371 |
|     394 | 0x2881      |       10369 |
|     395 | 0x2882      |       10370 |
|     396 | 0x012D      |         301 |
|     397 | 0x28AC      |       10412 |
|     398 | 0x0C98      |        3224 |
|     399 | 0x28AD      |       10413 |
|     400 | 0x0491      |        1169 |
|     401 | 0x28AE      |       10414 |
|     402 | 0x28AF      |       10415 |
|     403 | 0x28B0      |       10416 |
|     404 | 0x0E17      |        3607 |
|     405 | 0x28B1      |       10417 |
|     406 | 0x0510      |        1296 |
|     407 | 0x28B2      |       10418 |
|     408 | 0x0C4C      |        3148 |
|     409 | 0x28B3      |       10419 |
|     410 | 0x0872      |        2162 |
|     411 | 0x28B4      |       10420 |
|     412 | 0x00D0      |         208 |
|     413 | 0x28B5      |       10421 |
|     414 | 0x28B6      |       10422 |
|     415 | 0x28B7      |       10423 |
|     416 | 0x08BA      |        2234 |
|     417 | 0x28C8      |       10440 |
|     418 | 0x28C9      |       10441 |
|     419 | 0x28CA      |       10442 |
|     420 | 0x28CB      |       10443 |
|     421 | 0x03AF      |         943 |
|     422 | 0x28CC      |       10444 |
|     423 | 0x28CD      |       10445 |
|     424 | 0x28D3      |       10451 |
|     425 | 0x28D4      |       10452 |
|     426 | 0x28D5      |       10453 |
|     427 | 0x28D6      |       10454 |
|     428 | 0x28D7      |       10455 |
|     429 | 0x28D8      |       10456 |
|     430 | 0x28D9      |       10457 |
|     431 | 0x28F2      |       10482 |
|     432 | 0x28F3      |       10483 |
|     433 | 0x28F4      |       10484 |
|     434 | 0x28F5      |       10485 |
|     435 | 0x28F6      |       10486 |
|     436 | 0x28F7      |       10487 |
|     437 | 0x28F8      |       10488 |
|     438 | 0x28F9      |       10489 |
|     439 | 0x28FE      |       10494 |
|     440 | 0x28FF      |       10495 |
|     441 | 0x2900      |       10496 |
|     442 | 0x2901      |       10497 |
|     443 | 0x2902      |       10498 |
|     444 | 0x2903      |       10499 |
|     445 | 0x2904      |       10500 |
|     446 | 0x2912      |       10514 |
|     447 | 0x07AE      |        1966 |
|     448 | 0x2913      |       10515 |
|     449 | 0x2914      |       10516 |
|     450 | 0x2915      |       10517 |
|     451 | 0x2916      |       10518 |
|     452 | 0x2917      |       10519 |
|     453 | 0x2918      |       10520 |
|     454 | 0x2919      |       10521 |
|     455 | 0x291A      |       10522 |
|     456 | 0x291B      |       10523 |
|     457 | 0x291C      |       10524 |
|     458 | 0x291D      |       10525 |
|     459 | 0x291E      |       10526 |
|     460 | 0x291F      |       10527 |
|     461 | 0x2920      |       10528 |
|     462 | 0x2921      |       10529 |
|     463 | 0x2922      |       10530 |
|     464 | 0x2923      |       10531 |
|     465 | 0x2924      |       10532 |
|     466 | 0xFFFFCA3A  |  4294953530 |
|     467 | 0xFFFFB5F2  |  4294948338 |
|     468 | 0xFFFFD8F0  |  4294957296 |
|     469 | 0x0802      |        2050 |
|     470 | 0xFFFFAC5E  |  4294945886 |
|     471 | 0xFFFF9B6A  |  4294941546 |
|     472 | 0xFFFFD8F1  |  4294957297 |
|     473 | 0x03D1      |         977 |
|     474 | 0xFFFFBAB1  |  4294949553 |
|     475 | 0xFFFF8BEC  |  4294937580 |
|     476 | 0x07D6      |        2006 |
|     477 | 0x014C      |         332 |
|     478 | 0x29E4      |       10724 |
|     479 | 0x29E5      |       10725 |
|     480 | 0xFFFFC9B5  |  4294953397 |
|     481 | 0xFFFFAD59  |  4294946137 |
|     482 | 0x0B4A      |        2890 |
|     483 | 0xFFFFCE1D  |  4294954525 |
|     484 | 0xFFFFADE0  |  4294946272 |
|     485 | 0x0C0E      |        3086 |
|     486 | 0x29E6      |       10726 |
|     487 | 0x29E7      |       10727 |
|     488 | 0x29E8      |       10728 |
|     489 | 0x29E9      |       10729 |
|     490 | 0x29EA      |       10730 |
|     491 | 0x29EB      |       10731 |
|     492 | 0x29EC      |       10732 |
|     493 | 0x29ED      |       10733 |
|     494 | 0x29EE      |       10734 |
|     495 | 0x29EF      |       10735 |
|     496 | 0xFFFFB988  |  4294949256 |
|     497 | 0xFFFFAC6F  |  4294945903 |
|     498 | 0x0172      |         370 |
|     499 | 0x29F0      |       10736 |
|     500 | 0x29F1      |       10737 |
|     501 | 0x29F2      |       10738 |
|     502 | 0x29F3      |       10739 |
|     503 | 0x29F4      |       10740 |
|     504 | 0x29F5      |       10741 |
|     505 | 0x29F6      |       10742 |
|     506 | 0x29F7      |       10743 |
|     507 | 0x29F8      |       10744 |
|     508 | 0x29F9      |       10745 |
|     509 | 0xFFFFBF3F  |  4294950719 |
|     510 | 0xFFFF99FD  |  4294941181 |
|     511 | 0x00A8      |         168 |
|     512 | 0x29FB      |       10747 |
|     513 | 0x29FC      |       10748 |
|     514 | 0x29FD      |       10749 |
|     515 | 0x29FE      |       10750 |
|     516 | 0x29FF      |       10751 |
|     517 | 0x2A00      |       10752 |
|     518 | 0x2A01      |       10753 |
|     519 | 0x2A02      |       10754 |
|     520 | 0x2A03      |       10755 |
|     521 | 0x2A04      |       10756 |
|     522 | 0x2A05      |       10757 |
|     523 | 0xFFFFBF6A  |  4294950762 |
|     524 | 0xFFFF9B17  |  4294941463 |
|     525 | 0x2A07      |       10759 |
|     526 | 0x2A08      |       10760 |
|     527 | 0x2A09      |       10761 |
|     528 | 0x2A0A      |       10762 |
|     529 | 0x2A0B      |       10763 |
|     530 | 0x2A0C      |       10764 |
|     531 | 0x2A0D      |       10765 |
|     532 | 0x2A0E      |       10766 |
|     533 | 0x2A0F      |       10767 |
|     534 | 0x2A10      |       10768 |
|     535 | 0x2A11      |       10769 |
|     536 | 0x2A12      |       10770 |
|     537 | 0x2A13      |       10771 |
|     538 | 0x2A14      |       10772 |
|     539 | 0x0137      |         311 |
|     540 | 0x0013      |          19 |
|     541 | 0x2133C     |      135996 |
|     542 | 0xFFFF7415  |  4294931477 |
|     543 | 0xFFFFB7D5  |  4294948821 |
|     544 | 0x04A7      |        1191 |
|     545 | 0x014B      |         331 |
|     546 | 0x2A1A      |       10778 |
|     547 | 0x2A1B      |       10779 |
|     548 | 0x2A1C      |       10780 |
|     549 | 0x2A1D      |       10781 |
|     550 | 0x2A1E      |       10782 |
|     551 | 0x2A1F      |       10783 |
|     552 | 0x2A20      |       10784 |
|     553 | 0x2A21      |       10785 |
|     554 | 0x162F9     |       90873 |
|     555 | 0xFFFFFF78  |  4294967160 |
|     556 | 0xFFFFB3B4  |  4294947764 |
|     557 | 0x0D96      |        3478 |
|     558 | 0x014D      |         333 |
|     559 | 0x0045      |          69 |
|     560 | 0x2A23      |       10787 |
|     561 | 0x2A24      |       10788 |
|     562 | 0x2A25      |       10789 |
|     563 | 0x2A26      |       10790 |
|     564 | 0x2A27      |       10791 |
|     565 | 0x2A28      |       10792 |
|     566 | 0x2A29      |       10793 |
|     567 | 0x2A2A      |       10794 |
|     568 | 0x2A2B      |       10795 |
|     569 | 0x2A2C      |       10796 |
|     570 | 0x2A2D      |       10797 |
|     571 | 0x012F      |         303 |
|     572 | 0x18E3A     |      101946 |
|     573 | 0x0364      |         868 |
|     574 | 0xFFFFB12B  |  4294947115 |
|     575 | 0x0784      |        1924 |
|     576 | 0x18E0A     |      101898 |
|     577 | 0xFFFFFD0E  |  4294966542 |
|     578 | 0x1921C     |      102940 |
|     579 | 0x08DB      |        2267 |
|     580 | 0x19280     |      103040 |
|     581 | 0xFFFFF735  |  4294965045 |
|     582 | 0xFFFFB136  |  4294947126 |
|     583 | 0x1A1EE     |      106990 |
|     584 | 0x07BB      |        1979 |
|     585 | 0x1896D     |      100717 |
|     586 | 0xFFFFF9C9  |  4294965705 |
|     587 | 0x0FEC      |        4076 |
|     588 | 0x0512      |        1298 |
|     589 | 0x007A      |         122 |
|     590 | 0x0212      |         530 |
|     591 | 0x2A89      |       10889 |
|     592 | 0x2A8A      |       10890 |
|     593 | 0x0F4B      |        3915 |
|     594 | 0x1A313     |      107283 |
|     595 | 0x0611      |        1553 |
|     596 | 0xFFFFACBE  |  4294945982 |
|     597 | 0x00D7      |         215 |
|     598 | 0x05E9      |        1513 |
|     599 | 0x2A8B      |       10891 |
|     600 | 0x2A8C      |       10892 |
|     601 | 0x18FA3     |      102307 |
|     602 | 0x08AE      |        2222 |
|     603 | 0x2A8D      |       10893 |
|     604 | 0x2A8E      |       10894 |
|     605 | 0x0096      |         150 |
|     606 | 0x2A8F      |       10895 |
|     607 | 0x2A90      |       10896 |
|     608 | 0x008C      |         140 |
|     609 | 0x2A91      |       10897 |
|     610 | 0x2A92      |       10898 |
|     611 | 0x2A93      |       10899 |
|     612 | 0x2A94      |       10900 |
|     613 | 0x2A95      |       10901 |
|     614 | 0x2A96      |       10902 |
|     615 | 0x2A97      |       10903 |
|     616 | 0x00F3      |         243 |
|     617 | 0x2A98      |       10904 |
|     618 | 0x2A99      |       10905 |
|     619 | 0x2A9A      |       10906 |
|     620 | 0x2A9B      |       10907 |
|     621 | 0x3DF1      |       15857 |
|     622 | 0x2A9C      |       10908 |
|     623 | 0x2A9D      |       10909 |
|     624 | 0x2A9E      |       10910 |
|     625 | 0x2A9F      |       10911 |
|     626 | 0x2AA0      |       10912 |
|     627 | 0x18C65     |      101477 |
|     628 | 0x056A      |        1386 |
|     629 | 0x0F88      |        3976 |
|     630 | 0x1940D     |      103437 |
|     631 | 0x0409      |        1033 |
|     632 | 0x2AA1      |       10913 |
|     633 | 0x0A67      |        2663 |
|     634 | 0x0A71      |        2673 |
|     635 | 0x09BD      |        2493 |
|     636 | 0x2AA2      |       10914 |
|     637 | 0x2AA3      |       10915 |
|     638 | 0x0976      |        2422 |
|     639 | 0x18D68     |      101736 |
|     640 | 0xFFFFF876  |  4294965366 |
|     641 | 0x0B82      |        2946 |
|     642 | 0x2AA4      |       10916 |

## String References

- **10212**: Choose your weapon! [Scope./Bard's harp./Lead Guardsman's ID./Snares./Lucky charm./Pocket watch./3.]
- **10213**: Choose your weapon! [Scope./Bard's harp./Lead Guardsman's ID./Snares./Lucky charm./Pocket watch./???.]
- **10222**: Really choose this item? [My mind's made up!/Then again, maybe not.]
- **10225**: Pick a place to lay your traps. [1st floor - Near the kiln./1st floor - Shop./1st floor - Cermet Refinery./1st floor - Metalworks replica./2nd floor - Gunpowder Room./2nd floor - Cid's Lab./Finished.]
- **10246**: You have one Earth hour to finish your task.
- **10378**: Your plan of action? [Chat./Use the scope.]
- **10503**: What will you do? [Chat./Use the $3.]
- **10505**: Which will you use? [Knitted cap./Spectacles./Silver heels.]
- **10601**: Groudinguet begins to sing of the first time the lead guardsman stood on duty.
- **10737**: Have something to say? [A whole mouthful./Ah...maybe not...]

## Events

### Event 65535

#### Metadata

| Field        | Value   |
|--------------|---------|
| Entrypoint   | 0x0000  |
| Data Size    | 1 bytes |
| Instructions | 1       |

```
      00 01 02 03 04 05 06 07  08 09 0A 0B 0C 0D 0E 0F
      -- -- -- -- -- -- -- --  -- -- -- -- -- -- -- --
0000: 00                                                .               
```

#### Opcodes

```
  0: 0x0000 [0x00] END_REQSTACK()
```

### Event 900

#### Metadata

| Field        | Value      |
|--------------|------------|
| Entrypoint   | 0x0001     |
| Data Size    | 4541 bytes |
| Instructions | 681        |

```
      00 01 02 03 04 05 06 07  08 09 0A 0B 0C 0D 0E 0F
      -- -- -- -- -- -- -- --  -- -- -- -- -- -- -- --
0000:    42 03 01 10 00 80 03  0B 00 00 80 5D 00 80 01   B..........]...
0010: 80 45 02 80 F8 FF FF 7F  F8 FF FF 7F 66 64 6F 31  .E..........fdo1
0020: 00 80 55 02 80 F8 FF FF  7F F8 FF FF 7F 66 64 6F  ..U..........fdo
0030: 31 46 01 75 00 03 80 75  01 38 04 80 27 0A F0 FF  1F.u...u.8..'...
0040: FF 7F 73 2F 00 B0 D0 0E  01 2F 00 AF D0 0E 01 4E  ..s/...../.....N
0050: 00 AF D0 0E 01 4E 00 B2  D0 0E 01 4E 00 B3 D0 0E  .....N.....N....
0060: 01 29 14 B2 D0 0E 01 02  29 19 B3 D0 0E 01 02 5C  .)......)......\
0070: 00 05 80 5C 01 05 80 02  08 10 06 80 00 EE 01 4E  ...\...........N
0080: 00 B8 D0 0E 01 29 05 B8  D0 0E 01 02 4A B8 D0 0E  .....)......J...
0090: 01 F0 FF FF 7F 1C 07 80  92 01 B8 D0 0E 01 27 0A  ..............'.
00A0: B8 D0 0E 01 03 45 08 80  F8 FF FF 7F F8 FF FF 7F  .....E..........
00B0: 73 30 33 37 00 80 1C 09  80 45 02 80 F8 FF FF 7F  s037.....E......
00C0: F8 FF FF 7F 66 64 69 31  00 80 1C 09 80 4A F0 FF  ....fdi1.....J..
00D0: FF 7F B8 D0 0E 01 2B B8  D0 0E 01 0A 80 23 2A 0A  ......+......#*.
00E0: B8 D0 0E 01 45 0B 80 F0  FF FF 7F F0 FF FF 7F 77  ....E..........w
00F0: 68 6F 31 00 80 55 0B 80  F0 FF FF 7F F0 FF FF 7F  ho1..U..........
0100: 77 68 6F 31 4E 01 B8 D0  0E 01 2F 01 B8 D0 0E 01  who1N...../.....
0110: 4E 00 B0 D0 0E 01 4A B0  D0 0E 01 F0 FF FF 7F 4A  N.....J........J
0120: F0 FF FF 7F B0 D0 0E 01  1C 09 80 45 0B 80 F0 FF  ...........E....
0130: FF 7F F0 FF FF 7F 77 68  69 31 00 80 1C 09 80 6E  ......whi1.....n
0140: B0 D0 0E 01 0C 80 99 B0  D0 0E 01 2B B0 D0 0E 01  ...........+....
0150: 0D 80 23 52 08 80 F8 FF  FF 7F F8 FF FF 7F 73 30  ..#R..........s0
0160: 33 37 45 0E 80 F8 FF FF  7F F8 FF FF 7F 73 30 30  37E..........s00
0170: 32 00 80 27 0A AF D0 0E  01 03 1C 09 80 4A B0 D0  2..'.........J..
0180: 0E 01 AF D0 0E 01 1C 09  80 4A F0 FF FF 7F AF D0  .........J......
0190: 0E 01 2B AF D0 0E 01 0F  80 23 2B B0 D0 0E 01 10  ..+......#+.....
01A0: 80 23 2A 0A AF D0 0E 01  4A AF D0 0E 01 F0 FF FF  .#*.....J.......
01B0: 7F 1C 07 80 2B AF D0 0E  01 11 80 23 52 0E 80 F8  ....+......#R...
01C0: FF FF 7F F8 FF FF 7F 73  30 30 32 45 0E 80 F8 FF  .......s002E....
01D0: FF 7F F8 FF FF 7F 73 30  30 38 00 80 27 0F AF D0  ......s008..'...
01E0: 0E 01 04 2B AF D0 0E 01  12 80 23 01 AA 05 4E 00  ...+......#...N.
01F0: B1 D0 0E 01 80 B1 D0 0E  01 92 01 B1 D0 0E 01 27  ...............'
0200: 05 B1 D0 0E 01 02 45 0E  80 F8 FF FF 7F F8 FF FF  ......E.........
0210: 7F 73 30 30 30 00 80 1C  09 80 45 02 80 F8 FF FF  .s000.....E.....
0220: 7F F8 FF FF 7F 66 64 69  31 00 80 1C 09 80 4A F0  .....fdi1.....J.
0230: FF FF 7F B1 D0 0E 01 2B  B1 D0 0E 01 13 80 23 2A  .......+......#*
0240: 05 B1 D0 0E 01 4A F0 FF  FF 7F B1 D0 0E 01 1C 09  .....J..........
0250: 80 52 0E 80 F8 FF FF 7F  F8 FF FF 7F 73 30 30 30  .R..........s000
0260: 45 0E 80 F8 FF FF 7F F8  FF FF 7F 73 30 30 31 00  E..........s001.
0270: 80 4A B1 D0 0E 01 F0 FF  FF 7F 2B B1 D0 0E 01 14  .J........+.....
0280: 80 23 6E F0 FF FF 7F 15  80 99 F0 FF FF 7F 1C 09  .#n.............
0290: 80 52 0E 80 F8 FF FF 7F  F8 FF FF 7F 73 30 30 31  .R..........s001
02A0: 45 0E 80 F8 FF FF 7F F8  FF FF 7F 73 30 30 32 00  E..........s002.
02B0: 80 6E B1 D0 0E 01 16 80  99 B1 D0 0E 01 2B B1 D0  .n...........+..
02C0: 0E 01 17 80 23 27 0A AF  D0 0E 01 02 1C 09 80 4A  ....#'.........J
02D0: B1 D0 0E 01 AF D0 0E 01  1C 09 80 4A F0 FF FF 7F  ...........J....
02E0: AF D0 0E 01 2B AF D0 0E  01 18 80 23 6E B1 D0 0E  ....+......#n...
02F0: 01 19 80 99 B1 D0 0E 01  2B B1 D0 0E 01 1A 80 23  ........+......#
0300: 2A 0A AF D0 0E 01 4A AF  D0 0E 01 F0 FF FF 7F 02  *.....J.........
0310: 08 10 1B 80 00 22 03 2B  AF D0 0E 01 1C 80 23 01  .....".+......#.
0320: 2A 03 2B AF D0 0E 01 1D  80 23 1C 09 80 45 02 80  *.+......#...E..
0330: F0 FF FF 7F F0 FF FF 7F  6F 76 6C 31 00 80 52 0E  ........ovl1..R.
0340: 80 F8 FF FF 7F F8 FF FF  7F 73 30 30 32 45 0E 80  .........s002E..
0350: F8 FF FF 7F F8 FF FF 7F  73 30 30 33 00 80 2B AF  ........s003..+.
0360: D0 0E 01 1E 80 23 4A AF  D0 0E 01 B1 D0 0E 01 2B  .....#J........+
0370: AF D0 0E 01 1F 80 23 4A  F0 FF FF 7F B1 D0 0E 01  ......#J........
0380: 52 0E 80 F8 FF FF 7F F8  FF FF 7F 73 30 30 33 45  R..........s003E
0390: 0E 80 F8 FF FF 7F F8 FF  FF 7F 73 30 30 34 00 80  ..........s004..
03A0: 1C 09 80 45 0B 80 F0 FF  FF 7F F0 FF FF 7F 77 68  ...E..........wh
03B0: 6F 31 00 80 55 0B 80 F0  FF FF 7F F0 FF FF 7F 77  o1..U..........w
03C0: 68 6F 31 4E 01 B1 D0 0E  01 2F 01 B1 D0 0E 01 4E  ho1N...../.....N
03D0: 00 B0 D0 0E 01 4A B0 D0  0E 01 AF D0 0E 01 4A AF  .....J........J.
03E0: D0 0E 01 B0 D0 0E 01 4A  F0 FF FF 7F B0 D0 0E 01  .......J........
03F0: 1C 09 80 45 0B 80 F0 FF  FF 7F F0 FF FF 7F 77 68  ...E..........wh
0400: 69 31 00 80 1C 07 80 4A  B0 D0 0E 01 F0 FF FF 7F  i1.....J........
0410: 1C 07 80 6E B0 D0 0E 01  0C 80 99 B0 D0 0E 01 2B  ...n...........+
0420: B0 D0 0E 01 20 80 23 52  0E 80 F8 FF FF 7F F8 FF  .... .#R........
0430: FF 7F 73 30 30 34 45 0E  80 F8 FF FF 7F F8 FF FF  ..s004E.........
0440: 7F 73 30 30 35 00 80 4A  AF D0 0E 01 F0 FF FF 7F  .s005..J........
0450: 1C 21 80 4A F0 FF FF 7F  AF D0 0E 01 1C 21 80 4A  .!.J.........!.J
0460: B0 D0 0E 01 AF D0 0E 01  2B AF D0 0E 01 22 80 23  ........+....".#
0470: 6E F0 FF FF 7F 19 80 99  F0 FF FF 7F 1C 09 80 66  n..............f
0480: 23 80 AF D0 0E 01 AF D0  0E 01 74 6C 6B 30 2B AF  #.........tlk0+.
0490: D0 0E 01 24 80 23 2B AF  D0 0E 01 25 80 23 52 0E  ...$.#+....%.#R.
04A0: 80 F8 FF FF 7F F8 FF FF  7F 73 30 30 35 45 0E 80  .........s005E..
04B0: F8 FF FF 7F F8 FF FF 7F  73 30 30 36 00 80 66 23  ........s006..f#
04C0: 80 AF D0 0E 01 AF D0 0E  01 74 6C 6B 32 2B AF D0  .........tlk2+..
04D0: 0E 01 26 80 23 02 08 10  1B 80 00 E8 04 2B AF D0  ..&.#........+..
04E0: 0E 01 27 80 23 01 F0 04  2B AF D0 0E 01 28 80 23  ..'.#...+....(.#
04F0: 52 0E 80 F8 FF FF 7F F8  FF FF 7F 73 30 30 36 45  R..........s006E
0500: 0E 80 F8 FF FF 7F F8 FF  FF 7F 73 30 30 37 00 80  ..........s007..
0510: 4B B0 D0 0E 01 29 80 1C  07 80 4A AF D0 0E 01 B0  K....)....J.....
0520: D0 0E 01 79 00 F0 FF FF  7F B0 D0 0E 01 6E B0 D0  ...y.........n..
0530: 0E 01 2A 80 99 B0 D0 0E  01 2B B0 D0 0E 01 2B 80  ..*......+....+.
0540: 23 2B AF D0 0E 01 2C 80  23 52 0E 80 F8 FF FF 7F  #+....,.#R......
0550: F8 FF FF 7F 73 30 30 37  45 0E 80 F8 FF FF 7F F8  ....s007E.......
0560: FF FF 7F 73 30 30 38 00  80 4A AF D0 0E 01 F0 FF  ...s008..J......
0570: FF 7F 1C 07 80 4A B0 D0  0E 01 F0 FF FF 7F 79 00  .....J........y.
0580: F0 FF FF 7F AF D0 0E 01  27 05 AF D0 0E 01 04 02  ........'.......
0590: 08 10 1B 80 00 A2 05 2B  AF D0 0E 01 2D 80 23 01  .......+....-.#.
05A0: AA 05 2B AF D0 0E 01 2E  80 23 6E F0 FF FF 7F 19  ..+......#n.....
05B0: 80 99 F0 FF FF 7F 1C 09  80 66 2F 80 AF D0 0E 01  .........f/.....
05C0: AF D0 0E 01 75 72 65 30  2B AF D0 0E 01 30 80 23  ....ure0+....0.#
05D0: 52 0E 80 F8 FF FF 7F F8  FF FF 7F 73 30 30 38 45  R..........s008E
05E0: 0E 80 F8 FF FF 7F F8 FF  FF 7F 73 30 30 39 00 80  ..........s009..
05F0: 4A B0 D0 0E 01 F0 FF FF  7F 1C 07 80 4A F0 FF FF  J...........J...
0600: 7F B0 D0 0E 01 2B B0 D0  0E 01 31 80 23 2B B0 D0  .....+....1.#+..
0610: 0E 01 32 80 23 03 02 10  33 80 03 01 00 00 80 02  ..2.#...3.......
0620: 01 00 00 80 00 94 08 02  07 10 1B 80 00 05 07 24  ...............$
0630: 34 80 00 80 00 80 25 02  00 10 00 80 00 4F 06 2B  4.....%......O.+
0640: B0 D0 0E 01 35 80 23 03  00 00 1B 80 01 DF 06 02  ....5.#.........
0650: 00 10 1B 80 00 67 06 2B  B0 D0 0E 01 36 80 23 03  .....g.+....6.#.
0660: 00 00 06 80 01 DF 06 02  00 10 06 80 00 7F 06 2B  ...............+
0670: B0 D0 0E 01 37 80 23 03  00 00 38 80 01 DF 06 02  ....7.#...8.....
0680: 00 10 38 80 00 97 06 2B  B0 D0 0E 01 39 80 23 03  ..8....+....9.#.
0690: 00 00 3A 80 01 DF 06 02  00 10 3A 80 00 AF 06 2B  ..:.......:....+
06A0: B0 D0 0E 01 3B 80 23 03  00 00 3C 80 01 DF 06 02  ....;.#...<.....
06B0: 00 10 3C 80 00 C7 06 2B  B0 D0 0E 01 3D 80 23 03  ..<....+....=.#.
06C0: 00 00 15 80 01 DF 06 02  00 10 15 80 00 DF 06 2B  ...............+
06D0: B0 D0 0E 01 3E 80 23 03  00 00 19 80 01 DF 06 24  ....>.#........$
06E0: 3F 80 1B 80 00 80 25 02  00 10 00 80 00 F7 06 03  ?.....%.........
06F0: 01 00 1B 80 01 02 07 02  00 10 1B 80 00 02 07 01  ................
0700: 02 07 01 91 08 02 03 10  06 80 00 14 07 3C 0B 00  .............<..
0710: 15 80 1B 80 24 40 80 00  80 0B 00 25 02 00 10 00  ....$@.....%....
0720: 80 00 57 07 2B B0 D0 0E  01 35 80 23 03 00 00 1B  ..W.+....5.#....
0730: 80 24 3F 80 1B 80 00 80  25 02 00 10 00 80 00 49  .$?.....%......I
0740: 07 03 01 00 1B 80 01 54  07 02 00 10 1B 80 00 54  .......T.......T
0750: 07 01 54 07 01 91 08 02  00 10 1B 80 00 92 07 2B  ..T............+
0760: B0 D0 0E 01 36 80 23 03  00 00 06 80 24 3F 80 1B  ....6.#.....$?..
0770: 80 00 80 25 02 00 10 00  80 00 84 07 03 01 00 1B  ...%............
0780: 80 01 8F 07 02 00 10 1B  80 00 8F 07 01 8F 07 01  ................
0790: 91 08 02 00 10 06 80 00  CD 07 2B B0 D0 0E 01 37  ..........+....7
07A0: 80 23 03 00 00 38 80 24  3F 80 1B 80 00 80 25 02  .#...8.$?.....%.
07B0: 00 10 00 80 00 BF 07 03  01 00 1B 80 01 CA 07 02  ................
07C0: 00 10 1B 80 00 CA 07 01  CA 07 01 91 08 02 00 10  ................
07D0: 38 80 00 08 08 2B B0 D0  0E 01 39 80 23 03 00 00  8....+....9.#...
07E0: 3A 80 24 3F 80 1B 80 00  80 25 02 00 10 00 80 00  :.$?.....%......
07F0: FA 07 03 01 00 1B 80 01  05 08 02 00 10 1B 80 00  ................
0800: 05 08 01 05 08 01 91 08  02 00 10 3A 80 00 43 08  ...........:..C.
0810: 2B B0 D0 0E 01 3B 80 23  03 00 00 3C 80 24 3F 80  +....;.#...<.$?.
0820: 1B 80 00 80 25 02 00 10  00 80 00 35 08 03 01 00  ....%......5....
0830: 1B 80 01 40 08 02 00 10  1B 80 00 40 08 01 40 08  ...@.......@..@.
0840: 01 91 08 02 00 10 3C 80  00 7E 08 2B B0 D0 0E 01  ......<..~.+....
0850: 3D 80 23 03 00 00 15 80  24 3F 80 1B 80 00 80 25  =.#.....$?.....%
0860: 02 00 10 00 80 00 70 08  03 01 00 1B 80 01 7B 08  ......p.......{.
0870: 02 00 10 1B 80 00 7B 08  01 7B 08 01 91 08 02 00  ......{..{......
0880: 10 15 80 00 91 08 2B B0  D0 0E 01 41 80 23 01 91  ......+....A.#..
0890: 08 01 1F 06 52 0E 80 F8  FF FF 7F F8 FF FF 7F 73  ....R..........s
08A0: 30 30 39 02 00 00 3A 80  00 AF 0A 45 0E 80 F8 FF  009...:....E....
08B0: FF 7F F8 FF FF 7F 73 30  31 33 00 80 6E B0 D0 0E  ......s013..n...
08C0: 01 19 80 99 B0 D0 0E 01  2B B0 D0 0E 01 42 80 23  ........+....B.#
08D0: 2B B0 D0 0E 01 43 80 23  03 02 00 00 80 03 03 00  +....C.#........
08E0: 00 80 03 04 00 00 80 03  05 00 00 80 03 06 00 00  ................
08F0: 80 03 07 00 00 80 03 08  00 00 80 03 09 00 00 80  ................
0900: 02 02 00 00 80 00 3C 0A  02 03 00 00 80 00 8B 09  ......<.........
0910: 24 44 80 00 80 00 80 25  02 00 10 00 80 00 28 09  $D.....%......(.
0920: 03 04 00 1B 80 01 88 09  02 00 10 1B 80 00 38 09  ..............8.
0930: 03 05 00 1B 80 01 88 09  02 00 10 06 80 00 48 09  ..............H.
0940: 03 06 00 1B 80 01 88 09  02 00 10 38 80 00 58 09  ...........8..X.
0950: 03 07 00 1B 80 01 88 09  02 00 10 3A 80 00 68 09  ...........:..h.
0960: 03 08 00 1B 80 01 88 09  02 00 10 3C 80 00 78 09  ...........<..x.
0970: 03 09 00 1B 80 01 88 09  02 00 10 15 80 00 88 09  ................
0980: 03 03 00 1B 80 01 88 09  01 08 09 02 04 00 1B 80  ................
0990: 00 9B 09 2B B0 D0 0E 01  45 80 23 02 05 00 1B 80  ...+....E.#.....
09A0: 00 AB 09 2B B0 D0 0E 01  46 80 23 02 06 00 1B 80  ...+....F.#.....
09B0: 00 BB 09 2B B0 D0 0E 01  47 80 23 02 07 00 1B 80  ...+....G.#.....
09C0: 00 CB 09 2B B0 D0 0E 01  48 80 23 02 08 00 1B 80  ...+....H.#.....
09D0: 00 DB 09 2B B0 D0 0E 01  49 80 23 02 09 00 1B 80  ...+....I.#.....
09E0: 00 EB 09 2B B0 D0 0E 01  4A 80 23 2B B0 D0 0E 01  ...+....J.#+....
09F0: 4B 80 23 24 3F 80 1B 80  00 80 25 02 00 10 00 80  K.#$?.....%.....
0A00: 00 0B 0A 03 02 00 1B 80  01 39 0A 02 00 10 1B 80  .........9......
0A10: 00 39 0A 03 03 00 00 80  03 04 00 00 80 03 05 00  .9..............
0A20: 00 80 03 06 00 00 80 03  07 00 00 80 03 08 00 00  ................
0A30: 80 03 09 00 00 80 01 39  0A 01 00 09 2B B0 D0 0E  .......9....+...
0A40: 01 4C 80 23 27 0F B0 D0  0E 01 03 1C 09 80 45 02  .L.#'.........E.
0A50: 80 F8 FF FF 7F F8 FF FF  7F 66 64 6F 31 00 80 55  .........fdo1..U
0A60: 02 80 F8 FF FF 7F F8 FF  FF 7F 66 64 6F 31 2A 0F  ..........fdo1*.
0A70: B0 D0 0E 01 27 14 B0 D0  0E 01 02 1C 01 80 45 02  ....'.........E.
0A80: 80 F8 FF FF 7F F8 FF FF  7F 66 64 69 31 00 80 1C  .........fdi1...
0A90: 09 80 2B B0 D0 0E 01 4D  80 23 2A 14 B0 D0 0E 01  ..+....M.#*.....
0AA0: 52 0E 80 F8 FF FF 7F F8  FF FF 7F 73 30 31 33 45  R..........s013E
0AB0: 0E 80 F8 FF FF 7F F8 FF  FF 7F 73 30 31 30 00 80  ..........s010..
0AC0: 79 00 B0 D0 0E 01 AF D0  0E 01 4A AF D0 0E 01 B0  y.........J.....
0AD0: D0 0E 01 2B AF D0 0E 01  4E 80 23 02 03 10 06 80  ...+....N.#.....
0AE0: 00 57 0C 4A B0 D0 0E 01  F0 FF FF 7F 79 00 AF D0  .W.J........y...
0AF0: 0E 01 F0 FF FF 7F 2B B0  D0 0E 01 4F 80 23 6E F0  ......+....O.#n.
0B00: FF FF 7F 19 80 99 F0 FF  FF 7F 1C 50 80 27 05 F0  ...........P.'..
0B10: FF FF 7F A4 45 02 80 F8  FF FF 7F F8 FF FF 7F 66  ....E..........f
0B20: 64 6F 31 00 80 55 02 80  F8 FF FF 7F F8 FF FF 7F  do1..U..........
0B30: 66 64 6F 31 52 0E 80 F8  FF FF 7F F8 FF FF 7F 73  fdo1R..........s
0B40: 30 31 30 4A B0 D0 0E 01  AF D0 0E 01 2A 05 F0 FF  010J........*...
0B50: FF 7F 29 0A F0 FF FF 7F  A5 45 0E 80 F8 FF FF 7F  ..)......E......
0B60: F8 FF FF 7F 73 30 31 36  00 80 1C 09 80 45 02 80  ....s016.....E..
0B70: F8 FF FF 7F F8 FF FF 7F  66 64 69 31 00 80 1C 09  ........fdi1....
0B80: 80 27 0F F0 FF FF 7F A6  29 05 1F D0 0E 01 05 45  .'......)......E
0B90: 02 80 F8 FF FF 7F F8 FF  FF 7F 66 64 6F 31 00 80  ..........fdo1..
0BA0: 55 02 80 F8 FF FF 7F F8  FF FF 7F 66 64 6F 31 52  U..........fdo1R
0BB0: 0E 80 F8 FF FF 7F F8 FF  FF 7F 73 30 31 36 02 00  ..........s016..
0BC0: 00 3C 80 00 D3 0B 4E 00  B5 D0 0E 01 29 05 B5 D0  .<....N.....)...
0BD0: 0E 01 0C 29 0F 1F D0 0E  01 06 4A B2 D0 0E 01 1F  ...)......J.....
0BE0: D0 0E 01 4A B3 D0 0E 01  1F D0 0E 01 29 05 F0 FF  ...J........)...
0BF0: FF 7F A7 27 14 F0 FF FF  7F A8 45 0E 80 F8 FF FF  ...'......E.....
0C00: 7F F8 FF FF 7F 73 30 31  32 00 80 1C 09 80 45 02  .....s012.....E.
0C10: 80 F8 FF FF 7F F8 FF FF  7F 66 64 69 31 00 80 1C  .........fdi1...
0C20: 09 80 4A AF D0 0E 01 F0  FF FF 7F 1C 07 80 4A B0  ..J...........J.
0C30: D0 0E 01 F0 FF FF 7F 2B  B0 D0 0E 01 51 80 23 2A  .......+....Q.#*
0C40: 14 F0 FF FF 7F 6E F0 FF  FF 7F 19 80 99 F0 FF FF  .....n..........
0C50: 7F 1C 50 80 01 F5 0D 4A  B0 D0 0E 01 AF D0 0E 01  ..P....J........
0C60: 2B B0 D0 0E 01 52 80 23  52 0E 80 F8 FF FF 7F F8  +....R.#R.......
0C70: FF FF 7F 73 30 31 30 45  0E 80 F8 FF FF 7F F8 FF  ...s010E........
0C80: FF 7F 73 30 31 31 00 80  79 00 F0 FF FF 7F B0 D0  ..s011..y.......
0C90: 0E 01 27 0F B0 D0 0E 01  03 1C 01 80 4A AF D0 0E  ..'.........J...
0CA0: 01 F0 FF FF 7F 1C 07 80  79 00 F0 FF FF 7F AF D0  ........y.......
0CB0: 0E 01 2B AF D0 0E 01 53  80 23 45 02 80 F8 FF FF  ..+....S.#E.....
0CC0: 7F F8 FF FF 7F 66 64 6F  31 00 80 55 02 80 F8 FF  .....fdo1..U....
0CD0: FF 7F F8 FF FF 7F 66 64  6F 31 52 0E 80 F8 FF FF  ......fdo1R.....
0CE0: 7F F8 FF FF 7F 73 30 31  31 2A 0F B0 D0 0E 01 29  .....s011*.....)
0CF0: 0A B0 D0 0E 01 04 45 0E  80 F8 FF FF 7F F8 FF FF  ......E.........
0D00: 7F 73 30 31 36 00 80 1C  09 80 45 02 80 F8 FF FF  .s016.....E.....
0D10: 7F F8 FF FF 7F 66 64 69  31 00 80 1C 09 80 27 0F  .....fdi1.....'.
0D20: B0 D0 0E 01 05 29 05 1F  D0 0E 01 05 45 02 80 F8  .....)......E...
0D30: FF FF 7F F8 FF FF 7F 66  64 6F 31 00 80 55 02 80  .......fdo1..U..
0D40: F8 FF FF 7F F8 FF FF 7F  66 64 6F 31 52 0E 80 F8  ........fdo1R...
0D50: FF FF 7F F8 FF FF 7F 73  30 31 36 02 00 00 3C 80  .......s016...<.
0D60: 00 70 0D 4E 00 B5 D0 0E  01 29 05 B5 D0 0E 01 0C  .p.N.....)......
0D70: 29 0F 1F D0 0E 01 06 4A  B2 D0 0E 01 1F D0 0E 01  )......J........
0D80: 4A B3 D0 0E 01 1F D0 0E  01 29 05 B0 D0 0E 01 06  J........)......
0D90: 27 14 B0 D0 0E 01 07 45  0E 80 F8 FF FF 7F F8 FF  '......E........
0DA0: FF 7F 73 30 31 32 00 80  1C 09 80 45 02 80 F8 FF  ..s012.....E....
0DB0: FF 7F F8 FF FF 7F 66 64  69 31 00 80 1C 09 80 4A  ......fdi1.....J
0DC0: F0 FF FF 7F B0 D0 0E 01  1C 07 80 4A AF D0 0E 01  ...........J....
0DD0: B0 D0 0E 01 2B B0 D0 0E  01 54 80 23 4A AF D0 0E  ....+....T.#J...
0DE0: 01 F0 FF FF 7F 79 00 F0  FF FF 7F AF D0 0E 01 2A  .....y.........*
0DF0: 19 B0 D0 0E 01 45 02 80  F0 FF FF 7F F0 FF FF 7F  .....E..........
0E00: 6F 76 6C 31 00 80 52 0E  80 F8 FF FF 7F F8 FF FF  ovl1..R.........
0E10: 7F 73 30 31 32 45 0E 80  F8 FF FF 7F F8 FF FF 7F  .s012E..........
0E20: 73 30 31 34 00 80 27 05  B2 D0 0E 01 03 2B AF D0  s014..'......+..
0E30: 0E 01 55 80 23 27 0A B3  D0 0E 01 03 2B AF D0 0E  ..U.#'......+...
0E40: 01 56 80 23 1C 57 80 52  0E 80 F8 FF FF 7F F8 FF  .V.#.W.R........
0E50: FF 7F 73 30 31 34 02 00  00 3C 80 00 0C 10 45 08  ..s014...<....E.
0E60: 80 F8 FF FF 7F F8 FF FF  7F 73 30 31 36 00 80 4E  .........s016..N
0E70: 01 1F D0 0E 01 2A 0A B3  D0 0E 01 29 0F B3 D0 0E  .....*.....)....
0E80: 01 16 4B AF D0 0E 01 58  80 2A 05 B2 D0 0E 01 29  ..K....X.*.....)
0E90: 0A B2 D0 0E 01 16 4A B2  D0 0E 01 B5 D0 0E 01 4A  ......J........J
0EA0: B3 D0 0E 01 B5 D0 0E 01  4A B5 D0 0E 01 B2 D0 0E  ........J.......
0EB0: 01 2B AF D0 0E 01 59 80  23 52 08 80 F8 FF FF 7F  .+....Y.#R......
0EC0: F8 FF FF 7F 73 30 31 36  45 08 80 F8 FF FF 7F F8  ....s016E.......
0ED0: FF FF 7F 73 30 31 37 00  80 2B B2 D0 0E 01 5A 80  ...s017..+....Z.
0EE0: 23 6E B5 D0 0E 01 19 80  99 B5 D0 0E 01 2B B5 D0  #n...........+..
0EF0: 0E 01 5B 80 23 6E B2 D0  0E 01 19 80 99 B2 D0 0E  ..[.#n..........
0F00: 01 2B B2 D0 0E 01 5C 80  23 52 08 80 F8 FF FF 7F  .+....\.#R......
0F10: F8 FF FF 7F 73 30 31 37  45 08 80 F8 FF FF 7F F8  ....s017E.......
0F20: FF FF 7F 73 30 31 38 00  80 13 0A 00 06 80 02 0A  ...s018.........
0F30: 00 00 80 80 46 0F 2B B5  D0 0E 01 5D 80 23 03 0A  ....F.+....].#..
0F40: 00 1B 80 01 76 0F 02 0A  00 1B 80 80 5E 0F 2B B5  ....v.......^.+.
0F50: D0 0E 01 5E 80 23 03 0A  00 06 80 01 76 0F 02 0A  ...^.#......v...
0F60: 00 06 80 80 76 0F 2B B5  D0 0E 01 5F 80 23 03 0A  ....v.+...._.#..
0F70: 00 38 80 01 76 0F 6E B3  D0 0E 01 19 80 99 B3 D0  .8..v.n.........
0F80: 0E 01 2B B3 D0 0E 01 5C  80 23 27 05 B5 D0 0E 01  ..+....\.#'.....
0F90: 0D 1C 07 80 27 0A B2 D0  0E 01 17 27 0F B3 D0 0E  ....'......'....
0FA0: 01 17 1C 09 80 52 08 80  F8 FF FF 7F F8 FF FF 7F  .....R..........
0FB0: 73 30 31 38 45 08 80 F8  FF FF 7F F8 FF FF 7F 73  s018E..........s
0FC0: 30 31 39 00 80 2B AF D0  0E 01 60 80 23 79 00 AF  019..+....`.#y..
0FD0: D0 0E 01 B0 D0 0E 01 1C  07 80 2B AF D0 0E 01 61  ..........+....a
0FE0: 80 23 6E B0 D0 0E 01 19  80 99 B0 D0 0E 01 1C 09  .#n.............
0FF0: 80 52 08 80 F8 FF FF 7F  F8 FF FF 7F 73 30 31 39  .R..........s019
1000: 4A AF D0 0E 01 F0 FF FF  7F 1C 07 80 45 0E 80 F8  J...........E...
1010: FF FF 7F F8 FF FF 7F 73  30 31 35 00 80 66 23 80  .......s015..f#.
1020: AF D0 0E 01 AF D0 0E 01  74 6C 6B 30 2B AF D0 0E  ........tlk0+...
1030: 01 62 80 23 2B AF D0 0E  01 63 80 23 66 23 80 AF  .b.#+....c.#f#..
1040: D0 0E 01 AF D0 0E 01 74  6C 6B 32 2B AF D0 0E 01  .......tlk2+....
1050: 64 80 23 02 00 00 1B 80  80 63 10 03 01 10 1B 80  d.#......c......
1060: 01 46 11 02 00 00 06 80  80 73 10 03 01 10 06 80  .F.......s......
1070: 01 46 11 02 00 00 38 80  80 83 10 03 01 10 38 80  .F....8.......8.
1080: 01 46 11 02 00 00 3A 80  80 E8 10 02 04 00 1B 80  .F....:.........
1090: 00 9A 10 3C 01 10 65 80  1B 80 02 05 00 1B 80 00  ...<..e.........
10A0: A9 10 3C 01 10 0C 80 1B  80 02 06 00 1B 80 00 B8  ..<.............
10B0: 10 3C 01 10 66 80 1B 80  02 07 00 1B 80 00 C7 10  .<..f...........
10C0: 3C 01 10 67 80 1B 80 02  08 00 1B 80 00 D6 10 3C  <..g...........<
10D0: 01 10 68 80 1B 80 02 09  00 1B 80 00 E5 10 3C 01  ..h...........<.
10E0: 10 69 80 1B 80 01 46 11  02 00 00 3C 80 80 23 11  .i....F....<..#.
10F0: 02 0A 00 1B 80 80 00 11  03 01 10 3A 80 01 20 11  ...........:.. .
1100: 02 0A 00 06 80 80 10 11  03 01 10 3C 80 01 20 11  ...........<.. .
1110: 02 0A 00 38 80 80 20 11  03 01 10 15 80 01 20 11  ...8.. ....... .
1120: 01 46 11 02 00 00 15 80  80 36 11 48 6A 80 03 01  .F.......6.Hj...
1130: 10 19 80 01 46 11 02 00  00 19 80 80 46 11 03 01  ....F.......F...
1140: 10 2F 80 01 46 11 5D 00  80 01 80 45 02 80 F8 FF  ./..F.]....E....
1150: FF 7F F8 FF FF 7F 66 64  6F 31 00 80 55 02 80 F8  ......fdo1..U...
1160: FF FF 7F F8 FF FF 7F 66  64 6F 31 52 0E 80 F8 FF  .......fdo1R....
1170: FF 7F F8 FF FF 7F 73 30  31 35 5C 00 6B 80 5C 01  ......s015\.k.\.
1180: 6B 80 4E 01 B2 D0 0E 01  4E 01 B3 D0 0E 01 4E 01  k.N.....N.....N.
1190: AF D0 0E 01 2F 01 AF D0  0E 01 4E 01 B0 D0 0E 01  ..../.....N.....
11A0: 2F 01 B0 D0 0E 01 46 00  1C 09 80 45 02 80 F8 FF  /.....F....E....
11B0: FF 7F F8 FF FF 7F 66 64  69 31 00 80 21 00        ......fdi1..!.  
```

#### Opcodes

```
  0: 0x0001 [0x42] SET_CLI_EVENT_CANCEL_DATA()
  1: 0x0002 [0x03] Work_Zone[1] = 0*
  2: 0x0007 [0x03] ExtData[1]->WorkLocal[11] = 0*
  3: 0x000C [0x5D] SET_MUSIC_VOLUME(volume=0*, fade_time=120*)
  4: 0x0011 [0x45] LOAD_SCHEDULED_TASK: Load scheduler "fdo1" with entities [EventEntity, EventEntity], work=[200*, 0*]
  5: 0x0022 [0x55] WAIT_LOAD_SCHEDULER: Wait for scheduler "fdo1" with entities [EventEntity, EventEntity], work=200*
  6: 0x0031 [0x46] CAMERA_CONTROL: Disable user control
  7: 0x0033 [0x75] LOAD_ROOM(Load indoor room, room=310*)
  8: 0x0037 [0x75] LOAD_ROOM(No action)
  9: 0x0039 [0x38] SET_CLIENT_EVENT_MODE(mode=27*)
 10: 0x003C [0x27] REQ_SET(priority=0x0A, entity_id=LocalPlayer, tag_num=0x73)
 11: 0x0043 [0x2F] Miledo-Shiraddo (ID: 17748144/0x010ED0B0)->Render.Flags0 &= ~0x80000 // Bit 19
 12: 0x0049 [0x2F] Luto Mewrilah (ID: 17748143/0x010ED0AF)->Render.Flags0 &= ~0x80000 // Bit 19
 13: 0x004F [0x4E] SET_ENTITY_HIDE_FLAG: Show Luto Mewrilah (ID: 17748143/0x010ED0AF)
 14: 0x0055 [0x4E] SET_ENTITY_HIDE_FLAG: Show Gentle Tiger (ID: 17748146/0x010ED0B2)
 15: 0x005B [0x4E] SET_ENTITY_HIDE_FLAG: Show Militant Gale (ID: 17748147/0x010ED0B3)
 16: 0x0061 [0x29] REQ_SET_WAIT(priority=0x14, entity_id=Gentle Tiger (ID: 17748146/0x010ED0B2), tag_num=0x02)
 17: 0x0068 [0x29] REQ_SET_WAIT(priority=0x19, entity_id=Militant Gale (ID: 17748147/0x010ED0B3), tag_num=0x02)
 18: 0x006F [0x5C] MUSIC_CONTROL: Set Idle (Day) music to song 163*
 19: 0x0073 [0x5C] MUSIC_CONTROL: Set Idle (Night) music to song 163*
 20: 0x0077 [0x02] IF !(Work_Zone[8] == 2*) GOTO 0x01EE
 21: 0x007F [0x4E] SET_ENTITY_HIDE_FLAG: Show Groudinguet (ID: 17748152/0x010ED0B8)
 22: 0x0085 [0x29] REQ_SET_WAIT(priority=0x05, entity_id=Groudinguet (ID: 17748152/0x010ED0B8), tag_num=0x02)
 23: 0x008C [0x4A] Groudinguet (ID: 17748152/0x010ED0B8) looks at LocalPlayer
 24: 0x0095 [0x1C] WAIT(30* ticks)
 25: 0x0098 [0x92] Groudinguet (ID: 17748152/0x010ED0B8)->Render.Flags3 ^= 0x01
 26: 0x009E [0x27] REQ_SET(priority=0x0A, entity_id=Groudinguet (ID: 17748152/0x010ED0B8), tag_num=0x03)
 27: 0x00A5 [0x45] LOAD_SCHEDULED_TASK: Load scheduler "s037" with entities [EventEntity, EventEntity], work=[198*, 0*]
 28: 0x00B6 [0x1C] WAIT(60* ticks)
 29: 0x00B9 [0x45] LOAD_SCHEDULED_TASK: Load scheduler "fdi1" with entities [EventEntity, EventEntity], work=[200*, 0*]
 30: 0x00CA [0x1C] WAIT(60* ticks)
 31: 0x00CD [0x4A] LocalPlayer looks at Groudinguet (ID: 17748152/0x010ED0B8)
 32: 0x00D6 [0x2B] Groudinguet (ID: 17748152/0x010ED0B8) [10203*]:
     "Hey, it's you again! Relax, it's just me."
 33: 0x00DD [0x23] WAIT_FOR_DIALOG_INTERACTION
 34: 0x00DE [0x2A] GET_REQ_LEVEL(level=10, entity_id=Groudinguet (ID: 17748152/0x010ED0B8))
 35: 0x00E4 [0x45] LOAD_SCHEDULED_TASK: Load scheduler "who1" with entities [LocalPlayer, LocalPlayer], work=[201*, 0*]
 36: 0x00F5 [0x55] WAIT_LOAD_SCHEDULER: Wait for scheduler "who1" with entities [LocalPlayer, LocalPlayer], work=201*
 37: 0x0104 [0x4E] SET_ENTITY_HIDE_FLAG: Hide Groudinguet (ID: 17748152/0x010ED0B8)
 38: 0x010A [0x2F] Groudinguet (ID: 17748152/0x010ED0B8)->Render.Flags0 |= 0x80000 // Bit 19
 39: 0x0110 [0x4E] SET_ENTITY_HIDE_FLAG: Show Miledo-Shiraddo (ID: 17748144/0x010ED0B0)
 40: 0x0116 [0x4A] Miledo-Shiraddo (ID: 17748144/0x010ED0B0) looks at LocalPlayer
 41: 0x011F [0x4A] LocalPlayer looks at Miledo-Shiraddo (ID: 17748144/0x010ED0B0)
 42: 0x0128 [0x1C] WAIT(60* ticks)
 43: 0x012B [0x45] LOAD_SCHEDULED_TASK: Load scheduler "whi1" with entities [LocalPlayer, LocalPlayer], work=[201*, 0*]
 44: 0x013C [0x1C] WAIT(60* ticks)
 45: 0x013F [0x6E] Miledo-Shiraddo (ID: 17748144/0x010ED0B0) uses emote 10*
 46: 0x0146 [0x99] Wait for Miledo-Shiraddo (ID: 17748144/0x010ED0B0) animation to complete
 47: 0x014B [0x2B] Miledo-Shiraddo (ID: 17748144/0x010ED0B0) [10204*]:
     "Surprise! I just thought a bard would be an interesting change."
 48: 0x0152 [0x23] WAIT_FOR_DIALOG_INTERACTION
 49: 0x0153 [0x52] END_LOAD_SCHEDULER: End scheduler "s037" with entities [EventEntity, EventEntity], work=198*
 50: 0x0162 [0x45] LOAD_SCHEDULED_TASK: Load scheduler "s002" with entities [EventEntity, EventEntity], work=[197*, 0*]
 51: 0x0173 [0x27] REQ_SET(priority=0x0A, entity_id=Luto Mewrilah (ID: 17748143/0x010ED0AF), tag_num=0x03)
 52: 0x017A [0x1C] WAIT(60* ticks)
 53: 0x017D [0x4A] Miledo-Shiraddo (ID: 17748144/0x010ED0B0) looks at Luto Mewrilah (ID: 17748143/0x010ED0AF)
 54: 0x0186 [0x1C] WAIT(60* ticks)
 55: 0x0189 [0x4A] LocalPlayer looks at Luto Mewrilah (ID: 17748143/0x010ED0AF)
 56: 0x0192 [0x2B] Luto Mewrilah (ID: 17748143/0x010ED0AF) [10205*]:
     "Miledo, how is the trrrap now?"
 57: 0x0199 [0x23] WAIT_FOR_DIALOG_INTERACTION
 58: 0x019A [0x2B] Miledo-Shiraddo (ID: 17748144/0x010ED0B0) [10206*]:
     "It hasn't changed a bit."
 59: 0x01A1 [0x23] WAIT_FOR_DIALOG_INTERACTION
 60: 0x01A2 [0x2A] GET_REQ_LEVEL(level=10, entity_id=Luto Mewrilah (ID: 17748143/0x010ED0AF))
 61: 0x01A8 [0x4A] Luto Mewrilah (ID: 17748143/0x010ED0AF) looks at LocalPlayer
 62: 0x01B1 [0x1C] WAIT(30* ticks)
 63: 0x01B4 [0x2B] Luto Mewrilah (ID: 17748143/0x010ED0AF) [10207*]:
     "Oh, <Player>. Thanks for earlier!"
 64: 0x01BB [0x23] WAIT_FOR_DIALOG_INTERACTION
 65: 0x01BC [0x52] END_LOAD_SCHEDULER: End scheduler "s002" with entities [EventEntity, EventEntity], work=197*
 66: 0x01CB [0x45] LOAD_SCHEDULED_TASK: Load scheduler "s008" with entities [EventEntity, EventEntity], work=[197*, 0*]
 67: 0x01DC [0x27] REQ_SET(priority=0x0F, entity_id=Luto Mewrilah (ID: 17748143/0x010ED0AF), tag_num=0x04)
 68: 0x01E3 [0x2B] Luto Mewrilah (ID: 17748143/0x010ED0AF) [10208*]:
     "Think you could lend us a hand?"
 69: 0x01EA [0x23] WAIT_FOR_DIALOG_INTERACTION
 70: 0x01EB [0x01] GOTO 0x05AA
 71: 0x01EE [0x4E] SET_ENTITY_HIDE_FLAG: Show Nabima-Hyonbima (ID: 17748145/0x010ED0B1)
 72: 0x01F4 [0x80] LOAD_WAIT(entity=Nabima-Hyonbima (ID: 17748145/0x010ED0B1))
 73: 0x01F9 [0x92] Nabima-Hyonbima (ID: 17748145/0x010ED0B1)->Render.Flags3 ^= 0x01
 74: 0x01FF [0x27] REQ_SET(priority=0x05, entity_id=Nabima-Hyonbima (ID: 17748145/0x010ED0B1), tag_num=0x02)
 75: 0x0206 [0x45] LOAD_SCHEDULED_TASK: Load scheduler "s000" with entities [EventEntity, EventEntity], work=[197*, 0*]
 76: 0x0217 [0x1C] WAIT(60* ticks)
 77: 0x021A [0x45] LOAD_SCHEDULED_TASK: Load scheduler "fdi1" with entities [EventEntity, EventEntity], work=[200*, 0*]
 78: 0x022B [0x1C] WAIT(60* ticks)
 79: 0x022E [0x4A] LocalPlayer looks at Nabima-Hyonbima (ID: 17748145/0x010ED0B1)
 80: 0x0237 [0x2B] Nabima-Hyonbima (ID: 17748145/0x010ED0B1) [10182*]:
     "Mumble jumble... O great Altana... O great Altana... Mumble grumble..."
 81: 0x023E [0x23] WAIT_FOR_DIALOG_INTERACTION
 82: 0x023F [0x2A] GET_REQ_LEVEL(level=5, entity_id=Nabima-Hyonbima (ID: 17748145/0x010ED0B1))
 83: 0x0245 [0x4A] LocalPlayer looks at Nabima-Hyonbima (ID: 17748145/0x010ED0B1)
 84: 0x024E [0x1C] WAIT(60* ticks)
 85: 0x0251 [0x52] END_LOAD_SCHEDULER: End scheduler "s000" with entities [EventEntity, EventEntity], work=197*
 86: 0x0260 [0x45] LOAD_SCHEDULED_TASK: Load scheduler "s001" with entities [EventEntity, EventEntity], work=[197*, 0*]
 87: 0x0271 [0x4A] Nabima-Hyonbima (ID: 17748145/0x010ED0B1) looks at LocalPlayer
 88: 0x027A [0x2B] Nabima-Hyonbima (ID: 17748145/0x010ED0B1) [10183*]:
     "Ohhh, hello there! Come, let us pray to Altana together!"
 89: 0x0281 [0x23] WAIT_FOR_DIALOG_INTERACTION
 90: 0x0282 [0x6E] LocalPlayer uses emote 6*
 91: 0x0289 [0x99] Wait for LocalPlayer animation to complete
 92: 0x028E [0x1C] WAIT(60* ticks)
 93: 0x0291 [0x52] END_LOAD_SCHEDULER: End scheduler "s001" with entities [EventEntity, EventEntity], work=197*
 94: 0x02A0 [0x45] LOAD_SCHEDULED_TASK: Load scheduler "s002" with entities [EventEntity, EventEntity], work=[197*, 0*]
 95: 0x02B1 [0x6E] Nabima-Hyonbima (ID: 17748145/0x010ED0B1) uses emote 25*
 96: 0x02B8 [0x99] Wait for Nabima-Hyonbima (ID: 17748145/0x010ED0B1) animation to complete
 97: 0x02BD [0x2B] Nabima-Hyonbima (ID: 17748145/0x010ED0B1) [10184*]:
     "What a sinful lout you are! O great Altana, save this wretched soul!"
 98: 0x02C4 [0x23] WAIT_FOR_DIALOG_INTERACTION
 99: 0x02C5 [0x27] REQ_SET(priority=0x0A, entity_id=Luto Mewrilah (ID: 17748143/0x010ED0AF), tag_num=0x02)
100: 0x02CC [0x1C] WAIT(60* ticks)
101: 0x02CF [0x4A] Nabima-Hyonbima (ID: 17748145/0x010ED0B1) looks at Luto Mewrilah (ID: 17748143/0x010ED0AF)
102: 0x02D8 [0x1C] WAIT(60* ticks)
103: 0x02DB [0x4A] LocalPlayer looks at Luto Mewrilah (ID: 17748143/0x010ED0AF)
104: 0x02E4 [0x2B] Luto Mewrilah (ID: 17748143/0x010ED0AF) [10185*]:
     "Hey there. Find anything yet?"
105: 0x02EB [0x23] WAIT_FOR_DIALOG_INTERACTION
106: 0x02EC [0x6E] Nabima-Hyonbima (ID: 17748145/0x010ED0B1) uses emote 7*
107: 0x02F3 [0x99] Wait for Nabima-Hyonbima (ID: 17748145/0x010ED0B1) animation to complete
108: 0x02F8 [0x2B] Nabima-Hyonbima (ID: 17748145/0x010ED0B1) [10186*]:
     "This place couldn't possibly get any fishier! I smell a rat!"
109: 0x02FF [0x23] WAIT_FOR_DIALOG_INTERACTION
110: 0x0300 [0x2A] GET_REQ_LEVEL(level=10, entity_id=Luto Mewrilah (ID: 17748143/0x010ED0AF))
111: 0x0306 [0x4A] Luto Mewrilah (ID: 17748143/0x010ED0AF) looks at LocalPlayer
112: 0x030F [0x02] IF !(Work_Zone[8] == 1*) GOTO 0x0322
113: 0x0317 [0x2B] Luto Mewrilah (ID: 17748143/0x010ED0AF) [10188*]:
     "Wooow! It's <Player>! What are you doing herrre?"
114: 0x031E [0x23] WAIT_FOR_DIALOG_INTERACTION
115: 0x031F [0x01] GOTO 0x032A
116: 0x0322 [0x2B] Luto Mewrilah (ID: 17748143/0x010ED0AF) [10189*]:
     "Hold it! Who's this?"
117: 0x0329 [0x23] WAIT_FOR_DIALOG_INTERACTION

SUBROUTINE_032A:
118: 0x032A [0x1C] WAIT(60* ticks)
119: 0x032D [0x45] LOAD_SCHEDULED_TASK: Load scheduler "ovl1" with entities [LocalPlayer, LocalPlayer], work=[200*, 0*]
120: 0x033E [0x52] END_LOAD_SCHEDULER: End scheduler "s002" with entities [EventEntity, EventEntity], work=197*
121: 0x034D [0x45] LOAD_SCHEDULED_TASK: Load scheduler "s003" with entities [EventEntity, EventEntity], work=[197*, 0*]
122: 0x035E [0x2B] Luto Mewrilah (ID: 17748143/0x010ED0AF) [10190*]:
     "You say you were ordered to chase this guy off? There's no need, though. He's a friend of mine."
123: 0x0365 [0x23] WAIT_FOR_DIALOG_INTERACTION
124: 0x0366 [0x4A] Luto Mewrilah (ID: 17748143/0x010ED0AF) looks at Nabima-Hyonbima (ID: 17748145/0x010ED0B1)
125: 0x036F [0x2B] Luto Mewrilah (ID: 17748143/0x010ED0AF) [10191*]:
     "Isn't that right, Miledo?"
126: 0x0376 [0x23] WAIT_FOR_DIALOG_INTERACTION
127: 0x0377 [0x4A] LocalPlayer looks at Nabima-Hyonbima (ID: 17748145/0x010ED0B1)
128: 0x0380 [0x52] END_LOAD_SCHEDULER: End scheduler "s003" with entities [EventEntity, EventEntity], work=197*
129: 0x038F [0x45] LOAD_SCHEDULED_TASK: Load scheduler "s004" with entities [EventEntity, EventEntity], work=[197*, 0*]
130: 0x03A0 [0x1C] WAIT(60* ticks)
131: 0x03A3 [0x45] LOAD_SCHEDULED_TASK: Load scheduler "who1" with entities [LocalPlayer, LocalPlayer], work=[201*, 0*]
132: 0x03B4 [0x55] WAIT_LOAD_SCHEDULER: Wait for scheduler "who1" with entities [LocalPlayer, LocalPlayer], work=201*
133: 0x03C3 [0x4E] SET_ENTITY_HIDE_FLAG: Hide Nabima-Hyonbima (ID: 17748145/0x010ED0B1)
134: 0x03C9 [0x2F] Nabima-Hyonbima (ID: 17748145/0x010ED0B1)->Render.Flags0 |= 0x80000 // Bit 19
135: 0x03CF [0x4E] SET_ENTITY_HIDE_FLAG: Show Miledo-Shiraddo (ID: 17748144/0x010ED0B0)
136: 0x03D5 [0x4A] Miledo-Shiraddo (ID: 17748144/0x010ED0B0) looks at Luto Mewrilah (ID: 17748143/0x010ED0AF)
137: 0x03DE [0x4A] Luto Mewrilah (ID: 17748143/0x010ED0AF) looks at Miledo-Shiraddo (ID: 17748144/0x010ED0B0)
138: 0x03E7 [0x4A] LocalPlayer looks at Miledo-Shiraddo (ID: 17748144/0x010ED0B0)
139: 0x03F0 [0x1C] WAIT(60* ticks)
140: 0x03F3 [0x45] LOAD_SCHEDULED_TASK: Load scheduler "whi1" with entities [LocalPlayer, LocalPlayer], work=[201*, 0*]
141: 0x0404 [0x1C] WAIT(30* ticks)
142: 0x0407 [0x4A] Miledo-Shiraddo (ID: 17748144/0x010ED0B0) looks at LocalPlayer
143: 0x0410 [0x1C] WAIT(30* ticks)
144: 0x0413 [0x6E] Miledo-Shiraddo (ID: 17748144/0x010ED0B0) uses emote 10*
145: 0x041A [0x99] Wait for Miledo-Shiraddo (ID: 17748144/0x010ED0B0) animation to complete
146: 0x041F [0x2B] Miledo-Shiraddo (ID: 17748144/0x010ED0B0) [10192*]:
     "Ta-da!"
147: 0x0426 [0x23] WAIT_FOR_DIALOG_INTERACTION
148: 0x0427 [0x52] END_LOAD_SCHEDULER: End scheduler "s004" with entities [EventEntity, EventEntity], work=197*
149: 0x0436 [0x45] LOAD_SCHEDULED_TASK: Load scheduler "s005" with entities [EventEntity, EventEntity], work=[197*, 0*]
150: 0x0447 [0x4A] Luto Mewrilah (ID: 17748143/0x010ED0AF) looks at LocalPlayer
151: 0x0450 [0x1C] WAIT(15* ticks)
152: 0x0453 [0x4A] LocalPlayer looks at Luto Mewrilah (ID: 17748143/0x010ED0AF)
153: 0x045C [0x1C] WAIT(15* ticks)
154: 0x045F [0x4A] Miledo-Shiraddo (ID: 17748144/0x010ED0B0) looks at Luto Mewrilah (ID: 17748143/0x010ED0AF)
155: 0x0468 [0x2B] Luto Mewrilah (ID: 17748143/0x010ED0AF) [10193*]:
     "Hee hee. Surprised? Anyway, it was Salim who told you to come here, wasn't it?"
156: 0x046F [0x23] WAIT_FOR_DIALOG_INTERACTION
157: 0x0470 [0x6E] LocalPlayer uses emote 7*
158: 0x0477 [0x99] Wait for LocalPlayer animation to complete
159: 0x047C [0x1C] WAIT(60* ticks)
160: 0x047F [0x66] LOAD_EXT_SCHEDULER_MAIN: Load scheduler "tlk0" with entities [Luto Mewrilah (ID: 17748143/0x010ED0AF), Luto Mewrilah (ID: 17748143/0x010ED0AF)], work=50*
161: 0x048E [0x2B] Luto Mewrilah (ID: 17748143/0x010ED0AF) [10194*]:
     "I knew it. You see, he's been receiving bribes from a merchant."
162: 0x0495 [0x23] WAIT_FOR_DIALOG_INTERACTION
163: 0x0496 [0x2B] Luto Mewrilah (ID: 17748143/0x010ED0AF) [10195*]:
     "We've been aiming for a while now to take those bribes for ourselves, and our detective work led us to this temple. We think this is where he's got his stash hidden."
164: 0x049D [0x23] WAIT_FOR_DIALOG_INTERACTION
165: 0x049E [0x52] END_LOAD_SCHEDULER: End scheduler "s005" with entities [EventEntity, EventEntity], work=197*
166: 0x04AD [0x45] LOAD_SCHEDULED_TASK: Load scheduler "s006" with entities [EventEntity, EventEntity], work=[197*, 0*]
167: 0x04BE [0x66] LOAD_EXT_SCHEDULER_MAIN: Load scheduler "tlk2" with entities [Luto Mewrilah (ID: 17748143/0x010ED0AF), Luto Mewrilah (ID: 17748143/0x010ED0AF)], work=50*
168: 0x04CD [0x2B] Luto Mewrilah (ID: 17748143/0x010ED0AF) [10196*]:
     "Miledo-Shiraddo is disguised as a friar to find out more."
169: 0x04D4 [0x23] WAIT_FOR_DIALOG_INTERACTION
170: 0x04D5 [0x02] IF !(Work_Zone[8] == 1*) GOTO 0x04E8
171: 0x04DD [0x2B] Luto Mewrilah (ID: 17748143/0x010ED0AF) [10197*]:
     "The fact that Salim ordered you to chase him off makes it all the more suspicious..."
172: 0x04E4 [0x23] WAIT_FOR_DIALOG_INTERACTION
173: 0x04E5 [0x01] GOTO 0x04F0
174: 0x04E8 [0x2B] Luto Mewrilah (ID: 17748143/0x010ED0AF) [10198*]:
     "The fact that Salim ordered you to chase him off makes it all the more suspicious..."
175: 0x04EF [0x23] WAIT_FOR_DIALOG_INTERACTION

SUBROUTINE_04F0:
176: 0x04F0 [0x52] END_LOAD_SCHEDULER: End scheduler "s006" with entities [EventEntity, EventEntity], work=197*
177: 0x04FF [0x45] LOAD_SCHEDULED_TASK: Load scheduler "s007" with entities [EventEntity, EventEntity], work=[197*, 0*]
178: 0x0510 [0x4B] UPDATE_ENTITY_YAW(entity=Miledo-Shiraddo (ID: 17748144/0x010ED0B0), yaw=22.0*)
179: 0x0517 [0x1C] WAIT(30* ticks)
180: 0x051A [0x4A] Luto Mewrilah (ID: 17748143/0x010ED0AF) looks at Miledo-Shiraddo (ID: 17748144/0x010ED0B0)
181: 0x0523 [0x79] LocalPlayer looks at Miledo-Shiraddo (ID: 17748144/0x010ED0B0) (Basic look)
182: 0x052D [0x6E] Miledo-Shiraddo (ID: 17748144/0x010ED0B0) uses emote 16*
183: 0x0534 [0x99] Wait for Miledo-Shiraddo (ID: 17748144/0x010ED0B0) animation to complete
184: 0x0539 [0x2B] Miledo-Shiraddo (ID: 17748144/0x010ED0B0) [10199*]:
     "And this proves it! There's a trap here!"
185: 0x0540 [0x23] WAIT_FOR_DIALOG_INTERACTION
186: 0x0541 [0x2B] Luto Mewrilah (ID: 17748143/0x010ED0AF) [10200*]:
     "The cat's out of the bag now! There must be a switch or two somewhere to deactivate it. Let's take a look around."
187: 0x0548 [0x23] WAIT_FOR_DIALOG_INTERACTION
188: 0x0549 [0x52] END_LOAD_SCHEDULER: End scheduler "s007" with entities [EventEntity, EventEntity], work=197*
189: 0x0558 [0x45] LOAD_SCHEDULED_TASK: Load scheduler "s008" with entities [EventEntity, EventEntity], work=[197*, 0*]
190: 0x0569 [0x4A] Luto Mewrilah (ID: 17748143/0x010ED0AF) looks at LocalPlayer
191: 0x0572 [0x1C] WAIT(30* ticks)
192: 0x0575 [0x4A] Miledo-Shiraddo (ID: 17748144/0x010ED0B0) looks at LocalPlayer
193: 0x057E [0x79] LocalPlayer looks at Luto Mewrilah (ID: 17748143/0x010ED0AF) (Basic look)
194: 0x0588 [0x27] REQ_SET(priority=0x05, entity_id=Luto Mewrilah (ID: 17748143/0x010ED0AF), tag_num=0x04)
195: 0x058F [0x02] IF !(Work_Zone[8] == 1*) GOTO 0x05A2
196: 0x0597 [0x2B] Luto Mewrilah (ID: 17748143/0x010ED0AF) [10201*]:
     "Think you could help us out, <Player>? I don't think we can do it alone."
197: 0x059E [0x23] WAIT_FOR_DIALOG_INTERACTION
198: 0x059F [0x01] GOTO 0x05AA
199: 0x05A2 [0x2B] Luto Mewrilah (ID: 17748143/0x010ED0AF) [10202*]:
     "Think you could help us out? Three heads are even better than two!"
200: 0x05A9 [0x23] WAIT_FOR_DIALOG_INTERACTION

SUBROUTINE_05AA:
201: 0x05AA [0x6E] LocalPlayer uses emote 7*
202: 0x05B1 [0x99] Wait for LocalPlayer animation to complete
203: 0x05B6 [0x1C] WAIT(60* ticks)
204: 0x05B9 [0x66] LOAD_EXT_SCHEDULER_MAIN: Load scheduler "ure0" with entities [Luto Mewrilah (ID: 17748143/0x010ED0AF), Luto Mewrilah (ID: 17748143/0x010ED0AF)], work=8*
205: 0x05C8 [0x2B] Luto Mewrilah (ID: 17748143/0x010ED0AF) [10209*]:
     "All right! Let's give Salim his just desserts!"
206: 0x05CF [0x23] WAIT_FOR_DIALOG_INTERACTION
207: 0x05D0 [0x52] END_LOAD_SCHEDULER: End scheduler "s008" with entities [EventEntity, EventEntity], work=197*
208: 0x05DF [0x45] LOAD_SCHEDULED_TASK: Load scheduler "s009" with entities [EventEntity, EventEntity], work=[197*, 0*]
209: 0x05F0 [0x4A] Miledo-Shiraddo (ID: 17748144/0x010ED0B0) looks at LocalPlayer
210: 0x05F9 [0x1C] WAIT(30* ticks)
211: 0x05FC [0x4A] LocalPlayer looks at Miledo-Shiraddo (ID: 17748144/0x010ED0B0)
212: 0x0605 [0x2B] Miledo-Shiraddo (ID: 17748144/0x010ED0B0) [10210*]:
     "By the way, I've brought seven helpful little goodies along with me, and I'm nice enough to let you use one."
213: 0x060C [0x23] WAIT_FOR_DIALOG_INTERACTION
214: 0x060D [0x2B] Miledo-Shiraddo (ID: 17748144/0x010ED0B0) [10211*]:
     "Pick one. You'll need it!"
215: 0x0614 [0x23] WAIT_FOR_DIALOG_INTERACTION
216: 0x0615 [0x03] Work_Zone[2] = 727*
217: 0x061A [0x03] ExtData[1]->WorkLocal[1] = 0*

SUBROUTINE_061F:
218: 0x061F [0x02] IF !(ExtData[1]->WorkLocal[1] == 0*) GOTO 0x0894
219: 0x0627 [0x02] IF !(Work_Zone[7] == 1*) GOTO 0x0705
220: 0x062F [0x24] CREATE_DIALOG(message_id=10212*, default_option=0*, option_flags=0*)
     "Choose your weapon! [Scope./Bard's harp./Lead Guardsman's ID./Snares./Lucky charm./Pocket watch./3.]"
221: 0x0636 [0x25] WAIT_DIALOG_SELECT()
222: 0x0637 [0x02] IF !(Work_Zone[0] == 0*) GOTO 0x064F
223: 0x063F [0x2B] Miledo-Shiraddo (ID: 17748144/0x010ED0B0) [10214*]:
     "The guardsmen in this area are dressed as ordinary citizens, but the scope will allow you to see right through their disguises. Is this what you really want?"
224: 0x0646 [0x23] WAIT_FOR_DIALOG_INTERACTION
225: 0x0647 [0x03] ExtData[1]->WorkLocal[0] = 1*
226: 0x064C [0x01] GOTO 0x06DF
227: 0x064F [0x02] IF !(Work_Zone[0] == 1*) GOTO 0x0667
228: 0x0657 [0x2B] Miledo-Shiraddo (ID: 17748144/0x010ED0B0) [10215*]:
     "You can use the bard's harp to recall someone's past. Is this what you really want?"
229: 0x065E [0x23] WAIT_FOR_DIALOG_INTERACTION
230: 0x065F [0x03] ExtData[1]->WorkLocal[0] = 2*
231: 0x0664 [0x01] GOTO 0x06DF
232: 0x0667 [0x02] IF !(Work_Zone[0] == 2*) GOTO 0x067F
233: 0x066F [0x2B] Miledo-Shiraddo (ID: 17748144/0x010ED0B0) [10216*]:
     "The lead guardsman's ID does just what its name implies--it identifies you as the lead guardsman! Is this what you really want?"
234: 0x0676 [0x23] WAIT_FOR_DIALOG_INTERACTION
235: 0x0677 [0x03] ExtData[1]->WorkLocal[0] = 3*
236: 0x067C [0x01] GOTO 0x06DF
237: 0x067F [0x02] IF !(Work_Zone[0] == 3*) GOTO 0x0697
238: 0x0687 [0x2B] Miledo-Shiraddo (ID: 17748144/0x010ED0B0) [10217*]:
     "You can lay the snares in various places and see what happens. Is this what you really want?"
239: 0x068E [0x23] WAIT_FOR_DIALOG_INTERACTION
240: 0x068F [0x03] ExtData[1]->WorkLocal[0] = 4*
241: 0x0694 [0x01] GOTO 0x06DF
242: 0x0697 [0x02] IF !(Work_Zone[0] == 4*) GOTO 0x06AF
243: 0x069F [0x2B] Miledo-Shiraddo (ID: 17748144/0x010ED0B0) [10218*]:
     "The lucky charm can be helpful when you're in a pinch. Is this what you really want?"
244: 0x06A6 [0x23] WAIT_FOR_DIALOG_INTERACTION
245: 0x06A7 [0x03] ExtData[1]->WorkLocal[0] = 5*
246: 0x06AC [0x01] GOTO 0x06DF
247: 0x06AF [0x02] IF !(Work_Zone[0] == 5*) GOTO 0x06C7
248: 0x06B7 [0x2B] Miledo-Shiraddo (ID: 17748144/0x010ED0B0) [10219*]:
     "The pocket watch is a must for the punctual adventurer. Is this what you really want?"
249: 0x06BE [0x23] WAIT_FOR_DIALOG_INTERACTION
250: 0x06BF [0x03] ExtData[1]->WorkLocal[0] = 6*
251: 0x06C4 [0x01] GOTO 0x06DF
252: 0x06C7 [0x02] IF !(Work_Zone[0] == 6*) GOTO 0x06DF
253: 0x06CF [0x2B] Miledo-Shiraddo (ID: 17748144/0x010ED0B0) [10220*]:
     "The $3 will allow you to transform into a child, an elderly person, or a woman. Is this what you really want?"
254: 0x06D6 [0x23] WAIT_FOR_DIALOG_INTERACTION
255: 0x06D7 [0x03] ExtData[1]->WorkLocal[0] = 7*
256: 0x06DC [0x01] GOTO 0x06DF

SUBROUTINE_06DF:
257: 0x06DF [0x24] CREATE_DIALOG(message_id=10222*, default_option=1*, option_flags=0*)
     "Really choose this item? [My mind's made up!/Then again, maybe not.]"
258: 0x06E6 [0x25] WAIT_DIALOG_SELECT()
259: 0x06E7 [0x02] IF !(Work_Zone[0] == 0*) GOTO 0x06F7
260: 0x06EF [0x03] ExtData[1]->WorkLocal[1] = 1*
261: 0x06F4 [0x01] GOTO 0x0702
262: 0x06F7 [0x02] IF !(Work_Zone[0] == 1*) GOTO 0x0702
263: 0x06FF [0x01] GOTO 0x0702

SUBROUTINE_0702:
264: 0x0702 [0x01] GOTO 0x0891
265: 0x0705 [0x02] IF !(Work_Zone[3] == 2*) GOTO 0x0714
266: 0x070D [0x3C] SET_BIT_FLAG_CONDITIONAL(target_work_offset=ExtData[1]->WorkLocal[11], bit_index_work_offset=6*, condition_work_offset=1*)
267: 0x0714 [0x24] CREATE_DIALOG(message_id=10213*, default_option=0*, option_flags=ExtData[1]->WorkLocal[11])
     "Choose your weapon! [Scope./Bard's harp./Lead Guardsman's ID./Snares./Lucky charm./Pocket watch./???.]"
268: 0x071B [0x25] WAIT_DIALOG_SELECT()
269: 0x071C [0x02] IF !(Work_Zone[0] == 0*) GOTO 0x0757
270: 0x0724 [0x2B] Miledo-Shiraddo (ID: 17748144/0x010ED0B0) [10214*]:
     "The guardsmen in this area are dressed as ordinary citizens, but the scope will allow you to see right through their disguises. Is this what you really want?"
271: 0x072B [0x23] WAIT_FOR_DIALOG_INTERACTION
272: 0x072C [0x03] ExtData[1]->WorkLocal[0] = 1*
273: 0x0731 [0x24] CREATE_DIALOG(message_id=10222*, default_option=1*, option_flags=0*)
     "Really choose this item? [My mind's made up!/Then again, maybe not.]"
274: 0x0738 [0x25] WAIT_DIALOG_SELECT()
275: 0x0739 [0x02] IF !(Work_Zone[0] == 0*) GOTO 0x0749
276: 0x0741 [0x03] ExtData[1]->WorkLocal[1] = 1*
277: 0x0746 [0x01] GOTO 0x0754
278: 0x0749 [0x02] IF !(Work_Zone[0] == 1*) GOTO 0x0754
279: 0x0751 [0x01] GOTO 0x0754

SUBROUTINE_0754:
280: 0x0754 [0x01] GOTO 0x0891
281: 0x0757 [0x02] IF !(Work_Zone[0] == 1*) GOTO 0x0792
282: 0x075F [0x2B] Miledo-Shiraddo (ID: 17748144/0x010ED0B0) [10215*]:
     "You can use the bard's harp to recall someone's past. Is this what you really want?"
283: 0x0766 [0x23] WAIT_FOR_DIALOG_INTERACTION
284: 0x0767 [0x03] ExtData[1]->WorkLocal[0] = 2*
285: 0x076C [0x24] CREATE_DIALOG(message_id=10222*, default_option=1*, option_flags=0*)
     "Really choose this item? [My mind's made up!/Then again, maybe not.]"
286: 0x0773 [0x25] WAIT_DIALOG_SELECT()
287: 0x0774 [0x02] IF !(Work_Zone[0] == 0*) GOTO 0x0784
288: 0x077C [0x03] ExtData[1]->WorkLocal[1] = 1*
289: 0x0781 [0x01] GOTO 0x078F
290: 0x0784 [0x02] IF !(Work_Zone[0] == 1*) GOTO 0x078F
291: 0x078C [0x01] GOTO 0x078F

SUBROUTINE_078F:
292: 0x078F [0x01] GOTO 0x0891
293: 0x0792 [0x02] IF !(Work_Zone[0] == 2*) GOTO 0x07CD
294: 0x079A [0x2B] Miledo-Shiraddo (ID: 17748144/0x010ED0B0) [10216*]:
     "The lead guardsman's ID does just what its name implies--it identifies you as the lead guardsman! Is this what you really want?"
295: 0x07A1 [0x23] WAIT_FOR_DIALOG_INTERACTION
296: 0x07A2 [0x03] ExtData[1]->WorkLocal[0] = 3*
297: 0x07A7 [0x24] CREATE_DIALOG(message_id=10222*, default_option=1*, option_flags=0*)
     "Really choose this item? [My mind's made up!/Then again, maybe not.]"
298: 0x07AE [0x25] WAIT_DIALOG_SELECT()
299: 0x07AF [0x02] IF !(Work_Zone[0] == 0*) GOTO 0x07BF
300: 0x07B7 [0x03] ExtData[1]->WorkLocal[1] = 1*
301: 0x07BC [0x01] GOTO 0x07CA
302: 0x07BF [0x02] IF !(Work_Zone[0] == 1*) GOTO 0x07CA
303: 0x07C7 [0x01] GOTO 0x07CA

SUBROUTINE_07CA:
304: 0x07CA [0x01] GOTO 0x0891
305: 0x07CD [0x02] IF !(Work_Zone[0] == 3*) GOTO 0x0808
306: 0x07D5 [0x2B] Miledo-Shiraddo (ID: 17748144/0x010ED0B0) [10217*]:
     "You can lay the snares in various places and see what happens. Is this what you really want?"
307: 0x07DC [0x23] WAIT_FOR_DIALOG_INTERACTION
308: 0x07DD [0x03] ExtData[1]->WorkLocal[0] = 4*
309: 0x07E2 [0x24] CREATE_DIALOG(message_id=10222*, default_option=1*, option_flags=0*)
     "Really choose this item? [My mind's made up!/Then again, maybe not.]"
310: 0x07E9 [0x25] WAIT_DIALOG_SELECT()
311: 0x07EA [0x02] IF !(Work_Zone[0] == 0*) GOTO 0x07FA
312: 0x07F2 [0x03] ExtData[1]->WorkLocal[1] = 1*
313: 0x07F7 [0x01] GOTO 0x0805
314: 0x07FA [0x02] IF !(Work_Zone[0] == 1*) GOTO 0x0805
315: 0x0802 [0x01] GOTO 0x0805

SUBROUTINE_0805:
316: 0x0805 [0x01] GOTO 0x0891
317: 0x0808 [0x02] IF !(Work_Zone[0] == 4*) GOTO 0x0843
318: 0x0810 [0x2B] Miledo-Shiraddo (ID: 17748144/0x010ED0B0) [10218*]:
     "The lucky charm can be helpful when you're in a pinch. Is this what you really want?"
319: 0x0817 [0x23] WAIT_FOR_DIALOG_INTERACTION
320: 0x0818 [0x03] ExtData[1]->WorkLocal[0] = 5*
321: 0x081D [0x24] CREATE_DIALOG(message_id=10222*, default_option=1*, option_flags=0*)
     "Really choose this item? [My mind's made up!/Then again, maybe not.]"
322: 0x0824 [0x25] WAIT_DIALOG_SELECT()
323: 0x0825 [0x02] IF !(Work_Zone[0] == 0*) GOTO 0x0835
324: 0x082D [0x03] ExtData[1]->WorkLocal[1] = 1*
325: 0x0832 [0x01] GOTO 0x0840
326: 0x0835 [0x02] IF !(Work_Zone[0] == 1*) GOTO 0x0840
327: 0x083D [0x01] GOTO 0x0840

SUBROUTINE_0840:
328: 0x0840 [0x01] GOTO 0x0891
329: 0x0843 [0x02] IF !(Work_Zone[0] == 5*) GOTO 0x087E
330: 0x084B [0x2B] Miledo-Shiraddo (ID: 17748144/0x010ED0B0) [10219*]:
     "The pocket watch is a must for the punctual adventurer. Is this what you really want?"
331: 0x0852 [0x23] WAIT_FOR_DIALOG_INTERACTION
332: 0x0853 [0x03] ExtData[1]->WorkLocal[0] = 6*
333: 0x0858 [0x24] CREATE_DIALOG(message_id=10222*, default_option=1*, option_flags=0*)
     "Really choose this item? [My mind's made up!/Then again, maybe not.]"
334: 0x085F [0x25] WAIT_DIALOG_SELECT()
335: 0x0860 [0x02] IF !(Work_Zone[0] == 0*) GOTO 0x0870
336: 0x0868 [0x03] ExtData[1]->WorkLocal[1] = 1*
337: 0x086D [0x01] GOTO 0x087B
338: 0x0870 [0x02] IF !(Work_Zone[0] == 1*) GOTO 0x087B
339: 0x0878 [0x01] GOTO 0x087B

SUBROUTINE_087B:
340: 0x087B [0x01] GOTO 0x0891
341: 0x087E [0x02] IF !(Work_Zone[0] == 6*) GOTO 0x0891
342: 0x0886 [0x2B] Miledo-Shiraddo (ID: 17748144/0x010ED0B0) [10221*]:
     "Sorry, but I don't think you're ready for that yet!"
343: 0x088D [0x23] WAIT_FOR_DIALOG_INTERACTION
344: 0x088E [0x01] GOTO 0x0891

SUBROUTINE_0891:
345: 0x0891 [0x01] GOTO 0x061F
346: 0x0894 [0x52] END_LOAD_SCHEDULER: End scheduler "s009" with entities [EventEntity, EventEntity], work=197*
347: 0x08A3 [0x02] IF !(ExtData[1]->WorkLocal[0] == 4*) GOTO 0x0AAF
348: 0x08AB [0x45] LOAD_SCHEDULED_TASK: Load scheduler "s013" with entities [EventEntity, EventEntity], work=[197*, 0*]
349: 0x08BC [0x6E] Miledo-Shiraddo (ID: 17748144/0x010ED0B0) uses emote 7*
350: 0x08C3 [0x99] Wait for Miledo-Shiraddo (ID: 17748144/0x010ED0B0) animation to complete
351: 0x08C8 [0x2B] Miledo-Shiraddo (ID: 17748144/0x010ED0B0) [10223*]:
     "The snares! Excellent choice! Now all we have to do is decide where to lay them."
352: 0x08CF [0x23] WAIT_FOR_DIALOG_INTERACTION
353: 0x08D0 [0x2B] Miledo-Shiraddo (ID: 17748144/0x010ED0B0) [10224*]:
     "You can set as many as you want, but don't get greedy, or someone might notice! So, where do you want to lay the snares?"
354: 0x08D7 [0x23] WAIT_FOR_DIALOG_INTERACTION
355: 0x08D8 [0x03] ExtData[1]->WorkLocal[2] = 0*
356: 0x08DD [0x03] ExtData[1]->WorkLocal[3] = 0*
357: 0x08E2 [0x03] ExtData[1]->WorkLocal[4] = 0*
358: 0x08E7 [0x03] ExtData[1]->WorkLocal[5] = 0*
359: 0x08EC [0x03] ExtData[1]->WorkLocal[6] = 0*
360: 0x08F1 [0x03] ExtData[1]->WorkLocal[7] = 0*
361: 0x08F6 [0x03] ExtData[1]->WorkLocal[8] = 0*
362: 0x08FB [0x03] ExtData[1]->WorkLocal[9] = 0*

SUBROUTINE_0900:
363: 0x0900 [0x02] IF !(ExtData[1]->WorkLocal[2] == 0*) GOTO 0x0A3C

SUBROUTINE_0908:
364: 0x0908 [0x02] IF !(ExtData[1]->WorkLocal[3] == 0*) GOTO 0x098B
365: 0x0910 [0x24] CREATE_DIALOG(message_id=10225*, default_option=0*, option_flags=0*)
     "Pick a place to lay your traps. [1st floor - Near the kiln./1st floor - Shop./1st floor - Cermet Refinery./1st floor - Metalworks replica./2nd floor - Gunpowder Room./2nd floor - Cid's Lab./Finished.]"
366: 0x0917 [0x25] WAIT_DIALOG_SELECT()
367: 0x0918 [0x02] IF !(Work_Zone[0] == 0*) GOTO 0x0928
368: 0x0920 [0x03] ExtData[1]->WorkLocal[4] = 1*
369: 0x0925 [0x01] GOTO 0x0988
370: 0x0928 [0x02] IF !(Work_Zone[0] == 1*) GOTO 0x0938
371: 0x0930 [0x03] ExtData[1]->WorkLocal[5] = 1*
372: 0x0935 [0x01] GOTO 0x0988
373: 0x0938 [0x02] IF !(Work_Zone[0] == 2*) GOTO 0x0948
374: 0x0940 [0x03] ExtData[1]->WorkLocal[6] = 1*
375: 0x0945 [0x01] GOTO 0x0988
376: 0x0948 [0x02] IF !(Work_Zone[0] == 3*) GOTO 0x0958
377: 0x0950 [0x03] ExtData[1]->WorkLocal[7] = 1*
378: 0x0955 [0x01] GOTO 0x0988
379: 0x0958 [0x02] IF !(Work_Zone[0] == 4*) GOTO 0x0968
380: 0x0960 [0x03] ExtData[1]->WorkLocal[8] = 1*
381: 0x0965 [0x01] GOTO 0x0988
382: 0x0968 [0x02] IF !(Work_Zone[0] == 5*) GOTO 0x0978
383: 0x0970 [0x03] ExtData[1]->WorkLocal[9] = 1*
384: 0x0975 [0x01] GOTO 0x0988
385: 0x0978 [0x02] IF !(Work_Zone[0] == 6*) GOTO 0x0988
386: 0x0980 [0x03] ExtData[1]->WorkLocal[3] = 1*
387: 0x0985 [0x01] GOTO 0x0988

SUBROUTINE_0988:
388: 0x0988 [0x01] GOTO 0x0908
389: 0x098B [0x02] IF !(ExtData[1]->WorkLocal[4] == 1*) GOTO 0x099B
390: 0x0993 [0x2B] Miledo-Shiraddo (ID: 17748144/0x010ED0B0) [10226*]:
     "First floor, near the kiln. Gotcha."
391: 0x099A [0x23] WAIT_FOR_DIALOG_INTERACTION
392: 0x099B [0x02] IF !(ExtData[1]->WorkLocal[5] == 1*) GOTO 0x09AB
393: 0x09A3 [0x2B] Miledo-Shiraddo (ID: 17748144/0x010ED0B0) [10227*]:
     "First floor, in a shop. Gotcha."
394: 0x09AA [0x23] WAIT_FOR_DIALOG_INTERACTION
395: 0x09AB [0x02] IF !(ExtData[1]->WorkLocal[6] == 1*) GOTO 0x09BB
396: 0x09B3 [0x2B] Miledo-Shiraddo (ID: 17748144/0x010ED0B0) [10228*]:
     "First floor, in the Cermet Refinery. Gotcha."
397: 0x09BA [0x23] WAIT_FOR_DIALOG_INTERACTION
398: 0x09BB [0x02] IF !(ExtData[1]->WorkLocal[7] == 1*) GOTO 0x09CB
399: 0x09C3 [0x2B] Miledo-Shiraddo (ID: 17748144/0x010ED0B0) [10229*]:
     "First floor, in front of the Metalworks replica. Gotcha."
400: 0x09CA [0x23] WAIT_FOR_DIALOG_INTERACTION
401: 0x09CB [0x02] IF !(ExtData[1]->WorkLocal[8] == 1*) GOTO 0x09DB
402: 0x09D3 [0x2B] Miledo-Shiraddo (ID: 17748144/0x010ED0B0) [10230*]:
     "Second floor, in the Gunpowder Room. Gotcha."
403: 0x09DA [0x23] WAIT_FOR_DIALOG_INTERACTION
404: 0x09DB [0x02] IF !(ExtData[1]->WorkLocal[9] == 1*) GOTO 0x09EB
405: 0x09E3 [0x2B] Miledo-Shiraddo (ID: 17748144/0x010ED0B0) [10231*]:
     "Second floor, in Cid's Lab. Gotcha."
406: 0x09EA [0x23] WAIT_FOR_DIALOG_INTERACTION
407: 0x09EB [0x2B] Miledo-Shiraddo (ID: 17748144/0x010ED0B0) [10232*]:
     "Is that it?"
408: 0x09F2 [0x23] WAIT_FOR_DIALOG_INTERACTION
409: 0x09F3 [0x24] CREATE_DIALOG(message_id=10222*, default_option=1*, option_flags=0*)
     "Really choose this item? [My mind's made up!/Then again, maybe not.]"
410: 0x09FA [0x25] WAIT_DIALOG_SELECT()
411: 0x09FB [0x02] IF !(Work_Zone[0] == 0*) GOTO 0x0A0B
412: 0x0A03 [0x03] ExtData[1]->WorkLocal[2] = 1*
413: 0x0A08 [0x01] GOTO 0x0A39
414: 0x0A0B [0x02] IF !(Work_Zone[0] == 1*) GOTO 0x0A39
415: 0x0A13 [0x03] ExtData[1]->WorkLocal[3] = 0*
416: 0x0A18 [0x03] ExtData[1]->WorkLocal[4] = 0*
417: 0x0A1D [0x03] ExtData[1]->WorkLocal[5] = 0*
418: 0x0A22 [0x03] ExtData[1]->WorkLocal[6] = 0*
419: 0x0A27 [0x03] ExtData[1]->WorkLocal[7] = 0*
420: 0x0A2C [0x03] ExtData[1]->WorkLocal[8] = 0*
421: 0x0A31 [0x03] ExtData[1]->WorkLocal[9] = 0*
422: 0x0A36 [0x01] GOTO 0x0A39

SUBROUTINE_0A39:
423: 0x0A39 [0x01] GOTO 0x0900
424: 0x0A3C [0x2B] Miledo-Shiraddo (ID: 17748144/0x010ED0B0) [10233*]:
     "Okay! I'm off to lay the snares!"
425: 0x0A43 [0x23] WAIT_FOR_DIALOG_INTERACTION
426: 0x0A44 [0x27] REQ_SET(priority=0x0F, entity_id=Miledo-Shiraddo (ID: 17748144/0x010ED0B0), tag_num=0x03)
427: 0x0A4B [0x1C] WAIT(60* ticks)
428: 0x0A4E [0x45] LOAD_SCHEDULED_TASK: Load scheduler "fdo1" with entities [EventEntity, EventEntity], work=[200*, 0*]
429: 0x0A5F [0x55] WAIT_LOAD_SCHEDULER: Wait for scheduler "fdo1" with entities [EventEntity, EventEntity], work=200*
430: 0x0A6E [0x2A] GET_REQ_LEVEL(level=15, entity_id=Miledo-Shiraddo (ID: 17748144/0x010ED0B0))
431: 0x0A74 [0x27] REQ_SET(priority=0x14, entity_id=Miledo-Shiraddo (ID: 17748144/0x010ED0B0), tag_num=0x02)
432: 0x0A7B [0x1C] WAIT(120* ticks)
433: 0x0A7E [0x45] LOAD_SCHEDULED_TASK: Load scheduler "fdi1" with entities [EventEntity, EventEntity], work=[200*, 0*]
434: 0x0A8F [0x1C] WAIT(60* ticks)
435: 0x0A92 [0x2B] Miledo-Shiraddo (ID: 17748144/0x010ED0B0) [10234*]:
     "All done!"
436: 0x0A99 [0x23] WAIT_FOR_DIALOG_INTERACTION
437: 0x0A9A [0x2A] GET_REQ_LEVEL(level=20, entity_id=Miledo-Shiraddo (ID: 17748144/0x010ED0B0))
438: 0x0AA0 [0x52] END_LOAD_SCHEDULER: End scheduler "s013" with entities [EventEntity, EventEntity], work=197*
439: 0x0AAF [0x45] LOAD_SCHEDULED_TASK: Load scheduler "s010" with entities [EventEntity, EventEntity], work=[197*, 0*]
440: 0x0AC0 [0x79] Miledo-Shiraddo (ID: 17748144/0x010ED0B0) looks at Luto Mewrilah (ID: 17748143/0x010ED0AF) (Basic look)
441: 0x0ACA [0x4A] Luto Mewrilah (ID: 17748143/0x010ED0AF) looks at Miledo-Shiraddo (ID: 17748144/0x010ED0B0)
442: 0x0AD3 [0x2B] Luto Mewrilah (ID: 17748143/0x010ED0AF) [10235*]:
     "It is time, Miledo."
443: 0x0ADA [0x23] WAIT_FOR_DIALOG_INTERACTION
444: 0x0ADB [0x02] IF !(Work_Zone[3] == 2*) GOTO 0x0C57
445: 0x0AE3 [0x4A] Miledo-Shiraddo (ID: 17748144/0x010ED0B0) looks at LocalPlayer
446: 0x0AEC [0x79] Luto Mewrilah (ID: 17748143/0x010ED0AF) looks at LocalPlayer (Basic look)
447: 0x0AF6 [0x2B] Miledo-Shiraddo (ID: 17748144/0x010ED0B0) [10239*]:
     "Okay! You want to leave the letter this time?"
448: 0x0AFD [0x23] WAIT_FOR_DIALOG_INTERACTION
449: 0x0AFE [0x6E] LocalPlayer uses emote 7*
450: 0x0B05 [0x99] Wait for LocalPlayer animation to complete
451: 0x0B0A [0x1C] WAIT(90* ticks)
452: 0x0B0D [0x27] REQ_SET(priority=0x05, entity_id=LocalPlayer, tag_num=0xA4)
453: 0x0B14 [0x45] LOAD_SCHEDULED_TASK: Load scheduler "fdo1" with entities [EventEntity, EventEntity], work=[200*, 0*]
454: 0x0B25 [0x55] WAIT_LOAD_SCHEDULER: Wait for scheduler "fdo1" with entities [EventEntity, EventEntity], work=200*
455: 0x0B34 [0x52] END_LOAD_SCHEDULER: End scheduler "s010" with entities [EventEntity, EventEntity], work=197*
456: 0x0B43 [0x4A] Miledo-Shiraddo (ID: 17748144/0x010ED0B0) looks at Luto Mewrilah (ID: 17748143/0x010ED0AF)
457: 0x0B4C [0x2A] GET_REQ_LEVEL(level=5, entity_id=LocalPlayer)
458: 0x0B52 [0x29] REQ_SET_WAIT(priority=0x0A, entity_id=LocalPlayer, tag_num=0xA5)
459: 0x0B59 [0x45] LOAD_SCHEDULED_TASK: Load scheduler "s016" with entities [EventEntity, EventEntity], work=[197*, 0*]
460: 0x0B6A [0x1C] WAIT(60* ticks)
461: 0x0B6D [0x45] LOAD_SCHEDULED_TASK: Load scheduler "fdi1" with entities [EventEntity, EventEntity], work=[200*, 0*]
462: 0x0B7E [0x1C] WAIT(60* ticks)
463: 0x0B81 [0x27] REQ_SET(priority=0x0F, entity_id=LocalPlayer, tag_num=0xA6)
464: 0x0B88 [0x29] REQ_SET_WAIT(priority=0x05, entity_id=Salim (ID: 17747999/0x010ED01F), tag_num=0x05)
465: 0x0B8F [0x45] LOAD_SCHEDULED_TASK: Load scheduler "fdo1" with entities [EventEntity, EventEntity], work=[200*, 0*]
466: 0x0BA0 [0x55] WAIT_LOAD_SCHEDULER: Wait for scheduler "fdo1" with entities [EventEntity, EventEntity], work=200*
467: 0x0BAF [0x52] END_LOAD_SCHEDULER: End scheduler "s016" with entities [EventEntity, EventEntity], work=197*
468: 0x0BBE [0x02] IF !(ExtData[1]->WorkLocal[0] == 5*) GOTO 0x0BD3
469: 0x0BC6 [0x4E] SET_ENTITY_HIDE_FLAG: Show Pensive Beast (ID: 17748149/0x010ED0B5)
470: 0x0BCC [0x29] REQ_SET_WAIT(priority=0x05, entity_id=Pensive Beast (ID: 17748149/0x010ED0B5), tag_num=0x0C)
471: 0x0BD3 [0x29] REQ_SET_WAIT(priority=0x0F, entity_id=Salim (ID: 17747999/0x010ED01F), tag_num=0x06)
472: 0x0BDA [0x4A] Gentle Tiger (ID: 17748146/0x010ED0B2) looks at Salim (ID: 17747999/0x010ED01F)
473: 0x0BE3 [0x4A] Militant Gale (ID: 17748147/0x010ED0B3) looks at Salim (ID: 17747999/0x010ED01F)
474: 0x0BEC [0x29] REQ_SET_WAIT(priority=0x05, entity_id=LocalPlayer, tag_num=0xA7)
475: 0x0BF3 [0x27] REQ_SET(priority=0x14, entity_id=LocalPlayer, tag_num=0xA8)
476: 0x0BFA [0x45] LOAD_SCHEDULED_TASK: Load scheduler "s012" with entities [EventEntity, EventEntity], work=[197*, 0*]
477: 0x0C0B [0x1C] WAIT(60* ticks)
478: 0x0C0E [0x45] LOAD_SCHEDULED_TASK: Load scheduler "fdi1" with entities [EventEntity, EventEntity], work=[200*, 0*]
479: 0x0C1F [0x1C] WAIT(60* ticks)
480: 0x0C22 [0x4A] Luto Mewrilah (ID: 17748143/0x010ED0AF) looks at LocalPlayer
481: 0x0C2B [0x1C] WAIT(30* ticks)
482: 0x0C2E [0x4A] Miledo-Shiraddo (ID: 17748144/0x010ED0B0) looks at LocalPlayer
483: 0x0C37 [0x2B] Miledo-Shiraddo (ID: 17748144/0x010ED0B0) [10240*]:
     "You left it where Salim could find it, right?"
484: 0x0C3E [0x23] WAIT_FOR_DIALOG_INTERACTION
485: 0x0C3F [0x2A] GET_REQ_LEVEL(level=20, entity_id=LocalPlayer)
486: 0x0C45 [0x6E] LocalPlayer uses emote 7*
487: 0x0C4C [0x99] Wait for LocalPlayer animation to complete
488: 0x0C51 [0x1C] WAIT(90* ticks)
489: 0x0C54 [0x01] GOTO 0x0DF5
490: 0x0C57 [0x4A] Miledo-Shiraddo (ID: 17748144/0x010ED0B0) looks at Luto Mewrilah (ID: 17748143/0x010ED0AF)
491: 0x0C60 [0x2B] Miledo-Shiraddo (ID: 17748144/0x010ED0B0) [10236*]:
     "Gotcha! I'll go leave a letter for Salim now!"
492: 0x0C67 [0x23] WAIT_FOR_DIALOG_INTERACTION
493: 0x0C68 [0x52] END_LOAD_SCHEDULER: End scheduler "s010" with entities [EventEntity, EventEntity], work=197*
494: 0x0C77 [0x45] LOAD_SCHEDULED_TASK: Load scheduler "s011" with entities [EventEntity, EventEntity], work=[197*, 0*]
495: 0x0C88 [0x79] LocalPlayer looks at Miledo-Shiraddo (ID: 17748144/0x010ED0B0) (Basic look)
496: 0x0C92 [0x27] REQ_SET(priority=0x0F, entity_id=Miledo-Shiraddo (ID: 17748144/0x010ED0B0), tag_num=0x03)
497: 0x0C99 [0x1C] WAIT(120* ticks)
498: 0x0C9C [0x4A] Luto Mewrilah (ID: 17748143/0x010ED0AF) looks at LocalPlayer
499: 0x0CA5 [0x1C] WAIT(30* ticks)
500: 0x0CA8 [0x79] LocalPlayer looks at Luto Mewrilah (ID: 17748143/0x010ED0AF) (Basic look)
501: 0x0CB2 [0x2B] Luto Mewrilah (ID: 17748143/0x010ED0AF) [10237*]:
     "Before pulling off a job, we always leave a letter. It's our trrrademark."
502: 0x0CB9 [0x23] WAIT_FOR_DIALOG_INTERACTION
503: 0x0CBA [0x45] LOAD_SCHEDULED_TASK: Load scheduler "fdo1" with entities [EventEntity, EventEntity], work=[200*, 0*]
504: 0x0CCB [0x55] WAIT_LOAD_SCHEDULER: Wait for scheduler "fdo1" with entities [EventEntity, EventEntity], work=200*
505: 0x0CDA [0x52] END_LOAD_SCHEDULER: End scheduler "s011" with entities [EventEntity, EventEntity], work=197*
506: 0x0CE9 [0x2A] GET_REQ_LEVEL(level=15, entity_id=Miledo-Shiraddo (ID: 17748144/0x010ED0B0))
507: 0x0CEF [0x29] REQ_SET_WAIT(priority=0x0A, entity_id=Miledo-Shiraddo (ID: 17748144/0x010ED0B0), tag_num=0x04)
508: 0x0CF6 [0x45] LOAD_SCHEDULED_TASK: Load scheduler "s016" with entities [EventEntity, EventEntity], work=[197*, 0*]
509: 0x0D07 [0x1C] WAIT(60* ticks)
510: 0x0D0A [0x45] LOAD_SCHEDULED_TASK: Load scheduler "fdi1" with entities [EventEntity, EventEntity], work=[200*, 0*]
511: 0x0D1B [0x1C] WAIT(60* ticks)
512: 0x0D1E [0x27] REQ_SET(priority=0x0F, entity_id=Miledo-Shiraddo (ID: 17748144/0x010ED0B0), tag_num=0x05)
513: 0x0D25 [0x29] REQ_SET_WAIT(priority=0x05, entity_id=Salim (ID: 17747999/0x010ED01F), tag_num=0x05)
514: 0x0D2C [0x45] LOAD_SCHEDULED_TASK: Load scheduler "fdo1" with entities [EventEntity, EventEntity], work=[200*, 0*]
515: 0x0D3D [0x55] WAIT_LOAD_SCHEDULER: Wait for scheduler "fdo1" with entities [EventEntity, EventEntity], work=200*
516: 0x0D4C [0x52] END_LOAD_SCHEDULER: End scheduler "s016" with entities [EventEntity, EventEntity], work=197*
517: 0x0D5B [0x02] IF !(ExtData[1]->WorkLocal[0] == 5*) GOTO 0x0D70
518: 0x0D63 [0x4E] SET_ENTITY_HIDE_FLAG: Show Pensive Beast (ID: 17748149/0x010ED0B5)
519: 0x0D69 [0x29] REQ_SET_WAIT(priority=0x05, entity_id=Pensive Beast (ID: 17748149/0x010ED0B5), tag_num=0x0C)
520: 0x0D70 [0x29] REQ_SET_WAIT(priority=0x0F, entity_id=Salim (ID: 17747999/0x010ED01F), tag_num=0x06)
521: 0x0D77 [0x4A] Gentle Tiger (ID: 17748146/0x010ED0B2) looks at Salim (ID: 17747999/0x010ED01F)
522: 0x0D80 [0x4A] Militant Gale (ID: 17748147/0x010ED0B3) looks at Salim (ID: 17747999/0x010ED01F)
523: 0x0D89 [0x29] REQ_SET_WAIT(priority=0x05, entity_id=Miledo-Shiraddo (ID: 17748144/0x010ED0B0), tag_num=0x06)
524: 0x0D90 [0x27] REQ_SET(priority=0x14, entity_id=Miledo-Shiraddo (ID: 17748144/0x010ED0B0), tag_num=0x07)
525: 0x0D97 [0x45] LOAD_SCHEDULED_TASK: Load scheduler "s012" with entities [EventEntity, EventEntity], work=[197*, 0*]
526: 0x0DA8 [0x1C] WAIT(60* ticks)
527: 0x0DAB [0x45] LOAD_SCHEDULED_TASK: Load scheduler "fdi1" with entities [EventEntity, EventEntity], work=[200*, 0*]
528: 0x0DBC [0x1C] WAIT(60* ticks)
529: 0x0DBF [0x4A] LocalPlayer looks at Miledo-Shiraddo (ID: 17748144/0x010ED0B0)
530: 0x0DC8 [0x1C] WAIT(30* ticks)
531: 0x0DCB [0x4A] Luto Mewrilah (ID: 17748143/0x010ED0AF) looks at Miledo-Shiraddo (ID: 17748144/0x010ED0B0)
532: 0x0DD4 [0x2B] Miledo-Shiraddo (ID: 17748144/0x010ED0B0) [10238*]:
     "The letter has been delivered!"
533: 0x0DDB [0x23] WAIT_FOR_DIALOG_INTERACTION
534: 0x0DDC [0x4A] Luto Mewrilah (ID: 17748143/0x010ED0AF) looks at LocalPlayer
535: 0x0DE5 [0x79] LocalPlayer looks at Luto Mewrilah (ID: 17748143/0x010ED0AF) (Basic look)
536: 0x0DEF [0x2A] GET_REQ_LEVEL(level=25, entity_id=Miledo-Shiraddo (ID: 17748144/0x010ED0B0))

SUBROUTINE_0DF5:
537: 0x0DF5 [0x45] LOAD_SCHEDULED_TASK: Load scheduler "ovl1" with entities [LocalPlayer, LocalPlayer], work=[200*, 0*]
538: 0x0E06 [0x52] END_LOAD_SCHEDULER: End scheduler "s012" with entities [EventEntity, EventEntity], work=197*
539: 0x0E15 [0x45] LOAD_SCHEDULED_TASK: Load scheduler "s014" with entities [EventEntity, EventEntity], work=[197*, 0*]
540: 0x0E26 [0x27] REQ_SET(priority=0x05, entity_id=Gentle Tiger (ID: 17748146/0x010ED0B2), tag_num=0x03)
541: 0x0E2D [0x2B] Luto Mewrilah (ID: 17748143/0x010ED0AF) [10241*]:
     "It looks like Salim's been setting up guardsmen in the Metalworks lately, so be wary even if you think you've found something."
542: 0x0E34 [0x23] WAIT_FOR_DIALOG_INTERACTION
543: 0x0E35 [0x27] REQ_SET(priority=0x0A, entity_id=Militant Gale (ID: 17748147/0x010ED0B3), tag_num=0x03)
544: 0x0E3C [0x2B] Luto Mewrilah (ID: 17748143/0x010ED0AF) [10242*]:
     "Even if they do find out what we're up to, we might be able to get away with it a second time. Any more than that, though, and we'll be forced to stalk away with our tails between our legs."
545: 0x0E43 [0x23] WAIT_FOR_DIALOG_INTERACTION
546: 0x0E44 [0x1C] WAIT(180* ticks)
547: 0x0E47 [0x52] END_LOAD_SCHEDULER: End scheduler "s014" with entities [EventEntity, EventEntity], work=197*
548: 0x0E56 [0x02] IF !(ExtData[1]->WorkLocal[0] == 5*) GOTO 0x100C
549: 0x0E5E [0x45] LOAD_SCHEDULED_TASK: Load scheduler "s016" with entities [EventEntity, EventEntity], work=[198*, 0*]
550: 0x0E6F [0x4E] SET_ENTITY_HIDE_FLAG: Hide Salim (ID: 17747999/0x010ED01F)
551: 0x0E75 [0x2A] GET_REQ_LEVEL(level=10, entity_id=Militant Gale (ID: 17748147/0x010ED0B3))
552: 0x0E7B [0x29] REQ_SET_WAIT(priority=0x0F, entity_id=Militant Gale (ID: 17748147/0x010ED0B3), tag_num=0x16)
553: 0x0E82 [0x4B] UPDATE_ENTITY_YAW(entity=Luto Mewrilah (ID: 17748143/0x010ED0AF), yaw=11.2*)
554: 0x0E89 [0x2A] GET_REQ_LEVEL(level=5, entity_id=Gentle Tiger (ID: 17748146/0x010ED0B2))
555: 0x0E8F [0x29] REQ_SET_WAIT(priority=0x0A, entity_id=Gentle Tiger (ID: 17748146/0x010ED0B2), tag_num=0x16)
556: 0x0E96 [0x4A] Gentle Tiger (ID: 17748146/0x010ED0B2) looks at Pensive Beast (ID: 17748149/0x010ED0B5)
557: 0x0E9F [0x4A] Militant Gale (ID: 17748147/0x010ED0B3) looks at Pensive Beast (ID: 17748149/0x010ED0B5)
558: 0x0EA8 [0x4A] Pensive Beast (ID: 17748149/0x010ED0B5) looks at Gentle Tiger (ID: 17748146/0x010ED0B2)
559: 0x0EB1 [0x2B] Luto Mewrilah (ID: 17748143/0x010ED0AF) [10461*]:
     "It's showtime!"
560: 0x0EB8 [0x23] WAIT_FOR_DIALOG_INTERACTION
561: 0x0EB9 [0x52] END_LOAD_SCHEDULER: End scheduler "s016" with entities [EventEntity, EventEntity], work=198*
562: 0x0EC8 [0x45] LOAD_SCHEDULED_TASK: Load scheduler "s017" with entities [EventEntity, EventEntity], work=[198*, 0*]
563: 0x0ED9 [0x2B] Gentle Tiger (ID: 17748146/0x010ED0B2) [10462*]:
     "Sir, do you think that thieves will really show up?"
564: 0x0EE0 [0x23] WAIT_FOR_DIALOG_INTERACTION
565: 0x0EE1 [0x6E] Pensive Beast (ID: 17748149/0x010ED0B5) uses emote 7*
566: 0x0EE8 [0x99] Wait for Pensive Beast (ID: 17748149/0x010ED0B5) animation to complete
567: 0x0EED [0x2B] Pensive Beast (ID: 17748149/0x010ED0B5) [10463*]:
     "We got a letter from them, didn't we? They'll be here, all right, so don't slack off."
568: 0x0EF4 [0x23] WAIT_FOR_DIALOG_INTERACTION
569: 0x0EF5 [0x6E] Gentle Tiger (ID: 17748146/0x010ED0B2) uses emote 7*
570: 0x0EFC [0x99] Wait for Gentle Tiger (ID: 17748146/0x010ED0B2) animation to complete
571: 0x0F01 [0x2B] Gentle Tiger (ID: 17748146/0x010ED0B2) [10439*]:
     "Understood!"
572: 0x0F08 [0x23] WAIT_FOR_DIALOG_INTERACTION
573: 0x0F09 [0x52] END_LOAD_SCHEDULER: End scheduler "s017" with entities [EventEntity, EventEntity], work=198*
574: 0x0F18 [0x45] LOAD_SCHEDULED_TASK: Load scheduler "s018" with entities [EventEntity, EventEntity], work=[198*, 0*]
575: 0x0F29 [0x13] ExtData[1]->WorkLocal[10] = rand() % 2*
576: 0x0F2E [0x02] IF !(ExtData[1]->WorkLocal[10] == 0*) GOTO 0x0F46
577: 0x0F36 [0x2B] Pensive Beast (ID: 17748149/0x010ED0B5) [10464*]:
     "I'll go stand guard by the kiln."
578: 0x0F3D [0x23] WAIT_FOR_DIALOG_INTERACTION
579: 0x0F3E [0x03] ExtData[1]->WorkLocal[10] = 1*
580: 0x0F43 [0x01] GOTO 0x0F76
581: 0x0F46 [0x02] IF !(ExtData[1]->WorkLocal[10] == 1*) GOTO 0x0F5E
582: 0x0F4E [0x2B] Pensive Beast (ID: 17748149/0x010ED0B5) [10465*]:
     "I'll go stand guard in the Cermet Refinery."
583: 0x0F55 [0x23] WAIT_FOR_DIALOG_INTERACTION
584: 0x0F56 [0x03] ExtData[1]->WorkLocal[10] = 2*
585: 0x0F5B [0x01] GOTO 0x0F76
586: 0x0F5E [0x02] IF !(ExtData[1]->WorkLocal[10] == 2*) GOTO 0x0F76
587: 0x0F66 [0x2B] Pensive Beast (ID: 17748149/0x010ED0B5) [10466*]:
     "I'll go stand guard in front of the Metalworks replica."
588: 0x0F6D [0x23] WAIT_FOR_DIALOG_INTERACTION
589: 0x0F6E [0x03] ExtData[1]->WorkLocal[10] = 3*
590: 0x0F73 [0x01] GOTO 0x0F76

SUBROUTINE_0F76:
591: 0x0F76 [0x6E] Militant Gale (ID: 17748147/0x010ED0B3) uses emote 7*
592: 0x0F7D [0x99] Wait for Militant Gale (ID: 17748147/0x010ED0B3) animation to complete
593: 0x0F82 [0x2B] Militant Gale (ID: 17748147/0x010ED0B3) [10439*]:
     "Understood!"
594: 0x0F89 [0x23] WAIT_FOR_DIALOG_INTERACTION
595: 0x0F8A [0x27] REQ_SET(priority=0x05, entity_id=Pensive Beast (ID: 17748149/0x010ED0B5), tag_num=0x0D)
596: 0x0F91 [0x1C] WAIT(30* ticks)
597: 0x0F94 [0x27] REQ_SET(priority=0x0A, entity_id=Gentle Tiger (ID: 17748146/0x010ED0B2), tag_num=0x17)
598: 0x0F9B [0x27] REQ_SET(priority=0x0F, entity_id=Militant Gale (ID: 17748147/0x010ED0B3), tag_num=0x17)
599: 0x0FA2 [0x1C] WAIT(60* ticks)
600: 0x0FA5 [0x52] END_LOAD_SCHEDULER: End scheduler "s018" with entities [EventEntity, EventEntity], work=198*
601: 0x0FB4 [0x45] LOAD_SCHEDULED_TASK: Load scheduler "s019" with entities [EventEntity, EventEntity], work=[198*, 0*]
602: 0x0FC5 [0x2B] Luto Mewrilah (ID: 17748143/0x010ED0AF) [10467*]:
     "So, even the lead guardsman's getting involved. He'll be tough to get arrround."
603: 0x0FCC [0x23] WAIT_FOR_DIALOG_INTERACTION
604: 0x0FCD [0x79] Luto Mewrilah (ID: 17748143/0x010ED0AF) looks at Miledo-Shiraddo (ID: 17748144/0x010ED0B0) (Basic look)
605: 0x0FD7 [0x1C] WAIT(30* ticks)
606: 0x0FDA [0x2B] Luto Mewrilah (ID: 17748143/0x010ED0AF) [10468*]:
     "Let's just avoid him at all costs."
607: 0x0FE1 [0x23] WAIT_FOR_DIALOG_INTERACTION
608: 0x0FE2 [0x6E] Miledo-Shiraddo (ID: 17748144/0x010ED0B0) uses emote 7*
609: 0x0FE9 [0x99] Wait for Miledo-Shiraddo (ID: 17748144/0x010ED0B0) animation to complete
610: 0x0FEE [0x1C] WAIT(60* ticks)
