# 17748017 - Malduc

## Common Data

| Field            | Value                |
|------------------|----------------------|
| Zone             | Metalworks (ID: 237) |
| Block Size       | 3040 bytes           |
| Total Events     | 13                   |
| References Count | 111                  |

## List of Events

| Event ID              | Entrypoint   |   Size |   Instructions |
|-----------------------|--------------|--------|----------------|
| [65535](#event-65535) | 0x0000       |      1 |              1 |
| [1000](#event-1000)   | 0x0001       |    116 |             26 |
| [1001](#event-1001)   | 0x0075       |   1028 |            194 |
| [1002](#event-1002)   | 0x0479       |     11 |              5 |
| [1003](#event-1003)   | 0x0484       |     11 |              5 |
| [1004](#event-1004)   | 0x048F       |    122 |             27 |
| [1005](#event-1005)   | 0x0509       |     31 |              8 |
| [1006](#event-1006)   | 0x0528       |     36 |              9 |
| [1007](#event-1007)   | 0x054C       |     11 |              5 |
| [1011](#event-1011)   | 0x0557       |     16 |              6 |
| [1008](#event-1008)   | 0x0567       |    218 |             40 |
| [1009](#event-1009)   | 0x0641       |    381 |             57 |
| [1010](#event-1010)   | 0x07BE       |    546 |             74 |

## DAT References (imed_data)

|   Index | Hex Value   |   Dec Value |
|---------|-------------|-------------|
|       0 | 0x0006      |           6 |
|       1 | 0x0007      |           7 |
|       2 | 0x0000      |           0 |
|       3 | 0x000B      |          11 |
|       4 | 0x000C      |          12 |
|       5 | 0x000D      |          13 |
|       6 | 0x000E      |          14 |
|       7 | 0x0001      |           1 |
|       8 | 0x000A      |          10 |
|       9 | 0x0004      |           4 |
|      10 | 0x0005      |           5 |
|      11 | 0x001F      |          31 |
|      12 | 0x000F      |          15 |
|      13 | 0x0010      |          16 |
|      14 | 0x0011      |          17 |
|      15 | 0x0002      |           2 |
|      16 | 0x025E      |         606 |
|      17 | 0x025F      |         607 |
|      18 | 0x0260      |         608 |
|      19 | 0x0261      |         609 |
|      20 | 0x0012      |          18 |
|      21 | 0x0013      |          19 |
|      22 | 0x0014      |          20 |
|      23 | 0x0003      |           3 |
|      24 | 0x001D      |          29 |
|      25 | 0x001E      |          30 |
|      26 | 0x0020      |          32 |
|      27 | 0x0021      |          33 |
|      28 | 0x110A      |        4362 |
|      29 | 0x0022      |          34 |
|      30 | 0x0023      |          35 |
|      31 | 0x0024      |          36 |
|      32 | 0x0025      |          37 |
|      33 | 0x0026      |          38 |
|      34 | 0x0027      |          39 |
|      35 | 0x0028      |          40 |
|      36 | 0x0029      |          41 |
|      37 | 0x0233      |         563 |
|      38 | 0x002A      |          42 |
|      39 | 0x002B      |          43 |
|      40 | 0x002C      |          44 |
|      41 | 0x002D      |          45 |
|      42 | 0x002F      |          47 |
|      43 | 0x0030      |          48 |
|      44 | 0x0031      |          49 |
|      45 | 0x0032      |          50 |
|      46 | 0x0033      |          51 |
|      47 | 0x0034      |          52 |
|      48 | 0x0035      |          53 |
|      49 | 0x21A7      |        8615 |
|      50 | 0x21A8      |        8616 |
|      51 | 0x21A9      |        8617 |
|      52 | 0x21AA      |        8618 |
|      53 | 0x21AB      |        8619 |
|      54 | 0x21AC      |        8620 |
|      55 | 0x21AD      |        8621 |
|      56 | 0x21AE      |        8622 |
|      57 | 0x21AF      |        8623 |
|      58 | 0x21B0      |        8624 |
|      59 | 0x21B2      |        8626 |
|      60 | 0x21B3      |        8627 |
|      61 | 0x0015      |          21 |
|      62 | 0x21B4      |        8628 |
|      63 | 0x21B5      |        8629 |
|      64 | 0x0016      |          22 |
|      65 | 0x21B6      |        8630 |
|      66 | 0x21B7      |        8631 |
|      67 | 0x21B8      |        8632 |
|      68 | 0x0017      |          23 |
|      69 | 0x21B9      |        8633 |
|      70 | 0x21BA      |        8634 |
|      71 | 0x21BB      |        8635 |
|      72 | 0x21BC      |        8636 |
|      73 | 0x0008      |           8 |
|      74 | 0x0018      |          24 |
|      75 | 0x0019      |          25 |
|      76 | 0x001A      |          26 |
|      77 | 0x001B      |          27 |
|      78 | 0x001C      |          28 |
|      79 | 0x00C9      |         201 |
|      80 | 0x002E      |          46 |
|      81 | 0x0036      |          54 |
|      82 | 0x0122      |         290 |
|      83 | 0x21B1      |        8625 |
|      84 | 0x00CE      |         206 |
|      85 | 0x00C8      |         200 |
|      86 | 0x00F0      |         240 |
|      87 | 0x003C      |          60 |
|      88 | 0x2193      |        8595 |
|      89 | 0x2194      |        8596 |
|      90 | 0x2195      |        8597 |
|      91 | 0x2196      |        8598 |
|      92 | 0x2197      |        8599 |
|      93 | 0x2198      |        8600 |
|      94 | 0x2199      |        8601 |
|      95 | 0x219A      |        8602 |
|      96 | 0x0384      |         900 |
|      97 | 0x219B      |        8603 |
|      98 | 0x219C      |        8604 |
|      99 | 0x219D      |        8605 |
|     100 | 0x219E      |        8606 |
|     101 | 0x219F      |        8607 |
|     102 | 0x21A0      |        8608 |
|     103 | 0x006E      |         110 |
|     104 | 0x21A1      |        8609 |
|     105 | 0x21A2      |        8610 |
|     106 | 0x21A3      |        8611 |
|     107 | 0x21A4      |        8612 |
|     108 | 0x21A5      |        8613 |
|     109 | 0x006F      |         111 |
|     110 | 0x21A6      |        8614 |

## String References

- **2**: I am in charge of assigning missions, but I am only allowed to do so to those whose allegiance is to Bastok.
- **3**: You cannot undertake two missions at the same time. Finish the one you are on now before asking for a new one.
- **4**: Missions currently available are as follows:
- **5**: Which mission will you undertake? [The Zeruhn Report./A Geological Survey./Fetichism./The Crystal Line./Wading Beasts./The Emissary."-3-1A."-3-1B."-3-2A."-3-2B./The Four Musketeers./To the Forsaken Mines./Jeuno./$3_$3~[./Darkness Rising./Xarcabard, Land of Truths./Return of the Talekeeper./The Pirates' Cove./The Final Image./On My Way./The Chains That Bind Us./Enter the Talekeeper./The Salt of the Earth./Where Two Paths Converge./$3_$3~$470607$3_$3~$470608$3_$3~$470609$3_$3~$470610$3_$3~$470611$3_$3~$470612$3_$3~$470613None.]
- **6**: I am in charge of assigning missions to Bastokers who wish to serve their country. Are you one of them?
- **7**: Have you come to undertake a mission? [Yes, I have./No, maybe later.]
- **8**: Will you accept this mission? [Yes./No.]
- **10**: Then move along.
- **11**: Good. This is your first time going on a mission, is it not?
- **12**: Your first assignment is not a difficult one. The details are as follows:
- **13**: You must go to the Zeruhn Mines in the western section of the Mines District. Once there, you are to collect a report from the overseer.
- **14**: You can consult the "Mission" section of the main menu to review your objectives. Speed and efficiency are your priorities. Dismissed.
- **15**: The Chief Engineer is conducting new research, and has asked for someone to assist him. He can be found in the Metalworks, to the east of the administrative section.
- **16**: The Chief Engineer's laboratory is on the second floor of the Metalworks. You don't know his name!? And you call yourself a Bastoker!
- **17**: The Chief Engineer's name is Cid. Any Bastoker would know that! Now go and see him. He will give you the details of your mission.
- **18**: The Palborough Mines, once our main source of mythril, have been under beastman control for some time.
- **19**: We want you to hunt these beastmen, the Quadav, and bring back $4, $5, $6, and $7 as proof of your accomplishments.
- **20**: You must present all four items to me or one of my colleagues in order to complete this mission.
- **21**: Good, you've brought all four parts of the doll.
- **22**: I am raising your rank to 2 for completing this mission. Congratulations.
- **23**: If you've been to the Palborough Mines, you must know now the serious nature of the threat these beastmen pose to our civilization.
- **24**: As a Bastoker, you are expected to take on more missions and go on conquests to preserve Bastok's brilliant future!
- **25**: But I cannot give you a new mission at this time.
- **26**: You need to collect rank points before taking on new missions.
- **27**: You can receive rank points by participating in conquests and donating the crystals you acquire to guards, or by undertaking missions you've previously completed.
- **28**: Ask the High Guard near the gatehouse if you wish to hear more about conquests.
- **29**: Have you heard of a strange structure called the Crag of Dem? It is on the Konschtat Highlands, north of the Gustaberg Mountains.
- **30**: They say that crystals are drained of their power if you take them to a certain section of that structure.
- **31**: Chief Cid is currently investigating this strange phenomenon, and is asking for someone to bring back a faded crystal.
- **32**: Go see him for a more detailed explanation of your objectives.
- **33**: You want a crystal to use for this experiment? Are you not an adventurer? It should be easy for you to procure one.
- **34**: You are to collect $7 from beasts in the Dangruf Wadi.
- **35**: Senator Alois is in need of some. Do not ask me why. He can be found in the President's Office.
- **36**: You've acquired quite a reputation. There is a new mission for you to tackle.
- **37**: First, speak to Sir Naji of the Mythril Musketeers at the President's Office. This mission is of great import to the welfare of our nation.
- **38**: I see you've made it back safely from your journey to Windurst and San d'Oria. This new mission should not be hard for an experienced adventurer like you.
- **39**: The Mythril Musketeers are planning an offensive on the Quadav stronghold.
- **40**: Adventurers, including yourself, have been asked to join them on this operation.
- **41**: You are to go meet Iron Eater, one of the Mythril Musketeers, to receive a full briefing.
- **42**: The Gusgen Mines in the Konschtat Highlands have been dug to the bare rock and abandoned for some time...
- **43**: But lately, there have been reports that a rare ore can be found in them. No one has claimed this new vein yet.
- **44**: You are to bring back a sample of the ore to confirm these reports. A Galka adventurer named Davyad should be able to help you. He is said to have acquired a chunk of the ore when he was there last.
- **45**: The item that Davyad brought back was $7. That is what you should seek as well. Once you have the ore, hand them over to me or one of my colleagues.
- **46**: You have succeeded in bringing back $7. Good work, adventurer. This discovery may help rejuvenate Bastok's economy!
- **47**: You have heard of Jeuno, have you not? The Bastokan government is currently looking for someone to send there, and your name is on the list of candidates.
- **48**: The presidential aide, Sir Lucius himself, recommended you. It is a great honor--you should be proud!
- **49**: Sir Lucius wishes to see you as soon as possible. Go meet him in his office in the administrative section at the top of the Metalworks.
- **50**: I have orders for you from the president himself. You must have heard already, but he wants you to go to Fei'Yin.
- **51**: Go speak to Sir Naji at the President's Office. He will show you in.
- **52**: So, it has finally come to this... You are to infiltrate the Kindred's main stronghold of Zvahl.
- **53**: The president will brief you himself in his office. Good luck, adventurer!
- **54**: Ah, you have returned from Jeuno. Go to the President's Office right away. Sir Naji will show you in.
- **8615**: There has been some commotion in the Mines District near Ore Street. People are saying that a new Talekeeper has appeared.
- **8616**: It sounds fishy to me, but with the disappearance of their elder, Werei, anything could be possible. And the last thing we want is an uprising by the Galka.
- **8617**: Go to Ore Street and talk to Medicine Eagle. He says he was there when the commotion started.
- **8618**: I assume an adventurer of your caliber has heard of Norg.
- **8619**: Well, the place is a haven for pirates. They even have ties with the Tenshodo. In any case, it's an area that cannot be looked upon lightly.
- **8620**: That is why we want you to travel there as an emissary. Report to Sir Naji in the President's Office for details.
- **8621**: Currently, Chief Engineer Cid is conducting research on the architecture in Ro'Maeve near the Sanctuary of Zi'Tah. Your next mission is to travel there and assist him.
- **8622**: Report to the Chief Engineer in the Metalworks for further details.
- **8623**: We are searching for an adventurer holding vital information dealing with a certain national investigation.
- **8624**: The president himself has expressed great interest in this case. Proceed to the President's Office for the details of this mission.
- **8625**: You've been ordered by the president to deliver that $3. When you have completed that task, you can return here for your next mission.
- **8626**: It looks like Bastok is really going to begin an investigation of the Galka homeland of Altepa.
- **8627**: Your role in this investigation will have you traveling to the Quicksand Caves. Get the details of this mission from Iron Eater in the President's Office.
- **8628**: As a continuation of Bastok's investigation of Altepa, this time you will be traveling to Zepwell Island.
- **8629**: You will be carrying out your part of the investigation in the Kuftal Tunnel, which connects Cape Teriggan to Zepwell Island. Report to Drake Fang in the Zeruhn Mines for details.
- **8630**: Senator Alois has asked for your assistance.
- **8631**: It is something about an expedition to Vollbow...
- **8632**: I just hope he's not asking you to go get lizard eggs again... Wait, you didn't hear me say that.
- **8633**: Recently, an adventurer who was sent to investigate the Northlands has been attacked.
- **8634**: According to her report, the attacker resembled the dark knight Zeid.
- **8635**: The strange thing is that the attacker passed a letter to the adventurer before letting her go. Now, this letter's content is causing quite a commotion in the President's Office.
- **8636**: You have been asked to report directly to President Karst for further details.

## Events

### Event 65535

#### Metadata

| Field        | Value   |
|--------------|---------|
| Entrypoint   | 0x0000  |
| Data Size    | 1 bytes |
| Instructions | 1       |

```
      00 01 02 03 04 05 06 07  08 09 0A 0B 0C 0D 0E 0F
      -- -- -- -- -- -- -- --  -- -- -- -- -- -- -- --
0000: 00                                                .               
```

#### Opcodes

```
  0: 0x0000 [0x00] END_REQSTACK()
```

### Event 1000

#### Metadata

| Field        | Value     |
|--------------|-----------|
| Entrypoint   | 0x0001    |
| Data Size    | 116 bytes |
| Instructions | 26        |

```
      00 01 02 03 04 05 06 07  08 09 0A 0B 0C 0D 0E 0F
      -- -- -- -- -- -- -- --  -- -- -- -- -- -- -- --
0000:    1E F0 FF FF 7F 1D 00  80 23 24 01 80 02 80 02   ........#$.....
0010: 80 25 02 00 10 02 80 00  50 00 66 02 80 F8 FF FF  .%......P.f.....
0020: 7F F8 FF FF 7F 74 6C 6B  30 1D 03 80 23 1D 04 80  .....tlk0...#...
0030: 23 1D 05 80 23 66 02 80  F8 FF FF 7F F8 FF FF 7F  #...#f..........
0040: 74 65 6E 30 1D 06 80 23  03 01 10 02 80 01 73 00  ten0...#......s.
0050: 02 00 10 07 80 00 73 00  66 02 80 F8 FF FF 7F F8  ......s.f.......
0060: FF FF 7F 74 6C 6B 30 1D  08 80 23 03 01 10 07 80  ...tlk0...#.....
0070: 01 73 00 21 00                                    .s.!.           
```

#### Opcodes

```
  0: 0x0001 [0x1E] EventEntity looks at LocalPlayer and starts talking
  1: 0x0006 [0x1D] PRINT_EVENT_MESSAGE(message_id=6*)
    → "I am in charge of assigning missions to Bastokers who wish to serve their country. Are you one of them?"
  2: 0x0009 [0x23] WAIT_FOR_DIALOG_INTERACTION
  3: 0x000A [0x24] CREATE_DIALOG(message_id=7*, default_option=0*, option_flags=0*)
    → "Have you come to undertake a mission? [Yes, I have./No, maybe later.]"
  4: 0x0011 [0x25] WAIT_DIALOG_SELECT()
  5: 0x0012 [0x02] IF !(Work_Zone[0] == 0*) GOTO 0x0050
  6: 0x001A [0x66] LOAD_EXT_SCHEDULER_MAIN: Load scheduler "tlk0" with entities [EventEntity, EventEntity], work=0*
  7: 0x0029 [0x1D] PRINT_EVENT_MESSAGE(message_id=11*)
    → "Good. This is your first time going on a mission, is it not?"
  8: 0x002C [0x23] WAIT_FOR_DIALOG_INTERACTION
  9: 0x002D [0x1D] PRINT_EVENT_MESSAGE(message_id=12*)
    → "Your first assignment is not a difficult one. The details are as follows:"
 10: 0x0030 [0x23] WAIT_FOR_DIALOG_INTERACTION
 11: 0x0031 [0x1D] PRINT_EVENT_MESSAGE(message_id=13*)
    → "You must go to the Zeruhn Mines in the western section of the Mines District. Once there, you are to collect a report from the overseer."
 12: 0x0034 [0x23] WAIT_FOR_DIALOG_INTERACTION
 13: 0x0035 [0x66] LOAD_EXT_SCHEDULER_MAIN: Load scheduler "ten0" with entities [EventEntity, EventEntity], work=0*
 14: 0x0044 [0x1D] PRINT_EVENT_MESSAGE(message_id=14*)
    → "You can consult the "Mission" section of the main menu to review your objectives. Speed and efficiency are your priorities. Dismissed."
 15: 0x0047 [0x23] WAIT_FOR_DIALOG_INTERACTION
 16: 0x0048 [0x03] Work_Zone[1] = 0*
 17: 0x004D [0x01] GOTO 0x0073
 18: 0x0050 [0x02] IF !(Work_Zone[0] == 1*) GOTO 0x0073
 19: 0x0058 [0x66] LOAD_EXT_SCHEDULER_MAIN: Load scheduler "tlk0" with entities [EventEntity, EventEntity], work=0*
 20: 0x0067 [0x1D] PRINT_EVENT_MESSAGE(message_id=10*)
    → "Then move along."
 21: 0x006A [0x23] WAIT_FOR_DIALOG_INTERACTION
 22: 0x006B [0x03] Work_Zone[1] = 1*
 23: 0x0070 [0x01] GOTO 0x0073

SUBROUTINE_0073:
 24: 0x0073 [0x21] END_EVENT
 25: 0x0074 [0x00] END_REQSTACK()
```

### Event 1001

#### Metadata

| Field        | Value      |
|--------------|------------|
| Entrypoint   | 0x0075     |
| Data Size    | 1028 bytes |
| Instructions | 194        |

```
      00 01 02 03 04 05 06 07  08 09 0A 0B 0C 0D 0E 0F
      -- -- -- -- -- -- -- --  -- -- -- -- -- -- -- --
0070:                1E F0 FF  FF 7F 1D 09 80 23 24 0A       ........#$.
0080: 80 0B 80 02 10 25 02 00  10 07 80 00 BB 00 66 02  .....%........f.
0090: 80 F8 FF FF 7F F8 FF FF  7F 74 6C 6B 30 1D 0C 80  .........tlk0...
00A0: 23 1D 0D 80 23 66 02 80  F8 FF FF 7F F8 FF FF 7F  #...#f..........
00B0: 74 65 6E 30 1D 0E 80 23  01 52 04 02 00 10 0F 80  ten0...#.R......
00C0: 00 04 01 03 06 10 10 80  03 07 10 11 80 03 08 10  ................
00D0: 12 80 03 09 10 13 80 66  02 80 F8 FF FF 7F F8 FF  .......f........
00E0: FF 7F 74 6C 6B 30 1D 14  80 23 1D 15 80 23 66 02  ..tlk0...#...#f.
00F0: 80 F8 FF FF 7F F8 FF FF  7F 74 65 6E 30 1D 16 80  .........ten0...
0100: 23 01 52 04 02 00 10 17  80 00 41 01 66 02 80 F8  #.R.......A.f...
0110: FF FF 7F F8 FF FF 7F 74  6C 6B 30 1D 18 80 23 1D  .......tlk0...#.
0120: 19 80 23 1D 0B 80 23 1D  1A 80 23 66 02 80 F8 FF  ..#...#...#f....
0130: FF 7F F8 FF FF 7F 74 65  6E 30 1D 1B 80 23 01 52  ......ten0...#.R
0140: 04 02 00 10 09 80 00 77  01 03 09 10 1C 80 66 02  .......w......f.
0150: 80 F8 FF FF 7F F8 FF FF  7F 74 6C 6B 30 1D 1D 80  .........tlk0...
0160: 23 66 02 80 F8 FF FF 7F  F8 FF FF 7F 74 65 6E 30  #f..........ten0
0170: 1D 1E 80 23 01 52 04 02  00 10 0A 80 00 A8 01 66  ...#.R.........f
0180: 02 80 F8 FF FF 7F F8 FF  FF 7F 74 6C 6B 30 1D 1F  ..........tlk0..
0190: 80 23 66 02 80 F8 FF FF  7F F8 FF FF 7F 74 65 6E  .#f..........ten
01A0: 30 1D 20 80 23 01 52 04  02 00 10 08 80 00 E1 01  0. .#.R.........
01B0: 66 02 80 F8 FF FF 7F F8  FF FF 7F 74 6C 6B 30 1D  f..........tlk0.
01C0: 21 80 23 1D 22 80 23 1D  23 80 23 66 02 80 F8 FF  !.#.".#.#.#f....
01D0: FF 7F F8 FF FF 7F 74 65  6E 30 1D 24 80 23 01 52  ......ten0.$.#.R
01E0: 04 02 00 10 03 80 00 1F  02 03 09 10 25 80 66 02  ............%.f.
01F0: 80 F8 FF FF 7F F8 FF FF  7F 74 6C 6B 30 1D 26 80  .........tlk0.&.
0200: 23 1D 27 80 23 1D 28 80  23 66 02 80 F8 FF FF 7F  #.'.#.(.#f......
0210: F8 FF FF 7F 74 65 6E 30  1D 29 80 23 01 52 04 02  ....ten0.).#.R..
0220: 00 10 04 80 00 54 02 66  02 80 F8 FF FF 7F F8 FF  .....T.f........
0230: FF 7F 74 6C 6B 30 1D 2A  80 23 1D 2B 80 23 66 02  ..tlk0.*.#.+.#f.
0240: 80 F8 FF FF 7F F8 FF FF  7F 74 65 6E 30 1D 2C 80  .........ten0.,.
0250: 23 01 52 04 02 00 10 06  80 00 85 02 66 02 80 F8  #.R.........f...
0260: FF FF 7F F8 FF FF 7F 74  6C 6B 30 1D 2D 80 23 66  .......tlk0.-.#f
0270: 02 80 F8 FF FF 7F F8 FF  FF 7F 74 65 6E 30 1D 2E  ..........ten0..
0280: 80 23 01 52 04 02 00 10  0C 80 00 B6 02 66 02 80  .#.R.........f..
0290: F8 FF FF 7F F8 FF FF 7F  74 6C 6B 30 1D 2F 80 23  ........tlk0./.#
02A0: 66 02 80 F8 FF FF 7F F8  FF FF 7F 74 65 6E 30 1D  f..........ten0.
02B0: 30 80 23 01 52 04 02 00  10 0D 80 00 EB 02 66 02  0.#.R.........f.
02C0: 80 F8 FF FF 7F F8 FF FF  7F 74 6C 6B 30 1D 31 80  .........tlk0.1.
02D0: 23 1D 32 80 23 66 02 80  F8 FF FF 7F F8 FF FF 7F  #.2.#f..........
02E0: 74 65 6E 30 1D 33 80 23  01 52 04 02 00 10 0E 80  ten0.3.#.R......
02F0: 00 20 03 66 02 80 F8 FF  FF 7F F8 FF FF 7F 74 6C  . .f..........tl
0300: 6B 30 1D 34 80 23 1D 35  80 23 66 02 80 F8 FF FF  k0.4.#.5.#f.....
0310: 7F F8 FF FF 7F 74 65 6E  30 1D 36 80 23 01 52 04  .....ten0.6.#.R.
0320: 02 00 10 14 80 00 51 03  66 02 80 F8 FF FF 7F F8  ......Q.f.......
0330: FF FF 7F 74 6C 6B 30 1D  37 80 23 66 02 80 F8 FF  ...tlk0.7.#f....
0340: FF 7F F8 FF FF 7F 74 65  6E 30 1D 38 80 23 01 52  ......ten0.8.#.R
0350: 04 02 00 10 15 80 00 82  03 66 02 80 F8 FF FF 7F  .........f......
0360: F8 FF FF 7F 74 6C 6B 30  1D 39 80 23 66 02 80 F8  ....tlk0.9.#f...
0370: FF FF 7F F8 FF FF 7F 74  65 6E 30 1D 3A 80 23 01  .......ten0.:.#.
0380: 52 04 02 00 10 16 80 00  B3 03 66 02 80 F8 FF FF  R.........f.....
0390: 7F F8 FF FF 7F 74 6C 6B  30 1D 3B 80 23 66 02 80  .....tlk0.;.#f..
03A0: F8 FF FF 7F F8 FF FF 7F  74 65 6E 30 1D 3C 80 23  ........ten0.<.#
03B0: 01 52 04 02 00 10 3D 80  00 E4 03 66 02 80 F8 FF  .R....=....f....
03C0: FF 7F F8 FF FF 7F 74 6C  6B 30 1D 3E 80 23 66 02  ......tlk0.>.#f.
03D0: 80 F8 FF FF 7F F8 FF FF  7F 74 65 6E 30 1D 3F 80  .........ten0.?.
03E0: 23 01 52 04 02 00 10 40  80 00 19 04 66 02 80 F8  #.R....@....f...
03F0: FF FF 7F F8 FF FF 7F 74  6C 6B 30 1D 41 80 23 1D  .......tlk0.A.#.
0400: 42 80 23 66 02 80 F8 FF  FF 7F F8 FF FF 7F 74 65  B.#f..........te
0410: 6E 30 1D 43 80 23 01 52  04 02 00 10 44 80 00 52  n0.C.#.R....D..R
0420: 04 66 02 80 F8 FF FF 7F  F8 FF FF 7F 74 6C 6B 30  .f..........tlk0
0430: 1D 45 80 23 1D 46 80 23  1D 47 80 23 66 02 80 F8  .E.#.F.#.G.#f...
0440: FF FF 7F F8 FF FF 7F 74  65 6E 30 1D 48 80 23 01  .......ten0.H.#.
0450: 52 04 03 01 10 00 10 02  01 10 0B 80 01 77 04 24  R............w.$
0460: 49 80 02 80 02 80 25 02  00 10 07 80 00 77 04 03  I.....%......w..
0470: 01 10 0B 80 01 77 04 21  00                       .....w.!.       
```

#### Opcodes

```
  0: 0x0075 [0x1E] EventEntity looks at LocalPlayer and starts talking
  1: 0x007A [0x1D] PRINT_EVENT_MESSAGE(message_id=4*)
    → "Missions currently available are as follows:"
  2: 0x007D [0x23] WAIT_FOR_DIALOG_INTERACTION
  3: 0x007E [0x24] CREATE_DIALOG(message_id=5*, default_option=31*, option_flags=Work_Zone[2])
    → "Which mission will you undertake? [The Zeruhn Report./A Geological Survey./Fetichism./The Crystal Line./Wading Beasts./The Emissary."-3-1A."-3-1B."-3-2A."-3-2B./The Four Musketeers./To the Forsaken Mines./Jeuno./$3_$3~[./Darkness Rising./Xarcabard, Land of Truths./Return of the Talekeeper./The Pirates' Cove./The Final Image./On My Way./The Chains That Bind Us./Enter the Talekeeper./The Salt of the Earth./Where Two Paths Converge./$3_$3~$470607$3_$3~$470608$3_$3~$470609$3_$3~$470610$3_$3~$470611$3_$3~$470612$3_$3~$470613None.]"
  4: 0x0085 [0x25] WAIT_DIALOG_SELECT()
  5: 0x0086 [0x02] IF !(Work_Zone[0] == 1*) GOTO 0x00BB
  6: 0x008E [0x66] LOAD_EXT_SCHEDULER_MAIN: Load scheduler "tlk0" with entities [EventEntity, EventEntity], work=0*
  7: 0x009D [0x1D] PRINT_EVENT_MESSAGE(message_id=15*)
    → "The Chief Engineer is conducting new research, and has asked for someone to assist him. He can be found in the Metalworks, to the east of the administrative section."
  8: 0x00A0 [0x23] WAIT_FOR_DIALOG_INTERACTION
  9: 0x00A1 [0x1D] PRINT_EVENT_MESSAGE(message_id=16*)
    → "The Chief Engineer's laboratory is on the second floor of the Metalworks. You don't know his name!? And you call yourself a Bastoker!"
 10: 0x00A4 [0x23] WAIT_FOR_DIALOG_INTERACTION
 11: 0x00A5 [0x66] LOAD_EXT_SCHEDULER_MAIN: Load scheduler "ten0" with entities [EventEntity, EventEntity], work=0*
 12: 0x00B4 [0x1D] PRINT_EVENT_MESSAGE(message_id=17*)
    → "The Chief Engineer's name is Cid. Any Bastoker would know that! Now go and see him. He will give you the details of your mission."
 13: 0x00B7 [0x23] WAIT_FOR_DIALOG_INTERACTION
 14: 0x00B8 [0x01] GOTO 0x0452
 15: 0x00BB [0x02] IF !(Work_Zone[0] == 2*) GOTO 0x0104
 16: 0x00C3 [0x03] Work_Zone[6] = 606*
 17: 0x00C8 [0x03] Work_Zone[7] = 607*
 18: 0x00CD [0x03] Work_Zone[8] = 608*
 19: 0x00D2 [0x03] Work_Zone[9] = 609*
 20: 0x00D7 [0x66] LOAD_EXT_SCHEDULER_MAIN: Load scheduler "tlk0" with entities [EventEntity, EventEntity], work=0*
 21: 0x00E6 [0x1D] PRINT_EVENT_MESSAGE(message_id=18*)
    → "The Palborough Mines, once our main source of mythril, have been under beastman control for some time."
 22: 0x00E9 [0x23] WAIT_FOR_DIALOG_INTERACTION
 23: 0x00EA [0x1D] PRINT_EVENT_MESSAGE(message_id=19*)
    → "We want you to hunt these beastmen, the Quadav, and bring back $4, $5, $6, and $7 as proof of your accomplishments."
 24: 0x00ED [0x23] WAIT_FOR_DIALOG_INTERACTION
 25: 0x00EE [0x66] LOAD_EXT_SCHEDULER_MAIN: Load scheduler "ten0" with entities [EventEntity, EventEntity], work=0*
 26: 0x00FD [0x1D] PRINT_EVENT_MESSAGE(message_id=20*)
    → "You must present all four items to me or one of my colleagues in order to complete this mission."
 27: 0x0100 [0x23] WAIT_FOR_DIALOG_INTERACTION
 28: 0x0101 [0x01] GOTO 0x0452
 29: 0x0104 [0x02] IF !(Work_Zone[0] == 3*) GOTO 0x0141
 30: 0x010C [0x66] LOAD_EXT_SCHEDULER_MAIN: Load scheduler "tlk0" with entities [EventEntity, EventEntity], work=0*
 31: 0x011B [0x1D] PRINT_EVENT_MESSAGE(message_id=29*)
    → "Have you heard of a strange structure called the Crag of Dem? It is on the Konschtat Highlands, north of the Gustaberg Mountains."
 32: 0x011E [0x23] WAIT_FOR_DIALOG_INTERACTION
 33: 0x011F [0x1D] PRINT_EVENT_MESSAGE(message_id=30*)
    → "They say that crystals are drained of their power if you take them to a certain section of that structure."
 34: 0x0122 [0x23] WAIT_FOR_DIALOG_INTERACTION
 35: 0x0123 [0x1D] PRINT_EVENT_MESSAGE(message_id=31*)
    → "Chief Cid is currently investigating this strange phenomenon, and is asking for someone to bring back a faded crystal."
 36: 0x0126 [0x23] WAIT_FOR_DIALOG_INTERACTION
 37: 0x0127 [0x1D] PRINT_EVENT_MESSAGE(message_id=32*)
    → "Go see him for a more detailed explanation of your objectives."
 38: 0x012A [0x23] WAIT_FOR_DIALOG_INTERACTION
 39: 0x012B [0x66] LOAD_EXT_SCHEDULER_MAIN: Load scheduler "ten0" with entities [EventEntity, EventEntity], work=0*
 40: 0x013A [0x1D] PRINT_EVENT_MESSAGE(message_id=33*)
    → "You want a crystal to use for this experiment? Are you not an adventurer? It should be easy for you to procure one."
 41: 0x013D [0x23] WAIT_FOR_DIALOG_INTERACTION
 42: 0x013E [0x01] GOTO 0x0452
 43: 0x0141 [0x02] IF !(Work_Zone[0] == 4*) GOTO 0x0177
 44: 0x0149 [0x03] Work_Zone[9] = 4362*
 45: 0x014E [0x66] LOAD_EXT_SCHEDULER_MAIN: Load scheduler "tlk0" with entities [EventEntity, EventEntity], work=0*
 46: 0x015D [0x1D] PRINT_EVENT_MESSAGE(message_id=34*)
    → "You are to collect $7 from beasts in the Dangruf Wadi."
 47: 0x0160 [0x23] WAIT_FOR_DIALOG_INTERACTION
 48: 0x0161 [0x66] LOAD_EXT_SCHEDULER_MAIN: Load scheduler "ten0" with entities [EventEntity, EventEntity], work=0*
 49: 0x0170 [0x1D] PRINT_EVENT_MESSAGE(message_id=35*)
    → "Senator Alois is in need of some. Do not ask me why. He can be found in the President's Office."
 50: 0x0173 [0x23] WAIT_FOR_DIALOG_INTERACTION
 51: 0x0174 [0x01] GOTO 0x0452
 52: 0x0177 [0x02] IF !(Work_Zone[0] == 5*) GOTO 0x01A8
 53: 0x017F [0x66] LOAD_EXT_SCHEDULER_MAIN: Load scheduler "tlk0" with entities [EventEntity, EventEntity], work=0*
 54: 0x018E [0x1D] PRINT_EVENT_MESSAGE(message_id=36*)
    → "You've acquired quite a reputation. There is a new mission for you to tackle."
 55: 0x0191 [0x23] WAIT_FOR_DIALOG_INTERACTION
 56: 0x0192 [0x66] LOAD_EXT_SCHEDULER_MAIN: Load scheduler "ten0" with entities [EventEntity, EventEntity], work=0*
 57: 0x01A1 [0x1D] PRINT_EVENT_MESSAGE(message_id=37*)
    → "First, speak to Sir Naji of the Mythril Musketeers at the President's Office. This mission is of great import to the welfare of our nation."
 58: 0x01A4 [0x23] WAIT_FOR_DIALOG_INTERACTION
 59: 0x01A5 [0x01] GOTO 0x0452
 60: 0x01A8 [0x02] IF !(Work_Zone[0] == 10*) GOTO 0x01E1
 61: 0x01B0 [0x66] LOAD_EXT_SCHEDULER_MAIN: Load scheduler "tlk0" with entities [EventEntity, EventEntity], work=0*
 62: 0x01BF [0x1D] PRINT_EVENT_MESSAGE(message_id=38*)
    → "I see you've made it back safely from your journey to Windurst and San d'Oria. This new mission should not be hard for an experienced adventurer like you."
 63: 0x01C2 [0x23] WAIT_FOR_DIALOG_INTERACTION
 64: 0x01C3 [0x1D] PRINT_EVENT_MESSAGE(message_id=39*)
    → "The Mythril Musketeers are planning an offensive on the Quadav stronghold."
 65: 0x01C6 [0x23] WAIT_FOR_DIALOG_INTERACTION
 66: 0x01C7 [0x1D] PRINT_EVENT_MESSAGE(message_id=40*)
    → "Adventurers, including yourself, have been asked to join them on this operation."
 67: 0x01CA [0x23] WAIT_FOR_DIALOG_INTERACTION
 68: 0x01CB [0x66] LOAD_EXT_SCHEDULER_MAIN: Load scheduler "ten0" with entities [EventEntity, EventEntity], work=0*
 69: 0x01DA [0x1D] PRINT_EVENT_MESSAGE(message_id=41*)
    → "You are to go meet Iron Eater, one of the Mythril Musketeers, to receive a full briefing."
 70: 0x01DD [0x23] WAIT_FOR_DIALOG_INTERACTION
 71: 0x01DE [0x01] GOTO 0x0452
 72: 0x01E1 [0x02] IF !(Work_Zone[0] == 11*) GOTO 0x021F
 73: 0x01E9 [0x03] Work_Zone[9] = 563*
 74: 0x01EE [0x66] LOAD_EXT_SCHEDULER_MAIN: Load scheduler "tlk0" with entities [EventEntity, EventEntity], work=0*
 75: 0x01FD [0x1D] PRINT_EVENT_MESSAGE(message_id=42*)
    → "The Gusgen Mines in the Konschtat Highlands have been dug to the bare rock and abandoned for some time..."
 76: 0x0200 [0x23] WAIT_FOR_DIALOG_INTERACTION
 77: 0x0201 [0x1D] PRINT_EVENT_MESSAGE(message_id=43*)
    → "But lately, there have been reports that a rare ore can be found in them. No one has claimed this new vein yet."
 78: 0x0204 [0x23] WAIT_FOR_DIALOG_INTERACTION
 79: 0x0205 [0x1D] PRINT_EVENT_MESSAGE(message_id=44*)
    → "You are to bring back a sample of the ore to confirm these reports. A Galka adventurer named Davyad should be able to help you. He is said to have acquired a chunk of the ore when he was there last."
 80: 0x0208 [0x23] WAIT_FOR_DIALOG_INTERACTION
 81: 0x0209 [0x66] LOAD_EXT_SCHEDULER_MAIN: Load scheduler "ten0" with entities [EventEntity, EventEntity], work=0*
 82: 0x0218 [0x1D] PRINT_EVENT_MESSAGE(message_id=45*)
    → "The item that Davyad brought back was $7. That is what you should seek as well. Once you have the ore, hand them over to me or one of my colleagues."
 83: 0x021B [0x23] WAIT_FOR_DIALOG_INTERACTION
 84: 0x021C [0x01] GOTO 0x0452
 85: 0x021F [0x02] IF !(Work_Zone[0] == 12*) GOTO 0x0254
 86: 0x0227 [0x66] LOAD_EXT_SCHEDULER_MAIN: Load scheduler "tlk0" with entities [EventEntity, EventEntity], work=0*
 87: 0x0236 [0x1D] PRINT_EVENT_MESSAGE(message_id=47*)
    → "You have heard of Jeuno, have you not? The Bastokan government is currently looking for someone to send there, and your name is on the list of candidates."
 88: 0x0239 [0x23] WAIT_FOR_DIALOG_INTERACTION
 89: 0x023A [0x1D] PRINT_EVENT_MESSAGE(message_id=48*)
    → "The presidential aide, Sir Lucius himself, recommended you. It is a great honor--you should be proud!"
 90: 0x023D [0x23] WAIT_FOR_DIALOG_INTERACTION
 91: 0x023E [0x66] LOAD_EXT_SCHEDULER_MAIN: Load scheduler "ten0" with entities [EventEntity, EventEntity], work=0*
 92: 0x024D [0x1D] PRINT_EVENT_MESSAGE(message_id=49*)
    → "Sir Lucius wishes to see you as soon as possible. Go meet him in his office in the administrative section at the top of the Metalworks."
 93: 0x0250 [0x23] WAIT_FOR_DIALOG_INTERACTION
 94: 0x0251 [0x01] GOTO 0x0452
 95: 0x0254 [0x02] IF !(Work_Zone[0] == 14*) GOTO 0x0285
 96: 0x025C [0x66] LOAD_EXT_SCHEDULER_MAIN: Load scheduler "tlk0" with entities [EventEntity, EventEntity], work=0*
 97: 0x026B [0x1D] PRINT_EVENT_MESSAGE(message_id=50*)
    → "I have orders for you from the president himself. You must have heard already, but he wants you to go to Fei'Yin."
 98: 0x026E [0x23] WAIT_FOR_DIALOG_INTERACTION
 99: 0x026F [0x66] LOAD_EXT_SCHEDULER_MAIN: Load scheduler "ten0" with entities [EventEntity, EventEntity], work=0*
100: 0x027E [0x1D] PRINT_EVENT_MESSAGE(message_id=51*)
    → "Go speak to Sir Naji at the President's Office. He will show you in."
101: 0x0281 [0x23] WAIT_FOR_DIALOG_INTERACTION
102: 0x0282 [0x01] GOTO 0x0452
103: 0x0285 [0x02] IF !(Work_Zone[0] == 15*) GOTO 0x02B6
104: 0x028D [0x66] LOAD_EXT_SCHEDULER_MAIN: Load scheduler "tlk0" with entities [EventEntity, EventEntity], work=0*
105: 0x029C [0x1D] PRINT_EVENT_MESSAGE(message_id=52*)
    → "So, it has finally come to this... You are to infiltrate the Kindred's main stronghold of Zvahl."
106: 0x029F [0x23] WAIT_FOR_DIALOG_INTERACTION
107: 0x02A0 [0x66] LOAD_EXT_SCHEDULER_MAIN: Load scheduler "ten0" with entities [EventEntity, EventEntity], work=0*
108: 0x02AF [0x1D] PRINT_EVENT_MESSAGE(message_id=53*)
    → "The president will brief you himself in his office. Good luck, adventurer!"
109: 0x02B2 [0x23] WAIT_FOR_DIALOG_INTERACTION
110: 0x02B3 [0x01] GOTO 0x0452
111: 0x02B6 [0x02] IF !(Work_Zone[0] == 16*) GOTO 0x02EB
112: 0x02BE [0x66] LOAD_EXT_SCHEDULER_MAIN: Load scheduler "tlk0" with entities [EventEntity, EventEntity], work=0*
113: 0x02CD [0x1D] PRINT_EVENT_MESSAGE(message_id=8615*)
    → "There has been some commotion in the Mines District near Ore Street. People are saying that a new Talekeeper has appeared."
114: 0x02D0 [0x23] WAIT_FOR_DIALOG_INTERACTION
115: 0x02D1 [0x1D] PRINT_EVENT_MESSAGE(message_id=8616*)
    → "It sounds fishy to me, but with the disappearance of their elder, Werei, anything could be possible. And the last thing we want is an uprising by the Galka."
116: 0x02D4 [0x23] WAIT_FOR_DIALOG_INTERACTION
117: 0x02D5 [0x66] LOAD_EXT_SCHEDULER_MAIN: Load scheduler "ten0" with entities [EventEntity, EventEntity], work=0*
118: 0x02E4 [0x1D] PRINT_EVENT_MESSAGE(message_id=8617*)
    → "Go to Ore Street and talk to Medicine Eagle. He says he was there when the commotion started."
119: 0x02E7 [0x23] WAIT_FOR_DIALOG_INTERACTION
120: 0x02E8 [0x01] GOTO 0x0452
121: 0x02EB [0x02] IF !(Work_Zone[0] == 17*) GOTO 0x0320
122: 0x02F3 [0x66] LOAD_EXT_SCHEDULER_MAIN: Load scheduler "tlk0" with entities [EventEntity, EventEntity], work=0*
123: 0x0302 [0x1D] PRINT_EVENT_MESSAGE(message_id=8618*)
    → "I assume an adventurer of your caliber has heard of Norg."
124: 0x0305 [0x23] WAIT_FOR_DIALOG_INTERACTION
125: 0x0306 [0x1D] PRINT_EVENT_MESSAGE(message_id=8619*)
    → "Well, the place is a haven for pirates. They even have ties with the Tenshodo. In any case, it's an area that cannot be looked upon lightly."
126: 0x0309 [0x23] WAIT_FOR_DIALOG_INTERACTION
127: 0x030A [0x66] LOAD_EXT_SCHEDULER_MAIN: Load scheduler "ten0" with entities [EventEntity, EventEntity], work=0*
128: 0x0319 [0x1D] PRINT_EVENT_MESSAGE(message_id=8620*)
    → "That is why we want you to travel there as an emissary. Report to Sir Naji in the President's Office for details."
129: 0x031C [0x23] WAIT_FOR_DIALOG_INTERACTION
130: 0x031D [0x01] GOTO 0x0452
131: 0x0320 [0x02] IF !(Work_Zone[0] == 18*) GOTO 0x0351
132: 0x0328 [0x66] LOAD_EXT_SCHEDULER_MAIN: Load scheduler "tlk0" with entities [EventEntity, EventEntity], work=0*
133: 0x0337 [0x1D] PRINT_EVENT_MESSAGE(message_id=8621*)
    → "Currently, Chief Engineer Cid is conducting research on the architecture in Ro'Maeve near the Sanctuary of Zi'Tah. Your next mission is to travel there and assist him."
134: 0x033A [0x23] WAIT_FOR_DIALOG_INTERACTION
135: 0x033B [0x66] LOAD_EXT_SCHEDULER_MAIN: Load scheduler "ten0" with entities [EventEntity, EventEntity], work=0*
136: 0x034A [0x1D] PRINT_EVENT_MESSAGE(message_id=8622*)
    → "Report to the Chief Engineer in the Metalworks for further details."
137: 0x034D [0x23] WAIT_FOR_DIALOG_INTERACTION
138: 0x034E [0x01] GOTO 0x0452
139: 0x0351 [0x02] IF !(Work_Zone[0] == 19*) GOTO 0x0382
140: 0x0359 [0x66] LOAD_EXT_SCHEDULER_MAIN: Load scheduler "tlk0" with entities [EventEntity, EventEntity], work=0*
141: 0x0368 [0x1D] PRINT_EVENT_MESSAGE(message_id=8623*)
    → "We are searching for an adventurer holding vital information dealing with a certain national investigation."
142: 0x036B [0x23] WAIT_FOR_DIALOG_INTERACTION
143: 0x036C [0x66] LOAD_EXT_SCHEDULER_MAIN: Load scheduler "ten0" with entities [EventEntity, EventEntity], work=0*
144: 0x037B [0x1D] PRINT_EVENT_MESSAGE(message_id=8624*)
    → "The president himself has expressed great interest in this case. Proceed to the President's Office for the details of this mission."
145: 0x037E [0x23] WAIT_FOR_DIALOG_INTERACTION
146: 0x037F [0x01] GOTO 0x0452
147: 0x0382 [0x02] IF !(Work_Zone[0] == 20*) GOTO 0x03B3
148: 0x038A [0x66] LOAD_EXT_SCHEDULER_MAIN: Load scheduler "tlk0" with entities [EventEntity, EventEntity], work=0*
149: 0x0399 [0x1D] PRINT_EVENT_MESSAGE(message_id=8626*)
    → "It looks like Bastok is really going to begin an investigation of the Galka homeland of Altepa."
150: 0x039C [0x23] WAIT_FOR_DIALOG_INTERACTION
151: 0x039D [0x66] LOAD_EXT_SCHEDULER_MAIN: Load scheduler "ten0" with entities [EventEntity, EventEntity], work=0*
152: 0x03AC [0x1D] PRINT_EVENT_MESSAGE(message_id=8627*)
    → "Your role in this investigation will have you traveling to the Quicksand Caves. Get the details of this mission from Iron Eater in the President's Office."
153: 0x03AF [0x23] WAIT_FOR_DIALOG_INTERACTION
154: 0x03B0 [0x01] GOTO 0x0452
155: 0x03B3 [0x02] IF !(Work_Zone[0] == 21*) GOTO 0x03E4
156: 0x03BB [0x66] LOAD_EXT_SCHEDULER_MAIN: Load scheduler "tlk0" with entities [EventEntity, EventEntity], work=0*
157: 0x03CA [0x1D] PRINT_EVENT_MESSAGE(message_id=8628*)
    → "As a continuation of Bastok's investigation of Altepa, this time you will be traveling to Zepwell Island."
158: 0x03CD [0x23] WAIT_FOR_DIALOG_INTERACTION
159: 0x03CE [0x66] LOAD_EXT_SCHEDULER_MAIN: Load scheduler "ten0" with entities [EventEntity, EventEntity], work=0*
160: 0x03DD [0x1D] PRINT_EVENT_MESSAGE(message_id=8629*)
    → "You will be carrying out your part of the investigation in the Kuftal Tunnel, which connects Cape Teriggan to Zepwell Island. Report to Drake Fang in the Zeruhn Mines for details."
161: 0x03E0 [0x23] WAIT_FOR_DIALOG_INTERACTION
162: 0x03E1 [0x01] GOTO 0x0452
163: 0x03E4 [0x02] IF !(Work_Zone[0] == 22*) GOTO 0x0419
164: 0x03EC [0x66] LOAD_EXT_SCHEDULER_MAIN: Load scheduler "tlk0" with entities [EventEntity, EventEntity], work=0*
165: 0x03FB [0x1D] PRINT_EVENT_MESSAGE(message_id=8630*)
    → "Senator Alois has asked for your assistance."
166: 0x03FE [0x23] WAIT_FOR_DIALOG_INTERACTION
167: 0x03FF [0x1D] PRINT_EVENT_MESSAGE(message_id=8631*)
    → "It is something about an expedition to Vollbow..."
168: 0x0402 [0x23] WAIT_FOR_DIALOG_INTERACTION
169: 0x0403 [0x66] LOAD_EXT_SCHEDULER_MAIN: Load scheduler "ten0" with entities [EventEntity, EventEntity], work=0*
170: 0x0412 [0x1D] PRINT_EVENT_MESSAGE(message_id=8632*)
    → "I just hope he's not asking you to go get lizard eggs again... Wait, you didn't hear me say that."
171: 0x0415 [0x23] WAIT_FOR_DIALOG_INTERACTION
172: 0x0416 [0x01] GOTO 0x0452
173: 0x0419 [0x02] IF !(Work_Zone[0] == 23*) GOTO 0x0452
174: 0x0421 [0x66] LOAD_EXT_SCHEDULER_MAIN: Load scheduler "tlk0" with entities [EventEntity, EventEntity], work=0*
175: 0x0430 [0x1D] PRINT_EVENT_MESSAGE(message_id=8633*)
    → "Recently, an adventurer who was sent to investigate the Northlands has been attacked."
176: 0x0433 [0x23] WAIT_FOR_DIALOG_INTERACTION
177: 0x0434 [0x1D] PRINT_EVENT_MESSAGE(message_id=8634*)
    → "According to her report, the attacker resembled the dark knight Zeid."
178: 0x0437 [0x23] WAIT_FOR_DIALOG_INTERACTION
179: 0x0438 [0x1D] PRINT_EVENT_MESSAGE(message_id=8635*)
    → "The strange thing is that the attacker passed a letter to the adventurer before letting her go. Now, this letter's content is causing quite a commotion in the President's Office."
180: 0x043B [0x23] WAIT_FOR_DIALOG_INTERACTION
181: 0x043C [0x66] LOAD_EXT_SCHEDULER_MAIN: Load scheduler "ten0" with entities [EventEntity, EventEntity], work=0*
182: 0x044B [0x1D] PRINT_EVENT_MESSAGE(message_id=8636*)
    → "You have been asked to report directly to President Karst for further details."
183: 0x044E [0x23] WAIT_FOR_DIALOG_INTERACTION
184: 0x044F [0x01] GOTO 0x0452

SUBROUTINE_0452:
185: 0x0452 [0x03] Work_Zone[1] = Work_Zone[0]
186: 0x0457 [0x02] IF !(Work_Zone[1] == 31*) GOTO 0x0477
187: 0x045F [0x24] CREATE_DIALOG(message_id=8*, default_option=0*, option_flags=0*)
    → "Will you accept this mission? [Yes./No.]"
188: 0x0466 [0x25] WAIT_DIALOG_SELECT()
189: 0x0467 [0x02] IF !(Work_Zone[0] == 1*) GOTO 0x0477
190: 0x046F [0x03] Work_Zone[1] = 31*
191: 0x0474 [0x01] GOTO 0x0477

SUBROUTINE_0477:
192: 0x0477 [0x21] END_EVENT
193: 0x0478 [0x00] END_REQSTACK()
```

### Event 1002

#### Metadata

| Field        | Value    |
|--------------|----------|
| Entrypoint   | 0x0479   |
| Data Size    | 11 bytes |
| Instructions | 5        |

```
      00 01 02 03 04 05 06 07  08 09 0A 0B 0C 0D 0E 0F
      -- -- -- -- -- -- -- --  -- -- -- -- -- -- -- --
0470:                             1E F0 FF FF 7F 1D 17           .......
0480: 80 23 21 00                                       .#!.            
```

#### Opcodes

```
  0: 0x0479 [0x1E] EventEntity looks at LocalPlayer and starts talking
  1: 0x047E [0x1D] PRINT_EVENT_MESSAGE(message_id=3*)
    → "You cannot undertake two missions at the same time. Finish the one you are on now before asking for a new one."
  2: 0x0481 [0x23] WAIT_FOR_DIALOG_INTERACTION
  3: 0x0482 [0x21] END_EVENT
  4: 0x0483 [0x00] END_REQSTACK()
```

### Event 1003

#### Metadata

| Field        | Value    |
|--------------|----------|
| Entrypoint   | 0x0484   |
| Data Size    | 11 bytes |
| Instructions | 5        |

```
      00 01 02 03 04 05 06 07  08 09 0A 0B 0C 0D 0E 0F
      -- -- -- -- -- -- -- --  -- -- -- -- -- -- -- --
0480:             1E F0 FF FF  7F 1D 0F 80 23 21 00         ........#!. 
```

#### Opcodes

```
  0: 0x0484 [0x1E] EventEntity looks at LocalPlayer and starts talking
  1: 0x0489 [0x1D] PRINT_EVENT_MESSAGE(message_id=2*)
    → "I am in charge of assigning missions, but I am only allowed to do so to those whose allegiance is to Bastok."
  2: 0x048C [0x23] WAIT_FOR_DIALOG_INTERACTION
  3: 0x048D [0x21] END_EVENT
  4: 0x048E [0x00] END_REQSTACK()
```

### Event 1004

#### Metadata

| Field        | Value     |
|--------------|-----------|
| Entrypoint   | 0x048F    |
| Data Size    | 122 bytes |
| Instructions | 27        |

```
      00 01 02 03 04 05 06 07  08 09 0A 0B 0C 0D 0E 0F
      -- -- -- -- -- -- -- --  -- -- -- -- -- -- -- --
0480:                                               42                 B
0490: 20 01 1E F0 FF FF 7F 1D  3D 80 23 66 02 80 F8 FF   .......=.#f....
04A0: FF 7F F8 FF FF 7F 74 6C  6B 30 1D 40 80 23 1D 44  ......tlk0.@.#.D
04B0: 80 23 66 02 80 F8 FF FF  7F F8 FF FF 7F 74 65 6E  .#f..........ten
04C0: 30 1D 4A 80 23 66 02 80  F8 FF FF 7F F8 FF FF 7F  0.J.#f..........
04D0: 74 6C 6B 31 1D 4B 80 23  1D 4C 80 23 1D 4D 80 23  tlk1.K.#.L.#.M.#
04E0: 66 02 80 F8 FF FF 7F F8  FF FF 7F 74 65 6E 31 1D  f..........ten1.
04F0: 4E 80 23 7D 0F 80 45 4F  80 F0 FF FF 7F F0 FF FF  N.#}..EO........
0500: 7F 71 73 74 63 02 80 21  00                       .qstc..!.       
```

#### Opcodes

```
  0: 0x048F [0x42] SET_CLI_EVENT_CANCEL_DATA()
  1: 0x0490 [0x20] SET_CLI_EVENT_UC_FLAG: Lock player control
  2: 0x0492 [0x1E] EventEntity looks at LocalPlayer and starts talking
  3: 0x0497 [0x1D] PRINT_EVENT_MESSAGE(message_id=21*)
    → "Good, you've brought all four parts of the doll."
  4: 0x049A [0x23] WAIT_FOR_DIALOG_INTERACTION
  5: 0x049B [0x66] LOAD_EXT_SCHEDULER_MAIN: Load scheduler "tlk0" with entities [EventEntity, EventEntity], work=0*
  6: 0x04AA [0x1D] PRINT_EVENT_MESSAGE(message_id=22*)
    → "I am raising your rank to 2 for completing this mission. Congratulations."
  7: 0x04AD [0x23] WAIT_FOR_DIALOG_INTERACTION
  8: 0x04AE [0x1D] PRINT_EVENT_MESSAGE(message_id=23*)
    → "If you've been to the Palborough Mines, you must know now the serious nature of the threat these beastmen pose to our civilization."
  9: 0x04B1 [0x23] WAIT_FOR_DIALOG_INTERACTION
 10: 0x04B2 [0x66] LOAD_EXT_SCHEDULER_MAIN: Load scheduler "ten0" with entities [EventEntity, EventEntity], work=0*
 11: 0x04C1 [0x1D] PRINT_EVENT_MESSAGE(message_id=24*)
    → "As a Bastoker, you are expected to take on more missions and go on conquests to preserve Bastok's brilliant future!"
 12: 0x04C4 [0x23] WAIT_FOR_DIALOG_INTERACTION
 13: 0x04C5 [0x66] LOAD_EXT_SCHEDULER_MAIN: Load scheduler "tlk1" with entities [EventEntity, EventEntity], work=0*
 14: 0x04D4 [0x1D] PRINT_EVENT_MESSAGE(message_id=25*)
    → "But I cannot give you a new mission at this time."
 15: 0x04D7 [0x23] WAIT_FOR_DIALOG_INTERACTION
 16: 0x04D8 [0x1D] PRINT_EVENT_MESSAGE(message_id=26*)
    → "You need to collect rank points before taking on new missions."
 17: 0x04DB [0x23] WAIT_FOR_DIALOG_INTERACTION
 18: 0x04DC [0x1D] PRINT_EVENT_MESSAGE(message_id=27*)
    → "You can receive rank points by participating in conquests and donating the crystals you acquire to guards, or by undertaking missions you've previously completed."
 19: 0x04DF [0x23] WAIT_FOR_DIALOG_INTERACTION
 20: 0x04E0 [0x66] LOAD_EXT_SCHEDULER_MAIN: Load scheduler "ten1" with entities [EventEntity, EventEntity], work=0*
 21: 0x04EF [0x1D] PRINT_EVENT_MESSAGE(message_id=28*)
    → "Ask the High Guard near the gatehouse if you wish to hear more about conquests."
 22: 0x04F2 [0x23] WAIT_FOR_DIALOG_INTERACTION
 23: 0x04F3 [0x7D] LOAD_START_SCHEDULER_PLAYER: Load scheduler with animation_id 32783
 24: 0x04F6 [0x45] LOAD_SCHEDULED_TASK: Load scheduler "qstc" with entities [LocalPlayer, LocalPlayer], work=[201*, 0*]
 25: 0x0507 [0x21] END_EVENT
 26: 0x0508 [0x00] END_REQSTACK()
```

### Event 1005

#### Metadata

| Field        | Value    |
|--------------|----------|
| Entrypoint   | 0x0509   |
| Data Size    | 31 bytes |
| Instructions | 8        |

```
      00 01 02 03 04 05 06 07  08 09 0A 0B 0C 0D 0E 0F
      -- -- -- -- -- -- -- --  -- -- -- -- -- -- -- --
0500:                             42 20 01 1E F0 FF FF           B .....
0510: 7F 1D 3D 80 23 45 4F 80  F0 FF FF 7F F0 FF FF 7F  ..=.#EO.........
0520: 71 73 74 63 02 80 21 00                           qstc..!.        
```

#### Opcodes

```
  0: 0x0509 [0x42] SET_CLI_EVENT_CANCEL_DATA()
  1: 0x050A [0x20] SET_CLI_EVENT_UC_FLAG: Lock player control
  2: 0x050C [0x1E] EventEntity looks at LocalPlayer and starts talking
  3: 0x0511 [0x1D] PRINT_EVENT_MESSAGE(message_id=21*)
    → "Good, you've brought all four parts of the doll."
  4: 0x0514 [0x23] WAIT_FOR_DIALOG_INTERACTION
  5: 0x0515 [0x45] LOAD_SCHEDULED_TASK: Load scheduler "qstc" with entities [LocalPlayer, LocalPlayer], work=[201*, 0*]
  6: 0x0526 [0x21] END_EVENT
  7: 0x0527 [0x00] END_REQSTACK()
```

### Event 1006

#### Metadata

| Field        | Value    |
|--------------|----------|
| Entrypoint   | 0x0528   |
| Data Size    | 36 bytes |
| Instructions | 9        |

```
      00 01 02 03 04 05 06 07  08 09 0A 0B 0C 0D 0E 0F
      -- -- -- -- -- -- -- --  -- -- -- -- -- -- -- --
0520:                          42 20 01 1E F0 FF FF 7F          B ......
0530: 03 09 10 25 80 1D 50 80  23 45 4F 80 F0 FF FF 7F  ...%..P.#EO.....
0540: F0 FF FF 7F 71 73 74 63  02 80 21 00              ....qstc..!.    
```

#### Opcodes

```
  0: 0x0528 [0x42] SET_CLI_EVENT_CANCEL_DATA()
  1: 0x0529 [0x20] SET_CLI_EVENT_UC_FLAG: Lock player control
  2: 0x052B [0x1E] EventEntity looks at LocalPlayer and starts talking
  3: 0x0530 [0x03] Work_Zone[9] = 563*
  4: 0x0535 [0x1D] PRINT_EVENT_MESSAGE(message_id=46*)
    → "You have succeeded in bringing back $7. Good work, adventurer. This discovery may help rejuvenate Bastok's economy!"
  5: 0x0538 [0x23] WAIT_FOR_DIALOG_INTERACTION
  6: 0x0539 [0x45] LOAD_SCHEDULED_TASK: Load scheduler "qstc" with entities [LocalPlayer, LocalPlayer], work=[201*, 0*]
  7: 0x054A [0x21] END_EVENT
  8: 0x054B [0x00] END_REQSTACK()
```

### Event 1007

#### Metadata

| Field        | Value    |
|--------------|----------|
| Entrypoint   | 0x054C   |
| Data Size    | 11 bytes |
| Instructions | 5        |

```
      00 01 02 03 04 05 06 07  08 09 0A 0B 0C 0D 0E 0F
      -- -- -- -- -- -- -- --  -- -- -- -- -- -- -- --
0540:                                      1E F0 FF FF              ....
0550: 7F 1D 51 80 23 21 00                              ..Q.#!.         
```

#### Opcodes

```
  0: 0x054C [0x1E] EventEntity looks at LocalPlayer and starts talking
  1: 0x0551 [0x1D] PRINT_EVENT_MESSAGE(message_id=54*)
    → "Ah, you have returned from Jeuno. Go to the President's Office right away. Sir Naji will show you in."
  2: 0x0554 [0x23] WAIT_FOR_DIALOG_INTERACTION
  3: 0x0555 [0x21] END_EVENT
  4: 0x0556 [0x00] END_REQSTACK()
```

### Event 1011

#### Metadata

| Field        | Value    |
|--------------|----------|
| Entrypoint   | 0x0557   |
| Data Size    | 16 bytes |
| Instructions | 6        |

```
      00 01 02 03 04 05 06 07  08 09 0A 0B 0C 0D 0E 0F
      -- -- -- -- -- -- -- --  -- -- -- -- -- -- -- --
0550:                      03  09 10 52 80 1E F0 FF FF         ...R.....
0560: 7F 1D 53 80 23 21 00                              ..S.#!.         
```

#### Opcodes

```
  0: 0x0557 [0x03] Work_Zone[9] = 290*
  1: 0x055C [0x1E] EventEntity looks at LocalPlayer and starts talking
  2: 0x0561 [0x1D] PRINT_EVENT_MESSAGE(message_id=8625*)
    → "You've been ordered by the president to deliver that $3. When you have completed that task, you can return here for your next mission."
  3: 0x0564 [0x23] WAIT_FOR_DIALOG_INTERACTION
  4: 0x0565 [0x21] END_EVENT
  5: 0x0566 [0x00] END_REQSTACK()
```

### Event 1008

#### Metadata

| Field        | Value     |
|--------------|-----------|
| Entrypoint   | 0x0567    |
| Data Size    | 218 bytes |
| Instructions | 40        |

```
      00 01 02 03 04 05 06 07  08 09 0A 0B 0C 0D 0E 0F
      -- -- -- -- -- -- -- --  -- -- -- -- -- -- -- --
0560:                      42  1A AD 09 38 17 80 46 01         B...8..F.
0570: 45 54 80 F8 FF FF 7F F8  FF FF 7F 73 30 34 38 02  ET.........s048.
0580: 80 29 0A F0 FF FF 7F 26  1E F0 FF FF 7F 1A CE 09  .).....&........
0590: 1D 3D 80 23 66 02 80 F8  FF FF 7F F8 FF FF 7F 74  .=.#f..........t
05A0: 6C 6B 30 1D 40 80 23 1D  44 80 23 66 02 80 F8 FF  lk0.@.#.D.#f....
05B0: FF 7F F8 FF FF 7F 74 65  6E 30 1D 4A 80 23 45 55  ......ten0.J.#EU
05C0: 80 F0 FF FF 7F F0 FF FF  7F 6F 76 6C 31 02 80 45  .........ovl1..E
05D0: 54 80 F8 FF FF 7F F8 FF  FF 7F 73 30 34 39 02 80  T.........s049..
05E0: 66 02 80 F8 FF FF 7F F8  FF FF 7F 74 6C 6B 31 1D  f..........tlk1.
05F0: 4B 80 23 1D 4C 80 23 1D  4D 80 23 66 02 80 F8 FF  K.#.L.#.M.#f....
0600: FF 7F F8 FF FF 7F 74 65  6E 31 1D 4E 80 23 7D 0F  ......ten1.N.#}.
0610: 80 1C 56 80 52 54 80 F8  FF FF 7F F8 FF FF 7F 73  ..V.RT.........s
0620: 30 34 39 1A 9B 06 1A 7A  09 46 00 45 4F 80 F0 FF  049....z.F.EO...
0630: FF 7F F0 FF FF 7F 71 73  74 63 02 80 1A 9B 09 21  ......qstc.....!
0640: 00                                                .               
```

#### Opcodes

```
  0: 0x0567 [0x42] SET_CLI_EVENT_CANCEL_DATA()
  1: 0x0568 [0x1A] CALL_SUBROUTINE(address=0x09AD)
  2: 0x056B [0x38] SET_CLIENT_EVENT_MODE(mode=3*)
  3: 0x056E [0x46] CAMERA_CONTROL: Disable user control
  4: 0x0570 [0x45] LOAD_SCHEDULED_TASK: Load scheduler "s048" with entities [EventEntity, EventEntity], work=[206*, 0*]
  5: 0x0581 [0x29] REQ_SET_WAIT(priority=0x0A, entity_id=LocalPlayer, tag_num=0x26)
  6: 0x0588 [0x1E] EventEntity looks at LocalPlayer and starts talking
  7: 0x058D [0x1A] CALL_SUBROUTINE(address=0x09CE)
  8: 0x0590 [0x1D] PRINT_EVENT_MESSAGE(message_id=21*)
    → "Good, you've brought all four parts of the doll."
  9: 0x0593 [0x23] WAIT_FOR_DIALOG_INTERACTION
 10: 0x0594 [0x66] LOAD_EXT_SCHEDULER_MAIN: Load scheduler "tlk0" with entities [EventEntity, EventEntity], work=0*
 11: 0x05A3 [0x1D] PRINT_EVENT_MESSAGE(message_id=22*)
    → "I am raising your rank to 2 for completing this mission. Congratulations."
 12: 0x05A6 [0x23] WAIT_FOR_DIALOG_INTERACTION
 13: 0x05A7 [0x1D] PRINT_EVENT_MESSAGE(message_id=23*)
    → "If you've been to the Palborough Mines, you must know now the serious nature of the threat these beastmen pose to our civilization."
 14: 0x05AA [0x23] WAIT_FOR_DIALOG_INTERACTION
 15: 0x05AB [0x66] LOAD_EXT_SCHEDULER_MAIN: Load scheduler "ten0" with entities [EventEntity, EventEntity], work=0*
 16: 0x05BA [0x1D] PRINT_EVENT_MESSAGE(message_id=24*)
    → "As a Bastoker, you are expected to take on more missions and go on conquests to preserve Bastok's brilliant future!"
 17: 0x05BD [0x23] WAIT_FOR_DIALOG_INTERACTION
 18: 0x05BE [0x45] LOAD_SCHEDULED_TASK: Load scheduler "ovl1" with entities [LocalPlayer, LocalPlayer], work=[200*, 0*]
 19: 0x05CF [0x45] LOAD_SCHEDULED_TASK: Load scheduler "s049" with entities [EventEntity, EventEntity], work=[206*, 0*]
 20: 0x05E0 [0x66] LOAD_EXT_SCHEDULER_MAIN: Load scheduler "tlk1" with entities [EventEntity, EventEntity], work=0*
 21: 0x05EF [0x1D] PRINT_EVENT_MESSAGE(message_id=25*)
    → "But I cannot give you a new mission at this time."
 22: 0x05F2 [0x23] WAIT_FOR_DIALOG_INTERACTION
 23: 0x05F3 [0x1D] PRINT_EVENT_MESSAGE(message_id=26*)
    → "You need to collect rank points before taking on new missions."
 24: 0x05F6 [0x23] WAIT_FOR_DIALOG_INTERACTION
 25: 0x05F7 [0x1D] PRINT_EVENT_MESSAGE(message_id=27*)
    → "You can receive rank points by participating in conquests and donating the crystals you acquire to guards, or by undertaking missions you've previously completed."
 26: 0x05FA [0x23] WAIT_FOR_DIALOG_INTERACTION
 27: 0x05FB [0x66] LOAD_EXT_SCHEDULER_MAIN: Load scheduler "ten1" with entities [EventEntity, EventEntity], work=0*
 28: 0x060A [0x1D] PRINT_EVENT_MESSAGE(message_id=28*)
    → "Ask the High Guard near the gatehouse if you wish to hear more about conquests."
 29: 0x060D [0x23] WAIT_FOR_DIALOG_INTERACTION
 30: 0x060E [0x7D] LOAD_START_SCHEDULER_PLAYER: Load scheduler with animation_id 32783
 31: 0x0611 [0x1C] WAIT(240* ticks)
 32: 0x0614 [0x52] END_LOAD_SCHEDULER: End scheduler "s049" with entities [EventEntity, EventEntity], work=206*
 33: 0x0623 [0x1A] CALL_SUBROUTINE(address=0x069B)
 34: 0x0626 [0x1A] CALL_SUBROUTINE(address=0x097A)
 35: 0x0629 [0x46] CAMERA_CONTROL: Restore default settings
 36: 0x062B [0x45] LOAD_SCHEDULED_TASK: Load scheduler "qstc" with entities [LocalPlayer, LocalPlayer], work=[201*, 0*]
 37: 0x063C [0x1A] CALL_SUBROUTINE(address=0x099B)
 38: 0x063F [0x21] END_EVENT
 39: 0x0640 [0x00] END_REQSTACK()
```

### Event 1009

#### Metadata

| Field        | Value     |
|--------------|-----------|
| Entrypoint   | 0x0641    |
| Data Size    | 381 bytes |
| Instructions | 57        |

```
      00 01 02 03 04 05 06 07  08 09 0A 0B 0C 0D 0E 0F
      -- -- -- -- -- -- -- --  -- -- -- -- -- -- -- --
0640:    42 1A AD 09 38 17 80  46 01 45 54 80 F8 FF FF   B...8..F.ET....
0650: 7F F8 FF FF 7F 73 30 34  38 02 80 29 0A F0 FF FF  .....s048..)....
0660: 7F 26 1E F0 FF FF 7F 1A  CE 09 1D 3D 80 23 1A 9B  .&.........=.#..
0670: 06 1A 7A 09 46 00 52 54  80 F8 FF FF 7F F8 FF FF  ..z.F.RT........
0680: 7F 73 30 35 32 45 4F 80  F0 FF FF 7F F0 FF FF 7F  .s052EO.........
0690: 71 73 74 63 02 80 1A 9B  09 21 00 45 54 80 F8 FF  qstc.....!.ET...
06A0: FF 7F F8 FF FF 7F 73 30  35 30 02 80 27 0A 2D D0  ......s050..'.-.
06B0: 0E 01 1A 1C 57 80 27 0A  18 D0 0E 01 1D 1E 2D D0  ....W.'.......-.
06C0: 0E 01 4A F0 FF FF 7F 2D  D0 0E 01 2B 2D D0 0E 01  ..J....-...+-...
06D0: 58 80 23 2B 18 D0 0E 01  59 80 23 2A 0A 2D D0 0E  X.#+....Y.#*.-..
06E0: 01 4A 2D D0 0E 01 18 D0  0E 01 2B 2D D0 0E 01 5A  .J-.......+-...Z
06F0: 80 23 2A 0A 18 D0 0E 01  66 02 80 18 D0 0E 01 18  .#*.....f.......
0700: D0 0E 01 74 6C 6B 30 2B  18 D0 0E 01 5B 80 23 52  ...tlk0+....[.#R
0710: 54 80 F8 FF FF 7F F8 FF  FF 7F 73 30 35 30 45 54  T.........s050ET
0720: 80 F8 FF FF 7F F8 FF FF  7F 73 30 35 31 02 80 66  .........s051..f
0730: 02 80 18 D0 0E 01 18 D0  0E 01 74 65 6E 30 2B 18  ..........ten0+.
0740: D0 0E 01 5C 80 23 66 02  80 18 D0 0E 01 18 D0 0E  ...\.#f.........
0750: 01 74 6C 6B 31 2B 18 D0  0E 01 5D 80 23 7B 18 D0  .tlk1+....].#{..
0760: 0E 01 2B 18 D0 0E 01 5E  80 23 66 02 80 18 D0 0E  ..+....^.#f.....
0770: 01 18 D0 0E 01 74 65 6E  30 53 18 D0 0E 01 18 D0  .....ten0S......
0780: 0E 01 74 65 6E 30 27 0A  18 D0 0E 01 1E 79 00 F0  ..ten0'......y..
0790: FF FF 7F 18 D0 0E 01 79  00 F8 FF FF 7F 18 D0 0E  .......y........
07A0: 01 45 54 80 F8 FF FF 7F  F8 FF FF 7F 73 30 35 32  .ET.........s052
07B0: 02 80 1C 19 80 2B 2D D0  0E 01 5F 80 23 1B        .....+-..._.#.  
```

#### Opcodes

```
  0: 0x0641 [0x42] SET_CLI_EVENT_CANCEL_DATA()
  1: 0x0642 [0x1A] CALL_SUBROUTINE(address=0x09AD)
  2: 0x0645 [0x38] SET_CLIENT_EVENT_MODE(mode=3*)
  3: 0x0648 [0x46] CAMERA_CONTROL: Disable user control
  4: 0x064A [0x45] LOAD_SCHEDULED_TASK: Load scheduler "s048" with entities [EventEntity, EventEntity], work=[206*, 0*]
  5: 0x065B [0x29] REQ_SET_WAIT(priority=0x0A, entity_id=LocalPlayer, tag_num=0x26)
  6: 0x0662 [0x1E] EventEntity looks at LocalPlayer and starts talking
  7: 0x0667 [0x1A] CALL_SUBROUTINE(address=0x09CE)
  8: 0x066A [0x1D] PRINT_EVENT_MESSAGE(message_id=21*)
    → "Good, you've brought all four parts of the doll."
  9: 0x066D [0x23] WAIT_FOR_DIALOG_INTERACTION
 10: 0x066E [0x1A] CALL_SUBROUTINE(address=0x069B)
 11: 0x0671 [0x1A] CALL_SUBROUTINE(address=0x097A)
 12: 0x0674 [0x46] CAMERA_CONTROL: Restore default settings
 13: 0x0676 [0x52] END_LOAD_SCHEDULER: End scheduler "s052" with entities [EventEntity, EventEntity], work=206*
 14: 0x0685 [0x45] LOAD_SCHEDULED_TASK: Load scheduler "qstc" with entities [LocalPlayer, LocalPlayer], work=[201*, 0*]
 15: 0x0696 [0x1A] CALL_SUBROUTINE(address=0x099B)
 16: 0x0699 [0x21] END_EVENT
 17: 0x069A [0x00] END_REQSTACK()

SUBROUTINE_069B:
 18: 0x069B [0x45] LOAD_SCHEDULED_TASK: Load scheduler "s050" with entities [EventEntity, EventEntity], work=[206*, 0*]
 19: 0x06AC [0x27] REQ_SET(priority=0x0A, entity_id=Naji (ID: 17748013/0x010ED02D), tag_num=0x1A)
 20: 0x06B3 [0x1C] WAIT(60* ticks)
 21: 0x06B6 [0x27] REQ_SET(priority=0x0A, entity_id=Lucius (ID: 17747992/0x010ED018), tag_num=0x1D)
 22: 0x06BD [0x1E] EventEntity looks at Naji (ID: 17748013/0x010ED02D) and starts talking
 23: 0x06C2 [0x4A] LocalPlayer looks at Naji (ID: 17748013/0x010ED02D)
 24: 0x06CB [0x2B] Naji (ID: 17748013/0x010ED02D) [8595*]:
    → "Hey, that's one of those Quadav dolls. I used to collect those for good luck."
 25: 0x06D2 [0x23] WAIT_FOR_DIALOG_INTERACTION
 26: 0x06D3 [0x2B] Lucius (ID: 17747992/0x010ED018) [8596*]:
    → "I don't think that's something I would be boasting about, Naji."
 27: 0x06DA [0x23] WAIT_FOR_DIALOG_INTERACTION
 28: 0x06DB [0x2A] GET_REQ_LEVEL(level=10, entity_id=Naji (ID: 17748013/0x010ED02D))
 29: 0x06E1 [0x4A] Naji (ID: 17748013/0x010ED02D) looks at Lucius (ID: 17747992/0x010ED018)
 30: 0x06EA [0x2B] Naji (ID: 17748013/0x010ED02D) [8597*]:
    → "S-Sir Lucius!"
 31: 0x06F1 [0x23] WAIT_FOR_DIALOG_INTERACTION
 32: 0x06F2 [0x2A] GET_REQ_LEVEL(level=10, entity_id=Lucius (ID: 17747992/0x010ED018))
 33: 0x06F8 [0x66] LOAD_EXT_SCHEDULER_MAIN: Load scheduler "tlk0" with entities [Lucius (ID: 17747992/0x010ED018), Lucius (ID: 17747992/0x010ED018)], work=0*
 34: 0x0707 [0x2B] Lucius (ID: 17747992/0x010ED018) [8598*]:
    → "Some theorize that the Palborough Mines were once holy lands for the Quadav, and that Bastok forced the beastmen from their land."
 35: 0x070E [0x23] WAIT_FOR_DIALOG_INTERACTION
 36: 0x070F [0x52] END_LOAD_SCHEDULER: End scheduler "s050" with entities [EventEntity, EventEntity], work=206*
 37: 0x071E [0x45] LOAD_SCHEDULED_TASK: Load scheduler "s051" with entities [EventEntity, EventEntity], work=[206*, 0*]
 38: 0x072F [0x66] LOAD_EXT_SCHEDULER_MAIN: Load scheduler "ten0" with entities [Lucius (ID: 17747992/0x010ED018), Lucius (ID: 17747992/0x010ED018)], work=0*
 39: 0x073E [0x2B] Lucius (ID: 17747992/0x010ED018) [8599*]:
    → "And those "dolls" that you collect are actually idols representing their ancestral hero."
 40: 0x0745 [0x23] WAIT_FOR_DIALOG_INTERACTION
 41: 0x0746 [0x66] LOAD_EXT_SCHEDULER_MAIN: Load scheduler "tlk1" with entities [Lucius (ID: 17747992/0x010ED018), Lucius (ID: 17747992/0x010ED018)], work=0*
 42: 0x0755 [0x2B] Lucius (ID: 17747992/0x010ED018) [8600*]:
    → "Of course, this has nothing to do with your mission. Those pieces you have brought back are nothing more than proof of your success."
 43: 0x075C [0x23] WAIT_FOR_DIALOG_INTERACTION
 44: 0x075D [0x7B] Lucius (ID: 17747992/0x010ED018) stops talking
 45: 0x0762 [0x2B] Lucius (ID: 17747992/0x010ED018) [8601*]:
    → "But remember this, Naji. Things in the world often look different depending on where you stand. Even though we are not obligated to search for knowledge, truth is only found by those who have the will..."
 46: 0x0769 [0x23] WAIT_FOR_DIALOG_INTERACTION
 47: 0x076A [0x66] LOAD_EXT_SCHEDULER_MAIN: Load scheduler "ten0" with entities [Lucius (ID: 17747992/0x010ED018), Lucius (ID: 17747992/0x010ED018)], work=0*
 48: 0x0779 [0x53] WAIT_SCHEDULER_TASK: Wait for scheduler "ten0" with entities [Lucius (ID: 17747992/0x010ED018), Lucius (ID: 17747992/0x010ED018)]
 49: 0x0786 [0x27] REQ_SET(priority=0x0A, entity_id=Lucius (ID: 17747992/0x010ED018), tag_num=0x1E)
 50: 0x078D [0x79] LocalPlayer looks at Lucius (ID: 17747992/0x010ED018) (Basic look)
 51: 0x0797 [0x79] EventEntity looks at Lucius (ID: 17747992/0x010ED018) (Basic look)
 52: 0x07A1 [0x45] LOAD_SCHEDULED_TASK: Load scheduler "s052" with entities [EventEntity, EventEntity], work=[206*, 0*]
 53: 0x07B2 [0x1C] WAIT(30* ticks)
 54: 0x07B5 [0x2B] Naji (ID: 17748013/0x010ED02D) [8602*]:
    → "You know, sometimes I just don't get what he's saying. He's usually like that after battling it out with the senators. Poor guy..."
 55: 0x07BC [0x23] WAIT_FOR_DIALOG_INTERACTION
 56: 0x07BD [0x1B] RETURN
```

### Event 1010

#### Metadata

| Field        | Value     |
|--------------|-----------|
| Entrypoint   | 0x07BE    |
| Data Size    | 546 bytes |
| Instructions | 74        |

```
      00 01 02 03 04 05 06 07  08 09 0A 0B 0C 0D 0E 0F
      -- -- -- -- -- -- -- --  -- -- -- -- -- -- -- --
07B0:                                            42 1A                B.
07C0: AD 09 46 01 38 17 80 45  54 80 F8 FF FF 7F F8 FF  ..F.8..ET.......
07D0: FF 7F 73 30 34 38 02 80  29 0A F0 FF FF 7F 26 1E  ..s048..).....&.
07E0: F0 FF FF 7F 1A CE 09 03  09 10 25 80 1D 50 80 23  ..........%..P.#
07F0: 4B F0 FF FF 7F 60 80 27  0A 2B D0 0E 01 17 27 0A  K....`.'.+....'.
0800: 18 D0 0E 01 1F 45 54 80  F8 FF FF 7F F8 FF FF 7F  .....ET.........
0810: 73 30 35 33 02 80 79 00  F0 FF FF 7F 2B D0 0E 01  s053..y.....+...
0820: 2B 2B D0 0E 01 61 80 23  2A 0A 2B D0 0E 01 2B 2B  ++...a.#*.+...++
0830: D0 0E 01 62 80 23 2A 0A  18 D0 0E 01 4A 18 D0 0E  ...b.#*.....J...
0840: 01 2B D0 0E 01 79 00 F0  FF FF 7F 18 D0 0E 01 2B  .+...y.........+
0850: 18 D0 0E 01 63 80 23 4A  2B D0 0E 01 18 D0 0E 01  ....c.#J+.......
0860: 2B 2B D0 0E 01 64 80 23  52 54 80 F8 FF FF 7F F8  ++...d.#RT......
0870: FF FF 7F 73 30 35 33 45  54 80 F8 FF FF 7F F8 FF  ...s053ET.......
0880: FF 7F 73 30 35 34 02 80  66 02 80 18 D0 0E 01 18  ..s054..f.......
0890: D0 0E 01 74 6C 6B 31 2B  18 D0 0E 01 65 80 23 66  ...tlk1+....e.#f
08A0: 02 80 18 D0 0E 01 18 D0  0E 01 74 65 6E 31 2B 18  ..........ten1+.
08B0: D0 0E 01 66 80 23 5B 67  80 2B D0 0E 01 2B D0 0E  ...f.#[g.+...+..
08C0: 01 6B 61 6B 30 2B 2B D0  0E 01 68 80 23 52 54 80  .kak0++...h.#RT.
08D0: F8 FF FF 7F F8 FF FF 7F  73 30 35 34 45 54 80 F8  ........s054ET..
08E0: FF FF 7F F8 FF FF 7F 73  30 35 35 02 80 2B 2B D0  .......s055..++.
08F0: 0E 01 69 80 23 5B 67 80  2B D0 0E 01 2B D0 0E 01  ..i.#[g.+...+...
0900: 6B 61 6B 31 2B 2B D0 0E  01 6A 80 23 5B 67 80 2B  kak1++...j.#[g.+
0910: D0 0E 01 2B D0 0E 01 74  6C 6B 30 2B 2B D0 0E 01  ...+...tlk0++...
0920: 6B 80 23 6B 69 64 6C 30  2B D0 0E 01 7B 18 D0 0E  k.#kidl0+...{...
0930: 01 2B 18 D0 0E 01 6C 80  23 5B 6D 80 2B D0 0E 01  .+....l.#[m.+...
0940: 2B D0 0E 01 74 65 72 30  2B 2B D0 0E 01 6E 80 23  +...ter0++...n.#
0950: 5B 6D 80 2B D0 0E 01 2B  D0 0E 01 74 65 72 31 1A  [m.+...+...ter1.
0960: 7A 09 45 4F 80 F0 FF FF  7F F0 FF FF 7F 71 73 74  z.EO.........qst
0970: 63 02 80 46 00 1A 9B 09  21 00 45 55 80 F0 FF FF  c..F....!.EU....
0980: 7F F0 FF FF 7F 66 64 6F  31 02 80 55 55 80 F0 FF  .....fdo1..UU...
0990: FF 7F F0 FF FF 7F 66 64  6F 31 1B 45 55 80 F0 FF  ......fdo1.EU...
09A0: FF 7F F0 FF FF 7F 66 64  69 31 02 80 1B 45 55 80  ......fdi1...EU.
09B0: F0 FF FF 7F F0 FF FF 7F  66 64 6F 30 02 80 55 55  ........fdo0..UU
09C0: 80 F0 FF FF 7F F0 FF FF  7F 66 64 6F 30 1B 45 55  .........fdo0.EU
09D0: 80 F0 FF FF 7F F0 FF FF  7F 66 64 69 30 02 80 1B  .........fdi0...
```

#### Opcodes

```
  0: 0x07BE [0x42] SET_CLI_EVENT_CANCEL_DATA()
  1: 0x07BF [0x1A] CALL_SUBROUTINE(address=0x09AD)
  2: 0x07C2 [0x46] CAMERA_CONTROL: Disable user control
  3: 0x07C4 [0x38] SET_CLIENT_EVENT_MODE(mode=3*)
  4: 0x07C7 [0x45] LOAD_SCHEDULED_TASK: Load scheduler "s048" with entities [EventEntity, EventEntity], work=[206*, 0*]
  5: 0x07D8 [0x29] REQ_SET_WAIT(priority=0x0A, entity_id=LocalPlayer, tag_num=0x26)
  6: 0x07DF [0x1E] EventEntity looks at LocalPlayer and starts talking
  7: 0x07E4 [0x1A] CALL_SUBROUTINE(address=0x09CE)
  8: 0x07E7 [0x03] Work_Zone[9] = 563*
  9: 0x07EC [0x1D] PRINT_EVENT_MESSAGE(message_id=46*)
    → "You have succeeded in bringing back $7. Good work, adventurer. This discovery may help rejuvenate Bastok's economy!"
 10: 0x07EF [0x23] WAIT_FOR_DIALOG_INTERACTION
 11: 0x07F0 [0x4B] UPDATE_ENTITY_YAW(entity=LocalPlayer, yaw=4.9°*)
 12: 0x07F7 [0x27] REQ_SET(priority=0x0A, entity_id=Cid (ID: 17748011/0x010ED02B), tag_num=0x17)
 13: 0x07FE [0x27] REQ_SET(priority=0x0A, entity_id=Lucius (ID: 17747992/0x010ED018), tag_num=0x1F)
 14: 0x0805 [0x45] LOAD_SCHEDULED_TASK: Load scheduler "s053" with entities [EventEntity, EventEntity], work=[206*, 0*]
 15: 0x0816 [0x79] LocalPlayer looks at Cid (ID: 17748011/0x010ED02B) (Basic look)
 16: 0x0820 [0x2B] Cid (ID: 17748011/0x010ED02B) [8603*]:
    → "Great! You brought me $7!"
 17: 0x0827 [0x23] WAIT_FOR_DIALOG_INTERACTION
 18: 0x0828 [0x2A] GET_REQ_LEVEL(level=10, entity_id=Cid (ID: 17748011/0x010ED02B))
 19: 0x082E [0x2B] Cid (ID: 17748011/0x010ED02B) [8604*]:
    → "I asked you to bring me this because I'm thinking of using it in my next project. $7 can only be found in the Gusgen Mines, and with the mines being deserted for so many years..."
 20: 0x0835 [0x23] WAIT_FOR_DIALOG_INTERACTION
 21: 0x0836 [0x2A] GET_REQ_LEVEL(level=10, entity_id=Lucius (ID: 17747992/0x010ED018))
 22: 0x083C [0x4A] Lucius (ID: 17747992/0x010ED018) looks at Cid (ID: 17748011/0x010ED02B)
 23: 0x0845 [0x79] LocalPlayer looks at Lucius (ID: 17747992/0x010ED018) (Basic look)
 24: 0x084F [0x2B] Lucius (ID: 17747992/0x010ED018) [8605*]:
    → "Chief Cid. Do you think it would be possible to borrow that $7 after you have completed your project?"
 25: 0x0856 [0x23] WAIT_FOR_DIALOG_INTERACTION
 26: 0x0857 [0x4A] Cid (ID: 17748011/0x010ED02B) looks at Lucius (ID: 17747992/0x010ED018)
 27: 0x0860 [0x2B] Cid (ID: 17748011/0x010ED02B) [8606*]:
    → "Oh? This is a surprise. It's not every day that you ask me a favor."
 28: 0x0867 [0x23] WAIT_FOR_DIALOG_INTERACTION
 29: 0x0868 [0x52] END_LOAD_SCHEDULER: End scheduler "s053" with entities [EventEntity, EventEntity], work=206*
 30: 0x0877 [0x45] LOAD_SCHEDULED_TASK: Load scheduler "s054" with entities [EventEntity, EventEntity], work=[206*, 0*]
 31: 0x0888 [0x66] LOAD_EXT_SCHEDULER_MAIN: Load scheduler "tlk1" with entities [Lucius (ID: 17747992/0x010ED018), Lucius (ID: 17747992/0x010ED018)], work=0*
 32: 0x0897 [0x2B] Lucius (ID: 17747992/0x010ED018) [8607*]:
    → "It is said that the Gusgen Mines are a haven for paranormal activity. Priests from the San d'Oria Cathedral have even performed certain rituals of consecration there. As far as magic research is concerned, it's certainly a significant location."
 33: 0x089E [0x23] WAIT_FOR_DIALOG_INTERACTION
 34: 0x089F [0x66] LOAD_EXT_SCHEDULER_MAIN: Load scheduler "ten1" with entities [Lucius (ID: 17747992/0x010ED018), Lucius (ID: 17747992/0x010ED018)], work=0*
 35: 0x08AE [0x2B] Lucius (ID: 17747992/0x010ED018) [8608*]:
    → "I have the feeling that I'm about to get a lecture on why the presidential aide shouldn't be dabbling in magic."
 36: 0x08B5 [0x23] WAIT_FOR_DIALOG_INTERACTION
 37: 0x08B6 [0x5B] LOAD_EXT_SCHEDULER: Load scheduler "kak0" with entities [Cid (ID: 17748011/0x010ED02B), Cid (ID: 17748011/0x010ED02B)], work=110*
 38: 0x08C5 [0x2B] Cid (ID: 17748011/0x010ED02B) [8609*]:
    → "Don't get me wrong, Lucius. I don't know squat about magic, but I've never questioned its power."
 39: 0x08CC [0x23] WAIT_FOR_DIALOG_INTERACTION
 40: 0x08CD [0x52] END_LOAD_SCHEDULER: End scheduler "s054" with entities [EventEntity, EventEntity], work=206*
 41: 0x08DC [0x45] LOAD_SCHEDULED_TASK: Load scheduler "s055" with entities [EventEntity, EventEntity], work=[206*, 0*]
 42: 0x08ED [0x2B] Cid (ID: 17748011/0x010ED02B) [8610*]:
    → "I know darn well that you've spent your career trying to get the people of Bastok to see the benefits of magic."
 43: 0x08F4 [0x23] WAIT_FOR_DIALOG_INTERACTION
 44: 0x08F5 [0x5B] LOAD_EXT_SCHEDULER: Load scheduler "kak1" with entities [Cid (ID: 17748011/0x010ED02B), Cid (ID: 17748011/0x010ED02B)], work=110*
 45: 0x0904 [0x2B] Cid (ID: 17748011/0x010ED02B) [8611*]:
    → "You managed to get San d'Oria to cooperate with us in the creation of new magic spells by making good use of the results of my Crystal Line research. Those new spells have helped bring many mage adventurers to Bastok."
 46: 0x090B [0x23] WAIT_FOR_DIALOG_INTERACTION
 47: 0x090C [0x5B] LOAD_EXT_SCHEDULER: Load scheduler "tlk0" with entities [Cid (ID: 17748011/0x010ED02B), Cid (ID: 17748011/0x010ED02B)], work=110*
 48: 0x091B [0x2B] Cid (ID: 17748011/0x010ED02B) [8612*]:
    → "So never doubt your cause. Here, take this $7. My research can wait."
 49: 0x0922 [0x23] WAIT_FOR_DIALOG_INTERACTION
 50: 0x0923 [0x6B] STOP_AND_IDLE: Cid (ID: 17748011/0x010ED02B) stops current action and resets to idle (animation="idl0")
 51: 0x092C [0x7B] Lucius (ID: 17747992/0x010ED018) stops talking
 52: 0x0931 [0x2B] Lucius (ID: 17747992/0x010ED018) [8613*]:
    → "I...I am at a loss for words..."
 53: 0x0938 [0x23] WAIT_FOR_DIALOG_INTERACTION
 54: 0x0939 [0x5B] LOAD_EXT_SCHEDULER: Load scheduler "ter0" with entities [Cid (ID: 17748011/0x010ED02B), Cid (ID: 17748011/0x010ED02B)], work=111*
 55: 0x0948 [0x2B] Cid (ID: 17748011/0x010ED02B) [8614*]:
    → "And let me tell you one more thing. You don't go and overwork yourself, hear? You're one of the few people in this city who Karst needs. You go down, and he goes down."
 56: 0x094F [0x23] WAIT_FOR_DIALOG_INTERACTION
 57: 0x0950 [0x5B] LOAD_EXT_SCHEDULER: Load scheduler "ter1" with entities [Cid (ID: 17748011/0x010ED02B), Cid (ID: 17748011/0x010ED02B)], work=111*
 58: 0x095F [0x1A] CALL_SUBROUTINE(address=0x097A)
 59: 0x0962 [0x45] LOAD_SCHEDULED_TASK: Load scheduler "qstc" with entities [LocalPlayer, LocalPlayer], work=[201*, 0*]
 60: 0x0973 [0x46] CAMERA_CONTROL: Restore default settings
 61: 0x0975 [0x1A] CALL_SUBROUTINE(address=0x099B)
 62: 0x0978 [0x21] END_EVENT
 63: 0x0979 [0x00] END_REQSTACK()

SUBROUTINE_097A:
 64: 0x097A [0x45] LOAD_SCHEDULED_TASK: Load scheduler "fdo1" with entities [LocalPlayer, LocalPlayer], work=[200*, 0*]
 65: 0x098B [0x55] WAIT_LOAD_SCHEDULER: Wait for scheduler "fdo1" with entities [LocalPlayer, LocalPlayer], work=200*
 66: 0x099A [0x1B] RETURN

SUBROUTINE_099B:
 67: 0x099B [0x45] LOAD_SCHEDULED_TASK: Load scheduler "fdi1" with entities [LocalPlayer, LocalPlayer], work=[200*, 0*]
 68: 0x09AC [0x1B] RETURN

SUBROUTINE_09AD:
 69: 0x09AD [0x45] LOAD_SCHEDULED_TASK: Load scheduler "fdo0" with entities [LocalPlayer, LocalPlayer], work=[200*, 0*]
 70: 0x09BE [0x55] WAIT_LOAD_SCHEDULER: Wait for scheduler "fdo0" with entities [LocalPlayer, LocalPlayer], work=200*
 71: 0x09CD [0x1B] RETURN

SUBROUTINE_09CE:
 72: 0x09CE [0x45] LOAD_SCHEDULED_TASK: Load scheduler "fdi0" with entities [LocalPlayer, LocalPlayer], work=[200*, 0*]
 73: 0x09DF [0x1B] RETURN
```
