# 17748085 - Ulrich

## Common Data

| Field            | Value                |
|------------------|----------------------|
| Zone             | Metalworks (ID: 237) |
| Block Size       | 156 bytes            |
| Total Events     | 5                    |
| References Count | 8                    |

## List of Events

| Event ID                 | Entrypoint   |   Size |   Instructions |
|--------------------------|--------------|--------|----------------|
| [65535](#event-65535)    | 0x0000       |      1 |              1 |
| [780](#event-780)        | 0x0001       |      1 |              1 |
| [65535.1](#event-655351) | 0x0002       |     17 |              4 |
| [65535.2](#event-655352) | 0x0013       |     47 |              5 |
| [65535.3](#event-655353) | 0x0042       |     21 |              4 |

## DAT References (imed_data)

|   Index | Hex Value   |   Dec Value |
|---------|-------------|-------------|
|       0 | 0xFFFB28B6  |  4294650038 |
|       1 | 0x4AC9      |       19145 |
|       2 | 0xFFFF965D  |  4294940253 |
|       3 | 0x037C      |         892 |
|       4 | 0x00C8      |         200 |
|       5 | 0x003C      |          60 |
|       6 | 0x00C9      |         201 |
|       7 | 0x015E      |         350 |

## Events

### Event 65535

#### Metadata

| Field        | Value   |
|--------------|---------|
| Entrypoint   | 0x0000  |
| Data Size    | 1 bytes |
| Instructions | 1       |

```
      00 01 02 03 04 05 06 07  08 09 0A 0B 0C 0D 0E 0F
      -- -- -- -- -- -- -- --  -- -- -- -- -- -- -- --
0000: 00                                                .               
```

#### Opcodes

```
  0: 0x0000 [0x00] END_REQSTACK()
```

### Event 780

#### Metadata

| Field        | Value   |
|--------------|---------|
| Entrypoint   | 0x0001  |
| Data Size    | 1 bytes |
| Instructions | 1       |

```
      00 01 02 03 04 05 06 07  08 09 0A 0B 0C 0D 0E 0F
      -- -- -- -- -- -- -- --  -- -- -- -- -- -- -- --
0000:    00                                              .              
```

#### Opcodes

```
  0: 0x0001 [0x00] END_REQSTACK()
```

### Event 65535.1

#### Metadata

| Field        | Value    |
|--------------|----------|
| Entrypoint   | 0x0002   |
| Data Size    | 17 bytes |
| Instructions | 4        |

```
      00 01 02 03 04 05 06 07  08 09 0A 0B 0C 0D 0E 0F
      -- -- -- -- -- -- -- --  -- -- -- -- -- -- -- --
0000:       22 00 37 00 80 01  80 02 80 03 80 1E 6E D0    ".7.........n.
0010: 0E 01 00                                          ...             
```

#### Opcodes

```
  0: 0x0002 [0x22] ENTITY_HIDE_FLAG(enabled=0x00)
  1: 0x0004 [0x37] UPDATE_EVENT_POSITION_AND_DIR: x=-317.258*, z=19.145*, y=-27.043*, direction=78.4°*
  2: 0x000D [0x1E] EventEntity looks at Raogrimm (ID: 17748078/0x010ED06E) and starts talking
  3: 0x0012 [0x00] END_REQSTACK()
```

### Event 65535.2

#### Metadata

| Field        | Value    |
|--------------|----------|
| Entrypoint   | 0x0013   |
| Data Size    | 47 bytes |
| Instructions | 5        |

```
      00 01 02 03 04 05 06 07  08 09 0A 0B 0C 0D 0E 0F
      -- -- -- -- -- -- -- --  -- -- -- -- -- -- -- --
0010:          5B 04 80 75 D0  0E 01 75 D0 0E 01 74 6C     [..u...u...tl
0020: 62 31 1C 05 80 5B 06 80  75 D0 0E 01 75 D0 0E 01  b1...[..u...u...
0030: 6B 61 6D 30 53 75 D0 0E  01 75 D0 0E 01 6B 61 6D  kam0Su...u...kam
0040: 30 00                                             0.              
```

#### Opcodes

```
  0: 0x0013 [0x5B] LOAD_EXT_SCHEDULER: Load scheduler "tlb1" with entities [Ulrich (ID: 17748085/0x010ED075), Ulrich (ID: 17748085/0x010ED075)], work=200*
  1: 0x0022 [0x1C] WAIT(60* ticks)
  2: 0x0025 [0x5B] LOAD_EXT_SCHEDULER: Load scheduler "kam0" with entities [Ulrich (ID: 17748085/0x010ED075), Ulrich (ID: 17748085/0x010ED075)], work=201*
  3: 0x0034 [0x53] WAIT_SCHEDULER_TASK: Wait for scheduler "kam0" with entities [Ulrich (ID: 17748085/0x010ED075), Ulrich (ID: 17748085/0x010ED075)]
  4: 0x0041 [0x00] END_REQSTACK()
```

### Event 65535.3

#### Metadata

| Field        | Value    |
|--------------|----------|
| Entrypoint   | 0x0042   |
| Data Size    | 21 bytes |
| Instructions | 4        |

```
      00 01 02 03 04 05 06 07  08 09 0A 0B 0C 0D 0E 0F
      -- -- -- -- -- -- -- --  -- -- -- -- -- -- -- --
0040:       5B 06 80 75 D0 0E  01 75 D0 0E 01 6E 75 6B    [..u...u...nuk
0050: 30 1C 07 80 22 01 00                              0..."..         
```

#### Opcodes

```
  0: 0x0042 [0x5B] LOAD_EXT_SCHEDULER: Load scheduler "nuk0" with entities [Ulrich (ID: 17748085/0x010ED075), Ulrich (ID: 17748085/0x010ED075)], work=201*
  1: 0x0051 [0x1C] WAIT(350* ticks)
  2: 0x0054 [0x22] ENTITY_HIDE_FLAG(enabled=0x01)
  3: 0x0056 [0x00] END_REQSTACK()
```
