# 17748011 - Cid

## Common Data

| Field            | Value                |
|------------------|----------------------|
| Zone             | Metalworks (ID: 237) |
| Block Size       | 9264 bytes           |
| Total Events     | 143                  |
| References Count | 323                  |

## List of Events

| Event ID                   | Entrypoint   |   Size |   Instructions |
|----------------------------|--------------|--------|----------------|
| [65535](#event-65535)      | 0x0000       |      1 |              1 |
| [503](#event-503)          | 0x0001       |     15 |              3 |
| [504](#event-504)          | 0x0010       |     15 |              3 |
| [505](#event-505)          | 0x001F       |    109 |             25 |
| [506](#event-506)          | 0x008C       |    153 |             33 |
| [500](#event-500)          | 0x0125       |      6 |              4 |
| [502](#event-502)          | 0x012B       |     19 |              7 |
| [65535.1](#event-655351)   | 0x013E       |      6 |              2 |
| [65535.2](#event-655352)   | 0x0144       |     48 |              8 |
| [65535.3](#event-655353)   | 0x0174       |     48 |              8 |
| [65535.4](#event-655354)   | 0x01A4       |     33 |              7 |
| [720](#event-720)          | 0x01C5       |     30 |              4 |
| [65535.5](#event-655355)   | 0x01E3       |     28 |              6 |
| [507](#event-507)          | 0x01FF       |     58 |             14 |
| [508](#event-508)          | 0x0239       |     75 |             15 |
| [509](#event-509)          | 0x0284       |    315 |             48 |
| [603](#event-603)          | 0x03BF       |     12 |              3 |
| [65535.6](#event-655356)   | 0x03CB       |     38 |             10 |
| [65535.7](#event-655357)   | 0x03F1       |     23 |              5 |
| [755](#event-755)          | 0x0408       |      1 |              1 |
| [65535.8](#event-655358)   | 0x0409       |     38 |              7 |
| [760](#event-760)          | 0x042F       |      1 |              1 |
| [1010](#event-1010)        | 0x0430       |      6 |              2 |
| [65535.9](#event-655359)   | 0x0436       |     33 |              6 |
| [763](#event-763)          | 0x0457       |      6 |              2 |
| [764](#event-764)          | 0x045D       |      6 |              2 |
| [65535.10](#event-6553510) | 0x0463       |     14 |              4 |
| [780](#event-780)          | 0x0471       |     10 |              2 |
| [782](#event-782)          | 0x047B       |     15 |              3 |
| [65535.11](#event-6553511) | 0x048A       |     14 |              4 |
| [65535.12](#event-6553512) | 0x0498       |     20 |              3 |
| [795](#event-795)          | 0x04AC       |      1 |              1 |
| [796](#event-796)          | 0x04AD       |    154 |             36 |
| [797](#event-797)          | 0x0547       |     19 |              7 |
| [798](#event-798)          | 0x055A       |      1 |              1 |
| [799](#event-799)          | 0x055B       |      1 |              1 |
| [65535.13](#event-6553513) | 0x055C       |     24 |              5 |
| [861](#event-861)          | 0x0574       |     58 |             14 |
| [846](#event-846)          | 0x05AE       |    188 |             26 |
| [848](#event-848)          | 0x066A       |     58 |             14 |
| [862](#event-862)          | 0x06A4       |     58 |             14 |
| [863](#event-863)          | 0x06DE       |     54 |             12 |
| [851](#event-851)          | 0x0714       |    232 |             46 |
| [858](#event-858)          | 0x07FC       |    186 |             24 |
| [845](#event-845)          | 0x08B6       |      1 |              1 |
| [65535.14](#event-6553514) | 0x08B7       |     25 |              6 |
| [65535.15](#event-6553515) | 0x08D0       |     10 |              2 |
| [65535.16](#event-6553516) | 0x08DA       |     15 |              5 |
| [65535.17](#event-6553517) | 0x08E9       |     10 |              2 |
| [65535.18](#event-6553518) | 0x08F3       |     24 |              6 |
| [65535.19](#event-6553519) | 0x090B       |     23 |              5 |
| [847](#event-847)          | 0x0922       |      1 |              1 |
| [65535.20](#event-6553520) | 0x0923       |     30 |              6 |
| [849](#event-849)          | 0x0941       |      1 |              1 |
| [65535.21](#event-6553521) | 0x0942       |     15 |              5 |
| [850](#event-850)          | 0x0951       |      1 |              1 |
| [65535.22](#event-6553522) | 0x0952       |     15 |              5 |
| [852](#event-852)          | 0x0961       |      1 |              1 |
| [65535.23](#event-6553523) | 0x0962       |     24 |              6 |
| [65535.24](#event-6553524) | 0x097A       |     15 |              5 |
| [854](#event-854)          | 0x0989       |      1 |              1 |
| [65535.25](#event-6553525) | 0x098A       |     24 |              6 |
| [65535.26](#event-6553526) | 0x09A2       |     10 |              2 |
| [65535.27](#event-6553527) | 0x09AC       |     10 |              2 |
| [65535.28](#event-6553528) | 0x09B6       |     15 |              5 |
| [65535.29](#event-6553529) | 0x09C5       |     42 |              8 |
| [65535.30](#event-6553530) | 0x09EF       |     23 |              5 |
| [65535.31](#event-6553531) | 0x0A06       |     12 |              4 |
| [65535.32](#event-6553532) | 0x0A12       |     31 |              7 |
| [65535.33](#event-6553533) | 0x0A31       |     24 |              6 |
| [855](#event-855)          | 0x0A49       |      1 |              1 |
| [65535.34](#event-6553534) | 0x0A4A       |     24 |              6 |
| [856](#event-856)          | 0x0A62       |      1 |              1 |
| [65535.35](#event-6553535) | 0x0A63       |     29 |              7 |
| [857](#event-857)          | 0x0A80       |      1 |              1 |
| [65535.36](#event-6553536) | 0x0A81       |     15 |              5 |
| [65535.37](#event-6553537) | 0x0A90       |     24 |              6 |
| [65535.38](#event-6553538) | 0x0AA8       |     16 |              2 |
| [65535.39](#event-6553539) | 0x0AB8       |     14 |              2 |
| [65535.40](#event-6553540) | 0x0AC6       |     16 |              2 |
| [65535.41](#event-6553541) | 0x0AD6       |     14 |              2 |
| [65535.42](#event-6553542) | 0x0AE4       |     16 |              2 |
| [65535.43](#event-6553543) | 0x0AF4       |     14 |              2 |
| [65535.44](#event-6553544) | 0x0B02       |     16 |              2 |
| [65535.45](#event-6553545) | 0x0B12       |     14 |              2 |
| [65535.46](#event-6553546) | 0x0B20       |     16 |              2 |
| [65535.47](#event-6553547) | 0x0B30       |     14 |              2 |
| [65535.48](#event-6553548) | 0x0B3E       |     16 |              2 |
| [65535.49](#event-6553549) | 0x0B4E       |     14 |              2 |
| [65535.50](#event-6553550) | 0x0B5C       |     16 |              2 |
| [65535.51](#event-6553551) | 0x0B6C       |     14 |              2 |
| [65535.52](#event-6553552) | 0x0B7A       |     16 |              2 |
| [65535.53](#event-6553553) | 0x0B8A       |     14 |              2 |
| [65535.54](#event-6553554) | 0x0B98       |     16 |              2 |
| [65535.55](#event-6553555) | 0x0BA8       |     14 |              2 |
| [65535.56](#event-6553556) | 0x0BB6       |     16 |              2 |
| [65535.57](#event-6553557) | 0x0BC6       |     14 |              2 |
| [65535.58](#event-6553558) | 0x0BD4       |     16 |              2 |
| [65535.59](#event-6553559) | 0x0BE4       |     14 |              2 |
| [65535.60](#event-6553560) | 0x0BF2       |     16 |              2 |
| [65535.61](#event-6553561) | 0x0C02       |     14 |              2 |
| [65535.62](#event-6553562) | 0x0C10       |     16 |              2 |
| [65535.63](#event-6553563) | 0x0C20       |     14 |              2 |
| [65535.64](#event-6553564) | 0x0C2E       |     16 |              2 |
| [65535.65](#event-6553565) | 0x0C3E       |     14 |              2 |
| [65535.66](#event-6553566) | 0x0C4C       |     16 |              2 |
| [65535.67](#event-6553567) | 0x0C5C       |     14 |              2 |
| [65535.68](#event-6553568) | 0x0C6A       |     16 |              2 |
| [65535.69](#event-6553569) | 0x0C7A       |     14 |              2 |
| [65535.70](#event-6553570) | 0x0C88       |     16 |              2 |
| [65535.71](#event-6553571) | 0x0C98       |     14 |              2 |
| [65535.72](#event-6553572) | 0x0CA6       |     16 |              2 |
| [65535.73](#event-6553573) | 0x0CB6       |     14 |              2 |
| [65535.74](#event-6553574) | 0x0CC4       |     16 |              2 |
| [65535.75](#event-6553575) | 0x0CD4       |     14 |              2 |
| [868](#event-868)          | 0x0CE2       |      1 |              1 |
| [869](#event-869)          | 0x0CE3       |      1 |              1 |
| [65535.76](#event-6553576) | 0x0CE4       |     25 |              7 |
| [65535.77](#event-6553577) | 0x0CFD       |     15 |              5 |
| [883](#event-883)          | 0x0D0C       |      1 |              1 |
| [884](#event-884)          | 0x0D0D       |     60 |             14 |
| [890](#event-890)          | 0x0D49       |      1 |              1 |
| [891](#event-891)          | 0x0D4A       |      1 |              1 |
| [892](#event-892)          | 0x0D4B       |      1 |              1 |
| [893](#event-893)          | 0x0D4C       |      1 |              1 |
| [894](#event-894)          | 0x0D4D       |     89 |             20 |
| [895](#event-895)          | 0x0DA6       |     19 |              7 |
| [65535.78](#event-6553578) | 0x0DB9       |     21 |              7 |
| [897](#event-897)          | 0x0DCE       |      1 |              1 |
| [898](#event-898)          | 0x0DCF       |      1 |              1 |
| [65535.79](#event-6553579) | 0x0DD0       |      6 |              2 |
| [65535.80](#event-6553580) | 0x0DD6       |     15 |              3 |
| [65535.81](#event-6553581) | 0x0DE5       |     43 |              9 |
| [65535.82](#event-6553582) | 0x0E10       |     27 |              7 |
| [65535.83](#event-6553583) | 0x0E2B       |     10 |              2 |
| [65535.84](#event-6553584) | 0x0E35       |     31 |              5 |
| [65535.85](#event-6553585) | 0x0E54       |     15 |              5 |
| [979](#event-979)          | 0x0E63       |   1696 |            238 |
| [987](#event-987)          | 0x1503       |   2002 |            262 |
| [990](#event-990)          | 0x1CD5       |      1 |              1 |
| [991](#event-991)          | 0x1CD6       |      1 |              1 |
| [992](#event-992)          | 0x1CD7       |      1 |              1 |

## DAT References (imed_data)

|   Index | Hex Value   |   Dec Value |
|---------|-------------|-------------|
|       0 | 0xFFFFCECA  |  4294954698 |
|       1 | 0x097E      |        2430 |
|       2 | 0xFFFFD514  |  4294956308 |
|       3 | 0x0B9D      |        2973 |
|       4 | 0x0265      |         613 |
|       5 | 0x1D9A      |        7578 |
|       6 | 0x006E      |         110 |
|       7 | 0x1D9B      |        7579 |
|       8 | 0x1D9C      |        7580 |
|       9 | 0x1D9D      |        7581 |
|      10 | 0x1D9E      |        7582 |
|      11 | 0x1D9F      |        7583 |
|      12 | 0x1DA0      |        7584 |
|      13 | 0x1DA1      |        7585 |
|      14 | 0x1DA2      |        7586 |
|      15 | 0x1DA3      |        7587 |
|      16 | 0x0000      |           0 |
|      17 | 0x1DA4      |        7588 |
|      18 | 0x1DA5      |        7589 |
|      19 | 0x1DA6      |        7590 |
|      20 | 0x1DA7      |        7591 |
|      21 | 0x1DA8      |        7592 |
|      22 | 0x1DA9      |        7593 |
|      23 | 0x1D62      |        7522 |
|      24 | 0x000A      |          10 |
|      25 | 0x1D63      |        7523 |
|      26 | 0x000D      |          13 |
|      27 | 0xFFFFC2EF  |  4294951663 |
|      28 | 0x012F      |         303 |
|      29 | 0x0767      |        1895 |
|      30 | 0xFFFFD5F7  |  4294956535 |
|      31 | 0x0508      |        1288 |
|      32 | 0xFFFFD07F  |  4294955135 |
|      33 | 0xFFFFFAF7  |  4294966007 |
|      34 | 0x0078      |         120 |
|      35 | 0x1831D     |       99101 |
|      36 | 0x0A83      |        2691 |
|      37 | 0xFFFFB136  |  4294947126 |
|      38 | 0x0F2A      |        3882 |
|      39 | 0x187C9     |      100297 |
|      40 | 0x099B      |        2459 |
|      41 | 0x1EE8      |        7912 |
|      42 | 0x006F      |         111 |
|      43 | 0x1EE9      |        7913 |
|      44 | 0x1EEA      |        7914 |
|      45 | 0x1EEB      |        7915 |
|      46 | 0x11B2      |        4530 |
|      47 | 0x110D      |        4365 |
|      48 | 0x1EEC      |        7916 |
|      49 | 0x1EED      |        7917 |
|      50 | 0x012C      |         300 |
|      51 | 0x00C8      |         200 |
|      52 | 0x001E      |          30 |
|      53 | 0x0003      |           3 |
|      54 | 0x0089      |         137 |
|      55 | 0x1EEE      |        7918 |
|      56 | 0xFFFFD475  |  4294956149 |
|      57 | 0x04CD      |        1229 |
|      58 | 0x1EEF      |        7919 |
|      59 | 0x1EF0      |        7920 |
|      60 | 0x1EF1      |        7921 |
|      61 | 0x1EF2      |        7922 |
|      62 | 0x1EF3      |        7923 |
|      63 | 0x003C      |          60 |
|      64 | 0x00C9      |         201 |
|      65 | 0x182E6     |       99046 |
|      66 | 0x056F      |        1391 |
|      67 | 0xFFFFB12B  |  4294947115 |
|      68 | 0x0F32      |        3890 |
|      69 | 0x18FEA     |      102378 |
|      70 | 0x141B1     |       82353 |
|      71 | 0x024D      |         589 |
|      72 | 0xFFFFB3B5  |  4294947765 |
|      73 | 0x073B      |        1851 |
|      74 | 0x12E29     |       77353 |
|      75 | 0xFFFFB3E5  |  4294947813 |
|      76 | 0xFFFFF42A  |  4294964266 |
|      77 | 0xFFFFD8F1  |  4294957297 |
|      78 | 0x08A4      |        2212 |
|      79 | 0xFFFF9F7F  |  4294942591 |
|      80 | 0xFFFFF849  |  4294965321 |
|      81 | 0xF3CC      |       62412 |
|      82 | 0x0C53      |        3155 |
|      83 | 0xFFFFC951  |  4294953297 |
|      84 | 0xF953      |       63827 |
|      85 | 0x0DA7      |        3495 |
|      86 | 0xFFFFCBA3  |  4294953891 |
|      87 | 0xFFFFFE1D  |  4294966813 |
|      88 | 0x1888F     |      100495 |
|      89 | 0xFFFFF8FA  |  4294965498 |
|      90 | 0x0BE1      |        3041 |
|      91 | 0x1905F     |      102495 |
|      92 | 0x18BBA     |      101306 |
|      93 | 0xFFFFFB1F  |  4294966047 |
|      94 | 0xFFFFCF67  |  4294954855 |
|      95 | 0x0A9E      |        2718 |
|      96 | 0x0414      |        1044 |
|      97 | 0x2350      |        9040 |
|      98 | 0x0002      |           2 |
|      99 | 0x2351      |        9041 |
|     100 | 0x0001      |           1 |
|     101 | 0x0045      |          69 |
|     102 | 0x2352      |        9042 |
|     103 | 0x2353      |        9043 |
|     104 | 0x2354      |        9044 |
|     105 | 0x2355      |        9045 |
|     106 | 0x2356      |        9046 |
|     107 | 0xFFFFCE65  |  4294954597 |
|     108 | 0x008D      |         141 |
|     109 | 0x2527      |        9511 |
|     110 | 0x2528      |        9512 |
|     111 | 0x2529      |        9513 |
|     112 | 0x0070      |         112 |
|     113 | 0x252E      |        9518 |
|     114 | 0x252F      |        9519 |
|     115 | 0x2530      |        9520 |
|     116 | 0x000F      |          15 |
|     117 | 0x2541      |        9537 |
|     118 | 0x2542      |        9538 |
|     119 | 0x2543      |        9539 |
|     120 | 0x2544      |        9540 |
|     121 | 0x2545      |        9541 |
|     122 | 0x2546      |        9542 |
|     123 | 0x257F      |        9599 |
|     124 | 0x2580      |        9600 |
|     125 | 0x25A6      |        9638 |
|     126 | 0x25A7      |        9639 |
|     127 | 0x25A8      |        9640 |
|     128 | 0x25B6      |        9654 |
|     129 | 0x25C5      |        9669 |
|     130 | 0x25C6      |        9670 |
|     131 | 0x25C7      |        9671 |
|     132 | 0x25AB      |        9643 |
|     133 | 0x25B5      |        9653 |
|     134 | 0x25AE      |        9646 |
|     135 | 0x25B4      |        9652 |
|     136 | 0x00A1      |         161 |
|     137 | 0x26B5      |        9909 |
|     138 | 0x26B6      |        9910 |
|     139 | 0xFFFFCE66  |  4294954598 |
|     140 | 0x078A      |        1930 |
|     141 | 0x10F8F     |       69519 |
|     142 | 0xFFFFEC79  |  4294962297 |
|     143 | 0x0C08      |        3080 |
|     144 | 0x1273D     |       75581 |
|     145 | 0x00C7      |         199 |
|     146 | 0xFFFFB9BA  |  4294949306 |
|     147 | 0xFFFFF4CF  |  4294964431 |
|     148 | 0xFFFFD8F0  |  4294957296 |
|     149 | 0x09EE      |        2542 |
|     150 | 0xFFFFB01F  |  4294946847 |
|     151 | 0xFFFFFB74  |  4294966132 |
|     152 | 0xFFFFADC7  |  4294946247 |
|     153 | 0xFFFFFDCC  |  4294966732 |
|     154 | 0xFFFFC8FB  |  4294953211 |
|     155 | 0x05BF      |        1471 |
|     156 | 0xFFFFC457  |  4294952023 |
|     157 | 0x0394      |         916 |
|     158 | 0xFFFFCE81  |  4294954625 |
|     159 | 0xFFFFFD4E  |  4294966606 |
|     160 | 0xFFFFACFA  |  4294946042 |
|     161 | 0xFFFFF8DA  |  4294965466 |
|     162 | 0x090E      |        2318 |
|     163 | 0xFFFFA3A3  |  4294943651 |
|     164 | 0xFFFFF9DD  |  4294965725 |
|     165 | 0xFFFF9D2C  |  4294941996 |
|     166 | 0xFFFFF835  |  4294965301 |
|     167 | 0xFFFFC926  |  4294953254 |
|     168 | 0x02F9      |         761 |
|     169 | 0x0628      |        1576 |
|     170 | 0xFFFFC333  |  4294951731 |
|     171 | 0x02AA      |         682 |
|     172 | 0xFFFFAAA9  |  4294945449 |
|     173 | 0xFFFFFA7B  |  4294965883 |
|     174 | 0x07D0      |        2000 |
|     175 | 0xFFFFA8B5  |  4294944949 |
|     176 | 0xFFFFA22E  |  4294943278 |
|     177 | 0xFFFFFE5F  |  4294966879 |
|     178 | 0xFFFF978D  |  4294940557 |
|     179 | 0xFFFFF9C1  |  4294965697 |
|     180 | 0x082A      |        2090 |
|     181 | 0xFFFF7745  |  4294932293 |
|     182 | 0xFFFFFA5C  |  4294965852 |
|     183 | 0xFFFF83A3  |  4294935459 |
|     184 | 0xFFFFFA6B  |  4294965867 |
|     185 | 0xFFFF9255  |  4294939221 |
|     186 | 0xFFFFFC07  |  4294966279 |
|     187 | 0xFFFF9C19  |  4294941721 |
|     188 | 0xFFFFFC6B  |  4294966379 |
|     189 | 0xFFFFA367  |  4294943591 |
|     190 | 0xFFFFFC21  |  4294966305 |
|     191 | 0x07C4      |        1988 |
|     192 | 0xFFFF9F14  |  4294942484 |
|     193 | 0xFFFFFC35  |  4294966325 |
|     194 | 0x0104      |         260 |
|     195 | 0xFFFFA441  |  4294943809 |
|     196 | 0xFFFFFAAD  |  4294965933 |
|     197 | 0xFFFFA83E  |  4294944830 |
|     198 | 0xFFFFF644  |  4294964804 |
|     199 | 0x0D1C      |        3356 |
|     200 | 0xFFFF9CC0  |  4294941888 |
|     201 | 0xFFFFF728  |  4294965032 |
|     202 | 0x15BC1     |       89025 |
|     203 | 0x1E4B      |        7755 |
|     204 | 0x0DDA      |        3546 |
|     205 | 0x170DC     |       94428 |
|     206 | 0x2A1F      |       10783 |
|     207 | 0xFFFFB127  |  4294947111 |
|     208 | 0xFFFFB7CA  |  4294948810 |
|     209 | 0xFFFFF42D  |  4294964269 |
|     210 | 0x09AE      |        2478 |
|     211 | 0xFFFFAE5C  |  4294946396 |
|     212 | 0xFFFFFA91  |  4294965905 |
|     213 | 0x0064      |         100 |
|     214 | 0xFFFFCFF6  |  4294954998 |
|     215 | 0x05C2      |        1474 |
|     216 | 0x2762      |       10082 |
|     217 | 0x2763      |       10083 |
|     218 | 0x2764      |       10084 |
|     219 | 0x277C      |       10108 |
|     220 | 0x277D      |       10109 |
|     221 | 0x2784      |       10116 |
|     222 | 0x2783      |       10115 |
|     223 | 0x2794      |       10132 |
|     224 | 0xFFFFC711  |  4294952721 |
|     225 | 0x0915      |        2325 |
|     226 | 0x1EBC4     |      125892 |
|     227 | 0xFFFEDA42  |  4294892098 |
|     228 | 0x2133      |        8499 |
|     229 | 0x0270      |         624 |
|     230 | 0xFFFFC90C  |  4294953228 |
|     231 | 0x06EE      |        1774 |
|     232 | 0xFFFFC6D2  |  4294952658 |
|     233 | 0xFFFFFD62  |  4294966626 |
|     234 | 0xFFFFC3D7  |  4294951895 |
|     235 | 0xFFFFF350  |  4294964048 |
|     236 | 0x1F761     |      128865 |
|     237 | 0xFFFECBB9  |  4294888377 |
|     238 | 0x2134      |        8500 |
|     239 | 0x0211      |         529 |
|     240 | 0x2004A     |      131146 |
|     241 | 0xFFFEC0A2  |  4294885538 |
|     242 | 0x238D      |        9101 |
|     243 | 0xFFFFACB9  |  4294945977 |
|     244 | 0x2E04      |       11780 |
|     245 | 0xFFFFF31C  |  4294963996 |
|     246 | 0x0BFB      |        3067 |
|     247 | 0x000B      |          11 |
|     248 | 0xFFFF8E18  |  4294938136 |
|     249 | 0x2F22      |       12066 |
|     250 | 0x001B      |          27 |
|     251 | 0xFFFFD307  |  4294955783 |
|     252 | 0xFFFFF3D0  |  4294964176 |
|     253 | 0xFFFFD515  |  4294956309 |
|     254 | 0x027C      |         636 |
|     255 | 0x005A      |          90 |
|     256 | 0x1D7D      |        7549 |
|     257 | 0x1CD4      |        7380 |
|     258 | 0x1CD5      |        7381 |
|     259 | 0x0096      |         150 |
|     260 | 0x08DE      |        2270 |
|     261 | 0x1CD6      |        7382 |
|     262 | 0x1CD7      |        7383 |
|     263 | 0x1CD8      |        7384 |
|     264 | 0x00B4      |         180 |
|     265 | 0x1CD9      |        7385 |
|     266 | 0x1CDA      |        7386 |
|     267 | 0x1CDB      |        7387 |
|     268 | 0x1CDC      |        7388 |
|     269 | 0x1CDD      |        7389 |
|     270 | 0x1CDE      |        7390 |
|     271 | 0x1CDF      |        7391 |
|     272 | 0x1CE0      |        7392 |
|     273 | 0x1D83      |        7555 |
|     274 | 0x1CE1      |        7393 |
|     275 | 0x1CE2      |        7394 |
|     276 | 0x1CE3      |        7395 |
|     277 | 0x1CE4      |        7396 |
|     278 | 0x1CE5      |        7397 |
|     279 | 0x1CE6      |        7398 |
|     280 | 0x1CE7      |        7399 |
|     281 | 0x1CE8      |        7400 |
|     282 | 0x1CE9      |        7401 |
|     283 | 0x1CEA      |        7402 |
|     284 | 0x1CEB      |        7403 |
|     285 | 0x1CEC      |        7404 |
|     286 | 0x0013      |          19 |
|     287 | 0xFFFF6D84  |  4294929796 |
|     288 | 0xFFFFF98E  |  4294965646 |
|     289 | 0x0282      |         642 |
|     290 | 0x0168      |         360 |
|     291 | 0x1CED      |        7405 |
|     292 | 0x1CEE      |        7406 |
|     293 | 0x003E      |          62 |
|     294 | 0x007B      |         123 |
|     295 | 0xFFFFCACE  |  4294953678 |
|     296 | 0x06B4      |        1716 |
|     297 | 0x1CEF      |        7407 |
|     298 | 0xFFFFC430  |  4294951984 |
|     299 | 0x01E7      |         487 |
|     300 | 0x007F      |         127 |
|     301 | 0x0004      |           4 |
|     302 | 0x0005      |           5 |
|     303 | 0x0007      |           7 |
|     304 | 0x0087      |         135 |
|     305 | 0x1CF0      |        7408 |
|     306 | 0x0028      |          40 |
|     307 | 0x1CF1      |        7409 |
|     308 | 0x1CF2      |        7410 |
|     309 | 0x1CF3      |        7411 |
|     310 | 0x0015      |          21 |
|     311 | 0x1CF4      |        7412 |
|     312 | 0x1CF5      |        7413 |
|     313 | 0x1CF6      |        7414 |
|     314 | 0xFFFFFE81  |  4294966913 |
|     315 | 0x0012      |          18 |
|     316 | 0x1CF7      |        7415 |
|     317 | 0x0190      |         400 |
|     318 | 0x0041      |          65 |
|     319 | 0x1CF8      |        7416 |
|     320 | 0x09C9      |        2505 |
|     321 | 0x1CF9      |        7417 |
|     322 | 0x009A      |         154 |

## String References

- **7380**: Of course I'm Cid. Who's asking? You certainly don't look like one of the adventurers I sent out on a mission...
- **7381**: Oh? A memo for me?
- **7382**: You hand over the $3.
- **7383**: It's from...Midras. Of course, Junior!
- **7384**: Let me get a look at that.
- **7385**: What's that fool prattling on about now? Always a bit big for his britches.
- **7386**: Hey, Raibaht! Bring me some of that 28-4.
- **7387**: Idiot. Lucky for him we have the waypoints now, or he'd be completely up the creek.
- **7388**: It was explosive powder you needed, yes? Sorry that my son made you come do his dirty work for him.
- **7389**: Speaking of which, if he sent you here that means you came all the way from Adoulin.
- **7390**: At least you didn't have to travel by boat. Those waypoints are innovation I can get behind. It's almost fearsome how much more advanced Adoulin is.
- **7391**: <Sigh> I've got a lot left to learn.
- **7392**: Raibaht, I've told you a thousand times--if you brought the thing, don't just stand there, say something!
- **7393**: You never change, do you? <Sigh> Anyway, back to Junior.
- **7394**: Here. This is what he's looking for.
- **7395**: Oh, before I forget--how is the boy, anyway? He say anything?
- **7397**: Quiet, you! Stop butting in and get back to work!
- **7399**: You say he's keeping himself busy helping Amchuchu with her crop research, eh?
- **7400**: That's good to hear! Energy and persistence conquer all things.
- **7401**: Huh? Do I have any message for him?
- **7402**: Hmm...he seems to be doing well enough for himself. Words of encouragement from his old man would probably just embarrass him.
- **7403**: Come to think of it, if you run across Amchuchu, tell her thanks for looking after my boy.
- **7404**: Well, don't let me keep you any longer. Junior's waiting.
- **7406**: Who is it now!?
- **7407**: <Player>! I'm in no mood for lollygagging, so out with it!
- **7408**: A letter from Amchuchu?
- **7409**: I don't even have to open the damn thing to know what it's about. I've heard all about my good-for-nothing son!
- **7410**: He's dead to me now!
- **7411**: I've expelled him from my tutelage!
- **7412**: Tell your precious Amchuchu that there's no need to look after that fool any longer.
- **7413**: Chew on that!
- **7414**: Now get the hell outta here!
- **7417**: You hand over the $3.
- **7522**: I'm sorry, kid, I'm a little busy right now. Come back later, hear?
- **7523**: Ah, it's you. You remember what I asked you to do, right?
- **7549**: Yeah, what do you want? I'm a little busy right now.
- **7578**: Ah, you've been assigned to investigate the $7?
- **7579**: There are many strange phenomena associated with that place, as you've heard.
- **7580**: I've scanned that area and I've found there is a strong crystal resonance on a straight line between that structure and Jeuno.
- **7581**: For now, I'm calling it the "Crystal Line"...
- **7582**: Never mind, you're getting that blank expression on your face again. I'll skip the details.
- **7583**: There are three places near the structure where you can get $7. They're shining, raised platforms called "Telepoints."
- **7584**: Place a crystal on a Telepoint, and the crystal will be drained of its power. Do that, and bring back the faded crystal to me.
- **7585**: Oh, one more thing. To put the crystal on a Telepoint, use "Trade."
- **7586**: Good, you've brought back $7. As I thought, its pattern of deterioration is almost identical to the one found in Beadeaux...
- **7587**: <Sigh> I just don't know what to make of all the strange occurrences that have been happening lately...
- **7588**: I wonder if this has anything to do with the shattered Telepoint we discovered recently...
- **7589**: I wonder if this has anything to do with the shattered Telepoints...
- **7590**: Hm? Oh, sorry. Just talking to myself. Good job. You can...wait, can I ask you to do something else for me?
- **7591**: Do you remember Volker? He came here when you were reporting the results of your first mission to me.
- **7592**: It would be best if you could deliver this to him personally, but he's a busy man and hard to find.
- **7593**: Give it to one of his Mythril Musketeers instead. Ayame and Naji should be on guard near the President's Office. Either one will do.
- **7912**: I've heard good things about you. It seems you're quite the adventurer now. I have a job for you.
- **7913**: It's...well, it's not a mission, or anything official. Just a personal favor.
- **7914**: There's a tavern in the Port District called the Steaming Sheep Restaurant. I want you to go see if the matron there needs any help.
- **7915**: And if she does, could you try to help her? Of course, I will reward you for your services.
- **7916**: $7, huh? I think a certain crawler in the Crawlers' Nest drops them. Of course, you'll have to lure it out and defeat it first.
- **7917**: And to lure it out, you'll need to use $6.
- **7918**: A letter?
- **7919**: ...
- **7920**: I-I see. Ms. Hilda said that, huh? But I didn't mean to--no, never mind. You've done what I asked. I'll give you a reward.
- **7921**: But please, don't tell anyone about this. Especially not Raibaht.
- **7923**: Gah! Don't waste time talking! Get back to work!
- **9040**: What's wrong? My weapon didn't backfire on you, did it?
- **9041**: Why are you here? [No particular reason./I've lost the gun.../I've had enough...]
- **9042**: What do you mean, "lost it"? You know that guns are for shooting, not for throwing, right? Oh well. Take this as a replacement, but be more careful next time!
- **9043**: What are you talking about? We were just starting to get somewhere!
- **9044**: You don't really want to quit, do you? [Yes, I do./No, not really.]
- **9045**: Give up? Hey, it's not like I'm asking you to save the world or anything. <Sigh> Well, I can't force you to do anything you don't want to... But you get rid of the gun yourself, all right?
- **9046**: Wait a minute, this baby still has a few more rounds in her. Take her back to the battlefield and do some more damage, <Player>.
- **9511**: Bahamut... Tavnazia...
- **9512**: My ears still doubt the conversation I just heard. Could it all be true?
- **9513**: I guess the only way to find out would be to tag along with that Prishe a little while longer. She said she was going to Jeuno to meet a friend... Who do you suppose she knows in the Duchy?
- **9518**: What, you want to hear about the Multinational Expedition?
- **9519**: What is there to know? Everybody that went on that damned mission passed away or was...
- **9520**: I usually don't believe in anything crazy like magic or curses, but after hearing the stories about what happened up there in the Northlands, I don't think there may be any other explanation.
- **9537**: So you have a piece of the magicite as well...
- **9538**: It looks similar to the one I saw before, but I don't feel the same kind of power flowing from it.
- **9539**: No, the one I saw was pitch-black and so powerful that you could feel its energy from over twenty yalms away.
- **9540**: The Multinational Expedition held thirty years ago all started when a shard of the fabled "Star of Tavnazia" was brought to the Republic.
- **9541**: It was rumored that the gem was originally found in the Northlands, and that is why the party headed there first.
- **9542**: If you ask one of your Tavnazian friends about the star, you might be able to learn something interesting.
- **9599**: This "baptismal vessel..." Now, if I could get my hands on that, just think of the advancements the Republic could make...
- **9600**: <Player>! You need to hurry to the northwestern tower of Pso'Xja. I'll stay here and keep trying to find out more on the magicite. I've still got a few cards up my sleeve.
- **9638**: So what are you going to do, <Player>?
- **9639**: I'm going to... [Investigate Al'Taieu./Find Selh'teus./Find Prishe.]
- **9640**: Louverance...
- **9643**: Tenzen...
- **9646**: Ulmia...
- **9652**: She said that she was heading for San d'Oria.
- **9653**: He said something about going to ask the assistance of Carbuncle.
- **9654**: He said that he was heading back to Tavnazia.
- **9669**: One hundred years living with the beastmen... That Galka has to be either extremely brave or extremely crazy to attempt a feat like that.
- **9670**: But wait a minute... All that time together with the Moblins would mean that he would know all their secrets... And that's probably why the little guys came to Bastok to take him back to their city!
- **9671**: <Player>. You need to hurry back to Movalpolos and help Louverance find Jabbos!
- **9909**: My bird's repairs are going smoother than I could have ever imagined. With all the confusion in Jeuno, nobody has the time to complain about an unauthorized test run every now and then! Hah hah hah!
- **9910**: Yeah, but to tell you the truth, I'm sure glad I got to meet up with Prishe again. She's one hell of a girl. I wouldn't be surprised if she saved Vana'diel with her own two hands!
- **10082**: Ah, another set of chips. Thank you, <Player>.
- **10083**: But this means...you had to use the pump...
- **10084**: No, maybe it's better that I not know... I'll just keep fighting my battles; you keep fighting yours.
- **10108**: <Player>. Find that shed on the Misareaux Coast and get your hands on that box.
- **10109**: Oh, and don't forget to bring back Louverance from Carpenters' Landing, and Shikaree Z from Bibiki Bay.
- **10115**: The [/Ultra /Hyper /Psycho /Eternal /Neo /Lovely /Pretty /Final /Extra /Deadly /Savage /Aero /Pseudo /Universal /Exciting /Celestial /Super /Mighty /Mega /Omni /Poly ][/Terror /Perfect /Royale /Gorgeous /Pretty /Hell /Fantasy /Stealth /Powerful /Invincible /Explosive /Storm /Fantastic /Duper /Go-Go /Morphing /Retro /Sonic /Cloud /Sky /Stellar ][/Hyper /Neo /Lovely /Happy /Caller /Hound /XI /Armored /Brutal /Buster /Alpha /Chief /Provoker /Mincer /Streak /King /Prince /Power /Robo /Delver /Mystic ][C.I.D./Enterprise/Nautilus/Gilgamemnon/Redwing/Blackjack/Falcon/Highwind/Ragnarok/Hilda Garde/Prima Vista/Red Rose/Fahrenheit] is depending on you!
- **10116**: Could you bring back Louverance from Carpenters' Landing, and Shikaree Z from Bibiki Bay?
- **10132**: I'm a little busy right now, <Player>. Did you deliver those letters yet? You'd better be off for Tavnazia.

## Events

### Event 65535

#### Metadata

| Field        | Value   |
|--------------|---------|
| Entrypoint   | 0x0000  |
| Data Size    | 1 bytes |
| Instructions | 1       |

```
      00 01 02 03 04 05 06 07  08 09 0A 0B 0C 0D 0E 0F
      -- -- -- -- -- -- -- --  -- -- -- -- -- -- -- --
0000: 00                                                .               
```

#### Opcodes

```
  0: 0x0000 [0x00] END_REQSTACK()
```

### Event 503

#### Metadata

| Field        | Value    |
|--------------|----------|
| Entrypoint   | 0x0001   |
| Data Size    | 15 bytes |
| Instructions | 3        |

```
      00 01 02 03 04 05 06 07  08 09 0A 0B 0C 0D 0E 0F
      -- -- -- -- -- -- -- --  -- -- -- -- -- -- -- --
0000:    5E 69 64 6C 30 37 00  80 01 80 02 80 03 80 00   ^idl07.........
```

#### Opcodes

```
  0: 0x0001 [0x5E] EventEntity goes idle (kills current action) (animation: "idl0")
  1: 0x0006 [0x37] UPDATE_EVENT_POSITION_AND_DIR: x=-12.598*, z=2.430*, y=-10.988*, direction=261.3°*
  2: 0x000F [0x00] END_REQSTACK()
```

### Event 504

#### Metadata

| Field        | Value    |
|--------------|----------|
| Entrypoint   | 0x0010   |
| Data Size    | 15 bytes |
| Instructions | 3        |

```
      00 01 02 03 04 05 06 07  08 09 0A 0B 0C 0D 0E 0F
      -- -- -- -- -- -- -- --  -- -- -- -- -- -- -- --
0010: 5E 69 64 6C 30 37 00 80  01 80 02 80 03 80 00     ^idl07......... 
```

#### Opcodes

```
  0: 0x0010 [0x5E] EventEntity goes idle (kills current action) (animation: "idl0")
  1: 0x0015 [0x37] UPDATE_EVENT_POSITION_AND_DIR: x=-12.598*, z=2.430*, y=-10.988*, direction=261.3°*
  2: 0x001E [0x00] END_REQSTACK()
```

### Event 505

#### Metadata

| Field        | Value     |
|--------------|-----------|
| Entrypoint   | 0x001F    |
| Data Size    | 109 bytes |
| Instructions | 25        |

```
      00 01 02 03 04 05 06 07  08 09 0A 0B 0C 0D 0E 0F
      -- -- -- -- -- -- -- --  -- -- -- -- -- -- -- --
0010:                                               03                 .
0020: 09 10 04 80 5E 69 64 6C  30 1E F0 FF FF 7F 1D 05  ....^idl0.......
0030: 80 23 5B 06 80 2B D0 0E  01 2B D0 0E 01 74 68 6B  .#[..+...+...thk
0040: 31 1D 07 80 23 1D 08 80  23 1D 09 80 23 5B 06 80  1...#...#...#[..
0050: 2B D0 0E 01 2B D0 0E 01  74 68 6B 32 1D 0A 80 23  +...+...thk2...#
0060: 5B 06 80 2B D0 0E 01 2B  D0 0E 01 74 6C 6B 30 1D  [..+...+...tlk0.
0070: 0B 80 23 1D 0C 80 23 5B  06 80 2B D0 0E 01 2B D0  ..#...#[..+...+.
0080: 0E 01 74 6C 6B 31 1D 0D  80 23 21 00              ..tlk1...#!.    
```

#### Opcodes

```
  0: 0x001F [0x03] Work_Zone[9] = 613*
  1: 0x0024 [0x5E] EventEntity goes idle (kills current action) (animation: "idl0")
  2: 0x0029 [0x1E] EventEntity looks at LocalPlayer and starts talking
  3: 0x002E [0x1D] PRINT_EVENT_MESSAGE(message_id=7578*)
    → "Ah, you've been assigned to investigate the $7?"
  4: 0x0031 [0x23] WAIT_FOR_DIALOG_INTERACTION
  5: 0x0032 [0x5B] LOAD_EXT_SCHEDULER: Load scheduler "thk1" with entities [Cid (ID: 17748011/0x010ED02B), Cid (ID: 17748011/0x010ED02B)], work=110*
  6: 0x0041 [0x1D] PRINT_EVENT_MESSAGE(message_id=7579*)
    → "There are many strange phenomena associated with that place, as you've heard."
  7: 0x0044 [0x23] WAIT_FOR_DIALOG_INTERACTION
  8: 0x0045 [0x1D] PRINT_EVENT_MESSAGE(message_id=7580*)
    → "I've scanned that area and I've found there is a strong crystal resonance on a straight line between that structure and Jeuno."
  9: 0x0048 [0x23] WAIT_FOR_DIALOG_INTERACTION
 10: 0x0049 [0x1D] PRINT_EVENT_MESSAGE(message_id=7581*)
    → "For now, I'm calling it the "Crystal Line"..."
 11: 0x004C [0x23] WAIT_FOR_DIALOG_INTERACTION
 12: 0x004D [0x5B] LOAD_EXT_SCHEDULER: Load scheduler "thk2" with entities [Cid (ID: 17748011/0x010ED02B), Cid (ID: 17748011/0x010ED02B)], work=110*
 13: 0x005C [0x1D] PRINT_EVENT_MESSAGE(message_id=7582*)
    → "Never mind, you're getting that blank expression on your face again. I'll skip the details."
 14: 0x005F [0x23] WAIT_FOR_DIALOG_INTERACTION
 15: 0x0060 [0x5B] LOAD_EXT_SCHEDULER: Load scheduler "tlk0" with entities [Cid (ID: 17748011/0x010ED02B), Cid (ID: 17748011/0x010ED02B)], work=110*
 16: 0x006F [0x1D] PRINT_EVENT_MESSAGE(message_id=7583*)
    → "There are three places near the structure where you can get $7. They're shining, raised platforms called "Telepoints.""
 17: 0x0072 [0x23] WAIT_FOR_DIALOG_INTERACTION
 18: 0x0073 [0x1D] PRINT_EVENT_MESSAGE(message_id=7584*)
    → "Place a crystal on a Telepoint, and the crystal will be drained of its power. Do that, and bring back the faded crystal to me."
 19: 0x0076 [0x23] WAIT_FOR_DIALOG_INTERACTION
 20: 0x0077 [0x5B] LOAD_EXT_SCHEDULER: Load scheduler "tlk1" with entities [Cid (ID: 17748011/0x010ED02B), Cid (ID: 17748011/0x010ED02B)], work=110*
 21: 0x0086 [0x1D] PRINT_EVENT_MESSAGE(message_id=7585*)
    → "Oh, one more thing. To put the crystal on a Telepoint, use "Trade.""
 22: 0x0089 [0x23] WAIT_FOR_DIALOG_INTERACTION
 23: 0x008A [0x21] END_EVENT
 24: 0x008B [0x00] END_REQSTACK()
```

### Event 506

#### Metadata

| Field        | Value     |
|--------------|-----------|
| Entrypoint   | 0x008C    |
| Data Size    | 153 bytes |
| Instructions | 33        |

```
      00 01 02 03 04 05 06 07  08 09 0A 0B 0C 0D 0E 0F
      -- -- -- -- -- -- -- --  -- -- -- -- -- -- -- --
0080:                                      20 01 42 5E               .B^
0090: 69 64 6C 30 03 09 10 04  80 1E F0 FF FF 7F 6F 70  idl0..........op
00A0: 5B 06 80 2B D0 0E 01 2B  D0 0E 01 74 68 6B 31 1D  [..+...+...thk1.
00B0: 0E 80 23 1D 0F 80 23 53  2B D0 0E 01 2B D0 0E 01  ..#...#S+...+...
00C0: 74 68 6B 31 5B 06 80 2B  D0 0E 01 2B D0 0E 01 74  thk1[..+...+...t
00D0: 68 6B 32 02 02 10 10 80  00 E2 00 1D 11 80 23 01  hk2...........#.
00E0: E6 00 1D 12 80 23 5B 06  80 2B D0 0E 01 2B D0 0E  .....#[..+...+..
00F0: 01 74 6C 6B 30 1D 13 80  23 1D 14 80 23 5B 06 80  .tlk0...#...#[..
0100: 2B D0 0E 01 2B D0 0E 01  74 6C 6B 31 1D 15 80 23  +...+...tlk1...#
0110: 5B 06 80 2B D0 0E 01 2B  D0 0E 01 70 61 73 30 1D  [..+...+...pas0.
0120: 16 80 23 21 00                                    ..#!.           
```

#### Opcodes

```
  0: 0x008C [0x20] SET_CLI_EVENT_UC_FLAG: Lock player control
  1: 0x008E [0x42] SET_CLI_EVENT_CANCEL_DATA()
  2: 0x008F [0x5E] EventEntity goes idle (kills current action) (animation: "idl0")
  3: 0x0094 [0x03] Work_Zone[9] = 613*
  4: 0x0099 [0x1E] EventEntity looks at LocalPlayer and starts talking
  5: 0x009E [0x6F] WAIT_FRAME_DELAY: Yield until WaitTime reaches zero
  6: 0x009F [0x70] WAIT_ENTITY_RENDER_FLAG: Wait while EventEntity->Render.Flags3 bit 2 is set (cancel turn if not)
  7: 0x00A0 [0x5B] LOAD_EXT_SCHEDULER: Load scheduler "thk1" with entities [Cid (ID: 17748011/0x010ED02B), Cid (ID: 17748011/0x010ED02B)], work=110*
  8: 0x00AF [0x1D] PRINT_EVENT_MESSAGE(message_id=7586*)
    → "Good, you've brought back $7. As I thought, its pattern of deterioration is almost identical to the one found in Beadeaux..."
  9: 0x00B2 [0x23] WAIT_FOR_DIALOG_INTERACTION
 10: 0x00B3 [0x1D] PRINT_EVENT_MESSAGE(message_id=7587*)
    → "<Sigh> I just don't know what to make of all the strange occurrences that have been happening lately..."
 11: 0x00B6 [0x23] WAIT_FOR_DIALOG_INTERACTION
 12: 0x00B7 [0x53] WAIT_SCHEDULER_TASK: Wait for scheduler "thk1" with entities [Cid (ID: 17748011/0x010ED02B), Cid (ID: 17748011/0x010ED02B)]
 13: 0x00C4 [0x5B] LOAD_EXT_SCHEDULER: Load scheduler "thk2" with entities [Cid (ID: 17748011/0x010ED02B), Cid (ID: 17748011/0x010ED02B)], work=110*
 14: 0x00D3 [0x02] IF !(Work_Zone[2] == 0*) GOTO 0x00E2
 15: 0x00DB [0x1D] PRINT_EVENT_MESSAGE(message_id=7588*)
    → "I wonder if this has anything to do with the shattered Telepoint we discovered recently..."
 16: 0x00DE [0x23] WAIT_FOR_DIALOG_INTERACTION
 17: 0x00DF [0x01] GOTO 0x00E6
 18: 0x00E2 [0x1D] PRINT_EVENT_MESSAGE(message_id=7589*)
    → "I wonder if this has anything to do with the shattered Telepoints..."
 19: 0x00E5 [0x23] WAIT_FOR_DIALOG_INTERACTION

SUBROUTINE_00E6:
 20: 0x00E6 [0x5B] LOAD_EXT_SCHEDULER: Load scheduler "tlk0" with entities [Cid (ID: 17748011/0x010ED02B), Cid (ID: 17748011/0x010ED02B)], work=110*
 21: 0x00F5 [0x1D] PRINT_EVENT_MESSAGE(message_id=7590*)
    → "Hm? Oh, sorry. Just talking to myself. Good job. You can...wait, can I ask you to do something else for me?"
 22: 0x00F8 [0x23] WAIT_FOR_DIALOG_INTERACTION
 23: 0x00F9 [0x1D] PRINT_EVENT_MESSAGE(message_id=7591*)
    → "Do you remember Volker? He came here when you were reporting the results of your first mission to me."
 24: 0x00FC [0x23] WAIT_FOR_DIALOG_INTERACTION
 25: 0x00FD [0x5B] LOAD_EXT_SCHEDULER: Load scheduler "tlk1" with entities [Cid (ID: 17748011/0x010ED02B), Cid (ID: 17748011/0x010ED02B)], work=110*
 26: 0x010C [0x1D] PRINT_EVENT_MESSAGE(message_id=7592*)
    → "It would be best if you could deliver this to him personally, but he's a busy man and hard to find."
 27: 0x010F [0x23] WAIT_FOR_DIALOG_INTERACTION
 28: 0x0110 [0x5B] LOAD_EXT_SCHEDULER: Load scheduler "pas0" with entities [Cid (ID: 17748011/0x010ED02B), Cid (ID: 17748011/0x010ED02B)], work=110*
 29: 0x011F [0x1D] PRINT_EVENT_MESSAGE(message_id=7593*)
    → "Give it to one of his Mythril Musketeers instead. Ayame and Naji should be on guard near the President's Office. Either one will do."
 30: 0x0122 [0x23] WAIT_FOR_DIALOG_INTERACTION
 31: 0x0123 [0x21] END_EVENT
 32: 0x0124 [0x00] END_REQSTACK()
```

### Event 500

#### Metadata

| Field        | Value   |
|--------------|---------|
| Entrypoint   | 0x0125  |
| Data Size    | 6 bytes |
| Instructions | 4       |

```
      00 01 02 03 04 05 06 07  08 09 0A 0B 0C 0D 0E 0F
      -- -- -- -- -- -- -- --  -- -- -- -- -- -- -- --
0120:                1D 17 80  23 21 00                      ...#!.     
```

#### Opcodes

```
  0: 0x0125 [0x1D] PRINT_EVENT_MESSAGE(message_id=7522*)
    → "I'm sorry, kid, I'm a little busy right now. Come back later, hear?"
  1: 0x0128 [0x23] WAIT_FOR_DIALOG_INTERACTION
  2: 0x0129 [0x21] END_EVENT
  3: 0x012A [0x00] END_REQSTACK()
```

### Event 502

#### Metadata

| Field        | Value    |
|--------------|----------|
| Entrypoint   | 0x012B   |
| Data Size    | 19 bytes |
| Instructions | 7        |

```
      00 01 02 03 04 05 06 07  08 09 0A 0B 0C 0D 0E 0F
      -- -- -- -- -- -- -- --  -- -- -- -- -- -- -- --
0120:                                   5E 69 64 6C 30             ^idl0
0130: 1C 18 80 1E F0 FF FF 7F  1D 19 80 23 21 00        ...........#!.  
```

#### Opcodes

```
  0: 0x012B [0x5E] EventEntity goes idle (kills current action) (animation: "idl0")
  1: 0x0130 [0x1C] WAIT(10* ticks)
  2: 0x0133 [0x1E] EventEntity looks at LocalPlayer and starts talking
  3: 0x0138 [0x1D] PRINT_EVENT_MESSAGE(message_id=7523*)
    → "Ah, it's you. You remember what I asked you to do, right?"
  4: 0x013B [0x23] WAIT_FOR_DIALOG_INTERACTION
  5: 0x013C [0x21] END_EVENT
  6: 0x013D [0x00] END_REQSTACK()
```

### Event 65535.1

#### Metadata

| Field        | Value   |
|--------------|---------|
| Entrypoint   | 0x013E  |
| Data Size    | 6 bytes |
| Instructions | 2       |

```
      00 01 02 03 04 05 06 07  08 09 0A 0B 0C 0D 0E 0F
      -- -- -- -- -- -- -- --  -- -- -- -- -- -- -- --
0130:                                            5E 69                ^i
0140: 64 6C 30 00                                       dl0.            
```

#### Opcodes

```
  0: 0x013E [0x5E] EventEntity goes idle (kills current action) (animation: "idl0")
  1: 0x0143 [0x00] END_REQSTACK()
```

### Event 65535.2

#### Metadata

| Field        | Value    |
|--------------|----------|
| Entrypoint   | 0x0144   |
| Data Size    | 48 bytes |
| Instructions | 8        |

```
      00 01 02 03 04 05 06 07  08 09 0A 0B 0C 0D 0E 0F
      -- -- -- -- -- -- -- --  -- -- -- -- -- -- -- --
0140:             32 1A 80 1F  00 1B 80 1C 80 02 80 1F      2...........
0150: 01 39 1D 80 1C 18 80 5B  06 80 2B D0 0E 01 2B D0  .9.....[..+...+.
0160: 0E 01 73 69 6A 30 53 2B  D0 0E 01 2B D0 0E 01 73  ..sij0S+...+...s
0170: 69 6A 30 00                                       ij0.            
```

#### Opcodes

```
  0: 0x0144 [0x32] ExtData[1]->MainSpeed = 13* * 0.1
  1: 0x0147 [0x1F] MOVE_ENTITY: EventEntity moves to X=-15.633*, Z=0.303*, Y=-10.988*
  2: 0x014F [0x1F] MOVE_ENTITY: Update entity position (mode=1)
  3: 0x0151 [0x39] SET_ENTITY_DIRECTION(direction=10.4°*)
  4: 0x0154 [0x1C] WAIT(10* ticks)
  5: 0x0157 [0x5B] LOAD_EXT_SCHEDULER: Load scheduler "sij0" with entities [Cid (ID: 17748011/0x010ED02B), Cid (ID: 17748011/0x010ED02B)], work=110*
  6: 0x0166 [0x53] WAIT_SCHEDULER_TASK: Wait for scheduler "sij0" with entities [Cid (ID: 17748011/0x010ED02B), Cid (ID: 17748011/0x010ED02B)]
  7: 0x0173 [0x00] END_REQSTACK()
```

### Event 65535.3

#### Metadata

| Field        | Value    |
|--------------|----------|
| Entrypoint   | 0x0174   |
| Data Size    | 48 bytes |
| Instructions | 8        |

```
      00 01 02 03 04 05 06 07  08 09 0A 0B 0C 0D 0E 0F
      -- -- -- -- -- -- -- --  -- -- -- -- -- -- -- --
0170:             32 1A 80 7B  2B D0 0E 01 1F 00 1E 80      2..{+.......
0180: 1F 80 02 80 1F 01 6F 5B  06 80 2B D0 0E 01 2B D0  ......o[..+...+.
0190: 0E 01 74 68 6B 31 53 2B  D0 0E 01 2B D0 0E 01 74  ..thk1S+...+...t
01A0: 68 6B 31 00                                       hk1.            
```

#### Opcodes

```
  0: 0x0174 [0x32] ExtData[1]->MainSpeed = 13* * 0.1
  1: 0x0177 [0x7B] Cid (ID: 17748011/0x010ED02B) stops talking
  2: 0x017C [0x1F] MOVE_ENTITY: EventEntity moves to X=-10.761*, Z=1.288*, Y=-10.988*
  3: 0x0184 [0x1F] MOVE_ENTITY: Update entity position (mode=1)
  4: 0x0186 [0x6F] WAIT_FRAME_DELAY: Yield until WaitTime reaches zero
  5: 0x0187 [0x5B] LOAD_EXT_SCHEDULER: Load scheduler "thk1" with entities [Cid (ID: 17748011/0x010ED02B), Cid (ID: 17748011/0x010ED02B)], work=110*
  6: 0x0196 [0x53] WAIT_SCHEDULER_TASK: Wait for scheduler "thk1" with entities [Cid (ID: 17748011/0x010ED02B), Cid (ID: 17748011/0x010ED02B)]
  7: 0x01A3 [0x00] END_REQSTACK()
```

### Event 65535.4

#### Metadata

| Field        | Value    |
|--------------|----------|
| Entrypoint   | 0x01A4   |
| Data Size    | 33 bytes |
| Instructions | 7        |

```
      00 01 02 03 04 05 06 07  08 09 0A 0B 0C 0D 0E 0F
      -- -- -- -- -- -- -- --  -- -- -- -- -- -- -- --
01A0:             32 1A 80 1F  00 20 80 21 80 02 80 1F      2.... .!....
01B0: 01 6F 5B 06 80 2B D0 0E  01 2B D0 0E 01 6B 6E 67  .o[..+...+...kng
01C0: 30 1C 22 80 00                                    0."..           
```

#### Opcodes

```
  0: 0x01A4 [0x32] ExtData[1]->MainSpeed = 13* * 0.1
  1: 0x01A7 [0x1F] MOVE_ENTITY: EventEntity moves to X=-12.161*, Z=-1.289*, Y=-10.988*
  2: 0x01AF [0x1F] MOVE_ENTITY: Update entity position (mode=1)
  3: 0x01B1 [0x6F] WAIT_FRAME_DELAY: Yield until WaitTime reaches zero
  4: 0x01B2 [0x5B] LOAD_EXT_SCHEDULER: Load scheduler "kng0" with entities [Cid (ID: 17748011/0x010ED02B), Cid (ID: 17748011/0x010ED02B)], work=110*
  5: 0x01C1 [0x1C] WAIT(120* ticks)
  6: 0x01C4 [0x00] END_REQSTACK()
```

### Event 720

#### Metadata

| Field        | Value    |
|--------------|----------|
| Entrypoint   | 0x01C5   |
| Data Size    | 30 bytes |
| Instructions | 4        |

```
      00 01 02 03 04 05 06 07  08 09 0A 0B 0C 0D 0E 0F
      -- -- -- -- -- -- -- --  -- -- -- -- -- -- -- --
01C0:                37 23 80  24 80 25 80 26 80 5E 69       7#.$.%.&.^i
01D0: 64 6C 30 5B 06 80 2B D0  0E 01 2B D0 0E 01 74 68  dl0[..+...+...th
01E0: 6B 31 00                                          k1.             
```

#### Opcodes

```
  0: 0x01C5 [0x37] UPDATE_EVENT_POSITION_AND_DIR: x=99.101*, z=2.691*, y=-20.170*, direction=341.2°*
  1: 0x01CE [0x5E] EventEntity goes idle (kills current action) (animation: "idl0")
  2: 0x01D3 [0x5B] LOAD_EXT_SCHEDULER: Load scheduler "thk1" with entities [Cid (ID: 17748011/0x010ED02B), Cid (ID: 17748011/0x010ED02B)], work=110*
  3: 0x01E2 [0x00] END_REQSTACK()
```

### Event 65535.5

#### Metadata

| Field        | Value    |
|--------------|----------|
| Entrypoint   | 0x01E3   |
| Data Size    | 28 bytes |
| Instructions | 6        |

```
      00 01 02 03 04 05 06 07  08 09 0A 0B 0C 0D 0E 0F
      -- -- -- -- -- -- -- --  -- -- -- -- -- -- -- --
01E0:          32 1A 80 1F 00  27 80 28 80 25 80 1F 01     2....'.(.%...
01F0: 1E 32 D0 0E 01 4A 32 D0  0E 01 2B D0 0E 01 00     .2...J2...+.... 
```

#### Opcodes

```
  0: 0x01E3 [0x32] ExtData[1]->MainSpeed = 13* * 0.1
  1: 0x01E6 [0x1F] MOVE_ENTITY: EventEntity moves to X=100.297*, Z=2.459*, Y=-20.170*
  2: 0x01EE [0x1F] MOVE_ENTITY: Update entity position (mode=1)
  3: 0x01F0 [0x1E] EventEntity looks at Cornelia (ID: 17748018/0x010ED032) and starts talking
  4: 0x01F5 [0x4A] Cornelia (ID: 17748018/0x010ED032) looks at Cid (ID: 17748011/0x010ED02B)
  5: 0x01FE [0x00] END_REQSTACK()
```

### Event 507

#### Metadata

| Field        | Value    |
|--------------|----------|
| Entrypoint   | 0x01FF   |
| Data Size    | 58 bytes |
| Instructions | 14       |

```
      00 01 02 03 04 05 06 07  08 09 0A 0B 0C 0D 0E 0F
      -- -- -- -- -- -- -- --  -- -- -- -- -- -- -- --
01F0:                                               5E                 ^
0200: 69 64 6C 30 1E F0 FF FF  7F 1D 29 80 23 5B 2A 80  idl0......).#[*.
0210: 2B D0 0E 01 2B D0 0E 01  74 65 72 30 1D 2B 80 23  +...+...ter0.+.#
0220: 1D 2C 80 23 5B 2A 80 2B  D0 0E 01 2B D0 0E 01 74  .,.#[*.+...+...t
0230: 65 72 31 1D 2D 80 23 21  00                       er1.-.#!.       
```

#### Opcodes

```
  0: 0x01FF [0x5E] EventEntity goes idle (kills current action) (animation: "idl0")
  1: 0x0204 [0x1E] EventEntity looks at LocalPlayer and starts talking
  2: 0x0209 [0x1D] PRINT_EVENT_MESSAGE(message_id=7912*)
    → "I've heard good things about you. It seems you're quite the adventurer now. I have a job for you."
  3: 0x020C [0x23] WAIT_FOR_DIALOG_INTERACTION
  4: 0x020D [0x5B] LOAD_EXT_SCHEDULER: Load scheduler "ter0" with entities [Cid (ID: 17748011/0x010ED02B), Cid (ID: 17748011/0x010ED02B)], work=111*
  5: 0x021C [0x1D] PRINT_EVENT_MESSAGE(message_id=7913*)
    → "It's...well, it's not a mission, or anything official. Just a personal favor."
  6: 0x021F [0x23] WAIT_FOR_DIALOG_INTERACTION
  7: 0x0220 [0x1D] PRINT_EVENT_MESSAGE(message_id=7914*)
    → "There's a tavern in the Port District called the Steaming Sheep Restaurant. I want you to go see if the matron there needs any help."
  8: 0x0223 [0x23] WAIT_FOR_DIALOG_INTERACTION
  9: 0x0224 [0x5B] LOAD_EXT_SCHEDULER: Load scheduler "ter1" with entities [Cid (ID: 17748011/0x010ED02B), Cid (ID: 17748011/0x010ED02B)], work=111*
 10: 0x0233 [0x1D] PRINT_EVENT_MESSAGE(message_id=7915*)
    → "And if she does, could you try to help her? Of course, I will reward you for your services."
 11: 0x0236 [0x23] WAIT_FOR_DIALOG_INTERACTION
 12: 0x0237 [0x21] END_EVENT
 13: 0x0238 [0x00] END_REQSTACK()
```

### Event 508

#### Metadata

| Field        | Value    |
|--------------|----------|
| Entrypoint   | 0x0239   |
| Data Size    | 75 bytes |
| Instructions | 15       |

```
      00 01 02 03 04 05 06 07  08 09 0A 0B 0C 0D 0E 0F
      -- -- -- -- -- -- -- --  -- -- -- -- -- -- -- --
0230:                             5E 69 64 6C 30 03 09           ^idl0..
0240: 10 2E 80 03 08 10 2F 80  1E F0 FF FF 7F 6F 70 5B  ....../......op[
0250: 06 80 2B D0 0E 01 2B D0  0E 01 74 68 6B 31 1D 30  ..+...+...thk1.0
0260: 80 23 1D 31 80 23 5B 06  80 2B D0 0E 01 2B D0 0E  .#.1.#[..+...+..
0270: 01 74 68 6B 32 53 2B D0  0E 01 2B D0 0E 01 74 68  .thk2S+...+...th
0280: 6B 32 21 00                                       k2!.            
```

#### Opcodes

```
  0: 0x0239 [0x5E] EventEntity goes idle (kills current action) (animation: "idl0")
  1: 0x023E [0x03] Work_Zone[9] = 4530*
  2: 0x0243 [0x03] Work_Zone[8] = 4365*
  3: 0x0248 [0x1E] EventEntity looks at LocalPlayer and starts talking
  4: 0x024D [0x6F] WAIT_FRAME_DELAY: Yield until WaitTime reaches zero
  5: 0x024E [0x70] WAIT_ENTITY_RENDER_FLAG: Wait while EventEntity->Render.Flags3 bit 2 is set (cancel turn if not)
  6: 0x024F [0x5B] LOAD_EXT_SCHEDULER: Load scheduler "thk1" with entities [Cid (ID: 17748011/0x010ED02B), Cid (ID: 17748011/0x010ED02B)], work=110*
  7: 0x025E [0x1D] PRINT_EVENT_MESSAGE(message_id=7916*)
    → "$7, huh? I think a certain crawler in the Crawlers' Nest drops them. Of course, you'll have to lure it out and defeat it first."
  8: 0x0261 [0x23] WAIT_FOR_DIALOG_INTERACTION
  9: 0x0262 [0x1D] PRINT_EVENT_MESSAGE(message_id=7917*)
    → "And to lure it out, you'll need to use $6."
 10: 0x0265 [0x23] WAIT_FOR_DIALOG_INTERACTION
 11: 0x0266 [0x5B] LOAD_EXT_SCHEDULER: Load scheduler "thk2" with entities [Cid (ID: 17748011/0x010ED02B), Cid (ID: 17748011/0x010ED02B)], work=110*
 12: 0x0275 [0x53] WAIT_SCHEDULER_TASK: Wait for scheduler "thk2" with entities [Cid (ID: 17748011/0x010ED02B), Cid (ID: 17748011/0x010ED02B)]
 13: 0x0282 [0x21] END_EVENT
 14: 0x0283 [0x00] END_REQSTACK()
```

### Event 509

#### Metadata

| Field        | Value     |
|--------------|-----------|
| Entrypoint   | 0x0284    |
| Data Size    | 315 bytes |
| Instructions | 48        |

```
      00 01 02 03 04 05 06 07  08 09 0A 0B 0C 0D 0E 0F
      -- -- -- -- -- -- -- --  -- -- -- -- -- -- -- --
0280:             5E 69 64 6C  30 42 75 00 32 80 75 01      ^idl0Bu.2.u.
0290: 45 33 80 F0 FF FF 7F F0  FF FF 7F 66 64 6F 30 10  E3.........fdo0.
02A0: 80 1C 34 80 46 01 38 35  80 29 0A F0 FF FF 7F 11  ..4.F.85.)......
02B0: 45 36 80 F0 FF FF 7F F0  FF FF 7F 73 30 35 39 10  E6.........s059.
02C0: 80 45 33 80 F0 FF FF 7F  F0 FF FF 7F 66 64 69 30  .E3.........fdi0
02D0: 10 80 1E F0 FF FF 7F 79  00 F0 FF FF 7F 2B D0 0E  .......y.....+..
02E0: 01 1D 37 80 23 32 1A 80  7B 2B D0 0E 01 1F 00 38  ..7.#2..{+.....8
02F0: 80 39 80 02 80 1F 01 6F  5B 2A 80 2B D0 0E 01 2B  .9.....o[*.+...+
0300: D0 0E 01 6F 6D 6F 30 1D  3A 80 23 53 2B D0 0E 01  ...omo0.:.#S+...
0310: 2B D0 0E 01 6F 6D 6F 30  5B 2A 80 2B D0 0E 01 2B  +...omo0[*.+...+
0320: D0 0E 01 6F 6D 6F 31 1D  3B 80 23 1E F0 FF FF 7F  ...omo1.;.#.....
0330: 6F 70 5B 06 80 2B D0 0E  01 2B D0 0E 01 70 61 73  op[..+...+...pas
0340: 30 1D 3C 80 23 27 0A 2C  D0 0E 01 08 45 36 80 F0  0.<.#'.,....E6..
0350: FF FF 7F F0 FF FF 7F 73  30 36 30 10 80 2B 2C D0  .......s060..+,.
0360: 0E 01 3D 80 23 53 2B D0  0E 01 2B D0 0E 01 70 61  ..=.#S+...+...pa
0370: 73 30 5B 06 80 2B D0 0E  01 2B D0 0E 01 6B 61 6B  s0[..+...+...kak
0380: 30 1D 3E 80 23 45 33 80  F0 FF FF 7F F0 FF FF 7F  0.>.#E3.........
0390: 66 64 6F 31 10 80 1C 3F  80 46 00 45 40 80 F0 FF  fdo1...?.F.E@...
03A0: FF 7F F0 FF FF 7F 71 73  74 63 10 80 45 33 80 F0  ......qstc..E3..
03B0: FF FF 7F F0 FF FF 7F 66  64 69 30 10 80 21 00     .......fdi0..!. 
```

#### Opcodes

```
  0: 0x0284 [0x5E] EventEntity goes idle (kills current action) (animation: "idl0")
  1: 0x0289 [0x42] SET_CLI_EVENT_CANCEL_DATA()
  2: 0x028A [0x75] LOAD_ROOM(Load indoor room, room=300*)
  3: 0x028E [0x75] LOAD_ROOM(No action)
  4: 0x0290 [0x45] LOAD_SCHEDULED_TASK: Load scheduler "fdo0" with entities [LocalPlayer, LocalPlayer], work=[200*, 0*]
  5: 0x02A1 [0x1C] WAIT(30* ticks)
  6: 0x02A4 [0x46] CAMERA_CONTROL: Disable user control
  7: 0x02A6 [0x38] SET_CLIENT_EVENT_MODE(mode=3*)
  8: 0x02A9 [0x29] REQ_SET_WAIT(priority=0x0A, entity_id=LocalPlayer, tag_num=0x11)
  9: 0x02B0 [0x45] LOAD_SCHEDULED_TASK: Load scheduler "s059" with entities [LocalPlayer, LocalPlayer], work=[137*, 0*]
 10: 0x02C1 [0x45] LOAD_SCHEDULED_TASK: Load scheduler "fdi0" with entities [LocalPlayer, LocalPlayer], work=[200*, 0*]
 11: 0x02D2 [0x1E] EventEntity looks at LocalPlayer and starts talking
 12: 0x02D7 [0x79] LocalPlayer looks at Cid (ID: 17748011/0x010ED02B) (Basic look)
 13: 0x02E1 [0x1D] PRINT_EVENT_MESSAGE(message_id=7918*)
    → "A letter?"
 14: 0x02E4 [0x23] WAIT_FOR_DIALOG_INTERACTION
 15: 0x02E5 [0x32] ExtData[1]->MainSpeed = 13* * 0.1
 16: 0x02E8 [0x7B] Cid (ID: 17748011/0x010ED02B) stops talking
 17: 0x02ED [0x1F] MOVE_ENTITY: EventEntity moves to X=-11.147*, Z=1.229*, Y=-10.988*
 18: 0x02F5 [0x1F] MOVE_ENTITY: Update entity position (mode=1)
 19: 0x02F7 [0x6F] WAIT_FRAME_DELAY: Yield until WaitTime reaches zero
 20: 0x02F8 [0x5B] LOAD_EXT_SCHEDULER: Load scheduler "omo0" with entities [Cid (ID: 17748011/0x010ED02B), Cid (ID: 17748011/0x010ED02B)], work=111*
 21: 0x0307 [0x1D] PRINT_EVENT_MESSAGE(message_id=7919*)
    → "..."
 22: 0x030A [0x23] WAIT_FOR_DIALOG_INTERACTION
 23: 0x030B [0x53] WAIT_SCHEDULER_TASK: Wait for scheduler "omo0" with entities [Cid (ID: 17748011/0x010ED02B), Cid (ID: 17748011/0x010ED02B)]
 24: 0x0318 [0x5B] LOAD_EXT_SCHEDULER: Load scheduler "omo1" with entities [Cid (ID: 17748011/0x010ED02B), Cid (ID: 17748011/0x010ED02B)], work=111*
 25: 0x0327 [0x1D] PRINT_EVENT_MESSAGE(message_id=7920*)
    → "I-I see. Ms. Hilda said that, huh? But I didn't mean to--no, never mind. You've done what I asked. I'll give you a reward."
 26: 0x032A [0x23] WAIT_FOR_DIALOG_INTERACTION
 27: 0x032B [0x1E] EventEntity looks at LocalPlayer and starts talking
 28: 0x0330 [0x6F] WAIT_FRAME_DELAY: Yield until WaitTime reaches zero
 29: 0x0331 [0x70] WAIT_ENTITY_RENDER_FLAG: Wait while EventEntity->Render.Flags3 bit 2 is set (cancel turn if not)
 30: 0x0332 [0x5B] LOAD_EXT_SCHEDULER: Load scheduler "pas0" with entities [Cid (ID: 17748011/0x010ED02B), Cid (ID: 17748011/0x010ED02B)], work=110*
 31: 0x0341 [0x1D] PRINT_EVENT_MESSAGE(message_id=7921*)
    → "But please, don't tell anyone about this. Especially not Raibaht."
 32: 0x0344 [0x23] WAIT_FOR_DIALOG_INTERACTION
 33: 0x0345 [0x27] REQ_SET(priority=0x0A, entity_id=Raibaht (ID: 17748012/0x010ED02C), tag_num=0x08)
 34: 0x034C [0x45] LOAD_SCHEDULED_TASK: Load scheduler "s060" with entities [LocalPlayer, LocalPlayer], work=[137*, 0*]
 35: 0x035D [0x2B] Raibaht (ID: 17748012/0x010ED02C) [7922*]:
    → "Did you say something, Chief?"
 36: 0x0364 [0x23] WAIT_FOR_DIALOG_INTERACTION
 37: 0x0365 [0x53] WAIT_SCHEDULER_TASK: Wait for scheduler "pas0" with entities [Cid (ID: 17748011/0x010ED02B), Cid (ID: 17748011/0x010ED02B)]
 38: 0x0372 [0x5B] LOAD_EXT_SCHEDULER: Load scheduler "kak0" with entities [Cid (ID: 17748011/0x010ED02B), Cid (ID: 17748011/0x010ED02B)], work=110*
 39: 0x0381 [0x1D] PRINT_EVENT_MESSAGE(message_id=7923*)
    → "Gah! Don't waste time talking! Get back to work!"
 40: 0x0384 [0x23] WAIT_FOR_DIALOG_INTERACTION
 41: 0x0385 [0x45] LOAD_SCHEDULED_TASK: Load scheduler "fdo1" with entities [LocalPlayer, LocalPlayer], work=[200*, 0*]
 42: 0x0396 [0x1C] WAIT(60* ticks)
 43: 0x0399 [0x46] CAMERA_CONTROL: Restore default settings
 44: 0x039B [0x45] LOAD_SCHEDULED_TASK: Load scheduler "qstc" with entities [LocalPlayer, LocalPlayer], work=[201*, 0*]
 45: 0x03AC [0x45] LOAD_SCHEDULED_TASK: Load scheduler "fdi0" with entities [LocalPlayer, LocalPlayer], work=[200*, 0*]
 46: 0x03BD [0x21] END_EVENT
 47: 0x03BE [0x00] END_REQSTACK()
```

### Event 603

#### Metadata

| Field        | Value    |
|--------------|----------|
| Entrypoint   | 0x03BF   |
| Data Size    | 12 bytes |
| Instructions | 3        |

```
      00 01 02 03 04 05 06 07  08 09 0A 0B 0C 0D 0E 0F
      -- -- -- -- -- -- -- --  -- -- -- -- -- -- -- --
03B0:                                               22                 "
03C0: 01 37 41 80 42 80 43 80  44 80 00                 .7A.B.C.D..     
```

#### Opcodes

```
  0: 0x03BF [0x22] ENTITY_HIDE_FLAG(enabled=0x01)
  1: 0x03C1 [0x37] UPDATE_EVENT_POSITION_AND_DIR: x=99.046*, z=1.391*, y=-20.181*, direction=341.9°*
  2: 0x03CA [0x00] END_REQSTACK()
```

### Event 65535.6

#### Metadata

| Field        | Value    |
|--------------|----------|
| Entrypoint   | 0x03CB   |
| Data Size    | 38 bytes |
| Instructions | 10       |

```
      00 01 02 03 04 05 06 07  08 09 0A 0B 0C 0D 0E 0F
      -- -- -- -- -- -- -- --  -- -- -- -- -- -- -- --
03C0:                                   22 00 5E 69 64             ".^id
03D0: 6C 30 79 00 2B D0 0E 01  2E D0 0E 01 32 1A 80 1F  l0y.+.......2...
03E0: 00 45 80 42 80 43 80 1F  01 1E F0 FF FF 7F 6F 70  .E.B.C........op
03F0: 00                                                .               
```

#### Opcodes

```
  0: 0x03CB [0x22] ENTITY_HIDE_FLAG(enabled=0x00)
  1: 0x03CD [0x5E] EventEntity goes idle (kills current action) (animation: "idl0")
  2: 0x03D2 [0x79] Cid (ID: 17748011/0x010ED02B) looks at Volker (ID: 17748014/0x010ED02E) (Basic look)
  3: 0x03DC [0x32] ExtData[1]->MainSpeed = 13* * 0.1
  4: 0x03DF [0x1F] MOVE_ENTITY: EventEntity moves to X=102.378*, Z=1.391*, Y=-20.181*
  5: 0x03E7 [0x1F] MOVE_ENTITY: Update entity position (mode=1)
  6: 0x03E9 [0x1E] EventEntity looks at LocalPlayer and starts talking
  7: 0x03EE [0x6F] WAIT_FRAME_DELAY: Yield until WaitTime reaches zero
  8: 0x03EF [0x70] WAIT_ENTITY_RENDER_FLAG: Wait while EventEntity->Render.Flags3 bit 2 is set (cancel turn if not)
  9: 0x03F0 [0x00] END_REQSTACK()
```

### Event 65535.7

#### Metadata

| Field        | Value    |
|--------------|----------|
| Entrypoint   | 0x03F1   |
| Data Size    | 23 bytes |
| Instructions | 5        |

```
      00 01 02 03 04 05 06 07  08 09 0A 0B 0C 0D 0E 0F
      -- -- -- -- -- -- -- --  -- -- -- -- -- -- -- --
03F0:    32 1A 80 37 46 80 47  80 48 80 49 80 1F 00 4A   2..7F.G.H.I...J
0400: 80 47 80 48 80 1F 01 00                           .G.H....        
```

#### Opcodes

```
  0: 0x03F1 [0x32] ExtData[1]->MainSpeed = 13* * 0.1
  1: 0x03F4 [0x37] UPDATE_EVENT_POSITION_AND_DIR: x=82.353*, z=0.589*, y=-19.531*, direction=162.7°*
  2: 0x03FD [0x1F] MOVE_ENTITY: EventEntity moves to X=77.353*, Z=0.589*, Y=-19.531*
  3: 0x0405 [0x1F] MOVE_ENTITY: Update entity position (mode=1)
  4: 0x0407 [0x00] END_REQSTACK()
```

### Event 755

#### Metadata

| Field        | Value   |
|--------------|---------|
| Entrypoint   | 0x0408  |
| Data Size    | 1 bytes |
| Instructions | 1       |

```
      00 01 02 03 04 05 06 07  08 09 0A 0B 0C 0D 0E 0F
      -- -- -- -- -- -- -- --  -- -- -- -- -- -- -- --
0400:                          00                               .       
```

#### Opcodes

```
  0: 0x0408 [0x00] END_REQSTACK()
```

### Event 65535.8

#### Metadata

| Field        | Value    |
|--------------|----------|
| Entrypoint   | 0x0409   |
| Data Size    | 38 bytes |
| Instructions | 7        |

```
      00 01 02 03 04 05 06 07  08 09 0A 0B 0C 0D 0E 0F
      -- -- -- -- -- -- -- --  -- -- -- -- -- -- -- --
0400:                             5E 69 64 6C 30 32 1A           ^idl02.
0410: 80 37 4B 80 4C 80 4D 80  4E 80 79 00 F8 FF FF 7F  .7K.L.M.N.y.....
0420: 2C D0 0E 01 1F 00 4F 80  50 80 4D 80 1F 01 00     ,.....O.P.M.... 
```

#### Opcodes

```
  0: 0x0409 [0x5E] EventEntity goes idle (kills current action) (animation: "idl0")
  1: 0x040E [0x32] ExtData[1]->MainSpeed = 13* * 0.1
  2: 0x0411 [0x37] UPDATE_EVENT_POSITION_AND_DIR: x=-19.483*, z=-3.030*, y=-9.999*, direction=194.4°*
  3: 0x041A [0x79] EventEntity looks at Raibaht (ID: 17748012/0x010ED02C) (Basic look)
  4: 0x0424 [0x1F] MOVE_ENTITY: EventEntity moves to X=-24.705*, Z=-1.975*, Y=-9.999*
  5: 0x042C [0x1F] MOVE_ENTITY: Update entity position (mode=1)
  6: 0x042E [0x00] END_REQSTACK()
```

### Event 760

#### Metadata

| Field        | Value   |
|--------------|---------|
| Entrypoint   | 0x042F  |
| Data Size    | 1 bytes |
| Instructions | 1       |

```
      00 01 02 03 04 05 06 07  08 09 0A 0B 0C 0D 0E 0F
      -- -- -- -- -- -- -- --  -- -- -- -- -- -- -- --
0420:                                               00                 .
```

#### Opcodes

```
  0: 0x042F [0x00] END_REQSTACK()
```

### Event 1010

#### Metadata

| Field        | Value   |
|--------------|---------|
| Entrypoint   | 0x0430  |
| Data Size    | 6 bytes |
| Instructions | 2       |

```
      00 01 02 03 04 05 06 07  08 09 0A 0B 0C 0D 0E 0F
      -- -- -- -- -- -- -- --  -- -- -- -- -- -- -- --
0430: 5E 69 64 6C 30 00                                 ^idl0.          
```

#### Opcodes

```
  0: 0x0430 [0x5E] EventEntity goes idle (kills current action) (animation: "idl0")
  1: 0x0435 [0x00] END_REQSTACK()
```

### Event 65535.9

#### Metadata

| Field        | Value    |
|--------------|----------|
| Entrypoint   | 0x0436   |
| Data Size    | 33 bytes |
| Instructions | 6        |

```
      00 01 02 03 04 05 06 07  08 09 0A 0B 0C 0D 0E 0F
      -- -- -- -- -- -- -- --  -- -- -- -- -- -- -- --
0430:                   32 1A  80 79 00 F8 FF FF 7F 31        2..y.....1
0440: D0 0E 01 37 51 80 52 80  53 80 35 80 1F 00 54 80  ...7Q.R.S.5...T.
0450: 55 80 53 80 1F 01 00                              U.S....         
```

#### Opcodes

```
  0: 0x0436 [0x32] ExtData[1]->MainSpeed = 13* * 0.1
  1: 0x0439 [0x79] EventEntity looks at Malduc (ID: 17748017/0x010ED031) (Basic look)
  2: 0x0443 [0x37] UPDATE_EVENT_POSITION_AND_DIR: x=62.412*, z=3.155*, y=-13.999*, direction=0.3°*
  3: 0x044C [0x1F] MOVE_ENTITY: EventEntity moves to X=63.827*, Z=3.495*, Y=-13.999*
  4: 0x0454 [0x1F] MOVE_ENTITY: Update entity position (mode=1)
  5: 0x0456 [0x00] END_REQSTACK()
```

### Event 763

#### Metadata

| Field        | Value   |
|--------------|---------|
| Entrypoint   | 0x0457  |
| Data Size    | 6 bytes |
| Instructions | 2       |

```
      00 01 02 03 04 05 06 07  08 09 0A 0B 0C 0D 0E 0F
      -- -- -- -- -- -- -- --  -- -- -- -- -- -- -- --
0450:                      5E  69 64 6C 30 00                  ^idl0.   
```

#### Opcodes

```
  0: 0x0457 [0x5E] EventEntity goes idle (kills current action) (animation: "idl0")
  1: 0x045C [0x00] END_REQSTACK()
```

### Event 764

#### Metadata

| Field        | Value   |
|--------------|---------|
| Entrypoint   | 0x045D  |
| Data Size    | 6 bytes |
| Instructions | 2       |

```
      00 01 02 03 04 05 06 07  08 09 0A 0B 0C 0D 0E 0F
      -- -- -- -- -- -- -- --  -- -- -- -- -- -- -- --
0450:                                         5E 69 64               ^id
0460: 6C 30 00                                          l0.             
```

#### Opcodes

```
  0: 0x045D [0x5E] EventEntity goes idle (kills current action) (animation: "idl0")
  1: 0x0462 [0x00] END_REQSTACK()
```

### Event 65535.10

#### Metadata

| Field        | Value    |
|--------------|----------|
| Entrypoint   | 0x0463   |
| Data Size    | 14 bytes |
| Instructions | 4        |

```
      00 01 02 03 04 05 06 07  08 09 0A 0B 0C 0D 0E 0F
      -- -- -- -- -- -- -- --  -- -- -- -- -- -- -- --
0460:          32 1A 80 1F 00  56 80 57 80 02 80 1F 01     2....V.W.....
0470: 00                                                .               
```

#### Opcodes

```
  0: 0x0463 [0x32] ExtData[1]->MainSpeed = 13* * 0.1
  1: 0x0466 [0x1F] MOVE_ENTITY: EventEntity moves to X=-13.405*, Z=-0.483*, Y=-10.988*
  2: 0x046E [0x1F] MOVE_ENTITY: Update entity position (mode=1)
  3: 0x0470 [0x00] END_REQSTACK()
```

### Event 780

#### Metadata

| Field        | Value    |
|--------------|----------|
| Entrypoint   | 0x0471   |
| Data Size    | 10 bytes |
| Instructions | 2        |

```
      00 01 02 03 04 05 06 07  08 09 0A 0B 0C 0D 0E 0F
      -- -- -- -- -- -- -- --  -- -- -- -- -- -- -- --
0470:    37 58 80 59 80 43 80  5A 80 00                  7X.Y.C.Z..     
```

#### Opcodes

```
  0: 0x0471 [0x37] UPDATE_EVENT_POSITION_AND_DIR: x=100.495*, z=-1.798*, y=-20.181*, direction=267.3°*
  1: 0x047A [0x00] END_REQSTACK()
```

### Event 782

#### Metadata

| Field        | Value    |
|--------------|----------|
| Entrypoint   | 0x047B   |
| Data Size    | 15 bytes |
| Instructions | 3        |

```
      00 01 02 03 04 05 06 07  08 09 0A 0B 0C 0D 0E 0F
      -- -- -- -- -- -- -- --  -- -- -- -- -- -- -- --
0470:                                   37 5B 80 59 80             7[.Y.
0480: 43 80 5A 80 5E 69 64 6C  30 00                    C.Z.^idl0.      
```

#### Opcodes

```
  0: 0x047B [0x37] UPDATE_EVENT_POSITION_AND_DIR: x=102.495*, z=-1.798*, y=-20.181*, direction=267.3°*
  1: 0x0484 [0x5E] EventEntity goes idle (kills current action) (animation: "idl0")
  2: 0x0489 [0x00] END_REQSTACK()
```

### Event 65535.11

#### Metadata

| Field        | Value    |
|--------------|----------|
| Entrypoint   | 0x048A   |
| Data Size    | 14 bytes |
| Instructions | 4        |

```
      00 01 02 03 04 05 06 07  08 09 0A 0B 0C 0D 0E 0F
      -- -- -- -- -- -- -- --  -- -- -- -- -- -- -- --
0480:                                32 1A 80 1F 00 5C            2....\
0490: 80 5D 80 43 80 1F 01 00                           .].C....        
```

#### Opcodes

```
  0: 0x048A [0x32] ExtData[1]->MainSpeed = 13* * 0.1
  1: 0x048D [0x1F] MOVE_ENTITY: EventEntity moves to X=101.306*, Z=-1.249*, Y=-20.181*
  2: 0x0495 [0x1F] MOVE_ENTITY: Update entity position (mode=1)
  3: 0x0497 [0x00] END_REQSTACK()
```

### Event 65535.12

#### Metadata

| Field        | Value    |
|--------------|----------|
| Entrypoint   | 0x0498   |
| Data Size    | 20 bytes |
| Instructions | 3        |

```
      00 01 02 03 04 05 06 07  08 09 0A 0B 0C 0D 0E 0F
      -- -- -- -- -- -- -- --  -- -- -- -- -- -- -- --
0490:                          79 00 F8 FF FF 7F 32 D0          y.....2.
04A0: 0E 01 37 5E 80 5F 80 02  80 60 80 00              ..7^._...`..    
```

#### Opcodes

```
  0: 0x0498 [0x79] EventEntity looks at Cornelia (ID: 17748018/0x010ED032) (Basic look)
  1: 0x04A2 [0x37] UPDATE_EVENT_POSITION_AND_DIR: x=-12.441*, z=2.718*, y=-10.988*, direction=91.8°*
  2: 0x04AB [0x00] END_REQSTACK()
```

### Event 795

#### Metadata

| Field        | Value   |
|--------------|---------|
| Entrypoint   | 0x04AC  |
| Data Size    | 1 bytes |
| Instructions | 1       |

```
      00 01 02 03 04 05 06 07  08 09 0A 0B 0C 0D 0E 0F
      -- -- -- -- -- -- -- --  -- -- -- -- -- -- -- --
04A0:                                      00                       .   
```

#### Opcodes

```
  0: 0x04AC [0x00] END_REQSTACK()
```

### Event 796

#### Metadata

| Field        | Value     |
|--------------|-----------|
| Entrypoint   | 0x04AD    |
| Data Size    | 154 bytes |
| Instructions | 36        |

```
      00 01 02 03 04 05 06 07  08 09 0A 0B 0C 0D 0E 0F
      -- -- -- -- -- -- -- --  -- -- -- -- -- -- -- --
04A0:                                         5E 69 64               ^id
04B0: 6C 30 1C 18 80 1E F0 FF  FF 7F 1D 61 80 23 02 02  l0.........a.#..
04C0: 10 10 80 00 CE 04 03 00  00 10 80 01 D3 04 03 00  ................
04D0: 00 62 80 24 63 80 10 80  00 00 25 02 00 10 10 80  .b.$c.....%.....
04E0: 00 E9 04 06 01 10 01 45  05 02 00 10 64 80 00 0C  .......E....d...
04F0: 05 66 65 80 30 D0 0E 01  30 D0 0E 01 70 61 73 30  .fe.0...0...pas0
0500: 1D 66 80 23 03 01 10 64  80 01 45 05 02 00 10 62  .f.#...d..E....b
0510: 80 00 45 05 1D 67 80 23  24 68 80 64 80 10 80 25  ..E..g.#$h.d...%
0520: 02 00 10 10 80 00 34 05  1D 69 80 23 03 01 10 62  ......4..i.#...b
0530: 80 01 42 05 02 00 10 64  80 00 42 05 06 01 10 01  ..B....d..B.....
0540: 42 05 01 45 05 21 00                              B..E.!.         
```

#### Opcodes

```
  0: 0x04AD [0x5E] EventEntity goes idle (kills current action) (animation: "idl0")
  1: 0x04B2 [0x1C] WAIT(10* ticks)
  2: 0x04B5 [0x1E] EventEntity looks at LocalPlayer and starts talking
  3: 0x04BA [0x1D] PRINT_EVENT_MESSAGE(message_id=9040*)
    → "What's wrong? My weapon didn't backfire on you, did it?"
  4: 0x04BD [0x23] WAIT_FOR_DIALOG_INTERACTION
  5: 0x04BE [0x02] IF !(Work_Zone[2] == 0*) GOTO 0x04CE
  6: 0x04C6 [0x03] ExtData[1]->WorkLocal[0] = 0*
  7: 0x04CB [0x01] GOTO 0x04D3
  8: 0x04CE [0x03] ExtData[1]->WorkLocal[0] = 2*

SUBROUTINE_04D3:
  9: 0x04D3 [0x24] CREATE_DIALOG(message_id=9041*, default_option=0*, option_flags=ExtData[1]->WorkLocal[0])
    → "Why are you here? [No particular reason./I've lost the gun.../I've had enough...]"
 10: 0x04DA [0x25] WAIT_DIALOG_SELECT()
 11: 0x04DB [0x02] IF !(Work_Zone[0] == 0*) GOTO 0x04E9
 12: 0x04E3 [0x06] Work_Zone[1] = 0
 13: 0x04E6 [0x01] GOTO 0x0545
 14: 0x04E9 [0x02] IF !(Work_Zone[0] == 1*) GOTO 0x050C
 15: 0x04F1 [0x66] LOAD_EXT_SCHEDULER_MAIN: Load scheduler "pas0" with entities [Iron Eater (ID: 17748016/0x010ED030), Iron Eater (ID: 17748016/0x010ED030)], work=69*
 16: 0x0500 [0x1D] PRINT_EVENT_MESSAGE(message_id=9042*)
    → "What do you mean, "lost it"? You know that guns are for shooting, not for throwing, right? Oh well. Take this as a replacement, but be more careful next time!"
 17: 0x0503 [0x23] WAIT_FOR_DIALOG_INTERACTION
 18: 0x0504 [0x03] Work_Zone[1] = 1*
 19: 0x0509 [0x01] GOTO 0x0545
 20: 0x050C [0x02] IF !(Work_Zone[0] == 2*) GOTO 0x0545
 21: 0x0514 [0x1D] PRINT_EVENT_MESSAGE(message_id=9043*)
    → "What are you talking about? We were just starting to get somewhere!"
 22: 0x0517 [0x23] WAIT_FOR_DIALOG_INTERACTION
 23: 0x0518 [0x24] CREATE_DIALOG(message_id=9044*, default_option=1*, option_flags=0*)
    → "You don't really want to quit, do you? [Yes, I do./No, not really.]"
 24: 0x051F [0x25] WAIT_DIALOG_SELECT()
 25: 0x0520 [0x02] IF !(Work_Zone[0] == 0*) GOTO 0x0534
 26: 0x0528 [0x1D] PRINT_EVENT_MESSAGE(message_id=9045*)
    → "Give up? Hey, it's not like I'm asking you to save the world or anything. <Sigh> Well, I can't force you to do anything you don't want to... But you get rid of the gun yourself, all right?"
 27: 0x052B [0x23] WAIT_FOR_DIALOG_INTERACTION
 28: 0x052C [0x03] Work_Zone[1] = 2*
 29: 0x0531 [0x01] GOTO 0x0542
 30: 0x0534 [0x02] IF !(Work_Zone[0] == 1*) GOTO 0x0542
 31: 0x053C [0x06] Work_Zone[1] = 0
 32: 0x053F [0x01] GOTO 0x0542

SUBROUTINE_0542:
 33: 0x0542 [0x01] GOTO 0x0545

SUBROUTINE_0545:
 34: 0x0545 [0x21] END_EVENT
 35: 0x0546 [0x00] END_REQSTACK()
```

### Event 797

#### Metadata

| Field        | Value    |
|--------------|----------|
| Entrypoint   | 0x0547   |
| Data Size    | 19 bytes |
| Instructions | 7        |

```
      00 01 02 03 04 05 06 07  08 09 0A 0B 0C 0D 0E 0F
      -- -- -- -- -- -- -- --  -- -- -- -- -- -- -- --
0540:                      5E  69 64 6C 30 1C 18 80 1E         ^idl0....
0550: F0 FF FF 7F 1D 6A 80 23  21 00                    .....j.#!.      
```

#### Opcodes

```
  0: 0x0547 [0x5E] EventEntity goes idle (kills current action) (animation: "idl0")
  1: 0x054C [0x1C] WAIT(10* ticks)
  2: 0x054F [0x1E] EventEntity looks at LocalPlayer and starts talking
  3: 0x0554 [0x1D] PRINT_EVENT_MESSAGE(message_id=9046*)
    → "Wait a minute, this baby still has a few more rounds in her. Take her back to the battlefield and do some more damage, <Player>."
  4: 0x0557 [0x23] WAIT_FOR_DIALOG_INTERACTION
  5: 0x0558 [0x21] END_EVENT
  6: 0x0559 [0x00] END_REQSTACK()
```

### Event 798

#### Metadata

| Field        | Value   |
|--------------|---------|
| Entrypoint   | 0x055A  |
| Data Size    | 1 bytes |
| Instructions | 1       |

```
      00 01 02 03 04 05 06 07  08 09 0A 0B 0C 0D 0E 0F
      -- -- -- -- -- -- -- --  -- -- -- -- -- -- -- --
0550:                                00                           .     
```

#### Opcodes

```
  0: 0x055A [0x00] END_REQSTACK()
```

### Event 799

#### Metadata

| Field        | Value   |
|--------------|---------|
| Entrypoint   | 0x055B  |
| Data Size    | 1 bytes |
| Instructions | 1       |

```
      00 01 02 03 04 05 06 07  08 09 0A 0B 0C 0D 0E 0F
      -- -- -- -- -- -- -- --  -- -- -- -- -- -- -- --
0550:                                   00                         .    
```

#### Opcodes

```
  0: 0x055B [0x00] END_REQSTACK()
```

### Event 65535.13

#### Metadata

| Field        | Value    |
|--------------|----------|
| Entrypoint   | 0x055C   |
| Data Size    | 24 bytes |
| Instructions | 5        |

```
      00 01 02 03 04 05 06 07  08 09 0A 0B 0C 0D 0E 0F
      -- -- -- -- -- -- -- --  -- -- -- -- -- -- -- --
0550:                                      32 1A 80 79              2..y
0560: 00 2B D0 0E 01 2C D0 0E  01 1F 00 6B 80 6C 80 02  .+...,.....k.l..
0570: 80 1F 01 00                                       ....            
```

#### Opcodes

```
  0: 0x055C [0x32] ExtData[1]->MainSpeed = 13* * 0.1
  1: 0x055F [0x79] Cid (ID: 17748011/0x010ED02B) looks at Raibaht (ID: 17748012/0x010ED02C) (Basic look)
  2: 0x0569 [0x1F] MOVE_ENTITY: EventEntity moves to X=-12.699*, Z=0.141*, Y=-10.988*
  3: 0x0571 [0x1F] MOVE_ENTITY: Update entity position (mode=1)
  4: 0x0573 [0x00] END_REQSTACK()
```

### Event 861

#### Metadata

| Field        | Value    |
|--------------|----------|
| Entrypoint   | 0x0574   |
| Data Size    | 58 bytes |
| Instructions | 14       |

```
      00 01 02 03 04 05 06 07  08 09 0A 0B 0C 0D 0E 0F
      -- -- -- -- -- -- -- --  -- -- -- -- -- -- -- --
0570:             42 5E 69 64  6C 30 1C 18 80 1E F0 FF      B^idl0......
0580: FF 7F 1D 6D 80 23 5B 06  80 2B D0 0E 01 2B D0 0E  ...m.#[..+...+..
0590: 01 74 6C 6B 30 1D 6E 80  23 5B 06 80 2B D0 0E 01  .tlk0.n.#[..+...
05A0: 2B D0 0E 01 74 6C 6B 31  1D 6F 80 23 21 00        +...tlk1.o.#!.  
```

#### Opcodes

```
  0: 0x0574 [0x42] SET_CLI_EVENT_CANCEL_DATA()
  1: 0x0575 [0x5E] EventEntity goes idle (kills current action) (animation: "idl0")
  2: 0x057A [0x1C] WAIT(10* ticks)
  3: 0x057D [0x1E] EventEntity looks at LocalPlayer and starts talking
  4: 0x0582 [0x1D] PRINT_EVENT_MESSAGE(message_id=9511*)
    → "Bahamut... Tavnazia..."
  5: 0x0585 [0x23] WAIT_FOR_DIALOG_INTERACTION
  6: 0x0586 [0x5B] LOAD_EXT_SCHEDULER: Load scheduler "tlk0" with entities [Cid (ID: 17748011/0x010ED02B), Cid (ID: 17748011/0x010ED02B)], work=110*
  7: 0x0595 [0x1D] PRINT_EVENT_MESSAGE(message_id=9512*)
    → "My ears still doubt the conversation I just heard. Could it all be true?"
  8: 0x0598 [0x23] WAIT_FOR_DIALOG_INTERACTION
  9: 0x0599 [0x5B] LOAD_EXT_SCHEDULER: Load scheduler "tlk1" with entities [Cid (ID: 17748011/0x010ED02B), Cid (ID: 17748011/0x010ED02B)], work=110*
 10: 0x05A8 [0x1D] PRINT_EVENT_MESSAGE(message_id=9513*)
    → "I guess the only way to find out would be to tag along with that Prishe a little while longer. She said she was going to Jeuno to meet a friend... Who do you suppose she knows in the Duchy?"
 11: 0x05AB [0x23] WAIT_FOR_DIALOG_INTERACTION
 12: 0x05AC [0x21] END_EVENT
 13: 0x05AD [0x00] END_REQSTACK()
```

### Event 846

#### Metadata

| Field        | Value     |
|--------------|-----------|
| Entrypoint   | 0x05AE    |
| Data Size    | 188 bytes |
| Instructions | 26        |

```
      00 01 02 03 04 05 06 07  08 09 0A 0B 0C 0D 0E 0F
      -- -- -- -- -- -- -- --  -- -- -- -- -- -- -- --
05A0:                                            42 5E                B^
05B0: 69 64 6C 30 42 45 33 80  F0 FF FF 7F F0 FF FF 7F  idl0BE3.........
05C0: 66 64 6F 30 10 80 55 33  80 F0 FF FF 7F F0 FF FF  fdo0..U3........
05D0: 7F 66 64 6F 30 38 35 80  46 01 45 70 80 F8 FF FF  .fdo085.F.Ep....
05E0: 7F F8 FF FF 7F 73 30 33  30 10 80 29 0A F0 FF FF  .....s030..)....
05F0: 7F 4C 1E F0 FF FF 7F 45  33 80 F0 FF FF 7F F0 FF  .L.....E3.......
0600: FF 7F 66 64 69 30 10 80  1D 71 80 23 5B 06 80 2B  ..fdi0...q.#[..+
0610: D0 0E 01 2B D0 0E 01 74  6C 6B 30 1D 72 80 23 5B  ...+...tlk0.r.#[
0620: 06 80 2B D0 0E 01 2B D0  0E 01 74 6C 6B 31 1D 73  ..+...+...tlk1.s
0630: 80 23 45 33 80 F0 FF FF  7F F0 FF FF 7F 66 64 6F  .#E3.........fdo
0640: 30 10 80 55 33 80 F0 FF  FF 7F F0 FF FF 7F 66 64  0..U3.........fd
0650: 6F 30 1C 74 80 46 00 45  33 80 F0 FF FF 7F F0 FF  o0.t.F.E3.......
0660: FF 7F 66 64 69 30 10 80  21 00                    ..fdi0..!.      
```

#### Opcodes

```
  0: 0x05AE [0x42] SET_CLI_EVENT_CANCEL_DATA()
  1: 0x05AF [0x5E] EventEntity goes idle (kills current action) (animation: "idl0")
  2: 0x05B4 [0x42] SET_CLI_EVENT_CANCEL_DATA()
  3: 0x05B5 [0x45] LOAD_SCHEDULED_TASK: Load scheduler "fdo0" with entities [LocalPlayer, LocalPlayer], work=[200*, 0*]
  4: 0x05C6 [0x55] WAIT_LOAD_SCHEDULER: Wait for scheduler "fdo0" with entities [LocalPlayer, LocalPlayer], work=200*
  5: 0x05D5 [0x38] SET_CLIENT_EVENT_MODE(mode=3*)
  6: 0x05D8 [0x46] CAMERA_CONTROL: Disable user control
  7: 0x05DA [0x45] LOAD_SCHEDULED_TASK: Load scheduler "s030" with entities [EventEntity, EventEntity], work=[112*, 0*]
  8: 0x05EB [0x29] REQ_SET_WAIT(priority=0x0A, entity_id=LocalPlayer, tag_num=0x4C)
  9: 0x05F2 [0x1E] EventEntity looks at LocalPlayer and starts talking
 10: 0x05F7 [0x45] LOAD_SCHEDULED_TASK: Load scheduler "fdi0" with entities [LocalPlayer, LocalPlayer], work=[200*, 0*]
 11: 0x0608 [0x1D] PRINT_EVENT_MESSAGE(message_id=9518*)
    → "What, you want to hear about the Multinational Expedition?"
 12: 0x060B [0x23] WAIT_FOR_DIALOG_INTERACTION
 13: 0x060C [0x5B] LOAD_EXT_SCHEDULER: Load scheduler "tlk0" with entities [Cid (ID: 17748011/0x010ED02B), Cid (ID: 17748011/0x010ED02B)], work=110*
 14: 0x061B [0x1D] PRINT_EVENT_MESSAGE(message_id=9519*)
    → "What is there to know? Everybody that went on that damned mission passed away or was..."
 15: 0x061E [0x23] WAIT_FOR_DIALOG_INTERACTION
 16: 0x061F [0x5B] LOAD_EXT_SCHEDULER: Load scheduler "tlk1" with entities [Cid (ID: 17748011/0x010ED02B), Cid (ID: 17748011/0x010ED02B)], work=110*
 17: 0x062E [0x1D] PRINT_EVENT_MESSAGE(message_id=9520*)
    → "I usually don't believe in anything crazy like magic or curses, but after hearing the stories about what happened up there in the Northlands, I don't think there may be any other explanation."
 18: 0x0631 [0x23] WAIT_FOR_DIALOG_INTERACTION
 19: 0x0632 [0x45] LOAD_SCHEDULED_TASK: Load scheduler "fdo0" with entities [LocalPlayer, LocalPlayer], work=[200*, 0*]
 20: 0x0643 [0x55] WAIT_LOAD_SCHEDULER: Wait for scheduler "fdo0" with entities [LocalPlayer, LocalPlayer], work=200*
 21: 0x0652 [0x1C] WAIT(15* ticks)
 22: 0x0655 [0x46] CAMERA_CONTROL: Restore default settings
 23: 0x0657 [0x45] LOAD_SCHEDULED_TASK: Load scheduler "fdi0" with entities [LocalPlayer, LocalPlayer], work=[200*, 0*]
 24: 0x0668 [0x21] END_EVENT
 25: 0x0669 [0x00] END_REQSTACK()
```

### Event 848

#### Metadata

| Field        | Value    |
|--------------|----------|
| Entrypoint   | 0x066A   |
| Data Size    | 58 bytes |
| Instructions | 14       |

```
      00 01 02 03 04 05 06 07  08 09 0A 0B 0C 0D 0E 0F
      -- -- -- -- -- -- -- --  -- -- -- -- -- -- -- --
0660:                                42 5E 69 64 6C 30            B^idl0
0670: 1C 18 80 1E F0 FF FF 7F  1D 75 80 23 5B 06 80 2B  .........u.#[..+
0680: D0 0E 01 2B D0 0E 01 74  6C 6B 30 1D 76 80 23 5B  ...+...tlk0.v.#[
0690: 06 80 2B D0 0E 01 2B D0  0E 01 74 6C 6B 31 1D 77  ..+...+...tlk1.w
06A0: 80 23 21 00                                       .#!.            
```

#### Opcodes

```
  0: 0x066A [0x42] SET_CLI_EVENT_CANCEL_DATA()
  1: 0x066B [0x5E] EventEntity goes idle (kills current action) (animation: "idl0")
  2: 0x0670 [0x1C] WAIT(10* ticks)
  3: 0x0673 [0x1E] EventEntity looks at LocalPlayer and starts talking
  4: 0x0678 [0x1D] PRINT_EVENT_MESSAGE(message_id=9537*)
    → "So you have a piece of the magicite as well..."
  5: 0x067B [0x23] WAIT_FOR_DIALOG_INTERACTION
  6: 0x067C [0x5B] LOAD_EXT_SCHEDULER: Load scheduler "tlk0" with entities [Cid (ID: 17748011/0x010ED02B), Cid (ID: 17748011/0x010ED02B)], work=110*
  7: 0x068B [0x1D] PRINT_EVENT_MESSAGE(message_id=9538*)
    → "It looks similar to the one I saw before, but I don't feel the same kind of power flowing from it."
  8: 0x068E [0x23] WAIT_FOR_DIALOG_INTERACTION
  9: 0x068F [0x5B] LOAD_EXT_SCHEDULER: Load scheduler "tlk1" with entities [Cid (ID: 17748011/0x010ED02B), Cid (ID: 17748011/0x010ED02B)], work=110*
 10: 0x069E [0x1D] PRINT_EVENT_MESSAGE(message_id=9539*)
    → "No, the one I saw was pitch-black and so powerful that you could feel its energy from over twenty yalms away."
 11: 0x06A1 [0x23] WAIT_FOR_DIALOG_INTERACTION
 12: 0x06A2 [0x21] END_EVENT
 13: 0x06A3 [0x00] END_REQSTACK()
```

### Event 862

#### Metadata

| Field        | Value    |
|--------------|----------|
| Entrypoint   | 0x06A4   |
| Data Size    | 58 bytes |
| Instructions | 14       |

```
      00 01 02 03 04 05 06 07  08 09 0A 0B 0C 0D 0E 0F
      -- -- -- -- -- -- -- --  -- -- -- -- -- -- -- --
06A0:             42 5E 69 64  6C 30 1C 18 80 1E F0 FF      B^idl0......
06B0: FF 7F 1D 78 80 23 5B 06  80 2B D0 0E 01 2B D0 0E  ...x.#[..+...+..
06C0: 01 74 6C 6B 30 1D 79 80  23 5B 06 80 2B D0 0E 01  .tlk0.y.#[..+...
06D0: 2B D0 0E 01 74 6C 6B 31  1D 7A 80 23 21 00        +...tlk1.z.#!.  
```

#### Opcodes

```
  0: 0x06A4 [0x42] SET_CLI_EVENT_CANCEL_DATA()
  1: 0x06A5 [0x5E] EventEntity goes idle (kills current action) (animation: "idl0")
  2: 0x06AA [0x1C] WAIT(10* ticks)
  3: 0x06AD [0x1E] EventEntity looks at LocalPlayer and starts talking
  4: 0x06B2 [0x1D] PRINT_EVENT_MESSAGE(message_id=9540*)
    → "The Multinational Expedition held thirty years ago all started when a shard of the fabled "Star of Tavnazia" was brought to the Republic."
  5: 0x06B5 [0x23] WAIT_FOR_DIALOG_INTERACTION
  6: 0x06B6 [0x5B] LOAD_EXT_SCHEDULER: Load scheduler "tlk0" with entities [Cid (ID: 17748011/0x010ED02B), Cid (ID: 17748011/0x010ED02B)], work=110*
  7: 0x06C5 [0x1D] PRINT_EVENT_MESSAGE(message_id=9541*)
    → "It was rumored that the gem was originally found in the Northlands, and that is why the party headed there first."
  8: 0x06C8 [0x23] WAIT_FOR_DIALOG_INTERACTION
  9: 0x06C9 [0x5B] LOAD_EXT_SCHEDULER: Load scheduler "tlk1" with entities [Cid (ID: 17748011/0x010ED02B), Cid (ID: 17748011/0x010ED02B)], work=110*
 10: 0x06D8 [0x1D] PRINT_EVENT_MESSAGE(message_id=9542*)
    → "If you ask one of your Tavnazian friends about the star, you might be able to learn something interesting."
 11: 0x06DB [0x23] WAIT_FOR_DIALOG_INTERACTION
 12: 0x06DC [0x21] END_EVENT
 13: 0x06DD [0x00] END_REQSTACK()
```

### Event 863

#### Metadata

| Field        | Value    |
|--------------|----------|
| Entrypoint   | 0x06DE   |
| Data Size    | 54 bytes |
| Instructions | 12       |

```
      00 01 02 03 04 05 06 07  08 09 0A 0B 0C 0D 0E 0F
      -- -- -- -- -- -- -- --  -- -- -- -- -- -- -- --
06D0:                                            42 5E                B^
06E0: 69 64 6C 30 1C 18 80 1E  F0 FF FF 7F 1D 7B 80 23  idl0.........{.#
06F0: 5B 06 80 2B D0 0E 01 2B  D0 0E 01 74 6C 6B 30 1D  [..+...+...tlk0.
0700: 7C 80 23 5B 06 80 2B D0  0E 01 2B D0 0E 01 74 6C  |.#[..+...+...tl
0710: 6B 31 21 00                                       k1!.            
```

#### Opcodes

```
  0: 0x06DE [0x42] SET_CLI_EVENT_CANCEL_DATA()
  1: 0x06DF [0x5E] EventEntity goes idle (kills current action) (animation: "idl0")
  2: 0x06E4 [0x1C] WAIT(10* ticks)
  3: 0x06E7 [0x1E] EventEntity looks at LocalPlayer and starts talking
  4: 0x06EC [0x1D] PRINT_EVENT_MESSAGE(message_id=9599*)
    → "This "baptismal vessel..." Now, if I could get my hands on that, just think of the advancements the Republic could make..."
  5: 0x06EF [0x23] WAIT_FOR_DIALOG_INTERACTION
  6: 0x06F0 [0x5B] LOAD_EXT_SCHEDULER: Load scheduler "tlk0" with entities [Cid (ID: 17748011/0x010ED02B), Cid (ID: 17748011/0x010ED02B)], work=110*
  7: 0x06FF [0x1D] PRINT_EVENT_MESSAGE(message_id=9600*)
    → "<Player>! You need to hurry to the northwestern tower of Pso'Xja. I'll stay here and keep trying to find out more on the magicite. I've still got a few cards up my sleeve."
  8: 0x0702 [0x23] WAIT_FOR_DIALOG_INTERACTION
  9: 0x0703 [0x5B] LOAD_EXT_SCHEDULER: Load scheduler "tlk1" with entities [Cid (ID: 17748011/0x010ED02B), Cid (ID: 17748011/0x010ED02B)], work=110*
 10: 0x0712 [0x21] END_EVENT
 11: 0x0713 [0x00] END_REQSTACK()
```

### Event 851

#### Metadata

| Field        | Value     |
|--------------|-----------|
| Entrypoint   | 0x0714    |
| Data Size    | 232 bytes |
| Instructions | 46        |

```
      00 01 02 03 04 05 06 07  08 09 0A 0B 0C 0D 0E 0F
      -- -- -- -- -- -- -- --  -- -- -- -- -- -- -- --
0710:             42 5E 69 64  6C 30 1C 18 80 1E F0 FF      B^idl0......
0720: FF 7F 1D 7D 80 23 24 7E  80 10 80 02 10 25 02 00  ...}.#$~.....%..
0730: 10 10 80 00 98 07 02 03  10 10 80 00 67 07 5B 06  ............g.[.
0740: 80 2B D0 0E 01 2B D0 0E  01 74 6C 6B 30 1D 7F 80  .+...+...tlk0...
0750: 23 5B 06 80 2B D0 0E 01  2B D0 0E 01 74 6C 6B 31  #[..+...+...tlk1
0760: 1D 80 80 23 01 95 07 1D  7F 80 23 5B 06 80 2B D0  ...#......#[..+.
0770: 0E 01 2B D0 0E 01 74 68  6B 31 1D 81 80 23 1D 82  ..+...thk1...#..
0780: 80 23 5B 06 80 2B D0 0E  01 2B D0 0E 01 74 68 6B  .#[..+...+...thk
0790: 32 1D 83 80 23 01 FA 07  02 00 10 64 80 00 C9 07  2...#......d....
07A0: 5B 06 80 2B D0 0E 01 2B  D0 0E 01 74 6C 6B 30 1D  [..+...+...tlk0.
07B0: 84 80 23 5B 06 80 2B D0  0E 01 2B D0 0E 01 74 6C  ..#[..+...+...tl
07C0: 6B 31 1D 85 80 23 01 FA  07 02 00 10 62 80 00 FA  k1...#......b...
07D0: 07 5B 06 80 2B D0 0E 01  2B D0 0E 01 74 6C 6B 30  .[..+...+...tlk0
07E0: 1D 86 80 23 5B 06 80 2B  D0 0E 01 2B D0 0E 01 74  ...#[..+...+...t
07F0: 6C 6B 31 1D 87 80 23 01  FA 07 21 00              lk1...#...!.    
```

#### Opcodes

```
  0: 0x0714 [0x42] SET_CLI_EVENT_CANCEL_DATA()
  1: 0x0715 [0x5E] EventEntity goes idle (kills current action) (animation: "idl0")
  2: 0x071A [0x1C] WAIT(10* ticks)
  3: 0x071D [0x1E] EventEntity looks at LocalPlayer and starts talking
  4: 0x0722 [0x1D] PRINT_EVENT_MESSAGE(message_id=9638*)
    → "So what are you going to do, <Player>?"
  5: 0x0725 [0x23] WAIT_FOR_DIALOG_INTERACTION
  6: 0x0726 [0x24] CREATE_DIALOG(message_id=9639*, default_option=0*, option_flags=Work_Zone[2])
    → "I'm going to... [Investigate Al'Taieu./Find Selh'teus./Find Prishe.]"
  7: 0x072D [0x25] WAIT_DIALOG_SELECT()
  8: 0x072E [0x02] IF !(Work_Zone[0] == 0*) GOTO 0x0798
  9: 0x0736 [0x02] IF !(Work_Zone[3] == 0*) GOTO 0x0767
 10: 0x073E [0x5B] LOAD_EXT_SCHEDULER: Load scheduler "tlk0" with entities [Cid (ID: 17748011/0x010ED02B), Cid (ID: 17748011/0x010ED02B)], work=110*
 11: 0x074D [0x1D] PRINT_EVENT_MESSAGE(message_id=9640*)
    → "Louverance..."
 12: 0x0750 [0x23] WAIT_FOR_DIALOG_INTERACTION
 13: 0x0751 [0x5B] LOAD_EXT_SCHEDULER: Load scheduler "tlk1" with entities [Cid (ID: 17748011/0x010ED02B), Cid (ID: 17748011/0x010ED02B)], work=110*
 14: 0x0760 [0x1D] PRINT_EVENT_MESSAGE(message_id=9654*)
    → "He said that he was heading back to Tavnazia."
 15: 0x0763 [0x23] WAIT_FOR_DIALOG_INTERACTION
 16: 0x0764 [0x01] GOTO 0x0795
 17: 0x0767 [0x1D] PRINT_EVENT_MESSAGE(message_id=9640*)
    → "Louverance..."
 18: 0x076A [0x23] WAIT_FOR_DIALOG_INTERACTION
 19: 0x076B [0x5B] LOAD_EXT_SCHEDULER: Load scheduler "thk1" with entities [Cid (ID: 17748011/0x010ED02B), Cid (ID: 17748011/0x010ED02B)], work=110*
 20: 0x077A [0x1D] PRINT_EVENT_MESSAGE(message_id=9669*)
    → "One hundred years living with the beastmen... That Galka has to be either extremely brave or extremely crazy to attempt a feat like that."
 21: 0x077D [0x23] WAIT_FOR_DIALOG_INTERACTION
 22: 0x077E [0x1D] PRINT_EVENT_MESSAGE(message_id=9670*)
    → "But wait a minute... All that time together with the Moblins would mean that he would know all their secrets... And that's probably why the little guys came to Bastok to take him back to their city!"
 23: 0x0781 [0x23] WAIT_FOR_DIALOG_INTERACTION
 24: 0x0782 [0x5B] LOAD_EXT_SCHEDULER: Load scheduler "thk2" with entities [Cid (ID: 17748011/0x010ED02B), Cid (ID: 17748011/0x010ED02B)], work=110*
 25: 0x0791 [0x1D] PRINT_EVENT_MESSAGE(message_id=9671*)
    → "<Player>. You need to hurry back to Movalpolos and help Louverance find Jabbos!"
 26: 0x0794 [0x23] WAIT_FOR_DIALOG_INTERACTION

SUBROUTINE_0795:
 27: 0x0795 [0x01] GOTO 0x07FA
 28: 0x0798 [0x02] IF !(Work_Zone[0] == 1*) GOTO 0x07C9
 29: 0x07A0 [0x5B] LOAD_EXT_SCHEDULER: Load scheduler "tlk0" with entities [Cid (ID: 17748011/0x010ED02B), Cid (ID: 17748011/0x010ED02B)], work=110*
 30: 0x07AF [0x1D] PRINT_EVENT_MESSAGE(message_id=9643*)
    → "Tenzen..."
 31: 0x07B2 [0x23] WAIT_FOR_DIALOG_INTERACTION
 32: 0x07B3 [0x5B] LOAD_EXT_SCHEDULER: Load scheduler "tlk1" with entities [Cid (ID: 17748011/0x010ED02B), Cid (ID: 17748011/0x010ED02B)], work=110*
 33: 0x07C2 [0x1D] PRINT_EVENT_MESSAGE(message_id=9653*)
    → "He said something about going to ask the assistance of Carbuncle."
 34: 0x07C5 [0x23] WAIT_FOR_DIALOG_INTERACTION
 35: 0x07C6 [0x01] GOTO 0x07FA
 36: 0x07C9 [0x02] IF !(Work_Zone[0] == 2*) GOTO 0x07FA
 37: 0x07D1 [0x5B] LOAD_EXT_SCHEDULER: Load scheduler "tlk0" with entities [Cid (ID: 17748011/0x010ED02B), Cid (ID: 17748011/0x010ED02B)], work=110*
 38: 0x07E0 [0x1D] PRINT_EVENT_MESSAGE(message_id=9646*)
    → "Ulmia..."
 39: 0x07E3 [0x23] WAIT_FOR_DIALOG_INTERACTION
 40: 0x07E4 [0x5B] LOAD_EXT_SCHEDULER: Load scheduler "tlk1" with entities [Cid (ID: 17748011/0x010ED02B), Cid (ID: 17748011/0x010ED02B)], work=110*
 41: 0x07F3 [0x1D] PRINT_EVENT_MESSAGE(message_id=9652*)
    → "She said that she was heading for San d'Oria."
 42: 0x07F6 [0x23] WAIT_FOR_DIALOG_INTERACTION
 43: 0x07F7 [0x01] GOTO 0x07FA

SUBROUTINE_07FA:
 44: 0x07FA [0x21] END_EVENT
 45: 0x07FB [0x00] END_REQSTACK()
```

### Event 858

#### Metadata

| Field        | Value     |
|--------------|-----------|
| Entrypoint   | 0x07FC    |
| Data Size    | 186 bytes |
| Instructions | 24        |

```
      00 01 02 03 04 05 06 07  08 09 0A 0B 0C 0D 0E 0F
      -- -- -- -- -- -- -- --  -- -- -- -- -- -- -- --
07F0:                                      5E 69 64 6C              ^idl
0800: 30 42 45 33 80 F0 FF FF  7F F0 FF FF 7F 66 64 6F  0BE3.........fdo
0810: 30 10 80 55 33 80 F0 FF  FF 7F F0 FF FF 7F 66 64  0..U3.........fd
0820: 6F 30 46 01 38 35 80 45  88 80 F8 FF FF 7F F8 FF  o0F.85.E........
0830: FF 7F 73 30 31 33 10 80  29 0A F0 FF FF 7F 4C 1E  ..s013..).....L.
0840: F0 FF FF 7F 45 33 80 F0  FF FF 7F F0 FF FF 7F 66  ....E3.........f
0850: 64 69 30 10 80 1D 89 80  23 5B 06 80 2B D0 0E 01  di0.....#[..+...
0860: 2B D0 0E 01 6B 61 6B 30  1D 8A 80 23 5B 06 80 2B  +...kak0...#[..+
0870: D0 0E 01 2B D0 0E 01 6B  61 6B 31 1C 34 80 45 33  ...+...kak1.4.E3
0880: 80 F0 FF FF 7F F0 FF FF  7F 66 64 6F 30 10 80 55  .........fdo0..U
0890: 33 80 F0 FF FF 7F F0 FF  FF 7F 66 64 6F 30 1C 74  3.........fdo0.t
08A0: 80 46 00 45 33 80 F0 FF  FF 7F F0 FF FF 7F 66 64  .F.E3.........fd
08B0: 69 30 10 80 21 00                                 i0..!.          
```

#### Opcodes

```
  0: 0x07FC [0x5E] EventEntity goes idle (kills current action) (animation: "idl0")
  1: 0x0801 [0x42] SET_CLI_EVENT_CANCEL_DATA()
  2: 0x0802 [0x45] LOAD_SCHEDULED_TASK: Load scheduler "fdo0" with entities [LocalPlayer, LocalPlayer], work=[200*, 0*]
  3: 0x0813 [0x55] WAIT_LOAD_SCHEDULER: Wait for scheduler "fdo0" with entities [LocalPlayer, LocalPlayer], work=200*
  4: 0x0822 [0x46] CAMERA_CONTROL: Disable user control
  5: 0x0824 [0x38] SET_CLIENT_EVENT_MODE(mode=3*)
  6: 0x0827 [0x45] LOAD_SCHEDULED_TASK: Load scheduler "s013" with entities [EventEntity, EventEntity], work=[161*, 0*]
  7: 0x0838 [0x29] REQ_SET_WAIT(priority=0x0A, entity_id=LocalPlayer, tag_num=0x4C)
  8: 0x083F [0x1E] EventEntity looks at LocalPlayer and starts talking
  9: 0x0844 [0x45] LOAD_SCHEDULED_TASK: Load scheduler "fdi0" with entities [LocalPlayer, LocalPlayer], work=[200*, 0*]
 10: 0x0855 [0x1D] PRINT_EVENT_MESSAGE(message_id=9909*)
    → "My bird's repairs are going smoother than I could have ever imagined. With all the confusion in Jeuno, nobody has the time to complain about an unauthorized test run every now and then! Hah hah hah!"
 11: 0x0858 [0x23] WAIT_FOR_DIALOG_INTERACTION
 12: 0x0859 [0x5B] LOAD_EXT_SCHEDULER: Load scheduler "kak0" with entities [Cid (ID: 17748011/0x010ED02B), Cid (ID: 17748011/0x010ED02B)], work=110*
 13: 0x0868 [0x1D] PRINT_EVENT_MESSAGE(message_id=9910*)
    → "Yeah, but to tell you the truth, I'm sure glad I got to meet up with Prishe again. She's one hell of a girl. I wouldn't be surprised if she saved Vana'diel with her own two hands!"
 14: 0x086B [0x23] WAIT_FOR_DIALOG_INTERACTION
 15: 0x086C [0x5B] LOAD_EXT_SCHEDULER: Load scheduler "kak1" with entities [Cid (ID: 17748011/0x010ED02B), Cid (ID: 17748011/0x010ED02B)], work=110*
 16: 0x087B [0x1C] WAIT(30* ticks)
 17: 0x087E [0x45] LOAD_SCHEDULED_TASK: Load scheduler "fdo0" with entities [LocalPlayer, LocalPlayer], work=[200*, 0*]
 18: 0x088F [0x55] WAIT_LOAD_SCHEDULER: Wait for scheduler "fdo0" with entities [LocalPlayer, LocalPlayer], work=200*
 19: 0x089E [0x1C] WAIT(15* ticks)
 20: 0x08A1 [0x46] CAMERA_CONTROL: Restore default settings
 21: 0x08A3 [0x45] LOAD_SCHEDULED_TASK: Load scheduler "fdi0" with entities [LocalPlayer, LocalPlayer], work=[200*, 0*]
 22: 0x08B4 [0x21] END_EVENT
 23: 0x08B5 [0x00] END_REQSTACK()
```

### Event 845

#### Metadata

| Field        | Value   |
|--------------|---------|
| Entrypoint   | 0x08B6  |
| Data Size    | 1 bytes |
| Instructions | 1       |

```
      00 01 02 03 04 05 06 07  08 09 0A 0B 0C 0D 0E 0F
      -- -- -- -- -- -- -- --  -- -- -- -- -- -- -- --
08B0:                   00                                    .         
```

#### Opcodes

```
  0: 0x08B6 [0x00] END_REQSTACK()
```

### Event 65535.14

#### Metadata

| Field        | Value    |
|--------------|----------|
| Entrypoint   | 0x08B7   |
| Data Size    | 25 bytes |
| Instructions | 6        |

```
      00 01 02 03 04 05 06 07  08 09 0A 0B 0C 0D 0E 0F
      -- -- -- -- -- -- -- --  -- -- -- -- -- -- -- --
08B0:                      79  00 F8 FF FF 7F 2F D0 0E         y...../..
08C0: 01 32 1A 80 1F 00 8B 80  8C 80 02 80 1F 01 6F 00  .2............o.
```

#### Opcodes

```
  0: 0x08B7 [0x79] EventEntity looks at Ayame (ID: 17748015/0x010ED02F) (Basic look)
  1: 0x08C1 [0x32] ExtData[1]->MainSpeed = 13* * 0.1
  2: 0x08C4 [0x1F] MOVE_ENTITY: EventEntity moves to X=-12.698*, Z=1.930*, Y=-10.988*
  3: 0x08CC [0x1F] MOVE_ENTITY: Update entity position (mode=1)
  4: 0x08CE [0x6F] WAIT_FRAME_DELAY: Yield until WaitTime reaches zero
  5: 0x08CF [0x00] END_REQSTACK()
```

### Event 65535.15

#### Metadata

| Field        | Value    |
|--------------|----------|
| Entrypoint   | 0x08D0   |
| Data Size    | 10 bytes |
| Instructions | 2        |

```
      00 01 02 03 04 05 06 07  08 09 0A 0B 0C 0D 0E 0F
      -- -- -- -- -- -- -- --  -- -- -- -- -- -- -- --
08D0: 37 10 80 8D 80 8E 80 8F  80 00                    7.........      
```

#### Opcodes

```
