# 17748077 - Cornelia

## Common Data

| Field            | Value                |
|------------------|----------------------|
| Zone             | Metalworks (ID: 237) |
| Block Size       | 132 bytes            |
| Total Events     | 5                    |
| References Count | 9                    |

## List of Events

| Event ID                 | Entrypoint   |   Size |   Instructions |
|--------------------------|--------------|--------|----------------|
| [65535](#event-65535)    | 0x0000       |      1 |              1 |
| [748](#event-748)        | 0x0001       |     10 |              2 |
| [65535.1](#event-655351) | 0x000B       |     24 |              6 |
| [749](#event-749)        | 0x0023       |     10 |              2 |
| [65535.2](#event-655352) | 0x002D       |     15 |              5 |

## DAT References (imed_data)

|   Index | Hex Value   |   Dec Value |
|---------|-------------|-------------|
|       0 | 0x5340      |       21312 |
|       1 | 0xFFFFED1A  |  4294962458 |
|       2 | 0xFFFFC950  |  4294953296 |
|       3 | 0x0F41      |        3905 |
|       4 | 0x000D      |          13 |
|       5 | 0x3618      |       13848 |
|       6 | 0xFFFFE44F  |  4294960207 |
|       7 | 0xFFFFC951  |  4294953297 |
|       8 | 0x2290      |        8848 |

## Events

### Event 65535

#### Metadata

| Field        | Value   |
|--------------|---------|
| Entrypoint   | 0x0000  |
| Data Size    | 1 bytes |
| Instructions | 1       |

```
      00 01 02 03 04 05 06 07  08 09 0A 0B 0C 0D 0E 0F
      -- -- -- -- -- -- -- --  -- -- -- -- -- -- -- --
0000: 00                                                .               
```

#### Opcodes

```
  0: 0x0000 [0x00] END_REQSTACK()
```

### Event 748

#### Metadata

| Field        | Value    |
|--------------|----------|
| Entrypoint   | 0x0001   |
| Data Size    | 10 bytes |
| Instructions | 2        |

```
      00 01 02 03 04 05 06 07  08 09 0A 0B 0C 0D 0E 0F
      -- -- -- -- -- -- -- --  -- -- -- -- -- -- -- --
0000:    37 00 80 01 80 02 80  03 80 00                  7.........     
```

#### Opcodes

```
  0: 0x0001 [0x37] UPDATE_EVENT_POSITION_AND_DIR: x=21.312*, z=-4.838*, y=-14.000*, direction=343.2°*
  1: 0x000A [0x00] END_REQSTACK()
```

### Event 65535.1

#### Metadata

| Field        | Value    |
|--------------|----------|
| Entrypoint   | 0x000B   |
| Data Size    | 24 bytes |
| Instructions | 6        |

```
      00 01 02 03 04 05 06 07  08 09 0A 0B 0C 0D 0E 0F
      -- -- -- -- -- -- -- --  -- -- -- -- -- -- -- --
0000:                                   32 04 80 1F 00             2....
0010: 05 80 06 80 07 80 1F 01  1F 00 08 80 06 80 07 80  ................
0020: 1F 01 00                                          ...             
```

#### Opcodes

```
  0: 0x000B [0x32] ExtData[1]->MainSpeed = 13* * 0.1
  1: 0x000E [0x1F] MOVE_ENTITY: EventEntity moves to X=13.848*, Z=-7.089*, Y=-13.999*
  2: 0x0016 [0x1F] MOVE_ENTITY: Update entity position (mode=1)
  3: 0x0018 [0x1F] MOVE_ENTITY: EventEntity moves to X=8.848*, Z=-7.089*, Y=-13.999*
  4: 0x0020 [0x1F] MOVE_ENTITY: Update entity position (mode=1)
  5: 0x0022 [0x00] END_REQSTACK()
```

### Event 749

#### Metadata

| Field        | Value    |
|--------------|----------|
| Entrypoint   | 0x0023   |
| Data Size    | 10 bytes |
| Instructions | 2        |

```
      00 01 02 03 04 05 06 07  08 09 0A 0B 0C 0D 0E 0F
      -- -- -- -- -- -- -- --  -- -- -- -- -- -- -- --
0020:          37 05 80 06 80  07 80 03 80 00              7.........   
```

#### Opcodes

```
  0: 0x0023 [0x37] UPDATE_EVENT_POSITION_AND_DIR: x=13.848*, z=-7.089*, y=-13.999*, direction=343.2°*
  1: 0x002C [0x00] END_REQSTACK()
```

### Event 65535.2

#### Metadata

| Field        | Value    |
|--------------|----------|
| Entrypoint   | 0x002D   |
| Data Size    | 15 bytes |
| Instructions | 5        |

```
      00 01 02 03 04 05 06 07  08 09 0A 0B 0C 0D 0E 0F
      -- -- -- -- -- -- -- --  -- -- -- -- -- -- -- --
0020:                                         32 04 80               2..
0030: 1F 00 00 80 01 80 02 80  1F 01 6F 00              ..........o.    
```

#### Opcodes

```
  0: 0x002D [0x32] ExtData[1]->MainSpeed = 13* * 0.1
  1: 0x0030 [0x1F] MOVE_ENTITY: EventEntity moves to X=21.312*, Z=-4.838*, Y=-14.000*
  2: 0x0038 [0x1F] MOVE_ENTITY: Update entity position (mode=1)
  3: 0x003A [0x6F] WAIT_FRAME_DELAY: Yield until WaitTime reaches zero
  4: 0x003B [0x00] END_REQSTACK()
```
