# 17748169 - Hildolf

## Common Data

| Field            | Value                |
|------------------|----------------------|
| Zone             | Metalworks (ID: 237) |
| Block Size       | 4740 bytes           |
| Total Events     | 12                   |
| References Count | 117                  |

## List of Events

| Event ID                 | Entrypoint   |   Size |   Instructions |
|--------------------------|--------------|--------|----------------|
| [65535](#event-65535)    | 0x0000       |      1 |              1 |
| [964](#event-964)        | 0x0001       |    890 |            142 |
| [965](#event-965)        | 0x037B       |     47 |             17 |
| [966](#event-966)        | 0x03AA       |    453 |             63 |
| [967](#event-967)        | 0x056F       |     11 |              5 |
| [65535.1](#event-655351) | 0x057A       |     14 |              4 |
| [978](#event-978)        | 0x0588       |     33 |              9 |
| [977](#event-977)        | 0x05A9       |    916 |            133 |
| [973](#event-973)        | 0x093D       |    591 |             84 |
| [974](#event-974)        | 0x0B8C       |     34 |              8 |
| [975](#event-975)        | 0x0BAE       |   1187 |            161 |
| [976](#event-976)        | 0x1051       |     30 |             10 |

## DAT References (imed_data)

|   Index | Hex Value   |   Dec Value |
|---------|-------------|-------------|
|       0 | 0x00C8      |         200 |
|       1 | 0x0000      |           0 |
|       2 | 0x003C      |          60 |
|       3 | 0x0013      |          19 |
|       4 | 0xFFFEC013  |  4294885395 |
|       5 | 0xFFFFB987  |  4294949255 |
|       6 | 0x07D0      |        2000 |
|       7 | 0x0800      |        2048 |
|       8 | 0x01C8      |         456 |
|       9 | 0x1CA6      |        7334 |
|      10 | 0x1C96      |        7318 |
|      11 | 0x1C97      |        7319 |
|      12 | 0x1C98      |        7320 |
|      13 | 0x0006      |           6 |
|      14 | 0x005A      |          90 |
|      15 | 0x1C9A      |        7322 |
|      16 | 0x0001      |           1 |
|      17 | 0x0007      |           7 |
|      18 | 0x1C99      |        7321 |
|      19 | 0x1C9B      |        7323 |
|      20 | 0x1C9C      |        7324 |
|      21 | 0x1C9D      |        7325 |
|      22 | 0x1C9E      |        7326 |
|      23 | 0x1C9F      |        7327 |
|      24 | 0x1CA0      |        7328 |
|      25 | 0x1CA1      |        7329 |
|      26 | 0x1CA2      |        7330 |
|      27 | 0x1CA3      |        7331 |
|      28 | 0x1CA4      |        7332 |
|      29 | 0x1CA5      |        7333 |
|      30 | 0x0002      |           2 |
|      31 | 0x04D2      |        1234 |
|      32 | 0x1CA7      |        7335 |
|      33 | 0x1CA8      |        7336 |
|      34 | 0x1CA9      |        7337 |
|      35 | 0x1003      |        4099 |
|      36 | 0x0300      |         768 |
|      37 | 0x0257      |         599 |
|      38 | 0x0678      |        1656 |
|      39 | 0x1CAA      |        7338 |
|      40 | 0x1CAB      |        7339 |
|      41 | 0x1CAC      |        7340 |
|      42 | 0x1CAD      |        7341 |
|      43 | 0x1CAE      |        7342 |
|      44 | 0x1CAF      |        7343 |
|      45 | 0xFFFEB7E1  |  4294883297 |
|      46 | 0xFFFFB9B1  |  4294949297 |
|      47 | 0x0200      |         512 |
|      48 | 0x1CB5      |        7349 |
|      49 | 0x1CB0      |        7344 |
|      50 | 0x00F0      |         240 |
|      51 | 0x1CB1      |        7345 |
|      52 | 0x1CB2      |        7346 |
|      53 | 0x1CB3      |        7347 |
|      54 | 0x00C9      |         201 |
|      55 | 0x1CB4      |        7348 |
|      56 | 0x000D      |          13 |
|      57 | 0xFFFEBAAC  |  4294884012 |
|      58 | 0xFFFFB37C  |  4294947708 |
|      59 | 0x001E      |          30 |
|      60 | 0x1CC0      |        7360 |
|      61 | 0x0009      |           9 |
|      62 | 0x1CC1      |        7361 |
|      63 | 0x022D      |         557 |
|      64 | 0x1CB6      |        7350 |
|      65 | 0x027D      |         637 |
|      66 | 0x0AE8      |        2792 |
|      67 | 0x1CB7      |        7351 |
|      68 | 0x1CB8      |        7352 |
|      69 | 0x1CB9      |        7353 |
|      70 | 0x1CBA      |        7354 |
|      71 | 0x0AE0      |        2784 |
|      72 | 0x0AE1      |        2785 |
|      73 | 0x0AE2      |        2786 |
|      74 | 0x0AE3      |        2787 |
|      75 | 0x0AE4      |        2788 |
|      76 | 0x0AE5      |        2789 |
|      77 | 0x0AE6      |        2790 |
|      78 | 0x0AE7      |        2791 |
|      79 | 0x1CBB      |        7355 |
|      80 | 0x0003      |           3 |
|      81 | 0x0004      |           4 |
|      82 | 0x0005      |           5 |
|      83 | 0x0008      |           8 |
|      84 | 0x1CBC      |        7356 |
|      85 | 0x1CBD      |        7357 |
|      86 | 0x1CBE      |        7358 |
|      87 | 0x1CBF      |        7359 |
|      88 | 0x1CC2      |        7362 |
|      89 | 0x1CC3      |        7363 |
|      90 | 0x1CC4      |        7364 |
|      91 | 0x1CC5      |        7365 |
|      92 | 0x1CC6      |        7366 |
|      93 | 0x1CCA      |        7370 |
|      94 | 0x1CC7      |        7367 |
|      95 | 0x1CCB      |        7371 |
|      96 | 0x1CC8      |        7368 |
|      97 | 0x1CC9      |        7369 |
|      98 | 0x1CCC      |        7372 |
|      99 | 0x1CCD      |        7373 |
|     100 | 0x1CCE      |        7374 |
|     101 | 0x0100      |         256 |
|     102 | 0x1CCF      |        7375 |
|     103 | 0x00BE      |         190 |
|     104 | 0x0078      |         120 |
|     105 | 0x00C1      |         193 |
|     106 | 0x00BD      |         189 |
|     107 | 0x00BF      |         191 |
|     108 | 0x00C0      |         192 |
|     109 | 0x00BC      |         188 |
|     110 | 0x00C2      |         194 |
|     111 | 0x00C3      |         195 |
|     112 | 0x1CD0      |        7376 |
|     113 | 0x1CD1      |        7377 |
|     114 | 0x1CD2      |        7378 |
|     115 | 0x001A      |          26 |
|     116 | 0x1CD3      |        7379 |

## String References

- **7318**: Welcome to the Bastokan Institute for Synergistic Research. I am Hildolf, chairman and lead researcher.
- **7319**: And you... You must be another young [man/woman] drawn here by the pungent but oh-so-sweet smell of science. An aspiring synergist! Am I right?
- **7320**: Learn about synergy? [Not now./Of course!]
- **7321**: Excellent! Your intellectual curiosity will serve you well as you embark on the path of science. Ours is a young discipline, with its greatest discoveries and breakthroughs yet to come, but I shall share with you the fruits of our research thus far.
- **7322**: I see. I suppose the path of science is not for everyone. Should you ever find your curiosity piqued, the doors of our laboratory are always open.
- **7323**: Let us start from square one. What is synergy? Why, synergy is synthesis taken to the nth degree! Synergists wield the powers of multiple elements, bringing them together in perfect balance to realize heretofore unimagined possibilities!
- **7324**: And this is what makes synergy possible: the synergy furnace! Isn't she a beauty?
- **7325**: Just pop open the top, toss in your materials along with your fewell--that's what we call the stuff that powers the thing--spin some wheels and pull some levers, and...voila! Prepare to be amazed by what comes out!
- **7326**: ...In theory, at least. Our research is still in the early stages, and the recipes that we've managed to confirm are, as yet, few and far between.
- **7327**: There are other complicating factors as well. Ingenious invention though it may be, the synergy furnace is yet but a prototype, and remains--how shall I say it--a bit unstable.
- **7328**: As such, it is imperative that the operator exercise utmost caution to maintain the proper elemental balance at all times. In other words, fewell must be added in proper proportions, but with the contents of the furnace in a constant state of flux, this is no small task.
- **7329**: Failure to maintain equilibrium may result in explosions, implosions, spontaneous combustions, or other unexpected and unpleasant results. Make no mistake: synergy is not a science for the faint of heart.
- **7330**: Fortunately, there is good news. The synergy furnace, you see, is designed to allow for manipulation by multiple operators at once.
- **7331**: Combine your knowledge and skill with that of your colleagues, master the process of maintaining equilibrium, and there is simply no limit to the wonders you may materialize. Truly a case of the whole being greater than the sum of its parts!
- **7332**: So what do you say? Think you're ready to give the synergy furnace a spin for yourself?
- **7333**: Become a synergist? [Maybe another time./Sign me up!]
- **7334**: Oh, it's you again. Don't tell me--your curiosity has gotten the better of you, hasn't it?
- **7335**: Wonderful! Another test subj--er, budding synergist! First, we'll be needing to set you up with $6.
- **7336**: A what, you say? Put simply, it's a receptacle to hold your materials and fewell, designed to be used in conjunction with the communal synergy furnaces stationed about town.
- **7337**: I would be happy to put one together for you, provided you furnish me with the components necessary for its construction. Let me see here...
- **7338**: $0, $1...$2, and... Yes, yes...$3. That should be all we need.
- **7339**: The $0 and the $1 can be acquired in abundance from the worms that inhabit Gustaberg. For the $2, an expedition to the Palborough Mines might be in order.
- **7340**: If you're acquainted with a good goldsmith, the $3 shouldn't be a problem. If not, there's always the auction house.
- **7341**: All you need to do is trade these components to me, and prepare to enter the exciting world of synergy!
- **7342**: What? You've forgotten which materials you need? Tsk tsk. Ah well, you wouldn't be the first absent-minded synergist. Now listen carefully this time...
- **7343**: Stupendous! Can hardly wait to kick-start your career as a synergist, I see. Well, who am I to keep you waiting any longer?
- **7344**: And there you have it! Your very own $3, designed to be compatible with any synergy furnace. And as an added bonus to commemorate the birth of a new synergist, your first fill-up of fewell is on the house!
- **7345**: My only regret is that I haven't the time to personally educate a promising young synergist like you on all the intricacies of our field. You should seek out the synergy engineers stationed throughout town. They're always eager to share their knowledge with new colleagues.
- **7346**: Ah, yes. After you've honed your skills a bit, you should stop by the Alchemists' Guild. I haven't had the time to look into it myself, but word has it that their new invention has the synergistic community abuzz.
- **7347**: Now, if you'll forgive me, my research calls. May your career in synergy be a fruitful one!
- **7348**: Would that I had the time to discuss my latest discoveries with a fellow synergist! Sadly, I cannot afford even a second away from my experiments...
- **7349**: 
- **7350**: Well, well...if it isn't my prize pupil! That sparkle in your eyes tells me that you are well on your way down the path toward scientific enlightenment.
- **7351**: Should you ever find your fewell stores running low, remember that it is a painless enough process to synthesize yourself some more. You need only prepare the corresponding crystal and rock, together with $0 and $1.
- **7352**: ...The catch being that the procedure demands a certain degree of alchemical aptitude.
- **7353**: If you are in immediate need of fewell, I could provide you with a supply from my stock.
- **7354**: Don't mention it, friend! After all, cooperation among synergists will only serve to further the advancement of our fair science.
- **7355**: Obtain fewell? [#./$1./$2./$3./$4./$5./$6./$7./Perhaps another time.]
- **7356**: You require more time to ponder your decision, yes? A common plight of the prudent synergist, as I know all too well.
- **7357**: It is $0 you seek, yes?
- **7358**: Accept fewell? [Yes./No.]
- **7359**: It is my pleasure to provide you with $1 $0 . May [it/they] serve you well!
- **7360**: Greetings, and welcome to the Bastokan Institute for Synergistic Research! I am Hildolf, chairman and lead researcher.
- **7361**: While I would like nothing more than to expound on the wonders of synergy, I fear my experiments demand my undivided attention. I would encourage you to speak with one of our engineers stationed throughout town should you wish to learn more about our science.
- **7362**: Ah, always a pleasure to encounter a fellow synergist! I see you've been keeping your $3 in fine fettle.
- **7363**: Do you perchance find your fewell tanks running low after synergizing up a storm?
- **7364**: In my capacity as a pedagogue of the synergistic arts, it is my firm belief that my pupils learn best from solving their problems by their own devices.
- **7365**: That said, I would sooner see you in front of a furnace than fretting endlessly over a depleted fewell supply. Hence my offer.
- **7366**: Bring to me $0 and I will gladly synthesize whichever variety of fewell you desire. What say you to my offer?
- **7367**: What say you? [By all means!/Not today.]
- **7368**: So your fewell stock is sufficiently full? All the better, then.
- **7369**: Then, if you will excuse me, I must return to my research. May your synergistic pursuits lead you to knowledge and enlightenment!
- **7370**: Welcome back, my pupil. Do you find yourself in need of fewell today?
- **7371**: Very well. Bring to me $0 and I will gladly synthesize whichever variety of fewell you desire.
- **7372**: Bring to me $0 and I will gladly synthesize whichever variety of fewell you desire.
- **7373**: Yes, this is certainly $0. There can be no mistaking it.
- **7374**: As promised, I shall synthesize for you the fewell you desire. What shall it be?
- **7375**: Very well! Now step back and gaze upon Professor Hildolf's Synthesis 101. This will be on the test, so you may want to take notes.
- **7376**: Hildolf synthesized $1 $0 !
- **7377**: Now that's some smooth synthesizing, if I do say so myself! And since my laboratory is already overflowing with fewell, why don't you take it all?
- **7378**: Hm? Running low on fewell again, you say?
- **7379**: I sympathize, but as my research affords me no time to help you today. Remember, the true synergist is ever resourceful. I leave you to your own devices.

## Events

### Event 65535

#### Metadata

| Field        | Value   |
|--------------|---------|
| Entrypoint   | 0x0000  |
| Data Size    | 1 bytes |
| Instructions | 1       |

```
      00 01 02 03 04 05 06 07  08 09 0A 0B 0C 0D 0E 0F
      -- -- -- -- -- -- -- --  -- -- -- -- -- -- -- --
0000: 00                                                .               
```

#### Opcodes

```
  0: 0x0000 [0x00] END_REQSTACK()
```

### Event 964

#### Metadata

| Field        | Value     |
|--------------|-----------|
| Entrypoint   | 0x0001    |
| Data Size    | 890 bytes |
| Instructions | 125       |

```
      00 01 02 03 04 05 06 07  08 09 0A 0B 0C 0D 0E 0F
      -- -- -- -- -- -- -- --  -- -- -- -- -- -- -- --
0000:    42 20 01 46 01 45 00  80 F0 FF FF 7F F0 FF FF   B .F.E.........
0010: 7F 66 64 6F 31 01 80 1C  02 80 38 03 80 BA F0 FF  .fdo1.....8.....
0020: FF 7F 04 80 05 80 06 80  07 80 80 F0 FF FF 7F 80  ................
0030: C9 D0 0E 01 80 CD D0 0E  01 92 01 C9 D0 0E 01 92  ................
0040: 01 CD D0 0E 01 1E F0 FF  FF 7F 6F 70 79 00 F0 FF  ..........opy...
0050: FF 7F F8 FF FF 7F 45 08  80 F0 FF FF 7F F0 FF FF  ......E.........
0060: 7F 38 39 30 31 01 80 45  00 80 F0 FF FF 7F F0 FF  .8901..E........
0070: FF 7F 66 64 69 31 01 80  1C 02 80 55 08 80 F0 FF  ..fdi1.....U....
0080: FF 7F F0 FF FF 7F 38 39  30 31 66 01 80 F8 FF FF  ......8901f.....
0090: 7F F8 FF FF 7F 74 6C 6B  30 52 08 80 F0 FF FF 7F  .....tlk0R......
00A0: F0 FF FF 7F 38 39 30 31  45 08 80 F0 FF FF 7F F0  ....8901E.......
00B0: FF FF 7F 38 39 30 32 01  80 02 02 10 01 80 01 C8  ...8902.........
00C0: 00 1D 09 80 23 01 65 02  1D 0A 80 23 1D 0B 80 23  ....#.e....#...#
00D0: 52 08 80 F0 FF FF 7F F0  FF FF 7F 38 39 30 32 45  R..........8902E
00E0: 08 80 F0 FF FF 7F F0 FF  FF 7F 38 39 30 35 01 80  ..........8905..
00F0: 66 01 80 F8 FF FF 7F F8  FF FF 7F 74 6C 6B 31 24  f..........tlk1$
0100: 0C 80 01 80 01 80 25 02  00 10 01 80 00 3C 01 6E  ......%......<.n
0110: F0 FF FF 7F 0D 80 99 F0  FF FF 7F 99 F0 FF FF 7F  ................
0120: 1C 0E 80 66 01 80 F8 FF  FF 7F F8 FF FF 7F 74 6C  ...f..........tl
0130: 6B 30 1D 0F 80 23 01 32  03 01 5E 01 02 00 10 10  k0...#.2..^.....
0140: 80 00 5E 01 6E F0 FF FF  7F 11 80 99 F0 FF FF 7F  ..^.n...........
0150: 99 F0 FF FF 7F 1C 0E 80  01 5E 01 01 5E 01 52 08  .........^..^.R.
0160: 80 F0 FF FF 7F F0 FF FF  7F 38 39 30 35 45 08 80  .........8905E..
0170: F0 FF FF 7F F0 FF FF 7F  38 39 30 36 01 80 66 01  ........8906..f.
0180: 80 F8 FF FF 7F F8 FF FF  7F 74 6C 6B 30 1D 12 80  .........tlk0...
0190: 23 1D 13 80 23 52 08 80  F0 FF FF 7F F0 FF FF 7F  #...#R..........
01A0: 38 39 30 36 45 08 80 F0  FF FF 7F F0 FF FF 7F 38  8906E..........8
01B0: 39 30 33 01 80 1D 14 80  23 1D 15 80 23 1D 16 80  903.....#...#...
01C0: 23 52 08 80 F0 FF FF 7F  F0 FF FF 7F 38 39 30 33  #R..........8903
01D0: 4E 01 F0 FF FF 7F 45 00  80 F0 FF FF 7F F0 FF FF  N.....E.........
01E0: 7F 6F 76 6C 31 01 80 45  08 80 F0 FF FF 7F F0 FF  .ovl1..E........
01F0: FF 7F 38 39 30 34 01 80  1D 17 80 23 1D 18 80 23  ..8904.....#...#
0200: 1D 19 80 23 52 08 80 F0  FF FF 7F F0 FF FF 7F 38  ...#R..........8
0210: 39 30 34 4E 00 F0 FF FF  7F 45 08 80 F0 FF FF 7F  904N.....E......
0220: F0 FF FF 7F 38 39 30 32  01 80 1D 1A 80 23 1D 1B  ....8902.....#..
0230: 80 23 1D 1C 80 23 52 08  80 F0 FF FF 7F F0 FF FF  .#...#R.........
0240: 7F 38 39 30 32 45 08 80  F0 FF FF 7F F0 FF FF 7F  .8902E..........
0250: 38 39 30 35 01 80 66 01  80 F8 FF FF 7F F8 FF FF  8905..f.........
0260: 7F 74 6C 6B 31 24 1D 80  01 80 01 80 25 02 00 10  .tlk1$......%...
0270: 01 80 00 A7 02 6E F0 FF  FF 7F 0D 80 99 F0 FF FF  .....n..........
0280: 7F 99 F0 FF FF 7F 1C 0E  80 03 01 10 10 80 66 01  ..............f.
0290: 80 F8 FF FF 7F F8 FF FF  7F 74 6C 6B 30 1D 0F 80  .........tlk0...
02A0: 23 01 32 03 01 CE 02 02  00 10 10 80 00 CE 02 6E  #.2............n
02B0: F0 FF FF 7F 11 80 99 F0  FF FF 7F 99 F0 FF FF 7F  ................
02C0: 1C 0E 80 03 01 10 1E 80  01 CE 02 01 CE 02 52 08  ..............R.
02D0: 80 F0 FF FF 7F F0 FF FF  7F 38 39 30 35 45 08 80  .........8905E..
02E0: F0 FF FF 7F F0 FF FF 7F  38 39 30 37 01 80 66 01  ........8907..f.
02F0: 80 F8 FF FF 7F F8 FF FF  7F 74 6C 6B 30 03 02 10  .........tlk0...
0300: 1F 80 1D 20 80 23 1D 21  80 23 1D 22 80 23 03 02  ... .#.!.#.".#..
0310: 10 23 80 03 03 10 24 80  03 04 10 25 80 03 05 10  .#....$....%....
0320: 26 80 1D 27 80 23 1D 28  80 23 1D 29 80 23 1D 2A  &..'.#.(.#.).#.*
0330: 80 23 45 00 80 F0 FF FF  7F F0 FF FF 7F 66 64 6F  .#E..........fdo
0340: 31 01 80 1C 02 80 52 08  80 F0 FF FF 7F F0 FF FF  1.....R.........
0350: 7F 38 39 30 35 52 08 80  F0 FF FF 7F F0 FF FF 7F  .8905R..........
0360: 38 39 30 37 46 00 45 00  80 F0 FF FF 7F F0 FF FF  8907F.E.........
0370: 7F 66 64 69 31 01 80 20  00 21 00                 .fdi1.. .!.     
```

#### Opcodes

```
  0: 0x0001 [0x42] SET_CLI_EVENT_CANCEL_DATA()
  1: 0x0002 [0x20] SET_CLI_EVENT_UC_FLAG: Lock player control
  2: 0x0004 [0x46] CAMERA_CONTROL: Disable user control
  3: 0x0006 [0x45] LOAD_SCHEDULED_TASK: Load scheduler "fdo1" with entities [LocalPlayer, LocalPlayer], work=[200*, 0*]
  4: 0x0017 [0x1C] WAIT(60* ticks)
  5: 0x001A [0x38] SET_CLIENT_EVENT_MODE(mode=19*)
  6: 0x001D [0xBA] SET_ENTITY_POSITION(entity_id=LocalPlayer, pos_x=-81.901*, pos_z=-18.041*, pos_y=2.000*, direction=180.0°*)
  7: 0x002A [0x80] LOAD_WAIT(entity=LocalPlayer)
  8: 0x002F [0x80] LOAD_WAIT(entity=Hildolf (ID: 17748169/0x010ED0C9))
  9: 0x0034 [0x80] LOAD_WAIT(entity=Synergy Furnace (ID: 17748173/0x010ED0CD))
 10: 0x0039 [0x92] Hildolf (ID: 17748169/0x010ED0C9)->Render.Flags3 ^= 0x01
 11: 0x003F [0x92] Synergy Furnace (ID: 17748173/0x010ED0CD)->Render.Flags3 ^= 0x01
 12: 0x0045 [0x1E] EventEntity looks at LocalPlayer and starts talking
 13: 0x004A [0x6F] WAIT_FRAME_DELAY: Yield until WaitTime reaches zero
 14: 0x004B [0x70] WAIT_ENTITY_RENDER_FLAG: Wait while EventEntity->Render.Flags3 bit 2 is set (cancel turn if not)
 15: 0x004C [0x79] LocalPlayer looks at EventEntity (Basic look)
 16: 0x0056 [0x45] LOAD_SCHEDULED_TASK: Load scheduler "8901" with entities [LocalPlayer, LocalPlayer], work=[456*, 0*]
 17: 0x0067 [0x45] LOAD_SCHEDULED_TASK: Load scheduler "fdi1" with entities [LocalPlayer, LocalPlayer], work=[200*, 0*]
 18: 0x0078 [0x1C] WAIT(60* ticks)
 19: 0x007B [0x55] WAIT_LOAD_SCHEDULER: Wait for scheduler "8901" with entities [LocalPlayer, LocalPlayer], work=456*
 20: 0x008A [0x66] LOAD_EXT_SCHEDULER_MAIN: Load scheduler "tlk0" with entities [EventEntity, EventEntity], work=0*
 21: 0x0099 [0x52] END_LOAD_SCHEDULER: End scheduler "8901" with entities [LocalPlayer, LocalPlayer], work=456*
 22: 0x00A8 [0x45] LOAD_SCHEDULED_TASK: Load scheduler "8902" with entities [LocalPlayer, LocalPlayer], work=[456*, 0*]
 23: 0x00B9 [0x02] IF !(Work_Zone[2] == 0*) GOTO 0x00C8
 24: 0x00C1 [0x1D] PRINT_EVENT_MESSAGE(message_id=7334*)
    → "Oh, it's you again. Don't tell me--your curiosity has gotten the better of you, hasn't it?"
 25: 0x00C4 [0x23] WAIT_FOR_DIALOG_INTERACTION
 26: 0x00C5 [0x01] GOTO 0x0265
 27: 0x00C8 [0x1D] PRINT_EVENT_MESSAGE(message_id=7318*)
    → "Welcome to the Bastokan Institute for Synergistic Research. I am Hildolf, chairman and lead researcher."
 28: 0x00CB [0x23] WAIT_FOR_DIALOG_INTERACTION
 29: 0x00CC [0x1D] PRINT_EVENT_MESSAGE(message_id=7319*)
    → "And you... You must be another young [man/woman] drawn here by the pungent but oh-so-sweet smell of science. An aspiring synergist! Am I right?"
 30: 0x00CF [0x23] WAIT_FOR_DIALOG_INTERACTION
 31: 0x00D0 [0x52] END_LOAD_SCHEDULER: End scheduler "8902" with entities [LocalPlayer, LocalPlayer], work=456*
 32: 0x00DF [0x45] LOAD_SCHEDULED_TASK: Load scheduler "8905" with entities [LocalPlayer, LocalPlayer], work=[456*, 0*]
 33: 0x00F0 [0x66] LOAD_EXT_SCHEDULER_MAIN: Load scheduler "tlk1" with entities [EventEntity, EventEntity], work=0*
 34: 0x00FF [0x24] CREATE_DIALOG(message_id=7320*, default_option=0*, option_flags=0*)
    → "Learn about synergy? [Not now./Of course!]"
 35: 0x0106 [0x25] WAIT_DIALOG_SELECT()
 36: 0x0107 [0x02] IF !(Work_Zone[0] == 0*) GOTO 0x013C
 37: 0x010F [0x6E] LocalPlayer uses emote 6*
 38: 0x0116 [0x99] Wait for LocalPlayer animation to complete
 39: 0x011B [0x99] Wait for LocalPlayer animation to complete
 40: 0x0120 [0x1C] WAIT(90* ticks)
 41: 0x0123 [0x66] LOAD_EXT_SCHEDULER_MAIN: Load scheduler "tlk0" with entities [EventEntity, EventEntity], work=0*
 42: 0x0132 [0x1D] PRINT_EVENT_MESSAGE(message_id=7322*)
    → "I see. I suppose the path of science is not for everyone. Should you ever find your curiosity piqued, the doors of our laboratory are always open."
 43: 0x0135 [0x23] WAIT_FOR_DIALOG_INTERACTION
 44: 0x0136 [0x01] GOTO 0x0332

SUBROUTINE_015E:
 45: 0x015E [0x52] END_LOAD_SCHEDULER: End scheduler "8905" with entities [LocalPlayer, LocalPlayer], work=456*
 46: 0x016D [0x45] LOAD_SCHEDULED_TASK: Load scheduler "8906" with entities [LocalPlayer, LocalPlayer], work=[456*, 0*]
 47: 0x017E [0x66] LOAD_EXT_SCHEDULER_MAIN: Load scheduler "tlk0" with entities [EventEntity, EventEntity], work=0*
 48: 0x018D [0x1D] PRINT_EVENT_MESSAGE(message_id=7321*)
    → "Excellent! Your intellectual curiosity will serve you well as you embark on the path of science. Ours is a young discipline, with its greatest discoveries and breakthroughs yet to come, but I shall share with you the fruits of our research thus far."
 49: 0x0190 [0x23] WAIT_FOR_DIALOG_INTERACTION
 50: 0x0191 [0x1D] PRINT_EVENT_MESSAGE(message_id=7323*)
    → "Let us start from square one. What is synergy? Why, synergy is synthesis taken to the nth degree! Synergists wield the powers of multiple elements, bringing them together in perfect balance to realize heretofore unimagined possibilities!"
 51: 0x0194 [0x23] WAIT_FOR_DIALOG_INTERACTION
 52: 0x0195 [0x52] END_LOAD_SCHEDULER: End scheduler "8906" with entities [LocalPlayer, LocalPlayer], work=456*
 53: 0x01A4 [0x45] LOAD_SCHEDULED_TASK: Load scheduler "8903" with entities [LocalPlayer, LocalPlayer], work=[456*, 0*]
 54: 0x01B5 [0x1D] PRINT_EVENT_MESSAGE(message_id=7324*)
    → "And this is what makes synergy possible: the synergy furnace! Isn't she a beauty?"
 55: 0x01B8 [0x23] WAIT_FOR_DIALOG_INTERACTION
 56: 0x01B9 [0x1D] PRINT_EVENT_MESSAGE(message_id=7325*)
    → "Just pop open the top, toss in your materials along with your fewell--that's what we call the stuff that powers the thing--spin some wheels and pull some levers, and...voila! Prepare to be amazed by what comes out!"
 57: 0x01BC [0x23] WAIT_FOR_DIALOG_INTERACTION
 58: 0x01BD [0x1D] PRINT_EVENT_MESSAGE(message_id=7326*)
    → "...In theory, at least. Our research is still in the early stages, and the recipes that we've managed to confirm are, as yet, few and far between."
 59: 0x01C0 [0x23] WAIT_FOR_DIALOG_INTERACTION
 60: 0x01C1 [0x52] END_LOAD_SCHEDULER: End scheduler "8903" with entities [LocalPlayer, LocalPlayer], work=456*
 61: 0x01D0 [0x4E] SET_ENTITY_HIDE_FLAG: Hide LocalPlayer
 62: 0x01D6 [0x45] LOAD_SCHEDULED_TASK: Load scheduler "ovl1" with entities [LocalPlayer, LocalPlayer], work=[200*, 0*]
 63: 0x01E7 [0x45] LOAD_SCHEDULED_TASK: Load scheduler "8904" with entities [LocalPlayer, LocalPlayer], work=[456*, 0*]
 64: 0x01F8 [0x1D] PRINT_EVENT_MESSAGE(message_id=7327*)
    → "There are other complicating factors as well. Ingenious invention though it may be, the synergy furnace is yet but a prototype, and remains--how shall I say it--a bit unstable."
 65: 0x01FB [0x23] WAIT_FOR_DIALOG_INTERACTION
 66: 0x01FC [0x1D] PRINT_EVENT_MESSAGE(message_id=7328*)
    → "As such, it is imperative that the operator exercise utmost caution to maintain the proper elemental balance at all times. In other words, fewell must be added in proper proportions, but with the contents of the furnace in a constant state of flux, this is no small task."
 67: 0x01FF [0x23] WAIT_FOR_DIALOG_INTERACTION
 68: 0x0200 [0x1D] PRINT_EVENT_MESSAGE(message_id=7329*)
    → "Failure to maintain equilibrium may result in explosions, implosions, spontaneous combustions, or other unexpected and unpleasant results. Make no mistake: synergy is not a science for the faint of heart."
 69: 0x0203 [0x23] WAIT_FOR_DIALOG_INTERACTION
 70: 0x0204 [0x52] END_LOAD_SCHEDULER: End scheduler "8904" with entities [LocalPlayer, LocalPlayer], work=456*
 71: 0x0213 [0x4E] SET_ENTITY_HIDE_FLAG: Show LocalPlayer
 72: 0x0219 [0x45] LOAD_SCHEDULED_TASK: Load scheduler "8902" with entities [LocalPlayer, LocalPlayer], work=[456*, 0*]
 73: 0x022A [0x1D] PRINT_EVENT_MESSAGE(message_id=7330*)
    → "Fortunately, there is good news. The synergy furnace, you see, is designed to allow for manipulation by multiple operators at once."
 74: 0x022D [0x23] WAIT_FOR_DIALOG_INTERACTION
 75: 0x022E [0x1D] PRINT_EVENT_MESSAGE(message_id=7331*)
    → "Combine your knowledge and skill with that of your colleagues, master the process of maintaining equilibrium, and there is simply no limit to the wonders you may materialize. Truly a case of the whole being greater than the sum of its parts!"
 76: 0x0231 [0x23] WAIT_FOR_DIALOG_INTERACTION
 77: 0x0232 [0x1D] PRINT_EVENT_MESSAGE(message_id=7332*)
    → "So what do you say? Think you're ready to give the synergy furnace a spin for yourself?"
 78: 0x0235 [0x23] WAIT_FOR_DIALOG_INTERACTION
 79: 0x0236 [0x52] END_LOAD_SCHEDULER: End scheduler "8902" with entities [LocalPlayer, LocalPlayer], work=456*
 80: 0x0245 [0x45] LOAD_SCHEDULED_TASK: Load scheduler "8905" with entities [LocalPlayer, LocalPlayer], work=[456*, 0*]
 81: 0x0256 [0x66] LOAD_EXT_SCHEDULER_MAIN: Load scheduler "tlk1" with entities [EventEntity, EventEntity], work=0*

SUBROUTINE_0265:
 82: 0x0265 [0x24] CREATE_DIALOG(message_id=7333*, default_option=0*, option_flags=0*)
    → "Become a synergist? [Maybe another time./Sign me up!]"
 83: 0x026C [0x25] WAIT_DIALOG_SELECT()
 84: 0x026D [0x02] IF !(Work_Zone[0] == 0*) GOTO 0x02A7
 85: 0x0275 [0x6E] LocalPlayer uses emote 6*
 86: 0x027C [0x99] Wait for LocalPlayer animation to complete
 87: 0x0281 [0x99] Wait for LocalPlayer animation to complete
 88: 0x0286 [0x1C] WAIT(90* ticks)
 89: 0x0289 [0x03] Work_Zone[1] = 1*
 90: 0x028E [0x66] LOAD_EXT_SCHEDULER_MAIN: Load scheduler "tlk0" with entities [EventEntity, EventEntity], work=0*
 91: 0x029D [0x1D] PRINT_EVENT_MESSAGE(message_id=7322*)
    → "I see. I suppose the path of science is not for everyone. Should you ever find your curiosity piqued, the doors of our laboratory are always open."
 92: 0x02A0 [0x23] WAIT_FOR_DIALOG_INTERACTION
 93: 0x02A1 [0x01] GOTO 0x0332

SUBROUTINE_02CE:
 94: 0x02CE [0x52] END_LOAD_SCHEDULER: End scheduler "8905" with entities [LocalPlayer, LocalPlayer], work=456*
 95: 0x02DD [0x45] LOAD_SCHEDULED_TASK: Load scheduler "8907" with entities [LocalPlayer, LocalPlayer], work=[456*, 0*]
 96: 0x02EE [0x66] LOAD_EXT_SCHEDULER_MAIN: Load scheduler "tlk0" with entities [EventEntity, EventEntity], work=0*
 97: 0x02FD [0x03] Work_Zone[2] = 1234*
 98: 0x0302 [0x1D] PRINT_EVENT_MESSAGE(message_id=7335*)
    → "Wonderful! Another test subj--er, budding synergist! First, we'll be needing to set you up with $6."
 99: 0x0305 [0x23] WAIT_FOR_DIALOG_INTERACTION
100: 0x0306 [0x1D] PRINT_EVENT_MESSAGE(message_id=7336*)
    → "A what, you say? Put simply, it's a receptacle to hold your materials and fewell, designed to be used in conjunction with the communal synergy furnaces stationed about town."
101: 0x0309 [0x23] WAIT_FOR_DIALOG_INTERACTION
102: 0x030A [0x1D] PRINT_EVENT_MESSAGE(message_id=7337*)
    → "I would be happy to put one together for you, provided you furnish me with the components necessary for its construction. Let me see here..."
103: 0x030D [0x23] WAIT_FOR_DIALOG_INTERACTION
104: 0x030E [0x03] Work_Zone[2] = 4099*
105: 0x0313 [0x03] Work_Zone[3] = 768*
106: 0x0318 [0x03] Work_Zone[4] = 599*
107: 0x031D [0x03] Work_Zone[5] = 1656*
108: 0x0322 [0x1D] PRINT_EVENT_MESSAGE(message_id=7338*)
    → "$0, $1...$2, and... Yes, yes...$3. That should be all we need."
109: 0x0325 [0x23] WAIT_FOR_DIALOG_INTERACTION
110: 0x0326 [0x1D] PRINT_EVENT_MESSAGE(message_id=7339*)
    → "The $0 and the $1 can be acquired in abundance from the worms that inhabit Gustaberg. For the $2, an expedition to the Palborough Mines might be in order."
111: 0x0329 [0x23] WAIT_FOR_DIALOG_INTERACTION
112: 0x032A [0x1D] PRINT_EVENT_MESSAGE(message_id=7340*)
    → "If you're acquainted with a good goldsmith, the $3 shouldn't be a problem. If not, there's always the auction house."
113: 0x032D [0x23] WAIT_FOR_DIALOG_INTERACTION
114: 0x032E [0x1D] PRINT_EVENT_MESSAGE(message_id=7341*)
    → "All you need to do is trade these components to me, and prepare to enter the exciting world of synergy!"
115: 0x0331 [0x23] WAIT_FOR_DIALOG_INTERACTION

SUBROUTINE_0332:
116: 0x0332 [0x45] LOAD_SCHEDULED_TASK: Load scheduler "fdo1" with entities [LocalPlayer, LocalPlayer], work=[200*, 0*]
117: 0x0343 [0x1C] WAIT(60* ticks)
118: 0x0346 [0x52] END_LOAD_SCHEDULER: End scheduler "8905" with entities [LocalPlayer, LocalPlayer], work=456*
119: 0x0355 [0x52] END_LOAD_SCHEDULER: End scheduler "8907" with entities [LocalPlayer, LocalPlayer], work=456*
120: 0x0364 [0x46] CAMERA_CONTROL: Restore default settings
121: 0x0366 [0x45] LOAD_SCHEDULED_TASK: Load scheduler "fdi1" with entities [LocalPlayer, LocalPlayer], work=[200*, 0*]
122: 0x0377 [0x20] SET_CLI_EVENT_UC_FLAG: Unlock player control
123: 0x0379 [0x21] END_EVENT
124: 0x037A [0x00] END_REQSTACK()
```

#### Data or dead code:

```
# Dead code (unreachable instructions):
     0x0139 [0x01] GOTO 0x015E
     0x015B [0x01] GOTO 0x015E
# Dead code (unreachable instructions):
     0x02A4 [0x01] GOTO 0x02CE
     0x02CB [0x01] GOTO 0x02CE
```

### Event 965

#### Metadata

| Field        | Value    |
|--------------|----------|
| Entrypoint   | 0x037B   |
| Data Size    | 47 bytes |
| Instructions | 17       |

```
      00 01 02 03 04 05 06 07  08 09 0A 0B 0C 0D 0E 0F
      -- -- -- -- -- -- -- --  -- -- -- -- -- -- -- --
0370:                                   1E F0 FF FF 7F             .....
0380: 1D 2B 80 23 03 02 10 23  80 03 03 10 24 80 03 04  .+.#...#....$...
0390: 10 25 80 03 05 10 26 80  1D 27 80 23 1D 28 80 23  .%....&..'.#.(.#
03A0: 1D 29 80 23 1D 2A 80 23  21 00                    .).#.*.#!.      
```

#### Opcodes

```
  0: 0x037B [0x1E] EventEntity looks at LocalPlayer and starts talking
  1: 0x0380 [0x1D] PRINT_EVENT_MESSAGE(message_id=7342*)
    → "What? You've forgotten which materials you need? Tsk tsk. Ah well, you wouldn't be the first absent-minded synergist. Now listen carefully this time..."
  2: 0x0383 [0x23] WAIT_FOR_DIALOG_INTERACTION
  3: 0x0384 [0x03] Work_Zone[2] = 4099*
  4: 0x0389 [0x03] Work_Zone[3] = 768*
  5: 0x038E [0x03] Work_Zone[4] = 599*
  6: 0x0393 [0x03] Work_Zone[5] = 1656*
  7: 0x0398 [0x1D] PRINT_EVENT_MESSAGE(message_id=7338*)
    → "$0, $1...$2, and... Yes, yes...$3. That should be all we need."
  8: 0x039B [0x23] WAIT_FOR_DIALOG_INTERACTION
  9: 0x039C [0x1D] PRINT_EVENT_MESSAGE(message_id=7339*)
    → "The $0 and the $1 can be acquired in abundance from the worms that inhabit Gustaberg. For the $2, an expedition to the Palborough Mines might be in order."
 10: 0x039F [0x23] WAIT_FOR_DIALOG_INTERACTION
 11: 0x03A0 [0x1D] PRINT_EVENT_MESSAGE(message_id=7340*)
    → "If you're acquainted with a good goldsmith, the $3 shouldn't be a problem. If not, there's always the auction house."
 12: 0x03A3 [0x23] WAIT_FOR_DIALOG_INTERACTION
 13: 0x03A4 [0x1D] PRINT_EVENT_MESSAGE(message_id=7341*)
    → "All you need to do is trade these components to me, and prepare to enter the exciting world of synergy!"
 14: 0x03A7 [0x23] WAIT_FOR_DIALOG_INTERACTION
 15: 0x03A8 [0x21] END_EVENT
 16: 0x03A9 [0x00] END_REQSTACK()
```

### Event 966

#### Metadata

| Field        | Value     |
|--------------|-----------|
| Entrypoint   | 0x03AA    |
| Data Size    | 453 bytes |
| Instructions | 63        |

```
      00 01 02 03 04 05 06 07  08 09 0A 0B 0C 0D 0E 0F
      -- -- -- -- -- -- -- --  -- -- -- -- -- -- -- --
03A0:                                42 20 01 46 01 45            B .F.E
03B0: 00 80 F0 FF FF 7F F0 FF  FF 7F 66 64 6F 31 01 80  ..........fdo1..
03C0: 1C 02 80 38 03 80 BA F0  FF FF 7F 04 80 05 80 06  ...8............
03D0: 80 07 80 80 F0 FF FF 7F  80 C9 D0 0E 01 80 CD D0  ................
03E0: 0E 01 92 01 C9 D0 0E 01  92 01 CD D0 0E 01 1E F0  ................
03F0: FF FF 7F 6F 70 79 00 F0  FF FF 7F F8 FF FF 7F 45  ...opy.........E
0400: 08 80 F0 FF FF 7F F0 FF  FF 7F 38 39 30 37 01 80  ..........8907..
0410: 45 00 80 F0 FF FF 7F F0  FF FF 7F 66 64 69 31 01  E..........fdi1.
0420: 80 1C 02 80 66 01 80 F8  FF FF 7F F8 FF FF 7F 74  ....f..........t
0430: 6C 6B 30 1D 2C 80 23 7B  C9 D0 0E 01 1C 02 80 27  lk0.,.#{.......'
0440: 10 C9 D0 0E 01 05 45 00  80 F0 FF FF 7F F0 FF FF  ......E.........
0450: 7F 66 64 6F 31 01 80 1C  02 80 BA F8 FF FF 7F 2D  .fdo1..........-
0460: 80 2E 80 06 80 2F 80 1E  F0 FF FF 7F 6F 70 79 00  ...../......opy.
0470: F0 FF FF 7F F8 FF FF 7F  52 08 80 F0 FF FF 7F F0  ........R.......
0480: FF FF 7F 38 39 30 37 45  08 80 F0 FF FF 7F F0 FF  ...8907E........
0490: FF 7F 38 39 30 31 01 80  55 08 80 F0 FF FF 7F F0  ..8901..U.......
04A0: FF FF 7F 38 39 30 31 48  30 80 23 45 00 80 F0 FF  ...8901H0.#E....
04B0: FF 7F F0 FF FF 7F 66 64  69 31 01 80 1C 02 80 66  ......fdi1.....f
04C0: 01 80 F8 FF FF 7F F8 FF  FF 7F 74 6C 6B 30 03 02  ..........tlk0..
04D0: 10 1F 80 1D 31 80 23 66  01 80 F8 FF FF 7F F8 FF  ....1.#f........
04E0: FF 7F 70 61 73 30 1C 32  80 52 08 80 F0 FF FF 7F  ..pas0.2.R......
04F0: F0 FF FF 7F 38 39 30 31  45 08 80 F0 FF FF 7F F0  ....8901E.......
0500: FF FF 7F 38 39 30 32 01  80 66 01 80 F8 FF FF 7F  ...8902..f......
0510: F8 FF FF 7F 74 6C 6B 30  1D 33 80 23 1D 34 80 23  ....tlk0.3.#.4.#
0520: 1D 35 80 23 45 00 80 F0  FF FF 7F F0 FF FF 7F 66  .5.#E..........f
0530: 64 6F 31 01 80 1C 02 80  52 08 80 F0 FF FF 7F F0  do1.....R.......
0540: FF FF 7F 38 39 30 32 46  00 45 00 80 F0 FF FF 7F  ...8902F.E......
0550: F0 FF FF 7F 66 64 69 31  01 80 20 00 45 36 80 F8  ....fdi1.. .E6..
0560: FF FF 7F F8 FF FF 7F 71  73 74 63 01 80 21 00     .......qstc..!. 
```

#### Opcodes

```
  0: 0x03AA [0x42] SET_CLI_EVENT_CANCEL_DATA()
  1: 0x03AB [0x20] SET_CLI_EVENT_UC_FLAG: Lock player control
  2: 0x03AD [0x46] CAMERA_CONTROL: Disable user control
  3: 0x03AF [0x45] LOAD_SCHEDULED_TASK: Load scheduler "fdo1" with entities [LocalPlayer, LocalPlayer], work=[200*, 0*]
  4: 0x03C0 [0x1C] WAIT(60* ticks)
  5: 0x03C3 [0x38] SET_CLIENT_EVENT_MODE(mode=19*)
  6: 0x03C6 [0xBA] SET_ENTITY_POSITION(entity_id=LocalPlayer, pos_x=-81.901*, pos_z=-18.041*, pos_y=2.000*, direction=180.0°*)
  7: 0x03D3 [0x80] LOAD_WAIT(entity=LocalPlayer)
  8: 0x03D8 [0x80] LOAD_WAIT(entity=Hildolf (ID: 17748169/0x010ED0C9))
  9: 0x03DD [0x80] LOAD_WAIT(entity=Synergy Furnace (ID: 17748173/0x010ED0CD))
 10: 0x03E2 [0x92] Hildolf (ID: 17748169/0x010ED0C9)->Render.Flags3 ^= 0x01
 11: 0x03E8 [0x92] Synergy Furnace (ID: 17748173/0x010ED0CD)->Render.Flags3 ^= 0x01
 12: 0x03EE [0x1E] EventEntity looks at LocalPlayer and starts talking
 13: 0x03F3 [0x6F] WAIT_FRAME_DELAY: Yield until WaitTime reaches zero
 14: 0x03F4 [0x70] WAIT_ENTITY_RENDER_FLAG: Wait while EventEntity->Render.Flags3 bit 2 is set (cancel turn if not)
 15: 0x03F5 [0x79] LocalPlayer looks at EventEntity (Basic look)
 16: 0x03FF [0x45] LOAD_SCHEDULED_TASK: Load scheduler "8907" with entities [LocalPlayer, LocalPlayer], work=[456*, 0*]
 17: 0x0410 [0x45] LOAD_SCHEDULED_TASK: Load scheduler "fdi1" with entities [LocalPlayer, LocalPlayer], work=[200*, 0*]
 18: 0x0421 [0x1C] WAIT(60* ticks)
 19: 0x0424 [0x66] LOAD_EXT_SCHEDULER_MAIN: Load scheduler "tlk0" with entities [EventEntity, EventEntity], work=0*
 20: 0x0433 [0x1D] PRINT_EVENT_MESSAGE(message_id=7343*)
    → "Stupendous! Can hardly wait to kick-start your career as a synergist, I see. Well, who am I to keep you waiting any longer?"
 21: 0x0436 [0x23] WAIT_FOR_DIALOG_INTERACTION
 22: 0x0437 [0x7B] Hildolf (ID: 17748169/0x010ED0C9) stops talking
 23: 0x043C [0x1C] WAIT(60* ticks)
 24: 0x043F [0x27] REQ_SET(priority=0x10, entity_id=Hildolf (ID: 17748169/0x010ED0C9), tag_num=0x05)
 25: 0x0446 [0x45] LOAD_SCHEDULED_TASK: Load scheduler "fdo1" with entities [LocalPlayer, LocalPlayer], work=[200*, 0*]
 26: 0x0457 [0x1C] WAIT(60* ticks)
 27: 0x045A [0xBA] SET_ENTITY_POSITION(entity_id=EventEntity, pos_x=-83.999*, pos_z=-17.999*, pos_y=2.000*, direction=45.0°*)
 28: 0x0467 [0x1E] EventEntity looks at LocalPlayer and starts talking
 29: 0x046C [0x6F] WAIT_FRAME_DELAY: Yield until WaitTime reaches zero
 30: 0x046D [0x70] WAIT_ENTITY_RENDER_FLAG: Wait while EventEntity->Render.Flags3 bit 2 is set (cancel turn if not)
 31: 0x046E [0x79] LocalPlayer looks at EventEntity (Basic look)
 32: 0x0478 [0x52] END_LOAD_SCHEDULER: End scheduler "8907" with entities [LocalPlayer, LocalPlayer], work=456*
 33: 0x0487 [0x45] LOAD_SCHEDULED_TASK: Load scheduler "8901" with entities [LocalPlayer, LocalPlayer], work=[456*, 0*]
 34: 0x0498 [0x55] WAIT_LOAD_SCHEDULER: Wait for scheduler "8901" with entities [LocalPlayer, LocalPlayer], work=456*
 35: 0x04A7 [0x48] [System] [7349*]:
    → ""
 36: 0x04AA [0x23] WAIT_FOR_DIALOG_INTERACTION
 37: 0x04AB [0x45] LOAD_SCHEDULED_TASK: Load scheduler "fdi1" with entities [LocalPlayer, LocalPlayer], work=[200*, 0*]
 38: 0x04BC [0x1C] WAIT(60* ticks)
 39: 0x04BF [0x66] LOAD_EXT_SCHEDULER_MAIN: Load scheduler "tlk0" with entities [EventEntity, EventEntity], work=0*
 40: 0x04CE [0x03] Work_Zone[2] = 1234*
 41: 0x04D3 [0x1D] PRINT_EVENT_MESSAGE(message_id=7344*)
    → "And there you have it! Your very own $3, designed to be compatible with any synergy furnace. And as an added bonus to commemorate the birth of a new synergist, your first fill-up of fewell is on the house!"
 42: 0x04D6 [0x23] WAIT_FOR_DIALOG_INTERACTION
 43: 0x04D7 [0x66] LOAD_EXT_SCHEDULER_MAIN: Load scheduler "pas0" with entities [EventEntity, EventEntity], work=0*
 44: 0x04E6 [0x1C] WAIT(240* ticks)
 45: 0x04E9 [0x52] END_LOAD_SCHEDULER: End scheduler "8901" with entities [LocalPlayer, LocalPlayer], work=456*
 46: 0x04F8 [0x45] LOAD_SCHEDULED_TASK: Load scheduler "8902" with entities [LocalPlayer, LocalPlayer], work=[456*, 0*]
 47: 0x0509 [0x66] LOAD_EXT_SCHEDULER_MAIN: Load scheduler "tlk0" with entities [EventEntity, EventEntity], work=0*
 48: 0x0518 [0x1D] PRINT_EVENT_MESSAGE(message_id=7345*)
    → "My only regret is that I haven't the time to personally educate a promising young synergist like you on all the intricacies of our field. You should seek out the synergy engineers stationed throughout town. They're always eager to share their knowledge with new colleagues."
 49: 0x051B [0x23] WAIT_FOR_DIALOG_INTERACTION
 50: 0x051C [0x1D] PRINT_EVENT_MESSAGE(message_id=7346*)
    → "Ah, yes. After you've honed your skills a bit, you should stop by the Alchemists' Guild. I haven't had the time to look into it myself, but word has it that their new invention has the synergistic community abuzz."
 51: 0x051F [0x23] WAIT_FOR_DIALOG_INTERACTION
 52: 0x0520 [0x1D] PRINT_EVENT_MESSAGE(message_id=7347*)
    → "Now, if you'll forgive me, my research calls. May your career in synergy be a fruitful one!"
 53: 0x0523 [0x23] WAIT_FOR_DIALOG_INTERACTION
 54: 0x0524 [0x45] LOAD_SCHEDULED_TASK: Load scheduler "fdo1" with entities [LocalPlayer, LocalPlayer], work=[200*, 0*]
 55: 0x0535 [0x1C] WAIT(60* ticks)
 56: 0x0538 [0x52] END_LOAD_SCHEDULER: End scheduler "8902" with entities [LocalPlayer, LocalPlayer], work=456*
 57: 0x0547 [0x46] CAMERA_CONTROL: Restore default settings
 58: 0x0549 [0x45] LOAD_SCHEDULED_TASK: Load scheduler "fdi1" with entities [LocalPlayer, LocalPlayer], work=[200*, 0*]
 59: 0x055A [0x20] SET_CLI_EVENT_UC_FLAG: Unlock player control
 60: 0x055C [0x45] LOAD_SCHEDULED_TASK: Load scheduler "qstc" with entities [EventEntity, EventEntity], work=[201*, 0*]
 61: 0x056D [0x21] END_EVENT
 62: 0x056E [0x00] END_REQSTACK()
```

### Event 967

#### Metadata

| Field        | Value    |
|--------------|----------|
| Entrypoint   | 0x056F   |
| Data Size    | 11 bytes |
| Instructions | 5        |

```
      00 01 02 03 04 05 06 07  08 09 0A 0B 0C 0D 0E 0F
      -- -- -- -- -- -- -- --  -- -- -- -- -- -- -- --
0560:                                               1E                 .
0570: F0 FF FF 7F 1D 37 80 23  21 00                    .....7.#!.      
```

#### Opcodes

```
  0: 0x056F [0x1E] EventEntity looks at LocalPlayer and starts talking
  1: 0x0574 [0x1D] PRINT_EVENT_MESSAGE(message_id=7348*)
    → "Would that I had the time to discuss my latest discoveries with a fellow synergist! Sadly, I cannot afford even a second away from my experiments..."
  2: 0x0577 [0x23] WAIT_FOR_DIALOG_INTERACTION
  3: 0x0578 [0x21] END_EVENT
  4: 0x0579 [0x00] END_REQSTACK()
```

### Event 65535.1

#### Metadata

| Field        | Value    |
|--------------|----------|
| Entrypoint   | 0x057A   |
| Data Size    | 14 bytes |
| Instructions | 4        |

```
      00 01 02 03 04 05 06 07  08 09 0A 0B 0C 0D 0E 0F
      -- -- -- -- -- -- -- --  -- -- -- -- -- -- -- --
0570:                                32 38 80 1F 00 39            28...9
0580: 80 3A 80 06 80 1F 01 00                           .:......        
```

#### Opcodes

```
  0: 0x057A [0x32] ExtData[1]->MainSpeed = 13* * 0.1
  1: 0x057D [0x1F] MOVE_ENTITY: EventEntity moves to X=-83.284*, Z=-19.588*, Y=2.000*
  2: 0x0585 [0x1F] MOVE_ENTITY: Update entity position (mode=1)
  3: 0x0587 [0x00] END_REQSTACK()
```

### Event 978

#### Metadata

| Field        | Value    |
|--------------|----------|
| Entrypoint   | 0x0588   |
| Data Size    | 33 bytes |
| Instructions | 9        |

```
      00 01 02 03 04 05 06 07  08 09 0A 0B 0C 0D 0E 0F
      -- -- -- -- -- -- -- --  -- -- -- -- -- -- -- --
0580:                          1E F0 FF FF 7F 1C 3B 80          ......;.
0590: 1D 3C 80 23 66 3D 80 F8  FF FF 7F F8 FF FF 7F 74  .<.#f=.........t
05A0: 6C 6B 30 1D 3E 80 23 21  00                       lk0.>.#!.       
```

#### Opcodes

```
  0: 0x0588 [0x1E] EventEntity looks at LocalPlayer and starts talking
  1: 0x058D [0x1C] WAIT(30* ticks)
  2: 0x0590 [0x1D] PRINT_EVENT_MESSAGE(message_id=7360*)
    → "Greetings, and welcome to the Bastokan Institute for Synergistic Research! I am Hildolf, chairman and lead researcher."
  3: 0x0593 [0x23] WAIT_FOR_DIALOG_INTERACTION
  4: 0x0594 [0x66] LOAD_EXT_SCHEDULER_MAIN: Load scheduler "tlk0" with entities [EventEntity, EventEntity], work=9*
  5: 0x05A3 [0x1D] PRINT_EVENT_MESSAGE(message_id=7361*)
    → "While I would like nothing more than to expound on the wonders of synergy, I fear my experiments demand my undivided attention. I would encourage you to speak with one of our engineers stationed throughout town should you wish to learn more about our science."
  6: 0x05A6 [0x23] WAIT_FOR_DIALOG_INTERACTION
  7: 0x05A7 [0x21] END_EVENT
  8: 0x05A8 [0x00] END_REQSTACK()
```

### Event 977

#### Metadata

| Field        | Value     |
|--------------|-----------|
| Entrypoint   | 0x05A9    |
| Data Size    | 916 bytes |
| Instructions | 131       |

```
      00 01 02 03 04 05 06 07  08 09 0A 0B 0C 0D 0E 0F
      -- -- -- -- -- -- -- --  -- -- -- -- -- -- -- --
05A0:                             42 46 01 38 03 80 45           BF.8..E
05B0: 00 80 F0 FF FF 7F F0 FF  FF 7F 66 64 6F 31 01 80  ..........fdo1..
05C0: 1C 02 80 BA F0 FF FF 7F  04 80 05 80 06 80 07 80  ................
05D0: 80 F0 FF FF 7F 80 C9 D0  0E 01 80 CD D0 0E 01 92  ................
05E0: 01 C9 D0 0E 01 92 01 CD  D0 0E 01 4A F0 FF FF 7F  ...........J....
05F0: F8 FF FF 7F 1E F0 FF FF  7F 1C 3B 80 45 3F 80 F0  ..........;.E?..
0600: FF FF 7F F0 FF FF 7F 73  30 37 38 01 80 45 00 80  .......s078..E..
0610: F0 FF FF 7F F0 FF FF 7F  66 64 69 31 01 80 1C 3B  ........fdi1...;
0620: 80 66 3D 80 F8 FF FF 7F  F8 FF FF 7F 74 6C 6B 30  .f=.........tlk0
0630: 02 02 10 01 80 00 B7 06  1D 40 80 23 52 3F 80 F0  .........@.#R?..
0640: FF FF 7F F0 FF FF 7F 73  30 37 38 45 3F 80 F0 FF  .......s078E?...
0650: FF 7F F0 FF FF 7F 73 30  37 39 01 80 03 02 10 41  ......s079.....A
0660: 80 03 03 10 42 80 1D 43  80 23 1D 44 80 23 52 3F  ....B..C.#.D.#R?
0670: 80 F0 FF FF 7F F0 FF FF  7F 73 30 37 39 45 3F 80  .........s079E?.
0680: F0 FF FF 7F F0 FF FF 7F  73 30 38 30 01 80 1D 45  ........s080...E
0690: 80 23 1D 46 80 23 66 3D  80 F8 FF FF 7F F8 FF FF  .#.F.#f=........
06A0: 7F 74 6C 6B 31 52 3F 80  F0 FF FF 7F F0 FF FF 7F  .tlk1R?.........
06B0: 73 30 38 30 01 DD 06 1D  45 80 23 1D 46 80 23 66  s080....E.#.F.#f
06C0: 3D 80 F8 FF FF 7F F8 FF  FF 7F 74 6C 6B 31 52 3F  =.........tlk1R?
06D0: 80 F0 FF FF 7F F0 FF FF  7F 73 30 37 38 45 3F 80  .........s078E?.
06E0: F0 FF FF 7F F0 FF FF 7F  73 30 38 31 01 80 03 02  ........s081....
06F0: 10 47 80 03 03 10 48 80  03 04 10 49 80 03 05 10  .G....H....I....
0700: 4A 80 03 06 10 4B 80 03  07 10 4C 80 03 08 10 4D  J....K....L....M
0710: 80 03 09 10 4E 80 24 4F  80 01 80 01 80 25 02 00  ....N.$O.....%..
0720: 10 01 80 00 33 07 03 02  10 47 80 03 01 10 10 80  ....3....G......
0730: 01 41 08 02 00 10 10 80  00 48 07 03 02 10 48 80  .A.......H....H.
0740: 03 01 10 1E 80 01 41 08  02 00 10 1E 80 00 5D 07  ......A.......].
0750: 03 02 10 49 80 03 01 10  50 80 01 41 08 02 00 10  ...I....P..A....
0760: 50 80 00 72 07 03 02 10  4A 80 03 01 10 51 80 01  P..r....J....Q..
0770: 41 08 02 00 10 51 80 00  87 07 03 02 10 4B 80 03  A....Q.......K..
0780: 01 10 52 80 01 41 08 02  00 10 52 80 00 9C 07 03  ..R..A....R.....
0790: 02 10 4C 80 03 01 10 0D  80 01 41 08 02 00 10 0D  ..L.......A.....
07A0: 80 00 B1 07 03 02 10 4D  80 03 01 10 11 80 01 41  .......M.......A
07B0: 08 02 00 10 11 80 00 C6  07 03 02 10 4E 80 03 01  ............N...
07C0: 10 53 80 01 41 08 02 00  10 53 80 00 41 08 52 3F  .S..A....S..A.R?
07D0: 80 F0 FF FF 7F F0 FF FF  7F 73 30 38 31 45 3F 80  .........s081E?.
07E0: F0 FF FF 7F F0 FF FF 7F  73 30 38 32 01 80 66 3D  ........s082..f=
07F0: 80 F8 FF FF 7F F8 FF FF  7F 74 6C 6B 30 1D 54 80  .........tlk0.T.
0800: 23 45 00 80 F0 FF FF 7F  F0 FF FF 7F 66 64 6F 31  #E..........fdo1
0810: 01 80 1C 02 80 52 3F 80  F0 FF FF 7F F0 FF FF 7F  .....R?.........
0820: 73 30 38 32 03 01 10 01  80 46 00 45 00 80 F0 FF  s082.....F.E....
0830: FF 7F F0 FF FF 7F 66 64  69 31 01 80 21 00 01 41  ......fdi1..!..A
0840: 08 52 3F 80 F0 FF FF 7F  F0 FF FF 7F 73 30 38 31  .R?.........s081
0850: 45 3F 80 F0 FF FF 7F F0  FF FF 7F 73 30 38 33 01  E?.........s083.
0860: 80 93 02 10 66 3D 80 F8  FF FF 7F F8 FF FF 7F 74  ....f=.........t
0870: 6C 6B 30 1D 55 80 23 66  3D 80 F8 FF FF 7F F8 FF  lk0.U.#f=.......
0880: FF 7F 74 6C 6B 31 24 56  80 10 80 01 80 25 02 00  ..tlk1$V.....%..
0890: 10 01 80 00 D4 08 93 01  80 52 3F 80 F0 FF FF 7F  .........R?.....
08A0: F0 FF FF 7F 73 30 38 33  45 3F 80 F0 FF FF 7F F0  ....s083E?......
08B0: FF FF 7F 73 30 38 34 01  80 66 3D 80 F8 FF FF 7F  ...s084..f=.....
08C0: F8 FF FF 7F 74 6C 6B 30  03 03 10 50 80 1D 57 80  ....tlk0...P..W.
08D0: 23 01 F4 08 02 00 10 10  80 00 F4 08 93 01 80 52  #..............R
08E0: 3F 80 F0 FF FF 7F F0 FF  FF 7F 73 30 38 33 01 DD  ?.........s083..
08F0: 06 01 F4 08 45 00 80 F0  FF FF 7F F0 FF FF 7F 66  ....E..........f
0900: 64 6F 31 01 80 1C 02 80  52 3F 80 F0 FF FF 7F F0  do1.....R?......
0910: FF FF 7F 73 30 38 34 45  36 80 F8 FF FF 7F F8 FF  ...s084E6.......
0920: FF 7F 71 73 74 63 01 80  46 00 45 00 80 F0 FF FF  ..qstc..F.E.....
0930: 7F F0 FF FF 7F 66 64 69  31 01 80 21 00           .....fdi1..!.   
```

#### Opcodes

```
  0: 0x05A9 [0x42] SET_CLI_EVENT_CANCEL_DATA()
  1: 0x05AA [0x46] CAMERA_CONTROL: Disable user control
  2: 0x05AC [0x38] SET_CLIENT_EVENT_MODE(mode=19*)
  3: 0x05AF [0x45] LOAD_SCHEDULED_TASK: Load scheduler "fdo1" with entities [LocalPlayer, LocalPlayer], work=[200*, 0*]
  4: 0x05C0 [0x1C] WAIT(60* ticks)
  5: 0x05C3 [0xBA] SET_ENTITY_POSITION(entity_id=LocalPlayer, pos_x=-81.901*, pos_z=-18.041*, pos_y=2.000*, direction=180.0°*)
  6: 0x05D0 [0x80] LOAD_WAIT(entity=LocalPlayer)
  7: 0x05D5 [0x80] LOAD_WAIT(entity=Hildolf (ID: 17748169/0x010ED0C9))
  8: 0x05DA [0x80] LOAD_WAIT(entity=Synergy Furnace (ID: 17748173/0x010ED0CD))
  9: 0x05DF [0x92] Hildolf (ID: 17748169/0x010ED0C9)->Render.Flags3 ^= 0x01
 10: 0x05E5 [0x92] Synergy Furnace (ID: 17748173/0x010ED0CD)->Render.Flags3 ^= 0x01
 11: 0x05EB [0x4A] LocalPlayer looks at EventEntity
 12: 0x05F4 [0x1E] EventEntity looks at LocalPlayer and starts talking
 13: 0x05F9 [0x1C] WAIT(30* ticks)
 14: 0x05FC [0x45] LOAD_SCHEDULED_TASK: Load scheduler "s078" with entities [LocalPlayer, LocalPlayer], work=[557*, 0*]
 15: 0x060D [0x45] LOAD_SCHEDULED_TASK: Load scheduler "fdi1" with entities [LocalPlayer, LocalPlayer], work=[200*, 0*]
 16: 0x061E [0x1C] WAIT(30* ticks)
 17: 0x0621 [0x66] LOAD_EXT_SCHEDULER_MAIN: Load scheduler "tlk0" with entities [EventEntity, EventEntity], work=9*
 18: 0x0630 [0x02] IF !(Work_Zone[2] == 0*) GOTO 0x06B7
 19: 0x0638 [0x1D] PRINT_EVENT_MESSAGE(message_id=7350*)
    → "Well, well...if it isn't my prize pupil! That sparkle in your eyes tells me that you are well on your way down the path toward scientific enlightenment."
 20: 0x063B [0x23] WAIT_FOR_DIALOG_INTERACTION
 21: 0x063C [0x52] END_LOAD_SCHEDULER: End scheduler "s078" with entities [LocalPlayer, LocalPlayer], work=557*
 22: 0x064B [0x45] LOAD_SCHEDULED_TASK: Load scheduler "s079" with entities [LocalPlayer, LocalPlayer], work=[557*, 0*]
 23: 0x065C [0x03] Work_Zone[2] = 637*
 24: 0x0661 [0x03] Work_Zone[3] = 2792*
 25: 0x0666 [0x1D] PRINT_EVENT_MESSAGE(message_id=7351*)
    → "Should you ever find your fewell stores running low, remember that it is a painless enough process to synthesize yourself some more. You need only prepare the corresponding crystal and rock, together with $0 and $1."
 26: 0x0669 [0x23] WAIT_FOR_DIALOG_INTERACTION
 27: 0x066A [0x1D] PRINT_EVENT_MESSAGE(message_id=7352*)
    → "...The catch being that the procedure demands a certain degree of alchemical aptitude."
 28: 0x066D [0x23] WAIT_FOR_DIALOG_INTERACTION
 29: 0x066E [0x52] END_LOAD_SCHEDULER: End scheduler "s079" with entities [LocalPlayer, LocalPlayer], work=557*
 30: 0x067D [0x45] LOAD_SCHEDULED_TASK: Load scheduler "s080" with entities [LocalPlayer, LocalPlayer], work=[557*, 0*]
 31: 0x068E [0x1D] PRINT_EVENT_MESSAGE(message_id=7353*)
    → "If you are in immediate need of fewell, I could provide you with a supply from my stock."
 32: 0x0691 [0x23] WAIT_FOR_DIALOG_INTERACTION
 33: 0x0692 [0x1D] PRINT_EVENT_MESSAGE(message_id=7354*)
    → "Don't mention it, friend! After all, cooperation among synergists will only serve to further the advancement of our fair science."
 34: 0x0695 [0x23] WAIT_FOR_DIALOG_INTERACTION
 35: 0x0696 [0x66] LOAD_EXT_SCHEDULER_MAIN: Load scheduler "tlk1" with entities [EventEntity, EventEntity], work=9*
 36: 0x06A5 [0x52] END_LOAD_SCHEDULER: End scheduler "s080" with entities [LocalPlayer, LocalPlayer], work=557*
 37: 0x06B4 [0x01] GOTO 0x06DD
 38: 0x06B7 [0x1D] PRINT_EVENT_MESSAGE(message_id=7353*)
    → "If you are in immediate need of fewell, I could provide you with a supply from my stock."
 39: 0x06BA [0x23] WAIT_FOR_DIALOG_INTERACTION
 40: 0x06BB [0x1D] PRINT_EVENT_MESSAGE(message_id=7354*)
    → "Don't mention it, friend! After all, cooperation among synergists will only serve to further the advancement of our fair science."
 41: 0x06BE [0x23] WAIT_FOR_DIALOG_INTERACTION
 42: 0x06BF [0x66] LOAD_EXT_SCHEDULER_MAIN: Load scheduler "tlk1" with entities [EventEntity, EventEntity], work=9*
 43: 0x06CE [0x52] END_LOAD_SCHEDULER: End scheduler "s078" with entities [LocalPlayer, LocalPlayer], work=557*

SUBROUTINE_06DD:
 44: 0x06DD [0x45] LOAD_SCHEDULED_TASK: Load scheduler "s081" with entities [LocalPlayer, LocalPlayer], work=[557*, 0*]
 45: 0x06EE [0x03] Work_Zone[2] = 2784*
 46: 0x06F3 [0x03] Work_Zone[3] = 2785*
 47: 0x06F8 [0x03] Work_Zone[4] = 2786*
 48: 0x06FD [0x03] Work_Zone[5] = 2787*
 49: 0x0702 [0x03] Work_Zone[6] = 2788*
 50: 0x0707 [0x03] Work_Zone[7] = 2789*
 51: 0x070C [0x03] Work_Zone[8] = 2790*
 52: 0x0711 [0x03] Work_Zone[9] = 2791*
 53: 0x0716 [0x24] CREATE_DIALOG(message_id=7355*, default_option=0*, option_flags=0*)
    → "Obtain fewell? [#./$1./$2./$3./$4./$5./$6./$7./Perhaps another time.]"
 54: 0x071D [0x25] WAIT_DIALOG_SELECT()
 55: 0x071E [0x02] IF !(Work_Zone[0] == 0*) GOTO 0x0733
 56: 0x0726 [0x03] Work_Zone[2] = 2784*
 57: 0x072B [0x03] Work_Zone[1] = 1*
 58: 0x0730 [0x01] GOTO 0x0841
 59: 0x0733 [0x02] IF !(Work_Zone[0] == 1*) GOTO 0x0748
 60: 0x073B [0x03] Work_Zone[2] = 2785*
 61: 0x0740 [0x03] Work_Zone[1] = 2*
 62: 0x0745 [0x01] GOTO 0x0841
 63: 0x0748 [0x02] IF !(Work_Zone[0] == 2*) GOTO 0x075D
 64: 0x0750 [0x03] Work_Zone[2] = 2786*
 65: 0x0755 [0x03] Work_Zone[1] = 3*
 66: 0x075A [0x01] GOTO 0x0841
 67: 0x075D [0x02] IF !(Work_Zone[0] == 3*) GOTO 0x0772
 68: 0x0765 [0x03] Work_Zone[2] = 2787*
 69: 0x076A [0x03] Work_Zone[1] = 4*
 70: 0x076F [0x01] GOTO 0x0841
 71: 0x0772 [0x02] IF !(Work_Zone[0] == 4*) GOTO 0x0787
 72: 0x077A [0x03] Work_Zone[2] = 2788*
 73: 0x077F [0x03] Work_Zone[1] = 5*
 74: 0x0784 [0x01] GOTO 0x0841
 75: 0x0787 [0x02] IF !(Work_Zone[0] == 5*) GOTO 0x079C
 76: 0x078F [0x03] Work_Zone[2] = 2789*
 77: 0x0794 [0x03] Work_Zone[1] = 6*
 78: 0x0799 [0x01] GOTO 0x0841
 79: 0x079C [0x02] IF !(Work_Zone[0] == 6*) GOTO 0x07B1
 80: 0x07A4 [0x03] Work_Zone[2] = 2790*
 81: 0x07A9 [0x03] Work_Zone[1] = 7*
 82: 0x07AE [0x01] GOTO 0x0841
 83: 0x07B1 [0x02] IF !(Work_Zone[0] == 7*) GOTO 0x07C6
 84: 0x07B9 [0x03] Work_Zone[2] = 2791*
 85: 0x07BE [0x03] Work_Zone[1] = 8*
 86: 0x07C3 [0x01] GOTO 0x0841
 87: 0x07C6 [0x02] IF !(Work_Zone[0] == 8*) GOTO 0x0841
 88: 0x07CE [0x52] END_LOAD_SCHEDULER: End scheduler "s081" with entities [LocalPlayer, LocalPlayer], work=557*
 89: 0x07DD [0x45] LOAD_SCHEDULED_TASK: Load scheduler "s082" with entities [LocalPlayer, LocalPlayer], work=[557*, 0*]
 90: 0x07EE [0x66] LOAD_EXT_SCHEDULER_MAIN: Load scheduler "tlk0" with entities [EventEntity, EventEntity], work=9*
 91: 0x07FD [0x1D] PRINT_EVENT_MESSAGE(message_id=7356*)
    → "You require more time to ponder your decision, yes? A common plight of the prudent synergist, as I know all too well."
 92: 0x0800 [0x23] WAIT_FOR_DIALOG_INTERACTION
 93: 0x0801 [0x45] LOAD_SCHEDULED_TASK: Load scheduler "fdo1" with entities [LocalPlayer, LocalPlayer], work=[200*, 0*]
 94: 0x0812 [0x1C] WAIT(60* ticks)
 95: 0x0815 [0x52] END_LOAD_SCHEDULER: End scheduler "s082" with entities [LocalPlayer, LocalPlayer], work=557*
 96: 0x0824 [0x03] Work_Zone[1] = 0*
 97: 0x0829 [0x46] CAMERA_CONTROL: Restore default settings
 98: 0x082B [0x45] LOAD_SCHEDULED_TASK: Load scheduler "fdi1" with entities [LocalPlayer, LocalPlayer], work=[200*, 0*]
 99: 0x083C [0x21] END_EVENT
100: 0x083D [0x00] END_REQSTACK()

SUBROUTINE_0841:
101: 0x0841 [0x52] END_LOAD_SCHEDULER: End scheduler "s081" with entities [LocalPlayer, LocalPlayer], work=557*
102: 0x0850 [0x45] LOAD_SCHEDULED_TASK: Load scheduler "s083" with entities [LocalPlayer, LocalPlayer], work=[557*, 0*]
103: 0x0861 [0x93] DISPLAY_ITEM_INFO(item_id=Work_Zone[2])
104: 0x0864 [0x66] LOAD_EXT_SCHEDULER_MAIN: Load scheduler "tlk0" with entities [EventEntity, EventEntity], work=9*
105: 0x0873 [0x1D] PRINT_EVENT_MESSAGE(message_id=7357*)
    → "It is $0 you seek, yes?"
106: 0x0876 [0x23] WAIT_FOR_DIALOG_INTERACTION
107: 0x0877 [0x66] LOAD_EXT_SCHEDULER_MAIN: Load scheduler "tlk1" with entities [EventEntity, EventEntity], work=9*
108: 0x0886 [0x24] CREATE_DIALOG(message_id=7358*, default_option=1*, option_flags=0*)
    → "Accept fewell? [Yes./No.]"
109: 0x088D [0x25] WAIT_DIALOG_SELECT()
110: 0x088E [0x02] IF !(Work_Zone[0] == 0*) GOTO 0x08D4
111: 0x0896 [0x93] DISPLAY_ITEM_INFO(item_id=0*)
112: 0x0899 [0x52] END_LOAD_SCHEDULER: End scheduler "s083" with entities [LocalPlayer, LocalPlayer], work=557*
113: 0x08A8 [0x45] LOAD_SCHEDULED_TASK: Load scheduler "s084" with entities [LocalPlayer, LocalPlayer], work=[557*, 0*]
114: 0x08B9 [0x66] LOAD_EXT_SCHEDULER_MAIN: Load scheduler "tlk0" with entities [EventEntity, EventEntity], work=9*
115: 0x08C8 [0x03] Work_Zone[3] = 3*
116: 0x08CD [0x1D] PRINT_EVENT_MESSAGE(message_id=7359*)
    → "It is my pleasure to provide you with $1 $0 . May [it/they] serve you well!"
117: 0x08D0 [0x23] WAIT_FOR_DIALOG_INTERACTION
118: 0x08D1 [0x01] GOTO 0x08F4
119: 0x08D4 [0x02] IF !(Work_Zone[0] == 1*) GOTO 0x08F4
120: 0x08DC [0x93] DISPLAY_ITEM_INFO(item_id=0*)
121: 0x08DF [0x52] END_LOAD_SCHEDULER: End scheduler "s083" with entities [LocalPlayer, LocalPlayer], work=557*
122: 0x08EE [0x01] GOTO 0x06DD

SUBROUTINE_08F4:
123: 0x08F4 [0x45] LOAD_SCHEDULED_TASK: Load scheduler "fdo1" with entities [LocalPlayer, LocalPlayer], work=[200*, 0*]
124: 0x0905 [0x1C] WAIT(60* ticks)
125: 0x0908 [0x52] END_LOAD_SCHEDULER: End scheduler "s084" with entities [LocalPlayer, LocalPlayer], work=557*
126: 0x0917 [0x45] LOAD_SCHEDULED_TASK: Load scheduler "qstc" with entities [EventEntity, EventEntity], work=[201*, 0*]
127: 0x0928 [0x46] CAMERA_CONTROL: Restore default settings
128: 0x092A [0x45] LOAD_SCHEDULED_TASK: Load scheduler "fdi1" with entities [LocalPlayer, LocalPlayer], work=[200*, 0*]
129: 0x093B [0x21] END_EVENT
130: 0x093C [0x00] END_REQSTACK()
```

#### Data or dead code:

```
# Dead code (unreachable instructions):
     0x083E [0x01] GOTO 0x0841
# Dead code (unreachable instructions):
     0x08F1 [0x01] GOTO 0x08F4
```

### Event 973

#### Metadata

| Field        | Value     |
|--------------|-----------|
| Entrypoint   | 0x093D    |
| Data Size    | 591 bytes |
| Instructions | 84        |

```
      00 01 02 03 04 05 06 07  08 09 0A 0B 0C 0D 0E 0F
      -- -- -- -- -- -- -- --  -- -- -- -- -- -- -- --
0930:                                         42 03 01               B..
0940: 10 01 80 46 01 38 03 80  45 00 80 F0 FF FF 7F F0  ...F.8..E.......
0950: FF FF 7F 66 64 6F 31 01  80 1C 02 80 BA F0 FF FF  ...fdo1.........
0960: 7F 04 80 05 80 06 80 07  80 80 F0 FF FF 7F 80 C9  ................
0970: D0 0E 01 80 CD D0 0E 01  92 01 C9 D0 0E 01 92 01  ................
0980: CD D0 0E 01 4A F0 FF FF  7F F8 FF FF 7F 1E F0 FF  ....J...........
0990: FF 7F 1C 3B 80 02 02 10  01 80 00 6C 0A 45 3F 80  ...;.......l.E?.
09A0: F0 FF FF 7F F0 FF FF 7F  73 30 37 38 01 80 45 00  ........s078..E.
09B0: 80 F0 FF FF 7F F0 FF FF  7F 66 64 69 31 01 80 1C  .........fdi1...
09C0: 3B 80 66 3D 80 F8 FF FF  7F F8 FF FF 7F 74 6C 6B  ;.f=.........tlk
09D0: 30 1D 3C 80 23 03 02 10  1F 80 1D 58 80 23 1D 59  0.<.#......X.#.Y
09E0: 80 23 52 3F 80 F0 FF FF  7F F0 FF FF 7F 73 30 37  .#R?.........s07
09F0: 38 45 3F 80 F0 FF FF 7F  F0 FF FF 7F 73 30 37 39  8E?.........s079
0A00: 01 80 03 02 10 41 80 03  03 10 42 80 1D 43 80 23  .....A....B..C.#
0A10: 1D 44 80 23 52 3F 80 F0  FF FF 7F F0 FF FF 7F 73  .D.#R?.........s
0A20: 30 37 39 45 3F 80 F0 FF  FF 7F F0 FF FF 7F 73 30  079E?.........s0
0A30: 38 36 01 80 1D 45 80 23  1D 5A 80 23 1D 5B 80 23  86...E.#.Z.#.[.#
0A40: 52 3F 80 F0 FF FF 7F F0  FF FF 7F 73 30 38 36 45  R?.........s086E
0A50: 3F 80 F0 FF FF 7F F0 FF  FF 7F 73 30 38 33 01 80  ?.........s083..
0A60: 03 02 10 41 80 1D 5C 80  23 01 A4 0A 45 3F 80 F0  ...A..\.#...E?..
0A70: FF FF 7F F0 FF FF 7F 73  30 38 33 01 80 45 00 80  .......s083..E..
0A80: F0 FF FF 7F F0 FF FF 7F  66 64 69 31 01 80 1C 3B  ........fdi1...;
0A90: 80 66 3D 80 F8 FF FF 7F  F8 FF FF 7F 74 6C 6B 30  .f=.........tlk0
0AA0: 1D 5D 80 23 66 3D 80 F8  FF FF 7F F8 FF FF 7F 74  .].#f=.........t
0AB0: 6C 6B 31 24 5E 80 01 80  01 80 25 02 00 10 01 80  lk1$^.....%.....
0AC0: 00 03 0B 52 3F 80 F0 FF  FF 7F F0 FF FF 7F 73 30  ...R?.........s0
0AD0: 38 33 45 3F 80 F0 FF FF  7F F0 FF FF 7F 73 30 38  83E?.........s08
0AE0: 35 01 80 66 3D 80 F8 FF  FF 7F F8 FF FF 7F 74 6C  5..f=.........tl
0AF0: 6B 30 03 02 10 41 80 1D  5F 80 23 03 01 10 10 80  k0...A.._.#.....
0B00: 01 45 0B 02 00 10 10 80  00 45 0B 52 3F 80 F0 FF  .E.......E.R?...
0B10: FF 7F F0 FF FF 7F 73 30  38 33 45 3F 80 F0 FF FF  ......s083E?....
0B20: 7F F0 FF FF 7F 73 30 38  32 01 80 66 3D 80 F8 FF  .....s082..f=...
0B30: FF 7F F8 FF FF 7F 74 6C  6B 30 1D 60 80 23 1D 61  ......tlk0.`.#.a
0B40: 80 23 01 45 0B 45 00 80  F0 FF FF 7F F0 FF FF 7F  .#.E.E..........
0B50: 66 64 6F 31 01 80 1C 02  80 52 3F 80 F0 FF FF 7F  fdo1.....R?.....
0B60: F0 FF FF 7F 73 30 38 32  52 3F 80 F0 FF FF 7F F0  ....s082R?......
0B70: FF FF 7F 73 30 38 35 46  00 45 00 80 F0 FF FF 7F  ...s085F.E......
0B80: F0 FF FF 7F 66 64 69 31  01 80 21 00              ....fdi1..!.    
```

#### Opcodes

```
  0: 0x093D [0x42] SET_CLI_EVENT_CANCEL_DATA()
  1: 0x093E [0x03] Work_Zone[1] = 0*
  2: 0x0943 [0x46] CAMERA_CONTROL: Disable user control
  3: 0x0945 [0x38] SET_CLIENT_EVENT_MODE(mode=19*)
  4: 0x0948 [0x45] LOAD_SCHEDULED_TASK: Load scheduler "fdo1" with entities [LocalPlayer, LocalPlayer], work=[200*, 0*]
  5: 0x0959 [0x1C] WAIT(60* ticks)
  6: 0x095C [0xBA] SET_ENTITY_POSITION(entity_id=LocalPlayer, pos_x=-81.901*, pos_z=-18.041*, pos_y=2.000*, direction=180.0°*)
  7: 0x0969 [0x80] LOAD_WAIT(entity=LocalPlayer)
  8: 0x096E [0x80] LOAD_WAIT(entity=Hildolf (ID: 17748169/0x010ED0C9))
  9: 0x0973 [0x80] LOAD_WAIT(entity=Synergy Furnace (ID: 17748173/0x010ED0CD))
 10: 0x0978 [0x92] Hildolf (ID: 17748169/0x010ED0C9)->Render.Flags3 ^= 0x01
 11: 0x097E [0x92] Synergy Furnace (ID: 17748173/0x010ED0CD)->Render.Flags3 ^= 0x01
 12: 0x0984 [0x4A] LocalPlayer looks at EventEntity
 13: 0x098D [0x1E] EventEntity looks at LocalPlayer and starts talking
 14: 0x0992 [0x1C] WAIT(30* ticks)
 15: 0x0995 [0x02] IF !(Work_Zone[2] == 0*) GOTO 0x0A6C
 16: 0x099D [0x45] LOAD_SCHEDULED_TASK: Load scheduler "s078" with entities [LocalPlayer, LocalPlayer], work=[557*, 0*]
 17: 0x09AE [0x45] LOAD_SCHEDULED_TASK: Load scheduler "fdi1" with entities [LocalPlayer, LocalPlayer], work=[200*, 0*]
 18: 0x09BF [0x1C] WAIT(30* ticks)
 19: 0x09C2 [0x66] LOAD_EXT_SCHEDULER_MAIN: Load scheduler "tlk0" with entities [EventEntity, EventEntity], work=9*
 20: 0x09D1 [0x1D] PRINT_EVENT_MESSAGE(message_id=7360*)
    → "Greetings, and welcome to the Bastokan Institute for Synergistic Research! I am Hildolf, chairman and lead researcher."
 21: 0x09D4 [0x23] WAIT_FOR_DIALOG_INTERACTION
 22: 0x09D5 [0x03] Work_Zone[2] = 1234*
 23: 0x09DA [0x1D] PRINT_EVENT_MESSAGE(message_id=7362*)
    → "Ah, always a pleasure to encounter a fellow synergist! I see you've been keeping your $3 in fine fettle."
 24: 0x09DD [0x23] WAIT_FOR_DIALOG_INTERACTION
 25: 0x09DE [0x1D] PRINT_EVENT_MESSAGE(message_id=7363*)
    → "Do you perchance find your fewell tanks running low after synergizing up a storm?"
 26: 0x09E1 [0x23] WAIT_FOR_DIALOG_INTERACTION
 27: 0x09E2 [0x52] END_LOAD_SCHEDULER: End scheduler "s078" with entities [LocalPlayer, LocalPlayer], work=557*
 28: 0x09F1 [0x45] LOAD_SCHEDULED_TASK: Load scheduler "s079" with entities [LocalPlayer, LocalPlayer], work=[557*, 0*]
 29: 0x0A02 [0x03] Work_Zone[2] = 637*
 30: 0x0A07 [0x03] Work_Zone[3] = 2792*
 31: 0x0A0C [0x1D] PRINT_EVENT_MESSAGE(message_id=7351*)
    → "Should you ever find your fewell stores running low, remember that it is a painless enough process to synthesize yourself some more. You need only prepare the corresponding crystal and rock, together with $0 and $1."
 32: 0x0A0F [0x23] WAIT_FOR_DIALOG_INTERACTION
 33: 0x0A10 [0x1D] PRINT_EVENT_MESSAGE(message_id=7352*)
    → "...The catch being that the procedure demands a certain degree of alchemical aptitude."
 34: 0x0A13 [0x23] WAIT_FOR_DIALOG_INTERACTION
 35: 0x0A14 [0x52] END_LOAD_SCHEDULER: End scheduler "s079" with entities [LocalPlayer, LocalPlayer], work=557*
 36: 0x0A23 [0x45] LOAD_SCHEDULED_TASK: Load scheduler "s086" with entities [LocalPlayer, LocalPlayer], work=[557*, 0*]
 37: 0x0A34 [0x1D] PRINT_EVENT_MESSAGE(message_id=7353*)
    → "If you are in immediate need of fewell, I could provide you with a supply from my stock."
 38: 0x0A37 [0x23] WAIT_FOR_DIALOG_INTERACTION
 39: 0x0A38 [0x1D] PRINT_EVENT_MESSAGE(message_id=7364*)
    → "In my capacity as a pedagogue of the synergistic arts, it is my firm belief that my pupils learn best from solving their problems by their own devices."
 40: 0x0A3B [0x23] WAIT_FOR_DIALOG_INTERACTION
 41: 0x0A3C [0x1D] PRINT_EVENT_MESSAGE(message_id=7365*)
    → "That said, I would sooner see you in front of a furnace than fretting endlessly over a depleted fewell supply. Hence my offer."
 42: 0x0A3F [0x23] WAIT_FOR_DIALOG_INTERACTION
 43: 0x0A40 [0x52] END_LOAD_SCHEDULER: End scheduler "s086" with entities [LocalPlayer, LocalPlayer], work=557*
 44: 0x0A4F [0x45] LOAD_SCHEDULED_TASK: Load scheduler "s083" with entities [LocalPlayer, LocalPlayer], work=[557*, 0*]
 45: 0x0A60 [0x03] Work_Zone[2] = 637*
 46: 0x0A65 [0x1D] PRINT_EVENT_MESSAGE(message_id=7366*)
    → "Bring to me $0 and I will gladly synthesize whichever variety of fewell you desire. What say you to my offer?"
 47: 0x0A68 [0x23] WAIT_FOR_DIALOG_INTERACTION
 48: 0x0A69 [0x01] GOTO 0x0AA4
 49: 0x0A6C [0x45] LOAD_SCHEDULED_TASK: Load scheduler "s083" with entities [LocalPlayer, LocalPlayer], work=[557*, 0*]
 50: 0x0A7D [0x45] LOAD_SCHEDULED_TASK: Load scheduler "fdi1" with entities [LocalPlayer, LocalPlayer], work=[200*, 0*]
 51: 0x0A8E [0x1C] WAIT(30* ticks)
 52: 0x0A91 [0x66] LOAD_EXT_SCHEDULER_MAIN: Load scheduler "tlk0" with entities [EventEntity, EventEntity], work=9*
 53: 0x0AA0 [0x1D] PRINT_EVENT_MESSAGE(message_id=7370*)
    → "Welcome back, my pupil. Do you find yourself in need of fewell today?"
 54: 0x0AA3 [0x23] WAIT_FOR_DIALOG_INTERACTION

SUBROUTINE_0AA4:
 55: 0x0AA4 [0x66] LOAD_EXT_SCHEDULER_MAIN: Load scheduler "tlk1" with entities [EventEntity, EventEntity], work=9*
 56: 0x0AB3 [0x24] CREATE_DIALOG(message_id=7367*, default_option=0*, option_flags=0*)
    → "What say you? [By all means!/Not today.]"
 57: 0x0ABA [0x25] WAIT_DIALOG_SELECT()
 58: 0x0ABB [0x02] IF !(Work_Zone[0] == 0*) GOTO 0x0B03
 59: 0x0AC3 [0x52] END_LOAD_SCHEDULER: End scheduler "s083" with entities [LocalPlayer, LocalPlayer], work=557*
 60: 0x0AD2 [0x45] LOAD_SCHEDULED_TASK: Load scheduler "s085" with entities [LocalPlayer, LocalPlayer], work=[557*, 0*]
 61: 0x0AE3 [0x66] LOAD_EXT_SCHEDULER_MAIN: Load scheduler "tlk0" with entities [EventEntity, EventEntity], work=9*
 62: 0x0AF2 [0x03] Work_Zone[2] = 637*
 63: 0x0AF7 [0x1D] PRINT_EVENT_MESSAGE(message_id=7371*)
    → "Very well. Bring to me $0 and I will gladly synthesize whichever variety of fewell you desire."
 64: 0x0AFA [0x23] WAIT_FOR_DIALOG_INTERACTION
 65: 0x0AFB [0x03] Work_Zone[1] = 1*
 66: 0x0B00 [0x01] GOTO 0x0B45
 67: 0x0B03 [0x02] IF !(Work_Zone[0] == 1*) GOTO 0x0B45
 68: 0x0B0B [0x52] END_LOAD_SCHEDULER: End scheduler "s083" with entities [LocalPlayer, LocalPlayer], work=557*
 69: 0x0B1A [0x45] LOAD_SCHEDULED_TASK: Load scheduler "s082" with entities [LocalPlayer, LocalPlayer], work=[557*, 0*]
 70: 0x0B2B [0x66] LOAD_EXT_SCHEDULER_MAIN: Load scheduler "tlk0" with entities [EventEntity, EventEntity], work=9*
 71: 0x0B3A [0x1D] PRINT_EVENT_MESSAGE(message_id=7368*)
    → "So your fewell stock is sufficiently full? All the better, then."
 72: 0x0B3D [0x23] WAIT_FOR_DIALOG_INTERACTION
 73: 0x0B3E [0x1D] PRINT_EVENT_MESSAGE(message_id=7369*)
    → "Then, if you will excuse me, I must return to my research. May your synergistic pursuits lead you to knowledge and enlightenment!"
 74: 0x0B41 [0x23] WAIT_FOR_DIALOG_INTERACTION
 75: 0x0B42 [0x01] GOTO 0x0B45

SUBROUTINE_0B45:
 76: 0x0B45 [0x45] LOAD_SCHEDULED_TASK: Load scheduler "fdo1" with entities [LocalPlayer, LocalPlayer], work=[200*, 0*]
 77: 0x0B56 [0x1C] WAIT(60* ticks)
 78: 0x0B59 [0x52] END_LOAD_SCHEDULER: End scheduler "s082" with entities [LocalPlayer, LocalPlayer], work=557*
 79: 0x0B68 [0x52] END_LOAD_SCHEDULER: End scheduler "s085" with entities [LocalPlayer, LocalPlayer], work=557*
 80: 0x0B77 [0x46] CAMERA_CONTROL: Restore default settings
 81: 0x0B79 [0x45] LOAD_SCHEDULED_TASK: Load scheduler "fdi1" with entities [LocalPlayer, LocalPlayer], work=[200*, 0*]
 82: 0x0B8A [0x21] END_EVENT
 83: 0x0B8B [0x00] END_REQSTACK()
```

### Event 974

#### Metadata

| Field        | Value    |
|--------------|----------|
| Entrypoint   | 0x0B8C   |
| Data Size    | 34 bytes |
| Instructions | 8        |

```
      00 01 02 03 04 05 06 07  08 09 0A 0B 0C 0D 0E 0F
      -- -- -- -- -- -- -- --  -- -- -- -- -- -- -- --
0B80:                                      1E F0 FF FF              ....
0B90: 7F 1C 3B 80 66 3D 80 F8  FF FF 7F F8 FF FF 7F 74  ..;.f=.........t
0BA0: 6C 6B 30 03 02 10 41 80  1D 62 80 23 21 00        lk0...A..b.#!.  
```

#### Opcodes

```
  0: 0x0B8C [0x1E] EventEntity looks at LocalPlayer and starts talking
  1: 0x0B91 [0x1C] WAIT(30* ticks)
  2: 0x0B94 [0x66] LOAD_EXT_SCHEDULER_MAIN: Load scheduler "tlk0" with entities [EventEntity, EventEntity], work=9*
  3: 0x0BA3 [0x03] Work_Zone[2] = 637*
  4: 0x0BA8 [0x1D] PRINT_EVENT_MESSAGE(message_id=7372*)
    → "Bring to me $0 and I will gladly synthesize whichever variety of fewell you desire."
  5: 0x0BAB [0x23] WAIT_FOR_DIALOG_INTERACTION
  6: 0x0BAC [0x21] END_EVENT
  7: 0x0BAD [0x00] END_REQSTACK()
```

### Event 975

#### Metadata

| Field        | Value      |
|--------------|------------|
| Entrypoint   | 0x0BAE     |
| Data Size    | 1187 bytes |
| Instructions | 160        |

```
      00 01 02 03 04 05 06 07  08 09 0A 0B 0C 0D 0E 0F
      -- -- -- -- -- -- -- --  -- -- -- -- -- -- -- --
0BA0:                                            42 03                B.
0BB0: 01 10 01 80 46 01 38 03  80 45 00 80 F0 FF FF 7F  ....F.8..E......
0BC0: F0 FF FF 7F 66 64 6F 31  01 80 1C 02 80 BA F0 FF  ....fdo1........
0BD0: FF 7F 04 80 05 80 06 80  07 80 80 F0 FF FF 7F 80  ................
0BE0: C9 D0 0E 01 80 CD D0 0E  01 92 01 C9 D0 0E 01 92  ................
0BF0: 01 CD D0 0E 01 4A F0 FF  FF 7F F8 FF FF 7F 1E F0  .....J..........
0C00: FF FF 7F 1C 3B 80 45 3F  80 F0 FF FF 7F F0 FF FF  ....;.E?........
0C10: 7F 73 30 38 37 01 80 45  00 80 F0 FF FF 7F F0 FF  .s087..E........
0C20: FF 7F 66 64 69 31 01 80  1C 3B 80 66 3D 80 F8 FF  ..fdi1...;.f=...
0C30: FF 7F F8 FF FF 7F 74 6C  6B 30 03 02 10 41 80 1D  ......tlk0...A..
0C40: 63 80 23 1D 64 80 23 66  3D 80 F8 FF FF 7F F8 FF  c.#.d.#f=.......
0C50: FF 7F 74 6C 6B 31 52 3F  80 F0 FF FF 7F F0 FF FF  ..tlk1R?........
0C60: 7F 73 30 38 37 45 3F 80  F0 FF FF 7F F0 FF FF 7F  .s087E?.........
0C70: 73 30 38 31 01 80 03 02  10 47 80 03 03 10 48 80  s081.....G....H.
0C80: 03 04 10 49 80 03 05 10  4A 80 03 06 10 4B 80 03  ...I....J....K..
0C90: 07 10 4C 80 03 08 10 4D  80 03 09 10 4E 80 03 00  ..L....M....N...
0CA0: 00 65 80 24 4F 80 01 80  00 00 25 02 00 10 01 80  .e.$O.....%.....
0CB0: 00 C0 0C 03 02 10 47 80  03 01 10 10 80 01 53 0D  ......G.......S.
0CC0: 02 00 10 10 80 00 D5 0C  03 02 10 48 80 03 01 10  ...........H....
0CD0: 1E 80 01 53 0D 02 00 10  1E 80 00 EA 0C 03 02 10  ...S............
0CE0: 49 80 03 01 10 50 80 01  53 0D 02 00 10 50 80 00  I....P..S....P..
0CF0: FF 0C 03 02 10 4A 80 03  01 10 51 80 01 53 0D 02  .....J....Q..S..
0D00: 00 10 51 80 00 14 0D 03  02 10 4B 80 03 01 10 52  ..Q.......K....R
0D10: 80 01 53 0D 02 00 10 52  80 00 29 0D 03 02 10 4C  ..S....R..)....L
0D20: 80 03 01 10 0D 80 01 53  0D 02 00 10 0D 80 00 3E  .......S.......>
0D30: 0D 03 02 10 4D 80 03 01  10 11 80 01 53 0D 02 00  ....M.......S...
0D40: 10 11 80 00 53 0D 03 02  10 4E 80 03 01 10 53 80  ....S....N....S.
0D50: 01 53 0D 52 3F 80 F0 FF  FF 7F F0 FF FF 7F 73 30  .S.R?.........s0
0D60: 38 31 45 3F 80 F0 FF FF  7F F0 FF FF 7F 73 30 38  81E?.........s08
0D70: 33 01 80 93 02 10 66 3D  80 F8 FF FF 7F F8 FF FF  3.....f=........
0D80: 7F 74 6C 6B 30 1D 55 80  23 66 3D 80 F8 FF FF 7F  .tlk0.U.#f=.....
0D90: F8 FF FF 7F 74 6C 6B 31  24 56 80 10 80 01 80 25  ....tlk1$V.....%
0DA0: 02 00 10 01 80 00 E8 0F  93 01 80 52 3F 80 F0 FF  ...........R?...
0DB0: FF 7F F0 FF FF 7F 73 30  38 33 45 3F 80 F0 FF FF  ......s083E?....
0DC0: 7F F0 FF FF 7F 73 30 38  38 01 80 6E F8 FF FF 7F  .....s088..n....
0DD0: 11 80 99 F8 FF FF 7F 1D  66 80 23 52 3F 80 F0 FF  ........f.#R?...
0DE0: FF 7F F0 FF FF 7F 73 30  38 38 45 3F 80 F0 FF FF  ......s088E?....
0DF0: 7F F0 FF FF 7F 73 30 38  39 01 80 02 02 10 47 80  .....s089.....G.
0E00: 80 2E 0E 9F 67 80 F8 FF  FF 7F F8 FF FF 7F 66 72  ....g.........fr
0E10: 73 74 01 80 1C 68 80 9F  67 80 F8 FF FF 7F F8 FF  st...h..g.......
0E20: FF 7F 6F 6B 65 78 01 80  1C 02 80 01 93 0F 02 02  ..okex..........
0E30: 10 48 80 80 61 0E 9F 69  80 F8 FF FF 7F F8 FF FF  .H..a..i........
0E40: 7F 66 72 73 74 01 80 1C  68 80 9F 69 80 F8 FF FF  .frst...h..i....
0E50: 7F F8 FF FF 7F 6F 6B 65  78 01 80 1C 02 80 01 93  .....okex.......
0E60: 0F 02 02 10 49 80 80 94  0E 9F 6A 80 F8 FF FF 7F  ....I.....j.....
0E70: F8 FF FF 7F 66 72 73 74  01 80 1C 68 80 9F 6A 80  ....frst...h..j.
0E80: F8 FF FF 7F F8 FF FF 7F  6F 6B 65 78 01 80 1C 02  ........okex....
0E90: 80 01 93 0F 02 02 10 4A  80 80 C7 0E 9F 6B 80 F8  .......J.....k..
0EA0: FF FF 7F F8 FF FF 7F 66  72 73 74 01 80 1C 68 80  .......frst...h.
0EB0: 9F 6B 80 F8 FF FF 7F F8  FF FF 7F 6F 6B 65 78 01  .k.........okex.
0EC0: 80 1C 02 80 01 93 0F 02  02 10 4B 80 80 FA 0E 9F  ..........K.....
0ED0: 6C 80 F8 FF FF 7F F8 FF  FF 7F 66 72 73 74 01 80  l.........frst..
0EE0: 1C 68 80 9F 6C 80 F8 FF  FF 7F F8 FF FF 7F 6F 6B  .h..l.........ok
0EF0: 65 78 01 80 1C 02 80 01  93 0F 02 02 10 4C 80 80  ex...........L..
0F00: 2D 0F 9F 6D 80 F8 FF FF  7F F8 FF FF 7F 66 72 73  -..m.........frs
0F10: 74 01 80 1C 68 80 9F 6D  80 F8 FF FF 7F F8 FF FF  t...h..m........
0F20: 7F 6F 6B 65 78 01 80 1C  02 80 01 93 0F 02 02 10  .okex...........
0F30: 4D 80 80 60 0F 9F 6E 80  F8 FF FF 7F F8 FF FF 7F  M..`..n.........
0F40: 66 72 73 74 01 80 1C 68  80 9F 6E 80 F8 FF FF 7F  frst...h..n.....
0F50: F8 FF FF 7F 6F 6B 65 78  01 80 1C 02 80 01 93 0F  ....okex........
0F60: 02 02 10 4E 80 80 93 0F  9F 6F 80 F8 FF FF 7F F8  ...N.....o......
0F70: FF FF 7F 66 72 73 74 01  80 1C 68 80 9F 6F 80 F8  ...frst...h..o..
0F80: FF FF 7F F8 FF FF 7F 6F  6B 65 78 01 80 1C 02 80  .......okex.....
0F90: 01 93 0F 52 3F 80 F0 FF  FF 7F F0 FF FF 7F 73 30  ...R?.........s0
0FA0: 38 39 45 3F 80 F0 FF FF  7F F0 FF FF 7F 73 30 39  89E?.........s09
0FB0: 30 01 80 03 03 10 50 80  1C 3B 80 48 70 80 1C 02  0.....P..;.Hp...
0FC0: 80 52 3F 80 F0 FF FF 7F  F0 FF FF 7F 73 30 39 30  .R?.........s090
0FD0: 45 3F 80 F0 FF FF 7F F0  FF FF 7F 73 30 39 31 01  E?.........s091.
0FE0: 80 1D 71 80 23 01 08 10  02 00 10 10 80 00 08 10  ..q.#...........
0FF0: 93 01 80 52 3F 80 F0 FF  FF 7F F0 FF FF 7F 73 30  ...R?.........s0
1000: 38 33 01 65 0C 01 08 10  45 00 80 F0 FF FF 7F F0  83.e....E.......
1010: FF FF 7F 66 64 6F 31 01  80 1C 02 80 52 3F 80 F0  ...fdo1.....R?..
1020: FF FF 7F F0 FF FF 7F 73  30 39 31 45 36 80 F8 FF  .......s091E6...
1030: FF 7F F8 FF FF 7F 71 73  74 63 01 80 46 00 45 00  ......qstc..F.E.
1040: 80 F0 FF FF 7F F0 FF FF  7F 66 64 69 31 01 80 21  .........fdi1..!
1050: 00                                                .               
```

#### Opcodes

```
  0: 0x0BAE [0x42] SET_CLI_EVENT_CANCEL_DATA()
  1: 0x0BAF [0x03] Work_Zone[1] = 0*
  2: 0x0BB4 [0x46] CAMERA_CONTROL: Disable user control
  3: 0x0BB6 [0x38] SET_CLIENT_EVENT_MODE(mode=19*)
  4: 0x0BB9 [0x45] LOAD_SCHEDULED_TASK: Load scheduler "fdo1" with entities [LocalPlayer, LocalPlayer], work=[200*, 0*]
  5: 0x0BCA [0x1C] WAIT(60* ticks)
  6: 0x0BCD [0xBA] SET_ENTITY_POSITION(entity_id=LocalPlayer, pos_x=-81.901*, pos_z=-18.041*, pos_y=2.000*, direction=180.0°*)
  7: 0x0BDA [0x80] LOAD_WAIT(entity=LocalPlayer)
  8: 0x0BDF [0x80] LOAD_WAIT(entity=Hildolf (ID: 17748169/0x010ED0C9))
  9: 0x0BE4 [0x80] LOAD_WAIT(entity=Synergy Furnace (ID: 17748173/0x010ED0CD))
 10: 0x0BE9 [0x92] Hildolf (ID: 17748169/0x010ED0C9)->Render.Flags3 ^= 0x01
 11: 0x0BEF [0x92] Synergy Furnace (ID: 17748173/0x010ED0CD)->Render.Flags3 ^= 0x01
 12: 0x0BF5 [0x4A] LocalPlayer looks at EventEntity
 13: 0x0BFE [0x1E] EventEntity looks at LocalPlayer and starts talking
 14: 0x0C03 [0x1C] WAIT(30* ticks)
 15: 0x0C06 [0x45] LOAD_SCHEDULED_TASK: Load scheduler "s087" with entities [LocalPlayer, LocalPlayer], work=[557*, 0*]
 16: 0x0C17 [0x45] LOAD_SCHEDULED_TASK: Load scheduler "fdi1" with entities [LocalPlayer, LocalPlayer], work=[200*, 0*]
 17: 0x0C28 [0x1C] WAIT(30* ticks)
 18: 0x0C2B [0x66] LOAD_EXT_SCHEDULER_MAIN: Load scheduler "tlk0" with entities [EventEntity, EventEntity], work=9*
 19: 0x0C3A [0x03] Work_Zone[2] = 637*
 20: 0x0C3F [0x1D] PRINT_EVENT_MESSAGE(message_id=7373*)
    → "Yes, this is certainly $0. There can be no mistaking it."
 21: 0x0C42 [0x23] WAIT_FOR_DIALOG_INTERACTION
 22: 0x0C43 [0x1D] PRINT_EVENT_MESSAGE(message_id=7374*)
    → "As promised, I shall synthesize for you the fewell you desire. What shall it be?"
 23: 0x0C46 [0x23] WAIT_FOR_DIALOG_INTERACTION
 24: 0x0C47 [0x66] LOAD_EXT_SCHEDULER_MAIN: Load scheduler "tlk1" with entities [EventEntity, EventEntity], work=9*
 25: 0x0C56 [0x52] END_LOAD_SCHEDULER: End scheduler "s087" with entities [LocalPlayer, LocalPlayer], work=557*
 26: 0x0C65 [0x45] LOAD_SCHEDULED_TASK: Load scheduler "s081" with entities [LocalPlayer, LocalPlayer], work=[557*, 0*]
 27: 0x0C76 [0x03] Work_Zone[2] = 2784*
 28: 0x0C7B [0x03] Work_Zone[3] = 2785*
 29: 0x0C80 [0x03] Work_Zone[4] = 2786*
 30: 0x0C85 [0x03] Work_Zone[5] = 2787*
 31: 0x0C8A [0x03] Work_Zone[6] = 2788*
 32: 0x0C8F [0x03] Work_Zone[7] = 2789*
 33: 0x0C94 [0x03] Work_Zone[8] = 2790*
 34: 0x0C99 [0x03] Work_Zone[9] = 2791*
 35: 0x0C9E [0x03] ExtData[1]->WorkLocal[0] = 256*
 36: 0x0CA3 [0x24] CREATE_DIALOG(message_id=7355*, default_option=0*, option_flags=ExtData[1]->WorkLocal[0])
    → "Obtain fewell? [#./$1./$2./$3./$4./$5./$6./$7./Perhaps another time.]"
 37: 0x0CAA [0x25] WAIT_DIALOG_SELECT()
 38: 0x0CAB [0x02] IF !(Work_Zone[0] == 0*) GOTO 0x0CC0
 39: 0x0CB3 [0x03] Work_Zone[2] = 2784*
 40: 0x0CB8 [0x03] Work_Zone[1] = 1*
 41: 0x0CBD [0x01] GOTO 0x0D53
 42: 0x0CC0 [0x02] IF !(Work_Zone[0] == 1*) GOTO 0x0CD5
 43: 0x0CC8 [0x03] Work_Zone[2] = 2785*
 44: 0x0CCD [0x03] Work_Zone[1] = 2*
 45: 0x0CD2 [0x01] GOTO 0x0D53
 46: 0x0CD5 [0x02] IF !(Work_Zone[0] == 2*) GOTO 0x0CEA
 47: 0x0CDD [0x03] Work_Zone[2] = 2786*
 48: 0x0CE2 [0x03] Work_Zone[1] = 3*
 49: 0x0CE7 [0x01] GOTO 0x0D53
 50: 0x0CEA [0x02] IF !(Work_Zone[0] == 3*) GOTO 0x0CFF
 51: 0x0CF2 [0x03] Work_Zone[2] = 2787*
 52: 0x0CF7 [0x03] Work_Zone[1] = 4*
 53: 0x0CFC [0x01] GOTO 0x0D53
 54: 0x0CFF [0x02] IF !(Work_Zone[0] == 4*) GOTO 0x0D14
 55: 0x0D07 [0x03] Work_Zone[2] = 2788*
 56: 0x0D0C [0x03] Work_Zone[1] = 5*
 57: 0x0D11 [0x01] GOTO 0x0D53
 58: 0x0D14 [0x02] IF !(Work_Zone[0] == 5*) GOTO 0x0D29
 59: 0x0D1C [0x03] Work_Zone[2] = 2789*
 60: 0x0D21 [0x03] Work_Zone[1] = 6*
 61: 0x0D26 [0x01] GOTO 0x0D53
 62: 0x0D29 [0x02] IF !(Work_Zone[0] == 6*) GOTO 0x0D3E
 63: 0x0D31 [0x03] Work_Zone[2] = 2790*
 64: 0x0D36 [0x03] Work_Zone[1] = 7*
 65: 0x0D3B [0x01] GOTO 0x0D53
 66: 0x0D3E [0x02] IF !(Work_Zone[0] == 7*) GOTO 0x0D53
 67: 0x0D46 [0x03] Work_Zone[2] = 2791*
 68: 0x0D4B [0x03] Work_Zone[1] = 8*
 69: 0x0D50 [0x01] GOTO 0x0D53

SUBROUTINE_0D53:
 70: 0x0D53 [0x52] END_LOAD_SCHEDULER: End scheduler "s081" with entities [LocalPlayer, LocalPlayer], work=557*
 71: 0x0D62 [0x45] LOAD_SCHEDULED_TASK: Load scheduler "s083" with entities [LocalPlayer, LocalPlayer], work=[557*, 0*]
 72: 0x0D73 [0x93] DISPLAY_ITEM_INFO(item_id=Work_Zone[2])
 73: 0x0D76 [0x66] LOAD_EXT_SCHEDULER_MAIN: Load scheduler "tlk0" with entities [EventEntity, EventEntity], work=9*
 74: 0x0D85 [0x1D] PRINT_EVENT_MESSAGE(message_id=7357*)
    → "It is $0 you seek, yes?"
 75: 0x0D88 [0x23] WAIT_FOR_DIALOG_INTERACTION
 76: 0x0D89 [0x66] LOAD_EXT_SCHEDULER_MAIN: Load scheduler "tlk1" with entities [EventEntity, EventEntity], work=9*
 77: 0x0D98 [0x24] CREATE_DIALOG(message_id=7358*, default_option=1*, option_flags=0*)
    → "Accept fewell? [Yes./No.]"
 78: 0x0D9F [0x25] WAIT_DIALOG_SELECT()
 79: 0x0DA0 [0x02] IF !(Work_Zone[0] == 0*) GOTO 0x0FE8
 80: 0x0DA8 [0x93] DISPLAY_ITEM_INFO(item_id=0*)
 81: 0x0DAB [0x52] END_LOAD_SCHEDULER: End scheduler "s083" with entities [LocalPlayer, LocalPlayer], work=557*
 82: 0x0DBA [0x45] LOAD_SCHEDULED_TASK: Load scheduler "s088" with entities [LocalPlayer, LocalPlayer], work=[557*, 0*]
 83: 0x0DCB [0x6E] EventEntity uses emote 7*
 84: 0x0DD2 [0x99] Wait for EventEntity animation to complete
 85: 0x0DD7 [0x1D] PRINT_EVENT_MESSAGE(message_id=7375*)
    → "Very well! Now step back and gaze upon Professor Hildolf's Synthesis 101. This will be on the test, so you may want to take notes."
 86: 0x0DDA [0x23] WAIT_FOR_DIALOG_INTERACTION
 87: 0x0DDB [0x52] END_LOAD_SCHEDULER: End scheduler "s088" with entities [LocalPlayer, LocalPlayer], work=557*
 88: 0x0DEA [0x45] LOAD_SCHEDULED_TASK: Load scheduler "s089" with entities [LocalPlayer, LocalPlayer], work=[557*, 0*]
 89: 0x0DFB [0x02] IF !(Work_Zone[2] == 2784*) GOTO 0x0E2E
 90: 0x0E03 [0x9F] LOAD_SCHEDULED_TASK_ALT: Load scheduler "frst" with entities [EventEntity, EventEntity], work=[190*, 0*]
 91: 0x0E14 [0x1C] WAIT(120* ticks)
 92: 0x0E17 [0x9F] LOAD_SCHEDULED_TASK_ALT: Load scheduler "okex" with entities [EventEntity, EventEntity], work=[190*, 0*]
 93: 0x0E28 [0x1C] WAIT(60* ticks)
 94: 0x0E2B [0x01] GOTO 0x0F93
 95: 0x0E2E [0x02] IF !(Work_Zone[2] == 2785*) GOTO 0x0E61
 96: 0x0E36 [0x9F] LOAD_SCHEDULED_TASK_ALT: Load scheduler "frst" with entities [EventEntity, EventEntity], work=[193*, 0*]
 97: 0x0E47 [0x1C] WAIT(120* ticks)
 98: 0x0E4A [0x9F] LOAD_SCHEDULED_TASK_ALT: Load scheduler "okex" with entities [EventEntity, EventEntity], work=[193*, 0*]
 99: 0x0E5B [0x1C] WAIT(60* ticks)
100: 0x0E5E [0x01] GOTO 0x0F93
101: 0x0E61 [0x02] IF !(Work_Zone[2] == 2786*) GOTO 0x0E94
102: 0x0E69 [0x9F] LOAD_SCHEDULED_TASK_ALT: Load scheduler "frst" with entities [EventEntity, EventEntity], work=[189*, 0*]
103: 0x0E7A [0x1C] WAIT(120* ticks)
104: 0x0E7D [0x9F] LOAD_SCHEDULED_TASK_ALT: Load scheduler "okex" with entities [EventEntity, EventEntity], work=[189*, 0*]
105: 0x0E8E [0x1C] WAIT(60* ticks)
106: 0x0E91 [0x01] GOTO 0x0F93
107: 0x0E94 [0x02] IF !(Work_Zone[2] == 2787*) GOTO 0x0EC7
108: 0x0E9C [0x9F] LOAD_SCHEDULED_TASK_ALT: Load scheduler "frst" with entities [EventEntity, EventEntity], work=[191*, 0*]
109: 0x0EAD [0x1C] WAIT(120* ticks)
110: 0x0EB0 [0x9F] LOAD_SCHEDULED_TASK_ALT: Load scheduler "okex" with entities [EventEntity, EventEntity], work=[191*, 0*]
111: 0x0EC1 [0x1C] WAIT(60* ticks)
112: 0x0EC4 [0x01] GOTO 0x0F93
113: 0x0EC7 [0x02] IF !(Work_Zone[2] == 2788*) GOTO 0x0EFA
114: 0x0ECF [0x9F] LOAD_SCHEDULED_TASK_ALT: Load scheduler "frst" with entities [EventEntity, EventEntity], work=[192*, 0*]
115: 0x0EE0 [0x1C] WAIT(120* ticks)
116: 0x0EE3 [0x9F] LOAD_SCHEDULED_TASK_ALT: Load scheduler "okex" with entities [EventEntity, EventEntity], work=[192*, 0*]
117: 0x0EF4 [0x1C] WAIT(60* ticks)
118: 0x0EF7 [0x01] GOTO 0x0F93
119: 0x0EFA [0x02] IF !(Work_Zone[2] == 2789*) GOTO 0x0F2D
120: 0x0F02 [0x9F] LOAD_SCHEDULED_TASK_ALT: Load scheduler "frst" with entities [EventEntity, EventEntity], work=[188*, 0*]
121: 0x0F13 [0x1C] WAIT(120* ticks)
122: 0x0F16 [0x9F] LOAD_SCHEDULED_TASK_ALT: Load scheduler "okex" with entities [EventEntity, EventEntity], work=[188*, 0*]
123: 0x0F27 [0x1C] WAIT(60* ticks)
124: 0x0F2A [0x01] GOTO 0x0F93
125: 0x0F2D [0x02] IF !(Work_Zone[2] == 2790*) GOTO 0x0F60
126: 0x0F35 [0x9F] LOAD_SCHEDULED_TASK_ALT: Load scheduler "frst" with entities [EventEntity, EventEntity], work=[194*, 0*]
127: 0x0F46 [0x1C] WAIT(120* ticks)
128: 0x0F49 [0x9F] LOAD_SCHEDULED_TASK_ALT: Load scheduler "okex" with entities [EventEntity, EventEntity], work=[194*, 0*]
129: 0x0F5A [0x1C] WAIT(60* ticks)
130: 0x0F5D [0x01] GOTO 0x0F93
131: 0x0F60 [0x02] IF !(Work_Zone[2] == 2791*) GOTO 0x0F93
132: 0x0F68 [0x9F] LOAD_SCHEDULED_TASK_ALT: Load scheduler "frst" with entities [EventEntity, EventEntity], work=[195*, 0*]
133: 0x0F79 [0x1C] WAIT(120* ticks)
134: 0x0F7C [0x9F] LOAD_SCHEDULED_TASK_ALT: Load scheduler "okex" with entities [EventEntity, EventEntity], work=[195*, 0*]
135: 0x0F8D [0x1C] WAIT(60* ticks)
136: 0x0F90 [0x01] GOTO 0x0F93

SUBROUTINE_0F93:
137: 0x0F93 [0x52] END_LOAD_SCHEDULER: End scheduler "s089" with entities [LocalPlayer, LocalPlayer], work=557*
138: 0x0FA2 [0x45] LOAD_SCHEDULED_TASK: Load scheduler "s090" with entities [LocalPlayer, LocalPlayer], work=[557*, 0*]
139: 0x0FB3 [0x03] Work_Zone[3] = 3*
140: 0x0FB8 [0x1C] WAIT(30* ticks)
141: 0x0FBB [0x48] [System] [7376*]:
    → "Hildolf synthesized $1 $0 !"
142: 0x0FBE [0x1C] WAIT(60* ticks)
143: 0x0FC1 [0x52] END_LOAD_SCHEDULER: End scheduler "s090" with entities [LocalPlayer, LocalPlayer], work=557*
144: 0x0FD0 [0x45] LOAD_SCHEDULED_TASK: Load scheduler "s091" with entities [LocalPlayer, LocalPlayer], work=[557*, 0*]
145: 0x0FE1 [0x1D] PRINT_EVENT_MESSAGE(message_id=7377*)
    → "Now that's some smooth synthesizing, if I do say so myself! And since my laboratory is already overflowing with fewell, why don't you take it all?"
146: 0x0FE4 [0x23] WAIT_FOR_DIALOG_INTERACTION
147: 0x0FE5 [0x01] GOTO 0x1008
148: 0x0FE8 [0x02] IF !(Work_Zone[0] == 1*) GOTO 0x1008
149: 0x0FF0 [0x93] DISPLAY_ITEM_INFO(item_id=0*)
150: 0x0FF3 [0x52] END_LOAD_SCHEDULER: End scheduler "s083" with entities [LocalPlayer, LocalPlayer], work=557*
151: 0x1002 [0x01] GOTO 0x0C65

SUBROUTINE_1008:
152: 0x1008 [0x45] LOAD_SCHEDULED_TASK: Load scheduler "fdo1" with entities [LocalPlayer, LocalPlayer], work=[200*, 0*]
153: 0x1019 [0x1C] WAIT(60* ticks)
154: 0x101C [0x52] END_LOAD_SCHEDULER: End scheduler "s091" with entities [LocalPlayer, LocalPlayer], work=557*
155: 0x102B [0x45] LOAD_SCHEDULED_TASK: Load scheduler "qstc" with entities [EventEntity, EventEntity], work=[201*, 0*]
156: 0x103C [0x46] CAMERA_CONTROL: Restore default settings
157: 0x103E [0x45] LOAD_SCHEDULED_TASK: Load scheduler "fdi1" with entities [LocalPlayer, LocalPlayer], work=[200*, 0*]
158: 0x104F [0x21] END_EVENT
159: 0x1050 [0x00] END_REQSTACK()
```

#### Data or dead code:

```
# Dead code (unreachable instructions):
     0x1005 [0x01] GOTO 0x1008
```

### Event 976

#### Metadata

| Field        | Value    |
|--------------|----------|
| Entrypoint   | 0x1051   |
| Data Size    | 30 bytes |
| Instructions | 10       |

```
      00 01 02 03 04 05 06 07  08 09 0A 0B 0C 0D 0E 0F
      -- -- -- -- -- -- -- --  -- -- -- -- -- -- -- --
1050:    1E F0 FF FF 7F 1C 3B  80 1D 72 80 23 6E F8 FF   ......;..r.#n..
1060: FF 7F 73 80 99 F8 FF FF  7F 1D 74 80 23 21 00     ..s.......t.#!. 
```

#### Opcodes

```
  0: 0x1051 [0x1E] EventEntity looks at LocalPlayer and starts talking
  1: 0x1056 [0x1C] WAIT(30* ticks)
  2: 0x1059 [0x1D] PRINT_EVENT_MESSAGE(message_id=7378*)
    → "Hm? Running low on fewell again, you say?"
  3: 0x105C [0x23] WAIT_FOR_DIALOG_INTERACTION
  4: 0x105D [0x6E] EventEntity uses emote 26*
  5: 0x1064 [0x99] Wait for EventEntity animation to complete
  6: 0x1069 [0x1D] PRINT_EVENT_MESSAGE(message_id=7379*)
    → "I sympathize, but as my research affords me no time to help you today. Remember, the true synergist is ever resourceful. I leave you to your own devices."
  7: 0x106C [0x23] WAIT_FOR_DIALOG_INTERACTION
  8: 0x106D [0x21] END_EVENT
  9: 0x106E [0x00] END_REQSTACK()
```
