# 17748122 - Prishe

## Common Data

| Field            | Value                |
|------------------|----------------------|
| Zone             | Metalworks (ID: 237) |
| Block Size       | 596 bytes            |
| Total Events     | 17                   |
| References Count | 51                   |

## List of Events

| Event ID                   | Entrypoint   |   Size |   Instructions |
|----------------------------|--------------|--------|----------------|
| [65535](#event-65535)      | 0x0000       |      7 |              2 |
| [845](#event-845)          | 0x0007       |     10 |              2 |
| [65535.1](#event-655351)   | 0x0011       |     24 |              6 |
| [65535.2](#event-655352)   | 0x0029       |     44 |             10 |
| [849](#event-849)          | 0x0055       |     10 |              2 |
| [65535.3](#event-655353)   | 0x005F       |     28 |              8 |
| [65535.4](#event-655354)   | 0x007B       |     15 |              5 |
| [65535.5](#event-655355)   | 0x008A       |     36 |              9 |
| [857](#event-857)          | 0x00AE       |     10 |              2 |
| [65535.6](#event-655356)   | 0x00B8       |     15 |              5 |
| [65535.7](#event-655357)   | 0x00C7       |     29 |              8 |
| [890](#event-890)          | 0x00E4       |      1 |              1 |
| [65535.8](#event-655358)   | 0x00E5       |     26 |              7 |
| [892](#event-892)          | 0x00FF       |      1 |              1 |
| [893](#event-893)          | 0x0100       |      1 |              1 |
| [65535.9](#event-655359)   | 0x0101       |     24 |              6 |
| [65535.10](#event-6553510) | 0x0119       |     24 |              6 |

## DAT References (imed_data)

|   Index | Hex Value   |   Dec Value |
|---------|-------------|-------------|
|       0 | 0xFFFFC7AF  |  4294952879 |
|       1 | 0xFFFFF4CF  |  4294964431 |
|       2 | 0xFFFFD514  |  4294956308 |
|       3 | 0x0C7A      |        3194 |
|       4 | 0x0012      |          18 |
|       5 | 0xFFFFCB45  |  4294953797 |
|       6 | 0x00BE      |         190 |
|       7 | 0x0036      |          54 |
|       8 | 0xFFFFC451  |  4294952017 |
|       9 | 0xFFFFEF0B  |  4294962955 |
|      10 | 0xFFFFBA97  |  4294949527 |
|      11 | 0xFFFFEEDC  |  4294962908 |
|      12 | 0xFFFFD8F0  |  4294957296 |
|      13 | 0xFFFFAB8B  |  4294945675 |
|      14 | 0xFFFFF74C  |  4294965068 |
|      15 | 0xFFFF9293  |  4294939283 |
|      16 | 0xFFFFF7FB  |  4294965243 |
|      17 | 0xFFFF6AC5  |  4294929093 |
|      18 | 0xFFFFFB2C  |  4294966060 |
|      19 | 0xFFFFD8F1  |  4294957297 |
|      20 | 0x002D      |          45 |
|      21 | 0x003C      |          60 |
|      22 | 0xFFFF7AD5  |  4294933205 |
|      23 | 0xFFFFFBE7  |  4294966247 |
|      24 | 0xFFFFA240  |  4294943296 |
|      25 | 0xFFFFFE10  |  4294966800 |
|      26 | 0xFFFFA6F0  |  4294944496 |
|      27 | 0xFFFFA308  |  4294943496 |
|      28 | 0xFFFFFE70  |  4294966896 |
|      29 | 0xFFFF6FCD  |  4294930381 |
|      30 | 0xFFFFF95B  |  4294965595 |
|      31 | 0xFFFF6072  |  4294926450 |
|      32 | 0xFFFFE98B  |  4294961547 |
|      33 | 0xFFFF9151  |  4294938961 |
|      34 | 0xFFFFFD16  |  4294966550 |
|      35 | 0x0FFB      |        4091 |
|      36 | 0xFFFFA8C1  |  4294944961 |
|      37 | 0x0064      |         100 |
|      38 | 0x000D      |          13 |
|      39 | 0xFFFF77A7  |  4294932391 |
|      40 | 0xFFFFF847  |  4294965319 |
|      41 | 0x0FF2      |        4082 |
|      42 | 0xFFFF8CD5  |  4294937813 |
|      43 | 0xFFFFF903  |  4294965507 |
|      44 | 0xFFFFC55E  |  4294952286 |
|      45 | 0xFFFFF2B4  |  4294963892 |
|      46 | 0x0C03      |        3075 |
|      47 | 0xFFFFC4A7  |  4294952103 |
|      48 | 0x0094      |         148 |
|      49 | 0xFFFFF69C  |  4294964892 |
|      50 | 0xFFFFC88F  |  4294953103 |

## Events

### Event 65535

#### Metadata

| Field        | Value   |
|--------------|---------|
| Entrypoint   | 0x0000  |
| Data Size    | 7 bytes |
| Instructions | 2       |

```
      00 01 02 03 04 05 06 07  08 09 0A 0B 0C 0D 0E 0F
      -- -- -- -- -- -- -- --  -- -- -- -- -- -- -- --
0000: 92 01 F8 FF FF 7F 00                              .......         
```

#### Opcodes

```
  0: 0x0000 [0x92] EventEntity->Render.Flags3 ^= 0x01
  1: 0x0006 [0x00] END_REQSTACK()
```

### Event 845

#### Metadata

| Field        | Value    |
|--------------|----------|
| Entrypoint   | 0x0007   |
| Data Size    | 10 bytes |
| Instructions | 2        |

```
      00 01 02 03 04 05 06 07  08 09 0A 0B 0C 0D 0E 0F
      -- -- -- -- -- -- -- --  -- -- -- -- -- -- -- --
0000:                      37  00 80 01 80 02 80 03 80         7........
0010: 00                                                .               
```

#### Opcodes

```
  0: 0x0007 [0x37] UPDATE_EVENT_POSITION_AND_DIR: x=-14.417*, z=-2.865*, y=-10.988*, direction=280.7°*
  1: 0x0010 [0x00] END_REQSTACK()
```

### Event 65535.1

#### Metadata

| Field        | Value    |
|--------------|----------|
| Entrypoint   | 0x0011   |
| Data Size    | 24 bytes |
| Instructions | 6        |

```
      00 01 02 03 04 05 06 07  08 09 0A 0B 0C 0D 0E 0F
      -- -- -- -- -- -- -- --  -- -- -- -- -- -- -- --
0010:    32 04 80 37 00 80 01  80 02 80 03 80 1F 00 05   2..7...........
0020: 80 06 80 02 80 1F 01 6F  00                       .......o.       
```

#### Opcodes

```
  0: 0x0011 [0x32] ExtData[1]->MainSpeed = 18* * 0.1
  1: 0x0014 [0x37] UPDATE_EVENT_POSITION_AND_DIR: x=-14.417*, z=-2.865*, y=-10.988*, direction=280.7°*
  2: 0x001D [0x1F] MOVE_ENTITY: EventEntity moves to X=-13.499*, Z=0.190*, Y=-10.988*
  3: 0x0025 [0x1F] MOVE_ENTITY: Update entity position (mode=1)
  4: 0x0027 [0x6F] WAIT_FRAME_DELAY: Yield until WaitTime reaches zero
  5: 0x0028 [0x00] END_REQSTACK()
```

### Event 65535.2

#### Metadata

| Field        | Value    |
|--------------|----------|
| Entrypoint   | 0x0029   |
| Data Size    | 44 bytes |
| Instructions | 10       |

```
      00 01 02 03 04 05 06 07  08 09 0A 0B 0C 0D 0E 0F
      -- -- -- -- -- -- -- --  -- -- -- -- -- -- -- --
0020:                             32 07 80 1F 00 08 80           2......
0030: 09 80 02 80 1F 01 1F 00  0A 80 0B 80 0C 80 1F 01  ................
0040: 1F 00 0D 80 0E 80 0C 80  1F 01 1F 00 0F 80 10 80  ................
0050: 0C 80 1F 01 00                                    .....           
```

#### Opcodes

```
  0: 0x0029 [0x32] ExtData[1]->MainSpeed = 54* * 0.1
  1: 0x002C [0x1F] MOVE_ENTITY: EventEntity moves to X=-15.279*, Z=-4.341*, Y=-10.988*
  2: 0x0034 [0x1F] MOVE_ENTITY: Update entity position (mode=1)
  3: 0x0036 [0x1F] MOVE_ENTITY: EventEntity moves to X=-17.769*, Z=-4.388*, Y=-10.000*
  4: 0x003E [0x1F] MOVE_ENTITY: Update entity position (mode=1)
  5: 0x0040 [0x1F] MOVE_ENTITY: EventEntity moves to X=-21.621*, Z=-2.228*, Y=-10.000*
  6: 0x0048 [0x1F] MOVE_ENTITY: Update entity position (mode=1)
  7: 0x004A [0x1F] MOVE_ENTITY: EventEntity moves to X=-28.013*, Z=-2.053*, Y=-10.000*
  8: 0x0052 [0x1F] MOVE_ENTITY: Update entity position (mode=1)
  9: 0x0054 [0x00] END_REQSTACK()
```

### Event 849

#### Metadata

| Field        | Value    |
|--------------|----------|
| Entrypoint   | 0x0055   |
| Data Size    | 10 bytes |
| Instructions | 2        |

```
      00 01 02 03 04 05 06 07  08 09 0A 0B 0C 0D 0E 0F
      -- -- -- -- -- -- -- --  -- -- -- -- -- -- -- --
0050:                37 11 80  12 80 13 80 14 80 00          7......... 
```

#### Opcodes

```
  0: 0x0055 [0x37] UPDATE_EVENT_POSITION_AND_DIR: x=-38.203*, z=-1.236*, y=-9.999*, direction=4.0°*
  1: 0x005E [0x00] END_REQSTACK()
```

### Event 65535.3

#### Metadata

| Field        | Value    |
|--------------|----------|
| Entrypoint   | 0x005F   |
| Data Size    | 28 bytes |
| Instructions | 8        |

```
      00 01 02 03 04 05 06 07  08 09 0A 0B 0C 0D 0E 0F
      -- -- -- -- -- -- -- --  -- -- -- -- -- -- -- --
0050:                                               1C                 .
0060: 15 80 32 04 80 1F 00 16  80 17 80 13 80 1F 01 1F  ..2.............
0070: 00 18 80 19 80 13 80 1F  01 6F 00                 .........o.     
```

#### Opcodes

```
  0: 0x005F [0x1C] WAIT(60* ticks)
  1: 0x0062 [0x32] ExtData[1]->MainSpeed = 18* * 0.1
  2: 0x0065 [0x1F] MOVE_ENTITY: EventEntity moves to X=-34.091*, Z=-1.049*, Y=-9.999*
  3: 0x006D [0x1F] MOVE_ENTITY: Update entity position (mode=1)
  4: 0x006F [0x1F] MOVE_ENTITY: EventEntity moves to X=-24.000*, Z=-0.496*, Y=-9.999*
  5: 0x0077 [0x1F] MOVE_ENTITY: Update entity position (mode=1)
  6: 0x0079 [0x6F] WAIT_FRAME_DELAY: Yield until WaitTime reaches zero
  7: 0x007A [0x00] END_REQSTACK()
```

### Event 65535.4

#### Metadata

| Field        | Value    |
|--------------|----------|
| Entrypoint   | 0x007B   |
| Data Size    | 15 bytes |
| Instructions | 5        |

```
      00 01 02 03 04 05 06 07  08 09 0A 0B 0C 0D 0E 0F
      -- -- -- -- -- -- -- --  -- -- -- -- -- -- -- --
0070:                                   32 04 80 1F 00             2....
0080: 1A 80 19 80 13 80 1F 01  6F 00                    ........o.      
```

#### Opcodes

```
  0: 0x007B [0x32] ExtData[1]->MainSpeed = 18* * 0.1
  1: 0x007E [0x1F] MOVE_ENTITY: EventEntity moves to X=-22.800*, Z=-0.496*, Y=-9.999*
  2: 0x0086 [0x1F] MOVE_ENTITY: Update entity position (mode=1)
  3: 0x0088 [0x6F] WAIT_FRAME_DELAY: Yield until WaitTime reaches zero
  4: 0x0089 [0x00] END_REQSTACK()
```

### Event 65535.5

#### Metadata

| Field        | Value    |
|--------------|----------|
| Entrypoint   | 0x008A   |
| Data Size    | 36 bytes |
| Instructions | 9        |

```
      00 01 02 03 04 05 06 07  08 09 0A 0B 0C 0D 0E 0F
      -- -- -- -- -- -- -- --  -- -- -- -- -- -- -- --
0080:                                32 07 80 1F 00 1B            2.....
0090: 80 1C 80 13 80 1F 01 1F  00 1D 80 1E 80 13 80 1F  ................
00A0: 01 1F 00 1F 80 20 80 13  80 1F 01 22 01 00        ..... ....."..  
```

#### Opcodes

```
  0: 0x008A [0x32] ExtData[1]->MainSpeed = 54* * 0.1
  1: 0x008D [0x1F] MOVE_ENTITY: EventEntity moves to X=-23.800*, Z=-0.400*, Y=-9.999*
  2: 0x0095 [0x1F] MOVE_ENTITY: Update entity position (mode=1)
  3: 0x0097 [0x1F] MOVE_ENTITY: EventEntity moves to X=-36.915*, Z=-1.701*, Y=-9.999*
  4: 0x009F [0x1F] MOVE_ENTITY: Update entity position (mode=1)
  5: 0x00A1 [0x1F] MOVE_ENTITY: EventEntity moves to X=-40.846*, Z=-5.749*, Y=-9.999*
  6: 0x00A9 [0x1F] MOVE_ENTITY: Update entity position (mode=1)
  7: 0x00AB [0x22] ENTITY_HIDE_FLAG(enabled=0x01)
  8: 0x00AD [0x00] END_REQSTACK()
```

### Event 857

#### Metadata

| Field        | Value    |
|--------------|----------|
| Entrypoint   | 0x00AE   |
| Data Size    | 10 bytes |
| Instructions | 2        |

```
      00 01 02 03 04 05 06 07  08 09 0A 0B 0C 0D 0E 0F
      -- -- -- -- -- -- -- --  -- -- -- -- -- -- -- --
00A0:                                            37 21                7!
00B0: 80 22 80 13 80 23 80 00                           ."...#..        
```

#### Opcodes

```
  0: 0x00AE [0x37] UPDATE_EVENT_POSITION_AND_DIR: x=-28.335*, z=-0.746*, y=-9.999*, direction=359.5°*
  1: 0x00B7 [0x00] END_REQSTACK()
```

### Event 65535.6

#### Metadata

| Field        | Value    |
|--------------|----------|
| Entrypoint   | 0x00B8   |
| Data Size    | 15 bytes |
| Instructions | 5        |

```
      00 01 02 03 04 05 06 07  08 09 0A 0B 0C 0D 0E 0F
      -- -- -- -- -- -- -- --  -- -- -- -- -- -- -- --
00B0:                          32 04 80 1F 00 24 80 22          2....$."
00C0: 80 13 80 1F 01 6F 00                              .....o.         
```

#### Opcodes

```
  0: 0x00B8 [0x32] ExtData[1]->MainSpeed = 18* * 0.1
  1: 0x00BB [0x1F] MOVE_ENTITY: EventEntity moves to X=-22.335*, Z=-0.746*, Y=-9.999*
  2: 0x00C3 [0x1F] MOVE_ENTITY: Update entity position (mode=1)
  3: 0x00C5 [0x6F] WAIT_FRAME_DELAY: Yield until WaitTime reaches zero
  4: 0x00C6 [0x00] END_REQSTACK()
```

### Event 65535.7

#### Metadata

| Field        | Value    |
|--------------|----------|
| Entrypoint   | 0x00C7   |
| Data Size    | 29 bytes |
| Instructions | 8        |

```
      00 01 02 03 04 05 06 07  08 09 0A 0B 0C 0D 0E 0F
      -- -- -- -- -- -- -- --  -- -- -- -- -- -- -- --
00C0:                      1C  25 80 32 04 80 1F 00 1D         .%.2.....
00D0: 80 1E 80 13 80 1F 01 1F  00 1F 80 20 80 13 80 1F  ........... ....
00E0: 01 22 01 00                                       ."..            
```

#### Opcodes

```
  0: 0x00C7 [0x1C] WAIT(100* ticks)
  1: 0x00CA [0x32] ExtData[1]->MainSpeed = 18* * 0.1
  2: 0x00CD [0x1F] MOVE_ENTITY: EventEntity moves to X=-36.915*, Z=-1.701*, Y=-9.999*
  3: 0x00D5 [0x1F] MOVE_ENTITY: Update entity position (mode=1)
  4: 0x00D7 [0x1F] MOVE_ENTITY: EventEntity moves to X=-40.846*, Z=-5.749*, Y=-9.999*
  5: 0x00DF [0x1F] MOVE_ENTITY: Update entity position (mode=1)
  6: 0x00E1 [0x22] ENTITY_HIDE_FLAG(enabled=0x01)
  7: 0x00E3 [0x00] END_REQSTACK()
```

### Event 890

#### Metadata

| Field        | Value   |
|--------------|---------|
| Entrypoint   | 0x00E4  |
| Data Size    | 1 bytes |
| Instructions | 1       |

```
      00 01 02 03 04 05 06 07  08 09 0A 0B 0C 0D 0E 0F
      -- -- -- -- -- -- -- --  -- -- -- -- -- -- -- --
00E0:             00                                        .           
```

#### Opcodes

```
  0: 0x00E4 [0x00] END_REQSTACK()
```

### Event 65535.8

#### Metadata

| Field        | Value    |
|--------------|----------|
| Entrypoint   | 0x00E5   |
| Data Size    | 26 bytes |
| Instructions | 7        |

```
      00 01 02 03 04 05 06 07  08 09 0A 0B 0C 0D 0E 0F
      -- -- -- -- -- -- -- --  -- -- -- -- -- -- -- --
00E0:                22 00 32  26 80 37 27 80 28 80 13       ".2&.7'.(..
00F0: 80 29 80 1F 00 2A 80 2B  80 13 80 1F 01 6F 00     .)...*.+.....o. 
```

#### Opcodes

```
  0: 0x00E5 [0x22] ENTITY_HIDE_FLAG(enabled=0x00)
  1: 0x00E7 [0x32] ExtData[1]->MainSpeed = 13* * 0.1
  2: 0x00EA [0x37] UPDATE_EVENT_POSITION_AND_DIR: x=-34.905*, z=-1.977*, y=-9.999*, direction=358.8°*
  3: 0x00F3 [0x1F] MOVE_ENTITY: EventEntity moves to X=-29.483*, Z=-1.789*, Y=-9.999*
  4: 0x00FB [0x1F] MOVE_ENTITY: Update entity position (mode=1)
  5: 0x00FD [0x6F] WAIT_FRAME_DELAY: Yield until WaitTime reaches zero
  6: 0x00FE [0x00] END_REQSTACK()
```

### Event 892

#### Metadata

| Field        | Value   |
|--------------|---------|
| Entrypoint   | 0x00FF  |
| Data Size    | 1 bytes |
| Instructions | 1       |

```
      00 01 02 03 04 05 06 07  08 09 0A 0B 0C 0D 0E 0F
      -- -- -- -- -- -- -- --  -- -- -- -- -- -- -- --
00F0:                                               00                 .
```

#### Opcodes

```
  0: 0x00FF [0x00] END_REQSTACK()
```

### Event 893

#### Metadata

| Field        | Value   |
|--------------|---------|
| Entrypoint   | 0x0100  |
| Data Size    | 1 bytes |
| Instructions | 1       |

```
      00 01 02 03 04 05 06 07  08 09 0A 0B 0C 0D 0E 0F
      -- -- -- -- -- -- -- --  -- -- -- -- -- -- -- --
0100: 00                                                .               
```

#### Opcodes

```
  0: 0x0100 [0x00] END_REQSTACK()
```

### Event 65535.9

#### Metadata

| Field        | Value    |
|--------------|----------|
| Entrypoint   | 0x0101   |
| Data Size    | 24 bytes |
| Instructions | 6        |

```
      00 01 02 03 04 05 06 07  08 09 0A 0B 0C 0D 0E 0F
      -- -- -- -- -- -- -- --  -- -- -- -- -- -- -- --
0100:    37 2C 80 2D 80 02 80  2E 80 32 26 80 1F 00 2F   7,.-.....2&.../
0110: 80 30 80 02 80 1F 01 6F  00                       .0.....o.       
```

#### Opcodes

```
  0: 0x0101 [0x37] UPDATE_EVENT_POSITION_AND_DIR: x=-15.010*, z=-3.404*, y=-10.988*, direction=270.3°*
  1: 0x010A [0x32] ExtData[1]->MainSpeed = 13* * 0.1
  2: 0x010D [0x1F] MOVE_ENTITY: EventEntity moves to X=-15.193*, Z=0.148*, Y=-10.988*
  3: 0x0115 [0x1F] MOVE_ENTITY: Update entity position (mode=1)
  4: 0x0117 [0x6F] WAIT_FRAME_DELAY: Yield until WaitTime reaches zero
  5: 0x0118 [0x00] END_REQSTACK()
```

### Event 65535.10

#### Metadata

| Field        | Value    |
|--------------|----------|
| Entrypoint   | 0x0119   |
| Data Size    | 24 bytes |
| Instructions | 6        |

```
      00 01 02 03 04 05 06 07  08 09 0A 0B 0C 0D 0E 0F
      -- -- -- -- -- -- -- --  -- -- -- -- -- -- -- --
0110:                             37 2C 80 31 80 02 80           7,.1...
0120: 2E 80 32 26 80 1F 00 32  80 30 80 02 80 1F 01 6F  ..2&...2.0.....o
0130: 00                                                .               
```

#### Opcodes

```
  0: 0x0119 [0x37] UPDATE_EVENT_POSITION_AND_DIR: x=-15.010*, z=-2.404*, y=-10.988*, direction=270.3°*
  1: 0x0122 [0x32] ExtData[1]->MainSpeed = 13* * 0.1
  2: 0x0125 [0x1F] MOVE_ENTITY: EventEntity moves to X=-14.193*, Z=0.148*, Y=-10.988*
  3: 0x012D [0x1F] MOVE_ENTITY: Update entity position (mode=1)
  4: 0x012F [0x6F] WAIT_FRAME_DELAY: Yield until WaitTime reaches zero
  5: 0x0130 [0x00] END_REQSTACK()
```
