# 17748149 - Pensive Beast

## Common Data

| Field            | Value                |
|------------------|----------------------|
| Zone             | Metalworks (ID: 237) |
| Block Size       | 1036 bytes           |
| Total Events     | 38                   |
| References Count | 90                   |

## List of Events

| Event ID                   | Entrypoint   |   Size |   Instructions |
|----------------------------|--------------|--------|----------------|
| [65535](#event-65535)      | 0x0000       |      1 |              1 |
| [908](#event-908)          | 0x0001       |      1 |              1 |
| [65535.1](#event-655351)   | 0x0002       |     15 |              3 |
| [909](#event-909)          | 0x0011       |      1 |              1 |
| [65535.2](#event-655352)   | 0x0012       |     15 |              3 |
| [910](#event-910)          | 0x0021       |      1 |              1 |
| [65535.3](#event-655353)   | 0x0022       |     15 |              3 |
| [920](#event-920)          | 0x0031       |      1 |              1 |
| [65535.4](#event-655354)   | 0x0032       |     15 |              3 |
| [65535.5](#event-655355)   | 0x0041       |     14 |              4 |
| [65535.6](#event-655356)   | 0x004F       |     14 |              4 |
| [900](#event-900)          | 0x005D       |      1 |              1 |
| [65535.7](#event-655357)   | 0x005E       |     15 |              3 |
| [65535.8](#event-655358)   | 0x006D       |     14 |              4 |
| [65535.9](#event-655359)   | 0x007B       |     15 |              3 |
| [65535.10](#event-6553510) | 0x008A       |     44 |             10 |
| [65535.11](#event-6553511) | 0x00B6       |     14 |              4 |
| [65535.12](#event-6553512) | 0x00C4       |     24 |              6 |
| [65535.13](#event-6553513) | 0x00DC       |     15 |              3 |
| [65535.14](#event-6553514) | 0x00EB       |     14 |              4 |
| [65535.15](#event-6553515) | 0x00F9       |     14 |              4 |
| [65535.16](#event-6553516) | 0x0107       |     15 |              3 |
| [65535.17](#event-6553517) | 0x0116       |     15 |              3 |
| [65535.18](#event-6553518) | 0x0125       |     14 |              4 |
| [65535.19](#event-6553519) | 0x0133       |     14 |              4 |
| [65535.20](#event-6553520) | 0x0141       |     14 |              4 |
| [65535.21](#event-6553521) | 0x014F       |     14 |              4 |
| [65535.22](#event-6553522) | 0x015D       |     14 |              4 |
| [65535.23](#event-6553523) | 0x016B       |     24 |              6 |
| [65535.24](#event-6553524) | 0x0183       |     14 |              4 |
| [65535.25](#event-6553525) | 0x0191       |     14 |              4 |
| [65535.26](#event-6553526) | 0x019F       |     15 |              3 |
| [65535.27](#event-6553527) | 0x01AE       |     15 |              3 |
| [65535.28](#event-6553528) | 0x01BD       |     14 |              4 |
| [65535.29](#event-6553529) | 0x01CB       |     14 |              4 |
| [65535.30](#event-6553530) | 0x01D9       |     15 |              3 |
| [65535.31](#event-6553531) | 0x01E8       |     19 |              5 |
| [926](#event-926)          | 0x01FB       |      1 |              1 |

## DAT References (imed_data)

|   Index | Hex Value   |   Dec Value |
|---------|-------------|-------------|
|       0 | 0xFFFF32EB  |  4294914795 |
|       1 | 0x5646      |       22086 |
|       2 | 0x0AD5      |        2773 |
|       3 | 0x0BC8      |        3016 |
|       4 | 0xFFFFCDE1  |  4294954465 |
|       5 | 0xFFFFF120  |  4294963488 |
|       6 | 0x0000      |           0 |
|       7 | 0x07BD      |        1981 |
|       8 | 0xFFFE91DD  |  4294873565 |
|       9 | 0xFFFFDC38  |  4294958136 |
|      10 | 0x07CF      |        1999 |
|      11 | 0x002E      |          46 |
|      12 | 0xFFFF8BA4  |  4294937508 |
|      13 | 0xFFFFFF54  |  4294967124 |
|      14 | 0x1F3F      |        7999 |
|      15 | 0x0F05      |        3845 |
|      16 | 0x000D      |          13 |
|      17 | 0xFFFF95C8  |  4294940104 |
|      18 | 0xFFFFFF86  |  4294967174 |
|      19 | 0xFFFF73AE  |  4294931374 |
|      20 | 0xFFFFFFFF  |  4294967295 |
|      21 | 0xFFFF33A2  |  4294914978 |
|      22 | 0xFFFFFBB9  |  4294966201 |
|      23 | 0x07D0      |        2000 |
|      24 | 0x0BBC      |        3004 |
|      25 | 0xFFFF2CEC  |  4294913260 |
|      26 | 0xFFFFECB5  |  4294962357 |
|      27 | 0xFFFF43AB  |  4294919083 |
|      28 | 0x6014      |       24596 |
|      29 | 0x0C80      |        3200 |
|      30 | 0x0028      |          40 |
|      31 | 0xFFFF3419  |  4294915097 |
|      32 | 0x7238      |       29240 |
|      33 | 0xFFFF27FC  |  4294911996 |
|      34 | 0x723A      |       29242 |
|      35 | 0xFFFF15F3  |  4294907379 |
|      36 | 0x5D77      |       23927 |
|      37 | 0xFFFF08AB  |  4294903979 |
|      38 | 0x4F94      |       20372 |
|      39 | 0xFFFF3A95  |  4294916757 |
|      40 | 0x6247      |       25159 |
|      41 | 0xFFFF3079  |  4294914169 |
|      42 | 0x7479      |       29817 |
|      43 | 0x095E      |        2398 |
|      44 | 0xFFFF2A51  |  4294912593 |
|      45 | 0x741C      |       29724 |
|      46 | 0xFFFF137D  |  4294906749 |
|      47 | 0x4444      |       17476 |
|      48 | 0x08DF      |        2271 |
|      49 | 0xFFFF07D1  |  4294903761 |
|      50 | 0x4A40      |       19008 |
|      51 | 0xFFFEFB95  |  4294900629 |
|      52 | 0x4D72      |       19826 |
|      53 | 0xFFFFC61A  |  4294952474 |
|      54 | 0xFFFFDC58  |  4294958168 |
|      55 | 0x0C69      |        3177 |
|      56 | 0xFFFF8D16  |  4294937878 |
|      57 | 0xFFFFCBBE  |  4294953918 |
|      58 | 0x09E9      |        2537 |
|      59 | 0xFFFF81C8  |  4294934984 |
|      60 | 0xFFFFD116  |  4294955286 |
|      61 | 0xFFFF7D16  |  4294933782 |
|      62 | 0xFFFFDA27  |  4294957607 |
|      63 | 0xFFFFCA61  |  4294953569 |
|      64 | 0xFFFFF929  |  4294965545 |
|      65 | 0xFFFFC080  |  4294951040 |
|      66 | 0xFFFFE1F8  |  4294959608 |
|      67 | 0xFFFF984E  |  4294940750 |
|      68 | 0xFFFFE556  |  4294960470 |
|      69 | 0xFFFEAB5B  |  4294880091 |
|      70 | 0xFFFFDE46  |  4294958662 |
|      71 | 0xFFFEC7D1  |  4294887377 |
|      72 | 0xFFFFD5F9  |  4294956537 |
|      73 | 0xFFFEA4A8  |  4294878376 |
|      74 | 0xFFFFD651  |  4294956625 |
|      75 | 0xFFFEA916  |  4294879510 |
|      76 | 0xFFFFCF87  |  4294954887 |
|      77 | 0x0B9C      |        2972 |
|      78 | 0xFFFEC86E  |  4294887534 |
|      79 | 0x08CF      |        2255 |
|      80 | 0x0478      |        1144 |
|      81 | 0xFFFEC83C  |  4294887484 |
|      82 | 0x0083      |         131 |
|      83 | 0xFFFEC816  |  4294887446 |
|      84 | 0xFFFFF6CC  |  4294964940 |
|      85 | 0xFFFF9EB6  |  4294942390 |
|      86 | 0x0B5E      |        2910 |
|      87 | 0x05DA      |        1498 |
|      88 | 0xFFFF9905  |  4294940933 |
|      89 | 0x049A      |        1178 |

## Events

### Event 65535

#### Metadata

| Field        | Value   |
|--------------|---------|
| Entrypoint   | 0x0000  |
| Data Size    | 1 bytes |
| Instructions | 1       |

```
      00 01 02 03 04 05 06 07  08 09 0A 0B 0C 0D 0E 0F
      -- -- -- -- -- -- -- --  -- -- -- -- -- -- -- --
0000: 00                                                .               
```

#### Opcodes

```
  0: 0x0000 [0x00] END_REQSTACK()
```

### Event 908

#### Metadata

| Field        | Value   |
|--------------|---------|
| Entrypoint   | 0x0001  |
| Data Size    | 1 bytes |
| Instructions | 1       |

```
      00 01 02 03 04 05 06 07  08 09 0A 0B 0C 0D 0E 0F
      -- -- -- -- -- -- -- --  -- -- -- -- -- -- -- --
0000:    00                                              .              
```

#### Opcodes

```
  0: 0x0001 [0x00] END_REQSTACK()
```

### Event 65535.1

#### Metadata

| Field        | Value    |
|--------------|----------|
| Entrypoint   | 0x0002   |
| Data Size    | 15 bytes |
| Instructions | 3        |

```
      00 01 02 03 04 05 06 07  08 09 0A 0B 0C 0D 0E 0F
      -- -- -- -- -- -- -- --  -- -- -- -- -- -- -- --
0000:       37 00 80 01 80 02  80 03 80 80 F8 FF FF 7F    7.............
0010: 00                                                .               
```

#### Opcodes

```
  0: 0x0002 [0x37] UPDATE_EVENT_POSITION_AND_DIR: x=-52.501*, z=22.086*, y=2.773*, direction=265.1°*
  1: 0x000B [0x80] LOAD_WAIT(entity=EventEntity)
  2: 0x0010 [0x00] END_REQSTACK()
```

### Event 909

#### Metadata

| Field        | Value   |
|--------------|---------|
| Entrypoint   | 0x0011  |
| Data Size    | 1 bytes |
| Instructions | 1       |

```
      00 01 02 03 04 05 06 07  08 09 0A 0B 0C 0D 0E 0F
      -- -- -- -- -- -- -- --  -- -- -- -- -- -- -- --
0010:    00                                              .              
```

#### Opcodes

```
  0: 0x0011 [0x00] END_REQSTACK()
```

### Event 65535.2

#### Metadata

| Field        | Value    |
|--------------|----------|
| Entrypoint   | 0x0012   |
| Data Size    | 15 bytes |
| Instructions | 3        |

```
      00 01 02 03 04 05 06 07  08 09 0A 0B 0C 0D 0E 0F
      -- -- -- -- -- -- -- --  -- -- -- -- -- -- -- --
0010:       37 04 80 05 80 06  80 07 80 80 F8 FF FF 7F    7.............
0020: 00                                                .               
```

#### Opcodes

```
  0: 0x0012 [0x37] UPDATE_EVENT_POSITION_AND_DIR: x=-12.831*, z=-3.808*, y=0.000*, direction=174.1°*
  1: 0x001B [0x80] LOAD_WAIT(entity=EventEntity)
  2: 0x0020 [0x00] END_REQSTACK()
```

### Event 910

#### Metadata

| Field        | Value   |
|--------------|---------|
| Entrypoint   | 0x0021  |
| Data Size    | 1 bytes |
| Instructions | 1       |

```
      00 01 02 03 04 05 06 07  08 09 0A 0B 0C 0D 0E 0F
      -- -- -- -- -- -- -- --  -- -- -- -- -- -- -- --
0020:    00                                              .              
```

#### Opcodes

```
  0: 0x0021 [0x00] END_REQSTACK()
```

### Event 65535.3

#### Metadata

| Field        | Value    |
|--------------|----------|
| Entrypoint   | 0x0022   |
| Data Size    | 15 bytes |
| Instructions | 3        |

```
      00 01 02 03 04 05 06 07  08 09 0A 0B 0C 0D 0E 0F
      -- -- -- -- -- -- -- --  -- -- -- -- -- -- -- --
0020:       37 08 80 09 80 0A  80 0B 80 80 F8 FF FF 7F    7.............
0030: 00                                                .               
```

#### Opcodes

```
  0: 0x0022 [0x37] UPDATE_EVENT_POSITION_AND_DIR: x=-93.731*, z=-9.160*, y=1.999*, direction=4.0°*
  1: 0x002B [0x80] LOAD_WAIT(entity=EventEntity)
  2: 0x0030 [0x00] END_REQSTACK()
```

### Event 920

#### Metadata

| Field        | Value   |
|--------------|---------|
| Entrypoint   | 0x0031  |
| Data Size    | 1 bytes |
| Instructions | 1       |

```
      00 01 02 03 04 05 06 07  08 09 0A 0B 0C 0D 0E 0F
      -- -- -- -- -- -- -- --  -- -- -- -- -- -- -- --
0030:    00                                              .              
```

#### Opcodes

```
  0: 0x0031 [0x00] END_REQSTACK()
```

### Event 65535.4

#### Metadata

| Field        | Value    |
|--------------|----------|
| Entrypoint   | 0x0032   |
| Data Size    | 15 bytes |
| Instructions | 3        |

```
      00 01 02 03 04 05 06 07  08 09 0A 0B 0C 0D 0E 0F
      -- -- -- -- -- -- -- --  -- -- -- -- -- -- -- --
0030:       37 0C 80 0D 80 0E  80 0F 80 80 F8 FF FF 7F    7.............
0040: 00                                                .               
```

#### Opcodes

```
  0: 0x0032 [0x37] UPDATE_EVENT_POSITION_AND_DIR: x=-29.788*, z=-0.172*, y=7.999*, direction=337.9°*
  1: 0x003B [0x80] LOAD_WAIT(entity=EventEntity)
  2: 0x0040 [0x00] END_REQSTACK()
```

### Event 65535.5

#### Metadata

| Field        | Value    |
|--------------|----------|
| Entrypoint   | 0x0041   |
| Data Size    | 14 bytes |
| Instructions | 4        |

```
      00 01 02 03 04 05 06 07  08 09 0A 0B 0C 0D 0E 0F
      -- -- -- -- -- -- -- --  -- -- -- -- -- -- -- --
0040:    32 10 80 1F 00 11 80  12 80 0E 80 1F 01 00      2............. 
```

#### Opcodes

```
  0: 0x0041 [0x32] ExtData[1]->MainSpeed = 13* * 0.1
  1: 0x0044 [0x1F] MOVE_ENTITY: EventEntity moves to X=-27.192*, Z=-0.122*, Y=7.999*
  2: 0x004C [0x1F] MOVE_ENTITY: Update entity position (mode=1)
  3: 0x004E [0x00] END_REQSTACK()
```

### Event 65535.6

#### Metadata

| Field        | Value    |
|--------------|----------|
| Entrypoint   | 0x004F   |
| Data Size    | 14 bytes |
| Instructions | 4        |

```
      00 01 02 03 04 05 06 07  08 09 0A 0B 0C 0D 0E 0F
      -- -- -- -- -- -- -- --  -- -- -- -- -- -- -- --
0040:                                               32                 2
0050: 10 80 1F 00 13 80 14 80  0E 80 1F 01 00           .............   
```

#### Opcodes

```
  0: 0x004F [0x32] ExtData[1]->MainSpeed = 13* * 0.1
  1: 0x0052 [0x1F] MOVE_ENTITY: EventEntity moves to X=-35.922*, Z=-0.001*, Y=7.999*
  2: 0x005A [0x1F] MOVE_ENTITY: Update entity position (mode=1)
  3: 0x005C [0x00] END_REQSTACK()
```

### Event 900

#### Metadata

| Field        | Value   |
|--------------|---------|
| Entrypoint   | 0x005D  |
| Data Size    | 1 bytes |
| Instructions | 1       |

```
      00 01 02 03 04 05 06 07  08 09 0A 0B 0C 0D 0E 0F
      -- -- -- -- -- -- -- --  -- -- -- -- -- -- -- --
0050:                                         00                     .  
```

#### Opcodes

```
  0: 0x005D [0x00] END_REQSTACK()
```

### Event 65535.7

#### Metadata

| Field        | Value    |
|--------------|----------|
| Entrypoint   | 0x005E   |
| Data Size    | 15 bytes |
| Instructions | 3        |

```
      00 01 02 03 04 05 06 07  08 09 0A 0B 0C 0D 0E 0F
      -- -- -- -- -- -- -- --  -- -- -- -- -- -- -- --
0050:                                            37 15                7.
0060: 80 16 80 17 80 18 80 80  F8 FF FF 7F 00           .............   
```

#### Opcodes

```
  0: 0x005E [0x37] UPDATE_EVENT_POSITION_AND_DIR: x=-52.318*, z=-1.095*, y=2.000*, direction=264.0°*
  1: 0x0067 [0x80] LOAD_WAIT(entity=EventEntity)
  2: 0x006C [0x00] END_REQSTACK()
```

### Event 65535.8

#### Metadata

| Field        | Value    |
|--------------|----------|
| Entrypoint   | 0x006D   |
| Data Size    | 14 bytes |
| Instructions | 4        |

```
      00 01 02 03 04 05 06 07  08 09 0A 0B 0C 0D 0E 0F
      -- -- -- -- -- -- -- --  -- -- -- -- -- -- -- --
0060:                                         32 10 80               2..
0070: 1F 00 19 80 1A 80 17 80  1F 01 00                 ...........     
```

#### Opcodes

```
  0: 0x006D [0x32] ExtData[1]->MainSpeed = 13* * 0.1
  1: 0x0070 [0x1F] MOVE_ENTITY: EventEntity moves to X=-54.036*, Z=-4.939*, Y=2.000*
  2: 0x0078 [0x1F] MOVE_ENTITY: Update entity position (mode=1)
  3: 0x007A [0x00] END_REQSTACK()
```

### Event 65535.9

#### Metadata

| Field        | Value    |
|--------------|----------|
| Entrypoint   | 0x007B   |
| Data Size    | 15 bytes |
| Instructions | 3        |

```
      00 01 02 03 04 05 06 07  08 09 0A 0B 0C 0D 0E 0F
      -- -- -- -- -- -- -- --  -- -- -- -- -- -- -- --
0070:                                   37 1B 80 1C 80             7....
0080: 02 80 1D 80 80 F8 FF FF  7F 00                    ..........      
```

#### Opcodes

```
  0: 0x007B [0x37] UPDATE_EVENT_POSITION_AND_DIR: x=-48.213*, z=24.596*, y=2.773*, direction=281.2°*
  1: 0x0084 [0x80] LOAD_WAIT(entity=EventEntity)
  2: 0x0089 [0x00] END_REQSTACK()
```

### Event 65535.10

#### Metadata

| Field        | Value    |
|--------------|----------|
| Entrypoint   | 0x008A   |
| Data Size    | 44 bytes |
| Instructions | 10       |

```
      00 01 02 03 04 05 06 07  08 09 0A 0B 0C 0D 0E 0F
      -- -- -- -- -- -- -- --  -- -- -- -- -- -- -- --
0080:                                32 1E 80 1F 00 1F            2.....
0090: 80 20 80 02 80 1F 01 1F  00 21 80 22 80 17 80 1F  . .......!."....
00A0: 01 1F 00 23 80 24 80 17  80 1F 01 1F 00 25 80 26  ...#.$.......%.&
00B0: 80 17 80 1F 01 00                                 ......          
```

#### Opcodes

```
  0: 0x008A [0x32] ExtData[1]->MainSpeed = 40* * 0.1
  1: 0x008D [0x1F] MOVE_ENTITY: EventEntity moves to X=-52.199*, Z=29.240*, Y=2.773*
  2: 0x0095 [0x1F] MOVE_ENTITY: Update entity position (mode=1)
  3: 0x0097 [0x1F] MOVE_ENTITY: EventEntity moves to X=-55.300*, Z=29.242*, Y=2.000*
  4: 0x009F [0x1F] MOVE_ENTITY: Update entity position (mode=1)
  5: 0x00A1 [0x1F] MOVE_ENTITY: EventEntity moves to X=-59.917*, Z=23.927*, Y=2.000*
  6: 0x00A9 [0x1F] MOVE_ENTITY: Update entity position (mode=1)
  7: 0x00AB [0x1F] MOVE_ENTITY: EventEntity moves to X=-63.317*, Z=20.372*, Y=2.000*
  8: 0x00B3 [0x1F] MOVE_ENTITY: Update entity position (mode=1)
  9: 0x00B5 [0x00] END_REQSTACK()
```

### Event 65535.11

#### Metadata

| Field        | Value    |
|--------------|----------|
| Entrypoint   | 0x00B6   |
| Data Size    | 14 bytes |
| Instructions | 4        |

```
      00 01 02 03 04 05 06 07  08 09 0A 0B 0C 0D 0E 0F
      -- -- -- -- -- -- -- --  -- -- -- -- -- -- -- --
00B0:                   32 10  80 1F 00 27 80 28 80 02        2....'.(..
00C0: 80 1F 01 00                                       ....            
```

#### Opcodes

```
  0: 0x00B6 [0x32] ExtData[1]->MainSpeed = 13* * 0.1
  1: 0x00B9 [0x1F] MOVE_ENTITY: EventEntity moves to X=-50.539*, Z=25.159*, Y=2.773*
  2: 0x00C1 [0x1F] MOVE_ENTITY: Update entity position (mode=1)
  3: 0x00C3 [0x00] END_REQSTACK()
```

### Event 65535.12

#### Metadata

| Field        | Value    |
|--------------|----------|
| Entrypoint   | 0x00C4   |
| Data Size    | 24 bytes |
| Instructions | 6        |

```
      00 01 02 03 04 05 06 07  08 09 0A 0B 0C 0D 0E 0F
      -- -- -- -- -- -- -- --  -- -- -- -- -- -- -- --
00C0:             32 10 80 1F  00 29 80 2A 80 2B 80 1F      2....).*.+..
00D0: 01 1F 00 2C 80 2D 80 17  80 1F 01 00              ...,.-......    
```

#### Opcodes

```
  0: 0x00C4 [0x32] ExtData[1]->MainSpeed = 13* * 0.1
  1: 0x00C7 [0x1F] MOVE_ENTITY: EventEntity moves to X=-53.127*, Z=29.817*, Y=2.398*
  2: 0x00CF [0x1F] MOVE_ENTITY: Update entity position (mode=1)
  3: 0x00D1 [0x1F] MOVE_ENTITY: EventEntity moves to X=-54.703*, Z=29.724*, Y=2.000*
  4: 0x00D9 [0x1F] MOVE_ENTITY: Update entity position (mode=1)
  5: 0x00DB [0x00] END_REQSTACK()
```

### Event 65535.13

#### Metadata

| Field        | Value    |
|--------------|----------|
| Entrypoint   | 0x00DC   |
| Data Size    | 15 bytes |
| Instructions | 3        |

```
      00 01 02 03 04 05 06 07  08 09 0A 0B 0C 0D 0E 0F
      -- -- -- -- -- -- -- --  -- -- -- -- -- -- -- --
00D0:                                      37 2E 80 2F              7../
00E0: 80 0A 80 30 80 80 F8 FF  FF 7F 00                 ...0.......     
```

#### Opcodes

```
  0: 0x00DC [0x37] UPDATE_EVENT_POSITION_AND_DIR: x=-60.547*, z=17.476*, y=1.999*, direction=199.6°*
  1: 0x00E5 [0x80] LOAD_WAIT(entity=EventEntity)
  2: 0x00EA [0x00] END_REQSTACK()
```

### Event 65535.14

#### Metadata

| Field        | Value    |
|--------------|----------|
| Entrypoint   | 0x00EB   |
| Data Size    | 14 bytes |
| Instructions | 4        |

```
      00 01 02 03 04 05 06 07  08 09 0A 0B 0C 0D 0E 0F
      -- -- -- -- -- -- -- --  -- -- -- -- -- -- -- --
00E0:                                   32 10 80 1F 00             2....
00F0: 31 80 32 80 0A 80 1F 01  00                       1.2......       
```

#### Opcodes

```
  0: 0x00EB [0x32] ExtData[1]->MainSpeed = 13* * 0.1
  1: 0x00EE [0x1F] MOVE_ENTITY: EventEntity moves to X=-63.535*, Z=19.008*, Y=1.999*
  2: 0x00F6 [0x1F] MOVE_ENTITY: Update entity position (mode=1)
  3: 0x00F8 [0x00] END_REQSTACK()
```

### Event 65535.15

#### Metadata

| Field        | Value    |
|--------------|----------|
| Entrypoint   | 0x00F9   |
| Data Size    | 14 bytes |
| Instructions | 4        |

```
      00 01 02 03 04 05 06 07  08 09 0A 0B 0C 0D 0E 0F
      -- -- -- -- -- -- -- --  -- -- -- -- -- -- -- --
00F0:                             32 10 80 1F 00 33 80           2....3.
0100: 34 80 0A 80 1F 01 00                              4......         
```

#### Opcodes

```
  0: 0x00F9 [0x32] ExtData[1]->MainSpeed = 13* * 0.1
  1: 0x00FC [0x1F] MOVE_ENTITY: EventEntity moves to X=-66.667*, Z=19.826*, Y=1.999*
  2: 0x0104 [0x1F] MOVE_ENTITY: Update entity position (mode=1)
  3: 0x0106 [0x00] END_REQSTACK()
```

### Event 65535.16

#### Metadata

| Field        | Value    |
|--------------|----------|
| Entrypoint   | 0x0107   |
| Data Size    | 15 bytes |
| Instructions | 3        |

```
      00 01 02 03 04 05 06 07  08 09 0A 0B 0C 0D 0E 0F
      -- -- -- -- -- -- -- --  -- -- -- -- -- -- -- --
0100:                      37  35 80 36 80 06 80 37 80         75.6...7.
0110: 80 F8 FF FF 7F 00                                 ......          
```

#### Opcodes

```
  0: 0x0107 [0x37] UPDATE_EVENT_POSITION_AND_DIR: x=-14.822*, z=-9.128*, y=0.000*, direction=279.2°*
  1: 0x0110 [0x80] LOAD_WAIT(entity=EventEntity)
  2: 0x0115 [0x00] END_REQSTACK()
```

### Event 65535.17

#### Metadata

| Field        | Value    |
|--------------|----------|
| Entrypoint   | 0x0116   |
| Data Size    | 15 bytes |
| Instructions | 3        |

```
      00 01 02 03 04 05 06 07  08 09 0A 0B 0C 0D 0E 0F
      -- -- -- -- -- -- -- --  -- -- -- -- -- -- -- --
0110:                   37 38  80 39 80 06 80 3A 80 80        78.9...:..
0120: F8 FF FF 7F 00                                    .....           
```

#### Opcodes

```
  0: 0x0116 [0x37] UPDATE_EVENT_POSITION_AND_DIR: x=-29.418*, z=-13.378*, y=0.000*, direction=223.0°*
  1: 0x011F [0x80] LOAD_WAIT(entity=EventEntity)
  2: 0x0124 [0x00] END_REQSTACK()
```

### Event 65535.18

#### Metadata

| Field        | Value    |
|--------------|----------|
| Entrypoint   | 0x0125   |
| Data Size    | 14 bytes |
| Instructions | 4        |

```
      00 01 02 03 04 05 06 07  08 09 0A 0B 0C 0D 0E 0F
      -- -- -- -- -- -- -- --  -- -- -- -- -- -- -- --
0120:                32 10 80  1F 00 3B 80 3C 80 06 80       2....;.<...
0130: 1F 01 00                                          ...             
```

#### Opcodes

```
  0: 0x0125 [0x32] ExtData[1]->MainSpeed = 13* * 0.1
  1: 0x0128 [0x1F] MOVE_ENTITY: EventEntity moves to X=-32.312*, Z=-12.010*, Y=0.000*
  2: 0x0130 [0x1F] MOVE_ENTITY: Update entity position (mode=1)
  3: 0x0132 [0x00] END_REQSTACK()
```

### Event 65535.19

#### Metadata

| Field        | Value    |
|--------------|----------|
| Entrypoint   | 0x0133   |
| Data Size    | 14 bytes |
| Instructions | 4        |

```
      00 01 02 03 04 05 06 07  08 09 0A 0B 0C 0D 0E 0F
      -- -- -- -- -- -- -- --  -- -- -- -- -- -- -- --
0130:          32 10 80 1F 00  3D 80 3E 80 06 80 1F 01     2....=.>.....
0140: 00                                                .               
```

#### Opcodes

```
  0: 0x0133 [0x32] ExtData[1]->MainSpeed = 13* * 0.1
  1: 0x0136 [0x1F] MOVE_ENTITY: EventEntity moves to X=-33.514*, Z=-9.689*, Y=0.000*
  2: 0x013E [0x1F] MOVE_ENTITY: Update entity position (mode=1)
  3: 0x0140 [0x00] END_REQSTACK()
```

### Event 65535.20

#### Metadata

| Field        | Value    |
|--------------|----------|
| Entrypoint   | 0x0141   |
| Data Size    | 14 bytes |
| Instructions | 4        |

```
      00 01 02 03 04 05 06 07  08 09 0A 0B 0C 0D 0E 0F
      -- -- -- -- -- -- -- --  -- -- -- -- -- -- -- --
0140:    32 1E 80 1F 00 3F 80  40 80 06 80 1F 01 00      2....?.@...... 
```

#### Opcodes

```
  0: 0x0141 [0x32] ExtData[1]->MainSpeed = 40* * 0.1
  1: 0x0144 [0x1F] MOVE_ENTITY: EventEntity moves to X=-13.727*, Z=-1.751*, Y=0.000*
  2: 0x014C [0x1F] MOVE_ENTITY: Update entity position (mode=1)
  3: 0x014E [0x00] END_REQSTACK()
```

### Event 65535.21

#### Metadata

| Field        | Value    |
|--------------|----------|
| Entrypoint   | 0x014F   |
| Data Size    | 14 bytes |
| Instructions | 4        |

```
      00 01 02 03 04 05 06 07  08 09 0A 0B 0C 0D 0E 0F
      -- -- -- -- -- -- -- --  -- -- -- -- -- -- -- --
0140:                                               32                 2
0150: 10 80 1F 00 41 80 42 80  06 80 1F 01 00           ....A.B......   
```

#### Opcodes

```
  0: 0x014F [0x32] ExtData[1]->MainSpeed = 13* * 0.1
  1: 0x0152 [0x1F] MOVE_ENTITY: EventEntity moves to X=-16.256*, Z=-7.688*, Y=0.000*
  2: 0x015A [0x1F] MOVE_ENTITY: Update entity position (mode=1)
  3: 0x015C [0x00] END_REQSTACK()
```

### Event 65535.22

#### Metadata

| Field        | Value    |
|--------------|----------|
| Entrypoint   | 0x015D   |
| Data Size    | 14 bytes |
| Instructions | 4        |

```
      00 01 02 03 04 05 06 07  08 09 0A 0B 0C 0D 0E 0F
      -- -- -- -- -- -- -- --  -- -- -- -- -- -- -- --
0150:                                         32 10 80               2..
0160: 1F 00 43 80 44 80 06 80  1F 01 00                 ..C.D......     
```

#### Opcodes

```
  0: 0x015D [0x32] ExtData[1]->MainSpeed = 13* * 0.1
  1: 0x0160 [0x1F] MOVE_ENTITY: EventEntity moves to X=-26.546*, Z=-6.826*, Y=0.000*
  2: 0x0168 [0x1F] MOVE_ENTITY: Update entity position (mode=1)
  3: 0x016A [0x00] END_REQSTACK()
```

### Event 65535.23

#### Metadata

| Field        | Value    |
|--------------|----------|
| Entrypoint   | 0x016B   |
| Data Size    | 24 bytes |
| Instructions | 6        |

```
      00 01 02 03 04 05 06 07  08 09 0A 0B 0C 0D 0E 0F
      -- -- -- -- -- -- -- --  -- -- -- -- -- -- -- --
0160:                                   32 1E 80 1F 00             2....
0170: 45 80 46 80 17 80 1F 01  1F 00 47 80 48 80 17 80  E.F.......G.H...
0180: 1F 01 00                                          ...             
```

#### Opcodes

```
  0: 0x016B [0x32] ExtData[1]->MainSpeed = 40* * 0.1
  1: 0x016E [0x1F] MOVE_ENTITY: EventEntity moves to X=-87.205*, Z=-8.634*, Y=2.000*
  2: 0x0176 [0x1F] MOVE_ENTITY: Update entity position (mode=1)
  3: 0x0178 [0x1F] MOVE_ENTITY: EventEntity moves to X=-79.919*, Z=-10.759*, Y=2.000*
  4: 0x0180 [0x1F] MOVE_ENTITY: Update entity position (mode=1)
  5: 0x0182 [0x00] END_REQSTACK()
```

### Event 65535.24

#### Metadata

| Field        | Value    |
|--------------|----------|
| Entrypoint   | 0x0183   |
| Data Size    | 14 bytes |
| Instructions | 4        |

```
      00 01 02 03 04 05 06 07  08 09 0A 0B 0C 0D 0E 0F
      -- -- -- -- -- -- -- --  -- -- -- -- -- -- -- --
0180:          32 10 80 1F 00  49 80 4A 80 17 80 1F 01     2....I.J.....
0190: 00                                                .               
```

#### Opcodes

```
  0: 0x0183 [0x32] ExtData[1]->MainSpeed = 13* * 0.1
  1: 0x0186 [0x1F] MOVE_ENTITY: EventEntity moves to X=-88.920*, Z=-10.671*, Y=2.000*
  2: 0x018E [0x1F] MOVE_ENTITY: Update entity position (mode=1)
  3: 0x0190 [0x00] END_REQSTACK()
```

### Event 65535.25

#### Metadata

| Field        | Value    |
|--------------|----------|
| Entrypoint   | 0x0191   |
| Data Size    | 14 bytes |
| Instructions | 4        |

```
      00 01 02 03 04 05 06 07  08 09 0A 0B 0C 0D 0E 0F
      -- -- -- -- -- -- -- --  -- -- -- -- -- -- -- --
0190:    32 10 80 1F 00 45 80  46 80 17 80 1F 01 00      2....E.F...... 
```

#### Opcodes

```
  0: 0x0191 [0x32] ExtData[1]->MainSpeed = 13* * 0.1
  1: 0x0194 [0x1F] MOVE_ENTITY: EventEntity moves to X=-87.205*, Z=-8.634*, Y=2.000*
  2: 0x019C [0x1F] MOVE_ENTITY: Update entity position (mode=1)
  3: 0x019E [0x00] END_REQSTACK()
```

### Event 65535.26

#### Metadata

| Field        | Value    |
|--------------|----------|
| Entrypoint   | 0x019F   |
| Data Size    | 15 bytes |
| Instructions | 3        |

```
      00 01 02 03 04 05 06 07  08 09 0A 0B 0C 0D 0E 0F
      -- -- -- -- -- -- -- --  -- -- -- -- -- -- -- --
0190:                                               37                 7
01A0: 4B 80 4C 80 17 80 4D 80  80 F8 FF FF 7F 00        K.L...M.......  
```

#### Opcodes

```
  0: 0x019F [0x37] UPDATE_EVENT_POSITION_AND_DIR: x=-87.786*, z=-12.409*, y=2.000*, direction=261.2°*
  1: 0x01A8 [0x80] LOAD_WAIT(entity=EventEntity)
  2: 0x01AD [0x00] END_REQSTACK()
```

### Event 65535.27

#### Metadata

| Field        | Value    |
|--------------|----------|
| Entrypoint   | 0x01AE   |
| Data Size    | 15 bytes |
| Instructions | 3        |

```
      00 01 02 03 04 05 06 07  08 09 0A 0B 0C 0D 0E 0F
      -- -- -- -- -- -- -- --  -- -- -- -- -- -- -- --
01A0:                                            37 4E                7N
01B0: 80 4F 80 0A 80 50 80 80  F8 FF FF 7F 00           .O...P.......   
```

#### Opcodes

```
  0: 0x01AE [0x37] UPDATE_EVENT_POSITION_AND_DIR: x=-79.762*, z=2.255*, y=1.999*, direction=100.5°*
  1: 0x01B7 [0x80] LOAD_WAIT(entity=EventEntity)
  2: 0x01BC [0x00] END_REQSTACK()
```

### Event 65535.28

#### Metadata

| Field        | Value    |
|--------------|----------|
| Entrypoint   | 0x01BD   |
| Data Size    | 14 bytes |
| Instructions | 4        |

```
      00 01 02 03 04 05 06 07  08 09 0A 0B 0C 0D 0E 0F
      -- -- -- -- -- -- -- --  -- -- -- -- -- -- -- --
01B0:                                         32 10 80               2..
01C0: 1F 00 51 80 52 80 0A 80  1F 01 00                 ..Q.R......     
```

#### Opcodes

```
  0: 0x01BD [0x32] ExtData[1]->MainSpeed = 13* * 0.1
  1: 0x01C0 [0x1F] MOVE_ENTITY: EventEntity moves to X=-79.812*, Z=0.131*, Y=1.999*
  2: 0x01C8 [0x1F] MOVE_ENTITY: Update entity position (mode=1)
  3: 0x01CA [0x00] END_REQSTACK()
```

### Event 65535.29

#### Metadata

| Field        | Value    |
|--------------|----------|
| Entrypoint   | 0x01CB   |
| Data Size    | 14 bytes |
| Instructions | 4        |

```
      00 01 02 03 04 05 06 07  08 09 0A 0B 0C 0D 0E 0F
      -- -- -- -- -- -- -- --  -- -- -- -- -- -- -- --
01C0:                                   32 10 80 1F 00             2....
01D0: 53 80 54 80 0A 80 1F 01  00                       S.T......       
```

#### Opcodes

```
  0: 0x01CB [0x32] ExtData[1]->MainSpeed = 13* * 0.1
  1: 0x01CE [0x1F] MOVE_ENTITY: EventEntity moves to X=-79.850*, Z=-2.356*, Y=1.999*
  2: 0x01D6 [0x1F] MOVE_ENTITY: Update entity position (mode=1)
  3: 0x01D8 [0x00] END_REQSTACK()
```

### Event 65535.30

#### Metadata

| Field        | Value    |
|--------------|----------|
| Entrypoint   | 0x01D9   |
| Data Size    | 15 bytes |
| Instructions | 3        |

```
      00 01 02 03 04 05 06 07  08 09 0A 0B 0C 0D 0E 0F
      -- -- -- -- -- -- -- --  -- -- -- -- -- -- -- --
01D0:                             37 55 80 56 80 0E 80           7U.V...
01E0: 57 80 80 F8 FF FF 7F 00                           W.......        
```

#### Opcodes

```
  0: 0x01D9 [0x37] UPDATE_EVENT_POSITION_AND_DIR: x=-24.906*, z=2.910*, y=7.999*, direction=131.7°*
  1: 0x01E2 [0x80] LOAD_WAIT(entity=EventEntity)
  2: 0x01E7 [0x00] END_REQSTACK()
```

### Event 65535.31

#### Metadata

| Field        | Value    |
|--------------|----------|
| Entrypoint   | 0x01E8   |
| Data Size    | 19 bytes |
| Instructions | 5        |

```
      00 01 02 03 04 05 06 07  08 09 0A 0B 0C 0D 0E 0F
      -- -- -- -- -- -- -- --  -- -- -- -- -- -- -- --
01E0:                          32 10 80 1F 00 58 80 59          2....X.Y
01F0: 80 0E 80 1F 01 1E 1F D0  0E 01 00                 ...........     
```

#### Opcodes

```
  0: 0x01E8 [0x32] ExtData[1]->MainSpeed = 13* * 0.1
  1: 0x01EB [0x1F] MOVE_ENTITY: EventEntity moves to X=-26.363*, Z=1.178*, Y=7.999*
  2: 0x01F3 [0x1F] MOVE_ENTITY: Update entity position (mode=1)
  3: 0x01F5 [0x1E] EventEntity looks at Salim (ID: 17747999/0x010ED01F) and starts talking
  4: 0x01FA [0x00] END_REQSTACK()
```

### Event 926

#### Metadata

| Field        | Value   |
|--------------|---------|
| Entrypoint   | 0x01FB  |
| Data Size    | 1 bytes |
| Instructions | 1       |

```
      00 01 02 03 04 05 06 07  08 09 0A 0B 0C 0D 0E 0F
      -- -- -- -- -- -- -- --  -- -- -- -- -- -- -- --
01F0:                                   00                         .    
```

#### Opcodes

```
  0: 0x01FB [0x00] END_REQSTACK()
```
