# 17748131 - DIRECTOR

## Common Data

| Field            | Value                |
|------------------|----------------------|
| Zone             | Metalworks (ID: 237) |
| Block Size       | 26084 bytes          |
| Total Events     | 16                   |
| References Count | 367                  |

## List of Events

| Event ID              | Entrypoint   |   Size |   Instructions |
|-----------------------|--------------|--------|----------------|
| [65535](#event-65535) | 0x0000       |      1 |              1 |
| [859](#event-859)     | 0x0001       |   1484 |            196 |
| [864](#event-864)     | 0x05CD       |    495 |             74 |
| [866](#event-866)     | 0x07BC       |    524 |             75 |
| [868](#event-868)     | 0x09C8       |    459 |             69 |
| [869](#event-869)     | 0x0B93       |   2754 |            432 |
| [870](#event-870)     | 0x1655       |   1444 |            283 |
| [875](#event-875)     | 0x1BF9       |    834 |            110 |
| [879](#event-879)     | 0x1F3B       |    369 |             60 |
| [881](#event-881)     | 0x20AC       |    740 |            103 |
| [887](#event-887)     | 0x2390       |   1556 |            219 |
| [980](#event-980)     | 0x29A4       |    183 |             24 |
| [984](#event-984)     | 0x2A5B       |   3711 |            416 |
| [985](#event-985)     | 0x38DA       |   2683 |            315 |
| [986](#event-986)     | 0x4355       |   3605 |            416 |
| [988](#event-988)     | 0x516A       |   3694 |            438 |

## DAT References (imed_data)

|   Index | Hex Value   |   Dec Value |
|---------|-------------|-------------|
|       0 | 0x0000      |           0 |
|       1 | 0x0078      |         120 |
|       2 | 0x00C8      |         200 |
|       3 | 0x003C      |          60 |
|       4 | 0x0003      |           3 |
|       5 | 0x0133      |         307 |
|       6 | 0x007F      |         127 |
|       7 | 0x007E      |         126 |
|       8 | 0x001E      |          30 |
|       9 | 0x26B7      |        9911 |
|      10 | 0x26B8      |        9912 |
|      11 | 0x26B9      |        9913 |
|      12 | 0x26BA      |        9914 |
|      13 | 0x26BB      |        9915 |
|      14 | 0x0005      |           5 |
|      15 | 0x0006      |           6 |
|      16 | 0x26BC      |        9916 |
|      17 | 0x26BD      |        9917 |
|      18 | 0x0001      |           1 |
|      19 | 0x26BE      |        9918 |
|      20 | 0x26BF      |        9919 |
|      21 | 0x0008      |           8 |
|      22 | 0x26C0      |        9920 |
|      23 | 0x26C1      |        9921 |
|      24 | 0x26C2      |        9922 |
|      25 | 0x26C3      |        9923 |
|      26 | 0x26C4      |        9924 |
|      27 | 0x26C5      |        9925 |
|      28 | 0x26C6      |        9926 |
|      29 | 0x26C7      |        9927 |
|      30 | 0x26C8      |        9928 |
|      31 | 0x0004      |           4 |
|      32 | 0x26C9      |        9929 |
|      33 | 0x0002      |           2 |
|      34 | 0x009A      |         154 |
|      35 | 0x012C      |         300 |
|      36 | 0x0019      |          25 |
|      37 | 0x26CC      |        9932 |
|      38 | 0x26CD      |        9933 |
|      39 | 0x26CE      |        9934 |
|      40 | 0x26CF      |        9935 |
|      41 | 0x26D0      |        9936 |
|      42 | 0x26D1      |        9937 |
|      43 | 0x26D2      |        9938 |
|      44 | 0x26D3      |        9939 |
|      45 | 0x0013      |          19 |
|      46 | 0x26D8      |        9944 |
|      47 | 0x26D9      |        9945 |
|      48 | 0x26DA      |        9946 |
|      49 | 0x26DB      |        9947 |
|      50 | 0x26DC      |        9948 |
|      51 | 0x26DD      |        9949 |
|      52 | 0x26DE      |        9950 |
|      53 | 0x26E3      |        9955 |
|      54 | 0x26E4      |        9956 |
|      55 | 0x26E5      |        9957 |
|      56 | 0x26E6      |        9958 |
|      57 | 0x26E7      |        9959 |
|      58 | 0x26E8      |        9960 |
|      59 | 0x26E9      |        9961 |
|      60 | 0x26EA      |        9962 |
|      61 | 0x26EB      |        9963 |
|      62 | 0x26EC      |        9964 |
|      63 | 0x00A3      |         163 |
|      64 | 0x26ED      |        9965 |
|      65 | 0x26EE      |        9966 |
|      66 | 0x26EF      |        9967 |
|      67 | 0x0FF4      |        4084 |
|      68 | 0x26F0      |        9968 |
|      69 | 0x26F1      |        9969 |
|      70 | 0x26F2      |        9970 |
|      71 | 0x26F3      |        9971 |
|      72 | 0x26F4      |        9972 |
|      73 | 0x26F5      |        9973 |
|      74 | 0x26F6      |        9974 |
|      75 | 0x26F7      |        9975 |
|      76 | 0x0064      |         100 |
|      77 | 0x26F8      |        9976 |
|      78 | 0x26F9      |        9977 |
|      79 | 0x26FA      |        9978 |
|      80 | 0x26FB      |        9979 |
|      81 | 0x0007      |           7 |
|      82 | 0x0009      |           9 |
|      83 | 0x000A      |          10 |
|      84 | 0x000B      |          11 |
|      85 | 0x000C      |          12 |
|      86 | 0x000D      |          13 |
|      87 | 0x000E      |          14 |
|      88 | 0x000F      |          15 |
|      89 | 0x0010      |          16 |
|      90 | 0x0011      |          17 |
|      91 | 0x0012      |          18 |
|      92 | 0x0014      |          20 |
|      93 | 0x0015      |          21 |
|      94 | 0x26FC      |        9980 |
|      95 | 0x26FD      |        9981 |
|      96 | 0x26FE      |        9982 |
|      97 | 0x26FF      |        9983 |
|      98 | 0x2700      |        9984 |
|      99 | 0x00C9      |         201 |
|     100 | 0x2702      |        9986 |
|     101 | 0x2703      |        9987 |
|     102 | 0x2705      |        9989 |
|     103 | 0x0190      |         400 |
|     104 | 0x2704      |        9988 |
|     105 | 0x2706      |        9990 |
|     106 | 0x2707      |        9991 |
|     107 | 0x2708      |        9992 |
|     108 | 0x2709      |        9993 |
|     109 | 0x270A      |        9994 |
|     110 | 0x270B      |        9995 |
|     111 | 0x270C      |        9996 |
|     112 | 0x270D      |        9997 |
|     113 | 0x270E      |        9998 |
|     114 | 0x270F      |        9999 |
|     115 | 0x2721      |       10017 |
|     116 | 0x2722      |       10018 |
|     117 | 0x2723      |       10019 |
|     118 | 0x2724      |       10020 |
|     119 | 0x2725      |       10021 |
|     120 | 0x2726      |       10022 |
|     121 | 0x2728      |       10024 |
|     122 | 0x00EA      |         234 |
|     123 | 0x2729      |       10025 |
|     124 | 0x272A      |       10026 |
|     125 | 0x272B      |       10027 |
|     126 | 0x272C      |       10028 |
|     127 | 0x272D      |       10029 |
|     128 | 0x272E      |       10030 |
|     129 | 0x272F      |       10031 |
|     130 | 0x2730      |       10032 |
|     131 | 0x012B      |         299 |
|     132 | 0x0018      |          24 |
|     133 | 0x2733      |       10035 |
|     134 | 0x2734      |       10036 |
|     135 | 0x2735      |       10037 |
|     136 | 0x2736      |       10038 |
|     137 | 0x2737      |       10039 |
|     138 | 0x2738      |       10040 |
|     139 | 0x2739      |       10041 |
|     140 | 0x273A      |       10042 |
|     141 | 0x273B      |       10043 |
|     142 | 0x273C      |       10044 |
|     143 | 0x273D      |       10045 |
|     144 | 0x273E      |       10046 |
|     145 | 0x273F      |       10047 |
|     146 | 0x2740      |       10048 |
|     147 | 0x2741      |       10049 |
|     148 | 0x009F      |         159 |
|     149 | 0x2742      |       10050 |
|     150 | 0x2743      |       10051 |
|     151 | 0x0271      |         625 |
|     152 | 0x2744      |       10052 |
|     153 | 0x2745      |       10053 |
|     154 | 0x2746      |       10054 |
|     155 | 0x2747      |       10055 |
|     156 | 0x2748      |       10056 |
|     157 | 0x2749      |       10057 |
|     158 | 0x274A      |       10058 |
|     159 | 0x274B      |       10059 |
|     160 | 0x274C      |       10060 |
|     161 | 0x274D      |       10061 |
|     162 | 0x274E      |       10062 |
|     163 | 0x274F      |       10063 |
|     164 | 0x2750      |       10064 |
|     165 | 0x2751      |       10065 |
|     166 | 0x2752      |       10066 |
|     167 | 0x2753      |       10067 |
|     168 | 0x2754      |       10068 |
|     169 | 0x2755      |       10069 |
|     170 | 0x087A      |        2170 |
|     171 | 0x2756      |       10070 |
|     172 | 0x029F      |         671 |
|     173 | 0x2ACA      |       10954 |
|     174 | 0x2ACB      |       10955 |
|     175 | 0x2ACC      |       10956 |
|     176 | 0x2AD6      |       10966 |
|     177 | 0x2AD7      |       10967 |
|     178 | 0x004E      |          78 |
|     179 | 0x2AD9      |       10969 |
|     180 | 0x001B      |          27 |
|     181 | 0xFA76      |       64118 |
|     182 | 0xFFFFED90  |  4294962576 |
|     183 | 0xFFFFC950  |  4294953296 |
|     184 | 0x0F8A      |        3978 |
|     185 | 0x2AA7      |       10919 |
|     186 | 0x2AA8      |       10920 |
|     187 | 0x2AA9      |       10921 |
|     188 | 0x2AAA      |       10922 |
|     189 | 0x0096      |         150 |
|     190 | 0x2AAB      |       10923 |
|     191 | 0x2AAC      |       10924 |
|     192 | 0x2AAD      |       10925 |
|     193 | 0x2AAE      |       10926 |
|     194 | 0x2AAF      |       10927 |
|     195 | 0x2AB0      |       10928 |
|     196 | 0x2AB1      |       10929 |
|     197 | 0x2AB2      |       10930 |
|     198 | 0x2AB3      |       10931 |
|     199 | 0x2AB4      |       10932 |
|     200 | 0x2AB5      |       10933 |
|     201 | 0x2AB6      |       10934 |
|     202 | 0x2AB7      |       10935 |
|     203 | 0x2AB8      |       10936 |
|     204 | 0x2AB9      |       10937 |
|     205 | 0x2ABA      |       10938 |
|     206 | 0x2ABB      |       10939 |
|     207 | 0x2ABC      |       10940 |
|     208 | 0x2ABD      |       10941 |
|     209 | 0x2ABE      |       10942 |
|     210 | 0x00AE      |         174 |
|     211 | 0x00B0      |         176 |
|     212 | 0xFDA8      |       64936 |
|     213 | 0xFFFFF727  |  4294965031 |
|     214 | 0x02B2      |         690 |
|     215 | 0x00B1      |         177 |
|     216 | 0x2ABF      |       10943 |
|     217 | 0x2AC0      |       10944 |
|     218 | 0x2AC1      |       10945 |
|     219 | 0x2AC2      |       10946 |
|     220 | 0x2AC3      |       10947 |
|     221 | 0x2AC4      |       10948 |
|     222 | 0x2AC5      |       10949 |
|     223 | 0x2AC6      |       10950 |
|     224 | 0x2AC7      |       10951 |
|     225 | 0x2AC8      |       10952 |
|     226 | 0x00B2      |         178 |
|     227 | 0x2AC9      |       10953 |
|     228 | 0x09C3      |        2499 |
|     229 | 0x2ADC      |       10972 |
|     230 | 0x2ADD      |       10973 |
|     231 | 0x2ADE      |       10974 |
|     232 | 0x2ADF      |       10975 |
|     233 | 0x2AE0      |       10976 |
|     234 | 0x2AE1      |       10977 |
|     235 | 0x2AE2      |       10978 |
|     236 | 0x203F4     |      132084 |
|     237 | 0x86BF      |       34495 |
|     238 | 0xFFFFB5D9  |  4294948313 |
|     239 | 0x0130      |         304 |
|     240 | 0x029E      |         670 |
|     241 | 0x2AE3      |       10979 |
|     242 | 0x2AE4      |       10980 |
|     243 | 0x2AE6      |       10982 |
|     244 | 0x2AE7      |       10983 |
|     245 | 0x2AE8      |       10984 |
|     246 | 0x2AE9      |       10985 |
|     247 | 0x2AEA      |       10986 |
|     248 | 0x2AEB      |       10987 |
|     249 | 0x005A      |          90 |
|     250 | 0x2AEC      |       10988 |
|     251 | 0x2AED      |       10989 |
|     252 | 0x2AEE      |       10990 |
|     253 | 0x2AEF      |       10991 |
|     254 | 0x2AF0      |       10992 |
|     255 | 0x2AF1      |       10993 |
|     256 | 0x2AF2      |       10994 |
|     257 | 0x2AF3      |       10995 |
|     258 | 0x2AF4      |       10996 |
|     259 | 0x2AF5      |       10997 |
|     260 | 0x2AF6      |       10998 |
|     261 | 0x2AF7      |       10999 |
|     262 | 0x2AF8      |       11000 |
|     263 | 0x2AF9      |       11001 |
|     264 | 0x2AFA      |       11002 |
|     265 | 0x2AFB      |       11003 |
|     266 | 0x2AFC      |       11004 |
|     267 | 0x00B4      |         180 |
|     268 | 0x0032      |          50 |
|     269 | 0x20C71     |      134257 |
|     270 | 0x8471      |       33905 |
|     271 | 0xFFFFB593  |  4294948243 |
|     272 | 0x0821      |        2081 |
|     273 | 0x0050      |          80 |
|     274 | 0x0028      |          40 |
|     275 | 0x0080      |         128 |
|     276 | 0x2AFD      |       11005 |
|     277 | 0x2AFE      |       11006 |
|     278 | 0x2AE5      |       10981 |
|     279 | 0x028A      |         650 |
|     280 | 0x2AFF      |       11007 |
|     281 | 0x2B00      |       11008 |
|     282 | 0x2B01      |       11009 |
|     283 | 0x0134      |         308 |
|     284 | 0xE7AF      |       59311 |
|     285 | 0xFFFF64A3  |  4294927523 |
|     286 | 0xFFFFBFFA  |  4294950906 |
|     287 | 0x0352      |         850 |
|     288 | 0xF38B      |       62347 |
|     289 | 0xFFFF71FF  |  4294930943 |
|     290 | 0x054E      |        1358 |
|     291 | 0x0274      |         628 |
|     292 | 0x2B02      |       11010 |
|     293 | 0x2B03      |       11011 |
|     294 | 0x2B04      |       11012 |
|     295 | 0x2B05      |       11013 |
|     296 | 0x2B06      |       11014 |
|     297 | 0x2B08      |       11016 |
|     298 | 0x2B09      |       11017 |
|     299 | 0x2B0A      |       11018 |
|     300 | 0x2B0B      |       11019 |
|     301 | 0x2B0C      |       11020 |
|     302 | 0x2B0D      |       11021 |
|     303 | 0x00CA      |         202 |
|     304 | 0x2B0E      |       11022 |
|     305 | 0x2B0F      |       11023 |
|     306 | 0x2B10      |       11024 |
|     307 | 0x2B11      |       11025 |
|     308 | 0x2B12      |       11026 |
|     309 | 0x2B13      |       11027 |
|     310 | 0x2B14      |       11028 |
|     311 | 0x2B15      |       11029 |
|     312 | 0x2B16      |       11030 |
|     313 | 0x2B17      |       11031 |
|     314 | 0x2B18      |       11032 |
|     315 | 0xEDF6      |       60918 |
|     316 | 0xFFFF6BEF  |  4294929391 |
|     317 | 0x05B8      |        1464 |
|     318 | 0x2B19      |       11033 |
|     319 | 0x2B1A      |       11034 |
|     320 | 0x2B07      |       11015 |
|     321 | 0x16249     |       90697 |
|     322 | 0x016C      |         364 |
|     323 | 0xFFFFB3B4  |  4294947764 |
|     324 | 0x0E6D      |        3693 |
|     325 | 0x007B      |         123 |
|     326 | 0x0276      |         630 |
|     327 | 0x0045      |          69 |
|     328 | 0x2B33      |       11059 |
|     329 | 0x2B34      |       11060 |
|     330 | 0x2B35      |       11061 |
|     331 | 0x2B36      |       11062 |
|     332 | 0x2B37      |       11063 |
|     333 | 0x2B38      |       11064 |
|     334 | 0x2B39      |       11065 |
|     335 | 0x2B3A      |       11066 |
|     336 | 0x2B3B      |       11067 |
|     337 | 0x0016      |          22 |
|     338 | 0x2B3C      |       11068 |
|     339 | 0x2B3D      |       11069 |
|     340 | 0x2B3E      |       11070 |
|     341 | 0x2B40      |       11072 |
|     342 | 0x2B41      |       11073 |
|     343 | 0x2B42      |       11074 |
|     344 | 0x2B43      |       11075 |
|     345 | 0x2B44      |       11076 |
|     346 | 0x2B45      |       11077 |
|     347 | 0x2B46      |       11078 |
|     348 | 0x2B47      |       11079 |
|     349 | 0x2B48      |       11080 |
|     350 | 0x2B49      |       11081 |
|     351 | 0x2B4A      |       11082 |
|     352 | 0x2B4B      |       11083 |
|     353 | 0x2B4C      |       11084 |
|     354 | 0x2B4D      |       11085 |
|     355 | 0x2B4E      |       11086 |
|     356 | 0x2B4F      |       11087 |
|     357 | 0x2B50      |       11088 |
|     358 | 0x332B      |       13099 |
|     359 | 0x2B51      |       11089 |
|     360 | 0x2B52      |       11090 |
|     361 | 0x1651B     |       91419 |
|     362 | 0x0B95      |        2965 |
|     363 | 0x039C      |         924 |
|     364 | 0x2B53      |       11091 |
|     365 | 0x2B54      |       11092 |
|     366 | 0x2B3F      |       11071 |

## String References

- **9917**: Looking for work? [Now that you mention it.../Not today...]
- **9927**: Will you do it? [Yes./No.]
- **9949**: Accept the job? [Yes./No.]
- **9979**: Start with... [Nothing./Ultra/Hyper/Psycho/Eternal/Neo/Lovely/Pretty/Final/Extra/Deadly/Savage/Aero/Pseudo/Universal/Exciting/Celestial/Super/Mighty/Mega/Omni/Poly]
- **9980**: Add... [Nothing./Terror/Perfect/Royale/Gorgeous/Pretty/Hell/Fantasy/Stealth/Powerful/Invincible/Explosive/Storm/Fantastic/Duper/Go-Go/Morphing/Retro/Sonic/Cloud/Sky/Stellar]
- **9981**: And finish with... [Nothing./Hyper/Neo/Lovely/Happy/Caller/Hound/XI/Armored/Brutal/Buster/Alpha/Chief/Provoker/Mincer/Streak/King/Prince/Power/Robo/Delver/Mystic]
- **9989**: And for the final touch... [C.I.D./Enterprise/Nautilus/Gilgamemnon/Redwing/Blackjack/Falcon/Highwind/Ragnarok/Hilda Garde/Prima Vista/Red Rose/Fahrenheit]
- **10980**: Attempt the ritual with Ayame? [Let's give this a shot./Not at the moment.]
- **11014**: Attempt the ritual? [Yes./No.]
- **11070**: Attempt the ritual? [Yes./No.]

## Events

### Event 65535

#### Metadata

| Field        | Value   |
|--------------|---------|
| Entrypoint   | 0x0000  |
| Data Size    | 1 bytes |
| Instructions | 1       |

```
      00 01 02 03 04 05 06 07  08 09 0A 0B 0C 0D 0E 0F
      -- -- -- -- -- -- -- --  -- -- -- -- -- -- -- --
0000: 00                                                .               
```

#### Opcodes

```
  0: 0x0000 [0x00] END_REQSTACK()
```

### Event 859

#### Metadata

| Field        | Value      |
|--------------|------------|
| Entrypoint   | 0x0001     |
| Data Size    | 1484 bytes |
| Instructions | 196        |

```
      00 01 02 03 04 05 06 07  08 09 0A 0B 0C 0D 0E 0F
      -- -- -- -- -- -- -- --  -- -- -- -- -- -- -- --
0000:    20 01 42 46 01 5D 00  80 01 80 45 02 80 F8 FF    .BF.]....E....
0010: FF 7F F8 FF FF 7F 66 64  6F 31 00 80 1C 03 80 38  ......fdo1.....8
0020: 04 80 29 08 F0 FF FF 7F  5D 92 01 2F D0 0E 01 92  ..).....]../....
0030: 01 36 D0 0E 01 75 00 05  80 75 01 4E 00 2F D0 0E  .6...u...u.N./..
0040: 01 4E 00 36 D0 0E 01 80  2F D0 0E 01 80 36 D0 0E  .N.6..../....6..
0050: 01 29 0B 36 D0 0E 01 11  29 0B 2F D0 0E 01 5E 29  .).6....)./...^)
0060: 0B F0 FF FF 7F 5F 79 00  F0 FF FF 7F 36 D0 0E 01  ....._y.....6...
0070: 4A 2F D0 0E 01 36 D0 0E  01 6F 76 2F D0 0E 01 29  J/...6...ov/...)
0080: 08 36 D0 0E 01 08 29 08  36 D0 0E 01 09 5C 00 06  .6....).6....\..
0090: 80 5C 01 06 80 45 07 80  F8 FF FF 7F F8 FF FF 7F  .\...E..........
00A0: 73 30 30 30 00 80 45 02  80 F8 FF FF 7F F8 FF FF  s000..E.........
00B0: 7F 66 64 69 31 00 80 29  08 36 D0 0E 01 0C 29 08  .fdi1..).6....).
00C0: 36 D0 0E 01 0D 29 08 36  D0 0E 01 0C 29 08 36 D0  6....).6....).6.
00D0: 0E 01 0D 29 08 36 D0 0E  01 0A 29 08 36 D0 0E 01  ...).6....).6...
00E0: 0B 27 0B 36 D0 0E 01 12  1C 08 80 52 07 80 F8 FF  .'.6.......R....
00F0: FF 7F F8 FF FF 7F 73 30  30 30 45 02 80 F0 FF FF  ......s000E.....
0100: 7F F0 FF FF 7F 6F 76 6C  31 00 80 45 07 80 F8 FF  .....ovl1..E....
0110: FF 7F F8 FF FF 7F 73 30  30 31 00 80 2B 2F D0 0E  ......s001..+/..
0120: 01 09 80 23 52 07 80 F8  FF FF 7F F8 FF FF 7F 73  ...#R..........s
0130: 30 30 31 45 07 80 F8 FF  FF 7F F8 FF FF 7F 73 30  001E..........s0
0140: 30 32 00 80 29 08 36 D0  0E 01 04 2B 36 D0 0E 01  02..).6....+6...
0150: 0A 80 23 29 08 36 D0 0E  01 05 29 08 36 D0 0E 01  ..#).6....).6...
0160: 06 2B 36 D0 0E 01 0B 80  23 29 08 36 D0 0E 01 07  .+6.....#).6....
0170: 7B 2F D0 0E 01 29 08 2F  D0 0E 01 35 2B 2F D0 0E  {/...)./...5+/..
0180: 01 0C 80 23 29 08 2F D0  0E 01 36 52 07 80 F8 FF  ...#)./...6R....
0190: FF 7F F8 FF FF 7F 73 30  30 32 45 07 80 F8 FF FF  ......s002E.....
01A0: 7F F8 FF FF 7F 73 30 30  34 00 80 29 08 2F D0 0E  .....s004..)./..
01B0: 01 37 2B 2F D0 0E 01 0D  80 23 29 08 2F D0 0E 01  .7+/.....#)./...
01C0: 38 79 00 36 D0 0E 01 F0  FF FF 7F 27 0B 5B D0 0E  8y.6.......'.[..
01D0: 01 03 1C 08 80 27 0B F0  FF FF 7F 60 52 07 80 F8  .....'.....`R...
01E0: FF FF 7F F8 FF FF 7F 73  30 30 34 45 07 80 F8 FF  .......s004E....
01F0: FF 7F F8 FF FF 7F 73 30  30 33 00 80 4A 2F D0 0E  ......s003..J/..
0200: 01 F0 FF FF 7F 27 0B 36  D0 0E 01 13 2A 0B F0 FF  .....'.6....*...
0210: FF 7F 6F 76 2F D0 0E 01  52 07 80 F8 FF FF 7F F8  ..ov/...R.......
0220: FF FF 7F 73 30 30 33 02  09 10 0E 80 00 43 02 45  ...s003......C.E
0230: 07 80 F8 FF FF 7F F8 FF  FF 7F 73 30 31 31 00 80  ..........s011..
0240: 01 70 02 02 09 10 0F 80  00 5F 02 45 07 80 F8 FF  .p......._.E....
0250: FF 7F F8 FF FF 7F 73 30  31 31 00 80 01 70 02 45  ......s011...p.E
0260: 07 80 F8 FF FF 7F F8 FF  FF 7F 73 30 30 35 00 80  ..........s005..
0270: 79 00 F0 FF FF 7F 2F D0  0E 01 2B 2F D0 0E 01 10  y...../...+/....
0280: 80 23 29 0B 5B D0 0E 01  04 02 09 10 0E 80 00 A3  .#).[...........
0290: 02 52 07 80 F8 FF FF 7F  F8 FF FF 7F 73 30 31 31  .R..........s011
02A0: 01 CC 02 02 09 10 0F 80  00 BD 02 52 07 80 F8 FF  ...........R....
02B0: FF 7F F8 FF FF 7F 73 30  31 31 01 CC 02 52 07 80  ......s011...R..
02C0: F8 FF FF 7F F8 FF FF 7F  73 30 30 35 24 11 80 00  ........s005$...
02D0: 80 00 80 25 02 00 10 00  80 00 7A 05 03 01 10 12  ...%......z.....
02E0: 80 45 07 80 F8 FF FF 7F  F8 FF FF 7F 73 30 30 36  .E..........s006
02F0: 00 80 7B 2F D0 0E 01 2B  2F D0 0E 01 13 80 23 2B  ..{/...+/.....#+
0300: 2F D0 0E 01 14 80 23 52  07 80 F8 FF FF 7F F8 FF  /.....#R........
0310: FF 7F 73 30 30 36 02 09  10 04 80 00 32 03 45 07  ..s006......2.E.
0320: 80 F8 FF FF 7F F8 FF FF  7F 73 30 31 33 00 80 01  .........s013...
0330: 5F 03 02 09 10 15 80 00  4E 03 45 07 80 F8 FF FF  _.......N.E.....
0340: 7F F8 FF FF 7F 73 30 31  33 00 80 01 5F 03 45 07  .....s013..._.E.
0350: 80 F8 FF FF 7F F8 FF FF  7F 73 30 30 37 00 80 27  .........s007..'
0360: 0B 2F D0 0E 01 5F 2B 2F  D0 0E 01 16 80 23 2B 2F  ./..._+/.....#+/
0370: D0 0E 01 17 80 23 2A 0B  2F D0 0E 01 02 09 10 04  .....#*./.......
0380: 80 00 96 03 52 07 80 F8  FF FF 7F F8 FF FF 7F 73  ....R..........s
0390: 30 31 33 01 BF 03 02 09  10 15 80 00 B0 03 52 07  013...........R.
03A0: 80 F8 FF FF 7F F8 FF FF  7F 73 30 31 33 01 BF 03  .........s013...
03B0: 52 07 80 F8 FF FF 7F F8  FF FF 7F 73 30 30 37 45  R..........s007E
03C0: 02 80 F0 FF FF 7F F0 FF  FF 7F 6F 76 6C 31 00 80  ..........ovl1..
03D0: 45 07 80 F8 FF FF 7F F8  FF FF 7F 73 30 30 38 00  E..........s008.
03E0: 80 2B 2F D0 0E 01 18 80  23 2B 2F D0 0E 01 19 80  .+/.....#+/.....
03F0: 23 52 07 80 F8 FF FF 7F  F8 FF FF 7F 73 30 30 38  #R..........s008
0400: 02 09 10 04 80 00 1C 04  45 07 80 F8 FF FF 7F F8  ........E.......
0410: FF FF 7F 73 30 31 34 00  80 01 81 04 02 09 10 0E  ...s014.........
0420: 80 00 38 04 45 07 80 F8  FF FF 7F F8 FF FF 7F 73  ..8.E..........s
0430: 30 31 32 00 80 01 81 04  02 09 10 0F 80 00 54 04  012...........T.
0440: 45 07 80 F8 FF FF 7F F8  FF FF 7F 73 30 31 32 00  E..........s012.
0450: 80 01 81 04 02 09 10 15  80 00 70 04 45 07 80 F8  ..........p.E...
0460: FF FF 7F F8 FF FF 7F 73  30 31 34 00 80 01 81 04  .......s014.....
0470: 45 07 80 F8 FF FF 7F F8  FF FF 7F 73 30 30 39 00  E..........s009.
0480: 80 4A 2F D0 0E 01 F0 FF  FF 7F 6F 76 2F D0 0E 01  .J/.......ov/...
0490: 2B 2F D0 0E 01 1A 80 23  2B 2F D0 0E 01 1B 80 23  +/.....#+/.....#
04A0: 02 09 10 04 80 00 BA 04  52 07 80 F8 FF FF 7F F8  ........R.......
04B0: FF FF 7F 73 30 31 34 01  17 05 02 09 10 0E 80 00  ...s014.........
04C0: D4 04 52 07 80 F8 FF FF  7F F8 FF FF 7F 73 30 31  ..R..........s01
04D0: 32 01 17 05 02 09 10 0F  80 00 EE 04 52 07 80 F8  2...........R...
04E0: FF FF 7F F8 FF FF 7F 73  30 31 32 01 17 05 02 09  .......s012.....
04F0: 10 15 80 00 08 05 52 07  80 F8 FF FF 7F F8 FF FF  ......R.........
0500: 7F 73 30 31 34 01 17 05  52 07 80 F8 FF FF 7F F8  .s014...R.......
0510: FF FF 7F 73 30 30 39 45  07 80 F8 FF FF 7F F8 FF  ...s009E........
0520: FF 7F 73 30 31 30 00 80  2B 2F D0 0E 01 1C 80 23  ..s010..+/.....#
0530: 52 07 80 F8 FF FF 7F F8  FF FF 7F 73 30 31 30 24  R..........s010$
0540: 1D 80 00 80 00 80 25 02  00 10 00 80 00 5F 05 03  ......%......_..
0550: 01 10 04 80 2B 2F D0 0E  01 1E 80 23 01 77 05 02  ....+/.....#.w..
0560: 00 10 12 80 00 77 05 03  01 10 1F 80 2B 2F D0 0E  .....w......+/..
0570: 01 20 80 23 01 77 05 01  8A 05 02 00 10 12 80 00  . .#.w..........
0580: 8A 05 03 01 10 21 80 01  8A 05 5D 00 80 01 80 45  .....!....]....E
0590: 02 80 F0 FF FF 7F F0 FF  FF 7F 66 64 6F 31 00 80  ..........fdo1..
05A0: 1C 01 80 5C 00 22 80 5C  01 22 80 4E 00 F0 FF FF  ...\.".\.".N....
05B0: 7F 80 F0 FF FF 7F 46 00  45 02 80 F0 FF FF 7F F0  ......F.E.......
05C0: FF FF 7F 66 64 69 31 00  80 20 00 21 00           ...fdi1.. .!.   
```

#### Opcodes

```
  0: 0x0001 [0x20] SET_CLI_EVENT_UC_FLAG: Lock player control
  1: 0x0003 [0x42] SET_CLI_EVENT_CANCEL_DATA()
  2: 0x0004 [0x46] CAMERA_CONTROL: Disable user control
  3: 0x0006 [0x5D] SET_MUSIC_VOLUME(volume=0*, fade_time=120*)
  4: 0x000B [0x45] LOAD_SCHEDULED_TASK: Load scheduler "fdo1" with entities [EventEntity, EventEntity], work=[200*, 0*]
  5: 0x001C [0x1C] WAIT(60* ticks)
  6: 0x001F [0x38] SET_CLIENT_EVENT_MODE(mode=3*)
  7: 0x0022 [0x29] REQ_SET_WAIT(priority=0x08, entity_id=LocalPlayer, tag_num=0x5D)
  8: 0x0029 [0x92] Ayame (ID: 17748015/0x010ED02F)->Render.Flags3 ^= 0x01
  9: 0x002F [0x92] Romualdo (ID: 17748022/0x010ED036)->Render.Flags3 ^= 0x01
 10: 0x0035 [0x75] LOAD_ROOM(Load indoor room, room=307*)
 11: 0x0039 [0x75] LOAD_ROOM(No action)
 12: 0x003B [0x4E] SET_ENTITY_HIDE_FLAG: Show Ayame (ID: 17748015/0x010ED02F)
 13: 0x0041 [0x4E] SET_ENTITY_HIDE_FLAG: Show Romualdo (ID: 17748022/0x010ED036)
 14: 0x0047 [0x80] LOAD_WAIT(entity=Ayame (ID: 17748015/0x010ED02F))
 15: 0x004C [0x80] LOAD_WAIT(entity=Romualdo (ID: 17748022/0x010ED036))
 16: 0x0051 [0x29] REQ_SET_WAIT(priority=0x0B, entity_id=Romualdo (ID: 17748022/0x010ED036), tag_num=0x11)
 17: 0x0058 [0x29] REQ_SET_WAIT(priority=0x0B, entity_id=Ayame (ID: 17748015/0x010ED02F), tag_num=0x5E)
 18: 0x005F [0x29] REQ_SET_WAIT(priority=0x0B, entity_id=LocalPlayer, tag_num=0x5F)
 19: 0x0066 [0x79] LocalPlayer looks at Romualdo (ID: 17748022/0x010ED036) (Basic look)
 20: 0x0070 [0x4A] Ayame (ID: 17748015/0x010ED02F) looks at Romualdo (ID: 17748022/0x010ED036)
 21: 0x0079 [0x6F] WAIT_FRAME_DELAY: Yield until WaitTime reaches zero
 22: 0x007A [0x76] CHECK_ENTITY_RENDER_FLAGS: Wait until Ayame (ID: 17748015/0x010ED02F) Render.Flags0 and Render.Flags3 conditions are met
 23: 0x007F [0x29] REQ_SET_WAIT(priority=0x08, entity_id=Romualdo (ID: 17748022/0x010ED036), tag_num=0x08)
 24: 0x0086 [0x29] REQ_SET_WAIT(priority=0x08, entity_id=Romualdo (ID: 17748022/0x010ED036), tag_num=0x09)
 25: 0x008D [0x5C] MUSIC_CONTROL: Set Idle (Day) music to song 127*
 26: 0x0091 [0x5C] MUSIC_CONTROL: Set Idle (Night) music to song 127*
 27: 0x0095 [0x45] LOAD_SCHEDULED_TASK: Load scheduler "s000" with entities [EventEntity, EventEntity], work=[126*, 0*]
 28: 0x00A6 [0x45] LOAD_SCHEDULED_TASK: Load scheduler "fdi1" with entities [EventEntity, EventEntity], work=[200*, 0*]
 29: 0x00B7 [0x29] REQ_SET_WAIT(priority=0x08, entity_id=Romualdo (ID: 17748022/0x010ED036), tag_num=0x0C)
 30: 0x00BE [0x29] REQ_SET_WAIT(priority=0x08, entity_id=Romualdo (ID: 17748022/0x010ED036), tag_num=0x0D)
 31: 0x00C5 [0x29] REQ_SET_WAIT(priority=0x08, entity_id=Romualdo (ID: 17748022/0x010ED036), tag_num=0x0C)
 32: 0x00CC [0x29] REQ_SET_WAIT(priority=0x08, entity_id=Romualdo (ID: 17748022/0x010ED036), tag_num=0x0D)
 33: 0x00D3 [0x29] REQ_SET_WAIT(priority=0x08, entity_id=Romualdo (ID: 17748022/0x010ED036), tag_num=0x0A)
 34: 0x00DA [0x29] REQ_SET_WAIT(priority=0x08, entity_id=Romualdo (ID: 17748022/0x010ED036), tag_num=0x0B)
 35: 0x00E1 [0x27] REQ_SET(priority=0x0B, entity_id=Romualdo (ID: 17748022/0x010ED036), tag_num=0x12)
 36: 0x00E8 [0x1C] WAIT(30* ticks)
 37: 0x00EB [0x52] END_LOAD_SCHEDULER: End scheduler "s000" with entities [EventEntity, EventEntity], work=126*
 38: 0x00FA [0x45] LOAD_SCHEDULED_TASK: Load scheduler "ovl1" with entities [LocalPlayer, LocalPlayer], work=[200*, 0*]
 39: 0x010B [0x45] LOAD_SCHEDULED_TASK: Load scheduler "s001" with entities [EventEntity, EventEntity], work=[126*, 0*]
 40: 0x011C [0x2B] Ayame (ID: 17748015/0x010ED02F) [9911*]:
    → "Well, that finishes up our maintenance on the cannons."
 41: 0x0123 [0x23] WAIT_FOR_DIALOG_INTERACTION
 42: 0x0124 [0x52] END_LOAD_SCHEDULER: End scheduler "s001" with entities [EventEntity, EventEntity], work=126*
 43: 0x0133 [0x45] LOAD_SCHEDULED_TASK: Load scheduler "s002" with entities [EventEntity, EventEntity], work=[126*, 0*]
 44: 0x0144 [0x29] REQ_SET_WAIT(priority=0x08, entity_id=Romualdo (ID: 17748022/0x010ED036), tag_num=0x04)
 45: 0x014B [0x2B] Romualdo (ID: 17748022/0x010ED036) [9912*]:
    → "The old girls have been kept in pretty good shape. They should hold up if the need for them arises."
 46: 0x0152 [0x23] WAIT_FOR_DIALOG_INTERACTION
 47: 0x0153 [0x29] REQ_SET_WAIT(priority=0x08, entity_id=Romualdo (ID: 17748022/0x010ED036), tag_num=0x05)
 48: 0x015A [0x29] REQ_SET_WAIT(priority=0x08, entity_id=Romualdo (ID: 17748022/0x010ED036), tag_num=0x06)
 49: 0x0161 [0x2B] Romualdo (ID: 17748022/0x010ED036) [9913*]:
    → "I just hope nothing that bad ever happens."
 50: 0x0168 [0x23] WAIT_FOR_DIALOG_INTERACTION
 51: 0x0169 [0x29] REQ_SET_WAIT(priority=0x08, entity_id=Romualdo (ID: 17748022/0x010ED036), tag_num=0x07)
 52: 0x0170 [0x7B] Ayame (ID: 17748015/0x010ED02F) stops talking
 53: 0x0175 [0x29] REQ_SET_WAIT(priority=0x08, entity_id=Ayame (ID: 17748015/0x010ED02F), tag_num=0x35)
 54: 0x017C [0x2B] Ayame (ID: 17748015/0x010ED02F) [9914*]:
    → "I would have to agree."
 55: 0x0183 [0x23] WAIT_FOR_DIALOG_INTERACTION
 56: 0x0184 [0x29] REQ_SET_WAIT(priority=0x08, entity_id=Ayame (ID: 17748015/0x010ED02F), tag_num=0x36)
 57: 0x018B [0x52] END_LOAD_SCHEDULER: End scheduler "s002" with entities [EventEntity, EventEntity], work=126*
 58: 0x019A [0x45] LOAD_SCHEDULED_TASK: Load scheduler "s004" with entities [EventEntity, EventEntity], work=[126*, 0*]
 59: 0x01AB [0x29] REQ_SET_WAIT(priority=0x08, entity_id=Ayame (ID: 17748015/0x010ED02F), tag_num=0x37)
 60: 0x01B2 [0x2B] Ayame (ID: 17748015/0x010ED02F) [9915*]:
    → "But we must stay on our guard. That beastman lair appeared overnight, right on our doorstep..."
 61: 0x01B9 [0x23] WAIT_FOR_DIALOG_INTERACTION
 62: 0x01BA [0x29] REQ_SET_WAIT(priority=0x08, entity_id=Ayame (ID: 17748015/0x010ED02F), tag_num=0x38)
 63: 0x01C1 [0x79] Romualdo (ID: 17748022/0x010ED036) looks at LocalPlayer (Basic look)
 64: 0x01CB [0x27] REQ_SET(priority=0x0B, entity_id=Door:Cannonry (ID: 17748059/0x010ED05B), tag_num=0x03)
 65: 0x01D2 [0x1C] WAIT(30* ticks)
 66: 0x01D5 [0x27] REQ_SET(priority=0x0B, entity_id=LocalPlayer, tag_num=0x60)
 67: 0x01DC [0x52] END_LOAD_SCHEDULER: End scheduler "s004" with entities [EventEntity, EventEntity], work=126*
 68: 0x01EB [0x45] LOAD_SCHEDULED_TASK: Load scheduler "s003" with entities [EventEntity, EventEntity], work=[126*, 0*]
 69: 0x01FC [0x4A] Ayame (ID: 17748015/0x010ED02F) looks at LocalPlayer
 70: 0x0205 [0x27] REQ_SET(priority=0x0B, entity_id=Romualdo (ID: 17748022/0x010ED036), tag_num=0x13)
 71: 0x020C [0x2A] GET_REQ_LEVEL(level=11, entity_id=LocalPlayer)
 72: 0x0212 [0x6F] WAIT_FRAME_DELAY: Yield until WaitTime reaches zero
 73: 0x0213 [0x76] CHECK_ENTITY_RENDER_FLAGS: Wait until Ayame (ID: 17748015/0x010ED02F) Render.Flags0 and Render.Flags3 conditions are met
 74: 0x0218 [0x52] END_LOAD_SCHEDULER: End scheduler "s003" with entities [EventEntity, EventEntity], work=126*
 75: 0x0227 [0x02] IF !(Work_Zone[9] == 5*) GOTO 0x0243
 76: 0x022F [0x45] LOAD_SCHEDULED_TASK: Load scheduler "s011" with entities [EventEntity, EventEntity], work=[126*, 0*]
 77: 0x0240 [0x01] GOTO 0x0270
 78: 0x0243 [0x02] IF !(Work_Zone[9] == 6*) GOTO 0x025F
 79: 0x024B [0x45] LOAD_SCHEDULED_TASK: Load scheduler "s011" with entities [EventEntity, EventEntity], work=[126*, 0*]
 80: 0x025C [0x01] GOTO 0x0270
 81: 0x025F [0x45] LOAD_SCHEDULED_TASK: Load scheduler "s005" with entities [EventEntity, EventEntity], work=[126*, 0*]

SUBROUTINE_0270:
 82: 0x0270 [0x79] LocalPlayer looks at Ayame (ID: 17748015/0x010ED02F) (Basic look)
 83: 0x027A [0x2B] Ayame (ID: 17748015/0x010ED02F) [9916*]:
    → "Greetings, adventurer. Have you come looking for employment?"
 84: 0x0281 [0x23] WAIT_FOR_DIALOG_INTERACTION
 85: 0x0282 [0x29] REQ_SET_WAIT(priority=0x0B, entity_id=Door:Cannonry (ID: 17748059/0x010ED05B), tag_num=0x04)
 86: 0x0289 [0x02] IF !(Work_Zone[9] == 5*) GOTO 0x02A3
 87: 0x0291 [0x52] END_LOAD_SCHEDULER: End scheduler "s011" with entities [EventEntity, EventEntity], work=126*
 88: 0x02A0 [0x01] GOTO 0x02CC
 89: 0x02A3 [0x02] IF !(Work_Zone[9] == 6*) GOTO 0x02BD
 90: 0x02AB [0x52] END_LOAD_SCHEDULER: End scheduler "s011" with entities [EventEntity, EventEntity], work=126*
 91: 0x02BA [0x01] GOTO 0x02CC
 92: 0x02BD [0x52] END_LOAD_SCHEDULER: End scheduler "s005" with entities [EventEntity, EventEntity], work=126*

SUBROUTINE_02CC:
 93: 0x02CC [0x24] CREATE_DIALOG(message_id=9917*, default_option=0*, option_flags=0*)
    → "Looking for work? [Now that you mention it.../Not today...]"
 94: 0x02D3 [0x25] WAIT_DIALOG_SELECT()
 95: 0x02D4 [0x02] IF !(Work_Zone[0] == 0*) GOTO 0x057A
 96: 0x02DC [0x03] Work_Zone[1] = 1*
 97: 0x02E1 [0x45] LOAD_SCHEDULED_TASK: Load scheduler "s006" with entities [EventEntity, EventEntity], work=[126*, 0*]
 98: 0x02F2 [0x7B] Ayame (ID: 17748015/0x010ED02F) stops talking
 99: 0x02F7 [0x2B] Ayame (ID: 17748015/0x010ED02F) [9918*]:
    → "I have a task perfectly suited for an adventurer."
100: 0x02FE [0x23] WAIT_FOR_DIALOG_INTERACTION
101: 0x02FF [0x2B] Ayame (ID: 17748015/0x010ED02F) [9919*]:
    → "Have you heard about the Goblin lair that suddenly appeared in North Gustaberg?"
102: 0x0306 [0x23] WAIT_FOR_DIALOG_INTERACTION
103: 0x0307 [0x52] END_LOAD_SCHEDULER: End scheduler "s006" with entities [EventEntity, EventEntity], work=126*
104: 0x0316 [0x02] IF !(Work_Zone[9] == 3*) GOTO 0x0332
105: 0x031E [0x45] LOAD_SCHEDULED_TASK: Load scheduler "s013" with entities [EventEntity, EventEntity], work=[126*, 0*]
106: 0x032F [0x01] GOTO 0x035F
107: 0x0332 [0x02] IF !(Work_Zone[9] == 8*) GOTO 0x034E
108: 0x033A [0x45] LOAD_SCHEDULED_TASK: Load scheduler "s013" with entities [EventEntity, EventEntity], work=[126*, 0*]
109: 0x034B [0x01] GOTO 0x035F
110: 0x034E [0x45] LOAD_SCHEDULED_TASK: Load scheduler "s007" with entities [EventEntity, EventEntity], work=[126*, 0*]

SUBROUTINE_035F:
111: 0x035F [0x27] REQ_SET(priority=0x0B, entity_id=Ayame (ID: 17748015/0x010ED02F), tag_num=0x5F)
112: 0x0366 [0x2B] Ayame (ID: 17748015/0x010ED02F) [9920*]:
    → "According to scholars, the Goblins living in this lair are a separate tribe known as the Moblins."
113: 0x036D [0x23] WAIT_FOR_DIALOG_INTERACTION
114: 0x036E [0x2B] Ayame (ID: 17748015/0x010ED02F) [9921*]:
    → "Goblins ordinarily avoid gathering together and building settlements, but apparently these Moblins have a vastly different social structure."
115: 0x0375 [0x23] WAIT_FOR_DIALOG_INTERACTION
116: 0x0376 [0x2A] GET_REQ_LEVEL(level=11, entity_id=Ayame (ID: 17748015/0x010ED02F))
117: 0x037C [0x02] IF !(Work_Zone[9] == 3*) GOTO 0x0396
118: 0x0384 [0x52] END_LOAD_SCHEDULER: End scheduler "s013" with entities [EventEntity, EventEntity], work=126*
119: 0x0393 [0x01] GOTO 0x03BF
120: 0x0396 [0x02] IF !(Work_Zone[9] == 8*) GOTO 0x03B0
121: 0x039E [0x52] END_LOAD_SCHEDULER: End scheduler "s013" with entities [EventEntity, EventEntity], work=126*
122: 0x03AD [0x01] GOTO 0x03BF
123: 0x03B0 [0x52] END_LOAD_SCHEDULER: End scheduler "s007" with entities [EventEntity, EventEntity], work=126*

SUBROUTINE_03BF:
124: 0x03BF [0x45] LOAD_SCHEDULED_TASK: Load scheduler "ovl1" with entities [LocalPlayer, LocalPlayer], work=[200*, 0*]
125: 0x03D0 [0x45] LOAD_SCHEDULED_TASK: Load scheduler "s008" with entities [EventEntity, EventEntity], work=[126*, 0*]
126: 0x03E1 [0x2B] Ayame (ID: 17748015/0x010ED02F) [9922*]:
    → "With several of their number living in Jeuno, it can be said that we are on much friendlier terms with Goblins than the other beastmen races."
127: 0x03E8 [0x23] WAIT_FOR_DIALOG_INTERACTION
128: 0x03E9 [0x2B] Ayame (ID: 17748015/0x010ED02F) [9923*]:
    → "However, there is still much we don't know about the Moblins."
129: 0x03F0 [0x23] WAIT_FOR_DIALOG_INTERACTION
130: 0x03F1 [0x52] END_LOAD_SCHEDULER: End scheduler "s008" with entities [EventEntity, EventEntity], work=126*
131: 0x0400 [0x02] IF !(Work_Zone[9] == 3*) GOTO 0x041C
132: 0x0408 [0x45] LOAD_SCHEDULED_TASK: Load scheduler "s014" with entities [EventEntity, EventEntity], work=[126*, 0*]
133: 0x0419 [0x01] GOTO 0x0481
134: 0x041C [0x02] IF !(Work_Zone[9] == 5*) GOTO 0x0438
135: 0x0424 [0x45] LOAD_SCHEDULED_TASK: Load scheduler "s012" with entities [EventEntity, EventEntity], work=[126*, 0*]
136: 0x0435 [0x01] GOTO 0x0481
137: 0x0438 [0x02] IF !(Work_Zone[9] == 6*) GOTO 0x0454
138: 0x0440 [0x45] LOAD_SCHEDULED_TASK: Load scheduler "s012" with entities [EventEntity, EventEntity], work=[126*, 0*]
139: 0x0451 [0x01] GOTO 0x0481
140: 0x0454 [0x02] IF !(Work_Zone[9] == 8*) GOTO 0x0470
141: 0x045C [0x45] LOAD_SCHEDULED_TASK: Load scheduler "s014" with entities [EventEntity, EventEntity], work=[126*, 0*]
142: 0x046D [0x01] GOTO 0x0481
143: 0x0470 [0x45] LOAD_SCHEDULED_TASK: Load scheduler "s009" with entities [EventEntity, EventEntity], work=[126*, 0*]

SUBROUTINE_0481:
144: 0x0481 [0x4A] Ayame (ID: 17748015/0x010ED02F) looks at LocalPlayer
145: 0x048A [0x6F] WAIT_FRAME_DELAY: Yield until WaitTime reaches zero
146: 0x048B [0x76] CHECK_ENTITY_RENDER_FLAGS: Wait until Ayame (ID: 17748015/0x010ED02F) Render.Flags0 and Render.Flags3 conditions are met
147: 0x0490 [0x2B] Ayame (ID: 17748015/0x010ED02F) [9924*]:
    → "In order to avoid unnecessary bloodshed, we need to determine whether or not they harbor hostile intentions towards us."
148: 0x0497 [0x23] WAIT_FOR_DIALOG_INTERACTION
149: 0x0498 [0x2B] Ayame (ID: 17748015/0x010ED02F) [9925*]:
    → "Preparations for military action are underway. But first we wish to ask adventurers like you to conduct a thorough investigation."
150: 0x049F [0x23] WAIT_FOR_DIALOG_INTERACTION
151: 0x04A0 [0x02] IF !(Work_Zone[9] == 3*) GOTO 0x04BA
152: 0x04A8 [0x52] END_LOAD_SCHEDULER: End scheduler "s014" with entities [EventEntity, EventEntity], work=126*
153: 0x04B7 [0x01] GOTO 0x0517
154: 0x04BA [0x02] IF !(Work_Zone[9] == 5*) GOTO 0x04D4
155: 0x04C2 [0x52] END_LOAD_SCHEDULER: End scheduler "s012" with entities [EventEntity, EventEntity], work=126*
156: 0x04D1 [0x01] GOTO 0x0517
157: 0x04D4 [0x02] IF !(Work_Zone[9] == 6*) GOTO 0x04EE
158: 0x04DC [0x52] END_LOAD_SCHEDULER: End scheduler "s012" with entities [EventEntity, EventEntity], work=126*
159: 0x04EB [0x01] GOTO 0x0517
160: 0x04EE [0x02] IF !(Work_Zone[9] == 8*) GOTO 0x0508
161: 0x04F6 [0x52] END_LOAD_SCHEDULER: End scheduler "s014" with entities [EventEntity, EventEntity], work=126*
162: 0x0505 [0x01] GOTO 0x0517
163: 0x0508 [0x52] END_LOAD_SCHEDULER: End scheduler "s009" with entities [EventEntity, EventEntity], work=126*

SUBROUTINE_0517:
164: 0x0517 [0x45] LOAD_SCHEDULED_TASK: Load scheduler "s010" with entities [EventEntity, EventEntity], work=[126*, 0*]
165: 0x0528 [0x2B] Ayame (ID: 17748015/0x010ED02F) [9926*]:
    → "Will you undertake this task?"
166: 0x052F [0x23] WAIT_FOR_DIALOG_INTERACTION
167: 0x0530 [0x52] END_LOAD_SCHEDULER: End scheduler "s010" with entities [EventEntity, EventEntity], work=126*
168: 0x053F [0x24] CREATE_DIALOG(message_id=9927*, default_option=0*, option_flags=0*)
    → "Will you do it? [Yes./No.]"
169: 0x0546 [0x25] WAIT_DIALOG_SELECT()
170: 0x0547 [0x02] IF !(Work_Zone[0] == 0*) GOTO 0x055F
171: 0x054F [0x03] Work_Zone[1] = 3*
172: 0x0554 [0x2B] Ayame (ID: 17748015/0x010ED02F) [9928*]:
    → "Excellent. Please report to the scholar at the Steaming Sheep Restaurant for further details."
173: 0x055B [0x23] WAIT_FOR_DIALOG_INTERACTION
174: 0x055C [0x01] GOTO 0x0577
175: 0x055F [0x02] IF !(Work_Zone[0] == 1*) GOTO 0x0577
176: 0x0567 [0x03] Work_Zone[1] = 4*
177: 0x056C [0x2B] Ayame (ID: 17748015/0x010ED02F) [9929*]:
    → "I'm sorry to hear that. Please be sure to talk to me again if you change your mind."
178: 0x0573 [0x23] WAIT_FOR_DIALOG_INTERACTION
179: 0x0574 [0x01] GOTO 0x0577

SUBROUTINE_0577:
180: 0x0577 [0x01] GOTO 0x058A
181: 0x057A [0x02] IF !(Work_Zone[0] == 1*) GOTO 0x058A
182: 0x0582 [0x03] Work_Zone[1] = 2*
183: 0x0587 [0x01] GOTO 0x058A

SUBROUTINE_058A:
184: 0x058A [0x5D] SET_MUSIC_VOLUME(volume=0*, fade_time=120*)
185: 0x058F [0x45] LOAD_SCHEDULED_TASK: Load scheduler "fdo1" with entities [LocalPlayer, LocalPlayer], work=[200*, 0*]
186: 0x05A0 [0x1C] WAIT(120* ticks)
187: 0x05A3 [0x5C] MUSIC_CONTROL: Set Idle (Day) music to song 154*
188: 0x05A7 [0x5C] MUSIC_CONTROL: Set Idle (Night) music to song 154*
189: 0x05AB [0x4E] SET_ENTITY_HIDE_FLAG: Show LocalPlayer
190: 0x05B1 [0x80] LOAD_WAIT(entity=LocalPlayer)
191: 0x05B6 [0x46] CAMERA_CONTROL: Restore default settings
192: 0x05B8 [0x45] LOAD_SCHEDULED_TASK: Load scheduler "fdi1" with entities [LocalPlayer, LocalPlayer], work=[200*, 0*]
193: 0x05C9 [0x20] SET_CLI_EVENT_UC_FLAG: Unlock player control
194: 0x05CB [0x21] END_EVENT
195: 0x05CC [0x00] END_REQSTACK()
```

### Event 864

#### Metadata

| Field        | Value     |
|--------------|-----------|
| Entrypoint   | 0x05CD    |
| Data Size    | 495 bytes |
| Instructions | 74        |

```
      00 01 02 03 04 05 06 07  08 09 0A 0B 0C 0D 0E 0F
      -- -- -- -- -- -- -- --  -- -- -- -- -- -- -- --
05C0:                                         20 01 42                .B
05D0: 46 01 45 02 80 F8 FF FF  7F F8 FF FF 7F 66 64 6F  F.E..........fdo
05E0: 31 00 80 1C 03 80 38 04  80 29 08 F0 FF FF 7F 5D  1.....8..).....]
05F0: 75 00 23 80 75 01 29 0B  2C D0 0E 01 39 29 0B F0  u.#.u.).,...9)..
0600: FF FF 7F 61 4A F0 FF FF  7F 2C D0 0E 01 6F 76 F0  ...aJ....,...ov.
0610: FF FF 7F 4E 00 2C D0 0E  01 80 2C D0 0E 01 92 01  ...N.,....,.....
0620: 2C D0 0E 01 02 07 10 00  80 00 3B 06 4A 2C D0 0E  ,.........;.J,..
0630: 01 F0 FF FF 7F 6F 76 2C  D0 0E 01 02 09 10 0E 80  .....ov,........
0640: 00 57 06 45 24 80 F8 FF  FF 7F F8 FF FF 7F 73 30  .W.E$.........s0
0650: 30 36 00 80 01 84 06 02  09 10 0F 80 00 73 06 45  06...........s.E
0660: 24 80 F8 FF FF 7F F8 FF  FF 7F 73 30 30 36 00 80  $.........s006..
0670: 01 84 06 45 24 80 F8 FF  FF 7F F8 FF FF 7F 73 30  ...E$.........s0
0680: 30 34 00 80 45 02 80 F8  FF FF 7F F8 FF FF 7F 66  04..E..........f
0690: 64 69 31 00 80 02 07 10  00 80 01 B4 06 2B 2C D0  di1..........+,.
06A0: 0E 01 25 80 23 4A 2C D0  0E 01 F0 FF FF 7F 6F 76  ..%.#J,.......ov
06B0: 2C D0 0E 01 29 08 2C D0  0E 01 1B 02 07 10 21 80  ,...).,.......!.
06C0: 03 CE 06 2B 2C D0 0E 01  26 80 23 01 D6 06 2B 2C  ...+,...&.#...+,
06D0: D0 0E 01 27 80 23 2B 2C  D0 0E 01 28 80 23 2B 2C  ...'.#+,...(.#+,
06E0: D0 0E 01 29 80 23 02 09  10 0E 80 00 00 07 52 24  ...).#........R$
06F0: 80 F8 FF FF 7F F8 FF FF  7F 73 30 30 36 01 29 07  .........s006.).
0700: 02 09 10 0F 80 00 1A 07  52 24 80 F8 FF FF 7F F8  ........R$......
0710: FF FF 7F 73 30 30 36 01  29 07 52 24 80 F8 FF FF  ...s006.).R$....
0720: 7F F8 FF FF 7F 73 30 30  34 45 02 80 F0 FF FF 7F  .....s004E......
0730: F0 FF FF 7F 6F 76 6C 31  00 80 45 24 80 F8 FF FF  ....ovl1..E$....
0740: 7F F8 FF FF 7F 73 30 30  35 00 80 02 07 10 21 80  .....s005.....!.
0750: 03 5B 07 2B 2C D0 0E 01  2A 80 23 29 08 2C D0 0E  .[.+,...*.#).,..
0760: 01 1C 2B 2C D0 0E 01 2B  80 23 7B 2C D0 0E 01 2B  ..+,...+.#{,...+
0770: 2C D0 0E 01 2C 80 23 45  02 80 F0 FF FF 7F F0 FF  ,...,.#E........
0780: FF 7F 66 64 6F 31 00 80  1C 03 80 52 24 80 F8 FF  ..fdo1.....R$...
0790: FF 7F F8 FF FF 7F 73 30  30 35 4E 00 F0 FF FF 7F  ......s005N.....
07A0: 80 F0 FF FF 7F 46 00 45  02 80 F0 FF FF 7F F0 FF  .....F.E........
07B0: FF 7F 66 64 69 31 00 80  20 00 21 00              ..fdi1.. .!.    
```

#### Opcodes

```
  0: 0x05CD [0x20] SET_CLI_EVENT_UC_FLAG: Lock player control
  1: 0x05CF [0x42] SET_CLI_EVENT_CANCEL_DATA()
  2: 0x05D0 [0x46] CAMERA_CONTROL: Disable user control
  3: 0x05D2 [0x45] LOAD_SCHEDULED_TASK: Load scheduler "fdo1" with entities [EventEntity, EventEntity], work=[200*, 0*]
  4: 0x05E3 [0x1C] WAIT(60* ticks)
  5: 0x05E6 [0x38] SET_CLIENT_EVENT_MODE(mode=3*)
  6: 0x05E9 [0x29] REQ_SET_WAIT(priority=0x08, entity_id=LocalPlayer, tag_num=0x5D)
  7: 0x05F0 [0x75] LOAD_ROOM(Load indoor room, room=300*)
  8: 0x05F4 [0x75] LOAD_ROOM(No action)
  9: 0x05F6 [0x29] REQ_SET_WAIT(priority=0x0B, entity_id=Raibaht (ID: 17748012/0x010ED02C), tag_num=0x39)
 10: 0x05FD [0x29] REQ_SET_WAIT(priority=0x0B, entity_id=LocalPlayer, tag_num=0x61)
 11: 0x0604 [0x4A] LocalPlayer looks at Raibaht (ID: 17748012/0x010ED02C)
 12: 0x060D [0x6F] WAIT_FRAME_DELAY: Yield until WaitTime reaches zero
 13: 0x060E [0x76] CHECK_ENTITY_RENDER_FLAGS: Wait until LocalPlayer Render.Flags0 and Render.Flags3 conditions are met
 14: 0x0613 [0x4E] SET_ENTITY_HIDE_FLAG: Show Raibaht (ID: 17748012/0x010ED02C)
 15: 0x0619 [0x80] LOAD_WAIT(entity=Raibaht (ID: 17748012/0x010ED02C))
 16: 0x061E [0x92] Raibaht (ID: 17748012/0x010ED02C)->Render.Flags3 ^= 0x01
 17: 0x0624 [0x02] IF !(Work_Zone[7] == 0*) GOTO 0x063B
 18: 0x062C [0x4A] Raibaht (ID: 17748012/0x010ED02C) looks at LocalPlayer
 19: 0x0635 [0x6F] WAIT_FRAME_DELAY: Yield until WaitTime reaches zero
 20: 0x0636 [0x76] CHECK_ENTITY_RENDER_FLAGS: Wait until Raibaht (ID: 17748012/0x010ED02C) Render.Flags0 and Render.Flags3 conditions are met
 21: 0x063B [0x02] IF !(Work_Zone[9] == 5*) GOTO 0x0657
 22: 0x0643 [0x45] LOAD_SCHEDULED_TASK: Load scheduler "s006" with entities [EventEntity, EventEntity], work=[25*, 0*]
 23: 0x0654 [0x01] GOTO 0x0684
 24: 0x0657 [0x02] IF !(Work_Zone[9] == 6*) GOTO 0x0673
 25: 0x065F [0x45] LOAD_SCHEDULED_TASK: Load scheduler "s006" with entities [EventEntity, EventEntity], work=[25*, 0*]
 26: 0x0670 [0x01] GOTO 0x0684
 27: 0x0673 [0x45] LOAD_SCHEDULED_TASK: Load scheduler "s004" with entities [EventEntity, EventEntity], work=[25*, 0*]

SUBROUTINE_0684:
 28: 0x0684 [0x45] LOAD_SCHEDULED_TASK: Load scheduler "fdi1" with entities [EventEntity, EventEntity], work=[200*, 0*]
 29: 0x0695 [0x02] IF !(Work_Zone[7] == 0*) GOTO 0x06B4
 30: 0x069D [0x2B] Raibaht (ID: 17748012/0x010ED02C) [9932*]:
    → "...Crystal propulsion unit... ......Hooded scientists........."
 31: 0x06A4 [0x23] WAIT_FOR_DIALOG_INTERACTION
 32: 0x06A5 [0x4A] Raibaht (ID: 17748012/0x010ED02C) looks at LocalPlayer
 33: 0x06AE [0x6F] WAIT_FRAME_DELAY: Yield until WaitTime reaches zero
 34: 0x06AF [0x76] CHECK_ENTITY_RENDER_FLAGS: Wait until Raibaht (ID: 17748012/0x010ED02C) Render.Flags0 and Render.Flags3 conditions are met
 35: 0x06B4 [0x29] REQ_SET_WAIT(priority=0x08, entity_id=Raibaht (ID: 17748012/0x010ED02C), tag_num=0x1B)
 36: 0x06BB [0x02] IF !(Work_Zone[7] >= 2*) GOTO 0x06CE
 37: 0x06C3 [0x2B] Raibaht (ID: 17748012/0x010ED02C) [9933*]:
    → "... You have to promise me you won't tell anyone else what I'm about to tell you."
 38: 0x06CA [0x23] WAIT_FOR_DIALOG_INTERACTION
 39: 0x06CB [0x01] GOTO 0x06D6
 40: 0x06CE [0x2B] Raibaht (ID: 17748012/0x010ED02C) [9934*]:
    → "... Remember, you are not to tell anyone that the chief is building a new airship."
 41: 0x06D5 [0x23] WAIT_FOR_DIALOG_INTERACTION

SUBROUTINE_06D6:
 42: 0x06D6 [0x2B] Raibaht (ID: 17748012/0x010ED02C) [9935*]:
    → "Currently, the Grand Duchy of Jeuno, in conjunction with the air travel agency, has formed a monopoly on all forms of airship travel."
 43: 0x06DD [0x23] WAIT_FOR_DIALOG_INTERACTION
 44: 0x06DE [0x2B] Raibaht (ID: 17748012/0x010ED02C) [9936*]:
    → "To compete against Jeuno's empire in the skies, we must reinforce our research in aeronautics development. However, if the Duchy were to learn of our actions, they would not be pleased."
 45: 0x06E5 [0x23] WAIT_FOR_DIALOG_INTERACTION
 46: 0x06E6 [0x02] IF !(Work_Zone[9] == 5*) GOTO 0x0700
 47: 0x06EE [0x52] END_LOAD_SCHEDULER: End scheduler "s006" with entities [EventEntity, EventEntity], work=25*
 48: 0x06FD [0x01] GOTO 0x0729
 49: 0x0700 [0x02] IF !(Work_Zone[9] == 6*) GOTO 0x071A
 50: 0x0708 [0x52] END_LOAD_SCHEDULER: End scheduler "s006" with entities [EventEntity, EventEntity], work=25*
 51: 0x0717 [0x01] GOTO 0x0729
 52: 0x071A [0x52] END_LOAD_SCHEDULER: End scheduler "s004" with entities [EventEntity, EventEntity], work=25*

SUBROUTINE_0729:
 53: 0x0729 [0x45] LOAD_SCHEDULED_TASK: Load scheduler "ovl1" with entities [LocalPlayer, LocalPlayer], work=[200*, 0*]
 54: 0x073A [0x45] LOAD_SCHEDULED_TASK: Load scheduler "s005" with entities [EventEntity, EventEntity], work=[25*, 0*]
 55: 0x074B [0x02] IF !(Work_Zone[7] >= 2*) GOTO 0x075B
 56: 0x0753 [0x2B] Raibaht (ID: 17748012/0x010ED02C) [9937*]:
    → "That is why our chief has gone to great lengths to keep his acquisition of an out-of-service airship a secret to all but those who need to know."
 57: 0x075A [0x23] WAIT_FOR_DIALOG_INTERACTION
 58: 0x075B [0x29] REQ_SET_WAIT(priority=0x08, entity_id=Raibaht (ID: 17748012/0x010ED02C), tag_num=0x1C)
 59: 0x0762 [0x2B] Raibaht (ID: 17748012/0x010ED02C) [9938*]:
    → "And that is why we must not draw any attention to ourselves by collecting large quantities of materials at one time."
 60: 0x0769 [0x23] WAIT_FOR_DIALOG_INTERACTION
 61: 0x076A [0x7B] Raibaht (ID: 17748012/0x010ED02C) stops talking
 62: 0x076F [0x2B] Raibaht (ID: 17748012/0x010ED02C) [9939*]:
    → "However, our supply of $1 has almost run dry. If we don't have enough of that item, we cannot continue our modifications of the airship."
 63: 0x0776 [0x23] WAIT_FOR_DIALOG_INTERACTION
 64: 0x0777 [0x45] LOAD_SCHEDULED_TASK: Load scheduler "fdo1" with entities [LocalPlayer, LocalPlayer], work=[200*, 0*]
 65: 0x0788 [0x1C] WAIT(60* ticks)
 66: 0x078B [0x52] END_LOAD_SCHEDULER: End scheduler "s005" with entities [EventEntity, EventEntity], work=25*
 67: 0x079A [0x4E] SET_ENTITY_HIDE_FLAG: Show LocalPlayer
 68: 0x07A0 [0x80] LOAD_WAIT(entity=LocalPlayer)
 69: 0x07A5 [0x46] CAMERA_CONTROL: Restore default settings
 70: 0x07A7 [0x45] LOAD_SCHEDULED_TASK: Load scheduler "fdi1" with entities [LocalPlayer, LocalPlayer], work=[200*, 0*]
 71: 0x07B8 [0x20] SET_CLI_EVENT_UC_FLAG: Unlock player control
 72: 0x07BA [0x21] END_EVENT
 73: 0x07BB [0x00] END_REQSTACK()
```

### Event 866

#### Metadata

| Field        | Value     |
|--------------|-----------|
| Entrypoint   | 0x07BC    |
| Data Size    | 524 bytes |
| Instructions | 75        |

```
      00 01 02 03 04 05 06 07  08 09 0A 0B 0C 0D 0E 0F
      -- -- -- -- -- -- -- --  -- -- -- -- -- -- -- --
07B0:                                      20 01 42 46               .BF
07C0: 01 45 02 80 F8 FF FF 7F  F8 FF FF 7F 66 64 6F 31  .E..........fdo1
07D0: 00 80 1C 03 80 38 2D 80  29 08 F0 FF FF 7F 5D 75  .....8-.).....]u
07E0: 00 23 80 75 01 29 0B 2C  D0 0E 01 39 29 0B F0 FF  .#.u.).,...9)...
07F0: FF 7F 61 4A F0 FF FF 7F  2C D0 0E 01 4A 2C D0 0E  ..aJ....,...J,..
0800: 01 F0 FF FF 7F 6F 76 F0  FF FF 7F 6F 76 2C D0 0E  .....ov....ov,..
0810: 01 4E 00 2C D0 0E 01 80  2C D0 0E 01 92 01 2C D0  .N.,....,.....,.
0820: 0E 01 45 24 80 F8 FF FF  7F F8 FF FF 7F 73 30 30  ..E$.........s00
0830: 35 00 80 45 02 80 F8 FF  FF 7F F8 FF FF 7F 66 64  5..E..........fd
0840: 69 31 00 80 29 08 2C D0  0E 01 1F 2B 2C D0 0E 01  i1..).,....+,...
0850: 2E 80 23 2B 2C D0 0E 01  2F 80 23 29 08 2C D0 0E  ..#+,.../.#).,..
0860: 01 20 52 24 80 F8 FF FF  7F F8 FF FF 7F 73 30 30  . R$.........s00
0870: 35 02 09 10 0E 80 00 8D  08 45 24 80 F8 FF FF 7F  5........E$.....
0880: F8 FF FF 7F 73 30 30 36  00 80 01 BA 08 02 09 10  ....s006........
0890: 0F 80 00 A9 08 45 24 80  F8 FF FF 7F F8 FF FF 7F  .....E$.........
08A0: 73 30 30 36 00 80 01 BA  08 45 24 80 F8 FF FF 7F  s006.....E$.....
08B0: F8 FF FF 7F 73 30 30 34  00 80 29 08 2C D0 0E 01  ....s004..).,...
08C0: 21 2B 2C D0 0E 01 30 80  23 29 08 2C D0 0E 01 22  !+,...0.#).,..."
08D0: 2B 2C D0 0E 01 31 80 23  29 08 2C D0 0E 01 1D 2B  +,...1.#).,....+
08E0: 2C D0 0E 01 32 80 23 29  08 2C D0 0E 01 1E 02 09  ,...2.#).,......
08F0: 10 0E 80 00 08 09 52 24  80 F8 FF FF 7F F8 FF FF  ......R$........
0900: 7F 73 30 30 36 01 31 09  02 09 10 0F 80 00 22 09  .s006.1.......".
0910: 52 24 80 F8 FF FF 7F F8  FF FF 7F 73 30 30 36 01  R$.........s006.
0920: 31 09 52 24 80 F8 FF FF  7F F8 FF FF 7F 73 30 30  1.R$.........s00
0930: 34 24 33 80 00 80 00 80  25 02 00 10 00 80 00 73  4$3.....%......s
0940: 09 03 01 10 12 80 45 02  80 F0 FF FF 7F F0 FF FF  ......E.........
0950: 7F 6F 76 6C 31 00 80 45  24 80 F8 FF FF 7F F8 FF  .ovl1..E$.......
0960: FF 7F 73 30 30 35 00 80  2B 2C D0 0E 01 34 80 23  ..s005..+,...4.#
0970: 01 83 09 02 00 10 12 80  00 83 09 03 01 10 21 80  ..............!.
0980: 01 83 09 45 02 80 F0 FF  FF 7F F0 FF FF 7F 66 64  ...E..........fd
0990: 6F 31 00 80 1C 03 80 52  24 80 F8 FF FF 7F F8 FF  o1.....R$.......
09A0: FF 7F 73 30 30 35 4E 00  F0 FF FF 7F 80 F0 FF FF  ..s005N.........
09B0: 7F 46 00 45 02 80 F0 FF  FF 7F F0 FF FF 7F 66 64  .F.E..........fd
09C0: 69 31 00 80 20 00 21 00                           i1.. .!.        
```

#### Opcodes

```
  0: 0x07BC [0x20] SET_CLI_EVENT_UC_FLAG: Lock player control
  1: 0x07BE [0x42] SET_CLI_EVENT_CANCEL_DATA()
  2: 0x07BF [0x46] CAMERA_CONTROL: Disable user control
  3: 0x07C1 [0x45] LOAD_SCHEDULED_TASK: Load scheduler "fdo1" with entities [EventEntity, EventEntity], work=[200*, 0*]
  4: 0x07D2 [0x1C] WAIT(60* ticks)
  5: 0x07D5 [0x38] SET_CLIENT_EVENT_MODE(mode=19*)
  6: 0x07D8 [0x29] REQ_SET_WAIT(priority=0x08, entity_id=LocalPlayer, tag_num=0x5D)
  7: 0x07DF [0x75] LOAD_ROOM(Load indoor room, room=300*)
  8: 0x07E3 [0x75] LOAD_ROOM(No action)
  9: 0x07E5 [0x29] REQ_SET_WAIT(priority=0x0B, entity_id=Raibaht (ID: 17748012/0x010ED02C), tag_num=0x39)
 10: 0x07EC [0x29] REQ_SET_WAIT(priority=0x0B, entity_id=LocalPlayer, tag_num=0x61)
 11: 0x07F3 [0x4A] LocalPlayer looks at Raibaht (ID: 17748012/0x010ED02C)
 12: 0x07FC [0x4A] Raibaht (ID: 17748012/0x010ED02C) looks at LocalPlayer
 13: 0x0805 [0x6F] WAIT_FRAME_DELAY: Yield until WaitTime reaches zero
 14: 0x0806 [0x76] CHECK_ENTITY_RENDER_FLAGS: Wait until LocalPlayer Render.Flags0 and Render.Flags3 conditions are met
 15: 0x080B [0x6F] WAIT_FRAME_DELAY: Yield until WaitTime reaches zero
 16: 0x080C [0x76] CHECK_ENTITY_RENDER_FLAGS: Wait until Raibaht (ID: 17748012/0x010ED02C) Render.Flags0 and Render.Flags3 conditions are met
 17: 0x0811 [0x4E] SET_ENTITY_HIDE_FLAG: Show Raibaht (ID: 17748012/0x010ED02C)
 18: 0x0817 [0x80] LOAD_WAIT(entity=Raibaht (ID: 17748012/0x010ED02C))
 19: 0x081C [0x92] Raibaht (ID: 17748012/0x010ED02C)->Render.Flags3 ^= 0x01
 20: 0x0822 [0x45] LOAD_SCHEDULED_TASK: Load scheduler "s005" with entities [EventEntity, EventEntity], work=[25*, 0*]
 21: 0x0833 [0x45] LOAD_SCHEDULED_TASK: Load scheduler "fdi1" with entities [EventEntity, EventEntity], work=[200*, 0*]
 22: 0x0844 [0x29] REQ_SET_WAIT(priority=0x08, entity_id=Raibaht (ID: 17748012/0x010ED02C), tag_num=0x1F)
 23: 0x084B [0x2B] Raibaht (ID: 17748012/0x010ED02C) [9944*]:
    → "... We have a slight problem... The chief asked an adventurer to bring him a highly advanced altimeter from Jeuno."
 24: 0x0852 [0x23] WAIT_FOR_DIALOG_INTERACTION
 25: 0x0853 [0x2B] Raibaht (ID: 17748012/0x010ED02C) [9945*]:
    → "However, while the adventurer was traveling through the Duchy, he was stopped and arrested for attempting to transport the restricted item."
 26: 0x085A [0x23] WAIT_FOR_DIALOG_INTERACTION
 27: 0x085B [0x29] REQ_SET_WAIT(priority=0x08, entity_id=Raibaht (ID: 17748012/0x010ED02C), tag_num=0x20)
 28: 0x0862 [0x52] END_LOAD_SCHEDULER: End scheduler "s005" with entities [EventEntity, EventEntity], work=25*
 29: 0x0871 [0x02] IF !(Work_Zone[9] == 5*) GOTO 0x088D
 30: 0x0879 [0x45] LOAD_SCHEDULED_TASK: Load scheduler "s006" with entities [EventEntity, EventEntity], work=[25*, 0*]
 31: 0x088A [0x01] GOTO 0x08BA
 32: 0x088D [0x02] IF !(Work_Zone[9] == 6*) GOTO 0x08A9
 33: 0x0895 [0x45] LOAD_SCHEDULED_TASK: Load scheduler "s006" with entities [EventEntity, EventEntity], work=[25*, 0*]
 34: 0x08A6 [0x01] GOTO 0x08BA
 35: 0x08A9 [0x45] LOAD_SCHEDULED_TASK: Load scheduler "s004" with entities [EventEntity, EventEntity], work=[25*, 0*]

SUBROUTINE_08BA:
 36: 0x08BA [0x29] REQ_SET_WAIT(priority=0x08, entity_id=Raibaht (ID: 17748012/0x010ED02C), tag_num=0x21)
 37: 0x08C1 [0x2B] Raibaht (ID: 17748012/0x010ED02C) [9946*]:
    → "While the adventurer was able to hide the $3 before he was taken into custody, he has been ordered to defeat an unknown beast in Delkfutt's Tower before he can return home."
 38: 0x08C8 [0x23] WAIT_FOR_DIALOG_INTERACTION
 39: 0x08C9 [0x29] REQ_SET_WAIT(priority=0x08, entity_id=Raibaht (ID: 17748012/0x010ED02C), tag_num=0x22)
 40: 0x08D0 [0x2B] Raibaht (ID: 17748012/0x010ED02C) [9947*]:
    → "We do not have the time to wait for him, and that is why we need your assistance again. Would you travel to Delkfutt's Tower, ask the adventurer where he hid the $3, then find it and bring it back here?"
 41: 0x08D7 [0x23] WAIT_FOR_DIALOG_INTERACTION
 42: 0x08D8 [0x29] REQ_SET_WAIT(priority=0x08, entity_id=Raibaht (ID: 17748012/0x010ED02C), tag_num=0x1D)
 43: 0x08DF [0x2B] Raibaht (ID: 17748012/0x010ED02C) [9948*]:
    → "You may use this $3. If you put the $3 in it, the Ducal Guard and the customs officials at the air travel agency should not find the item."
 44: 0x08E6 [0x23] WAIT_FOR_DIALOG_INTERACTION
 45: 0x08E7 [0x29] REQ_SET_WAIT(priority=0x08, entity_id=Raibaht (ID: 17748012/0x010ED02C), tag_num=0x1E)
 46: 0x08EE [0x02] IF !(Work_Zone[9] == 5*) GOTO 0x0908
 47: 0x08F6 [0x52] END_LOAD_SCHEDULER: End scheduler "s006" with entities [EventEntity, EventEntity], work=25*
 48: 0x0905 [0x01] GOTO 0x0931
 49: 0x0908 [0x02] IF !(Work_Zone[9] == 6*) GOTO 0x0922
 50: 0x0910 [0x52] END_LOAD_SCHEDULER: End scheduler "s006" with entities [EventEntity, EventEntity], work=25*
 51: 0x091F [0x01] GOTO 0x0931
 52: 0x0922 [0x52] END_LOAD_SCHEDULER: End scheduler "s004" with entities [EventEntity, EventEntity], work=25*

SUBROUTINE_0931:
 53: 0x0931 [0x24] CREATE_DIALOG(message_id=9949*, default_option=0*, option_flags=0*)
    → "Accept the job? [Yes./No.]"
 54: 0x0938 [0x25] WAIT_DIALOG_SELECT()
 55: 0x0939 [0x02] IF !(Work_Zone[0] == 0*) GOTO 0x0973
 56: 0x0941 [0x03] Work_Zone[1] = 1*
 57: 0x0946 [0x45] LOAD_SCHEDULED_TASK: Load scheduler "ovl1" with entities [LocalPlayer, LocalPlayer], work=[200*, 0*]
 58: 0x0957 [0x45] LOAD_SCHEDULED_TASK: Load scheduler "s005" with entities [EventEntity, EventEntity], work=[25*, 0*]
 59: 0x0968 [0x2B] Raibaht (ID: 17748012/0x010ED02C) [9950*]:
    → "The adventurer we seek has been ordered to defeat a monster known as Orna. Find the monster...and you will find him."
 60: 0x096F [0x23] WAIT_FOR_DIALOG_INTERACTION
 61: 0x0970 [0x01] GOTO 0x0983
 62: 0x0973 [0x02] IF !(Work_Zone[0] == 1*) GOTO 0x0983
 63: 0x097B [0x03] Work_Zone[1] = 2*
 64: 0x0980 [0x01] GOTO 0x0983

SUBROUTINE_0983:
 65: 0x0983 [0x45] LOAD_SCHEDULED_TASK: Load scheduler "fdo1" with entities [LocalPlayer, LocalPlayer], work=[200*, 0*]
 66: 0x0994 [0x1C] WAIT(60* ticks)
 67: 0x0997 [0x52] END_LOAD_SCHEDULER: End scheduler "s005" with entities [EventEntity, EventEntity], work=25*
 68: 0x09A6 [0x4E] SET_ENTITY_HIDE_FLAG: Show LocalPlayer
 69: 0x09AC [0x80] LOAD_WAIT(entity=LocalPlayer)
 70: 0x09B1 [0x46] CAMERA_CONTROL: Restore default settings
 71: 0x09B3 [0x45] LOAD_SCHEDULED_TASK: Load scheduler "fdi1" with entities [LocalPlayer, LocalPlayer], work=[200*, 0*]
 72: 0x09C4 [0x20] SET_CLI_EVENT_UC_FLAG: Unlock player control
 73: 0x09C6 [0x21] END_EVENT
 74: 0x09C7 [0x00] END_REQSTACK()
```

### Event 868

#### Metadata

| Field        | Value     |
|--------------|-----------|
| Entrypoint   | 0x09C8    |
| Data Size    | 459 bytes |
| Instructions | 69        |

```
      00 01 02 03 04 05 06 07  08 09 0A 0B 0C 0D 0E 0F
      -- -- -- -- -- -- -- --  -- -- -- -- -- -- -- --
09C0:                          20 01 42 46 01 45 02 80           .BF.E..
09D0: F8 FF FF 7F F8 FF FF 7F  66 64 6F 31 00 80 1C 03  ........fdo1....
09E0: 80 38 2D 80 29 08 F0 FF  FF 7F 5D 75 00 23 80 75  .8-.).....]u.#.u
09F0: 01 29 0B 2C D0 0E 01 39  29 0B F0 FF FF 7F 61 4A  .).,...9).....aJ
0A00: F0 FF FF 7F 2C D0 0E 01  4A 2C D0 0E 01 F0 FF FF  ....,...J,......
0A10: 7F 6F 76 F0 FF FF 7F 6F  76 2C D0 0E 01 4E 00 2C  .ov....ov,...N.,
0A20: D0 0E 01 80 2C D0 0E 01  92 01 2C D0 0E 01 92 01  ....,.....,.....
0A30: 2B D0 0E 01 45 24 80 F8  FF FF 7F F8 FF FF 7F 73  +...E$.........s
0A40: 30 30 35 00 80 45 02 80  F8 FF FF 7F F8 FF FF 7F  005..E..........
0A50: 66 64 69 31 00 80 7B 2C  D0 0E 01 2B 2C D0 0E 01  fdi1..{,...+,...
0A60: 35 80 23 2B 2C D0 0E 01  36 80 23 52 24 80 F8 FF  5.#+,...6.#R$...
0A70: FF 7F F8 FF FF 7F 73 30  30 35 45 24 80 F8 FF FF  ......s005E$....
0A80: 7F F8 FF FF 7F 73 30 30  37 00 80 4A 2C D0 0E 01  .....s007..J,...
0A90: 2B D0 0E 01 79 00 F0 FF  FF 7F 2B D0 0E 01 2B 2C  +...y.....+...+,
0AA0: D0 0E 01 37 80 23 6F 76  2C D0 0E 01 2B 2C D0 0E  ...7.#ov,...+,..
0AB0: 01 38 80 23 52 24 80 F8  FF FF 7F F8 FF FF 7F 73  .8.#R$.........s
0AC0: 30 30 37 45 24 80 F8 FF  FF 7F F8 FF FF 7F 73 30  007E$.........s0
0AD0: 30 38 00 80 79 00 F0 FF  FF 7F 2C D0 0E 01 4A 2C  08..y.....,...J,
0AE0: D0 0E 01 F0 FF FF 7F 6F  76 2C D0 0E 01 29 08 2C  .......ov,...).,
0AF0: D0 0E 01 1B 2B 2C D0 0E  01 39 80 23 2B 2C D0 0E  ....+,...9.#+,..
0B00: 01 3A 80 23 29 08 2C D0  0E 01 1C 52 24 80 F8 FF  .:.#).,....R$...
0B10: FF 7F F8 FF FF 7F 73 30  30 38 45 24 80 F8 FF FF  ......s008E$....
0B20: 7F F8 FF FF 7F 73 30 30  35 00 80 7B 2C D0 0E 01  .....s005..{,...
0B30: 29 08 2C D0 0E 01 1F 2B  2C D0 0E 01 3B 80 23 2B  ).,....+,...;.#+
0B40: 2C D0 0E 01 3C 80 23 29  08 2C D0 0E 01 20 45 02  ,...<.#).,... E.
0B50: 80 F0 FF FF 7F F0 FF FF  7F 66 64 6F 31 00 80 1C  .........fdo1...
0B60: 03 80 52 24 80 F8 FF FF  7F F8 FF FF 7F 73 30 30  ..R$.........s00
0B70: 35 4E 00 F0 FF FF 7F 80  F0 FF FF 7F 46 00 45 02  5N..........F.E.
0B80: 80 F0 FF FF 7F F0 FF FF  7F 66 64 69 31 00 80 20  .........fdi1.. 
0B90: 00 21 00                                          .!.             
```

#### Opcodes

```
  0: 0x09C8 [0x20] SET_CLI_EVENT_UC_FLAG: Lock player control
  1: 0x09CA [0x42] SET_CLI_EVENT_CANCEL_DATA()
  2: 0x09CB [0x46] CAMERA_CONTROL: Disable user control
  3: 0x09CD [0x45] LOAD_SCHEDULED_TASK: Load scheduler "fdo1" with entities [EventEntity, EventEntity], work=[200*, 0*]
  4: 0x09DE [0x1C] WAIT(60* ticks)
  5: 0x09E1 [0x38] SET_CLIENT_EVENT_MODE(mode=19*)
  6: 0x09E4 [0x29] REQ_SET_WAIT(priority=0x08, entity_id=LocalPlayer, tag_num=0x5D)
  7: 0x09EB [0x75] LOAD_ROOM(Load indoor room, room=300*)
  8: 0x09EF [0x75] LOAD_ROOM(No action)
  9: 0x09F1 [0x29] REQ_SET_WAIT(priority=0x0B, entity_id=Raibaht (ID: 17748012/0x010ED02C), tag_num=0x39)
 10: 0x09F8 [0x29] REQ_SET_WAIT(priority=0x0B, entity_id=LocalPlayer, tag_num=0x61)
 11: 0x09FF [0x4A] LocalPlayer looks at Raibaht (ID: 17748012/0x010ED02C)
 12: 0x0A08 [0x4A] Raibaht (ID: 17748012/0x010ED02C) looks at LocalPlayer
 13: 0x0A11 [0x6F] WAIT_FRAME_DELAY: Yield until WaitTime reaches zero
 14: 0x0A12 [0x76] CHECK_ENTITY_RENDER_FLAGS: Wait until LocalPlayer Render.Flags0 and Render.Flags3 conditions are met
 15: 0x0A17 [0x6F] WAIT_FRAME_DELAY: Yield until WaitTime reaches zero
 16: 0x0A18 [0x76] CHECK_ENTITY_RENDER_FLAGS: Wait until Raibaht (ID: 17748012/0x010ED02C) Render.Flags0 and Render.Flags3 conditions are met
 17: 0x0A1D [0x4E] SET_ENTITY_HIDE_FLAG: Show Raibaht (ID: 17748012/0x010ED02C)
 18: 0x0A23 [0x80] LOAD_WAIT(entity=Raibaht (ID: 17748012/0x010ED02C))
 19: 0x0A28 [0x92] Raibaht (ID: 17748012/0x010ED02C)->Render.Flags3 ^= 0x01
 20: 0x0A2E [0x92] Cid (ID: 17748011/0x010ED02B)->Render.Flags3 ^= 0x01
 21: 0x0A34 [0x45] LOAD_SCHEDULED_TASK: Load scheduler "s005" with entities [EventEntity, EventEntity], work=[25*, 0*]
 22: 0x0A45 [0x45] LOAD_SCHEDULED_TASK: Load scheduler "fdi1" with entities [EventEntity, EventEntity], work=[200*, 0*]
 23: 0x0A56 [0x7B] Raibaht (ID: 17748012/0x010ED02C) stops talking
 24: 0x0A5B [0x2B] Raibaht (ID: 17748012/0x010ED02C) [9955*]:
    → "The chief's theories are flawless. However, there remains one mountain he still must conquer."
 25: 0x0A62 [0x23] WAIT_FOR_DIALOG_INTERACTION
 26: 0x0A63 [0x2B] Raibaht (ID: 17748012/0x010ED02C) [9956*]:
    → "I don't know the details, but the chief has been up day and night trying to solve this final problem."
 27: 0x0A6A [0x23] WAIT_FOR_DIALOG_INTERACTION
 28: 0x0A6B [0x52] END_LOAD_SCHEDULER: End scheduler "s005" with entities [EventEntity, EventEntity], work=25*
 29: 0x0A7A [0x45] LOAD_SCHEDULED_TASK: Load scheduler "s007" with entities [EventEntity, EventEntity], work=[25*, 0*]
 30: 0x0A8B [0x4A] Raibaht (ID: 17748012/0x010ED02C) looks at Cid (ID: 17748011/0x010ED02B)
 31: 0x0A94 [0x79] LocalPlayer looks at Cid (ID: 17748011/0x010ED02B) (Basic look)
 32: 0x0A9E [0x2B] Raibaht (ID: 17748012/0x010ED02C) [9957*]:
    → "Normally at times like these, I would not bother him..."
 33: 0x0AA5 [0x23] WAIT_FOR_DIALOG_INTERACTION
 34: 0x0AA6 [0x6F] WAIT_FRAME_DELAY: Yield until WaitTime reaches zero
 35: 0x0AA7 [0x76] CHECK_ENTITY_RENDER_FLAGS: Wait until Raibaht (ID: 17748012/0x010ED02C) Render.Flags0 and Render.Flags3 conditions are met
 36: 0x0AAC [0x2B] Raibaht (ID: 17748012/0x010ED02C) [9958*]:
    → "But I fear that this may be too difficult for the chief to handle on his own. Even Lady Cornelia has begun to worry about her father's long-time friend."
 37: 0x0AB3 [0x23] WAIT_FOR_DIALOG_INTERACTION
 38: 0x0AB4 [0x52] END_LOAD_SCHEDULER: End scheduler "s007" with entities [EventEntity, EventEntity], work=25*
 39: 0x0AC3 [0x45] LOAD_SCHEDULED_TASK: Load scheduler "s008" with entities [EventEntity, EventEntity], work=[25*, 0*]
 40: 0x0AD4 [0x79] LocalPlayer looks at Raibaht (ID: 17748012/0x010ED02C) (Basic look)
 41: 0x0ADE [0x4A] Raibaht (ID: 17748012/0x010ED02C) looks at LocalPlayer
 42: 0x0AE7 [0x6F] WAIT_FRAME_DELAY: Yield until WaitTime reaches zero
 43: 0x0AE8 [0x76] CHECK_ENTITY_RENDER_FLAGS: Wait until Raibaht (ID: 17748012/0x010ED02C) Render.Flags0 and Render.Flags3 conditions are met
 44: 0x0AED [0x29] REQ_SET_WAIT(priority=0x08, entity_id=Raibaht (ID: 17748012/0x010ED02C), tag_num=0x1B)
 45: 0x0AF4 [0x2B] Raibaht (ID: 17748012/0x010ED02C) [9959*]:
    → "After watching the chief for the past few weeks, I think I came to realize what was troubling him."
 46: 0x0AFB [0x23] WAIT_FOR_DIALOG_INTERACTION
 47: 0x0AFC [0x2B] Raibaht (ID: 17748012/0x010ED02C) [9960*]:
    → "Until recently, Chief Cid had been working on what he called a "semiperpetual motion engine." However, after months of making little or no progress, he finally gave up on the idea."
 48: 0x0B03 [0x23] WAIT_FOR_DIALOG_INTERACTION
 49: 0x0B04 [0x29] REQ_SET_WAIT(priority=0x08, entity_id=Raibaht (ID: 17748012/0x010ED02C), tag_num=0x1C)
 50: 0x0B0B [0x52] END_LOAD_SCHEDULER: End scheduler "s008" with entities [EventEntity, EventEntity], work=25*
 51: 0x0B1A [0x45] LOAD_SCHEDULED_TASK: Load scheduler "s005" with entities [EventEntity, EventEntity], work=[25*, 0*]
 52: 0x0B2B [0x7B] Raibaht (ID: 17748012/0x010ED02C) stops talking
 53: 0x0B30 [0x29] REQ_SET_WAIT(priority=0x08, entity_id=Raibaht (ID: 17748012/0x010ED02C), tag_num=0x1F)
 54: 0x0B37 [0x2B] Raibaht (ID: 17748012/0x010ED02C) [9961*]:
    → "If he were only able to acquire the $1 that had been used in previous semiperpetual motion experiments..."
 55: 0x0B3E [0x23] WAIT_FOR_DIALOG_INTERACTION
 56: 0x0B3F [0x2B] Raibaht (ID: 17748012/0x010ED02C) [9962*]:
    → "It is said that the ancients were able to process the material and harness its hidden power, but since then, no one has succeeded in reproducing those results."
 57: 0x0B46 [0x23] WAIT_FOR_DIALOG_INTERACTION
 58: 0x0B47 [0x29] REQ_SET_WAIT(priority=0x08, entity_id=Raibaht (ID: 17748012/0x010ED02C), tag_num=0x20)
 59: 0x0B4E [0x45] LOAD_SCHEDULED_TASK: Load scheduler "fdo1" with entities [LocalPlayer, LocalPlayer], work=[200*, 0*]
 60: 0x0B5F [0x1C] WAIT(60* ticks)
 61: 0x0B62 [0x52] END_LOAD_SCHEDULER: End scheduler "s005" with entities [EventEntity, EventEntity], work=25*
 62: 0x0B71 [0x4E] SET_ENTITY_HIDE_FLAG: Show LocalPlayer
 63: 0x0B77 [0x80] LOAD_WAIT(entity=LocalPlayer)
 64: 0x0B7C [0x46] CAMERA_CONTROL: Restore default settings
 65: 0x0B7E [0x45] LOAD_SCHEDULED_TASK: Load scheduler "fdi1" with entities [LocalPlayer, LocalPlayer], work=[200*, 0*]
 66: 0x0B8F [0x20] SET_CLI_EVENT_UC_FLAG: Unlock player control
 67: 0x0B91 [0x21] END_EVENT
 68: 0x0B92 [0x00] END_REQSTACK()
```

### Event 869

#### Metadata

| Field        | Value      |
|--------------|------------|
| Entrypoint   | 0x0B93     |
| Data Size    | 2754 bytes |
| Instructions | 432        |

```
      00 01 02 03 04 05 06 07  08 09 0A 0B 0C 0D 0E 0F
      -- -- -- -- -- -- -- --  -- -- -- -- -- -- -- --
0B90:          20 01 42 46 01  5D 00 80 01 80 45 02 80      .BF.]....E..
0BA0: F8 FF FF 7F F8 FF FF 7F  66 64 6F 31 00 80 1C 01  ........fdo1....
0BB0: 80 38 2D 80 29 08 F0 FF  FF 7F 5D 75 00 23 80 75  .8-.).....]u.#.u
0BC0: 01 29 0B 2C D0 0E 01 39  29 0B F0 FF FF 7F 61 4A  .).,...9).....aJ
0BD0: F0 FF FF 7F 2C D0 0E 01  4A 2C D0 0E 01 F0 FF FF  ....,...J,......
0BE0: 7F 6F 76 F0 FF FF 7F 6F  76 2C D0 0E 01 4E 00 2C  .ov....ov,...N.,
0BF0: D0 0E 01 80 2C D0 0E 01  92 01 2C D0 0E 01 92 01  ....,.....,.....
0C00: 2B D0 0E 01 02 09 10 0E  80 00 20 0C 45 24 80 F8  +......... .E$..
0C10: FF FF 7F F8 FF FF 7F 73  30 30 36 00 80 01 4D 0C  .......s006...M.
0C20: 02 09 10 0F 80 00 3C 0C  45 24 80 F8 FF FF 7F F8  ......<.E$......
0C30: FF FF 7F 73 30 30 36 00  80 01 4D 0C 45 24 80 F8  ...s006...M.E$..
0C40: FF FF 7F F8 FF FF 7F 73  30 30 34 00 80 45 02 80  .......s004..E..
0C50: F8 FF FF 7F F8 FF FF 7F  66 64 69 31 00 80 29 08  ........fdi1..).
0C60: 2C D0 0E 01 1B 2B 2C D0  0E 01 3D 80 23 2B 2C D0  ,....+,...=.#+,.
0C70: 0E 01 3E 80 23 29 08 2C  D0 0E 01 1C 45 02 80 F8  ..>.#).,....E...
0C80: FF FF 7F F8 FF FF 7F 66  64 6F 31 00 80 1C 03 80  .......fdo1.....
0C90: 02 09 10 0E 80 00 AA 0C  52 24 80 F8 FF FF 7F F8  ........R$......
0CA0: FF FF 7F 73 30 30 36 01  D3 0C 02 09 10 0F 80 00  ...s006.........
0CB0: C4 0C 52 24 80 F8 FF FF  7F F8 FF FF 7F 73 30 30  ..R$.........s00
0CC0: 36 01 D3 0C 52 24 80 F8  FF FF 7F F8 FF FF 7F 73  6...R$.........s
0CD0: 30 30 34 29 08 2B D0 0E  01 5A 29 08 2B D0 0E 01  004).+...Z).+...
0CE0: 5B 5C 00 3F 80 5C 01 3F  80 29 0B F0 FF FF 7F 62  [\.?.\.?.).....b
0CF0: 29 0B 2C D0 0E 01 42 79  00 F0 FF FF 7F 2B D0 0E  ).,...By.....+..
0D00: 01 27 0B 2C D0 0E 01 43  27 0B F0 FF FF 7F 63 1C  .'.,...C'.....c.
0D10: 0E 80 45 24 80 F8 FF FF  7F F8 FF FF 7F 73 30 30  ..E$.........s00
0D20: 39 00 80 45 02 80 F8 FF  FF 7F F8 FF FF 7F 66 64  9..E..........fd
0D30: 69 31 00 80 27 0B 2B D0  0E 01 76 2A 0B 2C D0 0E  i1..'.+...v*.,..
0D40: 01 29 08 2C D0 0E 01 1D  2B 2C D0 0E 01 40 80 23  .).,....+,...@.#
0D50: 29 08 2C D0 0E 01 1E 2A  0B 2B D0 0E 01 52 24 80  ).,....*.+...R$.
0D60: F8 FF FF 7F F8 FF FF 7F  73 30 30 39 45 24 80 F8  ........s009E$..
0D70: FF FF 7F F8 FF FF 7F 73  30 31 30 00 80 29 08 2B  .......s010..).+
0D80: D0 0E 01 70 2B 2B D0 0E  01 41 80 23 2B 2B D0 0E  ...p++...A.#++..
0D90: 01 42 80 23 29 08 2B D0  0E 01 71 52 24 80 F8 FF  .B.#).+...qR$...
0DA0: FF 7F F8 FF FF 7F 73 30  31 30 02 09 10 04 80 00  ......s010......
0DB0: C6 0D 45 24 80 F8 FF FF  7F F8 FF FF 7F 73 30 31  ..E$.........s01
0DC0: 39 00 80 01 2B 0E 02 09  10 0E 80 00 E2 0D 45 24  9...+.........E$
0DD0: 80 F8 FF FF 7F F8 FF FF  7F 73 30 31 37 00 80 01  .........s017...
0DE0: 2B 0E 02 09 10 0F 80 00  FE 0D 45 24 80 F8 FF FF  +.........E$....
0DF0: 7F F8 FF FF 7F 73 30 31  37 00 80 01 2B 0E 02 09  .....s017...+...
0E00: 10 15 80 00 1A 0E 45 24  80 F8 FF FF 7F F8 FF FF  ......E$........
0E10: 7F 73 30 31 39 00 80 01  2B 0E 45 24 80 F8 FF FF  .s019...+.E$....
0E20: 7F F8 FF FF 7F 73 30 31  31 00 80 29 08 2B D0 0E  .....s011..).+..
0E30: 01 72 79 00 F0 FF FF 7F  2C D0 0E 01 79 00 2C D0  .ry.....,...y.,.
0E40: 0E 01 F0 FF FF 7F 4B 2C  D0 0E 01 43 80 6F 76 2C  ......K,...C.ov,
0E50: D0 0E 01 2B 2C D0 0E 01  44 80 23 2B 2C D0 0E 01  ...+,...D.#+,...
0E60: 45 80 23 29 08 2B D0 0E  01 73 02 09 10 04 80 00  E.#).+...s......
0E70: 84 0E 52 24 80 F8 FF FF  7F F8 FF FF 7F 73 30 31  ..R$.........s01
0E80: 39 01 E1 0E 02 09 10 0E  80 00 9E 0E 52 24 80 F8  9...........R$..
0E90: FF FF 7F F8 FF FF 7F 73  30 31 37 01 E1 0E 02 09  .......s017.....
0EA0: 10 0F 80 00 B8 0E 52 24  80 F8 FF FF 7F F8 FF FF  ......R$........
0EB0: 7F 73 30 31 37 01 E1 0E  02 09 10 15 80 00 D2 0E  .s017...........
0EC0: 52 24 80 F8 FF FF 7F F8  FF FF 7F 73 30 31 39 01  R$.........s019.
0ED0: E1 0E 52 24 80 F8 FF FF  7F F8 FF FF 7F 73 30 31  ..R$.........s01
0EE0: 31 45 24 80 F8 FF FF 7F  F8 FF FF 7F 73 30 31 32  1E$.........s012
0EF0: 00 80 79 00 F0 FF FF 7F  2B D0 0E 01 79 00 2C D0  ..y.....+...y.,.
0F00: 0E 01 2B D0 0E 01 29 08  2B D0 0E 01 62 2B 2B D0  ..+...).+...b++.
0F10: 0E 01 46 80 23 29 08 2B  D0 0E 01 63 29 08 2B D0  ..F.#).+...c).+.
0F20: 0E 01 5A 2B 2B D0 0E 01  47 80 23 29 08 2B D0 0E  ..Z++...G.#).+..
0F30: 01 5B 4A 2C D0 0E 01 2B  D0 0E 01 6F 76 2C D0 0E  .[J,...+...ov,..
0F40: 01 29 08 2B D0 0E 01 5C  29 08 2B D0 0E 01 6E 2B  .).+...\).+...n+
0F50: 2C D0 0E 01 48 80 23 29  08 2B D0 0E 01 6F 29 08  ,...H.#).+...o).
0F60: 2B D0 0E 01 5D 52 24 80  F8 FF FF 7F F8 FF FF 7F  +...]R$.........
0F70: 73 30 31 32 45 24 80 F8  FF FF 7F F8 FF FF 7F 73  s012E$.........s
0F80: 30 31 33 00 80 29 08 2B  D0 0E 01 52 2B 2B D0 0E  013..).+...R++..
0F90: 01 49 80 23 29 08 2B D0  0E 01 53 02 07 10 00 80  .I.#).+...S.....
0FA0: 00 BC 0F 29 08 2B D0 0E  01 54 2B 2B D0 0E 01 4A  ...).+...T++...J
0FB0: 80 23 29 08 2B D0 0E 01  55 01 D2 0F 29 08 2B D0  .#).+...U...).+.
0FC0: 0E 01 54 2B 2B D0 0E 01  4B 80 23 29 08 2B D0 0E  ..T++...K.#).+..
0FD0: 01 55 52 24 80 F8 FF FF  7F F8 FF FF 7F 73 30 31  .UR$.........s01
0FE0: 33 02 09 10 0E 80 00 FD  0F 45 24 80 F8 FF FF 7F  3........E$.....
0FF0: F8 FF FF 7F 73 30 31 38  00 80 01 2A 10 02 09 10  ....s018...*....
1000: 0F 80 00 19 10 45 24 80  F8 FF FF 7F F8 FF FF 7F  .....E$.........
1010: 73 30 31 38 00 80 01 2A  10 45 24 80 F8 FF FF 7F  s018...*.E$.....
1020: F8 FF FF 7F 73 30 31 34  00 80 79 00 2C D0 0E 01  ....s014..y.,...
1030: F0 FF FF 7F 79 00 F0 FF  FF 7F 2C D0 0E 01 4B 2C  ....y.....,...K,
1040: D0 0E 01 43 80 6F 76 2C  D0 0E 01 79 00 2B D0 0E  ...C.ov,...y.+..
1050: 01 F0 FF FF 7F 1C 4C 80  79 00 F0 FF FF 7F 2B D0  ......L.y.....+.
1060: 0E 01 79 00 2C D0 0E 01  2B D0 0E 01 27 0B 2B D0  ..y.,...+...'.+.
1070: 0E 01 77 2B 2B D0 0E 01  4D 80 23 2A 0B 2B D0 0E  ..w++...M.#*.+..
1080: 01 29 08 2B D0 0E 01 56  2B 2B D0 0E 01 4E 80 23  .).+...V++...N.#
1090: 45 02 80 F0 FF FF 7F F0  FF FF 7F 66 64 6F 31 00  E..........fdo1.
10A0: 80 1C 03 80 02 09 10 0E  80 00 BE 10 52 24 80 F8  ............R$..
10B0: FF FF 7F F8 FF FF 7F 73  30 31 38 01 E7 10 02 09  .......s018.....
10C0: 10 0F 80 00 D8 10 52 24  80 F8 FF FF 7F F8 FF FF  ......R$........
10D0: 7F 73 30 31 38 01 E7 10  52 24 80 F8 FF FF 7F F8  .s018...R$......
10E0: FF FF 7F 73 30 31 34 2B  2B D0 0E 01 4F 80 23 29  ...s014++...O.#)
10F0: 08 2B D0 0E 01 57 24 50  80 00 80 00 80 25 02 00  .+...W$P.....%..
1100: 10 00 80 00 0E 11 03 01  10 00 80 01 5E 12 02 00  ............^...
1110: 10 12 80 00 1E 11 03 01  10 12 80 01 5E 12 02 00  ............^...
1120: 10 21 80 00 2E 11 03 01  10 21 80 01 5E 12 02 00  .!.......!..^...
1130: 10 04 80 00 3E 11 03 01  10 04 80 01 5E 12 02 00  ....>.......^...
1140: 10 1F 80 00 4E 11 03 01  10 1F 80 01 5E 12 02 00  ....N.......^...
1150: 10 0E 80 00 5E 11 03 01  10 0E 80 01 5E 12 02 00  ....^.......^...
1160: 10 0F 80 00 6E 11 03 01  10 0F 80 01 5E 12 02 00  ....n.......^...
1170: 10 51 80 00 7E 11 03 01  10 51 80 01 5E 12 02 00  .Q..~....Q..^...
1180: 10 15 80 00 8E 11 03 01  10 15 80 01 5E 12 02 00  ............^...
1190: 10 52 80 00 9E 11 03 01  10 52 80 01 5E 12 02 00  .R.......R..^...
11A0: 10 53 80 00 AE 11 03 01  10 53 80 01 5E 12 02 00  .S.......S..^...
11B0: 10 54 80 00 BE 11 03 01  10 54 80 01 5E 12 02 00  .T.......T..^...
11C0: 10 55 80 00 CE 11 03 01  10 55 80 01 5E 12 02 00  .U.......U..^...
11D0: 10 56 80 00 DE 11 03 01  10 56 80 01 5E 12 02 00  .V.......V..^...
11E0: 10 57 80 00 EE 11 03 01  10 57 80 01 5E 12 02 00  .W.......W..^...
11F0: 10 58 80 00 FE 11 03 01  10 58 80 01 5E 12 02 00  .X.......X..^...
1200: 10 59 80 00 0E 12 03 01  10 59 80 01 5E 12 02 00  .Y.......Y..^...
1210: 10 5A 80 00 1E 12 03 01  10 5A 80 01 5E 12 02 00  .Z.......Z..^...
1220: 10 5B 80 00 2E 12 03 01  10 5B 80 01 5E 12 02 00  .[.......[..^...
1230: 10 2D 80 00 3E 12 03 01  10 2D 80 01 5E 12 02 00  .-..>....-..^...
1240: 10 5C 80 00 4E 12 03 01  10 5C 80 01 5E 12 02 00  .\..N....\..^...
1250: 10 5D 80 00 5E 12 03 01  10 5D 80 01 5E 12 02 08  .]..^....]..^...
1260: 10 00 80 00 6F 12 07 01  10 4C 80 43 00 43 01 24  ....o....L.C.C.$
1270: 5E 80 00 80 00 80 25 02  00 10 00 80 00 87 12 03  ^.....%.........
1280: 01 10 00 80 01 D7 13 02  00 10 12 80 00 97 12 03  ................
1290: 01 10 12 80 01 D7 13 02  00 10 21 80 00 A7 12 03  ..........!.....
12A0: 01 10 21 80 01 D7 13 02  00 10 04 80 00 B7 12 03  ..!.............
12B0: 01 10 04 80 01 D7 13 02  00 10 1F 80 00 C7 12 03  ................
12C0: 01 10 1F 80 01 D7 13 02  00 10 0E 80 00 D7 12 03  ................
12D0: 01 10 0E 80 01 D7 13 02  00 10 0F 80 00 E7 12 03  ................
12E0: 01 10 0F 80 01 D7 13 02  00 10 51 80 00 F7 12 03  ..........Q.....
12F0: 01 10 51 80 01 D7 13 02  00 10 15 80 00 07 13 03  ..Q.............
1300: 01 10 15 80 01 D7 13 02  00 10 52 80 00 17 13 03  ..........R.....
1310: 01 10 52 80 01 D7 13 02  00 10 53 80 00 27 13 03  ..R.......S..'..
1320: 01 10 53 80 01 D7 13 02  00 10 54 80 00 37 13 03  ..S.......T..7..
1330: 01 10 54 80 01 D7 13 02  00 10 55 80 00 47 13 03  ..T.......U..G..
1340: 01 10 55 80 01 D7 13 02  00 10 56 80 00 57 13 03  ..U.......V..W..
1350: 01 10 56 80 01 D7 13 02  00 10 57 80 00 67 13 03  ..V.......W..g..
1360: 01 10 57 80 01 D7 13 02  00 10 58 80 00 77 13 03  ..W.......X..w..
1370: 01 10 58 80 01 D7 13 02  00 10 59 80 00 87 13 03  ..X.......Y.....
1380: 01 10 59 80 01 D7 13 02  00 10 5A 80 00 97 13 03  ..Y.......Z.....
1390: 01 10 5A 80 01 D7 13 02  00 10 5B 80 00 A7 13 03  ..Z.......[.....
13A0: 01 10 5B 80 01 D7 13 02  00 10 2D 80 00 B7 13 03  ..[.......-.....
13B0: 01 10 2D 80 01 D7 13 02  00 10 5C 80 00 C7 13 03  ..-.......\.....
13C0: 01 10 5C 80 01 D7 13 02  00 10 5D 80 00 D7 13 03  ..\.......].....
13D0: 01 10 5D 80 01 D7 13 02  08 10 00 80 00 E8 13 07  ..].............
13E0: 01 10 02 80 43 00 43 01  24 5F 80 00 80 00 80 25  ....C.C.$_.....%
13F0: 02 00 10 00 80 00 00 14  03 01 10 00 80 01 50 15  ..............P.
1400: 02 00 10 12 80 00 10 14  03 01 10 12 80 01 50 15  ..............P.
1410: 02 00 10 21 80 00 20 14  03 01 10 21 80 01 50 15  ...!.. ....!..P.
1420: 02 00 10 04 80 00 30 14  03 01 10 04 80 01 50 15  ......0.......P.
1430: 02 00 10 1F 80 00 40 14  03 01 10 1F 80 01 50 15  ......@.......P.
1440: 02 00 10 0E 80 00 50 14  03 01 10 0E 80 01 50 15  ......P.......P.
1450: 02 00 10 0F 80 00 60 14  03 01 10 0F 80 01 50 15  ......`.......P.
1460: 02 00 10 51 80 00 70 14  03 01 10 51 80 01 50 15  ...Q..p....Q..P.
1470: 02 00 10 15 80 00 80 14  03 01 10 15 80 01 50 15  ..............P.
1480: 02 00 10 52 80 00 90 14  03 01 10 52 80 01 50 15  ...R.......R..P.
1490: 02 00 10 53 80 00 A0 14  03 01 10 53 80 01 50 15  ...S.......S..P.
14A0: 02 00 10 54 80 00 B0 14  03 01 10 54 80 01 50 15  ...T.......T..P.
14B0: 02 00 10 55 80 00 C0 14  03 01 10 55 80 01 50 15  ...U.......U..P.
14C0: 02 00 10 56 80 00 D0 14  03 01 10 56 80 01 50 15  ...V.......V..P.
14D0: 02 00 10 57 80 00 E0 14  03 01 10 57 80 01 50 15  ...W.......W..P.
14E0: 02 00 10 58 80 00 F0 14  03 01 10 58 80 01 50 15  ...X.......X..P.
14F0: 02 00 10 59 80 00 00 15  03 01 10 59 80 01 50 15  ...Y.......Y..P.
1500: 02 00 10 5A 80 00 10 15  03 01 10 5A 80 01 50 15  ...Z.......Z..P.
1510: 02 00 10 5B 80 00 20 15  03 01 10 5B 80 01 50 15  ...[.. ....[..P.
1520: 02 00 10 2D 80 00 30 15  03 01 10 2D 80 01 50 15  ...-..0....-..P.
1530: 02 00 10 5C 80 00 40 15  03 01 10 5C 80 01 50 15  ...\..@....\..P.
1540: 02 00 10 5D 80 00 50 15  03 01 10 5D 80 01 50 15  ...]..P....]..P.
1550: 02 08 10 00 80 00 61 15  07 01 10 23 80 43 00 43  ......a....#.C.C
1560: 01 7B 2B D0 0E 01 81 00  2B D0 0E 01 29 08 2B D0  .{+.....+...).+.
1570: 0E 01 5A 29 08 2B D0 0E  01 5B 4A 2C D0 0E 01 2B  ..Z).+...[J,...+
1580: D0 0E 01 6F 76 2C D0 0E  01 45 24 80 F8 FF FF 7F  ...ov,...E$.....
1590: F8 FF FF 7F 73 30 31 35  00 80 45 02 80 F0 FF FF  ....s015..E.....
15A0: 7F F0 FF FF 7F 66 64 69  31 00 80 2B 2B D0 0E 01  .....fdi1..++...
15B0: 60 80 23 52 24 80 F8 FF  FF 7F F8 FF FF 7F 73 30  `.#R$.........s0
15C0: 31 35 45 24 80 F8 FF FF  7F F8 FF FF 7F 73 30 31  15E$.........s01
15D0: 36 00 80 81 01 2B D0 0E  01 79 00 2B D0 0E 01 2C  6....+...y.+...,
15E0: D0 0E 01 29 08 2B D0 0E  01 5C 2B 2B D0 0E 01 61  ...).+...\++...a
15F0: 80 23 29 08 2B D0 0E 01  5D 2B 2C D0 0E 01 62 80  .#).+...]+,...b.
1600: 23 5D 00 80 01 80 45 02  80 F0 FF FF 7F F0 FF FF  #]....E.........
1610: 7F 66 64 6F 31 00 80 1C  01 80 45 63 80 F0 FF FF  .fdo1.....Ec....
1620: 7F F0 FF FF 7F 71 73 74  63 00 80 5C 00 22 80 5C  .....qstc..\.".\
1630: 01 22 80 4E 00 F0 FF FF  7F 80 F0 FF FF 7F 46 00  .".N..........F.
1640: 45 02 80 F0 FF FF 7F F0  FF FF 7F 66 64 69 31 00  E..........fdi1.
1650: 80 20 00 21 00                                    . .!.           
```

#### Opcodes

```
  0: 0x0B93 [0x20] SET_CLI_EVENT_UC_FLAG: Lock player control
  1: 0x0B95 [0x42] SET_CLI_EVENT_CANCEL_DATA()
  2: 0x0B96 [0x46] CAMERA_CONTROL: Disable user control
  3: 0x0B98 [0x5D] SET_MUSIC_VOLUME(volume=0*, fade_time=120*)
  4: 0x0B9D [0x45] LOAD_SCHEDULED_TASK: Load scheduler "fdo1" with entities [EventEntity, EventEntity], work=[200*, 0*]
  5: 0x0BAE [0x1C] WAIT(120* ticks)
  6: 0x0BB1 [0x38] SET_CLIENT_EVENT_MODE(mode=19*)
  7: 0x0BB4 [0x29] REQ_SET_WAIT(priority=0x08, entity_id=LocalPlayer, tag_num=0x5D)
  8: 0x0BBB [0x75] LOAD_ROOM(Load indoor room, room=300*)
  9: 0x0BBF [0x75] LOAD_ROOM(No action)
 10: 0x0BC1 [0x29] REQ_SET_WAIT(priority=0x0B, entity_id=Raibaht (ID: 17748012/0x010ED02C), tag_num=0x39)
 11: 0x0BC8 [0x29] REQ_SET_WAIT(priority=0x0B, entity_id=LocalPlayer, tag_num=0x61)
 12: 0x0BCF [0x4A] LocalPlayer looks at Raibaht (ID: 17748012/0x010ED02C)
 13: 0x0BD8 [0x4A] Raibaht (ID: 17748012/0x010ED02C) looks at LocalPlayer
 14: 0x0BE1 [0x6F] WAIT_FRAME_DELAY: Yield until WaitTime reaches zero
 15: 0x0BE2 [0x76] CHECK_ENTITY_RENDER_FLAGS: Wait until LocalPlayer Render.Flags0 and Render.Flags3 conditions are met
 16: 0x0BE7 [0x6F] WAIT_FRAME_DELAY: Yield until WaitTime reaches zero
 17: 0x0BE8 [0x76] CHECK_ENTITY_RENDER_FLAGS: Wait until Raibaht (ID: 17748012/0x010ED02C) Render.Flags0 and Render.Flags3 conditions are met
 18: 0x0BED [0x4E] SET_ENTITY_HIDE_FLAG: Show Raibaht (ID: 17748012/0x010ED02C)
 19: 0x0BF3 [0x80] LOAD_WAIT(entity=Raibaht (ID: 17748012/0x010ED02C))
 20: 0x0BF8 [0x92] Raibaht (ID: 17748012/0x010ED02C)->Render.Flags3 ^= 0x01
 21: 0x0BFE [0x92] Cid (ID: 17748011/0x010ED02B)->Render.Flags3 ^= 0x01
 22: 0x0C04 [0x02] IF !(Work_Zone[9] == 5*) GOTO 0x0C20
 23: 0x0C0C [0x45] LOAD_SCHEDULED_TASK: Load scheduler "s006" with entities [EventEntity, EventEntity], work=[25*, 0*]
 24: 0x0C1D [0x01] GOTO 0x0C4D
 25: 0x0C20 [0x02] IF !(Work_Zone[9] == 6*) GOTO 0x0C3C
 26: 0x0C28 [0x45] LOAD_SCHEDULED_TASK: Load scheduler "s006" with entities [EventEntity, EventEntity], work=[25*, 0*]
 27: 0x0C39 [0x01] GOTO 0x0C4D
 28: 0x0C3C [0x45] LOAD_SCHEDULED_TASK: Load scheduler "s004" with entities [EventEntity, EventEntity], work=[25*, 0*]

SUBROUTINE_0C4D:
 29: 0x0C4D [0x45] LOAD_SCHEDULED_TASK: Load scheduler "fdi1" with entities [EventEntity, EventEntity], work=[200*, 0*]
 30: 0x0C5E [0x29] REQ_SET_WAIT(priority=0x08, entity_id=Raibaht (ID: 17748012/0x010ED02C), tag_num=0x1B)
 31: 0x0C65 [0x2B] Raibaht (ID: 17748012/0x010ED02C) [9963*]:
    → "This... The $1 of legend! But it cannot be..."
 32: 0x0C6C [0x23] WAIT_FOR_DIALOG_INTERACTION
 33: 0x0C6D [0x2B] Raibaht (ID: 17748012/0x010ED02C) [9964*]:
    → "Let us show it to the chief and see what he has to say."
 34: 0x0C74 [0x23] WAIT_FOR_DIALOG_INTERACTION
 35: 0x0C75 [0x29] REQ_SET_WAIT(priority=0x08, entity_id=Raibaht (ID: 17748012/0x010ED02C), tag_num=0x1C)
 36: 0x0C7C [0x45] LOAD_SCHEDULED_TASK: Load scheduler "fdo1" with entities [EventEntity, EventEntity], work=[200*, 0*]
 37: 0x0C8D [0x1C] WAIT(60* ticks)
 38: 0x0C90 [0x02] IF !(Work_Zone[9] == 5*) GOTO 0x0CAA
 39: 0x0C98 [0x52] END_LOAD_SCHEDULER: End scheduler "s006" with entities [EventEntity, EventEntity], work=25*
 40: 0x0CA7 [0x01] GOTO 0x0CD3
 41: 0x0CAA [0x02] IF !(Work_Zone[9] == 6*) GOTO 0x0CC4
 42: 0x0CB2 [0x52] END_LOAD_SCHEDULER: End scheduler "s006" with entities [EventEntity, EventEntity], work=25*
 43: 0x0CC1 [0x01] GOTO 0x0CD3
 44: 0x0CC4 [0x52] END_LOAD_SCHEDULER: End scheduler "s004" with entities [EventEntity, EventEntity], work=25*

SUBROUTINE_0CD3:
 45: 0x0CD3 [0x29] REQ_SET_WAIT(priority=0x08, entity_id=Cid (ID: 17748011/0x010ED02B), tag_num=0x5A)
 46: 0x0CDA [0x29] REQ_SET_WAIT(priority=0x08, entity_id=Cid (ID: 17748011/0x010ED02B), tag_num=0x5B)
 47: 0x0CE1 [0x5C] MUSIC_CONTROL: Set Idle (Day) music to song 163*
 48: 0x0CE5 [0x5C] MUSIC_CONTROL: Set Idle (Night) music to song 163*
 49: 0x0CE9 [0x29] REQ_SET_WAIT(priority=0x0B, entity_id=LocalPlayer, tag_num=0x62)
 50: 0x0CF0 [0x29] REQ_SET_WAIT(priority=0x0B, entity_id=Raibaht (ID: 17748012/0x010ED02C), tag_num=0x42)
 51: 0x0CF7 [0x79] LocalPlayer looks at Cid (ID: 17748011/0x010ED02B) (Basic look)
 52: 0x0D01 [0x27] REQ_SET(priority=0x0B, entity_id=Raibaht (ID: 17748012/0x010ED02C), tag_num=0x43)
 53: 0x0D08 [0x27] REQ_SET(priority=0x0B, entity_id=LocalPlayer, tag_num=0x63)
 54: 0x0D0F [0x1C] WAIT(5* ticks)
 55: 0x0D12 [0x45] LOAD_SCHEDULED_TASK: Load scheduler "s009" with entities [EventEntity, EventEntity], work=[25*, 0*]
 56: 0x0D23 [0x45] LOAD_SCHEDULED_TASK: Load scheduler "fdi1" with entities [EventEntity, EventEntity], work=[200*, 0*]
 57: 0x0D34 [0x27] REQ_SET(priority=0x0B, entity_id=Cid (ID: 17748011/0x010ED02B), tag_num=0x76)
 58: 0x0D3B [0x2A] GET_REQ_LEVEL(level=11, entity_id=Raibaht (ID: 17748012/0x010ED02C))
 59: 0x0D41 [0x29] REQ_SET_WAIT(priority=0x08, entity_id=Raibaht (ID: 17748012/0x010ED02C), tag_num=0x1D)
 60: 0x0D48 [0x2B] Raibaht (ID: 17748012/0x010ED02C) [9965*]:
    → "Chief Cid. <Player> has found what [he/she] claims is $1."
 61: 0x0D4F [0x23] WAIT_FOR_DIALOG_INTERACTION
 62: 0x0D50 [0x29] REQ_SET_WAIT(priority=0x08, entity_id=Raibaht (ID: 17748012/0x010ED02C), tag_num=0x1E)
 63: 0x0D57 [0x2A] GET_REQ_LEVEL(level=11, entity_id=Cid (ID: 17748011/0x010ED02B))
 64: 0x0D5D [0x52] END_LOAD_SCHEDULER: End scheduler "s009" with entities [EventEntity, EventEntity], work=25*
 65: 0x0D6C [0x45] LOAD_SCHEDULED_TASK: Load scheduler "s010" with entities [EventEntity, EventEntity], work=[25*, 0*]
 66: 0x0D7D [0x29] REQ_SET_WAIT(priority=0x08, entity_id=Cid (ID: 17748011/0x010ED02B), tag_num=0x70)
 67: 0x0D84 [0x2B] Cid (ID: 17748011/0x010ED02B) [9966*]:
    → "What!? But I thought that stone no longer remained on Vana'diel!"
 68: 0x0D8B [0x23] WAIT_FOR_DIALOG_INTERACTION
 69: 0x0D8C [0x2B] Cid (ID: 17748011/0x010ED02B) [9967*]:
    → "Amazing... Just as the legends say. This heat that the $1 produces... Where does it come from?"
 70: 0x0D93 [0x23] WAIT_FOR_DIALOG_INTERACTION
 71: 0x0D94 [0x29] REQ_SET_WAIT(priority=0x08, entity_id=Cid (ID: 17748011/0x010ED02B), tag_num=0x71)
 72: 0x0D9B [0x52] END_LOAD_SCHEDULER: End scheduler "s010" with entities [EventEntity, EventEntity], work=25*
 73: 0x0DAA [0x02] IF !(Work_Zone[9] == 3*) GOTO 0x0DC6
 74: 0x0DB2 [0x45] LOAD_SCHEDULED_TASK: Load scheduler "s019" with entities [EventEntity, EventEntity], work=[25*, 0*]
 75: 0x0DC3 [0x01] GOTO 0x0E2B
 76: 0x0DC6 [0x02] IF !(Work_Zone[9] == 5*) GOTO 0x0DE2
 77: 0x0DCE [0x45] LOAD_SCHEDULED_TASK: Load scheduler "s017" with entities [EventEntity, EventEntity], work=[25*, 0*]
 78: 0x0DDF [0x01] GOTO 0x0E2B
 79: 0x0DE2 [0x02] IF !(Work_Zone[9] == 6*) GOTO 0x0DFE
 80: 0x0DEA [0x45] LOAD_SCHEDULED_TASK: Load scheduler "s017" with entities [EventEntity, EventEntity], work=[25*, 0*]
 81: 0x0DFB [0x01] GOTO 0x0E2B
 82: 0x0DFE [0x02] IF !(Work_Zone[9] == 8*) GOTO 0x0E1A
 83: 0x0E06 [0x45] LOAD_SCHEDULED_TASK: Load scheduler "s019" with entities [EventEntity, EventEntity], work=[25*, 0*]
 84: 0x0E17 [0x01] GOTO 0x0E2B
 85: 0x0E1A [0x45] LOAD_SCHEDULED_TASK: Load scheduler "s011" with entities [EventEntity, EventEntity], work=[25*, 0*]

SUBROUTINE_0E2B:
 86: 0x0E2B [0x29] REQ_SET_WAIT(priority=0x08, entity_id=Cid (ID: 17748011/0x010ED02B), tag_num=0x72)
 87: 0x0E32 [0x79] LocalPlayer looks at Raibaht (ID: 17748012/0x010ED02C) (Basic look)
 88: 0x0E3C [0x79] Raibaht (ID: 17748012/0x010ED02C) looks at LocalPlayer (Basic look)
 89: 0x0E46 [0x4B] UPDATE_ENTITY_YAW(entity=Raibaht (ID: 17748012/0x010ED02C), yaw=22.4°*)
 90: 0x0E4D [0x6F] WAIT_FRAME_DELAY: Yield until WaitTime reaches zero
 91: 0x0E4E [0x76] CHECK_ENTITY_RENDER_FLAGS: Wait until Raibaht (ID: 17748012/0x010ED02C) Render.Flags0 and Render.Flags3 conditions are met
 92: 0x0E53 [0x2B] Raibaht (ID: 17748012/0x010ED02C) [9968*]:
    → "You have done well, <Player>. Now the chief can continue his experiments."
 93: 0x0E5A [0x23] WAIT_FOR_DIALOG_INTERACTION
 94: 0x0E5B [0x2B] Raibaht (ID: 17748012/0x010ED02C) [9969*]:
    → "Chief Cid. With the $1, your dream of building a semiperpetual motion engine will finally be realized."
 95: 0x0E62 [0x23] WAIT_FOR_DIALOG_INTERACTION
 96: 0x0E63 [0x29] REQ_SET_WAIT(priority=0x08, entity_id=Cid (ID: 17748011/0x010ED02B), tag_num=0x73)
 97: 0x0E6A [0x02] IF !(Work_Zone[9] == 3*) GOTO 0x0E84
 98: 0x0E72 [0x52] END_LOAD_SCHEDULER: End scheduler "s019" with entities [EventEntity, EventEntity], work=25*
 99: 0x0E81 [0x01] GOTO 0x0EE1
100: 0x0E84 [0x02] IF !(Work_Zone[9] == 5*) GOTO 0x0E9E
101: 0x0E8C [0x52] END_LOAD_SCHEDULER: End scheduler "s017" with entities [EventEntity, EventEntity], work=25*
102: 0x0E9B [0x01] GOTO 0x0EE1
103: 0x0E9E [0x02] IF !(Work_Zone[9] == 6*) GOTO 0x0EB8
104: 0x0EA6 [0x52] END_LOAD_SCHEDULER: End scheduler "s017" with entities [EventEntity, EventEntity], work=25*
105: 0x0EB5 [0x01] GOTO 0x0EE1
106: 0x0EB8 [0x02] IF !(Work_Zone[9] == 8*) GOTO 0x0ED2
107: 0x0EC0 [0x52] END_LOAD_SCHEDULER: End scheduler "s019" with entities [EventEntity, EventEntity], work=25*
108: 0x0ECF [0x01] GOTO 0x0EE1
109: 0x0ED2 [0x52] END_LOAD_SCHEDULER: End scheduler "s011" with entities [EventEntity, EventEntity], work=25*

SUBROUTINE_0EE1:
110: 0x0EE1 [0x45] LOAD_SCHEDULED_TASK: Load scheduler "s012" with entities [EventEntity, EventEntity], work=[25*, 0*]
111: 0x0EF2 [0x79] LocalPlayer looks at Cid (ID: 17748011/0x010ED02B) (Basic look)
112: 0x0EFC [0x79] Raibaht (ID: 17748012/0x010ED02C) looks at Cid (ID: 17748011/0x010ED02B) (Basic look)
113: 0x0F06 [0x29] REQ_SET_WAIT(priority=0x08, entity_id=Cid (ID: 17748011/0x010ED02B), tag_num=0x62)
114: 0x0F0D [0x2B] Cid (ID: 17748011/0x010ED02B) [9970*]:
    → "Hm? The what? Oh, that project? I gave up on that weeks ago. But this stone... Just think of all the possibilities!"
115: 0x0F14 [0x23] WAIT_FOR_DIALOG_INTERACTION
116: 0x0F15 [0x29] REQ_SET_WAIT(priority=0x08, entity_id=Cid (ID: 17748011/0x010ED02B), tag_num=0x63)
117: 0x0F1C [0x29] REQ_SET_WAIT(priority=0x08, entity_id=Cid (ID: 17748011/0x010ED02B), tag_num=0x5A)
118: 0x0F23 [0x2B] Cid (ID: 17748011/0x010ED02B) [9971*]:
    → "Ahem! But there are much more important things to be worried about right now. There's this one thing that's been troubling me for the past month."
119: 0x0F2A [0x23] WAIT_FOR_DIALOG_INTERACTION
120: 0x0F2B [0x29] REQ_SET_WAIT(priority=0x08, entity_id=Cid (ID: 17748011/0x010ED02B), tag_num=0x5B)
121: 0x0F32 [0x4A] Raibaht (ID: 17748012/0x010ED02C) looks at Cid (ID: 17748011/0x010ED02B)
122: 0x0F3B [0x6F] WAIT_FRAME_DELAY: Yield until WaitTime reaches zero
123: 0x0F3C [0x76] CHECK_ENTITY_RENDER_FLAGS: Wait until Raibaht (ID: 17748012/0x010ED02C) Render.Flags0 and Render.Flags3 conditions are met
124: 0x0F41 [0x29] REQ_SET_WAIT(priority=0x08, entity_id=Cid (ID: 17748011/0x010ED02B), tag_num=0x5C)
125: 0x0F48 [0x29] REQ_SET_WAIT(priority=0x08, entity_id=Cid (ID: 17748011/0x010ED02B), tag_num=0x6E)
126: 0x0F4F [0x2B] Raibaht (ID: 17748012/0x010ED02C) [9972*]:
    → "And what would that be, chief?"
127: 0x0F56 [0x23] WAIT_FOR_DIALOG_INTERACTION
128: 0x0F57 [0x29] REQ_SET_WAIT(priority=0x08, entity_id=Cid (ID: 17748011/0x010ED02B), tag_num=0x6F)
129: 0x0F5E [0x29] REQ_SET_WAIT(priority=0x08, entity_id=Cid (ID: 17748011/0x010ED02B), tag_num=0x5D)
130: 0x0F65 [0x52] END_LOAD_SCHEDULER: End scheduler "s012" with entities [EventEntity, EventEntity], work=25*
131: 0x0F74 [0x45] LOAD_SCHEDULED_TASK: Load scheduler "s013" with entities [EventEntity, EventEntity], work=[25*, 0*]
132: 0x0F85 [0x29] REQ_SET_WAIT(priority=0x08, entity_id=Cid (ID: 17748011/0x010ED02B), tag_num=0x52)
133: 0x0F8C [0x2B] Cid (ID: 17748011/0x010ED02B) [9973*]:
    → "What else? The name for my new bird!"
134: 0x0F93 [0x23] WAIT_FOR_DIALOG_INTERACTION
135: 0x0F94 [0x29] REQ_SET_WAIT(priority=0x08, entity_id=Cid (ID: 17748011/0x010ED02B), tag_num=0x53)
136: 0x0F9B [0x02] IF !(Work_Zone[7] == 0*) GOTO 0x0FBC
137: 0x0FA3 [0x29] REQ_SET_WAIT(priority=0x08, entity_id=Cid (ID: 17748011/0x010ED02B), tag_num=0x54)
138: 0x0FAA [0x2B] Cid (ID: 17748011/0x010ED02B) [9974*]:
    → "I thought about simply calling her the "C.I.D." but where's the fun in that?"
139: 0x0FB1 [0x23] WAIT_FOR_DIALOG_INTERACTION
140: 0x0FB2 [0x29] REQ_SET_WAIT(priority=0x08, entity_id=Cid (ID: 17748011/0x010ED02B), tag_num=0x55)
141: 0x0FB9 [0x01] GOTO 0x0FD2
142: 0x0FBC [0x29] REQ_SET_WAIT(priority=0x08, entity_id=Cid (ID: 17748011/0x010ED02B), tag_num=0x54)
143: 0x0FC3 [0x2B] Cid (ID: 17748011/0x010ED02B) [9975*]:
    → "Right now I'm simply calling her the "Cid," but where's the fun in that?"
144: 0x0FCA [0x23] WAIT_FOR_DIALOG_INTERACTION
145: 0x0FCB [0x29] REQ_SET_WAIT(priority=0x08, entity_id=Cid (ID: 17748011/0x010ED02B), tag_num=0x55)

SUBROUTINE_0FD2:
146: 0x0FD2 [0x52] END_LOAD_SCHEDULER: End scheduler "s013" with entities [EventEntity, EventEntity], work=25*
147: 0x0FE1 [0x02] IF !(Work_Zone[9] == 5*) GOTO 0x0FFD
148: 0x0FE9 [0x45] LOAD_SCHEDULED_TASK: Load scheduler "s018" with entities [EventEntity, EventEntity], work=[25*, 0*]
149: 0x0FFA [0x01] GOTO 0x102A
150: 0x0FFD [0x02] IF !(Work_Zone[9] == 6*) GOTO 0x1019
151: 0x1005 [0x45] LOAD_SCHEDULED_TASK: Load scheduler "s018" with entities [EventEntity, EventEntity], work=[25*, 0*]
152: 0x1016 [0x01] GOTO 0x102A
153: 0x1019 [0x45] LOAD_SCHEDULED_TASK: Load scheduler "s014" with entities [EventEntity, EventEntity], work=[25*, 0*]

SUBROUTINE_102A:
154: 0x102A [0x79] Raibaht (ID: 17748012/0x010ED02C) looks at LocalPlayer (Basic look)
155: 0x1034 [0x79] LocalPlayer looks at Raibaht (ID: 17748012/0x010ED02C) (Basic look)
156: 0x103E [0x4B] UPDATE_ENTITY_YAW(entity=Raibaht (ID: 17748012/0x010ED02C), yaw=22.4°*)
157: 0x1045 [0x6F] WAIT_FRAME_DELAY: Yield until WaitTime reaches zero
158: 0x1046 [0x76] CHECK_ENTITY_RENDER_FLAGS: Wait until Raibaht (ID: 17748012/0x010ED02C) Render.Flags0 and Render.Flags3 conditions are met
159: 0x104B [0x79] Cid (ID: 17748011/0x010ED02B) looks at LocalPlayer (Basic look)
160: 0x1055 [0x1C] WAIT(100* ticks)
161: 0x1058 [0x79] LocalPlayer looks at Cid (ID: 17748011/0x010ED02B) (Basic look)
162: 0x1062 [0x79] Raibaht (ID: 17748012/0x010ED02C) looks at Cid (ID: 17748011/0x010ED02B) (Basic look)
163: 0x106C [0x27] REQ_SET(priority=0x0B, entity_id=Cid (ID: 17748011/0x010ED02B), tag_num=0x77)
164: 0x1073 [0x2B] Cid (ID: 17748011/0x010ED02B) [9976*]:
    → "That's it! <Player>, you've been helping me prepare my big girl. Why don't you make the final call?"
165: 0x107A [0x23] WAIT_FOR_DIALOG_INTERACTION
166: 0x107B [0x2A] GET_REQ_LEVEL(level=11, entity_id=Cid (ID: 17748011/0x010ED02B))
167: 0x1081 [0x29] REQ_SET_WAIT(priority=0x08, entity_id=Cid (ID: 17748011/0x010ED02B), tag_num=0x56)
168: 0x1088 [0x2B] Cid (ID: 17748011/0x010ED02B) [9977*]:
    → "I've come up with a few ideas of my own. Choose from these."
169: 0x108F [0x23] WAIT_FOR_DIALOG_INTERACTION
170: 0x1090 [0x45] LOAD_SCHEDULED_TASK: Load scheduler "fdo1" with entities [LocalPlayer, LocalPlayer], work=[200*, 0*]
171: 0x10A1 [0x1C] WAIT(60* ticks)
172: 0x10A4 [0x02] IF !(Work_Zone[9] == 5*) GOTO 0x10BE
173: 0x10AC [0x52] END_LOAD_SCHEDULER: End scheduler "s018" with entities [EventEntity, EventEntity], work=25*
174: 0x10BB [0x01] GOTO 0x10E7
175: 0x10BE [0x02] IF !(Work_Zone[9] == 6*) GOTO 0x10D8
176: 0x10C6 [0x52] END_LOAD_SCHEDULER: End scheduler "s018" with entities [EventEntity, EventEntity], work=25*
177: 0x10D5 [0x01] GOTO 0x10E7
178: 0x10D8 [0x52] END_LOAD_SCHEDULER: End scheduler "s014" with entities [EventEntity, EventEntity], work=25*

SUBROUTINE_10E7:
179: 0x10E7 [0x2B] Cid (ID: 17748011/0x010ED02B) [9978*]:
    → "What should the first part of the name be?"
180: 0x10EE [0x23] WAIT_FOR_DIALOG_INTERACTION
181: 0x10EF [0x29] REQ_SET_WAIT(priority=0x08, entity_id=Cid (ID: 17748011/0x010ED02B), tag_num=0x57)
182: 0x10F6 [0x24] CREATE_DIALOG(message_id=9979*, default_option=0*, option_flags=0*)
    → "Start with... [Nothing./Ultra/Hyper/Psycho/Eternal/Neo/Lovely/Pretty/Final/Extra/Deadly/Savage/Aero/Pseudo/Universal/Exciting/Celestial/Super/Mighty/Mega/Omni/Poly]"
183: 0x10FD [0x25] WAIT_DIALOG_SELECT()
184: 0x10FE [0x02] IF !(Work_Zone[0] == 0*) GOTO 0x110E
185: 0x1106 [0x03] Work_Zone[1] = 0*
186: 0x110B [0x01] GOTO 0x125E
187: 0x110E [0x02] IF !(Work_Zone[0] == 1*) GOTO 0x111E
188: 0x1116 [0x03] Work_Zone[1] = 1*
189: 0x111B [0x01] GOTO 0x125E
190: 0x111E [0x02] IF !(Work_Zone[0] == 2*) GOTO 0x112E
191: 0x1126 [0x03] Work_Zone[1] = 2*
192: 0x112B [0x01] GOTO 0x125E
193: 0x112E [0x02] IF !(Work_Zone[0] == 3*) GOTO 0x113E
194: 0x1136 [0x03] Work_Zone[1] = 3*
195: 0x113B [0x01] GOTO 0x125E
196: 0x113E [0x02] IF !(Work_Zone[0] == 4*) GOTO 0x114E
197: 0x1146 [0x03] Work_Zone[1] = 4*
198: 0x114B [0x01] GOTO 0x125E
199: 0x114E [0x02] IF !(Work_Zone[0] == 5*) GOTO 0x115E
200: 0x1156 [0x03] Work_Zone[1] = 5*
201: 0x115B [0x01] GOTO 0x125E
202: 0x115E [0x02] IF !(Work_Zone[0] == 6*) GOTO 0x116E
203: 0x1166 [0x03] Work_Zone[1] = 6*
204: 0x116B [0x01] GOTO 0x125E
205: 0x116E [0x02] IF !(Work_Zone[0] == 7*) GOTO 0x117E
206: 0x1176 [0x03] Work_Zone[1] = 7*
207: 0x117B [0x01] GOTO 0x125E
208: 0x117E [0x02] IF !(Work_Zone[0] == 8*) GOTO 0x118E
209: 0x1186 [0x03] Work_Zone[1] = 8*
210: 0x118B [0x01] GOTO 0x125E
211: 0x118E [0x02] IF !(Work_Zone[0] == 9*) GOTO 0x119E
212: 0x1196 [0x03] Work_Zone[1] = 9*
213: 0x119B [0x01] GOTO 0x125E
214: 0x119E [0x02] IF !(Work_Zone[0] == 10*) GOTO 0x11AE
215: 0x11A6 [0x03] Work_Zone[1] = 10*
216: 0x11AB [0x01] GOTO 0x125E
217: 0x11AE [0x02] IF !(Work_Zone[0] == 11*) GOTO 0x11BE
218: 0x11B6 [0x03] Work_Zone[1] = 11*
219: 0x11BB [0x01] GOTO 0x125E
220: 0x11BE [0x02] IF !(Work_Zone[0] == 12*) GOTO 0x11CE
221: 0x11C6 [0x03] Work_Zone[1] = 12*
222: 0x11CB [0x01] GOTO 0x125E
223: 0x11CE [0x02] IF !(Work_Zone[0] == 13*) GOTO 0x11DE
224: 0x11D6 [0x03] Work_Zone[1] = 13*
225: 0x11DB [0x01] GOTO 0x125E
226: 0x11DE [0x02] IF !(Work_Zone[0] == 14*) GOTO 0x11EE
227: 0x11E6 [0x03] Work_Zone[1] = 14*
228: 0x11EB [0x01] GOTO 0x125E
229: 0x11EE [0x02] IF !(Work_Zone[0] == 15*) GOTO 0x11FE
230: 0x11F6 [0x03] Work_Zone[1] = 15*
231: 0x11FB [0x01] GOTO 0x125E
232: 0x11FE [0x02] IF !(Work_Zone[0] == 16*) GOTO 0x120E
233: 0x1206 [0x03] Work_Zone[1] = 16*
234: 0x120B [0x01] GOTO 0x125E
235: 0x120E [0x02] IF !(Work_Zone[0] == 17*) GOTO 0x121E
236: 0x1216 [0x03] Work_Zone[1] = 17*
