# 17748143 - Luto Mewrilah

## Common Data

| Field            | Value                |
|------------------|----------------------|
| Zone             | Metalworks (ID: 237) |
| Block Size       | 1896 bytes           |
| Total Events     | 76                   |
| References Count | 143                  |

## List of Events

| Event ID                   | Entrypoint   |   Size |   Instructions |
|----------------------------|--------------|--------|----------------|
| [65535](#event-65535)      | 0x0000       |      1 |              1 |
| [900](#event-900)          | 0x0001       |      1 |              1 |
| [65535.1](#event-655351)   | 0x0002       |     23 |              5 |
| [65535.2](#event-655352)   | 0x0019       |     23 |              5 |
| [65535.3](#event-655353)   | 0x0030       |     23 |              5 |
| [908](#event-908)          | 0x0047       |      1 |              1 |
| [909](#event-909)          | 0x0048       |      1 |              1 |
| [910](#event-910)          | 0x0049       |      1 |              1 |
| [916](#event-916)          | 0x004A       |      1 |              1 |
| [917](#event-917)          | 0x004B       |      1 |              1 |
| [918](#event-918)          | 0x004C       |      1 |              1 |
| [919](#event-919)          | 0x004D       |      1 |              1 |
| [65535.4](#event-655354)   | 0x004E       |     15 |              3 |
| [65535.5](#event-655355)   | 0x005D       |     14 |              4 |
| [65535.6](#event-655356)   | 0x006B       |     34 |              8 |
| [65535.7](#event-655357)   | 0x008D       |     19 |              5 |
| [65535.8](#event-655358)   | 0x00A0       |     14 |              4 |
| [65535.9](#event-655359)   | 0x00AE       |     15 |              3 |
| [65535.10](#event-6553510) | 0x00BD       |     14 |              4 |
| [65535.11](#event-6553511) | 0x00CB       |     14 |              4 |
| [65535.12](#event-6553512) | 0x00D9       |     23 |              5 |
| [65535.13](#event-6553513) | 0x00F0       |     14 |              4 |
| [65535.14](#event-6553514) | 0x00FE       |     14 |              4 |
| [65535.15](#event-6553515) | 0x010C       |     19 |              5 |
| [65535.16](#event-6553516) | 0x011F       |     33 |              7 |
| [65535.17](#event-6553517) | 0x0140       |     14 |              4 |
| [65535.18](#event-6553518) | 0x014E       |     15 |              3 |
| [65535.19](#event-6553519) | 0x015D       |     19 |              5 |
| [65535.20](#event-6553520) | 0x0170       |     15 |              3 |
| [65535.21](#event-6553521) | 0x017F       |     19 |              5 |
| [65535.22](#event-6553522) | 0x0192       |     14 |              4 |
| [65535.23](#event-6553523) | 0x01A0       |     15 |              3 |
| [65535.24](#event-6553524) | 0x01AF       |     19 |              5 |
| [65535.25](#event-6553525) | 0x01C2       |     15 |              3 |
| [65535.26](#event-6553526) | 0x01D1       |     19 |              5 |
| [65535.27](#event-6553527) | 0x01E4       |     14 |              4 |
| [65535.28](#event-6553528) | 0x01F2       |     15 |              3 |
| [65535.29](#event-6553529) | 0x0201       |     19 |              5 |
| [65535.30](#event-6553530) | 0x0214       |     15 |              3 |
| [65535.31](#event-6553531) | 0x0223       |     19 |              5 |
| [65535.32](#event-6553532) | 0x0236       |     14 |              4 |
| [65535.33](#event-6553533) | 0x0244       |     15 |              3 |
| [65535.34](#event-6553534) | 0x0253       |     19 |              5 |
| [65535.35](#event-6553535) | 0x0266       |     15 |              3 |
| [65535.36](#event-6553536) | 0x0275       |     14 |              4 |
| [65535.37](#event-6553537) | 0x0283       |     14 |              4 |
| [65535.38](#event-6553538) | 0x0291       |     33 |              7 |
| [65535.39](#event-6553539) | 0x02B2       |     23 |              5 |
| [65535.40](#event-6553540) | 0x02C9       |     31 |              7 |
| [901](#event-901)          | 0x02E8       |      1 |              1 |
| [65535.41](#event-6553541) | 0x02E9       |     15 |              3 |
| [902](#event-902)          | 0x02F8       |      1 |              1 |
| [65535.42](#event-6553542) | 0x02F9       |     15 |              3 |
| [903](#event-903)          | 0x0308       |      1 |              1 |
| [65535.43](#event-6553543) | 0x0309       |     15 |              3 |
| [904](#event-904)          | 0x0318       |      1 |              1 |
| [65535.44](#event-6553544) | 0x0319       |     15 |              3 |
| [913](#event-913)          | 0x0328       |      1 |              1 |
| [65535.45](#event-6553545) | 0x0329       |     15 |              3 |
| [905](#event-905)          | 0x0338       |      1 |              1 |
| [65535.46](#event-6553546) | 0x0339       |     20 |              4 |
| [906](#event-906)          | 0x034D       |      1 |              1 |
| [65535.47](#event-6553547) | 0x034E       |     15 |              3 |
| [920](#event-920)          | 0x035D       |      1 |              1 |
| [65535.48](#event-6553548) | 0x035E       |     15 |              3 |
| [65535.49](#event-6553549) | 0x036D       |     14 |              4 |
| [65535.50](#event-6553550) | 0x037B       |     24 |              6 |
| [65535.51](#event-6553551) | 0x0393       |     15 |              3 |
| [65535.52](#event-6553552) | 0x03A2       |     24 |              6 |
| [65535.53](#event-6553553) | 0x03BA       |     15 |              3 |
| [65535.54](#event-6553554) | 0x03C9       |     14 |              4 |
| [921](#event-921)          | 0x03D7       |      1 |              1 |
| [922](#event-922)          | 0x03D8       |      1 |              1 |
| [65535.55](#event-6553555) | 0x03D9       |     15 |              3 |
| [924](#event-924)          | 0x03E8       |      1 |              1 |
| [930](#event-930)          | 0x03E9       |      1 |              1 |

## DAT References (imed_data)

|   Index | Hex Value   |   Dec Value |
|---------|-------------|-------------|
|       0 | 0x000D      |          13 |
|       1 | 0xFFFF94F7  |  4294939895 |
|       2 | 0xFFFFFF33  |  4294967091 |
|       3 | 0x1F3F      |        7999 |
|       4 | 0xFFFF9AAD  |  4294941357 |
|       5 | 0xFFFFFF75  |  4294967157 |
|       6 | 0xFFFF2048  |  4294910024 |
|       7 | 0x654B      |       25931 |
|       8 | 0x07D0      |        2000 |
|       9 | 0x0FF7      |        4087 |
|      10 | 0xFFFF28B1  |  4294912177 |
|      11 | 0x7752      |       30546 |
|      12 | 0x0028      |          40 |
|      13 | 0xFFFF1789  |  4294907785 |
|      14 | 0x5FB2      |       24498 |
|      15 | 0xFFFF08AB  |  4294903979 |
|      16 | 0x4F94      |       20372 |
|      17 | 0xFFFF15CA  |  4294907338 |
|      18 | 0x5D7D      |       23933 |
|      19 | 0x07CF      |        1999 |
|      20 | 0xFFFF1D47  |  4294909255 |
|      21 | 0x5A4B      |       23115 |
|      22 | 0xFFFF9A13  |  4294941203 |
|      23 | 0x1567      |        5479 |
|      24 | 0x0000      |           0 |
|      25 | 0x026A      |         618 |
|      26 | 0xFFFFB305  |  4294947589 |
|      27 | 0xFFFFF15E  |  4294963550 |
|      28 | 0xFFFF9432  |  4294939698 |
|      29 | 0xFFFFE283  |  4294959747 |
|      30 | 0xFFFF9352  |  4294939474 |
|      31 | 0xFFFFFEEB  |  4294967019 |
|      32 | 0xFFFF8997  |  4294936983 |
|      33 | 0xFFFFFC29  |  4294966313 |
|      34 | 0xFFFFC33B  |  4294951739 |
|      35 | 0x07EB      |        2027 |
|      36 | 0xFFFF907C  |  4294938748 |
|      37 | 0x067D      |        1661 |
|      38 | 0xFFFE941A  |  4294874138 |
|      39 | 0x33A9      |       13225 |
|      40 | 0x0393      |         915 |
|      41 | 0xFFFE96E4  |  4294874852 |
|      42 | 0x2B42      |       11074 |
|      43 | 0xFFFE94D1  |  4294874321 |
|      44 | 0x38B9      |       14521 |
|      45 | 0x0206      |         518 |
|      46 | 0xFFFE9B11  |  4294875921 |
|      47 | 0x2C52      |       11346 |
|      48 | 0xFFFF8EF5  |  4294938357 |
|      49 | 0xFFFFA5BD  |  4294944189 |
|      50 | 0xFFFFD8F1  |  4294957297 |
|      51 | 0x03F0      |        1008 |
|      52 | 0xFFFF982E  |  4294940718 |
|      53 | 0xFFFF9A0F  |  4294941199 |
|      54 | 0xFFFF9474  |  4294939764 |
|      55 | 0xFFFFA916  |  4294945046 |
|      56 | 0x0390      |         912 |
|      57 | 0xFFFF960B  |  4294940171 |
|      58 | 0xFFFF9FF8  |  4294942712 |
|      59 | 0xFFFECF86  |  4294889350 |
|      60 | 0x380A      |       14346 |
|      61 | 0x0B5E      |        2910 |
|      62 | 0xFFFEC987  |  4294887815 |
|      63 | 0x469E      |       18078 |
|      64 | 0xFFFECF0F  |  4294889231 |
|      65 | 0x3151      |       12625 |
|      66 | 0x0B6F      |        2927 |
|      67 | 0xFFFEC39E  |  4294886302 |
|      68 | 0x4582      |       17794 |
|      69 | 0xFFFFA309  |  4294943497 |
|      70 | 0x5203      |       20995 |
|      71 | 0xFFFFD8F2  |  4294957298 |
|      72 | 0x0F8A      |        3978 |
|      73 | 0xFFFFB8D8  |  4294949080 |
|      74 | 0x53A9      |       21417 |
|      75 | 0xFFFFDBE4  |  4294958052 |
|      76 | 0xFFFF9F53  |  4294942547 |
|      77 | 0x5654      |       22100 |
|      78 | 0x0F5A      |        3930 |
|      79 | 0xFFFFB89D  |  4294949021 |
|      80 | 0x5C3B      |       23611 |
|      81 | 0xFFFEA396  |  4294878102 |
|      82 | 0xFFFFFA17  |  4294965783 |
|      83 | 0x0426      |        1062 |
|      84 | 0xFFFEA1C3  |  4294877635 |
|      85 | 0xFFFFDFF8  |  4294959096 |
|      86 | 0xFFFEBFD5  |  4294885333 |
|      87 | 0xFFFFD7D7  |  4294957015 |
|      88 | 0xFFFEB174  |  4294881652 |
|      89 | 0xFFFFDCE9  |  4294958313 |
|      90 | 0xFFFEA645  |  4294878789 |
|      91 | 0xFFFFEBDF  |  4294962143 |
|      92 | 0xFFFEA505  |  4294878469 |
|      93 | 0x0625      |        1573 |
|      94 | 0xFFFE8EB7  |  4294872759 |
|      95 | 0x0ECB      |        3787 |
|      96 | 0x0914      |        2324 |
|      97 | 0x0656      |        1622 |
|      98 | 0xFFFF1298  |  4294906520 |
|      99 | 0x60F6      |       24822 |
|     100 | 0x01EC      |         492 |
|     101 | 0xFFFE9508  |  4294874376 |
|     102 | 0x2CB3      |       11443 |
|     103 | 0x034B      |         843 |
|     104 | 0xFFFFBA1E  |  4294949406 |
|     105 | 0x585A      |       22618 |
|     106 | 0x0258      |         600 |
|     107 | 0xFFFEE76C  |  4294895468 |
|     108 | 0xFFFFE128  |  4294959400 |
|     109 | 0x0DF7      |        3575 |
|     110 | 0xFFFFAC25  |  4294945829 |
|     111 | 0xFFFFA41C  |  4294943772 |
|     112 | 0x0555      |        1365 |
|     113 | 0xFFFF9110  |  4294938896 |
|     114 | 0xFFFF8B22  |  4294937378 |
|     115 | 0x0DAE      |        3502 |
|     116 | 0xFFFEC39D  |  4294886301 |
|     117 | 0x47FE      |       18430 |
|     118 | 0x0F6B      |        3947 |
|     119 | 0xFFFF9407  |  4294939655 |
|     120 | 0x0075      |         117 |
|     121 | 0x0F82      |        3970 |
|     122 | 0xFFFFA072  |  4294942834 |
|     123 | 0xFFFFFFBF  |  4294967231 |
|     124 | 0xFFFF96A7  |  4294940327 |
|     125 | 0x03D7      |         983 |
|     126 | 0xFFFF86AD  |  4294936237 |
|     127 | 0xFFFFFFEA  |  4294967274 |
|     128 | 0xFFFFBA6C  |  4294949484 |
|     129 | 0xFFFFA4E7  |  4294943975 |
|     130 | 0x04D4      |        1236 |
|     131 | 0xFFFFB975  |  4294949237 |
|     132 | 0xFFFFAD3D  |  4294946109 |
|     133 | 0xFFFFAFA2  |  4294946722 |
|     134 | 0xFFFFAE5E  |  4294946398 |
|     135 | 0xFFFF85E0  |  4294936032 |
|     136 | 0xFFFFBE1D  |  4294950429 |
|     137 | 0x0230      |         560 |
|     138 | 0xFFFF925A  |  4294939226 |
|     139 | 0xFFFFAE96  |  4294946454 |
|     140 | 0xFFFEAA16  |  4294879766 |
|     141 | 0xFFFFE290  |  4294959760 |
|     142 | 0x0CF1      |        3313 |

## Events

### Event 65535

#### Metadata

| Field        | Value   |
|--------------|---------|
| Entrypoint   | 0x0000  |
| Data Size    | 1 bytes |
| Instructions | 1       |

```
      00 01 02 03 04 05 06 07  08 09 0A 0B 0C 0D 0E 0F
      -- -- -- -- -- -- -- --  -- -- -- -- -- -- -- --
0000: 00                                                .               
```

#### Opcodes

```
  0: 0x0000 [0x00] END_REQSTACK()
```

### Event 900

#### Metadata

| Field        | Value   |
|--------------|---------|
| Entrypoint   | 0x0001  |
| Data Size    | 1 bytes |
| Instructions | 1       |

```
      00 01 02 03 04 05 06 07  08 09 0A 0B 0C 0D 0E 0F
      -- -- -- -- -- -- -- --  -- -- -- -- -- -- -- --
0000:    00                                              .              
```

#### Opcodes

```
  0: 0x0001 [0x00] END_REQSTACK()
```

### Event 65535.1

#### Metadata

| Field        | Value    |
|--------------|----------|
| Entrypoint   | 0x0002   |
| Data Size    | 23 bytes |
| Instructions | 5        |

```
      00 01 02 03 04 05 06 07  08 09 0A 0B 0C 0D 0E 0F
      -- -- -- -- -- -- -- --  -- -- -- -- -- -- -- --
0000:       32 00 80 1F 00 01  80 02 80 03 80 1F 01 4A    2............J
0010: AF D0 0E 01 B1 D0 0E 01  00                       .........       
```

#### Opcodes

```
  0: 0x0002 [0x32] ExtData[1]->MainSpeed = 13* * 0.1
  1: 0x0005 [0x1F] MOVE_ENTITY: EventEntity moves to X=-27.401*, Z=-0.205*, Y=7.999*
  2: 0x000D [0x1F] MOVE_ENTITY: Update entity position (mode=1)
  3: 0x000F [0x4A] Luto Mewrilah (ID: 17748143/0x010ED0AF) looks at Nabima-Hyonbima (ID: 17748145/0x010ED0B1)
  4: 0x0018 [0x00] END_REQSTACK()
```

### Event 65535.2

#### Metadata

| Field        | Value    |
|--------------|----------|
| Entrypoint   | 0x0019   |
| Data Size    | 23 bytes |
| Instructions | 5        |

```
      00 01 02 03 04 05 06 07  08 09 0A 0B 0C 0D 0E 0F
      -- -- -- -- -- -- -- --  -- -- -- -- -- -- -- --
0010:                             32 00 80 1F 00 01 80           2......
0020: 02 80 03 80 1F 01 4A AF  D0 0E 01 B0 D0 0E 01 00  ......J.........
```

#### Opcodes

```
  0: 0x0019 [0x32] ExtData[1]->MainSpeed = 13* * 0.1
  1: 0x001C [0x1F] MOVE_ENTITY: EventEntity moves to X=-27.401*, Z=-0.205*, Y=7.999*
  2: 0x0024 [0x1F] MOVE_ENTITY: Update entity position (mode=1)
  3: 0x0026 [0x4A] Luto Mewrilah (ID: 17748143/0x010ED0AF) looks at Miledo-Shiraddo (ID: 17748144/0x010ED0B0)
  4: 0x002F [0x00] END_REQSTACK()
```

### Event 65535.3

#### Metadata

| Field        | Value    |
|--------------|----------|
| Entrypoint   | 0x0030   |
| Data Size    | 23 bytes |
| Instructions | 5        |

```
      00 01 02 03 04 05 06 07  08 09 0A 0B 0C 0D 0E 0F
      -- -- -- -- -- -- -- --  -- -- -- -- -- -- -- --
0030: 32 00 80 1F 00 04 80 05  80 03 80 1F 01 4A AF D0  2............J..
0040: 0E 01 F0 FF FF 7F 00                              .......         
```

#### Opcodes

```
  0: 0x0030 [0x32] ExtData[1]->MainSpeed = 13* * 0.1
  1: 0x0033 [0x1F] MOVE_ENTITY: EventEntity moves to X=-25.939*, Z=-0.139*, Y=7.999*
  2: 0x003B [0x1F] MOVE_ENTITY: Update entity position (mode=1)
  3: 0x003D [0x4A] Luto Mewrilah (ID: 17748143/0x010ED0AF) looks at LocalPlayer
  4: 0x0046 [0x00] END_REQSTACK()
```

### Event 908

#### Metadata

| Field        | Value   |
|--------------|---------|
| Entrypoint   | 0x0047  |
| Data Size    | 1 bytes |
| Instructions | 1       |

```
      00 01 02 03 04 05 06 07  08 09 0A 0B 0C 0D 0E 0F
      -- -- -- -- -- -- -- --  -- -- -- -- -- -- -- --
0040:                      00                                  .        
```

#### Opcodes

```
  0: 0x0047 [0x00] END_REQSTACK()
```

### Event 909

#### Metadata

| Field        | Value   |
|--------------|---------|
| Entrypoint   | 0x0048  |
| Data Size    | 1 bytes |
| Instructions | 1       |

```
      00 01 02 03 04 05 06 07  08 09 0A 0B 0C 0D 0E 0F
      -- -- -- -- -- -- -- --  -- -- -- -- -- -- -- --
0040:                          00                               .       
```

#### Opcodes

```
  0: 0x0048 [0x00] END_REQSTACK()
```

### Event 910

#### Metadata

| Field        | Value   |
|--------------|---------|
| Entrypoint   | 0x0049  |
| Data Size    | 1 bytes |
| Instructions | 1       |

```
      00 01 02 03 04 05 06 07  08 09 0A 0B 0C 0D 0E 0F
      -- -- -- -- -- -- -- --  -- -- -- -- -- -- -- --
0040:                             00                             .      
```

#### Opcodes

```
  0: 0x0049 [0x00] END_REQSTACK()
```

### Event 916

#### Metadata

| Field        | Value   |
|--------------|---------|
| Entrypoint   | 0x004A  |
| Data Size    | 1 bytes |
| Instructions | 1       |

```
      00 01 02 03 04 05 06 07  08 09 0A 0B 0C 0D 0E 0F
      -- -- -- -- -- -- -- --  -- -- -- -- -- -- -- --
0040:                                00                           .     
```

#### Opcodes

```
  0: 0x004A [0x00] END_REQSTACK()
```

### Event 917

#### Metadata

| Field        | Value   |
|--------------|---------|
| Entrypoint   | 0x004B  |
| Data Size    | 1 bytes |
| Instructions | 1       |

```
      00 01 02 03 04 05 06 07  08 09 0A 0B 0C 0D 0E 0F
      -- -- -- -- -- -- -- --  -- -- -- -- -- -- -- --
0040:                                   00                         .    
```

#### Opcodes

```
  0: 0x004B [0x00] END_REQSTACK()
```

### Event 918

#### Metadata

| Field        | Value   |
|--------------|---------|
| Entrypoint   | 0x004C  |
| Data Size    | 1 bytes |
| Instructions | 1       |

```
      00 01 02 03 04 05 06 07  08 09 0A 0B 0C 0D 0E 0F
      -- -- -- -- -- -- -- --  -- -- -- -- -- -- -- --
0040:                                      00                       .   
```

#### Opcodes

```
  0: 0x004C [0x00] END_REQSTACK()
```

### Event 919

#### Metadata

| Field        | Value   |
|--------------|---------|
| Entrypoint   | 0x004D  |
| Data Size    | 1 bytes |
| Instructions | 1       |

```
      00 01 02 03 04 05 06 07  08 09 0A 0B 0C 0D 0E 0F
      -- -- -- -- -- -- -- --  -- -- -- -- -- -- -- --
0040:                                         00                     .  
```

#### Opcodes

```
  0: 0x004D [0x00] END_REQSTACK()
```

### Event 65535.4

#### Metadata

| Field        | Value    |
|--------------|----------|
| Entrypoint   | 0x004E   |
| Data Size    | 15 bytes |
| Instructions | 3        |

```
      00 01 02 03 04 05 06 07  08 09 0A 0B 0C 0D 0E 0F
      -- -- -- -- -- -- -- --  -- -- -- -- -- -- -- --
0040:                                            37 06                7.
0050: 80 07 80 08 80 09 80 80  F8 FF FF 7F 00           .............   
```

#### Opcodes

```
  0: 0x004E [0x37] UPDATE_EVENT_POSITION_AND_DIR: x=-57.272*, z=25.931*, y=2.000*, direction=359.2°*
  1: 0x0057 [0x80] LOAD_WAIT(entity=EventEntity)
  2: 0x005C [0x00] END_REQSTACK()
```

### Event 65535.5

#### Metadata

| Field        | Value    |
|--------------|----------|
| Entrypoint   | 0x005D   |
| Data Size    | 14 bytes |
| Instructions | 4        |

```
      00 01 02 03 04 05 06 07  08 09 0A 0B 0C 0D 0E 0F
      -- -- -- -- -- -- -- --  -- -- -- -- -- -- -- --
0050:                                         32 00 80               2..
0060: 1F 00 0A 80 0B 80 08 80  1F 01 00                 ...........     
```

#### Opcodes

```
  0: 0x005D [0x32] ExtData[1]->MainSpeed = 13* * 0.1
  1: 0x0060 [0x1F] MOVE_ENTITY: EventEntity moves to X=-55.119*, Z=30.546*, Y=2.000*
  2: 0x0068 [0x1F] MOVE_ENTITY: Update entity position (mode=1)
  3: 0x006A [0x00] END_REQSTACK()
```

### Event 65535.6

#### Metadata

| Field        | Value    |
|--------------|----------|
| Entrypoint   | 0x006B   |
| Data Size    | 34 bytes |
| Instructions | 8        |

```
      00 01 02 03 04 05 06 07  08 09 0A 0B 0C 0D 0E 0F
      -- -- -- -- -- -- -- --  -- -- -- -- -- -- -- --
0060:                                   32 0C 80 1F 00             2....
0070: 0D 80 0E 80 08 80 1F 01  29 05 4C D0 0E 01 03 32  ........).L....2
0080: 0C 80 1F 00 0F 80 10 80  08 80 1F 01 00           .............   
```

#### Opcodes

```
  0: 0x006B [0x32] ExtData[1]->MainSpeed = 40* * 0.1
  1: 0x006E [0x1F] MOVE_ENTITY: EventEntity moves to X=-59.511*, Z=24.498*, Y=2.000*
  2: 0x0076 [0x1F] MOVE_ENTITY: Update entity position (mode=1)
  3: 0x0078 [0x29] REQ_SET_WAIT(priority=0x05, entity_id=Door:Cermet Refinery (ID: 17748044/0x010ED04C), tag_num=0x03)
  4: 0x007F [0x32] ExtData[1]->MainSpeed = 40* * 0.1
  5: 0x0082 [0x1F] MOVE_ENTITY: EventEntity moves to X=-63.317*, Z=20.372*, Y=2.000*
  6: 0x008A [0x1F] MOVE_ENTITY: Update entity position (mode=1)
  7: 0x008C [0x00] END_REQSTACK()
```

### Event 65535.7

#### Metadata

| Field        | Value    |
|--------------|----------|
| Entrypoint   | 0x008D   |
| Data Size    | 19 bytes |
| Instructions | 5        |

```
      00 01 02 03 04 05 06 07  08 09 0A 0B 0C 0D 0E 0F
      -- -- -- -- -- -- -- --  -- -- -- -- -- -- -- --
0080:                                         32 00 80               2..
0090: 1F 00 11 80 12 80 13 80  1F 01 1E F0 FF FF 7F 00  ................
```

#### Opcodes

```
  0: 0x008D [0x32] ExtData[1]->MainSpeed = 13* * 0.1
  1: 0x0090 [0x1F] MOVE_ENTITY: EventEntity moves to X=-59.958*, Z=23.933*, Y=1.999*
  2: 0x0098 [0x1F] MOVE_ENTITY: Update entity position (mode=1)
  3: 0x009A [0x1E] EventEntity looks at LocalPlayer and starts talking
  4: 0x009F [0x00] END_REQSTACK()
```

### Event 65535.8

#### Metadata

| Field        | Value    |
|--------------|----------|
| Entrypoint   | 0x00A0   |
| Data Size    | 14 bytes |
| Instructions | 4        |

```
      00 01 02 03 04 05 06 07  08 09 0A 0B 0C 0D 0E 0F
      -- -- -- -- -- -- -- --  -- -- -- -- -- -- -- --
00A0: 32 00 80 1F 00 14 80 15  80 08 80 1F 01 00        2.............  
```

#### Opcodes

```
  0: 0x00A0 [0x32] ExtData[1]->MainSpeed = 13* * 0.1
  1: 0x00A3 [0x1F] MOVE_ENTITY: EventEntity moves to X=-58.041*, Z=23.115*, Y=2.000*
  2: 0x00AB [0x1F] MOVE_ENTITY: Update entity position (mode=1)
  3: 0x00AD [0x00] END_REQSTACK()
```

### Event 65535.9

#### Metadata

| Field        | Value    |
|--------------|----------|
| Entrypoint   | 0x00AE   |
| Data Size    | 15 bytes |
| Instructions | 3        |

```
      00 01 02 03 04 05 06 07  08 09 0A 0B 0C 0D 0E 0F
      -- -- -- -- -- -- -- --  -- -- -- -- -- -- -- --
00A0:                                            37 16                7.
00B0: 80 17 80 18 80 19 80 80  F8 FF FF 7F 00           .............   
```

#### Opcodes

```
  0: 0x00AE [0x37] UPDATE_EVENT_POSITION_AND_DIR: x=-26.093*, z=5.479*, y=0.000*, direction=54.3°*
  1: 0x00B7 [0x80] LOAD_WAIT(entity=EventEntity)
  2: 0x00BC [0x00] END_REQSTACK()
```

### Event 65535.10

#### Metadata

| Field        | Value    |
|--------------|----------|
| Entrypoint   | 0x00BD   |
| Data Size    | 14 bytes |
| Instructions | 4        |

```
      00 01 02 03 04 05 06 07  08 09 0A 0B 0C 0D 0E 0F
      -- -- -- -- -- -- -- --  -- -- -- -- -- -- -- --
00B0:                                         32 0C 80               2..
00C0: 1F 00 1A 80 1B 80 18 80  1F 01 00                 ...........     
```

#### Opcodes

```
  0: 0x00BD [0x32] ExtData[1]->MainSpeed = 40* * 0.1
  1: 0x00C0 [0x1F] MOVE_ENTITY: EventEntity moves to X=-19.707*, Z=-3.746*, Y=0.000*
  2: 0x00C8 [0x1F] MOVE_ENTITY: Update entity position (mode=1)
  3: 0x00CA [0x00] END_REQSTACK()
```

### Event 65535.11

#### Metadata

| Field        | Value    |
|--------------|----------|
| Entrypoint   | 0x00CB   |
| Data Size    | 14 bytes |
| Instructions | 4        |

```
      00 01 02 03 04 05 06 07  08 09 0A 0B 0C 0D 0E 0F
      -- -- -- -- -- -- -- --  -- -- -- -- -- -- -- --
00C0:                                   32 0C 80 1F 00             2....
00D0: 1C 80 1D 80 18 80 1F 01  00                       .........       
```

#### Opcodes

```
  0: 0x00CB [0x32] ExtData[1]->MainSpeed = 40* * 0.1
  1: 0x00CE [0x1F] MOVE_ENTITY: EventEntity moves to X=-27.598*, Z=-7.549*, Y=0.000*
  2: 0x00D6 [0x1F] MOVE_ENTITY: Update entity position (mode=1)
  3: 0x00D8 [0x00] END_REQSTACK()
```

### Event 65535.12

#### Metadata

| Field        | Value    |
|--------------|----------|
| Entrypoint   | 0x00D9   |
| Data Size    | 23 bytes |
| Instructions | 5        |

```
      00 01 02 03 04 05 06 07  08 09 0A 0B 0C 0D 0E 0F
      -- -- -- -- -- -- -- --  -- -- -- -- -- -- -- --
00D0:                             32 00 80 1F 00 1E 80           2......
00E0: 1F 80 18 80 1F 01 4A AF  D0 0E 01 F0 FF FF 7F 00  ......J.........
```

#### Opcodes

```
  0: 0x00D9 [0x32] ExtData[1]->MainSpeed = 13* * 0.1
  1: 0x00DC [0x1F] MOVE_ENTITY: EventEntity moves to X=-27.822*, Z=-0.277*, Y=0.000*
  2: 0x00E4 [0x1F] MOVE_ENTITY: Update entity position (mode=1)
  3: 0x00E6 [0x4A] Luto Mewrilah (ID: 17748143/0x010ED0AF) looks at LocalPlayer
  4: 0x00EF [0x00] END_REQSTACK()
```

### Event 65535.13

#### Metadata

| Field        | Value    |
|--------------|----------|
| Entrypoint   | 0x00F0   |
| Data Size    | 14 bytes |
| Instructions | 4        |

```
      00 01 02 03 04 05 06 07  08 09 0A 0B 0C 0D 0E 0F
      -- -- -- -- -- -- -- --  -- -- -- -- -- -- -- --
00F0: 32 00 80 1F 00 20 80 21  80 18 80 1F 01 00        2.... .!......  
```

#### Opcodes

```
  0: 0x00F0 [0x32] ExtData[1]->MainSpeed = 13* * 0.1
  1: 0x00F3 [0x1F] MOVE_ENTITY: EventEntity moves to X=-30.313*, Z=-0.983*, Y=0.000*
  2: 0x00FB [0x1F] MOVE_ENTITY: Update entity position (mode=1)
  3: 0x00FD [0x00] END_REQSTACK()
```

### Event 65535.14

#### Metadata

| Field        | Value    |
|--------------|----------|
| Entrypoint   | 0x00FE   |
| Data Size    | 14 bytes |
| Instructions | 4        |

```
      00 01 02 03 04 05 06 07  08 09 0A 0B 0C 0D 0E 0F
      -- -- -- -- -- -- -- --  -- -- -- -- -- -- -- --
00F0:                                            32 0C                2.
0100: 80 1F 00 22 80 23 80 18  80 1F 01 00              ...".#......    
```

#### Opcodes

```
  0: 0x00FE [0x32] ExtData[1]->MainSpeed = 40* * 0.1
  1: 0x0101 [0x1F] MOVE_ENTITY: EventEntity moves to X=-15.557*, Z=2.027*, Y=0.000*
  2: 0x0109 [0x1F] MOVE_ENTITY: Update entity position (mode=1)
  3: 0x010B [0x00] END_REQSTACK()
```

### Event 65535.15

#### Metadata

| Field        | Value    |
|--------------|----------|
| Entrypoint   | 0x010C   |
| Data Size    | 19 bytes |
| Instructions | 5        |

```
      00 01 02 03 04 05 06 07  08 09 0A 0B 0C 0D 0E 0F
      -- -- -- -- -- -- -- --  -- -- -- -- -- -- -- --
0100:                                      32 00 80 1F              2...
0110: 00 24 80 25 80 18 80 1F  01 1E F0 FF FF 7F 00     .$.%........... 
```

#### Opcodes

```
  0: 0x010C [0x32] ExtData[1]->MainSpeed = 13* * 0.1
  1: 0x010F [0x1F] MOVE_ENTITY: EventEntity moves to X=-28.548*, Z=1.661*, Y=0.000*
  2: 0x0117 [0x1F] MOVE_ENTITY: Update entity position (mode=1)
  3: 0x0119 [0x1E] EventEntity looks at LocalPlayer and starts talking
  4: 0x011E [0x00] END_REQSTACK()
```

### Event 65535.16

#### Metadata

| Field        | Value    |
|--------------|----------|
| Entrypoint   | 0x011F   |
| Data Size    | 33 bytes |
| Instructions | 7        |

```
      00 01 02 03 04 05 06 07  08 09 0A 0B 0C 0D 0E 0F
      -- -- -- -- -- -- -- --  -- -- -- -- -- -- -- --
0110:                                               37                 7
0120: 26 80 27 80 13 80 28 80  80 F8 FF FF 7F 32 00 80  &.'...(......2..
0130: 1F 00 29 80 2A 80 13 80  1F 01 1E F0 FF FF 7F 00  ..).*...........
```

#### Opcodes

```
  0: 0x011F [0x37] UPDATE_EVENT_POSITION_AND_DIR: x=-93.158*, z=13.225*, y=1.999*, direction=80.4°*
  1: 0x0128 [0x80] LOAD_WAIT(entity=EventEntity)
  2: 0x012D [0x32] ExtData[1]->MainSpeed = 13* * 0.1
  3: 0x0130 [0x1F] MOVE_ENTITY: EventEntity moves to X=-92.444*, Z=11.074*, Y=1.999*
  4: 0x0138 [0x1F] MOVE_ENTITY: Update entity position (mode=1)
  5: 0x013A [0x1E] EventEntity looks at LocalPlayer and starts talking
  6: 0x013F [0x00] END_REQSTACK()
```

### Event 65535.17

#### Metadata

| Field        | Value    |
|--------------|----------|
| Entrypoint   | 0x0140   |
| Data Size    | 14 bytes |
| Instructions | 4        |

```
      00 01 02 03 04 05 06 07  08 09 0A 0B 0C 0D 0E 0F
      -- -- -- -- -- -- -- --  -- -- -- -- -- -- -- --
0140: 32 00 80 1F 00 26 80 27  80 13 80 1F 01 00        2....&.'......  
```

#### Opcodes

```
  0: 0x0140 [0x32] ExtData[1]->MainSpeed = 13* * 0.1
  1: 0x0143 [0x1F] MOVE_ENTITY: EventEntity moves to X=-93.158*, Z=13.225*, Y=1.999*
  2: 0x014B [0x1F] MOVE_ENTITY: Update entity position (mode=1)
  3: 0x014D [0x00] END_REQSTACK()
```

### Event 65535.18

#### Metadata

| Field        | Value    |
|--------------|----------|
| Entrypoint   | 0x014E   |
| Data Size    | 15 bytes |
| Instructions | 3        |

```
      00 01 02 03 04 05 06 07  08 09 0A 0B 0C 0D 0E 0F
      -- -- -- -- -- -- -- --  -- -- -- -- -- -- -- --
0140:                                            37 2B                7+
0150: 80 2C 80 13 80 2D 80 80  F8 FF FF 7F 00           .,...-.......   
```

#### Opcodes

```
  0: 0x014E [0x37] UPDATE_EVENT_POSITION_AND_DIR: x=-92.975*, z=14.521*, y=1.999*, direction=45.5°*
  1: 0x0157 [0x80] LOAD_WAIT(entity=EventEntity)
  2: 0x015C [0x00] END_REQSTACK()
```

### Event 65535.19

#### Metadata

| Field        | Value    |
|--------------|----------|
| Entrypoint   | 0x015D   |
| Data Size    | 19 bytes |
| Instructions | 5        |

```
      00 01 02 03 04 05 06 07  08 09 0A 0B 0C 0D 0E 0F
      -- -- -- -- -- -- -- --  -- -- -- -- -- -- -- --
0150:                                         32 00 80               2..
0160: 1F 00 2E 80 2F 80 13 80  1F 01 1E F0 FF FF 7F 00  ..../...........
```

#### Opcodes

```
  0: 0x015D [0x32] ExtData[1]->MainSpeed = 13* * 0.1
  1: 0x0160 [0x1F] MOVE_ENTITY: EventEntity moves to X=-91.375*, Z=11.346*, Y=1.999*
  2: 0x0168 [0x1F] MOVE_ENTITY: Update entity position (mode=1)
  3: 0x016A [0x1E] EventEntity looks at LocalPlayer and starts talking
  4: 0x016F [0x00] END_REQSTACK()
```

### Event 65535.20

#### Metadata

| Field        | Value    |
|--------------|----------|
| Entrypoint   | 0x0170   |
| Data Size    | 15 bytes |
| Instructions | 3        |

```
      00 01 02 03 04 05 06 07  08 09 0A 0B 0C 0D 0E 0F
      -- -- -- -- -- -- -- --  -- -- -- -- -- -- -- --
0170: 37 30 80 31 80 32 80 33  80 80 F8 FF FF 7F 00     70.1.2.3....... 
```

#### Opcodes

```
  0: 0x0170 [0x37] UPDATE_EVENT_POSITION_AND_DIR: x=-28.939*, z=-23.107*, y=-9.999*, direction=88.6°*
  1: 0x0179 [0x80] LOAD_WAIT(entity=EventEntity)
  2: 0x017E [0x00] END_REQSTACK()
```

### Event 65535.21

#### Metadata

| Field        | Value    |
|--------------|----------|
| Entrypoint   | 0x017F   |
| Data Size    | 19 bytes |
| Instructions | 5        |

```
      00 01 02 03 04 05 06 07  08 09 0A 0B 0C 0D 0E 0F
      -- -- -- -- -- -- -- --  -- -- -- -- -- -- -- --
0170:                                               32                 2
0180: 00 80 1F 00 34 80 35 80  32 80 1F 01 1E F0 FF FF  ....4.5.2.......
0190: 7F 00                                             ..              
```

#### Opcodes

```
  0: 0x017F [0x32] ExtData[1]->MainSpeed = 13* * 0.1
  1: 0x0182 [0x1F] MOVE_ENTITY: EventEntity moves to X=-26.578*, Z=-26.097*, Y=-9.999*
  2: 0x018A [0x1F] MOVE_ENTITY: Update entity position (mode=1)
  3: 0x018C [0x1E] EventEntity looks at LocalPlayer and starts talking
  4: 0x0191 [0x00] END_REQSTACK()
```

### Event 65535.22

#### Metadata

| Field        | Value    |
|--------------|----------|
| Entrypoint   | 0x0192   |
| Data Size    | 14 bytes |
| Instructions | 4        |

```
      00 01 02 03 04 05 06 07  08 09 0A 0B 0C 0D 0E 0F
      -- -- -- -- -- -- -- --  -- -- -- -- -- -- -- --
0190:       32 00 80 1F 00 30  80 31 80 32 80 1F 01 00    2....0.1.2....
```

#### Opcodes

```
  0: 0x0192 [0x32] ExtData[1]->MainSpeed = 13* * 0.1
  1: 0x0195 [0x1F] MOVE_ENTITY: EventEntity moves to X=-28.939*, Z=-23.107*, Y=-9.999*
  2: 0x019D [0x1F] MOVE_ENTITY: Update entity position (mode=1)
  3: 0x019F [0x00] END_REQSTACK()
```

### Event 65535.23

#### Metadata

| Field        | Value    |
|--------------|----------|
| Entrypoint   | 0x01A0   |
| Data Size    | 15 bytes |
| Instructions | 3        |

```
      00 01 02 03 04 05 06 07  08 09 0A 0B 0C 0D 0E 0F
      -- -- -- -- -- -- -- --  -- -- -- -- -- -- -- --
01A0: 37 36 80 37 80 32 80 38  80 80 F8 FF FF 7F 00     76.7.2.8....... 
```

#### Opcodes

```
  0: 0x01A0 [0x37] UPDATE_EVENT_POSITION_AND_DIR: x=-27.532*, z=-22.250*, y=-9.999*, direction=80.2°*
  1: 0x01A9 [0x80] LOAD_WAIT(entity=EventEntity)
  2: 0x01AE [0x00] END_REQSTACK()
```

### Event 65535.24

#### Metadata

| Field        | Value    |
|--------------|----------|
| Entrypoint   | 0x01AF   |
| Data Size    | 19 bytes |
| Instructions | 5        |

```
      00 01 02 03 04 05 06 07  08 09 0A 0B 0C 0D 0E 0F
      -- -- -- -- -- -- -- --  -- -- -- -- -- -- -- --
01A0:                                               32                 2
01B0: 00 80 1F 00 39 80 3A 80  32 80 1F 01 1E F0 FF FF  ....9.:.2.......
01C0: 7F 00                                             ..              
```

#### Opcodes

```
  0: 0x01AF [0x32] ExtData[1]->MainSpeed = 13* * 0.1
  1: 0x01B2 [0x1F] MOVE_ENTITY: EventEntity moves to X=-27.125*, Z=-24.584*, Y=-9.999*
  2: 0x01BA [0x1F] MOVE_ENTITY: Update entity position (mode=1)
  3: 0x01BC [0x1E] EventEntity looks at LocalPlayer and starts talking
  4: 0x01C1 [0x00] END_REQSTACK()
```

### Event 65535.25

#### Metadata

| Field        | Value    |
|--------------|----------|
| Entrypoint   | 0x01C2   |
| Data Size    | 15 bytes |
| Instructions | 3        |

```
      00 01 02 03 04 05 06 07  08 09 0A 0B 0C 0D 0E 0F
      -- -- -- -- -- -- -- --  -- -- -- -- -- -- -- --
01C0:       37 3B 80 3C 80 08  80 3D 80 80 F8 FF FF 7F    7;.<...=......
01D0: 00                                                .               
```

#### Opcodes

```
  0: 0x01C2 [0x37] UPDATE_EVENT_POSITION_AND_DIR: x=-77.946*, z=14.346*, y=2.000*, direction=255.8°*
  1: 0x01CB [0x80] LOAD_WAIT(entity=EventEntity)
  2: 0x01D0 [0x00] END_REQSTACK()
```

### Event 65535.26

#### Metadata

| Field        | Value    |
|--------------|----------|
| Entrypoint   | 0x01D1   |
| Data Size    | 19 bytes |
| Instructions | 5        |

```
      00 01 02 03 04 05 06 07  08 09 0A 0B 0C 0D 0E 0F
      -- -- -- -- -- -- -- --  -- -- -- -- -- -- -- --
01D0:    32 00 80 1F 00 3E 80  3F 80 08 80 1F 01 1E F0   2....>.?.......
01E0: FF FF 7F 00                                       ....            
```

#### Opcodes

```
  0: 0x01D1 [0x32] ExtData[1]->MainSpeed = 13* * 0.1
  1: 0x01D4 [0x1F] MOVE_ENTITY: EventEntity moves to X=-79.481*, Z=18.078*, Y=2.000*
  2: 0x01DC [0x1F] MOVE_ENTITY: Update entity position (mode=1)
  3: 0x01DE [0x1E] EventEntity looks at LocalPlayer and starts talking
  4: 0x01E3 [0x00] END_REQSTACK()
```

### Event 65535.27

#### Metadata

| Field        | Value    |
|--------------|----------|
| Entrypoint   | 0x01E4   |
| Data Size    | 14 bytes |
| Instructions | 4        |

```
      00 01 02 03 04 05 06 07  08 09 0A 0B 0C 0D 0E 0F
      -- -- -- -- -- -- -- --  -- -- -- -- -- -- -- --
01E0:             32 00 80 1F  00 3B 80 3C 80 08 80 1F      2....;.<....
01F0: 01 00                                             ..              
```

#### Opcodes

```
  0: 0x01E4 [0x32] ExtData[1]->MainSpeed = 13* * 0.1
  1: 0x01E7 [0x1F] MOVE_ENTITY: EventEntity moves to X=-77.946*, Z=14.346*, Y=2.000*
  2: 0x01EF [0x1F] MOVE_ENTITY: Update entity position (mode=1)
  3: 0x01F1 [0x00] END_REQSTACK()
```

### Event 65535.28

#### Metadata

| Field        | Value    |
|--------------|----------|
| Entrypoint   | 0x01F2   |
| Data Size    | 15 bytes |
| Instructions | 3        |

```
      00 01 02 03 04 05 06 07  08 09 0A 0B 0C 0D 0E 0F
      -- -- -- -- -- -- -- --  -- -- -- -- -- -- -- --
01F0:       37 40 80 41 80 08  80 42 80 80 F8 FF FF 7F    7@.A...B......
0200: 00                                                .               
```

#### Opcodes

```
  0: 0x01F2 [0x37] UPDATE_EVENT_POSITION_AND_DIR: x=-78.065*, z=12.625*, y=2.000*, direction=257.2°*
  1: 0x01FB [0x80] LOAD_WAIT(entity=EventEntity)
  2: 0x0200 [0x00] END_REQSTACK()
```

### Event 65535.29

#### Metadata

| Field        | Value    |
|--------------|----------|
| Entrypoint   | 0x0201   |
| Data Size    | 19 bytes |
| Instructions | 5        |

```
      00 01 02 03 04 05 06 07  08 09 0A 0B 0C 0D 0E 0F
      -- -- -- -- -- -- -- --  -- -- -- -- -- -- -- --
0200:    32 00 80 1F 00 43 80  44 80 08 80 1F 01 1E F0   2....C.D.......
0210: FF FF 7F 00                                       ....            
```

#### Opcodes

```
  0: 0x0201 [0x32] ExtData[1]->MainSpeed = 13* * 0.1
  1: 0x0204 [0x1F] MOVE_ENTITY: EventEntity moves to X=-80.994*, Z=17.794*, Y=2.000*
  2: 0x020C [0x1F] MOVE_ENTITY: Update entity position (mode=1)
  3: 0x020E [0x1E] EventEntity looks at LocalPlayer and starts talking
  4: 0x0213 [0x00] END_REQSTACK()
```

### Event 65535.30

#### Metadata

| Field        | Value    |
|--------------|----------|
| Entrypoint   | 0x0214   |
| Data Size    | 15 bytes |
| Instructions | 3        |

```
      00 01 02 03 04 05 06 07  08 09 0A 0B 0C 0D 0E 0F
      -- -- -- -- -- -- -- --  -- -- -- -- -- -- -- --
0210:             37 45 80 46  80 47 80 48 80 80 F8 FF      7E.F.G.H....
0220: FF 7F 00                                          ...             
```

#### Opcodes

```
  0: 0x0214 [0x37] UPDATE_EVENT_POSITION_AND_DIR: x=-23.799*, z=20.995*, y=-9.998*, direction=349.6°*
  1: 0x021D [0x80] LOAD_WAIT(entity=EventEntity)
  2: 0x0222 [0x00] END_REQSTACK()
```

### Event 65535.31

#### Metadata

| Field        | Value    |
|--------------|----------|
| Entrypoint   | 0x0223   |
| Data Size    | 19 bytes |
| Instructions | 5        |

```
      00 01 02 03 04 05 06 07  08 09 0A 0B 0C 0D 0E 0F
      -- -- -- -- -- -- -- --  -- -- -- -- -- -- -- --
0220:          32 00 80 1F 00  49 80 4A 80 4B 80 1F 01     2....I.J.K...
0230: 1E F0 FF FF 7F 00                                 ......          
```

#### Opcodes

```
  0: 0x0223 [0x32] ExtData[1]->MainSpeed = 13* * 0.1
  1: 0x0226 [0x1F] MOVE_ENTITY: EventEntity moves to X=-18.216*, Z=21.417*, Y=-9.244*
  2: 0x022E [0x1F] MOVE_ENTITY: Update entity position (mode=1)
  3: 0x0230 [0x1E] EventEntity looks at LocalPlayer and starts talking
  4: 0x0235 [0x00] END_REQSTACK()
```

### Event 65535.32

#### Metadata

| Field        | Value    |
|--------------|----------|
| Entrypoint   | 0x0236   |
| Data Size    | 14 bytes |
| Instructions | 4        |

```
      00 01 02 03 04 05 06 07  08 09 0A 0B 0C 0D 0E 0F
      -- -- -- -- -- -- -- --  -- -- -- -- -- -- -- --
0230:                   32 00  80 1F 00 45 80 46 80 47        2....E.F.G
0240: 80 1F 01 00                                       ....            
```

#### Opcodes

```
  0: 0x0236 [0x32] ExtData[1]->MainSpeed = 13* * 0.1
  1: 0x0239 [0x1F] MOVE_ENTITY: EventEntity moves to X=-23.799*, Z=20.995*, Y=-9.998*
  2: 0x0241 [0x1F] MOVE_ENTITY: Update entity position (mode=1)
  3: 0x0243 [0x00] END_REQSTACK()
```

### Event 65535.33

#### Metadata

| Field        | Value    |
|--------------|----------|
| Entrypoint   | 0x0244   |
| Data Size    | 15 bytes |
| Instructions | 3        |

```
      00 01 02 03 04 05 06 07  08 09 0A 0B 0C 0D 0E 0F
      -- -- -- -- -- -- -- --  -- -- -- -- -- -- -- --
0240:             37 4C 80 4D  80 47 80 4E 80 80 F8 FF      7L.M.G.N....
0250: FF 7F 00                                          ...             
```

#### Opcodes

```
  0: 0x0244 [0x37] UPDATE_EVENT_POSITION_AND_DIR: x=-24.749*, z=22.100*, y=-9.998*, direction=345.4°*
  1: 0x024D [0x80] LOAD_WAIT(entity=EventEntity)
  2: 0x0252 [0x00] END_REQSTACK()
```

### Event 65535.34

#### Metadata

| Field        | Value    |
|--------------|----------|
| Entrypoint   | 0x0253   |
| Data Size    | 19 bytes |
| Instructions | 5        |

```
      00 01 02 03 04 05 06 07  08 09 0A 0B 0C 0D 0E 0F
      -- -- -- -- -- -- -- --  -- -- -- -- -- -- -- --
0250:          32 00 80 1F 00  4F 80 50 80 4B 80 1F 01     2....O.P.K...
0260: 1E F0 FF FF 7F 00                                 ......          
```

#### Opcodes

```
  0: 0x0253 [0x32] ExtData[1]->MainSpeed = 13* * 0.1
  1: 0x0256 [0x1F] MOVE_ENTITY: EventEntity moves to X=-18.275*, Z=23.611*, Y=-9.244*
  2: 0x025E [0x1F] MOVE_ENTITY: Update entity position (mode=1)
  3: 0x0260 [0x1E] EventEntity looks at LocalPlayer and starts talking
  4: 0x0265 [0x00] END_REQSTACK()
```

### Event 65535.35

#### Metadata

| Field        | Value    |
|--------------|----------|
| Entrypoint   | 0x0266   |
| Data Size    | 15 bytes |
| Instructions | 3        |

```
      00 01 02 03 04 05 06 07  08 09 0A 0B 0C 0D 0E 0F
      -- -- -- -- -- -- -- --  -- -- -- -- -- -- -- --
0260:                   37 51  80 52 80 08 80 53 80 80        7Q.R...S..
0270: F8 FF FF 7F 00                                    .....           
```

#### Opcodes

```
  0: 0x0266 [0x37] UPDATE_EVENT_POSITION_AND_DIR: x=-89.194*, z=-1.513*, y=2.000*, direction=93.3°*
  1: 0x026F [0x80] LOAD_WAIT(entity=EventEntity)
  2: 0x0274 [0x00] END_REQSTACK()
```

### Event 65535.36

#### Metadata

| Field        | Value    |
|--------------|----------|
| Entrypoint   | 0x0275   |
| Data Size    | 14 bytes |
| Instructions | 4        |

```
      00 01 02 03 04 05 06 07  08 09 0A 0B 0C 0D 0E 0F
      -- -- -- -- -- -- -- --  -- -- -- -- -- -- -- --
0270:                32 0C 80  1F 00 54 80 55 80 08 80       2....T.U...
0280: 1F 01 00                                          ...             
```

#### Opcodes

```
  0: 0x0275 [0x32] ExtData[1]->MainSpeed = 40* * 0.1
  1: 0x0278 [0x1F] MOVE_ENTITY: EventEntity moves to X=-89.661*, Z=-8.200*, Y=2.000*
  2: 0x0280 [0x1F] MOVE_ENTITY: Update entity position (mode=1)
  3: 0x0282 [0x00] END_REQSTACK()
```

### Event 65535.37

#### Metadata

| Field        | Value    |
|--------------|----------|
| Entrypoint   | 0x0283   |
| Data Size    | 14 bytes |
| Instructions | 4        |

```
      00 01 02 03 04 05 06 07  08 09 0A 0B 0C 0D 0E 0F
      -- -- -- -- -- -- -- --  -- -- -- -- -- -- -- --
0280:          32 0C 80 1F 00  56 80 57 80 08 80 1F 01     2....V.W.....
0290: 00                                                .               
```

#### Opcodes

```
  0: 0x0283 [0x32] ExtData[1]->MainSpeed = 40* * 0.1
  1: 0x0286 [0x1F] MOVE_ENTITY: EventEntity moves to X=-81.963*, Z=-10.281*, Y=2.000*
  2: 0x028E [0x1F] MOVE_ENTITY: Update entity position (mode=1)
  3: 0x0290 [0x00] END_REQSTACK()
```

### Event 65535.38

#### Metadata

| Field        | Value    |
|--------------|----------|
| Entrypoint   | 0x0291   |
| Data Size    | 33 bytes |
| Instructions | 7        |

```
      00 01 02 03 04 05 06 07  08 09 0A 0B 0C 0D 0E 0F
      -- -- -- -- -- -- -- --  -- -- -- -- -- -- -- --
0290:    32 00 80 1F 00 58 80  59 80 08 80 1F 01 1F 00   2....X.Y.......
02A0: 5A 80 5B 80 08 80 1F 01  4A AF D0 0E 01 F0 FF FF  Z.[.....J.......
02B0: 7F 00                                             ..              
```

#### Opcodes

```
  0: 0x0291 [0x32] ExtData[1]->MainSpeed = 13* * 0.1
  1: 0x0294 [0x1F] MOVE_ENTITY: EventEntity moves to X=-85.644*, Z=-8.983*, Y=2.000*
  2: 0x029C [0x1F] MOVE_ENTITY: Update entity position (mode=1)
  3: 0x029E [0x1F] MOVE_ENTITY: EventEntity moves to X=-88.507*, Z=-5.153*, Y=2.000*
  4: 0x02A6 [0x1F] MOVE_ENTITY: Update entity position (mode=1)
  5: 0x02A8 [0x4A] Luto Mewrilah (ID: 17748143/0x010ED0AF) looks at LocalPlayer
  6: 0x02B1 [0x00] END_REQSTACK()
```

### Event 65535.39

#### Metadata

| Field        | Value    |
|--------------|----------|
| Entrypoint   | 0x02B2   |
| Data Size    | 23 bytes |
| Instructions | 5        |

```
      00 01 02 03 04 05 06 07  08 09 0A 0B 0C 0D 0E 0F
      -- -- -- -- -- -- -- --  -- -- -- -- -- -- -- --
02B0:       32 00 80 1F 00 5A  80 5B 80 08 80 1F 01 4A    2....Z.[.....J
02C0: AF D0 0E 01 F0 FF FF 7F  00                       .........       
```

#### Opcodes

```
  0: 0x02B2 [0x32] ExtData[1]->MainSpeed = 13* * 0.1
  1: 0x02B5 [0x1F] MOVE_ENTITY: EventEntity moves to X=-88.507*, Z=-5.153*, Y=2.000*
  2: 0x02BD [0x1F] MOVE_ENTITY: Update entity position (mode=1)
  3: 0x02BF [0x4A] Luto Mewrilah (ID: 17748143/0x010ED0AF) looks at LocalPlayer
  4: 0x02C8 [0x00] END_REQSTACK()
```

### Event 65535.40

#### Metadata

| Field        | Value    |
|--------------|----------|
| Entrypoint   | 0x02C9   |
| Data Size    | 31 bytes |
| Instructions | 7        |

```
      00 01 02 03 04 05 06 07  08 09 0A 0B 0C 0D 0E 0F
      -- -- -- -- -- -- -- --  -- -- -- -- -- -- -- --
02C0:                             32 0C 80 1F 00 5C 80           2....\.
02D0: 5D 80 08 80 1F 01 1F 00  5E 80 5F 80 60 80 1F 01  ].......^._.`...
02E0: 4B AF D0 0E 01 61 80 00                           K....a..        
```

#### Opcodes

```
  0: 0x02C9 [0x32] ExtData[1]->MainSpeed = 40* * 0.1
  1: 0x02CC [0x1F] MOVE_ENTITY: EventEntity moves to X=-88.827*, Z=1.573*, Y=2.000*
  2: 0x02D4 [0x1F] MOVE_ENTITY: Update entity position (mode=1)
  3: 0x02D6 [0x1F] MOVE_ENTITY: EventEntity moves to X=-94.537*, Z=3.787*, Y=2.324*
  4: 0x02DE [0x1F] MOVE_ENTITY: Update entity position (mode=1)
  5: 0x02E0 [0x4B] UPDATE_ENTITY_YAW(entity=Luto Mewrilah (ID: 17748143/0x010ED0AF), yaw=8.9°*)
  6: 0x02E7 [0x00] END_REQSTACK()
```

### Event 901

#### Metadata

| Field        | Value   |
|--------------|---------|
| Entrypoint   | 0x02E8  |
| Data Size    | 1 bytes |
| Instructions | 1       |

```
      00 01 02 03 04 05 06 07  08 09 0A 0B 0C 0D 0E 0F
      -- -- -- -- -- -- -- --  -- -- -- -- -- -- -- --
02E0:                          00                               .       
```

#### Opcodes

```
  0: 0x02E8 [0x00] END_REQSTACK()
```

### Event 65535.41

#### Metadata

| Field        | Value    |
|--------------|----------|
| Entrypoint   | 0x02E9   |
| Data Size    | 15 bytes |
| Instructions | 3        |

```
      00 01 02 03 04 05 06 07  08 09 0A 0B 0C 0D 0E 0F
      -- -- -- -- -- -- -- --  -- -- -- -- -- -- -- --
02E0:                             37 62 80 63 80 32 80           7b.c.2.
02F0: 64 80 80 F8 FF FF 7F 00                           d.......        
```

#### Opcodes

```
  0: 0x02E9 [0x37] UPDATE_EVENT_POSITION_AND_DIR: x=-60.776*, z=24.822*, y=-9.999*, direction=43.2°*
  1: 0x02F2 [0x80] LOAD_WAIT(entity=EventEntity)
  2: 0x02F7 [0x00] END_REQSTACK()
```

### Event 902

#### Metadata

| Field        | Value   |
|--------------|---------|
| Entrypoint   | 0x02F8  |
| Data Size    | 1 bytes |
| Instructions | 1       |

```
      00 01 02 03 04 05 06 07  08 09 0A 0B 0C 0D 0E 0F
      -- -- -- -- -- -- -- --  -- -- -- -- -- -- -- --
02F0:                          00                               .       
```

#### Opcodes

```
  0: 0x02F8 [0x00] END_REQSTACK()
```

### Event 65535.42

#### Metadata

| Field        | Value    |
|--------------|----------|
| Entrypoint   | 0x02F9   |
| Data Size    | 15 bytes |
| Instructions | 3        |

```
      00 01 02 03 04 05 06 07  08 09 0A 0B 0C 0D 0E 0F
      -- -- -- -- -- -- -- --  -- -- -- -- -- -- -- --
02F0:                             37 65 80 66 80 13 80           7e.f...
0300: 67 80 80 F8 FF FF 7F 00                           g.......        
```

#### Opcodes

```
  0: 0x02F9 [0x37] UPDATE_EVENT_POSITION_AND_DIR: x=-92.920*, z=11.443*, y=1.999*, direction=74.1°*
  1: 0x0302 [0x80] LOAD_WAIT(entity=EventEntity)
  2: 0x0307 [0x00] END_REQSTACK()
```

### Event 903

#### Metadata

| Field        | Value   |
|--------------|---------|
| Entrypoint   | 0x0308  |
| Data Size    | 1 bytes |
| Instructions | 1       |

```
      00 01 02 03 04 05 06 07  08 09 0A 0B 0C 0D 0E 0F
      -- -- -- -- -- -- -- --  -- -- -- -- -- -- -- --
0300:                          00                               .       
```

#### Opcodes

```
  0: 0x0308 [0x00] END_REQSTACK()
```

### Event 65535.43

#### Metadata

| Field        | Value    |
|--------------|----------|
| Entrypoint   | 0x0309   |
| Data Size    | 15 bytes |
| Instructions | 3        |

```
      00 01 02 03 04 05 06 07  08 09 0A 0B 0C 0D 0E 0F
      -- -- -- -- -- -- -- --  -- -- -- -- -- -- -- --
0300:                             37 68 80 69 80 4B 80           7h.i.K.
0310: 6A 80 80 F8 FF FF 7F 00                           j.......        
```

#### Opcodes

```
  0: 0x0309 [0x37] UPDATE_EVENT_POSITION_AND_DIR: x=-17.890*, z=22.618*, y=-9.244*, direction=52.7°*
  1: 0x0312 [0x80] LOAD_WAIT(entity=EventEntity)
  2: 0x0317 [0x00] END_REQSTACK()
```

### Event 904

#### Metadata

| Field        | Value   |
|--------------|---------|
| Entrypoint   | 0x0318  |
| Data Size    | 1 bytes |
| Instructions | 1       |

```
      00 01 02 03 04 05 06 07  08 09 0A 0B 0C 0D 0E 0F
      -- -- -- -- -- -- -- --  -- -- -- -- -- -- -- --
0310:                          00                               .       
```

#### Opcodes

```
  0: 0x0318 [0x00] END_REQSTACK()
```

### Event 65535.44

#### Metadata

| Field        | Value    |
|--------------|----------|
| Entrypoint   | 0x0319   |
| Data Size    | 15 bytes |
| Instructions | 3        |

```
      00 01 02 03 04 05 06 07  08 09 0A 0B 0C 0D 0E 0F
      -- -- -- -- -- -- -- --  -- -- -- -- -- -- -- --
0310:                             37 6B 80 6C 80 13 80           7k.l...
0320: 6D 80 80 F8 FF FF 7F 00                           m.......        
```

#### Opcodes

```
  0: 0x0319 [0x37] UPDATE_EVENT_POSITION_AND_DIR: x=-71.828*, z=-7.896*, y=1.999*, direction=314.2°*
  1: 0x0322 [0x80] LOAD_WAIT(entity=EventEntity)
  2: 0x0327 [0x00] END_REQSTACK()
```

### Event 913

#### Metadata

| Field        | Value   |
|--------------|---------|
| Entrypoint   | 0x0328  |
| Data Size    | 1 bytes |
| Instructions | 1       |

```
      00 01 02 03 04 05 06 07  08 09 0A 0B 0C 0D 0E 0F
      -- -- -- -- -- -- -- --  -- -- -- -- -- -- -- --
0320:                          00                               .       
```

#### Opcodes

```
  0: 0x0328 [0x00] END_REQSTACK()
```

### Event 65535.45

#### Metadata

| Field        | Value    |
|--------------|----------|
| Entrypoint   | 0x0329   |
| Data Size    | 15 bytes |
| Instructions | 3        |

```
      00 01 02 03 04 05 06 07  08 09 0A 0B 0C 0D 0E 0F
      -- -- -- -- -- -- -- --  -- -- -- -- -- -- -- --
0320:                             37 6E 80 6F 80 32 80           7n.o.2.
0330: 70 80 80 F8 FF FF 7F 00                           p.......        
```

#### Opcodes

```
  0: 0x0329 [0x37] UPDATE_EVENT_POSITION_AND_DIR: x=-21.467*, z=-23.524*, y=-9.999*, direction=120.0°*
  1: 0x0332 [0x80] LOAD_WAIT(entity=EventEntity)
  2: 0x0337 [0x00] END_REQSTACK()
```

### Event 905

#### Metadata

| Field        | Value   |
|--------------|---------|
| Entrypoint   | 0x0338  |
| Data Size    | 1 bytes |
| Instructions | 1       |

```
      00 01 02 03 04 05 06 07  08 09 0A 0B 0C 0D 0E 0F
      -- -- -- -- -- -- -- --  -- -- -- -- -- -- -- --
0330:                          00                               .       
```

#### Opcodes

```
  0: 0x0338 [0x00] END_REQSTACK()
```

### Event 65535.46

#### Metadata

| Field        | Value    |
|--------------|----------|
| Entrypoint   | 0x0339   |
| Data Size    | 20 bytes |
| Instructions | 4        |

```
      00 01 02 03 04 05 06 07  08 09 0A 0B 0C 0D 0E 0F
      -- -- -- -- -- -- -- --  -- -- -- -- -- -- -- --
0330:                             37 71 80 72 80 32 80           7q.r.2.
0340: 73 80 80 F8 FF FF 7F 1E  27 D0 0E 01 00           s.......'....   
```

#### Opcodes

```
  0: 0x0339 [0x37] UPDATE_EVENT_POSITION_AND_DIR: x=-28.400*, z=-29.918*, y=-9.999*, direction=307.8°*
  1: 0x0342 [0x80] LOAD_WAIT(entity=EventEntity)
  2: 0x0347 [0x1E] EventEntity looks at Hungry Wolf (ID: 17748007/0x010ED027) and starts talking
  3: 0x034C [0x00] END_REQSTACK()
```

### Event 906

#### Metadata

| Field        | Value   |
|--------------|---------|
| Entrypoint   | 0x034D  |
| Data Size    | 1 bytes |
| Instructions | 1       |

```
      00 01 02 03 04 05 06 07  08 09 0A 0B 0C 0D 0E 0F
      -- -- -- -- -- -- -- --  -- -- -- -- -- -- -- --
0340:                                         00                     .  
```

#### Opcodes

```
  0: 0x034D [0x00] END_REQSTACK()
```

### Event 65535.47

#### Metadata

| Field        | Value    |
|--------------|----------|
| Entrypoint   | 0x034E   |
| Data Size    | 15 bytes |
| Instructions | 3        |

```
      00 01 02 03 04 05 06 07  08 09 0A 0B 0C 0D 0E 0F
      -- -- -- -- -- -- -- --  -- -- -- -- -- -- -- --
0340:                                            37 74                7t
0350: 80 75 80 13 80 76 80 80  F8 FF FF 7F 00           .u...v.......   
```

#### Opcodes

```
  0: 0x034E [0x37] UPDATE_EVENT_POSITION_AND_DIR: x=-80.995*, z=18.430*, y=1.999*, direction=346.9°*
  1: 0x0357 [0x80] LOAD_WAIT(entity=EventEntity)
  2: 0x035C [0x00] END_REQSTACK()
```

### Event 920

#### Metadata

| Field        | Value   |
|--------------|---------|
| Entrypoint   | 0x035D  |
| Data Size    | 1 bytes |
| Instructions | 1       |

```
      00 01 02 03 04 05 06 07  08 09 0A 0B 0C 0D 0E 0F
      -- -- -- -- -- -- -- --  -- -- -- -- -- -- -- --
0350:                                         00                     .  
```

#### Opcodes

```
  0: 0x035D [0x00] END_REQSTACK()
```

### Event 65535.48

#### Metadata

| Field        | Value    |
|--------------|----------|
| Entrypoint   | 0x035E   |
| Data Size    | 15 bytes |
| Instructions | 3        |

```
      00 01 02 03 04 05 06 07  08 09 0A 0B 0C 0D 0E 0F
      -- -- -- -- -- -- -- --  -- -- -- -- -- -- -- --
0350:                                            37 77                7w
0360: 80 78 80 03 80 79 80 80  F8 FF FF 7F 00           .x...y.......   
```

#### Opcodes

```
  0: 0x035E [0x37] UPDATE_EVENT_POSITION_AND_DIR: x=-27.641*, z=0.117*, y=7.999*, direction=348.9°*
  1: 0x0367 [0x80] LOAD_WAIT(entity=EventEntity)
  2: 0x036C [0x00] END_REQSTACK()
```

### Event 65535.49

#### Metadata

| Field        | Value    |
|--------------|----------|
| Entrypoint   | 0x036D   |
| Data Size    | 14 bytes |
| Instructions | 4        |

```
      00 01 02 03 04 05 06 07  08 09 0A 0B 0C 0D 0E 0F
      -- -- -- -- -- -- -- --  -- -- -- -- -- -- -- --
0360:                                         32 00 80               2..
0370: 1F 00 7A 80 7B 80 03 80  1F 01 00                 ..z.{......     
```

#### Opcodes

```
  0: 0x036D [0x32] ExtData[1]->MainSpeed = 13* * 0.1
  1: 0x0370 [0x1F] MOVE_ENTITY: EventEntity moves to X=-24.462*, Z=-0.065*, Y=7.999*
  2: 0x0378 [0x1F] MOVE_ENTITY: Update entity position (mode=1)
  3: 0x037A [0x00] END_REQSTACK()
```

### Event 65535.50

#### Metadata

| Field        | Value    |
|--------------|----------|
| Entrypoint   | 0x037B   |
| Data Size    | 24 bytes |
| Instructions | 6        |

```
      00 01 02 03 04 05 06 07  08 09 0A 0B 0C 0D 0E 0F
      -- -- -- -- -- -- -- --  -- -- -- -- -- -- -- --
0370:                                   32 0C 80 1F 00             2....
0380: 7C 80 7D 80 03 80 1F 01  1F 00 7E 80 7F 80 03 80  |.}.......~.....
0390: 1F 01 00                                          ...             
```

#### Opcodes

```
  0: 0x037B [0x32] ExtData[1]->MainSpeed = 40* * 0.1
  1: 0x037E [0x1F] MOVE_ENTITY: EventEntity moves to X=-26.969*, Z=0.983*, Y=7.999*
  2: 0x0386 [0x1F] MOVE_ENTITY: Update entity position (mode=1)
  3: 0x0388 [0x1F] MOVE_ENTITY: EventEntity moves to X=-31.059*, Z=-0.022*, Y=7.999*
  4: 0x0390 [0x1F] MOVE_ENTITY: Update entity position (mode=1)
  5: 0x0392 [0x00] END_REQSTACK()
```

### Event 65535.51

#### Metadata

| Field        | Value    |
|--------------|----------|
| Entrypoint   | 0x0393   |
| Data Size    | 15 bytes |
| Instructions | 3        |

```
      00 01 02 03 04 05 06 07  08 09 0A 0B 0C 0D 0E 0F
      -- -- -- -- -- -- -- --  -- -- -- -- -- -- -- --
0390:          37 80 80 81 80  32 80 82 80 80 F8 FF FF     7....2.......
03A0: 7F 00                                             ..              
```

#### Opcodes

```
  0: 0x0393 [0x37] UPDATE_EVENT_POSITION_AND_DIR: x=-17.812*, z=-23.321*, y=-9.999*, direction=108.6°*
  1: 0x039C [0x80] LOAD_WAIT(entity=EventEntity)
  2: 0x03A1 [0x00] END_REQSTACK()
```

### Event 65535.52

#### Metadata

| Field        | Value    |
|--------------|----------|
| Entrypoint   | 0x03A2   |
| Data Size    | 24 bytes |
| Instructions | 6        |

```
      00 01 02 03 04 05 06 07  08 09 0A 0B 0C 0D 0E 0F
      -- -- -- -- -- -- -- --  -- -- -- -- -- -- -- --
03A0:       32 0C 80 1F 00 83  80 84 80 32 80 1F 01 1F    2........2....
03B0: 00 85 80 86 80 32 80 1F  01 00                    .....2....      
```

#### Opcodes

```
  0: 0x03A2 [0x32] ExtData[1]->MainSpeed = 40* * 0.1
  1: 0x03A5 [0x1F] MOVE_ENTITY: EventEntity moves to X=-18.059*, Z=-21.187*, Y=-9.999*
  2: 0x03AD [0x1F] MOVE_ENTITY: Update entity position (mode=1)
  3: 0x03AF [0x1F] MOVE_ENTITY: EventEntity moves to X=-20.574*, Z=-20.898*, Y=-9.999*
  4: 0x03B7 [0x1F] MOVE_ENTITY: Update entity position (mode=1)
  5: 0x03B9 [0x00] END_REQSTACK()
```

### Event 65535.53

#### Metadata

| Field        | Value    |
|--------------|----------|
| Entrypoint   | 0x03BA   |
| Data Size    | 15 bytes |
| Instructions | 3        |

```
      00 01 02 03 04 05 06 07  08 09 0A 0B 0C 0D 0E 0F
      -- -- -- -- -- -- -- --  -- -- -- -- -- -- -- --
03B0:                                37 87 80 88 80 32            7....2
03C0: 80 89 80 80 F8 FF FF 7F  00                       .........       
```

#### Opcodes

```
  0: 0x03BA [0x37] UPDATE_EVENT_POSITION_AND_DIR: x=-31.264*, z=-16.867*, y=-9.999*, direction=49.2°*
  1: 0x03C3 [0x80] LOAD_WAIT(entity=EventEntity)
  2: 0x03C8 [0x00] END_REQSTACK()
```

### Event 65535.54

#### Metadata

| Field        | Value    |
|--------------|----------|
| Entrypoint   | 0x03C9   |
| Data Size    | 14 bytes |
| Instructions | 4        |

```
      00 01 02 03 04 05 06 07  08 09 0A 0B 0C 0D 0E 0F
      -- -- -- -- -- -- -- --  -- -- -- -- -- -- -- --
03C0:                             32 00 80 1F 00 8A 80           2......
03D0: 8B 80 32 80 1F 01 00                              ..2....         
```

#### Opcodes

```
  0: 0x03C9 [0x32] ExtData[1]->MainSpeed = 13* * 0.1
  1: 0x03CC [0x1F] MOVE_ENTITY: EventEntity moves to X=-28.070*, Z=-20.842*, Y=-9.999*
  2: 0x03D4 [0x1F] MOVE_ENTITY: Update entity position (mode=1)
  3: 0x03D6 [0x00] END_REQSTACK()
```

### Event 921

#### Metadata

| Field        | Value   |
|--------------|---------|
| Entrypoint   | 0x03D7  |
| Data Size    | 1 bytes |
| Instructions | 1       |

```
      00 01 02 03 04 05 06 07  08 09 0A 0B 0C 0D 0E 0F
      -- -- -- -- -- -- -- --  -- -- -- -- -- -- -- --
03D0:                      00                                  .        
```

#### Opcodes

```
  0: 0x03D7 [0x00] END_REQSTACK()
```

### Event 922

#### Metadata

| Field        | Value   |
|--------------|---------|
| Entrypoint   | 0x03D8  |
| Data Size    | 1 bytes |
| Instructions | 1       |

```
      00 01 02 03 04 05 06 07  08 09 0A 0B 0C 0D 0E 0F
      -- -- -- -- -- -- -- --  -- -- -- -- -- -- -- --
03D0:                          00                               .       
```

#### Opcodes

```
  0: 0x03D8 [0x00] END_REQSTACK()
```

### Event 65535.55

#### Metadata

| Field        | Value    |
|--------------|----------|
| Entrypoint   | 0x03D9   |
| Data Size    | 15 bytes |
| Instructions | 3        |

```
      00 01 02 03 04 05 06 07  08 09 0A 0B 0C 0D 0E 0F
      -- -- -- -- -- -- -- --  -- -- -- -- -- -- -- --
03D0:                             37 8C 80 8D 80 13 80           7......
03E0: 8E 80 80 F8 FF FF 7F 00                           ........        
```

#### Opcodes

```
  0: 0x03D9 [0x37] UPDATE_EVENT_POSITION_AND_DIR: x=-87.530*, z=-7.536*, y=1.999*, direction=291.2°*
  1: 0x03E2 [0x80] LOAD_WAIT(entity=EventEntity)
  2: 0x03E7 [0x00] END_REQSTACK()
```

### Event 924

#### Metadata

| Field        | Value   |
|--------------|---------|
| Entrypoint   | 0x03E8  |
| Data Size    | 1 bytes |
| Instructions | 1       |

```
      00 01 02 03 04 05 06 07  08 09 0A 0B 0C 0D 0E 0F
      -- -- -- -- -- -- -- --  -- -- -- -- -- -- -- --
03E0:                          00                               .       
```

#### Opcodes

```
  0: 0x03E8 [0x00] END_REQSTACK()
```

### Event 930

#### Metadata

| Field        | Value   |
|--------------|---------|
| Entrypoint   | 0x03E9  |
| Data Size    | 1 bytes |
| Instructions | 1       |

```
      00 01 02 03 04 05 06 07  08 09 0A 0B 0C 0D 0E 0F
      -- -- -- -- -- -- -- --  -- -- -- -- -- -- -- --
03E0:                             00                             .      
```

#### Opcodes

```
  0: 0x03E9 [0x00] END_REQSTACK()
```
