# 17748081 - Gumbah

## Common Data

| Field            | Value                |
|------------------|----------------------|
| Zone             | Metalworks (ID: 237) |
| Block Size       | 264 bytes            |
| Total Events     | 10                   |
| References Count | 22                   |

## List of Events

| Event ID                 | Entrypoint   |   Size |   Instructions |
|--------------------------|--------------|--------|----------------|
| [65535](#event-65535)    | 0x0000       |      1 |              1 |
| [764](#event-764)        | 0x0001       |      1 |              1 |
| [65535.1](#event-655351) | 0x0002       |     35 |              7 |
| [65535.2](#event-655352) | 0x0025       |     14 |              4 |
| [773](#event-773)        | 0x0033       |      1 |              1 |
| [65535.3](#event-655353) | 0x0034       |     26 |              7 |
| [65535.4](#event-655354) | 0x004E       |     14 |              4 |
| [65535.5](#event-655355) | 0x005C       |     14 |              4 |
| [782](#event-782)        | 0x006A       |      1 |              1 |
| [65535.6](#event-655356) | 0x006B       |     10 |              2 |

## DAT References (imed_data)

|   Index | Hex Value   |   Dec Value |
|---------|-------------|-------------|
|       0 | 0x0021      |          33 |
|       1 | 0xFFFF3952  |  4294916434 |
|       2 | 0xFFFFD10C  |  4294955276 |
|       3 | 0xFFFFD8EF  |  4294957295 |
|       4 | 0x023D      |         573 |
|       5 | 0xFFFF48AE  |  4294920366 |
|       6 | 0xFFFFD168  |  4294955368 |
|       7 | 0x0009      |           9 |
|       8 | 0x000B      |          11 |
|       9 | 0x16809     |       92169 |
|      10 | 0x394D      |       14669 |
|      11 | 0xFFFFB127  |  4294947111 |
|      12 | 0x0FDC      |        4060 |
|      13 | 0x176B9     |       95929 |
|      14 | 0x3A95      |       14997 |
|      15 | 0xFFFFB136  |  4294947126 |
|      16 | 0x17655     |       95829 |
|      17 | 0x3DB5      |       15797 |
|      18 | 0xD11C      |       53532 |
|      19 | 0xFFFF6EE3  |  4294930147 |
|      20 | 0xFFFFFFCD  |  4294967245 |
|      21 | 0x0A1D      |        2589 |

## Events

### Event 65535

#### Metadata

| Field        | Value   |
|--------------|---------|
| Entrypoint   | 0x0000  |
| Data Size    | 1 bytes |
| Instructions | 1       |

```
      00 01 02 03 04 05 06 07  08 09 0A 0B 0C 0D 0E 0F
      -- -- -- -- -- -- -- --  -- -- -- -- -- -- -- --
0000: 00                                                .               
```

#### Opcodes

```
  0: 0x0000 [0x00] END_REQSTACK()
```

### Event 764

#### Metadata

| Field        | Value   |
|--------------|---------|
| Entrypoint   | 0x0001  |
| Data Size    | 1 bytes |
| Instructions | 1       |

```
      00 01 02 03 04 05 06 07  08 09 0A 0B 0C 0D 0E 0F
      -- -- -- -- -- -- -- --  -- -- -- -- -- -- -- --
0000:    00                                              .              
```

#### Opcodes

```
  0: 0x0001 [0x00] END_REQSTACK()
```

### Event 65535.1

#### Metadata

| Field        | Value    |
|--------------|----------|
| Entrypoint   | 0x0002   |
| Data Size    | 35 bytes |
| Instructions | 7        |

```
      00 01 02 03 04 05 06 07  08 09 0A 0B 0C 0D 0E 0F
      -- -- -- -- -- -- -- --  -- -- -- -- -- -- -- --
0000:       22 00 79 00 F8 FF  FF 7F 32 D0 0E 01 32 00    ".y.....2...2.
0010: 80 37 01 80 02 80 03 80  04 80 1F 00 05 80 06 80  .7..............
0020: 03 80 1F 01 00                                    .....           
```

#### Opcodes

```
  0: 0x0002 [0x22] ENTITY_HIDE_FLAG(enabled=0x00)
  1: 0x0004 [0x79] EventEntity looks at Cornelia (ID: 17748018/0x010ED032) (Basic look)
  2: 0x000E [0x32] ExtData[1]->MainSpeed = 33* * 0.1
  3: 0x0011 [0x37] UPDATE_EVENT_POSITION_AND_DIR: x=-50.862*, z=-12.020*, y=-10.001*, direction=50.4°*
  4: 0x001A [0x1F] MOVE_ENTITY: EventEntity moves to X=-46.930*, Z=-11.928*, Y=-10.001*
  5: 0x0022 [0x1F] MOVE_ENTITY: Update entity position (mode=1)
  6: 0x0024 [0x00] END_REQSTACK()
```

### Event 65535.2

#### Metadata

| Field        | Value    |
|--------------|----------|
| Entrypoint   | 0x0025   |
| Data Size    | 14 bytes |
| Instructions | 4        |

```
      00 01 02 03 04 05 06 07  08 09 0A 0B 0C 0D 0E 0F
      -- -- -- -- -- -- -- --  -- -- -- -- -- -- -- --
0020:                32 07 80  1F 00 01 80 02 80 03 80       2..........
0030: 1F 01 00                                          ...             
```

#### Opcodes

```
  0: 0x0025 [0x32] ExtData[1]->MainSpeed = 9* * 0.1
  1: 0x0028 [0x1F] MOVE_ENTITY: EventEntity moves to X=-50.862*, Z=-12.020*, Y=-10.001*
  2: 0x0030 [0x1F] MOVE_ENTITY: Update entity position (mode=1)
  3: 0x0032 [0x00] END_REQSTACK()
```

### Event 773

#### Metadata

| Field        | Value   |
|--------------|---------|
| Entrypoint   | 0x0033  |
| Data Size    | 1 bytes |
| Instructions | 1       |

```
      00 01 02 03 04 05 06 07  08 09 0A 0B 0C 0D 0E 0F
      -- -- -- -- -- -- -- --  -- -- -- -- -- -- -- --
0030:          00                                          .            
```

#### Opcodes

```
  0: 0x0033 [0x00] END_REQSTACK()
```

### Event 65535.3

#### Metadata

| Field        | Value    |
|--------------|----------|
| Entrypoint   | 0x0034   |
| Data Size    | 26 bytes |
| Instructions | 7        |

```
      00 01 02 03 04 05 06 07  08 09 0A 0B 0C 0D 0E 0F
      -- -- -- -- -- -- -- --  -- -- -- -- -- -- -- --
0030:             32 08 80 37  09 80 0A 80 0B 80 0C 80      2..7........
0040: 22 00 1F 00 0D 80 0E 80  0F 80 1F 01 6F 00        "...........o.  
```

#### Opcodes

```
  0: 0x0034 [0x32] ExtData[1]->MainSpeed = 11* * 0.1
  1: 0x0037 [0x37] UPDATE_EVENT_POSITION_AND_DIR: x=92.169*, z=14.669*, y=-20.185*, direction=356.8°*
  2: 0x0040 [0x22] ENTITY_HIDE_FLAG(enabled=0x00)
  3: 0x0042 [0x1F] MOVE_ENTITY: EventEntity moves to X=95.929*, Z=14.997*, Y=-20.170*
  4: 0x004A [0x1F] MOVE_ENTITY: Update entity position (mode=1)
  5: 0x004C [0x6F] WAIT_FRAME_DELAY: Yield until WaitTime reaches zero
  6: 0x004D [0x00] END_REQSTACK()
```

### Event 65535.4

#### Metadata

| Field        | Value    |
|--------------|----------|
| Entrypoint   | 0x004E   |
| Data Size    | 14 bytes |
| Instructions | 4        |

```
      00 01 02 03 04 05 06 07  08 09 0A 0B 0C 0D 0E 0F
      -- -- -- -- -- -- -- --  -- -- -- -- -- -- -- --
0040:                                            32 08                2.
0050: 80 1F 00 10 80 11 80 0F  80 1F 01 00              ............    
```

#### Opcodes

```
  0: 0x004E [0x32] ExtData[1]->MainSpeed = 11* * 0.1
  1: 0x0051 [0x1F] MOVE_ENTITY: EventEntity moves to X=95.829*, Z=15.797*, Y=-20.170*
  2: 0x0059 [0x1F] MOVE_ENTITY: Update entity position (mode=1)
  3: 0x005B [0x00] END_REQSTACK()
```

### Event 65535.5

#### Metadata

| Field        | Value    |
|--------------|----------|
| Entrypoint   | 0x005C   |
| Data Size    | 14 bytes |
| Instructions | 4        |

```
      00 01 02 03 04 05 06 07  08 09 0A 0B 0C 0D 0E 0F
      -- -- -- -- -- -- -- --  -- -- -- -- -- -- -- --
0050:                                      32 08 80 1F              2...
0060: 00 09 80 0A 80 0B 80 1F  01 00                    ..........      
```

#### Opcodes

```
  0: 0x005C [0x32] ExtData[1]->MainSpeed = 11* * 0.1
  1: 0x005F [0x1F] MOVE_ENTITY: EventEntity moves to X=92.169*, Z=14.669*, Y=-20.185*
  2: 0x0067 [0x1F] MOVE_ENTITY: Update entity position (mode=1)
  3: 0x0069 [0x00] END_REQSTACK()
```

### Event 782

#### Metadata

| Field        | Value   |
|--------------|---------|
| Entrypoint   | 0x006A  |
| Data Size    | 1 bytes |
| Instructions | 1       |

```
      00 01 02 03 04 05 06 07  08 09 0A 0B 0C 0D 0E 0F
      -- -- -- -- -- -- -- --  -- -- -- -- -- -- -- --
0060:                                00                           .     
```

#### Opcodes

```
  0: 0x006A [0x00] END_REQSTACK()
```

### Event 65535.6

#### Metadata

| Field        | Value    |
|--------------|----------|
| Entrypoint   | 0x006B   |
| Data Size    | 10 bytes |
| Instructions | 2        |

```
      00 01 02 03 04 05 06 07  08 09 0A 0B 0C 0D 0E 0F
      -- -- -- -- -- -- -- --  -- -- -- -- -- -- -- --
0060:                                   37 12 80 13 80             7....
0070: 14 80 15 80 00                                    .....           
```

#### Opcodes

```
  0: 0x006B [0x37] UPDATE_EVENT_POSITION_AND_DIR: x=53.532*, z=-37.149*, y=-0.051*, direction=227.5°*
  1: 0x0074 [0x00] END_REQSTACK()
```
