# 17748079 - Pagdako

## Common Data

| Field            | Value                |
|------------------|----------------------|
| Zone             | Metalworks (ID: 237) |
| Block Size       | 124 bytes            |
| Total Events     | 4                    |
| References Count | 9                    |

## List of Events

| Event ID                 | Entrypoint   |   Size |   Instructions |
|--------------------------|--------------|--------|----------------|
| [65535](#event-65535)    | 0x0000       |      1 |              1 |
| [750](#event-750)        | 0x0001       |     10 |              2 |
| [65535.1](#event-655351) | 0x000B       |     31 |              7 |
| [65535.2](#event-655352) | 0x002A       |     14 |              4 |

## DAT References (imed_data)

|   Index | Hex Value   |   Dec Value |
|---------|-------------|-------------|
|       0 | 0x0ED7      |        3799 |
|       1 | 0xFFFFD74F  |  4294956879 |
|       2 | 0xFFFFC951  |  4294953297 |
|       3 | 0x0736      |        1846 |
|       4 | 0x0028      |          40 |
|       5 | 0x031F      |         799 |
|       6 | 0x000D      |          13 |
|       7 | 0xFFFFFED3  |  4294966995 |
|       8 | 0xFFFFD461  |  4294956129 |

## Events

### Event 65535

#### Metadata

| Field        | Value   |
|--------------|---------|
| Entrypoint   | 0x0000  |
| Data Size    | 1 bytes |
| Instructions | 1       |

```
      00 01 02 03 04 05 06 07  08 09 0A 0B 0C 0D 0E 0F
      -- -- -- -- -- -- -- --  -- -- -- -- -- -- -- --
0000: 00                                                .               
```

#### Opcodes

```
  0: 0x0000 [0x00] END_REQSTACK()
```

### Event 750

#### Metadata

| Field        | Value    |
|--------------|----------|
| Entrypoint   | 0x0001   |
| Data Size    | 10 bytes |
| Instructions | 2        |

```
      00 01 02 03 04 05 06 07  08 09 0A 0B 0C 0D 0E 0F
      -- -- -- -- -- -- -- --  -- -- -- -- -- -- -- --
0000:    37 00 80 01 80 02 80  03 80 00                  7.........     
```

#### Opcodes

```
  0: 0x0001 [0x37] UPDATE_EVENT_POSITION_AND_DIR: x=3.799*, z=-10.417*, y=-13.999*, direction=162.2°*
  1: 0x000A [0x00] END_REQSTACK()
```

### Event 65535.1

#### Metadata

| Field        | Value    |
|--------------|----------|
| Entrypoint   | 0x000B   |
| Data Size    | 31 bytes |
| Instructions | 7        |

```
      00 01 02 03 04 05 06 07  08 09 0A 0B 0C 0D 0E 0F
      -- -- -- -- -- -- -- --  -- -- -- -- -- -- -- --
0000:                                   22 00 32 04 80             ".2..
0010: 79 00 F8 FF FF 7F 6E D0  0E 01 1F 00 05 80 01 80  y.....n.........
0020: 02 80 1F 01 1E 6E D0 0E  01 00                    .....n....      
```

#### Opcodes

```
  0: 0x000B [0x22] ENTITY_HIDE_FLAG(enabled=0x00)
  1: 0x000D [0x32] ExtData[1]->MainSpeed = 40* * 0.1
  2: 0x0010 [0x79] EventEntity looks at Raogrimm (ID: 17748078/0x010ED06E) (Basic look)
  3: 0x001A [0x1F] MOVE_ENTITY: EventEntity moves to X=0.799*, Z=-10.417*, Y=-13.999*
  4: 0x0022 [0x1F] MOVE_ENTITY: Update entity position (mode=1)
  5: 0x0024 [0x1E] EventEntity looks at Raogrimm (ID: 17748078/0x010ED06E) and starts talking
  6: 0x0029 [0x00] END_REQSTACK()
```

### Event 65535.2

#### Metadata

| Field        | Value    |
|--------------|----------|
| Entrypoint   | 0x002A   |
| Data Size    | 14 bytes |
| Instructions | 4        |

```
      00 01 02 03 04 05 06 07  08 09 0A 0B 0C 0D 0E 0F
      -- -- -- -- -- -- -- --  -- -- -- -- -- -- -- --
0020:                                32 06 80 1F 00 07            2.....
0030: 80 08 80 02 80 1F 01 00                           ........        
```

#### Opcodes

```
  0: 0x002A [0x32] ExtData[1]->MainSpeed = 13* * 0.1
  1: 0x002D [0x1F] MOVE_ENTITY: EventEntity moves to X=-0.301*, Z=-11.167*, Y=-13.999*
  2: 0x0035 [0x1F] MOVE_ENTITY: Update entity position (mode=1)
  3: 0x0037 [0x00] END_REQSTACK()
```
