# 17748158 - Dannion

## Common Data

| Field            | Value                |
|------------------|----------------------|
| Zone             | Metalworks (ID: 237) |
| Block Size       | 532 bytes            |
| Total Events     | 22                   |
| References Count | 44                   |

## List of Events

| Event ID                   | Entrypoint   |   Size |   Instructions |
|----------------------------|--------------|--------|----------------|
| [65535](#event-65535)      | 0x0000       |      1 |              1 |
| [908](#event-908)          | 0x0001       |      1 |              1 |
| [65535.1](#event-655351)   | 0x0002       |     15 |              3 |
| [65535.2](#event-655352)   | 0x0011       |     14 |              4 |
| [65535.3](#event-655353)   | 0x001F       |     14 |              4 |
| [909](#event-909)          | 0x002D       |      1 |              1 |
| [65535.4](#event-655354)   | 0x002E       |     15 |              3 |
| [65535.5](#event-655355)   | 0x003D       |     14 |              4 |
| [65535.6](#event-655356)   | 0x004B       |     14 |              4 |
| [910](#event-910)          | 0x0059       |      1 |              1 |
| [65535.7](#event-655357)   | 0x005A       |     15 |              3 |
| [65535.8](#event-655358)   | 0x0069       |     14 |              4 |
| [65535.9](#event-655359)   | 0x0077       |     14 |              4 |
| [920](#event-920)          | 0x0085       |      1 |              1 |
| [65535.10](#event-6553510) | 0x0086       |     15 |              3 |
| [65535.11](#event-6553511) | 0x0095       |     14 |              4 |
| [65535.12](#event-6553512) | 0x00A3       |     14 |              4 |
| [65535.13](#event-6553513) | 0x00B1       |     15 |              3 |
| [65535.14](#event-6553514) | 0x00C0       |     14 |              4 |
| [65535.15](#event-6553515) | 0x00CE       |     15 |              3 |
| [65535.16](#event-6553516) | 0x00DD       |     29 |              7 |
| [929](#event-929)          | 0x00FA       |      1 |              1 |

## DAT References (imed_data)

|   Index | Hex Value   |   Dec Value |
|---------|-------------|-------------|
|       0 | 0xFFFF137D  |  4294906749 |
|       1 | 0x4444      |       17476 |
|       2 | 0x07CF      |        1999 |
|       3 | 0x08DF      |        2271 |
|       4 | 0x000D      |          13 |
|       5 | 0xFFFF07D1  |  4294903761 |
|       6 | 0x4A40      |       19008 |
|       7 | 0xFFFEFB95  |  4294900629 |
|       8 | 0x4D72      |       19826 |
|       9 | 0xFFFF8D16  |  4294937878 |
|      10 | 0xFFFFCBBE  |  4294953918 |
|      11 | 0x0000      |           0 |
|      12 | 0x09E9      |        2537 |
|      13 | 0xFFFF81C8  |  4294934984 |
|      14 | 0xFFFFD116  |  4294955286 |
|      15 | 0xFFFF7889  |  4294932617 |
|      16 | 0xFFFFDAE3  |  4294957795 |
|      17 | 0xFFFEC86E  |  4294887534 |
|      18 | 0x08CF      |        2255 |
|      19 | 0x0478      |        1144 |
|      20 | 0xFFFEC83C  |  4294887484 |
|      21 | 0x0083      |         131 |
|      22 | 0xFFFEC816  |  4294887446 |
|      23 | 0xFFFFF6CC  |  4294964940 |
|      24 | 0xFFFF9791  |  4294940561 |
|      25 | 0x005D      |          93 |
|      26 | 0x1F3F      |        7999 |
|      27 | 0x07D1      |        2001 |
|      28 | 0xFFFFA05D  |  4294942813 |
|      29 | 0xFFFFFFF4  |  4294967284 |
|      30 | 0xFFFF73FB  |  4294931451 |
|      31 | 0x0001      |           1 |
|      32 | 0xFFFF8BA4  |  4294937508 |
|      33 | 0xFFFFFF54  |  4294967124 |
|      34 | 0x0F05      |        3845 |
|      35 | 0xFFFF95C8  |  4294940104 |
|      36 | 0xFFFFFF86  |  4294967174 |
|      37 | 0xFFFF9C34  |  4294941748 |
|      38 | 0xFFFFF17D  |  4294963581 |
|      39 | 0x0B57      |        2903 |
|      40 | 0xFFFF933D  |  4294939453 |
|      41 | 0xFFFFF49F  |  4294964383 |
|      42 | 0xFFFF91C1  |  4294939073 |
|      43 | 0xFFFFF4EE  |  4294964462 |

## Events

### Event 65535

#### Metadata

| Field        | Value   |
|--------------|---------|
| Entrypoint   | 0x0000  |
| Data Size    | 1 bytes |
| Instructions | 1       |

```
      00 01 02 03 04 05 06 07  08 09 0A 0B 0C 0D 0E 0F
      -- -- -- -- -- -- -- --  -- -- -- -- -- -- -- --
0000: 00                                                .               
```

#### Opcodes

```
  0: 0x0000 [0x00] END_REQSTACK()
```

### Event 908

#### Metadata

| Field        | Value   |
|--------------|---------|
| Entrypoint   | 0x0001  |
| Data Size    | 1 bytes |
| Instructions | 1       |

```
      00 01 02 03 04 05 06 07  08 09 0A 0B 0C 0D 0E 0F
      -- -- -- -- -- -- -- --  -- -- -- -- -- -- -- --
0000:    00                                              .              
```

#### Opcodes

```
  0: 0x0001 [0x00] END_REQSTACK()
```

### Event 65535.1

#### Metadata

| Field        | Value    |
|--------------|----------|
| Entrypoint   | 0x0002   |
| Data Size    | 15 bytes |
| Instructions | 3        |

```
      00 01 02 03 04 05 06 07  08 09 0A 0B 0C 0D 0E 0F
      -- -- -- -- -- -- -- --  -- -- -- -- -- -- -- --
0000:       37 00 80 01 80 02  80 03 80 80 F8 FF FF 7F    7.............
0010: 00                                                .               
```

#### Opcodes

```
  0: 0x0002 [0x37] UPDATE_EVENT_POSITION_AND_DIR: x=-60.547*, z=17.476*, y=1.999*, direction=199.6°*
  1: 0x000B [0x80] LOAD_WAIT(entity=EventEntity)
  2: 0x0010 [0x00] END_REQSTACK()
```

### Event 65535.2

#### Metadata

| Field        | Value    |
|--------------|----------|
| Entrypoint   | 0x0011   |
| Data Size    | 14 bytes |
| Instructions | 4        |

```
      00 01 02 03 04 05 06 07  08 09 0A 0B 0C 0D 0E 0F
      -- -- -- -- -- -- -- --  -- -- -- -- -- -- -- --
0010:    32 04 80 1F 00 05 80  06 80 02 80 1F 01 00      2............. 
```

#### Opcodes

```
  0: 0x0011 [0x32] ExtData[1]->MainSpeed = 13* * 0.1
  1: 0x0014 [0x1F] MOVE_ENTITY: EventEntity moves to X=-63.535*, Z=19.008*, Y=1.999*
  2: 0x001C [0x1F] MOVE_ENTITY: Update entity position (mode=1)
  3: 0x001E [0x00] END_REQSTACK()
```

### Event 65535.3

#### Metadata

| Field        | Value    |
|--------------|----------|
| Entrypoint   | 0x001F   |
| Data Size    | 14 bytes |
| Instructions | 4        |

```
      00 01 02 03 04 05 06 07  08 09 0A 0B 0C 0D 0E 0F
      -- -- -- -- -- -- -- --  -- -- -- -- -- -- -- --
0010:                                               32                 2
0020: 04 80 1F 00 07 80 08 80  02 80 1F 01 00           .............   
```

#### Opcodes

```
  0: 0x001F [0x32] ExtData[1]->MainSpeed = 13* * 0.1
  1: 0x0022 [0x1F] MOVE_ENTITY: EventEntity moves to X=-66.667*, Z=19.826*, Y=1.999*
  2: 0x002A [0x1F] MOVE_ENTITY: Update entity position (mode=1)
  3: 0x002C [0x00] END_REQSTACK()
```

### Event 909

#### Metadata

| Field        | Value   |
|--------------|---------|
| Entrypoint   | 0x002D  |
| Data Size    | 1 bytes |
| Instructions | 1       |

```
      00 01 02 03 04 05 06 07  08 09 0A 0B 0C 0D 0E 0F
      -- -- -- -- -- -- -- --  -- -- -- -- -- -- -- --
0020:                                         00                     .  
```

#### Opcodes

```
  0: 0x002D [0x00] END_REQSTACK()
```

### Event 65535.4

#### Metadata

| Field        | Value    |
|--------------|----------|
| Entrypoint   | 0x002E   |
| Data Size    | 15 bytes |
| Instructions | 3        |

```
      00 01 02 03 04 05 06 07  08 09 0A 0B 0C 0D 0E 0F
      -- -- -- -- -- -- -- --  -- -- -- -- -- -- -- --
0020:                                            37 09                7.
0030: 80 0A 80 0B 80 0C 80 80  F8 FF FF 7F 00           .............   
```

#### Opcodes

```
  0: 0x002E [0x37] UPDATE_EVENT_POSITION_AND_DIR: x=-29.418*, z=-13.378*, y=0.000*, direction=223.0°*
  1: 0x0037 [0x80] LOAD_WAIT(entity=EventEntity)
  2: 0x003C [0x00] END_REQSTACK()
```

### Event 65535.5

#### Metadata

| Field        | Value    |
|--------------|----------|
| Entrypoint   | 0x003D   |
| Data Size    | 14 bytes |
| Instructions | 4        |

```
      00 01 02 03 04 05 06 07  08 09 0A 0B 0C 0D 0E 0F
      -- -- -- -- -- -- -- --  -- -- -- -- -- -- -- --
0030:                                         32 04 80               2..
0040: 1F 00 0D 80 0E 80 0B 80  1F 01 00                 ...........     
```

#### Opcodes

```
  0: 0x003D [0x32] ExtData[1]->MainSpeed = 13* * 0.1
  1: 0x0040 [0x1F] MOVE_ENTITY: EventEntity moves to X=-32.312*, Z=-12.010*, Y=0.000*
  2: 0x0048 [0x1F] MOVE_ENTITY: Update entity position (mode=1)
  3: 0x004A [0x00] END_REQSTACK()
```

### Event 65535.6

#### Metadata

| Field        | Value    |
|--------------|----------|
| Entrypoint   | 0x004B   |
| Data Size    | 14 bytes |
| Instructions | 4        |

```
      00 01 02 03 04 05 06 07  08 09 0A 0B 0C 0D 0E 0F
      -- -- -- -- -- -- -- --  -- -- -- -- -- -- -- --
0040:                                   32 04 80 1F 00             2....
0050: 0F 80 10 80 0B 80 1F 01  00                       .........       
```

#### Opcodes

```
  0: 0x004B [0x32] ExtData[1]->MainSpeed = 13* * 0.1
  1: 0x004E [0x1F] MOVE_ENTITY: EventEntity moves to X=-34.679*, Z=-9.501*, Y=0.000*
  2: 0x0056 [0x1F] MOVE_ENTITY: Update entity position (mode=1)
  3: 0x0058 [0x00] END_REQSTACK()
```

### Event 910

#### Metadata

| Field        | Value   |
|--------------|---------|
| Entrypoint   | 0x0059  |
| Data Size    | 1 bytes |
| Instructions | 1       |

```
      00 01 02 03 04 05 06 07  08 09 0A 0B 0C 0D 0E 0F
      -- -- -- -- -- -- -- --  -- -- -- -- -- -- -- --
0050:                             00                             .      
```

#### Opcodes

```
  0: 0x0059 [0x00] END_REQSTACK()
```

### Event 65535.7

#### Metadata

| Field        | Value    |
|--------------|----------|
| Entrypoint   | 0x005A   |
| Data Size    | 15 bytes |
| Instructions | 3        |

```
      00 01 02 03 04 05 06 07  08 09 0A 0B 0C 0D 0E 0F
      -- -- -- -- -- -- -- --  -- -- -- -- -- -- -- --
0050:                                37 11 80 12 80 02            7.....
0060: 80 13 80 80 F8 FF FF 7F  00                       .........       
```

#### Opcodes

```
  0: 0x005A [0x37] UPDATE_EVENT_POSITION_AND_DIR: x=-79.762*, z=2.255*, y=1.999*, direction=100.5°*
  1: 0x0063 [0x80] LOAD_WAIT(entity=EventEntity)
  2: 0x0068 [0x00] END_REQSTACK()
```

### Event 65535.8

#### Metadata

| Field        | Value    |
|--------------|----------|
| Entrypoint   | 0x0069   |
| Data Size    | 14 bytes |
| Instructions | 4        |

```
      00 01 02 03 04 05 06 07  08 09 0A 0B 0C 0D 0E 0F
      -- -- -- -- -- -- -- --  -- -- -- -- -- -- -- --
0060:                             32 04 80 1F 00 14 80           2......
0070: 15 80 02 80 1F 01 00                              .......         
```

#### Opcodes

```
  0: 0x0069 [0x32] ExtData[1]->MainSpeed = 13* * 0.1
  1: 0x006C [0x1F] MOVE_ENTITY: EventEntity moves to X=-79.812*, Z=0.131*, Y=1.999*
  2: 0x0074 [0x1F] MOVE_ENTITY: Update entity position (mode=1)
  3: 0x0076 [0x00] END_REQSTACK()
```

### Event 65535.9

#### Metadata

| Field        | Value    |
|--------------|----------|
| Entrypoint   | 0x0077   |
| Data Size    | 14 bytes |
| Instructions | 4        |

```
      00 01 02 03 04 05 06 07  08 09 0A 0B 0C 0D 0E 0F
      -- -- -- -- -- -- -- --  -- -- -- -- -- -- -- --
0070:                      32  04 80 1F 00 16 80 17 80         2........
0080: 02 80 1F 01 00                                    .....           
```

#### Opcodes

```
  0: 0x0077 [0x32] ExtData[1]->MainSpeed = 13* * 0.1
  1: 0x007A [0x1F] MOVE_ENTITY: EventEntity moves to X=-79.850*, Z=-2.356*, Y=1.999*
  2: 0x0082 [0x1F] MOVE_ENTITY: Update entity position (mode=1)
  3: 0x0084 [0x00] END_REQSTACK()
```

### Event 920

#### Metadata

| Field        | Value   |
|--------------|---------|
| Entrypoint   | 0x0085  |
| Data Size    | 1 bytes |
| Instructions | 1       |

```
      00 01 02 03 04 05 06 07  08 09 0A 0B 0C 0D 0E 0F
      -- -- -- -- -- -- -- --  -- -- -- -- -- -- -- --
0080:                00                                      .          
```

#### Opcodes

```
  0: 0x0085 [0x00] END_REQSTACK()
```

### Event 65535.10

#### Metadata

| Field        | Value    |
|--------------|----------|
| Entrypoint   | 0x0086   |
| Data Size    | 15 bytes |
| Instructions | 3        |

```
      00 01 02 03 04 05 06 07  08 09 0A 0B 0C 0D 0E 0F
      -- -- -- -- -- -- -- --  -- -- -- -- -- -- -- --
0080:                   37 18  80 19 80 1A 80 1B 80 80        7.........
0090: F8 FF FF 7F 00                                    .....           
```

#### Opcodes

```
  0: 0x0086 [0x37] UPDATE_EVENT_POSITION_AND_DIR: x=-26.735*, z=0.093*, y=7.999*, direction=175.9°*
  1: 0x008F [0x80] LOAD_WAIT(entity=EventEntity)
  2: 0x0094 [0x00] END_REQSTACK()
```

### Event 65535.11

#### Metadata

| Field        | Value    |
|--------------|----------|
| Entrypoint   | 0x0095   |
| Data Size    | 14 bytes |
| Instructions | 4        |

```
      00 01 02 03 04 05 06 07  08 09 0A 0B 0C 0D 0E 0F
      -- -- -- -- -- -- -- --  -- -- -- -- -- -- -- --
0090:                32 04 80  1F 00 1C 80 1D 80 1A 80       2..........
00A0: 1F 01 00                                          ...             
```

#### Opcodes

```
  0: 0x0095 [0x32] ExtData[1]->MainSpeed = 13* * 0.1
  1: 0x0098 [0x1F] MOVE_ENTITY: EventEntity moves to X=-24.483*, Z=-0.012*, Y=7.999*
  2: 0x00A0 [0x1F] MOVE_ENTITY: Update entity position (mode=1)
  3: 0x00A2 [0x00] END_REQSTACK()
```

### Event 65535.12

#### Metadata

| Field        | Value    |
|--------------|----------|
| Entrypoint   | 0x00A3   |
| Data Size    | 14 bytes |
| Instructions | 4        |

```
      00 01 02 03 04 05 06 07  08 09 0A 0B 0C 0D 0E 0F
      -- -- -- -- -- -- -- --  -- -- -- -- -- -- -- --
00A0:          32 04 80 1F 00  1E 80 1F 80 1A 80 1F 01     2............
00B0: 00                                                .               
```

#### Opcodes

```
  0: 0x00A3 [0x32] ExtData[1]->MainSpeed = 13* * 0.1
  1: 0x00A6 [0x1F] MOVE_ENTITY: EventEntity moves to X=-35.845*, Z=0.001*, Y=7.999*
  2: 0x00AE [0x1F] MOVE_ENTITY: Update entity position (mode=1)
  3: 0x00B0 [0x00] END_REQSTACK()
```

### Event 65535.13

#### Metadata

| Field        | Value    |
|--------------|----------|
| Entrypoint   | 0x00B1   |
| Data Size    | 15 bytes |
| Instructions | 3        |

```
      00 01 02 03 04 05 06 07  08 09 0A 0B 0C 0D 0E 0F
      -- -- -- -- -- -- -- --  -- -- -- -- -- -- -- --
00B0:    37 20 80 21 80 1A 80  22 80 80 F8 FF FF 7F 00   7 .!...".......
```

#### Opcodes

```
  0: 0x00B1 [0x37] UPDATE_EVENT_POSITION_AND_DIR: x=-29.788*, z=-0.172*, y=7.999*, direction=337.9°*
  1: 0x00BA [0x80] LOAD_WAIT(entity=EventEntity)
  2: 0x00BF [0x00] END_REQSTACK()
```

### Event 65535.14

#### Metadata

| Field        | Value    |
|--------------|----------|
| Entrypoint   | 0x00C0   |
| Data Size    | 14 bytes |
| Instructions | 4        |

```
      00 01 02 03 04 05 06 07  08 09 0A 0B 0C 0D 0E 0F
      -- -- -- -- -- -- -- --  -- -- -- -- -- -- -- --
00C0: 32 04 80 1F 00 23 80 24  80 1A 80 1F 01 00        2....#.$......  
```

#### Opcodes

```
  0: 0x00C0 [0x32] ExtData[1]->MainSpeed = 13* * 0.1
  1: 0x00C3 [0x1F] MOVE_ENTITY: EventEntity moves to X=-27.192*, Z=-0.122*, Y=7.999*
  2: 0x00CB [0x1F] MOVE_ENTITY: Update entity position (mode=1)
  3: 0x00CD [0x00] END_REQSTACK()
```

### Event 65535.15

#### Metadata

| Field        | Value    |
|--------------|----------|
| Entrypoint   | 0x00CE   |
| Data Size    | 15 bytes |
| Instructions | 3        |

```
      00 01 02 03 04 05 06 07  08 09 0A 0B 0C 0D 0E 0F
      -- -- -- -- -- -- -- --  -- -- -- -- -- -- -- --
00C0:                                            37 25                7%
00D0: 80 26 80 1A 80 27 80 80  F8 FF FF 7F 00           .&...'.......   
```

#### Opcodes

```
  0: 0x00CE [0x37] UPDATE_EVENT_POSITION_AND_DIR: x=-25.548*, z=-3.715*, y=7.999*, direction=255.1°*
  1: 0x00D7 [0x80] LOAD_WAIT(entity=EventEntity)
  2: 0x00DC [0x00] END_REQSTACK()
```

### Event 65535.16

#### Metadata

| Field        | Value    |
|--------------|----------|
| Entrypoint   | 0x00DD   |
| Data Size    | 29 bytes |
| Instructions | 7        |

```
      00 01 02 03 04 05 06 07  08 09 0A 0B 0C 0D 0E 0F
      -- -- -- -- -- -- -- --  -- -- -- -- -- -- -- --
00D0:                                         32 04 80               2..
00E0: 1F 00 28 80 29 80 1A 80  1F 01 1F 00 2A 80 2B 80  ..(.).......*.+.
00F0: 1A 80 1F 01 1E 1F D0 0E  01 00                    ..........      
```

#### Opcodes

```
  0: 0x00DD [0x32] ExtData[1]->MainSpeed = 13* * 0.1
  1: 0x00E0 [0x1F] MOVE_ENTITY: EventEntity moves to X=-27.843*, Z=-2.913*, Y=7.999*
  2: 0x00E8 [0x1F] MOVE_ENTITY: Update entity position (mode=1)
  3: 0x00EA [0x1F] MOVE_ENTITY: EventEntity moves to X=-28.223*, Z=-2.834*, Y=7.999*
  4: 0x00F2 [0x1F] MOVE_ENTITY: Update entity position (mode=1)
  5: 0x00F4 [0x1E] EventEntity looks at Salim (ID: 17747999/0x010ED01F) and starts talking
  6: 0x00F9 [0x00] END_REQSTACK()
```

### Event 929

#### Metadata

| Field        | Value   |
|--------------|---------|
| Entrypoint   | 0x00FA  |
| Data Size    | 1 bytes |
| Instructions | 1       |

```
      00 01 02 03 04 05 06 07  08 09 0A 0B 0C 0D 0E 0F
      -- -- -- -- -- -- -- --  -- -- -- -- -- -- -- --
00F0:                                00                           .     
```

#### Opcodes

```
  0: 0x00FA [0x00] END_REQSTACK()
```
