# 17748159

## Common Data

| Field            | Value                |
|------------------|----------------------|
| Zone             | Metalworks (ID: 237) |
| Block Size       | 104 bytes            |
| Total Events     | 3                    |
| References Count | 6                    |

## List of Events

| Event ID              | Entrypoint   |   Size |   Instructions |
|-----------------------|--------------|--------|----------------|
| [65535](#event-65535) | 0x0000       |      1 |              1 |
| [900](#event-900)     | 0x0001       |      1 |              1 |
| [907](#event-907)     | 0x0002       |     47 |             13 |

## DAT References (imed_data)

|   Index | Hex Value   |   Dec Value |
|---------|-------------|-------------|
|       0 | 0x2807      |       10247 |
|       1 | 0x003C      |          60 |
|       2 | 0x2808      |       10248 |
|       3 | 0x0001      |           1 |
|       4 | 0x0000      |           0 |
|       5 | 0x2809      |       10249 |

## String References

- **10247**: There appears to be a trap here.
- **10248**: Give up the quest? [Yes./No.]
- **10249**: You are no longer participating in the quest.

## Events

### Event 65535

#### Metadata

| Field        | Value   |
|--------------|---------|
| Entrypoint   | 0x0000  |
| Data Size    | 1 bytes |
| Instructions | 1       |

```
      00 01 02 03 04 05 06 07  08 09 0A 0B 0C 0D 0E 0F
      -- -- -- -- -- -- -- --  -- -- -- -- -- -- -- --
0000: 00                                                .               
```

#### Opcodes

```
  0: 0x0000 [0x00] END_REQSTACK()
```

### Event 900

#### Metadata

| Field        | Value   |
|--------------|---------|
| Entrypoint   | 0x0001  |
| Data Size    | 1 bytes |
| Instructions | 1       |

```
      00 01 02 03 04 05 06 07  08 09 0A 0B 0C 0D 0E 0F
      -- -- -- -- -- -- -- --  -- -- -- -- -- -- -- --
0000:    00                                              .              
```

#### Opcodes

```
  0: 0x0001 [0x00] END_REQSTACK()
```

### Event 907

#### Metadata

| Field        | Value    |
|--------------|----------|
| Entrypoint   | 0x0002   |
| Data Size    | 47 bytes |
| Instructions | 13       |

```
      00 01 02 03 04 05 06 07  08 09 0A 0B 0C 0D 0E 0F
      -- -- -- -- -- -- -- --  -- -- -- -- -- -- -- --
0000:       48 00 80 1C 01 80  24 02 80 03 80 04 80 25    H.....$......%
0010: 02 00 10 04 80 00 24 00  48 05 80 23 03 01 10 03  ......$.H..#....
0020: 80 01 2F 00 02 00 10 03  80 00 2F 00 01 2F 00 21  ../......./../.!
0030: 00                                                .               
```

#### Opcodes

```
  0: 0x0002 [0x48] [System] [10247*]:
    → "There appears to be a trap here."
  1: 0x0005 [0x1C] WAIT(60* ticks)
  2: 0x0008 [0x24] CREATE_DIALOG(message_id=10248*, default_option=1*, option_flags=0*)
    → "Give up the quest? [Yes./No.]"
  3: 0x000F [0x25] WAIT_DIALOG_SELECT()
  4: 0x0010 [0x02] IF !(Work_Zone[0] == 0*) GOTO 0x0024
  5: 0x0018 [0x48] [System] [10249*]:
    → "You are no longer participating in the quest."
  6: 0x001B [0x23] WAIT_FOR_DIALOG_INTERACTION
  7: 0x001C [0x03] Work_Zone[1] = 1*
  8: 0x0021 [0x01] GOTO 0x002F
  9: 0x0024 [0x02] IF !(Work_Zone[0] == 1*) GOTO 0x002F
 10: 0x002C [0x01] GOTO 0x002F

SUBROUTINE_002F:
 11: 0x002F [0x21] END_EVENT
 12: 0x0030 [0x00] END_REQSTACK()
```
