# 17748174

## Common Data

| Field            | Value                |
|------------------|----------------------|
| Zone             | Metalworks (ID: 237) |
| Block Size       | 7180 bytes           |
| Total Events     | 10                   |
| References Count | 173                  |

## List of Events

| Event ID              | Entrypoint   |   Size |   Instructions |
|-----------------------|--------------|--------|----------------|
| [65535](#event-65535) | 0x0000       |    658 |             62 |
| [968](#event-968)     | 0x0292       |   2722 |            315 |
| [204](#event-204)     | 0x0D34       |     61 |             13 |
| [205](#event-205)     | 0x0D71       |     88 |             18 |
| [206](#event-206)     | 0x0DC9       |     48 |             10 |
| [207](#event-207)     | 0x0DF9       |     83 |             17 |
| [254](#event-254)     | 0x0E4C       |     62 |             12 |
| [255](#event-255)     | 0x0E8A       |     75 |             17 |
| [256](#event-256)     | 0x0ED5       |     62 |             12 |
| [257](#event-257)     | 0x0F13       |   2573 |            362 |

## DAT References (imed_data)

|   Index | Hex Value   |   Dec Value |
|---------|-------------|-------------|
|       0 | 0x00C8      |         200 |
|       1 | 0x0000      |           0 |
|       2 | 0x00C9      |         201 |
|       3 | 0x0001      |           1 |
|       4 | 0x002D      |          45 |
|       5 | 0x0002      |           2 |
|       6 | 0x001E      |          30 |
|       7 | 0x00D7      |         215 |
|       8 | 0x0013      |          19 |
|       9 | 0x153B0     |       86960 |
|      10 | 0x04B5      |        1205 |
|      11 | 0xFFFFB3B4  |  4294947764 |
|      12 | 0x0FAC      |        4012 |
|      13 | 0x14832     |       84018 |
|      14 | 0xFFFFFD92  |  4294966674 |
|      15 | 0x19564     |      103780 |
|      16 | 0x0044      |          68 |
|      17 | 0xFFFFB12B  |  4294947115 |
|      18 | 0x18845     |      100421 |
|      19 | 0x0E97      |        3735 |
|      20 | 0xFFFFB136  |  4294947126 |
|      21 | 0x034D      |         845 |
|      22 | 0x000D      |          13 |
|      23 | 0x01EE      |         494 |
|      24 | 0x0078      |         120 |
|      25 | 0x2A68      |       10856 |
|      26 | 0x2A69      |       10857 |
|      27 | 0x000F      |          15 |
|      28 | 0x0045      |          69 |
|      29 | 0x2A6A      |       10858 |
|      30 | 0x003C      |          60 |
|      31 | 0x2A6B      |       10859 |
|      32 | 0x2A6C      |       10860 |
|      33 | 0x2A6D      |       10861 |
|      34 | 0x0014      |          20 |
|      35 | 0x012F      |         303 |
|      36 | 0x183A0     |       99232 |
|      37 | 0x003F      |          63 |
|      38 | 0x18F1C     |      102172 |
|      39 | 0x0DE0      |        3552 |
|      40 | 0x039F      |         927 |
|      41 | 0x2A6E      |       10862 |
|      42 | 0x2A6F      |       10863 |
|      43 | 0x2A70      |       10864 |
|      44 | 0x2A71      |       10865 |
|      45 | 0x2A72      |       10866 |
|      46 | 0x2A73      |       10867 |
|      47 | 0x00CA      |         202 |
|      48 | 0x2A74      |       10868 |
|      49 | 0x2A75      |       10869 |
|      50 | 0x2A76      |       10870 |
|      51 | 0x2A77      |       10871 |
|      52 | 0x2A78      |       10872 |
|      53 | 0x2A79      |       10873 |
|      54 | 0x2A7A      |       10874 |
|      55 | 0x2A7B      |       10875 |
|      56 | 0x2A7C      |       10876 |
|      57 | 0x0005      |           5 |
|      58 | 0x2A7D      |       10877 |
|      59 | 0x0096      |         150 |
|      60 | 0x2A7E      |       10878 |
|      61 | 0x2A7F      |       10879 |
|      62 | 0x2A80      |       10880 |
|      63 | 0x2A81      |       10881 |
|      64 | 0x0003      |           3 |
|      65 | 0x0004      |           4 |
|      66 | 0x0006      |           6 |
|      67 | 0x0007      |           7 |
|      68 | 0x0008      |           8 |
|      69 | 0x0024      |          36 |
|      70 | 0x2A85      |       10885 |
|      71 | 0x2A83      |       10883 |
|      72 | 0x2A82      |       10882 |
|      73 | 0x2A84      |       10884 |
|      74 | 0x2A86      |       10886 |
|      75 | 0x2A87      |       10887 |
|      76 | 0x0064      |         100 |
|      77 | 0x0574      |        1396 |
|      78 | 0x2A88      |       10888 |
|      79 | 0x0257      |         599 |
|      80 | 0x1E05      |        7685 |
|      81 | 0x1E06      |        7686 |
|      82 | 0x1E07      |        7687 |
|      83 | 0x1E0E      |        7694 |
|      84 | 0x1E0F      |        7695 |
|      85 | 0x1E1B      |        7707 |
|      86 | 0x001F      |          31 |
|      87 | 0x1E1C      |        7708 |
|      88 | 0x1E08      |        7688 |
|      89 | 0x1E09      |        7689 |
|      90 | 0x1E10      |        7696 |
|      91 | 0x1E11      |        7697 |
|      92 | 0x1E1D      |        7709 |
|      93 | 0x1E31      |        7729 |
|      94 | 0x002A      |          42 |
|      95 | 0x1E32      |        7730 |
|      96 | 0x0028      |          40 |
|      97 | 0x1E33      |        7731 |
|      98 | 0x1E3A      |        7738 |
|      99 | 0x1E3B      |        7739 |
|     100 | 0x1E3C      |        7740 |
|     101 | 0x1E45      |        7749 |
|     102 | 0x1E34      |        7732 |
|     103 | 0x1E35      |        7733 |
|     104 | 0x1E36      |        7734 |
|     105 | 0x1E3D      |        7741 |
|     106 | 0x1E3E      |        7742 |
|     107 | 0x1E3F      |        7743 |
|     108 | 0x1E40      |        7744 |
|     109 | 0x1E46      |        7750 |
|     110 | 0x012A      |         298 |
|     111 | 0x0089      |         137 |
|     112 | 0x607F      |       24703 |
|     113 | 0xFFFF6487  |  4294927495 |
|     114 | 0xFFFFBFE9  |  4294950889 |
|     115 | 0x049B      |        1179 |
|     116 | 0x009C      |         156 |
|     117 | 0x000A      |          10 |
|     118 | 0x1DFD      |        7677 |
|     119 | 0x1DFE      |        7678 |
|     120 | 0x1DFF      |        7679 |
|     121 | 0x1E00      |        7680 |
|     122 | 0x1E01      |        7681 |
|     123 | 0x1E02      |        7682 |
|     124 | 0x0015      |          21 |
|     125 | 0x1E03      |        7683 |
|     126 | 0x005A      |          90 |
|     127 | 0x1E04      |        7684 |
|     128 | 0x1E0A      |        7690 |
|     129 | 0x1E0B      |        7691 |
|     130 | 0x1E0C      |        7692 |
|     131 | 0x1E0D      |        7693 |
|     132 | 0x009A      |         154 |
|     133 | 0x1E12      |        7698 |
|     134 | 0x1E13      |        7699 |
|     135 | 0x1E14      |        7700 |
|     136 | 0x1E15      |        7701 |
|     137 | 0x1E16      |        7702 |
|     138 | 0x1E17      |        7703 |
|     139 | 0x1E18      |        7704 |
|     140 | 0x1E19      |        7705 |
|     141 | 0x1E1A      |        7706 |
|     142 | 0x0129      |         297 |
|     143 | 0x00A2      |         162 |
|     144 | 0x6194      |       24980 |
|     145 | 0x9EEE      |       40686 |
|     146 | 0x0A89      |        2697 |
|     147 | 0x1E1E      |        7710 |
|     148 | 0x1E1F      |        7711 |
|     149 | 0x1E20      |        7712 |
|     150 | 0x1E21      |        7713 |
|     151 | 0x1E22      |        7714 |
|     152 | 0x1E23      |        7715 |
|     153 | 0x1E24      |        7716 |
|     154 | 0x1E25      |        7717 |
|     155 | 0x1E26      |        7718 |
|     156 | 0x1E27      |        7719 |
|     157 | 0x1E28      |        7720 |
|     158 | 0x1E29      |        7721 |
|     159 | 0x1E2A      |        7722 |
|     160 | 0x1E2B      |        7723 |
|     161 | 0x1E2C      |        7724 |
|     162 | 0x1E2D      |        7725 |
|     163 | 0x1E2E      |        7726 |
|     164 | 0x1E2F      |        7727 |
|     165 | 0x1E30      |        7728 |
|     166 | 0x1E37      |        7735 |
|     167 | 0x1E38      |        7736 |
|     168 | 0x1E39      |        7737 |
|     169 | 0x1E41      |        7745 |
|     170 | 0x1E42      |        7746 |
|     171 | 0x1E43      |        7747 |
|     172 | 0x1E44      |        7748 |

## String References

- **10881**: Can Nashmeira be trusted? [I swear on my life./On second thought...]

## Events

### Event 65535

#### Metadata

| Field        | Value     |
|--------------|-----------|
| Entrypoint   | 0x0000    |
| Data Size    | 658 bytes |
| Instructions | 1         |

```
      00 01 02 03 04 05 06 07  08 09 0A 0B 0C 0D 0E 0F
      -- -- -- -- -- -- -- --  -- -- -- -- -- -- -- --
0000: 00 45 00 80 F0 FF FF 7F  F0 FF FF 7F 66 64 69 30  .E..........fdi0
0010: 01 80 55 00 80 F0 FF FF  7F F0 FF FF 7F 66 64 69  ..U..........fdi
0020: 30 1B 45 00 80 F0 FF FF  7F F0 FF FF 7F 66 64 6F  0.E..........fdo
0030: 30 01 80 55 00 80 F0 FF  FF 7F F0 FF FF 7F 66 64  0..U..........fd
0040: 6F 30 1B 45 00 80 F0 FF  FF 7F F0 FF FF 7F 66 64  o0.E..........fd
0050: 69 31 01 80 55 00 80 F0  FF FF 7F F0 FF FF 7F 66  i1..U..........f
0060: 64 69 31 1B 45 00 80 F0  FF FF 7F F0 FF FF 7F 66  di1.E..........f
0070: 64 6F 31 01 80 55 00 80  F0 FF FF 7F F0 FF FF 7F  do1..U..........
0080: 66 64 6F 31 1B 45 02 80  F0 FF FF 7F F0 FF FF 7F  fdo1.E..........
0090: 77 68 69 31 01 80 55 02  80 F0 FF FF 7F F0 FF FF  whi1..U.........
00A0: 7F 77 68 69 31 1B 45 02  80 F0 FF FF 7F F0 FF FF  .whi1.E.........
00B0: 7F 77 68 6F 31 01 80 55  02 80 F0 FF FF 7F F0 FF  .who1..U........
00C0: FF 7F 77 68 6F 31 1B 45  02 80 F0 FF FF 7F F0 FF  ..who1.E........
00D0: FF 7F 77 68 6F 32 01 80  55 02 80 F0 FF FF 7F F0  ..who2..U.......
00E0: FF FF 7F 77 68 6F 32 1B  45 02 80 F0 FF FF 7F F0  ...who2.E.......
00F0: FF FF 7F 77 68 6F 33 01  80 55 02 80 F0 FF FF 7F  ...who3..U......
0100: F0 FF FF 7F 77 68 6F 33  1B 62 03 80 F0 FF FF 7F  ....who3.b......
0110: F0 FF FF 7F 6D 61 69 6E  01 80 1C 04 80 45 00 80  ....main.....E..
0120: F0 FF FF 7F F0 FF FF 7F  66 64 6F 31 01 80 55 00  ........fdo1..U.
0130: 80 F0 FF FF 7F F0 FF FF  7F 66 64 6F 31 1B 45 00  .........fdo1.E.
0140: 80 F0 FF FF 7F F0 FF FF  7F 66 64 69 31 01 80 62  .........fdi1..b
0150: 05 80 F0 FF FF 7F F0 FF  FF 7F 6D 61 69 6E 01 80  ..........main..
0160: 1C 06 80 55 00 80 F0 FF  FF 7F F0 FF FF 7F 66 64  ...U..........fd
0170: 69 31 1B 45 00 80 F0 FF  FF 7F F0 FF FF 7F 62 6C  i1.E..........bl
0180: 6F 6E 01 80 45 02 80 F0  FF FF 7F F0 FF FF 7F 62  on..E..........b
0190: 6C 6F 6E 01 80 1B 45 02  80 F0 FF FF 7F F0 FF FF  lon...E.........
01A0: 7F 77 68 69 30 01 80 55  02 80 F0 FF FF 7F F0 FF  .whi0..U........
01B0: FF 7F 77 68 69 30 1B 45  02 80 F0 FF FF 7F F0 FF  ..whi0.E........
01C0: FF 7F 77 68 6F 30 01 80  55 02 80 F0 FF FF 7F F0  ..who0..U.......
01D0: FF FF 7F 77 68 6F 30 1B  45 07 80 F0 FF FF 7F F0  ...who0.E.......
01E0: FF FF 7F 65 66 6F 6E 01  80 55 07 80 F0 FF FF 7F  ...efon..U......
01F0: F0 FF FF 7F 65 66 6F 6E  1B 45 00 80 F0 FF FF 7F  ....efon.E......
0200: F0 FF FF 7F 66 64 69 73  01 80 1B 45 00 80 F0 FF  ....fdis...E....
0210: FF 7F F0 FF FF 7F 66 64  6F 73 01 80 55 00 80 F0  ......fdos..U...
0220: FF FF 7F F0 FF FF 7F 66  64 6F 73 1B 45 00 80 F0  .......fdos.E...
0230: FF FF 7F F0 FF FF 7F 66  64 69 66 01 80 1B 45 00  .......fdif...E.
0240: 80 F0 FF FF 7F F0 FF FF  7F 66 64 6F 66 01 80 55  .........fdof..U
0250: 00 80 F0 FF FF 7F F0 FF  FF 7F 66 64 6F 66 1B 45  ..........fdof.E
0260: 00 80 F0 FF FF 7F F0 FF  FF 7F 66 64 69 70 01 80  ..........fdip..
0270: 1B 45 00 80 F0 FF FF 7F  F0 FF FF 7F 66 64 6F 70  .E..........fdop
0280: 01 80 55 00 80 F0 FF FF  7F F0 FF FF 7F 66 64 6F  ..U..........fdo
0290: 70 1B                                             p.              
```

#### Opcodes

```
  0: 0x0000 [0x00] END_REQSTACK()
```

#### Data or dead code:

```
# Dead code (unreachable instructions):
     0x0001 [0x45] LOAD_SCHEDULED_TASK: Load scheduler "fdi0" with entities [LocalPlayer, LocalPlayer], work=[200*, 0*]
     0x0012 [0x55] WAIT_LOAD_SCHEDULER: Wait for scheduler "fdi0" with entities [LocalPlayer, LocalPlayer], work=200*
     0x0021 [0x1B] RETURN
     0x0022 [0x45] LOAD_SCHEDULED_TASK: Load scheduler "fdo0" with entities [LocalPlayer, LocalPlayer], work=[200*, 0*]
     0x0033 [0x55] WAIT_LOAD_SCHEDULER: Wait for scheduler "fdo0" with entities [LocalPlayer, LocalPlayer], work=200*
     0x0042 [0x1B] RETURN
     0x0043 [0x45] LOAD_SCHEDULED_TASK: Load scheduler "fdi1" with entities [LocalPlayer, LocalPlayer], work=[200*, 0*]
     0x0054 [0x55] WAIT_LOAD_SCHEDULER: Wait for scheduler "fdi1" with entities [LocalPlayer, LocalPlayer], work=200*
     0x0063 [0x1B] RETURN
     0x0064 [0x45] LOAD_SCHEDULED_TASK: Load scheduler "fdo1" with entities [LocalPlayer, LocalPlayer], work=[200*, 0*]
     0x0075 [0x55] WAIT_LOAD_SCHEDULER: Wait for scheduler "fdo1" with entities [LocalPlayer, LocalPlayer], work=200*
     0x0084 [0x1B] RETURN
     0x0085 [0x45] LOAD_SCHEDULED_TASK: Load scheduler "whi1" with entities [LocalPlayer, LocalPlayer], work=[201*, 0*]
     0x0096 [0x55] WAIT_LOAD_SCHEDULER: Wait for scheduler "whi1" with entities [LocalPlayer, LocalPlayer], work=201*
     0x00A5 [0x1B] RETURN
     0x00A6 [0x45] LOAD_SCHEDULED_TASK: Load scheduler "who1" with entities [LocalPlayer, LocalPlayer], work=[201*, 0*]
     0x00B7 [0x55] WAIT_LOAD_SCHEDULER: Wait for scheduler "who1" with entities [LocalPlayer, LocalPlayer], work=201*
     0x00C6 [0x1B] RETURN
     0x00C7 [0x45] LOAD_SCHEDULED_TASK: Load scheduler "who2" with entities [LocalPlayer, LocalPlayer], work=[201*, 0*]
     0x00D8 [0x55] WAIT_LOAD_SCHEDULER: Wait for scheduler "who2" with entities [LocalPlayer, LocalPlayer], work=201*
     0x00E7 [0x1B] RETURN
     0x00E8 [0x45] LOAD_SCHEDULED_TASK: Load scheduler "who3" with entities [LocalPlayer, LocalPlayer], work=[201*, 0*]
     0x00F9 [0x55] WAIT_LOAD_SCHEDULER: Wait for scheduler "who3" with entities [LocalPlayer, LocalPlayer], work=201*
     0x0108 [0x1B] RETURN
     0x0109 [0x62] LOAD_EVENT_SCHEDULER: Load scheduler "main" with entities [LocalPlayer, LocalPlayer], work=[1*, 0*]
     0x011A [0x1C] WAIT(45* ticks)
     0x011D [0x45] LOAD_SCHEDULED_TASK: Load scheduler "fdo1" with entities [LocalPlayer, LocalPlayer], work=[200*, 0*]
     0x012E [0x55] WAIT_LOAD_SCHEDULER: Wait for scheduler "fdo1" with entities [LocalPlayer, LocalPlayer], work=200*
     0x013D [0x1B] RETURN
     0x013E [0x45] LOAD_SCHEDULED_TASK: Load scheduler "fdi1" with entities [LocalPlayer, LocalPlayer], work=[200*, 0*]
     0x014F [0x62] LOAD_EVENT_SCHEDULER: Load scheduler "main" with entities [LocalPlayer, LocalPlayer], work=[2*, 0*]
     0x0160 [0x1C] WAIT(30* ticks)
     0x0163 [0x55] WAIT_LOAD_SCHEDULER: Wait for scheduler "fdi1" with entities [LocalPlayer, LocalPlayer], work=200*
     0x0172 [0x1B] RETURN
     0x0173 [0x45] LOAD_SCHEDULED_TASK: Load scheduler "blon" with entities [LocalPlayer, LocalPlayer], work=[200*, 0*]
     0x0184 [0x45] LOAD_SCHEDULED_TASK: Load scheduler "blon" with entities [LocalPlayer, LocalPlayer], work=[201*, 0*]
     0x0195 [0x1B] RETURN
     0x0196 [0x45] LOAD_SCHEDULED_TASK: Load scheduler "whi0" with entities [LocalPlayer, LocalPlayer], work=[201*, 0*]
     0x01A7 [0x55] WAIT_LOAD_SCHEDULER: Wait for scheduler "whi0" with entities [LocalPlayer, LocalPlayer], work=201*
     0x01B6 [0x1B] RETURN
     0x01B7 [0x45] LOAD_SCHEDULED_TASK: Load scheduler "who0" with entities [LocalPlayer, LocalPlayer], work=[201*, 0*]
     0x01C8 [0x55] WAIT_LOAD_SCHEDULER: Wait for scheduler "who0" with entities [LocalPlayer, LocalPlayer], work=201*
     0x01D7 [0x1B] RETURN
     0x01D8 [0x45] LOAD_SCHEDULED_TASK: Load scheduler "efon" with entities [LocalPlayer, LocalPlayer], work=[215*, 0*]
     0x01E9 [0x55] WAIT_LOAD_SCHEDULER: Wait for scheduler "efon" with entities [LocalPlayer, LocalPlayer], work=215*
     0x01F8 [0x1B] RETURN
     0x01F9 [0x45] LOAD_SCHEDULED_TASK: Load scheduler "fdis" with entities [LocalPlayer, LocalPlayer], work=[200*, 0*]
     0x020A [0x1B] RETURN
     0x020B [0x45] LOAD_SCHEDULED_TASK: Load scheduler "fdos" with entities [LocalPlayer, LocalPlayer], work=[200*, 0*]
     0x021C [0x55] WAIT_LOAD_SCHEDULER: Wait for scheduler "fdos" with entities [LocalPlayer, LocalPlayer], work=200*
     0x022B [0x1B] RETURN
     0x022C [0x45] LOAD_SCHEDULED_TASK: Load scheduler "fdif" with entities [LocalPlayer, LocalPlayer], work=[200*, 0*]
     0x023D [0x1B] RETURN
     0x023E [0x45] LOAD_SCHEDULED_TASK: Load scheduler "fdof" with entities [LocalPlayer, LocalPlayer], work=[200*, 0*]
     0x024F [0x55] WAIT_LOAD_SCHEDULER: Wait for scheduler "fdof" with entities [LocalPlayer, LocalPlayer], work=200*
     0x025E [0x1B] RETURN
     0x025F [0x45] LOAD_SCHEDULED_TASK: Load scheduler "fdip" with entities [LocalPlayer, LocalPlayer], work=[200*, 0*]
     0x0270 [0x1B] RETURN
     0x0271 [0x45] LOAD_SCHEDULED_TASK: Load scheduler "fdop" with entities [LocalPlayer, LocalPlayer], work=[200*, 0*]
     0x0282 [0x55] WAIT_LOAD_SCHEDULER: Wait for scheduler "fdop" with entities [LocalPlayer, LocalPlayer], work=200*
     0x0291 [0x1B] RETURN
```

### Event 968

#### Metadata

| Field        | Value      |
|--------------|------------|
| Entrypoint   | 0x0292     |
| Data Size    | 2722 bytes |
| Instructions | 314        |

```
      00 01 02 03 04 05 06 07  08 09 0A 0B 0C 0D 0E 0F
      -- -- -- -- -- -- -- --  -- -- -- -- -- -- -- --
0290:       42 03 00 00 09 10  45 00 80 F8 FF FF 7F F8    B.....E.......
02A0: FF FF 7F 66 64 6F 31 01  80 55 00 80 F8 FF FF 7F  ...fdo1..U......
02B0: F8 FF FF 7F 66 64 6F 31  46 01 38 08 80 4E 00 30  ....fdo1F.8..N.0
02C0: D0 0E 01 4E 00 18 D0 0E  01 4E 00 2A D0 0E 01 4E  ...N.....N.*...N
02D0: 00 2E D0 0E 01 92 01 18  D0 0E 01 92 01 2A D0 0E  .............*..
02E0: 01 92 01 30 D0 0E 01 92  01 2E D0 0E 01 94 01 F0  ...0............
02F0: FF FF 7F BA F0 FF FF 7F  09 80 0A 80 0B 80 0C 80  ................
0300: BA 18 D0 0E 01 0D 80 0E  80 0B 80 0C 80 BA 2A D0  ..............*.
0310: 0E 01 0F 80 10 80 11 80  0C 80 BA 2E D0 0E 01 12  ................
0320: 80 13 80 14 80 15 80 7B  F0 FF FF 7F 7B 18 D0 0E  .......{....{...
0330: 01 7B 2A D0 0E 01 7B 2E  D0 0E 01 7B 30 D0 0E 01  .{*...{....{0...
0340: 80 F0 FF FF 7F 80 18 D0  0E 01 80 30 D0 0E 01 80  ...........0....
0350: 2A D0 0E 01 80 2E D0 0E  01 29 10 55 D0 0E 01 03  *........).U....
0360: 1C 06 80 59 04 F0 FF FF  7F 16 80 27 10 F0 FF FF  ...Y.......'....
0370: 7F B2 9A 45 17 80 F0 FF  FF 7F F0 FF FF 7F 70 31  ...E..........p1
0380: 30 31 01 80 1A 43 00 1C  18 80 4A 30 D0 0E 01 F0  01...C....J0....
0390: FF FF 7F 1C 18 80 52 17  80 F0 FF FF 7F F0 FF FF  ......R.........
03A0: 7F 70 31 30 31 45 17 80  F0 FF FF 7F F0 FF FF 7F  .p101E..........
03B0: 70 31 30 32 01 80 27 10  F0 FF FF 7F B4 2B 30 D0  p102..'......+0.
03C0: 0E 01 19 80 23 59 04 18  D0 0E 01 16 80 27 10 18  ....#Y.......'..
03D0: D0 0E 01 27 52 17 80 F0  FF FF 7F F0 FF FF 7F 70  ...'R..........p
03E0: 31 30 32 45 17 80 F0 FF  FF 7F F0 FF FF 7F 70 31  102E..........p1
03F0: 30 33 01 80 1C 00 80 52  17 80 F0 FF FF 7F F0 FF  03.....R........
0400: FF 7F 70 31 30 33 45 17  80 F0 FF FF 7F F0 FF FF  ..p103E.........
0410: 7F 70 31 30 34 01 80 2B  18 D0 0E 01 1A 80 23 4A  .p104..+......#J
0420: 30 D0 0E 01 18 D0 0E 01  1C 1B 80 52 17 80 F0 FF  0..........R....
0430: FF 7F F0 FF FF 7F 70 31  30 34 45 17 80 F0 FF FF  ......p104E.....
0440: 7F F0 FF FF 7F 70 31 30  35 01 80 7B F0 FF FF 7F  .....p105..{....
0450: 7B 30 D0 0E 01 7B 18 D0  0E 01 4A F0 FF FF 7F 18  {0...{....J.....
0460: D0 0E 01 66 1C 80 30 D0  0E 01 30 D0 0E 01 74 6C  ...f..0...0...tl
0470: 6B 30 2B 30 D0 0E 01 1D  80 23 27 10 18 D0 0E 01  k0+0.....#'.....
0480: 29 1C 1E 80 52 17 80 F0  FF FF 7F F0 FF FF 7F 70  )...R..........p
0490: 31 30 35 45 17 80 F0 FF  FF 7F F0 FF FF 7F 70 31  105E..........p1
04A0: 30 36 01 80 66 1C 80 30  D0 0E 01 30 D0 0E 01 74  06..f..0...0...t
04B0: 6C 6B 31 2A 10 18 D0 0E  01 4A 30 D0 0E 01 18 D0  lk1*.....J0.....
04C0: 0E 01 1C 06 80 03 02 10  1E 80 27 10 CF D0 0E 01  ..........'.....
04D0: 02 2B 18 D0 0E 01 1F 80  23 2B 18 D0 0E 01 20 80  .+......#+.... .
04E0: 23 2A 10 CF D0 0E 01 66  01 80 18 D0 0E 01 18 D0  #*.....f........
04F0: 0E 01 74 68 6B 32 1C 06  80 52 17 80 F0 FF FF 7F  ..thk2...R......
0500: F0 FF FF 7F 70 31 30 36  45 17 80 F0 FF FF 7F F0  ....p106E.......
0510: FF FF 7F 70 31 30 37 01  80 1C 06 80 4A 18 D0 0E  ...p107.....J...
0520: 01 F0 FF FF 7F 4A F0 FF  FF 7F 18 D0 0E 01 7B 18  .....J........{.
0530: D0 0E 01 6F 76 18 D0 0E  01 2B 18 D0 0E 01 21 80  ...ov....+....!.
0540: 23 27 10 18 D0 0E 01 28  1C 22 80 52 17 80 F0 FF  #'.....(.".R....
0550: FF 7F F0 FF FF 7F 70 31  30 37 45 17 80 F0 FF FF  ......p107E.....
0560: 7F F0 FF FF 7F 70 31 32  33 01 80 27 10 56 D0 0E  .....p123..'.V..
0570: 01 05 1C 18 80 45 00 80  F0 FF FF 7F F0 FF FF 7F  .....E..........
0580: 66 64 6F 32 01 80 55 00  80 F0 FF FF 7F F0 FF FF  fdo2..U.........
0590: 7F 66 64 6F 32 52 17 80  F0 FF FF 7F F0 FF FF 7F  .fdo2R..........
05A0: 70 31 32 33 75 00 23 80  75 01 7A 00 18 D0 0E 01  p123u.#.u.z.....
05B0: BA F0 FF FF 7F 24 80 25  80 11 80 0C 80 BA 18 D0  .....$.%........
05C0: 0E 01 26 80 27 80 14 80  28 80 4A F0 FF FF 7F 2A  ..&.'...(.J....*
05D0: D0 0E 01 4A 18 D0 0E 01  2A D0 0E 01 4A 2E D0 0E  ...J....*...J...
05E0: 01 2A D0 0E 01 29 10 56  D0 0E 01 06 1C 1E 80 45  .*...).V.......E
05F0: 17 80 F0 FF FF 7F F0 FF  FF 7F 70 31 30 38 01 80  ..........p108..
0600: 45 00 80 F0 FF FF 7F F0  FF FF 7F 66 64 69 32 01  E..........fdi2.
0610: 80 55 00 80 F0 FF FF 7F  F0 FF FF 7F 66 64 69 32  .U..........fdi2
0620: 1C 18 80 52 17 80 F0 FF  FF 7F F0 FF FF 7F 70 31  ...R..........p1
0630: 30 38 45 17 80 F0 FF FF  7F F0 FF FF 7F 70 31 30  08E..........p10
0640: 39 01 80 2B 2A D0 0E 01  29 80 23 2B 2A D0 0E 01  9..+*...).#+*...
0650: 2A 80 23 52 17 80 F0 FF  FF 7F F0 FF FF 7F 70 31  *.#R..........p1
0660: 30 39 45 17 80 F0 FF FF  7F F0 FF FF 7F 70 31 31  09E..........p11
0670: 30 01 80 66 01 80 18 D0  0E 01 18 D0 0E 01 74 6C  0..f..........tl
0680: 6B 30 2B 18 D0 0E 01 2B  80 23 66 01 80 18 D0 0E  k0+....+.#f.....
0690: 01 18 D0 0E 01 74 65 6E  30 52 17 80 F0 FF FF 7F  .....ten0R......
06A0: F0 FF FF 7F 70 31 31 30  45 17 80 F0 FF FF 7F F0  ....p110E.......
06B0: FF FF 7F 70 31 31 31 01  80 4A 2A D0 0E 01 F0 FF  ...p111..J*.....
06C0: FF 7F 2B 2A D0 0E 01 2C  80 23 2B 2A D0 0E 01 2D  ..+*...,.#+*...-
06D0: 80 23 52 17 80 F0 FF FF  7F F0 FF FF 7F 70 31 31  .#R..........p11
06E0: 31 45 17 80 F0 FF FF 7F  F0 FF FF 7F 70 31 31 32  1E..........p112
06F0: 01 80 2B 2A D0 0E 01 2E  80 23 52 17 80 F0 FF FF  ..+*.....#R.....
0700: 7F F0 FF FF 7F 70 31 31  32 45 17 80 F0 FF FF 7F  .....p112E......
0710: F0 FF FF 7F 70 31 31 33  01 80 5B 2F 80 2E D0 0E  ....p113..[/....
0720: 01 2E D0 0E 01 68 67 73  30 2B 2E D0 0E 01 30 80  .....hgs0+....0.
0730: 23 52 17 80 F0 FF FF 7F  F0 FF FF 7F 70 31 31 33  #R..........p113
0740: 45 17 80 F0 FF FF 7F F0  FF FF 7F 70 31 31 34 01  E..........p114.
0750: 80 79 00 2A D0 0E 01 2E  D0 0E 01 2B 2E D0 0E 01  .y.*.......+....
0760: 31 80 23 2B 2E D0 0E 01  32 80 23 5B 2F 80 2E D0  1.#+....2.#[/...
0770: 0E 01 2E D0 0E 01 68 67  73 31 52 17 80 F0 FF FF  ......hgs1R.....
0780: 7F F0 FF FF 7F 70 31 31  34 45 17 80 F0 FF FF 7F  .....p114E......
0790: F0 FF FF 7F 70 31 31 35  01 80 79 00 2E D0 0E 01  ....p115..y.....
07A0: 2A D0 0E 01 7C 00 2A D0  0E 01 2B 2A D0 0E 01 33  *...|.*...+*...3
07B0: 80 23 52 17 80 F0 FF FF  7F F0 FF FF 7F 70 31 31  .#R..........p11
07C0: 35 45 17 80 F0 FF FF 7F  F0 FF FF 7F 70 31 31 36  5E..........p116
07D0: 01 80 7B F0 FF FF 7F 7C  01 2A D0 0E 01 5B 00 80  ..{....|.*...[..
07E0: 2E D0 0E 01 2E D0 0E 01  74 6C 62 30 2B 2E D0 0E  ........tlb0+...
07F0: 01 34 80 23 2B 2E D0 0E  01 35 80 23 5B 00 80 2E  .4.#+....5.#[...
0800: D0 0E 01 2E D0 0E 01 74  6C 62 31 52 17 80 F0 FF  .......tlb1R....
0810: FF 7F F0 FF FF 7F 70 31  31 36 45 17 80 F0 FF FF  ......p116E.....
0820: 7F F0 FF FF 7F 70 31 31  37 01 80 7C 00 18 D0 0E  .....p117..|....
0830: 01 2B 18 D0 0E 01 36 80  23 52 17 80 F0 FF FF 7F  .+....6.#R......
0840: F0 FF FF 7F 70 31 31 37  45 17 80 F0 FF FF 7F F0  ....p117E.......
0850: FF FF 7F 70 31 31 38 01  80 66 01 80 18 D0 0E 01  ...p118..f......
0860: 18 D0 0E 01 74 65 6E 30  7C 01 18 D0 0E 01 2B 2A  ....ten0|.....+*
0870: D0 0E 01 37 80 23 2B 2A  D0 0E 01 38 80 23 52 17  ...7.#+*...8.#R.
0880: 80 F0 FF FF 7F F0 FF FF  7F 70 31 31 38 45 17 80  .........p118E..
0890: F0 FF FF 7F F0 FF FF 7F  70 31 31 39 01 80 1C 39  ........p119...9
08A0: 80 4A 2A D0 0E 01 18 D0  0E 01 2B 18 D0 0E 01 3A  .J*.......+....:
08B0: 80 23 6F 76 2A D0 0E 01  1C 39 80 52 17 80 F0 FF  .#ov*....9.R....
08C0: FF 7F F0 FF FF 7F 70 31  31 39 45 17 80 F0 FF FF  ......p119E.....
08D0: 7F F0 FF FF 7F 70 31 32  30 01 80 5B 3B 80 2A D0  .....p120..[;.*.
08E0: 0E 01 2A D0 0E 01 65 72  61 30 2B 2A D0 0E 01 3C  ..*...era0+*...<
08F0: 80 23 52 17 80 F0 FF FF  7F F0 FF FF 7F 70 31 32  .#R..........p12
0900: 30 45 17 80 F0 FF FF 7F  F0 FF FF 7F 70 31 32 31  0E..........p121
0910: 01 80 5B 3B 80 2A D0 0E  01 2A D0 0E 01 65 72 61  ..[;.*...*...era
0920: 31 66 01 80 18 D0 0E 01  18 D0 0E 01 74 6C 6B 30  1f..........tlk0
0930: 2B 18 D0 0E 01 3D 80 23  52 17 80 F0 FF FF 7F F0  +....=.#R.......
0940: FF FF 7F 70 31 32 31 45  17 80 F0 FF FF 7F F0 FF  ...p121E........
0950: FF 7F 70 31 32 32 01 80  66 01 80 18 D0 0E 01 18  ..p122..f.......
0960: D0 0E 01 74 65 6E 30 4A  2A D0 0E 01 F0 FF FF 7F  ...ten0J*.......
0970: 6F 76 2A D0 0E 01 2B 2A  D0 0E 01 3E 80 23 24 3F  ov*...+*...>.#$?
0980: 80 01 80 01 80 25 02 00  10 01 80 00 53 0B 29 10  .....%......S.).
0990: F0 FF FF 7F 6F 02 02 10  03 80 80 C0 09 52 17 80  ....o........R..
09A0: F0 FF FF 7F F0 FF FF 7F  70 31 32 32 45 17 80 F0  ........p122E...
09B0: FF FF 7F F0 FF FF 7F 70  68 6D 32 01 80 01 ED 0A  .......phm2.....
09C0: 02 02 10 05 80 80 EB 09  52 17 80 F0 FF FF 7F F0  ........R.......
09D0: FF FF 7F 70 31 32 32 45  17 80 F0 FF FF 7F F0 FF  ...p122E........
09E0: FF 7F 70 68 6D 32 01 80  01 ED 0A 02 02 10 40 80  ..phm2........@.
09F0: 80 16 0A 52 17 80 F0 FF  FF 7F F0 FF FF 7F 70 31  ...R..........p1
0A00: 32 32 45 17 80 F0 FF FF  7F F0 FF FF 7F 70 65 6D  22E..........pem
0A10: 32 01 80 01 ED 0A 02 02  10 41 80 80 41 0A 52 17  2........A..A.R.
0A20: 80 F0 FF FF 7F F0 FF FF  7F 70 31 32 32 45 17 80  .........p122E..
0A30: F0 FF FF 7F F0 FF FF 7F  70 65 6D 32 01 80 01 ED  ........pem2....
0A40: 0A 02 02 10 39 80 80 6C  0A 52 17 80 F0 FF FF 7F  ....9..l.R......
0A50: F0 FF FF 7F 70 31 32 32  45 17 80 F0 FF FF 7F F0  ....p122E.......
0A60: FF FF 7F 70 74 72 32 01  80 01 ED 0A 02 02 10 42  ...ptr2........B
0A70: 80 80 97 0A 52 17 80 F0  FF FF 7F F0 FF FF 7F 70  ....R..........p
0A80: 31 32 32 45 17 80 F0 FF  FF 7F F0 FF FF 7F 70 74  122E..........pt
0A90: 72 32 01 80 01 ED 0A 02  02 10 43 80 80 C2 0A 52  r2........C....R
0AA0: 17 80 F0 FF FF 7F F0 FF  FF 7F 70 31 32 32 45 17  ..........p122E.
0AB0: 80 F0 FF FF 7F F0 FF FF  7F 70 6D 74 32 01 80 01  .........pmt2...
0AC0: ED 0A 02 02 10 44 80 80  ED 0A 52 17 80 F0 FF FF  .....D....R.....
0AD0: 7F F0 FF FF 7F 70 31 32  32 45 17 80 F0 FF FF 7F  .....p122E......
0AE0: F0 FF FF 7F 70 67 6C 32  01 80 01 ED 0A 6E F0 FF  ....pgl2.....n..
0AF0: FF 7F 45 80 99 F0 FF FF  7F 4A 2E D0 0E 01 2A D0  ..E......J....*.
0B00: 0E 01 1C 18 80 52 17 80  F0 FF FF 7F F0 FF FF 7F  .....R..........
0B10: 70 68 6D 32 52 17 80 F0  FF FF 7F F0 FF FF 7F 70  phm2R..........p
0B20: 65 6D 32 52 17 80 F0 FF  FF 7F F0 FF FF 7F 70 74  em2R..........pt
0B30: 72 32 52 17 80 F0 FF FF  7F F0 FF FF 7F 70 6D 74  r2R..........pmt
0B40: 32 52 17 80 F0 FF FF 7F  F0 FF FF 7F 70 67 6C 32  2R..........pgl2
0B50: 01 D6 0B 02 00 10 03 80  00 D6 0B 52 17 80 F0 FF  ...........R....
0B60: FF 7F F0 FF FF 7F 70 31  32 32 45 17 80 F0 FF FF  ......p122E.....
0B70: 7F F0 FF FF 7F 70 31 32  38 01 80 4A 2E D0 0E 01  .....p128..J....
0B80: F0 FF FF 7F 6F 76 2E D0  0E 01 5B 2F 80 2E D0 0E  ....ov....[/....
0B90: 01 2E D0 0E 01 68 67 73  30 2B 2E D0 0E 01 46 80  .....hgs0+....F.
0BA0: 23 52 17 80 F0 FF FF 7F  F0 FF FF 7F 70 31 32 38  #R..........p128
0BB0: 45 17 80 F0 FF FF 7F F0  FF FF 7F 70 31 32 32 01  E..........p122.
0BC0: 80 5B 2F 80 2E D0 0E 01  2E D0 0E 01 68 67 73 31  .[/.........hgs1
0BD0: 01 7E 09 01 D6 0B 45 17  80 F0 FF FF 7F F0 FF FF  .~....E.........
0BE0: 7F 70 31 32 37 01 80 02  00 00 01 80 80 09 0C 5B  .p127..........[
0BF0: 3B 80 2A D0 0E 01 2A D0  0E 01 74 6C 6B 31 2B 2A  ;.*...*...tlk1+*
0C00: D0 0E 01 47 80 23 01 4D  0C 02 00 00 03 80 80 2B  ...G.#.M.......+
0C10: 0C 5B 3B 80 2A D0 0E 01  2A D0 0E 01 74 6C 6B 31  .[;.*...*...tlk1
0C20: 2B 2A D0 0E 01 48 80 23  01 4D 0C 02 00 00 05 80  +*...H.#.M......
0C30: 80 4D 0C 5B 3B 80 2A D0  0E 01 2A D0 0E 01 74 6C  .M.[;.*...*...tl
0C40: 6B 31 2B 2A D0 0E 01 49  80 23 01 4D 0C 2B 2A D0  k1+*...I.#.M.+*.
0C50: 0E 01 4A 80 23 52 17 80  F0 FF FF 7F F0 FF FF 7F  ..J.#R..........
0C60: 70 31 32 37 45 17 80 F0  FF FF 7F F0 FF FF 7F 70  p127E..........p
0C70: 31 32 34 01 80 79 00 2A  D0 0E 01 2E D0 0E 01 2B  124..y.*.......+
0C80: 2A D0 0E 01 4B 80 23 52  17 80 F0 FF FF 7F F0 FF  *...K.#R........
0C90: FF 7F 70 31 32 34 45 17  80 F0 FF FF 7F F0 FF FF  ..p124E.........
0CA0: 7F 70 31 32 35 01 80 03  02 10 4C 80 27 10 CF D0  .p125.....L.'...
0CB0: 0E 01 02 5B 4D 80 2E D0  0E 01 2E D0 0E 01 6B 65  ...[M.........ke
0CC0: 69 30 2B 2E D0 0E 01 4E  80 23 2A 10 CF D0 0E 01  i0+....N.#*.....
0CD0: 52 17 80 F0 FF FF 7F F0  FF FF 7F 70 31 32 35 45  R..........p125E
0CE0: 17 80 F0 FF FF 7F F0 FF  FF 7F 70 31 32 36 01 80  ..........p126..
0CF0: 1C 18 80 1A 64 00 1C 06  80 59 05 F0 FF FF 7F 00  ....d....Y......
0D00: 52 17 80 F0 FF FF 7F F0  FF FF 7F 70 31 32 36 78  R..........p126x
0D10: 1C 1B 80 AB 09 1C 1B 80  AB 11 01 80 1C 03 80 46  ...............F
0D20: 00 45 00 80 F0 FF FF 7F  F0 FF FF 7F 66 64 69 32  .E..........fdi2
0D30: 01 80 21 00                                       ..!.            
```

#### Opcodes

```
  0: 0x0292 [0x42] SET_CLI_EVENT_CANCEL_DATA()
  1: 0x0293 [0x03] ExtData[1]->WorkLocal[0] = Work_Zone[9]
  2: 0x0298 [0x45] LOAD_SCHEDULED_TASK: Load scheduler "fdo1" with entities [EventEntity, EventEntity], work=[200*, 0*]
  3: 0x02A9 [0x55] WAIT_LOAD_SCHEDULER: Wait for scheduler "fdo1" with entities [EventEntity, EventEntity], work=200*
  4: 0x02B8 [0x46] CAMERA_CONTROL: Disable user control
  5: 0x02BA [0x38] SET_CLIENT_EVENT_MODE(mode=19*)
  6: 0x02BD [0x4E] SET_ENTITY_HIDE_FLAG: Show Iron Eater (ID: 17748016/0x010ED030)
  7: 0x02C3 [0x4E] SET_ENTITY_HIDE_FLAG: Show Lucius (ID: 17747992/0x010ED018)
  8: 0x02C9 [0x4E] SET_ENTITY_HIDE_FLAG: Show Karst (ID: 17748010/0x010ED02A)
  9: 0x02CF [0x4E] SET_ENTITY_HIDE_FLAG: Show Volker (ID: 17748014/0x010ED02E)
 10: 0x02D5 [0x92] Lucius (ID: 17747992/0x010ED018)->Render.Flags3 ^= 0x01
 11: 0x02DB [0x92] Karst (ID: 17748010/0x010ED02A)->Render.Flags3 ^= 0x01
 12: 0x02E1 [0x92] Iron Eater (ID: 17748016/0x010ED030)->Render.Flags3 ^= 0x01
 13: 0x02E7 [0x92] Volker (ID: 17748014/0x010ED02E)->Render.Flags3 ^= 0x01
 14: 0x02ED [0x94] LocalPlayer->Render.Flags3 ^= 0x01
 15: 0x02F3 [0xBA] SET_ENTITY_POSITION(entity_id=LocalPlayer, pos_x=86.960*, pos_z=1.205*, pos_y=-19.532*, direction=352.6°*)
 16: 0x0300 [0xBA] SET_ENTITY_POSITION(entity_id=Lucius (ID: 17747992/0x010ED018), pos_x=84.018*, pos_z=-0.622*, pos_y=-19.532*, direction=352.6°*)
 17: 0x030D [0xBA] SET_ENTITY_POSITION(entity_id=Karst (ID: 17748010/0x010ED02A), pos_x=103.780*, pos_z=0.068*, pos_y=-20.181*, direction=352.6°*)
 18: 0x031A [0xBA] SET_ENTITY_POSITION(entity_id=Volker (ID: 17748014/0x010ED02E), pos_x=100.421*, pos_z=3.735*, pos_y=-20.170*, direction=74.3°*)
 19: 0x0327 [0x7B] LocalPlayer stops talking
 20: 0x032C [0x7B] Lucius (ID: 17747992/0x010ED018) stops talking
 21: 0x0331 [0x7B] Karst (ID: 17748010/0x010ED02A) stops talking
 22: 0x0336 [0x7B] Volker (ID: 17748014/0x010ED02E) stops talking
 23: 0x033B [0x7B] Iron Eater (ID: 17748016/0x010ED030) stops talking
 24: 0x0340 [0x80] LOAD_WAIT(entity=LocalPlayer)
 25: 0x0345 [0x80] LOAD_WAIT(entity=Lucius (ID: 17747992/0x010ED018))
 26: 0x034A [0x80] LOAD_WAIT(entity=Iron Eater (ID: 17748016/0x010ED030))
 27: 0x034F [0x80] LOAD_WAIT(entity=Karst (ID: 17748010/0x010ED02A))
 28: 0x0354 [0x80] LOAD_WAIT(entity=Volker (ID: 17748014/0x010ED02E))
 29: 0x0359 [0x29] REQ_SET_WAIT(priority=0x10, entity_id=Door:Conference Room (ID: 17748053/0x010ED055), tag_num=0x03)
 30: 0x0360 [0x1C] WAIT(30* ticks)
 31: 0x0363 [0x59] UPDATE_ENTITY_DATA: Set LocalPlayer main speed = 13* * 0.1
 32: 0x036B [0x27] REQ_SET(priority=0x10, entity_id=LocalPlayer, tag_num=0xB2)
 33: 0x0372 [0x9A] WAIT_MUSIC_SERVER()
 34: 0x0373 [0x45] LOAD_SCHEDULED_TASK: Load scheduler "p101" with entities [LocalPlayer, LocalPlayer], work=[494*, 0*]
 35: 0x0384 [0x1A] CALL_SUBROUTINE(address=0x0043)
 36: 0x0387 [0x1C] WAIT(120* ticks)
 37: 0x038A [0x4A] Iron Eater (ID: 17748016/0x010ED030) looks at LocalPlayer
 38: 0x0393 [0x1C] WAIT(120* ticks)
 39: 0x0396 [0x52] END_LOAD_SCHEDULER: End scheduler "p101" with entities [LocalPlayer, LocalPlayer], work=494*
 40: 0x03A5 [0x45] LOAD_SCHEDULED_TASK: Load scheduler "p102" with entities [LocalPlayer, LocalPlayer], work=[494*, 0*]
 41: 0x03B6 [0x27] REQ_SET(priority=0x10, entity_id=LocalPlayer, tag_num=0xB4)
 42: 0x03BD [0x2B] Iron Eater (ID: 17748016/0x010ED030) [10856*]:
    → "Hm? Business with the president, ye say?"
 43: 0x03C4 [0x23] WAIT_FOR_DIALOG_INTERACTION
 44: 0x03C5 [0x59] UPDATE_ENTITY_DATA: Set Lucius (ID: 17747992/0x010ED018) main speed = 13* * 0.1
 45: 0x03CD [0x27] REQ_SET(priority=0x10, entity_id=Lucius (ID: 17747992/0x010ED018), tag_num=0x27)
 46: 0x03D4 [0x52] END_LOAD_SCHEDULER: End scheduler "p102" with entities [LocalPlayer, LocalPlayer], work=494*
 47: 0x03E3 [0x45] LOAD_SCHEDULED_TASK: Load scheduler "p103" with entities [LocalPlayer, LocalPlayer], work=[494*, 0*]
 48: 0x03F4 [0x1C] WAIT(200* ticks)
 49: 0x03F7 [0x52] END_LOAD_SCHEDULER: End scheduler "p103" with entities [LocalPlayer, LocalPlayer], work=494*
 50: 0x0406 [0x45] LOAD_SCHEDULED_TASK: Load scheduler "p104" with entities [LocalPlayer, LocalPlayer], work=[494*, 0*]
 51: 0x0417 [0x2B] Lucius (ID: 17747992/0x010ED018) [10857*]:
    → "Iron Eater! What's the disturbance here?"
 52: 0x041E [0x23] WAIT_FOR_DIALOG_INTERACTION
 53: 0x041F [0x4A] Iron Eater (ID: 17748016/0x010ED030) looks at Lucius (ID: 17747992/0x010ED018)
 54: 0x0428 [0x1C] WAIT(15* ticks)
 55: 0x042B [0x52] END_LOAD_SCHEDULER: End scheduler "p104" with entities [LocalPlayer, LocalPlayer], work=494*
 56: 0x043A [0x45] LOAD_SCHEDULED_TASK: Load scheduler "p105" with entities [LocalPlayer, LocalPlayer], work=[494*, 0*]
 57: 0x044B [0x7B] LocalPlayer stops talking
 58: 0x0450 [0x7B] Iron Eater (ID: 17748016/0x010ED030) stops talking
 59: 0x0455 [0x7B] Lucius (ID: 17747992/0x010ED018) stops talking
 60: 0x045A [0x4A] LocalPlayer looks at Lucius (ID: 17747992/0x010ED018)
 61: 0x0463 [0x66] LOAD_EXT_SCHEDULER_MAIN: Load scheduler "tlk0" with entities [Iron Eater (ID: 17748016/0x010ED030), Iron Eater (ID: 17748016/0x010ED030)], work=69*
 62: 0x0472 [0x2B] Iron Eater (ID: 17748016/0x010ED030) [10858*]:
    → "Sir Lucius. This adventurer here's brought a curious document."
 63: 0x0479 [0x23] WAIT_FOR_DIALOG_INTERACTION
 64: 0x047A [0x27] REQ_SET(priority=0x10, entity_id=Lucius (ID: 17747992/0x010ED018), tag_num=0x29)
 65: 0x0481 [0x1C] WAIT(60* ticks)
 66: 0x0484 [0x52] END_LOAD_SCHEDULER: End scheduler "p105" with entities [LocalPlayer, LocalPlayer], work=494*
 67: 0x0493 [0x45] LOAD_SCHEDULED_TASK: Load scheduler "p106" with entities [LocalPlayer, LocalPlayer], work=[494*, 0*]
 68: 0x04A4 [0x66] LOAD_EXT_SCHEDULER_MAIN: Load scheduler "tlk1" with entities [Iron Eater (ID: 17748016/0x010ED030), Iron Eater (ID: 17748016/0x010ED030)], work=69*
 69: 0x04B3 [0x2A] GET_REQ_LEVEL(level=16, entity_id=Lucius (ID: 17747992/0x010ED018))
 70: 0x04B9 [0x4A] Iron Eater (ID: 17748016/0x010ED030) looks at Lucius (ID: 17747992/0x010ED018)
 71: 0x04C2 [0x1C] WAIT(30* ticks)
 72: 0x04C5 [0x03] Work_Zone[2] = 60*
 73: 0x04CA [0x27] REQ_SET(priority=0x10, entity_id=Unnamed NPC (ID: 17748175/0x010ED0CF), tag_num=0x02)
 74: 0x04D1 [0x2B] Lucius (ID: 17747992/0x010ED018) [10859*]:
    → "Let me see that."
 75: 0x04D8 [0x23] WAIT_FOR_DIALOG_INTERACTION
 76: 0x04D9 [0x2B] Lucius (ID: 17747992/0x010ED018) [10860*]:
    → "The two-headed serpent...? This is the seal of the Empire of Aht Urhgan."
 77: 0x04E0 [0x23] WAIT_FOR_DIALOG_INTERACTION
 78: 0x04E1 [0x2A] GET_REQ_LEVEL(level=16, entity_id=Unnamed NPC (ID: 17748175/0x010ED0CF))
 79: 0x04E7 [0x66] LOAD_EXT_SCHEDULER_MAIN: Load scheduler "thk2" with entities [Lucius (ID: 17747992/0x010ED018), Lucius (ID: 17747992/0x010ED018)], work=0*
 80: 0x04F6 [0x1C] WAIT(30* ticks)
 81: 0x04F9 [0x52] END_LOAD_SCHEDULER: End scheduler "p106" with entities [LocalPlayer, LocalPlayer], work=494*
 82: 0x0508 [0x45] LOAD_SCHEDULED_TASK: Load scheduler "p107" with entities [LocalPlayer, LocalPlayer], work=[494*, 0*]
 83: 0x0519 [0x1C] WAIT(30* ticks)
 84: 0x051C [0x4A] Lucius (ID: 17747992/0x010ED018) looks at LocalPlayer
 85: 0x0525 [0x4A] LocalPlayer looks at Lucius (ID: 17747992/0x010ED018)
 86: 0x052E [0x7B] Lucius (ID: 17747992/0x010ED018) stops talking
 87: 0x0533 [0x6F] WAIT_FRAME_DELAY: Yield until WaitTime reaches zero
 88: 0x0534 [0x76] CHECK_ENTITY_RENDER_FLAGS: Wait until Lucius (ID: 17747992/0x010ED018) Render.Flags0 and Render.Flags3 conditions are met
 89: 0x0539 [0x2B] Lucius (ID: 17747992/0x010ED018) [10861*]:
    → "Come with me at once."
 90: 0x0540 [0x23] WAIT_FOR_DIALOG_INTERACTION
 91: 0x0541 [0x27] REQ_SET(priority=0x10, entity_id=Lucius (ID: 17747992/0x010ED018), tag_num=0x28)
 92: 0x0548 [0x1C] WAIT(20* ticks)
 93: 0x054B [0x52] END_LOAD_SCHEDULER: End scheduler "p107" with entities [LocalPlayer, LocalPlayer], work=494*
 94: 0x055A [0x45] LOAD_SCHEDULED_TASK: Load scheduler "p123" with entities [LocalPlayer, LocalPlayer], work=[494*, 0*]
 95: 0x056B [0x27] REQ_SET(priority=0x10, entity_id=Door:President's Office (ID: 17748054/0x010ED056), tag_num=0x05)
 96: 0x0572 [0x1C] WAIT(120* ticks)
 97: 0x0575 [0x45] LOAD_SCHEDULED_TASK: Load scheduler "fdo2" with entities [LocalPlayer, LocalPlayer], work=[200*, 0*]
 98: 0x0586 [0x55] WAIT_LOAD_SCHEDULER: Wait for scheduler "fdo2" with entities [LocalPlayer, LocalPlayer], work=200*
 99: 0x0595 [0x52] END_LOAD_SCHEDULER: End scheduler "p123" with entities [LocalPlayer, LocalPlayer], work=494*
100: 0x05A4 [0x75] LOAD_ROOM(Load indoor room, room=303*)
101: 0x05A8 [0x75] LOAD_ROOM(No action)
102: 0x05AA [0x7A] VM_CONTROL: Reset VM for Lucius (ID: 17747992/0x010ED018)
103: 0x05B0 [0xBA] SET_ENTITY_POSITION(entity_id=LocalPlayer, pos_x=99.232*, pos_z=0.063*, pos_y=-20.181*, direction=352.6°*)
104: 0x05BD [0xBA] SET_ENTITY_POSITION(entity_id=Lucius (ID: 17747992/0x010ED018), pos_x=102.172*, pos_z=3.552*, pos_y=-20.170*, direction=81.5°*)
105: 0x05CA [0x4A] LocalPlayer looks at Karst (ID: 17748010/0x010ED02A)
106: 0x05D3 [0x4A] Lucius (ID: 17747992/0x010ED018) looks at Karst (ID: 17748010/0x010ED02A)
107: 0x05DC [0x4A] Volker (ID: 17748014/0x010ED02E) looks at Karst (ID: 17748010/0x010ED02A)
108: 0x05E5 [0x29] REQ_SET_WAIT(priority=0x10, entity_id=Door:President's Office (ID: 17748054/0x010ED056), tag_num=0x06)
109: 0x05EC [0x1C] WAIT(60* ticks)
110: 0x05EF [0x45] LOAD_SCHEDULED_TASK: Load scheduler "p108" with entities [LocalPlayer, LocalPlayer], work=[494*, 0*]
111: 0x0600 [0x45] LOAD_SCHEDULED_TASK: Load scheduler "fdi2" with entities [LocalPlayer, LocalPlayer], work=[200*, 0*]
112: 0x0611 [0x55] WAIT_LOAD_SCHEDULER: Wait for scheduler "fdi2" with entities [LocalPlayer, LocalPlayer], work=200*
113: 0x0620 [0x1C] WAIT(120* ticks)
114: 0x0623 [0x52] END_LOAD_SCHEDULER: End scheduler "p108" with entities [LocalPlayer, LocalPlayer], work=494*
115: 0x0632 [0x45] LOAD_SCHEDULED_TASK: Load scheduler "p109" with entities [LocalPlayer, LocalPlayer], work=[494*, 0*]
116: 0x0643 [0x2B] Karst (ID: 17748010/0x010ED02A) [10862*]:
    → "...That will do."
117: 0x064A [0x23] WAIT_FOR_DIALOG_INTERACTION
118: 0x064B [0x2B] Karst (ID: 17748010/0x010ED02A) [10863*]:
    → "How do you read this matter, Lucius?"
119: 0x0652 [0x23] WAIT_FOR_DIALOG_INTERACTION
120: 0x0653 [0x52] END_LOAD_SCHEDULER: End scheduler "p109" with entities [LocalPlayer, LocalPlayer], work=494*
121: 0x0662 [0x45] LOAD_SCHEDULED_TASK: Load scheduler "p110" with entities [LocalPlayer, LocalPlayer], work=[494*, 0*]
122: 0x0673 [0x66] LOAD_EXT_SCHEDULER_MAIN: Load scheduler "tlk0" with entities [Lucius (ID: 17747992/0x010ED018), Lucius (ID: 17747992/0x010ED018)], work=0*
123: 0x0682 [0x2B] Lucius (ID: 17747992/0x010ED018) [10864*]:
    → "This young Empress is either a fool, or she takes us for one. I say she's plotting something."
124: 0x0689 [0x23] WAIT_FOR_DIALOG_INTERACTION
125: 0x068A [0x66] LOAD_EXT_SCHEDULER_MAIN: Load scheduler "ten0" with entities [Lucius (ID: 17747992/0x010ED018), Lucius (ID: 17747992/0x010ED018)], work=0*
126: 0x0699 [0x52] END_LOAD_SCHEDULER: End scheduler "p110" with entities [LocalPlayer, LocalPlayer], work=494*
127: 0x06A8 [0x45] LOAD_SCHEDULED_TASK: Load scheduler "p111" with entities [LocalPlayer, LocalPlayer], work=[494*, 0*]
128: 0x06B9 [0x4A] Karst (ID: 17748010/0x010ED02A) looks at LocalPlayer
129: 0x06C2 [0x2B] Karst (ID: 17748010/0x010ED02A) [10865*]:
    → "One thing is clear. This colossus has the power to bring down an airship as easily as a musketeer would fell a pigeon."
130: 0x06C9 [0x23] WAIT_FOR_DIALOG_INTERACTION
131: 0x06CA [0x2B] Karst (ID: 17748010/0x010ED02A) [10866*]:
    → "We may have escaped without casualties once, but there is no guarantee we would be so fortunate a second time."
132: 0x06D1 [0x23] WAIT_FOR_DIALOG_INTERACTION
133: 0x06D2 [0x52] END_LOAD_SCHEDULER: End scheduler "p111" with entities [LocalPlayer, LocalPlayer], work=494*
134: 0x06E1 [0x45] LOAD_SCHEDULED_TASK: Load scheduler "p112" with entities [LocalPlayer, LocalPlayer], work=[494*, 0*]
135: 0x06F2 [0x2B] Karst (ID: 17748010/0x010ED02A) [10867*]:
    → "Bastok declines the Empire's request. Take your document and be off with you."
136: 0x06F9 [0x23] WAIT_FOR_DIALOG_INTERACTION
137: 0x06FA [0x52] END_LOAD_SCHEDULER: End scheduler "p112" with entities [LocalPlayer, LocalPlayer], work=494*
138: 0x0709 [0x45] LOAD_SCHEDULED_TASK: Load scheduler "p113" with entities [LocalPlayer, LocalPlayer], work=[494*, 0*]
139: 0x071A [0x5B] LOAD_EXT_SCHEDULER: Load scheduler "hgs0" with entities [Volker (ID: 17748014/0x010ED02E), Volker (ID: 17748014/0x010ED02E)], work=202*
140: 0x0729 [0x2B] Volker (ID: 17748014/0x010ED02E) [10868*]:
    → "Mister President!"
141: 0x0730 [0x23] WAIT_FOR_DIALOG_INTERACTION
142: 0x0731 [0x52] END_LOAD_SCHEDULER: End scheduler "p113" with entities [LocalPlayer, LocalPlayer], work=494*
143: 0x0740 [0x45] LOAD_SCHEDULED_TASK: Load scheduler "p114" with entities [LocalPlayer, LocalPlayer], work=[494*, 0*]
144: 0x0751 [0x79] Karst (ID: 17748010/0x010ED02A) looks at Volker (ID: 17748014/0x010ED02E) (Basic look)
145: 0x075B [0x2B] Volker (ID: 17748014/0x010ED02E) [10869*]:
    → "You sent me to the Empire to observe Nashmeira's coronation. Now hear me when I say that I saw no deception in her eyes."
146: 0x0762 [0x23] WAIT_FOR_DIALOG_INTERACTION
147: 0x0763 [0x2B] Volker (ID: 17748014/0x010ED02E) [10870*]:
    → "I saw one pure of heart. One who, despite her tender years, is possessed of the strength and conviction to unite a nation."
148: 0x076A [0x23] WAIT_FOR_DIALOG_INTERACTION
149: 0x076B [0x5B] LOAD_EXT_SCHEDULER: Load scheduler "hgs1" with entities [Volker (ID: 17748014/0x010ED02E), Volker (ID: 17748014/0x010ED02E)], work=202*
150: 0x077A [0x52] END_LOAD_SCHEDULER: End scheduler "p114" with entities [LocalPlayer, LocalPlayer], work=494*
151: 0x0789 [0x45] LOAD_SCHEDULED_TASK: Load scheduler "p115" with entities [LocalPlayer, LocalPlayer], work=[494*, 0*]
152: 0x079A [0x79] Volker (ID: 17748014/0x010ED02E) looks at Karst (ID: 17748010/0x010ED02A) (Basic look)
153: 0x07A4 [0x7C] Karst (ID: 17748010/0x010ED02A)->Render.Flags2 |= 0x00
154: 0x07AA [0x2B] Karst (ID: 17748010/0x010ED02A) [10871*]:
    → "..."
155: 0x07B1 [0x23] WAIT_FOR_DIALOG_INTERACTION
156: 0x07B2 [0x52] END_LOAD_SCHEDULER: End scheduler "p115" with entities [LocalPlayer, LocalPlayer], work=494*
157: 0x07C1 [0x45] LOAD_SCHEDULED_TASK: Load scheduler "p116" with entities [LocalPlayer, LocalPlayer], work=[494*, 0*]
158: 0x07D2 [0x7B] LocalPlayer stops talking
159: 0x07D7 [0x7C] Karst (ID: 17748010/0x010ED02A)->Render.Flags2 |= 0x01
160: 0x07DD [0x5B] LOAD_EXT_SCHEDULER: Load scheduler "tlb0" with entities [Volker (ID: 17748014/0x010ED02E), Volker (ID: 17748014/0x010ED02E)], work=200*
161: 0x07EC [0x2B] Volker (ID: 17748014/0x010ED02E) [10872*]:
    → "A leader beloved and trusted by her people. A leader who now earnestly seeks our aid."
162: 0x07F3 [0x23] WAIT_FOR_DIALOG_INTERACTION
163: 0x07F4 [0x2B] Volker (ID: 17748014/0x010ED02E) [10873*]:
    → "If we refuse, would we not risk alienating one who might prove to be a steadfast ally?"
164: 0x07FB [0x23] WAIT_FOR_DIALOG_INTERACTION
165: 0x07FC [0x5B] LOAD_EXT_SCHEDULER: Load scheduler "tlb1" with entities [Volker (ID: 17748014/0x010ED02E), Volker (ID: 17748014/0x010ED02E)], work=200*
166: 0x080B [0x52] END_LOAD_SCHEDULER: End scheduler "p116" with entities [LocalPlayer, LocalPlayer], work=494*
167: 0x081A [0x45] LOAD_SCHEDULED_TASK: Load scheduler "p117" with entities [LocalPlayer, LocalPlayer], work=[494*, 0*]
168: 0x082B [0x7C] Lucius (ID: 17747992/0x010ED018)->Render.Flags2 |= 0x00
169: 0x0831 [0x2B] Lucius (ID: 17747992/0x010ED018) [10874*]:
    → "..."
170: 0x0838 [0x23] WAIT_FOR_DIALOG_INTERACTION
171: 0x0839 [0x52] END_LOAD_SCHEDULER: End scheduler "p117" with entities [LocalPlayer, LocalPlayer], work=494*
172: 0x0848 [0x45] LOAD_SCHEDULED_TASK: Load scheduler "p118" with entities [LocalPlayer, LocalPlayer], work=[494*, 0*]
173: 0x0859 [0x66] LOAD_EXT_SCHEDULER_MAIN: Load scheduler "ten0" with entities [Lucius (ID: 17747992/0x010ED018), Lucius (ID: 17747992/0x010ED018)], work=0*
174: 0x0868 [0x7C] Lucius (ID: 17747992/0x010ED018)->Render.Flags2 |= 0x01
175: 0x086E [0x2B] Karst (ID: 17748010/0x010ED02A) [10875*]:
    → "Your words ring true, Volker."
176: 0x0875 [0x23] WAIT_FOR_DIALOG_INTERACTION
177: 0x0876 [0x2B] Karst (ID: 17748010/0x010ED02A) [10876*]:
    → "And yet I cannot agree. As President, I will not take a course of action that would place my citizens in harm's way."
178: 0x087D [0x23] WAIT_FOR_DIALOG_INTERACTION
179: 0x087E [0x52] END_LOAD_SCHEDULER: End scheduler "p118" with entities [LocalPlayer, LocalPlayer], work=494*
180: 0x088D [0x45] LOAD_SCHEDULED_TASK: Load scheduler "p119" with entities [LocalPlayer, LocalPlayer], work=[494*, 0*]
181: 0x089E [0x1C] WAIT(5* ticks)
182: 0x08A1 [0x4A] Karst (ID: 17748010/0x010ED02A) looks at Lucius (ID: 17747992/0x010ED018)
183: 0x08AA [0x2B] Lucius (ID: 17747992/0x010ED018) [10877*]:
    → "...Your Excellency."
184: 0x08B1 [0x23] WAIT_FOR_DIALOG_INTERACTION
185: 0x08B2 [0x6F] WAIT_FRAME_DELAY: Yield until WaitTime reaches zero
186: 0x08B3 [0x76] CHECK_ENTITY_RENDER_FLAGS: Wait until Karst (ID: 17748010/0x010ED02A) Render.Flags0 and Render.Flags3 conditions are met
187: 0x08B8 [0x1C] WAIT(5* ticks)
188: 0x08BB [0x52] END_LOAD_SCHEDULER: End scheduler "p119" with entities [LocalPlayer, LocalPlayer], work=494*
189: 0x08CA [0x45] LOAD_SCHEDULED_TASK: Load scheduler "p120" with entities [LocalPlayer, LocalPlayer], work=[494*, 0*]
190: 0x08DB [0x5B] LOAD_EXT_SCHEDULER: Load scheduler "era0" with entities [Karst (ID: 17748010/0x010ED02A), Karst (ID: 17748010/0x010ED02A)], work=150*
191: 0x08EA [0x2B] Karst (ID: 17748010/0x010ED02A) [10878*]:
    → "Lucius?"
192: 0x08F1 [0x23] WAIT_FOR_DIALOG_INTERACTION
193: 0x08F2 [0x52] END_LOAD_SCHEDULER: End scheduler "p120" with entities [LocalPlayer, LocalPlayer], work=494*
194: 0x0901 [0x45] LOAD_SCHEDULED_TASK: Load scheduler "p121" with entities [LocalPlayer, LocalPlayer], work=[494*, 0*]
195: 0x0912 [0x5B] LOAD_EXT_SCHEDULER: Load scheduler "era1" with entities [Karst (ID: 17748010/0x010ED02A), Karst (ID: 17748010/0x010ED02A)], work=150*
196: 0x0921 [0x66] LOAD_EXT_SCHEDULER_MAIN: Load scheduler "tlk0" with entities [Lucius (ID: 17747992/0x010ED018), Lucius (ID: 17747992/0x010ED018)], work=0*
197: 0x0930 [0x2B] Lucius (ID: 17747992/0x010ED018) [10879*]:
    → "I can scarce believe what I am saying, but...if Captain Volker is so convinced of the Empire's good faith, perhaps we should reconsider."
198: 0x0937 [0x23] WAIT_FOR_DIALOG_INTERACTION
199: 0x0938 [0x52] END_LOAD_SCHEDULER: End scheduler "p121" with entities [LocalPlayer, LocalPlayer], work=494*
200: 0x0947 [0x45] LOAD_SCHEDULED_TASK: Load scheduler "p122" with entities [LocalPlayer, LocalPlayer], work=[494*, 0*]
201: 0x0958 [0x66] LOAD_EXT_SCHEDULER_MAIN: Load scheduler "ten0" with entities [Lucius (ID: 17747992/0x010ED018), Lucius (ID: 17747992/0x010ED018)], work=0*
202: 0x0967 [0x4A] Karst (ID: 17748010/0x010ED02A) looks at LocalPlayer
203: 0x0970 [0x6F] WAIT_FRAME_DELAY: Yield until WaitTime reaches zero
204: 0x0971 [0x76] CHECK_ENTITY_RENDER_FLAGS: Wait until Karst (ID: 17748010/0x010ED02A) Render.Flags0 and Render.Flags3 conditions are met
205: 0x0976 [0x2B] Karst (ID: 17748010/0x010ED02A) [10880*]:
    → "Two of my most trusted advisors now tell me to blindly accept this Empress's words. What say you, <Player>?"
206: 0x097D [0x23] WAIT_FOR_DIALOG_INTERACTION
207: 0x097E [0x24] CREATE_DIALOG(message_id=10881*, default_option=0*, option_flags=0*)
    → "Can Nashmeira be trusted? [I swear on my life./On second thought...]"
208: 0x0985 [0x25] WAIT_DIALOG_SELECT()
209: 0x0986 [0x02] IF !(Work_Zone[0] == 0*) GOTO 0x0B53
210: 0x098E [0x29] REQ_SET_WAIT(priority=0x10, entity_id=LocalPlayer, tag_num=0x6F)
211: 0x0995 [0x02] IF !(Work_Zone[2] == 1*) GOTO 0x09C0
212: 0x099D [0x52] END_LOAD_SCHEDULER: End scheduler "p122" with entities [LocalPlayer, LocalPlayer], work=494*
213: 0x09AC [0x45] LOAD_SCHEDULED_TASK: Load scheduler "phm2" with entities [LocalPlayer, LocalPlayer], work=[494*, 0*]
214: 0x09BD [0x01] GOTO 0x0AED
215: 0x09C0 [0x02] IF !(Work_Zone[2] == 2*) GOTO 0x09EB
216: 0x09C8 [0x52] END_LOAD_SCHEDULER: End scheduler "p122" with entities [LocalPlayer, LocalPlayer], work=494*
217: 0x09D7 [0x45] LOAD_SCHEDULED_TASK: Load scheduler "phm2" with entities [LocalPlayer, LocalPlayer], work=[494*, 0*]
218: 0x09E8 [0x01] GOTO 0x0AED
219: 0x09EB [0x02] IF !(Work_Zone[2] == 3*) GOTO 0x0A16
220: 0x09F3 [0x52] END_LOAD_SCHEDULER: End scheduler "p122" with entities [LocalPlayer, LocalPlayer], work=494*
221: 0x0A02 [0x45] LOAD_SCHEDULED_TASK: Load scheduler "pem2" with entities [LocalPlayer, LocalPlayer], work=[494*, 0*]
222: 0x0A13 [0x01] GOTO 0x0AED
223: 0x0A16 [0x02] IF !(Work_Zone[2] == 4*) GOTO 0x0A41
224: 0x0A1E [0x52] END_LOAD_SCHEDULER: End scheduler "p122" with entities [LocalPlayer, LocalPlayer], work=494*
225: 0x0A2D [0x45] LOAD_SCHEDULED_TASK: Load scheduler "pem2" with entities [LocalPlayer, LocalPlayer], work=[494*, 0*]
226: 0x0A3E [0x01] GOTO 0x0AED
227: 0x0A41 [0x02] IF !(Work_Zone[2] == 5*) GOTO 0x0A6C
228: 0x0A49 [0x52] END_LOAD_SCHEDULER: End scheduler "p122" with entities [LocalPlayer, LocalPlayer], work=494*
229: 0x0A58 [0x45] LOAD_SCHEDULED_TASK: Load scheduler "ptr2" with entities [LocalPlayer, LocalPlayer], work=[494*, 0*]
230: 0x0A69 [0x01] GOTO 0x0AED
231: 0x0A6C [0x02] IF !(Work_Zone[2] == 6*) GOTO 0x0A97
232: 0x0A74 [0x52] END_LOAD_SCHEDULER: End scheduler "p122" with entities [LocalPlayer, LocalPlayer], work=494*
233: 0x0A83 [0x45] LOAD_SCHEDULED_TASK: Load scheduler "ptr2" with entities [LocalPlayer, LocalPlayer], work=[494*, 0*]
234: 0x0A94 [0x01] GOTO 0x0AED
235: 0x0A97 [0x02] IF !(Work_Zone[2] == 7*) GOTO 0x0AC2
236: 0x0A9F [0x52] END_LOAD_SCHEDULER: End scheduler "p122" with entities [LocalPlayer, LocalPlayer], work=494*
237: 0x0AAE [0x45] LOAD_SCHEDULED_TASK: Load scheduler "pmt2" with entities [LocalPlayer, LocalPlayer], work=[494*, 0*]
238: 0x0ABF [0x01] GOTO 0x0AED
239: 0x0AC2 [0x02] IF !(Work_Zone[2] == 8*) GOTO 0x0AED
240: 0x0ACA [0x52] END_LOAD_SCHEDULER: End scheduler "p122" with entities [LocalPlayer, LocalPlayer], work=494*
241: 0x0AD9 [0x45] LOAD_SCHEDULED_TASK: Load scheduler "pgl2" with entities [LocalPlayer, LocalPlayer], work=[494*, 0*]
242: 0x0AEA [0x01] GOTO 0x0AED

SUBROUTINE_0AED:
243: 0x0AED [0x6E] LocalPlayer uses emote 36*
244: 0x0AF4 [0x99] Wait for LocalPlayer animation to complete
245: 0x0AF9 [0x4A] Volker (ID: 17748014/0x010ED02E) looks at Karst (ID: 17748010/0x010ED02A)
246: 0x0B02 [0x1C] WAIT(120* ticks)
247: 0x0B05 [0x52] END_LOAD_SCHEDULER: End scheduler "phm2" with entities [LocalPlayer, LocalPlayer], work=494*
248: 0x0B14 [0x52] END_LOAD_SCHEDULER: End scheduler "pem2" with entities [LocalPlayer, LocalPlayer], work=494*
249: 0x0B23 [0x52] END_LOAD_SCHEDULER: End scheduler "ptr2" with entities [LocalPlayer, LocalPlayer], work=494*
250: 0x0B32 [0x52] END_LOAD_SCHEDULER: End scheduler "pmt2" with entities [LocalPlayer, LocalPlayer], work=494*
251: 0x0B41 [0x52] END_LOAD_SCHEDULER: End scheduler "pgl2" with entities [LocalPlayer, LocalPlayer], work=494*
252: 0x0B50 [0x01] GOTO 0x0BD6
253: 0x0B53 [0x02] IF !(Work_Zone[0] == 1*) GOTO 0x0BD6
254: 0x0B5B [0x52] END_LOAD_SCHEDULER: End scheduler "p122" with entities [LocalPlayer, LocalPlayer], work=494*
255: 0x0B6A [0x45] LOAD_SCHEDULED_TASK: Load scheduler "p128" with entities [LocalPlayer, LocalPlayer], work=[494*, 0*]
256: 0x0B7B [0x4A] Volker (ID: 17748014/0x010ED02E) looks at LocalPlayer
257: 0x0B84 [0x6F] WAIT_FRAME_DELAY: Yield until WaitTime reaches zero
258: 0x0B85 [0x76] CHECK_ENTITY_RENDER_FLAGS: Wait until Volker (ID: 17748014/0x010ED02E) Render.Flags0 and Render.Flags3 conditions are met
259: 0x0B8A [0x5B] LOAD_EXT_SCHEDULER: Load scheduler "hgs0" with entities [Volker (ID: 17748014/0x010ED02E), Volker (ID: 17748014/0x010ED02E)], work=202*
260: 0x0B99 [0x2B] Volker (ID: 17748014/0x010ED02E) [10885*]:
    → "What are you thinking, <Player>!?"
261: 0x0BA0 [0x23] WAIT_FOR_DIALOG_INTERACTION
262: 0x0BA1 [0x52] END_LOAD_SCHEDULER: End scheduler "p128" with entities [LocalPlayer, LocalPlayer], work=494*
263: 0x0BB0 [0x45] LOAD_SCHEDULED_TASK: Load scheduler "p122" with entities [LocalPlayer, LocalPlayer], work=[494*, 0*]
264: 0x0BC1 [0x5B] LOAD_EXT_SCHEDULER: Load scheduler "hgs1" with entities [Volker (ID: 17748014/0x010ED02E), Volker (ID: 17748014/0x010ED02E)], work=202*
265: 0x0BD0 [0x01] GOTO 0x097E

SUBROUTINE_0BD6:
266: 0x0BD6 [0x45] LOAD_SCHEDULED_TASK: Load scheduler "p127" with entities [LocalPlayer, LocalPlayer], work=[494*, 0*]
267: 0x0BE7 [0x02] IF !(ExtData[1]->WorkLocal[0] == 0*) GOTO 0x0C09
268: 0x0BEF [0x5B] LOAD_EXT_SCHEDULER: Load scheduler "tlk1" with entities [Karst (ID: 17748010/0x010ED02A), Karst (ID: 17748010/0x010ED02A)], work=150*
269: 0x0BFE [0x2B] Karst (ID: 17748010/0x010ED02A) [10883*]:
    → "Hmph. I stand in the company of reckless fools..."
270: 0x0C05 [0x23] WAIT_FOR_DIALOG_INTERACTION
271: 0x0C06 [0x01] GOTO 0x0C4D
272: 0x0C09 [0x02] IF !(ExtData[1]->WorkLocal[0] == 1*) GOTO 0x0C2B
273: 0x0C11 [0x5B] LOAD_EXT_SCHEDULER: Load scheduler "tlk1" with entities [Karst (ID: 17748010/0x010ED02A), Karst (ID: 17748010/0x010ED02A)], work=150*
274: 0x0C20 [0x2B] Karst (ID: 17748010/0x010ED02A) [10882*]:
    → "Hmph...and what would a run-of-the-mill adventurer like you know?"
275: 0x0C27 [0x23] WAIT_FOR_DIALOG_INTERACTION
276: 0x0C28 [0x01] GOTO 0x0C4D
277: 0x0C2B [0x02] IF !(ExtData[1]->WorkLocal[0] == 2*) GOTO 0x0C4D
278: 0x0C33 [0x5B] LOAD_EXT_SCHEDULER: Load scheduler "tlk1" with entities [Karst (ID: 17748010/0x010ED02A), Karst (ID: 17748010/0x010ED02A)], work=150*
279: 0x0C42 [0x2B] Karst (ID: 17748010/0x010ED02A) [10884*]:
    → "Hmph. I stand in the company of reckless fools..."
280: 0x0C49 [0x23] WAIT_FOR_DIALOG_INTERACTION
281: 0x0C4A [0x01] GOTO 0x0C4D

SUBROUTINE_0C4D:
282: 0x0C4D [0x2B] Karst (ID: 17748010/0x010ED02A) [10886*]:
    → "...Very well. You have my permission."
283: 0x0C54 [0x23] WAIT_FOR_DIALOG_INTERACTION
284: 0x0C55 [0x52] END_LOAD_SCHEDULER: End scheduler "p127" with entities [LocalPlayer, LocalPlayer], work=494*
285: 0x0C64 [0x45] LOAD_SCHEDULED_TASK: Load scheduler "p124" with entities [LocalPlayer, LocalPlayer], work=[494*, 0*]
286: 0x0C75 [0x79] Karst (ID: 17748010/0x010ED02A) looks at Volker (ID: 17748014/0x010ED02E) (Basic look)
287: 0x0C7F [0x2B] Karst (ID: 17748010/0x010ED02A) [10887*]:
    → "Volker. The moment anything--anything, I say--goes awry, you will take responsibility."
288: 0x0C86 [0x23] WAIT_FOR_DIALOG_INTERACTION
289: 0x0C87 [0x52] END_LOAD_SCHEDULER: End scheduler "p124" with entities [LocalPlayer, LocalPlayer], work=494*
290: 0x0C96 [0x45] LOAD_SCHEDULED_TASK: Load scheduler "p125" with entities [LocalPlayer, LocalPlayer], work=[494*, 0*]
291: 0x0CA7 [0x03] Work_Zone[2] = 100*
292: 0x0CAC [0x27] REQ_SET(priority=0x10, entity_id=Unnamed NPC (ID: 17748175/0x010ED0CF), tag_num=0x02)
293: 0x0CB3 [0x5B] LOAD_EXT_SCHEDULER: Load scheduler "kei0" with entities [Volker (ID: 17748014/0x010ED02E), Volker (ID: 17748014/0x010ED02E)], work=1396*
294: 0x0CC2 [0x2B] Volker (ID: 17748014/0x010ED02E) [10888*]:
    → "Mister President, sir!"
295: 0x0CC9 [0x23] WAIT_FOR_DIALOG_INTERACTION
296: 0x0CCA [0x2A] GET_REQ_LEVEL(level=16, entity_id=Unnamed NPC (ID: 17748175/0x010ED0CF))
297: 0x0CD0 [0x52] END_LOAD_SCHEDULER: End scheduler "p125" with entities [LocalPlayer, LocalPlayer], work=494*
298: 0x0CDF [0x45] LOAD_SCHEDULED_TASK: Load scheduler "p126" with entities [LocalPlayer, LocalPlayer], work=[494*, 0*]
299: 0x0CF0 [0x1C] WAIT(120* ticks)
300: 0x0CF3 [0x1A] CALL_SUBROUTINE(address=0x0064)
301: 0x0CF6 [0x1C] WAIT(30* ticks)
302: 0x0CF9 [0x59] UPDATE_ENTITY_DATA: LocalPlayer->Render.Flags0 &= ~0x200000
303: 0x0D00 [0x52] END_LOAD_SCHEDULER: End scheduler "p126" with entities [LocalPlayer, LocalPlayer], work=494*
304: 0x0D0F [0x78] ENABLE_GAME_TIMER_RESET_WEATHER()
305: 0x0D10 [0x1C] WAIT(15* ticks)
306: 0x0D13 [0xAB] EventEntity->UnknownFlag = 1 // Enable unknown flag
307: 0x0D15 [0x1C] WAIT(15* ticks)
308: 0x0D18 [0xAB] EventEntity->DespawnValue = 0* // Set despawn value
309: 0x0D1C [0x1C] WAIT(1* ticks)
310: 0x0D1F [0x46] CAMERA_CONTROL: Restore default settings
311: 0x0D21 [0x45] LOAD_SCHEDULED_TASK: Load scheduler "fdi2" with entities [LocalPlayer, LocalPlayer], work=[200*, 0*]
312: 0x0D32 [0x21] END_EVENT
313: 0x0D33 [0x00] END_REQSTACK()
```

#### Data or dead code:

```
# Dead code (unreachable instructions):
     0x0BD3 [0x01] GOTO 0x0BD6
```

### Event 204

#### Metadata

| Field        | Value    |
|--------------|----------|
| Entrypoint   | 0x0D34   |
| Data Size    | 61 bytes |
| Instructions | 13       |

```
      00 01 02 03 04 05 06 07  08 09 0A 0B 0C 0D 0E 0F
      -- -- -- -- -- -- -- --  -- -- -- -- -- -- -- --
0D30:             03 09 10 4F  80 1A 61 0F 66 22 80 0D      ...O..a.f"..
0D40: D0 0E 01 0D D0 0E 01 74  6C 6B 30 2B 0D D0 0E 01  .......tlk0+....
0D50: 50 80 23 2B 0D D0 0E 01  51 80 23 6B 69 64 6C 30  P.#+....Q.#kidl0
0D60: 0D D0 0E 01 2B 0D D0 0E  01 52 80 23 1A 12 11 21  ....+....R.#...!
0D70: 00                                                .               
```

#### Opcodes

```
  0: 0x0D34 [0x03] Work_Zone[9] = 599*
  1: 0x0D39 [0x1A] CALL_SUBROUTINE(address=0x0F61)
  2: 0x0D3C [0x66] LOAD_EXT_SCHEDULER_MAIN: Load scheduler "tlk0" with entities [Riault (ID: 17747981/0x010ED00D), Riault (ID: 17747981/0x010ED00D)], work=20*
  3: 0x0D4B [0x2B] Riault (ID: 17747981/0x010ED00D) [7685*]:
    → "Your mission is to go to the Palborough Mines, currently under Quadav control, and take a sample of the dwindling resource called mythril."
  4: 0x0D52 [0x23] WAIT_FOR_DIALOG_INTERACTION
  5: 0x0D53 [0x2B] Riault (ID: 17747981/0x010ED00D) [7686*]:
    → "To be precise, we need you to bring back $7."
  6: 0x0D5A [0x23] WAIT_FOR_DIALOG_INTERACTION
  7: 0x0D5B [0x6B] STOP_AND_IDLE: Riault (ID: 17747981/0x010ED00D) stops current action and resets to idle (animation="idl0")
  8: 0x0D64 [0x2B] Riault (ID: 17747981/0x010ED00D) [7687*]:
    → "Thanks to our agreement to mutual cooperation, Bastok is allowing us to send you into the mines. Your true objective is to gather as much information as possible on Bastok's advanced technology."
  9: 0x0D6B [0x23] WAIT_FOR_DIALOG_INTERACTION
 10: 0x0D6C [0x1A] CALL_SUBROUTINE(address=0x1112)
 11: 0x0D6F [0x21] END_EVENT
 12: 0x0D70 [0x00] END_REQSTACK()
```

### Event 205

#### Metadata

| Field        | Value    |
|--------------|----------|
| Entrypoint   | 0x0D71   |
| Data Size    | 88 bytes |
| Instructions | 18       |

```
      00 01 02 03 04 05 06 07  08 09 0A 0B 0C 0D 0E 0F
      -- -- -- -- -- -- -- --  -- -- -- -- -- -- -- --
0D70:    03 09 10 4F 80 1A C3  11 2B 0C D0 0E 01 53 80   ...O....+....S.
0D80: 23 79 00 0C D0 0E 01 0D  D0 0E 01 2B 0C D0 0E 01  #y.........+....
0D90: 54 80 23 6B 69 64 6C 30  0C D0 0E 01 1A 3B 12 2B  T.#kidl0.....;.+
0DA0: 0C D0 0E 01 55 80 23 2A  0A 0C D0 0E 01 66 56 80  ....U.#*.....fV.
0DB0: 0C D0 0E 01 0C D0 0E 01  73 61 6C 30 2B 0C D0 0E  ........sal0+...
0DC0: 01 57 80 23 1A CC 13 21  00                       .W.#...!.       
```

#### Opcodes

```
  0: 0x0D71 [0x03] Work_Zone[9] = 599*
  1: 0x0D76 [0x1A] CALL_SUBROUTINE(address=0x11C3)
  2: 0x0D79 [0x2B] Savae E Paleade (ID: 17747980/0x010ED00C) [7694*]:
    → "Ah, you've brought the $7. Good work."
  3: 0x0D80 [0x23] WAIT_FOR_DIALOG_INTERACTION
  4: 0x0D81 [0x79] Savae E Paleade (ID: 17747980/0x010ED00C) looks at Riault (ID: 17747981/0x010ED00D) (Basic look)
  5: 0x0D8B [0x2B] Savae E Paleade (ID: 17747980/0x010ED00C) [7695*]:
    → "I will have Riault make a brief of the information we've been able to assemble on Bastokan technology. Riault, if you please."
  6: 0x0D92 [0x23] WAIT_FOR_DIALOG_INTERACTION
  7: 0x0D93 [0x6B] STOP_AND_IDLE: Savae E Paleade (ID: 17747980/0x010ED00C) stops current action and resets to idle (animation="idl0")
  8: 0x0D9C [0x1A] CALL_SUBROUTINE(address=0x123B)
  9: 0x0D9F [0x2B] Savae E Paleade (ID: 17747980/0x010ED00C) [7707*]:
    → "You are going to Windurst next, aren't you? Do as you have done here. Head to the consulate, and they will take care of you."
 10: 0x0DA6 [0x23] WAIT_FOR_DIALOG_INTERACTION
 11: 0x0DA7 [0x2A] GET_REQ_LEVEL(level=10, entity_id=Savae E Paleade (ID: 17747980/0x010ED00C))
 12: 0x0DAD [0x66] LOAD_EXT_SCHEDULER_MAIN: Load scheduler "sal0" with entities [Savae E Paleade (ID: 17747980/0x010ED00C), Savae E Paleade (ID: 17747980/0x010ED00C)], work=31*
 13: 0x0DBC [0x2B] Savae E Paleade (ID: 17747980/0x010ED00C) [7708*]:
    → "Glory be to San d'Oria, and may you walk with honor."
 14: 0x0DC3 [0x23] WAIT_FOR_DIALOG_INTERACTION
 15: 0x0DC4 [0x1A] CALL_SUBROUTINE(address=0x13CC)
 16: 0x0DC7 [0x21] END_EVENT
 17: 0x0DC8 [0x00] END_REQSTACK()
```

### Event 206

#### Metadata

| Field        | Value    |
|--------------|----------|
| Entrypoint   | 0x0DC9   |
| Data Size    | 48 bytes |
| Instructions | 10       |

```
      00 01 02 03 04 05 06 07  08 09 0A 0B 0C 0D 0E 0F
      -- -- -- -- -- -- -- --  -- -- -- -- -- -- -- --
0DC0:                             1A 61 0F 66 22 80 0D           .a.f"..
0DD0: D0 0E 01 0D D0 0E 01 74  6C 6B 30 2B 0D D0 0E 01  .......tlk0+....
0DE0: 58 80 23 2B 0D D0 0E 01  59 80 23 6B 69 64 6C 30  X.#+....Y.#kidl0
0DF0: 0D D0 0E 01 1A 12 11 21  00                       .......!.       
```

#### Opcodes

```
  0: 0x0DC9 [0x1A] CALL_SUBROUTINE(address=0x0F61)
  1: 0x0DCC [0x66] LOAD_EXT_SCHEDULER_MAIN: Load scheduler "tlk0" with entities [Riault (ID: 17747981/0x010ED00D), Riault (ID: 17747981/0x010ED00D)], work=20*
  2: 0x0DDB [0x2B] Riault (ID: 17747981/0x010ED00D) [7688*]:
    → "We need to find out who or what is rallying the beastmen, and at the same time make it look like we are cooperating with Bastok."
  3: 0x0DE2 [0x23] WAIT_FOR_DIALOG_INTERACTION
  4: 0x0DE3 [0x2B] Riault (ID: 17747981/0x010ED00D) [7689*]:
    → "That is why we need you to go investigate the Palborough Mines. They were once the property of Bastok...but these days, no sane Bastoker would come within a malm of it, given the choice."
  5: 0x0DEA [0x23] WAIT_FOR_DIALOG_INTERACTION
  6: 0x0DEB [0x6B] STOP_AND_IDLE: Riault (ID: 17747981/0x010ED00D) stops current action and resets to idle (animation="idl0")
  7: 0x0DF4 [0x1A] CALL_SUBROUTINE(address=0x1112)
  8: 0x0DF7 [0x21] END_EVENT
  9: 0x0DF8 [0x00] END_REQSTACK()
```

### Event 207

#### Metadata

| Field        | Value    |
|--------------|----------|
| Entrypoint   | 0x0DF9   |
| Data Size    | 83 bytes |
| Instructions | 17       |

```
      00 01 02 03 04 05 06 07  08 09 0A 0B 0C 0D 0E 0F
      -- -- -- -- -- -- -- --  -- -- -- -- -- -- -- --
0DF0:                             1A C3 11 2B 0C D0 0E           ...+...
0E00: 01 5A 80 23 79 00 0C D0  0E 01 0D D0 0E 01 2B 0C  .Z.#y.........+.
0E10: D0 0E 01 5B 80 23 6B 69  64 6C 30 0C D0 0E 01 1A  ...[.#kidl0.....
0E20: 3B 12 2B 0C D0 0E 01 5C  80 23 2A 0A 0C D0 0E 01  ;.+....\.#*.....
0E30: 66 06 80 0C D0 0E 01 0C  D0 0E 01 73 61 6C 30 2B  f..........sal0+
0E40: 0C D0 0E 01 57 80 23 1A  CC 13 21 00              ....W.#...!.    
```

#### Opcodes

```
  0: 0x0DF9 [0x1A] CALL_SUBROUTINE(address=0x11C3)
  1: 0x0DFC [0x2B] Savae E Paleade (ID: 17747980/0x010ED00C) [7696*]:
    → "Ah, you have returned. What did you find? Hmm...I see. I am glad you made it back safely."
  2: 0x0E03 [0x23] WAIT_FOR_DIALOG_INTERACTION
  3: 0x0E04 [0x79] Savae E Paleade (ID: 17747980/0x010ED00C) looks at Riault (ID: 17747981/0x010ED00D) (Basic look)
  4: 0x0E0E [0x2B] Savae E Paleade (ID: 17747980/0x010ED00C) [7697*]:
    → "Riault will write down the details of your investigation. Please tell him what you have seen."
  5: 0x0E15 [0x23] WAIT_FOR_DIALOG_INTERACTION
  6: 0x0E16 [0x6B] STOP_AND_IDLE: Savae E Paleade (ID: 17747980/0x010ED00C) stops current action and resets to idle (animation="idl0")
  7: 0x0E1F [0x1A] CALL_SUBROUTINE(address=0x123B)
  8: 0x0E22 [0x2B] Savae E Paleade (ID: 17747980/0x010ED00C) [7709*]:
    → "Your mission is almost complete. You have only to return to San d'Oria with your report."
  9: 0x0E29 [0x23] WAIT_FOR_DIALOG_INTERACTION
 10: 0x0E2A [0x2A] GET_REQ_LEVEL(level=10, entity_id=Savae E Paleade (ID: 17747980/0x010ED00C))
 11: 0x0E30 [0x66] LOAD_EXT_SCHEDULER_MAIN: Load scheduler "sal0" with entities [Savae E Paleade (ID: 17747980/0x010ED00C), Savae E Paleade (ID: 17747980/0x010ED00C)], work=30*
 12: 0x0E3F [0x2B] Savae E Paleade (ID: 17747980/0x010ED00C) [7708*]:
    → "Glory be to San d'Oria, and may you walk with honor."
 13: 0x0E46 [0x23] WAIT_FOR_DIALOG_INTERACTION
 14: 0x0E47 [0x1A] CALL_SUBROUTINE(address=0x13CC)
 15: 0x0E4A [0x21] END_EVENT
 16: 0x0E4B [0x00] END_REQSTACK()
```

### Event 254

#### Metadata

| Field        | Value    |
|--------------|----------|
| Entrypoint   | 0x0E4C   |
| Data Size    | 62 bytes |
| Instructions | 12       |

```
      00 01 02 03 04 05 06 07  08 09 0A 0B 0C 0D 0E 0F
      -- -- -- -- -- -- -- --  -- -- -- -- -- -- -- --
0E40:                                      1A 22 14 2B              .".+
0E50: 11 D0 0E 01 5D 80 23 66  5E 80 10 D0 0E 01 10 D0  ....].#f^.......
0E60: 0E 01 62 69 6B 30 2B 10  D0 0E 01 5F 80 23 66 60  ..bik0+...._.#f`
0E70: 80 11 D0 0E 01 11 D0 0E  01 74 6C 6B 30 2B 11 D0  .........tlk0+..
0E80: 0E 01 61 80 23 1A D2 16  21 00                    ..a.#...!.      
```

#### Opcodes

```
  0: 0x0E4C [0x1A] CALL_SUBROUTINE(address=0x1422)
  1: 0x0E4F [0x2B] Topuru-Kuperu (ID: 17747985/0x010ED011) [7729*]:
    → "Oh...I remember now. We need some refined ore."
  2: 0x0E56 [0x23] WAIT_FOR_DIALOG_INTERACTION
  3: 0x0E57 [0x66] LOAD_EXT_SCHEDULER_MAIN: Load scheduler "bik0" with entities [Patt-Pott (ID: 17747984/0x010ED010), Patt-Pott (ID: 17747984/0x010ED010)], work=42*
  4: 0x0E66 [0x2B] Patt-Pott (ID: 17747984/0x010ED010) [7730*]:
    → "What? Is that really something we should be asking a great adventurer from Windurst to do? And the Palborough Mines are infested with Quadav, too!"
  5: 0x0E6D [0x23] WAIT_FOR_DIALOG_INTERACTION
  6: 0x0E6E [0x66] LOAD_EXT_SCHEDULER_MAIN: Load scheduler "tlk0" with entities [Topuru-Kuperu (ID: 17747985/0x010ED011), Topuru-Kuperu (ID: 17747985/0x010ED011)], work=40*
  7: 0x0E7D [0x2B] Topuru-Kuperu (ID: 17747985/0x010ED011) [7731*]:
    → "Beg your pardon, sir, but...I think it's our pretext for studying Bastokan technology, sir..."
  8: 0x0E84 [0x23] WAIT_FOR_DIALOG_INTERACTION
  9: 0x0E85 [0x1A] CALL_SUBROUTINE(address=0x16D2)
 10: 0x0E88 [0x21] END_EVENT
 11: 0x0E89 [0x00] END_REQSTACK()
```

### Event 255

#### Metadata

| Field        | Value    |
|--------------|----------|
| Entrypoint   | 0x0E8A   |
| Data Size    | 75 bytes |
| Instructions | 17       |

```
      00 01 02 03 04 05 06 07  08 09 0A 0B 0C 0D 0E 0F
      -- -- -- -- -- -- -- --  -- -- -- -- -- -- -- --
0E80:                                1A 7F 17 03 09 10            ......
0E90: 4F 80 2B 10 D0 0E 01 62  80 23 66 60 80 10 D0 0E  O.+....b.#f`....
0EA0: 01 10 D0 0E 01 74 6C 6B  30 2B 10 D0 0E 01 63 80  .....tlk0+....c.
0EB0: 23 6B 69 64 6C 30 10 D0  0E 01 1A 09 18 2B 10 D0  #kidl0.......+..
0EC0: 0E 01 64 80 23 1A 6E 18  2B 10 D0 0E 01 65 80 23  ..d.#.n.+....e.#
0ED0: 1A CB 18 21 00                                    ...!.           
```

#### Opcodes

```
  0: 0x0E8A [0x1A] CALL_SUBROUTINE(address=0x177F)
  1: 0x0E8D [0x03] Work_Zone[9] = 599*
  2: 0x0E92 [0x2B] Patt-Pott (ID: 17747984/0x010ED010) [7738*]:
    → "Ah, $7! Good job! Good job! Tell Topuru-Kuperu what you've seen."
  3: 0x0E99 [0x23] WAIT_FOR_DIALOG_INTERACTION
  4: 0x0E9A [0x66] LOAD_EXT_SCHEDULER_MAIN: Load scheduler "tlk0" with entities [Patt-Pott (ID: 17747984/0x010ED010), Patt-Pott (ID: 17747984/0x010ED010)], work=40*
  5: 0x0EA9 [0x2B] Patt-Pott (ID: 17747984/0x010ED010) [7739*]:
    → "We'll return this $7 to the government of Bastok after we've studied it."
  6: 0x0EB0 [0x23] WAIT_FOR_DIALOG_INTERACTION
  7: 0x0EB1 [0x6B] STOP_AND_IDLE: Patt-Pott (ID: 17747984/0x010ED010) stops current action and resets to idle (animation="idl0")
  8: 0x0EBA [0x1A] CALL_SUBROUTINE(address=0x1809)
  9: 0x0EBD [0x2B] Patt-Pott (ID: 17747984/0x010ED010) [7740*]:
    → "So you were able to enter a beastman-infested area, perform your mission, and still manage to come back in one piece. Extaruordinary! Don't you think so, Topuru-Kuperu?"
 10: 0x0EC4 [0x23] WAIT_FOR_DIALOG_INTERACTION
 11: 0x0EC5 [0x1A] CALL_SUBROUTINE(address=0x186E)
 12: 0x0EC8 [0x2B] Patt-Pott (ID: 17747984/0x010ED010) [7749*]:
    → "You're off to San d'Oria now, aren't you? Have a safe and pleasant trip!"
 13: 0x0ECF [0x23] WAIT_FOR_DIALOG_INTERACTION
 14: 0x0ED0 [0x1A] CALL_SUBROUTINE(address=0x18CB)
 15: 0x0ED3 [0x21] END_EVENT
 16: 0x0ED4 [0x00] END_REQSTACK()
```

### Event 256

#### Metadata

| Field        | Value    |
|--------------|----------|
| Entrypoint   | 0x0ED5   |
| Data Size    | 62 bytes |
| Instructions | 12       |

```
      00 01 02 03 04 05 06 07  08 09 0A 0B 0C 0D 0E 0F
      -- -- -- -- -- -- -- --  -- -- -- -- -- -- -- --
0ED0:                1A 22 14  2B 11 D0 0E 01 66 80 23       .".+....f.#
0EE0: 66 5E 80 10 D0 0E 01 10  D0 0E 01 62 69 6B 30 2B  f^.........bik0+
0EF0: 10 D0 0E 01 67 80 23 66  60 80 11 D0 0E 01 11 D0  ....g.#f`.......
0F00: 0E 01 74 6C 6B 30 2B 11  D0 0E 01 68 80 23 1A D2  ..tlk0+....h.#..
0F10: 16 21 00                                          .!.             
```

#### Opcodes

```
  0: 0x0ED5 [0x1A] CALL_SUBROUTINE(address=0x1422)
  1: 0x0ED8 [0x2B] Topuru-Kuperu (ID: 17747985/0x010ED011) [7732*]:
    → "Oh, I remember now. The Quadav are acting strangely, so the adventurer is to go to the Palborough Mines to investigate."
  2: 0x0EDF [0x23] WAIT_FOR_DIALOG_INTERACTION
  3: 0x0EE0 [0x66] LOAD_EXT_SCHEDULER_MAIN: Load scheduler "bik0" with entities [Patt-Pott (ID: 17747984/0x010ED010), Patt-Pott (ID: 17747984/0x010ED010)], work=42*
  4: 0x0EEF [0x2B] Patt-Pott (ID: 17747984/0x010ED010) [7733*]:
    → "That's very-wary vague... And aren't the Palborough Mines overrun by the Quadav? Isn't that dangerous?"
  5: 0x0EF6 [0x23] WAIT_FOR_DIALOG_INTERACTION
  6: 0x0EF7 [0x66] LOAD_EXT_SCHEDULER_MAIN: Load scheduler "tlk0" with entities [Topuru-Kuperu (ID: 17747985/0x010ED011), Topuru-Kuperu (ID: 17747985/0x010ED011)], work=40*
  7: 0x0F06 [0x2B] Topuru-Kuperu (ID: 17747985/0x010ED011) [7734*]:
    → "Well, reports from Windurst say that beastmen of different types all seem to be exhibiting the same type of organized behavior... That is what we need to investigate, sir."
  8: 0x0F0D [0x23] WAIT_FOR_DIALOG_INTERACTION
  9: 0x0F0E [0x1A] CALL_SUBROUTINE(address=0x16D2)
 10: 0x0F11 [0x21] END_EVENT
 11: 0x0F12 [0x00] END_REQSTACK()
```

### Event 257

#### Metadata

| Field        | Value      |
|--------------|------------|
| Entrypoint   | 0x0F13     |
| Data Size    | 2573 bytes |
| Instructions | 74         |

```
      00 01 02 03 04 05 06 07  08 09 0A 0B 0C 0D 0E 0F
      -- -- -- -- -- -- -- --  -- -- -- -- -- -- -- --
0F10:          1A 7F 17 2B 10  D0 0E 01 69 80 23 66 60     ...+....i.#f`
0F20: 80 10 D0 0E 01 10 D0 0E  01 74 6C 6B 30 2B 10 D0  .........tlk0+..
0F30: 0E 01 6A 80 23 6B 69 64  6C 30 10 D0 0E 01 1A 09  ..j.#kidl0......
0F40: 18 2B 10 D0 0E 01 6B 80  23 2B 10 D0 0E 01 6C 80  .+....k.#+....l.
0F50: 23 1A 6E 18 2B 10 D0 0E  01 6D 80 23 1A CB 18 21  #.n.+....m.#...!
0F60: 00 42 75 00 6E 80 75 01  46 01 20 01 5D 01 80 06  .Bu.n.u.F. .]...
0F70: 80 45 00 80 F0 FF FF 7F  F0 FF FF 7F 66 64 6F 30  .E..........fdo0
0F80: 01 80 55 00 80 F0 FF FF  7F F0 FF FF 7F 66 64 6F  ..U..........fdo
0F90: 30 45 6F 80 F0 FF FF 7F  F0 FF FF 7F 73 30 30 35  0Eo.........s005
0FA0: 01 80 38 40 80 BA F0 FF  FF 7F 70 80 71 80 72 80  ..8@......p.q.r.
0FB0: 73 80 45 00 80 F0 FF FF  7F F0 FF FF 7F 66 64 69  s.E..........fdi
0FC0: 31 01 80 5C 00 74 80 5C  01 74 80 1C 75 80 27 0A  1..\.t.\.t..u.'.
0FD0: 0C D0 0E 01 0A 1C 06 80  2B 0C D0 0E 01 76 80 23  ........+....v.#
0FE0: 2A 0A 0C D0 0E 01 4A 0C  D0 0E 01 0D D0 0E 01 2B  *.....J........+
0FF0: 0C D0 0E 01 77 80 23 4A  0D D0 0E 01 0C D0 0E 01  ....w.#J........
1000: 45 6F 80 F0 FF FF 7F F0  FF FF 7F 73 30 30 36 01  Eo.........s006.
1010: 80 6F 76 0D D0 0E 01 27  0A 0D D0 0E 01 09 1C 1E  .ov....'........
1020: 80 27 0A 0C D0 0E 01 08  4A F0 FF FF 7F 0D D0 0E  .'......J.......
1030: 01 2B 0D D0 0E 01 78 80  23 2A 0A 0D D0 0E 01 66  .+....x.#*.....f
1040: 22 80 18 D0 0E 01 18 D0  0E 01 74 6C 6B 30 2B 0D  ".........tlk0+.
1050: D0 0E 01 79 80 23 6B 69  64 6C 30 0D D0 0E 01 2B  ...y.#kidl0....+
1060: 0D D0 0E 01 7A 80 23 55  6F 80 F0 FF FF 7F F0 FF  ....z.#Uo.......
1070: FF 7F 73 30 30 36 45 6F  80 F0 FF FF 7F F0 FF FF  ..s006Eo........
1080: 7F 73 30 30 37 01 80 27  0A 0F D0 0E 01 09 1C 22  .s007..'......."
1090: 80 2B 0F D0 0E 01 7B 80  23 2A 0A 0F D0 0E 01 66  .+....{.#*.....f
10A0: 7C 80 0F D0 0E 01 0F D0  0E 01 64 69 73 30 2B 0F  |.........dis0+.
10B0: D0 0E 01 7D 80 23 27 0A  0C D0 0E 01 09 1C 7E 80  ...}.#'.......~.
10C0: 79 00 0F D0 0E 01 0C D0  0E 01 2B 0C D0 0E 01 7F  y.........+.....
10D0: 80 23 55 6F 80 F0 FF FF  7F F0 FF FF 7F 73 30 30  .#Uo.........s00
10E0: 37 45 6F 80 F0 FF FF 7F  F0 FF FF 7F 73 30 30 38  7Eo.........s008
10F0: 01 80 1C 22 80 27 0A 0F  D0 0E 01 0A 2A 0A 0C D0  ...".'......*...
1100: 0E 01 66 06 80 0C D0 0E  01 0C D0 0E 01 64 69 73  ..f..........dis
1110: 30 1B 45 6F 80 F0 FF FF  7F F0 FF FF 7F 73 30 30  0.Eo.........s00
1120: 39 01 80 1C 22 80 27 0A  0C D0 0E 01 0A 2B 0C D0  9...".'......+..
1130: 0E 01 80 80 23 2A 0A 0C  D0 0E 01 66 06 80 0C D0  ....#*.....f....
1140: 0E 01 0C D0 0E 01 74 6C  6B 30 2B 0C D0 0E 01 81  ......tlk0+.....
1150: 80 23 6B 69 64 6C 30 0C  D0 0E 01 2B 0C D0 0E 01  .#kidl0....+....
1160: 82 80 23 7B 0C D0 0E 01  2B 0C D0 0E 01 83 80 23  ..#{....+......#
1170: 5D 01 80 1E 80 45 00 80  F0 FF FF 7F F0 FF FF 7F  ]....E..........
1180: 66 64 6F 31 01 80 55 00  80 F0 FF FF 7F F0 FF FF  fdo1..U.........
1190: 7F 66 64 6F 31 55 6F 80  F0 FF FF 7F F0 FF FF 7F  .fdo1Uo.........
11A0: 73 30 30 39 46 00 5C 00  84 80 5C 01 84 80 1C 06  s009F.\...\.....
11B0: 80 45 00 80 F0 FF FF 7F  F0 FF FF 7F 66 64 69 31  .E..........fdi1
11C0: 01 80 1B 42 75 00 6E 80  75 01 20 01 46 01 5D 01  ...Bu.n.u. .F.].
11D0: 80 06 80 45 00 80 F0 FF  FF 7F F0 FF FF 7F 66 64  ...E..........fd
11E0: 6F 30 01 80 55 00 80 F0  FF FF 7F F0 FF FF 7F 66  o0..U..........f
11F0: 64 6F 30 5C 00 74 80 5C  01 74 80 38 40 80 45 6F  do0\.t.\.t.8@.Eo
1200: 80 F0 FF FF 7F F0 FF FF  7F 73 30 31 30 01 80 BA  .........s010...
1210: F0 FF FF 7F 70 80 71 80  72 80 73 80 45 00 80 F0  ....p.q.r.s.E...
1220: FF FF 7F F0 FF FF 7F 66  64 69 31 01 80 1C 75 80  .......fdi1...u.
1230: 27 0A 0C D0 0E 01 0A 1C  06 80 1B 4A F0 FF FF 7F  '..........J....
1240: 0D D0 0E 01 45 00 80 F0  FF FF 7F F0 FF FF 7F 66  ....E..........f
1250: 64 6F 32 01 80 55 00 80  F0 FF FF 7F F0 FF FF 7F  do2..U..........
1260: 66 64 6F 32 45 6F 80 F0  FF FF 7F F0 FF FF 7F 73  fdo2Eo.........s
1270: 30 31 31 01 80 1C 06 80  45 00 80 F0 FF FF 7F F0  011.....E.......
1280: FF FF 7F 66 64 69 31 01  80 6B 69 64 6C 31 0F D0  ...fdi1..kidl1..
1290: 0E 01 1C 04 80 66 06 80  0E D0 0E 01 0E D0 0E 01  .....f..........
12A0: 74 6C 6B 30 2B 0E D0 0E  01 85 80 23 6B 69 64 6C  tlk0+......#kidl
12B0: 31 0E D0 0E 01 2B 0E D0  0E 01 86 80 23 6B 69 64  1....+......#kid
12C0: 6C 30 0E D0 0E 01 66 22  80 0F D0 0E 01 0F D0 0E  l0....f"........
12D0: 01 74 6C 6B 30 2B 0F D0  0E 01 87 80 23 27 0A 0C  .tlk0+......#'..
12E0: D0 0E 01 0B 1C 06 80 45  6F 80 F0 FF FF 7F F0 FF  .......Eo.......
12F0: FF 7F 73 30 31 32 01 80  6B 69 64 6C 31 0F D0 0E  ..s012..kidl1...
1300: 01 1C 06 80 4A 0F D0 0E  01 0C D0 0E 01 6B 69 64  ....J........kid
1310: 6C 30 0F D0 0E 01 4A 0E  D0 0E 01 0C D0 0E 01 2B  l0....J........+
1320: 0C D0 0E 01 88 80 23 2B  0C D0 0E 01 89 80 23 66  ......#+......#f
1330: 06 80 0E D0 0E 01 0E D0  0E 01 64 69 73 30 2B 0E  ..........dis0+.
1340: D0 0E 01 8A 80 23 6B 69  64 6C 31 0E D0 0E 01 66  .....#kidl1....f
1350: 7C 80 0F D0 0E 01 0F D0  0E 01 64 69 73 30 2B 0F  |.........dis0+.
1360: D0 0E 01 8B 80 23 6B 69  64 6C 31 0F D0 0E 01 55  .....#kidl1....U
1370: 6F 80 F0 FF FF 7F F0 FF  FF 7F 73 30 31 32 4A 0C  o.........s012J.
1380: D0 0E 01 0D D0 0E 01 45  6F 80 F0 FF FF 7F F0 FF  .......Eo.......
1390: FF 7F 73 30 31 33 01 80  27 0A 0D D0 0E 01 0A 2B  ..s013..'......+
13A0: 0C D0 0E 01 8C 80 23 27  0A 0C D0 0E 01 0D 2A 0A  ......#'......*.
13B0: 0D D0 0E 01 66 7C 80 0D  D0 0E 01 0D D0 0E 01 73  ....f|.........s
13C0: 6C 30 30 2B 0D D0 0E 01  8D 80 23 1B 42 5D 01 80  l00+......#.B]..
13D0: 1E 80 45 00 80 F0 FF FF  7F F0 FF FF 7F 66 64 6F  ..E..........fdo
13E0: 31 01 80 55 00 80 F0 FF  FF 7F F0 FF FF 7F 66 64  1..U..........fd
13F0: 6F 31 46 00 5C 00 84 80  5C 01 84 80 1C 06 80 45  o1F.\...\......E
1400: 00 80 F0 FF FF 7F F0 FF  FF 7F 66 64 69 31 01 80  ..........fdi1..
1410: 45 02 80 F0 FF FF 7F F0  FF FF 7F 71 73 74 63 01  E..........qstc.
1420: 80 1B 42 75 00 8E 80 75  01 20 01 46 01 5D 01 80  ..Bu...u. .F.]..
1430: 06 80 45 00 80 F0 FF FF  7F F0 FF FF 7F 66 64 6F  ..E..........fdo
1440: 30 01 80 55 00 80 F0 FF  FF 7F F0 FF FF 7F 66 64  0..U..........fd
1450: 6F 30 5C 00 8F 80 5C 01  8F 80 38 40 80 45 6F 80  o0\...\...8@.Eo.
1460: F0 FF FF 7F F0 FF FF 7F  73 30 32 30 01 80 BA F0  ........s020....
1470: FF FF 7F 90 80 91 80 72  80 92 80 4E 00 13 D0 0E  .......r...N....
1480: 01 4E 00 12 D0 0E 01 45  00 80 F0 FF FF 7F F0 FF  .N.....E........
1490: FF 7F 66 64 69 31 01 80  1C 75 80 4A 10 D0 0E 01  ..fdi1...u.J....
14A0: F0 FF FF 7F 2B 10 D0 0E  01 93 80 23 66 60 80 10  ....+......#f`..
14B0: D0 0E 01 10 D0 0E 01 74  6C 6B 30 2B 10 D0 0E 01  .......tlk0+....
14C0: 94 80 23 6B 69 64 6C 30  10 D0 0E 01 1C 22 80 45  ..#kidl0.....".E
14D0: 6F 80 F0 FF FF 7F F0 FF  FF 7F 73 30 32 31 01 80  o.........s021..
14E0: 27 0A 10 D0 0E 01 08 2B  10 D0 0E 01 95 80 23 2A  '......+......#*
14F0: 0A 10 D0 0E 01 66 60 80  10 D0 0E 01 10 D0 0E 01  .....f`.........
1500: 74 6C 6B 30 2B 10 D0 0E  01 96 80 23 66 60 80 10  tlk0+......#f`..
1510: D0 0E 01 10 D0 0E 01 64  69 73 30 2B 10 D0 0E 01  .......dis0+....
1520: 97 80 23 55 6F 80 F0 FF  FF 7F F0 FF FF 7F 73 30  ..#Uo.........s0
1530: 32 31 27 0A 10 D0 0E 01  09 45 6F 80 F0 FF FF 7F  21'......Eo.....
1540: F0 FF FF 7F 73 30 32 32  01 80 2B 10 D0 0E 01 98  ....s022..+.....
1550: 80 23 27 0A 13 D0 0E 01  07 1C 22 80 79 00 12 D0  .#'.......".y...
1560: 0E 01 10 D0 0E 01 2B 13  D0 0E 01 99 80 23 2A 0A  ......+......#*.
1570: 10 D0 0E 01 66 60 80 10  D0 0E 01 10 D0 0E 01 69  ....f`.........i
1580: 72 6F 30 2B 10 D0 0E 01  9A 80 23 27 0A 12 D0 0E  ro0+......#'....
1590: 01 07 2B 12 D0 0E 01 9B  80 23 4A F0 FF FF 7F 10  ..+......#J.....
15A0: D0 0E 01 2A 0A 10 D0 0E  01 66 60 80 10 D0 0E 01  ...*.....f`.....
15B0: 10 D0 0E 01 74 68 6B 31  1C 22 80 2B 10 D0 0E 01  ....thk1.".+....
15C0: 9C 80 23 1C 06 80 66 60  80 10 D0 0E 01 10 D0 0E  ..#...f`........
15D0: 01 74 68 6B 32 1C 75 80  4A 10 D0 0E 01 F0 FF FF  .thk2.u.J.......
15E0: 7F 1C 75 80 45 6F 80 F0  FF FF 7F F0 FF FF 7F 73  ..u.Eo.........s
15F0: 30 32 33 01 80 2B 10 D0  0E 01 9D 80 23 66 5E 80  023..+......#f^.
1600: 10 D0 0E 01 10 D0 0E 01  74 65 68 30 2B 10 D0 0E  ........teh0+...
1610: 01 9E 80 23 6B 69 64 6C  30 10 D0 0E 01 1C 22 80  ...#kidl0.....".
1620: 27 0A 10 D0 0E 01 0A 2B  10 D0 0E 01 9F 80 23 2A  '......+......#*
1630: 0A 10 D0 0E 01 4A 10 D0  0E 01 13 D0 0E 01 2B 10  .....J........+.
1640: D0 0E 01 A0 80 23 27 0A  11 D0 0E 01 0A 2B 11 D0  .....#'......+..
1650: 0E 01 A1 80 23 4A 10 D0  0E 01 11 D0 0E 01 2B 10  ....#J........+.
1660: D0 0E 01 A2 80 23 66 60  80 10 D0 0E 01 10 D0 0E  .....#f`........
1670: 01 69 72 6F 30 2B 10 D0  0E 01 A3 80 23 2B 10 D0  .iro0+......#+..
1680: 0E 01 A4 80 23 6B 69 64  6C 30 10 D0 0E 01 2A 0A  ....#kidl0....*.
1690: 11 D0 0E 01 66 60 80 11  D0 0E 01 11 D0 0E 01 74  ....f`.........t
16A0: 68 6B 31 1C 75 80 2B 11  D0 0E 01 A5 80 23 1C 06  hk1.u.+......#..
16B0: 80 66 60 80 11 D0 0E 01  11 D0 0E 01 74 68 6B 32  .f`.........thk2
16C0: 45 6F 80 F0 FF FF 7F F0  FF FF 7F 73 30 37 38 01  Eo.........s078.
16D0: 80 1B 2B 11 D0 0E 01 A6  80 23 6B 69 64 6C 30 11  ..+......#kidl0.
16E0: D0 0E 01 66 60 80 10 D0  0E 01 10 D0 0E 01 74 68  ...f`.........th
16F0: 6B 31 2B 10 D0 0E 01 A7  80 23 53 10 D0 0E 01 10  k1+......#S.....
1700: D0 0E 01 74 68 6B 31 66  60 80 10 D0 0E 01 10 D0  ...thk1f`.......
1710: 0E 01 74 68 6B 32 1C 1B  80 4A 10 D0 0E 01 F0 FF  ..thk2...J......
1720: FF 7F 45 6F 80 F0 FF FF  7F F0 FF FF 7F 73 30 32  ..Eo.........s02
1730: 33 01 80 2B 10 D0 0E 01  A8 80 23 5D 01 80 1E 80  3..+......#]....
1740: 45 00 80 F0 FF FF 7F F0  FF FF 7F 66 64 6F 31 01  E..........fdo1.
1750: 80 55 00 80 F0 FF FF 7F  F0 FF FF 7F 66 64 6F 31  .U..........fdo1
1760: 46 00 5C 00 84 80 5C 01  84 80 1C 06 80 45 00 80  F.\...\......E..
1770: F0 FF FF 7F F0 FF FF 7F  66 64 69 31 01 80 1B 42  ........fdi1...B
1780: 75 00 8E 80 75 01 20 01  46 01 5D 01 80 06 80 45  u...u. .F.]....E
1790: 00 80 F0 FF FF 7F F0 FF  FF 7F 66 64 6F 30 01 80  ..........fdo0..
17A0: 55 00 80 F0 FF FF 7F F0  FF FF 7F 66 64 6F 30 5C  U..........fdo0\
17B0: 00 8F 80 5C 01 8F 80 38  40 80 45 6F 80 F0 FF FF  ...\...8@.Eo....
17C0: 7F F0 FF FF 7F 73 30 32  30 01 80 4E 00 13 D0 0E  .....s020..N....
17D0: 01 4E 00 12 D0 0E 01 27  0A 11 D0 0E 01 09 BA F0  .N.....'........
17E0: FF FF 7F 90 80 91 80 72  80 92 80 45 00 80 F0 FF  .......r...E....
17F0: FF 7F F0 FF FF 7F 66 64  69 31 01 80 1C 75 80 4A  ......fdi1...u.J
1800: 10 D0 0E 01 F0 FF FF 7F  1B 27 0A 10 D0 0E 01 0B  .........'......
1810: 45 00 80 F0 FF FF 7F F0  FF FF 7F 66 64 6F 32 01  E..........fdo2.
1820: 80 55 00 80 F0 FF FF 7F  F0 FF FF 7F 66 64 6F 32  .U..........fdo2
1830: 4E 00 11 D0 0E 01 1C 06  80 2A 0A 11 D0 0E 01 4A  N........*.....J
1840: F0 FF FF 7F 11 D0 0E 01  1C 06 80 45 6F 80 F0 FF  ...........Eo...
1850: FF 7F F0 FF FF 7F 73 30  32 34 01 80 45 00 80 F0  ......s024..E...
1860: FF FF 7F F0 FF FF 7F 66  64 69 32 01 80 1B 4A 10  .......fdi2...J.
1870: D0 0E 01 11 D0 0E 01 1C  1E 80 4A 11 D0 0E 01 10  ..........J.....
1880: D0 0E 01 2B 11 D0 0E 01  A9 80 23 66 60 80 10 D0  ...+......#f`...
1890: 0E 01 10 D0 0E 01 69 72  6F 30 2B 10 D0 0E 01 AA  ......iro0+.....
18A0: 80 23 66 60 80 11 D0 0E  01 11 D0 0E 01 6D 6F 6A  .#f`.........moj
18B0: 30 2B 11 D0 0E 01 AB 80  23 4A 10 D0 0E 01 F0 FF  0+......#J......
18C0: FF 7F 2B 10 D0 0E 01 AC  80 23 1B 5D 01 80 1E 80  ..+......#.]....
18D0: 45 00 80 F0 FF FF 7F F0  FF FF 7F 66 64 6F 31 01  E..........fdo1.
18E0: 80 55 00 80 F0 FF FF 7F  F0 FF FF 7F 66 64 6F 31  .U..........fdo1
18F0: 46 00 5C 00 84 80 5C 01  84 80 1C 06 80 45 00 80  F.\...\......E..
1900: F0 FF FF 7F F0 FF FF 7F  66 64 69 31 01 80 45 02  ........fdi1..E.
1910: 80 F0 FF FF 7F F0 FF FF  7F 71 73 74 63 01 80 1B  .........qstc...
```

#### Opcodes

```
  0: 0x0F13 [0x1A] CALL_SUBROUTINE(address=0x177F)
  1: 0x0F16 [0x2B] Patt-Pott (ID: 17747984/0x010ED010) [7741*]:
    → "Ah, welcome back! I see you're still in one piece!"
  2: 0x0F1D [0x23] WAIT_FOR_DIALOG_INTERACTION
  3: 0x0F1E [0x66] LOAD_EXT_SCHEDULER_MAIN: Load scheduler "tlk0" with entities [Patt-Pott (ID: 17747984/0x010ED010), Patt-Pott (ID: 17747984/0x010ED010)], work=40*
  4: 0x0F2D [0x2B] Patt-Pott (ID: 17747984/0x010ED010) [7742*]:
    → "Topuru-Kuperu will write down your report. Tell him what you've seen!"
  5: 0x0F34 [0x23] WAIT_FOR_DIALOG_INTERACTION
  6: 0x0F35 [0x6B] STOP_AND_IDLE: Patt-Pott (ID: 17747984/0x010ED010) stops current action and resets to idle (animation="idl0")
  7: 0x0F3E [0x1A] CALL_SUBROUTINE(address=0x1809)
  8: 0x0F41 [0x2B] Patt-Pott (ID: 17747984/0x010ED010) [7743*]:
    → "Oh, my! Is that true!? Oh, my! Oh, my!"
  9: 0x0F48 [0x23] WAIT_FOR_DIALOG_INTERACTION
 10: 0x0F49 [0x2B] Patt-Pott (ID: 17747984/0x010ED010) [7744*]:
    → "It's simply amazing that you could run into such a monster, and not be pounded into adventurer soup! Don't you think so, Topuru-Kuperu?"
 11: 0x0F50 [0x23] WAIT_FOR_DIALOG_INTERACTION
 12: 0x0F51 [0x1A] CALL_SUBROUTINE(address=0x186E)
 13: 0x0F54 [0x2B] Patt-Pott (ID: 17747984/0x010ED010) [7750*]:
    → "Since you've visited both San d'Oria and Bastok, you may now make your triumphant return to Windurst! Oh, and tell everyone we said hi!"
 14: 0x0F5B [0x23] WAIT_FOR_DIALOG_INTERACTION
 15: 0x0F5C [0x1A] CALL_SUBROUTINE(address=0x18CB)
 16: 0x0F5F [0x21] END_EVENT
 17: 0x0F60 [0x00] END_REQSTACK()

SUBROUTINE_177F:
 18: 0x177F [0x42] SET_CLI_EVENT_CANCEL_DATA()
 19: 0x1780 [0x75] LOAD_ROOM(Load indoor room, room=297*)
 20: 0x1784 [0x75] LOAD_ROOM(No action)
 21: 0x1786 [0x20] SET_CLI_EVENT_UC_FLAG: Lock player control
 22: 0x1788 [0x46] CAMERA_CONTROL: Disable user control
 23: 0x178A [0x5D] SET_MUSIC_VOLUME(volume=0*, fade_time=30*)
 24: 0x178F [0x45] LOAD_SCHEDULED_TASK: Load scheduler "fdo0" with entities [LocalPlayer, LocalPlayer], work=[200*, 0*]
 25: 0x17A0 [0x55] WAIT_LOAD_SCHEDULER: Wait for scheduler "fdo0" with entities [LocalPlayer, LocalPlayer], work=200*
 26: 0x17AF [0x5C] MUSIC_CONTROL: Set Idle (Day) music to song 162*
 27: 0x17B3 [0x5C] MUSIC_CONTROL: Set Idle (Night) music to song 162*
 28: 0x17B7 [0x38] SET_CLIENT_EVENT_MODE(mode=3*)
 29: 0x17BA [0x45] LOAD_SCHEDULED_TASK: Load scheduler "s020" with entities [LocalPlayer, LocalPlayer], work=[137*, 0*]
 30: 0x17CB [0x4E] SET_ENTITY_HIDE_FLAG: Show Mih Ketto (ID: 17747987/0x010ED013)
 31: 0x17D1 [0x4E] SET_ENTITY_HIDE_FLAG: Show Moyoyo (ID: 17747986/0x010ED012)
 32: 0x17D7 [0x27] REQ_SET(priority=0x0A, entity_id=Topuru-Kuperu (ID: 17747985/0x010ED011), tag_num=0x09)
 33: 0x17DE [0xBA] SET_ENTITY_POSITION(entity_id=LocalPlayer, pos_x=24.980*, pos_z=40.686*, pos_y=-16.407*, direction=237.0°*)
 34: 0x17EB [0x45] LOAD_SCHEDULED_TASK: Load scheduler "fdi1" with entities [LocalPlayer, LocalPlayer], work=[200*, 0*]
 35: 0x17FC [0x1C] WAIT(10* ticks)
 36: 0x17FF [0x4A] Patt-Pott (ID: 17747984/0x010ED010) looks at LocalPlayer
 37: 0x1808 [0x1B] RETURN

SUBROUTINE_1809:
 38: 0x1809 [0x27] REQ_SET(priority=0x0A, entity_id=Patt-Pott (ID: 17747984/0x010ED010), tag_num=0x0B)
 39: 0x1810 [0x45] LOAD_SCHEDULED_TASK: Load scheduler "fdo2" with entities [LocalPlayer, LocalPlayer], work=[200*, 0*]
 40: 0x1821 [0x55] WAIT_LOAD_SCHEDULER: Wait for scheduler "fdo2" with entities [LocalPlayer, LocalPlayer], work=200*
 41: 0x1830 [0x4E] SET_ENTITY_HIDE_FLAG: Show Topuru-Kuperu (ID: 17747985/0x010ED011)
 42: 0x1836 [0x1C] WAIT(30* ticks)
 43: 0x1839 [0x2A] GET_REQ_LEVEL(level=10, entity_id=Topuru-Kuperu (ID: 17747985/0x010ED011))
 44: 0x183F [0x4A] LocalPlayer looks at Topuru-Kuperu (ID: 17747985/0x010ED011)
 45: 0x1848 [0x1C] WAIT(30* ticks)
 46: 0x184B [0x45] LOAD_SCHEDULED_TASK: Load scheduler "s024" with entities [LocalPlayer, LocalPlayer], work=[137*, 0*]
 47: 0x185C [0x45] LOAD_SCHEDULED_TASK: Load scheduler "fdi2" with entities [LocalPlayer, LocalPlayer], work=[200*, 0*]
 48: 0x186D [0x1B] RETURN

SUBROUTINE_186E:
 49: 0x186E [0x4A] Patt-Pott (ID: 17747984/0x010ED010) looks at Topuru-Kuperu (ID: 17747985/0x010ED011)
 50: 0x1877 [0x1C] WAIT(60* ticks)
 51: 0x187A [0x4A] Topuru-Kuperu (ID: 17747985/0x010ED011) looks at Patt-Pott (ID: 17747984/0x010ED010)
 52: 0x1883 [0x2B] Topuru-Kuperu (ID: 17747985/0x010ED011) [7745*]:
    → "What? Oh, right. I guess so, sir."
 53: 0x188A [0x23] WAIT_FOR_DIALOG_INTERACTION
 54: 0x188B [0x66] LOAD_EXT_SCHEDULER_MAIN: Load scheduler "iro0" with entities [Patt-Pott (ID: 17747984/0x010ED010), Patt-Pott (ID: 17747984/0x010ED010)], work=40*
 55: 0x189A [0x2B] Patt-Pott (ID: 17747984/0x010ED010) [7746*]:
    → "Oh, let me guess--you were thinking about Windurst again, weren't you? Snap out of it, man! You have work to do!"
 56: 0x18A1 [0x23] WAIT_FOR_DIALOG_INTERACTION
 57: 0x18A2 [0x66] LOAD_EXT_SCHEDULER_MAIN: Load scheduler "moj0" with entities [Topuru-Kuperu (ID: 17747985/0x010ED011), Topuru-Kuperu (ID: 17747985/0x010ED011)], work=40*
 58: 0x18B1 [0x2B] Topuru-Kuperu (ID: 17747985/0x010ED011) [7747*]:
    → "<Sigh> Windurst..."
 59: 0x18B8 [0x23] WAIT_FOR_DIALOG_INTERACTION
 60: 0x18B9 [0x4A] Patt-Pott (ID: 17747984/0x010ED010) looks at LocalPlayer
 61: 0x18C2 [0x2B] Patt-Pott (ID: 17747984/0x010ED010) [7748*]:
    → "Well, you can't say I didn't try. Ah--but you will report that all of us are working exceptionally hard here, yes?"
 62: 0x18C9 [0x23] WAIT_FOR_DIALOG_INTERACTION
 63: 0x18CA [0x1B] RETURN

SUBROUTINE_18CB:
 64: 0x18CB [0x5D] SET_MUSIC_VOLUME(volume=0*, fade_time=60*)
 65: 0x18D0 [0x45] LOAD_SCHEDULED_TASK: Load scheduler "fdo1" with entities [LocalPlayer, LocalPlayer], work=[200*, 0*]
 66: 0x18E1 [0x55] WAIT_LOAD_SCHEDULER: Wait for scheduler "fdo1" with entities [LocalPlayer, LocalPlayer], work=200*
 67: 0x18F0 [0x46] CAMERA_CONTROL: Restore default settings
 68: 0x18F2 [0x5C] MUSIC_CONTROL: Set Idle (Day) music to song 154*
 69: 0x18F6 [0x5C] MUSIC_CONTROL: Set Idle (Night) music to song 154*
 70: 0x18FA [0x1C] WAIT(30* ticks)
 71: 0x18FD [0x45] LOAD_SCHEDULED_TASK: Load scheduler "fdi1" with entities [LocalPlayer, LocalPlayer], work=[200*, 0*]
 72: 0x190E [0x45] LOAD_SCHEDULED_TASK: Load scheduler "qstc" with entities [LocalPlayer, LocalPlayer], work=[201*, 0*]
 73: 0x191F [0x1B] RETURN
```

#### Data or dead code:

```
# Dead code (unreachable instructions):
     0x0F61 [0x42] SET_CLI_EVENT_CANCEL_DATA()
     0x0F62 [0x75] LOAD_ROOM(Load indoor room, room=298*)
     0x0F66 [0x75] LOAD_ROOM(No action)
     0x0F68 [0x46] CAMERA_CONTROL: Disable user control
     0x0F6A [0x20] SET_CLI_EVENT_UC_FLAG: Lock player control
     0x0F6C [0x5D] SET_MUSIC_VOLUME(volume=0*, fade_time=30*)
     0x0F71 [0x45] LOAD_SCHEDULED_TASK: Load scheduler "fdo0" with entities [LocalPlayer, LocalPlayer], work=[200*, 0*]
     0x0F82 [0x55] WAIT_LOAD_SCHEDULER: Wait for scheduler "fdo0" with entities [LocalPlayer, LocalPlayer], work=200*
     0x0F91 [0x45] LOAD_SCHEDULED_TASK: Load scheduler "s005" with entities [LocalPlayer, LocalPlayer], work=[137*, 0*]
     0x0FA2 [0x38] SET_CLIENT_EVENT_MODE(mode=3*)
     0x0FA5 [0xBA] SET_ENTITY_POSITION(entity_id=LocalPlayer, pos_x=24.703*, pos_z=-39.801*, pos_y=-16.407*, direction=103.6°*)
     0x0FB2 [0x45] LOAD_SCHEDULED_TASK: Load scheduler "fdi1" with entities [LocalPlayer, LocalPlayer], work=[200*, 0*]
     0x0FC3 [0x5C] MUSIC_CONTROL: Set Idle (Day) music to song 156*
     0x0FC7 [0x5C] MUSIC_CONTROL: Set Idle (Night) music to song 156*
     0x0FCB [0x1C] WAIT(10* ticks)
     0x0FCE [0x27] REQ_SET(priority=0x0A, entity_id=Savae E Paleade (ID: 17747980/0x010ED00C), tag_num=0x0A)
     0x0FD5 [0x1C] WAIT(30* ticks)
     0x0FD8 [0x2B] Savae E Paleade (ID: 17747980/0x010ED00C) [7677*]:
    → "Ah, you're here on a mission, aren't you? We've been expecting you. It's good to see you made it here safely."
     0x0FDF [0x23] WAIT_FOR_DIALOG_INTERACTION
     0x0FE0 [0x2A] GET_REQ_LEVEL(level=10, entity_id=Savae E Paleade (ID: 17747980/0x010ED00C))
     0x0FE6 [0x4A] Savae E Paleade (ID: 17747980/0x010ED00C) looks at Riault (ID: 17747981/0x010ED00D)
     0x0FEF [0x2B] Savae E Paleade (ID: 17747980/0x010ED00C) [7678*]:
    → "Riault, if you please."
     0x0FF6 [0x23] WAIT_FOR_DIALOG_INTERACTION
     0x0FF7 [0x4A] Riault (ID: 17747981/0x010ED00D) looks at Savae E Paleade (ID: 17747980/0x010ED00C)
     0x1000 [0x45] LOAD_SCHEDULED_TASK: Load scheduler "s006" with entities [LocalPlayer, LocalPlayer], work=[137*, 0*]
     0x1011 [0x6F] WAIT_FRAME_DELAY: Yield until WaitTime reaches zero
     0x1012 [0x76] CHECK_ENTITY_RENDER_FLAGS: Wait until Riault (ID: 17747981/0x010ED00D) Render.Flags0 and Render.Flags3 conditions are met
     0x1017 [0x27] REQ_SET(priority=0x0A, entity_id=Riault (ID: 17747981/0x010ED00D), tag_num=0x09)
     0x101E [0x1C] WAIT(60* ticks)
     0x1021 [0x27] REQ_SET(priority=0x0A, entity_id=Savae E Paleade (ID: 17747980/0x010ED00C), tag_num=0x08)
     0x1028 [0x4A] LocalPlayer looks at Riault (ID: 17747981/0x010ED00D)
     0x1031 [0x2B] Riault (ID: 17747981/0x010ED00D) [7679*]:
    → "Yes, ma'am. First, let me tell you about Bastok's current state."
     0x1038 [0x23] WAIT_FOR_DIALOG_INTERACTION
     0x1039 [0x2A] GET_REQ_LEVEL(level=10, entity_id=Riault (ID: 17747981/0x010ED00D))
     0x103F [0x66] LOAD_EXT_SCHEDULER_MAIN: Load scheduler "tlk0" with entities [Lucius (ID: 17747992/0x010ED018), Lucius (ID: 17747992/0x010ED018)], work=20*
     0x104E [0x2B] Riault (ID: 17747981/0x010ED00D) [7680*]:
    → "Bastok has already lost several major assets to the Quadav. The Palborough Mines were the greatest loss."
     0x1055 [0x23] WAIT_FOR_DIALOG_INTERACTION
     0x1056 [0x6B] STOP_AND_IDLE: Riault (ID: 17747981/0x010ED00D) stops current action and resets to idle (animation="idl0")
     0x105F [0x2B] Riault (ID: 17747981/0x010ED00D) [7681*]:
    → "Their recent plight is akin to ours in our fight against the Orcs. Only in the time prior to the Great War did the power balance shift so."
     0x1066 [0x23] WAIT_FOR_DIALOG_INTERACTION
     0x1067 [0x55] WAIT_LOAD_SCHEDULER: Wait for scheduler "s006" with entities [LocalPlayer, LocalPlayer], work=137*
     0x1076 [0x45] LOAD_SCHEDULED_TASK: Load scheduler "s007" with entities [LocalPlayer, LocalPlayer], work=[137*, 0*]
     0x1087 [0x27] REQ_SET(priority=0x0A, entity_id=Chantain (ID: 17747983/0x010ED00F), tag_num=0x09)
     0x108E [0x1C] WAIT(20* ticks)
     0x1091 [0x2B] Chantain (ID: 17747983/0x010ED00F) [7682*]:
    → "I've heard a rumor that they are rallying behind a new leader! Can you believe it? Beastmen, being organized!?"
     0x1098 [0x23] WAIT_FOR_DIALOG_INTERACTION
     0x1099 [0x2A] GET_REQ_LEVEL(level=10, entity_id=Chantain (ID: 17747983/0x010ED00F))
     0x109F [0x66] LOAD_EXT_SCHEDULER_MAIN: Load scheduler "dis0" with entities [Chantain (ID: 17747983/0x010ED00F), Chantain (ID: 17747983/0x010ED00F)], work=21*
     0x10AE [0x2B] Chantain (ID: 17747983/0x010ED00F) [7683*]:
    → "This bodes ill, I tell you. What's worse, we are stuck here in this city of uncouth ruffians!"
     0x10B5 [0x23] WAIT_FOR_DIALOG_INTERACTION
     0x10B6 [0x27] REQ_SET(priority=0x0A, entity_id=Savae E Paleade (ID: 17747980/0x010ED00C), tag_num=0x09)
     0x10BD [0x1C] WAIT(90* ticks)
     0x10C0 [0x79] Chantain (ID: 17747983/0x010ED00F) looks at Savae E Paleade (ID: 17747980/0x010ED00C) (Basic look)
     0x10CA [0x2B] Savae E Paleade (ID: 17747980/0x010ED00C) [7684*]:
    → "Chantain! That is enough. Riault, please continue."
     0x10D1 [0x23] WAIT_FOR_DIALOG_INTERACTION
     0x10D2 [0x55] WAIT_LOAD_SCHEDULER: Wait for scheduler "s007" with entities [LocalPlayer, LocalPlayer], work=137*
     0x10E1 [0x45] LOAD_SCHEDULED_TASK: Load scheduler "s008" with entities [LocalPlayer, LocalPlayer], work=[137*, 0*]
     0x10F2 [0x1C] WAIT(20* ticks)
     0x10F5 [0x27] REQ_SET(priority=0x0A, entity_id=Chantain (ID: 17747983/0x010ED00F), tag_num=0x0A)
     0x10FC [0x2A] GET_REQ_LEVEL(level=10, entity_id=Savae E Paleade (ID: 17747980/0x010ED00C))
     0x1102 [0x66] LOAD_EXT_SCHEDULER_MAIN: Load scheduler "dis0" with entities [Savae E Paleade (ID: 17747980/0x010ED00C), Savae E Paleade (ID: 17747980/0x010ED00C)], work=30*
     0x1111 [0x1B] RETURN
     0x1112 [0x45] LOAD_SCHEDULED_TASK: Load scheduler "s009" with entities [LocalPlayer, LocalPlayer], work=[137*, 0*]
     0x1123 [0x1C] WAIT(20* ticks)
     0x1126 [0x27] REQ_SET(priority=0x0A, entity_id=Savae E Paleade (ID: 17747980/0x010ED00C), tag_num=0x0A)
     0x112D [0x2B] Savae E Paleade (ID: 17747980/0x010ED00C) [7690*]:
    → "If it were up to us, we would want you to go to the mines right away, but we were told by the Bastok authorities that you must report to them first in order to receive authorization."
     0x1134 [0x23] WAIT_FOR_DIALOG_INTERACTION
     0x1135 [0x2A] GET_REQ_LEVEL(level=10, entity_id=Savae E Paleade (ID: 17747980/0x010ED00C))
     0x113B [0x66] LOAD_EXT_SCHEDULER_MAIN: Load scheduler "tlk0" with entities [Savae E Paleade (ID: 17747980/0x010ED00C), Savae E Paleade (ID: 17747980/0x010ED00C)], work=30*
     0x114A [0x2B] Savae E Paleade (ID: 17747980/0x010ED00C) [7691*]:
    → "I know you'd rather do without all the red tape, but bear with us and report to the Bastokan official named Pius. He can be found in the President's Office."
     0x1151 [0x23] WAIT_FOR_DIALOG_INTERACTION
     0x1152 [0x6B] STOP_AND_IDLE: Savae E Paleade (ID: 17747980/0x010ED00C) stops current action and resets to idle (animation="idl0")
     0x115B [0x2B] Savae E Paleade (ID: 17747980/0x010ED00C) [7692*]:
    → "I must warn you that we thought the Humes were a reasonable people before we came here...but we've found that this is not always the case."
     0x1162 [0x23] WAIT_FOR_DIALOG_INTERACTION
     0x1163 [0x7B] Savae E Paleade (ID: 17747980/0x010ED00C) stops talking
     0x1168 [0x2B] Savae E Paleade (ID: 17747980/0x010ED00C) [7693*]:
    → "Their talent at making profit is incomparable, but their sense of duty is somewhat lacking. In fact, even their officials can be troublesome. For the sake of your mission's success, try to be patient."
     0x116F [0x23] WAIT_FOR_DIALOG_INTERACTION
     0x1170 [0x5D] SET_MUSIC_VOLUME(volume=0*, fade_time=60*)
     0x1175 [0x45] LOAD_SCHEDULED_TASK: Load scheduler "fdo1" with entities [LocalPlayer, LocalPlayer], work=[200*, 0*]
     0x1186 [0x55] WAIT_LOAD_SCHEDULER: Wait for scheduler "fdo1" with entities [LocalPlayer, LocalPlayer], work=200*
     0x1195 [0x55] WAIT_LOAD_SCHEDULER: Wait for scheduler "s009" with entities [LocalPlayer, LocalPlayer], work=137*
     0x11A4 [0x46] CAMERA_CONTROL: Restore default settings
     0x11A6 [0x5C] MUSIC_CONTROL: Set Idle (Day) music to song 154*
     0x11AA [0x5C] MUSIC_CONTROL: Set Idle (Night) music to song 154*
     0x11AE [0x1C] WAIT(30* ticks)
     0x11B1 [0x45] LOAD_SCHEDULED_TASK: Load scheduler "fdi1" with entities [LocalPlayer, LocalPlayer], work=[200*, 0*]
     0x11C2 [0x1B] RETURN
     0x11C3 [0x42] SET_CLI_EVENT_CANCEL_DATA()
     0x11C4 [0x75] LOAD_ROOM(Load indoor room, room=298*)
     0x11C8 [0x75] LOAD_ROOM(No action)
     0x11CA [0x20] SET_CLI_EVENT_UC_FLAG: Lock player control
     0x11CC [0x46] CAMERA_CONTROL: Disable user control
