# 17780747 - Garnev

## Common Data

| Field            | Value                 |
|------------------|-----------------------|
| Zone             | Lower Jeuno (ID: 245) |
| Block Size       | 748 bytes             |
| Total Events     | 17                    |
| References Count | 29                    |

## List of Events

| Event ID                 | Entrypoint   |   Size |   Instructions |
|--------------------------|--------------|--------|----------------|
| [65535](#event-65535)    | 0x0000       |      1 |              1 |
| [20](#event-20)          | 0x0001       |     20 |              3 |
| [65535.1](#event-655351) | 0x0015       |     31 |              9 |
| [65535.2](#event-655352) | 0x0034       |      9 |              3 |
| [207](#event-207)        | 0x003D       |     44 |             12 |
| [168](#event-168)        | 0x0069       |     45 |             11 |
| [167](#event-167)        | 0x0096       |     58 |             16 |
| [166](#event-166)        | 0x00D0       |     60 |             13 |
| [174](#event-174)        | 0x010C       |     40 |             10 |
| [172](#event-172)        | 0x0134       |     40 |             10 |
| [173](#event-173)        | 0x015C       |     44 |             12 |
| [171](#event-171)        | 0x0188       |     40 |             10 |
| [170](#event-170)        | 0x01B0       |     40 |             10 |
| [65535.3](#event-655353) | 0x01D8       |     19 |              3 |
| [65535.4](#event-655354) | 0x01EB       |      9 |              3 |
| [10059](#event-10059)    | 0x01F4       |     44 |             12 |
| [10125](#event-10125)    | 0x0220       |      1 |              1 |

## DAT References (imed_data)

|   Index | Hex Value   |   Dec Value |
|---------|-------------|-------------|
|       0 | 0x7B6C      |       31596 |
|       1 | 0xFFFF5B0E  |  4294925070 |
|       2 | 0x0F3B      |        3899 |
|       3 | 0x00E2      |         226 |
|       4 | 0x002D      |          45 |
|       5 | 0x0028      |          40 |
|       6 | 0x7C6E      |       31854 |
|       7 | 0xFFFF6258  |  4294926936 |
|       8 | 0x0046      |          70 |
|       9 | 0x003C      |          60 |
|      10 | 0x1DFA      |        7674 |
|      11 | 0x1DFB      |        7675 |
|      12 | 0x0013      |          19 |
|      13 | 0x1DFC      |        7676 |
|      14 | 0x022A      |         554 |
|      15 | 0x1DFD      |        7677 |
|      16 | 0x1DFE      |        7678 |
|      17 | 0x1DFF      |        7679 |
|      18 | 0x1E00      |        7680 |
|      19 | 0x00C9      |         201 |
|      20 | 0x0000      |           0 |
|      21 | 0x1E01      |        7681 |
|      22 | 0x1E02      |        7682 |
|      23 | 0x1E03      |        7683 |
|      24 | 0x1E04      |        7684 |
|      25 | 0x1E05      |        7685 |
|      26 | 0x1E06      |        7686 |
|      27 | 0x2527      |        9511 |
|      28 | 0x2528      |        9512 |

## String References

- **7674**: This leads straight to the pier, where we launch ships overseas.
- **7675**: Our boss has dreamed of sailing all over the world. To him, this business is just something he promised his dad he'd do.
- **7676**: Oh, you want $6, do ya? Sorry, but we ain't comfortable doin' business with ya. Come back once you've made a name for yourself.
- **7677**: So, you're looking for $6? Beastmen have all the trade routes shut tight for now.
- **7678**: But not Tenshodo! We always got the hard-to-find goods in stock. Come on, let's make a deal.
- **7679**: Right now, we're looking for $7. Get us one, and the $3 is yours. Whaddaya say?
- **7680**: Well, look what we have here... Alrighty, here you go, pal!
- **7681**: Hey, have you seen Lady Verena around? She usually doesn't stay out this late...
- **7682**: Lion came, so something must be up. I'd like to get out there and do some fighting myself, but I'm stuck here until Boss gives the order.
- **7683**: I couldn't believe it when Boss came back carrying Lady Verena. He looked like he had been run over by a stampede of chocobos.
- **7684**: I wonder what the hell happened up there at Delkfutt's Tower... No, on second thought, don't tell me. I don't want to know.
- **7685**: Lately, Boss has got that look in his eyes... You know, the one that makes your spine tingle with fear.
- **7686**: Well, all's well that ends well. I like you and all, but just between you and me, I'm against you joining us. I don't want to have to compete against an adventurer of your caliber!
- **9511**: The boss sure is cheerful these days. He was putting on a show before so we wouldn't worry, but I've known him too long to fall for that.
- **9512**: He won't say anything about what happened. But that spark is back in his eye, and that's enough for me! Things are about to get interesting!

## Events

### Event 65535

#### Metadata

| Field        | Value   |
|--------------|---------|
| Entrypoint   | 0x0000  |
| Data Size    | 1 bytes |
| Instructions | 1       |

```
      00 01 02 03 04 05 06 07  08 09 0A 0B 0C 0D 0E 0F
      -- -- -- -- -- -- -- --  -- -- -- -- -- -- -- --
0000: 00                                                .               
```

#### Opcodes

```
  0: 0x0000 [0x00] END_REQSTACK()
```

### Event 20

#### Metadata

| Field        | Value    |
|--------------|----------|
| Entrypoint   | 0x0001   |
| Data Size    | 20 bytes |
| Instructions | 3        |

```
      00 01 02 03 04 05 06 07  08 09 0A 0B 0C 0D 0E 0F
      -- -- -- -- -- -- -- --  -- -- -- -- -- -- -- --
0000:    37 00 80 01 80 02 80  03 80 79 00 F8 FF FF 7F   7........y.....
0010: 0C 50 0F 01 00                                    .P...           
```

#### Opcodes

```
  0: 0x0001 [0x37] UPDATE_EVENT_POSITION_AND_DIR: x=31.596*, z=-42.226*, y=3.899*, direction=19.9°*
  1: 0x000A [0x79] EventEntity looks at Yin Pocanakhu (ID: 17780748/0x010F500C) (Basic look)
  2: 0x0014 [0x00] END_REQSTACK()
```

### Event 65535.1

#### Metadata

| Field        | Value    |
|--------------|----------|
| Entrypoint   | 0x0015   |
| Data Size    | 31 bytes |
| Instructions | 9        |

```
      00 01 02 03 04 05 06 07  08 09 0A 0B 0C 0D 0E 0F
      -- -- -- -- -- -- -- --  -- -- -- -- -- -- -- --
0010:                1C 04 80  1E F0 FF FF 7F 1C 04 80       ...........
0020: 32 05 80 1F 00 06 80 07  80 02 80 1F 01 6F 1E F0  2............o..
0030: FF FF 7F 00                                       ....            
```

#### Opcodes

```
  0: 0x0015 [0x1C] WAIT(45* ticks)
  1: 0x0018 [0x1E] EventEntity looks at LocalPlayer and starts talking
  2: 0x001D [0x1C] WAIT(45* ticks)
  3: 0x0020 [0x32] ExtData[1]->MainSpeed = 40* * 0.1
  4: 0x0023 [0x1F] MOVE_ENTITY: EventEntity moves to X=31.854*, Z=-40.360*, Y=3.899*
  5: 0x002B [0x1F] MOVE_ENTITY: Update entity position (mode=1)
  6: 0x002D [0x6F] WAIT_FRAME_DELAY: Yield until WaitTime reaches zero
  7: 0x002E [0x1E] EventEntity looks at LocalPlayer and starts talking
  8: 0x0033 [0x00] END_REQSTACK()
```

### Event 65535.2

#### Metadata

| Field        | Value   |
|--------------|---------|
| Entrypoint   | 0x0034  |
| Data Size    | 9 bytes |
| Instructions | 3       |

```
      00 01 02 03 04 05 06 07  08 09 0A 0B 0C 0D 0E 0F
      -- -- -- -- -- -- -- --  -- -- -- -- -- -- -- --
0030:             1C 08 80 1E  07 50 0F 01 00               .....P...   
```

#### Opcodes

```
  0: 0x0034 [0x1C] WAIT(70* ticks)
  1: 0x0037 [0x1E] EventEntity looks at Aldo (ID: 17780743/0x010F5007) and starts talking
  2: 0x003C [0x00] END_REQSTACK()
```

### Event 207

#### Metadata

| Field        | Value    |
|--------------|----------|
| Entrypoint   | 0x003D   |
| Data Size    | 44 bytes |
| Instructions | 12       |

```
      00 01 02 03 04 05 06 07  08 09 0A 0B 0C 0D 0E 0F
      -- -- -- -- -- -- -- --  -- -- -- -- -- -- -- --
0030:                                         1E F0 FF               ...
0040: FF 7F 6F 76 F8 FF FF 7F  66 09 80 F8 FF FF 7F F8  ..ov....f.......
0050: FF FF 7F 74 6C 6B 30 1D  0A 80 23 1D 0B 80 23 5E  ...tlk0...#...#^
0060: 69 64 6C 30 1C 09 80 21  00                       idl0...!.       
```

#### Opcodes

```
  0: 0x003D [0x1E] EventEntity looks at LocalPlayer and starts talking
  1: 0x0042 [0x6F] WAIT_FRAME_DELAY: Yield until WaitTime reaches zero
  2: 0x0043 [0x76] CHECK_ENTITY_RENDER_FLAGS: Wait until EventEntity Render.Flags0 and Render.Flags3 conditions are met
  3: 0x0048 [0x66] LOAD_EXT_SCHEDULER_MAIN: Load scheduler "tlk0" with entities [EventEntity, EventEntity], work=60*
  4: 0x0057 [0x1D] PRINT_EVENT_MESSAGE(message_id=7674*)
    → "This leads straight to the pier, where we launch ships overseas."
  5: 0x005A [0x23] WAIT_FOR_DIALOG_INTERACTION
  6: 0x005B [0x1D] PRINT_EVENT_MESSAGE(message_id=7675*)
    → "Our boss has dreamed of sailing all over the world. To him, this business is just something he promised his dad he'd do."
  7: 0x005E [0x23] WAIT_FOR_DIALOG_INTERACTION
  8: 0x005F [0x5E] EventEntity goes idle (kills current action) (animation: "idl0")
  9: 0x0064 [0x1C] WAIT(60* ticks)
 10: 0x0067 [0x21] END_EVENT
 11: 0x0068 [0x00] END_REQSTACK()
```

### Event 168

#### Metadata

| Field        | Value    |
|--------------|----------|
| Entrypoint   | 0x0069   |
| Data Size    | 45 bytes |
| Instructions | 11       |

```
      00 01 02 03 04 05 06 07  08 09 0A 0B 0C 0D 0E 0F
      -- -- -- -- -- -- -- --  -- -- -- -- -- -- -- --
0060:                             03 08 10 0C 80 1E F0           .......
0070: FF FF 7F 6F 76 F8 FF FF  7F 66 09 80 F8 FF FF 7F  ...ov....f......
0080: F8 FF FF 7F 74 6C 6B 30  1D 0D 80 23 5E 69 64 6C  ....tlk0...#^idl
0090: 30 1C 09 80 21 00                                 0...!.          
```

#### Opcodes

```
  0: 0x0069 [0x03] Work_Zone[8] = 19*
  1: 0x006E [0x1E] EventEntity looks at LocalPlayer and starts talking
  2: 0x0073 [0x6F] WAIT_FRAME_DELAY: Yield until WaitTime reaches zero
  3: 0x0074 [0x76] CHECK_ENTITY_RENDER_FLAGS: Wait until EventEntity Render.Flags0 and Render.Flags3 conditions are met
  4: 0x0079 [0x66] LOAD_EXT_SCHEDULER_MAIN: Load scheduler "tlk0" with entities [EventEntity, EventEntity], work=60*
  5: 0x0088 [0x1D] PRINT_EVENT_MESSAGE(message_id=7676*)
    → "Oh, you want $6, do ya? Sorry, but we ain't comfortable doin' business with ya. Come back once you've made a name for yourself."
  6: 0x008B [0x23] WAIT_FOR_DIALOG_INTERACTION
  7: 0x008C [0x5E] EventEntity goes idle (kills current action) (animation: "idl0")
  8: 0x0091 [0x1C] WAIT(60* ticks)
  9: 0x0094 [0x21] END_EVENT
 10: 0x0095 [0x00] END_REQSTACK()
```

### Event 167

#### Metadata

| Field        | Value    |
|--------------|----------|
| Entrypoint   | 0x0096   |
| Data Size    | 58 bytes |
| Instructions | 16       |

```
      00 01 02 03 04 05 06 07  08 09 0A 0B 0C 0D 0E 0F
      -- -- -- -- -- -- -- --  -- -- -- -- -- -- -- --
0090:                   03 08  10 0C 80 03 09 10 0E 80        ..........
00A0: 1E F0 FF FF 7F 6F 76 F8  FF FF 7F 66 09 80 F8 FF  .....ov....f....
00B0: FF 7F F8 FF FF 7F 74 6C  6B 30 1D 0F 80 23 1D 10  ......tlk0...#..
00C0: 80 23 1D 11 80 23 5E 69  64 6C 30 1C 09 80 21 00  .#...#^idl0...!.
```

#### Opcodes

```
  0: 0x0096 [0x03] Work_Zone[8] = 19*
  1: 0x009B [0x03] Work_Zone[9] = 554*
  2: 0x00A0 [0x1E] EventEntity looks at LocalPlayer and starts talking
  3: 0x00A5 [0x6F] WAIT_FRAME_DELAY: Yield until WaitTime reaches zero
  4: 0x00A6 [0x76] CHECK_ENTITY_RENDER_FLAGS: Wait until EventEntity Render.Flags0 and Render.Flags3 conditions are met
  5: 0x00AB [0x66] LOAD_EXT_SCHEDULER_MAIN: Load scheduler "tlk0" with entities [EventEntity, EventEntity], work=60*
  6: 0x00BA [0x1D] PRINT_EVENT_MESSAGE(message_id=7677*)
    → "So, you're looking for $6? Beastmen have all the trade routes shut tight for now."
  7: 0x00BD [0x23] WAIT_FOR_DIALOG_INTERACTION
  8: 0x00BE [0x1D] PRINT_EVENT_MESSAGE(message_id=7678*)
    → "But not Tenshodo! We always got the hard-to-find goods in stock. Come on, let's make a deal."
  9: 0x00C1 [0x23] WAIT_FOR_DIALOG_INTERACTION
 10: 0x00C2 [0x1D] PRINT_EVENT_MESSAGE(message_id=7679*)
    → "Right now, we're looking for $7. Get us one, and the $3 is yours. Whaddaya say?"
 11: 0x00C5 [0x23] WAIT_FOR_DIALOG_INTERACTION
 12: 0x00C6 [0x5E] EventEntity goes idle (kills current action) (animation: "idl0")
 13: 0x00CB [0x1C] WAIT(60* ticks)
 14: 0x00CE [0x21] END_EVENT
 15: 0x00CF [0x00] END_REQSTACK()
```

### Event 166

#### Metadata

| Field        | Value    |
|--------------|----------|
| Entrypoint   | 0x00D0   |
| Data Size    | 60 bytes |
| Instructions | 13       |

```
      00 01 02 03 04 05 06 07  08 09 0A 0B 0C 0D 0E 0F
      -- -- -- -- -- -- -- --  -- -- -- -- -- -- -- --
00D0: 20 01 42 1E F0 FF FF 7F  6F 76 F8 FF FF 7F 66 09   .B.....ov....f.
00E0: 80 F8 FF FF 7F F8 FF FF  7F 74 6C 6B 30 1D 12 80  .........tlk0...
00F0: 23 45 13 80 F0 FF FF 7F  F0 FF FF 7F 71 73 74 63  #E..........qstc
0100: 14 80 5E 69 64 6C 30 1C  09 80 21 00              ..^idl0...!.    
```

#### Opcodes

```
  0: 0x00D0 [0x20] SET_CLI_EVENT_UC_FLAG: Lock player control
  1: 0x00D2 [0x42] SET_CLI_EVENT_CANCEL_DATA()
  2: 0x00D3 [0x1E] EventEntity looks at LocalPlayer and starts talking
  3: 0x00D8 [0x6F] WAIT_FRAME_DELAY: Yield until WaitTime reaches zero
  4: 0x00D9 [0x76] CHECK_ENTITY_RENDER_FLAGS: Wait until EventEntity Render.Flags0 and Render.Flags3 conditions are met
  5: 0x00DE [0x66] LOAD_EXT_SCHEDULER_MAIN: Load scheduler "tlk0" with entities [EventEntity, EventEntity], work=60*
  6: 0x00ED [0x1D] PRINT_EVENT_MESSAGE(message_id=7680*)
    → "Well, look what we have here... Alrighty, here you go, pal!"
  7: 0x00F0 [0x23] WAIT_FOR_DIALOG_INTERACTION
  8: 0x00F1 [0x45] LOAD_SCHEDULED_TASK: Load scheduler "qstc" with entities [LocalPlayer, LocalPlayer], work=[201*, 0*]
  9: 0x0102 [0x5E] EventEntity goes idle (kills current action) (animation: "idl0")
 10: 0x0107 [0x1C] WAIT(60* ticks)
 11: 0x010A [0x21] END_EVENT
 12: 0x010B [0x00] END_REQSTACK()
```

### Event 174

#### Metadata

| Field        | Value    |
|--------------|----------|
| Entrypoint   | 0x010C   |
| Data Size    | 40 bytes |
| Instructions | 10       |

```
      00 01 02 03 04 05 06 07  08 09 0A 0B 0C 0D 0E 0F
      -- -- -- -- -- -- -- --  -- -- -- -- -- -- -- --
0100:                                      1E F0 FF FF              ....
0110: 7F 6F 76 F8 FF FF 7F 66  09 80 F8 FF FF 7F F8 FF  .ov....f........
0120: FF 7F 74 6C 6B 30 1D 15  80 23 5E 69 64 6C 30 1C  ..tlk0...#^idl0.
0130: 09 80 21 00                                       ..!.            
```

#### Opcodes

```
  0: 0x010C [0x1E] EventEntity looks at LocalPlayer and starts talking
  1: 0x0111 [0x6F] WAIT_FRAME_DELAY: Yield until WaitTime reaches zero
  2: 0x0112 [0x76] CHECK_ENTITY_RENDER_FLAGS: Wait until EventEntity Render.Flags0 and Render.Flags3 conditions are met
  3: 0x0117 [0x66] LOAD_EXT_SCHEDULER_MAIN: Load scheduler "tlk0" with entities [EventEntity, EventEntity], work=60*
  4: 0x0126 [0x1D] PRINT_EVENT_MESSAGE(message_id=7681*)
    → "Hey, have you seen Lady Verena around? She usually doesn't stay out this late..."
  5: 0x0129 [0x23] WAIT_FOR_DIALOG_INTERACTION
  6: 0x012A [0x5E] EventEntity goes idle (kills current action) (animation: "idl0")
  7: 0x012F [0x1C] WAIT(60* ticks)
  8: 0x0132 [0x21] END_EVENT
  9: 0x0133 [0x00] END_REQSTACK()
```

### Event 172

#### Metadata

| Field        | Value    |
|--------------|----------|
| Entrypoint   | 0x0134   |
| Data Size    | 40 bytes |
| Instructions | 10       |

```
      00 01 02 03 04 05 06 07  08 09 0A 0B 0C 0D 0E 0F
      -- -- -- -- -- -- -- --  -- -- -- -- -- -- -- --
0130:             1E F0 FF FF  7F 6F 76 F8 FF FF 7F 66      .....ov....f
0140: 09 80 F8 FF FF 7F F8 FF  FF 7F 74 6C 6B 30 1D 16  ..........tlk0..
0150: 80 23 5E 69 64 6C 30 1C  09 80 21 00              .#^idl0...!.    
```

#### Opcodes

```
  0: 0x0134 [0x1E] EventEntity looks at LocalPlayer and starts talking
  1: 0x0139 [0x6F] WAIT_FRAME_DELAY: Yield until WaitTime reaches zero
  2: 0x013A [0x76] CHECK_ENTITY_RENDER_FLAGS: Wait until EventEntity Render.Flags0 and Render.Flags3 conditions are met
  3: 0x013F [0x66] LOAD_EXT_SCHEDULER_MAIN: Load scheduler "tlk0" with entities [EventEntity, EventEntity], work=60*
  4: 0x014E [0x1D] PRINT_EVENT_MESSAGE(message_id=7682*)
    → "Lion came, so something must be up. I'd like to get out there and do some fighting myself, but I'm stuck here until Boss gives the order."
  5: 0x0151 [0x23] WAIT_FOR_DIALOG_INTERACTION
  6: 0x0152 [0x5E] EventEntity goes idle (kills current action) (animation: "idl0")
  7: 0x0157 [0x1C] WAIT(60* ticks)
  8: 0x015A [0x21] END_EVENT
  9: 0x015B [0x00] END_REQSTACK()
```

### Event 173

#### Metadata

| Field        | Value    |
|--------------|----------|
| Entrypoint   | 0x015C   |
| Data Size    | 44 bytes |
| Instructions | 12       |

```
      00 01 02 03 04 05 06 07  08 09 0A 0B 0C 0D 0E 0F
      -- -- -- -- -- -- -- --  -- -- -- -- -- -- -- --
0150:                                      1E F0 FF FF              ....
0160: 7F 6F 76 F8 FF FF 7F 66  09 80 F8 FF FF 7F F8 FF  .ov....f........
0170: FF 7F 74 6C 6B 30 1D 17  80 23 1D 18 80 23 5E 69  ..tlk0...#...#^i
0180: 64 6C 30 1C 09 80 21 00                           dl0...!.        
```

#### Opcodes

```
  0: 0x015C [0x1E] EventEntity looks at LocalPlayer and starts talking
  1: 0x0161 [0x6F] WAIT_FRAME_DELAY: Yield until WaitTime reaches zero
  2: 0x0162 [0x76] CHECK_ENTITY_RENDER_FLAGS: Wait until EventEntity Render.Flags0 and Render.Flags3 conditions are met
  3: 0x0167 [0x66] LOAD_EXT_SCHEDULER_MAIN: Load scheduler "tlk0" with entities [EventEntity, EventEntity], work=60*
  4: 0x0176 [0x1D] PRINT_EVENT_MESSAGE(message_id=7683*)
    → "I couldn't believe it when Boss came back carrying Lady Verena. He looked like he had been run over by a stampede of chocobos."
  5: 0x0179 [0x23] WAIT_FOR_DIALOG_INTERACTION
  6: 0x017A [0x1D] PRINT_EVENT_MESSAGE(message_id=7684*)
    → "I wonder what the hell happened up there at Delkfutt's Tower... No, on second thought, don't tell me. I don't want to know."
  7: 0x017D [0x23] WAIT_FOR_DIALOG_INTERACTION
  8: 0x017E [0x5E] EventEntity goes idle (kills current action) (animation: "idl0")
  9: 0x0183 [0x1C] WAIT(60* ticks)
 10: 0x0186 [0x21] END_EVENT
 11: 0x0187 [0x00] END_REQSTACK()
```

### Event 171

#### Metadata

| Field        | Value    |
|--------------|----------|
| Entrypoint   | 0x0188   |
| Data Size    | 40 bytes |
| Instructions | 10       |

```
      00 01 02 03 04 05 06 07  08 09 0A 0B 0C 0D 0E 0F
      -- -- -- -- -- -- -- --  -- -- -- -- -- -- -- --
0180:                          1E F0 FF FF 7F 6F 76 F8          .....ov.
0190: FF FF 7F 66 09 80 F8 FF  FF 7F F8 FF FF 7F 74 6C  ...f..........tl
01A0: 6B 30 1D 19 80 23 5E 69  64 6C 30 1C 09 80 21 00  k0...#^idl0...!.
```

#### Opcodes

```
  0: 0x0188 [0x1E] EventEntity looks at LocalPlayer and starts talking
  1: 0x018D [0x6F] WAIT_FRAME_DELAY: Yield until WaitTime reaches zero
  2: 0x018E [0x76] CHECK_ENTITY_RENDER_FLAGS: Wait until EventEntity Render.Flags0 and Render.Flags3 conditions are met
  3: 0x0193 [0x66] LOAD_EXT_SCHEDULER_MAIN: Load scheduler "tlk0" with entities [EventEntity, EventEntity], work=60*
  4: 0x01A2 [0x1D] PRINT_EVENT_MESSAGE(message_id=7685*)
    → "Lately, Boss has got that look in his eyes... You know, the one that makes your spine tingle with fear."
  5: 0x01A5 [0x23] WAIT_FOR_DIALOG_INTERACTION
  6: 0x01A6 [0x5E] EventEntity goes idle (kills current action) (animation: "idl0")
  7: 0x01AB [0x1C] WAIT(60* ticks)
  8: 0x01AE [0x21] END_EVENT
  9: 0x01AF [0x00] END_REQSTACK()
```

### Event 170

#### Metadata

| Field        | Value    |
|--------------|----------|
| Entrypoint   | 0x01B0   |
| Data Size    | 40 bytes |
| Instructions | 10       |

```
      00 01 02 03 04 05 06 07  08 09 0A 0B 0C 0D 0E 0F
      -- -- -- -- -- -- -- --  -- -- -- -- -- -- -- --
01B0: 1E F0 FF FF 7F 6F 76 F8  FF FF 7F 66 09 80 F8 FF  .....ov....f....
01C0: FF 7F F8 FF FF 7F 74 6C  6B 30 1D 1A 80 23 5E 69  ......tlk0...#^i
01D0: 64 6C 30 1C 09 80 21 00                           dl0...!.        
```

#### Opcodes

```
  0: 0x01B0 [0x1E] EventEntity looks at LocalPlayer and starts talking
  1: 0x01B5 [0x6F] WAIT_FRAME_DELAY: Yield until WaitTime reaches zero
  2: 0x01B6 [0x76] CHECK_ENTITY_RENDER_FLAGS: Wait until EventEntity Render.Flags0 and Render.Flags3 conditions are met
  3: 0x01BB [0x66] LOAD_EXT_SCHEDULER_MAIN: Load scheduler "tlk0" with entities [EventEntity, EventEntity], work=60*
  4: 0x01CA [0x1D] PRINT_EVENT_MESSAGE(message_id=7686*)
    → "Well, all's well that ends well. I like you and all, but just between you and me, I'm against you joining us. I don't want to have to compete against an adventurer of your caliber!"
  5: 0x01CD [0x23] WAIT_FOR_DIALOG_INTERACTION
  6: 0x01CE [0x5E] EventEntity goes idle (kills current action) (animation: "idl0")
  7: 0x01D3 [0x1C] WAIT(60* ticks)
  8: 0x01D6 [0x21] END_EVENT
  9: 0x01D7 [0x00] END_REQSTACK()
```

### Event 65535.3

#### Metadata

| Field        | Value    |
|--------------|----------|
| Entrypoint   | 0x01D8   |
| Data Size    | 19 bytes |
| Instructions | 3        |

```
      00 01 02 03 04 05 06 07  08 09 0A 0B 0C 0D 0E 0F
      -- -- -- -- -- -- -- --  -- -- -- -- -- -- -- --
01D0:                          66 09 80 F8 FF FF 7F F8          f.......
01E0: FF FF 7F 74 6C 6B 30 1C  09 80 00                 ...tlk0....     
```

#### Opcodes

```
  0: 0x01D8 [0x66] LOAD_EXT_SCHEDULER_MAIN: Load scheduler "tlk0" with entities [EventEntity, EventEntity], work=60*
  1: 0x01E7 [0x1C] WAIT(60* ticks)
  2: 0x01EA [0x00] END_REQSTACK()
```

### Event 65535.4

#### Metadata

| Field        | Value   |
|--------------|---------|
| Entrypoint   | 0x01EB  |
| Data Size    | 9 bytes |
| Instructions | 3       |

```
      00 01 02 03 04 05 06 07  08 09 0A 0B 0C 0D 0E 0F
      -- -- -- -- -- -- -- --  -- -- -- -- -- -- -- --
01E0:                                   5E 69 64 6C 30             ^idl0
01F0: 1C 09 80 00                                       ....            
```

#### Opcodes

```
  0: 0x01EB [0x5E] EventEntity goes idle (kills current action) (animation: "idl0")
  1: 0x01F0 [0x1C] WAIT(60* ticks)
  2: 0x01F3 [0x00] END_REQSTACK()
```

### Event 10059

#### Metadata

| Field        | Value    |
|--------------|----------|
| Entrypoint   | 0x01F4   |
| Data Size    | 44 bytes |
| Instructions | 12       |

```
      00 01 02 03 04 05 06 07  08 09 0A 0B 0C 0D 0E 0F
      -- -- -- -- -- -- -- --  -- -- -- -- -- -- -- --
01F0:             1E F0 FF FF  7F 6F 76 F8 FF FF 7F 66      .....ov....f
0200: 09 80 F8 FF FF 7F F8 FF  FF 7F 74 6C 6B 30 1D 1B  ..........tlk0..
0210: 80 23 1D 1C 80 23 5E 69  64 6C 30 1C 09 80 21 00  .#...#^idl0...!.
```

#### Opcodes

```
  0: 0x01F4 [0x1E] EventEntity looks at LocalPlayer and starts talking
  1: 0x01F9 [0x6F] WAIT_FRAME_DELAY: Yield until WaitTime reaches zero
  2: 0x01FA [0x76] CHECK_ENTITY_RENDER_FLAGS: Wait until EventEntity Render.Flags0 and Render.Flags3 conditions are met
  3: 0x01FF [0x66] LOAD_EXT_SCHEDULER_MAIN: Load scheduler "tlk0" with entities [EventEntity, EventEntity], work=60*
  4: 0x020E [0x1D] PRINT_EVENT_MESSAGE(message_id=9511*)
    → "The boss sure is cheerful these days. He was putting on a show before so we wouldn't worry, but I've known him too long to fall for that."
  5: 0x0211 [0x23] WAIT_FOR_DIALOG_INTERACTION
  6: 0x0212 [0x1D] PRINT_EVENT_MESSAGE(message_id=9512*)
    → "He won't say anything about what happened. But that spark is back in his eye, and that's enough for me! Things are about to get interesting!"
  7: 0x0215 [0x23] WAIT_FOR_DIALOG_INTERACTION
  8: 0x0216 [0x5E] EventEntity goes idle (kills current action) (animation: "idl0")
  9: 0x021B [0x1C] WAIT(60* ticks)
 10: 0x021E [0x21] END_EVENT
 11: 0x021F [0x00] END_REQSTACK()
```

### Event 10125

#### Metadata

| Field        | Value   |
|--------------|---------|
| Entrypoint   | 0x0220  |
| Data Size    | 1 bytes |
| Instructions | 1       |

```
      00 01 02 03 04 05 06 07  08 09 0A 0B 0C 0D 0E 0F
      -- -- -- -- -- -- -- --  -- -- -- -- -- -- -- --
0220: 00                                                .               
```

#### Opcodes

```
  0: 0x0220 [0x00] END_REQSTACK()
```
