# 17780744 - Verena

## Common Data

| Field            | Value                 |
|------------------|-----------------------|
| Zone             | Lower Jeuno (ID: 245) |
| Block Size       | 1264 bytes            |
| Total Events     | 40                    |
| References Count | 76                    |

## List of Events

| Event ID                   | Entrypoint   |   Size |   Instructions |
|----------------------------|--------------|--------|----------------|
| [65535](#event-65535)      | 0x0000       |      6 |              3 |
| [152](#event-152)          | 0x0006       |     10 |              2 |
| [20](#event-20)            | 0x0010       |     10 |              2 |
| [65535.1](#event-655351)   | 0x001A       |     12 |              4 |
| [65535.2](#event-655352)   | 0x0026       |     27 |              5 |
| [83](#event-83)            | 0x0041       |     10 |              2 |
| [48](#event-48)            | 0x004B       |     10 |              2 |
| [184](#event-184)          | 0x0055       |     10 |              2 |
| [84](#event-84)            | 0x005F       |     44 |              7 |
| [111](#event-111)          | 0x008B       |     10 |              2 |
| [65535.3](#event-655353)   | 0x0095       |     17 |              6 |
| [65535.4](#event-655354)   | 0x00A6       |     33 |              7 |
| [65535.5](#event-655355)   | 0x00C7       |     79 |              8 |
| [65535.6](#event-655356)   | 0x0116       |     21 |              5 |
| [65535.7](#event-655357)   | 0x012B       |     34 |              8 |
| [65535.8](#event-655358)   | 0x014D       |     50 |             11 |
| [65535.9](#event-655359)   | 0x017F       |     14 |              4 |
| [65535.10](#event-6553510) | 0x018D       |     11 |              3 |
| [65535.11](#event-6553511) | 0x0198       |     30 |              6 |
| [65535.12](#event-6553512) | 0x01B6       |     20 |              4 |
| [65535.13](#event-6553513) | 0x01CA       |     21 |              5 |
| [65535.14](#event-6553514) | 0x01DF       |     20 |              4 |
| [65535.15](#event-6553515) | 0x01F3       |      4 |              2 |
| [65535.16](#event-6553516) | 0x01F7       |     13 |              3 |
| [65535.17](#event-6553517) | 0x0204       |     19 |              3 |
| [65535.18](#event-6553518) | 0x0217       |     29 |              3 |
| [65535.19](#event-6553519) | 0x0234       |     19 |              3 |
| [65535.20](#event-6553520) | 0x0247       |     29 |              3 |
| [65535.21](#event-6553521) | 0x0264       |     19 |              3 |
| [65535.22](#event-6553522) | 0x0277       |     29 |              3 |
| [65535.23](#event-6553523) | 0x0294       |      6 |              2 |
| [65535.24](#event-6553524) | 0x029A       |      1 |              1 |
| [10094](#event-10094)      | 0x029B       |      4 |              2 |
| [65535.25](#event-6553525) | 0x029F       |     16 |              2 |
| [65535.26](#event-6553526) | 0x02AF       |     16 |              2 |
| [65535.27](#event-6553527) | 0x02BF       |     16 |              2 |
| [65535.28](#event-6553528) | 0x02CF       |     16 |              2 |
| [65535.29](#event-6553529) | 0x02DF       |     16 |              2 |
| [65535.30](#event-6553530) | 0x02EF       |     16 |              2 |
| [65535.31](#event-6553531) | 0x02FF       |     16 |              2 |

## DAT References (imed_data)

|   Index | Hex Value   |   Dec Value |
|---------|-------------|-------------|
|       0 | 0x0008      |           8 |
|       1 | 0x463E      |       17982 |
|       2 | 0xFFFF30F8  |  4294914296 |
|       3 | 0x0F3C      |        3900 |
|       4 | 0x02FB      |         763 |
|       5 | 0x88BA      |       35002 |
|       6 | 0xFFFF7545  |  4294931781 |
|       7 | 0x0558      |        1368 |
|       8 | 0x8694      |       34452 |
|       9 | 0xFFFF719E  |  4294930846 |
|      10 | 0x0F3B      |        3899 |
|      11 | 0x85A8      |       34216 |
|      12 | 0xFFFF703B  |  4294930491 |
|      13 | 0x00BE      |         190 |
|      14 | 0x48CE      |       18638 |
|      15 | 0xFFFF3631  |  4294915633 |
|      16 | 0x049B      |        1179 |
|      17 | 0xFFFF7D7B  |  4294933883 |
|      18 | 0xFFFDE6F4  |  4294829812 |
|      19 | 0x157B      |        5499 |
|      20 | 0x0FBB      |        4027 |
|      21 | 0xFFFF7D2B  |  4294933803 |
|      22 | 0xFFFDE7AD  |  4294829997 |
|      23 | 0x002B      |          43 |
|      24 | 0x5B07      |       23303 |
|      25 | 0x17D8      |        6104 |
|      26 | 0xFFFFFCB3  |  4294966451 |
|      27 | 0x012C      |         300 |
|      28 | 0x00BF      |         191 |
|      29 | 0x1C17      |        7191 |
|      30 | 0x108E9     |       67817 |
|      31 | 0x07D0      |        2000 |
|      32 | 0x0F14      |        3860 |
|      33 | 0x24D6      |        9430 |
|      34 | 0x10D61     |       68961 |
|      35 | 0x07CF      |        1999 |
|      36 | 0x0017      |          23 |
|      37 | 0x208E      |        8334 |
|      38 | 0x10BB2     |       68530 |
|      39 | 0x00F0      |         240 |
|      40 | 0x0091      |         145 |
|      41 | 0x0000      |           0 |
|      42 | 0x4B6E      |       19310 |
|      43 | 0xFFFF24C3  |  4294911171 |
|      44 | 0x0F1D      |        3869 |
|      45 | 0x001E      |          30 |
|      46 | 0x000A      |          10 |
|      47 | 0x4535      |       17717 |
|      48 | 0xFFFF2DB8  |  4294913464 |
|      49 | 0x49A6      |       18854 |
|      50 | 0xFFFF35D1  |  4294915537 |
|      51 | 0x4B90      |       19344 |
|      52 | 0xFFFF3C7B  |  4294917243 |
|      53 | 0x0F3D      |        3901 |
|      54 | 0x6B7A      |       27514 |
|      55 | 0xFFFF2CC9  |  4294913225 |
|      56 | 0x4D13      |       19731 |
|      57 | 0xFFFF267D  |  4294911613 |
|      58 | 0x01AC      |         428 |
|      59 | 0xFFFF842E  |  4294935598 |
|      60 | 0xFFFDE691  |  4294829713 |
|      61 | 0xFFFF8BA9  |  4294937513 |
|      62 | 0xFFFDE46A  |  4294829162 |
|      63 | 0xFFFF9013  |  4294938643 |
|      64 | 0xFFFDE5B9  |  4294829497 |
|      65 | 0xFFFF8878  |  4294936696 |
|      66 | 0xFFFDE584  |  4294829444 |
|      67 | 0xFFFF8A06  |  4294937094 |
|      68 | 0xFFFDE515  |  4294829333 |
|      69 | 0xFFFF7983  |  4294932867 |
|      70 | 0xFFFDE8F3  |  4294830323 |
|      71 | 0xFFFF8E6E  |  4294938222 |
|      72 | 0xFFFDE6C6  |  4294829766 |
|      73 | 0x003C      |          60 |
|      74 | 0x0001      |           1 |
|      75 | 0x0A31      |        2609 |

## Events

### Event 65535

#### Metadata

| Field        | Value   |
|--------------|---------|
| Entrypoint   | 0x0000  |
| Data Size    | 6 bytes |
| Instructions | 3       |

```
      00 01 02 03 04 05 06 07  08 09 0A 0B 0C 0D 0E 0F
      -- -- -- -- -- -- -- --  -- -- -- -- -- -- -- --
0000: 22 01 32 00 80 00                                 ".2...          
```

#### Opcodes

```
  0: 0x0000 [0x22] ENTITY_HIDE_FLAG(enabled=0x01)
  1: 0x0002 [0x32] ExtData[1]->MainSpeed = 8* * 0.1
  2: 0x0005 [0x00] END_REQSTACK()
```

### Event 152

#### Metadata

| Field        | Value    |
|--------------|----------|
| Entrypoint   | 0x0006   |
| Data Size    | 10 bytes |
| Instructions | 2        |

```
      00 01 02 03 04 05 06 07  08 09 0A 0B 0C 0D 0E 0F
      -- -- -- -- -- -- -- --  -- -- -- -- -- -- -- --
0000:                   37 01  80 02 80 03 80 04 80 00        7.........
```

#### Opcodes

```
  0: 0x0006 [0x37] UPDATE_EVENT_POSITION_AND_DIR: x=17.982*, z=-53.000*, y=3.900*, direction=67.1°*
  1: 0x000F [0x00] END_REQSTACK()
```

### Event 20

#### Metadata

| Field        | Value    |
|--------------|----------|
| Entrypoint   | 0x0010   |
| Data Size    | 10 bytes |
| Instructions | 2        |

```
      00 01 02 03 04 05 06 07  08 09 0A 0B 0C 0D 0E 0F
      -- -- -- -- -- -- -- --  -- -- -- -- -- -- -- --
0010: 37 05 80 06 80 03 80 07  80 00                    7.........      
```

#### Opcodes

```
  0: 0x0010 [0x37] UPDATE_EVENT_POSITION_AND_DIR: x=35.002*, z=-35.515*, y=3.900*, direction=120.2°*
  1: 0x0019 [0x00] END_REQSTACK()
```

### Event 65535.1

#### Metadata

| Field        | Value    |
|--------------|----------|
| Entrypoint   | 0x001A   |
| Data Size    | 12 bytes |
| Instructions | 4        |

```
      00 01 02 03 04 05 06 07  08 09 0A 0B 0C 0D 0E 0F
      -- -- -- -- -- -- -- --  -- -- -- -- -- -- -- --
0010:                                1F 00 08 80 09 80            ......
0020: 0A 80 1F 01 6F 00                                 ....o.          
```

#### Opcodes

```
  0: 0x001A [0x1F] MOVE_ENTITY: EventEntity moves to X=34.452*, Z=-36.450*, Y=3.899*
  1: 0x0022 [0x1F] MOVE_ENTITY: Update entity position (mode=1)
  2: 0x0024 [0x6F] WAIT_FRAME_DELAY: Yield until WaitTime reaches zero
  3: 0x0025 [0x00] END_REQSTACK()
```

### Event 65535.2

#### Metadata

| Field        | Value    |
|--------------|----------|
| Entrypoint   | 0x0026   |
| Data Size    | 27 bytes |
| Instructions | 5        |

```
      00 01 02 03 04 05 06 07  08 09 0A 0B 0C 0D 0E 0F
      -- -- -- -- -- -- -- --  -- -- -- -- -- -- -- --
0020:                   1F 00  0B 80 0C 80 03 80 1F 01        ..........
0030: 6F 5B 0D 80 F8 FF FF 7F  F8 FF FF 7F 75 74 73 30  o[..........uts0
0040: 00                                                .               
```

#### Opcodes

```
  0: 0x0026 [0x1F] MOVE_ENTITY: EventEntity moves to X=34.216*, Z=-36.805*, Y=3.900*
  1: 0x002E [0x1F] MOVE_ENTITY: Update entity position (mode=1)
  2: 0x0030 [0x6F] WAIT_FRAME_DELAY: Yield until WaitTime reaches zero
  3: 0x0031 [0x5B] LOAD_EXT_SCHEDULER: Load scheduler "uts0" with entities [EventEntity, EventEntity], work=190*
  4: 0x0040 [0x00] END_REQSTACK()
```

### Event 83

#### Metadata

| Field        | Value    |
|--------------|----------|
| Entrypoint   | 0x0041   |
| Data Size    | 10 bytes |
| Instructions | 2        |

```
      00 01 02 03 04 05 06 07  08 09 0A 0B 0C 0D 0E 0F
      -- -- -- -- -- -- -- --  -- -- -- -- -- -- -- --
0040:    37 0E 80 0F 80 03 80  10 80 00                  7.........     
```

#### Opcodes

```
  0: 0x0041 [0x37] UPDATE_EVENT_POSITION_AND_DIR: x=18.638*, z=-51.663*, y=3.900*, direction=103.6°*
  1: 0x004A [0x00] END_REQSTACK()
```

### Event 48

#### Metadata

| Field        | Value    |
|--------------|----------|
| Entrypoint   | 0x004B   |
| Data Size    | 10 bytes |
| Instructions | 2        |

```
      00 01 02 03 04 05 06 07  08 09 0A 0B 0C 0D 0E 0F
      -- -- -- -- -- -- -- --  -- -- -- -- -- -- -- --
0040:                                   37 11 80 12 80             7....
0050: 13 80 14 80 00                                    .....           
```

#### Opcodes

```
  0: 0x004B [0x37] UPDATE_EVENT_POSITION_AND_DIR: x=-33.413*, z=-137.484*, y=5.499*, direction=353.9°*
  1: 0x0054 [0x00] END_REQSTACK()
```

### Event 184

#### Metadata

| Field        | Value    |
|--------------|----------|
| Entrypoint   | 0x0055   |
| Data Size    | 10 bytes |
| Instructions | 2        |

```
      00 01 02 03 04 05 06 07  08 09 0A 0B 0C 0D 0E 0F
      -- -- -- -- -- -- -- --  -- -- -- -- -- -- -- --
0050:                37 15 80  16 80 13 80 17 80 00          7......... 
```

#### Opcodes

```
  0: 0x0055 [0x37] UPDATE_EVENT_POSITION_AND_DIR: x=-33.493*, z=-137.299*, y=5.499*, direction=3.8°*
  1: 0x005E [0x00] END_REQSTACK()
```

### Event 84

#### Metadata

| Field        | Value    |
|--------------|----------|
| Entrypoint   | 0x005F   |
| Data Size    | 44 bytes |
| Instructions | 7        |

```
      00 01 02 03 04 05 06 07  08 09 0A 0B 0C 0D 0E 0F
      -- -- -- -- -- -- -- --  -- -- -- -- -- -- -- --
0050:                                               92                 .
0060: 01 F8 FF FF 7F 81 00 F8  FF FF 7F 33 01 37 18 80  ...........3.7..
0070: 19 80 1A 80 1B 80 80 F8  FF FF 7F 5B 1C 80 F8 FF  ...........[....
0080: FF 7F F8 FF FF 7F 62 65  64 30 00                 ......bed0.     
```

#### Opcodes

```
  0: 0x005F [0x92] EventEntity->Render.Flags3 ^= 0x01
  1: 0x0065 [0x81] SET_ENTITY_BLINKING(blink_flag=0x00, entity=EventEntity)
  2: 0x006B [0x33] EventEntity->Render.Flags0 |= 0x200000 // Bit 21 (flag=0x01)
  3: 0x006D [0x37] UPDATE_EVENT_POSITION_AND_DIR: x=23.303*, z=6.104*, y=-0.845*, direction=26.4°*
  4: 0x0076 [0x80] LOAD_WAIT(entity=EventEntity)
  5: 0x007B [0x5B] LOAD_EXT_SCHEDULER: Load scheduler "bed0" with entities [EventEntity, EventEntity], work=191*
  6: 0x008A [0x00] END_REQSTACK()
```

### Event 111

#### Metadata

| Field        | Value    |
|--------------|----------|
| Entrypoint   | 0x008B   |
| Data Size    | 10 bytes |
| Instructions | 2        |

```
      00 01 02 03 04 05 06 07  08 09 0A 0B 0C 0D 0E 0F
      -- -- -- -- -- -- -- --  -- -- -- -- -- -- -- --
0080:                                   37 1D 80 1E 80             7....
0090: 1F 80 20 80 00                                    .. ..           
```

#### Opcodes

```
  0: 0x008B [0x37] UPDATE_EVENT_POSITION_AND_DIR: x=7.191*, z=67.817*, y=2.000*, direction=339.2°*
  1: 0x0094 [0x00] END_REQSTACK()
```

### Event 65535.3

#### Metadata

| Field        | Value    |
|--------------|----------|
| Entrypoint   | 0x0095   |
| Data Size    | 17 bytes |
| Instructions | 6        |

```
      00 01 02 03 04 05 06 07  08 09 0A 0B 0C 0D 0E 0F
      -- -- -- -- -- -- -- --  -- -- -- -- -- -- -- --
0090:                22 00 32  00 80 1F 00 21 80 22 80       ".2....!.".
00A0: 23 80 1F 01 6F 00                                 #...o.          
```

#### Opcodes

```
  0: 0x0095 [0x22] ENTITY_HIDE_FLAG(enabled=0x00)
  1: 0x0097 [0x32] ExtData[1]->MainSpeed = 8* * 0.1
  2: 0x009A [0x1F] MOVE_ENTITY: EventEntity moves to X=9.430*, Z=68.961*, Y=1.999*
  3: 0x00A2 [0x1F] MOVE_ENTITY: Update entity position (mode=1)
  4: 0x00A4 [0x6F] WAIT_FRAME_DELAY: Yield until WaitTime reaches zero
  5: 0x00A5 [0x00] END_REQSTACK()
```

### Event 65535.4

#### Metadata

| Field        | Value    |
|--------------|----------|
| Entrypoint   | 0x00A6   |
| Data Size    | 33 bytes |
| Instructions | 7        |

```
      00 01 02 03 04 05 06 07  08 09 0A 0B 0C 0D 0E 0F
      -- -- -- -- -- -- -- --  -- -- -- -- -- -- -- --
00A0:                   32 24  80 1F 00 25 80 26 80 23        2$...%.&.#
00B0: 80 1F 01 6F 5B 0D 80 08  50 0F 01 08 50 0F 01 73  ...o[...P...P..s
00C0: 69 74 30 32 00 80 00                              it02...         
```

#### Opcodes

```
  0: 0x00A6 [0x32] ExtData[1]->MainSpeed = 23* * 0.1
  1: 0x00A9 [0x1F] MOVE_ENTITY: EventEntity moves to X=8.334*, Z=68.530*, Y=1.999*
  2: 0x00B1 [0x1F] MOVE_ENTITY: Update entity position (mode=1)
  3: 0x00B3 [0x6F] WAIT_FRAME_DELAY: Yield until WaitTime reaches zero
  4: 0x00B4 [0x5B] LOAD_EXT_SCHEDULER: Load scheduler "sit0" with entities [Verena (ID: 17780744/0x010F5008), Verena (ID: 17780744/0x010F5008)], work=190*
  5: 0x00C3 [0x32] ExtData[1]->MainSpeed = 8* * 0.1
  6: 0x00C6 [0x00] END_REQSTACK()
```

### Event 65535.5

#### Metadata

| Field        | Value    |
|--------------|----------|
| Entrypoint   | 0x00C7   |
| Data Size    | 79 bytes |
| Instructions | 8        |

```
      00 01 02 03 04 05 06 07  08 09 0A 0B 0C 0D 0E 0F
      -- -- -- -- -- -- -- --  -- -- -- -- -- -- -- --
00C0:                      5B  1C 80 F8 FF FF 7F F8 FF         [........
00D0: FF 7F 62 65 64 31 1C 27  80 4A 07 50 0F 01 08 50  ..bed1.'.J.P...P
00E0: 0F 01 45 28 80 F0 FF FF  7F F0 FF FF 7F 62 30 30  ..E(.........b00
00F0: 32 29 80 55 28 80 F0 FF  FF 7F F0 FF FF 7F 62 30  2).U(.........b0
0100: 30 32 53 F8 FF FF 7F F8  FF FF 7F 62 65 64 31 81  02S........bed1.
0110: 01 F8 FF FF 7F 00                                 ......          
```

#### Opcodes

```
  0: 0x00C7 [0x5B] LOAD_EXT_SCHEDULER: Load scheduler "bed1" with entities [EventEntity, EventEntity], work=191*
  1: 0x00D6 [0x1C] WAIT(240* ticks)
  2: 0x00D9 [0x4A] Aldo (ID: 17780743/0x010F5007) looks at Verena (ID: 17780744/0x010F5008)
  3: 0x00E2 [0x45] LOAD_SCHEDULED_TASK: Load scheduler "b002" with entities [LocalPlayer, LocalPlayer], work=[145*, 0*]
  4: 0x00F3 [0x55] WAIT_LOAD_SCHEDULER: Wait for scheduler "b002" with entities [LocalPlayer, LocalPlayer], work=145*
  5: 0x0102 [0x53] WAIT_SCHEDULER_TASK: Wait for scheduler "bed1" with entities [EventEntity, EventEntity]
  6: 0x010F [0x81] SET_ENTITY_BLINKING(blink_flag=0x01, entity=EventEntity)
  7: 0x0115 [0x00] END_REQSTACK()
```

### Event 65535.6

#### Metadata

| Field        | Value    |
|--------------|----------|
| Entrypoint   | 0x0116   |
| Data Size    | 21 bytes |
| Instructions | 5        |

```
      00 01 02 03 04 05 06 07  08 09 0A 0B 0C 0D 0E 0F
      -- -- -- -- -- -- -- --  -- -- -- -- -- -- -- --
0110:                   1F 00  2A 80 2B 80 2C 80 1F 01        ..*.+.,...
0120: 6F 4A 08 50 0F 01 07 50  0F 01 00                 oJ.P...P...     
```

#### Opcodes

```
  0: 0x0116 [0x1F] MOVE_ENTITY: EventEntity moves to X=19.310*, Z=-56.125*, Y=3.869*
  1: 0x011E [0x1F] MOVE_ENTITY: Update entity position (mode=1)
  2: 0x0120 [0x6F] WAIT_FRAME_DELAY: Yield until WaitTime reaches zero
  3: 0x0121 [0x4A] Verena (ID: 17780744/0x010F5008) looks at Aldo (ID: 17780743/0x010F5007)
  4: 0x012A [0x00] END_REQSTACK()
```

### Event 65535.7

#### Metadata

| Field        | Value    |
|--------------|----------|
| Entrypoint   | 0x012B   |
| Data Size    | 34 bytes |
| Instructions | 8        |

```
      00 01 02 03 04 05 06 07  08 09 0A 0B 0C 0D 0E 0F
      -- -- -- -- -- -- -- --  -- -- -- -- -- -- -- --
0120:                                   3B 1B 50 0F 01             ;.P..
0130: 00 00 01 00 02 00 31 00  00 00 01 00 02 00 2D 80  ......1.......-.
0140: 31 01 1C 2E 80 1E 1B 50  0F 01 6F 70 00           1......P..op.   
```

#### Opcodes

```
  0: 0x012B [0x3B] GET_ENTITY_POSITION(entity=Fickblix (ID: 17780763/0x010F501B), x_destination=ExtData[1]->WorkLocal[0], y_destination=ExtData[1]->WorkLocal[1], z_destination=ExtData[1]->WorkLocal[2])
  1: 0x0136 [0x31] UPDATE_ENTITY_POSITION: Set EventEntity goal position to X=ExtData[1]->WorkLocal[0], Z=ExtData[1]->WorkLocal[1], Y=ExtData[1]->WorkLocal[2], Time=30*
  2: 0x0140 [0x31] UPDATE_ENTITY_POSITION: Move EventEntity towards goal position
  3: 0x0142 [0x1C] WAIT(10* ticks)
  4: 0x0145 [0x1E] EventEntity looks at Fickblix (ID: 17780763/0x010F501B) and starts talking
  5: 0x014A [0x6F] WAIT_FRAME_DELAY: Yield until WaitTime reaches zero
  6: 0x014B [0x70] WAIT_ENTITY_RENDER_FLAG: Wait while EventEntity->Render.Flags3 bit 2 is set (cancel turn if not)
  7: 0x014C [0x00] END_REQSTACK()
```

### Event 65535.8

#### Metadata

| Field        | Value    |
|--------------|----------|
| Entrypoint   | 0x014D   |
| Data Size    | 50 bytes |
| Instructions | 11       |

```
      00 01 02 03 04 05 06 07  08 09 0A 0B 0C 0D 0E 0F
      -- -- -- -- -- -- -- --  -- -- -- -- -- -- -- --
0140:                                         1F 00 2F               ../
0150: 80 30 80 0A 80 1F 01 1F  00 31 80 32 80 0A 80 1F  .0.......1.2....
0160: 01 1F 00 33 80 34 80 35  80 1F 01 27 03 65 50 0F  ...3.4.5...'.eP.
0170: 01 07 1F 00 36 80 37 80  35 80 1F 01 22 01 00     ....6.7.5...".. 
```

#### Opcodes

```
  0: 0x014D [0x1F] MOVE_ENTITY: EventEntity moves to X=17.717*, Z=-53.832*, Y=3.899*
  1: 0x0155 [0x1F] MOVE_ENTITY: Update entity position (mode=1)
  2: 0x0157 [0x1F] MOVE_ENTITY: EventEntity moves to X=18.854*, Z=-51.759*, Y=3.899*
  3: 0x015F [0x1F] MOVE_ENTITY: Update entity position (mode=1)
  4: 0x0161 [0x1F] MOVE_ENTITY: EventEntity moves to X=19.344*, Z=-50.053*, Y=3.901*
  5: 0x0169 [0x1F] MOVE_ENTITY: Update entity position (mode=1)
  6: 0x016B [0x27] REQ_SET(priority=0x03, entity_id=Door:Aldo's Room (ID: 17780837/0x010F5065), tag_num=0x07)
  7: 0x0172 [0x1F] MOVE_ENTITY: EventEntity moves to X=27.514*, Z=-54.071*, Y=3.901*
  8: 0x017A [0x1F] MOVE_ENTITY: Update entity position (mode=1)
  9: 0x017C [0x22] ENTITY_HIDE_FLAG(enabled=0x01)
 10: 0x017E [0x00] END_REQSTACK()
```

### Event 65535.9

#### Metadata

| Field        | Value    |
|--------------|----------|
| Entrypoint   | 0x017F   |
| Data Size    | 14 bytes |
| Instructions | 4        |

```
      00 01 02 03 04 05 06 07  08 09 0A 0B 0C 0D 0E 0F
      -- -- -- -- -- -- -- --  -- -- -- -- -- -- -- --
0170:                                               1F                 .
0180: 00 38 80 39 80 2C 80 1F  01 39 3A 80 00           .8.9.,...9:..   
```

#### Opcodes

```
  0: 0x017F [0x1F] MOVE_ENTITY: EventEntity moves to X=19.731*, Z=-55.683*, Y=3.869*
  1: 0x0187 [0x1F] MOVE_ENTITY: Update entity position (mode=1)
  2: 0x0189 [0x39] SET_ENTITY_DIRECTION(direction=2.4°*)
  3: 0x018C [0x00] END_REQSTACK()
```

### Event 65535.10

#### Metadata

| Field        | Value    |
|--------------|----------|
| Entrypoint   | 0x018D   |
| Data Size    | 11 bytes |
| Instructions | 3        |

```
      00 01 02 03 04 05 06 07  08 09 0A 0B 0C 0D 0E 0F
      -- -- -- -- -- -- -- --  -- -- -- -- -- -- -- --
0180:                                         1F 00 3B               ..;
0190: 80 3C 80 13 80 1F 01 00                           .<......        
```

#### Opcodes

```
  0: 0x018D [0x1F] MOVE_ENTITY: EventEntity moves to X=-31.698*, Z=-137.583*, Y=5.499*
  1: 0x0195 [0x1F] MOVE_ENTITY: Update entity position (mode=1)
  2: 0x0197 [0x00] END_REQSTACK()
```

### Event 65535.11

#### Metadata

| Field        | Value    |
|--------------|----------|
| Entrypoint   | 0x0198   |
| Data Size    | 30 bytes |
| Instructions | 6        |

```
      00 01 02 03 04 05 06 07  08 09 0A 0B 0C 0D 0E 0F
      -- -- -- -- -- -- -- --  -- -- -- -- -- -- -- --
0190:                          1F 00 3D 80 3E 80 13 80          ..=.>...
01A0: 1F 01 1F 00 3F 80 40 80  13 80 1F 01 4A 08 50 0F  ....?.@.....J.P.
01B0: 01 19 50 0F 01 00                                 ..P...          
```

#### Opcodes

```
  0: 0x0198 [0x1F] MOVE_ENTITY: EventEntity moves to X=-29.783*, Z=-138.134*, Y=5.499*
  1: 0x01A0 [0x1F] MOVE_ENTITY: Update entity position (mode=1)
  2: 0x01A2 [0x1F] MOVE_ENTITY: EventEntity moves to X=-28.653*, Z=-137.799*, Y=5.499*
  3: 0x01AA [0x1F] MOVE_ENTITY: Update entity position (mode=1)
  4: 0x01AC [0x4A] Verena (ID: 17780744/0x010F5008) looks at Muckvix (ID: 17780761/0x010F5019)
  5: 0x01B5 [0x00] END_REQSTACK()
```

### Event 65535.12

#### Metadata

| Field        | Value    |
|--------------|----------|
| Entrypoint   | 0x01B6   |
| Data Size    | 20 bytes |
| Instructions | 4        |

```
      00 01 02 03 04 05 06 07  08 09 0A 0B 0C 0D 0E 0F
      -- -- -- -- -- -- -- --  -- -- -- -- -- -- -- --
01B0:                   1F 00  41 80 42 80 13 80 1F 01        ..A.B.....
01C0: 4A 08 50 0F 01 19 50 0F  01 00                    J.P...P...      
```

#### Opcodes

```
  0: 0x01B6 [0x1F] MOVE_ENTITY: EventEntity moves to X=-30.600*, Z=-137.852*, Y=5.499*
  1: 0x01BE [0x1F] MOVE_ENTITY: Update entity position (mode=1)
  2: 0x01C0 [0x4A] Verena (ID: 17780744/0x010F5008) looks at Muckvix (ID: 17780761/0x010F5019)
  3: 0x01C9 [0x00] END_REQSTACK()
```

### Event 65535.13

#### Metadata

| Field        | Value    |
|--------------|----------|
| Entrypoint   | 0x01CA   |
| Data Size    | 21 bytes |
| Instructions | 5        |

```
      00 01 02 03 04 05 06 07  08 09 0A 0B 0C 0D 0E 0F
      -- -- -- -- -- -- -- --  -- -- -- -- -- -- -- --
01C0:                                1F 00 43 80 44 80            ..C.D.
01D0: 13 80 1F 01 1F 00 45 80  46 80 13 80 1F 01 00     ......E.F...... 
```

#### Opcodes

```
  0: 0x01CA [0x1F] MOVE_ENTITY: EventEntity moves to X=-30.202*, Z=-137.963*, Y=5.499*
  1: 0x01D2 [0x1F] MOVE_ENTITY: Update entity position (mode=1)
  2: 0x01D4 [0x1F] MOVE_ENTITY: EventEntity moves to X=-34.429*, Z=-136.973*, Y=5.499*
  3: 0x01DC [0x1F] MOVE_ENTITY: Update entity position (mode=1)
  4: 0x01DE [0x00] END_REQSTACK()
```

### Event 65535.14

#### Metadata

| Field        | Value    |
|--------------|----------|
| Entrypoint   | 0x01DF   |
| Data Size    | 20 bytes |
| Instructions | 4        |

```
      00 01 02 03 04 05 06 07  08 09 0A 0B 0C 0D 0E 0F
      -- -- -- -- -- -- -- --  -- -- -- -- -- -- -- --
01D0:                                               1F                 .
01E0: 00 47 80 48 80 13 80 1F  01 4A 08 50 0F 01 19 50  .G.H.....J.P...P
01F0: 0F 01 00                                          ...             
```

#### Opcodes

```
  0: 0x01DF [0x1F] MOVE_ENTITY: EventEntity moves to X=-29.074*, Z=-137.530*, Y=5.499*
  1: 0x01E7 [0x1F] MOVE_ENTITY: Update entity position (mode=1)
  2: 0x01E9 [0x4A] Verena (ID: 17780744/0x010F5008) looks at Muckvix (ID: 17780761/0x010F5019)
  3: 0x01F2 [0x00] END_REQSTACK()
```

### Event 65535.15

#### Metadata

| Field        | Value   |
|--------------|---------|
| Entrypoint   | 0x01F3  |
| Data Size    | 4 bytes |
| Instructions | 2       |

```
      00 01 02 03 04 05 06 07  08 09 0A 0B 0C 0D 0E 0F
      -- -- -- -- -- -- -- --  -- -- -- -- -- -- -- --
01F0:          1C 49 80 00                                 .I..         
```

#### Opcodes

```
  0: 0x01F3 [0x1C] WAIT(60* ticks)
  1: 0x01F6 [0x00] END_REQSTACK()
```

### Event 65535.16

#### Metadata

| Field        | Value    |
|--------------|----------|
| Entrypoint   | 0x01F7   |
| Data Size    | 13 bytes |
| Instructions | 3        |

```
      00 01 02 03 04 05 06 07  08 09 0A 0B 0C 0D 0E 0F
      -- -- -- -- -- -- -- --  -- -- -- -- -- -- -- --
01F0:                      4A  08 50 0F 01 F0 FF FF 7F         J.P......
0200: 1C 49 80 00                                       .I..            
```

#### Opcodes

```
  0: 0x01F7 [0x4A] Verena (ID: 17780744/0x010F5008) looks at LocalPlayer
  1: 0x0200 [0x1C] WAIT(60* ticks)
  2: 0x0203 [0x00] END_REQSTACK()
```

### Event 65535.17

#### Metadata

| Field        | Value    |
|--------------|----------|
| Entrypoint   | 0x0204   |
| Data Size    | 19 bytes |
| Instructions | 3        |

```
      00 01 02 03 04 05 06 07  08 09 0A 0B 0C 0D 0E 0F
      -- -- -- -- -- -- -- --  -- -- -- -- -- -- -- --
0200:             5B 0D 80 F8  FF FF 7F F8 FF FF 7F 74      [..........t
0210: 6C 6B 30 1C 49 80 00                              lk0.I..         
```

#### Opcodes

```
  0: 0x0204 [0x5B] LOAD_EXT_SCHEDULER: Load scheduler "tlk0" with entities [EventEntity, EventEntity], work=190*
  1: 0x0213 [0x1C] WAIT(60* ticks)
  2: 0x0216 [0x00] END_REQSTACK()
```

### Event 65535.18

#### Metadata

| Field        | Value    |
|--------------|----------|
| Entrypoint   | 0x0217   |
| Data Size    | 29 bytes |
| Instructions | 3        |

```
      00 01 02 03 04 05 06 07  08 09 0A 0B 0C 0D 0E 0F
      -- -- -- -- -- -- -- --  -- -- -- -- -- -- -- --
0210:                      5B  0D 80 F8 FF FF 7F F8 FF         [........
0220: FF 7F 74 6C 6B 31 53 F8  FF FF 7F F8 FF FF 7F 74  ..tlk1S........t
0230: 6C 6B 31 00                                       lk1.            
```

#### Opcodes

```
  0: 0x0217 [0x5B] LOAD_EXT_SCHEDULER: Load scheduler "tlk1" with entities [EventEntity, EventEntity], work=190*
  1: 0x0226 [0x53] WAIT_SCHEDULER_TASK: Wait for scheduler "tlk1" with entities [EventEntity, EventEntity]
  2: 0x0233 [0x00] END_REQSTACK()
```

### Event 65535.19

#### Metadata

| Field        | Value    |
|--------------|----------|
| Entrypoint   | 0x0234   |
| Data Size    | 19 bytes |
| Instructions | 3        |

```
      00 01 02 03 04 05 06 07  08 09 0A 0B 0C 0D 0E 0F
      -- -- -- -- -- -- -- --  -- -- -- -- -- -- -- --
0230:             5B 0D 80 F8  FF FF 7F F8 FF FF 7F 74      [..........t
0240: 68 6B 31 1C 49 80 00                              hk1.I..         
```

#### Opcodes

```
  0: 0x0234 [0x5B] LOAD_EXT_SCHEDULER: Load scheduler "thk1" with entities [EventEntity, EventEntity], work=190*
  1: 0x0243 [0x1C] WAIT(60* ticks)
  2: 0x0246 [0x00] END_REQSTACK()
```

### Event 65535.20

#### Metadata

| Field        | Value    |
|--------------|----------|
| Entrypoint   | 0x0247   |
| Data Size    | 29 bytes |
| Instructions | 3        |

```
      00 01 02 03 04 05 06 07  08 09 0A 0B 0C 0D 0E 0F
      -- -- -- -- -- -- -- --  -- -- -- -- -- -- -- --
0240:                      5B  0D 80 F8 FF FF 7F F8 FF         [........
0250: FF 7F 74 68 6B 32 53 F8  FF FF 7F F8 FF FF 7F 74  ..thk2S........t
0260: 68 6B 32 00                                       hk2.            
```

#### Opcodes

```
  0: 0x0247 [0x5B] LOAD_EXT_SCHEDULER: Load scheduler "thk2" with entities [EventEntity, EventEntity], work=190*
  1: 0x0256 [0x53] WAIT_SCHEDULER_TASK: Wait for scheduler "thk2" with entities [EventEntity, EventEntity]
  2: 0x0263 [0x00] END_REQSTACK()
```

### Event 65535.21

#### Metadata

| Field        | Value    |
|--------------|----------|
| Entrypoint   | 0x0264   |
| Data Size    | 19 bytes |
| Instructions | 3        |

```
      00 01 02 03 04 05 06 07  08 09 0A 0B 0C 0D 0E 0F
      -- -- -- -- -- -- -- --  -- -- -- -- -- -- -- --
0260:             5B 0D 80 F8  FF FF 7F F8 FF FF 7F 75      [..........u
0270: 74 73 30 1C 49 80 00                              ts0.I..         
```

#### Opcodes

```
  0: 0x0264 [0x5B] LOAD_EXT_SCHEDULER: Load scheduler "uts0" with entities [EventEntity, EventEntity], work=190*
  1: 0x0273 [0x1C] WAIT(60* ticks)
  2: 0x0276 [0x00] END_REQSTACK()
```

### Event 65535.22

#### Metadata

| Field        | Value    |
|--------------|----------|
| Entrypoint   | 0x0277   |
| Data Size    | 29 bytes |
| Instructions | 3        |

```
      00 01 02 03 04 05 06 07  08 09 0A 0B 0C 0D 0E 0F
      -- -- -- -- -- -- -- --  -- -- -- -- -- -- -- --
0270:                      5B  0D 80 F8 FF FF 7F F8 FF         [........
0280: FF 7F 75 74 73 31 53 F8  FF FF 7F F8 FF FF 7F 75  ..uts1S........u
0290: 74 73 31 00                                       ts1.            
```

#### Opcodes

```
  0: 0x0277 [0x5B] LOAD_EXT_SCHEDULER: Load scheduler "uts1" with entities [EventEntity, EventEntity], work=190*
  1: 0x0286 [0x53] WAIT_SCHEDULER_TASK: Wait for scheduler "uts1" with entities [EventEntity, EventEntity]
  2: 0x0293 [0x00] END_REQSTACK()
```

### Event 65535.23

#### Metadata

| Field        | Value   |
|--------------|---------|
| Entrypoint   | 0x0294  |
| Data Size    | 6 bytes |
| Instructions | 2       |

```
      00 01 02 03 04 05 06 07  08 09 0A 0B 0C 0D 0E 0F
      -- -- -- -- -- -- -- --  -- -- -- -- -- -- -- --
0290:             5E 69 64 6C  30 00                        ^idl0.      
```

#### Opcodes

```
  0: 0x0294 [0x5E] EventEntity goes idle (kills current action) (animation: "idl0")
  1: 0x0299 [0x00] END_REQSTACK()
```

### Event 65535.24

#### Metadata

| Field        | Value   |
|--------------|---------|
| Entrypoint   | 0x029A  |
| Data Size    | 1 bytes |
| Instructions | 1       |

```
      00 01 02 03 04 05 06 07  08 09 0A 0B 0C 0D 0E 0F
      -- -- -- -- -- -- -- --  -- -- -- -- -- -- -- --
0290:                                00                           .     
```

#### Opcodes

```
  0: 0x029A [0x00] END_REQSTACK()
```

### Event 10094

#### Metadata

| Field        | Value   |
|--------------|---------|
| Entrypoint   | 0x029B  |
| Data Size    | 4 bytes |
| Instructions | 2       |

```
      00 01 02 03 04 05 06 07  08 09 0A 0B 0C 0D 0E 0F
      -- -- -- -- -- -- -- --  -- -- -- -- -- -- -- --
0290:                                   C0 4A 80 00                .J.. 
```

#### Opcodes

```
  0: 0x029B [0xC0] EventEntity->Render.Flags3 |= 0x1000 // Set bit 12 (from 1*)
  1: 0x029E [0x00] END_REQSTACK()
```

### Event 65535.25

#### Metadata

| Field        | Value    |
|--------------|----------|
| Entrypoint   | 0x029F   |
| Data Size    | 16 bytes |
| Instructions | 2        |

```
      00 01 02 03 04 05 06 07  08 09 0A 0B 0C 0D 0E 0F
      -- -- -- -- -- -- -- --  -- -- -- -- -- -- -- --
0290:                                               5B                 [
02A0: 4B 80 08 50 0F 01 08 50  0F 01 6F 70 30 30 00     K..P...P..op00. 
```

#### Opcodes

```
  0: 0x029F [0x5B] LOAD_EXT_SCHEDULER: Load scheduler "op00" with entities [Verena (ID: 17780744/0x010F5008), Verena (ID: 17780744/0x010F5008)], work=2609*
  1: 0x02AE [0x00] END_REQSTACK()
```

### Event 65535.26

#### Metadata

| Field        | Value    |
|--------------|----------|
| Entrypoint   | 0x02AF   |
| Data Size    | 16 bytes |
| Instructions | 2        |

```
      00 01 02 03 04 05 06 07  08 09 0A 0B 0C 0D 0E 0F
      -- -- -- -- -- -- -- --  -- -- -- -- -- -- -- --
02A0:                                               5B                 [
02B0: 4B 80 08 50 0F 01 08 50  0F 01 6F 70 30 31 00     K..P...P..op01. 
```

#### Opcodes

```
  0: 0x02AF [0x5B] LOAD_EXT_SCHEDULER: Load scheduler "op01" with entities [Verena (ID: 17780744/0x010F5008), Verena (ID: 17780744/0x010F5008)], work=2609*
  1: 0x02BE [0x00] END_REQSTACK()
```

### Event 65535.27

#### Metadata

| Field        | Value    |
|--------------|----------|
| Entrypoint   | 0x02BF   |
| Data Size    | 16 bytes |
| Instructions | 2        |

```
      00 01 02 03 04 05 06 07  08 09 0A 0B 0C 0D 0E 0F
      -- -- -- -- -- -- -- --  -- -- -- -- -- -- -- --
02B0:                                               5B                 [
02C0: 4B 80 08 50 0F 01 08 50  0F 01 6F 70 30 32 00     K..P...P..op02. 
```

#### Opcodes

```
  0: 0x02BF [0x5B] LOAD_EXT_SCHEDULER: Load scheduler "op02" with entities [Verena (ID: 17780744/0x010F5008), Verena (ID: 17780744/0x010F5008)], work=2609*
  1: 0x02CE [0x00] END_REQSTACK()
```

### Event 65535.28

#### Metadata

| Field        | Value    |
|--------------|----------|
| Entrypoint   | 0x02CF   |
| Data Size    | 16 bytes |
| Instructions | 2        |

```
      00 01 02 03 04 05 06 07  08 09 0A 0B 0C 0D 0E 0F
      -- -- -- -- -- -- -- --  -- -- -- -- -- -- -- --
02C0:                                               5B                 [
02D0: 0D 80 08 50 0F 01 08 50  0F 01 74 6C 6B 30 00     ...P...P..tlk0. 
```

#### Opcodes

```
  0: 0x02CF [0x5B] LOAD_EXT_SCHEDULER: Load scheduler "tlk0" with entities [Verena (ID: 17780744/0x010F5008), Verena (ID: 17780744/0x010F5008)], work=190*
  1: 0x02DE [0x00] END_REQSTACK()
```

### Event 65535.29

#### Metadata

| Field        | Value    |
|--------------|----------|
| Entrypoint   | 0x02DF   |
| Data Size    | 16 bytes |
| Instructions | 2        |

```
      00 01 02 03 04 05 06 07  08 09 0A 0B 0C 0D 0E 0F
      -- -- -- -- -- -- -- --  -- -- -- -- -- -- -- --
02D0:                                               5B                 [
02E0: 0D 80 08 50 0F 01 08 50  0F 01 74 6C 6B 31 00     ...P...P..tlk1. 
```

#### Opcodes

```
  0: 0x02DF [0x5B] LOAD_EXT_SCHEDULER: Load scheduler "tlk1" with entities [Verena (ID: 17780744/0x010F5008), Verena (ID: 17780744/0x010F5008)], work=190*
  1: 0x02EE [0x00] END_REQSTACK()
```

### Event 65535.30

#### Metadata

| Field        | Value    |
|--------------|----------|
| Entrypoint   | 0x02EF   |
| Data Size    | 16 bytes |
| Instructions | 2        |

```
      00 01 02 03 04 05 06 07  08 09 0A 0B 0C 0D 0E 0F
      -- -- -- -- -- -- -- --  -- -- -- -- -- -- -- --
02E0:                                               5B                 [
02F0: 0D 80 08 50 0F 01 08 50  0F 01 74 68 6B 31 00     ...P...P..thk1. 
```

#### Opcodes

```
  0: 0x02EF [0x5B] LOAD_EXT_SCHEDULER: Load scheduler "thk1" with entities [Verena (ID: 17780744/0x010F5008), Verena (ID: 17780744/0x010F5008)], work=190*
  1: 0x02FE [0x00] END_REQSTACK()
```

### Event 65535.31

#### Metadata

| Field        | Value    |
|--------------|----------|
| Entrypoint   | 0x02FF   |
| Data Size    | 16 bytes |
| Instructions | 2        |

```
      00 01 02 03 04 05 06 07  08 09 0A 0B 0C 0D 0E 0F
      -- -- -- -- -- -- -- --  -- -- -- -- -- -- -- --
02F0:                                               5B                 [
0300: 0D 80 08 50 0F 01 08 50  0F 01 74 68 6B 32 00     ...P...P..thk2. 
```

#### Opcodes

```
  0: 0x02FF [0x5B] LOAD_EXT_SCHEDULER: Load scheduler "thk2" with entities [Verena (ID: 17780744/0x010F5008), Verena (ID: 17780744/0x010F5008)], work=190*
  1: 0x030E [0x00] END_REQSTACK()
```
