# 17780813 - Atori-Tutori

## Common Data

| Field            | Value                 |
|------------------|-----------------------|
| Zone             | Lower Jeuno (ID: 245) |
| Block Size       | 396 bytes             |
| Total Events     | 16                    |
| References Count | 22                    |

## List of Events

| Event ID                   | Entrypoint   |   Size |   Instructions |
|----------------------------|--------------|--------|----------------|
| [65535](#event-65535)      | 0x0000       |      1 |              1 |
| [155](#event-155)          | 0x0001       |      1 |              1 |
| [156](#event-156)          | 0x0002       |      1 |              1 |
| [157](#event-157)          | 0x0003       |      1 |              1 |
| [158](#event-158)          | 0x0004       |      1 |              1 |
| [159](#event-159)          | 0x0005       |      1 |              1 |
| [65535.1](#event-655351)   | 0x0006       |     43 |              8 |
| [65535.2](#event-655352)   | 0x0031       |     24 |              6 |
| [65535.3](#event-655353)   | 0x0049       |     14 |              4 |
| [65535.4](#event-655354)   | 0x0057       |     38 |              5 |
| [65535.5](#event-655355)   | 0x007D       |     23 |              5 |
| [65535.6](#event-655356)   | 0x0094       |     34 |              8 |
| [65535.7](#event-655357)   | 0x00B6       |     14 |              4 |
| [65535.8](#event-655358)   | 0x00C4       |     14 |              4 |
| [65535.9](#event-655359)   | 0x00D2       |      8 |              2 |
| [65535.10](#event-6553510) | 0x00DA       |      8 |              2 |

## DAT References (imed_data)

|   Index | Hex Value   |   Dec Value |
|---------|-------------|-------------|
|       0 | 0x0019      |          25 |
|       1 | 0xA410      |       42000 |
|       2 | 0xFFFFADF8  |  4294946296 |
|       3 | 0x0000      |           0 |
|       4 | 0xFFFFB5C8  |  4294948296 |
|       5 | 0xA2AA      |       41642 |
|       6 | 0xFFFFB019  |  4294946841 |
|       7 | 0xFFFFFF9D  |  4294967197 |
|       8 | 0x9EF4      |       40692 |
|       9 | 0xFFFF9F07  |  4294942471 |
|      10 | 0x9858      |       39000 |
|      11 | 0xFFFFBD98  |  4294950296 |
|      12 | 0x0031      |          49 |
|      13 | 0xA21C      |       41500 |
|      14 | 0x9C40      |       40000 |
|      15 | 0x9088      |       37000 |
|      16 | 0xFFFFC180  |  4294951296 |
|      17 | 0x80E8      |       33000 |
|      18 | 0xFFFFC950  |  4294953296 |
|      19 | 0x61A8      |       25000 |
|      20 | 0xFFFFE0C0  |  4294959296 |
|      21 | 0xA7F8      |       43000 |

## Events

### Event 65535

#### Metadata

| Field        | Value   |
|--------------|---------|
| Entrypoint   | 0x0000  |
| Data Size    | 1 bytes |
| Instructions | 1       |

```
      00 01 02 03 04 05 06 07  08 09 0A 0B 0C 0D 0E 0F
      -- -- -- -- -- -- -- --  -- -- -- -- -- -- -- --
0000: 00                                                .               
```

#### Opcodes

```
  0: 0x0000 [0x00] END_REQSTACK()
```

### Event 155

#### Metadata

| Field        | Value   |
|--------------|---------|
| Entrypoint   | 0x0001  |
| Data Size    | 1 bytes |
| Instructions | 1       |

```
      00 01 02 03 04 05 06 07  08 09 0A 0B 0C 0D 0E 0F
      -- -- -- -- -- -- -- --  -- -- -- -- -- -- -- --
0000:    00                                              .              
```

#### Opcodes

```
  0: 0x0001 [0x00] END_REQSTACK()
```

### Event 156

#### Metadata

| Field        | Value   |
|--------------|---------|
| Entrypoint   | 0x0002  |
| Data Size    | 1 bytes |
| Instructions | 1       |

```
      00 01 02 03 04 05 06 07  08 09 0A 0B 0C 0D 0E 0F
      -- -- -- -- -- -- -- --  -- -- -- -- -- -- -- --
0000:       00                                            .             
```

#### Opcodes

```
  0: 0x0002 [0x00] END_REQSTACK()
```

### Event 157

#### Metadata

| Field        | Value   |
|--------------|---------|
| Entrypoint   | 0x0003  |
| Data Size    | 1 bytes |
| Instructions | 1       |

```
      00 01 02 03 04 05 06 07  08 09 0A 0B 0C 0D 0E 0F
      -- -- -- -- -- -- -- --  -- -- -- -- -- -- -- --
0000:          00                                          .            
```

#### Opcodes

```
  0: 0x0003 [0x00] END_REQSTACK()
```

### Event 158

#### Metadata

| Field        | Value   |
|--------------|---------|
| Entrypoint   | 0x0004  |
| Data Size    | 1 bytes |
| Instructions | 1       |

```
      00 01 02 03 04 05 06 07  08 09 0A 0B 0C 0D 0E 0F
      -- -- -- -- -- -- -- --  -- -- -- -- -- -- -- --
0000:             00                                        .           
```

#### Opcodes

```
  0: 0x0004 [0x00] END_REQSTACK()
```

### Event 159

#### Metadata

| Field        | Value   |
|--------------|---------|
| Entrypoint   | 0x0005  |
| Data Size    | 1 bytes |
| Instructions | 1       |

```
      00 01 02 03 04 05 06 07  08 09 0A 0B 0C 0D 0E 0F
      -- -- -- -- -- -- -- --  -- -- -- -- -- -- -- --
0000:                00                                      .          
```

#### Opcodes

```
  0: 0x0005 [0x00] END_REQSTACK()
```

### Event 65535.1

#### Metadata

| Field        | Value    |
|--------------|----------|
| Entrypoint   | 0x0006   |
| Data Size    | 43 bytes |
| Instructions | 8        |

```
      00 01 02 03 04 05 06 07  08 09 0A 0B 0C 0D 0E 0F
      -- -- -- -- -- -- -- --  -- -- -- -- -- -- -- --
0000:                   32 00  80 1F 00 01 80 02 80 03        2.........
0010: 80 1F 01 1F 00 01 80 04  80 03 80 1F 01 4A 4D 50  .............JMP
0020: 0F 01 F0 FF FF 7F 79 00  4D 50 0F 01 F0 FF FF 7F  ......y.MP......
0030: 00                                                .               
```

#### Opcodes

```
  0: 0x0006 [0x32] ExtData[1]->MainSpeed = 25* * 0.1
  1: 0x0009 [0x1F] MOVE_ENTITY: EventEntity moves to X=42.000*, Z=-21.000*, Y=0.000*
  2: 0x0011 [0x1F] MOVE_ENTITY: Update entity position (mode=1)
  3: 0x0013 [0x1F] MOVE_ENTITY: EventEntity moves to X=42.000*, Z=-19.000*, Y=0.000*
  4: 0x001B [0x1F] MOVE_ENTITY: Update entity position (mode=1)
  5: 0x001D [0x4A] Atori-Tutori (ID: 17780813/0x010F504D) looks at LocalPlayer
  6: 0x0026 [0x79] Atori-Tutori (ID: 17780813/0x010F504D) looks at LocalPlayer (Basic look)
  7: 0x0030 [0x00] END_REQSTACK()
```

### Event 65535.2

#### Metadata

| Field        | Value    |
|--------------|----------|
| Entrypoint   | 0x0031   |
| Data Size    | 24 bytes |
| Instructions | 6        |

```
      00 01 02 03 04 05 06 07  08 09 0A 0B 0C 0D 0E 0F
      -- -- -- -- -- -- -- --  -- -- -- -- -- -- -- --
0030:    32 00 80 1F 00 05 80  06 80 07 80 1F 01 1F 00   2..............
0040: 08 80 09 80 07 80 1F 01  00                       .........       
```

#### Opcodes

```
  0: 0x0031 [0x32] ExtData[1]->MainSpeed = 25* * 0.1
  1: 0x0034 [0x1F] MOVE_ENTITY: EventEntity moves to X=41.642*, Z=-20.455*, Y=-0.099*
  2: 0x003C [0x1F] MOVE_ENTITY: Update entity position (mode=1)
  3: 0x003E [0x1F] MOVE_ENTITY: EventEntity moves to X=40.692*, Z=-24.825*, Y=-0.099*
  4: 0x0046 [0x1F] MOVE_ENTITY: Update entity position (mode=1)
  5: 0x0048 [0x00] END_REQSTACK()
```

### Event 65535.3

#### Metadata

| Field        | Value    |
|--------------|----------|
| Entrypoint   | 0x0049   |
| Data Size    | 14 bytes |
| Instructions | 4        |

```
      00 01 02 03 04 05 06 07  08 09 0A 0B 0C 0D 0E 0F
      -- -- -- -- -- -- -- --  -- -- -- -- -- -- -- --
0040:                             32 00 80 1F 00 0A 80           2......
0050: 0B 80 03 80 1F 01 00                              .......         
```

#### Opcodes

```
  0: 0x0049 [0x32] ExtData[1]->MainSpeed = 25* * 0.1
  1: 0x004C [0x1F] MOVE_ENTITY: EventEntity moves to X=39.000*, Z=-17.000*, Y=0.000*
  2: 0x0054 [0x1F] MOVE_ENTITY: Update entity position (mode=1)
  3: 0x0056 [0x00] END_REQSTACK()
```

### Event 65535.4

#### Metadata

| Field        | Value    |
|--------------|----------|
| Entrypoint   | 0x0057   |
| Data Size    | 38 bytes |
| Instructions | 5        |

```
      00 01 02 03 04 05 06 07  08 09 0A 0B 0C 0D 0E 0F
      -- -- -- -- -- -- -- --  -- -- -- -- -- -- -- --
0050:                      4E  00 4D 50 0F 01 36 0A 80         N.MP..6..
0060: 0B 80 03 80 4A 4D 50 0F  01 F0 FF FF 7F 66 0C 80  ....JMP......f..
0070: 4D 50 0F 01 4D 50 0F 01  73 68 61 30 00           MP..MP..sha0.   
```

#### Opcodes

```
  0: 0x0057 [0x4E] SET_ENTITY_HIDE_FLAG: Show Atori-Tutori (ID: 17780813/0x010F504D)
  1: 0x005D [0x36] SET_ENTITY_EVENT_POSITION(pos_x=39.000*, pos_z=-17.000*, pos_y=0.000*)
  2: 0x0064 [0x4A] Atori-Tutori (ID: 17780813/0x010F504D) looks at LocalPlayer
  3: 0x006D [0x66] LOAD_EXT_SCHEDULER_MAIN: Load scheduler "sha0" with entities [Atori-Tutori (ID: 17780813/0x010F504D), Atori-Tutori (ID: 17780813/0x010F504D)], work=49*
  4: 0x007C [0x00] END_REQSTACK()
```

### Event 65535.5

#### Metadata

| Field        | Value    |
|--------------|----------|
| Entrypoint   | 0x007D   |
| Data Size    | 23 bytes |
| Instructions | 5        |

```
      00 01 02 03 04 05 06 07  08 09 0A 0B 0C 0D 0E 0F
      -- -- -- -- -- -- -- --  -- -- -- -- -- -- -- --
0070:                                         32 00 80               2..
0080: 1F 00 0D 80 04 80 03 80  1F 01 4A 4D 50 0F 01 F0  ..........JMP...
0090: FF FF 7F 00                                       ....            
```

#### Opcodes

```
  0: 0x007D [0x32] ExtData[1]->MainSpeed = 25* * 0.1
  1: 0x0080 [0x1F] MOVE_ENTITY: EventEntity moves to X=41.500*, Z=-19.000*, Y=0.000*
  2: 0x0088 [0x1F] MOVE_ENTITY: Update entity position (mode=1)
  3: 0x008A [0x4A] Atori-Tutori (ID: 17780813/0x010F504D) looks at LocalPlayer
  4: 0x0093 [0x00] END_REQSTACK()
```

### Event 65535.6

#### Metadata

| Field        | Value    |
|--------------|----------|
| Entrypoint   | 0x0094   |
| Data Size    | 34 bytes |
| Instructions | 8        |

```
      00 01 02 03 04 05 06 07  08 09 0A 0B 0C 0D 0E 0F
      -- -- -- -- -- -- -- --  -- -- -- -- -- -- -- --
0090:             32 00 80 1F  00 01 80 0B 80 03 80 1F      2...........
00A0: 01 1F 00 0E 80 0B 80 03  80 1F 01 1F 00 0F 80 10  ................
00B0: 80 03 80 1F 01 00                                 ......          
```

#### Opcodes

```
  0: 0x0094 [0x32] ExtData[1]->MainSpeed = 25* * 0.1
  1: 0x0097 [0x1F] MOVE_ENTITY: EventEntity moves to X=42.000*, Z=-17.000*, Y=0.000*
  2: 0x009F [0x1F] MOVE_ENTITY: Update entity position (mode=1)
  3: 0x00A1 [0x1F] MOVE_ENTITY: EventEntity moves to X=40.000*, Z=-17.000*, Y=0.000*
  4: 0x00A9 [0x1F] MOVE_ENTITY: Update entity position (mode=1)
  5: 0x00AB [0x1F] MOVE_ENTITY: EventEntity moves to X=37.000*, Z=-16.000*, Y=0.000*
  6: 0x00B3 [0x1F] MOVE_ENTITY: Update entity position (mode=1)
  7: 0x00B5 [0x00] END_REQSTACK()
```

### Event 65535.7

#### Metadata

| Field        | Value    |
|--------------|----------|
| Entrypoint   | 0x00B6   |
| Data Size    | 14 bytes |
| Instructions | 4        |

```
      00 01 02 03 04 05 06 07  08 09 0A 0B 0C 0D 0E 0F
      -- -- -- -- -- -- -- --  -- -- -- -- -- -- -- --
00B0:                   32 00  80 1F 00 11 80 12 80 03        2.........
00C0: 80 1F 01 00                                       ....            
```

#### Opcodes

```
  0: 0x00B6 [0x32] ExtData[1]->MainSpeed = 25* * 0.1
  1: 0x00B9 [0x1F] MOVE_ENTITY: EventEntity moves to X=33.000*, Z=-14.000*, Y=0.000*
  2: 0x00C1 [0x1F] MOVE_ENTITY: Update entity position (mode=1)
  3: 0x00C3 [0x00] END_REQSTACK()
```

### Event 65535.8

#### Metadata

| Field        | Value    |
|--------------|----------|
| Entrypoint   | 0x00C4   |
| Data Size    | 14 bytes |
| Instructions | 4        |

```
      00 01 02 03 04 05 06 07  08 09 0A 0B 0C 0D 0E 0F
      -- -- -- -- -- -- -- --  -- -- -- -- -- -- -- --
00C0:             32 00 80 1F  00 13 80 14 80 03 80 1F      2...........
00D0: 01 00                                             ..              
```

#### Opcodes

```
  0: 0x00C4 [0x32] ExtData[1]->MainSpeed = 25* * 0.1
  1: 0x00C7 [0x1F] MOVE_ENTITY: EventEntity moves to X=25.000*, Z=-8.000*, Y=0.000*
  2: 0x00CF [0x1F] MOVE_ENTITY: Update entity position (mode=1)
  3: 0x00D1 [0x00] END_REQSTACK()
```

### Event 65535.9

#### Metadata

| Field        | Value   |
|--------------|---------|
| Entrypoint   | 0x00D2  |
| Data Size    | 8 bytes |
| Instructions | 2       |

```
      00 01 02 03 04 05 06 07  08 09 0A 0B 0C 0D 0E 0F
      -- -- -- -- -- -- -- --  -- -- -- -- -- -- -- --
00D0:       36 15 80 04 80 03  80 00                      6.......      
```

#### Opcodes

```
  0: 0x00D2 [0x36] SET_ENTITY_EVENT_POSITION(pos_x=43.000*, pos_z=-19.000*, pos_y=0.000*)
  1: 0x00D9 [0x00] END_REQSTACK()
```

### Event 65535.10

#### Metadata

| Field        | Value   |
|--------------|---------|
| Entrypoint   | 0x00DA  |
| Data Size    | 8 bytes |
| Instructions | 2       |

```
      00 01 02 03 04 05 06 07  08 09 0A 0B 0C 0D 0E 0F
      -- -- -- -- -- -- -- --  -- -- -- -- -- -- -- --
00D0:                                36 0F 80 10 80 03            6.....
00E0: 80 00                                             ..              
```

#### Opcodes

```
  0: 0x00DA [0x36] SET_ENTITY_EVENT_POSITION(pos_x=37.000*, pos_z=-16.000*, pos_y=0.000*)
  1: 0x00E1 [0x00] END_REQSTACK()
```
