# 17780784 - Kikilolo

## Common Data

| Field            | Value                 |
|------------------|-----------------------|
| Zone             | Lower Jeuno (ID: 245) |
| Block Size       | 88 bytes              |
| Total Events     | 2                     |
| References Count | 4                     |

## List of Events

| Event ID              | Entrypoint   |   Size |   Instructions |
|-----------------------|--------------|--------|----------------|
| [65535](#event-65535) | 0x0000       |      1 |              1 |
| [222](#event-222)     | 0x0001       |     44 |             12 |

## DAT References (imed_data)

|   Index | Hex Value   |   Dec Value |
|---------|-------------|-------------|
|       0 | 0x1E63      |        7779 |
|       1 | 0x0028      |          40 |
|       2 | 0x1E64      |        7780 |
|       3 | 0x003C      |          60 |

## String References

- **7779**: I must never-ever tell a soul. No one can know how fat I looked when I bought a size too small...
- **7780**: Huh? No! I didn't mean that! See, I bought something I couldn't wear for my current job! You always have to watch out for that, you know. Ahahaha!

## Events

### Event 65535

#### Metadata

| Field        | Value   |
|--------------|---------|
| Entrypoint   | 0x0000  |
| Data Size    | 1 bytes |
| Instructions | 1       |

```
      00 01 02 03 04 05 06 07  08 09 0A 0B 0C 0D 0E 0F
      -- -- -- -- -- -- -- --  -- -- -- -- -- -- -- --
0000: 00                                                .               
```

#### Opcodes

```
  0: 0x0000 [0x00] END_REQSTACK()
```

### Event 222

#### Metadata

| Field        | Value    |
|--------------|----------|
| Entrypoint   | 0x0001   |
| Data Size    | 44 bytes |
| Instructions | 12       |

```
      00 01 02 03 04 05 06 07  08 09 0A 0B 0C 0D 0E 0F
      -- -- -- -- -- -- -- --  -- -- -- -- -- -- -- --
0000:    1D 00 80 23 1E F0 FF  FF 7F 6F 76 F8 FF FF 7F   ...#.....ov....
0010: 66 01 80 F8 FF FF 7F F8  FF FF 7F 6D 6F 6A 30 1D  f..........moj0.
0020: 02 80 23 5E 69 64 6C 30  1C 03 80 21 00           ..#^idl0...!.   
```

#### Opcodes

```
  0: 0x0001 [0x1D] PRINT_EVENT_MESSAGE(message_id=7779*)
    → "I must never-ever tell a soul. No one can know how fat I looked when I bought a size too small..."
  1: 0x0004 [0x23] WAIT_FOR_DIALOG_INTERACTION
  2: 0x0005 [0x1E] EventEntity looks at LocalPlayer and starts talking
  3: 0x000A [0x6F] WAIT_FRAME_DELAY: Yield until WaitTime reaches zero
  4: 0x000B [0x76] CHECK_ENTITY_RENDER_FLAGS: Wait until EventEntity Render.Flags0 and Render.Flags3 conditions are met
  5: 0x0010 [0x66] LOAD_EXT_SCHEDULER_MAIN: Load scheduler "moj0" with entities [EventEntity, EventEntity], work=40*
  6: 0x001F [0x1D] PRINT_EVENT_MESSAGE(message_id=7780*)
    → "Huh? No! I didn't mean that! See, I bought something I couldn't wear for my current job! You always have to watch out for that, you know. Ahahaha!"
  7: 0x0022 [0x23] WAIT_FOR_DIALOG_INTERACTION
  8: 0x0023 [0x5E] EventEntity goes idle (kills current action) (animation: "idl0")
  9: 0x0028 [0x1C] WAIT(60* ticks)
 10: 0x002B [0x21] END_EVENT
 11: 0x002C [0x00] END_REQSTACK()
```
