# 17780807 - Sniggnix

## Common Data

| Field            | Value                 |
|------------------|-----------------------|
| Zone             | Lower Jeuno (ID: 245) |
| Block Size       | 1948 bytes            |
| Total Events     | 19                    |
| References Count | 61                    |

## List of Events

| Event ID                   | Entrypoint   |   Size |   Instructions |
|----------------------------|--------------|--------|----------------|
| [65535](#event-65535)      | 0x0000       |      1 |              1 |
| [10023](#event-10023)      | 0x0001       |     15 |              8 |
| [10024](#event-10024)      | 0x0010       |     96 |             26 |
| [65535.1](#event-655351)   | 0x0070       |      9 |              5 |
| [65535.2](#event-655352)   | 0x0079       |      5 |              3 |
| [10025](#event-10025)      | 0x007E       |     15 |              8 |
| [10026](#event-10026)      | 0x008D       |   1302 |            152 |
| [65535.3](#event-655353)   | 0x05A3       |      9 |              5 |
| [65535.4](#event-655354)   | 0x05AC       |      5 |              3 |
| [10027](#event-10027)      | 0x05B1       |     19 |             10 |
| [99](#event-99)            | 0x05C4       |      1 |              1 |
| [100](#event-100)          | 0x05C5       |      1 |              1 |
| [65535.5](#event-655355)   | 0x05C6       |     10 |              2 |
| [65535.6](#event-655356)   | 0x05D0       |     15 |              5 |
| [65535.7](#event-655357)   | 0x05DF       |     35 |              9 |
| [65535.8](#event-655358)   | 0x0602       |     10 |              2 |
| [65535.9](#event-655359)   | 0x060C       |     10 |              2 |
| [65535.10](#event-6553510) | 0x0616       |     43 |              9 |
| [65535.11](#event-6553511) | 0x0641       |     10 |              2 |

## DAT References (imed_data)

|   Index | Hex Value   |   Dec Value |
|---------|-------------|-------------|
|       0 | 0x1F1C      |        7964 |
|       1 | 0x1F1F      |        7967 |
|       2 | 0x0000      |           0 |
|       3 | 0x0001      |           1 |
|       4 | 0x1F20      |        7968 |
|       5 | 0x1F21      |        7969 |
|       6 | 0x1F24      |        7972 |
|       7 | 0x0002      |           2 |
|       8 | 0x1F23      |        7971 |
|       9 | 0x1F1D      |        7965 |
|      10 | 0x1F1E      |        7966 |
|      11 | 0x1F22      |        7970 |
|      12 | 0x0064      |         100 |
|      13 | 0x00C8      |         200 |
|      14 | 0x007F      |         127 |
|      15 | 0x0003      |           3 |
|      16 | 0x000F      |          15 |
|      17 | 0x003C      |          60 |
|      18 | 0x0078      |         120 |
|      19 | 0x0050      |          80 |
|      20 | 0x0008      |           8 |
|      21 | 0x00AA      |         170 |
|      22 | 0x1F30      |        7984 |
|      23 | 0x1F32      |        7986 |
|      24 | 0x0028      |          40 |
|      25 | 0x1F34      |        7988 |
|      26 | 0x09CA      |        2506 |
|      27 | 0x1F38      |        7992 |
|      28 | 0x0096      |         150 |
|      29 | 0x006E      |         110 |
|      30 | 0x1F25      |        7973 |
|      31 | 0x1F26      |        7974 |
|      32 | 0x1F27      |        7975 |
|      33 | 0x1F39      |        7993 |
|      34 | 0x1F3A      |        7994 |
|      35 | 0xFFFF53C9  |  4294923209 |
|      36 | 0xFFFDED6E  |  4294831470 |
|      37 | 0x157A      |        5498 |
|      38 | 0x007C      |         124 |
|      39 | 0x000D      |          13 |
|      40 | 0xFFFF613B  |  4294926651 |
|      41 | 0xFFFDE954  |  4294830420 |
|      42 | 0x157B      |        5499 |
|      43 | 0xFFFF6B7A  |  4294929274 |
|      44 | 0xFFFDEAAB  |  4294830763 |
|      45 | 0xFFFF73B0  |  4294931376 |
|      46 | 0xFFFDED28  |  4294831400 |
|      47 | 0xFFFF7924  |  4294932772 |
|      48 | 0xFFFDE9F0  |  4294830576 |
|      49 | 0xFFFF8FFA  |  4294938618 |
|      50 | 0xFFFDE615  |  4294829589 |
|      51 | 0x0F33      |        3891 |
|      52 | 0xFFFF8CBB  |  4294937787 |
|      53 | 0xFFFDE568  |  4294829416 |
|      54 | 0xFFFF88C4  |  4294936772 |
|      55 | 0xFFFDE45B  |  4294829147 |
|      56 | 0xFFFF7DEA  |  4294933994 |
|      57 | 0xFFFDE71E  |  4294829854 |
|      58 | 0xFFFF8E5A  |  4294938202 |
|      59 | 0xFFFDE349  |  4294828873 |
|      60 | 0x0086      |         134 |

## String References

- **7964**: Hey, we don't trust you people none, but we can always smell a profit!
- **7965**: Hey, daredevil... You lookin' for Pauluart? He comes here lots.
- **7966**: Let's roll some dice. Loser gets to see Pauluart and get killed.
- **7967**: Roll the dice? [Let's do it./Just a minute.]
- **7968**: You roll the die and get a $2!
- **7969**: Sniggnix rolls the die and gets a $3!
- **7970**: Here's your chance. Go to Dangruf Wadi and find Dangruf brothers. They have $1.
- **7971**: Uh-oh.
- **7972**: That ain't good.
- **7973**: You got $1. If you have that die, you win against Pauluart.
- **7974**: If you lose, say, "Smaller number wins."
- **7975**: Wait outside. I go get Pauluart and come back.
- **7984**: You roll the die and get a $2!
- **7986**: Pauluart rolls the die and gets 789!
- **7988**: Yell out? [The smaller number wins!]
- **7993**: You rolled lower number, right? This die, also called "Sinner's Die." When you roll that die, they tell the weight of your sins.
- **7994**: Pauluart's sins, far greater than yours. He has no right to judge your guilt.

## Events

### Event 65535

#### Metadata

| Field        | Value   |
|--------------|---------|
| Entrypoint   | 0x0000  |
| Data Size    | 1 bytes |
| Instructions | 1       |

```
      00 01 02 03 04 05 06 07  08 09 0A 0B 0C 0D 0E 0F
      -- -- -- -- -- -- -- --  -- -- -- -- -- -- -- --
0000: 00                                                .               
```

#### Opcodes

```
  0: 0x0000 [0x00] END_REQSTACK()
```

### Event 10023

#### Metadata

| Field        | Value    |
|--------------|----------|
| Entrypoint   | 0x0001   |
| Data Size    | 15 bytes |
| Instructions | 8        |

```
      00 01 02 03 04 05 06 07  08 09 0A 0B 0C 0D 0E 0F
      -- -- -- -- -- -- -- --  -- -- -- -- -- -- -- --
0000:    1E F0 FF FF 7F 6F 70  1D 00 80 23 20 00 21 00   .....op...# .!.
```

#### Opcodes

```
  0: 0x0001 [0x1E] EventEntity looks at LocalPlayer and starts talking
  1: 0x0006 [0x6F] WAIT_FRAME_DELAY: Yield until WaitTime reaches zero
  2: 0x0007 [0x70] WAIT_ENTITY_RENDER_FLAG: Wait while EventEntity->Render.Flags3 bit 2 is set (cancel turn if not)
  3: 0x0008 [0x1D] PRINT_EVENT_MESSAGE(message_id=7964*)
    → "Hey, we don't trust you people none, but we can always smell a profit!"
  4: 0x000B [0x23] WAIT_FOR_DIALOG_INTERACTION
  5: 0x000C [0x20] SET_CLI_EVENT_UC_FLAG: Unlock player control
  6: 0x000E [0x21] END_EVENT
  7: 0x000F [0x00] END_REQSTACK()
```

### Event 10024

#### Metadata

| Field        | Value    |
|--------------|----------|
| Entrypoint   | 0x0010   |
| Data Size    | 96 bytes |
| Instructions | 26       |

```
      00 01 02 03 04 05 06 07  08 09 0A 0B 0C 0D 0E 0F
      -- -- -- -- -- -- -- --  -- -- -- -- -- -- -- --
0010: 42 1E F0 FF FF 7F 6F 70  29 0B 47 50 0F 01 03 24  B.....op).GP...$
0020: 01 80 02 80 02 80 25 02  00 10 02 80 00 58 00 03  ......%......X..
0030: 01 10 03 80 48 04 80 48  05 80 02 04 10 05 10 02  ....H..H........
0040: 4C 00 29 0B 47 50 0F 01  04 01 55 00 1D 06 80 23  L.).GP....U....#
0050: 03 01 10 07 80 01 6C 00  02 00 10 03 80 00 6C 00  ......l.......l.
0060: 03 01 10 07 80 1D 08 80  23 01 6C 00 20 00 21 00  ........#.l. .!.
```

#### Opcodes

```
  0: 0x0010 [0x42] SET_CLI_EVENT_CANCEL_DATA()
  1: 0x0011 [0x1E] EventEntity looks at LocalPlayer and starts talking
  2: 0x0016 [0x6F] WAIT_FRAME_DELAY: Yield until WaitTime reaches zero
  3: 0x0017 [0x70] WAIT_ENTITY_RENDER_FLAG: Wait while EventEntity->Render.Flags3 bit 2 is set (cancel turn if not)
  4: 0x0018 [0x29] REQ_SET_WAIT(priority=0x0B, entity_id=Sniggnix (ID: 17780807/0x010F5047), tag_num=0x03)
  5: 0x001F [0x24] CREATE_DIALOG(message_id=7967*, default_option=0*, option_flags=0*)
    → "Roll the dice? [Let's do it./Just a minute.]"
  6: 0x0026 [0x25] WAIT_DIALOG_SELECT()
  7: 0x0027 [0x02] IF !(Work_Zone[0] == 0*) GOTO 0x0058
  8: 0x002F [0x03] Work_Zone[1] = 1*
  9: 0x0034 [0x48] [System] [7968*]:
    → "You roll the die and get a $2!"
 10: 0x0037 [0x48] [System] [7969*]:
    → "Sniggnix rolls the die and gets a $3!"
 11: 0x003A [0x02] IF !(Work_Zone[4] <= Work_Zone[5]) GOTO 0x004C
 12: 0x0042 [0x29] REQ_SET_WAIT(priority=0x0B, entity_id=Sniggnix (ID: 17780807/0x010F5047), tag_num=0x04)
 13: 0x0049 [0x01] GOTO 0x0055
 14: 0x004C [0x1D] PRINT_EVENT_MESSAGE(message_id=7972*)
    → "That ain't good."
 15: 0x004F [0x23] WAIT_FOR_DIALOG_INTERACTION
 16: 0x0050 [0x03] Work_Zone[1] = 2*

SUBROUTINE_0055:
 17: 0x0055 [0x01] GOTO 0x006C
 18: 0x0058 [0x02] IF !(Work_Zone[0] == 1*) GOTO 0x006C
 19: 0x0060 [0x03] Work_Zone[1] = 2*
 20: 0x0065 [0x1D] PRINT_EVENT_MESSAGE(message_id=7971*)
    → "Uh-oh."
 21: 0x0068 [0x23] WAIT_FOR_DIALOG_INTERACTION
 22: 0x0069 [0x01] GOTO 0x006C

SUBROUTINE_006C:
 23: 0x006C [0x20] SET_CLI_EVENT_UC_FLAG: Unlock player control
 24: 0x006E [0x21] END_EVENT
 25: 0x006F [0x00] END_REQSTACK()
```

### Event 65535.1

#### Metadata

| Field        | Value   |
|--------------|---------|
| Entrypoint   | 0x0070  |
| Data Size    | 9 bytes |
| Instructions | 5       |

```
      00 01 02 03 04 05 06 07  08 09 0A 0B 0C 0D 0E 0F
      -- -- -- -- -- -- -- --  -- -- -- -- -- -- -- --
0070: 1D 09 80 23 1D 0A 80 23  00                       ...#...#.       
```

#### Opcodes

```
  0: 0x0070 [0x1D] PRINT_EVENT_MESSAGE(message_id=7965*)
    → "Hey, daredevil... You lookin' for Pauluart? He comes here lots."
  1: 0x0073 [0x23] WAIT_FOR_DIALOG_INTERACTION
  2: 0x0074 [0x1D] PRINT_EVENT_MESSAGE(message_id=7966*)
    → "Let's roll some dice. Loser gets to see Pauluart and get killed."
  3: 0x0077 [0x23] WAIT_FOR_DIALOG_INTERACTION
  4: 0x0078 [0x00] END_REQSTACK()
```

### Event 65535.2

#### Metadata

| Field        | Value   |
|--------------|---------|
| Entrypoint   | 0x0079  |
| Data Size    | 5 bytes |
| Instructions | 3       |

```
      00 01 02 03 04 05 06 07  08 09 0A 0B 0C 0D 0E 0F
      -- -- -- -- -- -- -- --  -- -- -- -- -- -- -- --
0070:                             1D 0B 80 23 00                 ...#.  
```

#### Opcodes

```
  0: 0x0079 [0x1D] PRINT_EVENT_MESSAGE(message_id=7970*)
    → "Here's your chance. Go to Dangruf Wadi and find Dangruf brothers. They have $1."
  1: 0x007C [0x23] WAIT_FOR_DIALOG_INTERACTION
  2: 0x007D [0x00] END_REQSTACK()
```

### Event 10025

#### Metadata

| Field        | Value    |
|--------------|----------|
| Entrypoint   | 0x007E   |
| Data Size    | 15 bytes |
| Instructions | 8        |

```
      00 01 02 03 04 05 06 07  08 09 0A 0B 0C 0D 0E 0F
      -- -- -- -- -- -- -- --  -- -- -- -- -- -- -- --
0070:                                            1E F0                ..
0080: FF FF 7F 6F 70 1D 0B 80  23 20 00 21 00           ...op...# .!.   
```

#### Opcodes

```
  0: 0x007E [0x1E] EventEntity looks at LocalPlayer and starts talking
  1: 0x0083 [0x6F] WAIT_FRAME_DELAY: Yield until WaitTime reaches zero
  2: 0x0084 [0x70] WAIT_ENTITY_RENDER_FLAG: Wait while EventEntity->Render.Flags3 bit 2 is set (cancel turn if not)
  3: 0x0085 [0x1D] PRINT_EVENT_MESSAGE(message_id=7970*)
    → "Here's your chance. Go to Dangruf Wadi and find Dangruf brothers. They have $1."
  4: 0x0088 [0x23] WAIT_FOR_DIALOG_INTERACTION
  5: 0x0089 [0x20] SET_CLI_EVENT_UC_FLAG: Unlock player control
  6: 0x008B [0x21] END_EVENT
  7: 0x008C [0x00] END_REQSTACK()
```

### Event 10026

#### Metadata

| Field        | Value      |
|--------------|------------|
| Entrypoint   | 0x008D     |
| Data Size    | 1302 bytes |
| Instructions | 152        |

```
      00 01 02 03 04 05 06 07  08 09 0A 0B 0C 0D 0E 0F
      -- -- -- -- -- -- -- --  -- -- -- -- -- -- -- --
0080:                                         42 46 01               BF.
0090: 5D 02 80 0C 80 45 0D 80  F8 FF FF 7F F8 FF FF 7F  ]....E..........
00A0: 66 64 6F 31 02 80 1C 0C  80 5C 00 0E 80 5C 01 0E  fdo1.....\...\..
00B0: 80 5D 0E 80 03 80 29 0B  F0 FF FF 7F 30 29 0B F0  .]....).....0)..
00C0: FF FF 7F 31 38 0F 80 29  0B F0 FF FF 7F 35 1E F0  ...18..).....5..
00D0: FF FF 7F 6F 70 45 10 80  F0 FF FF 7F F0 FF FF 7F  ...opE..........
00E0: 73 30 35 33 02 80 45 0D  80 F8 FF FF 7F F8 FF FF  s053..E.........
00F0: 7F 66 64 69 31 02 80 29  0B 47 50 0F 01 07 29 0B  .fdi1..).GP...).
0100: 47 50 0F 01 08 45 0D 80  F8 FF FF 7F F8 FF FF 7F  GP...E..........
0110: 66 64 6F 31 02 80 1C 11  80 4E 00 48 50 0F 01 80  fdo1.....N.HP...
0120: 48 50 0F 01 29 0B F0 FF  FF 7F 34 29 0B 48 50 0F  HP..).....4).HP.
0130: 01 16 29 08 48 50 0F 01  03 29 08 48 50 0F 01 04  ..).HP...).HP...
0140: 45 10 80 F0 FF FF 7F F0  FF FF 7F 73 30 35 36 02  E..........s056.
0150: 80 45 0D 80 F8 FF FF 7F  F8 FF FF 7F 66 64 69 31  .E..........fdi1
0160: 02 80 55 10 80 F0 FF FF  7F F0 FF FF 7F 73 30 35  ..U..........s05
0170: 36 4A F0 FF FF 7F 48 50  0F 01 29 0B 48 50 0F 01  6J....HP..).HP..
0180: 18 45 10 80 F0 FF FF 7F  F0 FF FF 7F 73 30 35 34  .E..........s054
0190: 02 80 29 0B 48 50 0F 01  19 45 0D 80 F8 FF FF 7F  ..).HP...E......
01A0: F8 FF FF 7F 66 64 6F 31  02 80 1C 12 80 52 10 80  ....fdo1.....R..
01B0: F0 FF FF 7F F0 FF FF 7F  73 30 35 34 29 0B 48 50  ........s054).HP
01C0: 0F 01 15 4A F0 FF FF 7F  48 50 0F 01 6F 76 F0 FF  ...J....HP..ov..
01D0: FF 7F 45 10 80 F0 FF FF  7F F0 FF FF 7F 73 30 35  ..E..........s05
01E0: 35 02 80 45 0D 80 F8 FF  FF 7F F8 FF FF 7F 66 64  5..E..........fd
01F0: 69 31 02 80 1C 13 80 29  0B 48 50 0F 01 1A 52 10  i1.....).HP...R.
0200: 80 F0 FF FF 7F F0 FF FF  7F 73 30 35 35 45 0D 80  .........s055E..
0210: F0 FF FF 7F F0 FF FF 7F  6F 76 6C 31 02 80 45 10  ........ovl1..E.
0220: 80 F0 FF FF 7F F0 FF FF  7F 73 30 35 38 02 80 79  .........s058..y
0230: 00 48 50 0F 01 F0 FF FF  7F 29 0B 48 50 0F 01 1B  .HP......).HP...
0240: 02 08 10 14 80 00 5C 02  45 10 80 F0 FF FF 7F F0  ......\.E.......
0250: FF FF 7F 73 31 36 34 02  80 01 6D 02 45 10 80 F0  ...s164...m.E...
0260: FF FF 7F F0 FF FF 7F 73  30 35 37 02 80 4A 48 50  .......s057..JHP
0270: 0F 01 F0 FF FF 7F 6F 76  48 50 0F 01 5D 02 80 0D  ......ovHP..]...
0280: 80 29 0B 48 50 0F 01 1C  29 0B 48 50 0F 01 1D 45  .).HP...).HP...E
0290: 10 80 F0 FF FF 7F F0 FF  FF 7F 73 30 35 39 02 80  ..........s059..
02A0: 5C 00 15 80 5C 01 15 80  5D 0E 80 03 80 29 0B 48  \...\...]....).H
02B0: 50 0F 01 1E 45 0D 80 F0  FF FF 7F F0 FF FF 7F 6F  P...E..........o
02C0: 76 6C 31 02 80 52 10 80  F0 FF FF 7F F0 FF FF 7F  vl1..R..........
02D0: 73 30 35 39 45 10 80 F0  FF FF 7F F0 FF FF 7F 73  s059E..........s
02E0: 30 36 32 02 80 29 0B 48  50 0F 01 1F 52 10 80 F0  062..).HP...R...
02F0: FF FF 7F F0 FF FF 7F 73  30 36 32 45 0D 80 F8 FF  .......s062E....
0300: FF 7F F8 FF FF 7F 66 64  6F 31 02 80 1C 11 80 29  ......fdo1.....)
0310: 08 48 50 0F 01 0B 29 08  48 50 0F 01 0C 48 16 80  .HP...).HP...H..
0320: 1C 12 80 45 0D 80 F8 FF  FF 7F F8 FF FF 7F 66 64  ...E..........fd
0330: 69 31 02 80 45 10 80 F0  FF FF 7F F0 FF FF 7F 73  i1..E..........s
0340: 30 36 31 02 80 29 0B 48  50 0F 01 20 45 0D 80 F8  061..).HP.. E...
0350: FF FF 7F F8 FF FF 7F 66  64 6F 31 02 80 1C 11 80  .......fdo1.....
0360: 48 17 80 1C 12 80 45 0D  80 F8 FF FF 7F F8 FF FF  H.....E.........
0370: 7F 66 64 69 31 02 80 45  10 80 F0 FF FF 7F F0 FF  .fdi1..E........
0380: FF 7F 73 31 36 35 02 80  4E 00 49 50 0F 01 29 0B  ..s165..N.IP..).
0390: 48 50 0F 01 21 80 49 50  0F 01 45 0D 80 F8 FF FF  HP..!.IP..E.....
03A0: 7F F8 FF FF 7F 66 64 6F  31 02 80 1C 11 80 4E 01  .....fdo1.....N.
03B0: 48 50 0F 01 29 0B 49 50  0F 01 08 4A F0 FF FF 7F  HP..).IP...J....
03C0: 49 50 0F 01 4A 49 50 0F  01 F0 FF FF 7F 52 10 80  IP..JIP......R..
03D0: F0 FF FF 7F F0 FF FF 7F  73 31 36 35 45 0D 80 F0  ........s165E...
03E0: FF FF 7F F0 FF FF 7F 62  6C 6F 6E 02 80 45 10 80  .......blon..E..
03F0: F0 FF FF 7F F0 FF FF 7F  73 30 36 30 02 80 45 0D  ........s060..E.
0400: 80 F8 FF FF 7F F8 FF FF  7F 66 64 69 31 02 80 29  .........fdi1..)
0410: 0B 49 50 0F 01 01 1C 18  80 45 0D 80 F8 FF FF 7F  .IP......E......
0420: F8 FF FF 7F 66 64 6F 31  02 80 1C 11 80 45 0D 80  ....fdo1.....E..
0430: F0 FF FF 7F F0 FF FF 7F  62 6C 6F 66 02 80 4E 00  ........blof..N.
0440: 48 50 0F 01 4E 01 49 50  0F 01 52 10 80 F0 FF FF  HP..N.IP..R.....
0450: 7F F0 FF FF 7F 73 30 36  30 24 19 80 02 80 02 80  .....s060$......
0460: 25 02 00 10 02 80 00 51  05 03 01 10 03 80 5D 02  %......Q......].
0470: 80 0C 80 1C 0C 80 5C 00  0E 80 5C 01 0E 80 5D 0E  ......\...\...].
0480: 80 0C 80 29 08 48 50 0F  01 07 4A F0 FF FF 7F 48  ...).HP...J....H
0490: 50 0F 01 1C 0C 80 45 10  80 F0 FF FF 7F F0 FF FF  P.....E.........
04A0: 7F 73 30 36 33 02 80 45  0D 80 F8 FF FF 7F F8 FF  .s063..E........
04B0: FF 7F 66 64 69 31 02 80  29 0B 48 50 0F 01 22 29  ..fdi1..).HP..")
04C0: 08 48 50 0F 01 08 52 10  80 F0 FF FF 7F F0 FF FF  .HP...R.........
04D0: 7F 73 30 36 33 45 10 80  F0 FF FF 7F F0 FF FF 7F  .s063E..........
04E0: 73 30 35 38 02 80 4B 48  50 0F 01 1A 80 6F 76 48  s058..KHP....ovH
04F0: 50 0F 01 29 0B 48 50 0F  01 23 7B 48 50 0F 01 29  P..).HP..#{HP..)
0500: 0B 48 50 0F 01 24 45 0D  80 F8 FF FF 7F F8 FF FF  .HP..$E.........
0510: 7F 66 64 6F 31 02 80 1C  11 80 45 10 80 F0 FF FF  .fdo1.....E.....
0520: 7F F0 FF FF 7F 73 30 36  34 02 80 27 0B 48 50 0F  .....s064..'.HP.
0530: 01 17 45 0D 80 F8 FF FF  7F F8 FF FF 7F 66 64 69  ..E..........fdi
0540: 31 02 80 2B 48 50 0F 01  1B 80 23 1C 1C 80 01 51  1..+HP....#....Q
0550: 05 5D 02 80 0D 80 45 0D  80 F8 FF FF 7F F8 FF FF  .]....E.........
0560: 7F 66 64 6F 31 02 80 1C  0D 80 5C 00 1D 80 5C 01  .fdo1.....\...\.
0570: 1D 80 5D 0E 80 03 80 52  10 80 F0 FF FF 7F F0 FF  ..]....R........
0580: FF 7F 73 30 36 34 2A 0B  48 50 0F 01 46 00 45 0D  ..s064*.HP..F.E.
0590: 80 F8 FF FF 7F F8 FF FF  7F 66 64 69 31 02 80 20  .........fdi1.. 
05A0: 00 21 00                                          .!.             
```

#### Opcodes

```
  0: 0x008D [0x42] SET_CLI_EVENT_CANCEL_DATA()
  1: 0x008E [0x46] CAMERA_CONTROL: Disable user control
  2: 0x0090 [0x5D] SET_MUSIC_VOLUME(volume=0*, fade_time=100*)
  3: 0x0095 [0x45] LOAD_SCHEDULED_TASK: Load scheduler "fdo1" with entities [EventEntity, EventEntity], work=[200*, 0*]
  4: 0x00A6 [0x1C] WAIT(100* ticks)
  5: 0x00A9 [0x5C] MUSIC_CONTROL: Set Idle (Day) music to song 127*
  6: 0x00AD [0x5C] MUSIC_CONTROL: Set Idle (Night) music to song 127*
  7: 0x00B1 [0x5D] SET_MUSIC_VOLUME(volume=127*, fade_time=1*)
  8: 0x00B6 [0x29] REQ_SET_WAIT(priority=0x0B, entity_id=LocalPlayer, tag_num=0x30)
  9: 0x00BD [0x29] REQ_SET_WAIT(priority=0x0B, entity_id=LocalPlayer, tag_num=0x31)
 10: 0x00C4 [0x38] SET_CLIENT_EVENT_MODE(mode=3*)
 11: 0x00C7 [0x29] REQ_SET_WAIT(priority=0x0B, entity_id=LocalPlayer, tag_num=0x35)
 12: 0x00CE [0x1E] EventEntity looks at LocalPlayer and starts talking
 13: 0x00D3 [0x6F] WAIT_FRAME_DELAY: Yield until WaitTime reaches zero
 14: 0x00D4 [0x70] WAIT_ENTITY_RENDER_FLAG: Wait while EventEntity->Render.Flags3 bit 2 is set (cancel turn if not)
 15: 0x00D5 [0x45] LOAD_SCHEDULED_TASK: Load scheduler "s053" with entities [LocalPlayer, LocalPlayer], work=[15*, 0*]
 16: 0x00E6 [0x45] LOAD_SCHEDULED_TASK: Load scheduler "fdi1" with entities [EventEntity, EventEntity], work=[200*, 0*]
 17: 0x00F7 [0x29] REQ_SET_WAIT(priority=0x0B, entity_id=Sniggnix (ID: 17780807/0x010F5047), tag_num=0x07)
 18: 0x00FE [0x29] REQ_SET_WAIT(priority=0x0B, entity_id=Sniggnix (ID: 17780807/0x010F5047), tag_num=0x08)
 19: 0x0105 [0x45] LOAD_SCHEDULED_TASK: Load scheduler "fdo1" with entities [EventEntity, EventEntity], work=[200*, 0*]
 20: 0x0116 [0x1C] WAIT(60* ticks)
 21: 0x0119 [0x4E] SET_ENTITY_HIDE_FLAG: Show Pauluart (ID: 17780808/0x010F5048)
 22: 0x011F [0x80] LOAD_WAIT(entity=Pauluart (ID: 17780808/0x010F5048))
 23: 0x0124 [0x29] REQ_SET_WAIT(priority=0x0B, entity_id=LocalPlayer, tag_num=0x34)
 24: 0x012B [0x29] REQ_SET_WAIT(priority=0x0B, entity_id=Pauluart (ID: 17780808/0x010F5048), tag_num=0x16)
 25: 0x0132 [0x29] REQ_SET_WAIT(priority=0x08, entity_id=Pauluart (ID: 17780808/0x010F5048), tag_num=0x03)
 26: 0x0139 [0x29] REQ_SET_WAIT(priority=0x08, entity_id=Pauluart (ID: 17780808/0x010F5048), tag_num=0x04)
 27: 0x0140 [0x45] LOAD_SCHEDULED_TASK: Load scheduler "s056" with entities [LocalPlayer, LocalPlayer], work=[15*, 0*]
 28: 0x0151 [0x45] LOAD_SCHEDULED_TASK: Load scheduler "fdi1" with entities [EventEntity, EventEntity], work=[200*, 0*]
 29: 0x0162 [0x55] WAIT_LOAD_SCHEDULER: Wait for scheduler "s056" with entities [LocalPlayer, LocalPlayer], work=15*
 30: 0x0171 [0x4A] LocalPlayer looks at Pauluart (ID: 17780808/0x010F5048)
 31: 0x017A [0x29] REQ_SET_WAIT(priority=0x0B, entity_id=Pauluart (ID: 17780808/0x010F5048), tag_num=0x18)
 32: 0x0181 [0x45] LOAD_SCHEDULED_TASK: Load scheduler "s054" with entities [LocalPlayer, LocalPlayer], work=[15*, 0*]
 33: 0x0192 [0x29] REQ_SET_WAIT(priority=0x0B, entity_id=Pauluart (ID: 17780808/0x010F5048), tag_num=0x19)
 34: 0x0199 [0x45] LOAD_SCHEDULED_TASK: Load scheduler "fdo1" with entities [EventEntity, EventEntity], work=[200*, 0*]
 35: 0x01AA [0x1C] WAIT(120* ticks)
 36: 0x01AD [0x52] END_LOAD_SCHEDULER: End scheduler "s054" with entities [LocalPlayer, LocalPlayer], work=15*
 37: 0x01BC [0x29] REQ_SET_WAIT(priority=0x0B, entity_id=Pauluart (ID: 17780808/0x010F5048), tag_num=0x15)
 38: 0x01C3 [0x4A] LocalPlayer looks at Pauluart (ID: 17780808/0x010F5048)
 39: 0x01CC [0x6F] WAIT_FRAME_DELAY: Yield until WaitTime reaches zero
 40: 0x01CD [0x76] CHECK_ENTITY_RENDER_FLAGS: Wait until LocalPlayer Render.Flags0 and Render.Flags3 conditions are met
 41: 0x01D2 [0x45] LOAD_SCHEDULED_TASK: Load scheduler "s055" with entities [LocalPlayer, LocalPlayer], work=[15*, 0*]
 42: 0x01E3 [0x45] LOAD_SCHEDULED_TASK: Load scheduler "fdi1" with entities [EventEntity, EventEntity], work=[200*, 0*]
 43: 0x01F4 [0x1C] WAIT(80* ticks)
 44: 0x01F7 [0x29] REQ_SET_WAIT(priority=0x0B, entity_id=Pauluart (ID: 17780808/0x010F5048), tag_num=0x1A)
 45: 0x01FE [0x52] END_LOAD_SCHEDULER: End scheduler "s055" with entities [LocalPlayer, LocalPlayer], work=15*
 46: 0x020D [0x45] LOAD_SCHEDULED_TASK: Load scheduler "ovl1" with entities [LocalPlayer, LocalPlayer], work=[200*, 0*]
 47: 0x021E [0x45] LOAD_SCHEDULED_TASK: Load scheduler "s058" with entities [LocalPlayer, LocalPlayer], work=[15*, 0*]
 48: 0x022F [0x79] Pauluart (ID: 17780808/0x010F5048) looks at LocalPlayer (Basic look)
 49: 0x0239 [0x29] REQ_SET_WAIT(priority=0x0B, entity_id=Pauluart (ID: 17780808/0x010F5048), tag_num=0x1B)
 50: 0x0240 [0x02] IF !(Work_Zone[8] == 8*) GOTO 0x025C
 51: 0x0248 [0x45] LOAD_SCHEDULED_TASK: Load scheduler "s164" with entities [LocalPlayer, LocalPlayer], work=[15*, 0*]
 52: 0x0259 [0x01] GOTO 0x026D
 53: 0x025C [0x45] LOAD_SCHEDULED_TASK: Load scheduler "s057" with entities [LocalPlayer, LocalPlayer], work=[15*, 0*]

SUBROUTINE_026D:
 54: 0x026D [0x4A] Pauluart (ID: 17780808/0x010F5048) looks at LocalPlayer
 55: 0x0276 [0x6F] WAIT_FRAME_DELAY: Yield until WaitTime reaches zero
 56: 0x0277 [0x76] CHECK_ENTITY_RENDER_FLAGS: Wait until Pauluart (ID: 17780808/0x010F5048) Render.Flags0 and Render.Flags3 conditions are met
 57: 0x027C [0x5D] SET_MUSIC_VOLUME(volume=0*, fade_time=200*)
 58: 0x0281 [0x29] REQ_SET_WAIT(priority=0x0B, entity_id=Pauluart (ID: 17780808/0x010F5048), tag_num=0x1C)
 59: 0x0288 [0x29] REQ_SET_WAIT(priority=0x0B, entity_id=Pauluart (ID: 17780808/0x010F5048), tag_num=0x1D)
 60: 0x028F [0x45] LOAD_SCHEDULED_TASK: Load scheduler "s059" with entities [LocalPlayer, LocalPlayer], work=[15*, 0*]
 61: 0x02A0 [0x5C] MUSIC_CONTROL: Set Idle (Day) music to song 170*
 62: 0x02A4 [0x5C] MUSIC_CONTROL: Set Idle (Night) music to song 170*
 63: 0x02A8 [0x5D] SET_MUSIC_VOLUME(volume=127*, fade_time=1*)
 64: 0x02AD [0x29] REQ_SET_WAIT(priority=0x0B, entity_id=Pauluart (ID: 17780808/0x010F5048), tag_num=0x1E)
 65: 0x02B4 [0x45] LOAD_SCHEDULED_TASK: Load scheduler "ovl1" with entities [LocalPlayer, LocalPlayer], work=[200*, 0*]
 66: 0x02C5 [0x52] END_LOAD_SCHEDULER: End scheduler "s059" with entities [LocalPlayer, LocalPlayer], work=15*
 67: 0x02D4 [0x45] LOAD_SCHEDULED_TASK: Load scheduler "s062" with entities [LocalPlayer, LocalPlayer], work=[15*, 0*]
 68: 0x02E5 [0x29] REQ_SET_WAIT(priority=0x0B, entity_id=Pauluart (ID: 17780808/0x010F5048), tag_num=0x1F)
 69: 0x02EC [0x52] END_LOAD_SCHEDULER: End scheduler "s062" with entities [LocalPlayer, LocalPlayer], work=15*
 70: 0x02FB [0x45] LOAD_SCHEDULED_TASK: Load scheduler "fdo1" with entities [EventEntity, EventEntity], work=[200*, 0*]
 71: 0x030C [0x1C] WAIT(60* ticks)
 72: 0x030F [0x29] REQ_SET_WAIT(priority=0x08, entity_id=Pauluart (ID: 17780808/0x010F5048), tag_num=0x0B)
 73: 0x0316 [0x29] REQ_SET_WAIT(priority=0x08, entity_id=Pauluart (ID: 17780808/0x010F5048), tag_num=0x0C)
 74: 0x031D [0x48] [System] [7984*]:
    → "You roll the die and get a $2!"
 75: 0x0320 [0x1C] WAIT(120* ticks)
 76: 0x0323 [0x45] LOAD_SCHEDULED_TASK: Load scheduler "fdi1" with entities [EventEntity, EventEntity], work=[200*, 0*]
 77: 0x0334 [0x45] LOAD_SCHEDULED_TASK: Load scheduler "s061" with entities [LocalPlayer, LocalPlayer], work=[15*, 0*]
 78: 0x0345 [0x29] REQ_SET_WAIT(priority=0x0B, entity_id=Pauluart (ID: 17780808/0x010F5048), tag_num=0x20)
 79: 0x034C [0x45] LOAD_SCHEDULED_TASK: Load scheduler "fdo1" with entities [EventEntity, EventEntity], work=[200*, 0*]
 80: 0x035D [0x1C] WAIT(60* ticks)
 81: 0x0360 [0x48] [System] [7986*]:
    → "Pauluart rolls the die and gets 789!"
 82: 0x0363 [0x1C] WAIT(120* ticks)
 83: 0x0366 [0x45] LOAD_SCHEDULED_TASK: Load scheduler "fdi1" with entities [EventEntity, EventEntity], work=[200*, 0*]
 84: 0x0377 [0x45] LOAD_SCHEDULED_TASK: Load scheduler "s165" with entities [LocalPlayer, LocalPlayer], work=[15*, 0*]
 85: 0x0388 [0x4E] SET_ENTITY_HIDE_FLAG: Show Pauluart (ID: 17780809/0x010F5049)
 86: 0x038E [0x29] REQ_SET_WAIT(priority=0x0B, entity_id=Pauluart (ID: 17780808/0x010F5048), tag_num=0x21)
 87: 0x0395 [0x80] LOAD_WAIT(entity=Pauluart (ID: 17780809/0x010F5049))
 88: 0x039A [0x45] LOAD_SCHEDULED_TASK: Load scheduler "fdo1" with entities [EventEntity, EventEntity], work=[200*, 0*]
 89: 0x03AB [0x1C] WAIT(60* ticks)
 90: 0x03AE [0x4E] SET_ENTITY_HIDE_FLAG: Hide Pauluart (ID: 17780808/0x010F5048)
 91: 0x03B4 [0x29] REQ_SET_WAIT(priority=0x0B, entity_id=Pauluart (ID: 17780809/0x010F5049), tag_num=0x08)
 92: 0x03BB [0x4A] LocalPlayer looks at Pauluart (ID: 17780809/0x010F5049)
 93: 0x03C4 [0x4A] Pauluart (ID: 17780809/0x010F5049) looks at LocalPlayer
 94: 0x03CD [0x52] END_LOAD_SCHEDULER: End scheduler "s165" with entities [LocalPlayer, LocalPlayer], work=15*
 95: 0x03DC [0x45] LOAD_SCHEDULED_TASK: Load scheduler "blon" with entities [LocalPlayer, LocalPlayer], work=[200*, 0*]
 96: 0x03ED [0x45] LOAD_SCHEDULED_TASK: Load scheduler "s060" with entities [LocalPlayer, LocalPlayer], work=[15*, 0*]
 97: 0x03FE [0x45] LOAD_SCHEDULED_TASK: Load scheduler "fdi1" with entities [EventEntity, EventEntity], work=[200*, 0*]
 98: 0x040F [0x29] REQ_SET_WAIT(priority=0x0B, entity_id=Pauluart (ID: 17780809/0x010F5049), tag_num=0x01)
 99: 0x0416 [0x1C] WAIT(40* ticks)
100: 0x0419 [0x45] LOAD_SCHEDULED_TASK: Load scheduler "fdo1" with entities [EventEntity, EventEntity], work=[200*, 0*]
101: 0x042A [0x1C] WAIT(60* ticks)
102: 0x042D [0x45] LOAD_SCHEDULED_TASK: Load scheduler "blof" with entities [LocalPlayer, LocalPlayer], work=[200*, 0*]
103: 0x043E [0x4E] SET_ENTITY_HIDE_FLAG: Show Pauluart (ID: 17780808/0x010F5048)
104: 0x0444 [0x4E] SET_ENTITY_HIDE_FLAG: Hide Pauluart (ID: 17780809/0x010F5049)
105: 0x044A [0x52] END_LOAD_SCHEDULER: End scheduler "s060" with entities [LocalPlayer, LocalPlayer], work=15*
106: 0x0459 [0x24] CREATE_DIALOG(message_id=7988*, default_option=0*, option_flags=0*)
    → "Yell out? [The smaller number wins!]"
107: 0x0460 [0x25] WAIT_DIALOG_SELECT()
108: 0x0461 [0x02] IF !(Work_Zone[0] == 0*) GOTO 0x0551
109: 0x0469 [0x03] Work_Zone[1] = 1*
110: 0x046E [0x5D] SET_MUSIC_VOLUME(volume=0*, fade_time=100*)
111: 0x0473 [0x1C] WAIT(100* ticks)
112: 0x0476 [0x5C] MUSIC_CONTROL: Set Idle (Day) music to song 127*
113: 0x047A [0x5C] MUSIC_CONTROL: Set Idle (Night) music to song 127*
114: 0x047E [0x5D] SET_MUSIC_VOLUME(volume=127*, fade_time=100*)
115: 0x0483 [0x29] REQ_SET_WAIT(priority=0x08, entity_id=Pauluart (ID: 17780808/0x010F5048), tag_num=0x07)
116: 0x048A [0x4A] LocalPlayer looks at Pauluart (ID: 17780808/0x010F5048)
117: 0x0493 [0x1C] WAIT(100* ticks)
118: 0x0496 [0x45] LOAD_SCHEDULED_TASK: Load scheduler "s063" with entities [LocalPlayer, LocalPlayer], work=[15*, 0*]
119: 0x04A7 [0x45] LOAD_SCHEDULED_TASK: Load scheduler "fdi1" with entities [EventEntity, EventEntity], work=[200*, 0*]
120: 0x04B8 [0x29] REQ_SET_WAIT(priority=0x0B, entity_id=Pauluart (ID: 17780808/0x010F5048), tag_num=0x22)
121: 0x04BF [0x29] REQ_SET_WAIT(priority=0x08, entity_id=Pauluart (ID: 17780808/0x010F5048), tag_num=0x08)
122: 0x04C6 [0x52] END_LOAD_SCHEDULER: End scheduler "s063" with entities [LocalPlayer, LocalPlayer], work=15*
123: 0x04D5 [0x45] LOAD_SCHEDULED_TASK: Load scheduler "s058" with entities [LocalPlayer, LocalPlayer], work=[15*, 0*]
124: 0x04E6 [0x4B] UPDATE_ENTITY_YAW(entity=Pauluart (ID: 17780808/0x010F5048), yaw=13.8°*)
125: 0x04ED [0x6F] WAIT_FRAME_DELAY: Yield until WaitTime reaches zero
126: 0x04EE [0x76] CHECK_ENTITY_RENDER_FLAGS: Wait until Pauluart (ID: 17780808/0x010F5048) Render.Flags0 and Render.Flags3 conditions are met
127: 0x04F3 [0x29] REQ_SET_WAIT(priority=0x0B, entity_id=Pauluart (ID: 17780808/0x010F5048), tag_num=0x23)
128: 0x04FA [0x7B] Pauluart (ID: 17780808/0x010F5048) stops talking
129: 0x04FF [0x29] REQ_SET_WAIT(priority=0x0B, entity_id=Pauluart (ID: 17780808/0x010F5048), tag_num=0x24)
130: 0x0506 [0x45] LOAD_SCHEDULED_TASK: Load scheduler "fdo1" with entities [EventEntity, EventEntity], work=[200*, 0*]
131: 0x0517 [0x1C] WAIT(60* ticks)
132: 0x051A [0x45] LOAD_SCHEDULED_TASK: Load scheduler "s064" with entities [LocalPlayer, LocalPlayer], work=[15*, 0*]
133: 0x052B [0x27] REQ_SET(priority=0x0B, entity_id=Pauluart (ID: 17780808/0x010F5048), tag_num=0x17)
134: 0x0532 [0x45] LOAD_SCHEDULED_TASK: Load scheduler "fdi1" with entities [EventEntity, EventEntity], work=[200*, 0*]
135: 0x0543 [0x2B] Pauluart (ID: 17780808/0x010F5048) [7992*]:
    → "Please send my friends my regards. And to your friends also."
136: 0x054A [0x23] WAIT_FOR_DIALOG_INTERACTION
137: 0x054B [0x1C] WAIT(150* ticks)
138: 0x054E [0x01] GOTO 0x0551

SUBROUTINE_0551:
139: 0x0551 [0x5D] SET_MUSIC_VOLUME(volume=0*, fade_time=200*)
140: 0x0556 [0x45] LOAD_SCHEDULED_TASK: Load scheduler "fdo1" with entities [EventEntity, EventEntity], work=[200*, 0*]
141: 0x0567 [0x1C] WAIT(200* ticks)
142: 0x056A [0x5C] MUSIC_CONTROL: Set Idle (Day) music to song 110*
143: 0x056E [0x5C] MUSIC_CONTROL: Set Idle (Night) music to song 110*
144: 0x0572 [0x5D] SET_MUSIC_VOLUME(volume=127*, fade_time=1*)
145: 0x0577 [0x52] END_LOAD_SCHEDULER: End scheduler "s064" with entities [LocalPlayer, LocalPlayer], work=15*
146: 0x0586 [0x2A] GET_REQ_LEVEL(level=11, entity_id=Pauluart (ID: 17780808/0x010F5048))
147: 0x058C [0x46] CAMERA_CONTROL: Restore default settings
148: 0x058E [0x45] LOAD_SCHEDULED_TASK: Load scheduler "fdi1" with entities [EventEntity, EventEntity], work=[200*, 0*]
149: 0x059F [0x20] SET_CLI_EVENT_UC_FLAG: Unlock player control
150: 0x05A1 [0x21] END_EVENT
151: 0x05A2 [0x00] END_REQSTACK()
```

### Event 65535.3

#### Metadata

| Field        | Value   |
|--------------|---------|
| Entrypoint   | 0x05A3  |
| Data Size    | 9 bytes |
| Instructions | 5       |

```
      00 01 02 03 04 05 06 07  08 09 0A 0B 0C 0D 0E 0F
      -- -- -- -- -- -- -- --  -- -- -- -- -- -- -- --
05A0:          1D 1E 80 23 1D  1F 80 23 00                 ...#...#.    
```

#### Opcodes

```
  0: 0x05A3 [0x1D] PRINT_EVENT_MESSAGE(message_id=7973*)
    → "You got $1. If you have that die, you win against Pauluart."
  1: 0x05A6 [0x23] WAIT_FOR_DIALOG_INTERACTION
  2: 0x05A7 [0x1D] PRINT_EVENT_MESSAGE(message_id=7974*)
    → "If you lose, say, "Smaller number wins.""
  3: 0x05AA [0x23] WAIT_FOR_DIALOG_INTERACTION
  4: 0x05AB [0x00] END_REQSTACK()
```

### Event 65535.4

#### Metadata

| Field        | Value   |
|--------------|---------|
| Entrypoint   | 0x05AC  |
| Data Size    | 5 bytes |
| Instructions | 3       |

```
      00 01 02 03 04 05 06 07  08 09 0A 0B 0C 0D 0E 0F
      -- -- -- -- -- -- -- --  -- -- -- -- -- -- -- --
05A0:                                      1D 20 80 23              . .#
05B0: 00                                                .               
```

#### Opcodes

```
  0: 0x05AC [0x1D] PRINT_EVENT_MESSAGE(message_id=7975*)
    → "Wait outside. I go get Pauluart and come back."
  1: 0x05AF [0x23] WAIT_FOR_DIALOG_INTERACTION
  2: 0x05B0 [0x00] END_REQSTACK()
```

### Event 10027

#### Metadata

| Field        | Value    |
|--------------|----------|
| Entrypoint   | 0x05B1   |
| Data Size    | 19 bytes |
| Instructions | 10       |

```
      00 01 02 03 04 05 06 07  08 09 0A 0B 0C 0D 0E 0F
      -- -- -- -- -- -- -- --  -- -- -- -- -- -- -- --
05B0:    1E F0 FF FF 7F 6F 70  1D 21 80 23 1D 22 80 23   .....op.!.#.".#
05C0: 20 00 21 00                                        .!.            
```

#### Opcodes

```
  0: 0x05B1 [0x1E] EventEntity looks at LocalPlayer and starts talking
  1: 0x05B6 [0x6F] WAIT_FRAME_DELAY: Yield until WaitTime reaches zero
  2: 0x05B7 [0x70] WAIT_ENTITY_RENDER_FLAG: Wait while EventEntity->Render.Flags3 bit 2 is set (cancel turn if not)
  3: 0x05B8 [0x1D] PRINT_EVENT_MESSAGE(message_id=7993*)
    → "You rolled lower number, right? This die, also called "Sinner's Die." When you roll that die, they tell the weight of your sins."
  4: 0x05BB [0x23] WAIT_FOR_DIALOG_INTERACTION
  5: 0x05BC [0x1D] PRINT_EVENT_MESSAGE(message_id=7994*)
    → "Pauluart's sins, far greater than yours. He has no right to judge your guilt."
  6: 0x05BF [0x23] WAIT_FOR_DIALOG_INTERACTION
  7: 0x05C0 [0x20] SET_CLI_EVENT_UC_FLAG: Unlock player control
  8: 0x05C2 [0x21] END_EVENT
  9: 0x05C3 [0x00] END_REQSTACK()
```

### Event 99

#### Metadata

| Field        | Value   |
|--------------|---------|
| Entrypoint   | 0x05C4  |
| Data Size    | 1 bytes |
| Instructions | 1       |

```
      00 01 02 03 04 05 06 07  08 09 0A 0B 0C 0D 0E 0F
      -- -- -- -- -- -- -- --  -- -- -- -- -- -- -- --
05C0:             00                                        .           
```

#### Opcodes

```
  0: 0x05C4 [0x00] END_REQSTACK()
```

### Event 100

#### Metadata

| Field        | Value   |
|--------------|---------|
| Entrypoint   | 0x05C5  |
| Data Size    | 1 bytes |
| Instructions | 1       |

```
      00 01 02 03 04 05 06 07  08 09 0A 0B 0C 0D 0E 0F
      -- -- -- -- -- -- -- --  -- -- -- -- -- -- -- --
05C0:                00                                      .          
```

#### Opcodes

```
  0: 0x05C5 [0x00] END_REQSTACK()
```

### Event 65535.5

#### Metadata

| Field        | Value    |
|--------------|----------|
| Entrypoint   | 0x05C6   |
| Data Size    | 10 bytes |
| Instructions | 2        |

```
      00 01 02 03 04 05 06 07  08 09 0A 0B 0C 0D 0E 0F
      -- -- -- -- -- -- -- --  -- -- -- -- -- -- -- --
05C0:                   37 23  80 24 80 25 80 26 80 00        7#.$.%.&..
```

#### Opcodes

```
  0: 0x05C6 [0x37] UPDATE_EVENT_POSITION_AND_DIR: x=-44.087*, z=-135.826*, y=5.498*, direction=10.9°*
  1: 0x05CF [0x00] END_REQSTACK()
```

### Event 65535.6

#### Metadata

| Field        | Value    |
|--------------|----------|
| Entrypoint   | 0x05D0   |
| Data Size    | 15 bytes |
| Instructions | 5        |

```
      00 01 02 03 04 05 06 07  08 09 0A 0B 0C 0D 0E 0F
      -- -- -- -- -- -- -- --  -- -- -- -- -- -- -- --
05D0: 32 27 80 1F 00 28 80 29  80 2A 80 1F 01 6F 00     2'...(.).*...o. 
```

#### Opcodes

```
  0: 0x05D0 [0x32] ExtData[1]->MainSpeed = 13* * 0.1
  1: 0x05D3 [0x1F] MOVE_ENTITY: EventEntity moves to X=-40.645*, Z=-136.876*, Y=5.499*
  2: 0x05DB [0x1F] MOVE_ENTITY: Update entity position (mode=1)
  3: 0x05DD [0x6F] WAIT_FRAME_DELAY: Yield until WaitTime reaches zero
  4: 0x05DE [0x00] END_REQSTACK()
```

### Event 65535.7

#### Metadata

| Field        | Value    |
|--------------|----------|
| Entrypoint   | 0x05DF   |
| Data Size    | 35 bytes |
| Instructions | 9        |

```
      00 01 02 03 04 05 06 07  08 09 0A 0B 0C 0D 0E 0F
      -- -- -- -- -- -- -- --  -- -- -- -- -- -- -- --
05D0:                                               32                 2
05E0: 27 80 1F 00 2B 80 2C 80  2A 80 1F 01 1F 00 2D 80  '...+.,.*.....-.
05F0: 2E 80 2A 80 1F 01 1F 00  2F 80 30 80 2A 80 1F 01  ..*...../.0.*...
0600: 6F 00                                             o.              
```

#### Opcodes

```
  0: 0x05DF [0x32] ExtData[1]->MainSpeed = 13* * 0.1
  1: 0x05E2 [0x1F] MOVE_ENTITY: EventEntity moves to X=-38.022*, Z=-136.533*, Y=5.499*
  2: 0x05EA [0x1F] MOVE_ENTITY: Update entity position (mode=1)
  3: 0x05EC [0x1F] MOVE_ENTITY: EventEntity moves to X=-35.920*, Z=-135.896*, Y=5.499*
  4: 0x05F4 [0x1F] MOVE_ENTITY: Update entity position (mode=1)
  5: 0x05F6 [0x1F] MOVE_ENTITY: EventEntity moves to X=-34.524*, Z=-136.720*, Y=5.499*
  6: 0x05FE [0x1F] MOVE_ENTITY: Update entity position (mode=1)
  7: 0x0600 [0x6F] WAIT_FRAME_DELAY: Yield until WaitTime reaches zero
  8: 0x0601 [0x00] END_REQSTACK()
```

### Event 65535.8

#### Metadata

| Field        | Value    |
|--------------|----------|
| Entrypoint   | 0x0602   |
| Data Size    | 10 bytes |
| Instructions | 2        |

```
      00 01 02 03 04 05 06 07  08 09 0A 0B 0C 0D 0E 0F
      -- -- -- -- -- -- -- --  -- -- -- -- -- -- -- --
0600:       37 31 80 32 80 2A  80 33 80 00                71.2.*.3..    
```

#### Opcodes

```
  0: 0x0602 [0x37] UPDATE_EVENT_POSITION_AND_DIR: x=-28.678*, z=-137.707*, y=5.499*, direction=342.0°*
  1: 0x060B [0x00] END_REQSTACK()
```

### Event 65535.9

#### Metadata

| Field        | Value    |
|--------------|----------|
| Entrypoint   | 0x060C   |
| Data Size    | 10 bytes |
| Instructions | 2        |

```
      00 01 02 03 04 05 06 07  08 09 0A 0B 0C 0D 0E 0F
      -- -- -- -- -- -- -- --  -- -- -- -- -- -- -- --
0600:                                      37 34 80 35              74.5
0610: 80 2A 80 33 80 00                                 .*.3..          
```

#### Opcodes

```
  0: 0x060C [0x37] UPDATE_EVENT_POSITION_AND_DIR: x=-29.509*, z=-137.880*, y=5.499*, direction=342.0°*
  1: 0x0615 [0x00] END_REQSTACK()
```

### Event 65535.10

#### Metadata

| Field        | Value    |
|--------------|----------|
| Entrypoint   | 0x0616   |
| Data Size    | 43 bytes |
| Instructions | 9        |

```
      00 01 02 03 04 05 06 07  08 09 0A 0B 0C 0D 0E 0F
      -- -- -- -- -- -- -- --  -- -- -- -- -- -- -- --
0610:                   32 27  80 1F 00 36 80 37 80 2A        2'...6.7.*
0620: 80 1F 01 1F 00 38 80 39  80 2A 80 1F 01 6F 6C F8  .....8.9.*...ol.
0630: FF FF 7F 02 80 03 80 37  23 80 24 80 25 80 26 80  .......7#.$.%.&.
0640: 00                                                .               
```

#### Opcodes

```
  0: 0x0616 [0x32] ExtData[1]->MainSpeed = 13* * 0.1
  1: 0x0619 [0x1F] MOVE_ENTITY: EventEntity moves to X=-30.524*, Z=-138.149*, Y=5.499*
  2: 0x0621 [0x1F] MOVE_ENTITY: Update entity position (mode=1)
  3: 0x0623 [0x1F] MOVE_ENTITY: EventEntity moves to X=-33.302*, Z=-137.442*, Y=5.499*
  4: 0x062B [0x1F] MOVE_ENTITY: Update entity position (mode=1)
  5: 0x062D [0x6F] WAIT_FRAME_DELAY: Yield until WaitTime reaches zero
  6: 0x062E [0x6C] FADE_ENTITY_COLOR(entity_id=EventEntity, end_alpha=0*, fade_time=1*)
  7: 0x0637 [0x37] UPDATE_EVENT_POSITION_AND_DIR: x=-44.087*, z=-135.826*, y=5.498*, direction=10.9°*
  8: 0x0640 [0x00] END_REQSTACK()
```

### Event 65535.11

#### Metadata

| Field        | Value    |
|--------------|----------|
| Entrypoint   | 0x0641   |
| Data Size    | 10 bytes |
| Instructions | 2        |

```
      00 01 02 03 04 05 06 07  08 09 0A 0B 0C 0D 0E 0F
      -- -- -- -- -- -- -- --  -- -- -- -- -- -- -- --
0640:    37 3A 80 3B 80 2A 80  3C 80 00                  7:.;.*.<..     
```

#### Opcodes

```
  0: 0x0641 [0x37] UPDATE_EVENT_POSITION_AND_DIR: x=-29.094*, z=-138.423*, y=5.499*, direction=11.8°*
  1: 0x064A [0x00] END_REQSTACK()
```
