# 17780933 - NPC01

## Common Data

| Field            | Value                 |
|------------------|-----------------------|
| Zone             | Lower Jeuno (ID: 245) |
| Block Size       | 460 bytes             |
| Total Events     | 17                    |
| References Count | 22                    |

## List of Events

| Event ID                   | Entrypoint   |   Size |   Instructions |
|----------------------------|--------------|--------|----------------|
| [65535](#event-65535)      | 0x0000       |      1 |              1 |
| [10094](#event-10094)      | 0x0001       |      4 |              2 |
| [65535.1](#event-655351)   | 0x0005       |     29 |              4 |
| [65535.2](#event-655352)   | 0x0022       |     16 |              2 |
| [65535.3](#event-655353)   | 0x0032       |     16 |              2 |
| [65535.4](#event-655354)   | 0x0042       |     16 |              2 |
| [65535.5](#event-655355)   | 0x0052       |     16 |              2 |
| [65535.6](#event-655356)   | 0x0062       |     29 |              4 |
| [65535.7](#event-655357)   | 0x007F       |     16 |              2 |
| [65535.8](#event-655358)   | 0x008F       |     16 |              2 |
| [65535.9](#event-655359)   | 0x009F       |     15 |              5 |
| [65535.10](#event-6553510) | 0x00AE       |     12 |              4 |
| [65535.11](#event-6553511) | 0x00BA       |     15 |              3 |
| [65535.12](#event-6553512) | 0x00C9       |     29 |              4 |
| [65535.13](#event-6553513) | 0x00E6       |     16 |              2 |
| [65535.14](#event-6553514) | 0x00F6       |     16 |              2 |
| [65535.15](#event-6553515) | 0x0106       |     25 |              6 |

## DAT References (imed_data)

|   Index | Hex Value   |   Dec Value |
|---------|-------------|-------------|
|       0 | 0x0001      |           1 |
|       1 | 0x0040      |          64 |
|       2 | 0x0073      |         115 |
|       3 | 0x0A1E      |        2590 |
|       4 | 0x0047      |          71 |
|       5 | 0x0096      |         150 |
|       6 | 0x000D      |          13 |
|       7 | 0x139A8     |       80296 |
|       8 | 0x0084      |         132 |
|       9 | 0xFFFFB3B5  |  4294947765 |
|      10 | 0x12E4D     |       77389 |
|      11 | 0x01DF      |         479 |
|      12 | 0xFA7E      |       64126 |
|      13 | 0x2828      |       10280 |
|      14 | 0xFFFFC951  |  4294953297 |
|      15 | 0x0E25      |        3621 |
|      16 | 0x00F9      |         249 |
|      17 | 0x0175      |         373 |
|      18 | 0x0028      |          40 |
|      19 | 0xFFFFFE9A  |  4294966938 |
|      20 | 0x14AE      |        5294 |
|      21 | 0xFFFF4868  |  4294920296 |

## Events

### Event 65535

#### Metadata

| Field        | Value   |
|--------------|---------|
| Entrypoint   | 0x0000  |
| Data Size    | 1 bytes |
| Instructions | 1       |

```
      00 01 02 03 04 05 06 07  08 09 0A 0B 0C 0D 0E 0F
      -- -- -- -- -- -- -- --  -- -- -- -- -- -- -- --
0000: 00                                                .               
```

#### Opcodes

```
  0: 0x0000 [0x00] END_REQSTACK()
```

### Event 10094

#### Metadata

| Field        | Value   |
|--------------|---------|
| Entrypoint   | 0x0001  |
| Data Size    | 4 bytes |
| Instructions | 2       |

```
      00 01 02 03 04 05 06 07  08 09 0A 0B 0C 0D 0E 0F
      -- -- -- -- -- -- -- --  -- -- -- -- -- -- -- --
0000:    C0 00 80 00                                     ....           
```

#### Opcodes

```
  0: 0x0001 [0xC0] EventEntity->Render.Flags3 |= 0x1000 // Set bit 12 (from 1*)
  1: 0x0004 [0x00] END_REQSTACK()
```

### Event 65535.1

#### Metadata

| Field        | Value    |
|--------------|----------|
| Entrypoint   | 0x0005   |
| Data Size    | 29 bytes |
| Instructions | 4        |

```
      00 01 02 03 04 05 06 07  08 09 0A 0B 0C 0D 0E 0F
      -- -- -- -- -- -- -- --  -- -- -- -- -- -- -- --
0000:                B6 00 01  80 B4 00 00 00 54 72 69       ........Tri
0010: 6F 6E 00 00 00 00 00 00  00 00 00 00 00 B5 00 00  on..............
0020: 00 00                                             ..              
```

#### Opcodes

```
  0: 0x0005 [0xB6] ENTITY_APPEARANCE_HANDLER(case=Hair style, value=64*)
  1: 0x0009 [0xB4] UI_WINDOW_STRING_HANDLER(case=0x00 - Copy string from opcode, work_offset=ExtData[1]->WorkLocal[0], string="Trion")
  2: 0x001D [0xB5] SET_EVENT_ENTITY_NAME: Change EventEntity name to ExtData[1]->WorkLocal[0]
  3: 0x0021 [0x00] END_REQSTACK()
```

### Event 65535.2

#### Metadata

| Field        | Value    |
|--------------|----------|
| Entrypoint   | 0x0022   |
| Data Size    | 16 bytes |
| Instructions | 2        |

```
      00 01 02 03 04 05 06 07  08 09 0A 0B 0C 0D 0E 0F
      -- -- -- -- -- -- -- --  -- -- -- -- -- -- -- --
0020:       5B 02 80 F8 FF FF  7F F8 FF FF 7F 61 72 61    [..........ara
0030: 30 00                                             0.              
```

#### Opcodes

```
  0: 0x0022 [0x5B] LOAD_EXT_SCHEDULER: Load scheduler "ara0" with entities [EventEntity, EventEntity], work=115*
  1: 0x0031 [0x00] END_REQSTACK()
```

### Event 65535.3

#### Metadata

| Field        | Value    |
|--------------|----------|
| Entrypoint   | 0x0032   |
| Data Size    | 16 bytes |
| Instructions | 2        |

```
      00 01 02 03 04 05 06 07  08 09 0A 0B 0C 0D 0E 0F
      -- -- -- -- -- -- -- --  -- -- -- -- -- -- -- --
0030:       5B 03 80 F8 FF FF  7F F8 FF FF 7F 6F 70 30    [..........op0
0040: 30 00                                             0.              
```

#### Opcodes

```
  0: 0x0032 [0x5B] LOAD_EXT_SCHEDULER: Load scheduler "op00" with entities [EventEntity, EventEntity], work=2590*
  1: 0x0041 [0x00] END_REQSTACK()
```

### Event 65535.4

#### Metadata

| Field        | Value    |
|--------------|----------|
| Entrypoint   | 0x0042   |
| Data Size    | 16 bytes |
| Instructions | 2        |

```
      00 01 02 03 04 05 06 07  08 09 0A 0B 0C 0D 0E 0F
      -- -- -- -- -- -- -- --  -- -- -- -- -- -- -- --
0040:       5B 03 80 F8 FF FF  7F F8 FF FF 7F 6F 70 30    [..........op0
0050: 31 00                                             1.              
```

#### Opcodes

```
  0: 0x0042 [0x5B] LOAD_EXT_SCHEDULER: Load scheduler "op01" with entities [EventEntity, EventEntity], work=2590*
  1: 0x0051 [0x00] END_REQSTACK()
```

### Event 65535.5

#### Metadata

| Field        | Value    |
|--------------|----------|
| Entrypoint   | 0x0052   |
| Data Size    | 16 bytes |
| Instructions | 2        |

```
      00 01 02 03 04 05 06 07  08 09 0A 0B 0C 0D 0E 0F
      -- -- -- -- -- -- -- --  -- -- -- -- -- -- -- --
0050:       5B 02 80 F8 FF FF  7F F8 FF FF 7F 61 72 61    [..........ara
0060: 31 00                                             1.              
```

#### Opcodes

```
  0: 0x0052 [0x5B] LOAD_EXT_SCHEDULER: Load scheduler "ara1" with entities [EventEntity, EventEntity], work=115*
  1: 0x0061 [0x00] END_REQSTACK()
```

### Event 65535.6

#### Metadata

| Field        | Value    |
|--------------|----------|
| Entrypoint   | 0x0062   |
| Data Size    | 29 bytes |
| Instructions | 4        |

```
      00 01 02 03 04 05 06 07  08 09 0A 0B 0C 0D 0E 0F
      -- -- -- -- -- -- -- --  -- -- -- -- -- -- -- --
0060:       B6 00 04 80 B4 00  00 00 4B 61 72 73 74 00    ........Karst.
0070: 00 00 00 00 00 00 00 00  00 00 B5 00 00 00 00     ............... 
```

#### Opcodes

```
  0: 0x0062 [0xB6] ENTITY_APPEARANCE_HANDLER(case=Hair style, value=71*)
  1: 0x0066 [0xB4] UI_WINDOW_STRING_HANDLER(case=0x00 - Copy string from opcode, work_offset=ExtData[1]->WorkLocal[0], string="Karst")
  2: 0x007A [0xB5] SET_EVENT_ENTITY_NAME: Change EventEntity name to ExtData[1]->WorkLocal[0]
  3: 0x007E [0x00] END_REQSTACK()
```

### Event 65535.7

#### Metadata

| Field        | Value    |
|--------------|----------|
| Entrypoint   | 0x007F   |
| Data Size    | 16 bytes |
| Instructions | 2        |

```
      00 01 02 03 04 05 06 07  08 09 0A 0B 0C 0D 0E 0F
      -- -- -- -- -- -- -- --  -- -- -- -- -- -- -- --
0070:                                               5B                 [
0080: 05 80 F8 FF FF 7F F8 FF  FF 7F 74 6C 6B 30 00     ..........tlk0. 
```

#### Opcodes

```
  0: 0x007F [0x5B] LOAD_EXT_SCHEDULER: Load scheduler "tlk0" with entities [EventEntity, EventEntity], work=150*
  1: 0x008E [0x00] END_REQSTACK()
```

### Event 65535.8

#### Metadata

| Field        | Value    |
|--------------|----------|
| Entrypoint   | 0x008F   |
| Data Size    | 16 bytes |
| Instructions | 2        |

```
      00 01 02 03 04 05 06 07  08 09 0A 0B 0C 0D 0E 0F
      -- -- -- -- -- -- -- --  -- -- -- -- -- -- -- --
0080:                                               5B                 [
0090: 05 80 F8 FF FF 7F F8 FF  FF 7F 74 6C 6B 31 00     ..........tlk1. 
```

#### Opcodes

```
  0: 0x008F [0x5B] LOAD_EXT_SCHEDULER: Load scheduler "tlk1" with entities [EventEntity, EventEntity], work=150*
  1: 0x009E [0x00] END_REQSTACK()
```

### Event 65535.9

#### Metadata

| Field        | Value    |
|--------------|----------|
| Entrypoint   | 0x009F   |
| Data Size    | 15 bytes |
| Instructions | 5        |

```
      00 01 02 03 04 05 06 07  08 09 0A 0B 0C 0D 0E 0F
      -- -- -- -- -- -- -- --  -- -- -- -- -- -- -- --
0090:                                               32                 2
00A0: 06 80 1F 00 07 80 08 80  09 80 1F 01 6F 00        ............o.  
```

#### Opcodes

```
  0: 0x009F [0x32] ExtData[1]->MainSpeed = 13* * 0.1
  1: 0x00A2 [0x1F] MOVE_ENTITY: EventEntity moves to X=80.296*, Z=0.132*, Y=-19.531*
  2: 0x00AA [0x1F] MOVE_ENTITY: Update entity position (mode=1)
  3: 0x00AC [0x6F] WAIT_FRAME_DELAY: Yield until WaitTime reaches zero
  4: 0x00AD [0x00] END_REQSTACK()
```

### Event 65535.10

#### Metadata

| Field        | Value    |
|--------------|----------|
| Entrypoint   | 0x00AE   |
| Data Size    | 12 bytes |
| Instructions | 4        |

```
      00 01 02 03 04 05 06 07  08 09 0A 0B 0C 0D 0E 0F
      -- -- -- -- -- -- -- --  -- -- -- -- -- -- -- --
00A0:                                            1F 00                ..
00B0: 0A 80 0B 80 09 80 1F 01  6F 00                    ........o.      
```

#### Opcodes

```
  0: 0x00AE [0x1F] MOVE_ENTITY: EventEntity moves to X=77.389*, Z=0.479*, Y=-19.531*
  1: 0x00B6 [0x1F] MOVE_ENTITY: Update entity position (mode=1)
  2: 0x00B8 [0x6F] WAIT_FRAME_DELAY: Yield until WaitTime reaches zero
  3: 0x00B9 [0x00] END_REQSTACK()
```

### Event 65535.11

#### Metadata

| Field        | Value    |
|--------------|----------|
| Entrypoint   | 0x00BA   |
| Data Size    | 15 bytes |
| Instructions | 3        |

```
      00 01 02 03 04 05 06 07  08 09 0A 0B 0C 0D 0E 0F
      -- -- -- -- -- -- -- --  -- -- -- -- -- -- -- --
00B0:                                84 BA F8 FF FF 7F            ......
00C0: 0C 80 0D 80 0E 80 0F 80  00                       .........       
```

#### Opcodes

```
  0: 0x00BA [0x84] ADJUST_RENDER_FLAGS3_BIT0()
  1: 0x00BB [0xBA] SET_ENTITY_POSITION(entity_id=EventEntity, pos_x=64.126*, pos_z=10.280*, pos_y=-13.999*, direction=318.2°*)
  2: 0x00C8 [0x00] END_REQSTACK()
```

### Event 65535.12

#### Metadata

| Field        | Value    |
|--------------|----------|
| Entrypoint   | 0x00C9   |
| Data Size    | 29 bytes |
| Instructions | 4        |

```
      00 01 02 03 04 05 06 07  08 09 0A 0B 0C 0D 0E 0F
      -- -- -- -- -- -- -- --  -- -- -- -- -- -- -- --
00C0:                             B6 00 10 80 B4 13 00           .......
00D0: 00 53 65 6D 69 68 40 4C  61 66 69 68 6E 61 00 00  .Semih@Lafihna..
00E0: 00 B5 00 00 00 00                                 ......          
```

#### Opcodes

```
  0: 0x00C9 [0xB6] ENTITY_APPEARANCE_HANDLER(case=Hair style, value=249*)
  1: 0x00CD [0xB4] UI_WINDOW_STRING_HANDLER(case=0x13 - Copy string and replace @ with space, work_offset=ExtData[1]->WorkLocal[0], string="Semih@Lafihna")
  2: 0x00E1 [0xB5] SET_EVENT_ENTITY_NAME: Change EventEntity name to ExtData[1]->WorkLocal[0]
  3: 0x00E5 [0x00] END_REQSTACK()
```

### Event 65535.13

#### Metadata

| Field        | Value    |
|--------------|----------|
| Entrypoint   | 0x00E6   |
| Data Size    | 16 bytes |
| Instructions | 2        |

```
      00 01 02 03 04 05 06 07  08 09 0A 0B 0C 0D 0E 0F
      -- -- -- -- -- -- -- --  -- -- -- -- -- -- -- --
00E0:                   5B 11  80 F8 FF FF 7F F8 FF FF        [.........
00F0: 7F 74 6C 6B 30 00                                 .tlk0.          
```

#### Opcodes

```
  0: 0x00E6 [0x5B] LOAD_EXT_SCHEDULER: Load scheduler "tlk0" with entities [EventEntity, EventEntity], work=373*
  1: 0x00F5 [0x00] END_REQSTACK()
```

### Event 65535.14

#### Metadata

| Field        | Value    |
|--------------|----------|
| Entrypoint   | 0x00F6   |
| Data Size    | 16 bytes |
| Instructions | 2        |

```
      00 01 02 03 04 05 06 07  08 09 0A 0B 0C 0D 0E 0F
      -- -- -- -- -- -- -- --  -- -- -- -- -- -- -- --
00F0:                   5B 11  80 F8 FF FF 7F F8 FF FF        [.........
0100: 7F 74 6C 6B 31 00                                 .tlk1.          
```

#### Opcodes

```
  0: 0x00F6 [0x5B] LOAD_EXT_SCHEDULER: Load scheduler "tlk1" with entities [EventEntity, EventEntity], work=373*
  1: 0x0105 [0x00] END_REQSTACK()
```

### Event 65535.15

#### Metadata

| Field        | Value    |
|--------------|----------|
| Entrypoint   | 0x0106   |
| Data Size    | 25 bytes |
| Instructions | 6        |

```
      00 01 02 03 04 05 06 07  08 09 0A 0B 0C 0D 0E 0F
      -- -- -- -- -- -- -- --  -- -- -- -- -- -- -- --
0100:                   79 00  F8 FF FF 7F C7 50 0F 01        y......P..
0110: 32 12 80 1F 00 13 80 14  80 15 80 1F 01 6F 00     2............o. 
```

#### Opcodes

```
  0: 0x0106 [0x79] EventEntity looks at NPC03 (ID: 17780935/0x010F50C7) (Basic look)
  1: 0x0110 [0x32] ExtData[1]->MainSpeed = 40* * 0.1
  2: 0x0113 [0x1F] MOVE_ENTITY: EventEntity moves to X=-0.358*, Z=5.294*, Y=-47.000*
  3: 0x011B [0x1F] MOVE_ENTITY: Update entity position (mode=1)
  4: 0x011D [0x6F] WAIT_FRAME_DELAY: Yield until WaitTime reaches zero
  5: 0x011E [0x00] END_REQSTACK()
```
