# 17780934 - NPC02

## Common Data

| Field            | Value                 |
|------------------|-----------------------|
| Zone             | Lower Jeuno (ID: 245) |
| Block Size       | 516 bytes             |
| Total Events     | 19                    |
| References Count | 24                    |

## List of Events

| Event ID                   | Entrypoint   |   Size |   Instructions |
|----------------------------|--------------|--------|----------------|
| [65535](#event-65535)      | 0x0000       |      1 |              1 |
| [10094](#event-10094)      | 0x0001       |      4 |              2 |
| [65535.1](#event-655351)   | 0x0005       |     29 |              4 |
| [65535.2](#event-655352)   | 0x0022       |     16 |              2 |
| [65535.3](#event-655353)   | 0x0032       |     16 |              2 |
| [65535.4](#event-655354)   | 0x0042       |     16 |              2 |
| [65535.5](#event-655355)   | 0x0052       |     16 |              2 |
| [65535.6](#event-655356)   | 0x0062       |     16 |              2 |
| [65535.7](#event-655357)   | 0x0072       |     29 |              4 |
| [65535.8](#event-655358)   | 0x008F       |     15 |              5 |
| [65535.9](#event-655359)   | 0x009E       |     16 |              2 |
| [65535.10](#event-6553510) | 0x00AE       |     16 |              2 |
| [65535.11](#event-6553511) | 0x00BE       |     16 |              2 |
| [65535.12](#event-6553512) | 0x00CE       |     29 |              4 |
| [65535.13](#event-6553513) | 0x00EB       |     28 |              7 |
| [65535.14](#event-6553514) | 0x0107       |     16 |              2 |
| [65535.15](#event-6553515) | 0x0117       |     16 |              2 |
| [65535.16](#event-6553516) | 0x0127       |     16 |              2 |
| [65535.17](#event-6553517) | 0x0137       |     14 |              4 |

## DAT References (imed_data)

|   Index | Hex Value   |   Dec Value |
|---------|-------------|-------------|
|       0 | 0x0001      |           1 |
|       1 | 0x0041      |          65 |
|       2 | 0x0079      |         121 |
|       3 | 0x0078      |         120 |
|       4 | 0x0A1D      |        2589 |
|       5 | 0x003F      |          63 |
|       6 | 0x000D      |          13 |
|       7 | 0xE5EF      |       58863 |
|       8 | 0x2CCA      |       11466 |
|       9 | 0xFFFFC951  |  4294953297 |
|      10 | 0x006E      |         110 |
|      11 | 0x0A30      |        2608 |
|      12 | 0x00A4      |         164 |
|      13 | 0x003C      |          60 |
|      14 | 0x0028      |          40 |
|      15 | 0x01DE      |         478 |
|      16 | 0x1610      |        5648 |
|      17 | 0xFFFF4868  |  4294920296 |
|      18 | 0x0153      |         339 |
|      19 | 0x0151      |         337 |
|      20 | 0x0A33      |        2611 |
|      21 | 0xFFFF8AE8  |  4294937320 |
|      22 | 0x2EB80     |      191360 |
|      23 | 0xFFFFC180  |  4294951296 |

## Events

### Event 65535

#### Metadata

| Field        | Value   |
|--------------|---------|
| Entrypoint   | 0x0000  |
| Data Size    | 1 bytes |
| Instructions | 1       |

```
      00 01 02 03 04 05 06 07  08 09 0A 0B 0C 0D 0E 0F
      -- -- -- -- -- -- -- --  -- -- -- -- -- -- -- --
0000: 00                                                .               
```

#### Opcodes

```
  0: 0x0000 [0x00] END_REQSTACK()
```

### Event 10094

#### Metadata

| Field        | Value   |
|--------------|---------|
| Entrypoint   | 0x0001  |
| Data Size    | 4 bytes |
| Instructions | 2       |

```
      00 01 02 03 04 05 06 07  08 09 0A 0B 0C 0D 0E 0F
      -- -- -- -- -- -- -- --  -- -- -- -- -- -- -- --
0000:    C0 00 80 00                                     ....           
```

#### Opcodes

```
  0: 0x0001 [0xC0] EventEntity->Render.Flags3 |= 0x1000 // Set bit 12 (from 1*)
  1: 0x0004 [0x00] END_REQSTACK()
```

### Event 65535.1

#### Metadata

| Field        | Value    |
|--------------|----------|
| Entrypoint   | 0x0005   |
| Data Size    | 29 bytes |
| Instructions | 4        |

```
      00 01 02 03 04 05 06 07  08 09 0A 0B 0C 0D 0E 0F
      -- -- -- -- -- -- -- --  -- -- -- -- -- -- -- --
0000:                B6 00 01  80 B4 00 00 00 50 69 65       ........Pie
0010: 75 6A 65 00 00 00 00 00  00 00 00 00 00 B5 00 00  uje.............
0020: 00 00                                             ..              
```

#### Opcodes

```
  0: 0x0005 [0xB6] ENTITY_APPEARANCE_HANDLER(case=Hair style, value=65*)
  1: 0x0009 [0xB4] UI_WINDOW_STRING_HANDLER(case=0x00 - Copy string from opcode, work_offset=ExtData[1]->WorkLocal[0], string="Pieuje")
  2: 0x001D [0xB5] SET_EVENT_ENTITY_NAME: Change EventEntity name to ExtData[1]->WorkLocal[0]
  3: 0x0021 [0x00] END_REQSTACK()
```

### Event 65535.2

#### Metadata

| Field        | Value    |
|--------------|----------|
| Entrypoint   | 0x0022   |
| Data Size    | 16 bytes |
| Instructions | 2        |

```
      00 01 02 03 04 05 06 07  08 09 0A 0B 0C 0D 0E 0F
      -- -- -- -- -- -- -- --  -- -- -- -- -- -- -- --
0020:       5B 02 80 F8 FF FF  7F F8 FF FF 7F 74 68 6B    [..........thk
0030: 30 00                                             0.              
```

#### Opcodes

```
  0: 0x0022 [0x5B] LOAD_EXT_SCHEDULER: Load scheduler "thk0" with entities [EventEntity, EventEntity], work=121*
  1: 0x0031 [0x00] END_REQSTACK()
```

### Event 65535.3

#### Metadata

| Field        | Value    |
|--------------|----------|
| Entrypoint   | 0x0032   |
| Data Size    | 16 bytes |
| Instructions | 2        |

```
      00 01 02 03 04 05 06 07  08 09 0A 0B 0C 0D 0E 0F
      -- -- -- -- -- -- -- --  -- -- -- -- -- -- -- --
0030:       5B 02 80 F8 FF FF  7F F8 FF FF 7F 74 68 6B    [..........thk
0040: 31 00                                             1.              
```

#### Opcodes

```
  0: 0x0032 [0x5B] LOAD_EXT_SCHEDULER: Load scheduler "thk1" with entities [EventEntity, EventEntity], work=121*
  1: 0x0041 [0x00] END_REQSTACK()
```

### Event 65535.4

#### Metadata

| Field        | Value    |
|--------------|----------|
| Entrypoint   | 0x0042   |
| Data Size    | 16 bytes |
| Instructions | 2        |

```
      00 01 02 03 04 05 06 07  08 09 0A 0B 0C 0D 0E 0F
      -- -- -- -- -- -- -- --  -- -- -- -- -- -- -- --
0040:       5B 03 80 F8 FF FF  7F F8 FF FF 7F 74 6C 6B    [..........tlk
0050: 30 00                                             0.              
```

#### Opcodes

```
  0: 0x0042 [0x5B] LOAD_EXT_SCHEDULER: Load scheduler "tlk0" with entities [EventEntity, EventEntity], work=120*
  1: 0x0051 [0x00] END_REQSTACK()
```

### Event 65535.5

#### Metadata

| Field        | Value    |
|--------------|----------|
| Entrypoint   | 0x0052   |
| Data Size    | 16 bytes |
| Instructions | 2        |

```
      00 01 02 03 04 05 06 07  08 09 0A 0B 0C 0D 0E 0F
      -- -- -- -- -- -- -- --  -- -- -- -- -- -- -- --
0050:       5B 04 80 F8 FF FF  7F F8 FF FF 7F 6F 70 30    [..........op0
0060: 30 00                                             0.              
```

#### Opcodes

```
  0: 0x0052 [0x5B] LOAD_EXT_SCHEDULER: Load scheduler "op00" with entities [EventEntity, EventEntity], work=2589*
  1: 0x0061 [0x00] END_REQSTACK()
```

### Event 65535.6

#### Metadata

| Field        | Value    |
|--------------|----------|
| Entrypoint   | 0x0062   |
| Data Size    | 16 bytes |
| Instructions | 2        |

```
      00 01 02 03 04 05 06 07  08 09 0A 0B 0C 0D 0E 0F
      -- -- -- -- -- -- -- --  -- -- -- -- -- -- -- --
0060:       5B 04 80 F8 FF FF  7F F8 FF FF 7F 6F 70 30    [..........op0
0070: 31 00                                             1.              
```

#### Opcodes

```
  0: 0x0062 [0x5B] LOAD_EXT_SCHEDULER: Load scheduler "op01" with entities [EventEntity, EventEntity], work=2589*
  1: 0x0071 [0x00] END_REQSTACK()
```

### Event 65535.7

#### Metadata

| Field        | Value    |
|--------------|----------|
| Entrypoint   | 0x0072   |
| Data Size    | 29 bytes |
| Instructions | 4        |

```
      00 01 02 03 04 05 06 07  08 09 0A 0B 0C 0D 0E 0F
      -- -- -- -- -- -- -- --  -- -- -- -- -- -- -- --
0070:       B6 00 05 80 B4 00  00 00 43 69 64 00 00 00    ........Cid...
0080: 00 00 00 00 00 00 00 00  00 00 B5 00 00 00 00     ............... 
```

#### Opcodes

```
  0: 0x0072 [0xB6] ENTITY_APPEARANCE_HANDLER(case=Hair style, value=63*)
  1: 0x0076 [0xB4] UI_WINDOW_STRING_HANDLER(case=0x00 - Copy string from opcode, work_offset=ExtData[1]->WorkLocal[0], string="Cid")
  2: 0x008A [0xB5] SET_EVENT_ENTITY_NAME: Change EventEntity name to ExtData[1]->WorkLocal[0]
  3: 0x008E [0x00] END_REQSTACK()
```

### Event 65535.8

#### Metadata

| Field        | Value    |
|--------------|----------|
| Entrypoint   | 0x008F   |
| Data Size    | 15 bytes |
| Instructions | 5        |

```
      00 01 02 03 04 05 06 07  08 09 0A 0B 0C 0D 0E 0F
      -- -- -- -- -- -- -- --  -- -- -- -- -- -- -- --
0080:                                               32                 2
0090: 06 80 1F 00 07 80 08 80  09 80 1F 01 6F 00        ............o.  
```

#### Opcodes

```
  0: 0x008F [0x32] ExtData[1]->MainSpeed = 13* * 0.1
  1: 0x0092 [0x1F] MOVE_ENTITY: EventEntity moves to X=58.863*, Z=11.466*, Y=-13.999*
  2: 0x009A [0x1F] MOVE_ENTITY: Update entity position (mode=1)
  3: 0x009C [0x6F] WAIT_FRAME_DELAY: Yield until WaitTime reaches zero
  4: 0x009D [0x00] END_REQSTACK()
```

### Event 65535.9

#### Metadata

| Field        | Value    |
|--------------|----------|
| Entrypoint   | 0x009E   |
| Data Size    | 16 bytes |
| Instructions | 2        |

```
      00 01 02 03 04 05 06 07  08 09 0A 0B 0C 0D 0E 0F
      -- -- -- -- -- -- -- --  -- -- -- -- -- -- -- --
0090:                                            5B 0A                [.
00A0: 80 F8 FF FF 7F F8 FF FF  7F 6B 61 6B 30 00        .........kak0.  
```

#### Opcodes

```
  0: 0x009E [0x5B] LOAD_EXT_SCHEDULER: Load scheduler "kak0" with entities [EventEntity, EventEntity], work=110*
  1: 0x00AD [0x00] END_REQSTACK()
```

### Event 65535.10

#### Metadata

| Field        | Value    |
|--------------|----------|
| Entrypoint   | 0x00AE   |
| Data Size    | 16 bytes |
| Instructions | 2        |

```
      00 01 02 03 04 05 06 07  08 09 0A 0B 0C 0D 0E 0F
      -- -- -- -- -- -- -- --  -- -- -- -- -- -- -- --
00A0:                                            5B 0B                [.
00B0: 80 F8 FF FF 7F F8 FF FF  7F 6F 70 30 30 00        .........op00.  
```

#### Opcodes

```
  0: 0x00AE [0x5B] LOAD_EXT_SCHEDULER: Load scheduler "op00" with entities [EventEntity, EventEntity], work=2608*
  1: 0x00BD [0x00] END_REQSTACK()
```

### Event 65535.11

#### Metadata

| Field        | Value    |
|--------------|----------|
| Entrypoint   | 0x00BE   |
| Data Size    | 16 bytes |
| Instructions | 2        |

```
      00 01 02 03 04 05 06 07  08 09 0A 0B 0C 0D 0E 0F
      -- -- -- -- -- -- -- --  -- -- -- -- -- -- -- --
00B0:                                            5B 0A                [.
00C0: 80 F8 FF FF 7F F8 FF FF  7F 6B 61 6B 31 00        .........kak1.  
```

#### Opcodes

```
  0: 0x00BE [0x5B] LOAD_EXT_SCHEDULER: Load scheduler "kak1" with entities [EventEntity, EventEntity], work=110*
  1: 0x00CD [0x00] END_REQSTACK()
```

### Event 65535.12

#### Metadata

| Field        | Value    |
|--------------|----------|
| Entrypoint   | 0x00CE   |
| Data Size    | 29 bytes |
| Instructions | 4        |

```
      00 01 02 03 04 05 06 07  08 09 0A 0B 0C 0D 0E 0F
      -- -- -- -- -- -- -- --  -- -- -- -- -- -- -- --
00C0:                                            B6 00                ..
00D0: 0C 80 B4 00 00 00 41 70  75 72 75 72 75 00 00 00  ......Apururu...
00E0: 00 00 00 00 00 00 B5 00  00 00 00                 ...........     
```

#### Opcodes

```
  0: 0x00CE [0xB6] ENTITY_APPEARANCE_HANDLER(case=Hair style, value=164*)
  1: 0x00D2 [0xB4] UI_WINDOW_STRING_HANDLER(case=0x00 - Copy string from opcode, work_offset=ExtData[1]->WorkLocal[0], string="Apururu")
  2: 0x00E6 [0xB5] SET_EVENT_ENTITY_NAME: Change EventEntity name to ExtData[1]->WorkLocal[0]
  3: 0x00EA [0x00] END_REQSTACK()
```

### Event 65535.13

#### Metadata

| Field        | Value    |
|--------------|----------|
| Entrypoint   | 0x00EB   |
| Data Size    | 28 bytes |
| Instructions | 7        |

```
      00 01 02 03 04 05 06 07  08 09 0A 0B 0C 0D 0E 0F
      -- -- -- -- -- -- -- --  -- -- -- -- -- -- -- --
00E0:                                   1C 0D 80 79 00             ...y.
00F0: F8 FF FF 7F C7 50 0F 01  32 0E 80 1F 00 0F 80 10  .....P..2.......
0100: 80 11 80 1F 01 6F 00                              .....o.         
```

#### Opcodes

```
  0: 0x00EB [0x1C] WAIT(60* ticks)
  1: 0x00EE [0x79] EventEntity looks at NPC03 (ID: 17780935/0x010F50C7) (Basic look)
  2: 0x00F8 [0x32] ExtData[1]->MainSpeed = 40* * 0.1
  3: 0x00FB [0x1F] MOVE_ENTITY: EventEntity moves to X=0.478*, Z=5.648*, Y=-47.000*
  4: 0x0103 [0x1F] MOVE_ENTITY: Update entity position (mode=1)
  5: 0x0105 [0x6F] WAIT_FRAME_DELAY: Yield until WaitTime reaches zero
  6: 0x0106 [0x00] END_REQSTACK()
```

### Event 65535.14

#### Metadata

| Field        | Value    |
|--------------|----------|
| Entrypoint   | 0x0107   |
| Data Size    | 16 bytes |
| Instructions | 2        |

```
      00 01 02 03 04 05 06 07  08 09 0A 0B 0C 0D 0E 0F
      -- -- -- -- -- -- -- --  -- -- -- -- -- -- -- --
0100:                      5B  12 80 F8 FF FF 7F F8 FF         [........
0110: FF 7F 73 68 6B 30 00                              ..shk0.         
```

#### Opcodes

```
  0: 0x0107 [0x5B] LOAD_EXT_SCHEDULER: Load scheduler "shk0" with entities [EventEntity, EventEntity], work=339*
  1: 0x0116 [0x00] END_REQSTACK()
```

### Event 65535.15

#### Metadata

| Field        | Value    |
|--------------|----------|
| Entrypoint   | 0x0117   |
| Data Size    | 16 bytes |
| Instructions | 2        |

```
      00 01 02 03 04 05 06 07  08 09 0A 0B 0C 0D 0E 0F
      -- -- -- -- -- -- -- --  -- -- -- -- -- -- -- --
0110:                      5B  13 80 F8 FF FF 7F F8 FF         [........
0120: FF 7F 7A 69 74 30 00                              ..zit0.         
```

#### Opcodes

```
  0: 0x0117 [0x5B] LOAD_EXT_SCHEDULER: Load scheduler "zit0" with entities [EventEntity, EventEntity], work=337*
  1: 0x0126 [0x00] END_REQSTACK()
```

### Event 65535.16

#### Metadata

| Field        | Value    |
|--------------|----------|
| Entrypoint   | 0x0127   |
| Data Size    | 16 bytes |
| Instructions | 2        |

```
      00 01 02 03 04 05 06 07  08 09 0A 0B 0C 0D 0E 0F
      -- -- -- -- -- -- -- --  -- -- -- -- -- -- -- --
0120:                      5B  14 80 F8 FF FF 7F F8 FF         [........
0130: FF 7F 61 6F 70 30 00                              ..aop0.         
```

#### Opcodes

```
  0: 0x0127 [0x5B] LOAD_EXT_SCHEDULER: Load scheduler "aop0" with entities [EventEntity, EventEntity], work=2611*
  1: 0x0136 [0x00] END_REQSTACK()
```

### Event 65535.17

#### Metadata

| Field        | Value    |
|--------------|----------|
| Entrypoint   | 0x0137   |
| Data Size    | 14 bytes |
| Instructions | 4        |

```
      00 01 02 03 04 05 06 07  08 09 0A 0B 0C 0D 0E 0F
      -- -- -- -- -- -- -- --  -- -- -- -- -- -- -- --
0130:                      32  0E 80 1F 00 15 80 16 80         2........
0140: 17 80 1F 01 00                                    .....           
```

#### Opcodes

```
  0: 0x0137 [0x32] ExtData[1]->MainSpeed = 40* * 0.1
  1: 0x013A [0x1F] MOVE_ENTITY: EventEntity moves to X=-29.976*, Z=191.360*, Y=-16.000*
  2: 0x0142 [0x1F] MOVE_ENTITY: Update entity position (mode=1)
  3: 0x0144 [0x00] END_REQSTACK()
```
