# 17780993

## Common Data

| Field            | Value                 |
|------------------|-----------------------|
| Zone             | Lower Jeuno (ID: 245) |
| Block Size       | 340 bytes             |
| Total Events     | 9                     |
| References Count | 25                    |

## List of Events

| Event ID                 | Entrypoint   |   Size |   Instructions |
|--------------------------|--------------|--------|----------------|
| [65535](#event-65535)    | 0x0000       |      1 |              1 |
| [20045](#event-20045)    | 0x0001       |      1 |              1 |
| [20052](#event-20052)    | 0x0002       |      1 |              1 |
| [20047](#event-20047)    | 0x0003       |      1 |              1 |
| [65535.1](#event-655351) | 0x0004       |     45 |              4 |
| [65535.2](#event-655352) | 0x0031       |     15 |              5 |
| [65535.3](#event-655353) | 0x0040       |     60 |             11 |
| [65535.4](#event-655354) | 0x007C       |     34 |              3 |
| [65535.5](#event-655355) | 0x009E       |     28 |              9 |

## DAT References (imed_data)

|   Index | Hex Value   |   Dec Value |
|---------|-------------|-------------|
|       0 | 0x0007      |           7 |
|       1 | 0x0000      |           0 |
|       2 | 0x0016      |          22 |
|       3 | 0x000A      |          10 |
|       4 | 0xFFFF5946  |  4294924614 |
|       5 | 0xFFFF4D93  |  4294921619 |
|       6 | 0x005A      |          90 |
|       7 | 0x003B      |          59 |
|       8 | 0x0096      |         150 |
|       9 | 0xFFFF77C4  |  4294932420 |
|      10 | 0xFFFF5885  |  4294924421 |
|      11 | 0xFFFFA45D  |  4294943837 |
|      12 | 0xFFFF970B  |  4294940427 |
|      13 | 0x0002      |           2 |
|      14 | 0x0003      |           3 |
|      15 | 0x0082      |         130 |
|      16 | 0x001F      |          31 |
|      17 | 0x0008      |           8 |
|      18 | 0xFFFF8583  |  4294935939 |
|      19 | 0xFFFF2624  |  4294911524 |
|      20 | 0x0CC6      |        3270 |
|      21 | 0xFFFF85C5  |  4294936005 |
|      22 | 0xFFFF6880  |  4294928512 |
|      23 | 0xFFFF8FBD  |  4294938557 |
|      24 | 0xFFFF7C17  |  4294933527 |

## Events

### Event 65535

#### Metadata

| Field        | Value   |
|--------------|---------|
| Entrypoint   | 0x0000  |
| Data Size    | 1 bytes |
| Instructions | 1       |

```
      00 01 02 03 04 05 06 07  08 09 0A 0B 0C 0D 0E 0F
      -- -- -- -- -- -- -- --  -- -- -- -- -- -- -- --
0000: 00                                                .               
```

#### Opcodes

```
  0: 0x0000 [0x00] END_REQSTACK()
```

### Event 20045

#### Metadata

| Field        | Value   |
|--------------|---------|
| Entrypoint   | 0x0001  |
| Data Size    | 1 bytes |
| Instructions | 1       |

```
      00 01 02 03 04 05 06 07  08 09 0A 0B 0C 0D 0E 0F
      -- -- -- -- -- -- -- --  -- -- -- -- -- -- -- --
0000:    00                                              .              
```

#### Opcodes

```
  0: 0x0001 [0x00] END_REQSTACK()
```

### Event 20052

#### Metadata

| Field        | Value   |
|--------------|---------|
| Entrypoint   | 0x0002  |
| Data Size    | 1 bytes |
| Instructions | 1       |

```
      00 01 02 03 04 05 06 07  08 09 0A 0B 0C 0D 0E 0F
      -- -- -- -- -- -- -- --  -- -- -- -- -- -- -- --
0000:       00                                            .             
```

#### Opcodes

```
  0: 0x0002 [0x00] END_REQSTACK()
```

### Event 20047

#### Metadata

| Field        | Value   |
|--------------|---------|
| Entrypoint   | 0x0003  |
| Data Size    | 1 bytes |
| Instructions | 1       |

```
      00 01 02 03 04 05 06 07  08 09 0A 0B 0C 0D 0E 0F
      -- -- -- -- -- -- -- --  -- -- -- -- -- -- -- --
0000:          00                                          .            
```

#### Opcodes

```
  0: 0x0003 [0x00] END_REQSTACK()
```

### Event 65535.1

#### Metadata

| Field        | Value    |
|--------------|----------|
| Entrypoint   | 0x0004   |
| Data Size    | 45 bytes |
| Instructions | 4        |

```
      00 01 02 03 04 05 06 07  08 09 0A 0B 0C 0D 0E 0F
      -- -- -- -- -- -- -- --  -- -- -- -- -- -- -- --
0000:             B6 0B 00 80  00 80 01 80 02 80 02 80      ............
0010: 02 80 02 80 01 80 01 80  B4 13 00 00 56 68 61 6E  ............Vhan
0020: 61 40 45 68 67 61 6B 6C  79 77 68 61 B5 00 00 00  a@Ehgaklywha....
0030: 00                                                .               
```

#### Opcodes

```
  0: 0x0004 [0xB6] ENTITY_APPEARANCE_HANDLER(case=Full entity look, race=7*, hair=7*, head=0*, body=22*, hands=22*, legs=22*, feet=22*, main=0*, sub=0*)
  1: 0x0018 [0xB4] UI_WINDOW_STRING_HANDLER(case=0x13 - Copy string and replace @ with space, work_offset=ExtData[1]->WorkLocal[0], string="Vhana@Ehgaklywha")
  2: 0x002C [0xB5] SET_EVENT_ENTITY_NAME: Change EventEntity name to ExtData[1]->WorkLocal[0]
  3: 0x0030 [0x00] END_REQSTACK()
```

### Event 65535.2

#### Metadata

| Field        | Value    |
|--------------|----------|
| Entrypoint   | 0x0031   |
| Data Size    | 15 bytes |
| Instructions | 5        |

```
      00 01 02 03 04 05 06 07  08 09 0A 0B 0C 0D 0E 0F
      -- -- -- -- -- -- -- --  -- -- -- -- -- -- -- --
0030:    32 03 80 1F 00 04 80  05 80 01 80 1F 01 6F 00   2............o.
```

#### Opcodes

```
  0: 0x0031 [0x32] ExtData[1]->MainSpeed = 10* * 0.1
  1: 0x0034 [0x1F] MOVE_ENTITY: EventEntity moves to X=-42.682*, Z=-45.677*, Y=0.000*
  2: 0x003C [0x1F] MOVE_ENTITY: Update entity position (mode=1)
  3: 0x003E [0x6F] WAIT_FRAME_DELAY: Yield until WaitTime reaches zero
  4: 0x003F [0x00] END_REQSTACK()
```

### Event 65535.3

#### Metadata

| Field        | Value    |
|--------------|----------|
| Entrypoint   | 0x0040   |
| Data Size    | 60 bytes |
| Instructions | 11       |

```
      00 01 02 03 04 05 06 07  08 09 0A 0B 0C 0D 0E 0F
      -- -- -- -- -- -- -- --  -- -- -- -- -- -- -- --
0040: 1C 06 80 66 07 80 01 51  0F 01 01 51 0F 01 73 69  ...f...Q...Q..si
0050: 74 31 53 01 51 0F 01 01  51 0F 01 73 69 74 31 1C  t1S.Q...Q..sit1.
0060: 08 80 32 03 80 1F 00 09  80 0A 80 01 80 1F 01 1F  ..2.............
0070: 00 0B 80 0C 80 01 80 1F  01 22 01 00              ........."..    
```

#### Opcodes

```
  0: 0x0040 [0x1C] WAIT(90* ticks)
  1: 0x0043 [0x66] LOAD_EXT_SCHEDULER_MAIN: Load scheduler "sit1" with entities [Unnamed NPC (ID: 17780993/0x010F5101), Unnamed NPC (ID: 17780993/0x010F5101)], work=59*
  2: 0x0052 [0x53] WAIT_SCHEDULER_TASK: Wait for scheduler "sit1" with entities [Unnamed NPC (ID: 17780993/0x010F5101), Unnamed NPC (ID: 17780993/0x010F5101)]
  3: 0x005F [0x1C] WAIT(150* ticks)
  4: 0x0062 [0x32] ExtData[1]->MainSpeed = 10* * 0.1
  5: 0x0065 [0x1F] MOVE_ENTITY: EventEntity moves to X=-34.876*, Z=-42.875*, Y=0.000*
  6: 0x006D [0x1F] MOVE_ENTITY: Update entity position (mode=1)
  7: 0x006F [0x1F] MOVE_ENTITY: EventEntity moves to X=-23.459*, Z=-26.869*, Y=0.000*
  8: 0x0077 [0x1F] MOVE_ENTITY: Update entity position (mode=1)
  9: 0x0079 [0x22] ENTITY_HIDE_FLAG(enabled=0x01)
 10: 0x007B [0x00] END_REQSTACK()
```

### Event 65535.4

#### Metadata

| Field        | Value    |
|--------------|----------|
| Entrypoint   | 0x007C   |
| Data Size    | 34 bytes |
| Instructions | 3        |

```
      00 01 02 03 04 05 06 07  08 09 0A 0B 0C 0D 0E 0F
      -- -- -- -- -- -- -- --  -- -- -- -- -- -- -- --
0070:                                      B6 0B 0D 80              ....
0080: 0E 80 01 80 0F 80 01 80  10 80 11 80 01 80 01 80  ................
0090: BA F8 FF FF 7F 12 80 13  80 01 80 14 80 00        ..............  
```

#### Opcodes

```
  0: 0x007C [0xB6] ENTITY_APPEARANCE_HANDLER(case=Full entity look, race=2*, hair=3*, head=0*, body=130*, hands=0*, legs=31*, feet=8*, main=0*, sub=0*)
  1: 0x0090 [0xBA] SET_ENTITY_POSITION(entity_id=EventEntity, pos_x=-31.357*, pos_z=-55.772*, pos_y=0.000*, direction=287.4°*)
  2: 0x009D [0x00] END_REQSTACK()
```

### Event 65535.5

#### Metadata

| Field        | Value    |
|--------------|----------|
| Entrypoint   | 0x009E   |
| Data Size    | 28 bytes |
| Instructions | 9        |

```
      00 01 02 03 04 05 06 07  08 09 0A 0B 0C 0D 0E 0F
      -- -- -- -- -- -- -- --  -- -- -- -- -- -- -- --
0090:                                            22 00                ".
00A0: 32 03 80 1F 00 15 80 16  80 01 80 1F 01 6F 1F 00  2............o..
00B0: 17 80 18 80 01 80 1F 01  6F 00                    ........o.      
```

#### Opcodes

```
  0: 0x009E [0x22] ENTITY_HIDE_FLAG(enabled=0x00)
  1: 0x00A0 [0x32] ExtData[1]->MainSpeed = 10* * 0.1
  2: 0x00A3 [0x1F] MOVE_ENTITY: EventEntity moves to X=-31.291*, Z=-38.784*, Y=0.000*
  3: 0x00AB [0x1F] MOVE_ENTITY: Update entity position (mode=1)
  4: 0x00AD [0x6F] WAIT_FRAME_DELAY: Yield until WaitTime reaches zero
  5: 0x00AE [0x1F] MOVE_ENTITY: EventEntity moves to X=-28.739*, Z=-33.769*, Y=0.000*
  6: 0x00B6 [0x1F] MOVE_ENTITY: Update entity position (mode=1)
  7: 0x00B8 [0x6F] WAIT_FRAME_DELAY: Yield until WaitTime reaches zero
  8: 0x00B9 [0x00] END_REQSTACK()
```
