# 17780962 - Talib

## Common Data

| Field            | Value                 |
|------------------|-----------------------|
| Zone             | Lower Jeuno (ID: 245) |
| Block Size       | 196 bytes             |
| Total Events     | 7                     |
| References Count | 11                    |

## List of Events

| Event ID                 | Entrypoint   |   Size |   Instructions |
|--------------------------|--------------|--------|----------------|
| [65535](#event-65535)    | 0x0000       |      1 |              1 |
| [10125](#event-10125)    | 0x0001       |      1 |              1 |
| [65535.1](#event-655351) | 0x0002       |     22 |              8 |
| [65535.2](#event-655352) | 0x0018       |     29 |              7 |
| [65535.3](#event-655353) | 0x0035       |     19 |              3 |
| [65535.4](#event-655354) | 0x0048       |     19 |              3 |
| [65535.5](#event-655355) | 0x005B       |     16 |              4 |

## DAT References (imed_data)

|   Index | Hex Value   |   Dec Value |
|---------|-------------|-------------|
|       0 | 0x000D      |          13 |
|       1 | 0xA4A3      |       42147 |
|       2 | 0xFFFFB632  |  4294948402 |
|       3 | 0xFFFFFF9B  |  4294967195 |
|       4 | 0xA48C      |       42124 |
|       5 | 0xFFFFA764  |  4294944612 |
|       6 | 0x9EE0      |       40672 |
|       7 | 0xFFFF95A0  |  4294940064 |
|       8 | 0x018F      |         399 |
|       9 | 0x0095      |         149 |
|      10 | 0x0016      |          22 |

## Events

### Event 65535

#### Metadata

| Field        | Value   |
|--------------|---------|
| Entrypoint   | 0x0000  |
| Data Size    | 1 bytes |
| Instructions | 1       |

```
      00 01 02 03 04 05 06 07  08 09 0A 0B 0C 0D 0E 0F
      -- -- -- -- -- -- -- --  -- -- -- -- -- -- -- --
0000: 00                                                .               
```

#### Opcodes

```
  0: 0x0000 [0x00] END_REQSTACK()
```

### Event 10125

#### Metadata

| Field        | Value   |
|--------------|---------|
| Entrypoint   | 0x0001  |
| Data Size    | 1 bytes |
| Instructions | 1       |

```
      00 01 02 03 04 05 06 07  08 09 0A 0B 0C 0D 0E 0F
      -- -- -- -- -- -- -- --  -- -- -- -- -- -- -- --
0000:    00                                              .              
```

#### Opcodes

```
  0: 0x0001 [0x00] END_REQSTACK()
```

### Event 65535.1

#### Metadata

| Field        | Value    |
|--------------|----------|
| Entrypoint   | 0x0002   |
| Data Size    | 22 bytes |
| Instructions | 8        |

```
      00 01 02 03 04 05 06 07  08 09 0A 0B 0C 0D 0E 0F
      -- -- -- -- -- -- -- --  -- -- -- -- -- -- -- --
0000:       32 00 80 1F 00 01  80 02 80 03 80 1F 01 6F    2............o
0010: 1E 0D 50 0F 01 6F 70 00                           ..P..op.        
```

#### Opcodes

```
  0: 0x0002 [0x32] ExtData[1]->MainSpeed = 13* * 0.1
  1: 0x0005 [0x1F] MOVE_ENTITY: EventEntity moves to X=42.147*, Z=-18.894*, Y=-0.101*
  2: 0x000D [0x1F] MOVE_ENTITY: Update entity position (mode=1)
  3: 0x000F [0x6F] WAIT_FRAME_DELAY: Yield until WaitTime reaches zero
  4: 0x0010 [0x1E] EventEntity looks at Harnek (ID: 17780749/0x010F500D) and starts talking
  5: 0x0015 [0x6F] WAIT_FRAME_DELAY: Yield until WaitTime reaches zero
  6: 0x0016 [0x70] WAIT_ENTITY_RENDER_FLAG: Wait while EventEntity->Render.Flags3 bit 2 is set (cancel turn if not)
  7: 0x0017 [0x00] END_REQSTACK()
```

### Event 65535.2

#### Metadata

| Field        | Value    |
|--------------|----------|
| Entrypoint   | 0x0018   |
| Data Size    | 29 bytes |
| Instructions | 7        |

```
      00 01 02 03 04 05 06 07  08 09 0A 0B 0C 0D 0E 0F
      -- -- -- -- -- -- -- --  -- -- -- -- -- -- -- --
0010:                          32 00 80 7B F8 FF FF 7F          2..{....
0020: 1F 00 04 80 05 80 03 80  1F 01 1F 00 06 80 07 80  ................
0030: 08 80 1F 01 00                                    .....           
```

#### Opcodes

```
  0: 0x0018 [0x32] ExtData[1]->MainSpeed = 13* * 0.1
  1: 0x001B [0x7B] EventEntity stops talking
  2: 0x0020 [0x1F] MOVE_ENTITY: EventEntity moves to X=42.124*, Z=-22.684*, Y=-0.101*
  3: 0x0028 [0x1F] MOVE_ENTITY: Update entity position (mode=1)
  4: 0x002A [0x1F] MOVE_ENTITY: EventEntity moves to X=40.672*, Z=-27.232*, Y=0.399*
  5: 0x0032 [0x1F] MOVE_ENTITY: Update entity position (mode=1)
  6: 0x0034 [0x00] END_REQSTACK()
```

### Event 65535.3

#### Metadata

| Field        | Value    |
|--------------|----------|
| Entrypoint   | 0x0035   |
| Data Size    | 19 bytes |
| Instructions | 3        |

```
      00 01 02 03 04 05 06 07  08 09 0A 0B 0C 0D 0E 0F
      -- -- -- -- -- -- -- --  -- -- -- -- -- -- -- --
0030:                66 09 80  F8 FF FF 7F F8 FF FF 7F       f..........
0040: 74 6C 6B 30 1C 00 17 00                           tlk0....        
```

#### Opcodes

```
  0: 0x0035 [0x66] LOAD_EXT_SCHEDULER_MAIN: Load scheduler "tlk0" with entities [EventEntity, EventEntity], work=149*
  1: 0x0044 [0x1C] WAIT(Work_Zone_1700[0] ticks)
  2: 0x0047 [0x00] END_REQSTACK()
```

### Event 65535.4

#### Metadata

| Field        | Value    |
|--------------|----------|
| Entrypoint   | 0x0048   |
| Data Size    | 19 bytes |
| Instructions | 3        |

```
      00 01 02 03 04 05 06 07  08 09 0A 0B 0C 0D 0E 0F
      -- -- -- -- -- -- -- --  -- -- -- -- -- -- -- --
0040:                          66 09 80 F8 FF FF 7F F8          f.......
0050: FF FF 7F 74 68 6B 30 1C  00 17 00                 ...thk0....     
```

#### Opcodes

```
  0: 0x0048 [0x66] LOAD_EXT_SCHEDULER_MAIN: Load scheduler "thk0" with entities [EventEntity, EventEntity], work=149*
  1: 0x0057 [0x1C] WAIT(Work_Zone_1700[0] ticks)
  2: 0x005A [0x00] END_REQSTACK()
```

### Event 65535.5

#### Metadata

| Field        | Value    |
|--------------|----------|
| Entrypoint   | 0x005B   |
| Data Size    | 16 bytes |
| Instructions | 4        |

```
      00 01 02 03 04 05 06 07  08 09 0A 0B 0C 0D 0E 0F
      -- -- -- -- -- -- -- --  -- -- -- -- -- -- -- --
0050:                                   6E F8 FF FF 7F             n....
0060: 0A 80 99 F8 FF FF 7F 1C  00 17 00                 ...........     
```

#### Opcodes

```
  0: 0x005B [0x6E] EventEntity uses emote 22*
  1: 0x0062 [0x99] Wait for EventEntity animation to complete
  2: 0x0067 [0x1C] WAIT(Work_Zone_1700[0] ticks)
  3: 0x006A [0x00] END_REQSTACK()
```
