# 17780929 - Talking Doll

## Common Data

| Field            | Value                 |
|------------------|-----------------------|
| Zone             | Lower Jeuno (ID: 245) |
| Block Size       | 872 bytes             |
| Total Events     | 9                     |
| References Count | 43                    |

## List of Events

| Event ID                 | Entrypoint   |   Size |   Instructions |
|--------------------------|--------------|--------|----------------|
| [65535](#event-65535)    | 0x0000       |      1 |              1 |
| [65535.1](#event-655351) | 0x0001       |     27 |              5 |
| [65535.2](#event-655352) | 0x001C       |      7 |              2 |
| [65535.3](#event-655353) | 0x0023       |      5 |              3 |
| [65535.4](#event-655354) | 0x0028       |      5 |              3 |
| [10079](#event-10079)    | 0x002D       |      1 |              1 |
| [10081](#event-10081)    | 0x002E       |      1 |              1 |
| [10082](#event-10082)    | 0x002F       |      1 |              1 |
| [10084](#event-10084)    | 0x0030       |    600 |            147 |

## DAT References (imed_data)

|   Index | Hex Value   |   Dec Value |
|---------|-------------|-------------|
|       0 | 0xFFFFBE2D  |  4294950445 |
|       1 | 0x0145      |         325 |
|       2 | 0xFFFFFE3F  |  4294966847 |
|       3 | 0x0AF0      |        2800 |
|       4 | 0x1BD3      |        7123 |
|       5 | 0x1BD5      |        7125 |
|       6 | 0x1BAD      |        7085 |
|       7 | 0x0000      |           0 |
|       8 | 0x0001      |           1 |
|       9 | 0x1BAF      |        7087 |
|      10 | 0x0002      |           2 |
|      11 | 0x1BB0      |        7088 |
|      12 | 0x0003      |           3 |
|      13 | 0x1BB1      |        7089 |
|      14 | 0x0004      |           4 |
|      15 | 0x1BB2      |        7090 |
|      16 | 0x0005      |           5 |
|      17 | 0x1BB3      |        7091 |
|      18 | 0x0006      |           6 |
|      19 | 0x1BB4      |        7092 |
|      20 | 0x0007      |           7 |
|      21 | 0x1BB5      |        7093 |
|      22 | 0x0008      |           8 |
|      23 | 0x1BB6      |        7094 |
|      24 | 0x0009      |           9 |
|      25 | 0x1BB7      |        7095 |
|      26 | 0x000A      |          10 |
|      27 | 0x1BB8      |        7096 |
|      28 | 0x000B      |          11 |
|      29 | 0x1BB9      |        7097 |
|      30 | 0x000C      |          12 |
|      31 | 0x1BBA      |        7098 |
|      32 | 0x000D      |          13 |
|      33 | 0x1BBB      |        7099 |
|      34 | 0x000E      |          14 |
|      35 | 0x1BBC      |        7100 |
|      36 | 0x000F      |          15 |
|      37 | 0x1BBD      |        7101 |
|      38 | 0x0010      |          16 |
|      39 | 0x1BBE      |        7102 |
|      40 | 0x0032      |          50 |
|      41 | 0x0033      |          51 |
|      42 | 0x0034      |          52 |

## String References

- **7085**: $26Dale's Monstaru List$26 [Close list./Tumbling Truffle [ /x]/Tottering Toby [ /x]/Blubbery Bulge [ /x]/Black Triple Stars [ /x]/Drooling Daisy [ /x]/Jolly Green [ /x]/Sharp-Eared Ropipi [ /x]/Buburimboo [ /x]/Daggerclaw Dracos [ /x]/Trickster Kinetix [ /x]/Ixtab [ /x]/Gargantua [ /x]/Shadow Eye [ /x]/Boreal Coeurl [ /x]/Boreal Hound [ /x]/Boreal Tiger [ /x]]
- **7087**: Tumbling Truffle is a creature from the funguar family. It's known to inhabitaru valley floors near the Crag of Holla, in the northeastern area of the La Theine Plateau.
- **7088**: Tottering Toby is a creature from the sapling family. It's been observed around Coveffe Barrows, in the Batallia Downs.
- **7089**: Blubbery Bulge is a creature from the slime family. It's been observed around the Disused Well in the southwestern region of Davoi.
- **7090**: Black Triple Stars is a creature from the bat family. It's a known inhabitant of Brutus's Field in the Rolanberry Fields.
- **7091**: Drooling Daisy is a creature from the morbol family. It's been observed near the Fountain of Partings in the Rolanberry Fields.
- **7092**: Jolly Green is a creature from the goobbue family. It's supposed to inhabitaru the Luremarsh area in the Pashhow Marshlands.
- **7093**: Sharp-Eared Ropipi is a creature from the rabbit family. It inhabits the southeastern region of East Sarutabaruta.
- **7094**: Buburimboo is a creature from the pugil family. It's a known inhabitant of the Mighoya Dunes in the Buburimu Peninsula.
- **7095**: Daggerclaw Dracos is a creature from the raptor family. It's been observed in the southeastern region of the Meriphataud Mountains.
- **7096**: Trickster Kinetix is a creature from the evil weapon family. It's been seen in the open area near Delkfutt's Tower on Qufim Island.
- **7097**: Ixtab is a creature from the ghost family. It supposedly dwells in one of the roomy-wooms inside Upper Delkfutt's Tower.
- **7098**: Gargantua is a creature from the golem family. It's a known inhabitant of the coastaru area in eastern Beaucedine Glacier.
- **7099**: Shadow Eye is a creature from the Ahriman family. It's been seen in western Xarcabard.
- **7100**: Boreal Coeurl is a creature from the coeurl family. It supposedly dwells inside a cavey-wave in the northeastern region of Xarcabard.
- **7101**: Boreal Hound is a creature from the hound family. It supposedly dwells inside a cavey-wave in the southwestern region of Xarcabard.
- **7102**: Boreal Tiger is a creature from the tiger family. It supposedly dwells inside a cavey-wave in the northern region of Xarcabard.
- **7123**: <Beep!> Surveillance subject: Rakuru-Rakoru....
- **7125**: <Beep!> My pitiful little fraudster, did you think you'd get away? How do I punish thee? Let me count the ways! Ohohohohoho!

## Events

### Event 65535

#### Metadata

| Field        | Value   |
|--------------|---------|
| Entrypoint   | 0x0000  |
| Data Size    | 1 bytes |
| Instructions | 1       |

```
      00 01 02 03 04 05 06 07  08 09 0A 0B 0C 0D 0E 0F
      -- -- -- -- -- -- -- --  -- -- -- -- -- -- -- --
0000: 00                                                .               
```

#### Opcodes

```
  0: 0x0000 [0x00] END_REQSTACK()
```

### Event 65535.1

#### Metadata

| Field        | Value    |
|--------------|----------|
| Entrypoint   | 0x0001   |
| Data Size    | 27 bytes |
| Instructions | 5        |

```
      00 01 02 03 04 05 06 07  08 09 0A 0B 0C 0D 0E 0F
      -- -- -- -- -- -- -- --  -- -- -- -- -- -- -- --
0000:    4E 00 F8 FF FF 7F 80  F8 FF FF 7F 92 01 C1 50   N.............P
0010: 0F 01 37 00 80 01 80 02  80 03 80 00              ..7.........    
```

#### Opcodes

```
  0: 0x0001 [0x4E] SET_ENTITY_HIDE_FLAG: Show EventEntity
  1: 0x0007 [0x80] LOAD_WAIT(entity=EventEntity)
  2: 0x000C [0x92] Talking Doll (ID: 17780929/0x010F50C1)->Render.Flags3 ^= 0x01
  3: 0x0012 [0x37] UPDATE_EVENT_POSITION_AND_DIR: x=-16.851*, z=0.325*, y=-0.449*, direction=246.1°*
  4: 0x001B [0x00] END_REQSTACK()
```

### Event 65535.2

#### Metadata

| Field        | Value   |
|--------------|---------|
| Entrypoint   | 0x001C  |
| Data Size    | 7 bytes |
| Instructions | 2       |

```
      00 01 02 03 04 05 06 07  08 09 0A 0B 0C 0D 0E 0F
      -- -- -- -- -- -- -- --  -- -- -- -- -- -- -- --
0010:                                      4E 01 F8 FF              N...
0020: FF 7F 00                                          ...             
```

#### Opcodes

```
  0: 0x001C [0x4E] SET_ENTITY_HIDE_FLAG: Hide EventEntity
  1: 0x0022 [0x00] END_REQSTACK()
```

### Event 65535.3

#### Metadata

| Field        | Value   |
|--------------|---------|
| Entrypoint   | 0x0023  |
| Data Size    | 5 bytes |
| Instructions | 3       |

```
      00 01 02 03 04 05 06 07  08 09 0A 0B 0C 0D 0E 0F
      -- -- -- -- -- -- -- --  -- -- -- -- -- -- -- --
0020:          1D 04 80 23 00                              ...#.        
```

#### Opcodes

```
  0: 0x0023 [0x1D] PRINT_EVENT_MESSAGE(message_id=7123*)
    → "<Beep!> Surveillance subject: Rakuru-Rakoru...."
  1: 0x0026 [0x23] WAIT_FOR_DIALOG_INTERACTION
  2: 0x0027 [0x00] END_REQSTACK()
```

### Event 65535.4

#### Metadata

| Field        | Value   |
|--------------|---------|
| Entrypoint   | 0x0028  |
| Data Size    | 5 bytes |
| Instructions | 3       |

```
      00 01 02 03 04 05 06 07  08 09 0A 0B 0C 0D 0E 0F
      -- -- -- -- -- -- -- --  -- -- -- -- -- -- -- --
0020:                          1D 05 80 23 00                   ...#.   
```

#### Opcodes

```
  0: 0x0028 [0x1D] PRINT_EVENT_MESSAGE(message_id=7125*)
    → "<Beep!> My pitiful little fraudster, did you think you'd get away? How do I punish thee? Let me count the ways! Ohohohohoho!"
  1: 0x002B [0x23] WAIT_FOR_DIALOG_INTERACTION
  2: 0x002C [0x00] END_REQSTACK()
```

### Event 10079

#### Metadata

| Field        | Value   |
|--------------|---------|
| Entrypoint   | 0x002D  |
| Data Size    | 1 bytes |
| Instructions | 1       |

```
      00 01 02 03 04 05 06 07  08 09 0A 0B 0C 0D 0E 0F
      -- -- -- -- -- -- -- --  -- -- -- -- -- -- -- --
0020:                                         00                     .  
```

#### Opcodes

```
  0: 0x002D [0x00] END_REQSTACK()
```

### Event 10081

#### Metadata

| Field        | Value   |
|--------------|---------|
| Entrypoint   | 0x002E  |
| Data Size    | 1 bytes |
| Instructions | 1       |

```
      00 01 02 03 04 05 06 07  08 09 0A 0B 0C 0D 0E 0F
      -- -- -- -- -- -- -- --  -- -- -- -- -- -- -- --
0020:                                            00                   . 
```

#### Opcodes

```
  0: 0x002E [0x00] END_REQSTACK()
```

### Event 10082

#### Metadata

| Field        | Value   |
|--------------|---------|
| Entrypoint   | 0x002F  |
| Data Size    | 1 bytes |
| Instructions | 1       |

```
      00 01 02 03 04 05 06 07  08 09 0A 0B 0C 0D 0E 0F
      -- -- -- -- -- -- -- --  -- -- -- -- -- -- -- --
0020:                                               00                 .
```

#### Opcodes

```
  0: 0x002F [0x00] END_REQSTACK()
```

### Event 10084

#### Metadata

| Field        | Value     |
|--------------|-----------|
| Entrypoint   | 0x0030    |
| Data Size    | 600 bytes |
| Instructions | 147       |

```
      00 01 02 03 04 05 06 07  08 09 0A 0B 0C 0D 0E 0F
      -- -- -- -- -- -- -- --  -- -- -- -- -- -- -- --
0030: 20 01 1A 8C 01 24 06 80  07 80 07 80 25 02 00 10   ....$......%...
0040: 07 80 00 48 00 01 88 01  02 00 10 08 80 00 5C 00  ...H..........\.
0050: 1D 09 80 23 03 01 10 08  80 01 88 01 02 00 10 0A  ...#............
0060: 80 00 70 00 1D 0B 80 23  03 01 10 0A 80 01 88 01  ..p....#........
0070: 02 00 10 0C 80 00 84 00  1D 0D 80 23 03 01 10 0C  ...........#....
0080: 80 01 88 01 02 00 10 0E  80 00 98 00 1D 0F 80 23  ...............#
0090: 03 01 10 0E 80 01 88 01  02 00 10 10 80 00 AC 00  ................
00A0: 1D 11 80 23 03 01 10 10  80 01 88 01 02 00 10 12  ...#............
00B0: 80 00 C0 00 1D 13 80 23  03 01 10 12 80 01 88 01  .......#........
00C0: 02 00 10 14 80 00 D4 00  1D 15 80 23 03 01 10 14  ...........#....
00D0: 80 01 88 01 02 00 10 16  80 00 E8 00 1D 17 80 23  ...............#
00E0: 03 01 10 16 80 01 88 01  02 00 10 18 80 00 FC 00  ................
00F0: 1D 19 80 23 03 01 10 18  80 01 88 01 02 00 10 1A  ...#............
0100: 80 00 10 01 1D 1B 80 23  03 01 10 1A 80 01 88 01  .......#........
0110: 02 00 10 1C 80 00 24 01  1D 1D 80 23 03 01 10 1C  ......$....#....
0120: 80 01 88 01 02 00 10 1E  80 00 38 01 1D 1F 80 23  ..........8....#
0130: 03 01 10 1E 80 01 88 01  02 00 10 20 80 00 4C 01  ........... ..L.
0140: 1D 21 80 23 03 01 10 20  80 01 88 01 02 00 10 22  .!.#... ......."
0150: 80 00 60 01 1D 23 80 23  03 01 10 22 80 01 88 01  ..`..#.#..."....
0160: 02 00 10 24 80 00 74 01  1D 25 80 23 03 01 10 24  ...$..t..%.#...$
0170: 80 01 88 01 02 00 10 26  80 00 88 01 1D 27 80 23  .......&.....'.#
0180: 03 01 10 26 80 01 88 01  20 00 21 00 06 03 17 06  ...&.... .!.....
0190: 04 17 06 05 17 06 06 17  06 07 17 06 08 17 06 09  ................
01A0: 17 06 0A 17 06 0B 17 06  0C 17 06 0D 17 06 0E 17  ................
01B0: 06 0F 17 06 10 17 06 11  17 06 12 17 03 01 10 28  ...............(
01C0: 80 43 00 43 01 02 03 10  07 80 01 D0 01 05 03 17  .C.C............
01D0: 02 04 10 07 80 01 DB 01  05 04 17 02 05 10 07 80  ................
01E0: 01 E6 01 05 05 17 02 06  10 07 80 01 F1 01 05 06  ................
01F0: 17 02 07 10 07 80 01 FC  01 05 07 17 02 08 10 07  ................
0200: 80 01 07 02 05 08 17 02  09 10 07 80 01 12 02 05  ................
0210: 09 17 03 01 10 29 80 43  00 43 01 02 03 10 07 80  .....).C.C......
0220: 01 26 02 05 0A 17 02 04  10 07 80 01 31 02 05 0B  .&..........1...
0230: 17 02 05 10 07 80 01 3C  02 05 0C 17 02 06 10 07  .......<........
0240: 80 01 47 02 05 0D 17 02  07 10 07 80 01 52 02 05  ..G..........R..
0250: 0E 17 02 08 10 07 80 01  5D 02 05 0F 17 02 09 10  ........].......
0260: 07 80 01 68 02 05 10 17  03 01 10 2A 80 43 00 43  ...h.......*.C.C
0270: 01 02 03 10 07 80 01 7C  02 05 11 17 02 04 10 07  .......|........
0280: 80 01 87 02 05 12 17 1B                           ........        
```

#### Opcodes

```
  0: 0x0030 [0x20] SET_CLI_EVENT_UC_FLAG: Lock player control
  1: 0x0032 [0x1A] CALL_SUBROUTINE(address=0x018C)
  2: 0x0035 [0x24] CREATE_DIALOG(message_id=7085*, default_option=0*, option_flags=0*)
    → "$26Dale's Monstaru List$26 [Close list./Tumbling Truffle [ /x]/Tottering Toby [ /x]/Blubbery Bulge [ /x]/Black Triple Stars [ /x]/Drooling Daisy [ /x]/Jolly Green [ /x]/Sharp-Eared Ropipi [ /x]/Buburimboo [ /x]/Daggerclaw Dracos [ /x]/Trickster Kinetix [ /x]/Ixtab [ /x]/Gargantua [ /x]/Shadow Eye [ /x]/Boreal Coeurl [ /x]/Boreal Hound [ /x]/Boreal Tiger [ /x]]"
  3: 0x003C [0x25] WAIT_DIALOG_SELECT()
  4: 0x003D [0x02] IF !(Work_Zone[0] == 0*) GOTO 0x0048
  5: 0x0045 [0x01] GOTO 0x0188
  6: 0x0048 [0x02] IF !(Work_Zone[0] == 1*) GOTO 0x005C
  7: 0x0050 [0x1D] PRINT_EVENT_MESSAGE(message_id=7087*)
    → "Tumbling Truffle is a creature from the funguar family. It's known to inhabitaru valley floors near the Crag of Holla, in the northeastern area of the La Theine Plateau."
  8: 0x0053 [0x23] WAIT_FOR_DIALOG_INTERACTION
  9: 0x0054 [0x03] Work_Zone[1] = 1*
 10: 0x0059 [0x01] GOTO 0x0188
 11: 0x005C [0x02] IF !(Work_Zone[0] == 2*) GOTO 0x0070
 12: 0x0064 [0x1D] PRINT_EVENT_MESSAGE(message_id=7088*)
    → "Tottering Toby is a creature from the sapling family. It's been observed around Coveffe Barrows, in the Batallia Downs."
 13: 0x0067 [0x23] WAIT_FOR_DIALOG_INTERACTION
 14: 0x0068 [0x03] Work_Zone[1] = 2*
 15: 0x006D [0x01] GOTO 0x0188
 16: 0x0070 [0x02] IF !(Work_Zone[0] == 3*) GOTO 0x0084
 17: 0x0078 [0x1D] PRINT_EVENT_MESSAGE(message_id=7089*)
    → "Blubbery Bulge is a creature from the slime family. It's been observed around the Disused Well in the southwestern region of Davoi."
 18: 0x007B [0x23] WAIT_FOR_DIALOG_INTERACTION
 19: 0x007C [0x03] Work_Zone[1] = 3*
 20: 0x0081 [0x01] GOTO 0x0188
 21: 0x0084 [0x02] IF !(Work_Zone[0] == 4*) GOTO 0x0098
 22: 0x008C [0x1D] PRINT_EVENT_MESSAGE(message_id=7090*)
    → "Black Triple Stars is a creature from the bat family. It's a known inhabitant of Brutus's Field in the Rolanberry Fields."
 23: 0x008F [0x23] WAIT_FOR_DIALOG_INTERACTION
 24: 0x0090 [0x03] Work_Zone[1] = 4*
 25: 0x0095 [0x01] GOTO 0x0188
 26: 0x0098 [0x02] IF !(Work_Zone[0] == 5*) GOTO 0x00AC
 27: 0x00A0 [0x1D] PRINT_EVENT_MESSAGE(message_id=7091*)
    → "Drooling Daisy is a creature from the morbol family. It's been observed near the Fountain of Partings in the Rolanberry Fields."
 28: 0x00A3 [0x23] WAIT_FOR_DIALOG_INTERACTION
 29: 0x00A4 [0x03] Work_Zone[1] = 5*
 30: 0x00A9 [0x01] GOTO 0x0188
 31: 0x00AC [0x02] IF !(Work_Zone[0] == 6*) GOTO 0x00C0
 32: 0x00B4 [0x1D] PRINT_EVENT_MESSAGE(message_id=7092*)
    → "Jolly Green is a creature from the goobbue family. It's supposed to inhabitaru the Luremarsh area in the Pashhow Marshlands."
 33: 0x00B7 [0x23] WAIT_FOR_DIALOG_INTERACTION
 34: 0x00B8 [0x03] Work_Zone[1] = 6*
 35: 0x00BD [0x01] GOTO 0x0188
 36: 0x00C0 [0x02] IF !(Work_Zone[0] == 7*) GOTO 0x00D4
 37: 0x00C8 [0x1D] PRINT_EVENT_MESSAGE(message_id=7093*)
    → "Sharp-Eared Ropipi is a creature from the rabbit family. It inhabits the southeastern region of East Sarutabaruta."
 38: 0x00CB [0x23] WAIT_FOR_DIALOG_INTERACTION
 39: 0x00CC [0x03] Work_Zone[1] = 7*
 40: 0x00D1 [0x01] GOTO 0x0188
 41: 0x00D4 [0x02] IF !(Work_Zone[0] == 8*) GOTO 0x00E8
 42: 0x00DC [0x1D] PRINT_EVENT_MESSAGE(message_id=7094*)
    → "Buburimboo is a creature from the pugil family. It's a known inhabitant of the Mighoya Dunes in the Buburimu Peninsula."
 43: 0x00DF [0x23] WAIT_FOR_DIALOG_INTERACTION
 44: 0x00E0 [0x03] Work_Zone[1] = 8*
 45: 0x00E5 [0x01] GOTO 0x0188
 46: 0x00E8 [0x02] IF !(Work_Zone[0] == 9*) GOTO 0x00FC
 47: 0x00F0 [0x1D] PRINT_EVENT_MESSAGE(message_id=7095*)
    → "Daggerclaw Dracos is a creature from the raptor family. It's been observed in the southeastern region of the Meriphataud Mountains."
 48: 0x00F3 [0x23] WAIT_FOR_DIALOG_INTERACTION
 49: 0x00F4 [0x03] Work_Zone[1] = 9*
 50: 0x00F9 [0x01] GOTO 0x0188
 51: 0x00FC [0x02] IF !(Work_Zone[0] == 10*) GOTO 0x0110
 52: 0x0104 [0x1D] PRINT_EVENT_MESSAGE(message_id=7096*)
    → "Trickster Kinetix is a creature from the evil weapon family. It's been seen in the open area near Delkfutt's Tower on Qufim Island."
 53: 0x0107 [0x23] WAIT_FOR_DIALOG_INTERACTION
 54: 0x0108 [0x03] Work_Zone[1] = 10*
 55: 0x010D [0x01] GOTO 0x0188
 56: 0x0110 [0x02] IF !(Work_Zone[0] == 11*) GOTO 0x0124
 57: 0x0118 [0x1D] PRINT_EVENT_MESSAGE(message_id=7097*)
    → "Ixtab is a creature from the ghost family. It supposedly dwells in one of the roomy-wooms inside Upper Delkfutt's Tower."
 58: 0x011B [0x23] WAIT_FOR_DIALOG_INTERACTION
 59: 0x011C [0x03] Work_Zone[1] = 11*
 60: 0x0121 [0x01] GOTO 0x0188
 61: 0x0124 [0x02] IF !(Work_Zone[0] == 12*) GOTO 0x0138
 62: 0x012C [0x1D] PRINT_EVENT_MESSAGE(message_id=7098*)
    → "Gargantua is a creature from the golem family. It's a known inhabitant of the coastaru area in eastern Beaucedine Glacier."
 63: 0x012F [0x23] WAIT_FOR_DIALOG_INTERACTION
 64: 0x0130 [0x03] Work_Zone[1] = 12*
 65: 0x0135 [0x01] GOTO 0x0188
 66: 0x0138 [0x02] IF !(Work_Zone[0] == 13*) GOTO 0x014C
 67: 0x0140 [0x1D] PRINT_EVENT_MESSAGE(message_id=7099*)
    → "Shadow Eye is a creature from the Ahriman family. It's been seen in western Xarcabard."
 68: 0x0143 [0x23] WAIT_FOR_DIALOG_INTERACTION
 69: 0x0144 [0x03] Work_Zone[1] = 13*
 70: 0x0149 [0x01] GOTO 0x0188
 71: 0x014C [0x02] IF !(Work_Zone[0] == 14*) GOTO 0x0160
 72: 0x0154 [0x1D] PRINT_EVENT_MESSAGE(message_id=7100*)
    → "Boreal Coeurl is a creature from the coeurl family. It supposedly dwells inside a cavey-wave in the northeastern region of Xarcabard."
 73: 0x0157 [0x23] WAIT_FOR_DIALOG_INTERACTION
 74: 0x0158 [0x03] Work_Zone[1] = 14*
 75: 0x015D [0x01] GOTO 0x0188
 76: 0x0160 [0x02] IF !(Work_Zone[0] == 15*) GOTO 0x0174
 77: 0x0168 [0x1D] PRINT_EVENT_MESSAGE(message_id=7101*)
    → "Boreal Hound is a creature from the hound family. It supposedly dwells inside a cavey-wave in the southwestern region of Xarcabard."
 78: 0x016B [0x23] WAIT_FOR_DIALOG_INTERACTION
 79: 0x016C [0x03] Work_Zone[1] = 15*
 80: 0x0171 [0x01] GOTO 0x0188
 81: 0x0174 [0x02] IF !(Work_Zone[0] == 16*) GOTO 0x0188
 82: 0x017C [0x1D] PRINT_EVENT_MESSAGE(message_id=7102*)
    → "Boreal Tiger is a creature from the tiger family. It supposedly dwells inside a cavey-wave in the northern region of Xarcabard."
 83: 0x017F [0x23] WAIT_FOR_DIALOG_INTERACTION
 84: 0x0180 [0x03] Work_Zone[1] = 16*
 85: 0x0185 [0x01] GOTO 0x0188

SUBROUTINE_0188:
 86: 0x0188 [0x20] SET_CLI_EVENT_UC_FLAG: Unlock player control
 87: 0x018A [0x21] END_EVENT
 88: 0x018B [0x00] END_REQSTACK()

SUBROUTINE_018C:
 89: 0x018C [0x06] Work_Zone_1700[3] = 0
 90: 0x018F [0x06] Work_Zone_1700[4] = 0
 91: 0x0192 [0x06] Work_Zone_1700[5] = 0
 92: 0x0195 [0x06] Work_Zone_1700[6] = 0
 93: 0x0198 [0x06] Work_Zone_1700[7] = 0
 94: 0x019B [0x06] Work_Zone_1700[8] = 0
 95: 0x019E [0x06] Work_Zone_1700[9] = 0
 96: 0x01A1 [0x06] Work_Zone_1700[10] = 0
 97: 0x01A4 [0x06] Work_Zone_1700[11] = 0
 98: 0x01A7 [0x06] Work_Zone_1700[12] = 0
 99: 0x01AA [0x06] Work_Zone_1700[13] = 0
100: 0x01AD [0x06] Work_Zone_1700[14] = 0
101: 0x01B0 [0x06] Work_Zone_1700[15] = 0
102: 0x01B3 [0x06] Work_Zone_1700[16] = 0
103: 0x01B6 [0x06] Work_Zone_1700[17] = 0
104: 0x01B9 [0x06] Work_Zone_1700[18] = 0
105: 0x01BC [0x03] Work_Zone[1] = 50*
106: 0x01C1 [0x43] SEND_EVENT_UPDATE: Send pending tag to server (packet 0x005B)
107: 0x01C3 [0x43] SEND_EVENT_UPDATE: Check pending flag (skip if not pending)
108: 0x01C5 [0x02] IF !(Work_Zone[3] == 0*) GOTO 0x01D0
109: 0x01CD [0x05] Work_Zone_1700[3] = 1
110: 0x01D0 [0x02] IF !(Work_Zone[4] == 0*) GOTO 0x01DB
111: 0x01D8 [0x05] Work_Zone_1700[4] = 1
112: 0x01DB [0x02] IF !(Work_Zone[5] == 0*) GOTO 0x01E6
113: 0x01E3 [0x05] Work_Zone_1700[5] = 1
114: 0x01E6 [0x02] IF !(Work_Zone[6] == 0*) GOTO 0x01F1
115: 0x01EE [0x05] Work_Zone_1700[6] = 1
116: 0x01F1 [0x02] IF !(Work_Zone[7] == 0*) GOTO 0x01FC
117: 0x01F9 [0x05] Work_Zone_1700[7] = 1
118: 0x01FC [0x02] IF !(Work_Zone[8] == 0*) GOTO 0x0207
119: 0x0204 [0x05] Work_Zone_1700[8] = 1
120: 0x0207 [0x02] IF !(Work_Zone[9] == 0*) GOTO 0x0212
121: 0x020F [0x05] Work_Zone_1700[9] = 1
122: 0x0212 [0x03] Work_Zone[1] = 51*
123: 0x0217 [0x43] SEND_EVENT_UPDATE: Send pending tag to server (packet 0x005B)
124: 0x0219 [0x43] SEND_EVENT_UPDATE: Check pending flag (skip if not pending)
125: 0x021B [0x02] IF !(Work_Zone[3] == 0*) GOTO 0x0226
126: 0x0223 [0x05] Work_Zone_1700[10] = 1
127: 0x0226 [0x02] IF !(Work_Zone[4] == 0*) GOTO 0x0231
128: 0x022E [0x05] Work_Zone_1700[11] = 1
129: 0x0231 [0x02] IF !(Work_Zone[5] == 0*) GOTO 0x023C
130: 0x0239 [0x05] Work_Zone_1700[12] = 1
131: 0x023C [0x02] IF !(Work_Zone[6] == 0*) GOTO 0x0247
132: 0x0244 [0x05] Work_Zone_1700[13] = 1
133: 0x0247 [0x02] IF !(Work_Zone[7] == 0*) GOTO 0x0252
134: 0x024F [0x05] Work_Zone_1700[14] = 1
135: 0x0252 [0x02] IF !(Work_Zone[8] == 0*) GOTO 0x025D
136: 0x025A [0x05] Work_Zone_1700[15] = 1
137: 0x025D [0x02] IF !(Work_Zone[9] == 0*) GOTO 0x0268
138: 0x0265 [0x05] Work_Zone_1700[16] = 1
139: 0x0268 [0x03] Work_Zone[1] = 52*
140: 0x026D [0x43] SEND_EVENT_UPDATE: Send pending tag to server (packet 0x005B)
141: 0x026F [0x43] SEND_EVENT_UPDATE: Check pending flag (skip if not pending)
142: 0x0271 [0x02] IF !(Work_Zone[3] == 0*) GOTO 0x027C
143: 0x0279 [0x05] Work_Zone_1700[17] = 1
144: 0x027C [0x02] IF !(Work_Zone[4] == 0*) GOTO 0x0287
145: 0x0284 [0x05] Work_Zone_1700[18] = 1
146: 0x0287 [0x1B] RETURN
```
