# 17781026

## Common Data

| Field            | Value                 |
|------------------|-----------------------|
| Zone             | Lower Jeuno (ID: 245) |
| Block Size       | 24696 bytes           |
| Total Events     | 8                     |
| References Count | 368                   |

## List of Events

| Event ID              | Entrypoint   |   Size |   Instructions |
|-----------------------|--------------|--------|----------------|
| [65535](#event-65535) | 0x0000       |    658 |             62 |
| [20087](#event-20087) | 0x0292       |   2124 |            278 |
| [20089](#event-20089) | 0x0ADE       |   8936 |           1223 |
| [20088](#event-20088) | 0x2DC6       |    120 |             25 |
| [20090](#event-20090) | 0x2E3E       |     97 |             19 |
| [20091](#event-20091) | 0x2E9F       |   4184 |            575 |
| [20093](#event-20093) | 0x3EF7       |   6907 |            975 |
| [20092](#event-20092) | 0x59F2       |    149 |             30 |

## DAT References (imed_data)

|   Index | Hex Value   |   Dec Value |
|---------|-------------|-------------|
|       0 | 0x00C8      |         200 |
|       1 | 0x0000      |           0 |
|       2 | 0x00C9      |         201 |
|       3 | 0x0001      |           1 |
|       4 | 0x002D      |          45 |
|       5 | 0x0002      |           2 |
|       6 | 0x001E      |          30 |
|       7 | 0x00D7      |         215 |
|       8 | 0x012C      |         300 |
|       9 | 0x0093      |         147 |
|      10 | 0x01CF      |         463 |
|      11 | 0xFFFF9738  |  4294940472 |
|      12 | 0xFFFDE886  |  4294830214 |
|      13 | 0x11F9      |        4601 |
|      14 | 0x0514      |        1300 |
|      15 | 0xFFFF9674  |  4294940276 |
|      16 | 0xFFFDCCF7  |  4294823159 |
|      17 | 0x1003      |        4099 |
|      18 | 0x0B6B      |        2923 |
|      19 | 0xFFFF7356  |  4294931286 |
|      20 | 0xFFFDDE3E  |  4294827582 |
|      21 | 0x157B      |        5499 |
|      22 | 0x096E      |        2414 |
|      23 | 0xFFFF90B2  |  4294938802 |
|      24 | 0xFFFDDD95  |  4294827413 |
|      25 | 0x0CD5      |        3285 |
|      26 | 0x00DD      |         221 |
|      27 | 0x007F      |         127 |
|      28 | 0x037E      |         894 |
|      29 | 0x2B41      |       11073 |
|      30 | 0x0032      |          50 |
|      31 | 0x2B42      |       11074 |
|      32 | 0x2B43      |       11075 |
|      33 | 0x2B44      |       11076 |
|      34 | 0x2B45      |       11077 |
|      35 | 0x2B46      |       11078 |
|      36 | 0x2B47      |       11079 |
|      37 | 0x0005      |           5 |
|      38 | 0x0006      |           6 |
|      39 | 0x2B48      |       11080 |
|      40 | 0x2B49      |       11081 |
|      41 | 0x0003      |           3 |
|      42 | 0x0008      |           8 |
|      43 | 0x2B4A      |       11082 |
|      44 | 0x2B4B      |       11083 |
|      45 | 0x2B4C      |       11084 |
|      46 | 0x003C      |          60 |
|      47 | 0x2B4D      |       11085 |
|      48 | 0x2B4E      |       11086 |
|      49 | 0x2B4F      |       11087 |
|      50 | 0x2B50      |       11088 |
|      51 | 0x2B51      |       11089 |
|      52 | 0x2B52      |       11090 |
|      53 | 0x0007      |           7 |
|      54 | 0x005A      |          90 |
|      55 | 0x2B53      |       11091 |
|      56 | 0x2B54      |       11092 |
|      57 | 0x2B55      |       11093 |
|      58 | 0x2B56      |       11094 |
|      59 | 0x2B57      |       11095 |
|      60 | 0x2B58      |       11096 |
|      61 | 0x006E      |         110 |
|      62 | 0x000F      |          15 |
|      63 | 0x01D2      |         466 |
|      64 | 0x9BDA      |       39898 |
|      65 | 0x12D86     |       77190 |
|      66 | 0xFFFFEC79  |  4294962297 |
|      67 | 0x05C1      |        1473 |
|      68 | 0xFFFEDACD  |  4294892237 |
|      69 | 0xFFFD7C45  |  4294802501 |
|      70 | 0xFFFFE823  |  4294961187 |
|      71 | 0x0562      |        1378 |
|      72 | 0xFFFEB6CF  |  4294883023 |
|      73 | 0xFFFD71C3  |  4294799811 |
|      74 | 0xFFFFE890  |  4294961296 |
|      75 | 0x014B      |         331 |
|      76 | 0x980B      |       38923 |
|      77 | 0x125EE     |       75246 |
|      78 | 0x0D28      |        3368 |
|      79 | 0x2B5B      |       11099 |
|      80 | 0x00FF      |         255 |
|      81 | 0x00E3      |         227 |
|      82 | 0x0014      |          20 |
|      83 | 0x000A      |          10 |
|      84 | 0x0078      |         120 |
|      85 | 0x2B5C      |       11100 |
|      86 | 0x2B5D      |       11101 |
|      87 | 0x0400      |        1024 |
|      88 | 0x062B      |        1579 |
|      89 | 0x032B      |         811 |
|      90 | 0x002B      |          43 |
|      91 | 0x042B      |        1067 |
|      92 | 0x012B      |         299 |
|      93 | 0x052B      |        1323 |
|      94 | 0x022B      |         555 |
|      95 | 0x2B5E      |       11102 |
|      96 | 0x0015      |          21 |
|      97 | 0xFFFED0F4  |  4294889716 |
|      98 | 0xFFFD64B3  |  4294796467 |
|      99 | 0xFFFFE82D  |  4294961197 |
|     100 | 0x0CE7      |        3303 |
|     101 | 0x2B5F      |       11103 |
|     102 | 0xFFFED620  |  4294891040 |
|     103 | 0xFFFD7445  |  4294800453 |
|     104 | 0x0D32      |        3378 |
|     105 | 0xFFFED6D4  |  4294891220 |
|     106 | 0xFFFD7485  |  4294800517 |
|     107 | 0xFFFFE82C  |  4294961196 |
|     108 | 0xFFFEDC91  |  4294892689 |
|     109 | 0xFFFD8092  |  4294803602 |
|     110 | 0x0D33      |        3379 |
|     111 | 0x2B60      |       11104 |
|     112 | 0xFFFED76E  |  4294891374 |
|     113 | 0xFFFD7438  |  4294800440 |
|     114 | 0x2B61      |       11105 |
|     115 | 0x2B62      |       11106 |
|     116 | 0x2B63      |       11107 |
|     117 | 0x2B64      |       11108 |
|     118 | 0x2B65      |       11109 |
|     119 | 0x0041      |          65 |
|     120 | 0xFFFED648  |  4294891080 |
|     121 | 0xFFFD7474  |  4294800500 |
|     122 | 0x0BB8      |        3000 |
|     123 | 0x2B66      |       11110 |
|     124 | 0x2B67      |       11111 |
|     125 | 0x00FB      |         251 |
|     126 | 0x2B68      |       11112 |
|     127 | 0x000B      |          11 |
|     128 | 0x2B69      |       11113 |
|     129 | 0x0013      |          19 |
|     130 | 0x2B6A      |       11114 |
|     131 | 0x2B6B      |       11115 |
|     132 | 0x2B6C      |       11116 |
|     133 | 0x0016      |          22 |
|     134 | 0x2B6D      |       11117 |
|     135 | 0x0023      |          35 |
|     136 | 0x2B6E      |       11118 |
|     137 | 0x2B6F      |       11119 |
|     138 | 0x001D      |          29 |
|     139 | 0xFFFED613  |  4294891027 |
|     140 | 0xFFFD747D  |  4294800509 |
|     141 | 0x0080      |         128 |
|     142 | 0x2B70      |       11120 |
|     143 | 0x0500      |        1280 |
|     144 | 0x2B71      |       11121 |
|     145 | 0xFFFED7AE  |  4294891438 |
|     146 | 0xFFFD72A2  |  4294800034 |
|     147 | 0x050F      |        1295 |
|     148 | 0xFFFED37A  |  4294890362 |
|     149 | 0xFFFD7B9F  |  4294802335 |
|     150 | 0x0530      |        1328 |
|     151 | 0x2B72      |       11122 |
|     152 | 0x2B73      |       11123 |
|     153 | 0x2B74      |       11124 |
|     154 | 0x2B75      |       11125 |
|     155 | 0x257F      |        9599 |
|     156 | 0x001F      |          31 |
|     157 | 0xFFFFFF19  |  4294967065 |
|     158 | 0x044C      |        1100 |
|     159 | 0x03E8      |        1000 |
|     160 | 0x0096      |         150 |
|     161 | 0x080A      |        2058 |
|     162 | 0x2B76      |       11126 |
|     163 | 0x2B77      |       11127 |
|     164 | 0x2B78      |       11128 |
|     165 | 0x2B79      |       11129 |
|     166 | 0x2B7A      |       11130 |
|     167 | 0x2B7B      |       11131 |
|     168 | 0x2B7C      |       11132 |
|     169 | 0x2B7D      |       11133 |
|     170 | 0x2B7E      |       11134 |
|     171 | 0x2B7F      |       11135 |
|     172 | 0x2B80      |       11136 |
|     173 | 0x2B81      |       11137 |
|     174 | 0x2B82      |       11138 |
|     175 | 0x2B83      |       11139 |
|     176 | 0x2B84      |       11140 |
|     177 | 0x2B85      |       11141 |
|     178 | 0x0024      |          36 |
|     179 | 0x2B86      |       11142 |
|     180 | 0x2B87      |       11143 |
|     181 | 0x000E      |          14 |
|     182 | 0x2B88      |       11144 |
|     183 | 0x2B89      |       11145 |
|     184 | 0x2B8A      |       11146 |
|     185 | 0x2B8B      |       11147 |
|     186 | 0x000C      |          12 |
|     187 | 0x07FF      |        2047 |
|     188 | 0x0028      |          40 |
|     189 | 0x493E0     |      300000 |
|     190 | 0x01D8      |         472 |
|     191 | 0x2B59      |       11097 |
|     192 | 0x2B5A      |       11098 |
|     193 | 0x01DA      |         474 |
|     194 | 0x01DE      |         478 |
|     195 | 0x2B8F      |       11151 |
|     196 | 0x2B90      |       11152 |
|     197 | 0x2B91      |       11153 |
|     198 | 0x2B92      |       11154 |
|     199 | 0x2B8C      |       11148 |
|     200 | 0x2B8D      |       11149 |
|     201 | 0x2B8E      |       11150 |
|     202 | 0xFFFF9331  |  4294939441 |
|     203 | 0xFFFDDFE8  |  4294828008 |
|     204 | 0x0CC1      |        3265 |
|     205 | 0xFFFF7742  |  4294932290 |
|     206 | 0xFFFDE765  |  4294829925 |
|     207 | 0x01B1      |         433 |
|     208 | 0xFFFF7B63  |  4294933347 |
|     209 | 0xFFFDE889  |  4294830217 |
|     210 | 0x0104      |         260 |
|     211 | 0x0019      |          25 |
|     212 | 0x0380      |         896 |
|     213 | 0x2B93      |       11155 |
|     214 | 0x2B94      |       11156 |
|     215 | 0x2B95      |       11157 |
|     216 | 0x0022      |          34 |
|     217 | 0x2B96      |       11158 |
|     218 | 0x2B97      |       11159 |
|     219 | 0x0021      |          33 |
|     220 | 0x2B98      |       11160 |
|     221 | 0x2B99      |       11161 |
|     222 | 0x2B9A      |       11162 |
|     223 | 0x2B9B      |       11163 |
|     224 | 0x2B9C      |       11164 |
|     225 | 0x2B9D      |       11165 |
|     226 | 0x2B9E      |       11166 |
|     227 | 0x2B9F      |       11167 |
|     228 | 0x2BA0      |       11168 |
|     229 | 0x2BA1      |       11169 |
|     230 | 0x2BA2      |       11170 |
|     231 | 0x2BA3      |       11171 |
|     232 | 0x2BA4      |       11172 |
|     233 | 0x001B      |          27 |
|     234 | 0x2BA5      |       11173 |
|     235 | 0x2BA6      |       11174 |
|     236 | 0x2BA7      |       11175 |
|     237 | 0x2BA8      |       11176 |
|     238 | 0x2BA9      |       11177 |
|     239 | 0x2BAA      |       11178 |
|     240 | 0x2BAB      |       11179 |
|     241 | 0x2BAC      |       11180 |
|     242 | 0x2BAD      |       11181 |
|     243 | 0x1139      |        4409 |
|     244 | 0x2BAE      |       11182 |
|     245 | 0x0064      |         100 |
|     246 | 0x2BAF      |       11183 |
|     247 | 0x2BB0      |       11184 |
|     248 | 0x2BB1      |       11185 |
|     249 | 0x2BB2      |       11186 |
|     250 | 0x2BB3      |       11187 |
|     251 | 0x2BB4      |       11188 |
|     252 | 0x2BB5      |       11189 |
|     253 | 0x2BB6      |       11190 |
|     254 | 0x2BB7      |       11191 |
|     255 | 0x2BB8      |       11192 |
|     256 | 0x2BB9      |       11193 |
|     257 | 0x2BBA      |       11194 |
|     258 | 0x2BBB      |       11195 |
|     259 | 0x2BBC      |       11196 |
|     260 | 0x001A      |          26 |
|     261 | 0x2BBD      |       11197 |
|     262 | 0x2BBE      |       11198 |
|     263 | 0x2BBF      |       11199 |
|     264 | 0x2BC0      |       11200 |
|     265 | 0x2BC1      |       11201 |
|     266 | 0x2BC2      |       11202 |
|     267 | 0xFFFF9F45  |  4294942533 |
|     268 | 0xFFFDD9E0  |  4294826464 |
|     269 | 0x0103      |         259 |
|     270 | 0xFFFF9395  |  4294939541 |
|     271 | 0xFFFDE15D  |  4294828381 |
|     272 | 0xFFFF935F  |  4294939487 |
|     273 | 0xFFFDDB09  |  4294826761 |
|     274 | 0xFFFF8AA5  |  4294937253 |
|     275 | 0xFFFDDE58  |  4294827608 |
|     276 | 0x2BC7      |       11207 |
|     277 | 0x2BC8      |       11208 |
|     278 | 0x2BC9      |       11209 |
|     279 | 0x2BCA      |       11210 |
|     280 | 0x2BCB      |       11211 |
|     281 | 0x2BCC      |       11212 |
|     282 | 0x2BCD      |       11213 |
|     283 | 0x2BCE      |       11214 |
|     284 | 0xFFFFFF1F  |  4294967071 |
|     285 | 0x05DC      |        1500 |
|     286 | 0x2BCF      |       11215 |
|     287 | 0x2BD0      |       11216 |
|     288 | 0x2BD1      |       11217 |
|     289 | 0x2BD2      |       11218 |
|     290 | 0x2BD3      |       11219 |
|     291 | 0x0020      |          32 |
|     292 | 0x2BD4      |       11220 |
|     293 | 0x2BD5      |       11221 |
|     294 | 0x2BD6      |       11222 |
|     295 | 0x2BD7      |       11223 |
|     296 | 0x0004      |           4 |
|     297 | 0x2BD8      |       11224 |
|     298 | 0x2BD9      |       11225 |
|     299 | 0x2BDA      |       11226 |
|     300 | 0x2BDB      |       11227 |
|     301 | 0x2BDC      |       11228 |
|     302 | 0x2BDD      |       11229 |
|     303 | 0x2BDE      |       11230 |
|     304 | 0x2BDF      |       11231 |
|     305 | 0x2BE0      |       11232 |
|     306 | 0x2BE1      |       11233 |
|     307 | 0x2BE2      |       11234 |
|     308 | 0x2BE3      |       11235 |
|     309 | 0x2BE4      |       11236 |
|     310 | 0x2BE5      |       11237 |
|     311 | 0x2BE6      |       11238 |
|     312 | 0x2BE7      |       11239 |
|     313 | 0x2BE8      |       11240 |
|     314 | 0x2BE9      |       11241 |
|     315 | 0x2BEA      |       11242 |
|     316 | 0x2BEB      |       11243 |
|     317 | 0xFFFF836C  |  4294935404 |
|     318 | 0xFFFDE512  |  4294829330 |
|     319 | 0x00E9      |         233 |
|     320 | 0x2BEC      |       11244 |
|     321 | 0x2BED      |       11245 |
|     322 | 0x2BEE      |       11246 |
|     323 | 0x2BEF      |       11247 |
|     324 | 0x2BF0      |       11248 |
|     325 | 0x2BF1      |       11249 |
|     326 | 0x0010      |          16 |
|     327 | 0x2BF2      |       11250 |
|     328 | 0x2BF3      |       11251 |
|     329 | 0x2BF4      |       11252 |
|     330 | 0x2BF5      |       11253 |
|     331 | 0x0378      |         888 |
|     332 | 0x2BF6      |       11254 |
|     333 | 0x2BF7      |       11255 |
|     334 | 0x2BF8      |       11256 |
|     335 | 0x2BF9      |       11257 |
|     336 | 0x2BFA      |       11258 |
|     337 | 0x2BFB      |       11259 |
|     338 | 0x0042      |          66 |
|     339 | 0x2BFC      |       11260 |
|     340 | 0x2BFD      |       11261 |
|     341 | 0x2BFE      |       11262 |
|     342 | 0x2BFF      |       11263 |
|     343 | 0x2C00      |       11264 |
|     344 | 0x2C01      |       11265 |
|     345 | 0x2C02      |       11266 |
|     346 | 0x2C03      |       11267 |
|     347 | 0x2C04      |       11268 |
|     348 | 0x2C05      |       11269 |
|     349 | 0x2C06      |       11270 |
|     350 | 0x2C07      |       11271 |
|     351 | 0x2C08      |       11272 |
|     352 | 0x2C09      |       11273 |
|     353 | 0x2C0A      |       11274 |
|     354 | 0x2C0B      |       11275 |
|     355 | 0x2C0C      |       11276 |
|     356 | 0x2C0D      |       11277 |
|     357 | 0x052D      |        1325 |
|     358 | 0x01E6      |         486 |
|     359 | 0x01EA      |         490 |
|     360 | 0x2BC3      |       11203 |
|     361 | 0x2BC4      |       11204 |
|     362 | 0x2BC5      |       11205 |
|     363 | 0x2BC6      |       11206 |
|     364 | 0x01EE      |         494 |
|     365 | 0x2C0E      |       11278 |
|     366 | 0x2C0F      |       11279 |
|     367 | 0x2C10      |       11280 |

## String References

- **9599**: 
- **11101**: How will you respond? [You forgot this!/I'm a huge fan!/Firesday Night Fever!]
- **11140**: Form a duo with Mumor? [Sure, why not./I think I'll pass./I'm not really a maiden...]
- **11192**: Will you help? [Sure, count me in!/Sorry, I'm busy.]
- **11225**: How about Garazu-Horeizu and Chaos? [The book on maelstrom theory...?/The Fourth Yagudo War...?/Sorry, I forgot.]
- **11227**: How about Garazu-Horeizu and Chaos? [Like the maelstrom theory?/How about the Yagudo War?/Was it the "new discoveries"?]

## Events

### Event 65535

#### Metadata

| Field        | Value     |
|--------------|-----------|
| Entrypoint   | 0x0000    |
| Data Size    | 658 bytes |
| Instructions | 1         |

```
      00 01 02 03 04 05 06 07  08 09 0A 0B 0C 0D 0E 0F
      -- -- -- -- -- -- -- --  -- -- -- -- -- -- -- --
0000: 00 45 00 80 F0 FF FF 7F  F0 FF FF 7F 66 64 69 30  .E..........fdi0
0010: 01 80 55 00 80 F0 FF FF  7F F0 FF FF 7F 66 64 69  ..U..........fdi
0020: 30 1B 45 00 80 F0 FF FF  7F F0 FF FF 7F 66 64 6F  0.E..........fdo
0030: 30 01 80 55 00 80 F0 FF  FF 7F F0 FF FF 7F 66 64  0..U..........fd
0040: 6F 30 1B 45 00 80 F0 FF  FF 7F F0 FF FF 7F 66 64  o0.E..........fd
0050: 69 31 01 80 55 00 80 F0  FF FF 7F F0 FF FF 7F 66  i1..U..........f
0060: 64 69 31 1B 45 00 80 F0  FF FF 7F F0 FF FF 7F 66  di1.E..........f
0070: 64 6F 31 01 80 55 00 80  F0 FF FF 7F F0 FF FF 7F  do1..U..........
0080: 66 64 6F 31 1B 45 02 80  F0 FF FF 7F F0 FF FF 7F  fdo1.E..........
0090: 77 68 69 31 01 80 55 02  80 F0 FF FF 7F F0 FF FF  whi1..U.........
00A0: 7F 77 68 69 31 1B 45 02  80 F0 FF FF 7F F0 FF FF  .whi1.E.........
00B0: 7F 77 68 6F 31 01 80 55  02 80 F0 FF FF 7F F0 FF  .who1..U........
00C0: FF 7F 77 68 6F 31 1B 45  02 80 F0 FF FF 7F F0 FF  ..who1.E........
00D0: FF 7F 77 68 6F 32 01 80  55 02 80 F0 FF FF 7F F0  ..who2..U.......
00E0: FF FF 7F 77 68 6F 32 1B  45 02 80 F0 FF FF 7F F0  ...who2.E.......
00F0: FF FF 7F 77 68 6F 33 01  80 55 02 80 F0 FF FF 7F  ...who3..U......
0100: F0 FF FF 7F 77 68 6F 33  1B 62 03 80 F0 FF FF 7F  ....who3.b......
0110: F0 FF FF 7F 6D 61 69 6E  01 80 1C 04 80 45 00 80  ....main.....E..
0120: F0 FF FF 7F F0 FF FF 7F  66 64 6F 31 01 80 55 00  ........fdo1..U.
0130: 80 F0 FF FF 7F F0 FF FF  7F 66 64 6F 31 1B 45 00  .........fdo1.E.
0140: 80 F0 FF FF 7F F0 FF FF  7F 66 64 69 31 01 80 62  .........fdi1..b
0150: 05 80 F0 FF FF 7F F0 FF  FF 7F 6D 61 69 6E 01 80  ..........main..
0160: 1C 06 80 55 00 80 F0 FF  FF 7F F0 FF FF 7F 66 64  ...U..........fd
0170: 69 31 1B 45 00 80 F0 FF  FF 7F F0 FF FF 7F 62 6C  i1.E..........bl
0180: 6F 6E 01 80 45 02 80 F0  FF FF 7F F0 FF FF 7F 62  on..E..........b
0190: 6C 6F 6E 01 80 1B 45 02  80 F0 FF FF 7F F0 FF FF  lon...E.........
01A0: 7F 77 68 69 30 01 80 55  02 80 F0 FF FF 7F F0 FF  .whi0..U........
01B0: FF 7F 77 68 69 30 1B 45  02 80 F0 FF FF 7F F0 FF  ..whi0.E........
01C0: FF 7F 77 68 6F 30 01 80  55 02 80 F0 FF FF 7F F0  ..who0..U.......
01D0: FF FF 7F 77 68 6F 30 1B  45 07 80 F0 FF FF 7F F0  ...who0.E.......
01E0: FF FF 7F 65 66 6F 6E 01  80 55 07 80 F0 FF FF 7F  ...efon..U......
01F0: F0 FF FF 7F 65 66 6F 6E  1B 45 00 80 F0 FF FF 7F  ....efon.E......
0200: F0 FF FF 7F 66 64 69 73  01 80 1B 45 00 80 F0 FF  ....fdis...E....
0210: FF 7F F0 FF FF 7F 66 64  6F 73 01 80 55 00 80 F0  ......fdos..U...
0220: FF FF 7F F0 FF FF 7F 66  64 6F 73 1B 45 00 80 F0  .......fdos.E...
0230: FF FF 7F F0 FF FF 7F 66  64 69 66 01 80 1B 45 00  .......fdif...E.
0240: 80 F0 FF FF 7F F0 FF FF  7F 66 64 6F 66 01 80 55  .........fdof..U
0250: 00 80 F0 FF FF 7F F0 FF  FF 7F 66 64 6F 66 1B 45  ..........fdof.E
0260: 00 80 F0 FF FF 7F F0 FF  FF 7F 66 64 69 70 01 80  ..........fdip..
0270: 1B 45 00 80 F0 FF FF 7F  F0 FF FF 7F 66 64 6F 70  .E..........fdop
0280: 01 80 55 00 80 F0 FF FF  7F F0 FF FF 7F 66 64 6F  ..U..........fdo
0290: 70 1B                                             p.              
```

#### Opcodes

```
  0: 0x0000 [0x00] END_REQSTACK()
```

#### Data or dead code:

```
# Dead code (unreachable instructions):
     0x0001 [0x45] LOAD_SCHEDULED_TASK: Load scheduler "fdi0" with entities [LocalPlayer, LocalPlayer], work=[200*, 0*]
     0x0012 [0x55] WAIT_LOAD_SCHEDULER: Wait for scheduler "fdi0" with entities [LocalPlayer, LocalPlayer], work=200*
     0x0021 [0x1B] RETURN
     0x0022 [0x45] LOAD_SCHEDULED_TASK: Load scheduler "fdo0" with entities [LocalPlayer, LocalPlayer], work=[200*, 0*]
     0x0033 [0x55] WAIT_LOAD_SCHEDULER: Wait for scheduler "fdo0" with entities [LocalPlayer, LocalPlayer], work=200*
     0x0042 [0x1B] RETURN
     0x0043 [0x45] LOAD_SCHEDULED_TASK: Load scheduler "fdi1" with entities [LocalPlayer, LocalPlayer], work=[200*, 0*]
     0x0054 [0x55] WAIT_LOAD_SCHEDULER: Wait for scheduler "fdi1" with entities [LocalPlayer, LocalPlayer], work=200*
     0x0063 [0x1B] RETURN
     0x0064 [0x45] LOAD_SCHEDULED_TASK: Load scheduler "fdo1" with entities [LocalPlayer, LocalPlayer], work=[200*, 0*]
     0x0075 [0x55] WAIT_LOAD_SCHEDULER: Wait for scheduler "fdo1" with entities [LocalPlayer, LocalPlayer], work=200*
     0x0084 [0x1B] RETURN
     0x0085 [0x45] LOAD_SCHEDULED_TASK: Load scheduler "whi1" with entities [LocalPlayer, LocalPlayer], work=[201*, 0*]
     0x0096 [0x55] WAIT_LOAD_SCHEDULER: Wait for scheduler "whi1" with entities [LocalPlayer, LocalPlayer], work=201*
     0x00A5 [0x1B] RETURN
     0x00A6 [0x45] LOAD_SCHEDULED_TASK: Load scheduler "who1" with entities [LocalPlayer, LocalPlayer], work=[201*, 0*]
     0x00B7 [0x55] WAIT_LOAD_SCHEDULER: Wait for scheduler "who1" with entities [LocalPlayer, LocalPlayer], work=201*
     0x00C6 [0x1B] RETURN
     0x00C7 [0x45] LOAD_SCHEDULED_TASK: Load scheduler "who2" with entities [LocalPlayer, LocalPlayer], work=[201*, 0*]
     0x00D8 [0x55] WAIT_LOAD_SCHEDULER: Wait for scheduler "who2" with entities [LocalPlayer, LocalPlayer], work=201*
     0x00E7 [0x1B] RETURN
     0x00E8 [0x45] LOAD_SCHEDULED_TASK: Load scheduler "who3" with entities [LocalPlayer, LocalPlayer], work=[201*, 0*]
     0x00F9 [0x55] WAIT_LOAD_SCHEDULER: Wait for scheduler "who3" with entities [LocalPlayer, LocalPlayer], work=201*
     0x0108 [0x1B] RETURN
     0x0109 [0x62] LOAD_EVENT_SCHEDULER: Load scheduler "main" with entities [LocalPlayer, LocalPlayer], work=[1*, 0*]
     0x011A [0x1C] WAIT(45* ticks)
     0x011D [0x45] LOAD_SCHEDULED_TASK: Load scheduler "fdo1" with entities [LocalPlayer, LocalPlayer], work=[200*, 0*]
     0x012E [0x55] WAIT_LOAD_SCHEDULER: Wait for scheduler "fdo1" with entities [LocalPlayer, LocalPlayer], work=200*
     0x013D [0x1B] RETURN
     0x013E [0x45] LOAD_SCHEDULED_TASK: Load scheduler "fdi1" with entities [LocalPlayer, LocalPlayer], work=[200*, 0*]
     0x014F [0x62] LOAD_EVENT_SCHEDULER: Load scheduler "main" with entities [LocalPlayer, LocalPlayer], work=[2*, 0*]
     0x0160 [0x1C] WAIT(30* ticks)
     0x0163 [0x55] WAIT_LOAD_SCHEDULER: Wait for scheduler "fdi1" with entities [LocalPlayer, LocalPlayer], work=200*
     0x0172 [0x1B] RETURN
     0x0173 [0x45] LOAD_SCHEDULED_TASK: Load scheduler "blon" with entities [LocalPlayer, LocalPlayer], work=[200*, 0*]
     0x0184 [0x45] LOAD_SCHEDULED_TASK: Load scheduler "blon" with entities [LocalPlayer, LocalPlayer], work=[201*, 0*]
     0x0195 [0x1B] RETURN
     0x0196 [0x45] LOAD_SCHEDULED_TASK: Load scheduler "whi0" with entities [LocalPlayer, LocalPlayer], work=[201*, 0*]
     0x01A7 [0x55] WAIT_LOAD_SCHEDULER: Wait for scheduler "whi0" with entities [LocalPlayer, LocalPlayer], work=201*
     0x01B6 [0x1B] RETURN
     0x01B7 [0x45] LOAD_SCHEDULED_TASK: Load scheduler "who0" with entities [LocalPlayer, LocalPlayer], work=[201*, 0*]
     0x01C8 [0x55] WAIT_LOAD_SCHEDULER: Wait for scheduler "who0" with entities [LocalPlayer, LocalPlayer], work=201*
     0x01D7 [0x1B] RETURN
     0x01D8 [0x45] LOAD_SCHEDULED_TASK: Load scheduler "efon" with entities [LocalPlayer, LocalPlayer], work=[215*, 0*]
     0x01E9 [0x55] WAIT_LOAD_SCHEDULER: Wait for scheduler "efon" with entities [LocalPlayer, LocalPlayer], work=215*
     0x01F8 [0x1B] RETURN
     0x01F9 [0x45] LOAD_SCHEDULED_TASK: Load scheduler "fdis" with entities [LocalPlayer, LocalPlayer], work=[200*, 0*]
     0x020A [0x1B] RETURN
     0x020B [0x45] LOAD_SCHEDULED_TASK: Load scheduler "fdos" with entities [LocalPlayer, LocalPlayer], work=[200*, 0*]
     0x021C [0x55] WAIT_LOAD_SCHEDULER: Wait for scheduler "fdos" with entities [LocalPlayer, LocalPlayer], work=200*
     0x022B [0x1B] RETURN
     0x022C [0x45] LOAD_SCHEDULED_TASK: Load scheduler "fdif" with entities [LocalPlayer, LocalPlayer], work=[200*, 0*]
     0x023D [0x1B] RETURN
     0x023E [0x45] LOAD_SCHEDULED_TASK: Load scheduler "fdof" with entities [LocalPlayer, LocalPlayer], work=[200*, 0*]
     0x024F [0x55] WAIT_LOAD_SCHEDULER: Wait for scheduler "fdof" with entities [LocalPlayer, LocalPlayer], work=200*
     0x025E [0x1B] RETURN
     0x025F [0x45] LOAD_SCHEDULED_TASK: Load scheduler "fdip" with entities [LocalPlayer, LocalPlayer], work=[200*, 0*]
     0x0270 [0x1B] RETURN
     0x0271 [0x45] LOAD_SCHEDULED_TASK: Load scheduler "fdop" with entities [LocalPlayer, LocalPlayer], work=[200*, 0*]
     0x0282 [0x55] WAIT_LOAD_SCHEDULER: Wait for scheduler "fdop" with entities [LocalPlayer, LocalPlayer], work=200*
     0x0291 [0x1B] RETURN
```

### Event 20087

#### Metadata

| Field        | Value      |
|--------------|------------|
| Entrypoint   | 0x0292     |
| Data Size    | 2124 bytes |
| Instructions | 278        |

```
      00 01 02 03 04 05 06 07  08 09 0A 0B 0C 0D 0E 0F
      -- -- -- -- -- -- -- --  -- -- -- -- -- -- -- --
0290:       42 5D 01 80 08 80  1A 64 00 46 01 38 09 80    B].....d.F.8..
02A0: 02 09 10 01 80 01 AE 02  75 00 0A 80 75 01 92 01  ........u...u...
02B0: 19 50 0F 01 92 01 18 50  0F 01 92 01 3E 50 0F 01  .P.....P....>P..
02C0: 94 01 19 50 0F 01 94 01  18 50 0F 01 94 01 3E 50  ...P.....P....>P
02D0: 0F 01 94 01 F0 FF FF 7F  BA 19 50 0F 01 0B 80 0C  ..........P.....
02E0: 80 0D 80 0E 80 BA 18 50  0F 01 0F 80 10 80 11 80  .......P........
02F0: 12 80 BA 3E 50 0F 01 13  80 14 80 15 80 16 80 BA  ...>P...........
0300: F0 FF FF 7F 17 80 18 80  15 80 19 80 80 19 50 0F  ..............P.
0310: 01 80 18 50 0F 01 80 3E  50 0F 01 80 F0 FF FF 7F  ...P...>P.......
0320: 4A 19 50 0F 01 F0 FF FF  7F 4A F0 FF FF 7F 19 50  J.P......J.....P
0330: 0F 01 6F 76 F0 FF FF 7F  6F 76 19 50 0F 01 29 08  ..ov....ov.P..).
0340: F0 FF FF 7F 33 5C 00 1A  80 5C 01 1A 80 9A 5D 1B  ....3\...\....].
0350: 80 03 80 45 1C 80 F8 FF  FF 7F F8 FF FF 7F 73 30  ...E..........s0
0360: 36 32 01 80 1A 43 00 29  0F 19 50 0F 01 96 2B 19  62...C.)..P...+.
0370: 50 0F 01 1D 80 23 29 0F  19 50 0F 01 97 29 0F 19  P....#)..P...)..
0380: 50 0F 01 98 29 0F F0 FF  FF 7F 54 1C 1E 80 1A 64  P...).....T....d
0390: 00 52 1C 80 F8 FF FF 7F  F8 FF FF 7F 73 30 36 32  .R..........s062
03A0: 29 0F F0 FF FF 7F 55 29  0F 19 50 0F 01 99 45 1C  ).....U)..P...E.
03B0: 80 F8 FF FF 7F F8 FF FF  7F 73 30 36 33 01 80 1A  .........s063...
03C0: 43 00 29 0F 19 50 0F 01  74 2B 19 50 0F 01 1F 80  C.)..P..t+.P....
03D0: 23 52 1C 80 F8 FF FF 7F  F8 FF FF 7F 73 30 36 33  #R..........s063
03E0: 45 1C 80 F8 FF FF 7F F8  FF FF 7F 73 30 36 34 01  E..........s064.
03F0: 80 29 0F 19 50 0F 01 75  29 0F 19 50 0F 01 8E 2B  .)..P..u)..P...+
0400: 19 50 0F 01 20 80 23 2B  19 50 0F 01 21 80 23 29  .P.. .#+.P..!.#)
0410: 0F 19 50 0F 01 8F 29 0F  19 50 0F 01 90 2B 19 50  ..P...)..P...+.P
0420: 0F 01 22 80 23 29 0F 19  50 0F 01 91 52 1C 80 F8  ..".#)..P...R...
0430: FF FF 7F F8 FF FF 7F 73  30 36 34 45 1C 80 F8 FF  .......s064E....
0440: FF 7F F8 FF FF 7F 73 30  36 36 01 80 29 0F 19 50  ......s066..)..P
0450: 0F 01 88 2B 19 50 0F 01  23 80 23 29 0F 19 50 0F  ...+.P..#.#)..P.
0460: 01 89 29 0F 19 50 0F 01  8A 2B 19 50 0F 01 24 80  ..)..P...+.P..$.
0470: 23 29 0F 19 50 0F 01 8B  52 1C 80 F8 FF FF 7F F8  #)..P...R.......
0480: FF FF 7F 73 30 36 36 02  09 10 25 80 00 A3 04 45  ...s066...%....E
0490: 1C 80 F8 FF FF 7F F8 FF  FF 7F 73 30 37 30 01 80  ..........s070..
04A0: 01 D0 04 02 09 10 26 80  00 BF 04 45 1C 80 F8 FF  ......&....E....
04B0: FF 7F F8 FF FF 7F 73 30  37 30 01 80 01 D0 04 45  ......s070.....E
04C0: 1C 80 F8 FF FF 7F F8 FF  FF 7F 73 30 36 37 01 80  ..........s067..
04D0: 29 0F 19 50 0F 01 9D 2B  19 50 0F 01 27 80 23 2B  )..P...+.P..'.#+
04E0: 19 50 0F 01 28 80 23 29  0F 19 50 0F 01 9E 02 09  .P..(.#)..P.....
04F0: 10 25 80 00 08 05 52 1C  80 F8 FF FF 7F F8 FF FF  .%....R.........
0500: 7F 73 30 37 30 01 31 05  02 09 10 26 80 00 22 05  .s070.1....&..".
0510: 52 1C 80 F8 FF FF 7F F8  FF FF 7F 73 30 37 30 01  R..........s070.
0520: 31 05 52 1C 80 F8 FF FF  7F F8 FF FF 7F 73 30 36  1.R..........s06
0530: 37 02 09 10 29 80 00 4D  05 45 1C 80 F8 FF FF 7F  7...)..M.E......
0540: F8 FF FF 7F 73 30 36 35  01 80 01 B2 05 02 09 10  ....s065........
0550: 25 80 00 69 05 45 1C 80  F8 FF FF 7F F8 FF FF 7F  %..i.E..........
0560: 73 30 37 31 01 80 01 B2  05 02 09 10 26 80 00 85  s071........&...
0570: 05 45 1C 80 F8 FF FF 7F  F8 FF FF 7F 73 30 37 31  .E..........s071
0580: 01 80 01 B2 05 02 09 10  2A 80 00 A1 05 45 1C 80  ........*....E..
0590: F8 FF FF 7F F8 FF FF 7F  73 30 36 35 01 80 01 B2  ........s065....
05A0: 05 45 1C 80 F8 FF FF 7F  F8 FF FF 7F 73 30 37 33  .E..........s073
05B0: 01 80 29 0F 19 50 0F 01  74 2B 19 50 0F 01 2B 80  ..)..P..t+.P..+.
05C0: 23 2B 19 50 0F 01 2C 80  23 29 0F 19 50 0F 01 75  #+.P..,.#)..P..u
05D0: 02 09 10 29 80 00 EA 05  52 1C 80 F8 FF FF 7F F8  ...)....R.......
05E0: FF FF 7F 73 30 36 35 01  47 06 02 09 10 25 80 00  ...s065.G....%..
05F0: 04 06 52 1C 80 F8 FF FF  7F F8 FF FF 7F 73 30 37  ..R..........s07
0600: 31 01 47 06 02 09 10 26  80 00 1E 06 52 1C 80 F8  1.G....&....R...
0610: FF FF 7F F8 FF FF 7F 73  30 37 31 01 47 06 02 09  .......s071.G...
0620: 10 2A 80 00 38 06 52 1C  80 F8 FF FF 7F F8 FF FF  .*..8.R.........
0630: 7F 73 30 36 35 01 47 06  52 1C 80 F8 FF FF 7F F8  .s065.G.R.......
0640: FF FF 7F 73 30 37 33 45  1C 80 F8 FF FF 7F F8 FF  ...s073E........
0650: FF 7F 73 30 36 38 01 80  29 0F 19 50 0F 01 72 2B  ..s068..)..P..r+
0660: 19 50 0F 01 2D 80 23 29  0F 19 50 0F 01 73 29 0F  .P..-.#)..P..s).
0670: 19 50 0F 01 9A 52 1C 80  F8 FF FF 7F F8 FF FF 7F  .P...R..........
0680: 73 30 36 38 02 09 10 25  80 00 A0 06 45 1C 80 F8  s068...%....E...
0690: FF FF 7F F8 FF FF 7F 73  30 37 32 01 80 01 CD 06  .......s072.....
06A0: 02 09 10 26 80 00 BC 06  45 1C 80 F8 FF FF 7F F8  ...&....E.......
06B0: FF FF 7F 73 30 37 32 01  80 01 CD 06 45 1C 80 F8  ...s072.....E...
06C0: FF FF 7F F8 FF FF 7F 73  30 36 39 01 80 29 0F F0  .......s069..)..
06D0: FF FF 7F 54 1C 2E 80 29  0F F0 FF FF 7F 55 29 0F  ...T...).....U).
06E0: 19 50 0F 01 88 2B 19 50  0F 01 2F 80 23 29 0F 19  .P...+.P../.#)..
06F0: 50 0F 01 89 02 09 10 25  80 00 0E 07 52 1C 80 F8  P......%....R...
0700: FF FF 7F F8 FF FF 7F 73  30 37 32 01 37 07 02 09  .......s072.7...
0710: 10 26 80 00 28 07 52 1C  80 F8 FF FF 7F F8 FF FF  .&..(.R.........
0720: 7F 73 30 37 32 01 37 07  52 1C 80 F8 FF FF 7F F8  .s072.7.R.......
0730: FF FF 7F 73 30 36 39 45  1C 80 F8 FF FF 7F F8 FF  ...s069E........
0740: FF 7F 73 30 36 33 01 80  29 0F 19 50 0F 01 8A 2B  ..s063..)..P...+
0750: 19 50 0F 01 30 80 23 29  0F 19 50 0F 01 8B 29 0F  .P..0.#)..P...).
0760: 19 50 0F 01 74 2B 19 50  0F 01 31 80 23 52 1C 80  .P..t+.P..1.#R..
0770: F8 FF FF 7F F8 FF FF 7F  73 30 36 33 02 09 10 25  ........s063...%
0780: 80 00 98 07 45 1C 80 F8  FF FF 7F F8 FF FF 7F 73  ....E..........s
0790: 30 37 30 01 80 01 C5 07  02 09 10 26 80 00 B4 07  070........&....
07A0: 45 1C 80 F8 FF FF 7F F8  FF FF 7F 73 30 37 30 01  E..........s070.
07B0: 80 01 C5 07 45 1C 80 F8  FF FF 7F F8 FF FF 7F 73  ....E..........s
07C0: 30 36 37 01 80 2B 19 50  0F 01 32 80 23 29 0F 19  067..+.P..2.#)..
07D0: 50 0F 01 75 27 0F 19 50  0F 01 9A 2B 19 50 0F 01  P..u'..P...+.P..
07E0: 33 80 23 2A 0F 19 50 0F  01 29 0F F0 FF FF 7F 6C  3.#*..P..).....l
07F0: 1C 2E 80 02 09 10 25 80  00 0D 08 52 1C 80 F8 FF  ......%....R....
0800: FF 7F F8 FF FF 7F 73 30  37 30 01 36 08 02 09 10  ......s070.6....
0810: 26 80 00 27 08 52 1C 80  F8 FF FF 7F F8 FF FF 7F  &..'.R..........
0820: 73 30 37 30 01 36 08 52  1C 80 F8 FF FF 7F F8 FF  s070.6.R........
0830: FF 7F 73 30 36 37 02 09  10 29 80 00 52 08 45 1C  ..s067...)..R.E.
0840: 80 F8 FF FF 7F F8 FF FF  7F 73 30 36 35 01 80 01  .........s065...
0850: B7 08 02 09 10 25 80 00  6E 08 45 1C 80 F8 FF FF  .....%..n.E.....
0860: 7F F8 FF FF 7F 73 30 37  31 01 80 01 B7 08 02 09  .....s071.......
0870: 10 26 80 00 8A 08 45 1C  80 F8 FF FF 7F F8 FF FF  .&....E.........
0880: 7F 73 30 37 31 01 80 01  B7 08 02 09 10 2A 80 00  .s071........*..
0890: A6 08 45 1C 80 F8 FF FF  7F F8 FF FF 7F 73 30 36  ..E..........s06
08A0: 35 01 80 01 B7 08 45 1C  80 F8 FF FF 7F F8 FF FF  5.....E.........
08B0: 7F 73 30 37 33 01 80 1C  2E 80 29 0F 19 50 0F 01  .s073.....)..P..
08C0: 88 2B 19 50 0F 01 34 80  23 29 0F 19 50 0F 01 89  .+.P..4.#)..P...
08D0: 29 0F 19 50 0F 01 8A 6E  F0 FF FF 7F 35 80 99 F0  )..P...n....5...
08E0: FF FF 7F 1C 36 80 02 09  10 29 80 00 00 09 52 1C  ....6....)....R.
08F0: 80 F8 FF FF 7F F8 FF FF  7F 73 30 36 35 01 5D 09  .........s065.].
0900: 02 09 10 25 80 00 1A 09  52 1C 80 F8 FF FF 7F F8  ...%....R.......
0910: FF FF 7F 73 30 37 31 01  5D 09 02 09 10 26 80 00  ...s071.]....&..
0920: 34 09 52 1C 80 F8 FF FF  7F F8 FF FF 7F 73 30 37  4.R..........s07
0930: 31 01 5D 09 02 09 10 2A  80 00 4E 09 52 1C 80 F8  1.]....*..N.R...
0940: FF FF 7F F8 FF FF 7F 73  30 36 35 01 5D 09 52 1C  .......s065.].R.
0950: 80 F8 FF FF 7F F8 FF FF  7F 73 30 37 33 45 1C 80  .........s073E..
0960: F8 FF FF 7F F8 FF FF 7F  73 30 36 36 01 80 29 0F  ........s066..).
0970: 19 50 0F 01 8B 29 0F 19  50 0F 01 96 2B 19 50 0F  .P...)..P...+.P.
0980: 01 37 80 23 2B 19 50 0F  01 38 80 23 29 0F 19 50  .7.#+.P..8.#)..P
0990: 0F 01 97 52 1C 80 F8 FF  FF 7F F8 FF FF 7F 73 30  ...R..........s0
09A0: 36 36 02 09 10 25 80 00  BE 09 45 1C 80 F8 FF FF  66...%....E.....
09B0: 7F F8 FF FF 7F 73 30 37  32 01 80 01 EB 09 02 09  .....s072.......
09C0: 10 26 80 00 DA 09 45 1C  80 F8 FF FF 7F F8 FF FF  .&....E.........
09D0: 7F 73 30 37 32 01 80 01  EB 09 45 1C 80 F8 FF FF  .s072.....E.....
09E0: 7F F8 FF FF 7F 73 30 36  39 01 80 29 0F 19 50 0F  .....s069..)..P.
09F0: 01 98 2B 19 50 0F 01 39  80 23 29 0F 19 50 0F 01  ..+.P..9.#)..P..
0A00: 99 29 0F 19 50 0F 01 8E  2B 19 50 0F 01 3A 80 23  .)..P...+.P..:.#
0A10: 2B 19 50 0F 01 3B 80 23  29 0F 19 50 0F 01 8F 02  +.P..;.#)..P....
0A20: 09 10 25 80 00 39 0A 52  1C 80 F8 FF FF 7F F8 FF  ..%..9.R........
0A30: FF 7F 73 30 37 32 01 62  0A 02 09 10 26 80 00 53  ..s072.b....&..S
0A40: 0A 52 1C 80 F8 FF FF 7F  F8 FF FF 7F 73 30 37 32  .R..........s072
0A50: 01 62 0A 52 1C 80 F8 FF  FF 7F F8 FF FF 7F 73 30  .b.R..........s0
0A60: 36 39 45 1C 80 F8 FF FF  7F F8 FF FF 7F 73 30 36  69E..........s06
0A70: 38 01 80 29 0F 19 50 0F  01 90 5D 01 80 08 80 29  8..)..P...]....)
0A80: 0F 19 50 0F 01 91 29 0F  19 50 0F 01 92 2B 19 50  ..P...)..P...+.P
0A90: 0F 01 3C 80 23 1A 64 00  1C 06 80 29 0F 19 50 0F  ..<.#.d....)..P.
0AA0: 01 93 52 1C 80 F8 FF FF  7F F8 FF FF 7F 73 30 36  ..R..........s06
0AB0: 38 5C 00 3D 80 5C 01 3D  80 9A 5D 1B 80 03 80 1C  8\.=.\.=..].....
0AC0: 3E 80 AB 11 01 80 1C 03  80 46 00 45 00 80 F8 FF  >........F.E....
0AD0: FF 7F F8 FF FF 7F 66 64  69 32 01 80 21 00        ......fdi2..!.  
```

#### Opcodes

```
  0: 0x0292 [0x42] SET_CLI_EVENT_CANCEL_DATA()
  1: 0x0293 [0x5D] SET_MUSIC_VOLUME(volume=0*, fade_time=300*)
  2: 0x0298 [0x1A] CALL_SUBROUTINE(address=0x0064)
  3: 0x029B [0x46] CAMERA_CONTROL: Disable user control
  4: 0x029D [0x38] SET_CLIENT_EVENT_MODE(mode=147*)
  5: 0x02A0 [0x02] IF !(Work_Zone[9] == 0*) GOTO 0x02AE
  6: 0x02A8 [0x75] LOAD_ROOM(Load indoor room, room=463*)
  7: 0x02AC [0x75] LOAD_ROOM(No action)
  8: 0x02AE [0x92] Muckvix (ID: 17780761/0x010F5019)->Render.Flags3 ^= 0x01
  9: 0x02B4 [0x92] Pawkrix (ID: 17780760/0x010F5018)->Render.Flags3 ^= 0x01
 10: 0x02BA [0x92] Guttrix (ID: 17780798/0x010F503E)->Render.Flags3 ^= 0x01
 11: 0x02C0 [0x94] Muckvix (ID: 17780761/0x010F5019)->Render.Flags3 ^= 0x01
 12: 0x02C6 [0x94] Pawkrix (ID: 17780760/0x010F5018)->Render.Flags3 ^= 0x01
 13: 0x02CC [0x94] Guttrix (ID: 17780798/0x010F503E)->Render.Flags3 ^= 0x01
 14: 0x02D2 [0x94] LocalPlayer->Render.Flags3 ^= 0x01
 15: 0x02D8 [0xBA] SET_ENTITY_POSITION(entity_id=Muckvix (ID: 17780761/0x010F5019), pos_x=-26.824*, pos_z=-137.082*, pos_y=4.601*, direction=114.3°*)
 16: 0x02E5 [0xBA] SET_ENTITY_POSITION(entity_id=Pawkrix (ID: 17780760/0x010F5018), pos_x=-27.020*, pos_z=-144.137*, pos_y=4.099*, direction=256.9°*)
 17: 0x02F2 [0xBA] SET_ENTITY_POSITION(entity_id=Guttrix (ID: 17780798/0x010F503E), pos_x=-36.010*, pos_z=-139.714*, pos_y=5.499*, direction=212.2°*)
 18: 0x02FF [0xBA] SET_ENTITY_POSITION(entity_id=LocalPlayer, pos_x=-28.494*, pos_z=-139.883*, pos_y=5.499*, direction=288.7°*)
 19: 0x030C [0x80] LOAD_WAIT(entity=Muckvix (ID: 17780761/0x010F5019))
 20: 0x0311 [0x80] LOAD_WAIT(entity=Pawkrix (ID: 17780760/0x010F5018))
 21: 0x0316 [0x80] LOAD_WAIT(entity=Guttrix (ID: 17780798/0x010F503E))
 22: 0x031B [0x80] LOAD_WAIT(entity=LocalPlayer)
 23: 0x0320 [0x4A] Muckvix (ID: 17780761/0x010F5019) looks at LocalPlayer
 24: 0x0329 [0x4A] LocalPlayer looks at Muckvix (ID: 17780761/0x010F5019)
 25: 0x0332 [0x6F] WAIT_FRAME_DELAY: Yield until WaitTime reaches zero
 26: 0x0333 [0x76] CHECK_ENTITY_RENDER_FLAGS: Wait until LocalPlayer Render.Flags0 and Render.Flags3 conditions are met
 27: 0x0338 [0x6F] WAIT_FRAME_DELAY: Yield until WaitTime reaches zero
 28: 0x0339 [0x76] CHECK_ENTITY_RENDER_FLAGS: Wait until Muckvix (ID: 17780761/0x010F5019) Render.Flags0 and Render.Flags3 conditions are met
 29: 0x033E [0x29] REQ_SET_WAIT(priority=0x08, entity_id=LocalPlayer, tag_num=0x33)
 30: 0x0345 [0x5C] MUSIC_CONTROL: Set Idle (Day) music to song 221*
 31: 0x0349 [0x5C] MUSIC_CONTROL: Set Idle (Night) music to song 221*
 32: 0x034D [0x9A] WAIT_MUSIC_SERVER()
 33: 0x034E [0x5D] SET_MUSIC_VOLUME(volume=127*, fade_time=1*)
 34: 0x0353 [0x45] LOAD_SCHEDULED_TASK: Load scheduler "s062" with entities [EventEntity, EventEntity], work=[894*, 0*]
 35: 0x0364 [0x1A] CALL_SUBROUTINE(address=0x0043)
 36: 0x0367 [0x29] REQ_SET_WAIT(priority=0x0F, entity_id=Muckvix (ID: 17780761/0x010F5019), tag_num=0x96)
 37: 0x036E [0x2B] Muckvix (ID: 17780761/0x010F5019) [11073*]:
    → "Hm? What's that? You're lookin' for's some girl, are ya?"
 38: 0x0375 [0x23] WAIT_FOR_DIALOG_INTERACTION
 39: 0x0376 [0x29] REQ_SET_WAIT(priority=0x0F, entity_id=Muckvix (ID: 17780761/0x010F5019), tag_num=0x97)
 40: 0x037D [0x29] REQ_SET_WAIT(priority=0x0F, entity_id=Muckvix (ID: 17780761/0x010F5019), tag_num=0x98)
 41: 0x0384 [0x29] REQ_SET_WAIT(priority=0x0F, entity_id=LocalPlayer, tag_num=0x54)
 42: 0x038B [0x1C] WAIT(50* ticks)
 43: 0x038E [0x1A] CALL_SUBROUTINE(address=0x0064)
 44: 0x0391 [0x52] END_LOAD_SCHEDULER: End scheduler "s062" with entities [EventEntity, EventEntity], work=894*
 45: 0x03A0 [0x29] REQ_SET_WAIT(priority=0x0F, entity_id=LocalPlayer, tag_num=0x55)
 46: 0x03A7 [0x29] REQ_SET_WAIT(priority=0x0F, entity_id=Muckvix (ID: 17780761/0x010F5019), tag_num=0x99)
 47: 0x03AE [0x45] LOAD_SCHEDULED_TASK: Load scheduler "s063" with entities [EventEntity, EventEntity], work=[894*, 0*]
 48: 0x03BF [0x1A] CALL_SUBROUTINE(address=0x0043)
 49: 0x03C2 [0x29] REQ_SET_WAIT(priority=0x0F, entity_id=Muckvix (ID: 17780761/0x010F5019), tag_num=0x74)
 50: 0x03C9 [0x2B] Muckvix (ID: 17780761/0x010F5019) [11074*]:
    → "Ah, I know the girl yer talkin' about! The one who's here for the Festival of Brave Souls!"
 51: 0x03D0 [0x23] WAIT_FOR_DIALOG_INTERACTION
 52: 0x03D1 [0x52] END_LOAD_SCHEDULER: End scheduler "s063" with entities [EventEntity, EventEntity], work=894*
 53: 0x03E0 [0x45] LOAD_SCHEDULED_TASK: Load scheduler "s064" with entities [EventEntity, EventEntity], work=[894*, 0*]
 54: 0x03F1 [0x29] REQ_SET_WAIT(priority=0x0F, entity_id=Muckvix (ID: 17780761/0x010F5019), tag_num=0x75)
 55: 0x03F8 [0x29] REQ_SET_WAIT(priority=0x0F, entity_id=Muckvix (ID: 17780761/0x010F5019), tag_num=0x8E)
 56: 0x03FF [0x2B] Muckvix (ID: 17780761/0x010F5019) [11075*]:
    → "The festival's a very important event for us Goblins. It's been around fer ages now."
 57: 0x0406 [0x23] WAIT_FOR_DIALOG_INTERACTION
 58: 0x0407 [0x2B] Muckvix (ID: 17780761/0x010F5019) [11076*]:
    → "It's held whenever we Goblins are in danger or the world itself has lost all hope..."
 59: 0x040E [0x23] WAIT_FOR_DIALOG_INTERACTION
 60: 0x040F [0x29] REQ_SET_WAIT(priority=0x0F, entity_id=Muckvix (ID: 17780761/0x010F5019), tag_num=0x8F)
 61: 0x0416 [0x29] REQ_SET_WAIT(priority=0x0F, entity_id=Muckvix (ID: 17780761/0x010F5019), tag_num=0x90)
 62: 0x041D [0x2B] Muckvix (ID: 17780761/0x010F5019) [11077*]:
    → "The festival helps bring us a sense of calm when we feel like prayin' is our only remainin' option."
 63: 0x0424 [0x23] WAIT_FOR_DIALOG_INTERACTION
 64: 0x0425 [0x29] REQ_SET_WAIT(priority=0x0F, entity_id=Muckvix (ID: 17780761/0x010F5019), tag_num=0x91)
 65: 0x042C [0x52] END_LOAD_SCHEDULER: End scheduler "s064" with entities [EventEntity, EventEntity], work=894*
 66: 0x043B [0x45] LOAD_SCHEDULED_TASK: Load scheduler "s066" with entities [EventEntity, EventEntity], work=[894*, 0*]
 67: 0x044C [0x29] REQ_SET_WAIT(priority=0x0F, entity_id=Muckvix (ID: 17780761/0x010F5019), tag_num=0x88)
 68: 0x0453 [0x2B] Muckvix (ID: 17780761/0x010F5019) [11078*]:
    → "The last time it was held was over several hundred years ago... They say there was a battle 'tween the gods of light and darkness."
 69: 0x045A [0x23] WAIT_FOR_DIALOG_INTERACTION
 70: 0x045B [0x29] REQ_SET_WAIT(priority=0x0F, entity_id=Muckvix (ID: 17780761/0x010F5019), tag_num=0x89)
 71: 0x0462 [0x29] REQ_SET_WAIT(priority=0x0F, entity_id=Muckvix (ID: 17780761/0x010F5019), tag_num=0x8A)
 72: 0x0469 [0x2B] Muckvix (ID: 17780761/0x010F5019) [11079*]:
    → "Of course, the reason we're holdin' it again now goes without sayin'. Countless "World Eater Eggs" are being found across the land."
 73: 0x0470 [0x23] WAIT_FOR_DIALOG_INTERACTION
 74: 0x0471 [0x29] REQ_SET_WAIT(priority=0x0F, entity_id=Muckvix (ID: 17780761/0x010F5019), tag_num=0x8B)
 75: 0x0478 [0x52] END_LOAD_SCHEDULER: End scheduler "s066" with entities [EventEntity, EventEntity], work=894*
 76: 0x0487 [0x02] IF !(Work_Zone[9] == 5*) GOTO 0x04A3
 77: 0x048F [0x45] LOAD_SCHEDULED_TASK: Load scheduler "s070" with entities [EventEntity, EventEntity], work=[894*, 0*]
 78: 0x04A0 [0x01] GOTO 0x04D0
 79: 0x04A3 [0x02] IF !(Work_Zone[9] == 6*) GOTO 0x04BF
 80: 0x04AB [0x45] LOAD_SCHEDULED_TASK: Load scheduler "s070" with entities [EventEntity, EventEntity], work=[894*, 0*]
 81: 0x04BC [0x01] GOTO 0x04D0
 82: 0x04BF [0x45] LOAD_SCHEDULED_TASK: Load scheduler "s067" with entities [EventEntity, EventEntity], work=[894*, 0*]

SUBROUTINE_04D0:
 83: 0x04D0 [0x29] REQ_SET_WAIT(priority=0x0F, entity_id=Muckvix (ID: 17780761/0x010F5019), tag_num=0x9D)
 84: 0x04D7 [0x2B] Muckvix (ID: 17780761/0x010F5019) [11080*]:
    → "Yes, I've heard all about you as well."
 85: 0x04DE [0x23] WAIT_FOR_DIALOG_INTERACTION
 86: 0x04DF [0x2B] Muckvix (ID: 17780761/0x010F5019) [11081*]:
    → "Ya saved our Goblin heroes from certain death on Zepwell Island, yes?"
 87: 0x04E6 [0x23] WAIT_FOR_DIALOG_INTERACTION
 88: 0x04E7 [0x29] REQ_SET_WAIT(priority=0x0F, entity_id=Muckvix (ID: 17780761/0x010F5019), tag_num=0x9E)
 89: 0x04EE [0x02] IF !(Work_Zone[9] == 5*) GOTO 0x0508
 90: 0x04F6 [0x52] END_LOAD_SCHEDULER: End scheduler "s070" with entities [EventEntity, EventEntity], work=894*
 91: 0x0505 [0x01] GOTO 0x0531
 92: 0x0508 [0x02] IF !(Work_Zone[9] == 6*) GOTO 0x0522
 93: 0x0510 [0x52] END_LOAD_SCHEDULER: End scheduler "s070" with entities [EventEntity, EventEntity], work=894*
 94: 0x051F [0x01] GOTO 0x0531
 95: 0x0522 [0x52] END_LOAD_SCHEDULER: End scheduler "s067" with entities [EventEntity, EventEntity], work=894*

SUBROUTINE_0531:
 96: 0x0531 [0x02] IF !(Work_Zone[9] == 3*) GOTO 0x054D
 97: 0x0539 [0x45] LOAD_SCHEDULED_TASK: Load scheduler "s065" with entities [EventEntity, EventEntity], work=[894*, 0*]
 98: 0x054A [0x01] GOTO 0x05B2
 99: 0x054D [0x02] IF !(Work_Zone[9] == 5*) GOTO 0x0569
100: 0x0555 [0x45] LOAD_SCHEDULED_TASK: Load scheduler "s071" with entities [EventEntity, EventEntity], work=[894*, 0*]
101: 0x0566 [0x01] GOTO 0x05B2
102: 0x0569 [0x02] IF !(Work_Zone[9] == 6*) GOTO 0x0585
103: 0x0571 [0x45] LOAD_SCHEDULED_TASK: Load scheduler "s071" with entities [EventEntity, EventEntity], work=[894*, 0*]
104: 0x0582 [0x01] GOTO 0x05B2
105: 0x0585 [0x02] IF !(Work_Zone[9] == 8*) GOTO 0x05A1
106: 0x058D [0x45] LOAD_SCHEDULED_TASK: Load scheduler "s065" with entities [EventEntity, EventEntity], work=[894*, 0*]
107: 0x059E [0x01] GOTO 0x05B2
108: 0x05A1 [0x45] LOAD_SCHEDULED_TASK: Load scheduler "s073" with entities [EventEntity, EventEntity], work=[894*, 0*]

SUBROUTINE_05B2:
109: 0x05B2 [0x29] REQ_SET_WAIT(priority=0x0F, entity_id=Muckvix (ID: 17780761/0x010F5019), tag_num=0x74)
110: 0x05B9 [0x2B] Muckvix (ID: 17780761/0x010F5019) [11082*]:
    → "Even though you're no beastie, ya know just how terrifyin' a "World Eater Egg" from Chaos truly is."
111: 0x05C0 [0x23] WAIT_FOR_DIALOG_INTERACTION
112: 0x05C1 [0x2B] Muckvix (ID: 17780761/0x010F5019) [11083*]:
    → "Therefore, you can understand the fear, anxiety, and general unease that we Goblins are feelin', right?"
113: 0x05C8 [0x23] WAIT_FOR_DIALOG_INTERACTION
114: 0x05C9 [0x29] REQ_SET_WAIT(priority=0x0F, entity_id=Muckvix (ID: 17780761/0x010F5019), tag_num=0x75)
115: 0x05D0 [0x02] IF !(Work_Zone[9] == 3*) GOTO 0x05EA
116: 0x05D8 [0x52] END_LOAD_SCHEDULER: End scheduler "s065" with entities [EventEntity, EventEntity], work=894*
117: 0x05E7 [0x01] GOTO 0x0647
118: 0x05EA [0x02] IF !(Work_Zone[9] == 5*) GOTO 0x0604
119: 0x05F2 [0x52] END_LOAD_SCHEDULER: End scheduler "s071" with entities [EventEntity, EventEntity], work=894*
120: 0x0601 [0x01] GOTO 0x0647
121: 0x0604 [0x02] IF !(Work_Zone[9] == 6*) GOTO 0x061E
122: 0x060C [0x52] END_LOAD_SCHEDULER: End scheduler "s071" with entities [EventEntity, EventEntity], work=894*
123: 0x061B [0x01] GOTO 0x0647
124: 0x061E [0x02] IF !(Work_Zone[9] == 8*) GOTO 0x0638
125: 0x0626 [0x52] END_LOAD_SCHEDULER: End scheduler "s065" with entities [EventEntity, EventEntity], work=894*
126: 0x0635 [0x01] GOTO 0x0647
127: 0x0638 [0x52] END_LOAD_SCHEDULER: End scheduler "s073" with entities [EventEntity, EventEntity], work=894*

SUBROUTINE_0647:
128: 0x0647 [0x45] LOAD_SCHEDULED_TASK: Load scheduler "s068" with entities [EventEntity, EventEntity], work=[894*, 0*]
129: 0x0658 [0x29] REQ_SET_WAIT(priority=0x0F, entity_id=Muckvix (ID: 17780761/0x010F5019), tag_num=0x72)
130: 0x065F [0x2B] Muckvix (ID: 17780761/0x010F5019) [11084*]:
    → "In fact, it terrifies us beasties so much that many aren't even able to work. That's why we need to have this festival--to calm everyone's nerves."
131: 0x0666 [0x23] WAIT_FOR_DIALOG_INTERACTION
132: 0x0667 [0x29] REQ_SET_WAIT(priority=0x0F, entity_id=Muckvix (ID: 17780761/0x010F5019), tag_num=0x73)
133: 0x066E [0x29] REQ_SET_WAIT(priority=0x0F, entity_id=Muckvix (ID: 17780761/0x010F5019), tag_num=0x9A)
134: 0x0675 [0x52] END_LOAD_SCHEDULER: End scheduler "s068" with entities [EventEntity, EventEntity], work=894*
135: 0x0684 [0x02] IF !(Work_Zone[9] == 5*) GOTO 0x06A0
136: 0x068C [0x45] LOAD_SCHEDULED_TASK: Load scheduler "s072" with entities [EventEntity, EventEntity], work=[894*, 0*]
137: 0x069D [0x01] GOTO 0x06CD
138: 0x06A0 [0x02] IF !(Work_Zone[9] == 6*) GOTO 0x06BC
139: 0x06A8 [0x45] LOAD_SCHEDULED_TASK: Load scheduler "s072" with entities [EventEntity, EventEntity], work=[894*, 0*]
140: 0x06B9 [0x01] GOTO 0x06CD
141: 0x06BC [0x45] LOAD_SCHEDULED_TASK: Load scheduler "s069" with entities [EventEntity, EventEntity], work=[894*, 0*]

SUBROUTINE_06CD:
142: 0x06CD [0x29] REQ_SET_WAIT(priority=0x0F, entity_id=LocalPlayer, tag_num=0x54)
143: 0x06D4 [0x1C] WAIT(60* ticks)
144: 0x06D7 [0x29] REQ_SET_WAIT(priority=0x0F, entity_id=LocalPlayer, tag_num=0x55)
145: 0x06DE [0x29] REQ_SET_WAIT(priority=0x0F, entity_id=Muckvix (ID: 17780761/0x010F5019), tag_num=0x88)
146: 0x06E5 [0x2B] Muckvix (ID: 17780761/0x010F5019) [11085*]:
    → "Hm? You wanna know how this girl yer lookin' for's involved with the festival?"
147: 0x06EC [0x23] WAIT_FOR_DIALOG_INTERACTION
148: 0x06ED [0x29] REQ_SET_WAIT(priority=0x0F, entity_id=Muckvix (ID: 17780761/0x010F5019), tag_num=0x89)
149: 0x06F4 [0x02] IF !(Work_Zone[9] == 5*) GOTO 0x070E
150: 0x06FC [0x52] END_LOAD_SCHEDULER: End scheduler "s072" with entities [EventEntity, EventEntity], work=894*
151: 0x070B [0x01] GOTO 0x0737
152: 0x070E [0x02] IF !(Work_Zone[9] == 6*) GOTO 0x0728
153: 0x0716 [0x52] END_LOAD_SCHEDULER: End scheduler "s072" with entities [EventEntity, EventEntity], work=894*
154: 0x0725 [0x01] GOTO 0x0737
155: 0x0728 [0x52] END_LOAD_SCHEDULER: End scheduler "s069" with entities [EventEntity, EventEntity], work=894*

SUBROUTINE_0737:
156: 0x0737 [0x45] LOAD_SCHEDULED_TASK: Load scheduler "s063" with entities [EventEntity, EventEntity], work=[894*, 0*]
157: 0x0748 [0x29] REQ_SET_WAIT(priority=0x0F, entity_id=Muckvix (ID: 17780761/0x010F5019), tag_num=0x8A)
158: 0x074F [0x2B] Muckvix (ID: 17780761/0x010F5019) [11086*]:
    → "The Festival of Brave Souls is always a sad affair, so I thought it'd be good to prepare somethin' a bit more lighthearted. Ya know, to keep up wit' the times and all."
159: 0x0756 [0x23] WAIT_FOR_DIALOG_INTERACTION
160: 0x0757 [0x29] REQ_SET_WAIT(priority=0x0F, entity_id=Muckvix (ID: 17780761/0x010F5019), tag_num=0x8B)
161: 0x075E [0x29] REQ_SET_WAIT(priority=0x0F, entity_id=Muckvix (ID: 17780761/0x010F5019), tag_num=0x74)
162: 0x0765 [0x2B] Muckvix (ID: 17780761/0x010F5019) [11087*]:
    → "So I put out a call for a skilled entertainer and that girl showed up."
163: 0x076C [0x23] WAIT_FOR_DIALOG_INTERACTION
164: 0x076D [0x52] END_LOAD_SCHEDULER: End scheduler "s063" with entities [EventEntity, EventEntity], work=894*
165: 0x077C [0x02] IF !(Work_Zone[9] == 5*) GOTO 0x0798
166: 0x0784 [0x45] LOAD_SCHEDULED_TASK: Load scheduler "s070" with entities [EventEntity, EventEntity], work=[894*, 0*]
167: 0x0795 [0x01] GOTO 0x07C5
168: 0x0798 [0x02] IF !(Work_Zone[9] == 6*) GOTO 0x07B4
169: 0x07A0 [0x45] LOAD_SCHEDULED_TASK: Load scheduler "s070" with entities [EventEntity, EventEntity], work=[894*, 0*]
170: 0x07B1 [0x01] GOTO 0x07C5
171: 0x07B4 [0x45] LOAD_SCHEDULED_TASK: Load scheduler "s067" with entities [EventEntity, EventEntity], work=[894*, 0*]

SUBROUTINE_07C5:
172: 0x07C5 [0x2B] Muckvix (ID: 17780761/0x010F5019) [11088*]:
    → "However, she was much weaker than I expected..."
173: 0x07CC [0x23] WAIT_FOR_DIALOG_INTERACTION
174: 0x07CD [0x29] REQ_SET_WAIT(priority=0x0F, entity_id=Muckvix (ID: 17780761/0x010F5019), tag_num=0x75)
175: 0x07D4 [0x27] REQ_SET(priority=0x0F, entity_id=Muckvix (ID: 17780761/0x010F5019), tag_num=0x9A)
176: 0x07DB [0x2B] Muckvix (ID: 17780761/0x010F5019) [11089*]:
    → "So I sent her over to Maat in order to really push her to her limits and get her ready in time fer the festival."
177: 0x07E2 [0x23] WAIT_FOR_DIALOG_INTERACTION
178: 0x07E3 [0x2A] GET_REQ_LEVEL(level=15, entity_id=Muckvix (ID: 17780761/0x010F5019))
179: 0x07E9 [0x29] REQ_SET_WAIT(priority=0x0F, entity_id=LocalPlayer, tag_num=0x6C)
180: 0x07F0 [0x1C] WAIT(60* ticks)
181: 0x07F3 [0x02] IF !(Work_Zone[9] == 5*) GOTO 0x080D
182: 0x07FB [0x52] END_LOAD_SCHEDULER: End scheduler "s070" with entities [EventEntity, EventEntity], work=894*
183: 0x080A [0x01] GOTO 0x0836
184: 0x080D [0x02] IF !(Work_Zone[9] == 6*) GOTO 0x0827
185: 0x0815 [0x52] END_LOAD_SCHEDULER: End scheduler "s070" with entities [EventEntity, EventEntity], work=894*
186: 0x0824 [0x01] GOTO 0x0836
187: 0x0827 [0x52] END_LOAD_SCHEDULER: End scheduler "s067" with entities [EventEntity, EventEntity], work=894*

SUBROUTINE_0836:
188: 0x0836 [0x02] IF !(Work_Zone[9] == 3*) GOTO 0x0852
189: 0x083E [0x45] LOAD_SCHEDULED_TASK: Load scheduler "s065" with entities [EventEntity, EventEntity], work=[894*, 0*]
190: 0x084F [0x01] GOTO 0x08B7
191: 0x0852 [0x02] IF !(Work_Zone[9] == 5*) GOTO 0x086E
192: 0x085A [0x45] LOAD_SCHEDULED_TASK: Load scheduler "s071" with entities [EventEntity, EventEntity], work=[894*, 0*]
193: 0x086B [0x01] GOTO 0x08B7
194: 0x086E [0x02] IF !(Work_Zone[9] == 6*) GOTO 0x088A
195: 0x0876 [0x45] LOAD_SCHEDULED_TASK: Load scheduler "s071" with entities [EventEntity, EventEntity], work=[894*, 0*]
196: 0x0887 [0x01] GOTO 0x08B7
197: 0x088A [0x02] IF !(Work_Zone[9] == 8*) GOTO 0x08A6
198: 0x0892 [0x45] LOAD_SCHEDULED_TASK: Load scheduler "s065" with entities [EventEntity, EventEntity], work=[894*, 0*]
199: 0x08A3 [0x01] GOTO 0x08B7
200: 0x08A6 [0x45] LOAD_SCHEDULED_TASK: Load scheduler "s073" with entities [EventEntity, EventEntity], work=[894*, 0*]

SUBROUTINE_08B7:
201: 0x08B7 [0x1C] WAIT(60* ticks)
202: 0x08BA [0x29] REQ_SET_WAIT(priority=0x0F, entity_id=Muckvix (ID: 17780761/0x010F5019), tag_num=0x88)
203: 0x08C1 [0x2B] Muckvix (ID: 17780761/0x010F5019) [11090*]:
    → "Huh? She forgot somethin' while she was there? And now you're tryin' to give it back to her?"
204: 0x08C8 [0x23] WAIT_FOR_DIALOG_INTERACTION
205: 0x08C9 [0x29] REQ_SET_WAIT(priority=0x0F, entity_id=Muckvix (ID: 17780761/0x010F5019), tag_num=0x89)
206: 0x08D0 [0x29] REQ_SET_WAIT(priority=0x0F, entity_id=Muckvix (ID: 17780761/0x010F5019), tag_num=0x8A)
207: 0x08D7 [0x6E] LocalPlayer uses emote 7*
208: 0x08DE [0x99] Wait for LocalPlayer animation to complete
209: 0x08E3 [0x1C] WAIT(90* ticks)
210: 0x08E6 [0x02] IF !(Work_Zone[9] == 3*) GOTO 0x0900
211: 0x08EE [0x52] END_LOAD_SCHEDULER: End scheduler "s065" with entities [EventEntity, EventEntity], work=894*
212: 0x08FD [0x01] GOTO 0x095D
213: 0x0900 [0x02] IF !(Work_Zone[9] == 5*) GOTO 0x091A
214: 0x0908 [0x52] END_LOAD_SCHEDULER: End scheduler "s071" with entities [EventEntity, EventEntity], work=894*
215: 0x0917 [0x01] GOTO 0x095D
216: 0x091A [0x02] IF !(Work_Zone[9] == 6*) GOTO 0x0934
217: 0x0922 [0x52] END_LOAD_SCHEDULER: End scheduler "s071" with entities [EventEntity, EventEntity], work=894*
218: 0x0931 [0x01] GOTO 0x095D
219: 0x0934 [0x02] IF !(Work_Zone[9] == 8*) GOTO 0x094E
220: 0x093C [0x52] END_LOAD_SCHEDULER: End scheduler "s065" with entities [EventEntity, EventEntity], work=894*
221: 0x094B [0x01] GOTO 0x095D
222: 0x094E [0x52] END_LOAD_SCHEDULER: End scheduler "s073" with entities [EventEntity, EventEntity], work=894*

SUBROUTINE_095D:
223: 0x095D [0x45] LOAD_SCHEDULED_TASK: Load scheduler "s066" with entities [EventEntity, EventEntity], work=[894*, 0*]
224: 0x096E [0x29] REQ_SET_WAIT(priority=0x0F, entity_id=Muckvix (ID: 17780761/0x010F5019), tag_num=0x8B)
225: 0x0975 [0x29] REQ_SET_WAIT(priority=0x0F, entity_id=Muckvix (ID: 17780761/0x010F5019), tag_num=0x96)
226: 0x097C [0x2B] Muckvix (ID: 17780761/0x010F5019) [11091*]:
    → "I see... In that case, I suppose it's okay if I tell you her whereabouts..."
227: 0x0983 [0x23] WAIT_FOR_DIALOG_INTERACTION
228: 0x0984 [0x2B] Muckvix (ID: 17780761/0x010F5019) [11092*]:
    → "According to her, she's always bein' hounded by her many throngs of fans. So she asked that I keep her location a secret."
229: 0x098B [0x23] WAIT_FOR_DIALOG_INTERACTION
230: 0x098C [0x29] REQ_SET_WAIT(priority=0x0F, entity_id=Muckvix (ID: 17780761/0x010F5019), tag_num=0x97)
231: 0x0993 [0x52] END_LOAD_SCHEDULER: End scheduler "s066" with entities [EventEntity, EventEntity], work=894*
232: 0x09A2 [0x02] IF !(Work_Zone[9] == 5*) GOTO 0x09BE
233: 0x09AA [0x45] LOAD_SCHEDULED_TASK: Load scheduler "s072" with entities [EventEntity, EventEntity], work=[894*, 0*]
234: 0x09BB [0x01] GOTO 0x09EB
235: 0x09BE [0x02] IF !(Work_Zone[9] == 6*) GOTO 0x09DA
236: 0x09C6 [0x45] LOAD_SCHEDULED_TASK: Load scheduler "s072" with entities [EventEntity, EventEntity], work=[894*, 0*]
237: 0x09D7 [0x01] GOTO 0x09EB
238: 0x09DA [0x45] LOAD_SCHEDULED_TASK: Load scheduler "s069" with entities [EventEntity, EventEntity], work=[894*, 0*]

SUBROUTINE_09EB:
239: 0x09EB [0x29] REQ_SET_WAIT(priority=0x0F, entity_id=Muckvix (ID: 17780761/0x010F5019), tag_num=0x98)
240: 0x09F2 [0x2B] Muckvix (ID: 17780761/0x010F5019) [11093*]:
    → "Although, we've had to shelve our plans to have her perform at the festival. I doubt there'll be much to see, let alone any of her fans."
241: 0x09F9 [0x23] WAIT_FOR_DIALOG_INTERACTION
242: 0x09FA [0x29] REQ_SET_WAIT(priority=0x0F, entity_id=Muckvix (ID: 17780761/0x010F5019), tag_num=0x99)
243: 0x0A01 [0x29] REQ_SET_WAIT(priority=0x0F, entity_id=Muckvix (ID: 17780761/0x010F5019), tag_num=0x8E)
244: 0x0A08 [0x2B] Muckvix (ID: 17780761/0x010F5019) [11094*]:
    → "Here, I'll draw up a map for ya. Simply show it to the Tarutaru soldier in front of the Rent-a-Room in Lower Jeuno."
245: 0x0A0F [0x23] WAIT_FOR_DIALOG_INTERACTION
246: 0x0A10 [0x2B] Muckvix (ID: 17780761/0x010F5019) [11095*]:
    → "His name is Miladi-Nildi. He can show you where she's stayin'."
247: 0x0A17 [0x23] WAIT_FOR_DIALOG_INTERACTION
248: 0x0A18 [0x29] REQ_SET_WAIT(priority=0x0F, entity_id=Muckvix (ID: 17780761/0x010F5019), tag_num=0x8F)
249: 0x0A1F [0x02] IF !(Work_Zone[9] == 5*) GOTO 0x0A39
250: 0x0A27 [0x52] END_LOAD_SCHEDULER: End scheduler "s072" with entities [EventEntity, EventEntity], work=894*
251: 0x0A36 [0x01] GOTO 0x0A62
252: 0x0A39 [0x02] IF !(Work_Zone[9] == 6*) GOTO 0x0A53
253: 0x0A41 [0x52] END_LOAD_SCHEDULER: End scheduler "s072" with entities [EventEntity, EventEntity], work=894*
254: 0x0A50 [0x01] GOTO 0x0A62
255: 0x0A53 [0x52] END_LOAD_SCHEDULER: End scheduler "s069" with entities [EventEntity, EventEntity], work=894*

SUBROUTINE_0A62:
256: 0x0A62 [0x45] LOAD_SCHEDULED_TASK: Load scheduler "s068" with entities [EventEntity, EventEntity], work=[894*, 0*]
257: 0x0A73 [0x29] REQ_SET_WAIT(priority=0x0F, entity_id=Muckvix (ID: 17780761/0x010F5019), tag_num=0x90)
258: 0x0A7A [0x5D] SET_MUSIC_VOLUME(volume=0*, fade_time=300*)
259: 0x0A7F [0x29] REQ_SET_WAIT(priority=0x0F, entity_id=Muckvix (ID: 17780761/0x010F5019), tag_num=0x91)
260: 0x0A86 [0x29] REQ_SET_WAIT(priority=0x0F, entity_id=Muckvix (ID: 17780761/0x010F5019), tag_num=0x92)
261: 0x0A8D [0x2B] Muckvix (ID: 17780761/0x010F5019) [11096*]:
    → "As long as that shadow looms large, we can't have the festival. Is there anything that can be done..."
262: 0x0A94 [0x23] WAIT_FOR_DIALOG_INTERACTION
263: 0x0A95 [0x1A] CALL_SUBROUTINE(address=0x0064)
264: 0x0A98 [0x1C] WAIT(30* ticks)
265: 0x0A9B [0x29] REQ_SET_WAIT(priority=0x0F, entity_id=Muckvix (ID: 17780761/0x010F5019), tag_num=0x93)
266: 0x0AA2 [0x52] END_LOAD_SCHEDULER: End scheduler "s068" with entities [EventEntity, EventEntity], work=894*
267: 0x0AB1 [0x5C] MUSIC_CONTROL: Set Idle (Day) music to song 110*
268: 0x0AB5 [0x5C] MUSIC_CONTROL: Set Idle (Night) music to song 110*
269: 0x0AB9 [0x9A] WAIT_MUSIC_SERVER()
270: 0x0ABA [0x5D] SET_MUSIC_VOLUME(volume=127*, fade_time=1*)
271: 0x0ABF [0x1C] WAIT(15* ticks)
272: 0x0AC2 [0xAB] EventEntity->DespawnValue = 0* // Set despawn value
273: 0x0AC6 [0x1C] WAIT(1* ticks)
274: 0x0AC9 [0x46] CAMERA_CONTROL: Restore default settings
275: 0x0ACB [0x45] LOAD_SCHEDULED_TASK: Load scheduler "fdi2" with entities [EventEntity, EventEntity], work=[200*, 0*]
276: 0x0ADC [0x21] END_EVENT
277: 0x0ADD [0x00] END_REQSTACK()
```

### Event 20089

#### Metadata

| Field        | Value      |
|--------------|------------|
| Entrypoint   | 0x0ADE     |
| Data Size    | 8936 bytes |
| Instructions | 1223       |

```
      00 01 02 03 04 05 06 07  08 09 0A 0B 0C 0D 0E 0F
      -- -- -- -- -- -- -- --  -- -- -- -- -- -- -- --
0AD0:                                            42 03                B.
0AE0: 02 00 03 10 03 03 00 06  10 03 04 00 09 10 03 01  ................
0AF0: 00 01 80 5D 01 80 08 80  1A 64 00 46 01 38 09 80  ...].....d.F.8..
0B00: 02 09 10 01 80 01 0E 0B  75 00 3F 80 75 01 2F 00  ........u.?.u./.
0B10: 23 51 0F 01 2F 00 24 51  0F 01 2F 00 26 51 0F 01  #Q../.$Q../.&Q..
0B20: 2F 00 27 51 0F 01 2F 00  28 51 0F 01 2F 00 29 51  /.'Q../.(Q../.)Q
0B30: 0F 01 2F 00 2A 51 0F 01  2F 00 2B 51 0F 01 2F 00  ../.*Q../.+Q../.
0B40: 2C 51 0F 01 2F 00 2D 51  0F 01 2F 00 2E 51 0F 01  ,Q../.-Q../..Q..
0B50: 2F 00 2F 51 0F 01 2F 00  30 51 0F 01 2F 00 32 51  /./Q../.0Q../.2Q
0B60: 0F 01 2F 00 33 51 0F 01  2F 00 34 51 0F 01 2F 00  ../.3Q../.4Q../.
0B70: 35 51 0F 01 2F 00 36 51  0F 01 2F 00 37 51 0F 01  5Q../.6Q../.7Q..
0B80: 2F 00 38 51 0F 01 2F 00  39 51 0F 01 2F 00 3A 51  /.8Q../.9Q../.:Q
0B90: 0F 01 2F 00 3B 51 0F 01  2F 00 3C 51 0F 01 2F 00  ../.;Q../.<Q../.
0BA0: 3D 51 0F 01 2F 00 3E 51  0F 01 2F 00 3F 51 0F 01  =Q../.>Q../.?Q..
0BB0: 2F 00 40 51 0F 01 2F 00  41 51 0F 01 2F 00 42 51  /.@Q../.AQ../.BQ
0BC0: 0F 01 2F 00 43 51 0F 01  2F 00 44 51 0F 01 2F 00  ../.CQ../.DQ../.
0BD0: 45 51 0F 01 2F 00 46 51  0F 01 2F 00 47 51 0F 01  EQ../.FQ../.GQ..
0BE0: 2F 00 48 51 0F 01 2F 00  49 51 0F 01 2F 00 4A 51  /.HQ../.IQ../.JQ
0BF0: 0F 01 2F 00 4B 51 0F 01  4E 00 23 51 0F 01 4E 00  ../.KQ..N.#Q..N.
0C00: 24 51 0F 01 92 01 78 50  0F 01 4E 00 26 51 0F 01  $Q....xP..N.&Q..
0C10: 4E 00 27 51 0F 01 4E 00  28 51 0F 01 4E 00 29 51  N.'Q..N.(Q..N.)Q
0C20: 0F 01 4E 00 2A 51 0F 01  4E 00 2B 51 0F 01 4E 00  ..N.*Q..N.+Q..N.
0C30: 2C 51 0F 01 4E 00 2D 51  0F 01 4E 00 2E 51 0F 01  ,Q..N.-Q..N..Q..
0C40: 4E 00 2F 51 0F 01 4E 00  30 51 0F 01 4E 00 32 51  N./Q..N.0Q..N.2Q
0C50: 0F 01 4E 00 33 51 0F 01  4E 00 34 51 0F 01 4E 00  ..N.3Q..N.4Q..N.
0C60: 35 51 0F 01 4E 00 36 51  0F 01 4E 00 37 51 0F 01  5Q..N.6Q..N.7Q..
0C70: 4E 00 38 51 0F 01 4E 00  39 51 0F 01 4E 00 3A 51  N.8Q..N.9Q..N.:Q
0C80: 0F 01 4E 00 3B 51 0F 01  4E 00 3C 51 0F 01 4E 00  ..N.;Q..N.<Q..N.
0C90: 3D 51 0F 01 4E 00 3E 51  0F 01 4E 00 3F 51 0F 01  =Q..N.>Q..N.?Q..
0CA0: 4E 00 40 51 0F 01 4E 00  41 51 0F 01 4E 00 42 51  N.@Q..N.AQ..N.BQ
0CB0: 0F 01 4E 00 43 51 0F 01  4E 00 44 51 0F 01 4E 00  ..N.CQ..N.DQ..N.
0CC0: 45 51 0F 01 4E 00 46 51  0F 01 4E 00 47 51 0F 01  EQ..N.FQ..N.GQ..
0CD0: 4E 00 48 51 0F 01 4E 00  49 51 0F 01 4E 00 4A 51  N.HQ..N.IQ..N.JQ
0CE0: 0F 01 4E 00 4B 51 0F 01  94 01 78 50 0F 01 94 01  ..N.KQ....xP....
0CF0: 23 51 0F 01 94 01 24 51  0F 01 94 01 F0 FF FF 7F  #Q....$Q........
0D00: 94 01 26 51 0F 01 94 01  27 51 0F 01 94 01 28 51  ..&Q....'Q....(Q
0D10: 0F 01 94 01 29 51 0F 01  94 01 2A 51 0F 01 94 01  ....)Q....*Q....
0D20: 2B 51 0F 01 94 01 2C 51  0F 01 94 01 2D 51 0F 01  +Q....,Q....-Q..
0D30: 94 01 2E 51 0F 01 94 01  2F 51 0F 01 94 01 30 51  ...Q..../Q....0Q
0D40: 0F 01 94 01 32 51 0F 01  94 01 33 51 0F 01 94 01  ....2Q....3Q....
0D50: 34 51 0F 01 94 01 35 51  0F 01 94 01 36 51 0F 01  4Q....5Q....6Q..
0D60: 94 01 37 51 0F 01 94 01  38 51 0F 01 94 01 39 51  ..7Q....8Q....9Q
0D70: 0F 01 94 01 3A 51 0F 01  94 01 3B 51 0F 01 94 01  ....:Q....;Q....
0D80: 3C 51 0F 01 94 01 3D 51  0F 01 94 01 3E 51 0F 01  <Q....=Q....>Q..
0D90: 94 01 3F 51 0F 01 94 01  40 51 0F 01 94 01 41 51  ..?Q....@Q....AQ
0DA0: 0F 01 94 01 42 51 0F 01  94 01 43 51 0F 01 94 01  ....BQ....CQ....
0DB0: 44 51 0F 01 94 01 45 51  0F 01 94 01 46 51 0F 01  DQ....EQ....FQ..
0DC0: 94 01 47 51 0F 01 94 01  48 51 0F 01 94 01 49 51  ..GQ....HQ....IQ
0DD0: 0F 01 94 01 4A 51 0F 01  94 01 4B 51 0F 01 BA 78  ....JQ....KQ...x
0DE0: 50 0F 01 40 80 41 80 42  80 43 80 BA 23 51 0F 01  P..@.A.B.C..#Q..
0DF0: 44 80 45 80 46 80 47 80  BA 24 51 0F 01 48 80 49  D.E.F.G..$Q..H.I
0E00: 80 4A 80 4B 80 BA F0 FF  FF 7F 4C 80 4D 80 42 80  .J.K......L.M.B.
0E10: 4E 80 80 78 50 0F 01 80  23 51 0F 01 80 24 51 0F  N..xP...#Q...$Q.
0E20: 01 80 F0 FF FF 7F 80 26  51 0F 01 80 27 51 0F 01  .......&Q...'Q..
0E30: 80 28 51 0F 01 80 29 51  0F 01 80 2A 51 0F 01 80  .(Q...)Q...*Q...
0E40: 2B 51 0F 01 80 2C 51 0F  01 80 2D 51 0F 01 80 2E  +Q...,Q...-Q....
0E50: 51 0F 01 80 2F 51 0F 01  80 30 51 0F 01 80 32 51  Q.../Q...0Q...2Q
0E60: 0F 01 80 33 51 0F 01 80  34 51 0F 01 80 35 51 0F  ...3Q...4Q...5Q.
0E70: 01 80 36 51 0F 01 80 37  51 0F 01 80 38 51 0F 01  ..6Q...7Q...8Q..
0E80: 80 39 51 0F 01 80 3A 51  0F 01 80 3B 51 0F 01 80  .9Q...:Q...;Q...
0E90: 3C 51 0F 01 80 3D 51 0F  01 80 3E 51 0F 01 80 40  <Q...=Q...>Q...@
0EA0: 51 0F 01 80 41 51 0F 01  80 42 51 0F 01 80 43 51  Q...AQ...BQ...CQ
0EB0: 0F 01 80 44 51 0F 01 80  45 51 0F 01 80 46 51 0F  ...DQ...EQ...FQ.
0EC0: 01 80 47 51 0F 01 80 48  51 0F 01 80 49 51 0F 01  ..GQ...HQ...IQ..
0ED0: 80 4A 51 0F 01 80 4B 51  0F 01 D9 00 2C 24 51 0F  .JQ...KQ....,$Q.
0EE0: 01 24 51 0F 01 6B 69 6C  61 53 24 51 0F 01 24 51  .$Q..kilaS$Q..$Q
0EF0: 0F 01 6B 69 6C 61 6C 24  51 0F 01 01 80 03 80 79  ..kilal$Q......y
0F00: 02 F0 FF FF 7F 01 80 01  80 79 02 23 51 0F 01 01  .........y.#Q...
0F10: 80 01 80 29 0F F0 FF FF  7F 33 02 01 00 01 80 00  ...).....3......
0F20: 87 0F 45 1C 80 F8 FF FF  7F F8 FF FF 7F 73 30 37  ..E..........s07
0F30: 34 01 80 1A 43 00 29 0F  F0 FF FF 7F 6C 1C 2E 80  4...C.).....l...
0F40: 29 0F 78 50 0F 01 02 2B  78 50 0F 01 4F 80 23 29  ).xP...+xP..O.#)
0F50: 0F 78 50 0F 01 03 7B 78  50 0F 01 27 14 78 50 0F  .xP...{xP..'.xP.
0F60: 01 09 1C 2E 80 27 0F F0  FF FF 7F 80 1C 06 80 1A  .....'..........
0F70: 64 00 2A 0F F0 FF FF 7F  52 1C 80 F8 FF FF 7F F8  d.*.....R.......
0F80: FF FF 7F 73 30 37 34 BA  F0 FF FF 7F 48 80 49 80  ...s074.....H.I.
0F90: 4A 80 4B 80 77 35 80 50  80 29 0F 23 51 0F 01 09  J.K.w5.P.).#Q...
0FA0: 29 0F 23 51 0F 01 0A 29  0F 68 50 0F 01 12 5C 00  ).#Q...).hP...\.
0FB0: 51 80 5C 01 51 80 9A 5D  1B 80 03 80 02 09 10 2A  Q.\.Q..].......*
0FC0: 80 00 CE 0F 27 0F F0 FF  FF 7F 81 01 D5 0F 27 0F  ....'.........'.
0FD0: F0 FF FF 7F 82 1C 52 80  02 09 10 25 80 00 F4 0F  ......R....%....
0FE0: 45 1C 80 F8 FF FF 7F F8  FF FF 7F 73 31 31 31 01  E..........s111.
0FF0: 80 01 21 10 02 09 10 26  80 00 10 10 45 1C 80 F8  ..!....&....E...
1000: FF FF 7F F8 FF FF 7F 73  31 31 31 01 80 01 21 10  .......s111...!.
1010: 45 1C 80 F8 FF FF 7F F8  FF FF 7F 73 30 37 35 01  E..........s075.
1020: 80 1A 43 00 1C 36 80 1C  53 80 02 09 10 25 80 00  ..C..6..S....%..
1030: 44 10 52 1C 80 F8 FF FF  7F F8 FF FF 7F 73 31 31  D.R..........s11
1040: 31 01 6D 10 02 09 10 26  80 00 5E 10 52 1C 80 F8  1.m....&..^.R...
1050: FF FF 7F F8 FF FF 7F 73  31 31 31 01 6D 10 52 1C  .......s111.m.R.
1060: 80 F8 FF FF 7F F8 FF FF  7F 73 30 37 35 02 09 10  .........s075...
1070: 25 80 00 89 10 45 1C 80  F8 FF FF 7F F8 FF FF 7F  %....E..........
1080: 73 31 31 32 01 80 01 B6  10 02 09 10 26 80 00 A5  s112........&...
1090: 10 45 1C 80 F8 FF FF 7F  F8 FF FF 7F 73 31 31 32  .E..........s112
10A0: 01 80 01 B6 10 45 1C 80  F8 FF FF 7F F8 FF FF 7F  .....E..........
10B0: 73 30 37 36 01 80 1C 54  80 02 09 10 2A 80 00 CA  s076...T....*...
10C0: 10 2A 0F F0 FF FF 7F 01  D0 10 2A 0F F0 FF FF 7F  .*........*.....
10D0: 29 0F 68 50 0F 01 13 02  09 10 25 80 00 F1 10 52  ).hP......%....R
10E0: 1C 80 F8 FF FF 7F F8 FF  FF 7F 73 31 31 32 01 1A  ..........s112..
10F0: 11 02 09 10 26 80 00 0B  11 52 1C 80 F8 FF FF 7F  ....&....R......
1100: F8 FF FF 7F 73 31 31 32  01 1A 11 52 1C 80 F8 FF  ....s112...R....
1110: FF 7F F8 FF FF 7F 73 30  37 36 45 1C 80 F8 FF FF  ......s076E.....
1120: 7F F8 FF FF 7F 73 30 37  37 01 80 79 00 F0 FF FF  .....s077..y....
1130: 7F 23 51 0F 01 2B 23 51  0F 01 55 80 23 02 09 10  .#Q..+#Q..U.#...
1140: 2A 80 00 4F 11 27 0F F0  FF FF 7F 83 01 56 11 27  *..O.'.......V.'
1150: 0F F0 FF FF 7F 85 1C 06  80 52 1C 80 F8 FF FF 7F  .........R......
1160: F8 FF FF 7F 73 30 37 37  02 09 10 25 80 00 84 11  ....s077...%....
1170: 45 1C 80 F8 FF FF 7F F8  FF FF 7F 73 31 31 33 01  E..........s113.
1180: 80 01 CD 11 02 09 10 26  80 00 A0 11 45 1C 80 F8  .......&....E...
1190: FF FF 7F F8 FF FF 7F 73  31 31 33 01 80 01 CD 11  .......s113.....
11A0: 02 09 10 2A 80 00 BC 11  45 1C 80 F8 FF FF 7F F8  ...*....E.......
11B0: FF FF 7F 73 30 37 38 01  80 01 CD 11 45 1C 80 F8  ...s078.....E...
11C0: FF FF 7F F8 FF FF 7F 73  31 32 32 01 80 02 09 10  .......s122.....
11D0: 2A 80 00 E5 11 2A 0F F0  FF FF 7F 29 0F F0 FF FF  *....*.....)....
11E0: 7F 84 01 EB 11 2A 0F F0  FF FF 7F 24 56 80 01 80  .....*.....$V...
11F0: 01 80 25 02 00 10 01 80  00 1C 12 29 0F F0 FF FF  ..%........)....
1200: 7F 54 79 02 23 51 0F 01  57 80 01 80 1C 06 80 29  .Ty.#Q..W......)
1210: 0F 23 51 0F 01 0B 1C 2E  80 01 E8 12 02 00 10 03  .#Q.............
1220: 80 00 45 12 29 0F F0 FF  FF 7F 54 79 02 23 51 0F  ..E.).....Ty.#Q.
1230: 01 57 80 01 80 1C 06 80  29 0F 23 51 0F 01 0B 1C  .W......).#Q....
1240: 2E 80 01 E8 12 02 00 10  05 80 00 E8 12 02 03 00  ................
1250: 58 80 80 5F 12 27 0F F0  FF FF 7F 79 01 CB 12 02  X.._.'.....y....
1260: 03 00 59 80 80 71 12 27  0F F0 FF FF 7F 7A 01 CB  ..Y..q.'.....z..
1270: 12 02 03 00 5A 80 80 83  12 27 0F F0 FF FF 7F 7B  ....Z....'.....{
1280: 01 CB 12 02 03 00 5B 80  80 95 12 27 0F F0 FF FF  ......[....'....
1290: 7F 7C 01 CB 12 02 03 00  5C 80 80 A7 12 27 0F F0  .|......\....'..
12A0: FF FF 7F 7D 01 CB 12 02  03 00 5D 80 80 B9 12 27  ...}......]....'
12B0: 0F F0 FF FF 7F 7E 01 CB  12 02 03 00 5E 80 80 CB  .....~......^...
12C0: 12 27 0F F0 FF FF 7F 7F  01 CB 12 1C 54 80 79 02  .'..........T.y.
12D0: 23 51 0F 01 57 80 01 80  1C 06 80 29 0F 23 51 0F  #Q..W......).#Q.
12E0: 01 0B 1C 2E 80 01 E8 12  02 09 10 25 80 00 02 13  ...........%....
12F0: 52 1C 80 F8 FF FF 7F F8  FF FF 7F 73 31 31 33 01  R..........s113.
1300: 45 13 02 09 10 26 80 00  1C 13 52 1C 80 F8 FF FF  E....&....R.....
1310: 7F F8 FF FF 7F 73 31 31  33 01 45 13 02 09 10 2A  .....s113.E....*
1320: 80 00 36 13 52 1C 80 F8  FF FF 7F F8 FF FF 7F 73  ..6.R..........s
1330: 30 37 38 01 45 13 52 1C  80 F8 FF FF 7F F8 FF FF  078.E.R.........
1340: 7F 73 31 32 32 45 1C 80  F8 FF FF 7F F8 FF FF 7F  .s122E..........
1350: 73 30 37 39 01 80 79 02  23 51 0F 01 01 80 01 80  s079..y.#Q......
1360: 29 0F F0 FF FF 7F 55 2B  23 51 0F 01 5F 80 29 0F  ).....U+#Q.._.).
1370: 23 51 0F 01 0C 6E 23 51  0F 01 60 80 99 23 51 0F  #Q...n#Q..`..#Q.
1380: 01 BA F0 FF FF 7F 61 80  62 80 63 80 64 80 1C 06  ......a.b.c.d...
1390: 80 23 27 0F F0 FF FF 7F  86 1C 3E 80 52 1C 80 F8  .#'.......>.R...
13A0: FF FF 7F F8 FF FF 7F 73  30 37 39 45 1C 80 F8 FF  .......s079E....
13B0: FF 7F F8 FF FF 7F 73 30  38 30 01 80 2A 0F F0 FF  ......s080..*...
13C0: FF 7F 29 0F F0 FF FF 7F  6C 1C 36 80 2B 23 51 0F  ..).....l.6.+#Q.
13D0: 01 65 80 6E 23 51 0F 01  60 80 99 23 51 0F 01 1C  .e.n#Q..`..#Q...
13E0: 36 80 23 52 1C 80 F8 FF  FF 7F F8 FF FF 7F 73 30  6.#R..........s0
13F0: 38 30 02 09 10 25 80 00  0E 14 45 1C 80 F8 FF FF  80...%....E.....
1400: 7F F8 FF FF 7F 73 31 31  34 01 80 01 3B 14 02 09  .....s114...;...
1410: 10 26 80 00 2A 14 45 1C  80 F8 FF FF 7F F8 FF FF  .&..*.E.........
1420: 7F 73 31 31 34 01 80 01  3B 14 45 1C 80 F8 FF FF  .s114...;.E.....
1430: 7F F8 FF FF 7F 73 30 38  31 01 80 29 0F F0 FF FF  .....s081..)....
1440: 7F 54 1C 2E 80 1A 64 00  29 0F F0 FF FF 7F 55 02  .T....d.).....U.
1450: 09 10 25 80 00 69 14 52  1C 80 F8 FF FF 7F F8 FF  ..%..i.R........
1460: FF 7F 73 31 31 34 01 92  14 02 09 10 26 80 00 83  ..s114......&...
1470: 14 52 1C 80 F8 FF FF 7F  F8 FF FF 7F 73 31 31 34  .R..........s114
1480: 01 92 14 52 1C 80 F8 FF  FF 7F F8 FF FF 7F 73 30  ...R..........s0
1490: 38 31 7B 23 51 0F 01 02  09 10 25 80 00 AF 14 BA  81{#Q.....%.....
14A0: F0 FF FF 7F 66 80 67 80  46 80 68 80 01 D4 14 02  ....f.g.F.h.....
14B0: 09 10 26 80 00 C7 14 BA  F0 FF FF 7F 66 80 67 80  ..&.........f.g.
14C0: 46 80 68 80 01 D4 14 BA  F0 FF FF 7F 69 80 6A 80  F.h.........i.j.
14D0: 6B 80 68 80 BA 23 51 0F  01 6C 80 6D 80 63 80 6E  k.h..#Q..l.m.c.n
14E0: 80 29 0F F0 FF FF 7F 77  29 0F 23 51 0F 01 05 29  .).....w).#Q...)
14F0: 0F 23 51 0F 01 06 79 02  F0 FF FF 7F 57 80 01 80  .#Q...y.....W...
1500: 1C 06 80 45 1C 80 F8 FF  FF 7F F8 FF FF 7F 73 30  ...E..........s0
1510: 38 37 01 80 1A 43 00 29  0F 23 51 0F 01 07 1C 54  87...C.).#Q....T
1520: 80 52 1C 80 F8 FF FF 7F  F8 FF FF 7F 73 30 38 37  .R..........s087
1530: 45 1C 80 F8 FF FF 7F F8  FF FF 7F 73 30 38 32 01  E..........s082.
1540: 80 2B 23 51 0F 01 6F 80  23 02 09 10 25 80 00 61  .+#Q..o.#...%..a
1550: 15 BA F0 FF FF 7F 70 80  71 80 46 80 68 80 01 79  ......p.q.F.h..y
1560: 15 02 09 10 26 80 00 79  15 BA F0 FF FF 7F 70 80  ....&..y......p.
1570: 71 80 46 80 68 80 01 79  15 29 0F 23 51 0F 01 08  q.F.h..y.).#Q...
1580: 4A 23 51 0F 01 F0 FF FF  7F 6F 76 23 51 0F 01 29  J#Q......ov#Q..)
1590: 0F 23 51 0F 01 01 2B 23  51 0F 01 72 80 23 52 1C  .#Q...+#Q..r.#R.
15A0: 80 F8 FF FF 7F F8 FF FF  7F 73 30 38 32 02 09 10  .........s082...
15B0: 29 80 00 C9 15 45 1C 80  F8 FF FF 7F F8 FF FF 7F  )....E..........
15C0: 73 31 32 35 01 80 01 2E  16 02 09 10 25 80 00 E5  s125........%...
15D0: 15 45 1C 80 F8 FF FF 7F  F8 FF FF 7F 73 31 31 35  .E..........s115
15E0: 01 80 01 2E 16 02 09 10  26 80 00 01 16 45 1C 80  ........&....E..
15F0: F8 FF FF 7F F8 FF FF 7F  73 31 31 35 01 80 01 2E  ........s115....
1600: 16 02 09 10 2A 80 00 1D  16 45 1C 80 F8 FF FF 7F  ....*....E......
1610: F8 FF FF 7F 73 30 38 33  01 80 01 2E 16 45 1C 80  ....s083.....E..
1620: F8 FF FF 7F F8 FF FF 7F  73 31 31 35 01 80 02 09  ........s115....
1630: 10 25 80 00 40 16 27 0F  F0 FF FF 7F 78 01 52 16  .%..@.'.....x.R.
1640: 02 09 10 26 80 00 52 16  27 0F F0 FF FF 7F 78 01  ...&..R.'.....x.
1650: 52 16 2B 23 51 0F 01 73  80 23 29 0F 23 51 0F 01  R.+#Q..s.#).#Q..
1660: 02 02 09 10 25 80 00 72  16 2A 0F F0 FF FF 7F 01  ....%..r.*......
1670: 83 16 02 09 10 26 80 00  83 16 2A 0F F0 FF FF 7F  .....&....*.....
1680: 01 83 16 02 09 10 29 80  00 9D 16 52 1C 80 F8 FF  ......)....R....
1690: FF 7F F8 FF FF 7F 73 31  32 35 01 FA 16 02 09 10  ......s125......
16A0: 25 80 00 B7 16 52 1C 80  F8 FF FF 7F F8 FF FF 7F  %....R..........
16B0: 73 31 31 35 01 FA 16 02  09 10 26 80 00 D1 16 52  s115......&....R
16C0: 1C 80 F8 FF FF 7F F8 FF  FF 7F 73 31 31 35 01 FA  ..........s115..
16D0: 16 02 09 10 2A 80 00 EB  16 52 1C 80 F8 FF FF 7F  ....*....R......
16E0: F8 FF FF 7F 73 30 38 33  01 FA 16 52 1C 80 F8 FF  ....s083...R....
16F0: FF 7F F8 FF FF 7F 73 31  31 35 45 1C 80 F8 FF FF  ......s115E.....
1700: 7F F8 FF FF 7F 73 30 38  34 01 80 29 0F 23 51 0F  .....s084..).#Q.
1710: 01 03 2B 23 51 0F 01 74  80 23 29 0F 23 51 0F 01  ..+#Q..t.#).#Q..
1720: 04 2B 23 51 0F 01 75 80  6E 23 51 0F 01 25 80 99  .+#Q..u.n#Q..%..
1730: 23 51 0F 01 1C 36 80 1C  36 80 23 52 1C 80 F8 FF  #Q...6..6.#R....
1740: FF 7F F8 FF FF 7F 73 30  38 34 45 1C 80 F8 FF FF  ......s084E.....
1750: 7F F8 FF FF 7F 73 30 38  35 01 80 BB 1A 80 23 51  .....s085.....#Q
1760: 0F 01 23 51 0F 01 68 73  30 30 01 80 2B 23 51 0F  ..#Q..hs00..+#Q.
1770: 01 76 80 6E 23 51 0F 01  77 80 99 23 51 0F 01 1C  .v.n#Q..w..#Q...
1780: 06 80 45 1C 80 F8 FF FF  7F F8 FF FF 7F 37 31 33  ..E..........713
1790: 34 01 80 1C 36 80 23 52  1C 80 F8 FF FF 7F F8 FF  4...6.#R........
17A0: FF 7F 73 30 38 35 45 1C  80 F8 FF FF 7F F8 FF FF  ..s085E.........
17B0: 7F 73 30 38 36 01 80 7B  23 51 0F 01 02 09 10 25  .s086..{#Q.....%
17C0: 80 00 D4 17 BA F0 FF FF  7F 78 80 79 80 46 80 7A  .........x.y.F.z
17D0: 80 01 F3 17 02 09 10 26  80 00 EC 17 BA F0 FF FF  .......&........
17E0: 7F 78 80 79 80 46 80 7A  80 01 F3 17 4B F0 FF FF  .x.y.F.z....K...
17F0: 7F 7A 80 7B F0 FF FF 7F  27 0F 23 51 0F 01 3A 2B  .z.{....'.#Q..:+
1800: 23 51 0F 01 7B 80 23 2B  23 51 0F 01 7C 80 23 2A  #Q..{.#+#Q..|.#*
1810: 0F 23 51 0F 01 02 09 10  25 80 00 20 18 01 31 18  .#Q.....%.. ..1.
1820: 02 09 10 26 80 00 2B 18  01 31 18 6F 76 F0 FF FF  ...&..+..1.ov...
1830: 7F 52 1C 80 F8 FF FF 7F  F8 FF FF 7F 73 30 38 36  .R..........s086
1840: 45 1C 80 F8 FF FF 7F F8  FF FF 7F 73 30 38 38 01  E..........s088.
1850: 80 4A 23 51 0F 01 F0 FF  FF 7F 6F 76 23 51 0F 01  .J#Q......ov#Q..
1860: 9F 7D 80 23 51 0F 01 23  51 0F 01 6D 61 69 6E 01  .}.#Q..#Q..main.
1870: 80 45 1C 80 F8 FF FF 7F  F8 FF FF 7F 31 31 31 38  .E..........1118
1880: 01 80 2B 23 51 0F 01 7E  80 6E 23 51 0F 01 7F 80  ..+#Q..~.n#Q....
1890: 99 23 51 0F 01 1C 36 80  23 52 1C 80 F8 FF FF 7F  .#Q...6.#R......
18A0: F8 FF FF 7F 73 30 38 38  45 1C 80 F8 FF FF 7F F8  ....s088E.......
18B0: FF FF 7F 73 30 38 39 01  80 2B 23 51 0F 01 80 80  ...s089..+#Q....
18C0: 6E 23 51 0F 01 81 80 99  23 51 0F 01 1C 36 80 23  n#Q.....#Q...6.#
18D0: 29 0F 23 51 0F 01 29 2B  23 51 0F 01 82 80 23 29  ).#Q..)+#Q....#)
18E0: 0F 23 51 0F 01 2A 52 1C  80 F8 FF FF 7F F8 FF FF  .#Q..*R.........
18F0: 7F 73 30 38 39 45 1C 80  F8 FF FF 7F F8 FF FF 7F  .s089E..........
1900: 73 30 39 30 01 80 5D 06  80 36 80 29 0F 68 50 0F  s090..]..6.).hP.
1910: 01 12 2B 23 51 0F 01 83  80 29 0F 23 51 0F 01 2B  ..+#Q....).#Q..+
1920: 29 0F 23 51 0F 01 2C 23  2B 23 51 0F 01 84 80 6E  ).#Q..,#+#Q....n
1930: 23 51 0F 01 85 80 99 23  51 0F 01 1C 36 80 23 52  #Q.....#Q...6.#R
1940: 1C 80 F8 FF FF 7F F8 FF  FF 7F 73 30 39 30 45 1C  ..........s090E.
1950: 80 F8 FF FF 7F F8 FF FF  7F 73 30 39 31 01 80 5D  .........s091..]
1960: 01 80 03 80 45 1C 80 F8  FF FF 7F F8 FF FF 7F 38  ....E..........8
1970: 31 36 30 01 80 1C 2E 80  6E 23 51 0F 01 60 80 99  160.....n#Q..`..
1980: 23 51 0F 01 1C 36 80 2B  23 51 0F 01 86 80 23 52  #Q...6.+#Q....#R
1990: 1C 80 F8 FF FF 7F F8 FF  FF 7F 73 30 39 31 45 1C  ..........s091E.
19A0: 80 F8 FF FF 7F F8 FF FF  7F 62 72 6F 66 01 80 45  .........brof..E
19B0: 1C 80 F8 FF FF 7F F8 FF  FF 7F 73 30 39 32 01 80  ..........s092..
19C0: 6E 23 51 0F 01 87 80 99  23 51 0F 01 1C 36 80 2B  n#Q.....#Q...6.+
19D0: 23 51 0F 01 88 80 23 1A  64 00 52 1C 80 F8 FF FF  #Q....#.d.R.....
19E0: 7F F8 FF FF 7F 73 30 39  32 69 01 2A 80 B4 00 05  .....s092i.*....
19F0: 00 3F 3F 3F 00 00 00 00  00 00 00 00 00 00 00 00  .???............
1A00: 00 B5 00 05 00 B0 00 F8  FF FF 7F 24 51 0F 01 89  ...........$Q...
1A10: 80 23 6E 23 51 0F 01 8A  80 99 23 51 0F 01 02 09  .#n#Q.....#Q....
1A20: 10 25 80 00 36 1A BA F0  FF FF 7F 8B 80 8C 80 46  .%..6..........F
1A30: 80 7A 80 01 58 1A 02 09  10 26 80 00 4E 1A BA F0  .z..X....&..N...
1A40: FF FF 7F 8B 80 8C 80 46  80 7A 80 01 58 1A 27 0F  .......F.z..X.'.
1A50: F0 FF FF 7F 78 1C 06 80  02 09 10 25 80 00 74 1A  ....x......%..t.
1A60: 45 1C 80 F8 FF FF 7F F8  FF FF 7F 73 31 31 36 01  E..........s116.
1A70: 80 01 A1 1A 02 09 10 26  80 00 90 1A 45 1C 80 F8  .......&....E...
1A80: FF FF 7F F8 FF FF 7F 73  31 31 36 01 80 01 A1 1A  .......s116.....
1A90: 45 1C 80 F8 FF FF 7F F8  FF FF 7F 73 30 39 33 01  E..........s093.
1AA0: 80 1A 43 00 6C 24 51 0F  01 8D 80 03 80 1C 03 80  ..C.l$Q.........
1AB0: 2C 24 51 0F 01 24 51 0F  01 6B 69 6C 61 53 24 51  ,$Q..$Q..kilaS$Q
1AC0: 0F 01 24 51 0F 01 6B 69  6C 61 2B 23 51 0F 01 8E  ..$Q..kila+#Q...
1AD0: 80 02 09 10 25 80 00 DC  1A 01 ED 1A 02 09 10 26  ....%..........&
1AE0: 80 00 E7 1A 01 ED 1A 2A  0F F0 FF FF 7F 4B F0 FF  .......*.....K..
1AF0: FF 7F 8F 80 6F 76 F0 FF  FF 7F 6E 23 51 0F 01 60  ....ov....n#Q..`
1B00: 80 99 23 51 0F 01 23 27  0F 24 51 0F 01 1B 02 09  ..#Q..#'.$Q.....
1B10: 10 25 80 00 28 1B 52 1C  80 F8 FF FF 7F F8 FF FF  .%..(.R.........
1B20: 7F 73 31 31 36 01 51 1B  02 09 10 26 80 00 42 1B  .s116.Q....&..B.
1B30: 52 1C 80 F8 FF FF 7F F8  FF FF 7F 73 31 31 36 01  R..........s116.
1B40: 51 1B 52 1C 80 F8 FF FF  7F F8 FF FF 7F 73 30 39  Q.R..........s09
1B50: 33 45 1C 80 F8 FF FF 7F  F8 FF FF 7F 73 30 39 34  3E..........s094
1B60: 01 80 29 0F 68 50 0F 01  13 2B 24 51 0F 01 90 80  ..).hP...+$Q....
1B70: 23 69 00 2A 80 5D 1B 80  03 80 BA F0 FF FF 7F 91  #i.*.]..........
1B80: 80 92 80 46 80 93 80 BA  23 51 0F 01 94 80 95 80  ...F....#Q......
1B90: 46 80 96 80 4A F0 FF FF  7F 24 51 0F 01 4A 23 51  F...J....$Q..J#Q
1BA0: 0F 01 24 51 0F 01 6F 76  23 51 0F 01 6F 76 F0 FF  ..$Q..ov#Q..ov..
1BB0: FF 7F 2A 0F 24 51 0F 01  52 1C 80 F8 FF FF 7F F8  ..*.$Q..R.......
1BC0: FF FF 7F 73 30 39 34 02  09 10 25 80 00 E3 1B 45  ...s094...%....E
1BD0: 1C 80 F8 FF FF 7F F8 FF  FF 7F 73 31 32 30 01 80  ..........s120..
1BE0: 01 10 1C 02 09 10 26 80  00 FF 1B 45 1C 80 F8 FF  ......&....E....
1BF0: FF 7F F8 FF FF 7F 73 31  32 30 01 80 01 10 1C 45  ......s120.....E
1C00: 1C 80 F8 FF FF 7F F8 FF  FF 7F 73 30 39 35 01 80  ..........s095..
1C10: 29 0F 23 51 0F 01 23 2B  23 51 0F 01 97 80 23 29  ).#Q..#+#Q....#)
1C20: 0F 23 51 0F 01 24 29 0F  23 51 0F 01 25 02 09 10  .#Q..$).#Q..%...
1C30: 25 80 00 47 1C 52 1C 80  F8 FF FF 7F F8 FF FF 7F  %..G.R..........
1C40: 73 31 32 30 01 70 1C 02  09 10 26 80 00 61 1C 52  s120.p....&..a.R
1C50: 1C 80 F8 FF FF 7F F8 FF  FF 7F 73 31 32 30 01 70  ..........s120.p
1C60: 1C 52 1C 80 F8 FF FF 7F  F8 FF FF 7F 73 30 39 35  .R..........s095
1C70: 45 1C 80 F8 FF FF 7F F8  FF FF 7F 73 30 39 36 01  E..........s096.
1C80: 80 B4 00 05 00 00 00 00  00 00 00 00 00 00 00 00  ................
1C90: 00 00 00 00 00 B5 00 05  00 29 0F 24 51 0F 01 11  .........).$Q...
1CA0: 2B 24 51 0F 01 98 80 23  29 0F 24 51 0F 01 12 29  +$Q....#).$Q...)
1CB0: 0F 23 51 0F 01 26 52 1C  80 F8 FF FF 7F F8 FF FF  .#Q..&R.........
1CC0: 7F 73 30 39 36 45 1C 80  F8 FF FF 7F F8 FF FF 7F  .s096E..........
1CD0: 73 30 39 37 01 80 81 00  23 51 0F 01 29 0F 23 51  s097....#Q..).#Q
1CE0: 0F 01 1F 2B 23 51 0F 01  99 80 1C 06 80 23 52 1C  ...+#Q.......#R.
1CF0: 80 F8 FF FF 7F F8 FF FF  7F 73 30 39 37 45 1C 80  .........s097E..
1D00: F8 FF FF 7F F8 FF FF 7F  73 30 39 38 01 80 29 0F  ........s098..).
1D10: 24 51 0F 01 03 2B 24 51  0F 01 9A 80 29 0F 23 51  $Q...+$Q....).#Q
1D20: 0F 01 20 29 0F 23 51 0F  01 21 81 01 23 51 0F 01  .. ).#Q..!..#Q..
1D30: 23 5D 01 80 08 80 1A 64  00 29 0F 24 51 0F 01 04  #].....d.).$Q...
1D40: 29 0F 23 51 0F 01 22 52  1C 80 F8 FF FF 7F F8 FF  ).#Q.."R........
1D50: FF 7F 73 30 39 38 69 01  2A 80 1C 06 80 48 9B 80  ..s098i.*....H..
1D60: 1A 0B 02 5C 00 9C 80 5C  01 9C 80 9A 5D 1B 80 03  ...\...\....]...
1D70: 80 89 9D 80 1C 2E 80 B4  14 01 80 01 80 9E 80 01  ................
1D80: 80 03 80 B4 14 01 80 01  80 9F 80 A0 80 03 80 1A  ................
1D90: F9 01 4B F0 FF FF 7F A1  80 79 00 F0 FF FF 7F 24  ..K......y.....$
1DA0: 51 0F 01 4A 23 51 0F 01  24 51 0F 01 2B 24 51 0F  Q..J#Q..$Q..+$Q.
1DB0: 01 A2 80 23 1C 08 80 2B  24 51 0F 01 A3 80 23 1C  ...#...+$Q....#.
1DC0: 08 80 2B 24 51 0F 01 A4  80 23 1C 08 80 2B 24 51  ..+$Q....#...+$Q
1DD0: 0F 01 A5 80 23 1C 08 80  6F 76 23 51 0F 01 6F 76  ....#...ov#Q..ov
1DE0: F0 FF FF 7F 5D 01 80 08  80 1A 0B 02 8A B4 15 1A  ....]...........
1DF0: F9 01 69 00 2A 80 48 9B  80 5C 00 51 80 5C 01 51  ..i.*.H..\.Q.\.Q
1E00: 80 9A 5D 1B 80 08 80 45  1C 80 F8 FF FF 7F F8 FF  ..]....E........
1E10: FF 7F 73 30 39 39 01 80  1A 43 00 45 1C 80 F8 FF  ..s099...C.E....
1E20: FF 7F F8 FF FF 7F 38 31  36 30 01 80 6E 23 51 0F  ......8160..n#Q.
1E30: 01 85 80 99 23 51 0F 01  1C 2E 80 2B 23 51 0F 01  ....#Q.....+#Q..
1E40: A6 80 1C 2E 80 23 29 0F  24 51 0F 01 17 2B 24 51  .....#).$Q...+$Q
1E50: 0F 01 A7 80 23 29 0F 24  51 0F 01 18 52 1C 80 F8  ....#).$Q...R...
1E60: FF FF 7F F8 FF FF 7F 73  30 39 39 45 1C 80 F8 FF  .......s099E....
1E70: FF 7F F8 FF FF 7F 62 72  6F 66 01 80 45 1C 80 F8  ......brof..E...
1E80: FF FF 7F F8 FF FF 7F 73  31 30 30 01 80 29 0F 24  .......s100..).$
1E90: 51 0F 01 0B 2B 24 51 0F  01 A8 80 23 52 1C 80 F8  Q...+$Q....#R...
1EA0: FF FF 7F F8 FF FF 7F 73  31 30 30 45 1C 80 F8 FF  .......s100E....
1EB0: FF 7F F8 FF FF 7F 73 31  30 31 01 80 45 1C 80 F8  ......s101..E...
1EC0: FF FF 7F F8 FF FF 7F 38  31 36 30 01 80 5D 01 80  .......8160..]..
1ED0: 03 80 79 00 F0 FF FF 7F  23 51 0F 01 2B 23 51 0F  ..y.....#Q..+#Q.
1EE0: 01 A9 80 6E 23 51 0F 01  60 80 99 23 51 0F 01 1C  ...n#Q..`..#Q...
1EF0: 36 80 23 29 0F 24 51 0F  01 0C 52 1C 80 F8 FF FF  6.#).$Q...R.....
1F00: 7F F8 FF FF 7F 73 31 30  31 45 1C 80 F8 FF FF 7F  .....s101E......
1F10: F8 FF FF 7F 62 72 6F 66  01 80 45 1C 80 F8 FF FF  ....brof..E.....
1F20: 7F F8 FF FF 7F 73 31 31  30 01 80 1C 2E 80 29 0F  .....s110.....).
1F30: 24 51 0F 01 0D 2B 23 51  0F 01 AA 80 6E 23 51 0F  $Q...+#Q....n#Q.
1F40: 01 87 80 99 23 51 0F 01  1C 36 80 23 29 0F 24 51  ....#Q...6.#).$Q
1F50: 0F 01 0E 5D 1B 80 08 80  52 1C 80 F8 FF FF 7F F8  ...]....R.......
1F60: FF FF 7F 73 31 31 30 02  09 10 25 80 00 83 1F 45  ...s110...%....E
1F70: 1C 80 F8 FF FF 7F F8 FF  FF 7F 73 31 32 30 01 80  ..........s120..
1F80: 01 B0 1F 02 09 10 26 80  00 9F 1F 45 1C 80 F8 FF  ......&....E....
1F90: FF 7F F8 FF FF 7F 73 31  32 30 01 80 01 B0 1F 45  ......s120.....E
1FA0: 1C 80 F8 FF FF 7F F8 FF  FF 7F 73 30 39 35 01 80  ..........s095..
1FB0: 79 00 F0 FF FF 7F 24 51  0F 01 29 0F 24 51 0F 01  y.....$Q..).$Q..
1FC0: 13 2B 24 51 0F 01 AB 80  79 00 F0 FF FF 7F 24 51  .+$Q....y.....$Q
1FD0: 0F 01 29 0F 24 51 0F 01  10 6E 23 51 0F 01 60 80  ..).$Q...n#Q..`.
1FE0: 99 23 51 0F 01 1C 36 80  23 02 09 10 25 80 00 03  .#Q...6.#...%...
1FF0: 20 52 1C 80 F8 FF FF 7F  F8 FF FF 7F 73 31 32 30   R..........s120
2000: 01 2C 20 02 09 10 26 80  00 1D 20 52 1C 80 F8 FF  ., ...&... R....
2010: FF 7F F8 FF FF 7F 73 31  32 30 01 2C 20 52 1C 80  ......s120., R..
2020: F8 FF FF 7F F8 FF FF 7F  73 30 39 35 45 1C 80 F8  ........s095E...
2030: FF FF 7F F8 FF FF 7F 73  31 30 32 01 80 29 0F 23  .......s102..).#
2040: 51 0F 01 06 29 0F 23 51  0F 01 07 29 0F 23 51 0F  Q...).#Q...).#Q.
2050: 01 08 29 0F 24 51 0F 01  15 4A F0 FF FF 7F 23 51  ..).$Q...J....#Q
2060: 0F 01 29 0F 23 51 0F 01  29 2B 23 51 0F 01 AC 80  ..).#Q..)+#Q....
2070: 23 29 0F 23 51 0F 01 2A  6F 76 F0 FF FF 7F 29 0F  #).#Q..*ov....).
2080: 24 51 0F 01 16 52 1C 80  F8 FF FF 7F F8 FF FF 7F  $Q...R..........
2090: 73 31 30 32 02 09 10 25  80 00 B0 20 45 1C 80 F8  s102...%... E...
20A0: FF FF 7F F8 FF FF 7F 73  31 31 37 01 80 01 F9 20  .......s117.... 
20B0: 02 09 10 26 80 00 CC 20  45 1C 80 F8 FF FF 7F F8  ...&... E.......
20C0: FF FF 7F 73 31 31 37 01  80 01 F9 20 02 09 10 2A  ...s117.... ...*
20D0: 80 00 E8 20 45 1C 80 F8  FF FF 7F F8 FF FF 7F 73  ... E..........s
20E0: 31 30 33 01 80 01 F9 20  45 1C 80 F8 FF FF 7F F8  103.... E.......
20F0: FF FF 7F 73 31 32 33 01  80 79 00 23 51 0F 01 F0  ...s123..y.#Q...
2100: FF FF 7F 2B 23 51 0F 01  AD 80 29 0F 23 51 0F 01  ...+#Q....).#Q..
2110: 2B 29 0F 23 51 0F 01 2C  23 4A 23 51 0F 01 F0 FF  +).#Q..,#J#Q....
2120: FF 7F 6F 76 23 51 0F 01  02 02 00 03 80 00 49 21  ..ov#Q........I!
2130: 29 0F 23 51 0F 01 33 2B  23 51 0F 01 AE 80 23 29  ).#Q..3+#Q....#)
2140: 0F 23 51 0F 01 34 01 5F  21 29 0F 23 51 0F 01 33  .#Q..4._!).#Q..3
2150: 2B 23 51 0F 01 AF 80 23  29 0F 23 51 0F 01 34 29  +#Q....#).#Q..4)
2160: 0F 23 51 0F 01 35 02 09  10 25 80 00 80 21 52 1C  .#Q..5...%...!R.
2170: 80 F8 FF FF 7F F8 FF FF  7F 73 31 31 37 01 C3 21  .........s117..!
2180: 02 09 10 26 80 00 9A 21  52 1C 80 F8 FF FF 7F F8  ...&...!R.......
2190: FF FF 7F 73 31 31 37 01  C3 21 02 09 10 2A 80 00  ...s117..!...*..
21A0: B4 21 52 1C 80 F8 FF FF  7F F8 FF FF 7F 73 31 30  .!R..........s10
21B0: 33 01 C3 21 52 1C 80 F8  FF FF 7F F8 FF FF 7F 73  3..!R..........s
21C0: 31 32 33 02 09 10 29 80  00 DF 21 45 1C 80 F8 FF  123...)...!E....
21D0: FF 7F F8 FF FF 7F 73 31  30 34 01 80 01 44 22 02  ......s104...D".
21E0: 09 10 25 80 00 FB 21 45  1C 80 F8 FF FF 7F F8 FF  ..%...!E........
21F0: FF 7F 73 31 31 38 01 80  01 44 22 02 09 10 26 80  ..s118...D"...&.
2200: 00 17 22 45 1C 80 F8 FF  FF 7F F8 FF FF 7F 73 31  .."E..........s1
2210: 31 38 01 80 01 44 22 02  09 10 2A 80 00 33 22 45  18...D"...*..3"E
2220: 1C 80 F8 FF FF 7F F8 FF  FF 7F 73 31 30 34 01 80  ..........s104..
2230: 01 44 22 45 1C 80 F8 FF  FF 7F F8 FF FF 7F 73 31  .D"E..........s1
2240: 32 34 01 80 03 09 00 01  80 02 8B 7F 01 80 00 58  24.............X
2250: 22 3C 09 00 05 80 03 80  03 00 10 03 80 02 00 10  "<..............
2260: 03 80 00 F2 26 24 B0 80  01 80 09 00 25 02 00 10  ....&$......%...
2270: 01 80 00 3C 23 6E F0 FF  FF 7F 35 80 99 F0 FF FF  ...<#n....5.....
2280: 7F 1C 2E 80 02 09 10 29  80 00 9E 22 52 1C 80 F8  .......)..."R...
2290: FF FF 7F F8 FF FF 7F 73  31 30 34 01 FB 22 02 09  .......s104.."..
22A0: 10 25 80 00 B8 22 52 1C  80 F8 FF FF 7F F8 FF FF  .%..."R.........
22B0: 7F 73 31 31 38 01 FB 22  02 09 10 26 80 00 D2 22  .s118.."...&..."
22C0: 52 1C 80 F8 FF FF 7F F8  FF FF 7F 73 31 31 38 01  R..........s118.
22D0: FB 22 02 09 10 2A 80 00  EC 22 52 1C 80 F8 FF FF  ."...*..."R.....
22E0: 7F F8 FF FF 7F 73 31 30  34 01 FB 22 52 1C 80 F8  .....s104.."R...
22F0: FF FF 7F F8 FF FF 7F 73  31 32 34 45 1C 80 F8 FF  .......s124E....
2300: FF 7F F8 FF FF 7F 73 31  30 36 01 80 29 0F 23 51  ......s106..).#Q
2310: 0F 01 36 2B 23 51 0F 01  B1 80 6E 23 51 0F 01 B2  ..6+#Q....n#Q...
2320: 80 99 23 51 0F 01 1C 36  80 23 52 1C 80 F8 FF FF  ..#Q...6.#R.....
2330: 7F F8 FF FF 7F 73 31 30  36 01 EF 26 02 00 10 03  .....s106..&....
2340: 80 00 1C 25 6E F0 FF FF  7F 26 80 99 F0 FF FF 7F  ...%n....&......
2350: 1C 2E 80 02 09 10 29 80  00 6D 23 52 1C 80 F8 FF  ......)..m#R....
2360: FF 7F F8 FF FF 7F 73 31  30 34 01 CA 23 02 09 10  ......s104..#...
2370: 25 80 00 87 23 52 1C 80  F8 FF FF 7F F8 FF FF 7F  %...#R..........
2380: 73 31 31 38 01 CA 23 02  09 10 26 80 00 A1 23 52  s118..#...&...#R
2390: 1C 80 F8 FF FF 7F F8 FF  FF 7F 73 31 31 38 01 CA  ..........s118..
23A0: 23 02 09 10 2A 80 00 BB  23 52 1C 80 F8 FF FF 7F  #...*...#R......
23B0: F8 FF FF 7F 73 31 30 34  01 CA 23 52 1C 80 F8 FF  ....s104..#R....
23C0: FF 7F F8 FF FF 7F 73 31  32 34 02 09 10 25 80 00  ......s124...%..
23D0: E6 23 45 1C 80 F8 FF FF  7F F8 FF FF 7F 73 31 31  .#E..........s11
23E0: 39 01 80 01 13 24 02 09  10 26 80 00 02 24 45 1C  9....$...&...$E.
23F0: 80 F8 FF FF 7F F8 FF FF  7F 73 31 31 39 01 80 01  .........s119...
2400: 13 24 45 1C 80 F8 FF FF  7F F8 FF FF 7F 73 31 30  .$E..........s10
2410: 35 01 80 29 0F 23 51 0F  01 36 29 0F 23 51 0F 01  5..).#Q..6).#Q..
2420: 05 2B 23 51 0F 01 B3 80  23 29 0F 23 51 0F 01 06  .+#Q....#).#Q...
2430: 29 0F 23 51 0F 01 07 29  0F 23 51 0F 01 08 2B 23  ).#Q...).#Q...+#
2440: 51 0F 01 B4 80 6E 23 51  0F 01 B5 80 99 23 51 0F  Q....n#Q.....#Q.
2450: 01 1C 2E 80 23 02 09 10  25 80 00 6F 24 52 1C 80  ....#...%..o$R..
2460: F8 FF FF 7F F8 FF FF 7F  73 31 31 39 01 98 24 02  ........s119..$.
2470: 09 10 26 80 00 89 24 52  1C 80 F8 FF FF 7F F8 FF  ..&...$R........
2480: FF 7F 73 31 31 39 01 98  24 52 1C 80 F8 FF FF 7F  ..s119..$R......
2490: F8 FF FF 7F 73 31 30 35  02 09 10 29 80 00 B4 24  ....s105...)...$
24A0: 45 1C 80 F8 FF FF 7F F8  FF FF 7F 73 31 30 34 01  E..........s104.
24B0: 80 01 19 25 02 09 10 25  80 00 D0 24 45 1C 80 F8  ...%...%...$E...
24C0: FF FF 7F F8 FF FF 7F 73  31 31 38 01 80 01 19 25  .......s118....%
24D0: 02 09 10 26 80 00 EC 24  45 1C 80 F8 FF FF 7F F8  ...&...$E.......
24E0: FF FF 7F 73 31 31 38 01  80 01 19 25 02 09 10 2A  ...s118....%...*
24F0: 80 00 08 25 45 1C 80 F8  FF FF 7F F8 FF FF 7F 73  ...%E..........s
2500: 31 30 34 01 80 01 19 25  45 1C 80 F8 FF FF 7F F8  104....%E.......
2510: FF FF 7F 73 31 32 34 01  80 01 EF 26 02 00 10 05  ...s124....&....
2520: 80 00 EF 26 6E F0 FF FF  7F 26 80 99 F0 FF FF 7F  ...&n....&......
2530: 1C 2E 80 02 09 10 29 80  00 4D 25 52 1C 80 F8 FF  ......)..M%R....
2540: FF 7F F8 FF FF 7F 73 31  30 34 01 AA 25 02 09 10  ......s104..%...
2550: 25 80 00 67 25 52 1C 80  F8 FF FF 7F F8 FF FF 7F  %..g%R..........
2560: 73 31 31 38 01 AA 25 02  09 10 26 80 00 81 25 52  s118..%...&...%R
2570: 1C 80 F8 FF FF 7F F8 FF  FF 7F 73 31 31 38 01 AA  ..........s118..
2580: 25 02 09 10 2A 80 00 9B  25 52 1C 80 F8 FF FF 7F  %...*...%R......
2590: F8 FF FF 7F 73 31 30 34  01 AA 25 52 1C 80 F8 FF  ....s104..%R....
25A0: FF 7F F8 FF FF 7F 73 31  32 34 02 09 10 25 80 00  ......s124...%..
25B0: C6 25 45 1C 80 F8 FF FF  7F F8 FF FF 7F 73 31 31  .%E..........s11
25C0: 39 01 80 01 F3 25 02 09  10 26 80 00 E2 25 45 1C  9....%...&...%E.
25D0: 80 F8 FF FF 7F F8 FF FF  7F 73 31 31 39 01 80 01  .........s119...
25E0: F3 25 45 1C 80 F8 FF FF  7F F8 FF FF 7F 73 31 30  .%E..........s10
25F0: 35 01 80 29 0F 23 51 0F  01 36 2B 23 51 0F 01 B6  5..).#Q..6+#Q...
2600: 80 6E 23 51 0F 01 85 80  99 23 51 0F 01 1C 36 80  .n#Q.....#Q...6.
2610: 23 2B 23 51 0F 01 B7 80  6E 23 51 0F 01 B2 80 99  #+#Q....n#Q.....
2620: 23 51 0F 01 1C 36 80 23  02 09 10 25 80 00 42 26  #Q...6.#...%..B&
2630: 52 1C 80 F8 FF FF 7F F8  FF FF 7F 73 31 31 39 01  R..........s119.
2640: 6B 26 02 09 10 26 80 00  5C 26 52 1C 80 F8 FF FF  k&...&..\&R.....
2650: 7F F8 FF FF 7F 73 31 31  39 01 6B 26 52 1C 80 F8  .....s119.k&R...
2660: FF FF 7F F8 FF FF 7F 73  31 30 35 02 09 10 29 80  .......s105...).
2670: 00 87 26 45 1C 80 F8 FF  FF 7F F8 FF FF 7F 73 31  ..&E..........s1
2680: 30 34 01 80 01 EC 26 02  09 10 25 80 00 A3 26 45  04....&...%...&E
2690: 1C 80 F8 FF FF 7F F8 FF  FF 7F 73 31 31 38 01 80  ..........s118..
26A0: 01 EC 26 02 09 10 26 80  00 BF 26 45 1C 80 F8 FF  ..&...&...&E....
26B0: FF 7F F8 FF FF 7F 73 31  31 38 01 80 01 EC 26 02  ......s118....&.
26C0: 09 10 2A 80 00 DB 26 45  1C 80 F8 FF FF 7F F8 FF  ..*...&E........
26D0: FF 7F 73 31 30 34 01 80  01 EC 26 45 1C 80 F8 FF  ..s104....&E....
26E0: FF 7F F8 FF FF 7F 73 31  32 34 01 80 01 EF 26 01  ......s124....&.
26F0: 5D 22 45 1C 80 F8 FF FF  7F F8 FF FF 7F 73 31 30  ]"E..........s10
2700: 37 01 80 7B 23 51 0F 01  2B 23 51 0F 01 B8 80 6E  7..{#Q..+#Q....n
2710: 23 51 0F 01 53 80 99 23  51 0F 01 1C 36 80 23 52  #Q..S..#Q...6.#R
2720: 1C 80 F8 FF FF 7F F8 FF  FF 7F 73 31 30 37 45 1C  ..........s107E.
2730: 80 F8 FF FF 7F F8 FF FF  7F 73 31 30 39 01 80 2B  .........s109..+
2740: 23 51 0F 01 B9 80 6E 23  51 0F 01 BA 80 99 23 51  #Q....n#Q.....#Q
2750: 0F 01 1C 36 80 23 52 1C  80 F8 FF FF 7F F8 FF FF  ...6.#R.........
2760: 7F 73 31 30 39 02 09 10  25 80 00 81 27 45 1C 80  .s109...%...'E..
2770: F8 FF FF 7F F8 FF FF 7F  73 31 32 31 01 80 01 AE  ........s121....
2780: 27 02 09 10 26 80 00 9D  27 45 1C 80 F8 FF FF 7F  '...&...'E......
2790: F8 FF FF 7F 73 31 32 31  01 80 01 AE 27 45 1C 80  ....s121....'E..
27A0: F8 FF FF 7F F8 FF FF 7F  73 31 30 38 01 80 7B 24  ........s108..{$
27B0: 51 0F 01 7B 23 51 0F 01  27 0F 23 51 0F 01 3B 1C  Q..{#Q..'.#Q..;.
27C0: 52 80 27 0F 24 51 0F 01  1C 1C 52 80 4B F0 FF FF  R.'.$Q....R.K...
27D0: 7F BB 80 6F 76 F0 FF FF  7F 1C BC 80 4A F0 FF FF  ...ov.......J...
27E0: 7F 23 51 0F 01 6F 76 F0  FF FF 7F 1C BC 80 27 0F  .#Q..ov.......'.
27F0: F0 FF FF 7F 87 1C 53 80  5D 01 80 08 80 1A 64 00  ......S.].....d.
2800: 1C 2E 80 02 09 10 25 80  00 1D 28 52 1C 80 F8 FF  ......%...(R....
2810: FF 7F F8 FF FF 7F 73 31  32 31 01 46 28 02 09 10  ......s121.F(...
2820: 26 80 00 37 28 52 1C 80  F8 FF FF 7F F8 FF FF 7F  &..7(R..........
2830: 73 31 32 31 01 46 28 52  1C 80 F8 FF FF 7F F8 FF  s121.F(R........
2840: FF 7F 73 31 30 38 2A 0F  24 51 0F 01 29 0F 26 51  ..s108*.$Q..).&Q
2850: 0F 01 02 29 0F 27 51 0F  01 02 29 0F 28 51 0F 01  ...).'Q...).(Q..
2860: 02 29 0F 29 51 0F 01 02  29 0F 2A 51 0F 01 02 29  .).)Q...).*Q...)
2870: 0F 2B 51 0F 01 02 29 0F  2C 51 0F 01 02 29 0F 2D  .+Q...).,Q...).-
2880: 51 0F 01 02 29 0F 2E 51  0F 01 02 29 0F 2F 51 0F  Q...)..Q...)./Q.
2890: 01 02 29 0F 30 51 0F 01  02 29 0F 32 51 0F 01 02  ..).0Q...).2Q...
28A0: 29 0F 33 51 0F 01 02 29  0F 34 51 0F 01 02 29 0F  ).3Q...).4Q...).
28B0: 35 51 0F 01 02 29 0F 36  51 0F 01 02 29 0F 37 51  5Q...).6Q...).7Q
28C0: 0F 01 02 29 0F 38 51 0F  01 02 29 0F 39 51 0F 01  ...).8Q...).9Q..
28D0: 02 29 0F 3A 51 0F 01 02  29 0F 3B 51 0F 01 02 29  .).:Q...).;Q...)
28E0: 0F 3C 51 0F 01 02 29 0F  3D 51 0F 01 02 29 0F 3E  .<Q...).=Q...).>
28F0: 51 0F 01 02 29 0F 3F 51  0F 01 02 29 0F 40 51 0F  Q...).?Q...).@Q.
2900: 01 02 29 0F 41 51 0F 01  02 29 0F 42 51 0F 01 02  ..).AQ...).BQ...
2910: 29 0F 43 51 0F 01 02 29  0F 44 51 0F 01 02 29 0F  ).CQ...).DQ...).
2920: 45 51 0F 01 02 94 00 26  51 0F 01 94 00 27 51 0F  EQ.....&Q....'Q.
2930: 01 94 00 28 51 0F 01 94  00 29 51 0F 01 94 00 2A  ...(Q....)Q....*
2940: 51 0F 01 94 00 2B 51 0F  01 94 00 2C 51 0F 01 94  Q....+Q....,Q...
2950: 00 2D 51 0F 01 94 00 2E  51 0F 01 94 00 2F 51 0F  .-Q.....Q..../Q.
2960: 01 94 00 30 51 0F 01 94  00 32 51 0F 01 94 00 33  ...0Q....2Q....3
2970: 51 0F 01 94 00 34 51 0F  01 94 00 35 51 0F 01 94  Q....4Q....5Q...
2980: 00 36 51 0F 01 94 00 37  51 0F 01 94 00 38 51 0F  .6Q....7Q....8Q.
2990: 01 94 00 39 51 0F 01 94  00 3A 51 0F 01 94 00 3B  ...9Q....:Q....;
29A0: 51 0F 01 94 00 3C 51 0F  01 94 00 3D 51 0F 01 94  Q....<Q....=Q...
29B0: 00 3E 51 0F 01 94 00 3F  51 0F 01 94 00 40 51 0F  .>Q....?Q....@Q.
29C0: 01 94 00 41 51 0F 01 94  00 42 51 0F 01 94 00 43  ...AQ....BQ....C
29D0: 51 0F 01 94 00 44 51 0F  01 94 00 45 51 0F 01 94  Q....DQ....EQ...
29E0: 00 46 51 0F 01 94 00 47  51 0F 01 94 00 48 51 0F  .FQ....GQ....HQ.
29F0: 01 94 00 49 51 0F 01 94  00 4A 51 0F 01 94 00 4B  ...IQ....JQ....K
2A00: 51 0F 01 BA 26 51 0F 01  BD 80 BD 80 01 80 01 80  Q...&Q..........
2A10: BA 27 51 0F 01 BD 80 BD  80 01 80 01 80 BA 28 51  .'Q...........(Q
2A20: 0F 01 BD 80 BD 80 01 80  01 80 BA 29 51 0F 01 BD  ...........)Q...
2A30: 80 BD 80 01 80 01 80 BA  2A 51 0F 01 BD 80 BD 80  ........*Q......
2A40: 01 80 01 80 BA 2B 51 0F  01 BD 80 BD 80 01 80 01  .....+Q.........
2A50: 80 BA 2C 51 0F 01 BD 80  BD 80 01 80 01 80 BA 2D  ..,Q...........-
2A60: 51 0F 01 BD 80 BD 80 01  80 01 80 BA 2E 51 0F 01  Q............Q..
2A70: BD 80 BD 80 01 80 01 80  BA 2F 51 0F 01 BD 80 BD  ........./Q.....
2A80: 80 01 80 01 80 BA 30 51  0F 01 BD 80 BD 80 01 80  ......0Q........
2A90: 01 80 BA 32 51 0F 01 BD  80 BD 80 01 80 01 80 BA  ...2Q...........
2AA0: 33 51 0F 01 BD 80 BD 80  01 80 01 80 BA 34 51 0F  3Q...........4Q.
2AB0: 01 BD 80 BD 80 01 80 01  80 BA 35 51 0F 01 BD 80  ..........5Q....
2AC0: BD 80 01 80 01 80 BA 36  51 0F 01 BD 80 BD 80 01  .......6Q.......
2AD0: 80 01 80 BA 37 51 0F 01  BD 80 BD 80 01 80 01 80  ....7Q..........
2AE0: BA 38 51 0F 01 BD 80 BD  80 01 80 01 80 BA 39 51  .8Q...........9Q
2AF0: 0F 01 BD 80 BD 80 01 80  01 80 BA 3A 51 0F 01 BD  ...........:Q...
2B00: 80 BD 80 01 80 01 80 BA  3B 51 0F 01 BD 80 BD 80  ........;Q......
2B10: 01 80 01 80 BA 3C 51 0F  01 BD 80 BD 80 01 80 01  .....<Q.........
2B20: 80 BA 3D 51 0F 01 BD 80  BD 80 01 80 01 80 BA 3E  ..=Q...........>
2B30: 51 0F 01 BD 80 BD 80 01  80 01 80 BA 3F 51 0F 01  Q...........?Q..
2B40: BD 80 BD 80 01 80 01 80  BA 40 51 0F 01 BD 80 BD  .........@Q.....
2B50: 80 01 80 01 80 BA 41 51  0F 01 BD 80 BD 80 01 80  ......AQ........
2B60: 01 80 BA 42 51 0F 01 BD  80 BD 80 01 80 01 80 BA  ...BQ...........
2B70: 43 51 0F 01 BD 80 BD 80  01 80 01 80 BA 44 51 0F  CQ...........DQ.
2B80: 01 BD 80 BD 80 01 80 01  80 BA 45 51 0F 01 BD 80  ..........EQ....
2B90: BD 80 01 80 01 80 BA 46  51 0F 01 BD 80 BD 80 01  .......FQ.......
2BA0: 80 01 80 BA 47 51 0F 01  BD 80 BD 80 01 80 01 80  ....GQ..........
2BB0: BA 48 51 0F 01 BD 80 BD  80 01 80 01 80 BA 49 51  .HQ...........IQ
2BC0: 0F 01 BD 80 BD 80 01 80  01 80 BA 4A 51 0F 01 BD  ...........JQ...
2BD0: 80 BD 80 01 80 01 80 BA  4B 51 0F 01 BD 80 BD 80  ........KQ......
2BE0: 01 80 01 80 4E 01 27 51  0F 01 4E 01 28 51 0F 01  ....N.'Q..N.(Q..
2BF0: 4E 01 29 51 0F 01 4E 01  2A 51 0F 01 4E 01 2B 51  N.)Q..N.*Q..N.+Q
2C00: 0F 01 4E 01 2C 51 0F 01  4E 01 2D 51 0F 01 4E 01  ..N.,Q..N.-Q..N.
2C10: 2E 51 0F 01 4E 01 2F 51  0F 01 4E 01 30 51 0F 01  .Q..N./Q..N.0Q..
2C20: 4E 01 32 51 0F 01 4E 01  33 51 0F 01 4E 01 34 51  N.2Q..N.3Q..N.4Q
2C30: 0F 01 4E 01 35 51 0F 01  4E 01 36 51 0F 01 4E 01  ..N.5Q..N.6Q..N.
2C40: 37 51 0F 01 4E 01 38 51  0F 01 4E 01 39 51 0F 01  7Q..N.8Q..N.9Q..
2C50: 4E 01 3A 51 0F 01 4E 01  3B 51 0F 01 4E 01 3C 51  N.:Q..N.;Q..N.<Q
2C60: 0F 01 4E 01 3D 51 0F 01  4E 01 3E 51 0F 01 4E 01  ..N.=Q..N.>Q..N.
2C70: 3F 51 0F 01 4E 01 40 51  0F 01 4E 01 41 51 0F 01  ?Q..N.@Q..N.AQ..
2C80: 4E 01 42 51 0F 01 4E 01  43 51 0F 01 4E 01 44 51  N.BQ..N.CQ..N.DQ
2C90: 0F 01 4E 01 45 51 0F 01  4E 01 46 51 0F 01 4E 01  ..N.EQ..N.FQ..N.
2CA0: 47 51 0F 01 4E 01 48 51  0F 01 4E 01 49 51 0F 01  GQ..N.HQ..N.IQ..
2CB0: 4E 01 4A 51 0F 01 4E 01  4B 51 0F 01 2F 01 27 51  N.JQ..N.KQ../.'Q
2CC0: 0F 01 2F 01 28 51 0F 01  2F 01 29 51 0F 01 2F 01  ../.(Q../.)Q../.
2CD0: 2A 51 0F 01 2F 01 2B 51  0F 01 2F 01 2C 51 0F 01  *Q../.+Q../.,Q..
2CE0: 2F 01 2D 51 0F 01 2F 01  2E 51 0F 01 2F 01 2F 51  /.-Q../..Q.././Q
2CF0: 0F 01 2F 01 30 51 0F 01  2F 01 32 51 0F 01 2F 01  ../.0Q../.2Q../.
2D00: 33 51 0F 01 2F 01 34 51  0F 01 2F 01 35 51 0F 01  3Q../.4Q../.5Q..
2D10: 2F 01 36 51 0F 01 2F 01  37 51 0F 01 2F 01 38 51  /.6Q../.7Q../.8Q
2D20: 0F 01 2F 01 39 51 0F 01  2F 01 3A 51 0F 01 2F 01  ../.9Q../.:Q../.
2D30: 3B 51 0F 01 2F 01 3C 51  0F 01 2F 01 3D 51 0F 01  ;Q../.<Q../.=Q..
2D40: 2F 01 3E 51 0F 01 2F 01  3F 51 0F 01 2F 01 40 51  /.>Q../.?Q../.@Q
2D50: 0F 01 2F 01 41 51 0F 01  2F 01 42 51 0F 01 2F 01  ../.AQ../.BQ../.
2D60: 43 51 0F 01 2F 01 44 51  0F 01 2F 01 45 51 0F 01  CQ../.DQ../.EQ..
2D70: 2F 01 46 51 0F 01 2F 01  47 51 0F 01 2F 01 48 51  /.FQ../.GQ../.HQ
2D80: 0F 01 2F 01 49 51 0F 01  2F 01 4A 51 0F 01 2F 01  ../.IQ../.JQ../.
