# 17780992 - Isakoth

## Common Data

| Field            | Value                 |
|------------------|-----------------------|
| Zone             | Lower Jeuno (ID: 245) |
| Block Size       | 200 bytes             |
| Total Events     | 6                     |
| References Count | 10                    |

## List of Events

| Event ID                 | Entrypoint   |   Size |   Instructions |
|--------------------------|--------------|--------|----------------|
| [65535](#event-65535)    | 0x0000       |      1 |              1 |
| [20047](#event-20047)    | 0x0001       |      1 |              1 |
| [65535.1](#event-655351) | 0x0002       |     24 |              6 |
| [65535.2](#event-655352) | 0x001A       |     58 |             10 |
| [65535.3](#event-655353) | 0x0054       |     13 |              3 |
| [65535.4](#event-655354) | 0x0061       |     22 |              5 |

## DAT References (imed_data)

|   Index | Hex Value   |   Dec Value |
|---------|-------------|-------------|
|       0 | 0x000D      |          13 |
|       1 | 0xFFFF55ED  |  4294923757 |
|       2 | 0xFFFF424D  |  4294918733 |
|       3 | 0x0000      |           0 |
|       4 | 0xFFFF548E  |  4294923406 |
|       5 | 0xFFFF417D  |  4294918525 |
|       6 | 0x0047      |          71 |
|       7 | 0x001E      |          30 |
|       8 | 0x0028      |          40 |
|       9 | 0x0024      |          36 |

## Events

### Event 65535

#### Metadata

| Field        | Value   |
|--------------|---------|
| Entrypoint   | 0x0000  |
| Data Size    | 1 bytes |
| Instructions | 1       |

```
      00 01 02 03 04 05 06 07  08 09 0A 0B 0C 0D 0E 0F
      -- -- -- -- -- -- -- --  -- -- -- -- -- -- -- --
0000: 00                                                .               
```

#### Opcodes

```
  0: 0x0000 [0x00] END_REQSTACK()
```

### Event 20047

#### Metadata

| Field        | Value   |
|--------------|---------|
| Entrypoint   | 0x0001  |
| Data Size    | 1 bytes |
| Instructions | 1       |

```
      00 01 02 03 04 05 06 07  08 09 0A 0B 0C 0D 0E 0F
      -- -- -- -- -- -- -- --  -- -- -- -- -- -- -- --
0000:    00                                              .              
```

#### Opcodes

```
  0: 0x0001 [0x00] END_REQSTACK()
```

### Event 65535.1

#### Metadata

| Field        | Value    |
|--------------|----------|
| Entrypoint   | 0x0002   |
| Data Size    | 24 bytes |
| Instructions | 6        |

```
      00 01 02 03 04 05 06 07  08 09 0A 0B 0C 0D 0E 0F
      -- -- -- -- -- -- -- --  -- -- -- -- -- -- -- --
0000:       32 00 80 1F 00 01  80 02 80 03 80 1F 01 6F    2............o
0010: 4A F8 FF FF 7F F6 50 0F  01 00                    J.....P...      
```

#### Opcodes

```
  0: 0x0002 [0x32] ExtData[1]->MainSpeed = 13* * 0.1
  1: 0x0005 [0x1F] MOVE_ENTITY: EventEntity moves to X=-43.539*, Z=-48.563*, Y=0.000*
  2: 0x000D [0x1F] MOVE_ENTITY: Update entity position (mode=1)
  3: 0x000F [0x6F] WAIT_FRAME_DELAY: Yield until WaitTime reaches zero
  4: 0x0010 [0x4A] EventEntity looks at Nantoto (ID: 17780982/0x010F50F6)
  5: 0x0019 [0x00] END_REQSTACK()
```

### Event 65535.2

#### Metadata

| Field        | Value    |
|--------------|----------|
| Entrypoint   | 0x001A   |
| Data Size    | 58 bytes |
| Instructions | 10       |

```
      00 01 02 03 04 05 06 07  08 09 0A 0B 0C 0D 0E 0F
      -- -- -- -- -- -- -- --  -- -- -- -- -- -- -- --
0010:                                32 00 80 1F 00 04            2.....
0020: 80 05 80 03 80 1F 01 6F  4A F8 FF FF 7F F6 50 0F  .......oJ.....P.
0030: 01 6F 76 F8 FF FF 7F 66  06 80 00 51 0F 01 00 51  .ov....f...Q...Q
0040: 0F 01 70 61 73 30 53 00  51 0F 01 00 51 0F 01 70  ..pas0S.Q...Q..p
0050: 61 73 30 00                                       as0.            
```

#### Opcodes

```
  0: 0x001A [0x32] ExtData[1]->MainSpeed = 13* * 0.1
  1: 0x001D [0x1F] MOVE_ENTITY: EventEntity moves to X=-43.890*, Z=-48.771*, Y=0.000*
  2: 0x0025 [0x1F] MOVE_ENTITY: Update entity position (mode=1)
  3: 0x0027 [0x6F] WAIT_FRAME_DELAY: Yield until WaitTime reaches zero
  4: 0x0028 [0x4A] EventEntity looks at Nantoto (ID: 17780982/0x010F50F6)
  5: 0x0031 [0x6F] WAIT_FRAME_DELAY: Yield until WaitTime reaches zero
  6: 0x0032 [0x76] CHECK_ENTITY_RENDER_FLAGS: Wait until EventEntity Render.Flags0 and Render.Flags3 conditions are met
  7: 0x0037 [0x66] LOAD_EXT_SCHEDULER_MAIN: Load scheduler "pas0" with entities [Isakoth (ID: 17780992/0x010F5100), Isakoth (ID: 17780992/0x010F5100)], work=71*
  8: 0x0046 [0x53] WAIT_SCHEDULER_TASK: Wait for scheduler "pas0" with entities [Isakoth (ID: 17780992/0x010F5100), Isakoth (ID: 17780992/0x010F5100)]
  9: 0x0053 [0x00] END_REQSTACK()
```

### Event 65535.3

#### Metadata

| Field        | Value    |
|--------------|----------|
| Entrypoint   | 0x0054   |
| Data Size    | 13 bytes |
| Instructions | 3        |

```
      00 01 02 03 04 05 06 07  08 09 0A 0B 0C 0D 0E 0F
      -- -- -- -- -- -- -- --  -- -- -- -- -- -- -- --
0050:             1C 07 80 4A  F8 FF FF 7F F0 FF FF 7F      ...J........
0060: 00                                                .               
```

#### Opcodes

```
  0: 0x0054 [0x1C] WAIT(30* ticks)
  1: 0x0057 [0x4A] EventEntity looks at LocalPlayer
  2: 0x0060 [0x00] END_REQSTACK()
```

### Event 65535.4

#### Metadata

| Field        | Value    |
|--------------|----------|
| Entrypoint   | 0x0061   |
| Data Size    | 22 bytes |
| Instructions | 5        |

```
      00 01 02 03 04 05 06 07  08 09 0A 0B 0C 0D 0E 0F
      -- -- -- -- -- -- -- --  -- -- -- -- -- -- -- --
0060:    2A 08 F0 FF FF 7F 1C  08 80 6E F8 FF FF 7F 09   *........n.....
0070: 80 99 F8 FF FF 7F 00                              .......         
```

#### Opcodes

```
  0: 0x0061 [0x2A] GET_REQ_LEVEL(level=8, entity_id=LocalPlayer)
  1: 0x0067 [0x1C] WAIT(40* ticks)
  2: 0x006A [0x6E] EventEntity uses emote 36*
  3: 0x0071 [0x99] Wait for EventEntity animation to complete
  4: 0x0076 [0x00] END_REQSTACK()
```
