# 17781001 - Kavivian

## Common Data

| Field            | Value                 |
|------------------|-----------------------|
| Zone             | Lower Jeuno (ID: 245) |
| Block Size       | 76 bytes              |
| Total Events     | 2                     |
| References Count | 4                     |

## List of Events

| Event ID              | Entrypoint   |   Size |   Instructions |
|-----------------------|--------------|--------|----------------|
| [65535](#event-65535) | 0x0000       |      1 |              1 |
| [20073](#event-20073) | 0x0001       |     35 |             11 |

## DAT References (imed_data)

|   Index | Hex Value   |   Dec Value |
|---------|-------------|-------------|
|       0 | 0x0000      |           0 |
|       1 | 0x2B05      |       11013 |
|       2 | 0x2B06      |       11014 |
|       3 | 0x2B07      |       11015 |

## String References

- **11013**: This one is the shop's main draw! There was a huge line just to be able to hold her.
- **11014**: Look at how she's wriggling about. She's so small and cute!
- **11015**: My back kind of hurts and is starting to itch, but that's the whole point. It's all part of the experience.

## Events

### Event 65535

#### Metadata

| Field        | Value   |
|--------------|---------|
| Entrypoint   | 0x0000  |
| Data Size    | 1 bytes |
| Instructions | 1       |

```
      00 01 02 03 04 05 06 07  08 09 0A 0B 0C 0D 0E 0F
      -- -- -- -- -- -- -- --  -- -- -- -- -- -- -- --
0000: 00                                                .               
```

#### Opcodes

```
  0: 0x0000 [0x00] END_REQSTACK()
```

### Event 20073

#### Metadata

| Field        | Value    |
|--------------|----------|
| Entrypoint   | 0x0001   |
| Data Size    | 35 bytes |
| Instructions | 11       |

```
      00 01 02 03 04 05 06 07  08 09 0A 0B 0C 0D 0E 0F
      -- -- -- -- -- -- -- --  -- -- -- -- -- -- -- --
0000:    79 00 F8 FF FF 7F F0  FF FF 7F 02 02 10 00 80   y..............
0010: 00 1A 00 1D 01 80 23 01  22 00 1D 02 80 23 1D 03  ......#."....#..
0020: 80 23 21 00                                       .#!.            
```

#### Opcodes

```
  0: 0x0001 [0x79] EventEntity looks at LocalPlayer (Basic look)
  1: 0x000B [0x02] IF !(Work_Zone[2] == 0*) GOTO 0x001A
  2: 0x0013 [0x1D] PRINT_EVENT_MESSAGE(message_id=11013*)
    → "This one is the shop's main draw! There was a huge line just to be able to hold her."
  3: 0x0016 [0x23] WAIT_FOR_DIALOG_INTERACTION
  4: 0x0017 [0x01] GOTO 0x0022
  5: 0x001A [0x1D] PRINT_EVENT_MESSAGE(message_id=11014*)
    → "Look at how she's wriggling about. She's so small and cute!"
  6: 0x001D [0x23] WAIT_FOR_DIALOG_INTERACTION
  7: 0x001E [0x1D] PRINT_EVENT_MESSAGE(message_id=11015*)
    → "My back kind of hurts and is starting to itch, but that's the whole point. It's all part of the experience."
  8: 0x0021 [0x23] WAIT_FOR_DIALOG_INTERACTION

SUBROUTINE_0022:
  9: 0x0022 [0x21] END_EVENT
 10: 0x0023 [0x00] END_REQSTACK()
```
