# 17780960 - Waypoint

## Common Data

| Field            | Value                 |
|------------------|-----------------------|
| Zone             | Lower Jeuno (ID: 245) |
| Block Size       | 10544 bytes           |
| Total Events     | 3                     |
| References Count | 307                   |

## List of Events

| Event ID              | Entrypoint   |   Size |   Instructions |
|-----------------------|--------------|--------|----------------|
| [65535](#event-65535) | 0x0000       |      1 |              1 |
| [10120](#event-10120) | 0x0001       |   1022 |            116 |
| [10121](#event-10121) | 0x03FF       |   8265 |           1389 |

## DAT References (imed_data)

|   Index | Hex Value   |   Dec Value |
|---------|-------------|-------------|
|       0 | 0x286A      |       10346 |
|       1 | 0x0001      |           1 |
|       2 | 0x0000      |           0 |
|       3 | 0x40000000  |  1073741824 |
|       4 | 0x0013      |          19 |
|       5 | 0xFFFF7D76  |  4294933878 |
|       6 | 0xFFFF846C  |  4294935660 |
|       7 | 0x08A5      |        2213 |
|       8 | 0x0231      |         561 |
|       9 | 0x008C      |         140 |
|      10 | 0x0078      |         120 |
|      11 | 0x001E      |          30 |
|      12 | 0x003C      |          60 |
|      13 | 0x005A      |          90 |
|      14 | 0x000F      |          15 |
|      15 | 0x00C8      |         200 |
|      16 | 0x00C9      |         201 |
|      17 | 0x002D      |          45 |
|      18 | 0x0002      |           2 |
|      19 | 0x00D7      |         215 |
|      20 | 0x000A      |          10 |
|      21 | 0x000B      |          11 |
|      22 | 0x000E      |          14 |
|      23 | 0x0010      |          16 |
|      24 | 0x001F      |          31 |
|      25 | 0x37FC      |       14332 |
|      26 | 0x0014      |          20 |
|      27 | 0x0028      |          40 |
|      28 | 0x0003      |           3 |
|      29 | 0x0032      |          50 |
|      30 | 0x0004      |           4 |
|      31 | 0x0005      |           5 |
|      32 | 0x0046      |          70 |
|      33 | 0x0006      |           6 |
|      34 | 0x0050      |          80 |
|      35 | 0x0007      |           7 |
|      36 | 0x0008      |           8 |
|      37 | 0x0064      |         100 |
|      38 | 0x0009      |           9 |
|      39 | 0x006E      |         110 |
|      40 | 0x000C      |          12 |
|      41 | 0xFFFFFFFE  |  4294967294 |
|      42 | 0x000D      |          13 |
|      43 | 0x286E      |       10350 |
|      44 | 0xC350      |       50000 |
|      45 | 0x2881      |       10369 |
|      46 | 0x2882      |       10370 |
|      47 | 0x288E      |       10382 |
|      48 | 0x288C      |       10380 |
|      49 | 0x03E8      |        1000 |
|      50 | 0x288D      |       10381 |
|      51 | 0x03E9      |        1001 |
|      52 | 0x286D      |       10349 |
|      53 | 0x01F5      |         501 |
|      54 | 0x01F6      |         502 |
|      55 | 0x01F7      |         503 |
|      56 | 0x01F8      |         504 |
|      57 | 0x01F9      |         505 |
|      58 | 0x01FA      |         506 |
|      59 | 0x01FB      |         507 |
|      60 | 0x01FC      |         508 |
|      61 | 0x01FD      |         509 |
|      62 | 0x2873      |       10355 |
|      63 | 0x01FE      |         510 |
|      64 | 0x01FF      |         511 |
|      65 | 0x0200      |         512 |
|      66 | 0x0201      |         513 |
|      67 | 0x0202      |         514 |
|      68 | 0x0203      |         515 |
|      69 | 0x0204      |         516 |
|      70 | 0x0205      |         517 |
|      71 | 0x0206      |         518 |
|      72 | 0x2871      |       10353 |
|      73 | 0x0207      |         519 |
|      74 | 0x0208      |         520 |
|      75 | 0x0209      |         521 |
|      76 | 0x020A      |         522 |
|      77 | 0x2877      |       10359 |
|      78 | 0x020B      |         523 |
|      79 | 0x020C      |         524 |
|      80 | 0x020D      |         525 |
|      81 | 0x020E      |         526 |
|      82 | 0x2875      |       10357 |
|      83 | 0x020F      |         527 |
|      84 | 0x0210      |         528 |
|      85 | 0x0211      |         529 |
|      86 | 0x0212      |         530 |
|      87 | 0x0213      |         531 |
|      88 | 0x2879      |       10361 |
|      89 | 0x0214      |         532 |
|      90 | 0x0215      |         533 |
|      91 | 0x0216      |         534 |
|      92 | 0x0217      |         535 |
|      93 | 0x0218      |         536 |
|      94 | 0x0219      |         537 |
|      95 | 0x287B      |       10363 |
|      96 | 0x021A      |         538 |
|      97 | 0x021B      |         539 |
|      98 | 0x021C      |         540 |
|      99 | 0x021D      |         541 |
|     100 | 0x021E      |         542 |
|     101 | 0x021F      |         543 |
|     102 | 0x0220      |         544 |
|     103 | 0x0221      |         545 |
|     104 | 0x0222      |         546 |
|     105 | 0x0223      |         547 |
|     106 | 0x0224      |         548 |
|     107 | 0x0225      |         549 |
|     108 | 0x0226      |         550 |
|     109 | 0x0227      |         551 |
|     110 | 0x287D      |       10365 |
|     111 | 0x286F      |       10351 |
|     112 | 0x012C      |         300 |
|     113 | 0x004B      |          75 |
|     114 | 0x0015      |          21 |
|     115 | 0x03E7      |         999 |
|     116 | 0x00CA      |         202 |
|     117 | 0x00CB      |         203 |
|     118 | 0x00CC      |         204 |
|     119 | 0x00CD      |         205 |
|     120 | 0x00CE      |         206 |
|     121 | 0x00CF      |         207 |
|     122 | 0x00D0      |         208 |
|     123 | 0x00D1      |         209 |
|     124 | 0x00D2      |         210 |
|     125 | 0x012D      |         301 |
|     126 | 0x012E      |         302 |
|     127 | 0x012F      |         303 |
|     128 | 0x0130      |         304 |
|     129 | 0x1320      |        4896 |
|     130 | 0xFFFFED4B  |  4294962507 |
|     131 | 0xFFFE505C  |  4294856796 |
|     132 | 0xFFFFCB56  |  4294953814 |
|     133 | 0x0F0A      |        3850 |
|     134 | 0x0C00      |        3072 |
|     135 | 0xFFFFAE0A  |  4294946314 |
|     136 | 0xFFFEC7ED  |  4294887405 |
|     137 | 0xFFFFFF6A  |  4294967146 |
|     138 | 0x0800      |        2048 |
|     139 | 0x1653B     |       91451 |
|     140 | 0xFFFF408B  |  4294918283 |
|     141 | 0xFFFEF5FD  |  4294899197 |
|     142 | 0xFFFEE038  |  4294893624 |
|     143 | 0x0FA0      |        4000 |
|     144 | 0x01C4      |         452 |
|     145 | 0x1663      |        5731 |
|     146 | 0xFFFE1F5D  |  4294844253 |
|     147 | 0x2AABF     |      174783 |
|     148 | 0xFFFF7434  |  4294931508 |
|     149 | 0x0400      |        1024 |
|     150 | 0x38FA      |       14586 |
|     151 | 0x27B30     |      162608 |
|     152 | 0xC796      |       51094 |
|     153 | 0x1ED5B     |      126299 |
|     154 | 0x7D00      |       32000 |
|     155 | 0xFFFE7466  |  4294866022 |
|     156 | 0xFFFFD61A  |  4294956570 |
|     157 | 0xFFFECF88  |  4294889352 |
|     158 | 0xFFFF064A  |  4294903370 |
|     159 | 0xFFFF490A  |  4294920458 |
|     160 | 0xFFFFCE21  |  4294954529 |
|     161 | 0xFFFFFFB5  |  4294967221 |
|     162 | 0xFFFF1E53  |  4294909523 |
|     163 | 0x14CF5     |       85237 |
|     164 | 0xFFFF0E57  |  4294905431 |
|     165 | 0xFFFE2816  |  4294846486 |
|     166 | 0xFFFF5BAF  |  4294925231 |
|     167 | 0xFFFEA085  |  4294877317 |
|     168 | 0x2DA1      |       11681 |
|     169 | 0x7518      |       29976 |
|     170 | 0xFFFFA97A  |  4294945146 |
|     171 | 0x69F4      |       27124 |
|     172 | 0xFFFF1254  |  4294906452 |
|     173 | 0xFFFF632A  |  4294927146 |
|     174 | 0x176FA     |       95994 |
|     175 | 0xFFFEDCD3  |  4294892755 |
|     176 | 0x0016      |          22 |
|     177 | 0x0017      |          23 |
|     178 | 0x0018      |          24 |
|     179 | 0x0019      |          25 |
|     180 | 0x001A      |          26 |
|     181 | 0x001B      |          27 |
|     182 | 0x001C      |          28 |
|     183 | 0x001D      |          29 |
|     184 | 0x4E5E8     |      321000 |
|     185 | 0xFFFCF388  |  4294767496 |
|     186 | 0x151E4     |       86500 |
|     187 | 0x05DC      |        1500 |
|     188 | 0xFFFBA0DC  |  4294680796 |
|     189 | 0xA9EC      |       43500 |
|     190 | 0xFFFD85A0  |  4294804896 |
|     191 | 0xFFFBD660  |  4294694496 |
|     192 | 0x03EA      |        1002 |
|     193 | 0x0020      |          32 |
|     194 | 0x0021      |          33 |
|     195 | 0x0022      |          34 |
|     196 | 0x591C8     |      365000 |
|     197 | 0x2E630     |      190000 |
|     198 | 0x0258      |         600 |
|     199 | 0x01A4      |         420 |
|     200 | 0xFFFFE521  |  4294960417 |
|     201 | 0xFFFE34F9  |  4294849785 |
|     202 | 0xFFFF5BF0  |  4294925296 |
|     203 | 0x25D78     |      155000 |
|     204 | 0xFFF94170  |  4294525296 |
|     205 | 0xFFFC3B28  |  4294720296 |
|     206 | 0x0029      |          41 |
|     207 | 0x002A      |          42 |
|     208 | 0x002B      |          43 |
|     209 | 0x002C      |          44 |
|     210 | 0x6131E     |      398110 |
|     211 | 0x44246     |      279110 |
|     212 | 0xFFFFF830  |  4294965296 |
|     213 | 0x3138      |       12600 |
|     214 | 0x537F0     |      342000 |
|     215 | 0xFFFFF6A0  |  4294964896 |
|     216 | 0x7B4A8     |      505000 |
|     217 | 0xFFFB5E74  |  4294663796 |
|     218 | 0xFFFFF736  |  4294965046 |
|     219 | 0x19258     |      103000 |
|     220 | 0xFFFE9774  |  4294874996 |
|     221 | 0xFFFFF768  |  4294965096 |
|     222 | 0xFFFC2868  |  4294715496 |
|     223 | 0xFFFF66AE  |  4294928046 |
|     224 | 0xFFFFF6BE  |  4294964926 |
|     225 | 0x0033      |          51 |
|     226 | 0x0034      |          52 |
|     227 | 0x0035      |          53 |
|     228 | 0x0036      |          54 |
|     229 | 0x0037      |          55 |
|     230 | 0x6C550     |      443728 |
|     231 | 0xFFFB08CC  |  4294641868 |
|     232 | 0xFFFFC180  |  4294951296 |
|     233 | 0x59D80     |      368000 |
|     234 | 0x927C      |       37500 |
|     235 | 0x1B8A0     |      112800 |
|     236 | 0x4F330     |      324400 |
|     237 | 0xFFFFFE1D  |  4294966813 |
|     238 | 0x2AD8C     |      175500 |
|     239 | 0xFFFB2508  |  4294649096 |
|     240 | 0xFFFFC323  |  4294951715 |
|     241 | 0xFFFB1248  |  4294644296 |
|     242 | 0x07D0      |        2000 |
|     243 | 0xFFFF8300  |  4294935296 |
|     244 | 0xFFFECE88  |  4294889096 |
|     245 | 0x49F98     |      303000 |
|     246 | 0xFFFF474C  |  4294920012 |
|     247 | 0x003D      |          61 |
|     248 | 0x003E      |          62 |
|     249 | 0x003F      |          63 |
|     250 | 0x0040      |          64 |
|     251 | 0x0041      |          65 |
|     252 | 0x0042      |          66 |
|     253 | 0x56414     |      353300 |
|     254 | 0x256D4     |      153300 |
|     255 | 0x0E00      |        3584 |
|     256 | 0xFFFF61CD  |  4294926797 |
|     257 | 0x485AF     |      296367 |
|     258 | 0x016F      |         367 |
|     259 | 0x1DD14     |      122132 |
|     260 | 0xFFFB9C0D  |  4294679565 |
|     261 | 0x0092      |         146 |
|     262 | 0xFFFBCEA8  |  4294692520 |
|     263 | 0x14D80     |       85376 |
|     264 | 0x0165      |         357 |
|     265 | 0x0047      |          71 |
|     266 | 0x0048      |          72 |
|     267 | 0x0049      |          73 |
|     268 | 0x004A      |          74 |
|     269 | 0x57670     |      358000 |
|     270 | 0x28488     |      165000 |
|     271 | 0xFFFF15A0  |  4294907296 |
|     272 | 0x4EDB8     |      323000 |
|     273 | 0xFFFECB68  |  4294888296 |
|     274 | 0xFFFFB1E0  |  4294947296 |
|     275 | 0x1A98      |        6808 |
|     276 | 0x13265     |       78437 |
|     277 | 0xFFFB230C  |  4294648588 |
|     278 | 0xFFFE0ED5  |  4294840021 |
|     279 | 0xFFFB067A  |  4294641274 |
|     280 | 0x31188     |      201096 |
|     281 | 0xFFFF63A9  |  4294927273 |
|     282 | 0x0051      |          81 |
|     283 | 0x0052      |          82 |
|     284 | 0x0053      |          83 |
|     285 | 0x0054      |          84 |
|     286 | 0x0055      |          85 |
|     287 | 0x6B46B     |      439403 |
|     288 | 0xFFFBD756  |  4294694742 |
|     289 | 0xF618      |       63000 |
|     290 | 0xFFFF59B2  |  4294924722 |
|     291 | 0xFFFEE969  |  4294895977 |
|     292 | 0xA7F8      |       43000 |
|     293 | 0x2030      |        8240 |
|     294 | 0xFFFBAE77  |  4294684279 |
|     295 | 0x2418      |        9240 |
|     296 | 0x27BF3     |      162803 |
|     297 | 0x59D8      |       23000 |
|     298 | 0xFFFC81B2  |  4294738354 |
|     299 | 0x58FE0     |      364512 |
|     300 | 0x0DEF      |        3567 |
|     301 | 0x005B      |          91 |
|     302 | 0x005C      |          92 |
|     303 | 0x005D      |          93 |
|     304 | 0x005E      |          94 |
|     305 | 0x005F      |          95 |
|     306 | 0x008D      |         141 |

## String References

- **10346**: Activate this waypoint? [Yes./No.]
- **10349**: What will you do? (Kinetic Units: $3) [Nothing./Read an explanation!/Go to Western Adoulin./Go to Eastern Adoulin./Go to Ceizak Battlegrounds./Go to Yahse Hunting Grounds./Go to Foret de Hennetiel./Go to Morimar Basalt Fields./Go to Yorcia Weald./Go to Marjami Ravine./Go to Kamihr Drifts./Go to Jeuno. ($4 unit[/s])/Go to an enigmatic device./Use runes./Decline destination confirmation./Accept destination confirmation.]
- **10350**: What will you do? (Kinetic Units: $3) [Nothing./Read an explanation./Go to Western Adoulin. ($4 unit[/s])/Decline destination confirmation./Accept destination confirmation.]
- **10351**: Choose a destination. (Kinetic Units: $3) [Back./Northern San d'Oria. ($4 unit[/s])/Bastok Markets. ($4 unit[/s])/Windurst Woods. ($4 unit[/s])/Selbina. ($4 unit[/s])/Mhaura. ($4 unit[/s])/Kazham. ($4 unit[/s])/Rabao. ($4 unit[/s])/Norg. ($4 unit[/s])/Tavnazian Safehold. ($4 unit[/s])/Aht Urhgan Whitegate. ($4 unit[/s])/Nashmau. ($4 unit[/s])/($4 unit[/s])/($4 unit[/s])/($4 unit[/s])/($4 unit[/s])/($4 unit[/s])/($4 unit[/s])/($4 unit[/s])/($4 unit[/s])/($4 unit[/s])/($4 unit[/s])/($4 unit[/s])/($4 unit[/s])/($4 unit[/s])/($4 unit[/s])/($4 unit[/s])/($4 unit[/s])/($4 unit[/s])/($4 unit[/s])/($4 unit[/s])]
- **10365**: Choose a destination. (Kinetic Units: $3) [Nowhere./Rala Waterways. ($4 unit[/s])/Cirdas Caverns. ($4 unit[/s])/Yorcia Weald. ($4 unit[/s])/Outer Ra'Kaznar. ($4 unit[/s])/Somewhere. ($4 unit[/s])]
- **10369**: Leaning in closely to the device, one can make out miniscule etchings that read, "Trade various crystals to this waypoint to receive kinetic units that may be used when you wish to warp to another locale."
- **10370**: "Travelers may not possess more than $1 at a given time. Should someone trade an amount of crystals that would result in a surplus of kinetic units, those units will be lost to the aether."
- **10380**: You will not be asked to confirm your choice of destination. Switching to simple teleporation mode.
- **10381**: You will be asked to confirm your choice of destination. Returning to normal teleportation mode.
- **10382**: Warp to your destination? [Yes./No.]

## Events

### Event 65535

#### Metadata

| Field        | Value   |
|--------------|---------|
| Entrypoint   | 0x0000  |
| Data Size    | 1 bytes |
| Instructions | 1       |

```
      00 01 02 03 04 05 06 07  08 09 0A 0B 0C 0D 0E 0F
      -- -- -- -- -- -- -- --  -- -- -- -- -- -- -- --
0000: 00                                                .               
```

#### Opcodes

```
  0: 0x0000 [0x00] END_REQSTACK()
```

### Event 10120

#### Metadata

| Field        | Value      |
|--------------|------------|
| Entrypoint   | 0x0001     |
| Data Size    | 1022 bytes |
| Instructions | 66         |

```
      00 01 02 03 04 05 06 07  08 09 0A 0B 0C 0D 0E 0F
      -- -- -- -- -- -- -- --  -- -- -- -- -- -- -- --
0000:    42 03 00 00 02 10 24  00 80 01 80 02 80 25 02   B.....$......%.
0010: 00 10 01 80 00 22 00 03  01 10 03 80 01 5B 01 01  .....".......[..
0020: 22 00 1A D1 01 46 01 38  04 80 94 01 F0 FF FF 7F  "....F.8........
0030: 94 01 F8 FF FF 7F BA F0  FF FF 7F 05 80 06 80 02  ................
0040: 80 07 80 80 F0 FF FF 7F  80 F8 FF FF 7F 4A F0 FF  .............J..
0050: FF 7F F8 FF FF 7F 6F 76  F0 FF FF 7F 29 10 F0 FF  ......ov....)...
0060: FF 7F 5E 45 08 80 F0 FF  FF 7F F0 FF FF 7F 61 64  ..^E..........ad
0070: 30 31 02 80 1A B0 01 CD  09 80 F8 FF FF 7F F8 FF  01..............
0080: FF 7F 73 30 30 30 02 80  1C 0A 80 1C 0B 80 52 08  ..s000........R.
0090: 80 F0 FF FF 7F F0 FF FF  7F 61 64 30 31 45 08 80  .........ad01E..
00A0: F0 FF FF 7F F0 FF FF 7F  61 64 30 33 02 80 1C 0C  ........ad03....
00B0: 80 CD 09 80 F8 FF FF 7F  F0 FF FF 7F 6D 61 69 6E  ............main
00C0: 02 80 1C 0D 80 92 01 F0  FF FF 7F 1C 0B 80 52 08  ..............R.
00D0: 80 F0 FF FF 7F F0 FF FF  7F 61 64 30 33 45 08 80  .........ad03E..
00E0: F0 FF FF 7F F0 FF FF 7F  61 64 30 34 02 80 CD 09  ........ad04....
00F0: 80 F8 FF FF 7F F8 FF FF  7F 73 74 70 30 02 80 1C  .........stp0...
0100: 0A 80 1A 13 02 1C 0C 80  1A D1 01 1A F2 01 52 08  ..............R.
0110: 80 F0 FF FF 7F F0 FF FF  7F 61 64 30 34 45 08 80  .........ad04E..
0120: F0 FF FF 7F F0 FF FF 7F  30 62 6C 66 02 80 CD 09  ........0blf....
0130: 80 F8 FF FF 7F F0 FF FF  7F 61 31 32 38 02 80 1C  .........a128...
0140: 0E 80 AB 11 02 80 1C 01  80 03 01 10 01 80 02 00  ................
0150: 00 02 80 00 59 01 30 21  00 46 00 45 0F 80 F0 FF  ....Y.0!.F.E....
0160: FF 7F F0 FF FF 7F 66 64  69 32 02 80 21 00 45 0F  ......fdi2..!.E.
0170: 80 F0 FF FF 7F F0 FF FF  7F 66 64 69 30 02 80 55  .........fdi0..U
0180: 0F 80 F0 FF FF 7F F0 FF  FF 7F 66 64 69 30 1B 45  ..........fdi0.E
0190: 0F 80 F0 FF FF 7F F0 FF  FF 7F 66 64 6F 30 02 80  ..........fdo0..
01A0: 55 0F 80 F0 FF FF 7F F0  FF FF 7F 66 64 6F 30 1B  U..........fdo0.
01B0: 45 0F 80 F0 FF FF 7F F0  FF FF 7F 66 64 69 31 02  E..........fdi1.
01C0: 80 55 0F 80 F0 FF FF 7F  F0 FF FF 7F 66 64 69 31  .U..........fdi1
01D0: 1B 45 0F 80 F0 FF FF 7F  F0 FF FF 7F 66 64 6F 31  .E..........fdo1
01E0: 02 80 55 0F 80 F0 FF FF  7F F0 FF FF 7F 66 64 6F  ..U..........fdo
01F0: 31 1B 45 10 80 F0 FF FF  7F F0 FF FF 7F 77 68 69  1.E..........whi
0200: 31 02 80 55 10 80 F0 FF  FF 7F F0 FF FF 7F 77 68  1..U..........wh
0210: 69 31 1B 45 10 80 F0 FF  FF 7F F0 FF FF 7F 77 68  i1.E..........wh
0220: 6F 31 02 80 55 10 80 F0  FF FF 7F F0 FF FF 7F 77  o1..U..........w
0230: 68 6F 31 1B 45 10 80 F0  FF FF 7F F0 FF FF 7F 77  ho1.E..........w
0240: 68 6F 32 02 80 55 10 80  F0 FF FF 7F F0 FF FF 7F  ho2..U..........
0250: 77 68 6F 32 1B 45 10 80  F0 FF FF 7F F0 FF FF 7F  who2.E..........
0260: 77 68 6F 33 02 80 55 10  80 F0 FF FF 7F F0 FF FF  who3..U.........
0270: 7F 77 68 6F 33 1B 62 01  80 F0 FF FF 7F F0 FF FF  .who3.b.........
0280: 7F 6D 61 69 6E 02 80 1C  11 80 45 0F 80 F0 FF FF  .main.....E.....
0290: 7F F0 FF FF 7F 66 64 6F  31 02 80 55 0F 80 F0 FF  .....fdo1..U....
02A0: FF 7F F0 FF FF 7F 66 64  6F 31 1B 45 0F 80 F0 FF  ......fdo1.E....
02B0: FF 7F F0 FF FF 7F 66 64  69 31 02 80 62 12 80 F0  ......fdi1..b...
02C0: FF FF 7F F0 FF FF 7F 6D  61 69 6E 02 80 1C 0B 80  .......main.....
02D0: 55 0F 80 F0 FF FF 7F F0  FF FF 7F 66 64 69 31 1B  U..........fdi1.
02E0: 45 0F 80 F0 FF FF 7F F0  FF FF 7F 62 6C 6F 6E 02  E..........blon.
02F0: 80 45 10 80 F0 FF FF 7F  F0 FF FF 7F 62 6C 6F 6E  .E..........blon
0300: 02 80 1B 45 10 80 F0 FF  FF 7F F0 FF FF 7F 77 68  ...E..........wh
0310: 69 30 02 80 55 10 80 F0  FF FF 7F F0 FF FF 7F 77  i0..U..........w
0320: 68 69 30 1B 45 10 80 F0  FF FF 7F F0 FF FF 7F 77  hi0.E..........w
0330: 68 6F 30 02 80 55 10 80  F0 FF FF 7F F0 FF FF 7F  ho0..U..........
0340: 77 68 6F 30 1B 45 13 80  F0 FF FF 7F F0 FF FF 7F  who0.E..........
0350: 65 66 6F 6E 02 80 55 13  80 F0 FF FF 7F F0 FF FF  efon..U.........
0360: 7F 65 66 6F 6E 1B 45 0F  80 F0 FF FF 7F F0 FF FF  .efon.E.........
0370: 7F 66 64 69 73 02 80 1B  45 0F 80 F0 FF FF 7F F0  .fdis...E.......
0380: FF FF 7F 66 64 6F 73 02  80 55 0F 80 F0 FF FF 7F  ...fdos..U......
0390: F0 FF FF 7F 66 64 6F 73  1B 45 0F 80 F0 FF FF 7F  ....fdos.E......
03A0: F0 FF FF 7F 66 64 69 66  02 80 1B 45 0F 80 F0 FF  ....fdif...E....
03B0: FF 7F F0 FF FF 7F 66 64  6F 66 02 80 55 0F 80 F0  ......fdof..U...
03C0: FF FF 7F F0 FF FF 7F 66  64 6F 66 1B 45 0F 80 F0  .......fdof.E...
03D0: FF FF 7F F0 FF FF 7F 66  64 69 70 02 80 1B 45 0F  .......fdip...E.
03E0: 80 F0 FF FF 7F F0 FF FF  7F 66 64 6F 70 02 80 55  .........fdop..U
03F0: 0F 80 F0 FF FF 7F F0 FF  FF 7F 66 64 6F 70 1B     ..........fdop. 
```

#### Opcodes

```
  0: 0x0001 [0x42] SET_CLI_EVENT_CANCEL_DATA()
  1: 0x0002 [0x03] ExtData[1]->WorkLocal[0] = Work_Zone[2]
  2: 0x0007 [0x24] CREATE_DIALOG(message_id=10346*, default_option=1*, option_flags=0*)
    → "Activate this waypoint? [Yes./No.]"
  3: 0x000E [0x25] WAIT_DIALOG_SELECT()
  4: 0x000F [0x02] IF !(Work_Zone[0] == 1*) GOTO 0x0022
  5: 0x0017 [0x03] Work_Zone[1] = 1073741824*
  6: 0x001C [0x01] GOTO 0x015B

SUBROUTINE_0022:
  7: 0x0022 [0x1A] CALL_SUBROUTINE(address=0x01D1)
  8: 0x0025 [0x46] CAMERA_CONTROL: Disable user control
  9: 0x0027 [0x38] SET_CLIENT_EVENT_MODE(mode=19*)
 10: 0x002A [0x94] LocalPlayer->Render.Flags3 ^= 0x01
 11: 0x0030 [0x94] EventEntity->Render.Flags3 ^= 0x01
 12: 0x0036 [0xBA] SET_ENTITY_POSITION(entity_id=LocalPlayer, pos_x=-33.418*, pos_z=-31.636*, pos_y=0.000*, direction=194.5°*)
 13: 0x0043 [0x80] LOAD_WAIT(entity=LocalPlayer)
 14: 0x0048 [0x80] LOAD_WAIT(entity=EventEntity)
 15: 0x004D [0x4A] LocalPlayer looks at EventEntity
 16: 0x0056 [0x6F] WAIT_FRAME_DELAY: Yield until WaitTime reaches zero
 17: 0x0057 [0x76] CHECK_ENTITY_RENDER_FLAGS: Wait until LocalPlayer Render.Flags0 and Render.Flags3 conditions are met
 18: 0x005C [0x29] REQ_SET_WAIT(priority=0x10, entity_id=LocalPlayer, tag_num=0x5E)
 19: 0x0063 [0x45] LOAD_SCHEDULED_TASK: Load scheduler "ad01" with entities [LocalPlayer, LocalPlayer], work=[561*, 0*]
 20: 0x0074 [0x1A] CALL_SUBROUTINE(address=0x01B0)
 21: 0x0077 [0xCD] LOAD_SCHEDULED_TASK_ALT4: Load scheduler "s000" with entities [EventEntity, EventEntity], work=[140*, 0*]
 22: 0x0088 [0x1C] WAIT(120* ticks)
 23: 0x008B [0x1C] WAIT(30* ticks)
 24: 0x008E [0x52] END_LOAD_SCHEDULER: End scheduler "ad01" with entities [LocalPlayer, LocalPlayer], work=561*
 25: 0x009D [0x45] LOAD_SCHEDULED_TASK: Load scheduler "ad03" with entities [LocalPlayer, LocalPlayer], work=[561*, 0*]
 26: 0x00AE [0x1C] WAIT(60* ticks)
 27: 0x00B1 [0xCD] LOAD_SCHEDULED_TASK_ALT4: Load scheduler "main" with entities [EventEntity, LocalPlayer], work=[140*, 0*]
 28: 0x00C2 [0x1C] WAIT(90* ticks)
 29: 0x00C5 [0x92] LocalPlayer->Render.Flags3 ^= 0x01
 30: 0x00CB [0x1C] WAIT(30* ticks)
 31: 0x00CE [0x52] END_LOAD_SCHEDULER: End scheduler "ad03" with entities [LocalPlayer, LocalPlayer], work=561*
 32: 0x00DD [0x45] LOAD_SCHEDULED_TASK: Load scheduler "ad04" with entities [LocalPlayer, LocalPlayer], work=[561*, 0*]
 33: 0x00EE [0xCD] LOAD_SCHEDULED_TASK_ALT4: Load scheduler "stp0" with entities [EventEntity, EventEntity], work=[140*, 0*]
 34: 0x00FF [0x1C] WAIT(120* ticks)
 35: 0x0102 [0x1A] CALL_SUBROUTINE(address=0x0213)
 36: 0x0105 [0x1C] WAIT(60* ticks)
 37: 0x0108 [0x1A] CALL_SUBROUTINE(address=0x01D1)
 38: 0x010B [0x1A] CALL_SUBROUTINE(address=0x01F2)
 39: 0x010E [0x52] END_LOAD_SCHEDULER: End scheduler "ad04" with entities [LocalPlayer, LocalPlayer], work=561*
 40: 0x011D [0x45] LOAD_SCHEDULED_TASK: Load scheduler "0blf" with entities [LocalPlayer, LocalPlayer], work=[561*, 0*]
 41: 0x012E [0xCD] LOAD_SCHEDULED_TASK_ALT4: Load scheduler "a128" with entities [EventEntity, LocalPlayer], work=[140*, 0*]
 42: 0x013F [0x1C] WAIT(15* ticks)
 43: 0x0142 [0xAB] EventEntity->DespawnValue = 0* // Set despawn value
 44: 0x0146 [0x1C] WAIT(1* ticks)
 45: 0x0149 [0x03] Work_Zone[1] = 1*
 46: 0x014E [0x02] IF !(ExtData[1]->WorkLocal[0] == 0*) GOTO 0x0159
 47: 0x0156 [0x30] SET_UCOFF_CONTINUE_ZERO()
 48: 0x0157 [0x21] END_EVENT
 49: 0x0158 [0x00] END_REQSTACK()
 50: 0x0159 [0x46] CAMERA_CONTROL: Restore default settings

SUBROUTINE_015B:
 51: 0x015B [0x45] LOAD_SCHEDULED_TASK: Load scheduler "fdi2" with entities [LocalPlayer, LocalPlayer], work=[200*, 0*]
 52: 0x016C [0x21] END_EVENT
 53: 0x016D [0x00] END_REQSTACK()

SUBROUTINE_01B0:
 54: 0x01B0 [0x45] LOAD_SCHEDULED_TASK: Load scheduler "fdi1" with entities [LocalPlayer, LocalPlayer], work=[200*, 0*]
 55: 0x01C1 [0x55] WAIT_LOAD_SCHEDULER: Wait for scheduler "fdi1" with entities [LocalPlayer, LocalPlayer], work=200*
 56: 0x01D0 [0x1B] RETURN

SUBROUTINE_01D1:
 57: 0x01D1 [0x45] LOAD_SCHEDULED_TASK: Load scheduler "fdo1" with entities [LocalPlayer, LocalPlayer], work=[200*, 0*]
 58: 0x01E2 [0x55] WAIT_LOAD_SCHEDULER: Wait for scheduler "fdo1" with entities [LocalPlayer, LocalPlayer], work=200*
 59: 0x01F1 [0x1B] RETURN

SUBROUTINE_01F2:
 60: 0x01F2 [0x45] LOAD_SCHEDULED_TASK: Load scheduler "whi1" with entities [LocalPlayer, LocalPlayer], work=[201*, 0*]
 61: 0x0203 [0x55] WAIT_LOAD_SCHEDULER: Wait for scheduler "whi1" with entities [LocalPlayer, LocalPlayer], work=201*
 62: 0x0212 [0x1B] RETURN

SUBROUTINE_0213:
 63: 0x0213 [0x45] LOAD_SCHEDULED_TASK: Load scheduler "who1" with entities [LocalPlayer, LocalPlayer], work=[201*, 0*]
 64: 0x0224 [0x55] WAIT_LOAD_SCHEDULER: Wait for scheduler "who1" with entities [LocalPlayer, LocalPlayer], work=201*
 65: 0x0233 [0x1B] RETURN
```

#### Data or dead code:

```
# Dead code (unreachable instructions):
     0x001F [0x01] GOTO 0x0022
# Dead code (unreachable instructions):
     0x016E [0x45] LOAD_SCHEDULED_TASK: Load scheduler "fdi0" with entities [LocalPlayer, LocalPlayer], work=[200*, 0*]
     0x017F [0x55] WAIT_LOAD_SCHEDULER: Wait for scheduler "fdi0" with entities [LocalPlayer, LocalPlayer], work=200*
     0x018E [0x1B] RETURN
     0x018F [0x45] LOAD_SCHEDULED_TASK: Load scheduler "fdo0" with entities [LocalPlayer, LocalPlayer], work=[200*, 0*]
     0x01A0 [0x55] WAIT_LOAD_SCHEDULER: Wait for scheduler "fdo0" with entities [LocalPlayer, LocalPlayer], work=200*
     0x01AF [0x1B] RETURN
# Dead code (unreachable instructions):
     0x0234 [0x45] LOAD_SCHEDULED_TASK: Load scheduler "who2" with entities [LocalPlayer, LocalPlayer], work=[201*, 0*]
     0x0245 [0x55] WAIT_LOAD_SCHEDULER: Wait for scheduler "who2" with entities [LocalPlayer, LocalPlayer], work=201*
     0x0254 [0x1B] RETURN
     0x0255 [0x45] LOAD_SCHEDULED_TASK: Load scheduler "who3" with entities [LocalPlayer, LocalPlayer], work=[201*, 0*]
     0x0266 [0x55] WAIT_LOAD_SCHEDULER: Wait for scheduler "who3" with entities [LocalPlayer, LocalPlayer], work=201*
     0x0275 [0x1B] RETURN
     0x0276 [0x62] LOAD_EVENT_SCHEDULER: Load scheduler "main" with entities [LocalPlayer, LocalPlayer], work=[1*, 0*]
     0x0287 [0x1C] WAIT(45* ticks)
     0x028A [0x45] LOAD_SCHEDULED_TASK: Load scheduler "fdo1" with entities [LocalPlayer, LocalPlayer], work=[200*, 0*]
     0x029B [0x55] WAIT_LOAD_SCHEDULER: Wait for scheduler "fdo1" with entities [LocalPlayer, LocalPlayer], work=200*
     0x02AA [0x1B] RETURN
     0x02AB [0x45] LOAD_SCHEDULED_TASK: Load scheduler "fdi1" with entities [LocalPlayer, LocalPlayer], work=[200*, 0*]
     0x02BC [0x62] LOAD_EVENT_SCHEDULER: Load scheduler "main" with entities [LocalPlayer, LocalPlayer], work=[2*, 0*]
     0x02CD [0x1C] WAIT(30* ticks)
     0x02D0 [0x55] WAIT_LOAD_SCHEDULER: Wait for scheduler "fdi1" with entities [LocalPlayer, LocalPlayer], work=200*
     0x02DF [0x1B] RETURN
     0x02E0 [0x45] LOAD_SCHEDULED_TASK: Load scheduler "blon" with entities [LocalPlayer, LocalPlayer], work=[200*, 0*]
     0x02F1 [0x45] LOAD_SCHEDULED_TASK: Load scheduler "blon" with entities [LocalPlayer, LocalPlayer], work=[201*, 0*]
     0x0302 [0x1B] RETURN
     0x0303 [0x45] LOAD_SCHEDULED_TASK: Load scheduler "whi0" with entities [LocalPlayer, LocalPlayer], work=[201*, 0*]
     0x0314 [0x55] WAIT_LOAD_SCHEDULER: Wait for scheduler "whi0" with entities [LocalPlayer, LocalPlayer], work=201*
     0x0323 [0x1B] RETURN
     0x0324 [0x45] LOAD_SCHEDULED_TASK: Load scheduler "who0" with entities [LocalPlayer, LocalPlayer], work=[201*, 0*]
     0x0335 [0x55] WAIT_LOAD_SCHEDULER: Wait for scheduler "who0" with entities [LocalPlayer, LocalPlayer], work=201*
     0x0344 [0x1B] RETURN
     0x0345 [0x45] LOAD_SCHEDULED_TASK: Load scheduler "efon" with entities [LocalPlayer, LocalPlayer], work=[215*, 0*]
     0x0356 [0x55] WAIT_LOAD_SCHEDULER: Wait for scheduler "efon" with entities [LocalPlayer, LocalPlayer], work=215*
     0x0365 [0x1B] RETURN
     0x0366 [0x45] LOAD_SCHEDULED_TASK: Load scheduler "fdis" with entities [LocalPlayer, LocalPlayer], work=[200*, 0*]
     0x0377 [0x1B] RETURN
     0x0378 [0x45] LOAD_SCHEDULED_TASK: Load scheduler "fdos" with entities [LocalPlayer, LocalPlayer], work=[200*, 0*]
     0x0389 [0x55] WAIT_LOAD_SCHEDULER: Wait for scheduler "fdos" with entities [LocalPlayer, LocalPlayer], work=200*
     0x0398 [0x1B] RETURN
     0x0399 [0x45] LOAD_SCHEDULED_TASK: Load scheduler "fdif" with entities [LocalPlayer, LocalPlayer], work=[200*, 0*]
     0x03AA [0x1B] RETURN
     0x03AB [0x45] LOAD_SCHEDULED_TASK: Load scheduler "fdof" with entities [LocalPlayer, LocalPlayer], work=[200*, 0*]
     0x03BC [0x55] WAIT_LOAD_SCHEDULER: Wait for scheduler "fdof" with entities [LocalPlayer, LocalPlayer], work=200*
     0x03CB [0x1B] RETURN
     0x03CC [0x45] LOAD_SCHEDULED_TASK: Load scheduler "fdip" with entities [LocalPlayer, LocalPlayer], work=[200*, 0*]
     0x03DD [0x1B] RETURN
     0x03DE [0x45] LOAD_SCHEDULED_TASK: Load scheduler "fdop" with entities [LocalPlayer, LocalPlayer], work=[200*, 0*]
     0x03EF [0x55] WAIT_LOAD_SCHEDULER: Wait for scheduler "fdop" with entities [LocalPlayer, LocalPlayer], work=200*
     0x03FE [0x1B] RETURN
```

### Event 10121

#### Metadata

| Field        | Value      |
|--------------|------------|
| Entrypoint   | 0x03FF     |
| Data Size    | 8265 bytes |
| Instructions | 1189       |

```
      00 01 02 03 04 05 06 07  08 09 0A 0B 0C 0D 0E 0F
      -- -- -- -- -- -- -- --  -- -- -- -- -- -- -- --
03F0:                                               06                 .
0400: 02 00 41 02 80 14 80 02  10 04 00 41 15 80 16 80  ..A........A....
0410: 02 10 1E 00 41 0E 80 0E  80 02 10 1C 00 41 17 80  ....A........A..
0420: 18 80 02 10 1B 00 03 06  00 19 80 03 11 00 04 10  ................
0430: 02 04 00 02 80 04 45 04  02 04 00 1A 80 03 45 04  ......E.......E.
0440: 03 18 00 01 80 02 04 00  1A 80 04 5A 04 02 04 00  ...........Z....
0450: 0B 80 03 5A 04 03 18 00  12 80 02 04 00 0B 80 04  ...Z............
0460: 6F 04 02 04 00 1B 80 03  6F 04 03 18 00 1C 80 02  o.......o.......
0470: 04 00 1B 80 04 84 04 02  04 00 1D 80 03 84 04 03  ................
0480: 18 00 1E 80 02 04 00 1D  80 04 99 04 02 04 00 0C  ................
0490: 80 03 99 04 03 18 00 1F  80 02 04 00 0C 80 04 AE  ................
04A0: 04 02 04 00 20 80 03 AE  04 03 18 00 21 80 02 04  .... .......!...
04B0: 00 20 80 04 C3 04 02 04  00 22 80 03 C3 04 03 18  . ......."......
04C0: 00 23 80 02 04 00 22 80  04 D8 04 02 04 00 0D 80  .#....".........
04D0: 03 D8 04 03 18 00 24 80  02 04 00 0D 80 04 ED 04  ......$.........
04E0: 02 04 00 25 80 03 ED 04  03 18 00 26 80 02 04 00  ...%.......&....
04F0: 25 80 04 09 05 02 04 00  27 80 03 09 05 03 18 00  %.......'.......
0500: 14 80 3C 06 00 15 80 01  80 02 1C 00 02 80 00 22  ..<............"
0510: 05 3D 06 00 16 80 01 80  3C 06 00 0E 80 01 80 01  .=......<.......
0520: 30 05 3C 06 00 16 80 01  80 3D 06 00 0E 80 01 80  0.<......=......
0530: 06 03 00 03 01 00 03 10  02 18 00 01 80 00 47 05  ..............G.
0540: 3C 07 00 04 00 01 80 03  14 00 02 80 02 14 00 26  <..............&
0550: 80 05 7B 05 3E 01 00 14  00 64 05 0B 02 00 0B 03  ..{.>....d......
0560: 00 01 75 05 03 15 00 14  00 07 15 00 01 80 3C 07  ..u...........<.
0570: 00 15 00 01 80 0B 14 00  01 4C 05 02 03 00 01 80  .........L......
0580: 04 A1 05 3D 06 00 12 80  01 80 02 18 00 01 80 00  ...=............
0590: A1 05 02 03 00 01 80 00  A1 05 3C 06 00 12 80 01  ..........<.....
05A0: 80 06 03 00 03 01 00 03  10 11 01 00 0E 80 02 18  ................
05B0: 00 12 80 00 C7 05 03 05  00 04 00 08 05 00 1A 80  ................
05C0: 3C 08 00 05 00 01 80 03  14 00 02 80 02 14 00 26  <..............&
05D0: 80 05 FB 05 3E 01 00 14  00 E4 05 0B 02 00 0B 03  ....>...........
05E0: 00 01 F5 05 03 15 00 14  00 07 15 00 01 80 3C 08  ..............<.
05F0: 00 15 00 01 80 0B 14 00  01 CC 05 02 03 00 01 80  ................
0600: 04 21 06 3D 06 00 1C 80  01 80 02 18 00 12 80 00  .!.=............
0610: 21 06 02 03 00 01 80 00  21 06 3C 06 00 1C 80 01  !.......!.<.....
0620: 80 06 03 00 03 01 00 05  10 02 18 00 1C 80 00 42  ...............B
0630: 06 03 05 00 04 00 08 05  00 0B 80 3C 09 00 05 00  ...........<....
0640: 01 80 03 14 00 02 80 02  14 00 1E 80 05 73 06 3E  .............s.>
0650: 01 00 14 00 5C 06 0B 03  00 01 6D 06 03 15 00 14  ....\.....m.....
0660: 00 07 15 00 01 80 3C 09  00 15 00 01 80 0B 14 00  ......<.........
0670: 01 47 06 02 03 00 01 80  04 99 06 3D 06 00 1E 80  .G.........=....
0680: 01 80 02 18 00 1C 80 00  99 06 02 03 00 01 80 00  ................
0690: 99 06 3C 06 00 1E 80 01  80 06 03 00 03 01 00 05  ..<.............
06A0: 10 11 01 00 21 80 02 18  00 1E 80 00 BF 06 03 05  ....!...........
06B0: 00 04 00 08 05 00 1B 80  3C 0A 00 05 00 01 80 03  ........<.......
06C0: 14 00 02 80 02 14 00 1E  80 05 F0 06 3E 01 00 14  ............>...
06D0: 00 D9 06 0B 03 00 01 EA  06 03 15 00 14 00 07 15  ................
06E0: 00 01 80 3C 0A 00 15 00  01 80 0B 14 00 01 C4 06  ...<............
06F0: 02 03 00 01 80 04 16 07  3D 06 00 1F 80 01 80 02  ........=.......
0700: 18 00 1E 80 00 16 07 02  03 00 01 80 00 16 07 3C  ...............<
0710: 06 00 1F 80 01 80 06 03  00 03 01 00 06 10 02 18  ................
0720: 00 1F 80 00 37 07 03 05  00 04 00 08 05 00 1D 80  ....7...........
0730: 3C 0B 00 05 00 01 80 03  14 00 02 80 02 14 00 1E  <...............
0740: 80 05 68 07 3E 01 00 14  00 51 07 0B 03 00 01 62  ..h.>....Q.....b
0750: 07 03 15 00 14 00 07 15  00 01 80 3C 0B 00 15 00  ...........<....
0760: 01 80 0B 14 00 01 3C 07  02 03 00 01 80 04 8E 07  ......<.........
0770: 3D 06 00 21 80 01 80 02  18 00 1F 80 00 8E 07 02  =..!............
0780: 03 00 01 80 00 8E 07 3C  06 00 21 80 01 80 06 03  .......<..!.....
0790: 00 03 01 00 06 10 11 01  00 21 80 02 18 00 21 80  .........!....!.
07A0: 00 B4 07 03 05 00 04 00  08 05 00 0C 80 3C 0C 00  .............<..
07B0: 05 00 01 80 03 14 00 02  80 02 14 00 21 80 05 E5  ............!...
07C0: 07 3E 01 00 14 00 CE 07  0B 03 00 01 DF 07 03 15  .>..............
07D0: 00 14 00 07 15 00 01 80  3C 0C 00 15 00 01 80 0B  ........<.......
07E0: 14 00 01 B9 07 02 03 00  01 80 04 0B 08 3D 06 00  .............=..
07F0: 23 80 01 80 02 18 00 21  80 00 0B 08 02 03 00 01  #......!........
0800: 80 00 0B 08 3C 06 00 23  80 01 80 06 03 00 03 01  ....<..#........
0810: 00 07 10 02 18 00 23 80  00 2C 08 03 05 00 04 00  ......#..,......
0820: 08 05 00 20 80 3C 0D 00  05 00 01 80 03 14 00 02  ... .<..........
0830: 80 02 14 00 1E 80 05 5D  08 3E 01 00 14 00 46 08  .......].>....F.
0840: 0B 03 00 01 57 08 03 15  00 14 00 07 15 00 01 80  ....W...........
0850: 3C 0D 00 15 00 01 80 0B  14 00 01 31 08 02 03 00  <..........1....
0860: 01 80 04 83 08 3D 06 00  24 80 01 80 02 18 00 23  .....=..$......#
0870: 80 00 83 08 02 03 00 01  80 00 83 08 3C 06 00 24  ............<..$
0880: 80 01 80 06 03 00 03 01  00 07 10 11 01 00 21 80  ..............!.
0890: 02 18 00 24 80 00 A9 08  03 05 00 04 00 08 05 00  ...$............
08A0: 22 80 3C 0E 00 05 00 01  80 03 14 00 02 80 02 14  ".<.............
08B0: 00 1F 80 05 DA 08 3E 01  00 14 00 C3 08 0B 03 00  ......>.........
08C0: 01 D4 08 03 15 00 14 00  07 15 00 01 80 3C 0E 00  .............<..
08D0: 15 00 01 80 0B 14 00 01  AE 08 02 03 00 01 80 04  ................
08E0: 00 09 3D 06 00 26 80 01  80 02 18 00 24 80 00 00  ..=..&......$...
08F0: 09 02 03 00 01 80 00 00  09 3C 06 00 26 80 01 80  .........<..&...
0900: 06 03 00 03 01 00 08 10  11 01 00 21 80 02 18 00  ...........!....
0910: 26 80 00 26 09 03 05 00  04 00 08 05 00 0D 80 3C  &..&...........<
0920: 0F 00 05 00 01 80 03 14  00 02 80 02 14 00 1F 80  ................
0930: 05 57 09 3E 01 00 14 00  40 09 0B 03 00 01 51 09  .W.>....@.....Q.
0940: 03 15 00 14 00 07 15 00  01 80 3C 0F 00 15 00 01  ..........<.....
0950: 80 0B 14 00 01 2B 09 02  03 00 01 80 04 7D 09 3D  .....+.......}.=
0960: 06 00 14 80 01 80 02 18  00 26 80 00 7D 09 02 03  .........&..}...
0970: 00 01 80 00 7D 09 3C 06  00 14 80 01 80 06 03 00  ....}.<.........
0980: 03 01 00 08 10 03 14 00  02 80 02 14 00 1F 80 05  ................
0990: B6 09 3E 01 00 14 00 9F  09 0B 03 00 01 B0 09 03  ..>.............
09A0: 15 00 14 00 07 15 00 01  80 3C 10 00 15 00 01 80  .........<......
09B0: 0B 14 00 01 8A 09 02 03  00 01 80 04 C5 09 3D 06  ..............=.
09C0: 00 28 80 01 80 02 11 00  29 80 01 D4 09 3D 06 00  .(......)....=..
09D0: 2A 80 01 80 02 18 00 1C  80 00 1B 0A 3C 06 00 1F  *...........<...
09E0: 80 01 80 3C 06 00 21 80  01 80 3C 06 00 23 80 01  ...<..!...<..#..
09F0: 80 3C 06 00 24 80 01 80  3C 06 00 26 80 01 80 3C  .<..$...<..&...<
0A00: 06 00 14 80 01 80 3C 06  00 15 80 01 80 3C 06 00  ......<......<..
0A10: 28 80 01 80 3C 06 00 2A  80 01 80 02 18 00 1E 80  (...<..*........
0A20: 00 62 0A 3C 06 00 1E 80  01 80 3C 06 00 21 80 01  .b.<......<..!..
0A30: 80 3C 06 00 23 80 01 80  3C 06 00 24 80 01 80 3C  .<..#...<..$...<
0A40: 06 00 26 80 01 80 3C 06  00 14 80 01 80 3C 06 00  ..&...<......<..
0A50: 15 80 01 80 3C 06 00 28  80 01 80 3C 06 00 2A 80  ....<..(...<..*.
0A60: 01 80 02 18 00 1F 80 00  A9 0A 3C 06 00 1E 80 01  ..........<.....
0A70: 80 3C 06 00 1F 80 01 80  3C 06 00 23 80 01 80 3C  .<......<..#...<
0A80: 06 00 24 80 01 80 3C 06  00 26 80 01 80 3C 06 00  ..$...<..&...<..
0A90: 14 80 01 80 3C 06 00 15  80 01 80 3C 06 00 28 80  ....<......<..(.
0AA0: 01 80 3C 06 00 2A 80 01  80 02 18 00 21 80 00 F0  ..<..*......!...
0AB0: 0A 3C 06 00 1E 80 01 80  3C 06 00 1F 80 01 80 3C  .<......<......<
0AC0: 06 00 21 80 01 80 3C 06  00 24 80 01 80 3C 06 00  ..!...<..$...<..
0AD0: 26 80 01 80 3C 06 00 14  80 01 80 3C 06 00 15 80  &...<......<....
0AE0: 01 80 3C 06 00 28 80 01  80 3C 06 00 2A 80 01 80  ..<..(...<..*...
0AF0: 02 18 00 23 80 00 37 0B  3C 06 00 1E 80 01 80 3C  ...#..7.<......<
0B00: 06 00 1F 80 01 80 3C 06  00 21 80 01 80 3C 06 00  ......<..!...<..
0B10: 23 80 01 80 3C 06 00 26  80 01 80 3C 06 00 14 80  #...<..&...<....
0B20: 01 80 3C 06 00 15 80 01  80 3C 06 00 28 80 01 80  ..<......<..(...
0B30: 3C 06 00 2A 80 01 80 02  18 00 24 80 00 7E 0B 3C  <..*......$..~.<
0B40: 06 00 1E 80 01 80 3C 06  00 1F 80 01 80 3C 06 00  ......<......<..
0B50: 21 80 01 80 3C 06 00 23  80 01 80 3C 06 00 24 80  !...<..#...<..$.
0B60: 01 80 3C 06 00 14 80 01  80 3C 06 00 15 80 01 80  ..<......<......
0B70: 3C 06 00 28 80 01 80 3C  06 00 2A 80 01 80 02 18  <..(...<..*.....
0B80: 00 26 80 00 C5 0B 3C 06  00 1E 80 01 80 3C 06 00  .&....<......<..
0B90: 1F 80 01 80 3C 06 00 21  80 01 80 3C 06 00 23 80  ....<..!...<..#.
0BA0: 01 80 3C 06 00 24 80 01  80 3C 06 00 26 80 01 80  ..<..$...<..&...
0BB0: 3C 06 00 15 80 01 80 3C  06 00 28 80 01 80 3C 06  <......<..(...<.
0BC0: 00 2A 80 01 80 02 18 00  14 80 00 13 0C 3C 06 00  .*...........<..
0BD0: 1E 80 01 80 3C 06 00 1F  80 01 80 3C 06 00 21 80  ....<......<..!.
0BE0: 01 80 3C 06 00 23 80 01  80 3C 06 00 24 80 01 80  ..<..#...<..$...
0BF0: 3C 06 00 26 80 01 80 3C  06 00 14 80 01 80 3C 06  <..&...<......<.
0C00: 00 15 80 01 80 3C 06 00  28 80 01 80 3C 06 00 2A  .....<..(...<..*
0C10: 80 01 80 02 02 00 01 80  03 22 0D 02 1C 00 01 80  ........."......
0C20: 00 26 0C 01 27 0C 42 1A  6E 23 02 16 00 02 80 00  .&..'.B.n#......
0C30: 1F 0D 03 19 00 01 80 03  05 10 1B 00 1A 35 15 06  .............5..
0C40: 12 00 02 1C 00 02 80 00  5B 0C 3D 12 00 1C 80 01  ........[.=.....
0C50: 80 3C 12 00 1E 80 01 80  01 69 0C 3C 12 00 1C 80  .<.......i.<....
0C60: 01 80 3D 12 00 1E 80 01  80 24 2B 80 02 80 12 00  ..=......$+.....
0C70: 25 02 00 10 02 80 00 8C  0C 03 19 00 02 80 1A 8E  %...............
0C80: 23 03 01 10 02 80 2E 21  00 01 1C 0D 02 00 10 01  #......!........
0C90: 80 00 A9 0C 03 19 00 02  80 03 03 10 2C 80 48 2D  ............,.H-
0CA0: 80 23 48 2E 80 23 01 1C  0D 02 00 10 12 80 00 E8  .#H..#..........
0CB0: 0C 02 1C 00 01 80 00 BC  0C 1A 1F 16 02 1C 00 02  ................
0CC0: 80 00 E5 0C 24 2F 80 01  80 02 80 25 02 00 10 02  ....$/.....%....
0CD0: 80 00 DA 0C 1A 1F 16 01  E5 0C 02 00 10 01 80 00  ................
0CE0: E5 0C 01 E5 0C 01 1C 0D  02 00 10 1C 80 00 02 0D  ................
0CF0: 1A 8E 23 48 30 80 23 03  01 10 31 80 21 2E 00 01  ..#H0.#...1.!...
0D00: 1C 0D 02 00 10 1E 80 00  1C 0D 1A 8E 23 48 32 80  ............#H2.
0D10: 23 03 01 10 33 80 2E 21  00 01 1C 0D 01 2A 0C 01  #...3..!.....*..
0D20: 2F 15 02 1C 00 01 80 00  2D 0D 01 2E 0D 42 1A 6E  /.......-....B.n
0D30: 23 02 16 00 02 80 00 2A  15 03 19 00 14 80 03 05  #......*........
0D40: 10 1B 00 1A 35 15 24 34  80 02 80 06 00 25 02 00  ....5.$4.....%..
0D50: 10 02 80 00 69 0D 03 19  00 02 80 1A 8E 23 03 01  ....i........#..
0D60: 10 02 80 2E 21 00 01 7A  0E 02 00 10 01 80 00 86  ....!..z........
0D70: 0D 03 19 00 02 80 03 03  10 2C 80 48 2D 80 23 48  .........,.H-.#H
0D80: 2E 80 23 01 7A 0E 02 00  10 12 80 00 96 0D 03 19  ..#.z...........
0D90: 00 01 80 01 7A 0E 02 00  10 1C 80 00 A6 0D 03 19  ....z...........
0DA0: 00 12 80 01 7A 0E 02 00  10 1E 80 00 B6 0D 03 19  ....z...........
0DB0: 00 1C 80 01 7A 0E 02 00  10 1F 80 00 C6 0D 03 19  ....z...........
0DC0: 00 1E 80 01 7A 0E 02 00  10 21 80 00 D6 0D 03 19  ....z....!......
0DD0: 00 1F 80 01 7A 0E 02 00  10 23 80 00 E6 0D 03 19  ....z....#......
0DE0: 00 21 80 01 7A 0E 02 00  10 24 80 00 F6 0D 03 19  .!..z....$......
0DF0: 00 23 80 01 7A 0E 02 00  10 26 80 00 06 0E 03 19  .#..z....&......
0E00: 00 24 80 01 7A 0E 02 00  10 14 80 00 16 0E 03 19  .$..z...........
0E10: 00 26 80 01 7A 0E 02 00  10 15 80 00 26 0E 03 19  .&..z.......&...
0E20: 00 14 80 01 7A 0E 02 00  10 28 80 00 36 0E 03 19  ....z....(..6...
0E30: 00 15 80 01 7A 0E 02 00  10 2A 80 00 46 0E 03 19  ....z....*..F...
0E40: 00 28 80 01 7A 0E 02 00  10 16 80 00 60 0E 1A 8E  .(..z.......`...
0E50: 23 48 30 80 23 03 01 10  31 80 21 2E 00 01 7A 0E  #H0.#...1.!...z.
0E60: 02 00 10 0E 80 00 7A 0E  1A 8E 23 48 32 80 23 03  ......z...#H2.#.
0E70: 01 10 33 80 2E 21 00 01  7A 0E 02 19 00 01 80 00  ..3..!..z.......
0E80: 32 0F 03 05 10 1B 00 1A  35 15 06 17 00 02 17 00  2.......5.......
0E90: 02 80 00 32 0F D4 01 01  80 1C 80 35 80 D4 01 12  ...2.......5....
0EA0: 80 1C 80 36 80 D4 01 1C  80 1C 80 37 80 D4 01 1E  ...6.......7....
0EB0: 80 1C 80 38 80 D4 01 1F  80 1C 80 39 80 D4 01 21  ...8.......9...!
0EC0: 80 1C 80 3A 80 D4 01 23  80 1C 80 3B 80 D4 01 24  ...:...#...;...$
0ED0: 80 1C 80 3C 80 D4 01 26  80 1C 80 3D 80 D4 00 3E  ...<...&...=...>
0EE0: 80 02 80 07 00 25 02 00  10 02 80 00 F6 0E 03 17  .....%..........
0EF0: 00 01 80 01 32 0F 03 1D  00 00 10 02 1C 00 01 80  ....2...........
0F00: 00 06 0F 1A 76 16 02 1C  00 02 80 00 32 0F 24 2F  ....v.......2.$/
0F10: 80 01 80 02 80 25 02 00  10 02 80 00 24 0F 1A 76  .....%......$..v
0F20: 16 01 2F 0F 02 00 10 01  80 00 2F 0F 01 2F 0F 01  ../......./../..
0F30: 8D 0E 02 19 00 12 80 00  EA 0F 03 05 10 1B 00 1A  ................
0F40: 35 15 06 17 00 02 17 00  02 80 00 EA 0F D4 01 01  5...............
0F50: 80 1C 80 3F 80 D4 01 12  80 1C 80 40 80 D4 01 1C  ...?.......@....
0F60: 80 1C 80 41 80 D4 01 1E  80 1C 80 42 80 D4 01 1F  ...A.......B....
0F70: 80 1C 80 43 80 D4 01 21  80 1C 80 44 80 D4 01 23  ...C...!...D...#
0F80: 80 1C 80 45 80 D4 01 24  80 1C 80 46 80 D4 01 26  ...E...$...F...&
0F90: 80 1C 80 47 80 D4 00 48  80 02 80 08 00 25 02 00  ...G...H.....%..
0FA0: 10 02 80 00 AE 0F 03 17  00 01 80 01 EA 0F 03 1D  ................
0FB0: 00 00 10 02 1C 00 01 80  00 BE 0F 1A 76 16 02 1C  ............v...
0FC0: 00 02 80 00 EA 0F 24 2F  80 01 80 02 80 25 02 00  ......$/.....%..
0FD0: 10 02 80 00 DC 0F 1A 76  16 01 E7 0F 02 00 10 01  .......v........
0FE0: 80 00 E7 0F 01 E7 0F 01  45 0F 02 19 00 1C 80 00  ........E.......
0FF0: 7A 10 03 05 10 1B 00 1A  35 15 06 17 00 02 17 00  z.......5.......
1000: 02 80 00 7A 10 D4 01 01  80 1C 80 49 80 D4 01 12  ...z.......I....
1010: 80 1C 80 4A 80 D4 01 1C  80 1C 80 4B 80 D4 01 1E  ...J.......K....
1020: 80 1C 80 4C 80 D4 00 4D  80 02 80 09 00 25 02 00  ...L...M.....%..
1030: 10 02 80 00 3E 10 03 17  00 01 80 01 7A 10 03 1D  ....>.......z...
1040: 00 00 10 02 1C 00 01 80  00 4E 10 1A 76 16 02 1C  .........N..v...
1050: 00 02 80 00 7A 10 24 2F  80 01 80 02 80 25 02 00  ....z.$/.....%..
1060: 10 02 80 00 6C 10 1A 76  16 01 77 10 02 00 10 01  ....l..v..w.....
1070: 80 00 77 10 01 77 10 01  FD 0F 02 19 00 1E 80 00  ..w..w..........
1080: 0A 11 03 05 10 1B 00 1A  35 15 06 17 00 02 17 00  ........5.......
1090: 02 80 00 0A 11 D4 01 01  80 1C 80 4E 80 D4 01 12  ...........N....
10A0: 80 1C 80 4F 80 D4 01 1C  80 1C 80 50 80 D4 01 1E  ...O.......P....
10B0: 80 1C 80 51 80 D4 00 52  80 02 80 0A 00 25 02 00  ...Q...R.....%..
10C0: 10 02 80 00 CE 10 03 17  00 01 80 01 0A 11 03 1D  ................
10D0: 00 00 10 02 1C 00 01 80  00 DE 10 1A 76 16 02 1C  ............v...
10E0: 00 02 80 00 0A 11 24 2F  80 01 80 02 80 25 02 00  ......$/.....%..
10F0: 10 02 80 00 FC 10 1A 76  16 01 07 11 02 00 10 01  .......v........
1100: 80 00 07 11 01 07 11 01  8D 10 02 19 00 1F 80 00  ................
1110: A2 11 03 05 10 1B 00 1A  35 15 06 17 00 02 17 00  ........5.......
1120: 02 80 00 A2 11 D4 01 01  80 1C 80 53 80 D4 01 12  ...........S....
1130: 80 1C 80 54 80 D4 01 1C  80 1C 80 55 80 D4 01 1E  ...T.......U....
1140: 80 1C 80 56 80 D4 01 1F  80 1C 80 57 80 D4 00 58  ...V.......W...X
1150: 80 02 80 0B 00 25 02 00  10 02 80 00 66 11 03 17  .....%......f...
1160: 00 01 80 01 A2 11 03 1D  00 00 10 02 1C 00 01 80  ................
1170: 00 76 11 1A 76 16 02 1C  00 02 80 00 A2 11 24 2F  .v..v.........$/
1180: 80 01 80 02 80 25 02 00  10 02 80 00 94 11 1A 76  .....%.........v
1190: 16 01 9F 11 02 00 10 01  80 00 9F 11 01 9F 11 01  ................
11A0: 1D 11 02 19 00 21 80 00  42 12 03 05 10 1B 00 1A  .....!..B.......
11B0: 35 15 06 17 00 02 17 00  02 80 00 42 12 D4 01 01  5..........B....
11C0: 80 1C 80 59 80 D4 01 12  80 1C 80 5A 80 D4 01 1C  ...Y.......Z....
11D0: 80 1C 80 5B 80 D4 01 1E  80 1C 80 5C 80 D4 01 1F  ...[.......\....
11E0: 80 1C 80 5D 80 D4 01 21  80 1C 80 5E 80 D4 00 5F  ...]...!...^..._
11F0: 80 02 80 0C 00 25 02 00  10 02 80 00 06 12 03 17  .....%..........
1200: 00 01 80 01 42 12 03 1D  00 00 10 02 1C 00 01 80  ....B...........
1210: 00 16 12 1A 76 16 02 1C  00 02 80 00 42 12 24 2F  ....v.......B.$/
1220: 80 01 80 02 80 25 02 00  10 02 80 00 34 12 1A 76  .....%......4..v
1230: 16 01 3F 12 02 00 10 01  80 00 3F 12 01 3F 12 01  ..?.......?..?..
1240: B5 11 02 19 00 23 80 00  D2 12 03 05 10 1B 00 1A  .....#..........
1250: 35 15 06 17 00 02 17 00  02 80 00 D2 12 D4 01 01  5...............
1260: 80 1C 80 60 80 D4 01 12  80 1C 80 61 80 D4 01 1C  ...`.......a....
1270: 80 1C 80 62 80 D4 01 1E  80 1C 80 63 80 D4 00 4D  ...b.......c...M
1280: 80 02 80 0D 00 25 02 00  10 02 80 00 96 12 03 17  .....%..........
1290: 00 01 80 01 D2 12 03 1D  00 00 10 02 1C 00 01 80  ................
12A0: 00 A6 12 1A 76 16 02 1C  00 02 80 00 D2 12 24 2F  ....v.........$/
12B0: 80 01 80 02 80 25 02 00  10 02 80 00 C4 12 1A 76  .....%.........v
12C0: 16 01 CF 12 02 00 10 01  80 00 CF 12 01 CF 12 01  ................
12D0: 55 12 02 19 00 24 80 00  6A 13 03 05 10 1B 00 1A  U....$..j.......
12E0: 35 15 06 17 00 02 17 00  02 80 00 6A 13 D4 01 01  5..........j....
12F0: 80 1C 80 64 80 D4 01 12  80 1C 80 65 80 D4 01 1C  ...d.......e....
1300: 80 1C 80 66 80 D4 01 1E  80 1C 80 67 80 D4 01 1F  ...f.......g....
1310: 80 1C 80 68 80 D4 00 58  80 02 80 0E 00 25 02 00  ...h...X.....%..
1320: 10 02 80 00 2E 13 03 17  00 01 80 01 6A 13 03 1D  ............j...
1330: 00 00 10 02 1C 00 01 80  00 3E 13 1A 76 16 02 1C  .........>..v...
1340: 00 02 80 00 6A 13 24 2F  80 01 80 02 80 25 02 00  ....j.$/.....%..
1350: 10 02 80 00 5C 13 1A 76  16 01 67 13 02 00 10 01  ....\..v..g.....
1360: 80 00 67 13 01 67 13 01  E5 12 02 19 00 26 80 00  ..g..g.......&..
1370: 02 14 03 05 10 1B 00 1A  35 15 06 17 00 02 17 00  ........5.......
1380: 02 80 00 02 14 D4 01 01  80 1C 80 69 80 D4 01 12  ...........i....
1390: 80 1C 80 6A 80 D4 01 1C  80 1C 80 6B 80 D4 01 1E  ...j.......k....
13A0: 80 1C 80 6C 80 D4 01 1F  80 1C 80 6D 80 D4 00 58  ...l.......m...X
13B0: 80 02 80 0F 00 25 02 00  10 02 80 00 C6 13 03 17  .....%..........
13C0: 00 01 80 01 02 14 03 1D  00 00 10 02 1C 00 01 80  ................
13D0: 00 D6 13 1A 76 16 02 1C  00 02 80 00 02 14 24 2F  ....v.........$/
13E0: 80 01 80 02 80 25 02 00  10 02 80 00 F4 13 1A 76  .....%.........v
13F0: 16 01 FF 13 02 00 10 01  80 00 FF 13 01 FF 13 01  ................
1400: 7D 13 02 19 00 14 80 00  49 14 03 05 10 1B 00 1A  }.......I.......
1410: 35 15 06 17 00 02 1C 00  01 80 00 20 14 1A 76 16  5.......... ..v.
1420: 02 1C 00 02 80 00 49 14  24 2F 80 01 80 02 80 25  ......I.$/.....%
1430: 02 00 10 02 80 00 3E 14  1A 76 16 01 49 14 02 00  ......>..v..I...
1440: 10 01 80 00 49 14 01 49  14 02 19 00 15 80 00 B8  ....I..I........
1450: 14 03 05 10 1B 00 1A 35  15 06 17 00 02 17 00 02  .......5........
1460: 80 00 B8 14 24 6E 80 02  80 10 00 25 02 00 10 02  ....$n.....%....
1470: 80 00 7C 14 03 17 00 01  80 01 B8 14 03 1D 00 00  ..|.............
1480: 10 02 1C 00 01 80 00 8C  14 1A 76 16 02 1C 00 02  ..........v.....
1490: 80 00 B8 14 24 2F 80 01  80 02 80 25 02 00 10 02  ....$/.....%....
14A0: 80 00 AA 14 1A 76 16 01  B5 14 02 00 10 01 80 00  .....v..........
14B0: B5 14 01 B5 14 01 5C 14  02 19 00 28 80 00 27 15  ......\....(..'.
14C0: 03 05 10 1B 00 1A 35 15  06 17 00 02 17 00 02 80  ......5.........
14D0: 00 27 15 24 6F 80 02 80  11 00 25 02 00 10 02 80  .'.$o.....%.....
14E0: 00 EB 14 03 17 00 01 80  01 27 15 03 1D 00 00 10  .........'......
14F0: 02 1C 00 01 80 00 FB 14  1A 76 16 02 1C 00 02 80  .........v......
1500: 00 27 15 24 2F 80 01 80  02 80 25 02 00 10 02 80  .'.$/.....%.....
1510: 00 19 15 1A 76 16 01 24  15 02 00 10 01 80 00 24  ....v..$.......$
1520: 15 01 24 15 01 CB 14 01  31 0D 1A F8 23 2E 21 03  ..$.....1...#.!.
1530: 01 10 02 80 21 02 19 00  28 80 00 45 15 03 1A 00  ....!...(..E....
1540: 0F 80 01 D8 15 02 19 00  15 80 00 55 15 03 1A 00  ...........U....
1550: 70 80 01 D8 15 02 19 00  14 80 00 65 15 03 1A 00  p..........e....
1560: 0B 80 01 D8 15 02 18 00  19 00 00 8F 15 03 1A 00  ................
1570: 1F 80 02 19 00 01 80 00  7F 15 03 1A 00 01 80 02  ................
1580: 19 00 12 80 00 8C 15 03  1A 00 01 80 01 D8 15 03  ................
1590: 1A 00 25 80 02 19 00 01  80 00 A1 15 03 1A 00 0B  ..%.............
15A0: 80 02 19 00 12 80 00 AE  15 03 1A 00 0B 80 02 18  ................
15B0: 00 01 80 00 C3 15 02 19  00 12 80 00 C3 15 03 1A  ................
15C0: 00 1C 80 02 18 00 12 80  00 D8 15 02 19 00 01 80  ................
15D0: 00 D8 15 03 1A 00 1C 80  02 1E 00 24 80 04 FA 15  ...........$....
15E0: 14 1A 00 1D 80 15 1A 00  25 80 02 1A 00 02 80 05  ........%.......
15F0: F7 15 03 1A 00 01 80 01  19 16 02 1E 00 1E 80 04  ................
1600: 19 16 14 1A 00 71 80 15  1A 00 25 80 02 1A 00 02  .....q....%.....
1610: 80 05 19 16 03 1A 00 01  80 03 06 10 1A 00 1B 03  ................
1620: 16 00 01 80 03 17 00 01  80 40 02 80 21 80 01 10  .........@..!...
1630: 04 00 40 23 80 14 80 01  10 19 00 40 15 80 1A 80  ..@#.......@....
1640: 01 10 1D 00 40 72 80 18  80 01 10 06 10 43 00 43  ....@r.......C.C
1650: 01 03 01 10 02 80 02 02  10 02 80 00 6B 16 03 01  ............k...
1660: 10 73 80 1A BA 23 2E 21  01 75 16 03 19 00 02 80  .s...#.!.u......
1670: 1A 8E 23 2E 21 1B 03 16  00 01 80 03 17 00 01 80  ..#.!...........
1680: 40 02 80 21 80 01 10 04  00 40 23 80 14 80 01 10  @..!.....@#.....
1690: 19 00 40 15 80 1A 80 01  10 1D 00 40 72 80 18 80  ..@........@r...
16A0: 01 10 06 10 43 00 43 01  03 01 10 02 80 02 02 10  ....C.C.........
16B0: 02 80 00 3F 17 1A BA 23  02 19 00 01 80 00 C3 16  ...?...#........
16C0: 1A 5C 18 02 19 00 12 80  00 CE 16 1A 3E 1A 02 19  .\..........>...
16D0: 00 1C 80 00 D9 16 1A 06  1D 02 19 00 1E 80 00 E4  ................
16E0: 16 1A 20 1C 02 19 00 1F  80 00 EF 16 1A EC 1D 02  .. .............
16F0: 19 00 21 80 00 FA 16 1A  06 1F 02 19 00 23 80 00  ..!..........#..
1700: 05 17 1A 54 20 02 19 00  24 80 00 10 17 1A 3A 21  ...T ...$.....:!
1710: 02 19 00 26 80 00 1B 17  1A 54 22 02 19 00 14 80  ...&.....T".....
1720: 00 26 17 1A 54 18 02 19  00 15 80 00 31 17 1A FD  .&..T.......1...
1730: 17 02 19 00 28 80 00 3C  17 1A 4A 17 01 49 17 03  ....(..<..J..I..
1740: 19 00 02 80 1A 8E 23 2E  21 1B 02 1D 00 01 80 80  ......#.!.......
1750: 5A 17 03 01 10 0F 80 01  FA 17 02 1D 00 12 80 80  Z...............
1760: 6A 17 03 01 10 10 80 01  FA 17 02 1D 00 1C 80 80  j...............
1770: 7A 17 03 01 10 74 80 01  FA 17 02 1D 00 1E 80 80  z....t..........
1780: 8A 17 03 01 10 75 80 01  FA 17 02 1D 00 1F 80 80  .....u..........
1790: 9A 17 03 01 10 76 80 01  FA 17 02 1D 00 21 80 80  .....v.......!..
17A0: AA 17 03 01 10 77 80 01  FA 17 02 1D 00 23 80 80  .....w.......#..
17B0: BA 17 03 01 10 78 80 01  FA 17 02 1D 00 24 80 80  .....x.......$..
17C0: CA 17 03 01 10 79 80 01  FA 17 02 1D 00 26 80 80  .....y.......&..
17D0: DA 17 03 01 10 7A 80 01  FA 17 02 1D 00 14 80 80  .....z..........
17E0: EA 17 03 01 10 7B 80 01  FA 17 02 1D 00 15 80 80  .....{..........
17F0: FA 17 03 01 10 7C 80 01  FA 17 2E 21 1B 02 1D 00  .....|.....!....
1800: 01 80 80 0E 18 03 01 10  70 80 21 01 52 18 02 1D  ........p.!.R...
1810: 00 12 80 80 1F 18 03 01  10 7D 80 21 01 52 18 02  .........}.!.R..
1820: 1D 00 1C 80 80 30 18 03  01 10 7E 80 21 01 52 18  .....0....~.!.R.
1830: 02 1D 00 1E 80 80 41 18  03 01 10 7F 80 21 01 52  ......A......!.R
1840: 18 02 1D 00 1F 80 80 52  18 03 01 10 80 80 21 01  .......R......!.
1850: 52 18 2E 1B 03 01 10 25  80 2E 21 1B 02 19 00 18  R......%..!.....
1860: 00 00 AB 19 02 1D 00 01  80 80 88 18 BA F0 FF FF  ................
1870: 7F 81 80 82 80 02 80 62  80 47 00 81 80 82 80 02  .......b.G......
1880: 80 62 80 47 01 01 A8 19  02 1D 00 12 80 80 AC 18  .b.G............
1890: BA F0 FF FF 7F 83 80 84  80 85 80 86 80 47 00 83  .............G..
18A0: 80 84 80 85 80 86 80 47  01 01 A8 19 02 1D 00 1C  .......G........
18B0: 80 80 D0 18 BA F0 FF FF  7F 87 80 88 80 89 80 8A  ................
18C0: 80 47 00 87 80 88 80 89  80 8A 80 47 01 01 A8 19  .G.........G....
18D0: 02 1D 00 1E 80 80 F4 18  BA F0 FF FF 7F 8B 80 8C  ................
18E0: 80 89 80 02 80 47 00 8B  80 8C 80 89 80 02 80 47  .....G.........G
18F0: 01 01 A8 19 02 1D 00 1F  80 80 18 19 BA F0 FF FF  ................
1900: 7F 8D 80 8E 80 8F 80 90  80 47 00 8D 80 8E 80 8F  .........G......
1910: 80 90 80 47 01 01 A8 19  02 1D 00 21 80 80 3C 19  ...G.......!..<.
1920: BA F0 FF FF 7F 91 80 92  80 02 80 8A 80 47 00 91  .............G..
1930: 80 92 80 02 80 8A 80 47  01 01 A8 19 02 1D 00 23  .......G.......#
1940: 80 80 60 19 BA F0 FF FF  7F 93 80 94 80 85 80 95  ..`.............
1950: 80 47 00 93 80 94 80 85  80 95 80 47 01 01 A8 19  .G.........G....
1960: 02 1D 00 24 80 80 84 19  BA F0 FF FF 7F 96 80 97  ...$............
1970: 80 02 80 86 80 47 00 96  80 97 80 02 80 86 80 47  .....G.........G
1980: 01 01 A8 19 02 1D 00 26  80 80 A8 19 BA F0 FF FF  .......&........
1990: 7F 98 80 99 80 9A 80 86  80 47 00 98 80 99 80 9A  .........G......
19A0: 80 86 80 47 01 01 A8 19  01 3D 1A 02 1D 00 01 80  ...G.....=......
19B0: 80 BB 19 03 01 10 01 80  01 3B 1A 02 1D 00 12 80  .........;......
19C0: 80 CB 19 03 01 10 12 80  01 3B 1A 02 1D 00 1C 80  .........;......
19D0: 80 DB 19 03 01 10 1C 80  01 3B 1A 02 1D 00 1E 80  .........;......
19E0: 80 EB 19 03 01 10 1E 80  01 3B 1A 02 1D 00 1F 80  .........;......
19F0: 80 FB 19 03 01 10 1F 80  01 3B 1A 02 1D 00 21 80  .........;....!.
1A00: 80 0B 1A 03 01 10 21 80  01 3B 1A 02 1D 00 23 80  ......!..;....#.
1A10: 80 1B 1A 03 01 10 23 80  01 3B 1A 02 1D 00 24 80  ......#..;....$.
1A20: 80 2B 1A 03 01 10 24 80  01 3B 1A 02 1D 00 26 80  .+....$..;....&.
1A30: 80 3B 1A 03 01 10 26 80  01 3B 1A 2E 21 1B 02 19  .;....&..;..!...
1A40: 00 18 00 00 8D 1B 02 1D  00 01 80 80 6A 1A BA F0  ............j...
1A50: FF FF 7F 9B 80 9C 80 89  80 86 80 47 00 9B 80 9C  ...........G....
1A60: 80 89 80 86 80 47 01 01  8A 1B 02 1D 00 12 80 80  .....G..........
1A70: 8E 1A BA F0 FF FF 7F 9D  80 9E 80 89 80 02 80 47  ...............G
1A80: 00 9D 80 9E 80 89 80 02  80 47 01 01 8A 1B 02 1D  .........G......
1A90: 00 1C 80 80 B2 1A BA F0  FF FF 7F 9F 80 A0 80 A1  ................
1AA0: 80 95 80 47 00 9F 80 A0  80 A1 80 95 80 47 01 01  ...G.........G..
1AB0: 8A 1B 02 1D 00 1E 80 80  D6 1A BA F0 FF FF 7F A2  ................
1AC0: 80 A3 80 89 80 8A 80 47  00 A2 80 A3 80 89 80 8A  .......G........
1AD0: 80 47 01 01 8A 1B 02 1D  00 1F 80 80 FA 1A BA F0  .G..............
1AE0: FF FF 7F A4 80 A5 80 89  80 8A 80 47 00 A4 80 A5  ...........G....
1AF0: 80 89 80 8A 80 47 01 01  8A 1B 02 1D 00 21 80 80  .....G.......!..
1B00: 1E 1B BA F0 FF FF 7F A6  80 A7 80 89 80 86 80 47  ...............G
1B10: 00 A6 80 A7 80 89 80 86  80 47 01 01 8A 1B 02 1D  .........G......
1B20: 00 23 80 80 42 1B BA F0  FF FF 7F A8 80 A9 80 AA  .#..B...........
1B30: 80 8A 80 47 00 A8 80 A9  80 AA 80 8A 80 47 01 01  ...G.........G..
1B40: 8A 1B 02 1D 00 24 80 80  66 1B BA F0 FF FF 7F AB  .....$..f.......
1B50: 80 AC 80 AD 80 8A 80 47  00 AB 80 AC 80 AD 80 8A  .......G........
1B60: 80 47 01 01 8A 1B 02 1D  00 26 80 80 8A 1B BA F0  .G.......&......
1B70: FF FF 7F AE 80 AF 80 AD  80 02 80 47 00 AE 80 AF  ...........G....
1B80: 80 AD 80 02 80 47 01 01  8A 1B 01 1F 1C 02 1D 00  .....G..........
1B90: 01 80 80 9D 1B 03 01 10  72 80 01 1D 1C 02 1D 00  ........r.......
1BA0: 12 80 80 AD 1B 03 01 10  B0 80 01 1D 1C 02 1D 00  ................
1BB0: 1C 80 80 BD 1B 03 01 10  B1 80 01 1D 1C 02 1D 00  ................
1BC0: 1E 80 80 CD 1B 03 01 10  B2 80 01 1D 1C 02 1D 00  ................
1BD0: 1F 80 80 DD 1B 03 01 10  B3 80 01 1D 1C 02 1D 00  ................
1BE0: 21 80 80 ED 1B 03 01 10  B4 80 01 1D 1C 02 1D 00  !...............
1BF0: 23 80 80 FD 1B 03 01 10  B5 80 01 1D 1C 02 1D 00  #...............
1C00: 24 80 80 0D 1C 03 01 10  B6 80 01 1D 1C 02 1D 00  $...............
1C10: 26 80 80 1D 1C 03 01 10  B7 80 01 1D 1C 2E 21 1B  &.............!.
1C20: 02 19 00 18 00 00 C3 1C  02 1D 00 01 80 80 4C 1C  ..............L.
1C30: BA F0 FF FF 7F B8 80 B9  80 02 80 8A 80 47 00 B8  .............G..
1C40: 80 B9 80 02 80 8A 80 47  01 01 B8 1C 02 1D 00 12  .......G........
1C50: 80 80 70 1C BA F0 FF FF  7F BA 80 BB 80 02 80 02  ..p.............
1C60: 80 47 00 BA 80 BB 80 02  80 02 80 47 01 01 B8 1C  .G.........G....
1C70: 02 1D 00 1C 80 80 94 1C  BA F0 FF FF 7F BC 80 BD  ................
1C80: 80 02 80 8A 80 47 00 BC  80 BD 80 02 80 8A 80 47  .....G.........G
1C90: 01 01 B8 1C 02 1D 00 1E  80 80 B8 1C BA F0 FF FF  ................
1CA0: 7F BE 80 BF 80 02 80 86  80 47 00 BE 80 BF 80 02  .........G......
1CB0: 80 86 80 47 01 01 B8 1C  03 01 10 C0 80 1A 8E 23  ...G...........#
1CC0: 01 05 1D 02 1D 00 01 80  80 D3 1C 03 01 10 18 80  ................
1CD0: 01 03 1D 02 1D 00 12 80  80 E3 1C 03 01 10 C1 80  ................
1CE0: 01 03 1D 02 1D 00 1C 80  80 F3 1C 03 01 10 C2 80  ................
1CF0: 01 03 1D 02 1D 00 1E 80  80 03 1D 03 01 10 C3 80  ................
1D00: 01 03 1D 2E 21 1B 02 19  00 18 00 00 A9 1D 02 1D  ....!...........
1D10: 00 01 80 80 32 1D BA F0  FF FF 7F C4 80 C5 80 C6  ....2...........
1D20: 80 8A 80 47 00 C4 80 C5  80 C7 80 8A 80 47 01 01  ...G.........G..
1D30: 9E 1D 02 1D 00 12 80 80  56 1D BA F0 FF FF 7F C8  ........V.......
1D40: 80 C9 80 02 80 95 80 47  00 C8 80 C9 80 0B 80 95  .......G........
1D50: 80 47 01 01 9E 1D 02 1D  00 1C 80 80 7A 1D BA F0  .G..........z...
1D60: FF FF 7F CA 80 CB 80 02  80 86 80 47 00 CA 80 CB  ...........G....
1D70: 80 02 80 86 80 47 01 01  9E 1D 02 1D 00 1E 80 80  .....G..........
1D80: 9E 1D BA F0 FF FF 7F CC  80 CD 80 02 80 86 80 47  ...............G
1D90: 00 CC 80 CD 80 02 80 86  80 47 01 01 9E 1D 03 01  .........G......
1DA0: 10 C0 80 1A 8E 23 01 EB  1D 02 1D 00 01 80 80 B9  .....#..........
1DB0: 1D 03 01 10 CE 80 01 E9  1D 02 1D 00 12 80 80 C9  ................
1DC0: 1D 03 01 10 CF 80 01 E9  1D 02 1D 00 1C 80 80 D9  ................
1DD0: 1D 03 01 10 D0 80 01 E9  1D 02 1D 00 1E 80 80 E9  ................
1DE0: 1D 03 01 10 D1 80 01 E9  1D 2E 21 1B 02 19 00 18  ..........!.....
1DF0: 00 00 B3 1E 02 1D 00 01  80 80 18 1E BA F0 FF FF  ................
1E00: 7F D2 80 D3 80 D4 80 02  80 47 00 D2 80 D3 80 D4  .........G......
1E10: 80 02 80 47 01 01 A8 1E  02 1D 00 12 80 80 3C 1E  ...G..........<.
1E20: BA F0 FF FF 7F D5 80 D6  80 D7 80 02 80 47 00 D5  .............G..
1E30: 80 D6 80 D7 80 02 80 47  01 01 A8 1E 02 1D 00 1C  .......G........
1E40: 80 80 60 1E BA F0 FF FF  7F D8 80 D9 80 DA 80 8A  ..`.............
1E50: 80 47 00 D8 80 D9 80 DA  80 8A 80 47 01 01 A8 1E  .G.........G....
1E60: 02 1D 00 1E 80 80 84 1E  BA F0 FF FF 7F DB 80 DC  ................
1E70: 80 DD 80 95 80 47 00 DB  80 DC 80 DD 80 95 80 47  .....G.........G
1E80: 01 01 A8 1E 02 1D 00 1F  80 80 A8 1E BA F0 FF FF  ................
1E90: 7F DE 80 DF 80 E0 80 95  80 47 00 DE 80 DF 80 E0  .........G......
1EA0: 80 95 80 47 01 01 A8 1E  03 01 10 C0 80 1A 8E 23  ...G...........#
1EB0: 01 05 1F 02 1D 00 01 80  80 C3 1E 03 01 10 E1 80  ................
1EC0: 01 03 1F 02 1D 00 12 80  80 D3 1E 03 01 10 E2 80  ................
1ED0: 01 03 1F 02 1D 00 1C 80  80 E3 1E 03 01 10 E3 80  ................
1EE0: 01 03 1F 02 1D 00 1E 80  80 F3 1E 03 01 10 E4 80  ................
1EF0: 01 03 1F 02 1D 00 1F 80  80 03 1F 03 01 10 E5 80  ................
1F00: 01 03 1F 2E 21 1B 02 19  00 18 00 00 F1 1F 02 1D  ....!...........
1F10: 00 01 80 80 32 1F BA F0  FF FF 7F E6 80 E7 80 E8  ....2...........
1F20: 80 86 80 47 00 E6 80 E7  80 E8 80 86 80 47 01 01  ...G.........G..
1F30: E6 1F 02 1D 00 12 80 80  56 1F BA F0 FF FF 7F E9  ........V.......
1F40: 80 EA 80 E8 80 8A 80 47  00 E9 80 EA 80 E8 80 8A  .......G........
1F50: 80 47 01 01 E6 1F 02 1D  00 1C 80 80 7A 1F BA F0  .G..........z...
1F60: FF FF 7F EB 80 EC 80 ED  80 95 80 47 00 EB 80 EC  ...........G....
1F70: 80 ED 80 95 80 47 01 01  E6 1F 02 1D 00 1E 80 80  .....G..........
1F80: 9E 1F BA F0 FF FF 7F EE  80 EF 80 F0 80 8A 80 47  ...............G
1F90: 00 EE 80 EF 80 F0 80 8A  80 47 01 01 E6 1F 02 1D  .........G......
1FA0: 00 1F 80 80 C2 1F BA F0  FF FF 7F F1 80 F2 80 F3  ................
1FB0: 80 95 80 47 00 F1 80 F2  80 F3 80 95 80 47 01 01  ...G.........G..
1FC0: E6 1F 02 1D 00 21 80 80  E6 1F BA F0 FF FF 7F F4  .....!..........
1FD0: 80 F5 80 F6 80 86 80 47  00 F4 80 F5 80 F6 80 86  .......G........
1FE0: 80 47 01 01 E6 1F 03 01  10 C0 80 1A 8E 23 01 53  .G...........#.S
1FF0: 20 02 1D 00 01 80 80 01  20 03 01 10 F7 80 01 51   ....... ......Q
2000: 20 02 1D 00 12 80 80 11  20 03 01 10 F8 80 01 51   ....... ......Q
2010: 20 02 1D 00 1C 80 80 21  20 03 01 10 F9 80 01 51   ......! ......Q
2020: 20 02 1D 00 1E 80 80 31  20 03 01 10 FA 80 01 51   ......1 ......Q
2030: 20 02 1D 00 1F 80 80 41  20 03 01 10 FB 80 01 51   ......A ......Q
2040: 20 02 1D 00 21 80 80 51  20 03 01 10 FC 80 01 51   ...!..Q ......Q
2050: 20 2E 21 1B 02 19 00 18  00 00 F7 20 02 1D 00 01   .!........ ....
2060: 80 80 80 20 BA F0 FF FF  7F FD 80 FE 80 0F 80 FF  ... ............
2070: 80 47 00 FD 80 FE 80 0F  80 FF 80 47 01 01 EC 20  .G.........G... 
2080: 02 1D 00 12 80 80 A4 20  BA F0 FF FF 7F 00 81 01  ....... ........
2090: 81 02 81 02 80 47 00 00  81 01 81 02 81 02 80 47  .....G.........G
20A0: 01 01 EC 20 02 1D 00 1C  80 80 C8 20 BA F0 FF FF  ... ....... ....
20B0: 7F 03 81 04 81 05 81 8A  80 47 00 03 81 04 81 05  .........G......
20C0: 81 8A 80 47 01 01 EC 20  02 1D 00 1E 80 80 EC 20  ...G... ....... 
20D0: BA F0 FF FF 7F 06 81 07  81 08 81 8A 80 47 00 06  .............G..
20E0: 81 07 81 08 81 8A 80 47  01 01 EC 20 03 01 10 C0  .......G... ....
20F0: 80 1A 8E 23 01 39 21 02  1D 00 01 80 80 07 21 03  ...#.9!.......!.
2100: 01 10 09 81 01 37 21 02  1D 00 12 80 80 17 21 03  .....7!.......!.
2110: 01 10 0A 81 01 37 21 02  1D 00 1C 80 80 27 21 03  .....7!......'!.
2120: 01 10 0B 81 01 37 21 02  1D 00 1E 80 80 37 21 03  .....7!......7!.
2130: 01 10 0C 81 01 37 21 2E  21 1B 02 19 00 18 00 00  .....7!.!.......
2140: 01 22 02 1D 00 01 80 80  66 21 BA F0 FF FF 7F 0D  ."......f!......
2150: 81 0E 81 0F 81 95 80 47  00 0D 81 0E 81 0F 81 95  .......G........
2160: 80 47 01 01 F6 21 02 1D  00 12 80 80 8A 21 BA F0  .G...!.......!..
2170: FF FF 7F 10 81 11 81 12  81 02 80 47 00 10 81 11  ...........G....
2180: 81 12 81 02 80 47 01 01  F6 21 02 1D 00 1C 80 80  .....G...!......
2190: AE 21 BA F0 FF FF 7F 13  81 14 81 02 80 86 80 47  .!.............G
21A0: 00 13 81 14 81 02 80 86  80 47 01 01 F6 21 02 1D  .........G...!..
21B0: 00 1E 80 80 D2 21 BA F0  FF FF 7F 15 81 16 81 12  .....!..........
21C0: 81 95 80 47 00 15 81 16  81 12 81 95 80 47 01 01  ...G.........G..
21D0: F6 21 02 1D 00 1F 80 80  F6 21 BA F0 FF FF 7F 17  .!.......!......
21E0: 81 18 81 19 81 86 80 47  00 17 81 18 81 19 81 86  .......G........
21F0: 80 47 01 01 F6 21 03 01  10 C0 80 1A 8E 23 01 53  .G...!.......#.S
2200: 22 02 1D 00 01 80 80 11  22 03 01 10 1A 81 01 51  "......."......Q
2210: 22 02 1D 00 12 80 80 21  22 03 01 10 1B 81 01 51  "......!"......Q
2220: 22 02 1D 00 1C 80 80 31  22 03 01 10 1C 81 01 51  "......1"......Q
2230: 22 02 1D 00 1E 80 80 41  22 03 01 10 1D 81 01 51  "......A"......Q
2240: 22 02 1D 00 1F 80 80 51  22 03 01 10 1E 81 01 51  "......Q"......Q
2250: 22 2E 21 1B 02 19 00 18  00 00 1B 23 02 1D 00 01  ".!........#....
2260: 80 80 80 22 BA F0 FF FF  7F 1F 81 20 81 21 81 95  ..."....... .!..
2270: 80 47 00 1F 81 20 81 21  81 95 80 47 01 01 10 23  .G... .!...G...#
2280: 02 1D 00 12 80 80 A4 22  BA F0 FF FF 7F 22 81 23  .......".....".#
2290: 81 24 81 02 80 47 00 22  81 23 81 24 81 02 80 47  .$...G.".#.$...G
22A0: 01 01 10 23 02 1D 00 1C  80 80 C8 22 BA F0 FF FF  ...#......."....
22B0: 7F 25 81 26 81 24 81 86  80 47 00 25 81 26 81 24  .%.&.$...G.%.&.$
22C0: 81 86 80 47 01 01 10 23  02 1D 00 1E 80 80 EC 22  ...G...#......."
22D0: BA F0 FF FF 7F 27 81 28  81 29 81 95 80 47 00 27  .....'.(.)...G.'
22E0: 81 28 81 29 81 95 80 47  01 01 10 23 02 1D 00 1F  .(.)...G...#....
22F0: 80 80 10 23 BA F0 FF FF  7F 2A 81 2B 81 2C 81 8A  ...#.....*.+.,..
2300: 80 47 00 2A 81 2B 81 2C  81 8A 80 47 01 01 10 23  .G.*.+.,...G...#
2310: 03 01 10 C0 80 1A 8E 23  01 6D 23 02 1D 00 01 80  .......#.m#.....
2320: 80 2B 23 03 01 10 2D 81  01 6B 23 02 1D 00 12 80  .+#...-..k#.....
2330: 80 3B 23 03 01 10 2E 81  01 6B 23 02 1D 00 1C 80  .;#......k#.....
2340: 80 4B 23 03 01 10 2F 81  01 6B 23 02 1D 00 1E 80  .K#.../..k#.....
2350: 80 5B 23 03 01 10 30 81  01 6B 23 02 1D 00 1F 80  .[#...0..k#.....
2360: 80 6B 23 03 01 10 31 81  01 6B 23 2E 21 1B 02 1C  .k#...1..k#.!...
2370: 00 01 80 00 79 23 01 8D  23 CD 09 80 F8 FF FF 7F  ....y#..#.......
2380: F8 FF FF 7F 73 30 30 30  02 80 1C 27 80 1B 02 1C  ....s000...'....
2390: 00 01 80 00 99 23 01 B9  23 CE 09 80 F8 FF FF 7F  .....#..#.......
23A0: F8 FF FF 7F 73 30 30 30  CD 09 80 F8 FF FF 7F F8  ....s000........
23B0: FF FF 7F 73 74 70 30 02  80 1B CD 09 80 F8 FF FF  ...stp0.........
23C0: 7F F0 FF FF 7F 6D 61 69  6E 02 80 1C 0D 80 92 01  .....main.......
23D0: F0 FF FF 7F 1C 0B 80 45  0F 80 F0 FF FF 7F F0 FF  .......E........
23E0: FF 7F 66 64 6F 31 02 80  55 0F 80 F0 FF FF 7F F0  ..fdo1..U.......
23F0: FF FF 7F 66 64 6F 31 1B  CD 09 80 F8 FF FF 7F F0  ...fdo1.........
2400: FF FF 7F 6B 69 6C 61 02  80 45 0F 80 F0 FF FF 7F  ...kila..E......
2410: F0 FF FF 7F 66 64 69 31  02 80 55 0F 80 F0 FF FF  ....fdi1..U.....
2420: 7F F0 FF FF 7F 66 64 69  31 CD 32 81 F0 FF FF 7F  .....fdi1.2.....
2430: F0 FF FF 7F 6D 61 69 6E  02 80 1C 0D 80 92 00 F0  ....main........
2440: FF FF 7F 1C 0B 80 1B 00                           ........        
```

#### Opcodes

```
  0: 0x03FF [0x06] ExtData[1]->WorkLocal[2] = 0
  1: 0x0402 [0x41] ExtData[1]->WorkLocal[4] = Work_Zone[2] (bits 0*-10*)
  2: 0x040B [0x41] ExtData[1]->WorkLocal[30] = Work_Zone[2] (bits 11*-14*)
  3: 0x0414 [0x41] ExtData[1]->WorkLocal[28] = Work_Zone[2] (bits 15*-15*)
  4: 0x041D [0x41] ExtData[1]->WorkLocal[27] = Work_Zone[2] (bits 16*-31*)
  5: 0x0426 [0x03] ExtData[1]->WorkLocal[6] = 14332*
  6: 0x042B [0x03] ExtData[1]->WorkLocal[17] = Work_Zone[4]
  7: 0x0430 [0x02] IF !(ExtData[1]->WorkLocal[4] < 0*) GOTO 0x0445
  8: 0x0438 [0x02] IF !(ExtData[1]->WorkLocal[4] >= 20*) GOTO 0x0445
  9: 0x0440 [0x03] ExtData[1]->WorkLocal[24] = 1*
 10: 0x0445 [0x02] IF !(ExtData[1]->WorkLocal[4] < 20*) GOTO 0x045A
 11: 0x044D [0x02] IF !(ExtData[1]->WorkLocal[4] >= 30*) GOTO 0x045A
 12: 0x0455 [0x03] ExtData[1]->WorkLocal[24] = 2*
 13: 0x045A [0x02] IF !(ExtData[1]->WorkLocal[4] < 30*) GOTO 0x046F
 14: 0x0462 [0x02] IF !(ExtData[1]->WorkLocal[4] >= 40*) GOTO 0x046F
 15: 0x046A [0x03] ExtData[1]->WorkLocal[24] = 3*
 16: 0x046F [0x02] IF !(ExtData[1]->WorkLocal[4] < 40*) GOTO 0x0484
 17: 0x0477 [0x02] IF !(ExtData[1]->WorkLocal[4] >= 50*) GOTO 0x0484
 18: 0x047F [0x03] ExtData[1]->WorkLocal[24] = 4*
 19: 0x0484 [0x02] IF !(ExtData[1]->WorkLocal[4] < 50*) GOTO 0x0499
 20: 0x048C [0x02] IF !(ExtData[1]->WorkLocal[4] >= 60*) GOTO 0x0499
 21: 0x0494 [0x03] ExtData[1]->WorkLocal[24] = 5*
 22: 0x0499 [0x02] IF !(ExtData[1]->WorkLocal[4] < 60*) GOTO 0x04AE
 23: 0x04A1 [0x02] IF !(ExtData[1]->WorkLocal[4] >= 70*) GOTO 0x04AE
 24: 0x04A9 [0x03] ExtData[1]->WorkLocal[24] = 6*
 25: 0x04AE [0x02] IF !(ExtData[1]->WorkLocal[4] < 70*) GOTO 0x04C3
 26: 0x04B6 [0x02] IF !(ExtData[1]->WorkLocal[4] >= 80*) GOTO 0x04C3
 27: 0x04BE [0x03] ExtData[1]->WorkLocal[24] = 7*
 28: 0x04C3 [0x02] IF !(ExtData[1]->WorkLocal[4] < 80*) GOTO 0x04D8
 29: 0x04CB [0x02] IF !(ExtData[1]->WorkLocal[4] >= 90*) GOTO 0x04D8
 30: 0x04D3 [0x03] ExtData[1]->WorkLocal[24] = 8*
 31: 0x04D8 [0x02] IF !(ExtData[1]->WorkLocal[4] < 90*) GOTO 0x04ED
 32: 0x04E0 [0x02] IF !(ExtData[1]->WorkLocal[4] >= 100*) GOTO 0x04ED
 33: 0x04E8 [0x03] ExtData[1]->WorkLocal[24] = 9*
 34: 0x04ED [0x02] IF !(ExtData[1]->WorkLocal[4] < 100*) GOTO 0x0509
 35: 0x04F5 [0x02] IF !(ExtData[1]->WorkLocal[4] >= 110*) GOTO 0x0509
 36: 0x04FD [0x03] ExtData[1]->WorkLocal[24] = 10*
 37: 0x0502 [0x3C] SET_BIT_FLAG_CONDITIONAL(target_work_offset=ExtData[1]->WorkLocal[6], bit_index_work_offset=11*, condition_work_offset=1*)
 38: 0x0509 [0x02] IF !(ExtData[1]->WorkLocal[28] == 0*) GOTO 0x0522
 39: 0x0511 [0x3D] CLEAR_BIT_FLAG_CONDITIONAL(target_work_offset=ExtData[1]->WorkLocal[6], bit_index_work_offset=14*, condition_work_offset=1*)
 40: 0x0518 [0x3C] SET_BIT_FLAG_CONDITIONAL(target_work_offset=ExtData[1]->WorkLocal[6], bit_index_work_offset=15*, condition_work_offset=1*)
 41: 0x051F [0x01] GOTO 0x0530
 42: 0x0522 [0x3C] SET_BIT_FLAG_CONDITIONAL(target_work_offset=ExtData[1]->WorkLocal[6], bit_index_work_offset=14*, condition_work_offset=1*)
 43: 0x0529 [0x3D] CLEAR_BIT_FLAG_CONDITIONAL(target_work_offset=ExtData[1]->WorkLocal[6], bit_index_work_offset=15*, condition_work_offset=1*)

SUBROUTINE_0530:
 44: 0x0530 [0x06] ExtData[1]->WorkLocal[3] = 0
 45: 0x0533 [0x03] ExtData[1]->WorkLocal[1] = Work_Zone[3]
 46: 0x0538 [0x02] IF !(ExtData[1]->WorkLocal[24] == 1*) GOTO 0x0547
 47: 0x0540 [0x3C] SET_BIT_FLAG_CONDITIONAL(target_work_offset=ExtData[1]->WorkLocal[7], bit_index_work_offset=ExtData[1]->WorkLocal[4], condition_work_offset=1*)
 48: 0x0547 [0x03] ExtData[1]->WorkLocal[20] = 0*

SUBROUTINE_054C:
 49: 0x054C [0x02] IF !(ExtData[1]->WorkLocal[20] > 9*) GOTO 0x057B
 50: 0x0554 [0x3E] IF !(ExtData[1]->WorkLocal[1] bit ExtData[1]->WorkLocal[20]) GOTO 0x0564
 51: 0x055B [0x0B] ExtData[1]->WorkLocal[2]++
 52: 0x055E [0x0B] ExtData[1]->WorkLocal[3]++
 53: 0x0561 [0x01] GOTO 0x0575
 54: 0x0564 [0x03] ExtData[1]->WorkLocal[21] = ExtData[1]->WorkLocal[20]
 55: 0x0569 [0x07] ExtData[1]->WorkLocal[21] += 1*
 56: 0x056E [0x3C] SET_BIT_FLAG_CONDITIONAL(target_work_offset=ExtData[1]->WorkLocal[7], bit_index_work_offset=ExtData[1]->WorkLocal[21], condition_work_offset=1*)

SUBROUTINE_0575:
 57: 0x0575 [0x0B] ExtData[1]->WorkLocal[20]++
 58: 0x0578 [0x01] GOTO 0x054C
 59: 0x057B [0x02] IF !(ExtData[1]->WorkLocal[3] < 1*) GOTO 0x05A1
 60: 0x0583 [0x3D] CLEAR_BIT_FLAG_CONDITIONAL(target_work_offset=ExtData[1]->WorkLocal[6], bit_index_work_offset=2*, condition_work_offset=1*)
 61: 0x058A [0x02] IF !(ExtData[1]->WorkLocal[24] == 1*) GOTO 0x05A1
 62: 0x0592 [0x02] IF !(ExtData[1]->WorkLocal[3] == 1*) GOTO 0x05A1
 63: 0x059A [0x3C] SET_BIT_FLAG_CONDITIONAL(target_work_offset=ExtData[1]->WorkLocal[6], bit_index_work_offset=2*, condition_work_offset=1*)
 64: 0x05A1 [0x06] ExtData[1]->WorkLocal[3] = 0
 65: 0x05A4 [0x03] ExtData[1]->WorkLocal[1] = Work_Zone[3]
 66: 0x05A9 [0x11] ExtData[1]->WorkLocal[1] >>= 15*
 67: 0x05AE [0x02] IF !(ExtData[1]->WorkLocal[24] == 2*) GOTO 0x05C7
 68: 0x05B6 [0x03] ExtData[1]->WorkLocal[5] = ExtData[1]->WorkLocal[4]
 69: 0x05BB [0x08] ExtData[1]->WorkLocal[5] -= 20*
 70: 0x05C0 [0x3C] SET_BIT_FLAG_CONDITIONAL(target_work_offset=ExtData[1]->WorkLocal[8], bit_index_work_offset=ExtData[1]->WorkLocal[5], condition_work_offset=1*)
 71: 0x05C7 [0x03] ExtData[1]->WorkLocal[20] = 0*

SUBROUTINE_05CC:
 72: 0x05CC [0x02] IF !(ExtData[1]->WorkLocal[20] > 9*) GOTO 0x05FB
 73: 0x05D4 [0x3E] IF !(ExtData[1]->WorkLocal[1] bit ExtData[1]->WorkLocal[20]) GOTO 0x05E4
 74: 0x05DB [0x0B] ExtData[1]->WorkLocal[2]++
 75: 0x05DE [0x0B] ExtData[1]->WorkLocal[3]++
 76: 0x05E1 [0x01] GOTO 0x05F5
 77: 0x05E4 [0x03] ExtData[1]->WorkLocal[21] = ExtData[1]->WorkLocal[20]
 78: 0x05E9 [0x07] ExtData[1]->WorkLocal[21] += 1*
 79: 0x05EE [0x3C] SET_BIT_FLAG_CONDITIONAL(target_work_offset=ExtData[1]->WorkLocal[8], bit_index_work_offset=ExtData[1]->WorkLocal[21], condition_work_offset=1*)

SUBROUTINE_05F5:
 80: 0x05F5 [0x0B] ExtData[1]->WorkLocal[20]++
 81: 0x05F8 [0x01] GOTO 0x05CC
 82: 0x05FB [0x02] IF !(ExtData[1]->WorkLocal[3] < 1*) GOTO 0x0621
 83: 0x0603 [0x3D] CLEAR_BIT_FLAG_CONDITIONAL(target_work_offset=ExtData[1]->WorkLocal[6], bit_index_work_offset=3*, condition_work_offset=1*)
 84: 0x060A [0x02] IF !(ExtData[1]->WorkLocal[24] == 2*) GOTO 0x0621
 85: 0x0612 [0x02] IF !(ExtData[1]->WorkLocal[3] == 1*) GOTO 0x0621
 86: 0x061A [0x3C] SET_BIT_FLAG_CONDITIONAL(target_work_offset=ExtData[1]->WorkLocal[6], bit_index_work_offset=3*, condition_work_offset=1*)
 87: 0x0621 [0x06] ExtData[1]->WorkLocal[3] = 0
 88: 0x0624 [0x03] ExtData[1]->WorkLocal[1] = Work_Zone[5]
 89: 0x0629 [0x02] IF !(ExtData[1]->WorkLocal[24] == 3*) GOTO 0x0642
 90: 0x0631 [0x03] ExtData[1]->WorkLocal[5] = ExtData[1]->WorkLocal[4]
 91: 0x0636 [0x08] ExtData[1]->WorkLocal[5] -= 30*
 92: 0x063B [0x3C] SET_BIT_FLAG_CONDITIONAL(target_work_offset=ExtData[1]->WorkLocal[9], bit_index_work_offset=ExtData[1]->WorkLocal[5], condition_work_offset=1*)
 93: 0x0642 [0x03] ExtData[1]->WorkLocal[20] = 0*

SUBROUTINE_0647:
 94: 0x0647 [0x02] IF !(ExtData[1]->WorkLocal[20] > 4*) GOTO 0x0673
 95: 0x064F [0x3E] IF !(ExtData[1]->WorkLocal[1] bit ExtData[1]->WorkLocal[20]) GOTO 0x065C
 96: 0x0656 [0x0B] ExtData[1]->WorkLocal[3]++
 97: 0x0659 [0x01] GOTO 0x066D
 98: 0x065C [0x03] ExtData[1]->WorkLocal[21] = ExtData[1]->WorkLocal[20]
 99: 0x0661 [0x07] ExtData[1]->WorkLocal[21] += 1*
100: 0x0666 [0x3C] SET_BIT_FLAG_CONDITIONAL(target_work_offset=ExtData[1]->WorkLocal[9], bit_index_work_offset=ExtData[1]->WorkLocal[21], condition_work_offset=1*)

SUBROUTINE_066D:
101: 0x066D [0x0B] ExtData[1]->WorkLocal[20]++
102: 0x0670 [0x01] GOTO 0x0647
103: 0x0673 [0x02] IF !(ExtData[1]->WorkLocal[3] < 1*) GOTO 0x0699
104: 0x067B [0x3D] CLEAR_BIT_FLAG_CONDITIONAL(target_work_offset=ExtData[1]->WorkLocal[6], bit_index_work_offset=4*, condition_work_offset=1*)
105: 0x0682 [0x02] IF !(ExtData[1]->WorkLocal[24] == 3*) GOTO 0x0699
106: 0x068A [0x02] IF !(ExtData[1]->WorkLocal[3] == 1*) GOTO 0x0699
107: 0x0692 [0x3C] SET_BIT_FLAG_CONDITIONAL(target_work_offset=ExtData[1]->WorkLocal[6], bit_index_work_offset=4*, condition_work_offset=1*)
108: 0x0699 [0x06] ExtData[1]->WorkLocal[3] = 0
109: 0x069C [0x03] ExtData[1]->WorkLocal[1] = Work_Zone[5]
110: 0x06A1 [0x11] ExtData[1]->WorkLocal[1] >>= 6*
111: 0x06A6 [0x02] IF !(ExtData[1]->WorkLocal[24] == 4*) GOTO 0x06BF
112: 0x06AE [0x03] ExtData[1]->WorkLocal[5] = ExtData[1]->WorkLocal[4]
113: 0x06B3 [0x08] ExtData[1]->WorkLocal[5] -= 40*
114: 0x06B8 [0x3C] SET_BIT_FLAG_CONDITIONAL(target_work_offset=ExtData[1]->WorkLocal[10], bit_index_work_offset=ExtData[1]->WorkLocal[5], condition_work_offset=1*)
115: 0x06BF [0x03] ExtData[1]->WorkLocal[20] = 0*

SUBROUTINE_06C4:
116: 0x06C4 [0x02] IF !(ExtData[1]->WorkLocal[20] > 4*) GOTO 0x06F0
117: 0x06CC [0x3E] IF !(ExtData[1]->WorkLocal[1] bit ExtData[1]->WorkLocal[20]) GOTO 0x06D9
118: 0x06D3 [0x0B] ExtData[1]->WorkLocal[3]++
119: 0x06D6 [0x01] GOTO 0x06EA
120: 0x06D9 [0x03] ExtData[1]->WorkLocal[21] = ExtData[1]->WorkLocal[20]
121: 0x06DE [0x07] ExtData[1]->WorkLocal[21] += 1*
122: 0x06E3 [0x3C] SET_BIT_FLAG_CONDITIONAL(target_work_offset=ExtData[1]->WorkLocal[10], bit_index_work_offset=ExtData[1]->WorkLocal[21], condition_work_offset=1*)

SUBROUTINE_06EA:
123: 0x06EA [0x0B] ExtData[1]->WorkLocal[20]++
124: 0x06ED [0x01] GOTO 0x06C4
125: 0x06F0 [0x02] IF !(ExtData[1]->WorkLocal[3] < 1*) GOTO 0x0716
126: 0x06F8 [0x3D] CLEAR_BIT_FLAG_CONDITIONAL(target_work_offset=ExtData[1]->WorkLocal[6], bit_index_work_offset=5*, condition_work_offset=1*)
127: 0x06FF [0x02] IF !(ExtData[1]->WorkLocal[24] == 4*) GOTO 0x0716
128: 0x0707 [0x02] IF !(ExtData[1]->WorkLocal[3] == 1*) GOTO 0x0716
129: 0x070F [0x3C] SET_BIT_FLAG_CONDITIONAL(target_work_offset=ExtData[1]->WorkLocal[6], bit_index_work_offset=5*, condition_work_offset=1*)
130: 0x0716 [0x06] ExtData[1]->WorkLocal[3] = 0
131: 0x0719 [0x03] ExtData[1]->WorkLocal[1] = Work_Zone[6]
132: 0x071E [0x02] IF !(ExtData[1]->WorkLocal[24] == 5*) GOTO 0x0737
133: 0x0726 [0x03] ExtData[1]->WorkLocal[5] = ExtData[1]->WorkLocal[4]
134: 0x072B [0x08] ExtData[1]->WorkLocal[5] -= 50*
135: 0x0730 [0x3C] SET_BIT_FLAG_CONDITIONAL(target_work_offset=ExtData[1]->WorkLocal[11], bit_index_work_offset=ExtData[1]->WorkLocal[5], condition_work_offset=1*)
136: 0x0737 [0x03] ExtData[1]->WorkLocal[20] = 0*

SUBROUTINE_073C:
137: 0x073C [0x02] IF !(ExtData[1]->WorkLocal[20] > 4*) GOTO 0x0768
138: 0x0744 [0x3E] IF !(ExtData[1]->WorkLocal[1] bit ExtData[1]->WorkLocal[20]) GOTO 0x0751
139: 0x074B [0x0B] ExtData[1]->WorkLocal[3]++
140: 0x074E [0x01] GOTO 0x0762
141: 0x0751 [0x03] ExtData[1]->WorkLocal[21] = ExtData[1]->WorkLocal[20]
142: 0x0756 [0x07] ExtData[1]->WorkLocal[21] += 1*
143: 0x075B [0x3C] SET_BIT_FLAG_CONDITIONAL(target_work_offset=ExtData[1]->WorkLocal[11], bit_index_work_offset=ExtData[1]->WorkLocal[21], condition_work_offset=1*)

SUBROUTINE_0762:
144: 0x0762 [0x0B] ExtData[1]->WorkLocal[20]++
145: 0x0765 [0x01] GOTO 0x073C
146: 0x0768 [0x02] IF !(ExtData[1]->WorkLocal[3] < 1*) GOTO 0x078E
147: 0x0770 [0x3D] CLEAR_BIT_FLAG_CONDITIONAL(target_work_offset=ExtData[1]->WorkLocal[6], bit_index_work_offset=6*, condition_work_offset=1*)
148: 0x0777 [0x02] IF !(ExtData[1]->WorkLocal[24] == 5*) GOTO 0x078E
149: 0x077F [0x02] IF !(ExtData[1]->WorkLocal[3] == 1*) GOTO 0x078E
150: 0x0787 [0x3C] SET_BIT_FLAG_CONDITIONAL(target_work_offset=ExtData[1]->WorkLocal[6], bit_index_work_offset=6*, condition_work_offset=1*)
151: 0x078E [0x06] ExtData[1]->WorkLocal[3] = 0
152: 0x0791 [0x03] ExtData[1]->WorkLocal[1] = Work_Zone[6]
153: 0x0796 [0x11] ExtData[1]->WorkLocal[1] >>= 6*
154: 0x079B [0x02] IF !(ExtData[1]->WorkLocal[24] == 6*) GOTO 0x07B4
155: 0x07A3 [0x03] ExtData[1]->WorkLocal[5] = ExtData[1]->WorkLocal[4]
156: 0x07A8 [0x08] ExtData[1]->WorkLocal[5] -= 60*
157: 0x07AD [0x3C] SET_BIT_FLAG_CONDITIONAL(target_work_offset=ExtData[1]->WorkLocal[12], bit_index_work_offset=ExtData[1]->WorkLocal[5], condition_work_offset=1*)
158: 0x07B4 [0x03] ExtData[1]->WorkLocal[20] = 0*

SUBROUTINE_07B9:
159: 0x07B9 [0x02] IF !(ExtData[1]->WorkLocal[20] > 6*) GOTO 0x07E5
160: 0x07C1 [0x3E] IF !(ExtData[1]->WorkLocal[1] bit ExtData[1]->WorkLocal[20]) GOTO 0x07CE
161: 0x07C8 [0x0B] ExtData[1]->WorkLocal[3]++
162: 0x07CB [0x01] GOTO 0x07DF
163: 0x07CE [0x03] ExtData[1]->WorkLocal[21] = ExtData[1]->WorkLocal[20]
164: 0x07D3 [0x07] ExtData[1]->WorkLocal[21] += 1*
165: 0x07D8 [0x3C] SET_BIT_FLAG_CONDITIONAL(target_work_offset=ExtData[1]->WorkLocal[12], bit_index_work_offset=ExtData[1]->WorkLocal[21], condition_work_offset=1*)

SUBROUTINE_07DF:
166: 0x07DF [0x0B] ExtData[1]->WorkLocal[20]++
167: 0x07E2 [0x01] GOTO 0x07B9
168: 0x07E5 [0x02] IF !(ExtData[1]->WorkLocal[3] < 1*) GOTO 0x080B
169: 0x07ED [0x3D] CLEAR_BIT_FLAG_CONDITIONAL(target_work_offset=ExtData[1]->WorkLocal[6], bit_index_work_offset=7*, condition_work_offset=1*)
170: 0x07F4 [0x02] IF !(ExtData[1]->WorkLocal[24] == 6*) GOTO 0x080B
171: 0x07FC [0x02] IF !(ExtData[1]->WorkLocal[3] == 1*) GOTO 0x080B
172: 0x0804 [0x3C] SET_BIT_FLAG_CONDITIONAL(target_work_offset=ExtData[1]->WorkLocal[6], bit_index_work_offset=7*, condition_work_offset=1*)
173: 0x080B [0x06] ExtData[1]->WorkLocal[3] = 0
174: 0x080E [0x03] ExtData[1]->WorkLocal[1] = Work_Zone[7]
175: 0x0813 [0x02] IF !(ExtData[1]->WorkLocal[24] == 7*) GOTO 0x082C
176: 0x081B [0x03] ExtData[1]->WorkLocal[5] = ExtData[1]->WorkLocal[4]
177: 0x0820 [0x08] ExtData[1]->WorkLocal[5] -= 70*
178: 0x0825 [0x3C] SET_BIT_FLAG_CONDITIONAL(target_work_offset=ExtData[1]->WorkLocal[13], bit_index_work_offset=ExtData[1]->WorkLocal[5], condition_work_offset=1*)
179: 0x082C [0x03] ExtData[1]->WorkLocal[20] = 0*

SUBROUTINE_0831:
180: 0x0831 [0x02] IF !(ExtData[1]->WorkLocal[20] > 4*) GOTO 0x085D
181: 0x0839 [0x3E] IF !(ExtData[1]->WorkLocal[1] bit ExtData[1]->WorkLocal[20]) GOTO 0x0846
182: 0x0840 [0x0B] ExtData[1]->WorkLocal[3]++
183: 0x0843 [0x01] GOTO 0x0857
184: 0x0846 [0x03] ExtData[1]->WorkLocal[21] = ExtData[1]->WorkLocal[20]
185: 0x084B [0x07] ExtData[1]->WorkLocal[21] += 1*
186: 0x0850 [0x3C] SET_BIT_FLAG_CONDITIONAL(target_work_offset=ExtData[1]->WorkLocal[13], bit_index_work_offset=ExtData[1]->WorkLocal[21], condition_work_offset=1*)

SUBROUTINE_0857:
187: 0x0857 [0x0B] ExtData[1]->WorkLocal[20]++
188: 0x085A [0x01] GOTO 0x0831
189: 0x085D [0x02] IF !(ExtData[1]->WorkLocal[3] < 1*) GOTO 0x0883
190: 0x0865 [0x3D] CLEAR_BIT_FLAG_CONDITIONAL(target_work_offset=ExtData[1]->WorkLocal[6], bit_index_work_offset=8*, condition_work_offset=1*)
191: 0x086C [0x02] IF !(ExtData[1]->WorkLocal[24] == 7*) GOTO 0x0883
192: 0x0874 [0x02] IF !(ExtData[1]->WorkLocal[3] == 1*) GOTO 0x0883
193: 0x087C [0x3C] SET_BIT_FLAG_CONDITIONAL(target_work_offset=ExtData[1]->WorkLocal[6], bit_index_work_offset=8*, condition_work_offset=1*)
194: 0x0883 [0x06] ExtData[1]->WorkLocal[3] = 0
195: 0x0886 [0x03] ExtData[1]->WorkLocal[1] = Work_Zone[7]
196: 0x088B [0x11] ExtData[1]->WorkLocal[1] >>= 6*
197: 0x0890 [0x02] IF !(ExtData[1]->WorkLocal[24] == 8*) GOTO 0x08A9
198: 0x0898 [0x03] ExtData[1]->WorkLocal[5] = ExtData[1]->WorkLocal[4]
199: 0x089D [0x08] ExtData[1]->WorkLocal[5] -= 80*
200: 0x08A2 [0x3C] SET_BIT_FLAG_CONDITIONAL(target_work_offset=ExtData[1]->WorkLocal[14], bit_index_work_offset=ExtData[1]->WorkLocal[5], condition_work_offset=1*)
201: 0x08A9 [0x03] ExtData[1]->WorkLocal[20] = 0*

SUBROUTINE_08AE:
202: 0x08AE [0x02] IF !(ExtData[1]->WorkLocal[20] > 5*) GOTO 0x08DA
203: 0x08B6 [0x3E] IF !(ExtData[1]->WorkLocal[1] bit ExtData[1]->WorkLocal[20]) GOTO 0x08C3
204: 0x08BD [0x0B] ExtData[1]->WorkLocal[3]++
205: 0x08C0 [0x01] GOTO 0x08D4
206: 0x08C3 [0x03] ExtData[1]->WorkLocal[21] = ExtData[1]->WorkLocal[20]
207: 0x08C8 [0x07] ExtData[1]->WorkLocal[21] += 1*
208: 0x08CD [0x3C] SET_BIT_FLAG_CONDITIONAL(target_work_offset=ExtData[1]->WorkLocal[14], bit_index_work_offset=ExtData[1]->WorkLocal[21], condition_work_offset=1*)

SUBROUTINE_08D4:
209: 0x08D4 [0x0B] ExtData[1]->WorkLocal[20]++
210: 0x08D7 [0x01] GOTO 0x08AE
211: 0x08DA [0x02] IF !(ExtData[1]->WorkLocal[3] < 1*) GOTO 0x0900
212: 0x08E2 [0x3D] CLEAR_BIT_FLAG_CONDITIONAL(target_work_offset=ExtData[1]->WorkLocal[6], bit_index_work_offset=9*, condition_work_offset=1*)
213: 0x08E9 [0x02] IF !(ExtData[1]->WorkLocal[24] == 8*) GOTO 0x0900
214: 0x08F1 [0x02] IF !(ExtData[1]->WorkLocal[3] == 1*) GOTO 0x0900
215: 0x08F9 [0x3C] SET_BIT_FLAG_CONDITIONAL(target_work_offset=ExtData[1]->WorkLocal[6], bit_index_work_offset=9*, condition_work_offset=1*)
216: 0x0900 [0x06] ExtData[1]->WorkLocal[3] = 0
217: 0x0903 [0x03] ExtData[1]->WorkLocal[1] = Work_Zone[8]
218: 0x0908 [0x11] ExtData[1]->WorkLocal[1] >>= 6*
219: 0x090D [0x02] IF !(ExtData[1]->WorkLocal[24] == 9*) GOTO 0x0926
220: 0x0915 [0x03] ExtData[1]->WorkLocal[5] = ExtData[1]->WorkLocal[4]
221: 0x091A [0x08] ExtData[1]->WorkLocal[5] -= 90*
222: 0x091F [0x3C] SET_BIT_FLAG_CONDITIONAL(target_work_offset=ExtData[1]->WorkLocal[15], bit_index_work_offset=ExtData[1]->WorkLocal[5], condition_work_offset=1*)
223: 0x0926 [0x03] ExtData[1]->WorkLocal[20] = 0*

SUBROUTINE_092B:
224: 0x092B [0x02] IF !(ExtData[1]->WorkLocal[20] > 5*) GOTO 0x0957
225: 0x0933 [0x3E] IF !(ExtData[1]->WorkLocal[1] bit ExtData[1]->WorkLocal[20]) GOTO 0x0940
226: 0x093A [0x0B] ExtData[1]->WorkLocal[3]++
227: 0x093D [0x01] GOTO 0x0951
228: 0x0940 [0x03] ExtData[1]->WorkLocal[21] = ExtData[1]->WorkLocal[20]
229: 0x0945 [0x07] ExtData[1]->WorkLocal[21] += 1*
230: 0x094A [0x3C] SET_BIT_FLAG_CONDITIONAL(target_work_offset=ExtData[1]->WorkLocal[15], bit_index_work_offset=ExtData[1]->WorkLocal[21], condition_work_offset=1*)

SUBROUTINE_0951:
231: 0x0951 [0x0B] ExtData[1]->WorkLocal[20]++
232: 0x0954 [0x01] GOTO 0x092B
233: 0x0957 [0x02] IF !(ExtData[1]->WorkLocal[3] < 1*) GOTO 0x097D
234: 0x095F [0x3D] CLEAR_BIT_FLAG_CONDITIONAL(target_work_offset=ExtData[1]->WorkLocal[6], bit_index_work_offset=10*, condition_work_offset=1*)
235: 0x0966 [0x02] IF !(ExtData[1]->WorkLocal[24] == 9*) GOTO 0x097D
236: 0x096E [0x02] IF !(ExtData[1]->WorkLocal[3] == 1*) GOTO 0x097D
237: 0x0976 [0x3C] SET_BIT_FLAG_CONDITIONAL(target_work_offset=ExtData[1]->WorkLocal[6], bit_index_work_offset=10*, condition_work_offset=1*)
238: 0x097D [0x06] ExtData[1]->WorkLocal[3] = 0
239: 0x0980 [0x03] ExtData[1]->WorkLocal[1] = Work_Zone[8]
240: 0x0985 [0x03] ExtData[1]->WorkLocal[20] = 0*

SUBROUTINE_098A:
241: 0x098A [0x02] IF !(ExtData[1]->WorkLocal[20] > 5*) GOTO 0x09B6
242: 0x0992 [0x3E] IF !(ExtData[1]->WorkLocal[1] bit ExtData[1]->WorkLocal[20]) GOTO 0x099F
243: 0x0999 [0x0B] ExtData[1]->WorkLocal[3]++
244: 0x099C [0x01] GOTO 0x09B0
245: 0x099F [0x03] ExtData[1]->WorkLocal[21] = ExtData[1]->WorkLocal[20]
246: 0x09A4 [0x07] ExtData[1]->WorkLocal[21] += 1*
247: 0x09A9 [0x3C] SET_BIT_FLAG_CONDITIONAL(target_work_offset=ExtData[1]->WorkLocal[16], bit_index_work_offset=ExtData[1]->WorkLocal[21], condition_work_offset=1*)

SUBROUTINE_09B0:
248: 0x09B0 [0x0B] ExtData[1]->WorkLocal[20]++
249: 0x09B3 [0x01] GOTO 0x098A
250: 0x09B6 [0x02] IF !(ExtData[1]->WorkLocal[3] < 1*) GOTO 0x09C5
251: 0x09BE [0x3D] CLEAR_BIT_FLAG_CONDITIONAL(target_work_offset=ExtData[1]->WorkLocal[6], bit_index_work_offset=12*, condition_work_offset=1*)
252: 0x09C5 [0x02] IF !(ExtData[1]->WorkLocal[17] == 4294967294*) GOTO 0x09D4
253: 0x09CD [0x3D] CLEAR_BIT_FLAG_CONDITIONAL(target_work_offset=ExtData[1]->WorkLocal[6], bit_index_work_offset=13*, condition_work_offset=1*)
254: 0x09D4 [0x02] IF !(ExtData[1]->WorkLocal[24] == 3*) GOTO 0x0A1B
255: 0x09DC [0x3C] SET_BIT_FLAG_CONDITIONAL(target_work_offset=ExtData[1]->WorkLocal[6], bit_index_work_offset=5*, condition_work_offset=1*)
256: 0x09E3 [0x3C] SET_BIT_FLAG_CONDITIONAL(target_work_offset=ExtData[1]->WorkLocal[6], bit_index_work_offset=6*, condition_work_offset=1*)
257: 0x09EA [0x3C] SET_BIT_FLAG_CONDITIONAL(target_work_offset=ExtData[1]->WorkLocal[6], bit_index_work_offset=7*, condition_work_offset=1*)
258: 0x09F1 [0x3C] SET_BIT_FLAG_CONDITIONAL(target_work_offset=ExtData[1]->WorkLocal[6], bit_index_work_offset=8*, condition_work_offset=1*)
259: 0x09F8 [0x3C] SET_BIT_FLAG_CONDITIONAL(target_work_offset=ExtData[1]->WorkLocal[6], bit_index_work_offset=9*, condition_work_offset=1*)
260: 0x09FF [0x3C] SET_BIT_FLAG_CONDITIONAL(target_work_offset=ExtData[1]->WorkLocal[6], bit_index_work_offset=10*, condition_work_offset=1*)
261: 0x0A06 [0x3C] SET_BIT_FLAG_CONDITIONAL(target_work_offset=ExtData[1]->WorkLocal[6], bit_index_work_offset=11*, condition_work_offset=1*)
262: 0x0A0D [0x3C] SET_BIT_FLAG_CONDITIONAL(target_work_offset=ExtData[1]->WorkLocal[6], bit_index_work_offset=12*, condition_work_offset=1*)
263: 0x0A14 [0x3C] SET_BIT_FLAG_CONDITIONAL(target_work_offset=ExtData[1]->WorkLocal[6], bit_index_work_offset=13*, condition_work_offset=1*)
264: 0x0A1B [0x02] IF !(ExtData[1]->WorkLocal[24] == 4*) GOTO 0x0A62
265: 0x0A23 [0x3C] SET_BIT_FLAG_CONDITIONAL(target_work_offset=ExtData[1]->WorkLocal[6], bit_index_work_offset=4*, condition_work_offset=1*)
266: 0x0A2A [0x3C] SET_BIT_FLAG_CONDITIONAL(target_work_offset=ExtData[1]->WorkLocal[6], bit_index_work_offset=6*, condition_work_offset=1*)
267: 0x0A31 [0x3C] SET_BIT_FLAG_CONDITIONAL(target_work_offset=ExtData[1]->WorkLocal[6], bit_index_work_offset=7*, condition_work_offset=1*)
268: 0x0A38 [0x3C] SET_BIT_FLAG_CONDITIONAL(target_work_offset=ExtData[1]->WorkLocal[6], bit_index_work_offset=8*, condition_work_offset=1*)
269: 0x0A3F [0x3C] SET_BIT_FLAG_CONDITIONAL(target_work_offset=ExtData[1]->WorkLocal[6], bit_index_work_offset=9*, condition_work_offset=1*)
270: 0x0A46 [0x3C] SET_BIT_FLAG_CONDITIONAL(target_work_offset=ExtData[1]->WorkLocal[6], bit_index_work_offset=10*, condition_work_offset=1*)
271: 0x0A4D [0x3C] SET_BIT_FLAG_CONDITIONAL(target_work_offset=ExtData[1]->WorkLocal[6], bit_index_work_offset=11*, condition_work_offset=1*)
272: 0x0A54 [0x3C] SET_BIT_FLAG_CONDITIONAL(target_work_offset=ExtData[1]->WorkLocal[6], bit_index_work_offset=12*, condition_work_offset=1*)
273: 0x0A5B [0x3C] SET_BIT_FLAG_CONDITIONAL(target_work_offset=ExtData[1]->WorkLocal[6], bit_index_work_offset=13*, condition_work_offset=1*)
274: 0x0A62 [0x02] IF !(ExtData[1]->WorkLocal[24] == 5*) GOTO 0x0AA9
275: 0x0A6A [0x3C] SET_BIT_FLAG_CONDITIONAL(target_work_offset=ExtData[1]->WorkLocal[6], bit_index_work_offset=4*, condition_work_offset=1*)
276: 0x0A71 [0x3C] SET_BIT_FLAG_CONDITIONAL(target_work_offset=ExtData[1]->WorkLocal[6], bit_index_work_offset=5*, condition_work_offset=1*)
277: 0x0A78 [0x3C] SET_BIT_FLAG_CONDITIONAL(target_work_offset=ExtData[1]->WorkLocal[6], bit_index_work_offset=7*, condition_work_offset=1*)
278: 0x0A7F [0x3C] SET_BIT_FLAG_CONDITIONAL(target_work_offset=ExtData[1]->WorkLocal[6], bit_index_work_offset=8*, condition_work_offset=1*)
279: 0x0A86 [0x3C] SET_BIT_FLAG_CONDITIONAL(target_work_offset=ExtData[1]->WorkLocal[6], bit_index_work_offset=9*, condition_work_offset=1*)
280: 0x0A8D [0x3C] SET_BIT_FLAG_CONDITIONAL(target_work_offset=ExtData[1]->WorkLocal[6], bit_index_work_offset=10*, condition_work_offset=1*)
281: 0x0A94 [0x3C] SET_BIT_FLAG_CONDITIONAL(target_work_offset=ExtData[1]->WorkLocal[6], bit_index_work_offset=11*, condition_work_offset=1*)
282: 0x0A9B [0x3C] SET_BIT_FLAG_CONDITIONAL(target_work_offset=ExtData[1]->WorkLocal[6], bit_index_work_offset=12*, condition_work_offset=1*)
283: 0x0AA2 [0x3C] SET_BIT_FLAG_CONDITIONAL(target_work_offset=ExtData[1]->WorkLocal[6], bit_index_work_offset=13*, condition_work_offset=1*)
284: 0x0AA9 [0x02] IF !(ExtData[1]->WorkLocal[24] == 6*) GOTO 0x0AF0
285: 0x0AB1 [0x3C] SET_BIT_FLAG_CONDITIONAL(target_work_offset=ExtData[1]->WorkLocal[6], bit_index_work_offset=4*, condition_work_offset=1*)
286: 0x0AB8 [0x3C] SET_BIT_FLAG_CONDITIONAL(target_work_offset=ExtData[1]->WorkLocal[6], bit_index_work_offset=5*, condition_work_offset=1*)
287: 0x0ABF [0x3C] SET_BIT_FLAG_CONDITIONAL(target_work_offset=ExtData[1]->WorkLocal[6], bit_index_work_offset=6*, condition_work_offset=1*)
288: 0x0AC6 [0x3C] SET_BIT_FLAG_CONDITIONAL(target_work_offset=ExtData[1]->WorkLocal[6], bit_index_work_offset=8*, condition_work_offset=1*)
289: 0x0ACD [0x3C] SET_BIT_FLAG_CONDITIONAL(target_work_offset=ExtData[1]->WorkLocal[6], bit_index_work_offset=9*, condition_work_offset=1*)
290: 0x0AD4 [0x3C] SET_BIT_FLAG_CONDITIONAL(target_work_offset=ExtData[1]->WorkLocal[6], bit_index_work_offset=10*, condition_work_offset=1*)
291: 0x0ADB [0x3C] SET_BIT_FLAG_CONDITIONAL(target_work_offset=ExtData[1]->WorkLocal[6], bit_index_work_offset=11*, condition_work_offset=1*)
292: 0x0AE2 [0x3C] SET_BIT_FLAG_CONDITIONAL(target_work_offset=ExtData[1]->WorkLocal[6], bit_index_work_offset=12*, condition_work_offset=1*)
293: 0x0AE9 [0x3C] SET_BIT_FLAG_CONDITIONAL(target_work_offset=ExtData[1]->WorkLocal[6], bit_index_work_offset=13*, condition_work_offset=1*)
294: 0x0AF0 [0x02] IF !(ExtData[1]->WorkLocal[24] == 7*) GOTO 0x0B37
295: 0x0AF8 [0x3C] SET_BIT_FLAG_CONDITIONAL(target_work_offset=ExtData[1]->WorkLocal[6], bit_index_work_offset=4*, condition_work_offset=1*)
296: 0x0AFF [0x3C] SET_BIT_FLAG_CONDITIONAL(target_work_offset=ExtData[1]->WorkLocal[6], bit_index_work_offset=5*, condition_work_offset=1*)
297: 0x0B06 [0x3C] SET_BIT_FLAG_CONDITIONAL(target_work_offset=ExtData[1]->WorkLocal[6], bit_index_work_offset=6*, condition_work_offset=1*)
298: 0x0B0D [0x3C] SET_BIT_FLAG_CONDITIONAL(target_work_offset=ExtData[1]->WorkLocal[6], bit_index_work_offset=7*, condition_work_offset=1*)
299: 0x0B14 [0x3C] SET_BIT_FLAG_CONDITIONAL(target_work_offset=ExtData[1]->WorkLocal[6], bit_index_work_offset=9*, condition_work_offset=1*)
300: 0x0B1B [0x3C] SET_BIT_FLAG_CONDITIONAL(target_work_offset=ExtData[1]->WorkLocal[6], bit_index_work_offset=10*, condition_work_offset=1*)
301: 0x0B22 [0x3C] SET_BIT_FLAG_CONDITIONAL(target_work_offset=ExtData[1]->WorkLocal[6], bit_index_work_offset=11*, condition_work_offset=1*)
302: 0x0B29 [0x3C] SET_BIT_FLAG_CONDITIONAL(target_work_offset=ExtData[1]->WorkLocal[6], bit_index_work_offset=12*, condition_work_offset=1*)
303: 0x0B30 [0x3C] SET_BIT_FLAG_CONDITIONAL(target_work_offset=ExtData[1]->WorkLocal[6], bit_index_work_offset=13*, condition_work_offset=1*)
304: 0x0B37 [0x02] IF !(ExtData[1]->WorkLocal[24] == 8*) GOTO 0x0B7E
305: 0x0B3F [0x3C] SET_BIT_FLAG_CONDITIONAL(target_work_offset=ExtData[1]->WorkLocal[6], bit_index_work_offset=4*, condition_work_offset=1*)
306: 0x0B46 [0x3C] SET_BIT_FLAG_CONDITIONAL(target_work_offset=ExtData[1]->WorkLocal[6], bit_index_work_offset=5*, condition_work_offset=1*)
307: 0x0B4D [0x3C] SET_BIT_FLAG_CONDITIONAL(target_work_offset=ExtData[1]->WorkLocal[6], bit_index_work_offset=6*, condition_work_offset=1*)
308: 0x0B54 [0x3C] SET_BIT_FLAG_CONDITIONAL(target_work_offset=ExtData[1]->WorkLocal[6], bit_index_work_offset=7*, condition_work_offset=1*)
309: 0x0B5B [0x3C] SET_BIT_FLAG_CONDITIONAL(target_work_offset=ExtData[1]->WorkLocal[6], bit_index_work_offset=8*, condition_work_offset=1*)
310: 0x0B62 [0x3C] SET_BIT_FLAG_CONDITIONAL(target_work_offset=ExtData[1]->WorkLocal[6], bit_index_work_offset=10*, condition_work_offset=1*)
311: 0x0B69 [0x3C] SET_BIT_FLAG_CONDITIONAL(target_work_offset=ExtData[1]->WorkLocal[6], bit_index_work_offset=11*, condition_work_offset=1*)
312: 0x0B70 [0x3C] SET_BIT_FLAG_CONDITIONAL(target_work_offset=ExtData[1]->WorkLocal[6], bit_index_work_offset=12*, condition_work_offset=1*)
313: 0x0B77 [0x3C] SET_BIT_FLAG_CONDITIONAL(target_work_offset=ExtData[1]->WorkLocal[6], bit_index_work_offset=13*, condition_work_offset=1*)
314: 0x0B7E [0x02] IF !(ExtData[1]->WorkLocal[24] == 9*) GOTO 0x0BC5
315: 0x0B86 [0x3C] SET_BIT_FLAG_CONDITIONAL(target_work_offset=ExtData[1]->WorkLocal[6], bit_index_work_offset=4*, condition_work_offset=1*)
316: 0x0B8D [0x3C] SET_BIT_FLAG_CONDITIONAL(target_work_offset=ExtData[1]->WorkLocal[6], bit_index_work_offset=5*, condition_work_offset=1*)
317: 0x0B94 [0x3C] SET_BIT_FLAG_CONDITIONAL(target_work_offset=ExtData[1]->WorkLocal[6], bit_index_work_offset=6*, condition_work_offset=1*)
318: 0x0B9B [0x3C] SET_BIT_FLAG_CONDITIONAL(target_work_offset=ExtData[1]->WorkLocal[6], bit_index_work_offset=7*, condition_work_offset=1*)
319: 0x0BA2 [0x3C] SET_BIT_FLAG_CONDITIONAL(target_work_offset=ExtData[1]->WorkLocal[6], bit_index_work_offset=8*, condition_work_offset=1*)
320: 0x0BA9 [0x3C] SET_BIT_FLAG_CONDITIONAL(target_work_offset=ExtData[1]->WorkLocal[6], bit_index_work_offset=9*, condition_work_offset=1*)
321: 0x0BB0 [0x3C] SET_BIT_FLAG_CONDITIONAL(target_work_offset=ExtData[1]->WorkLocal[6], bit_index_work_offset=11*, condition_work_offset=1*)
322: 0x0BB7 [0x3C] SET_BIT_FLAG_CONDITIONAL(target_work_offset=ExtData[1]->WorkLocal[6], bit_index_work_offset=12*, condition_work_offset=1*)
323: 0x0BBE [0x3C] SET_BIT_FLAG_CONDITIONAL(target_work_offset=ExtData[1]->WorkLocal[6], bit_index_work_offset=13*, condition_work_offset=1*)
324: 0x0BC5 [0x02] IF !(ExtData[1]->WorkLocal[24] == 10*) GOTO 0x0C13
325: 0x0BCD [0x3C] SET_BIT_FLAG_CONDITIONAL(target_work_offset=ExtData[1]->WorkLocal[6], bit_index_work_offset=4*, condition_work_offset=1*)
326: 0x0BD4 [0x3C] SET_BIT_FLAG_CONDITIONAL(target_work_offset=ExtData[1]->WorkLocal[6], bit_index_work_offset=5*, condition_work_offset=1*)
327: 0x0BDB [0x3C] SET_BIT_FLAG_CONDITIONAL(target_work_offset=ExtData[1]->WorkLocal[6], bit_index_work_offset=6*, condition_work_offset=1*)
328: 0x0BE2 [0x3C] SET_BIT_FLAG_CONDITIONAL(target_work_offset=ExtData[1]->WorkLocal[6], bit_index_work_offset=7*, condition_work_offset=1*)
329: 0x0BE9 [0x3C] SET_BIT_FLAG_CONDITIONAL(target_work_offset=ExtData[1]->WorkLocal[6], bit_index_work_offset=8*, condition_work_offset=1*)
330: 0x0BF0 [0x3C] SET_BIT_FLAG_CONDITIONAL(target_work_offset=ExtData[1]->WorkLocal[6], bit_index_work_offset=9*, condition_work_offset=1*)
331: 0x0BF7 [0x3C] SET_BIT_FLAG_CONDITIONAL(target_work_offset=ExtData[1]->WorkLocal[6], bit_index_work_offset=10*, condition_work_offset=1*)
332: 0x0BFE [0x3C] SET_BIT_FLAG_CONDITIONAL(target_work_offset=ExtData[1]->WorkLocal[6], bit_index_work_offset=11*, condition_work_offset=1*)
333: 0x0C05 [0x3C] SET_BIT_FLAG_CONDITIONAL(target_work_offset=ExtData[1]->WorkLocal[6], bit_index_work_offset=12*, condition_work_offset=1*)
334: 0x0C0C [0x3C] SET_BIT_FLAG_CONDITIONAL(target_work_offset=ExtData[1]->WorkLocal[6], bit_index_work_offset=13*, condition_work_offset=1*)
335: 0x0C13 [0x02] IF !(ExtData[1]->WorkLocal[2] >= 1*) GOTO 0x0D22
336: 0x0C1B [0x02] IF !(ExtData[1]->WorkLocal[28] == 1*) GOTO 0x0C26
337: 0x0C23 [0x01] GOTO 0x0C27
338: 0x0C26 [0x42] SET_CLI_EVENT_CANCEL_DATA()

SUBROUTINE_0C27:
339: 0x0C27 [0x1A] CALL_SUBROUTINE(address=0x236E)

SUBROUTINE_0C2A:
340: 0x0C2A [0x02] IF !(ExtData[1]->WorkLocal[22] == 0*) GOTO 0x0D1F
341: 0x0C32 [0x03] ExtData[1]->WorkLocal[25] = 1*
342: 0x0C37 [0x03] Work_Zone[5] = ExtData[1]->WorkLocal[27]
343: 0x0C3C [0x1A] CALL_SUBROUTINE(address=0x1535)
344: 0x0C3F [0x06] ExtData[1]->WorkLocal[18] = 0
345: 0x0C42 [0x02] IF !(ExtData[1]->WorkLocal[28] == 0*) GOTO 0x0C5B
346: 0x0C4A [0x3D] CLEAR_BIT_FLAG_CONDITIONAL(target_work_offset=ExtData[1]->WorkLocal[18], bit_index_work_offset=3*, condition_work_offset=1*)
347: 0x0C51 [0x3C] SET_BIT_FLAG_CONDITIONAL(target_work_offset=ExtData[1]->WorkLocal[18], bit_index_work_offset=4*, condition_work_offset=1*)
348: 0x0C58 [0x01] GOTO 0x0C69
349: 0x0C5B [0x3C] SET_BIT_FLAG_CONDITIONAL(target_work_offset=ExtData[1]->WorkLocal[18], bit_index_work_offset=3*, condition_work_offset=1*)
350: 0x0C62 [0x3D] CLEAR_BIT_FLAG_CONDITIONAL(target_work_offset=ExtData[1]->WorkLocal[18], bit_index_work_offset=4*, condition_work_offset=1*)

SUBROUTINE_0C69:
351: 0x0C69 [0x24] CREATE_DIALOG(message_id=10350*, default_option=0*, option_flags=ExtData[1]->WorkLocal[18])
    → "What will you do? (Kinetic Units: $3) [Nothing./Read an explanation./Go to Western Adoulin. ($4 unit[/s])/Decline destination confirmation./Accept destination confirmation.]"
352: 0x0C70 [0x25] WAIT_DIALOG_SELECT()
353: 0x0C71 [0x02] IF !(Work_Zone[0] == 0*) GOTO 0x0C8C
354: 0x0C79 [0x03] ExtData[1]->WorkLocal[25] = 0*
