# 17780740 - Prishe

## Common Data

| Field            | Value                 |
|------------------|-----------------------|
| Zone             | Lower Jeuno (ID: 245) |
| Block Size       | 1284 bytes            |
| Total Events     | 36                    |
| References Count | 36                    |

## List of Events

| Event ID                   | Entrypoint   |   Size |   Instructions |
|----------------------------|--------------|--------|----------------|
| [65535](#event-65535)      | 0x0000       |     13 |              3 |
| [86](#event-86)            | 0x000D       |    120 |             21 |
| [65535.1](#event-655351)   | 0x0085       |     20 |              3 |
| [65535.2](#event-655352)   | 0x0099       |     44 |              9 |
| [65535.3](#event-655353)   | 0x00C5       |     14 |              4 |
| [65535.4](#event-655354)   | 0x00D3       |     20 |              6 |
| [65535.5](#event-655355)   | 0x00E7       |     54 |             11 |
| [65535.6](#event-655356)   | 0x011D       |     19 |              3 |
| [65535.7](#event-655357)   | 0x0130       |     29 |              3 |
| [65535.8](#event-655358)   | 0x014D       |     29 |              3 |
| [65535.9](#event-655359)   | 0x016A       |     19 |              3 |
| [65535.10](#event-6553510) | 0x017D       |     29 |              3 |
| [65535.11](#event-6553511) | 0x019A       |     16 |              2 |
| [65535.12](#event-6553512) | 0x01AA       |     29 |              3 |
| [65535.13](#event-6553513) | 0x01C7       |     29 |              3 |
| [65535.14](#event-6553514) | 0x01E4       |     29 |              3 |
| [65535.15](#event-6553515) | 0x0201       |     29 |              3 |
| [65535.16](#event-6553516) | 0x021E       |     29 |              3 |
| [65535.17](#event-6553517) | 0x023B       |     19 |              3 |
| [65535.18](#event-6553518) | 0x024E       |     29 |              3 |
| [65535.19](#event-6553519) | 0x026B       |     29 |              3 |
| [65535.20](#event-6553520) | 0x0288       |     29 |              3 |
| [65535.21](#event-6553521) | 0x02A5       |     16 |              2 |
| [65535.22](#event-6553522) | 0x02B5       |     29 |              3 |
| [65535.23](#event-6553523) | 0x02D2       |     16 |              2 |
| [65535.24](#event-6553524) | 0x02E2       |     29 |              3 |
| [65535.25](#event-6553525) | 0x02FF       |     16 |              2 |
| [65535.26](#event-6553526) | 0x030F       |     29 |              3 |
| [65535.27](#event-6553527) | 0x032C       |     16 |              2 |
| [65535.28](#event-6553528) | 0x033C       |     29 |              3 |
| [65535.29](#event-6553529) | 0x0359       |     29 |              3 |
| [65535.30](#event-6553530) | 0x0376       |     29 |              3 |
| [65535.31](#event-6553531) | 0x0393       |     16 |              2 |
| [65535.32](#event-6553532) | 0x03A3       |     16 |              2 |
| [65535.33](#event-6553533) | 0x03B3       |     29 |              3 |
| [65535.34](#event-6553534) | 0x03D0       |      1 |              1 |

## DAT References (imed_data)

|   Index | Hex Value   |   Dec Value |
|---------|-------------|-------------|
|       0 | 0xA29B      |       41627 |
|       1 | 0xFFFFAC80  |  4294945920 |
|       2 | 0xFFFFFF9D  |  4294967197 |
|       3 | 0x0958      |        2392 |
|       4 | 0x01F4      |         500 |
|       5 | 0x000A      |          10 |
|       6 | 0x0271      |         625 |
|       7 | 0x4915      |       18709 |
|       8 | 0xFFFF179B  |  4294907803 |
|       9 | 0x0F1D      |        3869 |
|      10 | 0x0BB1      |        2993 |
|      11 | 0x0078      |         120 |
|      12 | 0x0012      |          18 |
|      13 | 0x4B41      |       19265 |
|      14 | 0xFFFF1EFB  |  4294909691 |
|      15 | 0x01DF      |         479 |
|      16 | 0x0036      |          54 |
|      17 | 0x41C6      |       16838 |
|      18 | 0xFFFF2612  |  4294911506 |
|      19 | 0x4647      |       17991 |
|      20 | 0xFFFF3000  |  4294914048 |
|      21 | 0x0F3B      |        3899 |
|      22 | 0x026D      |         621 |
|      23 | 0x0096      |         150 |
|      24 | 0x49FD      |       18941 |
|      25 | 0xFFFF3790  |  4294915984 |
|      26 | 0x0F3D      |        3901 |
|      27 | 0x4FFE      |       20478 |
|      28 | 0xFFFF38D9  |  4294916313 |
|      29 | 0x5F1F      |       24351 |
|      30 | 0xFFFF328D  |  4294914701 |
|      31 | 0x005A      |          90 |
|      32 | 0x003C      |          60 |
|      33 | 0x01DB      |         475 |
|      34 | 0x01E1      |         481 |
|      35 | 0x01DD      |         477 |

## Events

### Event 65535

#### Metadata

| Field        | Value    |
|--------------|----------|
| Entrypoint   | 0x0000   |
| Data Size    | 13 bytes |
| Instructions | 3        |

```
      00 01 02 03 04 05 06 07  08 09 0A 0B 0C 0D 0E 0F
      -- -- -- -- -- -- -- --  -- -- -- -- -- -- -- --
0000: 92 01 F8 FF FF 7F 94 01  F8 FF FF 7F 00           .............   
```

#### Opcodes

```
  0: 0x0000 [0x92] EventEntity->Render.Flags3 ^= 0x01
  1: 0x0006 [0x94] EventEntity->Render.Flags3 ^= 0x01
  2: 0x000C [0x00] END_REQSTACK()
```

### Event 86

#### Metadata

| Field        | Value     |
|--------------|-----------|
| Entrypoint   | 0x000D    |
| Data Size    | 120 bytes |
| Instructions | 16        |

```
      00 01 02 03 04 05 06 07  08 09 0A 0B 0C 0D 0E 0F
      -- -- -- -- -- -- -- --  -- -- -- -- -- -- -- --
0000:                                         37 00 80               7..
0010: 01 80 02 80 03 80 03 00  00 04 80 1A 41 00 37 01  ............A.7.
0020: 00 02 00 03 00 04 00 A5  01 80 F8 FF FF 7F 1C 05  ................
0030: 80 5B 06 80 F8 FF FF 7F  F8 FF FF 7F 6B 62 65 6C  .[..........kbel
0040: 00 3B F8 FF FF 7F 01 00  02 00 03 00 3A F8 FF FF  .;..........:...
0050: 7F 04 00 17 05 00 04 00  00 00 16 06 00 04 00 00  ................
0060: 00 07 01 00 05 00 07 02  00 06 00 1B 17 05 00 04  ................
0070: 00 00 00 16 06 00 04 00  00 00 07 01 00 05 00 07  ................
0080: 02 00 06 00 1B                                    .....           
```

#### Opcodes

```
  0: 0x000D [0x37] UPDATE_EVENT_POSITION_AND_DIR: x=41.627*, z=-21.376*, y=-0.099*, direction=210.2°*
  1: 0x0016 [0x03] ExtData[1]->WorkLocal[0] = 500*
  2: 0x001B [0x1A] CALL_SUBROUTINE(address=0x0041)
  3: 0x001E [0x37] UPDATE_EVENT_POSITION_AND_DIR: x=ExtData[1]->WorkLocal[1], z=ExtData[1]->WorkLocal[2], y=ExtData[1]->WorkLocal[3], direction=ExtData[1]->WorkLocal[4]
  4: 0x0027 [0xA5] EventEntity->Flags3.BallistaTeam |= 0x08  // Set bit 3 of BallistaTeam
  5: 0x0029 [0x80] LOAD_WAIT(entity=EventEntity)
  6: 0x002E [0x1C] WAIT(10* ticks)
  7: 0x0031 [0x5B] LOAD_EXT_SCHEDULER: Load scheduler "kbel" with entities [EventEntity, EventEntity], work=625*
  8: 0x0040 [0x00] END_REQSTACK()

SUBROUTINE_0041:
  9: 0x0041 [0x3B] GET_ENTITY_POSITION(entity=EventEntity, x_destination=ExtData[1]->WorkLocal[1], y_destination=ExtData[1]->WorkLocal[2], z_destination=ExtData[1]->WorkLocal[3])
 10: 0x004C [0x3A] CONVERT_YAW_TO_BYTE(entity=EventEntity, result_destination=ExtData[1]->WorkLocal[4])
 11: 0x0053 [0x17] ExtData[1]->WorkLocal[5] = cos(ExtData[1]->WorkLocal[4]) * ExtData[1]->WorkLocal[0]
 12: 0x005A [0x16] ExtData[1]->WorkLocal[6] = sin(ExtData[1]->WorkLocal[4]) * ExtData[1]->WorkLocal[0]
 13: 0x0061 [0x07] ExtData[1]->WorkLocal[1] += ExtData[1]->WorkLocal[5]
 14: 0x0066 [0x07] ExtData[1]->WorkLocal[2] += ExtData[1]->WorkLocal[6]
 15: 0x006B [0x1B] RETURN
```

#### Data or dead code:

```
# Dead code (unreachable instructions):
     0x006C [0x17] ExtData[1]->WorkLocal[5] = cos(ExtData[1]->WorkLocal[4]) * ExtData[1]->WorkLocal[0]
     0x0073 [0x16] ExtData[1]->WorkLocal[6] = sin(ExtData[1]->WorkLocal[4]) * ExtData[1]->WorkLocal[0]
     0x007A [0x07] ExtData[1]->WorkLocal[1] += ExtData[1]->WorkLocal[5]
     0x007F [0x07] ExtData[1]->WorkLocal[2] += ExtData[1]->WorkLocal[6]
     0x0084 [0x1B] RETURN
```

### Event 65535.1

#### Metadata

| Field        | Value    |
|--------------|----------|
| Entrypoint   | 0x0085   |
| Data Size    | 20 bytes |
| Instructions | 3        |

```
      00 01 02 03 04 05 06 07  08 09 0A 0B 0C 0D 0E 0F
      -- -- -- -- -- -- -- --  -- -- -- -- -- -- -- --
0080:                79 00 F8  FF FF 7F F0 FF FF 7F 37       y.........7
0090: 07 80 08 80 09 80 0A 80  00                       .........       
```

#### Opcodes

```
  0: 0x0085 [0x79] EventEntity looks at LocalPlayer (Basic look)
  1: 0x008F [0x37] UPDATE_EVENT_POSITION_AND_DIR: x=18.709*, z=-59.493*, y=3.869*, direction=263.0°*
  2: 0x0098 [0x00] END_REQSTACK()
```

### Event 65535.2

#### Metadata

| Field        | Value    |
|--------------|----------|
| Entrypoint   | 0x0099   |
| Data Size    | 44 bytes |
| Instructions | 9        |

```
      00 01 02 03 04 05 06 07  08 09 0A 0B 0C 0D 0E 0F
      -- -- -- -- -- -- -- --  -- -- -- -- -- -- -- --
0090:                             1C 0B 80 32 0C 80 1F           ...2...
00A0: 00 0D 80 0E 80 09 80 1F  01 6F 86 01 F8 FF FF 7F  .........o......
00B0: 1E F0 FF FF 7F 5B 0F 80  F8 FF FF 7F F8 FF FF 7F  .....[..........
00C0: 74 6C 66 30 00                                    tlf0.           
```

#### Opcodes

```
  0: 0x0099 [0x1C] WAIT(120* ticks)
  1: 0x009C [0x32] ExtData[1]->MainSpeed = 18* * 0.1
  2: 0x009F [0x1F] MOVE_ENTITY: EventEntity moves to X=19.265*, Z=-57.605*, Y=3.869*
  3: 0x00A7 [0x1F] MOVE_ENTITY: Update entity position (mode=1)
  4: 0x00A9 [0x6F] WAIT_FRAME_DELAY: Yield until WaitTime reaches zero
  5: 0x00AA [0x86] EventEntity->Render.Flags3 ^= 0x01
  6: 0x00B0 [0x1E] EventEntity looks at LocalPlayer and starts talking
  7: 0x00B5 [0x5B] LOAD_EXT_SCHEDULER: Load scheduler "tlf0" with entities [EventEntity, EventEntity], work=479*
  8: 0x00C4 [0x00] END_REQSTACK()
```

### Event 65535.3

#### Metadata

| Field        | Value    |
|--------------|----------|
| Entrypoint   | 0x00C5   |
| Data Size    | 14 bytes |
| Instructions | 4        |

```
      00 01 02 03 04 05 06 07  08 09 0A 0B 0C 0D 0E 0F
      -- -- -- -- -- -- -- --  -- -- -- -- -- -- -- --
00C0:                32 10 80  1F 00 11 80 12 80 09 80       2..........
00D0: 1F 01 00                                          ...             
```

#### Opcodes

```
  0: 0x00C5 [0x32] ExtData[1]->MainSpeed = 54* * 0.1
  1: 0x00C8 [0x1F] MOVE_ENTITY: EventEntity moves to X=16.838*, Z=-55.790*, Y=3.869*
  2: 0x00D0 [0x1F] MOVE_ENTITY: Update entity position (mode=1)
  3: 0x00D2 [0x00] END_REQSTACK()
```

### Event 65535.4

#### Metadata

| Field        | Value    |
|--------------|----------|
| Entrypoint   | 0x00D3   |
| Data Size    | 20 bytes |
| Instructions | 6        |

```
      00 01 02 03 04 05 06 07  08 09 0A 0B 0C 0D 0E 0F
      -- -- -- -- -- -- -- --  -- -- -- -- -- -- -- --
00D0:          32 10 80 1F 00  13 80 14 80 15 80 1F 01     2............
00E0: 6F 1E 07 50 0F 01 00                              o..P...         
```

#### Opcodes

```
  0: 0x00D3 [0x32] ExtData[1]->MainSpeed = 54* * 0.1
  1: 0x00D6 [0x1F] MOVE_ENTITY: EventEntity moves to X=17.991*, Z=-53.248*, Y=3.899*
  2: 0x00DE [0x1F] MOVE_ENTITY: Update entity position (mode=1)
  3: 0x00E0 [0x6F] WAIT_FRAME_DELAY: Yield until WaitTime reaches zero
  4: 0x00E1 [0x1E] EventEntity looks at Aldo (ID: 17780743/0x010F5007) and starts talking
  5: 0x00E6 [0x00] END_REQSTACK()
```

### Event 65535.5

#### Metadata

| Field        | Value    |
|--------------|----------|
| Entrypoint   | 0x00E7   |
| Data Size    | 54 bytes |
| Instructions | 11       |

```
      00 01 02 03 04 05 06 07  08 09 0A 0B 0C 0D 0E 0F
      -- -- -- -- -- -- -- --  -- -- -- -- -- -- -- --
00E0:                      32  10 80 5B 16 80 F8 FF FF         2..[.....
00F0: 7F F8 FF FF 7F 6A 6E 61  30 1C 17 80 1F 00 18 80  .....jna0.......
0100: 19 80 1A 80 1F 01 1F 00  1B 80 1C 80 1A 80 1F 01  ................
0110: 1F 00 1D 80 1E 80 1A 80  1F 01 22 01 00           .........."..   
```

#### Opcodes

```
  0: 0x00E7 [0x32] ExtData[1]->MainSpeed = 54* * 0.1
  1: 0x00EA [0x5B] LOAD_EXT_SCHEDULER: Load scheduler "jna0" with entities [EventEntity, EventEntity], work=621*
  2: 0x00F9 [0x1C] WAIT(150* ticks)
  3: 0x00FC [0x1F] MOVE_ENTITY: EventEntity moves to X=18.941*, Z=-51.312*, Y=3.901*
  4: 0x0104 [0x1F] MOVE_ENTITY: Update entity position (mode=1)
  5: 0x0106 [0x1F] MOVE_ENTITY: EventEntity moves to X=20.478*, Z=-50.983*, Y=3.901*
  6: 0x010E [0x1F] MOVE_ENTITY: Update entity position (mode=1)
  7: 0x0110 [0x1F] MOVE_ENTITY: EventEntity moves to X=24.351*, Z=-52.595*, Y=3.901*
  8: 0x0118 [0x1F] MOVE_ENTITY: Update entity position (mode=1)
  9: 0x011A [0x22] ENTITY_HIDE_FLAG(enabled=0x01)
 10: 0x011C [0x00] END_REQSTACK()
```

### Event 65535.6

#### Metadata

| Field        | Value    |
|--------------|----------|
| Entrypoint   | 0x011D   |
| Data Size    | 19 bytes |
| Instructions | 3        |

```
      00 01 02 03 04 05 06 07  08 09 0A 0B 0C 0D 0E 0F
      -- -- -- -- -- -- -- --  -- -- -- -- -- -- -- --
0110:                                         5B 06 80               [..
0120: F8 FF FF 7F F8 FF FF 7F  6B 62 65 30 1C 1F 80 00  ........kbe0....
```

#### Opcodes

```
  0: 0x011D [0x5B] LOAD_EXT_SCHEDULER: Load scheduler "kbe0" with entities [EventEntity, EventEntity], work=625*
  1: 0x012C [0x1C] WAIT(90* ticks)
  2: 0x012F [0x00] END_REQSTACK()
```

### Event 65535.7

#### Metadata

| Field        | Value    |
|--------------|----------|
| Entrypoint   | 0x0130   |
| Data Size    | 29 bytes |
| Instructions | 3        |

```
      00 01 02 03 04 05 06 07  08 09 0A 0B 0C 0D 0E 0F
      -- -- -- -- -- -- -- --  -- -- -- -- -- -- -- --
0130: 5B 06 80 F8 FF FF 7F F8  FF FF 7F 6B 62 65 31 53  [..........kbe1S
0140: F8 FF FF 7F F8 FF FF 7F  6B 62 65 31 00           ........kbe1.   
```

#### Opcodes

```
  0: 0x0130 [0x5B] LOAD_EXT_SCHEDULER: Load scheduler "kbe1" with entities [EventEntity, EventEntity], work=625*
  1: 0x013F [0x53] WAIT_SCHEDULER_TASK: Wait for scheduler "kbe1" with entities [EventEntity, EventEntity]
  2: 0x014C [0x00] END_REQSTACK()
```

### Event 65535.8

#### Metadata

| Field        | Value    |
|--------------|----------|
| Entrypoint   | 0x014D   |
| Data Size    | 29 bytes |
| Instructions | 3        |

```
      00 01 02 03 04 05 06 07  08 09 0A 0B 0C 0D 0E 0F
      -- -- -- -- -- -- -- --  -- -- -- -- -- -- -- --
0140:                                         5B 06 80               [..
0150: F8 FF FF 7F F8 FF FF 7F  6B 62 65 32 53 F8 FF FF  ........kbe2S...
0160: 7F F8 FF FF 7F 6B 62 65  32 00                    .....kbe2.      
```

#### Opcodes

```
  0: 0x014D [0x5B] LOAD_EXT_SCHEDULER: Load scheduler "kbe2" with entities [EventEntity, EventEntity], work=625*
  1: 0x015C [0x53] WAIT_SCHEDULER_TASK: Wait for scheduler "kbe2" with entities [EventEntity, EventEntity]
  2: 0x0169 [0x00] END_REQSTACK()
```

### Event 65535.9

#### Metadata

| Field        | Value    |
|--------------|----------|
| Entrypoint   | 0x016A   |
| Data Size    | 19 bytes |
| Instructions | 3        |

```
      00 01 02 03 04 05 06 07  08 09 0A 0B 0C 0D 0E 0F
      -- -- -- -- -- -- -- --  -- -- -- -- -- -- -- --
0160:                                5B 0F 80 F8 FF FF            [.....
0170: 7F F8 FF FF 7F 73 74 64  30 1C 20 80 00           .....std0. ..   
```

#### Opcodes

```
  0: 0x016A [0x5B] LOAD_EXT_SCHEDULER: Load scheduler "std0" with entities [EventEntity, EventEntity], work=479*
  1: 0x0179 [0x1C] WAIT(60* ticks)
  2: 0x017C [0x00] END_REQSTACK()
```

### Event 65535.10

#### Metadata

| Field        | Value    |
|--------------|----------|
| Entrypoint   | 0x017D   |
| Data Size    | 29 bytes |
| Instructions | 3        |

```
      00 01 02 03 04 05 06 07  08 09 0A 0B 0C 0D 0E 0F
      -- -- -- -- -- -- -- --  -- -- -- -- -- -- -- --
0170:                                         5B 0F 80               [..
0180: F8 FF FF 7F F8 FF FF 7F  73 74 64 31 53 F8 FF FF  ........std1S...
0190: 7F F8 FF FF 7F 73 74 64  31 00                    .....std1.      
```

#### Opcodes

```
  0: 0x017D [0x5B] LOAD_EXT_SCHEDULER: Load scheduler "std1" with entities [EventEntity, EventEntity], work=479*
  1: 0x018C [0x53] WAIT_SCHEDULER_TASK: Wait for scheduler "std1" with entities [EventEntity, EventEntity]
  2: 0x0199 [0x00] END_REQSTACK()
```

### Event 65535.11

#### Metadata

| Field        | Value    |
|--------------|----------|
| Entrypoint   | 0x019A   |
| Data Size    | 16 bytes |
| Instructions | 2        |

```
      00 01 02 03 04 05 06 07  08 09 0A 0B 0C 0D 0E 0F
      -- -- -- -- -- -- -- --  -- -- -- -- -- -- -- --
0190:                                5B 21 80 F8 FF FF            [!....
01A0: 7F F8 FF FF 7F 74 6C 63  30 00                    .....tlc0.      
```

#### Opcodes

```
  0: 0x019A [0x5B] LOAD_EXT_SCHEDULER: Load scheduler "tlc0" with entities [EventEntity, EventEntity], work=475*
  1: 0x01A9 [0x00] END_REQSTACK()
```

### Event 65535.12

#### Metadata

| Field        | Value    |
|--------------|----------|
| Entrypoint   | 0x01AA   |
| Data Size    | 29 bytes |
| Instructions | 3        |

```
      00 01 02 03 04 05 06 07  08 09 0A 0B 0C 0D 0E 0F
      -- -- -- -- -- -- -- --  -- -- -- -- -- -- -- --
01A0:                                5B 21 80 F8 FF FF            [!....
01B0: 7F F8 FF FF 7F 74 6C 63  31 53 F8 FF FF 7F F8 FF  .....tlc1S......
01C0: FF 7F 74 6C 63 31 00                              ..tlc1.         
```

#### Opcodes

```
  0: 0x01AA [0x5B] LOAD_EXT_SCHEDULER: Load scheduler "tlc1" with entities [EventEntity, EventEntity], work=475*
  1: 0x01B9 [0x53] WAIT_SCHEDULER_TASK: Wait for scheduler "tlc1" with entities [EventEntity, EventEntity]
  2: 0x01C6 [0x00] END_REQSTACK()
```

### Event 65535.13

#### Metadata

| Field        | Value    |
|--------------|----------|
| Entrypoint   | 0x01C7   |
| Data Size    | 29 bytes |
| Instructions | 3        |

```
      00 01 02 03 04 05 06 07  08 09 0A 0B 0C 0D 0E 0F
      -- -- -- -- -- -- -- --  -- -- -- -- -- -- -- --
01C0:                      5B  22 80 F8 FF FF 7F F8 FF         [".......
01D0: FF 7F 67 6D 61 30 53 F8  FF FF 7F F8 FF FF 7F 67  ..gma0S........g
01E0: 6D 61 30 00                                       ma0.            
```

#### Opcodes

```
  0: 0x01C7 [0x5B] LOAD_EXT_SCHEDULER: Load scheduler "gma0" with entities [EventEntity, EventEntity], work=481*
  1: 0x01D6 [0x53] WAIT_SCHEDULER_TASK: Wait for scheduler "gma0" with entities [EventEntity, EventEntity]
  2: 0x01E3 [0x00] END_REQSTACK()
```

### Event 65535.14

#### Metadata

| Field        | Value    |
|--------------|----------|
| Entrypoint   | 0x01E4   |
| Data Size    | 29 bytes |
| Instructions | 3        |

```
      00 01 02 03 04 05 06 07  08 09 0A 0B 0C 0D 0E 0F
      -- -- -- -- -- -- -- --  -- -- -- -- -- -- -- --
01E0:             5B 22 80 F8  FF FF 7F F8 FF FF 7F 67      [".........g
01F0: 6D 61 31 53 F8 FF FF 7F  F8 FF FF 7F 67 6D 61 31  ma1S........gma1
0200: 00                                                .               
```

#### Opcodes

```
  0: 0x01E4 [0x5B] LOAD_EXT_SCHEDULER: Load scheduler "gma1" with entities [EventEntity, EventEntity], work=481*
  1: 0x01F3 [0x53] WAIT_SCHEDULER_TASK: Wait for scheduler "gma1" with entities [EventEntity, EventEntity]
  2: 0x0200 [0x00] END_REQSTACK()
```

### Event 65535.15

#### Metadata

| Field        | Value    |
|--------------|----------|
| Entrypoint   | 0x0201   |
| Data Size    | 29 bytes |
| Instructions | 3        |

```
      00 01 02 03 04 05 06 07  08 09 0A 0B 0C 0D 0E 0F
      -- -- -- -- -- -- -- --  -- -- -- -- -- -- -- --
0200:    5B 22 80 F8 FF FF 7F  F8 FF FF 7F 74 62 6F 30   [".........tbo0
0210: 53 F8 FF FF 7F F8 FF FF  7F 74 62 6F 30 00        S........tbo0.  
```

#### Opcodes

```
  0: 0x0201 [0x5B] LOAD_EXT_SCHEDULER: Load scheduler "tbo0" with entities [EventEntity, EventEntity], work=481*
  1: 0x0210 [0x53] WAIT_SCHEDULER_TASK: Wait for scheduler "tbo0" with entities [EventEntity, EventEntity]
  2: 0x021D [0x00] END_REQSTACK()
```

### Event 65535.16

#### Metadata

| Field        | Value    |
|--------------|----------|
| Entrypoint   | 0x021E   |
| Data Size    | 29 bytes |
| Instructions | 3        |

```
      00 01 02 03 04 05 06 07  08 09 0A 0B 0C 0D 0E 0F
      -- -- -- -- -- -- -- --  -- -- -- -- -- -- -- --
0210:                                            5B 22                ["
0220: 80 F8 FF FF 7F F8 FF FF  7F 74 62 6F 31 53 F8 FF  .........tbo1S..
0230: FF 7F F8 FF FF 7F 74 62  6F 31 00                 ......tbo1.     
```

#### Opcodes

```
  0: 0x021E [0x5B] LOAD_EXT_SCHEDULER: Load scheduler "tbo1" with entities [EventEntity, EventEntity], work=481*
  1: 0x022D [0x53] WAIT_SCHEDULER_TASK: Wait for scheduler "tbo1" with entities [EventEntity, EventEntity]
  2: 0x023A [0x00] END_REQSTACK()
```

### Event 65535.17

#### Metadata

| Field        | Value    |
|--------------|----------|
| Entrypoint   | 0x023B   |
| Data Size    | 19 bytes |
| Instructions | 3        |

```
      00 01 02 03 04 05 06 07  08 09 0A 0B 0C 0D 0E 0F
      -- -- -- -- -- -- -- --  -- -- -- -- -- -- -- --
0230:                                   5B 22 80 F8 FF             ["...
0240: FF 7F F8 FF FF 7F 73 72  61 30 1C 20 80 00        ......sra0. ..  
```

#### Opcodes

```
  0: 0x023B [0x5B] LOAD_EXT_SCHEDULER: Load scheduler "sra0" with entities [EventEntity, EventEntity], work=481*
  1: 0x024A [0x1C] WAIT(60* ticks)
  2: 0x024D [0x00] END_REQSTACK()
```

### Event 65535.18

#### Metadata

| Field        | Value    |
|--------------|----------|
| Entrypoint   | 0x024E   |
| Data Size    | 29 bytes |
| Instructions | 3        |

```
      00 01 02 03 04 05 06 07  08 09 0A 0B 0C 0D 0E 0F
      -- -- -- -- -- -- -- --  -- -- -- -- -- -- -- --
0240:                                            5B 22                ["
0250: 80 F8 FF FF 7F F8 FF FF  7F 73 72 61 31 53 F8 FF  .........sra1S..
0260: FF 7F F8 FF FF 7F 73 72  61 31 00                 ......sra1.     
```

#### Opcodes

```
  0: 0x024E [0x5B] LOAD_EXT_SCHEDULER: Load scheduler "sra1" with entities [EventEntity, EventEntity], work=481*
  1: 0x025D [0x53] WAIT_SCHEDULER_TASK: Wait for scheduler "sra1" with entities [EventEntity, EventEntity]
  2: 0x026A [0x00] END_REQSTACK()
```

### Event 65535.19

#### Metadata

| Field        | Value    |
|--------------|----------|
| Entrypoint   | 0x026B   |
| Data Size    | 29 bytes |
| Instructions | 3        |

```
      00 01 02 03 04 05 06 07  08 09 0A 0B 0C 0D 0E 0F
      -- -- -- -- -- -- -- --  -- -- -- -- -- -- -- --
0260:                                   5B 0F 80 F8 FF             [....
0270: FF 7F F8 FF FF 7F 74 6C  66 30 53 F8 FF FF 7F F8  ......tlf0S.....
0280: FF FF 7F 74 6C 66 30 00                           ...tlf0.        
```

#### Opcodes

```
  0: 0x026B [0x5B] LOAD_EXT_SCHEDULER: Load scheduler "tlf0" with entities [EventEntity, EventEntity], work=479*
  1: 0x027A [0x53] WAIT_SCHEDULER_TASK: Wait for scheduler "tlf0" with entities [EventEntity, EventEntity]
  2: 0x0287 [0x00] END_REQSTACK()
```

### Event 65535.20

#### Metadata

| Field        | Value    |
|--------------|----------|
| Entrypoint   | 0x0288   |
| Data Size    | 29 bytes |
| Instructions | 3        |

```
      00 01 02 03 04 05 06 07  08 09 0A 0B 0C 0D 0E 0F
      -- -- -- -- -- -- -- --  -- -- -- -- -- -- -- --
0280:                          5B 0F 80 F8 FF FF 7F F8          [.......
0290: FF FF 7F 74 6C 66 31 53  F8 FF FF 7F F8 FF FF 7F  ...tlf1S........
02A0: 74 6C 66 31 00                                    tlf1.           
```

#### Opcodes

```
  0: 0x0288 [0x5B] LOAD_EXT_SCHEDULER: Load scheduler "tlf1" with entities [EventEntity, EventEntity], work=479*
  1: 0x0297 [0x53] WAIT_SCHEDULER_TASK: Wait for scheduler "tlf1" with entities [EventEntity, EventEntity]
  2: 0x02A4 [0x00] END_REQSTACK()
```

### Event 65535.21

#### Metadata

| Field        | Value    |
|--------------|----------|
| Entrypoint   | 0x02A5   |
| Data Size    | 16 bytes |
| Instructions | 2        |

```
      00 01 02 03 04 05 06 07  08 09 0A 0B 0C 0D 0E 0F
      -- -- -- -- -- -- -- --  -- -- -- -- -- -- -- --
02A0:                5B 21 80  F8 FF FF 7F F8 FF FF 7F       [!.........
02B0: 74 6C 61 30 00                                    tla0.           
```

#### Opcodes

```
  0: 0x02A5 [0x5B] LOAD_EXT_SCHEDULER: Load scheduler "tla0" with entities [EventEntity, EventEntity], work=475*
  1: 0x02B4 [0x00] END_REQSTACK()
```

### Event 65535.22

#### Metadata

| Field        | Value    |
|--------------|----------|
| Entrypoint   | 0x02B5   |
| Data Size    | 29 bytes |
| Instructions | 3        |

```
      00 01 02 03 04 05 06 07  08 09 0A 0B 0C 0D 0E 0F
      -- -- -- -- -- -- -- --  -- -- -- -- -- -- -- --
02B0:                5B 21 80  F8 FF FF 7F F8 FF FF 7F       [!.........
02C0: 74 6C 61 31 53 F8 FF FF  7F F8 FF FF 7F 74 6C 61  tla1S........tla
02D0: 31 00                                             1.              
```

#### Opcodes

```
  0: 0x02B5 [0x5B] LOAD_EXT_SCHEDULER: Load scheduler "tla1" with entities [EventEntity, EventEntity], work=475*
  1: 0x02C4 [0x53] WAIT_SCHEDULER_TASK: Wait for scheduler "tla1" with entities [EventEntity, EventEntity]
  2: 0x02D1 [0x00] END_REQSTACK()
```

### Event 65535.23

#### Metadata

| Field        | Value    |
|--------------|----------|
| Entrypoint   | 0x02D2   |
| Data Size    | 16 bytes |
| Instructions | 2        |

```
      00 01 02 03 04 05 06 07  08 09 0A 0B 0C 0D 0E 0F
      -- -- -- -- -- -- -- --  -- -- -- -- -- -- -- --
02D0:       5B 21 80 F8 FF FF  7F F8 FF FF 7F 74 6C 64    [!.........tld
02E0: 30 00                                             0.              
```

#### Opcodes

```
  0: 0x02D2 [0x5B] LOAD_EXT_SCHEDULER: Load scheduler "tld0" with entities [EventEntity, EventEntity], work=475*
  1: 0x02E1 [0x00] END_REQSTACK()
```

### Event 65535.24

#### Metadata

| Field        | Value    |
|--------------|----------|
| Entrypoint   | 0x02E2   |
| Data Size    | 29 bytes |
| Instructions | 3        |

```
      00 01 02 03 04 05 06 07  08 09 0A 0B 0C 0D 0E 0F
      -- -- -- -- -- -- -- --  -- -- -- -- -- -- -- --
02E0:       5B 21 80 F8 FF FF  7F F8 FF FF 7F 74 6C 64    [!.........tld
02F0: 31 53 F8 FF FF 7F F8 FF  FF 7F 74 6C 64 31 00     1S........tld1. 
```

#### Opcodes

```
  0: 0x02E2 [0x5B] LOAD_EXT_SCHEDULER: Load scheduler "tld1" with entities [EventEntity, EventEntity], work=475*
  1: 0x02F1 [0x53] WAIT_SCHEDULER_TASK: Wait for scheduler "tld1" with entities [EventEntity, EventEntity]
  2: 0x02FE [0x00] END_REQSTACK()
```

### Event 65535.25

#### Metadata

| Field        | Value    |
|--------------|----------|
| Entrypoint   | 0x02FF   |
| Data Size    | 16 bytes |
| Instructions | 2        |

```
      00 01 02 03 04 05 06 07  08 09 0A 0B 0C 0D 0E 0F
      -- -- -- -- -- -- -- --  -- -- -- -- -- -- -- --
02F0:                                               5B                 [
0300: 21 80 F8 FF FF 7F F8 FF  FF 7F 74 6C 62 30 00     !.........tlb0. 
```

#### Opcodes

```
  0: 0x02FF [0x5B] LOAD_EXT_SCHEDULER: Load scheduler "tlb0" with entities [EventEntity, EventEntity], work=475*
  1: 0x030E [0x00] END_REQSTACK()
```

### Event 65535.26

#### Metadata

| Field        | Value    |
|--------------|----------|
| Entrypoint   | 0x030F   |
| Data Size    | 29 bytes |
| Instructions | 3        |

```
      00 01 02 03 04 05 06 07  08 09 0A 0B 0C 0D 0E 0F
      -- -- -- -- -- -- -- --  -- -- -- -- -- -- -- --
0300:                                               5B                 [
0310: 21 80 F8 FF FF 7F F8 FF  FF 7F 74 6C 62 31 53 F8  !.........tlb1S.
0320: FF FF 7F F8 FF FF 7F 74  6C 62 31 00              .......tlb1.    
```

#### Opcodes

```
  0: 0x030F [0x5B] LOAD_EXT_SCHEDULER: Load scheduler "tlb1" with entities [EventEntity, EventEntity], work=475*
  1: 0x031E [0x53] WAIT_SCHEDULER_TASK: Wait for scheduler "tlb1" with entities [EventEntity, EventEntity]
  2: 0x032B [0x00] END_REQSTACK()
```

### Event 65535.27

#### Metadata

| Field        | Value    |
|--------------|----------|
| Entrypoint   | 0x032C   |
| Data Size    | 16 bytes |
| Instructions | 2        |

```
      00 01 02 03 04 05 06 07  08 09 0A 0B 0C 0D 0E 0F
      -- -- -- -- -- -- -- --  -- -- -- -- -- -- -- --
0320:                                      5B 23 80 F8              [#..
0330: FF FF 7F F8 FF FF 7F 74  68 6B 30 00              .......thk0.    
```

#### Opcodes

```
  0: 0x032C [0x5B] LOAD_EXT_SCHEDULER: Load scheduler "thk0" with entities [EventEntity, EventEntity], work=477*
  1: 0x033B [0x00] END_REQSTACK()
```

### Event 65535.28

#### Metadata

| Field        | Value    |
|--------------|----------|
| Entrypoint   | 0x033C   |
| Data Size    | 29 bytes |
| Instructions | 3        |

```
      00 01 02 03 04 05 06 07  08 09 0A 0B 0C 0D 0E 0F
      -- -- -- -- -- -- -- --  -- -- -- -- -- -- -- --
0330:                                      5B 23 80 F8              [#..
0340: FF FF 7F F8 FF FF 7F 74  68 6B 31 53 F8 FF FF 7F  .......thk1S....
0350: F8 FF FF 7F 74 68 6B 31  00                       ....thk1.       
```

#### Opcodes

```
  0: 0x033C [0x5B] LOAD_EXT_SCHEDULER: Load scheduler "thk1" with entities [EventEntity, EventEntity], work=477*
  1: 0x034B [0x53] WAIT_SCHEDULER_TASK: Wait for scheduler "thk1" with entities [EventEntity, EventEntity]
  2: 0x0358 [0x00] END_REQSTACK()
```

### Event 65535.29

#### Metadata

| Field        | Value    |
|--------------|----------|
| Entrypoint   | 0x0359   |
| Data Size    | 29 bytes |
| Instructions | 3        |

```
      00 01 02 03 04 05 06 07  08 09 0A 0B 0C 0D 0E 0F
      -- -- -- -- -- -- -- --  -- -- -- -- -- -- -- --
0350:                             5B 16 80 F8 FF FF 7F           [......
0360: F8 FF FF 7F 68 6E 64 30  53 F8 FF FF 7F F8 FF FF  ....hnd0S.......
0370: 7F 68 6E 64 30 00                                 .hnd0.          
```

#### Opcodes

```
  0: 0x0359 [0x5B] LOAD_EXT_SCHEDULER: Load scheduler "hnd0" with entities [EventEntity, EventEntity], work=621*
  1: 0x0368 [0x53] WAIT_SCHEDULER_TASK: Wait for scheduler "hnd0" with entities [EventEntity, EventEntity]
  2: 0x0375 [0x00] END_REQSTACK()
```

### Event 65535.30

#### Metadata

| Field        | Value    |
|--------------|----------|
| Entrypoint   | 0x0376   |
| Data Size    | 29 bytes |
| Instructions | 3        |

```
      00 01 02 03 04 05 06 07  08 09 0A 0B 0C 0D 0E 0F
      -- -- -- -- -- -- -- --  -- -- -- -- -- -- -- --
0370:                   5B 16  80 F8 FF FF 7F F8 FF FF        [.........
0380: 7F 68 6E 64 31 53 F8 FF  FF 7F F8 FF FF 7F 68 6E  .hnd1S........hn
0390: 64 31 00                                          d1.             
```

#### Opcodes

```
  0: 0x0376 [0x5B] LOAD_EXT_SCHEDULER: Load scheduler "hnd1" with entities [EventEntity, EventEntity], work=621*
  1: 0x0385 [0x53] WAIT_SCHEDULER_TASK: Wait for scheduler "hnd1" with entities [EventEntity, EventEntity]
  2: 0x0392 [0x00] END_REQSTACK()
```

### Event 65535.31

#### Metadata

| Field        | Value    |
|--------------|----------|
| Entrypoint   | 0x0393   |
| Data Size    | 16 bytes |
| Instructions | 2        |

```
      00 01 02 03 04 05 06 07  08 09 0A 0B 0C 0D 0E 0F
      -- -- -- -- -- -- -- --  -- -- -- -- -- -- -- --
0390:          5B 21 80 F8 FF  FF 7F F8 FF FF 7F 74 6C     [!.........tl
03A0: 64 30 00                                          d0.             
```

#### Opcodes

```
  0: 0x0393 [0x5B] LOAD_EXT_SCHEDULER: Load scheduler "tld0" with entities [EventEntity, EventEntity], work=475*
  1: 0x03A2 [0x00] END_REQSTACK()
```

### Event 65535.32

#### Metadata

| Field        | Value    |
|--------------|----------|
| Entrypoint   | 0x03A3   |
| Data Size    | 16 bytes |
| Instructions | 2        |

```
      00 01 02 03 04 05 06 07  08 09 0A 0B 0C 0D 0E 0F
      -- -- -- -- -- -- -- --  -- -- -- -- -- -- -- --
03A0:          5B 21 80 F8 FF  FF 7F F8 FF FF 7F 74 6C     [!.........tl
03B0: 64 31 00                                          d1.             
```

#### Opcodes

```
  0: 0x03A3 [0x5B] LOAD_EXT_SCHEDULER: Load scheduler "tld1" with entities [EventEntity, EventEntity], work=475*
  1: 0x03B2 [0x00] END_REQSTACK()
```

### Event 65535.33

#### Metadata

| Field        | Value    |
|--------------|----------|
| Entrypoint   | 0x03B3   |
| Data Size    | 29 bytes |
| Instructions | 3        |

```
      00 01 02 03 04 05 06 07  08 09 0A 0B 0C 0D 0E 0F
      -- -- -- -- -- -- -- --  -- -- -- -- -- -- -- --
03B0:          5B 16 80 F8 FF  FF 7F F8 FF FF 7F 6A 6E     [..........jn
03C0: 61 30 53 F8 FF FF 7F F8  FF FF 7F 6A 6E 61 30 00  a0S........jna0.
```

#### Opcodes

```
  0: 0x03B3 [0x5B] LOAD_EXT_SCHEDULER: Load scheduler "jna0" with entities [EventEntity, EventEntity], work=621*
  1: 0x03C2 [0x53] WAIT_SCHEDULER_TASK: Wait for scheduler "jna0" with entities [EventEntity, EventEntity]
  2: 0x03CF [0x00] END_REQSTACK()
```

### Event 65535.34

#### Metadata

| Field        | Value   |
|--------------|---------|
| Entrypoint   | 0x03D0  |
| Data Size    | 1 bytes |
| Instructions | 1       |

```
      00 01 02 03 04 05 06 07  08 09 0A 0B 0C 0D 0E 0F
      -- -- -- -- -- -- -- --  -- -- -- -- -- -- -- --
03D0: 00                                                .               
```

#### Opcodes

```
  0: 0x03D0 [0x00] END_REQSTACK()
```
