# 17780770 - Kurou-Morou

## Common Data

| Field            | Value                 |
|------------------|-----------------------|
| Zone             | Lower Jeuno (ID: 245) |
| Block Size       | 4580 bytes            |
| Total Events     | 126                   |
| References Count | 177                   |

## List of Events

| Event ID                     | Entrypoint   |   Size |   Instructions |
|------------------------------|--------------|--------|----------------|
| [65535](#event-65535)        | 0x0000       |      4 |              2 |
| [17](#event-17)              | 0x0004       |      1 |              1 |
| [154](#event-154)            | 0x0005       |      1 |              1 |
| [38](#event-38)              | 0x0006       |      6 |              4 |
| [39](#event-39)              | 0x000C       |     33 |              9 |
| [36](#event-36)              | 0x002D       |     33 |              9 |
| [37](#event-37)              | 0x004E       |    150 |             28 |
| [65535.1](#event-655351)     | 0x00E4       |     10 |              2 |
| [193](#event-193)            | 0x00EE       |     28 |              8 |
| [194](#event-194)            | 0x010A       |      1 |              1 |
| [191](#event-191)            | 0x010B       |     46 |             14 |
| [192](#event-192)            | 0x0139       |     29 |             12 |
| [202](#event-202)            | 0x0156       |     78 |             27 |
| [203](#event-203)            | 0x01A4       |     21 |             10 |
| [201](#event-201)            | 0x01B9       |     33 |             10 |
| [196](#event-196)            | 0x01DA       |      1 |              1 |
| [200](#event-200)            | 0x01DB       |      1 |              1 |
| [65535.2](#event-655352)     | 0x01DC       |     10 |              2 |
| [65535.3](#event-655353)     | 0x01E6       |     37 |              9 |
| [65535.4](#event-655354)     | 0x020B       |     13 |              4 |
| [204](#event-204)            | 0x0218       |    974 |            241 |
| [65535.5](#event-655355)     | 0x05E6       |     19 |              3 |
| [65535.6](#event-655356)     | 0x05F9       |     19 |              3 |
| [65535.7](#event-655357)     | 0x060C       |     29 |              3 |
| [65535.8](#event-655358)     | 0x0629       |     29 |              3 |
| [65535.9](#event-655359)     | 0x0646       |     29 |              3 |
| [65535.10](#event-6553510)   | 0x0663       |      9 |              3 |
| [65535.11](#event-6553511)   | 0x066C       |      2 |              2 |
| [10094](#event-10094)        | 0x066E       |      5 |              3 |
| [65535.12](#event-6553512)   | 0x0673       |     20 |              5 |
| [65535.13](#event-6553513)   | 0x0687       |     20 |              5 |
| [65535.14](#event-6553514)   | 0x069B       |     20 |              5 |
| [65535.15](#event-6553515)   | 0x06AF       |     17 |              3 |
| [65535.16](#event-6553516)   | 0x06C0       |     20 |              5 |
| [65535.17](#event-6553517)   | 0x06D4       |     20 |              5 |
| [65535.18](#event-6553518)   | 0x06E8       |     19 |              4 |
| [65535.19](#event-6553519)   | 0x06FB       |     19 |              4 |
| [65535.20](#event-6553520)   | 0x070E       |     16 |              2 |
| [65535.21](#event-6553521)   | 0x071E       |     16 |              2 |
| [65535.22](#event-6553522)   | 0x072E       |     20 |              5 |
| [65535.23](#event-6553523)   | 0x0742       |     16 |              2 |
| [65535.24](#event-6553524)   | 0x0752       |     16 |              2 |
| [65535.25](#event-6553525)   | 0x0762       |     16 |              2 |
| [65535.26](#event-6553526)   | 0x0772       |     21 |              6 |
| [65535.27](#event-6553527)   | 0x0787       |     16 |              2 |
| [65535.28](#event-6553528)   | 0x0797       |     16 |              2 |
| [65535.29](#event-6553529)   | 0x07A7       |     20 |              5 |
| [65535.30](#event-6553530)   | 0x07BB       |     17 |              3 |
| [65535.31](#event-6553531)   | 0x07CC       |     20 |              5 |
| [65535.32](#event-6553532)   | 0x07E0       |     16 |              2 |
| [65535.33](#event-6553533)   | 0x07F0       |     16 |              2 |
| [65535.34](#event-6553534)   | 0x0800       |     16 |              2 |
| [65535.35](#event-6553535)   | 0x0810       |     16 |              2 |
| [65535.36](#event-6553536)   | 0x0820       |     16 |              2 |
| [65535.37](#event-6553537)   | 0x0830       |     16 |              2 |
| [65535.38](#event-6553538)   | 0x0840       |     16 |              2 |
| [65535.39](#event-6553539)   | 0x0850       |     12 |              4 |
| [65535.40](#event-6553540)   | 0x085C       |     20 |              5 |
| [65535.41](#event-6553541)   | 0x0870       |     17 |              3 |
| [65535.42](#event-6553542)   | 0x0881       |     17 |              3 |
| [65535.43](#event-6553543)   | 0x0892       |     16 |              2 |
| [65535.44](#event-6553544)   | 0x08A2       |     16 |              2 |
| [65535.45](#event-6553545)   | 0x08B2       |     16 |              2 |
| [65535.46](#event-6553546)   | 0x08C2       |     16 |              2 |
| [65535.47](#event-6553547)   | 0x08D2       |     16 |              2 |
| [65535.48](#event-6553548)   | 0x08E2       |     16 |              2 |
| [65535.49](#event-6553549)   | 0x08F2       |     13 |              5 |
| [65535.50](#event-6553550)   | 0x08FF       |     20 |              5 |
| [65535.51](#event-6553551)   | 0x0913       |     12 |              4 |
| [65535.52](#event-6553552)   | 0x091F       |     16 |              2 |
| [65535.53](#event-6553553)   | 0x092F       |     16 |              2 |
| [65535.54](#event-6553554)   | 0x093F       |     16 |              2 |
| [65535.55](#event-6553555)   | 0x094F       |     20 |              5 |
| [65535.56](#event-6553556)   | 0x0963       |     29 |              6 |
| [65535.57](#event-6553557)   | 0x0980       |     17 |              3 |
| [65535.58](#event-6553558)   | 0x0991       |     20 |              5 |
| [65535.59](#event-6553559)   | 0x09A5       |     20 |              5 |
| [65535.60](#event-6553560)   | 0x09B9       |     20 |              5 |
| [65535.61](#event-6553561)   | 0x09CD       |     20 |              5 |
| [65535.62](#event-6553562)   | 0x09E1       |     20 |              5 |
| [65535.63](#event-6553563)   | 0x09F5       |     16 |              2 |
| [65535.64](#event-6553564)   | 0x0A05       |     16 |              2 |
| [65535.65](#event-6553565)   | 0x0A15       |     20 |              5 |
| [65535.66](#event-6553566)   | 0x0A29       |     16 |              2 |
| [65535.67](#event-6553567)   | 0x0A39       |     16 |              2 |
| [65535.68](#event-6553568)   | 0x0A49       |     16 |              2 |
| [65535.69](#event-6553569)   | 0x0A59       |     16 |              2 |
| [65535.70](#event-6553570)   | 0x0A69       |     21 |              6 |
| [65535.71](#event-6553571)   | 0x0A7E       |     20 |              5 |
| [65535.72](#event-6553572)   | 0x0A92       |     20 |              5 |
| [65535.73](#event-6553573)   | 0x0AA6       |     17 |              3 |
| [65535.74](#event-6553574)   | 0x0AB7       |     20 |              5 |
| [65535.75](#event-6553575)   | 0x0ACB       |     20 |              5 |
| [65535.76](#event-6553576)   | 0x0ADF       |     16 |              2 |
| [65535.77](#event-6553577)   | 0x0AEF       |     16 |              2 |
| [65535.78](#event-6553578)   | 0x0AFF       |     21 |              6 |
| [65535.79](#event-6553579)   | 0x0B14       |     20 |              5 |
| [65535.80](#event-6553580)   | 0x0B28       |     20 |              5 |
| [65535.81](#event-6553581)   | 0x0B3C       |     16 |              2 |
| [65535.82](#event-6553582)   | 0x0B4C       |     20 |              5 |
| [65535.83](#event-6553583)   | 0x0B60       |     21 |              6 |
| [65535.84](#event-6553584)   | 0x0B75       |     20 |              5 |
| [65535.85](#event-6553585)   | 0x0B89       |     12 |              4 |
| [65535.86](#event-6553586)   | 0x0B95       |     16 |              2 |
| [65535.87](#event-6553587)   | 0x0BA5       |     16 |              2 |
| [65535.88](#event-6553588)   | 0x0BB5       |     20 |              5 |
| [65535.89](#event-6553589)   | 0x0BC9       |     20 |              5 |
| [65535.90](#event-6553590)   | 0x0BDD       |     17 |              3 |
| [65535.91](#event-6553591)   | 0x0BEE       |     16 |              2 |
| [65535.92](#event-6553592)   | 0x0BFE       |     16 |              2 |
| [65535.93](#event-6553593)   | 0x0C0E       |     16 |              2 |
| [65535.94](#event-6553594)   | 0x0C1E       |     16 |              2 |
| [65535.95](#event-6553595)   | 0x0C2E       |     17 |              3 |
| [65535.96](#event-6553596)   | 0x0C3F       |     20 |              5 |
| [65535.97](#event-6553597)   | 0x0C53       |     12 |              4 |
| [65535.98](#event-6553598)   | 0x0C5F       |     16 |              2 |
| [65535.99](#event-6553599)   | 0x0C6F       |     16 |              2 |
| [65535.100](#event-65535100) | 0x0C7F       |     16 |              2 |
| [65535.101](#event-65535101) | 0x0C8F       |     16 |              2 |
| [65535.102](#event-65535102) | 0x0C9F       |     16 |              2 |
| [65535.103](#event-65535103) | 0x0CAF       |     16 |              2 |
| [65535.104](#event-65535104) | 0x0CBF       |     16 |              2 |
| [65535.105](#event-65535105) | 0x0CCF       |     20 |              5 |
| [65535.106](#event-65535106) | 0x0CE3       |     20 |              5 |
| [65535.107](#event-65535107) | 0x0CF7       |     16 |              2 |
| [65535.108](#event-65535108) | 0x0D07       |     16 |              2 |

## DAT References (imed_data)

|   Index | Hex Value   |   Dec Value |
|---------|-------------|-------------|
|       0 | 0x000D      |          13 |
|       1 | 0x214D      |        8525 |
|       2 | 0x0028      |          40 |
|       3 | 0x01DC      |         476 |
|       4 | 0x214E      |        8526 |
|       5 | 0x214F      |        8527 |
|       6 | 0x216B      |        8555 |
|       7 | 0x216C      |        8556 |
|       8 | 0x0000      |           0 |
|       9 | 0x216D      |        8557 |
|      10 | 0x0001      |           1 |
|      11 | 0x216E      |        8558 |
|      12 | 0x216F      |        8559 |
|      13 | 0x2170      |        8560 |
|      14 | 0xFFFFC21F  |  4294951455 |
|      15 | 0xFFFF7BCC  |  4294933452 |
|      16 | 0xFFFFE891  |  4294961297 |
|      17 | 0x058B      |        1419 |
|      18 | 0x1D46      |        7494 |
|      19 | 0x022D      |         557 |
|      20 | 0x022C      |         556 |
|      21 | 0x1D4C      |        7500 |
|      22 | 0x1D4D      |        7501 |
|      23 | 0x1D4E      |        7502 |
|      24 | 0x1D4F      |        7503 |
|      25 | 0x1D50      |        7504 |
|      26 | 0x30DB      |       12507 |
|      27 | 0x1D7A      |        7546 |
|      28 | 0x1D7B      |        7547 |
|      29 | 0x1D7C      |        7548 |
|      30 | 0x1D7D      |        7549 |
|      31 | 0x1D7E      |        7550 |
|      32 | 0x1D7F      |        7551 |
|      33 | 0x1D80      |        7552 |
|      34 | 0x1D81      |        7553 |
|      35 | 0x00C9      |         201 |
|      36 | 0xFFFFD86D  |  4294957165 |
|      37 | 0xFFFF6EFB  |  4294930171 |
|      38 | 0x051C      |        1308 |
|      39 | 0xFFFFD029  |  4294955049 |
|      40 | 0xFFFF5D57  |  4294925655 |
|      41 | 0xFFFFD98B  |  4294957451 |
|      42 | 0xFFFF69B1  |  4294928817 |
|      43 | 0xFFFFE890  |  4294961296 |
|      44 | 0x1D5F      |        7519 |
|      45 | 0x1D60      |        7520 |
|      46 | 0x1D61      |        7521 |
|      47 | 0x0992      |        2450 |
|      48 | 0x002A      |          42 |
|      49 | 0x003C      |          60 |
|      50 | 0x0091      |         145 |
|      51 | 0x1D62      |        7522 |
|      52 | 0x40000000  |  1073741824 |
|      53 | 0x000A      |          10 |
|      54 | 0x0002      |           2 |
|      55 | 0x1D63      |        7523 |
|      56 | 0x1D67      |        7527 |
|      57 | 0x1D6B      |        7531 |
|      58 | 0x1D64      |        7524 |
|      59 | 0x1D68      |        7528 |
|      60 | 0x1D6C      |        7532 |
|      61 | 0x1D65      |        7525 |
|      62 | 0x1D69      |        7529 |
|      63 | 0x1D6D      |        7533 |
|      64 | 0x0003      |           3 |
|      65 | 0x1D66      |        7526 |
|      66 | 0x1D6A      |        7530 |
|      67 | 0x1D6E      |        7534 |
|      68 | 0x0004      |           4 |
|      69 | 0x0005      |           5 |
|      70 | 0x0006      |           6 |
|      71 | 0x0007      |           7 |
|      72 | 0x0008      |           8 |
|      73 | 0x0009      |           9 |
|      74 | 0x1D70      |        7536 |
|      75 | 0x1D71      |        7537 |
|      76 | 0x1D72      |        7538 |
|      77 | 0x1D73      |        7539 |
|      78 | 0x1D74      |        7540 |
|      79 | 0x1D75      |        7541 |
|      80 | 0x1D76      |        7542 |
|      81 | 0x1D77      |        7543 |
|      82 | 0x1D78      |        7544 |
|      83 | 0x1D79      |        7545 |
|      84 | 0x1D6F      |        7535 |
|      85 | 0x001E      |          30 |
|      86 | 0x000C      |          12 |
|      87 | 0xFFFED6C4  |  4294891204 |
|      88 | 0xFFFDEB5B  |  4294830939 |
|      89 | 0x000B      |          11 |
|      90 | 0xFFFE8B97  |  4294871959 |
|      91 | 0xFFFD9E68  |  4294811240 |
|      92 | 0xFFFF0D87  |  4294905223 |
|      93 | 0xFFFEA0EF  |  4294877423 |
|      94 | 0x176F      |        5999 |
|      95 | 0x0A3A      |        2618 |
|      96 | 0xFFFEB818  |  4294883352 |
|      97 | 0xFFFE098F  |  4294838671 |
|      98 | 0xFFFEF410  |  4294898704 |
|      99 | 0xFFFE85B9  |  4294870457 |
|     100 | 0xFFFEEC91  |  4294896785 |
|     101 | 0xFFFE6EA2  |  4294864546 |
|     102 | 0x0A2A      |        2602 |
|     103 | 0xFFFEE552  |  4294894930 |
|     104 | 0xFFFE3269  |  4294849129 |
|     105 | 0x0A39      |        2617 |
|     106 | 0x0045      |          69 |
|     107 | 0xFFFF2160  |  4294910304 |
|     108 | 0xFFFEA80E  |  4294879246 |
|     109 | 0x0A3D      |        2621 |
|     110 | 0x0A43      |        2627 |
|     111 | 0x004B      |          75 |
|     112 | 0xFFFFB20E  |  4294947342 |
|     113 | 0xFFFFAE2A  |  4294946346 |
|     114 | 0xFFFEDC35  |  4294892597 |
|     115 | 0xFFFE5D95  |  4294860181 |
|     116 | 0x0A47      |        2631 |
|     117 | 0x0055      |          85 |
|     118 | 0xFFFFB26F  |  4294947439 |
|     119 | 0xFFFFAB30  |  4294945584 |
|     120 | 0x000E      |          14 |
|     121 | 0xFFFF6C7D  |  4294929533 |
|     122 | 0xFFFF0AA4  |  4294904484 |
|     123 | 0xFFFFCBCA  |  4294953930 |
|     124 | 0x09E0      |        2528 |
|     125 | 0xFFFFFE3F  |  4294966847 |
|     126 | 0x0029      |          41 |
|     127 | 0xFFFEEA26  |  4294896166 |
|     128 | 0xFFFE4F39  |  4294856505 |
|     129 | 0xFFFED8EC  |  4294891756 |
|     130 | 0xFFFE38BF  |  4294850751 |
|     131 | 0xFFFEC5BC  |  4294886844 |
|     132 | 0xFFFE1640  |  4294841920 |
|     133 | 0x03E7      |         999 |
|     134 | 0x0A33      |        2611 |
|     135 | 0xFFFF04E1  |  4294903009 |
|     136 | 0xFFFE7108  |  4294865160 |
|     137 | 0x108C      |        4236 |
|     138 | 0x10F0      |        4336 |
|     139 | 0xFFFFC3F0  |  4294951920 |
|     140 | 0xFFFFA321  |  4294943521 |
|     141 | 0xFFFFFF9B  |  4294967195 |
|     142 | 0x0A18      |        2584 |
|     143 | 0xFFFFFC21  |  4294966305 |
|     144 | 0x084B      |        2123 |
|     145 | 0x0033      |          51 |
|     146 | 0xFFFF0DFA  |  4294905338 |
|     147 | 0xFFFE6C9D  |  4294864029 |
|     148 | 0xFFFEFBE3  |  4294900707 |
|     149 | 0xFFFE9775  |  4294874997 |
|     150 | 0xFFFF19CD  |  4294908365 |
|     151 | 0xFFFEAC62  |  4294880354 |
|     152 | 0xFFFECE8B  |  4294889099 |
|     153 | 0xFFFE3998  |  4294850968 |
|     154 | 0x0F9F      |        3999 |
|     155 | 0x0A17      |        2583 |
|     156 | 0xFFFFD965  |  4294957413 |
|     157 | 0xFFFFD99E  |  4294957470 |
|     158 | 0xFFFEE68C  |  4294895244 |
|     159 | 0xFFFE6FBD  |  4294864829 |
|     160 | 0xFFFFE923  |  4294961443 |
|     161 | 0xFFFFEBBA  |  4294962106 |
|     162 | 0xFFFF4F66  |  4294922086 |
|     163 | 0xFFFEA394  |  4294878100 |
|     164 | 0xFFFFB859  |  4294948953 |
|     165 | 0xFFFFDFA2  |  4294959010 |
|     166 | 0xFFFFB9ED  |  4294949357 |
|     167 | 0xFFFFBF3D  |  4294950717 |
|     168 | 0xFFFFF407  |  4294964231 |
|     169 | 0xFFFFE105  |  4294959365 |
|     170 | 0x0A40      |        2624 |
|     171 | 0xFFFF6A1D  |  4294928925 |
|     172 | 0xFFFEF858  |  4294899800 |
|     173 | 0xFFFFEA43  |  4294961731 |
|     174 | 0xFFFFF8F4  |  4294965492 |
|     175 | 0xFFFFF533  |  4294964531 |
|     176 | 0x13C3      |        5059 |

## String References

- **7494**: Welcome! You stand before Kurou-Morou the Magnificentaru! Speak to me, and all will be revealed.
- **7500**: I require $6 in order to constructaru your $7.
- **7501**: Immerse the $6 in the pool of holy water inside the Maze of Shakhrami. After a time, it will become a $7.
- **7502**: I will keep your $7 safe here in my abode, ready for divining your future at any time. Farewell, and may fortune smile upon you!
- **7503**: Why, this is $6 of high quality! Take this and immerse it in the pool of holy water inside the Maze of Shakhrami.
- **7504**: Only then will it be purged of impurities, and become a $7. Good luck!
- **7519**: Shall I read your fortune?
- **7520**: Hear your fortune? [Sure./Not now.]
- **7521**: Ahem. Very well...
- **7522**: Please come again.
- **7523**: General Signs: Poor.
- **7524**: General Signs: Fair.
- **7525**: General Signs: Favorable.
- **7526**: General Signs: Excellent.
- **7527**: Financial Signs: Poor.
- **7528**: Financial Signs: Fair.
- **7529**: Financial Signs: Favorable.
- **7530**: Financial Signs: Excellent.
- **7531**: Romance Signs: Poor.
- **7532**: Romance Signs: Fair.
- **7533**: Romance Signs: Favorable.
- **7534**: Romance Signs: Excellent.
- **7535**: Fortune Error.
- **7536**: Today's fortune: Take special care when throwing things away, lest you toss out a key item.
- **7537**: Today's Fortune: Take special care when shopping, lest you purchase something you cannot use.
- **7538**: Today's Fortune: Take special care when shopping, lest you accidentally sell an important item.
- **7539**: Today's Fortune: Moving to a new place can bring good fortune.
- **7540**: Today's Fortune: You just might run into an old friend.
- **7541**: Today's Fortune: Beware of chasing prey too far. It could be your undoing.
- **7542**: Today's Fortune: Teaming up with your countrymen might bring good fortune.
- **7543**: Today's Fortune: You will do your best in the rain.
- **7544**: Today's Fortune: Beware of overburdening yourself. You could lose out on a very good trade.
- **7545**: Today's Fortune: Sometimes, returning to your roots can bring luck.
- **7546**: I'm so happy you came. You see, I've got a favor I only ask of my best clients.
- **7547**: Last magic rubbish day, I accidentally threw out my $7. Oh, if that imposter-woster Chululu found out, it'd be the end of me!
- **7548**: That's where you come intaru! I need you to procure another one just like it. And of course, I'll reward you handsomely. Well? What do you say?
- **7549**: Do you accept? [With pleasure./Sorry, I'm busy.]
- **7550**: A thousand thanks, my dear clientaru! I wish you the best in this endeavor-wevor! Oh, and don't say a word to Chululu, I beg you!
- **7551**: Too busy, eh? Pity. Now what am I to do...?
- **7552**: I knew I could count on you. I can't sleep without my $7!
- **7553**: Why, thank you so much! You have my dearest gratitude. Please, accept this with my thanks.
- **8525**: Oh, what should I do!? I don't want to regretaru not telling her, but what if she laughed at me? I could never-ever face her again!
- **8526**: Please, <Player>! You've got to go to the Boyahda Tree and get that $3! A miracle is my only hope!
- **8527**: There is a place deepy-creepy in the Boyahda Tree where the moonlight shines down through the leaves. Legend says that if in that moonlight you offer a prayer to the gods, they will grant you with a single $3.
- **8555**: Hmmm... So, do you think she understood how I feel?
- **8556**: How did he do? [Great!/Terrible!]
- **8557**: Really-willy? Yeah, I'm what they call a "smooth operator."
- **8558**: Terrible, huh? But I don't think I could pull off something like that again. Just the thought of it turns my face all reddy-weddy with embarrassment!
- **8559**: However, as long as Chululu is working here beside me, I'm as happy as a happy Taru can be!
- **8560**: Now, don'taru you go telling Chululu I said that!

## Events

### Event 65535

#### Metadata

| Field        | Value   |
|--------------|---------|
| Entrypoint   | 0x0000  |
| Data Size    | 4 bytes |
| Instructions | 2       |

```
      00 01 02 03 04 05 06 07  08 09 0A 0B 0C 0D 0E 0F
      -- -- -- -- -- -- -- --  -- -- -- -- -- -- -- --
0000: 32 00 80 00                                       2...            
```

#### Opcodes

```
  0: 0x0000 [0x32] ExtData[1]->MainSpeed = 13* * 0.1
  1: 0x0003 [0x00] END_REQSTACK()
```

### Event 17

#### Metadata

| Field        | Value   |
|--------------|---------|
| Entrypoint   | 0x0004  |
| Data Size    | 1 bytes |
| Instructions | 1       |

```
      00 01 02 03 04 05 06 07  08 09 0A 0B 0C 0D 0E 0F
      -- -- -- -- -- -- -- --  -- -- -- -- -- -- -- --
0000:             00                                        .           
```

#### Opcodes

```
  0: 0x0004 [0x00] END_REQSTACK()
```

### Event 154

#### Metadata

| Field        | Value   |
|--------------|---------|
| Entrypoint   | 0x0005  |
| Data Size    | 1 bytes |
| Instructions | 1       |

```
      00 01 02 03 04 05 06 07  08 09 0A 0B 0C 0D 0E 0F
      -- -- -- -- -- -- -- --  -- -- -- -- -- -- -- --
0000:                00                                      .          
```

#### Opcodes

```
  0: 0x0005 [0x00] END_REQSTACK()
```

### Event 38

#### Metadata

| Field        | Value   |
|--------------|---------|
| Entrypoint   | 0x0006  |
| Data Size    | 6 bytes |
| Instructions | 4       |

```
      00 01 02 03 04 05 06 07  08 09 0A 0B 0C 0D 0E 0F
      -- -- -- -- -- -- -- --  -- -- -- -- -- -- -- --
0000:                   1D 01  80 23 21 00                    ...#!.    
```

#### Opcodes

```
  0: 0x0006 [0x1D] PRINT_EVENT_MESSAGE(message_id=8525*)
    → "Oh, what should I do!? I don't want to regretaru not telling her, but what if she laughed at me? I could never-ever face her again!"
  1: 0x0009 [0x23] WAIT_FOR_DIALOG_INTERACTION
  2: 0x000A [0x21] END_EVENT
  3: 0x000B [0x00] END_REQSTACK()
```

### Event 39

#### Metadata

| Field        | Value    |
|--------------|----------|
| Entrypoint   | 0x000C   |
| Data Size    | 33 bytes |
| Instructions | 9        |

```
      00 01 02 03 04 05 06 07  08 09 0A 0B 0C 0D 0E 0F
      -- -- -- -- -- -- -- --  -- -- -- -- -- -- -- --
0000:                                      1E F0 FF FF              ....
0010: 7F 6F 70 66 02 80 F8 FF  FF 7F F8 FF FF 7F 74 6C  .opf..........tl
0020: 6B 30 03 02 10 03 80 1D  04 80 23 21 00           k0........#!.   
```

#### Opcodes

```
  0: 0x000C [0x1E] EventEntity looks at LocalPlayer and starts talking
  1: 0x0011 [0x6F] WAIT_FRAME_DELAY: Yield until WaitTime reaches zero
  2: 0x0012 [0x70] WAIT_ENTITY_RENDER_FLAG: Wait while EventEntity->Render.Flags3 bit 2 is set (cancel turn if not)
  3: 0x0013 [0x66] LOAD_EXT_SCHEDULER_MAIN: Load scheduler "tlk0" with entities [EventEntity, EventEntity], work=40*
  4: 0x0022 [0x03] Work_Zone[2] = 476*
  5: 0x0027 [0x1D] PRINT_EVENT_MESSAGE(message_id=8526*)
    → "Please, <Player>! You've got to go to the Boyahda Tree and get that $3! A miracle is my only hope!"
  6: 0x002A [0x23] WAIT_FOR_DIALOG_INTERACTION
  7: 0x002B [0x21] END_EVENT
  8: 0x002C [0x00] END_REQSTACK()
```

### Event 36

#### Metadata

| Field        | Value    |
|--------------|----------|
| Entrypoint   | 0x002D   |
| Data Size    | 33 bytes |
| Instructions | 9        |

```
      00 01 02 03 04 05 06 07  08 09 0A 0B 0C 0D 0E 0F
      -- -- -- -- -- -- -- --  -- -- -- -- -- -- -- --
0020:                                         1E F0 FF               ...
0030: FF 7F 6F 70 66 02 80 F8  FF FF 7F F8 FF FF 7F 74  ..opf..........t
0040: 6C 6B 30 03 02 10 03 80  1D 05 80 23 21 00        lk0........#!.  
```

#### Opcodes

```
  0: 0x002D [0x1E] EventEntity looks at LocalPlayer and starts talking
  1: 0x0032 [0x6F] WAIT_FRAME_DELAY: Yield until WaitTime reaches zero
  2: 0x0033 [0x70] WAIT_ENTITY_RENDER_FLAG: Wait while EventEntity->Render.Flags3 bit 2 is set (cancel turn if not)
  3: 0x0034 [0x66] LOAD_EXT_SCHEDULER_MAIN: Load scheduler "tlk0" with entities [EventEntity, EventEntity], work=40*
  4: 0x0043 [0x03] Work_Zone[2] = 476*
  5: 0x0048 [0x1D] PRINT_EVENT_MESSAGE(message_id=8527*)
    → "There is a place deepy-creepy in the Boyahda Tree where the moonlight shines down through the leaves. Legend says that if in that moonlight you offer a prayer to the gods, they will grant you with a single $3."
  6: 0x004B [0x23] WAIT_FOR_DIALOG_INTERACTION
  7: 0x004C [0x21] END_EVENT
  8: 0x004D [0x00] END_REQSTACK()
```

### Event 37

#### Metadata

| Field        | Value     |
|--------------|-----------|
| Entrypoint   | 0x004E    |
| Data Size    | 150 bytes |
| Instructions | 28        |

```
      00 01 02 03 04 05 06 07  08 09 0A 0B 0C 0D 0E 0F
      -- -- -- -- -- -- -- --  -- -- -- -- -- -- -- --
0040:                                            1E F0                ..
0050: FF FF 7F 6F 70 66 02 80  F8 FF FF 7F F8 FF FF 7F  ...opf..........
0060: 74 68 6B 31 1D 06 80 23  24 07 80 08 80 08 80 25  thk1...#$......%
0070: 66 02 80 F8 FF FF 7F F8  FF FF 7F 74 68 6B 32 02  f..........thk2.
0080: 00 10 08 80 00 8E 00 1D  09 80 23 01 9D 00 02 00  ..........#.....
0090: 10 0A 80 00 9D 00 1D 0B  80 23 01 9D 00 66 02 80  .........#...f..
00A0: F8 FF FF 7F F8 FF FF 7F  69 72 6F 30 1D 0C 80 23  ........iro0...#
00B0: 53 F8 FF FF 7F F8 FF FF  7F 69 72 6F 30 1D 0D 80  S........iro0...
00C0: 66 02 80 F8 FF FF 7F F8  FF FF 7F 7A 69 74 30 53  f..........zit0S
00D0: F8 FF FF 7F F8 FF FF 7F  7A 69 74 30 5E 69 64 6C  ........zit0^idl
00E0: 30 23 21 00                                       0#!.            
```

#### Opcodes

```
  0: 0x004E [0x1E] EventEntity looks at LocalPlayer and starts talking
  1: 0x0053 [0x6F] WAIT_FRAME_DELAY: Yield until WaitTime reaches zero
  2: 0x0054 [0x70] WAIT_ENTITY_RENDER_FLAG: Wait while EventEntity->Render.Flags3 bit 2 is set (cancel turn if not)
  3: 0x0055 [0x66] LOAD_EXT_SCHEDULER_MAIN: Load scheduler "thk1" with entities [EventEntity, EventEntity], work=40*
  4: 0x0064 [0x1D] PRINT_EVENT_MESSAGE(message_id=8555*)
    → "Hmmm... So, do you think she understood how I feel?"
  5: 0x0067 [0x23] WAIT_FOR_DIALOG_INTERACTION
  6: 0x0068 [0x24] CREATE_DIALOG(message_id=8556*, default_option=0*, option_flags=0*)
    → "How did he do? [Great!/Terrible!]"
  7: 0x006F [0x25] WAIT_DIALOG_SELECT()
  8: 0x0070 [0x66] LOAD_EXT_SCHEDULER_MAIN: Load scheduler "thk2" with entities [EventEntity, EventEntity], work=40*
  9: 0x007F [0x02] IF !(Work_Zone[0] == 0*) GOTO 0x008E
 10: 0x0087 [0x1D] PRINT_EVENT_MESSAGE(message_id=8557*)
    → "Really-willy? Yeah, I'm what they call a "smooth operator.""
 11: 0x008A [0x23] WAIT_FOR_DIALOG_INTERACTION
 12: 0x008B [0x01] GOTO 0x009D
 13: 0x008E [0x02] IF !(Work_Zone[0] == 1*) GOTO 0x009D
 14: 0x0096 [0x1D] PRINT_EVENT_MESSAGE(message_id=8558*)
    → "Terrible, huh? But I don't think I could pull off something like that again. Just the thought of it turns my face all reddy-weddy with embarrassment!"
 15: 0x0099 [0x23] WAIT_FOR_DIALOG_INTERACTION
 16: 0x009A [0x01] GOTO 0x009D

SUBROUTINE_009D:
 17: 0x009D [0x66] LOAD_EXT_SCHEDULER_MAIN: Load scheduler "iro0" with entities [EventEntity, EventEntity], work=40*
 18: 0x00AC [0x1D] PRINT_EVENT_MESSAGE(message_id=8559*)
    → "However, as long as Chululu is working here beside me, I'm as happy as a happy Taru can be!"
 19: 0x00AF [0x23] WAIT_FOR_DIALOG_INTERACTION
 20: 0x00B0 [0x53] WAIT_SCHEDULER_TASK: Wait for scheduler "iro0" with entities [EventEntity, EventEntity]
 21: 0x00BD [0x1D] PRINT_EVENT_MESSAGE(message_id=8560*)
    → "Now, don'taru you go telling Chululu I said that!"
 22: 0x00C0 [0x66] LOAD_EXT_SCHEDULER_MAIN: Load scheduler "zit0" with entities [EventEntity, EventEntity], work=40*
 23: 0x00CF [0x53] WAIT_SCHEDULER_TASK: Wait for scheduler "zit0" with entities [EventEntity, EventEntity]
 24: 0x00DC [0x5E] EventEntity goes idle (kills current action) (animation: "idl0")
 25: 0x00E1 [0x23] WAIT_FOR_DIALOG_INTERACTION
 26: 0x00E2 [0x21] END_EVENT
 27: 0x00E3 [0x00] END_REQSTACK()
```

### Event 65535.1

#### Metadata

| Field        | Value    |
|--------------|----------|
| Entrypoint   | 0x00E4   |
| Data Size    | 10 bytes |
| Instructions | 2        |

```
      00 01 02 03 04 05 06 07  08 09 0A 0B 0C 0D 0E 0F
      -- -- -- -- -- -- -- --  -- -- -- -- -- -- -- --
00E0:             37 0E 80 0F  80 10 80 11 80 00            7.........  
```

#### Opcodes

```
  0: 0x00E4 [0x37] UPDATE_EVENT_POSITION_AND_DIR: x=-15.841*, z=-33.844*, y=-5.999*, direction=124.7°*
  1: 0x00ED [0x00] END_REQSTACK()
```

### Event 193

#### Metadata

| Field        | Value    |
|--------------|----------|
| Entrypoint   | 0x00EE   |
| Data Size    | 28 bytes |
| Instructions | 8        |

```
      00 01 02 03 04 05 06 07  08 09 0A 0B 0C 0D 0E 0F
      -- -- -- -- -- -- -- --  -- -- -- -- -- -- -- --
00E0:                                            1E F0                ..
00F0: FF FF 7F 6F 70 66 02 80  F8 FF FF 7F F8 FF FF 7F  ...opf..........
0100: 74 6C 6B 30 1D 12 80 23  21 00                    tlk0...#!.      
```

#### Opcodes

```
  0: 0x00EE [0x1E] EventEntity looks at LocalPlayer and starts talking
  1: 0x00F3 [0x6F] WAIT_FRAME_DELAY: Yield until WaitTime reaches zero
  2: 0x00F4 [0x70] WAIT_ENTITY_RENDER_FLAG: Wait while EventEntity->Render.Flags3 bit 2 is set (cancel turn if not)
  3: 0x00F5 [0x66] LOAD_EXT_SCHEDULER_MAIN: Load scheduler "tlk0" with entities [EventEntity, EventEntity], work=40*
  4: 0x0104 [0x1D] PRINT_EVENT_MESSAGE(message_id=7494*)
    → "Welcome! You stand before Kurou-Morou the Magnificentaru! Speak to me, and all will be revealed."
  5: 0x0107 [0x23] WAIT_FOR_DIALOG_INTERACTION
  6: 0x0108 [0x21] END_EVENT
  7: 0x0109 [0x00] END_REQSTACK()
```

### Event 194

#### Metadata

| Field        | Value   |
|--------------|---------|
| Entrypoint   | 0x010A  |
| Data Size    | 1 bytes |
| Instructions | 1       |

```
      00 01 02 03 04 05 06 07  08 09 0A 0B 0C 0D 0E 0F
      -- -- -- -- -- -- -- --  -- -- -- -- -- -- -- --
0100:                                00                           .     
```

#### Opcodes

```
  0: 0x010A [0x00] END_REQSTACK()
```

### Event 191

#### Metadata

| Field        | Value    |
|--------------|----------|
| Entrypoint   | 0x010B   |
| Data Size    | 46 bytes |
| Instructions | 14       |

```
      00 01 02 03 04 05 06 07  08 09 0A 0B 0C 0D 0E 0F
      -- -- -- -- -- -- -- --  -- -- -- -- -- -- -- --
0100:                                   1E F0 FF FF 7F             .....
0110: 6F 70 66 02 80 F8 FF FF  7F F8 FF FF 7F 74 6C 6B  opf..........tlk
0120: 30 03 08 10 13 80 03 09  10 14 80 1D 15 80 23 1D  0.............#.
0130: 16 80 23 1D 17 80 23 21  00                       ..#...#!.       
```

#### Opcodes

```
  0: 0x010B [0x1E] EventEntity looks at LocalPlayer and starts talking
  1: 0x0110 [0x6F] WAIT_FRAME_DELAY: Yield until WaitTime reaches zero
  2: 0x0111 [0x70] WAIT_ENTITY_RENDER_FLAG: Wait while EventEntity->Render.Flags3 bit 2 is set (cancel turn if not)
  3: 0x0112 [0x66] LOAD_EXT_SCHEDULER_MAIN: Load scheduler "tlk0" with entities [EventEntity, EventEntity], work=40*
  4: 0x0121 [0x03] Work_Zone[8] = 557*
  5: 0x0126 [0x03] Work_Zone[9] = 556*
  6: 0x012B [0x1D] PRINT_EVENT_MESSAGE(message_id=7500*)
    → "I require $6 in order to constructaru your $7."
  7: 0x012E [0x23] WAIT_FOR_DIALOG_INTERACTION
  8: 0x012F [0x1D] PRINT_EVENT_MESSAGE(message_id=7501*)
    → "Immerse the $6 in the pool of holy water inside the Maze of Shakhrami. After a time, it will become a $7."
  9: 0x0132 [0x23] WAIT_FOR_DIALOG_INTERACTION
 10: 0x0133 [0x1D] PRINT_EVENT_MESSAGE(message_id=7502*)
    → "I will keep your $7 safe here in my abode, ready for divining your future at any time. Farewell, and may fortune smile upon you!"
 11: 0x0136 [0x23] WAIT_FOR_DIALOG_INTERACTION
 12: 0x0137 [0x21] END_EVENT
 13: 0x0138 [0x00] END_REQSTACK()
```

### Event 192

#### Metadata

| Field        | Value    |
|--------------|----------|
| Entrypoint   | 0x0139   |
| Data Size    | 29 bytes |
| Instructions | 12       |

```
      00 01 02 03 04 05 06 07  08 09 0A 0B 0C 0D 0E 0F
      -- -- -- -- -- -- -- --  -- -- -- -- -- -- -- --
0130:                             20 01 1E F0 FF FF 7F            ......
0140: 6F 70 03 08 10 13 80 03  09 10 14 80 1D 18 80 23  op.............#
0150: 1D 19 80 23 21 00                                 ...#!.          
```

#### Opcodes

```
  0: 0x0139 [0x20] SET_CLI_EVENT_UC_FLAG: Lock player control
  1: 0x013B [0x1E] EventEntity looks at LocalPlayer and starts talking
  2: 0x0140 [0x6F] WAIT_FRAME_DELAY: Yield until WaitTime reaches zero
  3: 0x0141 [0x70] WAIT_ENTITY_RENDER_FLAG: Wait while EventEntity->Render.Flags3 bit 2 is set (cancel turn if not)
  4: 0x0142 [0x03] Work_Zone[8] = 557*
  5: 0x0147 [0x03] Work_Zone[9] = 556*
  6: 0x014C [0x1D] PRINT_EVENT_MESSAGE(message_id=7503*)
    → "Why, this is $6 of high quality! Take this and immerse it in the pool of holy water inside the Maze of Shakhrami."
  7: 0x014F [0x23] WAIT_FOR_DIALOG_INTERACTION
  8: 0x0150 [0x1D] PRINT_EVENT_MESSAGE(message_id=7504*)
    → "Only then will it be purged of impurities, and become a $7. Good luck!"
  9: 0x0153 [0x23] WAIT_FOR_DIALOG_INTERACTION
 10: 0x0154 [0x21] END_EVENT
 11: 0x0155 [0x00] END_REQSTACK()
```

### Event 202

#### Metadata

| Field        | Value    |
|--------------|----------|
| Entrypoint   | 0x0156   |
| Data Size    | 78 bytes |
| Instructions | 27       |

```
      00 01 02 03 04 05 06 07  08 09 0A 0B 0C 0D 0E 0F
      -- -- -- -- -- -- -- --  -- -- -- -- -- -- -- --
0150:                   20 01  42 1E F0 FF FF 7F 6F 70         .B.....op
0160: 03 09 10 1A 80 1D 1B 80  23 1D 1C 80 23 1D 1D 80  ........#...#...
0170: 23 42 24 1E 80 08 80 08  80 25 02 00 10 08 80 00  #B$......%......
0180: 8E 01 1D 1F 80 23 03 01  10 08 80 01 A2 01 02 00  .....#..........
0190: 10 0A 80 00 A2 01 1D 20  80 23 03 01 10 0A 80 01  ....... .#......
01A0: A2 01 21 00                                       ..!.            
```

#### Opcodes

```
  0: 0x0156 [0x20] SET_CLI_EVENT_UC_FLAG: Lock player control
  1: 0x0158 [0x42] SET_CLI_EVENT_CANCEL_DATA()
  2: 0x0159 [0x1E] EventEntity looks at LocalPlayer and starts talking
  3: 0x015E [0x6F] WAIT_FRAME_DELAY: Yield until WaitTime reaches zero
  4: 0x015F [0x70] WAIT_ENTITY_RENDER_FLAG: Wait while EventEntity->Render.Flags3 bit 2 is set (cancel turn if not)
  5: 0x0160 [0x03] Work_Zone[9] = 12507*
  6: 0x0165 [0x1D] PRINT_EVENT_MESSAGE(message_id=7546*)
    → "I'm so happy you came. You see, I've got a favor I only ask of my best clients."
  7: 0x0168 [0x23] WAIT_FOR_DIALOG_INTERACTION
  8: 0x0169 [0x1D] PRINT_EVENT_MESSAGE(message_id=7547*)
    → "Last magic rubbish day, I accidentally threw out my $7. Oh, if that imposter-woster Chululu found out, it'd be the end of me!"
  9: 0x016C [0x23] WAIT_FOR_DIALOG_INTERACTION
 10: 0x016D [0x1D] PRINT_EVENT_MESSAGE(message_id=7548*)
    → "That's where you come intaru! I need you to procure another one just like it. And of course, I'll reward you handsomely. Well? What do you say?"
 11: 0x0170 [0x23] WAIT_FOR_DIALOG_INTERACTION
 12: 0x0171 [0x42] SET_CLI_EVENT_CANCEL_DATA()
 13: 0x0172 [0x24] CREATE_DIALOG(message_id=7549*, default_option=0*, option_flags=0*)
    → "Do you accept? [With pleasure./Sorry, I'm busy.]"
 14: 0x0179 [0x25] WAIT_DIALOG_SELECT()
 15: 0x017A [0x02] IF !(Work_Zone[0] == 0*) GOTO 0x018E
 16: 0x0182 [0x1D] PRINT_EVENT_MESSAGE(message_id=7550*)
    → "A thousand thanks, my dear clientaru! I wish you the best in this endeavor-wevor! Oh, and don't say a word to Chululu, I beg you!"
 17: 0x0185 [0x23] WAIT_FOR_DIALOG_INTERACTION
 18: 0x0186 [0x03] Work_Zone[1] = 0*
 19: 0x018B [0x01] GOTO 0x01A2
 20: 0x018E [0x02] IF !(Work_Zone[0] == 1*) GOTO 0x01A2
 21: 0x0196 [0x1D] PRINT_EVENT_MESSAGE(message_id=7551*)
    → "Too busy, eh? Pity. Now what am I to do...?"
 22: 0x0199 [0x23] WAIT_FOR_DIALOG_INTERACTION
 23: 0x019A [0x03] Work_Zone[1] = 1*
 24: 0x019F [0x01] GOTO 0x01A2

SUBROUTINE_01A2:
 25: 0x01A2 [0x21] END_EVENT
 26: 0x01A3 [0x00] END_REQSTACK()
```

### Event 203

#### Metadata

| Field        | Value    |
|--------------|----------|
| Entrypoint   | 0x01A4   |
| Data Size    | 21 bytes |
| Instructions | 10       |

```
      00 01 02 03 04 05 06 07  08 09 0A 0B 0C 0D 0E 0F
      -- -- -- -- -- -- -- --  -- -- -- -- -- -- -- --
01A0:             20 01 42 1E  F0 FF FF 7F 6F 70 03 09       .B.....op..
01B0: 10 1A 80 1D 21 80 23 21  00                       ....!.#!.       
```

#### Opcodes

```
  0: 0x01A4 [0x20] SET_CLI_EVENT_UC_FLAG: Lock player control
  1: 0x01A6 [0x42] SET_CLI_EVENT_CANCEL_DATA()
  2: 0x01A7 [0x1E] EventEntity looks at LocalPlayer and starts talking
  3: 0x01AC [0x6F] WAIT_FRAME_DELAY: Yield until WaitTime reaches zero
  4: 0x01AD [0x70] WAIT_ENTITY_RENDER_FLAG: Wait while EventEntity->Render.Flags3 bit 2 is set (cancel turn if not)
  5: 0x01AE [0x03] Work_Zone[9] = 12507*
  6: 0x01B3 [0x1D] PRINT_EVENT_MESSAGE(message_id=7552*)
    → "I knew I could count on you. I can't sleep without my $7!"
  7: 0x01B6 [0x23] WAIT_FOR_DIALOG_INTERACTION
  8: 0x01B7 [0x21] END_EVENT
  9: 0x01B8 [0x00] END_REQSTACK()
```

### Event 201

#### Metadata

| Field        | Value    |
|--------------|----------|
| Entrypoint   | 0x01B9   |
| Data Size    | 33 bytes |
| Instructions | 10       |

```
      00 01 02 03 04 05 06 07  08 09 0A 0B 0C 0D 0E 0F
      -- -- -- -- -- -- -- --  -- -- -- -- -- -- -- --
01B0:                             20 01 42 1E F0 FF FF            .B....
01C0: 7F 6F 70 1D 22 80 23 45  23 80 F0 FF FF 7F F0 FF  .op.".#E#.......
01D0: FF 7F 71 73 74 63 08 80  21 00                    ..qstc..!.      
```

#### Opcodes

```
  0: 0x01B9 [0x20] SET_CLI_EVENT_UC_FLAG: Lock player control
  1: 0x01BB [0x42] SET_CLI_EVENT_CANCEL_DATA()
  2: 0x01BC [0x1E] EventEntity looks at LocalPlayer and starts talking
  3: 0x01C1 [0x6F] WAIT_FRAME_DELAY: Yield until WaitTime reaches zero
  4: 0x01C2 [0x70] WAIT_ENTITY_RENDER_FLAG: Wait while EventEntity->Render.Flags3 bit 2 is set (cancel turn if not)
  5: 0x01C3 [0x1D] PRINT_EVENT_MESSAGE(message_id=7553*)
    → "Why, thank you so much! You have my dearest gratitude. Please, accept this with my thanks."
  6: 0x01C6 [0x23] WAIT_FOR_DIALOG_INTERACTION
  7: 0x01C7 [0x45] LOAD_SCHEDULED_TASK: Load scheduler "qstc" with entities [LocalPlayer, LocalPlayer], work=[201*, 0*]
  8: 0x01D8 [0x21] END_EVENT
  9: 0x01D9 [0x00] END_REQSTACK()
```

### Event 196

#### Metadata

| Field        | Value   |
|--------------|---------|
| Entrypoint   | 0x01DA  |
| Data Size    | 1 bytes |
| Instructions | 1       |

```
      00 01 02 03 04 05 06 07  08 09 0A 0B 0C 0D 0E 0F
      -- -- -- -- -- -- -- --  -- -- -- -- -- -- -- --
01D0:                                00                           .     
```

#### Opcodes

```
  0: 0x01DA [0x00] END_REQSTACK()
```

### Event 200

#### Metadata

| Field        | Value   |
|--------------|---------|
| Entrypoint   | 0x01DB  |
| Data Size    | 1 bytes |
| Instructions | 1       |

```
      00 01 02 03 04 05 06 07  08 09 0A 0B 0C 0D 0E 0F
      -- -- -- -- -- -- -- --  -- -- -- -- -- -- -- --
01D0:                                   00                         .    
```

#### Opcodes

```
  0: 0x01DB [0x00] END_REQSTACK()
```

### Event 65535.2

#### Metadata

| Field        | Value    |
|--------------|----------|
| Entrypoint   | 0x01DC   |
| Data Size    | 10 bytes |
| Instructions | 2        |

```
      00 01 02 03 04 05 06 07  08 09 0A 0B 0C 0D 0E 0F
      -- -- -- -- -- -- -- --  -- -- -- -- -- -- -- --
01D0:                                      37 24 80 25              7$.%
01E0: 80 10 80 26 80 00                                 ...&..          
```

#### Opcodes

```
  0: 0x01DC [0x37] UPDATE_EVENT_POSITION_AND_DIR: x=-10.131*, z=-37.125*, y=-5.999*, direction=115.0°*
  1: 0x01E5 [0x00] END_REQSTACK()
```

### Event 65535.3

#### Metadata

| Field        | Value    |
|--------------|----------|
| Entrypoint   | 0x01E6   |
| Data Size    | 37 bytes |
| Instructions | 9        |

```
      00 01 02 03 04 05 06 07  08 09 0A 0B 0C 0D 0E 0F
      -- -- -- -- -- -- -- --  -- -- -- -- -- -- -- --
01E0:                   1F 00  27 80 28 80 10 80 1F 01        ..'.(.....
01F0: 6F 4A 23 50 0F 01 22 50  0F 01 4A F0 FF FF 7F 22  oJ#P.."P..J...."
0200: 50 0F 01 1E F0 FF FF 7F  6F 70 00                 P.......op.     
```

#### Opcodes

```
  0: 0x01E6 [0x1F] MOVE_ENTITY: EventEntity moves to X=-12.247*, Z=-41.641*, Y=-5.999*
  1: 0x01EE [0x1F] MOVE_ENTITY: Update entity position (mode=1)
  2: 0x01F0 [0x6F] WAIT_FRAME_DELAY: Yield until WaitTime reaches zero
  3: 0x01F1 [0x4A] Chululu (ID: 17780771/0x010F5023) looks at Kurou-Morou (ID: 17780770/0x010F5022)
  4: 0x01FA [0x4A] LocalPlayer looks at Kurou-Morou (ID: 17780770/0x010F5022)
  5: 0x0203 [0x1E] EventEntity looks at LocalPlayer and starts talking
  6: 0x0208 [0x6F] WAIT_FRAME_DELAY: Yield until WaitTime reaches zero
  7: 0x0209 [0x70] WAIT_ENTITY_RENDER_FLAG: Wait while EventEntity->Render.Flags3 bit 2 is set (cancel turn if not)
  8: 0x020A [0x00] END_REQSTACK()
```

### Event 65535.4

#### Metadata

| Field        | Value    |
|--------------|----------|
| Entrypoint   | 0x020B   |
| Data Size    | 13 bytes |
| Instructions | 4        |

```
      00 01 02 03 04 05 06 07  08 09 0A 0B 0C 0D 0E 0F
      -- -- -- -- -- -- -- --  -- -- -- -- -- -- -- --
0200:                                   1F 00 29 80 2A             ..).*
0210: 80 2B 80 1F 01 22 01 00                           .+..."..        
```

#### Opcodes

```
  0: 0x020B [0x1F] MOVE_ENTITY: EventEntity moves to X=-9.845*, Z=-38.479*, Y=-6.000*
  1: 0x0213 [0x1F] MOVE_ENTITY: Update entity position (mode=1)
  2: 0x0215 [0x22] ENTITY_HIDE_FLAG(enabled=0x01)
  3: 0x0217 [0x00] END_REQSTACK()
```

### Event 204

#### Metadata

| Field        | Value     |
|--------------|-----------|
| Entrypoint   | 0x0218    |
| Data Size    | 974 bytes |
| Instructions | 241       |

```
      00 01 02 03 04 05 06 07  08 09 0A 0B 0C 0D 0E 0F
      -- -- -- -- -- -- -- --  -- -- -- -- -- -- -- --
0210:                          1E F0 FF FF 7F 6F 70 1D          .....op.
0220: 2C 80 23 24 2D 80 0A 80  08 80 25 02 00 10 08 80  ,.#$-.....%.....
0230: 00 90 02 42 1D 2E 80 23  7B F8 FF FF 7F 39 2F 80  ...B...#{....9/.
0240: 6F 70 66 30 80 F8 FF FF  7F F8 FF FF 7F 73 68 61  opf0.........sha
0250: 30 1C 31 80 45 32 80 F0  FF FF 7F F0 FF FF 7F 73  0.1.E2.........s
0260: 65 74 6D 08 80 2D F8 FF  FF 7F F8 FF FF 7F 73 63  etm..-........sc
0270: 30 30 43 00 43 01 66 30  80 F8 FF FF 7F F8 FF FF  00C.C.f0........
0280: 7F 73 68 61 31 1A A6 02  03 01 10 08 80 01 A4 02  .sha1...........
0290: 02 00 10 0A 80 00 A4 02  1D 33 80 23 03 01 10 34  .........3.#...4
02A0: 80 01 A4 02 21 00 03 00  00 02 10 03 06 00 00 00  ....!...........
02B0: 15 06 00 35 80 3F 07 00  00 00 35 80 03 08 00 06  ...5.?....5.....
02C0: 00 03 01 00 08 80 1A 1A  03 03 08 00 07 00 03 01  ................
02D0: 00 0A 80 1A 1A 03 03 04  00 06 00 14 04 00 07 00  ................
02E0: 15 04 00 35 80 03 08 00  04 00 03 01 00 36 80 1A  ...5.........6..
02F0: 1A 03 02 06 00 07 00 04  07 03 03 05 00 06 00 08  ................
0300: 05 00 07 00 01 11 03 03  05 00 07 00 08 05 00 06  ................
0310: 00 03 08 00 05 00 1A 4B  05 1B 02 08 00 08 80 80  .......K........
0320: 52 03 02 01 00 08 80 80  31 03 48 37 80 23 01 4F  R.......1.H7.#.O
0330: 03 02 01 00 0A 80 80 40  03 48 38 80 23 01 4F 03  .......@.H8.#.O.
0340: 02 01 00 36 80 80 4F 03  48 39 80 23 01 4F 03 01  ...6..O.H9.#.O..
0350: 4A 05 02 08 00 0A 80 80  8A 03 02 01 00 08 80 80  J...............
0360: 69 03 48 3A 80 23 01 87  03 02 01 00 0A 80 80 78  i.H:.#.........x
0370: 03 48 3B 80 23 01 87 03  02 01 00 36 80 80 87 03  .H;.#......6....
0380: 48 3C 80 23 01 87 03 01  4A 05 02 08 00 36 80 80  H<.#....J....6..
0390: C2 03 02 01 00 08 80 80  A1 03 48 3D 80 23 01 BF  ..........H=.#..
03A0: 03 02 01 00 0A 80 80 B0  03 48 3E 80 23 01 BF 03  .........H>.#...
03B0: 02 01 00 36 80 80 BF 03  48 3F 80 23 01 BF 03 01  ...6....H?.#....
03C0: 4A 05 02 08 00 40 80 80  FA 03 02 01 00 08 80 80  J....@..........
03D0: D9 03 48 41 80 23 01 F7  03 02 01 00 0A 80 80 E8  ..HA.#..........
03E0: 03 48 42 80 23 01 F7 03  02 01 00 36 80 80 F7 03  .HB.#......6....
03F0: 48 43 80 23 01 F7 03 01  4A 05 02 08 00 44 80 80  HC.#....J....D..
0400: 32 04 02 01 00 08 80 80  11 04 48 37 80 23 01 2F  2.........H7.#./
0410: 04 02 01 00 0A 80 80 20  04 48 38 80 23 01 2F 04  ....... .H8.#./.
0420: 02 01 00 36 80 80 2F 04  48 39 80 23 01 2F 04 01  ...6../.H9.#./..
0430: 4A 05 02 08 00 45 80 80  6A 04 02 01 00 08 80 80  J....E..j.......
0440: 49 04 48 3A 80 23 01 67  04 02 01 00 0A 80 80 58  I.H:.#.g.......X
0450: 04 48 3B 80 23 01 67 04  02 01 00 36 80 80 67 04  .H;.#.g....6..g.
0460: 48 3C 80 23 01 67 04 01  4A 05 02 08 00 46 80 80  H<.#.g..J....F..
0470: A2 04 02 01 00 08 80 80  81 04 48 3D 80 23 01 9F  ..........H=.#..
0480: 04 02 01 00 0A 80 80 90  04 48 3E 80 23 01 9F 04  .........H>.#...
0490: 02 01 00 36 80 80 9F 04  48 3F 80 23 01 9F 04 01  ...6....H?.#....
04A0: 4A 05 02 08 00 47 80 80  DA 04 02 01 00 08 80 80  J....G..........
04B0: B9 04 48 41 80 23 01 D7  04 02 01 00 0A 80 80 C8  ..HA.#..........
04C0: 04 48 42 80 23 01 D7 04  02 01 00 36 80 80 D7 04  .HB.#......6....
04D0: 48 43 80 23 01 D7 04 01  4A 05 02 08 00 48 80 80  HC.#....J....H..
04E0: 12 05 02 01 00 08 80 80  F1 04 48 37 80 23 01 0F  ..........H7.#..
04F0: 05 02 01 00 0A 80 80 00  05 48 38 80 23 01 0F 05  .........H8.#...
0500: 02 01 00 36 80 80 0F 05  48 39 80 23 01 0F 05 01  ...6....H9.#....
0510: 4A 05 02 08 00 49 80 80  4A 05 02 01 00 08 80 80  J....I..J.......
0520: 29 05 48 3A 80 23 01 47  05 02 01 00 0A 80 80 38  ).H:.#.G.......8
0530: 05 48 3B 80 23 01 47 05  02 01 00 36 80 80 47 05  .H;.#.G....6..G.
0540: 48 3C 80 23 01 47 05 01  4A 05 1B 02 08 00 08 80  H<.#.G..J.......
0550: 80 5A 05 48 4A 80 23 01  E5 05 02 08 00 0A 80 80  .Z.HJ.#.........
0560: 69 05 48 4B 80 23 01 E5  05 02 08 00 36 80 80 78  i.HK.#......6..x
0570: 05 48 4C 80 23 01 E5 05  02 08 00 40 80 80 87 05  .HL.#......@....
0580: 48 4D 80 23 01 E5 05 02  08 00 44 80 80 96 05 48  HM.#......D....H
0590: 4E 80 23 01 E5 05 02 08  00 45 80 80 A5 05 48 4F  N.#......E....HO
05A0: 80 23 01 E5 05 02 08 00  46 80 80 B4 05 48 50 80  .#......F....HP.
05B0: 23 01 E5 05 02 08 00 47  80 80 C3 05 48 51 80 23  #......G....HQ.#
05C0: 01 E5 05 02 08 00 48 80  80 D2 05 48 52 80 23 01  ......H....HR.#.
05D0: E5 05 02 08 00 49 80 80  E1 05 48 53 80 23 01 E5  .....I....HS.#..
05E0: 05 48 54 80 23 1B                                 .HT.#.          
```

#### Opcodes

```
  0: 0x0218 [0x1E] EventEntity looks at LocalPlayer and starts talking
  1: 0x021D [0x6F] WAIT_FRAME_DELAY: Yield until WaitTime reaches zero
  2: 0x021E [0x70] WAIT_ENTITY_RENDER_FLAG: Wait while EventEntity->Render.Flags3 bit 2 is set (cancel turn if not)
  3: 0x021F [0x1D] PRINT_EVENT_MESSAGE(message_id=7519*)
    → "Shall I read your fortune?"
  4: 0x0222 [0x23] WAIT_FOR_DIALOG_INTERACTION
  5: 0x0223 [0x24] CREATE_DIALOG(message_id=7520*, default_option=1*, option_flags=0*)
    → "Hear your fortune? [Sure./Not now.]"
  6: 0x022A [0x25] WAIT_DIALOG_SELECT()
  7: 0x022B [0x02] IF !(Work_Zone[0] == 0*) GOTO 0x0290
  8: 0x0233 [0x42] SET_CLI_EVENT_CANCEL_DATA()
  9: 0x0234 [0x1D] PRINT_EVENT_MESSAGE(message_id=7521*)
    → "Ahem. Very well..."
 10: 0x0237 [0x23] WAIT_FOR_DIALOG_INTERACTION
 11: 0x0238 [0x7B] EventEntity stops talking
 12: 0x023D [0x39] SET_ENTITY_DIRECTION(direction=13.5°*)
 13: 0x0240 [0x6F] WAIT_FRAME_DELAY: Yield until WaitTime reaches zero
 14: 0x0241 [0x70] WAIT_ENTITY_RENDER_FLAG: Wait while EventEntity->Render.Flags3 bit 2 is set (cancel turn if not)
 15: 0x0242 [0x66] LOAD_EXT_SCHEDULER_MAIN: Load scheduler "sha0" with entities [EventEntity, EventEntity], work=42*
 16: 0x0251 [0x1C] WAIT(60* ticks)
 17: 0x0254 [0x45] LOAD_SCHEDULED_TASK: Load scheduler "setm" with entities [LocalPlayer, LocalPlayer], work=[145*, 0*]
 18: 0x0265 [0x2D] CREATE_ZONE_SCHEDULER_TASK: Create scheduler "sc00" with entities [EventEntity, EventEntity]
 19: 0x0272 [0x43] SEND_EVENT_UPDATE: Send pending tag to server (packet 0x005B)
 20: 0x0274 [0x43] SEND_EVENT_UPDATE: Check pending flag (skip if not pending)
 21: 0x0276 [0x66] LOAD_EXT_SCHEDULER_MAIN: Load scheduler "sha1" with entities [EventEntity, EventEntity], work=42*
 22: 0x0285 [0x1A] CALL_SUBROUTINE(address=0x02A6)
 23: 0x0288 [0x03] Work_Zone[1] = 0*
 24: 0x028D [0x01] GOTO 0x02A4
 25: 0x0290 [0x02] IF !(Work_Zone[0] == 1*) GOTO 0x02A4
 26: 0x0298 [0x1D] PRINT_EVENT_MESSAGE(message_id=7522*)
    → "Please come again."
 27: 0x029B [0x23] WAIT_FOR_DIALOG_INTERACTION
 28: 0x029C [0x03] Work_Zone[1] = 1073741824*
 29: 0x02A1 [0x01] GOTO 0x02A4

SUBROUTINE_02A4:
 30: 0x02A4 [0x21] END_EVENT
 31: 0x02A5 [0x00] END_REQSTACK()

SUBROUTINE_02A6:
 32: 0x02A6 [0x03] ExtData[1]->WorkLocal[0] = Work_Zone[2]
 33: 0x02AB [0x03] ExtData[1]->WorkLocal[6] = ExtData[1]->WorkLocal[0]
 34: 0x02B0 [0x15] ExtData[1]->WorkLocal[6] /= 10*
 35: 0x02B5 [0x3F] ExtData[1]->WorkLocal[7] = ExtData[1]->WorkLocal[0] % 10*
 36: 0x02BC [0x03] ExtData[1]->WorkLocal[8] = ExtData[1]->WorkLocal[6]
 37: 0x02C1 [0x03] ExtData[1]->WorkLocal[1] = 0*
 38: 0x02C6 [0x1A] CALL_SUBROUTINE(address=0x031A)
 39: 0x02C9 [0x03] ExtData[1]->WorkLocal[8] = ExtData[1]->WorkLocal[7]
 40: 0x02CE [0x03] ExtData[1]->WorkLocal[1] = 1*
 41: 0x02D3 [0x1A] CALL_SUBROUTINE(address=0x031A)
 42: 0x02D6 [0x03] ExtData[1]->WorkLocal[4] = ExtData[1]->WorkLocal[6]
 43: 0x02DB [0x14] ExtData[1]->WorkLocal[4] *= ExtData[1]->WorkLocal[7]
 44: 0x02E0 [0x15] ExtData[1]->WorkLocal[4] /= 10*
 45: 0x02E5 [0x03] ExtData[1]->WorkLocal[8] = ExtData[1]->WorkLocal[4]
 46: 0x02EA [0x03] ExtData[1]->WorkLocal[1] = 2*
 47: 0x02EF [0x1A] CALL_SUBROUTINE(address=0x031A)
 48: 0x02F2 [0x02] IF !(ExtData[1]->WorkLocal[6] < ExtData[1]->WorkLocal[7]) GOTO 0x0307
 49: 0x02FA [0x03] ExtData[1]->WorkLocal[5] = ExtData[1]->WorkLocal[6]
 50: 0x02FF [0x08] ExtData[1]->WorkLocal[5] -= ExtData[1]->WorkLocal[7]
 51: 0x0304 [0x01] GOTO 0x0311
 52: 0x0307 [0x03] ExtData[1]->WorkLocal[5] = ExtData[1]->WorkLocal[7]
 53: 0x030C [0x08] ExtData[1]->WorkLocal[5] -= ExtData[1]->WorkLocal[6]

SUBROUTINE_0311:
 54: 0x0311 [0x03] ExtData[1]->WorkLocal[8] = ExtData[1]->WorkLocal[5]
 55: 0x0316 [0x1A] CALL_SUBROUTINE(address=0x054B)
 56: 0x0319 [0x1B] RETURN

SUBROUTINE_031A:
 57: 0x031A [0x02] IF !(ExtData[1]->WorkLocal[8] == 0*) GOTO 0x0352
 58: 0x0322 [0x02] IF !(ExtData[1]->WorkLocal[1] == 0*) GOTO 0x0331
 59: 0x032A [0x48] [System] [7523*]:
    → "General Signs: Poor."
 60: 0x032D [0x23] WAIT_FOR_DIALOG_INTERACTION
 61: 0x032E [0x01] GOTO 0x034F
 62: 0x0331 [0x02] IF !(ExtData[1]->WorkLocal[1] == 1*) GOTO 0x0340
 63: 0x0339 [0x48] [System] [7527*]:
    → "Financial Signs: Poor."
 64: 0x033C [0x23] WAIT_FOR_DIALOG_INTERACTION
 65: 0x033D [0x01] GOTO 0x034F
 66: 0x0340 [0x02] IF !(ExtData[1]->WorkLocal[1] == 2*) GOTO 0x034F
 67: 0x0348 [0x48] [System] [7531*]:
    → "Romance Signs: Poor."
 68: 0x034B [0x23] WAIT_FOR_DIALOG_INTERACTION
 69: 0x034C [0x01] GOTO 0x034F

SUBROUTINE_034F:
 70: 0x034F [0x01] GOTO 0x054A
 71: 0x0352 [0x02] IF !(ExtData[1]->WorkLocal[8] == 1*) GOTO 0x038A
 72: 0x035A [0x02] IF !(ExtData[1]->WorkLocal[1] == 0*) GOTO 0x0369
 73: 0x0362 [0x48] [System] [7524*]:
    → "General Signs: Fair."
 74: 0x0365 [0x23] WAIT_FOR_DIALOG_INTERACTION
 75: 0x0366 [0x01] GOTO 0x0387
 76: 0x0369 [0x02] IF !(ExtData[1]->WorkLocal[1] == 1*) GOTO 0x0378
 77: 0x0371 [0x48] [System] [7528*]:
    → "Financial Signs: Fair."
 78: 0x0374 [0x23] WAIT_FOR_DIALOG_INTERACTION
 79: 0x0375 [0x01] GOTO 0x0387
 80: 0x0378 [0x02] IF !(ExtData[1]->WorkLocal[1] == 2*) GOTO 0x0387
 81: 0x0380 [0x48] [System] [7532*]:
    → "Romance Signs: Fair."
 82: 0x0383 [0x23] WAIT_FOR_DIALOG_INTERACTION
 83: 0x0384 [0x01] GOTO 0x0387

SUBROUTINE_0387:
 84: 0x0387 [0x01] GOTO 0x054A
 85: 0x038A [0x02] IF !(ExtData[1]->WorkLocal[8] == 2*) GOTO 0x03C2
 86: 0x0392 [0x02] IF !(ExtData[1]->WorkLocal[1] == 0*) GOTO 0x03A1
 87: 0x039A [0x48] [System] [7525*]:
    → "General Signs: Favorable."
 88: 0x039D [0x23] WAIT_FOR_DIALOG_INTERACTION
 89: 0x039E [0x01] GOTO 0x03BF
 90: 0x03A1 [0x02] IF !(ExtData[1]->WorkLocal[1] == 1*) GOTO 0x03B0
 91: 0x03A9 [0x48] [System] [7529*]:
    → "Financial Signs: Favorable."
 92: 0x03AC [0x23] WAIT_FOR_DIALOG_INTERACTION
 93: 0x03AD [0x01] GOTO 0x03BF
 94: 0x03B0 [0x02] IF !(ExtData[1]->WorkLocal[1] == 2*) GOTO 0x03BF
 95: 0x03B8 [0x48] [System] [7533*]:
    → "Romance Signs: Favorable."
 96: 0x03BB [0x23] WAIT_FOR_DIALOG_INTERACTION
 97: 0x03BC [0x01] GOTO 0x03BF

SUBROUTINE_03BF:
 98: 0x03BF [0x01] GOTO 0x054A
 99: 0x03C2 [0x02] IF !(ExtData[1]->WorkLocal[8] == 3*) GOTO 0x03FA
100: 0x03CA [0x02] IF !(ExtData[1]->WorkLocal[1] == 0*) GOTO 0x03D9
101: 0x03D2 [0x48] [System] [7526*]:
    → "General Signs: Excellent."
102: 0x03D5 [0x23] WAIT_FOR_DIALOG_INTERACTION
103: 0x03D6 [0x01] GOTO 0x03F7
104: 0x03D9 [0x02] IF !(ExtData[1]->WorkLocal[1] == 1*) GOTO 0x03E8
105: 0x03E1 [0x48] [System] [7530*]:
    → "Financial Signs: Excellent."
106: 0x03E4 [0x23] WAIT_FOR_DIALOG_INTERACTION
107: 0x03E5 [0x01] GOTO 0x03F7
108: 0x03E8 [0x02] IF !(ExtData[1]->WorkLocal[1] == 2*) GOTO 0x03F7
109: 0x03F0 [0x48] [System] [7534*]:
    → "Romance Signs: Excellent."
110: 0x03F3 [0x23] WAIT_FOR_DIALOG_INTERACTION
111: 0x03F4 [0x01] GOTO 0x03F7

SUBROUTINE_03F7:
112: 0x03F7 [0x01] GOTO 0x054A
113: 0x03FA [0x02] IF !(ExtData[1]->WorkLocal[8] == 4*) GOTO 0x0432
114: 0x0402 [0x02] IF !(ExtData[1]->WorkLocal[1] == 0*) GOTO 0x0411
115: 0x040A [0x48] [System] [7523*]:
    → "General Signs: Poor."
116: 0x040D [0x23] WAIT_FOR_DIALOG_INTERACTION
117: 0x040E [0x01] GOTO 0x042F
118: 0x0411 [0x02] IF !(ExtData[1]->WorkLocal[1] == 1*) GOTO 0x0420
119: 0x0419 [0x48] [System] [7527*]:
    → "Financial Signs: Poor."
120: 0x041C [0x23] WAIT_FOR_DIALOG_INTERACTION
121: 0x041D [0x01] GOTO 0x042F
122: 0x0420 [0x02] IF !(ExtData[1]->WorkLocal[1] == 2*) GOTO 0x042F
123: 0x0428 [0x48] [System] [7531*]:
    → "Romance Signs: Poor."
124: 0x042B [0x23] WAIT_FOR_DIALOG_INTERACTION
125: 0x042C [0x01] GOTO 0x042F

SUBROUTINE_042F:
126: 0x042F [0x01] GOTO 0x054A
127: 0x0432 [0x02] IF !(ExtData[1]->WorkLocal[8] == 5*) GOTO 0x046A
128: 0x043A [0x02] IF !(ExtData[1]->WorkLocal[1] == 0*) GOTO 0x0449
129: 0x0442 [0x48] [System] [7524*]:
    → "General Signs: Fair."
130: 0x0445 [0x23] WAIT_FOR_DIALOG_INTERACTION
131: 0x0446 [0x01] GOTO 0x0467
132: 0x0449 [0x02] IF !(ExtData[1]->WorkLocal[1] == 1*) GOTO 0x0458
133: 0x0451 [0x48] [System] [7528*]:
    → "Financial Signs: Fair."
134: 0x0454 [0x23] WAIT_FOR_DIALOG_INTERACTION
135: 0x0455 [0x01] GOTO 0x0467
136: 0x0458 [0x02] IF !(ExtData[1]->WorkLocal[1] == 2*) GOTO 0x0467
137: 0x0460 [0x48] [System] [7532*]:
    → "Romance Signs: Fair."
138: 0x0463 [0x23] WAIT_FOR_DIALOG_INTERACTION
139: 0x0464 [0x01] GOTO 0x0467

SUBROUTINE_0467:
140: 0x0467 [0x01] GOTO 0x054A
141: 0x046A [0x02] IF !(ExtData[1]->WorkLocal[8] == 6*) GOTO 0x04A2
142: 0x0472 [0x02] IF !(ExtData[1]->WorkLocal[1] == 0*) GOTO 0x0481
143: 0x047A [0x48] [System] [7525*]:
    → "General Signs: Favorable."
144: 0x047D [0x23] WAIT_FOR_DIALOG_INTERACTION
145: 0x047E [0x01] GOTO 0x049F
146: 0x0481 [0x02] IF !(ExtData[1]->WorkLocal[1] == 1*) GOTO 0x0490
147: 0x0489 [0x48] [System] [7529*]:
    → "Financial Signs: Favorable."
148: 0x048C [0x23] WAIT_FOR_DIALOG_INTERACTION
149: 0x048D [0x01] GOTO 0x049F
150: 0x0490 [0x02] IF !(ExtData[1]->WorkLocal[1] == 2*) GOTO 0x049F
151: 0x0498 [0x48] [System] [7533*]:
    → "Romance Signs: Favorable."
152: 0x049B [0x23] WAIT_FOR_DIALOG_INTERACTION
153: 0x049C [0x01] GOTO 0x049F

SUBROUTINE_049F:
154: 0x049F [0x01] GOTO 0x054A
155: 0x04A2 [0x02] IF !(ExtData[1]->WorkLocal[8] == 7*) GOTO 0x04DA
156: 0x04AA [0x02] IF !(ExtData[1]->WorkLocal[1] == 0*) GOTO 0x04B9
157: 0x04B2 [0x48] [System] [7526*]:
    → "General Signs: Excellent."
158: 0x04B5 [0x23] WAIT_FOR_DIALOG_INTERACTION
159: 0x04B6 [0x01] GOTO 0x04D7
160: 0x04B9 [0x02] IF !(ExtData[1]->WorkLocal[1] == 1*) GOTO 0x04C8
161: 0x04C1 [0x48] [System] [7530*]:
    → "Financial Signs: Excellent."
162: 0x04C4 [0x23] WAIT_FOR_DIALOG_INTERACTION
163: 0x04C5 [0x01] GOTO 0x04D7
164: 0x04C8 [0x02] IF !(ExtData[1]->WorkLocal[1] == 2*) GOTO 0x04D7
165: 0x04D0 [0x48] [System] [7534*]:
    → "Romance Signs: Excellent."
166: 0x04D3 [0x23] WAIT_FOR_DIALOG_INTERACTION
167: 0x04D4 [0x01] GOTO 0x04D7

SUBROUTINE_04D7:
168: 0x04D7 [0x01] GOTO 0x054A
169: 0x04DA [0x02] IF !(ExtData[1]->WorkLocal[8] == 8*) GOTO 0x0512
170: 0x04E2 [0x02] IF !(ExtData[1]->WorkLocal[1] == 0*) GOTO 0x04F1
171: 0x04EA [0x48] [System] [7523*]:
    → "General Signs: Poor."
172: 0x04ED [0x23] WAIT_FOR_DIALOG_INTERACTION
173: 0x04EE [0x01] GOTO 0x050F
174: 0x04F1 [0x02] IF !(ExtData[1]->WorkLocal[1] == 1*) GOTO 0x0500
175: 0x04F9 [0x48] [System] [7527*]:
    → "Financial Signs: Poor."
176: 0x04FC [0x23] WAIT_FOR_DIALOG_INTERACTION
177: 0x04FD [0x01] GOTO 0x050F
178: 0x0500 [0x02] IF !(ExtData[1]->WorkLocal[1] == 2*) GOTO 0x050F
179: 0x0508 [0x48] [System] [7531*]:
    → "Romance Signs: Poor."
180: 0x050B [0x23] WAIT_FOR_DIALOG_INTERACTION
181: 0x050C [0x01] GOTO 0x050F

SUBROUTINE_050F:
182: 0x050F [0x01] GOTO 0x054A
183: 0x0512 [0x02] IF !(ExtData[1]->WorkLocal[8] == 9*) GOTO 0x054A
184: 0x051A [0x02] IF !(ExtData[1]->WorkLocal[1] == 0*) GOTO 0x0529
185: 0x0522 [0x48] [System] [7524*]:
    → "General Signs: Fair."
186: 0x0525 [0x23] WAIT_FOR_DIALOG_INTERACTION
187: 0x0526 [0x01] GOTO 0x0547
188: 0x0529 [0x02] IF !(ExtData[1]->WorkLocal[1] == 1*) GOTO 0x0538
189: 0x0531 [0x48] [System] [7528*]:
    → "Financial Signs: Fair."
190: 0x0534 [0x23] WAIT_FOR_DIALOG_INTERACTION
191: 0x0535 [0x01] GOTO 0x0547
192: 0x0538 [0x02] IF !(ExtData[1]->WorkLocal[1] == 2*) GOTO 0x0547
193: 0x0540 [0x48] [System] [7532*]:
    → "Romance Signs: Fair."
194: 0x0543 [0x23] WAIT_FOR_DIALOG_INTERACTION
195: 0x0544 [0x01] GOTO 0x0547

SUBROUTINE_0547:
196: 0x0547 [0x01] GOTO 0x054A

SUBROUTINE_054A:
197: 0x054A [0x1B] RETURN

SUBROUTINE_054B:
198: 0x054B [0x02] IF !(ExtData[1]->WorkLocal[8] == 0*) GOTO 0x055A
199: 0x0553 [0x48] [System] [7536*]:
    → "Today's fortune: Take special care when throwing things away, lest you toss out a key item."
200: 0x0556 [0x23] WAIT_FOR_DIALOG_INTERACTION
201: 0x0557 [0x01] GOTO 0x05E5
202: 0x055A [0x02] IF !(ExtData[1]->WorkLocal[8] == 1*) GOTO 0x0569
203: 0x0562 [0x48] [System] [7537*]:
    → "Today's Fortune: Take special care when shopping, lest you purchase something you cannot use."
204: 0x0565 [0x23] WAIT_FOR_DIALOG_INTERACTION
205: 0x0566 [0x01] GOTO 0x05E5
206: 0x0569 [0x02] IF !(ExtData[1]->WorkLocal[8] == 2*) GOTO 0x0578
207: 0x0571 [0x48] [System] [7538*]:
    → "Today's Fortune: Take special care when shopping, lest you accidentally sell an important item."
208: 0x0574 [0x23] WAIT_FOR_DIALOG_INTERACTION
209: 0x0575 [0x01] GOTO 0x05E5
210: 0x0578 [0x02] IF !(ExtData[1]->WorkLocal[8] == 3*) GOTO 0x0587
211: 0x0580 [0x48] [System] [7539*]:
    → "Today's Fortune: Moving to a new place can bring good fortune."
212: 0x0583 [0x23] WAIT_FOR_DIALOG_INTERACTION
213: 0x0584 [0x01] GOTO 0x05E5
214: 0x0587 [0x02] IF !(ExtData[1]->WorkLocal[8] == 4*) GOTO 0x0596
215: 0x058F [0x48] [System] [7540*]:
    → "Today's Fortune: You just might run into an old friend."
216: 0x0592 [0x23] WAIT_FOR_DIALOG_INTERACTION
217: 0x0593 [0x01] GOTO 0x05E5
218: 0x0596 [0x02] IF !(ExtData[1]->WorkLocal[8] == 5*) GOTO 0x05A5
219: 0x059E [0x48] [System] [7541*]:
    → "Today's Fortune: Beware of chasing prey too far. It could be your undoing."
220: 0x05A1 [0x23] WAIT_FOR_DIALOG_INTERACTION
221: 0x05A2 [0x01] GOTO 0x05E5
222: 0x05A5 [0x02] IF !(ExtData[1]->WorkLocal[8] == 6*) GOTO 0x05B4
223: 0x05AD [0x48] [System] [7542*]:
    → "Today's Fortune: Teaming up with your countrymen might bring good fortune."
224: 0x05B0 [0x23] WAIT_FOR_DIALOG_INTERACTION
225: 0x05B1 [0x01] GOTO 0x05E5
226: 0x05B4 [0x02] IF !(ExtData[1]->WorkLocal[8] == 7*) GOTO 0x05C3
227: 0x05BC [0x48] [System] [7543*]:
    → "Today's Fortune: You will do your best in the rain."
228: 0x05BF [0x23] WAIT_FOR_DIALOG_INTERACTION
229: 0x05C0 [0x01] GOTO 0x05E5
230: 0x05C3 [0x02] IF !(ExtData[1]->WorkLocal[8] == 8*) GOTO 0x05D2
231: 0x05CB [0x48] [System] [7544*]:
    → "Today's Fortune: Beware of overburdening yourself. You could lose out on a very good trade."
232: 0x05CE [0x23] WAIT_FOR_DIALOG_INTERACTION
233: 0x05CF [0x01] GOTO 0x05E5
234: 0x05D2 [0x02] IF !(ExtData[1]->WorkLocal[8] == 9*) GOTO 0x05E1
235: 0x05DA [0x48] [System] [7545*]:
    → "Today's Fortune: Sometimes, returning to your roots can bring luck."
236: 0x05DD [0x23] WAIT_FOR_DIALOG_INTERACTION
237: 0x05DE [0x01] GOTO 0x05E5
238: 0x05E1 [0x48] [System] [7535*]:
    → "Fortune Error."
239: 0x05E4 [0x23] WAIT_FOR_DIALOG_INTERACTION

SUBROUTINE_05E5:
240: 0x05E5 [0x1B] RETURN
```

### Event 65535.5

#### Metadata

| Field        | Value    |
|--------------|----------|
| Entrypoint   | 0x05E6   |
| Data Size    | 19 bytes |
| Instructions | 3        |

```
      00 01 02 03 04 05 06 07  08 09 0A 0B 0C 0D 0E 0F
      -- -- -- -- -- -- -- --  -- -- -- -- -- -- -- --
05E0:                   66 02  80 F8 FF FF 7F F8 FF FF        f.........
05F0: 7F 74 6C 6B 30 1C 55 80  00                       .tlk0.U..       
```

#### Opcodes

```
  0: 0x05E6 [0x66] LOAD_EXT_SCHEDULER_MAIN: Load scheduler "tlk0" with entities [EventEntity, EventEntity], work=40*
  1: 0x05F5 [0x1C] WAIT(30* ticks)
  2: 0x05F8 [0x00] END_REQSTACK()
```

### Event 65535.6

#### Metadata

| Field        | Value    |
|--------------|----------|
| Entrypoint   | 0x05F9   |
| Data Size    | 19 bytes |
| Instructions | 3        |

```
      00 01 02 03 04 05 06 07  08 09 0A 0B 0C 0D 0E 0F
      -- -- -- -- -- -- -- --  -- -- -- -- -- -- -- --
05F0:                             66 02 80 F8 FF FF 7F           f......
0600: F8 FF FF 7F 74 68 6B 31  1C 31 80 00              ....thk1.1..    
```

#### Opcodes

```
  0: 0x05F9 [0x66] LOAD_EXT_SCHEDULER_MAIN: Load scheduler "thk1" with entities [EventEntity, EventEntity], work=40*
  1: 0x0608 [0x1C] WAIT(60* ticks)
  2: 0x060B [0x00] END_REQSTACK()
```

### Event 65535.7

#### Metadata

| Field        | Value    |
|--------------|----------|
| Entrypoint   | 0x060C   |
| Data Size    | 29 bytes |
| Instructions | 3        |

```
      00 01 02 03 04 05 06 07  08 09 0A 0B 0C 0D 0E 0F
      -- -- -- -- -- -- -- --  -- -- -- -- -- -- -- --
0600:                                      66 02 80 F8              f...
0610: FF FF 7F F8 FF FF 7F 74  68 6B 32 53 F8 FF FF 7F  .......thk2S....
0620: F8 FF FF 7F 74 68 6B 32  00                       ....thk2.       
```

#### Opcodes

```
  0: 0x060C [0x66] LOAD_EXT_SCHEDULER_MAIN: Load scheduler "thk2" with entities [EventEntity, EventEntity], work=40*
  1: 0x061B [0x53] WAIT_SCHEDULER_TASK: Wait for scheduler "thk2" with entities [EventEntity, EventEntity]
  2: 0x0628 [0x00] END_REQSTACK()
```

### Event 65535.8

#### Metadata

| Field        | Value    |
|--------------|----------|
| Entrypoint   | 0x0629   |
| Data Size    | 29 bytes |
| Instructions | 3        |

```
      00 01 02 03 04 05 06 07  08 09 0A 0B 0C 0D 0E 0F
      -- -- -- -- -- -- -- --  -- -- -- -- -- -- -- --
0620:                             66 02 80 F8 FF FF 7F           f......
0630: F8 FF FF 7F 69 72 6F 30  53 F8 FF FF 7F F8 FF FF  ....iro0S.......
0640: 7F 69 72 6F 30 00                                 .iro0.          
```

#### Opcodes

```
  0: 0x0629 [0x66] LOAD_EXT_SCHEDULER_MAIN: Load scheduler "iro0" with entities [EventEntity, EventEntity], work=40*
  1: 0x0638 [0x53] WAIT_SCHEDULER_TASK: Wait for scheduler "iro0" with entities [EventEntity, EventEntity]
  2: 0x0645 [0x00] END_REQSTACK()
```

### Event 65535.9

#### Metadata

| Field        | Value    |
|--------------|----------|
| Entrypoint   | 0x0646   |
| Data Size    | 29 bytes |
| Instructions | 3        |

```
      00 01 02 03 04 05 06 07  08 09 0A 0B 0C 0D 0E 0F
      -- -- -- -- -- -- -- --  -- -- -- -- -- -- -- --
0640:                   66 02  80 F8 FF FF 7F F8 FF FF        f.........
0650: 7F 64 69 73 30 53 F8 FF  FF 7F F8 FF FF 7F 64 69  .dis0S........di
0660: 73 30 00                                          s0.             
```

#### Opcodes

```
  0: 0x0646 [0x66] LOAD_EXT_SCHEDULER_MAIN: Load scheduler "dis0" with entities [EventEntity, EventEntity], work=40*
  1: 0x0655 [0x53] WAIT_SCHEDULER_TASK: Wait for scheduler "dis0" with entities [EventEntity, EventEntity]
  2: 0x0662 [0x00] END_REQSTACK()
```

### Event 65535.10

#### Metadata

| Field        | Value   |
|--------------|---------|
| Entrypoint   | 0x0663  |
| Data Size    | 9 bytes |
| Instructions | 3       |

```
      00 01 02 03 04 05 06 07  08 09 0A 0B 0C 0D 0E 0F
      -- -- -- -- -- -- -- --  -- -- -- -- -- -- -- --
0660:          5E 69 64 6C 30  1C 31 80 00                 ^idl0.1..    
```

#### Opcodes

```
  0: 0x0663 [0x5E] EventEntity goes idle (kills current action) (animation: "idl0")
  1: 0x0668 [0x1C] WAIT(60* ticks)
  2: 0x066B [0x00] END_REQSTACK()
```

### Event 65535.11

#### Metadata

| Field        | Value   |
|--------------|---------|
| Entrypoint   | 0x066C  |
| Data Size    | 2 bytes |
| Instructions | 1       |

```
      00 01 02 03 04 05 06 07  08 09 0A 0B 0C 0D 0E 0F
      -- -- -- -- -- -- -- --  -- -- -- -- -- -- -- --
0660:                                      00 00                    ..  
```

#### Opcodes

```
  0: 0x066C [0x00] END_REQSTACK()
```

#### Data or dead code:

```
# Dead code (unreachable instructions):
     0x066D [0x00] END_REQSTACK()
```

### Event 10094

#### Metadata

| Field        | Value   |
|--------------|---------|
| Entrypoint   | 0x066E  |
| Data Size    | 5 bytes |
| Instructions | 2       |

```
      00 01 02 03 04 05 06 07  08 09 0A 0B 0C 0D 0E 0F
      -- -- -- -- -- -- -- --  -- -- -- -- -- -- -- --
0660:                                            C0 0A                ..
0670: 80 00 00                                          ...             
```

#### Opcodes

```
  0: 0x066E [0xC0] EventEntity->Render.Flags3 |= 0x1000 // Set bit 12 (from 1*)
  1: 0x0671 [0x00] END_REQSTACK()
```

#### Data or dead code:

```
# Dead code (unreachable instructions):
     0x0672 [0x00] END_REQSTACK()
```

### Event 65535.12

#### Metadata

| Field        | Value    |
|--------------|----------|
| Entrypoint   | 0x0673   |
| Data Size    | 20 bytes |
| Instructions | 5        |

```
      00 01 02 03 04 05 06 07  08 09 0A 0B 0C 0D 0E 0F
      -- -- -- -- -- -- -- --  -- -- -- -- -- -- -- --
0670:          59 04 0B 50 0F  01 56 80 1F 00 57 80 58     Y..P..V...W.X
0680: 80 08 80 1F 01 6F 00                              .....o.         
```

#### Opcodes

```
  0: 0x0673 [0x59] UPDATE_ENTITY_DATA: Set Garnev (ID: 17780747/0x010F500B) main speed = 12* * 0.1
  1: 0x067B [0x1F] MOVE_ENTITY: EventEntity moves to X=-76.092*, Z=-136.357*, Y=0.000*
  2: 0x0683 [0x1F] MOVE_ENTITY: Update entity position (mode=1)
  3: 0x0685 [0x6F] WAIT_FRAME_DELAY: Yield until WaitTime reaches zero
  4: 0x0686 [0x00] END_REQSTACK()
```

### Event 65535.13

#### Metadata

| Field        | Value    |
|--------------|----------|
| Entrypoint   | 0x0687   |
| Data Size    | 20 bytes |
| Instructions | 5        |

```
      00 01 02 03 04 05 06 07  08 09 0A 0B 0C 0D 0E 0F
      -- -- -- -- -- -- -- --  -- -- -- -- -- -- -- --
0680:                      59  04 1D 50 0F 01 59 80 1F         Y..P..Y..
0690: 00 5A 80 5B 80 08 80 1F  01 6F 00                 .Z.[.....o.     
```

#### Opcodes

```
  0: 0x0687 [0x59] UPDATE_ENTITY_DATA: Set Mataligeat (ID: 17780765/0x010F501D) main speed = 11* * 0.1
  1: 0x068F [0x1F] MOVE_ENTITY: EventEntity moves to X=-95.337*, Z=-156.056*, Y=0.000*
  2: 0x0697 [0x1F] MOVE_ENTITY: Update entity position (mode=1)
  3: 0x0699 [0x6F] WAIT_FRAME_DELAY: Yield until WaitTime reaches zero
  4: 0x069A [0x00] END_REQSTACK()
```

### Event 65535.14

#### Metadata

| Field        | Value    |
|--------------|----------|
| Entrypoint   | 0x069B   |
| Data Size    | 20 bytes |
| Instructions | 5        |

```
      00 01 02 03 04 05 06 07  08 09 0A 0B 0C 0D 0E 0F
      -- -- -- -- -- -- -- --  -- -- -- -- -- -- -- --
0690:                                   59 04 1D 50 0F             Y..P.
06A0: 01 59 80 1F 00 5C 80 5D  80 5E 80 1F 01 6F 00     .Y...\.].^...o. 
```

#### Opcodes

```
  0: 0x069B [0x59] UPDATE_ENTITY_DATA: Set Mataligeat (ID: 17780765/0x010F501D) main speed = 11* * 0.1
  1: 0x06A3 [0x1F] MOVE_ENTITY: EventEntity moves to X=-62.073*, Z=-89.873*, Y=5.999*
  2: 0x06AB [0x1F] MOVE_ENTITY: Update entity position (mode=1)
  3: 0x06AD [0x6F] WAIT_FRAME_DELAY: Yield until WaitTime reaches zero
  4: 0x06AE [0x00] END_REQSTACK()
```

### Event 65535.15

#### Metadata

| Field        | Value    |
|--------------|----------|
| Entrypoint   | 0x06AF   |
| Data Size    | 17 bytes |
| Instructions | 2        |

```
      00 01 02 03 04 05 06 07  08 09 0A 0B 0C 0D 0E 0F
      -- -- -- -- -- -- -- --  -- -- -- -- -- -- -- --
06A0:                                               5B                 [
06B0: 5F 80 1D 50 0F 01 1D 50  0F 01 6F 70 30 30 00 00  _..P...P..op00..
```

#### Opcodes

```
  0: 0x06AF [0x5B] LOAD_EXT_SCHEDULER: Load scheduler "op00" with entities [Mataligeat (ID: 17780765/0x010F501D), Mataligeat (ID: 17780765/0x010F501D)], work=2618*
  1: 0x06BE [0x00] END_REQSTACK()
```

#### Data or dead code:

```
# Dead code (unreachable instructions):
     0x06BF [0x00] END_REQSTACK()
```

### Event 65535.16

#### Metadata

| Field        | Value    |
|--------------|----------|
| Entrypoint   | 0x06C0   |
| Data Size    | 20 bytes |
| Instructions | 5        |

```
      00 01 02 03 04 05 06 07  08 09 0A 0B 0C 0D 0E 0F
      -- -- -- -- -- -- -- --  -- -- -- -- -- -- -- --
06C0: 59 04 3A 50 0F 01 59 80  1F 00 5A 80 5B 80 08 80  Y.:P..Y...Z.[...
06D0: 1F 01 6F 00                                       ..o.            
```

#### Opcodes

```
  0: 0x06C0 [0x59] UPDATE_ENTITY_DATA: Set Navisse (ID: 17780794/0x010F503A) main speed = 11* * 0.1
  1: 0x06C8 [0x1F] MOVE_ENTITY: EventEntity moves to X=-95.337*, Z=-156.056*, Y=0.000*
  2: 0x06D0 [0x1F] MOVE_ENTITY: Update entity position (mode=1)
  3: 0x06D2 [0x6F] WAIT_FRAME_DELAY: Yield until WaitTime reaches zero
  4: 0x06D3 [0x00] END_REQSTACK()
```

### Event 65535.17

#### Metadata

| Field        | Value    |
|--------------|----------|
| Entrypoint   | 0x06D4   |
| Data Size    | 20 bytes |
| Instructions | 5        |

```
      00 01 02 03 04 05 06 07  08 09 0A 0B 0C 0D 0E 0F
      -- -- -- -- -- -- -- --  -- -- -- -- -- -- -- --
06D0:             59 04 2C 50  0F 01 56 80 1F 00 60 80      Y.,P..V...`.
06E0: 61 80 08 80 1F 01 6F 00                           a.....o.        
```

#### Opcodes

```
  0: 0x06D4 [0x59] UPDATE_ENTITY_DATA: Set Jazmin (ID: 17780780/0x010F502C) main speed = 12* * 0.1
  1: 0x06DC [0x1F] MOVE_ENTITY: EventEntity moves to X=-83.944*, Z=-128.625*, Y=0.000*
  2: 0x06E4 [0x1F] MOVE_ENTITY: Update entity position (mode=1)
  3: 0x06E6 [0x6F] WAIT_FRAME_DELAY: Yield until WaitTime reaches zero
  4: 0x06E7 [0x00] END_REQSTACK()
```

### Event 65535.18

#### Metadata

| Field        | Value    |
|--------------|----------|
| Entrypoint   | 0x06E8   |
| Data Size    | 19 bytes |
| Instructions | 4        |

```
      00 01 02 03 04 05 06 07  08 09 0A 0B 0C 0D 0E 0F
      -- -- -- -- -- -- -- --  -- -- -- -- -- -- -- --
06E0:                          59 04 2C 50 0F 01 59 80          Y.,P..Y.
06F0: 1F 00 62 80 63 80 5E 80  1F 01 00                 ..b.c.^....     
```

#### Opcodes

```
  0: 0x06E8 [0x59] UPDATE_ENTITY_DATA: Set Jazmin (ID: 17780780/0x010F502C) main speed = 11* * 0.1
  1: 0x06F0 [0x1F] MOVE_ENTITY: EventEntity moves to X=-68.592*, Z=-96.839*, Y=5.999*
  2: 0x06F8 [0x1F] MOVE_ENTITY: Update entity position (mode=1)
  3: 0x06FA [0x00] END_REQSTACK()
```

### Event 65535.19

#### Metadata

| Field        | Value    |
|--------------|----------|
| Entrypoint   | 0x06FB   |
| Data Size    | 19 bytes |
| Instructions | 4        |

```
      00 01 02 03 04 05 06 07  08 09 0A 0B 0C 0D 0E 0F
      -- -- -- -- -- -- -- --  -- -- -- -- -- -- -- --
06F0:                                   59 04 2C 50 0F             Y.,P.
0700: 01 59 80 1F 00 64 80 65  80 5E 80 1F 01 00        .Y...d.e.^....  
```

#### Opcodes

```
  0: 0x06FB [0x59] UPDATE_ENTITY_DATA: Set Jazmin (ID: 17780780/0x010F502C) main speed = 11* * 0.1
  1: 0x0703 [0x1F] MOVE_ENTITY: EventEntity moves to X=-70.511*, Z=-102.750*, Y=5.999*
  2: 0x070B [0x1F] MOVE_ENTITY: Update entity position (mode=1)
  3: 0x070D [0x00] END_REQSTACK()
```

### Event 65535.20

#### Metadata

| Field        | Value    |
|--------------|----------|
| Entrypoint   | 0x070E   |
| Data Size    | 16 bytes |
| Instructions | 2        |

```
      00 01 02 03 04 05 06 07  08 09 0A 0B 0C 0D 0E 0F
      -- -- -- -- -- -- -- --  -- -- -- -- -- -- -- --
0700:                                            5B 66                [f
0710: 80 2C 50 0F 01 2C 50 0F  01 6F 70 30 30 00        .,P..,P..op00.  
```

#### Opcodes

```
  0: 0x070E [0x5B] LOAD_EXT_SCHEDULER: Load scheduler "op00" with entities [Jazmin (ID: 17780780/0x010F502C), Jazmin (ID: 17780780/0x010F502C)], work=2602*
  1: 0x071D [0x00] END_REQSTACK()
```

### Event 65535.21

#### Metadata

| Field        | Value    |
|--------------|----------|
| Entrypoint   | 0x071E   |
| Data Size    | 16 bytes |
| Instructions | 2        |

```
      00 01 02 03 04 05 06 07  08 09 0A 0B 0C 0D 0E 0F
      -- -- -- -- -- -- -- --  -- -- -- -- -- -- -- --
0710:                                            5B 66                [f
0720: 80 2C 50 0F 01 2C 50 0F  01 6F 70 30 31 00        .,P..,P..op01.  
```

#### Opcodes

```
  0: 0x071E [0x5B] LOAD_EXT_SCHEDULER: Load scheduler "op01" with entities [Jazmin (ID: 17780780/0x010F502C), Jazmin (ID: 17780780/0x010F502C)], work=2602*
  1: 0x072D [0x00] END_REQSTACK()
```

### Event 65535.22

#### Metadata

| Field        | Value    |
|--------------|----------|
| Entrypoint   | 0x072E   |
| Data Size    | 20 bytes |
| Instructions | 5        |

```
      00 01 02 03 04 05 06 07  08 09 0A 0B 0C 0D 0E 0F
      -- -- -- -- -- -- -- --  -- -- -- -- -- -- -- --
0720:                                            59 04                Y.
0730: 2C 50 0F 01 59 80 1F 00  67 80 68 80 5E 80 1F 01  ,P..Y...g.h.^...
0740: 6F 00                                             o.              
```

#### Opcodes

```
  0: 0x072E [0x59] UPDATE_ENTITY_DATA: Set Jazmin (ID: 17780780/0x010F502C) main speed = 11* * 0.1
  1: 0x0736 [0x1F] MOVE_ENTITY: EventEntity moves to X=-72.366*, Z=-118.167*, Y=5.999*
  2: 0x073E [0x1F] MOVE_ENTITY: Update entity position (mode=1)
  3: 0x0740 [0x6F] WAIT_FRAME_DELAY: Yield until WaitTime reaches zero
  4: 0x0741 [0x00] END_REQSTACK()
```

### Event 65535.23

#### Metadata

| Field        | Value    |
|--------------|----------|
| Entrypoint   | 0x0742   |
| Data Size    | 16 bytes |
| Instructions | 2        |

```
      00 01 02 03 04 05 06 07  08 09 0A 0B 0C 0D 0E 0F
      -- -- -- -- -- -- -- --  -- -- -- -- -- -- -- --
0740:       5B 69 80 2C 50 0F  01 2C 50 0F 01 6F 70 61    [i.,P..,P..opa
0750: 30 00                                             0.              
```

#### Opcodes

```
  0: 0x0742 [0x5B] LOAD_EXT_SCHEDULER: Load scheduler "opa0" with entities [Jazmin (ID: 17780780/0x010F502C), Jazmin (ID: 17780780/0x010F502C)], work=2617*
  1: 0x0751 [0x00] END_REQSTACK()
```

### Event 65535.24

#### Metadata

| Field        | Value    |
|--------------|----------|
| Entrypoint   | 0x0752   |
| Data Size    | 16 bytes |
| Instructions | 2        |

```
      00 01 02 03 04 05 06 07  08 09 0A 0B 0C 0D 0E 0F
      -- -- -- -- -- -- -- --  -- -- -- -- -- -- -- --
0750:       5B 69 80 2C 50 0F  01 2C 50 0F 01 6F 70 61    [i.,P..,P..opa
0760: 31 00                                             1.              
```

#### Opcodes

```
  0: 0x0752 [0x5B] LOAD_EXT_SCHEDULER: Load scheduler "opa1" with entities [Jazmin (ID: 17780780/0x010F502C), Jazmin (ID: 17780780/0x010F502C)], work=2617*
  1: 0x0761 [0x00] END_REQSTACK()
```

### Event 65535.25

#### Metadata

| Field        | Value    |
|--------------|----------|
| Entrypoint   | 0x0762   |
| Data Size    | 16 bytes |
| Instructions | 2        |

```
      00 01 02 03 04 05 06 07  08 09 0A 0B 0C 0D 0E 0F
      -- -- -- -- -- -- -- --  -- -- -- -- -- -- -- --
0760:       5B 69 80 2C 50 0F  01 2C 50 0F 01 6F 70 61    [i.,P..,P..opa
0770: 32 00                                             2.              
```

#### Opcodes

```
  0: 0x0762 [0x5B] LOAD_EXT_SCHEDULER: Load scheduler "opa2" with entities [Jazmin (ID: 17780780/0x010F502C), Jazmin (ID: 17780780/0x010F502C)], work=2617*
  1: 0x0771 [0x00] END_REQSTACK()
```

### Event 65535.26

#### Metadata

| Field        | Value    |
|--------------|----------|
| Entrypoint   | 0x0772   |
| Data Size    | 21 bytes |
| Instructions | 5        |

```
      00 01 02 03 04 05 06 07  08 09 0A 0B 0C 0D 0E 0F
      -- -- -- -- -- -- -- --  -- -- -- -- -- -- -- --
0770:       59 04 2E 50 0F 01  56 80 1F 00 57 80 58 80    Y..P..V...W.X.
0780: 08 80 1F 01 6F 00 00                              ....o..         
```

#### Opcodes

```
  0: 0x0772 [0x59] UPDATE_ENTITY_DATA: Set Bogharg (ID: 17780782/0x010F502E) main speed = 12* * 0.1
  1: 0x077A [0x1F] MOVE_ENTITY: EventEntity moves to X=-76.092*, Z=-136.357*, Y=0.000*
  2: 0x0782 [0x1F] MOVE_ENTITY: Update entity position (mode=1)
  3: 0x0784 [0x6F] WAIT_FRAME_DELAY: Yield until WaitTime reaches zero
  4: 0x0785 [0x00] END_REQSTACK()
```

#### Data or dead code:

```
# Dead code (unreachable instructions):
     0x0786 [0x00] END_REQSTACK()
```

### Event 65535.27

#### Metadata

| Field        | Value    |
|--------------|----------|
| Entrypoint   | 0x0787   |
| Data Size    | 16 bytes |
| Instructions | 2        |

```
      00 01 02 03 04 05 06 07  08 09 0A 0B 0C 0D 0E 0F
      -- -- -- -- -- -- -- --  -- -- -- -- -- -- -- --
0780:                      66  6A 80 2E 50 0F 01 2E 50         fj..P...P
0790: 0F 01 74 68 6B 31 00                              ..thk1.         
```

#### Opcodes

```
  0: 0x0787 [0x66] LOAD_EXT_SCHEDULER_MAIN: Load scheduler "thk1" with entities [Bogharg (ID: 17780782/0x010F502E), Bogharg (ID: 17780782/0x010F502E)], work=69*
  1: 0x0796 [0x00] END_REQSTACK()
```

### Event 65535.28

#### Metadata

| Field        | Value    |
|--------------|----------|
| Entrypoint   | 0x0797   |
| Data Size    | 16 bytes |
| Instructions | 2        |

```
      00 01 02 03 04 05 06 07  08 09 0A 0B 0C 0D 0E 0F
      -- -- -- -- -- -- -- --  -- -- -- -- -- -- -- --
0790:                      66  6A 80 2E 50 0F 01 2E 50         fj..P...P
07A0: 0F 01 74 68 6B 32 00                              ..thk2.         
```

#### Opcodes

```
  0: 0x0797 [0x66] LOAD_EXT_SCHEDULER_MAIN: Load scheduler "thk2" with entities [Bogharg (ID: 17780782/0x010F502E), Bogharg (ID: 17780782/0x010F502E)], work=69*
  1: 0x07A6 [0x00] END_REQSTACK()
```

### Event 65535.29

#### Metadata

| Field        | Value    |
|--------------|----------|
| Entrypoint   | 0x07A7   |
| Data Size    | 20 bytes |
| Instructions | 5        |

```
      00 01 02 03 04 05 06 07  08 09 0A 0B 0C 0D 0E 0F
      -- -- -- -- -- -- -- --  -- -- -- -- -- -- -- --
07A0:                      59  04 2E 50 0F 01 56 80 1F         Y..P..V..
07B0: 00 6B 80 6C 80 5E 80 1F  01 6F 00                 .k.l.^...o.     
```

#### Opcodes

```
  0: 0x07A7 [0x59] UPDATE_ENTITY_DATA: Set Bogharg (ID: 17780782/0x010F502E) main speed = 12* * 0.1
  1: 0x07AF [0x1F] MOVE_ENTITY: EventEntity moves to X=-56.992*, Z=-88.050*, Y=5.999*
  2: 0x07B7 [0x1F] MOVE_ENTITY: Update entity position (mode=1)
  3: 0x07B9 [0x6F] WAIT_FRAME_DELAY: Yield until WaitTime reaches zero
  4: 0x07BA [0x00] END_REQSTACK()
```

### Event 65535.30

#### Metadata

| Field        | Value    |
|--------------|----------|
| Entrypoint   | 0x07BB   |
| Data Size    | 17 bytes |
| Instructions | 2        |

```
      00 01 02 03 04 05 06 07  08 09 0A 0B 0C 0D 0E 0F
      -- -- -- -- -- -- -- --  -- -- -- -- -- -- -- --
07B0:                                   5B 6D 80 2E 50             [m..P
07C0: 0F 01 2E 50 0F 01 6F 70  30 30 00 00              ...P..op00..    
```

#### Opcodes

```
  0: 0x07BB [0x5B] LOAD_EXT_SCHEDULER: Load scheduler "op00" with entities [Bogharg (ID: 17780782/0x010F502E), Bogharg (ID: 17780782/0x010F502E)], work=2621*
  1: 0x07CA [0x00] END_REQSTACK()
```

#### Data or dead code:

```
# Dead code (unreachable instructions):
     0x07CB [0x00] END_REQSTACK()
```

### Event 65535.31

#### Metadata

| Field        | Value    |
|--------------|----------|
| Entrypoint   | 0x07CC   |
| Data Size    | 20 bytes |
| Instructions | 5        |

```
      00 01 02 03 04 05 06 07  08 09 0A 0B 0C 0D 0E 0F
      -- -- -- -- -- -- -- --  -- -- -- -- -- -- -- --
07C0:                                      59 04 31 50              Y.1P
07D0: 0F 01 59 80 1F 00 60 80  61 80 08 80 1F 01 6F 00  ..Y...`.a.....o.
```

#### Opcodes

```
  0: 0x07CC [0x59] UPDATE_ENTITY_DATA: Set Nakho Jawantal (ID: 17780785/0x010F5031) main speed = 11* * 0.1
  1: 0x07D4 [0x1F] MOVE_ENTITY: EventEntity moves to X=-83.944*, Z=-128.625*, Y=0.000*
  2: 0x07DC [0x1F] MOVE_ENTITY: Update entity position (mode=1)
  3: 0x07DE [0x6F] WAIT_FRAME_DELAY: Yield until WaitTime reaches zero
  4: 0x07DF [0x00] END_REQSTACK()
```

### Event 65535.32

#### Metadata

| Field        | Value    |
|--------------|----------|
| Entrypoint   | 0x07E0   |
| Data Size    | 16 bytes |
| Instructions | 2        |

```
      00 01 02 03 04 05 06 07  08 09 0A 0B 0C 0D 0E 0F
      -- -- -- -- -- -- -- --  -- -- -- -- -- -- -- --
07E0: 5B 6E 80 12 50 0F 01 12  50 0F 01 6F 70 61 30 00  [n..P...P..opa0.
```

#### Opcodes

```
  0: 0x07E0 [0x5B] LOAD_EXT_SCHEDULER: Load scheduler "opa0" with entities [Tovrutaux (ID: 17780754/0x010F5012), Tovrutaux (ID: 17780754/0x010F5012)], work=2627*
  1: 0x07EF [0x00] END_REQSTACK()
```

### Event 65535.33

#### Metadata

| Field        | Value    |
|--------------|----------|
| Entrypoint   | 0x07F0   |
| Data Size    | 16 bytes |
| Instructions | 2        |

```
      00 01 02 03 04 05 06 07  08 09 0A 0B 0C 0D 0E 0F
      -- -- -- -- -- -- -- --  -- -- -- -- -- -- -- --
07F0: 5B 6E 80 12 50 0F 01 12  50 0F 01 6F 70 61 31 00  [n..P...P..opa1.
```

#### Opcodes

```
  0: 0x07F0 [0x5B] LOAD_EXT_SCHEDULER: Load scheduler "opa1" with entities [Tovrutaux (ID: 17780754/0x010F5012), Tovrutaux (ID: 17780754/0x010F5012)], work=2627*
  1: 0x07FF [0x00] END_REQSTACK()
```

### Event 65535.34

#### Metadata

| Field        | Value    |
|--------------|----------|
| Entrypoint   | 0x0800   |
| Data Size    | 16 bytes |
| Instructions | 2        |

```
      00 01 02 03 04 05 06 07  08 09 0A 0B 0C 0D 0E 0F
      -- -- -- -- -- -- -- --  -- -- -- -- -- -- -- --
0800: 5B 6E 80 12 50 0F 01 12  50 0F 01 6F 70 61 32 00  [n..P...P..opa2.
```

#### Opcodes

```
  0: 0x0800 [0x5B] LOAD_EXT_SCHEDULER: Load scheduler "opa2" with entities [Tovrutaux (ID: 17780754/0x010F5012), Tovrutaux (ID: 17780754/0x010F5012)], work=2627*
  1: 0x080F [0x00] END_REQSTACK()
```

### Event 65535.35

#### Metadata

| Field        | Value    |
|--------------|----------|
| Entrypoint   | 0x0810   |
| Data Size    | 16 bytes |
| Instructions | 2        |

```
      00 01 02 03 04 05 06 07  08 09 0A 0B 0C 0D 0E 0F
      -- -- -- -- -- -- -- --  -- -- -- -- -- -- -- --
0810: 5B 6F 80 12 50 0F 01 12  50 0F 01 74 68 6B 31 00  [o..P...P..thk1.
```

#### Opcodes

```
  0: 0x0810 [0x5B] LOAD_EXT_SCHEDULER: Load scheduler "thk1" with entities [Tovrutaux (ID: 17780754/0x010F5012), Tovrutaux (ID: 17780754/0x010F5012)], work=75*
  1: 0x081F [0x00] END_REQSTACK()
```

### Event 65535.36

#### Metadata

| Field        | Value    |
|--------------|----------|
| Entrypoint   | 0x0820   |
| Data Size    | 16 bytes |
| Instructions | 2        |

```
      00 01 02 03 04 05 06 07  08 09 0A 0B 0C 0D 0E 0F
      -- -- -- -- -- -- -- --  -- -- -- -- -- -- -- --
0820: 5B 6F 80 12 50 0F 01 12  50 0F 01 74 68 6B 32 00  [o..P...P..thk2.
```

#### Opcodes

```
  0: 0x0820 [0x5B] LOAD_EXT_SCHEDULER: Load scheduler "thk2" with entities [Tovrutaux (ID: 17780754/0x010F5012), Tovrutaux (ID: 17780754/0x010F5012)], work=75*
  1: 0x082F [0x00] END_REQSTACK()
```

### Event 65535.37

#### Metadata

| Field        | Value    |
|--------------|----------|
| Entrypoint   | 0x0830   |
| Data Size    | 16 bytes |
| Instructions | 2        |

```
      00 01 02 03 04 05 06 07  08 09 0A 0B 0C 0D 0E 0F
      -- -- -- -- -- -- -- --  -- -- -- -- -- -- -- --
0830: 5B 6F 80 12 50 0F 01 12  50 0F 01 74 6C 6B 30 00  [o..P...P..tlk0.
```

#### Opcodes

```
  0: 0x0830 [0x5B] LOAD_EXT_SCHEDULER: Load scheduler "tlk0" with entities [Tovrutaux (ID: 17780754/0x010F5012), Tovrutaux (ID: 17780754/0x010F5012)], work=75*
  1: 0x083F [0x00] END_REQSTACK()
```

### Event 65535.38

#### Metadata

| Field        | Value    |
|--------------|----------|
| Entrypoint   | 0x0840   |
| Data Size    | 16 bytes |
| Instructions | 2        |

```
      00 01 02 03 04 05 06 07  08 09 0A 0B 0C 0D 0E 0F
      -- -- -- -- -- -- -- --  -- -- -- -- -- -- -- --
0840: 5B 6F 80 12 50 0F 01 12  50 0F 01 74 6C 6B 31 00  [o..P...P..tlk1.
```

#### Opcodes

```
  0: 0x0840 [0x5B] LOAD_EXT_SCHEDULER: Load scheduler "tlk1" with entities [Tovrutaux (ID: 17780754/0x010F5012), Tovrutaux (ID: 17780754/0x010F5012)], work=75*
  1: 0x084F [0x00] END_REQSTACK()
```

### Event 65535.39

#### Metadata

| Field        | Value    |
|--------------|----------|
| Entrypoint   | 0x0850   |
| Data Size    | 12 bytes |
| Instructions | 4        |

```
      00 01 02 03 04 05 06 07  08 09 0A 0B 0C 0D 0E 0F
      -- -- -- -- -- -- -- --  -- -- -- -- -- -- -- --
0850: 1F 00 70 80 71 80 08 80  1F 01 6F 00              ..p.q.....o.    
```

#### Opcodes

```
  0: 0x0850 [0x1F] MOVE_ENTITY: EventEntity moves to X=-19.954*, Z=-20.950*, Y=0.000*
  1: 0x0858 [0x1F] MOVE_ENTITY: Update entity position (mode=1)
  2: 0x085A [0x6F] WAIT_FRAME_DELAY: Yield until WaitTime reaches zero
  3: 0x085B [0x00] END_REQSTACK()
```

### Event 65535.40

#### Metadata

| Field        | Value    |
|--------------|----------|
| Entrypoint   | 0x085C   |
| Data Size    | 20 bytes |
| Instructions | 5        |

```
      00 01 02 03 04 05 06 07  08 09 0A 0B 0C 0D 0E 0F
      -- -- -- -- -- -- -- --  -- -- -- -- -- -- -- --
0850:                                      59 04 13 50              Y..P
0860: 0F 01 59 80 1F 00 72 80  73 80 5E 80 1F 01 6F 00  ..Y...r.s.^...o.
```

#### Opcodes

```
  0: 0x085C [0x59] UPDATE_ENTITY_DATA: Set Seyaya (ID: 17780755/0x010F5013) main speed = 11* * 0.1
  1: 0x0864 [0x1F] MOVE_ENTITY: EventEntity moves to X=-74.699*, Z=-107.115*, Y=5.999*
  2: 0x086C [0x1F] MOVE_ENTITY: Update entity position (mode=1)
  3: 0x086E [0x6F] WAIT_FRAME_DELAY: Yield until WaitTime reaches zero
  4: 0x086F [0x00] END_REQSTACK()
```

### Event 65535.41

#### Metadata

| Field        | Value    |
|--------------|----------|
| Entrypoint   | 0x0870   |
| Data Size    | 17 bytes |
| Instructions | 2        |

```
      00 01 02 03 04 05 06 07  08 09 0A 0B 0C 0D 0E 0F
      -- -- -- -- -- -- -- --  -- -- -- -- -- -- -- --
0870: 5B 74 80 13 50 0F 01 13  50 0F 01 6F 70 61 30 00  [t..P...P..opa0.
0880: 00                                                .               
```

#### Opcodes

```
  0: 0x0870 [0x5B] LOAD_EXT_SCHEDULER: Load scheduler "opa0" with entities [Seyaya (ID: 17780755/0x010F5013), Seyaya (ID: 17780755/0x010F5013)], work=2631*
  1: 0x087F [0x00] END_REQSTACK()
```

#### Data or dead code:

```
# Dead code (unreachable instructions):
     0x0880 [0x00] END_REQSTACK()
```

### Event 65535.42

#### Metadata

| Field        | Value    |
|--------------|----------|
| Entrypoint   | 0x0881   |
| Data Size    | 17 bytes |
| Instructions | 2        |

```
      00 01 02 03 04 05 06 07  08 09 0A 0B 0C 0D 0E 0F
      -- -- -- -- -- -- -- --  -- -- -- -- -- -- -- --
0880:    5B 74 80 13 50 0F 01  13 50 0F 01 6F 70 61 31   [t..P...P..opa1
0890: 00 00                                             ..              
```

#### Opcodes

```
  0: 0x0881 [0x5B] LOAD_EXT_SCHEDULER: Load scheduler "opa1" with entities [Seyaya (ID: 17780755/0x010F5013), Seyaya (ID: 17780755/0x010F5013)], work=2631*
  1: 0x0890 [0x00] END_REQSTACK()
```

#### Data or dead code:

```
# Dead code (unreachable instructions):
     0x0891 [0x00] END_REQSTACK()
```

### Event 65535.43

#### Metadata

| Field        | Value    |
|--------------|----------|
| Entrypoint   | 0x0892   |
| Data Size    | 16 bytes |
| Instructions | 2        |

```
      00 01 02 03 04 05 06 07  08 09 0A 0B 0C 0D 0E 0F
      -- -- -- -- -- -- -- --  -- -- -- -- -- -- -- --
0890:       5B 74 80 13 50 0F  01 13 50 0F 01 6F 70 61    [t..P...P..opa
08A0: 32 00                                             2.              
```

#### Opcodes

```
  0: 0x0892 [0x5B] LOAD_EXT_SCHEDULER: Load scheduler "opa2" with entities [Seyaya (ID: 17780755/0x010F5013), Seyaya (ID: 17780755/0x010F5013)], work=2631*
  1: 0x08A1 [0x00] END_REQSTACK()
```

### Event 65535.44

#### Metadata

| Field        | Value    |
|--------------|----------|
| Entrypoint   | 0x08A2   |
| Data Size    | 16 bytes |
| Instructions | 2        |

```
      00 01 02 03 04 05 06 07  08 09 0A 0B 0C 0D 0E 0F
      -- -- -- -- -- -- -- --  -- -- -- -- -- -- -- --
08A0:       5B 75 80 13 50 0F  01 13 50 0F 01 74 68 6B    [u..P...P..thk
08B0: 31 00                                             1.              
```

#### Opcodes

```
  0: 0x08A2 [0x5B] LOAD_EXT_SCHEDULER: Load scheduler "thk1" with entities [Seyaya (ID: 17780755/0x010F5013), Seyaya (ID: 17780755/0x010F5013)], work=85*
  1: 0x08B1 [0x00] END_REQSTACK()
```

### Event 65535.45

#### Metadata

| Field        | Value    |
|--------------|----------|
| Entrypoint   | 0x08B2   |
| Data Size    | 16 bytes |
| Instructions | 2        |

```
      00 01 02 03 04 05 06 07  08 09 0A 0B 0C 0D 0E 0F
      -- -- -- -- -- -- -- --  -- -- -- -- -- -- -- --
08B0:       5B 75 80 13 50 0F  01 13 50 0F 01 74 68 6B    [u..P...P..thk
08C0: 32 00                                             2.              
```

#### Opcodes

```
  0: 0x08B2 [0x5B] LOAD_EXT_SCHEDULER: Load scheduler "thk2" with entities [Seyaya (ID: 17780755/0x010F5013), Seyaya (ID: 17780755/0x010F5013)], work=85*
  1: 0x08C1 [0x00] END_REQSTACK()
```

### Event 65535.46

#### Metadata

| Field        | Value    |
|--------------|----------|
| Entrypoint   | 0x08C2   |
| Data Size    | 16 bytes |
| Instructions | 2        |

```
      00 01 02 03 04 05 06 07  08 09 0A 0B 0C 0D 0E 0F
      -- -- -- -- -- -- -- --  -- -- -- -- -- -- -- --
08C0:       5B 75 80 13 50 0F  01 13 50 0F 01 74 6C 6B    [u..P...P..tlk
08D0: 30 00                                             0.              
```

#### Opcodes

```
  0: 0x08C2 [0x5B] LOAD_EXT_SCHEDULER: Load scheduler "tlk0" with entities [Seyaya (ID: 17780755/0x010F5013), Seyaya (ID: 17780755/0x010F5013)], work=85*
  1: 0x08D1 [0x00] END_REQSTACK()
```

### Event 65535.47

#### Metadata

| Field        | Value    |
|--------------|----------|
| Entrypoint   | 0x08D2   |
| Data Size    | 16 bytes |
| Instructions | 2        |

```
      00 01 02 03 04 05 06 07  08 09 0A 0B 0C 0D 0E 0F
      -- -- -- -- -- -- -- --  -- -- -- -- -- -- -- --
08D0:       5B 75 80 13 50 0F  01 13 50 0F 01 74 6C 6B    [u..P...P..tlk
08E0: 65 00                                             e.              
```

#### Opcodes

```
  0: 0x08D2 [0x5B] LOAD_EXT_SCHEDULER: Load scheduler "tlke" with entities [Seyaya (ID: 17780755/0x010F5013), Seyaya (ID: 17780755/0x010F5013)], work=85*
  1: 0x08E1 [0x00] END_REQSTACK()
```

### Event 65535.48

#### Metadata

| Field        | Value    |
|--------------|----------|
| Entrypoint   | 0x08E2   |
| Data Size    | 16 bytes |
| Instructions | 2        |

```
      00 01 02 03 04 05 06 07  08 09 0A 0B 0C 0D 0E 0F
      -- -- -- -- -- -- -- --  -- -- -- -- -- -- -- --
08E0:       5B 75 80 13 50 0F  01 13 50 0F 01 62 61 6E    [u..P...P..ban
08F0: 30 00                                             0.              
```

#### Opcodes

```
  0: 0x08E2 [0x5B] LOAD_EXT_SCHEDULER: Load scheduler "ban0" with entities [Seyaya (ID: 17780755/0x010F5013), Seyaya (ID: 17780755/0x010F5013)], work=85*
  1: 0x08F1 [0x00] END_REQSTACK()
```

### Event 65535.49

#### Metadata

| Field        | Value    |
|--------------|----------|
| Entrypoint   | 0x08F2   |
| Data Size    | 13 bytes |
| Instructions | 4        |

```
      00 01 02 03 04 05 06 07  08 09 0A 0B 0C 0D 0E 0F
      -- -- -- -- -- -- -- --  -- -- -- -- -- -- -- --
08F0:       1F 00 76 80 77 80  08 80 1F 01 6F 00 00       ..v.w.....o.. 
```

#### Opcodes

```
  0: 0x08F2 [0x1F] MOVE_ENTITY: EventEntity moves to X=-19.857*, Z=-21.712*, Y=0.000*
  1: 0x08FA [0x1F] MOVE_ENTITY: Update entity position (mode=1)
  2: 0x08FC [0x6F] WAIT_FRAME_DELAY: Yield until WaitTime reaches zero
  3: 0x08FD [0x00] END_REQSTACK()
```

#### Data or dead code:

```
# Dead code (unreachable instructions):
     0x08FE [0x00] END_REQSTACK()
```

### Event 65535.50

#### Metadata

| Field        | Value    |
|--------------|----------|
| Entrypoint   | 0x08FF   |
| Data Size    | 20 bytes |
| Instructions | 5        |

```
      00 01 02 03 04 05 06 07  08 09 0A 0B 0C 0D 0E 0F
      -- -- -- -- -- -- -- --  -- -- -- -- -- -- -- --
08F0:                                               59                 Y
0900: 04 C0 50 0F 01 78 80 1F  00 79 80 7A 80 08 80 1F  ..P..x...y.z....
0910: 01 6F 00                                          .o.             
```

#### Opcodes

```
  0: 0x08FF [0x59] UPDATE_ENTITY_DATA: Set Rakuru-Rakoru (ID: 17780928/0x010F50C0) main speed = 14* * 0.1
  1: 0x0907 [0x1F] MOVE_ENTITY: EventEntity moves to X=-37.763*, Z=-62.812*, Y=0.000*
  2: 0x090F [0x1F] MOVE_ENTITY: Update entity position (mode=1)
  3: 0x0911 [0x6F] WAIT_FRAME_DELAY: Yield until WaitTime reaches zero
  4: 0x0912 [0x00] END_REQSTACK()
```

### Event 65535.51

#### Metadata

| Field        | Value    |
|--------------|----------|
| Entrypoint   | 0x0913   |
| Data Size    | 12 bytes |
| Instructions | 4        |

```
      00 01 02 03 04 05 06 07  08 09 0A 0B 0C 0D 0E 0F
      -- -- -- -- -- -- -- --  -- -- -- -- -- -- -- --
0910:          1F 00 7B 80 7C  80 7D 80 1F 01 6F 00        ..{.|.}...o. 
```

#### Opcodes

```
  0: 0x0913 [0x1F] MOVE_ENTITY: EventEntity moves to X=-13.366*, Z=2.528*, Y=-0.449*
  1: 0x091B [0x1F] MOVE_ENTITY: Update entity position (mode=1)
  2: 0x091D [0x6F] WAIT_FRAME_DELAY: Yield until WaitTime reaches zero
  3: 0x091E [0x00] END_REQSTACK()
```

### Event 65535.52

#### Metadata

| Field        | Value    |
|--------------|----------|
| Entrypoint   | 0x091F   |
| Data Size    | 16 bytes |
| Instructions | 2        |

```
      00 01 02 03 04 05 06 07  08 09 0A 0B 0C 0D 0E 0F
      -- -- -- -- -- -- -- --  -- -- -- -- -- -- -- --
0910:                                               66                 f
0920: 02 80 C0 50 0F 01 C0 50  0F 01 74 6C 6B 30 00     ...P...P..tlk0. 
```

#### Opcodes

```
  0: 0x091F [0x66] LOAD_EXT_SCHEDULER_MAIN: Load scheduler "tlk0" with entities [Rakuru-Rakoru (ID: 17780928/0x010F50C0), Rakuru-Rakoru (ID: 17780928/0x010F50C0)], work=40*
  1: 0x092E [0x00] END_REQSTACK()
```

### Event 65535.53

#### Metadata

| Field        | Value    |
|--------------|----------|
| Entrypoint   | 0x092F   |
| Data Size    | 16 bytes |
| Instructions | 2        |

```
      00 01 02 03 04 05 06 07  08 09 0A 0B 0C 0D 0E 0F
      -- -- -- -- -- -- -- --  -- -- -- -- -- -- -- --
0920:                                               66                 f
0930: 7E 80 C0 50 0F 01 C0 50  0F 01 65 68 6E 31 00     ~..P...P..ehn1. 
```

#### Opcodes

```
  0: 0x092F [0x66] LOAD_EXT_SCHEDULER_MAIN: Load scheduler "ehn1" with entities [Rakuru-Rakoru (ID: 17780928/0x010F50C0), Rakuru-Rakoru (ID: 17780928/0x010F50C0)], work=41*
  1: 0x093E [0x00] END_REQSTACK()
```

### Event 65535.54

#### Metadata

| Field        | Value    |
|--------------|----------|
| Entrypoint   | 0x093F   |
| Data Size    | 16 bytes |
| Instructions | 2        |

```
      00 01 02 03 04 05 06 07  08 09 0A 0B 0C 0D 0E 0F
      -- -- -- -- -- -- -- --  -- -- -- -- -- -- -- --
0930:                                               66                 f
0940: 02 80 C0 50 0F 01 C0 50  0F 01 6D 6F 6A 30 00     ...P...P..moj0. 
```

#### Opcodes

```
  0: 0x093F [0x66] LOAD_EXT_SCHEDULER_MAIN: Load scheduler "moj0" with entities [Rakuru-Rakoru (ID: 17780928/0x010F50C0), Rakuru-Rakoru (ID: 17780928/0x010F50C0)], work=40*
  1: 0x094E [0x00] END_REQSTACK()
```

### Event 65535.55

#### Metadata

| Field        | Value    |
|--------------|----------|
| Entrypoint   | 0x094F   |
| Data Size    | 20 bytes |
| Instructions | 5        |

```
      00 01 02 03 04 05 06 07  08 09 0A 0B 0C 0D 0E 0F
      -- -- -- -- -- -- -- --  -- -- -- -- -- -- -- --
0940:                                               59                 Y
0950: 04 C0 50 0F 01 78 80 1F  00 7F 80 80 80 5E 80 1F  ..P..x.......^..
0960: 01 6F 00                                          .o.             
```

#### Opcodes

```
  0: 0x094F [0x59] UPDATE_ENTITY_DATA: Set Rakuru-Rakoru (ID: 17780928/0x010F50C0) main speed = 14* * 0.1
  1: 0x0957 [0x1F] MOVE_ENTITY: EventEntity moves to X=-71.130*, Z=-110.791*, Y=5.999*
  2: 0x095F [0x1F] MOVE_ENTITY: Update entity position (mode=1)
  3: 0x0961 [0x6F] WAIT_FRAME_DELAY: Yield until WaitTime reaches zero
  4: 0x0962 [0x00] END_REQSTACK()
```

### Event 65535.56

#### Metadata

| Field        | Value    |
|--------------|----------|
| Entrypoint   | 0x0963   |
| Data Size    | 29 bytes |
| Instructions | 6        |

```
      00 01 02 03 04 05 06 07  08 09 0A 0B 0C 0D 0E 0F
      -- -- -- -- -- -- -- --  -- -- -- -- -- -- -- --
0960:          59 04 C0 50 0F  01 78 80 1F 00 81 80 82     Y..P..x......
0970: 80 5E 80 1F 01 5A 00 83  80 84 80 85 80 5A 01 00  .^...Z.......Z..
```

#### Opcodes

```
  0: 0x0963 [0x59] UPDATE_ENTITY_DATA: Set Rakuru-Rakoru (ID: 17780928/0x010F50C0) main speed = 14* * 0.1
  1: 0x096B [0x1F] MOVE_ENTITY: EventEntity moves to X=-75.540*, Z=-116.545*, Y=5.999*
  2: 0x0973 [0x1F] MOVE_ENTITY: Update entity position (mode=1)
  3: 0x0975 [0x5A] UPDATE_EVENT_POSITION: Set EventEntity MovePosition to X=-80.452*, Z=-125.376*, Y=0.999*
  4: 0x097D [0x5A] UPDATE_EVENT_POSITION: Move EventEntity incrementally towards MovePosition
  5: 0x097F [0x00] END_REQSTACK()
```

### Event 65535.57

#### Metadata

| Field        | Value    |
|--------------|----------|
| Entrypoint   | 0x0980   |
| Data Size    | 17 bytes |
| Instructions | 2        |

```
      00 01 02 03 04 05 06 07  08 09 0A 0B 0C 0D 0E 0F
