# 17780745 - Geebeh

## Common Data

| Field            | Value                 |
|------------------|-----------------------|
| Zone             | Lower Jeuno (ID: 245) |
| Block Size       | 392 bytes             |
| Total Events     | 12                    |
| References Count | 23                    |

## List of Events

| Event ID                 | Entrypoint   |   Size |   Instructions |
|--------------------------|--------------|--------|----------------|
| [111](#event-111)        | 0x0000       |     10 |              2 |
| [65535](#event-65535)    | 0x000A       |     40 |             10 |
| [65535.1](#event-655351) | 0x0032       |     33 |              8 |
| [65535.2](#event-655352) | 0x0053       |     12 |              3 |
| [65535.3](#event-655353) | 0x005F       |     15 |              5 |
| [65535.4](#event-655354) | 0x006E       |     19 |              3 |
| [65535.5](#event-655355) | 0x0081       |     29 |              3 |
| [65535.6](#event-655356) | 0x009E       |     19 |              3 |
| [65535.7](#event-655357) | 0x00B1       |     19 |              3 |
| [65535.8](#event-655358) | 0x00C4       |     29 |              3 |
| [65535.9](#event-655359) | 0x00E1       |      9 |              3 |

## DAT References (imed_data)

|   Index | Hex Value   |   Dec Value |
|---------|-------------|-------------|
|       0 | 0x5081      |       20609 |
|       1 | 0xFFFF382E  |  4294916142 |
|       2 | 0x0F3D      |        3901 |
|       3 | 0x084F      |        2127 |
|       4 | 0x0015      |          21 |
|       5 | 0x4A81      |       19073 |
|       6 | 0xFFFF37C8  |  4294916040 |
|       7 | 0x465A      |       18010 |
|       8 | 0xFFFF3036  |  4294914102 |
|       9 | 0x0F3B      |        3899 |
|      10 | 0x485D      |       18525 |
|      11 | 0xFFFF1E3E  |  4294909502 |
|      12 | 0x0F1D      |        3869 |
|      13 | 0x1875      |        6261 |
|      14 | 0x106D2     |       67282 |
|      15 | 0x07D0      |        2000 |
|      16 | 0x0F2C      |        3884 |
|      17 | 0x2CE8      |       11496 |
|      18 | 0x10D32     |       68914 |
|      19 | 0x07CF      |        1999 |
|      20 | 0x005A      |          90 |
|      21 | 0x001E      |          30 |
|      22 | 0x003C      |          60 |

## Events

### Event 111

#### Metadata

| Field        | Value    |
|--------------|----------|
| Entrypoint   | 0x0000   |
| Data Size    | 10 bytes |
| Instructions | 2        |

```
      00 01 02 03 04 05 06 07  08 09 0A 0B 0C 0D 0E 0F
      -- -- -- -- -- -- -- --  -- -- -- -- -- -- -- --
0000: 37 00 80 01 80 02 80 03  80 00                    7.........      
```

#### Opcodes

```
  0: 0x0000 [0x37] UPDATE_EVENT_POSITION_AND_DIR: x=20.609*, z=-51.154*, y=3.901*, direction=186.9°*
  1: 0x0009 [0x00] END_REQSTACK()
```

### Event 65535

#### Metadata

| Field        | Value    |
|--------------|----------|
| Entrypoint   | 0x000A   |
| Data Size    | 40 bytes |
| Instructions | 10       |

```
      00 01 02 03 04 05 06 07  08 09 0A 0B 0C 0D 0E 0F
      -- -- -- -- -- -- -- --  -- -- -- -- -- -- -- --
0000:                                32 04 80 1F 00 05            2.....
0010: 80 06 80 02 80 1F 01 1F  00 07 80 08 80 09 80 1F  ................
0020: 01 1F 00 0A 80 0B 80 0C  80 1F 01 6F 1E 07 50 0F  ...........o..P.
0030: 01 00                                             ..              
```

#### Opcodes

```
  0: 0x000A [0x32] ExtData[1]->MainSpeed = 21* * 0.1
  1: 0x000D [0x1F] MOVE_ENTITY: EventEntity moves to X=19.073*, Z=-51.256*, Y=3.901*
  2: 0x0015 [0x1F] MOVE_ENTITY: Update entity position (mode=1)
  3: 0x0017 [0x1F] MOVE_ENTITY: EventEntity moves to X=18.010*, Z=-53.194*, Y=3.899*
  4: 0x001F [0x1F] MOVE_ENTITY: Update entity position (mode=1)
  5: 0x0021 [0x1F] MOVE_ENTITY: EventEntity moves to X=18.525*, Z=-57.794*, Y=3.869*
  6: 0x0029 [0x1F] MOVE_ENTITY: Update entity position (mode=1)
  7: 0x002B [0x6F] WAIT_FRAME_DELAY: Yield until WaitTime reaches zero
  8: 0x002C [0x1E] EventEntity looks at Aldo (ID: 17780743/0x010F5007) and starts talking
  9: 0x0031 [0x00] END_REQSTACK()
```

### Event 65535.1

#### Metadata

| Field        | Value    |
|--------------|----------|
| Entrypoint   | 0x0032   |
| Data Size    | 33 bytes |
| Instructions | 8        |

```
      00 01 02 03 04 05 06 07  08 09 0A 0B 0C 0D 0E 0F
      -- -- -- -- -- -- -- --  -- -- -- -- -- -- -- --
0030:       1F 00 07 80 08 80  09 80 1F 01 1F 00 05 80    ..............
0040: 06 80 02 80 1F 01 1F 00  00 80 01 80 02 80 1F 01  ................
0050: 22 01 00                                          "..             
```

#### Opcodes

```
  0: 0x0032 [0x1F] MOVE_ENTITY: EventEntity moves to X=18.010*, Z=-53.194*, Y=3.899*
  1: 0x003A [0x1F] MOVE_ENTITY: Update entity position (mode=1)
  2: 0x003C [0x1F] MOVE_ENTITY: EventEntity moves to X=19.073*, Z=-51.256*, Y=3.901*
  3: 0x0044 [0x1F] MOVE_ENTITY: Update entity position (mode=1)
  4: 0x0046 [0x1F] MOVE_ENTITY: EventEntity moves to X=20.609*, Z=-51.154*, Y=3.901*
  5: 0x004E [0x1F] MOVE_ENTITY: Update entity position (mode=1)
  6: 0x0050 [0x22] ENTITY_HIDE_FLAG(enabled=0x01)
  7: 0x0052 [0x00] END_REQSTACK()
```

### Event 65535.2

#### Metadata

| Field        | Value    |
|--------------|----------|
| Entrypoint   | 0x0053   |
| Data Size    | 12 bytes |
| Instructions | 3        |

```
      00 01 02 03 04 05 06 07  08 09 0A 0B 0C 0D 0E 0F
      -- -- -- -- -- -- -- --  -- -- -- -- -- -- -- --
0050:          22 00 37 0D 80  0E 80 0F 80 10 80 00        ".7......... 
```

#### Opcodes

```
  0: 0x0053 [0x22] ENTITY_HIDE_FLAG(enabled=0x00)
  1: 0x0055 [0x37] UPDATE_EVENT_POSITION_AND_DIR: x=6.261*, z=67.282*, y=2.000*, direction=341.4°*
  2: 0x005E [0x00] END_REQSTACK()
```

### Event 65535.3

#### Metadata

| Field        | Value    |
|--------------|----------|
| Entrypoint   | 0x005F   |
| Data Size    | 15 bytes |
| Instructions | 5        |

```
      00 01 02 03 04 05 06 07  08 09 0A 0B 0C 0D 0E 0F
      -- -- -- -- -- -- -- --  -- -- -- -- -- -- -- --
0050:                                               32                 2
0060: 04 80 1F 00 11 80 12 80  13 80 1F 01 6F 00        ............o.  
```

#### Opcodes

```
  0: 0x005F [0x32] ExtData[1]->MainSpeed = 21* * 0.1
  1: 0x0062 [0x1F] MOVE_ENTITY: EventEntity moves to X=11.496*, Z=68.914*, Y=1.999*
  2: 0x006A [0x1F] MOVE_ENTITY: Update entity position (mode=1)
  3: 0x006C [0x6F] WAIT_FRAME_DELAY: Yield until WaitTime reaches zero
  4: 0x006D [0x00] END_REQSTACK()
```

### Event 65535.4

#### Metadata

| Field        | Value    |
|--------------|----------|
| Entrypoint   | 0x006E   |
| Data Size    | 19 bytes |
| Instructions | 3        |

```
      00 01 02 03 04 05 06 07  08 09 0A 0B 0C 0D 0E 0F
      -- -- -- -- -- -- -- --  -- -- -- -- -- -- -- --
0060:                                            5B 14                [.
0070: 80 F8 FF FF 7F F8 FF FF  7F 74 6C 62 30 1C 15 80  .........tlb0...
0080: 00                                                .               
```

#### Opcodes

```
  0: 0x006E [0x5B] LOAD_EXT_SCHEDULER: Load scheduler "tlb0" with entities [EventEntity, EventEntity], work=90*
  1: 0x007D [0x1C] WAIT(30* ticks)
  2: 0x0080 [0x00] END_REQSTACK()
```

### Event 65535.5

#### Metadata

| Field        | Value    |
|--------------|----------|
| Entrypoint   | 0x0081   |
| Data Size    | 29 bytes |
| Instructions | 3        |

```
      00 01 02 03 04 05 06 07  08 09 0A 0B 0C 0D 0E 0F
      -- -- -- -- -- -- -- --  -- -- -- -- -- -- -- --
0080:    5B 14 80 F8 FF FF 7F  F8 FF FF 7F 74 6C 62 31   [..........tlb1
0090: 53 F8 FF FF 7F F8 FF FF  7F 74 6C 62 31 00        S........tlb1.  
```

#### Opcodes

```
  0: 0x0081 [0x5B] LOAD_EXT_SCHEDULER: Load scheduler "tlb1" with entities [EventEntity, EventEntity], work=90*
  1: 0x0090 [0x53] WAIT_SCHEDULER_TASK: Wait for scheduler "tlb1" with entities [EventEntity, EventEntity]
  2: 0x009D [0x00] END_REQSTACK()
```

### Event 65535.6

#### Metadata

| Field        | Value    |
|--------------|----------|
| Entrypoint   | 0x009E   |
| Data Size    | 19 bytes |
| Instructions | 3        |

```
      00 01 02 03 04 05 06 07  08 09 0A 0B 0C 0D 0E 0F
      -- -- -- -- -- -- -- --  -- -- -- -- -- -- -- --
0090:                                            5B 14                [.
00A0: 80 F8 FF FF 7F F8 FF FF  7F 74 6C 6B 30 1C 15 80  .........tlk0...
00B0: 00                                                .               
```

#### Opcodes

```
  0: 0x009E [0x5B] LOAD_EXT_SCHEDULER: Load scheduler "tlk0" with entities [EventEntity, EventEntity], work=90*
  1: 0x00AD [0x1C] WAIT(30* ticks)
  2: 0x00B0 [0x00] END_REQSTACK()
```

### Event 65535.7

#### Metadata

| Field        | Value    |
|--------------|----------|
| Entrypoint   | 0x00B1   |
| Data Size    | 19 bytes |
| Instructions | 3        |

```
      00 01 02 03 04 05 06 07  08 09 0A 0B 0C 0D 0E 0F
      -- -- -- -- -- -- -- --  -- -- -- -- -- -- -- --
00B0:    5B 14 80 F8 FF FF 7F  F8 FF FF 7F 74 68 6B 31   [..........thk1
00C0: 1C 15 80 00                                       ....            
```

#### Opcodes

```
  0: 0x00B1 [0x5B] LOAD_EXT_SCHEDULER: Load scheduler "thk1" with entities [EventEntity, EventEntity], work=90*
  1: 0x00C0 [0x1C] WAIT(30* ticks)
  2: 0x00C3 [0x00] END_REQSTACK()
```

### Event 65535.8

#### Metadata

| Field        | Value    |
|--------------|----------|
| Entrypoint   | 0x00C4   |
| Data Size    | 29 bytes |
| Instructions | 3        |

```
      00 01 02 03 04 05 06 07  08 09 0A 0B 0C 0D 0E 0F
      -- -- -- -- -- -- -- --  -- -- -- -- -- -- -- --
00C0:             5B 14 80 F8  FF FF 7F F8 FF FF 7F 74      [..........t
00D0: 68 6B 32 53 F8 FF FF 7F  F8 FF FF 7F 74 68 6B 32  hk2S........thk2
00E0: 00                                                .               
```

#### Opcodes

```
  0: 0x00C4 [0x5B] LOAD_EXT_SCHEDULER: Load scheduler "thk2" with entities [EventEntity, EventEntity], work=90*
  1: 0x00D3 [0x53] WAIT_SCHEDULER_TASK: Wait for scheduler "thk2" with entities [EventEntity, EventEntity]
  2: 0x00E0 [0x00] END_REQSTACK()
```

### Event 65535.9

#### Metadata

| Field        | Value   |
|--------------|---------|
| Entrypoint   | 0x00E1  |
| Data Size    | 9 bytes |
| Instructions | 3       |

```
      00 01 02 03 04 05 06 07  08 09 0A 0B 0C 0D 0E 0F
      -- -- -- -- -- -- -- --  -- -- -- -- -- -- -- --
00E0:    5E 69 64 6C 30 1C 16  80 00                     ^idl0....      
```

#### Opcodes

```
  0: 0x00E1 [0x5E] EventEntity goes idle (kills current action) (animation: "idl0")
  1: 0x00E6 [0x1C] WAIT(60* ticks)
  2: 0x00E9 [0x00] END_REQSTACK()
```
