# 17781011 - Samantha

## Common Data

| Field            | Value                 |
|------------------|-----------------------|
| Zone             | Lower Jeuno (ID: 245) |
| Block Size       | 64 bytes              |
| Total Events     | 2                     |
| References Count | 3                     |

## List of Events

| Event ID              | Entrypoint   |   Size |   Instructions |
|-----------------------|--------------|--------|----------------|
| [65535](#event-65535) | 0x0000       |      1 |              1 |
| [20077](#event-20077) | 0x0001       |     27 |              8 |

## DAT References (imed_data)

|   Index | Hex Value   |   Dec Value |
|---------|-------------|-------------|
|       0 | 0x003F      |          63 |
|       1 | 0x0078      |         120 |
|       2 | 0x2AEF      |       10991 |

## String References

- **10991**: Samantha smiles creepily at you.

## Events

### Event 65535

#### Metadata

| Field        | Value   |
|--------------|---------|
| Entrypoint   | 0x0000  |
| Data Size    | 1 bytes |
| Instructions | 1       |

```
      00 01 02 03 04 05 06 07  08 09 0A 0B 0C 0D 0E 0F
      -- -- -- -- -- -- -- --  -- -- -- -- -- -- -- --
0000: 00                                                .               
```

#### Opcodes

```
  0: 0x0000 [0x00] END_REQSTACK()
```

### Event 20077

#### Metadata

| Field        | Value    |
|--------------|----------|
| Entrypoint   | 0x0001   |
| Data Size    | 27 bytes |
| Instructions | 8        |

```
      00 01 02 03 04 05 06 07  08 09 0A 0B 0C 0D 0E 0F
      -- -- -- -- -- -- -- --  -- -- -- -- -- -- -- --
0000:    1E F0 FF FF 7F 6F 70  C4 02 00 80 F8 FF FF 7F   .....op........
0010: F0 FF FF 7F 1C 01 80 48  02 80 21 00              .......H..!.    
```

#### Opcodes

```
  0: 0x0001 [0x1E] EventEntity looks at LocalPlayer and starts talking
  1: 0x0006 [0x6F] WAIT_FRAME_DELAY: Yield until WaitTime reaches zero
  2: 0x0007 [0x70] WAIT_ENTITY_RENDER_FLAG: Wait while EventEntity->Render.Flags3 bit 2 is set (cancel turn if not)
  3: 0x0008 [0xC4] SCHEDULE_MAGIC_CASTING_ALT (arg=18): EventEntity casts magic 63* on LocalPlayer
  4: 0x0014 [0x1C] WAIT(120* ticks)
  5: 0x0017 [0x48] [System] [10991*]:
    → "Samantha smiles creepily at you."
  6: 0x001A [0x21] END_EVENT
  7: 0x001B [0x00] END_REQSTACK()
```
