# 17781004 - Vivian

## Common Data

| Field            | Value                 |
|------------------|-----------------------|
| Zone             | Lower Jeuno (ID: 245) |
| Block Size       | 92 bytes              |
| Total Events     | 2                     |
| References Count | 6                     |

## List of Events

| Event ID              | Entrypoint   |   Size |   Instructions |
|-----------------------|--------------|--------|----------------|
| [65535](#event-65535) | 0x0000       |      1 |              1 |
| [20076](#event-20076) | 0x0001       |     40 |              9 |

## DAT References (imed_data)

|   Index | Hex Value   |   Dec Value |
|---------|-------------|-------------|
|       0 | 0x003D      |          61 |
|       1 | 0x0078      |         120 |
|       2 | 0x2B03      |       11011 |
|       3 | 0x2B04      |       11012 |
|       4 | 0x003C      |          60 |
|       5 | 0x2B13      |       11027 |

## String References

- **11027**: Vivian is secreting a strange liquid.

## Events

### Event 65535

#### Metadata

| Field        | Value   |
|--------------|---------|
| Entrypoint   | 0x0000  |
| Data Size    | 1 bytes |
| Instructions | 1       |

```
      00 01 02 03 04 05 06 07  08 09 0A 0B 0C 0D 0E 0F
      -- -- -- -- -- -- -- --  -- -- -- -- -- -- -- --
0000: 00                                                .               
```

#### Opcodes

```
  0: 0x0000 [0x00] END_REQSTACK()
```

### Event 20076

#### Metadata

| Field        | Value    |
|--------------|----------|
| Entrypoint   | 0x0001   |
| Data Size    | 40 bytes |
| Instructions | 9        |

```
      00 01 02 03 04 05 06 07  08 09 0A 0B 0C 0D 0E 0F
      -- -- -- -- -- -- -- --  -- -- -- -- -- -- -- --
0000:    C4 02 00 80 F8 FF FF  7F 15 51 0F 01 1C 01 80   .........Q.....
0010: 2B 16 51 0F 01 02 80 1C  01 80 2B 16 51 0F 01 03  +.Q.......+.Q...
0020: 80 1C 04 80 48 05 80 21  00                       ....H..!.       
```

#### Opcodes

```
  0: 0x0001 [0xC4] SCHEDULE_MAGIC_CASTING_ALT (arg=18): EventEntity casts magic 61* on Unnamed NPC (ID: 17781013/0x010F5115)
  1: 0x000D [0x1C] WAIT(120* ticks)
  2: 0x0010 [0x2B] Olero-Velero (ID: 17781014/0x010F5116) [11011*]:
    → "Erp!!!"
  3: 0x0017 [0x1C] WAIT(120* ticks)
  4: 0x001A [0x2B] Olero-Velero (ID: 17781014/0x010F5116) [11012*]:
    → "Not half bad!"
  5: 0x0021 [0x1C] WAIT(60* ticks)
  6: 0x0024 [0x48] [System] [11027*]:
    → "Vivian is secreting a strange liquid."
  7: 0x0027 [0x21] END_EVENT
  8: 0x0028 [0x00] END_REQSTACK()
```
