# 17780749 - Harnek

## Common Data

| Field            | Value                 |
|------------------|-----------------------|
| Zone             | Lower Jeuno (ID: 245) |
| Block Size       | 2912 bytes            |
| Total Events     | 16                    |
| References Count | 47                    |

## List of Events

| Event ID                 | Entrypoint   |   Size |   Instructions |
|--------------------------|--------------|--------|----------------|
| [65535](#event-65535)    | 0x0000       |      1 |              1 |
| [12](#event-12)          | 0x0001       |     50 |             10 |
| [13](#event-13)          | 0x0033       |     58 |             12 |
| [9](#event-9)            | 0x006D       |     10 |              2 |
| [10](#event-10)          | 0x0077       |     10 |              2 |
| [65535.1](#event-655351) | 0x0081       |     90 |             18 |
| [20](#event-20)          | 0x00DB       |      1 |              1 |
| [217](#event-217)        | 0x00DC       |     64 |             12 |
| [159](#event-159)        | 0x011C       |      1 |              1 |
| [10021](#event-10021)    | 0x011D       |   1624 |            184 |
| [10022](#event-10022)    | 0x0775       |    676 |             94 |
| [10125](#event-10125)    | 0x0A19       |      1 |              1 |
| [65535.2](#event-655352) | 0x0A1A       |     14 |              4 |
| [65535.3](#event-655353) | 0x0A28       |     18 |              6 |
| [65535.4](#event-655354) | 0x0A3A       |     19 |              3 |
| [65535.5](#event-655355) | 0x0A4D       |      4 |              2 |

## DAT References (imed_data)

|   Index | Hex Value   |   Dec Value |
|---------|-------------|-------------|
|       0 | 0x0000      |           0 |
|       1 | 0x21E1      |        8673 |
|       2 | 0x001E      |          30 |
|       3 | 0x21F3      |        8691 |
|       4 | 0x21F4      |        8692 |
|       5 | 0xA043      |       41027 |
|       6 | 0xFFFFB826  |  4294948902 |
|       7 | 0xFFFFFF9D  |  4294967197 |
|       8 | 0x0950      |        2384 |
|       9 | 0x07D0      |        2000 |
|      10 | 0x000D      |          13 |
|      11 | 0x1E18      |        7704 |
|      12 | 0x1E19      |        7705 |
|      13 | 0x1EFA      |        7930 |
|      14 | 0x1EFB      |        7931 |
|      15 | 0x00C8      |         200 |
|      16 | 0x0064      |         100 |
|      17 | 0x0003      |           3 |
|      18 | 0x01C7      |         455 |
|      19 | 0x007F      |         127 |
|      20 | 0x0001      |           1 |
|      21 | 0x000F      |          15 |
|      22 | 0x012C      |         300 |
|      23 | 0x0096      |         150 |
|      24 | 0x1EFD      |        7933 |
|      25 | 0x1F01      |        7937 |
|      26 | 0x1F0A      |        7946 |
|      27 | 0x1F0B      |        7947 |
|      28 | 0x1F10      |        7952 |
|      29 | 0x0008      |           8 |
|      30 | 0x0004      |           4 |
|      31 | 0x003C      |          60 |
|      32 | 0x0005      |           5 |
|      33 | 0x0006      |           6 |
|      34 | 0x006E      |         110 |
|      35 | 0x1F14      |        7956 |
|      36 | 0x1F15      |        7957 |
|      37 | 0x1F17      |        7959 |
|      38 | 0x1F19      |        7961 |
|      39 | 0x00C9      |         201 |
|      40 | 0x8C1A      |       35866 |
|      41 | 0xFFFF7B5D  |  4294933341 |
|      42 | 0x0F3B      |        3899 |
|      43 | 0x8214      |       33300 |
|      44 | 0xFFFF4E44  |  4294921796 |
|      45 | 0x0F3C      |        3900 |
|      46 | 0x04FF      |        1279 |

## String References

- **7704**: Welcome to the Tenshodo. You want something, we got it. We got all kinds of special merchandise you won't find anywhere else!
- **7705**: We ain't cheap, but you get what you pay for! Take your time, have a look around, see if there's somethin' you like.
- **7930**: Do you have the $3? Vauderame asked for you...?
- **7931**: Wait in that room over there. Everyone will be here momentarily.
- **7956**: You have completed your assignment?
- **7957**: Vauderame is waiting for you in the same room as before. Go and present your report.

## Events

### Event 65535

#### Metadata

| Field        | Value   |
|--------------|---------|
| Entrypoint   | 0x0000  |
| Data Size    | 1 bytes |
| Instructions | 1       |

```
      00 01 02 03 04 05 06 07  08 09 0A 0B 0C 0D 0E 0F
      -- -- -- -- -- -- -- --  -- -- -- -- -- -- -- --
0000: 00                                                .               
```

#### Opcodes

```
  0: 0x0000 [0x00] END_REQSTACK()
```

### Event 12

#### Metadata

| Field        | Value    |
|--------------|----------|
| Entrypoint   | 0x0001   |
| Data Size    | 50 bytes |
| Instructions | 10       |

```
      00 01 02 03 04 05 06 07  08 09 0A 0B 0C 0D 0E 0F
      -- -- -- -- -- -- -- --  -- -- -- -- -- -- -- --
0000:    1E F0 FF FF 7F 6F 70  66 00 80 0D 50 0F 01 0D   .....opf...P...
0010: 50 0F 01 74 6C 6B 30 2B  0D 50 0F 01 01 80 23 66  P..tlk0+.P....#f
0020: 00 80 0D 50 0F 01 0D 50  0F 01 74 65 6E 30 1C 02  ...P...P..ten0..
0030: 80 21 00                                          .!.             
```

#### Opcodes

```
  0: 0x0001 [0x1E] EventEntity looks at LocalPlayer and starts talking
  1: 0x0006 [0x6F] WAIT_FRAME_DELAY: Yield until WaitTime reaches zero
  2: 0x0007 [0x70] WAIT_ENTITY_RENDER_FLAG: Wait while EventEntity->Render.Flags3 bit 2 is set (cancel turn if not)
  3: 0x0008 [0x66] LOAD_EXT_SCHEDULER_MAIN: Load scheduler "tlk0" with entities [Harnek (ID: 17780749/0x010F500D), Harnek (ID: 17780749/0x010F500D)], work=0*
  4: 0x0017 [0x2B] Harnek (ID: 17780749/0x010F500D) [8673*]:
    → "<Player>, you weren't thinking of running now, were you? If you know what's good for you, you'll head on up to the Grand Duke Palace and face your crimes."
  5: 0x001E [0x23] WAIT_FOR_DIALOG_INTERACTION
  6: 0x001F [0x66] LOAD_EXT_SCHEDULER_MAIN: Load scheduler "ten0" with entities [Harnek (ID: 17780749/0x010F500D), Harnek (ID: 17780749/0x010F500D)], work=0*
  7: 0x002E [0x1C] WAIT(30* ticks)
  8: 0x0031 [0x21] END_EVENT
  9: 0x0032 [0x00] END_REQSTACK()
```

### Event 13

#### Metadata

| Field        | Value    |
|--------------|----------|
| Entrypoint   | 0x0033   |
| Data Size    | 58 bytes |
| Instructions | 12       |

```
      00 01 02 03 04 05 06 07  08 09 0A 0B 0C 0D 0E 0F
      -- -- -- -- -- -- -- --  -- -- -- -- -- -- -- --
0030:          1E F0 FF FF 7F  6F 70 66 00 80 0D 50 0F     .....opf...P.
0040: 01 0D 50 0F 01 74 6C 6B  30 2B 0D 50 0F 01 03 80  ..P..tlk0+.P....
0050: 23 66 00 80 0D 50 0F 01  0D 50 0F 01 74 65 6E 30  #f...P...P..ten0
0060: 2B 0D 50 0F 01 04 80 23  1C 02 80 21 00           +.P....#...!.   
```

#### Opcodes

```
  0: 0x0033 [0x1E] EventEntity looks at LocalPlayer and starts talking
  1: 0x0038 [0x6F] WAIT_FRAME_DELAY: Yield until WaitTime reaches zero
  2: 0x0039 [0x70] WAIT_ENTITY_RENDER_FLAG: Wait while EventEntity->Render.Flags3 bit 2 is set (cancel turn if not)
  3: 0x003A [0x66] LOAD_EXT_SCHEDULER_MAIN: Load scheduler "tlk0" with entities [Harnek (ID: 17780749/0x010F500D), Harnek (ID: 17780749/0x010F500D)], work=0*
  4: 0x0049 [0x2B] Harnek (ID: 17780749/0x010F500D) [8691*]:
    → "They say some Elvaan girl was attacked while in the Temple of the Goddess--right in front of the statue of Altana! What is this city coming to!?"
  5: 0x0050 [0x23] WAIT_FOR_DIALOG_INTERACTION
  6: 0x0051 [0x66] LOAD_EXT_SCHEDULER_MAIN: Load scheduler "ten0" with entities [Harnek (ID: 17780749/0x010F500D), Harnek (ID: 17780749/0x010F500D)], work=0*
  7: 0x0060 [0x2B] Harnek (ID: 17780749/0x010F500D) [8692*]:
    → "Huh? You think it was a Tenshodo member that did the dirty deed!? <Player>, you'd better watch your tongue unless you want to see it on a plate!"
  8: 0x0067 [0x23] WAIT_FOR_DIALOG_INTERACTION
  9: 0x0068 [0x1C] WAIT(30* ticks)
 10: 0x006B [0x21] END_EVENT
 11: 0x006C [0x00] END_REQSTACK()
```

### Event 9

#### Metadata

| Field        | Value    |
|--------------|----------|
| Entrypoint   | 0x006D   |
| Data Size    | 10 bytes |
| Instructions | 2        |

```
      00 01 02 03 04 05 06 07  08 09 0A 0B 0C 0D 0E 0F
      -- -- -- -- -- -- -- --  -- -- -- -- -- -- -- --
0060:                                         37 05 80               7..
0070: 06 80 07 80 08 80 00                              .......         
```

#### Opcodes

```
  0: 0x006D [0x37] UPDATE_EVENT_POSITION_AND_DIR: x=41.027*, z=-18.394*, y=-0.099*, direction=209.5°*
  1: 0x0076 [0x00] END_REQSTACK()
```

### Event 10

#### Metadata

| Field        | Value    |
|--------------|----------|
| Entrypoint   | 0x0077   |
| Data Size    | 10 bytes |
| Instructions | 2        |

```
      00 01 02 03 04 05 06 07  08 09 0A 0B 0C 0D 0E 0F
      -- -- -- -- -- -- -- --  -- -- -- -- -- -- -- --
0070:                      37  05 80 06 80 07 80 08 80         7........
0080: 00                                                .               
```

#### Opcodes

```
  0: 0x0077 [0x37] UPDATE_EVENT_POSITION_AND_DIR: x=41.027*, z=-18.394*, y=-0.099*, direction=209.5°*
  1: 0x0080 [0x00] END_REQSTACK()
```

### Event 65535.1

#### Metadata

| Field        | Value    |
|--------------|----------|
| Entrypoint   | 0x0081   |
| Data Size    | 90 bytes |
| Instructions | 13       |

```
      00 01 02 03 04 05 06 07  08 09 0A 0B 0C 0D 0E 0F
      -- -- -- -- -- -- -- --  -- -- -- -- -- -- -- --
0080:    03 00 00 09 80 1A 97  00 32 0A 80 1F 00 01 00   ........2......
0090: 02 00 03 00 1F 01 00 3B  F8 FF FF 7F 01 00 02 00  .......;........
00A0: 03 00 3A F8 FF FF 7F 04  00 17 05 00 04 00 00 00  ..:.............
00B0: 16 06 00 04 00 00 00 07  01 00 05 00 07 02 00 06  ................
00C0: 00 1B 17 05 00 04 00 00  00 16 06 00 04 00 00 00  ................
00D0: 07 01 00 05 00 07 02 00  06 00 1B                 ...........     
```

#### Opcodes

```
  0: 0x0081 [0x03] ExtData[1]->WorkLocal[0] = 2000*
  1: 0x0086 [0x1A] CALL_SUBROUTINE(address=0x0097)
  2: 0x0089 [0x32] ExtData[1]->MainSpeed = 13* * 0.1
  3: 0x008C [0x1F] MOVE_ENTITY: EventEntity moves to X=ExtData[1]->WorkLocal[1], Z=ExtData[1]->WorkLocal[2], Y=ExtData[1]->WorkLocal[3]
  4: 0x0094 [0x1F] MOVE_ENTITY: Update entity position (mode=1)
  5: 0x0096 [0x00] END_REQSTACK()

SUBROUTINE_0097:
  6: 0x0097 [0x3B] GET_ENTITY_POSITION(entity=EventEntity, x_destination=ExtData[1]->WorkLocal[1], y_destination=ExtData[1]->WorkLocal[2], z_destination=ExtData[1]->WorkLocal[3])
  7: 0x00A2 [0x3A] CONVERT_YAW_TO_BYTE(entity=EventEntity, result_destination=ExtData[1]->WorkLocal[4])
  8: 0x00A9 [0x17] ExtData[1]->WorkLocal[5] = cos(ExtData[1]->WorkLocal[4]) * ExtData[1]->WorkLocal[0]
  9: 0x00B0 [0x16] ExtData[1]->WorkLocal[6] = sin(ExtData[1]->WorkLocal[4]) * ExtData[1]->WorkLocal[0]
 10: 0x00B7 [0x07] ExtData[1]->WorkLocal[1] += ExtData[1]->WorkLocal[5]
 11: 0x00BC [0x07] ExtData[1]->WorkLocal[2] += ExtData[1]->WorkLocal[6]
 12: 0x00C1 [0x1B] RETURN
```

#### Data or dead code:

```
# Dead code (unreachable instructions):
     0x00C2 [0x17] ExtData[1]->WorkLocal[5] = cos(ExtData[1]->WorkLocal[4]) * ExtData[1]->WorkLocal[0]
     0x00C9 [0x16] ExtData[1]->WorkLocal[6] = sin(ExtData[1]->WorkLocal[4]) * ExtData[1]->WorkLocal[0]
     0x00D0 [0x07] ExtData[1]->WorkLocal[1] += ExtData[1]->WorkLocal[5]
     0x00D5 [0x07] ExtData[1]->WorkLocal[2] += ExtData[1]->WorkLocal[6]
     0x00DA [0x1B] RETURN
```

### Event 20

#### Metadata

| Field        | Value   |
|--------------|---------|
| Entrypoint   | 0x00DB  |
| Data Size    | 1 bytes |
| Instructions | 1       |

```
      00 01 02 03 04 05 06 07  08 09 0A 0B 0C 0D 0E 0F
      -- -- -- -- -- -- -- --  -- -- -- -- -- -- -- --
00D0:                                   00                         .    
```

#### Opcodes

```
  0: 0x00DB [0x00] END_REQSTACK()
```

### Event 217

#### Metadata

| Field        | Value    |
|--------------|----------|
| Entrypoint   | 0x00DC   |
| Data Size    | 64 bytes |
| Instructions | 12       |

```
      00 01 02 03 04 05 06 07  08 09 0A 0B 0C 0D 0E 0F
      -- -- -- -- -- -- -- --  -- -- -- -- -- -- -- --
00D0:                                      1E F0 FF FF              ....
00E0: 7F 6F 76 F8 FF FF 7F 66  00 80 F8 FF FF 7F F8 FF  .ov....f........
00F0: FF 7F 74 6C 6B 30 1D 0B  80 23 1D 0C 80 23 66 00  ..tlk0...#...#f.
0100: 80 F8 FF FF 7F F8 FF FF  7F 74 65 6E 30 53 F8 FF  .........ten0S..
0110: FF 7F F8 FF FF 7F 74 65  6E 30 21 00              ......ten0!.    
```

#### Opcodes

```
  0: 0x00DC [0x1E] EventEntity looks at LocalPlayer and starts talking
  1: 0x00E1 [0x6F] WAIT_FRAME_DELAY: Yield until WaitTime reaches zero
  2: 0x00E2 [0x76] CHECK_ENTITY_RENDER_FLAGS: Wait until EventEntity Render.Flags0 and Render.Flags3 conditions are met
  3: 0x00E7 [0x66] LOAD_EXT_SCHEDULER_MAIN: Load scheduler "tlk0" with entities [EventEntity, EventEntity], work=0*
  4: 0x00F6 [0x1D] PRINT_EVENT_MESSAGE(message_id=7704*)
    → "Welcome to the Tenshodo. You want something, we got it. We got all kinds of special merchandise you won't find anywhere else!"
  5: 0x00F9 [0x23] WAIT_FOR_DIALOG_INTERACTION
  6: 0x00FA [0x1D] PRINT_EVENT_MESSAGE(message_id=7705*)
    → "We ain't cheap, but you get what you pay for! Take your time, have a look around, see if there's somethin' you like."
  7: 0x00FD [0x23] WAIT_FOR_DIALOG_INTERACTION
  8: 0x00FE [0x66] LOAD_EXT_SCHEDULER_MAIN: Load scheduler "ten0" with entities [EventEntity, EventEntity], work=0*
  9: 0x010D [0x53] WAIT_SCHEDULER_TASK: Wait for scheduler "ten0" with entities [EventEntity, EventEntity]
 10: 0x011A [0x21] END_EVENT
 11: 0x011B [0x00] END_REQSTACK()
```

### Event 159

#### Metadata

| Field        | Value   |
|--------------|---------|
| Entrypoint   | 0x011C  |
| Data Size    | 1 bytes |
| Instructions | 1       |

```
      00 01 02 03 04 05 06 07  08 09 0A 0B 0C 0D 0E 0F
      -- -- -- -- -- -- -- --  -- -- -- -- -- -- -- --
0110:                                      00                       .   
```

#### Opcodes

```
  0: 0x011C [0x00] END_REQSTACK()
```

### Event 10021

#### Metadata

| Field        | Value      |
|--------------|------------|
| Entrypoint   | 0x011D     |
| Data Size    | 1624 bytes |
| Instructions | 182        |

```
      00 01 02 03 04 05 06 07  08 09 0A 0B 0C 0D 0E 0F
      -- -- -- -- -- -- -- --  -- -- -- -- -- -- -- --
0110:                                         20 01 42                .B
0120: 1E F0 FF FF 7F 6F 70 1D  0D 80 23 1D 0E 80 23 5D  .....op...#...#]
0130: 00 80 0F 80 45 0F 80 F8  FF FF 7F F8 FF FF 7F 66  ....E..........f
0140: 64 6F 31 00 80 1C 10 80  46 01 38 11 80 75 00 12  do1.....F.8..u..
0150: 80 75 01 5C 00 13 80 5C  01 13 80 5D 13 80 14 80  .u.\...\...]....
0160: 29 08 41 50 0F 01 03 29  08 41 50 0F 01 04 29 0B  ).AP...).AP...).
0170: F0 FF FF 7F 2C 29 0B F0  FF FF 7F 31 4A 3F 50 0F  ....,).....1J?P.
0180: 01 F0 FF FF 7F 6F 76 3F  50 0F 01 80 3F 50 0F 01  .....ov?P...?P..
0190: 80 42 50 0F 01 80 43 50  0F 01 80 41 50 0F 01 80  .BP...CP...AP...
01A0: 40 50 0F 01 80 46 50 0F  01 80 45 50 0F 01 45 15  @P...FP...EP..E.
01B0: 80 F0 FF FF 7F F0 FF FF  7F 73 30 33 33 00 80 45  .........s033..E
01C0: 0F 80 F8 FF FF 7F F8 FF  FF 7F 66 64 69 31 00 80  ..........fdi1..
01D0: 1C 16 80 52 15 80 F0 FF  FF 7F F0 FF FF 7F 73 30  ...R..........s0
01E0: 33 33 45 0F 80 F0 FF FF  7F F0 FF FF 7F 6F 76 6C  33E..........ovl
01F0: 31 00 80 45 15 80 F0 FF  FF 7F F0 FF FF 7F 73 31  1..E..........s1
0200: 35 30 00 80 1C 17 80 52  15 80 F0 FF FF 7F F0 FF  50.....R........
0210: FF 7F 73 31 35 30 45 0F  80 F0 FF FF 7F F0 FF FF  ..s150E.........
0220: 7F 6F 76 6C 31 00 80 45  15 80 F0 FF FF 7F F0 FF  .ovl1..E........
0230: FF 7F 73 30 33 34 00 80  7B 3F 50 0F 01 29 0B 3F  ..s034..{?P..).?
0240: 50 0F 01 18 52 15 80 F0  FF FF 7F F0 FF FF 7F 73  P...R..........s
0250: 30 33 34 45 15 80 F0 FF  FF 7F F0 FF FF 7F 73 30  034E..........s0
0260: 33 36 00 80 27 0B 3F 50  0F 01 15 2B 3F 50 0F 01  36..'.?P...+?P..
0270: 18 80 23 2A 0B 3F 50 0F  01 52 15 80 F0 FF FF 7F  ..#*.?P..R......
0280: F0 FF FF 7F 73 30 33 36  45 0F 80 F0 FF FF 7F F0  ....s036E.......
0290: FF FF 7F 6F 76 6C 31 00  80 45 15 80 F0 FF FF 7F  ...ovl1..E......
02A0: F0 FF FF 7F 73 30 33 35  00 80 29 0B 3F 50 0F 01  ....s035..).?P..
02B0: 19 52 15 80 F0 FF FF 7F  F0 FF FF 7F 73 30 33 35  .R..........s035
02C0: 45 15 80 F0 FF FF 7F F0  FF FF 7F 73 30 33 37 00  E..........s037.
02D0: 80 29 0B 41 50 0F 01 1B  79 00 40 50 0F 01 41 50  .).AP...y.@P..AP
02E0: 0F 01 29 0B 40 50 0F 01  11 52 15 80 F0 FF FF 7F  ..).@P...R......
02F0: F0 FF FF 7F 73 30 33 37  45 15 80 F0 FF FF 7F F0  ....s037E.......
0300: FF FF 7F 73 30 33 38 00  80 79 00 40 50 0F 01 42  ...s038..y.@P..B
0310: 50 0F 01 79 00 45 50 0F  01 42 50 0F 01 79 00 F0  P..y.EP..BP..y..
0320: FF FF 7F 42 50 0F 01 79  00 41 50 0F 01 42 50 0F  ...BP..y.AP..BP.
0330: 01 27 0B 42 50 0F 01 0D  2B 42 50 0F 01 19 80 23  .'.BP...+BP....#
0340: 2A 0B 42 50 0F 01 79 00  F0 FF FF 7F 42 50 0F 01  *.BP..y.....BP..
0350: 29 0B 42 50 0F 01 10 29  0B 44 50 0F 01 09 52 15  ).BP...).DP...R.
0360: 80 F0 FF FF 7F F0 FF FF  7F 73 30 33 38 45 15 80  .........s038E..
0370: F0 FF FF 7F F0 FF FF 7F  73 30 33 39 00 80 79 00  ........s039..y.
0380: 40 50 0F 01 3F 50 0F 01  79 00 45 50 0F 01 3F 50  @P..?P..y.EP..?P
0390: 0F 01 79 00 F0 FF FF 7F  3F 50 0F 01 79 00 41 50  ..y.....?P..y.AP
03A0: 0F 01 3F 50 0F 01 4A 42  50 0F 01 3F 50 0F 01 29  ..?P..JBP..?P..)
03B0: 0B 3F 50 0F 01 1A 52 15  80 F0 FF FF 7F F0 FF FF  .?P...R.........
03C0: 7F 73 30 33 39 45 15 80  F0 FF FF 7F F0 FF FF 7F  .s039E..........
03D0: 73 30 34 30 00 80 29 0B  3F 50 0F 01 1B 29 0B 3F  s040..).?P...).?
03E0: 50 0F 01 1C 52 15 80 F0  FF FF 7F F0 FF FF 7F 73  P...R..........s
03F0: 30 34 30 45 0F 80 F0 FF  FF 7F F0 FF FF 7F 6F 76  040E..........ov
0400: 6C 31 00 80 45 15 80 F0  FF FF 7F F0 FF FF 7F 73  l1..E..........s
0410: 30 34 31 00 80 29 0B 3F  50 0F 01 1D 6F 76 42 50  041..).?P...ovBP
0420: 0F 01 52 15 80 F0 FF FF  7F F0 FF FF 7F 73 30 34  ..R..........s04
0430: 31 45 15 80 F0 FF FF 7F  F0 FF FF 7F 73 30 34 32  1E..........s042
0440: 00 80 79 00 3F 50 0F 01  42 50 0F 01 29 0B 42 50  ..y.?P..BP..).BP
0450: 0F 01 11 29 0B 3F 50 0F  01 1E 52 15 80 F0 FF FF  ...).?P...R.....
0460: 7F F0 FF FF 7F 73 30 34  32 45 0F 80 F0 FF FF 7F  .....s042E......
0470: F0 FF FF 7F 6F 76 6C 31  00 80 45 15 80 F0 FF FF  ....ovl1..E.....
0480: 7F F0 FF FF 7F 73 30 34  33 00 80 2B 3F 50 0F 01  .....s043..+?P..
0490: 1A 80 23 2B 3F 50 0F 01  1B 80 23 52 15 80 F0 FF  ..#+?P....#R....
04A0: FF 7F F0 FF FF 7F 73 30  34 33 45 15 80 F0 FF FF  ......s043E.....
04B0: 7F F0 FF FF 7F 73 30 34  34 00 80 29 0B 3F 50 0F  .....s044..).?P.
04C0: 01 1F 52 15 80 F0 FF FF  7F F0 FF FF 7F 73 30 34  ..R..........s04
04D0: 34 45 0F 80 F0 FF FF 7F  F0 FF FF 7F 6F 76 6C 31  4E..........ovl1
04E0: 00 80 45 15 80 F0 FF FF  7F F0 FF FF 7F 73 30 33  ..E..........s03
04F0: 35 00 80 29 0B 3F 50 0F  01 20 29 0B 3F 50 0F 01  5..).?P.. ).?P..
0500: 21 52 15 80 F0 FF FF 7F  F0 FF FF 7F 73 30 33 35  !R..........s035
0510: 45 15 80 F0 FF FF 7F F0  FF FF 7F 73 30 34 35 00  E..........s045.
0520: 80 27 0B 3F 50 0F 01 16  2B 3F 50 0F 01 1C 80 23  .'.?P...+?P....#
0530: 2A 0B 3F 50 0F 01 52 15  80 F0 FF FF 7F F0 FF FF  *.?P..R.........
0540: 7F 73 30 34 35 02 08 10  1D 80 00 61 05 45 15 80  .s045......a.E..
0550: F0 FF FF 7F F0 FF FF 7F  73 31 35 39 00 80 01 AA  ........s159....
0560: 05 02 08 10 11 80 00 7D  05 45 15 80 F0 FF FF 7F  .......}.E......
0570: F0 FF FF 7F 73 31 35 39  00 80 01 AA 05 02 08 10  ....s159........
0580: 1E 80 00 99 05 45 15 80  F0 FF FF 7F F0 FF FF 7F  .....E..........
0590: 73 31 35 39 00 80 01 AA  05 45 15 80 F0 FF FF 7F  s159.....E......
05A0: F0 FF FF 7F 73 30 34 36  00 80 4A 3F 50 0F 01 F0  ....s046..J?P...
05B0: FF FF 7F 29 0B 3F 50 0F  01 23 6F 76 3F 50 0F 01  ...).?P..#ov?P..
05C0: 45 0F 80 F8 FF FF 7F F8  FF FF 7F 66 64 6F 31 00  E..........fdo1.
05D0: 80 1C 1F 80 29 0B F0 FF  FF 7F 2D 29 0B 3F 50 0F  ....).....-).?P.
05E0: 01 14 79 00 3F 50 0F 01  F0 FF FF 7F 1C 1F 80 02  ..y.?P..........
05F0: 08 10 1D 80 00 0B 06 45  15 80 F0 FF FF 7F F0 FF  .......E........
0600: FF 7F 73 31 36 30 00 80  01 8C 06 02 08 10 11 80  ..s160..........
0610: 00 27 06 45 15 80 F0 FF  FF 7F F0 FF FF 7F 73 31  .'.E..........s1
0620: 36 31 00 80 01 8C 06 02  08 10 1E 80 00 43 06 45  61...........C.E
0630: 15 80 F0 FF FF 7F F0 FF  FF 7F 73 31 36 31 00 80  ..........s161..
0640: 01 8C 06 02 08 10 20 80  00 5F 06 45 15 80 F0 FF  ...... .._.E....
0650: FF 7F F0 FF FF 7F 73 31  36 33 00 80 01 8C 06 02  ......s163......
0660: 08 10 21 80 00 7B 06 45  15 80 F0 FF FF 7F F0 FF  ..!..{.E........
0670: FF 7F 73 31 36 33 00 80  01 8C 06 45 15 80 F0 FF  ..s163.....E....
0680: FF 7F F0 FF FF 7F 73 30  34 37 00 80 45 0F 80 F8  ......s047..E...
0690: FF FF 7F F8 FF FF 7F 66  64 69 31 00 80 29 0B 3F  .......fdi1..).?
06A0: 50 0F 01 24 5D 00 80 0F  80 45 0F 80 F8 FF FF 7F  P..$]....E......
06B0: F8 FF FF 7F 66 64 6F 31  00 80 1C 10 80 02 08 10  ....fdo1........
06C0: 1D 80 00 D7 06 52 15 80  F0 FF FF 7F F0 FF FF 7F  .....R..........
06D0: 73 31 36 30 01 4E 07 02  08 10 11 80 00 F1 06 52  s160.N.........R
06E0: 15 80 F0 FF FF 7F F0 FF  FF 7F 73 31 36 31 01 4E  ..........s161.N
06F0: 07 02 08 10 1E 80 00 0B  07 52 15 80 F0 FF FF 7F  .........R......
0700: F0 FF FF 7F 73 31 36 31  01 4E 07 02 08 10 20 80  ....s161.N.... .
0710: 00 25 07 52 15 80 F0 FF  FF 7F F0 FF FF 7F 73 31  .%.R..........s1
0720: 36 33 01 4E 07 02 08 10  21 80 00 3F 07 52 15 80  63.N....!..?.R..
0730: F0 FF FF 7F F0 FF FF 7F  73 31 36 33 01 4E 07 52  ........s163.N.R
0740: 15 80 F0 FF FF 7F F0 FF  FF 7F 73 30 34 37 5C 00  ..........s047\.
0750: 22 80 5C 01 22 80 5D 13  80 14 80 1C 0F 80 45 0F  ".\.".].......E.
0760: 80 F8 FF FF 7F F8 FF FF  7F 66 64 69 31 00 80 46  .........fdi1..F
0770: 00 21 20 00 00                                    .! ..           
```

#### Opcodes

```
  0: 0x011D [0x20] SET_CLI_EVENT_UC_FLAG: Lock player control
  1: 0x011F [0x42] SET_CLI_EVENT_CANCEL_DATA()
  2: 0x0120 [0x1E] EventEntity looks at LocalPlayer and starts talking
  3: 0x0125 [0x6F] WAIT_FRAME_DELAY: Yield until WaitTime reaches zero
  4: 0x0126 [0x70] WAIT_ENTITY_RENDER_FLAG: Wait while EventEntity->Render.Flags3 bit 2 is set (cancel turn if not)
  5: 0x0127 [0x1D] PRINT_EVENT_MESSAGE(message_id=7930*)
    → "Do you have the $3? Vauderame asked for you...?"
  6: 0x012A [0x23] WAIT_FOR_DIALOG_INTERACTION
  7: 0x012B [0x1D] PRINT_EVENT_MESSAGE(message_id=7931*)
    → "Wait in that room over there. Everyone will be here momentarily."
  8: 0x012E [0x23] WAIT_FOR_DIALOG_INTERACTION
  9: 0x012F [0x5D] SET_MUSIC_VOLUME(volume=0*, fade_time=200*)
 10: 0x0134 [0x45] LOAD_SCHEDULED_TASK: Load scheduler "fdo1" with entities [EventEntity, EventEntity], work=[200*, 0*]
 11: 0x0145 [0x1C] WAIT(100* ticks)
 12: 0x0148 [0x46] CAMERA_CONTROL: Disable user control
 13: 0x014A [0x38] SET_CLIENT_EVENT_MODE(mode=3*)
 14: 0x014D [0x75] LOAD_ROOM(Load indoor room, room=455*)
 15: 0x0151 [0x75] LOAD_ROOM(No action)
 16: 0x0153 [0x5C] MUSIC_CONTROL: Set Idle (Day) music to song 127*
 17: 0x0157 [0x5C] MUSIC_CONTROL: Set Idle (Night) music to song 127*
 18: 0x015B [0x5D] SET_MUSIC_VOLUME(volume=127*, fade_time=1*)
 19: 0x0160 [0x29] REQ_SET_WAIT(priority=0x08, entity_id=Nbu Latteh (ID: 17780801/0x010F5041), tag_num=0x03)
 20: 0x0167 [0x29] REQ_SET_WAIT(priority=0x08, entity_id=Nbu Latteh (ID: 17780801/0x010F5041), tag_num=0x04)
 21: 0x016E [0x29] REQ_SET_WAIT(priority=0x0B, entity_id=LocalPlayer, tag_num=0x2C)
 22: 0x0175 [0x29] REQ_SET_WAIT(priority=0x0B, entity_id=LocalPlayer, tag_num=0x31)
 23: 0x017C [0x4A] Vauderame (ID: 17780799/0x010F503F) looks at LocalPlayer
 24: 0x0185 [0x6F] WAIT_FRAME_DELAY: Yield until WaitTime reaches zero
 25: 0x0186 [0x76] CHECK_ENTITY_RENDER_FLAGS: Wait until Vauderame (ID: 17780799/0x010F503F) Render.Flags0 and Render.Flags3 conditions are met
 26: 0x018B [0x80] LOAD_WAIT(entity=Vauderame (ID: 17780799/0x010F503F))
 27: 0x0190 [0x80] LOAD_WAIT(entity=Yatniel (ID: 17780802/0x010F5042))
 28: 0x0195 [0x80] LOAD_WAIT(entity=Hagain (ID: 17780803/0x010F5043))
 29: 0x019A [0x80] LOAD_WAIT(entity=Nbu Latteh (ID: 17780801/0x010F5041))
 30: 0x019F [0x80] LOAD_WAIT(entity=Esca (ID: 17780800/0x010F5040))
 31: 0x01A4 [0x80] LOAD_WAIT(entity=Nanaa Mihgo (ID: 17780806/0x010F5046))
 32: 0x01A9 [0x80] LOAD_WAIT(entity=Pakulo-Kakulo (ID: 17780805/0x010F5045))
 33: 0x01AE [0x45] LOAD_SCHEDULED_TASK: Load scheduler "s033" with entities [LocalPlayer, LocalPlayer], work=[15*, 0*]
 34: 0x01BF [0x45] LOAD_SCHEDULED_TASK: Load scheduler "fdi1" with entities [EventEntity, EventEntity], work=[200*, 0*]
 35: 0x01D0 [0x1C] WAIT(300* ticks)
 36: 0x01D3 [0x52] END_LOAD_SCHEDULER: End scheduler "s033" with entities [LocalPlayer, LocalPlayer], work=15*
 37: 0x01E2 [0x45] LOAD_SCHEDULED_TASK: Load scheduler "ovl1" with entities [LocalPlayer, LocalPlayer], work=[200*, 0*]
 38: 0x01F3 [0x45] LOAD_SCHEDULED_TASK: Load scheduler "s150" with entities [LocalPlayer, LocalPlayer], work=[15*, 0*]
 39: 0x0204 [0x1C] WAIT(150* ticks)
 40: 0x0207 [0x52] END_LOAD_SCHEDULER: End scheduler "s150" with entities [LocalPlayer, LocalPlayer], work=15*
 41: 0x0216 [0x45] LOAD_SCHEDULED_TASK: Load scheduler "ovl1" with entities [LocalPlayer, LocalPlayer], work=[200*, 0*]
 42: 0x0227 [0x45] LOAD_SCHEDULED_TASK: Load scheduler "s034" with entities [LocalPlayer, LocalPlayer], work=[15*, 0*]
 43: 0x0238 [0x7B] Vauderame (ID: 17780799/0x010F503F) stops talking
 44: 0x023D [0x29] REQ_SET_WAIT(priority=0x0B, entity_id=Vauderame (ID: 17780799/0x010F503F), tag_num=0x18)
 45: 0x0244 [0x52] END_LOAD_SCHEDULER: End scheduler "s034" with entities [LocalPlayer, LocalPlayer], work=15*
 46: 0x0253 [0x45] LOAD_SCHEDULED_TASK: Load scheduler "s036" with entities [LocalPlayer, LocalPlayer], work=[15*, 0*]
 47: 0x0264 [0x27] REQ_SET(priority=0x0B, entity_id=Vauderame (ID: 17780799/0x010F503F), tag_num=0x15)
 48: 0x026B [0x2B] Vauderame (ID: 17780799/0x010F503F) [7933*]:
    → "I don't possess a talent for witty repartee as do most of my fellow Elvaan, so I will get straight to the point."
 49: 0x0272 [0x23] WAIT_FOR_DIALOG_INTERACTION
 50: 0x0273 [0x2A] GET_REQ_LEVEL(level=11, entity_id=Vauderame (ID: 17780799/0x010F503F))
 51: 0x0279 [0x52] END_LOAD_SCHEDULER: End scheduler "s036" with entities [LocalPlayer, LocalPlayer], work=15*
 52: 0x0288 [0x45] LOAD_SCHEDULED_TASK: Load scheduler "ovl1" with entities [LocalPlayer, LocalPlayer], work=[200*, 0*]
 53: 0x0299 [0x45] LOAD_SCHEDULED_TASK: Load scheduler "s035" with entities [LocalPlayer, LocalPlayer], work=[15*, 0*]
 54: 0x02AA [0x29] REQ_SET_WAIT(priority=0x0B, entity_id=Vauderame (ID: 17780799/0x010F503F), tag_num=0x19)
 55: 0x02B1 [0x52] END_LOAD_SCHEDULER: End scheduler "s035" with entities [LocalPlayer, LocalPlayer], work=15*
 56: 0x02C0 [0x45] LOAD_SCHEDULED_TASK: Load scheduler "s037" with entities [LocalPlayer, LocalPlayer], work=[15*, 0*]
 57: 0x02D1 [0x29] REQ_SET_WAIT(priority=0x0B, entity_id=Nbu Latteh (ID: 17780801/0x010F5041), tag_num=0x1B)
 58: 0x02D8 [0x79] Esca (ID: 17780800/0x010F5040) looks at Nbu Latteh (ID: 17780801/0x010F5041) (Basic look)
 59: 0x02E2 [0x29] REQ_SET_WAIT(priority=0x0B, entity_id=Esca (ID: 17780800/0x010F5040), tag_num=0x11)
 60: 0x02E9 [0x52] END_LOAD_SCHEDULER: End scheduler "s037" with entities [LocalPlayer, LocalPlayer], work=15*
 61: 0x02F8 [0x45] LOAD_SCHEDULED_TASK: Load scheduler "s038" with entities [LocalPlayer, LocalPlayer], work=[15*, 0*]
 62: 0x0309 [0x79] Esca (ID: 17780800/0x010F5040) looks at Yatniel (ID: 17780802/0x010F5042) (Basic look)
 63: 0x0313 [0x79] Pakulo-Kakulo (ID: 17780805/0x010F5045) looks at Yatniel (ID: 17780802/0x010F5042) (Basic look)
 64: 0x031D [0x79] LocalPlayer looks at Yatniel (ID: 17780802/0x010F5042) (Basic look)
 65: 0x0327 [0x79] Nbu Latteh (ID: 17780801/0x010F5041) looks at Yatniel (ID: 17780802/0x010F5042) (Basic look)
 66: 0x0331 [0x27] REQ_SET(priority=0x0B, entity_id=Yatniel (ID: 17780802/0x010F5042), tag_num=0x0D)
 67: 0x0338 [0x2B] Yatniel (ID: 17780802/0x010F5042) [7937*]:
    → "A bit before your time, young one? You need to study more."
 68: 0x033F [0x23] WAIT_FOR_DIALOG_INTERACTION
 69: 0x0340 [0x2A] GET_REQ_LEVEL(level=11, entity_id=Yatniel (ID: 17780802/0x010F5042))
 70: 0x0346 [0x79] LocalPlayer looks at Yatniel (ID: 17780802/0x010F5042) (Basic look)
 71: 0x0350 [0x29] REQ_SET_WAIT(priority=0x0B, entity_id=Yatniel (ID: 17780802/0x010F5042), tag_num=0x10)
 72: 0x0357 [0x29] REQ_SET_WAIT(priority=0x0B, entity_id=Dauman (ID: 17780804/0x010F5044), tag_num=0x09)
 73: 0x035E [0x52] END_LOAD_SCHEDULER: End scheduler "s038" with entities [LocalPlayer, LocalPlayer], work=15*
 74: 0x036D [0x45] LOAD_SCHEDULED_TASK: Load scheduler "s039" with entities [LocalPlayer, LocalPlayer], work=[15*, 0*]
 75: 0x037E [0x79] Esca (ID: 17780800/0x010F5040) looks at Vauderame (ID: 17780799/0x010F503F) (Basic look)
 76: 0x0388 [0x79] Pakulo-Kakulo (ID: 17780805/0x010F5045) looks at Vauderame (ID: 17780799/0x010F503F) (Basic look)
 77: 0x0392 [0x79] LocalPlayer looks at Vauderame (ID: 17780799/0x010F503F) (Basic look)
 78: 0x039C [0x79] Nbu Latteh (ID: 17780801/0x010F5041) looks at Vauderame (ID: 17780799/0x010F503F) (Basic look)
 79: 0x03A6 [0x4A] Yatniel (ID: 17780802/0x010F5042) looks at Vauderame (ID: 17780799/0x010F503F)
 80: 0x03AF [0x29] REQ_SET_WAIT(priority=0x0B, entity_id=Vauderame (ID: 17780799/0x010F503F), tag_num=0x1A)
 81: 0x03B6 [0x52] END_LOAD_SCHEDULER: End scheduler "s039" with entities [LocalPlayer, LocalPlayer], work=15*
 82: 0x03C5 [0x45] LOAD_SCHEDULED_TASK: Load scheduler "s040" with entities [LocalPlayer, LocalPlayer], work=[15*, 0*]
 83: 0x03D6 [0x29] REQ_SET_WAIT(priority=0x0B, entity_id=Vauderame (ID: 17780799/0x010F503F), tag_num=0x1B)
 84: 0x03DD [0x29] REQ_SET_WAIT(priority=0x0B, entity_id=Vauderame (ID: 17780799/0x010F503F), tag_num=0x1C)
 85: 0x03E4 [0x52] END_LOAD_SCHEDULER: End scheduler "s040" with entities [LocalPlayer, LocalPlayer], work=15*
 86: 0x03F3 [0x45] LOAD_SCHEDULED_TASK: Load scheduler "ovl1" with entities [LocalPlayer, LocalPlayer], work=[200*, 0*]
 87: 0x0404 [0x45] LOAD_SCHEDULED_TASK: Load scheduler "s041" with entities [LocalPlayer, LocalPlayer], work=[15*, 0*]
 88: 0x0415 [0x29] REQ_SET_WAIT(priority=0x0B, entity_id=Vauderame (ID: 17780799/0x010F503F), tag_num=0x1D)
 89: 0x041C [0x6F] WAIT_FRAME_DELAY: Yield until WaitTime reaches zero
 90: 0x041D [0x76] CHECK_ENTITY_RENDER_FLAGS: Wait until Yatniel (ID: 17780802/0x010F5042) Render.Flags0 and Render.Flags3 conditions are met
 91: 0x0422 [0x52] END_LOAD_SCHEDULER: End scheduler "s041" with entities [LocalPlayer, LocalPlayer], work=15*
 92: 0x0431 [0x45] LOAD_SCHEDULED_TASK: Load scheduler "s042" with entities [LocalPlayer, LocalPlayer], work=[15*, 0*]
 93: 0x0442 [0x79] Vauderame (ID: 17780799/0x010F503F) looks at Yatniel (ID: 17780802/0x010F5042) (Basic look)
 94: 0x044C [0x29] REQ_SET_WAIT(priority=0x0B, entity_id=Yatniel (ID: 17780802/0x010F5042), tag_num=0x11)
 95: 0x0453 [0x29] REQ_SET_WAIT(priority=0x0B, entity_id=Vauderame (ID: 17780799/0x010F503F), tag_num=0x1E)
 96: 0x045A [0x52] END_LOAD_SCHEDULER: End scheduler "s042" with entities [LocalPlayer, LocalPlayer], work=15*
 97: 0x0469 [0x45] LOAD_SCHEDULED_TASK: Load scheduler "ovl1" with entities [LocalPlayer, LocalPlayer], work=[200*, 0*]
 98: 0x047A [0x45] LOAD_SCHEDULED_TASK: Load scheduler "s043" with entities [LocalPlayer, LocalPlayer], work=[15*, 0*]
 99: 0x048B [0x2B] Vauderame (ID: 17780799/0x010F503F) [7946*]:
    → "Nevertheless, it would not be wise to leave them to their own devices. It's possible that some amongst them might seek to regain the glory of the past."
100: 0x0492 [0x23] WAIT_FOR_DIALOG_INTERACTION
101: 0x0493 [0x2B] Vauderame (ID: 17780799/0x010F503F) [7947*]:
    → "The Tenshodo simply wishes to measure their intentions. If those members plan on beginning any activities, we ask that they inform us about it."
102: 0x049A [0x23] WAIT_FOR_DIALOG_INTERACTION
103: 0x049B [0x52] END_LOAD_SCHEDULER: End scheduler "s043" with entities [LocalPlayer, LocalPlayer], work=15*
104: 0x04AA [0x45] LOAD_SCHEDULED_TASK: Load scheduler "s044" with entities [LocalPlayer, LocalPlayer], work=[15*, 0*]
105: 0x04BB [0x29] REQ_SET_WAIT(priority=0x0B, entity_id=Vauderame (ID: 17780799/0x010F503F), tag_num=0x1F)
106: 0x04C2 [0x52] END_LOAD_SCHEDULER: End scheduler "s044" with entities [LocalPlayer, LocalPlayer], work=15*
107: 0x04D1 [0x45] LOAD_SCHEDULED_TASK: Load scheduler "ovl1" with entities [LocalPlayer, LocalPlayer], work=[200*, 0*]
108: 0x04E2 [0x45] LOAD_SCHEDULED_TASK: Load scheduler "s035" with entities [LocalPlayer, LocalPlayer], work=[15*, 0*]
109: 0x04F3 [0x29] REQ_SET_WAIT(priority=0x0B, entity_id=Vauderame (ID: 17780799/0x010F503F), tag_num=0x20)
110: 0x04FA [0x29] REQ_SET_WAIT(priority=0x0B, entity_id=Vauderame (ID: 17780799/0x010F503F), tag_num=0x21)
111: 0x0501 [0x52] END_LOAD_SCHEDULER: End scheduler "s035" with entities [LocalPlayer, LocalPlayer], work=15*
112: 0x0510 [0x45] LOAD_SCHEDULED_TASK: Load scheduler "s045" with entities [LocalPlayer, LocalPlayer], work=[15*, 0*]
113: 0x0521 [0x27] REQ_SET(priority=0x0B, entity_id=Vauderame (ID: 17780799/0x010F503F), tag_num=0x16)
114: 0x0528 [0x2B] Vauderame (ID: 17780799/0x010F503F) [7952*]:
    → "Lastly, it is against thieving etiquette to sneak a look at the members assigned to people other than yourself. As I'm sure you are aware, too much knowledge is a dangerous thing in this business..."
115: 0x052F [0x23] WAIT_FOR_DIALOG_INTERACTION
116: 0x0530 [0x2A] GET_REQ_LEVEL(level=11, entity_id=Vauderame (ID: 17780799/0x010F503F))
117: 0x0536 [0x52] END_LOAD_SCHEDULER: End scheduler "s045" with entities [LocalPlayer, LocalPlayer], work=15*
118: 0x0545 [0x02] IF !(Work_Zone[8] == 8*) GOTO 0x0561
119: 0x054D [0x45] LOAD_SCHEDULED_TASK: Load scheduler "s159" with entities [LocalPlayer, LocalPlayer], work=[15*, 0*]
120: 0x055E [0x01] GOTO 0x05AA
121: 0x0561 [0x02] IF !(Work_Zone[8] == 3*) GOTO 0x057D
122: 0x0569 [0x45] LOAD_SCHEDULED_TASK: Load scheduler "s159" with entities [LocalPlayer, LocalPlayer], work=[15*, 0*]
123: 0x057A [0x01] GOTO 0x05AA
124: 0x057D [0x02] IF !(Work_Zone[8] == 4*) GOTO 0x0599
125: 0x0585 [0x45] LOAD_SCHEDULED_TASK: Load scheduler "s159" with entities [LocalPlayer, LocalPlayer], work=[15*, 0*]
126: 0x0596 [0x01] GOTO 0x05AA
127: 0x0599 [0x45] LOAD_SCHEDULED_TASK: Load scheduler "s046" with entities [LocalPlayer, LocalPlayer], work=[15*, 0*]

SUBROUTINE_05AA:
128: 0x05AA [0x4A] Vauderame (ID: 17780799/0x010F503F) looks at LocalPlayer
129: 0x05B3 [0x29] REQ_SET_WAIT(priority=0x0B, entity_id=Vauderame (ID: 17780799/0x010F503F), tag_num=0x23)
130: 0x05BA [0x6F] WAIT_FRAME_DELAY: Yield until WaitTime reaches zero
131: 0x05BB [0x76] CHECK_ENTITY_RENDER_FLAGS: Wait until Vauderame (ID: 17780799/0x010F503F) Render.Flags0 and Render.Flags3 conditions are met
132: 0x05C0 [0x45] LOAD_SCHEDULED_TASK: Load scheduler "fdo1" with entities [EventEntity, EventEntity], work=[200*, 0*]
133: 0x05D1 [0x1C] WAIT(60* ticks)
134: 0x05D4 [0x29] REQ_SET_WAIT(priority=0x0B, entity_id=LocalPlayer, tag_num=0x2D)
135: 0x05DB [0x29] REQ_SET_WAIT(priority=0x0B, entity_id=Vauderame (ID: 17780799/0x010F503F), tag_num=0x14)
136: 0x05E2 [0x79] Vauderame (ID: 17780799/0x010F503F) looks at LocalPlayer (Basic look)
137: 0x05EC [0x1C] WAIT(60* ticks)
138: 0x05EF [0x02] IF !(Work_Zone[8] == 8*) GOTO 0x060B
139: 0x05F7 [0x45] LOAD_SCHEDULED_TASK: Load scheduler "s160" with entities [LocalPlayer, LocalPlayer], work=[15*, 0*]
140: 0x0608 [0x01] GOTO 0x068C
141: 0x060B [0x02] IF !(Work_Zone[8] == 3*) GOTO 0x0627
142: 0x0613 [0x45] LOAD_SCHEDULED_TASK: Load scheduler "s161" with entities [LocalPlayer, LocalPlayer], work=[15*, 0*]
143: 0x0624 [0x01] GOTO 0x068C
144: 0x0627 [0x02] IF !(Work_Zone[8] == 4*) GOTO 0x0643
145: 0x062F [0x45] LOAD_SCHEDULED_TASK: Load scheduler "s161" with entities [LocalPlayer, LocalPlayer], work=[15*, 0*]
146: 0x0640 [0x01] GOTO 0x068C
147: 0x0643 [0x02] IF !(Work_Zone[8] == 5*) GOTO 0x065F
148: 0x064B [0x45] LOAD_SCHEDULED_TASK: Load scheduler "s163" with entities [LocalPlayer, LocalPlayer], work=[15*, 0*]
149: 0x065C [0x01] GOTO 0x068C
150: 0x065F [0x02] IF !(Work_Zone[8] == 6*) GOTO 0x067B
151: 0x0667 [0x45] LOAD_SCHEDULED_TASK: Load scheduler "s163" with entities [LocalPlayer, LocalPlayer], work=[15*, 0*]
152: 0x0678 [0x01] GOTO 0x068C
153: 0x067B [0x45] LOAD_SCHEDULED_TASK: Load scheduler "s047" with entities [LocalPlayer, LocalPlayer], work=[15*, 0*]

SUBROUTINE_068C:
154: 0x068C [0x45] LOAD_SCHEDULED_TASK: Load scheduler "fdi1" with entities [EventEntity, EventEntity], work=[200*, 0*]
155: 0x069D [0x29] REQ_SET_WAIT(priority=0x0B, entity_id=Vauderame (ID: 17780799/0x010F503F), tag_num=0x24)
156: 0x06A4 [0x5D] SET_MUSIC_VOLUME(volume=0*, fade_time=200*)
157: 0x06A9 [0x45] LOAD_SCHEDULED_TASK: Load scheduler "fdo1" with entities [EventEntity, EventEntity], work=[200*, 0*]
158: 0x06BA [0x1C] WAIT(100* ticks)
159: 0x06BD [0x02] IF !(Work_Zone[8] == 8*) GOTO 0x06D7
160: 0x06C5 [0x52] END_LOAD_SCHEDULER: End scheduler "s160" with entities [LocalPlayer, LocalPlayer], work=15*
161: 0x06D4 [0x01] GOTO 0x074E
162: 0x06D7 [0x02] IF !(Work_Zone[8] == 3*) GOTO 0x06F1
163: 0x06DF [0x52] END_LOAD_SCHEDULER: End scheduler "s161" with entities [LocalPlayer, LocalPlayer], work=15*
164: 0x06EE [0x01] GOTO 0x074E
165: 0x06F1 [0x02] IF !(Work_Zone[8] == 4*) GOTO 0x070B
166: 0x06F9 [0x52] END_LOAD_SCHEDULER: End scheduler "s161" with entities [LocalPlayer, LocalPlayer], work=15*
167: 0x0708 [0x01] GOTO 0x074E
168: 0x070B [0x02] IF !(Work_Zone[8] == 5*) GOTO 0x0725
169: 0x0713 [0x52] END_LOAD_SCHEDULER: End scheduler "s163" with entities [LocalPlayer, LocalPlayer], work=15*
170: 0x0722 [0x01] GOTO 0x074E
171: 0x0725 [0x02] IF !(Work_Zone[8] == 6*) GOTO 0x073F
172: 0x072D [0x52] END_LOAD_SCHEDULER: End scheduler "s163" with entities [LocalPlayer, LocalPlayer], work=15*
173: 0x073C [0x01] GOTO 0x074E
174: 0x073F [0x52] END_LOAD_SCHEDULER: End scheduler "s047" with entities [LocalPlayer, LocalPlayer], work=15*

SUBROUTINE_074E:
175: 0x074E [0x5C] MUSIC_CONTROL: Set Idle (Day) music to song 110*
176: 0x0752 [0x5C] MUSIC_CONTROL: Set Idle (Night) music to song 110*
177: 0x0756 [0x5D] SET_MUSIC_VOLUME(volume=127*, fade_time=1*)
178: 0x075B [0x1C] WAIT(200* ticks)
179: 0x075E [0x45] LOAD_SCHEDULED_TASK: Load scheduler "fdi1" with entities [EventEntity, EventEntity], work=[200*, 0*]
180: 0x076F [0x46] CAMERA_CONTROL: Restore default settings
181: 0x0771 [0x21] END_EVENT
```

#### Data or dead code:

```
# Dead code (unreachable instructions):
     0x0772 [0x20] SET_CLI_EVENT_UC_FLAG: Unlock player control
     0x0774 [0x00] END_REQSTACK()
```

### Event 10022

#### Metadata

| Field        | Value     |
|--------------|-----------|
| Entrypoint   | 0x0775    |
| Data Size    | 676 bytes |
| Instructions | 92        |

```
      00 01 02 03 04 05 06 07  08 09 0A 0B 0C 0D 0E 0F
      -- -- -- -- -- -- -- --  -- -- -- -- -- -- -- --
0770:                42 1E F0  FF FF 7F 6F 70 1D 23 80       B.....op.#.
0780: 23 1D 24 80 23 5D 00 80  0F 80 45 0F 80 F8 FF FF  #.$.#]....E.....
0790: 7F F8 FF FF 7F 66 64 6F  31 00 80 1C 10 80 46 01  .....fdo1.....F.
07A0: 38 11 80 75 00 12 80 75  01 5C 00 13 80 5C 01 13  8..u...u.\...\..
07B0: 80 5D 13 80 14 80 29 0B  F0 FF FF 7F 2C 29 0B 46  .]....).....,).F
07C0: 50 0F 01 1C 80 3F 50 0F  01 27 0B F0 FF FF 7F 2E  P....?P..'......
07D0: 45 15 80 F0 FF FF 7F F0  FF FF 7F 73 30 33 34 00  E..........s034.
07E0: 80 45 0F 80 F8 FF FF 7F  F8 FF FF 7F 66 64 69 31  .E..........fdi1
07F0: 00 80 79 00 3F 50 0F 01  F0 FF FF 7F 1C 1F 80 4A  ..y.?P.........J
0800: 3F 50 0F 01 F0 FF FF 7F  55 15 80 F0 FF FF 7F F0  ?P......U.......
0810: FF FF 7F 73 30 33 34 45  15 80 F0 FF FF 7F F0 FF  ...s034E........
0820: FF 7F 73 30 35 31 00 80  6F 76 3F 50 0F 01 2A 0B  ..s051..ov?P..*.
0830: F0 FF FF 7F 4A F0 FF FF  7F 3F 50 0F 01 6F 76 F0  ....J....?P..ov.
0840: FF FF 7F 29 0B 3F 50 0F  01 26 27 0B 5F 50 0F 01  ...).?P..&'._P..
0850: 02 45 15 80 F0 FF FF 7F  F0 FF FF 7F 73 30 34 39  .E..........s049
0860: 00 80 79 00 3F 50 0F 01  46 50 0F 01 4A F0 FF FF  ..y.?P..FP..J...
0870: 7F 46 50 0F 01 29 0B 46  50 0F 01 1D 2B 46 50 0F  .FP..).FP...+FP.
0880: 01 25 80 23 45 15 80 F0  FF FF 7F F0 FF FF 7F 73  .%.#E..........s
0890: 30 35 30 00 80 27 0B 46  50 0F 01 1F 4A F0 FF FF  050..'.FP...J...
08A0: 7F 3F 50 0F 01 29 0B 3F  50 0F 01 27 45 15 80 F0  .?P..).?P..'E...
08B0: FF FF 7F F0 FF FF 7F 73  30 35 31 00 80 79 00 3F  .......s051..y.?
08C0: 50 0F 01 F0 FF FF 7F 79  00 46 50 0F 01 F0 FF FF  P......y.FP.....
08D0: 7F 2B 3F 50 0F 01 26 80  23 2A 0B 46 50 0F 01 52  .+?P..&.#*.FP..R
08E0: 15 80 F0 FF FF 7F F0 FF  FF 7F 73 30 35 31 45 15  ..........s051E.
08F0: 80 F0 FF FF 7F F0 FF FF  7F 73 30 35 32 00 80 27  .........s052..'
0900: 0B F0 FF FF 7F 2F 1C 1F  80 7B 46 50 0F 01 27 0B  ...../...{FP..'.
0910: 46 50 0F 01 20 45 0F 80  F8 FF FF 7F F8 FF FF 7F  FP.. E..........
0920: 66 64 6F 31 00 80 1C 16  80 52 15 80 F0 FF FF 7F  fdo1.....R......
0930: F0 FF FF 7F 73 30 35 32  2A 0B F0 FF FF 7F 2A 0B  ....s052*.....*.
0940: 46 50 0F 01 4E 00 42 50  0F 01 4E 00 43 50 0F 01  FP..N.BP..N.CP..
0950: 4E 00 41 50 0F 01 4E 00  40 50 0F 01 4E 00 45 50  N.AP..N.@P..N.EP
0960: 0F 01 80 42 50 0F 01 80  43 50 0F 01 80 41 50 0F  ...BP...CP...AP.
0970: 01 80 40 50 0F 01 80 45  50 0F 01 29 0B 46 50 0F  ..@P...EP..).FP.
0980: 01 1E 29 0B F0 FF FF 7F  2C 45 15 80 F0 FF FF 7F  ..).....,E......
0990: F0 FF FF 7F 73 30 33 36  00 80 45 0F 80 F8 FF FF  ....s036..E.....
09A0: 7F F8 FF FF 7F 66 64 69  31 00 80 29 0B 3F 50 0F  .....fdi1..).?P.
09B0: 01 28 29 0B 3F 50 0F 01  29 5D 00 80 0F 80 45 0F  .().?P..)]....E.
09C0: 80 F8 FF FF 7F F8 FF FF  7F 66 64 6F 31 00 80 1C  .........fdo1...
09D0: 10 80 5C 00 22 80 5C 01  22 80 5D 13 80 14 80 52  ..\.".\.".]....R
09E0: 15 80 F0 FF FF 7F F0 FF  FF 7F 73 30 33 36 1C 0F  ..........s036..
09F0: 80 45 0F 80 F8 FF FF 7F  F8 FF FF 7F 66 64 69 31  .E..........fdi1
0A00: 00 80 46 00 45 27 80 F0  FF FF 7F F0 FF FF 7F 71  ..F.E'.........q
0A10: 73 74 63 00 80 21 20 00  00                       stc..! ..       
```

#### Opcodes

```
  0: 0x0775 [0x42] SET_CLI_EVENT_CANCEL_DATA()
  1: 0x0776 [0x1E] EventEntity looks at LocalPlayer and starts talking
  2: 0x077B [0x6F] WAIT_FRAME_DELAY: Yield until WaitTime reaches zero
  3: 0x077C [0x70] WAIT_ENTITY_RENDER_FLAG: Wait while EventEntity->Render.Flags3 bit 2 is set (cancel turn if not)
  4: 0x077D [0x1D] PRINT_EVENT_MESSAGE(message_id=7956*)
    → "You have completed your assignment?"
  5: 0x0780 [0x23] WAIT_FOR_DIALOG_INTERACTION
  6: 0x0781 [0x1D] PRINT_EVENT_MESSAGE(message_id=7957*)
    → "Vauderame is waiting for you in the same room as before. Go and present your report."
  7: 0x0784 [0x23] WAIT_FOR_DIALOG_INTERACTION
  8: 0x0785 [0x5D] SET_MUSIC_VOLUME(volume=0*, fade_time=200*)
  9: 0x078A [0x45] LOAD_SCHEDULED_TASK: Load scheduler "fdo1" with entities [EventEntity, EventEntity], work=[200*, 0*]
 10: 0x079B [0x1C] WAIT(100* ticks)
 11: 0x079E [0x46] CAMERA_CONTROL: Disable user control
 12: 0x07A0 [0x38] SET_CLIENT_EVENT_MODE(mode=3*)
 13: 0x07A3 [0x75] LOAD_ROOM(Load indoor room, room=455*)
 14: 0x07A7 [0x75] LOAD_ROOM(No action)
 15: 0x07A9 [0x5C] MUSIC_CONTROL: Set Idle (Day) music to song 127*
 16: 0x07AD [0x5C] MUSIC_CONTROL: Set Idle (Night) music to song 127*
 17: 0x07B1 [0x5D] SET_MUSIC_VOLUME(volume=127*, fade_time=1*)
 18: 0x07B6 [0x29] REQ_SET_WAIT(priority=0x0B, entity_id=LocalPlayer, tag_num=0x2C)
 19: 0x07BD [0x29] REQ_SET_WAIT(priority=0x0B, entity_id=Nanaa Mihgo (ID: 17780806/0x010F5046), tag_num=0x1C)
 20: 0x07C4 [0x80] LOAD_WAIT(entity=Vauderame (ID: 17780799/0x010F503F))
 21: 0x07C9 [0x27] REQ_SET(priority=0x0B, entity_id=LocalPlayer, tag_num=0x2E)
 22: 0x07D0 [0x45] LOAD_SCHEDULED_TASK: Load scheduler "s034" with entities [LocalPlayer, LocalPlayer], work=[15*, 0*]
 23: 0x07E1 [0x45] LOAD_SCHEDULED_TASK: Load scheduler "fdi1" with entities [EventEntity, EventEntity], work=[200*, 0*]
 24: 0x07F2 [0x79] Vauderame (ID: 17780799/0x010F503F) looks at LocalPlayer (Basic look)
 25: 0x07FC [0x1C] WAIT(60* ticks)
 26: 0x07FF [0x4A] Vauderame (ID: 17780799/0x010F503F) looks at LocalPlayer
 27: 0x0808 [0x55] WAIT_LOAD_SCHEDULER: Wait for scheduler "s034" with entities [LocalPlayer, LocalPlayer], work=15*
 28: 0x0817 [0x45] LOAD_SCHEDULED_TASK: Load scheduler "s051" with entities [LocalPlayer, LocalPlayer], work=[15*, 0*]
 29: 0x0828 [0x6F] WAIT_FRAME_DELAY: Yield until WaitTime reaches zero
 30: 0x0829 [0x76] CHECK_ENTITY_RENDER_FLAGS: Wait until Vauderame (ID: 17780799/0x010F503F) Render.Flags0 and Render.Flags3 conditions are met
 31: 0x082E [0x2A] GET_REQ_LEVEL(level=11, entity_id=LocalPlayer)
 32: 0x0834 [0x4A] LocalPlayer looks at Vauderame (ID: 17780799/0x010F503F)
 33: 0x083D [0x6F] WAIT_FRAME_DELAY: Yield until WaitTime reaches zero
 34: 0x083E [0x76] CHECK_ENTITY_RENDER_FLAGS: Wait until LocalPlayer Render.Flags0 and Render.Flags3 conditions are met
 35: 0x0843 [0x29] REQ_SET_WAIT(priority=0x0B, entity_id=Vauderame (ID: 17780799/0x010F503F), tag_num=0x26)
 36: 0x084A [0x27] REQ_SET(priority=0x0B, entity_id=Door:"Neptune's Spire" (ID: 17780831/0x010F505F), tag_num=0x02)
 37: 0x0851 [0x45] LOAD_SCHEDULED_TASK: Load scheduler "s049" with entities [LocalPlayer, LocalPlayer], work=[15*, 0*]
 38: 0x0862 [0x79] Vauderame (ID: 17780799/0x010F503F) looks at Nanaa Mihgo (ID: 17780806/0x010F5046) (Basic look)
 39: 0x086C [0x4A] LocalPlayer looks at Nanaa Mihgo (ID: 17780806/0x010F5046)
 40: 0x0875 [0x29] REQ_SET_WAIT(priority=0x0B, entity_id=Nanaa Mihgo (ID: 17780806/0x010F5046), tag_num=0x1D)
 41: 0x087C [0x2B] Nanaa Mihgo (ID: 17780806/0x010F5046) [7959*]:
    → "I'm ba-ack!"
 42: 0x0883 [0x23] WAIT_FOR_DIALOG_INTERACTION
 43: 0x0884 [0x45] LOAD_SCHEDULED_TASK: Load scheduler "s050" with entities [LocalPlayer, LocalPlayer], work=[15*, 0*]
 44: 0x0895 [0x27] REQ_SET(priority=0x0B, entity_id=Nanaa Mihgo (ID: 17780806/0x010F5046), tag_num=0x1F)
 45: 0x089C [0x4A] LocalPlayer looks at Vauderame (ID: 17780799/0x010F503F)
 46: 0x08A5 [0x29] REQ_SET_WAIT(priority=0x0B, entity_id=Vauderame (ID: 17780799/0x010F503F), tag_num=0x27)
 47: 0x08AC [0x45] LOAD_SCHEDULED_TASK: Load scheduler "s051" with entities [LocalPlayer, LocalPlayer], work=[15*, 0*]
 48: 0x08BD [0x79] Vauderame (ID: 17780799/0x010F503F) looks at LocalPlayer (Basic look)
 49: 0x08C7 [0x79] Nanaa Mihgo (ID: 17780806/0x010F5046) looks at LocalPlayer (Basic look)
 50: 0x08D1 [0x2B] Vauderame (ID: 17780799/0x010F503F) [7961*]:
    → "Now, <Player>. Gather everyone together. It's time to begin."
 51: 0x08D8 [0x23] WAIT_FOR_DIALOG_INTERACTION
 52: 0x08D9 [0x2A] GET_REQ_LEVEL(level=11, entity_id=Nanaa Mihgo (ID: 17780806/0x010F5046))
 53: 0x08DF [0x52] END_LOAD_SCHEDULER: End scheduler "s051" with entities [LocalPlayer, LocalPlayer], work=15*
 54: 0x08EE [0x45] LOAD_SCHEDULED_TASK: Load scheduler "s052" with entities [LocalPlayer, LocalPlayer], work=[15*, 0*]
 55: 0x08FF [0x27] REQ_SET(priority=0x0B, entity_id=LocalPlayer, tag_num=0x2F)
 56: 0x0906 [0x1C] WAIT(60* ticks)
 57: 0x0909 [0x7B] Nanaa Mihgo (ID: 17780806/0x010F5046) stops talking
 58: 0x090E [0x27] REQ_SET(priority=0x0B, entity_id=Nanaa Mihgo (ID: 17780806/0x010F5046), tag_num=0x20)
 59: 0x0915 [0x45] LOAD_SCHEDULED_TASK: Load scheduler "fdo1" with entities [EventEntity, EventEntity], work=[200*, 0*]
 60: 0x0926 [0x1C] WAIT(300* ticks)
 61: 0x0929 [0x52] END_LOAD_SCHEDULER: End scheduler "s052" with entities [LocalPlayer, LocalPlayer], work=15*
 62: 0x0938 [0x2A] GET_REQ_LEVEL(level=11, entity_id=LocalPlayer)
 63: 0x093E [0x2A] GET_REQ_LEVEL(level=11, entity_id=Nanaa Mihgo (ID: 17780806/0x010F5046))
 64: 0x0944 [0x4E] SET_ENTITY_HIDE_FLAG: Show Yatniel (ID: 17780802/0x010F5042)
 65: 0x094A [0x4E] SET_ENTITY_HIDE_FLAG: Show Hagain (ID: 17780803/0x010F5043)
 66: 0x0950 [0x4E] SET_ENTITY_HIDE_FLAG: Show Nbu Latteh (ID: 17780801/0x010F5041)
 67: 0x0956 [0x4E] SET_ENTITY_HIDE_FLAG: Show Esca (ID: 17780800/0x010F5040)
 68: 0x095C [0x4E] SET_ENTITY_HIDE_FLAG: Show Pakulo-Kakulo (ID: 17780805/0x010F5045)
 69: 0x0962 [0x80] LOAD_WAIT(entity=Yatniel (ID: 17780802/0x010F5042))
 70: 0x0967 [0x80] LOAD_WAIT(entity=Hagain (ID: 17780803/0x010F5043))
 71: 0x096C [0x80] LOAD_WAIT(entity=Nbu Latteh (ID: 17780801/0x010F5041))
 72: 0x0971 [0x80] LOAD_WAIT(entity=Esca (ID: 17780800/0x010F5040))
 73: 0x0976 [0x80] LOAD_WAIT(entity=Pakulo-Kakulo (ID: 17780805/0x010F5045))
 74: 0x097B [0x29] REQ_SET_WAIT(priority=0x0B, entity_id=Nanaa Mihgo (ID: 17780806/0x010F5046), tag_num=0x1E)
 75: 0x0982 [0x29] REQ_SET_WAIT(priority=0x0B, entity_id=LocalPlayer, tag_num=0x2C)
 76: 0x0989 [0x45] LOAD_SCHEDULED_TASK: Load scheduler "s036" with entities [LocalPlayer, LocalPlayer], work=[15*, 0*]
 77: 0x099A [0x45] LOAD_SCHEDULED_TASK: Load scheduler "fdi1" with entities [EventEntity, EventEntity], work=[200*, 0*]
 78: 0x09AB [0x29] REQ_SET_WAIT(priority=0x0B, entity_id=Vauderame (ID: 17780799/0x010F503F), tag_num=0x28)
 79: 0x09B2 [0x29] REQ_SET_WAIT(priority=0x0B, entity_id=Vauderame (ID: 17780799/0x010F503F), tag_num=0x29)
 80: 0x09B9 [0x5D] SET_MUSIC_VOLUME(volume=0*, fade_time=200*)
 81: 0x09BE [0x45] LOAD_SCHEDULED_TASK: Load scheduler "fdo1" with entities [EventEntity, EventEntity], work=[200*, 0*]
 82: 0x09CF [0x1C] WAIT(100* ticks)
 83: 0x09D2 [0x5C] MUSIC_CONTROL: Set Idle (Day) music to song 110*
 84: 0x09D6 [0x5C] MUSIC_CONTROL: Set Idle (Night) music to song 110*
 85: 0x09DA [0x5D] SET_MUSIC_VOLUME(volume=127*, fade_time=1*)
 86: 0x09DF [0x52] END_LOAD_SCHEDULER: End scheduler "s036" with entities [LocalPlayer, LocalPlayer], work=15*
 87: 0x09EE [0x1C] WAIT(200* ticks)
 88: 0x09F1 [0x45] LOAD_SCHEDULED_TASK: Load scheduler "fdi1" with entities [EventEntity, EventEntity], work=[200*, 0*]
 89: 0x0A02 [0x46] CAMERA_CONTROL: Restore default settings
 90: 0x0A04 [0x45] LOAD_SCHEDULED_TASK: Load scheduler "qstc" with entities [LocalPlayer, LocalPlayer], work=[201*, 0*]
 91: 0x0A15 [0x21] END_EVENT
```

#### Data or dead code:

```
# Dead code (unreachable instructions):
     0x0A16 [0x20] SET_CLI_EVENT_UC_FLAG: Unlock player control
     0x0A18 [0x00] END_REQSTACK()
```

### Event 10125

#### Metadata

| Field        | Value   |
|--------------|---------|
| Entrypoint   | 0x0A19  |
| Data Size    | 1 bytes |
| Instructions | 1       |

```
      00 01 02 03 04 05 06 07  08 09 0A 0B 0C 0D 0E 0F
      -- -- -- -- -- -- -- --  -- -- -- -- -- -- -- --
0A10:                             00                             .      
```

#### Opcodes

```
  0: 0x0A19 [0x00] END_REQSTACK()
```

### Event 65535.2

#### Metadata

| Field        | Value    |
|--------------|----------|
| Entrypoint   | 0x0A1A   |
| Data Size    | 14 bytes |
| Instructions | 4        |

```
      00 01 02 03 04 05 06 07  08 09 0A 0B 0C 0D 0E 0F
      -- -- -- -- -- -- -- --  -- -- -- -- -- -- -- --
0A10:                                32 0A 80 1F 00 28            2....(
0A20: 80 29 80 2A 80 1F 01 00                           .).*....        
```

#### Opcodes

```
  0: 0x0A1A [0x32] ExtData[1]->MainSpeed = 13* * 0.1
  1: 0x0A1D [0x1F] MOVE_ENTITY: EventEntity moves to X=35.866*, Z=-33.955*, Y=3.899*
  2: 0x0A25 [0x1F] MOVE_ENTITY: Update entity position (mode=1)
  3: 0x0A27 [0x00] END_REQSTACK()
```

### Event 65535.3

#### Metadata

| Field        | Value    |
|--------------|----------|
| Entrypoint   | 0x0A28   |
| Data Size    | 18 bytes |
| Instructions | 6        |

```
      00 01 02 03 04 05 06 07  08 09 0A 0B 0C 0D 0E 0F
      -- -- -- -- -- -- -- --  -- -- -- -- -- -- -- --
0A20:                          32 0A 80 1F 00 2B 80 2C          2....+.,
0A30: 80 2D 80 1F 01 6F 39 2E  80 00                    .-...o9...      
```

#### Opcodes

```
  0: 0x0A28 [0x32] ExtData[1]->MainSpeed = 13* * 0.1
  1: 0x0A2B [0x1F] MOVE_ENTITY: EventEntity moves to X=33.300*, Z=-45.500*, Y=3.900*
  2: 0x0A33 [0x1F] MOVE_ENTITY: Update entity position (mode=1)
  3: 0x0A35 [0x6F] WAIT_FRAME_DELAY: Yield until WaitTime reaches zero
  4: 0x0A36 [0x39] SET_ENTITY_DIRECTION(direction=7.0°*)
  5: 0x0A39 [0x00] END_REQSTACK()
```

### Event 65535.4

#### Metadata

| Field        | Value    |
|--------------|----------|
| Entrypoint   | 0x0A3A   |
| Data Size    | 19 bytes |
| Instructions | 3        |

```
      00 01 02 03 04 05 06 07  08 09 0A 0B 0C 0D 0E 0F
      -- -- -- -- -- -- -- --  -- -- -- -- -- -- -- --
0A30:                                66 00 80 F8 FF FF            f.....
0A40: 7F F8 FF FF 7F 74 6C 6B  30 1C 00 17 00           .....tlk0....   
```

#### Opcodes

```
  0: 0x0A3A [0x66] LOAD_EXT_SCHEDULER_MAIN: Load scheduler "tlk0" with entities [EventEntity, EventEntity], work=0*
  1: 0x0A49 [0x1C] WAIT(Work_Zone_1700[0] ticks)
  2: 0x0A4C [0x00] END_REQSTACK()
```

### Event 65535.5

#### Metadata

| Field        | Value   |
|--------------|---------|
| Entrypoint   | 0x0A4D  |
| Data Size    | 4 bytes |
| Instructions | 2       |

```
      00 01 02 03 04 05 06 07  08 09 0A 0B 0C 0D 0E 0F
      -- -- -- -- -- -- -- --  -- -- -- -- -- -- -- --
0A40:                                         1C 00 17               ...
0A50: 00                                                .               
```

#### Opcodes

```
  0: 0x0A4D [0x1C] WAIT(Work_Zone_1700[0] ticks)
  1: 0x0A50 [0x00] END_REQSTACK()
```
