# 17780936 - NPC04

## Common Data

| Field            | Value                 |
|------------------|-----------------------|
| Zone             | Lower Jeuno (ID: 245) |
| Block Size       | 428 bytes             |
| Total Events     | 14                    |
| References Count | 26                    |

## List of Events

| Event ID                   | Entrypoint   |   Size |   Instructions |
|----------------------------|--------------|--------|----------------|
| [65535](#event-65535)      | 0x0000       |      1 |              1 |
| [10094](#event-10094)      | 0x0001       |      4 |              2 |
| [65535.1](#event-655351)   | 0x0005       |     45 |              4 |
| [65535.2](#event-655352)   | 0x0032       |     15 |              5 |
| [65535.3](#event-655353)   | 0x0041       |     16 |              2 |
| [65535.4](#event-655354)   | 0x0051       |     16 |              2 |
| [65535.5](#event-655355)   | 0x0061       |     45 |              4 |
| [65535.6](#event-655356)   | 0x008E       |     15 |              5 |
| [65535.7](#event-655357)   | 0x009D       |     16 |              2 |
| [65535.8](#event-655358)   | 0x00AD       |     16 |              2 |
| [65535.9](#event-655359)   | 0x00BD       |     16 |              2 |
| [65535.10](#event-6553510) | 0x00CD       |     16 |              2 |
| [65535.11](#event-6553511) | 0x00DD       |     14 |              4 |
| [65535.12](#event-6553512) | 0x00EB       |     14 |              4 |

## DAT References (imed_data)

|   Index | Hex Value   |   Dec Value |
|---------|-------------|-------------|
|       0 | 0x0001      |           1 |
|       1 | 0x0005      |           5 |
|       2 | 0x0000      |           0 |
|       3 | 0x001B      |          27 |
|       4 | 0x000C      |          12 |
|       5 | 0x0018      |          24 |
|       6 | 0x0028      |          40 |
|       7 | 0xF4EF      |       62703 |
|       8 | 0x28B3      |       10419 |
|       9 | 0xFFFFC951  |  4294953297 |
|      10 | 0x0100      |         256 |
|      11 | 0x0A32      |        2610 |
|      12 | 0x0006      |           6 |
|      13 | 0x0013      |          19 |
|      14 | 0x000D      |          13 |
|      15 | 0x045C      |        1116 |
|      16 | 0x05C7      |        1479 |
|      17 | 0xFFFF4869  |  4294920297 |
|      18 | 0x0029      |          41 |
|      19 | 0x0801      |        2049 |
|      20 | 0x0008      |           8 |
|      21 | 0xFFFF887E  |  4294936702 |
|      22 | 0x2F095     |      192661 |
|      23 | 0xFFFFC180  |  4294951296 |
|      24 | 0xFFFF8BE8  |  4294937576 |
|      25 | 0x2EDA0     |      191904 |

## Events

### Event 65535

#### Metadata

| Field        | Value   |
|--------------|---------|
| Entrypoint   | 0x0000  |
| Data Size    | 1 bytes |
| Instructions | 1       |

```
      00 01 02 03 04 05 06 07  08 09 0A 0B 0C 0D 0E 0F
      -- -- -- -- -- -- -- --  -- -- -- -- -- -- -- --
0000: 00                                                .               
```

#### Opcodes

```
  0: 0x0000 [0x00] END_REQSTACK()
```

### Event 10094

#### Metadata

| Field        | Value   |
|--------------|---------|
| Entrypoint   | 0x0001  |
| Data Size    | 4 bytes |
| Instructions | 2       |

```
      00 01 02 03 04 05 06 07  08 09 0A 0B 0C 0D 0E 0F
      -- -- -- -- -- -- -- --  -- -- -- -- -- -- -- --
0000:    C0 00 80 00                                     ....           
```

#### Opcodes

```
  0: 0x0001 [0xC0] EventEntity->Render.Flags3 |= 0x1000 // Set bit 12 (from 1*)
  1: 0x0004 [0x00] END_REQSTACK()
```

### Event 65535.1

#### Metadata

| Field        | Value    |
|--------------|----------|
| Entrypoint   | 0x0005   |
| Data Size    | 45 bytes |
| Instructions | 4        |

```
      00 01 02 03 04 05 06 07  08 09 0A 0B 0C 0D 0E 0F
      -- -- -- -- -- -- -- --  -- -- -- -- -- -- -- --
0000:                B6 0B 00  80 01 80 02 80 03 80 02       ...........
0010: 80 04 80 05 80 02 80 02  80 B4 00 00 00 4E 61 6A  .............Naj
0020: 69 00 00 00 00 00 00 00  00 00 00 00 00 B5 00 00  i...............
0030: 00 00                                             ..              
```

#### Opcodes

```
  0: 0x0005 [0xB6] ENTITY_APPEARANCE_HANDLER(case=Full entity look, race=1*, hair=5*, head=0*, body=27*, hands=0*, legs=12*, feet=24*, main=0*, sub=0*)
  1: 0x0019 [0xB4] UI_WINDOW_STRING_HANDLER(case=0x00 - Copy string from opcode, work_offset=ExtData[1]->WorkLocal[0], string="Naji")
  2: 0x002D [0xB5] SET_EVENT_ENTITY_NAME: Change EventEntity name to ExtData[1]->WorkLocal[0]
  3: 0x0031 [0x00] END_REQSTACK()
```

### Event 65535.2

#### Metadata

| Field        | Value    |
|--------------|----------|
| Entrypoint   | 0x0032   |
| Data Size    | 15 bytes |
| Instructions | 5        |

```
      00 01 02 03 04 05 06 07  08 09 0A 0B 0C 0D 0E 0F
      -- -- -- -- -- -- -- --  -- -- -- -- -- -- -- --
0030:       32 06 80 1F 00 07  80 08 80 09 80 1F 01 6F    2............o
0040: 00                                                .               
```

#### Opcodes

```
  0: 0x0032 [0x32] ExtData[1]->MainSpeed = 40* * 0.1
  1: 0x0035 [0x1F] MOVE_ENTITY: EventEntity moves to X=62.703*, Z=10.419*, Y=-13.999*
  2: 0x003D [0x1F] MOVE_ENTITY: Update entity position (mode=1)
  3: 0x003F [0x6F] WAIT_FRAME_DELAY: Yield until WaitTime reaches zero
  4: 0x0040 [0x00] END_REQSTACK()
```

### Event 65535.3

#### Metadata

| Field        | Value    |
|--------------|----------|
| Entrypoint   | 0x0041   |
| Data Size    | 16 bytes |
| Instructions | 2        |

```
      00 01 02 03 04 05 06 07  08 09 0A 0B 0C 0D 0E 0F
      -- -- -- -- -- -- -- --  -- -- -- -- -- -- -- --
0040:    5B 0A 80 F8 FF FF 7F  F8 FF FF 7F 74 6C 6B 30   [..........tlk0
0050: 00                                                .               
```

#### Opcodes

```
  0: 0x0041 [0x5B] LOAD_EXT_SCHEDULER: Load scheduler "tlk0" with entities [EventEntity, EventEntity], work=256*
  1: 0x0050 [0x00] END_REQSTACK()
```

### Event 65535.4

#### Metadata

| Field        | Value    |
|--------------|----------|
| Entrypoint   | 0x0051   |
| Data Size    | 16 bytes |
| Instructions | 2        |

```
      00 01 02 03 04 05 06 07  08 09 0A 0B 0C 0D 0E 0F
      -- -- -- -- -- -- -- --  -- -- -- -- -- -- -- --
0050:    5B 0B 80 F8 FF FF 7F  F8 FF FF 7F 6E 6F 70 30   [..........nop0
0060: 00                                                .               
```

#### Opcodes

```
  0: 0x0051 [0x5B] LOAD_EXT_SCHEDULER: Load scheduler "nop0" with entities [EventEntity, EventEntity], work=2610*
  1: 0x0060 [0x00] END_REQSTACK()
```

### Event 65535.5

#### Metadata

| Field        | Value    |
|--------------|----------|
| Entrypoint   | 0x0061   |
| Data Size    | 45 bytes |
| Instructions | 4        |

```
      00 01 02 03 04 05 06 07  08 09 0A 0B 0C 0D 0E 0F
      -- -- -- -- -- -- -- --  -- -- -- -- -- -- -- --
0060:    B6 0B 0C 80 0C 80 02  80 0D 80 0D 80 0D 80 0D   ...............
0070: 80 02 80 02 80 B4 00 00  00 53 68 61 6E 74 6F 74  .........Shantot
0080: 74 6F 00 00 00 00 00 00  00 B5 00 00 00 00        to............  
```

#### Opcodes

```
  0: 0x0061 [0xB6] ENTITY_APPEARANCE_HANDLER(case=Full entity look, race=6*, hair=6*, head=0*, body=19*, hands=19*, legs=19*, feet=19*, main=0*, sub=0*)
  1: 0x0075 [0xB4] UI_WINDOW_STRING_HANDLER(case=0x00 - Copy string from opcode, work_offset=ExtData[1]->WorkLocal[0], string="Shantotto")
  2: 0x0089 [0xB5] SET_EVENT_ENTITY_NAME: Change EventEntity name to ExtData[1]->WorkLocal[0]
  3: 0x008D [0x00] END_REQSTACK()
```

### Event 65535.6

#### Metadata

| Field        | Value    |
|--------------|----------|
| Entrypoint   | 0x008E   |
| Data Size    | 15 bytes |
| Instructions | 5        |

```
      00 01 02 03 04 05 06 07  08 09 0A 0B 0C 0D 0E 0F
      -- -- -- -- -- -- -- --  -- -- -- -- -- -- -- --
0080:                                            32 0E                2.
0090: 80 1F 00 0F 80 10 80 11  80 1F 01 6F 00           ...........o.   
```

#### Opcodes

```
  0: 0x008E [0x32] ExtData[1]->MainSpeed = 13* * 0.1
  1: 0x0091 [0x1F] MOVE_ENTITY: EventEntity moves to X=1.116*, Z=1.479*, Y=-46.999*
  2: 0x0099 [0x1F] MOVE_ENTITY: Update entity position (mode=1)
  3: 0x009B [0x6F] WAIT_FRAME_DELAY: Yield until WaitTime reaches zero
  4: 0x009C [0x00] END_REQSTACK()
```

### Event 65535.7

#### Metadata

| Field        | Value    |
|--------------|----------|
| Entrypoint   | 0x009D   |
| Data Size    | 16 bytes |
| Instructions | 2        |

```
      00 01 02 03 04 05 06 07  08 09 0A 0B 0C 0D 0E 0F
      -- -- -- -- -- -- -- --  -- -- -- -- -- -- -- --
0090:                                         66 12 80               f..
00A0: F8 FF FF 7F F8 FF FF 7F  6F 68 68 30 00           ........ohh0.   
```

#### Opcodes

```
  0: 0x009D [0x66] LOAD_EXT_SCHEDULER_MAIN: Load scheduler "ohh0" with entities [EventEntity, EventEntity], work=41*
  1: 0x00AC [0x00] END_REQSTACK()
```

### Event 65535.8

#### Metadata

| Field        | Value    |
|--------------|----------|
| Entrypoint   | 0x00AD   |
| Data Size    | 16 bytes |
| Instructions | 2        |

```
      00 01 02 03 04 05 06 07  08 09 0A 0B 0C 0D 0E 0F
      -- -- -- -- -- -- -- --  -- -- -- -- -- -- -- --
00A0:                                         66 12 80               f..
00B0: F8 FF FF 7F F8 FF FF 7F  6F 68 68 31 00           ........ohh1.   
```

#### Opcodes

```
  0: 0x00AD [0x66] LOAD_EXT_SCHEDULER_MAIN: Load scheduler "ohh1" with entities [EventEntity, EventEntity], work=41*
  1: 0x00BC [0x00] END_REQSTACK()
```

### Event 65535.9

#### Metadata

| Field        | Value    |
|--------------|----------|
| Entrypoint   | 0x00BD   |
| Data Size    | 16 bytes |
| Instructions | 2        |

```
      00 01 02 03 04 05 06 07  08 09 0A 0B 0C 0D 0E 0F
      -- -- -- -- -- -- -- --  -- -- -- -- -- -- -- --
00B0:                                         66 12 80               f..
00C0: F8 FF FF 7F F8 FF FF 7F  65 68 6E 30 00           ........ehn0.   
```

#### Opcodes

```
  0: 0x00BD [0x66] LOAD_EXT_SCHEDULER_MAIN: Load scheduler "ehn0" with entities [EventEntity, EventEntity], work=41*
  1: 0x00CC [0x00] END_REQSTACK()
```

### Event 65535.10

#### Metadata

| Field        | Value    |
|--------------|----------|
| Entrypoint   | 0x00CD   |
| Data Size    | 16 bytes |
| Instructions | 2        |

```
      00 01 02 03 04 05 06 07  08 09 0A 0B 0C 0D 0E 0F
      -- -- -- -- -- -- -- --  -- -- -- -- -- -- -- --
00C0:                                         5B 13 80               [..
00D0: F8 FF FF 7F F8 FF FF 7F  79 67 6F 30 00           ........ygo0.   
```

#### Opcodes

```
  0: 0x00CD [0x5B] LOAD_EXT_SCHEDULER: Load scheduler "ygo0" with entities [EventEntity, EventEntity], work=2049*
  1: 0x00DC [0x00] END_REQSTACK()
```

### Event 65535.11

#### Metadata

| Field        | Value    |
|--------------|----------|
| Entrypoint   | 0x00DD   |
| Data Size    | 14 bytes |
| Instructions | 4        |

```
      00 01 02 03 04 05 06 07  08 09 0A 0B 0C 0D 0E 0F
      -- -- -- -- -- -- -- --  -- -- -- -- -- -- -- --
00D0:                                         32 14 80               2..
00E0: 1F 00 15 80 16 80 17 80  1F 01 00                 ...........     
```

#### Opcodes

```
  0: 0x00DD [0x32] ExtData[1]->MainSpeed = 8* * 0.1
  1: 0x00E0 [0x1F] MOVE_ENTITY: EventEntity moves to X=-30.594*, Z=192.661*, Y=-16.000*
  2: 0x00E8 [0x1F] MOVE_ENTITY: Update entity position (mode=1)
  3: 0x00EA [0x00] END_REQSTACK()
```

### Event 65535.12

#### Metadata

| Field        | Value    |
|--------------|----------|
| Entrypoint   | 0x00EB   |
| Data Size    | 14 bytes |
| Instructions | 4        |

```
      00 01 02 03 04 05 06 07  08 09 0A 0B 0C 0D 0E 0F
      -- -- -- -- -- -- -- --  -- -- -- -- -- -- -- --
00E0:                                   32 06 80 1F 00             2....
00F0: 18 80 19 80 17 80 1F 01  00                       .........       
```

#### Opcodes

```
  0: 0x00EB [0x32] ExtData[1]->MainSpeed = 40* * 0.1
  1: 0x00EE [0x1F] MOVE_ENTITY: EventEntity moves to X=-29.720*, Z=191.904*, Y=-16.000*
  2: 0x00F6 [0x1F] MOVE_ENTITY: Update entity position (mode=1)
  3: 0x00F8 [0x00] END_REQSTACK()
```
