# 17780961

## Common Data

| Field            | Value                 |
|------------------|-----------------------|
| Zone             | Lower Jeuno (ID: 245) |
| Block Size       | 2720 bytes            |
| Total Events     | 5                     |
| References Count | 124                   |

## List of Events

| Event ID              | Entrypoint   |   Size |   Instructions |
|-----------------------|--------------|--------|----------------|
| [65535](#event-65535) | 0x0000       |      1 |              1 |
| [10126](#event-10126) | 0x0001       |    657 |            117 |
| [10127](#event-10127) | 0x0292       |    316 |             61 |
| [10128](#event-10128) | 0x03CE       |    336 |             66 |
| [10129](#event-10129) | 0x051E       |    878 |            165 |

## DAT References (imed_data)

|   Index | Hex Value   |   Dec Value |
|---------|-------------|-------------|
|       0 | 0x0000      |           0 |
|       1 | 0x0003      |           3 |
|       2 | 0x0005      |           5 |
|       3 | 0x0001      |           1 |
|       4 | 0x0006      |           6 |
|       5 | 0x28D6      |       10454 |
|       6 | 0x003C      |          60 |
|       7 | 0x28D7      |       10455 |
|       8 | 0x28D8      |       10456 |
|       9 | 0x28D9      |       10457 |
|      10 | 0x005A      |          90 |
|      11 | 0x4435      |       17461 |
|      12 | 0x5436      |       21558 |
|      13 | 0x28DA      |       10458 |
|      14 | 0x28DB      |       10459 |
|      15 | 0x0004      |           4 |
|      16 | 0x28DC      |       10460 |
|      17 | 0x0045      |          69 |
|      18 | 0x28DE      |       10462 |
|      19 | 0x28DF      |       10463 |
|      20 | 0x28E0      |       10464 |
|      21 | 0x28E1      |       10465 |
|      22 | 0x28E2      |       10466 |
|      23 | 0x28E3      |       10467 |
|      24 | 0x28E4      |       10468 |
|      25 | 0x0002      |           2 |
|      26 | 0x0015      |          21 |
|      27 | 0x28E5      |       10469 |
|      28 | 0x28E6      |       10470 |
|      29 | 0x0078      |         120 |
|      30 | 0x28E7      |       10471 |
|      31 | 0x28E8      |       10472 |
|      32 | 0x28E9      |       10473 |
|      33 | 0x11CE      |        4558 |
|      34 | 0x28EA      |       10474 |
|      35 | 0x28DD      |       10461 |
|      36 | 0x0007      |           7 |
|      37 | 0x28EB      |       10475 |
|      38 | 0x28FC      |       10492 |
|      39 | 0x28FD      |       10493 |
|      40 | 0x28FE      |       10494 |
|      41 | 0x28FF      |       10495 |
|      42 | 0x2900      |       10496 |
|      43 | 0x2907      |       10503 |
|      44 | 0x2908      |       10504 |
|      45 | 0x2909      |       10505 |
|      46 | 0x290A      |       10506 |
|      47 | 0x290B      |       10507 |
|      48 | 0x290C      |       10508 |
|      49 | 0x290D      |       10509 |
|      50 | 0x290E      |       10510 |
|      51 | 0x290F      |       10511 |
|      52 | 0x2911      |       10513 |
|      53 | 0x2912      |       10514 |
|      54 | 0x00CC      |         204 |
|      55 | 0x2913      |       10515 |
|      56 | 0x2914      |       10516 |
|      57 | 0x2915      |       10517 |
|      58 | 0x2916      |       10518 |
|      59 | 0x2917      |       10519 |
|      60 | 0x2918      |       10520 |
|      61 | 0x2919      |       10521 |
|      62 | 0x2910      |       10512 |
|      63 | 0x001E      |          30 |
|      64 | 0x291A      |       10522 |
|      65 | 0x291B      |       10523 |
|      66 | 0x291C      |       10524 |
|      67 | 0x291D      |       10525 |
|      68 | 0x291E      |       10526 |
|      69 | 0x291F      |       10527 |
|      70 | 0x2920      |       10528 |
|      71 | 0x2921      |       10529 |
|      72 | 0x2923      |       10531 |
|      73 | 0x2924      |       10532 |
|      74 | 0x2925      |       10533 |
|      75 | 0x017F      |         383 |
|      76 | 0x0020      |          32 |
|      77 | 0x2922      |       10530 |
|      78 | 0x00B4      |         180 |
|      79 | 0x28EC      |       10476 |
|      80 | 0x28ED      |       10477 |
|      81 | 0x28EE      |       10478 |
|      82 | 0x28EF      |       10479 |
|      83 | 0x28F0      |       10480 |
|      84 | 0x28F1      |       10481 |
|      85 | 0x28F2      |       10482 |
|      86 | 0x28F3      |       10483 |
|      87 | 0x28F4      |       10484 |
|      88 | 0x0008      |           8 |
|      89 | 0x28F5      |       10485 |
|      90 | 0x28F6      |       10486 |
|      91 | 0x000A      |          10 |
|      92 | 0x28F7      |       10487 |
|      93 | 0x28F8      |       10488 |
|      94 | 0x0064      |         100 |
|      95 | 0x28F9      |       10489 |
|      96 | 0x28FA      |       10490 |
|      97 | 0x28FB      |       10491 |
|      98 | 0x2901      |       10497 |
|      99 | 0x2902      |       10498 |
|     100 | 0x2906      |       10502 |
|     101 | 0x2903      |       10499 |
|     102 | 0x2904      |       10500 |
|     103 | 0x2905      |       10501 |
|     104 | 0x008F      |         143 |
|     105 | 0x014F      |         335 |
|     106 | 0x0055      |          85 |
|     107 | 0x00FE      |         254 |
|     108 | 0x0151      |         337 |
|     109 | 0x0131      |         305 |
|     110 | 0x4018      |       16408 |
|     111 | 0x471E      |       18206 |
|     112 | 0x4107      |       16647 |
|     113 | 0x40B3      |       16563 |
|     114 | 0x46A4      |       18084 |
|     115 | 0x42C5      |       17093 |
|     116 | 0x00BF      |         191 |
|     117 | 0x00C4      |         196 |
|     118 | 0x00C5      |         197 |
|     119 | 0x00C3      |         195 |
|     120 | 0x00C2      |         194 |
|     121 | 0x00C8      |         200 |
|     122 | 0x00C1      |         193 |
|     123 | 0x00C6      |         198 |

## String References

- **10460**: What do you want to ask about? [The Strange Apparatus./The password./Tell me the password./Farewell.]
- **10493**: Got it? [No problem!/I'm not very good with numbers.]
- **10498**: Where are you planning to register? [$8./$8./$8./$8./$8./$8./$8./$8./Never mind.]
- **10504**: What do you want to ask? [Tell me how to calculate the password./Just tell me the password./Never mind.]
- **10511**: Do you want to hear the info? [Sure./No thanks.]

## Events

### Event 65535

#### Metadata

| Field        | Value   |
|--------------|---------|
| Entrypoint   | 0x0000  |
| Data Size    | 1 bytes |
| Instructions | 1       |

```
      00 01 02 03 04 05 06 07  08 09 0A 0B 0C 0D 0E 0F
      -- -- -- -- -- -- -- --  -- -- -- -- -- -- -- --
0000: 00                                                .               
```

#### Opcodes

```
  0: 0x0000 [0x00] END_REQSTACK()
```

### Event 10126

#### Metadata

| Field        | Value     |
|--------------|-----------|
| Entrypoint   | 0x0001    |
| Data Size    | 657 bytes |
| Instructions | 83        |

```
      00 01 02 03 04 05 06 07  08 09 0A 0B 0C 0D 0E 0F
      -- -- -- -- -- -- -- --  -- -- -- -- -- -- -- --
0000:    7A 04 80 E3 50 0F 01  06 03 01 10 00 80 03 00   z...P..........
0010: 00 02 10 03 02 00 03 10  4A F0 FF FF 7F E3 50 0F  ........J.....P.
0020: 01 4A E3 50 0F 01 F0 FF  FF 7F 6F 76 E3 50 0F 01  .J.P......ov.P..
0030: 41 01 80 02 80 00 00 01  00 02 01 00 03 80 00 44  A..............D
0040: 00 01 23 02 9D 0A 5C 08  02 10 02 00 04 80 2B E3  ..#...\.......+.
0050: 50 0F 01 05 80 1C 06 80  23 27 10 E3 50 0F 01 05  P.......#'..P...
0060: 9D 0A 6C 08 03 10 02 00  04 80 2B E3 50 0F 01 07  ..l.......+.P...
0070: 80 23 2B E3 50 0F 01 08  80 23 2B E3 50 0F 01 09  .#+.P....#+.P...
0080: 80 1C 0A 80 23 2A 10 E3  50 0F 01 27 10 E3 50 0F  ....#*..P..'..P.
0090: 01 06 2A 10 E3 50 0F 01  7A 05 E3 50 0F 01 03 06  ..*..P..z..P....
00A0: 10 0B 80 03 08 10 0C 80  2B E3 50 0F 01 0D 80 23  ........+.P....#
00B0: 2B E3 50 0F 01 0E 80 23  03 04 00 0F 80 03 03 00  +.P....#........
00C0: 00 80 24 10 80 03 00 04  00 25 02 00 10 00 80 00  ..$......%......
00D0: 5E 01 66 11 80 E3 50 0F  01 E3 50 0F 01 74 6C 6B  ^.f...P...P..tlk
00E0: 30 2B E3 50 0F 01 12 80  23 9D 0A 6C 08 03 10 02  0+.P....#..l....
00F0: 00 04 80 03 04 10 02 00  0B 04 10 02 04 10 04 80  ................
0100: 00 08 01 03 04 10 00 80  03 05 10 04 10 9D 0A 6C  ...............l
0110: 08 04 10 04 10 04 80 0B  05 10 02 05 10 04 80 00  ................
0120: 27 01 03 05 10 00 80 9D  0A 6C 08 05 10 05 10 04  '........l......
0130: 80 2B E3 50 0F 01 13 80  23 2B E3 50 0F 01 14 80  .+.P....#+.P....
0140: 1C 0A 80 23 66 11 80 E3  50 0F 01 E3 50 0F 01 74  ...#f...P...P..t
0150: 6C 6B 31 03 03 00 00 10  01 C2 00 01 90 02 02 00  lk1.............
0160: 10 03 80 00 C1 01 66 11  80 E3 50 0F 01 E3 50 0F  ......f...P...P.
0170: 01 74 6C 6B 30 2B E3 50  0F 01 15 80 23 9D 0A 5C  .tlk0+.P....#..\
0180: 08 02 10 02 00 04 80 2B  E3 50 0F 01 16 80 23 2B  .......+.P....#+
0190: E3 50 0F 01 17 80 23 2B  E3 50 0F 01 18 80 1C 0A  .P....#+.P......
01A0: 80 23 66 11 80 E3 50 0F  01 E3 50 0F 01 74 6C 6B  .#f...P...P..tlk
01B0: 31 03 04 00 00 80 03 03  00 00 10 01 C2 00 01 90  1...............
01C0: 02 02 00 10 19 80 00 7D  02 6E E3 50 0F 01 1A 80  .......}.n.P....
01D0: 99 E3 50 0F 01 2B E3 50  0F 01 1B 80 23 2B E3 50  ..P..+.P....#+.P
01E0: 0F 01 1C 80 1C 1D 80 23  7B E3 50 0F 01 66 11 80  .......#{.P..f..
01F0: E3 50 0F 01 E3 50 0F 01  74 68 6B 31 2B E3 50 0F  .P...P..thk1+.P.
0200: 01 1E 80 1C 1D 80 23 66  11 80 E3 50 0F 01 E3 50  ......#f...P...P
0210: 0F 01 74 68 6B 32 79 00  E3 50 0F 01 F0 FF FF 7F  ..thk2y..P......
0220: 1C 06 80 66 11 80 E3 50  0F 01 E3 50 0F 01 74 6C  ...f...P...P..tl
0230: 6B 30 2B E3 50 0F 01 1F  80 23 2B E3 50 0F 01 20  k0+.P....#+.P.. 
0240: 80 23 02 01 00 00 80 00  4B 02 42 03 07 10 21 80  .#......K.B...!.
0250: 2B E3 50 0F 01 22 80 1C  0A 80 23 66 11 80 E3 50  +.P.."....#f...P
0260: 0F 01 E3 50 0F 01 74 6C  6B 31 1C 06 80 02 01 00  ...P..tlk1......
0270: 00 80 00 7A 02 03 01 10  03 80 01 90 02 02 00 10  ...z............
0280: 01 80 00 90 02 2B E3 50  0F 01 23 80 23 01 90 02  .....+.P..#.#...
0290: 21 00                                             !.              
```

#### Opcodes

```
  0: 0x0001 [0x7A] VM_CONTROL: Copy data from Unknown NPC (ID: 256959360/0x0F50E380) (params=1, 6)
  1: 0x0009 [0x03] Work_Zone[1] = 0*
  2: 0x000E [0x03] ExtData[1]->WorkLocal[0] = Work_Zone[2]
  3: 0x0013 [0x03] ExtData[1]->WorkLocal[2] = Work_Zone[3]
  4: 0x0018 [0x4A] LocalPlayer looks at Boisterous Jackal (ID: 17780963/0x010F50E3)
  5: 0x0021 [0x4A] Boisterous Jackal (ID: 17780963/0x010F50E3) looks at LocalPlayer
  6: 0x002A [0x6F] WAIT_FRAME_DELAY: Yield until WaitTime reaches zero
  7: 0x002B [0x76] CHECK_ENTITY_RENDER_FLAGS: Wait until Boisterous Jackal (ID: 17780963/0x010F50E3) Render.Flags0 and Render.Flags3 conditions are met
  8: 0x0030 [0x41] ExtData[1]->WorkLocal[1] = ExtData[1]->WorkLocal[0] (bits 3*-5*)
  9: 0x0039 [0x02] IF !(ExtData[1]->WorkLocal[1] == 1*) GOTO 0x0044
 10: 0x0041 [0x01] GOTO 0x0223
 11: 0x0044 [0x9D] IF (0x085C) ExtData[1]->WorkLocal[2] = Work_Zone[2] // extra=0x8004
 12: 0x004E [0x2B] Boisterous Jackal (ID: 17780963/0x010F50E3) [10454*]:
    → "What do you want? Oh, I see you've got your eyes on my $0."
 13: 0x0055 [0x1C] WAIT(60* ticks)
 14: 0x0058 [0x23] WAIT_FOR_DIALOG_INTERACTION
 15: 0x0059 [0x27] REQ_SET(priority=0x10, entity_id=Boisterous Jackal (ID: 17780963/0x010F50E3), tag_num=0x05)
 16: 0x0060 [0x9D] IF (0x086C) ExtData[1]->WorkLocal[2] = Work_Zone[3] // extra=0x8004
 17: 0x006A [0x2B] Boisterous Jackal (ID: 17780963/0x010F50E3) [10455*]:
    → "It's imbued with the power of a rune generated by the Strange Apparatus in $8."
 18: 0x0071 [0x23] WAIT_FOR_DIALOG_INTERACTION
 19: 0x0072 [0x2B] Boisterous Jackal (ID: 17780963/0x010F50E3) [10456*]:
    → "There are many other weapons imbued with the power of runes. Of course, I own all of the ones that can be equipped."
 20: 0x0079 [0x23] WAIT_FOR_DIALOG_INTERACTION
 21: 0x007A [0x2B] Boisterous Jackal (ID: 17780963/0x010F50E3) [10457*]:
    → "Any warrior worth his salt needs to be well-trained in a variety of weapons."
 22: 0x0081 [0x1C] WAIT(90* ticks)
 23: 0x0084 [0x23] WAIT_FOR_DIALOG_INTERACTION
 24: 0x0085 [0x2A] GET_REQ_LEVEL(level=16, entity_id=Boisterous Jackal (ID: 17780963/0x010F50E3))
 25: 0x008B [0x27] REQ_SET(priority=0x10, entity_id=Boisterous Jackal (ID: 17780963/0x010F50E3), tag_num=0x06)
 26: 0x0092 [0x2A] GET_REQ_LEVEL(level=16, entity_id=Boisterous Jackal (ID: 17780963/0x010F50E3))
 27: 0x0098 [0x7A] VM_CONTROL: Reset copy state for Boisterous Jackal (ID: 17780963/0x010F50E3)
 28: 0x009E [0x03] Work_Zone[6] = 17461*
 29: 0x00A3 [0x03] Work_Zone[8] = 21558*
 30: 0x00A8 [0x2B] Boisterous Jackal (ID: 17780963/0x010F50E3) [10458*]:
    → "As for the ones I can't equip, the $4 and the $6, I was able to sell it for a pretty good price at the bazaar."
 31: 0x00AF [0x23] WAIT_FOR_DIALOG_INTERACTION
 32: 0x00B0 [0x2B] Boisterous Jackal (ID: 17780963/0x010F50E3) [10459*]:
    → "At any rate, it was worth the trouble of decoding the device's password."
 33: 0x00B7 [0x23] WAIT_FOR_DIALOG_INTERACTION
 34: 0x00B8 [0x03] ExtData[1]->WorkLocal[4] = 4*
 35: 0x00BD [0x03] ExtData[1]->WorkLocal[3] = 0*

SUBROUTINE_00C2:
 36: 0x00C2 [0x24] CREATE_DIALOG(message_id=10460*, default_option=ExtData[1]->WorkLocal[3], option_flags=ExtData[1]->WorkLocal[4])
    → "What do you want to ask about? [The Strange Apparatus./The password./Tell me the password./Farewell.]"
 37: 0x00C9 [0x25] WAIT_DIALOG_SELECT()
 38: 0x00CA [0x02] IF !(Work_Zone[0] == 0*) GOTO 0x015E
 39: 0x00D2 [0x66] LOAD_EXT_SCHEDULER_MAIN: Load scheduler "tlk0" with entities [Boisterous Jackal (ID: 17780963/0x010F50E3), Boisterous Jackal (ID: 17780963/0x010F50E3)], work=69*
 40: 0x00E1 [0x2B] Boisterous Jackal (ID: 17780963/0x010F50E3) [10462*]:
    → "Huh? You mean you've never heard of a Strange Apparatus?"
 41: 0x00E8 [0x23] WAIT_FOR_DIALOG_INTERACTION
 42: 0x00E9 [0x9D] IF (0x086C) ExtData[1]->WorkLocal[2] = Work_Zone[3] // extra=0x8004
 43: 0x00F3 [0x03] Work_Zone[4] = ExtData[1]->WorkLocal[2]
 44: 0x00F8 [0x0B] Work_Zone[4]++
 45: 0x00FB [0x02] IF !(Work_Zone[4] == 6*) GOTO 0x0108
 46: 0x0103 [0x03] Work_Zone[4] = 0*
 47: 0x0108 [0x03] Work_Zone[5] = Work_Zone[4]
 48: 0x010D [0x9D] IF (0x086C) Work_Zone[4] = Work_Zone[4] // extra=0x8004
 49: 0x0117 [0x0B] Work_Zone[5]++
 50: 0x011A [0x02] IF !(Work_Zone[5] == 6*) GOTO 0x0127
 51: 0x0122 [0x03] Work_Zone[5] = 0*
 52: 0x0127 [0x9D] IF (0x086C) Work_Zone[5] = Work_Zone[5] // extra=0x8004
 53: 0x0131 [0x2B] Boisterous Jackal (ID: 17780963/0x010F50E3) [10463*]:
    → "They're a type of mysterious device hidden in $8 as well as $8 and $8, among other places."
 54: 0x0138 [0x23] WAIT_FOR_DIALOG_INTERACTION
 55: 0x0139 [0x2B] Boisterous Jackal (ID: 17780963/0x010F50E3) [10464*]:
    → "Of course, I have no idea what such things are doing in caves, ruins, and the like."
 56: 0x0140 [0x1C] WAIT(90* ticks)
 57: 0x0143 [0x23] WAIT_FOR_DIALOG_INTERACTION
 58: 0x0144 [0x66] LOAD_EXT_SCHEDULER_MAIN: Load scheduler "tlk1" with entities [Boisterous Jackal (ID: 17780963/0x010F50E3), Boisterous Jackal (ID: 17780963/0x010F50E3)], work=69*
 59: 0x0153 [0x03] ExtData[1]->WorkLocal[3] = Work_Zone[0]
 60: 0x0158 [0x01] GOTO 0x00C2

SUBROUTINE_0223:
 61: 0x0223 [0x66] LOAD_EXT_SCHEDULER_MAIN: Load scheduler "tlk0" with entities [Boisterous Jackal (ID: 17780963/0x010F50E3), Boisterous Jackal (ID: 17780963/0x010F50E3)], work=69*
 62: 0x0232 [0x2B] Boisterous Jackal (ID: 17780963/0x010F50E3) [10472*]:
    → "Actually, you need MP to wield this weapon properly."
 63: 0x0239 [0x23] WAIT_FOR_DIALOG_INTERACTION
 64: 0x023A [0x2B] Boisterous Jackal (ID: 17780963/0x010F50E3) [10473*]:
    → "For a Galkan warrior like myself, it's a constant struggle to keep up the necessary MP."
 65: 0x0241 [0x23] WAIT_FOR_DIALOG_INTERACTION
 66: 0x0242 [0x02] IF !(ExtData[1]->WorkLocal[1] == 0*) GOTO 0x024B
 67: 0x024A [0x42] SET_CLI_EVENT_CANCEL_DATA()
 68: 0x024B [0x03] Work_Zone[7] = 4558*
 69: 0x0250 [0x2B] Boisterous Jackal (ID: 17780963/0x010F50E3) [10474*]:
    → "So, if you can bring me $5, I suppose I could tell you the secret behind the password."
 70: 0x0257 [0x1C] WAIT(90* ticks)
 71: 0x025A [0x23] WAIT_FOR_DIALOG_INTERACTION
 72: 0x025B [0x66] LOAD_EXT_SCHEDULER_MAIN: Load scheduler "tlk1" with entities [Boisterous Jackal (ID: 17780963/0x010F50E3), Boisterous Jackal (ID: 17780963/0x010F50E3)], work=69*
 73: 0x026A [0x1C] WAIT(60* ticks)
 74: 0x026D [0x02] IF !(ExtData[1]->WorkLocal[1] == 0*) GOTO 0x027A
 75: 0x0275 [0x03] Work_Zone[1] = 1*
 76: 0x027A [0x01] GOTO 0x0290
 77: 0x027D [0x02] IF !(Work_Zone[0] == 3*) GOTO 0x0290
 78: 0x0285 [0x2B] Boisterous Jackal (ID: 17780963/0x010F50E3) [10461*]:
    → "See you around."
 79: 0x028C [0x23] WAIT_FOR_DIALOG_INTERACTION
 80: 0x028D [0x01] GOTO 0x0290

SUBROUTINE_0290:
 81: 0x0290 [0x21] END_EVENT
 82: 0x0291 [0x00] END_REQSTACK()
```

#### Data or dead code:

```
# Dead code (unreachable instructions):
     0x015B [0x01] GOTO 0x0290
     0x01BE [0x01] GOTO 0x0290
```

### Event 10127

#### Metadata

| Field        | Value     |
|--------------|-----------|
| Entrypoint   | 0x0292    |
| Data Size    | 316 bytes |
| Instructions | 53        |

```
      00 01 02 03 04 05 06 07  08 09 0A 0B 0C 0D 0E 0F
      -- -- -- -- -- -- -- --  -- -- -- -- -- -- -- --
0290:       03 01 10 00 80 03  00 00 02 10 4A F0 FF FF    ..........J...
02A0: 7F E3 50 0F 01 4A E3 50  0F 01 F0 FF FF 7F 6F 76  ..P..J.P......ov
02B0: E3 50 0F 01 41 01 80 02  80 00 00 01 00 02 01 00  .P..A...........
02C0: 19 80 80 66 03 6E E3 50  0F 01 24 80 99 E3 50 0F  ...f.n.P..$...P.
02D0: 01 2B E3 50 0F 01 25 80  1C 0A 80 23 1A 87 06 2B  .+.P..%....#...+
02E0: E3 50 0F 01 26 80 23 66  11 80 E3 50 0F 01 E3 50  .P..&.#f...P...P
02F0: 0F 01 74 6C 6B 31 1C 06  80 24 27 80 00 80 00 80  ..tlk1...$'.....
0300: 25 02 00 10 00 80 00 3E  03 42 66 11 80 E3 50 0F  %......>.Bf...P.
0310: 01 E3 50 0F 01 74 6C 6B  30 2B E3 50 0F 01 28 80  ..P..tlk0+.P..(.
0320: 23 2B E3 50 0F 01 29 80  23 66 11 80 E3 50 0F 01  #+.P..).#f...P..
0330: E3 50 0F 01 74 6C 6B 31  1C 06 80 01 63 03 02 00  .P..tlk1....c...
0340: 10 03 80 00 63 03 6E E3  50 0F 01 04 80 99 E3 50  ....c.n.P......P
0350: 0F 01 2B E3 50 0F 01 2A  80 1C 1D 80 23 1A 8C 07  ..+.P..*....#...
0360: 01 63 03 01 CC 03 02 01  00 01 80 80 CC 03 2B E3  .c............+.
0370: 50 0F 01 2B 80 23 03 03  00 00 80 24 2C 80 03 00  P..+.#.....$,...
0380: 00 80 25 02 00 10 00 80  00 A8 03 1A 87 06 66 11  ..%...........f.
0390: 80 E3 50 0F 01 E3 50 0F  01 74 6C 6B 31 03 03 00  ..P...P..tlk1...
03A0: 00 10 01 7B 03 01 C9 03  02 00 10 03 80 00 B6 03  ...{............
03B0: 1A 8C 07 01 C9 03 02 00  10 19 80 00 C9 03 2B E3  ..............+.
03C0: 50 0F 01 23 80 23 01 C9  03 01 CC 03 21 00        P..#.#......!.  
```

#### Opcodes

```
  0: 0x0292 [0x03] Work_Zone[1] = 0*
  1: 0x0297 [0x03] ExtData[1]->WorkLocal[0] = Work_Zone[2]
  2: 0x029C [0x4A] LocalPlayer looks at Boisterous Jackal (ID: 17780963/0x010F50E3)
  3: 0x02A5 [0x4A] Boisterous Jackal (ID: 17780963/0x010F50E3) looks at LocalPlayer
  4: 0x02AE [0x6F] WAIT_FRAME_DELAY: Yield until WaitTime reaches zero
  5: 0x02AF [0x76] CHECK_ENTITY_RENDER_FLAGS: Wait until Boisterous Jackal (ID: 17780963/0x010F50E3) Render.Flags0 and Render.Flags3 conditions are met
  6: 0x02B4 [0x41] ExtData[1]->WorkLocal[1] = ExtData[1]->WorkLocal[0] (bits 3*-5*)
  7: 0x02BD [0x02] IF !(ExtData[1]->WorkLocal[1] == 2*) GOTO 0x0366
  8: 0x02C5 [0x6E] Boisterous Jackal (ID: 17780963/0x010F50E3) uses emote 7*
  9: 0x02CC [0x99] Wait for Boisterous Jackal (ID: 17780963/0x010F50E3) animation to complete
 10: 0x02D1 [0x2B] Boisterous Jackal (ID: 17780963/0x010F50E3) [10475*]:
    → "Very well. As promised, I'll tell you the secret behind the password."
 11: 0x02D8 [0x1C] WAIT(90* ticks)
 12: 0x02DB [0x23] WAIT_FOR_DIALOG_INTERACTION
 13: 0x02DC [0x1A] CALL_SUBROUTINE(address=0x0687)
 14: 0x02DF [0x2B] Boisterous Jackal (ID: 17780963/0x010F50E3) [10492*]:
    → "Did you get all that?"
 15: 0x02E6 [0x23] WAIT_FOR_DIALOG_INTERACTION
 16: 0x02E7 [0x66] LOAD_EXT_SCHEDULER_MAIN: Load scheduler "tlk1" with entities [Boisterous Jackal (ID: 17780963/0x010F50E3), Boisterous Jackal (ID: 17780963/0x010F50E3)], work=69*
 17: 0x02F6 [0x1C] WAIT(60* ticks)
 18: 0x02F9 [0x24] CREATE_DIALOG(message_id=10493*, default_option=0*, option_flags=0*)
    → "Got it? [No problem!/I'm not very good with numbers.]"
 19: 0x0300 [0x25] WAIT_DIALOG_SELECT()
 20: 0x0301 [0x02] IF !(Work_Zone[0] == 0*) GOTO 0x033E
 21: 0x0309 [0x42] SET_CLI_EVENT_CANCEL_DATA()
 22: 0x030A [0x66] LOAD_EXT_SCHEDULER_MAIN: Load scheduler "tlk0" with entities [Boisterous Jackal (ID: 17780963/0x010F50E3), Boisterous Jackal (ID: 17780963/0x010F50E3)], work=69*
 23: 0x0319 [0x2B] Boisterous Jackal (ID: 17780963/0x010F50E3) [10494*]:
    → "Okay then. Now you know how to find your password."
 24: 0x0320 [0x23] WAIT_FOR_DIALOG_INTERACTION
 25: 0x0321 [0x2B] Boisterous Jackal (ID: 17780963/0x010F50E3) [10495*]:
    → "As for what materials to place in the device, you'll need to research that for yourself."
 26: 0x0328 [0x23] WAIT_FOR_DIALOG_INTERACTION
 27: 0x0329 [0x66] LOAD_EXT_SCHEDULER_MAIN: Load scheduler "tlk1" with entities [Boisterous Jackal (ID: 17780963/0x010F50E3), Boisterous Jackal (ID: 17780963/0x010F50E3)], work=69*
 28: 0x0338 [0x1C] WAIT(60* ticks)
 29: 0x033B [0x01] GOTO 0x0363
 30: 0x033E [0x02] IF !(Work_Zone[0] == 1*) GOTO 0x0363
 31: 0x0346 [0x6E] Boisterous Jackal (ID: 17780963/0x010F50E3) uses emote 6*
 32: 0x034D [0x99] Wait for Boisterous Jackal (ID: 17780963/0x010F50E3) animation to complete
 33: 0x0352 [0x2B] Boisterous Jackal (ID: 17780963/0x010F50E3) [10496*]:
    → "Were you even paying attention? Fine, I'll give you the short version."
 34: 0x0359 [0x1C] WAIT(120* ticks)
 35: 0x035C [0x23] WAIT_FOR_DIALOG_INTERACTION
 36: 0x035D [0x1A] CALL_SUBROUTINE(address=0x078C)
 37: 0x0360 [0x01] GOTO 0x0363

SUBROUTINE_0363:
 38: 0x0363 [0x01] GOTO 0x03CC
 39: 0x0366 [0x02] IF !(ExtData[1]->WorkLocal[1] == 3*) GOTO 0x03CC
 40: 0x036E [0x2B] Boisterous Jackal (ID: 17780963/0x010F50E3) [10503*]:
    → "What do you want?"
 41: 0x0375 [0x23] WAIT_FOR_DIALOG_INTERACTION
 42: 0x0376 [0x03] ExtData[1]->WorkLocal[3] = 0*

SUBROUTINE_037B:
 43: 0x037B [0x24] CREATE_DIALOG(message_id=10504*, default_option=ExtData[1]->WorkLocal[3], option_flags=0*)
    → "What do you want to ask? [Tell me how to calculate the password./Just tell me the password./Never mind.]"
 44: 0x0382 [0x25] WAIT_DIALOG_SELECT()
 45: 0x0383 [0x02] IF !(Work_Zone[0] == 0*) GOTO 0x03A8
 46: 0x038B [0x1A] CALL_SUBROUTINE(address=0x0687)
 47: 0x038E [0x66] LOAD_EXT_SCHEDULER_MAIN: Load scheduler "tlk1" with entities [Boisterous Jackal (ID: 17780963/0x010F50E3), Boisterous Jackal (ID: 17780963/0x010F50E3)], work=69*
 48: 0x039D [0x03] ExtData[1]->WorkLocal[3] = Work_Zone[0]
 49: 0x03A2 [0x01] GOTO 0x037B

SUBROUTINE_03C9:
 50: 0x03C9 [0x01] GOTO 0x03CC

SUBROUTINE_03CC:
 51: 0x03CC [0x21] END_EVENT
 52: 0x03CD [0x00] END_REQSTACK()
```

#### Data or dead code:

```
# Dead code (unreachable instructions):
     0x03A5 [0x01] GOTO 0x03C9
```

### Event 10128

#### Metadata

| Field        | Value     |
|--------------|-----------|
| Entrypoint   | 0x03CE    |
| Data Size    | 336 bytes |
| Instructions | 66        |

```
      00 01 02 03 04 05 06 07  08 09 0A 0B 0C 0D 0E 0F
      -- -- -- -- -- -- -- --  -- -- -- -- -- -- -- --
03C0:                                            03 01                ..
03D0: 10 00 80 03 00 00 02 10  03 02 00 03 10 4A F0 FF  .............J..
03E0: FF 7F E3 50 0F 01 4A E3  50 0F 01 F0 FF FF 7F 6F  ...P..J.P......o
03F0: 76 E3 50 0F 01 41 01 80  02 80 00 00 01 00 02 01  v.P..A..........
0400: 00 0F 80 00 09 04 01 92  04 9D 0A 5C 08 02 10 02  ...........\....
0410: 00 04 80 2B E3 50 0F 01  05 80 1C 06 80 23 66 11  ...+.P.......#f.
0420: 80 E3 50 0F 01 E3 50 0F  01 74 6C 6B 30 02 01 00  ..P...P..tlk0...
0430: 01 80 00 48 04 2B E3 50  0F 01 2D 80 23 2B E3 50  ...H.+.P..-.#+.P
0440: 0F 01 2E 80 23 01 60 04  2B E3 50 0F 01 2F 80 23  ....#.`.+.P../.#
0450: 2B E3 50 0F 01 30 80 23  2B E3 50 0F 01 31 80 23  +.P..0.#+.P..1.#
0460: 2B E3 50 0F 01 32 80 23  66 11 80 E3 50 0F 01 E3  +.P..2.#f...P...
0470: 50 0F 01 74 6C 6B 31 1C  06 80 24 33 80 00 80 00  P..tlk1...$3....
0480: 80 25 02 00 10 00 80 00  09 05 2B E3 50 0F 01 34  .%........+.P..4
0490: 80 23 66 11 80 E3 50 0F  01 E3 50 0F 01 74 6C 6B  .#f...P...P..tlk
04A0: 30 2B E3 50 0F 01 35 80  23 03 03 10 36 80 2B E3  0+.P..5.#...6.+.
04B0: 50 0F 01 37 80 23 2B E3  50 0F 01 38 80 23 2B E3  P..7.#+.P..8.#+.
04C0: 50 0F 01 39 80 23 2B E3  50 0F 01 3A 80 23 2B E3  P..9.#+.P..:.#+.
04D0: 50 0F 01 3B 80 23 2B E3  50 0F 01 3C 80 23 02 01  P..;.#+.P..<.#..
04E0: 00 0F 80 01 EC 04 42 03  01 10 03 80 2B E3 50 0F  ......B.....+.P.
04F0: 01 3D 80 23 66 11 80 E3  50 0F 01 E3 50 0F 01 74  .=.#f...P...P..t
0500: 6C 6B 31 1C 06 80 01 1C  05 02 00 10 03 80 00 1C  lk1.............
0510: 05 2B E3 50 0F 01 3E 80  23 01 1C 05 21 00        .+.P..>.#...!.  
```

#### Opcodes

```
  0: 0x03CE [0x03] Work_Zone[1] = 0*
  1: 0x03D3 [0x03] ExtData[1]->WorkLocal[0] = Work_Zone[2]
  2: 0x03D8 [0x03] ExtData[1]->WorkLocal[2] = Work_Zone[3]
  3: 0x03DD [0x4A] LocalPlayer looks at Boisterous Jackal (ID: 17780963/0x010F50E3)
  4: 0x03E6 [0x4A] Boisterous Jackal (ID: 17780963/0x010F50E3) looks at LocalPlayer
  5: 0x03EF [0x6F] WAIT_FRAME_DELAY: Yield until WaitTime reaches zero
  6: 0x03F0 [0x76] CHECK_ENTITY_RENDER_FLAGS: Wait until Boisterous Jackal (ID: 17780963/0x010F50E3) Render.Flags0 and Render.Flags3 conditions are met
  7: 0x03F5 [0x41] ExtData[1]->WorkLocal[1] = ExtData[1]->WorkLocal[0] (bits 3*-5*)
  8: 0x03FE [0x02] IF !(ExtData[1]->WorkLocal[1] == 4*) GOTO 0x0409
  9: 0x0406 [0x01] GOTO 0x0492
 10: 0x0409 [0x9D] IF (0x085C) ExtData[1]->WorkLocal[2] = Work_Zone[2] // extra=0x8004
 11: 0x0413 [0x2B] Boisterous Jackal (ID: 17780963/0x010F50E3) [10454*]:
    → "What do you want? Oh, I see you've got your eyes on my $0."
 12: 0x041A [0x1C] WAIT(60* ticks)
 13: 0x041D [0x23] WAIT_FOR_DIALOG_INTERACTION
 14: 0x041E [0x66] LOAD_EXT_SCHEDULER_MAIN: Load scheduler "tlk0" with entities [Boisterous Jackal (ID: 17780963/0x010F50E3), Boisterous Jackal (ID: 17780963/0x010F50E3)], work=69*
 15: 0x042D [0x02] IF !(ExtData[1]->WorkLocal[1] == 3*) GOTO 0x0448
 16: 0x0435 [0x2B] Boisterous Jackal (ID: 17780963/0x010F50E3) [10505*]:
    → "Oh... You're the one I recently told how to obtain the password."
 17: 0x043C [0x23] WAIT_FOR_DIALOG_INTERACTION
 18: 0x043D [0x2B] Boisterous Jackal (ID: 17780963/0x010F50E3) [10506*]:
    → "It seems you were able to receive the necessary access privileges for the device."
 19: 0x0444 [0x23] WAIT_FOR_DIALOG_INTERACTION
 20: 0x0445 [0x01] GOTO 0x0460
 21: 0x0448 [0x2B] Boisterous Jackal (ID: 17780963/0x010F50E3) [10507*]:
    → "It seems like we have quite a bit in common."
 22: 0x044F [0x23] WAIT_FOR_DIALOG_INTERACTION
 23: 0x0450 [0x2B] Boisterous Jackal (ID: 17780963/0x010F50E3) [10508*]:
    → "There's no use trying to hide it. I could tell by the way you were looking at my $0."
 24: 0x0457 [0x23] WAIT_FOR_DIALOG_INTERACTION
 25: 0x0458 [0x2B] Boisterous Jackal (ID: 17780963/0x010F50E3) [10509*]:
    → "You managed to receive the necessary access privileges with the Strange Apparatus. Am I right?"
 26: 0x045F [0x23] WAIT_FOR_DIALOG_INTERACTION

SUBROUTINE_0460:
 27: 0x0460 [0x2B] Boisterous Jackal (ID: 17780963/0x010F50E3) [10510*]:
    → "If so, I've got some interesting news for you. Care to hear it?"
 28: 0x0467 [0x23] WAIT_FOR_DIALOG_INTERACTION
 29: 0x0468 [0x66] LOAD_EXT_SCHEDULER_MAIN: Load scheduler "tlk1" with entities [Boisterous Jackal (ID: 17780963/0x010F50E3), Boisterous Jackal (ID: 17780963/0x010F50E3)], work=69*
 30: 0x0477 [0x1C] WAIT(60* ticks)
 31: 0x047A [0x24] CREATE_DIALOG(message_id=10511*, default_option=0*, option_flags=0*)
    → "Do you want to hear the info? [Sure./No thanks.]"
 32: 0x0481 [0x25] WAIT_DIALOG_SELECT()
 33: 0x0482 [0x02] IF !(Work_Zone[0] == 0*) GOTO 0x0509
 34: 0x048A [0x2B] Boisterous Jackal (ID: 17780963/0x010F50E3) [10513*]:
    → "Hehe... I thought you might want to hear this."
 35: 0x0491 [0x23] WAIT_FOR_DIALOG_INTERACTION

SUBROUTINE_0492:
 36: 0x0492 [0x66] LOAD_EXT_SCHEDULER_MAIN: Load scheduler "tlk0" with entities [Boisterous Jackal (ID: 17780963/0x010F50E3), Boisterous Jackal (ID: 17780963/0x010F50E3)], work=69*
 37: 0x04A1 [0x2B] Boisterous Jackal (ID: 17780963/0x010F50E3) [10514*]:
    → "You've been granted access privileges, so I'm sure you already know this, but there are other Strange Apparatuses that haven't been activated yet."
 38: 0x04A8 [0x23] WAIT_FOR_DIALOG_INTERACTION
 39: 0x04A9 [0x03] Work_Zone[3] = 204*
 40: 0x04AE [0x2B] Boisterous Jackal (ID: 17780963/0x010F50E3) [10515*]:
    → "Apparently, the device in $8 just became operational recently."
 41: 0x04B5 [0x23] WAIT_FOR_DIALOG_INTERACTION
 42: 0x04B6 [0x2B] Boisterous Jackal (ID: 17780963/0x010F50E3) [10516*]:
    → "Upon hearing the rumors, I went to check it out for myself..."
 43: 0x04BD [0x23] WAIT_FOR_DIALOG_INTERACTION
 44: 0x04BE [0x2B] Boisterous Jackal (ID: 17780963/0x010F50E3) [10517*]:
    → "However, it asked me for a new password."
 45: 0x04C5 [0x23] WAIT_FOR_DIALOG_INTERACTION
 46: 0x04C6 [0x2B] Boisterous Jackal (ID: 17780963/0x010F50E3) [10518*]:
    → "I suppose it's requiring us to register for access privileges granted to those a rank above doctor status..."
 47: 0x04CD [0x23] WAIT_FOR_DIALOG_INTERACTION
 48: 0x04CE [0x2B] Boisterous Jackal (ID: 17780963/0x010F50E3) [10519*]:
    → "I'm assuming that the values for the name are the same, and only the elemental value has changed, but I still haven't figured it out yet."
 49: 0x04D5 [0x23] WAIT_FOR_DIALOG_INTERACTION
 50: 0x04D6 [0x2B] Boisterous Jackal (ID: 17780963/0x010F50E3) [10520*]:
    → "If you manage to figure it out before I do, maybe you could give me a hint on how to crack the password."
 51: 0x04DD [0x23] WAIT_FOR_DIALOG_INTERACTION
 52: 0x04DE [0x02] IF !(ExtData[1]->WorkLocal[1] == 4*) GOTO 0x04EC
 53: 0x04E6 [0x42] SET_CLI_EVENT_CANCEL_DATA()
 54: 0x04E7 [0x03] Work_Zone[1] = 1*
 55: 0x04EC [0x2B] Boisterous Jackal (ID: 17780963/0x010F50E3) [10521*]:
    → "I'm sure it'll be fairly difficult, but I'd appreciate the help."
 56: 0x04F3 [0x23] WAIT_FOR_DIALOG_INTERACTION
 57: 0x04F4 [0x66] LOAD_EXT_SCHEDULER_MAIN: Load scheduler "tlk1" with entities [Boisterous Jackal (ID: 17780963/0x010F50E3), Boisterous Jackal (ID: 17780963/0x010F50E3)], work=69*
 58: 0x0503 [0x1C] WAIT(60* ticks)
 59: 0x0506 [0x01] GOTO 0x051C
 60: 0x0509 [0x02] IF !(Work_Zone[0] == 1*) GOTO 0x051C
 61: 0x0511 [0x2B] Boisterous Jackal (ID: 17780963/0x010F50E3) [10512*]:
    → "I see... In that case, farewell."
 62: 0x0518 [0x23] WAIT_FOR_DIALOG_INTERACTION
 63: 0x0519 [0x01] GOTO 0x051C

SUBROUTINE_051C:
 64: 0x051C [0x21] END_EVENT
 65: 0x051D [0x00] END_REQSTACK()
```

### Event 10129

#### Metadata

| Field        | Value     |
|--------------|-----------|
| Entrypoint   | 0x051E    |
| Data Size    | 878 bytes |
| Instructions | 68        |

```
      00 01 02 03 04 05 06 07  08 09 0A 0B 0C 0D 0E 0F
      -- -- -- -- -- -- -- --  -- -- -- -- -- -- -- --
0510:                                            03 01                ..
0520: 10 00 80 03 00 00 02 10  4A F0 FF FF 7F E3 50 0F  ........J.....P.
0530: 01 4A E3 50 0F 01 F0 FF  FF 7F 6F 76 E3 50 0F 01  .J.P......ov.P..
0540: 41 01 80 02 80 00 00 01  00 02 01 00 0F 80 00 0C  A...............
0550: 06 1C 3F 80 6E E3 50 0F  01 1A 80 99 E3 50 0F 01  ..?.n.P......P..
0560: 2B E3 50 0F 01 40 80 1C  1D 80 23 6E F0 FF FF 7F  +.P..@....#n....
0570: 24 80 99 F0 FF FF 7F 1C  0A 80 66 11 80 E3 50 0F  $.........f...P.
0580: 01 E3 50 0F 01 74 6C 6B  30 2B E3 50 0F 01 41 80  ..P..tlk0+.P..A.
0590: 23 2B E3 50 0F 01 42 80  1C 0A 80 23 66 11 80 E3  #+.P..B....#f...
05A0: 50 0F 01 E3 50 0F 01 74  6C 6B 31 1C 06 80 6E E3  P...P..tlk1...n.
05B0: 50 0F 01 04 80 99 E3 50  0F 01 2B E3 50 0F 01 43  P......P..+.P..C
05C0: 80 1C 1D 80 23 66 11 80  E3 50 0F 01 E3 50 0F 01  ....#f...P...P..
05D0: 74 6C 6B 30 2B E3 50 0F  01 44 80 23 2B E3 50 0F  tlk0+.P..D.#+.P.
05E0: 01 45 80 23 2B E3 50 0F  01 46 80 23 2B E3 50 0F  .E.#+.P..F.#+.P.
05F0: 01 47 80 1C 0A 80 23 66  11 80 E3 50 0F 01 E3 50  .G....#f...P...P
0600: 0F 01 74 6C 6B 31 1C 06  80 01 59 06 03 03 10 36  ..tlk1....Y....6
0610: 80 2B E3 50 0F 01 48 80  23 6E F0 FF FF 7F 24 80  .+.P..H.#n....$.
0620: 99 F0 FF FF 7F 1C 0A 80  66 11 80 E3 50 0F 01 E3  ........f...P...
0630: 50 0F 01 74 6C 6B 30 2B  E3 50 0F 01 49 80 23 2B  P..tlk0+.P..I.#+
0640: E3 50 0F 01 4A 80 23 66  11 80 E3 50 0F 01 E3 50  .P..J.#f...P...P
0650: 0F 01 74 6C 6B 31 1C 06  80 7B E3 50 0F 01 4B E3  ..tlk1...{.P..K.
0660: 50 0F 01 4B 80 6F 76 E3  50 0F 01 1C 3F 80 6E E3  P..K.ov.P...?.n.
0670: 50 0F 01 4C 80 99 E3 50  0F 01 2B E3 50 0F 01 4D  P..L...P..+.P..M
0680: 80 1C 4E 80 23 21 00 66  11 80 E3 50 0F 01 E3 50  ..N.#!.f...P...P
0690: 0F 01 74 6C 6B 30 2B E3  50 0F 01 4F 80 23 2B E3  ..tlk0+.P..O.#+.
06A0: 50 0F 01 50 80 23 2B E3  50 0F 01 51 80 23 2B E3  P..P.#+.P..Q.#+.
06B0: 50 0F 01 52 80 23 2B E3  50 0F 01 53 80 23 2B E3  P..R.#+.P..S.#+.
06C0: 50 0F 01 54 80 23 2B E3  50 0F 01 55 80 23 2B E3  P..T.#+.P..U.#+.
06D0: 50 0F 01 56 80 23 2B E3  50 0F 01 57 80 23 83 06  P..V.#+.P..W.#..
06E0: 00 AA 06 00 06 00 06 00  06 00 05 00 06 00 06 00  ................
06F0: 06 00 9D 0A 7C 08 03 10  05 00 58 80 2B E3 50 0F  ....|.....X.+.P.
0700: 01 59 80 23 7B E3 50 0F  01 66 11 80 E3 50 0F 01  .Y.#{.P..f...P..
0710: E3 50 0F 01 74 68 6B 31  03 08 10 05 00 2B E3 50  .P..thk1.....+.P
0720: 0F 01 5A 80 1C 1D 80 23  79 00 E3 50 0F 01 F0 FF  ..Z....#y..P....
0730: FF 7F 66 11 80 E3 50 0F  01 E3 50 0F 01 74 6C 6B  ..f...P...P..tlk
0740: 30 03 01 10 5B 80 43 00  43 01 03 05 10 05 00 2B  0...[.C.C......+
0750: E3 50 0F 01 5C 80 23 03  01 10 05 00 43 00 43 01  .P..\.#.....C.C.
0760: 2B E3 50 0F 01 5D 80 23  02 06 10 5E 80 03 7B 07  +.P..].#...^..{.
0770: 2B E3 50 0F 01 5F 80 23  01 83 07 2B E3 50 0F 01  +.P.._.#...+.P..
0780: 60 80 23 2B E3 50 0F 01  61 80 23 1B 2B E3 50 0F  `.#+.P..a.#.+.P.
0790: 01 62 80 23 9D 0A 7C 08  02 10 00 80 58 80 9D 0A  .b.#..|.....X...
07A0: 7C 08 03 10 03 80 58 80  9D 0A 7C 08 04 10 19 80  |.....X...|.....
07B0: 58 80 9D 0A 7C 08 05 10  01 80 58 80 9D 0A 7C 08  X...|.....X...|.
07C0: 06 10 0F 80 58 80 9D 0A  7C 08 07 10 02 80 58 80  ....X...|.....X.
07D0: 9D 0A 7C 08 08 10 04 80  58 80 9D 0A 7C 08 09 10  ..|.....X...|...
07E0: 24 80 58 80 24 63 80 00  80 00 80 25 02 00 10 58  $.X.$c.....%...X
07F0: 80 00 08 08 02 01 00 19  80 00 FD 07 42 2B E3 50  ............B+.P
0800: 0F 01 64 80 23 01 4B 08  02 01 00 19 80 00 11 08  ..d.#.K.........
0810: 42 2B E3 50 0F 01 65 80  23 03 01 10 00 10 43 00  B+.P..e.#.....C.
0820: 43 01 9D 0A 7C 08 08 10  00 10 58 80 6E E3 50 0F  C...|.....X.n.P.
0830: 01 4C 80 99 E3 50 0F 01  1C 4E 80 2B E3 50 0F 01  .L...P...N.+.P..
0840: 66 80 23 2B E3 50 0F 01  67 80 23 1B 68 80 69 80  f.#+.P..g.#.h.i.
0850: 6A 80 6B 80 6C 80 6D 80  00 80 00 80 6E 80 6F 80  j.k.l.m.....n.o.
0860: 70 80 71 80 72 80 73 80  00 80 00 80 74 80 75 80  p.q.r.s.....t.u.
0870: 76 80 77 80 78 80 79 80  00 80 00 80 74 80 75 80  v.w.x.y.....t.u.
0880: 76 80 7A 80 77 80 78 80  79 80 7B 80              v.z.w.x.y.{.    
```

#### Opcodes

```
  0: 0x051E [0x03] Work_Zone[1] = 0*
  1: 0x0523 [0x03] ExtData[1]->WorkLocal[0] = Work_Zone[2]
  2: 0x0528 [0x4A] LocalPlayer looks at Boisterous Jackal (ID: 17780963/0x010F50E3)
  3: 0x0531 [0x4A] Boisterous Jackal (ID: 17780963/0x010F50E3) looks at LocalPlayer
  4: 0x053A [0x6F] WAIT_FRAME_DELAY: Yield until WaitTime reaches zero
  5: 0x053B [0x76] CHECK_ENTITY_RENDER_FLAGS: Wait until Boisterous Jackal (ID: 17780963/0x010F50E3) Render.Flags0 and Render.Flags3 conditions are met
  6: 0x0540 [0x41] ExtData[1]->WorkLocal[1] = ExtData[1]->WorkLocal[0] (bits 3*-5*)
  7: 0x0549 [0x02] IF !(ExtData[1]->WorkLocal[1] == 4*) GOTO 0x060C
  8: 0x0551 [0x1C] WAIT(30* ticks)
  9: 0x0554 [0x6E] Boisterous Jackal (ID: 17780963/0x010F50E3) uses emote 21*
 10: 0x055B [0x99] Wait for Boisterous Jackal (ID: 17780963/0x010F50E3) animation to complete
 11: 0x0560 [0x2B] Boisterous Jackal (ID: 17780963/0x010F50E3) [10522*]:
    → "Huh? Did you manage to figure out the new password!?"
 12: 0x0567 [0x1C] WAIT(120* ticks)
 13: 0x056A [0x23] WAIT_FOR_DIALOG_INTERACTION
 14: 0x056B [0x6E] LocalPlayer uses emote 7*
 15: 0x0572 [0x99] Wait for LocalPlayer animation to complete
 16: 0x0577 [0x1C] WAIT(90* ticks)
 17: 0x057A [0x66] LOAD_EXT_SCHEDULER_MAIN: Load scheduler "tlk0" with entities [Boisterous Jackal (ID: 17780963/0x010F50E3), Boisterous Jackal (ID: 17780963/0x010F50E3)], work=69*
 18: 0x0589 [0x2B] Boisterous Jackal (ID: 17780963/0x010F50E3) [10523*]:
    → "I see... It looks like you beat me to it."
 19: 0x0590 [0x23] WAIT_FOR_DIALOG_INTERACTION
 20: 0x0591 [0x2B] Boisterous Jackal (ID: 17780963/0x010F50E3) [10524*]:
    → "So, enough with the suspense... What's the secret?"
 21: 0x0598 [0x1C] WAIT(90* ticks)
 22: 0x059B [0x23] WAIT_FOR_DIALOG_INTERACTION
 23: 0x059C [0x66] LOAD_EXT_SCHEDULER_MAIN: Load scheduler "tlk1" with entities [Boisterous Jackal (ID: 17780963/0x010F50E3), Boisterous Jackal (ID: 17780963/0x010F50E3)], work=69*
 24: 0x05AB [0x1C] WAIT(60* ticks)
 25: 0x05AE [0x6E] Boisterous Jackal (ID: 17780963/0x010F50E3) uses emote 6*
 26: 0x05B5 [0x99] Wait for Boisterous Jackal (ID: 17780963/0x010F50E3) animation to complete
 27: 0x05BA [0x2B] Boisterous Jackal (ID: 17780963/0x010F50E3) [10525*]:
    → "Wait. Don't tell me. I don't want to know."
 28: 0x05C1 [0x1C] WAIT(120* ticks)
 29: 0x05C4 [0x23] WAIT_FOR_DIALOG_INTERACTION
 30: 0x05C5 [0x66] LOAD_EXT_SCHEDULER_MAIN: Load scheduler "tlk0" with entities [Boisterous Jackal (ID: 17780963/0x010F50E3), Boisterous Jackal (ID: 17780963/0x010F50E3)], work=69*
 31: 0x05D4 [0x2B] Boisterous Jackal (ID: 17780963/0x010F50E3) [10526*]:
    → "I remember how I felt when I cracked the secret for the doctor-level password."
 32: 0x05DB [0x23] WAIT_FOR_DIALOG_INTERACTION
 33: 0x05DC [0x2B] Boisterous Jackal (ID: 17780963/0x010F50E3) [10527*]:
    → "It was tough, but the sheer joy I felt after it was over was worth it in the end."
 34: 0x05E3 [0x23] WAIT_FOR_DIALOG_INTERACTION
 35: 0x05E4 [0x2B] Boisterous Jackal (ID: 17780963/0x010F50E3) [10528*]:
    → "I would hate to have that sense of accomplishment taken away from me."
 36: 0x05EB [0x23] WAIT_FOR_DIALOG_INTERACTION
 37: 0x05EC [0x2B] Boisterous Jackal (ID: 17780963/0x010F50E3) [10529*]:
    → "If you could figure it out, I know I can too. Just you wait."
 38: 0x05F3 [0x1C] WAIT(90* ticks)
 39: 0x05F6 [0x23] WAIT_FOR_DIALOG_INTERACTION
 40: 0x05F7 [0x66] LOAD_EXT_SCHEDULER_MAIN: Load scheduler "tlk1" with entities [Boisterous Jackal (ID: 17780963/0x010F50E3), Boisterous Jackal (ID: 17780963/0x010F50E3)], work=69*
 41: 0x0606 [0x1C] WAIT(60* ticks)
 42: 0x0609 [0x01] GOTO 0x0659
 43: 0x060C [0x03] Work_Zone[3] = 204*
 44: 0x0611 [0x2B] Boisterous Jackal (ID: 17780963/0x010F50E3) [10531*]:
    → "Hey, have you heard the rumors that the device in $8 is operational?"
 45: 0x0618 [0x23] WAIT_FOR_DIALOG_INTERACTION
 46: 0x0619 [0x6E] LocalPlayer uses emote 7*
 47: 0x0620 [0x99] Wait for LocalPlayer animation to complete
 48: 0x0625 [0x1C] WAIT(90* ticks)
 49: 0x0628 [0x66] LOAD_EXT_SCHEDULER_MAIN: Load scheduler "tlk0" with entities [Boisterous Jackal (ID: 17780963/0x010F50E3), Boisterous Jackal (ID: 17780963/0x010F50E3)], work=69*
 50: 0x0637 [0x2B] Boisterous Jackal (ID: 17780963/0x010F50E3) [10532*]:
    → "I see. I was trying to figure out the secret behind its password."
 51: 0x063E [0x23] WAIT_FOR_DIALOG_INTERACTION
 52: 0x063F [0x2B] Boisterous Jackal (ID: 17780963/0x010F50E3) [10533*]:
    → "Sorry, I'm too busy to talk right now. Maybe come back later when I've figured it out."
 53: 0x0646 [0x23] WAIT_FOR_DIALOG_INTERACTION
 54: 0x0647 [0x66] LOAD_EXT_SCHEDULER_MAIN: Load scheduler "tlk1" with entities [Boisterous Jackal (ID: 17780963/0x010F50E3), Boisterous Jackal (ID: 17780963/0x010F50E3)], work=69*
 55: 0x0656 [0x1C] WAIT(60* ticks)

SUBROUTINE_0659:
 56: 0x0659 [0x7B] Boisterous Jackal (ID: 17780963/0x010F50E3) stops talking
 57: 0x065E [0x4B] UPDATE_ENTITY_YAW(entity=Boisterous Jackal (ID: 17780963/0x010F50E3), yaw=2.1°*)
 58: 0x0665 [0x6F] WAIT_FRAME_DELAY: Yield until WaitTime reaches zero
 59: 0x0666 [0x76] CHECK_ENTITY_RENDER_FLAGS: Wait until Boisterous Jackal (ID: 17780963/0x010F50E3) Render.Flags0 and Render.Flags3 conditions are met
 60: 0x066B [0x1C] WAIT(30* ticks)
 61: 0x066E [0x6E] Boisterous Jackal (ID: 17780963/0x010F50E3) uses emote 32*
 62: 0x0675 [0x99] Wait for Boisterous Jackal (ID: 17780963/0x010F50E3) animation to complete
 63: 0x067A [0x2B] Boisterous Jackal (ID: 17780963/0x010F50E3) [10530*]:
    → "Instead of the elemental value, I could take this... And then if I add that to the total..."
 64: 0x0681 [0x1C] WAIT(180* ticks)
 65: 0x0684 [0x23] WAIT_FOR_DIALOG_INTERACTION
 66: 0x0685 [0x21] END_EVENT
 67: 0x0686 [0x00] END_REQSTACK()
```

#### Data or dead code:

```
# Dead code (unreachable instructions):
     0x0687 [0x66] LOAD_EXT_SCHEDULER_MAIN: Load scheduler "tlk0" with entities [Boisterous Jackal (ID: 17780963/0x010F50E3), Boisterous Jackal (ID: 17780963/0x010F50E3)], work=69*
     0x0696 [0x2B] Boisterous Jackal (ID: 17780963/0x010F50E3) [10476*]:
    → "Okay, now listen carefully. The password consists of eight numbers in total, and you need to split it up into four sections of two digits each."
     0x069D [0x23] WAIT_FOR_DIALOG_INTERACTION
     0x069E [0x2B] Boisterous Jackal (ID: 17780963/0x010F50E3) [10477*]:
    → "First, you need to take the first three letters of your name and use them to generate a series of two-digit numbers based on their position in the alphabet."
     0x06A5 [0x23] WAIT_FOR_DIALOG_INTERACTION
     0x06A6 [0x2B] Boisterous Jackal (ID: 17780963/0x010F50E3) [10478*]:
    → "The letter A starts at "00," B is "01," and so on, until you reach Z at "25.""
     0x06AD [0x23] WAIT_FOR_DIALOG_INTERACTION
     0x06AE [0x2B] Boisterous Jackal (ID: 17780963/0x010F50E3) [10479*]:
    → "Furthermore, the area containing each device has been assigned an elemental, with each elemental given a numerical code."
     0x06B5 [0x23] WAIT_FOR_DIALOG_INTERACTION
     0x06B6 [0x2B] Boisterous Jackal (ID: 17780963/0x010F50E3) [10480*]:
    → "If the elemental is Fire, the number is "0,", while Earth is "1," until you reach Dark at "7.""
     0x06BD [0x23] WAIT_FOR_DIALOG_INTERACTION
     0x06BE [0x2B] Boisterous Jackal (ID: 17780963/0x010F50E3) [10481*]:
    → "Next, you need to take the value for the elemental and add it to each of your first three numbers. That will give you the first three values."
     0x06C5 [0x23] WAIT_FOR_DIALOG_INTERACTION
     0x06C6 [0x2B] Boisterous Jackal (ID: 17780963/0x010F50E3) [10482*]:
    → "For the fourth value, you need to add your first three values together and then add the elemental value as well."
     0x06CD [0x23] WAIT_FOR_DIALOG_INTERACTION
     0x06CE [0x2B] Boisterous Jackal (ID: 17780963/0x010F50E3) [10483*]:
    → "If the number exceeds 100, simply take the last two digits."
     0x06D5 [0x23] WAIT_FOR_DIALOG_INTERACTION
     0x06D6 [0x2B] Boisterous Jackal (ID: 17780963/0x010F50E3) [10484*]:
    → "Therefore, these four sets of numbers you calculated will become your eight-digit password."
     0x06DD [0x23] WAIT_FOR_DIALOG_INTERACTION
     0x06DE [0x83] ExtData[1]->WorkLocal[6] = GetGameTime()
     0x06E1 [0xAA] VANA_DIEL_TIMESTAMP_CONVERTER(timestamp=ExtData[1]->WorkLocal[6], year=ExtData[1]->WorkLocal[6], month=ExtData[1]->WorkLocal[6], day=ExtData[1]->WorkLocal[6], weekday=ExtData[1]->WorkLocal[5], hour=ExtData[1]->WorkLocal[6], minute=ExtData[1]->WorkLocal[6], moon=ExtData[1]->WorkLocal[6])
     0x06F2 [0x9D] IF (0x087C) ExtData[1]->WorkLocal[5] = Work_Zone[3] // extra=0x8058
     0x06FC [0x2B] Boisterous Jackal (ID: 17780963/0x010F50E3) [10485*]:
    → "I suppose it's still a bit difficult to comprehend. How about an example, then? Say you're trying to register the password in $8..."
     0x0703 [0x23] WAIT_FOR_DIALOG_INTERACTION
     0x0704 [0x7B] Boisterous Jackal (ID: 17780963/0x010F50E3) stops talking
     0x0709 [0x66] LOAD_EXT_SCHEDULER_MAIN: Load scheduler "thk1" with entities [Boisterous Jackal (ID: 17780963/0x010F50E3), Boisterous Jackal (ID: 17780963/0x010F50E3)], work=69*
     0x0718 [0x03] Work_Zone[8] = ExtData[1]->WorkLocal[5]
     0x071D [0x2B] Boisterous Jackal (ID: 17780963/0x010F50E3) [10486*]:
    → "The first three letters of your name are %0, and the elemental for the device is [Fire/Earth/Water/Wind/Ice/Lightning/Light/Dark]..."
     0x0724 [0x1C] WAIT(120* ticks)
     0x0727 [0x23] WAIT_FOR_DIALOG_INTERACTION
     0x0728 [0x79] Boisterous Jackal (ID: 17780963/0x010F50E3) looks at LocalPlayer (Basic look)
     0x0732 [0x66] LOAD_EXT_SCHEDULER_MAIN: Load scheduler "tlk0" with entities [Boisterous Jackal (ID: 17780963/0x010F50E3), Boisterous Jackal (ID: 17780963/0x010F50E3)], work=69*
     0x0741 [0x03] Work_Zone[1] = 10*
     0x0746 [0x43] SEND_EVENT_UPDATE: Send pending tag to server (packet 0x005B)
     0x0748 [0x43] SEND_EVENT_UPDATE: Check pending flag (skip if not pending)
     0x074A [0x03] Work_Zone[5] = ExtData[1]->WorkLocal[5]
     0x074F [0x2B] Boisterous Jackal (ID: 17780963/0x010F50E3) [10487*]:
    → "Therefore, the numerical values for your name are , , and , and the elemental value is $3."
     0x0756 [0x23] WAIT_FOR_DIALOG_INTERACTION
     0x0757 [0x03] Work_Zone[1] = ExtData[1]->WorkLocal[5]
     0x075C [0x43] SEND_EVENT_UPDATE: Send pending tag to server (packet 0x005B)
     0x075E [0x43] SEND_EVENT_UPDATE: Check pending flag (skip if not pending)
     0x0760 [0x2B] Boisterous Jackal (ID: 17780963/0x010F50E3) [10488*]:
    → "That means the first three values are , , and ."
     0x0767 [0x23] WAIT_FOR_DIALOG_INTERACTION
     0x0768 [0x02] IF !(Work_Zone[6] >= 100*) GOTO 0x077B
     0x0770 [0x2B] Boisterous Jackal (ID: 17780963/0x010F50E3) [10489*]:
    → "The fourth value is created by adding the values for your name to that of the elemental for the area, which gives you ."
     0x0777 [0x23] WAIT_FOR_DIALOG_INTERACTION
     0x0778 [0x01] GOTO 0x0783
     0x077B [0x2B] Boisterous Jackal (ID: 17780963/0x010F50E3) [10490*]:
    → "The fourth value is created by adding the values for your name to that of the elemental for the area, which gives you . However, since it exceeds 100, the value becomes ."
     0x0782 [0x23] WAIT_FOR_DIALOG_INTERACTION
     0x0783 [0x2B] Boisterous Jackal (ID: 17780963/0x010F50E3) [10491*]:
    → "Putting all of these values together gives you , which is your password to register your access privileges with the device."
     0x078A [0x23] WAIT_FOR_DIALOG_INTERACTION
     0x078B [0x1B] RETURN
     0x078C [0x2B] Boisterous Jackal (ID: 17780963/0x010F50E3) [10497*]:
    → "Tell me. Which area are you planning to register in?"
     0x0793 [0x23] WAIT_FOR_DIALOG_INTERACTION
     0x0794 [0x9D] IF (0x087C) 0* = Work_Zone[2] // extra=0x8058
     0x079E [0x9D] IF (0x087C) 1* = Work_Zone[3] // extra=0x8058
     0x07A8 [0x9D] IF (0x087C) 2* = Work_Zone[4] // extra=0x8058
     0x07B2 [0x9D] IF (0x087C) 3* = Work_Zone[5] // extra=0x8058
     0x07BC [0x9D] IF (0x087C) 4* = Work_Zone[6] // extra=0x8058
     0x07C6 [0x9D] IF (0x087C) 5* = Work_Zone[7] // extra=0x8058
     0x07D0 [0x9D] IF (0x087C) 6* = Work_Zone[8] // extra=0x8058
     0x07DA [0x9D] IF (0x087C) 7* = Work_Zone[9] // extra=0x8058
     0x07E4 [0x24] CREATE_DIALOG(message_id=10498*, default_option=0*, option_flags=0*)
    → "Where are you planning to register? [$8./$8./$8./$8./$8./$8./$8./$8./Never mind.]"
     0x07EB [0x25] WAIT_DIALOG_SELECT()
     0x07EC [0x02] IF !(Work_Zone[0] == 8*) GOTO 0x0808
     0x07F4 [0x02] IF !(ExtData[1]->WorkLocal[1] == 2*) GOTO 0x07FD
     0x07FC [0x42] SET_CLI_EVENT_CANCEL_DATA()
     0x07FD [0x2B] Boisterous Jackal (ID: 17780963/0x010F50E3) [10502*]:
    → "Very well. Come see me again when you decide on a location."
     0x0804 [0x23] WAIT_FOR_DIALOG_INTERACTION
     0x0805 [0x01] GOTO 0x084B
     0x0808 [0x02] IF !(ExtData[1]->WorkLocal[1] == 2*) GOTO 0x0811
     0x0810 [0x42] SET_CLI_EVENT_CANCEL_DATA()
     0x0811 [0x2B] Boisterous Jackal (ID: 17780963/0x010F50E3) [10499*]:
    → "Give me a moment while I make the necessary calculations."
     0x0818 [0x23] WAIT_FOR_DIALOG_INTERACTION
     0x0819 [0x03] Work_Zone[1] = Work_Zone[0]
     0x081E [0x43] SEND_EVENT_UPDATE: Send pending tag to server (packet 0x005B)
     0x0820 [0x43] SEND_EVENT_UPDATE: Check pending flag (skip if not pending)
     0x0822 [0x9D] IF (0x087C) Work_Zone[0] = Work_Zone[8] // extra=0x8058
     0x082C [0x6E] Boisterous Jackal (ID: 17780963/0x010F50E3) uses emote 32*
     0x0833 [0x99] Wait for Boisterous Jackal (ID: 17780963/0x010F50E3) animation to complete
     0x0838 [0x1C] WAIT(180* ticks)
     0x083B [0x2B] Boisterous Jackal (ID: 17780963/0x010F50E3) [10500*]:
    → "Okay, I've got it. Your password for registering your access privileges with the device in $8 is ."
     0x0842 [0x23] WAIT_FOR_DIALOG_INTERACTION
     0x0843 [0x2B] Boisterous Jackal (ID: 17780963/0x010F50E3) [10501*]:
    → "Now hurry up and get over there before you forget it."
     0x084A [0x23] WAIT_FOR_DIALOG_INTERACTION
     0x084B [0x1B] RETURN
     0x084C [0x68] SHOW_HUD_ELEMENTS()
     0x084D [0x80] LOAD_WAIT(entity=Unknown NPC (ID: 2154463337/0x806A8069))
     0x0852 [0x6B] STOP_AND_IDLE: Unknown NPC (ID: 8388736/0x00800080) stops current action and resets to idle (animation="lm")
     0x085B [0x80] LOAD_WAIT(entity=Unknown NPC (ID: 2154791022/0x806F806E))
     0x0860 [0x70] WAIT_ENTITY_RENDER_FLAG: Wait while EventEntity->Render.Flags3 bit 2 is set (cancel turn if not)
     0x0861 [0x80] LOAD_WAIT(entity=Unknown NPC (ID: 2154987633/0x80728071))
     0x0866 [0x73] Unknown NPC (ID: 1954545792/0x74800080) casts magic 0x80 on Unknown NPC (ID: 1988130176/0x76807580)
     0x0871 [0x80] LOAD_WAIT(entity=Unknown NPC (ID: 2155380855/0x80788077))
     0x0876 [0x79] Unknown NPC (ID: 2147516416/0x80008000) looks at Unknown NPC (ID: 2155184244/0x80758074) (Unknown mode 128)
     0x0880 [0x76] CHECK_ENTITY_RENDER_FLAGS: Wait until Unknown NPC (ID: 2004908672/0x77807A80) Render.Flags0 and Render.Flags3 conditions are met
     0x0885 [0x80] LOAD_WAIT(entity=Unknown NPC (ID: 2155446392/0x80798078))
```
