# 17780759 - Two of Swords

## Common Data

| Field            | Value                 |
|------------------|-----------------------|
| Zone             | Lower Jeuno (ID: 245) |
| Block Size       | 720 bytes             |
| Total Events     | 24                    |
| References Count | 50                    |

## List of Events

| Event ID                   | Entrypoint   |   Size |   Instructions |
|----------------------------|--------------|--------|----------------|
| [65535](#event-65535)      | 0x0000       |      6 |              3 |
| [34](#event-34)            | 0x0006       |     10 |              2 |
| [33](#event-33)            | 0x0010       |     10 |              2 |
| [35](#event-35)            | 0x001A       |     10 |              2 |
| [65535.1](#event-655351)   | 0x0024       |     30 |              6 |
| [65535.2](#event-655352)   | 0x0042       |     47 |              5 |
| [65535.3](#event-655353)   | 0x0071       |     16 |              2 |
| [65535.4](#event-655354)   | 0x0081       |      6 |              2 |
| [65535.5](#event-655355)   | 0x0087       |     19 |              3 |
| [65535.6](#event-655356)   | 0x009A       |     29 |              3 |
| [65535.7](#event-655357)   | 0x00B7       |     13 |              4 |
| [65535.8](#event-655358)   | 0x00C4       |     54 |             10 |
| [65535.9](#event-655359)   | 0x00FA       |     23 |              6 |
| [65535.10](#event-6553510) | 0x0111       |     11 |              3 |
| [65535.11](#event-6553511) | 0x011C       |     11 |              3 |
| [65535.12](#event-6553512) | 0x0127       |     10 |              2 |
| [65535.13](#event-6553513) | 0x0131       |     10 |              2 |
| [65535.14](#event-6553514) | 0x013B       |     11 |              3 |
| [65535.15](#event-6553515) | 0x0146       |     43 |             10 |
| [65535.16](#event-6553516) | 0x0171       |     13 |              3 |
| [65535.17](#event-6553517) | 0x017E       |     13 |              3 |
| [65535.18](#event-6553518) | 0x018B       |      8 |              4 |
| [65535.19](#event-6553519) | 0x0193       |      1 |              1 |
| [65535.20](#event-6553520) | 0x0194       |      4 |              2 |

## DAT References (imed_data)

|   Index | Hex Value   |   Dec Value |
|---------|-------------|-------------|
|       0 | 0x000D      |          13 |
|       1 | 0xFFFEEE15  |  4294897173 |
|       2 | 0xFFFE0544  |  4294837572 |
|       3 | 0x0000      |           0 |
|       4 | 0x0121      |         289 |
|       5 | 0xFFFF1281  |  4294906497 |
|       6 | 0xFFFDEA2C  |  4294830636 |
|       7 | 0xFFFFFF9C  |  4294967196 |
|       8 | 0x0136      |         310 |
|       9 | 0xFFFEF33B  |  4294898491 |
|      10 | 0xFFFE02AA  |  4294836906 |
|      11 | 0xFFFFFF9B  |  4294967195 |
|      12 | 0x019A      |         410 |
|      13 | 0xFFFF1BE9  |  4294908905 |
|      14 | 0xFFFDEB56  |  4294830934 |
|      15 | 0xFFFFFF93  |  4294967187 |
|      16 | 0xFFFF2708  |  4294911752 |
|      17 | 0xFFFDE201  |  4294828545 |
|      18 | 0x00B5      |         181 |
|      19 | 0x003C      |          60 |
|      20 | 0x00B4      |         180 |
|      21 | 0xFFFEF442  |  4294898754 |
|      22 | 0xFFFE01D0  |  4294836688 |
|      23 | 0xFFFF17FE  |  4294907902 |
|      24 | 0xFFFDE4A8  |  4294829224 |
|      25 | 0xFFFF137D  |  4294906749 |
|      26 | 0xFFFDDEB3  |  4294827699 |
|      27 | 0xFFFEF579  |  4294899065 |
|      28 | 0xFFFE00EC  |  4294836460 |
|      29 | 0xFFFEF9DA  |  4294900186 |
|      30 | 0xFFFDFF28  |  4294836008 |
|      31 | 0xFFFFFF9D  |  4294967197 |
|      32 | 0xFFFF0545  |  4294903109 |
|      33 | 0xFFFDF75D  |  4294834013 |
|      34 | 0xFFFEEB7C  |  4294896508 |
|      35 | 0xFFFDEC10  |  4294831120 |
|      36 | 0xFFFFFED6  |  4294966998 |
|      37 | 0x0127      |         295 |
|      38 | 0xFFFF1CD4  |  4294909140 |
|      39 | 0xFFFDE9B5  |  4294830517 |
|      40 | 0x0369      |         873 |
|      41 | 0xFFFF1D8C  |  4294909324 |
|      42 | 0xFFFDE7C8  |  4294830024 |
|      43 | 0xFFFEFB90  |  4294900624 |
|      44 | 0xFFFDFE80  |  4294835840 |
|      45 | 0xFFFEEEE5  |  4294897381 |
|      46 | 0xFFFE0545  |  4294837573 |
|      47 | 0xFFFFFFEF  |  4294967279 |
|      48 | 0x005A      |          90 |
|      49 | 0x011B      |         283 |

## Events

### Event 65535

#### Metadata

| Field        | Value   |
|--------------|---------|
| Entrypoint   | 0x0000  |
| Data Size    | 6 bytes |
| Instructions | 3       |

```
      00 01 02 03 04 05 06 07  08 09 0A 0B 0C 0D 0E 0F
      -- -- -- -- -- -- -- --  -- -- -- -- -- -- -- --
0000: 32 00 80 22 01 00                                 2.."..          
```

#### Opcodes

```
  0: 0x0000 [0x32] ExtData[1]->MainSpeed = 13* * 0.1
  1: 0x0003 [0x22] ENTITY_HIDE_FLAG(enabled=0x01)
  2: 0x0005 [0x00] END_REQSTACK()
```

### Event 34

#### Metadata

| Field        | Value    |
|--------------|----------|
| Entrypoint   | 0x0006   |
| Data Size    | 10 bytes |
| Instructions | 2        |

```
      00 01 02 03 04 05 06 07  08 09 0A 0B 0C 0D 0E 0F
      -- -- -- -- -- -- -- --  -- -- -- -- -- -- -- --
0000:                   37 01  80 02 80 03 80 04 80 00        7.........
```

#### Opcodes

```
  0: 0x0006 [0x37] UPDATE_EVENT_POSITION_AND_DIR: x=-70.123*, z=-129.724*, y=0.000*, direction=25.4°*
  1: 0x000F [0x00] END_REQSTACK()
```

### Event 33

#### Metadata

| Field        | Value    |
|--------------|----------|
| Entrypoint   | 0x0010   |
| Data Size    | 10 bytes |
| Instructions | 2        |

```
      00 01 02 03 04 05 06 07  08 09 0A 0B 0C 0D 0E 0F
      -- -- -- -- -- -- -- --  -- -- -- -- -- -- -- --
0010: 37 05 80 06 80 07 80 08  80 00                    7.........      
```

#### Opcodes

```
  0: 0x0010 [0x37] UPDATE_EVENT_POSITION_AND_DIR: x=-60.799*, z=-136.660*, y=-0.100*, direction=27.2°*
  1: 0x0019 [0x00] END_REQSTACK()
```

### Event 35

#### Metadata

| Field        | Value    |
|--------------|----------|
| Entrypoint   | 0x001A   |
| Data Size    | 10 bytes |
| Instructions | 2        |

```
      00 01 02 03 04 05 06 07  08 09 0A 0B 0C 0D 0E 0F
      -- -- -- -- -- -- -- --  -- -- -- -- -- -- -- --
0010:                                37 09 80 0A 80 0B            7.....
0020: 80 0C 80 00                                       ....            
```

#### Opcodes

```
  0: 0x001A [0x37] UPDATE_EVENT_POSITION_AND_DIR: x=-68.805*, z=-130.390*, y=-0.101*, direction=36.0°*
  1: 0x0023 [0x00] END_REQSTACK()
```

### Event 65535.1

#### Metadata

| Field        | Value    |
|--------------|----------|
| Entrypoint   | 0x0024   |
| Data Size    | 30 bytes |
| Instructions | 6        |

```
      00 01 02 03 04 05 06 07  08 09 0A 0B 0C 0D 0E 0F
      -- -- -- -- -- -- -- --  -- -- -- -- -- -- -- --
0020:             1F 00 0D 80  0E 80 0F 80 1F 01 1F 00      ............
0030: 10 80 11 80 0F 80 1F 01  4A 17 50 0F 01 15 50 0F  ........J.P...P.
0040: 01 00                                             ..              
```

#### Opcodes

```
  0: 0x0024 [0x1F] MOVE_ENTITY: EventEntity moves to X=-58.391*, Z=-136.362*, Y=-0.109*
  1: 0x002C [0x1F] MOVE_ENTITY: Update entity position (mode=1)
  2: 0x002E [0x1F] MOVE_ENTITY: EventEntity moves to X=-55.544*, Z=-138.751*, Y=-0.109*
  3: 0x0036 [0x1F] MOVE_ENTITY: Update entity position (mode=1)
  4: 0x0038 [0x4A] Two of Swords (ID: 17780759/0x010F5017) looks at Naruru (ID: 17780757/0x010F5015)
  5: 0x0041 [0x00] END_REQSTACK()
```

### Event 65535.2

#### Metadata

| Field        | Value    |
|--------------|----------|
| Entrypoint   | 0x0042   |
| Data Size    | 47 bytes |
| Instructions | 5        |

```
      00 01 02 03 04 05 06 07  08 09 0A 0B 0C 0D 0E 0F
      -- -- -- -- -- -- -- --  -- -- -- -- -- -- -- --
0040:       5B 12 80 F8 FF FF  7F F8 FF FF 7F 79 6B 73    [..........yks
0050: 30 1C 13 80 5B 12 80 F8  FF FF 7F F8 FF FF 7F 79  0...[..........y
0060: 6B 73 31 53 F8 FF FF 7F  F8 FF FF 7F 79 6B 73 31  ks1S........yks1
0070: 00                                                .               
```

#### Opcodes

```
  0: 0x0042 [0x5B] LOAD_EXT_SCHEDULER: Load scheduler "yks0" with entities [EventEntity, EventEntity], work=181*
  1: 0x0051 [0x1C] WAIT(60* ticks)
  2: 0x0054 [0x5B] LOAD_EXT_SCHEDULER: Load scheduler "yks1" with entities [EventEntity, EventEntity], work=181*
  3: 0x0063 [0x53] WAIT_SCHEDULER_TASK: Wait for scheduler "yks1" with entities [EventEntity, EventEntity]
  4: 0x0070 [0x00] END_REQSTACK()
```

### Event 65535.3

#### Metadata

| Field        | Value    |
|--------------|----------|
| Entrypoint   | 0x0071   |
| Data Size    | 16 bytes |
| Instructions | 2        |

```
      00 01 02 03 04 05 06 07  08 09 0A 0B 0C 0D 0E 0F
      -- -- -- -- -- -- -- --  -- -- -- -- -- -- -- --
0070:    5B 14 80 F8 FF FF 7F  F8 FF FF 7F 73 74 64 30   [..........std0
0080: 00                                                .               
```

#### Opcodes

```
  0: 0x0071 [0x5B] LOAD_EXT_SCHEDULER: Load scheduler "std0" with entities [EventEntity, EventEntity], work=180*
  1: 0x0080 [0x00] END_REQSTACK()
```

### Event 65535.4

#### Metadata

| Field        | Value   |
|--------------|---------|
| Entrypoint   | 0x0081  |
| Data Size    | 6 bytes |
| Instructions | 2       |

```
      00 01 02 03 04 05 06 07  08 09 0A 0B 0C 0D 0E 0F
      -- -- -- -- -- -- -- --  -- -- -- -- -- -- -- --
0080:    5E 69 64 6C 30 00                               ^idl0.         
```

#### Opcodes

```
  0: 0x0081 [0x5E] EventEntity goes idle (kills current action) (animation: "idl0")
  1: 0x0086 [0x00] END_REQSTACK()
```

### Event 65535.5

#### Metadata

| Field        | Value    |
|--------------|----------|
| Entrypoint   | 0x0087   |
| Data Size    | 19 bytes |
| Instructions | 3        |

```
      00 01 02 03 04 05 06 07  08 09 0A 0B 0C 0D 0E 0F
      -- -- -- -- -- -- -- --  -- -- -- -- -- -- -- --
0080:                      5B  14 80 F8 FF FF 7F F8 FF         [........
0090: FF 7F 74 6C 62 30 1C 13  80 00                    ..tlb0....      
```

#### Opcodes

```
  0: 0x0087 [0x5B] LOAD_EXT_SCHEDULER: Load scheduler "tlb0" with entities [EventEntity, EventEntity], work=180*
  1: 0x0096 [0x1C] WAIT(60* ticks)
  2: 0x0099 [0x00] END_REQSTACK()
```

### Event 65535.6

#### Metadata

| Field        | Value    |
|--------------|----------|
| Entrypoint   | 0x009A   |
| Data Size    | 29 bytes |
| Instructions | 3        |

```
      00 01 02 03 04 05 06 07  08 09 0A 0B 0C 0D 0E 0F
      -- -- -- -- -- -- -- --  -- -- -- -- -- -- -- --
0090:                                5B 14 80 F8 FF FF            [.....
00A0: 7F F8 FF FF 7F 74 6C 62  31 53 F8 FF FF 7F F8 FF  .....tlb1S......
00B0: FF 7F 74 6C 62 31 00                              ..tlb1.         
```

#### Opcodes

```
  0: 0x009A [0x5B] LOAD_EXT_SCHEDULER: Load scheduler "tlb1" with entities [EventEntity, EventEntity], work=180*
  1: 0x00A9 [0x53] WAIT_SCHEDULER_TASK: Wait for scheduler "tlb1" with entities [EventEntity, EventEntity]
  2: 0x00B6 [0x00] END_REQSTACK()
```

### Event 65535.7

#### Metadata

| Field        | Value    |
|--------------|----------|
| Entrypoint   | 0x00B7   |
| Data Size    | 13 bytes |
| Instructions | 4        |

```
      00 01 02 03 04 05 06 07  08 09 0A 0B 0C 0D 0E 0F
      -- -- -- -- -- -- -- --  -- -- -- -- -- -- -- --
00B0:                      1F  00 15 80 16 80 0B 80 1F         .........
00C0: 01 22 01 00                                       ."..            
```

#### Opcodes

```
  0: 0x00B7 [0x1F] MOVE_ENTITY: EventEntity moves to X=-68.542*, Z=-130.608*, Y=-0.101*
  1: 0x00BF [0x1F] MOVE_ENTITY: Update entity position (mode=1)
  2: 0x00C1 [0x22] ENTITY_HIDE_FLAG(enabled=0x01)
  3: 0x00C3 [0x00] END_REQSTACK()
```

### Event 65535.8

#### Metadata

| Field        | Value    |
|--------------|----------|
| Entrypoint   | 0x00C4   |
| Data Size    | 54 bytes |
| Instructions | 10       |

```
      00 01 02 03 04 05 06 07  08 09 0A 0B 0C 0D 0E 0F
      -- -- -- -- -- -- -- --  -- -- -- -- -- -- -- --
00C0:             1F 00 17 80  18 80 0F 80 1F 01 4A 16      ..........J.
00D0: 50 0F 01 17 50 0F 01 1F  00 19 80 1A 80 07 80 1F  P...P...........
00E0: 01 4A 16 50 0F 01 17 50  0F 01 4A 17 50 0F 01 16  .J.P...P..J.P...
00F0: 50 0F 01 6F 76 17 50 0F  01 00                    P..ov.P...      
```

#### Opcodes

```
  0: 0x00C4 [0x1F] MOVE_ENTITY: EventEntity moves to X=-59.394*, Z=-138.072*, Y=-0.109*
  1: 0x00CC [0x1F] MOVE_ENTITY: Update entity position (mode=1)
  2: 0x00CE [0x4A] Panta-Putta (ID: 17780758/0x010F5016) looks at Two of Swords (ID: 17780759/0x010F5017)
  3: 0x00D7 [0x1F] MOVE_ENTITY: EventEntity moves to X=-60.547*, Z=-139.597*, Y=-0.100*
  4: 0x00DF [0x1F] MOVE_ENTITY: Update entity position (mode=1)
  5: 0x00E1 [0x4A] Panta-Putta (ID: 17780758/0x010F5016) looks at Two of Swords (ID: 17780759/0x010F5017)
  6: 0x00EA [0x4A] Two of Swords (ID: 17780759/0x010F5017) looks at Panta-Putta (ID: 17780758/0x010F5016)
  7: 0x00F3 [0x6F] WAIT_FRAME_DELAY: Yield until WaitTime reaches zero
  8: 0x00F4 [0x76] CHECK_ENTITY_RENDER_FLAGS: Wait until Two of Swords (ID: 17780759/0x010F5017) Render.Flags0 and Render.Flags3 conditions are met
  9: 0x00F9 [0x00] END_REQSTACK()
```

### Event 65535.9

#### Metadata

| Field        | Value    |
|--------------|----------|
| Entrypoint   | 0x00FA   |
| Data Size    | 23 bytes |
| Instructions | 6        |

```
      00 01 02 03 04 05 06 07  08 09 0A 0B 0C 0D 0E 0F
      -- -- -- -- -- -- -- --  -- -- -- -- -- -- -- --
00F0:                                1F 00 17 80 18 80            ......
0100: 0F 80 1F 01 1F 00 1B 80  1C 80 07 80 1F 01 22 01  ..............".
0110: 00                                                .               
```

#### Opcodes

```
  0: 0x00FA [0x1F] MOVE_ENTITY: EventEntity moves to X=-59.394*, Z=-138.072*, Y=-0.109*
  1: 0x0102 [0x1F] MOVE_ENTITY: Update entity position (mode=1)
  2: 0x0104 [0x1F] MOVE_ENTITY: EventEntity moves to X=-68.231*, Z=-130.836*, Y=-0.100*
  3: 0x010C [0x1F] MOVE_ENTITY: Update entity position (mode=1)
  4: 0x010E [0x22] ENTITY_HIDE_FLAG(enabled=0x01)
  5: 0x0110 [0x00] END_REQSTACK()
```

### Event 65535.10

#### Metadata

| Field        | Value    |
|--------------|----------|
| Entrypoint   | 0x0111   |
| Data Size    | 11 bytes |
| Instructions | 3        |

```
      00 01 02 03 04 05 06 07  08 09 0A 0B 0C 0D 0E 0F
      -- -- -- -- -- -- -- --  -- -- -- -- -- -- -- --
0110:    1F 00 1D 80 1E 80 1F  80 1F 01 00               ...........    
```

#### Opcodes

```
  0: 0x0111 [0x1F] MOVE_ENTITY: EventEntity moves to X=-67.110*, Z=-131.288*, Y=-0.099*
  1: 0x0119 [0x1F] MOVE_ENTITY: Update entity position (mode=1)
  2: 0x011B [0x00] END_REQSTACK()
```

### Event 65535.11

#### Metadata

| Field        | Value    |
|--------------|----------|
| Entrypoint   | 0x011C   |
| Data Size    | 11 bytes |
| Instructions | 3        |

```
      00 01 02 03 04 05 06 07  08 09 0A 0B 0C 0D 0E 0F
      -- -- -- -- -- -- -- --  -- -- -- -- -- -- -- --
0110:                                      1F 00 20 80              .. .
0120: 21 80 07 80 1F 01 00                              !......         
```

#### Opcodes

```
  0: 0x011C [0x1F] MOVE_ENTITY: EventEntity moves to X=-64.187*, Z=-133.283*, Y=-0.100*
  1: 0x0124 [0x1F] MOVE_ENTITY: Update entity position (mode=1)
  2: 0x0126 [0x00] END_REQSTACK()
```

### Event 65535.12

#### Metadata

| Field        | Value    |
|--------------|----------|
| Entrypoint   | 0x0127   |
| Data Size    | 10 bytes |
| Instructions | 2        |

```
      00 01 02 03 04 05 06 07  08 09 0A 0B 0C 0D 0E 0F
      -- -- -- -- -- -- -- --  -- -- -- -- -- -- -- --
0120:                      37  22 80 23 80 24 80 25 80         7".#.$.%.
0130: 00                                                .               
```

#### Opcodes

```
  0: 0x0127 [0x37] UPDATE_EVENT_POSITION_AND_DIR: x=-70.788*, z=-136.176*, y=-0.298*, direction=25.9°*
  1: 0x0130 [0x00] END_REQSTACK()
```

### Event 65535.13

#### Metadata

| Field        | Value    |
|--------------|----------|
| Entrypoint   | 0x0131   |
| Data Size    | 10 bytes |
| Instructions | 2        |

```
      00 01 02 03 04 05 06 07  08 09 0A 0B 0C 0D 0E 0F
      -- -- -- -- -- -- -- --  -- -- -- -- -- -- -- --
0130:    37 26 80 27 80 0F 80  28 80 00                  7&.'...(..     
```

#### Opcodes

```
  0: 0x0131 [0x37] UPDATE_EVENT_POSITION_AND_DIR: x=-58.156*, z=-136.779*, y=-0.109*, direction=76.7°*
  1: 0x013A [0x00] END_REQSTACK()
```

### Event 65535.14

#### Metadata

| Field        | Value    |
|--------------|----------|
| Entrypoint   | 0x013B   |
| Data Size    | 11 bytes |
| Instructions | 3        |

```
      00 01 02 03 04 05 06 07  08 09 0A 0B 0C 0D 0E 0F
      -- -- -- -- -- -- -- --  -- -- -- -- -- -- -- --
0130:                                   1F 00 29 80 2A             ..).*
0140: 80 0F 80 1F 01 00                                 ......          
```

#### Opcodes

```
  0: 0x013B [0x1F] MOVE_ENTITY: EventEntity moves to X=-57.972*, Z=-137.272*, Y=-0.109*
  1: 0x0143 [0x1F] MOVE_ENTITY: Update entity position (mode=1)
  2: 0x0145 [0x00] END_REQSTACK()
```

### Event 65535.15

#### Metadata

| Field        | Value    |
|--------------|----------|
| Entrypoint   | 0x0146   |
| Data Size    | 43 bytes |
| Instructions | 10       |

```
      00 01 02 03 04 05 06 07  08 09 0A 0B 0C 0D 0E 0F
      -- -- -- -- -- -- -- --  -- -- -- -- -- -- -- --
0140:                   1F 00  2B 80 2C 80 1F 80 1F 01        ..+.,.....
0150: 29 03 57 50 0F 01 03 1F  00 2D 80 2E 80 2F 80 1F  ).WP.....-.../..
0160: 01 29 03 57 50 0F 01 04  1C 30 80 39 31 80 22 01  .).WP....0.91.".
0170: 00                                                .               
```

#### Opcodes

```
  0: 0x0146 [0x1F] MOVE_ENTITY: EventEntity moves to X=-66.672*, Z=-131.456*, Y=-0.099*
  1: 0x014E [0x1F] MOVE_ENTITY: Update entity position (mode=1)
  2: 0x0150 [0x29] REQ_SET_WAIT(priority=0x03, entity_id=Door:Merchant's House (ID: 17780823/0x010F5057), tag_num=0x03)
  3: 0x0157 [0x1F] MOVE_ENTITY: EventEntity moves to X=-69.915*, Z=-129.723*, Y=-0.017*
  4: 0x015F [0x1F] MOVE_ENTITY: Update entity position (mode=1)
  5: 0x0161 [0x29] REQ_SET_WAIT(priority=0x03, entity_id=Door:Merchant's House (ID: 17780823/0x010F5057), tag_num=0x04)
  6: 0x0168 [0x1C] WAIT(90* ticks)
  7: 0x016B [0x39] SET_ENTITY_DIRECTION(direction=1.6°*)
  8: 0x016E [0x22] ENTITY_HIDE_FLAG(enabled=0x01)
  9: 0x0170 [0x00] END_REQSTACK()
```

### Event 65535.16

#### Metadata

| Field        | Value    |
|--------------|----------|
| Entrypoint   | 0x0171   |
| Data Size    | 13 bytes |
| Instructions | 3        |

```
      00 01 02 03 04 05 06 07  08 09 0A 0B 0C 0D 0E 0F
      -- -- -- -- -- -- -- --  -- -- -- -- -- -- -- --
0170:    4A 17 50 0F 01 15 50  0F 01 1C 13 80 00         J.P...P......  
```

#### Opcodes

```
  0: 0x0171 [0x4A] Two of Swords (ID: 17780759/0x010F5017) looks at Naruru (ID: 17780757/0x010F5015)
  1: 0x017A [0x1C] WAIT(60* ticks)
  2: 0x017D [0x00] END_REQSTACK()
```

### Event 65535.17

#### Metadata

| Field        | Value    |
|--------------|----------|
| Entrypoint   | 0x017E   |
| Data Size    | 13 bytes |
| Instructions | 3        |

```
      00 01 02 03 04 05 06 07  08 09 0A 0B 0C 0D 0E 0F
      -- -- -- -- -- -- -- --  -- -- -- -- -- -- -- --
0170:                                            4A 17                J.
0180: 50 0F 01 14 50 0F 01 1C  13 80 00                 P...P......     
```

#### Opcodes

```
  0: 0x017E [0x4A] Two of Swords (ID: 17780759/0x010F5017) looks at Teigero-Bangero (ID: 17780756/0x010F5014)
  1: 0x0187 [0x1C] WAIT(60* ticks)
  2: 0x018A [0x00] END_REQSTACK()
```

### Event 65535.18

#### Metadata

| Field        | Value   |
|--------------|---------|
| Entrypoint   | 0x018B  |
| Data Size    | 8 bytes |
| Instructions | 4       |

```
      00 01 02 03 04 05 06 07  08 09 0A 0B 0C 0D 0E 0F
      -- -- -- -- -- -- -- --  -- -- -- -- -- -- -- --
0180:                                   1E 16 50 0F 01             ..P..
0190: 6F 70 00                                          op.             
```

#### Opcodes

```
  0: 0x018B [0x1E] EventEntity looks at Panta-Putta (ID: 17780758/0x010F5016) and starts talking
  1: 0x0190 [0x6F] WAIT_FRAME_DELAY: Yield until WaitTime reaches zero
  2: 0x0191 [0x70] WAIT_ENTITY_RENDER_FLAG: Wait while EventEntity->Render.Flags3 bit 2 is set (cancel turn if not)
  3: 0x0192 [0x00] END_REQSTACK()
```

### Event 65535.19

#### Metadata

| Field        | Value   |
|--------------|---------|
| Entrypoint   | 0x0193  |
| Data Size    | 1 bytes |
| Instructions | 1       |

```
      00 01 02 03 04 05 06 07  08 09 0A 0B 0C 0D 0E 0F
      -- -- -- -- -- -- -- --  -- -- -- -- -- -- -- --
0190:          00                                          .            
```

#### Opcodes

```
  0: 0x0193 [0x00] END_REQSTACK()
```

### Event 65535.20

#### Metadata

| Field        | Value   |
|--------------|---------|
| Entrypoint   | 0x0194  |
| Data Size    | 4 bytes |
| Instructions | 2       |

```
      00 01 02 03 04 05 06 07  08 09 0A 0B 0C 0D 0E 0F
      -- -- -- -- -- -- -- --  -- -- -- -- -- -- -- --
0190:             1C 13 80 00                               ....        
```

#### Opcodes

```
  0: 0x0194 [0x1C] WAIT(60* ticks)
  1: 0x0197 [0x00] END_REQSTACK()
```
