# 17780798 - Guttrix

## Common Data

| Field            | Value                 |
|------------------|-----------------------|
| Zone             | Lower Jeuno (ID: 245) |
| Block Size       | 872 bytes             |
| Total Events     | 9                     |
| References Count | 54                    |

## List of Events

| Event ID              | Entrypoint   |   Size |   Instructions |
|-----------------------|--------------|--------|----------------|
| [65535](#event-65535) | 0x0000       |      1 |              1 |
| [10016](#event-10016) | 0x0001       |     76 |             20 |
| [10017](#event-10017) | 0x004D       |     35 |              9 |
| [10018](#event-10018) | 0x0070       |    449 |             93 |
| [10019](#event-10019) | 0x0231       |     11 |              5 |
| [10020](#event-10020) | 0x023C       |     11 |              5 |
| [20087](#event-20087) | 0x0247       |      7 |              2 |
| [20091](#event-20091) | 0x024E       |      7 |              2 |
| [20093](#event-20093) | 0x0255       |      7 |              2 |

## DAT References (imed_data)

|   Index | Hex Value   |   Dec Value |
|---------|-------------|-------------|
|       0 | 0x00B2      |         178 |
|       1 | 0x1EEE      |        7918 |
|       2 | 0x00D7      |         215 |
|       3 | 0x1EEF      |        7919 |
|       4 | 0x1EF0      |        7920 |
|       5 | 0x1EF1      |        7921 |
|       6 | 0x1EF2      |        7922 |
|       7 | 0x1EF4      |        7924 |
|       8 | 0x1EF3      |        7923 |
|       9 | 0x1EF5      |        7925 |
|      10 | 0x0001      |           1 |
|      11 | 0x316E      |       12654 |
|      12 | 0x31D9      |       12761 |
|      13 | 0x3247      |       12871 |
|      14 | 0x32D7      |       13015 |
|      15 | 0x0002      |           2 |
|      16 | 0x316F      |       12655 |
|      17 | 0x31DA      |       12762 |
|      18 | 0x3248      |       12872 |
|      19 | 0x32D8      |       13016 |
|      20 | 0x0003      |           3 |
|      21 | 0x3170      |       12656 |
|      22 | 0x31DB      |       12763 |
|      23 | 0x3249      |       12873 |
|      24 | 0x32D9      |       13017 |
|      25 | 0x0004      |           4 |
|      26 | 0x3171      |       12657 |
|      27 | 0x31DC      |       12764 |
|      28 | 0x324A      |       12874 |
|      29 | 0x32DA      |       13018 |
|      30 | 0x0005      |           5 |
|      31 | 0x3172      |       12658 |
|      32 | 0x31DD      |       12765 |
|      33 | 0x324B      |       12875 |
|      34 | 0x32DB      |       13019 |
|      35 | 0x0006      |           6 |
|      36 | 0x0007      |           7 |
|      37 | 0x3173      |       12659 |
|      38 | 0x31DE      |       12766 |
|      39 | 0x324C      |       12876 |
|      40 | 0x32DC      |       13020 |
|      41 | 0x0008      |           8 |
|      42 | 0x3174      |       12660 |
|      43 | 0x31DF      |       12767 |
|      44 | 0x324D      |       12877 |
|      45 | 0x32DD      |       13021 |
|      46 | 0x1EF6      |        7926 |
|      47 | 0x0000      |           0 |
|      48 | 0x40000000  |  1073741824 |
|      49 | 0x1EF7      |        7927 |
|      50 | 0x1EF8      |        7928 |
|      51 | 0x00C9      |         201 |
|      52 | 0x1EF9      |        7929 |
|      53 | 0x1EED      |        7917 |

## String References

- **7917**: Scram, small fry.
- **7918**: Hey, [tough guy/sweetheart]... Wanna do me a favor?
- **7919**: I'm the best Gobbie tailor in the 'hood! I crank out all kinds of stuff, but I could use some help!
- **7920**: Fix me up with $6. I heard the buggers only pop up in treasure chests in dungeons!
- **7921**: See, patterns for guys and gals of every race are out there, but only one kind each week!
- **7922**: You bring me $6, and I'll stitch you up in one of my custom-tailored masterpieces. Now, get movin'!
- **7923**: Look, you bring me $6, and I'll give you somethin' pretty to wear. Capiche?
- **7924**: This week my Gobbie bros say that you can find $6 for [nobody/Hume guys/Hume gals/Elvaan guys/Elvaan gals/Tarutaru guys/Tarutaru gals/Mithra/Galka] in a treasure chest in [Ordelle's Caves/Gusgen Mines/the Maze of Shakhrami].
- **7925**: Hey, you did it! Now, take your pick, [tough guy/sweetie].
- **7926**: What do you want? [$4./$5./$6./$7./Let me think.]
- **7927**: $3? You sure?
- **7928**: You really sure? [Yes./No, wait.]
- **7929**: Hey, [pal/sweetie]... You helped me out big time, but there ain't nothing more I can make for you.

## Events

### Event 65535

#### Metadata

| Field        | Value   |
|--------------|---------|
| Entrypoint   | 0x0000  |
| Data Size    | 1 bytes |
| Instructions | 1       |

```
      00 01 02 03 04 05 06 07  08 09 0A 0B 0C 0D 0E 0F
      -- -- -- -- -- -- -- --  -- -- -- -- -- -- -- --
0000: 00                                                .               
```

#### Opcodes

```
  0: 0x0000 [0x00] END_REQSTACK()
```

### Event 10016

#### Metadata

| Field        | Value    |
|--------------|----------|
| Entrypoint   | 0x0001   |
| Data Size    | 76 bytes |
| Instructions | 20       |

```
      00 01 02 03 04 05 06 07  08 09 0A 0B 0C 0D 0E 0F
      -- -- -- -- -- -- -- --  -- -- -- -- -- -- -- --
0000:    03 09 10 00 80 1E F0  FF FF 7F 1D 01 80 23 5B   .............#[
0010: 02 80 F8 FF FF 7F F8 FF  FF 7F 74 6C 6B 30 1D 03  ..........tlk0..
0020: 80 23 5E 69 64 6C 30 1D  04 80 23 5B 02 80 F8 FF  .#^idl0...#[....
0030: FF 7F F8 FF FF 7F 74 6C  6B 31 1D 05 80 23 1D 06  ......tlk1...#..
0040: 80 23 5E 69 64 6C 30 1D  07 80 23 21 00           .#^idl0...#!.   
```

#### Opcodes

```
  0: 0x0001 [0x03] Work_Zone[9] = 178*
  1: 0x0006 [0x1E] EventEntity looks at LocalPlayer and starts talking
  2: 0x000B [0x1D] PRINT_EVENT_MESSAGE(message_id=7918*)
    → "Hey, [tough guy/sweetheart]... Wanna do me a favor?"
  3: 0x000E [0x23] WAIT_FOR_DIALOG_INTERACTION
  4: 0x000F [0x5B] LOAD_EXT_SCHEDULER: Load scheduler "tlk0" with entities [EventEntity, EventEntity], work=215*
  5: 0x001E [0x1D] PRINT_EVENT_MESSAGE(message_id=7919*)
    → "I'm the best Gobbie tailor in the 'hood! I crank out all kinds of stuff, but I could use some help!"
  6: 0x0021 [0x23] WAIT_FOR_DIALOG_INTERACTION
  7: 0x0022 [0x5E] EventEntity goes idle (kills current action) (animation: "idl0")
  8: 0x0027 [0x1D] PRINT_EVENT_MESSAGE(message_id=7920*)
    → "Fix me up with $6. I heard the buggers only pop up in treasure chests in dungeons!"
  9: 0x002A [0x23] WAIT_FOR_DIALOG_INTERACTION
 10: 0x002B [0x5B] LOAD_EXT_SCHEDULER: Load scheduler "tlk1" with entities [EventEntity, EventEntity], work=215*
 11: 0x003A [0x1D] PRINT_EVENT_MESSAGE(message_id=7921*)
    → "See, patterns for guys and gals of every race are out there, but only one kind each week!"
 12: 0x003D [0x23] WAIT_FOR_DIALOG_INTERACTION
 13: 0x003E [0x1D] PRINT_EVENT_MESSAGE(message_id=7922*)
    → "You bring me $6, and I'll stitch you up in one of my custom-tailored masterpieces. Now, get movin'!"
 14: 0x0041 [0x23] WAIT_FOR_DIALOG_INTERACTION
 15: 0x0042 [0x5E] EventEntity goes idle (kills current action) (animation: "idl0")
 16: 0x0047 [0x1D] PRINT_EVENT_MESSAGE(message_id=7924*)
    → "This week my Gobbie bros say that you can find $6 for [nobody/Hume guys/Hume gals/Elvaan guys/Elvaan gals/Tarutaru guys/Tarutaru gals/Mithra/Galka] in a treasure chest in [Ordelle's Caves/Gusgen Mines/the Maze of Shakhrami]."
 17: 0x004A [0x23] WAIT_FOR_DIALOG_INTERACTION
 18: 0x004B [0x21] END_EVENT
 19: 0x004C [0x00] END_REQSTACK()
```

### Event 10017

#### Metadata

| Field        | Value    |
|--------------|----------|
| Entrypoint   | 0x004D   |
| Data Size    | 35 bytes |
| Instructions | 9        |

```
      00 01 02 03 04 05 06 07  08 09 0A 0B 0C 0D 0E 0F
      -- -- -- -- -- -- -- --  -- -- -- -- -- -- -- --
0040:                                         03 09 10               ...
0050: 00 80 1E F0 FF FF 7F 1D  08 80 23 5B 02 80 F8 FF  ..........#[....
0060: FF 7F F8 FF FF 7F 74 6C  6B 31 1D 07 80 23 21 00  ......tlk1...#!.
```

#### Opcodes

```
  0: 0x004D [0x03] Work_Zone[9] = 178*
  1: 0x0052 [0x1E] EventEntity looks at LocalPlayer and starts talking
  2: 0x0057 [0x1D] PRINT_EVENT_MESSAGE(message_id=7923*)
    → "Look, you bring me $6, and I'll give you somethin' pretty to wear. Capiche?"
  3: 0x005A [0x23] WAIT_FOR_DIALOG_INTERACTION
  4: 0x005B [0x5B] LOAD_EXT_SCHEDULER: Load scheduler "tlk1" with entities [EventEntity, EventEntity], work=215*
  5: 0x006A [0x1D] PRINT_EVENT_MESSAGE(message_id=7924*)
    → "This week my Gobbie bros say that you can find $6 for [nobody/Hume guys/Hume gals/Elvaan guys/Elvaan gals/Tarutaru guys/Tarutaru gals/Mithra/Galka] in a treasure chest in [Ordelle's Caves/Gusgen Mines/the Maze of Shakhrami]."
  6: 0x006D [0x23] WAIT_FOR_DIALOG_INTERACTION
  7: 0x006E [0x21] END_EVENT
  8: 0x006F [0x00] END_REQSTACK()
```

### Event 10018

#### Metadata

| Field        | Value     |
|--------------|-----------|
| Entrypoint   | 0x0070    |
| Data Size    | 449 bytes |
| Instructions | 91        |

```
      00 01 02 03 04 05 06 07  08 09 0A 0B 0C 0D 0E 0F
      -- -- -- -- -- -- -- --  -- -- -- -- -- -- -- --
0070: 03 09 10 00 80 1E F0 FF  FF 7F 1D 09 80 23 02 87  .............#..
0080: 7F 0A 80 80 9D 00 03 06  10 0B 80 03 07 10 0C 80  ................
0090: 03 08 10 0D 80 03 09 10  0E 80 01 76 01 02 87 7F  ...........v....
00A0: 0F 80 80 BC 00 03 06 10  10 80 03 07 10 11 80 03  ................
00B0: 08 10 12 80 03 09 10 13  80 01 76 01 02 87 7F 14  ..........v.....
00C0: 80 80 DB 00 03 06 10 15  80 03 07 10 16 80 03 08  ................
00D0: 10 17 80 03 09 10 18 80  01 76 01 02 87 7F 19 80  .........v......
00E0: 80 FA 00 03 06 10 1A 80  03 07 10 1B 80 03 08 10  ................
00F0: 1C 80 03 09 10 1D 80 01  76 01 02 87 7F 1E 80 80  ........v.......
0100: 19 01 03 06 10 1F 80 03  07 10 20 80 03 08 10 21  .......... ....!
0110: 80 03 09 10 22 80 01 76  01 02 87 7F 23 80 80 38  ...."..v....#..8
0120: 01 03 06 10 1F 80 03 07  10 20 80 03 08 10 21 80  ......... ....!.
0130: 03 09 10 22 80 01 76 01  02 87 7F 24 80 80 57 01  ..."..v....$..W.
0140: 03 06 10 25 80 03 07 10  26 80 03 08 10 27 80 03  ...%....&....'..
0150: 09 10 28 80 01 76 01 02  87 7F 29 80 80 76 01 03  ..(..v....)..v..
0160: 06 10 2A 80 03 07 10 2B  80 03 08 10 2C 80 03 09  ..*....+....,...
0170: 10 2D 80 01 76 01 2E 24  2E 80 2F 80 02 10 25 02  .-..v..$../...%.
0180: 00 10 2F 80 00 97 01 03  01 10 0A 80 93 06 10 03  ../.............
0190: 05 10 06 10 01 F1 01 02  00 10 0A 80 00 AF 01 03  ................
01A0: 01 10 0F 80 93 07 10 03  05 10 07 10 01 F1 01 02  ................
01B0: 00 10 0F 80 00 C7 01 03  01 10 14 80 93 08 10 03  ................
01C0: 05 10 08 10 01 F1 01 02  00 10 14 80 00 DF 01 03  ................
01D0: 01 10 19 80 93 09 10 03  05 10 09 10 01 F1 01 02  ................
01E0: 00 10 19 80 00 F1 01 03  01 10 30 80 21 00 01 F1  ..........0.!...
01F0: 01 5B 02 80 F8 FF FF 7F  F8 FF FF 7F 70 61 73 30  .[..........pas0
0200: 1D 31 80 23 93 2F 80 42  24 32 80 0A 80 2F 80 25  .1.#./.B$2.../.%
0210: 02 00 10 0A 80 00 1E 02  01 76 01 01 1E 02 45 33  .........v....E3
0220: 80 F0 FF FF 7F F0 FF FF  7F 71 73 74 63 2F 80 21  .........qstc/.!
0230: 00                                                .               
```

#### Opcodes

```
  0: 0x0070 [0x03] Work_Zone[9] = 178*
  1: 0x0075 [0x1E] EventEntity looks at LocalPlayer and starts talking
  2: 0x007A [0x1D] PRINT_EVENT_MESSAGE(message_id=7925*)
    → "Hey, you did it! Now, take your pick, [tough guy/sweetie]."
  3: 0x007D [0x23] WAIT_FOR_DIALOG_INTERACTION
  4: 0x007E [0x02] IF !(LocalPlayer->Race == 1*) GOTO 0x009D
  5: 0x0086 [0x03] Work_Zone[6] = 12654*
  6: 0x008B [0x03] Work_Zone[7] = 12761*
  7: 0x0090 [0x03] Work_Zone[8] = 12871*
  8: 0x0095 [0x03] Work_Zone[9] = 13015*
  9: 0x009A [0x01] GOTO 0x0176
 10: 0x009D [0x02] IF !(LocalPlayer->Race == 2*) GOTO 0x00BC
 11: 0x00A5 [0x03] Work_Zone[6] = 12655*
 12: 0x00AA [0x03] Work_Zone[7] = 12762*
 13: 0x00AF [0x03] Work_Zone[8] = 12872*
 14: 0x00B4 [0x03] Work_Zone[9] = 13016*
 15: 0x00B9 [0x01] GOTO 0x0176
 16: 0x00BC [0x02] IF !(LocalPlayer->Race == 3*) GOTO 0x00DB
 17: 0x00C4 [0x03] Work_Zone[6] = 12656*
 18: 0x00C9 [0x03] Work_Zone[7] = 12763*
 19: 0x00CE [0x03] Work_Zone[8] = 12873*
 20: 0x00D3 [0x03] Work_Zone[9] = 13017*
 21: 0x00D8 [0x01] GOTO 0x0176
 22: 0x00DB [0x02] IF !(LocalPlayer->Race == 4*) GOTO 0x00FA
 23: 0x00E3 [0x03] Work_Zone[6] = 12657*
 24: 0x00E8 [0x03] Work_Zone[7] = 12764*
 25: 0x00ED [0x03] Work_Zone[8] = 12874*
 26: 0x00F2 [0x03] Work_Zone[9] = 13018*
 27: 0x00F7 [0x01] GOTO 0x0176
 28: 0x00FA [0x02] IF !(LocalPlayer->Race == 5*) GOTO 0x0119
 29: 0x0102 [0x03] Work_Zone[6] = 12658*
 30: 0x0107 [0x03] Work_Zone[7] = 12765*
 31: 0x010C [0x03] Work_Zone[8] = 12875*
 32: 0x0111 [0x03] Work_Zone[9] = 13019*
 33: 0x0116 [0x01] GOTO 0x0176
 34: 0x0119 [0x02] IF !(LocalPlayer->Race == 6*) GOTO 0x0138
 35: 0x0121 [0x03] Work_Zone[6] = 12658*
 36: 0x0126 [0x03] Work_Zone[7] = 12765*
 37: 0x012B [0x03] Work_Zone[8] = 12875*
 38: 0x0130 [0x03] Work_Zone[9] = 13019*
 39: 0x0135 [0x01] GOTO 0x0176
 40: 0x0138 [0x02] IF !(LocalPlayer->Race == 7*) GOTO 0x0157
 41: 0x0140 [0x03] Work_Zone[6] = 12659*
 42: 0x0145 [0x03] Work_Zone[7] = 12766*
 43: 0x014A [0x03] Work_Zone[8] = 12876*
 44: 0x014F [0x03] Work_Zone[9] = 13020*
 45: 0x0154 [0x01] GOTO 0x0176
 46: 0x0157 [0x02] IF !(LocalPlayer->Race == 8*) GOTO 0x0176
 47: 0x015F [0x03] Work_Zone[6] = 12660*
 48: 0x0164 [0x03] Work_Zone[7] = 12767*
 49: 0x0169 [0x03] Work_Zone[8] = 12877*
 50: 0x016E [0x03] Work_Zone[9] = 13021*
 51: 0x0173 [0x01] GOTO 0x0176

SUBROUTINE_0176:
 52: 0x0176 [0x2E] SET_CLI_EVENT_CANCEL_FLAGS()
 53: 0x0177 [0x24] CREATE_DIALOG(message_id=7926*, default_option=0*, option_flags=Work_Zone[2])
    → "What do you want? [$4./$5./$6./$7./Let me think.]"
 54: 0x017E [0x25] WAIT_DIALOG_SELECT()
 55: 0x017F [0x02] IF !(Work_Zone[0] == 0*) GOTO 0x0197
 56: 0x0187 [0x03] Work_Zone[1] = 1*
 57: 0x018C [0x93] DISPLAY_ITEM_INFO(item_id=Work_Zone[6])
 58: 0x018F [0x03] Work_Zone[5] = Work_Zone[6]
 59: 0x0194 [0x01] GOTO 0x01F1
 60: 0x0197 [0x02] IF !(Work_Zone[0] == 1*) GOTO 0x01AF
 61: 0x019F [0x03] Work_Zone[1] = 2*
 62: 0x01A4 [0x93] DISPLAY_ITEM_INFO(item_id=Work_Zone[7])
 63: 0x01A7 [0x03] Work_Zone[5] = Work_Zone[7]
 64: 0x01AC [0x01] GOTO 0x01F1
 65: 0x01AF [0x02] IF !(Work_Zone[0] == 2*) GOTO 0x01C7
 66: 0x01B7 [0x03] Work_Zone[1] = 3*
 67: 0x01BC [0x93] DISPLAY_ITEM_INFO(item_id=Work_Zone[8])
 68: 0x01BF [0x03] Work_Zone[5] = Work_Zone[8]
 69: 0x01C4 [0x01] GOTO 0x01F1
 70: 0x01C7 [0x02] IF !(Work_Zone[0] == 3*) GOTO 0x01DF
 71: 0x01CF [0x03] Work_Zone[1] = 4*
 72: 0x01D4 [0x93] DISPLAY_ITEM_INFO(item_id=Work_Zone[9])
 73: 0x01D7 [0x03] Work_Zone[5] = Work_Zone[9]
 74: 0x01DC [0x01] GOTO 0x01F1
 75: 0x01DF [0x02] IF !(Work_Zone[0] == 4*) GOTO 0x01F1
 76: 0x01E7 [0x03] Work_Zone[1] = 1073741824*
 77: 0x01EC [0x21] END_EVENT
 78: 0x01ED [0x00] END_REQSTACK()

SUBROUTINE_01F1:
 79: 0x01F1 [0x5B] LOAD_EXT_SCHEDULER: Load scheduler "pas0" with entities [EventEntity, EventEntity], work=215*
 80: 0x0200 [0x1D] PRINT_EVENT_MESSAGE(message_id=7927*)
    → "$3? You sure?"
 81: 0x0203 [0x23] WAIT_FOR_DIALOG_INTERACTION
 82: 0x0204 [0x93] DISPLAY_ITEM_INFO(item_id=0*)
 83: 0x0207 [0x42] SET_CLI_EVENT_CANCEL_DATA()
 84: 0x0208 [0x24] CREATE_DIALOG(message_id=7928*, default_option=1*, option_flags=0*)
    → "You really sure? [Yes./No, wait.]"
 85: 0x020F [0x25] WAIT_DIALOG_SELECT()
 86: 0x0210 [0x02] IF !(Work_Zone[0] == 1*) GOTO 0x021E
 87: 0x0218 [0x01] GOTO 0x0176

SUBROUTINE_021E:
 88: 0x021E [0x45] LOAD_SCHEDULED_TASK: Load scheduler "qstc" with entities [LocalPlayer, LocalPlayer], work=[201*, 0*]
 89: 0x022F [0x21] END_EVENT
 90: 0x0230 [0x00] END_REQSTACK()
```

#### Data or dead code:

```
# Dead code (unreachable instructions):
     0x01EE [0x01] GOTO 0x01F1
# Dead code (unreachable instructions):
     0x021B [0x01] GOTO 0x021E
```

### Event 10019

#### Metadata

| Field        | Value    |
|--------------|----------|
| Entrypoint   | 0x0231   |
| Data Size    | 11 bytes |
| Instructions | 5        |

```
      00 01 02 03 04 05 06 07  08 09 0A 0B 0C 0D 0E 0F
      -- -- -- -- -- -- -- --  -- -- -- -- -- -- -- --
0230:    1E F0 FF FF 7F 1D 34  80 23 21 00               ......4.#!.    
```

#### Opcodes

```
  0: 0x0231 [0x1E] EventEntity looks at LocalPlayer and starts talking
  1: 0x0236 [0x1D] PRINT_EVENT_MESSAGE(message_id=7929*)
    → "Hey, [pal/sweetie]... You helped me out big time, but there ain't nothing more I can make for you."
  2: 0x0239 [0x23] WAIT_FOR_DIALOG_INTERACTION
  3: 0x023A [0x21] END_EVENT
  4: 0x023B [0x00] END_REQSTACK()
```

### Event 10020

#### Metadata

| Field        | Value    |
|--------------|----------|
| Entrypoint   | 0x023C   |
| Data Size    | 11 bytes |
| Instructions | 5        |

```
      00 01 02 03 04 05 06 07  08 09 0A 0B 0C 0D 0E 0F
      -- -- -- -- -- -- -- --  -- -- -- -- -- -- -- --
0230:                                      1E F0 FF FF              ....
0240: 7F 1D 35 80 23 21 00                              ..5.#!.         
```

#### Opcodes

```
  0: 0x023C [0x1E] EventEntity looks at LocalPlayer and starts talking
  1: 0x0241 [0x1D] PRINT_EVENT_MESSAGE(message_id=7917*)
    → "Scram, small fry."
  2: 0x0244 [0x23] WAIT_FOR_DIALOG_INTERACTION
  3: 0x0245 [0x21] END_EVENT
  4: 0x0246 [0x00] END_REQSTACK()
```

### Event 20087

#### Metadata

| Field        | Value   |
|--------------|---------|
| Entrypoint   | 0x0247  |
| Data Size    | 7 bytes |
| Instructions | 2       |

```
      00 01 02 03 04 05 06 07  08 09 0A 0B 0C 0D 0E 0F
      -- -- -- -- -- -- -- --  -- -- -- -- -- -- -- --
0240:                      92  01 F8 FF FF 7F 00               .......  
```

#### Opcodes

```
  0: 0x0247 [0x92] EventEntity->Render.Flags3 ^= 0x01
  1: 0x024D [0x00] END_REQSTACK()
```

### Event 20091

#### Metadata

| Field        | Value   |
|--------------|---------|
| Entrypoint   | 0x024E  |
| Data Size    | 7 bytes |
| Instructions | 2       |

```
      00 01 02 03 04 05 06 07  08 09 0A 0B 0C 0D 0E 0F
      -- -- -- -- -- -- -- --  -- -- -- -- -- -- -- --
0240:                                            92 01                ..
0250: F8 FF FF 7F 00                                    .....           
```

#### Opcodes

```
  0: 0x024E [0x92] EventEntity->Render.Flags3 ^= 0x01
  1: 0x0254 [0x00] END_REQSTACK()
```

### Event 20093

#### Metadata

| Field        | Value   |
|--------------|---------|
| Entrypoint   | 0x0255  |
| Data Size    | 7 bytes |
| Instructions | 2       |

```
      00 01 02 03 04 05 06 07  08 09 0A 0B 0C 0D 0E 0F
      -- -- -- -- -- -- -- --  -- -- -- -- -- -- -- --
0250:                92 01 F8  FF FF 7F 00                   .......    
```

#### Opcodes

```
  0: 0x0255 [0x92] EventEntity->Render.Flags3 ^= 0x01
  1: 0x025B [0x00] END_REQSTACK()
```
