# 17780742 - Ghebi Damomohe

## Common Data

| Field            | Value                 |
|------------------|-----------------------|
| Zone             | Lower Jeuno (ID: 245) |
| Block Size       | 3448 bytes            |
| Total Events     | 108                   |
| References Count | 155                   |

## List of Events

| Event ID                   | Entrypoint   |   Size |   Instructions |
|----------------------------|--------------|--------|----------------|
| [65535](#event-65535)      | 0x0000       |      1 |              1 |
| [54](#event-54)            | 0x0001       |    121 |             30 |
| [53](#event-53)            | 0x007A       |     13 |              7 |
| [51](#event-51)            | 0x0087       |     13 |              7 |
| [52](#event-52)            | 0x0094       |     85 |             25 |
| [169](#event-169)          | 0x00E9       |    191 |             45 |
| [106](#event-106)          | 0x01A8       |    155 |             49 |
| [108](#event-108)          | 0x0243       |     39 |             12 |
| [107](#event-107)          | 0x026A       |     44 |             13 |
| [10047](#event-10047)      | 0x0296       |     13 |              7 |
| [10094](#event-10094)      | 0x02A3       |      5 |              3 |
| [65535.1](#event-655351)   | 0x02A8       |     20 |              5 |
| [65535.2](#event-655352)   | 0x02BC       |     20 |              5 |
| [65535.3](#event-655353)   | 0x02D0       |     20 |              5 |
| [65535.4](#event-655354)   | 0x02E4       |     17 |              3 |
| [65535.5](#event-655355)   | 0x02F5       |     20 |              5 |
| [65535.6](#event-655356)   | 0x0309       |     20 |              5 |
| [65535.7](#event-655357)   | 0x031D       |     19 |              4 |
| [65535.8](#event-655358)   | 0x0330       |     19 |              4 |
| [65535.9](#event-655359)   | 0x0343       |     16 |              2 |
| [65535.10](#event-6553510) | 0x0353       |     16 |              2 |
| [65535.11](#event-6553511) | 0x0363       |     20 |              5 |
| [65535.12](#event-6553512) | 0x0377       |     16 |              2 |
| [65535.13](#event-6553513) | 0x0387       |     16 |              2 |
| [65535.14](#event-6553514) | 0x0397       |     16 |              2 |
| [65535.15](#event-6553515) | 0x03A7       |     21 |              6 |
| [65535.16](#event-6553516) | 0x03BC       |     16 |              2 |
| [65535.17](#event-6553517) | 0x03CC       |     16 |              2 |
| [65535.18](#event-6553518) | 0x03DC       |     20 |              5 |
| [65535.19](#event-6553519) | 0x03F0       |     17 |              3 |
| [65535.20](#event-6553520) | 0x0401       |     20 |              5 |
| [65535.21](#event-6553521) | 0x0415       |     16 |              2 |
| [65535.22](#event-6553522) | 0x0425       |     16 |              2 |
| [65535.23](#event-6553523) | 0x0435       |     16 |              2 |
| [65535.24](#event-6553524) | 0x0445       |     16 |              2 |
| [65535.25](#event-6553525) | 0x0455       |     16 |              2 |
| [65535.26](#event-6553526) | 0x0465       |     16 |              2 |
| [65535.27](#event-6553527) | 0x0475       |     16 |              2 |
| [65535.28](#event-6553528) | 0x0485       |     12 |              4 |
| [65535.29](#event-6553529) | 0x0491       |     20 |              5 |
| [65535.30](#event-6553530) | 0x04A5       |     17 |              3 |
| [65535.31](#event-6553531) | 0x04B6       |     17 |              3 |
| [65535.32](#event-6553532) | 0x04C7       |     16 |              2 |
| [65535.33](#event-6553533) | 0x04D7       |     16 |              2 |
| [65535.34](#event-6553534) | 0x04E7       |     16 |              2 |
| [65535.35](#event-6553535) | 0x04F7       |     16 |              2 |
| [65535.36](#event-6553536) | 0x0507       |     16 |              2 |
| [65535.37](#event-6553537) | 0x0517       |     16 |              2 |
| [65535.38](#event-6553538) | 0x0527       |     13 |              5 |
| [65535.39](#event-6553539) | 0x0534       |     20 |              5 |
| [65535.40](#event-6553540) | 0x0548       |     12 |              4 |
| [65535.41](#event-6553541) | 0x0554       |     16 |              2 |
| [65535.42](#event-6553542) | 0x0564       |     16 |              2 |
| [65535.43](#event-6553543) | 0x0574       |     16 |              2 |
| [65535.44](#event-6553544) | 0x0584       |     20 |              5 |
| [65535.45](#event-6553545) | 0x0598       |     29 |              6 |
| [65535.46](#event-6553546) | 0x05B5       |     17 |              3 |
| [65535.47](#event-6553547) | 0x05C6       |     20 |              5 |
| [65535.48](#event-6553548) | 0x05DA       |     20 |              5 |
| [65535.49](#event-6553549) | 0x05EE       |     20 |              5 |
| [65535.50](#event-6553550) | 0x0602       |     20 |              5 |
| [65535.51](#event-6553551) | 0x0616       |     20 |              5 |
| [65535.52](#event-6553552) | 0x062A       |     16 |              2 |
| [65535.53](#event-6553553) | 0x063A       |     16 |              2 |
| [65535.54](#event-6553554) | 0x064A       |     20 |              5 |
| [65535.55](#event-6553555) | 0x065E       |     16 |              2 |
| [65535.56](#event-6553556) | 0x066E       |     16 |              2 |
| [65535.57](#event-6553557) | 0x067E       |     16 |              2 |
| [65535.58](#event-6553558) | 0x068E       |     16 |              2 |
| [65535.59](#event-6553559) | 0x069E       |     21 |              6 |
| [65535.60](#event-6553560) | 0x06B3       |     20 |              5 |
| [65535.61](#event-6553561) | 0x06C7       |     20 |              5 |
| [65535.62](#event-6553562) | 0x06DB       |     17 |              3 |
| [65535.63](#event-6553563) | 0x06EC       |     20 |              5 |
| [65535.64](#event-6553564) | 0x0700       |     20 |              5 |
| [65535.65](#event-6553565) | 0x0714       |     16 |              2 |
| [65535.66](#event-6553566) | 0x0724       |     16 |              2 |
| [65535.67](#event-6553567) | 0x0734       |     21 |              6 |
| [65535.68](#event-6553568) | 0x0749       |     20 |              5 |
| [65535.69](#event-6553569) | 0x075D       |     20 |              5 |
| [65535.70](#event-6553570) | 0x0771       |     16 |              2 |
| [65535.71](#event-6553571) | 0x0781       |     20 |              5 |
| [65535.72](#event-6553572) | 0x0795       |     21 |              6 |
| [65535.73](#event-6553573) | 0x07AA       |     20 |              5 |
| [65535.74](#event-6553574) | 0x07BE       |     12 |              4 |
| [65535.75](#event-6553575) | 0x07CA       |     16 |              2 |
| [65535.76](#event-6553576) | 0x07DA       |     16 |              2 |
| [65535.77](#event-6553577) | 0x07EA       |     20 |              5 |
| [65535.78](#event-6553578) | 0x07FE       |     20 |              5 |
| [65535.79](#event-6553579) | 0x0812       |     17 |              3 |
| [65535.80](#event-6553580) | 0x0823       |     16 |              2 |
| [65535.81](#event-6553581) | 0x0833       |     16 |              2 |
| [65535.82](#event-6553582) | 0x0843       |     16 |              2 |
| [65535.83](#event-6553583) | 0x0853       |     16 |              2 |
| [65535.84](#event-6553584) | 0x0863       |     17 |              3 |
| [65535.85](#event-6553585) | 0x0874       |     20 |              5 |
| [65535.86](#event-6553586) | 0x0888       |     12 |              4 |
| [65535.87](#event-6553587) | 0x0894       |     16 |              2 |
| [65535.88](#event-6553588) | 0x08A4       |     16 |              2 |
| [65535.89](#event-6553589) | 0x08B4       |     16 |              2 |
| [65535.90](#event-6553590) | 0x08C4       |     16 |              2 |
| [65535.91](#event-6553591) | 0x08D4       |     16 |              2 |
| [65535.92](#event-6553592) | 0x08E4       |     16 |              2 |
| [65535.93](#event-6553593) | 0x08F4       |     16 |              2 |
| [65535.94](#event-6553594) | 0x0904       |     20 |              5 |
| [65535.95](#event-6553595) | 0x0918       |     20 |              5 |
| [65535.96](#event-6553596) | 0x092C       |     16 |              2 |
| [65535.97](#event-6553597) | 0x093C       |     16 |              2 |

## DAT References (imed_data)

|   Index | Hex Value   |   Dec Value |
|---------|-------------|-------------|
|       0 | 0x222F      |        8751 |
|       1 | 0x0032      |          50 |
|       2 | 0x2230      |        8752 |
|       3 | 0x2231      |        8753 |
|       4 | 0x2232      |        8754 |
|       5 | 0x2233      |        8755 |
|       6 | 0x2234      |        8756 |
|       7 | 0x2235      |        8757 |
|       8 | 0x2236      |        8758 |
|       9 | 0x2237      |        8759 |
|      10 | 0x2238      |        8760 |
|      11 | 0x2239      |        8761 |
|      12 | 0x223A      |        8762 |
|      13 | 0x0000      |           0 |
|      14 | 0x005A      |          90 |
|      15 | 0x18F8      |        6392 |
|      16 | 0x223B      |        8763 |
|      17 | 0x223C      |        8764 |
|      18 | 0x223D      |        8765 |
|      19 | 0x223E      |        8766 |
|      20 | 0x223F      |        8767 |
|      21 | 0x2242      |        8770 |
|      22 | 0x2243      |        8771 |
|      23 | 0x2240      |        8768 |
|      24 | 0x0001      |           1 |
|      25 | 0x2244      |        8772 |
|      26 | 0x069C      |        1692 |
|      27 | 0x069D      |        1693 |
|      28 | 0x069E      |        1694 |
|      29 | 0x2245      |        8773 |
|      30 | 0x2246      |        8774 |
|      31 | 0x2247      |        8775 |
|      32 | 0x2248      |        8776 |
|      33 | 0x2241      |        8769 |
|      34 | 0x1DB9      |        7609 |
|      35 | 0x234F      |        9039 |
|      36 | 0x2350      |        9040 |
|      37 | 0x2351      |        9041 |
|      38 | 0x2353      |        9043 |
|      39 | 0x0002      |           2 |
|      40 | 0x2352      |        9042 |
|      41 | 0x1DBA      |        7610 |
|      42 | 0x1DBB      |        7611 |
|      43 | 0x0079      |         121 |
|      44 | 0x0224      |         548 |
|      45 | 0x0076      |         118 |
|      46 | 0x1DBC      |        7612 |
|      47 | 0x1DBD      |        7613 |
|      48 | 0x1DBE      |        7614 |
|      49 | 0x1DBF      |        7615 |
|      50 | 0x1DC0      |        7616 |
|      51 | 0x1DC2      |        7618 |
|      52 | 0x1DC3      |        7619 |
|      53 | 0x1DC4      |        7620 |
|      54 | 0x00C9      |         201 |
|      55 | 0x1DC1      |        7617 |
|      56 | 0x2354      |        9044 |
|      57 | 0x000C      |          12 |
|      58 | 0xFFFED6C4  |  4294891204 |
|      59 | 0xFFFDEB5B  |  4294830939 |
|      60 | 0x000B      |          11 |
|      61 | 0xFFFE8B97  |  4294871959 |
|      62 | 0xFFFD9E68  |  4294811240 |
|      63 | 0xFFFF0D87  |  4294905223 |
|      64 | 0xFFFEA0EF  |  4294877423 |
|      65 | 0x176F      |        5999 |
|      66 | 0x0A3A      |        2618 |
|      67 | 0xFFFEB818  |  4294883352 |
|      68 | 0xFFFE098F  |  4294838671 |
|      69 | 0xFFFEF410  |  4294898704 |
|      70 | 0xFFFE85B9  |  4294870457 |
|      71 | 0xFFFEEC91  |  4294896785 |
|      72 | 0xFFFE6EA2  |  4294864546 |
|      73 | 0x0A2A      |        2602 |
|      74 | 0xFFFEE552  |  4294894930 |
|      75 | 0xFFFE3269  |  4294849129 |
|      76 | 0x0A39      |        2617 |
|      77 | 0x0045      |          69 |
|      78 | 0xFFFF2160  |  4294910304 |
|      79 | 0xFFFEA80E  |  4294879246 |
|      80 | 0x0A3D      |        2621 |
|      81 | 0x0A43      |        2627 |
|      82 | 0x004B      |          75 |
|      83 | 0xFFFFB20E  |  4294947342 |
|      84 | 0xFFFFAE2A  |  4294946346 |
|      85 | 0xFFFEDC35  |  4294892597 |
|      86 | 0xFFFE5D95  |  4294860181 |
|      87 | 0x0A47      |        2631 |
|      88 | 0x0055      |          85 |
|      89 | 0xFFFFB26F  |  4294947439 |
|      90 | 0xFFFFAB30  |  4294945584 |
|      91 | 0x000E      |          14 |
|      92 | 0xFFFF6C7D  |  4294929533 |
|      93 | 0xFFFF0AA4  |  4294904484 |
|      94 | 0xFFFFCBCA  |  4294953930 |
|      95 | 0x09E0      |        2528 |
|      96 | 0xFFFFFE3F  |  4294966847 |
|      97 | 0x0028      |          40 |
|      98 | 0x0029      |          41 |
|      99 | 0xFFFEEA26  |  4294896166 |
|     100 | 0xFFFE4F39  |  4294856505 |
|     101 | 0xFFFED8EC  |  4294891756 |
|     102 | 0xFFFE38BF  |  4294850751 |
|     103 | 0xFFFEC5BC  |  4294886844 |
|     104 | 0xFFFE1640  |  4294841920 |
|     105 | 0x03E7      |         999 |
|     106 | 0x0A33      |        2611 |
|     107 | 0x000D      |          13 |
|     108 | 0xFFFF04E1  |  4294903009 |
|     109 | 0xFFFE7108  |  4294865160 |
|     110 | 0x108C      |        4236 |
|     111 | 0x10F0      |        4336 |
|     112 | 0xFFFFC3F0  |  4294951920 |
|     113 | 0xFFFFA321  |  4294943521 |
|     114 | 0xFFFFFF9B  |  4294967195 |
|     115 | 0x000A      |          10 |
|     116 | 0x0A18      |        2584 |
|     117 | 0xFFFFFC21  |  4294966305 |
|     118 | 0x084B      |        2123 |
|     119 | 0x0008      |           8 |
|     120 | 0x0033      |          51 |
|     121 | 0xFFFF0DFA  |  4294905338 |
|     122 | 0xFFFE6C9D  |  4294864029 |
|     123 | 0xFFFEFBE3  |  4294900707 |
|     124 | 0xFFFE9775  |  4294874997 |
|     125 | 0xFFFF19CD  |  4294908365 |
|     126 | 0xFFFEAC62  |  4294880354 |
|     127 | 0xFFFECE8B  |  4294889099 |
|     128 | 0xFFFE3998  |  4294850968 |
|     129 | 0x0F9F      |        3999 |
|     130 | 0x0A17      |        2583 |
|     131 | 0xFFFFD965  |  4294957413 |
|     132 | 0xFFFFD99E  |  4294957470 |
|     133 | 0x0009      |           9 |
|     134 | 0xFFFEE68C  |  4294895244 |
|     135 | 0xFFFE6FBD  |  4294864829 |
|     136 | 0xFFFFE923  |  4294961443 |
|     137 | 0xFFFFEBBA  |  4294962106 |
|     138 | 0xFFFF4F66  |  4294922086 |
|     139 | 0xFFFEA394  |  4294878100 |
|     140 | 0xFFFFE891  |  4294961297 |
|     141 | 0xFFFFB859  |  4294948953 |
|     142 | 0xFFFFDFA2  |  4294959010 |
|     143 | 0xFFFFB9ED  |  4294949357 |
|     144 | 0xFFFFBF3D  |  4294950717 |
|     145 | 0xFFFFF407  |  4294964231 |
|     146 | 0xFFFFE105  |  4294959365 |
|     147 | 0x003C      |          60 |
|     148 | 0x0A40      |        2624 |
|     149 | 0xFFFF6A1D  |  4294928925 |
|     150 | 0xFFFEF858  |  4294899800 |
|     151 | 0xFFFFEA43  |  4294961731 |
|     152 | 0xFFFFF8F4  |  4294965492 |
|     153 | 0xFFFFF533  |  4294964531 |
|     154 | 0x13C3      |        5059 |

## String References

- **6392**: Obtained $0 gil.
- **7609**: Welcome to Neptune's Spire!
- **7610**: Well? [Show me your goods./I'm fine./ ]
- **7611**: Have a nice day.
- **7612**: Ordinary travelers don't ask about Tenshodo. You really want to know? Fine, allow me to explain.
- **7613**: Tenshodo is a, er, special trading organization, founded years ago by Grandmaster Aldo's father. We only conduct trades with our exclusive membership.
- **7614**: Thanks to our monopolies on certain trade routes, we offer a wide selection of rare goods.
- **7615**: Applicants for membership are required to obtain $1 from an active member in good standing, or acquire $6 from our branch in Bastok.
- **7616**: Please show me your $1, or your $3, and I will issue $6.
- **7617**: Yes, that $3 is valid. You are now a member of the Tenshodo. Feel free to browse our Jeuno headquarters, or our convenient Bastok branch.
- **7618**: Yes, that $1 is valid. You are now a member of the Tenshodo. In addition to our Jeuno headquarters, we also have a branch in Bastok.
- **7619**: Please take the door in the back. You may invite a new member with your $1, or you may dispose of it in any way you please.
- **7620**: We look forward to serving you.
- **8751**: What, you want to explore the towers of Pso'Xja? That shouldn't be a problem. We recently opened those ruins to all explorers.
- **8752**: However, the Tenshodo is currently conducting an investigation on the deeper areas of the central tower, and we can't have pesky adventurers running around getting in our way.
- **8753**: Though...if you were to scratch our backs, we wouldn't have any problems scratching yours.
- **8754**: It just happens that the Tenshodo is searching for a certain jewel that is very popular in the Near Eastern countries.
- **8755**: What kind of gem is it? Hmmm... Well, they're thin, hexagonally shaped, and come in rare colors like carmine and cyan. I heard that rich people like to decorate their turbans with them.
- **8756**: They even say that sometimes a strange light shoots from their centers, though I've never seen it happen.
- **8757**: Luckily for you, we've been finding a lot of those jewels in the other towers of Pso'Xja.
- **8758**: Unfortunately, some strange device in that place seems to weaken even the strongest of our members. That's where you come in.
- **8759**: Now, if you were to find one of those and bring it back to me, I'm pretty sure I could convince the boss to allow you access to the central tower.
- **8760**: If you want to have access to the deeper parts of Pso'Xja, bring me a jewel from the ruins and I'll see what I can do.
- **8761**: Hmmm... This looks a lot like what we're dealing in, but the color just isn't right. We want something a little more "exotic" than the regular colored gems.
- **8762**: Well, what do you know? This is exactly what we've been looking for.
- **8763**: You know, you're not a bad treasure hunter. Did you ever think of joining the Tenshodo?
- **8764**: Ah, but you'd probably get bored really quick. Anyway, take this pass. It will give you access to the more "sensitive" areas of the ruins.
- **8765**: But I'll warn you one last time--the central tower ruins are still under investigation.
- **8766**: Don't expect any search parties if you happen to get lost.
- **8767**: Welcome to Neptune's Spire! Hm? Oh, I remember you. You're the one that brought us that gem from Pso'Xja. After you brought it in, we learned that... Wait, how do I know I can trust you?
- **8768**: Can you keep a secret? [My lips are sealed./I can't guarantee anything.]
- **8769**: Then the Tenshodo can't trust you with this info. See you around, [mister/lady].
- **8770**: Welcome to Neptune's... Ah, look who's back. Did you find some glue for your loose lips?
- **8771**: If I find out you told anyone about this, I'll... Well, you know what we'll do to you. Anyway, about those Pso'Xja gems...
- **8772**: Well, it looks like those jewels aren't just any rocks that fell out of some hole in a mountain.
- **8773**: Thanks to adventurers like you, we've learned that there are three types: gray, cyan, and carmine--and they all harbor some kind of strange energy that's not found anywhere else on Vana'diel.
- **8774**: Also, we've recently received reports from our colleagues in Bastok that the chief Republican engineer, Cid, has been collecting the gems.
- **8775**: Now, if we can find out what power those chips truly hold, the Tenshodo could make a killing!
- **8776**: Oh, and of course you'll get your cut. You're not thinking we'd short-change you, are you?
- **9039**: I remember you. Don't tell me that the $3 I gave you has been collecting dust in your Mog House.
- **9040**: So, have you already been to the so-called "Shrouded Maw"? We've heard many different stories from adventurers who've tried to enter the strange portal that appears on that altar down there. According to some of our more reliable sources, the best way to get in is by using one of these $3 things.
- **9041**: Now, I could give you one if you want, but it's going to cost you. Hey, what did you expect? Anyway, bring me $2, and I'll provide you with what you need. Trrrust me!
- **9042**: I'm sorry, our next shipment of $5 won't be arriving until ( Earth time). Come back then and I'll get you the goods you're after.
- **9043**: Welcome! What can I do for you today?
- **9044**: Ah, $0. Here you are, [sir/ma'am]. Have a safe trip!

## Events

### Event 65535

#### Metadata

| Field        | Value   |
|--------------|---------|
| Entrypoint   | 0x0000  |
| Data Size    | 1 bytes |
| Instructions | 1       |

```
      00 01 02 03 04 05 06 07  08 09 0A 0B 0C 0D 0E 0F
      -- -- -- -- -- -- -- --  -- -- -- -- -- -- -- --
0000: 00                                                .               
```

#### Opcodes

```
  0: 0x0000 [0x00] END_REQSTACK()
```

### Event 54

#### Metadata

| Field        | Value     |
|--------------|-----------|
| Entrypoint   | 0x0001    |
| Data Size    | 121 bytes |
| Instructions | 30        |

```
      00 01 02 03 04 05 06 07  08 09 0A 0B 0C 0D 0E 0F
      -- -- -- -- -- -- -- --  -- -- -- -- -- -- -- --
0000:    20 01 42 1E F0 FF FF  7F 6F 70 1D 00 80 23 66    .B.....op...#f
0010: 01 80 F8 FF FF 7F F8 FF  FF 7F 74 68 6B 31 1D 02  ..........thk1..
0020: 80 23 66 01 80 F8 FF FF  7F F8 FF FF 7F 74 68 6B  .#f..........thk
0030: 32 1D 03 80 23 1D 04 80  23 1D 05 80 23 66 01 80  2...#...#...#f..
0040: F8 FF FF 7F F8 FF FF 7F  74 6C 6B 30 1D 06 80 23  ........tlk0...#
0050: 1D 07 80 23 1D 08 80 23  66 01 80 F8 FF FF 7F F8  ...#...#f.......
0060: FF FF 7F 74 6C 6B 31 1D  09 80 23 53 F8 FF FF 7F  ...tlk1...#S....
0070: F8 FF FF 7F 74 6C 6B 31  21 00                    ....tlk1!.      
```

#### Opcodes

```
  0: 0x0001 [0x20] SET_CLI_EVENT_UC_FLAG: Lock player control
  1: 0x0003 [0x42] SET_CLI_EVENT_CANCEL_DATA()
  2: 0x0004 [0x1E] EventEntity looks at LocalPlayer and starts talking
  3: 0x0009 [0x6F] WAIT_FRAME_DELAY: Yield until WaitTime reaches zero
  4: 0x000A [0x70] WAIT_ENTITY_RENDER_FLAG: Wait while EventEntity->Render.Flags3 bit 2 is set (cancel turn if not)
  5: 0x000B [0x1D] PRINT_EVENT_MESSAGE(message_id=8751*)
    → "What, you want to explore the towers of Pso'Xja? That shouldn't be a problem. We recently opened those ruins to all explorers."
  6: 0x000E [0x23] WAIT_FOR_DIALOG_INTERACTION
  7: 0x000F [0x66] LOAD_EXT_SCHEDULER_MAIN: Load scheduler "thk1" with entities [EventEntity, EventEntity], work=50*
  8: 0x001E [0x1D] PRINT_EVENT_MESSAGE(message_id=8752*)
    → "However, the Tenshodo is currently conducting an investigation on the deeper areas of the central tower, and we can't have pesky adventurers running around getting in our way."
  9: 0x0021 [0x23] WAIT_FOR_DIALOG_INTERACTION
 10: 0x0022 [0x66] LOAD_EXT_SCHEDULER_MAIN: Load scheduler "thk2" with entities [EventEntity, EventEntity], work=50*
 11: 0x0031 [0x1D] PRINT_EVENT_MESSAGE(message_id=8753*)
    → "Though...if you were to scratch our backs, we wouldn't have any problems scratching yours."
 12: 0x0034 [0x23] WAIT_FOR_DIALOG_INTERACTION
 13: 0x0035 [0x1D] PRINT_EVENT_MESSAGE(message_id=8754*)
    → "It just happens that the Tenshodo is searching for a certain jewel that is very popular in the Near Eastern countries."
 14: 0x0038 [0x23] WAIT_FOR_DIALOG_INTERACTION
 15: 0x0039 [0x1D] PRINT_EVENT_MESSAGE(message_id=8755*)
    → "What kind of gem is it? Hmmm... Well, they're thin, hexagonally shaped, and come in rare colors like carmine and cyan. I heard that rich people like to decorate their turbans with them."
 16: 0x003C [0x23] WAIT_FOR_DIALOG_INTERACTION
 17: 0x003D [0x66] LOAD_EXT_SCHEDULER_MAIN: Load scheduler "tlk0" with entities [EventEntity, EventEntity], work=50*
 18: 0x004C [0x1D] PRINT_EVENT_MESSAGE(message_id=8756*)
    → "They even say that sometimes a strange light shoots from their centers, though I've never seen it happen."
 19: 0x004F [0x23] WAIT_FOR_DIALOG_INTERACTION
 20: 0x0050 [0x1D] PRINT_EVENT_MESSAGE(message_id=8757*)
    → "Luckily for you, we've been finding a lot of those jewels in the other towers of Pso'Xja."
 21: 0x0053 [0x23] WAIT_FOR_DIALOG_INTERACTION
 22: 0x0054 [0x1D] PRINT_EVENT_MESSAGE(message_id=8758*)
    → "Unfortunately, some strange device in that place seems to weaken even the strongest of our members. That's where you come in."
 23: 0x0057 [0x23] WAIT_FOR_DIALOG_INTERACTION
 24: 0x0058 [0x66] LOAD_EXT_SCHEDULER_MAIN: Load scheduler "tlk1" with entities [EventEntity, EventEntity], work=50*
 25: 0x0067 [0x1D] PRINT_EVENT_MESSAGE(message_id=8759*)
    → "Now, if you were to find one of those and bring it back to me, I'm pretty sure I could convince the boss to allow you access to the central tower."
 26: 0x006A [0x23] WAIT_FOR_DIALOG_INTERACTION
 27: 0x006B [0x53] WAIT_SCHEDULER_TASK: Wait for scheduler "tlk1" with entities [EventEntity, EventEntity]
 28: 0x0078 [0x21] END_EVENT
 29: 0x0079 [0x00] END_REQSTACK()
```

### Event 53

#### Metadata

| Field        | Value    |
|--------------|----------|
| Entrypoint   | 0x007A   |
| Data Size    | 13 bytes |
| Instructions | 7        |

```
      00 01 02 03 04 05 06 07  08 09 0A 0B 0C 0D 0E 0F
      -- -- -- -- -- -- -- --  -- -- -- -- -- -- -- --
0070:                                1E F0 FF FF 7F 6F            .....o
0080: 70 1D 0A 80 23 21 00                              p...#!.         
```

#### Opcodes

```
  0: 0x007A [0x1E] EventEntity looks at LocalPlayer and starts talking
  1: 0x007F [0x6F] WAIT_FRAME_DELAY: Yield until WaitTime reaches zero
  2: 0x0080 [0x70] WAIT_ENTITY_RENDER_FLAG: Wait while EventEntity->Render.Flags3 bit 2 is set (cancel turn if not)
  3: 0x0081 [0x1D] PRINT_EVENT_MESSAGE(message_id=8760*)
    → "If you want to have access to the deeper parts of Pso'Xja, bring me a jewel from the ruins and I'll see what I can do."
  4: 0x0084 [0x23] WAIT_FOR_DIALOG_INTERACTION
  5: 0x0085 [0x21] END_EVENT
  6: 0x0086 [0x00] END_REQSTACK()
```

### Event 51

#### Metadata

| Field        | Value    |
|--------------|----------|
| Entrypoint   | 0x0087   |
| Data Size    | 13 bytes |
| Instructions | 7        |

```
      00 01 02 03 04 05 06 07  08 09 0A 0B 0C 0D 0E 0F
      -- -- -- -- -- -- -- --  -- -- -- -- -- -- -- --
0080:                      1E  F0 FF FF 7F 6F 70 1D 0B         .....op..
0090: 80 23 21 00                                       .#!.            
```

#### Opcodes

```
  0: 0x0087 [0x1E] EventEntity looks at LocalPlayer and starts talking
  1: 0x008C [0x6F] WAIT_FRAME_DELAY: Yield until WaitTime reaches zero
  2: 0x008D [0x70] WAIT_ENTITY_RENDER_FLAG: Wait while EventEntity->Render.Flags3 bit 2 is set (cancel turn if not)
  3: 0x008E [0x1D] PRINT_EVENT_MESSAGE(message_id=8761*)
    → "Hmmm... This looks a lot like what we're dealing in, but the color just isn't right. We want something a little more "exotic" than the regular colored gems."
  4: 0x0091 [0x23] WAIT_FOR_DIALOG_INTERACTION
  5: 0x0092 [0x21] END_EVENT
  6: 0x0093 [0x00] END_REQSTACK()
```

### Event 52

#### Metadata

| Field        | Value    |
|--------------|----------|
| Entrypoint   | 0x0094   |
| Data Size    | 85 bytes |
| Instructions | 25       |

```
      00 01 02 03 04 05 06 07  08 09 0A 0B 0C 0D 0E 0F
      -- -- -- -- -- -- -- --  -- -- -- -- -- -- -- --
0090:             03 00 00 02  10 20 01 42 1E F0 FF FF      ..... .B....
00A0: 7F 6F 70 1D 0C 80 23 02  00 00 0D 80 02 D7 00 66  .op...#........f
00B0: 01 80 F8 FF FF 7F F8 FF  FF 7F 70 61 73 30 1C 0E  ..........pas0..
00C0: 80 03 02 10 00 00 48 0F  80 23 53 F8 FF FF 7F F8  ......H..#S.....
00D0: FF FF 7F 70 61 73 30 1D  10 80 23 1D 11 80 23 1D  ...pas0...#...#.
00E0: 12 80 23 1D 13 80 23 21  00                       ..#...#!.       
```

#### Opcodes

```
  0: 0x0094 [0x03] ExtData[1]->WorkLocal[0] = Work_Zone[2]
  1: 0x0099 [0x20] SET_CLI_EVENT_UC_FLAG: Lock player control
  2: 0x009B [0x42] SET_CLI_EVENT_CANCEL_DATA()
  3: 0x009C [0x1E] EventEntity looks at LocalPlayer and starts talking
  4: 0x00A1 [0x6F] WAIT_FRAME_DELAY: Yield until WaitTime reaches zero
  5: 0x00A2 [0x70] WAIT_ENTITY_RENDER_FLAG: Wait while EventEntity->Render.Flags3 bit 2 is set (cancel turn if not)
  6: 0x00A3 [0x1D] PRINT_EVENT_MESSAGE(message_id=8762*)
    → "Well, what do you know? This is exactly what we've been looking for."
  7: 0x00A6 [0x23] WAIT_FOR_DIALOG_INTERACTION
  8: 0x00A7 [0x02] IF !(ExtData[1]->WorkLocal[0] <= 0*) GOTO 0x00D7
  9: 0x00AF [0x66] LOAD_EXT_SCHEDULER_MAIN: Load scheduler "pas0" with entities [EventEntity, EventEntity], work=50*
 10: 0x00BE [0x1C] WAIT(90* ticks)
 11: 0x00C1 [0x03] Work_Zone[2] = ExtData[1]->WorkLocal[0]
 12: 0x00C6 [0x48] [System] [6392*]:
    → "Obtained $0 gil."
 13: 0x00C9 [0x23] WAIT_FOR_DIALOG_INTERACTION
 14: 0x00CA [0x53] WAIT_SCHEDULER_TASK: Wait for scheduler "pas0" with entities [EventEntity, EventEntity]
 15: 0x00D7 [0x1D] PRINT_EVENT_MESSAGE(message_id=8763*)
    → "You know, you're not a bad treasure hunter. Did you ever think of joining the Tenshodo?"
 16: 0x00DA [0x23] WAIT_FOR_DIALOG_INTERACTION
 17: 0x00DB [0x1D] PRINT_EVENT_MESSAGE(message_id=8764*)
    → "Ah, but you'd probably get bored really quick. Anyway, take this pass. It will give you access to the more "sensitive" areas of the ruins."
 18: 0x00DE [0x23] WAIT_FOR_DIALOG_INTERACTION
 19: 0x00DF [0x1D] PRINT_EVENT_MESSAGE(message_id=8765*)
    → "But I'll warn you one last time--the central tower ruins are still under investigation."
 20: 0x00E2 [0x23] WAIT_FOR_DIALOG_INTERACTION
 21: 0x00E3 [0x1D] PRINT_EVENT_MESSAGE(message_id=8766*)
    → "Don't expect any search parties if you happen to get lost."
 22: 0x00E6 [0x23] WAIT_FOR_DIALOG_INTERACTION
 23: 0x00E7 [0x21] END_EVENT
 24: 0x00E8 [0x00] END_REQSTACK()
```

### Event 169

#### Metadata

| Field        | Value     |
|--------------|-----------|
| Entrypoint   | 0x00E9    |
| Data Size    | 191 bytes |
| Instructions | 45        |

```
      00 01 02 03 04 05 06 07  08 09 0A 0B 0C 0D 0E 0F
      -- -- -- -- -- -- -- --  -- -- -- -- -- -- -- --
00E0:                             20 01 1E F0 FF FF 7F            ......
00F0: 6F 70 66 01 80 F8 FF FF  7F F8 FF FF 7F 74 6C 6B  opf..........tlk
0100: 30 02 02 10 0D 80 00 10  01 1D 14 80 23 01 1C 01  0...........#...
0110: 42 1D 15 80 23 1D 16 80  23 01 3F 01 66 01 80 F8  B...#...#.?.f...
0120: FF FF 7F F8 FF FF 7F 74  6C 6B 31 06 01 10 24 17  .......tlk1...$.
0130: 80 18 80 0D 80 25 02 00  10 0D 80 00 92 01 42 66  .....%........Bf
0140: 01 80 F8 FF FF 7F F8 FF  FF 7F 74 6C 6B 30 1D 19  ..........tlk0..
0150: 80 23 03 02 10 1A 80 03  03 10 1B 80 03 04 10 1C  .#..............
0160: 80 1D 1D 80 23 66 01 80  F8 FF FF 7F F8 FF FF 7F  ....#f..........
0170: 74 68 6B 31 1D 1E 80 23  1D 1F 80 23 66 01 80 F8  thk1...#...#f...
0180: FF FF 7F F8 FF FF 7F 74  6C 6B 30 1D 20 80 23 01  .......tlk0. .#.
0190: A6 01 02 00 10 18 80 00  A6 01 1D 21 80 23 03 01  ...........!.#..
01A0: 10 18 80 01 A6 01 21 00                           ......!.        
```

#### Opcodes

```
  0: 0x00E9 [0x20] SET_CLI_EVENT_UC_FLAG: Lock player control
  1: 0x00EB [0x1E] EventEntity looks at LocalPlayer and starts talking
  2: 0x00F0 [0x6F] WAIT_FRAME_DELAY: Yield until WaitTime reaches zero
  3: 0x00F1 [0x70] WAIT_ENTITY_RENDER_FLAG: Wait while EventEntity->Render.Flags3 bit 2 is set (cancel turn if not)
  4: 0x00F2 [0x66] LOAD_EXT_SCHEDULER_MAIN: Load scheduler "tlk0" with entities [EventEntity, EventEntity], work=50*
  5: 0x0101 [0x02] IF !(Work_Zone[2] == 0*) GOTO 0x0110
  6: 0x0109 [0x1D] PRINT_EVENT_MESSAGE(message_id=8767*)
    → "Welcome to Neptune's Spire! Hm? Oh, I remember you. You're the one that brought us that gem from Pso'Xja. After you brought it in, we learned that... Wait, how do I know I can trust you?"
  7: 0x010C [0x23] WAIT_FOR_DIALOG_INTERACTION
  8: 0x010D [0x01] GOTO 0x011C
  9: 0x0110 [0x42] SET_CLI_EVENT_CANCEL_DATA()
 10: 0x0111 [0x1D] PRINT_EVENT_MESSAGE(message_id=8770*)
    → "Welcome to Neptune's... Ah, look who's back. Did you find some glue for your loose lips?"
 11: 0x0114 [0x23] WAIT_FOR_DIALOG_INTERACTION
 12: 0x0115 [0x1D] PRINT_EVENT_MESSAGE(message_id=8771*)
    → "If I find out you told anyone about this, I'll... Well, you know what we'll do to you. Anyway, about those Pso'Xja gems..."
 13: 0x0118 [0x23] WAIT_FOR_DIALOG_INTERACTION
 14: 0x0119 [0x01] GOTO 0x013F

SUBROUTINE_011C:
 15: 0x011C [0x66] LOAD_EXT_SCHEDULER_MAIN: Load scheduler "tlk1" with entities [EventEntity, EventEntity], work=50*
 16: 0x012B [0x06] Work_Zone[1] = 0
 17: 0x012E [0x24] CREATE_DIALOG(message_id=8768*, default_option=1*, option_flags=0*)
    → "Can you keep a secret? [My lips are sealed./I can't guarantee anything.]"
 18: 0x0135 [0x25] WAIT_DIALOG_SELECT()
 19: 0x0136 [0x02] IF !(Work_Zone[0] == 0*) GOTO 0x0192
 20: 0x013E [0x42] SET_CLI_EVENT_CANCEL_DATA()

SUBROUTINE_013F:
 21: 0x013F [0x66] LOAD_EXT_SCHEDULER_MAIN: Load scheduler "tlk0" with entities [EventEntity, EventEntity], work=50*
 22: 0x014E [0x1D] PRINT_EVENT_MESSAGE(message_id=8772*)
    → "Well, it looks like those jewels aren't just any rocks that fell out of some hole in a mountain."
 23: 0x0151 [0x23] WAIT_FOR_DIALOG_INTERACTION
 24: 0x0152 [0x03] Work_Zone[2] = 1692*
 25: 0x0157 [0x03] Work_Zone[3] = 1693*
 26: 0x015C [0x03] Work_Zone[4] = 1694*
 27: 0x0161 [0x1D] PRINT_EVENT_MESSAGE(message_id=8773*)
    → "Thanks to adventurers like you, we've learned that there are three types: gray, cyan, and carmine--and they all harbor some kind of strange energy that's not found anywhere else on Vana'diel."
 28: 0x0164 [0x23] WAIT_FOR_DIALOG_INTERACTION
 29: 0x0165 [0x66] LOAD_EXT_SCHEDULER_MAIN: Load scheduler "thk1" with entities [EventEntity, EventEntity], work=50*
 30: 0x0174 [0x1D] PRINT_EVENT_MESSAGE(message_id=8774*)
    → "Also, we've recently received reports from our colleagues in Bastok that the chief Republican engineer, Cid, has been collecting the gems."
 31: 0x0177 [0x23] WAIT_FOR_DIALOG_INTERACTION
 32: 0x0178 [0x1D] PRINT_EVENT_MESSAGE(message_id=8775*)
    → "Now, if we can find out what power those chips truly hold, the Tenshodo could make a killing!"
 33: 0x017B [0x23] WAIT_FOR_DIALOG_INTERACTION
 34: 0x017C [0x66] LOAD_EXT_SCHEDULER_MAIN: Load scheduler "tlk0" with entities [EventEntity, EventEntity], work=50*
 35: 0x018B [0x1D] PRINT_EVENT_MESSAGE(message_id=8776*)
    → "Oh, and of course you'll get your cut. You're not thinking we'd short-change you, are you?"
 36: 0x018E [0x23] WAIT_FOR_DIALOG_INTERACTION
 37: 0x018F [0x01] GOTO 0x01A6
 38: 0x0192 [0x02] IF !(Work_Zone[0] == 1*) GOTO 0x01A6
 39: 0x019A [0x1D] PRINT_EVENT_MESSAGE(message_id=8769*)
    → "Then the Tenshodo can't trust you with this info. See you around, [mister/lady]."
 40: 0x019D [0x23] WAIT_FOR_DIALOG_INTERACTION
 41: 0x019E [0x03] Work_Zone[1] = 1*
 42: 0x01A3 [0x01] GOTO 0x01A6

SUBROUTINE_01A6:
 43: 0x01A6 [0x21] END_EVENT
 44: 0x01A7 [0x00] END_REQSTACK()
```

### Event 106

#### Metadata

| Field        | Value     |
|--------------|-----------|
| Entrypoint   | 0x01A8    |
| Data Size    | 155 bytes |
| Instructions | 49        |

```
      00 01 02 03 04 05 06 07  08 09 0A 0B 0C 0D 0E 0F
      -- -- -- -- -- -- -- --  -- -- -- -- -- -- -- --
01A0:                          20 01 42 1E F0 FF FF 7F           .B.....
01B0: 1D 22 80 23 02 03 10 18  80 80 CF 01 1D 23 80 23  .".#.........#.#
01C0: 1D 24 80 23 1D 25 80 23  1D 26 80 23 01 E2 01 02  .$.#.%.#.&.#....
01D0: 03 10 27 80 80 E2 01 1D  28 80 23 1D 26 80 23 01  ..'.....(.#.&.#.
01E0: E2 01 24 29 80 18 80 02  10 25 02 00 10 0D 80 00  ..$).....%......
01F0: FA 01 03 01 10 0D 80 01  41 02 02 00 10 18 80 00  ........A.......
0200: 0E 02 1D 2A 80 23 03 01  10 18 80 01 41 02 02 00  ...*.#......A...
0210: 10 27 80 00 41 02 03 02  10 2B 80 03 03 10 2C 80  .'..A....+....,.
0220: 03 04 10 2D 80 1D 2E 80  23 1D 2F 80 23 1D 30 80  ...-....#./.#.0.
0230: 23 1D 31 80 23 1D 32 80  23 03 01 10 27 80 01 41  #.1.#.2.#...'..A
0240: 02 21 00                                          .!.             
```

#### Opcodes

```
  0: 0x01A8 [0x20] SET_CLI_EVENT_UC_FLAG: Lock player control
  1: 0x01AA [0x42] SET_CLI_EVENT_CANCEL_DATA()
  2: 0x01AB [0x1E] EventEntity looks at LocalPlayer and starts talking
  3: 0x01B0 [0x1D] PRINT_EVENT_MESSAGE(message_id=7609*)
    → "Welcome to Neptune's Spire!"
  4: 0x01B3 [0x23] WAIT_FOR_DIALOG_INTERACTION
  5: 0x01B4 [0x02] IF !(Work_Zone[3] == 1*) GOTO 0x01CF
  6: 0x01BC [0x1D] PRINT_EVENT_MESSAGE(message_id=9039*)
    → "I remember you. Don't tell me that the $3 I gave you has been collecting dust in your Mog House."
  7: 0x01BF [0x23] WAIT_FOR_DIALOG_INTERACTION
  8: 0x01C0 [0x1D] PRINT_EVENT_MESSAGE(message_id=9040*)
    → "So, have you already been to the so-called "Shrouded Maw"? We've heard many different stories from adventurers who've tried to enter the strange portal that appears on that altar down there. According to some of our more reliable sources, the best way to get in is by using one of these $3 things."
  9: 0x01C3 [0x23] WAIT_FOR_DIALOG_INTERACTION
 10: 0x01C4 [0x1D] PRINT_EVENT_MESSAGE(message_id=9041*)
    → "Now, I could give you one if you want, but it's going to cost you. Hey, what did you expect? Anyway, bring me $2, and I'll provide you with what you need. Trrrust me!"
 11: 0x01C7 [0x23] WAIT_FOR_DIALOG_INTERACTION
 12: 0x01C8 [0x1D] PRINT_EVENT_MESSAGE(message_id=9043*)
    → "Welcome! What can I do for you today?"
 13: 0x01CB [0x23] WAIT_FOR_DIALOG_INTERACTION
 14: 0x01CC [0x01] GOTO 0x01E2
 15: 0x01CF [0x02] IF !(Work_Zone[3] == 2*) GOTO 0x01E2
 16: 0x01D7 [0x1D] PRINT_EVENT_MESSAGE(message_id=9042*)
    → "I'm sorry, our next shipment of $5 won't be arriving until ( Earth time). Come back then and I'll get you the goods you're after."
 17: 0x01DA [0x23] WAIT_FOR_DIALOG_INTERACTION
 18: 0x01DB [0x1D] PRINT_EVENT_MESSAGE(message_id=9043*)
    → "Welcome! What can I do for you today?"
 19: 0x01DE [0x23] WAIT_FOR_DIALOG_INTERACTION
 20: 0x01DF [0x01] GOTO 0x01E2

SUBROUTINE_01E2:
 21: 0x01E2 [0x24] CREATE_DIALOG(message_id=7610*, default_option=1*, option_flags=Work_Zone[2])
    → "Well? [Show me your goods./I'm fine./ ]"
 22: 0x01E9 [0x25] WAIT_DIALOG_SELECT()
 23: 0x01EA [0x02] IF !(Work_Zone[0] == 0*) GOTO 0x01FA
 24: 0x01F2 [0x03] Work_Zone[1] = 0*
 25: 0x01F7 [0x01] GOTO 0x0241
 26: 0x01FA [0x02] IF !(Work_Zone[0] == 1*) GOTO 0x020E
 27: 0x0202 [0x1D] PRINT_EVENT_MESSAGE(message_id=7611*)
    → "Have a nice day."
 28: 0x0205 [0x23] WAIT_FOR_DIALOG_INTERACTION
 29: 0x0206 [0x03] Work_Zone[1] = 1*
 30: 0x020B [0x01] GOTO 0x0241
 31: 0x020E [0x02] IF !(Work_Zone[0] == 2*) GOTO 0x0241
 32: 0x0216 [0x03] Work_Zone[2] = 121*
 33: 0x021B [0x03] Work_Zone[3] = 548*
 34: 0x0220 [0x03] Work_Zone[4] = 118*
 35: 0x0225 [0x1D] PRINT_EVENT_MESSAGE(message_id=7612*)
    → "Ordinary travelers don't ask about Tenshodo. You really want to know? Fine, allow me to explain."
 36: 0x0228 [0x23] WAIT_FOR_DIALOG_INTERACTION
 37: 0x0229 [0x1D] PRINT_EVENT_MESSAGE(message_id=7613*)
    → "Tenshodo is a, er, special trading organization, founded years ago by Grandmaster Aldo's father. We only conduct trades with our exclusive membership."
 38: 0x022C [0x23] WAIT_FOR_DIALOG_INTERACTION
 39: 0x022D [0x1D] PRINT_EVENT_MESSAGE(message_id=7614*)
    → "Thanks to our monopolies on certain trade routes, we offer a wide selection of rare goods."
 40: 0x0230 [0x23] WAIT_FOR_DIALOG_INTERACTION
 41: 0x0231 [0x1D] PRINT_EVENT_MESSAGE(message_id=7615*)
    → "Applicants for membership are required to obtain $1 from an active member in good standing, or acquire $6 from our branch in Bastok."
 42: 0x0234 [0x23] WAIT_FOR_DIALOG_INTERACTION
 43: 0x0235 [0x1D] PRINT_EVENT_MESSAGE(message_id=7616*)
    → "Please show me your $1, or your $3, and I will issue $6."
 44: 0x0238 [0x23] WAIT_FOR_DIALOG_INTERACTION
 45: 0x0239 [0x03] Work_Zone[1] = 2*
 46: 0x023E [0x01] GOTO 0x0241

SUBROUTINE_0241:
 47: 0x0241 [0x21] END_EVENT
 48: 0x0242 [0x00] END_REQSTACK()
```

### Event 108

#### Metadata

| Field        | Value    |
|--------------|----------|
| Entrypoint   | 0x0243   |
| Data Size    | 39 bytes |
| Instructions | 12       |

```
      00 01 02 03 04 05 06 07  08 09 0A 0B 0C 0D 0E 0F
      -- -- -- -- -- -- -- --  -- -- -- -- -- -- -- --
0240:          20 01 42 03 03  10 2C 80 1D 33 80 23 1D      .B...,..3.#.
0250: 34 80 23 1D 35 80 23 45  36 80 F0 FF FF 7F F0 FF  4.#.5.#E6.......
0260: FF 7F 71 73 74 63 0D 80  21 00                    ..qstc..!.      
```

#### Opcodes

```
  0: 0x0243 [0x20] SET_CLI_EVENT_UC_FLAG: Lock player control
  1: 0x0245 [0x42] SET_CLI_EVENT_CANCEL_DATA()
  2: 0x0246 [0x03] Work_Zone[3] = 548*
  3: 0x024B [0x1D] PRINT_EVENT_MESSAGE(message_id=7618*)
    → "Yes, that $1 is valid. You are now a member of the Tenshodo. In addition to our Jeuno headquarters, we also have a branch in Bastok."
  4: 0x024E [0x23] WAIT_FOR_DIALOG_INTERACTION
  5: 0x024F [0x1D] PRINT_EVENT_MESSAGE(message_id=7619*)
    → "Please take the door in the back. You may invite a new member with your $1, or you may dispose of it in any way you please."
  6: 0x0252 [0x23] WAIT_FOR_DIALOG_INTERACTION
  7: 0x0253 [0x1D] PRINT_EVENT_MESSAGE(message_id=7620*)
    → "We look forward to serving you."
  8: 0x0256 [0x23] WAIT_FOR_DIALOG_INTERACTION
  9: 0x0257 [0x45] LOAD_SCHEDULED_TASK: Load scheduler "qstc" with entities [LocalPlayer, LocalPlayer], work=[201*, 0*]
 10: 0x0268 [0x21] END_EVENT
 11: 0x0269 [0x00] END_REQSTACK()
```

### Event 107

#### Metadata

| Field        | Value    |
|--------------|----------|
| Entrypoint   | 0x026A   |
| Data Size    | 44 bytes |
| Instructions | 13       |

```
      00 01 02 03 04 05 06 07  08 09 0A 0B 0C 0D 0E 0F
      -- -- -- -- -- -- -- --  -- -- -- -- -- -- -- --
0260:                                20 01 42 03 02 10             .B...
0270: 2B 80 03 03 10 2C 80 1D  37 80 23 1D 34 80 23 1D  +....,..7.#.4.#.
0280: 35 80 23 45 36 80 F0 FF  FF 7F F0 FF FF 7F 71 73  5.#E6.........qs
0290: 74 63 0D 80 21 00                                 tc..!.          
```

#### Opcodes

```
  0: 0x026A [0x20] SET_CLI_EVENT_UC_FLAG: Lock player control
  1: 0x026C [0x42] SET_CLI_EVENT_CANCEL_DATA()
  2: 0x026D [0x03] Work_Zone[2] = 121*
  3: 0x0272 [0x03] Work_Zone[3] = 548*
  4: 0x0277 [0x1D] PRINT_EVENT_MESSAGE(message_id=7617*)
    → "Yes, that $3 is valid. You are now a member of the Tenshodo. Feel free to browse our Jeuno headquarters, or our convenient Bastok branch."
  5: 0x027A [0x23] WAIT_FOR_DIALOG_INTERACTION
  6: 0x027B [0x1D] PRINT_EVENT_MESSAGE(message_id=7619*)
    → "Please take the door in the back. You may invite a new member with your $1, or you may dispose of it in any way you please."
  7: 0x027E [0x23] WAIT_FOR_DIALOG_INTERACTION
  8: 0x027F [0x1D] PRINT_EVENT_MESSAGE(message_id=7620*)
    → "We look forward to serving you."
  9: 0x0282 [0x23] WAIT_FOR_DIALOG_INTERACTION
 10: 0x0283 [0x45] LOAD_SCHEDULED_TASK: Load scheduler "qstc" with entities [LocalPlayer, LocalPlayer], work=[201*, 0*]
 11: 0x0294 [0x21] END_EVENT
 12: 0x0295 [0x00] END_REQSTACK()
```

### Event 10047

#### Metadata

| Field        | Value    |
|--------------|----------|
| Entrypoint   | 0x0296   |
| Data Size    | 13 bytes |
| Instructions | 6        |

```
      00 01 02 03 04 05 06 07  08 09 0A 0B 0C 0D 0E 0F
      -- -- -- -- -- -- -- --  -- -- -- -- -- -- -- --
0290:                   42 1E  F0 FF FF 7F 1D 38 80 23        B......8.#
02A0: 21 00 00                                          !..             
```

#### Opcodes

```
  0: 0x0296 [0x42] SET_CLI_EVENT_CANCEL_DATA()
  1: 0x0297 [0x1E] EventEntity looks at LocalPlayer and starts talking
  2: 0x029C [0x1D] PRINT_EVENT_MESSAGE(message_id=9044*)
    → "Ah, $0. Here you are, [sir/ma'am]. Have a safe trip!"
  3: 0x029F [0x23] WAIT_FOR_DIALOG_INTERACTION
  4: 0x02A0 [0x21] END_EVENT
  5: 0x02A1 [0x00] END_REQSTACK()
```

#### Data or dead code:

```
# Dead code (unreachable instructions):
     0x02A2 [0x00] END_REQSTACK()
```

### Event 10094

#### Metadata

| Field        | Value   |
|--------------|---------|
| Entrypoint   | 0x02A3  |
| Data Size    | 5 bytes |
| Instructions | 2       |

```
      00 01 02 03 04 05 06 07  08 09 0A 0B 0C 0D 0E 0F
      -- -- -- -- -- -- -- --  -- -- -- -- -- -- -- --
02A0:          C0 18 80 00 00                              .....        
```

#### Opcodes

```
  0: 0x02A3 [0xC0] EventEntity->Render.Flags3 |= 0x1000 // Set bit 12 (from 1*)
  1: 0x02A6 [0x00] END_REQSTACK()
```

#### Data or dead code:

```
# Dead code (unreachable instructions):
     0x02A7 [0x00] END_REQSTACK()
```

### Event 65535.1

#### Metadata

| Field        | Value    |
|--------------|----------|
| Entrypoint   | 0x02A8   |
| Data Size    | 20 bytes |
| Instructions | 5        |

```
      00 01 02 03 04 05 06 07  08 09 0A 0B 0C 0D 0E 0F
      -- -- -- -- -- -- -- --  -- -- -- -- -- -- -- --
02A0:                          59 04 0B 50 0F 01 39 80          Y..P..9.
02B0: 1F 00 3A 80 3B 80 0D 80  1F 01 6F 00              ..:.;.....o.    
```

#### Opcodes

```
  0: 0x02A8 [0x59] UPDATE_ENTITY_DATA: Set Garnev (ID: 17780747/0x010F500B) main speed = 12* * 0.1
  1: 0x02B0 [0x1F] MOVE_ENTITY: EventEntity moves to X=-76.092*, Z=-136.357*, Y=0.000*
  2: 0x02B8 [0x1F] MOVE_ENTITY: Update entity position (mode=1)
  3: 0x02BA [0x6F] WAIT_FRAME_DELAY: Yield until WaitTime reaches zero
  4: 0x02BB [0x00] END_REQSTACK()
```

### Event 65535.2

#### Metadata

| Field        | Value    |
|--------------|----------|
| Entrypoint   | 0x02BC   |
| Data Size    | 20 bytes |
| Instructions | 5        |

```
      00 01 02 03 04 05 06 07  08 09 0A 0B 0C 0D 0E 0F
      -- -- -- -- -- -- -- --  -- -- -- -- -- -- -- --
02B0:                                      59 04 1D 50              Y..P
02C0: 0F 01 3C 80 1F 00 3D 80  3E 80 0D 80 1F 01 6F 00  ..<...=.>.....o.
```

#### Opcodes

```
  0: 0x02BC [0x59] UPDATE_ENTITY_DATA: Set Mataligeat (ID: 17780765/0x010F501D) main speed = 11* * 0.1
  1: 0x02C4 [0x1F] MOVE_ENTITY: EventEntity moves to X=-95.337*, Z=-156.056*, Y=0.000*
  2: 0x02CC [0x1F] MOVE_ENTITY: Update entity position (mode=1)
  3: 0x02CE [0x6F] WAIT_FRAME_DELAY: Yield until WaitTime reaches zero
  4: 0x02CF [0x00] END_REQSTACK()
```

### Event 65535.3

#### Metadata

| Field        | Value    |
|--------------|----------|
| Entrypoint   | 0x02D0   |
| Data Size    | 20 bytes |
| Instructions | 5        |

```
      00 01 02 03 04 05 06 07  08 09 0A 0B 0C 0D 0E 0F
      -- -- -- -- -- -- -- --  -- -- -- -- -- -- -- --
02D0: 59 04 1D 50 0F 01 3C 80  1F 00 3F 80 40 80 41 80  Y..P..<...?.@.A.
02E0: 1F 01 6F 00                                       ..o.            
```

#### Opcodes

```
  0: 0x02D0 [0x59] UPDATE_ENTITY_DATA: Set Mataligeat (ID: 17780765/0x010F501D) main speed = 11* * 0.1
  1: 0x02D8 [0x1F] MOVE_ENTITY: EventEntity moves to X=-62.073*, Z=-89.873*, Y=5.999*
  2: 0x02E0 [0x1F] MOVE_ENTITY: Update entity position (mode=1)
  3: 0x02E2 [0x6F] WAIT_FRAME_DELAY: Yield until WaitTime reaches zero
  4: 0x02E3 [0x00] END_REQSTACK()
```

### Event 65535.4

#### Metadata

| Field        | Value    |
|--------------|----------|
| Entrypoint   | 0x02E4   |
| Data Size    | 17 bytes |
| Instructions | 2        |

```
      00 01 02 03 04 05 06 07  08 09 0A 0B 0C 0D 0E 0F
      -- -- -- -- -- -- -- --  -- -- -- -- -- -- -- --
02E0:             5B 42 80 1D  50 0F 01 1D 50 0F 01 6F      [B..P...P..o
02F0: 70 30 30 00 00                                    p00..           
```

#### Opcodes

```
  0: 0x02E4 [0x5B] LOAD_EXT_SCHEDULER: Load scheduler "op00" with entities [Mataligeat (ID: 17780765/0x010F501D), Mataligeat (ID: 17780765/0x010F501D)], work=2618*
  1: 0x02F3 [0x00] END_REQSTACK()
```

#### Data or dead code:

```
# Dead code (unreachable instructions):
     0x02F4 [0x00] END_REQSTACK()
```

### Event 65535.5

#### Metadata

| Field        | Value    |
|--------------|----------|
| Entrypoint   | 0x02F5   |
| Data Size    | 20 bytes |
| Instructions | 5        |

```
      00 01 02 03 04 05 06 07  08 09 0A 0B 0C 0D 0E 0F
      -- -- -- -- -- -- -- --  -- -- -- -- -- -- -- --
02F0:                59 04 3A  50 0F 01 3C 80 1F 00 3D       Y.:P..<...=
0300: 80 3E 80 0D 80 1F 01 6F  00                       .>.....o.       
```

#### Opcodes

```
  0: 0x02F5 [0x59] UPDATE_ENTITY_DATA: Set Navisse (ID: 17780794/0x010F503A) main speed = 11* * 0.1
  1: 0x02FD [0x1F] MOVE_ENTITY: EventEntity moves to X=-95.337*, Z=-156.056*, Y=0.000*
  2: 0x0305 [0x1F] MOVE_ENTITY: Update entity position (mode=1)
  3: 0x0307 [0x6F] WAIT_FRAME_DELAY: Yield until WaitTime reaches zero
  4: 0x0308 [0x00] END_REQSTACK()
```

### Event 65535.6

#### Metadata

| Field        | Value    |
|--------------|----------|
| Entrypoint   | 0x0309   |
| Data Size    | 20 bytes |
| Instructions | 5        |

```
      00 01 02 03 04 05 06 07  08 09 0A 0B 0C 0D 0E 0F
      -- -- -- -- -- -- -- --  -- -- -- -- -- -- -- --
0300:                             59 04 2C 50 0F 01 39           Y.,P..9
0310: 80 1F 00 43 80 44 80 0D  80 1F 01 6F 00           ...C.D.....o.   
```

#### Opcodes

```
  0: 0x0309 [0x59] UPDATE_ENTITY_DATA: Set Jazmin (ID: 17780780/0x010F502C) main speed = 12* * 0.1
  1: 0x0311 [0x1F] MOVE_ENTITY: EventEntity moves to X=-83.944*, Z=-128.625*, Y=0.000*
  2: 0x0319 [0x1F] MOVE_ENTITY: Update entity position (mode=1)
  3: 0x031B [0x6F] WAIT_FRAME_DELAY: Yield until WaitTime reaches zero
  4: 0x031C [0x00] END_REQSTACK()
```

### Event 65535.7

#### Metadata

| Field        | Value    |
|--------------|----------|
| Entrypoint   | 0x031D   |
| Data Size    | 19 bytes |
| Instructions | 4        |

```
      00 01 02 03 04 05 06 07  08 09 0A 0B 0C 0D 0E 0F
      -- -- -- -- -- -- -- --  -- -- -- -- -- -- -- --
0310:                                         59 04 2C               Y.,
0320: 50 0F 01 3C 80 1F 00 45  80 46 80 41 80 1F 01 00  P..<...E.F.A....
```

#### Opcodes

```
  0: 0x031D [0x59] UPDATE_ENTITY_DATA: Set Jazmin (ID: 17780780/0x010F502C) main speed = 11* * 0.1
  1: 0x0325 [0x1F] MOVE_ENTITY: EventEntity moves to X=-68.592*, Z=-96.839*, Y=5.999*
  2: 0x032D [0x1F] MOVE_ENTITY: Update entity position (mode=1)
  3: 0x032F [0x00] END_REQSTACK()
```

### Event 65535.8

#### Metadata

| Field        | Value    |
|--------------|----------|
| Entrypoint   | 0x0330   |
| Data Size    | 19 bytes |
| Instructions | 4        |

```
      00 01 02 03 04 05 06 07  08 09 0A 0B 0C 0D 0E 0F
      -- -- -- -- -- -- -- --  -- -- -- -- -- -- -- --
0330: 59 04 2C 50 0F 01 3C 80  1F 00 47 80 48 80 41 80  Y.,P..<...G.H.A.
0340: 1F 01 00                                          ...             
```

#### Opcodes

```
  0: 0x0330 [0x59] UPDATE_ENTITY_DATA: Set Jazmin (ID: 17780780/0x010F502C) main speed = 11* * 0.1
  1: 0x0338 [0x1F] MOVE_ENTITY: EventEntity moves to X=-70.511*, Z=-102.750*, Y=5.999*
  2: 0x0340 [0x1F] MOVE_ENTITY: Update entity position (mode=1)
  3: 0x0342 [0x00] END_REQSTACK()
```

### Event 65535.9

#### Metadata

| Field        | Value    |
|--------------|----------|
| Entrypoint   | 0x0343   |
| Data Size    | 16 bytes |
| Instructions | 2        |

```
      00 01 02 03 04 05 06 07  08 09 0A 0B 0C 0D 0E 0F
      -- -- -- -- -- -- -- --  -- -- -- -- -- -- -- --
0340:          5B 49 80 2C 50  0F 01 2C 50 0F 01 6F 70     [I.,P..,P..op
0350: 30 30 00                                          00.             
```

#### Opcodes

```
  0: 0x0343 [0x5B] LOAD_EXT_SCHEDULER: Load scheduler "op00" with entities [Jazmin (ID: 17780780/0x010F502C), Jazmin (ID: 17780780/0x010F502C)], work=2602*
  1: 0x0352 [0x00] END_REQSTACK()
```

### Event 65535.10

#### Metadata

| Field        | Value    |
|--------------|----------|
| Entrypoint   | 0x0353   |
| Data Size    | 16 bytes |
| Instructions | 2        |

```
      00 01 02 03 04 05 06 07  08 09 0A 0B 0C 0D 0E 0F
      -- -- -- -- -- -- -- --  -- -- -- -- -- -- -- --
0350:          5B 49 80 2C 50  0F 01 2C 50 0F 01 6F 70     [I.,P..,P..op
0360: 30 31 00                                          01.             
```

#### Opcodes

```
  0: 0x0353 [0x5B] LOAD_EXT_SCHEDULER: Load scheduler "op01" with entities [Jazmin (ID: 17780780/0x010F502C), Jazmin (ID: 17780780/0x010F502C)], work=2602*
  1: 0x0362 [0x00] END_REQSTACK()
```

### Event 65535.11

#### Metadata

| Field        | Value    |
|--------------|----------|
| Entrypoint   | 0x0363   |
| Data Size    | 20 bytes |
| Instructions | 5        |

```
      00 01 02 03 04 05 06 07  08 09 0A 0B 0C 0D 0E 0F
      -- -- -- -- -- -- -- --  -- -- -- -- -- -- -- --
0360:          59 04 2C 50 0F  01 3C 80 1F 00 4A 80 4B     Y.,P..<...J.K
0370: 80 41 80 1F 01 6F 00                              .A...o.         
```

#### Opcodes

```
  0: 0x0363 [0x59] UPDATE_ENTITY_DATA: Set Jazmin (ID: 17780780/0x010F502C) main speed = 11* * 0.1
  1: 0x036B [0x1F] MOVE_ENTITY: EventEntity moves to X=-72.366*, Z=-118.167*, Y=5.999*
  2: 0x0373 [0x1F] MOVE_ENTITY: Update entity position (mode=1)
  3: 0x0375 [0x6F] WAIT_FRAME_DELAY: Yield until WaitTime reaches zero
  4: 0x0376 [0x00] END_REQSTACK()
```

### Event 65535.12

#### Metadata

| Field        | Value    |
|--------------|----------|
| Entrypoint   | 0x0377   |
| Data Size    | 16 bytes |
| Instructions | 2        |

```
      00 01 02 03 04 05 06 07  08 09 0A 0B 0C 0D 0E 0F
      -- -- -- -- -- -- -- --  -- -- -- -- -- -- -- --
0370:                      5B  4C 80 2C 50 0F 01 2C 50         [L.,P..,P
0380: 0F 01 6F 70 61 30 00                              ..opa0.         
```

#### Opcodes

```
  0: 0x0377 [0x5B] LOAD_EXT_SCHEDULER: Load scheduler "opa0" with entities [Jazmin (ID: 17780780/0x010F502C), Jazmin (ID: 17780780/0x010F502C)], work=2617*
  1: 0x0386 [0x00] END_REQSTACK()
```

### Event 65535.13

#### Metadata

| Field        | Value    |
|--------------|----------|
| Entrypoint   | 0x0387   |
| Data Size    | 16 bytes |
| Instructions | 2        |

```
      00 01 02 03 04 05 06 07  08 09 0A 0B 0C 0D 0E 0F
      -- -- -- -- -- -- -- --  -- -- -- -- -- -- -- --
0380:                      5B  4C 80 2C 50 0F 01 2C 50         [L.,P..,P
0390: 0F 01 6F 70 61 31 00                              ..opa1.         
```

#### Opcodes

```
  0: 0x0387 [0x5B] LOAD_EXT_SCHEDULER: Load scheduler "opa1" with entities [Jazmin (ID: 17780780/0x010F502C), Jazmin (ID: 17780780/0x010F502C)], work=2617*
  1: 0x0396 [0x00] END_REQSTACK()
```

### Event 65535.14

#### Metadata

| Field        | Value    |
|--------------|----------|
| Entrypoint   | 0x0397   |
| Data Size    | 16 bytes |
| Instructions | 2        |

```
      00 01 02 03 04 05 06 07  08 09 0A 0B 0C 0D 0E 0F
      -- -- -- -- -- -- -- --  -- -- -- -- -- -- -- --
0390:                      5B  4C 80 2C 50 0F 01 2C 50         [L.,P..,P
03A0: 0F 01 6F 70 61 32 00                              ..opa2.         
```

#### Opcodes

```
  0: 0x0397 [0x5B] LOAD_EXT_SCHEDULER: Load scheduler "opa2" with entities [Jazmin (ID: 17780780/0x010F502C), Jazmin (ID: 17780780/0x010F502C)], work=2617*
  1: 0x03A6 [0x00] END_REQSTACK()
```

### Event 65535.15

#### Metadata

| Field        | Value    |
|--------------|----------|
| Entrypoint   | 0x03A7   |
| Data Size    | 21 bytes |
| Instructions | 5        |

```
      00 01 02 03 04 05 06 07  08 09 0A 0B 0C 0D 0E 0F
      -- -- -- -- -- -- -- --  -- -- -- -- -- -- -- --
03A0:                      59  04 2E 50 0F 01 39 80 1F         Y..P..9..
03B0: 00 3A 80 3B 80 0D 80 1F  01 6F 00 00              .:.;.....o..    
```

#### Opcodes

```
  0: 0x03A7 [0x59] UPDATE_ENTITY_DATA: Set Bogharg (ID: 17780782/0x010F502E) main speed = 12* * 0.1
  1: 0x03AF [0x1F] MOVE_ENTITY: EventEntity moves to X=-76.092*, Z=-136.357*, Y=0.000*
  2: 0x03B7 [0x1F] MOVE_ENTITY: Update entity position (mode=1)
  3: 0x03B9 [0x6F] WAIT_FRAME_DELAY: Yield until WaitTime reaches zero
  4: 0x03BA [0x00] END_REQSTACK()
```

#### Data or dead code:

```
# Dead code (unreachable instructions):
     0x03BB [0x00] END_REQSTACK()
```

### Event 65535.16

#### Metadata

| Field        | Value    |
|--------------|----------|
| Entrypoint   | 0x03BC   |
| Data Size    | 16 bytes |
| Instructions | 2        |

```
      00 01 02 03 04 05 06 07  08 09 0A 0B 0C 0D 0E 0F
      -- -- -- -- -- -- -- --  -- -- -- -- -- -- -- --
03B0:                                      66 4D 80 2E              fM..
03C0: 50 0F 01 2E 50 0F 01 74  68 6B 31 00              P...P..thk1.    
```

#### Opcodes

```
  0: 0x03BC [0x66] LOAD_EXT_SCHEDULER_MAIN: Load scheduler "thk1" with entities [Bogharg (ID: 17780782/0x010F502E), Bogharg (ID: 17780782/0x010F502E)], work=69*
  1: 0x03CB [0x00] END_REQSTACK()
```

### Event 65535.17

#### Metadata

| Field        | Value    |
|--------------|----------|
| Entrypoint   | 0x03CC   |
| Data Size    | 16 bytes |
| Instructions | 2        |

```
      00 01 02 03 04 05 06 07  08 09 0A 0B 0C 0D 0E 0F
      -- -- -- -- -- -- -- --  -- -- -- -- -- -- -- --
03C0:                                      66 4D 80 2E              fM..
03D0: 50 0F 01 2E 50 0F 01 74  68 6B 32 00              P...P..thk2.    
```

#### Opcodes

```
  0: 0x03CC [0x66] LOAD_EXT_SCHEDULER_MAIN: Load scheduler "thk2" with entities [Bogharg (ID: 17780782/0x010F502E), Bogharg (ID: 17780782/0x010F502E)], work=69*
  1: 0x03DB [0x00] END_REQSTACK()
```

### Event 65535.18

#### Metadata

| Field        | Value    |
|--------------|----------|
| Entrypoint   | 0x03DC   |
| Data Size    | 20 bytes |
| Instructions | 5        |

```
      00 01 02 03 04 05 06 07  08 09 0A 0B 0C 0D 0E 0F
      -- -- -- -- -- -- -- --  -- -- -- -- -- -- -- --
03D0:                                      59 04 2E 50              Y..P
03E0: 0F 01 39 80 1F 00 4E 80  4F 80 41 80 1F 01 6F 00  ..9...N.O.A...o.
```

#### Opcodes

```
  0: 0x03DC [0x59] UPDATE_ENTITY_DATA: Set Bogharg (ID: 17780782/0x010F502E) main speed = 12* * 0.1
  1: 0x03E4 [0x1F] MOVE_ENTITY: EventEntity moves to X=-56.992*, Z=-88.050*, Y=5.999*
  2: 0x03EC [0x1F] MOVE_ENTITY: Update entity position (mode=1)
  3: 0x03EE [0x6F] WAIT_FRAME_DELAY: Yield until WaitTime reaches zero
  4: 0x03EF [0x00] END_REQSTACK()
```

### Event 65535.19

#### Metadata

| Field        | Value    |
|--------------|----------|
| Entrypoint   | 0x03F0   |
| Data Size    | 17 bytes |
| Instructions | 2        |

```
      00 01 02 03 04 05 06 07  08 09 0A 0B 0C 0D 0E 0F
      -- -- -- -- -- -- -- --  -- -- -- -- -- -- -- --
03F0: 5B 50 80 2E 50 0F 01 2E  50 0F 01 6F 70 30 30 00  [P..P...P..op00.
0400: 00                                                .               
```

#### Opcodes

```
  0: 0x03F0 [0x5B] LOAD_EXT_SCHEDULER: Load scheduler "op00" with entities [Bogharg (ID: 17780782/0x010F502E), Bogharg (ID: 17780782/0x010F502E)], work=2621*
  1: 0x03FF [0x00] END_REQSTACK()
```

#### Data or dead code:

```
# Dead code (unreachable instructions):
     0x0400 [0x00] END_REQSTACK()
```

### Event 65535.20

#### Metadata

| Field        | Value    |
|--------------|----------|
| Entrypoint   | 0x0401   |
| Data Size    | 20 bytes |
| Instructions | 5        |

```
      00 01 02 03 04 05 06 07  08 09 0A 0B 0C 0D 0E 0F
      -- -- -- -- -- -- -- --  -- -- -- -- -- -- -- --
0400:    59 04 31 50 0F 01 3C  80 1F 00 43 80 44 80 0D   Y.1P..<...C.D..
0410: 80 1F 01 6F 00                                    ...o.           
```

#### Opcodes

```
  0: 0x0401 [0x59] UPDATE_ENTITY_DATA: Set Nakho Jawantal (ID: 17780785/0x010F5031) main speed = 11* * 0.1
  1: 0x0409 [0x1F] MOVE_ENTITY: EventEntity moves to X=-83.944*, Z=-128.625*, Y=0.000*
  2: 0x0411 [0x1F] MOVE_ENTITY: Update entity position (mode=1)
  3: 0x0413 [0x6F] WAIT_FRAME_DELAY: Yield until WaitTime reaches zero
  4: 0x0414 [0x00] END_REQSTACK()
```

### Event 65535.21

#### Metadata

| Field        | Value    |
|--------------|----------|
| Entrypoint   | 0x0415   |
| Data Size    | 16 bytes |
| Instructions | 2        |

```
      00 01 02 03 04 05 06 07  08 09 0A 0B 0C 0D 0E 0F
      -- -- -- -- -- -- -- --  -- -- -- -- -- -- -- --
0410:                5B 51 80  12 50 0F 01 12 50 0F 01       [Q..P...P..
0420: 6F 70 61 30 00                                    opa0.           
```

#### Opcodes

```
  0: 0x0415 [0x5B] LOAD_EXT_SCHEDULER: Load scheduler "opa0" with entities [Tovrutaux (ID: 17780754/0x010F5012), Tovrutaux (ID: 17780754/0x010F5012)], work=2627*
  1: 0x0424 [0x00] END_REQSTACK()
```

### Event 65535.22

#### Metadata

| Field        | Value    |
|--------------|----------|
| Entrypoint   | 0x0425   |
| Data Size    | 16 bytes |
| Instructions | 2        |

```
      00 01 02 03 04 05 06 07  08 09 0A 0B 0C 0D 0E 0F
      -- -- -- -- -- -- -- --  -- -- -- -- -- -- -- --
0420:                5B 51 80  12 50 0F 01 12 50 0F 01       [Q..P...P..
0430: 6F 70 61 31 00                                    opa1.           
```

#### Opcodes

```
  0: 0x0425 [0x5B] LOAD_EXT_SCHEDULER: Load scheduler "opa1" with entities [Tovrutaux (ID: 17780754/0x010F5012), Tovrutaux (ID: 17780754/0x010F5012)], work=2627*
  1: 0x0434 [0x00] END_REQSTACK()
```

### Event 65535.23

#### Metadata

| Field        | Value    |
|--------------|----------|
| Entrypoint   | 0x0435   |
| Data Size    | 16 bytes |
| Instructions | 2        |

```
      00 01 02 03 04 05 06 07  08 09 0A 0B 0C 0D 0E 0F
      -- -- -- -- -- -- -- --  -- -- -- -- -- -- -- --
0430:                5B 51 80  12 50 0F 01 12 50 0F 01       [Q..P...P..
0440: 6F 70 61 32 00                                    opa2.           
```

#### Opcodes

```
  0: 0x0435 [0x5B] LOAD_EXT_SCHEDULER: Load scheduler "opa2" with entities [Tovrutaux (ID: 17780754/0x010F5012), Tovrutaux (ID: 17780754/0x010F5012)], work=2627*
  1: 0x0444 [0x00] END_REQSTACK()
```

### Event 65535.24

#### Metadata

| Field        | Value    |
|--------------|----------|
| Entrypoint   | 0x0445   |
| Data Size    | 16 bytes |
| Instructions | 2        |

```
      00 01 02 03 04 05 06 07  08 09 0A 0B 0C 0D 0E 0F
      -- -- -- -- -- -- -- --  -- -- -- -- -- -- -- --
0440:                5B 52 80  12 50 0F 01 12 50 0F 01       [R..P...P..
0450: 74 68 6B 31 00                                    thk1.           
```

#### Opcodes

```
  0: 0x0445 [0x5B] LOAD_EXT_SCHEDULER: Load scheduler "thk1" with entities [Tovrutaux (ID: 17780754/0x010F5012), Tovrutaux (ID: 17780754/0x010F5012)], work=75*
  1: 0x0454 [0x00] END_REQSTACK()
```

### Event 65535.25

#### Metadata

| Field        | Value    |
|--------------|----------|
| Entrypoint   | 0x0455   |
| Data Size    | 16 bytes |
| Instructions | 2        |

```
      00 01 02 03 04 05 06 07  08 09 0A 0B 0C 0D 0E 0F
      -- -- -- -- -- -- -- --  -- -- -- -- -- -- -- --
0450:                5B 52 80  12 50 0F 01 12 50 0F 01       [R..P...P..
0460: 74 68 6B 32 00                                    thk2.           
```

#### Opcodes

```
  0: 0x0455 [0x5B] LOAD_EXT_SCHEDULER: Load scheduler "thk2" with entities [Tovrutaux (ID: 17780754/0x010F5012), Tovrutaux (ID: 17780754/0x010F5012)], work=75*
  1: 0x0464 [0x00] END_REQSTACK()
```

### Event 65535.26

#### Metadata

| Field        | Value    |
|--------------|----------|
| Entrypoint   | 0x0465   |
| Data Size    | 16 bytes |
| Instructions | 2        |

```
      00 01 02 03 04 05 06 07  08 09 0A 0B 0C 0D 0E 0F
      -- -- -- -- -- -- -- --  -- -- -- -- -- -- -- --
0460:                5B 52 80  12 50 0F 01 12 50 0F 01       [R..P...P..
0470: 74 6C 6B 30 00                                    tlk0.           
```

#### Opcodes

```
  0: 0x0465 [0x5B] LOAD_EXT_SCHEDULER: Load scheduler "tlk0" with entities [Tovrutaux (ID: 17780754/0x010F5012), Tovrutaux (ID: 17780754/0x010F5012)], work=75*
  1: 0x0474 [0x00] END_REQSTACK()
```

### Event 65535.27

#### Metadata

| Field        | Value    |
|--------------|----------|
| Entrypoint   | 0x0475   |
| Data Size    | 16 bytes |
| Instructions | 2        |

```
      00 01 02 03 04 05 06 07  08 09 0A 0B 0C 0D 0E 0F
      -- -- -- -- -- -- -- --  -- -- -- -- -- -- -- --
0470:                5B 52 80  12 50 0F 01 12 50 0F 01       [R..P...P..
0480: 74 6C 6B 31 00                                    tlk1.           
```

#### Opcodes

```
  0: 0x0475 [0x5B] LOAD_EXT_SCHEDULER: Load scheduler "tlk1" with entities [Tovrutaux (ID: 17780754/0x010F5012), Tovrutaux (ID: 17780754/0x010F5012)], work=75*
  1: 0x0484 [0x00] END_REQSTACK()
```

### Event 65535.28

#### Metadata

| Field        | Value    |
|--------------|----------|
| Entrypoint   | 0x0485   |
| Data Size    | 12 bytes |
| Instructions | 4        |

```
      00 01 02 03 04 05 06 07  08 09 0A 0B 0C 0D 0E 0F
      -- -- -- -- -- -- -- --  -- -- -- -- -- -- -- --
0480:                1F 00 53  80 54 80 0D 80 1F 01 6F       ..S.T.....o
0490: 00                                                .               
```

#### Opcodes

```
  0: 0x0485 [0x1F] MOVE_ENTITY: EventEntity moves to X=-19.954*, Z=-20.950*, Y=0.000*
  1: 0x048D [0x1F] MOVE_ENTITY: Update entity position (mode=1)
  2: 0x048F [0x6F] WAIT_FRAME_DELAY: Yield until WaitTime reaches zero
  3: 0x0490 [0x00] END_REQSTACK()
```

### Event 65535.29

#### Metadata

| Field        | Value    |
|--------------|----------|
| Entrypoint   | 0x0491   |
| Data Size    | 20 bytes |
| Instructions | 5        |

```
      00 01 02 03 04 05 06 07  08 09 0A 0B 0C 0D 0E 0F
      -- -- -- -- -- -- -- --  -- -- -- -- -- -- -- --
0490:    59 04 13 50 0F 01 3C  80 1F 00 55 80 56 80 41   Y..P..<...U.V.A
04A0: 80 1F 01 6F 00                                    ...o.           
```

#### Opcodes

```
  0: 0x0491 [0x59] UPDATE_ENTITY_DATA: Set Seyaya (ID: 17780755/0x010F5013) main speed = 11* * 0.1
  1: 0x0499 [0x1F] MOVE_ENTITY: EventEntity moves to X=-74.699*, Z=-107.115*, Y=5.999*
  2: 0x04A1 [0x1F] MOVE_ENTITY: Update entity position (mode=1)
  3: 0x04A3 [0x6F] WAIT_FRAME_DELAY: Yield until WaitTime reaches zero
  4: 0x04A4 [0x00] END_REQSTACK()
```

### Event 65535.30

#### Metadata

| Field        | Value    |
|--------------|----------|
| Entrypoint   | 0x04A5   |
| Data Size    | 17 bytes |
| Instructions | 2        |

```
      00 01 02 03 04 05 06 07  08 09 0A 0B 0C 0D 0E 0F
      -- -- -- -- -- -- -- --  -- -- -- -- -- -- -- --
04A0:                5B 57 80  13 50 0F 01 13 50 0F 01       [W..P...P..
04B0: 6F 70 61 30 00 00                                 opa0..          
```

#### Opcodes

```
  0: 0x04A5 [0x5B] LOAD_EXT_SCHEDULER: Load scheduler "opa0" with entities [Seyaya (ID: 17780755/0x010F5013), Seyaya (ID: 17780755/0x010F5013)], work=2631*
  1: 0x04B4 [0x00] END_REQSTACK()
```

#### Data or dead code:

```
# Dead code (unreachable instructions):
     0x04B5 [0x00] END_REQSTACK()
```

### Event 65535.31

#### Metadata

| Field        | Value    |
|--------------|----------|
| Entrypoint   | 0x04B6   |
| Data Size    | 17 bytes |
| Instructions | 2        |

```
      00 01 02 03 04 05 06 07  08 09 0A 0B 0C 0D 0E 0F
      -- -- -- -- -- -- -- --  -- -- -- -- -- -- -- --
04B0:                   5B 57  80 13 50 0F 01 13 50 0F        [W..P...P.
04C0: 01 6F 70 61 31 00 00                              .opa1..         
```

#### Opcodes

```
  0: 0x04B6 [0x5B] LOAD_EXT_SCHEDULER: Load scheduler "opa1" with entities [Seyaya (ID: 17780755/0x010F5013), Seyaya (ID: 17780755/0x010F5013)], work=2631*
  1: 0x04C5 [0x00] END_REQSTACK()
```

#### Data or dead code:

```
# Dead code (unreachable instructions):
     0x04C6 [0x00] END_REQSTACK()
```

### Event 65535.32

#### Metadata

| Field        | Value    |
|--------------|----------|
| Entrypoint   | 0x04C7   |
| Data Size    | 16 bytes |
| Instructions | 2        |

```
      00 01 02 03 04 05 06 07  08 09 0A 0B 0C 0D 0E 0F
      -- -- -- -- -- -- -- --  -- -- -- -- -- -- -- --
04C0:                      5B  57 80 13 50 0F 01 13 50         [W..P...P
04D0: 0F 01 6F 70 61 32 00                              ..opa2.         
```

#### Opcodes

```
  0: 0x04C7 [0x5B] LOAD_EXT_SCHEDULER: Load scheduler "opa2" with entities [Seyaya (ID: 17780755/0x010F5013), Seyaya (ID: 17780755/0x010F5013)], work=2631*
  1: 0x04D6 [0x00] END_REQSTACK()
```

### Event 65535.33

#### Metadata

| Field        | Value    |
|--------------|----------|
| Entrypoint   | 0x04D7   |
| Data Size    | 16 bytes |
| Instructions | 2        |

```
      00 01 02 03 04 05 06 07  08 09 0A 0B 0C 0D 0E 0F
      -- -- -- -- -- -- -- --  -- -- -- -- -- -- -- --
04D0:                      5B  58 80 13 50 0F 01 13 50         [X..P...P
04E0: 0F 01 74 68 6B 31 00                              ..thk1.         
```

#### Opcodes

```
  0: 0x04D7 [0x5B] LOAD_EXT_SCHEDULER: Load scheduler "thk1" with entities [Seyaya (ID: 17780755/0x010F5013), Seyaya (ID: 17780755/0x010F5013)], work=85*
  1: 0x04E6 [0x00] END_REQSTACK()
```

### Event 65535.34

#### Metadata

| Field        | Value    |
|--------------|----------|
| Entrypoint   | 0x04E7   |
| Data Size    | 16 bytes |
| Instructions | 2        |

```
      00 01 02 03 04 05 06 07  08 09 0A 0B 0C 0D 0E 0F
      -- -- -- -- -- -- -- --  -- -- -- -- -- -- -- --
04E0:                      5B  58 80 13 50 0F 01 13 50         [X..P...P
04F0: 0F 01 74 68 6B 32 00                              ..thk2.         
```

#### Opcodes

```
  0: 0x04E7 [0x5B] LOAD_EXT_SCHEDULER: Load scheduler "thk2" with entities [Seyaya (ID: 17780755/0x010F5013), Seyaya (ID: 17780755/0x010F5013)], work=85*
  1: 0x04F6 [0x00] END_REQSTACK()
```

### Event 65535.35

#### Metadata

| Field        | Value    |
|--------------|----------|
| Entrypoint   | 0x04F7   |
| Data Size    | 16 bytes |
| Instructions | 2        |

```
      00 01 02 03 04 05 06 07  08 09 0A 0B 0C 0D 0E 0F
      -- -- -- -- -- -- -- --  -- -- -- -- -- -- -- --
04F0:                      5B  58 80 13 50 0F 01 13 50         [X..P...P
0500: 0F 01 74 6C 6B 30 00                              ..tlk0.         
```

#### Opcodes

```
  0: 0x04F7 [0x5B] LOAD_EXT_SCHEDULER: Load scheduler "tlk0" with entities [Seyaya (ID: 17780755/0x010F5013), Seyaya (ID: 17780755/0x010F5013)], work=85*
  1: 0x0506 [0x00] END_REQSTACK()
```

### Event 65535.36

#### Metadata

| Field        | Value    |
|--------------|----------|
| Entrypoint   | 0x0507   |
| Data Size    | 16 bytes |
| Instructions | 2        |

```
      00 01 02 03 04 05 06 07  08 09 0A 0B 0C 0D 0E 0F
      -- -- -- -- -- -- -- --  -- -- -- -- -- -- -- --
0500:                      5B  58 80 13 50 0F 01 13 50         [X..P...P
0510: 0F 01 74 6C 6B 65 00                              ..tlke.         
```

#### Opcodes

```
  0: 0x0507 [0x5B] LOAD_EXT_SCHEDULER: Load scheduler "tlke" with entities [Seyaya (ID: 17780755/0x010F5013), Seyaya (ID: 17780755/0x010F5013)], work=85*
  1: 0x0516 [0x00] END_REQSTACK()
```

### Event 65535.37

#### Metadata

| Field        | Value    |
|--------------|----------|
| Entrypoint   | 0x0517   |
| Data Size    | 16 bytes |
| Instructions | 2        |

```
      00 01 02 03 04 05 06 07  08 09 0A 0B 0C 0D 0E 0F
      -- -- -- -- -- -- -- --  -- -- -- -- -- -- -- --
0510:                      5B  58 80 13 50 0F 01 13 50         [X..P...P
0520: 0F 01 62 61 6E 30 00                              ..ban0.         
```

#### Opcodes

```
  0: 0x0517 [0x5B] LOAD_EXT_SCHEDULER: Load scheduler "ban0" with entities [Seyaya (ID: 17780755/0x010F5013), Seyaya (ID: 17780755/0x010F5013)], work=85*
  1: 0x0526 [0x00] END_REQSTACK()
```

### Event 65535.38

#### Metadata

| Field        | Value    |
|--------------|----------|
| Entrypoint   | 0x0527   |
| Data Size    | 13 bytes |
| Instructions | 4        |

```
      00 01 02 03 04 05 06 07  08 09 0A 0B 0C 0D 0E 0F
      -- -- -- -- -- -- -- --  -- -- -- -- -- -- -- --
0520:                      1F  00 59 80 5A 80 0D 80 1F         ..Y.Z....
0530: 01 6F 00 00                                       .o..            
```

#### Opcodes

```
  0: 0x0527 [0x1F] MOVE_ENTITY: EventEntity moves to X=-19.857*, Z=-21.712*, Y=0.000*
  1: 0x052F [0x1F] MOVE_ENTITY: Update entity position (mode=1)
  2: 0x0531 [0x6F] WAIT_FRAME_DELAY: Yield until WaitTime reaches zero
  3: 0x0532 [0x00] END_REQSTACK()
```

#### Data or dead code:

```
# Dead code (unreachable instructions):
     0x0533 [0x00] END_REQSTACK()
```

### Event 65535.39

#### Metadata

| Field        | Value    |
|--------------|----------|
| Entrypoint   | 0x0534   |
| Data Size    | 20 bytes |
| Instructions | 5        |

```
      00 01 02 03 04 05 06 07  08 09 0A 0B 0C 0D 0E 0F
      -- -- -- -- -- -- -- --  -- -- -- -- -- -- -- --
0530:             59 04 C0 50  0F 01 5B 80 1F 00 5C 80      Y..P..[...\.
0540: 5D 80 0D 80 1F 01 6F 00                           ].....o.        
```

#### Opcodes

```
  0: 0x0534 [0x59] UPDATE_ENTITY_DATA: Set Rakuru-Rakoru (ID: 17780928/0x010F50C0) main speed = 14* * 0.1
  1: 0x053C [0x1F] MOVE_ENTITY: EventEntity moves to X=-37.763*, Z=-62.812*, Y=0.000*
  2: 0x0544 [0x1F] MOVE_ENTITY: Update entity position (mode=1)
  3: 0x0546 [0x6F] WAIT_FRAME_DELAY: Yield until WaitTime reaches zero
  4: 0x0547 [0x00] END_REQSTACK()
```

### Event 65535.40

#### Metadata

| Field        | Value    |
|--------------|----------|
| Entrypoint   | 0x0548   |
| Data Size    | 12 bytes |
| Instructions | 4        |

```
      00 01 02 03 04 05 06 07  08 09 0A 0B 0C 0D 0E 0F
      -- -- -- -- -- -- -- --  -- -- -- -- -- -- -- --
0540:                          1F 00 5E 80 5F 80 60 80          ..^._.`.
0550: 1F 01 6F 00                                       ..o.            
```

#### Opcodes

```
  0: 0x0548 [0x1F] MOVE_ENTITY: EventEntity moves to X=-13.366*, Z=2.528*, Y=-0.449*
  1: 0x0550 [0x1F] MOVE_ENTITY: Update entity position (mode=1)
  2: 0x0552 [0x6F] WAIT_FRAME_DELAY: Yield until WaitTime reaches zero
  3: 0x0553 [0x00] END_REQSTACK()
```

### Event 65535.41

#### Metadata

| Field        | Value    |
|--------------|----------|
| Entrypoint   | 0x0554   |
| Data Size    | 16 bytes |
| Instructions | 2        |

```
      00 01 02 03 04 05 06 07  08 09 0A 0B 0C 0D 0E 0F
      -- -- -- -- -- -- -- --  -- -- -- -- -- -- -- --
0550:             66 61 80 C0  50 0F 01 C0 50 0F 01 74      fa..P...P..t
0560: 6C 6B 30 00                                       lk0.            
```

#### Opcodes

```
  0: 0x0554 [0x66] LOAD_EXT_SCHEDULER_MAIN: Load scheduler "tlk0" with entities [Rakuru-Rakoru (ID: 17780928/0x010F50C0), Rakuru-Rakoru (ID: 17780928/0x010F50C0)], work=40*
  1: 0x0563 [0x00] END_REQSTACK()
```

### Event 65535.42

#### Metadata

| Field        | Value    |
|--------------|----------|
| Entrypoint   | 0x0564   |
| Data Size    | 16 bytes |
| Instructions | 2        |

```
      00 01 02 03 04 05 06 07  08 09 0A 0B 0C 0D 0E 0F
      -- -- -- -- -- -- -- --  -- -- -- -- -- -- -- --
0560:             66 62 80 C0  50 0F 01 C0 50 0F 01 65      fb..P...P..e
0570: 68 6E 31 00                                       hn1.            
```

#### Opcodes

```
  0: 0x0564 [0x66] LOAD_EXT_SCHEDULER_MAIN: Load scheduler "ehn1" with entities [Rakuru-Rakoru (ID: 17780928/0x010F50C0), Rakuru-Rakoru (ID: 17780928/0x010F50C0)], work=41*
  1: 0x0573 [0x00] END_REQSTACK()
```

### Event 65535.43

#### Metadata

| Field        | Value    |
|--------------|----------|
| Entrypoint   | 0x0574   |
| Data Size    | 16 bytes |
| Instructions | 2        |

```
      00 01 02 03 04 05 06 07  08 09 0A 0B 0C 0D 0E 0F
      -- -- -- -- -- -- -- --  -- -- -- -- -- -- -- --
0570:             66 61 80 C0  50 0F 01 C0 50 0F 01 6D      fa..P...P..m
0580: 6F 6A 30 00                                       oj0.            
```

#### Opcodes

```
  0: 0x0574 [0x66] LOAD_EXT_SCHEDULER_MAIN: Load scheduler "moj0" with entities [Rakuru-Rakoru (ID: 17780928/0x010F50C0), Rakuru-Rakoru (ID: 17780928/0x010F50C0)], work=40*
  1: 0x0583 [0x00] END_REQSTACK()
```

### Event 65535.44

#### Metadata

| Field        | Value    |
|--------------|----------|
| Entrypoint   | 0x0584   |
| Data Size    | 20 bytes |
| Instructions | 5        |

```
      00 01 02 03 04 05 06 07  08 09 0A 0B 0C 0D 0E 0F
      -- -- -- -- -- -- -- --  -- -- -- -- -- -- -- --
0580:             59 04 C0 50  0F 01 5B 80 1F 00 63 80      Y..P..[...c.
0590: 64 80 41 80 1F 01 6F 00                           d.A...o.        
```

#### Opcodes

```
  0: 0x0584 [0x59] UPDATE_ENTITY_DATA: Set Rakuru-Rakoru (ID: 17780928/0x010F50C0) main speed = 14* * 0.1
  1: 0x058C [0x1F] MOVE_ENTITY: EventEntity moves to X=-71.130*, Z=-110.791*, Y=5.999*
  2: 0x0594 [0x1F] MOVE_ENTITY: Update entity position (mode=1)
  3: 0x0596 [0x6F] WAIT_FRAME_DELAY: Yield until WaitTime reaches zero
  4: 0x0597 [0x00] END_REQSTACK()
```

### Event 65535.45

#### Metadata

| Field        | Value    |
|--------------|----------|
| Entrypoint   | 0x0598   |
| Data Size    | 29 bytes |
| Instructions | 6        |

```
      00 01 02 03 04 05 06 07  08 09 0A 0B 0C 0D 0E 0F
      -- -- -- -- -- -- -- --  -- -- -- -- -- -- -- --
0590:                          59 04 C0 50 0F 01 5B 80          Y..P..[.
05A0: 1F 00 65 80 66 80 41 80  1F 01 5A 00 67 80 68 80  ..e.f.A...Z.g.h.
05B0: 69 80 5A 01 00                                    i.Z..           
```

#### Opcodes

```
  0: 0x0598 [0x59] UPDATE_ENTITY_DATA: Set Rakuru-Rakoru (ID: 17780928/0x010F50C0) main speed = 14* * 0.1
  1: 0x05A0 [0x1F] MOVE_ENTITY: EventEntity moves to X=-75.540*, Z=-116.545*, Y=5.999*
  2: 0x05A8 [0x1F] MOVE_ENTITY: Update entity position (mode=1)
  3: 0x05AA [0x5A] UPDATE_EVENT_POSITION: Set EventEntity MovePosition to X=-80.452*, Z=-125.376*, Y=0.999*
  4: 0x05B2 [0x5A] UPDATE_EVENT_POSITION: Move EventEntity incrementally towards MovePosition
  5: 0x05B4 [0x00] END_REQSTACK()
```

### Event 65535.46

#### Metadata

| Field        | Value    |
|--------------|----------|
| Entrypoint   | 0x05B5   |
| Data Size    | 17 bytes |
| Instructions | 2        |

```
      00 01 02 03 04 05 06 07  08 09 0A 0B 0C 0D 0E 0F
      -- -- -- -- -- -- -- --  -- -- -- -- -- -- -- --
05B0:                5B 6A 80  C0 50 0F 01 C0 50 0F 01       [j..P...P..
05C0: 62 6F 70 30 00 00                                 bop0..          
```

#### Opcodes

```
  0: 0x05B5 [0x5B] LOAD_EXT_SCHEDULER: Load scheduler "bop0" with entities [Rakuru-Rakoru (ID: 17780928/0x010F50C0), Rakuru-Rakoru (ID: 17780928/0x010F50C0)], work=2611*
  1: 0x05C4 [0x00] END_REQSTACK()
```

#### Data or dead code:

```
# Dead code (unreachable instructions):
     0x05C5 [0x00] END_REQSTACK()
```

### Event 65535.47

#### Metadata

| Field        | Value    |
|--------------|----------|
| Entrypoint   | 0x05C6   |
| Data Size    | 20 bytes |
| Instructions | 5        |

```
      00 01 02 03 04 05 06 07  08 09 0A 0B 0C 0D 0E 0F
      -- -- -- -- -- -- -- --  -- -- -- -- -- -- -- --
05C0:                   59 04  25 50 0F 01 6B 80 1F 00        Y.%P..k...
05D0: 43 80 44 80 0D 80 1F 01  6F 00                    C.D.....o.      
```

#### Opcodes

```
  0: 0x05C6 [0x59] UPDATE_ENTITY_DATA: Set Sutarara (ID: 17780773/0x010F5025) main speed = 13* * 0.1
  1: 0x05CE [0x1F] MOVE_ENTITY: EventEntity moves to X=-83.944*, Z=-128.625*, Y=0.000*
  2: 0x05D6 [0x1F] MOVE_ENTITY: Update entity position (mode=1)
  3: 0x05D8 [0x6F] WAIT_FRAME_DELAY: Yield until WaitTime reaches zero
  4: 0x05D9 [0x00] END_REQSTACK()
```

### Event 65535.48

#### Metadata

| Field        | Value    |
|--------------|----------|
| Entrypoint   | 0x05DA   |
| Data Size    | 20 bytes |
| Instructions | 5        |

```
      00 01 02 03 04 05 06 07  08 09 0A 0B 0C 0D 0E 0F
      -- -- -- -- -- -- -- --  -- -- -- -- -- -- -- --
05D0:                                59 04 25 50 0F 01            Y.%P..
05E0: 6B 80 1F 00 6C 80 6D 80  41 80 1F 01 6F 00        k...l.m.A...o.  
```

#### Opcodes

```
  0: 0x05DA [0x59] UPDATE_ENTITY_DATA: Set Sutarara (ID: 17780773/0x010F5025) main speed = 13* * 0.1
  1: 0x05E2 [0x1F] MOVE_ENTITY: EventEntity moves to X=-64.287*, Z=-102.136*, Y=5.999*
  2: 0x05EA [0x1F] MOVE_ENTITY: Update entity position (mode=1)
  3: 0x05EC [0x6F] WAIT_FRAME_DELAY: Yield until WaitTime reaches zero
  4: 0x05ED [0x00] END_REQSTACK()
```

### Event 65535.49

#### Metadata

| Field        | Value    |
|--------------|----------|
| Entrypoint   | 0x05EE   |
| Data Size    | 20 bytes |
| Instructions | 5        |

```
      00 01 02 03 04 05 06 07  08 09 0A 0B 0C 0D 0E 0F
      -- -- -- -- -- -- -- --  -- -- -- -- -- -- -- --
05E0:                                            59 04                Y.
05F0: 25 50 0F 01 6B 80 1F 00  6E 80 6F 80 0D 80 1F 01  %P..k...n.o.....
0600: 6F 00                                             o.              
```

#### Opcodes

```
  0: 0x05EE [0x59] UPDATE_ENTITY_DATA: Set Sutarara (ID: 17780773/0x010F5025) main speed = 13* * 0.1
  1: 0x05F6 [0x1F] MOVE_ENTITY: EventEntity moves to X=4.236*, Z=4.336*, Y=0.000*
  2: 0x05FE [0x1F] MOVE_ENTITY: Update entity position (mode=1)
  3: 0x0600 [0x6F] WAIT_FRAME_DELAY: Yield until WaitTime reaches zero
  4: 0x0601 [0x00] END_REQSTACK()
```

### Event 65535.50

#### Metadata

| Field        | Value    |
|--------------|----------|
| Entrypoint   | 0x0602   |
| Data Size    | 20 bytes |
| Instructions | 5        |

```
      00 01 02 03 04 05 06 07  08 09 0A 0B 0C 0D 0E 0F
      -- -- -- -- -- -- -- --  -- -- -- -- -- -- -- --
0600:       59 04 34 50 0F 01  39 80 1F 00 70 80 71 80    Y.4P..9...p.q.
0610: 72 80 1F 01 6F 00                                 r...o.          
```

#### Opcodes

```
  0: 0x0602 [0x59] UPDATE_ENTITY_DATA: Set Venika (ID: 17780788/0x010F5034) main speed = 12* * 0.1
  1: 0x060A [0x1F] MOVE_ENTITY: EventEntity moves to X=-15.376*, Z=-23.775*, Y=-0.101*
  2: 0x0612 [0x1F] MOVE_ENTITY: Update entity position (mode=1)
  3: 0x0614 [0x6F] WAIT_FRAME_DELAY: Yield until WaitTime reaches zero
  4: 0x0615 [0x00] END_REQSTACK()
```

### Event 65535.51

#### Metadata

| Field        | Value    |
|--------------|----------|
| Entrypoint   | 0x0616   |
| Data Size    | 20 bytes |
| Instructions | 5        |

```
      00 01 02 03 04 05 06 07  08 09 0A 0B 0C 0D 0E 0F
      -- -- -- -- -- -- -- --  -- -- -- -- -- -- -- --
0610:                   59 04  34 50 0F 01 73 80 1F 00        Y.4P..s...
0620: 6C 80 6D 80 41 80 1F 01  6F 00                    l.m.A...o.      
```

#### Opcodes

```
  0: 0x0616 [0x59] UPDATE_ENTITY_DATA: Set Venika (ID: 17780788/0x010F5034) main speed = 10* * 0.1
  1: 0x061E [0x1F] MOVE_ENTITY: EventEntity moves to X=-64.287*, Z=-102.136*, Y=5.999*
  2: 0x0626 [0x1F] MOVE_ENTITY: Update entity position (mode=1)
  3: 0x0628 [0x6F] WAIT_FRAME_DELAY: Yield until WaitTime reaches zero
  4: 0x0629 [0x00] END_REQSTACK()
```

### Event 65535.52

#### Metadata

| Field        | Value    |
|--------------|----------|
| Entrypoint   | 0x062A   |
| Data Size    | 16 bytes |
| Instructions | 2        |

```
      00 01 02 03 04 05 06 07  08 09 0A 0B 0C 0D 0E 0F
      -- -- -- -- -- -- -- --  -- -- -- -- -- -- -- --
0620:                                5B 74 80 34 50 0F            [t.4P.
0630: 01 34 50 0F 01 6F 70 62  30 00                    .4P..opb0.      
```

#### Opcodes

```
  0: 0x062A [0x5B] LOAD_EXT_SCHEDULER: Load scheduler "opb0" with entities [Venika (ID: 17780788/0x010F5034), Venika (ID: 17780788/0x010F5034)], work=2584*
  1: 0x0639 [0x00] END_REQSTACK()
```

### Event 65535.53

#### Metadata

| Field        | Value    |
|--------------|----------|
| Entrypoint   | 0x063A   |
| Data Size    | 16 bytes |
| Instructions | 2        |

```
      00 01 02 03 04 05 06 07  08 09 0A 0B 0C 0D 0E 0F
      -- -- -- -- -- -- -- --  -- -- -- -- -- -- -- --
0630:                                5B 74 80 34 50 0F            [t.4P.
0640: 01 34 50 0F 01 6F 70 62  31 00                    .4P..opb1.      
```

#### Opcodes

```
  0: 0x063A [0x5B] LOAD_EXT_SCHEDULER: Load scheduler "opb1" with entities [Venika (ID: 17780788/0x010F5034), Venika (ID: 17780788/0x010F5034)], work=2584*
  1: 0x0649 [0x00] END_REQSTACK()
```

### Event 65535.54

#### Metadata

| Field        | Value    |
|--------------|----------|
| Entrypoint   | 0x064A   |
| Data Size    | 20 bytes |
| Instructions | 5        |

```
      00 01 02 03 04 05 06 07  08 09 0A 0B 0C 0D 0E 0F
      -- -- -- -- -- -- -- --  -- -- -- -- -- -- -- --
0640:                                59 04 34 50 0F 01            Y.4P..
0650: 39 80 1F 00 75 80 76 80  0D 80 1F 01 6F 00        9...u.v.....o.  
```

#### Opcodes

```
  0: 0x064A [0x59] UPDATE_ENTITY_DATA: Set Venika (ID: 17780788/0x010F5034) main speed = 12* * 0.1
  1: 0x0652 [0x1F] MOVE_ENTITY: EventEntity moves to X=-0.991*, Z=2.123*, Y=0.000*
  2: 0x065A [0x1F] MOVE_ENTITY: Update entity position (mode=1)
  3: 0x065C [0x6F] WAIT_FRAME_DELAY: Yield until WaitTime reaches zero
  4: 0x065D [0x00] END_REQSTACK()
```

### Event 65535.55

#### Metadata

| Field        | Value    |
|--------------|----------|
| Entrypoint   | 0x065E   |
| Data Size    | 16 bytes |
| Instructions | 2        |

```
      00 01 02 03 04 05 06 07  08 09 0A 0B 0C 0D 0E 0F
      -- -- -- -- -- -- -- --  -- -- -- -- -- -- -- --
0650:                                            5B 74                [t
0660: 80 34 50 0F 01 34 50 0F  01 6F 70 63 30 00        .4P..4P..opc0.  
```

#### Opcodes

```
  0: 0x065E [0x5B] LOAD_EXT_SCHEDULER: Load scheduler "opc0" with entities [Venika (ID: 17780788/0x010F5034), Venika (ID: 17780788/0x010F5034)], work=2584*
  1: 0x066D [0x00] END_REQSTACK()
```

### Event 65535.56

#### Metadata

| Field        | Value    |
|--------------|----------|
| Entrypoint   | 0x066E   |
| Data Size    | 16 bytes |
| Instructions | 2        |

```
      00 01 02 03 04 05 06 07  08 09 0A 0B 0C 0D 0E 0F
      -- -- -- -- -- -- -- --  -- -- -- -- -- -- -- --
0660:                                            5B 74                [t
0670: 80 34 50 0F 01 34 50 0F  01 6F 70 63 31 00        .4P..4P..opc1.  
```

#### Opcodes

```
  0: 0x066E [0x5B] LOAD_EXT_SCHEDULER: Load scheduler "opc1" with entities [Venika (ID: 17780788/0x010F5034), Venika (ID: 17780788/0x010F5034)], work=2584*
  1: 0x067D [0x00] END_REQSTACK()
```

### Event 65535.57

#### Metadata

| Field        | Value    |
|--------------|----------|
| Entrypoint   | 0x067E   |
| Data Size    | 16 bytes |
| Instructions | 2        |

```
      00 01 02 03 04 05 06 07  08 09 0A 0B 0C 0D 0E 0F
      -- -- -- -- -- -- -- --  -- -- -- -- -- -- -- --
0670:                                            66 77                fw
0680: 80 36 50 0F 01 36 50 0F  01 61 77 77 30 00        .6P..6P..aww0.  
```

#### Opcodes

```
  0: 0x067E [0x66] LOAD_EXT_SCHEDULER_MAIN: Load scheduler "aww0" with entities [Kuah Dakonsa (ID: 17780790/0x010F5036), Kuah Dakonsa (ID: 17780790/0x010F5036)], work=8*
  1: 0x068D [0x00] END_REQSTACK()
```

### Event 65535.58

#### Metadata

| Field        | Value    |
|--------------|----------|
| Entrypoint   | 0x068E   |
| Data Size    | 16 bytes |
| Instructions | 2        |

```
      00 01 02 03 04 05 06 07  08 09 0A 0B 0C 0D 0E 0F
      -- -- -- -- -- -- -- --  -- -- -- -- -- -- -- --
0680:                                            66 78                fx
0690: 80 36 50 0F 01 36 50 0F  01 74 68 6B 31 00        .6P..6P..thk1.  
```

#### Opcodes

```
  0: 0x068E [0x66] LOAD_EXT_SCHEDULER_MAIN: Load scheduler "thk1" with entities [Kuah Dakonsa (ID: 17780790/0x010F5036), Kuah Dakonsa (ID: 17780790/0x010F5036)], work=51*
  1: 0x069D [0x00] END_REQSTACK()
```

### Event 65535.59

#### Metadata

| Field        | Value    |
|--------------|----------|
| Entrypoint   | 0x069E   |
| Data Size    | 21 bytes |
| Instructions | 5        |

```
      00 01 02 03 04 05 06 07  08 09 0A 0B 0C 0D 0E 0F
      -- -- -- -- -- -- -- --  -- -- -- -- -- -- -- --
0690:                                            59 04                Y.
06A0: 32 50 0F 01 39 80 1F 00  79 80 7A 80 41 80 1F 01  2P..9...y.z.A...
06B0: 6F 00 00                                          o..             
```

#### Opcodes

```
  0: 0x069E [0x59] UPDATE_ENTITY_DATA: Set Gurdern (ID: 17780786/0x010F5032) main speed = 12* * 0.1
  1: 0x06A6 [0x1F] MOVE_ENTITY: EventEntity moves to X=-61.958*, Z=-103.267*, Y=5.999*
  2: 0x06AE [0x1F] MOVE_ENTITY: Update entity position (mode=1)
  3: 0x06B0 [0x6F] WAIT_FRAME_DELAY: Yield until WaitTime reaches zero
  4: 0x06B1 [0x00] END_REQSTACK()
```

#### Data or dead code:

```
# Dead code (unreachable instructions):
     0x06B2 [0x00] END_REQSTACK()
```

### Event 65535.60

#### Metadata

| Field        | Value    |
|--------------|----------|
| Entrypoint   | 0x06B3   |
| Data Size    | 20 bytes |
| Instructions | 5        |

```
      00 01 02 03 04 05 06 07  08 09 0A 0B 0C 0D 0E 0F
      -- -- -- -- -- -- -- --  -- -- -- -- -- -- -- --
06B0:          59 04 32 50 0F  01 39 80 1F 00 7B 80 7C     Y.2P..9...{.|
06C0: 80 41 80 1F 01 6F 00                              .A...o.         
```

#### Opcodes

```
  0: 0x06B3 [0x59] UPDATE_ENTITY_DATA: Set Gurdern (ID: 17780786/0x010F5032) main speed = 12* * 0.1
  1: 0x06BB [0x1F] MOVE_ENTITY: EventEntity moves to X=-66.589*, Z=-92.299*, Y=5.999*
  2: 0x06C3 [0x1F] MOVE_ENTITY: Update entity position (mode=1)
  3: 0x06C5 [0x6F] WAIT_FRAME_DELAY: Yield until WaitTime reaches zero
  4: 0x06C6 [0x00] END_REQSTACK()
```

### Event 65535.61

#### Metadata

| Field        | Value    |
|--------------|----------|
| Entrypoint   | 0x06C7   |
| Data Size    | 20 bytes |
| Instructions | 5        |

```
      00 01 02 03 04 05 06 07  08 09 0A 0B 0C 0D 0E 0F
      -- -- -- -- -- -- -- --  -- -- -- -- -- -- -- --
06C0:                      59  04 32 50 0F 01 39 80 1F         Y.2P..9..
06D0: 00 7D 80 7E 80 41 80 1F  01 6F 00                 .}.~.A...o.     
```

#### Opcodes

```
  0: 0x06C7 [0x59] UPDATE_ENTITY_DATA: Set Gurdern (ID: 17780786/0x010F5032) main speed = 12* * 0.1
  1: 0x06CF [0x1F] MOVE_ENTITY: EventEntity moves to X=-58.931*, Z=-86.942*, Y=5.999*
  2: 0x06D7 [0x1F] MOVE_ENTITY: Update entity position (mode=1)
  3: 0x06D9 [0x6F] WAIT_FRAME_DELAY: Yield until WaitTime reaches zero
  4: 0x06DA [0x00] END_REQSTACK()
```

### Event 65535.62

#### Metadata

| Field        | Value    |
|--------------|----------|
| Entrypoint   | 0x06DB   |
| Data Size    | 17 bytes |
| Instructions | 2        |

```
      00 01 02 03 04 05 06 07  08 09 0A 0B 0C 0D 0E 0F
      -- -- -- -- -- -- -- --  -- -- -- -- -- -- -- --
06D0:                                   5B 50 80 32 50             [P.2P
06E0: 0F 01 32 50 0F 01 6F 70  30 30 00 00              ..2P..op00..    
```

#### Opcodes

```
  0: 0x06DB [0x5B] LOAD_EXT_SCHEDULER: Load scheduler "op00" with entities [Gurdern (ID: 17780786/0x010F5032), Gurdern (ID: 17780786/0x010F5032)], work=2621*
  1: 0x06EA [0x00] END_REQSTACK()
```

#### Data or dead code:

```
# Dead code (unreachable instructions):
     0x06EB [0x00] END_REQSTACK()
```

### Event 65535.63

#### Metadata

| Field        | Value    |
|--------------|----------|
| Entrypoint   | 0x06EC   |
| Data Size    | 20 bytes |
| Instructions | 5        |

```
      00 01 02 03 04 05 06 07  08 09 0A 0B 0C 0D 0E 0F
      -- -- -- -- -- -- -- --  -- -- -- -- -- -- -- --
06E0:                                      59 04 1C 50              Y..P
06F0: 0F 01 3C 80 1F 00 3D 80  3E 80 0D 80 1F 01 6F 00  ..<...=.>.....o.
```

#### Opcodes

```
  0: 0x06EC [0x59] UPDATE_ENTITY_DATA: Set Mertaire (ID: 17780764/0x010F501C) main speed = 11* * 0.1
  1: 0x06F4 [0x1F] MOVE_ENTITY: EventEntity moves to X=-95.337*, Z=-156.056*, Y=0.000*
  2: 0x06FC [0x1F] MOVE_ENTITY: Update entity position (mode=1)
  3: 0x06FE [0x6F] WAIT_FRAME_DELAY: Yield until WaitTime reaches zero
  4: 0x06FF [0x00] END_REQSTACK()
```

### Event 65535.64

#### Metadata

| Field        | Value    |
|--------------|----------|
| Entrypoint   | 0x0700   |
| Data Size    | 20 bytes |
| Instructions | 5        |

```
      00 01 02 03 04 05 06 07  08 09 0A 0B 0C 0D 0E 0F
      -- -- -- -- -- -- -- --  -- -- -- -- -- -- -- --
0700: 59 04 1C 50 0F 01 3C 80  1F 00 7F 80 80 80 81 80  Y..P..<.........
0710: 1F 01 6F 00                                       ..o.            
```

#### Opcodes

```
  0: 0x0700 [0x59] UPDATE_ENTITY_DATA: Set Mertaire (ID: 17780764/0x010F501C) main speed = 11* * 0.1
  1: 0x0708 [0x1F] MOVE_ENTITY: EventEntity moves to X=-78.197*, Z=-116.328*, Y=3.999*
  2: 0x0710 [0x1F] MOVE_ENTITY: Update entity position (mode=1)
  3: 0x0712 [0x6F] WAIT_FRAME_DELAY: Yield until WaitTime reaches zero
  4: 0x0713 [0x00] END_REQSTACK()
```

### Event 65535.65

#### Metadata

| Field        | Value    |
|--------------|----------|
| Entrypoint   | 0x0714   |
| Data Size    | 16 bytes |
| Instructions | 2        |

```
      00 01 02 03 04 05 06 07  08 09 0A 0B 0C 0D 0E 0F
      -- -- -- -- -- -- -- --  -- -- -- -- -- -- -- --
0710:             5B 82 80 1C  50 0F 01 1C 50 0F 01 6F      [...P...P..o
0720: 70 63 30 00                                       pc0.            
```

#### Opcodes

```
  0: 0x0714 [0x5B] LOAD_EXT_SCHEDULER: Load scheduler "opc0" with entities [Mertaire (ID: 17780764/0x010F501C), Mertaire (ID: 17780764/0x010F501C)], work=2583*
  1: 0x0723 [0x00] END_REQSTACK()
```

### Event 65535.66

#### Metadata

| Field        | Value    |
|--------------|----------|
| Entrypoint   | 0x0724   |
| Data Size    | 16 bytes |
| Instructions | 2        |

```
      00 01 02 03 04 05 06 07  08 09 0A 0B 0C 0D 0E 0F
      -- -- -- -- -- -- -- --  -- -- -- -- -- -- -- --
0720:             5B 82 80 1C  50 0F 01 1C 50 0F 01 6F      [...P...P..o
0730: 70 63 31 00                                       pc1.            
```

#### Opcodes

```
  0: 0x0724 [0x5B] LOAD_EXT_SCHEDULER: Load scheduler "opc1" with entities [Mertaire (ID: 17780764/0x010F501C), Mertaire (ID: 17780764/0x010F501C)], work=2583*
  1: 0x0733 [0x00] END_REQSTACK()
```

### Event 65535.67

#### Metadata

| Field        | Value    |
|--------------|----------|
| Entrypoint   | 0x0734   |
| Data Size    | 21 bytes |
| Instructions | 5        |

```
      00 01 02 03 04 05 06 07  08 09 0A 0B 0C 0D 0E 0F
      -- -- -- -- -- -- -- --  -- -- -- -- -- -- -- --
0730:             59 04 1C 50  0F 01 3C 80 1F 00 83 80      Y..P..<.....
0740: 84 80 0D 80 1F 01 6F 00  00                       ......o..       
```

#### Opcodes

```
  0: 0x0734 [0x59] UPDATE_ENTITY_DATA: Set Mertaire (ID: 17780764/0x010F501C) main speed = 11* * 0.1
  1: 0x073C [0x1F] MOVE_ENTITY: EventEntity moves to X=-9.883*, Z=-9.826*, Y=0.000*
  2: 0x0744 [0x1F] MOVE_ENTITY: Update entity position (mode=1)
  3: 0x0746 [0x6F] WAIT_FRAME_DELAY: Yield until WaitTime reaches zero
  4: 0x0747 [0x00] END_REQSTACK()
```

#### Data or dead code:

```
# Dead code (unreachable instructions):
     0x0748 [0x00] END_REQSTACK()
```

### Event 65535.68

#### Metadata

| Field        | Value    |
|--------------|----------|
| Entrypoint   | 0x0749   |
| Data Size    | 20 bytes |
| Instructions | 5        |

```
      00 01 02 03 04 05 06 07  08 09 0A 0B 0C 0D 0E 0F
      -- -- -- -- -- -- -- --  -- -- -- -- -- -- -- --
0740:                             59 04 1E 50 0F 01 85           Y..P...
0750: 80 1F 00 55 80 56 80 41  80 1F 01 6F 00           ...U.V.A...o.   
```

#### Opcodes

```
  0: 0x0749 [0x59] UPDATE_ENTITY_DATA: Set Bki Tbujhja (ID: 17780766/0x010F501E) main speed = 9* * 0.1
  1: 0x0751 [0x1F] MOVE_ENTITY: EventEntity moves to X=-74.699*, Z=-107.115*, Y=5.999*
  2: 0x0759 [0x1F] MOVE_ENTITY: Update entity position (mode=1)
  3: 0x075B [0x6F] WAIT_FRAME_DELAY: Yield until WaitTime reaches zero
  4: 0x075C [0x00] END_REQSTACK()
```

### Event 65535.69

#### Metadata

| Field        | Value    |
|--------------|----------|
| Entrypoint   | 0x075D   |
| Data Size    | 20 bytes |
| Instructions | 5        |

```
      00 01 02 03 04 05 06 07  08 09 0A 0B 0C 0D 0E 0F
      -- -- -- -- -- -- -- --  -- -- -- -- -- -- -- --
0750:                                         59 04 1E               Y..
0760: 50 0F 01 3C 80 1F 00 86  80 87 80 41 80 1F 01 6F  P..<.......A...o
0770: 00                                                .               
```

#### Opcodes

```
  0: 0x075D [0x59] UPDATE_ENTITY_DATA: Set Bki Tbujhja (ID: 17780766/0x010F501E) main speed = 11* * 0.1
  1: 0x0765 [0x1F] MOVE_ENTITY: EventEntity moves to X=-72.052*, Z=-102.467*, Y=5.999*
  2: 0x076D [0x1F] MOVE_ENTITY: Update entity position (mode=1)
  3: 0x076F [0x6F] WAIT_FRAME_DELAY: Yield until WaitTime reaches zero
  4: 0x0770 [0x00] END_REQSTACK()
```

### Event 65535.70

#### Metadata

| Field        | Value    |
|--------------|----------|
| Entrypoint   | 0x0771   |
| Data Size    | 16 bytes |
| Instructions | 2        |

```
      00 01 02 03 04 05 06 07  08 09 0A 0B 0C 0D 0E 0F
      -- -- -- -- -- -- -- --  -- -- -- -- -- -- -- --
0770:    66 77 80 1E 50 0F 01  1E 50 0F 01 61 77 77 30   fw..P...P..aww0
0780: 00                                                .               
```

#### Opcodes

```
  0: 0x0771 [0x66] LOAD_EXT_SCHEDULER_MAIN: Load scheduler "aww0" with entities [Bki Tbujhja (ID: 17780766/0x010F501E), Bki Tbujhja (ID: 17780766/0x010F501E)], work=8*
  1: 0x0780 [0x00] END_REQSTACK()
```

### Event 65535.71

#### Metadata

| Field        | Value    |
|--------------|----------|
| Entrypoint   | 0x0781   |
| Data Size    | 20 bytes |
| Instructions | 5        |

```
      00 01 02 03 04 05 06 07  08 09 0A 0B 0C 0D 0E 0F
      -- -- -- -- -- -- -- --  -- -- -- -- -- -- -- --
0780:    59 04 1E 50 0F 01 85  80 1F 00 88 80 89 80 0D   Y..P...........
0790: 80 1F 01 6F 00                                    ...o.           
```

#### Opcodes

```
  0: 0x0781 [0x59] UPDATE_ENTITY_DATA: Set Bki Tbujhja (ID: 17780766/0x010F501E) main speed = 9* * 0.1
  1: 0x0789 [0x1F] MOVE_ENTITY: EventEntity moves to X=-5.853*, Z=-5.190*, Y=0.000*
  2: 0x0791 [0x1F] MOVE_ENTITY: Update entity position (mode=1)
  3: 0x0793 [0x6F] WAIT_FRAME_DELAY: Yield until WaitTime reaches zero
  4: 0x0794 [0x00] END_REQSTACK()
```

### Event 65535.72

#### Metadata

| Field        | Value    |
|--------------|----------|
| Entrypoint   | 0x0795   |
| Data Size    | 21 bytes |
| Instructions | 5        |

```
      00 01 02 03 04 05 06 07  08 09 0A 0B 0C 0D 0E 0F
      -- -- -- -- -- -- -- --  -- -- -- -- -- -- -- --
0790:                59 04 1E  50 0F 01 3C 80 1F 00 7D       Y..P..<...}
07A0: 80 7E 80 41 80 1F 01 6F  00 00                    .~.A...o..      
```

#### Opcodes

```
  0: 0x0795 [0x59] UPDATE_ENTITY_DATA: Set Bki Tbujhja (ID: 17780766/0x010F501E) main speed = 11* * 0.1
  1: 0x079D [0x1F] MOVE_ENTITY: EventEntity moves to X=-58.931*, Z=-86.942*, Y=5.999*
  2: 0x07A5 [0x1F] MOVE_ENTITY: Update entity position (mode=1)
  3: 0x07A7 [0x6F] WAIT_FRAME_DELAY: Yield until WaitTime reaches zero
  4: 0x07A8 [0x00] END_REQSTACK()
```

#### Data or dead code:

```
# Dead code (unreachable instructions):
     0x07A9 [0x00] END_REQSTACK()
```

### Event 65535.73

#### Metadata

| Field        | Value    |
|--------------|----------|
| Entrypoint   | 0x07AA   |
| Data Size    | 20 bytes |
| Instructions | 5        |

```
      00 01 02 03 04 05 06 07  08 09 0A 0B 0C 0D 0E 0F
      -- -- -- -- -- -- -- --  -- -- -- -- -- -- -- --
07A0:                                59 04 27 50 0F 01            Y.'P..
07B0: 39 80 1F 00 8A 80 8B 80  8C 80 1F 01 6F 00        9...........o.  
```

#### Opcodes

```
  0: 0x07AA [0x59] UPDATE_ENTITY_DATA: Set Danzhor (ID: 17780775/0x010F5027) main speed = 12* * 0.1
  1: 0x07B2 [0x1F] MOVE_ENTITY: EventEntity moves to X=-45.210*, Z=-89.196*, Y=-5.999*
  2: 0x07BA [0x1F] MOVE_ENTITY: Update entity position (mode=1)
  3: 0x07BC [0x6F] WAIT_FRAME_DELAY: Yield until WaitTime reaches zero
  4: 0x07BD [0x00] END_REQSTACK()
```

### Event 65535.74

#### Metadata

| Field        | Value    |
|--------------|----------|
| Entrypoint   | 0x07BE   |
| Data Size    | 12 bytes |
| Instructions | 4        |

```
      00 01 02 03 04 05 06 07  08 09 0A 0B 0C 0D 0E 0F
      -- -- -- -- -- -- -- --  -- -- -- -- -- -- -- --
07B0:                                            1F 00                ..
07C0: 8D 80 8E 80 0D 80 1F 01  6F 00                    ........o.      
```

#### Opcodes

```
  0: 0x07BE [0x1F] MOVE_ENTITY: EventEntity moves to X=-18.343*, Z=-8.286*, Y=0.000*
  1: 0x07C6 [0x1F] MOVE_ENTITY: Update entity position (mode=1)
  2: 0x07C8 [0x6F] WAIT_FRAME_DELAY: Yield until WaitTime reaches zero
  3: 0x07C9 [0x00] END_REQSTACK()
```

### Event 65535.75

#### Metadata

| Field        | Value    |
|--------------|----------|
| Entrypoint   | 0x07CA   |
| Data Size    | 16 bytes |
| Instructions | 2        |

```
