# 17780956 - Duplidoc

## Common Data

| Field            | Value                 |
|------------------|-----------------------|
| Zone             | Lower Jeuno (ID: 245) |
| Block Size       | 952 bytes             |
| Total Events     | 5                     |
| References Count | 28                    |

## List of Events

| Event ID                 | Entrypoint   |   Size |   Instructions |
|--------------------------|--------------|--------|----------------|
| [65535](#event-65535)    | 0x0000       |      1 |              1 |
| [20026](#event-20026)    | 0x0001       |      8 |              2 |
| [20027](#event-20027)    | 0x0009       |      8 |              2 |
| [65535.1](#event-655351) | 0x0011       |    621 |            111 |
| [65535.2](#event-655352) | 0x027E       |    164 |             33 |

## DAT References (imed_data)

|   Index | Hex Value   |   Dec Value |
|---------|-------------|-------------|
|       0 | 0x40000000  |  1073741824 |
|       1 | 0x0000      |           0 |
|       2 | 0x001A      |          26 |
|       3 | 0x001F      |          31 |
|       4 | 0x0019      |          25 |
|       5 | 0x2692      |        9874 |
|       6 | 0x2693      |        9875 |
|       7 | 0x0001      |           1 |
|       8 | 0x0002      |           2 |
|       9 | 0x0003      |           3 |
|      10 | 0x0005      |           5 |
|      11 | 0x0004      |           4 |
|      12 | 0x2694      |        9876 |
|      13 | 0x0007      |           7 |
|      14 | 0x0006      |           6 |
|      15 | 0x0008      |           8 |
|      16 | 0x26A8      |        9896 |
|      17 | 0x01F4      |         500 |
|      18 | 0x2695      |        9877 |
|      19 | 0x2696      |        9878 |
|      20 | 0x18FC      |        6396 |
|      21 | 0x0010      |          16 |
|      22 | 0x000F      |          15 |
|      23 | 0x269D      |        9885 |
|      24 | 0x269E      |        9886 |
|      25 | 0x269F      |        9887 |
|      26 | 0x26A0      |        9888 |
|      27 | 0x26A2      |        9890 |

## String References

- **6396**: You do not have enough gil.
- **9874**: Nothing registered for that yet. You come back later.
- **9875**: Here's the list. You like one, you choose.
- **9876**: Which will you copy? [%0 (Popularity: $4)./%1 (Popularity: $5)./%2 (Popularity: $6)./%3 (Popularity: $7)./View next list./View previous list./Cancel.]
- **9877**: You want copy of this maze, you pay $8 gil. Deal?
- **9878**: Really copy this maze? [Make it so./Cancel.]
- **9885**: This theme, you already have maze registered. You switch? I warn you, old maze go bye-bye.
- **9886**: Okay to overwrite maze? [Yes./No.]
- **9887**: This cost you $8 Moblin Marbles. Deal?
- **9888**: Register this maze? ($7 marbles left). [Register./Cancel.]
- **9890**: You don't have enough Moblin Marbles for this transaction.
- **9896**: An error occurred when trying to retrieve Maze Tabula data.

## Events

### Event 65535

#### Metadata

| Field        | Value   |
|--------------|---------|
| Entrypoint   | 0x0000  |
| Data Size    | 1 bytes |
| Instructions | 1       |

```
      00 01 02 03 04 05 06 07  08 09 0A 0B 0C 0D 0E 0F
      -- -- -- -- -- -- -- --  -- -- -- -- -- -- -- --
0000: 00                                                .               
```

#### Opcodes

```
  0: 0x0000 [0x00] END_REQSTACK()
```

### Event 20026

#### Metadata

| Field        | Value   |
|--------------|---------|
| Entrypoint   | 0x0001  |
| Data Size    | 8 bytes |
| Instructions | 2       |

```
      00 01 02 03 04 05 06 07  08 09 0A 0B 0C 0D 0E 0F
      -- -- -- -- -- -- -- --  -- -- -- -- -- -- -- --
0000:    27 0A DC 50 0F 01 03  00                        '..P....       
```

#### Opcodes

```
  0: 0x0001 [0x27] REQ_SET(priority=0x0A, entity_id=Duplidoc (ID: 17780956/0x010F50DC), tag_num=0x03)
  1: 0x0008 [0x00] END_REQSTACK()
```

### Event 20027

#### Metadata

| Field        | Value   |
|--------------|---------|
| Entrypoint   | 0x0009  |
| Data Size    | 8 bytes |
| Instructions | 2       |

```
      00 01 02 03 04 05 06 07  08 09 0A 0B 0C 0D 0E 0F
      -- -- -- -- -- -- -- --  -- -- -- -- -- -- -- --
0000:                             27 0A DC 50 0F 01 04           '..P...
0010: 00                                                .               
```

#### Opcodes

```
  0: 0x0009 [0x27] REQ_SET(priority=0x0A, entity_id=Duplidoc (ID: 17780956/0x010F50DC), tag_num=0x04)
  1: 0x0010 [0x00] END_REQSTACK()
```

### Event 65535.1

#### Metadata

| Field        | Value     |
|--------------|-----------|
| Entrypoint   | 0x0011    |
| Data Size    | 621 bytes |
| Instructions | 111       |

```
      00 01 02 03 04 05 06 07  08 09 0A 0B 0C 0D 0E 0F
      -- -- -- -- -- -- -- --  -- -- -- -- -- -- -- --
0010:    42 03 01 10 00 80 1E  F0 FF FF 7F 03 01 00 01   B..............
0020: 80 03 02 00 01 80 03 03  00 01 80 41 02 80 03 80  ...........A....
0030: 05 10 03 00 41 01 80 04  80 05 10 05 10 02 03 00  ....A...........
0040: 01 80 00 4C 00 1D 05 80  23 01 7C 02 1D 06 80 23  ...L....#.|....#
0050: 05 05 00 02 05 00 01 80  01 7C 02 03 01 00 01 80  .........|......
0060: 02 02 10 01 80 00 6F 00  3C 01 00 01 80 07 80 02  ......o.<.......
0070: 03 10 01 80 00 7E 00 3C  01 00 07 80 07 80 02 04  .....~.<........
0080: 10 01 80 00 8D 00 3C 01  00 08 80 07 80 02 05 10  ......<.........
0090: 01 80 00 9C 00 3C 01 00  09 80 07 80 02 02 00 01  .....<..........
00A0: 80 00 AE 00 3C 01 00 0A  80 07 80 01 B5 00 3D 01  ....<.........=.
00B0: 00 0A 80 07 80 03 00 00  02 00 07 00 00 0B 80 02  ................
00C0: 03 00 00 00 05 D1 00 3C  01 00 0B 80 07 80 01 D8  .......<........
00D0: 00 3D 01 00 0B 80 07 80  24 0C 80 01 80 01 00 25  .=......$......%
00E0: 02 00 10 01 80 00 F9 00  03 04 00 02 10 40 01 80  .............@..
00F0: 09 80 01 10 08 80 01 9B  01 02 00 10 07 80 00 12  ................
0100: 01 03 04 00 03 10 40 01  80 09 80 01 10 08 80 01  ......@.........
0110: 9B 01 02 00 10 08 80 00  2B 01 03 04 00 04 10 40  ........+......@
0120: 01 80 09 80 01 10 08 80  01 9B 01 02 00 10 09 80  ................
0130: 00 44 01 03 04 00 05 10  40 01 80 09 80 01 10 08  .D......@.......
0140: 80 01 9B 01 02 00 10 0B  80 00 66 01 07 02 00 0B  ..........f.....
0150: 80 40 01 80 09 80 01 10  07 80 40 0B 80 0D 80 01  .@........@.....
0160: 10 02 00 01 9B 01 02 00  10 0A 80 00 88 01 08 02  ................
0170: 00 0B 80 40 01 80 09 80  01 10 07 80 40 0B 80 0D  ...@........@...
0180: 80 01 10 02 00 01 9B 01  02 00 10 0E 80 00 9B 01  ................
0190: 06 05 00 03 01 10 00 80  01 9B 01 02 00 10 0B 80  ................
01A0: 03 5B 02 40 0F 80 03 80  01 10 04 00 43 00 43 01  .[.@........C.C.
01B0: 3E 09 10 03 80 C5 01 48  10 80 03 01 10 00 80 06  >......H........
01C0: 05 00 01 58 02 03 07 00  09 10 71 20 02 10 03 10  ...X......q ....
01D0: 04 10 05 10 06 10 07 10  08 10 03 00 17 11 80 1D  ................
01E0: 12 80 23 71 21 24 13 80  07 80 01 80 25 02 00 10  ..#q!$......%...
01F0: 01 80 00 20 02 06 05 00  02 07 00 11 80 03 0B 02  ... ............
0200: 48 14 80 03 01 10 00 80  01 1D 02 40 01 80 09 80  H..........@....
0210: 01 10 07 80 40 0F 80 03  80 01 10 04 00 01 58 02  ....@.........X.
0220: 02 00 10 07 80 00 58 02  03 01 10 01 80 40 01 80  ......X......@..
0230: 09 80 01 10 07 80 40 0B  80 0D 80 01 10 02 00 43  ......@........C
0240: 00 43 01 41 02 80 03 80  05 10 03 00 41 01 80 04  .C.A........A...
0250: 80 05 10 05 10 01 58 02  01 79 02 02 00 10 0E 80  ......X..y......
0260: 03 79 02 43 00 43 01 41  02 80 03 80 05 10 03 00  .y.C.C.A........
0270: 41 01 80 04 80 05 10 05  10 01 53 00 21 00        A.........S.!.  
```

#### Opcodes

```
  0: 0x0011 [0x42] SET_CLI_EVENT_CANCEL_DATA()
  1: 0x0012 [0x03] Work_Zone[1] = 1073741824*
  2: 0x0017 [0x1E] EventEntity looks at LocalPlayer and starts talking
  3: 0x001C [0x03] ExtData[1]->WorkLocal[1] = 0*
  4: 0x0021 [0x03] ExtData[1]->WorkLocal[2] = 0*
  5: 0x0026 [0x03] ExtData[1]->WorkLocal[3] = 0*
  6: 0x002B [0x41] ExtData[1]->WorkLocal[3] = Work_Zone[5] (bits 26*-31*)
  7: 0x0034 [0x41] Work_Zone[5] = Work_Zone[5] (bits 0*-25*)
  8: 0x003D [0x02] IF !(ExtData[1]->WorkLocal[3] == 0*) GOTO 0x004C
  9: 0x0045 [0x1D] PRINT_EVENT_MESSAGE(message_id=9874*)
    → "Nothing registered for that yet. You come back later."
 10: 0x0048 [0x23] WAIT_FOR_DIALOG_INTERACTION
 11: 0x0049 [0x01] GOTO 0x027C
 12: 0x004C [0x1D] PRINT_EVENT_MESSAGE(message_id=9875*)
    → "Here's the list. You like one, you choose."
 13: 0x004F [0x23] WAIT_FOR_DIALOG_INTERACTION
 14: 0x0050 [0x05] ExtData[1]->WorkLocal[5] = 1

SUBROUTINE_0053:
 15: 0x0053 [0x02] IF !(ExtData[1]->WorkLocal[5] == 0*) GOTO 0x027C
 16: 0x005B [0x03] ExtData[1]->WorkLocal[1] = 0*
 17: 0x0060 [0x02] IF !(Work_Zone[2] == 0*) GOTO 0x006F
 18: 0x0068 [0x3C] SET_BIT_FLAG_CONDITIONAL(target_work_offset=ExtData[1]->WorkLocal[1], bit_index_work_offset=0*, condition_work_offset=1*)
 19: 0x006F [0x02] IF !(Work_Zone[3] == 0*) GOTO 0x007E
 20: 0x0077 [0x3C] SET_BIT_FLAG_CONDITIONAL(target_work_offset=ExtData[1]->WorkLocal[1], bit_index_work_offset=1*, condition_work_offset=1*)
 21: 0x007E [0x02] IF !(Work_Zone[4] == 0*) GOTO 0x008D
 22: 0x0086 [0x3C] SET_BIT_FLAG_CONDITIONAL(target_work_offset=ExtData[1]->WorkLocal[1], bit_index_work_offset=2*, condition_work_offset=1*)
 23: 0x008D [0x02] IF !(Work_Zone[5] == 0*) GOTO 0x009C
 24: 0x0095 [0x3C] SET_BIT_FLAG_CONDITIONAL(target_work_offset=ExtData[1]->WorkLocal[1], bit_index_work_offset=3*, condition_work_offset=1*)
 25: 0x009C [0x02] IF !(ExtData[1]->WorkLocal[2] == 0*) GOTO 0x00AE
 26: 0x00A4 [0x3C] SET_BIT_FLAG_CONDITIONAL(target_work_offset=ExtData[1]->WorkLocal[1], bit_index_work_offset=5*, condition_work_offset=1*)
 27: 0x00AB [0x01] GOTO 0x00B5
 28: 0x00AE [0x3D] CLEAR_BIT_FLAG_CONDITIONAL(target_work_offset=ExtData[1]->WorkLocal[1], bit_index_work_offset=5*, condition_work_offset=1*)

SUBROUTINE_00B5:
 29: 0x00B5 [0x03] ExtData[1]->WorkLocal[0] = ExtData[1]->WorkLocal[2]
 30: 0x00BA [0x07] ExtData[1]->WorkLocal[0] += 4*
 31: 0x00BF [0x02] IF !(ExtData[1]->WorkLocal[3] > ExtData[1]->WorkLocal[0]) GOTO 0x00D1
 32: 0x00C7 [0x3C] SET_BIT_FLAG_CONDITIONAL(target_work_offset=ExtData[1]->WorkLocal[1], bit_index_work_offset=4*, condition_work_offset=1*)
 33: 0x00CE [0x01] GOTO 0x00D8
 34: 0x00D1 [0x3D] CLEAR_BIT_FLAG_CONDITIONAL(target_work_offset=ExtData[1]->WorkLocal[1], bit_index_work_offset=4*, condition_work_offset=1*)

SUBROUTINE_00D8:
 35: 0x00D8 [0x24] CREATE_DIALOG(message_id=9876*, default_option=0*, option_flags=ExtData[1]->WorkLocal[1])
    → "Which will you copy? [%0 (Popularity: $4)./%1 (Popularity: $5)./%2 (Popularity: $6)./%3 (Popularity: $7)./View next list./View previous list./Cancel.]"
 36: 0x00DF [0x25] WAIT_DIALOG_SELECT()
 37: 0x00E0 [0x02] IF !(Work_Zone[0] == 0*) GOTO 0x00F9
 38: 0x00E8 [0x03] ExtData[1]->WorkLocal[4] = Work_Zone[2]
 39: 0x00ED [0x40] SET_BIT_WORK_RANGE(start_bit=0*, end_bit=3*, target=Work_Zone[1], source=2*)
 40: 0x00F6 [0x01] GOTO 0x019B
 41: 0x00F9 [0x02] IF !(Work_Zone[0] == 1*) GOTO 0x0112
 42: 0x0101 [0x03] ExtData[1]->WorkLocal[4] = Work_Zone[3]
 43: 0x0106 [0x40] SET_BIT_WORK_RANGE(start_bit=0*, end_bit=3*, target=Work_Zone[1], source=2*)
 44: 0x010F [0x01] GOTO 0x019B
 45: 0x0112 [0x02] IF !(Work_Zone[0] == 2*) GOTO 0x012B
 46: 0x011A [0x03] ExtData[1]->WorkLocal[4] = Work_Zone[4]
 47: 0x011F [0x40] SET_BIT_WORK_RANGE(start_bit=0*, end_bit=3*, target=Work_Zone[1], source=2*)
 48: 0x0128 [0x01] GOTO 0x019B
 49: 0x012B [0x02] IF !(Work_Zone[0] == 3*) GOTO 0x0144
 50: 0x0133 [0x03] ExtData[1]->WorkLocal[4] = Work_Zone[5]
 51: 0x0138 [0x40] SET_BIT_WORK_RANGE(start_bit=0*, end_bit=3*, target=Work_Zone[1], source=2*)
 52: 0x0141 [0x01] GOTO 0x019B
 53: 0x0144 [0x02] IF !(Work_Zone[0] == 4*) GOTO 0x0166
 54: 0x014C [0x07] ExtData[1]->WorkLocal[2] += 4*
 55: 0x0151 [0x40] SET_BIT_WORK_RANGE(start_bit=0*, end_bit=3*, target=Work_Zone[1], source=1*)
 56: 0x015A [0x40] SET_BIT_WORK_RANGE(start_bit=4*, end_bit=7*, target=Work_Zone[1], source=ExtData[1]->WorkLocal[2])
 57: 0x0163 [0x01] GOTO 0x019B
 58: 0x0166 [0x02] IF !(Work_Zone[0] == 5*) GOTO 0x0188
 59: 0x016E [0x08] ExtData[1]->WorkLocal[2] -= 4*
 60: 0x0173 [0x40] SET_BIT_WORK_RANGE(start_bit=0*, end_bit=3*, target=Work_Zone[1], source=1*)
 61: 0x017C [0x40] SET_BIT_WORK_RANGE(start_bit=4*, end_bit=7*, target=Work_Zone[1], source=ExtData[1]->WorkLocal[2])
 62: 0x0185 [0x01] GOTO 0x019B
 63: 0x0188 [0x02] IF !(Work_Zone[0] == 6*) GOTO 0x019B
 64: 0x0190 [0x06] ExtData[1]->WorkLocal[5] = 0
 65: 0x0193 [0x03] Work_Zone[1] = 1073741824*
 66: 0x0198 [0x01] GOTO 0x019B

SUBROUTINE_019B:
 67: 0x019B [0x02] IF !(Work_Zone[0] >= 4*) GOTO 0x025B
 68: 0x01A3 [0x40] SET_BIT_WORK_RANGE(start_bit=8*, end_bit=31*, target=Work_Zone[1], source=ExtData[1]->WorkLocal[4])
 69: 0x01AC [0x43] SEND_EVENT_UPDATE: Send pending tag to server (packet 0x005B)
 70: 0x01AE [0x43] SEND_EVENT_UPDATE: Check pending flag (skip if not pending)
 71: 0x01B0 [0x3E] IF !(Work_Zone[9] bit 31*) GOTO 0x01C5
 72: 0x01B7 [0x48] [System] [9896*]:
    → "An error occurred when trying to retrieve Maze Tabula data."
 73: 0x01BA [0x03] Work_Zone[1] = 1073741824*
 74: 0x01BF [0x06] ExtData[1]->WorkLocal[5] = 0
 75: 0x01C2 [0x01] GOTO 0x0258
 76: 0x01C5 [0x03] ExtData[1]->WorkLocal[7] = Work_Zone[9]
 77: 0x01CA [0x71] USER_INPUT_HANDLER: Moblin Maze Mongers menu (sends packet 0x60) (params=[0x1002, 0x1003, 0x1004, 0x1005, 0x1006, 0x1007, 0x1008])
 78: 0x01DA [0x03] Work_Zone_1700[0] = 500*
 79: 0x01DF [0x1D] PRINT_EVENT_MESSAGE(message_id=9877*)
    → "You want copy of this maze, you pay $8 gil. Deal?"
 80: 0x01E2 [0x23] WAIT_FOR_DIALOG_INTERACTION
 81: 0x01E3 [0x71] USER_INPUT_HANDLER: MMM menu check
 82: 0x01E5 [0x24] CREATE_DIALOG(message_id=9878*, default_option=1*, option_flags=0*)
    → "Really copy this maze? [Make it so./Cancel.]"
 83: 0x01EC [0x25] WAIT_DIALOG_SELECT()
 84: 0x01ED [0x02] IF !(Work_Zone[0] == 0*) GOTO 0x0220
 85: 0x01F5 [0x06] ExtData[1]->WorkLocal[5] = 0
 86: 0x01F8 [0x02] IF !(ExtData[1]->WorkLocal[7] >= 500*) GOTO 0x020B
 87: 0x0200 [0x48] [System] [6396*]:
    → "You do not have enough gil."
 88: 0x0203 [0x03] Work_Zone[1] = 1073741824*
 89: 0x0208 [0x01] GOTO 0x021D
 90: 0x020B [0x40] SET_BIT_WORK_RANGE(start_bit=0*, end_bit=3*, target=Work_Zone[1], source=1*)
 91: 0x0214 [0x40] SET_BIT_WORK_RANGE(start_bit=8*, end_bit=31*, target=Work_Zone[1], source=ExtData[1]->WorkLocal[4])

SUBROUTINE_021D:
 92: 0x021D [0x01] GOTO 0x0258
 93: 0x0220 [0x02] IF !(Work_Zone[0] == 1*) GOTO 0x0258
 94: 0x0228 [0x03] Work_Zone[1] = 0*
 95: 0x022D [0x40] SET_BIT_WORK_RANGE(start_bit=0*, end_bit=3*, target=Work_Zone[1], source=1*)
 96: 0x0236 [0x40] SET_BIT_WORK_RANGE(start_bit=4*, end_bit=7*, target=Work_Zone[1], source=ExtData[1]->WorkLocal[2])
 97: 0x023F [0x43] SEND_EVENT_UPDATE: Send pending tag to server (packet 0x005B)
 98: 0x0241 [0x43] SEND_EVENT_UPDATE: Check pending flag (skip if not pending)
 99: 0x0243 [0x41] ExtData[1]->WorkLocal[3] = Work_Zone[5] (bits 26*-31*)
100: 0x024C [0x41] Work_Zone[5] = Work_Zone[5] (bits 0*-25*)
101: 0x0255 [0x01] GOTO 0x0258

SUBROUTINE_0258:
102: 0x0258 [0x01] GOTO 0x0279
103: 0x025B [0x02] IF !(Work_Zone[0] >= 6*) GOTO 0x0279
104: 0x0263 [0x43] SEND_EVENT_UPDATE: Send pending tag to server (packet 0x005B)
105: 0x0265 [0x43] SEND_EVENT_UPDATE: Check pending flag (skip if not pending)
106: 0x0267 [0x41] ExtData[1]->WorkLocal[3] = Work_Zone[5] (bits 26*-31*)
107: 0x0270 [0x41] Work_Zone[5] = Work_Zone[5] (bits 0*-25*)

SUBROUTINE_0279:
108: 0x0279 [0x01] GOTO 0x0053

SUBROUTINE_027C:
109: 0x027C [0x21] END_EVENT
110: 0x027D [0x00] END_REQSTACK()
```

### Event 65535.2

#### Metadata

| Field        | Value     |
|--------------|-----------|
| Entrypoint   | 0x027E    |
| Data Size    | 164 bytes |
| Instructions | 33        |

```
      00 01 02 03 04 05 06 07  08 09 0A 0B 0C 0D 0E 0F
      -- -- -- -- -- -- -- --  -- -- -- -- -- -- -- --
0270:                                            42 03                B.
0280: 01 10 00 80 03 00 10 01  80 41 15 80 03 80 02 10  .........A......
0290: 00 00 41 01 80 16 80 02  10 02 10 03 00 17 0A 80  ..A.............
02A0: 02 00 00 01 80 01 DC 02  71 20 02 10 03 10 04 10  ........q ......
02B0: 05 10 06 10 07 10 08 10  1D 17 80 23 71 21 24 18  ...........#q!$.
02C0: 80 07 80 01 80 25 02 00  10 01 80 00 D1 02 01 DC  .....%..........
02D0: 02 02 00 10 07 80 00 DC  02 01 DC 02 02 00 10 01  ................
02E0: 80 00 20 03 1D 19 80 23  24 1A 80 07 80 01 80 25  .. ....#$......%
02F0: 02 00 10 01 80 00 10 03  03 01 10 00 10 02 09 10  ................
0300: 0A 80 03 0D 03 48 1B 80  03 01 10 00 80 01 20 03  .....H........ .
0310: 02 00 10 07 80 00 20 03  03 01 10 00 10 01 20 03  ...... ....... .
0320: 21 00                                             !.              
```

#### Opcodes

```
  0: 0x027E [0x42] SET_CLI_EVENT_CANCEL_DATA()
  1: 0x027F [0x03] Work_Zone[1] = 1073741824*
  2: 0x0284 [0x03] Work_Zone[0] = 0*
  3: 0x0289 [0x41] ExtData[1]->WorkLocal[0] = Work_Zone[2] (bits 16*-31*)
  4: 0x0292 [0x41] Work_Zone[2] = Work_Zone[2] (bits 0*-15*)
  5: 0x029B [0x03] Work_Zone_1700[0] = 5*
  6: 0x02A0 [0x02] IF !(ExtData[1]->WorkLocal[0] == 0*) GOTO 0x02DC
  7: 0x02A8 [0x71] USER_INPUT_HANDLER: Moblin Maze Mongers menu (sends packet 0x60) (params=[0x1002, 0x1003, 0x1004, 0x1005, 0x1006, 0x1007, 0x1008])
  8: 0x02B8 [0x1D] PRINT_EVENT_MESSAGE(message_id=9885*)
    → "This theme, you already have maze registered. You switch? I warn you, old maze go bye-bye."
  9: 0x02BB [0x23] WAIT_FOR_DIALOG_INTERACTION
 10: 0x02BC [0x71] USER_INPUT_HANDLER: MMM menu check
 11: 0x02BE [0x24] CREATE_DIALOG(message_id=9886*, default_option=1*, option_flags=0*)
    → "Okay to overwrite maze? [Yes./No.]"
 12: 0x02C5 [0x25] WAIT_DIALOG_SELECT()
 13: 0x02C6 [0x02] IF !(Work_Zone[0] == 0*) GOTO 0x02D1
 14: 0x02CE [0x01] GOTO 0x02DC
 15: 0x02D1 [0x02] IF !(Work_Zone[0] == 1*) GOTO 0x02DC
 16: 0x02D9 [0x01] GOTO 0x02DC

SUBROUTINE_02DC:
 17: 0x02DC [0x02] IF !(Work_Zone[0] == 0*) GOTO 0x0320
 18: 0x02E4 [0x1D] PRINT_EVENT_MESSAGE(message_id=9887*)
    → "This cost you $8 Moblin Marbles. Deal?"
 19: 0x02E7 [0x23] WAIT_FOR_DIALOG_INTERACTION
 20: 0x02E8 [0x24] CREATE_DIALOG(message_id=9888*, default_option=1*, option_flags=0*)
    → "Register this maze? ($7 marbles left). [Register./Cancel.]"
 21: 0x02EF [0x25] WAIT_DIALOG_SELECT()
 22: 0x02F0 [0x02] IF !(Work_Zone[0] == 0*) GOTO 0x0310
 23: 0x02F8 [0x03] Work_Zone[1] = Work_Zone[0]
 24: 0x02FD [0x02] IF !(Work_Zone[9] >= 5*) GOTO 0x030D
 25: 0x0305 [0x48] [System] [9890*]:
    → "You don't have enough Moblin Marbles for this transaction."
 26: 0x0308 [0x03] Work_Zone[1] = 1073741824*
 27: 0x030D [0x01] GOTO 0x0320
 28: 0x0310 [0x02] IF !(Work_Zone[0] == 1*) GOTO 0x0320
 29: 0x0318 [0x03] Work_Zone[1] = Work_Zone[0]
 30: 0x031D [0x01] GOTO 0x0320

SUBROUTINE_0320:
 31: 0x0320 [0x21] END_EVENT
 32: 0x0321 [0x00] END_REQSTACK()
```
