# 17780764 - Mertaire

## Common Data

| Field            | Value                 |
|------------------|-----------------------|
| Zone             | Lower Jeuno (ID: 245) |
| Block Size       | 3256 bytes            |
| Total Events     | 115                   |
| References Count | 119                   |

## List of Events

| Event ID                     | Entrypoint   |   Size |   Instructions |
|------------------------------|--------------|--------|----------------|
| [65535](#event-65535)        | 0x0000       |      1 |              1 |
| [102](#event-102)            | 0x0001       |    162 |             25 |
| [101](#event-101)            | 0x00A3       |      1 |              1 |
| [103](#event-103)            | 0x00A4       |     39 |             12 |
| [138](#event-138)            | 0x00CB       |     39 |             13 |
| [137](#event-137)            | 0x00F2       |    154 |             30 |
| [136](#event-136)            | 0x018C       |     13 |              7 |
| [135](#event-135)            | 0x0199       |     13 |              7 |
| [139](#event-139)            | 0x01A6       |     13 |              7 |
| [65535.1](#event-655351)     | 0x01B3       |     19 |              3 |
| [65535.2](#event-655352)     | 0x01C6       |     29 |              3 |
| [65535.3](#event-655353)     | 0x01E3       |     19 |              3 |
| [65535.4](#event-655354)     | 0x01F6       |     29 |              3 |
| [65535.5](#event-655355)     | 0x0213       |     25 |              4 |
| [65535.6](#event-655356)     | 0x022C       |     35 |              4 |
| [65535.7](#event-655357)     | 0x024F       |      6 |              2 |
| [65535.8](#event-655358)     | 0x0255       |      2 |              2 |
| [10094](#event-10094)        | 0x0257       |      5 |              3 |
| [65535.9](#event-655359)     | 0x025C       |     20 |              5 |
| [65535.10](#event-6553510)   | 0x0270       |     20 |              5 |
| [65535.11](#event-6553511)   | 0x0284       |     20 |              5 |
| [65535.12](#event-6553512)   | 0x0298       |     17 |              3 |
| [65535.13](#event-6553513)   | 0x02A9       |     20 |              5 |
| [65535.14](#event-6553514)   | 0x02BD       |     20 |              5 |
| [65535.15](#event-6553515)   | 0x02D1       |     19 |              4 |
| [65535.16](#event-6553516)   | 0x02E4       |     19 |              4 |
| [65535.17](#event-6553517)   | 0x02F7       |     16 |              2 |
| [65535.18](#event-6553518)   | 0x0307       |     16 |              2 |
| [65535.19](#event-6553519)   | 0x0317       |     20 |              5 |
| [65535.20](#event-6553520)   | 0x032B       |     16 |              2 |
| [65535.21](#event-6553521)   | 0x033B       |     16 |              2 |
| [65535.22](#event-6553522)   | 0x034B       |     16 |              2 |
| [65535.23](#event-6553523)   | 0x035B       |     21 |              6 |
| [65535.24](#event-6553524)   | 0x0370       |     16 |              2 |
| [65535.25](#event-6553525)   | 0x0380       |     16 |              2 |
| [65535.26](#event-6553526)   | 0x0390       |     20 |              5 |
| [65535.27](#event-6553527)   | 0x03A4       |     17 |              3 |
| [65535.28](#event-6553528)   | 0x03B5       |     20 |              5 |
| [65535.29](#event-6553529)   | 0x03C9       |     16 |              2 |
| [65535.30](#event-6553530)   | 0x03D9       |     16 |              2 |
| [65535.31](#event-6553531)   | 0x03E9       |     16 |              2 |
| [65535.32](#event-6553532)   | 0x03F9       |     16 |              2 |
| [65535.33](#event-6553533)   | 0x0409       |     16 |              2 |
| [65535.34](#event-6553534)   | 0x0419       |     16 |              2 |
| [65535.35](#event-6553535)   | 0x0429       |     16 |              2 |
| [65535.36](#event-6553536)   | 0x0439       |     12 |              4 |
| [65535.37](#event-6553537)   | 0x0445       |     20 |              5 |
| [65535.38](#event-6553538)   | 0x0459       |     17 |              3 |
| [65535.39](#event-6553539)   | 0x046A       |     17 |              3 |
| [65535.40](#event-6553540)   | 0x047B       |     16 |              2 |
| [65535.41](#event-6553541)   | 0x048B       |     16 |              2 |
| [65535.42](#event-6553542)   | 0x049B       |     16 |              2 |
| [65535.43](#event-6553543)   | 0x04AB       |     16 |              2 |
| [65535.44](#event-6553544)   | 0x04BB       |     16 |              2 |
| [65535.45](#event-6553545)   | 0x04CB       |     16 |              2 |
| [65535.46](#event-6553546)   | 0x04DB       |     13 |              5 |
| [65535.47](#event-6553547)   | 0x04E8       |     20 |              5 |
| [65535.48](#event-6553548)   | 0x04FC       |     12 |              4 |
| [65535.49](#event-6553549)   | 0x0508       |     16 |              2 |
| [65535.50](#event-6553550)   | 0x0518       |     16 |              2 |
| [65535.51](#event-6553551)   | 0x0528       |     16 |              2 |
| [65535.52](#event-6553552)   | 0x0538       |     20 |              5 |
| [65535.53](#event-6553553)   | 0x054C       |     29 |              6 |
| [65535.54](#event-6553554)   | 0x0569       |     17 |              3 |
| [65535.55](#event-6553555)   | 0x057A       |     20 |              5 |
| [65535.56](#event-6553556)   | 0x058E       |     20 |              5 |
| [65535.57](#event-6553557)   | 0x05A2       |     20 |              5 |
| [65535.58](#event-6553558)   | 0x05B6       |     20 |              5 |
| [65535.59](#event-6553559)   | 0x05CA       |     20 |              5 |
| [65535.60](#event-6553560)   | 0x05DE       |     16 |              2 |
| [65535.61](#event-6553561)   | 0x05EE       |     16 |              2 |
| [65535.62](#event-6553562)   | 0x05FE       |     20 |              5 |
| [65535.63](#event-6553563)   | 0x0612       |     16 |              2 |
| [65535.64](#event-6553564)   | 0x0622       |     16 |              2 |
| [65535.65](#event-6553565)   | 0x0632       |     16 |              2 |
| [65535.66](#event-6553566)   | 0x0642       |     16 |              2 |
| [65535.67](#event-6553567)   | 0x0652       |     21 |              6 |
| [65535.68](#event-6553568)   | 0x0667       |     20 |              5 |
| [65535.69](#event-6553569)   | 0x067B       |     20 |              5 |
| [65535.70](#event-6553570)   | 0x068F       |     17 |              3 |
| [65535.71](#event-6553571)   | 0x06A0       |     20 |              5 |
| [65535.72](#event-6553572)   | 0x06B4       |     20 |              5 |
| [65535.73](#event-6553573)   | 0x06C8       |     16 |              2 |
| [65535.74](#event-6553574)   | 0x06D8       |     16 |              2 |
| [65535.75](#event-6553575)   | 0x06E8       |     21 |              6 |
| [65535.76](#event-6553576)   | 0x06FD       |     20 |              5 |
| [65535.77](#event-6553577)   | 0x0711       |     20 |              5 |
| [65535.78](#event-6553578)   | 0x0725       |     16 |              2 |
| [65535.79](#event-6553579)   | 0x0735       |     20 |              5 |
| [65535.80](#event-6553580)   | 0x0749       |     21 |              6 |
| [65535.81](#event-6553581)   | 0x075E       |     20 |              5 |
| [65535.82](#event-6553582)   | 0x0772       |     12 |              4 |
| [65535.83](#event-6553583)   | 0x077E       |     16 |              2 |
| [65535.84](#event-6553584)   | 0x078E       |     16 |              2 |
| [65535.85](#event-6553585)   | 0x079E       |     20 |              5 |
| [65535.86](#event-6553586)   | 0x07B2       |     20 |              5 |
| [65535.87](#event-6553587)   | 0x07C6       |     17 |              3 |
| [65535.88](#event-6553588)   | 0x07D7       |     16 |              2 |
| [65535.89](#event-6553589)   | 0x07E7       |     16 |              2 |
| [65535.90](#event-6553590)   | 0x07F7       |     16 |              2 |
| [65535.91](#event-6553591)   | 0x0807       |     16 |              2 |
| [65535.92](#event-6553592)   | 0x0817       |     17 |              3 |
| [65535.93](#event-6553593)   | 0x0828       |     20 |              5 |
| [65535.94](#event-6553594)   | 0x083C       |     12 |              4 |
| [65535.95](#event-6553595)   | 0x0848       |     16 |              2 |
| [65535.96](#event-6553596)   | 0x0858       |     16 |              2 |
| [65535.97](#event-6553597)   | 0x0868       |     16 |              2 |
| [65535.98](#event-6553598)   | 0x0878       |     16 |              2 |
| [65535.99](#event-6553599)   | 0x0888       |     16 |              2 |
| [65535.100](#event-65535100) | 0x0898       |     16 |              2 |
| [65535.101](#event-65535101) | 0x08A8       |     16 |              2 |
| [65535.102](#event-65535102) | 0x08B8       |     20 |              5 |
| [65535.103](#event-65535103) | 0x08CC       |     20 |              5 |
| [65535.104](#event-65535104) | 0x08E0       |     16 |              2 |
| [65535.105](#event-65535105) | 0x08F0       |     16 |              2 |

## DAT References (imed_data)

|   Index | Hex Value   |   Dec Value |
|---------|-------------|-------------|
|       0 | 0x0000      |           0 |
|       1 | 0x1CFB      |        7419 |
|       2 | 0x1CFC      |        7420 |
|       3 | 0x0003      |           3 |
|       4 | 0x1CFD      |        7421 |
|       5 | 0x1D21      |        7457 |
|       6 | 0x1D22      |        7458 |
|       7 | 0x1D23      |        7459 |
|       8 | 0x1F62      |        8034 |
|       9 | 0x1F63      |        8035 |
|      10 | 0x1F64      |        8036 |
|      11 | 0x1F65      |        8037 |
|      12 | 0x1F66      |        8038 |
|      13 | 0x0001      |           1 |
|      14 | 0x1F67      |        8039 |
|      15 | 0x1F68      |        8040 |
|      16 | 0x1F69      |        8041 |
|      17 | 0x1F6A      |        8042 |
|      18 | 0x1F6E      |        8046 |
|      19 | 0x1F81      |        8065 |
|      20 | 0x003C      |          60 |
|      21 | 0x000C      |          12 |
|      22 | 0xFFFED6C4  |  4294891204 |
|      23 | 0xFFFDEB5B  |  4294830939 |
|      24 | 0x000B      |          11 |
|      25 | 0xFFFE8B97  |  4294871959 |
|      26 | 0xFFFD9E68  |  4294811240 |
|      27 | 0xFFFF0D87  |  4294905223 |
|      28 | 0xFFFEA0EF  |  4294877423 |
|      29 | 0x176F      |        5999 |
|      30 | 0x0A3A      |        2618 |
|      31 | 0xFFFEB818  |  4294883352 |
|      32 | 0xFFFE098F  |  4294838671 |
|      33 | 0xFFFEF410  |  4294898704 |
|      34 | 0xFFFE85B9  |  4294870457 |
|      35 | 0xFFFEEC91  |  4294896785 |
|      36 | 0xFFFE6EA2  |  4294864546 |
|      37 | 0x0A2A      |        2602 |
|      38 | 0xFFFEE552  |  4294894930 |
|      39 | 0xFFFE3269  |  4294849129 |
|      40 | 0x0A39      |        2617 |
|      41 | 0x0045      |          69 |
|      42 | 0xFFFF2160  |  4294910304 |
|      43 | 0xFFFEA80E  |  4294879246 |
|      44 | 0x0A3D      |        2621 |
|      45 | 0x0A43      |        2627 |
|      46 | 0x004B      |          75 |
|      47 | 0xFFFFB20E  |  4294947342 |
|      48 | 0xFFFFAE2A  |  4294946346 |
|      49 | 0xFFFEDC35  |  4294892597 |
|      50 | 0xFFFE5D95  |  4294860181 |
|      51 | 0x0A47      |        2631 |
|      52 | 0x0055      |          85 |
|      53 | 0xFFFFB26F  |  4294947439 |
|      54 | 0xFFFFAB30  |  4294945584 |
|      55 | 0x000E      |          14 |
|      56 | 0xFFFF6C7D  |  4294929533 |
|      57 | 0xFFFF0AA4  |  4294904484 |
|      58 | 0xFFFFCBCA  |  4294953930 |
|      59 | 0x09E0      |        2528 |
|      60 | 0xFFFFFE3F  |  4294966847 |
|      61 | 0x0028      |          40 |
|      62 | 0x0029      |          41 |
|      63 | 0xFFFEEA26  |  4294896166 |
|      64 | 0xFFFE4F39  |  4294856505 |
|      65 | 0xFFFED8EC  |  4294891756 |
|      66 | 0xFFFE38BF  |  4294850751 |
|      67 | 0xFFFEC5BC  |  4294886844 |
|      68 | 0xFFFE1640  |  4294841920 |
|      69 | 0x03E7      |         999 |
|      70 | 0x0A33      |        2611 |
|      71 | 0x000D      |          13 |
|      72 | 0xFFFF04E1  |  4294903009 |
|      73 | 0xFFFE7108  |  4294865160 |
|      74 | 0x108C      |        4236 |
|      75 | 0x10F0      |        4336 |
|      76 | 0xFFFFC3F0  |  4294951920 |
|      77 | 0xFFFFA321  |  4294943521 |
|      78 | 0xFFFFFF9B  |  4294967195 |
|      79 | 0x000A      |          10 |
|      80 | 0x0A18      |        2584 |
|      81 | 0xFFFFFC21  |  4294966305 |
|      82 | 0x084B      |        2123 |
|      83 | 0x0008      |           8 |
|      84 | 0x0033      |          51 |
|      85 | 0xFFFF0DFA  |  4294905338 |
|      86 | 0xFFFE6C9D  |  4294864029 |
|      87 | 0xFFFEFBE3  |  4294900707 |
|      88 | 0xFFFE9775  |  4294874997 |
|      89 | 0xFFFF19CD  |  4294908365 |
|      90 | 0xFFFEAC62  |  4294880354 |
|      91 | 0xFFFECE8B  |  4294889099 |
|      92 | 0xFFFE3998  |  4294850968 |
|      93 | 0x0F9F      |        3999 |
|      94 | 0x0A17      |        2583 |
|      95 | 0xFFFFD965  |  4294957413 |
|      96 | 0xFFFFD99E  |  4294957470 |
|      97 | 0x0009      |           9 |
|      98 | 0xFFFEE68C  |  4294895244 |
|      99 | 0xFFFE6FBD  |  4294864829 |
|     100 | 0xFFFFE923  |  4294961443 |
|     101 | 0xFFFFEBBA  |  4294962106 |
|     102 | 0xFFFF4F66  |  4294922086 |
|     103 | 0xFFFEA394  |  4294878100 |
|     104 | 0xFFFFE891  |  4294961297 |
|     105 | 0xFFFFB859  |  4294948953 |
|     106 | 0xFFFFDFA2  |  4294959010 |
|     107 | 0xFFFFB9ED  |  4294949357 |
|     108 | 0xFFFFBF3D  |  4294950717 |
|     109 | 0xFFFFF407  |  4294964231 |
|     110 | 0xFFFFE105  |  4294959365 |
|     111 | 0x0A40      |        2624 |
|     112 | 0xFFFF6A1D  |  4294928925 |
|     113 | 0xFFFEF858  |  4294899800 |
|     114 | 0xFFFFEA43  |  4294961731 |
|     115 | 0xFFFFF8F4  |  4294965492 |
|     116 | 0x0002      |           2 |
|     117 | 0xFFFFF533  |  4294964531 |
|     118 | 0x13C3      |        5059 |

## String References

- **8034**: Look at you, a true bard! Me? I think I've finally recovered from the pain of rejection.
- **8035**: I couldn't bring myself to throw away the bracelet she gave me, but maybe now is the time.
- **8036**: It breaks my heart to cast it away! Please, maybe you could do it for me?
- **8037**: I can't throw away the bracelet she gave me. Please, maybe you could do it for me?
- **8038**: Could you throw it away for me? [Oh, I suppose./No, do it yourself.]
- **8039**: Thank you! But this gift is too precious to toss into the garbage... I know! Could you cast it into the Waters of Oblivion at Ranguemont Pass?
- **8040**: Good luck, and don't just dump it at some auction house, all right?
- **8041**: Hmm... Maybe you're right. But I don't think I can bring myself to do it!
- **8042**: It's too precious to throw into the garbage. No, it needs a more peaceful resting place, like the Water of Oblivion in Ranguemont Pass.
- **8046**: Perhaps my heartfelt pain will live on in my song. Such is the life of a bard!
- **8065**: So, what did you do with that ring? Maybe it's valuable. I'd ask a collector if I were you. Of course, he might just say it's worthless...

## Events

### Event 65535

#### Metadata

| Field        | Value   |
|--------------|---------|
| Entrypoint   | 0x0000  |
| Data Size    | 1 bytes |
| Instructions | 1       |

```
      00 01 02 03 04 05 06 07  08 09 0A 0B 0C 0D 0E 0F
      -- -- -- -- -- -- -- --  -- -- -- -- -- -- -- --
0000: 00                                                .               
```

#### Opcodes

```
  0: 0x0000 [0x00] END_REQSTACK()
```

### Event 102

#### Metadata

| Field        | Value     |
|--------------|-----------|
| Entrypoint   | 0x0001    |
| Data Size    | 162 bytes |
| Instructions | 25        |

```
      00 01 02 03 04 05 06 07  08 09 0A 0B 0C 0D 0E 0F
      -- -- -- -- -- -- -- --  -- -- -- -- -- -- -- --
0000:    3A F8 FF FF 7F 00 00  20 01 42 1E F0 FF FF 7F   :...... .B.....
0010: 6F 70 66 00 80 F8 FF FF  7F F8 FF FF 7F 74 6C 6B  opf..........tlk
0020: 31 2B 1C 50 0F 01 01 80  23 66 00 80 F8 FF FF 7F  1+.P....#f......
0030: F8 FF FF 7F 74 6C 6B 32  66 00 80 F8 FF FF 7F F8  ....tlk2f.......
0040: FF FF 7F 64 69 73 30 2B  1C 50 0F 01 02 80 23 53  ...dis0+.P....#S
0050: F8 FF FF 7F F8 FF FF 7F  64 69 73 30 39 00 00 6F  ........dis09..o
0060: 70 66 03 80 F8 FF FF 7F  F8 FF FF 7F 73 64 6F 30  pf..........sdo0
0070: 2B 1C 50 0F 01 04 80 23  53 F8 FF FF 7F F8 FF FF  +.P....#S.......
0080: 7F 73 64 6F 30 66 03 80  F8 FF FF 7F F8 FF FF 7F  .sdo0f..........
0090: 73 64 6F 31 53 F8 FF FF  7F F8 FF FF 7F 73 64 6F  sdo1S........sdo
00A0: 31 21 00                                          1!.             
```

#### Opcodes

```
  0: 0x0001 [0x3A] CONVERT_YAW_TO_BYTE(entity=EventEntity, result_destination=ExtData[1]->WorkLocal[0])
  1: 0x0008 [0x20] SET_CLI_EVENT_UC_FLAG: Lock player control
  2: 0x000A [0x42] SET_CLI_EVENT_CANCEL_DATA()
  3: 0x000B [0x1E] EventEntity looks at LocalPlayer and starts talking
  4: 0x0010 [0x6F] WAIT_FRAME_DELAY: Yield until WaitTime reaches zero
  5: 0x0011 [0x70] WAIT_ENTITY_RENDER_FLAG: Wait while EventEntity->Render.Flags3 bit 2 is set (cancel turn if not)
  6: 0x0012 [0x66] LOAD_EXT_SCHEDULER_MAIN: Load scheduler "tlk1" with entities [EventEntity, EventEntity], work=0*
  7: 0x0021 [0x2B] Mertaire (ID: 17780764/0x010F501C) [7419*]:
    → "Hey, who do you think you are!? You don't like my music? I'm just a loser who can't write and can't play!"
  8: 0x0028 [0x23] WAIT_FOR_DIALOG_INTERACTION
  9: 0x0029 [0x66] LOAD_EXT_SCHEDULER_MAIN: Load scheduler "tlk2" with entities [EventEntity, EventEntity], work=0*
 10: 0x0038 [0x66] LOAD_EXT_SCHEDULER_MAIN: Load scheduler "dis0" with entities [EventEntity, EventEntity], work=0*
 11: 0x0047 [0x2B] Mertaire (ID: 17780764/0x010F501C) [7420*]:
    → "Love... Romance... It's all fake! Cursed women are like measles!"
 12: 0x004E [0x23] WAIT_FOR_DIALOG_INTERACTION
 13: 0x004F [0x53] WAIT_SCHEDULER_TASK: Wait for scheduler "dis0" with entities [EventEntity, EventEntity]
 14: 0x005C [0x39] SET_ENTITY_DIRECTION(direction=ExtData[1]->WorkLocal[0])
 15: 0x005F [0x6F] WAIT_FRAME_DELAY: Yield until WaitTime reaches zero
 16: 0x0060 [0x70] WAIT_ENTITY_RENDER_FLAG: Wait while EventEntity->Render.Flags3 bit 2 is set (cancel turn if not)
 17: 0x0061 [0x66] LOAD_EXT_SCHEDULER_MAIN: Load scheduler "sdo0" with entities [EventEntity, EventEntity], work=3*
 18: 0x0070 [0x2B] Mertaire (ID: 17780764/0x010F501C) [7421*]:
    → "Ugh... Malliebell... This time she's left me forever..."
 19: 0x0077 [0x23] WAIT_FOR_DIALOG_INTERACTION
 20: 0x0078 [0x53] WAIT_SCHEDULER_TASK: Wait for scheduler "sdo0" with entities [EventEntity, EventEntity]
 21: 0x0085 [0x66] LOAD_EXT_SCHEDULER_MAIN: Load scheduler "sdo1" with entities [EventEntity, EventEntity], work=3*
 22: 0x0094 [0x53] WAIT_SCHEDULER_TASK: Wait for scheduler "sdo1" with entities [EventEntity, EventEntity]
 23: 0x00A1 [0x21] END_EVENT
 24: 0x00A2 [0x00] END_REQSTACK()
```

### Event 101

#### Metadata

| Field        | Value   |
|--------------|---------|
| Entrypoint   | 0x00A3  |
| Data Size    | 1 bytes |
| Instructions | 1       |

```
      00 01 02 03 04 05 06 07  08 09 0A 0B 0C 0D 0E 0F
      -- -- -- -- -- -- -- --  -- -- -- -- -- -- -- --
00A0:          00                                          .            
```

#### Opcodes

```
  0: 0x00A3 [0x00] END_REQSTACK()
```

### Event 103

#### Metadata

| Field        | Value    |
|--------------|----------|
| Entrypoint   | 0x00A4   |
| Data Size    | 39 bytes |
| Instructions | 12       |

```
      00 01 02 03 04 05 06 07  08 09 0A 0B 0C 0D 0E 0F
      -- -- -- -- -- -- -- --  -- -- -- -- -- -- -- --
00A0:             20 01 1E F0  FF FF 7F 6F 76 F8 FF FF       ......ov...
00B0: 7F 2B 1C 50 0F 01 05 80  23 2B 1C 50 0F 01 06 80  .+.P....#+.P....
00C0: 23 2B 1C 50 0F 01 07 80  23 21 00                 #+.P....#!.     
```

#### Opcodes

```
  0: 0x00A4 [0x20] SET_CLI_EVENT_UC_FLAG: Lock player control
  1: 0x00A6 [0x1E] EventEntity looks at LocalPlayer and starts talking
  2: 0x00AB [0x6F] WAIT_FRAME_DELAY: Yield until WaitTime reaches zero
  3: 0x00AC [0x76] CHECK_ENTITY_RENDER_FLAGS: Wait until EventEntity Render.Flags0 and Render.Flags3 conditions are met
  4: 0x00B1 [0x2B] Mertaire (ID: 17780764/0x010F501C) [7457*]:
    → "It's you! Thank you so much!"
  5: 0x00B8 [0x23] WAIT_FOR_DIALOG_INTERACTION
  6: 0x00B9 [0x2B] Mertaire (ID: 17780764/0x010F501C) [7458*]:
    → "I had lost all confidence in life. But thanks to you, I think about those beautiful words written in stone whenever I feel down."
  7: 0x00C0 [0x23] WAIT_FOR_DIALOG_INTERACTION
  8: 0x00C1 [0x2B] Mertaire (ID: 17780764/0x010F501C) [7459*]:
    → "I feel a new composition bubbling forth inside me! Once it's done, I want you to hear it!"
  9: 0x00C8 [0x23] WAIT_FOR_DIALOG_INTERACTION
 10: 0x00C9 [0x21] END_EVENT
 11: 0x00CA [0x00] END_REQSTACK()
```

### Event 138

#### Metadata

| Field        | Value    |
|--------------|----------|
| Entrypoint   | 0x00CB   |
| Data Size    | 39 bytes |
| Instructions | 13       |

```
      00 01 02 03 04 05 06 07  08 09 0A 0B 0C 0D 0E 0F
      -- -- -- -- -- -- -- --  -- -- -- -- -- -- -- --
00C0:                                   1E F0 FF FF 7F             .....
00D0: 6F 70 66 00 80 F8 FF FF  7F F8 FF FF 7F 74 6C 6B  opf..........tlk
00E0: 31 1D 08 80 23 1D 09 80  23 1D 0A 80 23 1A 11 01  1...#...#...#...
00F0: 21 00                                             !.              
```

#### Opcodes

```
  0: 0x00CB [0x1E] EventEntity looks at LocalPlayer and starts talking
  1: 0x00D0 [0x6F] WAIT_FRAME_DELAY: Yield until WaitTime reaches zero
  2: 0x00D1 [0x70] WAIT_ENTITY_RENDER_FLAG: Wait while EventEntity->Render.Flags3 bit 2 is set (cancel turn if not)
  3: 0x00D2 [0x66] LOAD_EXT_SCHEDULER_MAIN: Load scheduler "tlk1" with entities [EventEntity, EventEntity], work=0*
  4: 0x00E1 [0x1D] PRINT_EVENT_MESSAGE(message_id=8034*)
    → "Look at you, a true bard! Me? I think I've finally recovered from the pain of rejection."
  5: 0x00E4 [0x23] WAIT_FOR_DIALOG_INTERACTION
  6: 0x00E5 [0x1D] PRINT_EVENT_MESSAGE(message_id=8035*)
    → "I couldn't bring myself to throw away the bracelet she gave me, but maybe now is the time."
  7: 0x00E8 [0x23] WAIT_FOR_DIALOG_INTERACTION
  8: 0x00E9 [0x1D] PRINT_EVENT_MESSAGE(message_id=8036*)
    → "It breaks my heart to cast it away! Please, maybe you could do it for me?"
  9: 0x00EC [0x23] WAIT_FOR_DIALOG_INTERACTION
 10: 0x00ED [0x1A] CALL_SUBROUTINE(address=0x0111)
 11: 0x00F0 [0x21] END_EVENT
 12: 0x00F1 [0x00] END_REQSTACK()
```

### Event 137

#### Metadata

| Field        | Value     |
|--------------|-----------|
| Entrypoint   | 0x00F2    |
| Data Size    | 154 bytes |
| Instructions | 30        |

```
      00 01 02 03 04 05 06 07  08 09 0A 0B 0C 0D 0E 0F
      -- -- -- -- -- -- -- --  -- -- -- -- -- -- -- --
00F0:       1E F0 FF FF 7F 6F  70 66 00 80 F8 FF FF 7F    .....opf......
0100: F8 FF FF 7F 74 6C 6B 31  1D 0B 80 23 1A 11 01 21  ....tlk1...#...!
0110: 00 42 06 01 10 24 0C 80  0D 80 00 80 25 02 00 10  .B...$......%...
0120: 00 80 00 6D 01 03 01 10  0D 80 66 00 80 F8 FF FF  ...m......f.....
0130: 7F F8 FF FF 7F 74 65 6E  31 1D 0E 80 23 53 F8 FF  .....ten1...#S..
0140: FF 7F F8 FF FF 7F 74 65  6E 31 66 00 80 F8 FF FF  ......ten1f.....
0150: 7F F8 FF FF 7F 70 61 73  30 1D 0F 80 23 53 F8 FF  .....pas0...#S..
0160: FF 7F F8 FF FF 7F 70 61  73 30 01 8B 01 02 00 10  ......pas0......
0170: 0D 80 00 8B 01 66 00 80  F8 FF FF 7F F8 FF FF 7F  .....f..........
0180: 74 65 6E 31 1D 10 80 23  01 8B 01 1B              ten1...#....    
```

#### Opcodes

```
  0: 0x00F2 [0x1E] EventEntity looks at LocalPlayer and starts talking
  1: 0x00F7 [0x6F] WAIT_FRAME_DELAY: Yield until WaitTime reaches zero
  2: 0x00F8 [0x70] WAIT_ENTITY_RENDER_FLAG: Wait while EventEntity->Render.Flags3 bit 2 is set (cancel turn if not)
  3: 0x00F9 [0x66] LOAD_EXT_SCHEDULER_MAIN: Load scheduler "tlk1" with entities [EventEntity, EventEntity], work=0*
  4: 0x0108 [0x1D] PRINT_EVENT_MESSAGE(message_id=8037*)
    → "I can't throw away the bracelet she gave me. Please, maybe you could do it for me?"
  5: 0x010B [0x23] WAIT_FOR_DIALOG_INTERACTION
  6: 0x010C [0x1A] CALL_SUBROUTINE(address=0x0111)
  7: 0x010F [0x21] END_EVENT
  8: 0x0110 [0x00] END_REQSTACK()

SUBROUTINE_0111:
  9: 0x0111 [0x42] SET_CLI_EVENT_CANCEL_DATA()
 10: 0x0112 [0x06] Work_Zone[1] = 0
 11: 0x0115 [0x24] CREATE_DIALOG(message_id=8038*, default_option=1*, option_flags=0*)
    → "Could you throw it away for me? [Oh, I suppose./No, do it yourself.]"
 12: 0x011C [0x25] WAIT_DIALOG_SELECT()
 13: 0x011D [0x02] IF !(Work_Zone[0] == 0*) GOTO 0x016D
 14: 0x0125 [0x03] Work_Zone[1] = 1*
 15: 0x012A [0x66] LOAD_EXT_SCHEDULER_MAIN: Load scheduler "ten1" with entities [EventEntity, EventEntity], work=0*
 16: 0x0139 [0x1D] PRINT_EVENT_MESSAGE(message_id=8039*)
    → "Thank you! But this gift is too precious to toss into the garbage... I know! Could you cast it into the Waters of Oblivion at Ranguemont Pass?"
 17: 0x013C [0x23] WAIT_FOR_DIALOG_INTERACTION
 18: 0x013D [0x53] WAIT_SCHEDULER_TASK: Wait for scheduler "ten1" with entities [EventEntity, EventEntity]
 19: 0x014A [0x66] LOAD_EXT_SCHEDULER_MAIN: Load scheduler "pas0" with entities [EventEntity, EventEntity], work=0*
 20: 0x0159 [0x1D] PRINT_EVENT_MESSAGE(message_id=8040*)
    → "Good luck, and don't just dump it at some auction house, all right?"
 21: 0x015C [0x23] WAIT_FOR_DIALOG_INTERACTION
 22: 0x015D [0x53] WAIT_SCHEDULER_TASK: Wait for scheduler "pas0" with entities [EventEntity, EventEntity]
 23: 0x016A [0x01] GOTO 0x018B
 24: 0x016D [0x02] IF !(Work_Zone[0] == 1*) GOTO 0x018B
 25: 0x0175 [0x66] LOAD_EXT_SCHEDULER_MAIN: Load scheduler "ten1" with entities [EventEntity, EventEntity], work=0*
 26: 0x0184 [0x1D] PRINT_EVENT_MESSAGE(message_id=8041*)
    → "Hmm... Maybe you're right. But I don't think I can bring myself to do it!"
 27: 0x0187 [0x23] WAIT_FOR_DIALOG_INTERACTION
 28: 0x0188 [0x01] GOTO 0x018B

SUBROUTINE_018B:
 29: 0x018B [0x1B] RETURN
```

### Event 136

#### Metadata

| Field        | Value    |
|--------------|----------|
| Entrypoint   | 0x018C   |
| Data Size    | 13 bytes |
| Instructions | 7        |

```
      00 01 02 03 04 05 06 07  08 09 0A 0B 0C 0D 0E 0F
      -- -- -- -- -- -- -- --  -- -- -- -- -- -- -- --
0180:                                      1E F0 FF FF              ....
0190: 7F 6F 70 1D 11 80 23 21  00                       .op...#!.       
```

#### Opcodes

```
  0: 0x018C [0x1E] EventEntity looks at LocalPlayer and starts talking
  1: 0x0191 [0x6F] WAIT_FRAME_DELAY: Yield until WaitTime reaches zero
  2: 0x0192 [0x70] WAIT_ENTITY_RENDER_FLAG: Wait while EventEntity->Render.Flags3 bit 2 is set (cancel turn if not)
  3: 0x0193 [0x1D] PRINT_EVENT_MESSAGE(message_id=8042*)
    → "It's too precious to throw into the garbage. No, it needs a more peaceful resting place, like the Water of Oblivion in Ranguemont Pass."
  4: 0x0196 [0x23] WAIT_FOR_DIALOG_INTERACTION
  5: 0x0197 [0x21] END_EVENT
  6: 0x0198 [0x00] END_REQSTACK()
```

### Event 135

#### Metadata

| Field        | Value    |
|--------------|----------|
| Entrypoint   | 0x0199   |
| Data Size    | 13 bytes |
| Instructions | 7        |

```
      00 01 02 03 04 05 06 07  08 09 0A 0B 0C 0D 0E 0F
      -- -- -- -- -- -- -- --  -- -- -- -- -- -- -- --
0190:                             1E F0 FF FF 7F 6F 70           .....op
01A0: 1D 12 80 23 21 00                                 ...#!.          
```

#### Opcodes

```
  0: 0x0199 [0x1E] EventEntity looks at LocalPlayer and starts talking
  1: 0x019E [0x6F] WAIT_FRAME_DELAY: Yield until WaitTime reaches zero
  2: 0x019F [0x70] WAIT_ENTITY_RENDER_FLAG: Wait while EventEntity->Render.Flags3 bit 2 is set (cancel turn if not)
  3: 0x01A0 [0x1D] PRINT_EVENT_MESSAGE(message_id=8046*)
    → "Perhaps my heartfelt pain will live on in my song. Such is the life of a bard!"
  4: 0x01A3 [0x23] WAIT_FOR_DIALOG_INTERACTION
  5: 0x01A4 [0x21] END_EVENT
  6: 0x01A5 [0x00] END_REQSTACK()
```

### Event 139

#### Metadata

| Field        | Value    |
|--------------|----------|
| Entrypoint   | 0x01A6   |
| Data Size    | 13 bytes |
| Instructions | 7        |

```
      00 01 02 03 04 05 06 07  08 09 0A 0B 0C 0D 0E 0F
      -- -- -- -- -- -- -- --  -- -- -- -- -- -- -- --
01A0:                   1E F0  FF FF 7F 6F 70 1D 13 80        .....op...
01B0: 23 21 00                                          #!.             
```

#### Opcodes

```
  0: 0x01A6 [0x1E] EventEntity looks at LocalPlayer and starts talking
  1: 0x01AB [0x6F] WAIT_FRAME_DELAY: Yield until WaitTime reaches zero
  2: 0x01AC [0x70] WAIT_ENTITY_RENDER_FLAG: Wait while EventEntity->Render.Flags3 bit 2 is set (cancel turn if not)
  3: 0x01AD [0x1D] PRINT_EVENT_MESSAGE(message_id=8065*)
    → "So, what did you do with that ring? Maybe it's valuable. I'd ask a collector if I were you. Of course, he might just say it's worthless..."
  4: 0x01B0 [0x23] WAIT_FOR_DIALOG_INTERACTION
  5: 0x01B1 [0x21] END_EVENT
  6: 0x01B2 [0x00] END_REQSTACK()
```

### Event 65535.1

#### Metadata

| Field        | Value    |
|--------------|----------|
| Entrypoint   | 0x01B3   |
| Data Size    | 19 bytes |
| Instructions | 3        |

```
      00 01 02 03 04 05 06 07  08 09 0A 0B 0C 0D 0E 0F
      -- -- -- -- -- -- -- --  -- -- -- -- -- -- -- --
01B0:          66 00 80 F8 FF  FF 7F F8 FF FF 7F 74 6C     f..........tl
01C0: 6B 30 1C 14 80 00                                 k0....          
```

#### Opcodes

```
  0: 0x01B3 [0x66] LOAD_EXT_SCHEDULER_MAIN: Load scheduler "tlk0" with entities [EventEntity, EventEntity], work=0*
  1: 0x01C2 [0x1C] WAIT(60* ticks)
  2: 0x01C5 [0x00] END_REQSTACK()
```

### Event 65535.2

#### Metadata

| Field        | Value    |
|--------------|----------|
| Entrypoint   | 0x01C6   |
| Data Size    | 29 bytes |
| Instructions | 3        |

```
      00 01 02 03 04 05 06 07  08 09 0A 0B 0C 0D 0E 0F
      -- -- -- -- -- -- -- --  -- -- -- -- -- -- -- --
01C0:                   66 00  80 F8 FF FF 7F F8 FF FF        f.........
01D0: 7F 74 65 6E 30 53 F8 FF  FF 7F F8 FF FF 7F 74 65  .ten0S........te
01E0: 6E 30 00                                          n0.             
```

#### Opcodes

```
  0: 0x01C6 [0x66] LOAD_EXT_SCHEDULER_MAIN: Load scheduler "ten0" with entities [EventEntity, EventEntity], work=0*
  1: 0x01D5 [0x53] WAIT_SCHEDULER_TASK: Wait for scheduler "ten0" with entities [EventEntity, EventEntity]
  2: 0x01E2 [0x00] END_REQSTACK()
```

### Event 65535.3

#### Metadata

| Field        | Value    |
|--------------|----------|
| Entrypoint   | 0x01E3   |
| Data Size    | 19 bytes |
| Instructions | 3        |

```
      00 01 02 03 04 05 06 07  08 09 0A 0B 0C 0D 0E 0F
      -- -- -- -- -- -- -- --  -- -- -- -- -- -- -- --
01E0:          66 00 80 F8 FF  FF 7F F8 FF FF 7F 74 6C     f..........tl
01F0: 6B 31 1C 14 80 00                                 k1....          
```

#### Opcodes

```
  0: 0x01E3 [0x66] LOAD_EXT_SCHEDULER_MAIN: Load scheduler "tlk1" with entities [EventEntity, EventEntity], work=0*
  1: 0x01F2 [0x1C] WAIT(60* ticks)
  2: 0x01F5 [0x00] END_REQSTACK()
```

### Event 65535.4

#### Metadata

| Field        | Value    |
|--------------|----------|
| Entrypoint   | 0x01F6   |
| Data Size    | 29 bytes |
| Instructions | 3        |

```
      00 01 02 03 04 05 06 07  08 09 0A 0B 0C 0D 0E 0F
      -- -- -- -- -- -- -- --  -- -- -- -- -- -- -- --
01F0:                   66 00  80 F8 FF FF 7F F8 FF FF        f.........
0200: 7F 74 65 6E 31 53 F8 FF  FF 7F F8 FF FF 7F 74 65  .ten1S........te
0210: 6E 31 00                                          n1.             
```

#### Opcodes

```
  0: 0x01F6 [0x66] LOAD_EXT_SCHEDULER_MAIN: Load scheduler "ten1" with entities [EventEntity, EventEntity], work=0*
  1: 0x0205 [0x53] WAIT_SCHEDULER_TASK: Wait for scheduler "ten1" with entities [EventEntity, EventEntity]
  2: 0x0212 [0x00] END_REQSTACK()
```

### Event 65535.5

#### Metadata

| Field        | Value    |
|--------------|----------|
| Entrypoint   | 0x0213   |
| Data Size    | 25 bytes |
| Instructions | 4        |

```
      00 01 02 03 04 05 06 07  08 09 0A 0B 0C 0D 0E 0F
      -- -- -- -- -- -- -- --  -- -- -- -- -- -- -- --
0210:          81 00 F8 FF FF  7F 66 00 80 F8 FF FF 7F     ......f......
0220: F8 FF FF 7F 74 68 6B 31  1C 14 80 00              ....thk1....    
```

#### Opcodes

```
  0: 0x0213 [0x81] SET_ENTITY_BLINKING(blink_flag=0x00, entity=EventEntity)
  1: 0x0219 [0x66] LOAD_EXT_SCHEDULER_MAIN: Load scheduler "thk1" with entities [EventEntity, EventEntity], work=0*
  2: 0x0228 [0x1C] WAIT(60* ticks)
  3: 0x022B [0x00] END_REQSTACK()
```

### Event 65535.6

#### Metadata

| Field        | Value    |
|--------------|----------|
| Entrypoint   | 0x022C   |
| Data Size    | 35 bytes |
| Instructions | 4        |

```
      00 01 02 03 04 05 06 07  08 09 0A 0B 0C 0D 0E 0F
      -- -- -- -- -- -- -- --  -- -- -- -- -- -- -- --
0220:                                      81 01 F8 FF              ....
0230: FF 7F 66 00 80 F8 FF FF  7F F8 FF FF 7F 74 68 6B  ..f..........thk
0240: 32 53 F8 FF FF 7F F8 FF  FF 7F 74 68 6B 32 00     2S........thk2. 
```

#### Opcodes

```
  0: 0x022C [0x81] SET_ENTITY_BLINKING(blink_flag=0x01, entity=EventEntity)
  1: 0x0232 [0x66] LOAD_EXT_SCHEDULER_MAIN: Load scheduler "thk2" with entities [EventEntity, EventEntity], work=0*
  2: 0x0241 [0x53] WAIT_SCHEDULER_TASK: Wait for scheduler "thk2" with entities [EventEntity, EventEntity]
  3: 0x024E [0x00] END_REQSTACK()
```

### Event 65535.7

#### Metadata

| Field        | Value   |
|--------------|---------|
| Entrypoint   | 0x024F  |
| Data Size    | 6 bytes |
| Instructions | 2       |

```
      00 01 02 03 04 05 06 07  08 09 0A 0B 0C 0D 0E 0F
      -- -- -- -- -- -- -- --  -- -- -- -- -- -- -- --
0240:                                               5E                 ^
0250: 69 64 6C 30 00                                    idl0.           
```

#### Opcodes

```
  0: 0x024F [0x5E] EventEntity goes idle (kills current action) (animation: "idl0")
  1: 0x0254 [0x00] END_REQSTACK()
```

### Event 65535.8

#### Metadata

| Field        | Value   |
|--------------|---------|
| Entrypoint   | 0x0255  |
| Data Size    | 2 bytes |
| Instructions | 1       |

```
      00 01 02 03 04 05 06 07  08 09 0A 0B 0C 0D 0E 0F
      -- -- -- -- -- -- -- --  -- -- -- -- -- -- -- --
0250:                00 00                                   ..         
```

#### Opcodes

```
  0: 0x0255 [0x00] END_REQSTACK()
```

#### Data or dead code:

```
# Dead code (unreachable instructions):
     0x0256 [0x00] END_REQSTACK()
```

### Event 10094

#### Metadata

| Field        | Value   |
|--------------|---------|
| Entrypoint   | 0x0257  |
| Data Size    | 5 bytes |
| Instructions | 2       |

```
      00 01 02 03 04 05 06 07  08 09 0A 0B 0C 0D 0E 0F
      -- -- -- -- -- -- -- --  -- -- -- -- -- -- -- --
0250:                      C0  0D 80 00 00                     .....    
```

#### Opcodes

```
  0: 0x0257 [0xC0] EventEntity->Render.Flags3 |= 0x1000 // Set bit 12 (from 1*)
  1: 0x025A [0x00] END_REQSTACK()
```

#### Data or dead code:

```
# Dead code (unreachable instructions):
     0x025B [0x00] END_REQSTACK()
```

### Event 65535.9

#### Metadata

| Field        | Value    |
|--------------|----------|
| Entrypoint   | 0x025C   |
| Data Size    | 20 bytes |
| Instructions | 5        |

```
      00 01 02 03 04 05 06 07  08 09 0A 0B 0C 0D 0E 0F
      -- -- -- -- -- -- -- --  -- -- -- -- -- -- -- --
0250:                                      59 04 0B 50              Y..P
0260: 0F 01 15 80 1F 00 16 80  17 80 00 80 1F 01 6F 00  ..............o.
```

#### Opcodes

```
  0: 0x025C [0x59] UPDATE_ENTITY_DATA: Set Garnev (ID: 17780747/0x010F500B) main speed = 12* * 0.1
  1: 0x0264 [0x1F] MOVE_ENTITY: EventEntity moves to X=-76.092*, Z=-136.357*, Y=0.000*
  2: 0x026C [0x1F] MOVE_ENTITY: Update entity position (mode=1)
  3: 0x026E [0x6F] WAIT_FRAME_DELAY: Yield until WaitTime reaches zero
  4: 0x026F [0x00] END_REQSTACK()
```

### Event 65535.10

#### Metadata

| Field        | Value    |
|--------------|----------|
| Entrypoint   | 0x0270   |
| Data Size    | 20 bytes |
| Instructions | 5        |

```
      00 01 02 03 04 05 06 07  08 09 0A 0B 0C 0D 0E 0F
      -- -- -- -- -- -- -- --  -- -- -- -- -- -- -- --
0270: 59 04 1D 50 0F 01 18 80  1F 00 19 80 1A 80 00 80  Y..P............
0280: 1F 01 6F 00                                       ..o.            
```

#### Opcodes

```
  0: 0x0270 [0x59] UPDATE_ENTITY_DATA: Set Mataligeat (ID: 17780765/0x010F501D) main speed = 11* * 0.1
  1: 0x0278 [0x1F] MOVE_ENTITY: EventEntity moves to X=-95.337*, Z=-156.056*, Y=0.000*
  2: 0x0280 [0x1F] MOVE_ENTITY: Update entity position (mode=1)
  3: 0x0282 [0x6F] WAIT_FRAME_DELAY: Yield until WaitTime reaches zero
  4: 0x0283 [0x00] END_REQSTACK()
```

### Event 65535.11

#### Metadata

| Field        | Value    |
|--------------|----------|
| Entrypoint   | 0x0284   |
| Data Size    | 20 bytes |
| Instructions | 5        |

```
      00 01 02 03 04 05 06 07  08 09 0A 0B 0C 0D 0E 0F
      -- -- -- -- -- -- -- --  -- -- -- -- -- -- -- --
0280:             59 04 1D 50  0F 01 18 80 1F 00 1B 80      Y..P........
0290: 1C 80 1D 80 1F 01 6F 00                           ......o.        
```

#### Opcodes

```
  0: 0x0284 [0x59] UPDATE_ENTITY_DATA: Set Mataligeat (ID: 17780765/0x010F501D) main speed = 11* * 0.1
  1: 0x028C [0x1F] MOVE_ENTITY: EventEntity moves to X=-62.073*, Z=-89.873*, Y=5.999*
  2: 0x0294 [0x1F] MOVE_ENTITY: Update entity position (mode=1)
  3: 0x0296 [0x6F] WAIT_FRAME_DELAY: Yield until WaitTime reaches zero
  4: 0x0297 [0x00] END_REQSTACK()
```

### Event 65535.12

#### Metadata

| Field        | Value    |
|--------------|----------|
| Entrypoint   | 0x0298   |
| Data Size    | 17 bytes |
| Instructions | 2        |

```
      00 01 02 03 04 05 06 07  08 09 0A 0B 0C 0D 0E 0F
      -- -- -- -- -- -- -- --  -- -- -- -- -- -- -- --
0290:                          5B 1E 80 1D 50 0F 01 1D          [...P...
02A0: 50 0F 01 6F 70 30 30 00  00                       P..op00..       
```

#### Opcodes

```
  0: 0x0298 [0x5B] LOAD_EXT_SCHEDULER: Load scheduler "op00" with entities [Mataligeat (ID: 17780765/0x010F501D), Mataligeat (ID: 17780765/0x010F501D)], work=2618*
  1: 0x02A7 [0x00] END_REQSTACK()
```

#### Data or dead code:

```
# Dead code (unreachable instructions):
     0x02A8 [0x00] END_REQSTACK()
```

### Event 65535.13

#### Metadata

| Field        | Value    |
|--------------|----------|
| Entrypoint   | 0x02A9   |
| Data Size    | 20 bytes |
| Instructions | 5        |

```
      00 01 02 03 04 05 06 07  08 09 0A 0B 0C 0D 0E 0F
      -- -- -- -- -- -- -- --  -- -- -- -- -- -- -- --
02A0:                             59 04 3A 50 0F 01 18           Y.:P...
02B0: 80 1F 00 19 80 1A 80 00  80 1F 01 6F 00           ...........o.   
```

#### Opcodes

```
  0: 0x02A9 [0x59] UPDATE_ENTITY_DATA: Set Navisse (ID: 17780794/0x010F503A) main speed = 11* * 0.1
  1: 0x02B1 [0x1F] MOVE_ENTITY: EventEntity moves to X=-95.337*, Z=-156.056*, Y=0.000*
  2: 0x02B9 [0x1F] MOVE_ENTITY: Update entity position (mode=1)
  3: 0x02BB [0x6F] WAIT_FRAME_DELAY: Yield until WaitTime reaches zero
  4: 0x02BC [0x00] END_REQSTACK()
```

### Event 65535.14

#### Metadata

| Field        | Value    |
|--------------|----------|
| Entrypoint   | 0x02BD   |
| Data Size    | 20 bytes |
| Instructions | 5        |

```
      00 01 02 03 04 05 06 07  08 09 0A 0B 0C 0D 0E 0F
      -- -- -- -- -- -- -- --  -- -- -- -- -- -- -- --
02B0:                                         59 04 2C               Y.,
02C0: 50 0F 01 15 80 1F 00 1F  80 20 80 00 80 1F 01 6F  P........ .....o
02D0: 00                                                .               
```

#### Opcodes

```
  0: 0x02BD [0x59] UPDATE_ENTITY_DATA: Set Jazmin (ID: 17780780/0x010F502C) main speed = 12* * 0.1
  1: 0x02C5 [0x1F] MOVE_ENTITY: EventEntity moves to X=-83.944*, Z=-128.625*, Y=0.000*
  2: 0x02CD [0x1F] MOVE_ENTITY: Update entity position (mode=1)
  3: 0x02CF [0x6F] WAIT_FRAME_DELAY: Yield until WaitTime reaches zero
  4: 0x02D0 [0x00] END_REQSTACK()
```

### Event 65535.15

#### Metadata

| Field        | Value    |
|--------------|----------|
| Entrypoint   | 0x02D1   |
| Data Size    | 19 bytes |
| Instructions | 4        |

```
      00 01 02 03 04 05 06 07  08 09 0A 0B 0C 0D 0E 0F
      -- -- -- -- -- -- -- --  -- -- -- -- -- -- -- --
02D0:    59 04 2C 50 0F 01 18  80 1F 00 21 80 22 80 1D   Y.,P......!."..
02E0: 80 1F 01 00                                       ....            
```

#### Opcodes

```
  0: 0x02D1 [0x59] UPDATE_ENTITY_DATA: Set Jazmin (ID: 17780780/0x010F502C) main speed = 11* * 0.1
  1: 0x02D9 [0x1F] MOVE_ENTITY: EventEntity moves to X=-68.592*, Z=-96.839*, Y=5.999*
  2: 0x02E1 [0x1F] MOVE_ENTITY: Update entity position (mode=1)
  3: 0x02E3 [0x00] END_REQSTACK()
```

### Event 65535.16

#### Metadata

| Field        | Value    |
|--------------|----------|
| Entrypoint   | 0x02E4   |
| Data Size    | 19 bytes |
| Instructions | 4        |

```
      00 01 02 03 04 05 06 07  08 09 0A 0B 0C 0D 0E 0F
      -- -- -- -- -- -- -- --  -- -- -- -- -- -- -- --
02E0:             59 04 2C 50  0F 01 18 80 1F 00 23 80      Y.,P......#.
02F0: 24 80 1D 80 1F 01 00                              $......         
```

#### Opcodes

```
  0: 0x02E4 [0x59] UPDATE_ENTITY_DATA: Set Jazmin (ID: 17780780/0x010F502C) main speed = 11* * 0.1
  1: 0x02EC [0x1F] MOVE_ENTITY: EventEntity moves to X=-70.511*, Z=-102.750*, Y=5.999*
  2: 0x02F4 [0x1F] MOVE_ENTITY: Update entity position (mode=1)
  3: 0x02F6 [0x00] END_REQSTACK()
```

### Event 65535.17

#### Metadata

| Field        | Value    |
|--------------|----------|
| Entrypoint   | 0x02F7   |
| Data Size    | 16 bytes |
| Instructions | 2        |

```
      00 01 02 03 04 05 06 07  08 09 0A 0B 0C 0D 0E 0F
      -- -- -- -- -- -- -- --  -- -- -- -- -- -- -- --
02F0:                      5B  25 80 2C 50 0F 01 2C 50         [%.,P..,P
0300: 0F 01 6F 70 30 30 00                              ..op00.         
```

#### Opcodes

```
  0: 0x02F7 [0x5B] LOAD_EXT_SCHEDULER: Load scheduler "op00" with entities [Jazmin (ID: 17780780/0x010F502C), Jazmin (ID: 17780780/0x010F502C)], work=2602*
  1: 0x0306 [0x00] END_REQSTACK()
```

### Event 65535.18

#### Metadata

| Field        | Value    |
|--------------|----------|
| Entrypoint   | 0x0307   |
| Data Size    | 16 bytes |
| Instructions | 2        |

```
      00 01 02 03 04 05 06 07  08 09 0A 0B 0C 0D 0E 0F
      -- -- -- -- -- -- -- --  -- -- -- -- -- -- -- --
0300:                      5B  25 80 2C 50 0F 01 2C 50         [%.,P..,P
0310: 0F 01 6F 70 30 31 00                              ..op01.         
```

#### Opcodes

```
  0: 0x0307 [0x5B] LOAD_EXT_SCHEDULER: Load scheduler "op01" with entities [Jazmin (ID: 17780780/0x010F502C), Jazmin (ID: 17780780/0x010F502C)], work=2602*
  1: 0x0316 [0x00] END_REQSTACK()
```

### Event 65535.19

#### Metadata

| Field        | Value    |
|--------------|----------|
| Entrypoint   | 0x0317   |
| Data Size    | 20 bytes |
| Instructions | 5        |

```
      00 01 02 03 04 05 06 07  08 09 0A 0B 0C 0D 0E 0F
      -- -- -- -- -- -- -- --  -- -- -- -- -- -- -- --
0310:                      59  04 2C 50 0F 01 18 80 1F         Y.,P.....
0320: 00 26 80 27 80 1D 80 1F  01 6F 00                 .&.'.....o.     
```

#### Opcodes

```
  0: 0x0317 [0x59] UPDATE_ENTITY_DATA: Set Jazmin (ID: 17780780/0x010F502C) main speed = 11* * 0.1
  1: 0x031F [0x1F] MOVE_ENTITY: EventEntity moves to X=-72.366*, Z=-118.167*, Y=5.999*
  2: 0x0327 [0x1F] MOVE_ENTITY: Update entity position (mode=1)
  3: 0x0329 [0x6F] WAIT_FRAME_DELAY: Yield until WaitTime reaches zero
  4: 0x032A [0x00] END_REQSTACK()
```

### Event 65535.20

#### Metadata

| Field        | Value    |
|--------------|----------|
| Entrypoint   | 0x032B   |
| Data Size    | 16 bytes |
| Instructions | 2        |

```
      00 01 02 03 04 05 06 07  08 09 0A 0B 0C 0D 0E 0F
      -- -- -- -- -- -- -- --  -- -- -- -- -- -- -- --
0320:                                   5B 28 80 2C 50             [(.,P
0330: 0F 01 2C 50 0F 01 6F 70  61 30 00                 ..,P..opa0.     
```

#### Opcodes

```
  0: 0x032B [0x5B] LOAD_EXT_SCHEDULER: Load scheduler "opa0" with entities [Jazmin (ID: 17780780/0x010F502C), Jazmin (ID: 17780780/0x010F502C)], work=2617*
  1: 0x033A [0x00] END_REQSTACK()
```

### Event 65535.21

#### Metadata

| Field        | Value    |
|--------------|----------|
| Entrypoint   | 0x033B   |
| Data Size    | 16 bytes |
| Instructions | 2        |

```
      00 01 02 03 04 05 06 07  08 09 0A 0B 0C 0D 0E 0F
      -- -- -- -- -- -- -- --  -- -- -- -- -- -- -- --
0330:                                   5B 28 80 2C 50             [(.,P
0340: 0F 01 2C 50 0F 01 6F 70  61 31 00                 ..,P..opa1.     
```

#### Opcodes

```
  0: 0x033B [0x5B] LOAD_EXT_SCHEDULER: Load scheduler "opa1" with entities [Jazmin (ID: 17780780/0x010F502C), Jazmin (ID: 17780780/0x010F502C)], work=2617*
  1: 0x034A [0x00] END_REQSTACK()
```

### Event 65535.22

#### Metadata

| Field        | Value    |
|--------------|----------|
| Entrypoint   | 0x034B   |
| Data Size    | 16 bytes |
| Instructions | 2        |

```
      00 01 02 03 04 05 06 07  08 09 0A 0B 0C 0D 0E 0F
      -- -- -- -- -- -- -- --  -- -- -- -- -- -- -- --
0340:                                   5B 28 80 2C 50             [(.,P
0350: 0F 01 2C 50 0F 01 6F 70  61 32 00                 ..,P..opa2.     
```

#### Opcodes

```
  0: 0x034B [0x5B] LOAD_EXT_SCHEDULER: Load scheduler "opa2" with entities [Jazmin (ID: 17780780/0x010F502C), Jazmin (ID: 17780780/0x010F502C)], work=2617*
  1: 0x035A [0x00] END_REQSTACK()
```

### Event 65535.23

#### Metadata

| Field        | Value    |
|--------------|----------|
| Entrypoint   | 0x035B   |
| Data Size    | 21 bytes |
| Instructions | 5        |

```
      00 01 02 03 04 05 06 07  08 09 0A 0B 0C 0D 0E 0F
      -- -- -- -- -- -- -- --  -- -- -- -- -- -- -- --
0350:                                   59 04 2E 50 0F             Y..P.
0360: 01 15 80 1F 00 16 80 17  80 00 80 1F 01 6F 00 00  .............o..
```

#### Opcodes

```
  0: 0x035B [0x59] UPDATE_ENTITY_DATA: Set Bogharg (ID: 17780782/0x010F502E) main speed = 12* * 0.1
  1: 0x0363 [0x1F] MOVE_ENTITY: EventEntity moves to X=-76.092*, Z=-136.357*, Y=0.000*
  2: 0x036B [0x1F] MOVE_ENTITY: Update entity position (mode=1)
  3: 0x036D [0x6F] WAIT_FRAME_DELAY: Yield until WaitTime reaches zero
  4: 0x036E [0x00] END_REQSTACK()
```

#### Data or dead code:

```
# Dead code (unreachable instructions):
     0x036F [0x00] END_REQSTACK()
```

### Event 65535.24

#### Metadata

| Field        | Value    |
|--------------|----------|
| Entrypoint   | 0x0370   |
| Data Size    | 16 bytes |
| Instructions | 2        |

```
      00 01 02 03 04 05 06 07  08 09 0A 0B 0C 0D 0E 0F
      -- -- -- -- -- -- -- --  -- -- -- -- -- -- -- --
0370: 66 29 80 2E 50 0F 01 2E  50 0F 01 74 68 6B 31 00  f)..P...P..thk1.
```

#### Opcodes

```
  0: 0x0370 [0x66] LOAD_EXT_SCHEDULER_MAIN: Load scheduler "thk1" with entities [Bogharg (ID: 17780782/0x010F502E), Bogharg (ID: 17780782/0x010F502E)], work=69*
  1: 0x037F [0x00] END_REQSTACK()
```

### Event 65535.25

#### Metadata

| Field        | Value    |
|--------------|----------|
| Entrypoint   | 0x0380   |
| Data Size    | 16 bytes |
| Instructions | 2        |

```
      00 01 02 03 04 05 06 07  08 09 0A 0B 0C 0D 0E 0F
      -- -- -- -- -- -- -- --  -- -- -- -- -- -- -- --
0380: 66 29 80 2E 50 0F 01 2E  50 0F 01 74 68 6B 32 00  f)..P...P..thk2.
```

#### Opcodes

```
  0: 0x0380 [0x66] LOAD_EXT_SCHEDULER_MAIN: Load scheduler "thk2" with entities [Bogharg (ID: 17780782/0x010F502E), Bogharg (ID: 17780782/0x010F502E)], work=69*
  1: 0x038F [0x00] END_REQSTACK()
```

### Event 65535.26

#### Metadata

| Field        | Value    |
|--------------|----------|
| Entrypoint   | 0x0390   |
| Data Size    | 20 bytes |
| Instructions | 5        |

```
      00 01 02 03 04 05 06 07  08 09 0A 0B 0C 0D 0E 0F
      -- -- -- -- -- -- -- --  -- -- -- -- -- -- -- --
0390: 59 04 2E 50 0F 01 15 80  1F 00 2A 80 2B 80 1D 80  Y..P......*.+...
03A0: 1F 01 6F 00                                       ..o.            
```

#### Opcodes

```
  0: 0x0390 [0x59] UPDATE_ENTITY_DATA: Set Bogharg (ID: 17780782/0x010F502E) main speed = 12* * 0.1
  1: 0x0398 [0x1F] MOVE_ENTITY: EventEntity moves to X=-56.992*, Z=-88.050*, Y=5.999*
  2: 0x03A0 [0x1F] MOVE_ENTITY: Update entity position (mode=1)
  3: 0x03A2 [0x6F] WAIT_FRAME_DELAY: Yield until WaitTime reaches zero
  4: 0x03A3 [0x00] END_REQSTACK()
```

### Event 65535.27

#### Metadata

| Field        | Value    |
|--------------|----------|
| Entrypoint   | 0x03A4   |
| Data Size    | 17 bytes |
| Instructions | 2        |

```
      00 01 02 03 04 05 06 07  08 09 0A 0B 0C 0D 0E 0F
      -- -- -- -- -- -- -- --  -- -- -- -- -- -- -- --
03A0:             5B 2C 80 2E  50 0F 01 2E 50 0F 01 6F      [,..P...P..o
03B0: 70 30 30 00 00                                    p00..           
```

#### Opcodes

```
  0: 0x03A4 [0x5B] LOAD_EXT_SCHEDULER: Load scheduler "op00" with entities [Bogharg (ID: 17780782/0x010F502E), Bogharg (ID: 17780782/0x010F502E)], work=2621*
  1: 0x03B3 [0x00] END_REQSTACK()
```

#### Data or dead code:

```
# Dead code (unreachable instructions):
     0x03B4 [0x00] END_REQSTACK()
```

### Event 65535.28

#### Metadata

| Field        | Value    |
|--------------|----------|
| Entrypoint   | 0x03B5   |
| Data Size    | 20 bytes |
| Instructions | 5        |

```
      00 01 02 03 04 05 06 07  08 09 0A 0B 0C 0D 0E 0F
      -- -- -- -- -- -- -- --  -- -- -- -- -- -- -- --
03B0:                59 04 31  50 0F 01 18 80 1F 00 1F       Y.1P.......
03C0: 80 20 80 00 80 1F 01 6F  00                       . .....o.       
```

#### Opcodes

```
  0: 0x03B5 [0x59] UPDATE_ENTITY_DATA: Set Nakho Jawantal (ID: 17780785/0x010F5031) main speed = 11* * 0.1
  1: 0x03BD [0x1F] MOVE_ENTITY: EventEntity moves to X=-83.944*, Z=-128.625*, Y=0.000*
  2: 0x03C5 [0x1F] MOVE_ENTITY: Update entity position (mode=1)
  3: 0x03C7 [0x6F] WAIT_FRAME_DELAY: Yield until WaitTime reaches zero
  4: 0x03C8 [0x00] END_REQSTACK()
```

### Event 65535.29

#### Metadata

| Field        | Value    |
|--------------|----------|
| Entrypoint   | 0x03C9   |
| Data Size    | 16 bytes |
| Instructions | 2        |

```
      00 01 02 03 04 05 06 07  08 09 0A 0B 0C 0D 0E 0F
      -- -- -- -- -- -- -- --  -- -- -- -- -- -- -- --
03C0:                             5B 2D 80 12 50 0F 01           [-..P..
03D0: 12 50 0F 01 6F 70 61 30  00                       .P..opa0.       
```

#### Opcodes

```
  0: 0x03C9 [0x5B] LOAD_EXT_SCHEDULER: Load scheduler "opa0" with entities [Tovrutaux (ID: 17780754/0x010F5012), Tovrutaux (ID: 17780754/0x010F5012)], work=2627*
  1: 0x03D8 [0x00] END_REQSTACK()
```

### Event 65535.30

#### Metadata

| Field        | Value    |
|--------------|----------|
| Entrypoint   | 0x03D9   |
| Data Size    | 16 bytes |
| Instructions | 2        |

```
      00 01 02 03 04 05 06 07  08 09 0A 0B 0C 0D 0E 0F
      -- -- -- -- -- -- -- --  -- -- -- -- -- -- -- --
03D0:                             5B 2D 80 12 50 0F 01           [-..P..
03E0: 12 50 0F 01 6F 70 61 31  00                       .P..opa1.       
```

#### Opcodes

```
  0: 0x03D9 [0x5B] LOAD_EXT_SCHEDULER: Load scheduler "opa1" with entities [Tovrutaux (ID: 17780754/0x010F5012), Tovrutaux (ID: 17780754/0x010F5012)], work=2627*
  1: 0x03E8 [0x00] END_REQSTACK()
```

### Event 65535.31

#### Metadata

| Field        | Value    |
|--------------|----------|
| Entrypoint   | 0x03E9   |
| Data Size    | 16 bytes |
| Instructions | 2        |

```
      00 01 02 03 04 05 06 07  08 09 0A 0B 0C 0D 0E 0F
      -- -- -- -- -- -- -- --  -- -- -- -- -- -- -- --
03E0:                             5B 2D 80 12 50 0F 01           [-..P..
03F0: 12 50 0F 01 6F 70 61 32  00                       .P..opa2.       
```

#### Opcodes

```
  0: 0x03E9 [0x5B] LOAD_EXT_SCHEDULER: Load scheduler "opa2" with entities [Tovrutaux (ID: 17780754/0x010F5012), Tovrutaux (ID: 17780754/0x010F5012)], work=2627*
  1: 0x03F8 [0x00] END_REQSTACK()
```

### Event 65535.32

#### Metadata

| Field        | Value    |
|--------------|----------|
| Entrypoint   | 0x03F9   |
| Data Size    | 16 bytes |
| Instructions | 2        |

```
      00 01 02 03 04 05 06 07  08 09 0A 0B 0C 0D 0E 0F
      -- -- -- -- -- -- -- --  -- -- -- -- -- -- -- --
03F0:                             5B 2E 80 12 50 0F 01           [...P..
0400: 12 50 0F 01 74 68 6B 31  00                       .P..thk1.       
```

#### Opcodes

```
  0: 0x03F9 [0x5B] LOAD_EXT_SCHEDULER: Load scheduler "thk1" with entities [Tovrutaux (ID: 17780754/0x010F5012), Tovrutaux (ID: 17780754/0x010F5012)], work=75*
  1: 0x0408 [0x00] END_REQSTACK()
```

### Event 65535.33

#### Metadata

| Field        | Value    |
|--------------|----------|
| Entrypoint   | 0x0409   |
| Data Size    | 16 bytes |
| Instructions | 2        |

```
      00 01 02 03 04 05 06 07  08 09 0A 0B 0C 0D 0E 0F
      -- -- -- -- -- -- -- --  -- -- -- -- -- -- -- --
0400:                             5B 2E 80 12 50 0F 01           [...P..
0410: 12 50 0F 01 74 68 6B 32  00                       .P..thk2.       
```

#### Opcodes

```
  0: 0x0409 [0x5B] LOAD_EXT_SCHEDULER: Load scheduler "thk2" with entities [Tovrutaux (ID: 17780754/0x010F5012), Tovrutaux (ID: 17780754/0x010F5012)], work=75*
  1: 0x0418 [0x00] END_REQSTACK()
```

### Event 65535.34

#### Metadata

| Field        | Value    |
|--------------|----------|
| Entrypoint   | 0x0419   |
| Data Size    | 16 bytes |
| Instructions | 2        |

```
      00 01 02 03 04 05 06 07  08 09 0A 0B 0C 0D 0E 0F
      -- -- -- -- -- -- -- --  -- -- -- -- -- -- -- --
0410:                             5B 2E 80 12 50 0F 01           [...P..
0420: 12 50 0F 01 74 6C 6B 30  00                       .P..tlk0.       
```

#### Opcodes

```
  0: 0x0419 [0x5B] LOAD_EXT_SCHEDULER: Load scheduler "tlk0" with entities [Tovrutaux (ID: 17780754/0x010F5012), Tovrutaux (ID: 17780754/0x010F5012)], work=75*
  1: 0x0428 [0x00] END_REQSTACK()
```

### Event 65535.35

#### Metadata

| Field        | Value    |
|--------------|----------|
| Entrypoint   | 0x0429   |
| Data Size    | 16 bytes |
| Instructions | 2        |

```
      00 01 02 03 04 05 06 07  08 09 0A 0B 0C 0D 0E 0F
      -- -- -- -- -- -- -- --  -- -- -- -- -- -- -- --
0420:                             5B 2E 80 12 50 0F 01           [...P..
0430: 12 50 0F 01 74 6C 6B 31  00                       .P..tlk1.       
```

#### Opcodes

```
  0: 0x0429 [0x5B] LOAD_EXT_SCHEDULER: Load scheduler "tlk1" with entities [Tovrutaux (ID: 17780754/0x010F5012), Tovrutaux (ID: 17780754/0x010F5012)], work=75*
  1: 0x0438 [0x00] END_REQSTACK()
```

### Event 65535.36

#### Metadata

| Field        | Value    |
|--------------|----------|
| Entrypoint   | 0x0439   |
| Data Size    | 12 bytes |
| Instructions | 4        |

```
      00 01 02 03 04 05 06 07  08 09 0A 0B 0C 0D 0E 0F
      -- -- -- -- -- -- -- --  -- -- -- -- -- -- -- --
0430:                             1F 00 2F 80 30 80 00           ../.0..
0440: 80 1F 01 6F 00                                    ...o.           
```

#### Opcodes

```
  0: 0x0439 [0x1F] MOVE_ENTITY: EventEntity moves to X=-19.954*, Z=-20.950*, Y=0.000*
  1: 0x0441 [0x1F] MOVE_ENTITY: Update entity position (mode=1)
  2: 0x0443 [0x6F] WAIT_FRAME_DELAY: Yield until WaitTime reaches zero
  3: 0x0444 [0x00] END_REQSTACK()
```

### Event 65535.37

#### Metadata

| Field        | Value    |
|--------------|----------|
| Entrypoint   | 0x0445   |
| Data Size    | 20 bytes |
| Instructions | 5        |

```
      00 01 02 03 04 05 06 07  08 09 0A 0B 0C 0D 0E 0F
      -- -- -- -- -- -- -- --  -- -- -- -- -- -- -- --
0440:                59 04 13  50 0F 01 18 80 1F 00 31       Y..P......1
0450: 80 32 80 1D 80 1F 01 6F  00                       .2.....o.       
```

#### Opcodes

```
  0: 0x0445 [0x59] UPDATE_ENTITY_DATA: Set Seyaya (ID: 17780755/0x010F5013) main speed = 11* * 0.1
  1: 0x044D [0x1F] MOVE_ENTITY: EventEntity moves to X=-74.699*, Z=-107.115*, Y=5.999*
  2: 0x0455 [0x1F] MOVE_ENTITY: Update entity position (mode=1)
  3: 0x0457 [0x6F] WAIT_FRAME_DELAY: Yield until WaitTime reaches zero
  4: 0x0458 [0x00] END_REQSTACK()
```

### Event 65535.38

#### Metadata

| Field        | Value    |
|--------------|----------|
| Entrypoint   | 0x0459   |
| Data Size    | 17 bytes |
| Instructions | 2        |

```
      00 01 02 03 04 05 06 07  08 09 0A 0B 0C 0D 0E 0F
      -- -- -- -- -- -- -- --  -- -- -- -- -- -- -- --
0450:                             5B 33 80 13 50 0F 01           [3..P..
0460: 13 50 0F 01 6F 70 61 30  00 00                    .P..opa0..      
```

#### Opcodes

```
  0: 0x0459 [0x5B] LOAD_EXT_SCHEDULER: Load scheduler "opa0" with entities [Seyaya (ID: 17780755/0x010F5013), Seyaya (ID: 17780755/0x010F5013)], work=2631*
  1: 0x0468 [0x00] END_REQSTACK()
```

#### Data or dead code:

```
# Dead code (unreachable instructions):
     0x0469 [0x00] END_REQSTACK()
```

### Event 65535.39

#### Metadata

| Field        | Value    |
|--------------|----------|
| Entrypoint   | 0x046A   |
| Data Size    | 17 bytes |
| Instructions | 2        |

```
      00 01 02 03 04 05 06 07  08 09 0A 0B 0C 0D 0E 0F
      -- -- -- -- -- -- -- --  -- -- -- -- -- -- -- --
0460:                                5B 33 80 13 50 0F            [3..P.
0470: 01 13 50 0F 01 6F 70 61  31 00 00                 ..P..opa1..     
```

#### Opcodes

```
  0: 0x046A [0x5B] LOAD_EXT_SCHEDULER: Load scheduler "opa1" with entities [Seyaya (ID: 17780755/0x010F5013), Seyaya (ID: 17780755/0x010F5013)], work=2631*
  1: 0x0479 [0x00] END_REQSTACK()
```

#### Data or dead code:

```
# Dead code (unreachable instructions):
     0x047A [0x00] END_REQSTACK()
```

### Event 65535.40

#### Metadata

| Field        | Value    |
|--------------|----------|
| Entrypoint   | 0x047B   |
| Data Size    | 16 bytes |
| Instructions | 2        |

```
      00 01 02 03 04 05 06 07  08 09 0A 0B 0C 0D 0E 0F
      -- -- -- -- -- -- -- --  -- -- -- -- -- -- -- --
0470:                                   5B 33 80 13 50             [3..P
0480: 0F 01 13 50 0F 01 6F 70  61 32 00                 ...P..opa2.     
```

#### Opcodes

```
  0: 0x047B [0x5B] LOAD_EXT_SCHEDULER: Load scheduler "opa2" with entities [Seyaya (ID: 17780755/0x010F5013), Seyaya (ID: 17780755/0x010F5013)], work=2631*
  1: 0x048A [0x00] END_REQSTACK()
```

### Event 65535.41

#### Metadata

| Field        | Value    |
|--------------|----------|
| Entrypoint   | 0x048B   |
| Data Size    | 16 bytes |
| Instructions | 2        |

```
      00 01 02 03 04 05 06 07  08 09 0A 0B 0C 0D 0E 0F
      -- -- -- -- -- -- -- --  -- -- -- -- -- -- -- --
0480:                                   5B 34 80 13 50             [4..P
0490: 0F 01 13 50 0F 01 74 68  6B 31 00                 ...P..thk1.     
```

#### Opcodes

```
  0: 0x048B [0x5B] LOAD_EXT_SCHEDULER: Load scheduler "thk1" with entities [Seyaya (ID: 17780755/0x010F5013), Seyaya (ID: 17780755/0x010F5013)], work=85*
  1: 0x049A [0x00] END_REQSTACK()
```

### Event 65535.42

#### Metadata

| Field        | Value    |
|--------------|----------|
| Entrypoint   | 0x049B   |
| Data Size    | 16 bytes |
| Instructions | 2        |

```
      00 01 02 03 04 05 06 07  08 09 0A 0B 0C 0D 0E 0F
      -- -- -- -- -- -- -- --  -- -- -- -- -- -- -- --
0490:                                   5B 34 80 13 50             [4..P
04A0: 0F 01 13 50 0F 01 74 68  6B 32 00                 ...P..thk2.     
```

#### Opcodes

```
  0: 0x049B [0x5B] LOAD_EXT_SCHEDULER: Load scheduler "thk2" with entities [Seyaya (ID: 17780755/0x010F5013), Seyaya (ID: 17780755/0x010F5013)], work=85*
  1: 0x04AA [0x00] END_REQSTACK()
```

### Event 65535.43

#### Metadata

| Field        | Value    |
|--------------|----------|
| Entrypoint   | 0x04AB   |
| Data Size    | 16 bytes |
| Instructions | 2        |

```
      00 01 02 03 04 05 06 07  08 09 0A 0B 0C 0D 0E 0F
      -- -- -- -- -- -- -- --  -- -- -- -- -- -- -- --
04A0:                                   5B 34 80 13 50             [4..P
04B0: 0F 01 13 50 0F 01 74 6C  6B 30 00                 ...P..tlk0.     
```

#### Opcodes

```
  0: 0x04AB [0x5B] LOAD_EXT_SCHEDULER: Load scheduler "tlk0" with entities [Seyaya (ID: 17780755/0x010F5013), Seyaya (ID: 17780755/0x010F5013)], work=85*
  1: 0x04BA [0x00] END_REQSTACK()
```

### Event 65535.44

#### Metadata

| Field        | Value    |
|--------------|----------|
| Entrypoint   | 0x04BB   |
| Data Size    | 16 bytes |
| Instructions | 2        |

```
      00 01 02 03 04 05 06 07  08 09 0A 0B 0C 0D 0E 0F
      -- -- -- -- -- -- -- --  -- -- -- -- -- -- -- --
04B0:                                   5B 34 80 13 50             [4..P
04C0: 0F 01 13 50 0F 01 74 6C  6B 65 00                 ...P..tlke.     
```

#### Opcodes

```
  0: 0x04BB [0x5B] LOAD_EXT_SCHEDULER: Load scheduler "tlke" with entities [Seyaya (ID: 17780755/0x010F5013), Seyaya (ID: 17780755/0x010F5013)], work=85*
  1: 0x04CA [0x00] END_REQSTACK()
```

### Event 65535.45

#### Metadata

| Field        | Value    |
|--------------|----------|
| Entrypoint   | 0x04CB   |
| Data Size    | 16 bytes |
| Instructions | 2        |

```
      00 01 02 03 04 05 06 07  08 09 0A 0B 0C 0D 0E 0F
      -- -- -- -- -- -- -- --  -- -- -- -- -- -- -- --
04C0:                                   5B 34 80 13 50             [4..P
04D0: 0F 01 13 50 0F 01 62 61  6E 30 00                 ...P..ban0.     
```

#### Opcodes

```
  0: 0x04CB [0x5B] LOAD_EXT_SCHEDULER: Load scheduler "ban0" with entities [Seyaya (ID: 17780755/0x010F5013), Seyaya (ID: 17780755/0x010F5013)], work=85*
  1: 0x04DA [0x00] END_REQSTACK()
```

### Event 65535.46

#### Metadata

| Field        | Value    |
|--------------|----------|
| Entrypoint   | 0x04DB   |
| Data Size    | 13 bytes |
| Instructions | 4        |

```
      00 01 02 03 04 05 06 07  08 09 0A 0B 0C 0D 0E 0F
      -- -- -- -- -- -- -- --  -- -- -- -- -- -- -- --
04D0:                                   1F 00 35 80 36             ..5.6
04E0: 80 00 80 1F 01 6F 00 00                           .....o..        
```

#### Opcodes

```
  0: 0x04DB [0x1F] MOVE_ENTITY: EventEntity moves to X=-19.857*, Z=-21.712*, Y=0.000*
  1: 0x04E3 [0x1F] MOVE_ENTITY: Update entity position (mode=1)
  2: 0x04E5 [0x6F] WAIT_FRAME_DELAY: Yield until WaitTime reaches zero
  3: 0x04E6 [0x00] END_REQSTACK()
```

#### Data or dead code:

```
# Dead code (unreachable instructions):
     0x04E7 [0x00] END_REQSTACK()
```

### Event 65535.47

#### Metadata

| Field        | Value    |
|--------------|----------|
| Entrypoint   | 0x04E8   |
| Data Size    | 20 bytes |
| Instructions | 5        |

```
      00 01 02 03 04 05 06 07  08 09 0A 0B 0C 0D 0E 0F
      -- -- -- -- -- -- -- --  -- -- -- -- -- -- -- --
04E0:                          59 04 C0 50 0F 01 37 80          Y..P..7.
04F0: 1F 00 38 80 39 80 00 80  1F 01 6F 00              ..8.9.....o.    
```

#### Opcodes

```
  0: 0x04E8 [0x59] UPDATE_ENTITY_DATA: Set Rakuru-Rakoru (ID: 17780928/0x010F50C0) main speed = 14* * 0.1
  1: 0x04F0 [0x1F] MOVE_ENTITY: EventEntity moves to X=-37.763*, Z=-62.812*, Y=0.000*
  2: 0x04F8 [0x1F] MOVE_ENTITY: Update entity position (mode=1)
  3: 0x04FA [0x6F] WAIT_FRAME_DELAY: Yield until WaitTime reaches zero
  4: 0x04FB [0x00] END_REQSTACK()
```

### Event 65535.48

#### Metadata

| Field        | Value    |
|--------------|----------|
| Entrypoint   | 0x04FC   |
| Data Size    | 12 bytes |
| Instructions | 4        |

```
      00 01 02 03 04 05 06 07  08 09 0A 0B 0C 0D 0E 0F
      -- -- -- -- -- -- -- --  -- -- -- -- -- -- -- --
04F0:                                      1F 00 3A 80              ..:.
0500: 3B 80 3C 80 1F 01 6F 00                           ;.<...o.        
```

#### Opcodes

```
  0: 0x04FC [0x1F] MOVE_ENTITY: EventEntity moves to X=-13.366*, Z=2.528*, Y=-0.449*
  1: 0x0504 [0x1F] MOVE_ENTITY: Update entity position (mode=1)
  2: 0x0506 [0x6F] WAIT_FRAME_DELAY: Yield until WaitTime reaches zero
  3: 0x0507 [0x00] END_REQSTACK()
```

### Event 65535.49

#### Metadata

| Field        | Value    |
|--------------|----------|
| Entrypoint   | 0x0508   |
| Data Size    | 16 bytes |
| Instructions | 2        |

```
      00 01 02 03 04 05 06 07  08 09 0A 0B 0C 0D 0E 0F
      -- -- -- -- -- -- -- --  -- -- -- -- -- -- -- --
0500:                          66 3D 80 C0 50 0F 01 C0          f=..P...
0510: 50 0F 01 74 6C 6B 30 00                           P..tlk0.        
```

#### Opcodes

```
  0: 0x0508 [0x66] LOAD_EXT_SCHEDULER_MAIN: Load scheduler "tlk0" with entities [Rakuru-Rakoru (ID: 17780928/0x010F50C0), Rakuru-Rakoru (ID: 17780928/0x010F50C0)], work=40*
  1: 0x0517 [0x00] END_REQSTACK()
```

### Event 65535.50

#### Metadata

| Field        | Value    |
|--------------|----------|
| Entrypoint   | 0x0518   |
| Data Size    | 16 bytes |
| Instructions | 2        |

```
      00 01 02 03 04 05 06 07  08 09 0A 0B 0C 0D 0E 0F
      -- -- -- -- -- -- -- --  -- -- -- -- -- -- -- --
0510:                          66 3E 80 C0 50 0F 01 C0          f>..P...
0520: 50 0F 01 65 68 6E 31 00                           P..ehn1.        
```

#### Opcodes

```
  0: 0x0518 [0x66] LOAD_EXT_SCHEDULER_MAIN: Load scheduler "ehn1" with entities [Rakuru-Rakoru (ID: 17780928/0x010F50C0), Rakuru-Rakoru (ID: 17780928/0x010F50C0)], work=41*
  1: 0x0527 [0x00] END_REQSTACK()
```

### Event 65535.51

#### Metadata

| Field        | Value    |
|--------------|----------|
| Entrypoint   | 0x0528   |
| Data Size    | 16 bytes |
| Instructions | 2        |

```
      00 01 02 03 04 05 06 07  08 09 0A 0B 0C 0D 0E 0F
      -- -- -- -- -- -- -- --  -- -- -- -- -- -- -- --
0520:                          66 3D 80 C0 50 0F 01 C0          f=..P...
0530: 50 0F 01 6D 6F 6A 30 00                           P..moj0.        
```

#### Opcodes

```
  0: 0x0528 [0x66] LOAD_EXT_SCHEDULER_MAIN: Load scheduler "moj0" with entities [Rakuru-Rakoru (ID: 17780928/0x010F50C0), Rakuru-Rakoru (ID: 17780928/0x010F50C0)], work=40*
  1: 0x0537 [0x00] END_REQSTACK()
```

### Event 65535.52

#### Metadata

| Field        | Value    |
|--------------|----------|
| Entrypoint   | 0x0538   |
| Data Size    | 20 bytes |
| Instructions | 5        |

```
      00 01 02 03 04 05 06 07  08 09 0A 0B 0C 0D 0E 0F
      -- -- -- -- -- -- -- --  -- -- -- -- -- -- -- --
0530:                          59 04 C0 50 0F 01 37 80          Y..P..7.
0540: 1F 00 3F 80 40 80 1D 80  1F 01 6F 00              ..?.@.....o.    
```

#### Opcodes

```
  0: 0x0538 [0x59] UPDATE_ENTITY_DATA: Set Rakuru-Rakoru (ID: 17780928/0x010F50C0) main speed = 14* * 0.1
  1: 0x0540 [0x1F] MOVE_ENTITY: EventEntity moves to X=-71.130*, Z=-110.791*, Y=5.999*
  2: 0x0548 [0x1F] MOVE_ENTITY: Update entity position (mode=1)
  3: 0x054A [0x6F] WAIT_FRAME_DELAY: Yield until WaitTime reaches zero
  4: 0x054B [0x00] END_REQSTACK()
```

### Event 65535.53

#### Metadata

| Field        | Value    |
|--------------|----------|
| Entrypoint   | 0x054C   |
| Data Size    | 29 bytes |
| Instructions | 6        |

```
      00 01 02 03 04 05 06 07  08 09 0A 0B 0C 0D 0E 0F
      -- -- -- -- -- -- -- --  -- -- -- -- -- -- -- --
0540:                                      59 04 C0 50              Y..P
0550: 0F 01 37 80 1F 00 41 80  42 80 1D 80 1F 01 5A 00  ..7...A.B.....Z.
0560: 43 80 44 80 45 80 5A 01  00                       C.D.E.Z..       
```

#### Opcodes

```
  0: 0x054C [0x59] UPDATE_ENTITY_DATA: Set Rakuru-Rakoru (ID: 17780928/0x010F50C0) main speed = 14* * 0.1
  1: 0x0554 [0x1F] MOVE_ENTITY: EventEntity moves to X=-75.540*, Z=-116.545*, Y=5.999*
  2: 0x055C [0x1F] MOVE_ENTITY: Update entity position (mode=1)
  3: 0x055E [0x5A] UPDATE_EVENT_POSITION: Set EventEntity MovePosition to X=-80.452*, Z=-125.376*, Y=0.999*
  4: 0x0566 [0x5A] UPDATE_EVENT_POSITION: Move EventEntity incrementally towards MovePosition
  5: 0x0568 [0x00] END_REQSTACK()
```

### Event 65535.54

#### Metadata

| Field        | Value    |
|--------------|----------|
| Entrypoint   | 0x0569   |
| Data Size    | 17 bytes |
| Instructions | 2        |

```
      00 01 02 03 04 05 06 07  08 09 0A 0B 0C 0D 0E 0F
      -- -- -- -- -- -- -- --  -- -- -- -- -- -- -- --
0560:                             5B 46 80 C0 50 0F 01           [F..P..
0570: C0 50 0F 01 62 6F 70 30  00 00                    .P..bop0..      
```

#### Opcodes

```
  0: 0x0569 [0x5B] LOAD_EXT_SCHEDULER: Load scheduler "bop0" with entities [Rakuru-Rakoru (ID: 17780928/0x010F50C0), Rakuru-Rakoru (ID: 17780928/0x010F50C0)], work=2611*
  1: 0x0578 [0x00] END_REQSTACK()
```

#### Data or dead code:

```
# Dead code (unreachable instructions):
     0x0579 [0x00] END_REQSTACK()
```

### Event 65535.55

#### Metadata

| Field        | Value    |
|--------------|----------|
| Entrypoint   | 0x057A   |
| Data Size    | 20 bytes |
| Instructions | 5        |

```
      00 01 02 03 04 05 06 07  08 09 0A 0B 0C 0D 0E 0F
      -- -- -- -- -- -- -- --  -- -- -- -- -- -- -- --
0570:                                59 04 25 50 0F 01            Y.%P..
0580: 47 80 1F 00 1F 80 20 80  00 80 1F 01 6F 00        G..... .....o.  
```

#### Opcodes

```
  0: 0x057A [0x59] UPDATE_ENTITY_DATA: Set Sutarara (ID: 17780773/0x010F5025) main speed = 13* * 0.1
  1: 0x0582 [0x1F] MOVE_ENTITY: EventEntity moves to X=-83.944*, Z=-128.625*, Y=0.000*
  2: 0x058A [0x1F] MOVE_ENTITY: Update entity position (mode=1)
  3: 0x058C [0x6F] WAIT_FRAME_DELAY: Yield until WaitTime reaches zero
  4: 0x058D [0x00] END_REQSTACK()
```

### Event 65535.56

#### Metadata

| Field        | Value    |
|--------------|----------|
| Entrypoint   | 0x058E   |
| Data Size    | 20 bytes |
| Instructions | 5        |

```
      00 01 02 03 04 05 06 07  08 09 0A 0B 0C 0D 0E 0F
      -- -- -- -- -- -- -- --  -- -- -- -- -- -- -- --
0580:                                            59 04                Y.
0590: 25 50 0F 01 47 80 1F 00  48 80 49 80 1D 80 1F 01  %P..G...H.I.....
05A0: 6F 00                                             o.              
```

#### Opcodes

```
  0: 0x058E [0x59] UPDATE_ENTITY_DATA: Set Sutarara (ID: 17780773/0x010F5025) main speed = 13* * 0.1
  1: 0x0596 [0x1F] MOVE_ENTITY: EventEntity moves to X=-64.287*, Z=-102.136*, Y=5.999*
  2: 0x059E [0x1F] MOVE_ENTITY: Update entity position (mode=1)
  3: 0x05A0 [0x6F] WAIT_FRAME_DELAY: Yield until WaitTime reaches zero
  4: 0x05A1 [0x00] END_REQSTACK()
```

### Event 65535.57

#### Metadata

| Field        | Value    |
|--------------|----------|
| Entrypoint   | 0x05A2   |
| Data Size    | 20 bytes |
| Instructions | 5        |

```
      00 01 02 03 04 05 06 07  08 09 0A 0B 0C 0D 0E 0F
      -- -- -- -- -- -- -- --  -- -- -- -- -- -- -- --
05A0:       59 04 25 50 0F 01  47 80 1F 00 4A 80 4B 80    Y.%P..G...J.K.
05B0: 00 80 1F 01 6F 00                                 ....o.          
```

#### Opcodes

```
  0: 0x05A2 [0x59] UPDATE_ENTITY_DATA: Set Sutarara (ID: 17780773/0x010F5025) main speed = 13* * 0.1
  1: 0x05AA [0x1F] MOVE_ENTITY: EventEntity moves to X=4.236*, Z=4.336*, Y=0.000*
  2: 0x05B2 [0x1F] MOVE_ENTITY: Update entity position (mode=1)
  3: 0x05B4 [0x6F] WAIT_FRAME_DELAY: Yield until WaitTime reaches zero
  4: 0x05B5 [0x00] END_REQSTACK()
```

### Event 65535.58

#### Metadata

| Field        | Value    |
|--------------|----------|
| Entrypoint   | 0x05B6   |
| Data Size    | 20 bytes |
| Instructions | 5        |

```
      00 01 02 03 04 05 06 07  08 09 0A 0B 0C 0D 0E 0F
      -- -- -- -- -- -- -- --  -- -- -- -- -- -- -- --
05B0:                   59 04  34 50 0F 01 15 80 1F 00        Y.4P......
05C0: 4C 80 4D 80 4E 80 1F 01  6F 00                    L.M.N...o.      
```

#### Opcodes

```
  0: 0x05B6 [0x59] UPDATE_ENTITY_DATA: Set Venika (ID: 17780788/0x010F5034) main speed = 12* * 0.1
  1: 0x05BE [0x1F] MOVE_ENTITY: EventEntity moves to X=-15.376*, Z=-23.775*, Y=-0.101*
  2: 0x05C6 [0x1F] MOVE_ENTITY: Update entity position (mode=1)
  3: 0x05C8 [0x6F] WAIT_FRAME_DELAY: Yield until WaitTime reaches zero
  4: 0x05C9 [0x00] END_REQSTACK()
```

### Event 65535.59

#### Metadata

| Field        | Value    |
|--------------|----------|
| Entrypoint   | 0x05CA   |
| Data Size    | 20 bytes |
| Instructions | 5        |

```
      00 01 02 03 04 05 06 07  08 09 0A 0B 0C 0D 0E 0F
      -- -- -- -- -- -- -- --  -- -- -- -- -- -- -- --
05C0:                                59 04 34 50 0F 01            Y.4P..
05D0: 4F 80 1F 00 48 80 49 80  1D 80 1F 01 6F 00        O...H.I.....o.  
```

#### Opcodes

```
  0: 0x05CA [0x59] UPDATE_ENTITY_DATA: Set Venika (ID: 17780788/0x010F5034) main speed = 10* * 0.1
  1: 0x05D2 [0x1F] MOVE_ENTITY: EventEntity moves to X=-64.287*, Z=-102.136*, Y=5.999*
  2: 0x05DA [0x1F] MOVE_ENTITY: Update entity position (mode=1)
  3: 0x05DC [0x6F] WAIT_FRAME_DELAY: Yield until WaitTime reaches zero
  4: 0x05DD [0x00] END_REQSTACK()
```

### Event 65535.60

#### Metadata

| Field        | Value    |
|--------------|----------|
| Entrypoint   | 0x05DE   |
| Data Size    | 16 bytes |
| Instructions | 2        |

```
      00 01 02 03 04 05 06 07  08 09 0A 0B 0C 0D 0E 0F
      -- -- -- -- -- -- -- --  -- -- -- -- -- -- -- --
05D0:                                            5B 50                [P
05E0: 80 34 50 0F 01 34 50 0F  01 6F 70 62 30 00        .4P..4P..opb0.  
```

#### Opcodes

```
  0: 0x05DE [0x5B] LOAD_EXT_SCHEDULER: Load scheduler "opb0" with entities [Venika (ID: 17780788/0x010F5034), Venika (ID: 17780788/0x010F5034)], work=2584*
  1: 0x05ED [0x00] END_REQSTACK()
```

### Event 65535.61

#### Metadata

| Field        | Value    |
|--------------|----------|
| Entrypoint   | 0x05EE   |
| Data Size    | 16 bytes |
| Instructions | 2        |

```
      00 01 02 03 04 05 06 07  08 09 0A 0B 0C 0D 0E 0F
      -- -- -- -- -- -- -- --  -- -- -- -- -- -- -- --
05E0:                                            5B 50                [P
05F0: 80 34 50 0F 01 34 50 0F  01 6F 70 62 31 00        .4P..4P..opb1.  
```

#### Opcodes

```
  0: 0x05EE [0x5B] LOAD_EXT_SCHEDULER: Load scheduler "opb1" with entities [Venika (ID: 17780788/0x010F5034), Venika (ID: 17780788/0x010F5034)], work=2584*
  1: 0x05FD [0x00] END_REQSTACK()
```

### Event 65535.62

#### Metadata

| Field        | Value    |
|--------------|----------|
| Entrypoint   | 0x05FE   |
| Data Size    | 20 bytes |
| Instructions | 5        |

```
      00 01 02 03 04 05 06 07  08 09 0A 0B 0C 0D 0E 0F
      -- -- -- -- -- -- -- --  -- -- -- -- -- -- -- --
05F0:                                            59 04                Y.
0600: 34 50 0F 01 15 80 1F 00  51 80 52 80 00 80 1F 01  4P......Q.R.....
0610: 6F 00                                             o.              
```

#### Opcodes

```
  0: 0x05FE [0x59] UPDATE_ENTITY_DATA: Set Venika (ID: 17780788/0x010F5034) main speed = 12* * 0.1
  1: 0x0606 [0x1F] MOVE_ENTITY: EventEntity moves to X=-0.991*, Z=2.123*, Y=0.000*
  2: 0x060E [0x1F] MOVE_ENTITY: Update entity position (mode=1)
  3: 0x0610 [0x6F] WAIT_FRAME_DELAY: Yield until WaitTime reaches zero
  4: 0x0611 [0x00] END_REQSTACK()
```

### Event 65535.63

#### Metadata

| Field        | Value    |
|--------------|----------|
| Entrypoint   | 0x0612   |
| Data Size    | 16 bytes |
| Instructions | 2        |

```
      00 01 02 03 04 05 06 07  08 09 0A 0B 0C 0D 0E 0F
      -- -- -- -- -- -- -- --  -- -- -- -- -- -- -- --
0610:       5B 50 80 34 50 0F  01 34 50 0F 01 6F 70 63    [P.4P..4P..opc
0620: 30 00                                             0.              
```

#### Opcodes

```
  0: 0x0612 [0x5B] LOAD_EXT_SCHEDULER: Load scheduler "opc0" with entities [Venika (ID: 17780788/0x010F5034), Venika (ID: 17780788/0x010F5034)], work=2584*
  1: 0x0621 [0x00] END_REQSTACK()
```

### Event 65535.64

#### Metadata

| Field        | Value    |
|--------------|----------|
| Entrypoint   | 0x0622   |
| Data Size    | 16 bytes |
| Instructions | 2        |

```
      00 01 02 03 04 05 06 07  08 09 0A 0B 0C 0D 0E 0F
      -- -- -- -- -- -- -- --  -- -- -- -- -- -- -- --
0620:       5B 50 80 34 50 0F  01 34 50 0F 01 6F 70 63    [P.4P..4P..opc
0630: 31 00                                             1.              
```

#### Opcodes

```
  0: 0x0622 [0x5B] LOAD_EXT_SCHEDULER: Load scheduler "opc1" with entities [Venika (ID: 17780788/0x010F5034), Venika (ID: 17780788/0x010F5034)], work=2584*
  1: 0x0631 [0x00] END_REQSTACK()
```

### Event 65535.65

#### Metadata

| Field        | Value    |
|--------------|----------|
| Entrypoint   | 0x0632   |
| Data Size    | 16 bytes |
| Instructions | 2        |

```
      00 01 02 03 04 05 06 07  08 09 0A 0B 0C 0D 0E 0F
      -- -- -- -- -- -- -- --  -- -- -- -- -- -- -- --
0630:       66 53 80 36 50 0F  01 36 50 0F 01 61 77 77    fS.6P..6P..aww
0640: 30 00                                             0.              
```

#### Opcodes

```
  0: 0x0632 [0x66] LOAD_EXT_SCHEDULER_MAIN: Load scheduler "aww0" with entities [Kuah Dakonsa (ID: 17780790/0x010F5036), Kuah Dakonsa (ID: 17780790/0x010F5036)], work=8*
  1: 0x0641 [0x00] END_REQSTACK()
```

### Event 65535.66

#### Metadata

| Field        | Value    |
|--------------|----------|
| Entrypoint   | 0x0642   |
| Data Size    | 16 bytes |
| Instructions | 2        |

```
      00 01 02 03 04 05 06 07  08 09 0A 0B 0C 0D 0E 0F
      -- -- -- -- -- -- -- --  -- -- -- -- -- -- -- --
0640:       66 54 80 36 50 0F  01 36 50 0F 01 74 68 6B    fT.6P..6P..thk
0650: 31 00                                             1.              
```

#### Opcodes

```
  0: 0x0642 [0x66] LOAD_EXT_SCHEDULER_MAIN: Load scheduler "thk1" with entities [Kuah Dakonsa (ID: 17780790/0x010F5036), Kuah Dakonsa (ID: 17780790/0x010F5036)], work=51*
  1: 0x0651 [0x00] END_REQSTACK()
```

### Event 65535.67

#### Metadata

| Field        | Value    |
|--------------|----------|
| Entrypoint   | 0x0652   |
| Data Size    | 21 bytes |
| Instructions | 5        |

```
      00 01 02 03 04 05 06 07  08 09 0A 0B 0C 0D 0E 0F
      -- -- -- -- -- -- -- --  -- -- -- -- -- -- -- --
0650:       59 04 32 50 0F 01  15 80 1F 00 55 80 56 80    Y.2P......U.V.
0660: 1D 80 1F 01 6F 00 00                              ....o..         
```

#### Opcodes

```
  0: 0x0652 [0x59] UPDATE_ENTITY_DATA: Set Gurdern (ID: 17780786/0x010F5032) main speed = 12* * 0.1
  1: 0x065A [0x1F] MOVE_ENTITY: EventEntity moves to X=-61.958*, Z=-103.267*, Y=5.999*
  2: 0x0662 [0x1F] MOVE_ENTITY: Update entity position (mode=1)
  3: 0x0664 [0x6F] WAIT_FRAME_DELAY: Yield until WaitTime reaches zero
  4: 0x0665 [0x00] END_REQSTACK()
```

#### Data or dead code:

```
# Dead code (unreachable instructions):
     0x0666 [0x00] END_REQSTACK()
```

### Event 65535.68

#### Metadata

| Field        | Value    |
|--------------|----------|
| Entrypoint   | 0x0667   |
| Data Size    | 20 bytes |
| Instructions | 5        |

```
      00 01 02 03 04 05 06 07  08 09 0A 0B 0C 0D 0E 0F
      -- -- -- -- -- -- -- --  -- -- -- -- -- -- -- --
0660:                      59  04 32 50 0F 01 15 80 1F         Y.2P.....
0670: 00 57 80 58 80 1D 80 1F  01 6F 00                 .W.X.....o.     
```

#### Opcodes

```
  0: 0x0667 [0x59] UPDATE_ENTITY_DATA: Set Gurdern (ID: 17780786/0x010F5032) main speed = 12* * 0.1
  1: 0x066F [0x1F] MOVE_ENTITY: EventEntity moves to X=-66.589*, Z=-92.299*, Y=5.999*
  2: 0x0677 [0x1F] MOVE_ENTITY: Update entity position (mode=1)
  3: 0x0679 [0x6F] WAIT_FRAME_DELAY: Yield until WaitTime reaches zero
  4: 0x067A [0x00] END_REQSTACK()
```

### Event 65535.69

#### Metadata

| Field        | Value    |
|--------------|----------|
| Entrypoint   | 0x067B   |
| Data Size    | 20 bytes |
| Instructions | 5        |

```
      00 01 02 03 04 05 06 07  08 09 0A 0B 0C 0D 0E 0F
      -- -- -- -- -- -- -- --  -- -- -- -- -- -- -- --
0670:                                   59 04 32 50 0F             Y.2P.
0680: 01 15 80 1F 00 59 80 5A  80 1D 80 1F 01 6F 00     .....Y.Z.....o. 
```

#### Opcodes

```
  0: 0x067B [0x59] UPDATE_ENTITY_DATA: Set Gurdern (ID: 17780786/0x010F5032) main speed = 12* * 0.1
  1: 0x0683 [0x1F] MOVE_ENTITY: EventEntity moves to X=-58.931*, Z=-86.942*, Y=5.999*
  2: 0x068B [0x1F] MOVE_ENTITY: Update entity position (mode=1)
  3: 0x068D [0x6F] WAIT_FRAME_DELAY: Yield until WaitTime reaches zero
  4: 0x068E [0x00] END_REQSTACK()
```

### Event 65535.70

#### Metadata

| Field        | Value    |
|--------------|----------|
| Entrypoint   | 0x068F   |
| Data Size    | 17 bytes |
| Instructions | 2        |

```
      00 01 02 03 04 05 06 07  08 09 0A 0B 0C 0D 0E 0F
      -- -- -- -- -- -- -- --  -- -- -- -- -- -- -- --
0680:                                               5B                 [
0690: 2C 80 32 50 0F 01 32 50  0F 01 6F 70 30 30 00 00  ,.2P..2P..op00..
```

#### Opcodes

```
  0: 0x068F [0x5B] LOAD_EXT_SCHEDULER: Load scheduler "op00" with entities [Gurdern (ID: 17780786/0x010F5032), Gurdern (ID: 17780786/0x010F5032)], work=2621*
  1: 0x069E [0x00] END_REQSTACK()
```

#### Data or dead code:

```
# Dead code (unreachable instructions):
     0x069F [0x00] END_REQSTACK()
```

### Event 65535.71

#### Metadata

| Field        | Value    |
|--------------|----------|
| Entrypoint   | 0x06A0   |
| Data Size    | 20 bytes |
| Instructions | 5        |

```
      00 01 02 03 04 05 06 07  08 09 0A 0B 0C 0D 0E 0F
      -- -- -- -- -- -- -- --  -- -- -- -- -- -- -- --
06A0: 59 04 1C 50 0F 01 18 80  1F 00 19 80 1A 80 00 80  Y..P............
06B0: 1F 01 6F 00                                       ..o.            
```

#### Opcodes

```
  0: 0x06A0 [0x59] UPDATE_ENTITY_DATA: Set Mertaire (ID: 17780764/0x010F501C) main speed = 11* * 0.1
  1: 0x06A8 [0x1F] MOVE_ENTITY: EventEntity moves to X=-95.337*, Z=-156.056*, Y=0.000*
  2: 0x06B0 [0x1F] MOVE_ENTITY: Update entity position (mode=1)
  3: 0x06B2 [0x6F] WAIT_FRAME_DELAY: Yield until WaitTime reaches zero
  4: 0x06B3 [0x00] END_REQSTACK()
```

### Event 65535.72

#### Metadata

| Field        | Value    |
|--------------|----------|
| Entrypoint   | 0x06B4   |
| Data Size    | 20 bytes |
| Instructions | 5        |

```
      00 01 02 03 04 05 06 07  08 09 0A 0B 0C 0D 0E 0F
      -- -- -- -- -- -- -- --  -- -- -- -- -- -- -- --
06B0:             59 04 1C 50  0F 01 18 80 1F 00 5B 80      Y..P......[.
06C0: 5C 80 5D 80 1F 01 6F 00                           \.]...o.        
```

#### Opcodes

```
  0: 0x06B4 [0x59] UPDATE_ENTITY_DATA: Set Mertaire (ID: 17780764/0x010F501C) main speed = 11* * 0.1
  1: 0x06BC [0x1F] MOVE_ENTITY: EventEntity moves to X=-78.197*, Z=-116.328*, Y=3.999*
  2: 0x06C4 [0x1F] MOVE_ENTITY: Update entity position (mode=1)
  3: 0x06C6 [0x6F] WAIT_FRAME_DELAY: Yield until WaitTime reaches zero
  4: 0x06C7 [0x00] END_REQSTACK()
```

### Event 65535.73

#### Metadata

| Field        | Value    |
|--------------|----------|
| Entrypoint   | 0x06C8   |
| Data Size    | 16 bytes |
| Instructions | 2        |

```
      00 01 02 03 04 05 06 07  08 09 0A 0B 0C 0D 0E 0F
      -- -- -- -- -- -- -- --  -- -- -- -- -- -- -- --
06C0:                          5B 5E 80 1C 50 0F 01 1C          [^..P...
06D0: 50 0F 01 6F 70 63 30 00                           P..opc0.        
```

#### Opcodes

```
  0: 0x06C8 [0x5B] LOAD_EXT_SCHEDULER: Load scheduler "opc0" with entities [Mertaire (ID: 17780764/0x010F501C), Mertaire (ID: 17780764/0x010F501C)], work=2583*
  1: 0x06D7 [0x00] END_REQSTACK()
```

### Event 65535.74

#### Metadata

| Field        | Value    |
|--------------|----------|
| Entrypoint   | 0x06D8   |
| Data Size    | 16 bytes |
| Instructions | 2        |

```
      00 01 02 03 04 05 06 07  08 09 0A 0B 0C 0D 0E 0F
      -- -- -- -- -- -- -- --  -- -- -- -- -- -- -- --
06D0:                          5B 5E 80 1C 50 0F 01 1C          [^..P...
06E0: 50 0F 01 6F 70 63 31 00                           P..opc1.        
```

#### Opcodes

```
  0: 0x06D8 [0x5B] LOAD_EXT_SCHEDULER: Load scheduler "opc1" with entities [Mertaire (ID: 17780764/0x010F501C), Mertaire (ID: 17780764/0x010F501C)], work=2583*
  1: 0x06E7 [0x00] END_REQSTACK()
```

### Event 65535.75

#### Metadata

| Field        | Value    |
|--------------|----------|
| Entrypoint   | 0x06E8   |
| Data Size    | 21 bytes |
| Instructions | 5        |

```
      00 01 02 03 04 05 06 07  08 09 0A 0B 0C 0D 0E 0F
      -- -- -- -- -- -- -- --  -- -- -- -- -- -- -- --
06E0:                          59 04 1C 50 0F 01 18 80          Y..P....
06F0: 1F 00 5F 80 60 80 00 80  1F 01 6F 00 00           .._.`.....o..   
```

#### Opcodes

```
  0: 0x06E8 [0x59] UPDATE_ENTITY_DATA: Set Mertaire (ID: 17780764/0x010F501C) main speed = 11* * 0.1
  1: 0x06F0 [0x1F] MOVE_ENTITY: EventEntity moves to X=-9.883*, Z=-9.826*, Y=0.000*
  2: 0x06F8 [0x1F] MOVE_ENTITY: Update entity position (mode=1)
  3: 0x06FA [0x6F] WAIT_FRAME_DELAY: Yield until WaitTime reaches zero
  4: 0x06FB [0x00] END_REQSTACK()
```

#### Data or dead code:

```
# Dead code (unreachable instructions):
     0x06FC [0x00] END_REQSTACK()
```

### Event 65535.76

#### Metadata

| Field        | Value    |
|--------------|----------|
| Entrypoint   | 0x06FD   |
| Data Size    | 20 bytes |
| Instructions | 5        |

```
      00 01 02 03 04 05 06 07  08 09 0A 0B 0C 0D 0E 0F
      -- -- -- -- -- -- -- --  -- -- -- -- -- -- -- --
06F0:                                         59 04 1E               Y..
0700: 50 0F 01 61 80 1F 00 31  80 32 80 1D 80 1F 01 6F  P..a...1.2.....o
0710: 00                                                .               
```

#### Opcodes

```
  0: 0x06FD [0x59] UPDATE_ENTITY_DATA: Set Bki Tbujhja (ID: 17780766/0x010F501E) main speed = 9* * 0.1
  1: 0x0705 [0x1F] MOVE_ENTITY: EventEntity moves to X=-74.699*, Z=-107.115*, Y=5.999*
  2: 0x070D [0x1F] MOVE_ENTITY: Update entity position (mode=1)
  3: 0x070F [0x6F] WAIT_FRAME_DELAY: Yield until WaitTime reaches zero
  4: 0x0710 [0x00] END_REQSTACK()
```

### Event 65535.77

#### Metadata

| Field        | Value    |
|--------------|----------|
| Entrypoint   | 0x0711   |
| Data Size    | 20 bytes |
| Instructions | 5        |

```
      00 01 02 03 04 05 06 07  08 09 0A 0B 0C 0D 0E 0F
      -- -- -- -- -- -- -- --  -- -- -- -- -- -- -- --
0710:    59 04 1E 50 0F 01 18  80 1F 00 62 80 63 80 1D   Y..P......b.c..
0720: 80 1F 01 6F 00                                    ...o.           
```

#### Opcodes

```
  0: 0x0711 [0x59] UPDATE_ENTITY_DATA: Set Bki Tbujhja (ID: 17780766/0x010F501E) main speed = 11* * 0.1
  1: 0x0719 [0x1F] MOVE_ENTITY: EventEntity moves to X=-72.052*, Z=-102.467*, Y=5.999*
  2: 0x0721 [0x1F] MOVE_ENTITY: Update entity position (mode=1)
  3: 0x0723 [0x6F] WAIT_FRAME_DELAY: Yield until WaitTime reaches zero
  4: 0x0724 [0x00] END_REQSTACK()
```

### Event 65535.78

#### Metadata

| Field        | Value    |
|--------------|----------|
| Entrypoint   | 0x0725   |
| Data Size    | 16 bytes |
| Instructions | 2        |

```
      00 01 02 03 04 05 06 07  08 09 0A 0B 0C 0D 0E 0F
      -- -- -- -- -- -- -- --  -- -- -- -- -- -- -- --
0720:                66 53 80  1E 50 0F 01 1E 50 0F 01       fS..P...P..
0730: 61 77 77 30 00                                    aww0.           
```

#### Opcodes

```
  0: 0x0725 [0x66] LOAD_EXT_SCHEDULER_MAIN: Load scheduler "aww0" with entities [Bki Tbujhja (ID: 17780766/0x010F501E), Bki Tbujhja (ID: 17780766/0x010F501E)], work=8*
  1: 0x0734 [0x00] END_REQSTACK()
```

### Event 65535.79

#### Metadata

| Field        | Value    |
|--------------|----------|
| Entrypoint   | 0x0735   |
| Data Size    | 20 bytes |
| Instructions | 5        |

```
      00 01 02 03 04 05 06 07  08 09 0A 0B 0C 0D 0E 0F
      -- -- -- -- -- -- -- --  -- -- -- -- -- -- -- --
0730:                59 04 1E  50 0F 01 61 80 1F 00 64       Y..P..a...d
0740: 80 65 80 00 80 1F 01 6F  00                       .e.....o.       
```

#### Opcodes

```
  0: 0x0735 [0x59] UPDATE_ENTITY_DATA: Set Bki Tbujhja (ID: 17780766/0x010F501E) main speed = 9* * 0.1
  1: 0x073D [0x1F] MOVE_ENTITY: EventEntity moves to X=-5.853*, Z=-5.190*, Y=0.000*
  2: 0x0745 [0x1F] MOVE_ENTITY: Update entity position (mode=1)
  3: 0x0747 [0x6F] WAIT_FRAME_DELAY: Yield until WaitTime reaches zero
  4: 0x0748 [0x00] END_REQSTACK()
```

### Event 65535.80

#### Metadata

| Field        | Value    |
|--------------|----------|
| Entrypoint   | 0x0749   |
| Data Size    | 21 bytes |
| Instructions | 5        |

```
      00 01 02 03 04 05 06 07  08 09 0A 0B 0C 0D 0E 0F
      -- -- -- -- -- -- -- --  -- -- -- -- -- -- -- --
0740:                             59 04 1E 50 0F 01 18           Y..P...
0750: 80 1F 00 59 80 5A 80 1D  80 1F 01 6F 00 00        ...Y.Z.....o..  
```

#### Opcodes

```
  0: 0x0749 [0x59] UPDATE_ENTITY_DATA: Set Bki Tbujhja (ID: 17780766/0x010F501E) main speed = 11* * 0.1
  1: 0x0751 [0x1F] MOVE_ENTITY: EventEntity moves to X=-58.931*, Z=-86.942*, Y=5.999*
  2: 0x0759 [0x1F] MOVE_ENTITY: Update entity position (mode=1)
  3: 0x075B [0x6F] WAIT_FRAME_DELAY: Yield until WaitTime reaches zero
  4: 0x075C [0x00] END_REQSTACK()
```

#### Data or dead code:

```
# Dead code (unreachable instructions):
     0x075D [0x00] END_REQSTACK()
```

### Event 65535.81

#### Metadata

| Field        | Value    |
|--------------|----------|
| Entrypoint   | 0x075E   |
| Data Size    | 20 bytes |
| Instructions | 5        |

```
      00 01 02 03 04 05 06 07  08 09 0A 0B 0C 0D 0E 0F
      -- -- -- -- -- -- -- --  -- -- -- -- -- -- -- --
0750:                                            59 04                Y.
0760: 27 50 0F 01 15 80 1F 00  66 80 67 80 68 80 1F 01  'P......f.g.h...
0770: 6F 00                                             o.              
```

#### Opcodes

```
  0: 0x075E [0x59] UPDATE_ENTITY_DATA: Set Danzhor (ID: 17780775/0x010F5027) main speed = 12* * 0.1
  1: 0x0766 [0x1F] MOVE_ENTITY: EventEntity moves to X=-45.210*, Z=-89.196*, Y=-5.999*
  2: 0x076E [0x1F] MOVE_ENTITY: Update entity position (mode=1)
  3: 0x0770 [0x6F] WAIT_FRAME_DELAY: Yield until WaitTime reaches zero
  4: 0x0771 [0x00] END_REQSTACK()
```

### Event 65535.82

#### Metadata

| Field        | Value    |
|--------------|----------|
| Entrypoint   | 0x0772   |
| Data Size    | 12 bytes |
| Instructions | 4        |

```
      00 01 02 03 04 05 06 07  08 09 0A 0B 0C 0D 0E 0F
      -- -- -- -- -- -- -- --  -- -- -- -- -- -- -- --
0770:       1F 00 69 80 6A 80  00 80 1F 01 6F 00          ..i.j.....o.  
```

#### Opcodes

```
  0: 0x0772 [0x1F] MOVE_ENTITY: EventEntity moves to X=-18.343*, Z=-8.286*, Y=0.000*
  1: 0x077A [0x1F] MOVE_ENTITY: Update entity position (mode=1)
  2: 0x077C [0x6F] WAIT_FRAME_DELAY: Yield until WaitTime reaches zero
  3: 0x077D [0x00] END_REQSTACK()
```

### Event 65535.83

#### Metadata

| Field        | Value    |
|--------------|----------|
| Entrypoint   | 0x077E   |
| Data Size    | 16 bytes |
| Instructions | 2        |

```
      00 01 02 03 04 05 06 07  08 09 0A 0B 0C 0D 0E 0F
      -- -- -- -- -- -- -- --  -- -- -- -- -- -- -- --
0770:                                            66 29                f)
0780: 80 27 50 0F 01 27 50 0F  01 74 68 6B 31 00        .'P..'P..thk1.  
```

#### Opcodes

```
  0: 0x077E [0x66] LOAD_EXT_SCHEDULER_MAIN: Load scheduler "thk1" with entities [Danzhor (ID: 17780775/0x010F5027), Danzhor (ID: 17780775/0x010F5027)], work=69*
  1: 0x078D [0x00] END_REQSTACK()
```

### Event 65535.84

#### Metadata

| Field        | Value    |
|--------------|----------|
| Entrypoint   | 0x078E   |
| Data Size    | 16 bytes |
| Instructions | 2        |

```
      00 01 02 03 04 05 06 07  08 09 0A 0B 0C 0D 0E 0F
      -- -- -- -- -- -- -- --  -- -- -- -- -- -- -- --
0780:                                            66 29                f)
0790: 80 27 50 0F 01 27 50 0F  01 74 68 6B 32 00        .'P..'P..thk2.  
```

#### Opcodes

```
  0: 0x078E [0x66] LOAD_EXT_SCHEDULER_MAIN: Load scheduler "thk2" with entities [Danzhor (ID: 17780775/0x010F5027), Danzhor (ID: 17780775/0x010F5027)], work=69*
  1: 0x079D [0x00] END_REQSTACK()
```

### Event 65535.85

#### Metadata

| Field        | Value    |
|--------------|----------|
| Entrypoint   | 0x079E   |
| Data Size    | 20 bytes |
| Instructions | 5        |

```
      00 01 02 03 04 05 06 07  08 09 0A 0B 0C 0D 0E 0F
      -- -- -- -- -- -- -- --  -- -- -- -- -- -- -- --
0790:                                            59 04                Y.
07A0: 27 50 0F 01 15 80 1F 00  6B 80 6C 80 00 80 1F 01  'P......k.l.....
07B0: 6F 00                                             o.              
```

#### Opcodes

```
  0: 0x079E [0x59] UPDATE_ENTITY_DATA: Set Danzhor (ID: 17780775/0x010F5027) main speed = 12* * 0.1
  1: 0x07A6 [0x1F] MOVE_ENTITY: EventEntity moves to X=-17.939*, Z=-16.579*, Y=0.000*
  2: 0x07AE [0x1F] MOVE_ENTITY: Update entity position (mode=1)
  3: 0x07B0 [0x6F] WAIT_FRAME_DELAY: Yield until WaitTime reaches zero
  4: 0x07B1 [0x00] END_REQSTACK()
```

### Event 65535.86

#### Metadata

| Field        | Value    |
|--------------|----------|
| Entrypoint   | 0x07B2   |
| Data Size    | 20 bytes |
| Instructions | 5        |

```
      00 01 02 03 04 05 06 07  08 09 0A 0B 0C 0D 0E 0F
      -- -- -- -- -- -- -- --  -- -- -- -- -- -- -- --
07B0:       59 04 27 50 0F 01  15 80 1F 00 6D 80 6E 80    Y.'P......m.n.
07C0: 00 80 1F 01 6F 00                                 ....o.          
```

#### Opcodes

```
  0: 0x07B2 [0x59] UPDATE_ENTITY_DATA: Set Danzhor (ID: 17780775/0x010F5027) main speed = 12* * 0.1
  1: 0x07BA [0x1F] MOVE_ENTITY: EventEntity moves to X=-3.065*, Z=-7.931*, Y=0.000*
  2: 0x07C2 [0x1F] MOVE_ENTITY: Update entity position (mode=1)
  3: 0x07C4 [0x6F] WAIT_FRAME_DELAY: Yield until WaitTime reaches zero
  4: 0x07C5 [0x00] END_REQSTACK()
```

### Event 65535.87

#### Metadata

| Field        | Value    |
|--------------|----------|
| Entrypoint   | 0x07C6   |
| Data Size    | 17 bytes |
| Instructions | 2        |

```
      00 01 02 03 04 05 06 07  08 09 0A 0B 0C 0D 0E 0F
      -- -- -- -- -- -- -- --  -- -- -- -- -- -- -- --
07C0:                   66 3E  80 30 50 0F 01 30 50 0F        f>.0P..0P.
07D0: 01 73 68 6B 30 00 00                              .shk0..         
```

#### Opcodes

```
  0: 0x07C6 [0x66] LOAD_EXT_SCHEDULER_MAIN: Load scheduler "shk0" with entities [Kikilolo (ID: 17780784/0x010F5030), Kikilolo (ID: 17780784/0x010F5030)], work=41*
  1: 0x07D5 [0x00] END_REQSTACK()
```

#### Data or dead code:

```
# Dead code (unreachable instructions):
     0x07D6 [0x00] END_REQSTACK()
```

### Event 65535.88

#### Metadata

| Field        | Value    |
|--------------|----------|
| Entrypoint   | 0x07D7   |
| Data Size    | 16 bytes |
| Instructions | 2        |

```
      00 01 02 03 04 05 06 07  08 09 0A 0B 0C 0D 0E 0F
      -- -- -- -- -- -- -- --  -- -- -- -- -- -- -- --
07D0:                      5B  14 80 39 50 0F 01 39 50         [..9P..9P
07E0: 0F 01 74 6C 6B 30 00                              ..tlk0.         
```

#### Opcodes

```
  0: 0x07D7 [0x5B] LOAD_EXT_SCHEDULER: Load scheduler "tlk0" with entities [Momiji (ID: 17780793/0x010F5039), Momiji (ID: 17780793/0x010F5039)], work=60*
  1: 0x07E6 [0x00] END_REQSTACK()
```

### Event 65535.89

#### Metadata

| Field        | Value    |
|--------------|----------|
| Entrypoint   | 0x07E7   |
| Data Size    | 16 bytes |
| Instructions | 2        |

```
      00 01 02 03 04 05 06 07  08 09 0A 0B 0C 0D 0E 0F
      -- -- -- -- -- -- -- --  -- -- -- -- -- -- -- --
07E0:                      5B  14 80 39 50 0F 01 39 50         [..9P..9P
07F0: 0F 01 74 6C 6B 31 00                              ..tlk1.         
```

#### Opcodes

```
  0: 0x07E7 [0x5B] LOAD_EXT_SCHEDULER: Load scheduler "tlk1" with entities [Momiji (ID: 17780793/0x010F5039), Momiji (ID: 17780793/0x010F5039)], work=60*
  1: 0x07F6 [0x00] END_REQSTACK()
```

### Event 65535.90

#### Metadata

| Field        | Value    |
|--------------|----------|
| Entrypoint   | 0x07F7   |
| Data Size    | 16 bytes |
| Instructions | 2        |

```
      00 01 02 03 04 05 06 07  08 09 0A 0B 0C 0D 0E 0F
      -- -- -- -- -- -- -- --  -- -- -- -- -- -- -- --
07F0:                      5B  14 80 39 50 0F 01 39 50         [..9P..9P
0800: 0F 01 74 68 6B 31 00                              ..thk1.         
```

#### Opcodes

```
  0: 0x07F7 [0x5B] LOAD_EXT_SCHEDULER: Load scheduler "thk1" with entities [Momiji (ID: 17780793/0x010F5039), Momiji (ID: 17780793/0x010F5039)], work=60*
  1: 0x0806 [0x00] END_REQSTACK()
```

### Event 65535.91

#### Metadata

| Field        | Value    |
|--------------|----------|
| Entrypoint   | 0x0807   |
| Data Size    | 16 bytes |
| Instructions | 2        |

```
      00 01 02 03 04 05 06 07  08 09 0A 0B 0C 0D 0E 0F
      -- -- -- -- -- -- -- --  -- -- -- -- -- -- -- --
0800:                      5B  14 80 39 50 0F 01 39 50         [..9P..9P
0810: 0F 01 74 68 6B 32 00                              ..thk2.         
```

#### Opcodes

```
  0: 0x0807 [0x5B] LOAD_EXT_SCHEDULER: Load scheduler "thk2" with entities [Momiji (ID: 17780793/0x010F5039), Momiji (ID: 17780793/0x010F5039)], work=60*
  1: 0x0816 [0x00] END_REQSTACK()
```

### Event 65535.92

#### Metadata

| Field        | Value    |
|--------------|----------|
| Entrypoint   | 0x0817   |
| Data Size    | 17 bytes |
| Instructions | 2        |

```
      00 01 02 03 04 05 06 07  08 09 0A 0B 0C 0D 0E 0F
      -- -- -- -- -- -- -- --  -- -- -- -- -- -- -- --
0810:                      5B  6F 80 39 50 0F 01 39 50         [o.9P..9P
0820: 0F 01 65 6D 74 30 00 00                           ..emt0..        
```

#### Opcodes

```
  0: 0x0817 [0x5B] LOAD_EXT_SCHEDULER: Load scheduler "emt0" with entities [Momiji (ID: 17780793/0x010F5039), Momiji (ID: 17780793/0x010F5039)], work=2624*
  1: 0x0826 [0x00] END_REQSTACK()
```

#### Data or dead code:

```
# Dead code (unreachable instructions):
     0x0827 [0x00] END_REQSTACK()
```

### Event 65535.93

#### Metadata

| Field        | Value    |
|--------------|----------|
| Entrypoint   | 0x0828   |
| Data Size    | 20 bytes |
| Instructions | 5        |

```
      00 01 02 03 04 05 06 07  08 09 0A 0B 0C 0D 0E 0F
      -- -- -- -- -- -- -- --  -- -- -- -- -- -- -- --
0820:                          59 04 3C 50 0F 01 47 80          Y.<P..G.
0830: 1F 00 70 80 71 80 00 80  1F 01 6F 00              ..p.q.....o.    
```

#### Opcodes

```
  0: 0x0828 [0x59] UPDATE_ENTITY_DATA: Set Mendi (ID: 17780796/0x010F503C) main speed = 13* * 0.1
  1: 0x0830 [0x1F] MOVE_ENTITY: EventEntity moves to X=-38.371*, Z=-67.496*, Y=0.000*
  2: 0x0838 [0x1F] MOVE_ENTITY: Update entity position (mode=1)
  3: 0x083A [0x6F] WAIT_FRAME_DELAY: Yield until WaitTime reaches zero
  4: 0x083B [0x00] END_REQSTACK()
```

### Event 65535.94

#### Metadata

| Field        | Value    |
|--------------|----------|
| Entrypoint   | 0x083C   |
| Data Size    | 12 bytes |
| Instructions | 4        |

```
      00 01 02 03 04 05 06 07  08 09 0A 0B 0C 0D 0E 0F
      -- -- -- -- -- -- -- --  -- -- -- -- -- -- -- --
0830:                                      1F 00 72 80              ..r.
0840: 73 80 00 80 1F 01 6F 00                           s.....o.        
```

#### Opcodes

```
  0: 0x083C [0x1F] MOVE_ENTITY: EventEntity moves to X=-5.565*, Z=-1.804*, Y=0.000*
  1: 0x0844 [0x1F] MOVE_ENTITY: Update entity position (mode=1)
  2: 0x0846 [0x6F] WAIT_FRAME_DELAY: Yield until WaitTime reaches zero
  3: 0x0847 [0x00] END_REQSTACK()
```

### Event 65535.95

#### Metadata

| Field        | Value    |
|--------------|----------|
| Entrypoint   | 0x0848   |
| Data Size    | 16 bytes |
| Instructions | 2        |

```
      00 01 02 03 04 05 06 07  08 09 0A 0B 0C 0D 0E 0F
      -- -- -- -- -- -- -- --  -- -- -- -- -- -- -- --
0840:                          5B 5E 80 3C 50 0F 01 3C          [^.<P..<
0850: 50 0F 01 6F 70 62 30 00                           P..opb0.        
```

#### Opcodes

```
