# 17780923 - Klafaan

## Common Data

| Field            | Value                 |
|------------------|-----------------------|
| Zone             | Lower Jeuno (ID: 245) |
| Block Size       | 92 bytes              |
| Total Events     | 4                     |
| References Count | 5                     |

## List of Events

| Event ID                 | Entrypoint   |   Size |   Instructions |
|--------------------------|--------------|--------|----------------|
| [65535](#event-65535)    | 0x0000       |      7 |              2 |
| [10050](#event-10050)    | 0x0007       |     12 |              3 |
| [65535.1](#event-655351) | 0x0013       |     10 |              2 |
| [65535.2](#event-655352) | 0x001D       |     10 |              2 |

## DAT References (imed_data)

|   Index | Hex Value   |   Dec Value |
|---------|-------------|-------------|
|       0 | 0x0000      |           0 |
|       1 | 0x003C      |          60 |
|       2 | 0x0050      |          80 |
|       3 | 0x0078      |         120 |
|       4 | 0x012C      |         300 |

## Events

### Event 65535

#### Metadata

| Field        | Value   |
|--------------|---------|
| Entrypoint   | 0x0000  |
| Data Size    | 7 bytes |
| Instructions | 2       |

```
      00 01 02 03 04 05 06 07  08 09 0A 0B 0C 0D 0E 0F
      -- -- -- -- -- -- -- --  -- -- -- -- -- -- -- --
0000: 92 01 F8 FF FF 7F 00                              .......         
```

#### Opcodes

```
  0: 0x0000 [0x92] EventEntity->Render.Flags3 ^= 0x01
  1: 0x0006 [0x00] END_REQSTACK()
```

### Event 10050

#### Metadata

| Field        | Value    |
|--------------|----------|
| Entrypoint   | 0x0007   |
| Data Size    | 12 bytes |
| Instructions | 3        |

```
      00 01 02 03 04 05 06 07  08 09 0A 0B 0C 0D 0E 0F
      -- -- -- -- -- -- -- --  -- -- -- -- -- -- -- --
0000:                      A5  01 6C BB 50 0F 01 00 80         ..l.P....
0010: 01 80 00                                          ...             
```

#### Opcodes

```
  0: 0x0007 [0xA5] EventEntity->Flags3.BallistaTeam |= 0x08  // Set bit 3 of BallistaTeam
  1: 0x0009 [0x6C] FADE_ENTITY_COLOR(entity_id=Klafaan (ID: 17780923/0x010F50BB), end_alpha=0*, fade_time=60*)
  2: 0x0012 [0x00] END_REQSTACK()
```

### Event 65535.1

#### Metadata

| Field        | Value    |
|--------------|----------|
| Entrypoint   | 0x0013   |
| Data Size    | 10 bytes |
| Instructions | 2        |

```
      00 01 02 03 04 05 06 07  08 09 0A 0B 0C 0D 0E 0F
      -- -- -- -- -- -- -- --  -- -- -- -- -- -- -- --
0010:          6C BB 50 0F 01  02 80 03 80 00              l.P.......   
```

#### Opcodes

```
  0: 0x0013 [0x6C] FADE_ENTITY_COLOR(entity_id=Klafaan (ID: 17780923/0x010F50BB), end_alpha=80*, fade_time=120*)
  1: 0x001C [0x00] END_REQSTACK()
```

### Event 65535.2

#### Metadata

| Field        | Value    |
|--------------|----------|
| Entrypoint   | 0x001D   |
| Data Size    | 10 bytes |
| Instructions | 2        |

```
      00 01 02 03 04 05 06 07  08 09 0A 0B 0C 0D 0E 0F
      -- -- -- -- -- -- -- --  -- -- -- -- -- -- -- --
0010:                                         6C BB 50               l.P
0020: 0F 01 00 80 04 80 00                              .......         
```

#### Opcodes

```
  0: 0x001D [0x6C] FADE_ENTITY_COLOR(entity_id=Klafaan (ID: 17780923/0x010F50BB), end_alpha=0*, fade_time=300*)
  1: 0x0026 [0x00] END_REQSTACK()
```
