# 17780788 - Venika

## Common Data

| Field            | Value                 |
|------------------|-----------------------|
| Zone             | Lower Jeuno (ID: 245) |
| Block Size       | 2592 bytes            |
| Total Events     | 100                   |
| References Count | 103                   |

## List of Events

| Event ID                   | Entrypoint   |   Size |   Instructions |
|----------------------------|--------------|--------|----------------|
| [65535](#event-65535)      | 0x0000       |      1 |              1 |
| [110](#event-110)          | 0x0001       |     57 |             11 |
| [10094](#event-10094)      | 0x003A       |      5 |              3 |
| [65535.1](#event-655351)   | 0x003F       |     20 |              5 |
| [65535.2](#event-655352)   | 0x0053       |     20 |              5 |
| [65535.3](#event-655353)   | 0x0067       |     20 |              5 |
| [65535.4](#event-655354)   | 0x007B       |     17 |              3 |
| [65535.5](#event-655355)   | 0x008C       |     20 |              5 |
| [65535.6](#event-655356)   | 0x00A0       |     20 |              5 |
| [65535.7](#event-655357)   | 0x00B4       |     19 |              4 |
| [65535.8](#event-655358)   | 0x00C7       |     19 |              4 |
| [65535.9](#event-655359)   | 0x00DA       |     16 |              2 |
| [65535.10](#event-6553510) | 0x00EA       |     16 |              2 |
| [65535.11](#event-6553511) | 0x00FA       |     20 |              5 |
| [65535.12](#event-6553512) | 0x010E       |     16 |              2 |
| [65535.13](#event-6553513) | 0x011E       |     16 |              2 |
| [65535.14](#event-6553514) | 0x012E       |     16 |              2 |
| [65535.15](#event-6553515) | 0x013E       |     21 |              6 |
| [65535.16](#event-6553516) | 0x0153       |     16 |              2 |
| [65535.17](#event-6553517) | 0x0163       |     16 |              2 |
| [65535.18](#event-6553518) | 0x0173       |     20 |              5 |
| [65535.19](#event-6553519) | 0x0187       |     17 |              3 |
| [65535.20](#event-6553520) | 0x0198       |     20 |              5 |
| [65535.21](#event-6553521) | 0x01AC       |     16 |              2 |
| [65535.22](#event-6553522) | 0x01BC       |     16 |              2 |
| [65535.23](#event-6553523) | 0x01CC       |     16 |              2 |
| [65535.24](#event-6553524) | 0x01DC       |     16 |              2 |
| [65535.25](#event-6553525) | 0x01EC       |     16 |              2 |
| [65535.26](#event-6553526) | 0x01FC       |     16 |              2 |
| [65535.27](#event-6553527) | 0x020C       |     16 |              2 |
| [65535.28](#event-6553528) | 0x021C       |     12 |              4 |
| [65535.29](#event-6553529) | 0x0228       |     20 |              5 |
| [65535.30](#event-6553530) | 0x023C       |     17 |              3 |
| [65535.31](#event-6553531) | 0x024D       |     17 |              3 |
| [65535.32](#event-6553532) | 0x025E       |     16 |              2 |
| [65535.33](#event-6553533) | 0x026E       |     16 |              2 |
| [65535.34](#event-6553534) | 0x027E       |     16 |              2 |
| [65535.35](#event-6553535) | 0x028E       |     16 |              2 |
| [65535.36](#event-6553536) | 0x029E       |     16 |              2 |
| [65535.37](#event-6553537) | 0x02AE       |     16 |              2 |
| [65535.38](#event-6553538) | 0x02BE       |     13 |              5 |
| [65535.39](#event-6553539) | 0x02CB       |     20 |              5 |
| [65535.40](#event-6553540) | 0x02DF       |     12 |              4 |
| [65535.41](#event-6553541) | 0x02EB       |     16 |              2 |
| [65535.42](#event-6553542) | 0x02FB       |     16 |              2 |
| [65535.43](#event-6553543) | 0x030B       |     16 |              2 |
| [65535.44](#event-6553544) | 0x031B       |     20 |              5 |
| [65535.45](#event-6553545) | 0x032F       |     29 |              6 |
| [65535.46](#event-6553546) | 0x034C       |     17 |              3 |
| [65535.47](#event-6553547) | 0x035D       |     20 |              5 |
| [65535.48](#event-6553548) | 0x0371       |     20 |              5 |
| [65535.49](#event-6553549) | 0x0385       |     20 |              5 |
| [65535.50](#event-6553550) | 0x0399       |     20 |              5 |
| [65535.51](#event-6553551) | 0x03AD       |     20 |              5 |
| [65535.52](#event-6553552) | 0x03C1       |     16 |              2 |
| [65535.53](#event-6553553) | 0x03D1       |     16 |              2 |
| [65535.54](#event-6553554) | 0x03E1       |     20 |              5 |
| [65535.55](#event-6553555) | 0x03F5       |     16 |              2 |
| [65535.56](#event-6553556) | 0x0405       |     16 |              2 |
| [65535.57](#event-6553557) | 0x0415       |     16 |              2 |
| [65535.58](#event-6553558) | 0x0425       |     16 |              2 |
| [65535.59](#event-6553559) | 0x0435       |     21 |              6 |
| [65535.60](#event-6553560) | 0x044A       |     20 |              5 |
| [65535.61](#event-6553561) | 0x045E       |     20 |              5 |
| [65535.62](#event-6553562) | 0x0472       |     17 |              3 |
| [65535.63](#event-6553563) | 0x0483       |     20 |              5 |
| [65535.64](#event-6553564) | 0x0497       |     20 |              5 |
| [65535.65](#event-6553565) | 0x04AB       |     16 |              2 |
| [65535.66](#event-6553566) | 0x04BB       |     16 |              2 |
| [65535.67](#event-6553567) | 0x04CB       |     21 |              6 |
| [65535.68](#event-6553568) | 0x04E0       |     20 |              5 |
| [65535.69](#event-6553569) | 0x04F4       |     20 |              5 |
| [65535.70](#event-6553570) | 0x0508       |     16 |              2 |
| [65535.71](#event-6553571) | 0x0518       |     20 |              5 |
| [65535.72](#event-6553572) | 0x052C       |     21 |              6 |
| [65535.73](#event-6553573) | 0x0541       |     20 |              5 |
| [65535.74](#event-6553574) | 0x0555       |     12 |              4 |
| [65535.75](#event-6553575) | 0x0561       |     16 |              2 |
| [65535.76](#event-6553576) | 0x0571       |     16 |              2 |
| [65535.77](#event-6553577) | 0x0581       |     20 |              5 |
| [65535.78](#event-6553578) | 0x0595       |     20 |              5 |
| [65535.79](#event-6553579) | 0x05A9       |     17 |              3 |
| [65535.80](#event-6553580) | 0x05BA       |     16 |              2 |
| [65535.81](#event-6553581) | 0x05CA       |     16 |              2 |
| [65535.82](#event-6553582) | 0x05DA       |     16 |              2 |
| [65535.83](#event-6553583) | 0x05EA       |     16 |              2 |
| [65535.84](#event-6553584) | 0x05FA       |     17 |              3 |
| [65535.85](#event-6553585) | 0x060B       |     20 |              5 |
| [65535.86](#event-6553586) | 0x061F       |     12 |              4 |
| [65535.87](#event-6553587) | 0x062B       |     16 |              2 |
| [65535.88](#event-6553588) | 0x063B       |     16 |              2 |
| [65535.89](#event-6553589) | 0x064B       |     16 |              2 |
| [65535.90](#event-6553590) | 0x065B       |     16 |              2 |
| [65535.91](#event-6553591) | 0x066B       |     16 |              2 |
| [65535.92](#event-6553592) | 0x067B       |     16 |              2 |
| [65535.93](#event-6553593) | 0x068B       |     16 |              2 |
| [65535.94](#event-6553594) | 0x069B       |     20 |              5 |
| [65535.95](#event-6553595) | 0x06AF       |     20 |              5 |
| [65535.96](#event-6553596) | 0x06C3       |     16 |              2 |
| [65535.97](#event-6553597) | 0x06D3       |     16 |              2 |

## DAT References (imed_data)

|   Index | Hex Value   |   Dec Value |
|---------|-------------|-------------|
|       0 | 0x00EE      |         238 |
|       1 | 0x1E6D      |        7789 |
|       2 | 0x0001      |           1 |
|       3 | 0x000C      |          12 |
|       4 | 0xFFFED6C4  |  4294891204 |
|       5 | 0xFFFDEB5B  |  4294830939 |
|       6 | 0x0000      |           0 |
|       7 | 0x000B      |          11 |
|       8 | 0xFFFE8B97  |  4294871959 |
|       9 | 0xFFFD9E68  |  4294811240 |
|      10 | 0xFFFF0D87  |  4294905223 |
|      11 | 0xFFFEA0EF  |  4294877423 |
|      12 | 0x176F      |        5999 |
|      13 | 0x0A3A      |        2618 |
|      14 | 0xFFFEB818  |  4294883352 |
|      15 | 0xFFFE098F  |  4294838671 |
|      16 | 0xFFFEF410  |  4294898704 |
|      17 | 0xFFFE85B9  |  4294870457 |
|      18 | 0xFFFEEC91  |  4294896785 |
|      19 | 0xFFFE6EA2  |  4294864546 |
|      20 | 0x0A2A      |        2602 |
|      21 | 0xFFFEE552  |  4294894930 |
|      22 | 0xFFFE3269  |  4294849129 |
|      23 | 0x0A39      |        2617 |
|      24 | 0x0045      |          69 |
|      25 | 0xFFFF2160  |  4294910304 |
|      26 | 0xFFFEA80E  |  4294879246 |
|      27 | 0x0A3D      |        2621 |
|      28 | 0x0A43      |        2627 |
|      29 | 0x004B      |          75 |
|      30 | 0xFFFFB20E  |  4294947342 |
|      31 | 0xFFFFAE2A  |  4294946346 |
|      32 | 0xFFFEDC35  |  4294892597 |
|      33 | 0xFFFE5D95  |  4294860181 |
|      34 | 0x0A47      |        2631 |
|      35 | 0x0055      |          85 |
|      36 | 0xFFFFB26F  |  4294947439 |
|      37 | 0xFFFFAB30  |  4294945584 |
|      38 | 0x000E      |          14 |
|      39 | 0xFFFF6C7D  |  4294929533 |
|      40 | 0xFFFF0AA4  |  4294904484 |
|      41 | 0xFFFFCBCA  |  4294953930 |
|      42 | 0x09E0      |        2528 |
|      43 | 0xFFFFFE3F  |  4294966847 |
|      44 | 0x0028      |          40 |
|      45 | 0x0029      |          41 |
|      46 | 0xFFFEEA26  |  4294896166 |
|      47 | 0xFFFE4F39  |  4294856505 |
|      48 | 0xFFFED8EC  |  4294891756 |
|      49 | 0xFFFE38BF  |  4294850751 |
|      50 | 0xFFFEC5BC  |  4294886844 |
|      51 | 0xFFFE1640  |  4294841920 |
|      52 | 0x03E7      |         999 |
|      53 | 0x0A33      |        2611 |
|      54 | 0x000D      |          13 |
|      55 | 0xFFFF04E1  |  4294903009 |
|      56 | 0xFFFE7108  |  4294865160 |
|      57 | 0x108C      |        4236 |
|      58 | 0x10F0      |        4336 |
|      59 | 0xFFFFC3F0  |  4294951920 |
|      60 | 0xFFFFA321  |  4294943521 |
|      61 | 0xFFFFFF9B  |  4294967195 |
|      62 | 0x000A      |          10 |
|      63 | 0x0A18      |        2584 |
|      64 | 0xFFFFFC21  |  4294966305 |
|      65 | 0x084B      |        2123 |
|      66 | 0x0008      |           8 |
|      67 | 0x0033      |          51 |
|      68 | 0xFFFF0DFA  |  4294905338 |
|      69 | 0xFFFE6C9D  |  4294864029 |
|      70 | 0xFFFEFBE3  |  4294900707 |
|      71 | 0xFFFE9775  |  4294874997 |
|      72 | 0xFFFF19CD  |  4294908365 |
|      73 | 0xFFFEAC62  |  4294880354 |
|      74 | 0xFFFECE8B  |  4294889099 |
|      75 | 0xFFFE3998  |  4294850968 |
|      76 | 0x0F9F      |        3999 |
|      77 | 0x0A17      |        2583 |
|      78 | 0xFFFFD965  |  4294957413 |
|      79 | 0xFFFFD99E  |  4294957470 |
|      80 | 0x0009      |           9 |
|      81 | 0xFFFEE68C  |  4294895244 |
|      82 | 0xFFFE6FBD  |  4294864829 |
|      83 | 0xFFFFE923  |  4294961443 |
|      84 | 0xFFFFEBBA  |  4294962106 |
|      85 | 0xFFFF4F66  |  4294922086 |
|      86 | 0xFFFEA394  |  4294878100 |
|      87 | 0xFFFFE891  |  4294961297 |
|      88 | 0xFFFFB859  |  4294948953 |
|      89 | 0xFFFFDFA2  |  4294959010 |
|      90 | 0xFFFFB9ED  |  4294949357 |
|      91 | 0xFFFFBF3D  |  4294950717 |
|      92 | 0xFFFFF407  |  4294964231 |
|      93 | 0xFFFFE105  |  4294959365 |
|      94 | 0x003C      |          60 |
|      95 | 0x0A40      |        2624 |
|      96 | 0xFFFF6A1D  |  4294928925 |
|      97 | 0xFFFEF858  |  4294899800 |
|      98 | 0xFFFFEA43  |  4294961731 |
|      99 | 0xFFFFF8F4  |  4294965492 |
|     100 | 0x0002      |           2 |
|     101 | 0xFFFFF533  |  4294964531 |
|     102 | 0x13C3      |        5059 |

## String References

- **7789**: I bought a home here in Jeuno, but I wish I'd known about that awful bar downstairs. Every night those bards carouse till dawn. What am I to do?

## Events

### Event 65535

#### Metadata

| Field        | Value   |
|--------------|---------|
| Entrypoint   | 0x0000  |
| Data Size    | 1 bytes |
| Instructions | 1       |

```
      00 01 02 03 04 05 06 07  08 09 0A 0B 0C 0D 0E 0F
      -- -- -- -- -- -- -- --  -- -- -- -- -- -- -- --
0000: 00                                                .               
```

#### Opcodes

```
  0: 0x0000 [0x00] END_REQSTACK()
```

### Event 110

#### Metadata

| Field        | Value    |
|--------------|----------|
| Entrypoint   | 0x0001   |
| Data Size    | 57 bytes |
| Instructions | 10       |

```
      00 01 02 03 04 05 06 07  08 09 0A 0B 0C 0D 0E 0F
      -- -- -- -- -- -- -- --  -- -- -- -- -- -- -- --
0000:    1E F0 FF FF 7F 6F 70  5B 00 80 F8 FF FF 7F F8   .....op[.......
0010: FF FF 7F 74 6C 6B 30 1D  01 80 23 5B 00 80 F8 FF  ...tlk0...#[....
0020: FF 7F F8 FF FF 7F 74 6C  6B 31 53 F8 FF FF 7F F8  ......tlk1S.....
0030: FF FF 7F 74 6C 6B 31 21  00 00                    ...tlk1!..      
```

#### Opcodes

```
  0: 0x0001 [0x1E] EventEntity looks at LocalPlayer and starts talking
  1: 0x0006 [0x6F] WAIT_FRAME_DELAY: Yield until WaitTime reaches zero
  2: 0x0007 [0x70] WAIT_ENTITY_RENDER_FLAG: Wait while EventEntity->Render.Flags3 bit 2 is set (cancel turn if not)
  3: 0x0008 [0x5B] LOAD_EXT_SCHEDULER: Load scheduler "tlk0" with entities [EventEntity, EventEntity], work=238*
  4: 0x0017 [0x1D] PRINT_EVENT_MESSAGE(message_id=7789*)
    → "I bought a home here in Jeuno, but I wish I'd known about that awful bar downstairs. Every night those bards carouse till dawn. What am I to do?"
  5: 0x001A [0x23] WAIT_FOR_DIALOG_INTERACTION
  6: 0x001B [0x5B] LOAD_EXT_SCHEDULER: Load scheduler "tlk1" with entities [EventEntity, EventEntity], work=238*
  7: 0x002A [0x53] WAIT_SCHEDULER_TASK: Wait for scheduler "tlk1" with entities [EventEntity, EventEntity]
  8: 0x0037 [0x21] END_EVENT
  9: 0x0038 [0x00] END_REQSTACK()
```

#### Data or dead code:

```
# Dead code (unreachable instructions):
     0x0039 [0x00] END_REQSTACK()
```

### Event 10094

#### Metadata

| Field        | Value   |
|--------------|---------|
| Entrypoint   | 0x003A  |
| Data Size    | 5 bytes |
| Instructions | 2       |

```
      00 01 02 03 04 05 06 07  08 09 0A 0B 0C 0D 0E 0F
      -- -- -- -- -- -- -- --  -- -- -- -- -- -- -- --
0030:                                C0 02 80 00 00               ..... 
```

#### Opcodes

```
  0: 0x003A [0xC0] EventEntity->Render.Flags3 |= 0x1000 // Set bit 12 (from 1*)
  1: 0x003D [0x00] END_REQSTACK()
```

#### Data or dead code:

```
# Dead code (unreachable instructions):
     0x003E [0x00] END_REQSTACK()
```

### Event 65535.1

#### Metadata

| Field        | Value    |
|--------------|----------|
| Entrypoint   | 0x003F   |
| Data Size    | 20 bytes |
| Instructions | 5        |

```
      00 01 02 03 04 05 06 07  08 09 0A 0B 0C 0D 0E 0F
      -- -- -- -- -- -- -- --  -- -- -- -- -- -- -- --
0030:                                               59                 Y
0040: 04 0B 50 0F 01 03 80 1F  00 04 80 05 80 06 80 1F  ..P.............
0050: 01 6F 00                                          .o.             
```

#### Opcodes

```
  0: 0x003F [0x59] UPDATE_ENTITY_DATA: Set Garnev (ID: 17780747/0x010F500B) main speed = 12* * 0.1
  1: 0x0047 [0x1F] MOVE_ENTITY: EventEntity moves to X=-76.092*, Z=-136.357*, Y=0.000*
  2: 0x004F [0x1F] MOVE_ENTITY: Update entity position (mode=1)
  3: 0x0051 [0x6F] WAIT_FRAME_DELAY: Yield until WaitTime reaches zero
  4: 0x0052 [0x00] END_REQSTACK()
```

### Event 65535.2

#### Metadata

| Field        | Value    |
|--------------|----------|
| Entrypoint   | 0x0053   |
| Data Size    | 20 bytes |
| Instructions | 5        |

```
      00 01 02 03 04 05 06 07  08 09 0A 0B 0C 0D 0E 0F
      -- -- -- -- -- -- -- --  -- -- -- -- -- -- -- --
0050:          59 04 1D 50 0F  01 07 80 1F 00 08 80 09     Y..P.........
0060: 80 06 80 1F 01 6F 00                              .....o.         
```

#### Opcodes

```
  0: 0x0053 [0x59] UPDATE_ENTITY_DATA: Set Mataligeat (ID: 17780765/0x010F501D) main speed = 11* * 0.1
  1: 0x005B [0x1F] MOVE_ENTITY: EventEntity moves to X=-95.337*, Z=-156.056*, Y=0.000*
  2: 0x0063 [0x1F] MOVE_ENTITY: Update entity position (mode=1)
  3: 0x0065 [0x6F] WAIT_FRAME_DELAY: Yield until WaitTime reaches zero
  4: 0x0066 [0x00] END_REQSTACK()
```

### Event 65535.3

#### Metadata

| Field        | Value    |
|--------------|----------|
| Entrypoint   | 0x0067   |
| Data Size    | 20 bytes |
| Instructions | 5        |

```
      00 01 02 03 04 05 06 07  08 09 0A 0B 0C 0D 0E 0F
      -- -- -- -- -- -- -- --  -- -- -- -- -- -- -- --
0060:                      59  04 1D 50 0F 01 07 80 1F         Y..P.....
0070: 00 0A 80 0B 80 0C 80 1F  01 6F 00                 .........o.     
```

#### Opcodes

```
  0: 0x0067 [0x59] UPDATE_ENTITY_DATA: Set Mataligeat (ID: 17780765/0x010F501D) main speed = 11* * 0.1
  1: 0x006F [0x1F] MOVE_ENTITY: EventEntity moves to X=-62.073*, Z=-89.873*, Y=5.999*
  2: 0x0077 [0x1F] MOVE_ENTITY: Update entity position (mode=1)
  3: 0x0079 [0x6F] WAIT_FRAME_DELAY: Yield until WaitTime reaches zero
  4: 0x007A [0x00] END_REQSTACK()
```

### Event 65535.4

#### Metadata

| Field        | Value    |
|--------------|----------|
| Entrypoint   | 0x007B   |
| Data Size    | 17 bytes |
| Instructions | 2        |

```
      00 01 02 03 04 05 06 07  08 09 0A 0B 0C 0D 0E 0F
      -- -- -- -- -- -- -- --  -- -- -- -- -- -- -- --
0070:                                   5B 0D 80 1D 50             [...P
0080: 0F 01 1D 50 0F 01 6F 70  30 30 00 00              ...P..op00..    
```

#### Opcodes

```
  0: 0x007B [0x5B] LOAD_EXT_SCHEDULER: Load scheduler "op00" with entities [Mataligeat (ID: 17780765/0x010F501D), Mataligeat (ID: 17780765/0x010F501D)], work=2618*
  1: 0x008A [0x00] END_REQSTACK()
```

#### Data or dead code:

```
# Dead code (unreachable instructions):
     0x008B [0x00] END_REQSTACK()
```

### Event 65535.5

#### Metadata

| Field        | Value    |
|--------------|----------|
| Entrypoint   | 0x008C   |
| Data Size    | 20 bytes |
| Instructions | 5        |

```
      00 01 02 03 04 05 06 07  08 09 0A 0B 0C 0D 0E 0F
      -- -- -- -- -- -- -- --  -- -- -- -- -- -- -- --
0080:                                      59 04 3A 50              Y.:P
0090: 0F 01 07 80 1F 00 08 80  09 80 06 80 1F 01 6F 00  ..............o.
```

#### Opcodes

```
  0: 0x008C [0x59] UPDATE_ENTITY_DATA: Set Navisse (ID: 17780794/0x010F503A) main speed = 11* * 0.1
  1: 0x0094 [0x1F] MOVE_ENTITY: EventEntity moves to X=-95.337*, Z=-156.056*, Y=0.000*
  2: 0x009C [0x1F] MOVE_ENTITY: Update entity position (mode=1)
  3: 0x009E [0x6F] WAIT_FRAME_DELAY: Yield until WaitTime reaches zero
  4: 0x009F [0x00] END_REQSTACK()
```

### Event 65535.6

#### Metadata

| Field        | Value    |
|--------------|----------|
| Entrypoint   | 0x00A0   |
| Data Size    | 20 bytes |
| Instructions | 5        |

```
      00 01 02 03 04 05 06 07  08 09 0A 0B 0C 0D 0E 0F
      -- -- -- -- -- -- -- --  -- -- -- -- -- -- -- --
00A0: 59 04 2C 50 0F 01 03 80  1F 00 0E 80 0F 80 06 80  Y.,P............
00B0: 1F 01 6F 00                                       ..o.            
```

#### Opcodes

```
  0: 0x00A0 [0x59] UPDATE_ENTITY_DATA: Set Jazmin (ID: 17780780/0x010F502C) main speed = 12* * 0.1
  1: 0x00A8 [0x1F] MOVE_ENTITY: EventEntity moves to X=-83.944*, Z=-128.625*, Y=0.000*
  2: 0x00B0 [0x1F] MOVE_ENTITY: Update entity position (mode=1)
  3: 0x00B2 [0x6F] WAIT_FRAME_DELAY: Yield until WaitTime reaches zero
  4: 0x00B3 [0x00] END_REQSTACK()
```

### Event 65535.7

#### Metadata

| Field        | Value    |
|--------------|----------|
| Entrypoint   | 0x00B4   |
| Data Size    | 19 bytes |
| Instructions | 4        |

```
      00 01 02 03 04 05 06 07  08 09 0A 0B 0C 0D 0E 0F
      -- -- -- -- -- -- -- --  -- -- -- -- -- -- -- --
00B0:             59 04 2C 50  0F 01 07 80 1F 00 10 80      Y.,P........
00C0: 11 80 0C 80 1F 01 00                              .......         
```

#### Opcodes

```
  0: 0x00B4 [0x59] UPDATE_ENTITY_DATA: Set Jazmin (ID: 17780780/0x010F502C) main speed = 11* * 0.1
  1: 0x00BC [0x1F] MOVE_ENTITY: EventEntity moves to X=-68.592*, Z=-96.839*, Y=5.999*
  2: 0x00C4 [0x1F] MOVE_ENTITY: Update entity position (mode=1)
  3: 0x00C6 [0x00] END_REQSTACK()
```

### Event 65535.8

#### Metadata

| Field        | Value    |
|--------------|----------|
| Entrypoint   | 0x00C7   |
| Data Size    | 19 bytes |
| Instructions | 4        |

```
      00 01 02 03 04 05 06 07  08 09 0A 0B 0C 0D 0E 0F
      -- -- -- -- -- -- -- --  -- -- -- -- -- -- -- --
00C0:                      59  04 2C 50 0F 01 07 80 1F         Y.,P.....
00D0: 00 12 80 13 80 0C 80 1F  01 00                    ..........      
```

#### Opcodes

```
  0: 0x00C7 [0x59] UPDATE_ENTITY_DATA: Set Jazmin (ID: 17780780/0x010F502C) main speed = 11* * 0.1
  1: 0x00CF [0x1F] MOVE_ENTITY: EventEntity moves to X=-70.511*, Z=-102.750*, Y=5.999*
  2: 0x00D7 [0x1F] MOVE_ENTITY: Update entity position (mode=1)
  3: 0x00D9 [0x00] END_REQSTACK()
```

### Event 65535.9

#### Metadata

| Field        | Value    |
|--------------|----------|
| Entrypoint   | 0x00DA   |
| Data Size    | 16 bytes |
| Instructions | 2        |

```
      00 01 02 03 04 05 06 07  08 09 0A 0B 0C 0D 0E 0F
      -- -- -- -- -- -- -- --  -- -- -- -- -- -- -- --
00D0:                                5B 14 80 2C 50 0F            [..,P.
00E0: 01 2C 50 0F 01 6F 70 30  30 00                    .,P..op00.      
```

#### Opcodes

```
  0: 0x00DA [0x5B] LOAD_EXT_SCHEDULER: Load scheduler "op00" with entities [Jazmin (ID: 17780780/0x010F502C), Jazmin (ID: 17780780/0x010F502C)], work=2602*
  1: 0x00E9 [0x00] END_REQSTACK()
```

### Event 65535.10

#### Metadata

| Field        | Value    |
|--------------|----------|
| Entrypoint   | 0x00EA   |
| Data Size    | 16 bytes |
| Instructions | 2        |

```
      00 01 02 03 04 05 06 07  08 09 0A 0B 0C 0D 0E 0F
      -- -- -- -- -- -- -- --  -- -- -- -- -- -- -- --
00E0:                                5B 14 80 2C 50 0F            [..,P.
00F0: 01 2C 50 0F 01 6F 70 30  31 00                    .,P..op01.      
```

#### Opcodes

```
  0: 0x00EA [0x5B] LOAD_EXT_SCHEDULER: Load scheduler "op01" with entities [Jazmin (ID: 17780780/0x010F502C), Jazmin (ID: 17780780/0x010F502C)], work=2602*
  1: 0x00F9 [0x00] END_REQSTACK()
```

### Event 65535.11

#### Metadata

| Field        | Value    |
|--------------|----------|
| Entrypoint   | 0x00FA   |
| Data Size    | 20 bytes |
| Instructions | 5        |

```
      00 01 02 03 04 05 06 07  08 09 0A 0B 0C 0D 0E 0F
      -- -- -- -- -- -- -- --  -- -- -- -- -- -- -- --
00F0:                                59 04 2C 50 0F 01            Y.,P..
0100: 07 80 1F 00 15 80 16 80  0C 80 1F 01 6F 00        ............o.  
```

#### Opcodes

```
  0: 0x00FA [0x59] UPDATE_ENTITY_DATA: Set Jazmin (ID: 17780780/0x010F502C) main speed = 11* * 0.1
  1: 0x0102 [0x1F] MOVE_ENTITY: EventEntity moves to X=-72.366*, Z=-118.167*, Y=5.999*
  2: 0x010A [0x1F] MOVE_ENTITY: Update entity position (mode=1)
  3: 0x010C [0x6F] WAIT_FRAME_DELAY: Yield until WaitTime reaches zero
  4: 0x010D [0x00] END_REQSTACK()
```

### Event 65535.12

#### Metadata

| Field        | Value    |
|--------------|----------|
| Entrypoint   | 0x010E   |
| Data Size    | 16 bytes |
| Instructions | 2        |

```
      00 01 02 03 04 05 06 07  08 09 0A 0B 0C 0D 0E 0F
      -- -- -- -- -- -- -- --  -- -- -- -- -- -- -- --
0100:                                            5B 17                [.
0110: 80 2C 50 0F 01 2C 50 0F  01 6F 70 61 30 00        .,P..,P..opa0.  
```

#### Opcodes

```
  0: 0x010E [0x5B] LOAD_EXT_SCHEDULER: Load scheduler "opa0" with entities [Jazmin (ID: 17780780/0x010F502C), Jazmin (ID: 17780780/0x010F502C)], work=2617*
  1: 0x011D [0x00] END_REQSTACK()
```

### Event 65535.13

#### Metadata

| Field        | Value    |
|--------------|----------|
| Entrypoint   | 0x011E   |
| Data Size    | 16 bytes |
| Instructions | 2        |

```
      00 01 02 03 04 05 06 07  08 09 0A 0B 0C 0D 0E 0F
      -- -- -- -- -- -- -- --  -- -- -- -- -- -- -- --
0110:                                            5B 17                [.
0120: 80 2C 50 0F 01 2C 50 0F  01 6F 70 61 31 00        .,P..,P..opa1.  
```

#### Opcodes

```
  0: 0x011E [0x5B] LOAD_EXT_SCHEDULER: Load scheduler "opa1" with entities [Jazmin (ID: 17780780/0x010F502C), Jazmin (ID: 17780780/0x010F502C)], work=2617*
  1: 0x012D [0x00] END_REQSTACK()
```

### Event 65535.14

#### Metadata

| Field        | Value    |
|--------------|----------|
| Entrypoint   | 0x012E   |
| Data Size    | 16 bytes |
| Instructions | 2        |

```
      00 01 02 03 04 05 06 07  08 09 0A 0B 0C 0D 0E 0F
      -- -- -- -- -- -- -- --  -- -- -- -- -- -- -- --
0120:                                            5B 17                [.
0130: 80 2C 50 0F 01 2C 50 0F  01 6F 70 61 32 00        .,P..,P..opa2.  
```

#### Opcodes

```
  0: 0x012E [0x5B] LOAD_EXT_SCHEDULER: Load scheduler "opa2" with entities [Jazmin (ID: 17780780/0x010F502C), Jazmin (ID: 17780780/0x010F502C)], work=2617*
  1: 0x013D [0x00] END_REQSTACK()
```

### Event 65535.15

#### Metadata

| Field        | Value    |
|--------------|----------|
| Entrypoint   | 0x013E   |
| Data Size    | 21 bytes |
| Instructions | 5        |

```
      00 01 02 03 04 05 06 07  08 09 0A 0B 0C 0D 0E 0F
      -- -- -- -- -- -- -- --  -- -- -- -- -- -- -- --
0130:                                            59 04                Y.
0140: 2E 50 0F 01 03 80 1F 00  04 80 05 80 06 80 1F 01  .P..............
0150: 6F 00 00                                          o..             
```

#### Opcodes

```
  0: 0x013E [0x59] UPDATE_ENTITY_DATA: Set Bogharg (ID: 17780782/0x010F502E) main speed = 12* * 0.1
  1: 0x0146 [0x1F] MOVE_ENTITY: EventEntity moves to X=-76.092*, Z=-136.357*, Y=0.000*
  2: 0x014E [0x1F] MOVE_ENTITY: Update entity position (mode=1)
  3: 0x0150 [0x6F] WAIT_FRAME_DELAY: Yield until WaitTime reaches zero
  4: 0x0151 [0x00] END_REQSTACK()
```

#### Data or dead code:

```
# Dead code (unreachable instructions):
     0x0152 [0x00] END_REQSTACK()
```

### Event 65535.16

#### Metadata

| Field        | Value    |
|--------------|----------|
| Entrypoint   | 0x0153   |
| Data Size    | 16 bytes |
| Instructions | 2        |

```
      00 01 02 03 04 05 06 07  08 09 0A 0B 0C 0D 0E 0F
      -- -- -- -- -- -- -- --  -- -- -- -- -- -- -- --
0150:          66 18 80 2E 50  0F 01 2E 50 0F 01 74 68     f...P...P..th
0160: 6B 31 00                                          k1.             
```

#### Opcodes

```
  0: 0x0153 [0x66] LOAD_EXT_SCHEDULER_MAIN: Load scheduler "thk1" with entities [Bogharg (ID: 17780782/0x010F502E), Bogharg (ID: 17780782/0x010F502E)], work=69*
  1: 0x0162 [0x00] END_REQSTACK()
```

### Event 65535.17

#### Metadata

| Field        | Value    |
|--------------|----------|
| Entrypoint   | 0x0163   |
| Data Size    | 16 bytes |
| Instructions | 2        |

```
      00 01 02 03 04 05 06 07  08 09 0A 0B 0C 0D 0E 0F
      -- -- -- -- -- -- -- --  -- -- -- -- -- -- -- --
0160:          66 18 80 2E 50  0F 01 2E 50 0F 01 74 68     f...P...P..th
0170: 6B 32 00                                          k2.             
```

#### Opcodes

```
  0: 0x0163 [0x66] LOAD_EXT_SCHEDULER_MAIN: Load scheduler "thk2" with entities [Bogharg (ID: 17780782/0x010F502E), Bogharg (ID: 17780782/0x010F502E)], work=69*
  1: 0x0172 [0x00] END_REQSTACK()
```

### Event 65535.18

#### Metadata

| Field        | Value    |
|--------------|----------|
| Entrypoint   | 0x0173   |
| Data Size    | 20 bytes |
| Instructions | 5        |

```
      00 01 02 03 04 05 06 07  08 09 0A 0B 0C 0D 0E 0F
      -- -- -- -- -- -- -- --  -- -- -- -- -- -- -- --
0170:          59 04 2E 50 0F  01 03 80 1F 00 19 80 1A     Y..P.........
0180: 80 0C 80 1F 01 6F 00                              .....o.         
```

#### Opcodes

```
  0: 0x0173 [0x59] UPDATE_ENTITY_DATA: Set Bogharg (ID: 17780782/0x010F502E) main speed = 12* * 0.1
  1: 0x017B [0x1F] MOVE_ENTITY: EventEntity moves to X=-56.992*, Z=-88.050*, Y=5.999*
  2: 0x0183 [0x1F] MOVE_ENTITY: Update entity position (mode=1)
  3: 0x0185 [0x6F] WAIT_FRAME_DELAY: Yield until WaitTime reaches zero
  4: 0x0186 [0x00] END_REQSTACK()
```

### Event 65535.19

#### Metadata

| Field        | Value    |
|--------------|----------|
| Entrypoint   | 0x0187   |
| Data Size    | 17 bytes |
| Instructions | 2        |

```
      00 01 02 03 04 05 06 07  08 09 0A 0B 0C 0D 0E 0F
      -- -- -- -- -- -- -- --  -- -- -- -- -- -- -- --
0180:                      5B  1B 80 2E 50 0F 01 2E 50         [...P...P
0190: 0F 01 6F 70 30 30 00 00                           ..op00..        
```

#### Opcodes

```
  0: 0x0187 [0x5B] LOAD_EXT_SCHEDULER: Load scheduler "op00" with entities [Bogharg (ID: 17780782/0x010F502E), Bogharg (ID: 17780782/0x010F502E)], work=2621*
  1: 0x0196 [0x00] END_REQSTACK()
```

#### Data or dead code:

```
# Dead code (unreachable instructions):
     0x0197 [0x00] END_REQSTACK()
```

### Event 65535.20

#### Metadata

| Field        | Value    |
|--------------|----------|
| Entrypoint   | 0x0198   |
| Data Size    | 20 bytes |
| Instructions | 5        |

```
      00 01 02 03 04 05 06 07  08 09 0A 0B 0C 0D 0E 0F
      -- -- -- -- -- -- -- --  -- -- -- -- -- -- -- --
0190:                          59 04 31 50 0F 01 07 80          Y.1P....
01A0: 1F 00 0E 80 0F 80 06 80  1F 01 6F 00              ..........o.    
```

#### Opcodes

```
  0: 0x0198 [0x59] UPDATE_ENTITY_DATA: Set Nakho Jawantal (ID: 17780785/0x010F5031) main speed = 11* * 0.1
  1: 0x01A0 [0x1F] MOVE_ENTITY: EventEntity moves to X=-83.944*, Z=-128.625*, Y=0.000*
  2: 0x01A8 [0x1F] MOVE_ENTITY: Update entity position (mode=1)
  3: 0x01AA [0x6F] WAIT_FRAME_DELAY: Yield until WaitTime reaches zero
  4: 0x01AB [0x00] END_REQSTACK()
```

### Event 65535.21

#### Metadata

| Field        | Value    |
|--------------|----------|
| Entrypoint   | 0x01AC   |
| Data Size    | 16 bytes |
| Instructions | 2        |

```
      00 01 02 03 04 05 06 07  08 09 0A 0B 0C 0D 0E 0F
      -- -- -- -- -- -- -- --  -- -- -- -- -- -- -- --
01A0:                                      5B 1C 80 12              [...
01B0: 50 0F 01 12 50 0F 01 6F  70 61 30 00              P...P..opa0.    
```

#### Opcodes

```
  0: 0x01AC [0x5B] LOAD_EXT_SCHEDULER: Load scheduler "opa0" with entities [Tovrutaux (ID: 17780754/0x010F5012), Tovrutaux (ID: 17780754/0x010F5012)], work=2627*
  1: 0x01BB [0x00] END_REQSTACK()
```

### Event 65535.22

#### Metadata

| Field        | Value    |
|--------------|----------|
| Entrypoint   | 0x01BC   |
| Data Size    | 16 bytes |
| Instructions | 2        |

```
      00 01 02 03 04 05 06 07  08 09 0A 0B 0C 0D 0E 0F
      -- -- -- -- -- -- -- --  -- -- -- -- -- -- -- --
01B0:                                      5B 1C 80 12              [...
01C0: 50 0F 01 12 50 0F 01 6F  70 61 31 00              P...P..opa1.    
```

#### Opcodes

```
  0: 0x01BC [0x5B] LOAD_EXT_SCHEDULER: Load scheduler "opa1" with entities [Tovrutaux (ID: 17780754/0x010F5012), Tovrutaux (ID: 17780754/0x010F5012)], work=2627*
  1: 0x01CB [0x00] END_REQSTACK()
```

### Event 65535.23

#### Metadata

| Field        | Value    |
|--------------|----------|
| Entrypoint   | 0x01CC   |
| Data Size    | 16 bytes |
| Instructions | 2        |

```
      00 01 02 03 04 05 06 07  08 09 0A 0B 0C 0D 0E 0F
      -- -- -- -- -- -- -- --  -- -- -- -- -- -- -- --
01C0:                                      5B 1C 80 12              [...
01D0: 50 0F 01 12 50 0F 01 6F  70 61 32 00              P...P..opa2.    
```

#### Opcodes

```
  0: 0x01CC [0x5B] LOAD_EXT_SCHEDULER: Load scheduler "opa2" with entities [Tovrutaux (ID: 17780754/0x010F5012), Tovrutaux (ID: 17780754/0x010F5012)], work=2627*
  1: 0x01DB [0x00] END_REQSTACK()
```

### Event 65535.24

#### Metadata

| Field        | Value    |
|--------------|----------|
| Entrypoint   | 0x01DC   |
| Data Size    | 16 bytes |
| Instructions | 2        |

```
      00 01 02 03 04 05 06 07  08 09 0A 0B 0C 0D 0E 0F
      -- -- -- -- -- -- -- --  -- -- -- -- -- -- -- --
01D0:                                      5B 1D 80 12              [...
01E0: 50 0F 01 12 50 0F 01 74  68 6B 31 00              P...P..thk1.    
```

#### Opcodes

```
  0: 0x01DC [0x5B] LOAD_EXT_SCHEDULER: Load scheduler "thk1" with entities [Tovrutaux (ID: 17780754/0x010F5012), Tovrutaux (ID: 17780754/0x010F5012)], work=75*
  1: 0x01EB [0x00] END_REQSTACK()
```

### Event 65535.25

#### Metadata

| Field        | Value    |
|--------------|----------|
| Entrypoint   | 0x01EC   |
| Data Size    | 16 bytes |
| Instructions | 2        |

```
      00 01 02 03 04 05 06 07  08 09 0A 0B 0C 0D 0E 0F
      -- -- -- -- -- -- -- --  -- -- -- -- -- -- -- --
01E0:                                      5B 1D 80 12              [...
01F0: 50 0F 01 12 50 0F 01 74  68 6B 32 00              P...P..thk2.    
```

#### Opcodes

```
  0: 0x01EC [0x5B] LOAD_EXT_SCHEDULER: Load scheduler "thk2" with entities [Tovrutaux (ID: 17780754/0x010F5012), Tovrutaux (ID: 17780754/0x010F5012)], work=75*
  1: 0x01FB [0x00] END_REQSTACK()
```

### Event 65535.26

#### Metadata

| Field        | Value    |
|--------------|----------|
| Entrypoint   | 0x01FC   |
| Data Size    | 16 bytes |
| Instructions | 2        |

```
      00 01 02 03 04 05 06 07  08 09 0A 0B 0C 0D 0E 0F
      -- -- -- -- -- -- -- --  -- -- -- -- -- -- -- --
01F0:                                      5B 1D 80 12              [...
0200: 50 0F 01 12 50 0F 01 74  6C 6B 30 00              P...P..tlk0.    
```

#### Opcodes

```
  0: 0x01FC [0x5B] LOAD_EXT_SCHEDULER: Load scheduler "tlk0" with entities [Tovrutaux (ID: 17780754/0x010F5012), Tovrutaux (ID: 17780754/0x010F5012)], work=75*
  1: 0x020B [0x00] END_REQSTACK()
```

### Event 65535.27

#### Metadata

| Field        | Value    |
|--------------|----------|
| Entrypoint   | 0x020C   |
| Data Size    | 16 bytes |
| Instructions | 2        |

```
      00 01 02 03 04 05 06 07  08 09 0A 0B 0C 0D 0E 0F
      -- -- -- -- -- -- -- --  -- -- -- -- -- -- -- --
0200:                                      5B 1D 80 12              [...
0210: 50 0F 01 12 50 0F 01 74  6C 6B 31 00              P...P..tlk1.    
```

#### Opcodes

```
  0: 0x020C [0x5B] LOAD_EXT_SCHEDULER: Load scheduler "tlk1" with entities [Tovrutaux (ID: 17780754/0x010F5012), Tovrutaux (ID: 17780754/0x010F5012)], work=75*
  1: 0x021B [0x00] END_REQSTACK()
```

### Event 65535.28

#### Metadata

| Field        | Value    |
|--------------|----------|
| Entrypoint   | 0x021C   |
| Data Size    | 12 bytes |
| Instructions | 4        |

```
      00 01 02 03 04 05 06 07  08 09 0A 0B 0C 0D 0E 0F
      -- -- -- -- -- -- -- --  -- -- -- -- -- -- -- --
0210:                                      1F 00 1E 80              ....
0220: 1F 80 06 80 1F 01 6F 00                           ......o.        
```

#### Opcodes

```
  0: 0x021C [0x1F] MOVE_ENTITY: EventEntity moves to X=-19.954*, Z=-20.950*, Y=0.000*
  1: 0x0224 [0x1F] MOVE_ENTITY: Update entity position (mode=1)
  2: 0x0226 [0x6F] WAIT_FRAME_DELAY: Yield until WaitTime reaches zero
  3: 0x0227 [0x00] END_REQSTACK()
```

### Event 65535.29

#### Metadata

| Field        | Value    |
|--------------|----------|
| Entrypoint   | 0x0228   |
| Data Size    | 20 bytes |
| Instructions | 5        |

```
      00 01 02 03 04 05 06 07  08 09 0A 0B 0C 0D 0E 0F
      -- -- -- -- -- -- -- --  -- -- -- -- -- -- -- --
0220:                          59 04 13 50 0F 01 07 80          Y..P....
0230: 1F 00 20 80 21 80 0C 80  1F 01 6F 00              .. .!.....o.    
```

#### Opcodes

```
  0: 0x0228 [0x59] UPDATE_ENTITY_DATA: Set Seyaya (ID: 17780755/0x010F5013) main speed = 11* * 0.1
  1: 0x0230 [0x1F] MOVE_ENTITY: EventEntity moves to X=-74.699*, Z=-107.115*, Y=5.999*
  2: 0x0238 [0x1F] MOVE_ENTITY: Update entity position (mode=1)
  3: 0x023A [0x6F] WAIT_FRAME_DELAY: Yield until WaitTime reaches zero
  4: 0x023B [0x00] END_REQSTACK()
```

### Event 65535.30

#### Metadata

| Field        | Value    |
|--------------|----------|
| Entrypoint   | 0x023C   |
| Data Size    | 17 bytes |
| Instructions | 2        |

```
      00 01 02 03 04 05 06 07  08 09 0A 0B 0C 0D 0E 0F
      -- -- -- -- -- -- -- --  -- -- -- -- -- -- -- --
0230:                                      5B 22 80 13              ["..
0240: 50 0F 01 13 50 0F 01 6F  70 61 30 00 00           P...P..opa0..   
```

#### Opcodes

```
  0: 0x023C [0x5B] LOAD_EXT_SCHEDULER: Load scheduler "opa0" with entities [Seyaya (ID: 17780755/0x010F5013), Seyaya (ID: 17780755/0x010F5013)], work=2631*
  1: 0x024B [0x00] END_REQSTACK()
```

#### Data or dead code:

```
# Dead code (unreachable instructions):
     0x024C [0x00] END_REQSTACK()
```

### Event 65535.31

#### Metadata

| Field        | Value    |
|--------------|----------|
| Entrypoint   | 0x024D   |
| Data Size    | 17 bytes |
| Instructions | 2        |

```
      00 01 02 03 04 05 06 07  08 09 0A 0B 0C 0D 0E 0F
      -- -- -- -- -- -- -- --  -- -- -- -- -- -- -- --
0240:                                         5B 22 80               [".
0250: 13 50 0F 01 13 50 0F 01  6F 70 61 31 00 00        .P...P..opa1..  
```

#### Opcodes

```
  0: 0x024D [0x5B] LOAD_EXT_SCHEDULER: Load scheduler "opa1" with entities [Seyaya (ID: 17780755/0x010F5013), Seyaya (ID: 17780755/0x010F5013)], work=2631*
  1: 0x025C [0x00] END_REQSTACK()
```

#### Data or dead code:

```
# Dead code (unreachable instructions):
     0x025D [0x00] END_REQSTACK()
```

### Event 65535.32

#### Metadata

| Field        | Value    |
|--------------|----------|
| Entrypoint   | 0x025E   |
| Data Size    | 16 bytes |
| Instructions | 2        |

```
      00 01 02 03 04 05 06 07  08 09 0A 0B 0C 0D 0E 0F
      -- -- -- -- -- -- -- --  -- -- -- -- -- -- -- --
0250:                                            5B 22                ["
0260: 80 13 50 0F 01 13 50 0F  01 6F 70 61 32 00        ..P...P..opa2.  
```

#### Opcodes

```
  0: 0x025E [0x5B] LOAD_EXT_SCHEDULER: Load scheduler "opa2" with entities [Seyaya (ID: 17780755/0x010F5013), Seyaya (ID: 17780755/0x010F5013)], work=2631*
  1: 0x026D [0x00] END_REQSTACK()
```

### Event 65535.33

#### Metadata

| Field        | Value    |
|--------------|----------|
| Entrypoint   | 0x026E   |
| Data Size    | 16 bytes |
| Instructions | 2        |

```
      00 01 02 03 04 05 06 07  08 09 0A 0B 0C 0D 0E 0F
      -- -- -- -- -- -- -- --  -- -- -- -- -- -- -- --
0260:                                            5B 23                [#
0270: 80 13 50 0F 01 13 50 0F  01 74 68 6B 31 00        ..P...P..thk1.  
```

#### Opcodes

```
  0: 0x026E [0x5B] LOAD_EXT_SCHEDULER: Load scheduler "thk1" with entities [Seyaya (ID: 17780755/0x010F5013), Seyaya (ID: 17780755/0x010F5013)], work=85*
  1: 0x027D [0x00] END_REQSTACK()
```

### Event 65535.34

#### Metadata

| Field        | Value    |
|--------------|----------|
| Entrypoint   | 0x027E   |
| Data Size    | 16 bytes |
| Instructions | 2        |

```
      00 01 02 03 04 05 06 07  08 09 0A 0B 0C 0D 0E 0F
      -- -- -- -- -- -- -- --  -- -- -- -- -- -- -- --
0270:                                            5B 23                [#
0280: 80 13 50 0F 01 13 50 0F  01 74 68 6B 32 00        ..P...P..thk2.  
```

#### Opcodes

```
  0: 0x027E [0x5B] LOAD_EXT_SCHEDULER: Load scheduler "thk2" with entities [Seyaya (ID: 17780755/0x010F5013), Seyaya (ID: 17780755/0x010F5013)], work=85*
  1: 0x028D [0x00] END_REQSTACK()
```

### Event 65535.35

#### Metadata

| Field        | Value    |
|--------------|----------|
| Entrypoint   | 0x028E   |
| Data Size    | 16 bytes |
| Instructions | 2        |

```
      00 01 02 03 04 05 06 07  08 09 0A 0B 0C 0D 0E 0F
      -- -- -- -- -- -- -- --  -- -- -- -- -- -- -- --
0280:                                            5B 23                [#
0290: 80 13 50 0F 01 13 50 0F  01 74 6C 6B 30 00        ..P...P..tlk0.  
```

#### Opcodes

```
  0: 0x028E [0x5B] LOAD_EXT_SCHEDULER: Load scheduler "tlk0" with entities [Seyaya (ID: 17780755/0x010F5013), Seyaya (ID: 17780755/0x010F5013)], work=85*
  1: 0x029D [0x00] END_REQSTACK()
```

### Event 65535.36

#### Metadata

| Field        | Value    |
|--------------|----------|
| Entrypoint   | 0x029E   |
| Data Size    | 16 bytes |
| Instructions | 2        |

```
      00 01 02 03 04 05 06 07  08 09 0A 0B 0C 0D 0E 0F
      -- -- -- -- -- -- -- --  -- -- -- -- -- -- -- --
0290:                                            5B 23                [#
02A0: 80 13 50 0F 01 13 50 0F  01 74 6C 6B 65 00        ..P...P..tlke.  
```

#### Opcodes

```
  0: 0x029E [0x5B] LOAD_EXT_SCHEDULER: Load scheduler "tlke" with entities [Seyaya (ID: 17780755/0x010F5013), Seyaya (ID: 17780755/0x010F5013)], work=85*
  1: 0x02AD [0x00] END_REQSTACK()
```

### Event 65535.37

#### Metadata

| Field        | Value    |
|--------------|----------|
| Entrypoint   | 0x02AE   |
| Data Size    | 16 bytes |
| Instructions | 2        |

```
      00 01 02 03 04 05 06 07  08 09 0A 0B 0C 0D 0E 0F
      -- -- -- -- -- -- -- --  -- -- -- -- -- -- -- --
02A0:                                            5B 23                [#
02B0: 80 13 50 0F 01 13 50 0F  01 62 61 6E 30 00        ..P...P..ban0.  
```

#### Opcodes

```
  0: 0x02AE [0x5B] LOAD_EXT_SCHEDULER: Load scheduler "ban0" with entities [Seyaya (ID: 17780755/0x010F5013), Seyaya (ID: 17780755/0x010F5013)], work=85*
  1: 0x02BD [0x00] END_REQSTACK()
```

### Event 65535.38

#### Metadata

| Field        | Value    |
|--------------|----------|
| Entrypoint   | 0x02BE   |
| Data Size    | 13 bytes |
| Instructions | 4        |

```
      00 01 02 03 04 05 06 07  08 09 0A 0B 0C 0D 0E 0F
      -- -- -- -- -- -- -- --  -- -- -- -- -- -- -- --
02B0:                                            1F 00                ..
02C0: 24 80 25 80 06 80 1F 01  6F 00 00                 $.%.....o..     
```

#### Opcodes

```
  0: 0x02BE [0x1F] MOVE_ENTITY: EventEntity moves to X=-19.857*, Z=-21.712*, Y=0.000*
  1: 0x02C6 [0x1F] MOVE_ENTITY: Update entity position (mode=1)
  2: 0x02C8 [0x6F] WAIT_FRAME_DELAY: Yield until WaitTime reaches zero
  3: 0x02C9 [0x00] END_REQSTACK()
```

#### Data or dead code:

```
# Dead code (unreachable instructions):
     0x02CA [0x00] END_REQSTACK()
```

### Event 65535.39

#### Metadata

| Field        | Value    |
|--------------|----------|
| Entrypoint   | 0x02CB   |
| Data Size    | 20 bytes |
| Instructions | 5        |

```
      00 01 02 03 04 05 06 07  08 09 0A 0B 0C 0D 0E 0F
      -- -- -- -- -- -- -- --  -- -- -- -- -- -- -- --
02C0:                                   59 04 C0 50 0F             Y..P.
02D0: 01 26 80 1F 00 27 80 28  80 06 80 1F 01 6F 00     .&...'.(.....o. 
```

#### Opcodes

```
  0: 0x02CB [0x59] UPDATE_ENTITY_DATA: Set Rakuru-Rakoru (ID: 17780928/0x010F50C0) main speed = 14* * 0.1
  1: 0x02D3 [0x1F] MOVE_ENTITY: EventEntity moves to X=-37.763*, Z=-62.812*, Y=0.000*
  2: 0x02DB [0x1F] MOVE_ENTITY: Update entity position (mode=1)
  3: 0x02DD [0x6F] WAIT_FRAME_DELAY: Yield until WaitTime reaches zero
  4: 0x02DE [0x00] END_REQSTACK()
```

### Event 65535.40

#### Metadata

| Field        | Value    |
|--------------|----------|
| Entrypoint   | 0x02DF   |
| Data Size    | 12 bytes |
| Instructions | 4        |

```
      00 01 02 03 04 05 06 07  08 09 0A 0B 0C 0D 0E 0F
      -- -- -- -- -- -- -- --  -- -- -- -- -- -- -- --
02D0:                                               1F                 .
02E0: 00 29 80 2A 80 2B 80 1F  01 6F 00                 .).*.+...o.     
```

#### Opcodes

```
  0: 0x02DF [0x1F] MOVE_ENTITY: EventEntity moves to X=-13.366*, Z=2.528*, Y=-0.449*
  1: 0x02E7 [0x1F] MOVE_ENTITY: Update entity position (mode=1)
  2: 0x02E9 [0x6F] WAIT_FRAME_DELAY: Yield until WaitTime reaches zero
  3: 0x02EA [0x00] END_REQSTACK()
```

### Event 65535.41

#### Metadata

| Field        | Value    |
|--------------|----------|
| Entrypoint   | 0x02EB   |
| Data Size    | 16 bytes |
| Instructions | 2        |

```
      00 01 02 03 04 05 06 07  08 09 0A 0B 0C 0D 0E 0F
      -- -- -- -- -- -- -- --  -- -- -- -- -- -- -- --
02E0:                                   66 2C 80 C0 50             f,..P
02F0: 0F 01 C0 50 0F 01 74 6C  6B 30 00                 ...P..tlk0.     
```

#### Opcodes

```
  0: 0x02EB [0x66] LOAD_EXT_SCHEDULER_MAIN: Load scheduler "tlk0" with entities [Rakuru-Rakoru (ID: 17780928/0x010F50C0), Rakuru-Rakoru (ID: 17780928/0x010F50C0)], work=40*
  1: 0x02FA [0x00] END_REQSTACK()
```

### Event 65535.42

#### Metadata

| Field        | Value    |
|--------------|----------|
| Entrypoint   | 0x02FB   |
| Data Size    | 16 bytes |
| Instructions | 2        |

```
      00 01 02 03 04 05 06 07  08 09 0A 0B 0C 0D 0E 0F
      -- -- -- -- -- -- -- --  -- -- -- -- -- -- -- --
02F0:                                   66 2D 80 C0 50             f-..P
0300: 0F 01 C0 50 0F 01 65 68  6E 31 00                 ...P..ehn1.     
```

#### Opcodes

```
  0: 0x02FB [0x66] LOAD_EXT_SCHEDULER_MAIN: Load scheduler "ehn1" with entities [Rakuru-Rakoru (ID: 17780928/0x010F50C0), Rakuru-Rakoru (ID: 17780928/0x010F50C0)], work=41*
  1: 0x030A [0x00] END_REQSTACK()
```

### Event 65535.43

#### Metadata

| Field        | Value    |
|--------------|----------|
| Entrypoint   | 0x030B   |
| Data Size    | 16 bytes |
| Instructions | 2        |

```
      00 01 02 03 04 05 06 07  08 09 0A 0B 0C 0D 0E 0F
      -- -- -- -- -- -- -- --  -- -- -- -- -- -- -- --
0300:                                   66 2C 80 C0 50             f,..P
0310: 0F 01 C0 50 0F 01 6D 6F  6A 30 00                 ...P..moj0.     
```

#### Opcodes

```
  0: 0x030B [0x66] LOAD_EXT_SCHEDULER_MAIN: Load scheduler "moj0" with entities [Rakuru-Rakoru (ID: 17780928/0x010F50C0), Rakuru-Rakoru (ID: 17780928/0x010F50C0)], work=40*
  1: 0x031A [0x00] END_REQSTACK()
```

### Event 65535.44

#### Metadata

| Field        | Value    |
|--------------|----------|
| Entrypoint   | 0x031B   |
| Data Size    | 20 bytes |
| Instructions | 5        |

```
      00 01 02 03 04 05 06 07  08 09 0A 0B 0C 0D 0E 0F
      -- -- -- -- -- -- -- --  -- -- -- -- -- -- -- --
0310:                                   59 04 C0 50 0F             Y..P.
0320: 01 26 80 1F 00 2E 80 2F  80 0C 80 1F 01 6F 00     .&...../.....o. 
```

#### Opcodes

```
  0: 0x031B [0x59] UPDATE_ENTITY_DATA: Set Rakuru-Rakoru (ID: 17780928/0x010F50C0) main speed = 14* * 0.1
  1: 0x0323 [0x1F] MOVE_ENTITY: EventEntity moves to X=-71.130*, Z=-110.791*, Y=5.999*
  2: 0x032B [0x1F] MOVE_ENTITY: Update entity position (mode=1)
  3: 0x032D [0x6F] WAIT_FRAME_DELAY: Yield until WaitTime reaches zero
  4: 0x032E [0x00] END_REQSTACK()
```

### Event 65535.45

#### Metadata

| Field        | Value    |
|--------------|----------|
| Entrypoint   | 0x032F   |
| Data Size    | 29 bytes |
| Instructions | 6        |

```
      00 01 02 03 04 05 06 07  08 09 0A 0B 0C 0D 0E 0F
      -- -- -- -- -- -- -- --  -- -- -- -- -- -- -- --
0320:                                               59                 Y
0330: 04 C0 50 0F 01 26 80 1F  00 30 80 31 80 0C 80 1F  ..P..&...0.1....
0340: 01 5A 00 32 80 33 80 34  80 5A 01 00              .Z.2.3.4.Z..    
```

#### Opcodes

```
  0: 0x032F [0x59] UPDATE_ENTITY_DATA: Set Rakuru-Rakoru (ID: 17780928/0x010F50C0) main speed = 14* * 0.1
  1: 0x0337 [0x1F] MOVE_ENTITY: EventEntity moves to X=-75.540*, Z=-116.545*, Y=5.999*
  2: 0x033F [0x1F] MOVE_ENTITY: Update entity position (mode=1)
  3: 0x0341 [0x5A] UPDATE_EVENT_POSITION: Set EventEntity MovePosition to X=-80.452*, Z=-125.376*, Y=0.999*
  4: 0x0349 [0x5A] UPDATE_EVENT_POSITION: Move EventEntity incrementally towards MovePosition
  5: 0x034B [0x00] END_REQSTACK()
```

### Event 65535.46

#### Metadata

| Field        | Value    |
|--------------|----------|
| Entrypoint   | 0x034C   |
| Data Size    | 17 bytes |
| Instructions | 2        |

```
      00 01 02 03 04 05 06 07  08 09 0A 0B 0C 0D 0E 0F
      -- -- -- -- -- -- -- --  -- -- -- -- -- -- -- --
0340:                                      5B 35 80 C0              [5..
0350: 50 0F 01 C0 50 0F 01 62  6F 70 30 00 00           P...P..bop0..   
```

#### Opcodes

```
  0: 0x034C [0x5B] LOAD_EXT_SCHEDULER: Load scheduler "bop0" with entities [Rakuru-Rakoru (ID: 17780928/0x010F50C0), Rakuru-Rakoru (ID: 17780928/0x010F50C0)], work=2611*
  1: 0x035B [0x00] END_REQSTACK()
```

#### Data or dead code:

```
# Dead code (unreachable instructions):
     0x035C [0x00] END_REQSTACK()
```

### Event 65535.47

#### Metadata

| Field        | Value    |
|--------------|----------|
| Entrypoint   | 0x035D   |
| Data Size    | 20 bytes |
| Instructions | 5        |

```
      00 01 02 03 04 05 06 07  08 09 0A 0B 0C 0D 0E 0F
      -- -- -- -- -- -- -- --  -- -- -- -- -- -- -- --
0350:                                         59 04 25               Y.%
0360: 50 0F 01 36 80 1F 00 0E  80 0F 80 06 80 1F 01 6F  P..6...........o
0370: 00                                                .               
```

#### Opcodes

```
  0: 0x035D [0x59] UPDATE_ENTITY_DATA: Set Sutarara (ID: 17780773/0x010F5025) main speed = 13* * 0.1
  1: 0x0365 [0x1F] MOVE_ENTITY: EventEntity moves to X=-83.944*, Z=-128.625*, Y=0.000*
  2: 0x036D [0x1F] MOVE_ENTITY: Update entity position (mode=1)
  3: 0x036F [0x6F] WAIT_FRAME_DELAY: Yield until WaitTime reaches zero
  4: 0x0370 [0x00] END_REQSTACK()
```

### Event 65535.48

#### Metadata

| Field        | Value    |
|--------------|----------|
| Entrypoint   | 0x0371   |
| Data Size    | 20 bytes |
| Instructions | 5        |

```
      00 01 02 03 04 05 06 07  08 09 0A 0B 0C 0D 0E 0F
      -- -- -- -- -- -- -- --  -- -- -- -- -- -- -- --
0370:    59 04 25 50 0F 01 36  80 1F 00 37 80 38 80 0C   Y.%P..6...7.8..
0380: 80 1F 01 6F 00                                    ...o.           
```

#### Opcodes

```
  0: 0x0371 [0x59] UPDATE_ENTITY_DATA: Set Sutarara (ID: 17780773/0x010F5025) main speed = 13* * 0.1
  1: 0x0379 [0x1F] MOVE_ENTITY: EventEntity moves to X=-64.287*, Z=-102.136*, Y=5.999*
  2: 0x0381 [0x1F] MOVE_ENTITY: Update entity position (mode=1)
  3: 0x0383 [0x6F] WAIT_FRAME_DELAY: Yield until WaitTime reaches zero
  4: 0x0384 [0x00] END_REQSTACK()
```

### Event 65535.49

#### Metadata

| Field        | Value    |
|--------------|----------|
| Entrypoint   | 0x0385   |
| Data Size    | 20 bytes |
| Instructions | 5        |

```
      00 01 02 03 04 05 06 07  08 09 0A 0B 0C 0D 0E 0F
      -- -- -- -- -- -- -- --  -- -- -- -- -- -- -- --
0380:                59 04 25  50 0F 01 36 80 1F 00 39       Y.%P..6...9
0390: 80 3A 80 06 80 1F 01 6F  00                       .:.....o.       
```

#### Opcodes

```
  0: 0x0385 [0x59] UPDATE_ENTITY_DATA: Set Sutarara (ID: 17780773/0x010F5025) main speed = 13* * 0.1
  1: 0x038D [0x1F] MOVE_ENTITY: EventEntity moves to X=4.236*, Z=4.336*, Y=0.000*
  2: 0x0395 [0x1F] MOVE_ENTITY: Update entity position (mode=1)
  3: 0x0397 [0x6F] WAIT_FRAME_DELAY: Yield until WaitTime reaches zero
  4: 0x0398 [0x00] END_REQSTACK()
```

### Event 65535.50

#### Metadata

| Field        | Value    |
|--------------|----------|
| Entrypoint   | 0x0399   |
| Data Size    | 20 bytes |
| Instructions | 5        |

```
      00 01 02 03 04 05 06 07  08 09 0A 0B 0C 0D 0E 0F
      -- -- -- -- -- -- -- --  -- -- -- -- -- -- -- --
0390:                             59 04 34 50 0F 01 03           Y.4P...
03A0: 80 1F 00 3B 80 3C 80 3D  80 1F 01 6F 00           ...;.<.=...o.   
```

#### Opcodes

```
  0: 0x0399 [0x59] UPDATE_ENTITY_DATA: Set Venika (ID: 17780788/0x010F5034) main speed = 12* * 0.1
  1: 0x03A1 [0x1F] MOVE_ENTITY: EventEntity moves to X=-15.376*, Z=-23.775*, Y=-0.101*
  2: 0x03A9 [0x1F] MOVE_ENTITY: Update entity position (mode=1)
  3: 0x03AB [0x6F] WAIT_FRAME_DELAY: Yield until WaitTime reaches zero
  4: 0x03AC [0x00] END_REQSTACK()
```

### Event 65535.51

#### Metadata

| Field        | Value    |
|--------------|----------|
| Entrypoint   | 0x03AD   |
| Data Size    | 20 bytes |
| Instructions | 5        |

```
      00 01 02 03 04 05 06 07  08 09 0A 0B 0C 0D 0E 0F
      -- -- -- -- -- -- -- --  -- -- -- -- -- -- -- --
03A0:                                         59 04 34               Y.4
03B0: 50 0F 01 3E 80 1F 00 37  80 38 80 0C 80 1F 01 6F  P..>...7.8.....o
03C0: 00                                                .               
```

#### Opcodes

```
  0: 0x03AD [0x59] UPDATE_ENTITY_DATA: Set Venika (ID: 17780788/0x010F5034) main speed = 10* * 0.1
  1: 0x03B5 [0x1F] MOVE_ENTITY: EventEntity moves to X=-64.287*, Z=-102.136*, Y=5.999*
  2: 0x03BD [0x1F] MOVE_ENTITY: Update entity position (mode=1)
  3: 0x03BF [0x6F] WAIT_FRAME_DELAY: Yield until WaitTime reaches zero
  4: 0x03C0 [0x00] END_REQSTACK()
```

### Event 65535.52

#### Metadata

| Field        | Value    |
|--------------|----------|
| Entrypoint   | 0x03C1   |
| Data Size    | 16 bytes |
| Instructions | 2        |

```
      00 01 02 03 04 05 06 07  08 09 0A 0B 0C 0D 0E 0F
      -- -- -- -- -- -- -- --  -- -- -- -- -- -- -- --
03C0:    5B 3F 80 34 50 0F 01  34 50 0F 01 6F 70 62 30   [?.4P..4P..opb0
03D0: 00                                                .               
```

#### Opcodes

```
  0: 0x03C1 [0x5B] LOAD_EXT_SCHEDULER: Load scheduler "opb0" with entities [Venika (ID: 17780788/0x010F5034), Venika (ID: 17780788/0x010F5034)], work=2584*
  1: 0x03D0 [0x00] END_REQSTACK()
```

### Event 65535.53

#### Metadata

| Field        | Value    |
|--------------|----------|
| Entrypoint   | 0x03D1   |
| Data Size    | 16 bytes |
| Instructions | 2        |

```
      00 01 02 03 04 05 06 07  08 09 0A 0B 0C 0D 0E 0F
      -- -- -- -- -- -- -- --  -- -- -- -- -- -- -- --
03D0:    5B 3F 80 34 50 0F 01  34 50 0F 01 6F 70 62 31   [?.4P..4P..opb1
03E0: 00                                                .               
```

#### Opcodes

```
  0: 0x03D1 [0x5B] LOAD_EXT_SCHEDULER: Load scheduler "opb1" with entities [Venika (ID: 17780788/0x010F5034), Venika (ID: 17780788/0x010F5034)], work=2584*
  1: 0x03E0 [0x00] END_REQSTACK()
```

### Event 65535.54

#### Metadata

| Field        | Value    |
|--------------|----------|
| Entrypoint   | 0x03E1   |
| Data Size    | 20 bytes |
| Instructions | 5        |

```
      00 01 02 03 04 05 06 07  08 09 0A 0B 0C 0D 0E 0F
      -- -- -- -- -- -- -- --  -- -- -- -- -- -- -- --
03E0:    59 04 34 50 0F 01 03  80 1F 00 40 80 41 80 06   Y.4P......@.A..
03F0: 80 1F 01 6F 00                                    ...o.           
```

#### Opcodes

```
  0: 0x03E1 [0x59] UPDATE_ENTITY_DATA: Set Venika (ID: 17780788/0x010F5034) main speed = 12* * 0.1
  1: 0x03E9 [0x1F] MOVE_ENTITY: EventEntity moves to X=-0.991*, Z=2.123*, Y=0.000*
  2: 0x03F1 [0x1F] MOVE_ENTITY: Update entity position (mode=1)
  3: 0x03F3 [0x6F] WAIT_FRAME_DELAY: Yield until WaitTime reaches zero
  4: 0x03F4 [0x00] END_REQSTACK()
```

### Event 65535.55

#### Metadata

| Field        | Value    |
|--------------|----------|
| Entrypoint   | 0x03F5   |
| Data Size    | 16 bytes |
| Instructions | 2        |

```
      00 01 02 03 04 05 06 07  08 09 0A 0B 0C 0D 0E 0F
      -- -- -- -- -- -- -- --  -- -- -- -- -- -- -- --
03F0:                5B 3F 80  34 50 0F 01 34 50 0F 01       [?.4P..4P..
0400: 6F 70 63 30 00                                    opc0.           
```

#### Opcodes

```
  0: 0x03F5 [0x5B] LOAD_EXT_SCHEDULER: Load scheduler "opc0" with entities [Venika (ID: 17780788/0x010F5034), Venika (ID: 17780788/0x010F5034)], work=2584*
  1: 0x0404 [0x00] END_REQSTACK()
```

### Event 65535.56

#### Metadata

| Field        | Value    |
|--------------|----------|
| Entrypoint   | 0x0405   |
| Data Size    | 16 bytes |
| Instructions | 2        |

```
      00 01 02 03 04 05 06 07  08 09 0A 0B 0C 0D 0E 0F
      -- -- -- -- -- -- -- --  -- -- -- -- -- -- -- --
0400:                5B 3F 80  34 50 0F 01 34 50 0F 01       [?.4P..4P..
0410: 6F 70 63 31 00                                    opc1.           
```

#### Opcodes

```
  0: 0x0405 [0x5B] LOAD_EXT_SCHEDULER: Load scheduler "opc1" with entities [Venika (ID: 17780788/0x010F5034), Venika (ID: 17780788/0x010F5034)], work=2584*
  1: 0x0414 [0x00] END_REQSTACK()
```

### Event 65535.57

#### Metadata

| Field        | Value    |
|--------------|----------|
| Entrypoint   | 0x0415   |
| Data Size    | 16 bytes |
| Instructions | 2        |

```
      00 01 02 03 04 05 06 07  08 09 0A 0B 0C 0D 0E 0F
      -- -- -- -- -- -- -- --  -- -- -- -- -- -- -- --
0410:                66 42 80  36 50 0F 01 36 50 0F 01       fB.6P..6P..
0420: 61 77 77 30 00                                    aww0.           
```

#### Opcodes

```
  0: 0x0415 [0x66] LOAD_EXT_SCHEDULER_MAIN: Load scheduler "aww0" with entities [Kuah Dakonsa (ID: 17780790/0x010F5036), Kuah Dakonsa (ID: 17780790/0x010F5036)], work=8*
  1: 0x0424 [0x00] END_REQSTACK()
```

### Event 65535.58

#### Metadata

| Field        | Value    |
|--------------|----------|
| Entrypoint   | 0x0425   |
| Data Size    | 16 bytes |
| Instructions | 2        |

```
      00 01 02 03 04 05 06 07  08 09 0A 0B 0C 0D 0E 0F
      -- -- -- -- -- -- -- --  -- -- -- -- -- -- -- --
0420:                66 43 80  36 50 0F 01 36 50 0F 01       fC.6P..6P..
0430: 74 68 6B 31 00                                    thk1.           
```

#### Opcodes

```
  0: 0x0425 [0x66] LOAD_EXT_SCHEDULER_MAIN: Load scheduler "thk1" with entities [Kuah Dakonsa (ID: 17780790/0x010F5036), Kuah Dakonsa (ID: 17780790/0x010F5036)], work=51*
  1: 0x0434 [0x00] END_REQSTACK()
```

### Event 65535.59

#### Metadata

| Field        | Value    |
|--------------|----------|
| Entrypoint   | 0x0435   |
| Data Size    | 21 bytes |
| Instructions | 5        |

```
      00 01 02 03 04 05 06 07  08 09 0A 0B 0C 0D 0E 0F
      -- -- -- -- -- -- -- --  -- -- -- -- -- -- -- --
0430:                59 04 32  50 0F 01 03 80 1F 00 44       Y.2P......D
0440: 80 45 80 0C 80 1F 01 6F  00 00                    .E.....o..      
```

#### Opcodes

```
  0: 0x0435 [0x59] UPDATE_ENTITY_DATA: Set Gurdern (ID: 17780786/0x010F5032) main speed = 12* * 0.1
  1: 0x043D [0x1F] MOVE_ENTITY: EventEntity moves to X=-61.958*, Z=-103.267*, Y=5.999*
  2: 0x0445 [0x1F] MOVE_ENTITY: Update entity position (mode=1)
  3: 0x0447 [0x6F] WAIT_FRAME_DELAY: Yield until WaitTime reaches zero
  4: 0x0448 [0x00] END_REQSTACK()
```

#### Data or dead code:

```
# Dead code (unreachable instructions):
     0x0449 [0x00] END_REQSTACK()
```

### Event 65535.60

#### Metadata

| Field        | Value    |
|--------------|----------|
| Entrypoint   | 0x044A   |
| Data Size    | 20 bytes |
| Instructions | 5        |

```
      00 01 02 03 04 05 06 07  08 09 0A 0B 0C 0D 0E 0F
      -- -- -- -- -- -- -- --  -- -- -- -- -- -- -- --
0440:                                59 04 32 50 0F 01            Y.2P..
0450: 03 80 1F 00 46 80 47 80  0C 80 1F 01 6F 00        ....F.G.....o.  
```

#### Opcodes

```
  0: 0x044A [0x59] UPDATE_ENTITY_DATA: Set Gurdern (ID: 17780786/0x010F5032) main speed = 12* * 0.1
  1: 0x0452 [0x1F] MOVE_ENTITY: EventEntity moves to X=-66.589*, Z=-92.299*, Y=5.999*
  2: 0x045A [0x1F] MOVE_ENTITY: Update entity position (mode=1)
  3: 0x045C [0x6F] WAIT_FRAME_DELAY: Yield until WaitTime reaches zero
  4: 0x045D [0x00] END_REQSTACK()
```

### Event 65535.61

#### Metadata

| Field        | Value    |
|--------------|----------|
| Entrypoint   | 0x045E   |
| Data Size    | 20 bytes |
| Instructions | 5        |

```
      00 01 02 03 04 05 06 07  08 09 0A 0B 0C 0D 0E 0F
      -- -- -- -- -- -- -- --  -- -- -- -- -- -- -- --
0450:                                            59 04                Y.
0460: 32 50 0F 01 03 80 1F 00  48 80 49 80 0C 80 1F 01  2P......H.I.....
0470: 6F 00                                             o.              
```

#### Opcodes

```
  0: 0x045E [0x59] UPDATE_ENTITY_DATA: Set Gurdern (ID: 17780786/0x010F5032) main speed = 12* * 0.1
  1: 0x0466 [0x1F] MOVE_ENTITY: EventEntity moves to X=-58.931*, Z=-86.942*, Y=5.999*
  2: 0x046E [0x1F] MOVE_ENTITY: Update entity position (mode=1)
  3: 0x0470 [0x6F] WAIT_FRAME_DELAY: Yield until WaitTime reaches zero
  4: 0x0471 [0x00] END_REQSTACK()
```

### Event 65535.62

#### Metadata

| Field        | Value    |
|--------------|----------|
| Entrypoint   | 0x0472   |
| Data Size    | 17 bytes |
| Instructions | 2        |

```
      00 01 02 03 04 05 06 07  08 09 0A 0B 0C 0D 0E 0F
      -- -- -- -- -- -- -- --  -- -- -- -- -- -- -- --
0470:       5B 1B 80 32 50 0F  01 32 50 0F 01 6F 70 30    [..2P..2P..op0
0480: 30 00 00                                          0..             
```

#### Opcodes

```
  0: 0x0472 [0x5B] LOAD_EXT_SCHEDULER: Load scheduler "op00" with entities [Gurdern (ID: 17780786/0x010F5032), Gurdern (ID: 17780786/0x010F5032)], work=2621*
  1: 0x0481 [0x00] END_REQSTACK()
```

#### Data or dead code:

```
# Dead code (unreachable instructions):
     0x0482 [0x00] END_REQSTACK()
```

### Event 65535.63

#### Metadata

| Field        | Value    |
|--------------|----------|
| Entrypoint   | 0x0483   |
| Data Size    | 20 bytes |
| Instructions | 5        |

```
      00 01 02 03 04 05 06 07  08 09 0A 0B 0C 0D 0E 0F
      -- -- -- -- -- -- -- --  -- -- -- -- -- -- -- --
0480:          59 04 1C 50 0F  01 07 80 1F 00 08 80 09     Y..P.........
0490: 80 06 80 1F 01 6F 00                              .....o.         
```

#### Opcodes

```
  0: 0x0483 [0x59] UPDATE_ENTITY_DATA: Set Mertaire (ID: 17780764/0x010F501C) main speed = 11* * 0.1
  1: 0x048B [0x1F] MOVE_ENTITY: EventEntity moves to X=-95.337*, Z=-156.056*, Y=0.000*
  2: 0x0493 [0x1F] MOVE_ENTITY: Update entity position (mode=1)
  3: 0x0495 [0x6F] WAIT_FRAME_DELAY: Yield until WaitTime reaches zero
  4: 0x0496 [0x00] END_REQSTACK()
```

### Event 65535.64

#### Metadata

| Field        | Value    |
|--------------|----------|
| Entrypoint   | 0x0497   |
| Data Size    | 20 bytes |
| Instructions | 5        |

```
      00 01 02 03 04 05 06 07  08 09 0A 0B 0C 0D 0E 0F
      -- -- -- -- -- -- -- --  -- -- -- -- -- -- -- --
0490:                      59  04 1C 50 0F 01 07 80 1F         Y..P.....
04A0: 00 4A 80 4B 80 4C 80 1F  01 6F 00                 .J.K.L...o.     
```

#### Opcodes

```
  0: 0x0497 [0x59] UPDATE_ENTITY_DATA: Set Mertaire (ID: 17780764/0x010F501C) main speed = 11* * 0.1
  1: 0x049F [0x1F] MOVE_ENTITY: EventEntity moves to X=-78.197*, Z=-116.328*, Y=3.999*
  2: 0x04A7 [0x1F] MOVE_ENTITY: Update entity position (mode=1)
  3: 0x04A9 [0x6F] WAIT_FRAME_DELAY: Yield until WaitTime reaches zero
  4: 0x04AA [0x00] END_REQSTACK()
```

### Event 65535.65

#### Metadata

| Field        | Value    |
|--------------|----------|
| Entrypoint   | 0x04AB   |
| Data Size    | 16 bytes |
| Instructions | 2        |

```
      00 01 02 03 04 05 06 07  08 09 0A 0B 0C 0D 0E 0F
      -- -- -- -- -- -- -- --  -- -- -- -- -- -- -- --
04A0:                                   5B 4D 80 1C 50             [M..P
04B0: 0F 01 1C 50 0F 01 6F 70  63 30 00                 ...P..opc0.     
```

#### Opcodes

```
  0: 0x04AB [0x5B] LOAD_EXT_SCHEDULER: Load scheduler "opc0" with entities [Mertaire (ID: 17780764/0x010F501C), Mertaire (ID: 17780764/0x010F501C)], work=2583*
  1: 0x04BA [0x00] END_REQSTACK()
```

### Event 65535.66

#### Metadata

| Field        | Value    |
|--------------|----------|
| Entrypoint   | 0x04BB   |
| Data Size    | 16 bytes |
| Instructions | 2        |

```
      00 01 02 03 04 05 06 07  08 09 0A 0B 0C 0D 0E 0F
      -- -- -- -- -- -- -- --  -- -- -- -- -- -- -- --
04B0:                                   5B 4D 80 1C 50             [M..P
04C0: 0F 01 1C 50 0F 01 6F 70  63 31 00                 ...P..opc1.     
```

#### Opcodes

```
  0: 0x04BB [0x5B] LOAD_EXT_SCHEDULER: Load scheduler "opc1" with entities [Mertaire (ID: 17780764/0x010F501C), Mertaire (ID: 17780764/0x010F501C)], work=2583*
  1: 0x04CA [0x00] END_REQSTACK()
```

### Event 65535.67

#### Metadata

| Field        | Value    |
|--------------|----------|
| Entrypoint   | 0x04CB   |
| Data Size    | 21 bytes |
| Instructions | 5        |

```
      00 01 02 03 04 05 06 07  08 09 0A 0B 0C 0D 0E 0F
      -- -- -- -- -- -- -- --  -- -- -- -- -- -- -- --
04C0:                                   59 04 1C 50 0F             Y..P.
04D0: 01 07 80 1F 00 4E 80 4F  80 06 80 1F 01 6F 00 00  .....N.O.....o..
```

#### Opcodes

```
  0: 0x04CB [0x59] UPDATE_ENTITY_DATA: Set Mertaire (ID: 17780764/0x010F501C) main speed = 11* * 0.1
  1: 0x04D3 [0x1F] MOVE_ENTITY: EventEntity moves to X=-9.883*, Z=-9.826*, Y=0.000*
  2: 0x04DB [0x1F] MOVE_ENTITY: Update entity position (mode=1)
  3: 0x04DD [0x6F] WAIT_FRAME_DELAY: Yield until WaitTime reaches zero
  4: 0x04DE [0x00] END_REQSTACK()
```

#### Data or dead code:

```
# Dead code (unreachable instructions):
     0x04DF [0x00] END_REQSTACK()
```

### Event 65535.68

#### Metadata

| Field        | Value    |
|--------------|----------|
| Entrypoint   | 0x04E0   |
| Data Size    | 20 bytes |
| Instructions | 5        |

```
      00 01 02 03 04 05 06 07  08 09 0A 0B 0C 0D 0E 0F
      -- -- -- -- -- -- -- --  -- -- -- -- -- -- -- --
04E0: 59 04 1E 50 0F 01 50 80  1F 00 20 80 21 80 0C 80  Y..P..P... .!...
04F0: 1F 01 6F 00                                       ..o.            
```

#### Opcodes

```
  0: 0x04E0 [0x59] UPDATE_ENTITY_DATA: Set Bki Tbujhja (ID: 17780766/0x010F501E) main speed = 9* * 0.1
  1: 0x04E8 [0x1F] MOVE_ENTITY: EventEntity moves to X=-74.699*, Z=-107.115*, Y=5.999*
  2: 0x04F0 [0x1F] MOVE_ENTITY: Update entity position (mode=1)
  3: 0x04F2 [0x6F] WAIT_FRAME_DELAY: Yield until WaitTime reaches zero
  4: 0x04F3 [0x00] END_REQSTACK()
```

### Event 65535.69

#### Metadata

| Field        | Value    |
|--------------|----------|
| Entrypoint   | 0x04F4   |
| Data Size    | 20 bytes |
| Instructions | 5        |

```
      00 01 02 03 04 05 06 07  08 09 0A 0B 0C 0D 0E 0F
      -- -- -- -- -- -- -- --  -- -- -- -- -- -- -- --
04F0:             59 04 1E 50  0F 01 07 80 1F 00 51 80      Y..P......Q.
0500: 52 80 0C 80 1F 01 6F 00                           R.....o.        
```

#### Opcodes

```
  0: 0x04F4 [0x59] UPDATE_ENTITY_DATA: Set Bki Tbujhja (ID: 17780766/0x010F501E) main speed = 11* * 0.1
  1: 0x04FC [0x1F] MOVE_ENTITY: EventEntity moves to X=-72.052*, Z=-102.467*, Y=5.999*
  2: 0x0504 [0x1F] MOVE_ENTITY: Update entity position (mode=1)
  3: 0x0506 [0x6F] WAIT_FRAME_DELAY: Yield until WaitTime reaches zero
  4: 0x0507 [0x00] END_REQSTACK()
```

### Event 65535.70

#### Metadata

| Field        | Value    |
|--------------|----------|
| Entrypoint   | 0x0508   |
| Data Size    | 16 bytes |
| Instructions | 2        |

```
      00 01 02 03 04 05 06 07  08 09 0A 0B 0C 0D 0E 0F
      -- -- -- -- -- -- -- --  -- -- -- -- -- -- -- --
0500:                          66 42 80 1E 50 0F 01 1E          fB..P...
0510: 50 0F 01 61 77 77 30 00                           P..aww0.        
```

#### Opcodes

```
  0: 0x0508 [0x66] LOAD_EXT_SCHEDULER_MAIN: Load scheduler "aww0" with entities [Bki Tbujhja (ID: 17780766/0x010F501E), Bki Tbujhja (ID: 17780766/0x010F501E)], work=8*
  1: 0x0517 [0x00] END_REQSTACK()
```

### Event 65535.71

#### Metadata

| Field        | Value    |
|--------------|----------|
| Entrypoint   | 0x0518   |
| Data Size    | 20 bytes |
| Instructions | 5        |

```
      00 01 02 03 04 05 06 07  08 09 0A 0B 0C 0D 0E 0F
      -- -- -- -- -- -- -- --  -- -- -- -- -- -- -- --
0510:                          59 04 1E 50 0F 01 50 80          Y..P..P.
0520: 1F 00 53 80 54 80 06 80  1F 01 6F 00              ..S.T.....o.    
```

#### Opcodes

```
  0: 0x0518 [0x59] UPDATE_ENTITY_DATA: Set Bki Tbujhja (ID: 17780766/0x010F501E) main speed = 9* * 0.1
  1: 0x0520 [0x1F] MOVE_ENTITY: EventEntity moves to X=-5.853*, Z=-5.190*, Y=0.000*
  2: 0x0528 [0x1F] MOVE_ENTITY: Update entity position (mode=1)
  3: 0x052A [0x6F] WAIT_FRAME_DELAY: Yield until WaitTime reaches zero
  4: 0x052B [0x00] END_REQSTACK()
```

### Event 65535.72

#### Metadata

| Field        | Value    |
|--------------|----------|
| Entrypoint   | 0x052C   |
| Data Size    | 21 bytes |
| Instructions | 5        |

```
      00 01 02 03 04 05 06 07  08 09 0A 0B 0C 0D 0E 0F
      -- -- -- -- -- -- -- --  -- -- -- -- -- -- -- --
0520:                                      59 04 1E 50              Y..P
0530: 0F 01 07 80 1F 00 48 80  49 80 0C 80 1F 01 6F 00  ......H.I.....o.
0540: 00                                                .               
```

#### Opcodes

```
  0: 0x052C [0x59] UPDATE_ENTITY_DATA: Set Bki Tbujhja (ID: 17780766/0x010F501E) main speed = 11* * 0.1
  1: 0x0534 [0x1F] MOVE_ENTITY: EventEntity moves to X=-58.931*, Z=-86.942*, Y=5.999*
  2: 0x053C [0x1F] MOVE_ENTITY: Update entity position (mode=1)
  3: 0x053E [0x6F] WAIT_FRAME_DELAY: Yield until WaitTime reaches zero
  4: 0x053F [0x00] END_REQSTACK()
```

#### Data or dead code:

```
# Dead code (unreachable instructions):
     0x0540 [0x00] END_REQSTACK()
```

### Event 65535.73

#### Metadata

| Field        | Value    |
|--------------|----------|
| Entrypoint   | 0x0541   |
| Data Size    | 20 bytes |
| Instructions | 5        |

```
      00 01 02 03 04 05 06 07  08 09 0A 0B 0C 0D 0E 0F
      -- -- -- -- -- -- -- --  -- -- -- -- -- -- -- --
0540:    59 04 27 50 0F 01 03  80 1F 00 55 80 56 80 57   Y.'P......U.V.W
0550: 80 1F 01 6F 00                                    ...o.           
```

#### Opcodes

```
  0: 0x0541 [0x59] UPDATE_ENTITY_DATA: Set Danzhor (ID: 17780775/0x010F5027) main speed = 12* * 0.1
  1: 0x0549 [0x1F] MOVE_ENTITY: EventEntity moves to X=-45.210*, Z=-89.196*, Y=-5.999*
  2: 0x0551 [0x1F] MOVE_ENTITY: Update entity position (mode=1)
  3: 0x0553 [0x6F] WAIT_FRAME_DELAY: Yield until WaitTime reaches zero
  4: 0x0554 [0x00] END_REQSTACK()
```

### Event 65535.74

#### Metadata

| Field        | Value    |
|--------------|----------|
| Entrypoint   | 0x0555   |
| Data Size    | 12 bytes |
| Instructions | 4        |

```
      00 01 02 03 04 05 06 07  08 09 0A 0B 0C 0D 0E 0F
      -- -- -- -- -- -- -- --  -- -- -- -- -- -- -- --
0550:                1F 00 58  80 59 80 06 80 1F 01 6F       ..X.Y.....o
0560: 00                                                .               
```

#### Opcodes

```
  0: 0x0555 [0x1F] MOVE_ENTITY: EventEntity moves to X=-18.343*, Z=-8.286*, Y=0.000*
  1: 0x055D [0x1F] MOVE_ENTITY: Update entity position (mode=1)
  2: 0x055F [0x6F] WAIT_FRAME_DELAY: Yield until WaitTime reaches zero
  3: 0x0560 [0x00] END_REQSTACK()
```

### Event 65535.75

#### Metadata

| Field        | Value    |
|--------------|----------|
| Entrypoint   | 0x0561   |
| Data Size    | 16 bytes |
| Instructions | 2        |

```
      00 01 02 03 04 05 06 07  08 09 0A 0B 0C 0D 0E 0F
      -- -- -- -- -- -- -- --  -- -- -- -- -- -- -- --
0560:    66 18 80 27 50 0F 01  27 50 0F 01 74 68 6B 31   f..'P..'P..thk1
0570: 00                                                .               
```

#### Opcodes

```
  0: 0x0561 [0x66] LOAD_EXT_SCHEDULER_MAIN: Load scheduler "thk1" with entities [Danzhor (ID: 17780775/0x010F5027), Danzhor (ID: 17780775/0x010F5027)], work=69*
  1: 0x0570 [0x00] END_REQSTACK()
```

### Event 65535.76

#### Metadata

| Field        | Value    |
|--------------|----------|
| Entrypoint   | 0x0571   |
| Data Size    | 16 bytes |
| Instructions | 2        |

```
      00 01 02 03 04 05 06 07  08 09 0A 0B 0C 0D 0E 0F
      -- -- -- -- -- -- -- --  -- -- -- -- -- -- -- --
0570:    66 18 80 27 50 0F 01  27 50 0F 01 74 68 6B 32   f..'P..'P..thk2
0580: 00                                                .               
```

#### Opcodes

```
  0: 0x0571 [0x66] LOAD_EXT_SCHEDULER_MAIN: Load scheduler "thk2" with entities [Danzhor (ID: 17780775/0x010F5027), Danzhor (ID: 17780775/0x010F5027)], work=69*
  1: 0x0580 [0x00] END_REQSTACK()
```

### Event 65535.77

#### Metadata

| Field        | Value    |
|--------------|----------|
| Entrypoint   | 0x0581   |
| Data Size    | 20 bytes |
| Instructions | 5        |

```
      00 01 02 03 04 05 06 07  08 09 0A 0B 0C 0D 0E 0F
      -- -- -- -- -- -- -- --  -- -- -- -- -- -- -- --
0580:    59 04 27 50 0F 01 03  80 1F 00 5A 80 5B 80 06   Y.'P......Z.[..
0590: 80 1F 01 6F 00                                    ...o.           
```

#### Opcodes

```
  0: 0x0581 [0x59] UPDATE_ENTITY_DATA: Set Danzhor (ID: 17780775/0x010F5027) main speed = 12* * 0.1
  1: 0x0589 [0x1F] MOVE_ENTITY: EventEntity moves to X=-17.939*, Z=-16.579*, Y=0.000*
  2: 0x0591 [0x1F] MOVE_ENTITY: Update entity position (mode=1)
  3: 0x0593 [0x6F] WAIT_FRAME_DELAY: Yield until WaitTime reaches zero
  4: 0x0594 [0x00] END_REQSTACK()
```

### Event 65535.78

#### Metadata

| Field        | Value    |
|--------------|----------|
| Entrypoint   | 0x0595   |
| Data Size    | 20 bytes |
| Instructions | 5        |

```
      00 01 02 03 04 05 06 07  08 09 0A 0B 0C 0D 0E 0F
      -- -- -- -- -- -- -- --  -- -- -- -- -- -- -- --
0590:                59 04 27  50 0F 01 03 80 1F 00 5C       Y.'P......\
05A0: 80 5D 80 06 80 1F 01 6F  00                       .].....o.       
```

#### Opcodes

```
  0: 0x0595 [0x59] UPDATE_ENTITY_DATA: Set Danzhor (ID: 17780775/0x010F5027) main speed = 12* * 0.1
  1: 0x059D [0x1F] MOVE_ENTITY: EventEntity moves to X=-3.065*, Z=-7.931*, Y=0.000*
  2: 0x05A5 [0x1F] MOVE_ENTITY: Update entity position (mode=1)
  3: 0x05A7 [0x6F] WAIT_FRAME_DELAY: Yield until WaitTime reaches zero
  4: 0x05A8 [0x00] END_REQSTACK()
```

### Event 65535.79

#### Metadata

| Field        | Value    |
|--------------|----------|
| Entrypoint   | 0x05A9   |
| Data Size    | 17 bytes |
| Instructions | 2        |

```
      00 01 02 03 04 05 06 07  08 09 0A 0B 0C 0D 0E 0F
      -- -- -- -- -- -- -- --  -- -- -- -- -- -- -- --
05A0:                             66 2D 80 30 50 0F 01           f-.0P..
05B0: 30 50 0F 01 73 68 6B 30  00 00                    0P..shk0..      
```

#### Opcodes

```
  0: 0x05A9 [0x66] LOAD_EXT_SCHEDULER_MAIN: Load scheduler "shk0" with entities [Kikilolo (ID: 17780784/0x010F5030), Kikilolo (ID: 17780784/0x010F5030)], work=41*
  1: 0x05B8 [0x00] END_REQSTACK()
```

#### Data or dead code:

```
# Dead code (unreachable instructions):
     0x05B9 [0x00] END_REQSTACK()
```

### Event 65535.80

#### Metadata

| Field        | Value    |
|--------------|----------|
| Entrypoint   | 0x05BA   |
| Data Size    | 16 bytes |
| Instructions | 2        |

```
      00 01 02 03 04 05 06 07  08 09 0A 0B 0C 0D 0E 0F
      -- -- -- -- -- -- -- --  -- -- -- -- -- -- -- --
05B0:                                5B 5E 80 39 50 0F            [^.9P.
05C0: 01 39 50 0F 01 74 6C 6B  30 00                    .9P..tlk0.      
```

#### Opcodes

```
  0: 0x05BA [0x5B] LOAD_EXT_SCHEDULER: Load scheduler "tlk0" with entities [Momiji (ID: 17780793/0x010F5039), Momiji (ID: 17780793/0x010F5039)], work=60*
  1: 0x05C9 [0x00] END_REQSTACK()
```

### Event 65535.81

#### Metadata

| Field        | Value    |
|--------------|----------|
| Entrypoint   | 0x05CA   |
| Data Size    | 16 bytes |
| Instructions | 2        |

```
      00 01 02 03 04 05 06 07  08 09 0A 0B 0C 0D 0E 0F
      -- -- -- -- -- -- -- --  -- -- -- -- -- -- -- --
05C0:                                5B 5E 80 39 50 0F            [^.9P.
05D0: 01 39 50 0F 01 74 6C 6B  31 00                    .9P..tlk1.      
```

#### Opcodes

```
  0: 0x05CA [0x5B] LOAD_EXT_SCHEDULER: Load scheduler "tlk1" with entities [Momiji (ID: 17780793/0x010F5039), Momiji (ID: 17780793/0x010F5039)], work=60*
  1: 0x05D9 [0x00] END_REQSTACK()
```

### Event 65535.82

#### Metadata

| Field        | Value    |
|--------------|----------|
| Entrypoint   | 0x05DA   |
| Data Size    | 16 bytes |
| Instructions | 2        |

```
      00 01 02 03 04 05 06 07  08 09 0A 0B 0C 0D 0E 0F
      -- -- -- -- -- -- -- --  -- -- -- -- -- -- -- --
05D0:                                5B 5E 80 39 50 0F            [^.9P.
05E0: 01 39 50 0F 01 74 68 6B  31 00                    .9P..thk1.      
```

#### Opcodes

```
  0: 0x05DA [0x5B] LOAD_EXT_SCHEDULER: Load scheduler "thk1" with entities [Momiji (ID: 17780793/0x010F5039), Momiji (ID: 17780793/0x010F5039)], work=60*
  1: 0x05E9 [0x00] END_REQSTACK()
```

### Event 65535.83

#### Metadata

| Field        | Value    |
|--------------|----------|
| Entrypoint   | 0x05EA   |
| Data Size    | 16 bytes |
| Instructions | 2        |

```
      00 01 02 03 04 05 06 07  08 09 0A 0B 0C 0D 0E 0F
      -- -- -- -- -- -- -- --  -- -- -- -- -- -- -- --
05E0:                                5B 5E 80 39 50 0F            [^.9P.
05F0: 01 39 50 0F 01 74 68 6B  32 00                    .9P..thk2.      
```

#### Opcodes

```
  0: 0x05EA [0x5B] LOAD_EXT_SCHEDULER: Load scheduler "thk2" with entities [Momiji (ID: 17780793/0x010F5039), Momiji (ID: 17780793/0x010F5039)], work=60*
  1: 0x05F9 [0x00] END_REQSTACK()
```

### Event 65535.84

#### Metadata

| Field        | Value    |
|--------------|----------|
| Entrypoint   | 0x05FA   |
| Data Size    | 17 bytes |
| Instructions | 2        |

```
      00 01 02 03 04 05 06 07  08 09 0A 0B 0C 0D 0E 0F
      -- -- -- -- -- -- -- --  -- -- -- -- -- -- -- --
05F0:                                5B 5F 80 39 50 0F            [_.9P.
0600: 01 39 50 0F 01 65 6D 74  30 00 00                 .9P..emt0..     
```

#### Opcodes

```
  0: 0x05FA [0x5B] LOAD_EXT_SCHEDULER: Load scheduler "emt0" with entities [Momiji (ID: 17780793/0x010F5039), Momiji (ID: 17780793/0x010F5039)], work=2624*
  1: 0x0609 [0x00] END_REQSTACK()
```

#### Data or dead code:

```
# Dead code (unreachable instructions):
     0x060A [0x00] END_REQSTACK()
```

### Event 65535.85

#### Metadata

| Field        | Value    |
|--------------|----------|
| Entrypoint   | 0x060B   |
| Data Size    | 20 bytes |
| Instructions | 5        |

```
      00 01 02 03 04 05 06 07  08 09 0A 0B 0C 0D 0E 0F
      -- -- -- -- -- -- -- --  -- -- -- -- -- -- -- --
0600:                                   59 04 3C 50 0F             Y.<P.
0610: 01 36 80 1F 00 60 80 61  80 06 80 1F 01 6F 00     .6...`.a.....o. 
```

#### Opcodes

```
  0: 0x060B [0x59] UPDATE_ENTITY_DATA: Set Mendi (ID: 17780796/0x010F503C) main speed = 13* * 0.1
  1: 0x0613 [0x1F] MOVE_ENTITY: EventEntity moves to X=-38.371*, Z=-67.496*, Y=0.000*
  2: 0x061B [0x1F] MOVE_ENTITY: Update entity position (mode=1)
  3: 0x061D [0x6F] WAIT_FRAME_DELAY: Yield until WaitTime reaches zero
  4: 0x061E [0x00] END_REQSTACK()
```

### Event 65535.86

#### Metadata

| Field        | Value    |
|--------------|----------|
| Entrypoint   | 0x061F   |
| Data Size    | 12 bytes |
| Instructions | 4        |

```
      00 01 02 03 04 05 06 07  08 09 0A 0B 0C 0D 0E 0F
      -- -- -- -- -- -- -- --  -- -- -- -- -- -- -- --
0610:                                               1F                 .
0620: 00 62 80 63 80 06 80 1F  01 6F 00                 .b.c.....o.     
```

#### Opcodes

```
  0: 0x061F [0x1F] MOVE_ENTITY: EventEntity moves to X=-5.565*, Z=-1.804*, Y=0.000*
  1: 0x0627 [0x1F] MOVE_ENTITY: Update entity position (mode=1)
  2: 0x0629 [0x6F] WAIT_FRAME_DELAY: Yield until WaitTime reaches zero
  3: 0x062A [0x00] END_REQSTACK()
```

### Event 65535.87

#### Metadata

| Field        | Value    |
|--------------|----------|
| Entrypoint   | 0x062B   |
| Data Size    | 16 bytes |
| Instructions | 2        |

```
      00 01 02 03 04 05 06 07  08 09 0A 0B 0C 0D 0E 0F
      -- -- -- -- -- -- -- --  -- -- -- -- -- -- -- --
0620:                                   5B 4D 80 3C 50             [M.<P
0630: 0F 01 3C 50 0F 01 6F 70  62 30 00                 ..<P..opb0.     
```

#### Opcodes

```
  0: 0x062B [0x5B] LOAD_EXT_SCHEDULER: Load scheduler "opb0" with entities [Mendi (ID: 17780796/0x010F503C), Mendi (ID: 17780796/0x010F503C)], work=2583*
  1: 0x063A [0x00] END_REQSTACK()
```

### Event 65535.88

#### Metadata

| Field        | Value    |
|--------------|----------|
| Entrypoint   | 0x063B   |
| Data Size    | 16 bytes |
| Instructions | 2        |

```
      00 01 02 03 04 05 06 07  08 09 0A 0B 0C 0D 0E 0F
      -- -- -- -- -- -- -- --  -- -- -- -- -- -- -- --
0630:                                   5B 4D 80 3C 50             [M.<P
0640: 0F 01 3C 50 0F 01 6F 70  63 30 00                 ..<P..opc0.     
```

#### Opcodes

```
  0: 0x063B [0x5B] LOAD_EXT_SCHEDULER: Load scheduler "opc0" with entities [Mendi (ID: 17780796/0x010F503C), Mendi (ID: 17780796/0x010F503C)], work=2583*
  1: 0x064A [0x00] END_REQSTACK()
```

### Event 65535.89

#### Metadata

| Field        | Value    |
|--------------|----------|
| Entrypoint   | 0x064B   |
| Data Size    | 16 bytes |
| Instructions | 2        |

```
      00 01 02 03 04 05 06 07  08 09 0A 0B 0C 0D 0E 0F
      -- -- -- -- -- -- -- --  -- -- -- -- -- -- -- --
0640:                                   5B 4D 80 3C 50             [M.<P
0650: 0F 01 3C 50 0F 01 6F 70  63 31 00                 ..<P..opc1.     
```

#### Opcodes

```
  0: 0x064B [0x5B] LOAD_EXT_SCHEDULER: Load scheduler "opc1" with entities [Mendi (ID: 17780796/0x010F503C), Mendi (ID: 17780796/0x010F503C)], work=2583*
  1: 0x065A [0x00] END_REQSTACK()
```

### Event 65535.90

#### Metadata

| Field        | Value    |
|--------------|----------|
| Entrypoint   | 0x065B   |
| Data Size    | 16 bytes |
| Instructions | 2        |

```
      00 01 02 03 04 05 06 07  08 09 0A 0B 0C 0D 0E 0F
      -- -- -- -- -- -- -- --  -- -- -- -- -- -- -- --
0650:                                   66 64 80 3C 50             fd.<P
0660: 0F 01 3C 50 0F 01 74 68  62 31 00                 ..<P..thb1.     
```

#### Opcodes

```
  0: 0x065B [0x66] LOAD_EXT_SCHEDULER_MAIN: Load scheduler "thb1" with entities [Mendi (ID: 17780796/0x010F503C), Mendi (ID: 17780796/0x010F503C)], work=2*
  1: 0x066A [0x00] END_REQSTACK()
```

### Event 65535.91

#### Metadata

| Field        | Value    |
|--------------|----------|
| Entrypoint   | 0x066B   |
| Data Size    | 16 bytes |
| Instructions | 2        |

```
      00 01 02 03 04 05 06 07  08 09 0A 0B 0C 0D 0E 0F
      -- -- -- -- -- -- -- --  -- -- -- -- -- -- -- --
0660:                                   66 64 80 3C 50             fd.<P
0670: 0F 01 3C 50 0F 01 74 68  62 32 00                 ..<P..thb2.     
```

#### Opcodes

```
  0: 0x066B [0x66] LOAD_EXT_SCHEDULER_MAIN: Load scheduler "thb2" with entities [Mendi (ID: 17780796/0x010F503C), Mendi (ID: 17780796/0x010F503C)], work=2*
  1: 0x067A [0x00] END_REQSTACK()
```

### Event 65535.92

#### Metadata

| Field        | Value    |
|--------------|----------|
| Entrypoint   | 0x067B   |
| Data Size    | 16 bytes |
| Instructions | 2        |

```
      00 01 02 03 04 05 06 07  08 09 0A 0B 0C 0D 0E 0F
      -- -- -- -- -- -- -- --  -- -- -- -- -- -- -- --
0670:                                   66 06 80 3C 50             f..<P
0680: 0F 01 3C 50 0F 01 74 68  6B 31 00                 ..<P..thk1.     
```

#### Opcodes

```
  0: 0x067B [0x66] LOAD_EXT_SCHEDULER_MAIN: Load scheduler "thk1" with entities [Mendi (ID: 17780796/0x010F503C), Mendi (ID: 17780796/0x010F503C)], work=0*
  1: 0x068A [0x00] END_REQSTACK()
```

### Event 65535.93

#### Metadata

| Field        | Value    |
|--------------|----------|
| Entrypoint   | 0x068B   |
| Data Size    | 16 bytes |
| Instructions | 2        |

```
      00 01 02 03 04 05 06 07  08 09 0A 0B 0C 0D 0E 0F
      -- -- -- -- -- -- -- --  -- -- -- -- -- -- -- --
0680:                                   66 06 80 3C 50             f..<P
0690: 0F 01 3C 50 0F 01 74 68  6B 32 00                 ..<P..thk2.     
```

#### Opcodes

```
  0: 0x068B [0x66] LOAD_EXT_SCHEDULER_MAIN: Load scheduler "thk2" with entities [Mendi (ID: 17780796/0x010F503C), Mendi (ID: 17780796/0x010F503C)], work=0*
  1: 0x069A [0x00] END_REQSTACK()
```

### Event 65535.94

#### Metadata

| Field        | Value    |
|--------------|----------|
| Entrypoint   | 0x069B   |
| Data Size    | 20 bytes |
| Instructions | 5        |

```
      00 01 02 03 04 05 06 07  08 09 0A 0B 0C 0D 0E 0F
      -- -- -- -- -- -- -- --  -- -- -- -- -- -- -- --
0690:                                   59 04 3C 50 0F             Y.<P.
06A0: 01 36 80 1F 00 65 80 66  80 06 80 1F 01 6F 00     .6...e.f.....o. 
```

#### Opcodes

```
  0: 0x069B [0x59] UPDATE_ENTITY_DATA: Set Mendi (ID: 17780796/0x010F503C) main speed = 13* * 0.1
  1: 0x06A3 [0x1F] MOVE_ENTITY: EventEntity moves to X=-2.765*, Z=5.059*, Y=0.000*
  2: 0x06AB [0x1F] MOVE_ENTITY: Update entity position (mode=1)
  3: 0x06AD [0x6F] WAIT_FRAME_DELAY: Yield until WaitTime reaches zero
  4: 0x06AE [0x00] END_REQSTACK()
```

### Event 65535.95

#### Metadata

| Field        | Value    |
|--------------|----------|
| Entrypoint   | 0x06AF   |
| Data Size    | 20 bytes |
| Instructions | 5        |

```
      00 01 02 03 04 05 06 07  08 09 0A 0B 0C 0D 0E 0F
      -- -- -- -- -- -- -- --  -- -- -- -- -- -- -- --
06A0:                                               59                 Y
06B0: 04 3C 50 0F 01 36 80 1F  00 40 80 41 80 06 80 1F  .<P..6...@.A....
06C0: 01 6F 00                                          .o.             
```

#### Opcodes

```
  0: 0x06AF [0x59] UPDATE_ENTITY_DATA: Set Mendi (ID: 17780796/0x010F503C) main speed = 13* * 0.1
  1: 0x06B7 [0x1F] MOVE_ENTITY: EventEntity moves to X=-0.991*, Z=2.123*, Y=0.000*
  2: 0x06BF [0x1F] MOVE_ENTITY: Update entity position (mode=1)
  3: 0x06C1 [0x6F] WAIT_FRAME_DELAY: Yield until WaitTime reaches zero
  4: 0x06C2 [0x00] END_REQSTACK()
```

### Event 65535.96

#### Metadata

| Field        | Value    |
|--------------|----------|
| Entrypoint   | 0x06C3   |
| Data Size    | 16 bytes |
| Instructions | 2        |

```
      00 01 02 03 04 05 06 07  08 09 0A 0B 0C 0D 0E 0F
      -- -- -- -- -- -- -- --  -- -- -- -- -- -- -- --
06C0:          5B 4D 80 3C 50  0F 01 3C 50 0F 01 6F 70     [M.<P..<P..op
06D0: 64 30 00                                          d0.             
```

#### Opcodes

```
  0: 0x06C3 [0x5B] LOAD_EXT_SCHEDULER: Load scheduler "opd0" with entities [Mendi (ID: 17780796/0x010F503C), Mendi (ID: 17780796/0x010F503C)], work=2583*
  1: 0x06D2 [0x00] END_REQSTACK()
```

### Event 65535.97

#### Metadata

| Field        | Value    |
|--------------|----------|
| Entrypoint   | 0x06D3   |
| Data Size    | 16 bytes |
| Instructions | 2        |

```
      00 01 02 03 04 05 06 07  08 09 0A 0B 0C 0D 0E 0F
      -- -- -- -- -- -- -- --  -- -- -- -- -- -- -- --
06D0:          5B 4D 80 3C 50  0F 01 3C 50 0F 01 6F 70     [M.<P..<P..op
06E0: 64 31 00                                          d1.             
```

#### Opcodes

```
  0: 0x06D3 [0x5B] LOAD_EXT_SCHEDULER: Load scheduler "opd1" with entities [Mendi (ID: 17780796/0x010F503C), Mendi (ID: 17780796/0x010F503C)], work=2583*
  1: 0x06E2 [0x00] END_REQSTACK()
```
