# 17780961

## Common Data

| Field            | Value                 |
|------------------|-----------------------|
| Zone             | Lower Jeuno (ID: 245) |
| Block Size       | 3476 bytes            |
| Total Events     | 7                     |
| References Count | 149                   |

## List of Events

| Event ID              | Entrypoint   |   Size |   Instructions |
|-----------------------|--------------|--------|----------------|
| [65535](#event-65535) | 0x0000       |      1 |              1 |
| [10126](#event-10126) | 0x0001       |    657 |            117 |
| [10127](#event-10127) | 0x0292       |    316 |             61 |
| [10128](#event-10128) | 0x03CE       |    789 |            152 |
| [10132](#event-10132) | 0x06E3       |    282 |             47 |
| [10133](#event-10133) | 0x07FD       |     98 |             18 |
| [10129](#event-10129) | 0x085F       |    692 |            124 |

## DAT References (imed_data)

|   Index | Hex Value   |   Dec Value |
|---------|-------------|-------------|
|       0 | 0x0000      |           0 |
|       1 | 0x0003      |           3 |
|       2 | 0x0005      |           5 |
|       3 | 0x0001      |           1 |
|       4 | 0x0006      |           6 |
|       5 | 0x28D6      |       10454 |
|       6 | 0x003C      |          60 |
|       7 | 0x28D7      |       10455 |
|       8 | 0x28D8      |       10456 |
|       9 | 0x28D9      |       10457 |
|      10 | 0x005A      |          90 |
|      11 | 0x4435      |       17461 |
|      12 | 0x5436      |       21558 |
|      13 | 0x28DA      |       10458 |
|      14 | 0x28DB      |       10459 |
|      15 | 0x0004      |           4 |
|      16 | 0x28DC      |       10460 |
|      17 | 0x0045      |          69 |
|      18 | 0x28DE      |       10462 |
|      19 | 0x28DF      |       10463 |
|      20 | 0x28E0      |       10464 |
|      21 | 0x28E1      |       10465 |
|      22 | 0x28E2      |       10466 |
|      23 | 0x28E3      |       10467 |
|      24 | 0x28E4      |       10468 |
|      25 | 0x0002      |           2 |
|      26 | 0x0015      |          21 |
|      27 | 0x28E5      |       10469 |
|      28 | 0x28E6      |       10470 |
|      29 | 0x0078      |         120 |
|      30 | 0x28E7      |       10471 |
|      31 | 0x28E8      |       10472 |
|      32 | 0x28E9      |       10473 |
|      33 | 0x11CE      |        4558 |
|      34 | 0x28EA      |       10474 |
|      35 | 0x28DD      |       10461 |
|      36 | 0x0007      |           7 |
|      37 | 0x28EB      |       10475 |
|      38 | 0x28FC      |       10492 |
|      39 | 0x28FD      |       10493 |
|      40 | 0x28FE      |       10494 |
|      41 | 0x28FF      |       10495 |
|      42 | 0x2900      |       10496 |
|      43 | 0x2907      |       10503 |
|      44 | 0x2908      |       10504 |
|      45 | 0x2909      |       10505 |
|      46 | 0x290A      |       10506 |
|      47 | 0x290B      |       10507 |
|      48 | 0x290C      |       10508 |
|      49 | 0x290D      |       10509 |
|      50 | 0x290E      |       10510 |
|      51 | 0x290F      |       10511 |
|      52 | 0x2911      |       10513 |
|      53 | 0x2912      |       10514 |
|      54 | 0x00CC      |         204 |
|      55 | 0x2913      |       10515 |
|      56 | 0x2914      |       10516 |
|      57 | 0x2915      |       10517 |
|      58 | 0x2916      |       10518 |
|      59 | 0x2917      |       10519 |
|      60 | 0x2918      |       10520 |
|      61 | 0x2919      |       10521 |
|      62 | 0x2910      |       10512 |
|      63 | 0x28EC      |       10476 |
|      64 | 0x28ED      |       10477 |
|      65 | 0x28EE      |       10478 |
|      66 | 0x28EF      |       10479 |
|      67 | 0x28F0      |       10480 |
|      68 | 0x28F1      |       10481 |
|      69 | 0x28F2      |       10482 |
|      70 | 0x28F3      |       10483 |
|      71 | 0x28F4      |       10484 |
|      72 | 0x0008      |           8 |
|      73 | 0x28F5      |       10485 |
|      74 | 0x28F6      |       10486 |
|      75 | 0x000A      |          10 |
|      76 | 0x28F7      |       10487 |
|      77 | 0x28F8      |       10488 |
|      78 | 0x0064      |         100 |
|      79 | 0x28F9      |       10489 |
|      80 | 0x28FA      |       10490 |
|      81 | 0x28FB      |       10491 |
|      82 | 0x2901      |       10497 |
|      83 | 0x2902      |       10498 |
|      84 | 0x2906      |       10502 |
|      85 | 0x2903      |       10499 |
|      86 | 0x0020      |          32 |
|      87 | 0x00B4      |         180 |
|      88 | 0x2904      |       10500 |
|      89 | 0x2905      |       10501 |
|      90 | 0x2926      |       10534 |
|      91 | 0x2927      |       10535 |
|      92 | 0x2928      |       10536 |
|      93 | 0x2929      |       10537 |
|      94 | 0x292B      |       10539 |
|      95 | 0x292C      |       10540 |
|      96 | 0x292D      |       10541 |
|      97 | 0x292E      |       10542 |
|      98 | 0x292F      |       10543 |
|      99 | 0x292A      |       10538 |
|     100 | 0x293B      |       10555 |
|     101 | 0x293C      |       10556 |
|     102 | 0x293D      |       10557 |
|     103 | 0x293E      |       10558 |
|     104 | 0x293F      |       10559 |
|     105 | 0x2940      |       10560 |
|     106 | 0x2941      |       10561 |
|     107 | 0x2943      |       10563 |
|     108 | 0x2944      |       10564 |
|     109 | 0x2945      |       10565 |
|     110 | 0x2946      |       10566 |
|     111 | 0x2947      |       10567 |
|     112 | 0x2948      |       10568 |
|     113 | 0x017F      |         383 |
|     114 | 0x2942      |       10562 |
|     115 | 0x2930      |       10544 |
|     116 | 0x0025      |          37 |
|     117 | 0x2932      |       10546 |
|     118 | 0x0096      |         150 |
|     119 | 0x2933      |       10547 |
|     120 | 0x2934      |       10548 |
|     121 | 0x0017      |          23 |
|     122 | 0x2935      |       10549 |
|     123 | 0x2936      |       10550 |
|     124 | 0x2937      |       10551 |
|     125 | 0x2938      |       10552 |
|     126 | 0x2939      |       10553 |
|     127 | 0x293A      |       10554 |
|     128 | 0x2931      |       10545 |
|     129 | 0x008F      |         143 |
|     130 | 0x014F      |         335 |
|     131 | 0x0055      |          85 |
|     132 | 0x00FE      |         254 |
|     133 | 0x0151      |         337 |
|     134 | 0x0131      |         305 |
|     135 | 0x4018      |       16408 |
|     136 | 0x471E      |       18206 |
|     137 | 0x4107      |       16647 |
|     138 | 0x40B3      |       16563 |
|     139 | 0x46A4      |       18084 |
|     140 | 0x42C5      |       17093 |
|     141 | 0x00BF      |         191 |
|     142 | 0x00C4      |         196 |
|     143 | 0x00C5      |         197 |
|     144 | 0x00C3      |         195 |
|     145 | 0x00C2      |         194 |
|     146 | 0x00C8      |         200 |
|     147 | 0x00C1      |         193 |
|     148 | 0x00C6      |         198 |

## String References

- **10460**: What do you want to ask about? [The Strange Apparatus./The password./Tell me the password./Farewell.]
- **10493**: Got it? [No problem!/I'm not very good with numbers.]
- **10498**: Where are you planning to register? [$8./$8./$8./$8./$8./$8./$8./$8./Never mind.]
- **10504**: What do you want to ask? [Tell me how to calculate the password./Just tell me the password./Never mind.]
- **10511**: Do you want to hear the info? [Sure./No thanks.]
- **10537**: How do you respond? [Tell me the values./I'll figure it out myself.]
- **10544**: How do you respond? [And the passsword?/Got it.]

## Events

### Event 65535

#### Metadata

| Field        | Value   |
|--------------|---------|
| Entrypoint   | 0x0000  |
| Data Size    | 1 bytes |
| Instructions | 1       |

```
      00 01 02 03 04 05 06 07  08 09 0A 0B 0C 0D 0E 0F
      -- -- -- -- -- -- -- --  -- -- -- -- -- -- -- --
0000: 00                                                .               
```

#### Opcodes

```
  0: 0x0000 [0x00] END_REQSTACK()
```

### Event 10126

#### Metadata

| Field        | Value     |
|--------------|-----------|
| Entrypoint   | 0x0001    |
| Data Size    | 657 bytes |
| Instructions | 83        |

```
      00 01 02 03 04 05 06 07  08 09 0A 0B 0C 0D 0E 0F
      -- -- -- -- -- -- -- --  -- -- -- -- -- -- -- --
0000:    7A 04 80 E3 50 0F 01  08 03 01 10 00 80 03 00   z...P..........
0010: 00 02 10 03 02 00 03 10  4A F0 FF FF 7F E3 50 0F  ........J.....P.
0020: 01 4A E3 50 0F 01 F0 FF  FF 7F 6F 76 E3 50 0F 01  .J.P......ov.P..
0030: 41 01 80 02 80 00 00 01  00 02 01 00 03 80 00 44  A..............D
0040: 00 01 23 02 9D 0A E3 0A  02 10 02 00 04 80 2B E3  ..#...........+.
0050: 50 0F 01 05 80 1C 06 80  23 27 10 E3 50 0F 01 07  P.......#'..P...
0060: 9D 0A F3 0A 03 10 02 00  04 80 2B E3 50 0F 01 07  ..........+.P...
0070: 80 23 2B E3 50 0F 01 08  80 23 2B E3 50 0F 01 09  .#+.P....#+.P...
0080: 80 1C 0A 80 23 2A 10 E3  50 0F 01 27 10 E3 50 0F  ....#*..P..'..P.
0090: 01 08 2A 10 E3 50 0F 01  7A 05 E3 50 0F 01 03 06  ..*..P..z..P....
00A0: 10 0B 80 03 08 10 0C 80  2B E3 50 0F 01 0D 80 23  ........+.P....#
00B0: 2B E3 50 0F 01 0E 80 23  03 04 00 0F 80 03 03 00  +.P....#........
00C0: 00 80 24 10 80 03 00 04  00 25 02 00 10 00 80 00  ..$......%......
00D0: 5E 01 66 11 80 E3 50 0F  01 E3 50 0F 01 74 6C 6B  ^.f...P...P..tlk
00E0: 30 2B E3 50 0F 01 12 80  23 9D 0A F3 0A 03 10 02  0+.P....#.......
00F0: 00 04 80 03 04 10 02 00  0B 04 10 02 04 10 04 80  ................
0100: 00 08 01 03 04 10 00 80  03 05 10 04 10 9D 0A F3  ................
0110: 0A 04 10 04 10 04 80 0B  05 10 02 05 10 04 80 00  ................
0120: 27 01 03 05 10 00 80 9D  0A F3 0A 05 10 05 10 04  '...............
0130: 80 2B E3 50 0F 01 13 80  23 2B E3 50 0F 01 14 80  .+.P....#+.P....
0140: 1C 0A 80 23 66 11 80 E3  50 0F 01 E3 50 0F 01 74  ...#f...P...P..t
0150: 6C 6B 31 03 03 00 00 10  01 C2 00 01 90 02 02 00  lk1.............
0160: 10 03 80 00 C1 01 66 11  80 E3 50 0F 01 E3 50 0F  ......f...P...P.
0170: 01 74 6C 6B 30 2B E3 50  0F 01 15 80 23 9D 0A E3  .tlk0+.P....#...
0180: 0A 02 10 02 00 04 80 2B  E3 50 0F 01 16 80 23 2B  .......+.P....#+
0190: E3 50 0F 01 17 80 23 2B  E3 50 0F 01 18 80 1C 0A  .P....#+.P......
01A0: 80 23 66 11 80 E3 50 0F  01 E3 50 0F 01 74 6C 6B  .#f...P...P..tlk
01B0: 31 03 04 00 00 80 03 03  00 00 10 01 C2 00 01 90  1...............
01C0: 02 02 00 10 19 80 00 7D  02 6E E3 50 0F 01 1A 80  .......}.n.P....
01D0: 99 E3 50 0F 01 2B E3 50  0F 01 1B 80 23 2B E3 50  ..P..+.P....#+.P
01E0: 0F 01 1C 80 1C 1D 80 23  7B E3 50 0F 01 66 11 80  .......#{.P..f..
01F0: E3 50 0F 01 E3 50 0F 01  74 68 6B 31 2B E3 50 0F  .P...P..thk1+.P.
0200: 01 1E 80 1C 1D 80 23 66  11 80 E3 50 0F 01 E3 50  ......#f...P...P
0210: 0F 01 74 68 6B 32 79 00  E3 50 0F 01 F0 FF FF 7F  ..thk2y..P......
0220: 1C 06 80 66 11 80 E3 50  0F 01 E3 50 0F 01 74 6C  ...f...P...P..tl
0230: 6B 30 2B E3 50 0F 01 1F  80 23 2B E3 50 0F 01 20  k0+.P....#+.P.. 
0240: 80 23 02 01 00 00 80 00  4B 02 42 03 07 10 21 80  .#......K.B...!.
0250: 2B E3 50 0F 01 22 80 1C  0A 80 23 66 11 80 E3 50  +.P.."....#f...P
0260: 0F 01 E3 50 0F 01 74 6C  6B 31 1C 06 80 02 01 00  ...P..tlk1......
0270: 00 80 00 7A 02 03 01 10  03 80 01 90 02 02 00 10  ...z............
0280: 01 80 00 90 02 2B E3 50  0F 01 23 80 23 01 90 02  .....+.P..#.#...
0290: 21 00                                             !.              
```

#### Opcodes

```
  0: 0x0001 [0x7A] VM_CONTROL: Copy data from Unknown NPC (ID: 256959360/0x0F50E380) (params=1, 8)
  1: 0x0009 [0x03] Work_Zone[1] = 0*
  2: 0x000E [0x03] ExtData[1]->WorkLocal[0] = Work_Zone[2]
  3: 0x0013 [0x03] ExtData[1]->WorkLocal[2] = Work_Zone[3]
  4: 0x0018 [0x4A] LocalPlayer looks at Boisterous Jackal (ID: 17780963/0x010F50E3)
  5: 0x0021 [0x4A] Boisterous Jackal (ID: 17780963/0x010F50E3) looks at LocalPlayer
  6: 0x002A [0x6F] WAIT_FRAME_DELAY: Yield until WaitTime reaches zero
  7: 0x002B [0x76] CHECK_ENTITY_RENDER_FLAGS: Wait until Boisterous Jackal (ID: 17780963/0x010F50E3) Render.Flags0 and Render.Flags3 conditions are met
  8: 0x0030 [0x41] ExtData[1]->WorkLocal[1] = ExtData[1]->WorkLocal[0] (bits 3*-5*)
  9: 0x0039 [0x02] IF !(ExtData[1]->WorkLocal[1] == 1*) GOTO 0x0044
 10: 0x0041 [0x01] GOTO 0x0223
 11: 0x0044 [0x9D] IF (0x0AE3) ExtData[1]->WorkLocal[2] = Work_Zone[2] // extra=0x8004
 12: 0x004E [0x2B] Boisterous Jackal (ID: 17780963/0x010F50E3) [10454*]:
    → "What do you want? Oh, I see you've got your eyes on my $0."
 13: 0x0055 [0x1C] WAIT(60* ticks)
 14: 0x0058 [0x23] WAIT_FOR_DIALOG_INTERACTION
 15: 0x0059 [0x27] REQ_SET(priority=0x10, entity_id=Boisterous Jackal (ID: 17780963/0x010F50E3), tag_num=0x07)
 16: 0x0060 [0x9D] IF (0x0AF3) ExtData[1]->WorkLocal[2] = Work_Zone[3] // extra=0x8004
 17: 0x006A [0x2B] Boisterous Jackal (ID: 17780963/0x010F50E3) [10455*]:
    → "It's imbued with the power of a rune generated by the Strange Apparatus in $8."
 18: 0x0071 [0x23] WAIT_FOR_DIALOG_INTERACTION
 19: 0x0072 [0x2B] Boisterous Jackal (ID: 17780963/0x010F50E3) [10456*]:
    → "There are many other weapons imbued with the power of runes. Of course, I own all of the ones that can be equipped."
 20: 0x0079 [0x23] WAIT_FOR_DIALOG_INTERACTION
 21: 0x007A [0x2B] Boisterous Jackal (ID: 17780963/0x010F50E3) [10457*]:
    → "Any warrior worth his salt needs to be well-trained in a variety of weapons."
 22: 0x0081 [0x1C] WAIT(90* ticks)
 23: 0x0084 [0x23] WAIT_FOR_DIALOG_INTERACTION
 24: 0x0085 [0x2A] GET_REQ_LEVEL(level=16, entity_id=Boisterous Jackal (ID: 17780963/0x010F50E3))
 25: 0x008B [0x27] REQ_SET(priority=0x10, entity_id=Boisterous Jackal (ID: 17780963/0x010F50E3), tag_num=0x08)
 26: 0x0092 [0x2A] GET_REQ_LEVEL(level=16, entity_id=Boisterous Jackal (ID: 17780963/0x010F50E3))
 27: 0x0098 [0x7A] VM_CONTROL: Reset copy state for Boisterous Jackal (ID: 17780963/0x010F50E3)
 28: 0x009E [0x03] Work_Zone[6] = 17461*
 29: 0x00A3 [0x03] Work_Zone[8] = 21558*
 30: 0x00A8 [0x2B] Boisterous Jackal (ID: 17780963/0x010F50E3) [10458*]:
    → "As for the ones I can't equip, the $4 and the $6, I was able to sell it for a pretty good price at the bazaar."
 31: 0x00AF [0x23] WAIT_FOR_DIALOG_INTERACTION
 32: 0x00B0 [0x2B] Boisterous Jackal (ID: 17780963/0x010F50E3) [10459*]:
    → "At any rate, it was worth the trouble of decoding the device's password."
 33: 0x00B7 [0x23] WAIT_FOR_DIALOG_INTERACTION
 34: 0x00B8 [0x03] ExtData[1]->WorkLocal[4] = 4*
 35: 0x00BD [0x03] ExtData[1]->WorkLocal[3] = 0*

SUBROUTINE_00C2:
 36: 0x00C2 [0x24] CREATE_DIALOG(message_id=10460*, default_option=ExtData[1]->WorkLocal[3], option_flags=ExtData[1]->WorkLocal[4])
    → "What do you want to ask about? [The Strange Apparatus./The password./Tell me the password./Farewell.]"
 37: 0x00C9 [0x25] WAIT_DIALOG_SELECT()
 38: 0x00CA [0x02] IF !(Work_Zone[0] == 0*) GOTO 0x015E
 39: 0x00D2 [0x66] LOAD_EXT_SCHEDULER_MAIN: Load scheduler "tlk0" with entities [Boisterous Jackal (ID: 17780963/0x010F50E3), Boisterous Jackal (ID: 17780963/0x010F50E3)], work=69*
 40: 0x00E1 [0x2B] Boisterous Jackal (ID: 17780963/0x010F50E3) [10462*]:
    → "Huh? You mean you've never heard of a Strange Apparatus?"
 41: 0x00E8 [0x23] WAIT_FOR_DIALOG_INTERACTION
 42: 0x00E9 [0x9D] IF (0x0AF3) ExtData[1]->WorkLocal[2] = Work_Zone[3] // extra=0x8004
 43: 0x00F3 [0x03] Work_Zone[4] = ExtData[1]->WorkLocal[2]
 44: 0x00F8 [0x0B] Work_Zone[4]++
 45: 0x00FB [0x02] IF !(Work_Zone[4] == 6*) GOTO 0x0108
 46: 0x0103 [0x03] Work_Zone[4] = 0*
 47: 0x0108 [0x03] Work_Zone[5] = Work_Zone[4]
 48: 0x010D [0x9D] IF (0x0AF3) Work_Zone[4] = Work_Zone[4] // extra=0x8004
 49: 0x0117 [0x0B] Work_Zone[5]++
 50: 0x011A [0x02] IF !(Work_Zone[5] == 6*) GOTO 0x0127
 51: 0x0122 [0x03] Work_Zone[5] = 0*
 52: 0x0127 [0x9D] IF (0x0AF3) Work_Zone[5] = Work_Zone[5] // extra=0x8004
 53: 0x0131 [0x2B] Boisterous Jackal (ID: 17780963/0x010F50E3) [10463*]:
    → "They're a type of mysterious device hidden in $8 as well as $8 and $8, among other places."
 54: 0x0138 [0x23] WAIT_FOR_DIALOG_INTERACTION
 55: 0x0139 [0x2B] Boisterous Jackal (ID: 17780963/0x010F50E3) [10464*]:
    → "Of course, I have no idea what such things are doing in caves, ruins, and the like."
 56: 0x0140 [0x1C] WAIT(90* ticks)
 57: 0x0143 [0x23] WAIT_FOR_DIALOG_INTERACTION
 58: 0x0144 [0x66] LOAD_EXT_SCHEDULER_MAIN: Load scheduler "tlk1" with entities [Boisterous Jackal (ID: 17780963/0x010F50E3), Boisterous Jackal (ID: 17780963/0x010F50E3)], work=69*
 59: 0x0153 [0x03] ExtData[1]->WorkLocal[3] = Work_Zone[0]
 60: 0x0158 [0x01] GOTO 0x00C2

SUBROUTINE_0223:
 61: 0x0223 [0x66] LOAD_EXT_SCHEDULER_MAIN: Load scheduler "tlk0" with entities [Boisterous Jackal (ID: 17780963/0x010F50E3), Boisterous Jackal (ID: 17780963/0x010F50E3)], work=69*
 62: 0x0232 [0x2B] Boisterous Jackal (ID: 17780963/0x010F50E3) [10472*]:
    → "Actually, you need MP to wield this weapon properly."
 63: 0x0239 [0x23] WAIT_FOR_DIALOG_INTERACTION
 64: 0x023A [0x2B] Boisterous Jackal (ID: 17780963/0x010F50E3) [10473*]:
    → "For a Galkan warrior like myself, it's a constant struggle to keep up the necessary MP."
 65: 0x0241 [0x23] WAIT_FOR_DIALOG_INTERACTION
 66: 0x0242 [0x02] IF !(ExtData[1]->WorkLocal[1] == 0*) GOTO 0x024B
 67: 0x024A [0x42] SET_CLI_EVENT_CANCEL_DATA()
 68: 0x024B [0x03] Work_Zone[7] = 4558*
 69: 0x0250 [0x2B] Boisterous Jackal (ID: 17780963/0x010F50E3) [10474*]:
    → "So, if you can bring me $5, I suppose I could tell you the secret behind the password."
 70: 0x0257 [0x1C] WAIT(90* ticks)
 71: 0x025A [0x23] WAIT_FOR_DIALOG_INTERACTION
 72: 0x025B [0x66] LOAD_EXT_SCHEDULER_MAIN: Load scheduler "tlk1" with entities [Boisterous Jackal (ID: 17780963/0x010F50E3), Boisterous Jackal (ID: 17780963/0x010F50E3)], work=69*
 73: 0x026A [0x1C] WAIT(60* ticks)
 74: 0x026D [0x02] IF !(ExtData[1]->WorkLocal[1] == 0*) GOTO 0x027A
 75: 0x0275 [0x03] Work_Zone[1] = 1*
 76: 0x027A [0x01] GOTO 0x0290
 77: 0x027D [0x02] IF !(Work_Zone[0] == 3*) GOTO 0x0290
 78: 0x0285 [0x2B] Boisterous Jackal (ID: 17780963/0x010F50E3) [10461*]:
    → "See you around."
 79: 0x028C [0x23] WAIT_FOR_DIALOG_INTERACTION
 80: 0x028D [0x01] GOTO 0x0290

SUBROUTINE_0290:
 81: 0x0290 [0x21] END_EVENT
 82: 0x0291 [0x00] END_REQSTACK()
```

#### Data or dead code:

```
# Dead code (unreachable instructions):
     0x015B [0x01] GOTO 0x0290
     0x01BE [0x01] GOTO 0x0290
```

### Event 10127

#### Metadata

| Field        | Value     |
|--------------|-----------|
| Entrypoint   | 0x0292    |
| Data Size    | 316 bytes |
| Instructions | 53        |

```
      00 01 02 03 04 05 06 07  08 09 0A 0B 0C 0D 0E 0F
      -- -- -- -- -- -- -- --  -- -- -- -- -- -- -- --
0290:       03 01 10 00 80 03  00 00 02 10 4A F0 FF FF    ..........J...
02A0: 7F E3 50 0F 01 4A E3 50  0F 01 F0 FF FF 7F 6F 76  ..P..J.P......ov
02B0: E3 50 0F 01 41 01 80 02  80 00 00 01 00 02 01 00  .P..A...........
02C0: 19 80 80 66 03 6E E3 50  0F 01 24 80 99 E3 50 0F  ...f.n.P..$...P.
02D0: 01 2B E3 50 0F 01 25 80  1C 0A 80 23 1A 1E 05 2B  .+.P..%....#...+
02E0: E3 50 0F 01 26 80 23 66  11 80 E3 50 0F 01 E3 50  .P..&.#f...P...P
02F0: 0F 01 74 6C 6B 31 1C 06  80 24 27 80 00 80 00 80  ..tlk1...$'.....
0300: 25 02 00 10 00 80 00 3E  03 42 66 11 80 E3 50 0F  %......>.Bf...P.
0310: 01 E3 50 0F 01 74 6C 6B  30 2B E3 50 0F 01 28 80  ..P..tlk0+.P..(.
0320: 23 2B E3 50 0F 01 29 80  23 66 11 80 E3 50 0F 01  #+.P..).#f...P..
0330: E3 50 0F 01 74 6C 6B 31  1C 06 80 01 63 03 02 00  .P..tlk1....c...
0340: 10 03 80 00 63 03 6E E3  50 0F 01 04 80 99 E3 50  ....c.n.P......P
0350: 0F 01 2B E3 50 0F 01 2A  80 1C 1D 80 23 1A 23 06  ..+.P..*....#.#.
0360: 01 63 03 01 CC 03 02 01  00 01 80 80 CC 03 2B E3  .c............+.
0370: 50 0F 01 2B 80 23 03 03  00 00 80 24 2C 80 03 00  P..+.#.....$,...
0380: 00 80 25 02 00 10 00 80  00 A8 03 1A 1E 05 66 11  ..%...........f.
0390: 80 E3 50 0F 01 E3 50 0F  01 74 6C 6B 31 03 03 00  ..P...P..tlk1...
03A0: 00 10 01 7B 03 01 C9 03  02 00 10 03 80 00 B6 03  ...{............
03B0: 1A 23 06 01 C9 03 02 00  10 19 80 00 C9 03 2B E3  .#............+.
03C0: 50 0F 01 23 80 23 01 C9  03 01 CC 03 21 00        P..#.#......!.  
```

#### Opcodes

```
  0: 0x0292 [0x03] Work_Zone[1] = 0*
  1: 0x0297 [0x03] ExtData[1]->WorkLocal[0] = Work_Zone[2]
  2: 0x029C [0x4A] LocalPlayer looks at Boisterous Jackal (ID: 17780963/0x010F50E3)
  3: 0x02A5 [0x4A] Boisterous Jackal (ID: 17780963/0x010F50E3) looks at LocalPlayer
  4: 0x02AE [0x6F] WAIT_FRAME_DELAY: Yield until WaitTime reaches zero
  5: 0x02AF [0x76] CHECK_ENTITY_RENDER_FLAGS: Wait until Boisterous Jackal (ID: 17780963/0x010F50E3) Render.Flags0 and Render.Flags3 conditions are met
  6: 0x02B4 [0x41] ExtData[1]->WorkLocal[1] = ExtData[1]->WorkLocal[0] (bits 3*-5*)
  7: 0x02BD [0x02] IF !(ExtData[1]->WorkLocal[1] == 2*) GOTO 0x0366
  8: 0x02C5 [0x6E] Boisterous Jackal (ID: 17780963/0x010F50E3) uses emote 7*
  9: 0x02CC [0x99] Wait for Boisterous Jackal (ID: 17780963/0x010F50E3) animation to complete
 10: 0x02D1 [0x2B] Boisterous Jackal (ID: 17780963/0x010F50E3) [10475*]:
    → "Very well. As promised, I'll tell you the secret behind the password."
 11: 0x02D8 [0x1C] WAIT(90* ticks)
 12: 0x02DB [0x23] WAIT_FOR_DIALOG_INTERACTION
 13: 0x02DC [0x1A] CALL_SUBROUTINE(address=0x051E)
 14: 0x02DF [0x2B] Boisterous Jackal (ID: 17780963/0x010F50E3) [10492*]:
    → "Did you get all that?"
 15: 0x02E6 [0x23] WAIT_FOR_DIALOG_INTERACTION
 16: 0x02E7 [0x66] LOAD_EXT_SCHEDULER_MAIN: Load scheduler "tlk1" with entities [Boisterous Jackal (ID: 17780963/0x010F50E3), Boisterous Jackal (ID: 17780963/0x010F50E3)], work=69*
 17: 0x02F6 [0x1C] WAIT(60* ticks)
 18: 0x02F9 [0x24] CREATE_DIALOG(message_id=10493*, default_option=0*, option_flags=0*)
    → "Got it? [No problem!/I'm not very good with numbers.]"
 19: 0x0300 [0x25] WAIT_DIALOG_SELECT()
 20: 0x0301 [0x02] IF !(Work_Zone[0] == 0*) GOTO 0x033E
 21: 0x0309 [0x42] SET_CLI_EVENT_CANCEL_DATA()
 22: 0x030A [0x66] LOAD_EXT_SCHEDULER_MAIN: Load scheduler "tlk0" with entities [Boisterous Jackal (ID: 17780963/0x010F50E3), Boisterous Jackal (ID: 17780963/0x010F50E3)], work=69*
 23: 0x0319 [0x2B] Boisterous Jackal (ID: 17780963/0x010F50E3) [10494*]:
    → "Okay then. Now you know how to find your password."
 24: 0x0320 [0x23] WAIT_FOR_DIALOG_INTERACTION
 25: 0x0321 [0x2B] Boisterous Jackal (ID: 17780963/0x010F50E3) [10495*]:
    → "As for what materials to place in the device, you'll need to research that for yourself."
 26: 0x0328 [0x23] WAIT_FOR_DIALOG_INTERACTION
 27: 0x0329 [0x66] LOAD_EXT_SCHEDULER_MAIN: Load scheduler "tlk1" with entities [Boisterous Jackal (ID: 17780963/0x010F50E3), Boisterous Jackal (ID: 17780963/0x010F50E3)], work=69*
 28: 0x0338 [0x1C] WAIT(60* ticks)
 29: 0x033B [0x01] GOTO 0x0363
 30: 0x033E [0x02] IF !(Work_Zone[0] == 1*) GOTO 0x0363
 31: 0x0346 [0x6E] Boisterous Jackal (ID: 17780963/0x010F50E3) uses emote 6*
 32: 0x034D [0x99] Wait for Boisterous Jackal (ID: 17780963/0x010F50E3) animation to complete
 33: 0x0352 [0x2B] Boisterous Jackal (ID: 17780963/0x010F50E3) [10496*]:
    → "Were you even paying attention? Fine, I'll give you the short version."
 34: 0x0359 [0x1C] WAIT(120* ticks)
 35: 0x035C [0x23] WAIT_FOR_DIALOG_INTERACTION
 36: 0x035D [0x1A] CALL_SUBROUTINE(address=0x0623)
 37: 0x0360 [0x01] GOTO 0x0363

SUBROUTINE_0363:
 38: 0x0363 [0x01] GOTO 0x03CC
 39: 0x0366 [0x02] IF !(ExtData[1]->WorkLocal[1] == 3*) GOTO 0x03CC
 40: 0x036E [0x2B] Boisterous Jackal (ID: 17780963/0x010F50E3) [10503*]:
    → "What do you want?"
 41: 0x0375 [0x23] WAIT_FOR_DIALOG_INTERACTION
 42: 0x0376 [0x03] ExtData[1]->WorkLocal[3] = 0*

SUBROUTINE_037B:
 43: 0x037B [0x24] CREATE_DIALOG(message_id=10504*, default_option=ExtData[1]->WorkLocal[3], option_flags=0*)
    → "What do you want to ask? [Tell me how to calculate the password./Just tell me the password./Never mind.]"
 44: 0x0382 [0x25] WAIT_DIALOG_SELECT()
 45: 0x0383 [0x02] IF !(Work_Zone[0] == 0*) GOTO 0x03A8
 46: 0x038B [0x1A] CALL_SUBROUTINE(address=0x051E)
 47: 0x038E [0x66] LOAD_EXT_SCHEDULER_MAIN: Load scheduler "tlk1" with entities [Boisterous Jackal (ID: 17780963/0x010F50E3), Boisterous Jackal (ID: 17780963/0x010F50E3)], work=69*
 48: 0x039D [0x03] ExtData[1]->WorkLocal[3] = Work_Zone[0]
 49: 0x03A2 [0x01] GOTO 0x037B

SUBROUTINE_03C9:
 50: 0x03C9 [0x01] GOTO 0x03CC

SUBROUTINE_03CC:
 51: 0x03CC [0x21] END_EVENT
 52: 0x03CD [0x00] END_REQSTACK()
```

#### Data or dead code:

```
# Dead code (unreachable instructions):
     0x03A5 [0x01] GOTO 0x03C9
```

### Event 10128

#### Metadata

| Field        | Value     |
|--------------|-----------|
| Entrypoint   | 0x03CE    |
| Data Size    | 789 bytes |
| Instructions | 66        |

```
      00 01 02 03 04 05 06 07  08 09 0A 0B 0C 0D 0E 0F
      -- -- -- -- -- -- -- --  -- -- -- -- -- -- -- --
03C0:                                            03 01                ..
03D0: 10 00 80 03 00 00 02 10  03 02 00 03 10 4A F0 FF  .............J..
03E0: FF 7F E3 50 0F 01 4A E3  50 0F 01 F0 FF FF 7F 6F  ...P..J.P......o
03F0: 76 E3 50 0F 01 41 01 80  02 80 00 00 01 00 02 01  v.P..A..........
0400: 00 0F 80 00 09 04 01 92  04 9D 0A E3 0A 02 10 02  ................
0410: 00 04 80 2B E3 50 0F 01  05 80 1C 06 80 23 66 11  ...+.P.......#f.
0420: 80 E3 50 0F 01 E3 50 0F  01 74 6C 6B 30 02 01 00  ..P...P..tlk0...
0430: 01 80 00 48 04 2B E3 50  0F 01 2D 80 23 2B E3 50  ...H.+.P..-.#+.P
0440: 0F 01 2E 80 23 01 60 04  2B E3 50 0F 01 2F 80 23  ....#.`.+.P../.#
0450: 2B E3 50 0F 01 30 80 23  2B E3 50 0F 01 31 80 23  +.P..0.#+.P..1.#
0460: 2B E3 50 0F 01 32 80 23  66 11 80 E3 50 0F 01 E3  +.P..2.#f...P...
0470: 50 0F 01 74 6C 6B 31 1C  06 80 24 33 80 00 80 00  P..tlk1...$3....
0480: 80 25 02 00 10 00 80 00  09 05 2B E3 50 0F 01 34  .%........+.P..4
0490: 80 23 66 11 80 E3 50 0F  01 E3 50 0F 01 74 6C 6B  .#f...P...P..tlk
04A0: 30 2B E3 50 0F 01 35 80  23 03 03 10 36 80 2B E3  0+.P..5.#...6.+.
04B0: 50 0F 01 37 80 23 2B E3  50 0F 01 38 80 23 2B E3  P..7.#+.P..8.#+.
04C0: 50 0F 01 39 80 23 2B E3  50 0F 01 3A 80 23 2B E3  P..9.#+.P..:.#+.
04D0: 50 0F 01 3B 80 23 2B E3  50 0F 01 3C 80 23 02 01  P..;.#+.P..<.#..
04E0: 00 0F 80 01 EC 04 42 03  01 10 03 80 2B E3 50 0F  ......B.....+.P.
04F0: 01 3D 80 23 66 11 80 E3  50 0F 01 E3 50 0F 01 74  .=.#f...P...P..t
0500: 6C 6B 31 1C 06 80 01 1C  05 02 00 10 03 80 00 1C  lk1.............
0510: 05 2B E3 50 0F 01 3E 80  23 01 1C 05 21 00 66 11  .+.P..>.#...!.f.
0520: 80 E3 50 0F 01 E3 50 0F  01 74 6C 6B 30 2B E3 50  ..P...P..tlk0+.P
0530: 0F 01 3F 80 23 2B E3 50  0F 01 40 80 23 2B E3 50  ..?.#+.P..@.#+.P
0540: 0F 01 41 80 23 2B E3 50  0F 01 42 80 23 2B E3 50  ..A.#+.P..B.#+.P
0550: 0F 01 43 80 23 2B E3 50  0F 01 44 80 23 2B E3 50  ..C.#+.P..D.#+.P
0560: 0F 01 45 80 23 2B E3 50  0F 01 46 80 23 2B E3 50  ..E.#+.P..F.#+.P
0570: 0F 01 47 80 23 83 06 00  AA 06 00 06 00 06 00 06  ..G.#...........
0580: 00 05 00 06 00 06 00 06  00 9D 0A 03 0B 03 10 05  ................
0590: 00 48 80 2B E3 50 0F 01  49 80 23 7B E3 50 0F 01  .H.+.P..I.#{.P..
05A0: 66 11 80 E3 50 0F 01 E3  50 0F 01 74 68 6B 31 03  f...P...P..thk1.
05B0: 08 10 05 00 2B E3 50 0F  01 4A 80 1C 1D 80 23 79  ....+.P..J....#y
05C0: 00 E3 50 0F 01 F0 FF FF  7F 66 11 80 E3 50 0F 01  ..P......f...P..
05D0: E3 50 0F 01 74 6C 6B 30  03 01 10 4B 80 43 00 43  .P..tlk0...K.C.C
05E0: 01 03 05 10 05 00 2B E3  50 0F 01 4C 80 23 03 01  ......+.P..L.#..
05F0: 10 05 00 43 00 43 01 2B  E3 50 0F 01 4D 80 23 02  ...C.C.+.P..M.#.
0600: 06 10 4E 80 03 12 06 2B  E3 50 0F 01 4F 80 23 01  ..N....+.P..O.#.
0610: 1A 06 2B E3 50 0F 01 50  80 23 2B E3 50 0F 01 51  ..+.P..P.#+.P..Q
0620: 80 23 1B 2B E3 50 0F 01  52 80 23 9D 0A 03 0B 02  .#.+.P..R.#.....
0630: 10 00 80 48 80 9D 0A 03  0B 03 10 03 80 48 80 9D  ...H.........H..
0640: 0A 03 0B 04 10 19 80 48  80 9D 0A 03 0B 05 10 01  .......H........
0650: 80 48 80 9D 0A 03 0B 06  10 0F 80 48 80 9D 0A 03  .H.........H....
0660: 0B 07 10 02 80 48 80 9D  0A 03 0B 08 10 04 80 48  .....H.........H
0670: 80 9D 0A 03 0B 09 10 24  80 48 80 24 53 80 00 80  .......$.H.$S...
0680: 00 80 25 02 00 10 48 80  00 9F 06 02 01 00 19 80  ..%...H.........
0690: 00 94 06 42 2B E3 50 0F  01 54 80 23 01 E2 06 02  ...B+.P..T.#....
06A0: 01 00 19 80 00 A8 06 42  2B E3 50 0F 01 55 80 23  .......B+.P..U.#
06B0: 03 01 10 00 10 43 00 43  01 9D 0A 03 0B 08 10 00  .....C.C........
06C0: 10 48 80 6E E3 50 0F 01  56 80 99 E3 50 0F 01 1C  .H.n.P..V...P...
06D0: 57 80 2B E3 50 0F 01 58  80 23 2B E3 50 0F 01 59  W.+.P..X.#+.P..Y
06E0: 80 23 1B                                          .#.             
```

#### Opcodes

```
  0: 0x03CE [0x03] Work_Zone[1] = 0*
  1: 0x03D3 [0x03] ExtData[1]->WorkLocal[0] = Work_Zone[2]
  2: 0x03D8 [0x03] ExtData[1]->WorkLocal[2] = Work_Zone[3]
  3: 0x03DD [0x4A] LocalPlayer looks at Boisterous Jackal (ID: 17780963/0x010F50E3)
  4: 0x03E6 [0x4A] Boisterous Jackal (ID: 17780963/0x010F50E3) looks at LocalPlayer
  5: 0x03EF [0x6F] WAIT_FRAME_DELAY: Yield until WaitTime reaches zero
  6: 0x03F0 [0x76] CHECK_ENTITY_RENDER_FLAGS: Wait until Boisterous Jackal (ID: 17780963/0x010F50E3) Render.Flags0 and Render.Flags3 conditions are met
  7: 0x03F5 [0x41] ExtData[1]->WorkLocal[1] = ExtData[1]->WorkLocal[0] (bits 3*-5*)
  8: 0x03FE [0x02] IF !(ExtData[1]->WorkLocal[1] == 4*) GOTO 0x0409
  9: 0x0406 [0x01] GOTO 0x0492
 10: 0x0409 [0x9D] IF (0x0AE3) ExtData[1]->WorkLocal[2] = Work_Zone[2] // extra=0x8004
 11: 0x0413 [0x2B] Boisterous Jackal (ID: 17780963/0x010F50E3) [10454*]:
    → "What do you want? Oh, I see you've got your eyes on my $0."
 12: 0x041A [0x1C] WAIT(60* ticks)
 13: 0x041D [0x23] WAIT_FOR_DIALOG_INTERACTION
 14: 0x041E [0x66] LOAD_EXT_SCHEDULER_MAIN: Load scheduler "tlk0" with entities [Boisterous Jackal (ID: 17780963/0x010F50E3), Boisterous Jackal (ID: 17780963/0x010F50E3)], work=69*
 15: 0x042D [0x02] IF !(ExtData[1]->WorkLocal[1] == 3*) GOTO 0x0448
 16: 0x0435 [0x2B] Boisterous Jackal (ID: 17780963/0x010F50E3) [10505*]:
    → "Oh... You're the one I recently told how to obtain the password."
 17: 0x043C [0x23] WAIT_FOR_DIALOG_INTERACTION
 18: 0x043D [0x2B] Boisterous Jackal (ID: 17780963/0x010F50E3) [10506*]:
    → "It seems you were able to receive the necessary access privileges for the device."
 19: 0x0444 [0x23] WAIT_FOR_DIALOG_INTERACTION
 20: 0x0445 [0x01] GOTO 0x0460
 21: 0x0448 [0x2B] Boisterous Jackal (ID: 17780963/0x010F50E3) [10507*]:
    → "It seems like we have quite a bit in common."
 22: 0x044F [0x23] WAIT_FOR_DIALOG_INTERACTION
 23: 0x0450 [0x2B] Boisterous Jackal (ID: 17780963/0x010F50E3) [10508*]:
    → "There's no use trying to hide it. I could tell by the way you were looking at my $0."
 24: 0x0457 [0x23] WAIT_FOR_DIALOG_INTERACTION
 25: 0x0458 [0x2B] Boisterous Jackal (ID: 17780963/0x010F50E3) [10509*]:
    → "You managed to receive the necessary access privileges with the Strange Apparatus. Am I right?"
 26: 0x045F [0x23] WAIT_FOR_DIALOG_INTERACTION

SUBROUTINE_0460:
 27: 0x0460 [0x2B] Boisterous Jackal (ID: 17780963/0x010F50E3) [10510*]:
    → "If so, I've got some interesting news for you. Care to hear it?"
 28: 0x0467 [0x23] WAIT_FOR_DIALOG_INTERACTION
 29: 0x0468 [0x66] LOAD_EXT_SCHEDULER_MAIN: Load scheduler "tlk1" with entities [Boisterous Jackal (ID: 17780963/0x010F50E3), Boisterous Jackal (ID: 17780963/0x010F50E3)], work=69*
 30: 0x0477 [0x1C] WAIT(60* ticks)
 31: 0x047A [0x24] CREATE_DIALOG(message_id=10511*, default_option=0*, option_flags=0*)
    → "Do you want to hear the info? [Sure./No thanks.]"
 32: 0x0481 [0x25] WAIT_DIALOG_SELECT()
 33: 0x0482 [0x02] IF !(Work_Zone[0] == 0*) GOTO 0x0509
 34: 0x048A [0x2B] Boisterous Jackal (ID: 17780963/0x010F50E3) [10513*]:
    → "Hehe... I thought you might want to hear this."
 35: 0x0491 [0x23] WAIT_FOR_DIALOG_INTERACTION

SUBROUTINE_0492:
 36: 0x0492 [0x66] LOAD_EXT_SCHEDULER_MAIN: Load scheduler "tlk0" with entities [Boisterous Jackal (ID: 17780963/0x010F50E3), Boisterous Jackal (ID: 17780963/0x010F50E3)], work=69*
 37: 0x04A1 [0x2B] Boisterous Jackal (ID: 17780963/0x010F50E3) [10514*]:
    → "You've been granted access privileges, so I'm sure you already know this, but there are other Strange Apparatuses that haven't been activated yet."
 38: 0x04A8 [0x23] WAIT_FOR_DIALOG_INTERACTION
 39: 0x04A9 [0x03] Work_Zone[3] = 204*
 40: 0x04AE [0x2B] Boisterous Jackal (ID: 17780963/0x010F50E3) [10515*]:
    → "Apparently, the device in $8 just became operational recently."
 41: 0x04B5 [0x23] WAIT_FOR_DIALOG_INTERACTION
 42: 0x04B6 [0x2B] Boisterous Jackal (ID: 17780963/0x010F50E3) [10516*]:
    → "Upon hearing the rumors, I went to check it out for myself..."
 43: 0x04BD [0x23] WAIT_FOR_DIALOG_INTERACTION
 44: 0x04BE [0x2B] Boisterous Jackal (ID: 17780963/0x010F50E3) [10517*]:
    → "However, it asked me for a new password."
 45: 0x04C5 [0x23] WAIT_FOR_DIALOG_INTERACTION
 46: 0x04C6 [0x2B] Boisterous Jackal (ID: 17780963/0x010F50E3) [10518*]:
    → "I suppose it's requiring us to register for access privileges granted to those a rank above doctor status..."
 47: 0x04CD [0x23] WAIT_FOR_DIALOG_INTERACTION
 48: 0x04CE [0x2B] Boisterous Jackal (ID: 17780963/0x010F50E3) [10519*]:
    → "I'm assuming that the values for the name are the same, and only the elemental value has changed, but I still haven't figured it out yet."
 49: 0x04D5 [0x23] WAIT_FOR_DIALOG_INTERACTION
 50: 0x04D6 [0x2B] Boisterous Jackal (ID: 17780963/0x010F50E3) [10520*]:
    → "If you manage to figure it out before I do, maybe you could give me a hint on how to crack the password."
 51: 0x04DD [0x23] WAIT_FOR_DIALOG_INTERACTION
 52: 0x04DE [0x02] IF !(ExtData[1]->WorkLocal[1] == 4*) GOTO 0x04EC
 53: 0x04E6 [0x42] SET_CLI_EVENT_CANCEL_DATA()
 54: 0x04E7 [0x03] Work_Zone[1] = 1*
 55: 0x04EC [0x2B] Boisterous Jackal (ID: 17780963/0x010F50E3) [10521*]:
    → "I'm sure it'll be fairly difficult, but I'd appreciate the help."
 56: 0x04F3 [0x23] WAIT_FOR_DIALOG_INTERACTION
 57: 0x04F4 [0x66] LOAD_EXT_SCHEDULER_MAIN: Load scheduler "tlk1" with entities [Boisterous Jackal (ID: 17780963/0x010F50E3), Boisterous Jackal (ID: 17780963/0x010F50E3)], work=69*
 58: 0x0503 [0x1C] WAIT(60* ticks)
 59: 0x0506 [0x01] GOTO 0x051C
 60: 0x0509 [0x02] IF !(Work_Zone[0] == 1*) GOTO 0x051C
 61: 0x0511 [0x2B] Boisterous Jackal (ID: 17780963/0x010F50E3) [10512*]:
    → "I see... In that case, farewell."
 62: 0x0518 [0x23] WAIT_FOR_DIALOG_INTERACTION
 63: 0x0519 [0x01] GOTO 0x051C

SUBROUTINE_051C:
 64: 0x051C [0x21] END_EVENT
 65: 0x051D [0x00] END_REQSTACK()
```

#### Data or dead code:

```
# Dead code (unreachable instructions):
     0x051E [0x66] LOAD_EXT_SCHEDULER_MAIN: Load scheduler "tlk0" with entities [Boisterous Jackal (ID: 17780963/0x010F50E3), Boisterous Jackal (ID: 17780963/0x010F50E3)], work=69*
     0x052D [0x2B] Boisterous Jackal (ID: 17780963/0x010F50E3) [10476*]:
    → "Okay, now listen carefully. The password consists of eight numbers in total, and you need to split it up into four sections of two digits each."
     0x0534 [0x23] WAIT_FOR_DIALOG_INTERACTION
     0x0535 [0x2B] Boisterous Jackal (ID: 17780963/0x010F50E3) [10477*]:
    → "First, you need to take the first three letters of your name and use them to generate a series of two-digit numbers based on their position in the alphabet."
     0x053C [0x23] WAIT_FOR_DIALOG_INTERACTION
     0x053D [0x2B] Boisterous Jackal (ID: 17780963/0x010F50E3) [10478*]:
    → "The letter A starts at "00," B is "01," and so on, until you reach Z at "25.""
     0x0544 [0x23] WAIT_FOR_DIALOG_INTERACTION
     0x0545 [0x2B] Boisterous Jackal (ID: 17780963/0x010F50E3) [10479*]:
    → "Furthermore, the area containing each device has been assigned an elemental, with each elemental given a numerical code."
     0x054C [0x23] WAIT_FOR_DIALOG_INTERACTION
     0x054D [0x2B] Boisterous Jackal (ID: 17780963/0x010F50E3) [10480*]:
    → "If the elemental is Fire, the number is "0,", while Earth is "1," until you reach Dark at "7.""
     0x0554 [0x23] WAIT_FOR_DIALOG_INTERACTION
     0x0555 [0x2B] Boisterous Jackal (ID: 17780963/0x010F50E3) [10481*]:
    → "Next, you need to take the value for the elemental and add it to each of your first three numbers. That will give you the first three values."
     0x055C [0x23] WAIT_FOR_DIALOG_INTERACTION
     0x055D [0x2B] Boisterous Jackal (ID: 17780963/0x010F50E3) [10482*]:
    → "For the fourth value, you need to add your first three values together and then add the elemental value as well."
     0x0564 [0x23] WAIT_FOR_DIALOG_INTERACTION
     0x0565 [0x2B] Boisterous Jackal (ID: 17780963/0x010F50E3) [10483*]:
    → "If the number exceeds 100, simply take the last two digits."
     0x056C [0x23] WAIT_FOR_DIALOG_INTERACTION
     0x056D [0x2B] Boisterous Jackal (ID: 17780963/0x010F50E3) [10484*]:
    → "Therefore, these four sets of numbers you calculated will become your eight-digit password."
     0x0574 [0x23] WAIT_FOR_DIALOG_INTERACTION
     0x0575 [0x83] ExtData[1]->WorkLocal[6] = GetGameTime()
     0x0578 [0xAA] VANA_DIEL_TIMESTAMP_CONVERTER(timestamp=ExtData[1]->WorkLocal[6], year=ExtData[1]->WorkLocal[6], month=ExtData[1]->WorkLocal[6], day=ExtData[1]->WorkLocal[6], weekday=ExtData[1]->WorkLocal[5], hour=ExtData[1]->WorkLocal[6], minute=ExtData[1]->WorkLocal[6], moon=ExtData[1]->WorkLocal[6])
     0x0589 [0x9D] IF (0x0B03) ExtData[1]->WorkLocal[5] = Work_Zone[3] // extra=0x8048
     0x0593 [0x2B] Boisterous Jackal (ID: 17780963/0x010F50E3) [10485*]:
    → "I suppose it's still a bit difficult to comprehend. How about an example, then? Say you're trying to register the password in $8..."
     0x059A [0x23] WAIT_FOR_DIALOG_INTERACTION
     0x059B [0x7B] Boisterous Jackal (ID: 17780963/0x010F50E3) stops talking
     0x05A0 [0x66] LOAD_EXT_SCHEDULER_MAIN: Load scheduler "thk1" with entities [Boisterous Jackal (ID: 17780963/0x010F50E3), Boisterous Jackal (ID: 17780963/0x010F50E3)], work=69*
     0x05AF [0x03] Work_Zone[8] = ExtData[1]->WorkLocal[5]
     0x05B4 [0x2B] Boisterous Jackal (ID: 17780963/0x010F50E3) [10486*]:
    → "The first three letters of your name are %0, and the elemental for the device is [Fire/Earth/Water/Wind/Ice/Lightning/Light/Dark]..."
     0x05BB [0x1C] WAIT(120* ticks)
     0x05BE [0x23] WAIT_FOR_DIALOG_INTERACTION
     0x05BF [0x79] Boisterous Jackal (ID: 17780963/0x010F50E3) looks at LocalPlayer (Basic look)
     0x05C9 [0x66] LOAD_EXT_SCHEDULER_MAIN: Load scheduler "tlk0" with entities [Boisterous Jackal (ID: 17780963/0x010F50E3), Boisterous Jackal (ID: 17780963/0x010F50E3)], work=69*
     0x05D8 [0x03] Work_Zone[1] = 10*
     0x05DD [0x43] SEND_EVENT_UPDATE: Send pending tag to server (packet 0x005B)
     0x05DF [0x43] SEND_EVENT_UPDATE: Check pending flag (skip if not pending)
     0x05E1 [0x03] Work_Zone[5] = ExtData[1]->WorkLocal[5]
     0x05E6 [0x2B] Boisterous Jackal (ID: 17780963/0x010F50E3) [10487*]:
    → "Therefore, the numerical values for your name are , , and , and the elemental value is $3."
     0x05ED [0x23] WAIT_FOR_DIALOG_INTERACTION
     0x05EE [0x03] Work_Zone[1] = ExtData[1]->WorkLocal[5]
     0x05F3 [0x43] SEND_EVENT_UPDATE: Send pending tag to server (packet 0x005B)
     0x05F5 [0x43] SEND_EVENT_UPDATE: Check pending flag (skip if not pending)
     0x05F7 [0x2B] Boisterous Jackal (ID: 17780963/0x010F50E3) [10488*]:
    → "That means the first three values are , , and ."
     0x05FE [0x23] WAIT_FOR_DIALOG_INTERACTION
     0x05FF [0x02] IF !(Work_Zone[6] >= 100*) GOTO 0x0612
     0x0607 [0x2B] Boisterous Jackal (ID: 17780963/0x010F50E3) [10489*]:
    → "The fourth value is created by adding the values for your name to that of the elemental for the area, which gives you ."
     0x060E [0x23] WAIT_FOR_DIALOG_INTERACTION
     0x060F [0x01] GOTO 0x061A
     0x0612 [0x2B] Boisterous Jackal (ID: 17780963/0x010F50E3) [10490*]:
    → "The fourth value is created by adding the values for your name to that of the elemental for the area, which gives you . However, since it exceeds 100, the value becomes ."
     0x0619 [0x23] WAIT_FOR_DIALOG_INTERACTION
     0x061A [0x2B] Boisterous Jackal (ID: 17780963/0x010F50E3) [10491*]:
    → "Putting all of these values together gives you , which is your password to register your access privileges with the device."
     0x0621 [0x23] WAIT_FOR_DIALOG_INTERACTION
     0x0622 [0x1B] RETURN
     0x0623 [0x2B] Boisterous Jackal (ID: 17780963/0x010F50E3) [10497*]:
    → "Tell me. Which area are you planning to register in?"
     0x062A [0x23] WAIT_FOR_DIALOG_INTERACTION
     0x062B [0x9D] IF (0x0B03) 0* = Work_Zone[2] // extra=0x8048
     0x0635 [0x9D] IF (0x0B03) 1* = Work_Zone[3] // extra=0x8048
     0x063F [0x9D] IF (0x0B03) 2* = Work_Zone[4] // extra=0x8048
     0x0649 [0x9D] IF (0x0B03) 3* = Work_Zone[5] // extra=0x8048
     0x0653 [0x9D] IF (0x0B03) 4* = Work_Zone[6] // extra=0x8048
     0x065D [0x9D] IF (0x0B03) 5* = Work_Zone[7] // extra=0x8048
     0x0667 [0x9D] IF (0x0B03) 6* = Work_Zone[8] // extra=0x8048
     0x0671 [0x9D] IF (0x0B03) 7* = Work_Zone[9] // extra=0x8048
     0x067B [0x24] CREATE_DIALOG(message_id=10498*, default_option=0*, option_flags=0*)
    → "Where are you planning to register? [$8./$8./$8./$8./$8./$8./$8./$8./Never mind.]"
     0x0682 [0x25] WAIT_DIALOG_SELECT()
     0x0683 [0x02] IF !(Work_Zone[0] == 8*) GOTO 0x069F
     0x068B [0x02] IF !(ExtData[1]->WorkLocal[1] == 2*) GOTO 0x0694
     0x0693 [0x42] SET_CLI_EVENT_CANCEL_DATA()
     0x0694 [0x2B] Boisterous Jackal (ID: 17780963/0x010F50E3) [10502*]:
    → "Very well. Come see me again when you decide on a location."
     0x069B [0x23] WAIT_FOR_DIALOG_INTERACTION
     0x069C [0x01] GOTO 0x06E2
     0x069F [0x02] IF !(ExtData[1]->WorkLocal[1] == 2*) GOTO 0x06A8
     0x06A7 [0x42] SET_CLI_EVENT_CANCEL_DATA()
     0x06A8 [0x2B] Boisterous Jackal (ID: 17780963/0x010F50E3) [10499*]:
    → "Give me a moment while I make the necessary calculations."
     0x06AF [0x23] WAIT_FOR_DIALOG_INTERACTION
     0x06B0 [0x03] Work_Zone[1] = Work_Zone[0]
     0x06B5 [0x43] SEND_EVENT_UPDATE: Send pending tag to server (packet 0x005B)
     0x06B7 [0x43] SEND_EVENT_UPDATE: Check pending flag (skip if not pending)
     0x06B9 [0x9D] IF (0x0B03) Work_Zone[0] = Work_Zone[8] // extra=0x8048
     0x06C3 [0x6E] Boisterous Jackal (ID: 17780963/0x010F50E3) uses emote 32*
     0x06CA [0x99] Wait for Boisterous Jackal (ID: 17780963/0x010F50E3) animation to complete
     0x06CF [0x1C] WAIT(180* ticks)
     0x06D2 [0x2B] Boisterous Jackal (ID: 17780963/0x010F50E3) [10500*]:
    → "Okay, I've got it. Your password for registering your access privileges with the device in $8 is ."
     0x06D9 [0x23] WAIT_FOR_DIALOG_INTERACTION
     0x06DA [0x2B] Boisterous Jackal (ID: 17780963/0x010F50E3) [10501*]:
    → "Now hurry up and get over there before you forget it."
     0x06E1 [0x23] WAIT_FOR_DIALOG_INTERACTION
     0x06E2 [0x1B] RETURN
```

### Event 10132

#### Metadata

| Field        | Value     |
|--------------|-----------|
| Entrypoint   | 0x06E3    |
| Data Size    | 282 bytes |
| Instructions | 47        |

```
      00 01 02 03 04 05 06 07  08 09 0A 0B 0C 0D 0E 0F
      -- -- -- -- -- -- -- --  -- -- -- -- -- -- -- --
06E0:          03 01 10 00 80  03 00 00 02 10 4A F0 FF     ..........J..
06F0: FF 7F E3 50 0F 01 4A E3  50 0F 01 F0 FF FF 7F 6F  ...P..J.P......o
0700: 76 E3 50 0F 01 2B E3 50  0F 01 5A 80 23 66 11 80  v.P..+.P..Z.#f..
0710: E3 50 0F 01 E3 50 0F 01  74 6C 6B 30 03 03 10 36  .P...P..tlk0...6
0720: 80 2B E3 50 0F 01 5B 80  23 2B E3 50 0F 01 5C 80  .+.P..[.#+.P..\.
0730: 23 66 11 80 E3 50 0F 01  E3 50 0F 01 74 6C 6B 31  #f...P...P..tlk1
0740: 24 5D 80 00 80 00 80 25  02 00 10 00 80 00 E8 07  $].....%........
0750: 53 E3 50 0F 01 E3 50 0F  01 74 6C 6B 31 6E E3 50  S.P...P..tlk1n.P
0760: 0F 01 04 80 99 E3 50 0F  01 2B E3 50 0F 01 5E 80  ......P..+.P..^.
0770: 1C 1D 80 23 66 11 80 E3  50 0F 01 E3 50 0F 01 74  ...#f...P...P..t
0780: 6C 6B 30 2B E3 50 0F 01  5F 80 23 2B E3 50 0F 01  lk0+.P.._.#+.P..
0790: 60 80 23 7B E3 50 0F 01  66 11 80 E3 50 0F 01 E3  `.#{.P..f...P...
07A0: 50 0F 01 74 68 6B 31 2B  E3 50 0F 01 61 80 23 53  P..thk1+.P..a.#S
07B0: E3 50 0F 01 E3 50 0F 01  74 68 6B 31 66 11 80 E3  .P...P..thk1f...
07C0: 50 0F 01 E3 50 0F 01 74  68 6B 32 79 00 E3 50 0F  P...P..thk2y..P.
07D0: 01 F0 FF FF 7F 2B E3 50  0F 01 62 80 23 1A E9 09  .....+.P..b.#...
07E0: 03 01 10 03 80 01 FB 07  02 00 10 03 80 00 FB 07  ................
07F0: 2B E3 50 0F 01 63 80 23  01 FB 07 21 00           +.P..c.#...!.   
```

#### Opcodes

```
  0: 0x06E3 [0x03] Work_Zone[1] = 0*
  1: 0x06E8 [0x03] ExtData[1]->WorkLocal[0] = Work_Zone[2]
  2: 0x06ED [0x4A] LocalPlayer looks at Boisterous Jackal (ID: 17780963/0x010F50E3)
  3: 0x06F6 [0x4A] Boisterous Jackal (ID: 17780963/0x010F50E3) looks at LocalPlayer
  4: 0x06FF [0x6F] WAIT_FRAME_DELAY: Yield until WaitTime reaches zero
  5: 0x0700 [0x76] CHECK_ENTITY_RENDER_FLAGS: Wait until Boisterous Jackal (ID: 17780963/0x010F50E3) Render.Flags0 and Render.Flags3 conditions are met
  6: 0x0705 [0x2B] Boisterous Jackal (ID: 17780963/0x010F50E3) [10534*]:
    → "You came at the perfect time."
  7: 0x070C [0x23] WAIT_FOR_DIALOG_INTERACTION
  8: 0x070D [0x66] LOAD_EXT_SCHEDULER_MAIN: Load scheduler "tlk0" with entities [Boisterous Jackal (ID: 17780963/0x010F50E3), Boisterous Jackal (ID: 17780963/0x010F50E3)], work=69*
  9: 0x071C [0x03] Work_Zone[3] = 204*
 10: 0x0721 [0x2B] Boisterous Jackal (ID: 17780963/0x010F50E3) [10535*]:
    → "We've decoded the password to the strange device in $8."
 11: 0x0728 [0x23] WAIT_FOR_DIALOG_INTERACTION
 12: 0x0729 [0x2B] Boisterous Jackal (ID: 17780963/0x010F50E3) [10536*]:
    → "As prediced, all they did was change the values of the elements, leaving the first three letters the same."
 13: 0x0730 [0x23] WAIT_FOR_DIALOG_INTERACTION
 14: 0x0731 [0x66] LOAD_EXT_SCHEDULER_MAIN: Load scheduler "tlk1" with entities [Boisterous Jackal (ID: 17780963/0x010F50E3), Boisterous Jackal (ID: 17780963/0x010F50E3)], work=69*
 15: 0x0740 [0x24] CREATE_DIALOG(message_id=10537*, default_option=0*, option_flags=0*)
    → "How do you respond? [Tell me the values./I'll figure it out myself.]"
 16: 0x0747 [0x25] WAIT_DIALOG_SELECT()
 17: 0x0748 [0x02] IF !(Work_Zone[0] == 0*) GOTO 0x07E8
 18: 0x0750 [0x53] WAIT_SCHEDULER_TASK: Wait for scheduler "tlk1" with entities [Boisterous Jackal (ID: 17780963/0x010F50E3), Boisterous Jackal (ID: 17780963/0x010F50E3)]
 19: 0x075D [0x6E] Boisterous Jackal (ID: 17780963/0x010F50E3) uses emote 6*
 20: 0x0764 [0x99] Wait for Boisterous Jackal (ID: 17780963/0x010F50E3) animation to complete
 21: 0x0769 [0x2B] Boisterous Jackal (ID: 17780963/0x010F50E3) [10539*]:
    → "That takes the funn out of it, but hey, if that's what you want..."
 22: 0x0770 [0x1C] WAIT(120* ticks)
 23: 0x0773 [0x23] WAIT_FOR_DIALOG_INTERACTION
 24: 0x0774 [0x66] LOAD_EXT_SCHEDULER_MAIN: Load scheduler "tlk0" with entities [Boisterous Jackal (ID: 17780963/0x010F50E3), Boisterous Jackal (ID: 17780963/0x010F50E3)], work=69*
 25: 0x0783 [0x2B] Boisterous Jackal (ID: 17780963/0x010F50E3) [10540*]:
    → "Trial and error has revealed that the correct numer is 23."
 26: 0x078A [0x23] WAIT_FOR_DIALOG_INTERACTION
 27: 0x078B [0x2B] Boisterous Jackal (ID: 17780963/0x010F50E3) [10541*]:
    → "I think it must represent a letter of some sort."
 28: 0x0792 [0x23] WAIT_FOR_DIALOG_INTERACTION
 29: 0x0793 [0x7B] Boisterous Jackal (ID: 17780963/0x010F50E3) stops talking
 30: 0x0798 [0x66] LOAD_EXT_SCHEDULER_MAIN: Load scheduler "thk1" with entities [Boisterous Jackal (ID: 17780963/0x010F50E3), Boisterous Jackal (ID: 17780963/0x010F50E3)], work=69*
 31: 0x07A7 [0x2B] Boisterous Jackal (ID: 17780963/0x010F50E3) [10542*]:
    → "IF 00 is A, annd 01 is B, then 23 would be X, but I wonder..."
 32: 0x07AE [0x23] WAIT_FOR_DIALOG_INTERACTION
 33: 0x07AF [0x53] WAIT_SCHEDULER_TASK: Wait for scheduler "thk1" with entities [Boisterous Jackal (ID: 17780963/0x010F50E3), Boisterous Jackal (ID: 17780963/0x010F50E3)]
 34: 0x07BC [0x66] LOAD_EXT_SCHEDULER_MAIN: Load scheduler "thk2" with entities [Boisterous Jackal (ID: 17780963/0x010F50E3), Boisterous Jackal (ID: 17780963/0x010F50E3)], work=69*
 35: 0x07CB [0x79] Boisterous Jackal (ID: 17780963/0x010F50E3) looks at LocalPlayer (Basic look)
 36: 0x07D5 [0x2B] Boisterous Jackal (ID: 17780963/0x010F50E3) [10543*]:
    → "Well, whatever. Some mysteries remain, but I'm sure you've got it."
 37: 0x07DC [0x23] WAIT_FOR_DIALOG_INTERACTION
 38: 0x07DD [0x1A] CALL_SUBROUTINE(address=0x09E9)
 39: 0x07E0 [0x03] Work_Zone[1] = 1*
 40: 0x07E5 [0x01] GOTO 0x07FB
 41: 0x07E8 [0x02] IF !(Work_Zone[0] == 1*) GOTO 0x07FB
 42: 0x07F0 [0x2B] Boisterous Jackal (ID: 17780963/0x010F50E3) [10538*]:
    → "Well, good luck with that then."
 43: 0x07F7 [0x23] WAIT_FOR_DIALOG_INTERACTION
 44: 0x07F8 [0x01] GOTO 0x07FB

SUBROUTINE_07FB:
 45: 0x07FB [0x21] END_EVENT
 46: 0x07FC [0x00] END_REQSTACK()
```

### Event 10133

#### Metadata

| Field        | Value    |
|--------------|----------|
| Entrypoint   | 0x07FD   |
| Data Size    | 98 bytes |
| Instructions | 18       |

```
      00 01 02 03 04 05 06 07  08 09 0A 0B 0C 0D 0E 0F
      -- -- -- -- -- -- -- --  -- -- -- -- -- -- -- --
07F0:                                         03 01 10               ...
0800: 00 80 03 00 00 02 10 4A  F0 FF FF 7F E3 50 0F 01  .......J.....P..
0810: 4A E3 50 0F 01 F0 FF FF  7F 6F 76 E3 50 0F 01 2B  J.P......ov.P..+
0820: E3 50 0F 01 64 80 23 66  11 80 E3 50 0F 01 E3 50  .P..d.#f...P...P
0830: 0F 01 74 6C 6B 30 03 03  10 36 80 2B E3 50 0F 01  ..tlk0...6.+.P..
0840: 65 80 23 2B E3 50 0F 01  66 80 23 66 11 80 E3 50  e.#+.P..f.#f...P
0850: 0F 01 E3 50 0F 01 74 6C  6B 31 1A E9 09 21 00     ...P..tlk1...!. 
```

#### Opcodes

```
  0: 0x07FD [0x03] Work_Zone[1] = 0*
  1: 0x0802 [0x03] ExtData[1]->WorkLocal[0] = Work_Zone[2]
  2: 0x0807 [0x4A] LocalPlayer looks at Boisterous Jackal (ID: 17780963/0x010F50E3)
  3: 0x0810 [0x4A] Boisterous Jackal (ID: 17780963/0x010F50E3) looks at LocalPlayer
  4: 0x0819 [0x6F] WAIT_FRAME_DELAY: Yield until WaitTime reaches zero
  5: 0x081A [0x76] CHECK_ENTITY_RENDER_FLAGS: Wait until Boisterous Jackal (ID: 17780963/0x010F50E3) Render.Flags0 and Render.Flags3 conditions are met
  6: 0x081F [0x2B] Boisterous Jackal (ID: 17780963/0x010F50E3) [10555*]:
    → "Need something?"
  7: 0x0826 [0x23] WAIT_FOR_DIALOG_INTERACTION
  8: 0x0827 [0x66] LOAD_EXT_SCHEDULER_MAIN: Load scheduler "tlk0" with entities [Boisterous Jackal (ID: 17780963/0x010F50E3), Boisterous Jackal (ID: 17780963/0x010F50E3)], work=69*
  9: 0x0836 [0x03] Work_Zone[3] = 204*
 10: 0x083B [0x2B] Boisterous Jackal (ID: 17780963/0x010F50E3) [10556*]:
    → "I already told you about the password to the strange device in $8."
 11: 0x0842 [0x23] WAIT_FOR_DIALOG_INTERACTION
 12: 0x0843 [0x2B] Boisterous Jackal (ID: 17780963/0x010F50E3) [10557*]:
    → "The numbers of the first three letters of your name, then you add 23 to the sum of those for the fourth number."
 13: 0x084A [0x23] WAIT_FOR_DIALOG_INTERACTION
 14: 0x084B [0x66] LOAD_EXT_SCHEDULER_MAIN: Load scheduler "tlk1" with entities [Boisterous Jackal (ID: 17780963/0x010F50E3), Boisterous Jackal (ID: 17780963/0x010F50E3)], work=69*
 15: 0x085A [0x1A] CALL_SUBROUTINE(address=0x09E9)
 16: 0x085D [0x21] END_EVENT
 17: 0x085E [0x00] END_REQSTACK()
```

### Event 10129

#### Metadata

| Field        | Value     |
|--------------|-----------|
| Entrypoint   | 0x085F    |
| Data Size    | 692 bytes |
| Instructions | 60        |

```
      00 01 02 03 04 05 06 07  08 09 0A 0B 0C 0D 0E 0F
      -- -- -- -- -- -- -- --  -- -- -- -- -- -- -- --
0850:                                               03                 .
0860: 01 10 00 80 03 00 00 02  10 4A F0 FF FF 7F E3 50  .........J.....P
0870: 0F 01 4A E3 50 0F 01 F0  FF FF 7F 6F 76 E3 50 0F  ..J.P......ov.P.
0880: 01 41 01 80 02 80 00 00  01 00 02 01 00 02 80 00  .A..............
0890: F4 08 66 11 80 E3 50 0F  01 E3 50 0F 01 74 6C 6B  ..f...P...P..tlk
08A0: 30 03 03 10 36 80 2B E3  50 0F 01 67 80 23 2B E3  0...6.+.P..g.#+.
08B0: 50 0F 01 68 80 23 66 11  80 E3 50 0F 01 E3 50 0F  P..h.#f...P...P.
08C0: 01 74 6C 6B 31 53 E3 50  0F 01 E3 50 0F 01 74 6C  .tlk1S.P...P..tl
08D0: 6B 31 6E E3 50 0F 01 04  80 99 E3 50 0F 01 2B E3  k1n.P......P..+.
08E0: 50 0F 01 69 80 1C 1D 80  23 2B E3 50 0F 01 6A 80  P..i....#+.P..j.
08F0: 23 01 92 09 02 01 00 0F  80 00 42 09 66 11 80 E3  #.........B.f...
0900: 50 0F 01 E3 50 0F 01 74  6C 6B 30 2B E3 50 0F 01  P...P..tlk0+.P..
0910: 6B 80 23 2B E3 50 0F 01  6C 80 23 2B E3 50 0F 01  k.#+.P..l.#+.P..
0920: 6D 80 23 66 11 80 E3 50  0F 01 E3 50 0F 01 74 6C  m.#f...P...P..tl
0930: 6B 31 53 E3 50 0F 01 E3  50 0F 01 74 6C 6B 31 01  k1S.P...P..tlk1.
0940: 92 09 66 11 80 E3 50 0F  01 E3 50 0F 01 74 6C 6B  ..f...P...P..tlk
0950: 30 03 03 10 36 80 2B E3  50 0F 01 6E 80 23 2B E3  0...6.+.P..n.#+.
0960: 50 0F 01 6F 80 23 2B E3  50 0F 01 6D 80 23 2B E3  P..o.#+.P..m.#+.
0970: 50 0F 01 70 80 23 66 11  80 E3 50 0F 01 E3 50 0F  P..p.#f...P...P.
0980: 01 74 6C 6B 31 53 E3 50  0F 01 E3 50 0F 01 74 6C  .tlk1S.P...P..tl
0990: 6B 31 7B E3 50 0F 01 4B  E3 50 0F 01 71 80 6F 76  k1{.P..K.P..q.ov
09A0: E3 50 0F 01 1C 4B 80 66  11 80 E3 50 0F 01 E3 50  .P...K.f...P...P
09B0: 0F 01 74 68 6B 31 2B E3  50 0F 01 72 80 23 53 E3  ..thk1+.P..r.#S.
09C0: 50 0F 01 E3 50 0F 01 74  68 6B 31 66 11 80 E3 50  P...P..thk1f...P
09D0: 0F 01 E3 50 0F 01 74 68  6B 32 53 E3 50 0F 01 E3  ...P..thk2S.P...
09E0: 50 0F 01 74 68 6B 32 21  00 24 73 80 00 80 00 80  P..thk2!.$s.....
09F0: 25 02 00 10 00 80 00 BF  0A 6E E3 50 0F 01 74 80  %........n.P..t.
0A00: 99 E3 50 0F 01 2B E3 50  0F 01 75 80 1C 76 80 23  ..P..+.P..u..v.#
0A10: 66 11 80 E3 50 0F 01 E3  50 0F 01 74 6C 6B 30 2B  f...P...P..tlk0+
0A20: E3 50 0F 01 77 80 23 03  01 10 4B 80 43 00 43 01  .P..w.#...K.C.C.
0A30: 2B E3 50 0F 01 78 80 23  07 02 10 79 80 07 03 10  +.P..x.#...y....
0A40: 79 80 07 04 10 79 80 2B  E3 50 0F 01 7A 80 23 03  y....y.+.P..z.#.
0A50: 05 10 02 10 07 05 10 03  10 07 05 10 04 10 07 05  ................
0A60: 10 79 80 02 05 10 4E 80  03 76 0A 2B E3 50 0F 01  .y....N..v.+.P..
0A70: 7B 80 23 01 88 0A 03 06  10 05 10 08 05 10 4E 80  {.#...........N.
0A80: 2B E3 50 0F 01 7C 80 23  2B E3 50 0F 01 7D 80 23  +.P..|.#+.P..}.#
0A90: 2B E3 50 0F 01 7E 80 23  2B E3 50 0F 01 7F 80 23  +.P..~.#+.P....#
0AA0: 66 11 80 E3 50 0F 01 E3  50 0F 01 74 6C 6B 31 53  f...P...P..tlk1S
0AB0: E3 50 0F 01 E3 50 0F 01  74 6C 6B 31 01 D2 0A 02  .P...P..tlk1....
0AC0: 00 10 03 80 00 D2 0A 2B  E3 50 0F 01 80 80 23 01  .......+.P....#.
0AD0: D2 0A 1B 81 80 82 80 83  80 84 80 85 80 86 80 00  ................
0AE0: 80 00 80 87 80 88 80 89  80 8A 80 8B 80 8C 80 00  ................
0AF0: 80 00 80 8D 80 8E 80 8F  80 90 80 91 80 92 80 00  ................
0B00: 80 00 80 8D 80 8E 80 8F  80 93 80 90 80 91 80 92  ................
0B10: 80 94 80                                          ...             
```

#### Opcodes

```
  0: 0x085F [0x03] Work_Zone[1] = 0*
  1: 0x0864 [0x03] ExtData[1]->WorkLocal[0] = Work_Zone[2]
  2: 0x0869 [0x4A] LocalPlayer looks at Boisterous Jackal (ID: 17780963/0x010F50E3)
  3: 0x0872 [0x4A] Boisterous Jackal (ID: 17780963/0x010F50E3) looks at LocalPlayer
  4: 0x087B [0x6F] WAIT_FRAME_DELAY: Yield until WaitTime reaches zero
  5: 0x087C [0x76] CHECK_ENTITY_RENDER_FLAGS: Wait until Boisterous Jackal (ID: 17780963/0x010F50E3) Render.Flags0 and Render.Flags3 conditions are met
  6: 0x0881 [0x41] ExtData[1]->WorkLocal[1] = ExtData[1]->WorkLocal[0] (bits 3*-5*)
  7: 0x088A [0x02] IF !(ExtData[1]->WorkLocal[1] == 5*) GOTO 0x08F4
  8: 0x0892 [0x66] LOAD_EXT_SCHEDULER_MAIN: Load scheduler "tlk0" with entities [Boisterous Jackal (ID: 17780963/0x010F50E3), Boisterous Jackal (ID: 17780963/0x010F50E3)], work=69*
  9: 0x08A1 [0x03] Work_Zone[3] = 204*
 10: 0x08A6 [0x2B] Boisterous Jackal (ID: 17780963/0x010F50E3) [10558*]:
    → "Hey, it's you again, Good work with the strange device in $8."
 11: 0x08AD [0x23] WAIT_FOR_DIALOG_INTERACTION
 12: 0x08AE [0x2B] Boisterous Jackal (ID: 17780963/0x010F50E3) [10559*]:
    → "Did you figure out what it's made of?"
 13: 0x08B5 [0x23] WAIT_FOR_DIALOG_INTERACTION
 14: 0x08B6 [0x66] LOAD_EXT_SCHEDULER_MAIN: Load scheduler "tlk1" with entities [Boisterous Jackal (ID: 17780963/0x010F50E3), Boisterous Jackal (ID: 17780963/0x010F50E3)], work=69*
 15: 0x08C5 [0x53] WAIT_SCHEDULER_TASK: Wait for scheduler "tlk1" with entities [Boisterous Jackal (ID: 17780963/0x010F50E3), Boisterous Jackal (ID: 17780963/0x010F50E3)]
 16: 0x08D2 [0x6E] Boisterous Jackal (ID: 17780963/0x010F50E3) uses emote 6*
 17: 0x08D9 [0x99] Wait for Boisterous Jackal (ID: 17780963/0x010F50E3) animation to complete
 18: 0x08DE [0x2B] Boisterous Jackal (ID: 17780963/0x010F50E3) [10560*]:
    → "You know what? Never mind. I should figure it out for myself."
 19: 0x08E5 [0x1C] WAIT(120* ticks)
 20: 0x08E8 [0x23] WAIT_FOR_DIALOG_INTERACTION
 21: 0x08E9 [0x2B] Boisterous Jackal (ID: 17780963/0x010F50E3) [10561*]:
    → "it must have something to do with that magical number, 23."
 22: 0x08F0 [0x23] WAIT_FOR_DIALOG_INTERACTION
 23: 0x08F1 [0x01] GOTO 0x0992
 24: 0x08F4 [0x02] IF !(ExtData[1]->WorkLocal[1] == 4*) GOTO 0x0942
 25: 0x08FC [0x66] LOAD_EXT_SCHEDULER_MAIN: Load scheduler "tlk0" with entities [Boisterous Jackal (ID: 17780963/0x010F50E3), Boisterous Jackal (ID: 17780963/0x010F50E3)], work=69*
 26: 0x090B [0x2B] Boisterous Jackal (ID: 17780963/0x010F50E3) [10563*]:
    → "Hey, look who it is. Good work with the new password."
 27: 0x0912 [0x23] WAIT_FOR_DIALOG_INTERACTION
 28: 0x0913 [0x2B] Boisterous Jackal (ID: 17780963/0x010F50E3) [10564*]:
    → "I figured it out too, and now I'm curous as to the reason what the password was what it was."
 29: 0x091A [0x23] WAIT_FOR_DIALOG_INTERACTION
 30: 0x091B [0x2B] Boisterous Jackal (ID: 17780963/0x010F50E3) [10565*]:
    → "Maybe it'll help me figure out what the device is made of."
 31: 0x0922 [0x23] WAIT_FOR_DIALOG_INTERACTION
 32: 0x0923 [0x66] LOAD_EXT_SCHEDULER_MAIN: Load scheduler "tlk1" with entities [Boisterous Jackal (ID: 17780963/0x010F50E3), Boisterous Jackal (ID: 17780963/0x010F50E3)], work=69*
 33: 0x0932 [0x53] WAIT_SCHEDULER_TASK: Wait for scheduler "tlk1" with entities [Boisterous Jackal (ID: 17780963/0x010F50E3), Boisterous Jackal (ID: 17780963/0x010F50E3)]
 34: 0x093F [0x01] GOTO 0x0992
 35: 0x0942 [0x66] LOAD_EXT_SCHEDULER_MAIN: Load scheduler "tlk0" with entities [Boisterous Jackal (ID: 17780963/0x010F50E3), Boisterous Jackal (ID: 17780963/0x010F50E3)], work=69*
 36: 0x0951 [0x03] Work_Zone[3] = 204*
 37: 0x0956 [0x2B] Boisterous Jackal (ID: 17780963/0x010F50E3) [10566*]:
    → "Need anything? I'm researching the strange device in $8."
 38: 0x095D [0x23] WAIT_FOR_DIALOG_INTERACTION
 39: 0x095E [0x2B] Boisterous Jackal (ID: 17780963/0x010F50E3) [10567*]:
    → "I've figured out the "what" of the password, but not the "why.""
 40: 0x0965 [0x23] WAIT_FOR_DIALOG_INTERACTION
 41: 0x0966 [0x2B] Boisterous Jackal (ID: 17780963/0x010F50E3) [10565*]:
    → "Maybe it'll help me figure out what the device is made of."
 42: 0x096D [0x23] WAIT_FOR_DIALOG_INTERACTION
 43: 0x096E [0x2B] Boisterous Jackal (ID: 17780963/0x010F50E3) [10568*]:
    → "So I'm a bit too busy for a chat right now. Sorry."
 44: 0x0975 [0x23] WAIT_FOR_DIALOG_INTERACTION
 45: 0x0976 [0x66] LOAD_EXT_SCHEDULER_MAIN: Load scheduler "tlk1" with entities [Boisterous Jackal (ID: 17780963/0x010F50E3), Boisterous Jackal (ID: 17780963/0x010F50E3)], work=69*
 46: 0x0985 [0x53] WAIT_SCHEDULER_TASK: Wait for scheduler "tlk1" with entities [Boisterous Jackal (ID: 17780963/0x010F50E3), Boisterous Jackal (ID: 17780963/0x010F50E3)]

SUBROUTINE_0992:
 47: 0x0992 [0x7B] Boisterous Jackal (ID: 17780963/0x010F50E3) stops talking
 48: 0x0997 [0x4B] UPDATE_ENTITY_YAW(entity=Boisterous Jackal (ID: 17780963/0x010F50E3), yaw=2.1°*)
 49: 0x099E [0x6F] WAIT_FRAME_DELAY: Yield until WaitTime reaches zero
 50: 0x099F [0x76] CHECK_ENTITY_RENDER_FLAGS: Wait until Boisterous Jackal (ID: 17780963/0x010F50E3) Render.Flags0 and Render.Flags3 conditions are met
 51: 0x09A4 [0x1C] WAIT(10* ticks)
 52: 0x09A7 [0x66] LOAD_EXT_SCHEDULER_MAIN: Load scheduler "thk1" with entities [Boisterous Jackal (ID: 17780963/0x010F50E3), Boisterous Jackal (ID: 17780963/0x010F50E3)], work=69*
 53: 0x09B6 [0x2B] Boisterous Jackal (ID: 17780963/0x010F50E3) [10562*]:
    → "Now, what letter does 23 represent again...?"
 54: 0x09BD [0x23] WAIT_FOR_DIALOG_INTERACTION
 55: 0x09BE [0x53] WAIT_SCHEDULER_TASK: Wait for scheduler "thk1" with entities [Boisterous Jackal (ID: 17780963/0x010F50E3), Boisterous Jackal (ID: 17780963/0x010F50E3)]
 56: 0x09CB [0x66] LOAD_EXT_SCHEDULER_MAIN: Load scheduler "thk2" with entities [Boisterous Jackal (ID: 17780963/0x010F50E3), Boisterous Jackal (ID: 17780963/0x010F50E3)], work=69*
 57: 0x09DA [0x53] WAIT_SCHEDULER_TASK: Wait for scheduler "thk2" with entities [Boisterous Jackal (ID: 17780963/0x010F50E3), Boisterous Jackal (ID: 17780963/0x010F50E3)]
 58: 0x09E7 [0x21] END_EVENT
 59: 0x09E8 [0x00] END_REQSTACK()
```

#### Data or dead code:

```
# Dead code (unreachable instructions):
     0x09E9 [0x24] CREATE_DIALOG(message_id=10544*, default_option=0*, option_flags=0*)
    → "How do you respond? [And the passsword?/Got it.]"
     0x09F0 [0x25] WAIT_DIALOG_SELECT()
     0x09F1 [0x02] IF !(Work_Zone[0] == 0*) GOTO 0x0ABF
     0x09F9 [0x6E] Boisterous Jackal (ID: 17780963/0x010F50E3) uses emote 37*
     0x0A00 [0x99] Wait for Boisterous Jackal (ID: 17780963/0x010F50E3) animation to complete
     0x0A05 [0x2B] Boisterous Jackal (ID: 17780963/0x010F50E3) [10546*]:
    → "Not much for numbers, are you? Well, I guess I'll explain further."
     0x0A0C [0x1C] WAIT(150* ticks)
     0x0A0F [0x23] WAIT_FOR_DIALOG_INTERACTION
     0x0A10 [0x66] LOAD_EXT_SCHEDULER_MAIN: Load scheduler "tlk0" with entities [Boisterous Jackal (ID: 17780963/0x010F50E3), Boisterous Jackal (ID: 17780963/0x010F50E3)], work=69*
     0x0A1F [0x2B] Boisterous Jackal (ID: 17780963/0x010F50E3) [10547*]:
    → "It's an eight number password, with four sets of two numbers each."
     0x0A26 [0x23] WAIT_FOR_DIALOG_INTERACTION
     0x0A27 [0x03] Work_Zone[1] = 10*
     0x0A2C [0x43] SEND_EVENT_UPDATE: Send pending tag to server (packet 0x005B)
     0x0A2E [0x43] SEND_EVENT_UPDATE: Check pending flag (skip if not pending)
     0x0A30 [0x2B] Boisterous Jackal (ID: 17780963/0x010F50E3) [10548*]:
    → "It uses the first three letters of your name, which are %0, so when turned into numbers those are , , and ."
     0x0A37 [0x23] WAIT_FOR_DIALOG_INTERACTION
     0x0A38 [0x07] Work_Zone[2] += 23*
     0x0A3D [0x07] Work_Zone[3] += 23*
     0x0A42 [0x07] Work_Zone[4] += 23*
     0x0A47 [0x2B] Boisterous Jackal (ID: 17780963/0x010F50E3) [10549*]:
    → "Then we just tack on 23 to the sum of those three values."
     0x0A4E [0x23] WAIT_FOR_DIALOG_INTERACTION
     0x0A4F [0x03] Work_Zone[5] = Work_Zone[2]
     0x0A54 [0x07] Work_Zone[5] += Work_Zone[3]
     0x0A59 [0x07] Work_Zone[5] += Work_Zone[4]
     0x0A5E [0x07] Work_Zone[5] += 23*
     0x0A63 [0x02] IF !(Work_Zone[5] >= 100*) GOTO 0x0A76
     0x0A6B [0x2B] Boisterous Jackal (ID: 17780963/0x010F50E3) [10550*]:
    → "The fourth number, therefore, is 23 plus your first three numbers, or ."
     0x0A72 [0x23] WAIT_FOR_DIALOG_INTERACTION
     0x0A73 [0x01] GOTO 0x0A88
     0x0A76 [0x03] Work_Zone[6] = Work_Zone[5]
     0x0A7B [0x08] Work_Zone[5] -= 100*
     0x0A80 [0x2B] Boisterous Jackal (ID: 17780963/0x010F50E3) [10551*]:
    → "The fourth number, therefore, is 23 plus your first three numbers, which would be , but that would exceed 100, so it is instead."
     0x0A87 [0x23] WAIT_FOR_DIALOG_INTERACTION
     0x0A88 [0x2B] Boisterous Jackal (ID: 17780963/0x010F50E3) [10552*]:
    → "In summation, the password is ."
     0x0A8F [0x23] WAIT_FOR_DIALOG_INTERACTION
     0x0A90 [0x2B] Boisterous Jackal (ID: 17780963/0x010F50E3) [10553*]:
    → "As for what that strange apparatus is made of...well, we're still working on that."
     0x0A97 [0x23] WAIT_FOR_DIALOG_INTERACTION
     0x0A98 [0x2B] Boisterous Jackal (ID: 17780963/0x010F50E3) [10554*]:
    → "As for what's inside...well, you'll just have to open it to find out."
     0x0A9F [0x23] WAIT_FOR_DIALOG_INTERACTION
     0x0AA0 [0x66] LOAD_EXT_SCHEDULER_MAIN: Load scheduler "tlk1" with entities [Boisterous Jackal (ID: 17780963/0x010F50E3), Boisterous Jackal (ID: 17780963/0x010F50E3)], work=69*
     0x0AAF [0x53] WAIT_SCHEDULER_TASK: Wait for scheduler "tlk1" with entities [Boisterous Jackal (ID: 17780963/0x010F50E3), Boisterous Jackal (ID: 17780963/0x010F50E3)]
     0x0ABC [0x01] GOTO 0x0AD2
     0x0ABF [0x02] IF !(Work_Zone[0] == 1*) GOTO 0x0AD2
     0x0AC7 [0x2B] Boisterous Jackal (ID: 17780963/0x010F50E3) [10545*]:
    → "It's an eight character password, so do what you have to do."
     0x0ACE [0x23] WAIT_FOR_DIALOG_INTERACTION
     0x0ACF [0x01] GOTO 0x0AD2
     0x0AD2 [0x1B] RETURN
     0x0AD3 [0x81] SET_ENTITY_BLINKING(blink_flag=0x80, entity=Unknown NPC (ID: 2156101762/0x80838082))
     0x0AD9 [0x84] ADJUST_RENDER_FLAGS3_BIT0()
     0x0ADA [0x80] LOAD_WAIT(entity=Unknown NPC (ID: 2156298373/0x80868085))
     0x0ADF [0x00] END_REQSTACK()
     0x0AE0 [0x80] LOAD_WAIT(entity=Unknown NPC (ID: 2156363776/0x80878000))
     0x0AE5 [0x88] WORLD_PASS_HANDLER_B: Send world pass packet 0x1B (Para=1, sets RecFriendPassFlag)
     0x0AE6 [0x80] LOAD_WAIT(entity=Unknown NPC (ID: 2156560521/0x808A8089))
     0x0AEB [0x8B] SET_EVENT_MARK: Add/update map marker on map References[3200] at (0x0080, References[3456]), index=0x80, name=(no name)
     0x0AF4 [0x80] LOAD_WAIT(entity=Unknown NPC (ID: 2156888206/0x808F808E))
     0x0AF9 [0x90] EventEntity->Render.Flags0 |= 0x04; EventEntity->Render.Flags1 |= 0x08
     0x0AFA [0x80] LOAD_WAIT(entity=Unknown NPC (ID: 2157084817/0x80928091))
     0x0AFF [0x00] END_REQSTACK()
     0x0B00 [0x80] LOAD_WAIT(entity=Unknown NPC (ID: 2156756992/0x808D8000))
     0x0B05 [0x8E] EventEntity->StatusEvent = 45
     0x0B06 [0x80] LOAD_WAIT(entity=Unknown NPC (ID: 2157150351/0x8093808F))
     0x0B0B [0x90] EventEntity->Render.Flags0 |= 0x04; EventEntity->Render.Flags1 |= 0x08
     0x0B0C [0x80] LOAD_WAIT(entity=Unknown NPC (ID: 2157084817/0x80928091))
```
