# 17781031 - kotatsu2

## Common Data

| Field            | Value                 |
|------------------|-----------------------|
| Zone             | Lower Jeuno (ID: 245) |
| Block Size       | 92 bytes              |
| Total Events     | 3                     |
| References Count | 6                     |

## List of Events

| Event ID                 | Entrypoint   |   Size |   Instructions |
|--------------------------|--------------|--------|----------------|
| [65535](#event-65535)    | 0x0000       |      1 |              1 |
| [20089](#event-20089)    | 0x0001       |     32 |              7 |
| [65535.1](#event-655351) | 0x0021       |      5 |              2 |

## DAT References (imed_data)

|   Index | Hex Value   |   Dec Value |
|---------|-------------|-------------|
|       0 | 0x0E71      |        3697 |
|       1 | 0x0258      |         600 |
|       2 | 0xFFFED9AA  |  4294891946 |
|       3 | 0xFFFD77B8  |  4294801336 |
|       4 | 0x0160      |         352 |
|       5 | 0x0000      |           0 |

## Events

### Event 65535

#### Metadata

| Field        | Value   |
|--------------|---------|
| Entrypoint   | 0x0000  |
| Data Size    | 1 bytes |
| Instructions | 1       |

```
      00 01 02 03 04 05 06 07  08 09 0A 0B 0C 0D 0E 0F
      -- -- -- -- -- -- -- --  -- -- -- -- -- -- -- --
0000: 00                                                .               
```

#### Opcodes

```
  0: 0x0000 [0x00] END_REQSTACK()
```

### Event 20089

#### Metadata

| Field        | Value    |
|--------------|----------|
| Entrypoint   | 0x0001   |
| Data Size    | 32 bytes |
| Instructions | 2        |

```
      00 01 02 03 04 05 06 07  08 09 0A 0B 0C 0D 0E 0F
      -- -- -- -- -- -- -- --  -- -- -- -- -- -- -- --
0000:    B6 11 00 80 33 01 3B  26 51 0F 01 00 00 02 00   ....3.;&Q......
0010: 01 00 08 01 00 01 80 37  02 80 03 80 01 00 04 80  .......7........
0020: 00                                                .               
```

#### Opcodes

```
  0: 0x0001 [0xB6] ENTITY_APPEARANCE_HANDLER(case=Unknown call)
  1: 0x0003 [0x00] END_REQSTACK()
```

#### Data or dead code:

```
# Dead code (unreachable instructions):
     0x0004 [0x80] LOAD_WAIT(entity=Unknown NPC (ID: 641401139/0x263B0133))
     0x0009 [0x51] END_MAP_SCHEDULER: End scheduler 0x01000108 with entities [Unknown NPC (ID: 271/0x0000010F), Unknown NPC (ID: 65538/0x00010002)]
     0x0016 [0x80] LOAD_WAIT(entity=Unknown NPC (ID: 58720823/0x03800237))
     0x001B [0x80] LOAD_WAIT(entity=Unknown NPC (ID: 2147745793/0x80040001))
     0x0020 [0x00] END_REQSTACK()
```

### Event 65535.1

#### Metadata

| Field        | Value   |
|--------------|---------|
| Entrypoint   | 0x0021  |
| Data Size    | 5 bytes |
| Instructions | 2       |

```
      00 01 02 03 04 05 06 07  08 09 0A 0B 0C 0D 0E 0F
      -- -- -- -- -- -- -- --  -- -- -- -- -- -- -- --
0020:    B6 11 05 80 00                                  .....          
```

#### Opcodes

```
  0: 0x0021 [0xB6] ENTITY_APPEARANCE_HANDLER(case=Unknown call)
  1: 0x0023 [0x05] 0x80 = 1
```
