# 17780769 - Derrick

## Common Data

| Field            | Value                 |
|------------------|-----------------------|
| Zone             | Lower Jeuno (ID: 245) |
| Block Size       | 2996 bytes            |
| Total Events     | 103                   |
| References Count | 125                   |

## List of Events

| Event ID                   | Entrypoint   |   Size |   Instructions |
|----------------------------|--------------|--------|----------------|
| [65535](#event-65535)      | 0x0000       |      1 |              1 |
| [230](#event-230)          | 0x0001       |    320 |             87 |
| [231](#event-231)          | 0x0141       |     37 |             10 |
| [10094](#event-10094)      | 0x0166       |      5 |              3 |
| [65535.1](#event-655351)   | 0x016B       |     20 |              5 |
| [65535.2](#event-655352)   | 0x017F       |     20 |              5 |
| [65535.3](#event-655353)   | 0x0193       |     20 |              5 |
| [65535.4](#event-655354)   | 0x01A7       |     17 |              3 |
| [65535.5](#event-655355)   | 0x01B8       |     20 |              5 |
| [65535.6](#event-655356)   | 0x01CC       |     20 |              5 |
| [65535.7](#event-655357)   | 0x01E0       |     19 |              4 |
| [65535.8](#event-655358)   | 0x01F3       |     19 |              4 |
| [65535.9](#event-655359)   | 0x0206       |     16 |              2 |
| [65535.10](#event-6553510) | 0x0216       |     16 |              2 |
| [65535.11](#event-6553511) | 0x0226       |     20 |              5 |
| [65535.12](#event-6553512) | 0x023A       |     16 |              2 |
| [65535.13](#event-6553513) | 0x024A       |     16 |              2 |
| [65535.14](#event-6553514) | 0x025A       |     16 |              2 |
| [65535.15](#event-6553515) | 0x026A       |     21 |              6 |
| [65535.16](#event-6553516) | 0x027F       |     16 |              2 |
| [65535.17](#event-6553517) | 0x028F       |     16 |              2 |
| [65535.18](#event-6553518) | 0x029F       |     20 |              5 |
| [65535.19](#event-6553519) | 0x02B3       |     17 |              3 |
| [65535.20](#event-6553520) | 0x02C4       |     20 |              5 |
| [65535.21](#event-6553521) | 0x02D8       |     16 |              2 |
| [65535.22](#event-6553522) | 0x02E8       |     16 |              2 |
| [65535.23](#event-6553523) | 0x02F8       |     16 |              2 |
| [65535.24](#event-6553524) | 0x0308       |     16 |              2 |
| [65535.25](#event-6553525) | 0x0318       |     16 |              2 |
| [65535.26](#event-6553526) | 0x0328       |     16 |              2 |
| [65535.27](#event-6553527) | 0x0338       |     16 |              2 |
| [65535.28](#event-6553528) | 0x0348       |     12 |              4 |
| [65535.29](#event-6553529) | 0x0354       |     20 |              5 |
| [65535.30](#event-6553530) | 0x0368       |     17 |              3 |
| [65535.31](#event-6553531) | 0x0379       |     17 |              3 |
| [65535.32](#event-6553532) | 0x038A       |     16 |              2 |
| [65535.33](#event-6553533) | 0x039A       |     16 |              2 |
| [65535.34](#event-6553534) | 0x03AA       |     16 |              2 |
| [65535.35](#event-6553535) | 0x03BA       |     16 |              2 |
| [65535.36](#event-6553536) | 0x03CA       |     16 |              2 |
| [65535.37](#event-6553537) | 0x03DA       |     16 |              2 |
| [65535.38](#event-6553538) | 0x03EA       |     13 |              5 |
| [65535.39](#event-6553539) | 0x03F7       |     20 |              5 |
| [65535.40](#event-6553540) | 0x040B       |     12 |              4 |
| [65535.41](#event-6553541) | 0x0417       |     16 |              2 |
| [65535.42](#event-6553542) | 0x0427       |     16 |              2 |
| [65535.43](#event-6553543) | 0x0437       |     16 |              2 |
| [65535.44](#event-6553544) | 0x0447       |     20 |              5 |
| [65535.45](#event-6553545) | 0x045B       |     29 |              6 |
| [65535.46](#event-6553546) | 0x0478       |     17 |              3 |
| [65535.47](#event-6553547) | 0x0489       |     20 |              5 |
| [65535.48](#event-6553548) | 0x049D       |     20 |              5 |
| [65535.49](#event-6553549) | 0x04B1       |     20 |              5 |
| [65535.50](#event-6553550) | 0x04C5       |     20 |              5 |
| [65535.51](#event-6553551) | 0x04D9       |     20 |              5 |
| [65535.52](#event-6553552) | 0x04ED       |     16 |              2 |
| [65535.53](#event-6553553) | 0x04FD       |     16 |              2 |
| [65535.54](#event-6553554) | 0x050D       |     20 |              5 |
| [65535.55](#event-6553555) | 0x0521       |     16 |              2 |
| [65535.56](#event-6553556) | 0x0531       |     16 |              2 |
| [65535.57](#event-6553557) | 0x0541       |     16 |              2 |
| [65535.58](#event-6553558) | 0x0551       |     16 |              2 |
| [65535.59](#event-6553559) | 0x0561       |     21 |              6 |
| [65535.60](#event-6553560) | 0x0576       |     20 |              5 |
| [65535.61](#event-6553561) | 0x058A       |     20 |              5 |
| [65535.62](#event-6553562) | 0x059E       |     17 |              3 |
| [65535.63](#event-6553563) | 0x05AF       |     20 |              5 |
| [65535.64](#event-6553564) | 0x05C3       |     20 |              5 |
| [65535.65](#event-6553565) | 0x05D7       |     16 |              2 |
| [65535.66](#event-6553566) | 0x05E7       |     16 |              2 |
| [65535.67](#event-6553567) | 0x05F7       |     21 |              6 |
| [65535.68](#event-6553568) | 0x060C       |     20 |              5 |
| [65535.69](#event-6553569) | 0x0620       |     20 |              5 |
| [65535.70](#event-6553570) | 0x0634       |     16 |              2 |
| [65535.71](#event-6553571) | 0x0644       |     20 |              5 |
| [65535.72](#event-6553572) | 0x0658       |     21 |              6 |
| [65535.73](#event-6553573) | 0x066D       |     20 |              5 |
| [65535.74](#event-6553574) | 0x0681       |     12 |              4 |
| [65535.75](#event-6553575) | 0x068D       |     16 |              2 |
| [65535.76](#event-6553576) | 0x069D       |     16 |              2 |
| [65535.77](#event-6553577) | 0x06AD       |     20 |              5 |
| [65535.78](#event-6553578) | 0x06C1       |     20 |              5 |
| [65535.79](#event-6553579) | 0x06D5       |     17 |              3 |
| [65535.80](#event-6553580) | 0x06E6       |     16 |              2 |
| [65535.81](#event-6553581) | 0x06F6       |     16 |              2 |
| [65535.82](#event-6553582) | 0x0706       |     16 |              2 |
| [65535.83](#event-6553583) | 0x0716       |     16 |              2 |
| [65535.84](#event-6553584) | 0x0726       |     17 |              3 |
| [65535.85](#event-6553585) | 0x0737       |     20 |              5 |
| [65535.86](#event-6553586) | 0x074B       |     12 |              4 |
| [65535.87](#event-6553587) | 0x0757       |     16 |              2 |
| [65535.88](#event-6553588) | 0x0767       |     16 |              2 |
| [65535.89](#event-6553589) | 0x0777       |     16 |              2 |
| [65535.90](#event-6553590) | 0x0787       |     16 |              2 |
| [65535.91](#event-6553591) | 0x0797       |     16 |              2 |
| [65535.92](#event-6553592) | 0x07A7       |     16 |              2 |
| [65535.93](#event-6553593) | 0x07B7       |     16 |              2 |
| [65535.94](#event-6553594) | 0x07C7       |     20 |              5 |
| [65535.95](#event-6553595) | 0x07DB       |     20 |              5 |
| [65535.96](#event-6553596) | 0x07EF       |     16 |              2 |
| [65535.97](#event-6553597) | 0x07FF       |     16 |              2 |
| [65535.98](#event-6553598) | 0x080F       |      1 |              1 |
| [10118](#event-10118)      | 0x0810       |      1 |              1 |

## DAT References (imed_data)

|   Index | Hex Value   |   Dec Value |
|---------|-------------|-------------|
|       0 | 0x1E30      |        7728 |
|       1 | 0xFFFFFFFF  |  4294967295 |
|       2 | 0x0000      |           0 |
|       3 | 0x0001      |           1 |
|       4 | 0x0008      |           8 |
|       5 | 0x1E31      |        7729 |
|       6 | 0x1E32      |        7730 |
|       7 | 0x7A120     |      500000 |
|       8 | 0x1E33      |        7731 |
|       9 | 0x1E34      |        7732 |
|      10 | 0x1E35      |        7733 |
|      11 | 0x000A      |          10 |
|      12 | 0x1E36      |        7734 |
|      13 | 0x1E37      |        7735 |
|      14 | 0x0002      |           2 |
|      15 | 0x022B      |         555 |
|      16 | 0x1E38      |        7736 |
|      17 | 0x1E39      |        7737 |
|      18 | 0x1E3A      |        7738 |
|      19 | 0x1E3B      |        7739 |
|      20 | 0x1E3C      |        7740 |
|      21 | 0x0014      |          20 |
|      22 | 0x0003      |           3 |
|      23 | 0x1E3E      |        7742 |
|      24 | 0x1E3F      |        7743 |
|      25 | 0x1E41      |        7745 |
|      26 | 0x001E      |          30 |
|      27 | 0x1E43      |        7747 |
|      28 | 0x00C9      |         201 |
|      29 | 0x000C      |          12 |
|      30 | 0xFFFED6C4  |  4294891204 |
|      31 | 0xFFFDEB5B  |  4294830939 |
|      32 | 0x000B      |          11 |
|      33 | 0xFFFE8B97  |  4294871959 |
|      34 | 0xFFFD9E68  |  4294811240 |
|      35 | 0xFFFF0D87  |  4294905223 |
|      36 | 0xFFFEA0EF  |  4294877423 |
|      37 | 0x176F      |        5999 |
|      38 | 0x0A3A      |        2618 |
|      39 | 0xFFFEB818  |  4294883352 |
|      40 | 0xFFFE098F  |  4294838671 |
|      41 | 0xFFFEF410  |  4294898704 |
|      42 | 0xFFFE85B9  |  4294870457 |
|      43 | 0xFFFEEC91  |  4294896785 |
|      44 | 0xFFFE6EA2  |  4294864546 |
|      45 | 0x0A2A      |        2602 |
|      46 | 0xFFFEE552  |  4294894930 |
|      47 | 0xFFFE3269  |  4294849129 |
|      48 | 0x0A39      |        2617 |
|      49 | 0x0045      |          69 |
|      50 | 0xFFFF2160  |  4294910304 |
|      51 | 0xFFFEA80E  |  4294879246 |
|      52 | 0x0A3D      |        2621 |
|      53 | 0x0A43      |        2627 |
|      54 | 0x004B      |          75 |
|      55 | 0xFFFFB20E  |  4294947342 |
|      56 | 0xFFFFAE2A  |  4294946346 |
|      57 | 0xFFFEDC35  |  4294892597 |
|      58 | 0xFFFE5D95  |  4294860181 |
|      59 | 0x0A47      |        2631 |
|      60 | 0x0055      |          85 |
|      61 | 0xFFFFB26F  |  4294947439 |
|      62 | 0xFFFFAB30  |  4294945584 |
|      63 | 0x000E      |          14 |
|      64 | 0xFFFF6C7D  |  4294929533 |
|      65 | 0xFFFF0AA4  |  4294904484 |
|      66 | 0xFFFFCBCA  |  4294953930 |
|      67 | 0x09E0      |        2528 |
|      68 | 0xFFFFFE3F  |  4294966847 |
|      69 | 0x0028      |          40 |
|      70 | 0x0029      |          41 |
|      71 | 0xFFFEEA26  |  4294896166 |
|      72 | 0xFFFE4F39  |  4294856505 |
|      73 | 0xFFFED8EC  |  4294891756 |
|      74 | 0xFFFE38BF  |  4294850751 |
|      75 | 0xFFFEC5BC  |  4294886844 |
|      76 | 0xFFFE1640  |  4294841920 |
|      77 | 0x03E7      |         999 |
|      78 | 0x0A33      |        2611 |
|      79 | 0x000D      |          13 |
|      80 | 0xFFFF04E1  |  4294903009 |
|      81 | 0xFFFE7108  |  4294865160 |
|      82 | 0x108C      |        4236 |
|      83 | 0x10F0      |        4336 |
|      84 | 0xFFFFC3F0  |  4294951920 |
|      85 | 0xFFFFA321  |  4294943521 |
|      86 | 0xFFFFFF9B  |  4294967195 |
|      87 | 0x0A18      |        2584 |
|      88 | 0xFFFFFC21  |  4294966305 |
|      89 | 0x084B      |        2123 |
|      90 | 0x0033      |          51 |
|      91 | 0xFFFF0DFA  |  4294905338 |
|      92 | 0xFFFE6C9D  |  4294864029 |
|      93 | 0xFFFEFBE3  |  4294900707 |
|      94 | 0xFFFE9775  |  4294874997 |
|      95 | 0xFFFF19CD  |  4294908365 |
|      96 | 0xFFFEAC62  |  4294880354 |
|      97 | 0xFFFECE8B  |  4294889099 |
|      98 | 0xFFFE3998  |  4294850968 |
|      99 | 0x0F9F      |        3999 |
|     100 | 0x0A17      |        2583 |
|     101 | 0xFFFFD965  |  4294957413 |
|     102 | 0xFFFFD99E  |  4294957470 |
|     103 | 0x0009      |           9 |
|     104 | 0xFFFEE68C  |  4294895244 |
|     105 | 0xFFFE6FBD  |  4294864829 |
|     106 | 0xFFFFE923  |  4294961443 |
|     107 | 0xFFFFEBBA  |  4294962106 |
|     108 | 0xFFFF4F66  |  4294922086 |
|     109 | 0xFFFEA394  |  4294878100 |
|     110 | 0xFFFFE891  |  4294961297 |
|     111 | 0xFFFFB859  |  4294948953 |
|     112 | 0xFFFFDFA2  |  4294959010 |
|     113 | 0xFFFFB9ED  |  4294949357 |
|     114 | 0xFFFFBF3D  |  4294950717 |
|     115 | 0xFFFFF407  |  4294964231 |
|     116 | 0xFFFFE105  |  4294959365 |
|     117 | 0x003C      |          60 |
|     118 | 0x0A40      |        2624 |
|     119 | 0xFFFF6A1D  |  4294928925 |
|     120 | 0xFFFEF858  |  4294899800 |
|     121 | 0xFFFFEA43  |  4294961731 |
|     122 | 0xFFFFF8F4  |  4294965492 |
|     123 | 0xFFFFF533  |  4294964531 |
|     124 | 0x13C3      |        5059 |

## String References

- **7728**: Welcome to the Chamber of Commerce and Industry. We assist the community with job placement and labor arbitration.
- **7729**: What can I help you with? [Oh, nothing./I'd like $6./I'd like to start a petition./I want to learn about petitions.]
- **7730**: Have a nice day. Next!
- **7731**: The $3 costs $7 gil. Convenient routes connect Jeuno with the three allied nations. Passes are non-transferable, but never expire.
- **7732**: The archduke occasionally issues them, but His Grace is not an easy man to meet.
- **7733**: Purchase $6? [Yes, please./No, not right now.]
- **7734**: Thank you very much. Safe and pleasant journeys to you!
- **7735**: Um, you don't have enough money.
- **7736**: Oh, that clock tower? Yes, it's quite run down, so it's scheduled for demolition. The city needs a crane there, as ships anchor right beneath it.
- **7737**: Of course, if enough people oppose the plan, the authorities might reconsider. You'll need at least $1 signatories for the petition to be accepted.
- **7738**: Would you like a petition ledger? [Yes./No, thanks.]
- **7739**: Okay. Come back and submit the ledger once you have $1 signatures.
- **7740**: Find people who are interested in your cause. Of course, please try to respect people who don't share your views.
- **7742**: Gather $1 signatures for the petition. People who are interested in your cause should sign. And please respect those of differing views.
- **7743**: We can issue you a new $7 if you like. Of course, you'll have to start over with any signatures you've collected.
- **7745**: Very well. I'll prepare the necessary paperwork.
- **7747**: How's the petition going? Wow, you have quite a lot of signatures here. I'll submit this to the chamber board. I doubt they'll demolish the clock tower now.

## Events

### Event 65535

#### Metadata

| Field        | Value   |
|--------------|---------|
| Entrypoint   | 0x0000  |
| Data Size    | 1 bytes |
| Instructions | 1       |

```
      00 01 02 03 04 05 06 07  08 09 0A 0B 0C 0D 0E 0F
      -- -- -- -- -- -- -- --  -- -- -- -- -- -- -- --
0000: 00                                                .               
```

#### Opcodes

```
  0: 0x0000 [0x00] END_REQSTACK()
```

### Event 230

#### Metadata

| Field        | Value     |
|--------------|-----------|
| Entrypoint   | 0x0001    |
| Data Size    | 320 bytes |
| Instructions | 87        |

```
      00 01 02 03 04 05 06 07  08 09 0A 0B 0C 0D 0E 0F
      -- -- -- -- -- -- -- --  -- -- -- -- -- -- -- --
0000:    20 01 3A F8 FF FF 7F  00 00 1E F0 FF FF 7F 03    .:............
0010: 01 00 02 10 03 02 00 03  10 1D 00 80 23 42 02 01  ............#B..
0020: 00 01 80 01 3F 01 3D 01  00 02 80 03 80 03 08 10  ....?.=.........
0030: 04 80 24 05 80 02 80 01  00 25 02 00 10 02 80 00  ..$......%......
0040: 4C 00 39 00 00 1D 06 80  23 01 3F 01 02 00 10 03  L.9.....#.?.....
0050: 80 00 A5 00 03 09 10 07  80 1D 08 80 23 1D 09 80  ............#...
0060: 23 24 0A 80 03 80 02 80  25 02 00 10 02 80 00 90  #$......%.......
0070: 00 03 01 10 0B 80 43 00  43 01 02 03 10 03 80 00  ......C.C.......
0080: 89 00 1D 0C 80 23 01 8D  00 1D 0D 80 23 01 A2 00  .....#......#...
0090: 02 00 10 03 80 00 A2 00  39 00 00 1D 06 80 23 01  ........9.....#.
00A0: A2 00 01 3F 01 02 00 10  0E 80 00 F4 00 03 03 10  ...?............
00B0: 02 00 03 09 10 0F 80 1D  10 80 23 1D 11 80 23 24  ..........#...#$
00C0: 12 80 03 80 02 80 25 02  00 10 02 80 00 DF 00 1D  ......%.........
00D0: 13 80 23 1D 14 80 23 03  01 10 15 80 01 F1 00 02  ..#...#.........
00E0: 00 10 03 80 00 F1 00 39  00 00 1D 06 80 23 01 F1  .......9.....#..
00F0: 00 01 3F 01 02 00 10 16  80 00 3F 01 03 03 10 02  ..?.......?.....
0100: 00 03 09 10 0F 80 1D 17  80 23 1D 18 80 23 24 12  .........#...#$.
0110: 80 03 80 02 80 25 02 00  10 02 80 00 2A 01 1D 19  .....%......*...
0120: 80 23 03 01 10 1A 80 01  3C 01 02 00 10 03 80 00  .#......<.......
0130: 3C 01 39 00 00 1D 06 80  23 01 3C 01 01 3F 01 21  <.9.....#.<..?.!
0140: 00                                                .               
```

#### Opcodes

```
  0: 0x0001 [0x20] SET_CLI_EVENT_UC_FLAG: Lock player control
  1: 0x0003 [0x3A] CONVERT_YAW_TO_BYTE(entity=EventEntity, result_destination=ExtData[1]->WorkLocal[0])
  2: 0x000A [0x1E] EventEntity looks at LocalPlayer and starts talking
  3: 0x000F [0x03] ExtData[1]->WorkLocal[1] = Work_Zone[2]
  4: 0x0014 [0x03] ExtData[1]->WorkLocal[2] = Work_Zone[3]
  5: 0x0019 [0x1D] PRINT_EVENT_MESSAGE(message_id=7728*)
    → "Welcome to the Chamber of Commerce and Industry. We assist the community with job placement and labor arbitration."
  6: 0x001C [0x23] WAIT_FOR_DIALOG_INTERACTION
  7: 0x001D [0x42] SET_CLI_EVENT_CANCEL_DATA()
  8: 0x001E [0x02] IF !(ExtData[1]->WorkLocal[1] == 4294967295*) GOTO 0x013F
  9: 0x0026 [0x3D] CLEAR_BIT_FLAG_CONDITIONAL(target_work_offset=ExtData[1]->WorkLocal[1], bit_index_work_offset=0*, condition_work_offset=1*)
 10: 0x002D [0x03] Work_Zone[8] = 8*
 11: 0x0032 [0x24] CREATE_DIALOG(message_id=7729*, default_option=0*, option_flags=ExtData[1]->WorkLocal[1])
    → "What can I help you with? [Oh, nothing./I'd like $6./I'd like to start a petition./I want to learn about petitions.]"
 12: 0x0039 [0x25] WAIT_DIALOG_SELECT()
 13: 0x003A [0x02] IF !(Work_Zone[0] == 0*) GOTO 0x004C
 14: 0x0042 [0x39] SET_ENTITY_DIRECTION(direction=ExtData[1]->WorkLocal[0])
 15: 0x0045 [0x1D] PRINT_EVENT_MESSAGE(message_id=7730*)
    → "Have a nice day. Next!"
 16: 0x0048 [0x23] WAIT_FOR_DIALOG_INTERACTION
 17: 0x0049 [0x01] GOTO 0x013F
 18: 0x004C [0x02] IF !(Work_Zone[0] == 1*) GOTO 0x00A5
 19: 0x0054 [0x03] Work_Zone[9] = 500000*
 20: 0x0059 [0x1D] PRINT_EVENT_MESSAGE(message_id=7731*)
    → "The $3 costs $7 gil. Convenient routes connect Jeuno with the three allied nations. Passes are non-transferable, but never expire."
 21: 0x005C [0x23] WAIT_FOR_DIALOG_INTERACTION
 22: 0x005D [0x1D] PRINT_EVENT_MESSAGE(message_id=7732*)
    → "The archduke occasionally issues them, but His Grace is not an easy man to meet."
 23: 0x0060 [0x23] WAIT_FOR_DIALOG_INTERACTION
 24: 0x0061 [0x24] CREATE_DIALOG(message_id=7733*, default_option=1*, option_flags=0*)
    → "Purchase $6? [Yes, please./No, not right now.]"
 25: 0x0068 [0x25] WAIT_DIALOG_SELECT()
 26: 0x0069 [0x02] IF !(Work_Zone[0] == 0*) GOTO 0x0090
 27: 0x0071 [0x03] Work_Zone[1] = 10*
 28: 0x0076 [0x43] SEND_EVENT_UPDATE: Send pending tag to server (packet 0x005B)
 29: 0x0078 [0x43] SEND_EVENT_UPDATE: Check pending flag (skip if not pending)
 30: 0x007A [0x02] IF !(Work_Zone[3] == 1*) GOTO 0x0089
 31: 0x0082 [0x1D] PRINT_EVENT_MESSAGE(message_id=7734*)
    → "Thank you very much. Safe and pleasant journeys to you!"
 32: 0x0085 [0x23] WAIT_FOR_DIALOG_INTERACTION
 33: 0x0086 [0x01] GOTO 0x008D
 34: 0x0089 [0x1D] PRINT_EVENT_MESSAGE(message_id=7735*)
    → "Um, you don't have enough money."
 35: 0x008C [0x23] WAIT_FOR_DIALOG_INTERACTION

SUBROUTINE_008D:
 36: 0x008D [0x01] GOTO 0x00A2
 37: 0x0090 [0x02] IF !(Work_Zone[0] == 1*) GOTO 0x00A2
 38: 0x0098 [0x39] SET_ENTITY_DIRECTION(direction=ExtData[1]->WorkLocal[0])
 39: 0x009B [0x1D] PRINT_EVENT_MESSAGE(message_id=7730*)
    → "Have a nice day. Next!"
 40: 0x009E [0x23] WAIT_FOR_DIALOG_INTERACTION
 41: 0x009F [0x01] GOTO 0x00A2

SUBROUTINE_00A2:
 42: 0x00A2 [0x01] GOTO 0x013F
 43: 0x00A5 [0x02] IF !(Work_Zone[0] == 2*) GOTO 0x00F4
 44: 0x00AD [0x03] Work_Zone[3] = ExtData[1]->WorkLocal[2]
 45: 0x00B2 [0x03] Work_Zone[9] = 555*
 46: 0x00B7 [0x1D] PRINT_EVENT_MESSAGE(message_id=7736*)
    → "Oh, that clock tower? Yes, it's quite run down, so it's scheduled for demolition. The city needs a crane there, as ships anchor right beneath it."
 47: 0x00BA [0x23] WAIT_FOR_DIALOG_INTERACTION
 48: 0x00BB [0x1D] PRINT_EVENT_MESSAGE(message_id=7737*)
    → "Of course, if enough people oppose the plan, the authorities might reconsider. You'll need at least $1 signatories for the petition to be accepted."
 49: 0x00BE [0x23] WAIT_FOR_DIALOG_INTERACTION
 50: 0x00BF [0x24] CREATE_DIALOG(message_id=7738*, default_option=1*, option_flags=0*)
    → "Would you like a petition ledger? [Yes./No, thanks.]"
 51: 0x00C6 [0x25] WAIT_DIALOG_SELECT()
 52: 0x00C7 [0x02] IF !(Work_Zone[0] == 0*) GOTO 0x00DF
 53: 0x00CF [0x1D] PRINT_EVENT_MESSAGE(message_id=7739*)
    → "Okay. Come back and submit the ledger once you have $1 signatures."
 54: 0x00D2 [0x23] WAIT_FOR_DIALOG_INTERACTION
 55: 0x00D3 [0x1D] PRINT_EVENT_MESSAGE(message_id=7740*)
    → "Find people who are interested in your cause. Of course, please try to respect people who don't share your views."
 56: 0x00D6 [0x23] WAIT_FOR_DIALOG_INTERACTION
 57: 0x00D7 [0x03] Work_Zone[1] = 20*
 58: 0x00DC [0x01] GOTO 0x00F1
 59: 0x00DF [0x02] IF !(Work_Zone[0] == 1*) GOTO 0x00F1
 60: 0x00E7 [0x39] SET_ENTITY_DIRECTION(direction=ExtData[1]->WorkLocal[0])
 61: 0x00EA [0x1D] PRINT_EVENT_MESSAGE(message_id=7730*)
    → "Have a nice day. Next!"
 62: 0x00ED [0x23] WAIT_FOR_DIALOG_INTERACTION
 63: 0x00EE [0x01] GOTO 0x00F1

SUBROUTINE_00F1:
 64: 0x00F1 [0x01] GOTO 0x013F
 65: 0x00F4 [0x02] IF !(Work_Zone[0] == 3*) GOTO 0x013F
 66: 0x00FC [0x03] Work_Zone[3] = ExtData[1]->WorkLocal[2]
 67: 0x0101 [0x03] Work_Zone[9] = 555*
 68: 0x0106 [0x1D] PRINT_EVENT_MESSAGE(message_id=7742*)
    → "Gather $1 signatures for the petition. People who are interested in your cause should sign. And please respect those of differing views."
 69: 0x0109 [0x23] WAIT_FOR_DIALOG_INTERACTION
 70: 0x010A [0x1D] PRINT_EVENT_MESSAGE(message_id=7743*)
    → "We can issue you a new $7 if you like. Of course, you'll have to start over with any signatures you've collected."
 71: 0x010D [0x23] WAIT_FOR_DIALOG_INTERACTION
 72: 0x010E [0x24] CREATE_DIALOG(message_id=7738*, default_option=1*, option_flags=0*)
    → "Would you like a petition ledger? [Yes./No, thanks.]"
 73: 0x0115 [0x25] WAIT_DIALOG_SELECT()
 74: 0x0116 [0x02] IF !(Work_Zone[0] == 0*) GOTO 0x012A
 75: 0x011E [0x1D] PRINT_EVENT_MESSAGE(message_id=7745*)
    → "Very well. I'll prepare the necessary paperwork."
 76: 0x0121 [0x23] WAIT_FOR_DIALOG_INTERACTION
 77: 0x0122 [0x03] Work_Zone[1] = 30*
 78: 0x0127 [0x01] GOTO 0x013C
 79: 0x012A [0x02] IF !(Work_Zone[0] == 1*) GOTO 0x013C
 80: 0x0132 [0x39] SET_ENTITY_DIRECTION(direction=ExtData[1]->WorkLocal[0])
 81: 0x0135 [0x1D] PRINT_EVENT_MESSAGE(message_id=7730*)
    → "Have a nice day. Next!"
 82: 0x0138 [0x23] WAIT_FOR_DIALOG_INTERACTION
 83: 0x0139 [0x01] GOTO 0x013C

SUBROUTINE_013C:
 84: 0x013C [0x01] GOTO 0x013F

SUBROUTINE_013F:
 85: 0x013F [0x21] END_EVENT
 86: 0x0140 [0x00] END_REQSTACK()
```

### Event 231

#### Metadata

| Field        | Value    |
|--------------|----------|
| Entrypoint   | 0x0141   |
| Data Size    | 37 bytes |
| Instructions | 9        |

```
      00 01 02 03 04 05 06 07  08 09 0A 0B 0C 0D 0E 0F
      -- -- -- -- -- -- -- --  -- -- -- -- -- -- -- --
0140:    20 01 42 1E F0 FF FF  7F 03 09 10 0F 80 1D 1B    .B............
0150: 80 23 45 1C 80 F0 FF FF  7F F0 FF FF 7F 71 73 74  .#E..........qst
0160: 63 02 80 21 00 00                                 c..!..          
```

#### Opcodes

```
  0: 0x0141 [0x20] SET_CLI_EVENT_UC_FLAG: Lock player control
  1: 0x0143 [0x42] SET_CLI_EVENT_CANCEL_DATA()
  2: 0x0144 [0x1E] EventEntity looks at LocalPlayer and starts talking
  3: 0x0149 [0x03] Work_Zone[9] = 555*
  4: 0x014E [0x1D] PRINT_EVENT_MESSAGE(message_id=7747*)
    → "How's the petition going? Wow, you have quite a lot of signatures here. I'll submit this to the chamber board. I doubt they'll demolish the clock tower now."
  5: 0x0151 [0x23] WAIT_FOR_DIALOG_INTERACTION
  6: 0x0152 [0x45] LOAD_SCHEDULED_TASK: Load scheduler "qstc" with entities [LocalPlayer, LocalPlayer], work=[201*, 0*]
  7: 0x0163 [0x21] END_EVENT
  8: 0x0164 [0x00] END_REQSTACK()
```

#### Data or dead code:

```
# Dead code (unreachable instructions):
     0x0165 [0x00] END_REQSTACK()
```

### Event 10094

#### Metadata

| Field        | Value   |
|--------------|---------|
| Entrypoint   | 0x0166  |
| Data Size    | 5 bytes |
| Instructions | 2       |

```
      00 01 02 03 04 05 06 07  08 09 0A 0B 0C 0D 0E 0F
      -- -- -- -- -- -- -- --  -- -- -- -- -- -- -- --
0160:                   C0 03  80 00 00                       .....     
```

#### Opcodes

```
  0: 0x0166 [0xC0] EventEntity->Render.Flags3 |= 0x1000 // Set bit 12 (from 1*)
  1: 0x0169 [0x00] END_REQSTACK()
```

#### Data or dead code:

```
# Dead code (unreachable instructions):
     0x016A [0x00] END_REQSTACK()
```

### Event 65535.1

#### Metadata

| Field        | Value    |
|--------------|----------|
| Entrypoint   | 0x016B   |
| Data Size    | 20 bytes |
| Instructions | 5        |

```
      00 01 02 03 04 05 06 07  08 09 0A 0B 0C 0D 0E 0F
      -- -- -- -- -- -- -- --  -- -- -- -- -- -- -- --
0160:                                   59 04 0B 50 0F             Y..P.
0170: 01 1D 80 1F 00 1E 80 1F  80 02 80 1F 01 6F 00     .............o. 
```

#### Opcodes

```
  0: 0x016B [0x59] UPDATE_ENTITY_DATA: Set Garnev (ID: 17780747/0x010F500B) main speed = 12* * 0.1
  1: 0x0173 [0x1F] MOVE_ENTITY: EventEntity moves to X=-76.092*, Z=-136.357*, Y=0.000*
  2: 0x017B [0x1F] MOVE_ENTITY: Update entity position (mode=1)
  3: 0x017D [0x6F] WAIT_FRAME_DELAY: Yield until WaitTime reaches zero
  4: 0x017E [0x00] END_REQSTACK()
```

### Event 65535.2

#### Metadata

| Field        | Value    |
|--------------|----------|
| Entrypoint   | 0x017F   |
| Data Size    | 20 bytes |
| Instructions | 5        |

```
      00 01 02 03 04 05 06 07  08 09 0A 0B 0C 0D 0E 0F
      -- -- -- -- -- -- -- --  -- -- -- -- -- -- -- --
0170:                                               59                 Y
0180: 04 1D 50 0F 01 20 80 1F  00 21 80 22 80 02 80 1F  ..P.. ...!."....
0190: 01 6F 00                                          .o.             
```

#### Opcodes

```
  0: 0x017F [0x59] UPDATE_ENTITY_DATA: Set Mataligeat (ID: 17780765/0x010F501D) main speed = 11* * 0.1
  1: 0x0187 [0x1F] MOVE_ENTITY: EventEntity moves to X=-95.337*, Z=-156.056*, Y=0.000*
  2: 0x018F [0x1F] MOVE_ENTITY: Update entity position (mode=1)
  3: 0x0191 [0x6F] WAIT_FRAME_DELAY: Yield until WaitTime reaches zero
  4: 0x0192 [0x00] END_REQSTACK()
```

### Event 65535.3

#### Metadata

| Field        | Value    |
|--------------|----------|
| Entrypoint   | 0x0193   |
| Data Size    | 20 bytes |
| Instructions | 5        |

```
      00 01 02 03 04 05 06 07  08 09 0A 0B 0C 0D 0E 0F
      -- -- -- -- -- -- -- --  -- -- -- -- -- -- -- --
0190:          59 04 1D 50 0F  01 20 80 1F 00 23 80 24     Y..P.. ...#.$
01A0: 80 25 80 1F 01 6F 00                              .%...o.         
```

#### Opcodes

```
  0: 0x0193 [0x59] UPDATE_ENTITY_DATA: Set Mataligeat (ID: 17780765/0x010F501D) main speed = 11* * 0.1
  1: 0x019B [0x1F] MOVE_ENTITY: EventEntity moves to X=-62.073*, Z=-89.873*, Y=5.999*
  2: 0x01A3 [0x1F] MOVE_ENTITY: Update entity position (mode=1)
  3: 0x01A5 [0x6F] WAIT_FRAME_DELAY: Yield until WaitTime reaches zero
  4: 0x01A6 [0x00] END_REQSTACK()
```

### Event 65535.4

#### Metadata

| Field        | Value    |
|--------------|----------|
| Entrypoint   | 0x01A7   |
| Data Size    | 17 bytes |
| Instructions | 2        |

```
      00 01 02 03 04 05 06 07  08 09 0A 0B 0C 0D 0E 0F
      -- -- -- -- -- -- -- --  -- -- -- -- -- -- -- --
01A0:                      5B  26 80 1D 50 0F 01 1D 50         [&..P...P
01B0: 0F 01 6F 70 30 30 00 00                           ..op00..        
```

#### Opcodes

```
  0: 0x01A7 [0x5B] LOAD_EXT_SCHEDULER: Load scheduler "op00" with entities [Mataligeat (ID: 17780765/0x010F501D), Mataligeat (ID: 17780765/0x010F501D)], work=2618*
  1: 0x01B6 [0x00] END_REQSTACK()
```

#### Data or dead code:

```
# Dead code (unreachable instructions):
     0x01B7 [0x00] END_REQSTACK()
```

### Event 65535.5

#### Metadata

| Field        | Value    |
|--------------|----------|
| Entrypoint   | 0x01B8   |
| Data Size    | 20 bytes |
| Instructions | 5        |

```
      00 01 02 03 04 05 06 07  08 09 0A 0B 0C 0D 0E 0F
      -- -- -- -- -- -- -- --  -- -- -- -- -- -- -- --
01B0:                          59 04 3A 50 0F 01 20 80          Y.:P.. .
01C0: 1F 00 21 80 22 80 02 80  1F 01 6F 00              ..!.".....o.    
```

#### Opcodes

```
  0: 0x01B8 [0x59] UPDATE_ENTITY_DATA: Set Navisse (ID: 17780794/0x010F503A) main speed = 11* * 0.1
  1: 0x01C0 [0x1F] MOVE_ENTITY: EventEntity moves to X=-95.337*, Z=-156.056*, Y=0.000*
  2: 0x01C8 [0x1F] MOVE_ENTITY: Update entity position (mode=1)
  3: 0x01CA [0x6F] WAIT_FRAME_DELAY: Yield until WaitTime reaches zero
  4: 0x01CB [0x00] END_REQSTACK()
```

### Event 65535.6

#### Metadata

| Field        | Value    |
|--------------|----------|
| Entrypoint   | 0x01CC   |
| Data Size    | 20 bytes |
| Instructions | 5        |

```
      00 01 02 03 04 05 06 07  08 09 0A 0B 0C 0D 0E 0F
      -- -- -- -- -- -- -- --  -- -- -- -- -- -- -- --
01C0:                                      59 04 2C 50              Y.,P
01D0: 0F 01 1D 80 1F 00 27 80  28 80 02 80 1F 01 6F 00  ......'.(.....o.
```

#### Opcodes

```
  0: 0x01CC [0x59] UPDATE_ENTITY_DATA: Set Jazmin (ID: 17780780/0x010F502C) main speed = 12* * 0.1
  1: 0x01D4 [0x1F] MOVE_ENTITY: EventEntity moves to X=-83.944*, Z=-128.625*, Y=0.000*
  2: 0x01DC [0x1F] MOVE_ENTITY: Update entity position (mode=1)
  3: 0x01DE [0x6F] WAIT_FRAME_DELAY: Yield until WaitTime reaches zero
  4: 0x01DF [0x00] END_REQSTACK()
```

### Event 65535.7

#### Metadata

| Field        | Value    |
|--------------|----------|
| Entrypoint   | 0x01E0   |
| Data Size    | 19 bytes |
| Instructions | 4        |

```
      00 01 02 03 04 05 06 07  08 09 0A 0B 0C 0D 0E 0F
      -- -- -- -- -- -- -- --  -- -- -- -- -- -- -- --
01E0: 59 04 2C 50 0F 01 20 80  1F 00 29 80 2A 80 25 80  Y.,P.. ...).*.%.
01F0: 1F 01 00                                          ...             
```

#### Opcodes

```
  0: 0x01E0 [0x59] UPDATE_ENTITY_DATA: Set Jazmin (ID: 17780780/0x010F502C) main speed = 11* * 0.1
  1: 0x01E8 [0x1F] MOVE_ENTITY: EventEntity moves to X=-68.592*, Z=-96.839*, Y=5.999*
  2: 0x01F0 [0x1F] MOVE_ENTITY: Update entity position (mode=1)
  3: 0x01F2 [0x00] END_REQSTACK()
```

### Event 65535.8

#### Metadata

| Field        | Value    |
|--------------|----------|
| Entrypoint   | 0x01F3   |
| Data Size    | 19 bytes |
| Instructions | 4        |

```
      00 01 02 03 04 05 06 07  08 09 0A 0B 0C 0D 0E 0F
      -- -- -- -- -- -- -- --  -- -- -- -- -- -- -- --
01F0:          59 04 2C 50 0F  01 20 80 1F 00 2B 80 2C     Y.,P.. ...+.,
0200: 80 25 80 1F 01 00                                 .%....          
```

#### Opcodes

```
  0: 0x01F3 [0x59] UPDATE_ENTITY_DATA: Set Jazmin (ID: 17780780/0x010F502C) main speed = 11* * 0.1
  1: 0x01FB [0x1F] MOVE_ENTITY: EventEntity moves to X=-70.511*, Z=-102.750*, Y=5.999*
  2: 0x0203 [0x1F] MOVE_ENTITY: Update entity position (mode=1)
  3: 0x0205 [0x00] END_REQSTACK()
```

### Event 65535.9

#### Metadata

| Field        | Value    |
|--------------|----------|
| Entrypoint   | 0x0206   |
| Data Size    | 16 bytes |
| Instructions | 2        |

```
      00 01 02 03 04 05 06 07  08 09 0A 0B 0C 0D 0E 0F
      -- -- -- -- -- -- -- --  -- -- -- -- -- -- -- --
0200:                   5B 2D  80 2C 50 0F 01 2C 50 0F        [-.,P..,P.
0210: 01 6F 70 30 30 00                                 .op00.          
```

#### Opcodes

```
  0: 0x0206 [0x5B] LOAD_EXT_SCHEDULER: Load scheduler "op00" with entities [Jazmin (ID: 17780780/0x010F502C), Jazmin (ID: 17780780/0x010F502C)], work=2602*
  1: 0x0215 [0x00] END_REQSTACK()
```

### Event 65535.10

#### Metadata

| Field        | Value    |
|--------------|----------|
| Entrypoint   | 0x0216   |
| Data Size    | 16 bytes |
| Instructions | 2        |

```
      00 01 02 03 04 05 06 07  08 09 0A 0B 0C 0D 0E 0F
      -- -- -- -- -- -- -- --  -- -- -- -- -- -- -- --
0210:                   5B 2D  80 2C 50 0F 01 2C 50 0F        [-.,P..,P.
0220: 01 6F 70 30 31 00                                 .op01.          
```

#### Opcodes

```
  0: 0x0216 [0x5B] LOAD_EXT_SCHEDULER: Load scheduler "op01" with entities [Jazmin (ID: 17780780/0x010F502C), Jazmin (ID: 17780780/0x010F502C)], work=2602*
  1: 0x0225 [0x00] END_REQSTACK()
```

### Event 65535.11

#### Metadata

| Field        | Value    |
|--------------|----------|
| Entrypoint   | 0x0226   |
| Data Size    | 20 bytes |
| Instructions | 5        |

```
      00 01 02 03 04 05 06 07  08 09 0A 0B 0C 0D 0E 0F
      -- -- -- -- -- -- -- --  -- -- -- -- -- -- -- --
0220:                   59 04  2C 50 0F 01 20 80 1F 00        Y.,P.. ...
0230: 2E 80 2F 80 25 80 1F 01  6F 00                    ../.%...o.      
```

#### Opcodes

```
  0: 0x0226 [0x59] UPDATE_ENTITY_DATA: Set Jazmin (ID: 17780780/0x010F502C) main speed = 11* * 0.1
  1: 0x022E [0x1F] MOVE_ENTITY: EventEntity moves to X=-72.366*, Z=-118.167*, Y=5.999*
  2: 0x0236 [0x1F] MOVE_ENTITY: Update entity position (mode=1)
  3: 0x0238 [0x6F] WAIT_FRAME_DELAY: Yield until WaitTime reaches zero
  4: 0x0239 [0x00] END_REQSTACK()
```

### Event 65535.12

#### Metadata

| Field        | Value    |
|--------------|----------|
| Entrypoint   | 0x023A   |
| Data Size    | 16 bytes |
| Instructions | 2        |

```
      00 01 02 03 04 05 06 07  08 09 0A 0B 0C 0D 0E 0F
      -- -- -- -- -- -- -- --  -- -- -- -- -- -- -- --
0230:                                5B 30 80 2C 50 0F            [0.,P.
0240: 01 2C 50 0F 01 6F 70 61  30 00                    .,P..opa0.      
```

#### Opcodes

```
  0: 0x023A [0x5B] LOAD_EXT_SCHEDULER: Load scheduler "opa0" with entities [Jazmin (ID: 17780780/0x010F502C), Jazmin (ID: 17780780/0x010F502C)], work=2617*
  1: 0x0249 [0x00] END_REQSTACK()
```

### Event 65535.13

#### Metadata

| Field        | Value    |
|--------------|----------|
| Entrypoint   | 0x024A   |
| Data Size    | 16 bytes |
| Instructions | 2        |

```
      00 01 02 03 04 05 06 07  08 09 0A 0B 0C 0D 0E 0F
      -- -- -- -- -- -- -- --  -- -- -- -- -- -- -- --
0240:                                5B 30 80 2C 50 0F            [0.,P.
0250: 01 2C 50 0F 01 6F 70 61  31 00                    .,P..opa1.      
```

#### Opcodes

```
  0: 0x024A [0x5B] LOAD_EXT_SCHEDULER: Load scheduler "opa1" with entities [Jazmin (ID: 17780780/0x010F502C), Jazmin (ID: 17780780/0x010F502C)], work=2617*
  1: 0x0259 [0x00] END_REQSTACK()
```

### Event 65535.14

#### Metadata

| Field        | Value    |
|--------------|----------|
| Entrypoint   | 0x025A   |
| Data Size    | 16 bytes |
| Instructions | 2        |

```
      00 01 02 03 04 05 06 07  08 09 0A 0B 0C 0D 0E 0F
      -- -- -- -- -- -- -- --  -- -- -- -- -- -- -- --
0250:                                5B 30 80 2C 50 0F            [0.,P.
0260: 01 2C 50 0F 01 6F 70 61  32 00                    .,P..opa2.      
```

#### Opcodes

```
  0: 0x025A [0x5B] LOAD_EXT_SCHEDULER: Load scheduler "opa2" with entities [Jazmin (ID: 17780780/0x010F502C), Jazmin (ID: 17780780/0x010F502C)], work=2617*
  1: 0x0269 [0x00] END_REQSTACK()
```

### Event 65535.15

#### Metadata

| Field        | Value    |
|--------------|----------|
| Entrypoint   | 0x026A   |
| Data Size    | 21 bytes |
| Instructions | 5        |

```
      00 01 02 03 04 05 06 07  08 09 0A 0B 0C 0D 0E 0F
      -- -- -- -- -- -- -- --  -- -- -- -- -- -- -- --
0260:                                59 04 2E 50 0F 01            Y..P..
0270: 1D 80 1F 00 1E 80 1F 80  02 80 1F 01 6F 00 00     ............o.. 
```

#### Opcodes

```
  0: 0x026A [0x59] UPDATE_ENTITY_DATA: Set Bogharg (ID: 17780782/0x010F502E) main speed = 12* * 0.1
  1: 0x0272 [0x1F] MOVE_ENTITY: EventEntity moves to X=-76.092*, Z=-136.357*, Y=0.000*
  2: 0x027A [0x1F] MOVE_ENTITY: Update entity position (mode=1)
  3: 0x027C [0x6F] WAIT_FRAME_DELAY: Yield until WaitTime reaches zero
  4: 0x027D [0x00] END_REQSTACK()
```

#### Data or dead code:

```
# Dead code (unreachable instructions):
     0x027E [0x00] END_REQSTACK()
```

### Event 65535.16

#### Metadata

| Field        | Value    |
|--------------|----------|
| Entrypoint   | 0x027F   |
| Data Size    | 16 bytes |
| Instructions | 2        |

```
      00 01 02 03 04 05 06 07  08 09 0A 0B 0C 0D 0E 0F
      -- -- -- -- -- -- -- --  -- -- -- -- -- -- -- --
0270:                                               66                 f
0280: 31 80 2E 50 0F 01 2E 50  0F 01 74 68 6B 31 00     1..P...P..thk1. 
```

#### Opcodes

```
  0: 0x027F [0x66] LOAD_EXT_SCHEDULER_MAIN: Load scheduler "thk1" with entities [Bogharg (ID: 17780782/0x010F502E), Bogharg (ID: 17780782/0x010F502E)], work=69*
  1: 0x028E [0x00] END_REQSTACK()
```

### Event 65535.17

#### Metadata

| Field        | Value    |
|--------------|----------|
| Entrypoint   | 0x028F   |
| Data Size    | 16 bytes |
| Instructions | 2        |

```
      00 01 02 03 04 05 06 07  08 09 0A 0B 0C 0D 0E 0F
      -- -- -- -- -- -- -- --  -- -- -- -- -- -- -- --
0280:                                               66                 f
0290: 31 80 2E 50 0F 01 2E 50  0F 01 74 68 6B 32 00     1..P...P..thk2. 
```

#### Opcodes

```
  0: 0x028F [0x66] LOAD_EXT_SCHEDULER_MAIN: Load scheduler "thk2" with entities [Bogharg (ID: 17780782/0x010F502E), Bogharg (ID: 17780782/0x010F502E)], work=69*
  1: 0x029E [0x00] END_REQSTACK()
```

### Event 65535.18

#### Metadata

| Field        | Value    |
|--------------|----------|
| Entrypoint   | 0x029F   |
| Data Size    | 20 bytes |
| Instructions | 5        |

```
      00 01 02 03 04 05 06 07  08 09 0A 0B 0C 0D 0E 0F
      -- -- -- -- -- -- -- --  -- -- -- -- -- -- -- --
0290:                                               59                 Y
02A0: 04 2E 50 0F 01 1D 80 1F  00 32 80 33 80 25 80 1F  ..P......2.3.%..
02B0: 01 6F 00                                          .o.             
```

#### Opcodes

```
  0: 0x029F [0x59] UPDATE_ENTITY_DATA: Set Bogharg (ID: 17780782/0x010F502E) main speed = 12* * 0.1
  1: 0x02A7 [0x1F] MOVE_ENTITY: EventEntity moves to X=-56.992*, Z=-88.050*, Y=5.999*
  2: 0x02AF [0x1F] MOVE_ENTITY: Update entity position (mode=1)
  3: 0x02B1 [0x6F] WAIT_FRAME_DELAY: Yield until WaitTime reaches zero
  4: 0x02B2 [0x00] END_REQSTACK()
```

### Event 65535.19

#### Metadata

| Field        | Value    |
|--------------|----------|
| Entrypoint   | 0x02B3   |
| Data Size    | 17 bytes |
| Instructions | 2        |

```
      00 01 02 03 04 05 06 07  08 09 0A 0B 0C 0D 0E 0F
      -- -- -- -- -- -- -- --  -- -- -- -- -- -- -- --
02B0:          5B 34 80 2E 50  0F 01 2E 50 0F 01 6F 70     [4..P...P..op
02C0: 30 30 00 00                                       00..            
```

#### Opcodes

```
  0: 0x02B3 [0x5B] LOAD_EXT_SCHEDULER: Load scheduler "op00" with entities [Bogharg (ID: 17780782/0x010F502E), Bogharg (ID: 17780782/0x010F502E)], work=2621*
  1: 0x02C2 [0x00] END_REQSTACK()
```

#### Data or dead code:

```
# Dead code (unreachable instructions):
     0x02C3 [0x00] END_REQSTACK()
```

### Event 65535.20

#### Metadata

| Field        | Value    |
|--------------|----------|
| Entrypoint   | 0x02C4   |
| Data Size    | 20 bytes |
| Instructions | 5        |

```
      00 01 02 03 04 05 06 07  08 09 0A 0B 0C 0D 0E 0F
      -- -- -- -- -- -- -- --  -- -- -- -- -- -- -- --
02C0:             59 04 31 50  0F 01 20 80 1F 00 27 80      Y.1P.. ...'.
02D0: 28 80 02 80 1F 01 6F 00                           (.....o.        
```

#### Opcodes

```
  0: 0x02C4 [0x59] UPDATE_ENTITY_DATA: Set Nakho Jawantal (ID: 17780785/0x010F5031) main speed = 11* * 0.1
  1: 0x02CC [0x1F] MOVE_ENTITY: EventEntity moves to X=-83.944*, Z=-128.625*, Y=0.000*
  2: 0x02D4 [0x1F] MOVE_ENTITY: Update entity position (mode=1)
  3: 0x02D6 [0x6F] WAIT_FRAME_DELAY: Yield until WaitTime reaches zero
  4: 0x02D7 [0x00] END_REQSTACK()
```

### Event 65535.21

#### Metadata

| Field        | Value    |
|--------------|----------|
| Entrypoint   | 0x02D8   |
| Data Size    | 16 bytes |
| Instructions | 2        |

```
      00 01 02 03 04 05 06 07  08 09 0A 0B 0C 0D 0E 0F
      -- -- -- -- -- -- -- --  -- -- -- -- -- -- -- --
02D0:                          5B 35 80 12 50 0F 01 12          [5..P...
02E0: 50 0F 01 6F 70 61 30 00                           P..opa0.        
```

#### Opcodes

```
  0: 0x02D8 [0x5B] LOAD_EXT_SCHEDULER: Load scheduler "opa0" with entities [Tovrutaux (ID: 17780754/0x010F5012), Tovrutaux (ID: 17780754/0x010F5012)], work=2627*
  1: 0x02E7 [0x00] END_REQSTACK()
```

### Event 65535.22

#### Metadata

| Field        | Value    |
|--------------|----------|
| Entrypoint   | 0x02E8   |
| Data Size    | 16 bytes |
| Instructions | 2        |

```
      00 01 02 03 04 05 06 07  08 09 0A 0B 0C 0D 0E 0F
      -- -- -- -- -- -- -- --  -- -- -- -- -- -- -- --
02E0:                          5B 35 80 12 50 0F 01 12          [5..P...
02F0: 50 0F 01 6F 70 61 31 00                           P..opa1.        
```

#### Opcodes

```
  0: 0x02E8 [0x5B] LOAD_EXT_SCHEDULER: Load scheduler "opa1" with entities [Tovrutaux (ID: 17780754/0x010F5012), Tovrutaux (ID: 17780754/0x010F5012)], work=2627*
  1: 0x02F7 [0x00] END_REQSTACK()
```

### Event 65535.23

#### Metadata

| Field        | Value    |
|--------------|----------|
| Entrypoint   | 0x02F8   |
| Data Size    | 16 bytes |
| Instructions | 2        |

```
      00 01 02 03 04 05 06 07  08 09 0A 0B 0C 0D 0E 0F
      -- -- -- -- -- -- -- --  -- -- -- -- -- -- -- --
02F0:                          5B 35 80 12 50 0F 01 12          [5..P...
0300: 50 0F 01 6F 70 61 32 00                           P..opa2.        
```

#### Opcodes

```
  0: 0x02F8 [0x5B] LOAD_EXT_SCHEDULER: Load scheduler "opa2" with entities [Tovrutaux (ID: 17780754/0x010F5012), Tovrutaux (ID: 17780754/0x010F5012)], work=2627*
  1: 0x0307 [0x00] END_REQSTACK()
```

### Event 65535.24

#### Metadata

| Field        | Value    |
|--------------|----------|
| Entrypoint   | 0x0308   |
| Data Size    | 16 bytes |
| Instructions | 2        |

```
      00 01 02 03 04 05 06 07  08 09 0A 0B 0C 0D 0E 0F
      -- -- -- -- -- -- -- --  -- -- -- -- -- -- -- --
0300:                          5B 36 80 12 50 0F 01 12          [6..P...
0310: 50 0F 01 74 68 6B 31 00                           P..thk1.        
```

#### Opcodes

```
  0: 0x0308 [0x5B] LOAD_EXT_SCHEDULER: Load scheduler "thk1" with entities [Tovrutaux (ID: 17780754/0x010F5012), Tovrutaux (ID: 17780754/0x010F5012)], work=75*
  1: 0x0317 [0x00] END_REQSTACK()
```

### Event 65535.25

#### Metadata

| Field        | Value    |
|--------------|----------|
| Entrypoint   | 0x0318   |
| Data Size    | 16 bytes |
| Instructions | 2        |

```
      00 01 02 03 04 05 06 07  08 09 0A 0B 0C 0D 0E 0F
      -- -- -- -- -- -- -- --  -- -- -- -- -- -- -- --
0310:                          5B 36 80 12 50 0F 01 12          [6..P...
0320: 50 0F 01 74 68 6B 32 00                           P..thk2.        
```

#### Opcodes

```
  0: 0x0318 [0x5B] LOAD_EXT_SCHEDULER: Load scheduler "thk2" with entities [Tovrutaux (ID: 17780754/0x010F5012), Tovrutaux (ID: 17780754/0x010F5012)], work=75*
  1: 0x0327 [0x00] END_REQSTACK()
```

### Event 65535.26

#### Metadata

| Field        | Value    |
|--------------|----------|
| Entrypoint   | 0x0328   |
| Data Size    | 16 bytes |
| Instructions | 2        |

```
      00 01 02 03 04 05 06 07  08 09 0A 0B 0C 0D 0E 0F
      -- -- -- -- -- -- -- --  -- -- -- -- -- -- -- --
0320:                          5B 36 80 12 50 0F 01 12          [6..P...
0330: 50 0F 01 74 6C 6B 30 00                           P..tlk0.        
```

#### Opcodes

```
  0: 0x0328 [0x5B] LOAD_EXT_SCHEDULER: Load scheduler "tlk0" with entities [Tovrutaux (ID: 17780754/0x010F5012), Tovrutaux (ID: 17780754/0x010F5012)], work=75*
  1: 0x0337 [0x00] END_REQSTACK()
```

### Event 65535.27

#### Metadata

| Field        | Value    |
|--------------|----------|
| Entrypoint   | 0x0338   |
| Data Size    | 16 bytes |
| Instructions | 2        |

```
      00 01 02 03 04 05 06 07  08 09 0A 0B 0C 0D 0E 0F
      -- -- -- -- -- -- -- --  -- -- -- -- -- -- -- --
0330:                          5B 36 80 12 50 0F 01 12          [6..P...
0340: 50 0F 01 74 6C 6B 31 00                           P..tlk1.        
```

#### Opcodes

```
  0: 0x0338 [0x5B] LOAD_EXT_SCHEDULER: Load scheduler "tlk1" with entities [Tovrutaux (ID: 17780754/0x010F5012), Tovrutaux (ID: 17780754/0x010F5012)], work=75*
  1: 0x0347 [0x00] END_REQSTACK()
```

### Event 65535.28

#### Metadata

| Field        | Value    |
|--------------|----------|
| Entrypoint   | 0x0348   |
| Data Size    | 12 bytes |
| Instructions | 4        |

```
      00 01 02 03 04 05 06 07  08 09 0A 0B 0C 0D 0E 0F
      -- -- -- -- -- -- -- --  -- -- -- -- -- -- -- --
0340:                          1F 00 37 80 38 80 02 80          ..7.8...
0350: 1F 01 6F 00                                       ..o.            
```

#### Opcodes

```
  0: 0x0348 [0x1F] MOVE_ENTITY: EventEntity moves to X=-19.954*, Z=-20.950*, Y=0.000*
  1: 0x0350 [0x1F] MOVE_ENTITY: Update entity position (mode=1)
  2: 0x0352 [0x6F] WAIT_FRAME_DELAY: Yield until WaitTime reaches zero
  3: 0x0353 [0x00] END_REQSTACK()
```

### Event 65535.29

#### Metadata

| Field        | Value    |
|--------------|----------|
| Entrypoint   | 0x0354   |
| Data Size    | 20 bytes |
| Instructions | 5        |

```
      00 01 02 03 04 05 06 07  08 09 0A 0B 0C 0D 0E 0F
      -- -- -- -- -- -- -- --  -- -- -- -- -- -- -- --
0350:             59 04 13 50  0F 01 20 80 1F 00 39 80      Y..P.. ...9.
0360: 3A 80 25 80 1F 01 6F 00                           :.%...o.        
```

#### Opcodes

```
  0: 0x0354 [0x59] UPDATE_ENTITY_DATA: Set Seyaya (ID: 17780755/0x010F5013) main speed = 11* * 0.1
  1: 0x035C [0x1F] MOVE_ENTITY: EventEntity moves to X=-74.699*, Z=-107.115*, Y=5.999*
  2: 0x0364 [0x1F] MOVE_ENTITY: Update entity position (mode=1)
  3: 0x0366 [0x6F] WAIT_FRAME_DELAY: Yield until WaitTime reaches zero
  4: 0x0367 [0x00] END_REQSTACK()
```

### Event 65535.30

#### Metadata

| Field        | Value    |
|--------------|----------|
| Entrypoint   | 0x0368   |
| Data Size    | 17 bytes |
| Instructions | 2        |

```
      00 01 02 03 04 05 06 07  08 09 0A 0B 0C 0D 0E 0F
      -- -- -- -- -- -- -- --  -- -- -- -- -- -- -- --
0360:                          5B 3B 80 13 50 0F 01 13          [;..P...
0370: 50 0F 01 6F 70 61 30 00  00                       P..opa0..       
```

#### Opcodes

```
  0: 0x0368 [0x5B] LOAD_EXT_SCHEDULER: Load scheduler "opa0" with entities [Seyaya (ID: 17780755/0x010F5013), Seyaya (ID: 17780755/0x010F5013)], work=2631*
  1: 0x0377 [0x00] END_REQSTACK()
```

#### Data or dead code:

```
# Dead code (unreachable instructions):
     0x0378 [0x00] END_REQSTACK()
```

### Event 65535.31

#### Metadata

| Field        | Value    |
|--------------|----------|
| Entrypoint   | 0x0379   |
| Data Size    | 17 bytes |
| Instructions | 2        |

```
      00 01 02 03 04 05 06 07  08 09 0A 0B 0C 0D 0E 0F
      -- -- -- -- -- -- -- --  -- -- -- -- -- -- -- --
0370:                             5B 3B 80 13 50 0F 01           [;..P..
0380: 13 50 0F 01 6F 70 61 31  00 00                    .P..opa1..      
```

#### Opcodes

```
  0: 0x0379 [0x5B] LOAD_EXT_SCHEDULER: Load scheduler "opa1" with entities [Seyaya (ID: 17780755/0x010F5013), Seyaya (ID: 17780755/0x010F5013)], work=2631*
  1: 0x0388 [0x00] END_REQSTACK()
```

#### Data or dead code:

```
# Dead code (unreachable instructions):
     0x0389 [0x00] END_REQSTACK()
```

### Event 65535.32

#### Metadata

| Field        | Value    |
|--------------|----------|
| Entrypoint   | 0x038A   |
| Data Size    | 16 bytes |
| Instructions | 2        |

```
      00 01 02 03 04 05 06 07  08 09 0A 0B 0C 0D 0E 0F
      -- -- -- -- -- -- -- --  -- -- -- -- -- -- -- --
0380:                                5B 3B 80 13 50 0F            [;..P.
0390: 01 13 50 0F 01 6F 70 61  32 00                    ..P..opa2.      
```

#### Opcodes

```
  0: 0x038A [0x5B] LOAD_EXT_SCHEDULER: Load scheduler "opa2" with entities [Seyaya (ID: 17780755/0x010F5013), Seyaya (ID: 17780755/0x010F5013)], work=2631*
  1: 0x0399 [0x00] END_REQSTACK()
```

### Event 65535.33

#### Metadata

| Field        | Value    |
|--------------|----------|
| Entrypoint   | 0x039A   |
| Data Size    | 16 bytes |
| Instructions | 2        |

```
      00 01 02 03 04 05 06 07  08 09 0A 0B 0C 0D 0E 0F
      -- -- -- -- -- -- -- --  -- -- -- -- -- -- -- --
0390:                                5B 3C 80 13 50 0F            [<..P.
03A0: 01 13 50 0F 01 74 68 6B  31 00                    ..P..thk1.      
```

#### Opcodes

```
  0: 0x039A [0x5B] LOAD_EXT_SCHEDULER: Load scheduler "thk1" with entities [Seyaya (ID: 17780755/0x010F5013), Seyaya (ID: 17780755/0x010F5013)], work=85*
  1: 0x03A9 [0x00] END_REQSTACK()
```

### Event 65535.34

#### Metadata

| Field        | Value    |
|--------------|----------|
| Entrypoint   | 0x03AA   |
| Data Size    | 16 bytes |
| Instructions | 2        |

```
      00 01 02 03 04 05 06 07  08 09 0A 0B 0C 0D 0E 0F
      -- -- -- -- -- -- -- --  -- -- -- -- -- -- -- --
03A0:                                5B 3C 80 13 50 0F            [<..P.
03B0: 01 13 50 0F 01 74 68 6B  32 00                    ..P..thk2.      
```

#### Opcodes

```
  0: 0x03AA [0x5B] LOAD_EXT_SCHEDULER: Load scheduler "thk2" with entities [Seyaya (ID: 17780755/0x010F5013), Seyaya (ID: 17780755/0x010F5013)], work=85*
  1: 0x03B9 [0x00] END_REQSTACK()
```

### Event 65535.35

#### Metadata

| Field        | Value    |
|--------------|----------|
| Entrypoint   | 0x03BA   |
| Data Size    | 16 bytes |
| Instructions | 2        |

```
      00 01 02 03 04 05 06 07  08 09 0A 0B 0C 0D 0E 0F
      -- -- -- -- -- -- -- --  -- -- -- -- -- -- -- --
03B0:                                5B 3C 80 13 50 0F            [<..P.
03C0: 01 13 50 0F 01 74 6C 6B  30 00                    ..P..tlk0.      
```

#### Opcodes

```
  0: 0x03BA [0x5B] LOAD_EXT_SCHEDULER: Load scheduler "tlk0" with entities [Seyaya (ID: 17780755/0x010F5013), Seyaya (ID: 17780755/0x010F5013)], work=85*
  1: 0x03C9 [0x00] END_REQSTACK()
```

### Event 65535.36

#### Metadata

| Field        | Value    |
|--------------|----------|
| Entrypoint   | 0x03CA   |
| Data Size    | 16 bytes |
| Instructions | 2        |

```
      00 01 02 03 04 05 06 07  08 09 0A 0B 0C 0D 0E 0F
      -- -- -- -- -- -- -- --  -- -- -- -- -- -- -- --
03C0:                                5B 3C 80 13 50 0F            [<..P.
03D0: 01 13 50 0F 01 74 6C 6B  65 00                    ..P..tlke.      
```

#### Opcodes

```
  0: 0x03CA [0x5B] LOAD_EXT_SCHEDULER: Load scheduler "tlke" with entities [Seyaya (ID: 17780755/0x010F5013), Seyaya (ID: 17780755/0x010F5013)], work=85*
  1: 0x03D9 [0x00] END_REQSTACK()
```

### Event 65535.37

#### Metadata

| Field        | Value    |
|--------------|----------|
| Entrypoint   | 0x03DA   |
| Data Size    | 16 bytes |
| Instructions | 2        |

```
      00 01 02 03 04 05 06 07  08 09 0A 0B 0C 0D 0E 0F
      -- -- -- -- -- -- -- --  -- -- -- -- -- -- -- --
03D0:                                5B 3C 80 13 50 0F            [<..P.
03E0: 01 13 50 0F 01 62 61 6E  30 00                    ..P..ban0.      
```

#### Opcodes

```
  0: 0x03DA [0x5B] LOAD_EXT_SCHEDULER: Load scheduler "ban0" with entities [Seyaya (ID: 17780755/0x010F5013), Seyaya (ID: 17780755/0x010F5013)], work=85*
  1: 0x03E9 [0x00] END_REQSTACK()
```

### Event 65535.38

#### Metadata

| Field        | Value    |
|--------------|----------|
| Entrypoint   | 0x03EA   |
| Data Size    | 13 bytes |
| Instructions | 4        |

```
      00 01 02 03 04 05 06 07  08 09 0A 0B 0C 0D 0E 0F
      -- -- -- -- -- -- -- --  -- -- -- -- -- -- -- --
03E0:                                1F 00 3D 80 3E 80            ..=.>.
03F0: 02 80 1F 01 6F 00 00                              ....o..         
```

#### Opcodes

```
  0: 0x03EA [0x1F] MOVE_ENTITY: EventEntity moves to X=-19.857*, Z=-21.712*, Y=0.000*
  1: 0x03F2 [0x1F] MOVE_ENTITY: Update entity position (mode=1)
  2: 0x03F4 [0x6F] WAIT_FRAME_DELAY: Yield until WaitTime reaches zero
  3: 0x03F5 [0x00] END_REQSTACK()
```

#### Data or dead code:

```
# Dead code (unreachable instructions):
     0x03F6 [0x00] END_REQSTACK()
```

### Event 65535.39

#### Metadata

| Field        | Value    |
|--------------|----------|
| Entrypoint   | 0x03F7   |
| Data Size    | 20 bytes |
| Instructions | 5        |

```
      00 01 02 03 04 05 06 07  08 09 0A 0B 0C 0D 0E 0F
      -- -- -- -- -- -- -- --  -- -- -- -- -- -- -- --
03F0:                      59  04 C0 50 0F 01 3F 80 1F         Y..P..?..
0400: 00 40 80 41 80 02 80 1F  01 6F 00                 .@.A.....o.     
```

#### Opcodes

```
  0: 0x03F7 [0x59] UPDATE_ENTITY_DATA: Set Rakuru-Rakoru (ID: 17780928/0x010F50C0) main speed = 14* * 0.1
  1: 0x03FF [0x1F] MOVE_ENTITY: EventEntity moves to X=-37.763*, Z=-62.812*, Y=0.000*
  2: 0x0407 [0x1F] MOVE_ENTITY: Update entity position (mode=1)
  3: 0x0409 [0x6F] WAIT_FRAME_DELAY: Yield until WaitTime reaches zero
  4: 0x040A [0x00] END_REQSTACK()
```

### Event 65535.40

#### Metadata

| Field        | Value    |
|--------------|----------|
| Entrypoint   | 0x040B   |
| Data Size    | 12 bytes |
| Instructions | 4        |

```
      00 01 02 03 04 05 06 07  08 09 0A 0B 0C 0D 0E 0F
      -- -- -- -- -- -- -- --  -- -- -- -- -- -- -- --
0400:                                   1F 00 42 80 43             ..B.C
0410: 80 44 80 1F 01 6F 00                              .D...o.         
```

#### Opcodes

```
  0: 0x040B [0x1F] MOVE_ENTITY: EventEntity moves to X=-13.366*, Z=2.528*, Y=-0.449*
  1: 0x0413 [0x1F] MOVE_ENTITY: Update entity position (mode=1)
  2: 0x0415 [0x6F] WAIT_FRAME_DELAY: Yield until WaitTime reaches zero
  3: 0x0416 [0x00] END_REQSTACK()
```

### Event 65535.41

#### Metadata

| Field        | Value    |
|--------------|----------|
| Entrypoint   | 0x0417   |
| Data Size    | 16 bytes |
| Instructions | 2        |

```
      00 01 02 03 04 05 06 07  08 09 0A 0B 0C 0D 0E 0F
      -- -- -- -- -- -- -- --  -- -- -- -- -- -- -- --
0410:                      66  45 80 C0 50 0F 01 C0 50         fE..P...P
0420: 0F 01 74 6C 6B 30 00                              ..tlk0.         
```

#### Opcodes

```
  0: 0x0417 [0x66] LOAD_EXT_SCHEDULER_MAIN: Load scheduler "tlk0" with entities [Rakuru-Rakoru (ID: 17780928/0x010F50C0), Rakuru-Rakoru (ID: 17780928/0x010F50C0)], work=40*
  1: 0x0426 [0x00] END_REQSTACK()
```

### Event 65535.42

#### Metadata

| Field        | Value    |
|--------------|----------|
| Entrypoint   | 0x0427   |
| Data Size    | 16 bytes |
| Instructions | 2        |

```
      00 01 02 03 04 05 06 07  08 09 0A 0B 0C 0D 0E 0F
      -- -- -- -- -- -- -- --  -- -- -- -- -- -- -- --
0420:                      66  46 80 C0 50 0F 01 C0 50         fF..P...P
0430: 0F 01 65 68 6E 31 00                              ..ehn1.         
```

#### Opcodes

```
  0: 0x0427 [0x66] LOAD_EXT_SCHEDULER_MAIN: Load scheduler "ehn1" with entities [Rakuru-Rakoru (ID: 17780928/0x010F50C0), Rakuru-Rakoru (ID: 17780928/0x010F50C0)], work=41*
  1: 0x0436 [0x00] END_REQSTACK()
```

### Event 65535.43

#### Metadata

| Field        | Value    |
|--------------|----------|
| Entrypoint   | 0x0437   |
| Data Size    | 16 bytes |
| Instructions | 2        |

```
      00 01 02 03 04 05 06 07  08 09 0A 0B 0C 0D 0E 0F
      -- -- -- -- -- -- -- --  -- -- -- -- -- -- -- --
0430:                      66  45 80 C0 50 0F 01 C0 50         fE..P...P
0440: 0F 01 6D 6F 6A 30 00                              ..moj0.         
```

#### Opcodes

```
  0: 0x0437 [0x66] LOAD_EXT_SCHEDULER_MAIN: Load scheduler "moj0" with entities [Rakuru-Rakoru (ID: 17780928/0x010F50C0), Rakuru-Rakoru (ID: 17780928/0x010F50C0)], work=40*
  1: 0x0446 [0x00] END_REQSTACK()
```

### Event 65535.44

#### Metadata

| Field        | Value    |
|--------------|----------|
| Entrypoint   | 0x0447   |
| Data Size    | 20 bytes |
| Instructions | 5        |

```
      00 01 02 03 04 05 06 07  08 09 0A 0B 0C 0D 0E 0F
      -- -- -- -- -- -- -- --  -- -- -- -- -- -- -- --
0440:                      59  04 C0 50 0F 01 3F 80 1F         Y..P..?..
0450: 00 47 80 48 80 25 80 1F  01 6F 00                 .G.H.%...o.     
```

#### Opcodes

```
  0: 0x0447 [0x59] UPDATE_ENTITY_DATA: Set Rakuru-Rakoru (ID: 17780928/0x010F50C0) main speed = 14* * 0.1
  1: 0x044F [0x1F] MOVE_ENTITY: EventEntity moves to X=-71.130*, Z=-110.791*, Y=5.999*
  2: 0x0457 [0x1F] MOVE_ENTITY: Update entity position (mode=1)
  3: 0x0459 [0x6F] WAIT_FRAME_DELAY: Yield until WaitTime reaches zero
  4: 0x045A [0x00] END_REQSTACK()
```

### Event 65535.45

#### Metadata

| Field        | Value    |
|--------------|----------|
| Entrypoint   | 0x045B   |
| Data Size    | 29 bytes |
| Instructions | 6        |

```
      00 01 02 03 04 05 06 07  08 09 0A 0B 0C 0D 0E 0F
      -- -- -- -- -- -- -- --  -- -- -- -- -- -- -- --
0450:                                   59 04 C0 50 0F             Y..P.
0460: 01 3F 80 1F 00 49 80 4A  80 25 80 1F 01 5A 00 4B  .?...I.J.%...Z.K
0470: 80 4C 80 4D 80 5A 01 00                           .L.M.Z..        
```

#### Opcodes

```
  0: 0x045B [0x59] UPDATE_ENTITY_DATA: Set Rakuru-Rakoru (ID: 17780928/0x010F50C0) main speed = 14* * 0.1
  1: 0x0463 [0x1F] MOVE_ENTITY: EventEntity moves to X=-75.540*, Z=-116.545*, Y=5.999*
  2: 0x046B [0x1F] MOVE_ENTITY: Update entity position (mode=1)
  3: 0x046D [0x5A] UPDATE_EVENT_POSITION: Set EventEntity MovePosition to X=-80.452*, Z=-125.376*, Y=0.999*
  4: 0x0475 [0x5A] UPDATE_EVENT_POSITION: Move EventEntity incrementally towards MovePosition
  5: 0x0477 [0x00] END_REQSTACK()
```

### Event 65535.46

#### Metadata

| Field        | Value    |
|--------------|----------|
| Entrypoint   | 0x0478   |
| Data Size    | 17 bytes |
| Instructions | 2        |

```
      00 01 02 03 04 05 06 07  08 09 0A 0B 0C 0D 0E 0F
      -- -- -- -- -- -- -- --  -- -- -- -- -- -- -- --
0470:                          5B 4E 80 C0 50 0F 01 C0          [N..P...
0480: 50 0F 01 62 6F 70 30 00  00                       P..bop0..       
```

#### Opcodes

```
  0: 0x0478 [0x5B] LOAD_EXT_SCHEDULER: Load scheduler "bop0" with entities [Rakuru-Rakoru (ID: 17780928/0x010F50C0), Rakuru-Rakoru (ID: 17780928/0x010F50C0)], work=2611*
  1: 0x0487 [0x00] END_REQSTACK()
```

#### Data or dead code:

```
# Dead code (unreachable instructions):
     0x0488 [0x00] END_REQSTACK()
```

### Event 65535.47

#### Metadata

| Field        | Value    |
|--------------|----------|
| Entrypoint   | 0x0489   |
| Data Size    | 20 bytes |
| Instructions | 5        |

```
      00 01 02 03 04 05 06 07  08 09 0A 0B 0C 0D 0E 0F
      -- -- -- -- -- -- -- --  -- -- -- -- -- -- -- --
0480:                             59 04 25 50 0F 01 4F           Y.%P..O
0490: 80 1F 00 27 80 28 80 02  80 1F 01 6F 00           ...'.(.....o.   
```

#### Opcodes

```
  0: 0x0489 [0x59] UPDATE_ENTITY_DATA: Set Sutarara (ID: 17780773/0x010F5025) main speed = 13* * 0.1
  1: 0x0491 [0x1F] MOVE_ENTITY: EventEntity moves to X=-83.944*, Z=-128.625*, Y=0.000*
  2: 0x0499 [0x1F] MOVE_ENTITY: Update entity position (mode=1)
  3: 0x049B [0x6F] WAIT_FRAME_DELAY: Yield until WaitTime reaches zero
  4: 0x049C [0x00] END_REQSTACK()
```

### Event 65535.48

#### Metadata

| Field        | Value    |
|--------------|----------|
| Entrypoint   | 0x049D   |
| Data Size    | 20 bytes |
| Instructions | 5        |

```
      00 01 02 03 04 05 06 07  08 09 0A 0B 0C 0D 0E 0F
      -- -- -- -- -- -- -- --  -- -- -- -- -- -- -- --
0490:                                         59 04 25               Y.%
04A0: 50 0F 01 4F 80 1F 00 50  80 51 80 25 80 1F 01 6F  P..O...P.Q.%...o
04B0: 00                                                .               
```

#### Opcodes

```
  0: 0x049D [0x59] UPDATE_ENTITY_DATA: Set Sutarara (ID: 17780773/0x010F5025) main speed = 13* * 0.1
  1: 0x04A5 [0x1F] MOVE_ENTITY: EventEntity moves to X=-64.287*, Z=-102.136*, Y=5.999*
  2: 0x04AD [0x1F] MOVE_ENTITY: Update entity position (mode=1)
  3: 0x04AF [0x6F] WAIT_FRAME_DELAY: Yield until WaitTime reaches zero
  4: 0x04B0 [0x00] END_REQSTACK()
```

### Event 65535.49

#### Metadata

| Field        | Value    |
|--------------|----------|
| Entrypoint   | 0x04B1   |
| Data Size    | 20 bytes |
| Instructions | 5        |

```
      00 01 02 03 04 05 06 07  08 09 0A 0B 0C 0D 0E 0F
      -- -- -- -- -- -- -- --  -- -- -- -- -- -- -- --
04B0:    59 04 25 50 0F 01 4F  80 1F 00 52 80 53 80 02   Y.%P..O...R.S..
04C0: 80 1F 01 6F 00                                    ...o.           
```

#### Opcodes

```
  0: 0x04B1 [0x59] UPDATE_ENTITY_DATA: Set Sutarara (ID: 17780773/0x010F5025) main speed = 13* * 0.1
  1: 0x04B9 [0x1F] MOVE_ENTITY: EventEntity moves to X=4.236*, Z=4.336*, Y=0.000*
  2: 0x04C1 [0x1F] MOVE_ENTITY: Update entity position (mode=1)
  3: 0x04C3 [0x6F] WAIT_FRAME_DELAY: Yield until WaitTime reaches zero
  4: 0x04C4 [0x00] END_REQSTACK()
```

### Event 65535.50

#### Metadata

| Field        | Value    |
|--------------|----------|
| Entrypoint   | 0x04C5   |
| Data Size    | 20 bytes |
| Instructions | 5        |

```
      00 01 02 03 04 05 06 07  08 09 0A 0B 0C 0D 0E 0F
      -- -- -- -- -- -- -- --  -- -- -- -- -- -- -- --
04C0:                59 04 34  50 0F 01 1D 80 1F 00 54       Y.4P......T
04D0: 80 55 80 56 80 1F 01 6F  00                       .U.V...o.       
```

#### Opcodes

```
  0: 0x04C5 [0x59] UPDATE_ENTITY_DATA: Set Venika (ID: 17780788/0x010F5034) main speed = 12* * 0.1
  1: 0x04CD [0x1F] MOVE_ENTITY: EventEntity moves to X=-15.376*, Z=-23.775*, Y=-0.101*
  2: 0x04D5 [0x1F] MOVE_ENTITY: Update entity position (mode=1)
  3: 0x04D7 [0x6F] WAIT_FRAME_DELAY: Yield until WaitTime reaches zero
  4: 0x04D8 [0x00] END_REQSTACK()
```

### Event 65535.51

#### Metadata

| Field        | Value    |
|--------------|----------|
| Entrypoint   | 0x04D9   |
| Data Size    | 20 bytes |
| Instructions | 5        |

```
      00 01 02 03 04 05 06 07  08 09 0A 0B 0C 0D 0E 0F
      -- -- -- -- -- -- -- --  -- -- -- -- -- -- -- --
04D0:                             59 04 34 50 0F 01 0B           Y.4P...
04E0: 80 1F 00 50 80 51 80 25  80 1F 01 6F 00           ...P.Q.%...o.   
```

#### Opcodes

```
  0: 0x04D9 [0x59] UPDATE_ENTITY_DATA: Set Venika (ID: 17780788/0x010F5034) main speed = 10* * 0.1
  1: 0x04E1 [0x1F] MOVE_ENTITY: EventEntity moves to X=-64.287*, Z=-102.136*, Y=5.999*
  2: 0x04E9 [0x1F] MOVE_ENTITY: Update entity position (mode=1)
  3: 0x04EB [0x6F] WAIT_FRAME_DELAY: Yield until WaitTime reaches zero
  4: 0x04EC [0x00] END_REQSTACK()
```

### Event 65535.52

#### Metadata

| Field        | Value    |
|--------------|----------|
| Entrypoint   | 0x04ED   |
| Data Size    | 16 bytes |
| Instructions | 2        |

```
      00 01 02 03 04 05 06 07  08 09 0A 0B 0C 0D 0E 0F
      -- -- -- -- -- -- -- --  -- -- -- -- -- -- -- --
04E0:                                         5B 57 80               [W.
04F0: 34 50 0F 01 34 50 0F 01  6F 70 62 30 00           4P..4P..opb0.   
```

#### Opcodes

```
  0: 0x04ED [0x5B] LOAD_EXT_SCHEDULER: Load scheduler "opb0" with entities [Venika (ID: 17780788/0x010F5034), Venika (ID: 17780788/0x010F5034)], work=2584*
  1: 0x04FC [0x00] END_REQSTACK()
```

### Event 65535.53

#### Metadata

| Field        | Value    |
|--------------|----------|
| Entrypoint   | 0x04FD   |
| Data Size    | 16 bytes |
| Instructions | 2        |

```
      00 01 02 03 04 05 06 07  08 09 0A 0B 0C 0D 0E 0F
      -- -- -- -- -- -- -- --  -- -- -- -- -- -- -- --
04F0:                                         5B 57 80               [W.
0500: 34 50 0F 01 34 50 0F 01  6F 70 62 31 00           4P..4P..opb1.   
```

#### Opcodes

```
  0: 0x04FD [0x5B] LOAD_EXT_SCHEDULER: Load scheduler "opb1" with entities [Venika (ID: 17780788/0x010F5034), Venika (ID: 17780788/0x010F5034)], work=2584*
  1: 0x050C [0x00] END_REQSTACK()
```

### Event 65535.54

#### Metadata

| Field        | Value    |
|--------------|----------|
| Entrypoint   | 0x050D   |
| Data Size    | 20 bytes |
| Instructions | 5        |

```
      00 01 02 03 04 05 06 07  08 09 0A 0B 0C 0D 0E 0F
      -- -- -- -- -- -- -- --  -- -- -- -- -- -- -- --
0500:                                         59 04 34               Y.4
0510: 50 0F 01 1D 80 1F 00 58  80 59 80 02 80 1F 01 6F  P......X.Y.....o
0520: 00                                                .               
```

#### Opcodes

```
  0: 0x050D [0x59] UPDATE_ENTITY_DATA: Set Venika (ID: 17780788/0x010F5034) main speed = 12* * 0.1
  1: 0x0515 [0x1F] MOVE_ENTITY: EventEntity moves to X=-0.991*, Z=2.123*, Y=0.000*
  2: 0x051D [0x1F] MOVE_ENTITY: Update entity position (mode=1)
  3: 0x051F [0x6F] WAIT_FRAME_DELAY: Yield until WaitTime reaches zero
  4: 0x0520 [0x00] END_REQSTACK()
```

### Event 65535.55

#### Metadata

| Field        | Value    |
|--------------|----------|
| Entrypoint   | 0x0521   |
| Data Size    | 16 bytes |
| Instructions | 2        |

```
      00 01 02 03 04 05 06 07  08 09 0A 0B 0C 0D 0E 0F
      -- -- -- -- -- -- -- --  -- -- -- -- -- -- -- --
0520:    5B 57 80 34 50 0F 01  34 50 0F 01 6F 70 63 30   [W.4P..4P..opc0
0530: 00                                                .               
```

#### Opcodes

```
  0: 0x0521 [0x5B] LOAD_EXT_SCHEDULER: Load scheduler "opc0" with entities [Venika (ID: 17780788/0x010F5034), Venika (ID: 17780788/0x010F5034)], work=2584*
  1: 0x0530 [0x00] END_REQSTACK()
```

### Event 65535.56

#### Metadata

| Field        | Value    |
|--------------|----------|
| Entrypoint   | 0x0531   |
| Data Size    | 16 bytes |
| Instructions | 2        |

```
      00 01 02 03 04 05 06 07  08 09 0A 0B 0C 0D 0E 0F
      -- -- -- -- -- -- -- --  -- -- -- -- -- -- -- --
0530:    5B 57 80 34 50 0F 01  34 50 0F 01 6F 70 63 31   [W.4P..4P..opc1
0540: 00                                                .               
```

#### Opcodes

```
  0: 0x0531 [0x5B] LOAD_EXT_SCHEDULER: Load scheduler "opc1" with entities [Venika (ID: 17780788/0x010F5034), Venika (ID: 17780788/0x010F5034)], work=2584*
  1: 0x0540 [0x00] END_REQSTACK()
```

### Event 65535.57

#### Metadata

| Field        | Value    |
|--------------|----------|
| Entrypoint   | 0x0541   |
| Data Size    | 16 bytes |
| Instructions | 2        |

```
      00 01 02 03 04 05 06 07  08 09 0A 0B 0C 0D 0E 0F
      -- -- -- -- -- -- -- --  -- -- -- -- -- -- -- --
0540:    66 04 80 36 50 0F 01  36 50 0F 01 61 77 77 30   f..6P..6P..aww0
0550: 00                                                .               
```

#### Opcodes

```
  0: 0x0541 [0x66] LOAD_EXT_SCHEDULER_MAIN: Load scheduler "aww0" with entities [Kuah Dakonsa (ID: 17780790/0x010F5036), Kuah Dakonsa (ID: 17780790/0x010F5036)], work=8*
  1: 0x0550 [0x00] END_REQSTACK()
```

### Event 65535.58

#### Metadata

| Field        | Value    |
|--------------|----------|
| Entrypoint   | 0x0551   |
| Data Size    | 16 bytes |
| Instructions | 2        |

```
      00 01 02 03 04 05 06 07  08 09 0A 0B 0C 0D 0E 0F
      -- -- -- -- -- -- -- --  -- -- -- -- -- -- -- --
0550:    66 5A 80 36 50 0F 01  36 50 0F 01 74 68 6B 31   fZ.6P..6P..thk1
0560: 00                                                .               
```

#### Opcodes

```
  0: 0x0551 [0x66] LOAD_EXT_SCHEDULER_MAIN: Load scheduler "thk1" with entities [Kuah Dakonsa (ID: 17780790/0x010F5036), Kuah Dakonsa (ID: 17780790/0x010F5036)], work=51*
  1: 0x0560 [0x00] END_REQSTACK()
```

### Event 65535.59

#### Metadata

| Field        | Value    |
|--------------|----------|
| Entrypoint   | 0x0561   |
| Data Size    | 21 bytes |
| Instructions | 5        |

```
      00 01 02 03 04 05 06 07  08 09 0A 0B 0C 0D 0E 0F
      -- -- -- -- -- -- -- --  -- -- -- -- -- -- -- --
0560:    59 04 32 50 0F 01 1D  80 1F 00 5B 80 5C 80 25   Y.2P......[.\.%
0570: 80 1F 01 6F 00 00                                 ...o..          
```

#### Opcodes

```
  0: 0x0561 [0x59] UPDATE_ENTITY_DATA: Set Gurdern (ID: 17780786/0x010F5032) main speed = 12* * 0.1
  1: 0x0569 [0x1F] MOVE_ENTITY: EventEntity moves to X=-61.958*, Z=-103.267*, Y=5.999*
  2: 0x0571 [0x1F] MOVE_ENTITY: Update entity position (mode=1)
  3: 0x0573 [0x6F] WAIT_FRAME_DELAY: Yield until WaitTime reaches zero
  4: 0x0574 [0x00] END_REQSTACK()
```

#### Data or dead code:

```
# Dead code (unreachable instructions):
     0x0575 [0x00] END_REQSTACK()
```

### Event 65535.60

#### Metadata

| Field        | Value    |
|--------------|----------|
| Entrypoint   | 0x0576   |
| Data Size    | 20 bytes |
| Instructions | 5        |

```
      00 01 02 03 04 05 06 07  08 09 0A 0B 0C 0D 0E 0F
      -- -- -- -- -- -- -- --  -- -- -- -- -- -- -- --
0570:                   59 04  32 50 0F 01 1D 80 1F 00        Y.2P......
0580: 5D 80 5E 80 25 80 1F 01  6F 00                    ].^.%...o.      
```

#### Opcodes

```
  0: 0x0576 [0x59] UPDATE_ENTITY_DATA: Set Gurdern (ID: 17780786/0x010F5032) main speed = 12* * 0.1
  1: 0x057E [0x1F] MOVE_ENTITY: EventEntity moves to X=-66.589*, Z=-92.299*, Y=5.999*
  2: 0x0586 [0x1F] MOVE_ENTITY: Update entity position (mode=1)
  3: 0x0588 [0x6F] WAIT_FRAME_DELAY: Yield until WaitTime reaches zero
  4: 0x0589 [0x00] END_REQSTACK()
```

### Event 65535.61

#### Metadata

| Field        | Value    |
|--------------|----------|
| Entrypoint   | 0x058A   |
| Data Size    | 20 bytes |
| Instructions | 5        |

```
      00 01 02 03 04 05 06 07  08 09 0A 0B 0C 0D 0E 0F
      -- -- -- -- -- -- -- --  -- -- -- -- -- -- -- --
0580:                                59 04 32 50 0F 01            Y.2P..
0590: 1D 80 1F 00 5F 80 60 80  25 80 1F 01 6F 00        ...._.`.%...o.  
```

#### Opcodes

```
  0: 0x058A [0x59] UPDATE_ENTITY_DATA: Set Gurdern (ID: 17780786/0x010F5032) main speed = 12* * 0.1
  1: 0x0592 [0x1F] MOVE_ENTITY: EventEntity moves to X=-58.931*, Z=-86.942*, Y=5.999*
  2: 0x059A [0x1F] MOVE_ENTITY: Update entity position (mode=1)
  3: 0x059C [0x6F] WAIT_FRAME_DELAY: Yield until WaitTime reaches zero
  4: 0x059D [0x00] END_REQSTACK()
```

### Event 65535.62

#### Metadata

| Field        | Value    |
|--------------|----------|
| Entrypoint   | 0x059E   |
| Data Size    | 17 bytes |
| Instructions | 2        |

```
      00 01 02 03 04 05 06 07  08 09 0A 0B 0C 0D 0E 0F
      -- -- -- -- -- -- -- --  -- -- -- -- -- -- -- --
0590:                                            5B 34                [4
05A0: 80 32 50 0F 01 32 50 0F  01 6F 70 30 30 00 00     .2P..2P..op00.. 
```

#### Opcodes

```
  0: 0x059E [0x5B] LOAD_EXT_SCHEDULER: Load scheduler "op00" with entities [Gurdern (ID: 17780786/0x010F5032), Gurdern (ID: 17780786/0x010F5032)], work=2621*
  1: 0x05AD [0x00] END_REQSTACK()
```

#### Data or dead code:

```
# Dead code (unreachable instructions):
     0x05AE [0x00] END_REQSTACK()
```

### Event 65535.63

#### Metadata

| Field        | Value    |
|--------------|----------|
| Entrypoint   | 0x05AF   |
| Data Size    | 20 bytes |
| Instructions | 5        |

```
      00 01 02 03 04 05 06 07  08 09 0A 0B 0C 0D 0E 0F
      -- -- -- -- -- -- -- --  -- -- -- -- -- -- -- --
05A0:                                               59                 Y
05B0: 04 1C 50 0F 01 20 80 1F  00 21 80 22 80 02 80 1F  ..P.. ...!."....
05C0: 01 6F 00                                          .o.             
```

#### Opcodes

```
  0: 0x05AF [0x59] UPDATE_ENTITY_DATA: Set Mertaire (ID: 17780764/0x010F501C) main speed = 11* * 0.1
  1: 0x05B7 [0x1F] MOVE_ENTITY: EventEntity moves to X=-95.337*, Z=-156.056*, Y=0.000*
  2: 0x05BF [0x1F] MOVE_ENTITY: Update entity position (mode=1)
  3: 0x05C1 [0x6F] WAIT_FRAME_DELAY: Yield until WaitTime reaches zero
  4: 0x05C2 [0x00] END_REQSTACK()
```

### Event 65535.64

#### Metadata

| Field        | Value    |
|--------------|----------|
| Entrypoint   | 0x05C3   |
| Data Size    | 20 bytes |
| Instructions | 5        |

```
      00 01 02 03 04 05 06 07  08 09 0A 0B 0C 0D 0E 0F
      -- -- -- -- -- -- -- --  -- -- -- -- -- -- -- --
05C0:          59 04 1C 50 0F  01 20 80 1F 00 61 80 62     Y..P.. ...a.b
05D0: 80 63 80 1F 01 6F 00                              .c...o.         
```

#### Opcodes

```
  0: 0x05C3 [0x59] UPDATE_ENTITY_DATA: Set Mertaire (ID: 17780764/0x010F501C) main speed = 11* * 0.1
  1: 0x05CB [0x1F] MOVE_ENTITY: EventEntity moves to X=-78.197*, Z=-116.328*, Y=3.999*
  2: 0x05D3 [0x1F] MOVE_ENTITY: Update entity position (mode=1)
  3: 0x05D5 [0x6F] WAIT_FRAME_DELAY: Yield until WaitTime reaches zero
  4: 0x05D6 [0x00] END_REQSTACK()
```

### Event 65535.65

#### Metadata

| Field        | Value    |
|--------------|----------|
| Entrypoint   | 0x05D7   |
| Data Size    | 16 bytes |
| Instructions | 2        |

```
      00 01 02 03 04 05 06 07  08 09 0A 0B 0C 0D 0E 0F
      -- -- -- -- -- -- -- --  -- -- -- -- -- -- -- --
05D0:                      5B  64 80 1C 50 0F 01 1C 50         [d..P...P
05E0: 0F 01 6F 70 63 30 00                              ..opc0.         
```

#### Opcodes

```
  0: 0x05D7 [0x5B] LOAD_EXT_SCHEDULER: Load scheduler "opc0" with entities [Mertaire (ID: 17780764/0x010F501C), Mertaire (ID: 17780764/0x010F501C)], work=2583*
  1: 0x05E6 [0x00] END_REQSTACK()
```

### Event 65535.66

#### Metadata

| Field        | Value    |
|--------------|----------|
| Entrypoint   | 0x05E7   |
| Data Size    | 16 bytes |
| Instructions | 2        |

```
      00 01 02 03 04 05 06 07  08 09 0A 0B 0C 0D 0E 0F
      -- -- -- -- -- -- -- --  -- -- -- -- -- -- -- --
05E0:                      5B  64 80 1C 50 0F 01 1C 50         [d..P...P
05F0: 0F 01 6F 70 63 31 00                              ..opc1.         
```

#### Opcodes

```
  0: 0x05E7 [0x5B] LOAD_EXT_SCHEDULER: Load scheduler "opc1" with entities [Mertaire (ID: 17780764/0x010F501C), Mertaire (ID: 17780764/0x010F501C)], work=2583*
  1: 0x05F6 [0x00] END_REQSTACK()
```

### Event 65535.67

#### Metadata

| Field        | Value    |
|--------------|----------|
| Entrypoint   | 0x05F7   |
| Data Size    | 21 bytes |
| Instructions | 5        |

```
      00 01 02 03 04 05 06 07  08 09 0A 0B 0C 0D 0E 0F
      -- -- -- -- -- -- -- --  -- -- -- -- -- -- -- --
05F0:                      59  04 1C 50 0F 01 20 80 1F         Y..P.. ..
0600: 00 65 80 66 80 02 80 1F  01 6F 00 00              .e.f.....o..    
```

#### Opcodes

```
  0: 0x05F7 [0x59] UPDATE_ENTITY_DATA: Set Mertaire (ID: 17780764/0x010F501C) main speed = 11* * 0.1
  1: 0x05FF [0x1F] MOVE_ENTITY: EventEntity moves to X=-9.883*, Z=-9.826*, Y=0.000*
  2: 0x0607 [0x1F] MOVE_ENTITY: Update entity position (mode=1)
  3: 0x0609 [0x6F] WAIT_FRAME_DELAY: Yield until WaitTime reaches zero
  4: 0x060A [0x00] END_REQSTACK()
```

#### Data or dead code:

```
# Dead code (unreachable instructions):
     0x060B [0x00] END_REQSTACK()
```

### Event 65535.68

#### Metadata

| Field        | Value    |
|--------------|----------|
| Entrypoint   | 0x060C   |
| Data Size    | 20 bytes |
| Instructions | 5        |

```
      00 01 02 03 04 05 06 07  08 09 0A 0B 0C 0D 0E 0F
      -- -- -- -- -- -- -- --  -- -- -- -- -- -- -- --
0600:                                      59 04 1E 50              Y..P
0610: 0F 01 67 80 1F 00 39 80  3A 80 25 80 1F 01 6F 00  ..g...9.:.%...o.
```

#### Opcodes

```
  0: 0x060C [0x59] UPDATE_ENTITY_DATA: Set Bki Tbujhja (ID: 17780766/0x010F501E) main speed = 9* * 0.1
  1: 0x0614 [0x1F] MOVE_ENTITY: EventEntity moves to X=-74.699*, Z=-107.115*, Y=5.999*
  2: 0x061C [0x1F] MOVE_ENTITY: Update entity position (mode=1)
  3: 0x061E [0x6F] WAIT_FRAME_DELAY: Yield until WaitTime reaches zero
  4: 0x061F [0x00] END_REQSTACK()
```

### Event 65535.69

#### Metadata

| Field        | Value    |
|--------------|----------|
| Entrypoint   | 0x0620   |
| Data Size    | 20 bytes |
| Instructions | 5        |

```
      00 01 02 03 04 05 06 07  08 09 0A 0B 0C 0D 0E 0F
      -- -- -- -- -- -- -- --  -- -- -- -- -- -- -- --
0620: 59 04 1E 50 0F 01 20 80  1F 00 68 80 69 80 25 80  Y..P.. ...h.i.%.
0630: 1F 01 6F 00                                       ..o.            
```

#### Opcodes

```
  0: 0x0620 [0x59] UPDATE_ENTITY_DATA: Set Bki Tbujhja (ID: 17780766/0x010F501E) main speed = 11* * 0.1
  1: 0x0628 [0x1F] MOVE_ENTITY: EventEntity moves to X=-72.052*, Z=-102.467*, Y=5.999*
  2: 0x0630 [0x1F] MOVE_ENTITY: Update entity position (mode=1)
  3: 0x0632 [0x6F] WAIT_FRAME_DELAY: Yield until WaitTime reaches zero
  4: 0x0633 [0x00] END_REQSTACK()
```

### Event 65535.70

#### Metadata

| Field        | Value    |
|--------------|----------|
| Entrypoint   | 0x0634   |
| Data Size    | 16 bytes |
| Instructions | 2        |

```
      00 01 02 03 04 05 06 07  08 09 0A 0B 0C 0D 0E 0F
      -- -- -- -- -- -- -- --  -- -- -- -- -- -- -- --
0630:             66 04 80 1E  50 0F 01 1E 50 0F 01 61      f...P...P..a
0640: 77 77 30 00                                       ww0.            
```

#### Opcodes

```
  0: 0x0634 [0x66] LOAD_EXT_SCHEDULER_MAIN: Load scheduler "aww0" with entities [Bki Tbujhja (ID: 17780766/0x010F501E), Bki Tbujhja (ID: 17780766/0x010F501E)], work=8*
  1: 0x0643 [0x00] END_REQSTACK()
```

### Event 65535.71

#### Metadata

| Field        | Value    |
|--------------|----------|
| Entrypoint   | 0x0644   |
| Data Size    | 20 bytes |
| Instructions | 5        |

```
      00 01 02 03 04 05 06 07  08 09 0A 0B 0C 0D 0E 0F
      -- -- -- -- -- -- -- --  -- -- -- -- -- -- -- --
0640:             59 04 1E 50  0F 01 67 80 1F 00 6A 80      Y..P..g...j.
0650: 6B 80 02 80 1F 01 6F 00                           k.....o.        
```

#### Opcodes

```
  0: 0x0644 [0x59] UPDATE_ENTITY_DATA: Set Bki Tbujhja (ID: 17780766/0x010F501E) main speed = 9* * 0.1
  1: 0x064C [0x1F] MOVE_ENTITY: EventEntity moves to X=-5.853*, Z=-5.190*, Y=0.000*
  2: 0x0654 [0x1F] MOVE_ENTITY: Update entity position (mode=1)
  3: 0x0656 [0x6F] WAIT_FRAME_DELAY: Yield until WaitTime reaches zero
  4: 0x0657 [0x00] END_REQSTACK()
```

### Event 65535.72

#### Metadata

| Field        | Value    |
|--------------|----------|
| Entrypoint   | 0x0658   |
| Data Size    | 21 bytes |
| Instructions | 5        |

```
      00 01 02 03 04 05 06 07  08 09 0A 0B 0C 0D 0E 0F
      -- -- -- -- -- -- -- --  -- -- -- -- -- -- -- --
0650:                          59 04 1E 50 0F 01 20 80          Y..P.. .
0660: 1F 00 5F 80 60 80 25 80  1F 01 6F 00 00           .._.`.%...o..   
```

#### Opcodes

```
  0: 0x0658 [0x59] UPDATE_ENTITY_DATA: Set Bki Tbujhja (ID: 17780766/0x010F501E) main speed = 11* * 0.1
  1: 0x0660 [0x1F] MOVE_ENTITY: EventEntity moves to X=-58.931*, Z=-86.942*, Y=5.999*
  2: 0x0668 [0x1F] MOVE_ENTITY: Update entity position (mode=1)
  3: 0x066A [0x6F] WAIT_FRAME_DELAY: Yield until WaitTime reaches zero
  4: 0x066B [0x00] END_REQSTACK()
```

#### Data or dead code:

```
# Dead code (unreachable instructions):
     0x066C [0x00] END_REQSTACK()
```

### Event 65535.73

#### Metadata

| Field        | Value    |
|--------------|----------|
| Entrypoint   | 0x066D   |
| Data Size    | 20 bytes |
| Instructions | 5        |

```
      00 01 02 03 04 05 06 07  08 09 0A 0B 0C 0D 0E 0F
      -- -- -- -- -- -- -- --  -- -- -- -- -- -- -- --
0660:                                         59 04 27               Y.'
0670: 50 0F 01 1D 80 1F 00 6C  80 6D 80 6E 80 1F 01 6F  P......l.m.n...o
0680: 00                                                .               
```

#### Opcodes

```
  0: 0x066D [0x59] UPDATE_ENTITY_DATA: Set Danzhor (ID: 17780775/0x010F5027) main speed = 12* * 0.1
  1: 0x0675 [0x1F] MOVE_ENTITY: EventEntity moves to X=-45.210*, Z=-89.196*, Y=-5.999*
  2: 0x067D [0x1F] MOVE_ENTITY: Update entity position (mode=1)
  3: 0x067F [0x6F] WAIT_FRAME_DELAY: Yield until WaitTime reaches zero
  4: 0x0680 [0x00] END_REQSTACK()
```

### Event 65535.74

#### Metadata

| Field        | Value    |
|--------------|----------|
| Entrypoint   | 0x0681   |
| Data Size    | 12 bytes |
| Instructions | 4        |

```
      00 01 02 03 04 05 06 07  08 09 0A 0B 0C 0D 0E 0F
      -- -- -- -- -- -- -- --  -- -- -- -- -- -- -- --
0680:    1F 00 6F 80 70 80 02  80 1F 01 6F 00            ..o.p.....o.   
```

#### Opcodes

```
  0: 0x0681 [0x1F] MOVE_ENTITY: EventEntity moves to X=-18.343*, Z=-8.286*, Y=0.000*
  1: 0x0689 [0x1F] MOVE_ENTITY: Update entity position (mode=1)
  2: 0x068B [0x6F] WAIT_FRAME_DELAY: Yield until WaitTime reaches zero
  3: 0x068C [0x00] END_REQSTACK()
```

### Event 65535.75

#### Metadata

| Field        | Value    |
|--------------|----------|
| Entrypoint   | 0x068D   |
| Data Size    | 16 bytes |
| Instructions | 2        |

```
      00 01 02 03 04 05 06 07  08 09 0A 0B 0C 0D 0E 0F
      -- -- -- -- -- -- -- --  -- -- -- -- -- -- -- --
0680:                                         66 31 80               f1.
0690: 27 50 0F 01 27 50 0F 01  74 68 6B 31 00           'P..'P..thk1.   
```

#### Opcodes

```
  0: 0x068D [0x66] LOAD_EXT_SCHEDULER_MAIN: Load scheduler "thk1" with entities [Danzhor (ID: 17780775/0x010F5027), Danzhor (ID: 17780775/0x010F5027)], work=69*
  1: 0x069C [0x00] END_REQSTACK()
```

### Event 65535.76

#### Metadata

| Field        | Value    |
|--------------|----------|
| Entrypoint   | 0x069D   |
| Data Size    | 16 bytes |
| Instructions | 2        |

```
      00 01 02 03 04 05 06 07  08 09 0A 0B 0C 0D 0E 0F
      -- -- -- -- -- -- -- --  -- -- -- -- -- -- -- --
0690:                                         66 31 80               f1.
06A0: 27 50 0F 01 27 50 0F 01  74 68 6B 32 00           'P..'P..thk2.   
```

#### Opcodes

```
  0: 0x069D [0x66] LOAD_EXT_SCHEDULER_MAIN: Load scheduler "thk2" with entities [Danzhor (ID: 17780775/0x010F5027), Danzhor (ID: 17780775/0x010F5027)], work=69*
  1: 0x06AC [0x00] END_REQSTACK()
```

### Event 65535.77

#### Metadata

| Field        | Value    |
|--------------|----------|
| Entrypoint   | 0x06AD   |
| Data Size    | 20 bytes |
| Instructions | 5        |

```
      00 01 02 03 04 05 06 07  08 09 0A 0B 0C 0D 0E 0F
      -- -- -- -- -- -- -- --  -- -- -- -- -- -- -- --
06A0:                                         59 04 27               Y.'
06B0: 50 0F 01 1D 80 1F 00 71  80 72 80 02 80 1F 01 6F  P......q.r.....o
06C0: 00                                                .               
```

#### Opcodes

```
  0: 0x06AD [0x59] UPDATE_ENTITY_DATA: Set Danzhor (ID: 17780775/0x010F5027) main speed = 12* * 0.1
  1: 0x06B5 [0x1F] MOVE_ENTITY: EventEntity moves to X=-17.939*, Z=-16.579*, Y=0.000*
  2: 0x06BD [0x1F] MOVE_ENTITY: Update entity position (mode=1)
  3: 0x06BF [0x6F] WAIT_FRAME_DELAY: Yield until WaitTime reaches zero
  4: 0x06C0 [0x00] END_REQSTACK()
```

### Event 65535.78

#### Metadata

| Field        | Value    |
|--------------|----------|
| Entrypoint   | 0x06C1   |
| Data Size    | 20 bytes |
| Instructions | 5        |

```
      00 01 02 03 04 05 06 07  08 09 0A 0B 0C 0D 0E 0F
      -- -- -- -- -- -- -- --  -- -- -- -- -- -- -- --
06C0:    59 04 27 50 0F 01 1D  80 1F 00 73 80 74 80 02   Y.'P......s.t..
06D0: 80 1F 01 6F 00                                    ...o.           
```

#### Opcodes

```
  0: 0x06C1 [0x59] UPDATE_ENTITY_DATA: Set Danzhor (ID: 17780775/0x010F5027) main speed = 12* * 0.1
  1: 0x06C9 [0x1F] MOVE_ENTITY: EventEntity moves to X=-3.065*, Z=-7.931*, Y=0.000*
  2: 0x06D1 [0x1F] MOVE_ENTITY: Update entity position (mode=1)
  3: 0x06D3 [0x6F] WAIT_FRAME_DELAY: Yield until WaitTime reaches zero
  4: 0x06D4 [0x00] END_REQSTACK()
```

### Event 65535.79

#### Metadata

| Field        | Value    |
|--------------|----------|
| Entrypoint   | 0x06D5   |
| Data Size    | 17 bytes |
| Instructions | 2        |

```
      00 01 02 03 04 05 06 07  08 09 0A 0B 0C 0D 0E 0F
      -- -- -- -- -- -- -- --  -- -- -- -- -- -- -- --
06D0:                66 46 80  30 50 0F 01 30 50 0F 01       fF.0P..0P..
06E0: 73 68 6B 30 00 00                                 shk0..          
```

#### Opcodes

```
  0: 0x06D5 [0x66] LOAD_EXT_SCHEDULER_MAIN: Load scheduler "shk0" with entities [Kikilolo (ID: 17780784/0x010F5030), Kikilolo (ID: 17780784/0x010F5030)], work=41*
  1: 0x06E4 [0x00] END_REQSTACK()
```

#### Data or dead code:

```
# Dead code (unreachable instructions):
     0x06E5 [0x00] END_REQSTACK()
```

### Event 65535.80

#### Metadata

| Field        | Value    |
|--------------|----------|
| Entrypoint   | 0x06E6   |
| Data Size    | 16 bytes |
| Instructions | 2        |

```
      00 01 02 03 04 05 06 07  08 09 0A 0B 0C 0D 0E 0F
      -- -- -- -- -- -- -- --  -- -- -- -- -- -- -- --
06E0:                   5B 75  80 39 50 0F 01 39 50 0F        [u.9P..9P.
06F0: 01 74 6C 6B 30 00                                 .tlk0.          
```

#### Opcodes

```
  0: 0x06E6 [0x5B] LOAD_EXT_SCHEDULER: Load scheduler "tlk0" with entities [Momiji (ID: 17780793/0x010F5039), Momiji (ID: 17780793/0x010F5039)], work=60*
  1: 0x06F5 [0x00] END_REQSTACK()
```

### Event 65535.81

#### Metadata

| Field        | Value    |
|--------------|----------|
| Entrypoint   | 0x06F6   |
| Data Size    | 16 bytes |
| Instructions | 2        |

```
      00 01 02 03 04 05 06 07  08 09 0A 0B 0C 0D 0E 0F
      -- -- -- -- -- -- -- --  -- -- -- -- -- -- -- --
06F0:                   5B 75  80 39 50 0F 01 39 50 0F        [u.9P..9P.
0700: 01 74 6C 6B 31 00                                 .tlk1.          
```

#### Opcodes

```
  0: 0x06F6 [0x5B] LOAD_EXT_SCHEDULER: Load scheduler "tlk1" with entities [Momiji (ID: 17780793/0x010F5039), Momiji (ID: 17780793/0x010F5039)], work=60*
  1: 0x0705 [0x00] END_REQSTACK()
```

### Event 65535.82

#### Metadata

| Field        | Value    |
|--------------|----------|
| Entrypoint   | 0x0706   |
| Data Size    | 16 bytes |
| Instructions | 2        |

```
      00 01 02 03 04 05 06 07  08 09 0A 0B 0C 0D 0E 0F
      -- -- -- -- -- -- -- --  -- -- -- -- -- -- -- --
0700:                   5B 75  80 39 50 0F 01 39 50 0F        [u.9P..9P.
0710: 01 74 68 6B 31 00                                 .thk1.          
```

#### Opcodes

```
  0: 0x0706 [0x5B] LOAD_EXT_SCHEDULER: Load scheduler "thk1" with entities [Momiji (ID: 17780793/0x010F5039), Momiji (ID: 17780793/0x010F5039)], work=60*
  1: 0x0715 [0x00] END_REQSTACK()
```

### Event 65535.83

#### Metadata

| Field        | Value    |
|--------------|----------|
| Entrypoint   | 0x0716   |
| Data Size    | 16 bytes |
| Instructions | 2        |

```
      00 01 02 03 04 05 06 07  08 09 0A 0B 0C 0D 0E 0F
      -- -- -- -- -- -- -- --  -- -- -- -- -- -- -- --
0710:                   5B 75  80 39 50 0F 01 39 50 0F        [u.9P..9P.
0720: 01 74 68 6B 32 00                                 .thk2.          
```

#### Opcodes

```
  0: 0x0716 [0x5B] LOAD_EXT_SCHEDULER: Load scheduler "thk2" with entities [Momiji (ID: 17780793/0x010F5039), Momiji (ID: 17780793/0x010F5039)], work=60*
  1: 0x0725 [0x00] END_REQSTACK()
```

### Event 65535.84

#### Metadata

| Field        | Value    |
|--------------|----------|
| Entrypoint   | 0x0726   |
| Data Size    | 17 bytes |
| Instructions | 2        |

```
      00 01 02 03 04 05 06 07  08 09 0A 0B 0C 0D 0E 0F
      -- -- -- -- -- -- -- --  -- -- -- -- -- -- -- --
0720:                   5B 76  80 39 50 0F 01 39 50 0F        [v.9P..9P.
0730: 01 65 6D 74 30 00 00                              .emt0..         
```

#### Opcodes

```
  0: 0x0726 [0x5B] LOAD_EXT_SCHEDULER: Load scheduler "emt0" with entities [Momiji (ID: 17780793/0x010F5039), Momiji (ID: 17780793/0x010F5039)], work=2624*
  1: 0x0735 [0x00] END_REQSTACK()
```

#### Data or dead code:

```
# Dead code (unreachable instructions):
     0x0736 [0x00] END_REQSTACK()
```

### Event 65535.85

#### Metadata

| Field        | Value    |
|--------------|----------|
| Entrypoint   | 0x0737   |
| Data Size    | 20 bytes |
| Instructions | 5        |

```
      00 01 02 03 04 05 06 07  08 09 0A 0B 0C 0D 0E 0F
      -- -- -- -- -- -- -- --  -- -- -- -- -- -- -- --
0730:                      59  04 3C 50 0F 01 4F 80 1F         Y.<P..O..
0740: 00 77 80 78 80 02 80 1F  01 6F 00                 .w.x.....o.     
```

#### Opcodes

```
  0: 0x0737 [0x59] UPDATE_ENTITY_DATA: Set Mendi (ID: 17780796/0x010F503C) main speed = 13* * 0.1
  1: 0x073F [0x1F] MOVE_ENTITY: EventEntity moves to X=-38.371*, Z=-67.496*, Y=0.000*
  2: 0x0747 [0x1F] MOVE_ENTITY: Update entity position (mode=1)
  3: 0x0749 [0x6F] WAIT_FRAME_DELAY: Yield until WaitTime reaches zero
  4: 0x074A [0x00] END_REQSTACK()
```

### Event 65535.86

#### Metadata

| Field        | Value    |
|--------------|----------|
| Entrypoint   | 0x074B   |
| Data Size    | 12 bytes |
| Instructions | 4        |

```
      00 01 02 03 04 05 06 07  08 09 0A 0B 0C 0D 0E 0F
      -- -- -- -- -- -- -- --  -- -- -- -- -- -- -- --
0740:                                   1F 00 79 80 7A             ..y.z
0750: 80 02 80 1F 01 6F 00                              .....o.         
```

#### Opcodes

```
  0: 0x074B [0x1F] MOVE_ENTITY: EventEntity moves to X=-5.565*, Z=-1.804*, Y=0.000*
  1: 0x0753 [0x1F] MOVE_ENTITY: Update entity position (mode=1)
  2: 0x0755 [0x6F] WAIT_FRAME_DELAY: Yield until WaitTime reaches zero
  3: 0x0756 [0x00] END_REQSTACK()
```

### Event 65535.87

#### Metadata

| Field        | Value    |
|--------------|----------|
| Entrypoint   | 0x0757   |
| Data Size    | 16 bytes |
| Instructions | 2        |

```
      00 01 02 03 04 05 06 07  08 09 0A 0B 0C 0D 0E 0F
      -- -- -- -- -- -- -- --  -- -- -- -- -- -- -- --
0750:                      5B  64 80 3C 50 0F 01 3C 50         [d.<P..<P
0760: 0F 01 6F 70 62 30 00                              ..opb0.         
```

#### Opcodes

```
  0: 0x0757 [0x5B] LOAD_EXT_SCHEDULER: Load scheduler "opb0" with entities [Mendi (ID: 17780796/0x010F503C), Mendi (ID: 17780796/0x010F503C)], work=2583*
  1: 0x0766 [0x00] END_REQSTACK()
```

### Event 65535.88

#### Metadata

| Field        | Value    |
|--------------|----------|
| Entrypoint   | 0x0767   |
| Data Size    | 16 bytes |
| Instructions | 2        |

```
      00 01 02 03 04 05 06 07  08 09 0A 0B 0C 0D 0E 0F
      -- -- -- -- -- -- -- --  -- -- -- -- -- -- -- --
0760:                      5B  64 80 3C 50 0F 01 3C 50         [d.<P..<P
0770: 0F 01 6F 70 63 30 00                              ..opc0.         
```

#### Opcodes

```
  0: 0x0767 [0x5B] LOAD_EXT_SCHEDULER: Load scheduler "opc0" with entities [Mendi (ID: 17780796/0x010F503C), Mendi (ID: 17780796/0x010F503C)], work=2583*
  1: 0x0776 [0x00] END_REQSTACK()
```

### Event 65535.89

#### Metadata

| Field        | Value    |
|--------------|----------|
| Entrypoint   | 0x0777   |
| Data Size    | 16 bytes |
| Instructions | 2        |

```
      00 01 02 03 04 05 06 07  08 09 0A 0B 0C 0D 0E 0F
      -- -- -- -- -- -- -- --  -- -- -- -- -- -- -- --
0770:                      5B  64 80 3C 50 0F 01 3C 50         [d.<P..<P
0780: 0F 01 6F 70 63 31 00                              ..opc1.         
```

#### Opcodes

```
  0: 0x0777 [0x5B] LOAD_EXT_SCHEDULER: Load scheduler "opc1" with entities [Mendi (ID: 17780796/0x010F503C), Mendi (ID: 17780796/0x010F503C)], work=2583*
  1: 0x0786 [0x00] END_REQSTACK()
```

### Event 65535.90

#### Metadata

| Field        | Value    |
|--------------|----------|
| Entrypoint   | 0x0787   |
| Data Size    | 16 bytes |
| Instructions | 2        |

```
      00 01 02 03 04 05 06 07  08 09 0A 0B 0C 0D 0E 0F
      -- -- -- -- -- -- -- --  -- -- -- -- -- -- -- --
0780:                      66  0E 80 3C 50 0F 01 3C 50         f..<P..<P
0790: 0F 01 74 68 62 31 00                              ..thb1.         
```

#### Opcodes

```
  0: 0x0787 [0x66] LOAD_EXT_SCHEDULER_MAIN: Load scheduler "thb1" with entities [Mendi (ID: 17780796/0x010F503C), Mendi (ID: 17780796/0x010F503C)], work=2*
  1: 0x0796 [0x00] END_REQSTACK()
```

### Event 65535.91

#### Metadata

| Field        | Value    |
|--------------|----------|
| Entrypoint   | 0x0797   |
| Data Size    | 16 bytes |
| Instructions | 2        |

```
      00 01 02 03 04 05 06 07  08 09 0A 0B 0C 0D 0E 0F
      -- -- -- -- -- -- -- --  -- -- -- -- -- -- -- --
0790:                      66  0E 80 3C 50 0F 01 3C 50         f..<P..<P
07A0: 0F 01 74 68 62 32 00                              ..thb2.         
```

#### Opcodes

```
  0: 0x0797 [0x66] LOAD_EXT_SCHEDULER_MAIN: Load scheduler "thb2" with entities [Mendi (ID: 17780796/0x010F503C), Mendi (ID: 17780796/0x010F503C)], work=2*
  1: 0x07A6 [0x00] END_REQSTACK()
```

### Event 65535.92

#### Metadata

| Field        | Value    |
|--------------|----------|
| Entrypoint   | 0x07A7   |
| Data Size    | 16 bytes |
| Instructions | 2        |

```
      00 01 02 03 04 05 06 07  08 09 0A 0B 0C 0D 0E 0F
      -- -- -- -- -- -- -- --  -- -- -- -- -- -- -- --
07A0:                      66  02 80 3C 50 0F 01 3C 50         f..<P..<P
07B0: 0F 01 74 68 6B 31 00                              ..thk1.         
```

#### Opcodes

```
  0: 0x07A7 [0x66] LOAD_EXT_SCHEDULER_MAIN: Load scheduler "thk1" with entities [Mendi (ID: 17780796/0x010F503C), Mendi (ID: 17780796/0x010F503C)], work=0*
  1: 0x07B6 [0x00] END_REQSTACK()
```

### Event 65535.93

#### Metadata

| Field        | Value    |
|--------------|----------|
| Entrypoint   | 0x07B7   |
| Data Size    | 16 bytes |
| Instructions | 2        |

```
      00 01 02 03 04 05 06 07  08 09 0A 0B 0C 0D 0E 0F
      -- -- -- -- -- -- -- --  -- -- -- -- -- -- -- --
07B0:                      66  02 80 3C 50 0F 01 3C 50         f..<P..<P
07C0: 0F 01 74 68 6B 32 00                              ..thk2.         
```

#### Opcodes

```
  0: 0x07B7 [0x66] LOAD_EXT_SCHEDULER_MAIN: Load scheduler "thk2" with entities [Mendi (ID: 17780796/0x010F503C), Mendi (ID: 17780796/0x010F503C)], work=0*
  1: 0x07C6 [0x00] END_REQSTACK()
```

### Event 65535.94

#### Metadata

| Field        | Value    |
|--------------|----------|
| Entrypoint   | 0x07C7   |
| Data Size    | 20 bytes |
| Instructions | 5        |

```
      00 01 02 03 04 05 06 07  08 09 0A 0B 0C 0D 0E 0F
      -- -- -- -- -- -- -- --  -- -- -- -- -- -- -- --
07C0:                      59  04 3C 50 0F 01 4F 80 1F         Y.<P..O..
07D0: 00 7B 80 7C 80 02 80 1F  01 6F 00                 .{.|.....o.     
```

#### Opcodes

```
  0: 0x07C7 [0x59] UPDATE_ENTITY_DATA: Set Mendi (ID: 17780796/0x010F503C) main speed = 13* * 0.1
  1: 0x07CF [0x1F] MOVE_ENTITY: EventEntity moves to X=-2.765*, Z=5.059*, Y=0.000*
  2: 0x07D7 [0x1F] MOVE_ENTITY: Update entity position (mode=1)
  3: 0x07D9 [0x6F] WAIT_FRAME_DELAY: Yield until WaitTime reaches zero
  4: 0x07DA [0x00] END_REQSTACK()
```

### Event 65535.95

#### Metadata

| Field        | Value    |
|--------------|----------|
| Entrypoint   | 0x07DB   |
| Data Size    | 20 bytes |
| Instructions | 5        |

```
      00 01 02 03 04 05 06 07  08 09 0A 0B 0C 0D 0E 0F
      -- -- -- -- -- -- -- --  -- -- -- -- -- -- -- --
07D0:                                   59 04 3C 50 0F             Y.<P.
07E0: 01 4F 80 1F 00 58 80 59  80 02 80 1F 01 6F 00     .O...X.Y.....o. 
```

#### Opcodes

```
  0: 0x07DB [0x59] UPDATE_ENTITY_DATA: Set Mendi (ID: 17780796/0x010F503C) main speed = 13* * 0.1
  1: 0x07E3 [0x1F] MOVE_ENTITY: EventEntity moves to X=-0.991*, Z=2.123*, Y=0.000*
  2: 0x07EB [0x1F] MOVE_ENTITY: Update entity position (mode=1)
  3: 0x07ED [0x6F] WAIT_FRAME_DELAY: Yield until WaitTime reaches zero
  4: 0x07EE [0x00] END_REQSTACK()
```

### Event 65535.96

#### Metadata

| Field        | Value    |
|--------------|----------|
| Entrypoint   | 0x07EF   |
| Data Size    | 16 bytes |
| Instructions | 2        |

```
      00 01 02 03 04 05 06 07  08 09 0A 0B 0C 0D 0E 0F
      -- -- -- -- -- -- -- --  -- -- -- -- -- -- -- --
07E0:                                               5B                 [
07F0: 64 80 3C 50 0F 01 3C 50  0F 01 6F 70 64 30 00     d.<P..<P..opd0. 
```

#### Opcodes

```
  0: 0x07EF [0x5B] LOAD_EXT_SCHEDULER: Load scheduler "opd0" with entities [Mendi (ID: 17780796/0x010F503C), Mendi (ID: 17780796/0x010F503C)], work=2583*
  1: 0x07FE [0x00] END_REQSTACK()
```

### Event 65535.97

#### Metadata

| Field        | Value    |
|--------------|----------|
| Entrypoint   | 0x07FF   |
| Data Size    | 16 bytes |
| Instructions | 2        |

```
      00 01 02 03 04 05 06 07  08 09 0A 0B 0C 0D 0E 0F
      -- -- -- -- -- -- -- --  -- -- -- -- -- -- -- --
07F0:                                               5B                 [
0800: 64 80 3C 50 0F 01 3C 50  0F 01 6F 70 64 31 00     d.<P..<P..opd1. 
```

#### Opcodes

```
  0: 0x07FF [0x5B] LOAD_EXT_SCHEDULER: Load scheduler "opd1" with entities [Mendi (ID: 17780796/0x010F503C), Mendi (ID: 17780796/0x010F503C)], work=2583*
  1: 0x080E [0x00] END_REQSTACK()
```

### Event 65535.98

#### Metadata

| Field        | Value   |
|--------------|---------|
| Entrypoint   | 0x080F  |
| Data Size    | 1 bytes |
| Instructions | 1       |

```
      00 01 02 03 04 05 06 07  08 09 0A 0B 0C 0D 0E 0F
      -- -- -- -- -- -- -- --  -- -- -- -- -- -- -- --
0800:                                               00                 .
```

#### Opcodes

```
  0: 0x080F [0x00] END_REQSTACK()
```

### Event 10118

#### Metadata

| Field        | Value   |
|--------------|---------|
| Entrypoint   | 0x0810  |
| Data Size    | 1 bytes |
| Instructions | 1       |

```
      00 01 02 03 04 05 06 07  08 09 0A 0B 0C 0D 0E 0F
      -- -- -- -- -- -- -- --  -- -- -- -- -- -- -- --
0810: 00                                                .               
```

#### Opcodes

```
  0: 0x0810 [0x00] END_REQSTACK()
```
