# 17780757 - Naruru

## Common Data

| Field            | Value                 |
|------------------|-----------------------|
| Zone             | Lower Jeuno (ID: 245) |
| Block Size       | 3316 bytes            |
| Total Events     | 123                   |
| References Count | 131                   |

## List of Events

| Event ID                     | Entrypoint   |   Size |   Instructions |
|------------------------------|--------------|--------|----------------|
| [65535](#event-65535)        | 0x0000       |      4 |              2 |
| [98](#event-98)              | 0x0004       |     27 |              8 |
| [34](#event-34)              | 0x001F       |      1 |              1 |
| [16](#event-16)              | 0x0020       |     23 |              7 |
| [32](#event-32)              | 0x0037       |      1 |              1 |
| [35](#event-35)              | 0x0038       |      1 |              1 |
| [189](#event-189)            | 0x0039       |      1 |              1 |
| [188](#event-188)            | 0x003A       |    101 |             23 |
| [186](#event-186)            | 0x009F       |     16 |              6 |
| [187](#event-187)            | 0x00AF       |    100 |             16 |
| [29](#event-29)              | 0x0113       |      1 |              1 |
| [31](#event-31)              | 0x0114       |     11 |              5 |
| [71](#event-71)              | 0x011F       |     11 |              5 |
| [72](#event-72)              | 0x012A       |     11 |              5 |
| [65535.1](#event-655351)     | 0x0135       |     37 |             11 |
| [65535.2](#event-655352)     | 0x015A       |     10 |              2 |
| [65535.3](#event-655353)     | 0x0164       |     10 |              2 |
| [65535.4](#event-655354)     | 0x016E       |     29 |              3 |
| [65535.5](#event-655355)     | 0x018B       |     29 |              3 |
| [65535.6](#event-655356)     | 0x01A8       |     29 |              3 |
| [65535.7](#event-655357)     | 0x01C5       |     29 |              3 |
| [65535.8](#event-655358)     | 0x01E2       |     29 |              3 |
| [65535.9](#event-655359)     | 0x01FF       |     29 |              3 |
| [65535.10](#event-6553510)   | 0x021C       |      9 |              3 |
| [10053](#event-10053)        | 0x0225       |     28 |             12 |
| [10094](#event-10094)        | 0x0241       |      5 |              3 |
| [65535.11](#event-6553511)   | 0x0246       |     20 |              5 |
| [65535.12](#event-6553512)   | 0x025A       |     20 |              5 |
| [65535.13](#event-6553513)   | 0x026E       |     20 |              5 |
| [65535.14](#event-6553514)   | 0x0282       |     17 |              3 |
| [65535.15](#event-6553515)   | 0x0293       |     20 |              5 |
| [65535.16](#event-6553516)   | 0x02A7       |     20 |              5 |
| [65535.17](#event-6553517)   | 0x02BB       |     19 |              4 |
| [65535.18](#event-6553518)   | 0x02CE       |     19 |              4 |
| [65535.19](#event-6553519)   | 0x02E1       |     16 |              2 |
| [65535.20](#event-6553520)   | 0x02F1       |     16 |              2 |
| [65535.21](#event-6553521)   | 0x0301       |     20 |              5 |
| [65535.22](#event-6553522)   | 0x0315       |     16 |              2 |
| [65535.23](#event-6553523)   | 0x0325       |     16 |              2 |
| [65535.24](#event-6553524)   | 0x0335       |     16 |              2 |
| [65535.25](#event-6553525)   | 0x0345       |     21 |              6 |
| [65535.26](#event-6553526)   | 0x035A       |     16 |              2 |
| [65535.27](#event-6553527)   | 0x036A       |     16 |              2 |
| [65535.28](#event-6553528)   | 0x037A       |     20 |              5 |
| [65535.29](#event-6553529)   | 0x038E       |     17 |              3 |
| [65535.30](#event-6553530)   | 0x039F       |     20 |              5 |
| [65535.31](#event-6553531)   | 0x03B3       |     16 |              2 |
| [65535.32](#event-6553532)   | 0x03C3       |     16 |              2 |
| [65535.33](#event-6553533)   | 0x03D3       |     16 |              2 |
| [65535.34](#event-6553534)   | 0x03E3       |     16 |              2 |
| [65535.35](#event-6553535)   | 0x03F3       |     16 |              2 |
| [65535.36](#event-6553536)   | 0x0403       |     16 |              2 |
| [65535.37](#event-6553537)   | 0x0413       |     16 |              2 |
| [65535.38](#event-6553538)   | 0x0423       |     12 |              4 |
| [65535.39](#event-6553539)   | 0x042F       |     20 |              5 |
| [65535.40](#event-6553540)   | 0x0443       |     17 |              3 |
| [65535.41](#event-6553541)   | 0x0454       |     17 |              3 |
| [65535.42](#event-6553542)   | 0x0465       |     16 |              2 |
| [65535.43](#event-6553543)   | 0x0475       |     16 |              2 |
| [65535.44](#event-6553544)   | 0x0485       |     16 |              2 |
| [65535.45](#event-6553545)   | 0x0495       |     16 |              2 |
| [65535.46](#event-6553546)   | 0x04A5       |     16 |              2 |
| [65535.47](#event-6553547)   | 0x04B5       |     16 |              2 |
| [65535.48](#event-6553548)   | 0x04C5       |     13 |              5 |
| [65535.49](#event-6553549)   | 0x04D2       |     20 |              5 |
| [65535.50](#event-6553550)   | 0x04E6       |     12 |              4 |
| [65535.51](#event-6553551)   | 0x04F2       |     16 |              2 |
| [65535.52](#event-6553552)   | 0x0502       |     16 |              2 |
| [65535.53](#event-6553553)   | 0x0512       |     16 |              2 |
| [65535.54](#event-6553554)   | 0x0522       |     20 |              5 |
| [65535.55](#event-6553555)   | 0x0536       |     29 |              6 |
| [65535.56](#event-6553556)   | 0x0553       |     17 |              3 |
| [65535.57](#event-6553557)   | 0x0564       |     20 |              5 |
| [65535.58](#event-6553558)   | 0x0578       |     20 |              5 |
| [65535.59](#event-6553559)   | 0x058C       |     20 |              5 |
| [65535.60](#event-6553560)   | 0x05A0       |     20 |              5 |
| [65535.61](#event-6553561)   | 0x05B4       |     20 |              5 |
| [65535.62](#event-6553562)   | 0x05C8       |     16 |              2 |
| [65535.63](#event-6553563)   | 0x05D8       |     16 |              2 |
| [65535.64](#event-6553564)   | 0x05E8       |     20 |              5 |
| [65535.65](#event-6553565)   | 0x05FC       |     16 |              2 |
| [65535.66](#event-6553566)   | 0x060C       |     16 |              2 |
| [65535.67](#event-6553567)   | 0x061C       |     16 |              2 |
| [65535.68](#event-6553568)   | 0x062C       |     16 |              2 |
| [65535.69](#event-6553569)   | 0x063C       |     21 |              6 |
| [65535.70](#event-6553570)   | 0x0651       |     20 |              5 |
| [65535.71](#event-6553571)   | 0x0665       |     20 |              5 |
| [65535.72](#event-6553572)   | 0x0679       |     17 |              3 |
| [65535.73](#event-6553573)   | 0x068A       |     20 |              5 |
| [65535.74](#event-6553574)   | 0x069E       |     20 |              5 |
| [65535.75](#event-6553575)   | 0x06B2       |     16 |              2 |
| [65535.76](#event-6553576)   | 0x06C2       |     16 |              2 |
| [65535.77](#event-6553577)   | 0x06D2       |     21 |              6 |
| [65535.78](#event-6553578)   | 0x06E7       |     20 |              5 |
| [65535.79](#event-6553579)   | 0x06FB       |     20 |              5 |
| [65535.80](#event-6553580)   | 0x070F       |     16 |              2 |
| [65535.81](#event-6553581)   | 0x071F       |     20 |              5 |
| [65535.82](#event-6553582)   | 0x0733       |     21 |              6 |
| [65535.83](#event-6553583)   | 0x0748       |     20 |              5 |
| [65535.84](#event-6553584)   | 0x075C       |     12 |              4 |
| [65535.85](#event-6553585)   | 0x0768       |     16 |              2 |
| [65535.86](#event-6553586)   | 0x0778       |     16 |              2 |
| [65535.87](#event-6553587)   | 0x0788       |     20 |              5 |
| [65535.88](#event-6553588)   | 0x079C       |     20 |              5 |
| [65535.89](#event-6553589)   | 0x07B0       |     17 |              3 |
| [65535.90](#event-6553590)   | 0x07C1       |     16 |              2 |
| [65535.91](#event-6553591)   | 0x07D1       |     16 |              2 |
| [65535.92](#event-6553592)   | 0x07E1       |     16 |              2 |
| [65535.93](#event-6553593)   | 0x07F1       |     16 |              2 |
| [65535.94](#event-6553594)   | 0x0801       |     17 |              3 |
| [65535.95](#event-6553595)   | 0x0812       |     20 |              5 |
| [65535.96](#event-6553596)   | 0x0826       |     12 |              4 |
| [65535.97](#event-6553597)   | 0x0832       |     16 |              2 |
| [65535.98](#event-6553598)   | 0x0842       |     16 |              2 |
| [65535.99](#event-6553599)   | 0x0852       |     16 |              2 |
| [65535.100](#event-65535100) | 0x0862       |     16 |              2 |
| [65535.101](#event-65535101) | 0x0872       |     16 |              2 |
| [65535.102](#event-65535102) | 0x0882       |     16 |              2 |
| [65535.103](#event-65535103) | 0x0892       |     16 |              2 |
| [65535.104](#event-65535104) | 0x08A2       |     20 |              5 |
| [65535.105](#event-65535105) | 0x08B6       |     20 |              5 |
| [65535.106](#event-65535106) | 0x08CA       |     16 |              2 |
| [65535.107](#event-65535107) | 0x08DA       |     16 |              2 |

## DAT References (imed_data)

|   Index | Hex Value   |   Dec Value |
|---------|-------------|-------------|
|       0 | 0x000D      |          13 |
|       1 | 0x1C73      |        7283 |
|       2 | 0x0039      |          57 |
|       3 | 0x1C81      |        7297 |
|       4 | 0x1C82      |        7298 |
|       5 | 0x1CA4      |        7332 |
|       6 | 0x1CA0      |        7328 |
|       7 | 0x0000      |           0 |
|       8 | 0x1CA1      |        7329 |
|       9 | 0x0001      |           1 |
|      10 | 0x1CA3      |        7331 |
|      11 | 0x1CA2      |        7330 |
|      12 | 0x1CA5      |        7333 |
|      13 | 0x1CA6      |        7334 |
|      14 | 0x0028      |          40 |
|      15 | 0x1CA7      |        7335 |
|      16 | 0x00C9      |         201 |
|      17 | 0x1CAB      |        7339 |
|      18 | 0x1CB3      |        7347 |
|      19 | 0x1CDB      |        7387 |
|      20 | 0x0AFF      |        2815 |
|      21 | 0x003C      |          60 |
|      22 | 0x0776      |        1910 |
|      23 | 0xFFFEEF5B  |  4294897499 |
|      24 | 0xFFFDEE48  |  4294831688 |
|      25 | 0xFFFFFED6  |  4294966998 |
|      26 | 0x070B      |        1803 |
|      27 | 0xFFFF2156  |  4294910294 |
|      28 | 0xFFFDE509  |  4294829321 |
|      29 | 0xFFFFFF93  |  4294967187 |
|      30 | 0x09B1      |        2481 |
|      31 | 0x0029      |          41 |
|      32 | 0x250E      |        9486 |
|      33 | 0x001E      |          30 |
|      34 | 0x2511      |        9489 |
|      35 | 0x2512      |        9490 |
|      36 | 0x000C      |          12 |
|      37 | 0xFFFED6C4  |  4294891204 |
|      38 | 0xFFFDEB5B  |  4294830939 |
|      39 | 0x000B      |          11 |
|      40 | 0xFFFE8B97  |  4294871959 |
|      41 | 0xFFFD9E68  |  4294811240 |
|      42 | 0xFFFF0D87  |  4294905223 |
|      43 | 0xFFFEA0EF  |  4294877423 |
|      44 | 0x176F      |        5999 |
|      45 | 0x0A3A      |        2618 |
|      46 | 0xFFFEB818  |  4294883352 |
|      47 | 0xFFFE098F  |  4294838671 |
|      48 | 0xFFFEF410  |  4294898704 |
|      49 | 0xFFFE85B9  |  4294870457 |
|      50 | 0xFFFEEC91  |  4294896785 |
|      51 | 0xFFFE6EA2  |  4294864546 |
|      52 | 0x0A2A      |        2602 |
|      53 | 0xFFFEE552  |  4294894930 |
|      54 | 0xFFFE3269  |  4294849129 |
|      55 | 0x0A39      |        2617 |
|      56 | 0x0045      |          69 |
|      57 | 0xFFFF2160  |  4294910304 |
|      58 | 0xFFFEA80E  |  4294879246 |
|      59 | 0x0A3D      |        2621 |
|      60 | 0x0A43      |        2627 |
|      61 | 0x004B      |          75 |
|      62 | 0xFFFFB20E  |  4294947342 |
|      63 | 0xFFFFAE2A  |  4294946346 |
|      64 | 0xFFFEDC35  |  4294892597 |
|      65 | 0xFFFE5D95  |  4294860181 |
|      66 | 0x0A47      |        2631 |
|      67 | 0x0055      |          85 |
|      68 | 0xFFFFB26F  |  4294947439 |
|      69 | 0xFFFFAB30  |  4294945584 |
|      70 | 0x000E      |          14 |
|      71 | 0xFFFF6C7D  |  4294929533 |
|      72 | 0xFFFF0AA4  |  4294904484 |
|      73 | 0xFFFFCBCA  |  4294953930 |
|      74 | 0x09E0      |        2528 |
|      75 | 0xFFFFFE3F  |  4294966847 |
|      76 | 0xFFFEEA26  |  4294896166 |
|      77 | 0xFFFE4F39  |  4294856505 |
|      78 | 0xFFFED8EC  |  4294891756 |
|      79 | 0xFFFE38BF  |  4294850751 |
|      80 | 0xFFFEC5BC  |  4294886844 |
|      81 | 0xFFFE1640  |  4294841920 |
|      82 | 0x03E7      |         999 |
|      83 | 0x0A33      |        2611 |
|      84 | 0xFFFF04E1  |  4294903009 |
|      85 | 0xFFFE7108  |  4294865160 |
|      86 | 0x108C      |        4236 |
|      87 | 0x10F0      |        4336 |
|      88 | 0xFFFFC3F0  |  4294951920 |
|      89 | 0xFFFFA321  |  4294943521 |
|      90 | 0xFFFFFF9B  |  4294967195 |
|      91 | 0x000A      |          10 |
|      92 | 0x0A18      |        2584 |
|      93 | 0xFFFFFC21  |  4294966305 |
|      94 | 0x084B      |        2123 |
|      95 | 0x0008      |           8 |
|      96 | 0x0033      |          51 |
|      97 | 0xFFFF0DFA  |  4294905338 |
|      98 | 0xFFFE6C9D  |  4294864029 |
|      99 | 0xFFFEFBE3  |  4294900707 |
|     100 | 0xFFFE9775  |  4294874997 |
|     101 | 0xFFFF19CD  |  4294908365 |
|     102 | 0xFFFEAC62  |  4294880354 |
|     103 | 0xFFFECE8B  |  4294889099 |
|     104 | 0xFFFE3998  |  4294850968 |
|     105 | 0x0F9F      |        3999 |
|     106 | 0x0A17      |        2583 |
|     107 | 0xFFFFD965  |  4294957413 |
|     108 | 0xFFFFD99E  |  4294957470 |
|     109 | 0x0009      |           9 |
|     110 | 0xFFFEE68C  |  4294895244 |
|     111 | 0xFFFE6FBD  |  4294864829 |
|     112 | 0xFFFFE923  |  4294961443 |
|     113 | 0xFFFFEBBA  |  4294962106 |
|     114 | 0xFFFF4F66  |  4294922086 |
|     115 | 0xFFFEA394  |  4294878100 |
|     116 | 0xFFFFE891  |  4294961297 |
|     117 | 0xFFFFB859  |  4294948953 |
|     118 | 0xFFFFDFA2  |  4294959010 |
|     119 | 0xFFFFB9ED  |  4294949357 |
|     120 | 0xFFFFBF3D  |  4294950717 |
|     121 | 0xFFFFF407  |  4294964231 |
|     122 | 0xFFFFE105  |  4294959365 |
|     123 | 0x0A40      |        2624 |
|     124 | 0xFFFF6A1D  |  4294928925 |
|     125 | 0xFFFEF858  |  4294899800 |
|     126 | 0xFFFFEA43  |  4294961731 |
|     127 | 0xFFFFF8F4  |  4294965492 |
|     128 | 0x0002      |           2 |
|     129 | 0xFFFFF533  |  4294964531 |
|     130 | 0x13C3      |        5059 |

## String References

- **7328**: Will you do Naruru this favor? [Of course./I can't right now.]
- **7330**: I think the Culinarians' Guild in Windurst should have $6. But I remember it wasn't for sale as merchandise. Better ask one of the cooks there.
- **7332**: Say, if it isn't too much trouble, could you go grab me $6 just like my old one? The culinarians in Windurst carry them.
- **7333**: Thank you! It turned out my $3 had a big hole in it! I suppose they just don't make them thick enough. Anyway, thanks so much.
- **7334**: Now, here's a little something for your trouble.
- **7335**: But I wonder where Two could be...
- **7339**: But where could he be?
- **7347**: I hope Two comes back safe.
- **7387**: I'm so happy Two is back with us. Thank you so much!
- **9486**: <Player>'s badge flashes brightly.
- **9489**: Well, let me take a look at this Near Eastern cookbook I just got. It says "soup" is called "corbasi," and the secret to a delicious dish is...
- **9490**: Why, the secret is to simmer it in a $3, of course!

## Events

### Event 65535

#### Metadata

| Field        | Value   |
|--------------|---------|
| Entrypoint   | 0x0000  |
| Data Size    | 4 bytes |
| Instructions | 2       |

```
      00 01 02 03 04 05 06 07  08 09 0A 0B 0C 0D 0E 0F
      -- -- -- -- -- -- -- --  -- -- -- -- -- -- -- --
0000: 32 00 80 00                                       2...            
```

#### Opcodes

```
  0: 0x0000 [0x32] ExtData[1]->MainSpeed = 13* * 0.1
  1: 0x0003 [0x00] END_REQSTACK()
```

### Event 98

#### Metadata

| Field        | Value    |
|--------------|----------|
| Entrypoint   | 0x0004   |
| Data Size    | 27 bytes |
| Instructions | 8        |

```
      00 01 02 03 04 05 06 07  08 09 0A 0B 0C 0D 0E 0F
      -- -- -- -- -- -- -- --  -- -- -- -- -- -- -- --
0000:             20 01 4A 15  50 0F 01 F0 FF FF 7F 6F       .J.P......o
0010: 76 15 50 0F 01 2B 15 50  0F 01 01 80 23 21 00     v.P..+.P....#!. 
```

#### Opcodes

```
  0: 0x0004 [0x20] SET_CLI_EVENT_UC_FLAG: Lock player control
  1: 0x0006 [0x4A] Naruru (ID: 17780757/0x010F5015) looks at LocalPlayer
  2: 0x000F [0x6F] WAIT_FRAME_DELAY: Yield until WaitTime reaches zero
  3: 0x0010 [0x76] CHECK_ENTITY_RENDER_FLAGS: Wait until Naruru (ID: 17780757/0x010F5015) Render.Flags0 and Render.Flags3 conditions are met
  4: 0x0015 [0x2B] Naruru (ID: 17780757/0x010F5015) [7283*]:
    → "Two should be back soon. He's so handy-dandy!"
  5: 0x001C [0x23] WAIT_FOR_DIALOG_INTERACTION
  6: 0x001D [0x21] END_EVENT
  7: 0x001E [0x00] END_REQSTACK()
```

### Event 34

#### Metadata

| Field        | Value   |
|--------------|---------|
| Entrypoint   | 0x001F  |
| Data Size    | 1 bytes |
| Instructions | 1       |

```
      00 01 02 03 04 05 06 07  08 09 0A 0B 0C 0D 0E 0F
      -- -- -- -- -- -- -- --  -- -- -- -- -- -- -- --
0010:                                               00                 .
```

#### Opcodes

```
  0: 0x001F [0x00] END_REQSTACK()
```

### Event 16

#### Metadata

| Field        | Value    |
|--------------|----------|
| Entrypoint   | 0x0020   |
| Data Size    | 23 bytes |
| Instructions | 7        |

```
      00 01 02 03 04 05 06 07  08 09 0A 0B 0C 0D 0E 0F
      -- -- -- -- -- -- -- --  -- -- -- -- -- -- -- --
0020: 03 09 10 02 80 2B 15 50  0F 01 03 80 23 2B 15 50  .....+.P....#+.P
0030: 0F 01 04 80 23 21 00                              ....#!.         
```

#### Opcodes

```
  0: 0x0020 [0x03] Work_Zone[9] = 57*
  1: 0x0025 [0x2B] Naruru (ID: 17780757/0x010F5015) [7297*]:
    → "Well, I'd best start fixing something. Today we're having Tarutaru soup. I have to boil it in $6! It's good food, I say!"
  2: 0x002C [0x23] WAIT_FOR_DIALOG_INTERACTION
  3: 0x002D [0x2B] Naruru (ID: 17780757/0x010F5015) [7298*]:
    → "But I don't see it anywhere! Oh, dear... Where could it be?"
  4: 0x0034 [0x23] WAIT_FOR_DIALOG_INTERACTION
  5: 0x0035 [0x21] END_EVENT
  6: 0x0036 [0x00] END_REQSTACK()
```

### Event 32

#### Metadata

| Field        | Value   |
|--------------|---------|
| Entrypoint   | 0x0037  |
| Data Size    | 1 bytes |
| Instructions | 1       |

```
      00 01 02 03 04 05 06 07  08 09 0A 0B 0C 0D 0E 0F
      -- -- -- -- -- -- -- --  -- -- -- -- -- -- -- --
0030:                      00                                  .        
```

#### Opcodes

```
  0: 0x0037 [0x00] END_REQSTACK()
```

### Event 35

#### Metadata

| Field        | Value   |
|--------------|---------|
| Entrypoint   | 0x0038  |
| Data Size    | 1 bytes |
| Instructions | 1       |

```
      00 01 02 03 04 05 06 07  08 09 0A 0B 0C 0D 0E 0F
      -- -- -- -- -- -- -- --  -- -- -- -- -- -- -- --
0030:                          00                               .       
```

#### Opcodes

```
  0: 0x0038 [0x00] END_REQSTACK()
```

### Event 189

#### Metadata

| Field        | Value   |
|--------------|---------|
| Entrypoint   | 0x0039  |
| Data Size    | 1 bytes |
| Instructions | 1       |

```
      00 01 02 03 04 05 06 07  08 09 0A 0B 0C 0D 0E 0F
      -- -- -- -- -- -- -- --  -- -- -- -- -- -- -- --
0030:                             00                             .      
```

#### Opcodes

```
  0: 0x0039 [0x00] END_REQSTACK()
```

### Event 188

#### Metadata

| Field        | Value     |
|--------------|-----------|
| Entrypoint   | 0x003A    |
| Data Size    | 101 bytes |
| Instructions | 23        |

```
      00 01 02 03 04 05 06 07  08 09 0A 0B 0C 0D 0E 0F
      -- -- -- -- -- -- -- --  -- -- -- -- -- -- -- --
0030:                                03 09 10 02 80 1E            ......
0040: F0 FF FF 7F 1D 05 80 23  42 24 06 80 07 80 07 80  .......#B$......
0050: 25 02 00 10 07 80 00 77  00 27 03 15 50 0F 01 14  %......w.'..P...
0060: 2B 15 50 0F 01 08 80 23  29 04 15 50 0F 01 17 03  +.P....#)..P....
0070: 01 10 07 80 01 9D 00 02  00 10 09 80 00 9D 00 27  ...............'
0080: 03 15 50 0F 01 14 2B 15  50 0F 01 0A 80 23 29 04  ..P...+.P....#).
0090: 15 50 0F 01 17 03 01 10  09 80 01 9D 00 21 00     .P...........!. 
```

#### Opcodes

```
  0: 0x003A [0x03] Work_Zone[9] = 57*
  1: 0x003F [0x1E] EventEntity looks at LocalPlayer and starts talking
  2: 0x0044 [0x1D] PRINT_EVENT_MESSAGE(message_id=7332*)
    → "Say, if it isn't too much trouble, could you go grab me $6 just like my old one? The culinarians in Windurst carry them."
  3: 0x0047 [0x23] WAIT_FOR_DIALOG_INTERACTION
  4: 0x0048 [0x42] SET_CLI_EVENT_CANCEL_DATA()
  5: 0x0049 [0x24] CREATE_DIALOG(message_id=7328*, default_option=0*, option_flags=0*)
    → "Will you do Naruru this favor? [Of course./I can't right now.]"
  6: 0x0050 [0x25] WAIT_DIALOG_SELECT()
  7: 0x0051 [0x02] IF !(Work_Zone[0] == 0*) GOTO 0x0077
  8: 0x0059 [0x27] REQ_SET(priority=0x03, entity_id=Naruru (ID: 17780757/0x010F5015), tag_num=0x14)
  9: 0x0060 [0x2B] Naruru (ID: 17780757/0x010F5015) [7329*]:
    → "Thank you so much! I bet you think soup pots are all the same, but I can tell the difference! I'll be sure to return the favor somehow."
 10: 0x0067 [0x23] WAIT_FOR_DIALOG_INTERACTION
 11: 0x0068 [0x29] REQ_SET_WAIT(priority=0x04, entity_id=Naruru (ID: 17780757/0x010F5015), tag_num=0x17)
 12: 0x006F [0x03] Work_Zone[1] = 0*
 13: 0x0074 [0x01] GOTO 0x009D
 14: 0x0077 [0x02] IF !(Work_Zone[0] == 1*) GOTO 0x009D
 15: 0x007F [0x27] REQ_SET(priority=0x03, entity_id=Naruru (ID: 17780757/0x010F5015), tag_num=0x14)
 16: 0x0086 [0x2B] Naruru (ID: 17780757/0x010F5015) [7331*]:
    → "Oh, dear... Really? Well, I hope you change your mind."
 17: 0x008D [0x23] WAIT_FOR_DIALOG_INTERACTION
 18: 0x008E [0x29] REQ_SET_WAIT(priority=0x04, entity_id=Naruru (ID: 17780757/0x010F5015), tag_num=0x17)
 19: 0x0095 [0x03] Work_Zone[1] = 1*
 20: 0x009A [0x01] GOTO 0x009D

SUBROUTINE_009D:
 21: 0x009D [0x21] END_EVENT
 22: 0x009E [0x00] END_REQSTACK()
```

### Event 186

#### Metadata

| Field        | Value    |
|--------------|----------|
| Entrypoint   | 0x009F   |
| Data Size    | 16 bytes |
| Instructions | 6        |

```
      00 01 02 03 04 05 06 07  08 09 0A 0B 0C 0D 0E 0F
      -- -- -- -- -- -- -- --  -- -- -- -- -- -- -- --
0090:                                               03                 .
00A0: 09 10 02 80 1E F0 FF FF  7F 1D 0B 80 23 21 00     ............#!. 
```

#### Opcodes

```
  0: 0x009F [0x03] Work_Zone[9] = 57*
  1: 0x00A4 [0x1E] EventEntity looks at LocalPlayer and starts talking
  2: 0x00A9 [0x1D] PRINT_EVENT_MESSAGE(message_id=7330*)
    → "I think the Culinarians' Guild in Windurst should have $6. But I remember it wasn't for sale as merchandise. Better ask one of the cooks there."
  3: 0x00AC [0x23] WAIT_FOR_DIALOG_INTERACTION
  4: 0x00AD [0x21] END_EVENT
  5: 0x00AE [0x00] END_REQSTACK()
```

### Event 187

#### Metadata

| Field        | Value     |
|--------------|-----------|
| Entrypoint   | 0x00AF    |
| Data Size    | 100 bytes |
| Instructions | 16        |

```
      00 01 02 03 04 05 06 07  08 09 0A 0B 0C 0D 0E 0F
      -- -- -- -- -- -- -- --  -- -- -- -- -- -- -- --
00A0:                                               42                 B
00B0: 03 09 10 02 80 1E F0 FF  FF 7F 1D 0C 80 23 1D 0D  .............#..
00C0: 80 23 66 0E 80 F8 FF FF  7F F8 FF FF 7F 70 61 73  .#f..........pas
00D0: 30 66 0E 80 F8 FF FF 7F  F8 FF FF 7F 74 68 6B 31  0f..........thk1
00E0: 1D 0F 80 23 66 0E 80 F8  FF FF 7F F8 FF FF 7F 74  ...#f..........t
00F0: 68 6B 32 53 F8 FF FF 7F  F8 FF FF 7F 74 68 6B 32  hk2S........thk2
0100: 45 10 80 F0 FF FF 7F F0  FF FF 7F 71 73 74 63 07  E..........qstc.
0110: 80 21 00                                          .!.             
```

#### Opcodes

```
  0: 0x00AF [0x42] SET_CLI_EVENT_CANCEL_DATA()
  1: 0x00B0 [0x03] Work_Zone[9] = 57*
  2: 0x00B5 [0x1E] EventEntity looks at LocalPlayer and starts talking
  3: 0x00BA [0x1D] PRINT_EVENT_MESSAGE(message_id=7333*)
    → "Thank you! It turned out my $3 had a big hole in it! I suppose they just don't make them thick enough. Anyway, thanks so much."
  4: 0x00BD [0x23] WAIT_FOR_DIALOG_INTERACTION
  5: 0x00BE [0x1D] PRINT_EVENT_MESSAGE(message_id=7334*)
    → "Now, here's a little something for your trouble."
  6: 0x00C1 [0x23] WAIT_FOR_DIALOG_INTERACTION
  7: 0x00C2 [0x66] LOAD_EXT_SCHEDULER_MAIN: Load scheduler "pas0" with entities [EventEntity, EventEntity], work=40*
  8: 0x00D1 [0x66] LOAD_EXT_SCHEDULER_MAIN: Load scheduler "thk1" with entities [EventEntity, EventEntity], work=40*
  9: 0x00E0 [0x1D] PRINT_EVENT_MESSAGE(message_id=7335*)
    → "But I wonder where Two could be..."
 10: 0x00E3 [0x23] WAIT_FOR_DIALOG_INTERACTION
 11: 0x00E4 [0x66] LOAD_EXT_SCHEDULER_MAIN: Load scheduler "thk2" with entities [EventEntity, EventEntity], work=40*
 12: 0x00F3 [0x53] WAIT_SCHEDULER_TASK: Wait for scheduler "thk2" with entities [EventEntity, EventEntity]
 13: 0x0100 [0x45] LOAD_SCHEDULED_TASK: Load scheduler "qstc" with entities [LocalPlayer, LocalPlayer], work=[201*, 0*]
 14: 0x0111 [0x21] END_EVENT
 15: 0x0112 [0x00] END_REQSTACK()
```

### Event 29

#### Metadata

| Field        | Value   |
|--------------|---------|
| Entrypoint   | 0x0113  |
| Data Size    | 1 bytes |
| Instructions | 1       |

```
      00 01 02 03 04 05 06 07  08 09 0A 0B 0C 0D 0E 0F
      -- -- -- -- -- -- -- --  -- -- -- -- -- -- -- --
0110:          00                                          .            
```

#### Opcodes

```
  0: 0x0113 [0x00] END_REQSTACK()
```

### Event 31

#### Metadata

| Field        | Value    |
|--------------|----------|
| Entrypoint   | 0x0114   |
| Data Size    | 11 bytes |
| Instructions | 5        |

```
      00 01 02 03 04 05 06 07  08 09 0A 0B 0C 0D 0E 0F
      -- -- -- -- -- -- -- --  -- -- -- -- -- -- -- --
0110:             1E F0 FF FF  7F 1D 11 80 23 21 00         ........#!. 
```

#### Opcodes

```
  0: 0x0114 [0x1E] EventEntity looks at LocalPlayer and starts talking
  1: 0x0119 [0x1D] PRINT_EVENT_MESSAGE(message_id=7339*)
    → "But where could he be?"
  2: 0x011C [0x23] WAIT_FOR_DIALOG_INTERACTION
  3: 0x011D [0x21] END_EVENT
  4: 0x011E [0x00] END_REQSTACK()
```

### Event 71

#### Metadata

| Field        | Value    |
|--------------|----------|
| Entrypoint   | 0x011F   |
| Data Size    | 11 bytes |
| Instructions | 5        |

```
      00 01 02 03 04 05 06 07  08 09 0A 0B 0C 0D 0E 0F
      -- -- -- -- -- -- -- --  -- -- -- -- -- -- -- --
0110:                                               1E                 .
0120: F0 FF FF 7F 1D 12 80 23  21 00                    .......#!.      
```

#### Opcodes

```
  0: 0x011F [0x1E] EventEntity looks at LocalPlayer and starts talking
  1: 0x0124 [0x1D] PRINT_EVENT_MESSAGE(message_id=7347*)
    → "I hope Two comes back safe."
  2: 0x0127 [0x23] WAIT_FOR_DIALOG_INTERACTION
  3: 0x0128 [0x21] END_EVENT
  4: 0x0129 [0x00] END_REQSTACK()
```

### Event 72

#### Metadata

| Field        | Value    |
|--------------|----------|
| Entrypoint   | 0x012A   |
| Data Size    | 11 bytes |
| Instructions | 5        |

```
      00 01 02 03 04 05 06 07  08 09 0A 0B 0C 0D 0E 0F
      -- -- -- -- -- -- -- --  -- -- -- -- -- -- -- --
0120:                                1E F0 FF FF 7F 1D            ......
0130: 13 80 23 21 00                                    ..#!.           
```

#### Opcodes

```
  0: 0x012A [0x1E] EventEntity looks at LocalPlayer and starts talking
  1: 0x012F [0x1D] PRINT_EVENT_MESSAGE(message_id=7387*)
    → "I'm so happy Two is back with us. Thank you so much!"
  2: 0x0132 [0x23] WAIT_FOR_DIALOG_INTERACTION
  3: 0x0133 [0x21] END_EVENT
  4: 0x0134 [0x00] END_REQSTACK()
```

### Event 65535.1

#### Metadata

| Field        | Value    |
|--------------|----------|
| Entrypoint   | 0x0135   |
| Data Size    | 37 bytes |
| Instructions | 11       |

```
      00 01 02 03 04 05 06 07  08 09 0A 0B 0C 0D 0E 0F
      -- -- -- -- -- -- -- --  -- -- -- -- -- -- -- --
0130:                39 14 80  1C 15 80 39 16 80 1C 15       9.....9....
0140: 80 39 14 80 1C 15 80 39  16 80 1C 15 80 4A 15 50  .9.....9.....J.P
0150: 0F 01 F0 FF FF 7F 1C 15  80 00                    ..........      
```

#### Opcodes

```
  0: 0x0135 [0x39] SET_ENTITY_DIRECTION(direction=15.5°*)
  1: 0x0138 [0x1C] WAIT(60* ticks)
  2: 0x013B [0x39] SET_ENTITY_DIRECTION(direction=10.5°*)
  3: 0x013E [0x1C] WAIT(60* ticks)
  4: 0x0141 [0x39] SET_ENTITY_DIRECTION(direction=15.5°*)
  5: 0x0144 [0x1C] WAIT(60* ticks)
  6: 0x0147 [0x39] SET_ENTITY_DIRECTION(direction=10.5°*)
  7: 0x014A [0x1C] WAIT(60* ticks)
  8: 0x014D [0x4A] Naruru (ID: 17780757/0x010F5015) looks at LocalPlayer
  9: 0x0156 [0x1C] WAIT(60* ticks)
 10: 0x0159 [0x00] END_REQSTACK()
```

### Event 65535.2

#### Metadata

| Field        | Value    |
|--------------|----------|
| Entrypoint   | 0x015A   |
| Data Size    | 10 bytes |
| Instructions | 2        |

```
      00 01 02 03 04 05 06 07  08 09 0A 0B 0C 0D 0E 0F
      -- -- -- -- -- -- -- --  -- -- -- -- -- -- -- --
0150:                                37 17 80 18 80 19            7.....
0160: 80 1A 80 00                                       ....            
```

#### Opcodes

```
  0: 0x015A [0x37] UPDATE_EVENT_POSITION_AND_DIR: x=-69.797*, z=-135.608*, y=-0.298*, direction=158.5°*
  1: 0x0163 [0x00] END_REQSTACK()
```

### Event 65535.3

#### Metadata

| Field        | Value    |
|--------------|----------|
| Entrypoint   | 0x0164   |
| Data Size    | 10 bytes |
| Instructions | 2        |

```
      00 01 02 03 04 05 06 07  08 09 0A 0B 0C 0D 0E 0F
      -- -- -- -- -- -- -- --  -- -- -- -- -- -- -- --
0160:             37 1B 80 1C  80 1D 80 1E 80 00            7.........  
```

#### Opcodes

```
  0: 0x0164 [0x37] UPDATE_EVENT_POSITION_AND_DIR: x=-57.002*, z=-137.975*, y=-0.109*, direction=218.1°*
  1: 0x016D [0x00] END_REQSTACK()
```

### Event 65535.4

#### Metadata

| Field        | Value    |
|--------------|----------|
| Entrypoint   | 0x016E   |
| Data Size    | 29 bytes |
| Instructions | 3        |

```
      00 01 02 03 04 05 06 07  08 09 0A 0B 0C 0D 0E 0F
      -- -- -- -- -- -- -- --  -- -- -- -- -- -- -- --
0160:                                            66 0E                f.
0170: 80 F8 FF FF 7F F8 FF FF  7F 74 68 6B 31 53 F8 FF  .........thk1S..
0180: FF 7F F8 FF FF 7F 74 68  6B 31 00                 ......thk1.     
```

#### Opcodes

```
  0: 0x016E [0x66] LOAD_EXT_SCHEDULER_MAIN: Load scheduler "thk1" with entities [EventEntity, EventEntity], work=40*
  1: 0x017D [0x53] WAIT_SCHEDULER_TASK: Wait for scheduler "thk1" with entities [EventEntity, EventEntity]
  2: 0x018A [0x00] END_REQSTACK()
```

### Event 65535.5

#### Metadata

| Field        | Value    |
|--------------|----------|
| Entrypoint   | 0x018B   |
| Data Size    | 29 bytes |
| Instructions | 3        |

```
      00 01 02 03 04 05 06 07  08 09 0A 0B 0C 0D 0E 0F
      -- -- -- -- -- -- -- --  -- -- -- -- -- -- -- --
0180:                                   66 0E 80 F8 FF             f....
0190: FF 7F F8 FF FF 7F 74 68  6B 32 53 F8 FF FF 7F F8  ......thk2S.....
01A0: FF FF 7F 74 68 6B 32 00                           ...thk2.        
```

#### Opcodes

```
  0: 0x018B [0x66] LOAD_EXT_SCHEDULER_MAIN: Load scheduler "thk2" with entities [EventEntity, EventEntity], work=40*
  1: 0x019A [0x53] WAIT_SCHEDULER_TASK: Wait for scheduler "thk2" with entities [EventEntity, EventEntity]
  2: 0x01A7 [0x00] END_REQSTACK()
```

### Event 65535.6

#### Metadata

| Field        | Value    |
|--------------|----------|
| Entrypoint   | 0x01A8   |
| Data Size    | 29 bytes |
| Instructions | 3        |

```
      00 01 02 03 04 05 06 07  08 09 0A 0B 0C 0D 0E 0F
      -- -- -- -- -- -- -- --  -- -- -- -- -- -- -- --
01A0:                          66 0E 80 F8 FF FF 7F F8          f.......
01B0: FF FF 7F 64 69 73 30 53  F8 FF FF 7F F8 FF FF 7F  ...dis0S........
01C0: 64 69 73 30 00                                    dis0.           
```

#### Opcodes

```
  0: 0x01A8 [0x66] LOAD_EXT_SCHEDULER_MAIN: Load scheduler "dis0" with entities [EventEntity, EventEntity], work=40*
  1: 0x01B7 [0x53] WAIT_SCHEDULER_TASK: Wait for scheduler "dis0" with entities [EventEntity, EventEntity]
  2: 0x01C4 [0x00] END_REQSTACK()
```

### Event 65535.7

#### Metadata

| Field        | Value    |
|--------------|----------|
| Entrypoint   | 0x01C5   |
| Data Size    | 29 bytes |
| Instructions | 3        |

```
      00 01 02 03 04 05 06 07  08 09 0A 0B 0C 0D 0E 0F
      -- -- -- -- -- -- -- --  -- -- -- -- -- -- -- --
01C0:                66 0E 80  F8 FF FF 7F F8 FF FF 7F       f..........
01D0: 74 6C 6B 30 53 F8 FF FF  7F F8 FF FF 7F 74 6C 6B  tlk0S........tlk
01E0: 30 00                                             0.              
```

#### Opcodes

```
  0: 0x01C5 [0x66] LOAD_EXT_SCHEDULER_MAIN: Load scheduler "tlk0" with entities [EventEntity, EventEntity], work=40*
  1: 0x01D4 [0x53] WAIT_SCHEDULER_TASK: Wait for scheduler "tlk0" with entities [EventEntity, EventEntity]
  2: 0x01E1 [0x00] END_REQSTACK()
```

### Event 65535.8

#### Metadata

| Field        | Value    |
|--------------|----------|
| Entrypoint   | 0x01E2   |
| Data Size    | 29 bytes |
| Instructions | 3        |

```
      00 01 02 03 04 05 06 07  08 09 0A 0B 0C 0D 0E 0F
      -- -- -- -- -- -- -- --  -- -- -- -- -- -- -- --
01E0:       66 1F 80 F8 FF FF  7F F8 FF FF 7F 67 68 6E    f..........ghn
01F0: 31 53 F8 FF FF 7F F8 FF  FF 7F 67 68 6E 31 00     1S........ghn1. 
```

#### Opcodes

```
  0: 0x01E2 [0x66] LOAD_EXT_SCHEDULER_MAIN: Load scheduler "ghn1" with entities [EventEntity, EventEntity], work=41*
  1: 0x01F1 [0x53] WAIT_SCHEDULER_TASK: Wait for scheduler "ghn1" with entities [EventEntity, EventEntity]
  2: 0x01FE [0x00] END_REQSTACK()
```

### Event 65535.9

#### Metadata

| Field        | Value    |
|--------------|----------|
| Entrypoint   | 0x01FF   |
| Data Size    | 29 bytes |
| Instructions | 3        |

```
      00 01 02 03 04 05 06 07  08 09 0A 0B 0C 0D 0E 0F
      -- -- -- -- -- -- -- --  -- -- -- -- -- -- -- --
01F0:                                               66                 f
0200: 1F 80 F8 FF FF 7F F8 FF  FF 7F 6F 68 68 30 53 F8  ..........ohh0S.
0210: FF FF 7F F8 FF FF 7F 6F  68 68 30 00              .......ohh0.    
```

#### Opcodes

```
  0: 0x01FF [0x66] LOAD_EXT_SCHEDULER_MAIN: Load scheduler "ohh0" with entities [EventEntity, EventEntity], work=41*
  1: 0x020E [0x53] WAIT_SCHEDULER_TASK: Wait for scheduler "ohh0" with entities [EventEntity, EventEntity]
  2: 0x021B [0x00] END_REQSTACK()
```

### Event 65535.10

#### Metadata

| Field        | Value   |
|--------------|---------|
| Entrypoint   | 0x021C  |
| Data Size    | 9 bytes |
| Instructions | 3       |

```
      00 01 02 03 04 05 06 07  08 09 0A 0B 0C 0D 0E 0F
      -- -- -- -- -- -- -- --  -- -- -- -- -- -- -- --
0210:                                      5E 69 64 6C              ^idl
0220: 30 1C 15 80 00                                    0....           
```

#### Opcodes

```
  0: 0x021C [0x5E] EventEntity goes idle (kills current action) (animation: "idl0")
  1: 0x0221 [0x1C] WAIT(60* ticks)
  2: 0x0224 [0x00] END_REQSTACK()
```

### Event 10053

#### Metadata

| Field        | Value    |
|--------------|----------|
| Entrypoint   | 0x0225   |
| Data Size    | 28 bytes |
| Instructions | 11       |

```
      00 01 02 03 04 05 06 07  08 09 0A 0B 0C 0D 0E 0F
      -- -- -- -- -- -- -- --  -- -- -- -- -- -- -- --
0220:                42 48 20  80 1E F0 FF FF 7F 1C 21       BH .......!
0230: 80 1D 22 80 23 03 09 10  02 80 1D 23 80 23 21 00  ..".#......#.#!.
0240: 00                                                .               
```

#### Opcodes

```
  0: 0x0225 [0x42] SET_CLI_EVENT_CANCEL_DATA()
  1: 0x0226 [0x48] [System] [9486*]:
    → "<Player>'s badge flashes brightly."
  2: 0x0229 [0x1E] EventEntity looks at LocalPlayer and starts talking
  3: 0x022E [0x1C] WAIT(30* ticks)
  4: 0x0231 [0x1D] PRINT_EVENT_MESSAGE(message_id=9489*)
    → "Well, let me take a look at this Near Eastern cookbook I just got. It says "soup" is called "corbasi," and the secret to a delicious dish is..."
  5: 0x0234 [0x23] WAIT_FOR_DIALOG_INTERACTION
  6: 0x0235 [0x03] Work_Zone[9] = 57*
  7: 0x023A [0x1D] PRINT_EVENT_MESSAGE(message_id=9490*)
    → "Why, the secret is to simmer it in a $3, of course!"
  8: 0x023D [0x23] WAIT_FOR_DIALOG_INTERACTION
  9: 0x023E [0x21] END_EVENT
 10: 0x023F [0x00] END_REQSTACK()
```

#### Data or dead code:

```
# Dead code (unreachable instructions):
     0x0240 [0x00] END_REQSTACK()
```

### Event 10094

#### Metadata

| Field        | Value   |
|--------------|---------|
| Entrypoint   | 0x0241  |
| Data Size    | 5 bytes |
| Instructions | 2       |

```
      00 01 02 03 04 05 06 07  08 09 0A 0B 0C 0D 0E 0F
      -- -- -- -- -- -- -- --  -- -- -- -- -- -- -- --
0240:    C0 09 80 00 00                                  .....          
```

#### Opcodes

```
  0: 0x0241 [0xC0] EventEntity->Render.Flags3 |= 0x1000 // Set bit 12 (from 1*)
  1: 0x0244 [0x00] END_REQSTACK()
```

#### Data or dead code:

```
# Dead code (unreachable instructions):
     0x0245 [0x00] END_REQSTACK()
```

### Event 65535.11

#### Metadata

| Field        | Value    |
|--------------|----------|
| Entrypoint   | 0x0246   |
| Data Size    | 20 bytes |
| Instructions | 5        |

```
      00 01 02 03 04 05 06 07  08 09 0A 0B 0C 0D 0E 0F
      -- -- -- -- -- -- -- --  -- -- -- -- -- -- -- --
0240:                   59 04  0B 50 0F 01 24 80 1F 00        Y..P..$...
0250: 25 80 26 80 07 80 1F 01  6F 00                    %.&.....o.      
```

#### Opcodes

```
  0: 0x0246 [0x59] UPDATE_ENTITY_DATA: Set Garnev (ID: 17780747/0x010F500B) main speed = 12* * 0.1
  1: 0x024E [0x1F] MOVE_ENTITY: EventEntity moves to X=-76.092*, Z=-136.357*, Y=0.000*
  2: 0x0256 [0x1F] MOVE_ENTITY: Update entity position (mode=1)
  3: 0x0258 [0x6F] WAIT_FRAME_DELAY: Yield until WaitTime reaches zero
  4: 0x0259 [0x00] END_REQSTACK()
```

### Event 65535.12

#### Metadata

| Field        | Value    |
|--------------|----------|
| Entrypoint   | 0x025A   |
| Data Size    | 20 bytes |
| Instructions | 5        |

```
      00 01 02 03 04 05 06 07  08 09 0A 0B 0C 0D 0E 0F
      -- -- -- -- -- -- -- --  -- -- -- -- -- -- -- --
0250:                                59 04 1D 50 0F 01            Y..P..
0260: 27 80 1F 00 28 80 29 80  07 80 1F 01 6F 00        '...(.).....o.  
```

#### Opcodes

```
  0: 0x025A [0x59] UPDATE_ENTITY_DATA: Set Mataligeat (ID: 17780765/0x010F501D) main speed = 11* * 0.1
  1: 0x0262 [0x1F] MOVE_ENTITY: EventEntity moves to X=-95.337*, Z=-156.056*, Y=0.000*
  2: 0x026A [0x1F] MOVE_ENTITY: Update entity position (mode=1)
  3: 0x026C [0x6F] WAIT_FRAME_DELAY: Yield until WaitTime reaches zero
  4: 0x026D [0x00] END_REQSTACK()
```

### Event 65535.13

#### Metadata

| Field        | Value    |
|--------------|----------|
| Entrypoint   | 0x026E   |
| Data Size    | 20 bytes |
| Instructions | 5        |

```
      00 01 02 03 04 05 06 07  08 09 0A 0B 0C 0D 0E 0F
      -- -- -- -- -- -- -- --  -- -- -- -- -- -- -- --
0260:                                            59 04                Y.
0270: 1D 50 0F 01 27 80 1F 00  2A 80 2B 80 2C 80 1F 01  .P..'...*.+.,...
0280: 6F 00                                             o.              
```

#### Opcodes

```
  0: 0x026E [0x59] UPDATE_ENTITY_DATA: Set Mataligeat (ID: 17780765/0x010F501D) main speed = 11* * 0.1
  1: 0x0276 [0x1F] MOVE_ENTITY: EventEntity moves to X=-62.073*, Z=-89.873*, Y=5.999*
  2: 0x027E [0x1F] MOVE_ENTITY: Update entity position (mode=1)
  3: 0x0280 [0x6F] WAIT_FRAME_DELAY: Yield until WaitTime reaches zero
  4: 0x0281 [0x00] END_REQSTACK()
```

### Event 65535.14

#### Metadata

| Field        | Value    |
|--------------|----------|
| Entrypoint   | 0x0282   |
| Data Size    | 17 bytes |
| Instructions | 2        |

```
      00 01 02 03 04 05 06 07  08 09 0A 0B 0C 0D 0E 0F
      -- -- -- -- -- -- -- --  -- -- -- -- -- -- -- --
0280:       5B 2D 80 1D 50 0F  01 1D 50 0F 01 6F 70 30    [-..P...P..op0
0290: 30 00 00                                          0..             
```

#### Opcodes

```
  0: 0x0282 [0x5B] LOAD_EXT_SCHEDULER: Load scheduler "op00" with entities [Mataligeat (ID: 17780765/0x010F501D), Mataligeat (ID: 17780765/0x010F501D)], work=2618*
  1: 0x0291 [0x00] END_REQSTACK()
```

#### Data or dead code:

```
# Dead code (unreachable instructions):
     0x0292 [0x00] END_REQSTACK()
```

### Event 65535.15

#### Metadata

| Field        | Value    |
|--------------|----------|
| Entrypoint   | 0x0293   |
| Data Size    | 20 bytes |
| Instructions | 5        |

```
      00 01 02 03 04 05 06 07  08 09 0A 0B 0C 0D 0E 0F
      -- -- -- -- -- -- -- --  -- -- -- -- -- -- -- --
0290:          59 04 3A 50 0F  01 27 80 1F 00 28 80 29     Y.:P..'...(.)
02A0: 80 07 80 1F 01 6F 00                              .....o.         
```

#### Opcodes

```
  0: 0x0293 [0x59] UPDATE_ENTITY_DATA: Set Navisse (ID: 17780794/0x010F503A) main speed = 11* * 0.1
  1: 0x029B [0x1F] MOVE_ENTITY: EventEntity moves to X=-95.337*, Z=-156.056*, Y=0.000*
  2: 0x02A3 [0x1F] MOVE_ENTITY: Update entity position (mode=1)
  3: 0x02A5 [0x6F] WAIT_FRAME_DELAY: Yield until WaitTime reaches zero
  4: 0x02A6 [0x00] END_REQSTACK()
```

### Event 65535.16

#### Metadata

| Field        | Value    |
|--------------|----------|
| Entrypoint   | 0x02A7   |
| Data Size    | 20 bytes |
| Instructions | 5        |

```
      00 01 02 03 04 05 06 07  08 09 0A 0B 0C 0D 0E 0F
      -- -- -- -- -- -- -- --  -- -- -- -- -- -- -- --
02A0:                      59  04 2C 50 0F 01 24 80 1F         Y.,P..$..
02B0: 00 2E 80 2F 80 07 80 1F  01 6F 00                 .../.....o.     
```

#### Opcodes

```
  0: 0x02A7 [0x59] UPDATE_ENTITY_DATA: Set Jazmin (ID: 17780780/0x010F502C) main speed = 12* * 0.1
  1: 0x02AF [0x1F] MOVE_ENTITY: EventEntity moves to X=-83.944*, Z=-128.625*, Y=0.000*
  2: 0x02B7 [0x1F] MOVE_ENTITY: Update entity position (mode=1)
  3: 0x02B9 [0x6F] WAIT_FRAME_DELAY: Yield until WaitTime reaches zero
  4: 0x02BA [0x00] END_REQSTACK()
```

### Event 65535.17

#### Metadata

| Field        | Value    |
|--------------|----------|
| Entrypoint   | 0x02BB   |
| Data Size    | 19 bytes |
| Instructions | 4        |

```
      00 01 02 03 04 05 06 07  08 09 0A 0B 0C 0D 0E 0F
      -- -- -- -- -- -- -- --  -- -- -- -- -- -- -- --
02B0:                                   59 04 2C 50 0F             Y.,P.
02C0: 01 27 80 1F 00 30 80 31  80 2C 80 1F 01 00        .'...0.1.,....  
```

#### Opcodes

```
  0: 0x02BB [0x59] UPDATE_ENTITY_DATA: Set Jazmin (ID: 17780780/0x010F502C) main speed = 11* * 0.1
  1: 0x02C3 [0x1F] MOVE_ENTITY: EventEntity moves to X=-68.592*, Z=-96.839*, Y=5.999*
  2: 0x02CB [0x1F] MOVE_ENTITY: Update entity position (mode=1)
  3: 0x02CD [0x00] END_REQSTACK()
```

### Event 65535.18

#### Metadata

| Field        | Value    |
|--------------|----------|
| Entrypoint   | 0x02CE   |
| Data Size    | 19 bytes |
| Instructions | 4        |

```
      00 01 02 03 04 05 06 07  08 09 0A 0B 0C 0D 0E 0F
      -- -- -- -- -- -- -- --  -- -- -- -- -- -- -- --
02C0:                                            59 04                Y.
02D0: 2C 50 0F 01 27 80 1F 00  32 80 33 80 2C 80 1F 01  ,P..'...2.3.,...
02E0: 00                                                .               
```

#### Opcodes

```
  0: 0x02CE [0x59] UPDATE_ENTITY_DATA: Set Jazmin (ID: 17780780/0x010F502C) main speed = 11* * 0.1
  1: 0x02D6 [0x1F] MOVE_ENTITY: EventEntity moves to X=-70.511*, Z=-102.750*, Y=5.999*
  2: 0x02DE [0x1F] MOVE_ENTITY: Update entity position (mode=1)
  3: 0x02E0 [0x00] END_REQSTACK()
```

### Event 65535.19

#### Metadata

| Field        | Value    |
|--------------|----------|
| Entrypoint   | 0x02E1   |
| Data Size    | 16 bytes |
| Instructions | 2        |

```
      00 01 02 03 04 05 06 07  08 09 0A 0B 0C 0D 0E 0F
      -- -- -- -- -- -- -- --  -- -- -- -- -- -- -- --
02E0:    5B 34 80 2C 50 0F 01  2C 50 0F 01 6F 70 30 30   [4.,P..,P..op00
02F0: 00                                                .               
```

#### Opcodes

```
  0: 0x02E1 [0x5B] LOAD_EXT_SCHEDULER: Load scheduler "op00" with entities [Jazmin (ID: 17780780/0x010F502C), Jazmin (ID: 17780780/0x010F502C)], work=2602*
  1: 0x02F0 [0x00] END_REQSTACK()
```

### Event 65535.20

#### Metadata

| Field        | Value    |
|--------------|----------|
| Entrypoint   | 0x02F1   |
| Data Size    | 16 bytes |
| Instructions | 2        |

```
      00 01 02 03 04 05 06 07  08 09 0A 0B 0C 0D 0E 0F
      -- -- -- -- -- -- -- --  -- -- -- -- -- -- -- --
02F0:    5B 34 80 2C 50 0F 01  2C 50 0F 01 6F 70 30 31   [4.,P..,P..op01
0300: 00                                                .               
```

#### Opcodes

```
  0: 0x02F1 [0x5B] LOAD_EXT_SCHEDULER: Load scheduler "op01" with entities [Jazmin (ID: 17780780/0x010F502C), Jazmin (ID: 17780780/0x010F502C)], work=2602*
  1: 0x0300 [0x00] END_REQSTACK()
```

### Event 65535.21

#### Metadata

| Field        | Value    |
|--------------|----------|
| Entrypoint   | 0x0301   |
| Data Size    | 20 bytes |
| Instructions | 5        |

```
      00 01 02 03 04 05 06 07  08 09 0A 0B 0C 0D 0E 0F
      -- -- -- -- -- -- -- --  -- -- -- -- -- -- -- --
0300:    59 04 2C 50 0F 01 27  80 1F 00 35 80 36 80 2C   Y.,P..'...5.6.,
0310: 80 1F 01 6F 00                                    ...o.           
```

#### Opcodes

```
  0: 0x0301 [0x59] UPDATE_ENTITY_DATA: Set Jazmin (ID: 17780780/0x010F502C) main speed = 11* * 0.1
  1: 0x0309 [0x1F] MOVE_ENTITY: EventEntity moves to X=-72.366*, Z=-118.167*, Y=5.999*
  2: 0x0311 [0x1F] MOVE_ENTITY: Update entity position (mode=1)
  3: 0x0313 [0x6F] WAIT_FRAME_DELAY: Yield until WaitTime reaches zero
  4: 0x0314 [0x00] END_REQSTACK()
```

### Event 65535.22

#### Metadata

| Field        | Value    |
|--------------|----------|
| Entrypoint   | 0x0315   |
| Data Size    | 16 bytes |
| Instructions | 2        |

```
      00 01 02 03 04 05 06 07  08 09 0A 0B 0C 0D 0E 0F
      -- -- -- -- -- -- -- --  -- -- -- -- -- -- -- --
0310:                5B 37 80  2C 50 0F 01 2C 50 0F 01       [7.,P..,P..
0320: 6F 70 61 30 00                                    opa0.           
```

#### Opcodes

```
  0: 0x0315 [0x5B] LOAD_EXT_SCHEDULER: Load scheduler "opa0" with entities [Jazmin (ID: 17780780/0x010F502C), Jazmin (ID: 17780780/0x010F502C)], work=2617*
  1: 0x0324 [0x00] END_REQSTACK()
```

### Event 65535.23

#### Metadata

| Field        | Value    |
|--------------|----------|
| Entrypoint   | 0x0325   |
| Data Size    | 16 bytes |
| Instructions | 2        |

```
      00 01 02 03 04 05 06 07  08 09 0A 0B 0C 0D 0E 0F
      -- -- -- -- -- -- -- --  -- -- -- -- -- -- -- --
0320:                5B 37 80  2C 50 0F 01 2C 50 0F 01       [7.,P..,P..
0330: 6F 70 61 31 00                                    opa1.           
```

#### Opcodes

```
  0: 0x0325 [0x5B] LOAD_EXT_SCHEDULER: Load scheduler "opa1" with entities [Jazmin (ID: 17780780/0x010F502C), Jazmin (ID: 17780780/0x010F502C)], work=2617*
  1: 0x0334 [0x00] END_REQSTACK()
```

### Event 65535.24

#### Metadata

| Field        | Value    |
|--------------|----------|
| Entrypoint   | 0x0335   |
| Data Size    | 16 bytes |
| Instructions | 2        |

```
      00 01 02 03 04 05 06 07  08 09 0A 0B 0C 0D 0E 0F
      -- -- -- -- -- -- -- --  -- -- -- -- -- -- -- --
0330:                5B 37 80  2C 50 0F 01 2C 50 0F 01       [7.,P..,P..
0340: 6F 70 61 32 00                                    opa2.           
```

#### Opcodes

```
  0: 0x0335 [0x5B] LOAD_EXT_SCHEDULER: Load scheduler "opa2" with entities [Jazmin (ID: 17780780/0x010F502C), Jazmin (ID: 17780780/0x010F502C)], work=2617*
  1: 0x0344 [0x00] END_REQSTACK()
```

### Event 65535.25

#### Metadata

| Field        | Value    |
|--------------|----------|
| Entrypoint   | 0x0345   |
| Data Size    | 21 bytes |
| Instructions | 5        |

```
      00 01 02 03 04 05 06 07  08 09 0A 0B 0C 0D 0E 0F
      -- -- -- -- -- -- -- --  -- -- -- -- -- -- -- --
0340:                59 04 2E  50 0F 01 24 80 1F 00 25       Y..P..$...%
0350: 80 26 80 07 80 1F 01 6F  00 00                    .&.....o..      
```

#### Opcodes

```
  0: 0x0345 [0x59] UPDATE_ENTITY_DATA: Set Bogharg (ID: 17780782/0x010F502E) main speed = 12* * 0.1
  1: 0x034D [0x1F] MOVE_ENTITY: EventEntity moves to X=-76.092*, Z=-136.357*, Y=0.000*
  2: 0x0355 [0x1F] MOVE_ENTITY: Update entity position (mode=1)
  3: 0x0357 [0x6F] WAIT_FRAME_DELAY: Yield until WaitTime reaches zero
  4: 0x0358 [0x00] END_REQSTACK()
```

#### Data or dead code:

```
# Dead code (unreachable instructions):
     0x0359 [0x00] END_REQSTACK()
```

### Event 65535.26

#### Metadata

| Field        | Value    |
|--------------|----------|
| Entrypoint   | 0x035A   |
| Data Size    | 16 bytes |
| Instructions | 2        |

```
      00 01 02 03 04 05 06 07  08 09 0A 0B 0C 0D 0E 0F
      -- -- -- -- -- -- -- --  -- -- -- -- -- -- -- --
0350:                                66 38 80 2E 50 0F            f8..P.
0360: 01 2E 50 0F 01 74 68 6B  31 00                    ..P..thk1.      
```

#### Opcodes

```
  0: 0x035A [0x66] LOAD_EXT_SCHEDULER_MAIN: Load scheduler "thk1" with entities [Bogharg (ID: 17780782/0x010F502E), Bogharg (ID: 17780782/0x010F502E)], work=69*
  1: 0x0369 [0x00] END_REQSTACK()
```

### Event 65535.27

#### Metadata

| Field        | Value    |
|--------------|----------|
| Entrypoint   | 0x036A   |
| Data Size    | 16 bytes |
| Instructions | 2        |

```
      00 01 02 03 04 05 06 07  08 09 0A 0B 0C 0D 0E 0F
      -- -- -- -- -- -- -- --  -- -- -- -- -- -- -- --
0360:                                66 38 80 2E 50 0F            f8..P.
0370: 01 2E 50 0F 01 74 68 6B  32 00                    ..P..thk2.      
```

#### Opcodes

```
  0: 0x036A [0x66] LOAD_EXT_SCHEDULER_MAIN: Load scheduler "thk2" with entities [Bogharg (ID: 17780782/0x010F502E), Bogharg (ID: 17780782/0x010F502E)], work=69*
  1: 0x0379 [0x00] END_REQSTACK()
```

### Event 65535.28

#### Metadata

| Field        | Value    |
|--------------|----------|
| Entrypoint   | 0x037A   |
| Data Size    | 20 bytes |
| Instructions | 5        |

```
      00 01 02 03 04 05 06 07  08 09 0A 0B 0C 0D 0E 0F
      -- -- -- -- -- -- -- --  -- -- -- -- -- -- -- --
0370:                                59 04 2E 50 0F 01            Y..P..
0380: 24 80 1F 00 39 80 3A 80  2C 80 1F 01 6F 00        $...9.:.,...o.  
```

#### Opcodes

```
  0: 0x037A [0x59] UPDATE_ENTITY_DATA: Set Bogharg (ID: 17780782/0x010F502E) main speed = 12* * 0.1
  1: 0x0382 [0x1F] MOVE_ENTITY: EventEntity moves to X=-56.992*, Z=-88.050*, Y=5.999*
  2: 0x038A [0x1F] MOVE_ENTITY: Update entity position (mode=1)
  3: 0x038C [0x6F] WAIT_FRAME_DELAY: Yield until WaitTime reaches zero
  4: 0x038D [0x00] END_REQSTACK()
```

### Event 65535.29

#### Metadata

| Field        | Value    |
|--------------|----------|
| Entrypoint   | 0x038E   |
| Data Size    | 17 bytes |
| Instructions | 2        |

```
      00 01 02 03 04 05 06 07  08 09 0A 0B 0C 0D 0E 0F
      -- -- -- -- -- -- -- --  -- -- -- -- -- -- -- --
0380:                                            5B 3B                [;
0390: 80 2E 50 0F 01 2E 50 0F  01 6F 70 30 30 00 00     ..P...P..op00.. 
```

#### Opcodes

```
  0: 0x038E [0x5B] LOAD_EXT_SCHEDULER: Load scheduler "op00" with entities [Bogharg (ID: 17780782/0x010F502E), Bogharg (ID: 17780782/0x010F502E)], work=2621*
  1: 0x039D [0x00] END_REQSTACK()
```

#### Data or dead code:

```
# Dead code (unreachable instructions):
     0x039E [0x00] END_REQSTACK()
```

### Event 65535.30

#### Metadata

| Field        | Value    |
|--------------|----------|
| Entrypoint   | 0x039F   |
| Data Size    | 20 bytes |
| Instructions | 5        |

```
      00 01 02 03 04 05 06 07  08 09 0A 0B 0C 0D 0E 0F
      -- -- -- -- -- -- -- --  -- -- -- -- -- -- -- --
0390:                                               59                 Y
03A0: 04 31 50 0F 01 27 80 1F  00 2E 80 2F 80 07 80 1F  .1P..'...../....
03B0: 01 6F 00                                          .o.             
```

#### Opcodes

```
  0: 0x039F [0x59] UPDATE_ENTITY_DATA: Set Nakho Jawantal (ID: 17780785/0x010F5031) main speed = 11* * 0.1
  1: 0x03A7 [0x1F] MOVE_ENTITY: EventEntity moves to X=-83.944*, Z=-128.625*, Y=0.000*
  2: 0x03AF [0x1F] MOVE_ENTITY: Update entity position (mode=1)
  3: 0x03B1 [0x6F] WAIT_FRAME_DELAY: Yield until WaitTime reaches zero
  4: 0x03B2 [0x00] END_REQSTACK()
```

### Event 65535.31

#### Metadata

| Field        | Value    |
|--------------|----------|
| Entrypoint   | 0x03B3   |
| Data Size    | 16 bytes |
| Instructions | 2        |

```
      00 01 02 03 04 05 06 07  08 09 0A 0B 0C 0D 0E 0F
      -- -- -- -- -- -- -- --  -- -- -- -- -- -- -- --
03B0:          5B 3C 80 12 50  0F 01 12 50 0F 01 6F 70     [<..P...P..op
03C0: 61 30 00                                          a0.             
```

#### Opcodes

```
  0: 0x03B3 [0x5B] LOAD_EXT_SCHEDULER: Load scheduler "opa0" with entities [Tovrutaux (ID: 17780754/0x010F5012), Tovrutaux (ID: 17780754/0x010F5012)], work=2627*
  1: 0x03C2 [0x00] END_REQSTACK()
```

### Event 65535.32

#### Metadata

| Field        | Value    |
|--------------|----------|
| Entrypoint   | 0x03C3   |
| Data Size    | 16 bytes |
| Instructions | 2        |

```
      00 01 02 03 04 05 06 07  08 09 0A 0B 0C 0D 0E 0F
      -- -- -- -- -- -- -- --  -- -- -- -- -- -- -- --
03C0:          5B 3C 80 12 50  0F 01 12 50 0F 01 6F 70     [<..P...P..op
03D0: 61 31 00                                          a1.             
```

#### Opcodes

```
  0: 0x03C3 [0x5B] LOAD_EXT_SCHEDULER: Load scheduler "opa1" with entities [Tovrutaux (ID: 17780754/0x010F5012), Tovrutaux (ID: 17780754/0x010F5012)], work=2627*
  1: 0x03D2 [0x00] END_REQSTACK()
```

### Event 65535.33

#### Metadata

| Field        | Value    |
|--------------|----------|
| Entrypoint   | 0x03D3   |
| Data Size    | 16 bytes |
| Instructions | 2        |

```
      00 01 02 03 04 05 06 07  08 09 0A 0B 0C 0D 0E 0F
      -- -- -- -- -- -- -- --  -- -- -- -- -- -- -- --
03D0:          5B 3C 80 12 50  0F 01 12 50 0F 01 6F 70     [<..P...P..op
03E0: 61 32 00                                          a2.             
```

#### Opcodes

```
  0: 0x03D3 [0x5B] LOAD_EXT_SCHEDULER: Load scheduler "opa2" with entities [Tovrutaux (ID: 17780754/0x010F5012), Tovrutaux (ID: 17780754/0x010F5012)], work=2627*
  1: 0x03E2 [0x00] END_REQSTACK()
```

### Event 65535.34

#### Metadata

| Field        | Value    |
|--------------|----------|
| Entrypoint   | 0x03E3   |
| Data Size    | 16 bytes |
| Instructions | 2        |

```
      00 01 02 03 04 05 06 07  08 09 0A 0B 0C 0D 0E 0F
      -- -- -- -- -- -- -- --  -- -- -- -- -- -- -- --
03E0:          5B 3D 80 12 50  0F 01 12 50 0F 01 74 68     [=..P...P..th
03F0: 6B 31 00                                          k1.             
```

#### Opcodes

```
  0: 0x03E3 [0x5B] LOAD_EXT_SCHEDULER: Load scheduler "thk1" with entities [Tovrutaux (ID: 17780754/0x010F5012), Tovrutaux (ID: 17780754/0x010F5012)], work=75*
  1: 0x03F2 [0x00] END_REQSTACK()
```

### Event 65535.35

#### Metadata

| Field        | Value    |
|--------------|----------|
| Entrypoint   | 0x03F3   |
| Data Size    | 16 bytes |
| Instructions | 2        |

```
      00 01 02 03 04 05 06 07  08 09 0A 0B 0C 0D 0E 0F
      -- -- -- -- -- -- -- --  -- -- -- -- -- -- -- --
03F0:          5B 3D 80 12 50  0F 01 12 50 0F 01 74 68     [=..P...P..th
0400: 6B 32 00                                          k2.             
```

#### Opcodes

```
  0: 0x03F3 [0x5B] LOAD_EXT_SCHEDULER: Load scheduler "thk2" with entities [Tovrutaux (ID: 17780754/0x010F5012), Tovrutaux (ID: 17780754/0x010F5012)], work=75*
  1: 0x0402 [0x00] END_REQSTACK()
```

### Event 65535.36

#### Metadata

| Field        | Value    |
|--------------|----------|
| Entrypoint   | 0x0403   |
| Data Size    | 16 bytes |
| Instructions | 2        |

```
      00 01 02 03 04 05 06 07  08 09 0A 0B 0C 0D 0E 0F
      -- -- -- -- -- -- -- --  -- -- -- -- -- -- -- --
0400:          5B 3D 80 12 50  0F 01 12 50 0F 01 74 6C     [=..P...P..tl
0410: 6B 30 00                                          k0.             
```

#### Opcodes

```
  0: 0x0403 [0x5B] LOAD_EXT_SCHEDULER: Load scheduler "tlk0" with entities [Tovrutaux (ID: 17780754/0x010F5012), Tovrutaux (ID: 17780754/0x010F5012)], work=75*
  1: 0x0412 [0x00] END_REQSTACK()
```

### Event 65535.37

#### Metadata

| Field        | Value    |
|--------------|----------|
| Entrypoint   | 0x0413   |
| Data Size    | 16 bytes |
| Instructions | 2        |

```
      00 01 02 03 04 05 06 07  08 09 0A 0B 0C 0D 0E 0F
      -- -- -- -- -- -- -- --  -- -- -- -- -- -- -- --
0410:          5B 3D 80 12 50  0F 01 12 50 0F 01 74 6C     [=..P...P..tl
0420: 6B 31 00                                          k1.             
```

#### Opcodes

```
  0: 0x0413 [0x5B] LOAD_EXT_SCHEDULER: Load scheduler "tlk1" with entities [Tovrutaux (ID: 17780754/0x010F5012), Tovrutaux (ID: 17780754/0x010F5012)], work=75*
  1: 0x0422 [0x00] END_REQSTACK()
```

### Event 65535.38

#### Metadata

| Field        | Value    |
|--------------|----------|
| Entrypoint   | 0x0423   |
| Data Size    | 12 bytes |
| Instructions | 4        |

```
      00 01 02 03 04 05 06 07  08 09 0A 0B 0C 0D 0E 0F
      -- -- -- -- -- -- -- --  -- -- -- -- -- -- -- --
0420:          1F 00 3E 80 3F  80 07 80 1F 01 6F 00        ..>.?.....o. 
```

#### Opcodes

```
  0: 0x0423 [0x1F] MOVE_ENTITY: EventEntity moves to X=-19.954*, Z=-20.950*, Y=0.000*
  1: 0x042B [0x1F] MOVE_ENTITY: Update entity position (mode=1)
  2: 0x042D [0x6F] WAIT_FRAME_DELAY: Yield until WaitTime reaches zero
  3: 0x042E [0x00] END_REQSTACK()
```

### Event 65535.39

#### Metadata

| Field        | Value    |
|--------------|----------|
| Entrypoint   | 0x042F   |
| Data Size    | 20 bytes |
| Instructions | 5        |

```
      00 01 02 03 04 05 06 07  08 09 0A 0B 0C 0D 0E 0F
      -- -- -- -- -- -- -- --  -- -- -- -- -- -- -- --
0420:                                               59                 Y
0430: 04 13 50 0F 01 27 80 1F  00 40 80 41 80 2C 80 1F  ..P..'...@.A.,..
0440: 01 6F 00                                          .o.             
```

#### Opcodes

```
  0: 0x042F [0x59] UPDATE_ENTITY_DATA: Set Seyaya (ID: 17780755/0x010F5013) main speed = 11* * 0.1
  1: 0x0437 [0x1F] MOVE_ENTITY: EventEntity moves to X=-74.699*, Z=-107.115*, Y=5.999*
  2: 0x043F [0x1F] MOVE_ENTITY: Update entity position (mode=1)
  3: 0x0441 [0x6F] WAIT_FRAME_DELAY: Yield until WaitTime reaches zero
  4: 0x0442 [0x00] END_REQSTACK()
```

### Event 65535.40

#### Metadata

| Field        | Value    |
|--------------|----------|
| Entrypoint   | 0x0443   |
| Data Size    | 17 bytes |
| Instructions | 2        |

```
      00 01 02 03 04 05 06 07  08 09 0A 0B 0C 0D 0E 0F
      -- -- -- -- -- -- -- --  -- -- -- -- -- -- -- --
0440:          5B 42 80 13 50  0F 01 13 50 0F 01 6F 70     [B..P...P..op
0450: 61 30 00 00                                       a0..            
```

#### Opcodes

```
  0: 0x0443 [0x5B] LOAD_EXT_SCHEDULER: Load scheduler "opa0" with entities [Seyaya (ID: 17780755/0x010F5013), Seyaya (ID: 17780755/0x010F5013)], work=2631*
  1: 0x0452 [0x00] END_REQSTACK()
```

#### Data or dead code:

```
# Dead code (unreachable instructions):
     0x0453 [0x00] END_REQSTACK()
```

### Event 65535.41

#### Metadata

| Field        | Value    |
|--------------|----------|
| Entrypoint   | 0x0454   |
| Data Size    | 17 bytes |
| Instructions | 2        |

```
      00 01 02 03 04 05 06 07  08 09 0A 0B 0C 0D 0E 0F
      -- -- -- -- -- -- -- --  -- -- -- -- -- -- -- --
0450:             5B 42 80 13  50 0F 01 13 50 0F 01 6F      [B..P...P..o
0460: 70 61 31 00 00                                    pa1..           
```

#### Opcodes

```
  0: 0x0454 [0x5B] LOAD_EXT_SCHEDULER: Load scheduler "opa1" with entities [Seyaya (ID: 17780755/0x010F5013), Seyaya (ID: 17780755/0x010F5013)], work=2631*
  1: 0x0463 [0x00] END_REQSTACK()
```

#### Data or dead code:

```
# Dead code (unreachable instructions):
     0x0464 [0x00] END_REQSTACK()
```

### Event 65535.42

#### Metadata

| Field        | Value    |
|--------------|----------|
| Entrypoint   | 0x0465   |
| Data Size    | 16 bytes |
| Instructions | 2        |

```
      00 01 02 03 04 05 06 07  08 09 0A 0B 0C 0D 0E 0F
      -- -- -- -- -- -- -- --  -- -- -- -- -- -- -- --
0460:                5B 42 80  13 50 0F 01 13 50 0F 01       [B..P...P..
0470: 6F 70 61 32 00                                    opa2.           
```

#### Opcodes

```
  0: 0x0465 [0x5B] LOAD_EXT_SCHEDULER: Load scheduler "opa2" with entities [Seyaya (ID: 17780755/0x010F5013), Seyaya (ID: 17780755/0x010F5013)], work=2631*
  1: 0x0474 [0x00] END_REQSTACK()
```

### Event 65535.43

#### Metadata

| Field        | Value    |
|--------------|----------|
| Entrypoint   | 0x0475   |
| Data Size    | 16 bytes |
| Instructions | 2        |

```
      00 01 02 03 04 05 06 07  08 09 0A 0B 0C 0D 0E 0F
      -- -- -- -- -- -- -- --  -- -- -- -- -- -- -- --
0470:                5B 43 80  13 50 0F 01 13 50 0F 01       [C..P...P..
0480: 74 68 6B 31 00                                    thk1.           
```

#### Opcodes

```
  0: 0x0475 [0x5B] LOAD_EXT_SCHEDULER: Load scheduler "thk1" with entities [Seyaya (ID: 17780755/0x010F5013), Seyaya (ID: 17780755/0x010F5013)], work=85*
  1: 0x0484 [0x00] END_REQSTACK()
```

### Event 65535.44

#### Metadata

| Field        | Value    |
|--------------|----------|
| Entrypoint   | 0x0485   |
| Data Size    | 16 bytes |
| Instructions | 2        |

```
      00 01 02 03 04 05 06 07  08 09 0A 0B 0C 0D 0E 0F
      -- -- -- -- -- -- -- --  -- -- -- -- -- -- -- --
0480:                5B 43 80  13 50 0F 01 13 50 0F 01       [C..P...P..
0490: 74 68 6B 32 00                                    thk2.           
```

#### Opcodes

```
  0: 0x0485 [0x5B] LOAD_EXT_SCHEDULER: Load scheduler "thk2" with entities [Seyaya (ID: 17780755/0x010F5013), Seyaya (ID: 17780755/0x010F5013)], work=85*
  1: 0x0494 [0x00] END_REQSTACK()
```

### Event 65535.45

#### Metadata

| Field        | Value    |
|--------------|----------|
| Entrypoint   | 0x0495   |
| Data Size    | 16 bytes |
| Instructions | 2        |

```
      00 01 02 03 04 05 06 07  08 09 0A 0B 0C 0D 0E 0F
      -- -- -- -- -- -- -- --  -- -- -- -- -- -- -- --
0490:                5B 43 80  13 50 0F 01 13 50 0F 01       [C..P...P..
04A0: 74 6C 6B 30 00                                    tlk0.           
```

#### Opcodes

```
  0: 0x0495 [0x5B] LOAD_EXT_SCHEDULER: Load scheduler "tlk0" with entities [Seyaya (ID: 17780755/0x010F5013), Seyaya (ID: 17780755/0x010F5013)], work=85*
  1: 0x04A4 [0x00] END_REQSTACK()
```

### Event 65535.46

#### Metadata

| Field        | Value    |
|--------------|----------|
| Entrypoint   | 0x04A5   |
| Data Size    | 16 bytes |
| Instructions | 2        |

```
      00 01 02 03 04 05 06 07  08 09 0A 0B 0C 0D 0E 0F
      -- -- -- -- -- -- -- --  -- -- -- -- -- -- -- --
04A0:                5B 43 80  13 50 0F 01 13 50 0F 01       [C..P...P..
04B0: 74 6C 6B 65 00                                    tlke.           
```

#### Opcodes

```
  0: 0x04A5 [0x5B] LOAD_EXT_SCHEDULER: Load scheduler "tlke" with entities [Seyaya (ID: 17780755/0x010F5013), Seyaya (ID: 17780755/0x010F5013)], work=85*
  1: 0x04B4 [0x00] END_REQSTACK()
```

### Event 65535.47

#### Metadata

| Field        | Value    |
|--------------|----------|
| Entrypoint   | 0x04B5   |
| Data Size    | 16 bytes |
| Instructions | 2        |

```
      00 01 02 03 04 05 06 07  08 09 0A 0B 0C 0D 0E 0F
      -- -- -- -- -- -- -- --  -- -- -- -- -- -- -- --
04B0:                5B 43 80  13 50 0F 01 13 50 0F 01       [C..P...P..
04C0: 62 61 6E 30 00                                    ban0.           
```

#### Opcodes

```
  0: 0x04B5 [0x5B] LOAD_EXT_SCHEDULER: Load scheduler "ban0" with entities [Seyaya (ID: 17780755/0x010F5013), Seyaya (ID: 17780755/0x010F5013)], work=85*
  1: 0x04C4 [0x00] END_REQSTACK()
```

### Event 65535.48

#### Metadata

| Field        | Value    |
|--------------|----------|
| Entrypoint   | 0x04C5   |
| Data Size    | 13 bytes |
| Instructions | 4        |

```
      00 01 02 03 04 05 06 07  08 09 0A 0B 0C 0D 0E 0F
      -- -- -- -- -- -- -- --  -- -- -- -- -- -- -- --
04C0:                1F 00 44  80 45 80 07 80 1F 01 6F       ..D.E.....o
04D0: 00 00                                             ..              
```

#### Opcodes

```
  0: 0x04C5 [0x1F] MOVE_ENTITY: EventEntity moves to X=-19.857*, Z=-21.712*, Y=0.000*
  1: 0x04CD [0x1F] MOVE_ENTITY: Update entity position (mode=1)
  2: 0x04CF [0x6F] WAIT_FRAME_DELAY: Yield until WaitTime reaches zero
  3: 0x04D0 [0x00] END_REQSTACK()
```

#### Data or dead code:

```
# Dead code (unreachable instructions):
     0x04D1 [0x00] END_REQSTACK()
```

### Event 65535.49

#### Metadata

| Field        | Value    |
|--------------|----------|
| Entrypoint   | 0x04D2   |
| Data Size    | 20 bytes |
| Instructions | 5        |

```
      00 01 02 03 04 05 06 07  08 09 0A 0B 0C 0D 0E 0F
      -- -- -- -- -- -- -- --  -- -- -- -- -- -- -- --
04D0:       59 04 C0 50 0F 01  46 80 1F 00 47 80 48 80    Y..P..F...G.H.
04E0: 07 80 1F 01 6F 00                                 ....o.          
```

#### Opcodes

```
  0: 0x04D2 [0x59] UPDATE_ENTITY_DATA: Set Rakuru-Rakoru (ID: 17780928/0x010F50C0) main speed = 14* * 0.1
  1: 0x04DA [0x1F] MOVE_ENTITY: EventEntity moves to X=-37.763*, Z=-62.812*, Y=0.000*
  2: 0x04E2 [0x1F] MOVE_ENTITY: Update entity position (mode=1)
  3: 0x04E4 [0x6F] WAIT_FRAME_DELAY: Yield until WaitTime reaches zero
  4: 0x04E5 [0x00] END_REQSTACK()
```

### Event 65535.50

#### Metadata

| Field        | Value    |
|--------------|----------|
| Entrypoint   | 0x04E6   |
| Data Size    | 12 bytes |
| Instructions | 4        |

```
      00 01 02 03 04 05 06 07  08 09 0A 0B 0C 0D 0E 0F
      -- -- -- -- -- -- -- --  -- -- -- -- -- -- -- --
04E0:                   1F 00  49 80 4A 80 4B 80 1F 01        ..I.J.K...
04F0: 6F 00                                             o.              
```

#### Opcodes

```
  0: 0x04E6 [0x1F] MOVE_ENTITY: EventEntity moves to X=-13.366*, Z=2.528*, Y=-0.449*
  1: 0x04EE [0x1F] MOVE_ENTITY: Update entity position (mode=1)
  2: 0x04F0 [0x6F] WAIT_FRAME_DELAY: Yield until WaitTime reaches zero
  3: 0x04F1 [0x00] END_REQSTACK()
```

### Event 65535.51

#### Metadata

| Field        | Value    |
|--------------|----------|
| Entrypoint   | 0x04F2   |
| Data Size    | 16 bytes |
| Instructions | 2        |

```
      00 01 02 03 04 05 06 07  08 09 0A 0B 0C 0D 0E 0F
      -- -- -- -- -- -- -- --  -- -- -- -- -- -- -- --
04F0:       66 0E 80 C0 50 0F  01 C0 50 0F 01 74 6C 6B    f...P...P..tlk
0500: 30 00                                             0.              
```

#### Opcodes

```
  0: 0x04F2 [0x66] LOAD_EXT_SCHEDULER_MAIN: Load scheduler "tlk0" with entities [Rakuru-Rakoru (ID: 17780928/0x010F50C0), Rakuru-Rakoru (ID: 17780928/0x010F50C0)], work=40*
  1: 0x0501 [0x00] END_REQSTACK()
```

### Event 65535.52

#### Metadata

| Field        | Value    |
|--------------|----------|
| Entrypoint   | 0x0502   |
| Data Size    | 16 bytes |
| Instructions | 2        |

```
      00 01 02 03 04 05 06 07  08 09 0A 0B 0C 0D 0E 0F
      -- -- -- -- -- -- -- --  -- -- -- -- -- -- -- --
0500:       66 1F 80 C0 50 0F  01 C0 50 0F 01 65 68 6E    f...P...P..ehn
0510: 31 00                                             1.              
```

#### Opcodes

```
  0: 0x0502 [0x66] LOAD_EXT_SCHEDULER_MAIN: Load scheduler "ehn1" with entities [Rakuru-Rakoru (ID: 17780928/0x010F50C0), Rakuru-Rakoru (ID: 17780928/0x010F50C0)], work=41*
  1: 0x0511 [0x00] END_REQSTACK()
```

### Event 65535.53

#### Metadata

| Field        | Value    |
|--------------|----------|
| Entrypoint   | 0x0512   |
| Data Size    | 16 bytes |
| Instructions | 2        |

```
      00 01 02 03 04 05 06 07  08 09 0A 0B 0C 0D 0E 0F
      -- -- -- -- -- -- -- --  -- -- -- -- -- -- -- --
0510:       66 0E 80 C0 50 0F  01 C0 50 0F 01 6D 6F 6A    f...P...P..moj
0520: 30 00                                             0.              
```

#### Opcodes

```
  0: 0x0512 [0x66] LOAD_EXT_SCHEDULER_MAIN: Load scheduler "moj0" with entities [Rakuru-Rakoru (ID: 17780928/0x010F50C0), Rakuru-Rakoru (ID: 17780928/0x010F50C0)], work=40*
  1: 0x0521 [0x00] END_REQSTACK()
```

### Event 65535.54

#### Metadata

| Field        | Value    |
|--------------|----------|
| Entrypoint   | 0x0522   |
| Data Size    | 20 bytes |
| Instructions | 5        |

```
      00 01 02 03 04 05 06 07  08 09 0A 0B 0C 0D 0E 0F
      -- -- -- -- -- -- -- --  -- -- -- -- -- -- -- --
0520:       59 04 C0 50 0F 01  46 80 1F 00 4C 80 4D 80    Y..P..F...L.M.
0530: 2C 80 1F 01 6F 00                                 ,...o.          
```

#### Opcodes

```
  0: 0x0522 [0x59] UPDATE_ENTITY_DATA: Set Rakuru-Rakoru (ID: 17780928/0x010F50C0) main speed = 14* * 0.1
  1: 0x052A [0x1F] MOVE_ENTITY: EventEntity moves to X=-71.130*, Z=-110.791*, Y=5.999*
  2: 0x0532 [0x1F] MOVE_ENTITY: Update entity position (mode=1)
  3: 0x0534 [0x6F] WAIT_FRAME_DELAY: Yield until WaitTime reaches zero
  4: 0x0535 [0x00] END_REQSTACK()
```

### Event 65535.55

#### Metadata

| Field        | Value    |
|--------------|----------|
| Entrypoint   | 0x0536   |
| Data Size    | 29 bytes |
| Instructions | 6        |

```
      00 01 02 03 04 05 06 07  08 09 0A 0B 0C 0D 0E 0F
      -- -- -- -- -- -- -- --  -- -- -- -- -- -- -- --
0530:                   59 04  C0 50 0F 01 46 80 1F 00        Y..P..F...
0540: 4E 80 4F 80 2C 80 1F 01  5A 00 50 80 51 80 52 80  N.O.,...Z.P.Q.R.
0550: 5A 01 00                                          Z..             
```

#### Opcodes

```
  0: 0x0536 [0x59] UPDATE_ENTITY_DATA: Set Rakuru-Rakoru (ID: 17780928/0x010F50C0) main speed = 14* * 0.1
  1: 0x053E [0x1F] MOVE_ENTITY: EventEntity moves to X=-75.540*, Z=-116.545*, Y=5.999*
  2: 0x0546 [0x1F] MOVE_ENTITY: Update entity position (mode=1)
  3: 0x0548 [0x5A] UPDATE_EVENT_POSITION: Set EventEntity MovePosition to X=-80.452*, Z=-125.376*, Y=0.999*
  4: 0x0550 [0x5A] UPDATE_EVENT_POSITION: Move EventEntity incrementally towards MovePosition
  5: 0x0552 [0x00] END_REQSTACK()
```

### Event 65535.56

#### Metadata

| Field        | Value    |
|--------------|----------|
| Entrypoint   | 0x0553   |
| Data Size    | 17 bytes |
| Instructions | 2        |

```
      00 01 02 03 04 05 06 07  08 09 0A 0B 0C 0D 0E 0F
      -- -- -- -- -- -- -- --  -- -- -- -- -- -- -- --
0550:          5B 53 80 C0 50  0F 01 C0 50 0F 01 62 6F     [S..P...P..bo
0560: 70 30 00 00                                       p0..            
```

#### Opcodes

```
  0: 0x0553 [0x5B] LOAD_EXT_SCHEDULER: Load scheduler "bop0" with entities [Rakuru-Rakoru (ID: 17780928/0x010F50C0), Rakuru-Rakoru (ID: 17780928/0x010F50C0)], work=2611*
  1: 0x0562 [0x00] END_REQSTACK()
```

#### Data or dead code:

```
# Dead code (unreachable instructions):
     0x0563 [0x00] END_REQSTACK()
```

### Event 65535.57

#### Metadata

| Field        | Value    |
|--------------|----------|
| Entrypoint   | 0x0564   |
| Data Size    | 20 bytes |
| Instructions | 5        |

```
      00 01 02 03 04 05 06 07  08 09 0A 0B 0C 0D 0E 0F
      -- -- -- -- -- -- -- --  -- -- -- -- -- -- -- --
0560:             59 04 25 50  0F 01 00 80 1F 00 2E 80      Y.%P........
0570: 2F 80 07 80 1F 01 6F 00                           /.....o.        
```

#### Opcodes

```
  0: 0x0564 [0x59] UPDATE_ENTITY_DATA: Set Sutarara (ID: 17780773/0x010F5025) main speed = 13* * 0.1
  1: 0x056C [0x1F] MOVE_ENTITY: EventEntity moves to X=-83.944*, Z=-128.625*, Y=0.000*
  2: 0x0574 [0x1F] MOVE_ENTITY: Update entity position (mode=1)
  3: 0x0576 [0x6F] WAIT_FRAME_DELAY: Yield until WaitTime reaches zero
  4: 0x0577 [0x00] END_REQSTACK()
```

### Event 65535.58

#### Metadata

| Field        | Value    |
|--------------|----------|
| Entrypoint   | 0x0578   |
| Data Size    | 20 bytes |
| Instructions | 5        |

```
      00 01 02 03 04 05 06 07  08 09 0A 0B 0C 0D 0E 0F
      -- -- -- -- -- -- -- --  -- -- -- -- -- -- -- --
0570:                          59 04 25 50 0F 01 00 80          Y.%P....
0580: 1F 00 54 80 55 80 2C 80  1F 01 6F 00              ..T.U.,...o.    
```

#### Opcodes

```
  0: 0x0578 [0x59] UPDATE_ENTITY_DATA: Set Sutarara (ID: 17780773/0x010F5025) main speed = 13* * 0.1
  1: 0x0580 [0x1F] MOVE_ENTITY: EventEntity moves to X=-64.287*, Z=-102.136*, Y=5.999*
  2: 0x0588 [0x1F] MOVE_ENTITY: Update entity position (mode=1)
  3: 0x058A [0x6F] WAIT_FRAME_DELAY: Yield until WaitTime reaches zero
  4: 0x058B [0x00] END_REQSTACK()
```

### Event 65535.59

#### Metadata

| Field        | Value    |
|--------------|----------|
| Entrypoint   | 0x058C   |
| Data Size    | 20 bytes |
| Instructions | 5        |

```
      00 01 02 03 04 05 06 07  08 09 0A 0B 0C 0D 0E 0F
      -- -- -- -- -- -- -- --  -- -- -- -- -- -- -- --
0580:                                      59 04 25 50              Y.%P
0590: 0F 01 00 80 1F 00 56 80  57 80 07 80 1F 01 6F 00  ......V.W.....o.
```

#### Opcodes

```
  0: 0x058C [0x59] UPDATE_ENTITY_DATA: Set Sutarara (ID: 17780773/0x010F5025) main speed = 13* * 0.1
  1: 0x0594 [0x1F] MOVE_ENTITY: EventEntity moves to X=4.236*, Z=4.336*, Y=0.000*
  2: 0x059C [0x1F] MOVE_ENTITY: Update entity position (mode=1)
  3: 0x059E [0x6F] WAIT_FRAME_DELAY: Yield until WaitTime reaches zero
  4: 0x059F [0x00] END_REQSTACK()
```

### Event 65535.60

#### Metadata

| Field        | Value    |
|--------------|----------|
| Entrypoint   | 0x05A0   |
| Data Size    | 20 bytes |
| Instructions | 5        |

```
      00 01 02 03 04 05 06 07  08 09 0A 0B 0C 0D 0E 0F
      -- -- -- -- -- -- -- --  -- -- -- -- -- -- -- --
05A0: 59 04 34 50 0F 01 24 80  1F 00 58 80 59 80 5A 80  Y.4P..$...X.Y.Z.
05B0: 1F 01 6F 00                                       ..o.            
```

#### Opcodes

```
  0: 0x05A0 [0x59] UPDATE_ENTITY_DATA: Set Venika (ID: 17780788/0x010F5034) main speed = 12* * 0.1
  1: 0x05A8 [0x1F] MOVE_ENTITY: EventEntity moves to X=-15.376*, Z=-23.775*, Y=-0.101*
  2: 0x05B0 [0x1F] MOVE_ENTITY: Update entity position (mode=1)
  3: 0x05B2 [0x6F] WAIT_FRAME_DELAY: Yield until WaitTime reaches zero
  4: 0x05B3 [0x00] END_REQSTACK()
```

### Event 65535.61

#### Metadata

| Field        | Value    |
|--------------|----------|
| Entrypoint   | 0x05B4   |
| Data Size    | 20 bytes |
| Instructions | 5        |

```
      00 01 02 03 04 05 06 07  08 09 0A 0B 0C 0D 0E 0F
      -- -- -- -- -- -- -- --  -- -- -- -- -- -- -- --
05B0:             59 04 34 50  0F 01 5B 80 1F 00 54 80      Y.4P..[...T.
05C0: 55 80 2C 80 1F 01 6F 00                           U.,...o.        
```

#### Opcodes

```
  0: 0x05B4 [0x59] UPDATE_ENTITY_DATA: Set Venika (ID: 17780788/0x010F5034) main speed = 10* * 0.1
  1: 0x05BC [0x1F] MOVE_ENTITY: EventEntity moves to X=-64.287*, Z=-102.136*, Y=5.999*
  2: 0x05C4 [0x1F] MOVE_ENTITY: Update entity position (mode=1)
  3: 0x05C6 [0x6F] WAIT_FRAME_DELAY: Yield until WaitTime reaches zero
  4: 0x05C7 [0x00] END_REQSTACK()
```

### Event 65535.62

#### Metadata

| Field        | Value    |
|--------------|----------|
| Entrypoint   | 0x05C8   |
| Data Size    | 16 bytes |
| Instructions | 2        |

```
      00 01 02 03 04 05 06 07  08 09 0A 0B 0C 0D 0E 0F
      -- -- -- -- -- -- -- --  -- -- -- -- -- -- -- --
05C0:                          5B 5C 80 34 50 0F 01 34          [\.4P..4
05D0: 50 0F 01 6F 70 62 30 00                           P..opb0.        
```

#### Opcodes

```
  0: 0x05C8 [0x5B] LOAD_EXT_SCHEDULER: Load scheduler "opb0" with entities [Venika (ID: 17780788/0x010F5034), Venika (ID: 17780788/0x010F5034)], work=2584*
  1: 0x05D7 [0x00] END_REQSTACK()
```

### Event 65535.63

#### Metadata

| Field        | Value    |
|--------------|----------|
| Entrypoint   | 0x05D8   |
| Data Size    | 16 bytes |
| Instructions | 2        |

```
      00 01 02 03 04 05 06 07  08 09 0A 0B 0C 0D 0E 0F
      -- -- -- -- -- -- -- --  -- -- -- -- -- -- -- --
05D0:                          5B 5C 80 34 50 0F 01 34          [\.4P..4
05E0: 50 0F 01 6F 70 62 31 00                           P..opb1.        
```

#### Opcodes

```
  0: 0x05D8 [0x5B] LOAD_EXT_SCHEDULER: Load scheduler "opb1" with entities [Venika (ID: 17780788/0x010F5034), Venika (ID: 17780788/0x010F5034)], work=2584*
  1: 0x05E7 [0x00] END_REQSTACK()
```

### Event 65535.64

#### Metadata

| Field        | Value    |
|--------------|----------|
| Entrypoint   | 0x05E8   |
| Data Size    | 20 bytes |
| Instructions | 5        |

```
      00 01 02 03 04 05 06 07  08 09 0A 0B 0C 0D 0E 0F
      -- -- -- -- -- -- -- --  -- -- -- -- -- -- -- --
05E0:                          59 04 34 50 0F 01 24 80          Y.4P..$.
05F0: 1F 00 5D 80 5E 80 07 80  1F 01 6F 00              ..].^.....o.    
```

#### Opcodes

```
  0: 0x05E8 [0x59] UPDATE_ENTITY_DATA: Set Venika (ID: 17780788/0x010F5034) main speed = 12* * 0.1
  1: 0x05F0 [0x1F] MOVE_ENTITY: EventEntity moves to X=-0.991*, Z=2.123*, Y=0.000*
  2: 0x05F8 [0x1F] MOVE_ENTITY: Update entity position (mode=1)
  3: 0x05FA [0x6F] WAIT_FRAME_DELAY: Yield until WaitTime reaches zero
  4: 0x05FB [0x00] END_REQSTACK()
```

### Event 65535.65

#### Metadata

| Field        | Value    |
|--------------|----------|
| Entrypoint   | 0x05FC   |
| Data Size    | 16 bytes |
| Instructions | 2        |

```
      00 01 02 03 04 05 06 07  08 09 0A 0B 0C 0D 0E 0F
      -- -- -- -- -- -- -- --  -- -- -- -- -- -- -- --
05F0:                                      5B 5C 80 34              [\.4
0600: 50 0F 01 34 50 0F 01 6F  70 63 30 00              P..4P..opc0.    
```

#### Opcodes

```
  0: 0x05FC [0x5B] LOAD_EXT_SCHEDULER: Load scheduler "opc0" with entities [Venika (ID: 17780788/0x010F5034), Venika (ID: 17780788/0x010F5034)], work=2584*
  1: 0x060B [0x00] END_REQSTACK()
```

### Event 65535.66

#### Metadata

| Field        | Value    |
|--------------|----------|
| Entrypoint   | 0x060C   |
| Data Size    | 16 bytes |
| Instructions | 2        |

```
      00 01 02 03 04 05 06 07  08 09 0A 0B 0C 0D 0E 0F
      -- -- -- -- -- -- -- --  -- -- -- -- -- -- -- --
0600:                                      5B 5C 80 34              [\.4
0610: 50 0F 01 34 50 0F 01 6F  70 63 31 00              P..4P..opc1.    
```

#### Opcodes

```
  0: 0x060C [0x5B] LOAD_EXT_SCHEDULER: Load scheduler "opc1" with entities [Venika (ID: 17780788/0x010F5034), Venika (ID: 17780788/0x010F5034)], work=2584*
  1: 0x061B [0x00] END_REQSTACK()
```

### Event 65535.67

#### Metadata

| Field        | Value    |
|--------------|----------|
| Entrypoint   | 0x061C   |
| Data Size    | 16 bytes |
| Instructions | 2        |

```
      00 01 02 03 04 05 06 07  08 09 0A 0B 0C 0D 0E 0F
      -- -- -- -- -- -- -- --  -- -- -- -- -- -- -- --
0610:                                      66 5F 80 36              f_.6
0620: 50 0F 01 36 50 0F 01 61  77 77 30 00              P..6P..aww0.    
```

#### Opcodes

```
  0: 0x061C [0x66] LOAD_EXT_SCHEDULER_MAIN: Load scheduler "aww0" with entities [Kuah Dakonsa (ID: 17780790/0x010F5036), Kuah Dakonsa (ID: 17780790/0x010F5036)], work=8*
  1: 0x062B [0x00] END_REQSTACK()
```

### Event 65535.68

#### Metadata

| Field        | Value    |
|--------------|----------|
| Entrypoint   | 0x062C   |
| Data Size    | 16 bytes |
| Instructions | 2        |

```
      00 01 02 03 04 05 06 07  08 09 0A 0B 0C 0D 0E 0F
      -- -- -- -- -- -- -- --  -- -- -- -- -- -- -- --
0620:                                      66 60 80 36              f`.6
0630: 50 0F 01 36 50 0F 01 74  68 6B 31 00              P..6P..thk1.    
```

#### Opcodes

```
  0: 0x062C [0x66] LOAD_EXT_SCHEDULER_MAIN: Load scheduler "thk1" with entities [Kuah Dakonsa (ID: 17780790/0x010F5036), Kuah Dakonsa (ID: 17780790/0x010F5036)], work=51*
  1: 0x063B [0x00] END_REQSTACK()
```

### Event 65535.69

#### Metadata

| Field        | Value    |
|--------------|----------|
| Entrypoint   | 0x063C   |
| Data Size    | 21 bytes |
| Instructions | 5        |

```
      00 01 02 03 04 05 06 07  08 09 0A 0B 0C 0D 0E 0F
      -- -- -- -- -- -- -- --  -- -- -- -- -- -- -- --
0630:                                      59 04 32 50              Y.2P
0640: 0F 01 24 80 1F 00 61 80  62 80 2C 80 1F 01 6F 00  ..$...a.b.,...o.
0650: 00                                                .               
```

#### Opcodes

```
  0: 0x063C [0x59] UPDATE_ENTITY_DATA: Set Gurdern (ID: 17780786/0x010F5032) main speed = 12* * 0.1
  1: 0x0644 [0x1F] MOVE_ENTITY: EventEntity moves to X=-61.958*, Z=-103.267*, Y=5.999*
  2: 0x064C [0x1F] MOVE_ENTITY: Update entity position (mode=1)
  3: 0x064E [0x6F] WAIT_FRAME_DELAY: Yield until WaitTime reaches zero
  4: 0x064F [0x00] END_REQSTACK()
```

#### Data or dead code:

```
# Dead code (unreachable instructions):
     0x0650 [0x00] END_REQSTACK()
```

### Event 65535.70

#### Metadata

| Field        | Value    |
|--------------|----------|
| Entrypoint   | 0x0651   |
| Data Size    | 20 bytes |
| Instructions | 5        |

```
      00 01 02 03 04 05 06 07  08 09 0A 0B 0C 0D 0E 0F
      -- -- -- -- -- -- -- --  -- -- -- -- -- -- -- --
0650:    59 04 32 50 0F 01 24  80 1F 00 63 80 64 80 2C   Y.2P..$...c.d.,
0660: 80 1F 01 6F 00                                    ...o.           
```

#### Opcodes

```
  0: 0x0651 [0x59] UPDATE_ENTITY_DATA: Set Gurdern (ID: 17780786/0x010F5032) main speed = 12* * 0.1
  1: 0x0659 [0x1F] MOVE_ENTITY: EventEntity moves to X=-66.589*, Z=-92.299*, Y=5.999*
  2: 0x0661 [0x1F] MOVE_ENTITY: Update entity position (mode=1)
  3: 0x0663 [0x6F] WAIT_FRAME_DELAY: Yield until WaitTime reaches zero
  4: 0x0664 [0x00] END_REQSTACK()
```

### Event 65535.71

#### Metadata

| Field        | Value    |
|--------------|----------|
| Entrypoint   | 0x0665   |
| Data Size    | 20 bytes |
| Instructions | 5        |

```
      00 01 02 03 04 05 06 07  08 09 0A 0B 0C 0D 0E 0F
      -- -- -- -- -- -- -- --  -- -- -- -- -- -- -- --
0660:                59 04 32  50 0F 01 24 80 1F 00 65       Y.2P..$...e
0670: 80 66 80 2C 80 1F 01 6F  00                       .f.,...o.       
```

#### Opcodes

```
  0: 0x0665 [0x59] UPDATE_ENTITY_DATA: Set Gurdern (ID: 17780786/0x010F5032) main speed = 12* * 0.1
  1: 0x066D [0x1F] MOVE_ENTITY: EventEntity moves to X=-58.931*, Z=-86.942*, Y=5.999*
  2: 0x0675 [0x1F] MOVE_ENTITY: Update entity position (mode=1)
  3: 0x0677 [0x6F] WAIT_FRAME_DELAY: Yield until WaitTime reaches zero
  4: 0x0678 [0x00] END_REQSTACK()
```

### Event 65535.72

#### Metadata

| Field        | Value    |
|--------------|----------|
| Entrypoint   | 0x0679   |
| Data Size    | 17 bytes |
| Instructions | 2        |

```
      00 01 02 03 04 05 06 07  08 09 0A 0B 0C 0D 0E 0F
      -- -- -- -- -- -- -- --  -- -- -- -- -- -- -- --
0670:                             5B 3B 80 32 50 0F 01           [;.2P..
0680: 32 50 0F 01 6F 70 30 30  00 00                    2P..op00..      
```

#### Opcodes

```
  0: 0x0679 [0x5B] LOAD_EXT_SCHEDULER: Load scheduler "op00" with entities [Gurdern (ID: 17780786/0x010F5032), Gurdern (ID: 17780786/0x010F5032)], work=2621*
  1: 0x0688 [0x00] END_REQSTACK()
```

#### Data or dead code:

```
# Dead code (unreachable instructions):
     0x0689 [0x00] END_REQSTACK()
```

### Event 65535.73

#### Metadata

| Field        | Value    |
|--------------|----------|
| Entrypoint   | 0x068A   |
| Data Size    | 20 bytes |
| Instructions | 5        |

```
      00 01 02 03 04 05 06 07  08 09 0A 0B 0C 0D 0E 0F
      -- -- -- -- -- -- -- --  -- -- -- -- -- -- -- --
0680:                                59 04 1C 50 0F 01            Y..P..
0690: 27 80 1F 00 28 80 29 80  07 80 1F 01 6F 00        '...(.).....o.  
```

#### Opcodes

```
  0: 0x068A [0x59] UPDATE_ENTITY_DATA: Set Mertaire (ID: 17780764/0x010F501C) main speed = 11* * 0.1
  1: 0x0692 [0x1F] MOVE_ENTITY: EventEntity moves to X=-95.337*, Z=-156.056*, Y=0.000*
  2: 0x069A [0x1F] MOVE_ENTITY: Update entity position (mode=1)
  3: 0x069C [0x6F] WAIT_FRAME_DELAY: Yield until WaitTime reaches zero
  4: 0x069D [0x00] END_REQSTACK()
```

### Event 65535.74

#### Metadata

| Field        | Value    |
|--------------|----------|
| Entrypoint   | 0x069E   |
| Data Size    | 20 bytes |
| Instructions | 5        |

```
      00 01 02 03 04 05 06 07  08 09 0A 0B 0C 0D 0E 0F
      -- -- -- -- -- -- -- --  -- -- -- -- -- -- -- --
0690:                                            59 04                Y.
06A0: 1C 50 0F 01 27 80 1F 00  67 80 68 80 69 80 1F 01  .P..'...g.h.i...
06B0: 6F 00                                             o.              
```

#### Opcodes

```
  0: 0x069E [0x59] UPDATE_ENTITY_DATA: Set Mertaire (ID: 17780764/0x010F501C) main speed = 11* * 0.1
  1: 0x06A6 [0x1F] MOVE_ENTITY: EventEntity moves to X=-78.197*, Z=-116.328*, Y=3.999*
  2: 0x06AE [0x1F] MOVE_ENTITY: Update entity position (mode=1)
  3: 0x06B0 [0x6F] WAIT_FRAME_DELAY: Yield until WaitTime reaches zero
  4: 0x06B1 [0x00] END_REQSTACK()
```

### Event 65535.75

#### Metadata

| Field        | Value    |
|--------------|----------|
| Entrypoint   | 0x06B2   |
| Data Size    | 16 bytes |
| Instructions | 2        |

```
      00 01 02 03 04 05 06 07  08 09 0A 0B 0C 0D 0E 0F
      -- -- -- -- -- -- -- --  -- -- -- -- -- -- -- --
06B0:       5B 6A 80 1C 50 0F  01 1C 50 0F 01 6F 70 63    [j..P...P..opc
06C0: 30 00                                             0.              
```

#### Opcodes

```
  0: 0x06B2 [0x5B] LOAD_EXT_SCHEDULER: Load scheduler "opc0" with entities [Mertaire (ID: 17780764/0x010F501C), Mertaire (ID: 17780764/0x010F501C)], work=2583*
  1: 0x06C1 [0x00] END_REQSTACK()
```

### Event 65535.76

#### Metadata

| Field        | Value    |
|--------------|----------|
| Entrypoint   | 0x06C2   |
| Data Size    | 16 bytes |
| Instructions | 2        |

```
      00 01 02 03 04 05 06 07  08 09 0A 0B 0C 0D 0E 0F
      -- -- -- -- -- -- -- --  -- -- -- -- -- -- -- --
06C0:       5B 6A 80 1C 50 0F  01 1C 50 0F 01 6F 70 63    [j..P...P..opc
06D0: 31 00                                             1.              
```

#### Opcodes

```
  0: 0x06C2 [0x5B] LOAD_EXT_SCHEDULER: Load scheduler "opc1" with entities [Mertaire (ID: 17780764/0x010F501C), Mertaire (ID: 17780764/0x010F501C)], work=2583*
  1: 0x06D1 [0x00] END_REQSTACK()
```

### Event 65535.77

#### Metadata

| Field        | Value    |
|--------------|----------|
| Entrypoint   | 0x06D2   |
| Data Size    | 21 bytes |
| Instructions | 5        |

```
      00 01 02 03 04 05 06 07  08 09 0A 0B 0C 0D 0E 0F
      -- -- -- -- -- -- -- --  -- -- -- -- -- -- -- --
06D0:       59 04 1C 50 0F 01  27 80 1F 00 6B 80 6C 80    Y..P..'...k.l.
06E0: 07 80 1F 01 6F 00 00                              ....o..         
```

#### Opcodes

```
  0: 0x06D2 [0x59] UPDATE_ENTITY_DATA: Set Mertaire (ID: 17780764/0x010F501C) main speed = 11* * 0.1
  1: 0x06DA [0x1F] MOVE_ENTITY: EventEntity moves to X=-9.883*, Z=-9.826*, Y=0.000*
  2: 0x06E2 [0x1F] MOVE_ENTITY: Update entity position (mode=1)
  3: 0x06E4 [0x6F] WAIT_FRAME_DELAY: Yield until WaitTime reaches zero
  4: 0x06E5 [0x00] END_REQSTACK()
```

#### Data or dead code:

```
# Dead code (unreachable instructions):
     0x06E6 [0x00] END_REQSTACK()
```

### Event 65535.78

#### Metadata

| Field        | Value    |
|--------------|----------|
| Entrypoint   | 0x06E7   |
| Data Size    | 20 bytes |
| Instructions | 5        |

```
      00 01 02 03 04 05 06 07  08 09 0A 0B 0C 0D 0E 0F
      -- -- -- -- -- -- -- --  -- -- -- -- -- -- -- --
06E0:                      59  04 1E 50 0F 01 6D 80 1F         Y..P..m..
06F0: 00 40 80 41 80 2C 80 1F  01 6F 00                 .@.A.,...o.     
```

#### Opcodes

```
  0: 0x06E7 [0x59] UPDATE_ENTITY_DATA: Set Bki Tbujhja (ID: 17780766/0x010F501E) main speed = 9* * 0.1
  1: 0x06EF [0x1F] MOVE_ENTITY: EventEntity moves to X=-74.699*, Z=-107.115*, Y=5.999*
  2: 0x06F7 [0x1F] MOVE_ENTITY: Update entity position (mode=1)
  3: 0x06F9 [0x6F] WAIT_FRAME_DELAY: Yield until WaitTime reaches zero
  4: 0x06FA [0x00] END_REQSTACK()
```

### Event 65535.79

#### Metadata

| Field        | Value    |
|--------------|----------|
| Entrypoint   | 0x06FB   |
| Data Size    | 20 bytes |
| Instructions | 5        |

```
      00 01 02 03 04 05 06 07  08 09 0A 0B 0C 0D 0E 0F
      -- -- -- -- -- -- -- --  -- -- -- -- -- -- -- --
06F0:                                   59 04 1E 50 0F             Y..P.
0700: 01 27 80 1F 00 6E 80 6F  80 2C 80 1F 01 6F 00     .'...n.o.,...o. 
```

#### Opcodes

```
  0: 0x06FB [0x59] UPDATE_ENTITY_DATA: Set Bki Tbujhja (ID: 17780766/0x010F501E) main speed = 11* * 0.1
  1: 0x0703 [0x1F] MOVE_ENTITY: EventEntity moves to X=-72.052*, Z=-102.467*, Y=5.999*
  2: 0x070B [0x1F] MOVE_ENTITY: Update entity position (mode=1)
  3: 0x070D [0x6F] WAIT_FRAME_DELAY: Yield until WaitTime reaches zero
  4: 0x070E [0x00] END_REQSTACK()
```

### Event 65535.80

#### Metadata

| Field        | Value    |
|--------------|----------|
| Entrypoint   | 0x070F   |
| Data Size    | 16 bytes |
| Instructions | 2        |

```
      00 01 02 03 04 05 06 07  08 09 0A 0B 0C 0D 0E 0F
      -- -- -- -- -- -- -- --  -- -- -- -- -- -- -- --
0700:                                               66                 f
0710: 5F 80 1E 50 0F 01 1E 50  0F 01 61 77 77 30 00     _..P...P..aww0. 
```

#### Opcodes

```
  0: 0x070F [0x66] LOAD_EXT_SCHEDULER_MAIN: Load scheduler "aww0" with entities [Bki Tbujhja (ID: 17780766/0x010F501E), Bki Tbujhja (ID: 17780766/0x010F501E)], work=8*
  1: 0x071E [0x00] END_REQSTACK()
```

### Event 65535.81

#### Metadata

| Field        | Value    |
|--------------|----------|
| Entrypoint   | 0x071F   |
| Data Size    | 20 bytes |
| Instructions | 5        |

```
      00 01 02 03 04 05 06 07  08 09 0A 0B 0C 0D 0E 0F
      -- -- -- -- -- -- -- --  -- -- -- -- -- -- -- --
0710:                                               59                 Y
0720: 04 1E 50 0F 01 6D 80 1F  00 70 80 71 80 07 80 1F  ..P..m...p.q....
0730: 01 6F 00                                          .o.             
```

#### Opcodes

```
  0: 0x071F [0x59] UPDATE_ENTITY_DATA: Set Bki Tbujhja (ID: 17780766/0x010F501E) main speed = 9* * 0.1
  1: 0x0727 [0x1F] MOVE_ENTITY: EventEntity moves to X=-5.853*, Z=-5.190*, Y=0.000*
  2: 0x072F [0x1F] MOVE_ENTITY: Update entity position (mode=1)
  3: 0x0731 [0x6F] WAIT_FRAME_DELAY: Yield until WaitTime reaches zero
  4: 0x0732 [0x00] END_REQSTACK()
```

### Event 65535.82

#### Metadata

| Field        | Value    |
|--------------|----------|
| Entrypoint   | 0x0733   |
| Data Size    | 21 bytes |
| Instructions | 5        |

```
      00 01 02 03 04 05 06 07  08 09 0A 0B 0C 0D 0E 0F
      -- -- -- -- -- -- -- --  -- -- -- -- -- -- -- --
0730:          59 04 1E 50 0F  01 27 80 1F 00 65 80 66     Y..P..'...e.f
0740: 80 2C 80 1F 01 6F 00 00                           .,...o..        
```

#### Opcodes

```
  0: 0x0733 [0x59] UPDATE_ENTITY_DATA: Set Bki Tbujhja (ID: 17780766/0x010F501E) main speed = 11* * 0.1
  1: 0x073B [0x1F] MOVE_ENTITY: EventEntity moves to X=-58.931*, Z=-86.942*, Y=5.999*
  2: 0x0743 [0x1F] MOVE_ENTITY: Update entity position (mode=1)
  3: 0x0745 [0x6F] WAIT_FRAME_DELAY: Yield until WaitTime reaches zero
  4: 0x0746 [0x00] END_REQSTACK()
```

#### Data or dead code:

```
# Dead code (unreachable instructions):
     0x0747 [0x00] END_REQSTACK()
```

### Event 65535.83

#### Metadata

| Field        | Value    |
|--------------|----------|
| Entrypoint   | 0x0748   |
| Data Size    | 20 bytes |
| Instructions | 5        |

```
      00 01 02 03 04 05 06 07  08 09 0A 0B 0C 0D 0E 0F
      -- -- -- -- -- -- -- --  -- -- -- -- -- -- -- --
0740:                          59 04 27 50 0F 01 24 80          Y.'P..$.
0750: 1F 00 72 80 73 80 74 80  1F 01 6F 00              ..r.s.t...o.    
```

#### Opcodes

```
  0: 0x0748 [0x59] UPDATE_ENTITY_DATA: Set Danzhor (ID: 17780775/0x010F5027) main speed = 12* * 0.1
  1: 0x0750 [0x1F] MOVE_ENTITY: EventEntity moves to X=-45.210*, Z=-89.196*, Y=-5.999*
  2: 0x0758 [0x1F] MOVE_ENTITY: Update entity position (mode=1)
  3: 0x075A [0x6F] WAIT_FRAME_DELAY: Yield until WaitTime reaches zero
  4: 0x075B [0x00] END_REQSTACK()
```

### Event 65535.84

#### Metadata

| Field        | Value    |
|--------------|----------|
| Entrypoint   | 0x075C   |
| Data Size    | 12 bytes |
| Instructions | 4        |

```
      00 01 02 03 04 05 06 07  08 09 0A 0B 0C 0D 0E 0F
      -- -- -- -- -- -- -- --  -- -- -- -- -- -- -- --
0750:                                      1F 00 75 80              ..u.
0760: 76 80 07 80 1F 01 6F 00                           v.....o.        
```

#### Opcodes

```
  0: 0x075C [0x1F] MOVE_ENTITY: EventEntity moves to X=-18.343*, Z=-8.286*, Y=0.000*
  1: 0x0764 [0x1F] MOVE_ENTITY: Update entity position (mode=1)
  2: 0x0766 [0x6F] WAIT_FRAME_DELAY: Yield until WaitTime reaches zero
  3: 0x0767 [0x00] END_REQSTACK()
```

### Event 65535.85

#### Metadata

| Field        | Value    |
|--------------|----------|
| Entrypoint   | 0x0768   |
| Data Size    | 16 bytes |
| Instructions | 2        |

```
      00 01 02 03 04 05 06 07  08 09 0A 0B 0C 0D 0E 0F
      -- -- -- -- -- -- -- --  -- -- -- -- -- -- -- --
0760:                          66 38 80 27 50 0F 01 27          f8.'P..'
0770: 50 0F 01 74 68 6B 31 00                           P..thk1.        
```

#### Opcodes

```
  0: 0x0768 [0x66] LOAD_EXT_SCHEDULER_MAIN: Load scheduler "thk1" with entities [Danzhor (ID: 17780775/0x010F5027), Danzhor (ID: 17780775/0x010F5027)], work=69*
  1: 0x0777 [0x00] END_REQSTACK()
```

### Event 65535.86

#### Metadata

| Field        | Value    |
|--------------|----------|
| Entrypoint   | 0x0778   |
| Data Size    | 16 bytes |
| Instructions | 2        |

```
      00 01 02 03 04 05 06 07  08 09 0A 0B 0C 0D 0E 0F
      -- -- -- -- -- -- -- --  -- -- -- -- -- -- -- --
0770:                          66 38 80 27 50 0F 01 27          f8.'P..'
0780: 50 0F 01 74 68 6B 32 00                           P..thk2.        
```

#### Opcodes

```
  0: 0x0778 [0x66] LOAD_EXT_SCHEDULER_MAIN: Load scheduler "thk2" with entities [Danzhor (ID: 17780775/0x010F5027), Danzhor (ID: 17780775/0x010F5027)], work=69*
  1: 0x0787 [0x00] END_REQSTACK()
```

### Event 65535.87

#### Metadata

| Field        | Value    |
|--------------|----------|
| Entrypoint   | 0x0788   |
| Data Size    | 20 bytes |
| Instructions | 5        |

```
      00 01 02 03 04 05 06 07  08 09 0A 0B 0C 0D 0E 0F
      -- -- -- -- -- -- -- --  -- -- -- -- -- -- -- --
0780:                          59 04 27 50 0F 01 24 80          Y.'P..$.
0790: 1F 00 77 80 78 80 07 80  1F 01 6F 00              ..w.x.....o.    
```

#### Opcodes

```
  0: 0x0788 [0x59] UPDATE_ENTITY_DATA: Set Danzhor (ID: 17780775/0x010F5027) main speed = 12* * 0.1
  1: 0x0790 [0x1F] MOVE_ENTITY: EventEntity moves to X=-17.939*, Z=-16.579*, Y=0.000*
  2: 0x0798 [0x1F] MOVE_ENTITY: Update entity position (mode=1)
  3: 0x079A [0x6F] WAIT_FRAME_DELAY: Yield until WaitTime reaches zero
  4: 0x079B [0x00] END_REQSTACK()
```

### Event 65535.88

#### Metadata

| Field        | Value    |
|--------------|----------|
| Entrypoint   | 0x079C   |
| Data Size    | 20 bytes |
| Instructions | 5        |

```
      00 01 02 03 04 05 06 07  08 09 0A 0B 0C 0D 0E 0F
      -- -- -- -- -- -- -- --  -- -- -- -- -- -- -- --
0790:                                      59 04 27 50              Y.'P
07A0: 0F 01 24 80 1F 00 79 80  7A 80 07 80 1F 01 6F 00  ..$...y.z.....o.
```

#### Opcodes

```
  0: 0x079C [0x59] UPDATE_ENTITY_DATA: Set Danzhor (ID: 17780775/0x010F5027) main speed = 12* * 0.1
  1: 0x07A4 [0x1F] MOVE_ENTITY: EventEntity moves to X=-3.065*, Z=-7.931*, Y=0.000*
  2: 0x07AC [0x1F] MOVE_ENTITY: Update entity position (mode=1)
  3: 0x07AE [0x6F] WAIT_FRAME_DELAY: Yield until WaitTime reaches zero
  4: 0x07AF [0x00] END_REQSTACK()
```

### Event 65535.89

#### Metadata

| Field        | Value    |
|--------------|----------|
| Entrypoint   | 0x07B0   |
| Data Size    | 17 bytes |
| Instructions | 2        |

```
      00 01 02 03 04 05 06 07  08 09 0A 0B 0C 0D 0E 0F
      -- -- -- -- -- -- -- --  -- -- -- -- -- -- -- --
07B0: 66 1F 80 30 50 0F 01 30  50 0F 01 73 68 6B 30 00  f..0P..0P..shk0.
07C0: 00                                                .               
```

#### Opcodes

```
  0: 0x07B0 [0x66] LOAD_EXT_SCHEDULER_MAIN: Load scheduler "shk0" with entities [Kikilolo (ID: 17780784/0x010F5030), Kikilolo (ID: 17780784/0x010F5030)], work=41*
  1: 0x07BF [0x00] END_REQSTACK()
```

#### Data or dead code:

```
# Dead code (unreachable instructions):
     0x07C0 [0x00] END_REQSTACK()
```

### Event 65535.90

#### Metadata

| Field        | Value    |
|--------------|----------|
| Entrypoint   | 0x07C1   |
| Data Size    | 16 bytes |
| Instructions | 2        |

```
      00 01 02 03 04 05 06 07  08 09 0A 0B 0C 0D 0E 0F
      -- -- -- -- -- -- -- --  -- -- -- -- -- -- -- --
07C0:    5B 15 80 39 50 0F 01  39 50 0F 01 74 6C 6B 30   [..9P..9P..tlk0
07D0: 00                                                .               
```

#### Opcodes

```
  0: 0x07C1 [0x5B] LOAD_EXT_SCHEDULER: Load scheduler "tlk0" with entities [Momiji (ID: 17780793/0x010F5039), Momiji (ID: 17780793/0x010F5039)], work=60*
  1: 0x07D0 [0x00] END_REQSTACK()
```

### Event 65535.91

#### Metadata

| Field        | Value    |
|--------------|----------|
| Entrypoint   | 0x07D1   |
| Data Size    | 16 bytes |
| Instructions | 2        |

```
      00 01 02 03 04 05 06 07  08 09 0A 0B 0C 0D 0E 0F
      -- -- -- -- -- -- -- --  -- -- -- -- -- -- -- --
07D0:    5B 15 80 39 50 0F 01  39 50 0F 01 74 6C 6B 31   [..9P..9P..tlk1
07E0: 00                                                .               
```

#### Opcodes

```
  0: 0x07D1 [0x5B] LOAD_EXT_SCHEDULER: Load scheduler "tlk1" with entities [Momiji (ID: 17780793/0x010F5039), Momiji (ID: 17780793/0x010F5039)], work=60*
  1: 0x07E0 [0x00] END_REQSTACK()
```

### Event 65535.92

#### Metadata

| Field        | Value    |
|--------------|----------|
| Entrypoint   | 0x07E1   |
| Data Size    | 16 bytes |
| Instructions | 2        |

```
      00 01 02 03 04 05 06 07  08 09 0A 0B 0C 0D 0E 0F
      -- -- -- -- -- -- -- --  -- -- -- -- -- -- -- --
07E0:    5B 15 80 39 50 0F 01  39 50 0F 01 74 68 6B 31   [..9P..9P..thk1
07F0: 00                                                .               
```

#### Opcodes

```
  0: 0x07E1 [0x5B] LOAD_EXT_SCHEDULER: Load scheduler "thk1" with entities [Momiji (ID: 17780793/0x010F5039), Momiji (ID: 17780793/0x010F5039)], work=60*
  1: 0x07F0 [0x00] END_REQSTACK()
```

### Event 65535.93

#### Metadata

| Field        | Value    |
|--------------|----------|
| Entrypoint   | 0x07F1   |
| Data Size    | 16 bytes |
| Instructions | 2        |

```
      00 01 02 03 04 05 06 07  08 09 0A 0B 0C 0D 0E 0F
      -- -- -- -- -- -- -- --  -- -- -- -- -- -- -- --
07F0:    5B 15 80 39 50 0F 01  39 50 0F 01 74 68 6B 32   [..9P..9P..thk2
0800: 00                                                .               
```

#### Opcodes

```
  0: 0x07F1 [0x5B] LOAD_EXT_SCHEDULER: Load scheduler "thk2" with entities [Momiji (ID: 17780793/0x010F5039), Momiji (ID: 17780793/0x010F5039)], work=60*
