# 17780870 - Audee

## Common Data

| Field            | Value                 |
|------------------|-----------------------|
| Zone             | Lower Jeuno (ID: 245) |
| Block Size       | 412 bytes             |
| Total Events     | 3                     |
| References Count | 20                    |

## List of Events

| Event ID              | Entrypoint   |   Size |   Instructions |
|-----------------------|--------------|--------|----------------|
| [65535](#event-65535) | 0x0000       |      1 |              1 |
| [10002](#event-10002) | 0x0001       |    284 |             53 |
| [10005](#event-10005) | 0x011D       |     16 |              6 |

## DAT References (imed_data)

|   Index | Hex Value   |   Dec Value |
|---------|-------------|-------------|
|       0 | 0xFFFFFFFD  |  4294967293 |
|       1 | 0xFFFFFFFF  |  4294967295 |
|       2 | 0xFFFFFFFE  |  4294967294 |
|       3 | 0x008A      |         138 |
|       4 | 0x0000      |           0 |
|       5 | 0x1A41      |        6721 |
|       6 | 0x1A42      |        6722 |
|       7 | 0x1A43      |        6723 |
|       8 | 0x1A44      |        6724 |
|       9 | 0x0001      |           1 |
|      10 | 0x0020      |          32 |
|      11 | 0x0078      |         120 |
|      12 | 0x003C      |          60 |
|      13 | 0x00C9      |         201 |
|      14 | 0x00C8      |         200 |
|      15 | 0x001E      |          30 |
|      16 | 0x000A      |          10 |
|      17 | 0x1A45      |        6725 |
|      18 | 0x40000000  |  1073741824 |
|      19 | 0x1A40      |        6720 |

## String References

- **6720**: If you wish to ride a chocobo, you must possess $6 and have a high enough job level.
- **6721**: You can rent a chocobo for $0 gil. I see you currently have $1 gil.
- **6722**: You can rent a chocobo, but because your level is so low, you won't be able to ride for very long. Also, equipment that extends your riding time will have no effect.
- **6723**: If you still want one, it will cost you $0 gil. I see you currently have $1 gil.
- **6724**: Do you wish to rent a chocobo? [Yes, I do./No, thank you.]
- **6725**: You don't have enough gil.

## Events

### Event 65535

#### Metadata

| Field        | Value   |
|--------------|---------|
| Entrypoint   | 0x0000  |
| Data Size    | 1 bytes |
| Instructions | 1       |

```
      00 01 02 03 04 05 06 07  08 09 0A 0B 0C 0D 0E 0F
      -- -- -- -- -- -- -- --  -- -- -- -- -- -- -- --
0000: 00                                                .               
```

#### Opcodes

```
  0: 0x0000 [0x00] END_REQSTACK()
```

### Event 10002

#### Metadata

| Field        | Value     |
|--------------|-----------|
| Entrypoint   | 0x0001    |
| Data Size    | 284 bytes |
| Instructions | 51        |

```
      00 01 02 03 04 05 06 07  08 09 0A 0B 0C 0D 0E 0F
      -- -- -- -- -- -- -- --  -- -- -- -- -- -- -- --
0000:    02 02 10 00 80 00 0E  00 1E F0 FF FF 7F 02 02   ...............
0010: 10 01 80 00 19 00 01 6A  00 02 02 10 02 80 00 24  .......j.......$
0020: 00 01 6A 00 03 09 10 03  80 1E F0 FF FF 7F 2C 73  ..j...........,s
0030: 50 0F 01 73 50 0F 01 6B  75 65 30 02 04 10 04 80  P..sP..kue0.....
0040: 00 4A 00 1D 05 80 23 01  52 00 1D 06 80 23 1D 07  .J....#.R....#..
0050: 80 23 24 08 80 09 80 04  80 25 02 00 10 04 80 00  .#$......%......
0060: 16 01 02 03 10 02 10 04  08 01 46 01 42 27 0A F0  ..........F.B'..
0070: FF FF 7F 27 53 73 50 0F  01 73 50 0F 01 6B 75 65  ...'SsP..sP..kue
0080: 30 2C 73 50 0F 01 73 50  0F 01 73 69 74 30 5D 0A  0,sP..sP..sit0].
0090: 80 0B 80 1C 0C 80 2A 0A  F0 FF FF 7F 45 0D 80 F8  ......*.....E...
00A0: FF FF 7F F8 FF FF 7F 63  68 63 6F 04 80 27 0A F0  .......chco..'..
00B0: FF FF 7F 28 45 0E 80 F8  FF FF 7F F8 FF FF 7F 66  ...(E..........f
00C0: 64 6F 30 04 80 1C 0F 80  4E 01 73 50 0F 01 7E 01  do0.....N.sP..~.
00D0: F0 FF FF 7F 7E 02 F0 FF  FF 7F 1C 0F 80 2A 0A F0  ....~........*..
00E0: FF FF 7F 27 0A F0 FF FF  7F 2B 1C 10 80 45 0E 80  ...'.....+...E..
00F0: F8 FF FF 7F F8 FF FF 7F  66 64 69 30 04 80 2A 0A  ........fdi0..*.
0100: F0 FF FF 7F 30 01 11 01  1D 11 80 23 03 01 10 12  ....0......#....
0110: 80 21 00 01 1B 01 03 01  10 12 80 21 00           .!.........!.   
```

#### Opcodes

```
  0: 0x0001 [0x02] IF !(Work_Zone[2] == 4294967293*) GOTO 0x000E
  1: 0x0009 [0x1E] EventEntity looks at LocalPlayer and starts talking
  2: 0x000E [0x02] IF !(Work_Zone[2] == 4294967295*) GOTO 0x0019
  3: 0x0016 [0x01] GOTO 0x006A
  4: 0x0019 [0x02] IF !(Work_Zone[2] == 4294967294*) GOTO 0x0024
  5: 0x0021 [0x01] GOTO 0x006A
  6: 0x0024 [0x03] Work_Zone[9] = 138*
  7: 0x0029 [0x1E] EventEntity looks at LocalPlayer and starts talking
  8: 0x002E [0x2C] CREATE_SCHEDULER_TASK: Create scheduler "kue0" with entities [Chocobo (ID: 17780851/0x010F5073), Chocobo (ID: 17780851/0x010F5073)]
  9: 0x003B [0x02] IF !(Work_Zone[4] == 0*) GOTO 0x004A
 10: 0x0043 [0x1D] PRINT_EVENT_MESSAGE(message_id=6721*)
    → "You can rent a chocobo for $0 gil. I see you currently have $1 gil."
 11: 0x0046 [0x23] WAIT_FOR_DIALOG_INTERACTION
 12: 0x0047 [0x01] GOTO 0x0052
 13: 0x004A [0x1D] PRINT_EVENT_MESSAGE(message_id=6722*)
    → "You can rent a chocobo, but because your level is so low, you won't be able to ride for very long. Also, equipment that extends your riding time will have no effect."
 14: 0x004D [0x23] WAIT_FOR_DIALOG_INTERACTION
 15: 0x004E [0x1D] PRINT_EVENT_MESSAGE(message_id=6723*)
    → "If you still want one, it will cost you $0 gil. I see you currently have $1 gil."
 16: 0x0051 [0x23] WAIT_FOR_DIALOG_INTERACTION

SUBROUTINE_0052:
 17: 0x0052 [0x24] CREATE_DIALOG(message_id=6724*, default_option=1*, option_flags=0*)
    → "Do you wish to rent a chocobo? [Yes, I do./No, thank you.]"
 18: 0x0059 [0x25] WAIT_DIALOG_SELECT()
 19: 0x005A [0x02] IF !(Work_Zone[0] == 0*) GOTO 0x0116
 20: 0x0062 [0x02] IF !(Work_Zone[3] < Work_Zone[2]) GOTO 0x0108

SUBROUTINE_006A:
 21: 0x006A [0x46] CAMERA_CONTROL: Disable user control
 22: 0x006C [0x42] SET_CLI_EVENT_CANCEL_DATA()
 23: 0x006D [0x27] REQ_SET(priority=0x0A, entity_id=LocalPlayer, tag_num=0x27)
 24: 0x0074 [0x53] WAIT_SCHEDULER_TASK: Wait for scheduler "kue0" with entities [Chocobo (ID: 17780851/0x010F5073), Chocobo (ID: 17780851/0x010F5073)]
 25: 0x0081 [0x2C] CREATE_SCHEDULER_TASK: Create scheduler "sit0" with entities [Chocobo (ID: 17780851/0x010F5073), Chocobo (ID: 17780851/0x010F5073)]
 26: 0x008E [0x5D] SET_MUSIC_VOLUME(volume=32*, fade_time=120*)
 27: 0x0093 [0x1C] WAIT(60* ticks)
 28: 0x0096 [0x2A] GET_REQ_LEVEL(level=10, entity_id=LocalPlayer)
 29: 0x009C [0x45] LOAD_SCHEDULED_TASK: Load scheduler "chco" with entities [EventEntity, EventEntity], work=[201*, 0*]
 30: 0x00AD [0x27] REQ_SET(priority=0x0A, entity_id=LocalPlayer, tag_num=0x28)
 31: 0x00B4 [0x45] LOAD_SCHEDULED_TASK: Load scheduler "fdo0" with entities [EventEntity, EventEntity], work=[200*, 0*]
 32: 0x00C5 [0x1C] WAIT(30* ticks)
 33: 0x00C8 [0x4E] SET_ENTITY_HIDE_FLAG: Hide Chocobo (ID: 17780851/0x010F5073)
 34: 0x00CE [0x7E] CHOCOBO_MOUNT: Mount chocobo on LocalPlayer (status = 5)
 35: 0x00D4 [0x7E] CHOCOBO_MOUNT: Execute attachment function on LocalPlayer
 36: 0x00DA [0x1C] WAIT(30* ticks)
 37: 0x00DD [0x2A] GET_REQ_LEVEL(level=10, entity_id=LocalPlayer)
 38: 0x00E3 [0x27] REQ_SET(priority=0x0A, entity_id=LocalPlayer, tag_num=0x2B)
 39: 0x00EA [0x1C] WAIT(10* ticks)
 40: 0x00ED [0x45] LOAD_SCHEDULED_TASK: Load scheduler "fdi0" with entities [EventEntity, EventEntity], work=[200*, 0*]
 41: 0x00FE [0x2A] GET_REQ_LEVEL(level=10, entity_id=LocalPlayer)
 42: 0x0104 [0x30] SET_UCOFF_CONTINUE_ZERO()
 43: 0x0105 [0x01] GOTO 0x0111
 44: 0x0108 [0x1D] PRINT_EVENT_MESSAGE(message_id=6725*)
    → "You don't have enough gil."
 45: 0x010B [0x23] WAIT_FOR_DIALOG_INTERACTION
 46: 0x010C [0x03] Work_Zone[1] = 1073741824*

SUBROUTINE_0111:
 47: 0x0111 [0x21] END_EVENT
 48: 0x0112 [0x00] END_REQSTACK()

SUBROUTINE_011B:
 49: 0x011B [0x21] END_EVENT
 50: 0x011C [0x00] END_REQSTACK()
```

#### Data or dead code:

```
# Dead code (unreachable instructions):
     0x0113 [0x01] GOTO 0x011B
```

### Event 10005

#### Metadata

| Field        | Value    |
|--------------|----------|
| Entrypoint   | 0x011D   |
| Data Size    | 16 bytes |
| Instructions | 6        |

```
      00 01 02 03 04 05 06 07  08 09 0A 0B 0C 0D 0E 0F
      -- -- -- -- -- -- -- --  -- -- -- -- -- -- -- --
0110:                                         03 09 10               ...
0120: 03 80 1E F0 FF FF 7F 1D  13 80 23 21 00           ..........#!.   
```

#### Opcodes

```
  0: 0x011D [0x03] Work_Zone[9] = 138*
  1: 0x0122 [0x1E] EventEntity looks at LocalPlayer and starts talking
  2: 0x0127 [0x1D] PRINT_EVENT_MESSAGE(message_id=6720*)
    → "If you wish to ride a chocobo, you must possess $6 and have a high enough job level."
  3: 0x012A [0x23] WAIT_FOR_DIALOG_INTERACTION
  4: 0x012B [0x21] END_EVENT
  5: 0x012C [0x00] END_REQSTACK()
```
