# 17780841 - Stinknix

## Common Data

| Field            | Value                 |
|------------------|-----------------------|
| Zone             | Lower Jeuno (ID: 245) |
| Block Size       | 556 bytes             |
| Total Events     | 23                    |
| References Count | 10                    |

## List of Events

| Event ID                   | Entrypoint   |   Size |   Instructions |
|----------------------------|--------------|--------|----------------|
| [65535](#event-65535)      | 0x0000       |      1 |              1 |
| [65535.1](#event-655351)   | 0x0001       |     19 |              2 |
| [65535.2](#event-655352)   | 0x0014       |     15 |              2 |
| [65535.3](#event-655353)   | 0x0023       |     19 |              2 |
| [65535.4](#event-655354)   | 0x0036       |     15 |              2 |
| [65535.5](#event-655355)   | 0x0045       |     19 |              2 |
| [65535.6](#event-655356)   | 0x0058       |     15 |              2 |
| [65535.7](#event-655357)   | 0x0067       |     16 |              2 |
| [65535.8](#event-655358)   | 0x0077       |     14 |              2 |
| [65535.9](#event-655359)   | 0x0085       |     19 |              2 |
| [65535.10](#event-6553510) | 0x0098       |     15 |              2 |
| [65535.11](#event-6553511) | 0x00A7       |     16 |              2 |
| [65535.12](#event-6553512) | 0x00B7       |     14 |              2 |
| [65535.13](#event-6553513) | 0x00C5       |     19 |              2 |
| [65535.14](#event-6553514) | 0x00D8       |     15 |              2 |
| [65535.15](#event-6553515) | 0x00E7       |     16 |              2 |
| [65535.16](#event-6553516) | 0x00F7       |     14 |              2 |
| [65535.17](#event-6553517) | 0x0105       |     19 |              2 |
| [65535.18](#event-6553518) | 0x0118       |     15 |              2 |
| [65535.19](#event-6553519) | 0x0127       |     16 |              2 |
| [65535.20](#event-6553520) | 0x0137       |     14 |              2 |
| [20070](#event-20070)      | 0x0145       |      1 |              1 |
| [20071](#event-20071)      | 0x0146       |     79 |             14 |

## DAT References (imed_data)

|   Index | Hex Value   |   Dec Value |
|---------|-------------|-------------|
|       0 | 0x0866      |        2150 |
|       1 | 0x00B9      |         185 |
|       2 | 0x00C8      |         200 |
|       3 | 0x0046      |          70 |
|       4 | 0x0064      |         100 |
|       5 | 0x0172      |         370 |
|       6 | 0x006E      |         110 |
|       7 | 0x0BAE      |        2990 |
|       8 | 0x2AF1      |       10993 |
|       9 | 0x2AF2      |       10994 |

## Events

### Event 65535

#### Metadata

| Field        | Value   |
|--------------|---------|
| Entrypoint   | 0x0000  |
| Data Size    | 1 bytes |
| Instructions | 1       |

```
      00 01 02 03 04 05 06 07  08 09 0A 0B 0C 0D 0E 0F
      -- -- -- -- -- -- -- --  -- -- -- -- -- -- -- --
0000: 00                                                .               
```

#### Opcodes

```
  0: 0x0000 [0x00] END_REQSTACK()
```

### Event 65535.1

#### Metadata

| Field        | Value    |
|--------------|----------|
| Entrypoint   | 0x0001   |
| Data Size    | 19 bytes |
| Instructions | 2        |

```
      00 01 02 03 04 05 06 07  08 09 0A 0B 0C 0D 0E 0F
      -- -- -- -- -- -- -- --  -- -- -- -- -- -- -- --
0000:    5F 05 00 80 F8 FF FF  7F F8 FF FF 7F 6A 6F 79   _...........joy
0010: 30 01 80 00                                       0...            
```

#### Opcodes

```
  0: 0x0001 [0x5F] MULTI_HANDLER_COMPLEX(mode=0x05 - Load ext scheduler with flag (OpCode 0x5B mode 0, flag 1), ref=2150*, entity1=EventEntity, entity2=EventEntity, string="joy0", extra=185*)
  1: 0x0013 [0x00] END_REQSTACK()
```

### Event 65535.2

#### Metadata

| Field        | Value    |
|--------------|----------|
| Entrypoint   | 0x0014   |
| Data Size    | 15 bytes |
| Instructions | 2        |

```
      00 01 02 03 04 05 06 07  08 09 0A 0B 0C 0D 0E 0F
      -- -- -- -- -- -- -- --  -- -- -- -- -- -- -- --
0010:             5F 07 F8 FF  FF 7F F8 FF FF 7F 6A 6F      _.........jo
0020: 79 30 00                                          y0.             
```

#### Opcodes

```
  0: 0x0014 [0x5F] MULTI_HANDLER_COMPLEX(mode=0x07 - Wait scheduler task (OpCode 0x53))
  1: 0x0022 [0x00] END_REQSTACK()
```

### Event 65535.3

#### Metadata

| Field        | Value    |
|--------------|----------|
| Entrypoint   | 0x0023   |
| Data Size    | 19 bytes |
| Instructions | 2        |

```
      00 01 02 03 04 05 06 07  08 09 0A 0B 0C 0D 0E 0F
      -- -- -- -- -- -- -- --  -- -- -- -- -- -- -- --
0020:          5F 05 00 80 F8  FF FF 7F F8 FF FF 7F 70     _...........p
0030: 6E 74 30 02 80 00                                 nt0...          
```

#### Opcodes

```
  0: 0x0023 [0x5F] MULTI_HANDLER_COMPLEX(mode=0x05 - Load ext scheduler with flag (OpCode 0x5B mode 0, flag 1), ref=2150*, entity1=EventEntity, entity2=EventEntity, string="pnt0", extra=200*)
  1: 0x0035 [0x00] END_REQSTACK()
```

### Event 65535.4

#### Metadata

| Field        | Value    |
|--------------|----------|
| Entrypoint   | 0x0036   |
| Data Size    | 15 bytes |
| Instructions | 2        |

```
      00 01 02 03 04 05 06 07  08 09 0A 0B 0C 0D 0E 0F
      -- -- -- -- -- -- -- --  -- -- -- -- -- -- -- --
0030:                   5F 07  F8 FF FF 7F F8 FF FF 7F        _.........
0040: 70 6E 74 30 00                                    pnt0.           
```

#### Opcodes

```
  0: 0x0036 [0x5F] MULTI_HANDLER_COMPLEX(mode=0x07 - Wait scheduler task (OpCode 0x53))
  1: 0x0044 [0x00] END_REQSTACK()
```

### Event 65535.5

#### Metadata

| Field        | Value    |
|--------------|----------|
| Entrypoint   | 0x0045   |
| Data Size    | 19 bytes |
| Instructions | 2        |

```
      00 01 02 03 04 05 06 07  08 09 0A 0B 0C 0D 0E 0F
      -- -- -- -- -- -- -- --  -- -- -- -- -- -- -- --
0040:                5F 05 00  80 F8 FF FF 7F F8 FF FF       _..........
0050: 7F 6B 75 6E 30 03 80 00                           .kun0...        
```

#### Opcodes

```
  0: 0x0045 [0x5F] MULTI_HANDLER_COMPLEX(mode=0x05 - Load ext scheduler with flag (OpCode 0x5B mode 0, flag 1), ref=2150*, entity1=EventEntity, entity2=EventEntity, string="kun0", extra=70*)
  1: 0x0057 [0x00] END_REQSTACK()
```

### Event 65535.6

#### Metadata

| Field        | Value    |
|--------------|----------|
| Entrypoint   | 0x0058   |
| Data Size    | 15 bytes |
| Instructions | 2        |

```
      00 01 02 03 04 05 06 07  08 09 0A 0B 0C 0D 0E 0F
      -- -- -- -- -- -- -- --  -- -- -- -- -- -- -- --
0050:                          5F 07 F8 FF FF 7F F8 FF          _.......
0060: FF 7F 6B 75 6E 30 00                              ..kun0.         
```

#### Opcodes

```
  0: 0x0058 [0x5F] MULTI_HANDLER_COMPLEX(mode=0x07 - Wait scheduler task (OpCode 0x53))
  1: 0x0066 [0x00] END_REQSTACK()
```

### Event 65535.7

#### Metadata

| Field        | Value    |
|--------------|----------|
| Entrypoint   | 0x0067   |
| Data Size    | 16 bytes |
| Instructions | 2        |

```
      00 01 02 03 04 05 06 07  08 09 0A 0B 0C 0D 0E 0F
      -- -- -- -- -- -- -- --  -- -- -- -- -- -- -- --
0060:                      5B  00 80 F8 FF FF 7F F8 FF         [........
0070: FF 7F 6B 75 6E 31 00                              ..kun1.         
```

#### Opcodes

```
  0: 0x0067 [0x5B] LOAD_EXT_SCHEDULER: Load scheduler "kun1" with entities [EventEntity, EventEntity], work=2150*
  1: 0x0076 [0x00] END_REQSTACK()
```

### Event 65535.8

#### Metadata

| Field        | Value    |
|--------------|----------|
| Entrypoint   | 0x0077   |
| Data Size    | 14 bytes |
| Instructions | 2        |

```
      00 01 02 03 04 05 06 07  08 09 0A 0B 0C 0D 0E 0F
      -- -- -- -- -- -- -- --  -- -- -- -- -- -- -- --
0070:                      53  F8 FF FF 7F F8 FF FF 7F         S........
0080: 6B 75 6E 31 00                                    kun1.           
```

#### Opcodes

```
  0: 0x0077 [0x53] WAIT_SCHEDULER_TASK: Wait for scheduler "kun1" with entities [EventEntity, EventEntity]
  1: 0x0084 [0x00] END_REQSTACK()
```

### Event 65535.9

#### Metadata

| Field        | Value    |
|--------------|----------|
| Entrypoint   | 0x0085   |
| Data Size    | 19 bytes |
| Instructions | 2        |

```
      00 01 02 03 04 05 06 07  08 09 0A 0B 0C 0D 0E 0F
      -- -- -- -- -- -- -- --  -- -- -- -- -- -- -- --
0080:                5F 05 00  80 F8 FF FF 7F F8 FF FF       _..........
0090: 7F 6F 64 6F 30 04 80 00                           .odo0...        
```

#### Opcodes

```
  0: 0x0085 [0x5F] MULTI_HANDLER_COMPLEX(mode=0x05 - Load ext scheduler with flag (OpCode 0x5B mode 0, flag 1), ref=2150*, entity1=EventEntity, entity2=EventEntity, string="odo0", extra=100*)
  1: 0x0097 [0x00] END_REQSTACK()
```

### Event 65535.10

#### Metadata

| Field        | Value    |
|--------------|----------|
| Entrypoint   | 0x0098   |
| Data Size    | 15 bytes |
| Instructions | 2        |

```
      00 01 02 03 04 05 06 07  08 09 0A 0B 0C 0D 0E 0F
      -- -- -- -- -- -- -- --  -- -- -- -- -- -- -- --
0090:                          5F 07 F8 FF FF 7F F8 FF          _.......
00A0: FF 7F 6F 64 6F 30 00                              ..odo0.         
```

#### Opcodes

```
  0: 0x0098 [0x5F] MULTI_HANDLER_COMPLEX(mode=0x07 - Wait scheduler task (OpCode 0x53))
  1: 0x00A6 [0x00] END_REQSTACK()
```

### Event 65535.11

#### Metadata

| Field        | Value    |
|--------------|----------|
| Entrypoint   | 0x00A7   |
| Data Size    | 16 bytes |
| Instructions | 2        |

```
      00 01 02 03 04 05 06 07  08 09 0A 0B 0C 0D 0E 0F
      -- -- -- -- -- -- -- --  -- -- -- -- -- -- -- --
00A0:                      5B  00 80 F8 FF FF 7F F8 FF         [........
00B0: FF 7F 6F 64 6F 31 00                              ..odo1.         
```

#### Opcodes

```
  0: 0x00A7 [0x5B] LOAD_EXT_SCHEDULER: Load scheduler "odo1" with entities [EventEntity, EventEntity], work=2150*
  1: 0x00B6 [0x00] END_REQSTACK()
```

### Event 65535.12

#### Metadata

| Field        | Value    |
|--------------|----------|
| Entrypoint   | 0x00B7   |
| Data Size    | 14 bytes |
| Instructions | 2        |

```
      00 01 02 03 04 05 06 07  08 09 0A 0B 0C 0D 0E 0F
      -- -- -- -- -- -- -- --  -- -- -- -- -- -- -- --
00B0:                      53  F8 FF FF 7F F8 FF FF 7F         S........
00C0: 6F 64 6F 31 00                                    odo1.           
```

#### Opcodes

```
  0: 0x00B7 [0x53] WAIT_SCHEDULER_TASK: Wait for scheduler "odo1" with entities [EventEntity, EventEntity]
  1: 0x00C4 [0x00] END_REQSTACK()
```

### Event 65535.13

#### Metadata

| Field        | Value    |
|--------------|----------|
| Entrypoint   | 0x00C5   |
| Data Size    | 19 bytes |
| Instructions | 2        |

```
      00 01 02 03 04 05 06 07  08 09 0A 0B 0C 0D 0E 0F
      -- -- -- -- -- -- -- --  -- -- -- -- -- -- -- --
00C0:                5F 05 00  80 F8 FF FF 7F F8 FF FF       _..........
00D0: 7F 6B 79 6F 30 05 80 00                           .kyo0...        
```

#### Opcodes

```
  0: 0x00C5 [0x5F] MULTI_HANDLER_COMPLEX(mode=0x05 - Load ext scheduler with flag (OpCode 0x5B mode 0, flag 1), ref=2150*, entity1=EventEntity, entity2=EventEntity, string="kyo0", extra=370*)
  1: 0x00D7 [0x00] END_REQSTACK()
```

### Event 65535.14

#### Metadata

| Field        | Value    |
|--------------|----------|
| Entrypoint   | 0x00D8   |
| Data Size    | 15 bytes |
| Instructions | 2        |

```
      00 01 02 03 04 05 06 07  08 09 0A 0B 0C 0D 0E 0F
      -- -- -- -- -- -- -- --  -- -- -- -- -- -- -- --
00D0:                          5F 07 F8 FF FF 7F F8 FF          _.......
00E0: FF 7F 6B 79 6F 30 00                              ..kyo0.         
```

#### Opcodes

```
  0: 0x00D8 [0x5F] MULTI_HANDLER_COMPLEX(mode=0x07 - Wait scheduler task (OpCode 0x53))
  1: 0x00E6 [0x00] END_REQSTACK()
```

### Event 65535.15

#### Metadata

| Field        | Value    |
|--------------|----------|
| Entrypoint   | 0x00E7   |
| Data Size    | 16 bytes |
| Instructions | 2        |

```
      00 01 02 03 04 05 06 07  08 09 0A 0B 0C 0D 0E 0F
      -- -- -- -- -- -- -- --  -- -- -- -- -- -- -- --
00E0:                      5B  00 80 F8 FF FF 7F F8 FF         [........
00F0: FF 7F 6B 79 6F 31 00                              ..kyo1.         
```

#### Opcodes

```
  0: 0x00E7 [0x5B] LOAD_EXT_SCHEDULER: Load scheduler "kyo1" with entities [EventEntity, EventEntity], work=2150*
  1: 0x00F6 [0x00] END_REQSTACK()
```

### Event 65535.16

#### Metadata

| Field        | Value    |
|--------------|----------|
| Entrypoint   | 0x00F7   |
| Data Size    | 14 bytes |
| Instructions | 2        |

```
      00 01 02 03 04 05 06 07  08 09 0A 0B 0C 0D 0E 0F
      -- -- -- -- -- -- -- --  -- -- -- -- -- -- -- --
00F0:                      53  F8 FF FF 7F F8 FF FF 7F         S........
0100: 6B 79 6F 31 00                                    kyo1.           
```

#### Opcodes

```
  0: 0x00F7 [0x53] WAIT_SCHEDULER_TASK: Wait for scheduler "kyo1" with entities [EventEntity, EventEntity]
  1: 0x0104 [0x00] END_REQSTACK()
```

### Event 65535.17

#### Metadata

| Field        | Value    |
|--------------|----------|
| Entrypoint   | 0x0105   |
| Data Size    | 19 bytes |
| Instructions | 2        |

```
      00 01 02 03 04 05 06 07  08 09 0A 0B 0C 0D 0E 0F
      -- -- -- -- -- -- -- --  -- -- -- -- -- -- -- --
0100:                5F 05 00  80 F8 FF FF 7F F8 FF FF       _..........
0110: 7F 74 6C 33 30 06 80 00                           .tl30...        
```

#### Opcodes

```
  0: 0x0105 [0x5F] MULTI_HANDLER_COMPLEX(mode=0x05 - Load ext scheduler with flag (OpCode 0x5B mode 0, flag 1), ref=2150*, entity1=EventEntity, entity2=EventEntity, string="tl30", extra=110*)
  1: 0x0117 [0x00] END_REQSTACK()
```

### Event 65535.18

#### Metadata

| Field        | Value    |
|--------------|----------|
| Entrypoint   | 0x0118   |
| Data Size    | 15 bytes |
| Instructions | 2        |

```
      00 01 02 03 04 05 06 07  08 09 0A 0B 0C 0D 0E 0F
      -- -- -- -- -- -- -- --  -- -- -- -- -- -- -- --
0110:                          5F 07 F8 FF FF 7F F8 FF          _.......
0120: FF 7F 74 6C 33 30 00                              ..tl30.         
```

#### Opcodes

```
  0: 0x0118 [0x5F] MULTI_HANDLER_COMPLEX(mode=0x07 - Wait scheduler task (OpCode 0x53))
  1: 0x0126 [0x00] END_REQSTACK()
```

### Event 65535.19

#### Metadata

| Field        | Value    |
|--------------|----------|
| Entrypoint   | 0x0127   |
| Data Size    | 16 bytes |
| Instructions | 2        |

```
      00 01 02 03 04 05 06 07  08 09 0A 0B 0C 0D 0E 0F
      -- -- -- -- -- -- -- --  -- -- -- -- -- -- -- --
0120:                      5B  00 80 F8 FF FF 7F F8 FF         [........
0130: FF 7F 74 6C 33 31 00                              ..tl31.         
```

#### Opcodes

```
  0: 0x0127 [0x5B] LOAD_EXT_SCHEDULER: Load scheduler "tl31" with entities [EventEntity, EventEntity], work=2150*
  1: 0x0136 [0x00] END_REQSTACK()
```

### Event 65535.20

#### Metadata

| Field        | Value    |
|--------------|----------|
| Entrypoint   | 0x0137   |
| Data Size    | 14 bytes |
| Instructions | 2        |

```
      00 01 02 03 04 05 06 07  08 09 0A 0B 0C 0D 0E 0F
      -- -- -- -- -- -- -- --  -- -- -- -- -- -- -- --
0130:                      53  F8 FF FF 7F F8 FF FF 7F         S........
0140: 74 6C 33 31 00                                    tl31.           
```

#### Opcodes

```
  0: 0x0137 [0x53] WAIT_SCHEDULER_TASK: Wait for scheduler "tl31" with entities [EventEntity, EventEntity]
  1: 0x0144 [0x00] END_REQSTACK()
```

### Event 20070

#### Metadata

| Field        | Value   |
|--------------|---------|
| Entrypoint   | 0x0145  |
| Data Size    | 1 bytes |
| Instructions | 1       |

```
      00 01 02 03 04 05 06 07  08 09 0A 0B 0C 0D 0E 0F
      -- -- -- -- -- -- -- --  -- -- -- -- -- -- -- --
0140:                00                                      .          
```

#### Opcodes

```
  0: 0x0145 [0x00] END_REQSTACK()
```

### Event 20071

#### Metadata

| Field        | Value    |
|--------------|----------|
| Entrypoint   | 0x0146   |
| Data Size    | 79 bytes |
| Instructions | 14       |

```
      00 01 02 03 04 05 06 07  08 09 0A 0B 0C 0D 0E 0F
      -- -- -- -- -- -- -- --  -- -- -- -- -- -- -- --
0140:                   1E F0  FF FF 7F 6F 70 5F 05 00        .....op_..
0150: 80 F8 FF FF 7F F8 FF FF  7F 74 6C 33 30 06 80 03  .........tl30...
0160: 03 10 07 80 2B 69 50 0F  01 08 80 23 2B 69 50 0F  ....+iP....#+iP.
0170: 01 09 80 23 5F 07 F8 FF  FF 7F F8 FF FF 7F 74 6C  ...#_.........tl
0180: 33 30 5B 00 80 F8 FF FF  7F F8 FF FF 7F 74 6C 33  30[..........tl3
0190: 31 20 00 21 00                                    1 .!.           
```

#### Opcodes

```
  0: 0x0146 [0x1E] EventEntity looks at LocalPlayer and starts talking
  1: 0x014B [0x6F] WAIT_FRAME_DELAY: Yield until WaitTime reaches zero
  2: 0x014C [0x70] WAIT_ENTITY_RENDER_FLAG: Wait while EventEntity->Render.Flags3 bit 2 is set (cancel turn if not)
  3: 0x014D [0x5F] MULTI_HANDLER_COMPLEX(mode=0x05 - Load ext scheduler with flag (OpCode 0x5B mode 0, flag 1), ref=2150*, entity1=EventEntity, entity2=EventEntity, string="tl30", extra=110*)
  4: 0x015F [0x03] Work_Zone[3] = 2990*
  5: 0x0164 [0x2B] Stinknix (ID: 17780841/0x010F5069) [10993*]:
    → "You better take that big bag o' things over ta where ya keep yo' critters or wherever."
  6: 0x016B [0x23] WAIT_FOR_DIALOG_INTERACTION
  7: 0x016C [0x2B] Stinknix (ID: 17780841/0x010F5069) [10994*]:
    → "Let me tell ya, if Su' an' his boy can stop goin' at each other's throats it'll be a load off my back! I don't need 'em scarin' off any more customers than they already have!"
  8: 0x0173 [0x23] WAIT_FOR_DIALOG_INTERACTION
  9: 0x0174 [0x5F] MULTI_HANDLER_COMPLEX(mode=0x07 - Wait scheduler task (OpCode 0x53))
 10: 0x0182 [0x5B] LOAD_EXT_SCHEDULER: Load scheduler "tl31" with entities [EventEntity, EventEntity], work=2150*
 11: 0x0191 [0x20] SET_CLI_EVENT_UC_FLAG: Unlock player control
 12: 0x0193 [0x21] END_EVENT
 13: 0x0194 [0x00] END_REQSTACK()
```
