# 17781003 - Relolo

## Common Data

| Field            | Value                 |
|------------------|-----------------------|
| Zone             | Lower Jeuno (ID: 245) |
| Block Size       | 68 bytes              |
| Total Events     | 2                     |
| References Count | 4                     |

## List of Events

| Event ID              | Entrypoint   |   Size |   Instructions |
|-----------------------|--------------|--------|----------------|
| [65535](#event-65535) | 0x0000       |      1 |              1 |
| [20074](#event-20074) | 0x0001       |     25 |             10 |

## DAT References (imed_data)

|   Index | Hex Value   |   Dec Value |
|---------|-------------|-------------|
|       0 | 0x0000      |           0 |
|       1 | 0x2B08      |       11016 |
|       2 | 0x2B09      |       11017 |
|       3 | 0x2B0A      |       11018 |

## String References

- **11016**: You're so lucky-wucky! I tried to buy a ticket for the chance to hold Cassie, but they were all sold out...
- **11017**: I guess I'll just have to learn how to summon a morbol-worbol myself.
- **11018**: I wonder how you go about learning to summon-wummon a morbol... I suppose I'd need to become a Beastmaster first?

## Events

### Event 65535

#### Metadata

| Field        | Value   |
|--------------|---------|
| Entrypoint   | 0x0000  |
| Data Size    | 1 bytes |
| Instructions | 1       |

```
      00 01 02 03 04 05 06 07  08 09 0A 0B 0C 0D 0E 0F
      -- -- -- -- -- -- -- --  -- -- -- -- -- -- -- --
0000: 00                                                .               
```

#### Opcodes

```
  0: 0x0000 [0x00] END_REQSTACK()
```

### Event 20074

#### Metadata

| Field        | Value    |
|--------------|----------|
| Entrypoint   | 0x0001   |
| Data Size    | 25 bytes |
| Instructions | 10       |

```
      00 01 02 03 04 05 06 07  08 09 0A 0B 0C 0D 0E 0F
      -- -- -- -- -- -- -- --  -- -- -- -- -- -- -- --
0000:    02 02 10 00 80 00 14  00 1D 01 80 23 1D 02 80   ...........#...
0010: 23 01 18 00 1D 03 80 23  21 00                    #......#!.      
```

#### Opcodes

```
  0: 0x0001 [0x02] IF !(Work_Zone[2] == 0*) GOTO 0x0014
  1: 0x0009 [0x1D] PRINT_EVENT_MESSAGE(message_id=11016*)
    → "You're so lucky-wucky! I tried to buy a ticket for the chance to hold Cassie, but they were all sold out..."
  2: 0x000C [0x23] WAIT_FOR_DIALOG_INTERACTION
  3: 0x000D [0x1D] PRINT_EVENT_MESSAGE(message_id=11017*)
    → "I guess I'll just have to learn how to summon a morbol-worbol myself."
  4: 0x0010 [0x23] WAIT_FOR_DIALOG_INTERACTION
  5: 0x0011 [0x01] GOTO 0x0018
  6: 0x0014 [0x1D] PRINT_EVENT_MESSAGE(message_id=11018*)
    → "I wonder how you go about learning to summon-wummon a morbol... I suppose I'd need to become a Beastmaster first?"
  7: 0x0017 [0x23] WAIT_FOR_DIALOG_INTERACTION

SUBROUTINE_0018:
  8: 0x0018 [0x21] END_EVENT
  9: 0x0019 [0x00] END_REQSTACK()
```
