# 17780913

## Common Data

| Field            | Value                 |
|------------------|-----------------------|
| Zone             | Lower Jeuno (ID: 245) |
| Block Size       | 19928 bytes           |
| Total Events     | 20                    |
| References Count | 274                   |

## List of Events

| Event ID                   | Entrypoint   |   Size |   Instructions |
|----------------------------|--------------|--------|----------------|
| [65535](#event-65535)      | 0x0000       |      1 |              1 |
| [65535.1](#event-655351)   | 0x0001       |     13 |              5 |
| [65535.2](#event-655352)   | 0x000E       |      9 |              3 |
| [20000](#event-20000)      | 0x0017       |      1 |              1 |
| [65535.3](#event-655353)   | 0x0018       |     30 |              5 |
| [10049](#event-10049)      | 0x0036       |      1 |              1 |
| [65535.4](#event-655354)   | 0x0037       |     10 |              2 |
| [65535.5](#event-655355)   | 0x0041       |     14 |              4 |
| [10050](#event-10050)      | 0x004F       |      1 |              1 |
| [65535.6](#event-655356)   | 0x0050       |     23 |              5 |
| [10051](#event-10051)      | 0x0067       |      1 |              1 |
| [65535.7](#event-655357)   | 0x0068       |     23 |              5 |
| [65535.8](#event-655358)   | 0x007F       |     14 |              4 |
| [65535.9](#event-655359)   | 0x008D       |     14 |              4 |
| [65535.10](#event-6553510) | 0x009B       |     10 |              2 |
| [65535.11](#event-6553511) | 0x00A5       |     14 |              4 |
| [65535.12](#event-6553512) | 0x00B3       |     14 |              4 |
| [65535.13](#event-6553513) | 0x00C1       |     14 |              4 |
| [65535.14](#event-6553514) | 0x00CF       |      3 |              2 |
| [65535.15](#event-6553515) | 0x00D2       |  18526 |           3183 |

## DAT References (imed_data)

|   Index | Hex Value   |   Dec Value |
|---------|-------------|-------------|
|       0 | 0x0000      |           0 |
|       1 | 0x001C      |          28 |
|       2 | 0x5173      |       20851 |
|       3 | 0xFFFFEA7A  |  4294961786 |
|       4 | 0xFFFFFF91  |  4294967185 |
|       5 | 0x0DB3      |        3507 |
|       6 | 0x000D      |          13 |
|       7 | 0x5813      |       22547 |
|       8 | 0x0DEB      |        3563 |
|       9 | 0xFFFFFF9C  |  4294967196 |
|      10 | 0x3BA5      |       15269 |
|      11 | 0xFFFFF005  |  4294963205 |
|      12 | 0x0064      |         100 |
|      13 | 0x469E      |       18078 |
|      14 | 0xFFFFE9B1  |  4294961585 |
|      15 | 0x5679      |       22137 |
|      16 | 0xFFFFF984  |  4294965636 |
|      17 | 0x057F      |        1407 |
|      18 | 0x5032      |       20530 |
|      19 | 0xFFFFEE52  |  4294962770 |
|      20 | 0x4145      |       16709 |
|      21 | 0xFFFFF17D  |  4294963581 |
|      22 | 0x0469      |        1129 |
|      23 | 0x0F61      |        3937 |
|      24 | 0xFFFF2027  |  4294909991 |
|      25 | 0xFFFEE3D0  |  4294894544 |
|      26 | 0x176F      |        5999 |
|      27 | 0x05BA      |        1466 |
|      28 | 0xFFFF18B6  |  4294908086 |
|      29 | 0xFFFEE85D  |  4294895709 |
|      30 | 0xFFFF53A2  |  4294923170 |
|      31 | 0xFFFF0A60  |  4294904416 |
|      32 | 0x0001      |           1 |
|      33 | 0x0002      |           2 |
|      34 | 0x0003      |           3 |
|      35 | 0x0004      |           4 |
|      36 | 0x0005      |           5 |
|      37 | 0x0006      |           6 |
|      38 | 0x0007      |           7 |
|      39 | 0x005F      |          95 |
|      40 | 0x0069      |         105 |
|      41 | 0x0052      |          82 |
|      42 | 0x0057      |          87 |
|      43 | 0x005C      |          92 |
|      44 | 0x0059      |          89 |
|      45 | 0x005D      |          93 |
|      46 | 0x0061      |          97 |
|      47 | 0x0060      |          96 |
|      48 | 0x0008      |           8 |
|      49 | 0x0009      |           9 |
|      50 | 0x000A      |          10 |
|      51 | 0x0012      |          18 |
|      52 | 0x0013      |          19 |
|      53 | 0x0014      |          20 |
|      54 | 0x0017      |          23 |
|      55 | 0x000C      |          12 |
|      56 | 0x000F      |          15 |
|      57 | 0x000E      |          14 |
|      58 | 0x000B      |          11 |
|      59 | 0x0018      |          24 |
|      60 | 0x001F      |          31 |
|      61 | 0x001B      |          27 |
|      62 | 0x0010      |          16 |
|      63 | 0x0015      |          21 |
|      64 | 0x018D      |         397 |
|      65 | 0x0175      |         373 |
|      66 | 0x0170      |         368 |
|      67 | 0x0171      |         369 |
|      68 | 0x014C      |         332 |
|      69 | 0x01C1      |         449 |
|      70 | 0x027C      |         636 |
|      71 | 0x027B      |         635 |
|      72 | 0x027D      |         637 |
|      73 | 0x02D3      |         723 |
|      74 | 0x0321      |         801 |
|      75 | 0x0326      |         806 |
|      76 | 0x01E1      |         481 |
|      77 | 0x0343      |         835 |
|      78 | 0x0386      |         902 |
|      79 | 0x0388      |         904 |
|      80 | 0x0361      |         865 |
|      81 | 0x0387      |         903 |
|      82 | 0x038A      |         906 |
|      83 | 0x003F      |          63 |
|      84 | 0x0282      |         642 |
|      85 | 0x0283      |         643 |
|      86 | 0x0288      |         648 |
|      87 | 0x0289      |         649 |
|      88 | 0x028A      |         650 |
|      89 | 0x028B      |         651 |
|      90 | 0x029E      |         670 |
|      91 | 0x0019      |          25 |
|      92 | 0x00C6      |         198 |
|      93 | 0x0032      |          50 |
|      94 | 0x00B5      |         181 |
|      95 | 0x008C      |         140 |
|      96 | 0x008E      |         142 |
|      97 | 0x007A      |         122 |
|      98 | 0x014B      |         331 |
|      99 | 0x0148      |         328 |
|     100 | 0x0166      |         358 |
|     101 | 0x017A      |         378 |
|     102 | 0x0182      |         386 |
|     103 | 0x0183      |         387 |
|     104 | 0x0192      |         402 |
|     105 | 0x01DF      |         479 |
|     106 | 0x01E9      |         489 |
|     107 | 0x00E6      |         230 |
|     108 | 0x00EB      |         235 |
|     109 | 0x00F5      |         245 |
|     110 | 0x007E      |         126 |
|     111 | 0x007F      |         127 |
|     112 | 0x00F3      |         243 |
|     113 | 0x00F4      |         244 |
|     114 | 0x00E0      |         224 |
|     115 | 0x00E9      |         233 |
|     116 | 0x009E      |         158 |
|     117 | 0x009D      |         157 |
|     118 | 0x00E2      |         226 |
|     119 | 0x00E1      |         225 |
|     120 | 0x014F      |         335 |
|     121 | 0x014E      |         334 |
|     122 | 0x0167      |         359 |
|     123 | 0x00E5      |         229 |
|     124 | 0x0169      |         361 |
|     125 | 0x016A      |         362 |
|     126 | 0x0168      |         360 |
|     127 | 0x0133      |         307 |
|     128 | 0x0174      |         372 |
|     129 | 0x018C      |         396 |
|     130 | 0x0194      |         404 |
|     131 | 0x0195      |         405 |
|     132 | 0x0178      |         376 |
|     133 | 0x0240      |         576 |
|     134 | 0x0197      |         407 |
|     135 | 0x0198      |         408 |
|     136 | 0x01A3      |         419 |
|     137 | 0x019E      |         414 |
|     138 | 0x0246      |         582 |
|     139 | 0x0247      |         583 |
|     140 | 0x0248      |         584 |
|     141 | 0x024B      |         587 |
|     142 | 0x024A      |         586 |
|     143 | 0x0011      |          17 |
|     144 | 0x024F      |         591 |
|     145 | 0x01C3      |         451 |
|     146 | 0x01C4      |         452 |
|     147 | 0x01EF      |         495 |
|     148 | 0x01F0      |         496 |
|     149 | 0x001A      |          26 |
|     150 | 0x0095      |         149 |
|     151 | 0x001D      |          29 |
|     152 | 0x0073      |         115 |
|     153 | 0x0034      |          52 |
|     154 | 0x0024      |          36 |
|     155 | 0x005E      |          94 |
|     156 | 0x0072      |         114 |
|     157 | 0x0031      |          49 |
|     158 | 0x006C      |         108 |
|     159 | 0x003A      |          58 |
|     160 | 0x0096      |         150 |
|     161 | 0x0016      |          22 |
|     162 | 0x0035      |          53 |
|     163 | 0x0085      |         133 |
|     164 | 0x0081      |         129 |
|     165 | 0x0023      |          35 |
|     166 | 0x0033      |          51 |
|     167 | 0x0082      |         130 |
|     168 | 0x0039      |          57 |
|     169 | 0x0020      |          32 |
|     170 | 0x0038      |          56 |
|     171 | 0x0036      |          54 |
|     172 | 0x0083      |         131 |
|     173 | 0x00A2      |         162 |
|     174 | 0x0022      |          34 |
|     175 | 0x0021      |          33 |
|     176 | 0x0065      |         101 |
|     177 | 0x0086      |         134 |
|     178 | 0x0062      |          98 |
|     179 | 0x008D      |         141 |
|     180 | 0x0037      |          55 |
|     181 | 0x008A      |         138 |
|     182 | 0x008B      |         139 |
|     183 | 0x002B      |          43 |
|     184 | 0x0067      |         103 |
|     185 | 0x0030      |          48 |
|     186 | 0x002D      |          45 |
|     187 | 0x00A1      |         161 |
|     188 | 0x0066      |         102 |
|     189 | 0x0075      |         117 |
|     190 | 0x0068      |         104 |
|     191 | 0x007B      |         123 |
|     192 | 0x0077      |         119 |
|     193 | 0x01FE      |         510 |
|     194 | 0x009F      |         159 |
|     195 | 0x00A4      |         164 |
|     196 | 0x00A9      |         169 |
|     197 | 0x00AC      |         172 |
|     198 | 0x00B2      |         178 |
|     199 | 0x00B0      |         176 |
|     200 | 0x013D      |         317 |
|     201 | 0x0108      |         264 |
|     202 | 0x010C      |         268 |
|     203 | 0x0100      |         256 |
|     204 | 0x00FB      |         251 |
|     205 | 0x00B8      |         184 |
|     206 | 0x011C      |         284 |
|     207 | 0x0041      |          65 |
|     208 | 0x0042      |          66 |
|     209 | 0x0047      |          71 |
|     210 | 0x0160      |         352 |
|     211 | 0x0043      |          67 |
|     212 | 0x0048      |          72 |
|     213 | 0x004B      |          75 |
|     214 | 0x004C      |          76 |
|     215 | 0x004D      |          77 |
|     216 | 0x005B      |          91 |
|     217 | 0x0058      |          88 |
|     218 | 0x0053      |          83 |
|     219 | 0x0054      |          84 |
|     220 | 0x0161      |         353 |
|     221 | 0x015C      |         348 |
|     222 | 0x016D      |         365 |
|     223 | 0x00C5      |         197 |
|     224 | 0x00C3      |         195 |
|     225 | 0x00C7      |         199 |
|     226 | 0x015E      |         350 |
|     227 | 0x00C4      |         196 |
|     228 | 0x016E      |         366 |
|     229 | 0x00D0      |         208 |
|     230 | 0x00CD      |         205 |
|     231 | 0x00CA      |         202 |
|     232 | 0x00D2      |         210 |
|     233 | 0x00D8      |         216 |
|     234 | 0x00D5      |         213 |
|     235 | 0x00D6      |         214 |
|     236 | 0x013B      |         315 |
|     237 | 0x0136      |         310 |
|     238 | 0x013A      |         314 |
|     239 | 0x0137      |         311 |
|     240 | 0x016F      |         367 |
|     241 | 0x0138      |         312 |
|     242 | 0x0139      |         313 |
|     243 | 0x009A      |         154 |
|     244 | 0x0091      |         145 |
|     245 | 0x009B      |         155 |
|     246 | 0x0099      |         153 |
|     247 | 0x0093      |         147 |
|     248 | 0x0092      |         146 |
|     249 | 0x0098      |         152 |
|     250 | 0x0071      |         113 |
|     251 | 0x00E8      |         232 |
|     252 | 0x00DD      |         221 |
|     253 | 0x00F8      |         248 |
|     254 | 0x00F1      |         241 |
|     255 | 0x0124      |         292 |
|     256 | 0x012E      |         302 |
|     257 | 0x0129      |         297 |
|     258 | 0x0122      |         290 |
|     259 | 0x0132      |         306 |
|     260 | 0x0126      |         294 |
|     261 | 0x0155      |         341 |
|     262 | 0x0025      |          37 |
|     263 | 0x0029      |          41 |
|     264 | 0x0028      |          40 |
|     265 | 0x007D      |         125 |
|     266 | 0x0079      |         121 |
|     267 | 0x007C      |         124 |
|     268 | 0x0074      |         116 |
|     269 | 0x00EC      |         236 |
|     270 | 0x019C      |         412 |
|     271 | 0x0193      |         403 |
|     272 | 0x01C6      |         454 |
|     273 | 0x01C7      |         455 |

## Events

### Event 65535

#### Metadata

| Field        | Value   |
|--------------|---------|
| Entrypoint   | 0x0000  |
| Data Size    | 1 bytes |
| Instructions | 1       |

```
      00 01 02 03 04 05 06 07  08 09 0A 0B 0C 0D 0E 0F
      -- -- -- -- -- -- -- --  -- -- -- -- -- -- -- --
0000: 00                                                .               
```

#### Opcodes

```
  0: 0x0000 [0x00] END_REQSTACK()
```

### Event 65535.1

#### Metadata

| Field        | Value    |
|--------------|----------|
| Entrypoint   | 0x0001   |
| Data Size    | 13 bytes |
| Instructions | 5        |

```
      00 01 02 03 04 05 06 07  08 09 0A 0B 0C 0D 0E 0F
      -- -- -- -- -- -- -- --  -- -- -- -- -- -- -- --
0000:    1A 20 15 1A 2A 15 1A  EA 19 1A 35 11 00         . ..*.....5..  
```

#### Opcodes

```
  0: 0x0001 [0x1A] CALL_SUBROUTINE(address=0x1520)
  1: 0x0004 [0x1A] CALL_SUBROUTINE(address=0x152A)
  2: 0x0007 [0x1A] CALL_SUBROUTINE(address=0x19EA)
  3: 0x000A [0x1A] CALL_SUBROUTINE(address=0x1135)
  4: 0x000D [0x00] END_REQSTACK()
```

### Event 65535.2

#### Metadata

| Field        | Value   |
|--------------|---------|
| Entrypoint   | 0x000E  |
| Data Size    | 9 bytes |
| Instructions | 3       |

```
      00 01 02 03 04 05 06 07  08 09 0A 0B 0C 0D 0E 0F
      -- -- -- -- -- -- -- --  -- -- -- -- -- -- -- --
0000:                                            1A D5                ..
0010: 00 03 02 10 01 00 00                              .......         
```

#### Opcodes

```
  0: 0x000E [0x1A] CALL_SUBROUTINE(address=0x00D5)
  1: 0x0011 [0x03] Work_Zone[2] = ExtData[1]->WorkLocal[1]
  2: 0x0016 [0x00] END_REQSTACK()
```

### Event 20000

#### Metadata

| Field        | Value   |
|--------------|---------|
| Entrypoint   | 0x0017  |
| Data Size    | 1 bytes |
| Instructions | 1       |

```
      00 01 02 03 04 05 06 07  08 09 0A 0B 0C 0D 0E 0F
      -- -- -- -- -- -- -- --  -- -- -- -- -- -- -- --
0010:                      00                                  .        
```

#### Opcodes

```
  0: 0x0017 [0x00] END_REQSTACK()
```

### Event 65535.3

#### Metadata

| Field        | Value    |
|--------------|----------|
| Entrypoint   | 0x0018   |
| Data Size    | 30 bytes |
| Instructions | 5        |

```
      00 01 02 03 04 05 06 07  08 09 0A 0B 0C 0D 0E 0F
      -- -- -- -- -- -- -- --  -- -- -- -- -- -- -- --
0010:                          1A 2A 15 0B 0B 00 0C 00          .*......
0020: 10 B6 0B 0B 00 00 10 00  80 01 80 01 80 01 80 01  ................
0030: 80 00 80 00 80 00                                 ......          
```

#### Opcodes

```
  0: 0x0018 [0x1A] CALL_SUBROUTINE(address=0x152A)
  1: 0x001B [0x0B] ExtData[1]->WorkLocal[11]++
  2: 0x001E [0x0C] Work_Zone[0]--
  3: 0x0021 [0xB6] ENTITY_APPEARANCE_HANDLER(case=Full entity look, race=ExtData[1]->WorkLocal[11], hair=Work_Zone[0], head=0*, body=28*, hands=28*, legs=28*, feet=28*, main=0*, sub=0*)
  4: 0x0035 [0x00] END_REQSTACK()
```

### Event 10049

#### Metadata

| Field        | Value   |
|--------------|---------|
| Entrypoint   | 0x0036  |
| Data Size    | 1 bytes |
| Instructions | 1       |

```
      00 01 02 03 04 05 06 07  08 09 0A 0B 0C 0D 0E 0F
      -- -- -- -- -- -- -- --  -- -- -- -- -- -- -- --
0030:                   00                                    .         
```

#### Opcodes

```
  0: 0x0036 [0x00] END_REQSTACK()
```

### Event 65535.4

#### Metadata

| Field        | Value    |
|--------------|----------|
| Entrypoint   | 0x0037   |
| Data Size    | 10 bytes |
| Instructions | 2        |

```
      00 01 02 03 04 05 06 07  08 09 0A 0B 0C 0D 0E 0F
      -- -- -- -- -- -- -- --  -- -- -- -- -- -- -- --
0030:                      37  02 80 03 80 04 80 05 80         7........
0040: 00                                                .               
```

#### Opcodes

```
  0: 0x0037 [0x37] UPDATE_EVENT_POSITION_AND_DIR: x=20.851*, z=-5.510*, y=-0.111*, direction=308.2째*
  1: 0x0040 [0x00] END_REQSTACK()
```

### Event 65535.5

#### Metadata

| Field        | Value    |
|--------------|----------|
| Entrypoint   | 0x0041   |
| Data Size    | 14 bytes |
| Instructions | 4        |

```
      00 01 02 03 04 05 06 07  08 09 0A 0B 0C 0D 0E 0F
      -- -- -- -- -- -- -- --  -- -- -- -- -- -- -- --
0040:    32 06 80 1F 00 07 80  08 80 09 80 1F 01 00      2............. 
```

#### Opcodes

```
  0: 0x0041 [0x32] ExtData[1]->MainSpeed = 13* * 0.1
  1: 0x0044 [0x1F] MOVE_ENTITY: EventEntity moves to X=22.547*, Z=3.563*, Y=-0.100*
  2: 0x004C [0x1F] MOVE_ENTITY: Update entity position (mode=1)
  3: 0x004E [0x00] END_REQSTACK()
```

### Event 10050

#### Metadata

| Field        | Value   |
|--------------|---------|
| Entrypoint   | 0x004F  |
| Data Size    | 1 bytes |
| Instructions | 1       |

```
      00 01 02 03 04 05 06 07  08 09 0A 0B 0C 0D 0E 0F
      -- -- -- -- -- -- -- --  -- -- -- -- -- -- -- --
0040:                                               00                 .
```

#### Opcodes

```
  0: 0x004F [0x00] END_REQSTACK()
```

### Event 65535.6

#### Metadata

| Field        | Value    |
|--------------|----------|
| Entrypoint   | 0x0050   |
| Data Size    | 23 bytes |
| Instructions | 5        |

```
      00 01 02 03 04 05 06 07  08 09 0A 0B 0C 0D 0E 0F
      -- -- -- -- -- -- -- --  -- -- -- -- -- -- -- --
0050: 37 0A 80 0B 80 04 80 0C  80 32 06 80 1F 00 0D 80  7........2......
0060: 0E 80 04 80 1F 01 00                              .......         
```

#### Opcodes

```
  0: 0x0050 [0x37] UPDATE_EVENT_POSITION_AND_DIR: x=15.269*, z=-4.091*, y=-0.111*, direction=8.8째*
  1: 0x0059 [0x32] ExtData[1]->MainSpeed = 13* * 0.1
  2: 0x005C [0x1F] MOVE_ENTITY: EventEntity moves to X=18.078*, Z=-5.711*, Y=-0.111*
  3: 0x0064 [0x1F] MOVE_ENTITY: Update entity position (mode=1)
  4: 0x0066 [0x00] END_REQSTACK()
```

### Event 10051

#### Metadata

| Field        | Value   |
|--------------|---------|
| Entrypoint   | 0x0067  |
| Data Size    | 1 bytes |
| Instructions | 1       |

```
      00 01 02 03 04 05 06 07  08 09 0A 0B 0C 0D 0E 0F
      -- -- -- -- -- -- -- --  -- -- -- -- -- -- -- --
0060:                      00                                  .        
```

#### Opcodes

```
  0: 0x0067 [0x00] END_REQSTACK()
```

### Event 65535.7

#### Metadata

| Field        | Value    |
|--------------|----------|
| Entrypoint   | 0x0068   |
| Data Size    | 23 bytes |
| Instructions | 5        |

```
      00 01 02 03 04 05 06 07  08 09 0A 0B 0C 0D 0E 0F
      -- -- -- -- -- -- -- --  -- -- -- -- -- -- -- --
0060:                          37 0F 80 10 80 09 80 11          7.......
0070: 80 32 06 80 1F 00 12 80  13 80 04 80 1F 01 00     .2............. 
```

#### Opcodes

```
  0: 0x0068 [0x37] UPDATE_EVENT_POSITION_AND_DIR: x=22.137*, z=-1.660*, y=-0.100*, direction=123.7째*
  1: 0x0071 [0x32] ExtData[1]->MainSpeed = 13* * 0.1
  2: 0x0074 [0x1F] MOVE_ENTITY: EventEntity moves to X=20.530*, Z=-4.526*, Y=-0.111*
  3: 0x007C [0x1F] MOVE_ENTITY: Update entity position (mode=1)
  4: 0x007E [0x00] END_REQSTACK()
```

### Event 65535.8

#### Metadata

| Field        | Value    |
|--------------|----------|
| Entrypoint   | 0x007F   |
| Data Size    | 14 bytes |
| Instructions | 4        |

```
      00 01 02 03 04 05 06 07  08 09 0A 0B 0C 0D 0E 0F
      -- -- -- -- -- -- -- --  -- -- -- -- -- -- -- --
0070:                                               32                 2
0080: 06 80 1F 00 14 80 15 80  04 80 1F 01 00           .............   
```

#### Opcodes

```
  0: 0x007F [0x32] ExtData[1]->MainSpeed = 13* * 0.1
  1: 0x0082 [0x1F] MOVE_ENTITY: EventEntity moves to X=16.709*, Z=-3.715*, Y=-0.111*
  2: 0x008A [0x1F] MOVE_ENTITY: Update entity position (mode=1)
  3: 0x008C [0x00] END_REQSTACK()
```

### Event 65535.9

#### Metadata

| Field        | Value    |
|--------------|----------|
| Entrypoint   | 0x008D   |
| Data Size    | 14 bytes |
| Instructions | 4        |

```
      00 01 02 03 04 05 06 07  08 09 0A 0B 0C 0D 0E 0F
      -- -- -- -- -- -- -- --  -- -- -- -- -- -- -- --
0080:                                         32 06 80               2..
0090: 1F 00 16 80 17 80 00 80  1F 01 00                 ...........     
```

#### Opcodes

```
  0: 0x008D [0x32] ExtData[1]->MainSpeed = 13* * 0.1
  1: 0x0090 [0x1F] MOVE_ENTITY: EventEntity moves to X=1.129*, Z=3.937*, Y=0.000*
  2: 0x0098 [0x1F] MOVE_ENTITY: Update entity position (mode=1)
  3: 0x009A [0x00] END_REQSTACK()
```

### Event 65535.10

#### Metadata

| Field        | Value    |
|--------------|----------|
| Entrypoint   | 0x009B   |
| Data Size    | 10 bytes |
| Instructions | 2        |

```
      00 01 02 03 04 05 06 07  08 09 0A 0B 0C 0D 0E 0F
      -- -- -- -- -- -- -- --  -- -- -- -- -- -- -- --
0090:                                   37 18 80 19 80             7....
00A0: 1A 80 1B 80 00                                    .....           
```

#### Opcodes

```
  0: 0x009B [0x37] UPDATE_EVENT_POSITION_AND_DIR: x=-57.305*, z=-72.752*, y=5.999*, direction=128.8째*
  1: 0x00A4 [0x00] END_REQSTACK()
```

### Event 65535.11

#### Metadata

| Field        | Value    |
|--------------|----------|
| Entrypoint   | 0x00A5   |
| Data Size    | 14 bytes |
| Instructions | 4        |

```
      00 01 02 03 04 05 06 07  08 09 0A 0B 0C 0D 0E 0F
      -- -- -- -- -- -- -- --  -- -- -- -- -- -- -- --
00A0:                32 06 80  1F 00 1C 80 1D 80 1A 80       2..........
00B0: 1F 01 00                                          ...             
```

#### Opcodes

```
  0: 0x00A5 [0x32] ExtData[1]->MainSpeed = 13* * 0.1
  1: 0x00A8 [0x1F] MOVE_ENTITY: EventEntity moves to X=-59.210*, Z=-71.587*, Y=5.999*
  2: 0x00B0 [0x1F] MOVE_ENTITY: Update entity position (mode=1)
  3: 0x00B2 [0x00] END_REQSTACK()
```

### Event 65535.12

#### Metadata

| Field        | Value    |
|--------------|----------|
| Entrypoint   | 0x00B3   |
| Data Size    | 14 bytes |
| Instructions | 4        |

```
      00 01 02 03 04 05 06 07  08 09 0A 0B 0C 0D 0E 0F
      -- -- -- -- -- -- -- --  -- -- -- -- -- -- -- --
00B0:          32 06 80 1F 00  18 80 19 80 1A 80 1F 01     2............
00C0: 00                                                .               
```

#### Opcodes

```
  0: 0x00B3 [0x32] ExtData[1]->MainSpeed = 13* * 0.1
  1: 0x00B6 [0x1F] MOVE_ENTITY: EventEntity moves to X=-57.305*, Z=-72.752*, Y=5.999*
  2: 0x00BE [0x1F] MOVE_ENTITY: Update entity position (mode=1)
  3: 0x00C0 [0x00] END_REQSTACK()
```

### Event 65535.13

#### Metadata

| Field        | Value    |
|--------------|----------|
| Entrypoint   | 0x00C1   |
| Data Size    | 14 bytes |
| Instructions | 4        |

```
      00 01 02 03 04 05 06 07  08 09 0A 0B 0C 0D 0E 0F
      -- -- -- -- -- -- -- --  -- -- -- -- -- -- -- --
00C0:    32 06 80 1F 00 1E 80  1F 80 1A 80 1F 01 00      2............. 
```

#### Opcodes

```
  0: 0x00C1 [0x32] ExtData[1]->MainSpeed = 13* * 0.1
  1: 0x00C4 [0x1F] MOVE_ENTITY: EventEntity moves to X=-44.126*, Z=-62.880*, Y=5.999*
  2: 0x00CC [0x1F] MOVE_ENTITY: Update entity position (mode=1)
  3: 0x00CE [0x00] END_REQSTACK()
```

### Event 65535.14

#### Metadata

| Field        | Value   |
|--------------|---------|
| Entrypoint   | 0x00CF  |
| Data Size    | 3 bytes |
| Instructions | 2       |

```
      00 01 02 03 04 05 06 07  08 09 0A 0B 0C 0D 0E 0F
      -- -- -- -- -- -- -- --  -- -- -- -- -- -- -- --
00C0:                                               33                 3
00D0: 01 00                                             ..              
```

#### Opcodes

```
  0: 0x00CF [0x33] EventEntity->Render.Flags0 |= 0x200000 // Bit 21 (flag=0x01)
  1: 0x00D1 [0x00] END_REQSTACK()
```

### Event 65535.15

#### Metadata

| Field        | Value       |
|--------------|-------------|
| Entrypoint   | 0x00D2      |
| Data Size    | 18526 bytes |
| Instructions | 2           |

```
      00 01 02 03 04 05 06 07  08 09 0A 0B 0C 0D 0E 0F
      -- -- -- -- -- -- -- --  -- -- -- -- -- -- -- --
00D0:       33 00 00 03 02 00  00 80 1A 20 15 1A 2A 15    3........ ..*.
00E0: 02 0B 00 00 80 80 E3 01  02 01 00 00 80 80 07 01  ................
00F0: B4 00 02 00 46 65 6C 69  7A 00 00 00 00 00 00 00  ....Feliz.......
0100: 00 00 00 00 01 E0 01 02  01 00 20 80 80 26 01 B4  .......... ..&..
0110: 00 02 00 46 65 72 64 69  6E 61 6E 64 00 00 00 00  ...Ferdinand....
0120: 00 00 00 01 E0 01 02 01  00 21 80 80 45 01 B4 00  .........!..E...
0130: 02 00 47 75 6E 6E 61 72  00 00 00 00 00 00 00 00  ..Gunnar........
0140: 00 00 01 E0 01 02 01 00  22 80 80 64 01 B4 00 02  ........"..d....
0150: 00 4D 61 73 73 69 6D 6F  00 00 00 00 00 00 00 00  .Massimo........
0160: 00 01 E0 01 02 01 00 23  80 80 83 01 B4 00 02 00  .......#........
0170: 4F 6C 64 72 69 63 68 00  00 00 00 00 00 00 00 00  Oldrich.........
0180: 01 E0 01 02 01 00 24 80  80 A2 01 B4 00 02 00 53  ......$........S
0190: 69 65 67 77 61 72 64 00  00 00 00 00 00 00 00 01  iegward.........
01A0: E0 01 02 01 00 25 80 80  C1 01 B4 00 02 00 54 68  .....%........Th
01B0: 65 6F 62 61 6C 64 00 00  00 00 00 00 00 00 01 E0  eobald..........
01C0: 01 02 01 00 26 80 80 E0  01 B4 00 02 00 5A 65 6E  ....&........Zen
01D0: 6A 69 00 00 00 00 00 00  00 00 00 00 00 01 E0 01  ji..............
01E0: 01 F8 08 02 0B 00 20 80  80 E6 02 02 01 00 00 80  ...... .........
01F0: 80 0A 02 B4 00 02 00 41  6D 65 72 69 74 61 00 00  .......Amerita..
0200: 00 00 00 00 00 00 00 01  E3 02 02 01 00 20 80 80  ............. ..
0210: 29 02 B4 00 02 00 42 65  61 74 72 69 63 65 00 00  ).....Beatrice..
0220: 00 00 00 00 00 00 01 E3  02 02 01 00 21 80 80 48  ............!..H
0230: 02 B4 00 02 00 48 65 6E  72 69 65 74 74 61 00 00  .....Henrietta..
0240: 00 00 00 00 00 01 E3 02  02 01 00 22 80 80 67 02  ..........."..g.
0250: B4 00 02 00 4A 65 73 69  6D 61 65 00 00 00 00 00  ....Jesimae.....
0260: 00 00 00 00 01 E3 02 02  01 00 23 80 80 86 02 B4  ..........#.....
0270: 00 02 00 4B 61 72 79 6E  00 00 00 00 00 00 00 00  ...Karyn........
0280: 00 00 00 01 E3 02 02 01  00 24 80 80 A5 02 B4 00  .........$......
0290: 02 00 4E 61 6E 61 6B 6F  00 00 00 00 00 00 00 00  ..Nanako........
02A0: 00 00 01 E3 02 02 01 00  25 80 80 C4 02 B4 00 02  ........%.......
02B0: 00 53 68 61 72 6C 65 6E  65 00 00 00 00 00 00 00  .Sharlene.......
02C0: 00 01 E3 02 02 01 00 26  80 80 E3 02 B4 00 02 00  .......&........
02D0: 53 69 65 67 68 69 6C 64  65 00 00 00 00 00 00 00  Sieghilde.......
02E0: 01 E3 02 01 F8 08 02 0B  00 21 80 80 E9 03 02 01  .........!......
02F0: 00 00 80 80 0D 03 B4 00  02 00 43 68 61 6E 61 6E  ..........Chanan
0300: 64 69 74 00 00 00 00 00  00 00 01 E6 03 02 01 00  dit.............
0310: 20 80 80 2C 03 B4 00 02  00 44 65 75 6C 6D 61 65   ..,.....Deulmae
0320: 75 78 00 00 00 00 00 00  00 01 E6 03 02 01 00 21  ux.............!
0330: 80 80 4B 03 B4 00 02 00  44 65 6D 72 65 73 69 6E  ..K.....Demresin
0340: 61 75 78 00 00 00 00 00  01 E6 03 02 01 00 22 80  aux...........".
0350: 80 6A 03 B4 00 02 00 45  70 68 65 61 6C 67 61 75  .j.....Ephealgau
0360: 78 00 00 00 00 00 00 01  E6 03 02 01 00 23 80 80  x............#..
0370: 89 03 B4 00 02 00 47 61  75 6C 64 65 76 61 6C 00  ......Gauldeval.
0380: 00 00 00 00 00 00 01 E6  03 02 01 00 24 80 80 A8  ............$...
0390: 03 B4 00 02 00 47 72 61  75 66 66 65 6D 61 72 74  .....Grauffemart
03A0: 00 00 00 00 00 01 E6 03  02 01 00 25 80 80 C7 03  ...........%....
03B0: B4 00 02 00 4D 69 67 61  69 66 6F 6E 67 75 74 00  ....Migaifongut.
03C0: 00 00 00 00 01 E6 03 02  01 00 26 80 80 E6 03 B4  ..........&.....
03D0: 00 02 00 52 6F 6D 69 64  69 61 6E 74 00 00 00 00  ...Romidiant....
03E0: 00 00 00 01 E6 03 01 F8  08 02 0B 00 22 80 80 EC  ............"...
03F0: 04 02 01 00 00 80 80 10  04 B4 00 02 00 41 72 6D  .............Arm
0400: 69 74 74 69 65 00 00 00  00 00 00 00 00 01 E9 04  ittie...........
0410: 02 01 00 20 80 80 2F 04  B4 00 02 00 43 61 64 65  ... ../.....Cade
0420: 70 75 72 65 00 00 00 00  00 00 00 00 01 E9 04 02  pure............
0430: 01 00 21 80 80 4E 04 B4  00 02 00 43 6C 65 61 72  ..!..N.....Clear
0440: 69 74 65 00 00 00 00 00  00 00 00 01 E9 04 02 01  ite.............
0450: 00 22 80 80 6D 04 B4 00  02 00 45 70 69 6C 6C 65  ."..m.....Epille
0460: 76 65 00 00 00 00 00 00  00 00 01 E9 04 02 01 00  ve..............
0470: 23 80 80 8C 04 B4 00 02  00 4C 69 61 62 65 6C 6C  #........Liabell
0480: 65 00 00 00 00 00 00 00  00 01 E9 04 02 01 00 24  e..............$
0490: 80 80 AB 04 B4 00 02 00  4E 61 75 74 68 69 6D 61  ........Nauthima
04A0: 00 00 00 00 00 00 00 00  01 E9 04 02 01 00 25 80  ..............%.
04B0: 80 CA 04 B4 00 02 00 52  61 64 69 6C 6C 65 00 00  .......Radille..
04C0: 00 00 00 00 00 00 00 01  E9 04 02 01 00 26 80 80  .............&..
04D0: E9 04 B4 00 02 00 56 69  6D 65 63 68 75 65 00 00  ......Vimechue..
04E0: 00 00 00 00 00 00 01 E9  04 01 F8 08 02 0B 00 23  ...............#
04F0: 80 80 EF 05 02 01 00 00  80 80 13 05 B4 00 02 00  ................
0500: 42 61 6C 75 2D 46 61 6C  75 00 00 00 00 00 00 00  Balu-Falu.......
0510: 01 EC 05 02 01 00 20 80  80 32 05 B4 00 02 00 42  ...... ..2.....B
0520: 75 72 67 2D 4C 61 64 61  72 67 00 00 00 00 00 01  urg-Ladarg......
0530: EC 05 02 01 00 21 80 80  51 05 B4 00 02 00 45 68  .....!..Q.....Eh
0540: 67 6F 2D 52 79 75 68 67  6F 00 00 00 00 00 01 EC  go-Ryuhgo.......
0550: 05 02 01 00 22 80 80 70  05 B4 00 02 00 4B 6F 6C  ...."..p.....Kol
0560: 75 69 2D 50 65 6C 75 69  00 00 00 00 00 01 EC 05  ui-Pelui........
0570: 02 01 00 23 80 80 8F 05  B4 00 02 00 4E 6F 6B 75  ...#........Noku
0580: 6D 2D 41 6B 6B 75 6D 00  00 00 00 00 01 EC 05 02  m-Akkum.........
0590: 01 00 24 80 80 AE 05 B4  00 02 00 53 61 76 75 6C  ..$........Savul
05A0: 2D 4B 69 76 75 6C 00 00  00 00 00 01 EC 05 02 01  -Kivul..........
05B0: 00 25 80 80 CD 05 B4 00  02 00 56 69 6E 6A 61 2D  .%........Vinja-
05C0: 4B 61 6E 6A 61 00 00 00  00 00 01 EC 05 02 01 00  Kanja...........
05D0: 26 80 80 EC 05 B4 00 02  00 59 61 72 67 61 2D 55  &........Yarga-U
05E0: 6D 69 67 61 00 00 00 00  00 01 EC 05 01 F8 08 02  miga............
05F0: 0B 00 24 80 80 F2 06 02  01 00 00 80 80 16 06 B4  ..$.............
0600: 00 02 00 43 75 70 61 70  61 00 00 00 00 00 00 00  ...Cupapa.......
0610: 00 00 00 01 EF 06 02 01  00 20 80 80 35 06 B4 00  ......... ..5...
0620: 02 00 4A 61 6A 75 6A 75  00 00 00 00 00 00 00 00  ..Jajuju........
0630: 00 00 01 EF 06 02 01 00  21 80 80 54 06 B4 00 02  ........!..T....
0640: 00 4B 61 6C 6F 6B 6F 6B  6F 00 00 00 00 00 00 00  .Kalokoko.......
0650: 00 01 EF 06 02 01 00 22  80 80 73 06 B4 00 02 00  ......."..s.....
0660: 4D 61 68 6F 79 61 79 61  00 00 00 00 00 00 00 00  Mahoyaya........
0670: 01 EF 06 02 01 00 23 80  80 92 06 B4 00 02 00 50  ......#........P
0680: 61 6B 75 72 61 72 61 00  00 00 00 00 00 00 00 01  akurara.........
0690: EF 06 02 01 00 24 80 80  B1 06 B4 00 02 00 52 69  .....$........Ri
06A0: 70 6F 6B 65 6B 65 00 00  00 00 00 00 00 00 01 EF  pokeke..........
06B0: 06 02 01 00 25 80 80 D0  06 B4 00 02 00 59 61 77  ....%........Yaw
06C0: 61 77 61 00 00 00 00 00  00 00 00 00 00 01 EF 06  awa.............
06D0: 02 01 00 26 80 80 EF 06  B4 00 02 00 59 75 66 61  ...&........Yufa
06E0: 66 61 00 00 00 00 00 00  00 00 00 00 01 EF 06 01  fa..............
06F0: F8 08 02 0B 00 25 80 80  F5 07 02 01 00 00 80 80  .....%..........
0700: 19 07 B4 00 02 00 46 68  69 67 00 00 00 00 00 00  ......Fhig......
0710: 00 00 00 00 00 00 01 F2  07 02 01 00 20 80 80 38  ............ ..8
0720: 07 B4 00 02 00 4B 68 75  6D 61 00 00 00 00 00 00  .....Khuma......
0730: 00 00 00 00 00 01 F2 07  02 01 00 21 80 80 57 07  ...........!..W.
0740: B4 00 02 00 50 69 6D 79  00 00 00 00 00 00 00 00  ....Pimy........
0750: 00 00 00 00 01 F2 07 02  01 00 22 80 80 76 07 B4  .........."..v..
0760: 00 02 00 52 61 6B 61 00  00 00 00 00 00 00 00 00  ...Raka.........
0770: 00 00 00 01 F2 07 02 01  00 23 80 80 95 07 B4 00  .........#......
0780: 02 00 53 61 68 79 75 00  00 00 00 00 00 00 00 00  ..Sahyu.........
0790: 00 00 01 F2 07 02 01 00  24 80 80 B4 07 B4 00 02  ........$.......
07A0: 00 53 75 66 68 69 00 00  00 00 00 00 00 00 00 00  .Sufhi..........
07B0: 00 01 F2 07 02 01 00 25  80 80 D3 07 B4 00 02 00  .......%........
07C0: 54 73 75 69 6D 00 00 00  00 00 00 00 00 00 00 00  Tsuim...........
07D0: 01 F2 07 02 01 00 26 80  80 F2 07 B4 00 02 00 59  ......&........Y
07E0: 6F 6C 69 00 00 00 00 00  00 00 00 00 00 00 00 01  oli.............
07F0: F2 07 01 F8 08 02 0B 00  26 80 80 F8 08 02 01 00  ........&.......
0800: 00 80 80 1C 08 B4 00 02  00 44 75 72 69 62 00 00  .........Durib..
0810: 00 00 00 00 00 00 00 00  00 01 F5 08 02 01 00 20  ............... 
0820: 80 80 3B 08 B4 00 02 00  44 7A 61 70 69 77 61 00  ..;.....Dzapiwa.
0830: 00 00 00 00 00 00 00 00  01 F5 08 02 01 00 21 80  ..............!.
0840: 80 5A 08 B4 00 02 00 4A  75 67 6F 77 61 00 00 00  .Z.....Jugowa...
0850: 00 00 00 00 00 00 00 01  F5 08 02 01 00 22 80 80  ............."..
0860: 79 08 B4 00 02 00 4D 75  67 69 64 6F 00 00 00 00  y.....Mugido....
0870: 00 00 00 00 00 00 01 F5  08 02 01 00 23 80 80 98  ............#...
0880: 08 B4 00 02 00 56 6F 6C  64 61 69 00 00 00 00 00  .....Voldai.....
0890: 00 00 00 00 00 01 F5 08  02 01 00 24 80 80 B7 08  ...........$....
08A0: B4 00 02 00 57 61 67 77  65 69 00 00 00 00 00 00  ....Wagwei......
08B0: 00 00 00 00 01 F5 08 02  01 00 25 80 80 D6 08 B4  ..........%.....
08C0: 00 02 00 5A 61 79 61 67  00 00 00 00 00 00 00 00  ...Zayag........
08D0: 00 00 00 01 F5 08 02 01  00 26 80 80 F5 08 B4 00  .........&......
08E0: 02 00 5A 6F 6C 64 6F 66  00 00 00 00 00 00 00 00  ..Zoldof........
08F0: 00 00 01 F5 08 01 F8 08  02 02 00 00 80 01 04 09  ................
0900: B5 00 02 00 1B 03 02 00  00 80 1A 20 15 1A 2A 15  ........... ..*.
0910: 02 0B 00 00 80 80 13 0A  02 01 00 00 80 80 37 09  ..............7.
0920: B4 00 02 00 46 65 6C 69  7A 00 00 00 00 00 00 00  ....Feliz.......
0930: 00 00 00 00 01 10 0A 02  01 00 20 80 80 56 09 B4  .......... ..V..
0940: 00 02 00 46 65 72 64 69  6E 61 6E 64 00 00 00 00  ...Ferdinand....
0950: 00 00 00 01 10 0A 02 01  00 21 80 80 75 09 B4 00  .........!..u...
0960: 02 00 47 75 6E 6E 61 72  00 00 00 00 00 00 00 00  ..Gunnar........
0970: 00 00 01 10 0A 02 01 00  22 80 80 94 09 B4 00 02  ........".......
0980: 00 4D 61 73 73 69 6D 6F  00 00 00 00 00 00 00 00  .Massimo........
0990: 00 01 10 0A 02 01 00 23  80 80 B3 09 B4 00 02 00  .......#........
09A0: 4F 6C 64 72 69 63 68 00  00 00 00 00 00 00 00 00  Oldrich.........
09B0: 01 10 0A 02 01 00 24 80  80 D2 09 B4 00 02 00 53  ......$........S
09C0: 69 65 67 77 61 72 64 00  00 00 00 00 00 00 00 01  iegward.........
09D0: 10 0A 02 01 00 25 80 80  F1 09 B4 00 02 00 54 68  .....%........Th
09E0: 65 6F 62 61 6C 64 00 00  00 00 00 00 00 00 01 10  eobald..........
09F0: 0A 02 01 00 26 80 80 10  0A B4 00 02 00 5A 65 6E  ....&........Zen
0A00: 6A 69 00 00 00 00 00 00  00 00 00 00 00 01 10 0A  ji..............
0A10: 01 28 11 02 0B 00 20 80  80 16 0B 02 01 00 00 80  .(.... .........
0A20: 80 3A 0A B4 00 02 00 41  6D 65 72 69 74 61 00 00  .:.....Amerita..
0A30: 00 00 00 00 00 00 00 01  13 0B 02 01 00 20 80 80  ............. ..
0A40: 59 0A B4 00 02 00 42 65  61 74 72 69 63 65 00 00  Y.....Beatrice..
0A50: 00 00 00 00 00 00 01 13  0B 02 01 00 21 80 80 78  ............!..x
0A60: 0A B4 00 02 00 48 65 6E  72 69 65 74 74 61 00 00  .....Henrietta..
0A70: 00 00 00 00 00 01 13 0B  02 01 00 22 80 80 97 0A  ..........."....
0A80: B4 00 02 00 4A 65 73 69  6D 61 65 00 00 00 00 00  ....Jesimae.....
0A90: 00 00 00 00 01 13 0B 02  01 00 23 80 80 B6 0A B4  ..........#.....
0AA0: 00 02 00 4B 61 72 79 6E  00 00 00 00 00 00 00 00  ...Karyn........
0AB0: 00 00 00 01 13 0B 02 01  00 24 80 80 D5 0A B4 00  .........$......
0AC0: 02 00 4E 61 6E 61 6B 6F  00 00 00 00 00 00 00 00  ..Nanako........
0AD0: 00 00 01 13 0B 02 01 00  25 80 80 F4 0A B4 00 02  ........%.......
0AE0: 00 53 68 61 72 6C 65 6E  65 00 00 00 00 00 00 00  .Sharlene.......
0AF0: 00 01 13 0B 02 01 00 26  80 80 13 0B B4 00 02 00  .......&........
0B00: 53 69 65 67 68 69 6C 64  65 00 00 00 00 00 00 00  Sieghilde.......
0B10: 01 13 0B 01 28 11 02 0B  00 21 80 80 19 0C 02 01  ....(....!......
0B20: 00 00 80 80 3D 0B B4 00  02 00 43 68 61 6E 61 6E  ....=.....Chanan
0B30: 64 69 74 00 00 00 00 00  00 00 01 16 0C 02 01 00  dit.............
0B40: 20 80 80 5C 0B B4 00 02  00 44 65 75 6C 6D 61 65   ..\.....Deulmae
0B50: 75 78 00 00 00 00 00 00  00 01 16 0C 02 01 00 21  ux.............!
0B60: 80 80 7B 0B B4 00 02 00  44 65 6D 72 65 73 69 6E  ..{.....Demresin
0B70: 61 75 78 00 00 00 00 00  01 16 0C 02 01 00 22 80  aux...........".
0B80: 80 9A 0B B4 00 02 00 45  70 68 65 61 6C 67 61 75  .......Ephealgau
0B90: 78 00 00 00 00 00 00 01  16 0C 02 01 00 23 80 80  x............#..
0BA0: B9 0B B4 00 02 00 47 61  75 6C 64 65 76 61 6C 00  ......Gauldeval.
0BB0: 00 00 00 00 00 00 01 16  0C 02 01 00 24 80 80 D8  ............$...
0BC0: 0B B4 00 02 00 47 72 61  75 66 66 65 6D 61 72 74  .....Grauffemart
0BD0: 00 00 00 00 00 01 16 0C  02 01 00 25 80 80 F7 0B  ...........%....
0BE0: B4 00 02 00 4D 69 67 61  69 66 6F 6E 67 75 74 00  ....Migaifongut.
0BF0: 00 00 00 00 01 16 0C 02  01 00 26 80 80 16 0C B4  ..........&.....
0C00: 00 02 00 52 6F 6D 69 64  69 61 6E 74 00 00 00 00  ...Romidiant....
0C10: 00 00 00 01 16 0C 01 28  11 02 0B 00 22 80 80 1C  .......(...."...
0C20: 0D 02 01 00 00 80 80 40  0C B4 00 02 00 41 72 6D  .......@.....Arm
0C30: 69 74 74 69 65 00 00 00  00 00 00 00 00 01 19 0D  ittie...........
0C40: 02 01 00 20 80 80 5F 0C  B4 00 02 00 43 61 64 65  ... .._.....Cade
0C50: 70 75 72 65 00 00 00 00  00 00 00 00 01 19 0D 02  pure............
0C60: 01 00 21 80 80 7E 0C B4  00 02 00 43 6C 65 61 72  ..!..~.....Clear
0C70: 69 74 65 00 00 00 00 00  00 00 00 01 19 0D 02 01  ite.............
0C80: 00 22 80 80 9D 0C B4 00  02 00 45 70 69 6C 6C 65  ."........Epille
0C90: 76 65 00 00 00 00 00 00  00 00 01 19 0D 02 01 00  ve..............
0CA0: 23 80 80 BC 0C B4 00 02  00 4C 69 61 62 65 6C 6C  #........Liabell
0CB0: 65 00 00 00 00 00 00 00  00 01 19 0D 02 01 00 24  e..............$
0CC0: 80 80 DB 0C B4 00 02 00  4E 61 75 74 68 69 6D 61  ........Nauthima
0CD0: 00 00 00 00 00 00 00 00  01 19 0D 02 01 00 25 80  ..............%.
0CE0: 80 FA 0C B4 00 02 00 52  61 64 69 6C 6C 65 00 00  .......Radille..
0CF0: 00 00 00 00 00 00 00 01  19 0D 02 01 00 26 80 80  .............&..
0D00: 19 0D B4 00 02 00 56 69  6D 65 63 68 75 65 00 00  ......Vimechue..
0D10: 00 00 00 00 00 00 01 19  0D 01 28 11 02 0B 00 23  ..........(....#
0D20: 80 80 1F 0E 02 01 00 00  80 80 43 0D B4 00 02 00  ..........C.....
0D30: 42 61 6C 75 2D 46 61 6C  75 00 00 00 00 00 00 00  Balu-Falu.......
0D40: 01 1C 0E 02 01 00 20 80  80 62 0D B4 00 02 00 42  ...... ..b.....B
0D50: 75 72 67 2D 4C 61 64 61  72 67 00 00 00 00 00 01  urg-Ladarg......
0D60: 1C 0E 02 01 00 21 80 80  81 0D B4 00 02 00 45 68  .....!........Eh
0D70: 67 6F 2D 52 79 75 68 67  6F 00 00 00 00 00 01 1C  go-Ryuhgo.......
0D80: 0E 02 01 00 22 80 80 A0  0D B4 00 02 00 4B 6F 6C  ...."........Kol
0D90: 75 69 2D 50 65 6C 75 69  00 00 00 00 00 01 1C 0E  ui-Pelui........
0DA0: 02 01 00 23 80 80 BF 0D  B4 00 02 00 4E 6F 6B 75  ...#........Noku
0DB0: 6D 2D 41 6B 6B 75 6D 00  00 00 00 00 01 1C 0E 02  m-Akkum.........
0DC0: 01 00 24 80 80 DE 0D B4  00 02 00 53 61 76 75 6C  ..$........Savul
0DD0: 2D 4B 69 76 75 6C 00 00  00 00 00 01 1C 0E 02 01  -Kivul..........
0DE0: 00 25 80 80 FD 0D B4 00  02 00 56 69 6E 6A 61 2D  .%........Vinja-
0DF0: 4B 61 6E 6A 61 00 00 00  00 00 01 1C 0E 02 01 00  Kanja...........
0E00: 26 80 80 1C 0E B4 00 02  00 59 61 72 67 61 2D 55  &........Yarga-U
0E10: 6D 69 67 61 00 00 00 00  00 01 1C 0E 01 28 11 02  miga.........(..
0E20: 0B 00 24 80 80 22 0F 02  01 00 00 80 80 46 0E B4  ..$..".......F..
0E30: 00 02 00 43 75 70 61 70  61 00 00 00 00 00 00 00  ...Cupapa.......
0E40: 00 00 00 01 1F 0F 02 01  00 20 80 80 65 0E B4 00  ......... ..e...
0E50: 02 00 4A 61 6A 75 6A 75  00 00 00 00 00 00 00 00  ..Jajuju........
0E60: 00 00 01 1F 0F 02 01 00  21 80 80 84 0E B4 00 02  ........!.......
0E70: 00 4B 61 6C 6F 6B 6F 6B  6F 00 00 00 00 00 00 00  .Kalokoko.......
0E80: 00 01 1F 0F 02 01 00 22  80 80 A3 0E B4 00 02 00  ......."........
0E90: 4D 61 68 6F 79 61 79 61  00 00 00 00 00 00 00 00  Mahoyaya........
0EA0: 01 1F 0F 02 01 00 23 80  80 C2 0E B4 00 02 00 50  ......#........P
0EB0: 61 6B 75 72 61 72 61 00  00 00 00 00 00 00 00 01  akurara.........
0EC0: 1F 0F 02 01 00 24 80 80  E1 0E B4 00 02 00 52 69  .....$........Ri
0ED0: 70 6F 6B 65 6B 65 00 00  00 00 00 00 00 00 01 1F  pokeke..........
0EE0: 0F 02 01 00 25 80 80 00  0F B4 00 02 00 59 61 77  ....%........Yaw
0EF0: 61 77 61 00 00 00 00 00  00 00 00 00 00 01 1F 0F  awa.............
0F00: 02 01 00 26 80 80 1F 0F  B4 00 02 00 59 75 66 61  ...&........Yufa
0F10: 66 61 00 00 00 00 00 00  00 00 00 00 01 1F 0F 01  fa..............
0F20: 28 11 02 0B 00 25 80 80  25 10 02 01 00 00 80 80  (....%..%.......
0F30: 49 0F B4 00 02 00 46 68  69 67 00 00 00 00 00 00  I.....Fhig......
0F40: 00 00 00 00 00 00 01 22  10 02 01 00 20 80 80 68  .......".... ..h
0F50: 0F B4 00 02 00 4B 68 75  6D 61 00 00 00 00 00 00  .....Khuma......
0F60: 00 00 00 00 00 01 22 10  02 01 00 21 80 80 87 0F  ......"....!....
0F70: B4 00 02 00 50 69 6D 79  00 00 00 00 00 00 00 00  ....Pimy........
0F80: 00 00 00 00 01 22 10 02  01 00 22 80 80 A6 0F B4  ....."....".....
0F90: 00 02 00 52 61 6B 61 00  00 00 00 00 00 00 00 00  ...Raka.........
0FA0: 00 00 00 01 22 10 02 01  00 23 80 80 C5 0F B4 00  ...."....#......
0FB0: 02 00 53 61 68 79 75 00  00 00 00 00 00 00 00 00  ..Sahyu.........
0FC0: 00 00 01 22 10 02 01 00  24 80 80 E4 0F B4 00 02  ..."....$.......
0FD0: 00 53 75 66 68 69 00 00  00 00 00 00 00 00 00 00  .Sufhi..........
0FE0: 00 01 22 10 02 01 00 25  80 80 03 10 B4 00 02 00  .."....%........
0FF0: 54 73 75 69 6D 00 00 00  00 00 00 00 00 00 00 00  Tsuim...........
1000: 01 22 10 02 01 00 26 80  80 22 10 B4 00 02 00 59  ."....&..".....Y
1010: 6F 6C 69 00 00 00 00 00  00 00 00 00 00 00 00 01  oli.............
1020: 22 10 01 28 11 02 0B 00  26 80 80 28 11 02 01 00  "..(....&..(....
1030: 00 80 80 4C 10 B4 00 02  00 44 75 72 69 62 00 00  ...L.....Durib..
1040: 00 00 00 00 00 00 00 00  00 01 25 11 02 01 00 20  ..........%.... 
1050: 80 80 6B 10 B4 00 02 00  44 7A 61 70 69 77 61 00  ..k.....Dzapiwa.
1060: 00 00 00 00 00 00 00 00  01 25 11 02 01 00 21 80  .........%....!.
1070: 80 8A 10 B4 00 02 00 4A  75 67 6F 77 61 00 00 00  .......Jugowa...
1080: 00 00 00 00 00 00 00 01  25 11 02 01 00 22 80 80  ........%...."..
1090: A9 10 B4 00 02 00 4D 75  67 69 64 6F 00 00 00 00  ......Mugido....
10A0: 00 00 00 00 00 00 01 25  11 02 01 00 23 80 80 C8  .......%....#...
10B0: 10 B4 00 02 00 56 6F 6C  64 61 69 00 00 00 00 00  .....Voldai.....
10C0: 00 00 00 00 00 01 25 11  02 01 00 24 80 80 E7 10  ......%....$....
10D0: B4 00 02 00 57 61 67 77  65 69 00 00 00 00 00 00  ....Wagwei......
10E0: 00 00 00 00 01 25 11 02  01 00 25 80 80 06 11 B4  .....%....%.....
10F0: 00 02 00 5A 61 79 61 67  00 00 00 00 00 00 00 00  ...Zayag........
1100: 00 00 00 01 25 11 02 01  00 26 80 80 25 11 B4 00  ....%....&..%...
1110: 02 00 5A 6F 6C 64 6F 66  00 00 00 00 00 00 00 00  ..Zoldof........
1120: 00 00 01 25 11 01 28 11  02 02 00 00 80 01 34 11  ...%..(.......4.
1130: B5 00 02 00 1B 1A FB 14  02 09 00 00 80 02 00 13  ................
1140: 02 0B 00 00 80 80 78 11  02 09 00 20 80 80 57 11  ......x.... ..W.
1150: B6 0F 27 80 01 75 11 02  09 00 21 80 80 66 11 B6  ..'..u....!..f..
1160: 0F 0C 80 01 75 11 02 09  00 22 80 80 75 11 B6 0F  ....u...."..u...
1170: 28 80 01 75 11 01 00 13  02 0B 00 20 80 80 B0 11  (..u....... ....
1180: 02 09 00 20 80 80 8F 11  B6 0F 27 80 01 AD 11 02  ... ......'.....
1190: 09 00 21 80 80 9E 11 B6  0F 0C 80 01 AD 11 02 09  ..!.............
11A0: 00 22 80 80 AD 11 B6 0F  28 80 01 AD 11 01 00 13  ."......(.......
11B0: 02 0B 00 21 80 80 E8 11  02 09 00 20 80 80 C7 11  ...!....... ....
11C0: B6 0F 27 80 01 E5 11 02  09 00 21 80 80 D6 11 B6  ..'.......!.....
11D0: 0F 0C 80 01 E5 11 02 09  00 22 80 80 E5 11 B6 0F  ........."......
11E0: 28 80 01 E5 11 01 00 13  02 0B 00 22 80 80 20 12  (..........".. .
11F0: 02 09 00 20 80 80 FF 11  B6 0F 27 80 01 1D 12 02  ... ......'.....
1200: 09 00 21 80 80 0E 12 B6  0F 0C 80 01 1D 12 02 09  ..!.............
1210: 00 22 80 80 1D 12 B6 0F  28 80 01 1D 12 01 00 13  ."......(.......
1220: 02 0B 00 23 80 80 58 12  02 09 00 20 80 80 37 12  ...#..X.... ..7.
1230: B6 0F 29 80 01 55 12 02  09 00 21 80 80 46 12 B6  ..)..U....!..F..
1240: 0F 2A 80 01 55 12 02 09  00 22 80 80 55 12 B6 0F  .*..U...."..U...
1250: 2B 80 01 55 12 01 00 13  02 0B 00 24 80 80 90 12  +..U.......$....
1260: 02 09 00 20 80 80 6F 12  B6 0F 29 80 01 8D 12 02  ... ..o...).....
1270: 09 00 21 80 80 7E 12 B6  0F 2A 80 01 8D 12 02 09  ..!..~...*......
1280: 00 22 80 80 8D 12 B6 0F  2B 80 01 8D 12 01 00 13  ."......+.......
1290: 02 0B 00 25 80 80 C8 12  02 09 00 20 80 80 A7 12  ...%....... ....
12A0: B6 0F 2C 80 01 C5 12 02  09 00 21 80 80 B6 12 B6  ..,.......!.....
12B0: 0F 2D 80 01 C5 12 02 09  00 22 80 80 C5 12 B6 0F  .-......."......
12C0: 2E 80 01 C5 12 01 00 13  02 0B 00 26 80 80 00 13  ...........&....
12D0: 02 09 00 20 80 80 DF 12  B6 0F 2B 80 01 FD 12 02  ... ......+.....
12E0: 09 00 21 80 80 EE 12 B6  0F 2F 80 01 FD 12 02 09  ..!....../......
12F0: 00 22 80 80 FD 12 B6 0F  0C 80 01 FD 12 01 00 13  ."..............
1300: 0B 0B 00 B6 0B 0B 00 0C  00 0D 00 0E 00 0F 00 10  ................
1310: 00 11 00 00 80 00 80 1B  1A FB 14 02 09 00 00 80  ................
1320: 02 E3 14 02 0B 00 00 80  80 5B 13 02 09 00 20 80  .........[.... .
1330: 80 3A 13 B6 0F 27 80 01  58 13 02 09 00 21 80 80  .:...'..X....!..
1340: 49 13 B6 0F 0C 80 01 58  13 02 09 00 22 80 80 58  I......X...."..X
1350: 13 B6 0F 28 80 01 58 13  01 E3 14 02 0B 00 20 80  ...(..X....... .
1360: 80 93 13 02 09 00 20 80  80 72 13 B6 0F 27 80 01  ...... ..r...'..
1370: 90 13 02 09 00 21 80 80  81 13 B6 0F 0C 80 01 90  .....!..........
1380: 13 02 09 00 22 80 80 90  13 B6 0F 28 80 01 90 13  ...."......(....
1390: 01 E3 14 02 0B 00 21 80  80 CB 13 02 09 00 20 80  ......!....... .
13A0: 80 AA 13 B6 0F 27 80 01  C8 13 02 09 00 21 80 80  .....'.......!..
13B0: B9 13 B6 0F 0C 80 01 C8  13 02 09 00 22 80 80 C8  ............"...
13C0: 13 B6 0F 28 80 01 C8 13  01 E3 14 02 0B 00 22 80  ...(..........".
13D0: 80 03 14 02 09 00 20 80  80 E2 13 B6 0F 27 80 01  ...... ......'..
13E0: 00 14 02 09 00 21 80 80  F1 13 B6 0F 0C 80 01 00  .....!..........
13F0: 14 02 09 00 22 80 80 00  14 B6 0F 28 80 01 00 14  ...."......(....
1400: 01 E3 14 02 0B 00 23 80  80 3B 14 02 09 00 20 80  ......#..;.... .
1410: 80 1A 14 B6 0F 29 80 01  38 14 02 09 00 21 80 80  .....)..8....!..
1420: 29 14 B6 0F 2A 80 01 38  14 02 09 00 22 80 80 38  )...*..8...."..8
1430: 14 B6 0F 2B 80 01 38 14  01 E3 14 02 0B 00 24 80  ...+..8.......$.
1440: 80 73 14 02 09 00 20 80  80 52 14 B6 0F 29 80 01  .s.... ..R...)..
1450: 70 14 02 09 00 21 80 80  61 14 B6 0F 2A 80 01 70  p....!..a...*..p
1460: 14 02 09 00 22 80 80 70  14 B6 0F 2B 80 01 70 14  ...."..p...+..p.
1470: 01 E3 14 02 0B 00 25 80  80 AB 14 02 09 00 20 80  ......%....... .
1480: 80 8A 14 B6 0F 2C 80 01  A8 14 02 09 00 21 80 80  .....,.......!..
1490: 99 14 B6 0F 2D 80 01 A8  14 02 09 00 22 80 80 A8  ....-......."...
14A0: 14 B6 0F 2E 80 01 A8 14  01 E3 14 02 0B 00 26 80  ..............&.
14B0: 80 E3 14 02 09 00 20 80  80 C2 14 B6 0F 2B 80 01  ...... ......+..
14C0: E0 14 02 09 00 21 80 80  D1 14 B6 0F 2F 80 01 E0  .....!....../...
14D0: 14 02 09 00 22 80 80 E0  14 B6 0F 0C 80 01 E0 14  ...."...........
14E0: 01 E3 14 0B 0B 00 B6 0B  0B 00 0C 00 0D 00 0E 00  ................
14F0: 0F 00 10 00 11 00 12 00  13 00 1B 1A 2A 15 1A 1F  ............*...
1500: 16 1A 15 16 1A 76 1A 1A  8B 1A 1A AB 1A 1A CB 1A  .....v..........
1510: 1A EB 1A 1A 18 1A 1A 38  1A 1A 0B 1B 1A 33 1B 1B  .......8.....3..
1520: 41 00 80 22 80 09 10 01  00 1B 41 23 80 25 80 09  A.."......A#.%..
1530: 10 0B 00 03 1E 17 00 80  02 0B 00 00 80 80 48 15  ..............H.
1540: 03 1F 17 00 80 01 B8 15  02 0B 00 20 80 80 58 15  ........... ..X.
1550: 03 1F 17 20 80 01 B8 15  02 0B 00 21 80 80 68 15  ... .......!..h.
1560: 03 1F 17 00 80 01 B8 15  02 0B 00 22 80 80 78 15  ..........."..x.
1570: 03 1F 17 20 80 01 B8 15  02 0B 00 23 80 80 88 15  ... .......#....
1580: 03 1F 17 00 80 01 B8 15  02 0B 00 24 80 80 98 15  ...........$....
1590: 03 1F 17 20 80 01 B8 15  02 0B 00 25 80 80 A8 15  ... .......%....
15A0: 03 1F 17 20 80 01 B8 15  02 0B 00 26 80 80 B8 15  ... .......&....
15B0: 03 1F 17 00 80 01 B8 15  02 1F 17 20 80 00 00 16  ........... ....
15C0: 02 87 7F 21 80 80 D0 15  03 1E 17 20 80 01 00 16  ...!....... ....
15D0: 02 87 7F 23 80 80 E0 15  03 1E 17 20 80 01 00 16  ...#....... ....
15E0: 02 87 7F 25 80 80 F0 15  03 1E 17 20 80 01 00 16  ...%....... ....
15F0: 02 87 7F 26 80 80 00 16  03 1E 17 20 80 01 00 16  ...&....... ....
1600: 1B 41 30 80 31 80 09 10  06 00 1B 41 32 80 06 80  .A0.1......A2...
1610: 09 10 08 00 1B 41 33 80  34 80 09 10 09 00 1B 1A  .....A3.4.......
1620: 2A 15 1A 01 16 02 06 00  00 80 00 39 16 41 35 80  *..........9.A5.
1630: 36 80 09 10 0C 00 01 79  19 02 0B 00 00 80 80 A1  6......y........
1640: 16 02 06 00 20 80 80 60  16 3E 09 10 26 80 58 16  .... ..`.>..&.X.
1650: 03 0C 00 06 80 01 5D 16  03 0C 00 37 80 01 9E 16  ......]....7....
1660: 02 06 00 21 80 80 7F 16  3E 09 10 26 80 77 16 03  ...!....>..&.w..
1670: 0C 00 24 80 01 7C 16 03  0C 00 23 80 01 9E 16 02  ..$..|....#.....
1680: 06 00 22 80 80 9E 16 3E  09 10 26 80 96 16 03 0C  .."....>..&.....
1690: 00 20 80 01 9B 16 03 0C  00 00 80 01 9E 16 01 79  . .............y
16A0: 19 02 0B 00 20 80 80 09  17 02 06 00 20 80 80 C8  .... ....... ...
16B0: 16 3E 09 10 26 80 C0 16  03 0C 00 20 80 01 C5 16  .>..&...... ....
16C0: 03 0C 00 00 80 01 06 17  02 06 00 21 80 80 E7 16  ...........!....
16D0: 3E 09 10 26 80 DF 16 03  0C 00 24 80 01 E4 16 03  >..&......$.....
16E0: 0C 00 23 80 01 06 17 02  06 00 22 80 80 06 17 3E  ..#......."....>
16F0: 09 10 26 80 FE 16 03 0C  00 22 80 01 03 17 03 0C  ..&......"......
1700: 00 21 80 01 06 17 01 79  19 02 0B 00 21 80 80 71  .!.....y....!..q
1710: 17 02 06 00 20 80 80 30  17 3E 09 10 26 80 28 17  .... ..0.>..&.(.
1720: 03 0C 00 22 80 01 2D 17  03 0C 00 21 80 01 6E 17  ..."..-....!..n.
1730: 02 06 00 21 80 80 4F 17  3E 09 10 26 80 47 17 03  ...!..O.>..&.G..
1740: 0C 00 38 80 01 4C 17 03  0C 00 39 80 01 6E 17 02  ..8..L....9..n..
1750: 06 00 22 80 80 6E 17 3E  09 10 26 80 66 17 03 0C  .."..n.>..&.f...
1760: 00 06 80 01 6B 17 03 0C  00 37 80 01 6E 17 01 79  ....k....7..n..y
1770: 19 02 0B 00 22 80 80 D9  17 02 06 00 20 80 80 98  ...."....... ...
1780: 17 3E 09 10 26 80 90 17  03 0C 00 20 80 01 95 17  .>..&...... ....
1790: 03 0C 00 00 80 01 D6 17  02 06 00 21 80 80 B7 17  ...........!....
17A0: 3E 09 10 26 80 AF 17 03  0C 00 3A 80 01 B4 17 03  >..&......:.....
17B0: 0C 00 32 80 01 D6 17 02  06 00 22 80 80 D6 17 3E  ..2......."....>
17C0: 09 10 26 80 CE 17 03 0C  00 26 80 01 D3 17 03 0C  ..&......&......
17D0: 00 25 80 01 D6 17 01 79  19 02 0B 00 23 80 80 41  .%.....y....#..A
17E0: 18 02 06 00 20 80 80 00  18 3E 09 10 26 80 F8 17  .... ....>..&...
17F0: 03 0C 00 24 80 01 FD 17  03 0C 00 23 80 01 3E 18  ...$.......#..>.
1800: 02 06 00 21 80 80 1F 18  3E 09 10 26 80 17 18 03  ...!....>..&....
1810: 0C 00 22 80 01 1C 18 03  0C 00 21 80 01 3E 18 02  ..".......!..>..
1820: 06 00 22 80 80 3E 18 3E  09 10 26 80 36 18 03 0C  .."..>.>..&.6...
1830: 00 26 80 01 3B 18 03 0C  00 25 80 01 3E 18 01 79  .&..;....%..>..y
1840: 19 02 0B 00 24 80 80 A9  18 02 06 00 20 80 80 68  ....$....... ..h
1850: 18 3E 09 10 26 80 60 18  03 0C 00 22 80 01 65 18  .>..&.`...."..e.
1860: 03 0C 00 21 80 01 A6 18  02 06 00 21 80 80 87 18  ...!.......!....
1870: 3E 09 10 26 80 7F 18 03  0C 00 26 80 01 84 18 03  >..&......&.....
1880: 0C 00 25 80 01 A6 18 02  06 00 22 80 80 A6 18 3E  ..%......."....>
1890: 09 10 26 80 9E 18 03 0C  00 20 80 01 A3 18 03 0C  ..&...... ......
18A0: 00 00 80 01 A6 18 01 79  19 02 0B 00 25 80 80 11  .......y....%...
18B0: 19 02 06 00 20 80 80 D0  18 3E 09 10 26 80 C8 18  .... ....>..&...
18C0: 03 0C 00 31 80 01 CD 18  03 0C 00 30 80 01 0E 19  ...1.......0....
18D0: 02 06 00 21 80 80 EF 18  3E 09 10 26 80 E7 18 03  ...!....>..&....
18E0: 0C 00 3A 80 01 EC 18 03  0C 00 32 80 01 0E 19 02  ..:.......2.....
18F0: 06 00 22 80 80 0E 19 3E  09 10 26 80 06 19 03 0C  .."....>..&.....
1900: 00 06 80 01 0B 19 03 0C  00 37 80 01 0E 19 01 79  .........7.....y
1910: 19 02 0B 00 26 80 80 79  19 02 06 00 20 80 80 38  ....&..y.... ..8
1920: 19 3E 09 10 26 80 30 19  03 0C 00 24 80 01 35 19  .>..&.0....$..5.
1930: 03 0C 00 23 80 01 76 19  02 06 00 21 80 80 57 19  ...#..v....!..W.
1940: 3E 09 10 26 80 4F 19 03  0C 00 06 80 01 54 19 03  >..&.O.......T..
1950: 0C 00 37 80 01 76 19 02  06 00 22 80 80 76 19 3E  ..7..v...."..v.>
1960: 09 10 26 80 6E 19 03 0C  00 3A 80 01 73 19 03 0C  ..&.n....:..s...
1970: 00 32 80 01 76 19 01 79  19 1B 40 3B 80 3C 80 01  .2..v..y..@;.<..
1980: 10 20 80 43 00 43 01 1B  40 3B 80 3C 80 01 10 21  . .C.C..@;.<...!
1990: 80 43 00 43 01 1B 40 3B  80 3C 80 01 10 22 80 43  .C.C..@;.<...".C
19A0: 00 43 01 1B 40 3B 80 3C  80 01 10 23 80 43 00 43  .C..@;.<...#.C.C
19B0: 01 1B 40 3B 80 3C 80 01  10 24 80 43 00 43 01 1B  ..@;.<...$.C.C..
19C0: 40 3B 80 3C 80 01 10 25  80 43 00 43 01 1B 40 3B  @;.<...%.C.C..@;
19D0: 80 3C 80 01 10 26 80 43  00 43 01 1B 40 3B 80 3C  .<...&.C.C..@;.<
19E0: 80 01 10 30 80 43 00 43  01 1B 40 3B 80 3C 80 01  ...0.C.C..@;.<..
19F0: 10 32 80 43 00 43 01 1B  1A 2A 15 03 0A 00 0B 00  .2.C.C...*......
1A00: 02 0A 00 24 80 04 0D 1A  08 0A 00 20 80 14 0A 00  ...$....... ....
1A10: 32 80 07 0A 00 31 80 1B  03 16 00 00 80 03 17 00  2....1..........
1A20: 00 80 41 35 80 36 80 08  10 16 00 41 00 80 22 80  ..A5.6.....A..".
1A30: 07 10 17 00 1A BE 40 1B  03 16 00 00 80 41 3B 80  ......@......A;.
1A40: 3D 80 08 10 16 00 3E 07  10 35 80 5C 1A 41 00 80  =.....>..5.\.A..
1A50: 22 80 07 10 17 00 1A A6  46 01 75 1A 41 00 80 22  ".......F.u.A.."
1A60: 80 07 10 17 00 02 17 00  00 80 80 70 1A 01 75 1A  ...........p..u.
1A70: 03 13 00 00 80 1B 03 16  00 00 80 41 00 80 22 80  ...........A..".
1A80: 08 10 16 00 1A 0B 16 1A  05 2C 1B 03 15 00 00 80  .........,......
1A90: 03 16 00 00 80 41 25 80  26 80 07 10 15 00 41 23  .....A%.&.....A#
1AA0: 80 26 80 08 10 16 00 1A  0A 34 1B 03 15 00 00 80  .&.......4......
1AB0: 03 16 00 00 80 41 30 80  31 80 07 10 15 00 41 30  .....A0.1.....A0
1AC0: 80 3A 80 08 10 16 00 1A  37 37 1B 03 15 00 00 80  .:......77......
1AD0: 03 16 00 00 80 41 32 80  3A 80 07 10 15 00 41 37  .....A2.:.....A7
1AE0: 80 38 80 08 10 16 00 1A  64 3A 1B 03 15 00 00 80  .8......d:......
1AF0: 03 16 00 00 80 41 37 80  06 80 07 10 15 00 41 3E  .....A7.......A>
1B00: 80 34 80 08 10 16 00 1A  91 3D 1B 41 00 80 22 80  .4.......=.A..".
1B10: 06 10 14 00 1A 2A 15 1A  82 47 41 23 80 26 80 06  .....*...GA#.&..
1B20: 10 14 00 1A 85 48 41 30  80 3A 80 06 10 14 00 1A  .....HA0.:......
1B30: CF 48 1B 41 3F 80 3B 80  07 10 00 00 02 00 00 20  .H.A?.;........ 
1B40: 80 80 4C 1B 03 12 00 40  80 01 95 1C 02 00 00 21  ..L....@.......!
1B50: 80 80 5C 1B 03 12 00 41  80 01 95 1C 02 00 00 22  ..\....A......."
1B60: 80 80 6C 1B 03 12 00 42  80 01 95 1C 02 00 00 23  ..l....B.......#
1B70: 80 80 7C 1B 03 12 00 43  80 01 95 1C 02 00 00 24  ..|....C.......$
1B80: 80 80 8C 1B 03 12 00 44  80 01 95 1C 02 00 00 25  .......D.......%
1B90: 80 80 9C 1B 03 12 00 45  80 01 95 1C 02 00 00 26  .......E.......&
1BA0: 80 80 95 1C 41 00 80 26  80 03 10 00 00 02 00 00  ....A..&........
1BB0: 00 80 80 BD 1B 03 12 00  40 80 01 92 1C 02 00 00  ........@.......
1BC0: 20 80 80 CD 1B 03 12 00  46 80 01 92 1C 02 00 00   .......F.......
1BD0: 21 80 80 DD 1B 03 12 00  47 80 01 92 1C 02 00 00  !.......G.......
1BE0: 22 80 80 ED 1B 03 12 00  48 80 01 92 1C 02 00 00  ".......H.......
1BF0: 23 80 80 FD 1B 03 12 00  49 80 01 92 1C 02 00 00  #.......I.......
1C00: 24 80 80 0D 1C 03 12 00  4A 80 01 92 1C 02 00 00  $.......J.......
1C10: 25 80 80 1D 1C 03 12 00  4B 80 01 92 1C 02 00 00  %.......K.......
1C20: 26 80 80 32 1C 03 12 00  4C 80 03 13 00 4C 80 01  &..2....L....L..
1C30: 92 1C 02 00 00 30 80 80  42 1C 03 12 00 4D 80 01  .....0..B....M..
1C40: 92 1C 02 00 00 31 80 80  52 1C 03 12 00 4E 80 01  .....1..R....N..
1C50: 92 1C 02 00 00 32 80 80  62 1C 03 12 00 4F 80 01  .....2..b....O..
1C60: 92 1C 02 00 00 3A 80 80  72 1C 03 12 00 50 80 01  .....:..r....P..
1C70: 92 1C 02 00 00 37 80 80  82 1C 03 12 00 51 80 01  .....7.......Q..
1C80: 92 1C 02 00 00 06 80 80  92 1C 03 12 00 52 80 01  .............R..
1C90: 92 1C 01 95 1C 3E 03 10  30 80 25 1D 41 31 80 38  .....>..0.%.A1.8
1CA0: 80 03 10 00 00 02 00 00  00 80 80 B5 1C 03 13 00  ................
1CB0: 53 80 01 25 1D 02 00 00  20 80 80 C5 1C 03 13 00  S..%.... .......
1CC0: 54 80 01 25 1D 02 00 00  21 80 80 D5 1C 03 13 00  T..%....!.......
1CD0: 55 80 01 25 1D 02 00 00  22 80 80 E5 1C 03 13 00  U..%....".......
1CE0: 56 80 01 25 1D 02 00 00  23 80 80 F5 1C 03 13 00  V..%....#.......
1CF0: 57 80 01 25 1D 02 00 00  24 80 80 05 1D 03 13 00  W..%....$.......
1D00: 58 80 01 25 1D 02 00 00  25 80 80 15 1D 03 13 00  X..%....%.......
1D10: 59 80 01 25 1D 02 00 00  26 80 80 25 1D 03 13 00  Y..%....&..%....
1D20: 5A 80 01 25 1D 41 5B 80  3D 80 07 10 00 00 02 00  Z..%.A[.=.......
1D30: 00 20 80 80 3E 1D 03 0D  00 5C 80 01 ED 1E 02 00  . ..>....\......
1D40: 00 21 80 80 4E 1D 03 0D  00 5D 80 01 ED 1E 02 00  .!..N....]......
1D50: 00 22 80 80 5E 1D 03 0D  00 5E 80 01 ED 1E 02 00  ."..^....^......
1D60: 00 23 80 80 6E 1D 03 0D  00 5F 80 01 ED 1E 02 00  .#..n...._......
1D70: 00 24 80 80 7E 1D 03 0D  00 60 80 01 ED 1E 02 00  .$..~....`......
1D80: 00 25 80 80 8E 1D 03 0D  00 61 80 01 ED 1E 02 00  .%.......a......
1D90: 00 26 80 80 ED 1E 41 3E  80 36 80 03 10 00 00 02  .&....A>.6......
1DA0: 00 00 00 80 80 2A 1E 02  0B 00 00 80 80 B7 1D 03  .....*..........
1DB0: 0D 00 62 80 01 27 1E 02  0B 00 20 80 80 C7 1D 03  ..b..'.... .....
1DC0: 0D 00 44 80 01 27 1E 02  0B 00 21 80 80 D7 1D 03  ..D..'....!.....
1DD0: 0D 00 62 80 01 27 1E 02  0B 00 22 80 80 E7 1D 03  ..b..'....".....
1DE0: 0D 00 44 80 01 27 1E 02  0B 00 23 80 80 F7 1D 03  ..D..'....#.....
1DF0: 0D 00 62 80 01 27 1E 02  0B 00 24 80 80 07 1E 03  ..b..'....$.....
1E00: 0D 00 44 80 01 27 1E 02  0B 00 25 80 80 17 1E 03  ..D..'....%.....
1E10: 0D 00 44 80 01 27 1E 02  0B 00 26 80 80 27 1E 03  ..D..'....&..'..
1E20: 0D 00 62 80 01 27 1E 01  EA 1E 02 00 00 20 80 80  ..b..'....... ..
1E30: 3A 1E 03 0D 00 63 80 01  EA 1E 02 00 00 21 80 80  :....c.......!..
1E40: 4A 1E 03 0D 00 64 80 01  EA 1E 02 00 00 22 80 80  J....d......."..
1E50: 5A 1E 03 0D 00 42 80 01  EA 1E 02 00 00 23 80 80  Z....B.......#..
1E60: 6A 1E 03 0D 00 43 80 01  EA 1E 02 00 00 24 80 80  j....C.......$..
1E70: 7A 1E 03 0D 00 65 80 01  EA 1E 02 00 00 25 80 80  z....e.......%..
1E80: 8A 1E 03 0D 00 61 80 01  EA 1E 02 00 00 26 80 80  .....a.......&..
1E90: 9A 1E 03 0D 00 61 80 01  EA 1E 02 00 00 30 80 80  .....a.......0..
1EA0: AA 1E 03 0D 00 66 80 01  EA 1E 02 00 00 31 80 80  .....f.......1..
1EB0: BA 1E 03 0D 00 67 80 01  EA 1E 02 00 00 32 80 80  .....g.......2..
1EC0: CA 1E 03 0D 00 68 80 01  EA 1E 02 00 00 3A 80 80  .....h.......:..
1ED0: DA 1E 03 0D 00 69 80 01  EA 1E 02 00 00 37 80 80  .....i.......7..
1EE0: EA 1E 03 0D 00 6A 80 01  EA 1E 01 ED 1E 41 01 80  .....j.......A..
1EF0: 3C 80 07 10 00 00 02 00  00 31 80 80 15 1F 03 0E  <........1......
1F00: 00 6B 80 03 0F 00 6B 80  03 10 00 6B 80 03 11 00  .k....k....k....
1F10: 6B 80 01 04 2C 02 00 00  32 80 80 18 20 02 0B 00  k...,...2... ...
1F20: 00 80 80 3C 1F 03 0E 00  6C 80 03 0F 00 6C 80 03  ...<....l....l..
1F30: 10 00 6C 80 03 11 00 6C  80 01 15 20 02 0B 00 20  ..l....l... ... 
1F40: 80 80 5B 1F 03 0E 00 6D  80 03 0F 00 6D 80 03 10  ..[....m....m...
1F50: 00 6D 80 03 11 00 6D 80  01 15 20 02 0B 00 21 80  .m....m... ...!.
1F60: 80 7A 1F 03 0E 00 6C 80  03 0F 00 6C 80 03 10 00  .z....l....l....
1F70: 6C 80 03 11 00 6C 80 01  15 20 02 0B 00 22 80 80  l....l... ..."..
1F80: 99 1F 03 0E 00 6D 80 03  0F 00 6D 80 03 10 00 6D  .....m....m....m
1F90: 80 03 11 00 6D 80 01 15  20 02 0B 00 23 80 80 B8  ....m... ...#...
1FA0: 1F 03 0E 00 6C 80 03 0F  00 6C 80 03 10 00 6C 80  ....l....l....l.
1FB0: 03 11 00 6C 80 01 15 20  02 0B 00 24 80 80 D7 1F  ...l... ...$....
1FC0: 03 0E 00 6D 80 03 0F 00  6D 80 03 10 00 6D 80 03  ...m....m....m..
1FD0: 11 00 6D 80 01 15 20 02  0B 00 25 80 80 F6 1F 03  ..m... ...%.....
1FE0: 0E 00 6D 80 03 0F 00 6D  80 03 10 00 6D 80 03 11  ..m....m....m...
1FF0: 00 6D 80 01 15 20 02 0B  00 26 80 80 15 20 03 0E  .m... ...&... ..
2000: 00 6C 80 03 0F 00 6C 80  03 10 00 6C 80 03 11 00  .l....l....l....
2010: 6C 80 01 15 20 01 04 2C  02 00 00 3A 80 80 1B 21  l... ..,...:...!
2020: 02 0B 00 00 80 80 3F 20  03 0E 00 62 80 03 0F 00  ......? ...b....
2030: 62 80 03 10 00 62 80 03  11 00 62 80 01 18 21 02  b....b....b...!.
2040: 0B 00 20 80 80 5E 20 03  0E 00 44 80 03 0F 00 44  .. ..^ ...D....D
2050: 80 03 10 00 44 80 03 11  00 44 80 01 18 21 02 0B  ....D....D...!..
2060: 00 21 80 80 7D 20 03 0E  00 62 80 03 0F 00 62 80  .!..} ...b....b.
2070: 03 10 00 62 80 03 11 00  62 80 01 18 21 02 0B 00  ...b....b...!...
2080: 22 80 80 9C 20 03 0E 00  44 80 03 0F 00 44 80 03  "... ...D....D..
2090: 10 00 44 80 03 11 00 44  80 01 18 21 02 0B 00 23  ..D....D...!...#
20A0: 80 80 BB 20 03 0E 00 62  80 03 0F 00 62 80 03 10  ... ...b....b...
20B0: 00 62 80 03 11 00 62 80  01 18 21 02 0B 00 24 80  .b....b...!...$.
20C0: 80 DA 20 03 0E 00 44 80  03 0F 00 44 80 03 10 00  .. ...D....D....
20D0: 44 80 03 11 00 44 80 01  18 21 02 0B 00 25 80 80  D....D...!...%..
20E0: F9 20 03 0E 00 44 80 03  0F 00 44 80 03 10 00 44  . ...D....D....D
20F0: 80 03 11 00 44 80 01 18  21 02 0B 00 26 80 80 18  ....D...!...&...
2100: 21 03 0E 00 62 80 03 0F  00 62 80 03 10 00 62 80  !...b....b....b.
2110: 03 11 00 62 80 01 18 21  01 04 2C 02 00 00 20 80  ...b...!..,... .
2120: 80 AF 21 02 0B 00 00 80  80 33 21 03 0E 00 6E 80  ..!......3!...n.
2130: 01 A3 21 02 0B 00 20 80  80 43 21 03 0E 00 6F 80  ..!... ..C!...o.
2140: 01 A3 21 02 0B 00 21 80  80 53 21 03 0E 00 6E 80  ..!...!..S!...n.
2150: 01 A3 21 02 0B 00 22 80  80 63 21 03 0E 00 6F 80  ..!..."..c!...o.
2160: 01 A3 21 02 0B 00 23 80  80 73 21 03 0E 00 6E 80  ..!...#..s!...n.
2170: 01 A3 21 02 0B 00 24 80  80 83 21 03 0E 00 6F 80  ..!...$...!...o.
2180: 01 A3 21 02 0B 00 25 80  80 93 21 03 0E 00 6F 80  ..!...%...!...o.
2190: 01 A3 21 02 0B 00 26 80  80 A3 21 03 0E 00 6E 80  ..!...&...!...n.
21A0: 01 A3 21 1A AB 1A 1A CB  1A 1A EB 1A 01 04 2C 02  ..!...........,.
21B0: 00 00 21 80 80 43 22 02  0B 00 00 80 80 C7 21 03  ..!..C".......!.
21C0: 0E 00 70 80 01 37 22 02  0B 00 20 80 80 D7 21 03  ..p..7"... ...!.
21D0: 0E 00 71 80 01 37 22 02  0B 00 21 80 80 E7 21 03  ..q..7"...!...!.
21E0: 0E 00 70 80 01 37 22 02  0B 00 22 80 80 F7 21 03  ..p..7"..."...!.
21F0: 0E 00 71 80 01 37 22 02  0B 00 23 80 80 07 22 03  ..q..7"...#...".
2200: 0E 00 70 80 01 37 22 02  0B 00 24 80 80 17 22 03  ..p..7"...$...".
2210: 0E 00 71 80 01 37 22 02  0B 00 25 80 80 27 22 03  ..q..7"...%..'".
2220: 0E 00 71 80 01 37 22 02  0B 00 26 80 80 37 22 03  ..q..7"...&..7".
2230: 0E 00 70 80 01 37 22 1A  AB 1A 1A CB 1A 1A EB 1A  ..p..7".........
2240: 01 04 2C 02 00 00 26 80  80 D7 22 02 0B 00 00 80  ..,...&...".....
2250: 80 5B 22 03 0E 00 72 80  01 CB 22 02 0B 00 20 80  .["...r..."... .
2260: 80 6B 22 03 0E 00 73 80  01 CB 22 02 0B 00 21 80  .k"...s..."...!.
2270: 80 7B 22 03 0E 00 72 80  01 CB 22 02 0B 00 22 80  .{"...r..."...".
2280: 80 8B 22 03 0E 00 73 80  01 CB 22 02 0B 00 23 80  .."...s..."...#.
2290: 80 9B 22 03 0E 00 72 80  01 CB 22 02 0B 00 24 80  .."...r..."...$.
22A0: 80 AB 22 03 0E 00 73 80  01 CB 22 02 0B 00 25 80  .."...s..."...%.
22B0: 80 BB 22 03 0E 00 73 80  01 CB 22 02 0B 00 26 80  .."...s..."...&.
22C0: 80 CB 22 03 0E 00 72 80  01 CB 22 1A AB 1A 1A CB  .."...r...".....
22D0: 1A 1A EB 1A 01 04 2C 02  00 00 22 80 80 15 23 02  ......,..."...#.
22E0: 0B 00 24 80 00 FE 22 03  0E 00 74 80 03 0F 00 74  ..$..."...t....t
22F0: 80 03 10 00 74 80 03 11  00 74 80 01 12 23 03 0E  ....t....t...#..
2300: 00 75 80 03 0F 00 75 80  03 10 00 75 80 03 11 00  .u....u....u....
2310: 75 80 01 04 2C 02 00 00  23 80 80 53 23 02 0B 00  u...,...#..S#...
2320: 24 80 00 3C 23 03 0E 00  76 80 03 0F 00 76 80 03  $..<#...v....v..
2330: 10 00 76 80 03 11 00 76  80 01 50 23 03 0E 00 77  ..v....v..P#...w
2340: 80 03 0F 00 77 80 03 10  00 77 80 03 11 00 77 80  ....w....w....w.
2350: 01 04 2C 02 00 00 30 80  80 91 23 02 0B 00 24 80  ..,...0...#...$.
2360: 00 7A 23 03 0E 00 78 80  03 0F 00 78 80 03 10 00  .z#...x....x....
2370: 78 80 03 11 00 78 80 01  8E 23 03 0E 00 79 80 03  x....x...#...y..
2380: 0F 00 79 80 03 10 00 79  80 03 11 00 79 80 01 04  ..y....y....y...
2390: 2C 02 00 00 37 80 80 94  24 02 0B 00 00 80 80 B8  ,...7...$.......
23A0: 23 03 0E 00 64 80 03 0F  00 64 80 03 10 00 64 80  #...d....d....d.
23B0: 03 11 00 64 80 01 91 24  02 0B 00 20 80 80 D7 23  ...d...$... ...#
23C0: 03 0E 00 7A 80 03 0F 00  7A 80 03 10 00 7A 80 03  ...z....z....z..
23D0: 11 00 7A 80 01 91 24 02  0B 00 21 80 80 F6 23 03  ..z...$...!...#.
23E0: 0E 00 64 80 03 0F 00 64  80 03 10 00 64 80 03 11  ..d....d....d...
23F0: 00 64 80 01 91 24 02 0B  00 22 80 80 15 24 03 0E  .d...$..."...$..
2400: 00 7A 80 03 0F 00 7A 80  03 10 00 7A 80 03 11 00  .z....z....z....
2410: 7A 80 01 91 24 02 0B 00  23 80 80 34 24 03 0E 00  z...$...#..4$...
2420: 64 80 03 0F 00 64 80 03  10 00 64 80 03 11 00 64  d....d....d....d
2430: 80 01 91 24 02 0B 00 24  80 80 53 24 03 0E 00 7A  ...$...$..S$...z
2440: 80 03 0F 00 7A 80 03 10  00 7A 80 03 11 00 7A 80  ....z....z....z.
2450: 01 91 24 02 0B 00 25 80  80 72 24 03 0E 00 7A 80  ..$...%..r$...z.
2460: 03 0F 00 7A 80 03 10 00  7A 80 03 11 00 7A 80 01  ...z....z....z..
2470: 91 24 02 0B 00 26 80 80  91 24 03 0E 00 64 80 03  .$...&...$...d..
2480: 0F 00 64 80 03 10 00 64  80 03 11 00 64 80 01 91  ..d....d....d...
2490: 24 01 04 2C 02 00 00 24  80 80 B2 24 03 0D 00 00  $..,...$...$....
24A0: 80 03 0E 00 7B 80 1A AB  1A 1A CB 1A 1A EB 1A 01  ....{...........
24B0: 04 2C 02 00 00 25 80 80  4C 25 03 0E 00 5F 80 03  .,...%..L%..._..
24C0: 0F 00 61 80 03 11 00 5F  80 02 0B 00 00 80 80 D9  ..a...._........
24D0: 24 03 10 00 70 80 01 49  25 02 0B 00 20 80 80 E9  $...p..I%... ...
24E0: 24 03 10 00 71 80 01 49  25 02 0B 00 21 80 80 F9  $...q..I%...!...
24F0: 24 03 10 00 70 80 01 49  25 02 0B 00 22 80 80 09  $...p..I%..."...
2500: 25 03 10 00 71 80 01 49  25 02 0B 00 23 80 80 19  %...q..I%...#...
2510: 25 03 10 00 70 80 01 49  25 02 0B 00 24 80 80 29  %...p..I%...$..)
2520: 25 03 10 00 71 80 01 49  25 02 0B 00 25 80 80 39  %...q..I%...%..9
2530: 25 03 10 00 71 80 01 49  25 02 0B 00 26 80 80 49  %...q..I%...&..I
2540: 25 03 10 00 70 80 01 49  25 01 04 2C 02 00 00 06  %...p..I%..,....
2550: 80 80 6A 25 03 0D 00 7C  80 03 0E 00 7C 80 1A AB  ..j%...|....|...
2560: 1A 1A CB 1A 1A EB 1A 01  04 2C 02 00 00 39 80 80  .........,...9..
2570: 88 25 03 0D 00 7D 80 03  0E 00 7D 80 1A AB 1A 1A  .%...}....}.....
2580: CB 1A 1A EB 1A 01 04 2C  02 00 00 38 80 80 04 2C  .......,...8...,
2590: 41 3B 80 3C 80 03 10 00  00 02 00 00 00 80 80 B7  A;.<............
25A0: 25 03 0D 00 7E 80 03 0E  00 7E 80 1A AB 1A 1A CB  %...~....~......
25B0: 1A 1A EB 1A 01 01 2C 02  00 00 20 80 80 DB 25 03  ......,... ...%.
25C0: 0D 00 41 80 03 0E 00 7F  80 03 0F 00 7F 80 03 10  ..A.............
25D0: 00 7F 80 03 11 00 7F 80  01 01 2C 02 00 00 21 80  ..........,...!.
25E0: 80 FF 25 03 0D 00 80 80  03 0E 00 80 80 03 0F 00  ..%.............
25F0: 80 80 03 10 00 80 80 03  11 00 80 80 01 01 2C 02  ..............,.
2600: 00 00 25 80 80 23 26 03  0D 00 81 80 03 0E 00 81  ..%..#&.........
2610: 80 03 0F 00 81 80 03 10  00 81 80 03 11 00 81 80  ................
2620: 01 01 2C 02 00 00 26 80  80 26 27 02 0B 00 00 80  ..,...&..&'.....
2630: 80 4A 26 03 0E 00 82 80  03 0F 00 82 80 03 10 00  .J&.............
2640: 82 80 03 11 00 82 80 01  23 27 02 0B 00 20 80 80  ........#'... ..
2650: 69 26 03 0E 00 83 80 03  0F 00 83 80 03 10 00 83  i&..............
2660: 80 03 11 00 83 80 01 23  27 02 0B 00 21 80 80 88  .......#'...!...
2670: 26 03 0E 00 82 80 03 0F  00 82 80 03 10 00 82 80  &...............
2680: 03 11 00 82 80 01 23 27  02 0B 00 22 80 80 A7 26  ......#'..."...&
2690: 03 0E 00 83 80 03 0F 00  83 80 03 10 00 83 80 03  ................
26A0: 11 00 83 80 01 23 27 02  0B 00 23 80 80 C6 26 03  .....#'...#...&.
26B0: 0E 00 82 80 03 0F 00 82  80 03 10 00 82 80 03 11  ................
26C0: 00 82 80 01 23 27 02 0B  00 24 80 80 E5 26 03 0E  ....#'...$...&..
26D0: 00 83 80 03 0F 00 83 80  03 10 00 83 80 03 11 00  ................
26E0: 83 80 01 23 27 02 0B 00  25 80 80 04 27 03 0E 00  ...#'...%...'...
26F0: 83 80 03 0F 00 83 80 03  10 00 83 80 03 11 00 83  ................
2700: 80 01 23 27 02 0B 00 26  80 80 23 27 03 0E 00 82  ..#'...&..#'....
2710: 80 03 0F 00 82 80 03 10  00 82 80 03 11 00 82 80  ................
2720: 01 23 27 01 01 2C 02 00  00 22 80 80 DF 27 02 0B  .#'..,..."...'..
2730: 00 00 80 80 43 27 03 0E  00 42 80 03 10 00 42 80  ....C'...B....B.
2740: 01 D6 27 02 0B 00 20 80  80 58 27 03 0E 00 43 80  ..'... ..X'...C.
2750: 03 10 00 43 80 01 D6 27  02 0B 00 21 80 80 6D 27  ...C...'...!..m'
2760: 03 0E 00 42 80 03 10 00  42 80 01 D6 27 02 0B 00  ...B....B...'...
2770: 22 80 80 82 27 03 0E 00  43 80 03 10 00 43 80 01  "...'...C....C..
2780: D6 27 02 0B 00 23 80 80  97 27 03 0E 00 42 80 03  .'...#...'...B..
2790: 10 00 42 80 01 D6 27 02  0B 00 24 80 80 AC 27 03  ..B...'...$...'.
27A0: 0E 00 43 80 03 10 00 43  80 01 D6 27 02 0B 00 25  ..C....C...'...%
27B0: 80 80 C1 27 03 0E 00 43  80 03 10 00 43 80 01 D6  ...'...C....C...
27C0: 27 02 0B 00 26 80 80 D6  27 03 0E 00 42 80 03 10  '...&...'...B...
27D0: 00 42 80 01 D6 27 1A AB  1A 1A EB 1A 01 01 2C 02  .B...'........,.
27E0: 00 00 23 80 80 03 28 03  0D 00 84 80 03 0E 00 84  ..#...(.........
27F0: 80 03 0F 00 84 80 03 10  00 84 80 03 11 00 84 80  ................
2800: 01 01 2C 02 00 00 24 80  80 1C 28 03 0E 00 85 80  ..,...$...(.....
2810: 1A AB 1A 1A CB 1A 1A EB  1A 01 01 2C 02 00 00 30  ...........,...0
2820: 80 80 47 29 02 0B 00 00  80 80 48 28 03 0D 00 86  ..G)......H(....
2830: 80 03 0E 00 86 80 03 0F  00 86 80 03 10 00 86 80  ................
2840: 03 11 00 86 80 01 44 29  02 0B 00 20 80 80 6C 28  ......D)... ..l(
2850: 03 0D 00 87 80 03 0E 00  87 80 03 0F 00 87 80 03  ................
2860: 10 00 87 80 03 11 00 87  80 01 44 29 02 0B 00 21  ..........D)...!
2870: 80 80 90 28 03 0D 00 86  80 03 0E 00 86 80 03 0F  ...(............
2880: 00 86 80 03 10 00 86 80  03 11 00 86 80 01 44 29  ..............D)
2890: 02 0B 00 22 80 80 B4 28  03 0D 00 87 80 03 0E 00  ..."...(........
28A0: 87 80 03 0F 00 87 80 03  10 00 87 80 03 11 00 87  ................
28B0: 80 01 44 29 02 0B 00 23  80 80 D8 28 03 0D 00 86  ..D)...#...(....
28C0: 80 03 0E 00 86 80 03 0F  00 86 80 03 10 00 86 80  ................
28D0: 03 11 00 86 80 01 44 29  02 0B 00 24 80 80 FC 28  ......D)...$...(
28E0: 03 0D 00 87 80 03 0E 00  87 80 03 0F 00 87 80 03  ................
28F0: 10 00 87 80 03 11 00 87  80 01 44 29 02 0B 00 25  ..........D)...%
2900: 80 80 20 29 03 0D 00 87  80 03 0E 00 87 80 03 0F  .. )............
2910: 00 87 80 03 10 00 87 80  03 11 00 87 80 01 44 29  ..............D)
2920: 02 0B 00 26 80 80 44 29  03 0D 00 86 80 03 0E 00  ...&..D)........
2930: 86 80 03 0F 00 86 80 03  10 00 86 80 03 11 00 86  ................
2940: 80 01 44 29 01 01 2C 02  00 00 31 80 80 67 29 03  ..D)..,...1..g).
2950: 0D 00 88 80 03 0E 00 88  80 03 0F 00 88 80 1A CB  ................
2960: 1A 1A EB 1A 01 01 2C 02  00 00 32 80 80 8B 29 03  ......,...2...).
2970: 0D 00 89 80 03 0E 00 89  80 03 0F 00 89 80 03 10  ................
2980: 00 89 80 03 11 00 89 80  01 01 2C 02 00 00 3A 80  ..........,...:.
2990: 80 A4 29 03 0E 00 8A 80  1A AB 1A 1A CB 1A 1A EB  ..).............
29A0: 1A 01 01 2C 02 00 00 37  80 80 BD 29 03 0E 00 8B  ...,...7...)....
29B0: 80 1A AB 1A 1A CB 1A 1A  EB 1A 01 01 2C 02 00 00  ............,...
29C0: 06 80 80 E1 29 03 0D 00  45 80 03 0E 00 45 80 03  ....)...E....E..
29D0: 0F 00 45 80 03 10 00 45  80 03 11 00 45 80 01 01  ..E....E....E...
29E0: 2C 02 00 00 39 80 80 FA  29 03 0E 00 8C 80 1A AB  ,...9...).......
29F0: 1A 1A CB 1A 1A EB 1A 01  01 2C 02 00 00 38 80 80  .........,...8..
2A00: 13 2A 03 0E 00 8D 80 1A  AB 1A 1A CB 1A 1A EB 1A  .*..............
2A10: 01 01 2C 02 00 00 3E 80  80 2C 2A 03 0E 00 8E 80  ..,...>..,*.....
2A20: 1A AB 1A 1A CB 1A 1A EB  1A 01 01 2C 02 00 00 8F  ...........,....
2A30: 80 80 45 2A 03 0E 00 90  80 1A AB 1A 1A CB 1A 1A  ..E*............
2A40: EB 1A 01 01 2C 02 00 00  33 80 80 FE 2A 02 0B 00  ....,...3...*...
2A50: 00 80 80 62 2A 03 0E 00  91 80 03 10 00 42 80 01  ...b*........B..
2A60: F5 2A 02 0B 00 20 80 80  77 2A 03 0E 00 92 80 03  .*... ..w*......
2A70: 10 00 43 80 01 F5 2A 02  0B 00 21 80 80 8C 2A 03  ..C...*...!...*.
2A80: 0E 00 91 80 03 10 00 42  80 01 F5 2A 02 0B 00 22  .......B...*..."
2A90: 80 80 A1 2A 03 0E 00 92  80 03 10 00 43 80 01 F5  ...*........C...
2AA0: 2A 02 0B 00 23 80 80 B6  2A 03 0E 00 91 80 03 10  *...#...*.......
2AB0: 00 42 80 01 F5 2A 02 0B  00 24 80 80 CB 2A 03 0E  .B...*...$...*..
2AC0: 00 92 80 03 10 00 43 80  01 F5 2A 02 0B 00 25 80  ......C...*...%.
2AD0: 80 E0 2A 03 0E 00 92 80  03 10 00 43 80 01 F5 2A  ..*........C...*
2AE0: 02 0B 00 26 80 80 F5 2A  03 0E 00 91 80 03 10 00  ...&...*........
2AF0: 42 80 01 F5 2A 1A AB 1A  1A EB 1A 01 01 2C 02 00  B...*........,..
2B00: 00 34 80 80 01 2C 02 0B  00 00 80 80 25 2B 03 0E  .4...,......%+..
2B10: 00 93 80 03 0F 00 93 80  03 10 00 93 80 03 11 00  ................
2B20: 93 80 01 FE 2B 02 0B 00  20 80 80 44 2B 03 0E 00  ....+... ..D+...
2B30: 94 80 03 0F 00 94 80 03  10 00 94 80 03 11 00 94  ................
2B40: 80 01 FE 2B 02 0B 00 21  80 80 63 2B 03 0E 00 93  ...+...!..c+....
2B50: 80 03 0F 00 93 80 03 10  00 93 80 03 11 00 93 80  ................
2B60: 01 FE 2B 02 0B 00 22 80  80 82 2B 03 0E 00 94 80  ..+..."...+.....
2B70: 03 0F 00 94 80 03 10 00  94 80 03 11 00 94 80 01  ................
2B80: FE 2B 02 0B 00 23 80 80  A1 2B 03 0E 00 93 80 03  .+...#...+......
2B90: 0F 00 93 80 03 10 00 93  80 03 11 00 93 80 01 FE  ................
2BA0: 2B 02 0B 00 24 80 80 C0  2B 03 0E 00 94 80 03 0F  +...$...+.......
2BB0: 00 94 80 03 10 00 94 80  03 11 00 94 80 01 FE 2B  ...............+
2BC0: 02 0B 00 25 80 80 DF 2B  03 0E 00 94 80 03 0F 00  ...%...+........
2BD0: 94 80 03 10 00 94 80 03  11 00 94 80 01 FE 2B 02  ..............+.
2BE0: 0B 00 26 80 80 FE 2B 03  0E 00 93 80 03 0F 00 93  ..&...+.........
2BF0: 80 03 10 00 93 80 03 11  00 93 80 01 FE 2B 01 01  .............+..
2C00: 2C 01 04 2C 1B 02 08 00  20 80 80 B0 2C 02 16 00  ,..,.... ...,...
2C10: 00 80 80 1D 2C 03 0D 00  00 80 01 AD 2C 02 16 00  ....,.......,...
2C20: 20 80 80 2D 2C 03 0D 00  20 80 01 AD 2C 02 16 00   ..-,... ...,...
2C30: 21 80 80 3D 2C 03 0D 00  95 80 01 AD 2C 02 16 00  !..=,.......,...
2C40: 22 80 80 4D 2C 03 0D 00  96 80 01 AD 2C 02 16 00  "..M,.......,...
2C50: 23 80 80 5D 2C 03 0D 00  24 80 01 AD 2C 02 16 00  #..],...$...,...
2C60: 24 80 80 6D 2C 03 0D 00  97 80 01 AD 2C 02 16 00  $..m,.......,...
2C70: 25 80 80 7D 2C 03 0D 00  26 80 01 AD 2C 02 16 00  %..},...&...,...
2C80: 26 80 80 8D 2C 03 0D 00  2F 80 01 AD 2C 02 16 00  &...,.../...,...
2C90: 30 80 80 9D 2C 03 0D 00  98 80 01 AD 2C 02 16 00  0...,.......,...
2CA0: 31 80 80 AD 2C 03 0D 00  99 80 01 AD 2C 01 09 34  1...,.......,..4
2CB0: 02 08 00 21 80 80 5B 2D  02 16 00 00 80 80 C8 2C  ...!..[-.......,
2CC0: 03 0D 00 00 80 01 58 2D  02 16 00 20 80 80 D8 2C  ......X-... ...,
2CD0: 03 0D 00 8F 80 01 58 2D  02 16 00 21 80 80 E8 2C  ......X-...!...,
2CE0: 03 0D 00 21 80 01 58 2D  02 16 00 22 80 80 F8 2C  ...!..X-..."...,
2CF0: 03 0D 00 31 80 01 58 2D  02 16 00 23 80 80 08 2D  ...1..X-...#...-
2D00: 03 0D 00 9A 80 01 58 2D  02 16 00 24 80 80 18 2D  ......X-...$...-
2D10: 03 0D 00 96 80 01 58 2D  02 16 00 25 80 80 28 2D  ......X-...%..(-
2D20: 03 0D 00 36 80 01 58 2D  02 16 00 26 80 80 38 2D  ...6..X-...&..8-
2D30: 03 0D 00 9B 80 01 58 2D  02 16 00 30 80 80 48 2D  ......X-...0..H-
2D40: 03 0D 00 9C 80 01 58 2D  02 16 00 31 80 80 58 2D  ......X-...1..X-
2D50: 03 0D 00 9D 80 01 58 2D  01 09 34 02 08 00 22 80  ......X-..4...".
2D60: 80 06 2E 02 16 00 00 80  80 73 2D 03 0D 00 00 80  .........s-.....
2D70: 01 03 2E 02 16 00 20 80  80 83 2D 03 0D 00 24 80  ...... ...-...$.
2D80: 01 03 2E 02 16 00 21 80  80 93 2D 03 0D 00 3E 80  ......!...-...>.
2D90: 01 03 2E 02 16 00 22 80  80 A3 2D 03 0D 00 3D 80  ......"...-...=.
2DA0: 01 03 2E 02 16 00 23 80  80 B3 2D 03 0D 00 9E 80  ......#...-.....
2DB0: 01 03 2E 02 16 00 24 80  80 C3 2D 03 0D 00 9C 80  ......$...-.....
2DC0: 01 03 2E 02 16 00 25 80  80 D3 2D 03 0D 00 9F 80  ......%...-.....
2DD0: 01 03 2E 02 16 00 26 80  80 E3 2D 03 0D 00 A0 80  ......&...-.....
2DE0: 01 03 2E 02 16 00 30 80  80 F3 2D 03 0D 00 A1 80  ......0...-.....
2DF0: 01 03 2E 02 16 00 31 80  80 03 2E 03 0D 00 A2 80  ......1.........
2E00: 01 03 2E 01 09 34 02 08  00 23 80 80 B1 2E 02 16  .....4...#......
2E10: 00 00 80 80 1E 2E 03 0D  00 00 80 01 AE 2E 02 16  ................
2E20: 00 20 80 80 2E 2E 03 0D  00 01 80 01 AE 2E 02 16  . ..............
2E30: 00 21 80 80 3E 2E 03 0D  00 33 80 01 AE 2E 02 16  .!..>....3......
2E40: 00 22 80 80 4E 2E 03 0D  00 A3 80 01 AE 2E 02 16  ."..N...........
2E50: 00 23 80 80 5E 2E 03 0D  00 A4 80 01 AE 2E 02 16  .#..^...........
2E60: 00 24 80 80 6E 2E 03 0D  00 37 80 01 AE 2E 02 16  .$..n....7......
2E70: 00 25 80 80 7E 2E 03 0D  00 A5 80 01 AE 2E 02 16  .%..~...........
2E80: 00 26 80 80 8E 2E 03 0D  00 24 80 01 AE 2E 02 16  .&.......$......
2E90: 00 30 80 80 9E 2E 03 0D  00 3B 80 01 AE 2E 02 16  .0.......;......
2EA0: 00 31 80 80 AE 2E 03 0D  00 A6 80 01 AE 2E 01 09  .1..............
2EB0: 34 02 08 00 24 80 80 5C  2F 02 16 00 00 80 80 C9  4...$..\/.......
2EC0: 2E 03 0D 00 00 80 01 59  2F 02 16 00 20 80 80 D9  .......Y/... ...
2ED0: 2E 03 0D 00 35 80 01 59  2F 02 16 00 21 80 80 E9  ....5..Y/...!...
2EE0: 2E 03 0D 00 96 80 01 59  2F 02 16 00 22 80 80 F9  .......Y/..."...
2EF0: 2E 03 0D 00 A7 80 01 59  2F 02 16 00 23 80 80 09  .......Y/...#...
2F00: 2F 03 0D 00 34 80 01 59  2F 02 16 00 24 80 80 19  /...4..Y/...$...
2F10: 2F 03 0D 00 36 80 01 59  2F 02 16 00 25 80 80 29  /...6..Y/...%..)
2F20: 2F 03 0D 00 24 80 01 59  2F 02 16 00 26 80 80 39  /...$..Y/...&..9
2F30: 2F 03 0D 00 06 80 01 59  2F 02 16 00 30 80 80 49  /......Y/...0..I
2F40: 2F 03 0D 00 A8 80 01 59  2F 02 16 00 31 80 80 59  /......Y/...1..Y
2F50: 2F 03 0D 00 A2 80 01 59  2F 01 09 34 02 08 00 25  /......Y/..4...%
2F60: 80 80 07 30 02 16 00 00  80 80 74 2F 03 0D 00 00  ...0......t/....
2F70: 80 01 04 30 02 16 00 20  80 80 84 2F 03 0D 00 A9  ...0... .../....
2F80: 80 01 04 30 02 16 00 21  80 80 94 2F 03 0D 00 3F  ...0...!.../...?
2F90: 80 01 04 30 02 16 00 22  80 80 A4 2F 03 0D 00 9A  ...0...".../....
2FA0: 80 01 04 30 02 16 00 23  80 80 B4 2F 03 0D 00 AA  ...0...#.../....
2FB0: 80 01 04 30 02 16 00 24  80 80 C4 2F 03 0D 00 A7  ...0...$.../....
2FC0: 80 01 04 30 02 16 00 25  80 80 D4 2F 03 0D 00 AB  ...0...%.../....
2FD0: 80 01 04 30 02 16 00 26  80 80 E4 2F 03 0D 00 33  ...0...&.../...3
2FE0: 80 01 04 30 02 16 00 30  80 80 F4 2F 03 0D 00 23  ...0...0.../...#
2FF0: 80 01 04 30 02 16 00 31  80 80 04 30 03 0D 00 A6  ...0...1...0....
3000: 80 01 04 30 01 09 34 02  08 00 26 80 80 B2 30 02  ...0..4...&...0.
3010: 16 00 00 80 80 1F 30 03  0D 00 00 80 01 AF 30 02  ......0.......0.
3020: 16 00 20 80 80 2F 30 03  0D 00 AC 80 01 AF 30 02  .. ../0.......0.
3030: 16 00 21 80 80 3F 30 03  0D 00 34 80 01 AF 30 02  ..!..?0...4...0.
3040: 16 00 22 80 80 4F 30 03  0D 00 35 80 01 AF 30 02  .."..O0...5...0.
3050: 16 00 23 80 80 5F 30 03  0D 00 A3 80 01 AF 30 02  ..#.._0.......0.
3060: 16 00 24 80 80 6F 30 03  0D 00 06 80 01 AF 30 02  ..$..o0.......0.
3070: 16 00 25 80 80 7F 30 03  0D 00 96 80 01 AF 30 02  ..%...0.......0.
3080: 16 00 26 80 80 8F 30 03  0D 00 3F 80 01 AF 30 02  ..&...0...?...0.
3090: 16 00 30 80 80 9F 30 03  0D 00 AD 80 01 AF 30 02  ..0...0.......0.
30A0: 16 00 31 80 80 AF 30 03  0D 00 A2 80 01 AF 30 01  ..1...0.......0.
30B0: 09 34 02 08 00 30 80 80  5D 31 02 16 00 00 80 80  .4...0..]1......
30C0: CA 30 03 0D 00 00 80 01  5A 31 02 16 00 20 80 80  .0......Z1... ..
30D0: DA 30 03 0D 00 AE 80 01  5A 31 02 16 00 21 80 80  .0......Z1...!..
30E0: EA 30 03 0D 00 38 80 01  5A 31 02 16 00 22 80 80  .0...8..Z1..."..
30F0: FA 30 03 0D 00 33 80 01  5A 31 02 16 00 23 80 80  .0...3..Z1...#..
3100: 0A 31 03 0D 00 96 80 01  5A 31 02 16 00 24 80 80  .1......Z1...$..
3110: 1A 31 03 0D 00 35 80 01  5A 31 02 16 00 25 80 80  .1...5..Z1...%..
3120: 2A 31 03 0D 00 A3 80 01  5A 31 02 16 00 26 80 80  *1......Z1...&..
3130: 3A 31 03 0D 00 26 80 01  5A 31 02 16 00 30 80 80  :1...&..Z1...0..
3140: 4A 31 03 0D 00 34 80 01  5A 31 02 16 00 31 80 80  J1...4..Z1...1..
3150: 5A 31 03 0D 00 9D 80 01  5A 31 01 09 34 02 08 00  Z1......Z1..4...
3160: 31 80 80 08 32 02 16 00  00 80 80 75 31 03 0D 00  1...2......u1...
3170: 00 80 01 05 32 02 16 00  20 80 80 85 31 03 0D 00  ....2... ...1...
3180: 38 80 01 05 32 02 16 00  21 80 80 95 31 03 0D 00  8...2...!...1...
3190: 01 80 01 05 32 02 16 00  22 80 80 A5 31 03 0D 00  ....2..."...1...
31A0: A4 80 01 05 32 02 16 00  23 80 80 B5 31 03 0D 00  ....2...#...1...
31B0: 33 80 01 05 32 02 16 00  24 80 80 C5 31 03 0D 00  3...2...$...1...
31C0: A3 80 01 05 32 02 16 00  25 80 80 D5 31 03 0D 00  ....2...%...1...
31D0: AF 80 01 05 32 02 16 00  26 80 80 E5 31 03 0D 00  ....2...&...1...
31E0: 37 80 01 05 32 02 16 00  30 80 80 F5 31 03 0D 00  7...2...0...1...
31F0: B0 80 01 05 32 02 16 00  31 80 80 05 32 03 0D 00  ....2...1...2...
3200: A6 80 01 05 32 01 09 34  02 08 00 32 80 80 B3 32  ....2..4...2...2
3210: 02 16 00 00 80 80 20 32  03 0D 00 00 80 01 B0 32  ...... 2.......2
3220: 02 16 00 20 80 80 30 32  03 0D 00 25 80 01 B0 32  ... ..02...%...2
3230: 02 16 00 21 80 80 40 32  03 0D 00 A9 80 01 B0 32  ...!..@2.......2
3240: 02 16 00 22 80 80 50 32  03 0D 00 A3 80 01 B0 32  ..."..P2.......2
3250: 02 16 00 23 80 80 60 32  03 0D 00 96 80 01 B0 32  ...#..`2.......2
3260: 02 16 00 24 80 80 70 32  03 0D 00 23 80 01 B0 32  ...$..p2...#...2
3270: 02 16 00 25 80 80 80 32  03 0D 00 33 80 01 B0 32  ...%...2...3...2
3280: 02 16 00 26 80 80 90 32  03 0D 00 AA 80 01 B0 32  ...&...2.......2
3290: 02 16 00 30 80 80 A0 32  03 0D 00 B1 80 01 B0 32  ...0...2.......2
32A0: 02 16 00 31 80 80 B0 32  03 0D 00 9D 80 01 B0 32  ...1...2.......2
32B0: 01 09 34 02 08 00 3A 80  80 5E 33 02 16 00 00 80  ..4...:..^3.....
32C0: 80 CB 32 03 0D 00 00 80  01 5B 33 02 16 00 20 80  ..2......[3... .
32D0: 80 DB 32 03 0D 00 96 80  01 5B 33 02 16 00 21 80  ..2......[3...!.
32E0: 80 EB 32 03 0D 00 A4 80  01 5B 33 02 16 00 22 80  ..2......[3...".
32F0: 80 FB 32 03 0D 00 24 80  01 5B 33 02 16 00 23 80  ..2...$..[3...#.
3300: 80 0B 33 03 0D 00 A0 80  01 5B 33 02 16 00 24 80  ..3......[3...$.
3310: 80 1B 33 03 0D 00 A7 80  01 5B 33 02 16 00 25 80  ..3......[3...%.
3320: 80 2B 33 03 0D 00 AD 80  01 5B 33 02 16 00 26 80  .+3......[3...&.
3330: 80 3B 33 03 0D 00 3D 80  01 5B 33 02 16 00 30 80  .;3...=..[3...0.
3340: 80 4B 33 03 0D 00 B2 80  01 5B 33 02 16 00 31 80  .K3......[3...1.
3350: 80 5B 33 03 0D 00 99 80  01 5B 33 01 09 34 02 08  .[3......[3..4..
3360: 00 37 80 80 09 34 02 16  00 00 80 80 76 33 03 0D  .7...4......v3..
3370: 00 00 80 01 06 34 02 16  00 20 80 80 86 33 03 0D  .....4... ...3..
3380: 00 39 80 01 06 34 02 16  00 21 80 80 96 33 03 0D  .9...4...!...3..
3390: 00 37 80 01 06 34 02 16  00 22 80 80 A6 33 03 0D  .7...4..."...3..
33A0: 00 3E 80 01 06 34 02 16  00 23 80 80 B6 33 03 0D  .>...4...#...3..
33B0: 00 23 80 01 06 34 02 16  00 24 80 80 C6 33 03 0D  .#...4...$...3..
33C0: 00 9F 80 01 06 34 02 16  00 25 80 80 D6 33 03 0D  .....4...%...3..
33D0: 00 3B 80 01 06 34 02 16  00 26 80 80 E6 33 03 0D  .;...4...&...3..
33E0: 00 B3 80 01 06 34 02 16  00 30 80 80 F6 33 03 0D  .....4...0...3..
33F0: 00 B4 80 01 06 34 02 16  00 31 80 80 06 34 03 0D  .....4...1...4..
3400: 00 99 80 01 06 34 01 09  34 1B 02 15 00 00 80 80  .....4..4.......
3410: D5 34 02 16 00 00 80 80  22 34 03 0E 00 01 80 01  .4......"4......
3420: D2 34 02 16 00 20 80 80  32 34 03 0E 00 21 80 01  .4... ..24...!..
3430: D2 34 02 16 00 21 80 80  42 34 03 0E 00 97 80 01  .4...!..B4......
3440: D2 34 02 16 00 22 80 80  52 34 03 0E 00 B5 80 01  .4..."..R4......
3450: D2 34 02 16 00 23 80 80  62 34 03 0E 00 9E 80 01  .4...#..b4......
3460: D2 34 02 16 00 24 80 80  72 34 03 0E 00 5B 80 01  .4...$..r4...[..
3470: D2 34 02 16 00 25 80 80  82 34 03 0E 00 31 80 01  .4...%...4...1..
3480: D2 34 02 16 00 26 80 80  92 34 03 0E 00 9C 80 01  .4...&...4......
3490: D2 34 02 16 00 30 80 80  A2 34 03 0E 00 A1 80 01  .4...0...4......
34A0: D2 34 02 16 00 31 80 80  B2 34 03 0E 00 B4 80 01  .4...1...4......
34B0: D2 34 02 16 00 32 80 80  C2 34 03 0E 00 B6 80 01  .4...2...4......
34C0: D2 34 02 16 00 3A 80 80  D2 34 03 0E 00 B3 80 01  .4...:...4......
34D0: D2 34 01 36 37 02 15 00  20 80 80 A0 35 02 16 00  .4.67... ...5...
34E0: 00 80 80 ED 34 03 0E 00  25 80 01 9D 35 02 16 00  ....4...%...5...
34F0: 20 80 80 FD 34 03 0E 00  24 80 01 9D 35 02 16 00   ...4...$...5...
3500: 21 80 80 0D 35 03 0E 00  95 80 01 9D 35 02 16 00  !...5.......5...
3510: 22 80 80 1D 35 03 0E 00  8F 80 01 9D 35 02 16 00  "...5.......5...
3520: 23 80 80 2D 35 03 0E 00  A4 80 01 9D 35 02 16 00  #..-5.......5...
3530: 24 80 80 3D 35 03 0E 00  37 80 01 9D 35 02 16 00  $..=5...7...5...
3540: 25 80 80 4D 35 03 0E 00  26 80 01 9D 35 02 16 00  %..M5...&...5...
3550: 26 80 80 5D 35 03 0E 00  23 80 01 9D 35 02 16 00  &..]5...#...5...
3560: 30 80 80 6D 35 03 0E 00  06 80 01 9D 35 02 16 00  0..m5.......5...
3570: 31 80 80 7D 35 03 0E 00  3D 80 01 9D 35 02 16 00  1..}5...=...5...
3580: 32 80 80 8D 35 03 0E 00  A0 80 01 9D 35 02 16 00  2...5.......5...
3590: 3A 80 80 9D 35 03 0E 00  B2 80 01 9D 35 01 36 37  :...5.......5.67
35A0: 02 15 00 21 80 80 6B 36  02 16 00 00 80 80 B8 35  ...!..k6.......5
35B0: 03 0E 00 3F 80 01 68 36  02 16 00 20 80 80 C8 35  ...?..h6... ...5
35C0: 03 0E 00 96 80 01 68 36  02 16 00 21 80 80 D8 35  ......h6...!...5
35D0: 03 0E 00 AC 80 01 68 36  02 16 00 22 80 80 E8 35  ......h6..."...5
35E0: 03 0E 00 36 80 01 68 36  02 16 00 23 80 80 F8 35  ...6..h6...#...5
35F0: 03 0E 00 33 80 01 68 36  02 16 00 24 80 80 08 36  ...3..h6...$...6
3600: 03 0E 00 2E 80 01 68 36  02 16 00 25 80 80 18 36  ......h6...%...6
3610: 03 0E 00 34 80 01 68 36  02 16 00 26 80 80 28 36  ...4..h6...&..(6
3620: 03 0E 00 B7 80 01 68 36  02 16 00 30 80 80 38 36  ......h6...0..86
3630: 03 0E 00 98 80 01 68 36  02 16 00 31 80 80 48 36  ......h6...1..H6
3640: 03 0E 00 A8 80 01 68 36  02 16 00 32 80 80 58 36  ......h6...2..X6
3650: 03 0E 00 B0 80 01 68 36  02 16 00 3A 80 80 68 36  ......h6...:..h6
3660: 03 0E 00 60 80 01 68 36  01 36 37 02 15 00 22 80  ...`..h6.67...".
3670: 80 36 37 02 16 00 00 80  80 83 36 03 0E 00 30 80  .67.......6...0.
3680: 01 33 37 02 16 00 20 80  80 93 36 03 0E 00 B8 80  .37... ...6.....
3690: 01 33 37 02 16 00 21 80  80 A3 36 03 0E 00 38 80  .37...!...6...8.
36A0: 01 33 37 02 16 00 22 80  80 B3 36 03 0E 00 3C 80  .37..."...6...<.
36B0: 01 33 37 02 16 00 23 80  80 C3 36 03 0E 00 B9 80  .37...#...6.....
36C0: 01 33 37 02 16 00 24 80  80 D3 36 03 0E 00 AE 80  .37...$...6.....
36D0: 01 33 37 02 16 00 25 80  80 E3 36 03 0E 00 BA 80  .37...%...6.....
36E0: 01 33 37 02 16 00 26 80  80 F3 36 03 0E 00 AA 80  .37...&...6.....
36F0: 01 33 37 02 16 00 30 80  80 03 37 03 0E 00 AF 80  .37...0...7.....
3700: 01 33 37 02 16 00 31 80  80 13 37 03 0E 00 A5 80  .37...1...7.....
3710: 01 33 37 02 16 00 32 80  80 23 37 03 0E 00 B1 80  .37...2..#7.....
3720: 01 33 37 02 16 00 3A 80  80 33 37 03 0E 00 BB 80  .37...:..37.....
3730: 01 33 37 01 36 37 1B 02  15 00 00 80 80 02 38 02  .37.67........8.
3740: 16 00 00 80 80 4F 37 03  0F 00 01 80 01 FF 37 02  .....O7.......7.
3750: 16 00 20 80 80 5F 37 03  0F 00 21 80 01 FF 37 02  .. .._7...!...7.
3760: 16 00 21 80 80 6F 37 03  0F 00 97 80 01 FF 37 02  ..!..o7.......7.
3770: 16 00 22 80 80 7F 37 03  0F 00 B5 80 01 FF 37 02  .."...7.......7.
3780: 16 00 23 80 80 8F 37 03  0F 00 9E 80 01 FF 37 02  ..#...7.......7.
3790: 16 00 24 80 80 9F 37 03  0F 00 5B 80 01 FF 37 02  ..$...7...[...7.
37A0: 16 00 25 80 80 AF 37 03  0F 00 31 80 01 FF 37 02  ..%...7...1...7.
37B0: 16 00 26 80 80 BF 37 03  0F 00 9C 80 01 FF 37 02  ..&...7.......7.
37C0: 16 00 30 80 80 CF 37 03  0F 00 A1 80 01 FF 37 02  ..0...7.......7.
37D0: 16 00 31 80 80 DF 37 03  0F 00 B4 80 01 FF 37 02  ..1...7.......7.
37E0: 16 00 32 80 80 EF 37 03  0F 00 B6 80 01 FF 37 02  ..2...7.......7.
37F0: 16 00 3A 80 80 FF 37 03  0F 00 B3 80 01 FF 37 01  ..:...7.......7.
3800: 63 3A 02 15 00 20 80 80  CD 38 02 16 00 00 80 80  c:... ...8......
3810: 1A 38 03 0F 00 25 80 01  CA 38 02 16 00 20 80 80  .8...%...8... ..
3820: 2A 38 03 0F 00 24 80 01  CA 38 02 16 00 21 80 80  *8...$...8...!..
3830: 3A 38 03 0F 00 95 80 01  CA 38 02 16 00 22 80 80  :8.......8..."..
3840: 4A 38 03 0F 00 8F 80 01  CA 38 02 16 00 23 80 80  J8.......8...#..
3850: 5A 38 03 0F 00 A4 80 01  CA 38 02 16 00 24 80 80  Z8.......8...$..
3860: 6A 38 03 0F 00 37 80 01  CA 38 02 16 00 25 80 80  j8...7...8...%..
3870: 7A 38 03 0F 00 26 80 01  CA 38 02 16 00 26 80 80  z8...&...8...&..
3880: 8A 38 03 0F 00 23 80 01  CA 38 02 16 00 30 80 80  .8...#...8...0..
3890: 9A 38 03 0F 00 06 80 01  CA 38 02 16 00 31 80 80  .8.......8...1..
38A0: AA 38 03 0F 00 3D 80 01  CA 38 02 16 00 32 80 80  .8...=...8...2..
38B0: BA 38 03 0F 00 A0 80 01  CA 38 02 16 00 3A 80 80  .8.......8...:..
38C0: CA 38 03 0F 00 B2 80 01  CA 38 01 63 3A 02 15 00  .8.......8.c:...
38D0: 21 80 80 98 39 02 16 00  00 80 80 E5 38 03 0F 00  !...9.......8...
38E0: 3F 80 01 95 39 02 16 00  20 80 80 F5 38 03 0F 00  ?...9... ...8...
38F0: 96 80 01 95 39 02 16 00  21 80 80 05 39 03 0F 00  ....9...!...9...
3900: AC 80 01 95 39 02 16 00  22 80 80 15 39 03 0F 00  ....9..."...9...
3910: 36 80 01 95 39 02 16 00  23 80 80 25 39 03 0F 00  6...9...#..%9...
3920: 33 80 01 95 39 02 16 00  24 80 80 35 39 03 0F 00  3...9...$..59...
3930: 35 80 01 95 39 02 16 00  25 80 80 45 39 03 0F 00  5...9...%..E9...
3940: 34 80 01 95 39 02 16 00  26 80 80 55 39 03 0F 00  4...9...&..U9...
3950: 3A 80 01 95 39 02 16 00  30 80 80 65 39 03 0F 00  :...9...0..e9...
3960: 98 80 01 95 39 02 16 00  31 80 80 75 39 03 0F 00  ....9...1..u9...
3970: A8 80 01 95 39 02 16 00  32 80 80 85 39 03 0F 00  ....9...2...9...
3980: B0 80 01 95 39 02 16 00  3A 80 80 95 39 03 0F 00  ....9...:...9...
3990: 60 80 01 95 39 01 63 3A  02 15 00 22 80 80 63 3A  `...9.c:..."..c:
39A0: 02 16 00 00 80 80 B0 39  03 0F 00 30 80 01 60 3A  .......9...0..`:
39B0: 02 16 00 20 80 80 C0 39  03 0F 00 BC 80 01 60 3A  ... ...9......`:
39C0: 02 16 00 21 80 80 D0 39  03 0F 00 00 80 01 60 3A  ...!...9......`:
39D0: 02 16 00 22 80 80 E0 39  03 0F 00 3C 80 01 60 3A  ..."...9...<..`:
39E0: 02 16 00 23 80 80 F0 39  03 0F 00 B8 80 01 60 3A  ...#...9......`:
39F0: 02 16 00 24 80 80 00 3A  03 0F 00 BD 80 01 60 3A  ...$...:......`:
3A00: 02 16 00 25 80 80 10 3A  03 0F 00 3B 80 01 60 3A  ...%...:...;..`:
3A10: 02 16 00 26 80 80 20 3A  03 0F 00 AA 80 01 60 3A  ...&.. :......`:
3A20: 02 16 00 30 80 80 30 3A  03 0F 00 22 80 01 60 3A  ...0..0:..."..`:
3A30: 02 16 00 31 80 80 40 3A  03 0F 00 38 80 01 60 3A  ...1..@:...8..`:
3A40: 02 16 00 32 80 80 50 3A  03 0F 00 B1 80 01 60 3A  ...2..P:......`:
3A50: 02 16 00 3A 80 80 60 3A  03 0F 00 BB 80 01 60 3A  ...:..`:......`:
3A60: 01 63 3A 1B 02 15 00 00  80 80 2F 3B 02 16 00 00  .c:......./;....
3A70: 80 80 7C 3A 03 10 00 01  80 01 2C 3B 02 16 00 20  ..|:......,;... 
3A80: 80 80 8C 3A 03 10 00 21  80 01 2C 3B 02 16 00 21  ...:...!..,;...!
3A90: 80 80 9C 3A 03 10 00 97  80 01 2C 3B 02 16 00 22  ...:......,;..."
3AA0: 80 80 AC 3A 03 10 00 B5  80 01 2C 3B 02 16 00 23  ...:......,;...#
3AB0: 80 80 BC 3A 03 10 00 99  80 01 2C 3B 02 16 00 24  ...:......,;...$
3AC0: 80 80 CC 3A 03 10 00 5B  80 01 2C 3B 02 16 00 25  ...:...[..,;...%
3AD0: 80 80 DC 3A 03 10 00 31  80 01 2C 3B 02 16 00 26  ...:...1..,;...&
3AE0: 80 80 EC 3A 03 10 00 A2  80 01 2C 3B 02 16 00 30  ...:......,;...0
3AF0: 80 80 FC 3A 03 10 00 A1  80 01 2C 3B 02 16 00 31  ...:......,;...1
3B00: 80 80 0C 3B 03 10 00 B4  80 01 2C 3B 02 16 00 32  ...;......,;...2
3B10: 80 80 1C 3B 03 10 00 B6  80 01 2C 3B 02 16 00 3A  ...;......,;...:
3B20: 80 80 2C 3B 03 10 00 B3  80 01 2C 3B 01 90 3D 02  ..,;......,;..=.
3B30: 15 00 20 80 80 FA 3B 02  16 00 00 80 80 47 3B 03  .. ...;......G;.
3B40: 10 00 25 80 01 F7 3B 02  16 00 20 80 80 57 3B 03  ..%...;... ..W;.
3B50: 10 00 24 80 01 F7 3B 02  16 00 21 80 80 67 3B 03  ..$...;...!..g;.
3B60: 10 00 95 80 01 F7 3B 02  16 00 22 80 80 77 3B 03  ......;..."..w;.
3B70: 10 00 8F 80 01 F7 3B 02  16 00 23 80 80 87 3B 03  ......;...#...;.
3B80: 10 00 A4 80 01 F7 3B 02  16 00 24 80 80 97 3B 03  ......;...$...;.
3B90: 10 00 37 80 01 F7 3B 02  16 00 25 80 80 A7 3B 03  ..7...;...%...;.
3BA0: 10 00 26 80 01 F7 3B 02  16 00 26 80 80 B7 3B 03  ..&...;...&...;.
3BB0: 10 00 23 80 01 F7 3B 02  16 00 30 80 80 C7 3B 03  ..#...;...0...;.
3BC0: 10 00 06 80 01 F7 3B 02  16 00 31 80 80 D7 3B 03  ......;...1...;.
3BD0: 10 00 3D 80 01 F7 3B 02  16 00 32 80 80 E7 3B 03  ..=...;...2...;.
3BE0: 10 00 A0 80 01 F7 3B 02  16 00 3A 80 80 F7 3B 03  ......;...:...;.
3BF0: 10 00 B2 80 01 F7 3B 01  90 3D 02 15 00 21 80 80  ......;..=...!..
3C00: C5 3C 02 16 00 00 80 80  12 3C 03 10 00 3F 80 01  .<.......<...?..
3C10: C2 3C 02 16 00 20 80 80  22 3C 03 10 00 96 80 01  .<... .."<......
3C20: C2 3C 02 16 00 21 80 80  32 3C 03 10 00 AC 80 01  .<...!..2<......
3C30: C2 3C 02 16 00 22 80 80  42 3C 03 10 00 36 80 01  .<..."..B<...6..
3C40: C2 3C 02 16 00 23 80 80  52 3C 03 10 00 33 80 01  .<...#..R<...3..
3C50: C2 3C 02 16 00 24 80 80  62 3C 03 10 00 35 80 01  .<...$..b<...5..
3C60: C2 3C 02 16 00 25 80 80  72 3C 03 10 00 34 80 01  .<...%..r<...4..
3C70: C2 3C 02 16 00 26 80 80  82 3C 03 10 00 3A 80 01  .<...&...<...:..
3C80: C2 3C 02 16 00 30 80 80  92 3C 03 10 00 98 80 01  .<...0...<......
3C90: C2 3C 02 16 00 31 80 80  A2 3C 03 10 00 A8 80 01  .<...1...<......
3CA0: C2 3C 02 16 00 32 80 80  B2 3C 03 10 00 B0 80 01  .<...2...<......
3CB0: C2 3C 02 16 00 3A 80 80  C2 3C 03 10 00 60 80 01  .<...:...<...`..
3CC0: C2 3C 01 90 3D 02 15 00  22 80 80 90 3D 02 16 00  .<..=..."...=...
3CD0: 00 80 80 DD 3C 03 10 00  30 80 01 8D 3D 02 16 00  ....<...0...=...
3CE0: 20 80 80 ED 3C 03 10 00  BE 80 01 8D 3D 02 16 00   ...<.......=...
3CF0: 21 80 80 FD 3C 03 10 00  38 80 01 8D 3D 02 16 00  !...<...8...=...
3D00: 22 80 80 0D 3D 03 10 00  3C 80 01 8D 3D 02 16 00  "...=...<...=...
3D10: 23 80 80 1D 3D 03 10 00  BC 80 01 8D 3D 02 16 00  #...=.......=...
3D20: 24 80 80 2D 3D 03 10 00  A9 80 01 8D 3D 02 16 00  $..-=.......=...
3D30: 25 80 80 3D 3D 03 10 00  3B 80 01 8D 3D 02 16 00  %..==...;...=...
3D40: 26 80 80 4D 3D 03 10 00  AA 80 01 8D 3D 02 16 00  &..M=.......=...
3D50: 30 80 80 5D 3D 03 10 00  22 80 01 8D 3D 02 16 00  0..]=..."...=...
3D60: 31 80 80 6D 3D 03 10 00  AF 80 01 8D 3D 02 16 00  1..m=.......=...
3D70: 32 80 80 7D 3D 03 10 00  B1 80 01 8D 3D 02 16 00  2..}=.......=...
3D80: 3A 80 80 8D 3D 03 10 00  BB 80 01 8D 3D 01 90 3D  :...=.......=..=
3D90: 1B 02 15 00 00 80 80 5C  3E 02 16 00 00 80 80 A9  .......\>.......
3DA0: 3D 03 11 00 01 80 01 59  3E 02 16 00 20 80 80 B9  =......Y>... ...
3DB0: 3D 03 11 00 21 80 01 59  3E 02 16 00 21 80 80 C9  =...!..Y>...!...
3DC0: 3D 03 11 00 97 80 01 59  3E 02 16 00 22 80 80 D9  =......Y>..."...
3DD0: 3D 03 11 00 B5 80 01 59  3E 02 16 00 23 80 80 E9  =......Y>...#...
3DE0: 3D 03 11 00 99 80 01 59  3E 02 16 00 24 80 80 F9  =......Y>...$...
3DF0: 3D 03 11 00 5B 80 01 59  3E 02 16 00 25 80 80 09  =...[..Y>...%...
3E00: 3E 03 11 00 31 80 01 59  3E 02 16 00 26 80 80 19  >...1..Y>...&...
3E10: 3E 03 11 00 A2 80 01 59  3E 02 16 00 30 80 80 29  >......Y>...0..)
3E20: 3E 03 11 00 A1 80 01 59  3E 02 16 00 31 80 80 39  >......Y>...1..9
3E30: 3E 03 11 00 B4 80 01 59  3E 02 16 00 32 80 80 49  >......Y>...2..I
3E40: 3E 03 11 00 B6 80 01 59  3E 02 16 00 3A 80 80 59  >......Y>...:..Y
3E50: 3E 03 11 00 B3 80 01 59  3E 01 BD 40 02 15 00 20  >......Y>..@... 
3E60: 80 80 27 3F 02 16 00 00  80 80 74 3E 03 11 00 25  ..'?......t>...%
3E70: 80 01 24 3F 02 16 00 20  80 80 84 3E 03 11 00 24  ..$?... ...>...$
3E80: 80 01 24 3F 02 16 00 21  80 80 94 3E 03 11 00 95  ..$?...!...>....
3E90: 80 01 24 3F 02 16 00 22  80 80 A4 3E 03 11 00 8F  ..$?..."...>....
3EA0: 80 01 24 3F 02 16 00 23  80 80 B4 3E 03 11 00 A4  ..$?...#...>....
3EB0: 80 01 24 3F 02 16 00 24  80 80 C4 3E 03 11 00 37  ..$?...$...>...7
3EC0: 80 01 24 3F 02 16 00 25  80 80 D4 3E 03 11 00 26  ..$?...%...>...&
3ED0: 80 01 24 3F 02 16 00 26  80 80 E4 3E 03 11 00 23  ..$?...&...>...#
3EE0: 80 01 24 3F 02 16 00 30  80 80 F4 3E 03 11 00 06  ..$?...0...>....
3EF0: 80 01 24 3F 02 16 00 31  80 80 04 3F 03 11 00 3D  ..$?...1...?...=
3F00: 80 01 24 3F 02 16 00 32  80 80 14 3F 03 11 00 A0  ..$?...2...?....
3F10: 80 01 24 3F 02 16 00 3A  80 80 24 3F 03 11 00 B2  ..$?...:..$?....
3F20: 80 01 24 3F 01 BD 40 02  15 00 21 80 80 F2 3F 02  ..$?..@...!...?.
3F30: 16 00 00 80 80 3F 3F 03  11 00 3F 80 01 EF 3F 02  .....??...?...?.
3F40: 16 00 20 80 80 4F 3F 03  11 00 96 80 01 EF 3F 02  .. ..O?.......?.
3F50: 16 00 21 80 80 5F 3F 03  11 00 AC 80 01 EF 3F 02  ..!.._?.......?.
3F60: 16 00 22 80 80 6F 3F 03  11 00 36 80 01 EF 3F 02  .."..o?...6...?.
3F70: 16 00 23 80 80 7F 3F 03  11 00 33 80 01 EF 3F 02  ..#...?...3...?.
3F80: 16 00 24 80 80 8F 3F 03  11 00 35 80 01 EF 3F 02  ..$...?...5...?.
3F90: 16 00 25 80 80 9F 3F 03  11 00 34 80 01 EF 3F 02  ..%...?...4...?.
3FA0: 16 00 26 80 80 AF 3F 03  11 00 3A 80 01 EF 3F 02  ..&...?...:...?.
3FB0: 16 00 30 80 80 BF 3F 03  11 00 98 80 01 EF 3F 02  ..0...?.......?.
3FC0: 16 00 31 80 80 CF 3F 03  11 00 A8 80 01 EF 3F 02  ..1...?.......?.
3FD0: 16 00 32 80 80 DF 3F 03  11 00 B0 80 01 EF 3F 02  ..2...?.......?.
3FE0: 16 00 3A 80 80 EF 3F 03  11 00 60 80 01 EF 3F 01  ..:...?...`...?.
3FF0: BD 40 02 15 00 22 80 80  BD 40 02 16 00 00 80 80  .@..."...@......
4000: 0A 40 03 11 00 30 80 01  BA 40 02 16 00 20 80 80  .@...0...@... ..
4010: 1A 40 03 11 00 28 80 01  BA 40 02 16 00 21 80 80  .@...(...@...!..
4020: 2A 40 03 11 00 22 80 01  BA 40 02 16 00 22 80 80  *@..."...@..."..
4030: 3A 40 03 11 00 3C 80 01  BA 40 02 16 00 23 80 80  :@...<...@...#..
4040: 4A 40 03 11 00 BE 80 01  BA 40 02 16 00 24 80 80  J@.......@...$..
4050: 5A 40 03 11 00 00 80 01  BA 40 02 16 00 25 80 80  Z@.......@...%..
4060: 6A 40 03 11 00 3B 80 01  BA 40 02 16 00 26 80 80  j@...;...@...&..
4070: 7A 40 03 11 00 AA 80 01  BA 40 02 16 00 30 80 80  z@.......@...0..
4080: 8A 40 03 11 00 32 80 01  BA 40 02 16 00 31 80 80  .@...2...@...1..
4090: 9A 40 03 11 00 38 80 01  BA 40 02 16 00 32 80 80  .@...8...@...2..
40A0: AA 40 03 11 00 B1 80 01  BA 40 02 16 00 3A 80 80  .@.......@...:..
40B0: BA 40 03 11 00 BB 80 01  BA 40 01 BD 40 1B 02 17  .@.......@..@...
40C0: 00 00 80 80 5C 41 02 16  00 00 80 80 DB 40 03 12  ....\A.......@..
40D0: 00 6E 80 03 13 00 6E 80  01 59 41 02 16 00 20 80  .n....n..YA... .
40E0: 80 F0 40 03 12 00 A7 80  03 13 00 A7 80 01 59 41  ..@...........YA
40F0: 02 16 00 21 80 80 05 41  03 12 00 60 80 03 13 00  ...!...A...`....
4100: 60 80 01 59 41 02 16 00  22 80 80 1A 41 03 12 00  `..YA..."...A...
