# 17780743 - Aldo

## Common Data

| Field            | Value                 |
|------------------|-----------------------|
| Zone             | Lower Jeuno (ID: 245) |
| Block Size       | 3228 bytes            |
| Total Events     | 104                   |
| References Count | 154                   |

## List of Events

| Event ID                   | Entrypoint   |   Size |   Instructions |
|----------------------------|--------------|--------|----------------|
| [65535](#event-65535)      | 0x0000       |      4 |              2 |
| [86](#event-86)            | 0x0004       |     22 |              4 |
| [65535.1](#event-655351)   | 0x001A       |     15 |              5 |
| [65535.2](#event-655352)   | 0x0029       |     24 |              6 |
| [65535.3](#event-655353)   | 0x0041       |     31 |              7 |
| [22](#event-22)            | 0x0060       |     32 |              5 |
| [10102](#event-10102)      | 0x0080       |     17 |              9 |
| [10103](#event-10103)      | 0x0091       |     21 |             11 |
| [6](#event-6)              | 0x00A6       |     13 |              7 |
| [7](#event-7)              | 0x00B3       |     17 |              9 |
| [8](#event-8)              | 0x00C4       |     13 |              7 |
| [104](#event-104)          | 0x00D1       |      1 |              1 |
| [21](#event-21)            | 0x00D2       |     60 |             12 |
| [20](#event-20)            | 0x010E       |     40 |              9 |
| [65535.4](#event-655354)   | 0x0136       |     11 |              3 |
| [65535.5](#event-655355)   | 0x0141       |     24 |              6 |
| [65535.6](#event-655356)   | 0x0159       |    112 |             14 |
| [65535.7](#event-655357)   | 0x01C9       |     21 |              5 |
| [65535.8](#event-655358)   | 0x01DE       |     15 |              5 |
| [65535.9](#event-655359)   | 0x01ED       |     23 |              7 |
| [85](#event-85)            | 0x0204       |     17 |              9 |
| [68](#event-68)            | 0x0215       |     36 |              6 |
| [19](#event-19)            | 0x0239       |     23 |              8 |
| [161](#event-161)          | 0x0250       |     31 |             10 |
| [152](#event-152)          | 0x026F       |      1 |              1 |
| [183](#event-183)          | 0x0270       |     64 |             17 |
| [83](#event-83)            | 0x02B0       |      1 |              1 |
| [84](#event-84)            | 0x02B1       |      1 |              1 |
| [24](#event-24)            | 0x02B2       |     25 |              7 |
| [111](#event-111)          | 0x02CB       |      1 |              1 |
| [69](#event-69)            | 0x02CC       |     33 |              9 |
| [65535.10](#event-6553510) | 0x02ED       |     14 |              4 |
| [65535.11](#event-6553511) | 0x02FB       |     11 |              3 |
| [65535.12](#event-6553512) | 0x0306       |     12 |              3 |
| [65535.13](#event-6553513) | 0x0312       |     20 |              6 |
| [65535.14](#event-6553514) | 0x0326       |     10 |              2 |
| [65535.15](#event-6553515) | 0x0330       |     20 |              6 |
| [65535.16](#event-6553516) | 0x0344       |     12 |              4 |
| [65535.17](#event-6553517) | 0x0350       |     11 |              3 |
| [65535.18](#event-6553518) | 0x035B       |     12 |              4 |
| [48](#event-48)            | 0x0367       |     12 |              3 |
| [65535.19](#event-6553519) | 0x0373       |     10 |              2 |
| [65535.20](#event-6553520) | 0x037D       |     21 |              5 |
| [65535.21](#event-6553521) | 0x0392       |     11 |              3 |
| [65535.22](#event-6553522) | 0x039D       |     11 |              3 |
| [65535.23](#event-6553523) | 0x03A8       |     20 |              4 |
| [65535.24](#event-6553524) | 0x03BC       |     31 |              7 |
| [65535.25](#event-6553525) | 0x03DB       |     19 |              3 |
| [65535.26](#event-6553526) | 0x03EE       |     29 |              3 |
| [65535.27](#event-6553527) | 0x040B       |     19 |              3 |
| [65535.28](#event-6553528) | 0x041E       |     29 |              3 |
| [65535.29](#event-6553529) | 0x043B       |     19 |              3 |
| [65535.30](#event-6553530) | 0x044E       |     29 |              3 |
| [65535.31](#event-6553531) | 0x046B       |     19 |              3 |
| [65535.32](#event-6553532) | 0x047E       |     29 |              3 |
| [65535.33](#event-6553533) | 0x049B       |     29 |              3 |
| [65535.34](#event-6553534) | 0x04B8       |      9 |              3 |
| [65535.35](#event-6553535) | 0x04C1       |      1 |              1 |
| [10051](#event-10051)      | 0x04C2       |      1 |              1 |
| [10057](#event-10057)      | 0x04C3       |      1 |              1 |
| [10058](#event-10058)      | 0x04C4       |     68 |             17 |
| [65535.36](#event-6553536) | 0x0508       |     15 |              5 |
| [10094](#event-10094)      | 0x0517       |      4 |              2 |
| [65535.37](#event-6553537) | 0x051B       |     16 |              2 |
| [65535.38](#event-6553538) | 0x052B       |     16 |              2 |
| [65535.39](#event-6553539) | 0x053B       |     16 |              2 |
| [65535.40](#event-6553540) | 0x054B       |     16 |              2 |
| [65535.41](#event-6553541) | 0x055B       |     16 |              2 |
| [65535.42](#event-6553542) | 0x056B       |     16 |              2 |
| [65535.43](#event-6553543) | 0x057B       |     16 |              2 |
| [65535.44](#event-6553544) | 0x058B       |     16 |              2 |
| [65535.45](#event-6553545) | 0x059B       |     16 |              2 |
| [65535.46](#event-6553546) | 0x05AB       |     19 |              5 |
| [65535.47](#event-6553547) | 0x05BE       |      3 |              2 |
| [65535.48](#event-6553548) | 0x05C1       |      2 |              2 |
| [10100](#event-10100)      | 0x05C3       |      1 |              1 |
| [65535.49](#event-6553549) | 0x05C4       |     27 |              9 |
| [65535.50](#event-6553550) | 0x05DF       |     19 |              3 |
| [65535.51](#event-6553551) | 0x05F2       |     29 |              3 |
| [65535.52](#event-6553552) | 0x060F       |     19 |              3 |
| [65535.53](#event-6553553) | 0x0622       |     16 |              2 |
| [65535.54](#event-6553554) | 0x0632       |     29 |              3 |
| [65535.55](#event-6553555) | 0x064F       |     29 |              3 |
| [65535.56](#event-6553556) | 0x066C       |     16 |              2 |
| [65535.57](#event-6553557) | 0x067C       |     29 |              3 |
| [65535.58](#event-6553558) | 0x0699       |     14 |              4 |
| [65535.59](#event-6553559) | 0x06A7       |     19 |              3 |
| [65535.60](#event-6553560) | 0x06BA       |     19 |              3 |
| [65535.61](#event-6553561) | 0x06CD       |     19 |              3 |
| [65535.62](#event-6553562) | 0x06E0       |     19 |              3 |
| [65535.63](#event-6553563) | 0x06F3       |     19 |              3 |
| [10101](#event-10101)      | 0x0706       |      1 |              1 |
| [65535.64](#event-6553564) | 0x0707       |     16 |              2 |
| [65535.65](#event-6553565) | 0x0717       |     19 |              3 |
| [10125](#event-10125)      | 0x072A       |      1 |              1 |
| [65535.66](#event-6553566) | 0x072B       |     24 |              6 |
| [65535.67](#event-6553567) | 0x0743       |     23 |              5 |
| [65535.68](#event-6553568) | 0x075A       |      6 |              4 |
| [10063](#event-10063)      | 0x0760       |      1 |              1 |
| [10064](#event-10064)      | 0x0761       |      1 |              1 |
| [65535.69](#event-6553569) | 0x0762       |     26 |              6 |
| [65535.70](#event-6553570) | 0x077C       |     14 |              4 |
| [10130](#event-10130)      | 0x078A       |    181 |             36 |
| [10131](#event-10131)      | 0x083F       |     69 |             17 |

## DAT References (imed_data)

|   Index | Hex Value   |   Dec Value |
|---------|-------------|-------------|
|       0 | 0x000D      |          13 |
|       1 | 0x9A19      |       39449 |
|       2 | 0xFFFFBBDB  |  4294949851 |
|       3 | 0xFFFFFF9D  |  4294967197 |
|       4 | 0x0913      |        2323 |
|       5 | 0x9199      |       37273 |
|       6 | 0xFFFFC0F4  |  4294951156 |
|       7 | 0xFFFFFF91  |  4294967185 |
|       8 | 0xA4CB      |       42187 |
|       9 | 0xFFFFB4C8  |  4294948040 |
|      10 | 0xA672      |       42610 |
|      11 | 0xFFFFA75B  |  4294944603 |
|      12 | 0x4852      |       18514 |
|      13 | 0xFFFF2D7F  |  4294913407 |
|      14 | 0x0F3B      |        3899 |
|      15 | 0x0375      |         885 |
|      16 | 0x003C      |          60 |
|      17 | 0x4F86      |       20358 |
|      18 | 0xFFFF1DF2  |  4294909426 |
|      19 | 0x0F1D      |        3869 |
|      20 | 0x448E      |       17550 |
|      21 | 0xFFFF2667  |  4294911591 |
|      22 | 0x0DD6      |        3542 |
|      23 | 0x26F1      |        9969 |
|      24 | 0x26F2      |        9970 |
|      25 | 0x2701      |        9985 |
|      26 | 0x26FF      |        9983 |
|      27 | 0x2702      |        9986 |
|      28 | 0x21E0      |        8672 |
|      29 | 0x21F6      |        8694 |
|      30 | 0x21F7      |        8695 |
|      31 | 0x21F8      |        8696 |
|      32 | 0x00B9      |         185 |
|      33 | 0x2134      |        8500 |
|      34 | 0x2135      |        8501 |
|      35 | 0x8194      |       33172 |
|      36 | 0xFFFF6CA4  |  4294929572 |
|      37 | 0x05C3      |        1475 |
|      38 | 0x8131      |       33073 |
|      39 | 0xFFFF68A6  |  4294928550 |
|      40 | 0x0A13      |        2579 |
|      41 | 0x0008      |           8 |
|      42 | 0x0000      |           0 |
|      43 | 0x7D00      |       32000 |
|      44 | 0xFFFF5D93  |  4294925715 |
|      45 | 0x7F59      |       32601 |
|      46 | 0xFFFF45D8  |  4294919640 |
|      47 | 0x00C8      |         200 |
|      48 | 0x837E      |       33662 |
|      49 | 0xFFFF3315  |  4294914837 |
|      50 | 0x9315      |       37653 |
|      51 | 0xFFFF2675  |  4294911605 |
|      52 | 0x0DAD      |        3501 |
|      53 | 0x4E29      |       20009 |
|      54 | 0xFFFF1B6E  |  4294908782 |
|      55 | 0x5239      |       21049 |
|      56 | 0xFFFF0FA6  |  4294905766 |
|      57 | 0x0186      |         390 |
|      58 | 0x20DA      |        8410 |
|      59 | 0x20DB      |        8411 |
|      60 | 0x20E5      |        8421 |
|      61 | 0x1BFE      |        7166 |
|      62 | 0x1C1A      |        7194 |
|      63 | 0x1C1B      |        7195 |
|      64 | 0x1C1C      |        7196 |
|      65 | 0x1C1D      |        7197 |
|      66 | 0x1C1E      |        7198 |
|      67 | 0x20F4      |        8436 |
|      68 | 0x2111      |        8465 |
|      69 | 0x2112      |        8466 |
|      70 | 0x4E79      |       20089 |
|      71 | 0xFFFF186D  |  4294908013 |
|      72 | 0x489A      |       18586 |
|      73 | 0xFFFF326B  |  4294914667 |
|      74 | 0x196B      |        6507 |
|      75 | 0x10C8B     |       68747 |
|      76 | 0x07D0      |        2000 |
|      77 | 0x0F9A      |        3994 |
|      78 | 0x24A6      |        9382 |
|      79 | 0x111D7     |       70103 |
|      80 | 0x07CF      |        1999 |
|      81 | 0x4F9A      |       20378 |
|      82 | 0xFFFFEDA7  |  4294962599 |
|      83 | 0x0D68      |        3432 |
|      84 | 0x590D      |       22797 |
|      85 | 0x0D06      |        3334 |
|      86 | 0x592E      |       22830 |
|      87 | 0x0F89      |        3977 |
|      88 | 0x0584      |        1412 |
|      89 | 0x53C4      |       21444 |
|      90 | 0xFFFF1BD1  |  4294908881 |
|      91 | 0x0917      |        2327 |
|      92 | 0xFFFF7B66  |  4294933350 |
|      93 | 0xFFFDE4AB  |  4294829227 |
|      94 | 0x157B      |        5499 |
|      95 | 0x4F65      |       20325 |
|      96 | 0xFFFF113D  |  4294906173 |
|      97 | 0x0176      |         374 |
|      98 | 0x4CF9      |       19705 |
|      99 | 0xFFFF1F54  |  4294909780 |
|     100 | 0x50F4      |       20724 |
|     101 | 0xFFFF2292  |  4294910610 |
|     102 | 0xFFFF89D6  |  4294937046 |
|     103 | 0xFFFDE1C2  |  4294828482 |
|     104 | 0xFFFF920A  |  4294939146 |
|     105 | 0xFFFDE5BE  |  4294829502 |
|     106 | 0x001E      |          30 |
|     107 | 0x2524      |        9508 |
|     108 | 0x2525      |        9509 |
|     109 | 0x2526      |        9510 |
|     110 | 0x4E35      |       20021 |
|     111 | 0xFFFF14B2  |  4294907058 |
|     112 | 0x0001      |           1 |
|     113 | 0x0A29      |        2601 |
|     114 | 0x004E      |          78 |
|     115 | 0x000A      |          10 |
|     116 | 0x4F2E      |       20270 |
|     117 | 0xFFFF1638  |  4294907448 |
|     118 | 0x52D0      |       21200 |
|     119 | 0xFFFF1C8A  |  4294909066 |
|     120 | 0x000C      |          12 |
|     121 | 0x4726      |       18214 |
|     122 | 0xFFFF3333  |  4294914867 |
|     123 | 0x0AC9      |        2761 |
|     124 | 0x00B4      |         180 |
|     125 | 0x0060      |          96 |
|     126 | 0x0087      |         135 |
|     127 | 0x0118      |         280 |
|     128 | 0x0ACD      |        2765 |
|     129 | 0x007C      |         124 |
|     130 | 0x971A      |       38682 |
|     131 | 0xFFFF265B  |  4294911579 |
|     132 | 0x0DAC      |        3500 |
|     133 | 0x7E9C      |       32412 |
|     134 | 0xFFFF33B7  |  4294914999 |
|     135 | 0x0F3C      |        3900 |
|     136 | 0xFFFFFC01  |  4294966273 |
|     137 | 0xFFFF4548  |  4294919496 |
|     138 | 0x8EF8      |       36600 |
|     139 | 0xFFFF5C69  |  4294925417 |
|     140 | 0xA0B1      |       41137 |
|     141 | 0xFFFF51DC  |  4294922716 |
|     142 | 0x2926      |       10534 |
|     143 | 0x005A      |          90 |
|     144 | 0x2927      |       10535 |
|     145 | 0x0078      |         120 |
|     146 | 0x2928      |       10536 |
|     147 | 0x2929      |       10537 |
|     148 | 0x292A      |       10538 |
|     149 | 0x292B      |       10539 |
|     150 | 0x292C      |       10540 |
|     151 | 0x292D      |       10541 |
|     152 | 0x292E      |       10542 |
|     153 | 0x292F      |       10543 |

## String References

- **8410**: Like I told you in Norg, I haven't seen Verena. After you met her in Castle Oztroja, she came back here and locked herself in her room.
- **8411**: I thought I would give her some time to herself, but when I went to check up on her, she had already gone. If you hear anything, please let me know.
- **8421**: This is the last time I'll be made a fool of by that Kam'lanaut. If he lays a finger on Verena... The last time I was this angry, I...
- **8500**: A lot has happened in the past few months... I don't know how long the news of the archduke and his brother is going to stay a secret, but that has nothing to do with me or the Tenshodo.
- **8501**: What to do now? Maybe I'll get myself a boat and sail around Vana'diel... Good luck on your journeys, <Player>, and may fortune smile upon you always!
- **8672**: It looks like you should probably turn yourself in, <Player>. This may be the only chance to try and prove your innocence.
- **8694**: You don't need to worry, <Player>. Our city's fine doctor is taking care of Prishe as we speak.
- **8695**: And as for the fiends that would do something like this, I guarantee you my men and women will find them.
- **8696**: If you're looking for Prishe, she and that rich boy Tenzen have already set sail for the Tavnazian Archipelago. You're following them, right?
- **9508**: You don't talk much, and I won't ask you about what happened beneath the light of that great, burning crystal.
- **9509**: I'm just happy to have Lion back among us. If you head to Norg, you might even be able to see her.
- **9510**: I'm just happy to have Lion back among us.
- **9969**: I trust I can rely on your full cooperation in rescuing the original Doctor Shantotto.
- **9970**: According to Professor Yoran-Oran, the doctor is being held captive in Ro'Maeve.
- **9983**: One can't expect to lock horns with a fearsome adversary like the doctor and come out unscathed.
- **9985**: There are matters I must settle here first before departure. The Tenshodo mustn't be left leaderless should the worst come to pass.
- **9986**: Go on ahead to the Sacrificial Chamber. I will join you there shortly.
- **10534**: Hello, <Player>. What brings you here today?
- **10535**: <Player> showed the $3.
- **10536**: Hmm... This is...
- **10537**: I had heard that it was related to some ancient technology, but now it all makes sense...
- **10538**: I suppose your intention here is to use the A.M.A.N. to have its adventurers solve the riddle.
- **10539**: As such, I suppose it's best if I give you free reign to operate, <Player>.
- **10540**: Just to be safe, I'll be sure to keep an eye on their movements as well.
- **10541**: Impressive as always, <Player>. You expertly solved that riddle that had vexed so many others.
- **10542**: I knew it was only a matter of time, but it's good to see that everything went according to expectations.
- **10543**: Well, leave the rest of this to me. I'll try to find out more about this most unusual device.

## Events

### Event 65535

#### Metadata

| Field        | Value   |
|--------------|---------|
| Entrypoint   | 0x0000  |
| Data Size    | 4 bytes |
| Instructions | 2       |

```
      00 01 02 03 04 05 06 07  08 09 0A 0B 0C 0D 0E 0F
      -- -- -- -- -- -- -- --  -- -- -- -- -- -- -- --
0000: 32 00 80 00                                       2...            
```

#### Opcodes

```
  0: 0x0000 [0x32] ExtData[1]->MainSpeed = 13* * 0.1
  1: 0x0003 [0x00] END_REQSTACK()
```

### Event 86

#### Metadata

| Field        | Value    |
|--------------|----------|
| Entrypoint   | 0x0004   |
| Data Size    | 22 bytes |
| Instructions | 4        |

```
      00 01 02 03 04 05 06 07  08 09 0A 0B 0C 0D 0E 0F
      -- -- -- -- -- -- -- --  -- -- -- -- -- -- -- --
0000:             94 01 F8 FF  FF 7F 92 01 F8 FF FF 7F      ............
0010: 37 01 80 02 80 03 80 04  80 00                    7.........      
```

#### Opcodes

```
  0: 0x0004 [0x94] EventEntity->Render.Flags3 ^= 0x01
  1: 0x000A [0x92] EventEntity->Render.Flags3 ^= 0x01
  2: 0x0010 [0x37] UPDATE_EVENT_POSITION_AND_DIR: x=39.449*, z=-17.445*, y=-0.099*, direction=204.2°*
  3: 0x0019 [0x00] END_REQSTACK()
```

### Event 65535.1

#### Metadata

| Field        | Value    |
|--------------|----------|
| Entrypoint   | 0x001A   |
| Data Size    | 15 bytes |
| Instructions | 5        |

```
      00 01 02 03 04 05 06 07  08 09 0A 0B 0C 0D 0E 0F
      -- -- -- -- -- -- -- --  -- -- -- -- -- -- -- --
0010:                                32 00 80 1F 00 05            2.....
0020: 80 06 80 07 80 1F 01 6F  00                       .......o.       
```

#### Opcodes

```
  0: 0x001A [0x32] ExtData[1]->MainSpeed = 13* * 0.1
  1: 0x001D [0x1F] MOVE_ENTITY: EventEntity moves to X=37.273*, Z=-16.140*, Y=-0.111*
  2: 0x0025 [0x1F] MOVE_ENTITY: Update entity position (mode=1)
  3: 0x0027 [0x6F] WAIT_FRAME_DELAY: Yield until WaitTime reaches zero
  4: 0x0028 [0x00] END_REQSTACK()
```

### Event 65535.2

#### Metadata

| Field        | Value    |
|--------------|----------|
| Entrypoint   | 0x0029   |
| Data Size    | 24 bytes |
| Instructions | 6        |

```
      00 01 02 03 04 05 06 07  08 09 0A 0B 0C 0D 0E 0F
      -- -- -- -- -- -- -- --  -- -- -- -- -- -- -- --
0020:                             32 00 80 1F 00 08 80           2......
0030: 09 80 03 80 1F 01 1F 00  0A 80 0B 80 03 80 1F 01  ................
0040: 00                                                .               
```

#### Opcodes

```
  0: 0x0029 [0x32] ExtData[1]->MainSpeed = 13* * 0.1
  1: 0x002C [0x1F] MOVE_ENTITY: EventEntity moves to X=42.187*, Z=-19.256*, Y=-0.099*
  2: 0x0034 [0x1F] MOVE_ENTITY: Update entity position (mode=1)
  3: 0x0036 [0x1F] MOVE_ENTITY: EventEntity moves to X=42.610*, Z=-22.693*, Y=-0.099*
  4: 0x003E [0x1F] MOVE_ENTITY: Update entity position (mode=1)
  5: 0x0040 [0x00] END_REQSTACK()
```

### Event 65535.3

#### Metadata

| Field        | Value    |
|--------------|----------|
| Entrypoint   | 0x0041   |
| Data Size    | 31 bytes |
| Instructions | 7        |

```
      00 01 02 03 04 05 06 07  08 09 0A 0B 0C 0D 0E 0F
      -- -- -- -- -- -- -- --  -- -- -- -- -- -- -- --
0040:    37 0C 80 0D 80 0E 80  0F 80 1C 10 80 32 00 80   7...........2..
0050: 1F 00 11 80 12 80 13 80  1F 01 1E F0 FF FF 7F 00  ................
```

#### Opcodes

```
  0: 0x0041 [0x37] UPDATE_EVENT_POSITION_AND_DIR: x=18.514*, z=-53.889*, y=3.899*, direction=77.8°*
  1: 0x004A [0x1C] WAIT(60* ticks)
  2: 0x004D [0x32] ExtData[1]->MainSpeed = 13* * 0.1
  3: 0x0050 [0x1F] MOVE_ENTITY: EventEntity moves to X=20.358*, Z=-57.870*, Y=3.869*
  4: 0x0058 [0x1F] MOVE_ENTITY: Update entity position (mode=1)
  5: 0x005A [0x1E] EventEntity looks at LocalPlayer and starts talking
  6: 0x005F [0x00] END_REQSTACK()
```

### Event 22

#### Metadata

| Field        | Value    |
|--------------|----------|
| Entrypoint   | 0x0060   |
| Data Size    | 32 bytes |
| Instructions | 5        |

```
      00 01 02 03 04 05 06 07  08 09 0A 0B 0C 0D 0E 0F
      -- -- -- -- -- -- -- --  -- -- -- -- -- -- -- --
0060: 94 01 F8 FF FF 7F 92 01  F8 FF FF 7F 37 14 80 15  ............7...
0070: 80 13 80 16 80 79 00 F8  FF FF 7F 05 50 0F 01 00  .....y......P...
```

#### Opcodes

```
  0: 0x0060 [0x94] EventEntity->Render.Flags3 ^= 0x01
  1: 0x0066 [0x92] EventEntity->Render.Flags3 ^= 0x01
  2: 0x006C [0x37] UPDATE_EVENT_POSITION_AND_DIR: x=17.550*, z=-55.705*, y=3.869*, direction=311.3°*
  3: 0x0075 [0x79] EventEntity looks at Ulmia (ID: 17780741/0x010F5005) (Basic look)
  4: 0x007F [0x00] END_REQSTACK()
```

### Event 10102

#### Metadata

| Field        | Value    |
|--------------|----------|
| Entrypoint   | 0x0080   |
| Data Size    | 17 bytes |
| Instructions | 9        |

```
      00 01 02 03 04 05 06 07  08 09 0A 0B 0C 0D 0E 0F
      -- -- -- -- -- -- -- --  -- -- -- -- -- -- -- --
0080: 1E F0 FF FF 7F 6F 70 1D  17 80 23 1D 18 80 23 21  .....op...#...#!
0090: 00                                                .               
```

#### Opcodes

```
  0: 0x0080 [0x1E] EventEntity looks at LocalPlayer and starts talking
  1: 0x0085 [0x6F] WAIT_FRAME_DELAY: Yield until WaitTime reaches zero
  2: 0x0086 [0x70] WAIT_ENTITY_RENDER_FLAG: Wait while EventEntity->Render.Flags3 bit 2 is set (cancel turn if not)
  3: 0x0087 [0x1D] PRINT_EVENT_MESSAGE(message_id=9969*)
    → "I trust I can rely on your full cooperation in rescuing the original Doctor Shantotto."
  4: 0x008A [0x23] WAIT_FOR_DIALOG_INTERACTION
  5: 0x008B [0x1D] PRINT_EVENT_MESSAGE(message_id=9970*)
    → "According to Professor Yoran-Oran, the doctor is being held captive in Ro'Maeve."
  6: 0x008E [0x23] WAIT_FOR_DIALOG_INTERACTION
  7: 0x008F [0x21] END_EVENT
  8: 0x0090 [0x00] END_REQSTACK()
```

### Event 10103

#### Metadata

| Field        | Value    |
|--------------|----------|
| Entrypoint   | 0x0091   |
| Data Size    | 21 bytes |
| Instructions | 11       |

```
      00 01 02 03 04 05 06 07  08 09 0A 0B 0C 0D 0E 0F
      -- -- -- -- -- -- -- --  -- -- -- -- -- -- -- --
0090:    1E F0 FF FF 7F 6F 70  1D 19 80 23 1D 1A 80 23   .....op...#...#
00A0: 1D 1B 80 23 21 00                                 ...#!.          
```

#### Opcodes

```
  0: 0x0091 [0x1E] EventEntity looks at LocalPlayer and starts talking
  1: 0x0096 [0x6F] WAIT_FRAME_DELAY: Yield until WaitTime reaches zero
  2: 0x0097 [0x70] WAIT_ENTITY_RENDER_FLAG: Wait while EventEntity->Render.Flags3 bit 2 is set (cancel turn if not)
  3: 0x0098 [0x1D] PRINT_EVENT_MESSAGE(message_id=9985*)
    → "There are matters I must settle here first before departure. The Tenshodo mustn't be left leaderless should the worst come to pass."
  4: 0x009B [0x23] WAIT_FOR_DIALOG_INTERACTION
  5: 0x009C [0x1D] PRINT_EVENT_MESSAGE(message_id=9983*)
    → "One can't expect to lock horns with a fearsome adversary like the doctor and come out unscathed."
  6: 0x009F [0x23] WAIT_FOR_DIALOG_INTERACTION
  7: 0x00A0 [0x1D] PRINT_EVENT_MESSAGE(message_id=9986*)
    → "Go on ahead to the Sacrificial Chamber. I will join you there shortly."
  8: 0x00A3 [0x23] WAIT_FOR_DIALOG_INTERACTION
  9: 0x00A4 [0x21] END_EVENT
 10: 0x00A5 [0x00] END_REQSTACK()
```

### Event 6

#### Metadata

| Field        | Value    |
|--------------|----------|
| Entrypoint   | 0x00A6   |
| Data Size    | 13 bytes |
| Instructions | 7        |

```
      00 01 02 03 04 05 06 07  08 09 0A 0B 0C 0D 0E 0F
      -- -- -- -- -- -- -- --  -- -- -- -- -- -- -- --
00A0:                   1E F0  FF FF 7F 6F 70 1D 1C 80        .....op...
00B0: 23 21 00                                          #!.             
```

#### Opcodes

```
  0: 0x00A6 [0x1E] EventEntity looks at LocalPlayer and starts talking
  1: 0x00AB [0x6F] WAIT_FRAME_DELAY: Yield until WaitTime reaches zero
  2: 0x00AC [0x70] WAIT_ENTITY_RENDER_FLAG: Wait while EventEntity->Render.Flags3 bit 2 is set (cancel turn if not)
  3: 0x00AD [0x1D] PRINT_EVENT_MESSAGE(message_id=8672*)
    → "It looks like you should probably turn yourself in, <Player>. This may be the only chance to try and prove your innocence."
  4: 0x00B0 [0x23] WAIT_FOR_DIALOG_INTERACTION
  5: 0x00B1 [0x21] END_EVENT
  6: 0x00B2 [0x00] END_REQSTACK()
```

### Event 7

#### Metadata

| Field        | Value    |
|--------------|----------|
| Entrypoint   | 0x00B3   |
| Data Size    | 17 bytes |
| Instructions | 9        |

```
      00 01 02 03 04 05 06 07  08 09 0A 0B 0C 0D 0E 0F
      -- -- -- -- -- -- -- --  -- -- -- -- -- -- -- --
00B0:          1E F0 FF FF 7F  6F 70 1D 1D 80 23 1D 1E     .....op...#..
00C0: 80 23 21 00                                       .#!.            
```

#### Opcodes

```
  0: 0x00B3 [0x1E] EventEntity looks at LocalPlayer and starts talking
  1: 0x00B8 [0x6F] WAIT_FRAME_DELAY: Yield until WaitTime reaches zero
  2: 0x00B9 [0x70] WAIT_ENTITY_RENDER_FLAG: Wait while EventEntity->Render.Flags3 bit 2 is set (cancel turn if not)
  3: 0x00BA [0x1D] PRINT_EVENT_MESSAGE(message_id=8694*)
    → "You don't need to worry, <Player>. Our city's fine doctor is taking care of Prishe as we speak."
  4: 0x00BD [0x23] WAIT_FOR_DIALOG_INTERACTION
  5: 0x00BE [0x1D] PRINT_EVENT_MESSAGE(message_id=8695*)
    → "And as for the fiends that would do something like this, I guarantee you my men and women will find them."
  6: 0x00C1 [0x23] WAIT_FOR_DIALOG_INTERACTION
  7: 0x00C2 [0x21] END_EVENT
  8: 0x00C3 [0x00] END_REQSTACK()
```

### Event 8

#### Metadata

| Field        | Value    |
|--------------|----------|
| Entrypoint   | 0x00C4   |
| Data Size    | 13 bytes |
| Instructions | 7        |

```
      00 01 02 03 04 05 06 07  08 09 0A 0B 0C 0D 0E 0F
      -- -- -- -- -- -- -- --  -- -- -- -- -- -- -- --
00C0:             1E F0 FF FF  7F 6F 70 1D 1F 80 23 21      .....op...#!
00D0: 00                                                .               
```

#### Opcodes

```
  0: 0x00C4 [0x1E] EventEntity looks at LocalPlayer and starts talking
  1: 0x00C9 [0x6F] WAIT_FRAME_DELAY: Yield until WaitTime reaches zero
  2: 0x00CA [0x70] WAIT_ENTITY_RENDER_FLAG: Wait while EventEntity->Render.Flags3 bit 2 is set (cancel turn if not)
  3: 0x00CB [0x1D] PRINT_EVENT_MESSAGE(message_id=8696*)
    → "If you're looking for Prishe, she and that rich boy Tenzen have already set sail for the Tavnazian Archipelago. You're following them, right?"
  4: 0x00CE [0x23] WAIT_FOR_DIALOG_INTERACTION
  5: 0x00CF [0x21] END_EVENT
  6: 0x00D0 [0x00] END_REQSTACK()
```

### Event 104

#### Metadata

| Field        | Value   |
|--------------|---------|
| Entrypoint   | 0x00D1  |
| Data Size    | 1 bytes |
| Instructions | 1       |

```
      00 01 02 03 04 05 06 07  08 09 0A 0B 0C 0D 0E 0F
      -- -- -- -- -- -- -- --  -- -- -- -- -- -- -- --
00D0:    00                                              .              
```

#### Opcodes

```
  0: 0x00D1 [0x00] END_REQSTACK()
```

### Event 21

#### Metadata

| Field        | Value    |
|--------------|----------|
| Entrypoint   | 0x00D2   |
| Data Size    | 60 bytes |
| Instructions | 12       |

```
      00 01 02 03 04 05 06 07  08 09 0A 0B 0C 0D 0E 0F
      -- -- -- -- -- -- -- --  -- -- -- -- -- -- -- --
00D0:       1E F0 FF FF 7F 6F  70 5B 20 80 F8 FF FF 7F    .....op[ .....
00E0: F8 FF FF 7F 6B 6F 73 30  1D 21 80 23 1D 22 80 23  ....kos0.!.#.".#
00F0: 5B 20 80 F8 FF FF 7F F8  FF FF 7F 6B 6F 73 31 53  [ .........kos1S
0100: F8 FF FF 7F F8 FF FF 7F  6B 6F 73 31 21 00        ........kos1!.  
```

#### Opcodes

```
  0: 0x00D2 [0x1E] EventEntity looks at LocalPlayer and starts talking
  1: 0x00D7 [0x6F] WAIT_FRAME_DELAY: Yield until WaitTime reaches zero
  2: 0x00D8 [0x70] WAIT_ENTITY_RENDER_FLAG: Wait while EventEntity->Render.Flags3 bit 2 is set (cancel turn if not)
  3: 0x00D9 [0x5B] LOAD_EXT_SCHEDULER: Load scheduler "kos0" with entities [EventEntity, EventEntity], work=185*
  4: 0x00E8 [0x1D] PRINT_EVENT_MESSAGE(message_id=8500*)
    → "A lot has happened in the past few months... I don't know how long the news of the archduke and his brother is going to stay a secret, but that has nothing to do with me or the Tenshodo."
  5: 0x00EB [0x23] WAIT_FOR_DIALOG_INTERACTION
  6: 0x00EC [0x1D] PRINT_EVENT_MESSAGE(message_id=8501*)
    → "What to do now? Maybe I'll get myself a boat and sail around Vana'diel... Good luck on your journeys, <Player>, and may fortune smile upon you always!"
  7: 0x00EF [0x23] WAIT_FOR_DIALOG_INTERACTION
  8: 0x00F0 [0x5B] LOAD_EXT_SCHEDULER: Load scheduler "kos1" with entities [EventEntity, EventEntity], work=185*
  9: 0x00FF [0x53] WAIT_SCHEDULER_TASK: Wait for scheduler "kos1" with entities [EventEntity, EventEntity]
 10: 0x010C [0x21] END_EVENT
 11: 0x010D [0x00] END_REQSTACK()
```

### Event 20

#### Metadata

| Field        | Value    |
|--------------|----------|
| Entrypoint   | 0x010E   |
| Data Size    | 40 bytes |
| Instructions | 9        |

```
      00 01 02 03 04 05 06 07  08 09 0A 0B 0C 0D 0E 0F
      -- -- -- -- -- -- -- --  -- -- -- -- -- -- -- --
0100:                                            22 01                ".
0110: 84 37 23 80 24 80 0E 80  25 80 80 F8 FF FF 7F 1E  .7#.$...%.......
0120: 0C 50 0F 01 6F 70 5B 20  80 F8 FF FF 7F F8 FF FF  .P..op[ ........
0130: 7F 6B 6F 73 30 00                                 .kos0.          
```

#### Opcodes

```
  0: 0x010E [0x22] ENTITY_HIDE_FLAG(enabled=0x01)
  1: 0x0110 [0x84] ADJUST_RENDER_FLAGS3_BIT0()
  2: 0x0111 [0x37] UPDATE_EVENT_POSITION_AND_DIR: x=33.172*, z=-37.724*, y=3.899*, direction=129.6°*
  3: 0x011A [0x80] LOAD_WAIT(entity=EventEntity)
  4: 0x011F [0x1E] EventEntity looks at Yin Pocanakhu (ID: 17780748/0x010F500C) and starts talking
  5: 0x0124 [0x6F] WAIT_FRAME_DELAY: Yield until WaitTime reaches zero
  6: 0x0125 [0x70] WAIT_ENTITY_RENDER_FLAG: Wait while EventEntity->Render.Flags3 bit 2 is set (cancel turn if not)
  7: 0x0126 [0x5B] LOAD_EXT_SCHEDULER: Load scheduler "kos0" with entities [EventEntity, EventEntity], work=185*
  8: 0x0135 [0x00] END_REQSTACK()
```

### Event 65535.4

#### Metadata

| Field        | Value    |
|--------------|----------|
| Entrypoint   | 0x0136   |
| Data Size    | 11 bytes |
| Instructions | 3        |

```
      00 01 02 03 04 05 06 07  08 09 0A 0B 0C 0D 0E 0F
      -- -- -- -- -- -- -- --  -- -- -- -- -- -- -- --
0130:                   1F 00  26 80 27 80 0E 80 1F 01        ..&.'.....
0140: 00                                                .               
```

#### Opcodes

```
  0: 0x0136 [0x1F] MOVE_ENTITY: EventEntity moves to X=33.073*, Z=-38.746*, Y=3.899*
  1: 0x013E [0x1F] MOVE_ENTITY: Update entity position (mode=1)
  2: 0x0140 [0x00] END_REQSTACK()
```

### Event 65535.5

#### Metadata

| Field        | Value    |
|--------------|----------|
| Entrypoint   | 0x0141   |
| Data Size    | 24 bytes |
| Instructions | 6        |

```
      00 01 02 03 04 05 06 07  08 09 0A 0B 0C 0D 0E 0F
      -- -- -- -- -- -- -- --  -- -- -- -- -- -- -- --
0140:    39 28 80 6F 70 5B 20  80 F8 FF FF 7F F8 FF FF   9(.op[ ........
0150: 7F 75 64 65 30 1C 10 80  00                       .ude0....       
```

#### Opcodes

```
  0: 0x0141 [0x39] SET_ENTITY_DIRECTION(direction=14.2°*)
  1: 0x0144 [0x6F] WAIT_FRAME_DELAY: Yield until WaitTime reaches zero
  2: 0x0145 [0x70] WAIT_ENTITY_RENDER_FLAG: Wait while EventEntity->Render.Flags3 bit 2 is set (cancel turn if not)
  3: 0x0146 [0x5B] LOAD_EXT_SCHEDULER: Load scheduler "ude0" with entities [EventEntity, EventEntity], work=185*
  4: 0x0155 [0x1C] WAIT(60* ticks)
  5: 0x0158 [0x00] END_REQSTACK()
```

### Event 65535.6

#### Metadata

| Field        | Value     |
|--------------|-----------|
| Entrypoint   | 0x0159    |
| Data Size    | 112 bytes |
| Instructions | 14        |

```
      00 01 02 03 04 05 06 07  08 09 0A 0B 0C 0D 0E 0F
      -- -- -- -- -- -- -- --  -- -- -- -- -- -- -- --
0150:                             45 29 80 F0 FF FF 7F           E).....
0160: F0 FF FF 7F 7A 30 32 32  2A 80 27 03 0B 50 0F 01  ....z022*.'..P..
0170: 03 27 03 0C 50 0F 01 08  27 03 0E 50 0F 01 0F 1F  .'..P...'..P....
0180: 00 2B 80 2C 80 0E 80 1F  01 4A F0 FF FF 7F 07 50  .+.,.....J.....P
0190: 0F 01 4A 0B 50 0F 01 07  50 0F 01 4A 0C 50 0F 01  ..J.P...P..J.P..
01A0: 07 50 0F 01 4A 0E 50 0F  01 07 50 0F 01 1F 00 2D  .P..J.P...P....-
01B0: 80 2E 80 0E 80 1F 01 45  2F 80 F0 FF FF 7F F0 FF  .......E/.......
01C0: FF 7F 66 64 6F 32 2A 80  00                       ..fdo2*..       
```

#### Opcodes

```
  0: 0x0159 [0x45] LOAD_SCHEDULED_TASK: Load scheduler "z022" with entities [LocalPlayer, LocalPlayer], work=[8*, 0*]
  1: 0x016A [0x27] REQ_SET(priority=0x03, entity_id=Garnev (ID: 17780747/0x010F500B), tag_num=0x03)
  2: 0x0171 [0x27] REQ_SET(priority=0x03, entity_id=Yin Pocanakhu (ID: 17780748/0x010F500C), tag_num=0x08)
  3: 0x0178 [0x27] REQ_SET(priority=0x03, entity_id=Sattal-Mansal (ID: 17780750/0x010F500E), tag_num=0x0F)
  4: 0x017F [0x1F] MOVE_ENTITY: EventEntity moves to X=32.000*, Z=-41.581*, Y=3.899*
  5: 0x0187 [0x1F] MOVE_ENTITY: Update entity position (mode=1)
  6: 0x0189 [0x4A] LocalPlayer looks at Aldo (ID: 17780743/0x010F5007)
  7: 0x0192 [0x4A] Garnev (ID: 17780747/0x010F500B) looks at Aldo (ID: 17780743/0x010F5007)
  8: 0x019B [0x4A] Yin Pocanakhu (ID: 17780748/0x010F500C) looks at Aldo (ID: 17780743/0x010F5007)
  9: 0x01A4 [0x4A] Sattal-Mansal (ID: 17780750/0x010F500E) looks at Aldo (ID: 17780743/0x010F5007)
 10: 0x01AD [0x1F] MOVE_ENTITY: EventEntity moves to X=32.601*, Z=-47.656*, Y=3.899*
 11: 0x01B5 [0x1F] MOVE_ENTITY: Update entity position (mode=1)
 12: 0x01B7 [0x45] LOAD_SCHEDULED_TASK: Load scheduler "fdo2" with entities [LocalPlayer, LocalPlayer], work=[200*, 0*]
 13: 0x01C8 [0x00] END_REQSTACK()
```

### Event 65535.7

#### Metadata

| Field        | Value    |
|--------------|----------|
| Entrypoint   | 0x01C9   |
| Data Size    | 21 bytes |
| Instructions | 5        |

```
      00 01 02 03 04 05 06 07  08 09 0A 0B 0C 0D 0E 0F
      -- -- -- -- -- -- -- --  -- -- -- -- -- -- -- --
01C0:                             1F 00 30 80 31 80 0E           ..0.1..
01D0: 80 1F 01 1F 00 32 80 33  80 34 80 1F 01 00        .....2.3.4....  
```

#### Opcodes

```
  0: 0x01C9 [0x1F] MOVE_ENTITY: EventEntity moves to X=33.662*, Z=-52.459*, Y=3.899*
  1: 0x01D1 [0x1F] MOVE_ENTITY: Update entity position (mode=1)
  2: 0x01D3 [0x1F] MOVE_ENTITY: EventEntity moves to X=37.653*, Z=-55.691*, Y=3.501*
  3: 0x01DB [0x1F] MOVE_ENTITY: Update entity position (mode=1)
  4: 0x01DD [0x00] END_REQSTACK()
```

### Event 65535.8

#### Metadata

| Field        | Value    |
|--------------|----------|
| Entrypoint   | 0x01DE   |
| Data Size    | 15 bytes |
| Instructions | 5        |

```
      00 01 02 03 04 05 06 07  08 09 0A 0B 0C 0D 0E 0F
      -- -- -- -- -- -- -- --  -- -- -- -- -- -- -- --
01D0:                                            32 00                2.
01E0: 80 1F 00 35 80 36 80 13  80 1F 01 6F 00           ...5.6.....o.   
```

#### Opcodes

```
  0: 0x01DE [0x32] ExtData[1]->MainSpeed = 13* * 0.1
  1: 0x01E1 [0x1F] MOVE_ENTITY: EventEntity moves to X=20.009*, Z=-58.514*, Y=3.869*
  2: 0x01E9 [0x1F] MOVE_ENTITY: Update entity position (mode=1)
  3: 0x01EB [0x6F] WAIT_FRAME_DELAY: Yield until WaitTime reaches zero
  4: 0x01EC [0x00] END_REQSTACK()
```

### Event 65535.9

#### Metadata

| Field        | Value    |
|--------------|----------|
| Entrypoint   | 0x01ED   |
| Data Size    | 23 bytes |
| Instructions | 7        |

```
      00 01 02 03 04 05 06 07  08 09 0A 0B 0C 0D 0E 0F
      -- -- -- -- -- -- -- --  -- -- -- -- -- -- -- --
01E0:                                         37 37 80               77.
01F0: 38 80 0E 80 39 80 84 5E  69 64 6C 30 1E F0 FF FF  8...9..^idl0....
0200: 7F 6F 70 00                                       .op.            
```

#### Opcodes

```
  0: 0x01ED [0x37] UPDATE_EVENT_POSITION_AND_DIR: x=21.049*, z=-61.530*, y=3.899*, direction=34.3°*
  1: 0x01F6 [0x84] ADJUST_RENDER_FLAGS3_BIT0()
  2: 0x01F7 [0x5E] EventEntity goes idle (kills current action) (animation: "idl0")
  3: 0x01FC [0x1E] EventEntity looks at LocalPlayer and starts talking
  4: 0x0201 [0x6F] WAIT_FRAME_DELAY: Yield until WaitTime reaches zero
  5: 0x0202 [0x70] WAIT_ENTITY_RENDER_FLAG: Wait while EventEntity->Render.Flags3 bit 2 is set (cancel turn if not)
  6: 0x0203 [0x00] END_REQSTACK()
```

### Event 85

#### Metadata

| Field        | Value    |
|--------------|----------|
| Entrypoint   | 0x0204   |
| Data Size    | 17 bytes |
| Instructions | 9        |

```
      00 01 02 03 04 05 06 07  08 09 0A 0B 0C 0D 0E 0F
      -- -- -- -- -- -- -- --  -- -- -- -- -- -- -- --
0200:             1E F0 FF FF  7F 6F 70 1D 3A 80 23 1D      .....op.:.#.
0210: 3B 80 23 21 00                                    ;.#!.           
```

#### Opcodes

```
  0: 0x0204 [0x1E] EventEntity looks at LocalPlayer and starts talking
  1: 0x0209 [0x6F] WAIT_FRAME_DELAY: Yield until WaitTime reaches zero
  2: 0x020A [0x70] WAIT_ENTITY_RENDER_FLAG: Wait while EventEntity->Render.Flags3 bit 2 is set (cancel turn if not)
  3: 0x020B [0x1D] PRINT_EVENT_MESSAGE(message_id=8410*)
    → "Like I told you in Norg, I haven't seen Verena. After you met her in Castle Oztroja, she came back here and locked herself in her room."
  4: 0x020E [0x23] WAIT_FOR_DIALOG_INTERACTION
  5: 0x020F [0x1D] PRINT_EVENT_MESSAGE(message_id=8411*)
    → "I thought I would give her some time to herself, but when I went to check up on her, she had already gone. If you hear anything, please let me know."
  6: 0x0212 [0x23] WAIT_FOR_DIALOG_INTERACTION
  7: 0x0213 [0x21] END_EVENT
  8: 0x0214 [0x00] END_REQSTACK()
```

### Event 68

#### Metadata

| Field        | Value    |
|--------------|----------|
| Entrypoint   | 0x0215   |
| Data Size    | 36 bytes |
| Instructions | 6        |

```
      00 01 02 03 04 05 06 07  08 09 0A 0B 0C 0D 0E 0F
      -- -- -- -- -- -- -- --  -- -- -- -- -- -- -- --
0210:                5B 20 80  F8 FF FF 7F F8 FF FF 7F       [ .........
0220: 6B 6F 73 30 1D 3C 80 23  5B 20 80 F8 FF FF 7F F8  kos0.<.#[ ......
0230: FF FF 7F 6B 6F 73 31 21  00                       ...kos1!.       
```

#### Opcodes

```
  0: 0x0215 [0x5B] LOAD_EXT_SCHEDULER: Load scheduler "kos0" with entities [EventEntity, EventEntity], work=185*
  1: 0x0224 [0x1D] PRINT_EVENT_MESSAGE(message_id=8421*)
    → "This is the last time I'll be made a fool of by that Kam'lanaut. If he lays a finger on Verena... The last time I was this angry, I..."
  2: 0x0227 [0x23] WAIT_FOR_DIALOG_INTERACTION
  3: 0x0228 [0x5B] LOAD_EXT_SCHEDULER: Load scheduler "kos1" with entities [EventEntity, EventEntity], work=185*
  4: 0x0237 [0x21] END_EVENT
  5: 0x0238 [0x00] END_REQSTACK()
```

### Event 19

#### Metadata

| Field        | Value    |
|--------------|----------|
| Entrypoint   | 0x0239   |
| Data Size    | 23 bytes |
| Instructions | 8        |

```
      00 01 02 03 04 05 06 07  08 09 0A 0B 0C 0D 0E 0F
      -- -- -- -- -- -- -- --  -- -- -- -- -- -- -- --
0230:                             20 01 4A 07 50 0F 01            .J.P..
0240: F0 FF FF 7F 6F 70 2B 07  50 0F 01 3D 80 23 21 00  ....op+.P..=.#!.
```

#### Opcodes

```
  0: 0x0239 [0x20] SET_CLI_EVENT_UC_FLAG: Lock player control
  1: 0x023B [0x4A] Aldo (ID: 17780743/0x010F5007) looks at LocalPlayer
  2: 0x0244 [0x6F] WAIT_FRAME_DELAY: Yield until WaitTime reaches zero
  3: 0x0245 [0x70] WAIT_ENTITY_RENDER_FLAG: Wait while EventEntity->Render.Flags3 bit 2 is set (cancel turn if not)
  4: 0x0246 [0x2B] Aldo (ID: 17780743/0x010F5007) [7166*]:
    → "Hi. I'm Aldo, head of Tenshodo. We deal in things you can't buy anywhere else. Take your time and have a look around."
  5: 0x024D [0x23] WAIT_FOR_DIALOG_INTERACTION
  6: 0x024E [0x21] END_EVENT
  7: 0x024F [0x00] END_REQSTACK()
```

### Event 161

#### Metadata

| Field        | Value    |
|--------------|----------|
| Entrypoint   | 0x0250   |
| Data Size    | 31 bytes |
| Instructions | 10       |

```
      00 01 02 03 04 05 06 07  08 09 0A 0B 0C 0D 0E 0F
      -- -- -- -- -- -- -- --  -- -- -- -- -- -- -- --
0250: 20 01 4A 07 50 0F 01 F0  FF FF 7F 6F 70 2B 07 50   .J.P......op+.P
0260: 0F 01 3E 80 23 2B 07 50  0F 01 3F 80 23 21 00     ..>.#+.P..?.#!. 
```

#### Opcodes

```
  0: 0x0250 [0x20] SET_CLI_EVENT_UC_FLAG: Lock player control
  1: 0x0252 [0x4A] Aldo (ID: 17780743/0x010F5007) looks at LocalPlayer
  2: 0x025B [0x6F] WAIT_FRAME_DELAY: Yield until WaitTime reaches zero
  3: 0x025C [0x70] WAIT_ENTITY_RENDER_FLAG: Wait while EventEntity->Render.Flags3 bit 2 is set (cancel turn if not)
  4: 0x025D [0x2B] Aldo (ID: 17780743/0x010F5007) [7194*]:
    → "Magicite is found deep inside Castle Oztroja, Davoi, and Beadeaux. Those places are thick with murderous beastmen, and their traps are cunning."
  5: 0x0264 [0x23] WAIT_FOR_DIALOG_INTERACTION
  6: 0x0265 [0x2B] Aldo (ID: 17780743/0x010F5007) [7195*]:
    → "There's not a rumor that doesn't find its way to Jeuno. I bet you can find what you need from other adventurers. May your strength never falter!"
  7: 0x026C [0x23] WAIT_FOR_DIALOG_INTERACTION
  8: 0x026D [0x21] END_EVENT
  9: 0x026E [0x00] END_REQSTACK()
```

### Event 152

#### Metadata

| Field        | Value   |
|--------------|---------|
| Entrypoint   | 0x026F  |
| Data Size    | 1 bytes |
| Instructions | 1       |

```
      00 01 02 03 04 05 06 07  08 09 0A 0B 0C 0D 0E 0F
      -- -- -- -- -- -- -- --  -- -- -- -- -- -- -- --
0260:                                               00                 .
```

#### Opcodes

```
  0: 0x026F [0x00] END_REQSTACK()
```

### Event 183

#### Metadata

| Field        | Value    |
|--------------|----------|
| Entrypoint   | 0x0270   |
| Data Size    | 64 bytes |
| Instructions | 17       |

```
      00 01 02 03 04 05 06 07  08 09 0A 0B 0C 0D 0E 0F
      -- -- -- -- -- -- -- --  -- -- -- -- -- -- -- --
0270: 20 01 42 1E F0 FF FF 7F  6F 70 27 03 07 50 0F 01   .B.....op'..P..
0280: 2F 2B 07 50 0F 01 40 80  23 2B 07 50 0F 01 41 80  /+.P..@.#+.P..A.
0290: 23 29 04 07 50 0F 01 38  27 03 07 50 0F 01 35 2B  #)..P..8'..P..5+
02A0: 07 50 0F 01 42 80 23 29  04 07 50 0F 01 36 21 00  .P..B.#)..P..6!.
```

#### Opcodes

```
  0: 0x0270 [0x20] SET_CLI_EVENT_UC_FLAG: Lock player control
  1: 0x0272 [0x42] SET_CLI_EVENT_CANCEL_DATA()
  2: 0x0273 [0x1E] EventEntity looks at LocalPlayer and starts talking
  3: 0x0278 [0x6F] WAIT_FRAME_DELAY: Yield until WaitTime reaches zero
  4: 0x0279 [0x70] WAIT_ENTITY_RENDER_FLAG: Wait while EventEntity->Render.Flags3 bit 2 is set (cancel turn if not)
  5: 0x027A [0x27] REQ_SET(priority=0x03, entity_id=Aldo (ID: 17780743/0x010F5007), tag_num=0x2F)
  6: 0x0281 [0x2B] Aldo (ID: 17780743/0x010F5007) [7196*]:
    → "What? You say the beastmen might be plotting something else? Yeah, it wouldn't be like them to just give up."
  7: 0x0288 [0x23] WAIT_FOR_DIALOG_INTERACTION
  8: 0x0289 [0x2B] Aldo (ID: 17780743/0x010F5007) [7197*]:
    → "I don't want anything to do with beastmen anymore. I bet the old Goblin Muckvix knows more, but you'd have to ask him yourself."
  9: 0x0290 [0x23] WAIT_FOR_DIALOG_INTERACTION
 10: 0x0291 [0x29] REQ_SET_WAIT(priority=0x04, entity_id=Aldo (ID: 17780743/0x010F5007), tag_num=0x38)
 11: 0x0298 [0x27] REQ_SET(priority=0x03, entity_id=Aldo (ID: 17780743/0x010F5007), tag_num=0x35)
 12: 0x029F [0x2B] Aldo (ID: 17780743/0x010F5007) [7198*]:
    → "Verena's really worried about Fickblix. Better not mention beastmen around her."
 13: 0x02A6 [0x23] WAIT_FOR_DIALOG_INTERACTION
 14: 0x02A7 [0x29] REQ_SET_WAIT(priority=0x04, entity_id=Aldo (ID: 17780743/0x010F5007), tag_num=0x36)
 15: 0x02AE [0x21] END_EVENT
 16: 0x02AF [0x00] END_REQSTACK()
```

### Event 83

#### Metadata

| Field        | Value   |
|--------------|---------|
| Entrypoint   | 0x02B0  |
| Data Size    | 1 bytes |
| Instructions | 1       |

```
      00 01 02 03 04 05 06 07  08 09 0A 0B 0C 0D 0E 0F
      -- -- -- -- -- -- -- --  -- -- -- -- -- -- -- --
02B0: 00                                                .               
```

#### Opcodes

```
  0: 0x02B0 [0x00] END_REQSTACK()
```

### Event 84

#### Metadata

| Field        | Value   |
|--------------|---------|
| Entrypoint   | 0x02B1  |
| Data Size    | 1 bytes |
| Instructions | 1       |

```
      00 01 02 03 04 05 06 07  08 09 0A 0B 0C 0D 0E 0F
      -- -- -- -- -- -- -- --  -- -- -- -- -- -- -- --
02B0:    00                                              .              
```

#### Opcodes

```
  0: 0x02B1 [0x00] END_REQSTACK()
```

### Event 24

#### Metadata

| Field        | Value    |
|--------------|----------|
| Entrypoint   | 0x02B2   |
| Data Size    | 25 bytes |
| Instructions | 7        |

```
      00 01 02 03 04 05 06 07  08 09 0A 0B 0C 0D 0E 0F
      -- -- -- -- -- -- -- --  -- -- -- -- -- -- -- --
02B0:       4A 07 50 0F 01 F0  FF FF 7F 6F 76 07 50 0F    J.P......ov.P.
02C0: 01 2B 07 50 0F 01 43 80  23 21 00                 .+.P..C.#!.     
```

#### Opcodes

```
  0: 0x02B2 [0x4A] Aldo (ID: 17780743/0x010F5007) looks at LocalPlayer
  1: 0x02BB [0x6F] WAIT_FRAME_DELAY: Yield until WaitTime reaches zero
  2: 0x02BC [0x76] CHECK_ENTITY_RENDER_FLAGS: Wait until Aldo (ID: 17780743/0x010F5007) Render.Flags0 and Render.Flags3 conditions are met
  3: 0x02C1 [0x2B] Aldo (ID: 17780743/0x010F5007) [8436*]:
    → "I appreciate you traveling here, <Player>. However, I don't know if I can carry on this game with Eald'narche anymore."
  4: 0x02C8 [0x23] WAIT_FOR_DIALOG_INTERACTION
  5: 0x02C9 [0x21] END_EVENT
  6: 0x02CA [0x00] END_REQSTACK()
```

### Event 111

#### Metadata

| Field        | Value   |
|--------------|---------|
| Entrypoint   | 0x02CB  |
| Data Size    | 1 bytes |
| Instructions | 1       |

```
      00 01 02 03 04 05 06 07  08 09 0A 0B 0C 0D 0E 0F
      -- -- -- -- -- -- -- --  -- -- -- -- -- -- -- --
02C0:                                   00                         .    
```

#### Opcodes

```
  0: 0x02CB [0x00] END_REQSTACK()
```

### Event 69

#### Metadata

| Field        | Value    |
|--------------|----------|
| Entrypoint   | 0x02CC   |
| Data Size    | 33 bytes |
| Instructions | 9        |

```
      00 01 02 03 04 05 06 07  08 09 0A 0B 0C 0D 0E 0F
      -- -- -- -- -- -- -- --  -- -- -- -- -- -- -- --
02C0:                                      4A 07 50 0F              J.P.
02D0: 01 F0 FF FF 7F 6F 76 07  50 0F 01 2B 07 50 0F 01  .....ov.P..+.P..
02E0: 44 80 23 2B 07 50 0F 01  45 80 23 21 00           D.#+.P..E.#!.   
```

#### Opcodes

```
  0: 0x02CC [0x4A] Aldo (ID: 17780743/0x010F5007) looks at LocalPlayer
  1: 0x02D5 [0x6F] WAIT_FRAME_DELAY: Yield until WaitTime reaches zero
  2: 0x02D6 [0x76] CHECK_ENTITY_RENDER_FLAGS: Wait until Aldo (ID: 17780743/0x010F5007) Render.Flags0 and Render.Flags3 conditions are met
  3: 0x02DB [0x2B] Aldo (ID: 17780743/0x010F5007) [8465*]:
    → "If Fickblix believed he could get those seeds to grow, then I have to believe there is something I can do."
  4: 0x02E2 [0x23] WAIT_FOR_DIALOG_INTERACTION
  5: 0x02E3 [0x2B] Aldo (ID: 17780743/0x010F5007) [8466*]:
    → "You just wait, Eald'narche! I'm not going to let you stand in our way!"
  6: 0x02EA [0x23] WAIT_FOR_DIALOG_INTERACTION
  7: 0x02EB [0x21] END_EVENT
  8: 0x02EC [0x00] END_REQSTACK()
```

### Event 65535.10

#### Metadata

| Field        | Value    |
|--------------|----------|
| Entrypoint   | 0x02ED   |
| Data Size    | 14 bytes |
| Instructions | 4        |

```
      00 01 02 03 04 05 06 07  08 09 0A 0B 0C 0D 0E 0F
      -- -- -- -- -- -- -- --  -- -- -- -- -- -- -- --
02E0:                                         32 00 80               2..
02F0: 1F 00 46 80 47 80 0E 80  1F 01 00                 ..F.G......     
```

#### Opcodes

```
  0: 0x02ED [0x32] ExtData[1]->MainSpeed = 13* * 0.1
  1: 0x02F0 [0x1F] MOVE_ENTITY: EventEntity moves to X=20.089*, Z=-59.283*, Y=3.899*
  2: 0x02F8 [0x1F] MOVE_ENTITY: Update entity position (mode=1)
  3: 0x02FA [0x00] END_REQSTACK()
```

### Event 65535.11

#### Metadata

| Field        | Value    |
|--------------|----------|
| Entrypoint   | 0x02FB   |
| Data Size    | 11 bytes |
| Instructions | 3        |

```
      00 01 02 03 04 05 06 07  08 09 0A 0B 0C 0D 0E 0F
      -- -- -- -- -- -- -- --  -- -- -- -- -- -- -- --
02F0:                                   1F 00 48 80 49             ..H.I
0300: 80 0E 80 1F 01 00                                 ......          
```

#### Opcodes

```
  0: 0x02FB [0x1F] MOVE_ENTITY: EventEntity moves to X=18.586*, Z=-52.629*, Y=3.899*
  1: 0x0303 [0x1F] MOVE_ENTITY: Update entity position (mode=1)
  2: 0x0305 [0x00] END_REQSTACK()
```

### Event 65535.12

#### Metadata

| Field        | Value    |
|--------------|----------|
| Entrypoint   | 0x0306   |
| Data Size    | 12 bytes |
| Instructions | 3        |

```
      00 01 02 03 04 05 06 07  08 09 0A 0B 0C 0D 0E 0F
      -- -- -- -- -- -- -- --  -- -- -- -- -- -- -- --
0300:                   22 00  37 4A 80 4B 80 4C 80 4D        ".7J.K.L.M
0310: 80 00                                             ..              
```

#### Opcodes

```
  0: 0x0306 [0x22] ENTITY_HIDE_FLAG(enabled=0x00)
  1: 0x0308 [0x37] UPDATE_EVENT_POSITION_AND_DIR: x=6.507*, z=68.747*, y=2.000*, direction=351.0°*
  2: 0x0311 [0x00] END_REQSTACK()
```

### Event 65535.13

#### Metadata

| Field        | Value    |
|--------------|----------|
| Entrypoint   | 0x0312   |
| Data Size    | 20 bytes |
| Instructions | 6        |

```
      00 01 02 03 04 05 06 07  08 09 0A 0B 0C 0D 0E 0F
      -- -- -- -- -- -- -- --  -- -- -- -- -- -- -- --
0310:       32 00 80 1F 00 4E  80 4F 80 50 80 1F 01 6F    2....N.O.P...o
0320: 1E 1B 50 0F 01 00                                 ..P...          
```

#### Opcodes

```
  0: 0x0312 [0x32] ExtData[1]->MainSpeed = 13* * 0.1
  1: 0x0315 [0x1F] MOVE_ENTITY: EventEntity moves to X=9.382*, Z=70.103*, Y=1.999*
  2: 0x031D [0x1F] MOVE_ENTITY: Update entity position (mode=1)
  3: 0x031F [0x6F] WAIT_FRAME_DELAY: Yield until WaitTime reaches zero
  4: 0x0320 [0x1E] EventEntity looks at Fickblix (ID: 17780763/0x010F501B) and starts talking
  5: 0x0325 [0x00] END_REQSTACK()
```

### Event 65535.14

#### Metadata

| Field        | Value    |
|--------------|----------|
| Entrypoint   | 0x0326   |
| Data Size    | 10 bytes |
| Instructions | 2        |

```
      00 01 02 03 04 05 06 07  08 09 0A 0B 0C 0D 0E 0F
      -- -- -- -- -- -- -- --  -- -- -- -- -- -- -- --
0320:                   37 51  80 52 80 03 80 53 80 00        7Q.R...S..
```

#### Opcodes

```
  0: 0x0326 [0x37] UPDATE_EVENT_POSITION_AND_DIR: x=20.378*, z=-4.697*, y=-0.099*, direction=301.6°*
  1: 0x032F [0x00] END_REQSTACK()
```

### Event 65535.15

#### Metadata

| Field        | Value    |
|--------------|----------|
| Entrypoint   | 0x0330   |
| Data Size    | 20 bytes |
| Instructions | 6        |

```
      00 01 02 03 04 05 06 07  08 09 0A 0B 0C 0D 0E 0F
      -- -- -- -- -- -- -- --  -- -- -- -- -- -- -- --
0330: 32 00 80 1F 00 54 80 55  80 03 80 1F 01 6F 1E 08  2....T.U.....o..
0340: 50 0F 01 00                                       P...            
```

#### Opcodes

```
  0: 0x0330 [0x32] ExtData[1]->MainSpeed = 13* * 0.1
  1: 0x0333 [0x1F] MOVE_ENTITY: EventEntity moves to X=22.797*, Z=3.334*, Y=-0.099*
  2: 0x033B [0x1F] MOVE_ENTITY: Update entity position (mode=1)
  3: 0x033D [0x6F] WAIT_FRAME_DELAY: Yield until WaitTime reaches zero
  4: 0x033E [0x1E] EventEntity looks at Verena (ID: 17780744/0x010F5008) and starts talking
  5: 0x0343 [0x00] END_REQSTACK()
```

### Event 65535.16

#### Metadata

| Field        | Value    |
|--------------|----------|
| Entrypoint   | 0x0344   |
| Data Size    | 12 bytes |
| Instructions | 4        |

```
      00 01 02 03 04 05 06 07  08 09 0A 0B 0C 0D 0E 0F
      -- -- -- -- -- -- -- --  -- -- -- -- -- -- -- --
0340:             1F 00 56 80  57 80 03 80 1F 01 6F 00      ..V.W.....o.
```

#### Opcodes

```
  0: 0x0344 [0x1F] MOVE_ENTITY: EventEntity moves to X=22.830*, Z=3.977*, Y=-0.099*
  1: 0x034C [0x1F] MOVE_ENTITY: Update entity position (mode=1)
  2: 0x034E [0x6F] WAIT_FRAME_DELAY: Yield until WaitTime reaches zero
  3: 0x034F [0x00] END_REQSTACK()
```

### Event 65535.17

#### Metadata

| Field        | Value    |
|--------------|----------|
| Entrypoint   | 0x0350   |
| Data Size    | 11 bytes |
| Instructions | 3        |

```
      00 01 02 03 04 05 06 07  08 09 0A 0B 0C 0D 0E 0F
      -- -- -- -- -- -- -- --  -- -- -- -- -- -- -- --
0350: 37 37 80 38 80 0E 80 58  80 84 00                 77.8...X...     
```

#### Opcodes

```
  0: 0x0350 [0x37] UPDATE_EVENT_POSITION_AND_DIR: x=21.049*, z=-61.530*, y=3.899*, direction=124.1°*
  1: 0x0359 [0x84] ADJUST_RENDER_FLAGS3_BIT0()
  2: 0x035A [0x00] END_REQSTACK()
```

### Event 65535.18

#### Metadata

| Field        | Value    |
|--------------|----------|
| Entrypoint   | 0x035B   |
| Data Size    | 12 bytes |
| Instructions | 4        |

```
      00 01 02 03 04 05 06 07  08 09 0A 0B 0C 0D 0E 0F
      -- -- -- -- -- -- -- --  -- -- -- -- -- -- -- --
0350:                                   37 59 80 5A 80             7Y.Z.
0360: 0E 80 5B 80 6F 70 00                              ..[.op.         
```

#### Opcodes

```
  0: 0x035B [0x37] UPDATE_EVENT_POSITION_AND_DIR: x=21.444*, z=-58.415*, y=3.899*, direction=204.5°*
  1: 0x0364 [0x6F] WAIT_FRAME_DELAY: Yield until WaitTime reaches zero
  2: 0x0365 [0x70] WAIT_ENTITY_RENDER_FLAG: Wait while EventEntity->Render.Flags3 bit 2 is set (cancel turn if not)
  3: 0x0366 [0x00] END_REQSTACK()
```

### Event 48

#### Metadata

| Field        | Value    |
|--------------|----------|
| Entrypoint   | 0x0367   |
| Data Size    | 12 bytes |
| Instructions | 3        |

```
      00 01 02 03 04 05 06 07  08 09 0A 0B 0C 0D 0E 0F
      -- -- -- -- -- -- -- --  -- -- -- -- -- -- -- --
0360:                      22  01 37 5C 80 5D 80 5E 80         ".7\.].^.
0370: 29 80 00                                          )..             
```

#### Opcodes

```
  0: 0x0367 [0x22] ENTITY_HIDE_FLAG(enabled=0x01)
  1: 0x0369 [0x37] UPDATE_EVENT_POSITION_AND_DIR: x=-33.946*, z=-138.069*, y=5.499*, direction=0.7°*
  2: 0x0372 [0x00] END_REQSTACK()
```

### Event 65535.19

#### Metadata

| Field        | Value    |
|--------------|----------|
| Entrypoint   | 0x0373   |
| Data Size    | 10 bytes |
| Instructions | 2        |

```
      00 01 02 03 04 05 06 07  08 09 0A 0B 0C 0D 0E 0F
      -- -- -- -- -- -- -- --  -- -- -- -- -- -- -- --
0370:          37 5F 80 60 80  0E 80 61 80 00              7_.`...a..   
```

#### Opcodes

```
  0: 0x0373 [0x37] UPDATE_EVENT_POSITION_AND_DIR: x=20.325*, z=-61.123*, y=3.899*, direction=32.9°*
  1: 0x037C [0x00] END_REQSTACK()
```

### Event 65535.20

#### Metadata

| Field        | Value    |
|--------------|----------|
| Entrypoint   | 0x037D   |
| Data Size    | 21 bytes |
| Instructions | 5        |

```
      00 01 02 03 04 05 06 07  08 09 0A 0B 0C 0D 0E 0F
      -- -- -- -- -- -- -- --  -- -- -- -- -- -- -- --
0370:                                         1F 00 62               ..b
0380: 80 63 80 13 80 1F 01 6F  4A 07 50 0F 01 08 50 0F  .c.....oJ.P...P.
0390: 01 00                                             ..              
```

#### Opcodes

```
  0: 0x037D [0x1F] MOVE_ENTITY: EventEntity moves to X=19.705*, Z=-57.516*, Y=3.869*
  1: 0x0385 [0x1F] MOVE_ENTITY: Update entity position (mode=1)
  2: 0x0387 [0x6F] WAIT_FRAME_DELAY: Yield until WaitTime reaches zero
  3: 0x0388 [0x4A] Aldo (ID: 17780743/0x010F5007) looks at Verena (ID: 17780744/0x010F5008)
  4: 0x0391 [0x00] END_REQSTACK()
```

### Event 65535.21

#### Metadata

| Field        | Value    |
|--------------|----------|
| Entrypoint   | 0x0392   |
| Data Size    | 11 bytes |
| Instructions | 3        |

```
      00 01 02 03 04 05 06 07  08 09 0A 0B 0C 0D 0E 0F
      -- -- -- -- -- -- -- --  -- -- -- -- -- -- -- --
0390:       1F 00 64 80 65 80  13 80 1F 01 00             ..d.e......   
```

#### Opcodes

```
  0: 0x0392 [0x1F] MOVE_ENTITY: EventEntity moves to X=20.724*, Z=-56.686*, Y=3.869*
  1: 0x039A [0x1F] MOVE_ENTITY: Update entity position (mode=1)
  2: 0x039C [0x00] END_REQSTACK()
```

### Event 65535.22

#### Metadata

| Field        | Value    |
|--------------|----------|
| Entrypoint   | 0x039D   |
| Data Size    | 11 bytes |
| Instructions | 3        |

```
      00 01 02 03 04 05 06 07  08 09 0A 0B 0C 0D 0E 0F
      -- -- -- -- -- -- -- --  -- -- -- -- -- -- -- --
0390:                                         1F 00 37               ..7
03A0: 80 38 80 0E 80 1F 01 00                           .8......        
```

#### Opcodes

```
  0: 0x039D [0x1F] MOVE_ENTITY: EventEntity moves to X=21.049*, Z=-61.530*, Y=3.899*
  1: 0x03A5 [0x1F] MOVE_ENTITY: Update entity position (mode=1)
  2: 0x03A7 [0x00] END_REQSTACK()
```

### Event 65535.23

#### Metadata

| Field        | Value    |
|--------------|----------|
| Entrypoint   | 0x03A8   |
| Data Size    | 20 bytes |
| Instructions | 4        |

```
      00 01 02 03 04 05 06 07  08 09 0A 0B 0C 0D 0E 0F
      -- -- -- -- -- -- -- --  -- -- -- -- -- -- -- --
03A0:                          1F 00 66 80 67 80 5E 80          ..f.g.^.
03B0: 1F 01 4A 07 50 0F 01 19  50 0F 01 00              ..J.P...P...    
```

#### Opcodes

```
  0: 0x03A8 [0x1F] MOVE_ENTITY: EventEntity moves to X=-30.250*, Z=-138.814*, Y=5.499*
  1: 0x03B0 [0x1F] MOVE_ENTITY: Update entity position (mode=1)
  2: 0x03B2 [0x4A] Aldo (ID: 17780743/0x010F5007) looks at Muckvix (ID: 17780761/0x010F5019)
  3: 0x03BB [0x00] END_REQSTACK()
```

### Event 65535.24

#### Metadata

| Field        | Value    |
|--------------|----------|
| Entrypoint   | 0x03BC   |
| Data Size    | 31 bytes |
| Instructions | 7        |

```
      00 01 02 03 04 05 06 07  08 09 0A 0B 0C 0D 0E 0F
      -- -- -- -- -- -- -- --  -- -- -- -- -- -- -- --
03B0:                                      1F 00 68 80              ..h.
03C0: 69 80 5E 80 1F 01 4A F0  FF FF 7F 07 50 0F 01 4A  i.^...J.....P..J
03D0: 07 50 0F 01 19 50 0F 01  6F 70 00                 .P...P..op.     
```

#### Opcodes

```
  0: 0x03BC [0x1F] MOVE_ENTITY: EventEntity moves to X=-28.150*, Z=-137.794*, Y=5.499*
  1: 0x03C4 [0x1F] MOVE_ENTITY: Update entity position (mode=1)
  2: 0x03C6 [0x4A] LocalPlayer looks at Aldo (ID: 17780743/0x010F5007)
  3: 0x03CF [0x4A] Aldo (ID: 17780743/0x010F5007) looks at Muckvix (ID: 17780761/0x010F5019)
  4: 0x03D8 [0x6F] WAIT_FRAME_DELAY: Yield until WaitTime reaches zero
  5: 0x03D9 [0x70] WAIT_ENTITY_RENDER_FLAG: Wait while EventEntity->Render.Flags3 bit 2 is set (cancel turn if not)
  6: 0x03DA [0x00] END_REQSTACK()
```

### Event 65535.25

#### Metadata

| Field        | Value    |
|--------------|----------|
| Entrypoint   | 0x03DB   |
| Data Size    | 19 bytes |
| Instructions | 3        |

```
      00 01 02 03 04 05 06 07  08 09 0A 0B 0C 0D 0E 0F
      -- -- -- -- -- -- -- --  -- -- -- -- -- -- -- --
03D0:                                   5B 20 80 F8 FF             [ ...
03E0: FF 7F F8 FF FF 7F 74 6C  6B 30 1C 10 80 00        ......tlk0....  
```

#### Opcodes

```
  0: 0x03DB [0x5B] LOAD_EXT_SCHEDULER: Load scheduler "tlk0" with entities [EventEntity, EventEntity], work=185*
  1: 0x03EA [0x1C] WAIT(60* ticks)
  2: 0x03ED [0x00] END_REQSTACK()
```

### Event 65535.26

#### Metadata

| Field        | Value    |
|--------------|----------|
| Entrypoint   | 0x03EE   |
| Data Size    | 29 bytes |
| Instructions | 3        |

```
      00 01 02 03 04 05 06 07  08 09 0A 0B 0C 0D 0E 0F
      -- -- -- -- -- -- -- --  -- -- -- -- -- -- -- --
03E0:                                            5B 20                [ 
03F0: 80 F8 FF FF 7F F8 FF FF  7F 74 6C 6B 31 53 F8 FF  .........tlk1S..
0400: FF 7F F8 FF FF 7F 74 6C  6B 31 00                 ......tlk1.     
```

#### Opcodes

```
  0: 0x03EE [0x5B] LOAD_EXT_SCHEDULER: Load scheduler "tlk1" with entities [EventEntity, EventEntity], work=185*
  1: 0x03FD [0x53] WAIT_SCHEDULER_TASK: Wait for scheduler "tlk1" with entities [EventEntity, EventEntity]
  2: 0x040A [0x00] END_REQSTACK()
```

### Event 65535.27

#### Metadata

| Field        | Value    |
|--------------|----------|
| Entrypoint   | 0x040B   |
| Data Size    | 19 bytes |
| Instructions | 3        |

```
      00 01 02 03 04 05 06 07  08 09 0A 0B 0C 0D 0E 0F
      -- -- -- -- -- -- -- --  -- -- -- -- -- -- -- --
0400:                                   5B 20 80 F8 FF             [ ...
0410: FF 7F F8 FF FF 7F 75 64  65 30 1C 10 80 00        ......ude0....  
```

#### Opcodes

```
  0: 0x040B [0x5B] LOAD_EXT_SCHEDULER: Load scheduler "ude0" with entities [EventEntity, EventEntity], work=185*
  1: 0x041A [0x1C] WAIT(60* ticks)
  2: 0x041D [0x00] END_REQSTACK()
```

### Event 65535.28

#### Metadata

| Field        | Value    |
|--------------|----------|
| Entrypoint   | 0x041E   |
| Data Size    | 29 bytes |
| Instructions | 3        |

```
      00 01 02 03 04 05 06 07  08 09 0A 0B 0C 0D 0E 0F
      -- -- -- -- -- -- -- --  -- -- -- -- -- -- -- --
0410:                                            5B 20                [ 
0420: 80 F8 FF FF 7F F8 FF FF  7F 75 64 65 31 53 F8 FF  .........ude1S..
0430: FF 7F F8 FF FF 7F 75 64  65 31 00                 ......ude1.     
```

#### Opcodes

```
  0: 0x041E [0x5B] LOAD_EXT_SCHEDULER: Load scheduler "ude1" with entities [EventEntity, EventEntity], work=185*
  1: 0x042D [0x53] WAIT_SCHEDULER_TASK: Wait for scheduler "ude1" with entities [EventEntity, EventEntity]
  2: 0x043A [0x00] END_REQSTACK()
```

### Event 65535.29

#### Metadata

| Field        | Value    |
|--------------|----------|
| Entrypoint   | 0x043B   |
| Data Size    | 19 bytes |
| Instructions | 3        |

```
      00 01 02 03 04 05 06 07  08 09 0A 0B 0C 0D 0E 0F
      -- -- -- -- -- -- -- --  -- -- -- -- -- -- -- --
0430:                                   5B 20 80 F8 FF             [ ...
0440: FF 7F F8 FF FF 7F 6B 6F  73 30 1C 10 80 00        ......kos0....  
```

#### Opcodes

```
  0: 0x043B [0x5B] LOAD_EXT_SCHEDULER: Load scheduler "kos0" with entities [EventEntity, EventEntity], work=185*
  1: 0x044A [0x1C] WAIT(60* ticks)
  2: 0x044D [0x00] END_REQSTACK()
```

### Event 65535.30

#### Metadata

| Field        | Value    |
|--------------|----------|
| Entrypoint   | 0x044E   |
| Data Size    | 29 bytes |
| Instructions | 3        |

```
      00 01 02 03 04 05 06 07  08 09 0A 0B 0C 0D 0E 0F
      -- -- -- -- -- -- -- --  -- -- -- -- -- -- -- --
0440:                                            5B 20                [ 
0450: 80 F8 FF FF 7F F8 FF FF  7F 6B 6F 73 31 53 F8 FF  .........kos1S..
0460: FF 7F F8 FF FF 7F 6B 6F  73 31 00                 ......kos1.     
```

#### Opcodes

```
  0: 0x044E [0x5B] LOAD_EXT_SCHEDULER: Load scheduler "kos1" with entities [EventEntity, EventEntity], work=185*
  1: 0x045D [0x53] WAIT_SCHEDULER_TASK: Wait for scheduler "kos1" with entities [EventEntity, EventEntity]
  2: 0x046A [0x00] END_REQSTACK()
```

### Event 65535.31

#### Metadata

| Field        | Value    |
|--------------|----------|
| Entrypoint   | 0x046B   |
| Data Size    | 19 bytes |
| Instructions | 3        |

```
      00 01 02 03 04 05 06 07  08 09 0A 0B 0C 0D 0E 0F
      -- -- -- -- -- -- -- --  -- -- -- -- -- -- -- --
0460:                                   5B 20 80 F8 FF             [ ...
0470: FF 7F F8 FF FF 7F 74 68  6B 31 1C 10 80 00        ......thk1....  
```

#### Opcodes

```
  0: 0x046B [0x5B] LOAD_EXT_SCHEDULER: Load scheduler "thk1" with entities [EventEntity, EventEntity], work=185*
  1: 0x047A [0x1C] WAIT(60* ticks)
  2: 0x047D [0x00] END_REQSTACK()
```

### Event 65535.32

#### Metadata

| Field        | Value    |
|--------------|----------|
| Entrypoint   | 0x047E   |
| Data Size    | 29 bytes |
| Instructions | 3        |

```
      00 01 02 03 04 05 06 07  08 09 0A 0B 0C 0D 0E 0F
      -- -- -- -- -- -- -- --  -- -- -- -- -- -- -- --
0470:                                            5B 20                [ 
0480: 80 F8 FF FF 7F F8 FF FF  7F 74 68 6B 32 53 F8 FF  .........thk2S..
0490: FF 7F F8 FF FF 7F 74 68  6B 32 00                 ......thk2.     
```

#### Opcodes

```
  0: 0x047E [0x5B] LOAD_EXT_SCHEDULER: Load scheduler "thk2" with entities [EventEntity, EventEntity], work=185*
  1: 0x048D [0x53] WAIT_SCHEDULER_TASK: Wait for scheduler "thk2" with entities [EventEntity, EventEntity]
  2: 0x049A [0x00] END_REQSTACK()
```

### Event 65535.33

#### Metadata

| Field        | Value    |
|--------------|----------|
| Entrypoint   | 0x049B   |
| Data Size    | 29 bytes |
| Instructions | 3        |

```
      00 01 02 03 04 05 06 07  08 09 0A 0B 0C 0D 0E 0F
      -- -- -- -- -- -- -- --  -- -- -- -- -- -- -- --
0490:                                   5B 20 80 F8 FF             [ ...
04A0: FF 7F F8 FF FF 7F 70 61  73 30 53 F8 FF FF 7F F8  ......pas0S.....
04B0: FF FF 7F 70 61 73 30 00                           ...pas0.        
```

#### Opcodes

```
  0: 0x049B [0x5B] LOAD_EXT_SCHEDULER: Load scheduler "pas0" with entities [EventEntity, EventEntity], work=185*
  1: 0x04AA [0x53] WAIT_SCHEDULER_TASK: Wait for scheduler "pas0" with entities [EventEntity, EventEntity]
  2: 0x04B7 [0x00] END_REQSTACK()
```

### Event 65535.34

#### Metadata

| Field        | Value   |
|--------------|---------|
| Entrypoint   | 0x04B8  |
| Data Size    | 9 bytes |
| Instructions | 3       |

```
      00 01 02 03 04 05 06 07  08 09 0A 0B 0C 0D 0E 0F
      -- -- -- -- -- -- -- --  -- -- -- -- -- -- -- --
04B0:                          5E 69 64 6C 30 1C 6A 80          ^idl0.j.
04C0: 00                                                .               
```

#### Opcodes

```
  0: 0x04B8 [0x5E] EventEntity goes idle (kills current action) (animation: "idl0")
  1: 0x04BD [0x1C] WAIT(30* ticks)
  2: 0x04C0 [0x00] END_REQSTACK()
```

### Event 65535.35

#### Metadata

| Field        | Value   |
|--------------|---------|
| Entrypoint   | 0x04C1  |
| Data Size    | 1 bytes |
| Instructions | 1       |

```
      00 01 02 03 04 05 06 07  08 09 0A 0B 0C 0D 0E 0F
      -- -- -- -- -- -- -- --  -- -- -- -- -- -- -- --
04C0:    00                                              .              
```

#### Opcodes

```
  0: 0x04C1 [0x00] END_REQSTACK()
```

### Event 10051

#### Metadata

| Field        | Value   |
|--------------|---------|
| Entrypoint   | 0x04C2  |
| Data Size    | 1 bytes |
| Instructions | 1       |

```
      00 01 02 03 04 05 06 07  08 09 0A 0B 0C 0D 0E 0F
      -- -- -- -- -- -- -- --  -- -- -- -- -- -- -- --
04C0:       00                                            .             
```

#### Opcodes

```
  0: 0x04C2 [0x00] END_REQSTACK()
```

### Event 10057

#### Metadata

| Field        | Value   |
|--------------|---------|
| Entrypoint   | 0x04C3  |
| Data Size    | 1 bytes |
| Instructions | 1       |

```
      00 01 02 03 04 05 06 07  08 09 0A 0B 0C 0D 0E 0F
      -- -- -- -- -- -- -- --  -- -- -- -- -- -- -- --
04C0:          00                                          .            
```

#### Opcodes

```
  0: 0x04C3 [0x00] END_REQSTACK()
```

### Event 10058

#### Metadata

| Field        | Value    |
|--------------|----------|
| Entrypoint   | 0x04C4   |
| Data Size    | 68 bytes |
| Instructions | 17       |

```
      00 01 02 03 04 05 06 07  08 09 0A 0B 0C 0D 0E 0F
      -- -- -- -- -- -- -- --  -- -- -- -- -- -- -- --
04C0:             1E F0 FF FF  7F 6F 70 1C 6A 80 5B 20      .....op.j.[ 
04D0: 80 07 50 0F 01 07 50 0F  01 74 68 6B 31 1D 6B 80  ..P...P..thk1.k.
04E0: 23 02 09 10 2A 80 00 F0  04 1D 6C 80 23 01 F4 04  #...*.....l.#...
04F0: 1D 6D 80 23 5B 20 80 07  50 0F 01 07 50 0F 01 74  .m.#[ ..P...P..t
0500: 68 6B 32 1C 6A 80 21 00                           hk2.j.!.        
```

#### Opcodes

```
  0: 0x04C4 [0x1E] EventEntity looks at LocalPlayer and starts talking
  1: 0x04C9 [0x6F] WAIT_FRAME_DELAY: Yield until WaitTime reaches zero
  2: 0x04CA [0x70] WAIT_ENTITY_RENDER_FLAG: Wait while EventEntity->Render.Flags3 bit 2 is set (cancel turn if not)
  3: 0x04CB [0x1C] WAIT(30* ticks)
  4: 0x04CE [0x5B] LOAD_EXT_SCHEDULER: Load scheduler "thk1" with entities [Aldo (ID: 17780743/0x010F5007), Aldo (ID: 17780743/0x010F5007)], work=185*
  5: 0x04DD [0x1D] PRINT_EVENT_MESSAGE(message_id=9508*)
    → "You don't talk much, and I won't ask you about what happened beneath the light of that great, burning crystal."
  6: 0x04E0 [0x23] WAIT_FOR_DIALOG_INTERACTION
  7: 0x04E1 [0x02] IF !(Work_Zone[9] == 0*) GOTO 0x04F0
  8: 0x04E9 [0x1D] PRINT_EVENT_MESSAGE(message_id=9509*)
    → "I'm just happy to have Lion back among us. If you head to Norg, you might even be able to see her."
  9: 0x04EC [0x23] WAIT_FOR_DIALOG_INTERACTION
 10: 0x04ED [0x01] GOTO 0x04F4
 11: 0x04F0 [0x1D] PRINT_EVENT_MESSAGE(message_id=9510*)
    → "I'm just happy to have Lion back among us."
 12: 0x04F3 [0x23] WAIT_FOR_DIALOG_INTERACTION

SUBROUTINE_04F4:
 13: 0x04F4 [0x5B] LOAD_EXT_SCHEDULER: Load scheduler "thk2" with entities [Aldo (ID: 17780743/0x010F5007), Aldo (ID: 17780743/0x010F5007)], work=185*
 14: 0x0503 [0x1C] WAIT(30* ticks)
 15: 0x0506 [0x21] END_EVENT
 16: 0x0507 [0x00] END_REQSTACK()
```

### Event 65535.36

#### Metadata

| Field        | Value    |
|--------------|----------|
| Entrypoint   | 0x0508   |
| Data Size    | 15 bytes |
| Instructions | 5        |

```
      00 01 02 03 04 05 06 07  08 09 0A 0B 0C 0D 0E 0F
      -- -- -- -- -- -- -- --  -- -- -- -- -- -- -- --
0500:                          32 00 80 1F 00 6E 80 6F          2....n.o
0510: 80 0E 80 1F 01 6F 00                              .....o.         
```

#### Opcodes

```
  0: 0x0508 [0x32] ExtData[1]->MainSpeed = 13* * 0.1
  1: 0x050B [0x1F] MOVE_ENTITY: EventEntity moves to X=20.021*, Z=-60.238*, Y=3.899*
  2: 0x0513 [0x1F] MOVE_ENTITY: Update entity position (mode=1)
  3: 0x0515 [0x6F] WAIT_FRAME_DELAY: Yield until WaitTime reaches zero
  4: 0x0516 [0x00] END_REQSTACK()
```

### Event 10094

#### Metadata

| Field        | Value   |
|--------------|---------|
| Entrypoint   | 0x0517  |
| Data Size    | 4 bytes |
| Instructions | 2       |

```
      00 01 02 03 04 05 06 07  08 09 0A 0B 0C 0D 0E 0F
      -- -- -- -- -- -- -- --  -- -- -- -- -- -- -- --
0510:                      C0  70 80 00                        .p..     
```

#### Opcodes

```
  0: 0x0517 [0xC0] EventEntity->Render.Flags3 |= 0x1000 // Set bit 12 (from 1*)
  1: 0x051A [0x00] END_REQSTACK()
```

### Event 65535.37

#### Metadata

| Field        | Value    |
|--------------|----------|
| Entrypoint   | 0x051B   |
| Data Size    | 16 bytes |
| Instructions | 2        |

```
      00 01 02 03 04 05 06 07  08 09 0A 0B 0C 0D 0E 0F
      -- -- -- -- -- -- -- --  -- -- -- -- -- -- -- --
0510:                                   5B 71 80 07 50             [q..P
0520: 0F 01 07 50 0F 01 6F 70  30 30 00                 ...P..op00.     
```

#### Opcodes

```
  0: 0x051B [0x5B] LOAD_EXT_SCHEDULER: Load scheduler "op00" with entities [Aldo (ID: 17780743/0x010F5007), Aldo (ID: 17780743/0x010F5007)], work=2601*
  1: 0x052A [0x00] END_REQSTACK()
```

### Event 65535.38

#### Metadata

| Field        | Value    |
|--------------|----------|
| Entrypoint   | 0x052B   |
| Data Size    | 16 bytes |
| Instructions | 2        |

```
      00 01 02 03 04 05 06 07  08 09 0A 0B 0C 0D 0E 0F
      -- -- -- -- -- -- -- --  -- -- -- -- -- -- -- --
0520:                                   5B 71 80 07 50             [q..P
0530: 0F 01 07 50 0F 01 6F 70  30 31 00                 ...P..op01.     
```

#### Opcodes

```
  0: 0x052B [0x5B] LOAD_EXT_SCHEDULER: Load scheduler "op01" with entities [Aldo (ID: 17780743/0x010F5007), Aldo (ID: 17780743/0x010F5007)], work=2601*
  1: 0x053A [0x00] END_REQSTACK()
```

### Event 65535.39

#### Metadata

| Field        | Value    |
|--------------|----------|
| Entrypoint   | 0x053B   |
| Data Size    | 16 bytes |
| Instructions | 2        |

```
      00 01 02 03 04 05 06 07  08 09 0A 0B 0C 0D 0E 0F
      -- -- -- -- -- -- -- --  -- -- -- -- -- -- -- --
0530:                                   5B 71 80 07 50             [q..P
0540: 0F 01 07 50 0F 01 6F 70  30 32 00                 ...P..op02.     
```

#### Opcodes

```
  0: 0x053B [0x5B] LOAD_EXT_SCHEDULER: Load scheduler "op02" with entities [Aldo (ID: 17780743/0x010F5007), Aldo (ID: 17780743/0x010F5007)], work=2601*
  1: 0x054A [0x00] END_REQSTACK()
```

### Event 65535.40

#### Metadata

| Field        | Value    |
|--------------|----------|
| Entrypoint   | 0x054B   |
| Data Size    | 16 bytes |
| Instructions | 2        |

```
      00 01 02 03 04 05 06 07  08 09 0A 0B 0C 0D 0E 0F
      -- -- -- -- -- -- -- --  -- -- -- -- -- -- -- --
0540:                                   5B 20 80 07 50             [ ..P
0550: 0F 01 07 50 0F 01 75 64  65 30 00                 ...P..ude0.     
```

#### Opcodes

```
  0: 0x054B [0x5B] LOAD_EXT_SCHEDULER: Load scheduler "ude0" with entities [Aldo (ID: 17780743/0x010F5007), Aldo (ID: 17780743/0x010F5007)], work=185*
  1: 0x055A [0x00] END_REQSTACK()
```

### Event 65535.41

#### Metadata

| Field        | Value    |
|--------------|----------|
| Entrypoint   | 0x055B   |
| Data Size    | 16 bytes |
| Instructions | 2        |

```
      00 01 02 03 04 05 06 07  08 09 0A 0B 0C 0D 0E 0F
      -- -- -- -- -- -- -- --  -- -- -- -- -- -- -- --
0550:                                   5B 20 80 07 50             [ ..P
0560: 0F 01 07 50 0F 01 75 64  65 31 00                 ...P..ude1.     
```

#### Opcodes

```
  0: 0x055B [0x5B] LOAD_EXT_SCHEDULER: Load scheduler "ude1" with entities [Aldo (ID: 17780743/0x010F5007), Aldo (ID: 17780743/0x010F5007)], work=185*
  1: 0x056A [0x00] END_REQSTACK()
```

### Event 65535.42

#### Metadata

| Field        | Value    |
|--------------|----------|
| Entrypoint   | 0x056B   |
| Data Size    | 16 bytes |
| Instructions | 2        |

```
      00 01 02 03 04 05 06 07  08 09 0A 0B 0C 0D 0E 0F
      -- -- -- -- -- -- -- --  -- -- -- -- -- -- -- --
0560:                                   5B 20 80 07 50             [ ..P
0570: 0F 01 07 50 0F 01 74 68  6B 31 00                 ...P..thk1.     
```

#### Opcodes

```
  0: 0x056B [0x5B] LOAD_EXT_SCHEDULER: Load scheduler "thk1" with entities [Aldo (ID: 17780743/0x010F5007), Aldo (ID: 17780743/0x010F5007)], work=185*
  1: 0x057A [0x00] END_REQSTACK()
```

### Event 65535.43

#### Metadata

| Field        | Value    |
|--------------|----------|
| Entrypoint   | 0x057B   |
| Data Size    | 16 bytes |
| Instructions | 2        |

```
      00 01 02 03 04 05 06 07  08 09 0A 0B 0C 0D 0E 0F
      -- -- -- -- -- -- -- --  -- -- -- -- -- -- -- --
0570:                                   5B 20 80 07 50             [ ..P
0580: 0F 01 07 50 0F 01 74 68  6B 32 00                 ...P..thk2.     
```

#### Opcodes

```
  0: 0x057B [0x5B] LOAD_EXT_SCHEDULER: Load scheduler "thk2" with entities [Aldo (ID: 17780743/0x010F5007), Aldo (ID: 17780743/0x010F5007)], work=185*
  1: 0x058A [0x00] END_REQSTACK()
```

### Event 65535.44

#### Metadata

| Field        | Value    |
|--------------|----------|
| Entrypoint   | 0x058B   |
| Data Size    | 16 bytes |
| Instructions | 2        |

```
      00 01 02 03 04 05 06 07  08 09 0A 0B 0C 0D 0E 0F
      -- -- -- -- -- -- -- --  -- -- -- -- -- -- -- --
0580:                                   5B 20 80 07 50             [ ..P
0590: 0F 01 07 50 0F 01 6B 6F  73 30 00                 ...P..kos0.     
```

#### Opcodes

```
  0: 0x058B [0x5B] LOAD_EXT_SCHEDULER: Load scheduler "kos0" with entities [Aldo (ID: 17780743/0x010F5007), Aldo (ID: 17780743/0x010F5007)], work=185*
  1: 0x059A [0x00] END_REQSTACK()
```

### Event 65535.45

#### Metadata

| Field        | Value    |
|--------------|----------|
| Entrypoint   | 0x059B   |
| Data Size    | 16 bytes |
| Instructions | 2        |

```
      00 01 02 03 04 05 06 07  08 09 0A 0B 0C 0D 0E 0F
      -- -- -- -- -- -- -- --  -- -- -- -- -- -- -- --
0590:                                   5B 20 80 07 50             [ ..P
05A0: 0F 01 07 50 0F 01 6B 6F  73 31 00                 ...P..kos1.     
```

#### Opcodes

```
  0: 0x059B [0x5B] LOAD_EXT_SCHEDULER: Load scheduler "kos1" with entities [Aldo (ID: 17780743/0x010F5007), Aldo (ID: 17780743/0x010F5007)], work=185*
  1: 0x05AA [0x00] END_REQSTACK()
```

### Event 65535.46

#### Metadata

| Field        | Value    |
|--------------|----------|
| Entrypoint   | 0x05AB   |
| Data Size    | 19 bytes |
| Instructions | 5        |

```
      00 01 02 03 04 05 06 07  08 09 0A 0B 0C 0D 0E 0F
      -- -- -- -- -- -- -- --  -- -- -- -- -- -- -- --
05A0:                                   22 00 B6 00 72             "...r
05B0: 80 92 01 F8 FF FF 7F 94  01 F8 FF FF 7F 00        ..............  
```

#### Opcodes

```
  0: 0x05AB [0x22] ENTITY_HIDE_FLAG(enabled=0x00)
  1: 0x05AD [0xB6] ENTITY_APPEARANCE_HANDLER(case=Hair style, value=78*)
  2: 0x05B1 [0x92] EventEntity->Render.Flags3 ^= 0x01
  3: 0x05B7 [0x94] EventEntity->Render.Flags3 ^= 0x01
  4: 0x05BD [0x00] END_REQSTACK()
```

### Event 65535.47

#### Metadata

| Field        | Value   |
|--------------|---------|
| Entrypoint   | 0x05BE  |
| Data Size    | 3 bytes |
| Instructions | 2       |

```
      00 01 02 03 04 05 06 07  08 09 0A 0B 0C 0D 0E 0F
      -- -- -- -- -- -- -- --  -- -- -- -- -- -- -- --
05B0:                                            A4 01                ..
05C0: 00                                                .               
```

#### Opcodes

```
  0: 0x05BE [0xA4] EventEntity->Flags3.unknown_3_2 = 1
  1: 0x05C0 [0x00] END_REQSTACK()
```

### Event 65535.48

#### Metadata

| Field        | Value   |
|--------------|---------|
| Entrypoint   | 0x05C1  |
| Data Size    | 2 bytes |
| Instructions | 2       |

```
      00 01 02 03 04 05 06 07  08 09 0A 0B 0C 0D 0E 0F
      -- -- -- -- -- -- -- --  -- -- -- -- -- -- -- --
05C0:    84 00                                           ..             
```

#### Opcodes

```
  0: 0x05C1 [0x84] ADJUST_RENDER_FLAGS3_BIT0()
  1: 0x05C2 [0x00] END_REQSTACK()
```

### Event 10100

#### Metadata

| Field        | Value   |
|--------------|---------|
| Entrypoint   | 0x05C3  |
| Data Size    | 1 bytes |
| Instructions | 1       |

```
      00 01 02 03 04 05 06 07  08 09 0A 0B 0C 0D 0E 0F
      -- -- -- -- -- -- -- --  -- -- -- -- -- -- -- --
05C0:          00                                          .            
```

#### Opcodes

```
  0: 0x05C3 [0x00] END_REQSTACK()
```

### Event 65535.49

#### Metadata

| Field        | Value    |
|--------------|----------|
| Entrypoint   | 0x05C4   |
| Data Size    | 27 bytes |
| Instructions | 9        |

```
      00 01 02 03 04 05 06 07  08 09 0A 0B 0C 0D 0E 0F
      -- -- -- -- -- -- -- --  -- -- -- -- -- -- -- --
05C0:             32 73 80 1F  00 74 80 75 80 0E 80 1F      2s...t.u....
05D0: 01 6F 1F 00 76 80 77 80  0E 80 1F 01 6F 70 00     .o..v.w.....op. 
```

#### Opcodes

```
  0: 0x05C4 [0x32] ExtData[1]->MainSpeed = 10* * 0.1
  1: 0x05C7 [0x1F] MOVE_ENTITY: EventEntity moves to X=20.270*, Z=-59.848*, Y=3.899*
  2: 0x05CF [0x1F] MOVE_ENTITY: Update entity position (mode=1)
  3: 0x05D1 [0x6F] WAIT_FRAME_DELAY: Yield until WaitTime reaches zero
  4: 0x05D2 [0x1F] MOVE_ENTITY: EventEntity moves to X=21.200*, Z=-58.230*, Y=3.899*
  5: 0x05DA [0x1F] MOVE_ENTITY: Update entity position (mode=1)
  6: 0x05DC [0x6F] WAIT_FRAME_DELAY: Yield until WaitTime reaches zero
  7: 0x05DD [0x70] WAIT_ENTITY_RENDER_FLAG: Wait while EventEntity->Render.Flags3 bit 2 is set (cancel turn if not)
  8: 0x05DE [0x00] END_REQSTACK()
```

### Event 65535.50

#### Metadata

| Field        | Value    |
|--------------|----------|
| Entrypoint   | 0x05DF   |
| Data Size    | 19 bytes |
| Instructions | 3        |

```
      00 01 02 03 04 05 06 07  08 09 0A 0B 0C 0D 0E 0F
      -- -- -- -- -- -- -- --  -- -- -- -- -- -- -- --
05D0:                                               5B                 [
05E0: 20 80 F8 FF FF 7F F8 FF  FF 7F 74 6C 6B 30 1C 10   .........tlk0..
05F0: 80 00                                             ..              
```

#### Opcodes

```
  0: 0x05DF [0x5B] LOAD_EXT_SCHEDULER: Load scheduler "tlk0" with entities [EventEntity, EventEntity], work=185*
  1: 0x05EE [0x1C] WAIT(60* ticks)
  2: 0x05F1 [0x00] END_REQSTACK()
```

### Event 65535.51

#### Metadata

| Field        | Value    |
|--------------|----------|
| Entrypoint   | 0x05F2   |
| Data Size    | 29 bytes |
| Instructions | 3        |

```
      00 01 02 03 04 05 06 07  08 09 0A 0B 0C 0D 0E 0F
      -- -- -- -- -- -- -- --  -- -- -- -- -- -- -- --
05F0:       5B 20 80 F8 FF FF  7F F8 FF FF 7F 74 6C 6B    [ .........tlk
0600: 31 53 F8 FF FF 7F F8 FF  FF 7F 74 6C 6B 31 00     1S........tlk1. 
```

#### Opcodes

```
  0: 0x05F2 [0x5B] LOAD_EXT_SCHEDULER: Load scheduler "tlk1" with entities [EventEntity, EventEntity], work=185*
  1: 0x0601 [0x53] WAIT_SCHEDULER_TASK: Wait for scheduler "tlk1" with entities [EventEntity, EventEntity]
  2: 0x060E [0x00] END_REQSTACK()
```

### Event 65535.52

#### Metadata

| Field        | Value    |
|--------------|----------|
| Entrypoint   | 0x060F   |
| Data Size    | 19 bytes |
| Instructions | 3        |

```
      00 01 02 03 04 05 06 07  08 09 0A 0B 0C 0D 0E 0F
      -- -- -- -- -- -- -- --  -- -- -- -- -- -- -- --
0600:                                               5B                 [
0610: 20 80 F8 FF FF 7F F8 FF  FF 7F 75 64 65 30 1C 10   .........ude0..
0620: 80 00                                             ..              
```

#### Opcodes

```
  0: 0x060F [0x5B] LOAD_EXT_SCHEDULER: Load scheduler "ude0" with entities [EventEntity, EventEntity], work=185*
  1: 0x061E [0x1C] WAIT(60* ticks)
  2: 0x0621 [0x00] END_REQSTACK()
```

### Event 65535.53

#### Metadata

| Field        | Value    |
|--------------|----------|
| Entrypoint   | 0x0622   |
| Data Size    | 16 bytes |
| Instructions | 2        |

```
      00 01 02 03 04 05 06 07  08 09 0A 0B 0C 0D 0E 0F
      -- -- -- -- -- -- -- --  -- -- -- -- -- -- -- --
0620:       5B 20 80 F8 FF FF  7F F8 FF FF 7F 75 64 65    [ .........ude
0630: 31 00                                             1.              
```

#### Opcodes

```
  0: 0x0622 [0x5B] LOAD_EXT_SCHEDULER: Load scheduler "ude1" with entities [EventEntity, EventEntity], work=185*
  1: 0x0631 [0x00] END_REQSTACK()
```

### Event 65535.54

#### Metadata

| Field        | Value    |
|--------------|----------|
| Entrypoint   | 0x0632   |
| Data Size    | 29 bytes |
| Instructions | 3        |

```
      00 01 02 03 04 05 06 07  08 09 0A 0B 0C 0D 0E 0F
      -- -- -- -- -- -- -- --  -- -- -- -- -- -- -- --
0630:       5B 20 80 F8 FF FF  7F F8 FF FF 7F 74 68 6B    [ .........thk
0640: 31 53 F8 FF FF 7F F8 FF  FF 7F 74 68 6B 32 00     1S........thk2. 
```

#### Opcodes

```
  0: 0x0632 [0x5B] LOAD_EXT_SCHEDULER: Load scheduler "thk1" with entities [EventEntity, EventEntity], work=185*
  1: 0x0641 [0x53] WAIT_SCHEDULER_TASK: Wait for scheduler "thk2" with entities [EventEntity, EventEntity]
  2: 0x064E [0x00] END_REQSTACK()
```

### Event 65535.55

#### Metadata

| Field        | Value    |
|--------------|----------|
| Entrypoint   | 0x064F   |
| Data Size    | 29 bytes |
| Instructions | 3        |

```
      00 01 02 03 04 05 06 07  08 09 0A 0B 0C 0D 0E 0F
      -- -- -- -- -- -- -- --  -- -- -- -- -- -- -- --
0640:                                               5B                 [
0650: 20 80 F8 FF FF 7F F8 FF  FF 7F 74 68 6B 32 53 F8   .........thk2S.
0660: FF FF 7F F8 FF FF 7F 74  68 6B 32 00              .......thk2.    
```

#### Opcodes

```
  0: 0x064F [0x5B] LOAD_EXT_SCHEDULER: Load scheduler "thk2" with entities [EventEntity, EventEntity], work=185*
  1: 0x065E [0x53] WAIT_SCHEDULER_TASK: Wait for scheduler "thk2" with entities [EventEntity, EventEntity]
  2: 0x066B [0x00] END_REQSTACK()
```

### Event 65535.56

#### Metadata

| Field        | Value    |
|--------------|----------|
| Entrypoint   | 0x066C   |
| Data Size    | 16 bytes |
| Instructions | 2        |

```
      00 01 02 03 04 05 06 07  08 09 0A 0B 0C 0D 0E 0F
      -- -- -- -- -- -- -- --  -- -- -- -- -- -- -- --
0660:                                      5B 20 80 F8              [ ..
0670: FF FF 7F F8 FF FF 7F 6B  6F 73 30 00              .......kos0.    
```

#### Opcodes

```
  0: 0x066C [0x5B] LOAD_EXT_SCHEDULER: Load scheduler "kos0" with entities [EventEntity, EventEntity], work=185*
  1: 0x067B [0x00] END_REQSTACK()
```

### Event 65535.57

#### Metadata

| Field        | Value    |
|--------------|----------|
| Entrypoint   | 0x067C   |
| Data Size    | 29 bytes |
| Instructions | 3        |

```
      00 01 02 03 04 05 06 07  08 09 0A 0B 0C 0D 0E 0F
      -- -- -- -- -- -- -- --  -- -- -- -- -- -- -- --
0670:                                      5B 20 80 F8              [ ..
0680: FF FF 7F F8 FF FF 7F 6B  6F 73 31 53 F8 FF FF 7F  .......kos1S....
0690: F8 FF FF 7F 6B 6F 73 31  00                       ....kos1.       
```

#### Opcodes

```
  0: 0x067C [0x5B] LOAD_EXT_SCHEDULER: Load scheduler "kos1" with entities [EventEntity, EventEntity], work=185*
  1: 0x068B [0x53] WAIT_SCHEDULER_TASK: Wait for scheduler "kos1" with entities [EventEntity, EventEntity]
  2: 0x0698 [0x00] END_REQSTACK()
```

### Event 65535.58

#### Metadata

| Field        | Value    |
|--------------|----------|
| Entrypoint   | 0x0699   |
| Data Size    | 14 bytes |
| Instructions | 4        |

```
      00 01 02 03 04 05 06 07  08 09 0A 0B 0C 0D 0E 0F
      -- -- -- -- -- -- -- --  -- -- -- -- -- -- -- --
0690:                             32 78 80 1F 00 79 80           2x...y.
06A0: 7A 80 0E 80 1F 01 00                              z......         
```

#### Opcodes

```
  0: 0x0699 [0x32] ExtData[1]->MainSpeed = 12* * 0.1
  1: 0x069C [0x1F] MOVE_ENTITY: EventEntity moves to X=18.214*, Z=-52.429*, Y=3.899*
  2: 0x06A4 [0x1F] MOVE_ENTITY: Update entity position (mode=1)
  3: 0x06A6 [0x00] END_REQSTACK()
```

### Event 65535.59

#### Metadata

| Field        | Value    |
|--------------|----------|
| Entrypoint   | 0x06A7   |
| Data Size    | 19 bytes |
| Instructions | 3        |

```
      00 01 02 03 04 05 06 07  08 09 0A 0B 0C 0D 0E 0F
      -- -- -- -- -- -- -- --  -- -- -- -- -- -- -- --
06A0:                      5B  7B 80 F8 FF FF 7F F8 FF         [{.......
06B0: FF 7F 79 65 73 30 1C 7C  80 00                    ..yes0.|..      
```

#### Opcodes

```
  0: 0x06A7 [0x5B] LOAD_EXT_SCHEDULER: Load scheduler "yes0" with entities [EventEntity, EventEntity], work=2761*
  1: 0x06B6 [0x1C] WAIT(180* ticks)
  2: 0x06B9 [0x00] END_REQSTACK()
```

### Event 65535.60

#### Metadata

| Field        | Value    |
|--------------|----------|
| Entrypoint   | 0x06BA   |
| Data Size    | 19 bytes |
| Instructions | 3        |

```
      00 01 02 03 04 05 06 07  08 09 0A 0B 0C 0D 0E 0F
      -- -- -- -- -- -- -- --  -- -- -- -- -- -- -- --
06B0:                                5B 7B 80 F8 FF FF            [{....
06C0: 7F F8 FF FF 7F 62 69 6B  30 1C 7D 80 00           .....bik0.}..   
```

#### Opcodes

```
  0: 0x06BA [0x5B] LOAD_EXT_SCHEDULER: Load scheduler "bik0" with entities [EventEntity, EventEntity], work=2761*
  1: 0x06C9 [0x1C] WAIT(96* ticks)
  2: 0x06CC [0x00] END_REQSTACK()
```

### Event 65535.61

#### Metadata

| Field        | Value    |
|--------------|----------|
| Entrypoint   | 0x06CD   |
| Data Size    | 19 bytes |
| Instructions | 3        |

```
      00 01 02 03 04 05 06 07  08 09 0A 0B 0C 0D 0E 0F
      -- -- -- -- -- -- -- --  -- -- -- -- -- -- -- --
06C0:                                         5B 7B 80               [{.
06D0: F8 FF FF 7F F8 FF FF 7F  62 69 6B 31 1C 7E 80 00  ........bik1.~..
```

#### Opcodes

```
  0: 0x06CD [0x5B] LOAD_EXT_SCHEDULER: Load scheduler "bik1" with entities [EventEntity, EventEntity], work=2761*
  1: 0x06DC [0x1C] WAIT(135* ticks)
  2: 0x06DF [0x00] END_REQSTACK()
```

### Event 65535.62

#### Metadata

| Field        | Value    |
|--------------|----------|
| Entrypoint   | 0x06E0   |
| Data Size    | 19 bytes |
| Instructions | 3        |

```
      00 01 02 03 04 05 06 07  08 09 0A 0B 0C 0D 0E 0F
      -- -- -- -- -- -- -- --  -- -- -- -- -- -- -- --
06E0: 5B 7B 80 F8 FF FF 7F F8  FF FF 7F 79 72 65 30 1C  [{.........yre0.
06F0: 7F 80 00                                          ...             
```

#### Opcodes

```
  0: 0x06E0 [0x5B] LOAD_EXT_SCHEDULER: Load scheduler "yre0" with entities [EventEntity, EventEntity], work=2761*
  1: 0x06EF [0x1C] WAIT(280* ticks)
  2: 0x06F2 [0x00] END_REQSTACK()
```

### Event 65535.63

#### Metadata

| Field        | Value    |
|--------------|----------|
| Entrypoint   | 0x06F3   |
| Data Size    | 19 bytes |
| Instructions | 3        |

```
      00 01 02 03 04 05 06 07  08 09 0A 0B 0C 0D 0E 0F
      -- -- -- -- -- -- -- --  -- -- -- -- -- -- -- --
06F0:          5B 7B 80 F8 FF  FF 7F F8 FF FF 7F 61 6B     [{.........ak
0700: 69 30 1C 7D 80 00                                 i0.}..          
```

#### Opcodes

```
  0: 0x06F3 [0x5B] LOAD_EXT_SCHEDULER: Load scheduler "aki0" with entities [EventEntity, EventEntity], work=2761*
  1: 0x0702 [0x1C] WAIT(96* ticks)
  2: 0x0705 [0x00] END_REQSTACK()
```

### Event 10101

#### Metadata

| Field        | Value   |
|--------------|---------|
| Entrypoint   | 0x0706  |
| Data Size    | 1 bytes |
| Instructions | 1       |

```
      00 01 02 03 04 05 06 07  08 09 0A 0B 0C 0D 0E 0F
      -- -- -- -- -- -- -- --  -- -- -- -- -- -- -- --
0700:                   00                                    .         
```

#### Opcodes

```
  0: 0x0706 [0x00] END_REQSTACK()
```

### Event 65535.64

#### Metadata

| Field        | Value    |
|--------------|----------|
| Entrypoint   | 0x0707   |
| Data Size    | 16 bytes |
| Instructions | 2        |

```
      00 01 02 03 04 05 06 07  08 09 0A 0B 0C 0D 0E 0F
      -- -- -- -- -- -- -- --  -- -- -- -- -- -- -- --
0700:                      5B  80 80 F8 FF FF 7F F8 FF         [........
0710: FF 7F 64 73 6B 30 00                              ..dsk0.         
```

#### Opcodes

```
  0: 0x0707 [0x5B] LOAD_EXT_SCHEDULER: Load scheduler "dsk0" with entities [EventEntity, EventEntity], work=2765*
  1: 0x0716 [0x00] END_REQSTACK()
```

### Event 65535.65

#### Metadata

| Field        | Value    |
|--------------|----------|
| Entrypoint   | 0x0717   |
| Data Size    | 19 bytes |
| Instructions | 3        |

```
      00 01 02 03 04 05 06 07  08 09 0A 0B 0C 0D 0E 0F
      -- -- -- -- -- -- -- --  -- -- -- -- -- -- -- --
0710:                      5B  80 80 F8 FF FF 7F F8 FF         [........
0720: FF 7F 64 73 6B 31 1C 81  80 00                    ..dsk1....      
```

#### Opcodes

```
  0: 0x0717 [0x5B] LOAD_EXT_SCHEDULER: Load scheduler "dsk1" with entities [EventEntity, EventEntity], work=2765*
  1: 0x0726 [0x1C] WAIT(124* ticks)
  2: 0x0729 [0x00] END_REQSTACK()
```

### Event 10125

#### Metadata

| Field        | Value   |
|--------------|---------|
| Entrypoint   | 0x072A  |
| Data Size    | 1 bytes |
| Instructions | 1       |

```
      00 01 02 03 04 05 06 07  08 09 0A 0B 0C 0D 0E 0F
      -- -- -- -- -- -- -- --  -- -- -- -- -- -- -- --
0720:                                00                           .     
```

#### Opcodes

```
  0: 0x072A [0x00] END_REQSTACK()
```

### Event 65535.66

#### Metadata

| Field        | Value    |
|--------------|----------|
| Entrypoint   | 0x072B   |
| Data Size    | 24 bytes |
| Instructions | 6        |

```
      00 01 02 03 04 05 06 07  08 09 0A 0B 0C 0D 0E 0F
      -- -- -- -- -- -- -- --  -- -- -- -- -- -- -- --
0720:                                   32 00 80 1F 00             2....
0730: 82 80 83 80 84 80 1F 01  1F 00 85 80 86 80 87 80  ................
0740: 1F 01 00                                          ...             
```

#### Opcodes

```
  0: 0x072B [0x32] ExtData[1]->MainSpeed = 13* * 0.1
  1: 0x072E [0x1F] MOVE_ENTITY: EventEntity moves to X=38.682*, Z=-55.717*, Y=3.500*
  2: 0x0736 [0x1F] MOVE_ENTITY: Update entity position (mode=1)
  3: 0x0738 [0x1F] MOVE_ENTITY: EventEntity moves to X=32.412*, Z=-52.297*, Y=3.900*
  4: 0x0740 [0x1F] MOVE_ENTITY: Update entity position (mode=1)
  5: 0x0742 [0x00] END_REQSTACK()
```

### Event 65535.67

#### Metadata

| Field        | Value    |
|--------------|----------|
| Entrypoint   | 0x0743   |
| Data Size    | 23 bytes |
| Instructions | 5        |

```
      00 01 02 03 04 05 06 07  08 09 0A 0B 0C 0D 0E 0F
      -- -- -- -- -- -- -- --  -- -- -- -- -- -- -- --
0740:          37 85 80 86 80  87 80 88 80 32 00 80 1F     7........2...
0750: 00 2B 80 89 80 87 80 1F  01 00                    .+........      
```

#### Opcodes

```
  0: 0x0743 [0x37] UPDATE_EVENT_POSITION_AND_DIR: x=32.412*, z=-52.297*, y=3.900*, direction=377476129.3°*
  1: 0x074C [0x32] ExtData[1]->MainSpeed = 13* * 0.1
  2: 0x074F [0x1F] MOVE_ENTITY: EventEntity moves to X=32.000*, Z=-47.800*, Y=3.900*
  3: 0x0757 [0x1F] MOVE_ENTITY: Update entity position (mode=1)
  4: 0x0759 [0x00] END_REQSTACK()
```

### Event 65535.68

#### Metadata

| Field        | Value   |
|--------------|---------|
| Entrypoint   | 0x075A  |
| Data Size    | 6 bytes |
| Instructions | 4       |

```
      00 01 02 03 04 05 06 07  08 09 0A 0B 0C 0D 0E 0F
      -- -- -- -- -- -- -- --  -- -- -- -- -- -- -- --
0750:                                39 2A 80 6F 70 00            9*.op.
```

#### Opcodes

```
  0: 0x075A [0x39] SET_ENTITY_DIRECTION(direction=0.0°*)
  1: 0x075D [0x6F] WAIT_FRAME_DELAY: Yield until WaitTime reaches zero
  2: 0x075E [0x70] WAIT_ENTITY_RENDER_FLAG: Wait while EventEntity->Render.Flags3 bit 2 is set (cancel turn if not)
  3: 0x075F [0x00] END_REQSTACK()
```

### Event 10063

#### Metadata

| Field        | Value   |
|--------------|---------|
| Entrypoint   | 0x0760  |
| Data Size    | 1 bytes |
| Instructions | 1       |

```
      00 01 02 03 04 05 06 07  08 09 0A 0B 0C 0D 0E 0F
      -- -- -- -- -- -- -- --  -- -- -- -- -- -- -- --
0760: 00                                                .               
```

#### Opcodes

```
  0: 0x0760 [0x00] END_REQSTACK()
```

### Event 10064

#### Metadata

| Field        | Value   |
|--------------|---------|
| Entrypoint   | 0x0761  |
| Data Size    | 1 bytes |
| Instructions | 1       |

```
      00 01 02 03 04 05 06 07  08 09 0A 0B 0C 0D 0E 0F
      -- -- -- -- -- -- -- --  -- -- -- -- -- -- -- --
0760:    00                                              .              
```

#### Opcodes

```
  0: 0x0761 [0x00] END_REQSTACK()
```

### Event 65535.69

#### Metadata

| Field        | Value    |
|--------------|----------|
| Entrypoint   | 0x0762   |
| Data Size    | 26 bytes |
| Instructions | 6        |

```
      00 01 02 03 04 05 06 07  08 09 0A 0B 0C 0D 0E 0F
      -- -- -- -- -- -- -- --  -- -- -- -- -- -- -- --
0760:       32 00 80 1F 00 8A  80 8B 80 0E 80 1F 01 4A    2............J
0770: BC 50 0F 01 07 50 0F 01  1C 6A 80 00              .P...P...j..    
```

#### Opcodes

```
  0: 0x0762 [0x32] ExtData[1]->MainSpeed = 13* * 0.1
  1: 0x0765 [0x1F] MOVE_ENTITY: EventEntity moves to X=36.600*, Z=-41.879*, Y=3.899*
  2: 0x076D [0x1F] MOVE_ENTITY: Update entity position (mode=1)
  3: 0x076F [0x4A] Faursel (ID: 17780924/0x010F50BC) looks at Aldo (ID: 17780743/0x010F5007)
  4: 0x0778 [0x1C] WAIT(30* ticks)
  5: 0x077B [0x00] END_REQSTACK()
```

### Event 65535.70

#### Metadata

| Field        | Value    |
|--------------|----------|
| Entrypoint   | 0x077C   |
| Data Size    | 14 bytes |
| Instructions | 4        |

```
      00 01 02 03 04 05 06 07  08 09 0A 0B 0C 0D 0E 0F
      -- -- -- -- -- -- -- --  -- -- -- -- -- -- -- --
0770:                                      32 00 80 1F              2...
0780: 00 8C 80 8D 80 0E 80 1F  01 00                    ..........      
```

#### Opcodes

```
  0: 0x077C [0x32] ExtData[1]->MainSpeed = 13* * 0.1
  1: 0x077F [0x1F] MOVE_ENTITY: EventEntity moves to X=41.137*, Z=-44.580*, Y=3.899*
  2: 0x0787 [0x1F] MOVE_ENTITY: Update entity position (mode=1)
  3: 0x0789 [0x00] END_REQSTACK()
```

### Event 10130

#### Metadata

| Field        | Value     |
|--------------|-----------|
| Entrypoint   | 0x078A    |
| Data Size    | 181 bytes |
| Instructions | 36        |

```
      00 01 02 03 04 05 06 07  08 09 0A 0B 0C 0D 0E 0F
      -- -- -- -- -- -- -- --  -- -- -- -- -- -- -- --
0780:                                1E F0 FF FF 7F 4A            .....J
0790: F0 FF FF 7F F8 FF FF 7F  6F 70 1C 6A 80 5B 20 80  ........op.j.[ .
07A0: F8 FF FF 7F F8 FF FF 7F  74 6C 6B 30 1D 8E 80 1C  ........tlk0....
07B0: 8F 80 23 5B 20 80 F8 FF  FF 7F F8 FF FF 7F 74 6C  ..#[ .........tl
07C0: 6B 31 27 10 F0 FF FF 7F  6C 1C 10 80 48 90 80 1C  k1'.....l...H...
07D0: 91 80 7B F8 FF FF 7F 5B  20 80 F8 FF FF 7F F8 FF  ..{....[ .......
07E0: FF 7F 74 68 6B 31 1D 92  80 23 1D 93 80 23 1D 94  ..thk1...#...#..
07F0: 80 1C 10 80 23 5B 20 80  F8 FF FF 7F F8 FF FF 7F  ....#[ .........
0800: 74 68 6B 32 79 00 F8 FF  FF 7F F0 FF FF 7F 1C 10  thk2y...........
0810: 80 5B 20 80 F8 FF FF 7F  F8 FF FF 7F 74 6C 6B 30  .[ .........tlk0
0820: 1D 95 80 23 1D 96 80 1C  8F 80 23 5B 20 80 F8 FF  ...#......#[ ...
0830: FF 7F F8 FF FF 7F 74 6C  6B 31 1C 10 80 21 00     ......tlk1...!. 
```

#### Opcodes

```
  0: 0x078A [0x1E] EventEntity looks at LocalPlayer and starts talking
  1: 0x078F [0x4A] LocalPlayer looks at EventEntity
  2: 0x0798 [0x6F] WAIT_FRAME_DELAY: Yield until WaitTime reaches zero
  3: 0x0799 [0x70] WAIT_ENTITY_RENDER_FLAG: Wait while EventEntity->Render.Flags3 bit 2 is set (cancel turn if not)
  4: 0x079A [0x1C] WAIT(30* ticks)
  5: 0x079D [0x5B] LOAD_EXT_SCHEDULER: Load scheduler "tlk0" with entities [EventEntity, EventEntity], work=185*
  6: 0x07AC [0x1D] PRINT_EVENT_MESSAGE(message_id=10534*)
    → "Hello, <Player>. What brings you here today?"
  7: 0x07AF [0x1C] WAIT(90* ticks)
  8: 0x07B2 [0x23] WAIT_FOR_DIALOG_INTERACTION
  9: 0x07B3 [0x5B] LOAD_EXT_SCHEDULER: Load scheduler "tlk1" with entities [EventEntity, EventEntity], work=185*
 10: 0x07C2 [0x27] REQ_SET(priority=0x10, entity_id=LocalPlayer, tag_num=0x6C)
 11: 0x07C9 [0x1C] WAIT(60* ticks)
 12: 0x07CC [0x48] [System] [10535*]:
    → "<Player> showed the $3."
 13: 0x07CF [0x1C] WAIT(120* ticks)
 14: 0x07D2 [0x7B] EventEntity stops talking
 15: 0x07D7 [0x5B] LOAD_EXT_SCHEDULER: Load scheduler "thk1" with entities [EventEntity, EventEntity], work=185*
 16: 0x07E6 [0x1D] PRINT_EVENT_MESSAGE(message_id=10536*)
    → "Hmm... This is..."
 17: 0x07E9 [0x23] WAIT_FOR_DIALOG_INTERACTION
 18: 0x07EA [0x1D] PRINT_EVENT_MESSAGE(message_id=10537*)
    → "I had heard that it was related to some ancient technology, but now it all makes sense..."
 19: 0x07ED [0x23] WAIT_FOR_DIALOG_INTERACTION
 20: 0x07EE [0x1D] PRINT_EVENT_MESSAGE(message_id=10538*)
    → "I suppose your intention here is to use the A.M.A.N. to have its adventurers solve the riddle."
 21: 0x07F1 [0x1C] WAIT(60* ticks)
 22: 0x07F4 [0x23] WAIT_FOR_DIALOG_INTERACTION
