# 17780790 - Kuah Dakonsa

## Common Data

| Field            | Value                 |
|------------------|-----------------------|
| Zone             | Lower Jeuno (ID: 245) |
| Block Size       | 23252 bytes           |
| Total Events     | 104                   |
| References Count | 367                   |

## List of Events

| Event ID                   | Entrypoint   |   Size |   Instructions |
|----------------------------|--------------|--------|----------------|
| [65535](#event-65535)      | 0x0000       |      1 |              1 |
| [190](#event-190)          | 0x0001       |     75 |             13 |
| [10048](#event-10048)      | 0x004C       |    257 |             61 |
| [20000](#event-20000)      | 0x014D       |  19312 |           3305 |
| [10094](#event-10094)      | 0x4CBD       |      5 |              3 |
| [65535.1](#event-655351)   | 0x4CC2       |     20 |              5 |
| [65535.2](#event-655352)   | 0x4CD6       |     20 |              5 |
| [65535.3](#event-655353)   | 0x4CEA       |     20 |              5 |
| [65535.4](#event-655354)   | 0x4CFE       |     17 |              3 |
| [65535.5](#event-655355)   | 0x4D0F       |     20 |              5 |
| [65535.6](#event-655356)   | 0x4D23       |     20 |              5 |
| [65535.7](#event-655357)   | 0x4D37       |     19 |              4 |
| [65535.8](#event-655358)   | 0x4D4A       |     19 |              4 |
| [65535.9](#event-655359)   | 0x4D5D       |     16 |              2 |
| [65535.10](#event-6553510) | 0x4D6D       |     16 |              2 |
| [65535.11](#event-6553511) | 0x4D7D       |     20 |              5 |
| [65535.12](#event-6553512) | 0x4D91       |     16 |              2 |
| [65535.13](#event-6553513) | 0x4DA1       |     16 |              2 |
| [65535.14](#event-6553514) | 0x4DB1       |     16 |              2 |
| [65535.15](#event-6553515) | 0x4DC1       |     21 |              6 |
| [65535.16](#event-6553516) | 0x4DD6       |     16 |              2 |
| [65535.17](#event-6553517) | 0x4DE6       |     16 |              2 |
| [65535.18](#event-6553518) | 0x4DF6       |     20 |              5 |
| [65535.19](#event-6553519) | 0x4E0A       |     17 |              3 |
| [65535.20](#event-6553520) | 0x4E1B       |     20 |              5 |
| [65535.21](#event-6553521) | 0x4E2F       |     16 |              2 |
| [65535.22](#event-6553522) | 0x4E3F       |     16 |              2 |
| [65535.23](#event-6553523) | 0x4E4F       |     16 |              2 |
| [65535.24](#event-6553524) | 0x4E5F       |     16 |              2 |
| [65535.25](#event-6553525) | 0x4E6F       |     16 |              2 |
| [65535.26](#event-6553526) | 0x4E7F       |     16 |              2 |
| [65535.27](#event-6553527) | 0x4E8F       |     16 |              2 |
| [65535.28](#event-6553528) | 0x4E9F       |     12 |              4 |
| [65535.29](#event-6553529) | 0x4EAB       |     20 |              5 |
| [65535.30](#event-6553530) | 0x4EBF       |     17 |              3 |
| [65535.31](#event-6553531) | 0x4ED0       |     17 |              3 |
| [65535.32](#event-6553532) | 0x4EE1       |     16 |              2 |
| [65535.33](#event-6553533) | 0x4EF1       |     16 |              2 |
| [65535.34](#event-6553534) | 0x4F01       |     16 |              2 |
| [65535.35](#event-6553535) | 0x4F11       |     16 |              2 |
| [65535.36](#event-6553536) | 0x4F21       |     16 |              2 |
| [65535.37](#event-6553537) | 0x4F31       |     16 |              2 |
| [65535.38](#event-6553538) | 0x4F41       |     13 |              5 |
| [65535.39](#event-6553539) | 0x4F4E       |     20 |              5 |
| [65535.40](#event-6553540) | 0x4F62       |     12 |              4 |
| [65535.41](#event-6553541) | 0x4F6E       |     16 |              2 |
| [65535.42](#event-6553542) | 0x4F7E       |     16 |              2 |
| [65535.43](#event-6553543) | 0x4F8E       |     16 |              2 |
| [65535.44](#event-6553544) | 0x4F9E       |     20 |              5 |
| [65535.45](#event-6553545) | 0x4FB2       |     29 |              6 |
| [65535.46](#event-6553546) | 0x4FCF       |     17 |              3 |
| [65535.47](#event-6553547) | 0x4FE0       |     20 |              5 |
| [65535.48](#event-6553548) | 0x4FF4       |     20 |              5 |
| [65535.49](#event-6553549) | 0x5008       |     20 |              5 |
| [65535.50](#event-6553550) | 0x501C       |     20 |              5 |
| [65535.51](#event-6553551) | 0x5030       |     20 |              5 |
| [65535.52](#event-6553552) | 0x5044       |     16 |              2 |
| [65535.53](#event-6553553) | 0x5054       |     16 |              2 |
| [65535.54](#event-6553554) | 0x5064       |     20 |              5 |
| [65535.55](#event-6553555) | 0x5078       |     16 |              2 |
| [65535.56](#event-6553556) | 0x5088       |     16 |              2 |
| [65535.57](#event-6553557) | 0x5098       |     16 |              2 |
| [65535.58](#event-6553558) | 0x50A8       |     16 |              2 |
| [65535.59](#event-6553559) | 0x50B8       |     21 |              6 |
| [65535.60](#event-6553560) | 0x50CD       |     20 |              5 |
| [65535.61](#event-6553561) | 0x50E1       |     20 |              5 |
| [65535.62](#event-6553562) | 0x50F5       |     17 |              3 |
| [65535.63](#event-6553563) | 0x5106       |     20 |              5 |
| [65535.64](#event-6553564) | 0x511A       |     20 |              5 |
| [65535.65](#event-6553565) | 0x512E       |     16 |              2 |
| [65535.66](#event-6553566) | 0x513E       |     16 |              2 |
| [65535.67](#event-6553567) | 0x514E       |     21 |              6 |
| [65535.68](#event-6553568) | 0x5163       |     20 |              5 |
| [65535.69](#event-6553569) | 0x5177       |     20 |              5 |
| [65535.70](#event-6553570) | 0x518B       |     16 |              2 |
| [65535.71](#event-6553571) | 0x519B       |     20 |              5 |
| [65535.72](#event-6553572) | 0x51AF       |     21 |              6 |
| [65535.73](#event-6553573) | 0x51C4       |     20 |              5 |
| [65535.74](#event-6553574) | 0x51D8       |     12 |              4 |
| [65535.75](#event-6553575) | 0x51E4       |     16 |              2 |
| [65535.76](#event-6553576) | 0x51F4       |     16 |              2 |
| [65535.77](#event-6553577) | 0x5204       |     20 |              5 |
| [65535.78](#event-6553578) | 0x5218       |     20 |              5 |
| [65535.79](#event-6553579) | 0x522C       |     17 |              3 |
| [65535.80](#event-6553580) | 0x523D       |     16 |              2 |
| [65535.81](#event-6553581) | 0x524D       |     16 |              2 |
| [65535.82](#event-6553582) | 0x525D       |     16 |              2 |
| [65535.83](#event-6553583) | 0x526D       |     16 |              2 |
| [65535.84](#event-6553584) | 0x527D       |     17 |              3 |
| [65535.85](#event-6553585) | 0x528E       |     20 |              5 |
| [65535.86](#event-6553586) | 0x52A2       |     12 |              4 |
| [65535.87](#event-6553587) | 0x52AE       |     16 |              2 |
| [65535.88](#event-6553588) | 0x52BE       |     16 |              2 |
| [65535.89](#event-6553589) | 0x52CE       |     16 |              2 |
| [65535.90](#event-6553590) | 0x52DE       |     16 |              2 |
| [65535.91](#event-6553591) | 0x52EE       |     16 |              2 |
| [65535.92](#event-6553592) | 0x52FE       |     16 |              2 |
| [65535.93](#event-6553593) | 0x530E       |     16 |              2 |
| [65535.94](#event-6553594) | 0x531E       |     20 |              5 |
| [65535.95](#event-6553595) | 0x5332       |     20 |              5 |
| [65535.96](#event-6553596) | 0x5346       |     16 |              2 |
| [65535.97](#event-6553597) | 0x5356       |     16 |              2 |
| [20035](#event-20035)      | 0x5366       |      1 |              1 |
| [20047](#event-20047)      | 0x5367       |      1 |              1 |

## DAT References (imed_data)

|   Index | Hex Value   |   Dec Value |
|---------|-------------|-------------|
|       0 | 0x0034      |          52 |
|       1 | 0x1E70      |        7792 |
|       2 | 0x0032      |          50 |
|       3 | 0x1E71      |        7793 |
|       4 | 0x2355      |        9045 |
|       5 | 0x0000      |           0 |
|       6 | 0x2356      |        9046 |
|       7 | 0x0001      |           1 |
|       8 | 0x2357      |        9047 |
|       9 | 0x0002      |           2 |
|      10 | 0x2358      |        9048 |
|      11 | 0x0003      |           3 |
|      12 | 0x2359      |        9049 |
|      13 | 0x0004      |           4 |
|      14 | 0x235A      |        9050 |
|      15 | 0x0005      |           5 |
|      16 | 0x235B      |        9051 |
|      17 | 0x0006      |           6 |
|      18 | 0x235C      |        9052 |
|      19 | 0x0007      |           7 |
|      20 | 0x235D      |        9053 |
|      21 | 0x235E      |        9054 |
|      22 | 0x235F      |        9055 |
|      23 | 0x2360      |        9056 |
|      24 | 0x2361      |        9057 |
|      25 | 0x0023      |          35 |
|      26 | 0x25A7      |        9639 |
|      27 | 0x25A8      |        9640 |
|      28 | 0x25A9      |        9641 |
|      29 | 0x25AA      |        9642 |
|      30 | 0x25AB      |        9643 |
|      31 | 0x25AC      |        9644 |
|      32 | 0x25AD      |        9645 |
|      33 | 0x25AE      |        9646 |
|      34 | 0x25AF      |        9647 |
|      35 | 0x25B0      |        9648 |
|      36 | 0x25B1      |        9649 |
|      37 | 0x00C8      |         200 |
|      38 | 0x001E      |          30 |
|      39 | 0x40000000  |  1073741824 |
|      40 | 0x0013      |          19 |
|      41 | 0xFFFF4CEB  |  4294921451 |
|      42 | 0xFFFF426D  |  4294918765 |
|      43 | 0x0195      |         405 |
|      44 | 0x25B2      |        9650 |
|      45 | 0x25B3      |        9651 |
|      46 | 0x25B4      |        9652 |
|      47 | 0x005F      |          95 |
|      48 | 0x0064      |         100 |
|      49 | 0x0069      |         105 |
|      50 | 0x0052      |          82 |
|      51 | 0x0057      |          87 |
|      52 | 0x005C      |          92 |
|      53 | 0x0059      |          89 |
|      54 | 0x005D      |          93 |
|      55 | 0x0061      |          97 |
|      56 | 0x0060      |          96 |
|      57 | 0x0008      |           8 |
|      58 | 0x0009      |           9 |
|      59 | 0x000A      |          10 |
|      60 | 0x000D      |          13 |
|      61 | 0x0012      |          18 |
|      62 | 0x0014      |          20 |
|      63 | 0x0017      |          23 |
|      64 | 0x000C      |          12 |
|      65 | 0x000F      |          15 |
|      66 | 0x000E      |          14 |
|      67 | 0x000B      |          11 |
|      68 | 0x0018      |          24 |
|      69 | 0x001F      |          31 |
|      70 | 0x001B      |          27 |
|      71 | 0x0010      |          16 |
|      72 | 0x0015      |          21 |
|      73 | 0x018D      |         397 |
|      74 | 0x0175      |         373 |
|      75 | 0x0170      |         368 |
|      76 | 0x0171      |         369 |
|      77 | 0x014C      |         332 |
|      78 | 0x01C1      |         449 |
|      79 | 0x027C      |         636 |
|      80 | 0x027B      |         635 |
|      81 | 0x027D      |         637 |
|      82 | 0x02D3      |         723 |
|      83 | 0x0321      |         801 |
|      84 | 0x0326      |         806 |
|      85 | 0x01E1      |         481 |
|      86 | 0x0343      |         835 |
|      87 | 0x0386      |         902 |
|      88 | 0x0388      |         904 |
|      89 | 0x0361      |         865 |
|      90 | 0x0387      |         903 |
|      91 | 0x038A      |         906 |
|      92 | 0x003F      |          63 |
|      93 | 0x0282      |         642 |
|      94 | 0x0283      |         643 |
|      95 | 0x0288      |         648 |
|      96 | 0x0289      |         649 |
|      97 | 0x028A      |         650 |
|      98 | 0x028B      |         651 |
|      99 | 0x029E      |         670 |
|     100 | 0x0019      |          25 |
|     101 | 0x00C6      |         198 |
|     102 | 0x00B5      |         181 |
|     103 | 0x008C      |         140 |
|     104 | 0x008E      |         142 |
|     105 | 0x007A      |         122 |
|     106 | 0x014B      |         331 |
|     107 | 0x0148      |         328 |
|     108 | 0x0166      |         358 |
|     109 | 0x017A      |         378 |
|     110 | 0x0182      |         386 |
|     111 | 0x0183      |         387 |
|     112 | 0x0192      |         402 |
|     113 | 0x01DF      |         479 |
|     114 | 0x01E9      |         489 |
|     115 | 0x001C      |          28 |
|     116 | 0x00E6      |         230 |
|     117 | 0x00EB      |         235 |
|     118 | 0x00F5      |         245 |
|     119 | 0x007E      |         126 |
|     120 | 0x007F      |         127 |
|     121 | 0x00F3      |         243 |
|     122 | 0x00F4      |         244 |
|     123 | 0x00E0      |         224 |
|     124 | 0x00E9      |         233 |
|     125 | 0x009E      |         158 |
|     126 | 0x009D      |         157 |
|     127 | 0x00E2      |         226 |
|     128 | 0x00E1      |         225 |
|     129 | 0x014F      |         335 |
|     130 | 0x014E      |         334 |
|     131 | 0x0167      |         359 |
|     132 | 0x00E5      |         229 |
|     133 | 0x0169      |         361 |
|     134 | 0x016A      |         362 |
|     135 | 0x0168      |         360 |
|     136 | 0x0133      |         307 |
|     137 | 0x0174      |         372 |
|     138 | 0x018C      |         396 |
|     139 | 0x0194      |         404 |
|     140 | 0x0178      |         376 |
|     141 | 0x0240      |         576 |
|     142 | 0x0197      |         407 |
|     143 | 0x0198      |         408 |
|     144 | 0x01A3      |         419 |
|     145 | 0x019E      |         414 |
|     146 | 0x0246      |         582 |
|     147 | 0x0247      |         583 |
|     148 | 0x0248      |         584 |
|     149 | 0x024B      |         587 |
|     150 | 0x024A      |         586 |
|     151 | 0x0011      |          17 |
|     152 | 0x024F      |         591 |
|     153 | 0x01C3      |         451 |
|     154 | 0x01C4      |         452 |
|     155 | 0x01EF      |         495 |
|     156 | 0x01F0      |         496 |
|     157 | 0x001A      |          26 |
|     158 | 0x0095      |         149 |
|     159 | 0x001D      |          29 |
|     160 | 0x0073      |         115 |
|     161 | 0x0024      |          36 |
|     162 | 0x005E      |          94 |
|     163 | 0x0072      |         114 |
|     164 | 0x0031      |          49 |
|     165 | 0x006C      |         108 |
|     166 | 0x003A      |          58 |
|     167 | 0x0096      |         150 |
|     168 | 0x0016      |          22 |
|     169 | 0x0035      |          53 |
|     170 | 0x0085      |         133 |
|     171 | 0x0081      |         129 |
|     172 | 0x0033      |          51 |
|     173 | 0x0082      |         130 |
|     174 | 0x0039      |          57 |
|     175 | 0x0020      |          32 |
|     176 | 0x0038      |          56 |
|     177 | 0x0036      |          54 |
|     178 | 0x0083      |         131 |
|     179 | 0x00A2      |         162 |
|     180 | 0x0022      |          34 |
|     181 | 0x0021      |          33 |
|     182 | 0x0065      |         101 |
|     183 | 0x0086      |         134 |
|     184 | 0x0062      |          98 |
|     185 | 0x008D      |         141 |
|     186 | 0x0037      |          55 |
|     187 | 0x008A      |         138 |
|     188 | 0x008B      |         139 |
|     189 | 0x002B      |          43 |
|     190 | 0x0067      |         103 |
|     191 | 0x0030      |          48 |
|     192 | 0x002D      |          45 |
|     193 | 0x00A1      |         161 |
|     194 | 0x0066      |         102 |
|     195 | 0x0075      |         117 |
|     196 | 0x0068      |         104 |
|     197 | 0x007B      |         123 |
|     198 | 0x0077      |         119 |
|     199 | 0x01FE      |         510 |
|     200 | 0x009F      |         159 |
|     201 | 0x00A4      |         164 |
|     202 | 0x00A9      |         169 |
|     203 | 0x00AC      |         172 |
|     204 | 0x00B2      |         178 |
|     205 | 0x00B0      |         176 |
|     206 | 0x013D      |         317 |
|     207 | 0x0108      |         264 |
|     208 | 0x010C      |         268 |
|     209 | 0x0100      |         256 |
|     210 | 0x00FB      |         251 |
|     211 | 0x00B8      |         184 |
|     212 | 0x011C      |         284 |
|     213 | 0x0041      |          65 |
|     214 | 0x0042      |          66 |
|     215 | 0x0047      |          71 |
|     216 | 0x0160      |         352 |
|     217 | 0x0043      |          67 |
|     218 | 0x0048      |          72 |
|     219 | 0x004B      |          75 |
|     220 | 0x004C      |          76 |
|     221 | 0x004D      |          77 |
|     222 | 0x005B      |          91 |
|     223 | 0x0058      |          88 |
|     224 | 0x0053      |          83 |
|     225 | 0x0054      |          84 |
|     226 | 0x0161      |         353 |
|     227 | 0x015C      |         348 |
|     228 | 0x016D      |         365 |
|     229 | 0x00C5      |         197 |
|     230 | 0x00C3      |         195 |
|     231 | 0x00C7      |         199 |
|     232 | 0x015E      |         350 |
|     233 | 0x00C4      |         196 |
|     234 | 0x016E      |         366 |
|     235 | 0x00D0      |         208 |
|     236 | 0x00CD      |         205 |
|     237 | 0x00CA      |         202 |
|     238 | 0x00D2      |         210 |
|     239 | 0x00D8      |         216 |
|     240 | 0x00D5      |         213 |
|     241 | 0x00D6      |         214 |
|     242 | 0x013B      |         315 |
|     243 | 0x0136      |         310 |
|     244 | 0x013A      |         314 |
|     245 | 0x0137      |         311 |
|     246 | 0x016F      |         367 |
|     247 | 0x0138      |         312 |
|     248 | 0x0139      |         313 |
|     249 | 0x009A      |         154 |
|     250 | 0x0091      |         145 |
|     251 | 0x009B      |         155 |
|     252 | 0x0099      |         153 |
|     253 | 0x0093      |         147 |
|     254 | 0x0092      |         146 |
|     255 | 0x0098      |         152 |
|     256 | 0x0071      |         113 |
|     257 | 0x00E8      |         232 |
|     258 | 0x00DD      |         221 |
|     259 | 0x00F8      |         248 |
|     260 | 0x00F1      |         241 |
|     261 | 0x0124      |         292 |
|     262 | 0x012E      |         302 |
|     263 | 0x0129      |         297 |
|     264 | 0x0122      |         290 |
|     265 | 0x0132      |         306 |
|     266 | 0x0126      |         294 |
|     267 | 0x0155      |         341 |
|     268 | 0x0025      |          37 |
|     269 | 0x0029      |          41 |
|     270 | 0x0028      |          40 |
|     271 | 0x007D      |         125 |
|     272 | 0x0079      |         121 |
|     273 | 0x007C      |         124 |
|     274 | 0x0074      |         116 |
|     275 | 0x00EC      |         236 |
|     276 | 0x019C      |         412 |
|     277 | 0x0193      |         403 |
|     278 | 0x01C6      |         454 |
|     279 | 0x01C7      |         455 |
|     280 | 0xFFFED6C4  |  4294891204 |
|     281 | 0xFFFDEB5B  |  4294830939 |
|     282 | 0xFFFE8B97  |  4294871959 |
|     283 | 0xFFFD9E68  |  4294811240 |
|     284 | 0xFFFF0D87  |  4294905223 |
|     285 | 0xFFFEA0EF  |  4294877423 |
|     286 | 0x176F      |        5999 |
|     287 | 0x0A3A      |        2618 |
|     288 | 0xFFFEB818  |  4294883352 |
|     289 | 0xFFFE098F  |  4294838671 |
|     290 | 0xFFFEF410  |  4294898704 |
|     291 | 0xFFFE85B9  |  4294870457 |
|     292 | 0xFFFEEC91  |  4294896785 |
|     293 | 0xFFFE6EA2  |  4294864546 |
|     294 | 0x0A2A      |        2602 |
|     295 | 0xFFFEE552  |  4294894930 |
|     296 | 0xFFFE3269  |  4294849129 |
|     297 | 0x0A39      |        2617 |
|     298 | 0x0045      |          69 |
|     299 | 0xFFFF2160  |  4294910304 |
|     300 | 0xFFFEA80E  |  4294879246 |
|     301 | 0x0A3D      |        2621 |
|     302 | 0x0A43      |        2627 |
|     303 | 0xFFFFB20E  |  4294947342 |
|     304 | 0xFFFFAE2A  |  4294946346 |
|     305 | 0xFFFEDC35  |  4294892597 |
|     306 | 0xFFFE5D95  |  4294860181 |
|     307 | 0x0A47      |        2631 |
|     308 | 0x0055      |          85 |
|     309 | 0xFFFFB26F  |  4294947439 |
|     310 | 0xFFFFAB30  |  4294945584 |
|     311 | 0xFFFF6C7D  |  4294929533 |
|     312 | 0xFFFF0AA4  |  4294904484 |
|     313 | 0xFFFFCBCA  |  4294953930 |
|     314 | 0x09E0      |        2528 |
|     315 | 0xFFFFFE3F  |  4294966847 |
|     316 | 0xFFFEEA26  |  4294896166 |
|     317 | 0xFFFE4F39  |  4294856505 |
|     318 | 0xFFFED8EC  |  4294891756 |
|     319 | 0xFFFE38BF  |  4294850751 |
|     320 | 0xFFFEC5BC  |  4294886844 |
|     321 | 0xFFFE1640  |  4294841920 |
|     322 | 0x03E7      |         999 |
|     323 | 0x0A33      |        2611 |
|     324 | 0xFFFF04E1  |  4294903009 |
|     325 | 0xFFFE7108  |  4294865160 |
|     326 | 0x108C      |        4236 |
|     327 | 0x10F0      |        4336 |
|     328 | 0xFFFFC3F0  |  4294951920 |
|     329 | 0xFFFFA321  |  4294943521 |
|     330 | 0xFFFFFF9B  |  4294967195 |
|     331 | 0x0A18      |        2584 |
|     332 | 0xFFFFFC21  |  4294966305 |
|     333 | 0x084B      |        2123 |
|     334 | 0xFFFF0DFA  |  4294905338 |
|     335 | 0xFFFE6C9D  |  4294864029 |
|     336 | 0xFFFEFBE3  |  4294900707 |
|     337 | 0xFFFE9775  |  4294874997 |
|     338 | 0xFFFF19CD  |  4294908365 |
|     339 | 0xFFFEAC62  |  4294880354 |
|     340 | 0xFFFECE8B  |  4294889099 |
|     341 | 0xFFFE3998  |  4294850968 |
|     342 | 0x0F9F      |        3999 |
|     343 | 0x0A17      |        2583 |
|     344 | 0xFFFFD965  |  4294957413 |
|     345 | 0xFFFFD99E  |  4294957470 |
|     346 | 0xFFFEE68C  |  4294895244 |
|     347 | 0xFFFE6FBD  |  4294864829 |
|     348 | 0xFFFFE923  |  4294961443 |
|     349 | 0xFFFFEBBA  |  4294962106 |
|     350 | 0xFFFF4F66  |  4294922086 |
|     351 | 0xFFFEA394  |  4294878100 |
|     352 | 0xFFFFE891  |  4294961297 |
|     353 | 0xFFFFB859  |  4294948953 |
|     354 | 0xFFFFDFA2  |  4294959010 |
|     355 | 0xFFFFB9ED  |  4294949357 |
|     356 | 0xFFFFBF3D  |  4294950717 |
|     357 | 0xFFFFF407  |  4294964231 |
|     358 | 0xFFFFE105  |  4294959365 |
|     359 | 0x003C      |          60 |
|     360 | 0x0A40      |        2624 |
|     361 | 0xFFFF6A1D  |  4294928925 |
|     362 | 0xFFFEF858  |  4294899800 |
|     363 | 0xFFFFEA43  |  4294961731 |
|     364 | 0xFFFFF8F4  |  4294965492 |
|     365 | 0xFFFFF533  |  4294964531 |
|     366 | 0x13C3      |        5059 |

## String References

- **7792**: I like to stand here and watch you people rrrun back and forth all day. I wonder what the hurry is...
- **7793**: Sometimes you should slow down and walk for a change. You know, stop and smell the rrroses!
- **9045**: What's that? You're trying to trrrack someone down?
- **9046**: A guy called [Feliz/Ferdinand/Gunnar/Massimo/Oldrich/Siegward/Theobald/Zenji]? I see a lot of you people rrrunning past here everrry day... Got anything else I can worrrk with?
- **9047**: A girl called [Amerita/Beatrice/Henrietta/Jesimae/Karyn/Nanako/Sharlene/Sieghilde]? I see a lot of you people rrrunning past here everrry day... Got anything else I can worrrk with?
- **9048**: A guy called [Chanandit/Deulmaeux/Demresinaux/Ephealgaux/Gauldeval/Grauffemart/Migaifongut/Romidiant]? I see a lot of you people rrrunning past here everrry day... Got anything else I can worrrk with?
- **9049**: A girl called [Armittie/Cadepure/Clearite/Epilleve/Liabelle/Nauthima/Radille/Vimechue]? I see a lot of you people rrrunning past here everrry day... Got anything else I can worrrk with?
- **9050**: A guy called [Balu-Falu/Burg-Ladarg/Ehgo-Ryuhgo/Kolui-Pelui/Nokum-Akkum/Savul-Kivul/Vinja-Kanja/Yarga-Umiga]? I see a lot of you people rrrunning past here everrry day... Got anything else I can worrrk with?
- **9051**: A girl called [Cupapa/Jajuju/Kalokoko/Mahoyaya/Pakurara/Ripokeke/Yawawa/Yufafa]? I see a lot of you people rrrunning past here everrry day... Got anything else I can worrrk with?
- **9052**: A girl called [Fhig Lahrv/Khuma Tagyawhan/Pimy Kettihl/Raka Maimhov/Sahyu Banjyao/Sufhi Uchnouma/Tsuim Nhomango/Yoli Kohlpaka]? I see a lot of you people rrrunning past here everrry day... Got anything else I can worrrk with?
- **9053**: A guy called [Durib/Dzapiwa/Jugowa/Mugido/Voldai/Wagwei/Zayag/Zoldof]? I see a lot of you people rrrunning past here everrry day... Got anything else I can worrrk with?
- **9054**: Wait a minute. Did this person have [bristly hair/shoulder-length hair/a beard/long bangs/messy hair/straight bangs/parted bangs/hair standing straight up]?
- **9055**: Did the person have [bristly hair/shoulder-length hair/a beard/long bangs/messy hair/straight bangs/parted bangs/hair standing up]? [I'm pretty sure./Not that I know of...]
- **9056**: Oh, I know the one. Try looking in Upper Jeuno. That's all I know.
- **9057**: Then sorry, I can't help you.
- **9639**: What's that? You're trying to trrrack someone down?
- **9640**: [Feliz/Ferdinand/Gunnar/Massimo/Oldrich/Siegward/Theobald/Zenji]H I watch hundrrreds of people running back and forth all day, but it's not like their names are floating above their heads, you know.
- **9641**: [Amerita/Beatrice/Henrietta/Jesimae/Karyn/Nanako/Sharlene/Sieghilde]? I watch hundrrreds of people running back and forth all day, but it's not like their names are floating above their heads, you know.
- **9642**: [Chanandit/Deulmaeux/Demresinaux/Ephealgaux/Gauldeval/Grauffemart/Migaifongut/Romidiant]? I watch hundrrreds of people running back and forth all day, but it's not like their names are floating above their heads, you know.
- **9643**: [Armittie/Cadepure/Clearite/Epilleve/Liabelle/Nauthima/Radille/Vimechue]? I watch hundrrreds of people running back and forth all day, but it's not like their names are floating above their heads, you know.
- **9644**: [Balu-Falu/Burg-Ladarg/Ehgo-Ryuhgo/Kolui-Pelui/Nokum-Akkum/Savul-Kivul/Vinja-Kanja/Yarga-Umiga]? I watch hundrrreds of people running back and forth all day, but it's not like their names are floating above their heads, you know.
- **9645**: [Cupapa/Jajuju/Kalokoko/Mahoyaya/Pakurara/Ripokeke/Yawawa/Yufafa]? I watch hundrrreds of people running back and forth all day, but it's not like their names are floating above their heads, you know.
- **9646**: [Fhig Lahrv/Khuma Tagyawhan/Pimy Kettihl/Raka Maimhov/Sahyu Banjyao/Sufhi Uchnouma/Tsuim Nhomango/Yoli Kohlpaka]? I watch hundrrreds of people running back and forth all day, but it's not like their names are floating above their heads, you know.
- **9647**: [Durib/Dzapiwa/Jugowa/Mugido/Voldai/Wagwei/Zayag/Zoldof]? I watch hundrrreds of people running back and forth all day, but it's not like their names are floating above their heads, you know.
- **9648**: Hey, I've got an idea! Why don't you take a look at the photos of people in this magazine here? Maybe one of them rrresembles who you're searching for.
- **9649**: Look at which page? [Nothing./1A/1B"A"B"A"B/4A/4B/5A/5B/6A/6B/7A/7B/8A/8B]
- **9650**: This kind of face, eh?
- **9651**: This face? [Yes./Maybe not...]
- **9652**: I'm prrretty sure no one like this has come through here for the past few days. You might want to check out other arrreas in Jeuno.

## Events

### Event 65535

#### Metadata

| Field        | Value   |
|--------------|---------|
| Entrypoint   | 0x0000  |
| Data Size    | 1 bytes |
| Instructions | 1       |

```
      00 01 02 03 04 05 06 07  08 09 0A 0B 0C 0D 0E 0F
      -- -- -- -- -- -- -- --  -- -- -- -- -- -- -- --
0000: 00                                                .               
```

#### Opcodes

```
  0: 0x0000 [0x00] END_REQSTACK()
```

### Event 190

#### Metadata

| Field        | Value    |
|--------------|----------|
| Entrypoint   | 0x0001   |
| Data Size    | 75 bytes |
| Instructions | 13       |

```
      00 01 02 03 04 05 06 07  08 09 0A 0B 0C 0D 0E 0F
      -- -- -- -- -- -- -- --  -- -- -- -- -- -- -- --
0000:    1E F0 FF FF 7F 6F 70  66 00 80 F8 FF FF 7F F8   .....opf.......
0010: FF FF 7F 64 69 73 30 1D  01 80 23 66 02 80 F8 FF  ...dis0...#f....
0020: FF 7F F8 FF FF 7F 74 68  6B 31 1D 03 80 23 66 02  ......thk1...#f.
0030: 80 F8 FF FF 7F F8 FF FF  7F 74 68 6B 32 53 F8 FF  .........thk2S..
0040: FF 7F F8 FF FF 7F 74 68  6B 32 21 00              ......thk2!.    
```

#### Opcodes

```
  0: 0x0001 [0x1E] EventEntity looks at LocalPlayer and starts talking
  1: 0x0006 [0x6F] WAIT_FRAME_DELAY: Yield until WaitTime reaches zero
  2: 0x0007 [0x70] WAIT_ENTITY_RENDER_FLAG: Wait while EventEntity->Render.Flags3 bit 2 is set (cancel turn if not)
  3: 0x0008 [0x66] LOAD_EXT_SCHEDULER_MAIN: Load scheduler "dis0" with entities [EventEntity, EventEntity], work=52*
  4: 0x0017 [0x1D] PRINT_EVENT_MESSAGE(message_id=7792*)
    → "I like to stand here and watch you people rrrun back and forth all day. I wonder what the hurry is..."
  5: 0x001A [0x23] WAIT_FOR_DIALOG_INTERACTION
  6: 0x001B [0x66] LOAD_EXT_SCHEDULER_MAIN: Load scheduler "thk1" with entities [EventEntity, EventEntity], work=50*
  7: 0x002A [0x1D] PRINT_EVENT_MESSAGE(message_id=7793*)
    → "Sometimes you should slow down and walk for a change. You know, stop and smell the rrroses!"
  8: 0x002D [0x23] WAIT_FOR_DIALOG_INTERACTION
  9: 0x002E [0x66] LOAD_EXT_SCHEDULER_MAIN: Load scheduler "thk2" with entities [EventEntity, EventEntity], work=50*
 10: 0x003D [0x53] WAIT_SCHEDULER_TASK: Wait for scheduler "thk2" with entities [EventEntity, EventEntity]
 11: 0x004A [0x21] END_EVENT
 12: 0x004B [0x00] END_REQSTACK()
```

### Event 10048

#### Metadata

| Field        | Value     |
|--------------|-----------|
| Entrypoint   | 0x004C    |
| Data Size    | 257 bytes |
| Instructions | 61        |

```
      00 01 02 03 04 05 06 07  08 09 0A 0B 0C 0D 0E 0F
      -- -- -- -- -- -- -- --  -- -- -- -- -- -- -- --
0040:                                      1E F0 FF FF              ....
0050: 7F 1D 04 80 23 66 02 80  F8 FF FF 7F F8 FF FF 7F  ....#f..........
0060: 74 68 6B 31 1A AC 18 03  02 10 02 00 1A B6 18 03  thk1............
0070: 03 10 0C 00 02 03 10 05  80 80 83 00 1D 06 80 23  ...............#
0080: 01 EC 00 02 03 10 07 80  80 92 00 1D 08 80 23 01  ..............#.
0090: EC 00 02 03 10 09 80 80  A1 00 1D 0A 80 23 01 EC  .............#..
00A0: 00 02 03 10 0B 80 80 B0  00 1D 0C 80 23 01 EC 00  ............#...
00B0: 02 03 10 0D 80 80 BF 00  1D 0E 80 23 01 EC 00 02  ...........#....
00C0: 03 10 0F 80 80 CE 00 1D  10 80 23 01 EC 00 02 03  ..........#.....
00D0: 10 11 80 80 DD 00 1D 12  80 23 01 EC 00 02 03 10  .........#......
00E0: 13 80 80 EC 00 1D 14 80  23 01 EC 00 53 F8 FF FF  ........#...S...
00F0: 7F F8 FF FF 7F 74 68 6B  31 66 02 80 F8 FF FF 7F  .....thk1f......
0100: F8 FF FF 7F 74 68 6B 32  1D 15 80 23 24 16 80 07  ....thk2...#$...
0110: 80 05 80 25 02 00 10 05  80 00 29 01 42 1D 17 80  ...%......).B...
0120: 23 03 01 10 07 80 01 3E  01 02 00 10 07 80 00 3E  #......>.......>
0130: 01 42 1D 18 80 23 03 01  10 05 80 01 3E 01 53 F8  .B...#......>.S.
0140: FF FF 7F F8 FF FF 7F 74  68 6B 32 21 00           .......thk2!.   
```

#### Opcodes

```
  0: 0x004C [0x1E] EventEntity looks at LocalPlayer and starts talking
  1: 0x0051 [0x1D] PRINT_EVENT_MESSAGE(message_id=9045*)
    → "What's that? You're trying to trrrack someone down?"
  2: 0x0054 [0x23] WAIT_FOR_DIALOG_INTERACTION
  3: 0x0055 [0x66] LOAD_EXT_SCHEDULER_MAIN: Load scheduler "thk1" with entities [EventEntity, EventEntity], work=50*
  4: 0x0064 [0x1A] CALL_SUBROUTINE(address=0x18AC)
  5: 0x0067 [0x03] Work_Zone[2] = ExtData[1]->WorkLocal[2]
  6: 0x006C [0x1A] CALL_SUBROUTINE(address=0x18B6)
  7: 0x006F [0x03] Work_Zone[3] = ExtData[1]->WorkLocal[12]
  8: 0x0074 [0x02] IF !(Work_Zone[3] == 0*) GOTO 0x0083
  9: 0x007C [0x1D] PRINT_EVENT_MESSAGE(message_id=9046*)
    → "A guy called [Feliz/Ferdinand/Gunnar/Massimo/Oldrich/Siegward/Theobald/Zenji]? I see a lot of you people rrrunning past here everrry day... Got anything else I can worrrk with?"
 10: 0x007F [0x23] WAIT_FOR_DIALOG_INTERACTION
 11: 0x0080 [0x01] GOTO 0x00EC
 12: 0x0083 [0x02] IF !(Work_Zone[3] == 1*) GOTO 0x0092
 13: 0x008B [0x1D] PRINT_EVENT_MESSAGE(message_id=9047*)
    → "A girl called [Amerita/Beatrice/Henrietta/Jesimae/Karyn/Nanako/Sharlene/Sieghilde]? I see a lot of you people rrrunning past here everrry day... Got anything else I can worrrk with?"
 14: 0x008E [0x23] WAIT_FOR_DIALOG_INTERACTION
 15: 0x008F [0x01] GOTO 0x00EC
 16: 0x0092 [0x02] IF !(Work_Zone[3] == 2*) GOTO 0x00A1
 17: 0x009A [0x1D] PRINT_EVENT_MESSAGE(message_id=9048*)
    → "A guy called [Chanandit/Deulmaeux/Demresinaux/Ephealgaux/Gauldeval/Grauffemart/Migaifongut/Romidiant]? I see a lot of you people rrrunning past here everrry day... Got anything else I can worrrk with?"
 18: 0x009D [0x23] WAIT_FOR_DIALOG_INTERACTION
 19: 0x009E [0x01] GOTO 0x00EC
 20: 0x00A1 [0x02] IF !(Work_Zone[3] == 3*) GOTO 0x00B0
 21: 0x00A9 [0x1D] PRINT_EVENT_MESSAGE(message_id=9049*)
    → "A girl called [Armittie/Cadepure/Clearite/Epilleve/Liabelle/Nauthima/Radille/Vimechue]? I see a lot of you people rrrunning past here everrry day... Got anything else I can worrrk with?"
 22: 0x00AC [0x23] WAIT_FOR_DIALOG_INTERACTION
 23: 0x00AD [0x01] GOTO 0x00EC
 24: 0x00B0 [0x02] IF !(Work_Zone[3] == 4*) GOTO 0x00BF
 25: 0x00B8 [0x1D] PRINT_EVENT_MESSAGE(message_id=9050*)
    → "A guy called [Balu-Falu/Burg-Ladarg/Ehgo-Ryuhgo/Kolui-Pelui/Nokum-Akkum/Savul-Kivul/Vinja-Kanja/Yarga-Umiga]? I see a lot of you people rrrunning past here everrry day... Got anything else I can worrrk with?"
 26: 0x00BB [0x23] WAIT_FOR_DIALOG_INTERACTION
 27: 0x00BC [0x01] GOTO 0x00EC
 28: 0x00BF [0x02] IF !(Work_Zone[3] == 5*) GOTO 0x00CE
 29: 0x00C7 [0x1D] PRINT_EVENT_MESSAGE(message_id=9051*)
    → "A girl called [Cupapa/Jajuju/Kalokoko/Mahoyaya/Pakurara/Ripokeke/Yawawa/Yufafa]? I see a lot of you people rrrunning past here everrry day... Got anything else I can worrrk with?"
 30: 0x00CA [0x23] WAIT_FOR_DIALOG_INTERACTION
 31: 0x00CB [0x01] GOTO 0x00EC
 32: 0x00CE [0x02] IF !(Work_Zone[3] == 6*) GOTO 0x00DD
 33: 0x00D6 [0x1D] PRINT_EVENT_MESSAGE(message_id=9052*)
    → "A girl called [Fhig Lahrv/Khuma Tagyawhan/Pimy Kettihl/Raka Maimhov/Sahyu Banjyao/Sufhi Uchnouma/Tsuim Nhomango/Yoli Kohlpaka]? I see a lot of you people rrrunning past here everrry day... Got anything else I can worrrk with?"
 34: 0x00D9 [0x23] WAIT_FOR_DIALOG_INTERACTION
 35: 0x00DA [0x01] GOTO 0x00EC
 36: 0x00DD [0x02] IF !(Work_Zone[3] == 7*) GOTO 0x00EC
 37: 0x00E5 [0x1D] PRINT_EVENT_MESSAGE(message_id=9053*)
    → "A guy called [Durib/Dzapiwa/Jugowa/Mugido/Voldai/Wagwei/Zayag/Zoldof]? I see a lot of you people rrrunning past here everrry day... Got anything else I can worrrk with?"
 38: 0x00E8 [0x23] WAIT_FOR_DIALOG_INTERACTION
 39: 0x00E9 [0x01] GOTO 0x00EC

SUBROUTINE_00EC:
 40: 0x00EC [0x53] WAIT_SCHEDULER_TASK: Wait for scheduler "thk1" with entities [EventEntity, EventEntity]
 41: 0x00F9 [0x66] LOAD_EXT_SCHEDULER_MAIN: Load scheduler "thk2" with entities [EventEntity, EventEntity], work=50*
 42: 0x0108 [0x1D] PRINT_EVENT_MESSAGE(message_id=9054*)
    → "Wait a minute. Did this person have [bristly hair/shoulder-length hair/a beard/long bangs/messy hair/straight bangs/parted bangs/hair standing straight up]?"
 43: 0x010B [0x23] WAIT_FOR_DIALOG_INTERACTION
 44: 0x010C [0x24] CREATE_DIALOG(message_id=9055*, default_option=1*, option_flags=0*)
    → "Did the person have [bristly hair/shoulder-length hair/a beard/long bangs/messy hair/straight bangs/parted bangs/hair standing up]? [I'm pretty sure./Not that I know of...]"
 45: 0x0113 [0x25] WAIT_DIALOG_SELECT()
 46: 0x0114 [0x02] IF !(Work_Zone[0] == 0*) GOTO 0x0129
 47: 0x011C [0x42] SET_CLI_EVENT_CANCEL_DATA()
 48: 0x011D [0x1D] PRINT_EVENT_MESSAGE(message_id=9056*)
    → "Oh, I know the one. Try looking in Upper Jeuno. That's all I know."
 49: 0x0120 [0x23] WAIT_FOR_DIALOG_INTERACTION
 50: 0x0121 [0x03] Work_Zone[1] = 1*
 51: 0x0126 [0x01] GOTO 0x013E
 52: 0x0129 [0x02] IF !(Work_Zone[0] == 1*) GOTO 0x013E
 53: 0x0131 [0x42] SET_CLI_EVENT_CANCEL_DATA()
 54: 0x0132 [0x1D] PRINT_EVENT_MESSAGE(message_id=9057*)
    → "Then sorry, I can't help you."
 55: 0x0135 [0x23] WAIT_FOR_DIALOG_INTERACTION
 56: 0x0136 [0x03] Work_Zone[1] = 0*
 57: 0x013B [0x01] GOTO 0x013E

SUBROUTINE_013E:
 58: 0x013E [0x53] WAIT_SCHEDULER_TASK: Wait for scheduler "thk2" with entities [EventEntity, EventEntity]
 59: 0x014B [0x21] END_EVENT
 60: 0x014C [0x00] END_REQSTACK()
```

### Event 20000

#### Metadata

| Field        | Value       |
|--------------|-------------|
| Entrypoint   | 0x014D      |
| Data Size    | 19312 bytes |
| Instructions | 164         |

```
      00 01 02 03 04 05 06 07  08 09 0A 0B 0C 0D 0E 0F
      -- -- -- -- -- -- -- --  -- -- -- -- -- -- -- --
0140:                                         03 00 00               ...
0150: 05 80 45 19 80 F8 FF FF  7F F8 FF FF 7F 74 65 73  ..E..........tes
0160: 74 05 80 1E F0 FF FF 7F  1D 1A 80 23 6F 70 66 02  t..........#opf.
0170: 80 F8 FF FF 7F F8 FF FF  7F 74 68 6B 31 1A AC 18  .........thk1...
0180: 03 02 10 02 00 1A B6 18  02 0C 00 05 80 80 97 01  ................
0190: 1D 1B 80 23 01 00 02 02  0C 00 07 80 80 A6 01 1D  ...#............
01A0: 1C 80 23 01 00 02 02 0C  00 09 80 80 B5 01 1D 1D  ..#.............
01B0: 80 23 01 00 02 02 0C 00  0B 80 80 C4 01 1D 1E 80  .#..............
01C0: 23 01 00 02 02 0C 00 0D  80 80 D3 01 1D 1F 80 23  #..............#
01D0: 01 00 02 02 0C 00 0F 80  80 E2 01 1D 20 80 23 01  ............ .#.
01E0: 00 02 02 0C 00 11 80 80  F1 01 1D 21 80 23 01 00  ...........!.#..
01F0: 02 02 0C 00 13 80 80 00  02 1D 22 80 23 01 00 02  ..........".#...
0200: 53 F8 FF FF 7F F8 FF FF  7F 74 68 6B 31 66 02 80  S........thk1f..
0210: F8 FF FF 7F F8 FF FF 7F  74 68 6B 32 1D 23 80 23  ........thk2.#.#
0220: 2F 00 B1 50 0F 01 42 24  24 80 05 80 05 80 25 02  /..P..B$$.....%.
0230: 00 10 05 80 00 8C 02 02  00 00 05 80 01 7E 02 45  .............~.E
0240: 25 80 F0 FF FF 7F F0 FF  FF 7F 66 64 6F 31 05 80  %.........fdo1..
0250: 55 25 80 F0 FF FF 7F F0  FF FF 7F 66 64 6F 31 38  U%.........fdo18
0260: 05 80 4E 01 B1 50 0F 01  46 00 1C 26 80 45 25 80  ..N..P..F..&.E%.
0270: F0 FF FF 7F F0 FF FF 7F  66 64 69 31 05 80 2F 01  ........fdi1../.
0280: B1 50 0F 01 03 01 10 27  80 01 8C 02 02 00 10 05  .P.....'........
0290: 80 02 52 04 03 01 10 00  10 0C 01 10 05 00 00 45  ..R............E
02A0: 25 80 F0 FF FF 7F F0 FF  FF 7F 66 64 6F 31 05 80  %.........fdo1..
02B0: 55 25 80 F0 FF FF 7F F0  FF FF 7F 66 64 6F 31 38  U%.........fdo18
02C0: 28 80 92 01 B1 50 0F 01  BA B1 50 0F 01 29 80 2A  (....P....P..).*
02D0: 80 05 80 2B 80 29 0A B1  50 0F 01 04 81 00 B1 50  ...+.)..P......P
02E0: 0F 01 4E 00 B1 50 0F 01  80 B1 50 0F 01 46 01 02  ..N..P....P..F..
02F0: 0C 00 05 80 80 0B 03 45  19 80 F8 FF FF 7F F8 FF  .......E........
0300: FF 7F 73 6D 68 6D 05 80  01 CF 03 02 0C 00 07 80  ..smhm..........
0310: 80 27 03 45 19 80 F8 FF  FF 7F F8 FF FF 7F 73 6D  .'.E..........sm
0320: 68 66 05 80 01 CF 03 02  0C 00 09 80 80 43 03 45  hf...........C.E
0330: 19 80 F8 FF FF 7F F8 FF  FF 7F 73 6D 65 6D 05 80  ..........smem..
0340: 01 CF 03 02 0C 00 0B 80  80 5F 03 45 19 80 F8 FF  ........._.E....
0350: FF 7F F8 FF FF 7F 73 6D  65 66 05 80 01 CF 03 02  ......smef......
0360: 0C 00 0D 80 80 7B 03 45  19 80 F8 FF FF 7F F8 FF  .....{.E........
0370: FF 7F 73 6D 74 74 05 80  01 CF 03 02 0C 00 0F 80  ..smtt..........
0380: 80 97 03 45 19 80 F8 FF  FF 7F F8 FF FF 7F 73 6D  ...E..........sm
0390: 74 74 05 80 01 CF 03 02  0C 00 11 80 80 B3 03 45  tt.............E
03A0: 19 80 F8 FF FF 7F F8 FF  FF 7F 73 6D 6D 74 05 80  ..........smmt..
03B0: 01 CF 03 02 0C 00 13 80  80 CF 03 45 19 80 F8 FF  ...........E....
03C0: FF 7F F8 FF FF 7F 73 6D  67 6C 05 80 01 CF 03 45  ......smgl.....E
03D0: 25 80 F0 FF FF 7F F0 FF  FF 7F 66 64 69 31 05 80  %.........fdi1..
03E0: 55 25 80 F0 FF FF 7F F0  FF FF 7F 66 64 69 31 1D  U%.........fdi1.
03F0: 2C 80 23 24 2D 80 07 80  05 80 25 02 00 10 07 80  ,.#$-.....%.....
0400: 00 09 04 01 27 02 01 09  04 45 25 80 F0 FF FF 7F  ....'....E%.....
0410: F0 FF FF 7F 66 64 6F 31  05 80 55 25 80 F0 FF FF  ....fdo1..U%....
0420: 7F F0 FF FF 7F 66 64 6F  31 38 05 80 4E 01 B1 50  .....fdo18..N..P
0430: 0F 01 2F 01 B1 50 0F 01  46 00 1C 26 80 45 25 80  ../..P..F..&.E%.
0440: F0 FF FF 7F F0 FF FF 7F  66 64 69 31 05 80 1D 2E  ........fdi1....
0450: 80 23 53 F8 FF FF 7F F8  FF FF 7F 74 68 6B 32 21  .#S........thk2!
0460: 00 03 03 00 05 80 1A AC  18 1A B6 18 02 0C 00 05  ................
0470: 80 80 6F 05 02 02 00 05  80 80 93 04 B4 00 03 00  ..o.............
0480: 46 65 6C 69 7A 00 00 00  00 00 00 00 00 00 00 00  Feliz...........
0490: 01 6C 05 02 02 00 07 80  80 B2 04 B4 00 03 00 46  .l.............F
04A0: 65 72 64 69 6E 61 6E 64  00 00 00 00 00 00 00 01  erdinand........
04B0: 6C 05 02 02 00 09 80 80  D1 04 B4 00 03 00 47 75  l.............Gu
04C0: 6E 6E 61 72 00 00 00 00  00 00 00 00 00 00 01 6C  nnar...........l
04D0: 05 02 02 00 0B 80 80 F0  04 B4 00 03 00 4D 61 73  .............Mas
04E0: 73 69 6D 6F 00 00 00 00  00 00 00 00 00 01 6C 05  simo..........l.
04F0: 02 02 00 0D 80 80 0F 05  B4 00 03 00 4F 6C 64 72  ............Oldr
0500: 69 63 68 00 00 00 00 00  00 00 00 00 01 6C 05 02  ich..........l..
0510: 02 00 0F 80 80 2E 05 B4  00 03 00 53 69 65 67 77  ...........Siegw
0520: 61 72 64 00 00 00 00 00  00 00 00 01 6C 05 02 02  ard.........l...
0530: 00 11 80 80 4D 05 B4 00  03 00 54 68 65 6F 62 61  ....M.....Theoba
0540: 6C 64 00 00 00 00 00 00  00 00 01 6C 05 02 02 00  ld.........l....
0550: 13 80 80 6C 05 B4 00 03  00 5A 65 6E 6A 69 00 00  ...l.....Zenji..
0560: 00 00 00 00 00 00 00 00  00 01 6C 05 01 84 0C 02  ..........l.....
0570: 0C 00 07 80 80 72 06 02  02 00 05 80 80 96 05 B4  .....r..........
0580: 00 03 00 41 6D 65 72 69  74 61 00 00 00 00 00 00  ...Amerita......
0590: 00 00 00 01 6F 06 02 02  00 07 80 80 B5 05 B4 00  ....o...........
05A0: 03 00 42 65 61 74 72 69  63 65 00 00 00 00 00 00  ..Beatrice......
05B0: 00 00 01 6F 06 02 02 00  09 80 80 D4 05 B4 00 03  ...o............
05C0: 00 48 65 6E 72 69 65 74  74 61 00 00 00 00 00 00  .Henrietta......
05D0: 00 01 6F 06 02 02 00 0B  80 80 F3 05 B4 00 03 00  ..o.............
05E0: 4A 65 73 69 6D 61 65 00  00 00 00 00 00 00 00 00  Jesimae.........
05F0: 01 6F 06 02 02 00 0D 80  80 12 06 B4 00 03 00 4B  .o.............K
0600: 61 72 79 6E 00 00 00 00  00 00 00 00 00 00 00 01  aryn............
0610: 6F 06 02 02 00 0F 80 80  31 06 B4 00 03 00 4E 61  o.......1.....Na
0620: 6E 61 6B 6F 00 00 00 00  00 00 00 00 00 00 01 6F  nako...........o
0630: 06 02 02 00 11 80 80 50  06 B4 00 03 00 53 68 61  .......P.....Sha
0640: 72 6C 65 6E 65 00 00 00  00 00 00 00 00 01 6F 06  rlene.........o.
0650: 02 02 00 13 80 80 6F 06  B4 00 03 00 53 69 65 67  ......o.....Sieg
0660: 68 69 6C 64 65 00 00 00  00 00 00 00 01 6F 06 01  hilde........o..
0670: 84 0C 02 0C 00 09 80 80  75 07 02 02 00 05 80 80  ........u.......
0680: 99 06 B4 00 03 00 43 68  61 6E 61 6E 64 69 74 00  ......Chanandit.
0690: 00 00 00 00 00 00 01 72  07 02 02 00 07 80 80 B8  .......r........
06A0: 06 B4 00 03 00 44 65 75  6C 6D 61 65 75 78 00 00  .....Deulmaeux..
06B0: 00 00 00 00 00 01 72 07  02 02 00 09 80 80 D7 06  ......r.........
06C0: B4 00 03 00 44 65 6D 72  65 73 69 6E 61 75 78 00  ....Demresinaux.
06D0: 00 00 00 00 01 72 07 02  02 00 0B 80 80 F6 06 B4  .....r..........
06E0: 00 03 00 45 70 68 65 61  6C 67 61 75 78 00 00 00  ...Ephealgaux...
06F0: 00 00 00 01 72 07 02 02  00 0D 80 80 15 07 B4 00  ....r...........
0700: 03 00 47 61 75 6C 64 65  76 61 6C 00 00 00 00 00  ..Gauldeval.....
0710: 00 00 01 72 07 02 02 00  0F 80 80 34 07 B4 00 03  ...r.......4....
0720: 00 47 72 61 75 66 66 65  6D 61 72 74 00 00 00 00  .Grauffemart....
0730: 00 01 72 07 02 02 00 11  80 80 53 07 B4 00 03 00  ..r.......S.....
0740: 4D 69 67 61 69 66 6F 6E  67 75 74 00 00 00 00 00  Migaifongut.....
0750: 01 72 07 02 02 00 13 80  80 72 07 B4 00 03 00 52  .r.......r.....R
0760: 6F 6D 69 64 69 61 6E 74  00 00 00 00 00 00 00 01  omidiant........
0770: 72 07 01 84 0C 02 0C 00  0B 80 80 78 08 02 02 00  r..........x....
0780: 05 80 80 9C 07 B4 00 03  00 41 72 6D 69 74 74 69  .........Armitti
0790: 65 00 00 00 00 00 00 00  00 01 75 08 02 02 00 07  e.........u.....
07A0: 80 80 BB 07 B4 00 03 00  43 61 64 65 70 75 72 65  ........Cadepure
07B0: 00 00 00 00 00 00 00 00  01 75 08 02 02 00 09 80  .........u......
07C0: 80 DA 07 B4 00 03 00 43  6C 65 61 72 69 74 65 00  .......Clearite.
07D0: 00 00 00 00 00 00 00 01  75 08 02 02 00 0B 80 80  ........u.......
07E0: F9 07 B4 00 03 00 45 70  69 6C 6C 65 76 65 00 00  ......Epilleve..
07F0: 00 00 00 00 00 00 01 75  08 02 02 00 0D 80 80 18  .......u........
0800: 08 B4 00 03 00 4C 69 61  62 65 6C 6C 65 00 00 00  .....Liabelle...
0810: 00 00 00 00 00 01 75 08  02 02 00 0F 80 80 37 08  ......u.......7.
0820: B4 00 03 00 4E 61 75 74  68 69 6D 61 00 00 00 00  ....Nauthima....
0830: 00 00 00 00 01 75 08 02  02 00 11 80 80 56 08 B4  .....u.......V..
0840: 00 03 00 52 61 64 69 6C  6C 65 00 00 00 00 00 00  ...Radille......
0850: 00 00 00 01 75 08 02 02  00 13 80 80 75 08 B4 00  ....u.......u...
0860: 03 00 56 69 6D 65 63 68  75 65 00 00 00 00 00 00  ..Vimechue......
0870: 00 00 01 75 08 01 84 0C  02 0C 00 0D 80 80 7B 09  ...u..........{.
0880: 02 02 00 05 80 80 9F 08  B4 00 03 00 42 61 6C 75  ............Balu
0890: 2D 46 61 6C 75 00 00 00  00 00 00 00 01 78 09 02  -Falu........x..
08A0: 02 00 07 80 80 BE 08 B4  00 03 00 42 75 72 67 2D  ...........Burg-
08B0: 4C 61 64 61 72 67 00 00  00 00 00 01 78 09 02 02  Ladarg......x...
08C0: 00 09 80 80 DD 08 B4 00  03 00 45 68 67 6F 2D 52  ..........Ehgo-R
08D0: 79 75 68 67 6F 00 00 00  00 00 01 78 09 02 02 00  yuhgo......x....
08E0: 0B 80 80 FC 08 B4 00 03  00 4B 6F 6C 75 69 2D 50  .........Kolui-P
08F0: 65 6C 75 69 00 00 00 00  00 01 78 09 02 02 00 0D  elui......x.....
0900: 80 80 1B 09 B4 00 03 00  4E 6F 6B 75 6D 2D 41 6B  ........Nokum-Ak
0910: 6B 75 6D 00 00 00 00 00  01 78 09 02 02 00 0F 80  kum......x......
0920: 80 3A 09 B4 00 03 00 53  61 76 75 6C 2D 4B 69 76  .:.....Savul-Kiv
0930: 75 6C 00 00 00 00 00 01  78 09 02 02 00 11 80 80  ul......x.......
0940: 59 09 B4 00 03 00 56 69  6E 6A 61 2D 4B 61 6E 6A  Y.....Vinja-Kanj
0950: 61 00 00 00 00 00 01 78  09 02 02 00 13 80 80 78  a......x.......x
0960: 09 B4 00 03 00 59 61 72  67 61 2D 55 6D 69 67 61  .....Yarga-Umiga
0970: 00 00 00 00 00 01 78 09  01 84 0C 02 0C 00 0F 80  ......x.........
0980: 80 7E 0A 02 02 00 05 80  80 A2 09 B4 00 03 00 43  .~.............C
0990: 75 70 61 70 61 00 00 00  00 00 00 00 00 00 00 01  upapa...........
09A0: 7B 0A 02 02 00 07 80 80  C1 09 B4 00 03 00 4A 61  {.............Ja
09B0: 6A 75 6A 75 00 00 00 00  00 00 00 00 00 00 01 7B  juju...........{
09C0: 0A 02 02 00 09 80 80 E0  09 B4 00 03 00 4B 61 6C  .............Kal
09D0: 6F 6B 6F 6B 6F 00 00 00  00 00 00 00 00 01 7B 0A  okoko.........{.
09E0: 02 02 00 0B 80 80 FF 09  B4 00 03 00 4D 61 68 6F  ............Maho
09F0: 79 61 79 61 00 00 00 00  00 00 00 00 01 7B 0A 02  yaya.........{..
0A00: 02 00 0D 80 80 1E 0A B4  00 03 00 50 61 6B 75 72  ...........Pakur
0A10: 61 72 61 00 00 00 00 00  00 00 00 01 7B 0A 02 02  ara.........{...
0A20: 00 0F 80 80 3D 0A B4 00  03 00 52 69 70 6F 6B 65  ....=.....Ripoke
0A30: 6B 65 00 00 00 00 00 00  00 00 01 7B 0A 02 02 00  ke.........{....
0A40: 11 80 80 5C 0A B4 00 03  00 59 61 77 61 77 61 00  ...\.....Yawawa.
0A50: 00 00 00 00 00 00 00 00  00 01 7B 0A 02 02 00 13  ..........{.....
0A60: 80 80 7B 0A B4 00 03 00  59 75 66 61 66 61 00 00  ..{.....Yufafa..
0A70: 00 00 00 00 00 00 00 00  01 7B 0A 01 84 0C 02 0C  .........{......
0A80: 00 11 80 80 81 0B 02 02  00 05 80 80 A5 0A B4 00  ................
0A90: 03 00 46 68 69 67 00 00  00 00 00 00 00 00 00 00  ..Fhig..........
0AA0: 00 00 01 7E 0B 02 02 00  07 80 80 C4 0A B4 00 03  ...~............
0AB0: 00 4B 68 75 6D 61 00 00  00 00 00 00 00 00 00 00  .Khuma..........
0AC0: 00 01 7E 0B 02 02 00 09  80 80 E3 0A B4 00 03 00  ..~.............
0AD0: 50 69 6D 79 00 00 00 00  00 00 00 00 00 00 00 00  Pimy............
0AE0: 01 7E 0B 02 02 00 0B 80  80 02 0B B4 00 03 00 52  .~.............R
0AF0: 61 6B 61 00 00 00 00 00  00 00 00 00 00 00 00 01  aka.............
0B00: 7E 0B 02 02 00 0D 80 80  21 0B B4 00 03 00 53 61  ~.......!.....Sa
0B10: 68 79 75 00 00 00 00 00  00 00 00 00 00 00 01 7E  hyu............~
0B20: 0B 02 02 00 0F 80 80 40  0B B4 00 03 00 53 75 66  .......@.....Suf
0B30: 68 69 00 00 00 00 00 00  00 00 00 00 00 01 7E 0B  hi............~.
0B40: 02 02 00 11 80 80 5F 0B  B4 00 03 00 54 73 75 69  ......_.....Tsui
0B50: 6D 00 00 00 00 00 00 00  00 00 00 00 01 7E 0B 02  m............~..
0B60: 02 00 13 80 80 7E 0B B4  00 03 00 59 6F 6C 69 00  .....~.....Yoli.
0B70: 00 00 00 00 00 00 00 00  00 00 00 01 7E 0B 01 84  ............~...
0B80: 0C 02 0C 00 13 80 80 84  0C 02 02 00 05 80 80 A8  ................
0B90: 0B B4 00 03 00 44 75 72  69 62 00 00 00 00 00 00  .....Durib......
0BA0: 00 00 00 00 00 01 81 0C  02 02 00 07 80 80 C7 0B  ................
0BB0: B4 00 03 00 44 7A 61 70  69 77 61 00 00 00 00 00  ....Dzapiwa.....
0BC0: 00 00 00 00 01 81 0C 02  02 00 09 80 80 E6 0B B4  ................
0BD0: 00 03 00 4A 75 67 6F 77  61 00 00 00 00 00 00 00  ...Jugowa.......
0BE0: 00 00 00 01 81 0C 02 02  00 0B 80 80 05 0C B4 00  ................
0BF0: 03 00 4D 75 67 69 64 6F  00 00 00 00 00 00 00 00  ..Mugido........
0C00: 00 00 01 81 0C 02 02 00  0D 80 80 24 0C B4 00 03  ...........$....
0C10: 00 56 6F 6C 64 61 69 00  00 00 00 00 00 00 00 00  .Voldai.........
0C20: 00 01 81 0C 02 02 00 0F  80 80 43 0C B4 00 03 00  ..........C.....
0C30: 57 61 67 77 65 69 00 00  00 00 00 00 00 00 00 00  Wagwei..........
0C40: 01 81 0C 02 02 00 11 80  80 62 0C B4 00 03 00 5A  .........b.....Z
0C50: 61 79 61 67 00 00 00 00  00 00 00 00 00 00 00 01  ayag............
0C60: 81 0C 02 02 00 13 80 80  81 0C B4 00 03 00 5A 6F  ..............Zo
0C70: 6C 64 6F 66 00 00 00 00  00 00 00 00 00 00 01 81  ldof............
0C80: 0C 01 84 0C 02 03 00 05  80 01 90 0C B5 00 03 00  ................
0C90: 1B 03 03 00 05 80 1A AC  18 1A B6 18 02 0C 00 05  ................
0CA0: 80 80 9F 0D 02 02 00 05  80 80 C3 0C B4 00 03 00  ................
0CB0: 46 65 6C 69 7A 00 00 00  00 00 00 00 00 00 00 00  Feliz...........
0CC0: 01 9C 0D 02 02 00 07 80  80 E2 0C B4 00 03 00 46  ...............F
0CD0: 65 72 64 69 6E 61 6E 64  00 00 00 00 00 00 00 01  erdinand........
0CE0: 9C 0D 02 02 00 09 80 80  01 0D B4 00 03 00 47 75  ..............Gu
0CF0: 6E 6E 61 72 00 00 00 00  00 00 00 00 00 00 01 9C  nnar............
0D00: 0D 02 02 00 0B 80 80 20  0D B4 00 03 00 4D 61 73  ....... .....Mas
0D10: 73 69 6D 6F 00 00 00 00  00 00 00 00 00 01 9C 0D  simo............
0D20: 02 02 00 0D 80 80 3F 0D  B4 00 03 00 4F 6C 64 72  ......?.....Oldr
0D30: 69 63 68 00 00 00 00 00  00 00 00 00 01 9C 0D 02  ich.............
0D40: 02 00 0F 80 80 5E 0D B4  00 03 00 53 69 65 67 77  .....^.....Siegw
0D50: 61 72 64 00 00 00 00 00  00 00 00 01 9C 0D 02 02  ard.............
0D60: 00 11 80 80 7D 0D B4 00  03 00 54 68 65 6F 62 61  ....}.....Theoba
0D70: 6C 64 00 00 00 00 00 00  00 00 01 9C 0D 02 02 00  ld..............
0D80: 13 80 80 9C 0D B4 00 03  00 5A 65 6E 6A 69 00 00  .........Zenji..
0D90: 00 00 00 00 00 00 00 00  00 01 9C 0D 01 B4 14 02  ................
0DA0: 0C 00 07 80 80 A2 0E 02  02 00 05 80 80 C6 0D B4  ................
0DB0: 00 03 00 41 6D 65 72 69  74 61 00 00 00 00 00 00  ...Amerita......
0DC0: 00 00 00 01 9F 0E 02 02  00 07 80 80 E5 0D B4 00  ................
0DD0: 03 00 42 65 61 74 72 69  63 65 00 00 00 00 00 00  ..Beatrice......
0DE0: 00 00 01 9F 0E 02 02 00  09 80 80 04 0E B4 00 03  ................
0DF0: 00 48 65 6E 72 69 65 74  74 61 00 00 00 00 00 00  .Henrietta......
0E00: 00 01 9F 0E 02 02 00 0B  80 80 23 0E B4 00 03 00  ..........#.....
0E10: 4A 65 73 69 6D 61 65 00  00 00 00 00 00 00 00 00  Jesimae.........
0E20: 01 9F 0E 02 02 00 0D 80  80 42 0E B4 00 03 00 4B  .........B.....K
0E30: 61 72 79 6E 00 00 00 00  00 00 00 00 00 00 00 01  aryn............
0E40: 9F 0E 02 02 00 0F 80 80  61 0E B4 00 03 00 4E 61  ........a.....Na
0E50: 6E 61 6B 6F 00 00 00 00  00 00 00 00 00 00 01 9F  nako............
0E60: 0E 02 02 00 11 80 80 80  0E B4 00 03 00 53 68 61  .............Sha
0E70: 72 6C 65 6E 65 00 00 00  00 00 00 00 00 01 9F 0E  rlene...........
0E80: 02 02 00 13 80 80 9F 0E  B4 00 03 00 53 69 65 67  ............Sieg
0E90: 68 69 6C 64 65 00 00 00  00 00 00 00 01 9F 0E 01  hilde...........
0EA0: B4 14 02 0C 00 09 80 80  A5 0F 02 02 00 05 80 80  ................
0EB0: C9 0E B4 00 03 00 43 68  61 6E 61 6E 64 69 74 00  ......Chanandit.
0EC0: 00 00 00 00 00 00 01 A2  0F 02 02 00 07 80 80 E8  ................
0ED0: 0E B4 00 03 00 44 65 75  6C 6D 61 65 75 78 00 00  .....Deulmaeux..
0EE0: 00 00 00 00 00 01 A2 0F  02 02 00 09 80 80 07 0F  ................
0EF0: B4 00 03 00 44 65 6D 72  65 73 69 6E 61 75 78 00  ....Demresinaux.
0F00: 00 00 00 00 01 A2 0F 02  02 00 0B 80 80 26 0F B4  .............&..
0F10: 00 03 00 45 70 68 65 61  6C 67 61 75 78 00 00 00  ...Ephealgaux...
0F20: 00 00 00 01 A2 0F 02 02  00 0D 80 80 45 0F B4 00  ............E...
0F30: 03 00 47 61 75 6C 64 65  76 61 6C 00 00 00 00 00  ..Gauldeval.....
0F40: 00 00 01 A2 0F 02 02 00  0F 80 80 64 0F B4 00 03  ...........d....
0F50: 00 47 72 61 75 66 66 65  6D 61 72 74 00 00 00 00  .Grauffemart....
0F60: 00 01 A2 0F 02 02 00 11  80 80 83 0F B4 00 03 00  ................
0F70: 4D 69 67 61 69 66 6F 6E  67 75 74 00 00 00 00 00  Migaifongut.....
0F80: 01 A2 0F 02 02 00 13 80  80 A2 0F B4 00 03 00 52  ...............R
0F90: 6F 6D 69 64 69 61 6E 74  00 00 00 00 00 00 00 01  omidiant........
0FA0: A2 0F 01 B4 14 02 0C 00  0B 80 80 A8 10 02 02 00  ................
0FB0: 05 80 80 CC 0F B4 00 03  00 41 72 6D 69 74 74 69  .........Armitti
0FC0: 65 00 00 00 00 00 00 00  00 01 A5 10 02 02 00 07  e...............
0FD0: 80 80 EB 0F B4 00 03 00  43 61 64 65 70 75 72 65  ........Cadepure
0FE0: 00 00 00 00 00 00 00 00  01 A5 10 02 02 00 09 80  ................
0FF0: 80 0A 10 B4 00 03 00 43  6C 65 61 72 69 74 65 00  .......Clearite.
1000: 00 00 00 00 00 00 00 01  A5 10 02 02 00 0B 80 80  ................
1010: 29 10 B4 00 03 00 45 70  69 6C 6C 65 76 65 00 00  ).....Epilleve..
1020: 00 00 00 00 00 00 01 A5  10 02 02 00 0D 80 80 48  ...............H
1030: 10 B4 00 03 00 4C 69 61  62 65 6C 6C 65 00 00 00  .....Liabelle...
1040: 00 00 00 00 00 01 A5 10  02 02 00 0F 80 80 67 10  ..............g.
1050: B4 00 03 00 4E 61 75 74  68 69 6D 61 00 00 00 00  ....Nauthima....
1060: 00 00 00 00 01 A5 10 02  02 00 11 80 80 86 10 B4  ................
1070: 00 03 00 52 61 64 69 6C  6C 65 00 00 00 00 00 00  ...Radille......
1080: 00 00 00 01 A5 10 02 02  00 13 80 80 A5 10 B4 00  ................
1090: 03 00 56 69 6D 65 63 68  75 65 00 00 00 00 00 00  ..Vimechue......
10A0: 00 00 01 A5 10 01 B4 14  02 0C 00 0D 80 80 AB 11  ................
10B0: 02 02 00 05 80 80 CF 10  B4 00 03 00 42 61 6C 75  ............Balu
10C0: 2D 46 61 6C 75 00 00 00  00 00 00 00 01 A8 11 02  -Falu...........
10D0: 02 00 07 80 80 EE 10 B4  00 03 00 42 75 72 67 2D  ...........Burg-
10E0: 4C 61 64 61 72 67 00 00  00 00 00 01 A8 11 02 02  Ladarg..........
10F0: 00 09 80 80 0D 11 B4 00  03 00 45 68 67 6F 2D 52  ..........Ehgo-R
1100: 79 75 68 67 6F 00 00 00  00 00 01 A8 11 02 02 00  yuhgo...........
1110: 0B 80 80 2C 11 B4 00 03  00 4B 6F 6C 75 69 2D 50  ...,.....Kolui-P
1120: 65 6C 75 69 00 00 00 00  00 01 A8 11 02 02 00 0D  elui............
1130: 80 80 4B 11 B4 00 03 00  4E 6F 6B 75 6D 2D 41 6B  ..K.....Nokum-Ak
1140: 6B 75 6D 00 00 00 00 00  01 A8 11 02 02 00 0F 80  kum.............
1150: 80 6A 11 B4 00 03 00 53  61 76 75 6C 2D 4B 69 76  .j.....Savul-Kiv
1160: 75 6C 00 00 00 00 00 01  A8 11 02 02 00 11 80 80  ul..............
1170: 89 11 B4 00 03 00 56 69  6E 6A 61 2D 4B 61 6E 6A  ......Vinja-Kanj
1180: 61 00 00 00 00 00 01 A8  11 02 02 00 13 80 80 A8  a...............
1190: 11 B4 00 03 00 59 61 72  67 61 2D 55 6D 69 67 61  .....Yarga-Umiga
11A0: 00 00 00 00 00 01 A8 11  01 B4 14 02 0C 00 0F 80  ................
11B0: 80 AE 12 02 02 00 05 80  80 D2 11 B4 00 03 00 43  ...............C
11C0: 75 70 61 70 61 00 00 00  00 00 00 00 00 00 00 01  upapa...........
11D0: AB 12 02 02 00 07 80 80  F1 11 B4 00 03 00 4A 61  ..............Ja
11E0: 6A 75 6A 75 00 00 00 00  00 00 00 00 00 00 01 AB  juju............
11F0: 12 02 02 00 09 80 80 10  12 B4 00 03 00 4B 61 6C  .............Kal
1200: 6F 6B 6F 6B 6F 00 00 00  00 00 00 00 00 01 AB 12  okoko...........
1210: 02 02 00 0B 80 80 2F 12  B4 00 03 00 4D 61 68 6F  ....../.....Maho
1220: 79 61 79 61 00 00 00 00  00 00 00 00 01 AB 12 02  yaya............
1230: 02 00 0D 80 80 4E 12 B4  00 03 00 50 61 6B 75 72  .....N.....Pakur
1240: 61 72 61 00 00 00 00 00  00 00 00 01 AB 12 02 02  ara.............
1250: 00 0F 80 80 6D 12 B4 00  03 00 52 69 70 6F 6B 65  ....m.....Ripoke
1260: 6B 65 00 00 00 00 00 00  00 00 01 AB 12 02 02 00  ke..............
1270: 11 80 80 8C 12 B4 00 03  00 59 61 77 61 77 61 00  .........Yawawa.
1280: 00 00 00 00 00 00 00 00  00 01 AB 12 02 02 00 13  ................
1290: 80 80 AB 12 B4 00 03 00  59 75 66 61 66 61 00 00  ........Yufafa..
12A0: 00 00 00 00 00 00 00 00  01 AB 12 01 B4 14 02 0C  ................
12B0: 00 11 80 80 B1 13 02 02  00 05 80 80 D5 12 B4 00  ................
12C0: 03 00 46 68 69 67 00 00  00 00 00 00 00 00 00 00  ..Fhig..........
12D0: 00 00 01 AE 13 02 02 00  07 80 80 F4 12 B4 00 03  ................
12E0: 00 4B 68 75 6D 61 00 00  00 00 00 00 00 00 00 00  .Khuma..........
12F0: 00 01 AE 13 02 02 00 09  80 80 13 13 B4 00 03 00  ................
1300: 50 69 6D 79 00 00 00 00  00 00 00 00 00 00 00 00  Pimy............
1310: 01 AE 13 02 02 00 0B 80  80 32 13 B4 00 03 00 52  .........2.....R
1320: 61 6B 61 00 00 00 00 00  00 00 00 00 00 00 00 01  aka.............
1330: AE 13 02 02 00 0D 80 80  51 13 B4 00 03 00 53 61  ........Q.....Sa
1340: 68 79 75 00 00 00 00 00  00 00 00 00 00 00 01 AE  hyu.............
1350: 13 02 02 00 0F 80 80 70  13 B4 00 03 00 53 75 66  .......p.....Suf
1360: 68 69 00 00 00 00 00 00  00 00 00 00 00 01 AE 13  hi..............
1370: 02 02 00 11 80 80 8F 13  B4 00 03 00 54 73 75 69  ............Tsui
1380: 6D 00 00 00 00 00 00 00  00 00 00 00 01 AE 13 02  m...............
1390: 02 00 13 80 80 AE 13 B4  00 03 00 59 6F 6C 69 00  ...........Yoli.
13A0: 00 00 00 00 00 00 00 00  00 00 00 01 AE 13 01 B4  ................
13B0: 14 02 0C 00 13 80 80 B4  14 02 02 00 05 80 80 D8  ................
13C0: 13 B4 00 03 00 44 75 72  69 62 00 00 00 00 00 00  .....Durib......
13D0: 00 00 00 00 00 01 B1 14  02 02 00 07 80 80 F7 13  ................
13E0: B4 00 03 00 44 7A 61 70  69 77 61 00 00 00 00 00  ....Dzapiwa.....
13F0: 00 00 00 00 01 B1 14 02  02 00 09 80 80 16 14 B4  ................
1400: 00 03 00 4A 75 67 6F 77  61 00 00 00 00 00 00 00  ...Jugowa.......
1410: 00 00 00 01 B1 14 02 02  00 0B 80 80 35 14 B4 00  ............5...
1420: 03 00 4D 75 67 69 64 6F  00 00 00 00 00 00 00 00  ..Mugido........
1430: 00 00 01 B1 14 02 02 00  0D 80 80 54 14 B4 00 03  ...........T....
1440: 00 56 6F 6C 64 61 69 00  00 00 00 00 00 00 00 00  .Voldai.........
1450: 00 01 B1 14 02 02 00 0F  80 80 73 14 B4 00 03 00  ..........s.....
1460: 57 61 67 77 65 69 00 00  00 00 00 00 00 00 00 00  Wagwei..........
1470: 01 B1 14 02 02 00 11 80  80 92 14 B4 00 03 00 5A  ...............Z
1480: 61 79 61 67 00 00 00 00  00 00 00 00 00 00 00 01  ayag............
1490: B1 14 02 02 00 13 80 80  B1 14 B4 00 03 00 5A 6F  ..............Zo
14A0: 6C 64 6F 66 00 00 00 00  00 00 00 00 00 00 01 B1  ldof............
14B0: 14 01 B4 14 02 03 00 05  80 01 C0 14 B5 00 03 00  ................
14C0: 1B 1A 87 18 02 0A 00 05  80 02 8C 16 02 0C 00 05  ................
14D0: 80 80 04 15 02 0A 00 07  80 80 E3 14 B6 0F 2F 80  ............../.
14E0: 01 01 15 02 0A 00 09 80  80 F2 14 B6 0F 30 80 01  .............0..
14F0: 01 15 02 0A 00 0B 80 80  01 15 B6 0F 31 80 01 01  ............1...
1500: 15 01 8C 16 02 0C 00 07  80 80 3C 15 02 0A 00 07  ..........<.....
1510: 80 80 1B 15 B6 0F 2F 80  01 39 15 02 0A 00 09 80  ....../..9......
1520: 80 2A 15 B6 0F 30 80 01  39 15 02 0A 00 0B 80 80  .*...0..9.......
1530: 39 15 B6 0F 31 80 01 39  15 01 8C 16 02 0C 00 09  9...1..9........
1540: 80 80 74 15 02 0A 00 07  80 80 53 15 B6 0F 2F 80  ..t.......S.../.
1550: 01 71 15 02 0A 00 09 80  80 62 15 B6 0F 30 80 01  .q.......b...0..
1560: 71 15 02 0A 00 0B 80 80  71 15 B6 0F 31 80 01 71  q.......q...1..q
1570: 15 01 8C 16 02 0C 00 0B  80 80 AC 15 02 0A 00 07  ................
1580: 80 80 8B 15 B6 0F 2F 80  01 A9 15 02 0A 00 09 80  ....../.........
1590: 80 9A 15 B6 0F 30 80 01  A9 15 02 0A 00 0B 80 80  .....0..........
15A0: A9 15 B6 0F 31 80 01 A9  15 01 8C 16 02 0C 00 0D  ....1...........
15B0: 80 80 E4 15 02 0A 00 07  80 80 C3 15 B6 0F 32 80  ..............2.
15C0: 01 E1 15 02 0A 00 09 80  80 D2 15 B6 0F 33 80 01  .............3..
15D0: E1 15 02 0A 00 0B 80 80  E1 15 B6 0F 34 80 01 E1  ............4...
15E0: 15 01 8C 16 02 0C 00 0F  80 80 1C 16 02 0A 00 07  ................
15F0: 80 80 FB 15 B6 0F 32 80  01 19 16 02 0A 00 09 80  ......2.........
1600: 80 0A 16 B6 0F 33 80 01  19 16 02 0A 00 0B 80 80  .....3..........
1610: 19 16 B6 0F 34 80 01 19  16 01 8C 16 02 0C 00 11  ....4...........
1620: 80 80 54 16 02 0A 00 07  80 80 33 16 B6 0F 35 80  ..T.......3...5.
1630: 01 51 16 02 0A 00 09 80  80 42 16 B6 0F 36 80 01  .Q.......B...6..
1640: 51 16 02 0A 00 0B 80 80  51 16 B6 0F 37 80 01 51  Q.......Q...7..Q
1650: 16 01 8C 16 02 0C 00 13  80 80 8C 16 02 0A 00 07  ................
1660: 80 80 6B 16 B6 0F 34 80  01 89 16 02 0A 00 09 80  ..k...4.........
1670: 80 7A 16 B6 0F 38 80 01  89 16 02 0A 00 0B 80 80  .z...8..........
1680: 89 16 B6 0F 30 80 01 89  16 01 8C 16 0B 0C 00 B6  ....0...........
1690: 0B 0C 00 0D 00 0E 00 0F  00 10 00 11 00 12 00 05  ................
16A0: 80 05 80 1B 1A 87 18 02  0A 00 05 80 02 6F 18 02  .............o..
16B0: 0C 00 05 80 80 E7 16 02  0A 00 07 80 80 C6 16 B6  ................
16C0: 0F 2F 80 01 E4 16 02 0A  00 09 80 80 D5 16 B6 0F  ./..............
16D0: 30 80 01 E4 16 02 0A 00  0B 80 80 E4 16 B6 0F 31  0..............1
16E0: 80 01 E4 16 01 6F 18 02  0C 00 07 80 80 1F 17 02  .....o..........
16F0: 0A 00 07 80 80 FE 16 B6  0F 2F 80 01 1C 17 02 0A  ........./......
1700: 00 09 80 80 0D 17 B6 0F  30 80 01 1C 17 02 0A 00  ........0.......
1710: 0B 80 80 1C 17 B6 0F 31  80 01 1C 17 01 6F 18 02  .......1.....o..
1720: 0C 00 09 80 80 57 17 02  0A 00 07 80 80 36 17 B6  .....W.......6..
1730: 0F 2F 80 01 54 17 02 0A  00 09 80 80 45 17 B6 0F  ./..T.......E...
1740: 30 80 01 54 17 02 0A 00  0B 80 80 54 17 B6 0F 31  0..T.......T...1
1750: 80 01 54 17 01 6F 18 02  0C 00 0B 80 80 8F 17 02  ..T..o..........
1760: 0A 00 07 80 80 6E 17 B6  0F 2F 80 01 8C 17 02 0A  .....n.../......
1770: 00 09 80 80 7D 17 B6 0F  30 80 01 8C 17 02 0A 00  ....}...0.......
1780: 0B 80 80 8C 17 B6 0F 31  80 01 8C 17 01 6F 18 02  .......1.....o..
1790: 0C 00 0D 80 80 C7 17 02  0A 00 07 80 80 A6 17 B6  ................
17A0: 0F 32 80 01 C4 17 02 0A  00 09 80 80 B5 17 B6 0F  .2..............
17B0: 33 80 01 C4 17 02 0A 00  0B 80 80 C4 17 B6 0F 34  3..............4
17C0: 80 01 C4 17 01 6F 18 02  0C 00 0F 80 80 FF 17 02  .....o..........
17D0: 0A 00 07 80 80 DE 17 B6  0F 32 80 01 FC 17 02 0A  .........2......
17E0: 00 09 80 80 ED 17 B6 0F  33 80 01 FC 17 02 0A 00  ........3.......
17F0: 0B 80 80 FC 17 B6 0F 34  80 01 FC 17 01 6F 18 02  .......4.....o..
1800: 0C 00 11 80 80 37 18 02  0A 00 07 80 80 16 18 B6  .....7..........
1810: 0F 35 80 01 34 18 02 0A  00 09 80 80 25 18 B6 0F  .5..4.......%...
1820: 36 80 01 34 18 02 0A 00  0B 80 80 34 18 B6 0F 37  6..4.......4...7
1830: 80 01 34 18 01 6F 18 02  0C 00 13 80 80 6F 18 02  ..4..o.......o..
1840: 0A 00 07 80 80 4E 18 B6  0F 34 80 01 6C 18 02 0A  .....N...4..l...
1850: 00 09 80 80 5D 18 B6 0F  38 80 01 6C 18 02 0A 00  ....]...8..l....
1860: 0B 80 80 6C 18 B6 0F 30  80 01 6C 18 01 6F 18 0B  ...l...0..l..o..
1870: 0C 00 B6 0B 0C 00 0D 00  0E 00 0F 00 10 00 11 00  ................
1880: 12 00 13 00 14 00 1B 1A  B6 18 1A AB 19 1A A1 19  ................
1890: 1A 02 1E 1A 17 1E 1A 37  1E 1A 57 1E 1A 77 1E 1A  .......7..W..w..
18A0: A4 1D 1A C4 1D 1A 97 1E  1A BF 1E 1B 41 05 80 0B  ............A...
18B0: 80 09 10 02 00 1B 41 0D  80 11 80 09 10 0C 00 03  ......A.........
18C0: 1E 17 05 80 02 0C 00 05  80 80 D4 18 03 1F 17 05  ................
18D0: 80 01 44 19 02 0C 00 07  80 80 E4 18 03 1F 17 07  ..D.............
18E0: 80 01 44 19 02 0C 00 09  80 80 F4 18 03 1F 17 05  ..D.............
18F0: 80 01 44 19 02 0C 00 0B  80 80 04 19 03 1F 17 07  ..D.............
1900: 80 01 44 19 02 0C 00 0D  80 80 14 19 03 1F 17 05  ..D.............
1910: 80 01 44 19 02 0C 00 0F  80 80 24 19 03 1F 17 07  ..D.......$.....
1920: 80 01 44 19 02 0C 00 11  80 80 34 19 03 1F 17 07  ..D.......4.....
1930: 80 01 44 19 02 0C 00 13  80 80 44 19 03 1F 17 05  ..D.......D.....
1940: 80 01 44 19 02 1F 17 07  80 00 8C 19 02 87 7F 09  ..D.............
1950: 80 80 5C 19 03 1E 17 07  80 01 8C 19 02 87 7F 0D  ..\.............
1960: 80 80 6C 19 03 1E 17 07  80 01 8C 19 02 87 7F 11  ..l.............
1970: 80 80 7C 19 03 1E 17 07  80 01 8C 19 02 87 7F 13  ..|.............
1980: 80 80 8C 19 03 1E 17 07  80 01 8C 19 1B 41 39 80  .............A9.
1990: 3A 80 09 10 07 00 1B 41  3B 80 3C 80 09 10 09 00  :......A;.<.....
19A0: 1B 41 3D 80 28 80 09 10  0A 00 1B 1A B6 18 1A 8D  .A=.(...........
19B0: 19 02 07 00 05 80 00 C5  19 41 3E 80 3F 80 09 10  .........A>.?...
19C0: 0D 00 01 05 1D 02 0C 00  05 80 80 2D 1A 02 07 00  ...........-....
19D0: 07 80 80 EC 19 3E 09 10  13 80 E4 19 03 0D 00 3C  .....>.........<
19E0: 80 01 E9 19 03 0D 00 40  80 01 2A 1A 02 07 00 09  .......@..*.....
19F0: 80 80 0B 1A 3E 09 10 13  80 03 1A 03 0D 00 0F 80  ....>...........
1A00: 01 08 1A 03 0D 00 0D 80  01 2A 1A 02 07 00 0B 80  .........*......
1A10: 80 2A 1A 3E 09 10 13 80  22 1A 03 0D 00 07 80 01  .*.>....".......
1A20: 27 1A 03 0D 00 05 80 01  2A 1A 01 05 1D 02 0C 00  '.......*.......
1A30: 07 80 80 95 1A 02 07 00  07 80 80 54 1A 3E 09 10  ...........T.>..
1A40: 13 80 4C 1A 03 0D 00 07  80 01 51 1A 03 0D 00 05  ..L.......Q.....
1A50: 80 01 92 1A 02 07 00 09  80 80 73 1A 3E 09 10 13  ..........s.>...
1A60: 80 6B 1A 03 0D 00 0F 80  01 70 1A 03 0D 00 0D 80  .k.......p......
1A70: 01 92 1A 02 07 00 0B 80  80 92 1A 3E 09 10 13 80  ...........>....
1A80: 8A 1A 03 0D 00 0B 80 01  8F 1A 03 0D 00 09 80 01  ................
1A90: 92 1A 01 05 1D 02 0C 00  09 80 80 FD 1A 02 07 00  ................
1AA0: 07 80 80 BC 1A 3E 09 10  13 80 B4 1A 03 0D 00 0B  .....>..........
1AB0: 80 01 B9 1A 03 0D 00 09  80 01 FA 1A 02 07 00 09  ................
1AC0: 80 80 DB 1A 3E 09 10 13  80 D3 1A 03 0D 00 41 80  ....>.........A.
1AD0: 01 D8 1A 03 0D 00 42 80  01 FA 1A 02 07 00 0B 80  ......B.........
1AE0: 80 FA 1A 3E 09 10 13 80  F2 1A 03 0D 00 3C 80 01  ...>.........<..
1AF0: F7 1A 03 0D 00 40 80 01  FA 1A 01 05 1D 02 0C 00  .....@..........
1B00: 0B 80 80 65 1B 02 07 00  07 80 80 24 1B 3E 09 10  ...e.......$.>..
1B10: 13 80 1C 1B 03 0D 00 07  80 01 21 1B 03 0D 00 05  ..........!.....
1B20: 80 01 62 1B 02 07 00 09  80 80 43 1B 3E 09 10 13  ..b.......C.>...
1B30: 80 3B 1B 03 0D 00 43 80  01 40 1B 03 0D 00 3B 80  .;....C..@....;.
1B40: 01 62 1B 02 07 00 0B 80  80 62 1B 3E 09 10 13 80  .b.......b.>....
1B50: 5A 1B 03 0D 00 13 80 01  5F 1B 03 0D 00 11 80 01  Z......._.......
1B60: 62 1B 01 05 1D 02 0C 00  0D 80 80 CD 1B 02 07 00  b...............
1B70: 07 80 80 8C 1B 3E 09 10  13 80 84 1B 03 0D 00 0F  .....>..........
1B80: 80 01 89 1B 03 0D 00 0D  80 01 CA 1B 02 07 00 09  ................
1B90: 80 80 AB 1B 3E 09 10 13  80 A3 1B 03 0D 00 0B 80  ....>...........
1BA0: 01 A8 1B 03 0D 00 09 80  01 CA 1B 02 07 00 0B 80  ................
1BB0: 80 CA 1B 3E 09 10 13 80  C2 1B 03 0D 00 13 80 01  ...>............
1BC0: C7 1B 03 0D 00 11 80 01  CA 1B 01 05 1D 02 0C 00  ................
1BD0: 0F 80 80 35 1C 02 07 00  07 80 80 F4 1B 3E 09 10  ...5.........>..
1BE0: 13 80 EC 1B 03 0D 00 0B  80 01 F1 1B 03 0D 00 09  ................
1BF0: 80 01 32 1C 02 07 00 09  80 80 13 1C 3E 09 10 13  ..2.........>...
1C00: 80 0B 1C 03 0D 00 13 80  01 10 1C 03 0D 00 11 80  ................
1C10: 01 32 1C 02 07 00 0B 80  80 32 1C 3E 09 10 13 80  .2.......2.>....
1C20: 2A 1C 03 0D 00 07 80 01  2F 1C 03 0D 00 05 80 01  *......./.......
1C30: 32 1C 01 05 1D 02 0C 00  11 80 80 9D 1C 02 07 00  2...............
1C40: 07 80 80 5C 1C 3E 09 10  13 80 54 1C 03 0D 00 3A  ...\.>....T....:
1C50: 80 01 59 1C 03 0D 00 39  80 01 9A 1C 02 07 00 09  ..Y....9........
1C60: 80 80 7B 1C 3E 09 10 13  80 73 1C 03 0D 00 43 80  ..{.>....s....C.
1C70: 01 78 1C 03 0D 00 3B 80  01 9A 1C 02 07 00 0B 80  .x....;.........
1C80: 80 9A 1C 3E 09 10 13 80  92 1C 03 0D 00 3C 80 01  ...>.........<..
1C90: 97 1C 03 0D 00 40 80 01  9A 1C 01 05 1D 02 0C 00  .....@..........
1CA0: 13 80 80 05 1D 02 07 00  07 80 80 C4 1C 3E 09 10  .............>..
1CB0: 13 80 BC 1C 03 0D 00 0F  80 01 C1 1C 03 0D 00 0D  ................
1CC0: 80 01 02 1D 02 07 00 09  80 80 E3 1C 3E 09 10 13  ............>...
1CD0: 80 DB 1C 03 0D 00 3C 80  01 E0 1C 03 0D 00 40 80  ......<.......@.
1CE0: 01 02 1D 02 07 00 0B 80  80 02 1D 3E 09 10 13 80  ...........>....
1CF0: FA 1C 03 0D 00 43 80 01  FF 1C 03 0D 00 3B 80 01  .....C.......;..
1D00: 02 1D 01 05 1D 1B 40 44  80 45 80 01 10 07 80 43  ......@D.E.....C
1D10: 00 43 01 1B 40 44 80 45  80 01 10 09 80 43 00 43  .C..@D.E.....C.C
1D20: 01 1B 40 44 80 45 80 01  10 0B 80 43 00 43 01 1B  ..@D.E.....C.C..
1D30: 40 44 80 45 80 01 10 0D  80 43 00 43 01 1B 40 44  @D.E.....C.C..@D
1D40: 80 45 80 01 10 0F 80 43  00 43 01 1B 40 44 80 45  .E.....C.C..@D.E
1D50: 80 01 10 11 80 43 00 43  01 1B 40 44 80 45 80 01  .....C.C..@D.E..
1D60: 10 13 80 43 00 43 01 1B  40 44 80 45 80 01 10 39  ...C.C..@D.E...9
1D70: 80 43 00 43 01 1B 40 44  80 45 80 01 10 3B 80 43  .C.C..@D.E...;.C
1D80: 00 43 01 1B 1A B6 18 03  0B 00 0C 00 02 0B 00 0F  .C..............
1D90: 80 04 99 1D 08 0B 00 07  80 14 0B 00 3B 80 07 0B  ............;...
1DA0: 00 3A 80 1B 03 17 00 05  80 03 18 00 05 80 41 3E  .:............A>
1DB0: 80 3F 80 08 10 17 00 41  05 80 0B 80 07 10 18 00  .?.....A........
1DC0: 1A 4A 44 1B 03 17 00 05  80 41 44 80 46 80 08 10  .JD......AD.F...
1DD0: 17 00 3E 07 10 3E 80 E8  1D 41 05 80 0B 80 07 10  ..>..>...A......
1DE0: 18 00 1A 32 4A 01 01 1E  41 05 80 0B 80 07 10 18  ...2J...A.......
1DF0: 00 02 18 00 05 80 80 FC  1D 01 01 1E 03 14 00 05  ................
1E00: 80 1B 03 17 00 05 80 41  05 80 0B 80 08 10 17 00  .......A........
1E10: 1A 97 19 1A 91 2F 1B 03  16 00 05 80 03 17 00 05  ...../..........
1E20: 80 41 11 80 13 80 07 10  16 00 41 0D 80 13 80 08  .A........A.....
1E30: 10 17 00 1A 96 37 1B 03  16 00 05 80 03 17 00 05  .....7..........
1E40: 80 41 39 80 3A 80 07 10  16 00 41 39 80 43 80 08  .A9.:.....A9.C..
1E50: 10 17 00 1A C3 3A 1B 03  16 00 05 80 03 17 00 05  .....:..........
1E60: 80 41 3B 80 43 80 07 10  16 00 41 40 80 41 80 08  .A;.C.....A@.A..
1E70: 10 17 00 1A F0 3D 1B 03  16 00 05 80 03 17 00 05  .....=..........
1E80: 80 41 40 80 3C 80 07 10  16 00 41 47 80 28 80 08  .A@.<.....AG.(..
1E90: 10 17 00 1A 1D 41 1B 41  05 80 0B 80 06 10 15 00  .....A.A........
1EA0: 1A B6 18 1A 0E 4B 41 0D  80 13 80 06 10 15 00 1A  .....KA.........
1EB0: 11 4C 41 39 80 43 80 06  10 15 00 1A 5B 4C 1B 41  .LA9.C......[L.A
1EC0: 48 80 44 80 07 10 01 00  02 01 00 07 80 80 D8 1E  H.D.............
1ED0: 03 13 00 49 80 01 21 20  02 01 00 09 80 80 E8 1E  ...I..! ........
1EE0: 03 13 00 4A 80 01 21 20  02 01 00 0B 80 80 F8 1E  ...J..! ........
1EF0: 03 13 00 4B 80 01 21 20  02 01 00 0D 80 80 08 1F  ...K..! ........
1F00: 03 13 00 4C 80 01 21 20  02 01 00 0F 80 80 18 1F  ...L..! ........
1F10: 03 13 00 4D 80 01 21 20  02 01 00 11 80 80 28 1F  ...M..! ......(.
1F20: 03 13 00 4E 80 01 21 20  02 01 00 13 80 80 21 20  ...N..! ......! 
1F30: 41 05 80 13 80 03 10 01  00 02 01 00 05 80 80 49  A..............I
1F40: 1F 03 13 00 49 80 01 1E  20 02 01 00 07 80 80 59  ....I... ......Y
1F50: 1F 03 13 00 4F 80 01 1E  20 02 01 00 09 80 80 69  ....O... ......i
1F60: 1F 03 13 00 50 80 01 1E  20 02 01 00 0B 80 80 79  ....P... ......y
1F70: 1F 03 13 00 51 80 01 1E  20 02 01 00 0D 80 80 89  ....Q... .......
1F80: 1F 03 13 00 52 80 01 1E  20 02 01 00 0F 80 80 99  ....R... .......
1F90: 1F 03 13 00 53 80 01 1E  20 02 01 00 11 80 80 A9  ....S... .......
1FA0: 1F 03 13 00 54 80 01 1E  20 02 01 00 13 80 80 BE  ....T... .......
1FB0: 1F 03 13 00 55 80 03 14  00 55 80 01 1E 20 02 01  ....U....U... ..
1FC0: 00 39 80 80 CE 1F 03 13  00 56 80 01 1E 20 02 01  .9.......V... ..
1FD0: 00 3A 80 80 DE 1F 03 13  00 57 80 01 1E 20 02 01  .:.......W... ..
1FE0: 00 3B 80 80 EE 1F 03 13  00 58 80 01 1E 20 02 01  .;.......X... ..
1FF0: 00 43 80 80 FE 1F 03 13  00 59 80 01 1E 20 02 01  .C.......Y... ..
2000: 00 40 80 80 0E 20 03 13  00 5A 80 01 1E 20 02 01  .@... ...Z... ..
2010: 00 3C 80 80 1E 20 03 13  00 5B 80 01 1E 20 01 21  .<... ...[... .!
2020: 20 3E 03 10 39 80 B1 20  41 3A 80 41 80 03 10 01   >..9.. A:.A....
2030: 00 02 01 00 05 80 80 41  20 03 14 00 5C 80 01 B1  .......A ...\...
2040: 20 02 01 00 07 80 80 51  20 03 14 00 5D 80 01 B1   ......Q ...]...
2050: 20 02 01 00 09 80 80 61  20 03 14 00 5E 80 01 B1   ......a ...^...
2060: 20 02 01 00 0B 80 80 71  20 03 14 00 5F 80 01 B1   ......q ..._...
2070: 20 02 01 00 0D 80 80 81  20 03 14 00 60 80 01 B1   ....... ...`...
2080: 20 02 01 00 0F 80 80 91  20 03 14 00 61 80 01 B1   ....... ...a...
2090: 20 02 01 00 11 80 80 A1  20 03 14 00 62 80 01 B1   ....... ...b...
20A0: 20 02 01 00 13 80 80 B1  20 03 14 00 63 80 01 B1   ....... ...c...
20B0: 20 41 64 80 46 80 07 10  01 00 02 01 00 07 80 80   Ad.F...........
20C0: CA 20 03 0E 00 65 80 01  79 22 02 01 00 09 80 80  . ...e..y"......
20D0: DA 20 03 0E 00 02 80 01  79 22 02 01 00 0B 80 80  . ......y"......
20E0: EA 20 03 0E 00 66 80 01  79 22 02 01 00 0D 80 80  . ...f..y"......
20F0: FA 20 03 0E 00 67 80 01  79 22 02 01 00 0F 80 80  . ...g..y"......
2100: 0A 21 03 0E 00 68 80 01  79 22 02 01 00 11 80 80  .!...h..y"......
2110: 1A 21 03 0E 00 69 80 01  79 22 02 01 00 13 80 80  .!...i..y"......
2120: 79 22 41 47 80 3F 80 03  10 01 00 02 01 00 05 80  y"AG.?..........
2130: 80 B6 21 02 0C 00 05 80  80 43 21 03 0E 00 6A 80  ..!......C!...j.
2140: 01 B3 21 02 0C 00 07 80  80 53 21 03 0E 00 4D 80  ..!......S!...M.
2150: 01 B3 21 02 0C 00 09 80  80 63 21 03 0E 00 6A 80  ..!......c!...j.
2160: 01 B3 21 02 0C 00 0B 80  80 73 21 03 0E 00 4D 80  ..!......s!...M.
2170: 01 B3 21 02 0C 00 0D 80  80 83 21 03 0E 00 6A 80  ..!.......!...j.
2180: 01 B3 21 02 0C 00 0F 80  80 93 21 03 0E 00 4D 80  ..!.......!...M.
2190: 01 B3 21 02 0C 00 11 80  80 A3 21 03 0E 00 4D 80  ..!.......!...M.
21A0: 01 B3 21 02 0C 00 13 80  80 B3 21 03 0E 00 6A 80  ..!.......!...j.
21B0: 01 B3 21 01 76 22 02 01  00 07 80 80 C6 21 03 0E  ..!.v".......!..
21C0: 00 6B 80 01 76 22 02 01  00 09 80 80 D6 21 03 0E  .k..v".......!..
21D0: 00 6C 80 01 76 22 02 01  00 0B 80 80 E6 21 03 0E  .l..v".......!..
21E0: 00 4B 80 01 76 22 02 01  00 0D 80 80 F6 21 03 0E  .K..v".......!..
21F0: 00 4C 80 01 76 22 02 01  00 0F 80 80 06 22 03 0E  .L..v"......."..
2200: 00 6D 80 01 76 22 02 01  00 11 80 80 16 22 03 0E  .m..v"......."..
2210: 00 69 80 01 76 22 02 01  00 13 80 80 26 22 03 0E  .i..v"......&"..
2220: 00 69 80 01 76 22 02 01  00 39 80 80 36 22 03 0E  .i..v"...9..6"..
2230: 00 6E 80 01 76 22 02 01  00 3A 80 80 46 22 03 0E  .n..v"...:..F"..
2240: 00 6F 80 01 76 22 02 01  00 3B 80 80 56 22 03 0E  .o..v"...;..V"..
2250: 00 70 80 01 76 22 02 01  00 43 80 80 66 22 03 0E  .p..v"...C..f"..
2260: 00 71 80 01 76 22 02 01  00 40 80 80 76 22 03 0E  .q..v"...@..v"..
2270: 00 72 80 01 76 22 01 79  22 41 73 80 45 80 07 10  .r..v".y"As.E...
2280: 01 00 02 01 00 3A 80 80  A1 22 03 0F 00 74 80 03  .....:..."...t..
2290: 10 00 74 80 03 11 00 74  80 03 12 00 74 80 01 90  ..t....t....t...
22A0: 2F 02 01 00 3B 80 80 A4  23 02 0C 00 05 80 80 C8  /...;...#.......
22B0: 22 03 0F 00 75 80 03 10  00 75 80 03 11 00 75 80  "...u....u....u.
22C0: 03 12 00 75 80 01 A1 23  02 0C 00 07 80 80 E7 22  ...u...#......."
22D0: 03 0F 00 76 80 03 10 00  76 80 03 11 00 76 80 03  ...v....v....v..
22E0: 12 00 76 80 01 A1 23 02  0C 00 09 80 80 06 23 03  ..v...#.......#.
22F0: 0F 00 75 80 03 10 00 75  80 03 11 00 75 80 03 12  ..u....u....u...
2300: 00 75 80 01 A1 23 02 0C  00 0B 80 80 25 23 03 0F  .u...#......%#..
2310: 00 76 80 03 10 00 76 80  03 11 00 76 80 03 12 00  .v....v....v....
2320: 76 80 01 A1 23 02 0C 00  0D 80 80 44 23 03 0F 00  v...#......D#...
2330: 75 80 03 10 00 75 80 03  11 00 75 80 03 12 00 75  u....u....u....u
2340: 80 01 A1 23 02 0C 00 0F  80 80 63 23 03 0F 00 76  ...#......c#...v
2350: 80 03 10 00 76 80 03 11  00 76 80 03 12 00 76 80  ....v....v....v.
2360: 01 A1 23 02 0C 00 11 80  80 82 23 03 0F 00 76 80  ..#.......#...v.
2370: 03 10 00 76 80 03 11 00  76 80 03 12 00 76 80 01  ...v....v....v..
2380: A1 23 02 0C 00 13 80 80  A1 23 03 0F 00 75 80 03  .#.......#...u..
2390: 10 00 75 80 03 11 00 75  80 03 12 00 75 80 01 A1  ..u....u....u...
23A0: 23 01 90 2F 02 01 00 43  80 80 A7 24 02 0C 00 05  #../...C...$....
23B0: 80 80 CB 23 03 0F 00 6A  80 03 10 00 6A 80 03 11  ...#...j....j...
23C0: 00 6A 80 03 12 00 6A 80  01 A4 24 02 0C 00 07 80  .j....j...$.....
23D0: 80 EA 23 03 0F 00 4D 80  03 10 00 4D 80 03 11 00  ..#...M....M....
23E0: 4D 80 03 12 00 4D 80 01  A4 24 02 0C 00 09 80 80  M....M...$......
23F0: 09 24 03 0F 00 6A 80 03  10 00 6A 80 03 11 00 6A  .$...j....j....j
2400: 80 03 12 00 6A 80 01 A4  24 02 0C 00 0B 80 80 28  ....j...$......(
2410: 24 03 0F 00 4D 80 03 10  00 4D 80 03 11 00 4D 80  $...M....M....M.
2420: 03 12 00 4D 80 01 A4 24  02 0C 00 0D 80 80 47 24  ...M...$......G$
2430: 03 0F 00 6A 80 03 10 00  6A 80 03 11 00 6A 80 03  ...j....j....j..
2440: 12 00 6A 80 01 A4 24 02  0C 00 0F 80 80 66 24 03  ..j...$......f$.
2450: 0F 00 4D 80 03 10 00 4D  80 03 11 00 4D 80 03 12  ..M....M....M...
2460: 00 4D 80 01 A4 24 02 0C  00 11 80 80 85 24 03 0F  .M...$.......$..
2470: 00 4D 80 03 10 00 4D 80  03 11 00 4D 80 03 12 00  .M....M....M....
2480: 4D 80 01 A4 24 02 0C 00  13 80 80 A4 24 03 0F 00  M...$.......$...
2490: 6A 80 03 10 00 6A 80 03  11 00 6A 80 03 12 00 6A  j....j....j....j
24A0: 80 01 A4 24 01 90 2F 02  01 00 07 80 80 3B 25 02  ...$../......;%.
24B0: 0C 00 05 80 80 BF 24 03  0F 00 77 80 01 2F 25 02  ......$...w../%.
24C0: 0C 00 07 80 80 CF 24 03  0F 00 78 80 01 2F 25 02  ......$...x../%.
24D0: 0C 00 09 80 80 DF 24 03  0F 00 77 80 01 2F 25 02  ......$...w../%.
24E0: 0C 00 0B 80 80 EF 24 03  0F 00 78 80 01 2F 25 02  ......$...x../%.
24F0: 0C 00 0D 80 80 FF 24 03  0F 00 77 80 01 2F 25 02  ......$...w../%.
2500: 0C 00 0F 80 80 0F 25 03  0F 00 78 80 01 2F 25 02  ......%...x../%.
2510: 0C 00 11 80 80 1F 25 03  0F 00 78 80 01 2F 25 02  ......%...x../%.
2520: 0C 00 13 80 80 2F 25 03  0F 00 77 80 01 2F 25 1A  ...../%...w../%.
2530: 37 1E 1A 57 1E 1A 77 1E  01 90 2F 02 01 00 09 80  7..W..w.../.....
2540: 80 CF 25 02 0C 00 05 80  80 53 25 03 0F 00 79 80  ..%......S%...y.
2550: 01 C3 25 02 0C 00 07 80  80 63 25 03 0F 00 7A 80  ..%......c%...z.
2560: 01 C3 25 02 0C 00 09 80  80 73 25 03 0F 00 79 80  ..%......s%...y.
2570: 01 C3 25 02 0C 00 0B 80  80 83 25 03 0F 00 7A 80  ..%.......%...z.
2580: 01 C3 25 02 0C 00 0D 80  80 93 25 03 0F 00 79 80  ..%.......%...y.
2590: 01 C3 25 02 0C 00 0F 80  80 A3 25 03 0F 00 7A 80  ..%.......%...z.
25A0: 01 C3 25 02 0C 00 11 80  80 B3 25 03 0F 00 7A 80  ..%.......%...z.
25B0: 01 C3 25 02 0C 00 13 80  80 C3 25 03 0F 00 79 80  ..%.......%...y.
25C0: 01 C3 25 1A 37 1E 1A 57  1E 1A 77 1E 01 90 2F 02  ..%.7..W..w.../.
25D0: 01 00 13 80 80 63 26 02  0C 00 05 80 80 E7 25 03  .....c&.......%.
25E0: 0F 00 7B 80 01 57 26 02  0C 00 07 80 80 F7 25 03  ..{..W&.......%.
25F0: 0F 00 7C 80 01 57 26 02  0C 00 09 80 80 07 26 03  ..|..W&.......&.
2600: 0F 00 7B 80 01 57 26 02  0C 00 0B 80 80 17 26 03  ..{..W&.......&.
2610: 0F 00 7C 80 01 57 26 02  0C 00 0D 80 80 27 26 03  ..|..W&......'&.
2620: 0F 00 7B 80 01 57 26 02  0C 00 0F 80 80 37 26 03  ..{..W&......7&.
2630: 0F 00 7C 80 01 57 26 02  0C 00 11 80 80 47 26 03  ..|..W&......G&.
2640: 0F 00 7C 80 01 57 26 02  0C 00 13 80 80 57 26 03  ..|..W&......W&.
2650: 0F 00 7B 80 01 57 26 1A  37 1E 1A 57 1E 1A 77 1E  ..{..W&.7..W..w.
2660: 01 90 2F 02 01 00 0B 80  80 A1 26 02 0C 00 0F 80  ../.......&.....
2670: 00 8A 26 03 0F 00 7D 80  03 10 00 7D 80 03 11 00  ..&...}....}....
2680: 7D 80 03 12 00 7D 80 01  9E 26 03 0F 00 7E 80 03  }....}...&...~..
2690: 10 00 7E 80 03 11 00 7E  80 03 12 00 7E 80 01 90  ..~....~....~...
26A0: 2F 02 01 00 0D 80 80 DF  26 02 0C 00 0F 80 00 C8  /.......&.......
26B0: 26 03 0F 00 7F 80 03 10  00 7F 80 03 11 00 7F 80  &...............
26C0: 03 12 00 7F 80 01 DC 26  03 0F 00 80 80 03 10 00  .......&........
26D0: 80 80 03 11 00 80 80 03  12 00 80 80 01 90 2F 02  ............../.
26E0: 01 00 39 80 80 1D 27 02  0C 00 0F 80 00 06 27 03  ..9...'.......'.
26F0: 0F 00 81 80 03 10 00 81  80 03 11 00 81 80 03 12  ................
2700: 00 81 80 01 1A 27 03 0F  00 82 80 03 10 00 82 80  .....'..........
2710: 03 11 00 82 80 03 12 00  82 80 01 90 2F 02 01 00  ............/...
2720: 40 80 80 20 28 02 0C 00  05 80 80 44 27 03 0F 00  @.. (......D'...
2730: 6C 80 03 10 00 6C 80 03  11 00 6C 80 03 12 00 6C  l....l....l....l
2740: 80 01 1D 28 02 0C 00 07  80 80 63 27 03 0F 00 83  ...(......c'....
2750: 80 03 10 00 83 80 03 11  00 83 80 03 12 00 83 80  ................
2760: 01 1D 28 02 0C 00 09 80  80 82 27 03 0F 00 6C 80  ..(.......'...l.
2770: 03 10 00 6C 80 03 11 00  6C 80 03 12 00 6C 80 01  ...l....l....l..
2780: 1D 28 02 0C 00 0B 80 80  A1 27 03 0F 00 83 80 03  .(.......'......
2790: 10 00 83 80 03 11 00 83  80 03 12 00 83 80 01 1D  ................
27A0: 28 02 0C 00 0D 80 80 C0  27 03 0F 00 6C 80 03 10  (.......'...l...
27B0: 00 6C 80 03 11 00 6C 80  03 12 00 6C 80 01 1D 28  .l....l....l...(
27C0: 02 0C 00 0F 80 80 DF 27  03 0F 00 83 80 03 10 00  .......'........
27D0: 83 80 03 11 00 83 80 03  12 00 83 80 01 1D 28 02  ..............(.
27E0: 0C 00 11 80 80 FE 27 03  0F 00 83 80 03 10 00 83  ......'.........
27F0: 80 03 11 00 83 80 03 12  00 83 80 01 1D 28 02 0C  .............(..
2800: 00 13 80 80 1D 28 03 0F  00 6C 80 03 10 00 6C 80  .....(...l....l.
2810: 03 11 00 6C 80 03 12 00  6C 80 01 1D 28 01 90 2F  ...l....l...(../
2820: 02 01 00 0F 80 80 3E 28  03 0E 00 05 80 03 0F 00  ......>(........
2830: 84 80 1A 37 1E 1A 57 1E  1A 77 1E 01 90 2F 02 01  ...7..W..w.../..
2840: 00 11 80 80 D8 28 03 0F  00 67 80 03 10 00 69 80  .....(...g....i.
2850: 03 12 00 67 80 02 0C 00  05 80 80 65 28 03 11 00  ...g.......e(...
2860: 79 80 01 D5 28 02 0C 00  07 80 80 75 28 03 11 00  y...(......u(...
2870: 7A 80 01 D5 28 02 0C 00  09 80 80 85 28 03 11 00  z...(.......(...
2880: 79 80 01 D5 28 02 0C 00  0B 80 80 95 28 03 11 00  y...(.......(...
2890: 7A 80 01 D5 28 02 0C 00  0D 80 80 A5 28 03 11 00  z...(.......(...
28A0: 79 80 01 D5 28 02 0C 00  0F 80 80 B5 28 03 11 00  y...(.......(...
28B0: 7A 80 01 D5 28 02 0C 00  11 80 80 C5 28 03 11 00  z...(.......(...
28C0: 7A 80 01 D5 28 02 0C 00  13 80 80 D5 28 03 11 00  z...(.......(...
28D0: 79 80 01 D5 28 01 90 2F  02 01 00 3C 80 80 F6 28  y...(../...<...(
28E0: 03 0E 00 85 80 03 0F 00  85 80 1A 37 1E 1A 57 1E  ...........7..W.
28F0: 1A 77 1E 01 90 2F 02 01  00 42 80 80 14 29 03 0E  .w.../...B...)..
2900: 00 86 80 03 0F 00 86 80  1A 37 1E 1A 57 1E 1A 77  .........7..W..w
2910: 1E 01 90 2F 02 01 00 41  80 80 90 2F 41 44 80 45  .../...A.../AD.E
2920: 80 03 10 01 00 02 01 00  05 80 80 43 29 03 0E 00  ...........C)...
2930: 87 80 03 0F 00 87 80 1A  37 1E 1A 57 1E 1A 77 1E  ........7..W..w.
2940: 01 8D 2F 02 01 00 07 80  80 67 29 03 0E 00 4A 80  ../......g)...J.
2950: 03 0F 00 88 80 03 10 00  88 80 03 11 00 88 80 03  ................
2960: 12 00 88 80 01 8D 2F 02  01 00 09 80 80 8B 29 03  ....../.......).
2970: 0E 00 89 80 03 0F 00 89  80 03 10 00 89 80 03 11  ................
2980: 00 89 80 03 12 00 89 80  01 8D 2F 02 01 00 11 80  ........../.....
2990: 80 AF 29 03 0E 00 8A 80  03 0F 00 8A 80 03 10 00  ..).............
29A0: 8A 80 03 11 00 8A 80 03  12 00 8A 80 01 8D 2F 02  ............../.
29B0: 01 00 13 80 80 B2 2A 02  0C 00 05 80 80 D6 29 03  ......*.......).
29C0: 0F 00 8B 80 03 10 00 8B  80 03 11 00 8B 80 03 12  ................
29D0: 00 8B 80 01 AF 2A 02 0C  00 07 80 80 F5 29 03 0F  .....*.......)..
29E0: 00 2B 80 03 10 00 2B 80  03 11 00 2B 80 03 12 00  .+....+....+....
29F0: 2B 80 01 AF 2A 02 0C 00  09 80 80 14 2A 03 0F 00  +...*.......*...
2A00: 8B 80 03 10 00 8B 80 03  11 00 8B 80 03 12 00 8B  ................
2A10: 80 01 AF 2A 02 0C 00 0B  80 80 33 2A 03 0F 00 2B  ...*......3*...+
2A20: 80 03 10 00 2B 80 03 11  00 2B 80 03 12 00 2B 80  ....+....+....+.
2A30: 01 AF 2A 02 0C 00 0D 80  80 52 2A 03 0F 00 8B 80  ..*......R*.....
2A40: 03 10 00 8B 80 03 11 00  8B 80 03 12 00 8B 80 01  ................
2A50: AF 2A 02 0C 00 0F 80 80  71 2A 03 0F 00 2B 80 03  .*......q*...+..
2A60: 10 00 2B 80 03 11 00 2B  80 03 12 00 2B 80 01 AF  ..+....+....+...
2A70: 2A 02 0C 00 11 80 80 90  2A 03 0F 00 2B 80 03 10  *.......*...+...
2A80: 00 2B 80 03 11 00 2B 80  03 12 00 2B 80 01 AF 2A  .+....+....+...*
2A90: 02 0C 00 13 80 80 AF 2A  03 0F 00 8B 80 03 10 00  .......*........
2AA0: 8B 80 03 11 00 8B 80 03  12 00 8B 80 01 AF 2A 01  ..............*.
2AB0: 8D 2F 02 01 00 0B 80 80  6B 2B 02 0C 00 05 80 80  ./......k+......
2AC0: CF 2A 03 0F 00 4B 80 03  11 00 4B 80 01 62 2B 02  .*...K....K..b+.
2AD0: 0C 00 07 80 80 E4 2A 03  0F 00 4C 80 03 11 00 4C  ......*...L....L
2AE0: 80 01 62 2B 02 0C 00 09  80 80 F9 2A 03 0F 00 4B  ..b+.......*...K
2AF0: 80 03 11 00 4B 80 01 62  2B 02 0C 00 0B 80 80 0E  ....K..b+.......
2B00: 2B 03 0F 00 4C 80 03 11  00 4C 80 01 62 2B 02 0C  +...L....L..b+..
2B10: 00 0D 80 80 23 2B 03 0F  00 4B 80 03 11 00 4B 80  ....#+...K....K.
2B20: 01 62 2B 02 0C 00 0F 80  80 38 2B 03 0F 00 4C 80  .b+......8+...L.
2B30: 03 11 00 4C 80 01 62 2B  02 0C 00 11 80 80 4D 2B  ...L..b+......M+
2B40: 03 0F 00 4C 80 03 11 00  4C 80 01 62 2B 02 0C 00  ...L....L..b+...
2B50: 13 80 80 62 2B 03 0F 00  4B 80 03 11 00 4B 80 01  ...b+...K....K..
2B60: 62 2B 1A 37 1E 1A 77 1E  01 8D 2F 02 01 00 0D 80  b+.7..w.../.....
2B70: 80 8F 2B 03 0E 00 8C 80  03 0F 00 8C 80 03 10 00  ..+.............
2B80: 8C 80 03 11 00 8C 80 03  12 00 8C 80 01 8D 2F 02  ............../.
2B90: 01 00 0F 80 80 A8 2B 03  0F 00 8D 80 1A 37 1E 1A  ......+......7..
2BA0: 57 1E 1A 77 1E 01 8D 2F  02 01 00 39 80 80 D3 2C  W..w.../...9...,
2BB0: 02 0C 00 05 80 80 D4 2B  03 0E 00 8E 80 03 0F 00  .......+........
2BC0: 8E 80 03 10 00 8E 80 03  11 00 8E 80 03 12 00 8E  ................
2BD0: 80 01 D0 2C 02 0C 00 07  80 80 F8 2B 03 0E 00 8F  ...,.......+....
2BE0: 80 03 0F 00 8F 80 03 10  00 8F 80 03 11 00 8F 80  ................
2BF0: 03 12 00 8F 80 01 D0 2C  02 0C 00 09 80 80 1C 2C  .......,.......,
2C00: 03 0E 00 8E 80 03 0F 00  8E 80 03 10 00 8E 80 03  ................
2C10: 11 00 8E 80 03 12 00 8E  80 01 D0 2C 02 0C 00 0B  ...........,....
2C20: 80 80 40 2C 03 0E 00 8F  80 03 0F 00 8F 80 03 10  ..@,............
2C30: 00 8F 80 03 11 00 8F 80  03 12 00 8F 80 01 D0 2C  ...............,
2C40: 02 0C 00 0D 80 80 64 2C  03 0E 00 8E 80 03 0F 00  ......d,........
2C50: 8E 80 03 10 00 8E 80 03  11 00 8E 80 03 12 00 8E  ................
2C60: 80 01 D0 2C 02 0C 00 0F  80 80 88 2C 03 0E 00 8F  ...,.......,....
2C70: 80 03 0F 00 8F 80 03 10  00 8F 80 03 11 00 8F 80  ................
2C80: 03 12 00 8F 80 01 D0 2C  02 0C 00 11 80 80 AC 2C  .......,.......,
2C90: 03 0E 00 8F 80 03 0F 00  8F 80 03 10 00 8F 80 03  ................
2CA0: 11 00 8F 80 03 12 00 8F  80 01 D0 2C 02 0C 00 13  ...........,....
2CB0: 80 80 D0 2C 03 0E 00 8E  80 03 0F 00 8E 80 03 10  ...,............
2CC0: 00 8E 80 03 11 00 8E 80  03 12 00 8E 80 01 D0 2C  ...............,
2CD0: 01 8D 2F 02 01 00 3A 80  80 F3 2C 03 0E 00 90 80  ../...:...,.....
2CE0: 03 0F 00 90 80 03 10 00  90 80 1A 57 1E 1A 77 1E  ...........W..w.
2CF0: 01 8D 2F 02 01 00 3B 80  80 17 2D 03 0E 00 91 80  ../...;...-.....
2D00: 03 0F 00 91 80 03 10 00  91 80 03 11 00 91 80 03  ................
2D10: 12 00 91 80 01 8D 2F 02  01 00 43 80 80 30 2D 03  ....../...C..0-.
2D20: 0F 00 92 80 1A 37 1E 1A  57 1E 1A 77 1E 01 8D 2F  .....7..W..w.../
2D30: 02 01 00 40 80 80 49 2D  03 0F 00 93 80 1A 37 1E  ...@..I-......7.
2D40: 1A 57 1E 1A 77 1E 01 8D  2F 02 01 00 3C 80 80 6D  .W..w.../...<..m
2D50: 2D 03 0E 00 4E 80 03 0F  00 4E 80 03 10 00 4E 80  -...N....N....N.
2D60: 03 11 00 4E 80 03 12 00  4E 80 01 8D 2F 02 01 00  ...N....N.../...
2D70: 42 80 80 86 2D 03 0F 00  94 80 1A 37 1E 1A 57 1E  B...-......7..W.
2D80: 1A 77 1E 01 8D 2F 02 01  00 41 80 80 9F 2D 03 0F  .w.../...A...-..
2D90: 00 95 80 1A 37 1E 1A 57  1E 1A 77 1E 01 8D 2F 02  ....7..W..w.../.
2DA0: 01 00 47 80 80 B8 2D 03  0F 00 96 80 1A 37 1E 1A  ..G...-......7..
2DB0: 57 1E 1A 77 1E 01 8D 2F  02 01 00 97 80 80 D1 2D  W..w.../.......-
2DC0: 03 0F 00 98 80 1A 37 1E  1A 57 1E 1A 77 1E 01 8D  ......7..W..w...
2DD0: 2F 02 01 00 3D 80 80 8A  2E 02 0C 00 05 80 80 EE  /...=...........
2DE0: 2D 03 0F 00 99 80 03 11  00 4B 80 01 81 2E 02 0C  -........K......
2DF0: 00 07 80 80 03 2E 03 0F  00 9A 80 03 11 00 4C 80  ..............L.
2E00: 01 81 2E 02 0C 00 09 80  80 18 2E 03 0F 00 99 80  ................
2E10: 03 11 00 4B 80 01 81 2E  02 0C 00 0B 80 80 2D 2E  ...K..........-.
2E20: 03 0F 00 9A 80 03 11 00  4C 80 01 81 2E 02 0C 00  ........L.......
2E30: 0D 80 80 42 2E 03 0F 00  99 80 03 11 00 4B 80 01  ...B.........K..
2E40: 81 2E 02 0C 00 0F 80 80  57 2E 03 0F 00 9A 80 03  ........W.......
2E50: 11 00 4C 80 01 81 2E 02  0C 00 11 80 80 6C 2E 03  ..L..........l..
2E60: 0F 00 9A 80 03 11 00 4C  80 01 81 2E 02 0C 00 13  .......L........
2E70: 80 80 81 2E 03 0F 00 99  80 03 11 00 4B 80 01 81  ............K...
2E80: 2E 1A 37 1E 1A 77 1E 01  8D 2F 02 01 00 28 80 80  ..7..w.../...(..
2E90: 8D 2F 02 0C 00 05 80 80  B1 2E 03 0F 00 9B 80 03  ./..............
2EA0: 10 00 9B 80 03 11 00 9B  80 03 12 00 9B 80 01 8A  ................
2EB0: 2F 02 0C 00 07 80 80 D0  2E 03 0F 00 9C 80 03 10  /...............
2EC0: 00 9C 80 03 11 00 9C 80  03 12 00 9C 80 01 8A 2F  .............../
2ED0: 02 0C 00 09 80 80 EF 2E  03 0F 00 9B 80 03 10 00  ................
2EE0: 9B 80 03 11 00 9B 80 03  12 00 9B 80 01 8A 2F 02  ............../.
2EF0: 0C 00 0B 80 80 0E 2F 03  0F 00 9C 80 03 10 00 9C  ....../.........
2F00: 80 03 11 00 9C 80 03 12  00 9C 80 01 8A 2F 02 0C  ............./..
2F10: 00 0D 80 80 2D 2F 03 0F  00 9B 80 03 10 00 9B 80  ....-/..........
2F20: 03 11 00 9B 80 03 12 00  9B 80 01 8A 2F 02 0C 00  ............/...
2F30: 0F 80 80 4C 2F 03 0F 00  9C 80 03 10 00 9C 80 03  ...L/...........
2F40: 11 00 9C 80 03 12 00 9C  80 01 8A 2F 02 0C 00 11  .........../....
2F50: 80 80 6B 2F 03 0F 00 9C  80 03 10 00 9C 80 03 11  ..k/............
2F60: 00 9C 80 03 12 00 9C 80  01 8A 2F 02 0C 00 13 80  ........../.....
2F70: 80 8A 2F 03 0F 00 9B 80  03 10 00 9B 80 03 11 00  ../.............
2F80: 9B 80 03 12 00 9B 80 01  8A 2F 01 8D 2F 01 90 2F  ........./../../
2F90: 1B 02 09 00 07 80 80 3C  30 02 17 00 05 80 80 A9  .......<0.......
2FA0: 2F 03 0E 00 05 80 01 39  30 02 17 00 07 80 80 B9  /......90.......
2FB0: 2F 03 0E 00 07 80 01 39  30 02 17 00 09 80 80 C9  /......90.......
2FC0: 2F 03 0E 00 9D 80 01 39  30 02 17 00 0B 80 80 D9  /......90.......
2FD0: 2F 03 0E 00 9E 80 01 39  30 02 17 00 0D 80 80 E9  /......90.......
2FE0: 2F 03 0E 00 0F 80 01 39  30 02 17 00 0F 80 80 F9  /......90.......
2FF0: 2F 03 0E 00 9F 80 01 39  30 02 17 00 11 80 80 09  /......90.......
3000: 30 03 0E 00 13 80 01 39  30 02 17 00 13 80 80 19  0......90.......
3010: 30 03 0E 00 38 80 01 39  30 02 17 00 39 80 80 29  0...8..90...9..)
3020: 30 03 0E 00 A0 80 01 39  30 02 17 00 3A 80 80 39  0......90...:..9
3030: 30 03 0E 00 00 80 01 39  30 01 95 37 02 09 00 09  0......90..7....
3040: 80 80 E7 30 02 17 00 05  80 80 54 30 03 0E 00 05  ...0......T0....
3050: 80 01 E4 30 02 17 00 07  80 80 64 30 03 0E 00 97  ...0......d0....
3060: 80 01 E4 30 02 17 00 09  80 80 74 30 03 0E 00 09  ...0......t0....
3070: 80 01 E4 30 02 17 00 0B  80 80 84 30 03 0E 00 3A  ...0.......0...:
3080: 80 01 E4 30 02 17 00 0D  80 80 94 30 03 0E 00 A1  ...0.......0....
3090: 80 01 E4 30 02 17 00 0F  80 80 A4 30 03 0E 00 9E  ...0.......0....
30A0: 80 01 E4 30 02 17 00 11  80 80 B4 30 03 0E 00 3F  ...0.......0...?
30B0: 80 01 E4 30 02 17 00 13  80 80 C4 30 03 0E 00 A2  ...0.......0....
30C0: 80 01 E4 30 02 17 00 39  80 80 D4 30 03 0E 00 A3  ...0...9...0....
30D0: 80 01 E4 30 02 17 00 3A  80 80 E4 30 03 0E 00 A4  ...0...:...0....
30E0: 80 01 E4 30 01 95 37 02  09 00 0B 80 80 92 31 02  ...0..7.......1.
30F0: 17 00 05 80 80 FF 30 03  0E 00 05 80 01 8F 31 02  ......0.......1.
3100: 17 00 07 80 80 0F 31 03  0E 00 0F 80 01 8F 31 02  ......1.......1.
3110: 17 00 09 80 80 1F 31 03  0E 00 47 80 01 8F 31 02  ......1...G...1.
3120: 17 00 0B 80 80 2F 31 03  0E 00 46 80 01 8F 31 02  ...../1...F...1.
3130: 17 00 0D 80 80 3F 31 03  0E 00 A5 80 01 8F 31 02  .....?1.......1.
3140: 17 00 0F 80 80 4F 31 03  0E 00 A3 80 01 8F 31 02  .....O1.......1.
3150: 17 00 11 80 80 5F 31 03  0E 00 A6 80 01 8F 31 02  ....._1.......1.
3160: 17 00 13 80 80 6F 31 03  0E 00 A7 80 01 8F 31 02  .....o1.......1.
3170: 17 00 39 80 80 7F 31 03  0E 00 A8 80 01 8F 31 02  ..9...1.......1.
3180: 17 00 3A 80 80 8F 31 03  0E 00 A9 80 01 8F 31 01  ..:...1.......1.
3190: 95 37 02 09 00 0D 80 80  3D 32 02 17 00 05 80 80  .7......=2......
31A0: AA 31 03 0E 00 05 80 01  3A 32 02 17 00 07 80 80  .1......:2......
31B0: BA 31 03 0E 00 73 80 01  3A 32 02 17 00 09 80 80  .1...s..:2......
31C0: CA 31 03 0E 00 3D 80 01  3A 32 02 17 00 0B 80 80  .1...=..:2......
31D0: DA 31 03 0E 00 AA 80 01  3A 32 02 17 00 0D 80 80  .1......:2......
31E0: EA 31 03 0E 00 AB 80 01  3A 32 02 17 00 0F 80 80  .1......:2......
31F0: FA 31 03 0E 00 40 80 01  3A 32 02 17 00 11 80 80  .1...@..:2......
3200: 0A 32 03 0E 00 19 80 01  3A 32 02 17 00 13 80 80  .2......:2......
3210: 1A 32 03 0E 00 0F 80 01  3A 32 02 17 00 39 80 80  .2......:2...9..
3220: 2A 32 03 0E 00 44 80 01  3A 32 02 17 00 3A 80 80  *2...D..:2...:..
3230: 3A 32 03 0E 00 AC 80 01  3A 32 01 95 37 02 09 00  :2......:2..7...
3240: 0F 80 80 E8 32 02 17 00  05 80 80 55 32 03 0E 00  ....2......U2...
3250: 05 80 01 E5 32 02 17 00  07 80 80 65 32 03 0E 00  ....2......e2...
3260: 3E 80 01 E5 32 02 17 00  09 80 80 75 32 03 0E 00  >...2......u2...
3270: 9E 80 01 E5 32 02 17 00  0B 80 80 85 32 03 0E 00  ....2.......2...
3280: AD 80 01 E5 32 02 17 00  0D 80 80 95 32 03 0E 00  ....2.......2...
3290: 28 80 01 E5 32 02 17 00  0F 80 80 A5 32 03 0E 00  (...2.......2...
32A0: 3F 80 01 E5 32 02 17 00  11 80 80 B5 32 03 0E 00  ?...2.......2...
32B0: 0F 80 01 E5 32 02 17 00  13 80 80 C5 32 03 0E 00  ....2.......2...
32C0: 3C 80 01 E5 32 02 17 00  39 80 80 D5 32 03 0E 00  <...2...9...2...
32D0: AE 80 01 E5 32 02 17 00  3A 80 80 E5 32 03 0E 00  ....2...:...2...
32E0: A9 80 01 E5 32 01 95 37  02 09 00 11 80 80 93 33  ....2..7.......3
32F0: 02 17 00 05 80 80 00 33  03 0E 00 05 80 01 90 33  .......3.......3
3300: 02 17 00 07 80 80 10 33  03 0E 00 AF 80 01 90 33  .......3.......3
3310: 02 17 00 09 80 80 20 33  03 0E 00 48 80 01 90 33  ...... 3...H...3
3320: 02 17 00 0B 80 80 30 33  03 0E 00 A1 80 01 90 33  ......03.......3
3330: 02 17 00 0D 80 80 40 33  03 0E 00 B0 80 01 90 33  ......@3.......3
3340: 02 17 00 0F 80 80 50 33  03 0E 00 AD 80 01 90 33  ......P3.......3
3350: 02 17 00 11 80 80 60 33  03 0E 00 B1 80 01 90 33  ......`3.......3
3360: 02 17 00 13 80 80 70 33  03 0E 00 3D 80 01 90 33  ......p3...=...3
3370: 02 17 00 39 80 80 80 33  03 0E 00 0D 80 01 90 33  ...9...3.......3
3380: 02 17 00 3A 80 80 90 33  03 0E 00 AC 80 01 90 33  ...:...3.......3
3390: 01 95 37 02 09 00 13 80  80 3E 34 02 17 00 05 80  ..7......>4.....
33A0: 80 AB 33 03 0E 00 05 80  01 3B 34 02 17 00 07 80  ..3......;4.....
33B0: 80 BB 33 03 0E 00 B2 80  01 3B 34 02 17 00 09 80  ..3......;4.....
33C0: 80 CB 33 03 0E 00 28 80  01 3B 34 02 17 00 0B 80  ..3...(..;4.....
33D0: 80 DB 33 03 0E 00 3E 80  01 3B 34 02 17 00 0D 80  ..3...>..;4.....
33E0: 80 EB 33 03 0E 00 AA 80  01 3B 34 02 17 00 0F 80  ..3......;4.....
33F0: 80 FB 33 03 0E 00 3C 80  01 3B 34 02 17 00 11 80  ..3...<..;4.....
3400: 80 0B 34 03 0E 00 9E 80  01 3B 34 02 17 00 13 80  ..4......;4.....
3410: 80 1B 34 03 0E 00 48 80  01 3B 34 02 17 00 39 80  ..4...H..;4...9.
3420: 80 2B 34 03 0E 00 B3 80  01 3B 34 02 17 00 3A 80  .+4......;4...:.
3430: 80 3B 34 03 0E 00 A9 80  01 3B 34 01 95 37 02 09  .;4......;4..7..
3440: 00 39 80 80 E9 34 02 17  00 05 80 80 56 34 03 0E  .9...4......V4..
3450: 00 05 80 01 E6 34 02 17  00 07 80 80 66 34 03 0E  .....4......f4..
3460: 00 B4 80 01 E6 34 02 17  00 09 80 80 76 34 03 0E  .....4......v4..
3470: 00 41 80 01 E6 34 02 17  00 0B 80 80 86 34 03 0E  .A...4.......4..
3480: 00 3D 80 01 E6 34 02 17  00 0D 80 80 96 34 03 0E  .=...4.......4..
3490: 00 9E 80 01 E6 34 02 17  00 0F 80 80 A6 34 03 0E  .....4.......4..
34A0: 00 3E 80 01 E6 34 02 17  00 11 80 80 B6 34 03 0E  .>...4.......4..
34B0: 00 AA 80 01 E6 34 02 17  00 13 80 80 C6 34 03 0E  .....4.......4..
34C0: 00 13 80 01 E6 34 02 17  00 39 80 80 D6 34 03 0E  .....4...9...4..
34D0: 00 28 80 01 E6 34 02 17  00 3A 80 80 E6 34 03 0E  .(...4...:...4..
34E0: 00 A4 80 01 E6 34 01 95  37 02 09 00 3A 80 80 94  .....4..7...:...
34F0: 35 02 17 00 05 80 80 01  35 03 0E 00 05 80 01 91  5.......5.......
3500: 35 02 17 00 07 80 80 11  35 03 0E 00 41 80 01 91  5.......5...A...
3510: 35 02 17 00 09 80 80 21  35 03 0E 00 73 80 01 91  5......!5...s...
3520: 35 02 17 00 0B 80 80 31  35 03 0E 00 AB 80 01 91  5......15.......
3530: 35 02 17 00 0D 80 80 41  35 03 0E 00 3D 80 01 91  5......A5...=...
3540: 35 02 17 00 0F 80 80 51  35 03 0E 00 AA 80 01 91  5......Q5.......
3550: 35 02 17 00 11 80 80 61  35 03 0E 00 B5 80 01 91  5......a5.......
3560: 35 02 17 00 13 80 80 71  35 03 0E 00 40 80 01 91  5......q5...@...
3570: 35 02 17 00 39 80 80 81  35 03 0E 00 B6 80 01 91  5...9...5.......
3580: 35 02 17 00 3A 80 80 91  35 03 0E 00 AC 80 01 91  5...:...5.......
3590: 35 01 95 37 02 09 00 3B  80 80 3F 36 02 17 00 05  5..7...;..?6....
35A0: 80 80 AC 35 03 0E 00 05  80 01 3C 36 02 17 00 07  ...5......<6....
35B0: 80 80 BC 35 03 0E 00 11  80 01 3C 36 02 17 00 09  ...5......<6....
35C0: 80 80 CC 35 03 0E 00 AF  80 01 3C 36 02 17 00 0B  ...5......<6....
35D0: 80 80 DC 35 03 0E 00 AA  80 01 3C 36 02 17 00 0D  ...5......<6....
35E0: 80 80 EC 35 03 0E 00 9E  80 01 3C 36 02 17 00 0F  ...5......<6....
35F0: 80 80 FC 35 03 0E 00 0D  80 01 3C 36 02 17 00 11  ...5......<6....
3600: 80 80 0C 36 03 0E 00 3D  80 01 3C 36 02 17 00 13  ...6...=..<6....
3610: 80 80 1C 36 03 0E 00 B0  80 01 3C 36 02 17 00 39  ...6......<6...9
3620: 80 80 2C 36 03 0E 00 B7  80 01 3C 36 02 17 00 3A  ..,6......<6...:
3630: 80 80 3C 36 03 0E 00 A4  80 01 3C 36 01 95 37 02  ..<6......<6..7.
3640: 09 00 43 80 80 EA 36 02  17 00 05 80 80 57 36 03  ..C...6......W6.
3650: 0E 00 05 80 01 E7 36 02  17 00 07 80 80 67 36 03  ......6......g6.
3660: 0E 00 9E 80 01 E7 36 02  17 00 09 80 80 77 36 03  ......6......w6.
3670: 0E 00 AB 80 01 E7 36 02  17 00 0B 80 80 87 36 03  ......6.......6.
3680: 0E 00 0F 80 01 E7 36 02  17 00 0D 80 80 97 36 03  ......6.......6.
3690: 0E 00 A7 80 01 E7 36 02  17 00 0F 80 80 A7 36 03  ......6.......6.
36A0: 0E 00 AD 80 01 E7 36 02  17 00 11 80 80 B7 36 03  ......6.......6.
36B0: 0E 00 B3 80 01 E7 36 02  17 00 13 80 80 C7 36 03  ......6.......6.
36C0: 0E 00 46 80 01 E7 36 02  17 00 39 80 80 D7 36 03  ..F...6...9...6.
36D0: 0E 00 B8 80 01 E7 36 02  17 00 3A 80 80 E7 36 03  ......6...:...6.
36E0: 0E 00 00 80 01 E7 36 01  95 37 02 09 00 40 80 80  ......6..7...@..
36F0: 95 37 02 17 00 05 80 80  02 37 03 0E 00 05 80 01  .7.......7......
3700: 92 37 02 17 00 07 80 80  12 37 03 0E 00 42 80 01  .7.......7...B..
3710: 92 37 02 17 00 09 80 80  22 37 03 0E 00 40 80 01  .7......"7...@..
