# 17780799 - Vauderame

## Common Data

| Field            | Value                 |
|------------------|-----------------------|
| Zone             | Lower Jeuno (ID: 245) |
| Block Size       | 840 bytes             |
| Total Events     | 42                    |
| References Count | 33                    |

## List of Events

| Event ID                   | Entrypoint   |   Size |   Instructions |
|----------------------------|--------------|--------|----------------|
| [65535](#event-65535)      | 0x0000       |      1 |              1 |
| [65535.1](#event-655351)   | 0x0001       |     16 |              2 |
| [65535.2](#event-655352)   | 0x0011       |     22 |              4 |
| [65535.3](#event-655353)   | 0x0027       |     16 |              2 |
| [65535.4](#event-655354)   | 0x0037       |     14 |              2 |
| [65535.5](#event-655355)   | 0x0045       |     16 |              2 |
| [65535.6](#event-655356)   | 0x0055       |     14 |              2 |
| [65535.7](#event-655357)   | 0x0063       |     16 |              2 |
| [65535.8](#event-655358)   | 0x0073       |     14 |              2 |
| [65535.9](#event-655359)   | 0x0081       |     16 |              2 |
| [65535.10](#event-6553510) | 0x0091       |     14 |              2 |
| [65535.11](#event-6553511) | 0x009F       |     16 |              2 |
| [65535.12](#event-6553512) | 0x00AF       |     14 |              2 |
| [65535.13](#event-6553513) | 0x00BD       |     16 |              2 |
| [65535.14](#event-6553514) | 0x00CD       |     14 |              2 |
| [65535.15](#event-6553515) | 0x00DB       |     16 |              2 |
| [65535.16](#event-6553516) | 0x00EB       |     14 |              2 |
| [65535.17](#event-6553517) | 0x00F9       |     16 |              2 |
| [65535.18](#event-6553518) | 0x0109       |     14 |              2 |
| [65535.19](#event-6553519) | 0x0117       |      9 |              3 |
| [65535.20](#event-6553520) | 0x0120       |     10 |              2 |
| [65535.21](#event-6553521) | 0x012A       |     31 |              9 |
| [65535.22](#event-6553522) | 0x0149       |     14 |              4 |
| [10021](#event-10021)      | 0x0157       |      3 |              2 |
| [65535.23](#event-6553523) | 0x015A       |      5 |              3 |
| [65535.24](#event-6553524) | 0x015F       |     19 |              5 |
| [65535.25](#event-6553525) | 0x0172       |     19 |              5 |
| [65535.26](#event-6553526) | 0x0185       |      5 |              3 |
| [65535.27](#event-6553527) | 0x018A       |      5 |              3 |
| [65535.28](#event-6553528) | 0x018F       |     19 |              5 |
| [65535.29](#event-6553529) | 0x01A2       |     17 |              5 |
| [65535.30](#event-6553530) | 0x01B3       |      9 |              5 |
| [65535.31](#event-6553531) | 0x01BC       |      5 |              3 |
| [65535.32](#event-6553532) | 0x01C1       |      5 |              3 |
| [65535.33](#event-6553533) | 0x01C6       |      5 |              3 |
| [65535.34](#event-6553534) | 0x01CB       |      5 |              3 |
| [65535.35](#event-6553535) | 0x01D0       |      9 |              5 |
| [10022](#event-10022)      | 0x01D9       |      3 |              2 |
| [65535.36](#event-6553536) | 0x01DC       |     19 |              5 |
| [65535.37](#event-6553537) | 0x01EF       |      5 |              3 |
| [65535.38](#event-6553538) | 0x01F4       |     12 |              4 |
| [65535.39](#event-6553539) | 0x0200       |     12 |              4 |

## DAT References (imed_data)

|   Index | Hex Value   |   Dec Value |
|---------|-------------|-------------|
|       0 | 0x0014      |          20 |
|       1 | 0x001E      |          30 |
|       2 | 0x0015      |          21 |
|       3 | 0x566A      |       22122 |
|       4 | 0x0C6D      |        3181 |
|       5 | 0xFFFFFF9C  |  4294967196 |
|       6 | 0x0900      |        2304 |
|       7 | 0x000D      |          13 |
|       8 | 0x5DE2      |       24034 |
|       9 | 0x07F0      |        2032 |
|      10 | 0xFFFFFF9B  |  4294967195 |
|      11 | 0x5DB9      |       23993 |
|      12 | 0x0708      |        1800 |
|      13 | 0x1EFC      |        7932 |
|      14 | 0x1EFE      |        7934 |
|      15 | 0x1F04      |        7940 |
|      16 | 0x1F05      |        7941 |
|      17 | 0x1F06      |        7942 |
|      18 | 0x1F07      |        7943 |
|      19 | 0x0006      |           6 |
|      20 | 0x1F09      |        7945 |
|      21 | 0x1F0C      |        7948 |
|      22 | 0x1F0D      |        7949 |
|      23 | 0x1F0E      |        7950 |
|      24 | 0x1F0F      |        7951 |
|      25 | 0x1F10      |        7952 |
|      26 | 0x1F11      |        7953 |
|      27 | 0x1F12      |        7954 |
|      28 | 0x1F13      |        7955 |
|      29 | 0x1F16      |        7958 |
|      30 | 0x1F18      |        7960 |
|      31 | 0x1F1A      |        7962 |
|      32 | 0x1F1B      |        7963 |

## String References

- **7932**: Well, ladies and gentlemen, are we all here? Allow me to introduce myself. I am Vauderame.
- **7934**: Firstly, I wonder if you have heard of the group known as Atarefaunet's band?
- **7940**: It would seem the veterans among you are well-versed in thieving history.
- **7941**: During the Great War, the leader of the band, Atarefaunet, was killed by a traitor and the rest of the members scattered to the winds.
- **7942**: However, the Tenshodo has managed to divine the current whereabouts of the remaining members.
- **7943**: The task I have called you here for today is to deliver a $3 to each of the thieves of Atarefaunet's band.
- **7945**: No, of course not. What could thieves of twenty years ago accomplish now?
- **7948**: ...That is the main point of the message in the $3.
- **7949**: However, it is not certain that they will just meekly sign the papers. My job is to make certain these brigands follow the will of the Tenshodo.
- **7950**: And that is where you come in. Use your knowledge and talents to get those signatures and bring them back here to me.
- **7951**: I will now hand each of you a sealed envelope. Seek out the member whose name is revealed therein.
- **7952**: Lastly, it is against thieving etiquette to sneak a look at the members assigned to people other than yourself. As I'm sure you are aware, too much knowledge is a dangerous thing in this business...
- **7953**: Now, please come to me one at a time to receive your envelope.
- **7954**: You are the adventurer thief <Player>?
- **7955**: Since you are an adventurer, I will give you the member who requires the most muscle to deal with. Go and meet with the Galka staying at the inn located in the town of Selbina.
- **7958**: It appears the Galka gave you some trouble, as I expected. Your face tells of trying times.
- **7960**: Ah, Nanaa Mihgo, that makes everyone.
- **7962**: I thank you all for flawlessly completing the task I set.
- **7963**: As a reward, I will give each of you a weapon designed specifically for thieves. Please come to me one at a time.

## Events

### Event 65535

#### Metadata

| Field        | Value   |
|--------------|---------|
| Entrypoint   | 0x0000  |
| Data Size    | 1 bytes |
| Instructions | 1       |

```
      00 01 02 03 04 05 06 07  08 09 0A 0B 0C 0D 0E 0F
      -- -- -- -- -- -- -- --  -- -- -- -- -- -- -- --
0000: 00                                                .               
```

#### Opcodes

```
  0: 0x0000 [0x00] END_REQSTACK()
```

### Event 65535.1

#### Metadata

| Field        | Value    |
|--------------|----------|
| Entrypoint   | 0x0001   |
| Data Size    | 16 bytes |
| Instructions | 2        |

```
      00 01 02 03 04 05 06 07  08 09 0A 0B 0C 0D 0E 0F
      -- -- -- -- -- -- -- --  -- -- -- -- -- -- -- --
0000:    66 00 80 F8 FF FF 7F  F8 FF FF 7F 74 6C 6B 30   f..........tlk0
0010: 00                                                .               
```

#### Opcodes

```
  0: 0x0001 [0x66] LOAD_EXT_SCHEDULER_MAIN: Load scheduler "tlk0" with entities [EventEntity, EventEntity], work=20*
  1: 0x0010 [0x00] END_REQSTACK()
```

### Event 65535.2

#### Metadata

| Field        | Value    |
|--------------|----------|
| Entrypoint   | 0x0011   |
| Data Size    | 22 bytes |
| Instructions | 4        |

```
      00 01 02 03 04 05 06 07  08 09 0A 0B 0C 0D 0E 0F
      -- -- -- -- -- -- -- --  -- -- -- -- -- -- -- --
0010:    53 F8 FF FF 7F F8 FF  FF 7F 74 6C 6B 30 5E 69   S........tlk0^i
0020: 64 6C 30 1C 01 80 00                              dl0....         
```

#### Opcodes

```
  0: 0x0011 [0x53] WAIT_SCHEDULER_TASK: Wait for scheduler "tlk0" with entities [EventEntity, EventEntity]
  1: 0x001E [0x5E] EventEntity goes idle (kills current action) (animation: "idl0")
  2: 0x0023 [0x1C] WAIT(30* ticks)
  3: 0x0026 [0x00] END_REQSTACK()
```

### Event 65535.3

#### Metadata

| Field        | Value    |
|--------------|----------|
| Entrypoint   | 0x0027   |
| Data Size    | 16 bytes |
| Instructions | 2        |

```
      00 01 02 03 04 05 06 07  08 09 0A 0B 0C 0D 0E 0F
      -- -- -- -- -- -- -- --  -- -- -- -- -- -- -- --
0020:                      66  00 80 F8 FF FF 7F F8 FF         f........
0030: FF 7F 74 68 6B 31 00                              ..thk1.         
```

#### Opcodes

```
  0: 0x0027 [0x66] LOAD_EXT_SCHEDULER_MAIN: Load scheduler "thk1" with entities [EventEntity, EventEntity], work=20*
  1: 0x0036 [0x00] END_REQSTACK()
```

### Event 65535.4

#### Metadata

| Field        | Value    |
|--------------|----------|
| Entrypoint   | 0x0037   |
| Data Size    | 14 bytes |
| Instructions | 2        |

```
      00 01 02 03 04 05 06 07  08 09 0A 0B 0C 0D 0E 0F
      -- -- -- -- -- -- -- --  -- -- -- -- -- -- -- --
0030:                      53  F8 FF FF 7F F8 FF FF 7F         S........
0040: 74 68 6B 31 00                                    thk1.           
```

#### Opcodes

```
  0: 0x0037 [0x53] WAIT_SCHEDULER_TASK: Wait for scheduler "thk1" with entities [EventEntity, EventEntity]
  1: 0x0044 [0x00] END_REQSTACK()
```

### Event 65535.5

#### Metadata

| Field        | Value    |
|--------------|----------|
| Entrypoint   | 0x0045   |
| Data Size    | 16 bytes |
| Instructions | 2        |

```
      00 01 02 03 04 05 06 07  08 09 0A 0B 0C 0D 0E 0F
      -- -- -- -- -- -- -- --  -- -- -- -- -- -- -- --
0040:                66 00 80  F8 FF FF 7F F8 FF FF 7F       f..........
0050: 74 68 6B 32 00                                    thk2.           
```

#### Opcodes

```
  0: 0x0045 [0x66] LOAD_EXT_SCHEDULER_MAIN: Load scheduler "thk2" with entities [EventEntity, EventEntity], work=20*
  1: 0x0054 [0x00] END_REQSTACK()
```

### Event 65535.6

#### Metadata

| Field        | Value    |
|--------------|----------|
| Entrypoint   | 0x0055   |
| Data Size    | 14 bytes |
| Instructions | 2        |

```
      00 01 02 03 04 05 06 07  08 09 0A 0B 0C 0D 0E 0F
      -- -- -- -- -- -- -- --  -- -- -- -- -- -- -- --
0050:                53 F8 FF  FF 7F F8 FF FF 7F 74 68       S........th
0060: 6B 32 00                                          k2.             
```

#### Opcodes

```
  0: 0x0055 [0x53] WAIT_SCHEDULER_TASK: Wait for scheduler "thk2" with entities [EventEntity, EventEntity]
  1: 0x0062 [0x00] END_REQSTACK()
```

### Event 65535.7

#### Metadata

| Field        | Value    |
|--------------|----------|
| Entrypoint   | 0x0063   |
| Data Size    | 16 bytes |
| Instructions | 2        |

```
      00 01 02 03 04 05 06 07  08 09 0A 0B 0C 0D 0E 0F
      -- -- -- -- -- -- -- --  -- -- -- -- -- -- -- --
0060:          66 00 80 F8 FF  FF 7F F8 FF FF 7F 70 61     f..........pa
0070: 73 30 00                                          s0.             
```

#### Opcodes

```
  0: 0x0063 [0x66] LOAD_EXT_SCHEDULER_MAIN: Load scheduler "pas0" with entities [EventEntity, EventEntity], work=20*
  1: 0x0072 [0x00] END_REQSTACK()
```

### Event 65535.8

#### Metadata

| Field        | Value    |
|--------------|----------|
| Entrypoint   | 0x0073   |
| Data Size    | 14 bytes |
| Instructions | 2        |

```
      00 01 02 03 04 05 06 07  08 09 0A 0B 0C 0D 0E 0F
      -- -- -- -- -- -- -- --  -- -- -- -- -- -- -- --
0070:          53 F8 FF FF 7F  F8 FF FF 7F 70 61 73 30     S........pas0
0080: 00                                                .               
```

#### Opcodes

```
  0: 0x0073 [0x53] WAIT_SCHEDULER_TASK: Wait for scheduler "pas0" with entities [EventEntity, EventEntity]
  1: 0x0080 [0x00] END_REQSTACK()
```

### Event 65535.9

#### Metadata

| Field        | Value    |
|--------------|----------|
| Entrypoint   | 0x0081   |
| Data Size    | 16 bytes |
| Instructions | 2        |

```
      00 01 02 03 04 05 06 07  08 09 0A 0B 0C 0D 0E 0F
      -- -- -- -- -- -- -- --  -- -- -- -- -- -- -- --
0080:    66 00 80 F8 FF FF 7F  F8 FF FF 7F 70 6F 69 31   f..........poi1
0090: 00                                                .               
```

#### Opcodes

```
  0: 0x0081 [0x66] LOAD_EXT_SCHEDULER_MAIN: Load scheduler "poi1" with entities [EventEntity, EventEntity], work=20*
  1: 0x0090 [0x00] END_REQSTACK()
```

### Event 65535.10

#### Metadata

| Field        | Value    |
|--------------|----------|
| Entrypoint   | 0x0091   |
| Data Size    | 14 bytes |
| Instructions | 2        |

```
      00 01 02 03 04 05 06 07  08 09 0A 0B 0C 0D 0E 0F
      -- -- -- -- -- -- -- --  -- -- -- -- -- -- -- --
0090:    53 F8 FF FF 7F F8 FF  FF 7F 70 6F 69 31 00      S........poi1. 
```

#### Opcodes

```
  0: 0x0091 [0x53] WAIT_SCHEDULER_TASK: Wait for scheduler "poi1" with entities [EventEntity, EventEntity]
  1: 0x009E [0x00] END_REQSTACK()
```

### Event 65535.11

#### Metadata

| Field        | Value    |
|--------------|----------|
| Entrypoint   | 0x009F   |
| Data Size    | 16 bytes |
| Instructions | 2        |

```
      00 01 02 03 04 05 06 07  08 09 0A 0B 0C 0D 0E 0F
      -- -- -- -- -- -- -- --  -- -- -- -- -- -- -- --
0090:                                               66                 f
00A0: 00 80 F8 FF FF 7F F8 FF  FF 7F 70 6F 69 32 00     ..........poi2. 
```

#### Opcodes

```
  0: 0x009F [0x66] LOAD_EXT_SCHEDULER_MAIN: Load scheduler "poi2" with entities [EventEntity, EventEntity], work=20*
  1: 0x00AE [0x00] END_REQSTACK()
```

### Event 65535.12

#### Metadata

| Field        | Value    |
|--------------|----------|
| Entrypoint   | 0x00AF   |
| Data Size    | 14 bytes |
| Instructions | 2        |

```
      00 01 02 03 04 05 06 07  08 09 0A 0B 0C 0D 0E 0F
      -- -- -- -- -- -- -- --  -- -- -- -- -- -- -- --
00A0:                                               53                 S
00B0: F8 FF FF 7F F8 FF FF 7F  70 6F 69 32 00           ........poi2.   
```

#### Opcodes

```
  0: 0x00AF [0x53] WAIT_SCHEDULER_TASK: Wait for scheduler "poi2" with entities [EventEntity, EventEntity]
  1: 0x00BC [0x00] END_REQSTACK()
```

### Event 65535.13

#### Metadata

| Field        | Value    |
|--------------|----------|
| Entrypoint   | 0x00BD   |
| Data Size    | 16 bytes |
| Instructions | 2        |

```
      00 01 02 03 04 05 06 07  08 09 0A 0B 0C 0D 0E 0F
      -- -- -- -- -- -- -- --  -- -- -- -- -- -- -- --
00B0:                                         66 02 80               f..
00C0: F8 FF FF 7F F8 FF FF 7F  70 6F 69 30 00           ........poi0.   
```

#### Opcodes

```
  0: 0x00BD [0x66] LOAD_EXT_SCHEDULER_MAIN: Load scheduler "poi0" with entities [EventEntity, EventEntity], work=21*
  1: 0x00CC [0x00] END_REQSTACK()
```

### Event 65535.14

#### Metadata

| Field        | Value    |
|--------------|----------|
| Entrypoint   | 0x00CD   |
| Data Size    | 14 bytes |
| Instructions | 2        |

```
      00 01 02 03 04 05 06 07  08 09 0A 0B 0C 0D 0E 0F
      -- -- -- -- -- -- -- --  -- -- -- -- -- -- -- --
00C0:                                         53 F8 FF               S..
00D0: FF 7F F8 FF FF 7F 70 6F  69 30 00                 ......poi0.     
```

#### Opcodes

```
  0: 0x00CD [0x53] WAIT_SCHEDULER_TASK: Wait for scheduler "poi0" with entities [EventEntity, EventEntity]
  1: 0x00DA [0x00] END_REQSTACK()
```

### Event 65535.15

#### Metadata

| Field        | Value    |
|--------------|----------|
| Entrypoint   | 0x00DB   |
| Data Size    | 16 bytes |
| Instructions | 2        |

```
      00 01 02 03 04 05 06 07  08 09 0A 0B 0C 0D 0E 0F
      -- -- -- -- -- -- -- --  -- -- -- -- -- -- -- --
00D0:                                   66 02 80 F8 FF             f....
00E0: FF 7F F8 FF FF 7F 70 6F  69 31 00                 ......poi1.     
```

#### Opcodes

```
  0: 0x00DB [0x66] LOAD_EXT_SCHEDULER_MAIN: Load scheduler "poi1" with entities [EventEntity, EventEntity], work=21*
  1: 0x00EA [0x00] END_REQSTACK()
```

### Event 65535.16

#### Metadata

| Field        | Value    |
|--------------|----------|
| Entrypoint   | 0x00EB   |
| Data Size    | 14 bytes |
| Instructions | 2        |

```
      00 01 02 03 04 05 06 07  08 09 0A 0B 0C 0D 0E 0F
      -- -- -- -- -- -- -- --  -- -- -- -- -- -- -- --
00E0:                                   53 F8 FF FF 7F             S....
00F0: F8 FF FF 7F 70 6F 69 31  00                       ....poi1.       
```

#### Opcodes

```
  0: 0x00EB [0x53] WAIT_SCHEDULER_TASK: Wait for scheduler "poi1" with entities [EventEntity, EventEntity]
  1: 0x00F8 [0x00] END_REQSTACK()
```

### Event 65535.17

#### Metadata

| Field        | Value    |
|--------------|----------|
| Entrypoint   | 0x00F9   |
| Data Size    | 16 bytes |
| Instructions | 2        |

```
      00 01 02 03 04 05 06 07  08 09 0A 0B 0C 0D 0E 0F
      -- -- -- -- -- -- -- --  -- -- -- -- -- -- -- --
00F0:                             66 02 80 F8 FF FF 7F           f......
0100: F8 FF FF 7F 64 69 73 30  00                       ....dis0.       
```

#### Opcodes

```
  0: 0x00F9 [0x66] LOAD_EXT_SCHEDULER_MAIN: Load scheduler "dis0" with entities [EventEntity, EventEntity], work=21*
  1: 0x0108 [0x00] END_REQSTACK()
```

### Event 65535.18

#### Metadata

| Field        | Value    |
|--------------|----------|
| Entrypoint   | 0x0109   |
| Data Size    | 14 bytes |
| Instructions | 2        |

```
      00 01 02 03 04 05 06 07  08 09 0A 0B 0C 0D 0E 0F
      -- -- -- -- -- -- -- --  -- -- -- -- -- -- -- --
0100:                             53 F8 FF FF 7F F8 FF           S......
0110: FF 7F 64 69 73 30 00                              ..dis0.         
```

#### Opcodes

```
  0: 0x0109 [0x53] WAIT_SCHEDULER_TASK: Wait for scheduler "dis0" with entities [EventEntity, EventEntity]
  1: 0x0116 [0x00] END_REQSTACK()
```

### Event 65535.19

#### Metadata

| Field        | Value   |
|--------------|---------|
| Entrypoint   | 0x0117  |
| Data Size    | 9 bytes |
| Instructions | 3       |

```
      00 01 02 03 04 05 06 07  08 09 0A 0B 0C 0D 0E 0F
      -- -- -- -- -- -- -- --  -- -- -- -- -- -- -- --
0110:                      5E  69 64 6C 30 1C 01 80 00         ^idl0....
```

#### Opcodes

```
  0: 0x0117 [0x5E] EventEntity goes idle (kills current action) (animation: "idl0")
  1: 0x011C [0x1C] WAIT(30* ticks)
  2: 0x011F [0x00] END_REQSTACK()
```

### Event 65535.20

#### Metadata

| Field        | Value    |
|--------------|----------|
| Entrypoint   | 0x0120   |
| Data Size    | 10 bytes |
| Instructions | 2        |

```
      00 01 02 03 04 05 06 07  08 09 0A 0B 0C 0D 0E 0F
      -- -- -- -- -- -- -- --  -- -- -- -- -- -- -- --
0120: 37 03 80 04 80 05 80 06  80 00                    7.........      
```

#### Opcodes

```
  0: 0x0120 [0x37] UPDATE_EVENT_POSITION_AND_DIR: x=22.122*, z=3.181*, y=-0.100*, direction=202.5°*
  1: 0x0129 [0x00] END_REQSTACK()
```

### Event 65535.21

#### Metadata

| Field        | Value    |
|--------------|----------|
| Entrypoint   | 0x012A   |
| Data Size    | 31 bytes |
| Instructions | 9        |

```
      00 01 02 03 04 05 06 07  08 09 0A 0B 0C 0D 0E 0F
      -- -- -- -- -- -- -- --  -- -- -- -- -- -- -- --
0120:                                32 07 80 1F 00 08            2.....
0130: 80 09 80 0A 80 1F 01 1F  00 0B 80 0C 80 0A 80 1F  ................
0140: 01 1E F0 FF FF 7F 6F 70  00                       ......op.       
```

#### Opcodes

```
  0: 0x012A [0x32] ExtData[1]->MainSpeed = 13* * 0.1
  1: 0x012D [0x1F] MOVE_ENTITY: EventEntity moves to X=24.034*, Z=2.032*, Y=-0.101*
  2: 0x0135 [0x1F] MOVE_ENTITY: Update entity position (mode=1)
  3: 0x0137 [0x1F] MOVE_ENTITY: EventEntity moves to X=23.993*, Z=1.800*, Y=-0.101*
  4: 0x013F [0x1F] MOVE_ENTITY: Update entity position (mode=1)
  5: 0x0141 [0x1E] EventEntity looks at LocalPlayer and starts talking
  6: 0x0146 [0x6F] WAIT_FRAME_DELAY: Yield until WaitTime reaches zero
  7: 0x0147 [0x70] WAIT_ENTITY_RENDER_FLAG: Wait while EventEntity->Render.Flags3 bit 2 is set (cancel turn if not)
  8: 0x0148 [0x00] END_REQSTACK()
```

### Event 65535.22

#### Metadata

| Field        | Value    |
|--------------|----------|
| Entrypoint   | 0x0149   |
| Data Size    | 14 bytes |
| Instructions | 4        |

```
      00 01 02 03 04 05 06 07  08 09 0A 0B 0C 0D 0E 0F
      -- -- -- -- -- -- -- --  -- -- -- -- -- -- -- --
0140:                             32 07 80 1F 00 08 80           2......
0150: 09 80 0A 80 1F 01 00                              .......         
```

#### Opcodes

```
  0: 0x0149 [0x32] ExtData[1]->MainSpeed = 13* * 0.1
  1: 0x014C [0x1F] MOVE_ENTITY: EventEntity moves to X=24.034*, Z=2.032*, Y=-0.101*
  2: 0x0154 [0x1F] MOVE_ENTITY: Update entity position (mode=1)
  3: 0x0156 [0x00] END_REQSTACK()
```

### Event 10021

#### Metadata

| Field        | Value   |
|--------------|---------|
| Entrypoint   | 0x0157  |
| Data Size    | 3 bytes |
| Instructions | 2       |

```
      00 01 02 03 04 05 06 07  08 09 0A 0B 0C 0D 0E 0F
      -- -- -- -- -- -- -- --  -- -- -- -- -- -- -- --
0150:                      22  00 00                           "..      
```

#### Opcodes

```
  0: 0x0157 [0x22] ENTITY_HIDE_FLAG(enabled=0x00)
  1: 0x0159 [0x00] END_REQSTACK()
```

### Event 65535.23

#### Metadata

| Field        | Value   |
|--------------|---------|
| Entrypoint   | 0x015A  |
| Data Size    | 5 bytes |
| Instructions | 3       |

```
      00 01 02 03 04 05 06 07  08 09 0A 0B 0C 0D 0E 0F
      -- -- -- -- -- -- -- --  -- -- -- -- -- -- -- --
0150:                                1D 0D 80 23 00               ...#. 
```

#### Opcodes

```
  0: 0x015A [0x1D] PRINT_EVENT_MESSAGE(message_id=7932*)
    → "Well, ladies and gentlemen, are we all here? Allow me to introduce myself. I am Vauderame."
  1: 0x015D [0x23] WAIT_FOR_DIALOG_INTERACTION
  2: 0x015E [0x00] END_REQSTACK()
```

### Event 65535.24

#### Metadata

| Field        | Value    |
|--------------|----------|
| Entrypoint   | 0x015F   |
| Data Size    | 19 bytes |
| Instructions | 5        |

```
      00 01 02 03 04 05 06 07  08 09 0A 0B 0C 0D 0E 0F
      -- -- -- -- -- -- -- --  -- -- -- -- -- -- -- --
0150:                                               29                 )
0160: 08 3F 50 0F 01 01 1D 0E  80 23 29 08 3F 50 0F 01  .?P......#).?P..
0170: 02 00                                             ..              
```

#### Opcodes

```
  0: 0x015F [0x29] REQ_SET_WAIT(priority=0x08, entity_id=Vauderame (ID: 17780799/0x010F503F), tag_num=0x01)
  1: 0x0166 [0x1D] PRINT_EVENT_MESSAGE(message_id=7934*)
    → "Firstly, I wonder if you have heard of the group known as Atarefaunet's band?"
  2: 0x0169 [0x23] WAIT_FOR_DIALOG_INTERACTION
  3: 0x016A [0x29] REQ_SET_WAIT(priority=0x08, entity_id=Vauderame (ID: 17780799/0x010F503F), tag_num=0x02)
  4: 0x0171 [0x00] END_REQSTACK()
```

### Event 65535.25

#### Metadata

| Field        | Value    |
|--------------|----------|
| Entrypoint   | 0x0172   |
| Data Size    | 19 bytes |
| Instructions | 5        |

```
      00 01 02 03 04 05 06 07  08 09 0A 0B 0C 0D 0E 0F
      -- -- -- -- -- -- -- --  -- -- -- -- -- -- -- --
0170:       29 08 3F 50 0F 01  01 1D 0F 80 23 29 08 3F    ).?P......#).?
0180: 50 0F 01 02 00                                    P....           
```

#### Opcodes

```
  0: 0x0172 [0x29] REQ_SET_WAIT(priority=0x08, entity_id=Vauderame (ID: 17780799/0x010F503F), tag_num=0x01)
  1: 0x0179 [0x1D] PRINT_EVENT_MESSAGE(message_id=7940*)
    → "It would seem the veterans among you are well-versed in thieving history."
  2: 0x017C [0x23] WAIT_FOR_DIALOG_INTERACTION
  3: 0x017D [0x29] REQ_SET_WAIT(priority=0x08, entity_id=Vauderame (ID: 17780799/0x010F503F), tag_num=0x02)
  4: 0x0184 [0x00] END_REQSTACK()
```

### Event 65535.26

#### Metadata

| Field        | Value   |
|--------------|---------|
| Entrypoint   | 0x0185  |
| Data Size    | 5 bytes |
| Instructions | 3       |

```
      00 01 02 03 04 05 06 07  08 09 0A 0B 0C 0D 0E 0F
      -- -- -- -- -- -- -- --  -- -- -- -- -- -- -- --
0180:                1D 10 80  23 00                         ...#.      
```

#### Opcodes

```
  0: 0x0185 [0x1D] PRINT_EVENT_MESSAGE(message_id=7941*)
    → "During the Great War, the leader of the band, Atarefaunet, was killed by a traitor and the rest of the members scattered to the winds."
  1: 0x0188 [0x23] WAIT_FOR_DIALOG_INTERACTION
  2: 0x0189 [0x00] END_REQSTACK()
```

### Event 65535.27

#### Metadata

| Field        | Value   |
|--------------|---------|
| Entrypoint   | 0x018A  |
| Data Size    | 5 bytes |
| Instructions | 3       |

```
      00 01 02 03 04 05 06 07  08 09 0A 0B 0C 0D 0E 0F
      -- -- -- -- -- -- -- --  -- -- -- -- -- -- -- --
0180:                                1D 11 80 23 00               ...#. 
```

#### Opcodes

```
  0: 0x018A [0x1D] PRINT_EVENT_MESSAGE(message_id=7942*)
    → "However, the Tenshodo has managed to divine the current whereabouts of the remaining members."
  1: 0x018D [0x23] WAIT_FOR_DIALOG_INTERACTION
  2: 0x018E [0x00] END_REQSTACK()
```

### Event 65535.28

#### Metadata

| Field        | Value    |
|--------------|----------|
| Entrypoint   | 0x018F   |
| Data Size    | 19 bytes |
| Instructions | 5        |

```
      00 01 02 03 04 05 06 07  08 09 0A 0B 0C 0D 0E 0F
      -- -- -- -- -- -- -- --  -- -- -- -- -- -- -- --
0180:                                               29                 )
0190: 08 3F 50 0F 01 01 1D 12  80 23 29 08 3F 50 0F 01  .?P......#).?P..
01A0: 02 00                                             ..              
```

#### Opcodes

```
  0: 0x018F [0x29] REQ_SET_WAIT(priority=0x08, entity_id=Vauderame (ID: 17780799/0x010F503F), tag_num=0x01)
  1: 0x0196 [0x1D] PRINT_EVENT_MESSAGE(message_id=7943*)
    → "The task I have called you here for today is to deliver a $3 to each of the thieves of Atarefaunet's band."
  2: 0x0199 [0x23] WAIT_FOR_DIALOG_INTERACTION
  3: 0x019A [0x29] REQ_SET_WAIT(priority=0x08, entity_id=Vauderame (ID: 17780799/0x010F503F), tag_num=0x02)
  4: 0x01A1 [0x00] END_REQSTACK()
```

### Event 65535.29

#### Metadata

| Field        | Value    |
|--------------|----------|
| Entrypoint   | 0x01A2   |
| Data Size    | 17 bytes |
| Instructions | 5        |

```
      00 01 02 03 04 05 06 07  08 09 0A 0B 0C 0D 0E 0F
      -- -- -- -- -- -- -- --  -- -- -- -- -- -- -- --
01A0:       6E F8 FF FF 7F 13  80 99 F8 FF FF 7F 1D 14    n.............
01B0: 80 23 00                                          .#.             
```

#### Opcodes

```
  0: 0x01A2 [0x6E] EventEntity uses emote 6*
  1: 0x01A9 [0x99] Wait for EventEntity animation to complete
  2: 0x01AE [0x1D] PRINT_EVENT_MESSAGE(message_id=7945*)
    → "No, of course not. What could thieves of twenty years ago accomplish now?"
  3: 0x01B1 [0x23] WAIT_FOR_DIALOG_INTERACTION
  4: 0x01B2 [0x00] END_REQSTACK()
```

### Event 65535.30

#### Metadata

| Field        | Value   |
|--------------|---------|
| Entrypoint   | 0x01B3  |
| Data Size    | 9 bytes |
| Instructions | 5       |

```
      00 01 02 03 04 05 06 07  08 09 0A 0B 0C 0D 0E 0F
      -- -- -- -- -- -- -- --  -- -- -- -- -- -- -- --
01B0:          1D 15 80 23 1D  16 80 23 00                 ...#...#.    
```

#### Opcodes

```
  0: 0x01B3 [0x1D] PRINT_EVENT_MESSAGE(message_id=7948*)
    → "...That is the main point of the message in the $3."
  1: 0x01B6 [0x23] WAIT_FOR_DIALOG_INTERACTION
  2: 0x01B7 [0x1D] PRINT_EVENT_MESSAGE(message_id=7949*)
    → "However, it is not certain that they will just meekly sign the papers. My job is to make certain these brigands follow the will of the Tenshodo."
  3: 0x01BA [0x23] WAIT_FOR_DIALOG_INTERACTION
  4: 0x01BB [0x00] END_REQSTACK()
```

### Event 65535.31

#### Metadata

| Field        | Value   |
|--------------|---------|
| Entrypoint   | 0x01BC  |
| Data Size    | 5 bytes |
| Instructions | 3       |

```
      00 01 02 03 04 05 06 07  08 09 0A 0B 0C 0D 0E 0F
      -- -- -- -- -- -- -- --  -- -- -- -- -- -- -- --
01B0:                                      1D 17 80 23              ...#
01C0: 00                                                .               
```

#### Opcodes

```
  0: 0x01BC [0x1D] PRINT_EVENT_MESSAGE(message_id=7950*)
    → "And that is where you come in. Use your knowledge and talents to get those signatures and bring them back here to me."
  1: 0x01BF [0x23] WAIT_FOR_DIALOG_INTERACTION
  2: 0x01C0 [0x00] END_REQSTACK()
```

### Event 65535.32

#### Metadata

| Field        | Value   |
|--------------|---------|
| Entrypoint   | 0x01C1  |
| Data Size    | 5 bytes |
| Instructions | 3       |

```
      00 01 02 03 04 05 06 07  08 09 0A 0B 0C 0D 0E 0F
      -- -- -- -- -- -- -- --  -- -- -- -- -- -- -- --
01C0:    1D 18 80 23 00                                  ...#.          
```

#### Opcodes

```
  0: 0x01C1 [0x1D] PRINT_EVENT_MESSAGE(message_id=7951*)
    → "I will now hand each of you a sealed envelope. Seek out the member whose name is revealed therein."
  1: 0x01C4 [0x23] WAIT_FOR_DIALOG_INTERACTION
  2: 0x01C5 [0x00] END_REQSTACK()
```

### Event 65535.33

#### Metadata

| Field        | Value   |
|--------------|---------|
| Entrypoint   | 0x01C6  |
| Data Size    | 5 bytes |
| Instructions | 3       |

```
      00 01 02 03 04 05 06 07  08 09 0A 0B 0C 0D 0E 0F
      -- -- -- -- -- -- -- --  -- -- -- -- -- -- -- --
01C0:                   1D 19  80 23 00                       ...#.     
```

#### Opcodes

```
  0: 0x01C6 [0x1D] PRINT_EVENT_MESSAGE(message_id=7952*)
    → "Lastly, it is against thieving etiquette to sneak a look at the members assigned to people other than yourself. As I'm sure you are aware, too much knowledge is a dangerous thing in this business..."
  1: 0x01C9 [0x23] WAIT_FOR_DIALOG_INTERACTION
  2: 0x01CA [0x00] END_REQSTACK()
```

### Event 65535.34

#### Metadata

| Field        | Value   |
|--------------|---------|
| Entrypoint   | 0x01CB  |
| Data Size    | 5 bytes |
| Instructions | 3       |

```
      00 01 02 03 04 05 06 07  08 09 0A 0B 0C 0D 0E 0F
      -- -- -- -- -- -- -- --  -- -- -- -- -- -- -- --
01C0:                                   1D 1A 80 23 00             ...#.
```

#### Opcodes

```
  0: 0x01CB [0x1D] PRINT_EVENT_MESSAGE(message_id=7953*)
    → "Now, please come to me one at a time to receive your envelope."
  1: 0x01CE [0x23] WAIT_FOR_DIALOG_INTERACTION
  2: 0x01CF [0x00] END_REQSTACK()
```

### Event 65535.35

#### Metadata

| Field        | Value   |
|--------------|---------|
| Entrypoint   | 0x01D0  |
| Data Size    | 9 bytes |
| Instructions | 5       |

```
      00 01 02 03 04 05 06 07  08 09 0A 0B 0C 0D 0E 0F
      -- -- -- -- -- -- -- --  -- -- -- -- -- -- -- --
01D0: 1D 1B 80 23 1D 1C 80 23  00                       ...#...#.       
```

#### Opcodes

```
  0: 0x01D0 [0x1D] PRINT_EVENT_MESSAGE(message_id=7954*)
    → "You are the adventurer thief <Player>?"
  1: 0x01D3 [0x23] WAIT_FOR_DIALOG_INTERACTION
  2: 0x01D4 [0x1D] PRINT_EVENT_MESSAGE(message_id=7955*)
    → "Since you are an adventurer, I will give you the member who requires the most muscle to deal with. Go and meet with the Galka staying at the inn located in the town of Selbina."
  3: 0x01D7 [0x23] WAIT_FOR_DIALOG_INTERACTION
  4: 0x01D8 [0x00] END_REQSTACK()
```

### Event 10022

#### Metadata

| Field        | Value   |
|--------------|---------|
| Entrypoint   | 0x01D9  |
| Data Size    | 3 bytes |
| Instructions | 2       |

```
      00 01 02 03 04 05 06 07  08 09 0A 0B 0C 0D 0E 0F
      -- -- -- -- -- -- -- --  -- -- -- -- -- -- -- --
01D0:                             22 00 00                       "..    
```

#### Opcodes

```
  0: 0x01D9 [0x22] ENTITY_HIDE_FLAG(enabled=0x00)
  1: 0x01DB [0x00] END_REQSTACK()
```

### Event 65535.36

#### Metadata

| Field        | Value    |
|--------------|----------|
| Entrypoint   | 0x01DC   |
| Data Size    | 19 bytes |
| Instructions | 5        |

```
      00 01 02 03 04 05 06 07  08 09 0A 0B 0C 0D 0E 0F
      -- -- -- -- -- -- -- --  -- -- -- -- -- -- -- --
01D0:                                      29 08 3F 50              ).?P
01E0: 0F 01 01 1D 1D 80 23 29  08 3F 50 0F 01 02 00     ......#).?P.... 
```

#### Opcodes

```
  0: 0x01DC [0x29] REQ_SET_WAIT(priority=0x08, entity_id=Vauderame (ID: 17780799/0x010F503F), tag_num=0x01)
  1: 0x01E3 [0x1D] PRINT_EVENT_MESSAGE(message_id=7958*)
    → "It appears the Galka gave you some trouble, as I expected. Your face tells of trying times."
  2: 0x01E6 [0x23] WAIT_FOR_DIALOG_INTERACTION
  3: 0x01E7 [0x29] REQ_SET_WAIT(priority=0x08, entity_id=Vauderame (ID: 17780799/0x010F503F), tag_num=0x02)
  4: 0x01EE [0x00] END_REQSTACK()
```

### Event 65535.37

#### Metadata

| Field        | Value   |
|--------------|---------|
| Entrypoint   | 0x01EF  |
| Data Size    | 5 bytes |
| Instructions | 3       |

```
      00 01 02 03 04 05 06 07  08 09 0A 0B 0C 0D 0E 0F
      -- -- -- -- -- -- -- --  -- -- -- -- -- -- -- --
01E0:                                               1D                 .
01F0: 1E 80 23 00                                       ..#.            
```

#### Opcodes

```
  0: 0x01EF [0x1D] PRINT_EVENT_MESSAGE(message_id=7960*)
    → "Ah, Nanaa Mihgo, that makes everyone."
  1: 0x01F2 [0x23] WAIT_FOR_DIALOG_INTERACTION
  2: 0x01F3 [0x00] END_REQSTACK()
```

### Event 65535.38

#### Metadata

| Field        | Value    |
|--------------|----------|
| Entrypoint   | 0x01F4   |
| Data Size    | 12 bytes |
| Instructions | 4        |

```
      00 01 02 03 04 05 06 07  08 09 0A 0B 0C 0D 0E 0F
      -- -- -- -- -- -- -- --  -- -- -- -- -- -- -- --
01F0:             29 08 3F 50  0F 01 01 1D 1F 80 23 00      ).?P......#.
```

#### Opcodes

```
  0: 0x01F4 [0x29] REQ_SET_WAIT(priority=0x08, entity_id=Vauderame (ID: 17780799/0x010F503F), tag_num=0x01)
  1: 0x01FB [0x1D] PRINT_EVENT_MESSAGE(message_id=7962*)
    → "I thank you all for flawlessly completing the task I set."
  2: 0x01FE [0x23] WAIT_FOR_DIALOG_INTERACTION
  3: 0x01FF [0x00] END_REQSTACK()
```

### Event 65535.39

#### Metadata

| Field        | Value    |
|--------------|----------|
| Entrypoint   | 0x0200   |
| Data Size    | 12 bytes |
| Instructions | 4        |

```
      00 01 02 03 04 05 06 07  08 09 0A 0B 0C 0D 0E 0F
      -- -- -- -- -- -- -- --  -- -- -- -- -- -- -- --
0200: 1D 20 80 23 29 08 3F 50  0F 01 02 00              . .#).?P....    
```

#### Opcodes

```
  0: 0x0200 [0x1D] PRINT_EVENT_MESSAGE(message_id=7963*)
    → "As a reward, I will give each of you a weapon designed specifically for thieves. Please come to me one at a time."
  1: 0x0203 [0x23] WAIT_FOR_DIALOG_INTERACTION
  2: 0x0204 [0x29] REQ_SET_WAIT(priority=0x08, entity_id=Vauderame (ID: 17780799/0x010F503F), tag_num=0x02)
  3: 0x020B [0x00] END_REQSTACK()
```
