# 17780938

## Common Data

| Field            | Value                 |
|------------------|-----------------------|
| Zone             | Lower Jeuno (ID: 245) |
| Block Size       | 424 bytes             |
| Total Events     | 20                    |
| References Count | 8                     |

## List of Events

| Event ID                   | Entrypoint   |   Size |   Instructions |
|----------------------------|--------------|--------|----------------|
| [65535](#event-65535)      | 0x0000       |      1 |              1 |
| [10094](#event-10094)      | 0x0001       |      4 |              2 |
| [65535.1](#event-655351)   | 0x0005       |      4 |              2 |
| [65535.2](#event-655352)   | 0x0009       |     11 |              3 |
| [65535.3](#event-655353)   | 0x0014       |     16 |              2 |
| [65535.4](#event-655354)   | 0x0024       |     16 |              2 |
| [65535.5](#event-655355)   | 0x0034       |     16 |              2 |
| [65535.6](#event-655356)   | 0x0044       |     16 |              2 |
| [65535.7](#event-655357)   | 0x0054       |     16 |              2 |
| [65535.8](#event-655358)   | 0x0064       |     16 |              2 |
| [65535.9](#event-655359)   | 0x0074       |     16 |              2 |
| [65535.10](#event-6553510) | 0x0084       |     16 |              2 |
| [65535.11](#event-6553511) | 0x0094       |     16 |              2 |
| [65535.12](#event-6553512) | 0x00A4       |     16 |              2 |
| [65535.13](#event-6553513) | 0x00B4       |     16 |              2 |
| [65535.14](#event-6553514) | 0x00C4       |     16 |              2 |
| [65535.15](#event-6553515) | 0x00D4       |     16 |              2 |
| [65535.16](#event-6553516) | 0x00E4       |     16 |              2 |
| [65535.17](#event-6553517) | 0x00F4       |     25 |              3 |
| [65535.18](#event-6553518) | 0x010D       |     25 |              3 |

## DAT References (imed_data)

|   Index | Hex Value   |   Dec Value |
|---------|-------------|-------------|
|       0 | 0x0001      |           1 |
|       1 | 0xFFFEF030  |  4294897712 |
|       2 | 0xFFFE74C6  |  4294866118 |
|       3 | 0x176F      |        5999 |
|       4 | 0x0A09      |        2569 |
|       5 | 0x0A0A      |        2570 |
|       6 | 0x0A0B      |        2571 |
|       7 | 0x0A0D      |        2573 |

## Events

### Event 65535

#### Metadata

| Field        | Value   |
|--------------|---------|
| Entrypoint   | 0x0000  |
| Data Size    | 1 bytes |
| Instructions | 1       |

```
      00 01 02 03 04 05 06 07  08 09 0A 0B 0C 0D 0E 0F
      -- -- -- -- -- -- -- --  -- -- -- -- -- -- -- --
0000: 00                                                .               
```

#### Opcodes

```
  0: 0x0000 [0x00] END_REQSTACK()
```

### Event 10094

#### Metadata

| Field        | Value   |
|--------------|---------|
| Entrypoint   | 0x0001  |
| Data Size    | 4 bytes |
| Instructions | 2       |

```
      00 01 02 03 04 05 06 07  08 09 0A 0B 0C 0D 0E 0F
      -- -- -- -- -- -- -- --  -- -- -- -- -- -- -- --
0000:    C0 00 80 00                                     ....           
```

#### Opcodes

```
  0: 0x0001 [0xC0] EventEntity->Render.Flags3 |= 0x1000 // Set bit 12 (from 1*)
  1: 0x0004 [0x00] END_REQSTACK()
```

### Event 65535.1

#### Metadata

| Field        | Value   |
|--------------|---------|
| Entrypoint   | 0x0005  |
| Data Size    | 4 bytes |
| Instructions | 2       |

```
      00 01 02 03 04 05 06 07  08 09 0A 0B 0C 0D 0E 0F
      -- -- -- -- -- -- -- --  -- -- -- -- -- -- -- --
0000:                1C 02 10  00                            ....       
```

#### Opcodes

```
  0: 0x0005 [0x1C] WAIT(Work_Zone[2] ticks)
  1: 0x0008 [0x00] END_REQSTACK()
```

### Event 65535.2

#### Metadata

| Field        | Value    |
|--------------|----------|
| Entrypoint   | 0x0009   |
| Data Size    | 11 bytes |
| Instructions | 3        |

```
      00 01 02 03 04 05 06 07  08 09 0A 0B 0C 0D 0E 0F
      -- -- -- -- -- -- -- --  -- -- -- -- -- -- -- --
0000:                             1F 00 01 80 02 80 03           .......
0010: 80 1F 01 00                                       ....            
```

#### Opcodes

```
  0: 0x0009 [0x1F] MOVE_ENTITY: EventEntity moves to X=-69.584*, Z=-101.178*, Y=5.999*
  1: 0x0011 [0x1F] MOVE_ENTITY: Update entity position (mode=1)
  2: 0x0013 [0x00] END_REQSTACK()
```

### Event 65535.3

#### Metadata

| Field        | Value    |
|--------------|----------|
| Entrypoint   | 0x0014   |
| Data Size    | 16 bytes |
| Instructions | 2        |

```
      00 01 02 03 04 05 06 07  08 09 0A 0B 0C 0D 0E 0F
      -- -- -- -- -- -- -- --  -- -- -- -- -- -- -- --
0010:             5B 04 80 CA  50 0F 01 CA 50 0F 01 74      [...P...P..t
0020: 6C 61 30 00                                       la0.            
```

#### Opcodes

```
  0: 0x0014 [0x5B] LOAD_EXT_SCHEDULER: Load scheduler "tla0" with entities [??? (ID: 17780938/0x010F50CA), ??? (ID: 17780938/0x010F50CA)], work=2569*
  1: 0x0023 [0x00] END_REQSTACK()
```

### Event 65535.4

#### Metadata

| Field        | Value    |
|--------------|----------|
| Entrypoint   | 0x0024   |
| Data Size    | 16 bytes |
| Instructions | 2        |

```
      00 01 02 03 04 05 06 07  08 09 0A 0B 0C 0D 0E 0F
      -- -- -- -- -- -- -- --  -- -- -- -- -- -- -- --
0020:             5B 04 80 CA  50 0F 01 CA 50 0F 01 74      [...P...P..t
0030: 6C 61 31 00                                       la1.            
```

#### Opcodes

```
  0: 0x0024 [0x5B] LOAD_EXT_SCHEDULER: Load scheduler "tla1" with entities [??? (ID: 17780938/0x010F50CA), ??? (ID: 17780938/0x010F50CA)], work=2569*
  1: 0x0033 [0x00] END_REQSTACK()
```

### Event 65535.5

#### Metadata

| Field        | Value    |
|--------------|----------|
| Entrypoint   | 0x0034   |
| Data Size    | 16 bytes |
| Instructions | 2        |

```
      00 01 02 03 04 05 06 07  08 09 0A 0B 0C 0D 0E 0F
      -- -- -- -- -- -- -- --  -- -- -- -- -- -- -- --
0030:             5B 05 80 CA  50 0F 01 CA 50 0F 01 75      [...P...P..u
0040: 64 61 30 00                                       da0.            
```

#### Opcodes

```
  0: 0x0034 [0x5B] LOAD_EXT_SCHEDULER: Load scheduler "uda0" with entities [??? (ID: 17780938/0x010F50CA), ??? (ID: 17780938/0x010F50CA)], work=2570*
  1: 0x0043 [0x00] END_REQSTACK()
```

### Event 65535.6

#### Metadata

| Field        | Value    |
|--------------|----------|
| Entrypoint   | 0x0044   |
| Data Size    | 16 bytes |
| Instructions | 2        |

```
      00 01 02 03 04 05 06 07  08 09 0A 0B 0C 0D 0E 0F
      -- -- -- -- -- -- -- --  -- -- -- -- -- -- -- --
0040:             5B 05 80 CA  50 0F 01 CA 50 0F 01 75      [...P...P..u
0050: 64 61 31 00                                       da1.            
```

#### Opcodes

```
  0: 0x0044 [0x5B] LOAD_EXT_SCHEDULER: Load scheduler "uda1" with entities [??? (ID: 17780938/0x010F50CA), ??? (ID: 17780938/0x010F50CA)], work=2570*
  1: 0x0053 [0x00] END_REQSTACK()
```

### Event 65535.7

#### Metadata

| Field        | Value    |
|--------------|----------|
| Entrypoint   | 0x0054   |
| Data Size    | 16 bytes |
| Instructions | 2        |

```
      00 01 02 03 04 05 06 07  08 09 0A 0B 0C 0D 0E 0F
      -- -- -- -- -- -- -- --  -- -- -- -- -- -- -- --
0050:             5B 06 80 CA  50 0F 01 CA 50 0F 01 79      [...P...P..y
0060: 62 69 30 00                                       bi0.            
```

#### Opcodes

```
  0: 0x0054 [0x5B] LOAD_EXT_SCHEDULER: Load scheduler "ybi0" with entities [??? (ID: 17780938/0x010F50CA), ??? (ID: 17780938/0x010F50CA)], work=2571*
  1: 0x0063 [0x00] END_REQSTACK()
```

### Event 65535.8

#### Metadata

| Field        | Value    |
|--------------|----------|
| Entrypoint   | 0x0064   |
| Data Size    | 16 bytes |
| Instructions | 2        |

```
      00 01 02 03 04 05 06 07  08 09 0A 0B 0C 0D 0E 0F
      -- -- -- -- -- -- -- --  -- -- -- -- -- -- -- --
0060:             5B 06 80 CA  50 0F 01 CA 50 0F 01 79      [...P...P..y
0070: 62 69 31 00                                       bi1.            
```

#### Opcodes

```
  0: 0x0064 [0x5B] LOAD_EXT_SCHEDULER: Load scheduler "ybi1" with entities [??? (ID: 17780938/0x010F50CA), ??? (ID: 17780938/0x010F50CA)], work=2571*
  1: 0x0073 [0x00] END_REQSTACK()
```

### Event 65535.9

#### Metadata

| Field        | Value    |
|--------------|----------|
| Entrypoint   | 0x0074   |
| Data Size    | 16 bytes |
| Instructions | 2        |

```
      00 01 02 03 04 05 06 07  08 09 0A 0B 0C 0D 0E 0F
      -- -- -- -- -- -- -- --  -- -- -- -- -- -- -- --
0070:             5B 06 80 CA  50 0F 01 CA 50 0F 01 6D      [...P...P..m
0080: 65 69 30 00                                       ei0.            
```

#### Opcodes

```
  0: 0x0074 [0x5B] LOAD_EXT_SCHEDULER: Load scheduler "mei0" with entities [??? (ID: 17780938/0x010F50CA), ??? (ID: 17780938/0x010F50CA)], work=2571*
  1: 0x0083 [0x00] END_REQSTACK()
```

### Event 65535.10

#### Metadata

| Field        | Value    |
|--------------|----------|
| Entrypoint   | 0x0084   |
| Data Size    | 16 bytes |
| Instructions | 2        |

```
      00 01 02 03 04 05 06 07  08 09 0A 0B 0C 0D 0E 0F
      -- -- -- -- -- -- -- --  -- -- -- -- -- -- -- --
0080:             5B 06 80 CA  50 0F 01 CA 50 0F 01 6D      [...P...P..m
0090: 65 69 31 00                                       ei1.            
```

#### Opcodes

```
  0: 0x0084 [0x5B] LOAD_EXT_SCHEDULER: Load scheduler "mei1" with entities [??? (ID: 17780938/0x010F50CA), ??? (ID: 17780938/0x010F50CA)], work=2571*
  1: 0x0093 [0x00] END_REQSTACK()
```

### Event 65535.11

#### Metadata

| Field        | Value    |
|--------------|----------|
| Entrypoint   | 0x0094   |
| Data Size    | 16 bytes |
| Instructions | 2        |

```
      00 01 02 03 04 05 06 07  08 09 0A 0B 0C 0D 0E 0F
      -- -- -- -- -- -- -- --  -- -- -- -- -- -- -- --
0090:             5B 04 80 CA  50 0F 01 CA 50 0F 01 74      [...P...P..t
00A0: 6C 62 30 00                                       lb0.            
```

#### Opcodes

```
  0: 0x0094 [0x5B] LOAD_EXT_SCHEDULER: Load scheduler "tlb0" with entities [??? (ID: 17780938/0x010F50CA), ??? (ID: 17780938/0x010F50CA)], work=2569*
  1: 0x00A3 [0x00] END_REQSTACK()
```

### Event 65535.12

#### Metadata

| Field        | Value    |
|--------------|----------|
| Entrypoint   | 0x00A4   |
| Data Size    | 16 bytes |
| Instructions | 2        |

```
      00 01 02 03 04 05 06 07  08 09 0A 0B 0C 0D 0E 0F
      -- -- -- -- -- -- -- --  -- -- -- -- -- -- -- --
00A0:             5B 07 80 CA  50 0F 01 CA 50 0F 01 66      [...P...P..f
00B0: 72 69 30 00                                       ri0.            
```

#### Opcodes

```
  0: 0x00A4 [0x5B] LOAD_EXT_SCHEDULER: Load scheduler "fri0" with entities [??? (ID: 17780938/0x010F50CA), ??? (ID: 17780938/0x010F50CA)], work=2573*
  1: 0x00B3 [0x00] END_REQSTACK()
```

### Event 65535.13

#### Metadata

| Field        | Value    |
|--------------|----------|
| Entrypoint   | 0x00B4   |
| Data Size    | 16 bytes |
| Instructions | 2        |

```
      00 01 02 03 04 05 06 07  08 09 0A 0B 0C 0D 0E 0F
      -- -- -- -- -- -- -- --  -- -- -- -- -- -- -- --
00B0:             5B 07 80 CA  50 0F 01 CA 50 0F 01 66      [...P...P..f
00C0: 72 69 31 00                                       ri1.            
```

#### Opcodes

```
  0: 0x00B4 [0x5B] LOAD_EXT_SCHEDULER: Load scheduler "fri1" with entities [??? (ID: 17780938/0x010F50CA), ??? (ID: 17780938/0x010F50CA)], work=2573*
  1: 0x00C3 [0x00] END_REQSTACK()
```

### Event 65535.14

#### Metadata

| Field        | Value    |
|--------------|----------|
| Entrypoint   | 0x00C4   |
| Data Size    | 16 bytes |
| Instructions | 2        |

```
      00 01 02 03 04 05 06 07  08 09 0A 0B 0C 0D 0E 0F
      -- -- -- -- -- -- -- --  -- -- -- -- -- -- -- --
00C0:             5B 07 80 CA  50 0F 01 CA 50 0F 01 66      [...P...P..f
00D0: 72 69 32 00                                       ri2.            
```

#### Opcodes

```
  0: 0x00C4 [0x5B] LOAD_EXT_SCHEDULER: Load scheduler "fri2" with entities [??? (ID: 17780938/0x010F50CA), ??? (ID: 17780938/0x010F50CA)], work=2573*
  1: 0x00D3 [0x00] END_REQSTACK()
```

### Event 65535.15

#### Metadata

| Field        | Value    |
|--------------|----------|
| Entrypoint   | 0x00D4   |
| Data Size    | 16 bytes |
| Instructions | 2        |

```
      00 01 02 03 04 05 06 07  08 09 0A 0B 0C 0D 0E 0F
      -- -- -- -- -- -- -- --  -- -- -- -- -- -- -- --
00D0:             5B 07 80 CA  50 0F 01 CA 50 0F 01 66      [...P...P..f
00E0: 72 69 33 00                                       ri3.            
```

#### Opcodes

```
  0: 0x00D4 [0x5B] LOAD_EXT_SCHEDULER: Load scheduler "fri3" with entities [??? (ID: 17780938/0x010F50CA), ??? (ID: 17780938/0x010F50CA)], work=2573*
  1: 0x00E3 [0x00] END_REQSTACK()
```

### Event 65535.16

#### Metadata

| Field        | Value    |
|--------------|----------|
| Entrypoint   | 0x00E4   |
| Data Size    | 16 bytes |
| Instructions | 2        |

```
      00 01 02 03 04 05 06 07  08 09 0A 0B 0C 0D 0E 0F
      -- -- -- -- -- -- -- --  -- -- -- -- -- -- -- --
00E0:             5B 07 80 CA  50 0F 01 CA 50 0F 01 66      [...P...P..f
00F0: 72 69 34 00                                       ri4.            
```

#### Opcodes

```
  0: 0x00E4 [0x5B] LOAD_EXT_SCHEDULER: Load scheduler "fri4" with entities [??? (ID: 17780938/0x010F50CA), ??? (ID: 17780938/0x010F50CA)], work=2573*
  1: 0x00F3 [0x00] END_REQSTACK()
```

### Event 65535.17

#### Metadata

| Field        | Value    |
|--------------|----------|
| Entrypoint   | 0x00F4   |
| Data Size    | 25 bytes |
| Instructions | 3        |

```
      00 01 02 03 04 05 06 07  08 09 0A 0B 0C 0D 0E 0F
      -- -- -- -- -- -- -- --  -- -- -- -- -- -- -- --
00F0:             B4 13 00 00  59 6F 75 6E 67 40 41 6C      ....Young@Al
0100: 64 6F 00 00 00 00 00 00  B5 00 00 00 00           do...........   
```

#### Opcodes

```
  0: 0x00F4 [0xB4] UI_WINDOW_STRING_HANDLER(case=0x13 - Copy string and replace @ with space, work_offset=ExtData[1]->WorkLocal[0], string="Young@Aldo")
  1: 0x0108 [0xB5] SET_EVENT_ENTITY_NAME: Change EventEntity name to ExtData[1]->WorkLocal[0]
  2: 0x010C [0x00] END_REQSTACK()
```

### Event 65535.18

#### Metadata

| Field        | Value    |
|--------------|----------|
| Entrypoint   | 0x010D   |
| Data Size    | 25 bytes |
| Instructions | 3        |

```
      00 01 02 03 04 05 06 07  08 09 0A 0B 0C 0D 0E 0F
      -- -- -- -- -- -- -- --  -- -- -- -- -- -- -- --
0100:                                         B4 00 00               ...
0110: 00 3F 3F 3F 00 00 00 00  00 00 00 00 00 00 00 00  .???............
0120: 00 B5 00 00 00 00                                 ......          
```

#### Opcodes

```
  0: 0x010D [0xB4] UI_WINDOW_STRING_HANDLER(case=0x00 - Copy string from opcode, work_offset=ExtData[1]->WorkLocal[0], string="???")
  1: 0x0121 [0xB5] SET_EVENT_ENTITY_NAME: Change EventEntity name to ExtData[1]->WorkLocal[0]
  2: 0x0125 [0x00] END_REQSTACK()
```
