# 17780776 - Raji

## Common Data

| Field            | Value                 |
|------------------|-----------------------|
| Zone             | Lower Jeuno (ID: 245) |
| Block Size       | 224 bytes             |
| Total Events     | 4                     |
| References Count | 6                     |

## List of Events

| Event ID              | Entrypoint   |   Size |   Instructions |
|-----------------------|--------------|--------|----------------|
| [65535](#event-65535) | 0x0000       |      1 |              1 |
| [17](#event-17)       | 0x0001       |      1 |              1 |
| [154](#event-154)     | 0x0002       |      3 |              2 |
| [195](#event-195)     | 0x0005       |    161 |             27 |

## DAT References (imed_data)

|   Index | Hex Value   |   Dec Value |
|---------|-------------|-------------|
|       0 | 0x0000      |           0 |
|       1 | 0x1E52      |        7762 |
|       2 | 0x000A      |          10 |
|       3 | 0x1E53      |        7763 |
|       4 | 0x1E54      |        7764 |
|       5 | 0x1E55      |        7765 |

## String References

- **7762**: We just got our compatibility read by that fortune-teller over there...
- **7764**: Come on, honey... It's just a fortune! Cheer up, okay?
- **7765**: She won't listen to me. I'd be careful with fortunes if I were you.

## Events

### Event 65535

#### Metadata

| Field        | Value   |
|--------------|---------|
| Entrypoint   | 0x0000  |
| Data Size    | 1 bytes |
| Instructions | 1       |

```
      00 01 02 03 04 05 06 07  08 09 0A 0B 0C 0D 0E 0F
      -- -- -- -- -- -- -- --  -- -- -- -- -- -- -- --
0000: 00                                                .               
```

#### Opcodes

```
  0: 0x0000 [0x00] END_REQSTACK()
```

### Event 17

#### Metadata

| Field        | Value   |
|--------------|---------|
| Entrypoint   | 0x0001  |
| Data Size    | 1 bytes |
| Instructions | 1       |

```
      00 01 02 03 04 05 06 07  08 09 0A 0B 0C 0D 0E 0F
      -- -- -- -- -- -- -- --  -- -- -- -- -- -- -- --
0000:    00                                              .              
```

#### Opcodes

```
  0: 0x0001 [0x00] END_REQSTACK()
```

### Event 154

#### Metadata

| Field        | Value   |
|--------------|---------|
| Entrypoint   | 0x0002  |
| Data Size    | 3 bytes |
| Instructions | 2       |

```
      00 01 02 03 04 05 06 07  08 09 0A 0B 0C 0D 0E 0F
      -- -- -- -- -- -- -- --  -- -- -- -- -- -- -- --
0000:       22 01 00                                      "..           
```

#### Opcodes

```
  0: 0x0002 [0x22] ENTITY_HIDE_FLAG(enabled=0x01)
  1: 0x0004 [0x00] END_REQSTACK()
```

### Event 195

#### Metadata

| Field        | Value     |
|--------------|-----------|
| Entrypoint   | 0x0005    |
| Data Size    | 161 bytes |
| Instructions | 27        |

```
      00 01 02 03 04 05 06 07  08 09 0A 0B 0C 0D 0E 0F
      -- -- -- -- -- -- -- --  -- -- -- -- -- -- -- --
0000:                1E F0 FF  FF 7F 6F 76 F8 FF FF 7F       .....ov....
0010: 66 00 80 28 50 0F 01 28  50 0F 01 74 68 6B 31 1D  f..(P..(P..thk1.
0020: 01 80 23 4A 29 50 0F 01  F0 FF FF 7F 6F 76 29 50  ..#J)P......ov)P
0030: 0F 01 66 00 80 28 50 0F  01 28 50 0F 01 74 68 6B  ..f..(P..(P..thk
0040: 32 66 02 80 29 50 0F 01  29 50 0F 01 74 6C 6B 30  2f..)P..)P..tlk0
0050: 2B 29 50 0F 01 03 80 23  5E 69 64 6C 30 4A 28 50  +)P....#^idl0J(P
0060: 0F 01 29 50 0F 01 6F 70  66 00 80 28 50 0F 01 28  ..)P..opf..(P..(
0070: 50 0F 01 74 6C 6B 30 1D  04 80 23 66 00 80 28 50  P..tlk0...#f..(P
0080: 0F 01 28 50 0F 01 74 65  6E 30 53 28 50 0F 01 28  ..(P..ten0S(P..(
0090: 50 0F 01 74 65 6E 30 4A  28 50 0F 01 F0 FF FF 7F  P..ten0J(P......
00A0: 1D 05 80 23 21 00                                 ...#!.          
```

#### Opcodes

```
  0: 0x0005 [0x1E] EventEntity looks at LocalPlayer and starts talking
  1: 0x000A [0x6F] WAIT_FRAME_DELAY: Yield until WaitTime reaches zero
  2: 0x000B [0x76] CHECK_ENTITY_RENDER_FLAGS: Wait until EventEntity Render.Flags0 and Render.Flags3 conditions are met
  3: 0x0010 [0x66] LOAD_EXT_SCHEDULER_MAIN: Load scheduler "thk1" with entities [Raji (ID: 17780776/0x010F5028), Raji (ID: 17780776/0x010F5028)], work=0*
  4: 0x001F [0x1D] PRINT_EVENT_MESSAGE(message_id=7762*)
    → "We just got our compatibility read by that fortune-teller over there..."
  5: 0x0022 [0x23] WAIT_FOR_DIALOG_INTERACTION
  6: 0x0023 [0x4A] Shomera (ID: 17780777/0x010F5029) looks at LocalPlayer
  7: 0x002C [0x6F] WAIT_FRAME_DELAY: Yield until WaitTime reaches zero
  8: 0x002D [0x76] CHECK_ENTITY_RENDER_FLAGS: Wait until Shomera (ID: 17780777/0x010F5029) Render.Flags0 and Render.Flags3 conditions are met
  9: 0x0032 [0x66] LOAD_EXT_SCHEDULER_MAIN: Load scheduler "thk2" with entities [Raji (ID: 17780776/0x010F5028), Raji (ID: 17780776/0x010F5028)], work=0*
 10: 0x0041 [0x66] LOAD_EXT_SCHEDULER_MAIN: Load scheduler "tlk0" with entities [Shomera (ID: 17780777/0x010F5029), Shomera (ID: 17780777/0x010F5029)], work=10*
 11: 0x0050 [0x2B] Shomera (ID: 17780777/0x010F5029) [7763*]:
    → "You won't believe it. Zero compatibility! I thought we were a perfect match for each other!"
 12: 0x0057 [0x23] WAIT_FOR_DIALOG_INTERACTION
 13: 0x0058 [0x5E] EventEntity goes idle (kills current action) (animation: "idl0")
 14: 0x005D [0x4A] Raji (ID: 17780776/0x010F5028) looks at Shomera (ID: 17780777/0x010F5029)
 15: 0x0066 [0x6F] WAIT_FRAME_DELAY: Yield until WaitTime reaches zero
 16: 0x0067 [0x70] WAIT_ENTITY_RENDER_FLAG: Wait while EventEntity->Render.Flags3 bit 2 is set (cancel turn if not)
 17: 0x0068 [0x66] LOAD_EXT_SCHEDULER_MAIN: Load scheduler "tlk0" with entities [Raji (ID: 17780776/0x010F5028), Raji (ID: 17780776/0x010F5028)], work=0*
 18: 0x0077 [0x1D] PRINT_EVENT_MESSAGE(message_id=7764*)
    → "Come on, honey... It's just a fortune! Cheer up, okay?"
 19: 0x007A [0x23] WAIT_FOR_DIALOG_INTERACTION
 20: 0x007B [0x66] LOAD_EXT_SCHEDULER_MAIN: Load scheduler "ten0" with entities [Raji (ID: 17780776/0x010F5028), Raji (ID: 17780776/0x010F5028)], work=0*
 21: 0x008A [0x53] WAIT_SCHEDULER_TASK: Wait for scheduler "ten0" with entities [Raji (ID: 17780776/0x010F5028), Raji (ID: 17780776/0x010F5028)]
 22: 0x0097 [0x4A] Raji (ID: 17780776/0x010F5028) looks at LocalPlayer
 23: 0x00A0 [0x1D] PRINT_EVENT_MESSAGE(message_id=7765*)
    → "She won't listen to me. I'd be careful with fortunes if I were you."
 24: 0x00A3 [0x23] WAIT_FOR_DIALOG_INTERACTION
 25: 0x00A4 [0x21] END_EVENT
 26: 0x00A5 [0x00] END_REQSTACK()
```
