# 17780786 - Gurdern

## Common Data

| Field            | Value                 |
|------------------|-----------------------|
| Zone             | Lower Jeuno (ID: 245) |
| Block Size       | 2684 bytes            |
| Total Events     | 101                   |
| References Count | 108                   |

## List of Events

| Event ID                   | Entrypoint   |   Size |   Instructions |
|----------------------------|--------------|--------|----------------|
| [65535](#event-65535)      | 0x0000       |      1 |              1 |
| [112](#event-112)          | 0x0001       |     70 |             16 |
| [10052](#event-10052)      | 0x0047       |     53 |             13 |
| [10094](#event-10094)      | 0x007C       |      5 |              3 |
| [65535.1](#event-655351)   | 0x0081       |     20 |              5 |
| [65535.2](#event-655352)   | 0x0095       |     20 |              5 |
| [65535.3](#event-655353)   | 0x00A9       |     20 |              5 |
| [65535.4](#event-655354)   | 0x00BD       |     17 |              3 |
| [65535.5](#event-655355)   | 0x00CE       |     20 |              5 |
| [65535.6](#event-655356)   | 0x00E2       |     20 |              5 |
| [65535.7](#event-655357)   | 0x00F6       |     19 |              4 |
| [65535.8](#event-655358)   | 0x0109       |     19 |              4 |
| [65535.9](#event-655359)   | 0x011C       |     16 |              2 |
| [65535.10](#event-6553510) | 0x012C       |     16 |              2 |
| [65535.11](#event-6553511) | 0x013C       |     20 |              5 |
| [65535.12](#event-6553512) | 0x0150       |     16 |              2 |
| [65535.13](#event-6553513) | 0x0160       |     16 |              2 |
| [65535.14](#event-6553514) | 0x0170       |     16 |              2 |
| [65535.15](#event-6553515) | 0x0180       |     21 |              6 |
| [65535.16](#event-6553516) | 0x0195       |     16 |              2 |
| [65535.17](#event-6553517) | 0x01A5       |     16 |              2 |
| [65535.18](#event-6553518) | 0x01B5       |     20 |              5 |
| [65535.19](#event-6553519) | 0x01C9       |     17 |              3 |
| [65535.20](#event-6553520) | 0x01DA       |     20 |              5 |
| [65535.21](#event-6553521) | 0x01EE       |     16 |              2 |
| [65535.22](#event-6553522) | 0x01FE       |     16 |              2 |
| [65535.23](#event-6553523) | 0x020E       |     16 |              2 |
| [65535.24](#event-6553524) | 0x021E       |     16 |              2 |
| [65535.25](#event-6553525) | 0x022E       |     16 |              2 |
| [65535.26](#event-6553526) | 0x023E       |     16 |              2 |
| [65535.27](#event-6553527) | 0x024E       |     16 |              2 |
| [65535.28](#event-6553528) | 0x025E       |     12 |              4 |
| [65535.29](#event-6553529) | 0x026A       |     20 |              5 |
| [65535.30](#event-6553530) | 0x027E       |     17 |              3 |
| [65535.31](#event-6553531) | 0x028F       |     17 |              3 |
| [65535.32](#event-6553532) | 0x02A0       |     16 |              2 |
| [65535.33](#event-6553533) | 0x02B0       |     16 |              2 |
| [65535.34](#event-6553534) | 0x02C0       |     16 |              2 |
| [65535.35](#event-6553535) | 0x02D0       |     16 |              2 |
| [65535.36](#event-6553536) | 0x02E0       |     16 |              2 |
| [65535.37](#event-6553537) | 0x02F0       |     16 |              2 |
| [65535.38](#event-6553538) | 0x0300       |     13 |              5 |
| [65535.39](#event-6553539) | 0x030D       |     20 |              5 |
| [65535.40](#event-6553540) | 0x0321       |     12 |              4 |
| [65535.41](#event-6553541) | 0x032D       |     16 |              2 |
| [65535.42](#event-6553542) | 0x033D       |     16 |              2 |
| [65535.43](#event-6553543) | 0x034D       |     16 |              2 |
| [65535.44](#event-6553544) | 0x035D       |     20 |              5 |
| [65535.45](#event-6553545) | 0x0371       |     29 |              6 |
| [65535.46](#event-6553546) | 0x038E       |     17 |              3 |
| [65535.47](#event-6553547) | 0x039F       |     20 |              5 |
| [65535.48](#event-6553548) | 0x03B3       |     20 |              5 |
| [65535.49](#event-6553549) | 0x03C7       |     20 |              5 |
| [65535.50](#event-6553550) | 0x03DB       |     20 |              5 |
| [65535.51](#event-6553551) | 0x03EF       |     20 |              5 |
| [65535.52](#event-6553552) | 0x0403       |     16 |              2 |
| [65535.53](#event-6553553) | 0x0413       |     16 |              2 |
| [65535.54](#event-6553554) | 0x0423       |     20 |              5 |
| [65535.55](#event-6553555) | 0x0437       |     16 |              2 |
| [65535.56](#event-6553556) | 0x0447       |     16 |              2 |
| [65535.57](#event-6553557) | 0x0457       |     16 |              2 |
| [65535.58](#event-6553558) | 0x0467       |     16 |              2 |
| [65535.59](#event-6553559) | 0x0477       |     21 |              6 |
| [65535.60](#event-6553560) | 0x048C       |     20 |              5 |
| [65535.61](#event-6553561) | 0x04A0       |     20 |              5 |
| [65535.62](#event-6553562) | 0x04B4       |     17 |              3 |
| [65535.63](#event-6553563) | 0x04C5       |     20 |              5 |
| [65535.64](#event-6553564) | 0x04D9       |     20 |              5 |
| [65535.65](#event-6553565) | 0x04ED       |     16 |              2 |
| [65535.66](#event-6553566) | 0x04FD       |     16 |              2 |
| [65535.67](#event-6553567) | 0x050D       |     21 |              6 |
| [65535.68](#event-6553568) | 0x0522       |     20 |              5 |
| [65535.69](#event-6553569) | 0x0536       |     20 |              5 |
| [65535.70](#event-6553570) | 0x054A       |     16 |              2 |
| [65535.71](#event-6553571) | 0x055A       |     20 |              5 |
| [65535.72](#event-6553572) | 0x056E       |     21 |              6 |
| [65535.73](#event-6553573) | 0x0583       |     20 |              5 |
| [65535.74](#event-6553574) | 0x0597       |     12 |              4 |
| [65535.75](#event-6553575) | 0x05A3       |     16 |              2 |
| [65535.76](#event-6553576) | 0x05B3       |     16 |              2 |
| [65535.77](#event-6553577) | 0x05C3       |     20 |              5 |
| [65535.78](#event-6553578) | 0x05D7       |     20 |              5 |
| [65535.79](#event-6553579) | 0x05EB       |     17 |              3 |
| [65535.80](#event-6553580) | 0x05FC       |     16 |              2 |
| [65535.81](#event-6553581) | 0x060C       |     16 |              2 |
| [65535.82](#event-6553582) | 0x061C       |     16 |              2 |
| [65535.83](#event-6553583) | 0x062C       |     16 |              2 |
| [65535.84](#event-6553584) | 0x063C       |     17 |              3 |
| [65535.85](#event-6553585) | 0x064D       |     20 |              5 |
| [65535.86](#event-6553586) | 0x0661       |     12 |              4 |
| [65535.87](#event-6553587) | 0x066D       |     16 |              2 |
| [65535.88](#event-6553588) | 0x067D       |     16 |              2 |
| [65535.89](#event-6553589) | 0x068D       |     16 |              2 |
| [65535.90](#event-6553590) | 0x069D       |     16 |              2 |
| [65535.91](#event-6553591) | 0x06AD       |     16 |              2 |
| [65535.92](#event-6553592) | 0x06BD       |     16 |              2 |
| [65535.93](#event-6553593) | 0x06CD       |     16 |              2 |
| [65535.94](#event-6553594) | 0x06DD       |     20 |              5 |
| [65535.95](#event-6553595) | 0x06F1       |     20 |              5 |
| [65535.96](#event-6553596) | 0x0705       |     16 |              2 |
| [65535.97](#event-6553597) | 0x0715       |     16 |              2 |

## DAT References (imed_data)

|   Index | Hex Value   |   Dec Value |
|---------|-------------|-------------|
|       0 | 0x1E6A      |        7786 |
|       1 | 0x0983      |        2435 |
|       2 | 0x003C      |          60 |
|       3 | 0x1E6B      |        7787 |
|       4 | 0x250E      |        9486 |
|       5 | 0x001E      |          30 |
|       6 | 0x250F      |        9487 |
|       7 | 0x2510      |        9488 |
|       8 | 0x0001      |           1 |
|       9 | 0x000C      |          12 |
|      10 | 0xFFFED6C4  |  4294891204 |
|      11 | 0xFFFDEB5B  |  4294830939 |
|      12 | 0x0000      |           0 |
|      13 | 0x000B      |          11 |
|      14 | 0xFFFE8B97  |  4294871959 |
|      15 | 0xFFFD9E68  |  4294811240 |
|      16 | 0xFFFF0D87  |  4294905223 |
|      17 | 0xFFFEA0EF  |  4294877423 |
|      18 | 0x176F      |        5999 |
|      19 | 0x0A3A      |        2618 |
|      20 | 0xFFFEB818  |  4294883352 |
|      21 | 0xFFFE098F  |  4294838671 |
|      22 | 0xFFFEF410  |  4294898704 |
|      23 | 0xFFFE85B9  |  4294870457 |
|      24 | 0xFFFEEC91  |  4294896785 |
|      25 | 0xFFFE6EA2  |  4294864546 |
|      26 | 0x0A2A      |        2602 |
|      27 | 0xFFFEE552  |  4294894930 |
|      28 | 0xFFFE3269  |  4294849129 |
|      29 | 0x0A39      |        2617 |
|      30 | 0x0045      |          69 |
|      31 | 0xFFFF2160  |  4294910304 |
|      32 | 0xFFFEA80E  |  4294879246 |
|      33 | 0x0A3D      |        2621 |
|      34 | 0x0A43      |        2627 |
|      35 | 0x004B      |          75 |
|      36 | 0xFFFFB20E  |  4294947342 |
|      37 | 0xFFFFAE2A  |  4294946346 |
|      38 | 0xFFFEDC35  |  4294892597 |
|      39 | 0xFFFE5D95  |  4294860181 |
|      40 | 0x0A47      |        2631 |
|      41 | 0x0055      |          85 |
|      42 | 0xFFFFB26F  |  4294947439 |
|      43 | 0xFFFFAB30  |  4294945584 |
|      44 | 0x000E      |          14 |
|      45 | 0xFFFF6C7D  |  4294929533 |
|      46 | 0xFFFF0AA4  |  4294904484 |
|      47 | 0xFFFFCBCA  |  4294953930 |
|      48 | 0x09E0      |        2528 |
|      49 | 0xFFFFFE3F  |  4294966847 |
|      50 | 0x0028      |          40 |
|      51 | 0x0029      |          41 |
|      52 | 0xFFFEEA26  |  4294896166 |
|      53 | 0xFFFE4F39  |  4294856505 |
|      54 | 0xFFFED8EC  |  4294891756 |
|      55 | 0xFFFE38BF  |  4294850751 |
|      56 | 0xFFFEC5BC  |  4294886844 |
|      57 | 0xFFFE1640  |  4294841920 |
|      58 | 0x03E7      |         999 |
|      59 | 0x0A33      |        2611 |
|      60 | 0x000D      |          13 |
|      61 | 0xFFFF04E1  |  4294903009 |
|      62 | 0xFFFE7108  |  4294865160 |
|      63 | 0x108C      |        4236 |
|      64 | 0x10F0      |        4336 |
|      65 | 0xFFFFC3F0  |  4294951920 |
|      66 | 0xFFFFA321  |  4294943521 |
|      67 | 0xFFFFFF9B  |  4294967195 |
|      68 | 0x000A      |          10 |
|      69 | 0x0A18      |        2584 |
|      70 | 0xFFFFFC21  |  4294966305 |
|      71 | 0x084B      |        2123 |
|      72 | 0x0008      |           8 |
|      73 | 0x0033      |          51 |
|      74 | 0xFFFF0DFA  |  4294905338 |
|      75 | 0xFFFE6C9D  |  4294864029 |
|      76 | 0xFFFEFBE3  |  4294900707 |
|      77 | 0xFFFE9775  |  4294874997 |
|      78 | 0xFFFF19CD  |  4294908365 |
|      79 | 0xFFFEAC62  |  4294880354 |
|      80 | 0xFFFECE8B  |  4294889099 |
|      81 | 0xFFFE3998  |  4294850968 |
|      82 | 0x0F9F      |        3999 |
|      83 | 0x0A17      |        2583 |
|      84 | 0xFFFFD965  |  4294957413 |
|      85 | 0xFFFFD99E  |  4294957470 |
|      86 | 0x0009      |           9 |
|      87 | 0xFFFEE68C  |  4294895244 |
|      88 | 0xFFFE6FBD  |  4294864829 |
|      89 | 0xFFFFE923  |  4294961443 |
|      90 | 0xFFFFEBBA  |  4294962106 |
|      91 | 0xFFFF4F66  |  4294922086 |
|      92 | 0xFFFEA394  |  4294878100 |
|      93 | 0xFFFFE891  |  4294961297 |
|      94 | 0xFFFFB859  |  4294948953 |
|      95 | 0xFFFFDFA2  |  4294959010 |
|      96 | 0xFFFFB9ED  |  4294949357 |
|      97 | 0xFFFFBF3D  |  4294950717 |
|      98 | 0xFFFFF407  |  4294964231 |
|      99 | 0xFFFFE105  |  4294959365 |
|     100 | 0x0A40      |        2624 |
|     101 | 0xFFFF6A1D  |  4294928925 |
|     102 | 0xFFFEF858  |  4294899800 |
|     103 | 0xFFFFEA43  |  4294961731 |
|     104 | 0xFFFFF8F4  |  4294965492 |
|     105 | 0x0002      |           2 |
|     106 | 0xFFFFF533  |  4294964531 |
|     107 | 0x13C3      |        5059 |

## String References

- **7786**: I used to watch the harbor filled with ships. But ever since the airships came, those days are gone.
- **7787**: Progress is a good thing, but it's still sad.
- **9486**: <Player>'s badge flashes brightly.
- **9487**: Airships are prohibited from flying in the skies above the Aht Urhgan Empire. If you want to visit the Near East, by sea is the only way to go!
- **9488**: Port Al Zahbi must be packed with all the people coming and going by ship, like Jeuno and Tavnazia used to be!

## Events

### Event 65535

#### Metadata

| Field        | Value   |
|--------------|---------|
| Entrypoint   | 0x0000  |
| Data Size    | 1 bytes |
| Instructions | 1       |

```
      00 01 02 03 04 05 06 07  08 09 0A 0B 0C 0D 0E 0F
      -- -- -- -- -- -- -- --  -- -- -- -- -- -- -- --
0000: 00                                                .               
```

#### Opcodes

```
  0: 0x0000 [0x00] END_REQSTACK()
```

### Event 112

#### Metadata

| Field        | Value    |
|--------------|----------|
| Entrypoint   | 0x0001   |
| Data Size    | 70 bytes |
| Instructions | 16       |

```
      00 01 02 03 04 05 06 07  08 09 0A 0B 0C 0D 0E 0F
      -- -- -- -- -- -- -- --  -- -- -- -- -- -- -- --
0000:    1E F0 FF FF 7F 6F 70  7B F8 FF FF 7F 1D 00 80   .....op{.......
0010: 23 39 01 80 6F 70 66 02  80 F8 FF FF 7F F8 FF FF  #9..opf.........
0020: 7F 74 68 6B 31 1D 03 80  23 66 02 80 F8 FF FF 7F  .thk1...#f......
0030: F8 FF FF 7F 74 68 6B 32  53 F8 FF FF 7F F8 FF FF  ....thk2S.......
0040: 7F 74 68 6B 32 21 00                              .thk2!.         
```

#### Opcodes

```
  0: 0x0001 [0x1E] EventEntity looks at LocalPlayer and starts talking
  1: 0x0006 [0x6F] WAIT_FRAME_DELAY: Yield until WaitTime reaches zero
  2: 0x0007 [0x70] WAIT_ENTITY_RENDER_FLAG: Wait while EventEntity->Render.Flags3 bit 2 is set (cancel turn if not)
  3: 0x0008 [0x7B] EventEntity stops talking
  4: 0x000D [0x1D] PRINT_EVENT_MESSAGE(message_id=7786*)
    → "I used to watch the harbor filled with ships. But ever since the airships came, those days are gone."
  5: 0x0010 [0x23] WAIT_FOR_DIALOG_INTERACTION
  6: 0x0011 [0x39] SET_ENTITY_DIRECTION(direction=13.4°*)
  7: 0x0014 [0x6F] WAIT_FRAME_DELAY: Yield until WaitTime reaches zero
  8: 0x0015 [0x70] WAIT_ENTITY_RENDER_FLAG: Wait while EventEntity->Render.Flags3 bit 2 is set (cancel turn if not)
  9: 0x0016 [0x66] LOAD_EXT_SCHEDULER_MAIN: Load scheduler "thk1" with entities [EventEntity, EventEntity], work=60*
 10: 0x0025 [0x1D] PRINT_EVENT_MESSAGE(message_id=7787*)
    → "Progress is a good thing, but it's still sad."
 11: 0x0028 [0x23] WAIT_FOR_DIALOG_INTERACTION
 12: 0x0029 [0x66] LOAD_EXT_SCHEDULER_MAIN: Load scheduler "thk2" with entities [EventEntity, EventEntity], work=60*
 13: 0x0038 [0x53] WAIT_SCHEDULER_TASK: Wait for scheduler "thk2" with entities [EventEntity, EventEntity]
 14: 0x0045 [0x21] END_EVENT
 15: 0x0046 [0x00] END_REQSTACK()
```

### Event 10052

#### Metadata

| Field        | Value    |
|--------------|----------|
| Entrypoint   | 0x0047   |
| Data Size    | 53 bytes |
| Instructions | 12       |

```
      00 01 02 03 04 05 06 07  08 09 0A 0B 0C 0D 0E 0F
      -- -- -- -- -- -- -- --  -- -- -- -- -- -- -- --
0040:                      42  48 04 80 1E F0 FF FF 7F         BH.......
0050: 1C 05 80 66 02 80 F8 FF  FF 7F F8 FF FF 7F 74 6C  ...f..........tl
0060: 6B 30 1D 06 80 23 1D 07  80 23 66 02 80 F8 FF FF  k0...#...#f.....
0070: 7F F8 FF FF 7F 74 6C 6B  31 21 00 00              .....tlk1!..    
```

#### Opcodes

```
  0: 0x0047 [0x42] SET_CLI_EVENT_CANCEL_DATA()
  1: 0x0048 [0x48] [System] [9486*]:
    → "<Player>'s badge flashes brightly."
  2: 0x004B [0x1E] EventEntity looks at LocalPlayer and starts talking
  3: 0x0050 [0x1C] WAIT(30* ticks)
  4: 0x0053 [0x66] LOAD_EXT_SCHEDULER_MAIN: Load scheduler "tlk0" with entities [EventEntity, EventEntity], work=60*
  5: 0x0062 [0x1D] PRINT_EVENT_MESSAGE(message_id=9487*)
    → "Airships are prohibited from flying in the skies above the Aht Urhgan Empire. If you want to visit the Near East, by sea is the only way to go!"
  6: 0x0065 [0x23] WAIT_FOR_DIALOG_INTERACTION
  7: 0x0066 [0x1D] PRINT_EVENT_MESSAGE(message_id=9488*)
    → "Port Al Zahbi must be packed with all the people coming and going by ship, like Jeuno and Tavnazia used to be!"
  8: 0x0069 [0x23] WAIT_FOR_DIALOG_INTERACTION
  9: 0x006A [0x66] LOAD_EXT_SCHEDULER_MAIN: Load scheduler "tlk1" with entities [EventEntity, EventEntity], work=60*
 10: 0x0079 [0x21] END_EVENT
 11: 0x007A [0x00] END_REQSTACK()
```

#### Data or dead code:

```
# Dead code (unreachable instructions):
     0x007B [0x00] END_REQSTACK()
```

### Event 10094

#### Metadata

| Field        | Value   |
|--------------|---------|
| Entrypoint   | 0x007C  |
| Data Size    | 5 bytes |
| Instructions | 2       |

```
      00 01 02 03 04 05 06 07  08 09 0A 0B 0C 0D 0E 0F
      -- -- -- -- -- -- -- --  -- -- -- -- -- -- -- --
0070:                                      C0 08 80 00              ....
0080: 00                                                .               
```

#### Opcodes

```
  0: 0x007C [0xC0] EventEntity->Render.Flags3 |= 0x1000 // Set bit 12 (from 1*)
  1: 0x007F [0x00] END_REQSTACK()
```

#### Data or dead code:

```
# Dead code (unreachable instructions):
     0x0080 [0x00] END_REQSTACK()
```

### Event 65535.1

#### Metadata

| Field        | Value    |
|--------------|----------|
| Entrypoint   | 0x0081   |
| Data Size    | 20 bytes |
| Instructions | 5        |

```
      00 01 02 03 04 05 06 07  08 09 0A 0B 0C 0D 0E 0F
      -- -- -- -- -- -- -- --  -- -- -- -- -- -- -- --
0080:    59 04 0B 50 0F 01 09  80 1F 00 0A 80 0B 80 0C   Y..P...........
0090: 80 1F 01 6F 00                                    ...o.           
```

#### Opcodes

```
  0: 0x0081 [0x59] UPDATE_ENTITY_DATA: Set Garnev (ID: 17780747/0x010F500B) main speed = 12* * 0.1
  1: 0x0089 [0x1F] MOVE_ENTITY: EventEntity moves to X=-76.092*, Z=-136.357*, Y=0.000*
  2: 0x0091 [0x1F] MOVE_ENTITY: Update entity position (mode=1)
  3: 0x0093 [0x6F] WAIT_FRAME_DELAY: Yield until WaitTime reaches zero
  4: 0x0094 [0x00] END_REQSTACK()
```

### Event 65535.2

#### Metadata

| Field        | Value    |
|--------------|----------|
| Entrypoint   | 0x0095   |
| Data Size    | 20 bytes |
| Instructions | 5        |

```
      00 01 02 03 04 05 06 07  08 09 0A 0B 0C 0D 0E 0F
      -- -- -- -- -- -- -- --  -- -- -- -- -- -- -- --
0090:                59 04 1D  50 0F 01 0D 80 1F 00 0E       Y..P.......
00A0: 80 0F 80 0C 80 1F 01 6F  00                       .......o.       
```

#### Opcodes

```
  0: 0x0095 [0x59] UPDATE_ENTITY_DATA: Set Mataligeat (ID: 17780765/0x010F501D) main speed = 11* * 0.1
  1: 0x009D [0x1F] MOVE_ENTITY: EventEntity moves to X=-95.337*, Z=-156.056*, Y=0.000*
  2: 0x00A5 [0x1F] MOVE_ENTITY: Update entity position (mode=1)
  3: 0x00A7 [0x6F] WAIT_FRAME_DELAY: Yield until WaitTime reaches zero
  4: 0x00A8 [0x00] END_REQSTACK()
```

### Event 65535.3

#### Metadata

| Field        | Value    |
|--------------|----------|
| Entrypoint   | 0x00A9   |
| Data Size    | 20 bytes |
| Instructions | 5        |

```
      00 01 02 03 04 05 06 07  08 09 0A 0B 0C 0D 0E 0F
      -- -- -- -- -- -- -- --  -- -- -- -- -- -- -- --
00A0:                             59 04 1D 50 0F 01 0D           Y..P...
00B0: 80 1F 00 10 80 11 80 12  80 1F 01 6F 00           ...........o.   
```

#### Opcodes

```
  0: 0x00A9 [0x59] UPDATE_ENTITY_DATA: Set Mataligeat (ID: 17780765/0x010F501D) main speed = 11* * 0.1
  1: 0x00B1 [0x1F] MOVE_ENTITY: EventEntity moves to X=-62.073*, Z=-89.873*, Y=5.999*
  2: 0x00B9 [0x1F] MOVE_ENTITY: Update entity position (mode=1)
  3: 0x00BB [0x6F] WAIT_FRAME_DELAY: Yield until WaitTime reaches zero
  4: 0x00BC [0x00] END_REQSTACK()
```

### Event 65535.4

#### Metadata

| Field        | Value    |
|--------------|----------|
| Entrypoint   | 0x00BD   |
| Data Size    | 17 bytes |
| Instructions | 2        |

```
      00 01 02 03 04 05 06 07  08 09 0A 0B 0C 0D 0E 0F
      -- -- -- -- -- -- -- --  -- -- -- -- -- -- -- --
00B0:                                         5B 13 80               [..
00C0: 1D 50 0F 01 1D 50 0F 01  6F 70 30 30 00 00        .P...P..op00..  
```

#### Opcodes

```
  0: 0x00BD [0x5B] LOAD_EXT_SCHEDULER: Load scheduler "op00" with entities [Mataligeat (ID: 17780765/0x010F501D), Mataligeat (ID: 17780765/0x010F501D)], work=2618*
  1: 0x00CC [0x00] END_REQSTACK()
```

#### Data or dead code:

```
# Dead code (unreachable instructions):
     0x00CD [0x00] END_REQSTACK()
```

### Event 65535.5

#### Metadata

| Field        | Value    |
|--------------|----------|
| Entrypoint   | 0x00CE   |
| Data Size    | 20 bytes |
| Instructions | 5        |

```
      00 01 02 03 04 05 06 07  08 09 0A 0B 0C 0D 0E 0F
      -- -- -- -- -- -- -- --  -- -- -- -- -- -- -- --
00C0:                                            59 04                Y.
00D0: 3A 50 0F 01 0D 80 1F 00  0E 80 0F 80 0C 80 1F 01  :P..............
00E0: 6F 00                                             o.              
```

#### Opcodes

```
  0: 0x00CE [0x59] UPDATE_ENTITY_DATA: Set Navisse (ID: 17780794/0x010F503A) main speed = 11* * 0.1
  1: 0x00D6 [0x1F] MOVE_ENTITY: EventEntity moves to X=-95.337*, Z=-156.056*, Y=0.000*
  2: 0x00DE [0x1F] MOVE_ENTITY: Update entity position (mode=1)
  3: 0x00E0 [0x6F] WAIT_FRAME_DELAY: Yield until WaitTime reaches zero
  4: 0x00E1 [0x00] END_REQSTACK()
```

### Event 65535.6

#### Metadata

| Field        | Value    |
|--------------|----------|
| Entrypoint   | 0x00E2   |
| Data Size    | 20 bytes |
| Instructions | 5        |

```
      00 01 02 03 04 05 06 07  08 09 0A 0B 0C 0D 0E 0F
      -- -- -- -- -- -- -- --  -- -- -- -- -- -- -- --
00E0:       59 04 2C 50 0F 01  09 80 1F 00 14 80 15 80    Y.,P..........
00F0: 0C 80 1F 01 6F 00                                 ....o.          
```

#### Opcodes

```
  0: 0x00E2 [0x59] UPDATE_ENTITY_DATA: Set Jazmin (ID: 17780780/0x010F502C) main speed = 12* * 0.1
  1: 0x00EA [0x1F] MOVE_ENTITY: EventEntity moves to X=-83.944*, Z=-128.625*, Y=0.000*
  2: 0x00F2 [0x1F] MOVE_ENTITY: Update entity position (mode=1)
  3: 0x00F4 [0x6F] WAIT_FRAME_DELAY: Yield until WaitTime reaches zero
  4: 0x00F5 [0x00] END_REQSTACK()
```

### Event 65535.7

#### Metadata

| Field        | Value    |
|--------------|----------|
| Entrypoint   | 0x00F6   |
| Data Size    | 19 bytes |
| Instructions | 4        |

```
      00 01 02 03 04 05 06 07  08 09 0A 0B 0C 0D 0E 0F
      -- -- -- -- -- -- -- --  -- -- -- -- -- -- -- --
00F0:                   59 04  2C 50 0F 01 0D 80 1F 00        Y.,P......
0100: 16 80 17 80 12 80 1F 01  00                       .........       
```

#### Opcodes

```
  0: 0x00F6 [0x59] UPDATE_ENTITY_DATA: Set Jazmin (ID: 17780780/0x010F502C) main speed = 11* * 0.1
  1: 0x00FE [0x1F] MOVE_ENTITY: EventEntity moves to X=-68.592*, Z=-96.839*, Y=5.999*
  2: 0x0106 [0x1F] MOVE_ENTITY: Update entity position (mode=1)
  3: 0x0108 [0x00] END_REQSTACK()
```

### Event 65535.8

#### Metadata

| Field        | Value    |
|--------------|----------|
| Entrypoint   | 0x0109   |
| Data Size    | 19 bytes |
| Instructions | 4        |

```
      00 01 02 03 04 05 06 07  08 09 0A 0B 0C 0D 0E 0F
      -- -- -- -- -- -- -- --  -- -- -- -- -- -- -- --
0100:                             59 04 2C 50 0F 01 0D           Y.,P...
0110: 80 1F 00 18 80 19 80 12  80 1F 01 00              ............    
```

#### Opcodes

```
  0: 0x0109 [0x59] UPDATE_ENTITY_DATA: Set Jazmin (ID: 17780780/0x010F502C) main speed = 11* * 0.1
  1: 0x0111 [0x1F] MOVE_ENTITY: EventEntity moves to X=-70.511*, Z=-102.750*, Y=5.999*
  2: 0x0119 [0x1F] MOVE_ENTITY: Update entity position (mode=1)
  3: 0x011B [0x00] END_REQSTACK()
```

### Event 65535.9

#### Metadata

| Field        | Value    |
|--------------|----------|
| Entrypoint   | 0x011C   |
| Data Size    | 16 bytes |
| Instructions | 2        |

```
      00 01 02 03 04 05 06 07  08 09 0A 0B 0C 0D 0E 0F
      -- -- -- -- -- -- -- --  -- -- -- -- -- -- -- --
0110:                                      5B 1A 80 2C              [..,
0120: 50 0F 01 2C 50 0F 01 6F  70 30 30 00              P..,P..op00.    
```

#### Opcodes

```
  0: 0x011C [0x5B] LOAD_EXT_SCHEDULER: Load scheduler "op00" with entities [Jazmin (ID: 17780780/0x010F502C), Jazmin (ID: 17780780/0x010F502C)], work=2602*
  1: 0x012B [0x00] END_REQSTACK()
```

### Event 65535.10

#### Metadata

| Field        | Value    |
|--------------|----------|
| Entrypoint   | 0x012C   |
| Data Size    | 16 bytes |
| Instructions | 2        |

```
      00 01 02 03 04 05 06 07  08 09 0A 0B 0C 0D 0E 0F
      -- -- -- -- -- -- -- --  -- -- -- -- -- -- -- --
0120:                                      5B 1A 80 2C              [..,
0130: 50 0F 01 2C 50 0F 01 6F  70 30 31 00              P..,P..op01.    
```

#### Opcodes

```
  0: 0x012C [0x5B] LOAD_EXT_SCHEDULER: Load scheduler "op01" with entities [Jazmin (ID: 17780780/0x010F502C), Jazmin (ID: 17780780/0x010F502C)], work=2602*
  1: 0x013B [0x00] END_REQSTACK()
```

### Event 65535.11

#### Metadata

| Field        | Value    |
|--------------|----------|
| Entrypoint   | 0x013C   |
| Data Size    | 20 bytes |
| Instructions | 5        |

```
      00 01 02 03 04 05 06 07  08 09 0A 0B 0C 0D 0E 0F
      -- -- -- -- -- -- -- --  -- -- -- -- -- -- -- --
0130:                                      59 04 2C 50              Y.,P
0140: 0F 01 0D 80 1F 00 1B 80  1C 80 12 80 1F 01 6F 00  ..............o.
```

#### Opcodes

```
  0: 0x013C [0x59] UPDATE_ENTITY_DATA: Set Jazmin (ID: 17780780/0x010F502C) main speed = 11* * 0.1
  1: 0x0144 [0x1F] MOVE_ENTITY: EventEntity moves to X=-72.366*, Z=-118.167*, Y=5.999*
  2: 0x014C [0x1F] MOVE_ENTITY: Update entity position (mode=1)
  3: 0x014E [0x6F] WAIT_FRAME_DELAY: Yield until WaitTime reaches zero
  4: 0x014F [0x00] END_REQSTACK()
```

### Event 65535.12

#### Metadata

| Field        | Value    |
|--------------|----------|
| Entrypoint   | 0x0150   |
| Data Size    | 16 bytes |
| Instructions | 2        |

```
      00 01 02 03 04 05 06 07  08 09 0A 0B 0C 0D 0E 0F
      -- -- -- -- -- -- -- --  -- -- -- -- -- -- -- --
0150: 5B 1D 80 2C 50 0F 01 2C  50 0F 01 6F 70 61 30 00  [..,P..,P..opa0.
```

#### Opcodes

```
  0: 0x0150 [0x5B] LOAD_EXT_SCHEDULER: Load scheduler "opa0" with entities [Jazmin (ID: 17780780/0x010F502C), Jazmin (ID: 17780780/0x010F502C)], work=2617*
  1: 0x015F [0x00] END_REQSTACK()
```

### Event 65535.13

#### Metadata

| Field        | Value    |
|--------------|----------|
| Entrypoint   | 0x0160   |
| Data Size    | 16 bytes |
| Instructions | 2        |

```
      00 01 02 03 04 05 06 07  08 09 0A 0B 0C 0D 0E 0F
      -- -- -- -- -- -- -- --  -- -- -- -- -- -- -- --
0160: 5B 1D 80 2C 50 0F 01 2C  50 0F 01 6F 70 61 31 00  [..,P..,P..opa1.
```

#### Opcodes

```
  0: 0x0160 [0x5B] LOAD_EXT_SCHEDULER: Load scheduler "opa1" with entities [Jazmin (ID: 17780780/0x010F502C), Jazmin (ID: 17780780/0x010F502C)], work=2617*
  1: 0x016F [0x00] END_REQSTACK()
```

### Event 65535.14

#### Metadata

| Field        | Value    |
|--------------|----------|
| Entrypoint   | 0x0170   |
| Data Size    | 16 bytes |
| Instructions | 2        |

```
      00 01 02 03 04 05 06 07  08 09 0A 0B 0C 0D 0E 0F
      -- -- -- -- -- -- -- --  -- -- -- -- -- -- -- --
0170: 5B 1D 80 2C 50 0F 01 2C  50 0F 01 6F 70 61 32 00  [..,P..,P..opa2.
```

#### Opcodes

```
  0: 0x0170 [0x5B] LOAD_EXT_SCHEDULER: Load scheduler "opa2" with entities [Jazmin (ID: 17780780/0x010F502C), Jazmin (ID: 17780780/0x010F502C)], work=2617*
  1: 0x017F [0x00] END_REQSTACK()
```

### Event 65535.15

#### Metadata

| Field        | Value    |
|--------------|----------|
| Entrypoint   | 0x0180   |
| Data Size    | 21 bytes |
| Instructions | 5        |

```
      00 01 02 03 04 05 06 07  08 09 0A 0B 0C 0D 0E 0F
      -- -- -- -- -- -- -- --  -- -- -- -- -- -- -- --
0180: 59 04 2E 50 0F 01 09 80  1F 00 0A 80 0B 80 0C 80  Y..P............
0190: 1F 01 6F 00 00                                    ..o..           
```

#### Opcodes

```
  0: 0x0180 [0x59] UPDATE_ENTITY_DATA: Set Bogharg (ID: 17780782/0x010F502E) main speed = 12* * 0.1
  1: 0x0188 [0x1F] MOVE_ENTITY: EventEntity moves to X=-76.092*, Z=-136.357*, Y=0.000*
  2: 0x0190 [0x1F] MOVE_ENTITY: Update entity position (mode=1)
  3: 0x0192 [0x6F] WAIT_FRAME_DELAY: Yield until WaitTime reaches zero
  4: 0x0193 [0x00] END_REQSTACK()
```

#### Data or dead code:

```
# Dead code (unreachable instructions):
     0x0194 [0x00] END_REQSTACK()
```

### Event 65535.16

#### Metadata

| Field        | Value    |
|--------------|----------|
| Entrypoint   | 0x0195   |
| Data Size    | 16 bytes |
| Instructions | 2        |

```
      00 01 02 03 04 05 06 07  08 09 0A 0B 0C 0D 0E 0F
      -- -- -- -- -- -- -- --  -- -- -- -- -- -- -- --
0190:                66 1E 80  2E 50 0F 01 2E 50 0F 01       f...P...P..
01A0: 74 68 6B 31 00                                    thk1.           
```

#### Opcodes

```
  0: 0x0195 [0x66] LOAD_EXT_SCHEDULER_MAIN: Load scheduler "thk1" with entities [Bogharg (ID: 17780782/0x010F502E), Bogharg (ID: 17780782/0x010F502E)], work=69*
  1: 0x01A4 [0x00] END_REQSTACK()
```

### Event 65535.17

#### Metadata

| Field        | Value    |
|--------------|----------|
| Entrypoint   | 0x01A5   |
| Data Size    | 16 bytes |
| Instructions | 2        |

```
      00 01 02 03 04 05 06 07  08 09 0A 0B 0C 0D 0E 0F
      -- -- -- -- -- -- -- --  -- -- -- -- -- -- -- --
01A0:                66 1E 80  2E 50 0F 01 2E 50 0F 01       f...P...P..
01B0: 74 68 6B 32 00                                    thk2.           
```

#### Opcodes

```
  0: 0x01A5 [0x66] LOAD_EXT_SCHEDULER_MAIN: Load scheduler "thk2" with entities [Bogharg (ID: 17780782/0x010F502E), Bogharg (ID: 17780782/0x010F502E)], work=69*
  1: 0x01B4 [0x00] END_REQSTACK()
```

### Event 65535.18

#### Metadata

| Field        | Value    |
|--------------|----------|
| Entrypoint   | 0x01B5   |
| Data Size    | 20 bytes |
| Instructions | 5        |

```
      00 01 02 03 04 05 06 07  08 09 0A 0B 0C 0D 0E 0F
      -- -- -- -- -- -- -- --  -- -- -- -- -- -- -- --
01B0:                59 04 2E  50 0F 01 09 80 1F 00 1F       Y..P.......
01C0: 80 20 80 12 80 1F 01 6F  00                       . .....o.       
```

#### Opcodes

```
  0: 0x01B5 [0x59] UPDATE_ENTITY_DATA: Set Bogharg (ID: 17780782/0x010F502E) main speed = 12* * 0.1
  1: 0x01BD [0x1F] MOVE_ENTITY: EventEntity moves to X=-56.992*, Z=-88.050*, Y=5.999*
  2: 0x01C5 [0x1F] MOVE_ENTITY: Update entity position (mode=1)
  3: 0x01C7 [0x6F] WAIT_FRAME_DELAY: Yield until WaitTime reaches zero
  4: 0x01C8 [0x00] END_REQSTACK()
```

### Event 65535.19

#### Metadata

| Field        | Value    |
|--------------|----------|
| Entrypoint   | 0x01C9   |
| Data Size    | 17 bytes |
| Instructions | 2        |

```
      00 01 02 03 04 05 06 07  08 09 0A 0B 0C 0D 0E 0F
      -- -- -- -- -- -- -- --  -- -- -- -- -- -- -- --
01C0:                             5B 21 80 2E 50 0F 01           [!..P..
01D0: 2E 50 0F 01 6F 70 30 30  00 00                    .P..op00..      
```

#### Opcodes

```
  0: 0x01C9 [0x5B] LOAD_EXT_SCHEDULER: Load scheduler "op00" with entities [Bogharg (ID: 17780782/0x010F502E), Bogharg (ID: 17780782/0x010F502E)], work=2621*
  1: 0x01D8 [0x00] END_REQSTACK()
```

#### Data or dead code:

```
# Dead code (unreachable instructions):
     0x01D9 [0x00] END_REQSTACK()
```

### Event 65535.20

#### Metadata

| Field        | Value    |
|--------------|----------|
| Entrypoint   | 0x01DA   |
| Data Size    | 20 bytes |
| Instructions | 5        |

```
      00 01 02 03 04 05 06 07  08 09 0A 0B 0C 0D 0E 0F
      -- -- -- -- -- -- -- --  -- -- -- -- -- -- -- --
01D0:                                59 04 31 50 0F 01            Y.1P..
01E0: 0D 80 1F 00 14 80 15 80  0C 80 1F 01 6F 00        ............o.  
```

#### Opcodes

```
  0: 0x01DA [0x59] UPDATE_ENTITY_DATA: Set Nakho Jawantal (ID: 17780785/0x010F5031) main speed = 11* * 0.1
  1: 0x01E2 [0x1F] MOVE_ENTITY: EventEntity moves to X=-83.944*, Z=-128.625*, Y=0.000*
  2: 0x01EA [0x1F] MOVE_ENTITY: Update entity position (mode=1)
  3: 0x01EC [0x6F] WAIT_FRAME_DELAY: Yield until WaitTime reaches zero
  4: 0x01ED [0x00] END_REQSTACK()
```

### Event 65535.21

#### Metadata

| Field        | Value    |
|--------------|----------|
| Entrypoint   | 0x01EE   |
| Data Size    | 16 bytes |
| Instructions | 2        |

```
      00 01 02 03 04 05 06 07  08 09 0A 0B 0C 0D 0E 0F
      -- -- -- -- -- -- -- --  -- -- -- -- -- -- -- --
01E0:                                            5B 22                ["
01F0: 80 12 50 0F 01 12 50 0F  01 6F 70 61 30 00        ..P...P..opa0.  
```

#### Opcodes

```
  0: 0x01EE [0x5B] LOAD_EXT_SCHEDULER: Load scheduler "opa0" with entities [Tovrutaux (ID: 17780754/0x010F5012), Tovrutaux (ID: 17780754/0x010F5012)], work=2627*
  1: 0x01FD [0x00] END_REQSTACK()
```

### Event 65535.22

#### Metadata

| Field        | Value    |
|--------------|----------|
| Entrypoint   | 0x01FE   |
| Data Size    | 16 bytes |
| Instructions | 2        |

```
      00 01 02 03 04 05 06 07  08 09 0A 0B 0C 0D 0E 0F
      -- -- -- -- -- -- -- --  -- -- -- -- -- -- -- --
01F0:                                            5B 22                ["
0200: 80 12 50 0F 01 12 50 0F  01 6F 70 61 31 00        ..P...P..opa1.  
```

#### Opcodes

```
  0: 0x01FE [0x5B] LOAD_EXT_SCHEDULER: Load scheduler "opa1" with entities [Tovrutaux (ID: 17780754/0x010F5012), Tovrutaux (ID: 17780754/0x010F5012)], work=2627*
  1: 0x020D [0x00] END_REQSTACK()
```

### Event 65535.23

#### Metadata

| Field        | Value    |
|--------------|----------|
| Entrypoint   | 0x020E   |
| Data Size    | 16 bytes |
| Instructions | 2        |

```
      00 01 02 03 04 05 06 07  08 09 0A 0B 0C 0D 0E 0F
      -- -- -- -- -- -- -- --  -- -- -- -- -- -- -- --
0200:                                            5B 22                ["
0210: 80 12 50 0F 01 12 50 0F  01 6F 70 61 32 00        ..P...P..opa2.  
```

#### Opcodes

```
  0: 0x020E [0x5B] LOAD_EXT_SCHEDULER: Load scheduler "opa2" with entities [Tovrutaux (ID: 17780754/0x010F5012), Tovrutaux (ID: 17780754/0x010F5012)], work=2627*
  1: 0x021D [0x00] END_REQSTACK()
```

### Event 65535.24

#### Metadata

| Field        | Value    |
|--------------|----------|
| Entrypoint   | 0x021E   |
| Data Size    | 16 bytes |
| Instructions | 2        |

```
      00 01 02 03 04 05 06 07  08 09 0A 0B 0C 0D 0E 0F
      -- -- -- -- -- -- -- --  -- -- -- -- -- -- -- --
0210:                                            5B 23                [#
0220: 80 12 50 0F 01 12 50 0F  01 74 68 6B 31 00        ..P...P..thk1.  
```

#### Opcodes

```
  0: 0x021E [0x5B] LOAD_EXT_SCHEDULER: Load scheduler "thk1" with entities [Tovrutaux (ID: 17780754/0x010F5012), Tovrutaux (ID: 17780754/0x010F5012)], work=75*
  1: 0x022D [0x00] END_REQSTACK()
```

### Event 65535.25

#### Metadata

| Field        | Value    |
|--------------|----------|
| Entrypoint   | 0x022E   |
| Data Size    | 16 bytes |
| Instructions | 2        |

```
      00 01 02 03 04 05 06 07  08 09 0A 0B 0C 0D 0E 0F
      -- -- -- -- -- -- -- --  -- -- -- -- -- -- -- --
0220:                                            5B 23                [#
0230: 80 12 50 0F 01 12 50 0F  01 74 68 6B 32 00        ..P...P..thk2.  
```

#### Opcodes

```
  0: 0x022E [0x5B] LOAD_EXT_SCHEDULER: Load scheduler "thk2" with entities [Tovrutaux (ID: 17780754/0x010F5012), Tovrutaux (ID: 17780754/0x010F5012)], work=75*
  1: 0x023D [0x00] END_REQSTACK()
```

### Event 65535.26

#### Metadata

| Field        | Value    |
|--------------|----------|
| Entrypoint   | 0x023E   |
| Data Size    | 16 bytes |
| Instructions | 2        |

```
      00 01 02 03 04 05 06 07  08 09 0A 0B 0C 0D 0E 0F
      -- -- -- -- -- -- -- --  -- -- -- -- -- -- -- --
0230:                                            5B 23                [#
0240: 80 12 50 0F 01 12 50 0F  01 74 6C 6B 30 00        ..P...P..tlk0.  
```

#### Opcodes

```
  0: 0x023E [0x5B] LOAD_EXT_SCHEDULER: Load scheduler "tlk0" with entities [Tovrutaux (ID: 17780754/0x010F5012), Tovrutaux (ID: 17780754/0x010F5012)], work=75*
  1: 0x024D [0x00] END_REQSTACK()
```

### Event 65535.27

#### Metadata

| Field        | Value    |
|--------------|----------|
| Entrypoint   | 0x024E   |
| Data Size    | 16 bytes |
| Instructions | 2        |

```
      00 01 02 03 04 05 06 07  08 09 0A 0B 0C 0D 0E 0F
      -- -- -- -- -- -- -- --  -- -- -- -- -- -- -- --
0240:                                            5B 23                [#
0250: 80 12 50 0F 01 12 50 0F  01 74 6C 6B 31 00        ..P...P..tlk1.  
```

#### Opcodes

```
  0: 0x024E [0x5B] LOAD_EXT_SCHEDULER: Load scheduler "tlk1" with entities [Tovrutaux (ID: 17780754/0x010F5012), Tovrutaux (ID: 17780754/0x010F5012)], work=75*
  1: 0x025D [0x00] END_REQSTACK()
```

### Event 65535.28

#### Metadata

| Field        | Value    |
|--------------|----------|
| Entrypoint   | 0x025E   |
| Data Size    | 12 bytes |
| Instructions | 4        |

```
      00 01 02 03 04 05 06 07  08 09 0A 0B 0C 0D 0E 0F
      -- -- -- -- -- -- -- --  -- -- -- -- -- -- -- --
0250:                                            1F 00                ..
0260: 24 80 25 80 0C 80 1F 01  6F 00                    $.%.....o.      
```

#### Opcodes

```
  0: 0x025E [0x1F] MOVE_ENTITY: EventEntity moves to X=-19.954*, Z=-20.950*, Y=0.000*
  1: 0x0266 [0x1F] MOVE_ENTITY: Update entity position (mode=1)
  2: 0x0268 [0x6F] WAIT_FRAME_DELAY: Yield until WaitTime reaches zero
  3: 0x0269 [0x00] END_REQSTACK()
```

### Event 65535.29

#### Metadata

| Field        | Value    |
|--------------|----------|
| Entrypoint   | 0x026A   |
| Data Size    | 20 bytes |
| Instructions | 5        |

```
      00 01 02 03 04 05 06 07  08 09 0A 0B 0C 0D 0E 0F
      -- -- -- -- -- -- -- --  -- -- -- -- -- -- -- --
0260:                                59 04 13 50 0F 01            Y..P..
0270: 0D 80 1F 00 26 80 27 80  12 80 1F 01 6F 00        ....&.'.....o.  
```

#### Opcodes

```
  0: 0x026A [0x59] UPDATE_ENTITY_DATA: Set Seyaya (ID: 17780755/0x010F5013) main speed = 11* * 0.1
  1: 0x0272 [0x1F] MOVE_ENTITY: EventEntity moves to X=-74.699*, Z=-107.115*, Y=5.999*
  2: 0x027A [0x1F] MOVE_ENTITY: Update entity position (mode=1)
  3: 0x027C [0x6F] WAIT_FRAME_DELAY: Yield until WaitTime reaches zero
  4: 0x027D [0x00] END_REQSTACK()
```

### Event 65535.30

#### Metadata

| Field        | Value    |
|--------------|----------|
| Entrypoint   | 0x027E   |
| Data Size    | 17 bytes |
| Instructions | 2        |

```
      00 01 02 03 04 05 06 07  08 09 0A 0B 0C 0D 0E 0F
      -- -- -- -- -- -- -- --  -- -- -- -- -- -- -- --
0270:                                            5B 28                [(
0280: 80 13 50 0F 01 13 50 0F  01 6F 70 61 30 00 00     ..P...P..opa0.. 
```

#### Opcodes

```
  0: 0x027E [0x5B] LOAD_EXT_SCHEDULER: Load scheduler "opa0" with entities [Seyaya (ID: 17780755/0x010F5013), Seyaya (ID: 17780755/0x010F5013)], work=2631*
  1: 0x028D [0x00] END_REQSTACK()
```

#### Data or dead code:

```
# Dead code (unreachable instructions):
     0x028E [0x00] END_REQSTACK()
```

### Event 65535.31

#### Metadata

| Field        | Value    |
|--------------|----------|
| Entrypoint   | 0x028F   |
| Data Size    | 17 bytes |
| Instructions | 2        |

```
      00 01 02 03 04 05 06 07  08 09 0A 0B 0C 0D 0E 0F
      -- -- -- -- -- -- -- --  -- -- -- -- -- -- -- --
0280:                                               5B                 [
0290: 28 80 13 50 0F 01 13 50  0F 01 6F 70 61 31 00 00  (..P...P..opa1..
```

#### Opcodes

```
  0: 0x028F [0x5B] LOAD_EXT_SCHEDULER: Load scheduler "opa1" with entities [Seyaya (ID: 17780755/0x010F5013), Seyaya (ID: 17780755/0x010F5013)], work=2631*
  1: 0x029E [0x00] END_REQSTACK()
```

#### Data or dead code:

```
# Dead code (unreachable instructions):
     0x029F [0x00] END_REQSTACK()
```

### Event 65535.32

#### Metadata

| Field        | Value    |
|--------------|----------|
| Entrypoint   | 0x02A0   |
| Data Size    | 16 bytes |
| Instructions | 2        |

```
      00 01 02 03 04 05 06 07  08 09 0A 0B 0C 0D 0E 0F
      -- -- -- -- -- -- -- --  -- -- -- -- -- -- -- --
02A0: 5B 28 80 13 50 0F 01 13  50 0F 01 6F 70 61 32 00  [(..P...P..opa2.
```

#### Opcodes

```
  0: 0x02A0 [0x5B] LOAD_EXT_SCHEDULER: Load scheduler "opa2" with entities [Seyaya (ID: 17780755/0x010F5013), Seyaya (ID: 17780755/0x010F5013)], work=2631*
  1: 0x02AF [0x00] END_REQSTACK()
```

### Event 65535.33

#### Metadata

| Field        | Value    |
|--------------|----------|
| Entrypoint   | 0x02B0   |
| Data Size    | 16 bytes |
| Instructions | 2        |

```
      00 01 02 03 04 05 06 07  08 09 0A 0B 0C 0D 0E 0F
      -- -- -- -- -- -- -- --  -- -- -- -- -- -- -- --
02B0: 5B 29 80 13 50 0F 01 13  50 0F 01 74 68 6B 31 00  [)..P...P..thk1.
```

#### Opcodes

```
  0: 0x02B0 [0x5B] LOAD_EXT_SCHEDULER: Load scheduler "thk1" with entities [Seyaya (ID: 17780755/0x010F5013), Seyaya (ID: 17780755/0x010F5013)], work=85*
  1: 0x02BF [0x00] END_REQSTACK()
```

### Event 65535.34

#### Metadata

| Field        | Value    |
|--------------|----------|
| Entrypoint   | 0x02C0   |
| Data Size    | 16 bytes |
| Instructions | 2        |

```
      00 01 02 03 04 05 06 07  08 09 0A 0B 0C 0D 0E 0F
      -- -- -- -- -- -- -- --  -- -- -- -- -- -- -- --
02C0: 5B 29 80 13 50 0F 01 13  50 0F 01 74 68 6B 32 00  [)..P...P..thk2.
```

#### Opcodes

```
  0: 0x02C0 [0x5B] LOAD_EXT_SCHEDULER: Load scheduler "thk2" with entities [Seyaya (ID: 17780755/0x010F5013), Seyaya (ID: 17780755/0x010F5013)], work=85*
  1: 0x02CF [0x00] END_REQSTACK()
```

### Event 65535.35

#### Metadata

| Field        | Value    |
|--------------|----------|
| Entrypoint   | 0x02D0   |
| Data Size    | 16 bytes |
| Instructions | 2        |

```
      00 01 02 03 04 05 06 07  08 09 0A 0B 0C 0D 0E 0F
      -- -- -- -- -- -- -- --  -- -- -- -- -- -- -- --
02D0: 5B 29 80 13 50 0F 01 13  50 0F 01 74 6C 6B 30 00  [)..P...P..tlk0.
```

#### Opcodes

```
  0: 0x02D0 [0x5B] LOAD_EXT_SCHEDULER: Load scheduler "tlk0" with entities [Seyaya (ID: 17780755/0x010F5013), Seyaya (ID: 17780755/0x010F5013)], work=85*
  1: 0x02DF [0x00] END_REQSTACK()
```

### Event 65535.36

#### Metadata

| Field        | Value    |
|--------------|----------|
| Entrypoint   | 0x02E0   |
| Data Size    | 16 bytes |
| Instructions | 2        |

```
      00 01 02 03 04 05 06 07  08 09 0A 0B 0C 0D 0E 0F
      -- -- -- -- -- -- -- --  -- -- -- -- -- -- -- --
02E0: 5B 29 80 13 50 0F 01 13  50 0F 01 74 6C 6B 65 00  [)..P...P..tlke.
```

#### Opcodes

```
  0: 0x02E0 [0x5B] LOAD_EXT_SCHEDULER: Load scheduler "tlke" with entities [Seyaya (ID: 17780755/0x010F5013), Seyaya (ID: 17780755/0x010F5013)], work=85*
  1: 0x02EF [0x00] END_REQSTACK()
```

### Event 65535.37

#### Metadata

| Field        | Value    |
|--------------|----------|
| Entrypoint   | 0x02F0   |
| Data Size    | 16 bytes |
| Instructions | 2        |

```
      00 01 02 03 04 05 06 07  08 09 0A 0B 0C 0D 0E 0F
      -- -- -- -- -- -- -- --  -- -- -- -- -- -- -- --
02F0: 5B 29 80 13 50 0F 01 13  50 0F 01 62 61 6E 30 00  [)..P...P..ban0.
```

#### Opcodes

```
  0: 0x02F0 [0x5B] LOAD_EXT_SCHEDULER: Load scheduler "ban0" with entities [Seyaya (ID: 17780755/0x010F5013), Seyaya (ID: 17780755/0x010F5013)], work=85*
  1: 0x02FF [0x00] END_REQSTACK()
```

### Event 65535.38

#### Metadata

| Field        | Value    |
|--------------|----------|
| Entrypoint   | 0x0300   |
| Data Size    | 13 bytes |
| Instructions | 4        |

```
      00 01 02 03 04 05 06 07  08 09 0A 0B 0C 0D 0E 0F
      -- -- -- -- -- -- -- --  -- -- -- -- -- -- -- --
0300: 1F 00 2A 80 2B 80 0C 80  1F 01 6F 00 00           ..*.+.....o..   
```

#### Opcodes

```
  0: 0x0300 [0x1F] MOVE_ENTITY: EventEntity moves to X=-19.857*, Z=-21.712*, Y=0.000*
  1: 0x0308 [0x1F] MOVE_ENTITY: Update entity position (mode=1)
  2: 0x030A [0x6F] WAIT_FRAME_DELAY: Yield until WaitTime reaches zero
  3: 0x030B [0x00] END_REQSTACK()
```

#### Data or dead code:

```
# Dead code (unreachable instructions):
     0x030C [0x00] END_REQSTACK()
```

### Event 65535.39

#### Metadata

| Field        | Value    |
|--------------|----------|
| Entrypoint   | 0x030D   |
| Data Size    | 20 bytes |
| Instructions | 5        |

```
      00 01 02 03 04 05 06 07  08 09 0A 0B 0C 0D 0E 0F
      -- -- -- -- -- -- -- --  -- -- -- -- -- -- -- --
0300:                                         59 04 C0               Y..
0310: 50 0F 01 2C 80 1F 00 2D  80 2E 80 0C 80 1F 01 6F  P..,...-.......o
0320: 00                                                .               
```

#### Opcodes

```
  0: 0x030D [0x59] UPDATE_ENTITY_DATA: Set Rakuru-Rakoru (ID: 17780928/0x010F50C0) main speed = 14* * 0.1
  1: 0x0315 [0x1F] MOVE_ENTITY: EventEntity moves to X=-37.763*, Z=-62.812*, Y=0.000*
  2: 0x031D [0x1F] MOVE_ENTITY: Update entity position (mode=1)
  3: 0x031F [0x6F] WAIT_FRAME_DELAY: Yield until WaitTime reaches zero
  4: 0x0320 [0x00] END_REQSTACK()
```

### Event 65535.40

#### Metadata

| Field        | Value    |
|--------------|----------|
| Entrypoint   | 0x0321   |
| Data Size    | 12 bytes |
| Instructions | 4        |

```
      00 01 02 03 04 05 06 07  08 09 0A 0B 0C 0D 0E 0F
      -- -- -- -- -- -- -- --  -- -- -- -- -- -- -- --
0320:    1F 00 2F 80 30 80 31  80 1F 01 6F 00            ../.0.1...o.   
```

#### Opcodes

```
  0: 0x0321 [0x1F] MOVE_ENTITY: EventEntity moves to X=-13.366*, Z=2.528*, Y=-0.449*
  1: 0x0329 [0x1F] MOVE_ENTITY: Update entity position (mode=1)
  2: 0x032B [0x6F] WAIT_FRAME_DELAY: Yield until WaitTime reaches zero
  3: 0x032C [0x00] END_REQSTACK()
```

### Event 65535.41

#### Metadata

| Field        | Value    |
|--------------|----------|
| Entrypoint   | 0x032D   |
| Data Size    | 16 bytes |
| Instructions | 2        |

```
      00 01 02 03 04 05 06 07  08 09 0A 0B 0C 0D 0E 0F
      -- -- -- -- -- -- -- --  -- -- -- -- -- -- -- --
0320:                                         66 32 80               f2.
0330: C0 50 0F 01 C0 50 0F 01  74 6C 6B 30 00           .P...P..tlk0.   
```

#### Opcodes

```
  0: 0x032D [0x66] LOAD_EXT_SCHEDULER_MAIN: Load scheduler "tlk0" with entities [Rakuru-Rakoru (ID: 17780928/0x010F50C0), Rakuru-Rakoru (ID: 17780928/0x010F50C0)], work=40*
  1: 0x033C [0x00] END_REQSTACK()
```

### Event 65535.42

#### Metadata

| Field        | Value    |
|--------------|----------|
| Entrypoint   | 0x033D   |
| Data Size    | 16 bytes |
| Instructions | 2        |

```
      00 01 02 03 04 05 06 07  08 09 0A 0B 0C 0D 0E 0F
      -- -- -- -- -- -- -- --  -- -- -- -- -- -- -- --
0330:                                         66 33 80               f3.
0340: C0 50 0F 01 C0 50 0F 01  65 68 6E 31 00           .P...P..ehn1.   
```

#### Opcodes

```
  0: 0x033D [0x66] LOAD_EXT_SCHEDULER_MAIN: Load scheduler "ehn1" with entities [Rakuru-Rakoru (ID: 17780928/0x010F50C0), Rakuru-Rakoru (ID: 17780928/0x010F50C0)], work=41*
  1: 0x034C [0x00] END_REQSTACK()
```

### Event 65535.43

#### Metadata

| Field        | Value    |
|--------------|----------|
| Entrypoint   | 0x034D   |
| Data Size    | 16 bytes |
| Instructions | 2        |

```
      00 01 02 03 04 05 06 07  08 09 0A 0B 0C 0D 0E 0F
      -- -- -- -- -- -- -- --  -- -- -- -- -- -- -- --
0340:                                         66 32 80               f2.
0350: C0 50 0F 01 C0 50 0F 01  6D 6F 6A 30 00           .P...P..moj0.   
```

#### Opcodes

```
  0: 0x034D [0x66] LOAD_EXT_SCHEDULER_MAIN: Load scheduler "moj0" with entities [Rakuru-Rakoru (ID: 17780928/0x010F50C0), Rakuru-Rakoru (ID: 17780928/0x010F50C0)], work=40*
  1: 0x035C [0x00] END_REQSTACK()
```

### Event 65535.44

#### Metadata

| Field        | Value    |
|--------------|----------|
| Entrypoint   | 0x035D   |
| Data Size    | 20 bytes |
| Instructions | 5        |

```
      00 01 02 03 04 05 06 07  08 09 0A 0B 0C 0D 0E 0F
      -- -- -- -- -- -- -- --  -- -- -- -- -- -- -- --
0350:                                         59 04 C0               Y..
0360: 50 0F 01 2C 80 1F 00 34  80 35 80 12 80 1F 01 6F  P..,...4.5.....o
0370: 00                                                .               
```

#### Opcodes

```
  0: 0x035D [0x59] UPDATE_ENTITY_DATA: Set Rakuru-Rakoru (ID: 17780928/0x010F50C0) main speed = 14* * 0.1
  1: 0x0365 [0x1F] MOVE_ENTITY: EventEntity moves to X=-71.130*, Z=-110.791*, Y=5.999*
  2: 0x036D [0x1F] MOVE_ENTITY: Update entity position (mode=1)
  3: 0x036F [0x6F] WAIT_FRAME_DELAY: Yield until WaitTime reaches zero
  4: 0x0370 [0x00] END_REQSTACK()
```

### Event 65535.45

#### Metadata

| Field        | Value    |
|--------------|----------|
| Entrypoint   | 0x0371   |
| Data Size    | 29 bytes |
| Instructions | 6        |

```
      00 01 02 03 04 05 06 07  08 09 0A 0B 0C 0D 0E 0F
      -- -- -- -- -- -- -- --  -- -- -- -- -- -- -- --
0370:    59 04 C0 50 0F 01 2C  80 1F 00 36 80 37 80 12   Y..P..,...6.7..
0380: 80 1F 01 5A 00 38 80 39  80 3A 80 5A 01 00        ...Z.8.9.:.Z..  
```

#### Opcodes

```
  0: 0x0371 [0x59] UPDATE_ENTITY_DATA: Set Rakuru-Rakoru (ID: 17780928/0x010F50C0) main speed = 14* * 0.1
  1: 0x0379 [0x1F] MOVE_ENTITY: EventEntity moves to X=-75.540*, Z=-116.545*, Y=5.999*
  2: 0x0381 [0x1F] MOVE_ENTITY: Update entity position (mode=1)
  3: 0x0383 [0x5A] UPDATE_EVENT_POSITION: Set EventEntity MovePosition to X=-80.452*, Z=-125.376*, Y=0.999*
  4: 0x038B [0x5A] UPDATE_EVENT_POSITION: Move EventEntity incrementally towards MovePosition
  5: 0x038D [0x00] END_REQSTACK()
```

### Event 65535.46

#### Metadata

| Field        | Value    |
|--------------|----------|
| Entrypoint   | 0x038E   |
| Data Size    | 17 bytes |
| Instructions | 2        |

```
      00 01 02 03 04 05 06 07  08 09 0A 0B 0C 0D 0E 0F
      -- -- -- -- -- -- -- --  -- -- -- -- -- -- -- --
0380:                                            5B 3B                [;
0390: 80 C0 50 0F 01 C0 50 0F  01 62 6F 70 30 00 00     ..P...P..bop0.. 
```

#### Opcodes

```
  0: 0x038E [0x5B] LOAD_EXT_SCHEDULER: Load scheduler "bop0" with entities [Rakuru-Rakoru (ID: 17780928/0x010F50C0), Rakuru-Rakoru (ID: 17780928/0x010F50C0)], work=2611*
  1: 0x039D [0x00] END_REQSTACK()
```

#### Data or dead code:

```
# Dead code (unreachable instructions):
     0x039E [0x00] END_REQSTACK()
```

### Event 65535.47

#### Metadata

| Field        | Value    |
|--------------|----------|
| Entrypoint   | 0x039F   |
| Data Size    | 20 bytes |
| Instructions | 5        |

```
      00 01 02 03 04 05 06 07  08 09 0A 0B 0C 0D 0E 0F
      -- -- -- -- -- -- -- --  -- -- -- -- -- -- -- --
0390:                                               59                 Y
03A0: 04 25 50 0F 01 3C 80 1F  00 14 80 15 80 0C 80 1F  .%P..<..........
03B0: 01 6F 00                                          .o.             
```

#### Opcodes

```
  0: 0x039F [0x59] UPDATE_ENTITY_DATA: Set Sutarara (ID: 17780773/0x010F5025) main speed = 13* * 0.1
  1: 0x03A7 [0x1F] MOVE_ENTITY: EventEntity moves to X=-83.944*, Z=-128.625*, Y=0.000*
  2: 0x03AF [0x1F] MOVE_ENTITY: Update entity position (mode=1)
  3: 0x03B1 [0x6F] WAIT_FRAME_DELAY: Yield until WaitTime reaches zero
  4: 0x03B2 [0x00] END_REQSTACK()
```

### Event 65535.48

#### Metadata

| Field        | Value    |
|--------------|----------|
| Entrypoint   | 0x03B3   |
| Data Size    | 20 bytes |
| Instructions | 5        |

```
      00 01 02 03 04 05 06 07  08 09 0A 0B 0C 0D 0E 0F
      -- -- -- -- -- -- -- --  -- -- -- -- -- -- -- --
03B0:          59 04 25 50 0F  01 3C 80 1F 00 3D 80 3E     Y.%P..<...=.>
03C0: 80 12 80 1F 01 6F 00                              .....o.         
```

#### Opcodes

```
  0: 0x03B3 [0x59] UPDATE_ENTITY_DATA: Set Sutarara (ID: 17780773/0x010F5025) main speed = 13* * 0.1
  1: 0x03BB [0x1F] MOVE_ENTITY: EventEntity moves to X=-64.287*, Z=-102.136*, Y=5.999*
  2: 0x03C3 [0x1F] MOVE_ENTITY: Update entity position (mode=1)
  3: 0x03C5 [0x6F] WAIT_FRAME_DELAY: Yield until WaitTime reaches zero
  4: 0x03C6 [0x00] END_REQSTACK()
```

### Event 65535.49

#### Metadata

| Field        | Value    |
|--------------|----------|
| Entrypoint   | 0x03C7   |
| Data Size    | 20 bytes |
| Instructions | 5        |

```
      00 01 02 03 04 05 06 07  08 09 0A 0B 0C 0D 0E 0F
      -- -- -- -- -- -- -- --  -- -- -- -- -- -- -- --
03C0:                      59  04 25 50 0F 01 3C 80 1F         Y.%P..<..
03D0: 00 3F 80 40 80 0C 80 1F  01 6F 00                 .?.@.....o.     
```

#### Opcodes

```
  0: 0x03C7 [0x59] UPDATE_ENTITY_DATA: Set Sutarara (ID: 17780773/0x010F5025) main speed = 13* * 0.1
  1: 0x03CF [0x1F] MOVE_ENTITY: EventEntity moves to X=4.236*, Z=4.336*, Y=0.000*
  2: 0x03D7 [0x1F] MOVE_ENTITY: Update entity position (mode=1)
  3: 0x03D9 [0x6F] WAIT_FRAME_DELAY: Yield until WaitTime reaches zero
  4: 0x03DA [0x00] END_REQSTACK()
```

### Event 65535.50

#### Metadata

| Field        | Value    |
|--------------|----------|
| Entrypoint   | 0x03DB   |
| Data Size    | 20 bytes |
| Instructions | 5        |

```
      00 01 02 03 04 05 06 07  08 09 0A 0B 0C 0D 0E 0F
      -- -- -- -- -- -- -- --  -- -- -- -- -- -- -- --
03D0:                                   59 04 34 50 0F             Y.4P.
03E0: 01 09 80 1F 00 41 80 42  80 43 80 1F 01 6F 00     .....A.B.C...o. 
```

#### Opcodes

```
  0: 0x03DB [0x59] UPDATE_ENTITY_DATA: Set Venika (ID: 17780788/0x010F5034) main speed = 12* * 0.1
  1: 0x03E3 [0x1F] MOVE_ENTITY: EventEntity moves to X=-15.376*, Z=-23.775*, Y=-0.101*
  2: 0x03EB [0x1F] MOVE_ENTITY: Update entity position (mode=1)
  3: 0x03ED [0x6F] WAIT_FRAME_DELAY: Yield until WaitTime reaches zero
  4: 0x03EE [0x00] END_REQSTACK()
```

### Event 65535.51

#### Metadata

| Field        | Value    |
|--------------|----------|
| Entrypoint   | 0x03EF   |
| Data Size    | 20 bytes |
| Instructions | 5        |

```
      00 01 02 03 04 05 06 07  08 09 0A 0B 0C 0D 0E 0F
      -- -- -- -- -- -- -- --  -- -- -- -- -- -- -- --
03E0:                                               59                 Y
03F0: 04 34 50 0F 01 44 80 1F  00 3D 80 3E 80 12 80 1F  .4P..D...=.>....
0400: 01 6F 00                                          .o.             
```

#### Opcodes

```
  0: 0x03EF [0x59] UPDATE_ENTITY_DATA: Set Venika (ID: 17780788/0x010F5034) main speed = 10* * 0.1
  1: 0x03F7 [0x1F] MOVE_ENTITY: EventEntity moves to X=-64.287*, Z=-102.136*, Y=5.999*
  2: 0x03FF [0x1F] MOVE_ENTITY: Update entity position (mode=1)
  3: 0x0401 [0x6F] WAIT_FRAME_DELAY: Yield until WaitTime reaches zero
  4: 0x0402 [0x00] END_REQSTACK()
```

### Event 65535.52

#### Metadata

| Field        | Value    |
|--------------|----------|
| Entrypoint   | 0x0403   |
| Data Size    | 16 bytes |
| Instructions | 2        |

```
      00 01 02 03 04 05 06 07  08 09 0A 0B 0C 0D 0E 0F
      -- -- -- -- -- -- -- --  -- -- -- -- -- -- -- --
0400:          5B 45 80 34 50  0F 01 34 50 0F 01 6F 70     [E.4P..4P..op
0410: 62 30 00                                          b0.             
```

#### Opcodes

```
  0: 0x0403 [0x5B] LOAD_EXT_SCHEDULER: Load scheduler "opb0" with entities [Venika (ID: 17780788/0x010F5034), Venika (ID: 17780788/0x010F5034)], work=2584*
  1: 0x0412 [0x00] END_REQSTACK()
```

### Event 65535.53

#### Metadata

| Field        | Value    |
|--------------|----------|
| Entrypoint   | 0x0413   |
| Data Size    | 16 bytes |
| Instructions | 2        |

```
      00 01 02 03 04 05 06 07  08 09 0A 0B 0C 0D 0E 0F
      -- -- -- -- -- -- -- --  -- -- -- -- -- -- -- --
0410:          5B 45 80 34 50  0F 01 34 50 0F 01 6F 70     [E.4P..4P..op
0420: 62 31 00                                          b1.             
```

#### Opcodes

```
  0: 0x0413 [0x5B] LOAD_EXT_SCHEDULER: Load scheduler "opb1" with entities [Venika (ID: 17780788/0x010F5034), Venika (ID: 17780788/0x010F5034)], work=2584*
  1: 0x0422 [0x00] END_REQSTACK()
```

### Event 65535.54

#### Metadata

| Field        | Value    |
|--------------|----------|
| Entrypoint   | 0x0423   |
| Data Size    | 20 bytes |
| Instructions | 5        |

```
      00 01 02 03 04 05 06 07  08 09 0A 0B 0C 0D 0E 0F
      -- -- -- -- -- -- -- --  -- -- -- -- -- -- -- --
0420:          59 04 34 50 0F  01 09 80 1F 00 46 80 47     Y.4P......F.G
0430: 80 0C 80 1F 01 6F 00                              .....o.         
```

#### Opcodes

```
  0: 0x0423 [0x59] UPDATE_ENTITY_DATA: Set Venika (ID: 17780788/0x010F5034) main speed = 12* * 0.1
  1: 0x042B [0x1F] MOVE_ENTITY: EventEntity moves to X=-0.991*, Z=2.123*, Y=0.000*
  2: 0x0433 [0x1F] MOVE_ENTITY: Update entity position (mode=1)
  3: 0x0435 [0x6F] WAIT_FRAME_DELAY: Yield until WaitTime reaches zero
  4: 0x0436 [0x00] END_REQSTACK()
```

### Event 65535.55

#### Metadata

| Field        | Value    |
|--------------|----------|
| Entrypoint   | 0x0437   |
| Data Size    | 16 bytes |
| Instructions | 2        |

```
      00 01 02 03 04 05 06 07  08 09 0A 0B 0C 0D 0E 0F
      -- -- -- -- -- -- -- --  -- -- -- -- -- -- -- --
0430:                      5B  45 80 34 50 0F 01 34 50         [E.4P..4P
0440: 0F 01 6F 70 63 30 00                              ..opc0.         
```

#### Opcodes

```
  0: 0x0437 [0x5B] LOAD_EXT_SCHEDULER: Load scheduler "opc0" with entities [Venika (ID: 17780788/0x010F5034), Venika (ID: 17780788/0x010F5034)], work=2584*
  1: 0x0446 [0x00] END_REQSTACK()
```

### Event 65535.56

#### Metadata

| Field        | Value    |
|--------------|----------|
| Entrypoint   | 0x0447   |
| Data Size    | 16 bytes |
| Instructions | 2        |

```
      00 01 02 03 04 05 06 07  08 09 0A 0B 0C 0D 0E 0F
      -- -- -- -- -- -- -- --  -- -- -- -- -- -- -- --
0440:                      5B  45 80 34 50 0F 01 34 50         [E.4P..4P
0450: 0F 01 6F 70 63 31 00                              ..opc1.         
```

#### Opcodes

```
  0: 0x0447 [0x5B] LOAD_EXT_SCHEDULER: Load scheduler "opc1" with entities [Venika (ID: 17780788/0x010F5034), Venika (ID: 17780788/0x010F5034)], work=2584*
  1: 0x0456 [0x00] END_REQSTACK()
```

### Event 65535.57

#### Metadata

| Field        | Value    |
|--------------|----------|
| Entrypoint   | 0x0457   |
| Data Size    | 16 bytes |
| Instructions | 2        |

```
      00 01 02 03 04 05 06 07  08 09 0A 0B 0C 0D 0E 0F
      -- -- -- -- -- -- -- --  -- -- -- -- -- -- -- --
0450:                      66  48 80 36 50 0F 01 36 50         fH.6P..6P
0460: 0F 01 61 77 77 30 00                              ..aww0.         
```

#### Opcodes

```
  0: 0x0457 [0x66] LOAD_EXT_SCHEDULER_MAIN: Load scheduler "aww0" with entities [Kuah Dakonsa (ID: 17780790/0x010F5036), Kuah Dakonsa (ID: 17780790/0x010F5036)], work=8*
  1: 0x0466 [0x00] END_REQSTACK()
```

### Event 65535.58

#### Metadata

| Field        | Value    |
|--------------|----------|
| Entrypoint   | 0x0467   |
| Data Size    | 16 bytes |
| Instructions | 2        |

```
      00 01 02 03 04 05 06 07  08 09 0A 0B 0C 0D 0E 0F
      -- -- -- -- -- -- -- --  -- -- -- -- -- -- -- --
0460:                      66  49 80 36 50 0F 01 36 50         fI.6P..6P
0470: 0F 01 74 68 6B 31 00                              ..thk1.         
```

#### Opcodes

```
  0: 0x0467 [0x66] LOAD_EXT_SCHEDULER_MAIN: Load scheduler "thk1" with entities [Kuah Dakonsa (ID: 17780790/0x010F5036), Kuah Dakonsa (ID: 17780790/0x010F5036)], work=51*
  1: 0x0476 [0x00] END_REQSTACK()
```

### Event 65535.59

#### Metadata

| Field        | Value    |
|--------------|----------|
| Entrypoint   | 0x0477   |
| Data Size    | 21 bytes |
| Instructions | 5        |

```
      00 01 02 03 04 05 06 07  08 09 0A 0B 0C 0D 0E 0F
      -- -- -- -- -- -- -- --  -- -- -- -- -- -- -- --
0470:                      59  04 32 50 0F 01 09 80 1F         Y.2P.....
0480: 00 4A 80 4B 80 12 80 1F  01 6F 00 00              .J.K.....o..    
```

#### Opcodes

```
  0: 0x0477 [0x59] UPDATE_ENTITY_DATA: Set Gurdern (ID: 17780786/0x010F5032) main speed = 12* * 0.1
  1: 0x047F [0x1F] MOVE_ENTITY: EventEntity moves to X=-61.958*, Z=-103.267*, Y=5.999*
  2: 0x0487 [0x1F] MOVE_ENTITY: Update entity position (mode=1)
  3: 0x0489 [0x6F] WAIT_FRAME_DELAY: Yield until WaitTime reaches zero
  4: 0x048A [0x00] END_REQSTACK()
```

#### Data or dead code:

```
# Dead code (unreachable instructions):
     0x048B [0x00] END_REQSTACK()
```

### Event 65535.60

#### Metadata

| Field        | Value    |
|--------------|----------|
| Entrypoint   | 0x048C   |
| Data Size    | 20 bytes |
| Instructions | 5        |

```
      00 01 02 03 04 05 06 07  08 09 0A 0B 0C 0D 0E 0F
      -- -- -- -- -- -- -- --  -- -- -- -- -- -- -- --
0480:                                      59 04 32 50              Y.2P
0490: 0F 01 09 80 1F 00 4C 80  4D 80 12 80 1F 01 6F 00  ......L.M.....o.
```

#### Opcodes

```
  0: 0x048C [0x59] UPDATE_ENTITY_DATA: Set Gurdern (ID: 17780786/0x010F5032) main speed = 12* * 0.1
  1: 0x0494 [0x1F] MOVE_ENTITY: EventEntity moves to X=-66.589*, Z=-92.299*, Y=5.999*
  2: 0x049C [0x1F] MOVE_ENTITY: Update entity position (mode=1)
  3: 0x049E [0x6F] WAIT_FRAME_DELAY: Yield until WaitTime reaches zero
  4: 0x049F [0x00] END_REQSTACK()
```

### Event 65535.61

#### Metadata

| Field        | Value    |
|--------------|----------|
| Entrypoint   | 0x04A0   |
| Data Size    | 20 bytes |
| Instructions | 5        |

```
      00 01 02 03 04 05 06 07  08 09 0A 0B 0C 0D 0E 0F
      -- -- -- -- -- -- -- --  -- -- -- -- -- -- -- --
04A0: 59 04 32 50 0F 01 09 80  1F 00 4E 80 4F 80 12 80  Y.2P......N.O...
04B0: 1F 01 6F 00                                       ..o.            
```

#### Opcodes

```
  0: 0x04A0 [0x59] UPDATE_ENTITY_DATA: Set Gurdern (ID: 17780786/0x010F5032) main speed = 12* * 0.1
  1: 0x04A8 [0x1F] MOVE_ENTITY: EventEntity moves to X=-58.931*, Z=-86.942*, Y=5.999*
  2: 0x04B0 [0x1F] MOVE_ENTITY: Update entity position (mode=1)
  3: 0x04B2 [0x6F] WAIT_FRAME_DELAY: Yield until WaitTime reaches zero
  4: 0x04B3 [0x00] END_REQSTACK()
```

### Event 65535.62

#### Metadata

| Field        | Value    |
|--------------|----------|
| Entrypoint   | 0x04B4   |
| Data Size    | 17 bytes |
| Instructions | 2        |

```
      00 01 02 03 04 05 06 07  08 09 0A 0B 0C 0D 0E 0F
      -- -- -- -- -- -- -- --  -- -- -- -- -- -- -- --
04B0:             5B 21 80 32  50 0F 01 32 50 0F 01 6F      [!.2P..2P..o
04C0: 70 30 30 00 00                                    p00..           
```

#### Opcodes

```
  0: 0x04B4 [0x5B] LOAD_EXT_SCHEDULER: Load scheduler "op00" with entities [Gurdern (ID: 17780786/0x010F5032), Gurdern (ID: 17780786/0x010F5032)], work=2621*
  1: 0x04C3 [0x00] END_REQSTACK()
```

#### Data or dead code:

```
# Dead code (unreachable instructions):
     0x04C4 [0x00] END_REQSTACK()
```

### Event 65535.63

#### Metadata

| Field        | Value    |
|--------------|----------|
| Entrypoint   | 0x04C5   |
| Data Size    | 20 bytes |
| Instructions | 5        |

```
      00 01 02 03 04 05 06 07  08 09 0A 0B 0C 0D 0E 0F
      -- -- -- -- -- -- -- --  -- -- -- -- -- -- -- --
04C0:                59 04 1C  50 0F 01 0D 80 1F 00 0E       Y..P.......
04D0: 80 0F 80 0C 80 1F 01 6F  00                       .......o.       
```

#### Opcodes

```
  0: 0x04C5 [0x59] UPDATE_ENTITY_DATA: Set Mertaire (ID: 17780764/0x010F501C) main speed = 11* * 0.1
  1: 0x04CD [0x1F] MOVE_ENTITY: EventEntity moves to X=-95.337*, Z=-156.056*, Y=0.000*
  2: 0x04D5 [0x1F] MOVE_ENTITY: Update entity position (mode=1)
  3: 0x04D7 [0x6F] WAIT_FRAME_DELAY: Yield until WaitTime reaches zero
  4: 0x04D8 [0x00] END_REQSTACK()
```

### Event 65535.64

#### Metadata

| Field        | Value    |
|--------------|----------|
| Entrypoint   | 0x04D9   |
| Data Size    | 20 bytes |
| Instructions | 5        |

```
      00 01 02 03 04 05 06 07  08 09 0A 0B 0C 0D 0E 0F
      -- -- -- -- -- -- -- --  -- -- -- -- -- -- -- --
04D0:                             59 04 1C 50 0F 01 0D           Y..P...
04E0: 80 1F 00 50 80 51 80 52  80 1F 01 6F 00           ...P.Q.R...o.   
```

#### Opcodes

```
  0: 0x04D9 [0x59] UPDATE_ENTITY_DATA: Set Mertaire (ID: 17780764/0x010F501C) main speed = 11* * 0.1
  1: 0x04E1 [0x1F] MOVE_ENTITY: EventEntity moves to X=-78.197*, Z=-116.328*, Y=3.999*
  2: 0x04E9 [0x1F] MOVE_ENTITY: Update entity position (mode=1)
  3: 0x04EB [0x6F] WAIT_FRAME_DELAY: Yield until WaitTime reaches zero
  4: 0x04EC [0x00] END_REQSTACK()
```

### Event 65535.65

#### Metadata

| Field        | Value    |
|--------------|----------|
| Entrypoint   | 0x04ED   |
| Data Size    | 16 bytes |
| Instructions | 2        |

```
      00 01 02 03 04 05 06 07  08 09 0A 0B 0C 0D 0E 0F
      -- -- -- -- -- -- -- --  -- -- -- -- -- -- -- --
04E0:                                         5B 53 80               [S.
04F0: 1C 50 0F 01 1C 50 0F 01  6F 70 63 30 00           .P...P..opc0.   
```

#### Opcodes

```
  0: 0x04ED [0x5B] LOAD_EXT_SCHEDULER: Load scheduler "opc0" with entities [Mertaire (ID: 17780764/0x010F501C), Mertaire (ID: 17780764/0x010F501C)], work=2583*
  1: 0x04FC [0x00] END_REQSTACK()
```

### Event 65535.66

#### Metadata

| Field        | Value    |
|--------------|----------|
| Entrypoint   | 0x04FD   |
| Data Size    | 16 bytes |
| Instructions | 2        |

```
      00 01 02 03 04 05 06 07  08 09 0A 0B 0C 0D 0E 0F
      -- -- -- -- -- -- -- --  -- -- -- -- -- -- -- --
04F0:                                         5B 53 80               [S.
0500: 1C 50 0F 01 1C 50 0F 01  6F 70 63 31 00           .P...P..opc1.   
```

#### Opcodes

```
  0: 0x04FD [0x5B] LOAD_EXT_SCHEDULER: Load scheduler "opc1" with entities [Mertaire (ID: 17780764/0x010F501C), Mertaire (ID: 17780764/0x010F501C)], work=2583*
  1: 0x050C [0x00] END_REQSTACK()
```

### Event 65535.67

#### Metadata

| Field        | Value    |
|--------------|----------|
| Entrypoint   | 0x050D   |
| Data Size    | 21 bytes |
| Instructions | 5        |

```
      00 01 02 03 04 05 06 07  08 09 0A 0B 0C 0D 0E 0F
      -- -- -- -- -- -- -- --  -- -- -- -- -- -- -- --
0500:                                         59 04 1C               Y..
0510: 50 0F 01 0D 80 1F 00 54  80 55 80 0C 80 1F 01 6F  P......T.U.....o
0520: 00 00                                             ..              
```

#### Opcodes

```
  0: 0x050D [0x59] UPDATE_ENTITY_DATA: Set Mertaire (ID: 17780764/0x010F501C) main speed = 11* * 0.1
  1: 0x0515 [0x1F] MOVE_ENTITY: EventEntity moves to X=-9.883*, Z=-9.826*, Y=0.000*
  2: 0x051D [0x1F] MOVE_ENTITY: Update entity position (mode=1)
  3: 0x051F [0x6F] WAIT_FRAME_DELAY: Yield until WaitTime reaches zero
  4: 0x0520 [0x00] END_REQSTACK()
```

#### Data or dead code:

```
# Dead code (unreachable instructions):
     0x0521 [0x00] END_REQSTACK()
```

### Event 65535.68

#### Metadata

| Field        | Value    |
|--------------|----------|
| Entrypoint   | 0x0522   |
| Data Size    | 20 bytes |
| Instructions | 5        |

```
      00 01 02 03 04 05 06 07  08 09 0A 0B 0C 0D 0E 0F
      -- -- -- -- -- -- -- --  -- -- -- -- -- -- -- --
0520:       59 04 1E 50 0F 01  56 80 1F 00 26 80 27 80    Y..P..V...&.'.
0530: 12 80 1F 01 6F 00                                 ....o.          
```

#### Opcodes

```
  0: 0x0522 [0x59] UPDATE_ENTITY_DATA: Set Bki Tbujhja (ID: 17780766/0x010F501E) main speed = 9* * 0.1
  1: 0x052A [0x1F] MOVE_ENTITY: EventEntity moves to X=-74.699*, Z=-107.115*, Y=5.999*
  2: 0x0532 [0x1F] MOVE_ENTITY: Update entity position (mode=1)
  3: 0x0534 [0x6F] WAIT_FRAME_DELAY: Yield until WaitTime reaches zero
  4: 0x0535 [0x00] END_REQSTACK()
```

### Event 65535.69

#### Metadata

| Field        | Value    |
|--------------|----------|
| Entrypoint   | 0x0536   |
| Data Size    | 20 bytes |
| Instructions | 5        |

```
      00 01 02 03 04 05 06 07  08 09 0A 0B 0C 0D 0E 0F
      -- -- -- -- -- -- -- --  -- -- -- -- -- -- -- --
0530:                   59 04  1E 50 0F 01 0D 80 1F 00        Y..P......
0540: 57 80 58 80 12 80 1F 01  6F 00                    W.X.....o.      
```

#### Opcodes

```
  0: 0x0536 [0x59] UPDATE_ENTITY_DATA: Set Bki Tbujhja (ID: 17780766/0x010F501E) main speed = 11* * 0.1
  1: 0x053E [0x1F] MOVE_ENTITY: EventEntity moves to X=-72.052*, Z=-102.467*, Y=5.999*
  2: 0x0546 [0x1F] MOVE_ENTITY: Update entity position (mode=1)
  3: 0x0548 [0x6F] WAIT_FRAME_DELAY: Yield until WaitTime reaches zero
  4: 0x0549 [0x00] END_REQSTACK()
```

### Event 65535.70

#### Metadata

| Field        | Value    |
|--------------|----------|
| Entrypoint   | 0x054A   |
| Data Size    | 16 bytes |
| Instructions | 2        |

```
      00 01 02 03 04 05 06 07  08 09 0A 0B 0C 0D 0E 0F
      -- -- -- -- -- -- -- --  -- -- -- -- -- -- -- --
0540:                                66 48 80 1E 50 0F            fH..P.
0550: 01 1E 50 0F 01 61 77 77  30 00                    ..P..aww0.      
```

#### Opcodes

```
  0: 0x054A [0x66] LOAD_EXT_SCHEDULER_MAIN: Load scheduler "aww0" with entities [Bki Tbujhja (ID: 17780766/0x010F501E), Bki Tbujhja (ID: 17780766/0x010F501E)], work=8*
  1: 0x0559 [0x00] END_REQSTACK()
```

### Event 65535.71

#### Metadata

| Field        | Value    |
|--------------|----------|
| Entrypoint   | 0x055A   |
| Data Size    | 20 bytes |
| Instructions | 5        |

```
      00 01 02 03 04 05 06 07  08 09 0A 0B 0C 0D 0E 0F
      -- -- -- -- -- -- -- --  -- -- -- -- -- -- -- --
0550:                                59 04 1E 50 0F 01            Y..P..
0560: 56 80 1F 00 59 80 5A 80  0C 80 1F 01 6F 00        V...Y.Z.....o.  
```

#### Opcodes

```
  0: 0x055A [0x59] UPDATE_ENTITY_DATA: Set Bki Tbujhja (ID: 17780766/0x010F501E) main speed = 9* * 0.1
  1: 0x0562 [0x1F] MOVE_ENTITY: EventEntity moves to X=-5.853*, Z=-5.190*, Y=0.000*
  2: 0x056A [0x1F] MOVE_ENTITY: Update entity position (mode=1)
  3: 0x056C [0x6F] WAIT_FRAME_DELAY: Yield until WaitTime reaches zero
  4: 0x056D [0x00] END_REQSTACK()
```

### Event 65535.72

#### Metadata

| Field        | Value    |
|--------------|----------|
| Entrypoint   | 0x056E   |
| Data Size    | 21 bytes |
| Instructions | 5        |

```
      00 01 02 03 04 05 06 07  08 09 0A 0B 0C 0D 0E 0F
      -- -- -- -- -- -- -- --  -- -- -- -- -- -- -- --
0560:                                            59 04                Y.
0570: 1E 50 0F 01 0D 80 1F 00  4E 80 4F 80 12 80 1F 01  .P......N.O.....
0580: 6F 00 00                                          o..             
```

#### Opcodes

```
  0: 0x056E [0x59] UPDATE_ENTITY_DATA: Set Bki Tbujhja (ID: 17780766/0x010F501E) main speed = 11* * 0.1
  1: 0x0576 [0x1F] MOVE_ENTITY: EventEntity moves to X=-58.931*, Z=-86.942*, Y=5.999*
  2: 0x057E [0x1F] MOVE_ENTITY: Update entity position (mode=1)
  3: 0x0580 [0x6F] WAIT_FRAME_DELAY: Yield until WaitTime reaches zero
  4: 0x0581 [0x00] END_REQSTACK()
```

#### Data or dead code:

```
# Dead code (unreachable instructions):
     0x0582 [0x00] END_REQSTACK()
```

### Event 65535.73

#### Metadata

| Field        | Value    |
|--------------|----------|
| Entrypoint   | 0x0583   |
| Data Size    | 20 bytes |
| Instructions | 5        |

```
      00 01 02 03 04 05 06 07  08 09 0A 0B 0C 0D 0E 0F
      -- -- -- -- -- -- -- --  -- -- -- -- -- -- -- --
0580:          59 04 27 50 0F  01 09 80 1F 00 5B 80 5C     Y.'P......[.\
0590: 80 5D 80 1F 01 6F 00                              .]...o.         
```

#### Opcodes

```
  0: 0x0583 [0x59] UPDATE_ENTITY_DATA: Set Danzhor (ID: 17780775/0x010F5027) main speed = 12* * 0.1
  1: 0x058B [0x1F] MOVE_ENTITY: EventEntity moves to X=-45.210*, Z=-89.196*, Y=-5.999*
  2: 0x0593 [0x1F] MOVE_ENTITY: Update entity position (mode=1)
  3: 0x0595 [0x6F] WAIT_FRAME_DELAY: Yield until WaitTime reaches zero
  4: 0x0596 [0x00] END_REQSTACK()
```

### Event 65535.74

#### Metadata

| Field        | Value    |
|--------------|----------|
| Entrypoint   | 0x0597   |
| Data Size    | 12 bytes |
| Instructions | 4        |

```
      00 01 02 03 04 05 06 07  08 09 0A 0B 0C 0D 0E 0F
      -- -- -- -- -- -- -- --  -- -- -- -- -- -- -- --
0590:                      1F  00 5E 80 5F 80 0C 80 1F         ..^._....
05A0: 01 6F 00                                          .o.             
```

#### Opcodes

```
  0: 0x0597 [0x1F] MOVE_ENTITY: EventEntity moves to X=-18.343*, Z=-8.286*, Y=0.000*
  1: 0x059F [0x1F] MOVE_ENTITY: Update entity position (mode=1)
  2: 0x05A1 [0x6F] WAIT_FRAME_DELAY: Yield until WaitTime reaches zero
  3: 0x05A2 [0x00] END_REQSTACK()
```

### Event 65535.75

#### Metadata

| Field        | Value    |
|--------------|----------|
| Entrypoint   | 0x05A3   |
| Data Size    | 16 bytes |
| Instructions | 2        |

```
      00 01 02 03 04 05 06 07  08 09 0A 0B 0C 0D 0E 0F
      -- -- -- -- -- -- -- --  -- -- -- -- -- -- -- --
05A0:          66 1E 80 27 50  0F 01 27 50 0F 01 74 68     f..'P..'P..th
05B0: 6B 31 00                                          k1.             
```

#### Opcodes

```
  0: 0x05A3 [0x66] LOAD_EXT_SCHEDULER_MAIN: Load scheduler "thk1" with entities [Danzhor (ID: 17780775/0x010F5027), Danzhor (ID: 17780775/0x010F5027)], work=69*
  1: 0x05B2 [0x00] END_REQSTACK()
```

### Event 65535.76

#### Metadata

| Field        | Value    |
|--------------|----------|
| Entrypoint   | 0x05B3   |
| Data Size    | 16 bytes |
| Instructions | 2        |

```
      00 01 02 03 04 05 06 07  08 09 0A 0B 0C 0D 0E 0F
      -- -- -- -- -- -- -- --  -- -- -- -- -- -- -- --
05B0:          66 1E 80 27 50  0F 01 27 50 0F 01 74 68     f..'P..'P..th
05C0: 6B 32 00                                          k2.             
```

#### Opcodes

```
  0: 0x05B3 [0x66] LOAD_EXT_SCHEDULER_MAIN: Load scheduler "thk2" with entities [Danzhor (ID: 17780775/0x010F5027), Danzhor (ID: 17780775/0x010F5027)], work=69*
  1: 0x05C2 [0x00] END_REQSTACK()
```

### Event 65535.77

#### Metadata

| Field        | Value    |
|--------------|----------|
| Entrypoint   | 0x05C3   |
| Data Size    | 20 bytes |
| Instructions | 5        |

```
      00 01 02 03 04 05 06 07  08 09 0A 0B 0C 0D 0E 0F
      -- -- -- -- -- -- -- --  -- -- -- -- -- -- -- --
05C0:          59 04 27 50 0F  01 09 80 1F 00 60 80 61     Y.'P......`.a
05D0: 80 0C 80 1F 01 6F 00                              .....o.         
```

#### Opcodes

```
  0: 0x05C3 [0x59] UPDATE_ENTITY_DATA: Set Danzhor (ID: 17780775/0x010F5027) main speed = 12* * 0.1
  1: 0x05CB [0x1F] MOVE_ENTITY: EventEntity moves to X=-17.939*, Z=-16.579*, Y=0.000*
  2: 0x05D3 [0x1F] MOVE_ENTITY: Update entity position (mode=1)
  3: 0x05D5 [0x6F] WAIT_FRAME_DELAY: Yield until WaitTime reaches zero
  4: 0x05D6 [0x00] END_REQSTACK()
```

### Event 65535.78

#### Metadata

| Field        | Value    |
|--------------|----------|
| Entrypoint   | 0x05D7   |
| Data Size    | 20 bytes |
| Instructions | 5        |

```
      00 01 02 03 04 05 06 07  08 09 0A 0B 0C 0D 0E 0F
      -- -- -- -- -- -- -- --  -- -- -- -- -- -- -- --
05D0:                      59  04 27 50 0F 01 09 80 1F         Y.'P.....
05E0: 00 62 80 63 80 0C 80 1F  01 6F 00                 .b.c.....o.     
```

#### Opcodes

```
  0: 0x05D7 [0x59] UPDATE_ENTITY_DATA: Set Danzhor (ID: 17780775/0x010F5027) main speed = 12* * 0.1
  1: 0x05DF [0x1F] MOVE_ENTITY: EventEntity moves to X=-3.065*, Z=-7.931*, Y=0.000*
  2: 0x05E7 [0x1F] MOVE_ENTITY: Update entity position (mode=1)
  3: 0x05E9 [0x6F] WAIT_FRAME_DELAY: Yield until WaitTime reaches zero
  4: 0x05EA [0x00] END_REQSTACK()
```

### Event 65535.79

#### Metadata

| Field        | Value    |
|--------------|----------|
| Entrypoint   | 0x05EB   |
| Data Size    | 17 bytes |
| Instructions | 2        |

```
      00 01 02 03 04 05 06 07  08 09 0A 0B 0C 0D 0E 0F
      -- -- -- -- -- -- -- --  -- -- -- -- -- -- -- --
05E0:                                   66 33 80 30 50             f3.0P
05F0: 0F 01 30 50 0F 01 73 68  6B 30 00 00              ..0P..shk0..    
```

#### Opcodes

```
  0: 0x05EB [0x66] LOAD_EXT_SCHEDULER_MAIN: Load scheduler "shk0" with entities [Kikilolo (ID: 17780784/0x010F5030), Kikilolo (ID: 17780784/0x010F5030)], work=41*
  1: 0x05FA [0x00] END_REQSTACK()
```

#### Data or dead code:

```
# Dead code (unreachable instructions):
     0x05FB [0x00] END_REQSTACK()
```

### Event 65535.80

#### Metadata

| Field        | Value    |
|--------------|----------|
| Entrypoint   | 0x05FC   |
| Data Size    | 16 bytes |
| Instructions | 2        |

```
      00 01 02 03 04 05 06 07  08 09 0A 0B 0C 0D 0E 0F
      -- -- -- -- -- -- -- --  -- -- -- -- -- -- -- --
05F0:                                      5B 02 80 39              [..9
0600: 50 0F 01 39 50 0F 01 74  6C 6B 30 00              P..9P..tlk0.    
```

#### Opcodes

```
  0: 0x05FC [0x5B] LOAD_EXT_SCHEDULER: Load scheduler "tlk0" with entities [Momiji (ID: 17780793/0x010F5039), Momiji (ID: 17780793/0x010F5039)], work=60*
  1: 0x060B [0x00] END_REQSTACK()
```

### Event 65535.81

#### Metadata

| Field        | Value    |
|--------------|----------|
| Entrypoint   | 0x060C   |
| Data Size    | 16 bytes |
| Instructions | 2        |

```
      00 01 02 03 04 05 06 07  08 09 0A 0B 0C 0D 0E 0F
      -- -- -- -- -- -- -- --  -- -- -- -- -- -- -- --
0600:                                      5B 02 80 39              [..9
0610: 50 0F 01 39 50 0F 01 74  6C 6B 31 00              P..9P..tlk1.    
```

#### Opcodes

```
  0: 0x060C [0x5B] LOAD_EXT_SCHEDULER: Load scheduler "tlk1" with entities [Momiji (ID: 17780793/0x010F5039), Momiji (ID: 17780793/0x010F5039)], work=60*
  1: 0x061B [0x00] END_REQSTACK()
```

### Event 65535.82

#### Metadata

| Field        | Value    |
|--------------|----------|
| Entrypoint   | 0x061C   |
| Data Size    | 16 bytes |
| Instructions | 2        |

```
      00 01 02 03 04 05 06 07  08 09 0A 0B 0C 0D 0E 0F
      -- -- -- -- -- -- -- --  -- -- -- -- -- -- -- --
0610:                                      5B 02 80 39              [..9
0620: 50 0F 01 39 50 0F 01 74  68 6B 31 00              P..9P..thk1.    
```

#### Opcodes

```
  0: 0x061C [0x5B] LOAD_EXT_SCHEDULER: Load scheduler "thk1" with entities [Momiji (ID: 17780793/0x010F5039), Momiji (ID: 17780793/0x010F5039)], work=60*
  1: 0x062B [0x00] END_REQSTACK()
```

### Event 65535.83

#### Metadata

| Field        | Value    |
|--------------|----------|
| Entrypoint   | 0x062C   |
| Data Size    | 16 bytes |
| Instructions | 2        |

```
      00 01 02 03 04 05 06 07  08 09 0A 0B 0C 0D 0E 0F
      -- -- -- -- -- -- -- --  -- -- -- -- -- -- -- --
0620:                                      5B 02 80 39              [..9
0630: 50 0F 01 39 50 0F 01 74  68 6B 32 00              P..9P..thk2.    
```

#### Opcodes

```
  0: 0x062C [0x5B] LOAD_EXT_SCHEDULER: Load scheduler "thk2" with entities [Momiji (ID: 17780793/0x010F5039), Momiji (ID: 17780793/0x010F5039)], work=60*
  1: 0x063B [0x00] END_REQSTACK()
```

### Event 65535.84

#### Metadata

| Field        | Value    |
|--------------|----------|
| Entrypoint   | 0x063C   |
| Data Size    | 17 bytes |
| Instructions | 2        |

```
      00 01 02 03 04 05 06 07  08 09 0A 0B 0C 0D 0E 0F
      -- -- -- -- -- -- -- --  -- -- -- -- -- -- -- --
0630:                                      5B 64 80 39              [d.9
0640: 50 0F 01 39 50 0F 01 65  6D 74 30 00 00           P..9P..emt0..   
```

#### Opcodes

```
  0: 0x063C [0x5B] LOAD_EXT_SCHEDULER: Load scheduler "emt0" with entities [Momiji (ID: 17780793/0x010F5039), Momiji (ID: 17780793/0x010F5039)], work=2624*
  1: 0x064B [0x00] END_REQSTACK()
```

#### Data or dead code:

```
# Dead code (unreachable instructions):
     0x064C [0x00] END_REQSTACK()
```

### Event 65535.85

#### Metadata

| Field        | Value    |
|--------------|----------|
| Entrypoint   | 0x064D   |
| Data Size    | 20 bytes |
| Instructions | 5        |

```
      00 01 02 03 04 05 06 07  08 09 0A 0B 0C 0D 0E 0F
      -- -- -- -- -- -- -- --  -- -- -- -- -- -- -- --
0640:                                         59 04 3C               Y.<
0650: 50 0F 01 3C 80 1F 00 65  80 66 80 0C 80 1F 01 6F  P..<...e.f.....o
0660: 00                                                .               
```

#### Opcodes

```
  0: 0x064D [0x59] UPDATE_ENTITY_DATA: Set Mendi (ID: 17780796/0x010F503C) main speed = 13* * 0.1
  1: 0x0655 [0x1F] MOVE_ENTITY: EventEntity moves to X=-38.371*, Z=-67.496*, Y=0.000*
  2: 0x065D [0x1F] MOVE_ENTITY: Update entity position (mode=1)
  3: 0x065F [0x6F] WAIT_FRAME_DELAY: Yield until WaitTime reaches zero
  4: 0x0660 [0x00] END_REQSTACK()
```

### Event 65535.86

#### Metadata

| Field        | Value    |
|--------------|----------|
| Entrypoint   | 0x0661   |
| Data Size    | 12 bytes |
| Instructions | 4        |

```
      00 01 02 03 04 05 06 07  08 09 0A 0B 0C 0D 0E 0F
      -- -- -- -- -- -- -- --  -- -- -- -- -- -- -- --
0660:    1F 00 67 80 68 80 0C  80 1F 01 6F 00            ..g.h.....o.   
```

#### Opcodes

```
  0: 0x0661 [0x1F] MOVE_ENTITY: EventEntity moves to X=-5.565*, Z=-1.804*, Y=0.000*
  1: 0x0669 [0x1F] MOVE_ENTITY: Update entity position (mode=1)
  2: 0x066B [0x6F] WAIT_FRAME_DELAY: Yield until WaitTime reaches zero
  3: 0x066C [0x00] END_REQSTACK()
```

### Event 65535.87

#### Metadata

| Field        | Value    |
|--------------|----------|
| Entrypoint   | 0x066D   |
| Data Size    | 16 bytes |
| Instructions | 2        |

```
      00 01 02 03 04 05 06 07  08 09 0A 0B 0C 0D 0E 0F
      -- -- -- -- -- -- -- --  -- -- -- -- -- -- -- --
0660:                                         5B 53 80               [S.
0670: 3C 50 0F 01 3C 50 0F 01  6F 70 62 30 00           <P..<P..opb0.   
```

#### Opcodes

```
  0: 0x066D [0x5B] LOAD_EXT_SCHEDULER: Load scheduler "opb0" with entities [Mendi (ID: 17780796/0x010F503C), Mendi (ID: 17780796/0x010F503C)], work=2583*
  1: 0x067C [0x00] END_REQSTACK()
```

### Event 65535.88

#### Metadata

| Field        | Value    |
|--------------|----------|
| Entrypoint   | 0x067D   |
| Data Size    | 16 bytes |
| Instructions | 2        |

```
      00 01 02 03 04 05 06 07  08 09 0A 0B 0C 0D 0E 0F
      -- -- -- -- -- -- -- --  -- -- -- -- -- -- -- --
0670:                                         5B 53 80               [S.
0680: 3C 50 0F 01 3C 50 0F 01  6F 70 63 30 00           <P..<P..opc0.   
```

#### Opcodes

```
  0: 0x067D [0x5B] LOAD_EXT_SCHEDULER: Load scheduler "opc0" with entities [Mendi (ID: 17780796/0x010F503C), Mendi (ID: 17780796/0x010F503C)], work=2583*
  1: 0x068C [0x00] END_REQSTACK()
```

### Event 65535.89

#### Metadata

| Field        | Value    |
|--------------|----------|
| Entrypoint   | 0x068D   |
| Data Size    | 16 bytes |
| Instructions | 2        |

```
      00 01 02 03 04 05 06 07  08 09 0A 0B 0C 0D 0E 0F
      -- -- -- -- -- -- -- --  -- -- -- -- -- -- -- --
0680:                                         5B 53 80               [S.
0690: 3C 50 0F 01 3C 50 0F 01  6F 70 63 31 00           <P..<P..opc1.   
```

#### Opcodes

```
  0: 0x068D [0x5B] LOAD_EXT_SCHEDULER: Load scheduler "opc1" with entities [Mendi (ID: 17780796/0x010F503C), Mendi (ID: 17780796/0x010F503C)], work=2583*
  1: 0x069C [0x00] END_REQSTACK()
```

### Event 65535.90

#### Metadata

| Field        | Value    |
|--------------|----------|
| Entrypoint   | 0x069D   |
| Data Size    | 16 bytes |
| Instructions | 2        |

```
      00 01 02 03 04 05 06 07  08 09 0A 0B 0C 0D 0E 0F
      -- -- -- -- -- -- -- --  -- -- -- -- -- -- -- --
0690:                                         66 69 80               fi.
06A0: 3C 50 0F 01 3C 50 0F 01  74 68 62 31 00           <P..<P..thb1.   
```

#### Opcodes

```
  0: 0x069D [0x66] LOAD_EXT_SCHEDULER_MAIN: Load scheduler "thb1" with entities [Mendi (ID: 17780796/0x010F503C), Mendi (ID: 17780796/0x010F503C)], work=2*
  1: 0x06AC [0x00] END_REQSTACK()
```

### Event 65535.91

#### Metadata

| Field        | Value    |
|--------------|----------|
| Entrypoint   | 0x06AD   |
| Data Size    | 16 bytes |
| Instructions | 2        |

```
      00 01 02 03 04 05 06 07  08 09 0A 0B 0C 0D 0E 0F
      -- -- -- -- -- -- -- --  -- -- -- -- -- -- -- --
06A0:                                         66 69 80               fi.
06B0: 3C 50 0F 01 3C 50 0F 01  74 68 62 32 00           <P..<P..thb2.   
```

#### Opcodes

```
  0: 0x06AD [0x66] LOAD_EXT_SCHEDULER_MAIN: Load scheduler "thb2" with entities [Mendi (ID: 17780796/0x010F503C), Mendi (ID: 17780796/0x010F503C)], work=2*
  1: 0x06BC [0x00] END_REQSTACK()
```

### Event 65535.92

#### Metadata

| Field        | Value    |
|--------------|----------|
| Entrypoint   | 0x06BD   |
| Data Size    | 16 bytes |
| Instructions | 2        |

```
      00 01 02 03 04 05 06 07  08 09 0A 0B 0C 0D 0E 0F
      -- -- -- -- -- -- -- --  -- -- -- -- -- -- -- --
06B0:                                         66 0C 80               f..
06C0: 3C 50 0F 01 3C 50 0F 01  74 68 6B 31 00           <P..<P..thk1.   
```

#### Opcodes

```
  0: 0x06BD [0x66] LOAD_EXT_SCHEDULER_MAIN: Load scheduler "thk1" with entities [Mendi (ID: 17780796/0x010F503C), Mendi (ID: 17780796/0x010F503C)], work=0*
  1: 0x06CC [0x00] END_REQSTACK()
```

### Event 65535.93

#### Metadata

| Field        | Value    |
|--------------|----------|
| Entrypoint   | 0x06CD   |
| Data Size    | 16 bytes |
| Instructions | 2        |

```
      00 01 02 03 04 05 06 07  08 09 0A 0B 0C 0D 0E 0F
      -- -- -- -- -- -- -- --  -- -- -- -- -- -- -- --
06C0:                                         66 0C 80               f..
06D0: 3C 50 0F 01 3C 50 0F 01  74 68 6B 32 00           <P..<P..thk2.   
```

#### Opcodes

```
  0: 0x06CD [0x66] LOAD_EXT_SCHEDULER_MAIN: Load scheduler "thk2" with entities [Mendi (ID: 17780796/0x010F503C), Mendi (ID: 17780796/0x010F503C)], work=0*
  1: 0x06DC [0x00] END_REQSTACK()
```

### Event 65535.94

#### Metadata

| Field        | Value    |
|--------------|----------|
| Entrypoint   | 0x06DD   |
| Data Size    | 20 bytes |
| Instructions | 5        |

```
      00 01 02 03 04 05 06 07  08 09 0A 0B 0C 0D 0E 0F
      -- -- -- -- -- -- -- --  -- -- -- -- -- -- -- --
06D0:                                         59 04 3C               Y.<
06E0: 50 0F 01 3C 80 1F 00 6A  80 6B 80 0C 80 1F 01 6F  P..<...j.k.....o
06F0: 00                                                .               
```

#### Opcodes

```
  0: 0x06DD [0x59] UPDATE_ENTITY_DATA: Set Mendi (ID: 17780796/0x010F503C) main speed = 13* * 0.1
  1: 0x06E5 [0x1F] MOVE_ENTITY: EventEntity moves to X=-2.765*, Z=5.059*, Y=0.000*
  2: 0x06ED [0x1F] MOVE_ENTITY: Update entity position (mode=1)
  3: 0x06EF [0x6F] WAIT_FRAME_DELAY: Yield until WaitTime reaches zero
  4: 0x06F0 [0x00] END_REQSTACK()
```

### Event 65535.95

#### Metadata

| Field        | Value    |
|--------------|----------|
| Entrypoint   | 0x06F1   |
| Data Size    | 20 bytes |
| Instructions | 5        |

```
      00 01 02 03 04 05 06 07  08 09 0A 0B 0C 0D 0E 0F
      -- -- -- -- -- -- -- --  -- -- -- -- -- -- -- --
06F0:    59 04 3C 50 0F 01 3C  80 1F 00 46 80 47 80 0C   Y.<P..<...F.G..
0700: 80 1F 01 6F 00                                    ...o.           
```

#### Opcodes

```
  0: 0x06F1 [0x59] UPDATE_ENTITY_DATA: Set Mendi (ID: 17780796/0x010F503C) main speed = 13* * 0.1
  1: 0x06F9 [0x1F] MOVE_ENTITY: EventEntity moves to X=-0.991*, Z=2.123*, Y=0.000*
  2: 0x0701 [0x1F] MOVE_ENTITY: Update entity position (mode=1)
  3: 0x0703 [0x6F] WAIT_FRAME_DELAY: Yield until WaitTime reaches zero
  4: 0x0704 [0x00] END_REQSTACK()
```

### Event 65535.96

#### Metadata

| Field        | Value    |
|--------------|----------|
| Entrypoint   | 0x0705   |
| Data Size    | 16 bytes |
| Instructions | 2        |

```
      00 01 02 03 04 05 06 07  08 09 0A 0B 0C 0D 0E 0F
      -- -- -- -- -- -- -- --  -- -- -- -- -- -- -- --
0700:                5B 53 80  3C 50 0F 01 3C 50 0F 01       [S.<P..<P..
0710: 6F 70 64 30 00                                    opd0.           
```

#### Opcodes

```
  0: 0x0705 [0x5B] LOAD_EXT_SCHEDULER: Load scheduler "opd0" with entities [Mendi (ID: 17780796/0x010F503C), Mendi (ID: 17780796/0x010F503C)], work=2583*
  1: 0x0714 [0x00] END_REQSTACK()
```

### Event 65535.97

#### Metadata

| Field        | Value    |
|--------------|----------|
| Entrypoint   | 0x0715   |
| Data Size    | 16 bytes |
| Instructions | 2        |

```
      00 01 02 03 04 05 06 07  08 09 0A 0B 0C 0D 0E 0F
      -- -- -- -- -- -- -- --  -- -- -- -- -- -- -- --
0710:                5B 53 80  3C 50 0F 01 3C 50 0F 01       [S.<P..<P..
0720: 6F 70 64 31 00                                    opd1.           
```

#### Opcodes

```
  0: 0x0715 [0x5B] LOAD_EXT_SCHEDULER: Load scheduler "opd1" with entities [Mendi (ID: 17780796/0x010F503C), Mendi (ID: 17780796/0x010F503C)], work=2583*
  1: 0x0724 [0x00] END_REQSTACK()
```
