# 17780924 - Faursel

## Common Data

| Field            | Value                 |
|------------------|-----------------------|
| Zone             | Lower Jeuno (ID: 245) |
| Block Size       | 3824 bytes            |
| Total Events     | 13                    |
| References Count | 97                    |

## List of Events

| Event ID              | Entrypoint   |   Size |   Instructions |
|-----------------------|--------------|--------|----------------|
| [65535](#event-65535) | 0x0000       |      1 |              1 |
| [10062](#event-10062) | 0x0001       |      1 |              1 |
| [10063](#event-10063) | 0x0002       |      1 |              1 |
| [10064](#event-10064) | 0x0003       |   3016 |            490 |
| [10065](#event-10065) | 0x0BCB       |     85 |             15 |
| [10066](#event-10066) | 0x0C20       |     51 |             15 |
| [10067](#event-10067) | 0x0C53       |      1 |              1 |
| [10068](#event-10068) | 0x0C54       |      1 |              1 |
| [10069](#event-10069) | 0x0C55       |     52 |             16 |
| [10070](#event-10070) | 0x0C89       |      1 |              1 |
| [10071](#event-10071) | 0x0C8A       |    102 |             22 |
| [10072](#event-10072) | 0x0CF0       |     52 |             16 |
| [10125](#event-10125) | 0x0D24       |      1 |              1 |

## DAT References (imed_data)

|   Index | Hex Value   |   Dec Value |
|---------|-------------|-------------|
|       0 | 0x254F      |        9551 |
|       1 | 0x7A120     |      500000 |
|       2 | 0x0001      |           1 |
|       3 | 0x2ACB      |       10955 |
|       4 | 0x0000      |           0 |
|       5 | 0x0005      |           5 |
|       6 | 0x001E      |          30 |
|       7 | 0x255F      |        9567 |
|       8 | 0x2560      |        9568 |
|       9 | 0x000A      |          10 |
|      10 | 0x001D      |          29 |
|      11 | 0x2561      |        9569 |
|      12 | 0x000B      |          11 |
|      13 | 0x2562      |        9570 |
|      14 | 0x2559      |        9561 |
|      15 | 0x255A      |        9562 |
|      16 | 0x255B      |        9563 |
|      17 | 0x000C      |          12 |
|      18 | 0x255C      |        9564 |
|      19 | 0x255D      |        9565 |
|      20 | 0x255E      |        9566 |
|      21 | 0x0002      |           2 |
|      22 | 0x000D      |          13 |
|      23 | 0x2553      |        9555 |
|      24 | 0x2554      |        9556 |
|      25 | 0x2555      |        9557 |
|      26 | 0x2556      |        9558 |
|      27 | 0x2557      |        9559 |
|      28 | 0x2558      |        9560 |
|      29 | 0x0003      |           3 |
|      30 | 0x0004      |           4 |
|      31 | 0x0015      |          21 |
|      32 | 0x2563      |        9571 |
|      33 | 0x2564      |        9572 |
|      34 | 0x2565      |        9573 |
|      35 | 0x2566      |        9574 |
|      36 | 0x2567      |        9575 |
|      37 | 0x003C      |          60 |
|      38 | 0x2568      |        9576 |
|      39 | 0x2569      |        9577 |
|      40 | 0x000E      |          14 |
|      41 | 0x0019      |          25 |
|      42 | 0x256A      |        9578 |
|      43 | 0x030D      |         781 |
|      44 | 0x256B      |        9579 |
|      45 | 0x256C      |        9580 |
|      46 | 0x2547      |        9543 |
|      47 | 0x2548      |        9544 |
|      48 | 0x2549      |        9545 |
|      49 | 0x254A      |        9546 |
|      50 | 0x254B      |        9547 |
|      51 | 0x254C      |        9548 |
|      52 | 0x254D      |        9549 |
|      53 | 0x254E      |        9550 |
|      54 | 0x0006      |           6 |
|      55 | 0x2551      |        9553 |
|      56 | 0x2552      |        9554 |
|      57 | 0x2550      |        9552 |
|      58 | 0x00C8      |         200 |
|      59 | 0x010D      |         269 |
|      60 | 0x0013      |          19 |
|      61 | 0x01C8      |         456 |
|      62 | 0x86B4      |       34484 |
|      63 | 0xFFFF68D2  |  4294928594 |
|      64 | 0x0F3B      |        3899 |
|      65 | 0x022C      |         556 |
|      66 | 0x9001      |       36865 |
|      67 | 0xFFFF546D  |  4294923373 |
|      68 | 0x1016      |        4118 |
|      69 | 0x02FB      |         763 |
|      70 | 0x000F      |          15 |
|      71 | 0x2ACC      |       10956 |
|      72 | 0x002D      |          45 |
|      73 | 0x2ACD      |       10957 |
|      74 | 0x00B9      |         185 |
|      75 | 0x2ACE      |       10958 |
|      76 | 0x2ACF      |       10959 |
|      77 | 0x2AD0      |       10960 |
|      78 | 0x2AD1      |       10961 |
|      79 | 0x2AD2      |       10962 |
|      80 | 0x2AD3      |       10963 |
|      81 | 0x0078      |         120 |
|      82 | 0x0102      |         258 |
|      83 | 0x2571      |        9585 |
|      84 | 0x2572      |        9586 |
|      85 | 0x2573      |        9587 |
|      86 | 0x2574      |        9588 |
|      87 | 0x2575      |        9589 |
|      88 | 0x00C9      |         201 |
|      89 | 0x2544      |        9540 |
|      90 | 0x2545      |        9541 |
|      91 | 0x2546      |        9542 |
|      92 | 0x2570      |        9584 |
|      93 | 0x001A      |          26 |
|      94 | 0x256F      |        9583 |
|      95 | 0x256E      |        9582 |
|      96 | 0x2576      |        9590 |

## String References

- **9552**: What'll it be? [Beginner list./Intermediate list./Advanced list./Pay the $0 gil./Please explain again./Let me think about it.]
- **9554**: Heh heh heh...
- **9575**: Pay $0 gil for the permit? [On second thought, no./Yes.]
- **9577**: Be honest. [Now that you mention it.../Regret? I know the word not!]
- **9579**: Congratulations, [sir/ma'am], we have a deal! Come back tomorrow and I will give you the $3.
- **9580**: And don't you worry, because the Tenshodo is true t' its word!
- **9582**: Exactly what I asked for! Congratulations, [sir/ma'am], we have a deal! Come back tomorrow and I will give you the $3.
- **9583**: And don't you worry, because the Tenshodo is true t' its word!
- **9584**: What's done is done. Sorry, but I'm not giving any refunds. Come back tomorrow and I will give you the $3.
- **9587**: I 'ave got t' tell you up front, though, that the high seas are a dangerous place. I can't guarantee your safety, so travel at your own risk.
- **9588**: If I were you, I'd be praying for the ship t' simply stay afloat.
- **9590**: With $6, you can ride t' the Near East from the port at Mhaura.
- **10955**: What'll it be? [Beginner list./Intermediate list./Advanced list./Where's Tenzen?/Pay the $0 gil./Please explain again./Let me think about it.]

## Events

### Event 65535

#### Metadata

| Field        | Value   |
|--------------|---------|
| Entrypoint   | 0x0000  |
| Data Size    | 1 bytes |
| Instructions | 1       |

```
      00 01 02 03 04 05 06 07  08 09 0A 0B 0C 0D 0E 0F
      -- -- -- -- -- -- -- --  -- -- -- -- -- -- -- --
0000: 00                                                .               
```

#### Opcodes

```
  0: 0x0000 [0x00] END_REQSTACK()
```

### Event 10062

#### Metadata

| Field        | Value   |
|--------------|---------|
| Entrypoint   | 0x0001  |
| Data Size    | 1 bytes |
| Instructions | 1       |

```
      00 01 02 03 04 05 06 07  08 09 0A 0B 0C 0D 0E 0F
      -- -- -- -- -- -- -- --  -- -- -- -- -- -- -- --
0000:    00                                              .              
```

#### Opcodes

```
  0: 0x0001 [0x00] END_REQSTACK()
```

### Event 10063

#### Metadata

| Field        | Value   |
|--------------|---------|
| Entrypoint   | 0x0002  |
| Data Size    | 1 bytes |
| Instructions | 1       |

```
      00 01 02 03 04 05 06 07  08 09 0A 0B 0C 0D 0E 0F
      -- -- -- -- -- -- -- --  -- -- -- -- -- -- -- --
0000:       00                                            .             
```

#### Opcodes

```
  0: 0x0002 [0x00] END_REQSTACK()
```

### Event 10064

#### Metadata

| Field        | Value      |
|--------------|------------|
| Entrypoint   | 0x0003     |
| Data Size    | 3016 bytes |
| Instructions | 113        |

```
      00 01 02 03 04 05 06 07  08 09 0A 0B 0C 0D 0E 0F
      -- -- -- -- -- -- -- --  -- -- -- -- -- -- -- --
0000:          03 01 00 07 10  4A F0 FF FF 7F F8 FF FF     .....J.......
0010: 7F 1E F0 FF FF 7F 6F 70  2B BC 50 0F 01 00 80 23  ......op+.P....#
0020: 03 02 10 01 80 02 01 00  02 80 00 CD 03 24 03 80  .............$..
0030: 04 80 04 80 25 02 00 10  04 80 00 B4 00 6E BC 50  ....%........n.P
0040: 0F 01 05 80 99 BC 50 0F  01 99 BC 50 0F 01 1C 06  ......P....P....
0050: 80 2B BC 50 0F 01 07 80  23 2B BC 50 0F 01 08 80  .+.P....#+.P....
0060: 23 03 01 10 09 80 43 00  43 01 66 0A 80 BC 50 0F  #.....C.C.f...P.
0070: 01 BC 50 0F 01 74 6C 6B  30 2B BC 50 0F 01 0B 80  ..P..tlk0+.P....
0080: 23 03 01 10 0C 80 43 00  43 01 2B BC 50 0F 01 0D  #.....C.C.+.P...
0090: 80 23 66 0A 80 BC 50 0F  01 BC 50 0F 01 74 6C 6B  .#f...P...P..tlk
00A0: 31 53 BC 50 0F 01 BC 50  0F 01 74 6C 6B 31 01 20  1S.P...P..tlk1. 
00B0: 00 01 CA 03 02 00 10 02  80 00 51 01 66 0A 80 BC  ..........Q.f...
00C0: 50 0F 01 BC 50 0F 01 74  68 6B 31 2B BC 50 0F 01  P...P..thk1+.P..
00D0: 0E 80 23 2B BC 50 0F 01  0F 80 23 66 0A 80 BC 50  ..#+.P....#f...P
00E0: 0F 01 BC 50 0F 01 74 68  6B 32 2B BC 50 0F 01 10  ...P..thk2+.P...
00F0: 80 23 53 BC 50 0F 01 BC  50 0F 01 74 68 6B 32 03  .#S.P...P..thk2.
0100: 01 10 11 80 43 00 43 01  66 0A 80 BC 50 0F 01 BC  ....C.C.f...P...
0110: 50 0F 01 74 77 62 30 2B  BC 50 0F 01 12 80 23 2B  P..twb0+.P....#+
0120: BC 50 0F 01 13 80 23 66  0A 80 BC 50 0F 01 BC 50  .P....#f...P...P
0130: 0F 01 74 77 62 31 2B BC  50 0F 01 14 80 23 53 BC  ..twb1+.P....#S.
0140: 50 0F 01 BC 50 0F 01 74  77 62 31 01 20 00 01 CA  P...P..twb1. ...
0150: 03 02 00 10 15 80 00 D7  01 6E BC 50 0F 01 16 80  .........n.P....
0160: 99 BC 50 0F 01 99 BC 50  0F 01 1C 06 80 2B BC 50  ..P....P.....+.P
0170: 0F 01 17 80 23 2B BC 50  0F 01 18 80 23 2B BC 50  ....#+.P....#+.P
0180: 0F 01 19 80 23 66 0A 80  BC 50 0F 01 BC 50 0F 01  ....#f...P...P..
0190: 74 77 61 30 2B BC 50 0F  01 1A 80 23 03 01 10 16  twa0+.P....#....
01A0: 80 43 00 43 01 2B BC 50  0F 01 1B 80 23 66 0A 80  .C.C.+.P....#f..
01B0: BC 50 0F 01 BC 50 0F 01  74 77 61 31 2B BC 50 0F  .P...P..twa1+.P.
01C0: 01 1C 80 23 53 BC 50 0F  01 BC 50 0F 01 74 77 61  ...#S.P...P..twa
01D0: 31 01 20 00 01 CA 03 02  00 10 1D 80 00 EA 01 1A  1. .............
01E0: 59 07 03 01 10 02 80 01  CA 03 02 00 10 1E 80 00  Y...............
01F0: 15 03 6E BC 50 0F 01 1F  80 99 BC 50 0F 01 99 BC  ..n.P......P....
0200: 50 0F 01 1C 06 80 2B BC  50 0F 01 20 80 23 2B BC  P.....+.P.. .#+.
0210: 50 0F 01 21 80 23 2B BC  50 0F 01 22 80 23 66 0A  P..!.#+.P..".#f.
0220: 80 BC 50 0F 01 BC 50 0F  01 74 68 6B 31 2B BC 50  ..P...P..thk1+.P
0230: 0F 01 23 80 23 24 24 80  04 80 04 80 25 02 00 10  ..#.#$$.....%...
0240: 04 80 00 67 02 66 0A 80  BC 50 0F 01 BC 50 0F 01  ...g.f...P...P..
0250: 74 68 6B 32 53 BC 50 0F  01 BC 50 0F 01 74 68 6B  thk2S.P...P..thk
0260: 32 01 18 00 01 67 02 1C  25 80 2B BC 50 0F 01 26  2....g..%.+.P..&
0270: 80 23 66 0A 80 BC 50 0F  01 BC 50 0F 01 74 68 6B  .#f...P...P..thk
0280: 32 53 BC 50 0F 01 BC 50  0F 01 74 68 6B 32 24 27  2S.P...P..thk2$'
0290: 80 04 80 04 80 25 02 00  10 04 80 00 A4 02 01 18  .....%..........
02A0: 00 01 E1 02 02 00 10 02  80 00 E1 02 42 03 01 10  ............B...
02B0: 28 80 43 00 43 01 02 09  10 02 80 01 DE 02 2E 6E  (.C.C..........n
02C0: BC 50 0F 01 29 80 99 BC  50 0F 01 99 BC 50 0F 01  .P..)...P....P..
02D0: 1C 06 80 2B BC 50 0F 01  2A 80 23 01 18 00 01 E1  ...+.P..*.#.....
02E0: 02 6E BC 50 0F 01 16 80  99 BC 50 0F 01 99 BC 50  .n.P......P....P
02F0: 0F 01 1C 06 80 03 02 10  2B 80 2B BC 50 0F 01 2C  ........+.+.P..,
0300: 80 23 2B BC 50 0F 01 2D  80 23 03 01 10 1D 80 01  .#+.P..-.#......
0310: 57 07 01 CA 03 02 00 10  05 80 00 98 03 2B BC 50  W............+.P
0320: 0F 01 2E 80 23 2B BC 50  0F 01 2F 80 23 66 0A 80  ....#+.P../.#f..
0330: BC 50 0F 01 BC 50 0F 01  74 77 62 30 2B BC 50 0F  .P...P..twb0+.P.
0340: 01 30 80 23 2B BC 50 0F  01 31 80 23 03 02 10 2B  .0.#+.P..1.#...+
0350: 80 2B BC 50 0F 01 32 80  23 2B BC 50 0F 01 33 80  .+.P..2.#+.P..3.
0360: 23 66 0A 80 BC 50 0F 01  BC 50 0F 01 74 77 62 31  #f...P...P..twb1
0370: 53 BC 50 0F 01 BC 50 0F  01 74 77 62 31 2B BC 50  S.P...P..twb1+.P
0380: 0F 01 34 80 23 03 02 10  01 80 2B BC 50 0F 01 35  ..4.#.....+.P..5
0390: 80 23 01 18 00 01 CA 03  02 00 10 36 80 00 CA 03  .#.........6....
03A0: 2B BC 50 0F 01 37 80 23  6E BC 50 0F 01 1E 80 99  +.P..7.#n.P.....
03B0: BC 50 0F 01 99 BC 50 0F  01 1C 06 80 2B BC 50 0F  .P....P.....+.P.
03C0: 01 38 80 23 01 57 07 01  CA 03 01 57 07 24 39 80  .8.#.W.....W.$9.
03D0: 04 80 04 80 25 02 00 10  04 80 00 54 04 6E BC 50  ....%......T.n.P
03E0: 0F 01 05 80 99 BC 50 0F  01 99 BC 50 0F 01 1C 06  ......P....P....
03F0: 80 2B BC 50 0F 01 07 80  23 2B BC 50 0F 01 08 80  .+.P....#+.P....
0400: 23 03 01 10 09 80 43 00  43 01 66 0A 80 BC 50 0F  #.....C.C.f...P.
0410: 01 BC 50 0F 01 74 6C 6B  30 2B BC 50 0F 01 0B 80  ..P..tlk0+.P....
0420: 23 03 01 10 0C 80 43 00  43 01 2B BC 50 0F 01 0D  #.....C.C.+.P...
0430: 80 23 66 0A 80 BC 50 0F  01 BC 50 0F 01 74 6C 6B  .#f...P...P..tlk
0440: 31 53 BC 50 0F 01 BC 50  0F 01 74 6C 6B 31 01 20  1S.P...P..tlk1. 
0450: 00 01 57 07 02 00 10 02  80 00 F1 04 66 0A 80 BC  ..W.........f...
0460: 50 0F 01 BC 50 0F 01 74  68 6B 31 2B BC 50 0F 01  P...P..thk1+.P..
0470: 0E 80 23 2B BC 50 0F 01  0F 80 23 66 0A 80 BC 50  ..#+.P....#f...P
0480: 0F 01 BC 50 0F 01 74 68  6B 32 2B BC 50 0F 01 10  ...P..thk2+.P...
0490: 80 23 53 BC 50 0F 01 BC  50 0F 01 74 68 6B 32 03  .#S.P...P..thk2.
04A0: 01 10 11 80 43 00 43 01  66 0A 80 BC 50 0F 01 BC  ....C.C.f...P...
04B0: 50 0F 01 74 77 62 30 2B  BC 50 0F 01 12 80 23 2B  P..twb0+.P....#+
04C0: BC 50 0F 01 13 80 23 66  0A 80 BC 50 0F 01 BC 50  .P....#f...P...P
04D0: 0F 01 74 77 62 31 2B BC  50 0F 01 14 80 23 53 BC  ..twb1+.P....#S.
04E0: 50 0F 01 BC 50 0F 01 74  77 62 31 01 20 00 01 57  P...P..twb1. ..W
04F0: 07 02 00 10 15 80 00 77  05 6E BC 50 0F 01 16 80  .......w.n.P....
0500: 99 BC 50 0F 01 99 BC 50  0F 01 1C 06 80 2B BC 50  ..P....P.....+.P
0510: 0F 01 17 80 23 2B BC 50  0F 01 18 80 23 2B BC 50  ....#+.P....#+.P
0520: 0F 01 19 80 23 66 0A 80  BC 50 0F 01 BC 50 0F 01  ....#f...P...P..
0530: 74 77 61 30 2B BC 50 0F  01 1A 80 23 03 01 10 16  twa0+.P....#....
0540: 80 43 00 43 01 2B BC 50  0F 01 1B 80 23 66 0A 80  .C.C.+.P....#f..
0550: BC 50 0F 01 BC 50 0F 01  74 77 61 31 2B BC 50 0F  .P...P..twa1+.P.
0560: 01 1C 80 23 53 BC 50 0F  01 BC 50 0F 01 74 77 61  ...#S.P...P..twa
0570: 31 01 20 00 01 57 07 02  00 10 1D 80 00 A2 06 6E  1. ..W.........n
0580: BC 50 0F 01 1F 80 99 BC  50 0F 01 99 BC 50 0F 01  .P......P....P..
0590: 1C 06 80 2B BC 50 0F 01  20 80 23 2B BC 50 0F 01  ...+.P.. .#+.P..
05A0: 21 80 23 2B BC 50 0F 01  22 80 23 66 0A 80 BC 50  !.#+.P..".#f...P
05B0: 0F 01 BC 50 0F 01 74 68  6B 31 2B BC 50 0F 01 23  ...P..thk1+.P..#
05C0: 80 23 24 24 80 04 80 04  80 25 02 00 10 04 80 00  .#$$.....%......
05D0: F4 05 66 0A 80 BC 50 0F  01 BC 50 0F 01 74 68 6B  ..f...P...P..thk
05E0: 32 53 BC 50 0F 01 BC 50  0F 01 74 68 6B 32 01 18  2S.P...P..thk2..
05F0: 00 01 F4 05 1C 25 80 2B  BC 50 0F 01 26 80 23 66  .....%.+.P..&.#f
0600: 0A 80 BC 50 0F 01 BC 50  0F 01 74 68 6B 32 53 BC  ...P...P..thk2S.
0610: 50 0F 01 BC 50 0F 01 74  68 6B 32 24 27 80 04 80  P...P..thk2$'...
0620: 04 80 25 02 00 10 04 80  00 31 06 01 18 00 01 6E  ..%......1.....n
0630: 06 02 00 10 02 80 00 6E  06 42 03 01 10 28 80 43  .......n.B...(.C
0640: 00 43 01 02 09 10 02 80  01 6B 06 2E 6E BC 50 0F  .C.......k..n.P.
0650: 01 29 80 99 BC 50 0F 01  99 BC 50 0F 01 1C 06 80  .)...P....P.....
0660: 2B BC 50 0F 01 2A 80 23  01 18 00 01 6E 06 6E BC  +.P..*.#....n.n.
0670: 50 0F 01 16 80 99 BC 50  0F 01 99 BC 50 0F 01 1C  P......P....P...
0680: 06 80 03 02 10 2B 80 2B  BC 50 0F 01 2C 80 23 2B  .....+.+.P..,.#+
0690: BC 50 0F 01 2D 80 23 03  01 10 1D 80 01 57 07 01  .P..-.#......W..
06A0: 57 07 02 00 10 1E 80 00  25 07 2B BC 50 0F 01 2E  W.......%.+.P...
06B0: 80 23 2B BC 50 0F 01 2F  80 23 66 0A 80 BC 50 0F  .#+.P../.#f...P.
06C0: 01 BC 50 0F 01 74 77 62  30 2B BC 50 0F 01 30 80  ..P..twb0+.P..0.
06D0: 23 2B BC 50 0F 01 31 80  23 03 02 10 2B 80 2B BC  #+.P..1.#...+.+.
06E0: 50 0F 01 32 80 23 2B BC  50 0F 01 33 80 23 66 0A  P..2.#+.P..3.#f.
06F0: 80 BC 50 0F 01 BC 50 0F  01 74 77 62 31 53 BC 50  ..P...P..twb1S.P
0700: 0F 01 BC 50 0F 01 74 77  62 31 2B BC 50 0F 01 34  ...P..twb1+.P..4
0710: 80 23 03 02 10 01 80 2B  BC 50 0F 01 35 80 23 01  .#.....+.P..5.#.
0720: 18 00 01 57 07 02 00 10  05 80 00 57 07 2B BC 50  ...W.......W.+.P
0730: 0F 01 37 80 23 6E BC 50  0F 01 1E 80 99 BC 50 0F  ..7.#n.P......P.
0740: 01 99 BC 50 0F 01 1C 06  80 2B BC 50 0F 01 38 80  ...P.....+.P..8.
0750: 23 01 57 07 01 57 07 21  00 42 45 3A 80 F8 FF FF  #.W..W.!.BE:....
0760: 7F F8 FF FF 7F 66 64 6F  31 04 80 55 3A 80 F8 FF  .....fdo1..U:...
0770: FF 7F F8 FF FF 7F 66 64  6F 31 52 3B 80 F0 FF FF  ......fdo1R;....
0780: 7F F0 FF FF 7F 70 62 31  30 46 01 38 3C 80 75 00  .....pb10F.8<.u.
0790: 3D 80 75 01 75 02 92 01  07 50 0F 01 92 01 BC 50  =.u.u....P.....P
07A0: 0F 01 94 01 07 50 0F 01  94 01 BC 50 0F 01 BA 07  .....P.....P....
07B0: 50 0F 01 3E 80 3F 80 40  80 41 80 BA F0 FF FF 7F  P..>.?.@.A......
07C0: 42 80 43 80 44 80 41 80  80 F0 FF FF 7F 80 07 50  B.C.D.A........P
07D0: 0F 01 80 BC 50 0F 01 27  05 07 50 0F 01 64 45 45  ....P..'..P..dEE
07E0: 80 F8 FF FF 7F F8 FF FF  7F 73 31 34 35 04 80 1C  .........s145...
07F0: 46 80 45 3A 80 F8 FF FF  7F F8 FF FF 7F 66 64 69  F.E:.........fdi
0800: 31 04 80 2B 07 50 0F 01  47 80 1C 48 80 4A F0 FF  1..+.P..G..H.J..
0810: FF 7F 07 50 0F 01 23 2B  07 50 0F 01 49 80 23 2A  ...P..#+.P..I.#*
0820: 05 07 50 0F 01 52 45 80  F8 FF FF 7F F8 FF FF 7F  ..P..RE.........
0830: 73 31 34 35 45 45 80 F8  FF FF 7F F8 FF FF 7F 73  s145EE.........s
0840: 31 34 36 04 80 5B 4A 80  07 50 0F 01 07 50 0F 01  146..[J..P...P..
0850: 74 6C 6B 30 2B 07 50 0F  01 4B 80 23 5B 4A 80 07  tlk0+.P..K.#[J..
0860: 50 0F 01 07 50 0F 01 74  6C 6B 31 52 45 80 F8 FF  P...P..tlk1RE...
0870: FF 7F F8 FF FF 7F 73 31  34 36 45 45 80 F8 FF FF  ......s146EE....
0880: 7F F8 FF FF 7F 73 31 34  37 04 80 6E BC 50 0F 01  .....s147..n.P..
0890: 1F 80 99 BC 50 0F 01 2B  BC 50 0F 01 4C 80 23 5B  ....P..+.P..L.#[
08A0: 4A 80 07 50 0F 01 07 50  0F 01 74 6C 6B 30 2B 07  J..P...P..tlk0+.
08B0: 50 0F 01 4D 80 23 5B 4A  80 07 50 0F 01 07 50 0F  P..M.#[J..P...P.
08C0: 01 74 6C 6B 31 52 45 80  F8 FF FF 7F F8 FF FF 7F  .tlk1RE.........
08D0: 73 31 34 37 45 45 80 F8  FF FF 7F F8 FF FF 7F 73  s147EE.........s
08E0: 31 34 38 04 80 2B BC 50  0F 01 4E 80 1C 25 80 52  148..+.P..N..%.R
08F0: 45 80 F8 FF FF 7F F8 FF  FF 7F 73 31 34 38 02 87  E.........s148..
0900: 7F 05 80 80 1A 09 45 45  80 F8 FF FF 7F F8 FF FF  ......EE........
0910: 7F 73 31 35 30 04 80 01  47 09 02 87 7F 36 80 80  .s150...G....6..
0920: 36 09 45 45 80 F8 FF FF  7F F8 FF FF 7F 73 31 35  6.EE.........s15
0930: 30 04 80 01 47 09 45 45  80 F8 FF FF 7F F8 FF FF  0...G.EE........
0940: 7F 73 31 34 39 04 80 79  00 BC 50 0F 01 F0 FF FF  .s149..y..P.....
0950: 7F 2B BC 50 0F 01 4F 80  23 52 45 80 F8 FF FF 7F  .+.P..O.#RE.....
0960: F8 FF FF 7F 73 31 34 39  52 45 80 F8 FF FF 7F F8  ....s149RE......
0970: FF FF 7F 73 31 35 30 45  45 80 F8 FF FF 7F F8 FF  ...s150EE.......
0980: FF 7F 73 31 35 31 04 80  79 00 BC 50 0F 01 07 50  ..s151..y..P...P
0990: 0F 01 5B 4A 80 07 50 0F  01 07 50 0F 01 74 6C 6B  ..[J..P...P..tlk
09A0: 30 03 03 10 2B 80 2B 07  50 0F 01 50 80 23 5B 4A  0...+.+.P..P.#[J
09B0: 80 07 50 0F 01 07 50 0F  01 74 6C 6B 31 52 45 80  ..P...P..tlk1RE.
09C0: F8 FF FF 7F F8 FF FF 7F  73 31 35 31 45 45 80 F8  ........s151EE..
09D0: FF FF 7F F8 FF FF 7F 73  31 35 32 04 80 27 05 07  .......s152..'..
09E0: 50 0F 01 65 1C 51 80 45  3A 80 F8 FF FF 7F F8 FF  P..e.Q.E:.......
09F0: FF 7F 66 64 6F 31 04 80  55 3A 80 F8 FF FF 7F F8  ..fdo1..U:......
0A00: FF FF 7F 66 64 6F 31 52  45 80 F8 FF FF 7F F8 FF  ...fdo1RE.......
0A10: FF 7F 73 31 35 32 4E 01  07 50 0F 01 92 01 0C 50  ..s152N..P.....P
0A20: 0F 01 92 01 0E 50 0F 01  92 01 3B 50 0F 01 92 01  .....P....;P....
0A30: 79 50 0F 01 92 01 7A 50  0F 01 94 01 0C 50 0F 01  yP....zP.....P..
0A40: 94 01 0E 50 0F 01 94 01  3B 50 0F 01 94 01 79 50  ...P....;P....yP
0A50: 0F 01 94 01 7A 50 0F 01  29 10 F0 FF FF 7F 52 80  ....zP..).....R.
0A60: F0 FF FF 7F 80 0C 50 0F  01 80 0E 50 0F 01 80 3B  ......P....P...;
0A70: 50 0F 01 80 79 50 0F 01  80 7A 50 0F 01 4A BC 50  P...yP...zP..J.P
0A80: 0F 01 F0 FF FF 7F 4A F0  FF FF 7F BC 50 0F 01 1C  ......J.....P...
0A90: 46 80 45 52 80 F0 FF FF  7F F0 FF FF 7F 70 73 30  F.ER.........ps0
0AA0: 30 04 80 1C 46 80 45 3A  80 F8 FF FF 7F F8 FF FF  0...F.E:........
0AB0: 7F 66 64 69 31 04 80 6E  BC 50 0F 01 04 80 99 BC  .fdi1..n.P......
0AC0: 50 0F 01 99 BC 50 0F 01  1C 06 80 03 02 10 2B 80  P....P........+.
0AD0: 2B BC 50 0F 01 53 80 23  52 52 80 F0 FF FF 7F F0  +.P..S.#RR......
0AE0: FF FF 7F 70 73 30 30 45  3B 80 F0 FF FF 7F F0 FF  ...ps00E;.......
0AF0: FF 7F 70 65 30 30 04 80  66 0A 80 BC 50 0F 01 BC  ..pe00..f...P...
0B00: 50 0F 01 74 77 62 30 2B  BC 50 0F 01 54 80 23 2B  P..twb0+.P..T.#+
0B10: BC 50 0F 01 55 80 23 52  52 80 F0 FF FF 7F F0 FF  .P..U.#RR.......
0B20: FF 7F 70 65 30 30 45 3B  80 F0 FF FF 7F F0 FF FF  ..pe00E;........
0B30: 7F 70 65 30 31 04 80 66  0A 80 BC 50 0F 01 BC 50  .pe01..f...P...P
0B40: 0F 01 74 77 62 31 2B BC  50 0F 01 56 80 23 53 BC  ..twb1+.P..V.#S.
0B50: 50 0F 01 BC 50 0F 01 74  77 62 31 6E BC 50 0F 01  P...P..twb1n.P..
0B60: 1E 80 99 BC 50 0F 01 99  BC 50 0F 01 1C 06 80 2B  ....P....P.....+
0B70: BC 50 0F 01 57 80 23 45  3A 80 F8 FF FF 7F F8 FF  .P..W.#E:.......
0B80: FF 7F 66 64 6F 31 04 80  55 3A 80 F8 FF FF 7F F8  ..fdo1..U:......
0B90: FF FF 7F 66 64 6F 31 52  3B 80 F0 FF FF 7F F0 FF  ...fdo1R;.......
0BA0: FF 7F 70 65 30 31 46 00  45 58 80 F0 FF FF 7F F0  ..pe01F.EX......
0BB0: FF FF 7F 71 73 74 63 04  80 45 3A 80 F0 FF FF 7F  ...qstc..E:.....
0BC0: F0 FF FF 7F 66 64 69 32  04 80 1B                 ....fdi2...     
```

#### Opcodes

```
  0: 0x0003 [0x03] ExtData[1]->WorkLocal[1] = Work_Zone[7]
  1: 0x0008 [0x4A] LocalPlayer looks at EventEntity
  2: 0x0011 [0x1E] EventEntity looks at LocalPlayer and starts talking
  3: 0x0016 [0x6F] WAIT_FRAME_DELAY: Yield until WaitTime reaches zero
  4: 0x0017 [0x70] WAIT_ENTITY_RENDER_FLAG: Wait while EventEntity->Render.Flags3 bit 2 is set (cancel turn if not)
  5: 0x0018 [0x2B] Faursel (ID: 17780924/0x010F50BC) [9551*]:
    → "So what'll it be? I'll read the list now, so decide which set is in your budget and make a note o' what you need."
  6: 0x001F [0x23] WAIT_FOR_DIALOG_INTERACTION
  7: 0x0020 [0x03] Work_Zone[2] = 500000*
  8: 0x0025 [0x02] IF !(ExtData[1]->WorkLocal[1] == 1*) GOTO 0x03CD
  9: 0x002D [0x24] CREATE_DIALOG(message_id=10955*, default_option=0*, option_flags=0*)
    → "What'll it be? [Beginner list./Intermediate list./Advanced list./Where's Tenzen?/Pay the $0 gil./Please explain again./Let me think about it.]"
 10: 0x0034 [0x25] WAIT_DIALOG_SELECT()
 11: 0x0035 [0x02] IF !(Work_Zone[0] == 0*) GOTO 0x00B4
 12: 0x003D [0x6E] Faursel (ID: 17780924/0x010F50BC) uses emote 5*
 13: 0x0044 [0x99] Wait for Faursel (ID: 17780924/0x010F50BC) animation to complete
 14: 0x0049 [0x99] Wait for Faursel (ID: 17780924/0x010F50BC) animation to complete
 15: 0x004E [0x1C] WAIT(30* ticks)
 16: 0x0051 [0x2B] Faursel (ID: 17780924/0x010F50BC) [9567*]:
    → "You say you want t' go to Aht Urhgan, but you're too big o' a coward to face a challenge, eh? That attitude will get you nowhere in the Empire, I tell you. Ah well, it's all the same t' me, as long as I make a profit."
 17: 0x0058 [0x23] WAIT_FOR_DIALOG_INTERACTION
 18: 0x0059 [0x2B] Faursel (ID: 17780924/0x010F50BC) [9568*]:
    → "This will be more like running errands, but there are a lot o' things for you to collect on this list."
 19: 0x0060 [0x23] WAIT_FOR_DIALOG_INTERACTION
 20: 0x0061 [0x03] Work_Zone[1] = 10*
 21: 0x0066 [0x43] SEND_EVENT_UPDATE: Send pending tag to server (packet 0x005B)
 22: 0x0068 [0x43] SEND_EVENT_UPDATE: Check pending flag (skip if not pending)
 23: 0x006A [0x66] LOAD_EXT_SCHEDULER_MAIN: Load scheduler "tlk0" with entities [Faursel (ID: 17780924/0x010F50BC), Faursel (ID: 17780924/0x010F50BC)], work=29*
 24: 0x0079 [0x2B] Faursel (ID: 17780924/0x010F50BC) [9569*]:
    → "There are a lot o' curious items here. I need you to bring me $0, $1, and $2."
 25: 0x0080 [0x23] WAIT_FOR_DIALOG_INTERACTION
 26: 0x0081 [0x03] Work_Zone[1] = 11*
 27: 0x0086 [0x43] SEND_EVENT_UPDATE: Send pending tag to server (packet 0x005B)
 28: 0x0088 [0x43] SEND_EVENT_UPDATE: Check pending flag (skip if not pending)
 29: 0x008A [0x2B] Faursel (ID: 17780924/0x010F50BC) [9570*]:
    → "Wait, there's more. I also require $3 and $4. ...Oh, and one last thing--$5. Hand me these six items at one time, and I will be satisfied."
 30: 0x0091 [0x23] WAIT_FOR_DIALOG_INTERACTION
 31: 0x0092 [0x66] LOAD_EXT_SCHEDULER_MAIN: Load scheduler "tlk1" with entities [Faursel (ID: 17780924/0x010F50BC), Faursel (ID: 17780924/0x010F50BC)], work=29*
 32: 0x00A1 [0x53] WAIT_SCHEDULER_TASK: Wait for scheduler "tlk1" with entities [Faursel (ID: 17780924/0x010F50BC), Faursel (ID: 17780924/0x010F50BC)]
 33: 0x00AE [0x01] GOTO 0x0020

SUBROUTINE_0267:
 34: 0x0267 [0x1C] WAIT(60* ticks)
 35: 0x026A [0x2B] Faursel (ID: 17780924/0x010F50BC) [9576*]:
    → "You're not going t' regret this later, are you?"
 36: 0x0271 [0x23] WAIT_FOR_DIALOG_INTERACTION
 37: 0x0272 [0x66] LOAD_EXT_SCHEDULER_MAIN: Load scheduler "thk2" with entities [Faursel (ID: 17780924/0x010F50BC), Faursel (ID: 17780924/0x010F50BC)], work=29*
 38: 0x0281 [0x53] WAIT_SCHEDULER_TASK: Wait for scheduler "thk2" with entities [Faursel (ID: 17780924/0x010F50BC), Faursel (ID: 17780924/0x010F50BC)]
 39: 0x028E [0x24] CREATE_DIALOG(message_id=9577*, default_option=0*, option_flags=0*)
    → "Be honest. [Now that you mention it.../Regret? I know the word not!]"
 40: 0x0295 [0x25] WAIT_DIALOG_SELECT()
 41: 0x0296 [0x02] IF !(Work_Zone[0] == 0*) GOTO 0x02A4
 42: 0x029E [0x01] GOTO 0x0018

SUBROUTINE_02E1:
 43: 0x02E1 [0x6E] Faursel (ID: 17780924/0x010F50BC) uses emote 13*
 44: 0x02E8 [0x99] Wait for Faursel (ID: 17780924/0x010F50BC) animation to complete
 45: 0x02ED [0x99] Wait for Faursel (ID: 17780924/0x010F50BC) animation to complete
 46: 0x02F2 [0x1C] WAIT(30* ticks)
 47: 0x02F5 [0x03] Work_Zone[2] = 781*
 48: 0x02FA [0x2B] Faursel (ID: 17780924/0x010F50BC) [9579*]:
    → "Congratulations, [sir/ma'am], we have a deal! Come back tomorrow and I will give you the $3."
 49: 0x0301 [0x23] WAIT_FOR_DIALOG_INTERACTION
 50: 0x0302 [0x2B] Faursel (ID: 17780924/0x010F50BC) [9580*]:
    → "And don't you worry, because the Tenshodo is true t' its word!"
 51: 0x0309 [0x23] WAIT_FOR_DIALOG_INTERACTION
 52: 0x030A [0x03] Work_Zone[1] = 3*
 53: 0x030F [0x01] GOTO 0x0757

SUBROUTINE_03CA:
 54: 0x03CA [0x01] GOTO 0x0757
 55: 0x03CD [0x24] CREATE_DIALOG(message_id=9552*, default_option=0*, option_flags=0*)
    → "What'll it be? [Beginner list./Intermediate list./Advanced list./Pay the $0 gil./Please explain again./Let me think about it.]"
 56: 0x03D4 [0x25] WAIT_DIALOG_SELECT()
 57: 0x03D5 [0x02] IF !(Work_Zone[0] == 0*) GOTO 0x0454
 58: 0x03DD [0x6E] Faursel (ID: 17780924/0x010F50BC) uses emote 5*
 59: 0x03E4 [0x99] Wait for Faursel (ID: 17780924/0x010F50BC) animation to complete
 60: 0x03E9 [0x99] Wait for Faursel (ID: 17780924/0x010F50BC) animation to complete
 61: 0x03EE [0x1C] WAIT(30* ticks)
 62: 0x03F1 [0x2B] Faursel (ID: 17780924/0x010F50BC) [9567*]:
    → "You say you want t' go to Aht Urhgan, but you're too big o' a coward to face a challenge, eh? That attitude will get you nowhere in the Empire, I tell you. Ah well, it's all the same t' me, as long as I make a profit."
 63: 0x03F8 [0x23] WAIT_FOR_DIALOG_INTERACTION
 64: 0x03F9 [0x2B] Faursel (ID: 17780924/0x010F50BC) [9568*]:
    → "This will be more like running errands, but there are a lot o' things for you to collect on this list."
 65: 0x0400 [0x23] WAIT_FOR_DIALOG_INTERACTION
 66: 0x0401 [0x03] Work_Zone[1] = 10*
 67: 0x0406 [0x43] SEND_EVENT_UPDATE: Send pending tag to server (packet 0x005B)
 68: 0x0408 [0x43] SEND_EVENT_UPDATE: Check pending flag (skip if not pending)
 69: 0x040A [0x66] LOAD_EXT_SCHEDULER_MAIN: Load scheduler "tlk0" with entities [Faursel (ID: 17780924/0x010F50BC), Faursel (ID: 17780924/0x010F50BC)], work=29*
 70: 0x0419 [0x2B] Faursel (ID: 17780924/0x010F50BC) [9569*]:
    → "There are a lot o' curious items here. I need you to bring me $0, $1, and $2."
 71: 0x0420 [0x23] WAIT_FOR_DIALOG_INTERACTION
 72: 0x0421 [0x03] Work_Zone[1] = 11*
 73: 0x0426 [0x43] SEND_EVENT_UPDATE: Send pending tag to server (packet 0x005B)
 74: 0x0428 [0x43] SEND_EVENT_UPDATE: Check pending flag (skip if not pending)
 75: 0x042A [0x2B] Faursel (ID: 17780924/0x010F50BC) [9570*]:
    → "Wait, there's more. I also require $3 and $4. ...Oh, and one last thing--$5. Hand me these six items at one time, and I will be satisfied."
 76: 0x0431 [0x23] WAIT_FOR_DIALOG_INTERACTION
 77: 0x0432 [0x66] LOAD_EXT_SCHEDULER_MAIN: Load scheduler "tlk1" with entities [Faursel (ID: 17780924/0x010F50BC), Faursel (ID: 17780924/0x010F50BC)], work=29*
 78: 0x0441 [0x53] WAIT_SCHEDULER_TASK: Wait for scheduler "tlk1" with entities [Faursel (ID: 17780924/0x010F50BC), Faursel (ID: 17780924/0x010F50BC)]
 79: 0x044E [0x01] GOTO 0x0020

SUBROUTINE_05F4:
 80: 0x05F4 [0x1C] WAIT(60* ticks)
 81: 0x05F7 [0x2B] Faursel (ID: 17780924/0x010F50BC) [9576*]:
    → "You're not going t' regret this later, are you?"
 82: 0x05FE [0x23] WAIT_FOR_DIALOG_INTERACTION
 83: 0x05FF [0x66] LOAD_EXT_SCHEDULER_MAIN: Load scheduler "thk2" with entities [Faursel (ID: 17780924/0x010F50BC), Faursel (ID: 17780924/0x010F50BC)], work=29*
 84: 0x060E [0x53] WAIT_SCHEDULER_TASK: Wait for scheduler "thk2" with entities [Faursel (ID: 17780924/0x010F50BC), Faursel (ID: 17780924/0x010F50BC)]
 85: 0x061B [0x24] CREATE_DIALOG(message_id=9577*, default_option=0*, option_flags=0*)
    → "Be honest. [Now that you mention it.../Regret? I know the word not!]"
 86: 0x0622 [0x25] WAIT_DIALOG_SELECT()
 87: 0x0623 [0x02] IF !(Work_Zone[0] == 0*) GOTO 0x0631
 88: 0x062B [0x01] GOTO 0x0018

SUBROUTINE_066E:
 89: 0x066E [0x6E] Faursel (ID: 17780924/0x010F50BC) uses emote 13*
 90: 0x0675 [0x99] Wait for Faursel (ID: 17780924/0x010F50BC) animation to complete
 91: 0x067A [0x99] Wait for Faursel (ID: 17780924/0x010F50BC) animation to complete
 92: 0x067F [0x1C] WAIT(30* ticks)
 93: 0x0682 [0x03] Work_Zone[2] = 781*
 94: 0x0687 [0x2B] Faursel (ID: 17780924/0x010F50BC) [9579*]:
    → "Congratulations, [sir/ma'am], we have a deal! Come back tomorrow and I will give you the $3."
 95: 0x068E [0x23] WAIT_FOR_DIALOG_INTERACTION
 96: 0x068F [0x2B] Faursel (ID: 17780924/0x010F50BC) [9580*]:
    → "And don't you worry, because the Tenshodo is true t' its word!"
 97: 0x0696 [0x23] WAIT_FOR_DIALOG_INTERACTION
 98: 0x0697 [0x03] Work_Zone[1] = 3*
 99: 0x069C [0x01] GOTO 0x0757

SUBROUTINE_0757:
100: 0x0757 [0x21] END_EVENT
101: 0x0758 [0x00] END_REQSTACK()

SUBROUTINE_0759:
102: 0x0759 [0x42] SET_CLI_EVENT_CANCEL_DATA()
103: 0x075A [0x45] LOAD_SCHEDULED_TASK: Load scheduler "fdo1" with entities [EventEntity, EventEntity], work=[200*, 0*]
104: 0x076B [0x55] WAIT_LOAD_SCHEDULER: Wait for scheduler "fdo1" with entities [EventEntity, EventEntity], work=200*
105: 0x077A [0x52] END_LOAD_SCHEDULER: End scheduler "pb10" with entities [LocalPlayer, LocalPlayer], work=269*
106: 0x0789 [0x46] CAMERA_CONTROL: Disable user control
107: 0x078B [0x38] SET_CLIENT_EVENT_MODE(mode=19*)
108: 0x078E [0x75] LOAD_ROOM(Load indoor room, room=456*)
109: 0x0792 [0x75] LOAD_ROOM(No action)
110: 0x0794 [0x75] LOAD_ROOM(Change sub-map, room=0x0192)
111: 0x0798 [0x07] 0x0F50 += 0x9201
112: 0x079D [0x01] GOTO 0x50BC
```

#### Data or dead code:

```
# Dead code (unreachable instructions):
     0x00B1 [0x01] GOTO 0x03CA
     0x014E [0x01] GOTO 0x03CA
     0x01D4 [0x01] GOTO 0x03CA
     0x0264 [0x01] GOTO 0x0267
# Dead code (unreachable instructions):
     0x02A1 [0x01] GOTO 0x02E1
# Dead code (unreachable instructions):
     0x0312 [0x01] GOTO 0x03CA
     0x0395 [0x01] GOTO 0x03CA
     0x03C7 [0x01] GOTO 0x03CA
# Dead code (unreachable instructions):
     0x0451 [0x01] GOTO 0x0757
     0x04EE [0x01] GOTO 0x0757
     0x0574 [0x01] GOTO 0x0757
     0x05F1 [0x01] GOTO 0x05F4
# Dead code (unreachable instructions):
     0x062E [0x01] GOTO 0x066E
# Dead code (unreachable instructions):
     0x069F [0x01] GOTO 0x0757
     0x0722 [0x01] GOTO 0x0757
     0x0754 [0x01] GOTO 0x0757
# Dead code (unreachable instructions):
     0x07A0 [0x0F] 0x9401 ^= 0x0701
     0x07A5 [0x50] END_SCHEDULER_TASK: End scheduler 0x000007BA with entities [0x010F, 0x50BC], work=[404, 271]
     0x07B2 [0x01] GOTO 0x803E
     0x07B5 [0x3F] 0x4080 = 0x4180 % 0xBA80
     0x07BC [0xF0] UNKNOWN_0xF0
     0x07BD [0xFF] UNKNOWN_0xFF
     0x07BE [0xFF] UNKNOWN_0xFF
     0x07BF [0x7F] WAIT_DIALOG_SELECT_ALT()
     0x07C0 [0x42] SET_CLI_EVENT_CANCEL_DATA()
     0x07C1 [0x80] LOAD_WAIT(entity=Unknown NPC (ID: 2151972931/0x80448043))
     0x07C6 [0x41] 0x0780 = 0x7FFF (bits References[128]-0xFFF0)
     0x07CF [0x50] END_SCHEDULER_TASK: End scheduler 0x00000705 with entities [0x010F, 0x0F50], work=[48256, 9985]
     0x07DC [0x01] GOTO 0x4564
     0x07DF [0x45] LOAD_SCHEDULED_TASK: Load scheduler 0x04353431 with entities [Unknown NPC (ID: 4169138175/0xF87FFFFF), Unknown NPC (ID: 1937768447/0x737FFFFF)], work=[0xF880, 0x1C80]
     0x07F0 [0x46] CAMERA_CONTROL: Unknown mode 0x80
     0x07F2 [0x45] LOAD_SCHEDULED_TASK: Load scheduler "fdi1" with entities [EventEntity, EventEntity], work=[200*, 0*]
     0x0803 [0x2B] Aldo (ID: 17780743/0x010F5007) [10956*]:
    → "Ah yes, Tenzen mentioned that you might be passing through."
     0x080A [0x1C] WAIT(45* ticks)
     0x080D [0x4A] LocalPlayer looks at Aldo (ID: 17780743/0x010F5007)
     0x0816 [0x23] WAIT_FOR_DIALOG_INTERACTION
     0x0817 [0x2B] Aldo (ID: 17780743/0x010F5007) [10957*]:
    → "The ambassador set his sights on Aht Urhgan, no?"
     0x081E [0x23] WAIT_FOR_DIALOG_INTERACTION
     0x081F [0x2A] GET_REQ_LEVEL(level=5, entity_id=Aldo (ID: 17780743/0x010F5007))
     0x0825 [0x52] END_LOAD_SCHEDULER: End scheduler "s145" with entities [EventEntity, EventEntity], work=763*
     0x0834 [0x45] LOAD_SCHEDULED_TASK: Load scheduler "s146" with entities [EventEntity, EventEntity], work=[763*, 0*]
     0x0845 [0x5B] LOAD_EXT_SCHEDULER: Load scheduler "tlk0" with entities [Aldo (ID: 17780743/0x010F5007), Aldo (ID: 17780743/0x010F5007)], work=185*
     0x0854 [0x2B] Aldo (ID: 17780743/0x010F5007) [10958*]:
    → "Given that you're trying to save the world...I'll let you board for free. Rather magnanimous, wouldn't you say?"
     0x085B [0x23] WAIT_FOR_DIALOG_INTERACTION
     0x085C [0x5B] LOAD_EXT_SCHEDULER: Load scheduler "tlk1" with entities [Aldo (ID: 17780743/0x010F5007), Aldo (ID: 17780743/0x010F5007)], work=185*
     0x086B [0x52] END_LOAD_SCHEDULER: End scheduler "s146" with entities [EventEntity, EventEntity], work=763*
     0x087A [0x45] LOAD_SCHEDULED_TASK: Load scheduler "s147" with entities [EventEntity, EventEntity], work=[763*, 0*]
     0x088B [0x6E] Faursel (ID: 17780924/0x010F50BC) uses emote 21*
     0x0892 [0x99] Wait for Faursel (ID: 17780924/0x010F50BC) animation to complete
     0x0897 [0x2B] Faursel (ID: 17780924/0x010F50BC) [10959*]:
    → "Boss! You can't possibly mean t' let these freeloaders go without payin' a single gil!"
     0x089E [0x23] WAIT_FOR_DIALOG_INTERACTION
     0x089F [0x5B] LOAD_EXT_SCHEDULER: Load scheduler "tlk0" with entities [Aldo (ID: 17780743/0x010F5007), Aldo (ID: 17780743/0x010F5007)], work=185*
     0x08AE [0x2B] Aldo (ID: 17780743/0x010F5007) [10960*]:
    → "Tenzen left more than enough to cover our friend here. Remember that huge fuss he made?"
     0x08B5 [0x23] WAIT_FOR_DIALOG_INTERACTION
     0x08B6 [0x5B] LOAD_EXT_SCHEDULER: Load scheduler "tlk1" with entities [Aldo (ID: 17780743/0x010F5007), Aldo (ID: 17780743/0x010F5007)], work=185*
     0x08C5 [0x52] END_LOAD_SCHEDULER: End scheduler "s147" with entities [EventEntity, EventEntity], work=763*
     0x08D4 [0x45] LOAD_SCHEDULED_TASK: Load scheduler "s148" with entities [EventEntity, EventEntity], work=[763*, 0*]
     0x08E5 [0x2B] Faursel (ID: 17780924/0x010F50BC) [10961*]:
    → "Urk!"
     0x08EC [0x1C] WAIT(60* ticks)
     0x08EF [0x52] END_LOAD_SCHEDULER: End scheduler "s148" with entities [EventEntity, EventEntity], work=763*
     0x08FE [0x02] IF !(LocalPlayer->Race == 5*) GOTO 0x091A
     0x0906 [0x45] LOAD_SCHEDULED_TASK: Load scheduler "s150" with entities [EventEntity, EventEntity], work=[763*, 0*]
     0x0917 [0x01] GOTO 0x0947
     0x091A [0x02] IF !(LocalPlayer->Race == 6*) GOTO 0x0936
     0x0922 [0x45] LOAD_SCHEDULED_TASK: Load scheduler "s150" with entities [EventEntity, EventEntity], work=[763*, 0*]
     0x0933 [0x01] GOTO 0x0947
     0x0936 [0x45] LOAD_SCHEDULED_TASK: Load scheduler "s149" with entities [EventEntity, EventEntity], work=[763*, 0*]
     0x0947 [0x79] Faursel (ID: 17780924/0x010F50BC) looks at LocalPlayer (Basic look)
     0x0951 [0x2B] Faursel (ID: 17780924/0x010F50BC) [10962*]:
    → "Y'know what they say. You can pick your friends and you can pick your nose, but you can't...heh heh heh."
     0x0958 [0x23] WAIT_FOR_DIALOG_INTERACTION
     0x0959 [0x52] END_LOAD_SCHEDULER: End scheduler "s149" with entities [EventEntity, EventEntity], work=763*
     0x0968 [0x52] END_LOAD_SCHEDULER: End scheduler "s150" with entities [EventEntity, EventEntity], work=763*
     0x0977 [0x45] LOAD_SCHEDULED_TASK: Load scheduler "s151" with entities [EventEntity, EventEntity], work=[763*, 0*]
     0x0988 [0x79] Faursel (ID: 17780924/0x010F50BC) looks at Aldo (ID: 17780743/0x010F5007) (Basic look)
     0x0992 [0x5B] LOAD_EXT_SCHEDULER: Load scheduler "tlk0" with entities [Aldo (ID: 17780743/0x010F5007), Aldo (ID: 17780743/0x010F5007)], work=185*
     0x09A1 [0x03] Work_Zone[3] = 781*
     0x09A6 [0x2B] Aldo (ID: 17780743/0x010F5007) [10963*]:
    → "So give [him/her] $6 and be done with it."
     0x09AD [0x23] WAIT_FOR_DIALOG_INTERACTION
     0x09AE [0x5B] LOAD_EXT_SCHEDULER: Load scheduler "tlk1" with entities [Aldo (ID: 17780743/0x010F5007), Aldo (ID: 17780743/0x010F5007)], work=185*
     0x09BD [0x52] END_LOAD_SCHEDULER: End scheduler "s151" with entities [EventEntity, EventEntity], work=763*
     0x09CC [0x45] LOAD_SCHEDULED_TASK: Load scheduler "s152" with entities [EventEntity, EventEntity], work=[763*, 0*]
     0x09DD [0x27] REQ_SET(priority=0x05, entity_id=Aldo (ID: 17780743/0x010F5007), tag_num=0x65)
     0x09E4 [0x1C] WAIT(120* ticks)
     0x09E7 [0x45] LOAD_SCHEDULED_TASK: Load scheduler "fdo1" with entities [EventEntity, EventEntity], work=[200*, 0*]
     0x09F8 [0x55] WAIT_LOAD_SCHEDULER: Wait for scheduler "fdo1" with entities [EventEntity, EventEntity], work=200*
     0x0A07 [0x52] END_LOAD_SCHEDULER: End scheduler "s152" with entities [EventEntity, EventEntity], work=763*
     0x0A16 [0x4E] SET_ENTITY_HIDE_FLAG: Hide Aldo (ID: 17780743/0x010F5007)
     0x0A1C [0x92] Yin Pocanakhu (ID: 17780748/0x010F500C)->Render.Flags3 ^= 0x01
     0x0A22 [0x92] Sattal-Mansal (ID: 17780750/0x010F500E)->Render.Flags3 ^= 0x01
     0x0A28 [0x92] Vola (ID: 17780795/0x010F503B)->Render.Flags3 ^= 0x01
     0x0A2E [0x92] Akamafula (ID: 17780857/0x010F5079)->Render.Flags3 ^= 0x01
     0x0A34 [0x92] Amalasanda (ID: 17780858/0x010F507A)->Render.Flags3 ^= 0x01
     0x0A3A [0x94] Yin Pocanakhu (ID: 17780748/0x010F500C)->Render.Flags3 ^= 0x01
     0x0A40 [0x94] Sattal-Mansal (ID: 17780750/0x010F500E)->Render.Flags3 ^= 0x01
     0x0A46 [0x94] Vola (ID: 17780795/0x010F503B)->Render.Flags3 ^= 0x01
     0x0A4C [0x94] Akamafula (ID: 17780857/0x010F5079)->Render.Flags3 ^= 0x01
     0x0A52 [0x94] Amalasanda (ID: 17780858/0x010F507A)->Render.Flags3 ^= 0x01
     0x0A58 [0x29] REQ_SET_WAIT(priority=0x10, entity_id=LocalPlayer, tag_num=0x52)
     0x0A5F [0x80] LOAD_WAIT(entity=LocalPlayer)
     0x0A64 [0x80] LOAD_WAIT(entity=Yin Pocanakhu (ID: 17780748/0x010F500C))
     0x0A69 [0x80] LOAD_WAIT(entity=Sattal-Mansal (ID: 17780750/0x010F500E))
     0x0A6E [0x80] LOAD_WAIT(entity=Vola (ID: 17780795/0x010F503B))
     0x0A73 [0x80] LOAD_WAIT(entity=Akamafula (ID: 17780857/0x010F5079))
     0x0A78 [0x80] LOAD_WAIT(entity=Amalasanda (ID: 17780858/0x010F507A))
     0x0A7D [0x4A] Faursel (ID: 17780924/0x010F50BC) looks at LocalPlayer
     0x0A86 [0x4A] LocalPlayer looks at Faursel (ID: 17780924/0x010F50BC)
     0x0A8F [0x1C] WAIT(15* ticks)
     0x0A92 [0x45] LOAD_SCHEDULED_TASK: Load scheduler "ps00" with entities [LocalPlayer, LocalPlayer], work=[258*, 0*]
     0x0AA3 [0x1C] WAIT(15* ticks)
     0x0AA6 [0x45] LOAD_SCHEDULED_TASK: Load scheduler "fdi1" with entities [EventEntity, EventEntity], work=[200*, 0*]
     0x0AB7 [0x6E] Faursel (ID: 17780924/0x010F50BC) uses emote 0*
     0x0ABE [0x99] Wait for Faursel (ID: 17780924/0x010F50BC) animation to complete
     0x0AC3 [0x99] Wait for Faursel (ID: 17780924/0x010F50BC) animation to complete
     0x0AC8 [0x1C] WAIT(30* ticks)
     0x0ACB [0x03] Work_Zone[2] = 781*
     0x0AD0 [0x2B] Faursel (ID: 17780924/0x010F50BC) [9585*]:
    → "Good day t' you. You can 'ave your $3 now!"
     0x0AD7 [0x23] WAIT_FOR_DIALOG_INTERACTION
     0x0AD8 [0x52] END_LOAD_SCHEDULER: End scheduler "ps00" with entities [LocalPlayer, LocalPlayer], work=258*
     0x0AE7 [0x45] LOAD_SCHEDULED_TASK: Load scheduler "pe00" with entities [LocalPlayer, LocalPlayer], work=[269*, 0*]
     0x0AF8 [0x66] LOAD_EXT_SCHEDULER_MAIN: Load scheduler "twb0" with entities [Faursel (ID: 17780924/0x010F50BC), Faursel (ID: 17780924/0x010F50BC)], work=29*
     0x0B07 [0x2B] Faursel (ID: 17780924/0x010F50BC) [9586*]:
    → "With this, you can ride t' the Near East from the port at Mhaura."
     0x0B0E [0x23] WAIT_FOR_DIALOG_INTERACTION
     0x0B0F [0x2B] Faursel (ID: 17780924/0x010F50BC) [9587*]:
    → "I 'ave got t' tell you up front, though, that the high seas are a dangerous place. I can't guarantee your safety, so travel at your own risk."
     0x0B16 [0x23] WAIT_FOR_DIALOG_INTERACTION
     0x0B17 [0x52] END_LOAD_SCHEDULER: End scheduler "pe00" with entities [LocalPlayer, LocalPlayer], work=258*
     0x0B26 [0x45] LOAD_SCHEDULED_TASK: Load scheduler "pe01" with entities [LocalPlayer, LocalPlayer], work=[269*, 0*]
     0x0B37 [0x66] LOAD_EXT_SCHEDULER_MAIN: Load scheduler "twb1" with entities [Faursel (ID: 17780924/0x010F50BC), Faursel (ID: 17780924/0x010F50BC)], work=29*
     0x0B46 [0x2B] Faursel (ID: 17780924/0x010F50BC) [9588*]:
    → "If I were you, I'd be praying for the ship t' simply stay afloat."
     0x0B4D [0x23] WAIT_FOR_DIALOG_INTERACTION
     0x0B4E [0x53] WAIT_SCHEDULER_TASK: Wait for scheduler "twb1" with entities [Faursel (ID: 17780924/0x010F50BC), Faursel (ID: 17780924/0x010F50BC)]
     0x0B5B [0x6E] Faursel (ID: 17780924/0x010F50BC) uses emote 4*
     0x0B62 [0x99] Wait for Faursel (ID: 17780924/0x010F50BC) animation to complete
     0x0B67 [0x99] Wait for Faursel (ID: 17780924/0x010F50BC) animation to complete
     0x0B6C [0x1C] WAIT(30* ticks)
     0x0B6F [0x2B] Faursel (ID: 17780924/0x010F50BC) [9589*]:
    → "Heh heh heh..."
     0x0B76 [0x23] WAIT_FOR_DIALOG_INTERACTION
     0x0B77 [0x45] LOAD_SCHEDULED_TASK: Load scheduler "fdo1" with entities [EventEntity, EventEntity], work=[200*, 0*]
     0x0B88 [0x55] WAIT_LOAD_SCHEDULER: Wait for scheduler "fdo1" with entities [EventEntity, EventEntity], work=200*
     0x0B97 [0x52] END_LOAD_SCHEDULER: End scheduler "pe01" with entities [LocalPlayer, LocalPlayer], work=269*
     0x0BA6 [0x46] CAMERA_CONTROL: Restore default settings
     0x0BA8 [0x45] LOAD_SCHEDULED_TASK: Load scheduler "qstc" with entities [LocalPlayer, LocalPlayer], work=[201*, 0*]
     0x0BB9 [0x45] LOAD_SCHEDULED_TASK: Load scheduler "fdi2" with entities [LocalPlayer, LocalPlayer], work=[200*, 0*]
     0x0BCA [0x1B] RETURN
```

### Event 10065

#### Metadata

| Field        | Value    |
|--------------|----------|
| Entrypoint   | 0x0BCB   |
| Data Size    | 85 bytes |
| Instructions | 15       |

```
      00 01 02 03 04 05 06 07  08 09 0A 0B 0C 0D 0E 0F
      -- -- -- -- -- -- -- --  -- -- -- -- -- -- -- --
0BC0:                                   4A F0 FF FF 7F             J....
0BD0: F8 FF FF 7F 1E F0 FF FF  7F 6F 70 66 0A 80 BC 50  .........opf...P
0BE0: 0F 01 BC 50 0F 01 74 68  6B 31 2B BC 50 0F 01 59  ...P..thk1+.P..Y
0BF0: 80 23 2B BC 50 0F 01 5A  80 23 66 0A 80 BC 50 0F  .#+.P..Z.#f...P.
0C00: 01 BC 50 0F 01 74 68 6B  32 2B BC 50 0F 01 5B 80  ..P..thk2+.P..[.
0C10: 23 53 BC 50 0F 01 BC 50  0F 01 74 68 6B 31 21 00  #S.P...P..thk1!.
```

#### Opcodes

```
  0: 0x0BCB [0x4A] LocalPlayer looks at EventEntity
  1: 0x0BD4 [0x1E] EventEntity looks at LocalPlayer and starts talking
  2: 0x0BD9 [0x6F] WAIT_FRAME_DELAY: Yield until WaitTime reaches zero
  3: 0x0BDA [0x70] WAIT_ENTITY_RENDER_FLAG: Wait while EventEntity->Render.Flags3 bit 2 is set (cancel turn if not)
  4: 0x0BDB [0x66] LOAD_EXT_SCHEDULER_MAIN: Load scheduler "thk1" with entities [Faursel (ID: 17780924/0x010F50BC), Faursel (ID: 17780924/0x010F50BC)], work=29*
  5: 0x0BEA [0x2B] Faursel (ID: 17780924/0x010F50BC) [9540*]:
    → "You know the ships at Mhaura used t' transport prospective mercenaries to the Near East? If you want t' climb aboard one o' those vessels, you 'ave got to go through none other than the Tenshodo here."
  6: 0x0BF1 [0x23] WAIT_FOR_DIALOG_INTERACTION
  7: 0x0BF2 [0x2B] Faursel (ID: 17780924/0x010F50BC) [9541*]:
    → "We received a request from the Empire 'erself. Getting those ships t' port was a royal pain. We finally managed t' bargain a cheap price on some rickety old vessels, and..."
  8: 0x0BF9 [0x23] WAIT_FOR_DIALOG_INTERACTION
  9: 0x0BFA [0x66] LOAD_EXT_SCHEDULER_MAIN: Load scheduler "thk2" with entities [Faursel (ID: 17780924/0x010F50BC), Faursel (ID: 17780924/0x010F50BC)], work=29*
 10: 0x0C09 [0x2B] Faursel (ID: 17780924/0x010F50BC) [9542*]:
    → "And you don't care. Sorry abou' that. A man's got to vent sometimes."
 11: 0x0C10 [0x23] WAIT_FOR_DIALOG_INTERACTION
 12: 0x0C11 [0x53] WAIT_SCHEDULER_TASK: Wait for scheduler "thk1" with entities [Faursel (ID: 17780924/0x010F50BC), Faursel (ID: 17780924/0x010F50BC)]
 13: 0x0C1E [0x21] END_EVENT
 14: 0x0C1F [0x00] END_REQSTACK()
```

### Event 10066

#### Metadata

| Field        | Value    |
|--------------|----------|
| Entrypoint   | 0x0C20   |
| Data Size    | 51 bytes |
| Instructions | 15       |

```
      00 01 02 03 04 05 06 07  08 09 0A 0B 0C 0D 0E 0F
      -- -- -- -- -- -- -- --  -- -- -- -- -- -- -- --
0C20: 4A F0 FF FF 7F F8 FF FF  7F 1E F0 FF FF 7F 6F 70  J.............op
0C30: 03 02 10 2B 80 1D 5C 80  23 6E BC 50 0F 01 5D 80  ...+..\.#n.P..].
0C40: 99 BC 50 0F 01 99 BC 50  0F 01 1C 06 80 1D 5E 80  ..P....P......^.
0C50: 23 21 00                                          #!.             
```

#### Opcodes

```
  0: 0x0C20 [0x4A] LocalPlayer looks at EventEntity
  1: 0x0C29 [0x1E] EventEntity looks at LocalPlayer and starts talking
  2: 0x0C2E [0x6F] WAIT_FRAME_DELAY: Yield until WaitTime reaches zero
  3: 0x0C2F [0x70] WAIT_ENTITY_RENDER_FLAG: Wait while EventEntity->Render.Flags3 bit 2 is set (cancel turn if not)
  4: 0x0C30 [0x03] Work_Zone[2] = 781*
  5: 0x0C35 [0x1D] PRINT_EVENT_MESSAGE(message_id=9584*)
    → "What's done is done. Sorry, but I'm not giving any refunds. Come back tomorrow and I will give you the $3."
  6: 0x0C38 [0x23] WAIT_FOR_DIALOG_INTERACTION
  7: 0x0C39 [0x6E] Faursel (ID: 17780924/0x010F50BC) uses emote 26*
  8: 0x0C40 [0x99] Wait for Faursel (ID: 17780924/0x010F50BC) animation to complete
  9: 0x0C45 [0x99] Wait for Faursel (ID: 17780924/0x010F50BC) animation to complete
 10: 0x0C4A [0x1C] WAIT(30* ticks)
 11: 0x0C4D [0x1D] PRINT_EVENT_MESSAGE(message_id=9583*)
    → "And don't you worry, because the Tenshodo is true t' its word!"
 12: 0x0C50 [0x23] WAIT_FOR_DIALOG_INTERACTION
 13: 0x0C51 [0x21] END_EVENT
 14: 0x0C52 [0x00] END_REQSTACK()
```

### Event 10067

#### Metadata

| Field        | Value   |
|--------------|---------|
| Entrypoint   | 0x0C53  |
| Data Size    | 1 bytes |
| Instructions | 1       |

```
      00 01 02 03 04 05 06 07  08 09 0A 0B 0C 0D 0E 0F
      -- -- -- -- -- -- -- --  -- -- -- -- -- -- -- --
0C50:          00                                          .            
```

#### Opcodes

```
  0: 0x0C53 [0x00] END_REQSTACK()
```

### Event 10068

#### Metadata

| Field        | Value   |
|--------------|---------|
| Entrypoint   | 0x0C54  |
| Data Size    | 1 bytes |
| Instructions | 1       |

```
      00 01 02 03 04 05 06 07  08 09 0A 0B 0C 0D 0E 0F
      -- -- -- -- -- -- -- --  -- -- -- -- -- -- -- --
0C50:             00                                        .           
```

#### Opcodes

```
  0: 0x0C54 [0x00] END_REQSTACK()
```

### Event 10069

#### Metadata

| Field        | Value    |
|--------------|----------|
| Entrypoint   | 0x0C55   |
| Data Size    | 52 bytes |
| Instructions | 16       |

```
      00 01 02 03 04 05 06 07  08 09 0A 0B 0C 0D 0E 0F
      -- -- -- -- -- -- -- --  -- -- -- -- -- -- -- --
0C50:                42 4A F0  FF FF 7F F8 FF FF 7F 1E       BJ.........
0C60: F0 FF FF 7F 6F 70 6E BC  50 0F 01 16 80 99 BC 50  ....opn.P......P
0C70: 0F 01 99 BC 50 0F 01 1C  06 80 03 02 10 2B 80 1D  ....P........+..
0C80: 5F 80 23 1D 5E 80 23 21  00                       _.#.^.#!.       
```

#### Opcodes

```
  0: 0x0C55 [0x42] SET_CLI_EVENT_CANCEL_DATA()
  1: 0x0C56 [0x4A] LocalPlayer looks at EventEntity
  2: 0x0C5F [0x1E] EventEntity looks at LocalPlayer and starts talking
  3: 0x0C64 [0x6F] WAIT_FRAME_DELAY: Yield until WaitTime reaches zero
  4: 0x0C65 [0x70] WAIT_ENTITY_RENDER_FLAG: Wait while EventEntity->Render.Flags3 bit 2 is set (cancel turn if not)
  5: 0x0C66 [0x6E] Faursel (ID: 17780924/0x010F50BC) uses emote 13*
  6: 0x0C6D [0x99] Wait for Faursel (ID: 17780924/0x010F50BC) animation to complete
  7: 0x0C72 [0x99] Wait for Faursel (ID: 17780924/0x010F50BC) animation to complete
  8: 0x0C77 [0x1C] WAIT(30* ticks)
  9: 0x0C7A [0x03] Work_Zone[2] = 781*
 10: 0x0C7F [0x1D] PRINT_EVENT_MESSAGE(message_id=9582*)
    → "Exactly what I asked for! Congratulations, [sir/ma'am], we have a deal! Come back tomorrow and I will give you the $3."
 11: 0x0C82 [0x23] WAIT_FOR_DIALOG_INTERACTION
 12: 0x0C83 [0x1D] PRINT_EVENT_MESSAGE(message_id=9583*)
    → "And don't you worry, because the Tenshodo is true t' its word!"
 13: 0x0C86 [0x23] WAIT_FOR_DIALOG_INTERACTION
 14: 0x0C87 [0x21] END_EVENT
 15: 0x0C88 [0x00] END_REQSTACK()
```

### Event 10070

#### Metadata

| Field        | Value   |
|--------------|---------|
| Entrypoint   | 0x0C89  |
| Data Size    | 1 bytes |
| Instructions | 1       |

```
      00 01 02 03 04 05 06 07  08 09 0A 0B 0C 0D 0E 0F
      -- -- -- -- -- -- -- --  -- -- -- -- -- -- -- --
0C80:                             00                             .      
```

#### Opcodes

```
  0: 0x0C89 [0x00] END_REQSTACK()
```

### Event 10071

#### Metadata

| Field        | Value     |
|--------------|-----------|
| Entrypoint   | 0x0C8A    |
| Data Size    | 102 bytes |
| Instructions | 22        |

```
      00 01 02 03 04 05 06 07  08 09 0A 0B 0C 0D 0E 0F
      -- -- -- -- -- -- -- --  -- -- -- -- -- -- -- --
0C80:                                4A F0 FF FF 7F F8            J.....
0C90: FF FF 7F 1E F0 FF FF 7F  6F 70 03 02 10 2B 80 66  ........op...+.f
0CA0: 0A 80 BC 50 0F 01 BC 50  0F 01 74 6C 6B 30 1D 60  ...P...P..tlk0.`
0CB0: 80 23 1D 55 80 23 66 0A  80 BC 50 0F 01 BC 50 0F  .#.U.#f...P...P.
0CC0: 01 74 6C 6B 31 1D 56 80  23 53 BC 50 0F 01 BC 50  .tlk1.V.#S.P...P
0CD0: 0F 01 74 6C 6B 31 6E BC  50 0F 01 1E 80 99 BC 50  ..tlk1n.P......P
0CE0: 0F 01 99 BC 50 0F 01 1C  06 80 1D 38 80 23 21 00  ....P......8.#!.
```

#### Opcodes

```
  0: 0x0C8A [0x4A] LocalPlayer looks at EventEntity
  1: 0x0C93 [0x1E] EventEntity looks at LocalPlayer and starts talking
  2: 0x0C98 [0x6F] WAIT_FRAME_DELAY: Yield until WaitTime reaches zero
  3: 0x0C99 [0x70] WAIT_ENTITY_RENDER_FLAG: Wait while EventEntity->Render.Flags3 bit 2 is set (cancel turn if not)
  4: 0x0C9A [0x03] Work_Zone[2] = 781*
  5: 0x0C9F [0x66] LOAD_EXT_SCHEDULER_MAIN: Load scheduler "tlk0" with entities [Faursel (ID: 17780924/0x010F50BC), Faursel (ID: 17780924/0x010F50BC)], work=29*
  6: 0x0CAE [0x1D] PRINT_EVENT_MESSAGE(message_id=9590*)
    → "With $6, you can ride t' the Near East from the port at Mhaura."
  7: 0x0CB1 [0x23] WAIT_FOR_DIALOG_INTERACTION
  8: 0x0CB2 [0x1D] PRINT_EVENT_MESSAGE(message_id=9587*)
    → "I 'ave got t' tell you up front, though, that the high seas are a dangerous place. I can't guarantee your safety, so travel at your own risk."
  9: 0x0CB5 [0x23] WAIT_FOR_DIALOG_INTERACTION
 10: 0x0CB6 [0x66] LOAD_EXT_SCHEDULER_MAIN: Load scheduler "tlk1" with entities [Faursel (ID: 17780924/0x010F50BC), Faursel (ID: 17780924/0x010F50BC)], work=29*
 11: 0x0CC5 [0x1D] PRINT_EVENT_MESSAGE(message_id=9588*)
    → "If I were you, I'd be praying for the ship t' simply stay afloat."
 12: 0x0CC8 [0x23] WAIT_FOR_DIALOG_INTERACTION
 13: 0x0CC9 [0x53] WAIT_SCHEDULER_TASK: Wait for scheduler "tlk1" with entities [Faursel (ID: 17780924/0x010F50BC), Faursel (ID: 17780924/0x010F50BC)]
 14: 0x0CD6 [0x6E] Faursel (ID: 17780924/0x010F50BC) uses emote 4*
 15: 0x0CDD [0x99] Wait for Faursel (ID: 17780924/0x010F50BC) animation to complete
 16: 0x0CE2 [0x99] Wait for Faursel (ID: 17780924/0x010F50BC) animation to complete
 17: 0x0CE7 [0x1C] WAIT(30* ticks)
 18: 0x0CEA [0x1D] PRINT_EVENT_MESSAGE(message_id=9554*)
    → "Heh heh heh..."
 19: 0x0CED [0x23] WAIT_FOR_DIALOG_INTERACTION
 20: 0x0CEE [0x21] END_EVENT
 21: 0x0CEF [0x00] END_REQSTACK()
```

### Event 10072

#### Metadata

| Field        | Value    |
|--------------|----------|
| Entrypoint   | 0x0CF0   |
| Data Size    | 52 bytes |
| Instructions | 16       |

```
      00 01 02 03 04 05 06 07  08 09 0A 0B 0C 0D 0E 0F
      -- -- -- -- -- -- -- --  -- -- -- -- -- -- -- --
0CF0: 42 4A F0 FF FF 7F F8 FF  FF 7F 1E F0 FF FF 7F 6F  BJ.............o
0D00: 70 6E BC 50 0F 01 16 80  99 BC 50 0F 01 99 BC 50  pn.P......P....P
0D10: 0F 01 1C 06 80 03 02 10  2B 80 1D 2C 80 23 1D 2D  ........+..,.#.-
0D20: 80 23 21 00                                       .#!.            
```

#### Opcodes

```
  0: 0x0CF0 [0x42] SET_CLI_EVENT_CANCEL_DATA()
  1: 0x0CF1 [0x4A] LocalPlayer looks at EventEntity
  2: 0x0CFA [0x1E] EventEntity looks at LocalPlayer and starts talking
  3: 0x0CFF [0x6F] WAIT_FRAME_DELAY: Yield until WaitTime reaches zero
  4: 0x0D00 [0x70] WAIT_ENTITY_RENDER_FLAG: Wait while EventEntity->Render.Flags3 bit 2 is set (cancel turn if not)
  5: 0x0D01 [0x6E] Faursel (ID: 17780924/0x010F50BC) uses emote 13*
  6: 0x0D08 [0x99] Wait for Faursel (ID: 17780924/0x010F50BC) animation to complete
  7: 0x0D0D [0x99] Wait for Faursel (ID: 17780924/0x010F50BC) animation to complete
  8: 0x0D12 [0x1C] WAIT(30* ticks)
  9: 0x0D15 [0x03] Work_Zone[2] = 781*
 10: 0x0D1A [0x1D] PRINT_EVENT_MESSAGE(message_id=9579*)
    → "Congratulations, [sir/ma'am], we have a deal! Come back tomorrow and I will give you the $3."
 11: 0x0D1D [0x23] WAIT_FOR_DIALOG_INTERACTION
 12: 0x0D1E [0x1D] PRINT_EVENT_MESSAGE(message_id=9580*)
    → "And don't you worry, because the Tenshodo is true t' its word!"
 13: 0x0D21 [0x23] WAIT_FOR_DIALOG_INTERACTION
 14: 0x0D22 [0x21] END_EVENT
 15: 0x0D23 [0x00] END_REQSTACK()
```

### Event 10125

#### Metadata

| Field        | Value   |
|--------------|---------|
| Entrypoint   | 0x0D24  |
| Data Size    | 1 bytes |
| Instructions | 1       |

```
      00 01 02 03 04 05 06 07  08 09 0A 0B 0C 0D 0E 0F
      -- -- -- -- -- -- -- --  -- -- -- -- -- -- -- --
0D20:             00                                        .           
```

#### Opcodes

```
  0: 0x0D24 [0x00] END_REQSTACK()
```
