# 17780844 - Biora

## Common Data

| Field            | Value                 |
|------------------|-----------------------|
| Zone             | Lower Jeuno (ID: 245) |
| Block Size       | 96 bytes              |
| Total Events     | 2                     |
| References Count | 6                     |

## List of Events

| Event ID              | Entrypoint   |   Size |   Instructions |
|-----------------------|--------------|--------|----------------|
| [65535](#event-65535) | 0x0000       |      1 |              1 |
| [205](#event-205)     | 0x0001       |     44 |             16 |

## DAT References (imed_data)

|   Index | Hex Value   |   Dec Value |
|---------|-------------|-------------|
|       0 | 0x1E67      |        7783 |
|       1 | 0x1E68      |        7784 |
|       2 | 0x0000      |           0 |
|       3 | 0xFFFFFFFD  |  4294967293 |
|       4 | 0x0002      |           2 |
|       5 | 0x1E69      |        7785 |

## String References

- **7783**: Would you like to see a map of Jeuno?
- **7784**: See a map of Jeuno? [Show me./I'm fine.]
- **7785**: We're currently standing in Lower Jeuno, the third level from the top.

## Events

### Event 65535

#### Metadata

| Field        | Value   |
|--------------|---------|
| Entrypoint   | 0x0000  |
| Data Size    | 1 bytes |
| Instructions | 1       |

```
      00 01 02 03 04 05 06 07  08 09 0A 0B 0C 0D 0E 0F
      -- -- -- -- -- -- -- --  -- -- -- -- -- -- -- --
0000: 00                                                .               
```

#### Opcodes

```
  0: 0x0000 [0x00] END_REQSTACK()
```

### Event 205

#### Metadata

| Field        | Value    |
|--------------|----------|
| Entrypoint   | 0x0001   |
| Data Size    | 44 bytes |
| Instructions | 16       |

```
      00 01 02 03 04 05 06 07  08 09 0A 0B 0C 0D 0E 0F
      -- -- -- -- -- -- -- --  -- -- -- -- -- -- -- --
0000:    20 01 1E F0 FF FF 7F  6F 70 1D 00 80 23 24 01    ......op...#$.
0010: 80 02 80 02 80 25 02 00  10 02 80 00 2B 00 8D 03  .....%......+...
0020: 80 04 80 1D 05 80 23 8A  01 2B 00 21 00           ......#..+.!.   
```

#### Opcodes

```
  0: 0x0001 [0x20] SET_CLI_EVENT_UC_FLAG: Lock player control
  1: 0x0003 [0x1E] EventEntity looks at LocalPlayer and starts talking
  2: 0x0008 [0x6F] WAIT_FRAME_DELAY: Yield until WaitTime reaches zero
  3: 0x0009 [0x70] WAIT_ENTITY_RENDER_FLAG: Wait while EventEntity->Render.Flags3 bit 2 is set (cancel turn if not)
  4: 0x000A [0x1D] PRINT_EVENT_MESSAGE(message_id=7783*)
    → "Would you like to see a map of Jeuno?"
  5: 0x000D [0x23] WAIT_FOR_DIALOG_INTERACTION
  6: 0x000E [0x24] CREATE_DIALOG(message_id=7784*, default_option=0*, option_flags=0*)
    → "See a map of Jeuno? [Show me./I'm fine.]"
  7: 0x0015 [0x25] WAIT_DIALOG_SELECT()
  8: 0x0016 [0x02] IF !(Work_Zone[0] == 0*) GOTO 0x002B
  9: 0x001E [0x8D] OPEN_MAP_WITH_PROPERTIES(map_id=4294967293*, properties=2*)
 10: 0x0023 [0x1D] PRINT_EVENT_MESSAGE(message_id=7785*)
    → "We're currently standing in Lower Jeuno, the third level from the top."
 11: 0x0026 [0x23] WAIT_FOR_DIALOG_INTERACTION
 12: 0x0027 [0x8A] CLOSE_MAP()
 13: 0x0028 [0x01] GOTO 0x002B

SUBROUTINE_002B:
 14: 0x002B [0x21] END_EVENT
 15: 0x002C [0x00] END_REQSTACK()
```
