# 17780761 - Muckvix

## Common Data

| Field            | Value                 |
|------------------|-----------------------|
| Zone             | Lower Jeuno (ID: 245) |
| Block Size       | 3876 bytes            |
| Total Events     | 170                   |
| References Count | 117                   |

## List of Events

| Event ID                     | Entrypoint   |   Size |   Instructions |
|------------------------------|--------------|--------|----------------|
| [65535](#event-65535)        | 0x0000       |      1 |              1 |
| [15](#event-15)              | 0x0001       |     19 |              5 |
| [80](#event-80)              | 0x0014       |     48 |             12 |
| [184](#event-184)            | 0x0044       |      1 |              1 |
| [81](#event-81)              | 0x0045       |     19 |              5 |
| [79](#event-79)              | 0x0058       |     19 |              5 |
| [48](#event-48)              | 0x006B       |      1 |              1 |
| [65535.1](#event-655351)     | 0x006C       |     19 |              3 |
| [65535.2](#event-655352)     | 0x007F       |     19 |              3 |
| [65535.3](#event-655353)     | 0x0092       |     29 |              3 |
| [65535.4](#event-655354)     | 0x00AF       |      9 |              3 |
| [65535.5](#event-655355)     | 0x00B8       |      1 |              1 |
| [99](#event-99)              | 0x00B9       |      1 |              1 |
| [100](#event-100)            | 0x00BA       |      1 |              1 |
| [46](#event-46)              | 0x00BB       |     27 |              7 |
| [47](#event-47)              | 0x00D6       |     28 |              8 |
| [10094](#event-10094)        | 0x00F2       |      5 |              3 |
| [65535.6](#event-655356)     | 0x00F7       |     20 |              5 |
| [65535.7](#event-655357)     | 0x010B       |     20 |              5 |
| [65535.8](#event-655358)     | 0x011F       |     20 |              5 |
| [65535.9](#event-655359)     | 0x0133       |     17 |              3 |
| [65535.10](#event-6553510)   | 0x0144       |     20 |              5 |
| [65535.11](#event-6553511)   | 0x0158       |     20 |              5 |
| [65535.12](#event-6553512)   | 0x016C       |     19 |              4 |
| [65535.13](#event-6553513)   | 0x017F       |     19 |              4 |
| [65535.14](#event-6553514)   | 0x0192       |     16 |              2 |
| [65535.15](#event-6553515)   | 0x01A2       |     16 |              2 |
| [65535.16](#event-6553516)   | 0x01B2       |     20 |              5 |
| [65535.17](#event-6553517)   | 0x01C6       |     16 |              2 |
| [65535.18](#event-6553518)   | 0x01D6       |     16 |              2 |
| [65535.19](#event-6553519)   | 0x01E6       |     16 |              2 |
| [65535.20](#event-6553520)   | 0x01F6       |     21 |              6 |
| [65535.21](#event-6553521)   | 0x020B       |     16 |              2 |
| [65535.22](#event-6553522)   | 0x021B       |     16 |              2 |
| [65535.23](#event-6553523)   | 0x022B       |     20 |              5 |
| [65535.24](#event-6553524)   | 0x023F       |     17 |              3 |
| [65535.25](#event-6553525)   | 0x0250       |     20 |              5 |
| [65535.26](#event-6553526)   | 0x0264       |     16 |              2 |
| [65535.27](#event-6553527)   | 0x0274       |     16 |              2 |
| [65535.28](#event-6553528)   | 0x0284       |     16 |              2 |
| [65535.29](#event-6553529)   | 0x0294       |     16 |              2 |
| [65535.30](#event-6553530)   | 0x02A4       |     16 |              2 |
| [65535.31](#event-6553531)   | 0x02B4       |     16 |              2 |
| [65535.32](#event-6553532)   | 0x02C4       |     16 |              2 |
| [65535.33](#event-6553533)   | 0x02D4       |     12 |              4 |
| [65535.34](#event-6553534)   | 0x02E0       |     20 |              5 |
| [65535.35](#event-6553535)   | 0x02F4       |     17 |              3 |
| [65535.36](#event-6553536)   | 0x0305       |     17 |              3 |
| [65535.37](#event-6553537)   | 0x0316       |     16 |              2 |
| [65535.38](#event-6553538)   | 0x0326       |     16 |              2 |
| [65535.39](#event-6553539)   | 0x0336       |     16 |              2 |
| [65535.40](#event-6553540)   | 0x0346       |     16 |              2 |
| [65535.41](#event-6553541)   | 0x0356       |     16 |              2 |
| [65535.42](#event-6553542)   | 0x0366       |     16 |              2 |
| [65535.43](#event-6553543)   | 0x0376       |     13 |              5 |
| [65535.44](#event-6553544)   | 0x0383       |     20 |              5 |
| [65535.45](#event-6553545)   | 0x0397       |     12 |              4 |
| [65535.46](#event-6553546)   | 0x03A3       |     16 |              2 |
| [65535.47](#event-6553547)   | 0x03B3       |     16 |              2 |
| [65535.48](#event-6553548)   | 0x03C3       |     16 |              2 |
| [65535.49](#event-6553549)   | 0x03D3       |     20 |              5 |
| [65535.50](#event-6553550)   | 0x03E7       |     29 |              6 |
| [65535.51](#event-6553551)   | 0x0404       |     17 |              3 |
| [65535.52](#event-6553552)   | 0x0415       |     20 |              5 |
| [65535.53](#event-6553553)   | 0x0429       |     20 |              5 |
| [65535.54](#event-6553554)   | 0x043D       |     20 |              5 |
| [65535.55](#event-6553555)   | 0x0451       |     20 |              5 |
| [65535.56](#event-6553556)   | 0x0465       |     20 |              5 |
| [65535.57](#event-6553557)   | 0x0479       |     16 |              2 |
| [65535.58](#event-6553558)   | 0x0489       |     16 |              2 |
| [65535.59](#event-6553559)   | 0x0499       |     20 |              5 |
| [65535.60](#event-6553560)   | 0x04AD       |     16 |              2 |
| [65535.61](#event-6553561)   | 0x04BD       |     16 |              2 |
| [65535.62](#event-6553562)   | 0x04CD       |     16 |              2 |
| [65535.63](#event-6553563)   | 0x04DD       |     16 |              2 |
| [65535.64](#event-6553564)   | 0x04ED       |     21 |              6 |
| [65535.65](#event-6553565)   | 0x0502       |     20 |              5 |
| [65535.66](#event-6553566)   | 0x0516       |     20 |              5 |
| [65535.67](#event-6553567)   | 0x052A       |     17 |              3 |
| [65535.68](#event-6553568)   | 0x053B       |     20 |              5 |
| [65535.69](#event-6553569)   | 0x054F       |     20 |              5 |
| [65535.70](#event-6553570)   | 0x0563       |     16 |              2 |
| [65535.71](#event-6553571)   | 0x0573       |     16 |              2 |
| [65535.72](#event-6553572)   | 0x0583       |     21 |              6 |
| [65535.73](#event-6553573)   | 0x0598       |     20 |              5 |
| [65535.74](#event-6553574)   | 0x05AC       |     20 |              5 |
| [65535.75](#event-6553575)   | 0x05C0       |     16 |              2 |
| [65535.76](#event-6553576)   | 0x05D0       |     20 |              5 |
| [65535.77](#event-6553577)   | 0x05E4       |     21 |              6 |
| [65535.78](#event-6553578)   | 0x05F9       |     20 |              5 |
| [65535.79](#event-6553579)   | 0x060D       |     12 |              4 |
| [65535.80](#event-6553580)   | 0x0619       |     16 |              2 |
| [65535.81](#event-6553581)   | 0x0629       |     16 |              2 |
| [65535.82](#event-6553582)   | 0x0639       |     20 |              5 |
| [65535.83](#event-6553583)   | 0x064D       |     20 |              5 |
| [65535.84](#event-6553584)   | 0x0661       |     17 |              3 |
| [65535.85](#event-6553585)   | 0x0672       |     16 |              2 |
| [65535.86](#event-6553586)   | 0x0682       |     16 |              2 |
| [65535.87](#event-6553587)   | 0x0692       |     16 |              2 |
| [65535.88](#event-6553588)   | 0x06A2       |     16 |              2 |
| [65535.89](#event-6553589)   | 0x06B2       |     17 |              3 |
| [65535.90](#event-6553590)   | 0x06C3       |     20 |              5 |
| [65535.91](#event-6553591)   | 0x06D7       |     12 |              4 |
| [65535.92](#event-6553592)   | 0x06E3       |     16 |              2 |
| [65535.93](#event-6553593)   | 0x06F3       |     16 |              2 |
| [65535.94](#event-6553594)   | 0x0703       |     16 |              2 |
| [65535.95](#event-6553595)   | 0x0713       |     16 |              2 |
| [65535.96](#event-6553596)   | 0x0723       |     16 |              2 |
| [65535.97](#event-6553597)   | 0x0733       |     16 |              2 |
| [65535.98](#event-6553598)   | 0x0743       |     16 |              2 |
| [65535.99](#event-6553599)   | 0x0753       |     20 |              5 |
| [65535.100](#event-65535100) | 0x0767       |     20 |              5 |
| [65535.101](#event-65535101) | 0x077B       |     16 |              2 |
| [65535.102](#event-65535102) | 0x078B       |     16 |              2 |
| [65535.103](#event-65535103) | 0x079B       |     16 |              2 |
| [65535.104](#event-65535104) | 0x07AB       |     14 |              2 |
| [65535.105](#event-65535105) | 0x07B9       |     16 |              2 |
| [65535.106](#event-65535106) | 0x07C9       |     14 |              2 |
| [65535.107](#event-65535107) | 0x07D7       |     16 |              2 |
| [65535.108](#event-65535108) | 0x07E7       |     14 |              2 |
| [65535.109](#event-65535109) | 0x07F5       |     16 |              2 |
| [65535.110](#event-65535110) | 0x0805       |     14 |              2 |
| [65535.111](#event-65535111) | 0x0813       |     16 |              2 |
| [65535.112](#event-65535112) | 0x0823       |     14 |              2 |
| [65535.113](#event-65535113) | 0x0831       |     16 |              2 |
| [65535.114](#event-65535114) | 0x0841       |     14 |              2 |
| [65535.115](#event-65535115) | 0x084F       |     16 |              2 |
| [65535.116](#event-65535116) | 0x085F       |     14 |              2 |
| [65535.117](#event-65535117) | 0x086D       |     16 |              2 |
| [65535.118](#event-65535118) | 0x087D       |     14 |              2 |
| [65535.119](#event-65535119) | 0x088B       |     16 |              2 |
| [65535.120](#event-65535120) | 0x089B       |     14 |              2 |
| [65535.121](#event-65535121) | 0x08A9       |     16 |              2 |
| [65535.122](#event-65535122) | 0x08B9       |     14 |              2 |
| [65535.123](#event-65535123) | 0x08C7       |     16 |              2 |
| [65535.124](#event-65535124) | 0x08D7       |     14 |              2 |
| [65535.125](#event-65535125) | 0x08E5       |     16 |              2 |
| [65535.126](#event-65535126) | 0x08F5       |     14 |              2 |
| [65535.127](#event-65535127) | 0x0903       |     16 |              2 |
| [65535.128](#event-65535128) | 0x0913       |     14 |              2 |
| [65535.129](#event-65535129) | 0x0921       |     16 |              2 |
| [65535.130](#event-65535130) | 0x0931       |     14 |              2 |
| [65535.131](#event-65535131) | 0x093F       |     16 |              2 |
| [65535.132](#event-65535132) | 0x094F       |     14 |              2 |
| [65535.133](#event-65535133) | 0x095D       |     16 |              2 |
| [65535.134](#event-65535134) | 0x096D       |     14 |              2 |
| [65535.135](#event-65535135) | 0x097B       |     16 |              2 |
| [65535.136](#event-65535136) | 0x098B       |     14 |              2 |
| [65535.137](#event-65535137) | 0x0999       |     16 |              2 |
| [65535.138](#event-65535138) | 0x09A9       |     14 |              2 |
| [65535.139](#event-65535139) | 0x09B7       |     16 |              2 |
| [65535.140](#event-65535140) | 0x09C7       |     14 |              2 |
| [65535.141](#event-65535141) | 0x09D5       |     16 |              2 |
| [65535.142](#event-65535142) | 0x09E5       |     14 |              2 |
| [65535.143](#event-65535143) | 0x09F3       |      9 |              3 |
| [65535.144](#event-65535144) | 0x09FC       |     16 |              2 |
| [65535.145](#event-65535145) | 0x0A0C       |     14 |              2 |
| [65535.146](#event-65535146) | 0x0A1A       |     16 |              2 |
| [65535.147](#event-65535147) | 0x0A2A       |     14 |              2 |
| [20087](#event-20087)        | 0x0A38       |      1 |              1 |
| [20088](#event-20088)        | 0x0A39       |      1 |              1 |
| [65535.148](#event-65535148) | 0x0A3A       |     16 |              2 |
| [65535.149](#event-65535149) | 0x0A4A       |     14 |              2 |
| [65535.150](#event-65535150) | 0x0A58       |     16 |              2 |
| [65535.151](#event-65535151) | 0x0A68       |     14 |              2 |
| [65535.152](#event-65535152) | 0x0A76       |     16 |              2 |
| [65535.153](#event-65535153) | 0x0A86       |     14 |              2 |
| [20091](#event-20091)        | 0x0A94       |      1 |              1 |
| [20093](#event-20093)        | 0x0A95       |      1 |              1 |
| [20092](#event-20092)        | 0x0A96       |      1 |              1 |

## DAT References (imed_data)

|   Index | Hex Value   |   Dec Value |
|---------|-------------|-------------|
|       0 | 0x1D24      |        7460 |
|       1 | 0x0014      |          20 |
|       2 | 0x1D25      |        7461 |
|       3 | 0x1D26      |        7462 |
|       4 | 0x1D27      |        7463 |
|       5 | 0x1D28      |        7464 |
|       6 | 0x1D44      |        7492 |
|       7 | 0x1D45      |        7493 |
|       8 | 0x00D7      |         215 |
|       9 | 0x003C      |          60 |
|      10 | 0x230E      |        8974 |
|      11 | 0x230D      |        8973 |
|      12 | 0x230C      |        8972 |
|      13 | 0x0001      |           1 |
|      14 | 0x000C      |          12 |
|      15 | 0xFFFED6C4  |  4294891204 |
|      16 | 0xFFFDEB5B  |  4294830939 |
|      17 | 0x0000      |           0 |
|      18 | 0x000B      |          11 |
|      19 | 0xFFFE8B97  |  4294871959 |
|      20 | 0xFFFD9E68  |  4294811240 |
|      21 | 0xFFFF0D87  |  4294905223 |
|      22 | 0xFFFEA0EF  |  4294877423 |
|      23 | 0x176F      |        5999 |
|      24 | 0x0A3A      |        2618 |
|      25 | 0xFFFEB818  |  4294883352 |
|      26 | 0xFFFE098F  |  4294838671 |
|      27 | 0xFFFEF410  |  4294898704 |
|      28 | 0xFFFE85B9  |  4294870457 |
|      29 | 0xFFFEEC91  |  4294896785 |
|      30 | 0xFFFE6EA2  |  4294864546 |
|      31 | 0x0A2A      |        2602 |
|      32 | 0xFFFEE552  |  4294894930 |
|      33 | 0xFFFE3269  |  4294849129 |
|      34 | 0x0A39      |        2617 |
|      35 | 0x0045      |          69 |
|      36 | 0xFFFF2160  |  4294910304 |
|      37 | 0xFFFEA80E  |  4294879246 |
|      38 | 0x0A3D      |        2621 |
|      39 | 0x0A43      |        2627 |
|      40 | 0x004B      |          75 |
|      41 | 0xFFFFB20E  |  4294947342 |
|      42 | 0xFFFFAE2A  |  4294946346 |
|      43 | 0xFFFEDC35  |  4294892597 |
|      44 | 0xFFFE5D95  |  4294860181 |
|      45 | 0x0A47      |        2631 |
|      46 | 0x0055      |          85 |
|      47 | 0xFFFFB26F  |  4294947439 |
|      48 | 0xFFFFAB30  |  4294945584 |
|      49 | 0x000E      |          14 |
|      50 | 0xFFFF6C7D  |  4294929533 |
|      51 | 0xFFFF0AA4  |  4294904484 |
|      52 | 0xFFFFCBCA  |  4294953930 |
|      53 | 0x09E0      |        2528 |
|      54 | 0xFFFFFE3F  |  4294966847 |
|      55 | 0x0028      |          40 |
|      56 | 0x0029      |          41 |
|      57 | 0xFFFEEA26  |  4294896166 |
|      58 | 0xFFFE4F39  |  4294856505 |
|      59 | 0xFFFED8EC  |  4294891756 |
|      60 | 0xFFFE38BF  |  4294850751 |
|      61 | 0xFFFEC5BC  |  4294886844 |
|      62 | 0xFFFE1640  |  4294841920 |
|      63 | 0x03E7      |         999 |
|      64 | 0x0A33      |        2611 |
|      65 | 0x000D      |          13 |
|      66 | 0xFFFF04E1  |  4294903009 |
|      67 | 0xFFFE7108  |  4294865160 |
|      68 | 0x108C      |        4236 |
|      69 | 0x10F0      |        4336 |
|      70 | 0xFFFFC3F0  |  4294951920 |
|      71 | 0xFFFFA321  |  4294943521 |
|      72 | 0xFFFFFF9B  |  4294967195 |
|      73 | 0x000A      |          10 |
|      74 | 0x0A18      |        2584 |
|      75 | 0xFFFFFC21  |  4294966305 |
|      76 | 0x084B      |        2123 |
|      77 | 0x0008      |           8 |
|      78 | 0x0033      |          51 |
|      79 | 0xFFFF0DFA  |  4294905338 |
|      80 | 0xFFFE6C9D  |  4294864029 |
|      81 | 0xFFFEFBE3  |  4294900707 |
|      82 | 0xFFFE9775  |  4294874997 |
|      83 | 0xFFFF19CD  |  4294908365 |
|      84 | 0xFFFEAC62  |  4294880354 |
|      85 | 0xFFFECE8B  |  4294889099 |
|      86 | 0xFFFE3998  |  4294850968 |
|      87 | 0x0F9F      |        3999 |
|      88 | 0x0A17      |        2583 |
|      89 | 0xFFFFD965  |  4294957413 |
|      90 | 0xFFFFD99E  |  4294957470 |
|      91 | 0x0009      |           9 |
|      92 | 0xFFFEE68C  |  4294895244 |
|      93 | 0xFFFE6FBD  |  4294864829 |
|      94 | 0xFFFFE923  |  4294961443 |
|      95 | 0xFFFFEBBA  |  4294962106 |
|      96 | 0xFFFF4F66  |  4294922086 |
|      97 | 0xFFFEA394  |  4294878100 |
|      98 | 0xFFFFE891  |  4294961297 |
|      99 | 0xFFFFB859  |  4294948953 |
|     100 | 0xFFFFDFA2  |  4294959010 |
|     101 | 0xFFFFB9ED  |  4294949357 |
|     102 | 0xFFFFBF3D  |  4294950717 |
|     103 | 0xFFFFF407  |  4294964231 |
|     104 | 0xFFFFE105  |  4294959365 |
|     105 | 0x0A40      |        2624 |
|     106 | 0xFFFF6A1D  |  4294928925 |
|     107 | 0xFFFEF858  |  4294899800 |
|     108 | 0xFFFFEA43  |  4294961731 |
|     109 | 0xFFFFF8F4  |  4294965492 |
|     110 | 0x0002      |           2 |
|     111 | 0xFFFFF533  |  4294964531 |
|     112 | 0x13C3      |        5059 |
|     113 | 0x00D8      |         216 |
|     114 | 0x001E      |          30 |
|     115 | 0x00DA      |         218 |
|     116 | 0x0866      |        2150 |

## Events

### Event 65535

#### Metadata

| Field        | Value   |
|--------------|---------|
| Entrypoint   | 0x0000  |
| Data Size    | 1 bytes |
| Instructions | 1       |

```
      00 01 02 03 04 05 06 07  08 09 0A 0B 0C 0D 0E 0F
      -- -- -- -- -- -- -- --  -- -- -- -- -- -- -- --
0000: 00                                                .               
```

#### Opcodes

```
  0: 0x0000 [0x00] END_REQSTACK()
```

### Event 15

#### Metadata

| Field        | Value    |
|--------------|----------|
| Entrypoint   | 0x0001   |
| Data Size    | 19 bytes |
| Instructions | 5        |

```
      00 01 02 03 04 05 06 07  08 09 0A 0B 0C 0D 0E 0F
      -- -- -- -- -- -- -- --  -- -- -- -- -- -- -- --
0000:    4A 19 50 0F 01 F0 FF  FF 7F 2B 19 50 0F 01 00   J.P......+.P...
0010: 80 23 21 00                                       .#!.            
```

#### Opcodes

```
  0: 0x0001 [0x4A] Muckvix (ID: 17780761/0x010F5019) looks at LocalPlayer
  1: 0x000A [0x2B] Muckvix (ID: 17780761/0x010F5019) [7460*]:
    → "Hey, I ain't got nothin' to say to ya. Bugger off, [you shmuck/sweetheart]."
  2: 0x0011 [0x23] WAIT_FOR_DIALOG_INTERACTION
  3: 0x0012 [0x21] END_EVENT
  4: 0x0013 [0x00] END_REQSTACK()
```

### Event 80

#### Metadata

| Field        | Value    |
|--------------|----------|
| Entrypoint   | 0x0014   |
| Data Size    | 48 bytes |
| Instructions | 12       |

```
      00 01 02 03 04 05 06 07  08 09 0A 0B 0C 0D 0E 0F
      -- -- -- -- -- -- -- --  -- -- -- -- -- -- -- --
0010:             03 09 10 01  80 4A 19 50 0F 01 F0 FF      .....J.P....
0020: FF 7F 2B 19 50 0F 01 02  80 23 2B 19 50 0F 01 03  ..+.P....#+.P...
0030: 80 23 2B 19 50 0F 01 04  80 23 2B 19 50 0F 01 05  .#+.P....#+.P...
0040: 80 23 21 00                                       .#!.            
```

#### Opcodes

```
  0: 0x0014 [0x03] Work_Zone[9] = 20*
  1: 0x0019 [0x4A] Muckvix (ID: 17780761/0x010F5019) looks at LocalPlayer
  2: 0x0022 [0x2B] Muckvix (ID: 17780761/0x010F5019) [7461*]:
    → "Castle Oztroja? What you gonna go there for? Well, you can go get killed for all I care. Ain't got nothin' to do with me!"
  3: 0x0029 [0x23] WAIT_FOR_DIALOG_INTERACTION
  4: 0x002A [0x2B] Muckvix (ID: 17780761/0x010F5019) [7462*]:
    → "But, hey, you gotta have $6 to get in there. And not just any old torch... You need a special one from a tree on the Sauromugue Champaign!"
  5: 0x0031 [0x23] WAIT_FOR_DIALOG_INTERACTION
  6: 0x0032 [0x2B] Muckvix (ID: 17780761/0x010F5019) [7463*]:
    → "And whaddaya know... We're all outta the stuff! Maybe Fickie's got some extra. He stops by Oztroja once in a while."
  7: 0x0039 [0x23] WAIT_FOR_DIALOG_INTERACTION
  8: 0x003A [0x2B] Muckvix (ID: 17780761/0x010F5019) [7464*]:
    → "He's out on the streets again, ain't he? I can never figger out why he's gotta be so buddy-buddy with all them people!"
  9: 0x0041 [0x23] WAIT_FOR_DIALOG_INTERACTION
 10: 0x0042 [0x21] END_EVENT
 11: 0x0043 [0x00] END_REQSTACK()
```

### Event 184

#### Metadata

| Field        | Value   |
|--------------|---------|
| Entrypoint   | 0x0044  |
| Data Size    | 1 bytes |
| Instructions | 1       |

```
      00 01 02 03 04 05 06 07  08 09 0A 0B 0C 0D 0E 0F
      -- -- -- -- -- -- -- --  -- -- -- -- -- -- -- --
0040:             00                                        .           
```

#### Opcodes

```
  0: 0x0044 [0x00] END_REQSTACK()
```

### Event 81

#### Metadata

| Field        | Value    |
|--------------|----------|
| Entrypoint   | 0x0045   |
| Data Size    | 19 bytes |
| Instructions | 5        |

```
      00 01 02 03 04 05 06 07  08 09 0A 0B 0C 0D 0E 0F
      -- -- -- -- -- -- -- --  -- -- -- -- -- -- -- --
0040:                4A 19 50  0F 01 F0 FF FF 7F 2B 19       J.P......+.
0050: 50 0F 01 06 80 23 21 00                           P....#!.        
```

#### Opcodes

```
  0: 0x0045 [0x4A] Muckvix (ID: 17780761/0x010F5019) looks at LocalPlayer
  1: 0x004E [0x2B] Muckvix (ID: 17780761/0x010F5019) [7492*]:
    → "Hey, Fickie's nothin' but an outsider here. Now, he don't belong out there none neither, but I think they'll treat him better."
  2: 0x0055 [0x23] WAIT_FOR_DIALOG_INTERACTION
  3: 0x0056 [0x21] END_EVENT
  4: 0x0057 [0x00] END_REQSTACK()
```

### Event 79

#### Metadata

| Field        | Value    |
|--------------|----------|
| Entrypoint   | 0x0058   |
| Data Size    | 19 bytes |
| Instructions | 5        |

```
      00 01 02 03 04 05 06 07  08 09 0A 0B 0C 0D 0E 0F
      -- -- -- -- -- -- -- --  -- -- -- -- -- -- -- --
0050:                          4A 19 50 0F 01 F0 FF FF          J.P.....
0060: 7F 2B 19 50 0F 01 07 80  23 21 00                 .+.P....#!.     
```

#### Opcodes

```
  0: 0x0058 [0x4A] Muckvix (ID: 17780761/0x010F5019) looks at LocalPlayer
  1: 0x0061 [0x2B] Muckvix (ID: 17780761/0x010F5019) [7493*]:
    → "Hey, I heard about Fickie. Relax, I ain't gonna take it out on ya. But with him gone, everything's gone back the way it was before."
  2: 0x0068 [0x23] WAIT_FOR_DIALOG_INTERACTION
  3: 0x0069 [0x21] END_EVENT
  4: 0x006A [0x00] END_REQSTACK()
```

### Event 48

#### Metadata

| Field        | Value   |
|--------------|---------|
| Entrypoint   | 0x006B  |
| Data Size    | 1 bytes |
| Instructions | 1       |

```
      00 01 02 03 04 05 06 07  08 09 0A 0B 0C 0D 0E 0F
      -- -- -- -- -- -- -- --  -- -- -- -- -- -- -- --
0060:                                   00                         .    
```

#### Opcodes

```
  0: 0x006B [0x00] END_REQSTACK()
```

### Event 65535.1

#### Metadata

| Field        | Value    |
|--------------|----------|
| Entrypoint   | 0x006C   |
| Data Size    | 19 bytes |
| Instructions | 3        |

```
      00 01 02 03 04 05 06 07  08 09 0A 0B 0C 0D 0E 0F
      -- -- -- -- -- -- -- --  -- -- -- -- -- -- -- --
0060:                                      5B 08 80 F8              [...
0070: FF FF 7F F8 FF FF 7F 74  6C 6B 30 1C 09 80 00     .......tlk0.... 
```

#### Opcodes

```
  0: 0x006C [0x5B] LOAD_EXT_SCHEDULER: Load scheduler "tlk0" with entities [EventEntity, EventEntity], work=215*
  1: 0x007B [0x1C] WAIT(60* ticks)
  2: 0x007E [0x00] END_REQSTACK()
```

### Event 65535.2

#### Metadata

| Field        | Value    |
|--------------|----------|
| Entrypoint   | 0x007F   |
| Data Size    | 19 bytes |
| Instructions | 3        |

```
      00 01 02 03 04 05 06 07  08 09 0A 0B 0C 0D 0E 0F
      -- -- -- -- -- -- -- --  -- -- -- -- -- -- -- --
0070:                                               5B                 [
0080: 08 80 F8 FF FF 7F F8 FF  FF 7F 74 6C 6B 31 1C 09  ..........tlk1..
0090: 80 00                                             ..              
```

#### Opcodes

```
  0: 0x007F [0x5B] LOAD_EXT_SCHEDULER: Load scheduler "tlk1" with entities [EventEntity, EventEntity], work=215*
  1: 0x008E [0x1C] WAIT(60* ticks)
  2: 0x0091 [0x00] END_REQSTACK()
```

### Event 65535.3

#### Metadata

| Field        | Value    |
|--------------|----------|
| Entrypoint   | 0x0092   |
| Data Size    | 29 bytes |
| Instructions | 3        |

```
      00 01 02 03 04 05 06 07  08 09 0A 0B 0C 0D 0E 0F
      -- -- -- -- -- -- -- --  -- -- -- -- -- -- -- --
0090:       5B 08 80 F8 FF FF  7F F8 FF FF 7F 70 61 73    [..........pas
00A0: 30 53 F8 FF FF 7F F8 FF  FF 7F 70 61 73 30 00     0S........pas0. 
```

#### Opcodes

```
  0: 0x0092 [0x5B] LOAD_EXT_SCHEDULER: Load scheduler "pas0" with entities [EventEntity, EventEntity], work=215*
  1: 0x00A1 [0x53] WAIT_SCHEDULER_TASK: Wait for scheduler "pas0" with entities [EventEntity, EventEntity]
  2: 0x00AE [0x00] END_REQSTACK()
```

### Event 65535.4

#### Metadata

| Field        | Value   |
|--------------|---------|
| Entrypoint   | 0x00AF  |
| Data Size    | 9 bytes |
| Instructions | 3       |

```
      00 01 02 03 04 05 06 07  08 09 0A 0B 0C 0D 0E 0F
      -- -- -- -- -- -- -- --  -- -- -- -- -- -- -- --
00A0:                                               5E                 ^
00B0: 69 64 6C 30 1C 09 80 00                           idl0....        
```

#### Opcodes

```
  0: 0x00AF [0x5E] EventEntity goes idle (kills current action) (animation: "idl0")
  1: 0x00B4 [0x1C] WAIT(60* ticks)
  2: 0x00B7 [0x00] END_REQSTACK()
```

### Event 65535.5

#### Metadata

| Field        | Value   |
|--------------|---------|
| Entrypoint   | 0x00B8  |
| Data Size    | 1 bytes |
| Instructions | 1       |

```
      00 01 02 03 04 05 06 07  08 09 0A 0B 0C 0D 0E 0F
      -- -- -- -- -- -- -- --  -- -- -- -- -- -- -- --
00B0:                          00                               .       
```

#### Opcodes

```
  0: 0x00B8 [0x00] END_REQSTACK()
```

### Event 99

#### Metadata

| Field        | Value   |
|--------------|---------|
| Entrypoint   | 0x00B9  |
| Data Size    | 1 bytes |
| Instructions | 1       |

```
      00 01 02 03 04 05 06 07  08 09 0A 0B 0C 0D 0E 0F
      -- -- -- -- -- -- -- --  -- -- -- -- -- -- -- --
00B0:                             00                             .      
```

#### Opcodes

```
  0: 0x00B9 [0x00] END_REQSTACK()
```

### Event 100

#### Metadata

| Field        | Value   |
|--------------|---------|
| Entrypoint   | 0x00BA  |
| Data Size    | 1 bytes |
| Instructions | 1       |

```
      00 01 02 03 04 05 06 07  08 09 0A 0B 0C 0D 0E 0F
      -- -- -- -- -- -- -- --  -- -- -- -- -- -- -- --
00B0:                                00                           .     
```

#### Opcodes

```
  0: 0x00BA [0x00] END_REQSTACK()
```

### Event 46

#### Metadata

| Field        | Value    |
|--------------|----------|
| Entrypoint   | 0x00BB   |
| Data Size    | 27 bytes |
| Instructions | 7        |

```
      00 01 02 03 04 05 06 07  08 09 0A 0B 0C 0D 0E 0F
      -- -- -- -- -- -- -- --  -- -- -- -- -- -- -- --
00B0:                                   4A 19 50 0F 01             J.P..
00C0: F0 FF FF 7F 2B 19 50 0F  01 0A 80 23 2B 19 50 0F  ....+.P....#+.P.
00D0: 01 0B 80 23 21 00                                 ...#!.          
```

#### Opcodes

```
  0: 0x00BB [0x4A] Muckvix (ID: 17780761/0x010F5019) looks at LocalPlayer
  1: 0x00C4 [0x2B] Muckvix (ID: 17780761/0x010F5019) [8974*]:
    → "Take that letter to the tactician in Kazham. If what Sniggnix says is true, he should have some tricks up his sleeve for ya."
  2: 0x00CB [0x23] WAIT_FOR_DIALOG_INTERACTION
  3: 0x00CC [0x2B] Muckvix (ID: 17780761/0x010F5019) [8973*]:
    → "Off ya go, then."
  4: 0x00D3 [0x23] WAIT_FOR_DIALOG_INTERACTION
  5: 0x00D4 [0x21] END_EVENT
  6: 0x00D5 [0x00] END_REQSTACK()
```

### Event 47

#### Metadata

| Field        | Value    |
|--------------|----------|
| Entrypoint   | 0x00D6   |
| Data Size    | 28 bytes |
| Instructions | 7        |

```
      00 01 02 03 04 05 06 07  08 09 0A 0B 0C 0D 0E 0F
      -- -- -- -- -- -- -- --  -- -- -- -- -- -- -- --
00D0:                   4A 19  50 0F 01 F0 FF FF 7F 2B        J.P......+
00E0: 19 50 0F 01 0C 80 23 2B  19 50 0F 01 0B 80 23 21  .P....#+.P....#!
00F0: 00 00                                             ..              
```

#### Opcodes

```
  0: 0x00D6 [0x4A] Muckvix (ID: 17780761/0x010F5019) looks at LocalPlayer
  1: 0x00DF [0x2B] Muckvix (ID: 17780761/0x010F5019) [8972*]:
    → "That pot is jammed with stuff that smells of Goblins. Don't take off the lid, whatever ya do."
  2: 0x00E6 [0x23] WAIT_FOR_DIALOG_INTERACTION
  3: 0x00E7 [0x2B] Muckvix (ID: 17780761/0x010F5019) [8973*]:
    → "Off ya go, then."
  4: 0x00EE [0x23] WAIT_FOR_DIALOG_INTERACTION
  5: 0x00EF [0x21] END_EVENT
  6: 0x00F0 [0x00] END_REQSTACK()
```

#### Data or dead code:

```
# Dead code (unreachable instructions):
     0x00F1 [0x00] END_REQSTACK()
```

### Event 10094

#### Metadata

| Field        | Value   |
|--------------|---------|
| Entrypoint   | 0x00F2  |
| Data Size    | 5 bytes |
| Instructions | 2       |

```
      00 01 02 03 04 05 06 07  08 09 0A 0B 0C 0D 0E 0F
      -- -- -- -- -- -- -- --  -- -- -- -- -- -- -- --
00F0:       C0 0D 80 00 00                                .....         
```

#### Opcodes

```
  0: 0x00F2 [0xC0] EventEntity->Render.Flags3 |= 0x1000 // Set bit 12 (from 1*)
  1: 0x00F5 [0x00] END_REQSTACK()
```

#### Data or dead code:

```
# Dead code (unreachable instructions):
     0x00F6 [0x00] END_REQSTACK()
```

### Event 65535.6

#### Metadata

| Field        | Value    |
|--------------|----------|
| Entrypoint   | 0x00F7   |
| Data Size    | 20 bytes |
| Instructions | 5        |

```
      00 01 02 03 04 05 06 07  08 09 0A 0B 0C 0D 0E 0F
      -- -- -- -- -- -- -- --  -- -- -- -- -- -- -- --
00F0:                      59  04 0B 50 0F 01 0E 80 1F         Y..P.....
0100: 00 0F 80 10 80 11 80 1F  01 6F 00                 .........o.     
```

#### Opcodes

```
  0: 0x00F7 [0x59] UPDATE_ENTITY_DATA: Set Garnev (ID: 17780747/0x010F500B) main speed = 12* * 0.1
  1: 0x00FF [0x1F] MOVE_ENTITY: EventEntity moves to X=-76.092*, Z=-136.357*, Y=0.000*
  2: 0x0107 [0x1F] MOVE_ENTITY: Update entity position (mode=1)
  3: 0x0109 [0x6F] WAIT_FRAME_DELAY: Yield until WaitTime reaches zero
  4: 0x010A [0x00] END_REQSTACK()
```

### Event 65535.7

#### Metadata

| Field        | Value    |
|--------------|----------|
| Entrypoint   | 0x010B   |
| Data Size    | 20 bytes |
| Instructions | 5        |

```
      00 01 02 03 04 05 06 07  08 09 0A 0B 0C 0D 0E 0F
      -- -- -- -- -- -- -- --  -- -- -- -- -- -- -- --
0100:                                   59 04 1D 50 0F             Y..P.
0110: 01 12 80 1F 00 13 80 14  80 11 80 1F 01 6F 00     .............o. 
```

#### Opcodes

```
  0: 0x010B [0x59] UPDATE_ENTITY_DATA: Set Mataligeat (ID: 17780765/0x010F501D) main speed = 11* * 0.1
  1: 0x0113 [0x1F] MOVE_ENTITY: EventEntity moves to X=-95.337*, Z=-156.056*, Y=0.000*
  2: 0x011B [0x1F] MOVE_ENTITY: Update entity position (mode=1)
  3: 0x011D [0x6F] WAIT_FRAME_DELAY: Yield until WaitTime reaches zero
  4: 0x011E [0x00] END_REQSTACK()
```

### Event 65535.8

#### Metadata

| Field        | Value    |
|--------------|----------|
| Entrypoint   | 0x011F   |
| Data Size    | 20 bytes |
| Instructions | 5        |

```
      00 01 02 03 04 05 06 07  08 09 0A 0B 0C 0D 0E 0F
      -- -- -- -- -- -- -- --  -- -- -- -- -- -- -- --
0110:                                               59                 Y
0120: 04 1D 50 0F 01 12 80 1F  00 15 80 16 80 17 80 1F  ..P.............
0130: 01 6F 00                                          .o.             
```

#### Opcodes

```
  0: 0x011F [0x59] UPDATE_ENTITY_DATA: Set Mataligeat (ID: 17780765/0x010F501D) main speed = 11* * 0.1
  1: 0x0127 [0x1F] MOVE_ENTITY: EventEntity moves to X=-62.073*, Z=-89.873*, Y=5.999*
  2: 0x012F [0x1F] MOVE_ENTITY: Update entity position (mode=1)
  3: 0x0131 [0x6F] WAIT_FRAME_DELAY: Yield until WaitTime reaches zero
  4: 0x0132 [0x00] END_REQSTACK()
```

### Event 65535.9

#### Metadata

| Field        | Value    |
|--------------|----------|
| Entrypoint   | 0x0133   |
| Data Size    | 17 bytes |
| Instructions | 2        |

```
      00 01 02 03 04 05 06 07  08 09 0A 0B 0C 0D 0E 0F
      -- -- -- -- -- -- -- --  -- -- -- -- -- -- -- --
0130:          5B 18 80 1D 50  0F 01 1D 50 0F 01 6F 70     [...P...P..op
0140: 30 30 00 00                                       00..            
```

#### Opcodes

```
  0: 0x0133 [0x5B] LOAD_EXT_SCHEDULER: Load scheduler "op00" with entities [Mataligeat (ID: 17780765/0x010F501D), Mataligeat (ID: 17780765/0x010F501D)], work=2618*
  1: 0x0142 [0x00] END_REQSTACK()
```

#### Data or dead code:

```
# Dead code (unreachable instructions):
     0x0143 [0x00] END_REQSTACK()
```

### Event 65535.10

#### Metadata

| Field        | Value    |
|--------------|----------|
| Entrypoint   | 0x0144   |
| Data Size    | 20 bytes |
| Instructions | 5        |

```
      00 01 02 03 04 05 06 07  08 09 0A 0B 0C 0D 0E 0F
      -- -- -- -- -- -- -- --  -- -- -- -- -- -- -- --
0140:             59 04 3A 50  0F 01 12 80 1F 00 13 80      Y.:P........
0150: 14 80 11 80 1F 01 6F 00                           ......o.        
```

#### Opcodes

```
  0: 0x0144 [0x59] UPDATE_ENTITY_DATA: Set Navisse (ID: 17780794/0x010F503A) main speed = 11* * 0.1
  1: 0x014C [0x1F] MOVE_ENTITY: EventEntity moves to X=-95.337*, Z=-156.056*, Y=0.000*
  2: 0x0154 [0x1F] MOVE_ENTITY: Update entity position (mode=1)
  3: 0x0156 [0x6F] WAIT_FRAME_DELAY: Yield until WaitTime reaches zero
  4: 0x0157 [0x00] END_REQSTACK()
```

### Event 65535.11

#### Metadata

| Field        | Value    |
|--------------|----------|
| Entrypoint   | 0x0158   |
| Data Size    | 20 bytes |
| Instructions | 5        |

```
      00 01 02 03 04 05 06 07  08 09 0A 0B 0C 0D 0E 0F
      -- -- -- -- -- -- -- --  -- -- -- -- -- -- -- --
0150:                          59 04 2C 50 0F 01 0E 80          Y.,P....
0160: 1F 00 19 80 1A 80 11 80  1F 01 6F 00              ..........o.    
```

#### Opcodes

```
  0: 0x0158 [0x59] UPDATE_ENTITY_DATA: Set Jazmin (ID: 17780780/0x010F502C) main speed = 12* * 0.1
  1: 0x0160 [0x1F] MOVE_ENTITY: EventEntity moves to X=-83.944*, Z=-128.625*, Y=0.000*
  2: 0x0168 [0x1F] MOVE_ENTITY: Update entity position (mode=1)
  3: 0x016A [0x6F] WAIT_FRAME_DELAY: Yield until WaitTime reaches zero
  4: 0x016B [0x00] END_REQSTACK()
```

### Event 65535.12

#### Metadata

| Field        | Value    |
|--------------|----------|
| Entrypoint   | 0x016C   |
| Data Size    | 19 bytes |
| Instructions | 4        |

```
      00 01 02 03 04 05 06 07  08 09 0A 0B 0C 0D 0E 0F
      -- -- -- -- -- -- -- --  -- -- -- -- -- -- -- --
0160:                                      59 04 2C 50              Y.,P
0170: 0F 01 12 80 1F 00 1B 80  1C 80 17 80 1F 01 00     ............... 
```

#### Opcodes

```
  0: 0x016C [0x59] UPDATE_ENTITY_DATA: Set Jazmin (ID: 17780780/0x010F502C) main speed = 11* * 0.1
  1: 0x0174 [0x1F] MOVE_ENTITY: EventEntity moves to X=-68.592*, Z=-96.839*, Y=5.999*
  2: 0x017C [0x1F] MOVE_ENTITY: Update entity position (mode=1)
  3: 0x017E [0x00] END_REQSTACK()
```

### Event 65535.13

#### Metadata

| Field        | Value    |
|--------------|----------|
| Entrypoint   | 0x017F   |
| Data Size    | 19 bytes |
| Instructions | 4        |

```
      00 01 02 03 04 05 06 07  08 09 0A 0B 0C 0D 0E 0F
      -- -- -- -- -- -- -- --  -- -- -- -- -- -- -- --
0170:                                               59                 Y
0180: 04 2C 50 0F 01 12 80 1F  00 1D 80 1E 80 17 80 1F  .,P.............
0190: 01 00                                             ..              
```

#### Opcodes

```
  0: 0x017F [0x59] UPDATE_ENTITY_DATA: Set Jazmin (ID: 17780780/0x010F502C) main speed = 11* * 0.1
  1: 0x0187 [0x1F] MOVE_ENTITY: EventEntity moves to X=-70.511*, Z=-102.750*, Y=5.999*
  2: 0x018F [0x1F] MOVE_ENTITY: Update entity position (mode=1)
  3: 0x0191 [0x00] END_REQSTACK()
```

### Event 65535.14

#### Metadata

| Field        | Value    |
|--------------|----------|
| Entrypoint   | 0x0192   |
| Data Size    | 16 bytes |
| Instructions | 2        |

```
      00 01 02 03 04 05 06 07  08 09 0A 0B 0C 0D 0E 0F
      -- -- -- -- -- -- -- --  -- -- -- -- -- -- -- --
0190:       5B 1F 80 2C 50 0F  01 2C 50 0F 01 6F 70 30    [..,P..,P..op0
01A0: 30 00                                             0.              
```

#### Opcodes

```
  0: 0x0192 [0x5B] LOAD_EXT_SCHEDULER: Load scheduler "op00" with entities [Jazmin (ID: 17780780/0x010F502C), Jazmin (ID: 17780780/0x010F502C)], work=2602*
  1: 0x01A1 [0x00] END_REQSTACK()
```

### Event 65535.15

#### Metadata

| Field        | Value    |
|--------------|----------|
| Entrypoint   | 0x01A2   |
| Data Size    | 16 bytes |
| Instructions | 2        |

```
      00 01 02 03 04 05 06 07  08 09 0A 0B 0C 0D 0E 0F
      -- -- -- -- -- -- -- --  -- -- -- -- -- -- -- --
01A0:       5B 1F 80 2C 50 0F  01 2C 50 0F 01 6F 70 30    [..,P..,P..op0
01B0: 31 00                                             1.              
```

#### Opcodes

```
  0: 0x01A2 [0x5B] LOAD_EXT_SCHEDULER: Load scheduler "op01" with entities [Jazmin (ID: 17780780/0x010F502C), Jazmin (ID: 17780780/0x010F502C)], work=2602*
  1: 0x01B1 [0x00] END_REQSTACK()
```

### Event 65535.16

#### Metadata

| Field        | Value    |
|--------------|----------|
| Entrypoint   | 0x01B2   |
| Data Size    | 20 bytes |
| Instructions | 5        |

```
      00 01 02 03 04 05 06 07  08 09 0A 0B 0C 0D 0E 0F
      -- -- -- -- -- -- -- --  -- -- -- -- -- -- -- --
01B0:       59 04 2C 50 0F 01  12 80 1F 00 20 80 21 80    Y.,P...... .!.
01C0: 17 80 1F 01 6F 00                                 ....o.          
```

#### Opcodes

```
  0: 0x01B2 [0x59] UPDATE_ENTITY_DATA: Set Jazmin (ID: 17780780/0x010F502C) main speed = 11* * 0.1
  1: 0x01BA [0x1F] MOVE_ENTITY: EventEntity moves to X=-72.366*, Z=-118.167*, Y=5.999*
  2: 0x01C2 [0x1F] MOVE_ENTITY: Update entity position (mode=1)
  3: 0x01C4 [0x6F] WAIT_FRAME_DELAY: Yield until WaitTime reaches zero
  4: 0x01C5 [0x00] END_REQSTACK()
```

### Event 65535.17

#### Metadata

| Field        | Value    |
|--------------|----------|
| Entrypoint   | 0x01C6   |
| Data Size    | 16 bytes |
| Instructions | 2        |

```
      00 01 02 03 04 05 06 07  08 09 0A 0B 0C 0D 0E 0F
      -- -- -- -- -- -- -- --  -- -- -- -- -- -- -- --
01C0:                   5B 22  80 2C 50 0F 01 2C 50 0F        [".,P..,P.
01D0: 01 6F 70 61 30 00                                 .opa0.          
```

#### Opcodes

```
  0: 0x01C6 [0x5B] LOAD_EXT_SCHEDULER: Load scheduler "opa0" with entities [Jazmin (ID: 17780780/0x010F502C), Jazmin (ID: 17780780/0x010F502C)], work=2617*
  1: 0x01D5 [0x00] END_REQSTACK()
```

### Event 65535.18

#### Metadata

| Field        | Value    |
|--------------|----------|
| Entrypoint   | 0x01D6   |
| Data Size    | 16 bytes |
| Instructions | 2        |

```
      00 01 02 03 04 05 06 07  08 09 0A 0B 0C 0D 0E 0F
      -- -- -- -- -- -- -- --  -- -- -- -- -- -- -- --
01D0:                   5B 22  80 2C 50 0F 01 2C 50 0F        [".,P..,P.
01E0: 01 6F 70 61 31 00                                 .opa1.          
```

#### Opcodes

```
  0: 0x01D6 [0x5B] LOAD_EXT_SCHEDULER: Load scheduler "opa1" with entities [Jazmin (ID: 17780780/0x010F502C), Jazmin (ID: 17780780/0x010F502C)], work=2617*
  1: 0x01E5 [0x00] END_REQSTACK()
```

### Event 65535.19

#### Metadata

| Field        | Value    |
|--------------|----------|
| Entrypoint   | 0x01E6   |
| Data Size    | 16 bytes |
| Instructions | 2        |

```
      00 01 02 03 04 05 06 07  08 09 0A 0B 0C 0D 0E 0F
      -- -- -- -- -- -- -- --  -- -- -- -- -- -- -- --
01E0:                   5B 22  80 2C 50 0F 01 2C 50 0F        [".,P..,P.
01F0: 01 6F 70 61 32 00                                 .opa2.          
```

#### Opcodes

```
  0: 0x01E6 [0x5B] LOAD_EXT_SCHEDULER: Load scheduler "opa2" with entities [Jazmin (ID: 17780780/0x010F502C), Jazmin (ID: 17780780/0x010F502C)], work=2617*
  1: 0x01F5 [0x00] END_REQSTACK()
```

### Event 65535.20

#### Metadata

| Field        | Value    |
|--------------|----------|
| Entrypoint   | 0x01F6   |
| Data Size    | 21 bytes |
| Instructions | 5        |

```
      00 01 02 03 04 05 06 07  08 09 0A 0B 0C 0D 0E 0F
      -- -- -- -- -- -- -- --  -- -- -- -- -- -- -- --
01F0:                   59 04  2E 50 0F 01 0E 80 1F 00        Y..P......
0200: 0F 80 10 80 11 80 1F 01  6F 00 00                 ........o..     
```

#### Opcodes

```
  0: 0x01F6 [0x59] UPDATE_ENTITY_DATA: Set Bogharg (ID: 17780782/0x010F502E) main speed = 12* * 0.1
  1: 0x01FE [0x1F] MOVE_ENTITY: EventEntity moves to X=-76.092*, Z=-136.357*, Y=0.000*
  2: 0x0206 [0x1F] MOVE_ENTITY: Update entity position (mode=1)
  3: 0x0208 [0x6F] WAIT_FRAME_DELAY: Yield until WaitTime reaches zero
  4: 0x0209 [0x00] END_REQSTACK()
```

#### Data or dead code:

```
# Dead code (unreachable instructions):
     0x020A [0x00] END_REQSTACK()
```

### Event 65535.21

#### Metadata

| Field        | Value    |
|--------------|----------|
| Entrypoint   | 0x020B   |
| Data Size    | 16 bytes |
| Instructions | 2        |

```
      00 01 02 03 04 05 06 07  08 09 0A 0B 0C 0D 0E 0F
      -- -- -- -- -- -- -- --  -- -- -- -- -- -- -- --
0200:                                   66 23 80 2E 50             f#..P
0210: 0F 01 2E 50 0F 01 74 68  6B 31 00                 ...P..thk1.     
```

#### Opcodes

```
  0: 0x020B [0x66] LOAD_EXT_SCHEDULER_MAIN: Load scheduler "thk1" with entities [Bogharg (ID: 17780782/0x010F502E), Bogharg (ID: 17780782/0x010F502E)], work=69*
  1: 0x021A [0x00] END_REQSTACK()
```

### Event 65535.22

#### Metadata

| Field        | Value    |
|--------------|----------|
| Entrypoint   | 0x021B   |
| Data Size    | 16 bytes |
| Instructions | 2        |

```
      00 01 02 03 04 05 06 07  08 09 0A 0B 0C 0D 0E 0F
      -- -- -- -- -- -- -- --  -- -- -- -- -- -- -- --
0210:                                   66 23 80 2E 50             f#..P
0220: 0F 01 2E 50 0F 01 74 68  6B 32 00                 ...P..thk2.     
```

#### Opcodes

```
  0: 0x021B [0x66] LOAD_EXT_SCHEDULER_MAIN: Load scheduler "thk2" with entities [Bogharg (ID: 17780782/0x010F502E), Bogharg (ID: 17780782/0x010F502E)], work=69*
  1: 0x022A [0x00] END_REQSTACK()
```

### Event 65535.23

#### Metadata

| Field        | Value    |
|--------------|----------|
| Entrypoint   | 0x022B   |
| Data Size    | 20 bytes |
| Instructions | 5        |

```
      00 01 02 03 04 05 06 07  08 09 0A 0B 0C 0D 0E 0F
      -- -- -- -- -- -- -- --  -- -- -- -- -- -- -- --
0220:                                   59 04 2E 50 0F             Y..P.
0230: 01 0E 80 1F 00 24 80 25  80 17 80 1F 01 6F 00     .....$.%.....o. 
```

#### Opcodes

```
  0: 0x022B [0x59] UPDATE_ENTITY_DATA: Set Bogharg (ID: 17780782/0x010F502E) main speed = 12* * 0.1
  1: 0x0233 [0x1F] MOVE_ENTITY: EventEntity moves to X=-56.992*, Z=-88.050*, Y=5.999*
  2: 0x023B [0x1F] MOVE_ENTITY: Update entity position (mode=1)
  3: 0x023D [0x6F] WAIT_FRAME_DELAY: Yield until WaitTime reaches zero
  4: 0x023E [0x00] END_REQSTACK()
```

### Event 65535.24

#### Metadata

| Field        | Value    |
|--------------|----------|
| Entrypoint   | 0x023F   |
| Data Size    | 17 bytes |
| Instructions | 2        |

```
      00 01 02 03 04 05 06 07  08 09 0A 0B 0C 0D 0E 0F
      -- -- -- -- -- -- -- --  -- -- -- -- -- -- -- --
0230:                                               5B                 [
0240: 26 80 2E 50 0F 01 2E 50  0F 01 6F 70 30 30 00 00  &..P...P..op00..
```

#### Opcodes

```
  0: 0x023F [0x5B] LOAD_EXT_SCHEDULER: Load scheduler "op00" with entities [Bogharg (ID: 17780782/0x010F502E), Bogharg (ID: 17780782/0x010F502E)], work=2621*
  1: 0x024E [0x00] END_REQSTACK()
```

#### Data or dead code:

```
# Dead code (unreachable instructions):
     0x024F [0x00] END_REQSTACK()
```

### Event 65535.25

#### Metadata

| Field        | Value    |
|--------------|----------|
| Entrypoint   | 0x0250   |
| Data Size    | 20 bytes |
| Instructions | 5        |

```
      00 01 02 03 04 05 06 07  08 09 0A 0B 0C 0D 0E 0F
      -- -- -- -- -- -- -- --  -- -- -- -- -- -- -- --
0250: 59 04 31 50 0F 01 12 80  1F 00 19 80 1A 80 11 80  Y.1P............
0260: 1F 01 6F 00                                       ..o.            
```

#### Opcodes

```
  0: 0x0250 [0x59] UPDATE_ENTITY_DATA: Set Nakho Jawantal (ID: 17780785/0x010F5031) main speed = 11* * 0.1
  1: 0x0258 [0x1F] MOVE_ENTITY: EventEntity moves to X=-83.944*, Z=-128.625*, Y=0.000*
  2: 0x0260 [0x1F] MOVE_ENTITY: Update entity position (mode=1)
  3: 0x0262 [0x6F] WAIT_FRAME_DELAY: Yield until WaitTime reaches zero
  4: 0x0263 [0x00] END_REQSTACK()
```

### Event 65535.26

#### Metadata

| Field        | Value    |
|--------------|----------|
| Entrypoint   | 0x0264   |
| Data Size    | 16 bytes |
| Instructions | 2        |

```
      00 01 02 03 04 05 06 07  08 09 0A 0B 0C 0D 0E 0F
      -- -- -- -- -- -- -- --  -- -- -- -- -- -- -- --
0260:             5B 27 80 12  50 0F 01 12 50 0F 01 6F      ['..P...P..o
0270: 70 61 30 00                                       pa0.            
```

#### Opcodes

```
  0: 0x0264 [0x5B] LOAD_EXT_SCHEDULER: Load scheduler "opa0" with entities [Tovrutaux (ID: 17780754/0x010F5012), Tovrutaux (ID: 17780754/0x010F5012)], work=2627*
  1: 0x0273 [0x00] END_REQSTACK()
```

### Event 65535.27

#### Metadata

| Field        | Value    |
|--------------|----------|
| Entrypoint   | 0x0274   |
| Data Size    | 16 bytes |
| Instructions | 2        |

```
      00 01 02 03 04 05 06 07  08 09 0A 0B 0C 0D 0E 0F
      -- -- -- -- -- -- -- --  -- -- -- -- -- -- -- --
0270:             5B 27 80 12  50 0F 01 12 50 0F 01 6F      ['..P...P..o
0280: 70 61 31 00                                       pa1.            
```

#### Opcodes

```
  0: 0x0274 [0x5B] LOAD_EXT_SCHEDULER: Load scheduler "opa1" with entities [Tovrutaux (ID: 17780754/0x010F5012), Tovrutaux (ID: 17780754/0x010F5012)], work=2627*
  1: 0x0283 [0x00] END_REQSTACK()
```

### Event 65535.28

#### Metadata

| Field        | Value    |
|--------------|----------|
| Entrypoint   | 0x0284   |
| Data Size    | 16 bytes |
| Instructions | 2        |

```
      00 01 02 03 04 05 06 07  08 09 0A 0B 0C 0D 0E 0F
      -- -- -- -- -- -- -- --  -- -- -- -- -- -- -- --
0280:             5B 27 80 12  50 0F 01 12 50 0F 01 6F      ['..P...P..o
0290: 70 61 32 00                                       pa2.            
```

#### Opcodes

```
  0: 0x0284 [0x5B] LOAD_EXT_SCHEDULER: Load scheduler "opa2" with entities [Tovrutaux (ID: 17780754/0x010F5012), Tovrutaux (ID: 17780754/0x010F5012)], work=2627*
  1: 0x0293 [0x00] END_REQSTACK()
```

### Event 65535.29

#### Metadata

| Field        | Value    |
|--------------|----------|
| Entrypoint   | 0x0294   |
| Data Size    | 16 bytes |
| Instructions | 2        |

```
      00 01 02 03 04 05 06 07  08 09 0A 0B 0C 0D 0E 0F
      -- -- -- -- -- -- -- --  -- -- -- -- -- -- -- --
0290:             5B 28 80 12  50 0F 01 12 50 0F 01 74      [(..P...P..t
02A0: 68 6B 31 00                                       hk1.            
```

#### Opcodes

```
  0: 0x0294 [0x5B] LOAD_EXT_SCHEDULER: Load scheduler "thk1" with entities [Tovrutaux (ID: 17780754/0x010F5012), Tovrutaux (ID: 17780754/0x010F5012)], work=75*
  1: 0x02A3 [0x00] END_REQSTACK()
```

### Event 65535.30

#### Metadata

| Field        | Value    |
|--------------|----------|
| Entrypoint   | 0x02A4   |
| Data Size    | 16 bytes |
| Instructions | 2        |

```
      00 01 02 03 04 05 06 07  08 09 0A 0B 0C 0D 0E 0F
      -- -- -- -- -- -- -- --  -- -- -- -- -- -- -- --
02A0:             5B 28 80 12  50 0F 01 12 50 0F 01 74      [(..P...P..t
02B0: 68 6B 32 00                                       hk2.            
```

#### Opcodes

```
  0: 0x02A4 [0x5B] LOAD_EXT_SCHEDULER: Load scheduler "thk2" with entities [Tovrutaux (ID: 17780754/0x010F5012), Tovrutaux (ID: 17780754/0x010F5012)], work=75*
  1: 0x02B3 [0x00] END_REQSTACK()
```

### Event 65535.31

#### Metadata

| Field        | Value    |
|--------------|----------|
| Entrypoint   | 0x02B4   |
| Data Size    | 16 bytes |
| Instructions | 2        |

```
      00 01 02 03 04 05 06 07  08 09 0A 0B 0C 0D 0E 0F
      -- -- -- -- -- -- -- --  -- -- -- -- -- -- -- --
02B0:             5B 28 80 12  50 0F 01 12 50 0F 01 74      [(..P...P..t
02C0: 6C 6B 30 00                                       lk0.            
```

#### Opcodes

```
  0: 0x02B4 [0x5B] LOAD_EXT_SCHEDULER: Load scheduler "tlk0" with entities [Tovrutaux (ID: 17780754/0x010F5012), Tovrutaux (ID: 17780754/0x010F5012)], work=75*
  1: 0x02C3 [0x00] END_REQSTACK()
```

### Event 65535.32

#### Metadata

| Field        | Value    |
|--------------|----------|
| Entrypoint   | 0x02C4   |
| Data Size    | 16 bytes |
| Instructions | 2        |

```
      00 01 02 03 04 05 06 07  08 09 0A 0B 0C 0D 0E 0F
      -- -- -- -- -- -- -- --  -- -- -- -- -- -- -- --
02C0:             5B 28 80 12  50 0F 01 12 50 0F 01 74      [(..P...P..t
02D0: 6C 6B 31 00                                       lk1.            
```

#### Opcodes

```
  0: 0x02C4 [0x5B] LOAD_EXT_SCHEDULER: Load scheduler "tlk1" with entities [Tovrutaux (ID: 17780754/0x010F5012), Tovrutaux (ID: 17780754/0x010F5012)], work=75*
  1: 0x02D3 [0x00] END_REQSTACK()
```

### Event 65535.33

#### Metadata

| Field        | Value    |
|--------------|----------|
| Entrypoint   | 0x02D4   |
| Data Size    | 12 bytes |
| Instructions | 4        |

```
      00 01 02 03 04 05 06 07  08 09 0A 0B 0C 0D 0E 0F
      -- -- -- -- -- -- -- --  -- -- -- -- -- -- -- --
02D0:             1F 00 29 80  2A 80 11 80 1F 01 6F 00      ..).*.....o.
```

#### Opcodes

```
  0: 0x02D4 [0x1F] MOVE_ENTITY: EventEntity moves to X=-19.954*, Z=-20.950*, Y=0.000*
  1: 0x02DC [0x1F] MOVE_ENTITY: Update entity position (mode=1)
  2: 0x02DE [0x6F] WAIT_FRAME_DELAY: Yield until WaitTime reaches zero
  3: 0x02DF [0x00] END_REQSTACK()
```

### Event 65535.34

#### Metadata

| Field        | Value    |
|--------------|----------|
| Entrypoint   | 0x02E0   |
| Data Size    | 20 bytes |
| Instructions | 5        |

```
      00 01 02 03 04 05 06 07  08 09 0A 0B 0C 0D 0E 0F
      -- -- -- -- -- -- -- --  -- -- -- -- -- -- -- --
02E0: 59 04 13 50 0F 01 12 80  1F 00 2B 80 2C 80 17 80  Y..P......+.,...
02F0: 1F 01 6F 00                                       ..o.            
```

#### Opcodes

```
  0: 0x02E0 [0x59] UPDATE_ENTITY_DATA: Set Seyaya (ID: 17780755/0x010F5013) main speed = 11* * 0.1
  1: 0x02E8 [0x1F] MOVE_ENTITY: EventEntity moves to X=-74.699*, Z=-107.115*, Y=5.999*
  2: 0x02F0 [0x1F] MOVE_ENTITY: Update entity position (mode=1)
  3: 0x02F2 [0x6F] WAIT_FRAME_DELAY: Yield until WaitTime reaches zero
  4: 0x02F3 [0x00] END_REQSTACK()
```

### Event 65535.35

#### Metadata

| Field        | Value    |
|--------------|----------|
| Entrypoint   | 0x02F4   |
| Data Size    | 17 bytes |
| Instructions | 2        |

```
      00 01 02 03 04 05 06 07  08 09 0A 0B 0C 0D 0E 0F
      -- -- -- -- -- -- -- --  -- -- -- -- -- -- -- --
02F0:             5B 2D 80 13  50 0F 01 13 50 0F 01 6F      [-..P...P..o
0300: 70 61 30 00 00                                    pa0..           
```

#### Opcodes

```
  0: 0x02F4 [0x5B] LOAD_EXT_SCHEDULER: Load scheduler "opa0" with entities [Seyaya (ID: 17780755/0x010F5013), Seyaya (ID: 17780755/0x010F5013)], work=2631*
  1: 0x0303 [0x00] END_REQSTACK()
```

#### Data or dead code:

```
# Dead code (unreachable instructions):
     0x0304 [0x00] END_REQSTACK()
```

### Event 65535.36

#### Metadata

| Field        | Value    |
|--------------|----------|
| Entrypoint   | 0x0305   |
| Data Size    | 17 bytes |
| Instructions | 2        |

```
      00 01 02 03 04 05 06 07  08 09 0A 0B 0C 0D 0E 0F
      -- -- -- -- -- -- -- --  -- -- -- -- -- -- -- --
0300:                5B 2D 80  13 50 0F 01 13 50 0F 01       [-..P...P..
0310: 6F 70 61 31 00 00                                 opa1..          
```

#### Opcodes

```
  0: 0x0305 [0x5B] LOAD_EXT_SCHEDULER: Load scheduler "opa1" with entities [Seyaya (ID: 17780755/0x010F5013), Seyaya (ID: 17780755/0x010F5013)], work=2631*
  1: 0x0314 [0x00] END_REQSTACK()
```

#### Data or dead code:

```
# Dead code (unreachable instructions):
     0x0315 [0x00] END_REQSTACK()
```

### Event 65535.37

#### Metadata

| Field        | Value    |
|--------------|----------|
| Entrypoint   | 0x0316   |
| Data Size    | 16 bytes |
| Instructions | 2        |

```
      00 01 02 03 04 05 06 07  08 09 0A 0B 0C 0D 0E 0F
      -- -- -- -- -- -- -- --  -- -- -- -- -- -- -- --
0310:                   5B 2D  80 13 50 0F 01 13 50 0F        [-..P...P.
0320: 01 6F 70 61 32 00                                 .opa2.          
```

#### Opcodes

```
  0: 0x0316 [0x5B] LOAD_EXT_SCHEDULER: Load scheduler "opa2" with entities [Seyaya (ID: 17780755/0x010F5013), Seyaya (ID: 17780755/0x010F5013)], work=2631*
  1: 0x0325 [0x00] END_REQSTACK()
```

### Event 65535.38

#### Metadata

| Field        | Value    |
|--------------|----------|
| Entrypoint   | 0x0326   |
| Data Size    | 16 bytes |
| Instructions | 2        |

```
      00 01 02 03 04 05 06 07  08 09 0A 0B 0C 0D 0E 0F
      -- -- -- -- -- -- -- --  -- -- -- -- -- -- -- --
0320:                   5B 2E  80 13 50 0F 01 13 50 0F        [...P...P.
0330: 01 74 68 6B 31 00                                 .thk1.          
```

#### Opcodes

```
  0: 0x0326 [0x5B] LOAD_EXT_SCHEDULER: Load scheduler "thk1" with entities [Seyaya (ID: 17780755/0x010F5013), Seyaya (ID: 17780755/0x010F5013)], work=85*
  1: 0x0335 [0x00] END_REQSTACK()
```

### Event 65535.39

#### Metadata

| Field        | Value    |
|--------------|----------|
| Entrypoint   | 0x0336   |
| Data Size    | 16 bytes |
| Instructions | 2        |

```
      00 01 02 03 04 05 06 07  08 09 0A 0B 0C 0D 0E 0F
      -- -- -- -- -- -- -- --  -- -- -- -- -- -- -- --
0330:                   5B 2E  80 13 50 0F 01 13 50 0F        [...P...P.
0340: 01 74 68 6B 32 00                                 .thk2.          
```

#### Opcodes

```
  0: 0x0336 [0x5B] LOAD_EXT_SCHEDULER: Load scheduler "thk2" with entities [Seyaya (ID: 17780755/0x010F5013), Seyaya (ID: 17780755/0x010F5013)], work=85*
  1: 0x0345 [0x00] END_REQSTACK()
```

### Event 65535.40

#### Metadata

| Field        | Value    |
|--------------|----------|
| Entrypoint   | 0x0346   |
| Data Size    | 16 bytes |
| Instructions | 2        |

```
      00 01 02 03 04 05 06 07  08 09 0A 0B 0C 0D 0E 0F
      -- -- -- -- -- -- -- --  -- -- -- -- -- -- -- --
0340:                   5B 2E  80 13 50 0F 01 13 50 0F        [...P...P.
0350: 01 74 6C 6B 30 00                                 .tlk0.          
```

#### Opcodes

```
  0: 0x0346 [0x5B] LOAD_EXT_SCHEDULER: Load scheduler "tlk0" with entities [Seyaya (ID: 17780755/0x010F5013), Seyaya (ID: 17780755/0x010F5013)], work=85*
  1: 0x0355 [0x00] END_REQSTACK()
```

### Event 65535.41

#### Metadata

| Field        | Value    |
|--------------|----------|
| Entrypoint   | 0x0356   |
| Data Size    | 16 bytes |
| Instructions | 2        |

```
      00 01 02 03 04 05 06 07  08 09 0A 0B 0C 0D 0E 0F
      -- -- -- -- -- -- -- --  -- -- -- -- -- -- -- --
0350:                   5B 2E  80 13 50 0F 01 13 50 0F        [...P...P.
0360: 01 74 6C 6B 65 00                                 .tlke.          
```

#### Opcodes

```
  0: 0x0356 [0x5B] LOAD_EXT_SCHEDULER: Load scheduler "tlke" with entities [Seyaya (ID: 17780755/0x010F5013), Seyaya (ID: 17780755/0x010F5013)], work=85*
  1: 0x0365 [0x00] END_REQSTACK()
```

### Event 65535.42

#### Metadata

| Field        | Value    |
|--------------|----------|
| Entrypoint   | 0x0366   |
| Data Size    | 16 bytes |
| Instructions | 2        |

```
      00 01 02 03 04 05 06 07  08 09 0A 0B 0C 0D 0E 0F
      -- -- -- -- -- -- -- --  -- -- -- -- -- -- -- --
0360:                   5B 2E  80 13 50 0F 01 13 50 0F        [...P...P.
0370: 01 62 61 6E 30 00                                 .ban0.          
```

#### Opcodes

```
  0: 0x0366 [0x5B] LOAD_EXT_SCHEDULER: Load scheduler "ban0" with entities [Seyaya (ID: 17780755/0x010F5013), Seyaya (ID: 17780755/0x010F5013)], work=85*
  1: 0x0375 [0x00] END_REQSTACK()
```

### Event 65535.43

#### Metadata

| Field        | Value    |
|--------------|----------|
| Entrypoint   | 0x0376   |
| Data Size    | 13 bytes |
| Instructions | 4        |

```
      00 01 02 03 04 05 06 07  08 09 0A 0B 0C 0D 0E 0F
      -- -- -- -- -- -- -- --  -- -- -- -- -- -- -- --
0370:                   1F 00  2F 80 30 80 11 80 1F 01        ../.0.....
0380: 6F 00 00                                          o..             
```

#### Opcodes

```
  0: 0x0376 [0x1F] MOVE_ENTITY: EventEntity moves to X=-19.857*, Z=-21.712*, Y=0.000*
  1: 0x037E [0x1F] MOVE_ENTITY: Update entity position (mode=1)
  2: 0x0380 [0x6F] WAIT_FRAME_DELAY: Yield until WaitTime reaches zero
  3: 0x0381 [0x00] END_REQSTACK()
```

#### Data or dead code:

```
# Dead code (unreachable instructions):
     0x0382 [0x00] END_REQSTACK()
```

### Event 65535.44

#### Metadata

| Field        | Value    |
|--------------|----------|
| Entrypoint   | 0x0383   |
| Data Size    | 20 bytes |
| Instructions | 5        |

```
      00 01 02 03 04 05 06 07  08 09 0A 0B 0C 0D 0E 0F
      -- -- -- -- -- -- -- --  -- -- -- -- -- -- -- --
0380:          59 04 C0 50 0F  01 31 80 1F 00 32 80 33     Y..P..1...2.3
0390: 80 11 80 1F 01 6F 00                              .....o.         
```

#### Opcodes

```
  0: 0x0383 [0x59] UPDATE_ENTITY_DATA: Set Rakuru-Rakoru (ID: 17780928/0x010F50C0) main speed = 14* * 0.1
  1: 0x038B [0x1F] MOVE_ENTITY: EventEntity moves to X=-37.763*, Z=-62.812*, Y=0.000*
  2: 0x0393 [0x1F] MOVE_ENTITY: Update entity position (mode=1)
  3: 0x0395 [0x6F] WAIT_FRAME_DELAY: Yield until WaitTime reaches zero
  4: 0x0396 [0x00] END_REQSTACK()
```

### Event 65535.45

#### Metadata

| Field        | Value    |
|--------------|----------|
| Entrypoint   | 0x0397   |
| Data Size    | 12 bytes |
| Instructions | 4        |

```
      00 01 02 03 04 05 06 07  08 09 0A 0B 0C 0D 0E 0F
      -- -- -- -- -- -- -- --  -- -- -- -- -- -- -- --
0390:                      1F  00 34 80 35 80 36 80 1F         ..4.5.6..
03A0: 01 6F 00                                          .o.             
```

#### Opcodes

```
  0: 0x0397 [0x1F] MOVE_ENTITY: EventEntity moves to X=-13.366*, Z=2.528*, Y=-0.449*
  1: 0x039F [0x1F] MOVE_ENTITY: Update entity position (mode=1)
  2: 0x03A1 [0x6F] WAIT_FRAME_DELAY: Yield until WaitTime reaches zero
  3: 0x03A2 [0x00] END_REQSTACK()
```

### Event 65535.46

#### Metadata

| Field        | Value    |
|--------------|----------|
| Entrypoint   | 0x03A3   |
| Data Size    | 16 bytes |
| Instructions | 2        |

```
      00 01 02 03 04 05 06 07  08 09 0A 0B 0C 0D 0E 0F
      -- -- -- -- -- -- -- --  -- -- -- -- -- -- -- --
03A0:          66 37 80 C0 50  0F 01 C0 50 0F 01 74 6C     f7..P...P..tl
03B0: 6B 30 00                                          k0.             
```

#### Opcodes

```
  0: 0x03A3 [0x66] LOAD_EXT_SCHEDULER_MAIN: Load scheduler "tlk0" with entities [Rakuru-Rakoru (ID: 17780928/0x010F50C0), Rakuru-Rakoru (ID: 17780928/0x010F50C0)], work=40*
  1: 0x03B2 [0x00] END_REQSTACK()
```

### Event 65535.47

#### Metadata

| Field        | Value    |
|--------------|----------|
| Entrypoint   | 0x03B3   |
| Data Size    | 16 bytes |
| Instructions | 2        |

```
      00 01 02 03 04 05 06 07  08 09 0A 0B 0C 0D 0E 0F
      -- -- -- -- -- -- -- --  -- -- -- -- -- -- -- --
03B0:          66 38 80 C0 50  0F 01 C0 50 0F 01 65 68     f8..P...P..eh
03C0: 6E 31 00                                          n1.             
```

#### Opcodes

```
  0: 0x03B3 [0x66] LOAD_EXT_SCHEDULER_MAIN: Load scheduler "ehn1" with entities [Rakuru-Rakoru (ID: 17780928/0x010F50C0), Rakuru-Rakoru (ID: 17780928/0x010F50C0)], work=41*
  1: 0x03C2 [0x00] END_REQSTACK()
```

### Event 65535.48

#### Metadata

| Field        | Value    |
|--------------|----------|
| Entrypoint   | 0x03C3   |
| Data Size    | 16 bytes |
| Instructions | 2        |

```
      00 01 02 03 04 05 06 07  08 09 0A 0B 0C 0D 0E 0F
      -- -- -- -- -- -- -- --  -- -- -- -- -- -- -- --
03C0:          66 37 80 C0 50  0F 01 C0 50 0F 01 6D 6F     f7..P...P..mo
03D0: 6A 30 00                                          j0.             
```

#### Opcodes

```
  0: 0x03C3 [0x66] LOAD_EXT_SCHEDULER_MAIN: Load scheduler "moj0" with entities [Rakuru-Rakoru (ID: 17780928/0x010F50C0), Rakuru-Rakoru (ID: 17780928/0x010F50C0)], work=40*
  1: 0x03D2 [0x00] END_REQSTACK()
```

### Event 65535.49

#### Metadata

| Field        | Value    |
|--------------|----------|
| Entrypoint   | 0x03D3   |
| Data Size    | 20 bytes |
| Instructions | 5        |

```
      00 01 02 03 04 05 06 07  08 09 0A 0B 0C 0D 0E 0F
      -- -- -- -- -- -- -- --  -- -- -- -- -- -- -- --
03D0:          59 04 C0 50 0F  01 31 80 1F 00 39 80 3A     Y..P..1...9.:
03E0: 80 17 80 1F 01 6F 00                              .....o.         
```

#### Opcodes

```
  0: 0x03D3 [0x59] UPDATE_ENTITY_DATA: Set Rakuru-Rakoru (ID: 17780928/0x010F50C0) main speed = 14* * 0.1
  1: 0x03DB [0x1F] MOVE_ENTITY: EventEntity moves to X=-71.130*, Z=-110.791*, Y=5.999*
  2: 0x03E3 [0x1F] MOVE_ENTITY: Update entity position (mode=1)
  3: 0x03E5 [0x6F] WAIT_FRAME_DELAY: Yield until WaitTime reaches zero
  4: 0x03E6 [0x00] END_REQSTACK()
```

### Event 65535.50

#### Metadata

| Field        | Value    |
|--------------|----------|
| Entrypoint   | 0x03E7   |
| Data Size    | 29 bytes |
| Instructions | 6        |

```
      00 01 02 03 04 05 06 07  08 09 0A 0B 0C 0D 0E 0F
      -- -- -- -- -- -- -- --  -- -- -- -- -- -- -- --
03E0:                      59  04 C0 50 0F 01 31 80 1F         Y..P..1..
03F0: 00 3B 80 3C 80 17 80 1F  01 5A 00 3D 80 3E 80 3F  .;.<.....Z.=.>.?
0400: 80 5A 01 00                                       .Z..            
```

#### Opcodes

```
  0: 0x03E7 [0x59] UPDATE_ENTITY_DATA: Set Rakuru-Rakoru (ID: 17780928/0x010F50C0) main speed = 14* * 0.1
  1: 0x03EF [0x1F] MOVE_ENTITY: EventEntity moves to X=-75.540*, Z=-116.545*, Y=5.999*
  2: 0x03F7 [0x1F] MOVE_ENTITY: Update entity position (mode=1)
  3: 0x03F9 [0x5A] UPDATE_EVENT_POSITION: Set EventEntity MovePosition to X=-80.452*, Z=-125.376*, Y=0.999*
  4: 0x0401 [0x5A] UPDATE_EVENT_POSITION: Move EventEntity incrementally towards MovePosition
  5: 0x0403 [0x00] END_REQSTACK()
```

### Event 65535.51

#### Metadata

| Field        | Value    |
|--------------|----------|
| Entrypoint   | 0x0404   |
| Data Size    | 17 bytes |
| Instructions | 2        |

```
      00 01 02 03 04 05 06 07  08 09 0A 0B 0C 0D 0E 0F
      -- -- -- -- -- -- -- --  -- -- -- -- -- -- -- --
0400:             5B 40 80 C0  50 0F 01 C0 50 0F 01 62      [@..P...P..b
0410: 6F 70 30 00 00                                    op0..           
```

#### Opcodes

```
  0: 0x0404 [0x5B] LOAD_EXT_SCHEDULER: Load scheduler "bop0" with entities [Rakuru-Rakoru (ID: 17780928/0x010F50C0), Rakuru-Rakoru (ID: 17780928/0x010F50C0)], work=2611*
  1: 0x0413 [0x00] END_REQSTACK()
```

#### Data or dead code:

```
# Dead code (unreachable instructions):
     0x0414 [0x00] END_REQSTACK()
```

### Event 65535.52

#### Metadata

| Field        | Value    |
|--------------|----------|
| Entrypoint   | 0x0415   |
| Data Size    | 20 bytes |
| Instructions | 5        |

```
      00 01 02 03 04 05 06 07  08 09 0A 0B 0C 0D 0E 0F
      -- -- -- -- -- -- -- --  -- -- -- -- -- -- -- --
0410:                59 04 25  50 0F 01 41 80 1F 00 19       Y.%P..A....
0420: 80 1A 80 11 80 1F 01 6F  00                       .......o.       
```

#### Opcodes

```
  0: 0x0415 [0x59] UPDATE_ENTITY_DATA: Set Sutarara (ID: 17780773/0x010F5025) main speed = 13* * 0.1
  1: 0x041D [0x1F] MOVE_ENTITY: EventEntity moves to X=-83.944*, Z=-128.625*, Y=0.000*
  2: 0x0425 [0x1F] MOVE_ENTITY: Update entity position (mode=1)
  3: 0x0427 [0x6F] WAIT_FRAME_DELAY: Yield until WaitTime reaches zero
  4: 0x0428 [0x00] END_REQSTACK()
```

### Event 65535.53

#### Metadata

| Field        | Value    |
|--------------|----------|
| Entrypoint   | 0x0429   |
| Data Size    | 20 bytes |
| Instructions | 5        |

```
      00 01 02 03 04 05 06 07  08 09 0A 0B 0C 0D 0E 0F
      -- -- -- -- -- -- -- --  -- -- -- -- -- -- -- --
0420:                             59 04 25 50 0F 01 41           Y.%P..A
0430: 80 1F 00 42 80 43 80 17  80 1F 01 6F 00           ...B.C.....o.   
```

#### Opcodes

```
  0: 0x0429 [0x59] UPDATE_ENTITY_DATA: Set Sutarara (ID: 17780773/0x010F5025) main speed = 13* * 0.1
  1: 0x0431 [0x1F] MOVE_ENTITY: EventEntity moves to X=-64.287*, Z=-102.136*, Y=5.999*
  2: 0x0439 [0x1F] MOVE_ENTITY: Update entity position (mode=1)
  3: 0x043B [0x6F] WAIT_FRAME_DELAY: Yield until WaitTime reaches zero
  4: 0x043C [0x00] END_REQSTACK()
```

### Event 65535.54

#### Metadata

| Field        | Value    |
|--------------|----------|
| Entrypoint   | 0x043D   |
| Data Size    | 20 bytes |
| Instructions | 5        |

```
      00 01 02 03 04 05 06 07  08 09 0A 0B 0C 0D 0E 0F
      -- -- -- -- -- -- -- --  -- -- -- -- -- -- -- --
0430:                                         59 04 25               Y.%
0440: 50 0F 01 41 80 1F 00 44  80 45 80 11 80 1F 01 6F  P..A...D.E.....o
0450: 00                                                .               
```

#### Opcodes

```
  0: 0x043D [0x59] UPDATE_ENTITY_DATA: Set Sutarara (ID: 17780773/0x010F5025) main speed = 13* * 0.1
  1: 0x0445 [0x1F] MOVE_ENTITY: EventEntity moves to X=4.236*, Z=4.336*, Y=0.000*
  2: 0x044D [0x1F] MOVE_ENTITY: Update entity position (mode=1)
  3: 0x044F [0x6F] WAIT_FRAME_DELAY: Yield until WaitTime reaches zero
  4: 0x0450 [0x00] END_REQSTACK()
```

### Event 65535.55

#### Metadata

| Field        | Value    |
|--------------|----------|
| Entrypoint   | 0x0451   |
| Data Size    | 20 bytes |
| Instructions | 5        |

```
      00 01 02 03 04 05 06 07  08 09 0A 0B 0C 0D 0E 0F
      -- -- -- -- -- -- -- --  -- -- -- -- -- -- -- --
0450:    59 04 34 50 0F 01 0E  80 1F 00 46 80 47 80 48   Y.4P......F.G.H
0460: 80 1F 01 6F 00                                    ...o.           
```

#### Opcodes

```
  0: 0x0451 [0x59] UPDATE_ENTITY_DATA: Set Venika (ID: 17780788/0x010F5034) main speed = 12* * 0.1
  1: 0x0459 [0x1F] MOVE_ENTITY: EventEntity moves to X=-15.376*, Z=-23.775*, Y=-0.101*
  2: 0x0461 [0x1F] MOVE_ENTITY: Update entity position (mode=1)
  3: 0x0463 [0x6F] WAIT_FRAME_DELAY: Yield until WaitTime reaches zero
  4: 0x0464 [0x00] END_REQSTACK()
```

### Event 65535.56

#### Metadata

| Field        | Value    |
|--------------|----------|
| Entrypoint   | 0x0465   |
| Data Size    | 20 bytes |
| Instructions | 5        |

```
      00 01 02 03 04 05 06 07  08 09 0A 0B 0C 0D 0E 0F
      -- -- -- -- -- -- -- --  -- -- -- -- -- -- -- --
0460:                59 04 34  50 0F 01 49 80 1F 00 42       Y.4P..I...B
0470: 80 43 80 17 80 1F 01 6F  00                       .C.....o.       
```

#### Opcodes

```
  0: 0x0465 [0x59] UPDATE_ENTITY_DATA: Set Venika (ID: 17780788/0x010F5034) main speed = 10* * 0.1
  1: 0x046D [0x1F] MOVE_ENTITY: EventEntity moves to X=-64.287*, Z=-102.136*, Y=5.999*
  2: 0x0475 [0x1F] MOVE_ENTITY: Update entity position (mode=1)
  3: 0x0477 [0x6F] WAIT_FRAME_DELAY: Yield until WaitTime reaches zero
  4: 0x0478 [0x00] END_REQSTACK()
```

### Event 65535.57

#### Metadata

| Field        | Value    |
|--------------|----------|
| Entrypoint   | 0x0479   |
| Data Size    | 16 bytes |
| Instructions | 2        |

```
      00 01 02 03 04 05 06 07  08 09 0A 0B 0C 0D 0E 0F
      -- -- -- -- -- -- -- --  -- -- -- -- -- -- -- --
0470:                             5B 4A 80 34 50 0F 01           [J.4P..
0480: 34 50 0F 01 6F 70 62 30  00                       4P..opb0.       
```

#### Opcodes

```
  0: 0x0479 [0x5B] LOAD_EXT_SCHEDULER: Load scheduler "opb0" with entities [Venika (ID: 17780788/0x010F5034), Venika (ID: 17780788/0x010F5034)], work=2584*
  1: 0x0488 [0x00] END_REQSTACK()
```

### Event 65535.58

#### Metadata

| Field        | Value    |
|--------------|----------|
| Entrypoint   | 0x0489   |
| Data Size    | 16 bytes |
| Instructions | 2        |

```
      00 01 02 03 04 05 06 07  08 09 0A 0B 0C 0D 0E 0F
      -- -- -- -- -- -- -- --  -- -- -- -- -- -- -- --
0480:                             5B 4A 80 34 50 0F 01           [J.4P..
0490: 34 50 0F 01 6F 70 62 31  00                       4P..opb1.       
```

#### Opcodes

```
  0: 0x0489 [0x5B] LOAD_EXT_SCHEDULER: Load scheduler "opb1" with entities [Venika (ID: 17780788/0x010F5034), Venika (ID: 17780788/0x010F5034)], work=2584*
  1: 0x0498 [0x00] END_REQSTACK()
```

### Event 65535.59

#### Metadata

| Field        | Value    |
|--------------|----------|
| Entrypoint   | 0x0499   |
| Data Size    | 20 bytes |
| Instructions | 5        |

```
      00 01 02 03 04 05 06 07  08 09 0A 0B 0C 0D 0E 0F
      -- -- -- -- -- -- -- --  -- -- -- -- -- -- -- --
0490:                             59 04 34 50 0F 01 0E           Y.4P...
04A0: 80 1F 00 4B 80 4C 80 11  80 1F 01 6F 00           ...K.L.....o.   
```

#### Opcodes

```
  0: 0x0499 [0x59] UPDATE_ENTITY_DATA: Set Venika (ID: 17780788/0x010F5034) main speed = 12* * 0.1
  1: 0x04A1 [0x1F] MOVE_ENTITY: EventEntity moves to X=-0.991*, Z=2.123*, Y=0.000*
  2: 0x04A9 [0x1F] MOVE_ENTITY: Update entity position (mode=1)
  3: 0x04AB [0x6F] WAIT_FRAME_DELAY: Yield until WaitTime reaches zero
  4: 0x04AC [0x00] END_REQSTACK()
```

### Event 65535.60

#### Metadata

| Field        | Value    |
|--------------|----------|
| Entrypoint   | 0x04AD   |
| Data Size    | 16 bytes |
| Instructions | 2        |

```
      00 01 02 03 04 05 06 07  08 09 0A 0B 0C 0D 0E 0F
      -- -- -- -- -- -- -- --  -- -- -- -- -- -- -- --
04A0:                                         5B 4A 80               [J.
04B0: 34 50 0F 01 34 50 0F 01  6F 70 63 30 00           4P..4P..opc0.   
```

#### Opcodes

```
  0: 0x04AD [0x5B] LOAD_EXT_SCHEDULER: Load scheduler "opc0" with entities [Venika (ID: 17780788/0x010F5034), Venika (ID: 17780788/0x010F5034)], work=2584*
  1: 0x04BC [0x00] END_REQSTACK()
```

### Event 65535.61

#### Metadata

| Field        | Value    |
|--------------|----------|
| Entrypoint   | 0x04BD   |
| Data Size    | 16 bytes |
| Instructions | 2        |

```
      00 01 02 03 04 05 06 07  08 09 0A 0B 0C 0D 0E 0F
      -- -- -- -- -- -- -- --  -- -- -- -- -- -- -- --
04B0:                                         5B 4A 80               [J.
04C0: 34 50 0F 01 34 50 0F 01  6F 70 63 31 00           4P..4P..opc1.   
```

#### Opcodes

```
  0: 0x04BD [0x5B] LOAD_EXT_SCHEDULER: Load scheduler "opc1" with entities [Venika (ID: 17780788/0x010F5034), Venika (ID: 17780788/0x010F5034)], work=2584*
  1: 0x04CC [0x00] END_REQSTACK()
```

### Event 65535.62

#### Metadata

| Field        | Value    |
|--------------|----------|
| Entrypoint   | 0x04CD   |
| Data Size    | 16 bytes |
| Instructions | 2        |

```
      00 01 02 03 04 05 06 07  08 09 0A 0B 0C 0D 0E 0F
      -- -- -- -- -- -- -- --  -- -- -- -- -- -- -- --
04C0:                                         66 4D 80               fM.
04D0: 36 50 0F 01 36 50 0F 01  61 77 77 30 00           6P..6P..aww0.   
```

#### Opcodes

```
  0: 0x04CD [0x66] LOAD_EXT_SCHEDULER_MAIN: Load scheduler "aww0" with entities [Kuah Dakonsa (ID: 17780790/0x010F5036), Kuah Dakonsa (ID: 17780790/0x010F5036)], work=8*
  1: 0x04DC [0x00] END_REQSTACK()
```

### Event 65535.63

#### Metadata

| Field        | Value    |
|--------------|----------|
| Entrypoint   | 0x04DD   |
| Data Size    | 16 bytes |
| Instructions | 2        |

```
      00 01 02 03 04 05 06 07  08 09 0A 0B 0C 0D 0E 0F
      -- -- -- -- -- -- -- --  -- -- -- -- -- -- -- --
04D0:                                         66 4E 80               fN.
04E0: 36 50 0F 01 36 50 0F 01  74 68 6B 31 00           6P..6P..thk1.   
```

#### Opcodes

```
  0: 0x04DD [0x66] LOAD_EXT_SCHEDULER_MAIN: Load scheduler "thk1" with entities [Kuah Dakonsa (ID: 17780790/0x010F5036), Kuah Dakonsa (ID: 17780790/0x010F5036)], work=51*
  1: 0x04EC [0x00] END_REQSTACK()
```

### Event 65535.64

#### Metadata

| Field        | Value    |
|--------------|----------|
| Entrypoint   | 0x04ED   |
| Data Size    | 21 bytes |
| Instructions | 5        |

```
      00 01 02 03 04 05 06 07  08 09 0A 0B 0C 0D 0E 0F
      -- -- -- -- -- -- -- --  -- -- -- -- -- -- -- --
04E0:                                         59 04 32               Y.2
04F0: 50 0F 01 0E 80 1F 00 4F  80 50 80 17 80 1F 01 6F  P......O.P.....o
0500: 00 00                                             ..              
```

#### Opcodes

```
  0: 0x04ED [0x59] UPDATE_ENTITY_DATA: Set Gurdern (ID: 17780786/0x010F5032) main speed = 12* * 0.1
  1: 0x04F5 [0x1F] MOVE_ENTITY: EventEntity moves to X=-61.958*, Z=-103.267*, Y=5.999*
  2: 0x04FD [0x1F] MOVE_ENTITY: Update entity position (mode=1)
  3: 0x04FF [0x6F] WAIT_FRAME_DELAY: Yield until WaitTime reaches zero
  4: 0x0500 [0x00] END_REQSTACK()
```

#### Data or dead code:

```
# Dead code (unreachable instructions):
     0x0501 [0x00] END_REQSTACK()
```

### Event 65535.65

#### Metadata

| Field        | Value    |
|--------------|----------|
| Entrypoint   | 0x0502   |
| Data Size    | 20 bytes |
| Instructions | 5        |

```
      00 01 02 03 04 05 06 07  08 09 0A 0B 0C 0D 0E 0F
      -- -- -- -- -- -- -- --  -- -- -- -- -- -- -- --
0500:       59 04 32 50 0F 01  0E 80 1F 00 51 80 52 80    Y.2P......Q.R.
0510: 17 80 1F 01 6F 00                                 ....o.          
```

#### Opcodes

```
  0: 0x0502 [0x59] UPDATE_ENTITY_DATA: Set Gurdern (ID: 17780786/0x010F5032) main speed = 12* * 0.1
  1: 0x050A [0x1F] MOVE_ENTITY: EventEntity moves to X=-66.589*, Z=-92.299*, Y=5.999*
  2: 0x0512 [0x1F] MOVE_ENTITY: Update entity position (mode=1)
  3: 0x0514 [0x6F] WAIT_FRAME_DELAY: Yield until WaitTime reaches zero
  4: 0x0515 [0x00] END_REQSTACK()
```

### Event 65535.66

#### Metadata

| Field        | Value    |
|--------------|----------|
| Entrypoint   | 0x0516   |
| Data Size    | 20 bytes |
| Instructions | 5        |

```
      00 01 02 03 04 05 06 07  08 09 0A 0B 0C 0D 0E 0F
      -- -- -- -- -- -- -- --  -- -- -- -- -- -- -- --
0510:                   59 04  32 50 0F 01 0E 80 1F 00        Y.2P......
0520: 53 80 54 80 17 80 1F 01  6F 00                    S.T.....o.      
```

#### Opcodes

```
  0: 0x0516 [0x59] UPDATE_ENTITY_DATA: Set Gurdern (ID: 17780786/0x010F5032) main speed = 12* * 0.1
  1: 0x051E [0x1F] MOVE_ENTITY: EventEntity moves to X=-58.931*, Z=-86.942*, Y=5.999*
  2: 0x0526 [0x1F] MOVE_ENTITY: Update entity position (mode=1)
  3: 0x0528 [0x6F] WAIT_FRAME_DELAY: Yield until WaitTime reaches zero
  4: 0x0529 [0x00] END_REQSTACK()
```

### Event 65535.67

#### Metadata

| Field        | Value    |
|--------------|----------|
| Entrypoint   | 0x052A   |
| Data Size    | 17 bytes |
| Instructions | 2        |

```
      00 01 02 03 04 05 06 07  08 09 0A 0B 0C 0D 0E 0F
      -- -- -- -- -- -- -- --  -- -- -- -- -- -- -- --
0520:                                5B 26 80 32 50 0F            [&.2P.
0530: 01 32 50 0F 01 6F 70 30  30 00 00                 .2P..op00..     
```

#### Opcodes

```
  0: 0x052A [0x5B] LOAD_EXT_SCHEDULER: Load scheduler "op00" with entities [Gurdern (ID: 17780786/0x010F5032), Gurdern (ID: 17780786/0x010F5032)], work=2621*
  1: 0x0539 [0x00] END_REQSTACK()
```

#### Data or dead code:

```
# Dead code (unreachable instructions):
     0x053A [0x00] END_REQSTACK()
```

### Event 65535.68

#### Metadata

| Field        | Value    |
|--------------|----------|
| Entrypoint   | 0x053B   |
| Data Size    | 20 bytes |
| Instructions | 5        |

```
      00 01 02 03 04 05 06 07  08 09 0A 0B 0C 0D 0E 0F
      -- -- -- -- -- -- -- --  -- -- -- -- -- -- -- --
0530:                                   59 04 1C 50 0F             Y..P.
0540: 01 12 80 1F 00 13 80 14  80 11 80 1F 01 6F 00     .............o. 
```

#### Opcodes

```
  0: 0x053B [0x59] UPDATE_ENTITY_DATA: Set Mertaire (ID: 17780764/0x010F501C) main speed = 11* * 0.1
  1: 0x0543 [0x1F] MOVE_ENTITY: EventEntity moves to X=-95.337*, Z=-156.056*, Y=0.000*
  2: 0x054B [0x1F] MOVE_ENTITY: Update entity position (mode=1)
  3: 0x054D [0x6F] WAIT_FRAME_DELAY: Yield until WaitTime reaches zero
  4: 0x054E [0x00] END_REQSTACK()
```

### Event 65535.69

#### Metadata

| Field        | Value    |
|--------------|----------|
| Entrypoint   | 0x054F   |
| Data Size    | 20 bytes |
| Instructions | 5        |

```
      00 01 02 03 04 05 06 07  08 09 0A 0B 0C 0D 0E 0F
      -- -- -- -- -- -- -- --  -- -- -- -- -- -- -- --
0540:                                               59                 Y
0550: 04 1C 50 0F 01 12 80 1F  00 55 80 56 80 57 80 1F  ..P......U.V.W..
0560: 01 6F 00                                          .o.             
```

#### Opcodes

```
  0: 0x054F [0x59] UPDATE_ENTITY_DATA: Set Mertaire (ID: 17780764/0x010F501C) main speed = 11* * 0.1
  1: 0x0557 [0x1F] MOVE_ENTITY: EventEntity moves to X=-78.197*, Z=-116.328*, Y=3.999*
  2: 0x055F [0x1F] MOVE_ENTITY: Update entity position (mode=1)
  3: 0x0561 [0x6F] WAIT_FRAME_DELAY: Yield until WaitTime reaches zero
  4: 0x0562 [0x00] END_REQSTACK()
```

### Event 65535.70

#### Metadata

| Field        | Value    |
|--------------|----------|
| Entrypoint   | 0x0563   |
| Data Size    | 16 bytes |
| Instructions | 2        |

```
      00 01 02 03 04 05 06 07  08 09 0A 0B 0C 0D 0E 0F
      -- -- -- -- -- -- -- --  -- -- -- -- -- -- -- --
0560:          5B 58 80 1C 50  0F 01 1C 50 0F 01 6F 70     [X..P...P..op
0570: 63 30 00                                          c0.             
```

#### Opcodes

```
  0: 0x0563 [0x5B] LOAD_EXT_SCHEDULER: Load scheduler "opc0" with entities [Mertaire (ID: 17780764/0x010F501C), Mertaire (ID: 17780764/0x010F501C)], work=2583*
  1: 0x0572 [0x00] END_REQSTACK()
```

### Event 65535.71

#### Metadata

| Field        | Value    |
|--------------|----------|
| Entrypoint   | 0x0573   |
| Data Size    | 16 bytes |
| Instructions | 2        |

```
      00 01 02 03 04 05 06 07  08 09 0A 0B 0C 0D 0E 0F
      -- -- -- -- -- -- -- --  -- -- -- -- -- -- -- --
0570:          5B 58 80 1C 50  0F 01 1C 50 0F 01 6F 70     [X..P...P..op
0580: 63 31 00                                          c1.             
```

#### Opcodes

```
  0: 0x0573 [0x5B] LOAD_EXT_SCHEDULER: Load scheduler "opc1" with entities [Mertaire (ID: 17780764/0x010F501C), Mertaire (ID: 17780764/0x010F501C)], work=2583*
  1: 0x0582 [0x00] END_REQSTACK()
```

### Event 65535.72

#### Metadata

| Field        | Value    |
|--------------|----------|
| Entrypoint   | 0x0583   |
| Data Size    | 21 bytes |
| Instructions | 5        |

```
      00 01 02 03 04 05 06 07  08 09 0A 0B 0C 0D 0E 0F
      -- -- -- -- -- -- -- --  -- -- -- -- -- -- -- --
0580:          59 04 1C 50 0F  01 12 80 1F 00 59 80 5A     Y..P......Y.Z
0590: 80 11 80 1F 01 6F 00 00                           .....o..        
```

#### Opcodes

```
  0: 0x0583 [0x59] UPDATE_ENTITY_DATA: Set Mertaire (ID: 17780764/0x010F501C) main speed = 11* * 0.1
  1: 0x058B [0x1F] MOVE_ENTITY: EventEntity moves to X=-9.883*, Z=-9.826*, Y=0.000*
  2: 0x0593 [0x1F] MOVE_ENTITY: Update entity position (mode=1)
  3: 0x0595 [0x6F] WAIT_FRAME_DELAY: Yield until WaitTime reaches zero
  4: 0x0596 [0x00] END_REQSTACK()
```

#### Data or dead code:

```
# Dead code (unreachable instructions):
     0x0597 [0x00] END_REQSTACK()
```

### Event 65535.73

#### Metadata

| Field        | Value    |
|--------------|----------|
| Entrypoint   | 0x0598   |
| Data Size    | 20 bytes |
| Instructions | 5        |

```
      00 01 02 03 04 05 06 07  08 09 0A 0B 0C 0D 0E 0F
      -- -- -- -- -- -- -- --  -- -- -- -- -- -- -- --
0590:                          59 04 1E 50 0F 01 5B 80          Y..P..[.
05A0: 1F 00 2B 80 2C 80 17 80  1F 01 6F 00              ..+.,.....o.    
```

#### Opcodes

```
  0: 0x0598 [0x59] UPDATE_ENTITY_DATA: Set Bki Tbujhja (ID: 17780766/0x010F501E) main speed = 9* * 0.1
  1: 0x05A0 [0x1F] MOVE_ENTITY: EventEntity moves to X=-74.699*, Z=-107.115*, Y=5.999*
  2: 0x05A8 [0x1F] MOVE_ENTITY: Update entity position (mode=1)
  3: 0x05AA [0x6F] WAIT_FRAME_DELAY: Yield until WaitTime reaches zero
  4: 0x05AB [0x00] END_REQSTACK()
```

### Event 65535.74

#### Metadata

| Field        | Value    |
|--------------|----------|
| Entrypoint   | 0x05AC   |
| Data Size    | 20 bytes |
| Instructions | 5        |

```
      00 01 02 03 04 05 06 07  08 09 0A 0B 0C 0D 0E 0F
      -- -- -- -- -- -- -- --  -- -- -- -- -- -- -- --
05A0:                                      59 04 1E 50              Y..P
05B0: 0F 01 12 80 1F 00 5C 80  5D 80 17 80 1F 01 6F 00  ......\.].....o.
```

#### Opcodes

```
  0: 0x05AC [0x59] UPDATE_ENTITY_DATA: Set Bki Tbujhja (ID: 17780766/0x010F501E) main speed = 11* * 0.1
  1: 0x05B4 [0x1F] MOVE_ENTITY: EventEntity moves to X=-72.052*, Z=-102.467*, Y=5.999*
  2: 0x05BC [0x1F] MOVE_ENTITY: Update entity position (mode=1)
  3: 0x05BE [0x6F] WAIT_FRAME_DELAY: Yield until WaitTime reaches zero
  4: 0x05BF [0x00] END_REQSTACK()
```

### Event 65535.75

#### Metadata

| Field        | Value    |
|--------------|----------|
| Entrypoint   | 0x05C0   |
| Data Size    | 16 bytes |
| Instructions | 2        |

```
      00 01 02 03 04 05 06 07  08 09 0A 0B 0C 0D 0E 0F
      -- -- -- -- -- -- -- --  -- -- -- -- -- -- -- --
05C0: 66 4D 80 1E 50 0F 01 1E  50 0F 01 61 77 77 30 00  fM..P...P..aww0.
```

#### Opcodes

```
  0: 0x05C0 [0x66] LOAD_EXT_SCHEDULER_MAIN: Load scheduler "aww0" with entities [Bki Tbujhja (ID: 17780766/0x010F501E), Bki Tbujhja (ID: 17780766/0x010F501E)], work=8*
  1: 0x05CF [0x00] END_REQSTACK()
```

### Event 65535.76

#### Metadata

| Field        | Value    |
|--------------|----------|
| Entrypoint   | 0x05D0   |
| Data Size    | 20 bytes |
| Instructions | 5        |

```
      00 01 02 03 04 05 06 07  08 09 0A 0B 0C 0D 0E 0F
      -- -- -- -- -- -- -- --  -- -- -- -- -- -- -- --
05D0: 59 04 1E 50 0F 01 5B 80  1F 00 5E 80 5F 80 11 80  Y..P..[...^._...
05E0: 1F 01 6F 00                                       ..o.            
```

#### Opcodes

```
  0: 0x05D0 [0x59] UPDATE_ENTITY_DATA: Set Bki Tbujhja (ID: 17780766/0x010F501E) main speed = 9* * 0.1
  1: 0x05D8 [0x1F] MOVE_ENTITY: EventEntity moves to X=-5.853*, Z=-5.190*, Y=0.000*
  2: 0x05E0 [0x1F] MOVE_ENTITY: Update entity position (mode=1)
  3: 0x05E2 [0x6F] WAIT_FRAME_DELAY: Yield until WaitTime reaches zero
  4: 0x05E3 [0x00] END_REQSTACK()
```

### Event 65535.77

#### Metadata

| Field        | Value    |
|--------------|----------|
| Entrypoint   | 0x05E4   |
| Data Size    | 21 bytes |
| Instructions | 5        |

```
      00 01 02 03 04 05 06 07  08 09 0A 0B 0C 0D 0E 0F
      -- -- -- -- -- -- -- --  -- -- -- -- -- -- -- --
05E0:             59 04 1E 50  0F 01 12 80 1F 00 53 80      Y..P......S.
05F0: 54 80 17 80 1F 01 6F 00  00                       T.....o..       
```

#### Opcodes

```
  0: 0x05E4 [0x59] UPDATE_ENTITY_DATA: Set Bki Tbujhja (ID: 17780766/0x010F501E) main speed = 11* * 0.1
  1: 0x05EC [0x1F] MOVE_ENTITY: EventEntity moves to X=-58.931*, Z=-86.942*, Y=5.999*
  2: 0x05F4 [0x1F] MOVE_ENTITY: Update entity position (mode=1)
  3: 0x05F6 [0x6F] WAIT_FRAME_DELAY: Yield until WaitTime reaches zero
  4: 0x05F7 [0x00] END_REQSTACK()
```

#### Data or dead code:

```
# Dead code (unreachable instructions):
     0x05F8 [0x00] END_REQSTACK()
```

### Event 65535.78

#### Metadata

| Field        | Value    |
|--------------|----------|
| Entrypoint   | 0x05F9   |
| Data Size    | 20 bytes |
| Instructions | 5        |

```
      00 01 02 03 04 05 06 07  08 09 0A 0B 0C 0D 0E 0F
      -- -- -- -- -- -- -- --  -- -- -- -- -- -- -- --
05F0:                             59 04 27 50 0F 01 0E           Y.'P...
0600: 80 1F 00 60 80 61 80 62  80 1F 01 6F 00           ...`.a.b...o.   
```

#### Opcodes

```
  0: 0x05F9 [0x59] UPDATE_ENTITY_DATA: Set Danzhor (ID: 17780775/0x010F5027) main speed = 12* * 0.1
  1: 0x0601 [0x1F] MOVE_ENTITY: EventEntity moves to X=-45.210*, Z=-89.196*, Y=-5.999*
  2: 0x0609 [0x1F] MOVE_ENTITY: Update entity position (mode=1)
  3: 0x060B [0x6F] WAIT_FRAME_DELAY: Yield until WaitTime reaches zero
  4: 0x060C [0x00] END_REQSTACK()
```

### Event 65535.79

#### Metadata

| Field        | Value    |
|--------------|----------|
| Entrypoint   | 0x060D   |
| Data Size    | 12 bytes |
| Instructions | 4        |

```
      00 01 02 03 04 05 06 07  08 09 0A 0B 0C 0D 0E 0F
      -- -- -- -- -- -- -- --  -- -- -- -- -- -- -- --
0600:                                         1F 00 63               ..c
0610: 80 64 80 11 80 1F 01 6F  00                       .d.....o.       
```

#### Opcodes

```
  0: 0x060D [0x1F] MOVE_ENTITY: EventEntity moves to X=-18.343*, Z=-8.286*, Y=0.000*
  1: 0x0615 [0x1F] MOVE_ENTITY: Update entity position (mode=1)
  2: 0x0617 [0x6F] WAIT_FRAME_DELAY: Yield until WaitTime reaches zero
  3: 0x0618 [0x00] END_REQSTACK()
```

### Event 65535.80

#### Metadata

| Field        | Value    |
|--------------|----------|
| Entrypoint   | 0x0619   |
| Data Size    | 16 bytes |
| Instructions | 2        |

```
      00 01 02 03 04 05 06 07  08 09 0A 0B 0C 0D 0E 0F
      -- -- -- -- -- -- -- --  -- -- -- -- -- -- -- --
0610:                             66 23 80 27 50 0F 01           f#.'P..
0620: 27 50 0F 01 74 68 6B 31  00                       'P..thk1.       
```

#### Opcodes

```
  0: 0x0619 [0x66] LOAD_EXT_SCHEDULER_MAIN: Load scheduler "thk1" with entities [Danzhor (ID: 17780775/0x010F5027), Danzhor (ID: 17780775/0x010F5027)], work=69*
  1: 0x0628 [0x00] END_REQSTACK()
```

### Event 65535.81

#### Metadata

| Field        | Value    |
|--------------|----------|
| Entrypoint   | 0x0629   |
| Data Size    | 16 bytes |
| Instructions | 2        |

```
      00 01 02 03 04 05 06 07  08 09 0A 0B 0C 0D 0E 0F
      -- -- -- -- -- -- -- --  -- -- -- -- -- -- -- --
0620:                             66 23 80 27 50 0F 01           f#.'P..
0630: 27 50 0F 01 74 68 6B 32  00                       'P..thk2.       
```

#### Opcodes

```
  0: 0x0629 [0x66] LOAD_EXT_SCHEDULER_MAIN: Load scheduler "thk2" with entities [Danzhor (ID: 17780775/0x010F5027), Danzhor (ID: 17780775/0x010F5027)], work=69*
  1: 0x0638 [0x00] END_REQSTACK()
```

### Event 65535.82

#### Metadata

| Field        | Value    |
|--------------|----------|
| Entrypoint   | 0x0639   |
| Data Size    | 20 bytes |
| Instructions | 5        |

```
      00 01 02 03 04 05 06 07  08 09 0A 0B 0C 0D 0E 0F
      -- -- -- -- -- -- -- --  -- -- -- -- -- -- -- --
0630:                             59 04 27 50 0F 01 0E           Y.'P...
0640: 80 1F 00 65 80 66 80 11  80 1F 01 6F 00           ...e.f.....o.   
```

#### Opcodes

```
  0: 0x0639 [0x59] UPDATE_ENTITY_DATA: Set Danzhor (ID: 17780775/0x010F5027) main speed = 12* * 0.1
  1: 0x0641 [0x1F] MOVE_ENTITY: EventEntity moves to X=-17.939*, Z=-16.579*, Y=0.000*
  2: 0x0649 [0x1F] MOVE_ENTITY: Update entity position (mode=1)
  3: 0x064B [0x6F] WAIT_FRAME_DELAY: Yield until WaitTime reaches zero
  4: 0x064C [0x00] END_REQSTACK()
```

### Event 65535.83

#### Metadata

| Field        | Value    |
|--------------|----------|
| Entrypoint   | 0x064D   |
| Data Size    | 20 bytes |
| Instructions | 5        |

```
      00 01 02 03 04 05 06 07  08 09 0A 0B 0C 0D 0E 0F
      -- -- -- -- -- -- -- --  -- -- -- -- -- -- -- --
0640:                                         59 04 27               Y.'
0650: 50 0F 01 0E 80 1F 00 67  80 68 80 11 80 1F 01 6F  P......g.h.....o
0660: 00                                                .               
```

#### Opcodes

```
  0: 0x064D [0x59] UPDATE_ENTITY_DATA: Set Danzhor (ID: 17780775/0x010F5027) main speed = 12* * 0.1
  1: 0x0655 [0x1F] MOVE_ENTITY: EventEntity moves to X=-3.065*, Z=-7.931*, Y=0.000*
  2: 0x065D [0x1F] MOVE_ENTITY: Update entity position (mode=1)
  3: 0x065F [0x6F] WAIT_FRAME_DELAY: Yield until WaitTime reaches zero
  4: 0x0660 [0x00] END_REQSTACK()
```

### Event 65535.84

#### Metadata

| Field        | Value    |
|--------------|----------|
| Entrypoint   | 0x0661   |
| Data Size    | 17 bytes |
| Instructions | 2        |

```
      00 01 02 03 04 05 06 07  08 09 0A 0B 0C 0D 0E 0F
      -- -- -- -- -- -- -- --  -- -- -- -- -- -- -- --
0660:    66 38 80 30 50 0F 01  30 50 0F 01 73 68 6B 30   f8.0P..0P..shk0
0670: 00 00                                             ..              
```

#### Opcodes

```
  0: 0x0661 [0x66] LOAD_EXT_SCHEDULER_MAIN: Load scheduler "shk0" with entities [Kikilolo (ID: 17780784/0x010F5030), Kikilolo (ID: 17780784/0x010F5030)], work=41*
  1: 0x0670 [0x00] END_REQSTACK()
```

#### Data or dead code:

```
# Dead code (unreachable instructions):
     0x0671 [0x00] END_REQSTACK()
```

### Event 65535.85

#### Metadata

| Field        | Value    |
|--------------|----------|
| Entrypoint   | 0x0672   |
| Data Size    | 16 bytes |
| Instructions | 2        |

```
      00 01 02 03 04 05 06 07  08 09 0A 0B 0C 0D 0E 0F
      -- -- -- -- -- -- -- --  -- -- -- -- -- -- -- --
0670:       5B 09 80 39 50 0F  01 39 50 0F 01 74 6C 6B    [..9P..9P..tlk
0680: 30 00                                             0.              
```

#### Opcodes

```
  0: 0x0672 [0x5B] LOAD_EXT_SCHEDULER: Load scheduler "tlk0" with entities [Momiji (ID: 17780793/0x010F5039), Momiji (ID: 17780793/0x010F5039)], work=60*
  1: 0x0681 [0x00] END_REQSTACK()
```

### Event 65535.86

#### Metadata

| Field        | Value    |
|--------------|----------|
| Entrypoint   | 0x0682   |
| Data Size    | 16 bytes |
| Instructions | 2        |

```
      00 01 02 03 04 05 06 07  08 09 0A 0B 0C 0D 0E 0F
      -- -- -- -- -- -- -- --  -- -- -- -- -- -- -- --
0680:       5B 09 80 39 50 0F  01 39 50 0F 01 74 6C 6B    [..9P..9P..tlk
0690: 31 00                                             1.              
```

#### Opcodes

```
  0: 0x0682 [0x5B] LOAD_EXT_SCHEDULER: Load scheduler "tlk1" with entities [Momiji (ID: 17780793/0x010F5039), Momiji (ID: 17780793/0x010F5039)], work=60*
  1: 0x0691 [0x00] END_REQSTACK()
```

### Event 65535.87

#### Metadata

| Field        | Value    |
|--------------|----------|
| Entrypoint   | 0x0692   |
| Data Size    | 16 bytes |
| Instructions | 2        |

```
      00 01 02 03 04 05 06 07  08 09 0A 0B 0C 0D 0E 0F
      -- -- -- -- -- -- -- --  -- -- -- -- -- -- -- --
0690:       5B 09 80 39 50 0F  01 39 50 0F 01 74 68 6B    [..9P..9P..thk
06A0: 31 00                                             1.              
```

#### Opcodes

```
  0: 0x0692 [0x5B] LOAD_EXT_SCHEDULER: Load scheduler "thk1" with entities [Momiji (ID: 17780793/0x010F5039), Momiji (ID: 17780793/0x010F5039)], work=60*
  1: 0x06A1 [0x00] END_REQSTACK()
```

### Event 65535.88

#### Metadata

| Field        | Value    |
|--------------|----------|
| Entrypoint   | 0x06A2   |
| Data Size    | 16 bytes |
| Instructions | 2        |

```
      00 01 02 03 04 05 06 07  08 09 0A 0B 0C 0D 0E 0F
      -- -- -- -- -- -- -- --  -- -- -- -- -- -- -- --
06A0:       5B 09 80 39 50 0F  01 39 50 0F 01 74 68 6B    [..9P..9P..thk
06B0: 32 00                                             2.              
```

#### Opcodes

```
  0: 0x06A2 [0x5B] LOAD_EXT_SCHEDULER: Load scheduler "thk2" with entities [Momiji (ID: 17780793/0x010F5039), Momiji (ID: 17780793/0x010F5039)], work=60*
  1: 0x06B1 [0x00] END_REQSTACK()
```

### Event 65535.89

#### Metadata

| Field        | Value    |
|--------------|----------|
| Entrypoint   | 0x06B2   |
| Data Size    | 17 bytes |
| Instructions | 2        |

```
      00 01 02 03 04 05 06 07  08 09 0A 0B 0C 0D 0E 0F
      -- -- -- -- -- -- -- --  -- -- -- -- -- -- -- --
06B0:       5B 69 80 39 50 0F  01 39 50 0F 01 65 6D 74    [i.9P..9P..emt
06C0: 30 00 00                                          0..             
```

#### Opcodes

```
  0: 0x06B2 [0x5B] LOAD_EXT_SCHEDULER: Load scheduler "emt0" with entities [Momiji (ID: 17780793/0x010F5039), Momiji (ID: 17780793/0x010F5039)], work=2624*
  1: 0x06C1 [0x00] END_REQSTACK()
```

#### Data or dead code:

```
# Dead code (unreachable instructions):
     0x06C2 [0x00] END_REQSTACK()
```

### Event 65535.90

#### Metadata

| Field        | Value    |
|--------------|----------|
| Entrypoint   | 0x06C3   |
| Data Size    | 20 bytes |
| Instructions | 5        |

```
      00 01 02 03 04 05 06 07  08 09 0A 0B 0C 0D 0E 0F
      -- -- -- -- -- -- -- --  -- -- -- -- -- -- -- --
06C0:          59 04 3C 50 0F  01 41 80 1F 00 6A 80 6B     Y.<P..A...j.k
06D0: 80 11 80 1F 01 6F 00                              .....o.         
```

#### Opcodes

```
  0: 0x06C3 [0x59] UPDATE_ENTITY_DATA: Set Mendi (ID: 17780796/0x010F503C) main speed = 13* * 0.1
  1: 0x06CB [0x1F] MOVE_ENTITY: EventEntity moves to X=-38.371*, Z=-67.496*, Y=0.000*
  2: 0x06D3 [0x1F] MOVE_ENTITY: Update entity position (mode=1)
  3: 0x06D5 [0x6F] WAIT_FRAME_DELAY: Yield until WaitTime reaches zero
  4: 0x06D6 [0x00] END_REQSTACK()
```

### Event 65535.91

#### Metadata

| Field        | Value    |
|--------------|----------|
| Entrypoint   | 0x06D7   |
| Data Size    | 12 bytes |
| Instructions | 4        |

```
      00 01 02 03 04 05 06 07  08 09 0A 0B 0C 0D 0E 0F
      -- -- -- -- -- -- -- --  -- -- -- -- -- -- -- --
06D0:                      1F  00 6C 80 6D 80 11 80 1F         ..l.m....
06E0: 01 6F 00                                          .o.             
```

#### Opcodes

```
  0: 0x06D7 [0x1F] MOVE_ENTITY: EventEntity moves to X=-5.565*, Z=-1.804*, Y=0.000*
  1: 0x06DF [0x1F] MOVE_ENTITY: Update entity position (mode=1)
  2: 0x06E1 [0x6F] WAIT_FRAME_DELAY: Yield until WaitTime reaches zero
  3: 0x06E2 [0x00] END_REQSTACK()
```

### Event 65535.92

#### Metadata

| Field        | Value    |
|--------------|----------|
| Entrypoint   | 0x06E3   |
| Data Size    | 16 bytes |
| Instructions | 2        |

```
      00 01 02 03 04 05 06 07  08 09 0A 0B 0C 0D 0E 0F
      -- -- -- -- -- -- -- --  -- -- -- -- -- -- -- --
06E0:          5B 58 80 3C 50  0F 01 3C 50 0F 01 6F 70     [X.<P..<P..op
06F0: 62 30 00                                          b0.             
```

#### Opcodes

```
  0: 0x06E3 [0x5B] LOAD_EXT_SCHEDULER: Load scheduler "opb0" with entities [Mendi (ID: 17780796/0x010F503C), Mendi (ID: 17780796/0x010F503C)], work=2583*
  1: 0x06F2 [0x00] END_REQSTACK()
```

### Event 65535.93

#### Metadata

| Field        | Value    |
|--------------|----------|
| Entrypoint   | 0x06F3   |
| Data Size    | 16 bytes |
| Instructions | 2        |

```
      00 01 02 03 04 05 06 07  08 09 0A 0B 0C 0D 0E 0F
      -- -- -- -- -- -- -- --  -- -- -- -- -- -- -- --
06F0:          5B 58 80 3C 50  0F 01 3C 50 0F 01 6F 70     [X.<P..<P..op
0700: 63 30 00                                          c0.             
```

#### Opcodes

```
  0: 0x06F3 [0x5B] LOAD_EXT_SCHEDULER: Load scheduler "opc0" with entities [Mendi (ID: 17780796/0x010F503C), Mendi (ID: 17780796/0x010F503C)], work=2583*
  1: 0x0702 [0x00] END_REQSTACK()
```

### Event 65535.94

#### Metadata

| Field        | Value    |
|--------------|----------|
| Entrypoint   | 0x0703   |
| Data Size    | 16 bytes |
| Instructions | 2        |

```
      00 01 02 03 04 05 06 07  08 09 0A 0B 0C 0D 0E 0F
      -- -- -- -- -- -- -- --  -- -- -- -- -- -- -- --
0700:          5B 58 80 3C 50  0F 01 3C 50 0F 01 6F 70     [X.<P..<P..op
0710: 63 31 00                                          c1.             
```

#### Opcodes

```
  0: 0x0703 [0x5B] LOAD_EXT_SCHEDULER: Load scheduler "opc1" with entities [Mendi (ID: 17780796/0x010F503C), Mendi (ID: 17780796/0x010F503C)], work=2583*
  1: 0x0712 [0x00] END_REQSTACK()
```

### Event 65535.95

#### Metadata

| Field        | Value    |
|--------------|----------|
| Entrypoint   | 0x0713   |
| Data Size    | 16 bytes |
| Instructions | 2        |

```
      00 01 02 03 04 05 06 07  08 09 0A 0B 0C 0D 0E 0F
      -- -- -- -- -- -- -- --  -- -- -- -- -- -- -- --
0710:          66 6E 80 3C 50  0F 01 3C 50 0F 01 74 68     fn.<P..<P..th
0720: 62 31 00                                          b1.             
```

#### Opcodes

```
  0: 0x0713 [0x66] LOAD_EXT_SCHEDULER_MAIN: Load scheduler "thb1" with entities [Mendi (ID: 17780796/0x010F503C), Mendi (ID: 17780796/0x010F503C)], work=2*
  1: 0x0722 [0x00] END_REQSTACK()
```

### Event 65535.96

#### Metadata

| Field        | Value    |
|--------------|----------|
| Entrypoint   | 0x0723   |
| Data Size    | 16 bytes |
| Instructions | 2        |

```
      00 01 02 03 04 05 06 07  08 09 0A 0B 0C 0D 0E 0F
      -- -- -- -- -- -- -- --  -- -- -- -- -- -- -- --
0720:          66 6E 80 3C 50  0F 01 3C 50 0F 01 74 68     fn.<P..<P..th
0730: 62 32 00                                          b2.             
```

#### Opcodes

```
  0: 0x0723 [0x66] LOAD_EXT_SCHEDULER_MAIN: Load scheduler "thb2" with entities [Mendi (ID: 17780796/0x010F503C), Mendi (ID: 17780796/0x010F503C)], work=2*
  1: 0x0732 [0x00] END_REQSTACK()
```

### Event 65535.97

#### Metadata

| Field        | Value    |
|--------------|----------|
| Entrypoint   | 0x0733   |
| Data Size    | 16 bytes |
| Instructions | 2        |

```
      00 01 02 03 04 05 06 07  08 09 0A 0B 0C 0D 0E 0F
      -- -- -- -- -- -- -- --  -- -- -- -- -- -- -- --
0730:          66 11 80 3C 50  0F 01 3C 50 0F 01 74 68     f..<P..<P..th
0740: 6B 31 00                                          k1.             
```

#### Opcodes

```
  0: 0x0733 [0x66] LOAD_EXT_SCHEDULER_MAIN: Load scheduler "thk1" with entities [Mendi (ID: 17780796/0x010F503C), Mendi (ID: 17780796/0x010F503C)], work=0*
  1: 0x0742 [0x00] END_REQSTACK()
```

### Event 65535.98

#### Metadata

| Field        | Value    |
|--------------|----------|
| Entrypoint   | 0x0743   |
| Data Size    | 16 bytes |
| Instructions | 2        |

```
      00 01 02 03 04 05 06 07  08 09 0A 0B 0C 0D 0E 0F
      -- -- -- -- -- -- -- --  -- -- -- -- -- -- -- --
0740:          66 11 80 3C 50  0F 01 3C 50 0F 01 74 68     f..<P..<P..th
0750: 6B 32 00                                          k2.             
```

#### Opcodes

```
  0: 0x0743 [0x66] LOAD_EXT_SCHEDULER_MAIN: Load scheduler "thk2" with entities [Mendi (ID: 17780796/0x010F503C), Mendi (ID: 17780796/0x010F503C)], work=0*
  1: 0x0752 [0x00] END_REQSTACK()
```

### Event 65535.99

#### Metadata

| Field        | Value    |
|--------------|----------|
| Entrypoint   | 0x0753   |
| Data Size    | 20 bytes |
| Instructions | 5        |

```
      00 01 02 03 04 05 06 07  08 09 0A 0B 0C 0D 0E 0F
      -- -- -- -- -- -- -- --  -- -- -- -- -- -- -- --
0750:          59 04 3C 50 0F  01 41 80 1F 00 6F 80 70     Y.<P..A...o.p
0760: 80 11 80 1F 01 6F 00                              .....o.         
```

#### Opcodes

```
  0: 0x0753 [0x59] UPDATE_ENTITY_DATA: Set Mendi (ID: 17780796/0x010F503C) main speed = 13* * 0.1
  1: 0x075B [0x1F] MOVE_ENTITY: EventEntity moves to X=-2.765*, Z=5.059*, Y=0.000*
  2: 0x0763 [0x1F] MOVE_ENTITY: Update entity position (mode=1)
  3: 0x0765 [0x6F] WAIT_FRAME_DELAY: Yield until WaitTime reaches zero
  4: 0x0766 [0x00] END_REQSTACK()
```

### Event 65535.100

#### Metadata

| Field        | Value    |
|--------------|----------|
| Entrypoint   | 0x0767   |
| Data Size    | 20 bytes |
| Instructions | 5        |

```
      00 01 02 03 04 05 06 07  08 09 0A 0B 0C 0D 0E 0F
