# 17780832 - DoorNeptunes Spire

## Common Data

| Field            | Value                 |
|------------------|-----------------------|
| Zone             | Lower Jeuno (ID: 245) |
| Block Size       | 3164 bytes            |
| Total Events     | 14                    |
| References Count | 74                    |

## List of Events

| Event ID                 | Entrypoint   |   Size |   Instructions |
|--------------------------|--------------|--------|----------------|
| [65535](#event-65535)    | 0x0000       |      1 |              1 |
| [9](#event-9)            | 0x0001       |      1 |              1 |
| [10](#event-10)          | 0x0002       |      1 |              1 |
| [86](#event-86)          | 0x0003       |      7 |              2 |
| [105](#event-105)        | 0x000A       |      1 |              1 |
| [20](#event-20)          | 0x000B       |      1 |              1 |
| [65535.1](#event-655351) | 0x000C       |      2 |              2 |
| [65535.2](#event-655352) | 0x000E       |      2 |              2 |
| [155](#event-155)        | 0x0010       |      2 |              2 |
| [156](#event-156)        | 0x0012       |      2 |              2 |
| [157](#event-157)        | 0x0014       |      2 |              2 |
| [158](#event-158)        | 0x0016       |      2 |              2 |
| [159](#event-159)        | 0x0018       |      2 |              2 |
| [10125](#event-10125)    | 0x001A       |   2767 |            376 |

## DAT References (imed_data)

|   Index | Hex Value   |   Dec Value |
|---------|-------------|-------------|
|       0 | 0x00C8      |         200 |
|       1 | 0x0000      |           0 |
|       2 | 0x01C7      |         455 |
|       3 | 0x0013      |          19 |
|       4 | 0x983B      |       38971 |
|       5 | 0xFFFFBD44  |  4294950212 |
|       6 | 0xFFFFFF9C  |  4294967196 |
|       7 | 0x00FF      |         255 |
|       8 | 0x9265      |       37477 |
|       9 | 0xFFFFC089  |  4294951049 |
|      10 | 0x001E      |          30 |
|      11 | 0x027C      |         636 |
|      12 | 0x003C      |          60 |
|      13 | 0x00B4      |         180 |
|      14 | 0x28B8      |       10424 |
|      15 | 0x28B9      |       10425 |
|      16 | 0x0095      |         149 |
|      17 | 0x000F      |          15 |
|      18 | 0x28BA      |       10426 |
|      19 | 0x28BB      |       10427 |
|      20 | 0x28BC      |       10428 |
|      21 | 0x28BD      |       10429 |
|      22 | 0x00F0      |         240 |
|      23 | 0x005A      |          90 |
|      24 | 0x0014      |          20 |
|      25 | 0x28BE      |       10430 |
|      26 | 0x28BF      |       10431 |
|      27 | 0x01C8      |         456 |
|      28 | 0x94D2      |       38098 |
|      29 | 0xFFFF1B8C  |  4294908812 |
|      30 | 0x0DAC      |        3500 |
|      31 | 0xFFFFFD01  |  4294966529 |
|      32 | 0x9470      |       38000 |
|      33 | 0xFFFF5FD8  |  4294926296 |
|      34 | 0x0F3C      |        3900 |
|      35 | 0xFFFFFD91  |  4294966673 |
|      36 | 0x93E3      |       37859 |
|      37 | 0xFFFF461E  |  4294919710 |
|      38 | 0x1015      |        4117 |
|      39 | 0x09FF      |        2559 |
|      40 | 0x85AF      |       34223 |
|      41 | 0xFFFF63B5  |  4294927285 |
|      42 | 0x03FF      |        1023 |
|      43 | 0x819D      |       33181 |
|      44 | 0xFFFF69AA  |  4294928810 |
|      45 | 0x0078      |         120 |
|      46 | 0x28C0      |       10432 |
|      47 | 0x28C1      |       10433 |
|      48 | 0x0005      |           5 |
|      49 | 0x0006      |           6 |
|      50 | 0x28C2      |       10434 |
|      51 | 0x28C3      |       10435 |
|      52 | 0x28C4      |       10436 |
|      53 | 0x0096      |         150 |
|      54 | 0x0948      |        2376 |
|      55 | 0x0949      |        2377 |
|      56 | 0x28C5      |       10437 |
|      57 | 0x28C6      |       10438 |
|      58 | 0x28C7      |       10439 |
|      59 | 0x28C8      |       10440 |
|      60 | 0x28C9      |       10441 |
|      61 | 0x28CA      |       10442 |
|      62 | 0x28CB      |       10443 |
|      63 | 0x28CC      |       10444 |
|      64 | 0x28CD      |       10445 |
|      65 | 0x28CE      |       10446 |
|      66 | 0x000A      |          10 |
|      67 | 0x28CF      |       10447 |
|      68 | 0x28D0      |       10448 |
|      69 | 0x28D1      |       10449 |
|      70 | 0x28D2      |       10450 |
|      71 | 0x28D3      |       10451 |
|      72 | 0x28D4      |       10452 |
|      73 | 0x28D5      |       10453 |

## String References

- **10437**: You hand over $6 and $6.

## Events

### Event 65535

#### Metadata

| Field        | Value   |
|--------------|---------|
| Entrypoint   | 0x0000  |
| Data Size    | 1 bytes |
| Instructions | 1       |

```
      00 01 02 03 04 05 06 07  08 09 0A 0B 0C 0D 0E 0F
      -- -- -- -- -- -- -- --  -- -- -- -- -- -- -- --
0000: 00                                                .               
```

#### Opcodes

```
  0: 0x0000 [0x00] END_REQSTACK()
```

### Event 9

#### Metadata

| Field        | Value   |
|--------------|---------|
| Entrypoint   | 0x0001  |
| Data Size    | 1 bytes |
| Instructions | 1       |

```
      00 01 02 03 04 05 06 07  08 09 0A 0B 0C 0D 0E 0F
      -- -- -- -- -- -- -- --  -- -- -- -- -- -- -- --
0000:    00                                              .              
```

#### Opcodes

```
  0: 0x0001 [0x00] END_REQSTACK()
```

### Event 10

#### Metadata

| Field        | Value   |
|--------------|---------|
| Entrypoint   | 0x0002  |
| Data Size    | 1 bytes |
| Instructions | 1       |

```
      00 01 02 03 04 05 06 07  08 09 0A 0B 0C 0D 0E 0F
      -- -- -- -- -- -- -- --  -- -- -- -- -- -- -- --
0000:       00                                            .             
```

#### Opcodes

```
  0: 0x0002 [0x00] END_REQSTACK()
```

### Event 86

#### Metadata

| Field        | Value   |
|--------------|---------|
| Entrypoint   | 0x0003  |
| Data Size    | 7 bytes |
| Instructions | 2       |

```
      00 01 02 03 04 05 06 07  08 09 0A 0B 0C 0D 0E 0F
      -- -- -- -- -- -- -- --  -- -- -- -- -- -- -- --
0000:          94 01 F8 FF FF  7F 00                       .......      
```

#### Opcodes

```
  0: 0x0003 [0x94] EventEntity->Render.Flags3 ^= 0x01
  1: 0x0009 [0x00] END_REQSTACK()
```

### Event 105

#### Metadata

| Field        | Value   |
|--------------|---------|
| Entrypoint   | 0x000A  |
| Data Size    | 1 bytes |
| Instructions | 1       |

```
      00 01 02 03 04 05 06 07  08 09 0A 0B 0C 0D 0E 0F
      -- -- -- -- -- -- -- --  -- -- -- -- -- -- -- --
0000:                                00                           .     
```

#### Opcodes

```
  0: 0x000A [0x00] END_REQSTACK()
```

### Event 20

#### Metadata

| Field        | Value   |
|--------------|---------|
| Entrypoint   | 0x000B  |
| Data Size    | 1 bytes |
| Instructions | 1       |

```
      00 01 02 03 04 05 06 07  08 09 0A 0B 0C 0D 0E 0F
      -- -- -- -- -- -- -- --  -- -- -- -- -- -- -- --
0000:                                   00                         .    
```

#### Opcodes

```
  0: 0x000B [0x00] END_REQSTACK()
```

### Event 65535.1

#### Metadata

| Field        | Value   |
|--------------|---------|
| Entrypoint   | 0x000C  |
| Data Size    | 2 bytes |
| Instructions | 2       |

```
      00 01 02 03 04 05 06 07  08 09 0A 0B 0C 0D 0E 0F
      -- -- -- -- -- -- -- --  -- -- -- -- -- -- -- --
0000:                                      4C 00                    L.  
```

#### Opcodes

```
  0: 0x000C [0x4C] EventEntity->StatusEvent = 8 // Open door
  1: 0x000D [0x00] END_REQSTACK()
```

### Event 65535.2

#### Metadata

| Field        | Value   |
|--------------|---------|
| Entrypoint   | 0x000E  |
| Data Size    | 2 bytes |
| Instructions | 2       |

```
      00 01 02 03 04 05 06 07  08 09 0A 0B 0C 0D 0E 0F
      -- -- -- -- -- -- -- --  -- -- -- -- -- -- -- --
0000:                                            4D 00                M.
```

#### Opcodes

```
  0: 0x000E [0x4D] EventEntity->StatusEvent = 9 // Close door
  1: 0x000F [0x00] END_REQSTACK()
```

### Event 155

#### Metadata

| Field        | Value   |
|--------------|---------|
| Entrypoint   | 0x0010  |
| Data Size    | 2 bytes |
| Instructions | 2       |

```
      00 01 02 03 04 05 06 07  08 09 0A 0B 0C 0D 0E 0F
      -- -- -- -- -- -- -- --  -- -- -- -- -- -- -- --
0010: 4C 00                                             L.              
```

#### Opcodes

```
  0: 0x0010 [0x4C] EventEntity->StatusEvent = 8 // Open door
  1: 0x0011 [0x00] END_REQSTACK()
```

### Event 156

#### Metadata

| Field        | Value   |
|--------------|---------|
| Entrypoint   | 0x0012  |
| Data Size    | 2 bytes |
| Instructions | 2       |

```
      00 01 02 03 04 05 06 07  08 09 0A 0B 0C 0D 0E 0F
      -- -- -- -- -- -- -- --  -- -- -- -- -- -- -- --
0010:       4C 00                                         L.            
```

#### Opcodes

```
  0: 0x0012 [0x4C] EventEntity->StatusEvent = 8 // Open door
  1: 0x0013 [0x00] END_REQSTACK()
```

### Event 157

#### Metadata

| Field        | Value   |
|--------------|---------|
| Entrypoint   | 0x0014  |
| Data Size    | 2 bytes |
| Instructions | 2       |

```
      00 01 02 03 04 05 06 07  08 09 0A 0B 0C 0D 0E 0F
      -- -- -- -- -- -- -- --  -- -- -- -- -- -- -- --
0010:             4C 00                                     L.          
```

#### Opcodes

```
  0: 0x0014 [0x4C] EventEntity->StatusEvent = 8 // Open door
  1: 0x0015 [0x00] END_REQSTACK()
```

### Event 158

#### Metadata

| Field        | Value   |
|--------------|---------|
| Entrypoint   | 0x0016  |
| Data Size    | 2 bytes |
| Instructions | 2       |

```
      00 01 02 03 04 05 06 07  08 09 0A 0B 0C 0D 0E 0F
      -- -- -- -- -- -- -- --  -- -- -- -- -- -- -- --
0010:                   4C 00                                 L.        
```

#### Opcodes

```
  0: 0x0016 [0x4C] EventEntity->StatusEvent = 8 // Open door
  1: 0x0017 [0x00] END_REQSTACK()
```

### Event 159

#### Metadata

| Field        | Value   |
|--------------|---------|
| Entrypoint   | 0x0018  |
| Data Size    | 2 bytes |
| Instructions | 2       |

```
      00 01 02 03 04 05 06 07  08 09 0A 0B 0C 0D 0E 0F
      -- -- -- -- -- -- -- --  -- -- -- -- -- -- -- --
0010:                          4C 00                            L.      
```

#### Opcodes

```
  0: 0x0018 [0x4C] EventEntity->StatusEvent = 8 // Open door
  1: 0x0019 [0x00] END_REQSTACK()
```

### Event 10125

#### Metadata

| Field        | Value      |
|--------------|------------|
| Entrypoint   | 0x001A     |
| Data Size    | 2767 bytes |
| Instructions | 376        |

```
      00 01 02 03 04 05 06 07  08 09 0A 0B 0C 0D 0E 0F
      -- -- -- -- -- -- -- --  -- -- -- -- -- -- -- --
0010:                                42 45 00 80 F0 FF            BE....
0020: FF 7F F0 FF FF 7F 66 64  6F 31 01 80 75 00 02 80  ......fdo1..u...
0030: 75 01 55 00 80 F0 FF FF  7F F0 FF FF 7F 66 64 6F  u.U..........fdo
0040: 31 46 01 38 03 80 2F 00  E2 50 0F 01 4E 00 0D 50  1F.8../..P..N..P
0050: 0F 01 92 01 0D 50 0F 01  94 01 0D 50 0F 01 94 01  .....P.....P....
0060: E2 50 0F 01 94 01 F0 FF  FF 7F BA E2 50 0F 01 04  .P..........P...
0070: 80 05 80 06 80 07 80 BA  F0 FF FF 7F 08 80 09 80  ................
0080: 06 80 07 80 80 07 50 0F  01 80 0D 50 0F 01 80 E2  ......P....P....
0090: 50 0F 01 80 F0 FF FF 7F  1C 0A 80 45 00 80 F0 FF  P..........E....
00A0: FF 7F F0 FF FF 7F 66 64  69 31 01 80 45 0B 80 F8  ......fdi1..E...
00B0: FF FF 7F F8 FF FF 7F 73  32 38 30 01 80 4C 1C 0C  .......s280..L..
00C0: 80 27 10 F0 FF FF 7F 67  1C 0D 80 52 0B 80 F8 FF  .'.....g...R....
00D0: FF 7F F8 FF FF 7F 73 32  38 30 45 0B 80 F8 FF FF  ......s280E.....
00E0: 7F F8 FF FF 7F 73 32 38  31 01 80 2A 10 F0 FF FF  .....s281..*....
00F0: 7F 1C 0A 80 4A 0D 50 0F  01 F0 FF FF 7F 6F 76 0D  ....J.P......ov.
0100: 50 0F 01 1C 0A 80 03 00  17 0C 80 27 10 0D 50 0F  P..........'..P.
0110: 01 0E 2B 0D 50 0F 01 0E  80 23 2A 10 0D 50 0F 01  ..+.P....#*..P..
0120: 66 01 80 0D 50 0F 01 0D  50 0F 01 74 65 6E 30 4E  f...P...P..ten0N
0130: 00 E2 50 0F 01 27 10 E2  50 0F 01 02 4D 52 0B 80  ..P..'..P...MR..
0140: F8 FF FF 7F F8 FF FF 7F  73 32 38 31 45 0B 80 F8  ........s281E...
0150: FF FF 7F F8 FF FF 7F 73  32 38 32 01 80 2A 10 E2  .......s282..*..
0160: 50 0F 01 1C 0A 80 03 00  17 0C 80 27 10 E2 50 0F  P..........'..P.
0170: 01 04 2B E2 50 0F 01 0F  80 23 2A 10 E2 50 0F 01  ..+.P....#*..P..
0180: 66 10 80 E2 50 0F 01 E2  50 0F 01 74 6C 6B 31 4A  f...P...P..tlk1J
0190: 0D 50 0F 01 E2 50 0F 01  1C 0A 80 4A F0 FF FF 7F  .P...P.....J....
01A0: E2 50 0F 01 1C 11 80 52  0B 80 F8 FF FF 7F F8 FF  .P.....R........
01B0: FF 7F 73 32 38 32 45 0B  80 F8 FF FF 7F F8 FF FF  ..s282E.........
01C0: 7F 73 32 38 33 01 80 03  00 17 0C 80 27 10 0D 50  .s283.......'..P
01D0: 0F 01 0E 2B 0D 50 0F 01  12 80 23 2B 0D 50 0F 01  ...+.P....#+.P..
01E0: 13 80 23 2A 10 0D 50 0F  01 66 01 80 0D 50 0F 01  ..#*..P..f...P..
01F0: 0D 50 0F 01 74 65 6E 30  52 0B 80 F8 FF FF 7F F8  .P..ten0R.......
0200: FF FF 7F 73 32 38 33 45  0B 80 F8 FF FF 7F F8 FF  ...s283E........
0210: FF 7F 73 32 38 34 01 80  1C 0A 80 03 00 17 0D 80  ..s284..........
0220: 27 10 E2 50 0F 01 06 2B  E2 50 0F 01 14 80 23 2B  '..P...+.P....#+
0230: E2 50 0F 01 15 80 23 2A  10 E2 50 0F 01 52 0B 80  .P....#*..P..R..
0240: F8 FF FF 7F F8 FF FF 7F  73 32 38 34 45 0B 80 F8  ........s284E...
0250: FF FF 7F F8 FF FF 7F 73  32 38 35 01 80 27 10 F0  .......s285..'..
0260: FF FF 7F 68 1C 0C 80 27  10 E2 50 0F 01 03 1C 16  ...h...'..P.....
0270: 80 7B 0D 50 0F 01 4A 0D  50 0F 01 F0 FF FF 7F 52  .{.P..J.P......R
0280: 0B 80 F8 FF FF 7F F8 FF  FF 7F 73 32 38 35 4E 01  ..........s285N.
0290: E2 50 0F 01 45 0B 80 F8  FF FF 7F F8 FF FF 7F 73  .P..E..........s
02A0: 32 38 36 01 80 1C 0A 80  4A F0 FF FF 7F 0D 50 0F  286.....J.....P.
02B0: 01 6F 76 F0 FF FF 7F 29  10 F0 FF FF 7F 04 03 03  .ov....)........
02C0: 10 17 80 27 10 F0 FF FF  7F 66 2A 10 F0 FF FF 7F  ...'.....f*.....
02D0: 1C 18 80 03 00 17 17 80  27 10 0D 50 0F 01 0E 2B  ........'..P...+
02E0: 0D 50 0F 01 19 80 23 2B  0D 50 0F 01 1A 80 23 2A  .P....#+.P....#*
02F0: 10 0D 50 0F 01 66 01 80  0D 50 0F 01 0D 50 0F 01  ..P..f...P...P..
0300: 74 65 6E 30 7B 0D 50 0F  01 1C 0C 80 27 10 0D 50  ten0{.P.....'..P
0310: 0F 01 0C 7B F0 FF FF 7F  1C 17 80 27 10 F0 FF FF  ...{.......'....
0320: 7F 69 1C 0C 80 52 0B 80  F8 FF FF 7F F8 FF FF 7F  .i...R..........
0330: 73 32 38 36 45 0B 80 F8  FF FF 7F F8 FF FF 7F 73  s286E..........s
0340: 32 38 37 01 80 1C 0D 80  52 0B 80 F8 FF FF 7F F8  287.....R.......
0350: FF FF 7F 73 32 38 37 45  00 80 F0 FF FF 7F F0 FF  ...s287E........
0360: FF 7F 66 64 6F 31 01 80  75 00 1B 80 75 01 4E 00  ..fdo1..u...u.N.
0370: 07 50 0F 01 4E 00 0B 50  0F 01 4E 00 0C 50 0F 01  .P..N..P..N..P..
0380: 4E 00 3B 50 0F 01 4E 00  CD 50 0F 01 4E 00 CE 50  N.;P..N..P..N..P
0390: 0F 01 4E 00 0E 50 0F 01  4E 00 BC 50 0F 01 4E 00  ..N..P..N..P..N.
03A0: 79 50 0F 01 4E 00 7A 50  0F 01 4E 00 E2 50 0F 01  yP..N.zP..N..P..
03B0: 92 01 07 50 0F 01 92 01  0B 50 0F 01 92 01 0C 50  ...P.....P.....P
03C0: 0F 01 92 01 3B 50 0F 01  92 01 CD 50 0F 01 92 01  ....;P.....P....
03D0: 0E 50 0F 01 92 01 BC 50  0F 01 92 01 79 50 0F 01  .P.....P....yP..
03E0: 92 01 7A 50 0F 01 94 01  07 50 0F 01 94 01 0B 50  ..zP.....P.....P
03F0: 0F 01 94 01 0C 50 0F 01  94 01 3B 50 0F 01 94 01  .....P....;P....
0400: CD 50 0F 01 94 01 0E 50  0F 01 94 01 BC 50 0F 01  .P.....P.....P..
0410: 94 01 79 50 0F 01 94 01  7A 50 0F 01 BA 07 50 0F  ..yP....zP....P.
0420: 01 1C 80 1D 80 1E 80 1F  80 BA E2 50 0F 01 20 80  ...........P.. .
0430: 21 80 22 80 23 80 BA 0C  50 0F 01 24 80 25 80 26  !.".#...P..$.%.&
0440: 80 27 80 80 07 50 0F 01  80 0B 50 0F 01 80 0C 50  .'...P....P....P
0450: 0F 01 80 3B 50 0F 01 80  CD 50 0F 01 80 CE 50 0F  ...;P....P....P.
0460: 01 80 0E 50 0F 01 80 BC  50 0F 01 80 79 50 0F 01  ...P....P...yP..
0470: 80 7A 50 0F 01 80 E2 50  0F 01 55 00 80 F0 FF FF  .zP....P..U.....
0480: 7F F0 FF FF 7F 66 64 6F  31 7A 00 0D 50 0F 01 7A  .....fdo1z..P..z
0490: 00 F0 FF FF 7F BA 0D 50  0F 01 28 80 29 80 22 80  .......P..(.).".
04A0: 2A 80 BA F0 FF FF 7F 2B  80 2C 80 22 80 2A 80 80  *......+.,.".*..
04B0: 0D 50 0F 01 80 F0 FF FF  7F 27 10 0D 50 0F 01 0D  .P.......'..P...
04C0: 27 10 F0 FF FF 7F 6A 45  00 80 F0 FF FF 7F F0 FF  '.....jE........
04D0: FF 7F 66 64 69 31 01 80  45 0B 80 F8 FF FF 7F F8  ..fdi1..E.......
04E0: FF FF 7F 73 32 38 38 01  80 1C 0D 80 52 0B 80 F8  ...s288.....R...
04F0: FF FF 7F F8 FF FF 7F 73  32 38 38 45 0B 80 F8 FF  .......s288E....
0500: FF 7F F8 FF FF 7F 73 32  38 39 01 80 1C 0A 80 27  ......s289.....'
0510: 10 64 50 0F 01 02 27 10  07 50 0F 01 5F 1C 0D 80  .dP...'..P.._...
0520: 27 10 64 50 0F 01 03 1C  2D 80 52 0B 80 F8 FF FF  '.dP....-.R.....
0530: 7F F8 FF FF 7F 73 32 38  39 45 0B 80 F8 FF FF 7F  .....s289E......
0540: F8 FF FF 7F 73 32 39 30  01 80 7A 00 07 50 0F 01  ....s290..z..P..
0550: 27 10 07 50 0F 01 60 2A  10 07 50 0F 01 4A 07 50  '..P..`*..P..J.P
0560: 0F 01 F0 FF FF 7F 2B 07  50 0F 01 2E 80 23 4A F0  ......+.P....#J.
0570: FF FF 7F 07 50 0F 01 4A  0D 50 0F 01 07 50 0F 01  ....P..J.P...P..
0580: 52 0B 80 F8 FF FF 7F F8  FF FF 7F 73 32 39 30 45  R..........s290E
0590: 0B 80 F8 FF FF 7F F8 FF  FF 7F 73 32 39 31 01 80  ..........s291..
05A0: 4A 07 50 0F 01 0D 50 0F  01 03 00 17 0C 80 27 10  J.P...P.......'.
05B0: 0D 50 0F 01 0E 2B 0D 50  0F 01 2F 80 23 2A 10 0D  .P...+.P../.#*..
05C0: 50 0F 01 4A 07 50 0F 01  F0 FF FF 7F 66 01 80 0D  P..J.P......f...
05D0: 50 0F 01 0D 50 0F 01 74  65 6E 30 52 0B 80 F8 FF  P...P..ten0R....
05E0: FF 7F F8 FF FF 7F 73 32  39 31 29 10 F0 FF FF 7F  ......s291).....
05F0: 04 02 02 10 30 80 80 0D  06 45 0B 80 F8 FF FF 7F  ....0....E......
0600: F8 FF FF 7F 73 32 37 37  01 80 01 3A 06 02 02 10  ....s277...:....
0610: 31 80 80 29 06 45 0B 80  F8 FF FF 7F F8 FF FF 7F  1..).E..........
0620: 73 32 37 37 01 80 01 3A  06 45 0B 80 F8 FF FF 7F  s277...:.E......
0630: F8 FF FF 7F 73 32 39 32  01 80 27 10 07 50 0F 01  ....s292..'..P..
0640: 2F 2B 07 50 0F 01 32 80  23 2B 07 50 0F 01 33 80  /+.P..2.#+.P..3.
0650: 23 27 10 07 50 0F 01 30  2A 10 07 50 0F 01 03 00  #'..P..0*..P....
0660: 17 17 80 27 10 F0 FF FF  7F 6B 2A 10 F0 FF FF 7F  ...'.....k*.....
0670: 02 02 10 30 80 80 8A 06  52 0B 80 F8 FF FF 7F F8  ...0....R.......
0680: FF FF 7F 73 32 37 37 01  B3 06 02 02 10 31 80 80  ...s277......1..
0690: A4 06 52 0B 80 F8 FF FF  7F F8 FF FF 7F 73 32 37  ..R..........s27
06A0: 37 01 B3 06 52 0B 80 F8  FF FF 7F F8 FF FF 7F 73  7...R..........s
06B0: 32 39 32 45 0B 80 F8 FF  FF 7F F8 FF FF 7F 73 32  292E..........s2
06C0: 39 33 01 80 27 10 07 50  0F 01 2F 2B 07 50 0F 01  93..'..P../+.P..
06D0: 34 80 23 27 10 07 50 0F  01 30 27 10 F0 FF FF 7F  4.#'..P..0'.....
06E0: 6C 1C 35 80 03 02 10 36  80 03 03 10 37 80 48 38  l.5....6....7.H8
06F0: 80 2A 10 07 50 0F 01 1C  2D 80 7B 07 50 0F 01 52  .*..P...-.{.P..R
0700: 0B 80 F8 FF FF 7F F8 FF  FF 7F 73 32 39 33 45 0B  ..........s293E.
0710: 80 F8 FF FF 7F F8 FF FF  7F 73 32 39 34 01 80 27  .........s294..'
0720: 10 07 50 0F 01 33 2B 07  50 0F 01 39 80 23 27 10  ..P..3+.P..9.#'.
0730: 07 50 0F 01 35 2B 07 50  0F 01 3A 80 23 52 0B 80  .P..5+.P..:.#R..
0740: F8 FF FF 7F F8 FF FF 7F  73 32 39 34 45 0B 80 F8  ........s294E...
0750: FF FF 7F F8 FF FF 7F 73  32 39 35 01 80 81 00 07  .......s295.....
0760: 50 0F 01 2B 07 50 0F 01  3B 80 23 52 0B 80 F8 FF  P..+.P..;.#R....
0770: FF 7F F8 FF FF 7F 73 32  39 35 45 0B 80 F8 FF FF  ......s295E.....
0780: 7F F8 FF FF 7F 73 32 39  36 01 80 81 01 07 50 0F  .....s296.....P.
0790: 01 2B 07 50 0F 01 3C 80  23 2B 07 50 0F 01 3D 80  .+.P..<.#+.P..=.
07A0: 23 52 0B 80 F8 FF FF 7F  F8 FF FF 7F 73 32 39 36  #R..........s296
07B0: 45 0B 80 F8 FF FF 7F F8  FF FF 7F 73 32 37 33 01  E..........s273.
07C0: 80 1C 0A 80 03 00 17 0C  80 27 10 0D 50 0F 01 0E  .........'..P...
07D0: 2B 0D 50 0F 01 3E 80 23  2A 10 0D 50 0F 01 27 10  +.P..>.#*..P..'.
07E0: 07 50 0F 01 36 2A 10 07  50 0F 01 66 01 80 0D 50  .P..6*..P..f...P
07F0: 0F 01 0D 50 0F 01 74 65  6E 30 4A 07 50 0F 01 0D  ...P..ten0J.P...
0800: 50 0F 01 52 0B 80 F8 FF  FF 7F F8 FF FF 7F 73 32  P..R..........s2
0810: 37 33 45 0B 80 F8 FF FF  7F F8 FF FF 7F 73 32 39  73E..........s29
0820: 37 01 80 6F 76 07 50 0F  01 27 10 07 50 0F 01 31  7..ov.P..'..P..1
0830: 2B 07 50 0F 01 3F 80 23  2B 07 50 0F 01 40 80 23  +.P..?.#+.P..@.#
0840: 2A 10 07 50 0F 01 55 0B  80 F8 FF FF 7F F8 FF FF  *..P..U.........
0850: 7F 73 32 39 37 45 0B 80  F8 FF FF 7F F8 FF FF 7F  .s297E..........
0860: 73 32 39 38 01 80 1C 0C  80 29 10 07 50 0F 01 61  s298.....)..P..a
0870: 27 10 07 50 0F 01 33 2B  07 50 0F 01 41 80 23 2A  '..P..3+.P..A.#*
0880: 10 07 50 0F 01 1C 42 80  4A 0B 50 0F 01 07 50 0F  ..P...B.J.P...P.
0890: 01 1C 42 80 4A 0C 50 0F  01 07 50 0F 01 4A 3B 50  ..B.J.P...P..J;P
08A0: 0F 01 07 50 0F 01 1C 42  80 4A CD 50 0F 01 07 50  ...P...B.J.P...P
08B0: 0F 01 1C 42 80 4A 0E 50  0F 01 07 50 0F 01 4A BC  ...B.J.P...P..J.
08C0: 50 0F 01 07 50 0F 01 4A  79 50 0F 01 07 50 0F 01  P...P..JyP...P..
08D0: 4A 7A 50 0F 01 07 50 0F  01 4A E2 50 0F 01 07 50  JzP...P..J.P...P
08E0: 0F 01 27 10 07 50 0F 01  34 1C 0C 80 52 0B 80 F8  ..'..P..4...R...
08F0: FF FF 7F F8 FF FF 7F 73  32 39 38 29 10 F0 FF FF  .......s298)....
0900: 7F 04 02 02 10 30 80 80  1E 09 45 0B 80 F8 FF FF  .....0....E.....
0910: 7F F8 FF FF 7F 73 32 37  36 01 80 01 4B 09 02 02  .....s276...K...
0920: 10 31 80 80 3A 09 45 0B  80 F8 FF FF 7F F8 FF FF  .1..:.E.........
0930: 7F 73 32 37 36 01 80 01  4B 09 45 0B 80 F8 FF FF  .s276...K.E.....
0940: 7F F8 FF FF 7F 73 32 39  39 01 80 2A 10 07 50 0F  .....s299..*..P.
0950: 01 4A 07 50 0F 01 F0 FF  FF 7F 6F 76 07 50 0F 01  .J.P......ov.P..
0960: 1C 0A 80 27 10 07 50 0F  01 31 2B 07 50 0F 01 43  ...'..P..1+.P..C
0970: 80 23 2B 07 50 0F 01 44  80 23 7B 07 50 0F 01 02  .#+.P..D.#{.P...
0980: 02 10 30 80 80 99 09 52  0B 80 F8 FF FF 7F F8 FF  ..0....R........
0990: FF 7F 73 32 37 36 01 C2  09 02 02 10 31 80 80 B3  ..s276......1...
09A0: 09 52 0B 80 F8 FF FF 7F  F8 FF FF 7F 73 32 37 36  .R..........s276
09B0: 01 C2 09 52 0B 80 F8 FF  FF 7F F8 FF FF 7F 73 32  ...R..........s2
09C0: 39 39 45 0B 80 F8 FF FF  7F F8 FF FF 7F 73 32 37  99E..........s27
09D0: 32 01 80 81 00 07 50 0F  01 1C 0A 80 2B 07 50 0F  2.....P.....+.P.
09E0: 01 45 80 23 1C 0A 80 81  01 07 50 0F 01 79 00 07  .E.#......P..y..
09F0: 50 0F 01 F0 FF FF 7F 52  0B 80 F8 FF FF 7F F8 FF  P......R........
0A00: FF 7F 73 32 37 32 45 0B  80 F8 FF FF 7F F8 FF FF  ..s272E.........
0A10: 7F 73 32 37 38 01 80 1C  0C 80 2B 07 50 0F 01 46  .s278.....+.P..F
0A20: 80 23 2A 10 07 50 0F 01  03 00 17 0C 80 27 10 F0  .#*..P.......'..
0A30: FF FF 7F 6B 2A 10 F0 FF  FF 7F 1C 0C 80 52 0B 80  ...k*........R..
0A40: F8 FF FF 7F F8 FF FF 7F  73 32 37 38 45 0B 80 F8  ........s278E...
0A50: FF FF 7F F8 FF FF 7F 73  32 37 39 01 80 1C 0A 80  .......s279.....
0A60: 7B E2 50 0F 01 27 10 E2  50 0F 01 05 81 00 E2 50  {.P..'..P......P
0A70: 0F 01 7C 00 E2 50 0F 01  2B E2 50 0F 01 47 80 23  ..|..P..+.P..G.#
0A80: 2B E2 50 0F 01 48 80 23  2B E2 50 0F 01 49 80 23  +.P..H.#+.P..I.#
0A90: 1C 0C 80 81 01 E2 50 0F  01 7C 01 E2 50 0F 01 45  ......P..|..P..E
0AA0: 00 80 F0 FF FF 7F F0 FF  FF 7F 66 64 6F 31 01 80  ..........fdo1..
0AB0: 55 00 80 F0 FF FF 7F F0  FF FF 7F 66 64 6F 31 52  U..........fdo1R
0AC0: 0B 80 F8 FF FF 7F F8 FF  FF 7F 73 32 37 39 75 00  ..........s279u.
0AD0: 02 80 75 01 46 00 45 00  80 F0 FF FF 7F F0 FF FF  ..u.F.E.........
0AE0: 7F 66 64 69 32 01 80 21  00                       .fdi2..!.       
```

#### Opcodes

```
  0: 0x001A [0x42] SET_CLI_EVENT_CANCEL_DATA()
  1: 0x001B [0x45] LOAD_SCHEDULED_TASK: Load scheduler "fdo1" with entities [LocalPlayer, LocalPlayer], work=[200*, 0*]
  2: 0x002C [0x75] LOAD_ROOM(Load indoor room, room=455*)
  3: 0x0030 [0x75] LOAD_ROOM(No action)
  4: 0x0032 [0x55] WAIT_LOAD_SCHEDULER: Wait for scheduler "fdo1" with entities [LocalPlayer, LocalPlayer], work=200*
  5: 0x0041 [0x46] CAMERA_CONTROL: Disable user control
  6: 0x0043 [0x38] SET_CLIENT_EVENT_MODE(mode=19*)
  7: 0x0046 [0x2F] Talib (ID: 17780962/0x010F50E2)->Render.Flags0 &= ~0x80000 // Bit 19
  8: 0x004C [0x4E] SET_ENTITY_HIDE_FLAG: Show Harnek (ID: 17780749/0x010F500D)
  9: 0x0052 [0x92] Harnek (ID: 17780749/0x010F500D)->Render.Flags3 ^= 0x01
 10: 0x0058 [0x94] Harnek (ID: 17780749/0x010F500D)->Render.Flags3 ^= 0x01
 11: 0x005E [0x94] Talib (ID: 17780962/0x010F50E2)->Render.Flags3 ^= 0x01
 12: 0x0064 [0x94] LocalPlayer->Render.Flags3 ^= 0x01
 13: 0x006A [0xBA] SET_ENTITY_POSITION(entity_id=Talib (ID: 17780962/0x010F50E2), pos_x=38.971*, pos_z=-17.084*, pos_y=-0.100*, direction=22.4°*)
 14: 0x0077 [0xBA] SET_ENTITY_POSITION(entity_id=LocalPlayer, pos_x=37.477*, pos_z=-16.247*, pos_y=-0.100*, direction=22.4°*)
 15: 0x0084 [0x80] LOAD_WAIT(entity=Aldo (ID: 17780743/0x010F5007))
 16: 0x0089 [0x80] LOAD_WAIT(entity=Harnek (ID: 17780749/0x010F500D))
 17: 0x008E [0x80] LOAD_WAIT(entity=Talib (ID: 17780962/0x010F50E2))
 18: 0x0093 [0x80] LOAD_WAIT(entity=LocalPlayer)
 19: 0x0098 [0x1C] WAIT(30* ticks)
 20: 0x009B [0x45] LOAD_SCHEDULED_TASK: Load scheduler "fdi1" with entities [LocalPlayer, LocalPlayer], work=[200*, 0*]
 21: 0x00AC [0x45] LOAD_SCHEDULED_TASK: Load scheduler "s280" with entities [EventEntity, EventEntity], work=[636*, 0*]
 22: 0x00BD [0x4C] EventEntity->StatusEvent = 8 // Open door
 23: 0x00BE [0x1C] WAIT(60* ticks)
 24: 0x00C1 [0x27] REQ_SET(priority=0x10, entity_id=LocalPlayer, tag_num=0x67)
 25: 0x00C8 [0x1C] WAIT(180* ticks)
 26: 0x00CB [0x52] END_LOAD_SCHEDULER: End scheduler "s280" with entities [EventEntity, EventEntity], work=636*
 27: 0x00DA [0x45] LOAD_SCHEDULED_TASK: Load scheduler "s281" with entities [EventEntity, EventEntity], work=[636*, 0*]
 28: 0x00EB [0x2A] GET_REQ_LEVEL(level=16, entity_id=LocalPlayer)
 29: 0x00F1 [0x1C] WAIT(30* ticks)
 30: 0x00F4 [0x4A] Harnek (ID: 17780749/0x010F500D) looks at LocalPlayer
 31: 0x00FD [0x6F] WAIT_FRAME_DELAY: Yield until WaitTime reaches zero
 32: 0x00FE [0x76] CHECK_ENTITY_RENDER_FLAGS: Wait until Harnek (ID: 17780749/0x010F500D) Render.Flags0 and Render.Flags3 conditions are met
 33: 0x0103 [0x1C] WAIT(30* ticks)
 34: 0x0106 [0x03] Work_Zone_1700[0] = 60*
 35: 0x010B [0x27] REQ_SET(priority=0x10, entity_id=Harnek (ID: 17780749/0x010F500D), tag_num=0x0E)
 36: 0x0112 [0x2B] Harnek (ID: 17780749/0x010F500D) [10424*]:
    → "Welcome to the one and only Tenshodo. If you're looking to purchase something, the counter is right over--"
 37: 0x0119 [0x23] WAIT_FOR_DIALOG_INTERACTION
 38: 0x011A [0x2A] GET_REQ_LEVEL(level=16, entity_id=Harnek (ID: 17780749/0x010F500D))
 39: 0x0120 [0x66] LOAD_EXT_SCHEDULER_MAIN: Load scheduler "ten0" with entities [Harnek (ID: 17780749/0x010F500D), Harnek (ID: 17780749/0x010F500D)], work=0*
 40: 0x012F [0x4E] SET_ENTITY_HIDE_FLAG: Show Talib (ID: 17780962/0x010F50E2)
 41: 0x0135 [0x27] REQ_SET(priority=0x10, entity_id=Talib (ID: 17780962/0x010F50E2), tag_num=0x02)
 42: 0x013C [0x4D] EventEntity->StatusEvent = 9 // Close door
 43: 0x013D [0x52] END_LOAD_SCHEDULER: End scheduler "s281" with entities [EventEntity, EventEntity], work=636*
 44: 0x014C [0x45] LOAD_SCHEDULED_TASK: Load scheduler "s282" with entities [EventEntity, EventEntity], work=[636*, 0*]
 45: 0x015D [0x2A] GET_REQ_LEVEL(level=16, entity_id=Talib (ID: 17780962/0x010F50E2))
 46: 0x0163 [0x1C] WAIT(30* ticks)
 47: 0x0166 [0x03] Work_Zone_1700[0] = 60*
 48: 0x016B [0x27] REQ_SET(priority=0x10, entity_id=Talib (ID: 17780962/0x010F50E2), tag_num=0x04)
 49: 0x0172 [0x2B] Talib (ID: 17780962/0x010F50E2) [10425*]:
    → "Hey there. Is it ready?"
 50: 0x0179 [0x23] WAIT_FOR_DIALOG_INTERACTION
 51: 0x017A [0x2A] GET_REQ_LEVEL(level=16, entity_id=Talib (ID: 17780962/0x010F50E2))
 52: 0x0180 [0x66] LOAD_EXT_SCHEDULER_MAIN: Load scheduler "tlk1" with entities [Talib (ID: 17780962/0x010F50E2), Talib (ID: 17780962/0x010F50E2)], work=149*
 53: 0x018F [0x4A] Harnek (ID: 17780749/0x010F500D) looks at Talib (ID: 17780962/0x010F50E2)
 54: 0x0198 [0x1C] WAIT(30* ticks)
 55: 0x019B [0x4A] LocalPlayer looks at Talib (ID: 17780962/0x010F50E2)
 56: 0x01A4 [0x1C] WAIT(15* ticks)
 57: 0x01A7 [0x52] END_LOAD_SCHEDULER: End scheduler "s282" with entities [EventEntity, EventEntity], work=636*
 58: 0x01B6 [0x45] LOAD_SCHEDULED_TASK: Load scheduler "s283" with entities [EventEntity, EventEntity], work=[636*, 0*]
 59: 0x01C7 [0x03] Work_Zone_1700[0] = 60*
 60: 0x01CC [0x27] REQ_SET(priority=0x10, entity_id=Harnek (ID: 17780749/0x010F500D), tag_num=0x0E)
 61: 0x01D3 [0x2B] Harnek (ID: 17780749/0x010F500D) [10426*]:
    → "It's in the drawer, as always. Go back there and have them bring it out."
 62: 0x01DA [0x23] WAIT_FOR_DIALOG_INTERACTION
 63: 0x01DB [0x2B] Harnek (ID: 17780749/0x010F500D) [10427*]:
    → "So? How've you been?"
 64: 0x01E2 [0x23] WAIT_FOR_DIALOG_INTERACTION
 65: 0x01E3 [0x2A] GET_REQ_LEVEL(level=16, entity_id=Harnek (ID: 17780749/0x010F500D))
 66: 0x01E9 [0x66] LOAD_EXT_SCHEDULER_MAIN: Load scheduler "ten0" with entities [Harnek (ID: 17780749/0x010F500D), Harnek (ID: 17780749/0x010F500D)], work=0*
 67: 0x01F8 [0x52] END_LOAD_SCHEDULER: End scheduler "s283" with entities [EventEntity, EventEntity], work=636*
 68: 0x0207 [0x45] LOAD_SCHEDULED_TASK: Load scheduler "s284" with entities [EventEntity, EventEntity], work=[636*, 0*]
 69: 0x0218 [0x1C] WAIT(30* ticks)
 70: 0x021B [0x03] Work_Zone_1700[0] = 180*
 71: 0x0220 [0x27] REQ_SET(priority=0x10, entity_id=Talib (ID: 17780962/0x010F50E2), tag_num=0x06)
 72: 0x0227 [0x2B] Talib (ID: 17780962/0x010F50E2) [10428*]:
    → "You know how it is. Always in search of something juicy that'll make some quick gil."
 73: 0x022E [0x23] WAIT_FOR_DIALOG_INTERACTION
 74: 0x022F [0x2B] Talib (ID: 17780962/0x010F50E2) [10429*]:
    → "Hah, you and I both know that things are never that easy."
 75: 0x0236 [0x23] WAIT_FOR_DIALOG_INTERACTION
 76: 0x0237 [0x2A] GET_REQ_LEVEL(level=16, entity_id=Talib (ID: 17780962/0x010F50E2))
 77: 0x023D [0x52] END_LOAD_SCHEDULER: End scheduler "s284" with entities [EventEntity, EventEntity], work=636*
 78: 0x024C [0x45] LOAD_SCHEDULED_TASK: Load scheduler "s285" with entities [EventEntity, EventEntity], work=[636*, 0*]
 79: 0x025D [0x27] REQ_SET(priority=0x10, entity_id=LocalPlayer, tag_num=0x68)
 80: 0x0264 [0x1C] WAIT(60* ticks)
 81: 0x0267 [0x27] REQ_SET(priority=0x10, entity_id=Talib (ID: 17780962/0x010F50E2), tag_num=0x03)
 82: 0x026E [0x1C] WAIT(240* ticks)
 83: 0x0271 [0x7B] Harnek (ID: 17780749/0x010F500D) stops talking
 84: 0x0276 [0x4A] Harnek (ID: 17780749/0x010F500D) looks at LocalPlayer
 85: 0x027F [0x52] END_LOAD_SCHEDULER: End scheduler "s285" with entities [EventEntity, EventEntity], work=636*
 86: 0x028E [0x4E] SET_ENTITY_HIDE_FLAG: Hide Talib (ID: 17780962/0x010F50E2)
 87: 0x0294 [0x45] LOAD_SCHEDULED_TASK: Load scheduler "s286" with entities [EventEntity, EventEntity], work=[636*, 0*]
 88: 0x02A5 [0x1C] WAIT(30* ticks)
 89: 0x02A8 [0x4A] LocalPlayer looks at Harnek (ID: 17780749/0x010F500D)
 90: 0x02B1 [0x6F] WAIT_FRAME_DELAY: Yield until WaitTime reaches zero
 91: 0x02B2 [0x76] CHECK_ENTITY_RENDER_FLAGS: Wait until LocalPlayer Render.Flags0 and Render.Flags3 conditions are met
 92: 0x02B7 [0x29] REQ_SET_WAIT(priority=0x10, entity_id=LocalPlayer, tag_num=0x04)
 93: 0x02BE [0x03] Work_Zone[3] = 90*
 94: 0x02C3 [0x27] REQ_SET(priority=0x10, entity_id=LocalPlayer, tag_num=0x66)
 95: 0x02CA [0x2A] GET_REQ_LEVEL(level=16, entity_id=LocalPlayer)
 96: 0x02D0 [0x1C] WAIT(20* ticks)
 97: 0x02D3 [0x03] Work_Zone_1700[0] = 90*
 98: 0x02D8 [0x27] REQ_SET(priority=0x10, entity_id=Harnek (ID: 17780749/0x010F500D), tag_num=0x0E)
 99: 0x02DF [0x2B] Harnek (ID: 17780749/0x010F500D) [10430*]:
    → "You're not here to see some of our wares?"
100: 0x02E6 [0x23] WAIT_FOR_DIALOG_INTERACTION
101: 0x02E7 [0x2B] Harnek (ID: 17780749/0x010F500D) [10431*]:
    → "Mid? He sent you to see the boss? I see. Well, don't just stand there--follow me."
102: 0x02EE [0x23] WAIT_FOR_DIALOG_INTERACTION
103: 0x02EF [0x2A] GET_REQ_LEVEL(level=16, entity_id=Harnek (ID: 17780749/0x010F500D))
104: 0x02F5 [0x66] LOAD_EXT_SCHEDULER_MAIN: Load scheduler "ten0" with entities [Harnek (ID: 17780749/0x010F500D), Harnek (ID: 17780749/0x010F500D)], work=0*
105: 0x0304 [0x7B] Harnek (ID: 17780749/0x010F500D) stops talking
106: 0x0309 [0x1C] WAIT(60* ticks)
107: 0x030C [0x27] REQ_SET(priority=0x10, entity_id=Harnek (ID: 17780749/0x010F500D), tag_num=0x0C)
108: 0x0313 [0x7B] LocalPlayer stops talking
109: 0x0318 [0x1C] WAIT(90* ticks)
110: 0x031B [0x27] REQ_SET(priority=0x10, entity_id=LocalPlayer, tag_num=0x69)
111: 0x0322 [0x1C] WAIT(60* ticks)
112: 0x0325 [0x52] END_LOAD_SCHEDULER: End scheduler "s286" with entities [EventEntity, EventEntity], work=636*
113: 0x0334 [0x45] LOAD_SCHEDULED_TASK: Load scheduler "s287" with entities [EventEntity, EventEntity], work=[636*, 0*]
114: 0x0345 [0x1C] WAIT(180* ticks)
115: 0x0348 [0x52] END_LOAD_SCHEDULER: End scheduler "s287" with entities [EventEntity, EventEntity], work=636*
116: 0x0357 [0x45] LOAD_SCHEDULED_TASK: Load scheduler "fdo1" with entities [LocalPlayer, LocalPlayer], work=[200*, 0*]
117: 0x0368 [0x75] LOAD_ROOM(Load indoor room, room=456*)
118: 0x036C [0x75] LOAD_ROOM(No action)
119: 0x036E [0x4E] SET_ENTITY_HIDE_FLAG: Show Aldo (ID: 17780743/0x010F5007)
120: 0x0374 [0x4E] SET_ENTITY_HIDE_FLAG: Show Garnev (ID: 17780747/0x010F500B)
121: 0x037A [0x4E] SET_ENTITY_HIDE_FLAG: Show Yin Pocanakhu (ID: 17780748/0x010F500C)
122: 0x0380 [0x4E] SET_ENTITY_HIDE_FLAG: Show Vola (ID: 17780795/0x010F503B)
123: 0x0386 [0x4E] SET_ENTITY_HIDE_FLAG: Show Liki Steligho (ID: 17780941/0x010F50CD)
124: 0x038C [0x4E] SET_ENTITY_HIDE_FLAG: Show Treasure Coffer (ID: 17780942/0x010F50CE)
125: 0x0392 [0x4E] SET_ENTITY_HIDE_FLAG: Show Sattal-Mansal (ID: 17780750/0x010F500E)
126: 0x0398 [0x4E] SET_ENTITY_HIDE_FLAG: Show Faursel (ID: 17780924/0x010F50BC)
127: 0x039E [0x4E] SET_ENTITY_HIDE_FLAG: Show Akamafula (ID: 17780857/0x010F5079)
128: 0x03A4 [0x4E] SET_ENTITY_HIDE_FLAG: Show Amalasanda (ID: 17780858/0x010F507A)
129: 0x03AA [0x4E] SET_ENTITY_HIDE_FLAG: Show Talib (ID: 17780962/0x010F50E2)
130: 0x03B0 [0x92] Aldo (ID: 17780743/0x010F5007)->Render.Flags3 ^= 0x01
131: 0x03B6 [0x92] Garnev (ID: 17780747/0x010F500B)->Render.Flags3 ^= 0x01
132: 0x03BC [0x92] Yin Pocanakhu (ID: 17780748/0x010F500C)->Render.Flags3 ^= 0x01
133: 0x03C2 [0x92] Vola (ID: 17780795/0x010F503B)->Render.Flags3 ^= 0x01
134: 0x03C8 [0x92] Liki Steligho (ID: 17780941/0x010F50CD)->Render.Flags3 ^= 0x01
135: 0x03CE [0x92] Sattal-Mansal (ID: 17780750/0x010F500E)->Render.Flags3 ^= 0x01
136: 0x03D4 [0x92] Faursel (ID: 17780924/0x010F50BC)->Render.Flags3 ^= 0x01
137: 0x03DA [0x92] Akamafula (ID: 17780857/0x010F5079)->Render.Flags3 ^= 0x01
138: 0x03E0 [0x92] Amalasanda (ID: 17780858/0x010F507A)->Render.Flags3 ^= 0x01
139: 0x03E6 [0x94] Aldo (ID: 17780743/0x010F5007)->Render.Flags3 ^= 0x01
140: 0x03EC [0x94] Garnev (ID: 17780747/0x010F500B)->Render.Flags3 ^= 0x01
141: 0x03F2 [0x94] Yin Pocanakhu (ID: 17780748/0x010F500C)->Render.Flags3 ^= 0x01
142: 0x03F8 [0x94] Vola (ID: 17780795/0x010F503B)->Render.Flags3 ^= 0x01
143: 0x03FE [0x94] Liki Steligho (ID: 17780941/0x010F50CD)->Render.Flags3 ^= 0x01
144: 0x0404 [0x94] Sattal-Mansal (ID: 17780750/0x010F500E)->Render.Flags3 ^= 0x01
145: 0x040A [0x94] Faursel (ID: 17780924/0x010F50BC)->Render.Flags3 ^= 0x01
146: 0x0410 [0x94] Akamafula (ID: 17780857/0x010F5079)->Render.Flags3 ^= 0x01
147: 0x0416 [0x94] Amalasanda (ID: 17780858/0x010F507A)->Render.Flags3 ^= 0x01
148: 0x041C [0xBA] SET_ENTITY_POSITION(entity_id=Aldo (ID: 17780743/0x010F5007), pos_x=38.098*, pos_z=-58.484*, pos_y=3.500*, direction=377476151.8°*)
149: 0x0429 [0xBA] SET_ENTITY_POSITION(entity_id=Talib (ID: 17780962/0x010F50E2), pos_x=38.000*, pos_z=-41.000*, pos_y=3.900*, direction=377476164.4°*)
150: 0x0436 [0xBA] SET_ENTITY_POSITION(entity_id=Yin Pocanakhu (ID: 17780748/0x010F500C), pos_x=37.859*, pos_z=-47.586*, pos_y=4.117*, direction=224.9°*)
151: 0x0443 [0x80] LOAD_WAIT(entity=Aldo (ID: 17780743/0x010F5007))
152: 0x0448 [0x80] LOAD_WAIT(entity=Garnev (ID: 17780747/0x010F500B))
153: 0x044D [0x80] LOAD_WAIT(entity=Yin Pocanakhu (ID: 17780748/0x010F500C))
154: 0x0452 [0x80] LOAD_WAIT(entity=Vola (ID: 17780795/0x010F503B))
155: 0x0457 [0x80] LOAD_WAIT(entity=Liki Steligho (ID: 17780941/0x010F50CD))
156: 0x045C [0x80] LOAD_WAIT(entity=Treasure Coffer (ID: 17780942/0x010F50CE))
157: 0x0461 [0x80] LOAD_WAIT(entity=Sattal-Mansal (ID: 17780750/0x010F500E))
158: 0x0466 [0x80] LOAD_WAIT(entity=Faursel (ID: 17780924/0x010F50BC))
159: 0x046B [0x80] LOAD_WAIT(entity=Akamafula (ID: 17780857/0x010F5079))
160: 0x0470 [0x80] LOAD_WAIT(entity=Amalasanda (ID: 17780858/0x010F507A))
161: 0x0475 [0x80] LOAD_WAIT(entity=Talib (ID: 17780962/0x010F50E2))
162: 0x047A [0x55] WAIT_LOAD_SCHEDULER: Wait for scheduler "fdo1" with entities [LocalPlayer, LocalPlayer], work=200*
163: 0x0489 [0x7A] VM_CONTROL: Reset VM for Harnek (ID: 17780749/0x010F500D)
164: 0x048F [0x7A] VM_CONTROL: Reset VM for LocalPlayer
165: 0x0495 [0xBA] SET_ENTITY_POSITION(entity_id=Harnek (ID: 17780749/0x010F500D), pos_x=34.223*, pos_z=-40.011*, pos_y=3.900*, direction=89.9°*)
166: 0x04A2 [0xBA] SET_ENTITY_POSITION(entity_id=LocalPlayer, pos_x=33.181*, pos_z=-38.486*, pos_y=3.900*, direction=89.9°*)
167: 0x04AF [0x80] LOAD_WAIT(entity=Harnek (ID: 17780749/0x010F500D))
168: 0x04B4 [0x80] LOAD_WAIT(entity=LocalPlayer)
169: 0x04B9 [0x27] REQ_SET(priority=0x10, entity_id=Harnek (ID: 17780749/0x010F500D), tag_num=0x0D)
170: 0x04C0 [0x27] REQ_SET(priority=0x10, entity_id=LocalPlayer, tag_num=0x6A)
171: 0x04C7 [0x45] LOAD_SCHEDULED_TASK: Load scheduler "fdi1" with entities [LocalPlayer, LocalPlayer], work=[200*, 0*]
172: 0x04D8 [0x45] LOAD_SCHEDULED_TASK: Load scheduler "s288" with entities [EventEntity, EventEntity], work=[636*, 0*]
173: 0x04E9 [0x1C] WAIT(180* ticks)
174: 0x04EC [0x52] END_LOAD_SCHEDULER: End scheduler "s288" with entities [EventEntity, EventEntity], work=636*
175: 0x04FB [0x45] LOAD_SCHEDULED_TASK: Load scheduler "s289" with entities [EventEntity, EventEntity], work=[636*, 0*]
176: 0x050C [0x1C] WAIT(30* ticks)
177: 0x050F [0x27] REQ_SET(priority=0x10, entity_id=Door:Tenshodo H.Q. (ID: 17780836/0x010F5064), tag_num=0x02)
178: 0x0516 [0x27] REQ_SET(priority=0x10, entity_id=Aldo (ID: 17780743/0x010F5007), tag_num=0x5F)
179: 0x051D [0x1C] WAIT(180* ticks)
180: 0x0520 [0x27] REQ_SET(priority=0x10, entity_id=Door:Tenshodo H.Q. (ID: 17780836/0x010F5064), tag_num=0x03)
181: 0x0527 [0x1C] WAIT(120* ticks)
182: 0x052A [0x52] END_LOAD_SCHEDULER: End scheduler "s289" with entities [EventEntity, EventEntity], work=636*
183: 0x0539 [0x45] LOAD_SCHEDULED_TASK: Load scheduler "s290" with entities [EventEntity, EventEntity], work=[636*, 0*]
184: 0x054A [0x7A] VM_CONTROL: Reset VM for Aldo (ID: 17780743/0x010F5007)
185: 0x0550 [0x27] REQ_SET(priority=0x10, entity_id=Aldo (ID: 17780743/0x010F5007), tag_num=0x60)
186: 0x0557 [0x2A] GET_REQ_LEVEL(level=16, entity_id=Aldo (ID: 17780743/0x010F5007))
187: 0x055D [0x4A] Aldo (ID: 17780743/0x010F5007) looks at LocalPlayer
188: 0x0566 [0x2B] Aldo (ID: 17780743/0x010F5007) [10432*]:
    → "A guest? Oh hey, it's <Player>!"
189: 0x056D [0x23] WAIT_FOR_DIALOG_INTERACTION
190: 0x056E [0x4A] LocalPlayer looks at Aldo (ID: 17780743/0x010F5007)
191: 0x0577 [0x4A] Harnek (ID: 17780749/0x010F500D) looks at Aldo (ID: 17780743/0x010F5007)
192: 0x0580 [0x52] END_LOAD_SCHEDULER: End scheduler "s290" with entities [EventEntity, EventEntity], work=636*
193: 0x058F [0x45] LOAD_SCHEDULED_TASK: Load scheduler "s291" with entities [EventEntity, EventEntity], work=[636*, 0*]
194: 0x05A0 [0x4A] Aldo (ID: 17780743/0x010F5007) looks at Harnek (ID: 17780749/0x010F500D)
195: 0x05A9 [0x03] Work_Zone_1700[0] = 60*
196: 0x05AE [0x27] REQ_SET(priority=0x10, entity_id=Harnek (ID: 17780749/0x010F500D), tag_num=0x0E)
197: 0x05B5 [0x2B] Harnek (ID: 17780749/0x010F500D) [10433*]:
    → "[He/She] says [he's/she's] here on an errand from Mid. Got somethin' to give you."
198: 0x05BC [0x23] WAIT_FOR_DIALOG_INTERACTION
199: 0x05BD [0x2A] GET_REQ_LEVEL(level=16, entity_id=Harnek (ID: 17780749/0x010F500D))
200: 0x05C3 [0x4A] Aldo (ID: 17780743/0x010F5007) looks at LocalPlayer
201: 0x05CC [0x66] LOAD_EXT_SCHEDULER_MAIN: Load scheduler "ten0" with entities [Harnek (ID: 17780749/0x010F500D), Harnek (ID: 17780749/0x010F500D)], work=0*
202: 0x05DB [0x52] END_LOAD_SCHEDULER: End scheduler "s291" with entities [EventEntity, EventEntity], work=636*
203: 0x05EA [0x29] REQ_SET_WAIT(priority=0x10, entity_id=LocalPlayer, tag_num=0x04)
204: 0x05F1 [0x02] IF !(Work_Zone[2] == 5*) GOTO 0x060D
205: 0x05F9 [0x45] LOAD_SCHEDULED_TASK: Load scheduler "s277" with entities [EventEntity, EventEntity], work=[636*, 0*]
206: 0x060A [0x01] GOTO 0x063A
207: 0x060D [0x02] IF !(Work_Zone[2] == 6*) GOTO 0x0629
208: 0x0615 [0x45] LOAD_SCHEDULED_TASK: Load scheduler "s277" with entities [EventEntity, EventEntity], work=[636*, 0*]
209: 0x0626 [0x01] GOTO 0x063A
210: 0x0629 [0x45] LOAD_SCHEDULED_TASK: Load scheduler "s292" with entities [EventEntity, EventEntity], work=[636*, 0*]

SUBROUTINE_063A:
211: 0x063A [0x27] REQ_SET(priority=0x10, entity_id=Aldo (ID: 17780743/0x010F5007), tag_num=0x2F)
212: 0x0641 [0x2B] Aldo (ID: 17780743/0x010F5007) [10434*]:
    → "From Mid... So you've come all the way from Adoulin, then?"
213: 0x0648 [0x23] WAIT_FOR_DIALOG_INTERACTION
214: 0x0649 [0x2B] Aldo (ID: 17780743/0x010F5007) [10435*]:
    → "Aha--you applied for that pioneer nonsense, did you?"
215: 0x0650 [0x23] WAIT_FOR_DIALOG_INTERACTION
216: 0x0651 [0x27] REQ_SET(priority=0x10, entity_id=Aldo (ID: 17780743/0x010F5007), tag_num=0x30)
217: 0x0658 [0x2A] GET_REQ_LEVEL(level=16, entity_id=Aldo (ID: 17780743/0x010F5007))
218: 0x065E [0x03] Work_Zone_1700[0] = 90*
219: 0x0663 [0x27] REQ_SET(priority=0x10, entity_id=LocalPlayer, tag_num=0x6B)
220: 0x066A [0x2A] GET_REQ_LEVEL(level=16, entity_id=LocalPlayer)
221: 0x0670 [0x02] IF !(Work_Zone[2] == 5*) GOTO 0x068A
222: 0x0678 [0x52] END_LOAD_SCHEDULER: End scheduler "s277" with entities [EventEntity, EventEntity], work=636*
223: 0x0687 [0x01] GOTO 0x06B3
224: 0x068A [0x02] IF !(Work_Zone[2] == 6*) GOTO 0x06A4
225: 0x0692 [0x52] END_LOAD_SCHEDULER: End scheduler "s277" with entities [EventEntity, EventEntity], work=636*
226: 0x06A1 [0x01] GOTO 0x06B3
227: 0x06A4 [0x52] END_LOAD_SCHEDULER: End scheduler "s292" with entities [EventEntity, EventEntity], work=636*

SUBROUTINE_06B3:
228: 0x06B3 [0x45] LOAD_SCHEDULED_TASK: Load scheduler "s293" with entities [EventEntity, EventEntity], work=[636*, 0*]
229: 0x06C4 [0x27] REQ_SET(priority=0x10, entity_id=Aldo (ID: 17780743/0x010F5007), tag_num=0x2F)
230: 0x06CB [0x2B] Aldo (ID: 17780743/0x010F5007) [10436*]:
    → "Well, what you do is your business. Let me see what Mid had you bring."
231: 0x06D2 [0x23] WAIT_FOR_DIALOG_INTERACTION
232: 0x06D3 [0x27] REQ_SET(priority=0x10, entity_id=Aldo (ID: 17780743/0x010F5007), tag_num=0x30)
233: 0x06DA [0x27] REQ_SET(priority=0x10, entity_id=LocalPlayer, tag_num=0x6C)
234: 0x06E1 [0x1C] WAIT(150* ticks)
235: 0x06E4 [0x03] Work_Zone[2] = 2376*
236: 0x06E9 [0x03] Work_Zone[3] = 2377*
237: 0x06EE [0x48] [System] [10437*]:
    → "You hand over $6 and $6."
238: 0x06F1 [0x2A] GET_REQ_LEVEL(level=16, entity_id=Aldo (ID: 17780743/0x010F5007))
239: 0x06F7 [0x1C] WAIT(120* ticks)
240: 0x06FA [0x7B] Aldo (ID: 17780743/0x010F5007) stops talking
241: 0x06FF [0x52] END_LOAD_SCHEDULER: End scheduler "s293" with entities [EventEntity, EventEntity], work=636*
242: 0x070E [0x45] LOAD_SCHEDULED_TASK: Load scheduler "s294" with entities [EventEntity, EventEntity], work=[636*, 0*]
243: 0x071F [0x27] REQ_SET(priority=0x10, entity_id=Aldo (ID: 17780743/0x010F5007), tag_num=0x33)
244: 0x0726 [0x2B] Aldo (ID: 17780743/0x010F5007) [10438*]:
    → "Oh ho, he made a new kind of explosive, did he?"
245: 0x072D [0x23] WAIT_FOR_DIALOG_INTERACTION
246: 0x072E [0x27] REQ_SET(priority=0x10, entity_id=Aldo (ID: 17780743/0x010F5007), tag_num=0x35)
247: 0x0735 [0x2B] Aldo (ID: 17780743/0x010F5007) [10439*]:
    → "Using a chemical reaction to set things in motion... Sounds exactly like something he would do."
248: 0x073C [0x23] WAIT_FOR_DIALOG_INTERACTION
249: 0x073D [0x52] END_LOAD_SCHEDULER: End scheduler "s294" with entities [EventEntity, EventEntity], work=636*
250: 0x074C [0x45] LOAD_SCHEDULED_TASK: Load scheduler "s295" with entities [EventEntity, EventEntity], work=[636*, 0*]
251: 0x075D [0x81] SET_ENTITY_BLINKING(blink_flag=0x00, entity=Aldo (ID: 17780743/0x010F5007))
252: 0x0763 [0x2B] Aldo (ID: 17780743/0x010F5007) [10440*]:
    → "Oh? There's more...?"
253: 0x076A [0x23] WAIT_FOR_DIALOG_INTERACTION
254: 0x076B [0x52] END_LOAD_SCHEDULER: End scheduler "s295" with entities [EventEntity, EventEntity], work=636*
255: 0x077A [0x45] LOAD_SCHEDULED_TASK: Load scheduler "s296" with entities [EventEntity, EventEntity], work=[636*, 0*]
256: 0x078B [0x81] SET_ENTITY_BLINKING(blink_flag=0x01, entity=Aldo (ID: 17780743/0x010F5007))
257: 0x0791 [0x2B] Aldo (ID: 17780743/0x010F5007) [10441*]:
    → "What's this now--some kind of report detailing information on Adoulin's technology and organizational structure?"
258: 0x0798 [0x23] WAIT_FOR_DIALOG_INTERACTION
259: 0x0799 [0x2B] Aldo (ID: 17780743/0x010F5007) [10442*]:
    → "Somehow I don't think he meant for us to have this. What could he possibly be on about?"
260: 0x07A0 [0x23] WAIT_FOR_DIALOG_INTERACTION
261: 0x07A1 [0x52] END_LOAD_SCHEDULER: End scheduler "s296" with entities [EventEntity, EventEntity], work=636*
262: 0x07B0 [0x45] LOAD_SCHEDULED_TASK: Load scheduler "s273" with entities [EventEntity, EventEntity], work=[636*, 0*]
263: 0x07C1 [0x1C] WAIT(30* ticks)
264: 0x07C4 [0x03] Work_Zone_1700[0] = 60*
265: 0x07C9 [0x27] REQ_SET(priority=0x10, entity_id=Harnek (ID: 17780749/0x010F500D), tag_num=0x0E)
266: 0x07D0 [0x2B] Harnek (ID: 17780749/0x010F500D) [10443*]:
    → "Boss, if Cid were to find out about this..."
267: 0x07D7 [0x23] WAIT_FOR_DIALOG_INTERACTION
268: 0x07D8 [0x2A] GET_REQ_LEVEL(level=16, entity_id=Harnek (ID: 17780749/0x010F500D))
269: 0x07DE [0x27] REQ_SET(priority=0x10, entity_id=Aldo (ID: 17780743/0x010F5007), tag_num=0x36)
270: 0x07E5 [0x2A] GET_REQ_LEVEL(level=16, entity_id=Aldo (ID: 17780743/0x010F5007))
271: 0x07EB [0x66] LOAD_EXT_SCHEDULER_MAIN: Load scheduler "ten0" with entities [Harnek (ID: 17780749/0x010F500D), Harnek (ID: 17780749/0x010F500D)], work=0*
272: 0x07FA [0x4A] Aldo (ID: 17780743/0x010F5007) looks at Harnek (ID: 17780749/0x010F500D)
273: 0x0803 [0x52] END_LOAD_SCHEDULER: End scheduler "s273" with entities [EventEntity, EventEntity], work=636*
274: 0x0812 [0x45] LOAD_SCHEDULED_TASK: Load scheduler "s297" with entities [EventEntity, EventEntity], work=[636*, 0*]
275: 0x0823 [0x6F] WAIT_FRAME_DELAY: Yield until WaitTime reaches zero
276: 0x0824 [0x76] CHECK_ENTITY_RENDER_FLAGS: Wait until Aldo (ID: 17780743/0x010F5007) Render.Flags0 and Render.Flags3 conditions are met
277: 0x0829 [0x27] REQ_SET(priority=0x10, entity_id=Aldo (ID: 17780743/0x010F5007), tag_num=0x31)
278: 0x0830 [0x2B] Aldo (ID: 17780743/0x010F5007) [10444*]:
    → "Oh, I know all too well. His rage would be the least of our worries. Mid might even get himself expelled from Adoulin entirely."
279: 0x0837 [0x23] WAIT_FOR_DIALOG_INTERACTION
280: 0x0838 [0x2B] Aldo (ID: 17780743/0x010F5007) [10445*]:
    → "But we shouldn't stick our noses where they don't belong."
281: 0x083F [0x23] WAIT_FOR_DIALOG_INTERACTION
282: 0x0840 [0x2A] GET_REQ_LEVEL(level=16, entity_id=Aldo (ID: 17780743/0x010F5007))
283: 0x0846 [0x55] WAIT_LOAD_SCHEDULER: Wait for scheduler "s297" with entities [EventEntity, EventEntity], work=636*
284: 0x0855 [0x45] LOAD_SCHEDULED_TASK: Load scheduler "s298" with entities [EventEntity, EventEntity], work=[636*, 0*]
285: 0x0866 [0x1C] WAIT(60* ticks)
286: 0x0869 [0x29] REQ_SET_WAIT(priority=0x10, entity_id=Aldo (ID: 17780743/0x010F5007), tag_num=0x61)
287: 0x0870 [0x27] REQ_SET(priority=0x10, entity_id=Aldo (ID: 17780743/0x010F5007), tag_num=0x33)
288: 0x0877 [0x2B] Aldo (ID: 17780743/0x010F5007) [10446*]:
    → "This whole affair must never leave these walls. Consider that to be a direct order."
289: 0x087E [0x23] WAIT_FOR_DIALOG_INTERACTION
290: 0x087F [0x2A] GET_REQ_LEVEL(level=16, entity_id=Aldo (ID: 17780743/0x010F5007))
291: 0x0885 [0x1C] WAIT(10* ticks)
292: 0x0888 [0x4A] Garnev (ID: 17780747/0x010F500B) looks at Aldo (ID: 17780743/0x010F5007)
293: 0x0891 [0x1C] WAIT(10* ticks)
294: 0x0894 [0x4A] Yin Pocanakhu (ID: 17780748/0x010F500C) looks at Aldo (ID: 17780743/0x010F5007)
295: 0x089D [0x4A] Vola (ID: 17780795/0x010F503B) looks at Aldo (ID: 17780743/0x010F5007)
296: 0x08A6 [0x1C] WAIT(10* ticks)
297: 0x08A9 [0x4A] Liki Steligho (ID: 17780941/0x010F50CD) looks at Aldo (ID: 17780743/0x010F5007)
298: 0x08B2 [0x1C] WAIT(10* ticks)
299: 0x08B5 [0x4A] Sattal-Mansal (ID: 17780750/0x010F500E) looks at Aldo (ID: 17780743/0x010F5007)
300: 0x08BE [0x4A] Faursel (ID: 17780924/0x010F50BC) looks at Aldo (ID: 17780743/0x010F5007)
301: 0x08C7 [0x4A] Akamafula (ID: 17780857/0x010F5079) looks at Aldo (ID: 17780743/0x010F5007)
302: 0x08D0 [0x4A] Amalasanda (ID: 17780858/0x010F507A) looks at Aldo (ID: 17780743/0x010F5007)
303: 0x08D9 [0x4A] Talib (ID: 17780962/0x010F50E2) looks at Aldo (ID: 17780743/0x010F5007)
304: 0x08E2 [0x27] REQ_SET(priority=0x10, entity_id=Aldo (ID: 17780743/0x010F5007), tag_num=0x34)
305: 0x08E9 [0x1C] WAIT(60* ticks)
306: 0x08EC [0x52] END_LOAD_SCHEDULER: End scheduler "s298" with entities [EventEntity, EventEntity], work=636*
307: 0x08FB [0x29] REQ_SET_WAIT(priority=0x10, entity_id=LocalPlayer, tag_num=0x04)
308: 0x0902 [0x02] IF !(Work_Zone[2] == 5*) GOTO 0x091E
309: 0x090A [0x45] LOAD_SCHEDULED_TASK: Load scheduler "s276" with entities [EventEntity, EventEntity], work=[636*, 0*]
310: 0x091B [0x01] GOTO 0x094B
311: 0x091E [0x02] IF !(Work_Zone[2] == 6*) GOTO 0x093A
312: 0x0926 [0x45] LOAD_SCHEDULED_TASK: Load scheduler "s276" with entities [EventEntity, EventEntity], work=[636*, 0*]
313: 0x0937 [0x01] GOTO 0x094B
314: 0x093A [0x45] LOAD_SCHEDULED_TASK: Load scheduler "s299" with entities [EventEntity, EventEntity], work=[636*, 0*]

SUBROUTINE_094B:
315: 0x094B [0x2A] GET_REQ_LEVEL(level=16, entity_id=Aldo (ID: 17780743/0x010F5007))
316: 0x0951 [0x4A] Aldo (ID: 17780743/0x010F5007) looks at LocalPlayer
317: 0x095A [0x6F] WAIT_FRAME_DELAY: Yield until WaitTime reaches zero
318: 0x095B [0x76] CHECK_ENTITY_RENDER_FLAGS: Wait until Aldo (ID: 17780743/0x010F5007) Render.Flags0 and Render.Flags3 conditions are met
319: 0x0960 [0x1C] WAIT(30* ticks)
320: 0x0963 [0x27] REQ_SET(priority=0x10, entity_id=Aldo (ID: 17780743/0x010F5007), tag_num=0x31)
321: 0x096A [0x2B] Aldo (ID: 17780743/0x010F5007) [10447*]:
    → "That goes for you too, <Player>. Pretend this whole thing didn't happen."
322: 0x0971 [0x23] WAIT_FOR_DIALOG_INTERACTION
323: 0x0972 [0x2B] Aldo (ID: 17780743/0x010F5007) [10448*]:
    → "I'll hold on to this. Nothing good could come of giving it back to Mid."
324: 0x0979 [0x23] WAIT_FOR_DIALOG_INTERACTION
325: 0x097A [0x7B] Aldo (ID: 17780743/0x010F5007) stops talking
326: 0x097F [0x02] IF !(Work_Zone[2] == 5*) GOTO 0x0999
327: 0x0987 [0x52] END_LOAD_SCHEDULER: End scheduler "s276" with entities [EventEntity, EventEntity], work=636*
328: 0x0996 [0x01] GOTO 0x09C2
329: 0x0999 [0x02] IF !(Work_Zone[2] == 6*) GOTO 0x09B3
330: 0x09A1 [0x52] END_LOAD_SCHEDULER: End scheduler "s276" with entities [EventEntity, EventEntity], work=636*
331: 0x09B0 [0x01] GOTO 0x09C2
332: 0x09B3 [0x52] END_LOAD_SCHEDULER: End scheduler "s299" with entities [EventEntity, EventEntity], work=636*

SUBROUTINE_09C2:
333: 0x09C2 [0x45] LOAD_SCHEDULED_TASK: Load scheduler "s272" with entities [EventEntity, EventEntity], work=[636*, 0*]
334: 0x09D3 [0x81] SET_ENTITY_BLINKING(blink_flag=0x00, entity=Aldo (ID: 17780743/0x010F5007))
335: 0x09D9 [0x1C] WAIT(30* ticks)
336: 0x09DC [0x2B] Aldo (ID: 17780743/0x010F5007) [10449*]:
    → "Now, about those explosives--we'll have to do some research on our own before we give a definitive answer. That's our official response."
337: 0x09E3 [0x23] WAIT_FOR_DIALOG_INTERACTION
338: 0x09E4 [0x1C] WAIT(30* ticks)
339: 0x09E7 [0x81] SET_ENTITY_BLINKING(blink_flag=0x01, entity=Aldo (ID: 17780743/0x010F5007))
340: 0x09ED [0x79] Aldo (ID: 17780743/0x010F5007) looks at LocalPlayer (Basic look)
341: 0x09F7 [0x52] END_LOAD_SCHEDULER: End scheduler "s272" with entities [EventEntity, EventEntity], work=636*
342: 0x0A06 [0x45] LOAD_SCHEDULED_TASK: Load scheduler "s278" with entities [EventEntity, EventEntity], work=[636*, 0*]
343: 0x0A17 [0x1C] WAIT(60* ticks)
344: 0x0A1A [0x2B] Aldo (ID: 17780743/0x010F5007) [10450*]:
    → "So head back to Adoulin and let Midras know...only what he needs to know. And don't get in over your head, hear?"
345: 0x0A21 [0x23] WAIT_FOR_DIALOG_INTERACTION
346: 0x0A22 [0x2A] GET_REQ_LEVEL(level=16, entity_id=Aldo (ID: 17780743/0x010F5007))
347: 0x0A28 [0x03] Work_Zone_1700[0] = 60*
348: 0x0A2D [0x27] REQ_SET(priority=0x10, entity_id=LocalPlayer, tag_num=0x6B)
349: 0x0A34 [0x2A] GET_REQ_LEVEL(level=16, entity_id=LocalPlayer)
350: 0x0A3A [0x1C] WAIT(60* ticks)
351: 0x0A3D [0x52] END_LOAD_SCHEDULER: End scheduler "s278" with entities [EventEntity, EventEntity], work=636*
352: 0x0A4C [0x45] LOAD_SCHEDULED_TASK: Load scheduler "s279" with entities [EventEntity, EventEntity], work=[636*, 0*]
353: 0x0A5D [0x1C] WAIT(30* ticks)
354: 0x0A60 [0x7B] Talib (ID: 17780962/0x010F50E2) stops talking
355: 0x0A65 [0x27] REQ_SET(priority=0x10, entity_id=Talib (ID: 17780962/0x010F50E2), tag_num=0x05)
356: 0x0A6C [0x81] SET_ENTITY_BLINKING(blink_flag=0x00, entity=Talib (ID: 17780962/0x010F50E2))
357: 0x0A72 [0x7C] Talib (ID: 17780962/0x010F50E2)->Render.Flags2 |= 0x00
358: 0x0A78 [0x2B] Talib (ID: 17780962/0x010F50E2) [10451*]:
    → "(Well, well...this is something else!)"
359: 0x0A7F [0x23] WAIT_FOR_DIALOG_INTERACTION
360: 0x0A80 [0x2B] Talib (ID: 17780962/0x010F50E2) [10452*]:
    → "(Why would I keep this information secret when I could sell it to Cid for untold amounts of gil?)"
361: 0x0A87 [0x23] WAIT_FOR_DIALOG_INTERACTION
362: 0x0A88 [0x2B] Talib (ID: 17780962/0x010F50E2) [10453*]:
    → "(Who'd've thought such a juicy proposition would just land in my lap?)"
363: 0x0A8F [0x23] WAIT_FOR_DIALOG_INTERACTION
364: 0x0A90 [0x1C] WAIT(60* ticks)
365: 0x0A93 [0x81] SET_ENTITY_BLINKING(blink_flag=0x01, entity=Talib (ID: 17780962/0x010F50E2))
366: 0x0A99 [0x7C] Talib (ID: 17780962/0x010F50E2)->Render.Flags2 |= 0x01
367: 0x0A9F [0x45] LOAD_SCHEDULED_TASK: Load scheduler "fdo1" with entities [LocalPlayer, LocalPlayer], work=[200*, 0*]
368: 0x0AB0 [0x55] WAIT_LOAD_SCHEDULER: Wait for scheduler "fdo1" with entities [LocalPlayer, LocalPlayer], work=200*
369: 0x0ABF [0x52] END_LOAD_SCHEDULER: End scheduler "s279" with entities [EventEntity, EventEntity], work=636*
370: 0x0ACE [0x75] LOAD_ROOM(Load indoor room, room=455*)
371: 0x0AD2 [0x75] LOAD_ROOM(No action)
372: 0x0AD4 [0x46] CAMERA_CONTROL: Restore default settings
373: 0x0AD6 [0x45] LOAD_SCHEDULED_TASK: Load scheduler "fdi2" with entities [LocalPlayer, LocalPlayer], work=[200*, 0*]
374: 0x0AE7 [0x21] END_EVENT
375: 0x0AE8 [0x00] END_REQSTACK()
```
