# 17781062

## Common Data

| Field            | Value                 |
|------------------|-----------------------|
| Zone             | Lower Jeuno (ID: 245) |
| Block Size       | 60 bytes              |
| Total Events     | 2                     |
| References Count | 5                     |

## List of Events

| Event ID              | Entrypoint   |   Size |   Instructions |
|-----------------------|--------------|--------|----------------|
| [65535](#event-65535) | 0x0000       |      1 |              1 |
| [20089](#event-20089) | 0x0001       |     14 |              3 |

## DAT References (imed_data)

|   Index | Hex Value   |   Dec Value |
|---------|-------------|-------------|
|       0 | 0x012C      |         300 |
|       1 | 0xFFFEE4EA  |  4294894826 |
|       2 | 0xFFFD7B46  |  4294802246 |
|       3 | 0xFFFFE890  |  4294961296 |
|       4 | 0x0786      |        1926 |

## Events

### Event 65535

#### Metadata

| Field        | Value   |
|--------------|---------|
| Entrypoint   | 0x0000  |
| Data Size    | 1 bytes |
| Instructions | 1       |

```
      00 01 02 03 04 05 06 07  08 09 0A 0B 0C 0D 0E 0F
      -- -- -- -- -- -- -- --  -- -- -- -- -- -- -- --
0000: 00                                                .               
```

#### Opcodes

```
  0: 0x0000 [0x00] END_REQSTACK()
```

### Event 20089

#### Metadata

| Field        | Value    |
|--------------|----------|
| Entrypoint   | 0x0001   |
| Data Size    | 14 bytes |
| Instructions | 3        |

```
      00 01 02 03 04 05 06 07  08 09 0A 0B 0C 0D 0E 0F
      -- -- -- -- -- -- -- --  -- -- -- -- -- -- -- --
0000:    B6 0F 00 80 37 01 80  02 80 03 80 04 80 00      ....7......... 
```

#### Opcodes

```
  0: 0x0001 [0xB6] ENTITY_APPEARANCE_HANDLER(case=Model size, value=300*)
  1: 0x0005 [0x37] UPDATE_EVENT_POSITION_AND_DIR: x=-72.470*, z=-165.050*, y=-6.000*, direction=169.3°*
  2: 0x000E [0x00] END_REQSTACK()
```
