# 17780758 - Panta-Putta

## Common Data

| Field            | Value                 |
|------------------|-----------------------|
| Zone             | Lower Jeuno (ID: 245) |
| Block Size       | 3544 bytes            |
| Total Events     | 134                   |
| References Count | 142                   |

## List of Events

| Event ID                     | Entrypoint   |   Size |   Instructions |
|------------------------------|--------------|--------|----------------|
| [65535](#event-65535)        | 0x0000       |      4 |              2 |
| [78](#event-78)              | 0x0004       |     12 |              5 |
| [34](#event-34)              | 0x0010       |      1 |              1 |
| [77](#event-77)              | 0x0011       |      1 |              1 |
| [55](#event-55)              | 0x0012       |     22 |              8 |
| [33](#event-33)              | 0x0028       |      1 |              1 |
| [40](#event-40)              | 0x0029       |     20 |              6 |
| [30](#event-30)              | 0x003D       |     36 |             10 |
| [227](#event-227)            | 0x0061       |     10 |              4 |
| [35](#event-35)              | 0x006B       |      1 |              1 |
| [76](#event-76)              | 0x006C       |     23 |              7 |
| [65535.1](#event-655351)     | 0x0083       |     27 |              7 |
| [65535.2](#event-655352)     | 0x009E       |     23 |              6 |
| [65535.3](#event-655353)     | 0x00B5       |      4 |              2 |
| [65535.4](#event-655354)     | 0x00B9       |     14 |              4 |
| [65535.5](#event-655355)     | 0x00C7       |     43 |              9 |
| [65535.6](#event-655356)     | 0x00F2       |     14 |              4 |
| [65535.7](#event-655357)     | 0x0100       |     10 |              2 |
| [65535.8](#event-655358)     | 0x010A       |     10 |              2 |
| [65535.9](#event-655359)     | 0x0114       |     16 |              4 |
| [65535.10](#event-6553510)   | 0x0124       |     55 |             11 |
| [65535.11](#event-6553511)   | 0x015B       |     38 |              8 |
| [65535.12](#event-6553512)   | 0x0181       |      1 |              1 |
| [65535.13](#event-6553513)   | 0x0182       |     29 |              3 |
| [65535.14](#event-6553514)   | 0x019F       |     29 |              3 |
| [65535.15](#event-6553515)   | 0x01BC       |     29 |              3 |
| [65535.16](#event-6553516)   | 0x01D9       |     29 |              3 |
| [65535.17](#event-6553517)   | 0x01F6       |     29 |              3 |
| [65535.18](#event-6553518)   | 0x0213       |     29 |              3 |
| [65535.19](#event-6553519)   | 0x0230       |     29 |              3 |
| [65535.20](#event-6553520)   | 0x024D       |     29 |              3 |
| [65535.21](#event-6553521)   | 0x026A       |     29 |              3 |
| [65535.22](#event-6553522)   | 0x0287       |      9 |              3 |
| [65535.23](#event-6553523)   | 0x0290       |      4 |              2 |
| [65535.24](#event-6553524)   | 0x0294       |     29 |              3 |
| [65535.25](#event-6553525)   | 0x02B1       |     30 |              4 |
| [10094](#event-10094)        | 0x02CF       |      5 |              3 |
| [65535.26](#event-6553526)   | 0x02D4       |     20 |              5 |
| [65535.27](#event-6553527)   | 0x02E8       |     20 |              5 |
| [65535.28](#event-6553528)   | 0x02FC       |     20 |              5 |
| [65535.29](#event-6553529)   | 0x0310       |     17 |              3 |
| [65535.30](#event-6553530)   | 0x0321       |     20 |              5 |
| [65535.31](#event-6553531)   | 0x0335       |     20 |              5 |
| [65535.32](#event-6553532)   | 0x0349       |     19 |              4 |
| [65535.33](#event-6553533)   | 0x035C       |     19 |              4 |
| [65535.34](#event-6553534)   | 0x036F       |     16 |              2 |
| [65535.35](#event-6553535)   | 0x037F       |     16 |              2 |
| [65535.36](#event-6553536)   | 0x038F       |     20 |              5 |
| [65535.37](#event-6553537)   | 0x03A3       |     16 |              2 |
| [65535.38](#event-6553538)   | 0x03B3       |     16 |              2 |
| [65535.39](#event-6553539)   | 0x03C3       |     16 |              2 |
| [65535.40](#event-6553540)   | 0x03D3       |     21 |              6 |
| [65535.41](#event-6553541)   | 0x03E8       |     16 |              2 |
| [65535.42](#event-6553542)   | 0x03F8       |     16 |              2 |
| [65535.43](#event-6553543)   | 0x0408       |     20 |              5 |
| [65535.44](#event-6553544)   | 0x041C       |     17 |              3 |
| [65535.45](#event-6553545)   | 0x042D       |     20 |              5 |
| [65535.46](#event-6553546)   | 0x0441       |     16 |              2 |
| [65535.47](#event-6553547)   | 0x0451       |     16 |              2 |
| [65535.48](#event-6553548)   | 0x0461       |     16 |              2 |
| [65535.49](#event-6553549)   | 0x0471       |     16 |              2 |
| [65535.50](#event-6553550)   | 0x0481       |     16 |              2 |
| [65535.51](#event-6553551)   | 0x0491       |     16 |              2 |
| [65535.52](#event-6553552)   | 0x04A1       |     16 |              2 |
| [65535.53](#event-6553553)   | 0x04B1       |     12 |              4 |
| [65535.54](#event-6553554)   | 0x04BD       |     20 |              5 |
| [65535.55](#event-6553555)   | 0x04D1       |     17 |              3 |
| [65535.56](#event-6553556)   | 0x04E2       |     17 |              3 |
| [65535.57](#event-6553557)   | 0x04F3       |     16 |              2 |
| [65535.58](#event-6553558)   | 0x0503       |     16 |              2 |
| [65535.59](#event-6553559)   | 0x0513       |     16 |              2 |
| [65535.60](#event-6553560)   | 0x0523       |     16 |              2 |
| [65535.61](#event-6553561)   | 0x0533       |     16 |              2 |
| [65535.62](#event-6553562)   | 0x0543       |     16 |              2 |
| [65535.63](#event-6553563)   | 0x0553       |     13 |              5 |
| [65535.64](#event-6553564)   | 0x0560       |     20 |              5 |
| [65535.65](#event-6553565)   | 0x0574       |     12 |              4 |
| [65535.66](#event-6553566)   | 0x0580       |     16 |              2 |
| [65535.67](#event-6553567)   | 0x0590       |     16 |              2 |
| [65535.68](#event-6553568)   | 0x05A0       |     16 |              2 |
| [65535.69](#event-6553569)   | 0x05B0       |     20 |              5 |
| [65535.70](#event-6553570)   | 0x05C4       |     29 |              6 |
| [65535.71](#event-6553571)   | 0x05E1       |     17 |              3 |
| [65535.72](#event-6553572)   | 0x05F2       |     20 |              5 |
| [65535.73](#event-6553573)   | 0x0606       |     20 |              5 |
| [65535.74](#event-6553574)   | 0x061A       |     20 |              5 |
| [65535.75](#event-6553575)   | 0x062E       |     20 |              5 |
| [65535.76](#event-6553576)   | 0x0642       |     20 |              5 |
| [65535.77](#event-6553577)   | 0x0656       |     16 |              2 |
| [65535.78](#event-6553578)   | 0x0666       |     16 |              2 |
| [65535.79](#event-6553579)   | 0x0676       |     20 |              5 |
| [65535.80](#event-6553580)   | 0x068A       |     16 |              2 |
| [65535.81](#event-6553581)   | 0x069A       |     16 |              2 |
| [65535.82](#event-6553582)   | 0x06AA       |     16 |              2 |
| [65535.83](#event-6553583)   | 0x06BA       |     16 |              2 |
| [65535.84](#event-6553584)   | 0x06CA       |     21 |              6 |
| [65535.85](#event-6553585)   | 0x06DF       |     20 |              5 |
| [65535.86](#event-6553586)   | 0x06F3       |     20 |              5 |
| [65535.87](#event-6553587)   | 0x0707       |     17 |              3 |
| [65535.88](#event-6553588)   | 0x0718       |     20 |              5 |
| [65535.89](#event-6553589)   | 0x072C       |     20 |              5 |
| [65535.90](#event-6553590)   | 0x0740       |     16 |              2 |
| [65535.91](#event-6553591)   | 0x0750       |     16 |              2 |
| [65535.92](#event-6553592)   | 0x0760       |     21 |              6 |
| [65535.93](#event-6553593)   | 0x0775       |     20 |              5 |
| [65535.94](#event-6553594)   | 0x0789       |     20 |              5 |
| [65535.95](#event-6553595)   | 0x079D       |     16 |              2 |
| [65535.96](#event-6553596)   | 0x07AD       |     20 |              5 |
| [65535.97](#event-6553597)   | 0x07C1       |     21 |              6 |
| [65535.98](#event-6553598)   | 0x07D6       |     20 |              5 |
| [65535.99](#event-6553599)   | 0x07EA       |     12 |              4 |
| [65535.100](#event-65535100) | 0x07F6       |     16 |              2 |
| [65535.101](#event-65535101) | 0x0806       |     16 |              2 |
| [65535.102](#event-65535102) | 0x0816       |     20 |              5 |
| [65535.103](#event-65535103) | 0x082A       |     20 |              5 |
| [65535.104](#event-65535104) | 0x083E       |     17 |              3 |
| [65535.105](#event-65535105) | 0x084F       |     16 |              2 |
| [65535.106](#event-65535106) | 0x085F       |     16 |              2 |
| [65535.107](#event-65535107) | 0x086F       |     16 |              2 |
| [65535.108](#event-65535108) | 0x087F       |     16 |              2 |
| [65535.109](#event-65535109) | 0x088F       |     17 |              3 |
| [65535.110](#event-65535110) | 0x08A0       |     20 |              5 |
| [65535.111](#event-65535111) | 0x08B4       |     12 |              4 |
| [65535.112](#event-65535112) | 0x08C0       |     16 |              2 |
| [65535.113](#event-65535113) | 0x08D0       |     16 |              2 |
| [65535.114](#event-65535114) | 0x08E0       |     16 |              2 |
| [65535.115](#event-65535115) | 0x08F0       |     16 |              2 |
| [65535.116](#event-65535116) | 0x0900       |     16 |              2 |
| [65535.117](#event-65535117) | 0x0910       |     16 |              2 |
| [65535.118](#event-65535118) | 0x0920       |     16 |              2 |
| [65535.119](#event-65535119) | 0x0930       |     20 |              5 |
| [65535.120](#event-65535120) | 0x0944       |     20 |              5 |
| [65535.121](#event-65535121) | 0x0958       |     16 |              2 |
| [65535.122](#event-65535122) | 0x0968       |     16 |              2 |

## DAT References (imed_data)

|   Index | Hex Value   |   Dec Value |
|---------|-------------|-------------|
|       0 | 0x0007      |           7 |
|       1 | 0x1C83      |        7299 |
|       2 | 0x0071      |         113 |
|       3 | 0x1C8D      |        7309 |
|       4 | 0x0039      |          57 |
|       5 | 0x1C9A      |        7322 |
|       6 | 0x1CAD      |        7341 |
|       7 | 0x1CAE      |        7342 |
|       8 | 0x1CAF      |        7343 |
|       9 | 0x1CB1      |        7345 |
|      10 | 0x1CD7      |        7383 |
|      11 | 0x1CD8      |        7384 |
|      12 | 0x0015      |          21 |
|      13 | 0xFFFF22B6  |  4294910646 |
|      14 | 0xFFFDDF65  |  4294827877 |
|      15 | 0xFFFFFF93  |  4294967187 |
|      16 | 0x0000      |           0 |
|      17 | 0x000A      |          10 |
|      18 | 0xFFFF0CCD  |  4294905037 |
|      19 | 0xFFFDDD25  |  4294827301 |
|      20 | 0xFFFFFED6  |  4294966998 |
|      21 | 0x06CA      |        1738 |
|      22 | 0xFFFF1445  |  4294906949 |
|      23 | 0xFFFDDDCC  |  4294827468 |
|      24 | 0xFFFF185B  |  4294907995 |
|      25 | 0xFFFDE530  |  4294829360 |
|      26 | 0xFFFF164A  |  4294907466 |
|      27 | 0xFFFDEAFC  |  4294830844 |
|      28 | 0xFFFFFF9C  |  4294967196 |
|      29 | 0xFFFF0AFE  |  4294904574 |
|      30 | 0xFFFDF414  |  4294833172 |
|      31 | 0xFFFEEC62  |  4294896738 |
|      32 | 0xFFFDE809  |  4294830089 |
|      33 | 0x0AC8      |        2760 |
|      34 | 0xFFFF1E0B  |  4294909451 |
|      35 | 0xFFFDE600  |  4294829568 |
|      36 | 0x0BB8      |        3000 |
|      37 | 0xFFFF1DDB  |  4294909403 |
|      38 | 0xFFFDE727  |  4294829863 |
|      39 | 0x006E      |         110 |
|      40 | 0x000F      |          15 |
|      41 | 0xFFFF17EA  |  4294907882 |
|      42 | 0xFFFDE906  |  4294830342 |
|      43 | 0x0055      |          85 |
|      44 | 0x003C      |          60 |
|      45 | 0x0001      |           1 |
|      46 | 0x000C      |          12 |
|      47 | 0xFFFED6C4  |  4294891204 |
|      48 | 0xFFFDEB5B  |  4294830939 |
|      49 | 0x000B      |          11 |
|      50 | 0xFFFE8B97  |  4294871959 |
|      51 | 0xFFFD9E68  |  4294811240 |
|      52 | 0xFFFF0D87  |  4294905223 |
|      53 | 0xFFFEA0EF  |  4294877423 |
|      54 | 0x176F      |        5999 |
|      55 | 0x0A3A      |        2618 |
|      56 | 0xFFFEB818  |  4294883352 |
|      57 | 0xFFFE098F  |  4294838671 |
|      58 | 0xFFFEF410  |  4294898704 |
|      59 | 0xFFFE85B9  |  4294870457 |
|      60 | 0xFFFEEC91  |  4294896785 |
|      61 | 0xFFFE6EA2  |  4294864546 |
|      62 | 0x0A2A      |        2602 |
|      63 | 0xFFFEE552  |  4294894930 |
|      64 | 0xFFFE3269  |  4294849129 |
|      65 | 0x0A39      |        2617 |
|      66 | 0x0045      |          69 |
|      67 | 0xFFFF2160  |  4294910304 |
|      68 | 0xFFFEA80E  |  4294879246 |
|      69 | 0x0A3D      |        2621 |
|      70 | 0x0A43      |        2627 |
|      71 | 0x004B      |          75 |
|      72 | 0xFFFFB20E  |  4294947342 |
|      73 | 0xFFFFAE2A  |  4294946346 |
|      74 | 0xFFFEDC35  |  4294892597 |
|      75 | 0xFFFE5D95  |  4294860181 |
|      76 | 0x0A47      |        2631 |
|      77 | 0xFFFFB26F  |  4294947439 |
|      78 | 0xFFFFAB30  |  4294945584 |
|      79 | 0x000E      |          14 |
|      80 | 0xFFFF6C7D  |  4294929533 |
|      81 | 0xFFFF0AA4  |  4294904484 |
|      82 | 0xFFFFCBCA  |  4294953930 |
|      83 | 0x09E0      |        2528 |
|      84 | 0xFFFFFE3F  |  4294966847 |
|      85 | 0x0028      |          40 |
|      86 | 0x0029      |          41 |
|      87 | 0xFFFEEA26  |  4294896166 |
|      88 | 0xFFFE4F39  |  4294856505 |
|      89 | 0xFFFED8EC  |  4294891756 |
|      90 | 0xFFFE38BF  |  4294850751 |
|      91 | 0xFFFEC5BC  |  4294886844 |
|      92 | 0xFFFE1640  |  4294841920 |
|      93 | 0x03E7      |         999 |
|      94 | 0x0A33      |        2611 |
|      95 | 0x000D      |          13 |
|      96 | 0xFFFF04E1  |  4294903009 |
|      97 | 0xFFFE7108  |  4294865160 |
|      98 | 0x108C      |        4236 |
|      99 | 0x10F0      |        4336 |
|     100 | 0xFFFFC3F0  |  4294951920 |
|     101 | 0xFFFFA321  |  4294943521 |
|     102 | 0xFFFFFF9B  |  4294967195 |
|     103 | 0x0A18      |        2584 |
|     104 | 0xFFFFFC21  |  4294966305 |
|     105 | 0x084B      |        2123 |
|     106 | 0x0008      |           8 |
|     107 | 0x0033      |          51 |
|     108 | 0xFFFF0DFA  |  4294905338 |
|     109 | 0xFFFE6C9D  |  4294864029 |
|     110 | 0xFFFEFBE3  |  4294900707 |
|     111 | 0xFFFE9775  |  4294874997 |
|     112 | 0xFFFF19CD  |  4294908365 |
|     113 | 0xFFFEAC62  |  4294880354 |
|     114 | 0xFFFECE8B  |  4294889099 |
|     115 | 0xFFFE3998  |  4294850968 |
|     116 | 0x0F9F      |        3999 |
|     117 | 0x0A17      |        2583 |
|     118 | 0xFFFFD965  |  4294957413 |
|     119 | 0xFFFFD99E  |  4294957470 |
|     120 | 0x0009      |           9 |
|     121 | 0xFFFEE68C  |  4294895244 |
|     122 | 0xFFFE6FBD  |  4294864829 |
|     123 | 0xFFFFE923  |  4294961443 |
|     124 | 0xFFFFEBBA  |  4294962106 |
|     125 | 0xFFFF4F66  |  4294922086 |
|     126 | 0xFFFEA394  |  4294878100 |
|     127 | 0xFFFFE891  |  4294961297 |
|     128 | 0xFFFFB859  |  4294948953 |
|     129 | 0xFFFFDFA2  |  4294959010 |
|     130 | 0xFFFFB9ED  |  4294949357 |
|     131 | 0xFFFFBF3D  |  4294950717 |
|     132 | 0xFFFFF407  |  4294964231 |
|     133 | 0xFFFFE105  |  4294959365 |
|     134 | 0x0A40      |        2624 |
|     135 | 0xFFFF6A1D  |  4294928925 |
|     136 | 0xFFFEF858  |  4294899800 |
|     137 | 0xFFFFEA43  |  4294961731 |
|     138 | 0xFFFFF8F4  |  4294965492 |
|     139 | 0x0002      |           2 |
|     140 | 0xFFFFF533  |  4294964531 |
|     141 | 0x13C3      |        5059 |

## Events

### Event 65535

#### Metadata

| Field        | Value   |
|--------------|---------|
| Entrypoint   | 0x0000  |
| Data Size    | 4 bytes |
| Instructions | 2       |

```
      00 01 02 03 04 05 06 07  08 09 0A 0B 0C 0D 0E 0F
      -- -- -- -- -- -- -- --  -- -- -- -- -- -- -- --
0000: 32 00 80 00                                       2...            
```

#### Opcodes

```
  0: 0x0000 [0x32] ExtData[1]->MainSpeed = 7* * 0.1
  1: 0x0003 [0x00] END_REQSTACK()
```

### Event 78

#### Metadata

| Field        | Value    |
|--------------|----------|
| Entrypoint   | 0x0004   |
| Data Size    | 12 bytes |
| Instructions | 5        |

```
      00 01 02 03 04 05 06 07  08 09 0A 0B 0C 0D 0E 0F
      -- -- -- -- -- -- -- --  -- -- -- -- -- -- -- --
0000:             20 01 2B 16  50 0F 01 01 80 23 21 00       .+.P....#!.
```

#### Opcodes

```
  0: 0x0004 [0x20] SET_CLI_EVENT_UC_FLAG: Lock player control
  1: 0x0006 [0x2B] Panta-Putta (ID: 17780758/0x010F5016) [7299*]:
    → "Dangit, I need that soup pot if I'm going to beat him. How can I get another-wother one..."
  2: 0x000D [0x23] WAIT_FOR_DIALOG_INTERACTION
  3: 0x000E [0x21] END_EVENT
  4: 0x000F [0x00] END_REQSTACK()
```

### Event 34

#### Metadata

| Field        | Value   |
|--------------|---------|
| Entrypoint   | 0x0010  |
| Data Size    | 1 bytes |
| Instructions | 1       |

```
      00 01 02 03 04 05 06 07  08 09 0A 0B 0C 0D 0E 0F
      -- -- -- -- -- -- -- --  -- -- -- -- -- -- -- --
0010: 00                                                .               
```

#### Opcodes

```
  0: 0x0010 [0x00] END_REQSTACK()
```

### Event 77

#### Metadata

| Field        | Value   |
|--------------|---------|
| Entrypoint   | 0x0011  |
| Data Size    | 1 bytes |
| Instructions | 1       |

```
      00 01 02 03 04 05 06 07  08 09 0A 0B 0C 0D 0E 0F
      -- -- -- -- -- -- -- --  -- -- -- -- -- -- -- --
0010:    00                                              .              
```

#### Opcodes

```
  0: 0x0011 [0x00] END_REQSTACK()
```

### Event 55

#### Metadata

| Field        | Value    |
|--------------|----------|
| Entrypoint   | 0x0012   |
| Data Size    | 22 bytes |
| Instructions | 8        |

```
      00 01 02 03 04 05 06 07  08 09 0A 0B 0C 0D 0E 0F
      -- -- -- -- -- -- -- --  -- -- -- -- -- -- -- --
0010:       03 09 10 02 80 1E  F0 FF FF 7F 6F 70 2B 16    ..........op+.
0020: 50 0F 01 03 80 23 21 00                           P....#!.        
```

#### Opcodes

```
  0: 0x0012 [0x03] Work_Zone[9] = 113*
  1: 0x0017 [0x1E] EventEntity looks at LocalPlayer and starts talking
  2: 0x001C [0x6F] WAIT_FRAME_DELAY: Yield until WaitTime reaches zero
  3: 0x001D [0x70] WAIT_ENTITY_RENDER_FLAG: Wait while EventEntity->Render.Flags3 bit 2 is set (cancel turn if not)
  4: 0x001E [0x2B] Panta-Putta (ID: 17780758/0x010F5016) [7309*]:
    → "Hmm... I'm pretty sure everybody my age knows what $6 is."
  5: 0x0025 [0x23] WAIT_FOR_DIALOG_INTERACTION
  6: 0x0026 [0x21] END_EVENT
  7: 0x0027 [0x00] END_REQSTACK()
```

### Event 33

#### Metadata

| Field        | Value   |
|--------------|---------|
| Entrypoint   | 0x0028  |
| Data Size    | 1 bytes |
| Instructions | 1       |

```
      00 01 02 03 04 05 06 07  08 09 0A 0B 0C 0D 0E 0F
      -- -- -- -- -- -- -- --  -- -- -- -- -- -- -- --
0020:                          00                               .       
```

#### Opcodes

```
  0: 0x0028 [0x00] END_REQSTACK()
```

### Event 40

#### Metadata

| Field        | Value    |
|--------------|----------|
| Entrypoint   | 0x0029   |
| Data Size    | 20 bytes |
| Instructions | 6        |

```
      00 01 02 03 04 05 06 07  08 09 0A 0B 0C 0D 0E 0F
      -- -- -- -- -- -- -- --  -- -- -- -- -- -- -- --
0020:                             03 08 10 02 80 03 09           .......
0030: 10 04 80 2B 16 50 0F 01  05 80 23 21 00           ...+.P....#!.   
```

#### Opcodes

```
  0: 0x0029 [0x03] Work_Zone[8] = 113*
  1: 0x002E [0x03] Work_Zone[9] = 57*
  2: 0x0033 [0x2B] Panta-Putta (ID: 17780758/0x010F5016) [7322*]:
    → "Okay! As long as I've got this $3 and Mom's $3, I'll finally beat that guy!"
  3: 0x003A [0x23] WAIT_FOR_DIALOG_INTERACTION
  4: 0x003B [0x21] END_EVENT
  5: 0x003C [0x00] END_REQSTACK()
```

### Event 30

#### Metadata

| Field        | Value    |
|--------------|----------|
| Entrypoint   | 0x003D   |
| Data Size    | 36 bytes |
| Instructions | 10       |

```
      00 01 02 03 04 05 06 07  08 09 0A 0B 0C 0D 0E 0F
      -- -- -- -- -- -- -- --  -- -- -- -- -- -- -- --
0030:                                         03 09 10               ...
0040: 04 80 1E F0 FF FF 7F 2B  16 50 0F 01 06 80 23 2B  .......+.P....#+
0050: 16 50 0F 01 07 80 23 2B  16 50 0F 01 08 80 23 21  .P....#+.P....#!
0060: 00                                                .               
```

#### Opcodes

```
  0: 0x003D [0x03] Work_Zone[9] = 57*
  1: 0x0042 [0x1E] EventEntity looks at LocalPlayer and starts talking
  2: 0x0047 [0x2B] Panta-Putta (ID: 17780758/0x010F5016) [7341*]:
    → "What was I thinking, fighting that guy? I should've listened to Two."
  3: 0x004E [0x23] WAIT_FOR_DIALOG_INTERACTION
  4: 0x004F [0x2B] Panta-Putta (ID: 17780758/0x010F5016) [7342*]:
    → "Don't tell Mom about the $3. I busted a big hole in it! I'm dead meat if she finds out."
  5: 0x0056 [0x23] WAIT_FOR_DIALOG_INTERACTION
  6: 0x0057 [0x2B] Panta-Putta (ID: 17780758/0x010F5016) [7343*]:
    → "But I was too hard on Two. I gotta tell him I'm sorry. Say, have you seen him anywhere? I wonder where he went."
  7: 0x005E [0x23] WAIT_FOR_DIALOG_INTERACTION
  8: 0x005F [0x21] END_EVENT
  9: 0x0060 [0x00] END_REQSTACK()
```

### Event 227

#### Metadata

| Field        | Value    |
|--------------|----------|
| Entrypoint   | 0x0061   |
| Data Size    | 10 bytes |
| Instructions | 4        |

```
      00 01 02 03 04 05 06 07  08 09 0A 0B 0C 0D 0E 0F
      -- -- -- -- -- -- -- --  -- -- -- -- -- -- -- --
0060:    2B 16 50 0F 01 09 80  23 21 00                  +.P....#!.     
```

#### Opcodes

```
  0: 0x0061 [0x2B] Panta-Putta (ID: 17780758/0x010F5016) [7345*]:
    → "It's all my fault. I never should've said those things. There's so much I still want to tell him."
  1: 0x0068 [0x23] WAIT_FOR_DIALOG_INTERACTION
  2: 0x0069 [0x21] END_EVENT
  3: 0x006A [0x00] END_REQSTACK()
```

### Event 35

#### Metadata

| Field        | Value   |
|--------------|---------|
| Entrypoint   | 0x006B  |
| Data Size    | 1 bytes |
| Instructions | 1       |

```
      00 01 02 03 04 05 06 07  08 09 0A 0B 0C 0D 0E 0F
      -- -- -- -- -- -- -- --  -- -- -- -- -- -- -- --
0060:                                   00                         .    
```

#### Opcodes

```
  0: 0x006B [0x00] END_REQSTACK()
```

### Event 76

#### Metadata

| Field        | Value    |
|--------------|----------|
| Entrypoint   | 0x006C   |
| Data Size    | 23 bytes |
| Instructions | 7        |

```
      00 01 02 03 04 05 06 07  08 09 0A 0B 0C 0D 0E 0F
      -- -- -- -- -- -- -- --  -- -- -- -- -- -- -- --
0060:                                      1E F0 FF FF              ....
0070: 7F 2B 16 50 0F 01 0A 80  23 2B 16 50 0F 01 0B 80  .+.P....#+.P....
0080: 23 21 00                                          #!.             
```

#### Opcodes

```
  0: 0x006C [0x1E] EventEntity looks at LocalPlayer and starts talking
  1: 0x0071 [0x2B] Panta-Putta (ID: 17780758/0x010F5016) [7383*]:
    → "I'm sure Two and I will keep on arguing, but I always want him to stay."
  2: 0x0078 [0x23] WAIT_FOR_DIALOG_INTERACTION
  3: 0x0079 [0x2B] Panta-Putta (ID: 17780758/0x010F5016) [7384*]:
    → "After all, he's my very best friend."
  4: 0x0080 [0x23] WAIT_FOR_DIALOG_INTERACTION
  5: 0x0081 [0x21] END_EVENT
  6: 0x0082 [0x00] END_REQSTACK()
```

### Event 65535.1

#### Metadata

| Field        | Value    |
|--------------|----------|
| Entrypoint   | 0x0083   |
| Data Size    | 27 bytes |
| Instructions | 7        |

```
      00 01 02 03 04 05 06 07  08 09 0A 0B 0C 0D 0E 0F
      -- -- -- -- -- -- -- --  -- -- -- -- -- -- -- --
0080:          32 0C 80 1F 00  0D 80 0E 80 0F 80 1F 01     2............
0090: 6F 4A 16 50 0F 01 17 50  0F 01 32 00 80 00        oJ.P...P..2...  
```

#### Opcodes

```
  0: 0x0083 [0x32] ExtData[1]->MainSpeed = 21* * 0.1
  1: 0x0086 [0x1F] MOVE_ENTITY: EventEntity moves to X=-56.650*, Z=-139.419*, Y=-0.109*
  2: 0x008E [0x1F] MOVE_ENTITY: Update entity position (mode=1)
  3: 0x0090 [0x6F] WAIT_FRAME_DELAY: Yield until WaitTime reaches zero
  4: 0x0091 [0x4A] Panta-Putta (ID: 17780758/0x010F5016) looks at Two of Swords (ID: 17780759/0x010F5017)
  5: 0x009A [0x32] ExtData[1]->MainSpeed = 7* * 0.1
  6: 0x009D [0x00] END_REQSTACK()
```

### Event 65535.2

#### Metadata

| Field        | Value    |
|--------------|----------|
| Entrypoint   | 0x009E   |
| Data Size    | 23 bytes |
| Instructions | 6        |

```
      00 01 02 03 04 05 06 07  08 09 0A 0B 0C 0D 0E 0F
      -- -- -- -- -- -- -- --  -- -- -- -- -- -- -- --
0090:                                            06 00                ..
00A0: 00 02 00 00 10 80 00 B4  00 1E 17 50 0F 01 1C 11  ...........P....
00B0: 80 01 A1 00 00                                    .....           
```

#### Opcodes

```
  0: 0x009E [0x06] ExtData[1]->WorkLocal[0] = 0
  1: 0x00A1 [0x02] IF !(ExtData[1]->WorkLocal[0] == 0*) GOTO 0x00B4
  2: 0x00A9 [0x1E] EventEntity looks at Two of Swords (ID: 17780759/0x010F5017) and starts talking
  3: 0x00AE [0x1C] WAIT(10* ticks)
  4: 0x00B1 [0x01] GOTO 0x00A1
  5: 0x00B4 [0x00] END_REQSTACK()
```

### Event 65535.3

#### Metadata

| Field        | Value   |
|--------------|---------|
| Entrypoint   | 0x00B5  |
| Data Size    | 4 bytes |
| Instructions | 2       |

```
      00 01 02 03 04 05 06 07  08 09 0A 0B 0C 0D 0E 0F
      -- -- -- -- -- -- -- --  -- -- -- -- -- -- -- --
00B0:                05 00 00  00                            ....       
```

#### Opcodes

```
  0: 0x00B5 [0x05] ExtData[1]->WorkLocal[0] = 1
  1: 0x00B8 [0x00] END_REQSTACK()
```

### Event 65535.4

#### Metadata

| Field        | Value    |
|--------------|----------|
| Entrypoint   | 0x00B9   |
| Data Size    | 14 bytes |
| Instructions | 4        |

```
      00 01 02 03 04 05 06 07  08 09 0A 0B 0C 0D 0E 0F
      -- -- -- -- -- -- -- --  -- -- -- -- -- -- -- --
00B0:                             1F 00 12 80 13 80 14           .......
00C0: 80 1F 01 39 15 80 00                              ...9...         
```

#### Opcodes

```
  0: 0x00B9 [0x1F] MOVE_ENTITY: EventEntity moves to X=-62.259*, Z=-139.995*, Y=-0.298*
  1: 0x00C1 [0x1F] MOVE_ENTITY: Update entity position (mode=1)
  2: 0x00C3 [0x39] SET_ENTITY_DIRECTION(direction=9.5°*)
  3: 0x00C6 [0x00] END_REQSTACK()
```

### Event 65535.5

#### Metadata

| Field        | Value    |
|--------------|----------|
| Entrypoint   | 0x00C7   |
| Data Size    | 43 bytes |
| Instructions | 9        |

```
      00 01 02 03 04 05 06 07  08 09 0A 0B 0C 0D 0E 0F
      -- -- -- -- -- -- -- --  -- -- -- -- -- -- -- --
00C0:                      32  0C 80 1F 00 16 80 17 80         2........
00D0: 0F 80 1F 01 1F 00 18 80  19 80 0F 80 1F 01 1F 00  ................
00E0: 1A 80 1B 80 1C 80 1F 01  4A 16 50 0F 01 17 50 0F  ........J.P...P.
00F0: 01 00                                             ..              
```

#### Opcodes

```
  0: 0x00C7 [0x32] ExtData[1]->MainSpeed = 21* * 0.1
  1: 0x00CA [0x1F] MOVE_ENTITY: EventEntity moves to X=-60.347*, Z=-139.828*, Y=-0.109*
  2: 0x00D2 [0x1F] MOVE_ENTITY: Update entity position (mode=1)
  3: 0x00D4 [0x1F] MOVE_ENTITY: EventEntity moves to X=-59.301*, Z=-137.936*, Y=-0.109*
  4: 0x00DC [0x1F] MOVE_ENTITY: Update entity position (mode=1)
  5: 0x00DE [0x1F] MOVE_ENTITY: EventEntity moves to X=-59.830*, Z=-136.452*, Y=-0.100*
  6: 0x00E6 [0x1F] MOVE_ENTITY: Update entity position (mode=1)
  7: 0x00E8 [0x4A] Panta-Putta (ID: 17780758/0x010F5016) looks at Two of Swords (ID: 17780759/0x010F5017)
  8: 0x00F1 [0x00] END_REQSTACK()
```

### Event 65535.6

#### Metadata

| Field        | Value    |
|--------------|----------|
| Entrypoint   | 0x00F2   |
| Data Size    | 14 bytes |
| Instructions | 4        |

```
      00 01 02 03 04 05 06 07  08 09 0A 0B 0C 0D 0E 0F
      -- -- -- -- -- -- -- --  -- -- -- -- -- -- -- --
00F0:       32 0C 80 1F 00 1D  80 1E 80 1C 80 1F 01 00    2.............
```

#### Opcodes

```
  0: 0x00F2 [0x32] ExtData[1]->MainSpeed = 21* * 0.1
  1: 0x00F5 [0x1F] MOVE_ENTITY: EventEntity moves to X=-62.722*, Z=-134.124*, Y=-0.100*
  2: 0x00FD [0x1F] MOVE_ENTITY: Update entity position (mode=1)
  3: 0x00FF [0x00] END_REQSTACK()
```

### Event 65535.7

#### Metadata

| Field        | Value    |
|--------------|----------|
| Entrypoint   | 0x0100   |
| Data Size    | 10 bytes |
| Instructions | 2        |

```
      00 01 02 03 04 05 06 07  08 09 0A 0B 0C 0D 0E 0F
      -- -- -- -- -- -- -- --  -- -- -- -- -- -- -- --
0100: 37 1F 80 20 80 14 80 21  80 00                    7.. ...!..      
```

#### Opcodes

```
  0: 0x0100 [0x37] UPDATE_EVENT_POSITION_AND_DIR: x=-70.558*, z=-137.207*, y=-0.298*, direction=242.6°*
  1: 0x0109 [0x00] END_REQSTACK()
```

### Event 65535.8

#### Metadata

| Field        | Value    |
|--------------|----------|
| Entrypoint   | 0x010A   |
| Data Size    | 10 bytes |
| Instructions | 2        |

```
      00 01 02 03 04 05 06 07  08 09 0A 0B 0C 0D 0E 0F
      -- -- -- -- -- -- -- --  -- -- -- -- -- -- -- --
0100:                                37 22 80 23 80 0F            7".#..
0110: 80 24 80 00                                       .$..            
```

#### Opcodes

```
  0: 0x010A [0x37] UPDATE_EVENT_POSITION_AND_DIR: x=-57.845*, z=-137.728*, y=-0.109*, direction=263.7°*
  1: 0x0113 [0x00] END_REQSTACK()
```

### Event 65535.9

#### Metadata

| Field        | Value    |
|--------------|----------|
| Entrypoint   | 0x0114   |
| Data Size    | 16 bytes |
| Instructions | 4        |

```
      00 01 02 03 04 05 06 07  08 09 0A 0B 0C 0D 0E 0F
      -- -- -- -- -- -- -- --  -- -- -- -- -- -- -- --
0110:             1F 00 25 80  26 80 0F 80 1F 01 1E 17      ..%.&.......
0120: 50 0F 01 00                                       P...            
```

#### Opcodes

```
  0: 0x0114 [0x1F] MOVE_ENTITY: EventEntity moves to X=-57.893*, Z=-137.433*, Y=-0.109*
  1: 0x011C [0x1F] MOVE_ENTITY: Update entity position (mode=1)
  2: 0x011E [0x1E] EventEntity looks at Two of Swords (ID: 17780759/0x010F5017) and starts talking
  3: 0x0123 [0x00] END_REQSTACK()
```

### Event 65535.10

#### Metadata

| Field        | Value    |
|--------------|----------|
| Entrypoint   | 0x0124   |
| Data Size    | 55 bytes |
| Instructions | 11       |

```
      00 01 02 03 04 05 06 07  08 09 0A 0B 0C 0D 0E 0F
      -- -- -- -- -- -- -- --  -- -- -- -- -- -- -- --
0120:             32 00 80 3B  F0 FF FF 7F 01 00 02 00      2..;........
0130: 03 00 31 00 01 00 02 00  03 00 27 80 31 01 1C 28  ..1.......'.1..(
0140: 80 4A 14 50 0F 01 16 50  0F 01 4A 15 50 0F 01 16  .J.P...P..J.P...
0150: 50 0F 01 1E F0 FF FF 7F  6F 70 00                 P.......op.     
```

#### Opcodes

```
  0: 0x0124 [0x32] ExtData[1]->MainSpeed = 7* * 0.1
  1: 0x0127 [0x3B] GET_ENTITY_POSITION(entity=LocalPlayer, x_destination=ExtData[1]->WorkLocal[1], y_destination=ExtData[1]->WorkLocal[2], z_destination=ExtData[1]->WorkLocal[3])
  2: 0x0132 [0x31] UPDATE_ENTITY_POSITION: Set EventEntity goal position to X=ExtData[1]->WorkLocal[1], Z=ExtData[1]->WorkLocal[2], Y=ExtData[1]->WorkLocal[3], Time=110*
  3: 0x013C [0x31] UPDATE_ENTITY_POSITION: Move EventEntity towards goal position
  4: 0x013E [0x1C] WAIT(15* ticks)
  5: 0x0141 [0x4A] Teigero-Bangero (ID: 17780756/0x010F5014) looks at Panta-Putta (ID: 17780758/0x010F5016)
  6: 0x014A [0x4A] Naruru (ID: 17780757/0x010F5015) looks at Panta-Putta (ID: 17780758/0x010F5016)
  7: 0x0153 [0x1E] EventEntity looks at LocalPlayer and starts talking
  8: 0x0158 [0x6F] WAIT_FRAME_DELAY: Yield until WaitTime reaches zero
  9: 0x0159 [0x70] WAIT_ENTITY_RENDER_FLAG: Wait while EventEntity->Render.Flags3 bit 2 is set (cancel turn if not)
 10: 0x015A [0x00] END_REQSTACK()
```

### Event 65535.11

#### Metadata

| Field        | Value    |
|--------------|----------|
| Entrypoint   | 0x015B   |
| Data Size    | 38 bytes |
| Instructions | 8        |

```
      00 01 02 03 04 05 06 07  08 09 0A 0B 0C 0D 0E 0F
      -- -- -- -- -- -- -- --  -- -- -- -- -- -- -- --
0150:                                   32 00 80 1F 00             2....
0160: 29 80 2A 80 1C 80 1F 01  6F 1E 17 50 0F 01 4A 14  ).*.....o..P..J.
0170: 50 0F 01 16 50 0F 01 4A  15 50 0F 01 16 50 0F 01  P...P..J.P...P..
0180: 00                                                .               
```

#### Opcodes

```
  0: 0x015B [0x32] ExtData[1]->MainSpeed = 7* * 0.1
  1: 0x015E [0x1F] MOVE_ENTITY: EventEntity moves to X=-59.414*, Z=-136.954*, Y=-0.100*
  2: 0x0166 [0x1F] MOVE_ENTITY: Update entity position (mode=1)
  3: 0x0168 [0x6F] WAIT_FRAME_DELAY: Yield until WaitTime reaches zero
  4: 0x0169 [0x1E] EventEntity looks at Two of Swords (ID: 17780759/0x010F5017) and starts talking
  5: 0x016E [0x4A] Teigero-Bangero (ID: 17780756/0x010F5014) looks at Panta-Putta (ID: 17780758/0x010F5016)
  6: 0x0177 [0x4A] Naruru (ID: 17780757/0x010F5015) looks at Panta-Putta (ID: 17780758/0x010F5016)
  7: 0x0180 [0x00] END_REQSTACK()
```

### Event 65535.12

#### Metadata

| Field        | Value   |
|--------------|---------|
| Entrypoint   | 0x0181  |
| Data Size    | 1 bytes |
| Instructions | 1       |

```
      00 01 02 03 04 05 06 07  08 09 0A 0B 0C 0D 0E 0F
      -- -- -- -- -- -- -- --  -- -- -- -- -- -- -- --
0180:    00                                              .              
```

#### Opcodes

```
  0: 0x0181 [0x00] END_REQSTACK()
```

### Event 65535.13

#### Metadata

| Field        | Value    |
|--------------|----------|
| Entrypoint   | 0x0182   |
| Data Size    | 29 bytes |
| Instructions | 3        |

```
      00 01 02 03 04 05 06 07  08 09 0A 0B 0C 0D 0E 0F
      -- -- -- -- -- -- -- --  -- -- -- -- -- -- -- --
0180:       5B 2B 80 F8 FF FF  7F F8 FF FF 7F 74 6C 6B    [+.........tlk
0190: 30 53 F8 FF FF 7F F8 FF  FF 7F 74 6C 6B 30 00     0S........tlk0. 
```

#### Opcodes

```
  0: 0x0182 [0x5B] LOAD_EXT_SCHEDULER: Load scheduler "tlk0" with entities [EventEntity, EventEntity], work=85*
  1: 0x0191 [0x53] WAIT_SCHEDULER_TASK: Wait for scheduler "tlk0" with entities [EventEntity, EventEntity]
  2: 0x019E [0x00] END_REQSTACK()
```

### Event 65535.14

#### Metadata

| Field        | Value    |
|--------------|----------|
| Entrypoint   | 0x019F   |
| Data Size    | 29 bytes |
| Instructions | 3        |

```
      00 01 02 03 04 05 06 07  08 09 0A 0B 0C 0D 0E 0F
      -- -- -- -- -- -- -- --  -- -- -- -- -- -- -- --
0190:                                               5B                 [
01A0: 2B 80 F8 FF FF 7F F8 FF  FF 7F 74 68 6B 31 53 F8  +.........thk1S.
01B0: FF FF 7F F8 FF FF 7F 74  68 6B 31 00              .......thk1.    
```

#### Opcodes

```
  0: 0x019F [0x5B] LOAD_EXT_SCHEDULER: Load scheduler "thk1" with entities [EventEntity, EventEntity], work=85*
  1: 0x01AE [0x53] WAIT_SCHEDULER_TASK: Wait for scheduler "thk1" with entities [EventEntity, EventEntity]
  2: 0x01BB [0x00] END_REQSTACK()
```

### Event 65535.15

#### Metadata

| Field        | Value    |
|--------------|----------|
| Entrypoint   | 0x01BC   |
| Data Size    | 29 bytes |
| Instructions | 3        |

```
      00 01 02 03 04 05 06 07  08 09 0A 0B 0C 0D 0E 0F
      -- -- -- -- -- -- -- --  -- -- -- -- -- -- -- --
01B0:                                      5B 2B 80 F8              [+..
01C0: FF FF 7F F8 FF FF 7F 74  68 6B 32 53 F8 FF FF 7F  .......thk2S....
01D0: F8 FF FF 7F 74 68 6B 32  00                       ....thk2.       
```

#### Opcodes

```
  0: 0x01BC [0x5B] LOAD_EXT_SCHEDULER: Load scheduler "thk2" with entities [EventEntity, EventEntity], work=85*
  1: 0x01CB [0x53] WAIT_SCHEDULER_TASK: Wait for scheduler "thk2" with entities [EventEntity, EventEntity]
  2: 0x01D8 [0x00] END_REQSTACK()
```

### Event 65535.16

#### Metadata

| Field        | Value    |
|--------------|----------|
| Entrypoint   | 0x01D9   |
| Data Size    | 29 bytes |
| Instructions | 3        |

```
      00 01 02 03 04 05 06 07  08 09 0A 0B 0C 0D 0E 0F
      -- -- -- -- -- -- -- --  -- -- -- -- -- -- -- --
01D0:                             5B 2B 80 F8 FF FF 7F           [+.....
01E0: F8 FF FF 7F 61 6E 67 30  53 F8 FF FF 7F F8 FF FF  ....ang0S.......
01F0: 7F 61 6E 67 30 00                                 .ang0.          
```

#### Opcodes

```
  0: 0x01D9 [0x5B] LOAD_EXT_SCHEDULER: Load scheduler "ang0" with entities [EventEntity, EventEntity], work=85*
  1: 0x01E8 [0x53] WAIT_SCHEDULER_TASK: Wait for scheduler "ang0" with entities [EventEntity, EventEntity]
  2: 0x01F5 [0x00] END_REQSTACK()
```

### Event 65535.17

#### Metadata

| Field        | Value    |
|--------------|----------|
| Entrypoint   | 0x01F6   |
| Data Size    | 29 bytes |
| Instructions | 3        |

```
      00 01 02 03 04 05 06 07  08 09 0A 0B 0C 0D 0E 0F
      -- -- -- -- -- -- -- --  -- -- -- -- -- -- -- --
01F0:                   5B 2B  80 F8 FF FF 7F F8 FF FF        [+........
0200: 7F 74 6C 6B 31 53 F8 FF  FF 7F F8 FF FF 7F 74 6C  .tlk1S........tl
0210: 6B 31 00                                          k1.             
```

#### Opcodes

```
  0: 0x01F6 [0x5B] LOAD_EXT_SCHEDULER: Load scheduler "tlk1" with entities [EventEntity, EventEntity], work=85*
  1: 0x0205 [0x53] WAIT_SCHEDULER_TASK: Wait for scheduler "tlk1" with entities [EventEntity, EventEntity]
  2: 0x0212 [0x00] END_REQSTACK()
```

### Event 65535.18

#### Metadata

| Field        | Value    |
|--------------|----------|
| Entrypoint   | 0x0213   |
| Data Size    | 29 bytes |
| Instructions | 3        |

```
      00 01 02 03 04 05 06 07  08 09 0A 0B 0C 0D 0E 0F
      -- -- -- -- -- -- -- --  -- -- -- -- -- -- -- --
0210:          5B 2B 80 F8 FF  FF 7F F8 FF FF 7F 70 61     [+.........pa
0220: 6E 30 53 F8 FF FF 7F F8  FF FF 7F 70 61 6E 30 00  n0S........pan0.
```

#### Opcodes

```
  0: 0x0213 [0x5B] LOAD_EXT_SCHEDULER: Load scheduler "pan0" with entities [EventEntity, EventEntity], work=85*
  1: 0x0222 [0x53] WAIT_SCHEDULER_TASK: Wait for scheduler "pan0" with entities [EventEntity, EventEntity]
  2: 0x022F [0x00] END_REQSTACK()
```

### Event 65535.19

#### Metadata

| Field        | Value    |
|--------------|----------|
| Entrypoint   | 0x0230   |
| Data Size    | 29 bytes |
| Instructions | 3        |

```
      00 01 02 03 04 05 06 07  08 09 0A 0B 0C 0D 0E 0F
      -- -- -- -- -- -- -- --  -- -- -- -- -- -- -- --
0230: 5B 2B 80 F8 FF FF 7F F8  FF FF 7F 6E 61 69 30 53  [+.........nai0S
0240: F8 FF FF 7F F8 FF FF 7F  6E 61 69 30 00           ........nai0.   
```

#### Opcodes

```
  0: 0x0230 [0x5B] LOAD_EXT_SCHEDULER: Load scheduler "nai0" with entities [EventEntity, EventEntity], work=85*
  1: 0x023F [0x53] WAIT_SCHEDULER_TASK: Wait for scheduler "nai0" with entities [EventEntity, EventEntity]
  2: 0x024C [0x00] END_REQSTACK()
```

### Event 65535.20

#### Metadata

| Field        | Value    |
|--------------|----------|
| Entrypoint   | 0x024D   |
| Data Size    | 29 bytes |
| Instructions | 3        |

```
      00 01 02 03 04 05 06 07  08 09 0A 0B 0C 0D 0E 0F
      -- -- -- -- -- -- -- --  -- -- -- -- -- -- -- --
0240:                                         5B 2B 80               [+.
0250: F8 FF FF 7F F8 FF FF 7F  70 61 73 30 53 F8 FF FF  ........pas0S...
0260: 7F F8 FF FF 7F 70 61 73  30 00                    .....pas0.      
```

#### Opcodes

```
  0: 0x024D [0x5B] LOAD_EXT_SCHEDULER: Load scheduler "pas0" with entities [EventEntity, EventEntity], work=85*
  1: 0x025C [0x53] WAIT_SCHEDULER_TASK: Wait for scheduler "pas0" with entities [EventEntity, EventEntity]
  2: 0x0269 [0x00] END_REQSTACK()
```

### Event 65535.21

#### Metadata

| Field        | Value    |
|--------------|----------|
| Entrypoint   | 0x026A   |
| Data Size    | 29 bytes |
| Instructions | 3        |

```
      00 01 02 03 04 05 06 07  08 09 0A 0B 0C 0D 0E 0F
      -- -- -- -- -- -- -- --  -- -- -- -- -- -- -- --
0260:                                5B 2B 80 F8 FF FF            [+....
0270: 7F F8 FF FF 7F 73 75 72  30 53 F8 FF FF 7F F8 FF  .....sur0S......
0280: FF 7F 73 75 72 30 00                              ..sur0.         
```

#### Opcodes

```
  0: 0x026A [0x5B] LOAD_EXT_SCHEDULER: Load scheduler "sur0" with entities [EventEntity, EventEntity], work=85*
  1: 0x0279 [0x53] WAIT_SCHEDULER_TASK: Wait for scheduler "sur0" with entities [EventEntity, EventEntity]
  2: 0x0286 [0x00] END_REQSTACK()
```

### Event 65535.22

#### Metadata

| Field        | Value   |
|--------------|---------|
| Entrypoint   | 0x0287  |
| Data Size    | 9 bytes |
| Instructions | 3       |

```
      00 01 02 03 04 05 06 07  08 09 0A 0B 0C 0D 0E 0F
      -- -- -- -- -- -- -- --  -- -- -- -- -- -- -- --
0280:                      5E  69 64 6C 30 1C 2C 80 00         ^idl0.,..
```

#### Opcodes

```
  0: 0x0287 [0x5E] EventEntity goes idle (kills current action) (animation: "idl0")
  1: 0x028C [0x1C] WAIT(60* ticks)
  2: 0x028F [0x00] END_REQSTACK()
```

### Event 65535.23

#### Metadata

| Field        | Value   |
|--------------|---------|
| Entrypoint   | 0x0290  |
| Data Size    | 4 bytes |
| Instructions | 2       |

```
      00 01 02 03 04 05 06 07  08 09 0A 0B 0C 0D 0E 0F
      -- -- -- -- -- -- -- --  -- -- -- -- -- -- -- --
0290: 1C 2C 80 00                                       .,..            
```

#### Opcodes

```
  0: 0x0290 [0x1C] WAIT(60* ticks)
  1: 0x0293 [0x00] END_REQSTACK()
```

### Event 65535.24

#### Metadata

| Field        | Value    |
|--------------|----------|
| Entrypoint   | 0x0294   |
| Data Size    | 29 bytes |
| Instructions | 3        |

```
      00 01 02 03 04 05 06 07  08 09 0A 0B 0C 0D 0E 0F
      -- -- -- -- -- -- -- --  -- -- -- -- -- -- -- --
0290:             5B 2B 80 F8  FF FF 7F F8 FF FF 7F 74      [+.........t
02A0: 6C 6B 32 53 F8 FF FF 7F  F8 FF FF 7F 74 6C 6B 32  lk2S........tlk2
02B0: 00                                                .               
```

#### Opcodes

```
  0: 0x0294 [0x5B] LOAD_EXT_SCHEDULER: Load scheduler "tlk2" with entities [EventEntity, EventEntity], work=85*
  1: 0x02A3 [0x53] WAIT_SCHEDULER_TASK: Wait for scheduler "tlk2" with entities [EventEntity, EventEntity]
  2: 0x02B0 [0x00] END_REQSTACK()
```

### Event 65535.25

#### Metadata

| Field        | Value    |
|--------------|----------|
| Entrypoint   | 0x02B1   |
| Data Size    | 30 bytes |
| Instructions | 3        |

```
      00 01 02 03 04 05 06 07  08 09 0A 0B 0C 0D 0E 0F
      -- -- -- -- -- -- -- --  -- -- -- -- -- -- -- --
02B0:    5B 2B 80 F8 FF FF 7F  F8 FF FF 7F 6B 6F 75 30   [+.........kou0
02C0: 53 F8 FF FF 7F F8 FF FF  7F 6B 6F 75 30 00 00     S........kou0.. 
```

#### Opcodes

```
  0: 0x02B1 [0x5B] LOAD_EXT_SCHEDULER: Load scheduler "kou0" with entities [EventEntity, EventEntity], work=85*
  1: 0x02C0 [0x53] WAIT_SCHEDULER_TASK: Wait for scheduler "kou0" with entities [EventEntity, EventEntity]
  2: 0x02CD [0x00] END_REQSTACK()
```

#### Data or dead code:

```
# Dead code (unreachable instructions):
     0x02CE [0x00] END_REQSTACK()
```

### Event 10094

#### Metadata

| Field        | Value   |
|--------------|---------|
| Entrypoint   | 0x02CF  |
| Data Size    | 5 bytes |
| Instructions | 2       |

```
      00 01 02 03 04 05 06 07  08 09 0A 0B 0C 0D 0E 0F
      -- -- -- -- -- -- -- --  -- -- -- -- -- -- -- --
02C0:                                               C0                 .
02D0: 2D 80 00 00                                       -...            
```

#### Opcodes

```
  0: 0x02CF [0xC0] EventEntity->Render.Flags3 |= 0x1000 // Set bit 12 (from 1*)
  1: 0x02D2 [0x00] END_REQSTACK()
```

#### Data or dead code:

```
# Dead code (unreachable instructions):
     0x02D3 [0x00] END_REQSTACK()
```

### Event 65535.26

#### Metadata

| Field        | Value    |
|--------------|----------|
| Entrypoint   | 0x02D4   |
| Data Size    | 20 bytes |
| Instructions | 5        |

```
      00 01 02 03 04 05 06 07  08 09 0A 0B 0C 0D 0E 0F
      -- -- -- -- -- -- -- --  -- -- -- -- -- -- -- --
02D0:             59 04 0B 50  0F 01 2E 80 1F 00 2F 80      Y..P....../.
02E0: 30 80 10 80 1F 01 6F 00                           0.....o.        
```

#### Opcodes

```
  0: 0x02D4 [0x59] UPDATE_ENTITY_DATA: Set Garnev (ID: 17780747/0x010F500B) main speed = 12* * 0.1
  1: 0x02DC [0x1F] MOVE_ENTITY: EventEntity moves to X=-76.092*, Z=-136.357*, Y=0.000*
  2: 0x02E4 [0x1F] MOVE_ENTITY: Update entity position (mode=1)
  3: 0x02E6 [0x6F] WAIT_FRAME_DELAY: Yield until WaitTime reaches zero
  4: 0x02E7 [0x00] END_REQSTACK()
```

### Event 65535.27

#### Metadata

| Field        | Value    |
|--------------|----------|
| Entrypoint   | 0x02E8   |
| Data Size    | 20 bytes |
| Instructions | 5        |

```
      00 01 02 03 04 05 06 07  08 09 0A 0B 0C 0D 0E 0F
      -- -- -- -- -- -- -- --  -- -- -- -- -- -- -- --
02E0:                          59 04 1D 50 0F 01 31 80          Y..P..1.
02F0: 1F 00 32 80 33 80 10 80  1F 01 6F 00              ..2.3.....o.    
```

#### Opcodes

```
  0: 0x02E8 [0x59] UPDATE_ENTITY_DATA: Set Mataligeat (ID: 17780765/0x010F501D) main speed = 11* * 0.1
  1: 0x02F0 [0x1F] MOVE_ENTITY: EventEntity moves to X=-95.337*, Z=-156.056*, Y=0.000*
  2: 0x02F8 [0x1F] MOVE_ENTITY: Update entity position (mode=1)
  3: 0x02FA [0x6F] WAIT_FRAME_DELAY: Yield until WaitTime reaches zero
  4: 0x02FB [0x00] END_REQSTACK()
```

### Event 65535.28

#### Metadata

| Field        | Value    |
|--------------|----------|
| Entrypoint   | 0x02FC   |
| Data Size    | 20 bytes |
| Instructions | 5        |

```
      00 01 02 03 04 05 06 07  08 09 0A 0B 0C 0D 0E 0F
      -- -- -- -- -- -- -- --  -- -- -- -- -- -- -- --
02F0:                                      59 04 1D 50              Y..P
0300: 0F 01 31 80 1F 00 34 80  35 80 36 80 1F 01 6F 00  ..1...4.5.6...o.
```

#### Opcodes

```
  0: 0x02FC [0x59] UPDATE_ENTITY_DATA: Set Mataligeat (ID: 17780765/0x010F501D) main speed = 11* * 0.1
  1: 0x0304 [0x1F] MOVE_ENTITY: EventEntity moves to X=-62.073*, Z=-89.873*, Y=5.999*
  2: 0x030C [0x1F] MOVE_ENTITY: Update entity position (mode=1)
  3: 0x030E [0x6F] WAIT_FRAME_DELAY: Yield until WaitTime reaches zero
  4: 0x030F [0x00] END_REQSTACK()
```

### Event 65535.29

#### Metadata

| Field        | Value    |
|--------------|----------|
| Entrypoint   | 0x0310   |
| Data Size    | 17 bytes |
| Instructions | 2        |

```
      00 01 02 03 04 05 06 07  08 09 0A 0B 0C 0D 0E 0F
      -- -- -- -- -- -- -- --  -- -- -- -- -- -- -- --
0310: 5B 37 80 1D 50 0F 01 1D  50 0F 01 6F 70 30 30 00  [7..P...P..op00.
0320: 00                                                .               
```

#### Opcodes

```
  0: 0x0310 [0x5B] LOAD_EXT_SCHEDULER: Load scheduler "op00" with entities [Mataligeat (ID: 17780765/0x010F501D), Mataligeat (ID: 17780765/0x010F501D)], work=2618*
  1: 0x031F [0x00] END_REQSTACK()
```

#### Data or dead code:

```
# Dead code (unreachable instructions):
     0x0320 [0x00] END_REQSTACK()
```

### Event 65535.30

#### Metadata

| Field        | Value    |
|--------------|----------|
| Entrypoint   | 0x0321   |
| Data Size    | 20 bytes |
| Instructions | 5        |

```
      00 01 02 03 04 05 06 07  08 09 0A 0B 0C 0D 0E 0F
      -- -- -- -- -- -- -- --  -- -- -- -- -- -- -- --
0320:    59 04 3A 50 0F 01 31  80 1F 00 32 80 33 80 10   Y.:P..1...2.3..
0330: 80 1F 01 6F 00                                    ...o.           
```

#### Opcodes

```
  0: 0x0321 [0x59] UPDATE_ENTITY_DATA: Set Navisse (ID: 17780794/0x010F503A) main speed = 11* * 0.1
  1: 0x0329 [0x1F] MOVE_ENTITY: EventEntity moves to X=-95.337*, Z=-156.056*, Y=0.000*
  2: 0x0331 [0x1F] MOVE_ENTITY: Update entity position (mode=1)
  3: 0x0333 [0x6F] WAIT_FRAME_DELAY: Yield until WaitTime reaches zero
  4: 0x0334 [0x00] END_REQSTACK()
```

### Event 65535.31

#### Metadata

| Field        | Value    |
|--------------|----------|
| Entrypoint   | 0x0335   |
| Data Size    | 20 bytes |
| Instructions | 5        |

```
      00 01 02 03 04 05 06 07  08 09 0A 0B 0C 0D 0E 0F
      -- -- -- -- -- -- -- --  -- -- -- -- -- -- -- --
0330:                59 04 2C  50 0F 01 2E 80 1F 00 38       Y.,P......8
0340: 80 39 80 10 80 1F 01 6F  00                       .9.....o.       
```

#### Opcodes

```
  0: 0x0335 [0x59] UPDATE_ENTITY_DATA: Set Jazmin (ID: 17780780/0x010F502C) main speed = 12* * 0.1
  1: 0x033D [0x1F] MOVE_ENTITY: EventEntity moves to X=-83.944*, Z=-128.625*, Y=0.000*
  2: 0x0345 [0x1F] MOVE_ENTITY: Update entity position (mode=1)
  3: 0x0347 [0x6F] WAIT_FRAME_DELAY: Yield until WaitTime reaches zero
  4: 0x0348 [0x00] END_REQSTACK()
```

### Event 65535.32

#### Metadata

| Field        | Value    |
|--------------|----------|
| Entrypoint   | 0x0349   |
| Data Size    | 19 bytes |
| Instructions | 4        |

```
      00 01 02 03 04 05 06 07  08 09 0A 0B 0C 0D 0E 0F
      -- -- -- -- -- -- -- --  -- -- -- -- -- -- -- --
0340:                             59 04 2C 50 0F 01 31           Y.,P..1
0350: 80 1F 00 3A 80 3B 80 36  80 1F 01 00              ...:.;.6....    
```

#### Opcodes

```
  0: 0x0349 [0x59] UPDATE_ENTITY_DATA: Set Jazmin (ID: 17780780/0x010F502C) main speed = 11* * 0.1
  1: 0x0351 [0x1F] MOVE_ENTITY: EventEntity moves to X=-68.592*, Z=-96.839*, Y=5.999*
  2: 0x0359 [0x1F] MOVE_ENTITY: Update entity position (mode=1)
  3: 0x035B [0x00] END_REQSTACK()
```

### Event 65535.33

#### Metadata

| Field        | Value    |
|--------------|----------|
| Entrypoint   | 0x035C   |
| Data Size    | 19 bytes |
| Instructions | 4        |

```
      00 01 02 03 04 05 06 07  08 09 0A 0B 0C 0D 0E 0F
      -- -- -- -- -- -- -- --  -- -- -- -- -- -- -- --
0350:                                      59 04 2C 50              Y.,P
0360: 0F 01 31 80 1F 00 3C 80  3D 80 36 80 1F 01 00     ..1...<.=.6.... 
```

#### Opcodes

```
  0: 0x035C [0x59] UPDATE_ENTITY_DATA: Set Jazmin (ID: 17780780/0x010F502C) main speed = 11* * 0.1
  1: 0x0364 [0x1F] MOVE_ENTITY: EventEntity moves to X=-70.511*, Z=-102.750*, Y=5.999*
  2: 0x036C [0x1F] MOVE_ENTITY: Update entity position (mode=1)
  3: 0x036E [0x00] END_REQSTACK()
```

### Event 65535.34

#### Metadata

| Field        | Value    |
|--------------|----------|
| Entrypoint   | 0x036F   |
| Data Size    | 16 bytes |
| Instructions | 2        |

```
      00 01 02 03 04 05 06 07  08 09 0A 0B 0C 0D 0E 0F
      -- -- -- -- -- -- -- --  -- -- -- -- -- -- -- --
0360:                                               5B                 [
0370: 3E 80 2C 50 0F 01 2C 50  0F 01 6F 70 30 30 00     >.,P..,P..op00. 
```

#### Opcodes

```
  0: 0x036F [0x5B] LOAD_EXT_SCHEDULER: Load scheduler "op00" with entities [Jazmin (ID: 17780780/0x010F502C), Jazmin (ID: 17780780/0x010F502C)], work=2602*
  1: 0x037E [0x00] END_REQSTACK()
```

### Event 65535.35

#### Metadata

| Field        | Value    |
|--------------|----------|
| Entrypoint   | 0x037F   |
| Data Size    | 16 bytes |
| Instructions | 2        |

```
      00 01 02 03 04 05 06 07  08 09 0A 0B 0C 0D 0E 0F
      -- -- -- -- -- -- -- --  -- -- -- -- -- -- -- --
0370:                                               5B                 [
0380: 3E 80 2C 50 0F 01 2C 50  0F 01 6F 70 30 31 00     >.,P..,P..op01. 
```

#### Opcodes

```
  0: 0x037F [0x5B] LOAD_EXT_SCHEDULER: Load scheduler "op01" with entities [Jazmin (ID: 17780780/0x010F502C), Jazmin (ID: 17780780/0x010F502C)], work=2602*
  1: 0x038E [0x00] END_REQSTACK()
```

### Event 65535.36

#### Metadata

| Field        | Value    |
|--------------|----------|
| Entrypoint   | 0x038F   |
| Data Size    | 20 bytes |
| Instructions | 5        |

```
      00 01 02 03 04 05 06 07  08 09 0A 0B 0C 0D 0E 0F
      -- -- -- -- -- -- -- --  -- -- -- -- -- -- -- --
0380:                                               59                 Y
0390: 04 2C 50 0F 01 31 80 1F  00 3F 80 40 80 36 80 1F  .,P..1...?.@.6..
03A0: 01 6F 00                                          .o.             
```

#### Opcodes

```
  0: 0x038F [0x59] UPDATE_ENTITY_DATA: Set Jazmin (ID: 17780780/0x010F502C) main speed = 11* * 0.1
  1: 0x0397 [0x1F] MOVE_ENTITY: EventEntity moves to X=-72.366*, Z=-118.167*, Y=5.999*
  2: 0x039F [0x1F] MOVE_ENTITY: Update entity position (mode=1)
  3: 0x03A1 [0x6F] WAIT_FRAME_DELAY: Yield until WaitTime reaches zero
  4: 0x03A2 [0x00] END_REQSTACK()
```

### Event 65535.37

#### Metadata

| Field        | Value    |
|--------------|----------|
| Entrypoint   | 0x03A3   |
| Data Size    | 16 bytes |
| Instructions | 2        |

```
      00 01 02 03 04 05 06 07  08 09 0A 0B 0C 0D 0E 0F
      -- -- -- -- -- -- -- --  -- -- -- -- -- -- -- --
03A0:          5B 41 80 2C 50  0F 01 2C 50 0F 01 6F 70     [A.,P..,P..op
03B0: 61 30 00                                          a0.             
```

#### Opcodes

```
  0: 0x03A3 [0x5B] LOAD_EXT_SCHEDULER: Load scheduler "opa0" with entities [Jazmin (ID: 17780780/0x010F502C), Jazmin (ID: 17780780/0x010F502C)], work=2617*
  1: 0x03B2 [0x00] END_REQSTACK()
```

### Event 65535.38

#### Metadata

| Field        | Value    |
|--------------|----------|
| Entrypoint   | 0x03B3   |
| Data Size    | 16 bytes |
| Instructions | 2        |

```
      00 01 02 03 04 05 06 07  08 09 0A 0B 0C 0D 0E 0F
      -- -- -- -- -- -- -- --  -- -- -- -- -- -- -- --
03B0:          5B 41 80 2C 50  0F 01 2C 50 0F 01 6F 70     [A.,P..,P..op
03C0: 61 31 00                                          a1.             
```

#### Opcodes

```
  0: 0x03B3 [0x5B] LOAD_EXT_SCHEDULER: Load scheduler "opa1" with entities [Jazmin (ID: 17780780/0x010F502C), Jazmin (ID: 17780780/0x010F502C)], work=2617*
  1: 0x03C2 [0x00] END_REQSTACK()
```

### Event 65535.39

#### Metadata

| Field        | Value    |
|--------------|----------|
| Entrypoint   | 0x03C3   |
| Data Size    | 16 bytes |
| Instructions | 2        |

```
      00 01 02 03 04 05 06 07  08 09 0A 0B 0C 0D 0E 0F
      -- -- -- -- -- -- -- --  -- -- -- -- -- -- -- --
03C0:          5B 41 80 2C 50  0F 01 2C 50 0F 01 6F 70     [A.,P..,P..op
03D0: 61 32 00                                          a2.             
```

#### Opcodes

```
  0: 0x03C3 [0x5B] LOAD_EXT_SCHEDULER: Load scheduler "opa2" with entities [Jazmin (ID: 17780780/0x010F502C), Jazmin (ID: 17780780/0x010F502C)], work=2617*
  1: 0x03D2 [0x00] END_REQSTACK()
```

### Event 65535.40

#### Metadata

| Field        | Value    |
|--------------|----------|
| Entrypoint   | 0x03D3   |
| Data Size    | 21 bytes |
| Instructions | 5        |

```
      00 01 02 03 04 05 06 07  08 09 0A 0B 0C 0D 0E 0F
      -- -- -- -- -- -- -- --  -- -- -- -- -- -- -- --
03D0:          59 04 2E 50 0F  01 2E 80 1F 00 2F 80 30     Y..P....../.0
03E0: 80 10 80 1F 01 6F 00 00                           .....o..        
```

#### Opcodes

```
  0: 0x03D3 [0x59] UPDATE_ENTITY_DATA: Set Bogharg (ID: 17780782/0x010F502E) main speed = 12* * 0.1
  1: 0x03DB [0x1F] MOVE_ENTITY: EventEntity moves to X=-76.092*, Z=-136.357*, Y=0.000*
  2: 0x03E3 [0x1F] MOVE_ENTITY: Update entity position (mode=1)
  3: 0x03E5 [0x6F] WAIT_FRAME_DELAY: Yield until WaitTime reaches zero
  4: 0x03E6 [0x00] END_REQSTACK()
```

#### Data or dead code:

```
# Dead code (unreachable instructions):
     0x03E7 [0x00] END_REQSTACK()
```

### Event 65535.41

#### Metadata

| Field        | Value    |
|--------------|----------|
| Entrypoint   | 0x03E8   |
| Data Size    | 16 bytes |
| Instructions | 2        |

```
      00 01 02 03 04 05 06 07  08 09 0A 0B 0C 0D 0E 0F
      -- -- -- -- -- -- -- --  -- -- -- -- -- -- -- --
03E0:                          66 42 80 2E 50 0F 01 2E          fB..P...
03F0: 50 0F 01 74 68 6B 31 00                           P..thk1.        
```

#### Opcodes

```
  0: 0x03E8 [0x66] LOAD_EXT_SCHEDULER_MAIN: Load scheduler "thk1" with entities [Bogharg (ID: 17780782/0x010F502E), Bogharg (ID: 17780782/0x010F502E)], work=69*
  1: 0x03F7 [0x00] END_REQSTACK()
```

### Event 65535.42

#### Metadata

| Field        | Value    |
|--------------|----------|
| Entrypoint   | 0x03F8   |
| Data Size    | 16 bytes |
| Instructions | 2        |

```
      00 01 02 03 04 05 06 07  08 09 0A 0B 0C 0D 0E 0F
      -- -- -- -- -- -- -- --  -- -- -- -- -- -- -- --
03F0:                          66 42 80 2E 50 0F 01 2E          fB..P...
0400: 50 0F 01 74 68 6B 32 00                           P..thk2.        
```

#### Opcodes

```
  0: 0x03F8 [0x66] LOAD_EXT_SCHEDULER_MAIN: Load scheduler "thk2" with entities [Bogharg (ID: 17780782/0x010F502E), Bogharg (ID: 17780782/0x010F502E)], work=69*
  1: 0x0407 [0x00] END_REQSTACK()
```

### Event 65535.43

#### Metadata

| Field        | Value    |
|--------------|----------|
| Entrypoint   | 0x0408   |
| Data Size    | 20 bytes |
| Instructions | 5        |

```
      00 01 02 03 04 05 06 07  08 09 0A 0B 0C 0D 0E 0F
      -- -- -- -- -- -- -- --  -- -- -- -- -- -- -- --
0400:                          59 04 2E 50 0F 01 2E 80          Y..P....
0410: 1F 00 43 80 44 80 36 80  1F 01 6F 00              ..C.D.6...o.    
```

#### Opcodes

```
  0: 0x0408 [0x59] UPDATE_ENTITY_DATA: Set Bogharg (ID: 17780782/0x010F502E) main speed = 12* * 0.1
  1: 0x0410 [0x1F] MOVE_ENTITY: EventEntity moves to X=-56.992*, Z=-88.050*, Y=5.999*
  2: 0x0418 [0x1F] MOVE_ENTITY: Update entity position (mode=1)
  3: 0x041A [0x6F] WAIT_FRAME_DELAY: Yield until WaitTime reaches zero
  4: 0x041B [0x00] END_REQSTACK()
```

### Event 65535.44

#### Metadata

| Field        | Value    |
|--------------|----------|
| Entrypoint   | 0x041C   |
| Data Size    | 17 bytes |
| Instructions | 2        |

```
      00 01 02 03 04 05 06 07  08 09 0A 0B 0C 0D 0E 0F
      -- -- -- -- -- -- -- --  -- -- -- -- -- -- -- --
0410:                                      5B 45 80 2E              [E..
0420: 50 0F 01 2E 50 0F 01 6F  70 30 30 00 00           P...P..op00..   
```

#### Opcodes

```
  0: 0x041C [0x5B] LOAD_EXT_SCHEDULER: Load scheduler "op00" with entities [Bogharg (ID: 17780782/0x010F502E), Bogharg (ID: 17780782/0x010F502E)], work=2621*
  1: 0x042B [0x00] END_REQSTACK()
```

#### Data or dead code:

```
# Dead code (unreachable instructions):
     0x042C [0x00] END_REQSTACK()
```

### Event 65535.45

#### Metadata

| Field        | Value    |
|--------------|----------|
| Entrypoint   | 0x042D   |
| Data Size    | 20 bytes |
| Instructions | 5        |

```
      00 01 02 03 04 05 06 07  08 09 0A 0B 0C 0D 0E 0F
      -- -- -- -- -- -- -- --  -- -- -- -- -- -- -- --
0420:                                         59 04 31               Y.1
0430: 50 0F 01 31 80 1F 00 38  80 39 80 10 80 1F 01 6F  P..1...8.9.....o
0440: 00                                                .               
```

#### Opcodes

```
  0: 0x042D [0x59] UPDATE_ENTITY_DATA: Set Nakho Jawantal (ID: 17780785/0x010F5031) main speed = 11* * 0.1
  1: 0x0435 [0x1F] MOVE_ENTITY: EventEntity moves to X=-83.944*, Z=-128.625*, Y=0.000*
  2: 0x043D [0x1F] MOVE_ENTITY: Update entity position (mode=1)
  3: 0x043F [0x6F] WAIT_FRAME_DELAY: Yield until WaitTime reaches zero
  4: 0x0440 [0x00] END_REQSTACK()
```

### Event 65535.46

#### Metadata

| Field        | Value    |
|--------------|----------|
| Entrypoint   | 0x0441   |
| Data Size    | 16 bytes |
| Instructions | 2        |

```
      00 01 02 03 04 05 06 07  08 09 0A 0B 0C 0D 0E 0F
      -- -- -- -- -- -- -- --  -- -- -- -- -- -- -- --
0440:    5B 46 80 12 50 0F 01  12 50 0F 01 6F 70 61 30   [F..P...P..opa0
0450: 00                                                .               
```

#### Opcodes

```
  0: 0x0441 [0x5B] LOAD_EXT_SCHEDULER: Load scheduler "opa0" with entities [Tovrutaux (ID: 17780754/0x010F5012), Tovrutaux (ID: 17780754/0x010F5012)], work=2627*
  1: 0x0450 [0x00] END_REQSTACK()
```

### Event 65535.47

#### Metadata

| Field        | Value    |
|--------------|----------|
| Entrypoint   | 0x0451   |
| Data Size    | 16 bytes |
| Instructions | 2        |

```
      00 01 02 03 04 05 06 07  08 09 0A 0B 0C 0D 0E 0F
      -- -- -- -- -- -- -- --  -- -- -- -- -- -- -- --
0450:    5B 46 80 12 50 0F 01  12 50 0F 01 6F 70 61 31   [F..P...P..opa1
0460: 00                                                .               
```

#### Opcodes

```
  0: 0x0451 [0x5B] LOAD_EXT_SCHEDULER: Load scheduler "opa1" with entities [Tovrutaux (ID: 17780754/0x010F5012), Tovrutaux (ID: 17780754/0x010F5012)], work=2627*
  1: 0x0460 [0x00] END_REQSTACK()
```

### Event 65535.48

#### Metadata

| Field        | Value    |
|--------------|----------|
| Entrypoint   | 0x0461   |
| Data Size    | 16 bytes |
| Instructions | 2        |

```
      00 01 02 03 04 05 06 07  08 09 0A 0B 0C 0D 0E 0F
      -- -- -- -- -- -- -- --  -- -- -- -- -- -- -- --
0460:    5B 46 80 12 50 0F 01  12 50 0F 01 6F 70 61 32   [F..P...P..opa2
0470: 00                                                .               
```

#### Opcodes

```
  0: 0x0461 [0x5B] LOAD_EXT_SCHEDULER: Load scheduler "opa2" with entities [Tovrutaux (ID: 17780754/0x010F5012), Tovrutaux (ID: 17780754/0x010F5012)], work=2627*
  1: 0x0470 [0x00] END_REQSTACK()
```

### Event 65535.49

#### Metadata

| Field        | Value    |
|--------------|----------|
| Entrypoint   | 0x0471   |
| Data Size    | 16 bytes |
| Instructions | 2        |

```
      00 01 02 03 04 05 06 07  08 09 0A 0B 0C 0D 0E 0F
      -- -- -- -- -- -- -- --  -- -- -- -- -- -- -- --
0470:    5B 47 80 12 50 0F 01  12 50 0F 01 74 68 6B 31   [G..P...P..thk1
0480: 00                                                .               
```

#### Opcodes

```
  0: 0x0471 [0x5B] LOAD_EXT_SCHEDULER: Load scheduler "thk1" with entities [Tovrutaux (ID: 17780754/0x010F5012), Tovrutaux (ID: 17780754/0x010F5012)], work=75*
  1: 0x0480 [0x00] END_REQSTACK()
```

### Event 65535.50

#### Metadata

| Field        | Value    |
|--------------|----------|
| Entrypoint   | 0x0481   |
| Data Size    | 16 bytes |
| Instructions | 2        |

```
      00 01 02 03 04 05 06 07  08 09 0A 0B 0C 0D 0E 0F
      -- -- -- -- -- -- -- --  -- -- -- -- -- -- -- --
0480:    5B 47 80 12 50 0F 01  12 50 0F 01 74 68 6B 32   [G..P...P..thk2
0490: 00                                                .               
```

#### Opcodes

```
  0: 0x0481 [0x5B] LOAD_EXT_SCHEDULER: Load scheduler "thk2" with entities [Tovrutaux (ID: 17780754/0x010F5012), Tovrutaux (ID: 17780754/0x010F5012)], work=75*
  1: 0x0490 [0x00] END_REQSTACK()
```

### Event 65535.51

#### Metadata

| Field        | Value    |
|--------------|----------|
| Entrypoint   | 0x0491   |
| Data Size    | 16 bytes |
| Instructions | 2        |

```
      00 01 02 03 04 05 06 07  08 09 0A 0B 0C 0D 0E 0F
      -- -- -- -- -- -- -- --  -- -- -- -- -- -- -- --
0490:    5B 47 80 12 50 0F 01  12 50 0F 01 74 6C 6B 30   [G..P...P..tlk0
04A0: 00                                                .               
```

#### Opcodes

```
  0: 0x0491 [0x5B] LOAD_EXT_SCHEDULER: Load scheduler "tlk0" with entities [Tovrutaux (ID: 17780754/0x010F5012), Tovrutaux (ID: 17780754/0x010F5012)], work=75*
  1: 0x04A0 [0x00] END_REQSTACK()
```

### Event 65535.52

#### Metadata

| Field        | Value    |
|--------------|----------|
| Entrypoint   | 0x04A1   |
| Data Size    | 16 bytes |
| Instructions | 2        |

```
      00 01 02 03 04 05 06 07  08 09 0A 0B 0C 0D 0E 0F
      -- -- -- -- -- -- -- --  -- -- -- -- -- -- -- --
04A0:    5B 47 80 12 50 0F 01  12 50 0F 01 74 6C 6B 31   [G..P...P..tlk1
04B0: 00                                                .               
```

#### Opcodes

```
  0: 0x04A1 [0x5B] LOAD_EXT_SCHEDULER: Load scheduler "tlk1" with entities [Tovrutaux (ID: 17780754/0x010F5012), Tovrutaux (ID: 17780754/0x010F5012)], work=75*
  1: 0x04B0 [0x00] END_REQSTACK()
```

### Event 65535.53

#### Metadata

| Field        | Value    |
|--------------|----------|
| Entrypoint   | 0x04B1   |
| Data Size    | 12 bytes |
| Instructions | 4        |

```
      00 01 02 03 04 05 06 07  08 09 0A 0B 0C 0D 0E 0F
      -- -- -- -- -- -- -- --  -- -- -- -- -- -- -- --
04B0:    1F 00 48 80 49 80 10  80 1F 01 6F 00            ..H.I.....o.   
```

#### Opcodes

```
  0: 0x04B1 [0x1F] MOVE_ENTITY: EventEntity moves to X=-19.954*, Z=-20.950*, Y=0.000*
  1: 0x04B9 [0x1F] MOVE_ENTITY: Update entity position (mode=1)
  2: 0x04BB [0x6F] WAIT_FRAME_DELAY: Yield until WaitTime reaches zero
  3: 0x04BC [0x00] END_REQSTACK()
```

### Event 65535.54

#### Metadata

| Field        | Value    |
|--------------|----------|
| Entrypoint   | 0x04BD   |
| Data Size    | 20 bytes |
| Instructions | 5        |

```
      00 01 02 03 04 05 06 07  08 09 0A 0B 0C 0D 0E 0F
      -- -- -- -- -- -- -- --  -- -- -- -- -- -- -- --
04B0:                                         59 04 13               Y..
04C0: 50 0F 01 31 80 1F 00 4A  80 4B 80 36 80 1F 01 6F  P..1...J.K.6...o
04D0: 00                                                .               
```

#### Opcodes

```
  0: 0x04BD [0x59] UPDATE_ENTITY_DATA: Set Seyaya (ID: 17780755/0x010F5013) main speed = 11* * 0.1
  1: 0x04C5 [0x1F] MOVE_ENTITY: EventEntity moves to X=-74.699*, Z=-107.115*, Y=5.999*
  2: 0x04CD [0x1F] MOVE_ENTITY: Update entity position (mode=1)
  3: 0x04CF [0x6F] WAIT_FRAME_DELAY: Yield until WaitTime reaches zero
  4: 0x04D0 [0x00] END_REQSTACK()
```

### Event 65535.55

#### Metadata

| Field        | Value    |
|--------------|----------|
| Entrypoint   | 0x04D1   |
| Data Size    | 17 bytes |
| Instructions | 2        |

```
      00 01 02 03 04 05 06 07  08 09 0A 0B 0C 0D 0E 0F
      -- -- -- -- -- -- -- --  -- -- -- -- -- -- -- --
04D0:    5B 4C 80 13 50 0F 01  13 50 0F 01 6F 70 61 30   [L..P...P..opa0
04E0: 00 00                                             ..              
```

#### Opcodes

```
  0: 0x04D1 [0x5B] LOAD_EXT_SCHEDULER: Load scheduler "opa0" with entities [Seyaya (ID: 17780755/0x010F5013), Seyaya (ID: 17780755/0x010F5013)], work=2631*
  1: 0x04E0 [0x00] END_REQSTACK()
```

#### Data or dead code:

```
# Dead code (unreachable instructions):
     0x04E1 [0x00] END_REQSTACK()
```

### Event 65535.56

#### Metadata

| Field        | Value    |
|--------------|----------|
| Entrypoint   | 0x04E2   |
| Data Size    | 17 bytes |
| Instructions | 2        |

```
      00 01 02 03 04 05 06 07  08 09 0A 0B 0C 0D 0E 0F
      -- -- -- -- -- -- -- --  -- -- -- -- -- -- -- --
04E0:       5B 4C 80 13 50 0F  01 13 50 0F 01 6F 70 61    [L..P...P..opa
04F0: 31 00 00                                          1..             
```

#### Opcodes

```
  0: 0x04E2 [0x5B] LOAD_EXT_SCHEDULER: Load scheduler "opa1" with entities [Seyaya (ID: 17780755/0x010F5013), Seyaya (ID: 17780755/0x010F5013)], work=2631*
  1: 0x04F1 [0x00] END_REQSTACK()
```

#### Data or dead code:

```
# Dead code (unreachable instructions):
     0x04F2 [0x00] END_REQSTACK()
```

### Event 65535.57

#### Metadata

| Field        | Value    |
|--------------|----------|
| Entrypoint   | 0x04F3   |
| Data Size    | 16 bytes |
| Instructions | 2        |

```
      00 01 02 03 04 05 06 07  08 09 0A 0B 0C 0D 0E 0F
      -- -- -- -- -- -- -- --  -- -- -- -- -- -- -- --
04F0:          5B 4C 80 13 50  0F 01 13 50 0F 01 6F 70     [L..P...P..op
0500: 61 32 00                                          a2.             
```

#### Opcodes

```
  0: 0x04F3 [0x5B] LOAD_EXT_SCHEDULER: Load scheduler "opa2" with entities [Seyaya (ID: 17780755/0x010F5013), Seyaya (ID: 17780755/0x010F5013)], work=2631*
  1: 0x0502 [0x00] END_REQSTACK()
```

### Event 65535.58

#### Metadata

| Field        | Value    |
|--------------|----------|
| Entrypoint   | 0x0503   |
| Data Size    | 16 bytes |
| Instructions | 2        |

```
      00 01 02 03 04 05 06 07  08 09 0A 0B 0C 0D 0E 0F
      -- -- -- -- -- -- -- --  -- -- -- -- -- -- -- --
0500:          5B 2B 80 13 50  0F 01 13 50 0F 01 74 68     [+..P...P..th
0510: 6B 31 00                                          k1.             
```

#### Opcodes

```
  0: 0x0503 [0x5B] LOAD_EXT_SCHEDULER: Load scheduler "thk1" with entities [Seyaya (ID: 17780755/0x010F5013), Seyaya (ID: 17780755/0x010F5013)], work=85*
  1: 0x0512 [0x00] END_REQSTACK()
```

### Event 65535.59

#### Metadata

| Field        | Value    |
|--------------|----------|
| Entrypoint   | 0x0513   |
| Data Size    | 16 bytes |
| Instructions | 2        |

```
      00 01 02 03 04 05 06 07  08 09 0A 0B 0C 0D 0E 0F
      -- -- -- -- -- -- -- --  -- -- -- -- -- -- -- --
0510:          5B 2B 80 13 50  0F 01 13 50 0F 01 74 68     [+..P...P..th
0520: 6B 32 00                                          k2.             
```

#### Opcodes

```
  0: 0x0513 [0x5B] LOAD_EXT_SCHEDULER: Load scheduler "thk2" with entities [Seyaya (ID: 17780755/0x010F5013), Seyaya (ID: 17780755/0x010F5013)], work=85*
  1: 0x0522 [0x00] END_REQSTACK()
```

### Event 65535.60

#### Metadata

| Field        | Value    |
|--------------|----------|
| Entrypoint   | 0x0523   |
| Data Size    | 16 bytes |
| Instructions | 2        |

```
      00 01 02 03 04 05 06 07  08 09 0A 0B 0C 0D 0E 0F
      -- -- -- -- -- -- -- --  -- -- -- -- -- -- -- --
0520:          5B 2B 80 13 50  0F 01 13 50 0F 01 74 6C     [+..P...P..tl
0530: 6B 30 00                                          k0.             
```

#### Opcodes

```
  0: 0x0523 [0x5B] LOAD_EXT_SCHEDULER: Load scheduler "tlk0" with entities [Seyaya (ID: 17780755/0x010F5013), Seyaya (ID: 17780755/0x010F5013)], work=85*
  1: 0x0532 [0x00] END_REQSTACK()
```

### Event 65535.61

#### Metadata

| Field        | Value    |
|--------------|----------|
| Entrypoint   | 0x0533   |
| Data Size    | 16 bytes |
| Instructions | 2        |

```
      00 01 02 03 04 05 06 07  08 09 0A 0B 0C 0D 0E 0F
      -- -- -- -- -- -- -- --  -- -- -- -- -- -- -- --
0530:          5B 2B 80 13 50  0F 01 13 50 0F 01 74 6C     [+..P...P..tl
0540: 6B 65 00                                          ke.             
```

#### Opcodes

```
  0: 0x0533 [0x5B] LOAD_EXT_SCHEDULER: Load scheduler "tlke" with entities [Seyaya (ID: 17780755/0x010F5013), Seyaya (ID: 17780755/0x010F5013)], work=85*
  1: 0x0542 [0x00] END_REQSTACK()
```

### Event 65535.62

#### Metadata

| Field        | Value    |
|--------------|----------|
| Entrypoint   | 0x0543   |
| Data Size    | 16 bytes |
| Instructions | 2        |

```
      00 01 02 03 04 05 06 07  08 09 0A 0B 0C 0D 0E 0F
      -- -- -- -- -- -- -- --  -- -- -- -- -- -- -- --
0540:          5B 2B 80 13 50  0F 01 13 50 0F 01 62 61     [+..P...P..ba
0550: 6E 30 00                                          n0.             
```

#### Opcodes

```
  0: 0x0543 [0x5B] LOAD_EXT_SCHEDULER: Load scheduler "ban0" with entities [Seyaya (ID: 17780755/0x010F5013), Seyaya (ID: 17780755/0x010F5013)], work=85*
  1: 0x0552 [0x00] END_REQSTACK()
```

### Event 65535.63

#### Metadata

| Field        | Value    |
|--------------|----------|
| Entrypoint   | 0x0553   |
| Data Size    | 13 bytes |
| Instructions | 4        |

```
      00 01 02 03 04 05 06 07  08 09 0A 0B 0C 0D 0E 0F
      -- -- -- -- -- -- -- --  -- -- -- -- -- -- -- --
0550:          1F 00 4D 80 4E  80 10 80 1F 01 6F 00 00     ..M.N.....o..
```

#### Opcodes

```
  0: 0x0553 [0x1F] MOVE_ENTITY: EventEntity moves to X=-19.857*, Z=-21.712*, Y=0.000*
  1: 0x055B [0x1F] MOVE_ENTITY: Update entity position (mode=1)
  2: 0x055D [0x6F] WAIT_FRAME_DELAY: Yield until WaitTime reaches zero
  3: 0x055E [0x00] END_REQSTACK()
```

#### Data or dead code:

```
# Dead code (unreachable instructions):
     0x055F [0x00] END_REQSTACK()
```

### Event 65535.64

#### Metadata

| Field        | Value    |
|--------------|----------|
| Entrypoint   | 0x0560   |
| Data Size    | 20 bytes |
| Instructions | 5        |

```
      00 01 02 03 04 05 06 07  08 09 0A 0B 0C 0D 0E 0F
      -- -- -- -- -- -- -- --  -- -- -- -- -- -- -- --
0560: 59 04 C0 50 0F 01 4F 80  1F 00 50 80 51 80 10 80  Y..P..O...P.Q...
0570: 1F 01 6F 00                                       ..o.            
```

#### Opcodes

```
  0: 0x0560 [0x59] UPDATE_ENTITY_DATA: Set Rakuru-Rakoru (ID: 17780928/0x010F50C0) main speed = 14* * 0.1
  1: 0x0568 [0x1F] MOVE_ENTITY: EventEntity moves to X=-37.763*, Z=-62.812*, Y=0.000*
  2: 0x0570 [0x1F] MOVE_ENTITY: Update entity position (mode=1)
  3: 0x0572 [0x6F] WAIT_FRAME_DELAY: Yield until WaitTime reaches zero
  4: 0x0573 [0x00] END_REQSTACK()
```

### Event 65535.65

#### Metadata

| Field        | Value    |
|--------------|----------|
| Entrypoint   | 0x0574   |
| Data Size    | 12 bytes |
| Instructions | 4        |

```
      00 01 02 03 04 05 06 07  08 09 0A 0B 0C 0D 0E 0F
      -- -- -- -- -- -- -- --  -- -- -- -- -- -- -- --
0570:             1F 00 52 80  53 80 54 80 1F 01 6F 00      ..R.S.T...o.
```

#### Opcodes

```
  0: 0x0574 [0x1F] MOVE_ENTITY: EventEntity moves to X=-13.366*, Z=2.528*, Y=-0.449*
  1: 0x057C [0x1F] MOVE_ENTITY: Update entity position (mode=1)
  2: 0x057E [0x6F] WAIT_FRAME_DELAY: Yield until WaitTime reaches zero
  3: 0x057F [0x00] END_REQSTACK()
```

### Event 65535.66

#### Metadata

| Field        | Value    |
|--------------|----------|
| Entrypoint   | 0x0580   |
| Data Size    | 16 bytes |
| Instructions | 2        |

```
      00 01 02 03 04 05 06 07  08 09 0A 0B 0C 0D 0E 0F
      -- -- -- -- -- -- -- --  -- -- -- -- -- -- -- --
0580: 66 55 80 C0 50 0F 01 C0  50 0F 01 74 6C 6B 30 00  fU..P...P..tlk0.
```

#### Opcodes

```
  0: 0x0580 [0x66] LOAD_EXT_SCHEDULER_MAIN: Load scheduler "tlk0" with entities [Rakuru-Rakoru (ID: 17780928/0x010F50C0), Rakuru-Rakoru (ID: 17780928/0x010F50C0)], work=40*
  1: 0x058F [0x00] END_REQSTACK()
```

### Event 65535.67

#### Metadata

| Field        | Value    |
|--------------|----------|
| Entrypoint   | 0x0590   |
| Data Size    | 16 bytes |
| Instructions | 2        |

```
      00 01 02 03 04 05 06 07  08 09 0A 0B 0C 0D 0E 0F
      -- -- -- -- -- -- -- --  -- -- -- -- -- -- -- --
0590: 66 56 80 C0 50 0F 01 C0  50 0F 01 65 68 6E 31 00  fV..P...P..ehn1.
```

#### Opcodes

```
  0: 0x0590 [0x66] LOAD_EXT_SCHEDULER_MAIN: Load scheduler "ehn1" with entities [Rakuru-Rakoru (ID: 17780928/0x010F50C0), Rakuru-Rakoru (ID: 17780928/0x010F50C0)], work=41*
  1: 0x059F [0x00] END_REQSTACK()
```

### Event 65535.68

#### Metadata

| Field        | Value    |
|--------------|----------|
| Entrypoint   | 0x05A0   |
| Data Size    | 16 bytes |
| Instructions | 2        |

```
      00 01 02 03 04 05 06 07  08 09 0A 0B 0C 0D 0E 0F
      -- -- -- -- -- -- -- --  -- -- -- -- -- -- -- --
05A0: 66 55 80 C0 50 0F 01 C0  50 0F 01 6D 6F 6A 30 00  fU..P...P..moj0.
```

#### Opcodes

```
  0: 0x05A0 [0x66] LOAD_EXT_SCHEDULER_MAIN: Load scheduler "moj0" with entities [Rakuru-Rakoru (ID: 17780928/0x010F50C0), Rakuru-Rakoru (ID: 17780928/0x010F50C0)], work=40*
  1: 0x05AF [0x00] END_REQSTACK()
```

### Event 65535.69

#### Metadata

| Field        | Value    |
|--------------|----------|
| Entrypoint   | 0x05B0   |
| Data Size    | 20 bytes |
| Instructions | 5        |

```
      00 01 02 03 04 05 06 07  08 09 0A 0B 0C 0D 0E 0F
      -- -- -- -- -- -- -- --  -- -- -- -- -- -- -- --
05B0: 59 04 C0 50 0F 01 4F 80  1F 00 57 80 58 80 36 80  Y..P..O...W.X.6.
05C0: 1F 01 6F 00                                       ..o.            
```

#### Opcodes

```
  0: 0x05B0 [0x59] UPDATE_ENTITY_DATA: Set Rakuru-Rakoru (ID: 17780928/0x010F50C0) main speed = 14* * 0.1
  1: 0x05B8 [0x1F] MOVE_ENTITY: EventEntity moves to X=-71.130*, Z=-110.791*, Y=5.999*
  2: 0x05C0 [0x1F] MOVE_ENTITY: Update entity position (mode=1)
  3: 0x05C2 [0x6F] WAIT_FRAME_DELAY: Yield until WaitTime reaches zero
  4: 0x05C3 [0x00] END_REQSTACK()
```

### Event 65535.70

#### Metadata

| Field        | Value    |
|--------------|----------|
| Entrypoint   | 0x05C4   |
| Data Size    | 29 bytes |
| Instructions | 6        |

```
      00 01 02 03 04 05 06 07  08 09 0A 0B 0C 0D 0E 0F
      -- -- -- -- -- -- -- --  -- -- -- -- -- -- -- --
05C0:             59 04 C0 50  0F 01 4F 80 1F 00 59 80      Y..P..O...Y.
05D0: 5A 80 36 80 1F 01 5A 00  5B 80 5C 80 5D 80 5A 01  Z.6...Z.[.\.].Z.
05E0: 00                                                .               
```

#### Opcodes

```
  0: 0x05C4 [0x59] UPDATE_ENTITY_DATA: Set Rakuru-Rakoru (ID: 17780928/0x010F50C0) main speed = 14* * 0.1
  1: 0x05CC [0x1F] MOVE_ENTITY: EventEntity moves to X=-75.540*, Z=-116.545*, Y=5.999*
  2: 0x05D4 [0x1F] MOVE_ENTITY: Update entity position (mode=1)
  3: 0x05D6 [0x5A] UPDATE_EVENT_POSITION: Set EventEntity MovePosition to X=-80.452*, Z=-125.376*, Y=0.999*
  4: 0x05DE [0x5A] UPDATE_EVENT_POSITION: Move EventEntity incrementally towards MovePosition
  5: 0x05E0 [0x00] END_REQSTACK()
```

### Event 65535.71

#### Metadata

| Field        | Value    |
|--------------|----------|
| Entrypoint   | 0x05E1   |
| Data Size    | 17 bytes |
| Instructions | 2        |

```
      00 01 02 03 04 05 06 07  08 09 0A 0B 0C 0D 0E 0F
      -- -- -- -- -- -- -- --  -- -- -- -- -- -- -- --
05E0:    5B 5E 80 C0 50 0F 01  C0 50 0F 01 62 6F 70 30   [^..P...P..bop0
05F0: 00 00                                             ..              
```

#### Opcodes

```
  0: 0x05E1 [0x5B] LOAD_EXT_SCHEDULER: Load scheduler "bop0" with entities [Rakuru-Rakoru (ID: 17780928/0x010F50C0), Rakuru-Rakoru (ID: 17780928/0x010F50C0)], work=2611*
  1: 0x05F0 [0x00] END_REQSTACK()
```

#### Data or dead code:

```
# Dead code (unreachable instructions):
     0x05F1 [0x00] END_REQSTACK()
```

### Event 65535.72

#### Metadata

| Field        | Value    |
|--------------|----------|
| Entrypoint   | 0x05F2   |
| Data Size    | 20 bytes |
| Instructions | 5        |

```
      00 01 02 03 04 05 06 07  08 09 0A 0B 0C 0D 0E 0F
      -- -- -- -- -- -- -- --  -- -- -- -- -- -- -- --
05F0:       59 04 25 50 0F 01  5F 80 1F 00 38 80 39 80    Y.%P.._...8.9.
0600: 10 80 1F 01 6F 00                                 ....o.          
```

#### Opcodes

```
  0: 0x05F2 [0x59] UPDATE_ENTITY_DATA: Set Sutarara (ID: 17780773/0x010F5025) main speed = 13* * 0.1
  1: 0x05FA [0x1F] MOVE_ENTITY: EventEntity moves to X=-83.944*, Z=-128.625*, Y=0.000*
  2: 0x0602 [0x1F] MOVE_ENTITY: Update entity position (mode=1)
  3: 0x0604 [0x6F] WAIT_FRAME_DELAY: Yield until WaitTime reaches zero
  4: 0x0605 [0x00] END_REQSTACK()
```

### Event 65535.73

#### Metadata

| Field        | Value    |
|--------------|----------|
| Entrypoint   | 0x0606   |
| Data Size    | 20 bytes |
| Instructions | 5        |

```
      00 01 02 03 04 05 06 07  08 09 0A 0B 0C 0D 0E 0F
      -- -- -- -- -- -- -- --  -- -- -- -- -- -- -- --
0600:                   59 04  25 50 0F 01 5F 80 1F 00        Y.%P.._...
0610: 60 80 61 80 36 80 1F 01  6F 00                    `.a.6...o.      
```

#### Opcodes

```
  0: 0x0606 [0x59] UPDATE_ENTITY_DATA: Set Sutarara (ID: 17780773/0x010F5025) main speed = 13* * 0.1
  1: 0x060E [0x1F] MOVE_ENTITY: EventEntity moves to X=-64.287*, Z=-102.136*, Y=5.999*
  2: 0x0616 [0x1F] MOVE_ENTITY: Update entity position (mode=1)
  3: 0x0618 [0x6F] WAIT_FRAME_DELAY: Yield until WaitTime reaches zero
  4: 0x0619 [0x00] END_REQSTACK()
```

### Event 65535.74

#### Metadata

| Field        | Value    |
|--------------|----------|
| Entrypoint   | 0x061A   |
| Data Size    | 20 bytes |
| Instructions | 5        |

```
      00 01 02 03 04 05 06 07  08 09 0A 0B 0C 0D 0E 0F
      -- -- -- -- -- -- -- --  -- -- -- -- -- -- -- --
0610:                                59 04 25 50 0F 01            Y.%P..
0620: 5F 80 1F 00 62 80 63 80  10 80 1F 01 6F 00        _...b.c.....o.  
```

#### Opcodes

```
  0: 0x061A [0x59] UPDATE_ENTITY_DATA: Set Sutarara (ID: 17780773/0x010F5025) main speed = 13* * 0.1
  1: 0x0622 [0x1F] MOVE_ENTITY: EventEntity moves to X=4.236*, Z=4.336*, Y=0.000*
  2: 0x062A [0x1F] MOVE_ENTITY: Update entity position (mode=1)
  3: 0x062C [0x6F] WAIT_FRAME_DELAY: Yield until WaitTime reaches zero
  4: 0x062D [0x00] END_REQSTACK()
```

### Event 65535.75

#### Metadata

| Field        | Value    |
|--------------|----------|
| Entrypoint   | 0x062E   |
| Data Size    | 20 bytes |
| Instructions | 5        |

```
      00 01 02 03 04 05 06 07  08 09 0A 0B 0C 0D 0E 0F
      -- -- -- -- -- -- -- --  -- -- -- -- -- -- -- --
0620:                                            59 04                Y.
0630: 34 50 0F 01 2E 80 1F 00  64 80 65 80 66 80 1F 01  4P......d.e.f...
0640: 6F 00                                             o.              
```

#### Opcodes

```
  0: 0x062E [0x59] UPDATE_ENTITY_DATA: Set Venika (ID: 17780788/0x010F5034) main speed = 12* * 0.1
  1: 0x0636 [0x1F] MOVE_ENTITY: EventEntity moves to X=-15.376*, Z=-23.775*, Y=-0.101*
  2: 0x063E [0x1F] MOVE_ENTITY: Update entity position (mode=1)
  3: 0x0640 [0x6F] WAIT_FRAME_DELAY: Yield until WaitTime reaches zero
  4: 0x0641 [0x00] END_REQSTACK()
```

### Event 65535.76

#### Metadata

| Field        | Value    |
|--------------|----------|
| Entrypoint   | 0x0642   |
| Data Size    | 20 bytes |
| Instructions | 5        |

```
      00 01 02 03 04 05 06 07  08 09 0A 0B 0C 0D 0E 0F
      -- -- -- -- -- -- -- --  -- -- -- -- -- -- -- --
0640:       59 04 34 50 0F 01  11 80 1F 00 60 80 61 80    Y.4P......`.a.
0650: 36 80 1F 01 6F 00                                 6...o.          
```

#### Opcodes

```
  0: 0x0642 [0x59] UPDATE_ENTITY_DATA: Set Venika (ID: 17780788/0x010F5034) main speed = 10* * 0.1
  1: 0x064A [0x1F] MOVE_ENTITY: EventEntity moves to X=-64.287*, Z=-102.136*, Y=5.999*
  2: 0x0652 [0x1F] MOVE_ENTITY: Update entity position (mode=1)
  3: 0x0654 [0x6F] WAIT_FRAME_DELAY: Yield until WaitTime reaches zero
  4: 0x0655 [0x00] END_REQSTACK()
```

### Event 65535.77

#### Metadata

| Field        | Value    |
|--------------|----------|
| Entrypoint   | 0x0656   |
| Data Size    | 16 bytes |
| Instructions | 2        |

```
      00 01 02 03 04 05 06 07  08 09 0A 0B 0C 0D 0E 0F
      -- -- -- -- -- -- -- --  -- -- -- -- -- -- -- --
0650:                   5B 67  80 34 50 0F 01 34 50 0F        [g.4P..4P.
0660: 01 6F 70 62 30 00                                 .opb0.          
```

#### Opcodes

```
  0: 0x0656 [0x5B] LOAD_EXT_SCHEDULER: Load scheduler "opb0" with entities [Venika (ID: 17780788/0x010F5034), Venika (ID: 17780788/0x010F5034)], work=2584*
  1: 0x0665 [0x00] END_REQSTACK()
```

### Event 65535.78

#### Metadata

| Field        | Value    |
|--------------|----------|
| Entrypoint   | 0x0666   |
| Data Size    | 16 bytes |
| Instructions | 2        |

```
      00 01 02 03 04 05 06 07  08 09 0A 0B 0C 0D 0E 0F
      -- -- -- -- -- -- -- --  -- -- -- -- -- -- -- --
0660:                   5B 67  80 34 50 0F 01 34 50 0F        [g.4P..4P.
0670: 01 6F 70 62 31 00                                 .opb1.          
```

#### Opcodes

```
  0: 0x0666 [0x5B] LOAD_EXT_SCHEDULER: Load scheduler "opb1" with entities [Venika (ID: 17780788/0x010F5034), Venika (ID: 17780788/0x010F5034)], work=2584*
  1: 0x0675 [0x00] END_REQSTACK()
```

### Event 65535.79

#### Metadata

| Field        | Value    |
|--------------|----------|
| Entrypoint   | 0x0676   |
| Data Size    | 20 bytes |
| Instructions | 5        |

```
      00 01 02 03 04 05 06 07  08 09 0A 0B 0C 0D 0E 0F
      -- -- -- -- -- -- -- --  -- -- -- -- -- -- -- --
0670:                   59 04  34 50 0F 01 2E 80 1F 00        Y.4P......
0680: 68 80 69 80 10 80 1F 01  6F 00                    h.i.....o.      
```

#### Opcodes

```
  0: 0x0676 [0x59] UPDATE_ENTITY_DATA: Set Venika (ID: 17780788/0x010F5034) main speed = 12* * 0.1
  1: 0x067E [0x1F] MOVE_ENTITY: EventEntity moves to X=-0.991*, Z=2.123*, Y=0.000*
  2: 0x0686 [0x1F] MOVE_ENTITY: Update entity position (mode=1)
  3: 0x0688 [0x6F] WAIT_FRAME_DELAY: Yield until WaitTime reaches zero
  4: 0x0689 [0x00] END_REQSTACK()
```

### Event 65535.80

#### Metadata

| Field        | Value    |
|--------------|----------|
| Entrypoint   | 0x068A   |
| Data Size    | 16 bytes |
| Instructions | 2        |

```
      00 01 02 03 04 05 06 07  08 09 0A 0B 0C 0D 0E 0F
      -- -- -- -- -- -- -- --  -- -- -- -- -- -- -- --
0680:                                5B 67 80 34 50 0F            [g.4P.
0690: 01 34 50 0F 01 6F 70 63  30 00                    .4P..opc0.      
```

#### Opcodes

```
  0: 0x068A [0x5B] LOAD_EXT_SCHEDULER: Load scheduler "opc0" with entities [Venika (ID: 17780788/0x010F5034), Venika (ID: 17780788/0x010F5034)], work=2584*
  1: 0x0699 [0x00] END_REQSTACK()
```

### Event 65535.81

#### Metadata

| Field        | Value    |
|--------------|----------|
| Entrypoint   | 0x069A   |
| Data Size    | 16 bytes |
| Instructions | 2        |

```
      00 01 02 03 04 05 06 07  08 09 0A 0B 0C 0D 0E 0F
      -- -- -- -- -- -- -- --  -- -- -- -- -- -- -- --
0690:                                5B 67 80 34 50 0F            [g.4P.
06A0: 01 34 50 0F 01 6F 70 63  31 00                    .4P..opc1.      
```

#### Opcodes

```
  0: 0x069A [0x5B] LOAD_EXT_SCHEDULER: Load scheduler "opc1" with entities [Venika (ID: 17780788/0x010F5034), Venika (ID: 17780788/0x010F5034)], work=2584*
  1: 0x06A9 [0x00] END_REQSTACK()
```

### Event 65535.82

#### Metadata

| Field        | Value    |
|--------------|----------|
| Entrypoint   | 0x06AA   |
| Data Size    | 16 bytes |
| Instructions | 2        |

```
      00 01 02 03 04 05 06 07  08 09 0A 0B 0C 0D 0E 0F
      -- -- -- -- -- -- -- --  -- -- -- -- -- -- -- --
06A0:                                66 6A 80 36 50 0F            fj.6P.
06B0: 01 36 50 0F 01 61 77 77  30 00                    .6P..aww0.      
```

#### Opcodes

```
  0: 0x06AA [0x66] LOAD_EXT_SCHEDULER_MAIN: Load scheduler "aww0" with entities [Kuah Dakonsa (ID: 17780790/0x010F5036), Kuah Dakonsa (ID: 17780790/0x010F5036)], work=8*
  1: 0x06B9 [0x00] END_REQSTACK()
```

### Event 65535.83

#### Metadata

| Field        | Value    |
|--------------|----------|
| Entrypoint   | 0x06BA   |
| Data Size    | 16 bytes |
| Instructions | 2        |

```
      00 01 02 03 04 05 06 07  08 09 0A 0B 0C 0D 0E 0F
      -- -- -- -- -- -- -- --  -- -- -- -- -- -- -- --
06B0:                                66 6B 80 36 50 0F            fk.6P.
06C0: 01 36 50 0F 01 74 68 6B  31 00                    .6P..thk1.      
```

#### Opcodes

```
  0: 0x06BA [0x66] LOAD_EXT_SCHEDULER_MAIN: Load scheduler "thk1" with entities [Kuah Dakonsa (ID: 17780790/0x010F5036), Kuah Dakonsa (ID: 17780790/0x010F5036)], work=51*
  1: 0x06C9 [0x00] END_REQSTACK()
```

### Event 65535.84

#### Metadata

| Field        | Value    |
|--------------|----------|
| Entrypoint   | 0x06CA   |
| Data Size    | 21 bytes |
| Instructions | 5        |

```
      00 01 02 03 04 05 06 07  08 09 0A 0B 0C 0D 0E 0F
      -- -- -- -- -- -- -- --  -- -- -- -- -- -- -- --
06C0:                                59 04 32 50 0F 01            Y.2P..
06D0: 2E 80 1F 00 6C 80 6D 80  36 80 1F 01 6F 00 00     ....l.m.6...o.. 
```

#### Opcodes

```
  0: 0x06CA [0x59] UPDATE_ENTITY_DATA: Set Gurdern (ID: 17780786/0x010F5032) main speed = 12* * 0.1
  1: 0x06D2 [0x1F] MOVE_ENTITY: EventEntity moves to X=-61.958*, Z=-103.267*, Y=5.999*
  2: 0x06DA [0x1F] MOVE_ENTITY: Update entity position (mode=1)
  3: 0x06DC [0x6F] WAIT_FRAME_DELAY: Yield until WaitTime reaches zero
  4: 0x06DD [0x00] END_REQSTACK()
```

#### Data or dead code:

```
# Dead code (unreachable instructions):
     0x06DE [0x00] END_REQSTACK()
```

### Event 65535.85

#### Metadata

| Field        | Value    |
|--------------|----------|
| Entrypoint   | 0x06DF   |
| Data Size    | 20 bytes |
| Instructions | 5        |

```
      00 01 02 03 04 05 06 07  08 09 0A 0B 0C 0D 0E 0F
      -- -- -- -- -- -- -- --  -- -- -- -- -- -- -- --
06D0:                                               59                 Y
06E0: 04 32 50 0F 01 2E 80 1F  00 6E 80 6F 80 36 80 1F  .2P......n.o.6..
06F0: 01 6F 00                                          .o.             
```

#### Opcodes

```
  0: 0x06DF [0x59] UPDATE_ENTITY_DATA: Set Gurdern (ID: 17780786/0x010F5032) main speed = 12* * 0.1
  1: 0x06E7 [0x1F] MOVE_ENTITY: EventEntity moves to X=-66.589*, Z=-92.299*, Y=5.999*
  2: 0x06EF [0x1F] MOVE_ENTITY: Update entity position (mode=1)
  3: 0x06F1 [0x6F] WAIT_FRAME_DELAY: Yield until WaitTime reaches zero
  4: 0x06F2 [0x00] END_REQSTACK()
```

### Event 65535.86

#### Metadata

| Field        | Value    |
|--------------|----------|
| Entrypoint   | 0x06F3   |
| Data Size    | 20 bytes |
| Instructions | 5        |

```
      00 01 02 03 04 05 06 07  08 09 0A 0B 0C 0D 0E 0F
      -- -- -- -- -- -- -- --  -- -- -- -- -- -- -- --
06F0:          59 04 32 50 0F  01 2E 80 1F 00 70 80 71     Y.2P......p.q
0700: 80 36 80 1F 01 6F 00                              .6...o.         
```

#### Opcodes

```
  0: 0x06F3 [0x59] UPDATE_ENTITY_DATA: Set Gurdern (ID: 17780786/0x010F5032) main speed = 12* * 0.1
  1: 0x06FB [0x1F] MOVE_ENTITY: EventEntity moves to X=-58.931*, Z=-86.942*, Y=5.999*
  2: 0x0703 [0x1F] MOVE_ENTITY: Update entity position (mode=1)
  3: 0x0705 [0x6F] WAIT_FRAME_DELAY: Yield until WaitTime reaches zero
  4: 0x0706 [0x00] END_REQSTACK()
```

### Event 65535.87

#### Metadata

| Field        | Value    |
|--------------|----------|
| Entrypoint   | 0x0707   |
| Data Size    | 17 bytes |
| Instructions | 2        |

```
      00 01 02 03 04 05 06 07  08 09 0A 0B 0C 0D 0E 0F
      -- -- -- -- -- -- -- --  -- -- -- -- -- -- -- --
0700:                      5B  45 80 32 50 0F 01 32 50         [E.2P..2P
0710: 0F 01 6F 70 30 30 00 00                           ..op00..        
```

#### Opcodes

```
  0: 0x0707 [0x5B] LOAD_EXT_SCHEDULER: Load scheduler "op00" with entities [Gurdern (ID: 17780786/0x010F5032), Gurdern (ID: 17780786/0x010F5032)], work=2621*
  1: 0x0716 [0x00] END_REQSTACK()
```

#### Data or dead code:

```
# Dead code (unreachable instructions):
     0x0717 [0x00] END_REQSTACK()
```

### Event 65535.88

#### Metadata

| Field        | Value    |
|--------------|----------|
| Entrypoint   | 0x0718   |
| Data Size    | 20 bytes |
| Instructions | 5        |

```
      00 01 02 03 04 05 06 07  08 09 0A 0B 0C 0D 0E 0F
      -- -- -- -- -- -- -- --  -- -- -- -- -- -- -- --
0710:                          59 04 1C 50 0F 01 31 80          Y..P..1.
0720: 1F 00 32 80 33 80 10 80  1F 01 6F 00              ..2.3.....o.    
```

#### Opcodes

```
  0: 0x0718 [0x59] UPDATE_ENTITY_DATA: Set Mertaire (ID: 17780764/0x010F501C) main speed = 11* * 0.1
  1: 0x0720 [0x1F] MOVE_ENTITY: EventEntity moves to X=-95.337*, Z=-156.056*, Y=0.000*
  2: 0x0728 [0x1F] MOVE_ENTITY: Update entity position (mode=1)
  3: 0x072A [0x6F] WAIT_FRAME_DELAY: Yield until WaitTime reaches zero
  4: 0x072B [0x00] END_REQSTACK()
```

### Event 65535.89

#### Metadata

| Field        | Value    |
|--------------|----------|
| Entrypoint   | 0x072C   |
| Data Size    | 20 bytes |
| Instructions | 5        |

```
      00 01 02 03 04 05 06 07  08 09 0A 0B 0C 0D 0E 0F
      -- -- -- -- -- -- -- --  -- -- -- -- -- -- -- --
0720:                                      59 04 1C 50              Y..P
0730: 0F 01 31 80 1F 00 72 80  73 80 74 80 1F 01 6F 00  ..1...r.s.t...o.
```

#### Opcodes

```
  0: 0x072C [0x59] UPDATE_ENTITY_DATA: Set Mertaire (ID: 17780764/0x010F501C) main speed = 11* * 0.1
  1: 0x0734 [0x1F] MOVE_ENTITY: EventEntity moves to X=-78.197*, Z=-116.328*, Y=3.999*
  2: 0x073C [0x1F] MOVE_ENTITY: Update entity position (mode=1)
  3: 0x073E [0x6F] WAIT_FRAME_DELAY: Yield until WaitTime reaches zero
  4: 0x073F [0x00] END_REQSTACK()
```

### Event 65535.90

#### Metadata

| Field        | Value    |
|--------------|----------|
| Entrypoint   | 0x0740   |
| Data Size    | 16 bytes |
| Instructions | 2        |

```
      00 01 02 03 04 05 06 07  08 09 0A 0B 0C 0D 0E 0F
      -- -- -- -- -- -- -- --  -- -- -- -- -- -- -- --
0740: 5B 75 80 1C 50 0F 01 1C  50 0F 01 6F 70 63 30 00  [u..P...P..opc0.
```

#### Opcodes

```
  0: 0x0740 [0x5B] LOAD_EXT_SCHEDULER: Load scheduler "opc0" with entities [Mertaire (ID: 17780764/0x010F501C), Mertaire (ID: 17780764/0x010F501C)], work=2583*
  1: 0x074F [0x00] END_REQSTACK()
```

### Event 65535.91

#### Metadata

| Field        | Value    |
|--------------|----------|
| Entrypoint   | 0x0750   |
| Data Size    | 16 bytes |
| Instructions | 2        |

```
      00 01 02 03 04 05 06 07  08 09 0A 0B 0C 0D 0E 0F
      -- -- -- -- -- -- -- --  -- -- -- -- -- -- -- --
0750: 5B 75 80 1C 50 0F 01 1C  50 0F 01 6F 70 63 31 00  [u..P...P..opc1.
```

#### Opcodes

```
  0: 0x0750 [0x5B] LOAD_EXT_SCHEDULER: Load scheduler "opc1" with entities [Mertaire (ID: 17780764/0x010F501C), Mertaire (ID: 17780764/0x010F501C)], work=2583*
  1: 0x075F [0x00] END_REQSTACK()
```

### Event 65535.92

#### Metadata

| Field        | Value    |
|--------------|----------|
| Entrypoint   | 0x0760   |
| Data Size    | 21 bytes |
| Instructions | 5        |

```
      00 01 02 03 04 05 06 07  08 09 0A 0B 0C 0D 0E 0F
      -- -- -- -- -- -- -- --  -- -- -- -- -- -- -- --
0760: 59 04 1C 50 0F 01 31 80  1F 00 76 80 77 80 10 80  Y..P..1...v.w...
0770: 1F 01 6F 00 00                                    ..o..           
```

#### Opcodes

```
  0: 0x0760 [0x59] UPDATE_ENTITY_DATA: Set Mertaire (ID: 17780764/0x010F501C) main speed = 11* * 0.1
  1: 0x0768 [0x1F] MOVE_ENTITY: EventEntity moves to X=-9.883*, Z=-9.826*, Y=0.000*
  2: 0x0770 [0x1F] MOVE_ENTITY: Update entity position (mode=1)
  3: 0x0772 [0x6F] WAIT_FRAME_DELAY: Yield until WaitTime reaches zero
  4: 0x0773 [0x00] END_REQSTACK()
```

#### Data or dead code:

```
# Dead code (unreachable instructions):
     0x0774 [0x00] END_REQSTACK()
```

### Event 65535.93

#### Metadata

| Field        | Value    |
|--------------|----------|
| Entrypoint   | 0x0775   |
| Data Size    | 20 bytes |
| Instructions | 5        |

```
      00 01 02 03 04 05 06 07  08 09 0A 0B 0C 0D 0E 0F
      -- -- -- -- -- -- -- --  -- -- -- -- -- -- -- --
0770:                59 04 1E  50 0F 01 78 80 1F 00 4A       Y..P..x...J
0780: 80 4B 80 36 80 1F 01 6F  00                       .K.6...o.       
```

#### Opcodes

```
  0: 0x0775 [0x59] UPDATE_ENTITY_DATA: Set Bki Tbujhja (ID: 17780766/0x010F501E) main speed = 9* * 0.1
  1: 0x077D [0x1F] MOVE_ENTITY: EventEntity moves to X=-74.699*, Z=-107.115*, Y=5.999*
  2: 0x0785 [0x1F] MOVE_ENTITY: Update entity position (mode=1)
  3: 0x0787 [0x6F] WAIT_FRAME_DELAY: Yield until WaitTime reaches zero
  4: 0x0788 [0x00] END_REQSTACK()
```

### Event 65535.94

#### Metadata

| Field        | Value    |
|--------------|----------|
| Entrypoint   | 0x0789   |
| Data Size    | 20 bytes |
| Instructions | 5        |

```
      00 01 02 03 04 05 06 07  08 09 0A 0B 0C 0D 0E 0F
      -- -- -- -- -- -- -- --  -- -- -- -- -- -- -- --
0780:                             59 04 1E 50 0F 01 31           Y..P..1
0790: 80 1F 00 79 80 7A 80 36  80 1F 01 6F 00           ...y.z.6...o.   
```

#### Opcodes

```
  0: 0x0789 [0x59] UPDATE_ENTITY_DATA: Set Bki Tbujhja (ID: 17780766/0x010F501E) main speed = 11* * 0.1
  1: 0x0791 [0x1F] MOVE_ENTITY: EventEntity moves to X=-72.052*, Z=-102.467*, Y=5.999*
  2: 0x0799 [0x1F] MOVE_ENTITY: Update entity position (mode=1)
  3: 0x079B [0x6F] WAIT_FRAME_DELAY: Yield until WaitTime reaches zero
  4: 0x079C [0x00] END_REQSTACK()
```

### Event 65535.95

#### Metadata

| Field        | Value    |
|--------------|----------|
| Entrypoint   | 0x079D   |
| Data Size    | 16 bytes |
| Instructions | 2        |

```
      00 01 02 03 04 05 06 07  08 09 0A 0B 0C 0D 0E 0F
      -- -- -- -- -- -- -- --  -- -- -- -- -- -- -- --
0790:                                         66 6A 80               fj.
07A0: 1E 50 0F 01 1E 50 0F 01  61 77 77 30 00           .P...P..aww0.   
```

#### Opcodes

```
  0: 0x079D [0x66] LOAD_EXT_SCHEDULER_MAIN: Load scheduler "aww0" with entities [Bki Tbujhja (ID: 17780766/0x010F501E), Bki Tbujhja (ID: 17780766/0x010F501E)], work=8*
  1: 0x07AC [0x00] END_REQSTACK()
```

### Event 65535.96

#### Metadata

| Field        | Value    |
|--------------|----------|
| Entrypoint   | 0x07AD   |
| Data Size    | 20 bytes |
| Instructions | 5        |

```
      00 01 02 03 04 05 06 07  08 09 0A 0B 0C 0D 0E 0F
      -- -- -- -- -- -- -- --  -- -- -- -- -- -- -- --
07A0:                                         59 04 1E               Y..
07B0: 50 0F 01 78 80 1F 00 7B  80 7C 80 10 80 1F 01 6F  P..x...{.|.....o
07C0: 00                                                .               
```

#### Opcodes

```
  0: 0x07AD [0x59] UPDATE_ENTITY_DATA: Set Bki Tbujhja (ID: 17780766/0x010F501E) main speed = 9* * 0.1
  1: 0x07B5 [0x1F] MOVE_ENTITY: EventEntity moves to X=-5.853*, Z=-5.190*, Y=0.000*
  2: 0x07BD [0x1F] MOVE_ENTITY: Update entity position (mode=1)
  3: 0x07BF [0x6F] WAIT_FRAME_DELAY: Yield until WaitTime reaches zero
  4: 0x07C0 [0x00] END_REQSTACK()
```

### Event 65535.97

#### Metadata

| Field        | Value    |
|--------------|----------|
| Entrypoint   | 0x07C1   |
| Data Size    | 21 bytes |
| Instructions | 5        |

```
      00 01 02 03 04 05 06 07  08 09 0A 0B 0C 0D 0E 0F
      -- -- -- -- -- -- -- --  -- -- -- -- -- -- -- --
07C0:    59 04 1E 50 0F 01 31  80 1F 00 70 80 71 80 36   Y..P..1...p.q.6
07D0: 80 1F 01 6F 00 00                                 ...o..          
```

#### Opcodes

```
  0: 0x07C1 [0x59] UPDATE_ENTITY_DATA: Set Bki Tbujhja (ID: 17780766/0x010F501E) main speed = 11* * 0.1
  1: 0x07C9 [0x1F] MOVE_ENTITY: EventEntity moves to X=-58.931*, Z=-86.942*, Y=5.999*
  2: 0x07D1 [0x1F] MOVE_ENTITY: Update entity position (mode=1)
  3: 0x07D3 [0x6F] WAIT_FRAME_DELAY: Yield until WaitTime reaches zero
  4: 0x07D4 [0x00] END_REQSTACK()
```

#### Data or dead code:

```
# Dead code (unreachable instructions):
     0x07D5 [0x00] END_REQSTACK()
```

### Event 65535.98

#### Metadata

| Field        | Value    |
|--------------|----------|
| Entrypoint   | 0x07D6   |
| Data Size    | 20 bytes |
| Instructions | 5        |

```
      00 01 02 03 04 05 06 07  08 09 0A 0B 0C 0D 0E 0F
      -- -- -- -- -- -- -- --  -- -- -- -- -- -- -- --
07D0:                   59 04  27 50 0F 01 2E 80 1F 00        Y.'P......
07E0: 7D 80 7E 80 7F 80 1F 01  6F 00                    }.~.....o.      
```

#### Opcodes

```
  0: 0x07D6 [0x59] UPDATE_ENTITY_DATA: Set Danzhor (ID: 17780775/0x010F5027) main speed = 12* * 0.1
  1: 0x07DE [0x1F] MOVE_ENTITY: EventEntity moves to X=-45.210*, Z=-89.196*, Y=-5.999*
  2: 0x07E6 [0x1F] MOVE_ENTITY: Update entity position (mode=1)
  3: 0x07E8 [0x6F] WAIT_FRAME_DELAY: Yield until WaitTime reaches zero
  4: 0x07E9 [0x00] END_REQSTACK()
```

### Event 65535.99

#### Metadata

| Field        | Value    |
|--------------|----------|
| Entrypoint   | 0x07EA   |
| Data Size    | 12 bytes |
| Instructions | 4        |

```
      00 01 02 03 04 05 06 07  08 09 0A 0B 0C 0D 0E 0F
      -- -- -- -- -- -- -- --  -- -- -- -- -- -- -- --
07E0:                                1F 00 80 80 81 80            ......
07F0: 10 80 1F 01 6F 00                                 ....o.          
```

#### Opcodes

```
  0: 0x07EA [0x1F] MOVE_ENTITY: EventEntity moves to X=-18.343*, Z=-8.286*, Y=0.000*
  1: 0x07F2 [0x1F] MOVE_ENTITY: Update entity position (mode=1)
  2: 0x07F4 [0x6F] WAIT_FRAME_DELAY: Yield until WaitTime reaches zero
  3: 0x07F5 [0x00] END_REQSTACK()
```

### Event 65535.100

#### Metadata

| Field        | Value    |
|--------------|----------|
| Entrypoint   | 0x07F6   |
| Data Size    | 16 bytes |
| Instructions | 2        |

```
      00 01 02 03 04 05 06 07  08 09 0A 0B 0C 0D 0E 0F
      -- -- -- -- -- -- -- --  -- -- -- -- -- -- -- --
07F0:                   66 42  80 27 50 0F 01 27 50 0F        fB.'P..'P.
0800: 01 74 68 6B 31 00                                 .thk1.          
```

#### Opcodes

```
  0: 0x07F6 [0x66] LOAD_EXT_SCHEDULER_MAIN: Load scheduler "thk1" with entities [Danzhor (ID: 17780775/0x010F5027), Danzhor (ID: 17780775/0x010F5027)], work=69*
