# 17780789 - Saprut

## Common Data

| Field            | Value                 |
|------------------|-----------------------|
| Zone             | Lower Jeuno (ID: 245) |
| Block Size       | 2752 bytes            |
| Total Events     | 102                   |
| References Count | 110                   |

## List of Events

| Event ID                   | Entrypoint   |   Size |   Instructions |
|----------------------------|--------------|--------|----------------|
| [65535](#event-65535)      | 0x0000       |      1 |              1 |
| [224](#event-224)          | 0x0001       |     61 |             13 |
| [10054](#event-10054)      | 0x003E       |     52 |             12 |
| [10076](#event-10076)      | 0x0072       |     66 |             16 |
| [10094](#event-10094)      | 0x00B4       |      5 |              3 |
| [65535.1](#event-655351)   | 0x00B9       |     20 |              5 |
| [65535.2](#event-655352)   | 0x00CD       |     20 |              5 |
| [65535.3](#event-655353)   | 0x00E1       |     20 |              5 |
| [65535.4](#event-655354)   | 0x00F5       |     17 |              3 |
| [65535.5](#event-655355)   | 0x0106       |     20 |              5 |
| [65535.6](#event-655356)   | 0x011A       |     20 |              5 |
| [65535.7](#event-655357)   | 0x012E       |     19 |              4 |
| [65535.8](#event-655358)   | 0x0141       |     19 |              4 |
| [65535.9](#event-655359)   | 0x0154       |     16 |              2 |
| [65535.10](#event-6553510) | 0x0164       |     16 |              2 |
| [65535.11](#event-6553511) | 0x0174       |     20 |              5 |
| [65535.12](#event-6553512) | 0x0188       |     16 |              2 |
| [65535.13](#event-6553513) | 0x0198       |     16 |              2 |
| [65535.14](#event-6553514) | 0x01A8       |     16 |              2 |
| [65535.15](#event-6553515) | 0x01B8       |     21 |              6 |
| [65535.16](#event-6553516) | 0x01CD       |     16 |              2 |
| [65535.17](#event-6553517) | 0x01DD       |     16 |              2 |
| [65535.18](#event-6553518) | 0x01ED       |     20 |              5 |
| [65535.19](#event-6553519) | 0x0201       |     17 |              3 |
| [65535.20](#event-6553520) | 0x0212       |     20 |              5 |
| [65535.21](#event-6553521) | 0x0226       |     16 |              2 |
| [65535.22](#event-6553522) | 0x0236       |     16 |              2 |
| [65535.23](#event-6553523) | 0x0246       |     16 |              2 |
| [65535.24](#event-6553524) | 0x0256       |     16 |              2 |
| [65535.25](#event-6553525) | 0x0266       |     16 |              2 |
| [65535.26](#event-6553526) | 0x0276       |     16 |              2 |
| [65535.27](#event-6553527) | 0x0286       |     16 |              2 |
| [65535.28](#event-6553528) | 0x0296       |     12 |              4 |
| [65535.29](#event-6553529) | 0x02A2       |     20 |              5 |
| [65535.30](#event-6553530) | 0x02B6       |     17 |              3 |
| [65535.31](#event-6553531) | 0x02C7       |     17 |              3 |
| [65535.32](#event-6553532) | 0x02D8       |     16 |              2 |
| [65535.33](#event-6553533) | 0x02E8       |     16 |              2 |
| [65535.34](#event-6553534) | 0x02F8       |     16 |              2 |
| [65535.35](#event-6553535) | 0x0308       |     16 |              2 |
| [65535.36](#event-6553536) | 0x0318       |     16 |              2 |
| [65535.37](#event-6553537) | 0x0328       |     16 |              2 |
| [65535.38](#event-6553538) | 0x0338       |     13 |              5 |
| [65535.39](#event-6553539) | 0x0345       |     20 |              5 |
| [65535.40](#event-6553540) | 0x0359       |     12 |              4 |
| [65535.41](#event-6553541) | 0x0365       |     16 |              2 |
| [65535.42](#event-6553542) | 0x0375       |     16 |              2 |
| [65535.43](#event-6553543) | 0x0385       |     16 |              2 |
| [65535.44](#event-6553544) | 0x0395       |     20 |              5 |
| [65535.45](#event-6553545) | 0x03A9       |     29 |              6 |
| [65535.46](#event-6553546) | 0x03C6       |     17 |              3 |
| [65535.47](#event-6553547) | 0x03D7       |     20 |              5 |
| [65535.48](#event-6553548) | 0x03EB       |     20 |              5 |
| [65535.49](#event-6553549) | 0x03FF       |     20 |              5 |
| [65535.50](#event-6553550) | 0x0413       |     20 |              5 |
| [65535.51](#event-6553551) | 0x0427       |     20 |              5 |
| [65535.52](#event-6553552) | 0x043B       |     16 |              2 |
| [65535.53](#event-6553553) | 0x044B       |     16 |              2 |
| [65535.54](#event-6553554) | 0x045B       |     20 |              5 |
| [65535.55](#event-6553555) | 0x046F       |     16 |              2 |
| [65535.56](#event-6553556) | 0x047F       |     16 |              2 |
| [65535.57](#event-6553557) | 0x048F       |     16 |              2 |
| [65535.58](#event-6553558) | 0x049F       |     16 |              2 |
| [65535.59](#event-6553559) | 0x04AF       |     21 |              6 |
| [65535.60](#event-6553560) | 0x04C4       |     20 |              5 |
| [65535.61](#event-6553561) | 0x04D8       |     20 |              5 |
| [65535.62](#event-6553562) | 0x04EC       |     17 |              3 |
| [65535.63](#event-6553563) | 0x04FD       |     20 |              5 |
| [65535.64](#event-6553564) | 0x0511       |     20 |              5 |
| [65535.65](#event-6553565) | 0x0525       |     16 |              2 |
| [65535.66](#event-6553566) | 0x0535       |     16 |              2 |
| [65535.67](#event-6553567) | 0x0545       |     21 |              6 |
| [65535.68](#event-6553568) | 0x055A       |     20 |              5 |
| [65535.69](#event-6553569) | 0x056E       |     20 |              5 |
| [65535.70](#event-6553570) | 0x0582       |     16 |              2 |
| [65535.71](#event-6553571) | 0x0592       |     20 |              5 |
| [65535.72](#event-6553572) | 0x05A6       |     21 |              6 |
| [65535.73](#event-6553573) | 0x05BB       |     20 |              5 |
| [65535.74](#event-6553574) | 0x05CF       |     12 |              4 |
| [65535.75](#event-6553575) | 0x05DB       |     16 |              2 |
| [65535.76](#event-6553576) | 0x05EB       |     16 |              2 |
| [65535.77](#event-6553577) | 0x05FB       |     20 |              5 |
| [65535.78](#event-6553578) | 0x060F       |     20 |              5 |
| [65535.79](#event-6553579) | 0x0623       |     17 |              3 |
| [65535.80](#event-6553580) | 0x0634       |     16 |              2 |
| [65535.81](#event-6553581) | 0x0644       |     16 |              2 |
| [65535.82](#event-6553582) | 0x0654       |     16 |              2 |
| [65535.83](#event-6553583) | 0x0664       |     16 |              2 |
| [65535.84](#event-6553584) | 0x0674       |     17 |              3 |
| [65535.85](#event-6553585) | 0x0685       |     20 |              5 |
| [65535.86](#event-6553586) | 0x0699       |     12 |              4 |
| [65535.87](#event-6553587) | 0x06A5       |     16 |              2 |
| [65535.88](#event-6553588) | 0x06B5       |     16 |              2 |
| [65535.89](#event-6553589) | 0x06C5       |     16 |              2 |
| [65535.90](#event-6553590) | 0x06D5       |     16 |              2 |
| [65535.91](#event-6553591) | 0x06E5       |     16 |              2 |
| [65535.92](#event-6553592) | 0x06F5       |     16 |              2 |
| [65535.93](#event-6553593) | 0x0705       |     16 |              2 |
| [65535.94](#event-6553594) | 0x0715       |     20 |              5 |
| [65535.95](#event-6553595) | 0x0729       |     20 |              5 |
| [65535.96](#event-6553596) | 0x073D       |     16 |              2 |
| [65535.97](#event-6553597) | 0x074D       |     16 |              2 |

## DAT References (imed_data)

|   Index | Hex Value   |   Dec Value |
|---------|-------------|-------------|
|       0 | 0x0000      |           0 |
|       1 | 0x1E6E      |        7790 |
|       2 | 0x1E6F      |        7791 |
|       3 | 0x250E      |        9486 |
|       4 | 0x001E      |          30 |
|       5 | 0x2513      |        9491 |
|       6 | 0x2514      |        9492 |
|       7 | 0x25A0      |        9632 |
|       8 | 0x25A1      |        9633 |
|       9 | 0x25A2      |        9634 |
|      10 | 0x0001      |           1 |
|      11 | 0x000C      |          12 |
|      12 | 0xFFFED6C4  |  4294891204 |
|      13 | 0xFFFDEB5B  |  4294830939 |
|      14 | 0x000B      |          11 |
|      15 | 0xFFFE8B97  |  4294871959 |
|      16 | 0xFFFD9E68  |  4294811240 |
|      17 | 0xFFFF0D87  |  4294905223 |
|      18 | 0xFFFEA0EF  |  4294877423 |
|      19 | 0x176F      |        5999 |
|      20 | 0x0A3A      |        2618 |
|      21 | 0xFFFEB818  |  4294883352 |
|      22 | 0xFFFE098F  |  4294838671 |
|      23 | 0xFFFEF410  |  4294898704 |
|      24 | 0xFFFE85B9  |  4294870457 |
|      25 | 0xFFFEEC91  |  4294896785 |
|      26 | 0xFFFE6EA2  |  4294864546 |
|      27 | 0x0A2A      |        2602 |
|      28 | 0xFFFEE552  |  4294894930 |
|      29 | 0xFFFE3269  |  4294849129 |
|      30 | 0x0A39      |        2617 |
|      31 | 0x0045      |          69 |
|      32 | 0xFFFF2160  |  4294910304 |
|      33 | 0xFFFEA80E  |  4294879246 |
|      34 | 0x0A3D      |        2621 |
|      35 | 0x0A43      |        2627 |
|      36 | 0x004B      |          75 |
|      37 | 0xFFFFB20E  |  4294947342 |
|      38 | 0xFFFFAE2A  |  4294946346 |
|      39 | 0xFFFEDC35  |  4294892597 |
|      40 | 0xFFFE5D95  |  4294860181 |
|      41 | 0x0A47      |        2631 |
|      42 | 0x0055      |          85 |
|      43 | 0xFFFFB26F  |  4294947439 |
|      44 | 0xFFFFAB30  |  4294945584 |
|      45 | 0x000E      |          14 |
|      46 | 0xFFFF6C7D  |  4294929533 |
|      47 | 0xFFFF0AA4  |  4294904484 |
|      48 | 0xFFFFCBCA  |  4294953930 |
|      49 | 0x09E0      |        2528 |
|      50 | 0xFFFFFE3F  |  4294966847 |
|      51 | 0x0028      |          40 |
|      52 | 0x0029      |          41 |
|      53 | 0xFFFEEA26  |  4294896166 |
|      54 | 0xFFFE4F39  |  4294856505 |
|      55 | 0xFFFED8EC  |  4294891756 |
|      56 | 0xFFFE38BF  |  4294850751 |
|      57 | 0xFFFEC5BC  |  4294886844 |
|      58 | 0xFFFE1640  |  4294841920 |
|      59 | 0x03E7      |         999 |
|      60 | 0x0A33      |        2611 |
|      61 | 0x000D      |          13 |
|      62 | 0xFFFF04E1  |  4294903009 |
|      63 | 0xFFFE7108  |  4294865160 |
|      64 | 0x108C      |        4236 |
|      65 | 0x10F0      |        4336 |
|      66 | 0xFFFFC3F0  |  4294951920 |
|      67 | 0xFFFFA321  |  4294943521 |
|      68 | 0xFFFFFF9B  |  4294967195 |
|      69 | 0x000A      |          10 |
|      70 | 0x0A18      |        2584 |
|      71 | 0xFFFFFC21  |  4294966305 |
|      72 | 0x084B      |        2123 |
|      73 | 0x0008      |           8 |
|      74 | 0x0033      |          51 |
|      75 | 0xFFFF0DFA  |  4294905338 |
|      76 | 0xFFFE6C9D  |  4294864029 |
|      77 | 0xFFFEFBE3  |  4294900707 |
|      78 | 0xFFFE9775  |  4294874997 |
|      79 | 0xFFFF19CD  |  4294908365 |
|      80 | 0xFFFEAC62  |  4294880354 |
|      81 | 0xFFFECE8B  |  4294889099 |
|      82 | 0xFFFE3998  |  4294850968 |
|      83 | 0x0F9F      |        3999 |
|      84 | 0x0A17      |        2583 |
|      85 | 0xFFFFD965  |  4294957413 |
|      86 | 0xFFFFD99E  |  4294957470 |
|      87 | 0x0009      |           9 |
|      88 | 0xFFFEE68C  |  4294895244 |
|      89 | 0xFFFE6FBD  |  4294864829 |
|      90 | 0xFFFFE923  |  4294961443 |
|      91 | 0xFFFFEBBA  |  4294962106 |
|      92 | 0xFFFF4F66  |  4294922086 |
|      93 | 0xFFFEA394  |  4294878100 |
|      94 | 0xFFFFE891  |  4294961297 |
|      95 | 0xFFFFB859  |  4294948953 |
|      96 | 0xFFFFDFA2  |  4294959010 |
|      97 | 0xFFFFB9ED  |  4294949357 |
|      98 | 0xFFFFBF3D  |  4294950717 |
|      99 | 0xFFFFF407  |  4294964231 |
|     100 | 0xFFFFE105  |  4294959365 |
|     101 | 0x003C      |          60 |
|     102 | 0x0A40      |        2624 |
|     103 | 0xFFFF6A1D  |  4294928925 |
|     104 | 0xFFFEF858  |  4294899800 |
|     105 | 0xFFFFEA43  |  4294961731 |
|     106 | 0xFFFFF8F4  |  4294965492 |
|     107 | 0x0002      |           2 |
|     108 | 0xFFFFF533  |  4294964531 |
|     109 | 0x13C3      |        5059 |

## String References

- **7790**: Jeuno's a special city. We're a melting pot of all different kinds of people. I love this town.
- **7791**: Of course, sometimes we fail to understand how different we all are. That's just the kind of thing we need to avoid.
- **9486**: <Player>'s badge flashes brightly.
- **9491**: Jeuno is different from the other nations. I actually kind of enjoy watching everyone squabble with each other.
- **9492**: I can't imagine why anyone would want to go all the way to the Near East and become a mercenary.
- **9632**: I hear that, unlike other cities, Jeuno has sought the path of peace since the advent of the Great War.
- **9633**: It was Archduke Kam'lanaut, among other Jeunoan dignitaries, who championed the idea of an alliance of nations.
- **9634**: The alliance forged in Jeuno's own Ru'Lude Gardens bound the separate armies into a force to be reckoned with.

## Events

### Event 65535

#### Metadata

| Field        | Value   |
|--------------|---------|
| Entrypoint   | 0x0000  |
| Data Size    | 1 bytes |
| Instructions | 1       |

```
      00 01 02 03 04 05 06 07  08 09 0A 0B 0C 0D 0E 0F
      -- -- -- -- -- -- -- --  -- -- -- -- -- -- -- --
0000: 00                                                .               
```

#### Opcodes

```
  0: 0x0000 [0x00] END_REQSTACK()
```

### Event 224

#### Metadata

| Field        | Value    |
|--------------|----------|
| Entrypoint   | 0x0001   |
| Data Size    | 61 bytes |
| Instructions | 13       |

```
      00 01 02 03 04 05 06 07  08 09 0A 0B 0C 0D 0E 0F
      -- -- -- -- -- -- -- --  -- -- -- -- -- -- -- --
0000:    42 1E F0 FF FF 7F 6F  70 66 00 80 F8 FF FF 7F   B.....opf......
0010: F8 FF FF 7F 74 6C 6B 30  1D 01 80 23 1D 02 80 23  ....tlk0...#...#
0020: 66 00 80 F8 FF FF 7F F8  FF FF 7F 74 65 6E 30 53  f..........ten0S
0030: F8 FF FF 7F F8 FF FF 7F  74 65 6E 30 21 00        ........ten0!.  
```

#### Opcodes

```
  0: 0x0001 [0x42] SET_CLI_EVENT_CANCEL_DATA()
  1: 0x0002 [0x1E] EventEntity looks at LocalPlayer and starts talking
  2: 0x0007 [0x6F] WAIT_FRAME_DELAY: Yield until WaitTime reaches zero
  3: 0x0008 [0x70] WAIT_ENTITY_RENDER_FLAG: Wait while EventEntity->Render.Flags3 bit 2 is set (cancel turn if not)
  4: 0x0009 [0x66] LOAD_EXT_SCHEDULER_MAIN: Load scheduler "tlk0" with entities [EventEntity, EventEntity], work=0*
  5: 0x0018 [0x1D] PRINT_EVENT_MESSAGE(message_id=7790*)
    → "Jeuno's a special city. We're a melting pot of all different kinds of people. I love this town."
  6: 0x001B [0x23] WAIT_FOR_DIALOG_INTERACTION
  7: 0x001C [0x1D] PRINT_EVENT_MESSAGE(message_id=7791*)
    → "Of course, sometimes we fail to understand how different we all are. That's just the kind of thing we need to avoid."
  8: 0x001F [0x23] WAIT_FOR_DIALOG_INTERACTION
  9: 0x0020 [0x66] LOAD_EXT_SCHEDULER_MAIN: Load scheduler "ten0" with entities [EventEntity, EventEntity], work=0*
 10: 0x002F [0x53] WAIT_SCHEDULER_TASK: Wait for scheduler "ten0" with entities [EventEntity, EventEntity]
 11: 0x003C [0x21] END_EVENT
 12: 0x003D [0x00] END_REQSTACK()
```

### Event 10054

#### Metadata

| Field        | Value    |
|--------------|----------|
| Entrypoint   | 0x003E   |
| Data Size    | 52 bytes |
| Instructions | 12       |

```
      00 01 02 03 04 05 06 07  08 09 0A 0B 0C 0D 0E 0F
      -- -- -- -- -- -- -- --  -- -- -- -- -- -- -- --
0030:                                            42 48                BH
0040: 03 80 1E F0 FF FF 7F 1C  04 80 66 00 80 F8 FF FF  ..........f.....
0050: 7F F8 FF FF 7F 74 6C 6B  30 1D 05 80 23 1D 06 80  .....tlk0...#...
0060: 23 66 00 80 F8 FF FF 7F  F8 FF FF 7F 74 65 6E 30  #f..........ten0
0070: 21 00                                             !.              
```

#### Opcodes

```
  0: 0x003E [0x42] SET_CLI_EVENT_CANCEL_DATA()
  1: 0x003F [0x48] [System] [9486*]:
    → "<Player>'s badge flashes brightly."
  2: 0x0042 [0x1E] EventEntity looks at LocalPlayer and starts talking
  3: 0x0047 [0x1C] WAIT(30* ticks)
  4: 0x004A [0x66] LOAD_EXT_SCHEDULER_MAIN: Load scheduler "tlk0" with entities [EventEntity, EventEntity], work=0*
  5: 0x0059 [0x1D] PRINT_EVENT_MESSAGE(message_id=9491*)
    → "Jeuno is different from the other nations. I actually kind of enjoy watching everyone squabble with each other."
  6: 0x005C [0x23] WAIT_FOR_DIALOG_INTERACTION
  7: 0x005D [0x1D] PRINT_EVENT_MESSAGE(message_id=9492*)
    → "I can't imagine why anyone would want to go all the way to the Near East and become a mercenary."
  8: 0x0060 [0x23] WAIT_FOR_DIALOG_INTERACTION
  9: 0x0061 [0x66] LOAD_EXT_SCHEDULER_MAIN: Load scheduler "ten0" with entities [EventEntity, EventEntity], work=0*
 10: 0x0070 [0x21] END_EVENT
 11: 0x0071 [0x00] END_REQSTACK()
```

### Event 10076

#### Metadata

| Field        | Value    |
|--------------|----------|
| Entrypoint   | 0x0072   |
| Data Size    | 66 bytes |
| Instructions | 15       |

```
      00 01 02 03 04 05 06 07  08 09 0A 0B 0C 0D 0E 0F
      -- -- -- -- -- -- -- --  -- -- -- -- -- -- -- --
0070:       42 1E F0 FF FF 7F  6F 70 66 00 80 F8 FF FF    B.....opf.....
0080: 7F F8 FF FF 7F 74 6C 6B  30 1D 07 80 23 1D 08 80  .....tlk0...#...
0090: 23 1D 09 80 23 66 00 80  F8 FF FF 7F F8 FF FF 7F  #...#f..........
00A0: 74 65 6E 30 53 F8 FF FF  7F F8 FF FF 7F 74 65 6E  ten0S........ten
00B0: 30 21 00 00                                       0!..            
```

#### Opcodes

```
  0: 0x0072 [0x42] SET_CLI_EVENT_CANCEL_DATA()
  1: 0x0073 [0x1E] EventEntity looks at LocalPlayer and starts talking
  2: 0x0078 [0x6F] WAIT_FRAME_DELAY: Yield until WaitTime reaches zero
  3: 0x0079 [0x70] WAIT_ENTITY_RENDER_FLAG: Wait while EventEntity->Render.Flags3 bit 2 is set (cancel turn if not)
  4: 0x007A [0x66] LOAD_EXT_SCHEDULER_MAIN: Load scheduler "tlk0" with entities [EventEntity, EventEntity], work=0*
  5: 0x0089 [0x1D] PRINT_EVENT_MESSAGE(message_id=9632*)
    → "I hear that, unlike other cities, Jeuno has sought the path of peace since the advent of the Great War."
  6: 0x008C [0x23] WAIT_FOR_DIALOG_INTERACTION
  7: 0x008D [0x1D] PRINT_EVENT_MESSAGE(message_id=9633*)
    → "It was Archduke Kam'lanaut, among other Jeunoan dignitaries, who championed the idea of an alliance of nations."
  8: 0x0090 [0x23] WAIT_FOR_DIALOG_INTERACTION
  9: 0x0091 [0x1D] PRINT_EVENT_MESSAGE(message_id=9634*)
    → "The alliance forged in Jeuno's own Ru'Lude Gardens bound the separate armies into a force to be reckoned with."
 10: 0x0094 [0x23] WAIT_FOR_DIALOG_INTERACTION
 11: 0x0095 [0x66] LOAD_EXT_SCHEDULER_MAIN: Load scheduler "ten0" with entities [EventEntity, EventEntity], work=0*
 12: 0x00A4 [0x53] WAIT_SCHEDULER_TASK: Wait for scheduler "ten0" with entities [EventEntity, EventEntity]
 13: 0x00B1 [0x21] END_EVENT
 14: 0x00B2 [0x00] END_REQSTACK()
```

#### Data or dead code:

```
# Dead code (unreachable instructions):
     0x00B3 [0x00] END_REQSTACK()
```

### Event 10094

#### Metadata

| Field        | Value   |
|--------------|---------|
| Entrypoint   | 0x00B4  |
| Data Size    | 5 bytes |
| Instructions | 2       |

```
      00 01 02 03 04 05 06 07  08 09 0A 0B 0C 0D 0E 0F
      -- -- -- -- -- -- -- --  -- -- -- -- -- -- -- --
00B0:             C0 0A 80 00  00                           .....       
```

#### Opcodes

```
  0: 0x00B4 [0xC0] EventEntity->Render.Flags3 |= 0x1000 // Set bit 12 (from 1*)
  1: 0x00B7 [0x00] END_REQSTACK()
```

#### Data or dead code:

```
# Dead code (unreachable instructions):
     0x00B8 [0x00] END_REQSTACK()
```

### Event 65535.1

#### Metadata

| Field        | Value    |
|--------------|----------|
| Entrypoint   | 0x00B9   |
| Data Size    | 20 bytes |
| Instructions | 5        |

```
      00 01 02 03 04 05 06 07  08 09 0A 0B 0C 0D 0E 0F
      -- -- -- -- -- -- -- --  -- -- -- -- -- -- -- --
00B0:                             59 04 0B 50 0F 01 0B           Y..P...
00C0: 80 1F 00 0C 80 0D 80 00  80 1F 01 6F 00           ...........o.   
```

#### Opcodes

```
  0: 0x00B9 [0x59] UPDATE_ENTITY_DATA: Set Garnev (ID: 17780747/0x010F500B) main speed = 12* * 0.1
  1: 0x00C1 [0x1F] MOVE_ENTITY: EventEntity moves to X=-76.092*, Z=-136.357*, Y=0.000*
  2: 0x00C9 [0x1F] MOVE_ENTITY: Update entity position (mode=1)
  3: 0x00CB [0x6F] WAIT_FRAME_DELAY: Yield until WaitTime reaches zero
  4: 0x00CC [0x00] END_REQSTACK()
```

### Event 65535.2

#### Metadata

| Field        | Value    |
|--------------|----------|
| Entrypoint   | 0x00CD   |
| Data Size    | 20 bytes |
| Instructions | 5        |

```
      00 01 02 03 04 05 06 07  08 09 0A 0B 0C 0D 0E 0F
      -- -- -- -- -- -- -- --  -- -- -- -- -- -- -- --
00C0:                                         59 04 1D               Y..
00D0: 50 0F 01 0E 80 1F 00 0F  80 10 80 00 80 1F 01 6F  P..............o
00E0: 00                                                .               
```

#### Opcodes

```
  0: 0x00CD [0x59] UPDATE_ENTITY_DATA: Set Mataligeat (ID: 17780765/0x010F501D) main speed = 11* * 0.1
  1: 0x00D5 [0x1F] MOVE_ENTITY: EventEntity moves to X=-95.337*, Z=-156.056*, Y=0.000*
  2: 0x00DD [0x1F] MOVE_ENTITY: Update entity position (mode=1)
  3: 0x00DF [0x6F] WAIT_FRAME_DELAY: Yield until WaitTime reaches zero
  4: 0x00E0 [0x00] END_REQSTACK()
```

### Event 65535.3

#### Metadata

| Field        | Value    |
|--------------|----------|
| Entrypoint   | 0x00E1   |
| Data Size    | 20 bytes |
| Instructions | 5        |

```
      00 01 02 03 04 05 06 07  08 09 0A 0B 0C 0D 0E 0F
      -- -- -- -- -- -- -- --  -- -- -- -- -- -- -- --
00E0:    59 04 1D 50 0F 01 0E  80 1F 00 11 80 12 80 13   Y..P...........
00F0: 80 1F 01 6F 00                                    ...o.           
```

#### Opcodes

```
  0: 0x00E1 [0x59] UPDATE_ENTITY_DATA: Set Mataligeat (ID: 17780765/0x010F501D) main speed = 11* * 0.1
  1: 0x00E9 [0x1F] MOVE_ENTITY: EventEntity moves to X=-62.073*, Z=-89.873*, Y=5.999*
  2: 0x00F1 [0x1F] MOVE_ENTITY: Update entity position (mode=1)
  3: 0x00F3 [0x6F] WAIT_FRAME_DELAY: Yield until WaitTime reaches zero
  4: 0x00F4 [0x00] END_REQSTACK()
```

### Event 65535.4

#### Metadata

| Field        | Value    |
|--------------|----------|
| Entrypoint   | 0x00F5   |
| Data Size    | 17 bytes |
| Instructions | 2        |

```
      00 01 02 03 04 05 06 07  08 09 0A 0B 0C 0D 0E 0F
      -- -- -- -- -- -- -- --  -- -- -- -- -- -- -- --
00F0:                5B 14 80  1D 50 0F 01 1D 50 0F 01       [...P...P..
0100: 6F 70 30 30 00 00                                 op00..          
```

#### Opcodes

```
  0: 0x00F5 [0x5B] LOAD_EXT_SCHEDULER: Load scheduler "op00" with entities [Mataligeat (ID: 17780765/0x010F501D), Mataligeat (ID: 17780765/0x010F501D)], work=2618*
  1: 0x0104 [0x00] END_REQSTACK()
```

#### Data or dead code:

```
# Dead code (unreachable instructions):
     0x0105 [0x00] END_REQSTACK()
```

### Event 65535.5

#### Metadata

| Field        | Value    |
|--------------|----------|
| Entrypoint   | 0x0106   |
| Data Size    | 20 bytes |
| Instructions | 5        |

```
      00 01 02 03 04 05 06 07  08 09 0A 0B 0C 0D 0E 0F
      -- -- -- -- -- -- -- --  -- -- -- -- -- -- -- --
0100:                   59 04  3A 50 0F 01 0E 80 1F 00        Y.:P......
0110: 0F 80 10 80 00 80 1F 01  6F 00                    ........o.      
```

#### Opcodes

```
  0: 0x0106 [0x59] UPDATE_ENTITY_DATA: Set Navisse (ID: 17780794/0x010F503A) main speed = 11* * 0.1
  1: 0x010E [0x1F] MOVE_ENTITY: EventEntity moves to X=-95.337*, Z=-156.056*, Y=0.000*
  2: 0x0116 [0x1F] MOVE_ENTITY: Update entity position (mode=1)
  3: 0x0118 [0x6F] WAIT_FRAME_DELAY: Yield until WaitTime reaches zero
  4: 0x0119 [0x00] END_REQSTACK()
```

### Event 65535.6

#### Metadata

| Field        | Value    |
|--------------|----------|
| Entrypoint   | 0x011A   |
| Data Size    | 20 bytes |
| Instructions | 5        |

```
      00 01 02 03 04 05 06 07  08 09 0A 0B 0C 0D 0E 0F
      -- -- -- -- -- -- -- --  -- -- -- -- -- -- -- --
0110:                                59 04 2C 50 0F 01            Y.,P..
0120: 0B 80 1F 00 15 80 16 80  00 80 1F 01 6F 00        ............o.  
```

#### Opcodes

```
  0: 0x011A [0x59] UPDATE_ENTITY_DATA: Set Jazmin (ID: 17780780/0x010F502C) main speed = 12* * 0.1
  1: 0x0122 [0x1F] MOVE_ENTITY: EventEntity moves to X=-83.944*, Z=-128.625*, Y=0.000*
  2: 0x012A [0x1F] MOVE_ENTITY: Update entity position (mode=1)
  3: 0x012C [0x6F] WAIT_FRAME_DELAY: Yield until WaitTime reaches zero
  4: 0x012D [0x00] END_REQSTACK()
```

### Event 65535.7

#### Metadata

| Field        | Value    |
|--------------|----------|
| Entrypoint   | 0x012E   |
| Data Size    | 19 bytes |
| Instructions | 4        |

```
      00 01 02 03 04 05 06 07  08 09 0A 0B 0C 0D 0E 0F
      -- -- -- -- -- -- -- --  -- -- -- -- -- -- -- --
0120:                                            59 04                Y.
0130: 2C 50 0F 01 0E 80 1F 00  17 80 18 80 13 80 1F 01  ,P..............
0140: 00                                                .               
```

#### Opcodes

```
  0: 0x012E [0x59] UPDATE_ENTITY_DATA: Set Jazmin (ID: 17780780/0x010F502C) main speed = 11* * 0.1
  1: 0x0136 [0x1F] MOVE_ENTITY: EventEntity moves to X=-68.592*, Z=-96.839*, Y=5.999*
  2: 0x013E [0x1F] MOVE_ENTITY: Update entity position (mode=1)
  3: 0x0140 [0x00] END_REQSTACK()
```

### Event 65535.8

#### Metadata

| Field        | Value    |
|--------------|----------|
| Entrypoint   | 0x0141   |
| Data Size    | 19 bytes |
| Instructions | 4        |

```
      00 01 02 03 04 05 06 07  08 09 0A 0B 0C 0D 0E 0F
      -- -- -- -- -- -- -- --  -- -- -- -- -- -- -- --
0140:    59 04 2C 50 0F 01 0E  80 1F 00 19 80 1A 80 13   Y.,P...........
0150: 80 1F 01 00                                       ....            
```

#### Opcodes

```
  0: 0x0141 [0x59] UPDATE_ENTITY_DATA: Set Jazmin (ID: 17780780/0x010F502C) main speed = 11* * 0.1
  1: 0x0149 [0x1F] MOVE_ENTITY: EventEntity moves to X=-70.511*, Z=-102.750*, Y=5.999*
  2: 0x0151 [0x1F] MOVE_ENTITY: Update entity position (mode=1)
  3: 0x0153 [0x00] END_REQSTACK()
```

### Event 65535.9

#### Metadata

| Field        | Value    |
|--------------|----------|
| Entrypoint   | 0x0154   |
| Data Size    | 16 bytes |
| Instructions | 2        |

```
      00 01 02 03 04 05 06 07  08 09 0A 0B 0C 0D 0E 0F
      -- -- -- -- -- -- -- --  -- -- -- -- -- -- -- --
0150:             5B 1B 80 2C  50 0F 01 2C 50 0F 01 6F      [..,P..,P..o
0160: 70 30 30 00                                       p00.            
```

#### Opcodes

```
  0: 0x0154 [0x5B] LOAD_EXT_SCHEDULER: Load scheduler "op00" with entities [Jazmin (ID: 17780780/0x010F502C), Jazmin (ID: 17780780/0x010F502C)], work=2602*
  1: 0x0163 [0x00] END_REQSTACK()
```

### Event 65535.10

#### Metadata

| Field        | Value    |
|--------------|----------|
| Entrypoint   | 0x0164   |
| Data Size    | 16 bytes |
| Instructions | 2        |

```
      00 01 02 03 04 05 06 07  08 09 0A 0B 0C 0D 0E 0F
      -- -- -- -- -- -- -- --  -- -- -- -- -- -- -- --
0160:             5B 1B 80 2C  50 0F 01 2C 50 0F 01 6F      [..,P..,P..o
0170: 70 30 31 00                                       p01.            
```

#### Opcodes

```
  0: 0x0164 [0x5B] LOAD_EXT_SCHEDULER: Load scheduler "op01" with entities [Jazmin (ID: 17780780/0x010F502C), Jazmin (ID: 17780780/0x010F502C)], work=2602*
  1: 0x0173 [0x00] END_REQSTACK()
```

### Event 65535.11

#### Metadata

| Field        | Value    |
|--------------|----------|
| Entrypoint   | 0x0174   |
| Data Size    | 20 bytes |
| Instructions | 5        |

```
      00 01 02 03 04 05 06 07  08 09 0A 0B 0C 0D 0E 0F
      -- -- -- -- -- -- -- --  -- -- -- -- -- -- -- --
0170:             59 04 2C 50  0F 01 0E 80 1F 00 1C 80      Y.,P........
0180: 1D 80 13 80 1F 01 6F 00                           ......o.        
```

#### Opcodes

```
  0: 0x0174 [0x59] UPDATE_ENTITY_DATA: Set Jazmin (ID: 17780780/0x010F502C) main speed = 11* * 0.1
  1: 0x017C [0x1F] MOVE_ENTITY: EventEntity moves to X=-72.366*, Z=-118.167*, Y=5.999*
  2: 0x0184 [0x1F] MOVE_ENTITY: Update entity position (mode=1)
  3: 0x0186 [0x6F] WAIT_FRAME_DELAY: Yield until WaitTime reaches zero
  4: 0x0187 [0x00] END_REQSTACK()
```

### Event 65535.12

#### Metadata

| Field        | Value    |
|--------------|----------|
| Entrypoint   | 0x0188   |
| Data Size    | 16 bytes |
| Instructions | 2        |

```
      00 01 02 03 04 05 06 07  08 09 0A 0B 0C 0D 0E 0F
      -- -- -- -- -- -- -- --  -- -- -- -- -- -- -- --
0180:                          5B 1E 80 2C 50 0F 01 2C          [..,P..,
0190: 50 0F 01 6F 70 61 30 00                           P..opa0.        
```

#### Opcodes

```
  0: 0x0188 [0x5B] LOAD_EXT_SCHEDULER: Load scheduler "opa0" with entities [Jazmin (ID: 17780780/0x010F502C), Jazmin (ID: 17780780/0x010F502C)], work=2617*
  1: 0x0197 [0x00] END_REQSTACK()
```

### Event 65535.13

#### Metadata

| Field        | Value    |
|--------------|----------|
| Entrypoint   | 0x0198   |
| Data Size    | 16 bytes |
| Instructions | 2        |

```
      00 01 02 03 04 05 06 07  08 09 0A 0B 0C 0D 0E 0F
      -- -- -- -- -- -- -- --  -- -- -- -- -- -- -- --
0190:                          5B 1E 80 2C 50 0F 01 2C          [..,P..,
01A0: 50 0F 01 6F 70 61 31 00                           P..opa1.        
```

#### Opcodes

```
  0: 0x0198 [0x5B] LOAD_EXT_SCHEDULER: Load scheduler "opa1" with entities [Jazmin (ID: 17780780/0x010F502C), Jazmin (ID: 17780780/0x010F502C)], work=2617*
  1: 0x01A7 [0x00] END_REQSTACK()
```

### Event 65535.14

#### Metadata

| Field        | Value    |
|--------------|----------|
| Entrypoint   | 0x01A8   |
| Data Size    | 16 bytes |
| Instructions | 2        |

```
      00 01 02 03 04 05 06 07  08 09 0A 0B 0C 0D 0E 0F
      -- -- -- -- -- -- -- --  -- -- -- -- -- -- -- --
01A0:                          5B 1E 80 2C 50 0F 01 2C          [..,P..,
01B0: 50 0F 01 6F 70 61 32 00                           P..opa2.        
```

#### Opcodes

```
  0: 0x01A8 [0x5B] LOAD_EXT_SCHEDULER: Load scheduler "opa2" with entities [Jazmin (ID: 17780780/0x010F502C), Jazmin (ID: 17780780/0x010F502C)], work=2617*
  1: 0x01B7 [0x00] END_REQSTACK()
```

### Event 65535.15

#### Metadata

| Field        | Value    |
|--------------|----------|
| Entrypoint   | 0x01B8   |
| Data Size    | 21 bytes |
| Instructions | 5        |

```
      00 01 02 03 04 05 06 07  08 09 0A 0B 0C 0D 0E 0F
      -- -- -- -- -- -- -- --  -- -- -- -- -- -- -- --
01B0:                          59 04 2E 50 0F 01 0B 80          Y..P....
01C0: 1F 00 0C 80 0D 80 00 80  1F 01 6F 00 00           ..........o..   
```

#### Opcodes

```
  0: 0x01B8 [0x59] UPDATE_ENTITY_DATA: Set Bogharg (ID: 17780782/0x010F502E) main speed = 12* * 0.1
  1: 0x01C0 [0x1F] MOVE_ENTITY: EventEntity moves to X=-76.092*, Z=-136.357*, Y=0.000*
  2: 0x01C8 [0x1F] MOVE_ENTITY: Update entity position (mode=1)
  3: 0x01CA [0x6F] WAIT_FRAME_DELAY: Yield until WaitTime reaches zero
  4: 0x01CB [0x00] END_REQSTACK()
```

#### Data or dead code:

```
# Dead code (unreachable instructions):
     0x01CC [0x00] END_REQSTACK()
```

### Event 65535.16

#### Metadata

| Field        | Value    |
|--------------|----------|
| Entrypoint   | 0x01CD   |
| Data Size    | 16 bytes |
| Instructions | 2        |

```
      00 01 02 03 04 05 06 07  08 09 0A 0B 0C 0D 0E 0F
      -- -- -- -- -- -- -- --  -- -- -- -- -- -- -- --
01C0:                                         66 1F 80               f..
01D0: 2E 50 0F 01 2E 50 0F 01  74 68 6B 31 00           .P...P..thk1.   
```

#### Opcodes

```
  0: 0x01CD [0x66] LOAD_EXT_SCHEDULER_MAIN: Load scheduler "thk1" with entities [Bogharg (ID: 17780782/0x010F502E), Bogharg (ID: 17780782/0x010F502E)], work=69*
  1: 0x01DC [0x00] END_REQSTACK()
```

### Event 65535.17

#### Metadata

| Field        | Value    |
|--------------|----------|
| Entrypoint   | 0x01DD   |
| Data Size    | 16 bytes |
| Instructions | 2        |

```
      00 01 02 03 04 05 06 07  08 09 0A 0B 0C 0D 0E 0F
      -- -- -- -- -- -- -- --  -- -- -- -- -- -- -- --
01D0:                                         66 1F 80               f..
01E0: 2E 50 0F 01 2E 50 0F 01  74 68 6B 32 00           .P...P..thk2.   
```

#### Opcodes

```
  0: 0x01DD [0x66] LOAD_EXT_SCHEDULER_MAIN: Load scheduler "thk2" with entities [Bogharg (ID: 17780782/0x010F502E), Bogharg (ID: 17780782/0x010F502E)], work=69*
  1: 0x01EC [0x00] END_REQSTACK()
```

### Event 65535.18

#### Metadata

| Field        | Value    |
|--------------|----------|
| Entrypoint   | 0x01ED   |
| Data Size    | 20 bytes |
| Instructions | 5        |

```
      00 01 02 03 04 05 06 07  08 09 0A 0B 0C 0D 0E 0F
      -- -- -- -- -- -- -- --  -- -- -- -- -- -- -- --
01E0:                                         59 04 2E               Y..
01F0: 50 0F 01 0B 80 1F 00 20  80 21 80 13 80 1F 01 6F  P...... .!.....o
0200: 00                                                .               
```

#### Opcodes

```
  0: 0x01ED [0x59] UPDATE_ENTITY_DATA: Set Bogharg (ID: 17780782/0x010F502E) main speed = 12* * 0.1
  1: 0x01F5 [0x1F] MOVE_ENTITY: EventEntity moves to X=-56.992*, Z=-88.050*, Y=5.999*
  2: 0x01FD [0x1F] MOVE_ENTITY: Update entity position (mode=1)
  3: 0x01FF [0x6F] WAIT_FRAME_DELAY: Yield until WaitTime reaches zero
  4: 0x0200 [0x00] END_REQSTACK()
```

### Event 65535.19

#### Metadata

| Field        | Value    |
|--------------|----------|
| Entrypoint   | 0x0201   |
| Data Size    | 17 bytes |
| Instructions | 2        |

```
      00 01 02 03 04 05 06 07  08 09 0A 0B 0C 0D 0E 0F
      -- -- -- -- -- -- -- --  -- -- -- -- -- -- -- --
0200:    5B 22 80 2E 50 0F 01  2E 50 0F 01 6F 70 30 30   ["..P...P..op00
0210: 00 00                                             ..              
```

#### Opcodes

```
  0: 0x0201 [0x5B] LOAD_EXT_SCHEDULER: Load scheduler "op00" with entities [Bogharg (ID: 17780782/0x010F502E), Bogharg (ID: 17780782/0x010F502E)], work=2621*
  1: 0x0210 [0x00] END_REQSTACK()
```

#### Data or dead code:

```
# Dead code (unreachable instructions):
     0x0211 [0x00] END_REQSTACK()
```

### Event 65535.20

#### Metadata

| Field        | Value    |
|--------------|----------|
| Entrypoint   | 0x0212   |
| Data Size    | 20 bytes |
| Instructions | 5        |

```
      00 01 02 03 04 05 06 07  08 09 0A 0B 0C 0D 0E 0F
      -- -- -- -- -- -- -- --  -- -- -- -- -- -- -- --
0210:       59 04 31 50 0F 01  0E 80 1F 00 15 80 16 80    Y.1P..........
0220: 00 80 1F 01 6F 00                                 ....o.          
```

#### Opcodes

```
  0: 0x0212 [0x59] UPDATE_ENTITY_DATA: Set Nakho Jawantal (ID: 17780785/0x010F5031) main speed = 11* * 0.1
  1: 0x021A [0x1F] MOVE_ENTITY: EventEntity moves to X=-83.944*, Z=-128.625*, Y=0.000*
  2: 0x0222 [0x1F] MOVE_ENTITY: Update entity position (mode=1)
  3: 0x0224 [0x6F] WAIT_FRAME_DELAY: Yield until WaitTime reaches zero
  4: 0x0225 [0x00] END_REQSTACK()
```

### Event 65535.21

#### Metadata

| Field        | Value    |
|--------------|----------|
| Entrypoint   | 0x0226   |
| Data Size    | 16 bytes |
| Instructions | 2        |

```
      00 01 02 03 04 05 06 07  08 09 0A 0B 0C 0D 0E 0F
      -- -- -- -- -- -- -- --  -- -- -- -- -- -- -- --
0220:                   5B 23  80 12 50 0F 01 12 50 0F        [#..P...P.
0230: 01 6F 70 61 30 00                                 .opa0.          
```

#### Opcodes

```
  0: 0x0226 [0x5B] LOAD_EXT_SCHEDULER: Load scheduler "opa0" with entities [Tovrutaux (ID: 17780754/0x010F5012), Tovrutaux (ID: 17780754/0x010F5012)], work=2627*
  1: 0x0235 [0x00] END_REQSTACK()
```

### Event 65535.22

#### Metadata

| Field        | Value    |
|--------------|----------|
| Entrypoint   | 0x0236   |
| Data Size    | 16 bytes |
| Instructions | 2        |

```
      00 01 02 03 04 05 06 07  08 09 0A 0B 0C 0D 0E 0F
      -- -- -- -- -- -- -- --  -- -- -- -- -- -- -- --
0230:                   5B 23  80 12 50 0F 01 12 50 0F        [#..P...P.
0240: 01 6F 70 61 31 00                                 .opa1.          
```

#### Opcodes

```
  0: 0x0236 [0x5B] LOAD_EXT_SCHEDULER: Load scheduler "opa1" with entities [Tovrutaux (ID: 17780754/0x010F5012), Tovrutaux (ID: 17780754/0x010F5012)], work=2627*
  1: 0x0245 [0x00] END_REQSTACK()
```

### Event 65535.23

#### Metadata

| Field        | Value    |
|--------------|----------|
| Entrypoint   | 0x0246   |
| Data Size    | 16 bytes |
| Instructions | 2        |

```
      00 01 02 03 04 05 06 07  08 09 0A 0B 0C 0D 0E 0F
      -- -- -- -- -- -- -- --  -- -- -- -- -- -- -- --
0240:                   5B 23  80 12 50 0F 01 12 50 0F        [#..P...P.
0250: 01 6F 70 61 32 00                                 .opa2.          
```

#### Opcodes

```
  0: 0x0246 [0x5B] LOAD_EXT_SCHEDULER: Load scheduler "opa2" with entities [Tovrutaux (ID: 17780754/0x010F5012), Tovrutaux (ID: 17780754/0x010F5012)], work=2627*
  1: 0x0255 [0x00] END_REQSTACK()
```

### Event 65535.24

#### Metadata

| Field        | Value    |
|--------------|----------|
| Entrypoint   | 0x0256   |
| Data Size    | 16 bytes |
| Instructions | 2        |

```
      00 01 02 03 04 05 06 07  08 09 0A 0B 0C 0D 0E 0F
      -- -- -- -- -- -- -- --  -- -- -- -- -- -- -- --
0250:                   5B 24  80 12 50 0F 01 12 50 0F        [$..P...P.
0260: 01 74 68 6B 31 00                                 .thk1.          
```

#### Opcodes

```
  0: 0x0256 [0x5B] LOAD_EXT_SCHEDULER: Load scheduler "thk1" with entities [Tovrutaux (ID: 17780754/0x010F5012), Tovrutaux (ID: 17780754/0x010F5012)], work=75*
  1: 0x0265 [0x00] END_REQSTACK()
```

### Event 65535.25

#### Metadata

| Field        | Value    |
|--------------|----------|
| Entrypoint   | 0x0266   |
| Data Size    | 16 bytes |
| Instructions | 2        |

```
      00 01 02 03 04 05 06 07  08 09 0A 0B 0C 0D 0E 0F
      -- -- -- -- -- -- -- --  -- -- -- -- -- -- -- --
0260:                   5B 24  80 12 50 0F 01 12 50 0F        [$..P...P.
0270: 01 74 68 6B 32 00                                 .thk2.          
```

#### Opcodes

```
  0: 0x0266 [0x5B] LOAD_EXT_SCHEDULER: Load scheduler "thk2" with entities [Tovrutaux (ID: 17780754/0x010F5012), Tovrutaux (ID: 17780754/0x010F5012)], work=75*
  1: 0x0275 [0x00] END_REQSTACK()
```

### Event 65535.26

#### Metadata

| Field        | Value    |
|--------------|----------|
| Entrypoint   | 0x0276   |
| Data Size    | 16 bytes |
| Instructions | 2        |

```
      00 01 02 03 04 05 06 07  08 09 0A 0B 0C 0D 0E 0F
      -- -- -- -- -- -- -- --  -- -- -- -- -- -- -- --
0270:                   5B 24  80 12 50 0F 01 12 50 0F        [$..P...P.
0280: 01 74 6C 6B 30 00                                 .tlk0.          
```

#### Opcodes

```
  0: 0x0276 [0x5B] LOAD_EXT_SCHEDULER: Load scheduler "tlk0" with entities [Tovrutaux (ID: 17780754/0x010F5012), Tovrutaux (ID: 17780754/0x010F5012)], work=75*
  1: 0x0285 [0x00] END_REQSTACK()
```

### Event 65535.27

#### Metadata

| Field        | Value    |
|--------------|----------|
| Entrypoint   | 0x0286   |
| Data Size    | 16 bytes |
| Instructions | 2        |

```
      00 01 02 03 04 05 06 07  08 09 0A 0B 0C 0D 0E 0F
      -- -- -- -- -- -- -- --  -- -- -- -- -- -- -- --
0280:                   5B 24  80 12 50 0F 01 12 50 0F        [$..P...P.
0290: 01 74 6C 6B 31 00                                 .tlk1.          
```

#### Opcodes

```
  0: 0x0286 [0x5B] LOAD_EXT_SCHEDULER: Load scheduler "tlk1" with entities [Tovrutaux (ID: 17780754/0x010F5012), Tovrutaux (ID: 17780754/0x010F5012)], work=75*
  1: 0x0295 [0x00] END_REQSTACK()
```

### Event 65535.28

#### Metadata

| Field        | Value    |
|--------------|----------|
| Entrypoint   | 0x0296   |
| Data Size    | 12 bytes |
| Instructions | 4        |

```
      00 01 02 03 04 05 06 07  08 09 0A 0B 0C 0D 0E 0F
      -- -- -- -- -- -- -- --  -- -- -- -- -- -- -- --
0290:                   1F 00  25 80 26 80 00 80 1F 01        ..%.&.....
02A0: 6F 00                                             o.              
```

#### Opcodes

```
  0: 0x0296 [0x1F] MOVE_ENTITY: EventEntity moves to X=-19.954*, Z=-20.950*, Y=0.000*
  1: 0x029E [0x1F] MOVE_ENTITY: Update entity position (mode=1)
  2: 0x02A0 [0x6F] WAIT_FRAME_DELAY: Yield until WaitTime reaches zero
  3: 0x02A1 [0x00] END_REQSTACK()
```

### Event 65535.29

#### Metadata

| Field        | Value    |
|--------------|----------|
| Entrypoint   | 0x02A2   |
| Data Size    | 20 bytes |
| Instructions | 5        |

```
      00 01 02 03 04 05 06 07  08 09 0A 0B 0C 0D 0E 0F
      -- -- -- -- -- -- -- --  -- -- -- -- -- -- -- --
02A0:       59 04 13 50 0F 01  0E 80 1F 00 27 80 28 80    Y..P......'.(.
02B0: 13 80 1F 01 6F 00                                 ....o.          
```

#### Opcodes

```
  0: 0x02A2 [0x59] UPDATE_ENTITY_DATA: Set Seyaya (ID: 17780755/0x010F5013) main speed = 11* * 0.1
  1: 0x02AA [0x1F] MOVE_ENTITY: EventEntity moves to X=-74.699*, Z=-107.115*, Y=5.999*
  2: 0x02B2 [0x1F] MOVE_ENTITY: Update entity position (mode=1)
  3: 0x02B4 [0x6F] WAIT_FRAME_DELAY: Yield until WaitTime reaches zero
  4: 0x02B5 [0x00] END_REQSTACK()
```

### Event 65535.30

#### Metadata

| Field        | Value    |
|--------------|----------|
| Entrypoint   | 0x02B6   |
| Data Size    | 17 bytes |
| Instructions | 2        |

```
      00 01 02 03 04 05 06 07  08 09 0A 0B 0C 0D 0E 0F
      -- -- -- -- -- -- -- --  -- -- -- -- -- -- -- --
02B0:                   5B 29  80 13 50 0F 01 13 50 0F        [)..P...P.
02C0: 01 6F 70 61 30 00 00                              .opa0..         
```

#### Opcodes

```
  0: 0x02B6 [0x5B] LOAD_EXT_SCHEDULER: Load scheduler "opa0" with entities [Seyaya (ID: 17780755/0x010F5013), Seyaya (ID: 17780755/0x010F5013)], work=2631*
  1: 0x02C5 [0x00] END_REQSTACK()
```

#### Data or dead code:

```
# Dead code (unreachable instructions):
     0x02C6 [0x00] END_REQSTACK()
```

### Event 65535.31

#### Metadata

| Field        | Value    |
|--------------|----------|
| Entrypoint   | 0x02C7   |
| Data Size    | 17 bytes |
| Instructions | 2        |

```
      00 01 02 03 04 05 06 07  08 09 0A 0B 0C 0D 0E 0F
      -- -- -- -- -- -- -- --  -- -- -- -- -- -- -- --
02C0:                      5B  29 80 13 50 0F 01 13 50         [)..P...P
02D0: 0F 01 6F 70 61 31 00 00                           ..opa1..        
```

#### Opcodes

```
  0: 0x02C7 [0x5B] LOAD_EXT_SCHEDULER: Load scheduler "opa1" with entities [Seyaya (ID: 17780755/0x010F5013), Seyaya (ID: 17780755/0x010F5013)], work=2631*
  1: 0x02D6 [0x00] END_REQSTACK()
```

#### Data or dead code:

```
# Dead code (unreachable instructions):
     0x02D7 [0x00] END_REQSTACK()
```

### Event 65535.32

#### Metadata

| Field        | Value    |
|--------------|----------|
| Entrypoint   | 0x02D8   |
| Data Size    | 16 bytes |
| Instructions | 2        |

```
      00 01 02 03 04 05 06 07  08 09 0A 0B 0C 0D 0E 0F
      -- -- -- -- -- -- -- --  -- -- -- -- -- -- -- --
02D0:                          5B 29 80 13 50 0F 01 13          [)..P...
02E0: 50 0F 01 6F 70 61 32 00                           P..opa2.        
```

#### Opcodes

```
  0: 0x02D8 [0x5B] LOAD_EXT_SCHEDULER: Load scheduler "opa2" with entities [Seyaya (ID: 17780755/0x010F5013), Seyaya (ID: 17780755/0x010F5013)], work=2631*
  1: 0x02E7 [0x00] END_REQSTACK()
```

### Event 65535.33

#### Metadata

| Field        | Value    |
|--------------|----------|
| Entrypoint   | 0x02E8   |
| Data Size    | 16 bytes |
| Instructions | 2        |

```
      00 01 02 03 04 05 06 07  08 09 0A 0B 0C 0D 0E 0F
      -- -- -- -- -- -- -- --  -- -- -- -- -- -- -- --
02E0:                          5B 2A 80 13 50 0F 01 13          [*..P...
02F0: 50 0F 01 74 68 6B 31 00                           P..thk1.        
```

#### Opcodes

```
  0: 0x02E8 [0x5B] LOAD_EXT_SCHEDULER: Load scheduler "thk1" with entities [Seyaya (ID: 17780755/0x010F5013), Seyaya (ID: 17780755/0x010F5013)], work=85*
  1: 0x02F7 [0x00] END_REQSTACK()
```

### Event 65535.34

#### Metadata

| Field        | Value    |
|--------------|----------|
| Entrypoint   | 0x02F8   |
| Data Size    | 16 bytes |
| Instructions | 2        |

```
      00 01 02 03 04 05 06 07  08 09 0A 0B 0C 0D 0E 0F
      -- -- -- -- -- -- -- --  -- -- -- -- -- -- -- --
02F0:                          5B 2A 80 13 50 0F 01 13          [*..P...
0300: 50 0F 01 74 68 6B 32 00                           P..thk2.        
```

#### Opcodes

```
  0: 0x02F8 [0x5B] LOAD_EXT_SCHEDULER: Load scheduler "thk2" with entities [Seyaya (ID: 17780755/0x010F5013), Seyaya (ID: 17780755/0x010F5013)], work=85*
  1: 0x0307 [0x00] END_REQSTACK()
```

### Event 65535.35

#### Metadata

| Field        | Value    |
|--------------|----------|
| Entrypoint   | 0x0308   |
| Data Size    | 16 bytes |
| Instructions | 2        |

```
      00 01 02 03 04 05 06 07  08 09 0A 0B 0C 0D 0E 0F
      -- -- -- -- -- -- -- --  -- -- -- -- -- -- -- --
0300:                          5B 2A 80 13 50 0F 01 13          [*..P...
0310: 50 0F 01 74 6C 6B 30 00                           P..tlk0.        
```

#### Opcodes

```
  0: 0x0308 [0x5B] LOAD_EXT_SCHEDULER: Load scheduler "tlk0" with entities [Seyaya (ID: 17780755/0x010F5013), Seyaya (ID: 17780755/0x010F5013)], work=85*
  1: 0x0317 [0x00] END_REQSTACK()
```

### Event 65535.36

#### Metadata

| Field        | Value    |
|--------------|----------|
| Entrypoint   | 0x0318   |
| Data Size    | 16 bytes |
| Instructions | 2        |

```
      00 01 02 03 04 05 06 07  08 09 0A 0B 0C 0D 0E 0F
      -- -- -- -- -- -- -- --  -- -- -- -- -- -- -- --
0310:                          5B 2A 80 13 50 0F 01 13          [*..P...
0320: 50 0F 01 74 6C 6B 65 00                           P..tlke.        
```

#### Opcodes

```
  0: 0x0318 [0x5B] LOAD_EXT_SCHEDULER: Load scheduler "tlke" with entities [Seyaya (ID: 17780755/0x010F5013), Seyaya (ID: 17780755/0x010F5013)], work=85*
  1: 0x0327 [0x00] END_REQSTACK()
```

### Event 65535.37

#### Metadata

| Field        | Value    |
|--------------|----------|
| Entrypoint   | 0x0328   |
| Data Size    | 16 bytes |
| Instructions | 2        |

```
      00 01 02 03 04 05 06 07  08 09 0A 0B 0C 0D 0E 0F
      -- -- -- -- -- -- -- --  -- -- -- -- -- -- -- --
0320:                          5B 2A 80 13 50 0F 01 13          [*..P...
0330: 50 0F 01 62 61 6E 30 00                           P..ban0.        
```

#### Opcodes

```
  0: 0x0328 [0x5B] LOAD_EXT_SCHEDULER: Load scheduler "ban0" with entities [Seyaya (ID: 17780755/0x010F5013), Seyaya (ID: 17780755/0x010F5013)], work=85*
  1: 0x0337 [0x00] END_REQSTACK()
```

### Event 65535.38

#### Metadata

| Field        | Value    |
|--------------|----------|
| Entrypoint   | 0x0338   |
| Data Size    | 13 bytes |
| Instructions | 4        |

```
      00 01 02 03 04 05 06 07  08 09 0A 0B 0C 0D 0E 0F
      -- -- -- -- -- -- -- --  -- -- -- -- -- -- -- --
0330:                          1F 00 2B 80 2C 80 00 80          ..+.,...
0340: 1F 01 6F 00 00                                    ..o..           
```

#### Opcodes

```
  0: 0x0338 [0x1F] MOVE_ENTITY: EventEntity moves to X=-19.857*, Z=-21.712*, Y=0.000*
  1: 0x0340 [0x1F] MOVE_ENTITY: Update entity position (mode=1)
  2: 0x0342 [0x6F] WAIT_FRAME_DELAY: Yield until WaitTime reaches zero
  3: 0x0343 [0x00] END_REQSTACK()
```

#### Data or dead code:

```
# Dead code (unreachable instructions):
     0x0344 [0x00] END_REQSTACK()
```

### Event 65535.39

#### Metadata

| Field        | Value    |
|--------------|----------|
| Entrypoint   | 0x0345   |
| Data Size    | 20 bytes |
| Instructions | 5        |

```
      00 01 02 03 04 05 06 07  08 09 0A 0B 0C 0D 0E 0F
      -- -- -- -- -- -- -- --  -- -- -- -- -- -- -- --
0340:                59 04 C0  50 0F 01 2D 80 1F 00 2E       Y..P..-....
0350: 80 2F 80 00 80 1F 01 6F  00                       ./.....o.       
```

#### Opcodes

```
  0: 0x0345 [0x59] UPDATE_ENTITY_DATA: Set Rakuru-Rakoru (ID: 17780928/0x010F50C0) main speed = 14* * 0.1
  1: 0x034D [0x1F] MOVE_ENTITY: EventEntity moves to X=-37.763*, Z=-62.812*, Y=0.000*
  2: 0x0355 [0x1F] MOVE_ENTITY: Update entity position (mode=1)
  3: 0x0357 [0x6F] WAIT_FRAME_DELAY: Yield until WaitTime reaches zero
  4: 0x0358 [0x00] END_REQSTACK()
```

### Event 65535.40

#### Metadata

| Field        | Value    |
|--------------|----------|
| Entrypoint   | 0x0359   |
| Data Size    | 12 bytes |
| Instructions | 4        |

```
      00 01 02 03 04 05 06 07  08 09 0A 0B 0C 0D 0E 0F
      -- -- -- -- -- -- -- --  -- -- -- -- -- -- -- --
0350:                             1F 00 30 80 31 80 32           ..0.1.2
0360: 80 1F 01 6F 00                                    ...o.           
```

#### Opcodes

```
  0: 0x0359 [0x1F] MOVE_ENTITY: EventEntity moves to X=-13.366*, Z=2.528*, Y=-0.449*
  1: 0x0361 [0x1F] MOVE_ENTITY: Update entity position (mode=1)
  2: 0x0363 [0x6F] WAIT_FRAME_DELAY: Yield until WaitTime reaches zero
  3: 0x0364 [0x00] END_REQSTACK()
```

### Event 65535.41

#### Metadata

| Field        | Value    |
|--------------|----------|
| Entrypoint   | 0x0365   |
| Data Size    | 16 bytes |
| Instructions | 2        |

```
      00 01 02 03 04 05 06 07  08 09 0A 0B 0C 0D 0E 0F
      -- -- -- -- -- -- -- --  -- -- -- -- -- -- -- --
0360:                66 33 80  C0 50 0F 01 C0 50 0F 01       f3..P...P..
0370: 74 6C 6B 30 00                                    tlk0.           
```

#### Opcodes

```
  0: 0x0365 [0x66] LOAD_EXT_SCHEDULER_MAIN: Load scheduler "tlk0" with entities [Rakuru-Rakoru (ID: 17780928/0x010F50C0), Rakuru-Rakoru (ID: 17780928/0x010F50C0)], work=40*
  1: 0x0374 [0x00] END_REQSTACK()
```

### Event 65535.42

#### Metadata

| Field        | Value    |
|--------------|----------|
| Entrypoint   | 0x0375   |
| Data Size    | 16 bytes |
| Instructions | 2        |

```
      00 01 02 03 04 05 06 07  08 09 0A 0B 0C 0D 0E 0F
      -- -- -- -- -- -- -- --  -- -- -- -- -- -- -- --
0370:                66 34 80  C0 50 0F 01 C0 50 0F 01       f4..P...P..
0380: 65 68 6E 31 00                                    ehn1.           
```

#### Opcodes

```
  0: 0x0375 [0x66] LOAD_EXT_SCHEDULER_MAIN: Load scheduler "ehn1" with entities [Rakuru-Rakoru (ID: 17780928/0x010F50C0), Rakuru-Rakoru (ID: 17780928/0x010F50C0)], work=41*
  1: 0x0384 [0x00] END_REQSTACK()
```

### Event 65535.43

#### Metadata

| Field        | Value    |
|--------------|----------|
| Entrypoint   | 0x0385   |
| Data Size    | 16 bytes |
| Instructions | 2        |

```
      00 01 02 03 04 05 06 07  08 09 0A 0B 0C 0D 0E 0F
      -- -- -- -- -- -- -- --  -- -- -- -- -- -- -- --
0380:                66 33 80  C0 50 0F 01 C0 50 0F 01       f3..P...P..
0390: 6D 6F 6A 30 00                                    moj0.           
```

#### Opcodes

```
  0: 0x0385 [0x66] LOAD_EXT_SCHEDULER_MAIN: Load scheduler "moj0" with entities [Rakuru-Rakoru (ID: 17780928/0x010F50C0), Rakuru-Rakoru (ID: 17780928/0x010F50C0)], work=40*
  1: 0x0394 [0x00] END_REQSTACK()
```

### Event 65535.44

#### Metadata

| Field        | Value    |
|--------------|----------|
| Entrypoint   | 0x0395   |
| Data Size    | 20 bytes |
| Instructions | 5        |

```
      00 01 02 03 04 05 06 07  08 09 0A 0B 0C 0D 0E 0F
      -- -- -- -- -- -- -- --  -- -- -- -- -- -- -- --
0390:                59 04 C0  50 0F 01 2D 80 1F 00 35       Y..P..-...5
03A0: 80 36 80 13 80 1F 01 6F  00                       .6.....o.       
```

#### Opcodes

```
  0: 0x0395 [0x59] UPDATE_ENTITY_DATA: Set Rakuru-Rakoru (ID: 17780928/0x010F50C0) main speed = 14* * 0.1
  1: 0x039D [0x1F] MOVE_ENTITY: EventEntity moves to X=-71.130*, Z=-110.791*, Y=5.999*
  2: 0x03A5 [0x1F] MOVE_ENTITY: Update entity position (mode=1)
  3: 0x03A7 [0x6F] WAIT_FRAME_DELAY: Yield until WaitTime reaches zero
  4: 0x03A8 [0x00] END_REQSTACK()
```

### Event 65535.45

#### Metadata

| Field        | Value    |
|--------------|----------|
| Entrypoint   | 0x03A9   |
| Data Size    | 29 bytes |
| Instructions | 6        |

```
      00 01 02 03 04 05 06 07  08 09 0A 0B 0C 0D 0E 0F
      -- -- -- -- -- -- -- --  -- -- -- -- -- -- -- --
03A0:                             59 04 C0 50 0F 01 2D           Y..P..-
03B0: 80 1F 00 37 80 38 80 13  80 1F 01 5A 00 39 80 3A  ...7.8.....Z.9.:
03C0: 80 3B 80 5A 01 00                                 .;.Z..          
```

#### Opcodes

```
  0: 0x03A9 [0x59] UPDATE_ENTITY_DATA: Set Rakuru-Rakoru (ID: 17780928/0x010F50C0) main speed = 14* * 0.1
  1: 0x03B1 [0x1F] MOVE_ENTITY: EventEntity moves to X=-75.540*, Z=-116.545*, Y=5.999*
  2: 0x03B9 [0x1F] MOVE_ENTITY: Update entity position (mode=1)
  3: 0x03BB [0x5A] UPDATE_EVENT_POSITION: Set EventEntity MovePosition to X=-80.452*, Z=-125.376*, Y=0.999*
  4: 0x03C3 [0x5A] UPDATE_EVENT_POSITION: Move EventEntity incrementally towards MovePosition
  5: 0x03C5 [0x00] END_REQSTACK()
```

### Event 65535.46

#### Metadata

| Field        | Value    |
|--------------|----------|
| Entrypoint   | 0x03C6   |
| Data Size    | 17 bytes |
| Instructions | 2        |

```
      00 01 02 03 04 05 06 07  08 09 0A 0B 0C 0D 0E 0F
      -- -- -- -- -- -- -- --  -- -- -- -- -- -- -- --
03C0:                   5B 3C  80 C0 50 0F 01 C0 50 0F        [<..P...P.
03D0: 01 62 6F 70 30 00 00                              .bop0..         
```

#### Opcodes

```
  0: 0x03C6 [0x5B] LOAD_EXT_SCHEDULER: Load scheduler "bop0" with entities [Rakuru-Rakoru (ID: 17780928/0x010F50C0), Rakuru-Rakoru (ID: 17780928/0x010F50C0)], work=2611*
  1: 0x03D5 [0x00] END_REQSTACK()
```

#### Data or dead code:

```
# Dead code (unreachable instructions):
     0x03D6 [0x00] END_REQSTACK()
```

### Event 65535.47

#### Metadata

| Field        | Value    |
|--------------|----------|
| Entrypoint   | 0x03D7   |
| Data Size    | 20 bytes |
| Instructions | 5        |

```
      00 01 02 03 04 05 06 07  08 09 0A 0B 0C 0D 0E 0F
      -- -- -- -- -- -- -- --  -- -- -- -- -- -- -- --
03D0:                      59  04 25 50 0F 01 3D 80 1F         Y.%P..=..
03E0: 00 15 80 16 80 00 80 1F  01 6F 00                 .........o.     
```

#### Opcodes

```
  0: 0x03D7 [0x59] UPDATE_ENTITY_DATA: Set Sutarara (ID: 17780773/0x010F5025) main speed = 13* * 0.1
  1: 0x03DF [0x1F] MOVE_ENTITY: EventEntity moves to X=-83.944*, Z=-128.625*, Y=0.000*
  2: 0x03E7 [0x1F] MOVE_ENTITY: Update entity position (mode=1)
  3: 0x03E9 [0x6F] WAIT_FRAME_DELAY: Yield until WaitTime reaches zero
  4: 0x03EA [0x00] END_REQSTACK()
```

### Event 65535.48

#### Metadata

| Field        | Value    |
|--------------|----------|
| Entrypoint   | 0x03EB   |
| Data Size    | 20 bytes |
| Instructions | 5        |

```
      00 01 02 03 04 05 06 07  08 09 0A 0B 0C 0D 0E 0F
      -- -- -- -- -- -- -- --  -- -- -- -- -- -- -- --
03E0:                                   59 04 25 50 0F             Y.%P.
03F0: 01 3D 80 1F 00 3E 80 3F  80 13 80 1F 01 6F 00     .=...>.?.....o. 
```

#### Opcodes

```
  0: 0x03EB [0x59] UPDATE_ENTITY_DATA: Set Sutarara (ID: 17780773/0x010F5025) main speed = 13* * 0.1
  1: 0x03F3 [0x1F] MOVE_ENTITY: EventEntity moves to X=-64.287*, Z=-102.136*, Y=5.999*
  2: 0x03FB [0x1F] MOVE_ENTITY: Update entity position (mode=1)
  3: 0x03FD [0x6F] WAIT_FRAME_DELAY: Yield until WaitTime reaches zero
  4: 0x03FE [0x00] END_REQSTACK()
```

### Event 65535.49

#### Metadata

| Field        | Value    |
|--------------|----------|
| Entrypoint   | 0x03FF   |
| Data Size    | 20 bytes |
| Instructions | 5        |

```
      00 01 02 03 04 05 06 07  08 09 0A 0B 0C 0D 0E 0F
      -- -- -- -- -- -- -- --  -- -- -- -- -- -- -- --
03F0:                                               59                 Y
0400: 04 25 50 0F 01 3D 80 1F  00 40 80 41 80 00 80 1F  .%P..=...@.A....
0410: 01 6F 00                                          .o.             
```

#### Opcodes

```
  0: 0x03FF [0x59] UPDATE_ENTITY_DATA: Set Sutarara (ID: 17780773/0x010F5025) main speed = 13* * 0.1
  1: 0x0407 [0x1F] MOVE_ENTITY: EventEntity moves to X=4.236*, Z=4.336*, Y=0.000*
  2: 0x040F [0x1F] MOVE_ENTITY: Update entity position (mode=1)
  3: 0x0411 [0x6F] WAIT_FRAME_DELAY: Yield until WaitTime reaches zero
  4: 0x0412 [0x00] END_REQSTACK()
```

### Event 65535.50

#### Metadata

| Field        | Value    |
|--------------|----------|
| Entrypoint   | 0x0413   |
| Data Size    | 20 bytes |
| Instructions | 5        |

```
      00 01 02 03 04 05 06 07  08 09 0A 0B 0C 0D 0E 0F
      -- -- -- -- -- -- -- --  -- -- -- -- -- -- -- --
0410:          59 04 34 50 0F  01 0B 80 1F 00 42 80 43     Y.4P......B.C
0420: 80 44 80 1F 01 6F 00                              .D...o.         
```

#### Opcodes

```
  0: 0x0413 [0x59] UPDATE_ENTITY_DATA: Set Venika (ID: 17780788/0x010F5034) main speed = 12* * 0.1
  1: 0x041B [0x1F] MOVE_ENTITY: EventEntity moves to X=-15.376*, Z=-23.775*, Y=-0.101*
  2: 0x0423 [0x1F] MOVE_ENTITY: Update entity position (mode=1)
  3: 0x0425 [0x6F] WAIT_FRAME_DELAY: Yield until WaitTime reaches zero
  4: 0x0426 [0x00] END_REQSTACK()
```

### Event 65535.51

#### Metadata

| Field        | Value    |
|--------------|----------|
| Entrypoint   | 0x0427   |
| Data Size    | 20 bytes |
| Instructions | 5        |

```
      00 01 02 03 04 05 06 07  08 09 0A 0B 0C 0D 0E 0F
      -- -- -- -- -- -- -- --  -- -- -- -- -- -- -- --
0420:                      59  04 34 50 0F 01 45 80 1F         Y.4P..E..
0430: 00 3E 80 3F 80 13 80 1F  01 6F 00                 .>.?.....o.     
```

#### Opcodes

```
  0: 0x0427 [0x59] UPDATE_ENTITY_DATA: Set Venika (ID: 17780788/0x010F5034) main speed = 10* * 0.1
  1: 0x042F [0x1F] MOVE_ENTITY: EventEntity moves to X=-64.287*, Z=-102.136*, Y=5.999*
  2: 0x0437 [0x1F] MOVE_ENTITY: Update entity position (mode=1)
  3: 0x0439 [0x6F] WAIT_FRAME_DELAY: Yield until WaitTime reaches zero
  4: 0x043A [0x00] END_REQSTACK()
```

### Event 65535.52

#### Metadata

| Field        | Value    |
|--------------|----------|
| Entrypoint   | 0x043B   |
| Data Size    | 16 bytes |
| Instructions | 2        |

```
      00 01 02 03 04 05 06 07  08 09 0A 0B 0C 0D 0E 0F
      -- -- -- -- -- -- -- --  -- -- -- -- -- -- -- --
0430:                                   5B 46 80 34 50             [F.4P
0440: 0F 01 34 50 0F 01 6F 70  62 30 00                 ..4P..opb0.     
```

#### Opcodes

```
  0: 0x043B [0x5B] LOAD_EXT_SCHEDULER: Load scheduler "opb0" with entities [Venika (ID: 17780788/0x010F5034), Venika (ID: 17780788/0x010F5034)], work=2584*
  1: 0x044A [0x00] END_REQSTACK()
```

### Event 65535.53

#### Metadata

| Field        | Value    |
|--------------|----------|
| Entrypoint   | 0x044B   |
| Data Size    | 16 bytes |
| Instructions | 2        |

```
      00 01 02 03 04 05 06 07  08 09 0A 0B 0C 0D 0E 0F
      -- -- -- -- -- -- -- --  -- -- -- -- -- -- -- --
0440:                                   5B 46 80 34 50             [F.4P
0450: 0F 01 34 50 0F 01 6F 70  62 31 00                 ..4P..opb1.     
```

#### Opcodes

```
  0: 0x044B [0x5B] LOAD_EXT_SCHEDULER: Load scheduler "opb1" with entities [Venika (ID: 17780788/0x010F5034), Venika (ID: 17780788/0x010F5034)], work=2584*
  1: 0x045A [0x00] END_REQSTACK()
```

### Event 65535.54

#### Metadata

| Field        | Value    |
|--------------|----------|
| Entrypoint   | 0x045B   |
| Data Size    | 20 bytes |
| Instructions | 5        |

```
      00 01 02 03 04 05 06 07  08 09 0A 0B 0C 0D 0E 0F
      -- -- -- -- -- -- -- --  -- -- -- -- -- -- -- --
0450:                                   59 04 34 50 0F             Y.4P.
0460: 01 0B 80 1F 00 47 80 48  80 00 80 1F 01 6F 00     .....G.H.....o. 
```

#### Opcodes

```
  0: 0x045B [0x59] UPDATE_ENTITY_DATA: Set Venika (ID: 17780788/0x010F5034) main speed = 12* * 0.1
  1: 0x0463 [0x1F] MOVE_ENTITY: EventEntity moves to X=-0.991*, Z=2.123*, Y=0.000*
  2: 0x046B [0x1F] MOVE_ENTITY: Update entity position (mode=1)
  3: 0x046D [0x6F] WAIT_FRAME_DELAY: Yield until WaitTime reaches zero
  4: 0x046E [0x00] END_REQSTACK()
```

### Event 65535.55

#### Metadata

| Field        | Value    |
|--------------|----------|
| Entrypoint   | 0x046F   |
| Data Size    | 16 bytes |
| Instructions | 2        |

```
      00 01 02 03 04 05 06 07  08 09 0A 0B 0C 0D 0E 0F
      -- -- -- -- -- -- -- --  -- -- -- -- -- -- -- --
0460:                                               5B                 [
0470: 46 80 34 50 0F 01 34 50  0F 01 6F 70 63 30 00     F.4P..4P..opc0. 
```

#### Opcodes

```
  0: 0x046F [0x5B] LOAD_EXT_SCHEDULER: Load scheduler "opc0" with entities [Venika (ID: 17780788/0x010F5034), Venika (ID: 17780788/0x010F5034)], work=2584*
  1: 0x047E [0x00] END_REQSTACK()
```

### Event 65535.56

#### Metadata

| Field        | Value    |
|--------------|----------|
| Entrypoint   | 0x047F   |
| Data Size    | 16 bytes |
| Instructions | 2        |

```
      00 01 02 03 04 05 06 07  08 09 0A 0B 0C 0D 0E 0F
      -- -- -- -- -- -- -- --  -- -- -- -- -- -- -- --
0470:                                               5B                 [
0480: 46 80 34 50 0F 01 34 50  0F 01 6F 70 63 31 00     F.4P..4P..opc1. 
```

#### Opcodes

```
  0: 0x047F [0x5B] LOAD_EXT_SCHEDULER: Load scheduler "opc1" with entities [Venika (ID: 17780788/0x010F5034), Venika (ID: 17780788/0x010F5034)], work=2584*
  1: 0x048E [0x00] END_REQSTACK()
```

### Event 65535.57

#### Metadata

| Field        | Value    |
|--------------|----------|
| Entrypoint   | 0x048F   |
| Data Size    | 16 bytes |
| Instructions | 2        |

```
      00 01 02 03 04 05 06 07  08 09 0A 0B 0C 0D 0E 0F
      -- -- -- -- -- -- -- --  -- -- -- -- -- -- -- --
0480:                                               66                 f
0490: 49 80 36 50 0F 01 36 50  0F 01 61 77 77 30 00     I.6P..6P..aww0. 
```

#### Opcodes

```
  0: 0x048F [0x66] LOAD_EXT_SCHEDULER_MAIN: Load scheduler "aww0" with entities [Kuah Dakonsa (ID: 17780790/0x010F5036), Kuah Dakonsa (ID: 17780790/0x010F5036)], work=8*
  1: 0x049E [0x00] END_REQSTACK()
```

### Event 65535.58

#### Metadata

| Field        | Value    |
|--------------|----------|
| Entrypoint   | 0x049F   |
| Data Size    | 16 bytes |
| Instructions | 2        |

```
      00 01 02 03 04 05 06 07  08 09 0A 0B 0C 0D 0E 0F
      -- -- -- -- -- -- -- --  -- -- -- -- -- -- -- --
0490:                                               66                 f
04A0: 4A 80 36 50 0F 01 36 50  0F 01 74 68 6B 31 00     J.6P..6P..thk1. 
```

#### Opcodes

```
  0: 0x049F [0x66] LOAD_EXT_SCHEDULER_MAIN: Load scheduler "thk1" with entities [Kuah Dakonsa (ID: 17780790/0x010F5036), Kuah Dakonsa (ID: 17780790/0x010F5036)], work=51*
  1: 0x04AE [0x00] END_REQSTACK()
```

### Event 65535.59

#### Metadata

| Field        | Value    |
|--------------|----------|
| Entrypoint   | 0x04AF   |
| Data Size    | 21 bytes |
| Instructions | 5        |

```
      00 01 02 03 04 05 06 07  08 09 0A 0B 0C 0D 0E 0F
      -- -- -- -- -- -- -- --  -- -- -- -- -- -- -- --
04A0:                                               59                 Y
04B0: 04 32 50 0F 01 0B 80 1F  00 4B 80 4C 80 13 80 1F  .2P......K.L....
04C0: 01 6F 00 00                                       .o..            
```

#### Opcodes

```
  0: 0x04AF [0x59] UPDATE_ENTITY_DATA: Set Gurdern (ID: 17780786/0x010F5032) main speed = 12* * 0.1
  1: 0x04B7 [0x1F] MOVE_ENTITY: EventEntity moves to X=-61.958*, Z=-103.267*, Y=5.999*
  2: 0x04BF [0x1F] MOVE_ENTITY: Update entity position (mode=1)
  3: 0x04C1 [0x6F] WAIT_FRAME_DELAY: Yield until WaitTime reaches zero
  4: 0x04C2 [0x00] END_REQSTACK()
```

#### Data or dead code:

```
# Dead code (unreachable instructions):
     0x04C3 [0x00] END_REQSTACK()
```

### Event 65535.60

#### Metadata

| Field        | Value    |
|--------------|----------|
| Entrypoint   | 0x04C4   |
| Data Size    | 20 bytes |
| Instructions | 5        |

```
      00 01 02 03 04 05 06 07  08 09 0A 0B 0C 0D 0E 0F
      -- -- -- -- -- -- -- --  -- -- -- -- -- -- -- --
04C0:             59 04 32 50  0F 01 0B 80 1F 00 4D 80      Y.2P......M.
04D0: 4E 80 13 80 1F 01 6F 00                           N.....o.        
```

#### Opcodes

```
  0: 0x04C4 [0x59] UPDATE_ENTITY_DATA: Set Gurdern (ID: 17780786/0x010F5032) main speed = 12* * 0.1
  1: 0x04CC [0x1F] MOVE_ENTITY: EventEntity moves to X=-66.589*, Z=-92.299*, Y=5.999*
  2: 0x04D4 [0x1F] MOVE_ENTITY: Update entity position (mode=1)
  3: 0x04D6 [0x6F] WAIT_FRAME_DELAY: Yield until WaitTime reaches zero
  4: 0x04D7 [0x00] END_REQSTACK()
```

### Event 65535.61

#### Metadata

| Field        | Value    |
|--------------|----------|
| Entrypoint   | 0x04D8   |
| Data Size    | 20 bytes |
| Instructions | 5        |

```
      00 01 02 03 04 05 06 07  08 09 0A 0B 0C 0D 0E 0F
      -- -- -- -- -- -- -- --  -- -- -- -- -- -- -- --
04D0:                          59 04 32 50 0F 01 0B 80          Y.2P....
04E0: 1F 00 4F 80 50 80 13 80  1F 01 6F 00              ..O.P.....o.    
```

#### Opcodes

```
  0: 0x04D8 [0x59] UPDATE_ENTITY_DATA: Set Gurdern (ID: 17780786/0x010F5032) main speed = 12* * 0.1
  1: 0x04E0 [0x1F] MOVE_ENTITY: EventEntity moves to X=-58.931*, Z=-86.942*, Y=5.999*
  2: 0x04E8 [0x1F] MOVE_ENTITY: Update entity position (mode=1)
  3: 0x04EA [0x6F] WAIT_FRAME_DELAY: Yield until WaitTime reaches zero
  4: 0x04EB [0x00] END_REQSTACK()
```

### Event 65535.62

#### Metadata

| Field        | Value    |
|--------------|----------|
| Entrypoint   | 0x04EC   |
| Data Size    | 17 bytes |
| Instructions | 2        |

```
      00 01 02 03 04 05 06 07  08 09 0A 0B 0C 0D 0E 0F
      -- -- -- -- -- -- -- --  -- -- -- -- -- -- -- --
04E0:                                      5B 22 80 32              [".2
04F0: 50 0F 01 32 50 0F 01 6F  70 30 30 00 00           P..2P..op00..   
```

#### Opcodes

```
  0: 0x04EC [0x5B] LOAD_EXT_SCHEDULER: Load scheduler "op00" with entities [Gurdern (ID: 17780786/0x010F5032), Gurdern (ID: 17780786/0x010F5032)], work=2621*
  1: 0x04FB [0x00] END_REQSTACK()
```

#### Data or dead code:

```
# Dead code (unreachable instructions):
     0x04FC [0x00] END_REQSTACK()
```

### Event 65535.63

#### Metadata

| Field        | Value    |
|--------------|----------|
| Entrypoint   | 0x04FD   |
| Data Size    | 20 bytes |
| Instructions | 5        |

```
      00 01 02 03 04 05 06 07  08 09 0A 0B 0C 0D 0E 0F
      -- -- -- -- -- -- -- --  -- -- -- -- -- -- -- --
04F0:                                         59 04 1C               Y..
0500: 50 0F 01 0E 80 1F 00 0F  80 10 80 00 80 1F 01 6F  P..............o
0510: 00                                                .               
```

#### Opcodes

```
  0: 0x04FD [0x59] UPDATE_ENTITY_DATA: Set Mertaire (ID: 17780764/0x010F501C) main speed = 11* * 0.1
  1: 0x0505 [0x1F] MOVE_ENTITY: EventEntity moves to X=-95.337*, Z=-156.056*, Y=0.000*
  2: 0x050D [0x1F] MOVE_ENTITY: Update entity position (mode=1)
  3: 0x050F [0x6F] WAIT_FRAME_DELAY: Yield until WaitTime reaches zero
  4: 0x0510 [0x00] END_REQSTACK()
```

### Event 65535.64

#### Metadata

| Field        | Value    |
|--------------|----------|
| Entrypoint   | 0x0511   |
| Data Size    | 20 bytes |
| Instructions | 5        |

```
      00 01 02 03 04 05 06 07  08 09 0A 0B 0C 0D 0E 0F
      -- -- -- -- -- -- -- --  -- -- -- -- -- -- -- --
0510:    59 04 1C 50 0F 01 0E  80 1F 00 51 80 52 80 53   Y..P......Q.R.S
0520: 80 1F 01 6F 00                                    ...o.           
```

#### Opcodes

```
  0: 0x0511 [0x59] UPDATE_ENTITY_DATA: Set Mertaire (ID: 17780764/0x010F501C) main speed = 11* * 0.1
  1: 0x0519 [0x1F] MOVE_ENTITY: EventEntity moves to X=-78.197*, Z=-116.328*, Y=3.999*
  2: 0x0521 [0x1F] MOVE_ENTITY: Update entity position (mode=1)
  3: 0x0523 [0x6F] WAIT_FRAME_DELAY: Yield until WaitTime reaches zero
  4: 0x0524 [0x00] END_REQSTACK()
```

### Event 65535.65

#### Metadata

| Field        | Value    |
|--------------|----------|
| Entrypoint   | 0x0525   |
| Data Size    | 16 bytes |
| Instructions | 2        |

```
      00 01 02 03 04 05 06 07  08 09 0A 0B 0C 0D 0E 0F
      -- -- -- -- -- -- -- --  -- -- -- -- -- -- -- --
0520:                5B 54 80  1C 50 0F 01 1C 50 0F 01       [T..P...P..
0530: 6F 70 63 30 00                                    opc0.           
```

#### Opcodes

```
  0: 0x0525 [0x5B] LOAD_EXT_SCHEDULER: Load scheduler "opc0" with entities [Mertaire (ID: 17780764/0x010F501C), Mertaire (ID: 17780764/0x010F501C)], work=2583*
  1: 0x0534 [0x00] END_REQSTACK()
```

### Event 65535.66

#### Metadata

| Field        | Value    |
|--------------|----------|
| Entrypoint   | 0x0535   |
| Data Size    | 16 bytes |
| Instructions | 2        |

```
      00 01 02 03 04 05 06 07  08 09 0A 0B 0C 0D 0E 0F
      -- -- -- -- -- -- -- --  -- -- -- -- -- -- -- --
0530:                5B 54 80  1C 50 0F 01 1C 50 0F 01       [T..P...P..
0540: 6F 70 63 31 00                                    opc1.           
```

#### Opcodes

```
  0: 0x0535 [0x5B] LOAD_EXT_SCHEDULER: Load scheduler "opc1" with entities [Mertaire (ID: 17780764/0x010F501C), Mertaire (ID: 17780764/0x010F501C)], work=2583*
  1: 0x0544 [0x00] END_REQSTACK()
```

### Event 65535.67

#### Metadata

| Field        | Value    |
|--------------|----------|
| Entrypoint   | 0x0545   |
| Data Size    | 21 bytes |
| Instructions | 5        |

```
      00 01 02 03 04 05 06 07  08 09 0A 0B 0C 0D 0E 0F
      -- -- -- -- -- -- -- --  -- -- -- -- -- -- -- --
0540:                59 04 1C  50 0F 01 0E 80 1F 00 55       Y..P......U
0550: 80 56 80 00 80 1F 01 6F  00 00                    .V.....o..      
```

#### Opcodes

```
  0: 0x0545 [0x59] UPDATE_ENTITY_DATA: Set Mertaire (ID: 17780764/0x010F501C) main speed = 11* * 0.1
  1: 0x054D [0x1F] MOVE_ENTITY: EventEntity moves to X=-9.883*, Z=-9.826*, Y=0.000*
  2: 0x0555 [0x1F] MOVE_ENTITY: Update entity position (mode=1)
  3: 0x0557 [0x6F] WAIT_FRAME_DELAY: Yield until WaitTime reaches zero
  4: 0x0558 [0x00] END_REQSTACK()
```

#### Data or dead code:

```
# Dead code (unreachable instructions):
     0x0559 [0x00] END_REQSTACK()
```

### Event 65535.68

#### Metadata

| Field        | Value    |
|--------------|----------|
| Entrypoint   | 0x055A   |
| Data Size    | 20 bytes |
| Instructions | 5        |

```
      00 01 02 03 04 05 06 07  08 09 0A 0B 0C 0D 0E 0F
      -- -- -- -- -- -- -- --  -- -- -- -- -- -- -- --
0550:                                59 04 1E 50 0F 01            Y..P..
0560: 57 80 1F 00 27 80 28 80  13 80 1F 01 6F 00        W...'.(.....o.  
```

#### Opcodes

```
  0: 0x055A [0x59] UPDATE_ENTITY_DATA: Set Bki Tbujhja (ID: 17780766/0x010F501E) main speed = 9* * 0.1
  1: 0x0562 [0x1F] MOVE_ENTITY: EventEntity moves to X=-74.699*, Z=-107.115*, Y=5.999*
  2: 0x056A [0x1F] MOVE_ENTITY: Update entity position (mode=1)
  3: 0x056C [0x6F] WAIT_FRAME_DELAY: Yield until WaitTime reaches zero
  4: 0x056D [0x00] END_REQSTACK()
```

### Event 65535.69

#### Metadata

| Field        | Value    |
|--------------|----------|
| Entrypoint   | 0x056E   |
| Data Size    | 20 bytes |
| Instructions | 5        |

```
      00 01 02 03 04 05 06 07  08 09 0A 0B 0C 0D 0E 0F
      -- -- -- -- -- -- -- --  -- -- -- -- -- -- -- --
0560:                                            59 04                Y.
0570: 1E 50 0F 01 0E 80 1F 00  58 80 59 80 13 80 1F 01  .P......X.Y.....
0580: 6F 00                                             o.              
```

#### Opcodes

```
  0: 0x056E [0x59] UPDATE_ENTITY_DATA: Set Bki Tbujhja (ID: 17780766/0x010F501E) main speed = 11* * 0.1
  1: 0x0576 [0x1F] MOVE_ENTITY: EventEntity moves to X=-72.052*, Z=-102.467*, Y=5.999*
  2: 0x057E [0x1F] MOVE_ENTITY: Update entity position (mode=1)
  3: 0x0580 [0x6F] WAIT_FRAME_DELAY: Yield until WaitTime reaches zero
  4: 0x0581 [0x00] END_REQSTACK()
```

### Event 65535.70

#### Metadata

| Field        | Value    |
|--------------|----------|
| Entrypoint   | 0x0582   |
| Data Size    | 16 bytes |
| Instructions | 2        |

```
      00 01 02 03 04 05 06 07  08 09 0A 0B 0C 0D 0E 0F
      -- -- -- -- -- -- -- --  -- -- -- -- -- -- -- --
0580:       66 49 80 1E 50 0F  01 1E 50 0F 01 61 77 77    fI..P...P..aww
0590: 30 00                                             0.              
```

#### Opcodes

```
  0: 0x0582 [0x66] LOAD_EXT_SCHEDULER_MAIN: Load scheduler "aww0" with entities [Bki Tbujhja (ID: 17780766/0x010F501E), Bki Tbujhja (ID: 17780766/0x010F501E)], work=8*
  1: 0x0591 [0x00] END_REQSTACK()
```

### Event 65535.71

#### Metadata

| Field        | Value    |
|--------------|----------|
| Entrypoint   | 0x0592   |
| Data Size    | 20 bytes |
| Instructions | 5        |

```
      00 01 02 03 04 05 06 07  08 09 0A 0B 0C 0D 0E 0F
      -- -- -- -- -- -- -- --  -- -- -- -- -- -- -- --
0590:       59 04 1E 50 0F 01  57 80 1F 00 5A 80 5B 80    Y..P..W...Z.[.
05A0: 00 80 1F 01 6F 00                                 ....o.          
```

#### Opcodes

```
  0: 0x0592 [0x59] UPDATE_ENTITY_DATA: Set Bki Tbujhja (ID: 17780766/0x010F501E) main speed = 9* * 0.1
  1: 0x059A [0x1F] MOVE_ENTITY: EventEntity moves to X=-5.853*, Z=-5.190*, Y=0.000*
  2: 0x05A2 [0x1F] MOVE_ENTITY: Update entity position (mode=1)
  3: 0x05A4 [0x6F] WAIT_FRAME_DELAY: Yield until WaitTime reaches zero
  4: 0x05A5 [0x00] END_REQSTACK()
```

### Event 65535.72

#### Metadata

| Field        | Value    |
|--------------|----------|
| Entrypoint   | 0x05A6   |
| Data Size    | 21 bytes |
| Instructions | 5        |

```
      00 01 02 03 04 05 06 07  08 09 0A 0B 0C 0D 0E 0F
      -- -- -- -- -- -- -- --  -- -- -- -- -- -- -- --
05A0:                   59 04  1E 50 0F 01 0E 80 1F 00        Y..P......
05B0: 4F 80 50 80 13 80 1F 01  6F 00 00                 O.P.....o..     
```

#### Opcodes

```
  0: 0x05A6 [0x59] UPDATE_ENTITY_DATA: Set Bki Tbujhja (ID: 17780766/0x010F501E) main speed = 11* * 0.1
  1: 0x05AE [0x1F] MOVE_ENTITY: EventEntity moves to X=-58.931*, Z=-86.942*, Y=5.999*
  2: 0x05B6 [0x1F] MOVE_ENTITY: Update entity position (mode=1)
  3: 0x05B8 [0x6F] WAIT_FRAME_DELAY: Yield until WaitTime reaches zero
  4: 0x05B9 [0x00] END_REQSTACK()
```

#### Data or dead code:

```
# Dead code (unreachable instructions):
     0x05BA [0x00] END_REQSTACK()
```

### Event 65535.73

#### Metadata

| Field        | Value    |
|--------------|----------|
| Entrypoint   | 0x05BB   |
| Data Size    | 20 bytes |
| Instructions | 5        |

```
      00 01 02 03 04 05 06 07  08 09 0A 0B 0C 0D 0E 0F
      -- -- -- -- -- -- -- --  -- -- -- -- -- -- -- --
05B0:                                   59 04 27 50 0F             Y.'P.
05C0: 01 0B 80 1F 00 5C 80 5D  80 5E 80 1F 01 6F 00     .....\.].^...o. 
```

#### Opcodes

```
  0: 0x05BB [0x59] UPDATE_ENTITY_DATA: Set Danzhor (ID: 17780775/0x010F5027) main speed = 12* * 0.1
  1: 0x05C3 [0x1F] MOVE_ENTITY: EventEntity moves to X=-45.210*, Z=-89.196*, Y=-5.999*
  2: 0x05CB [0x1F] MOVE_ENTITY: Update entity position (mode=1)
  3: 0x05CD [0x6F] WAIT_FRAME_DELAY: Yield until WaitTime reaches zero
  4: 0x05CE [0x00] END_REQSTACK()
```

### Event 65535.74

#### Metadata

| Field        | Value    |
|--------------|----------|
| Entrypoint   | 0x05CF   |
| Data Size    | 12 bytes |
| Instructions | 4        |

```
      00 01 02 03 04 05 06 07  08 09 0A 0B 0C 0D 0E 0F
      -- -- -- -- -- -- -- --  -- -- -- -- -- -- -- --
05C0:                                               1F                 .
05D0: 00 5F 80 60 80 00 80 1F  01 6F 00                 ._.`.....o.     
```

#### Opcodes

```
  0: 0x05CF [0x1F] MOVE_ENTITY: EventEntity moves to X=-18.343*, Z=-8.286*, Y=0.000*
  1: 0x05D7 [0x1F] MOVE_ENTITY: Update entity position (mode=1)
  2: 0x05D9 [0x6F] WAIT_FRAME_DELAY: Yield until WaitTime reaches zero
  3: 0x05DA [0x00] END_REQSTACK()
```

### Event 65535.75

#### Metadata

| Field        | Value    |
|--------------|----------|
| Entrypoint   | 0x05DB   |
| Data Size    | 16 bytes |
| Instructions | 2        |

```
      00 01 02 03 04 05 06 07  08 09 0A 0B 0C 0D 0E 0F
      -- -- -- -- -- -- -- --  -- -- -- -- -- -- -- --
05D0:                                   66 1F 80 27 50             f..'P
05E0: 0F 01 27 50 0F 01 74 68  6B 31 00                 ..'P..thk1.     
```

#### Opcodes

```
  0: 0x05DB [0x66] LOAD_EXT_SCHEDULER_MAIN: Load scheduler "thk1" with entities [Danzhor (ID: 17780775/0x010F5027), Danzhor (ID: 17780775/0x010F5027)], work=69*
  1: 0x05EA [0x00] END_REQSTACK()
```

### Event 65535.76

#### Metadata

| Field        | Value    |
|--------------|----------|
| Entrypoint   | 0x05EB   |
| Data Size    | 16 bytes |
| Instructions | 2        |

```
      00 01 02 03 04 05 06 07  08 09 0A 0B 0C 0D 0E 0F
      -- -- -- -- -- -- -- --  -- -- -- -- -- -- -- --
05E0:                                   66 1F 80 27 50             f..'P
05F0: 0F 01 27 50 0F 01 74 68  6B 32 00                 ..'P..thk2.     
```

#### Opcodes

```
  0: 0x05EB [0x66] LOAD_EXT_SCHEDULER_MAIN: Load scheduler "thk2" with entities [Danzhor (ID: 17780775/0x010F5027), Danzhor (ID: 17780775/0x010F5027)], work=69*
  1: 0x05FA [0x00] END_REQSTACK()
```

### Event 65535.77

#### Metadata

| Field        | Value    |
|--------------|----------|
| Entrypoint   | 0x05FB   |
| Data Size    | 20 bytes |
| Instructions | 5        |

```
      00 01 02 03 04 05 06 07  08 09 0A 0B 0C 0D 0E 0F
      -- -- -- -- -- -- -- --  -- -- -- -- -- -- -- --
05F0:                                   59 04 27 50 0F             Y.'P.
0600: 01 0B 80 1F 00 61 80 62  80 00 80 1F 01 6F 00     .....a.b.....o. 
```

#### Opcodes

```
  0: 0x05FB [0x59] UPDATE_ENTITY_DATA: Set Danzhor (ID: 17780775/0x010F5027) main speed = 12* * 0.1
  1: 0x0603 [0x1F] MOVE_ENTITY: EventEntity moves to X=-17.939*, Z=-16.579*, Y=0.000*
  2: 0x060B [0x1F] MOVE_ENTITY: Update entity position (mode=1)
  3: 0x060D [0x6F] WAIT_FRAME_DELAY: Yield until WaitTime reaches zero
  4: 0x060E [0x00] END_REQSTACK()
```

### Event 65535.78

#### Metadata

| Field        | Value    |
|--------------|----------|
| Entrypoint   | 0x060F   |
| Data Size    | 20 bytes |
| Instructions | 5        |

```
      00 01 02 03 04 05 06 07  08 09 0A 0B 0C 0D 0E 0F
      -- -- -- -- -- -- -- --  -- -- -- -- -- -- -- --
0600:                                               59                 Y
0610: 04 27 50 0F 01 0B 80 1F  00 63 80 64 80 00 80 1F  .'P......c.d....
0620: 01 6F 00                                          .o.             
```

#### Opcodes

```
  0: 0x060F [0x59] UPDATE_ENTITY_DATA: Set Danzhor (ID: 17780775/0x010F5027) main speed = 12* * 0.1
  1: 0x0617 [0x1F] MOVE_ENTITY: EventEntity moves to X=-3.065*, Z=-7.931*, Y=0.000*
  2: 0x061F [0x1F] MOVE_ENTITY: Update entity position (mode=1)
  3: 0x0621 [0x6F] WAIT_FRAME_DELAY: Yield until WaitTime reaches zero
  4: 0x0622 [0x00] END_REQSTACK()
```

### Event 65535.79

#### Metadata

| Field        | Value    |
|--------------|----------|
| Entrypoint   | 0x0623   |
| Data Size    | 17 bytes |
| Instructions | 2        |

```
      00 01 02 03 04 05 06 07  08 09 0A 0B 0C 0D 0E 0F
      -- -- -- -- -- -- -- --  -- -- -- -- -- -- -- --
0620:          66 34 80 30 50  0F 01 30 50 0F 01 73 68     f4.0P..0P..sh
0630: 6B 30 00 00                                       k0..            
```

#### Opcodes

```
  0: 0x0623 [0x66] LOAD_EXT_SCHEDULER_MAIN: Load scheduler "shk0" with entities [Kikilolo (ID: 17780784/0x010F5030), Kikilolo (ID: 17780784/0x010F5030)], work=41*
  1: 0x0632 [0x00] END_REQSTACK()
```

#### Data or dead code:

```
# Dead code (unreachable instructions):
     0x0633 [0x00] END_REQSTACK()
```

### Event 65535.80

#### Metadata

| Field        | Value    |
|--------------|----------|
| Entrypoint   | 0x0634   |
| Data Size    | 16 bytes |
| Instructions | 2        |

```
      00 01 02 03 04 05 06 07  08 09 0A 0B 0C 0D 0E 0F
      -- -- -- -- -- -- -- --  -- -- -- -- -- -- -- --
0630:             5B 65 80 39  50 0F 01 39 50 0F 01 74      [e.9P..9P..t
0640: 6C 6B 30 00                                       lk0.            
```

#### Opcodes

```
  0: 0x0634 [0x5B] LOAD_EXT_SCHEDULER: Load scheduler "tlk0" with entities [Momiji (ID: 17780793/0x010F5039), Momiji (ID: 17780793/0x010F5039)], work=60*
  1: 0x0643 [0x00] END_REQSTACK()
```

### Event 65535.81

#### Metadata

| Field        | Value    |
|--------------|----------|
| Entrypoint   | 0x0644   |
| Data Size    | 16 bytes |
| Instructions | 2        |

```
      00 01 02 03 04 05 06 07  08 09 0A 0B 0C 0D 0E 0F
      -- -- -- -- -- -- -- --  -- -- -- -- -- -- -- --
0640:             5B 65 80 39  50 0F 01 39 50 0F 01 74      [e.9P..9P..t
0650: 6C 6B 31 00                                       lk1.            
```

#### Opcodes

```
  0: 0x0644 [0x5B] LOAD_EXT_SCHEDULER: Load scheduler "tlk1" with entities [Momiji (ID: 17780793/0x010F5039), Momiji (ID: 17780793/0x010F5039)], work=60*
  1: 0x0653 [0x00] END_REQSTACK()
```

### Event 65535.82

#### Metadata

| Field        | Value    |
|--------------|----------|
| Entrypoint   | 0x0654   |
| Data Size    | 16 bytes |
| Instructions | 2        |

```
      00 01 02 03 04 05 06 07  08 09 0A 0B 0C 0D 0E 0F
      -- -- -- -- -- -- -- --  -- -- -- -- -- -- -- --
0650:             5B 65 80 39  50 0F 01 39 50 0F 01 74      [e.9P..9P..t
0660: 68 6B 31 00                                       hk1.            
```

#### Opcodes

```
  0: 0x0654 [0x5B] LOAD_EXT_SCHEDULER: Load scheduler "thk1" with entities [Momiji (ID: 17780793/0x010F5039), Momiji (ID: 17780793/0x010F5039)], work=60*
  1: 0x0663 [0x00] END_REQSTACK()
```

### Event 65535.83

#### Metadata

| Field        | Value    |
|--------------|----------|
| Entrypoint   | 0x0664   |
| Data Size    | 16 bytes |
| Instructions | 2        |

```
      00 01 02 03 04 05 06 07  08 09 0A 0B 0C 0D 0E 0F
      -- -- -- -- -- -- -- --  -- -- -- -- -- -- -- --
0660:             5B 65 80 39  50 0F 01 39 50 0F 01 74      [e.9P..9P..t
0670: 68 6B 32 00                                       hk2.            
```

#### Opcodes

```
  0: 0x0664 [0x5B] LOAD_EXT_SCHEDULER: Load scheduler "thk2" with entities [Momiji (ID: 17780793/0x010F5039), Momiji (ID: 17780793/0x010F5039)], work=60*
  1: 0x0673 [0x00] END_REQSTACK()
```

### Event 65535.84

#### Metadata

| Field        | Value    |
|--------------|----------|
| Entrypoint   | 0x0674   |
| Data Size    | 17 bytes |
| Instructions | 2        |

```
      00 01 02 03 04 05 06 07  08 09 0A 0B 0C 0D 0E 0F
      -- -- -- -- -- -- -- --  -- -- -- -- -- -- -- --
0670:             5B 66 80 39  50 0F 01 39 50 0F 01 65      [f.9P..9P..e
0680: 6D 74 30 00 00                                    mt0..           
```

#### Opcodes

```
  0: 0x0674 [0x5B] LOAD_EXT_SCHEDULER: Load scheduler "emt0" with entities [Momiji (ID: 17780793/0x010F5039), Momiji (ID: 17780793/0x010F5039)], work=2624*
  1: 0x0683 [0x00] END_REQSTACK()
```

#### Data or dead code:

```
# Dead code (unreachable instructions):
     0x0684 [0x00] END_REQSTACK()
```

### Event 65535.85

#### Metadata

| Field        | Value    |
|--------------|----------|
| Entrypoint   | 0x0685   |
| Data Size    | 20 bytes |
| Instructions | 5        |

```
      00 01 02 03 04 05 06 07  08 09 0A 0B 0C 0D 0E 0F
      -- -- -- -- -- -- -- --  -- -- -- -- -- -- -- --
0680:                59 04 3C  50 0F 01 3D 80 1F 00 67       Y.<P..=...g
0690: 80 68 80 00 80 1F 01 6F  00                       .h.....o.       
```

#### Opcodes

```
  0: 0x0685 [0x59] UPDATE_ENTITY_DATA: Set Mendi (ID: 17780796/0x010F503C) main speed = 13* * 0.1
  1: 0x068D [0x1F] MOVE_ENTITY: EventEntity moves to X=-38.371*, Z=-67.496*, Y=0.000*
  2: 0x0695 [0x1F] MOVE_ENTITY: Update entity position (mode=1)
  3: 0x0697 [0x6F] WAIT_FRAME_DELAY: Yield until WaitTime reaches zero
  4: 0x0698 [0x00] END_REQSTACK()
```

### Event 65535.86

#### Metadata

| Field        | Value    |
|--------------|----------|
| Entrypoint   | 0x0699   |
| Data Size    | 12 bytes |
| Instructions | 4        |

```
      00 01 02 03 04 05 06 07  08 09 0A 0B 0C 0D 0E 0F
      -- -- -- -- -- -- -- --  -- -- -- -- -- -- -- --
0690:                             1F 00 69 80 6A 80 00           ..i.j..
06A0: 80 1F 01 6F 00                                    ...o.           
```

#### Opcodes

```
  0: 0x0699 [0x1F] MOVE_ENTITY: EventEntity moves to X=-5.565*, Z=-1.804*, Y=0.000*
  1: 0x06A1 [0x1F] MOVE_ENTITY: Update entity position (mode=1)
  2: 0x06A3 [0x6F] WAIT_FRAME_DELAY: Yield until WaitTime reaches zero
  3: 0x06A4 [0x00] END_REQSTACK()
```

### Event 65535.87

#### Metadata

| Field        | Value    |
|--------------|----------|
| Entrypoint   | 0x06A5   |
| Data Size    | 16 bytes |
| Instructions | 2        |

```
      00 01 02 03 04 05 06 07  08 09 0A 0B 0C 0D 0E 0F
      -- -- -- -- -- -- -- --  -- -- -- -- -- -- -- --
06A0:                5B 54 80  3C 50 0F 01 3C 50 0F 01       [T.<P..<P..
06B0: 6F 70 62 30 00                                    opb0.           
```

#### Opcodes

```
  0: 0x06A5 [0x5B] LOAD_EXT_SCHEDULER: Load scheduler "opb0" with entities [Mendi (ID: 17780796/0x010F503C), Mendi (ID: 17780796/0x010F503C)], work=2583*
  1: 0x06B4 [0x00] END_REQSTACK()
```

### Event 65535.88

#### Metadata

| Field        | Value    |
|--------------|----------|
| Entrypoint   | 0x06B5   |
| Data Size    | 16 bytes |
| Instructions | 2        |

```
      00 01 02 03 04 05 06 07  08 09 0A 0B 0C 0D 0E 0F
      -- -- -- -- -- -- -- --  -- -- -- -- -- -- -- --
06B0:                5B 54 80  3C 50 0F 01 3C 50 0F 01       [T.<P..<P..
06C0: 6F 70 63 30 00                                    opc0.           
```

#### Opcodes

```
  0: 0x06B5 [0x5B] LOAD_EXT_SCHEDULER: Load scheduler "opc0" with entities [Mendi (ID: 17780796/0x010F503C), Mendi (ID: 17780796/0x010F503C)], work=2583*
  1: 0x06C4 [0x00] END_REQSTACK()
```

### Event 65535.89

#### Metadata

| Field        | Value    |
|--------------|----------|
| Entrypoint   | 0x06C5   |
| Data Size    | 16 bytes |
| Instructions | 2        |

```
      00 01 02 03 04 05 06 07  08 09 0A 0B 0C 0D 0E 0F
      -- -- -- -- -- -- -- --  -- -- -- -- -- -- -- --
06C0:                5B 54 80  3C 50 0F 01 3C 50 0F 01       [T.<P..<P..
06D0: 6F 70 63 31 00                                    opc1.           
```

#### Opcodes

```
  0: 0x06C5 [0x5B] LOAD_EXT_SCHEDULER: Load scheduler "opc1" with entities [Mendi (ID: 17780796/0x010F503C), Mendi (ID: 17780796/0x010F503C)], work=2583*
  1: 0x06D4 [0x00] END_REQSTACK()
```

### Event 65535.90

#### Metadata

| Field        | Value    |
|--------------|----------|
| Entrypoint   | 0x06D5   |
| Data Size    | 16 bytes |
| Instructions | 2        |

```
      00 01 02 03 04 05 06 07  08 09 0A 0B 0C 0D 0E 0F
      -- -- -- -- -- -- -- --  -- -- -- -- -- -- -- --
06D0:                66 6B 80  3C 50 0F 01 3C 50 0F 01       fk.<P..<P..
06E0: 74 68 62 31 00                                    thb1.           
```

#### Opcodes

```
  0: 0x06D5 [0x66] LOAD_EXT_SCHEDULER_MAIN: Load scheduler "thb1" with entities [Mendi (ID: 17780796/0x010F503C), Mendi (ID: 17780796/0x010F503C)], work=2*
  1: 0x06E4 [0x00] END_REQSTACK()
```

### Event 65535.91

#### Metadata

| Field        | Value    |
|--------------|----------|
| Entrypoint   | 0x06E5   |
| Data Size    | 16 bytes |
| Instructions | 2        |

```
      00 01 02 03 04 05 06 07  08 09 0A 0B 0C 0D 0E 0F
      -- -- -- -- -- -- -- --  -- -- -- -- -- -- -- --
06E0:                66 6B 80  3C 50 0F 01 3C 50 0F 01       fk.<P..<P..
06F0: 74 68 62 32 00                                    thb2.           
```

#### Opcodes

```
  0: 0x06E5 [0x66] LOAD_EXT_SCHEDULER_MAIN: Load scheduler "thb2" with entities [Mendi (ID: 17780796/0x010F503C), Mendi (ID: 17780796/0x010F503C)], work=2*
  1: 0x06F4 [0x00] END_REQSTACK()
```

### Event 65535.92

#### Metadata

| Field        | Value    |
|--------------|----------|
| Entrypoint   | 0x06F5   |
| Data Size    | 16 bytes |
| Instructions | 2        |

```
      00 01 02 03 04 05 06 07  08 09 0A 0B 0C 0D 0E 0F
      -- -- -- -- -- -- -- --  -- -- -- -- -- -- -- --
06F0:                66 00 80  3C 50 0F 01 3C 50 0F 01       f..<P..<P..
0700: 74 68 6B 31 00                                    thk1.           
```

#### Opcodes

```
  0: 0x06F5 [0x66] LOAD_EXT_SCHEDULER_MAIN: Load scheduler "thk1" with entities [Mendi (ID: 17780796/0x010F503C), Mendi (ID: 17780796/0x010F503C)], work=0*
  1: 0x0704 [0x00] END_REQSTACK()
```

### Event 65535.93

#### Metadata

| Field        | Value    |
|--------------|----------|
| Entrypoint   | 0x0705   |
| Data Size    | 16 bytes |
| Instructions | 2        |

```
      00 01 02 03 04 05 06 07  08 09 0A 0B 0C 0D 0E 0F
      -- -- -- -- -- -- -- --  -- -- -- -- -- -- -- --
0700:                66 00 80  3C 50 0F 01 3C 50 0F 01       f..<P..<P..
0710: 74 68 6B 32 00                                    thk2.           
```

#### Opcodes

```
  0: 0x0705 [0x66] LOAD_EXT_SCHEDULER_MAIN: Load scheduler "thk2" with entities [Mendi (ID: 17780796/0x010F503C), Mendi (ID: 17780796/0x010F503C)], work=0*
  1: 0x0714 [0x00] END_REQSTACK()
```

### Event 65535.94

#### Metadata

| Field        | Value    |
|--------------|----------|
| Entrypoint   | 0x0715   |
| Data Size    | 20 bytes |
| Instructions | 5        |

```
      00 01 02 03 04 05 06 07  08 09 0A 0B 0C 0D 0E 0F
      -- -- -- -- -- -- -- --  -- -- -- -- -- -- -- --
0710:                59 04 3C  50 0F 01 3D 80 1F 00 6C       Y.<P..=...l
0720: 80 6D 80 00 80 1F 01 6F  00                       .m.....o.       
```

#### Opcodes

```
  0: 0x0715 [0x59] UPDATE_ENTITY_DATA: Set Mendi (ID: 17780796/0x010F503C) main speed = 13* * 0.1
  1: 0x071D [0x1F] MOVE_ENTITY: EventEntity moves to X=-2.765*, Z=5.059*, Y=0.000*
  2: 0x0725 [0x1F] MOVE_ENTITY: Update entity position (mode=1)
  3: 0x0727 [0x6F] WAIT_FRAME_DELAY: Yield until WaitTime reaches zero
  4: 0x0728 [0x00] END_REQSTACK()
```

### Event 65535.95

#### Metadata

| Field        | Value    |
|--------------|----------|
| Entrypoint   | 0x0729   |
| Data Size    | 20 bytes |
| Instructions | 5        |

```
      00 01 02 03 04 05 06 07  08 09 0A 0B 0C 0D 0E 0F
      -- -- -- -- -- -- -- --  -- -- -- -- -- -- -- --
0720:                             59 04 3C 50 0F 01 3D           Y.<P..=
0730: 80 1F 00 47 80 48 80 00  80 1F 01 6F 00           ...G.H.....o.   
```

#### Opcodes

```
  0: 0x0729 [0x59] UPDATE_ENTITY_DATA: Set Mendi (ID: 17780796/0x010F503C) main speed = 13* * 0.1
  1: 0x0731 [0x1F] MOVE_ENTITY: EventEntity moves to X=-0.991*, Z=2.123*, Y=0.000*
  2: 0x0739 [0x1F] MOVE_ENTITY: Update entity position (mode=1)
  3: 0x073B [0x6F] WAIT_FRAME_DELAY: Yield until WaitTime reaches zero
  4: 0x073C [0x00] END_REQSTACK()
```

### Event 65535.96

#### Metadata

| Field        | Value    |
|--------------|----------|
| Entrypoint   | 0x073D   |
| Data Size    | 16 bytes |
| Instructions | 2        |

```
      00 01 02 03 04 05 06 07  08 09 0A 0B 0C 0D 0E 0F
      -- -- -- -- -- -- -- --  -- -- -- -- -- -- -- --
0730:                                         5B 54 80               [T.
0740: 3C 50 0F 01 3C 50 0F 01  6F 70 64 30 00           <P..<P..opd0.   
```

#### Opcodes

```
  0: 0x073D [0x5B] LOAD_EXT_SCHEDULER: Load scheduler "opd0" with entities [Mendi (ID: 17780796/0x010F503C), Mendi (ID: 17780796/0x010F503C)], work=2583*
  1: 0x074C [0x00] END_REQSTACK()
```

### Event 65535.97

#### Metadata

| Field        | Value    |
|--------------|----------|
| Entrypoint   | 0x074D   |
| Data Size    | 16 bytes |
| Instructions | 2        |

```
      00 01 02 03 04 05 06 07  08 09 0A 0B 0C 0D 0E 0F
      -- -- -- -- -- -- -- --  -- -- -- -- -- -- -- --
0740:                                         5B 54 80               [T.
0750: 3C 50 0F 01 3C 50 0F 01  6F 70 64 31 00           <P..<P..opd1.   
```

#### Opcodes

```
  0: 0x074D [0x5B] LOAD_EXT_SCHEDULER: Load scheduler "opd1" with entities [Mendi (ID: 17780796/0x010F503C), Mendi (ID: 17780796/0x010F503C)], work=2583*
  1: 0x075C [0x00] END_REQSTACK()
```
