# 17780796 - Mendi

## Common Data

| Field            | Value                 |
|------------------|-----------------------|
| Zone             | Lower Jeuno (ID: 245) |
| Block Size       | 2848 bytes            |
| Total Events     | 100                   |
| References Count | 127                   |

## List of Events

| Event ID                   | Entrypoint   |   Size |   Instructions |
|----------------------------|--------------|--------|----------------|
| [65535](#event-65535)      | 0x0000       |      1 |              1 |
| [82](#event-82)            | 0x0001       |    218 |             62 |
| [10094](#event-10094)      | 0x00DB       |      5 |              3 |
| [65535.1](#event-655351)   | 0x00E0       |     20 |              5 |
| [65535.2](#event-655352)   | 0x00F4       |     20 |              5 |
| [65535.3](#event-655353)   | 0x0108       |     20 |              5 |
| [65535.4](#event-655354)   | 0x011C       |     17 |              3 |
| [65535.5](#event-655355)   | 0x012D       |     20 |              5 |
| [65535.6](#event-655356)   | 0x0141       |     20 |              5 |
| [65535.7](#event-655357)   | 0x0155       |     19 |              4 |
| [65535.8](#event-655358)   | 0x0168       |     19 |              4 |
| [65535.9](#event-655359)   | 0x017B       |     16 |              2 |
| [65535.10](#event-6553510) | 0x018B       |     16 |              2 |
| [65535.11](#event-6553511) | 0x019B       |     20 |              5 |
| [65535.12](#event-6553512) | 0x01AF       |     16 |              2 |
| [65535.13](#event-6553513) | 0x01BF       |     16 |              2 |
| [65535.14](#event-6553514) | 0x01CF       |     16 |              2 |
| [65535.15](#event-6553515) | 0x01DF       |     21 |              6 |
| [65535.16](#event-6553516) | 0x01F4       |     16 |              2 |
| [65535.17](#event-6553517) | 0x0204       |     16 |              2 |
| [65535.18](#event-6553518) | 0x0214       |     20 |              5 |
| [65535.19](#event-6553519) | 0x0228       |     17 |              3 |
| [65535.20](#event-6553520) | 0x0239       |     20 |              5 |
| [65535.21](#event-6553521) | 0x024D       |     16 |              2 |
| [65535.22](#event-6553522) | 0x025D       |     16 |              2 |
| [65535.23](#event-6553523) | 0x026D       |     16 |              2 |
| [65535.24](#event-6553524) | 0x027D       |     16 |              2 |
| [65535.25](#event-6553525) | 0x028D       |     16 |              2 |
| [65535.26](#event-6553526) | 0x029D       |     16 |              2 |
| [65535.27](#event-6553527) | 0x02AD       |     16 |              2 |
| [65535.28](#event-6553528) | 0x02BD       |     12 |              4 |
| [65535.29](#event-6553529) | 0x02C9       |     20 |              5 |
| [65535.30](#event-6553530) | 0x02DD       |     17 |              3 |
| [65535.31](#event-6553531) | 0x02EE       |     17 |              3 |
| [65535.32](#event-6553532) | 0x02FF       |     16 |              2 |
| [65535.33](#event-6553533) | 0x030F       |     16 |              2 |
| [65535.34](#event-6553534) | 0x031F       |     16 |              2 |
| [65535.35](#event-6553535) | 0x032F       |     16 |              2 |
| [65535.36](#event-6553536) | 0x033F       |     16 |              2 |
| [65535.37](#event-6553537) | 0x034F       |     16 |              2 |
| [65535.38](#event-6553538) | 0x035F       |     13 |              5 |
| [65535.39](#event-6553539) | 0x036C       |     20 |              5 |
| [65535.40](#event-6553540) | 0x0380       |     12 |              4 |
| [65535.41](#event-6553541) | 0x038C       |     16 |              2 |
| [65535.42](#event-6553542) | 0x039C       |     16 |              2 |
| [65535.43](#event-6553543) | 0x03AC       |     16 |              2 |
| [65535.44](#event-6553544) | 0x03BC       |     20 |              5 |
| [65535.45](#event-6553545) | 0x03D0       |     29 |              6 |
| [65535.46](#event-6553546) | 0x03ED       |     17 |              3 |
| [65535.47](#event-6553547) | 0x03FE       |     20 |              5 |
| [65535.48](#event-6553548) | 0x0412       |     20 |              5 |
| [65535.49](#event-6553549) | 0x0426       |     20 |              5 |
| [65535.50](#event-6553550) | 0x043A       |     20 |              5 |
| [65535.51](#event-6553551) | 0x044E       |     20 |              5 |
| [65535.52](#event-6553552) | 0x0462       |     16 |              2 |
| [65535.53](#event-6553553) | 0x0472       |     16 |              2 |
| [65535.54](#event-6553554) | 0x0482       |     20 |              5 |
| [65535.55](#event-6553555) | 0x0496       |     16 |              2 |
| [65535.56](#event-6553556) | 0x04A6       |     16 |              2 |
| [65535.57](#event-6553557) | 0x04B6       |     16 |              2 |
| [65535.58](#event-6553558) | 0x04C6       |     16 |              2 |
| [65535.59](#event-6553559) | 0x04D6       |     21 |              6 |
| [65535.60](#event-6553560) | 0x04EB       |     20 |              5 |
| [65535.61](#event-6553561) | 0x04FF       |     20 |              5 |
| [65535.62](#event-6553562) | 0x0513       |     17 |              3 |
| [65535.63](#event-6553563) | 0x0524       |     20 |              5 |
| [65535.64](#event-6553564) | 0x0538       |     20 |              5 |
| [65535.65](#event-6553565) | 0x054C       |     16 |              2 |
| [65535.66](#event-6553566) | 0x055C       |     16 |              2 |
| [65535.67](#event-6553567) | 0x056C       |     21 |              6 |
| [65535.68](#event-6553568) | 0x0581       |     20 |              5 |
| [65535.69](#event-6553569) | 0x0595       |     20 |              5 |
| [65535.70](#event-6553570) | 0x05A9       |     16 |              2 |
| [65535.71](#event-6553571) | 0x05B9       |     20 |              5 |
| [65535.72](#event-6553572) | 0x05CD       |     21 |              6 |
| [65535.73](#event-6553573) | 0x05E2       |     20 |              5 |
| [65535.74](#event-6553574) | 0x05F6       |     12 |              4 |
| [65535.75](#event-6553575) | 0x0602       |     16 |              2 |
| [65535.76](#event-6553576) | 0x0612       |     16 |              2 |
| [65535.77](#event-6553577) | 0x0622       |     20 |              5 |
| [65535.78](#event-6553578) | 0x0636       |     20 |              5 |
| [65535.79](#event-6553579) | 0x064A       |     17 |              3 |
| [65535.80](#event-6553580) | 0x065B       |     16 |              2 |
| [65535.81](#event-6553581) | 0x066B       |     16 |              2 |
| [65535.82](#event-6553582) | 0x067B       |     16 |              2 |
| [65535.83](#event-6553583) | 0x068B       |     16 |              2 |
| [65535.84](#event-6553584) | 0x069B       |     17 |              3 |
| [65535.85](#event-6553585) | 0x06AC       |     20 |              5 |
| [65535.86](#event-6553586) | 0x06C0       |     12 |              4 |
| [65535.87](#event-6553587) | 0x06CC       |     16 |              2 |
| [65535.88](#event-6553588) | 0x06DC       |     16 |              2 |
| [65535.89](#event-6553589) | 0x06EC       |     16 |              2 |
| [65535.90](#event-6553590) | 0x06FC       |     16 |              2 |
| [65535.91](#event-6553591) | 0x070C       |     16 |              2 |
| [65535.92](#event-6553592) | 0x071C       |     16 |              2 |
| [65535.93](#event-6553593) | 0x072C       |     16 |              2 |
| [65535.94](#event-6553594) | 0x073C       |     20 |              5 |
| [65535.95](#event-6553595) | 0x0750       |     20 |              5 |
| [65535.96](#event-6553596) | 0x0764       |     16 |              2 |
| [65535.97](#event-6553597) | 0x0774       |     16 |              2 |

## DAT References (imed_data)

|   Index | Hex Value   |   Dec Value |
|---------|-------------|-------------|
|       0 | 0x0000      |           0 |
|       1 | 0x0265      |         613 |
|       2 | 0x1F82      |        8066 |
|       3 | 0x1F83      |        8067 |
|       4 | 0x0226      |         550 |
|       5 | 0x1E97      |        7831 |
|       6 | 0x1E98      |        7832 |
|       7 | 0x01E8      |         488 |
|       8 | 0x1E95      |        7829 |
|       9 | 0x1E96      |        7830 |
|      10 | 0x01A9      |         425 |
|      11 | 0x1E93      |        7827 |
|      12 | 0x1E94      |        7828 |
|      13 | 0x0145      |         325 |
|      14 | 0x1E91      |        7825 |
|      15 | 0x1E92      |        7826 |
|      16 | 0x00E1      |         225 |
|      17 | 0x1E90      |        7824 |
|      18 | 0x007D      |         125 |
|      19 | 0x1E8E      |        7822 |
|      20 | 0x1E8F      |        7823 |
|      21 | 0x0032      |          50 |
|      22 | 0x1E8C      |        7820 |
|      23 | 0x1E8D      |        7821 |
|      24 | 0x1E89      |        7817 |
|      25 | 0x1E8A      |        7818 |
|      26 | 0x1E8B      |        7819 |
|      27 | 0x0001      |           1 |
|      28 | 0x000C      |          12 |
|      29 | 0xFFFED6C4  |  4294891204 |
|      30 | 0xFFFDEB5B  |  4294830939 |
|      31 | 0x000B      |          11 |
|      32 | 0xFFFE8B97  |  4294871959 |
|      33 | 0xFFFD9E68  |  4294811240 |
|      34 | 0xFFFF0D87  |  4294905223 |
|      35 | 0xFFFEA0EF  |  4294877423 |
|      36 | 0x176F      |        5999 |
|      37 | 0x0A3A      |        2618 |
|      38 | 0xFFFEB818  |  4294883352 |
|      39 | 0xFFFE098F  |  4294838671 |
|      40 | 0xFFFEF410  |  4294898704 |
|      41 | 0xFFFE85B9  |  4294870457 |
|      42 | 0xFFFEEC91  |  4294896785 |
|      43 | 0xFFFE6EA2  |  4294864546 |
|      44 | 0x0A2A      |        2602 |
|      45 | 0xFFFEE552  |  4294894930 |
|      46 | 0xFFFE3269  |  4294849129 |
|      47 | 0x0A39      |        2617 |
|      48 | 0x0045      |          69 |
|      49 | 0xFFFF2160  |  4294910304 |
|      50 | 0xFFFEA80E  |  4294879246 |
|      51 | 0x0A3D      |        2621 |
|      52 | 0x0A43      |        2627 |
|      53 | 0x004B      |          75 |
|      54 | 0xFFFFB20E  |  4294947342 |
|      55 | 0xFFFFAE2A  |  4294946346 |
|      56 | 0xFFFEDC35  |  4294892597 |
|      57 | 0xFFFE5D95  |  4294860181 |
|      58 | 0x0A47      |        2631 |
|      59 | 0x0055      |          85 |
|      60 | 0xFFFFB26F  |  4294947439 |
|      61 | 0xFFFFAB30  |  4294945584 |
|      62 | 0x000E      |          14 |
|      63 | 0xFFFF6C7D  |  4294929533 |
|      64 | 0xFFFF0AA4  |  4294904484 |
|      65 | 0xFFFFCBCA  |  4294953930 |
|      66 | 0x09E0      |        2528 |
|      67 | 0xFFFFFE3F  |  4294966847 |
|      68 | 0x0028      |          40 |
|      69 | 0x0029      |          41 |
|      70 | 0xFFFEEA26  |  4294896166 |
|      71 | 0xFFFE4F39  |  4294856505 |
|      72 | 0xFFFED8EC  |  4294891756 |
|      73 | 0xFFFE38BF  |  4294850751 |
|      74 | 0xFFFEC5BC  |  4294886844 |
|      75 | 0xFFFE1640  |  4294841920 |
|      76 | 0x03E7      |         999 |
|      77 | 0x0A33      |        2611 |
|      78 | 0x000D      |          13 |
|      79 | 0xFFFF04E1  |  4294903009 |
|      80 | 0xFFFE7108  |  4294865160 |
|      81 | 0x108C      |        4236 |
|      82 | 0x10F0      |        4336 |
|      83 | 0xFFFFC3F0  |  4294951920 |
|      84 | 0xFFFFA321  |  4294943521 |
|      85 | 0xFFFFFF9B  |  4294967195 |
|      86 | 0x000A      |          10 |
|      87 | 0x0A18      |        2584 |
|      88 | 0xFFFFFC21  |  4294966305 |
|      89 | 0x084B      |        2123 |
|      90 | 0x0008      |           8 |
|      91 | 0x0033      |          51 |
|      92 | 0xFFFF0DFA  |  4294905338 |
|      93 | 0xFFFE6C9D  |  4294864029 |
|      94 | 0xFFFEFBE3  |  4294900707 |
|      95 | 0xFFFE9775  |  4294874997 |
|      96 | 0xFFFF19CD  |  4294908365 |
|      97 | 0xFFFEAC62  |  4294880354 |
|      98 | 0xFFFECE8B  |  4294889099 |
|      99 | 0xFFFE3998  |  4294850968 |
|     100 | 0x0F9F      |        3999 |
|     101 | 0x0A17      |        2583 |
|     102 | 0xFFFFD965  |  4294957413 |
|     103 | 0xFFFFD99E  |  4294957470 |
|     104 | 0x0009      |           9 |
|     105 | 0xFFFEE68C  |  4294895244 |
|     106 | 0xFFFE6FBD  |  4294864829 |
|     107 | 0xFFFFE923  |  4294961443 |
|     108 | 0xFFFFEBBA  |  4294962106 |
|     109 | 0xFFFF4F66  |  4294922086 |
|     110 | 0xFFFEA394  |  4294878100 |
|     111 | 0xFFFFE891  |  4294961297 |
|     112 | 0xFFFFB859  |  4294948953 |
|     113 | 0xFFFFDFA2  |  4294959010 |
|     114 | 0xFFFFB9ED  |  4294949357 |
|     115 | 0xFFFFBF3D  |  4294950717 |
|     116 | 0xFFFFF407  |  4294964231 |
|     117 | 0xFFFFE105  |  4294959365 |
|     118 | 0x003C      |          60 |
|     119 | 0x0A40      |        2624 |
|     120 | 0xFFFF6A1D  |  4294928925 |
|     121 | 0xFFFEF858  |  4294899800 |
|     122 | 0xFFFFEA43  |  4294961731 |
|     123 | 0xFFFFF8F4  |  4294965492 |
|     124 | 0x0002      |           2 |
|     125 | 0xFFFFF533  |  4294964531 |
|     126 | 0x13C3      |        5059 |

## String References

- **7817**: You call yourself <Player>? Well, I've never heard of you. You may be somebody in your little hometown, but things are different here.
- **7818**: All roads lead to Jeuno. It's not easy to make a name for yourself with all these people here.
- **7819**: If you're really so famous back home, then word should reach here eventually. For now, just finish what you've started. Fame and fortune should follow.
- **7820**: <Player>, eh? Hmm... That name is vaguely familiar...
- **7821**: But I'm afraid few in this town have heard of you. Just keep working at it. You'll make a name for yourself eventually.
- **7822**: Oh, so you're <Player>... Yes, I heard some travelers in a tavern talk about you. It seems you've a fair reputation.
- **7823**: If you keep doing whatever you're doing, I'm sure more Jeunoans will come seeking your help. Good luck.
- **7824**: Hello, <Player>! I hear your name mentioned quite often these days. You've done well, my friend. Keep at it.
- **7825**: Hello, <Player>! A good deal of people here in Jeuno know about you!
- **7826**: And they all say you're quite the do-gooder! Thank you for serving our fair city. Keep up the good work!
- **7827**: Why, it's <Player>! Your growing reputation precedes you.
- **7828**: We hope your already substantial contributions to our humble city will continue to grow with time.
- **7829**: Why, hello, <Player>. I say, literally everyone in Jeuno knows your name.
- **7830**: It is my pleasure to inform you how impressed we are with your service to Jeuno. We hope to see more of your commendable generosity in the future!
- **7831**: [Lord/Lady] <Player>! To all citizens here, your name is synonymous with courage and sacrifice. Not a day goes by without hearing of your saintlike service to Jeuno.
- **7832**: I speak for all of Jeuno when I express my sincerest appreciation for your generosity. Indeed, bards shall sing of your virtues for ages to come!
- **8066**: You have emerged as a hero to the people of Jeuno. Just the sound of your name strikes courage into their hearts.
- **8067**: As a representative of its citizens, I humbly ask you to continue your efforts for the good of the Duchy.

## Events

### Event 65535

#### Metadata

| Field        | Value   |
|--------------|---------|
| Entrypoint   | 0x0000  |
| Data Size    | 1 bytes |
| Instructions | 1       |

```
      00 01 02 03 04 05 06 07  08 09 0A 0B 0C 0D 0E 0F
      -- -- -- -- -- -- -- --  -- -- -- -- -- -- -- --
0000: 00                                                .               
```

#### Opcodes

```
  0: 0x0000 [0x00] END_REQSTACK()
```

### Event 82

#### Metadata

| Field        | Value     |
|--------------|-----------|
| Entrypoint   | 0x0001    |
| Data Size    | 218 bytes |
| Instructions | 61        |

```
      00 01 02 03 04 05 06 07  08 09 0A 0B 0C 0D 0E 0F
      -- -- -- -- -- -- -- --  -- -- -- -- -- -- -- --
0000:    03 00 00 02 10 1E F0  FF FF 7F 6F 70 66 00 80   ..........opf..
0010: F8 FF FF 7F F8 FF FF 7F  74 6C 6B 30 02 00 00 01  ........tlk0....
0020: 80 04 2F 00 1D 02 80 23  1D 03 80 23 01 BC 00 02  ../....#...#....
0030: 00 00 04 80 04 42 00 1D  05 80 23 1D 06 80 23 01  .....B....#...#.
0040: BC 00 02 00 00 07 80 04  55 00 1D 08 80 23 1D 09  ........U....#..
0050: 80 23 01 BC 00 02 00 00  0A 80 04 68 00 1D 0B 80  .#.........h....
0060: 23 1D 0C 80 23 01 BC 00  02 00 00 0D 80 04 7B 00  #...#.........{.
0070: 1D 0E 80 23 1D 0F 80 23  01 BC 00 02 00 00 10 80  ...#...#........
0080: 04 8A 00 1D 11 80 23 01  BC 00 02 00 00 12 80 04  ......#.........
0090: 9D 00 1D 13 80 23 1D 14  80 23 01 BC 00 02 00 00  .....#...#......
00A0: 15 80 04 B0 00 1D 16 80  23 1D 17 80 23 01 BC 00  ........#...#...
00B0: 1D 18 80 23 1D 19 80 23  1D 1A 80 23 66 00 80 F8  ...#...#...#f...
00C0: FF FF 7F F8 FF FF 7F 74  65 6E 30 53 F8 FF FF 7F  .......ten0S....
00D0: F8 FF FF 7F 74 65 6E 30  21 00 00                 ....ten0!..     
```

#### Opcodes

```
  0: 0x0001 [0x03] ExtData[1]->WorkLocal[0] = Work_Zone[2]
  1: 0x0006 [0x1E] EventEntity looks at LocalPlayer and starts talking
  2: 0x000B [0x6F] WAIT_FRAME_DELAY: Yield until WaitTime reaches zero
  3: 0x000C [0x70] WAIT_ENTITY_RENDER_FLAG: Wait while EventEntity->Render.Flags3 bit 2 is set (cancel turn if not)
  4: 0x000D [0x66] LOAD_EXT_SCHEDULER_MAIN: Load scheduler "tlk0" with entities [EventEntity, EventEntity], work=0*
  5: 0x001C [0x02] IF !(ExtData[1]->WorkLocal[0] < 613*) GOTO 0x002F
  6: 0x0024 [0x1D] PRINT_EVENT_MESSAGE(message_id=8066*)
    → "You have emerged as a hero to the people of Jeuno. Just the sound of your name strikes courage into their hearts."
  7: 0x0027 [0x23] WAIT_FOR_DIALOG_INTERACTION
  8: 0x0028 [0x1D] PRINT_EVENT_MESSAGE(message_id=8067*)
    → "As a representative of its citizens, I humbly ask you to continue your efforts for the good of the Duchy."
  9: 0x002B [0x23] WAIT_FOR_DIALOG_INTERACTION
 10: 0x002C [0x01] GOTO 0x00BC
 11: 0x002F [0x02] IF !(ExtData[1]->WorkLocal[0] < 550*) GOTO 0x0042
 12: 0x0037 [0x1D] PRINT_EVENT_MESSAGE(message_id=7831*)
    → "[Lord/Lady] <Player>! To all citizens here, your name is synonymous with courage and sacrifice. Not a day goes by without hearing of your saintlike service to Jeuno."
 13: 0x003A [0x23] WAIT_FOR_DIALOG_INTERACTION
 14: 0x003B [0x1D] PRINT_EVENT_MESSAGE(message_id=7832*)
    → "I speak for all of Jeuno when I express my sincerest appreciation for your generosity. Indeed, bards shall sing of your virtues for ages to come!"
 15: 0x003E [0x23] WAIT_FOR_DIALOG_INTERACTION
 16: 0x003F [0x01] GOTO 0x00BC
 17: 0x0042 [0x02] IF !(ExtData[1]->WorkLocal[0] < 488*) GOTO 0x0055
 18: 0x004A [0x1D] PRINT_EVENT_MESSAGE(message_id=7829*)
    → "Why, hello, <Player>. I say, literally everyone in Jeuno knows your name."
 19: 0x004D [0x23] WAIT_FOR_DIALOG_INTERACTION
 20: 0x004E [0x1D] PRINT_EVENT_MESSAGE(message_id=7830*)
    → "It is my pleasure to inform you how impressed we are with your service to Jeuno. We hope to see more of your commendable generosity in the future!"
 21: 0x0051 [0x23] WAIT_FOR_DIALOG_INTERACTION
 22: 0x0052 [0x01] GOTO 0x00BC
 23: 0x0055 [0x02] IF !(ExtData[1]->WorkLocal[0] < 425*) GOTO 0x0068
 24: 0x005D [0x1D] PRINT_EVENT_MESSAGE(message_id=7827*)
    → "Why, it's <Player>! Your growing reputation precedes you."
 25: 0x0060 [0x23] WAIT_FOR_DIALOG_INTERACTION
 26: 0x0061 [0x1D] PRINT_EVENT_MESSAGE(message_id=7828*)
    → "We hope your already substantial contributions to our humble city will continue to grow with time."
 27: 0x0064 [0x23] WAIT_FOR_DIALOG_INTERACTION
 28: 0x0065 [0x01] GOTO 0x00BC
 29: 0x0068 [0x02] IF !(ExtData[1]->WorkLocal[0] < 325*) GOTO 0x007B
 30: 0x0070 [0x1D] PRINT_EVENT_MESSAGE(message_id=7825*)
    → "Hello, <Player>! A good deal of people here in Jeuno know about you!"
 31: 0x0073 [0x23] WAIT_FOR_DIALOG_INTERACTION
 32: 0x0074 [0x1D] PRINT_EVENT_MESSAGE(message_id=7826*)
    → "And they all say you're quite the do-gooder! Thank you for serving our fair city. Keep up the good work!"
 33: 0x0077 [0x23] WAIT_FOR_DIALOG_INTERACTION
 34: 0x0078 [0x01] GOTO 0x00BC
 35: 0x007B [0x02] IF !(ExtData[1]->WorkLocal[0] < 225*) GOTO 0x008A
 36: 0x0083 [0x1D] PRINT_EVENT_MESSAGE(message_id=7824*)
    → "Hello, <Player>! I hear your name mentioned quite often these days. You've done well, my friend. Keep at it."
 37: 0x0086 [0x23] WAIT_FOR_DIALOG_INTERACTION
 38: 0x0087 [0x01] GOTO 0x00BC
 39: 0x008A [0x02] IF !(ExtData[1]->WorkLocal[0] < 125*) GOTO 0x009D
 40: 0x0092 [0x1D] PRINT_EVENT_MESSAGE(message_id=7822*)
    → "Oh, so you're <Player>... Yes, I heard some travelers in a tavern talk about you. It seems you've a fair reputation."
 41: 0x0095 [0x23] WAIT_FOR_DIALOG_INTERACTION
 42: 0x0096 [0x1D] PRINT_EVENT_MESSAGE(message_id=7823*)
    → "If you keep doing whatever you're doing, I'm sure more Jeunoans will come seeking your help. Good luck."
 43: 0x0099 [0x23] WAIT_FOR_DIALOG_INTERACTION
 44: 0x009A [0x01] GOTO 0x00BC
 45: 0x009D [0x02] IF !(ExtData[1]->WorkLocal[0] < 50*) GOTO 0x00B0
 46: 0x00A5 [0x1D] PRINT_EVENT_MESSAGE(message_id=7820*)
    → "<Player>, eh? Hmm... That name is vaguely familiar..."
 47: 0x00A8 [0x23] WAIT_FOR_DIALOG_INTERACTION
 48: 0x00A9 [0x1D] PRINT_EVENT_MESSAGE(message_id=7821*)
    → "But I'm afraid few in this town have heard of you. Just keep working at it. You'll make a name for yourself eventually."
 49: 0x00AC [0x23] WAIT_FOR_DIALOG_INTERACTION
 50: 0x00AD [0x01] GOTO 0x00BC
 51: 0x00B0 [0x1D] PRINT_EVENT_MESSAGE(message_id=7817*)
    → "You call yourself <Player>? Well, I've never heard of you. You may be somebody in your little hometown, but things are different here."
 52: 0x00B3 [0x23] WAIT_FOR_DIALOG_INTERACTION
 53: 0x00B4 [0x1D] PRINT_EVENT_MESSAGE(message_id=7818*)
    → "All roads lead to Jeuno. It's not easy to make a name for yourself with all these people here."
 54: 0x00B7 [0x23] WAIT_FOR_DIALOG_INTERACTION
 55: 0x00B8 [0x1D] PRINT_EVENT_MESSAGE(message_id=7819*)
    → "If you're really so famous back home, then word should reach here eventually. For now, just finish what you've started. Fame and fortune should follow."
 56: 0x00BB [0x23] WAIT_FOR_DIALOG_INTERACTION

SUBROUTINE_00BC:
 57: 0x00BC [0x66] LOAD_EXT_SCHEDULER_MAIN: Load scheduler "ten0" with entities [EventEntity, EventEntity], work=0*
 58: 0x00CB [0x53] WAIT_SCHEDULER_TASK: Wait for scheduler "ten0" with entities [EventEntity, EventEntity]
 59: 0x00D8 [0x21] END_EVENT
 60: 0x00D9 [0x00] END_REQSTACK()
```

#### Data or dead code:

```
# Dead code (unreachable instructions):
     0x00DA [0x00] END_REQSTACK()
```

### Event 10094

#### Metadata

| Field        | Value   |
|--------------|---------|
| Entrypoint   | 0x00DB  |
| Data Size    | 5 bytes |
| Instructions | 2       |

```
      00 01 02 03 04 05 06 07  08 09 0A 0B 0C 0D 0E 0F
      -- -- -- -- -- -- -- --  -- -- -- -- -- -- -- --
00D0:                                   C0 1B 80 00 00             .....
```

#### Opcodes

```
  0: 0x00DB [0xC0] EventEntity->Render.Flags3 |= 0x1000 // Set bit 12 (from 1*)
  1: 0x00DE [0x00] END_REQSTACK()
```

#### Data or dead code:

```
# Dead code (unreachable instructions):
     0x00DF [0x00] END_REQSTACK()
```

### Event 65535.1

#### Metadata

| Field        | Value    |
|--------------|----------|
| Entrypoint   | 0x00E0   |
| Data Size    | 20 bytes |
| Instructions | 5        |

```
      00 01 02 03 04 05 06 07  08 09 0A 0B 0C 0D 0E 0F
      -- -- -- -- -- -- -- --  -- -- -- -- -- -- -- --
00E0: 59 04 0B 50 0F 01 1C 80  1F 00 1D 80 1E 80 00 80  Y..P............
00F0: 1F 01 6F 00                                       ..o.            
```

#### Opcodes

```
  0: 0x00E0 [0x59] UPDATE_ENTITY_DATA: Set Garnev (ID: 17780747/0x010F500B) main speed = 12* * 0.1
  1: 0x00E8 [0x1F] MOVE_ENTITY: EventEntity moves to X=-76.092*, Z=-136.357*, Y=0.000*
  2: 0x00F0 [0x1F] MOVE_ENTITY: Update entity position (mode=1)
  3: 0x00F2 [0x6F] WAIT_FRAME_DELAY: Yield until WaitTime reaches zero
  4: 0x00F3 [0x00] END_REQSTACK()
```

### Event 65535.2

#### Metadata

| Field        | Value    |
|--------------|----------|
| Entrypoint   | 0x00F4   |
| Data Size    | 20 bytes |
| Instructions | 5        |

```
      00 01 02 03 04 05 06 07  08 09 0A 0B 0C 0D 0E 0F
      -- -- -- -- -- -- -- --  -- -- -- -- -- -- -- --
00F0:             59 04 1D 50  0F 01 1F 80 1F 00 20 80      Y..P...... .
0100: 21 80 00 80 1F 01 6F 00                           !.....o.        
```

#### Opcodes

```
  0: 0x00F4 [0x59] UPDATE_ENTITY_DATA: Set Mataligeat (ID: 17780765/0x010F501D) main speed = 11* * 0.1
  1: 0x00FC [0x1F] MOVE_ENTITY: EventEntity moves to X=-95.337*, Z=-156.056*, Y=0.000*
  2: 0x0104 [0x1F] MOVE_ENTITY: Update entity position (mode=1)
  3: 0x0106 [0x6F] WAIT_FRAME_DELAY: Yield until WaitTime reaches zero
  4: 0x0107 [0x00] END_REQSTACK()
```

### Event 65535.3

#### Metadata

| Field        | Value    |
|--------------|----------|
| Entrypoint   | 0x0108   |
| Data Size    | 20 bytes |
| Instructions | 5        |

```
      00 01 02 03 04 05 06 07  08 09 0A 0B 0C 0D 0E 0F
      -- -- -- -- -- -- -- --  -- -- -- -- -- -- -- --
0100:                          59 04 1D 50 0F 01 1F 80          Y..P....
0110: 1F 00 22 80 23 80 24 80  1F 01 6F 00              ..".#.$...o.    
```

#### Opcodes

```
  0: 0x0108 [0x59] UPDATE_ENTITY_DATA: Set Mataligeat (ID: 17780765/0x010F501D) main speed = 11* * 0.1
  1: 0x0110 [0x1F] MOVE_ENTITY: EventEntity moves to X=-62.073*, Z=-89.873*, Y=5.999*
  2: 0x0118 [0x1F] MOVE_ENTITY: Update entity position (mode=1)
  3: 0x011A [0x6F] WAIT_FRAME_DELAY: Yield until WaitTime reaches zero
  4: 0x011B [0x00] END_REQSTACK()
```

### Event 65535.4

#### Metadata

| Field        | Value    |
|--------------|----------|
| Entrypoint   | 0x011C   |
| Data Size    | 17 bytes |
| Instructions | 2        |

```
      00 01 02 03 04 05 06 07  08 09 0A 0B 0C 0D 0E 0F
      -- -- -- -- -- -- -- --  -- -- -- -- -- -- -- --
0110:                                      5B 25 80 1D              [%..
0120: 50 0F 01 1D 50 0F 01 6F  70 30 30 00 00           P...P..op00..   
```

#### Opcodes

```
  0: 0x011C [0x5B] LOAD_EXT_SCHEDULER: Load scheduler "op00" with entities [Mataligeat (ID: 17780765/0x010F501D), Mataligeat (ID: 17780765/0x010F501D)], work=2618*
  1: 0x012B [0x00] END_REQSTACK()
```

#### Data or dead code:

```
# Dead code (unreachable instructions):
     0x012C [0x00] END_REQSTACK()
```

### Event 65535.5

#### Metadata

| Field        | Value    |
|--------------|----------|
| Entrypoint   | 0x012D   |
| Data Size    | 20 bytes |
| Instructions | 5        |

```
      00 01 02 03 04 05 06 07  08 09 0A 0B 0C 0D 0E 0F
      -- -- -- -- -- -- -- --  -- -- -- -- -- -- -- --
0120:                                         59 04 3A               Y.:
0130: 50 0F 01 1F 80 1F 00 20  80 21 80 00 80 1F 01 6F  P...... .!.....o
0140: 00                                                .               
```

#### Opcodes

```
  0: 0x012D [0x59] UPDATE_ENTITY_DATA: Set Navisse (ID: 17780794/0x010F503A) main speed = 11* * 0.1
  1: 0x0135 [0x1F] MOVE_ENTITY: EventEntity moves to X=-95.337*, Z=-156.056*, Y=0.000*
  2: 0x013D [0x1F] MOVE_ENTITY: Update entity position (mode=1)
  3: 0x013F [0x6F] WAIT_FRAME_DELAY: Yield until WaitTime reaches zero
  4: 0x0140 [0x00] END_REQSTACK()
```

### Event 65535.6

#### Metadata

| Field        | Value    |
|--------------|----------|
| Entrypoint   | 0x0141   |
| Data Size    | 20 bytes |
| Instructions | 5        |

```
      00 01 02 03 04 05 06 07  08 09 0A 0B 0C 0D 0E 0F
      -- -- -- -- -- -- -- --  -- -- -- -- -- -- -- --
0140:    59 04 2C 50 0F 01 1C  80 1F 00 26 80 27 80 00   Y.,P......&.'..
0150: 80 1F 01 6F 00                                    ...o.           
```

#### Opcodes

```
  0: 0x0141 [0x59] UPDATE_ENTITY_DATA: Set Jazmin (ID: 17780780/0x010F502C) main speed = 12* * 0.1
  1: 0x0149 [0x1F] MOVE_ENTITY: EventEntity moves to X=-83.944*, Z=-128.625*, Y=0.000*
  2: 0x0151 [0x1F] MOVE_ENTITY: Update entity position (mode=1)
  3: 0x0153 [0x6F] WAIT_FRAME_DELAY: Yield until WaitTime reaches zero
  4: 0x0154 [0x00] END_REQSTACK()
```

### Event 65535.7

#### Metadata

| Field        | Value    |
|--------------|----------|
| Entrypoint   | 0x0155   |
| Data Size    | 19 bytes |
| Instructions | 4        |

```
      00 01 02 03 04 05 06 07  08 09 0A 0B 0C 0D 0E 0F
      -- -- -- -- -- -- -- --  -- -- -- -- -- -- -- --
0150:                59 04 2C  50 0F 01 1F 80 1F 00 28       Y.,P......(
0160: 80 29 80 24 80 1F 01 00                           .).$....        
```

#### Opcodes

```
  0: 0x0155 [0x59] UPDATE_ENTITY_DATA: Set Jazmin (ID: 17780780/0x010F502C) main speed = 11* * 0.1
  1: 0x015D [0x1F] MOVE_ENTITY: EventEntity moves to X=-68.592*, Z=-96.839*, Y=5.999*
  2: 0x0165 [0x1F] MOVE_ENTITY: Update entity position (mode=1)
  3: 0x0167 [0x00] END_REQSTACK()
```

### Event 65535.8

#### Metadata

| Field        | Value    |
|--------------|----------|
| Entrypoint   | 0x0168   |
| Data Size    | 19 bytes |
| Instructions | 4        |

```
      00 01 02 03 04 05 06 07  08 09 0A 0B 0C 0D 0E 0F
      -- -- -- -- -- -- -- --  -- -- -- -- -- -- -- --
0160:                          59 04 2C 50 0F 01 1F 80          Y.,P....
0170: 1F 00 2A 80 2B 80 24 80  1F 01 00                 ..*.+.$....     
```

#### Opcodes

```
  0: 0x0168 [0x59] UPDATE_ENTITY_DATA: Set Jazmin (ID: 17780780/0x010F502C) main speed = 11* * 0.1
  1: 0x0170 [0x1F] MOVE_ENTITY: EventEntity moves to X=-70.511*, Z=-102.750*, Y=5.999*
  2: 0x0178 [0x1F] MOVE_ENTITY: Update entity position (mode=1)
  3: 0x017A [0x00] END_REQSTACK()
```

### Event 65535.9

#### Metadata

| Field        | Value    |
|--------------|----------|
| Entrypoint   | 0x017B   |
| Data Size    | 16 bytes |
| Instructions | 2        |

```
      00 01 02 03 04 05 06 07  08 09 0A 0B 0C 0D 0E 0F
      -- -- -- -- -- -- -- --  -- -- -- -- -- -- -- --
0170:                                   5B 2C 80 2C 50             [,.,P
0180: 0F 01 2C 50 0F 01 6F 70  30 30 00                 ..,P..op00.     
```

#### Opcodes

```
  0: 0x017B [0x5B] LOAD_EXT_SCHEDULER: Load scheduler "op00" with entities [Jazmin (ID: 17780780/0x010F502C), Jazmin (ID: 17780780/0x010F502C)], work=2602*
  1: 0x018A [0x00] END_REQSTACK()
```

### Event 65535.10

#### Metadata

| Field        | Value    |
|--------------|----------|
| Entrypoint   | 0x018B   |
| Data Size    | 16 bytes |
| Instructions | 2        |

```
      00 01 02 03 04 05 06 07  08 09 0A 0B 0C 0D 0E 0F
      -- -- -- -- -- -- -- --  -- -- -- -- -- -- -- --
0180:                                   5B 2C 80 2C 50             [,.,P
0190: 0F 01 2C 50 0F 01 6F 70  30 31 00                 ..,P..op01.     
```

#### Opcodes

```
  0: 0x018B [0x5B] LOAD_EXT_SCHEDULER: Load scheduler "op01" with entities [Jazmin (ID: 17780780/0x010F502C), Jazmin (ID: 17780780/0x010F502C)], work=2602*
  1: 0x019A [0x00] END_REQSTACK()
```

### Event 65535.11

#### Metadata

| Field        | Value    |
|--------------|----------|
| Entrypoint   | 0x019B   |
| Data Size    | 20 bytes |
| Instructions | 5        |

```
      00 01 02 03 04 05 06 07  08 09 0A 0B 0C 0D 0E 0F
      -- -- -- -- -- -- -- --  -- -- -- -- -- -- -- --
0190:                                   59 04 2C 50 0F             Y.,P.
01A0: 01 1F 80 1F 00 2D 80 2E  80 24 80 1F 01 6F 00     .....-...$...o. 
```

#### Opcodes

```
  0: 0x019B [0x59] UPDATE_ENTITY_DATA: Set Jazmin (ID: 17780780/0x010F502C) main speed = 11* * 0.1
  1: 0x01A3 [0x1F] MOVE_ENTITY: EventEntity moves to X=-72.366*, Z=-118.167*, Y=5.999*
  2: 0x01AB [0x1F] MOVE_ENTITY: Update entity position (mode=1)
  3: 0x01AD [0x6F] WAIT_FRAME_DELAY: Yield until WaitTime reaches zero
  4: 0x01AE [0x00] END_REQSTACK()
```

### Event 65535.12

#### Metadata

| Field        | Value    |
|--------------|----------|
| Entrypoint   | 0x01AF   |
| Data Size    | 16 bytes |
| Instructions | 2        |

```
      00 01 02 03 04 05 06 07  08 09 0A 0B 0C 0D 0E 0F
      -- -- -- -- -- -- -- --  -- -- -- -- -- -- -- --
01A0:                                               5B                 [
01B0: 2F 80 2C 50 0F 01 2C 50  0F 01 6F 70 61 30 00     /.,P..,P..opa0. 
```

#### Opcodes

```
  0: 0x01AF [0x5B] LOAD_EXT_SCHEDULER: Load scheduler "opa0" with entities [Jazmin (ID: 17780780/0x010F502C), Jazmin (ID: 17780780/0x010F502C)], work=2617*
  1: 0x01BE [0x00] END_REQSTACK()
```

### Event 65535.13

#### Metadata

| Field        | Value    |
|--------------|----------|
| Entrypoint   | 0x01BF   |
| Data Size    | 16 bytes |
| Instructions | 2        |

```
      00 01 02 03 04 05 06 07  08 09 0A 0B 0C 0D 0E 0F
      -- -- -- -- -- -- -- --  -- -- -- -- -- -- -- --
01B0:                                               5B                 [
01C0: 2F 80 2C 50 0F 01 2C 50  0F 01 6F 70 61 31 00     /.,P..,P..opa1. 
```

#### Opcodes

```
  0: 0x01BF [0x5B] LOAD_EXT_SCHEDULER: Load scheduler "opa1" with entities [Jazmin (ID: 17780780/0x010F502C), Jazmin (ID: 17780780/0x010F502C)], work=2617*
  1: 0x01CE [0x00] END_REQSTACK()
```

### Event 65535.14

#### Metadata

| Field        | Value    |
|--------------|----------|
| Entrypoint   | 0x01CF   |
| Data Size    | 16 bytes |
| Instructions | 2        |

```
      00 01 02 03 04 05 06 07  08 09 0A 0B 0C 0D 0E 0F
      -- -- -- -- -- -- -- --  -- -- -- -- -- -- -- --
01C0:                                               5B                 [
01D0: 2F 80 2C 50 0F 01 2C 50  0F 01 6F 70 61 32 00     /.,P..,P..opa2. 
```

#### Opcodes

```
  0: 0x01CF [0x5B] LOAD_EXT_SCHEDULER: Load scheduler "opa2" with entities [Jazmin (ID: 17780780/0x010F502C), Jazmin (ID: 17780780/0x010F502C)], work=2617*
  1: 0x01DE [0x00] END_REQSTACK()
```

### Event 65535.15

#### Metadata

| Field        | Value    |
|--------------|----------|
| Entrypoint   | 0x01DF   |
| Data Size    | 21 bytes |
| Instructions | 5        |

```
      00 01 02 03 04 05 06 07  08 09 0A 0B 0C 0D 0E 0F
      -- -- -- -- -- -- -- --  -- -- -- -- -- -- -- --
01D0:                                               59                 Y
01E0: 04 2E 50 0F 01 1C 80 1F  00 1D 80 1E 80 00 80 1F  ..P.............
01F0: 01 6F 00 00                                       .o..            
```

#### Opcodes

```
  0: 0x01DF [0x59] UPDATE_ENTITY_DATA: Set Bogharg (ID: 17780782/0x010F502E) main speed = 12* * 0.1
  1: 0x01E7 [0x1F] MOVE_ENTITY: EventEntity moves to X=-76.092*, Z=-136.357*, Y=0.000*
  2: 0x01EF [0x1F] MOVE_ENTITY: Update entity position (mode=1)
  3: 0x01F1 [0x6F] WAIT_FRAME_DELAY: Yield until WaitTime reaches zero
  4: 0x01F2 [0x00] END_REQSTACK()
```

#### Data or dead code:

```
# Dead code (unreachable instructions):
     0x01F3 [0x00] END_REQSTACK()
```

### Event 65535.16

#### Metadata

| Field        | Value    |
|--------------|----------|
| Entrypoint   | 0x01F4   |
| Data Size    | 16 bytes |
| Instructions | 2        |

```
      00 01 02 03 04 05 06 07  08 09 0A 0B 0C 0D 0E 0F
      -- -- -- -- -- -- -- --  -- -- -- -- -- -- -- --
01F0:             66 30 80 2E  50 0F 01 2E 50 0F 01 74      f0..P...P..t
0200: 68 6B 31 00                                       hk1.            
```

#### Opcodes

```
  0: 0x01F4 [0x66] LOAD_EXT_SCHEDULER_MAIN: Load scheduler "thk1" with entities [Bogharg (ID: 17780782/0x010F502E), Bogharg (ID: 17780782/0x010F502E)], work=69*
  1: 0x0203 [0x00] END_REQSTACK()
```

### Event 65535.17

#### Metadata

| Field        | Value    |
|--------------|----------|
| Entrypoint   | 0x0204   |
| Data Size    | 16 bytes |
| Instructions | 2        |

```
      00 01 02 03 04 05 06 07  08 09 0A 0B 0C 0D 0E 0F
      -- -- -- -- -- -- -- --  -- -- -- -- -- -- -- --
0200:             66 30 80 2E  50 0F 01 2E 50 0F 01 74      f0..P...P..t
0210: 68 6B 32 00                                       hk2.            
```

#### Opcodes

```
  0: 0x0204 [0x66] LOAD_EXT_SCHEDULER_MAIN: Load scheduler "thk2" with entities [Bogharg (ID: 17780782/0x010F502E), Bogharg (ID: 17780782/0x010F502E)], work=69*
  1: 0x0213 [0x00] END_REQSTACK()
```

### Event 65535.18

#### Metadata

| Field        | Value    |
|--------------|----------|
| Entrypoint   | 0x0214   |
| Data Size    | 20 bytes |
| Instructions | 5        |

```
      00 01 02 03 04 05 06 07  08 09 0A 0B 0C 0D 0E 0F
      -- -- -- -- -- -- -- --  -- -- -- -- -- -- -- --
0210:             59 04 2E 50  0F 01 1C 80 1F 00 31 80      Y..P......1.
0220: 32 80 24 80 1F 01 6F 00                           2.$...o.        
```

#### Opcodes

```
  0: 0x0214 [0x59] UPDATE_ENTITY_DATA: Set Bogharg (ID: 17780782/0x010F502E) main speed = 12* * 0.1
  1: 0x021C [0x1F] MOVE_ENTITY: EventEntity moves to X=-56.992*, Z=-88.050*, Y=5.999*
  2: 0x0224 [0x1F] MOVE_ENTITY: Update entity position (mode=1)
  3: 0x0226 [0x6F] WAIT_FRAME_DELAY: Yield until WaitTime reaches zero
  4: 0x0227 [0x00] END_REQSTACK()
```

### Event 65535.19

#### Metadata

| Field        | Value    |
|--------------|----------|
| Entrypoint   | 0x0228   |
| Data Size    | 17 bytes |
| Instructions | 2        |

```
      00 01 02 03 04 05 06 07  08 09 0A 0B 0C 0D 0E 0F
      -- -- -- -- -- -- -- --  -- -- -- -- -- -- -- --
0220:                          5B 33 80 2E 50 0F 01 2E          [3..P...
0230: 50 0F 01 6F 70 30 30 00  00                       P..op00..       
```

#### Opcodes

```
  0: 0x0228 [0x5B] LOAD_EXT_SCHEDULER: Load scheduler "op00" with entities [Bogharg (ID: 17780782/0x010F502E), Bogharg (ID: 17780782/0x010F502E)], work=2621*
  1: 0x0237 [0x00] END_REQSTACK()
```

#### Data or dead code:

```
# Dead code (unreachable instructions):
     0x0238 [0x00] END_REQSTACK()
```

### Event 65535.20

#### Metadata

| Field        | Value    |
|--------------|----------|
| Entrypoint   | 0x0239   |
| Data Size    | 20 bytes |
| Instructions | 5        |

```
      00 01 02 03 04 05 06 07  08 09 0A 0B 0C 0D 0E 0F
      -- -- -- -- -- -- -- --  -- -- -- -- -- -- -- --
0230:                             59 04 31 50 0F 01 1F           Y.1P...
0240: 80 1F 00 26 80 27 80 00  80 1F 01 6F 00           ...&.'.....o.   
```

#### Opcodes

```
  0: 0x0239 [0x59] UPDATE_ENTITY_DATA: Set Nakho Jawantal (ID: 17780785/0x010F5031) main speed = 11* * 0.1
  1: 0x0241 [0x1F] MOVE_ENTITY: EventEntity moves to X=-83.944*, Z=-128.625*, Y=0.000*
  2: 0x0249 [0x1F] MOVE_ENTITY: Update entity position (mode=1)
  3: 0x024B [0x6F] WAIT_FRAME_DELAY: Yield until WaitTime reaches zero
  4: 0x024C [0x00] END_REQSTACK()
```

### Event 65535.21

#### Metadata

| Field        | Value    |
|--------------|----------|
| Entrypoint   | 0x024D   |
| Data Size    | 16 bytes |
| Instructions | 2        |

```
      00 01 02 03 04 05 06 07  08 09 0A 0B 0C 0D 0E 0F
      -- -- -- -- -- -- -- --  -- -- -- -- -- -- -- --
0240:                                         5B 34 80               [4.
0250: 12 50 0F 01 12 50 0F 01  6F 70 61 30 00           .P...P..opa0.   
```

#### Opcodes

```
  0: 0x024D [0x5B] LOAD_EXT_SCHEDULER: Load scheduler "opa0" with entities [Tovrutaux (ID: 17780754/0x010F5012), Tovrutaux (ID: 17780754/0x010F5012)], work=2627*
  1: 0x025C [0x00] END_REQSTACK()
```

### Event 65535.22

#### Metadata

| Field        | Value    |
|--------------|----------|
| Entrypoint   | 0x025D   |
| Data Size    | 16 bytes |
| Instructions | 2        |

```
      00 01 02 03 04 05 06 07  08 09 0A 0B 0C 0D 0E 0F
      -- -- -- -- -- -- -- --  -- -- -- -- -- -- -- --
0250:                                         5B 34 80               [4.
0260: 12 50 0F 01 12 50 0F 01  6F 70 61 31 00           .P...P..opa1.   
```

#### Opcodes

```
  0: 0x025D [0x5B] LOAD_EXT_SCHEDULER: Load scheduler "opa1" with entities [Tovrutaux (ID: 17780754/0x010F5012), Tovrutaux (ID: 17780754/0x010F5012)], work=2627*
  1: 0x026C [0x00] END_REQSTACK()
```

### Event 65535.23

#### Metadata

| Field        | Value    |
|--------------|----------|
| Entrypoint   | 0x026D   |
| Data Size    | 16 bytes |
| Instructions | 2        |

```
      00 01 02 03 04 05 06 07  08 09 0A 0B 0C 0D 0E 0F
      -- -- -- -- -- -- -- --  -- -- -- -- -- -- -- --
0260:                                         5B 34 80               [4.
0270: 12 50 0F 01 12 50 0F 01  6F 70 61 32 00           .P...P..opa2.   
```

#### Opcodes

```
  0: 0x026D [0x5B] LOAD_EXT_SCHEDULER: Load scheduler "opa2" with entities [Tovrutaux (ID: 17780754/0x010F5012), Tovrutaux (ID: 17780754/0x010F5012)], work=2627*
  1: 0x027C [0x00] END_REQSTACK()
```

### Event 65535.24

#### Metadata

| Field        | Value    |
|--------------|----------|
| Entrypoint   | 0x027D   |
| Data Size    | 16 bytes |
| Instructions | 2        |

```
      00 01 02 03 04 05 06 07  08 09 0A 0B 0C 0D 0E 0F
      -- -- -- -- -- -- -- --  -- -- -- -- -- -- -- --
0270:                                         5B 35 80               [5.
0280: 12 50 0F 01 12 50 0F 01  74 68 6B 31 00           .P...P..thk1.   
```

#### Opcodes

```
  0: 0x027D [0x5B] LOAD_EXT_SCHEDULER: Load scheduler "thk1" with entities [Tovrutaux (ID: 17780754/0x010F5012), Tovrutaux (ID: 17780754/0x010F5012)], work=75*
  1: 0x028C [0x00] END_REQSTACK()
```

### Event 65535.25

#### Metadata

| Field        | Value    |
|--------------|----------|
| Entrypoint   | 0x028D   |
| Data Size    | 16 bytes |
| Instructions | 2        |

```
      00 01 02 03 04 05 06 07  08 09 0A 0B 0C 0D 0E 0F
      -- -- -- -- -- -- -- --  -- -- -- -- -- -- -- --
0280:                                         5B 35 80               [5.
0290: 12 50 0F 01 12 50 0F 01  74 68 6B 32 00           .P...P..thk2.   
```

#### Opcodes

```
  0: 0x028D [0x5B] LOAD_EXT_SCHEDULER: Load scheduler "thk2" with entities [Tovrutaux (ID: 17780754/0x010F5012), Tovrutaux (ID: 17780754/0x010F5012)], work=75*
  1: 0x029C [0x00] END_REQSTACK()
```

### Event 65535.26

#### Metadata

| Field        | Value    |
|--------------|----------|
| Entrypoint   | 0x029D   |
| Data Size    | 16 bytes |
| Instructions | 2        |

```
      00 01 02 03 04 05 06 07  08 09 0A 0B 0C 0D 0E 0F
      -- -- -- -- -- -- -- --  -- -- -- -- -- -- -- --
0290:                                         5B 35 80               [5.
02A0: 12 50 0F 01 12 50 0F 01  74 6C 6B 30 00           .P...P..tlk0.   
```

#### Opcodes

```
  0: 0x029D [0x5B] LOAD_EXT_SCHEDULER: Load scheduler "tlk0" with entities [Tovrutaux (ID: 17780754/0x010F5012), Tovrutaux (ID: 17780754/0x010F5012)], work=75*
  1: 0x02AC [0x00] END_REQSTACK()
```

### Event 65535.27

#### Metadata

| Field        | Value    |
|--------------|----------|
| Entrypoint   | 0x02AD   |
| Data Size    | 16 bytes |
| Instructions | 2        |

```
      00 01 02 03 04 05 06 07  08 09 0A 0B 0C 0D 0E 0F
      -- -- -- -- -- -- -- --  -- -- -- -- -- -- -- --
02A0:                                         5B 35 80               [5.
02B0: 12 50 0F 01 12 50 0F 01  74 6C 6B 31 00           .P...P..tlk1.   
```

#### Opcodes

```
  0: 0x02AD [0x5B] LOAD_EXT_SCHEDULER: Load scheduler "tlk1" with entities [Tovrutaux (ID: 17780754/0x010F5012), Tovrutaux (ID: 17780754/0x010F5012)], work=75*
  1: 0x02BC [0x00] END_REQSTACK()
```

### Event 65535.28

#### Metadata

| Field        | Value    |
|--------------|----------|
| Entrypoint   | 0x02BD   |
| Data Size    | 12 bytes |
| Instructions | 4        |

```
      00 01 02 03 04 05 06 07  08 09 0A 0B 0C 0D 0E 0F
      -- -- -- -- -- -- -- --  -- -- -- -- -- -- -- --
02B0:                                         1F 00 36               ..6
02C0: 80 37 80 00 80 1F 01 6F  00                       .7.....o.       
```

#### Opcodes

```
  0: 0x02BD [0x1F] MOVE_ENTITY: EventEntity moves to X=-19.954*, Z=-20.950*, Y=0.000*
  1: 0x02C5 [0x1F] MOVE_ENTITY: Update entity position (mode=1)
  2: 0x02C7 [0x6F] WAIT_FRAME_DELAY: Yield until WaitTime reaches zero
  3: 0x02C8 [0x00] END_REQSTACK()
```

### Event 65535.29

#### Metadata

| Field        | Value    |
|--------------|----------|
| Entrypoint   | 0x02C9   |
| Data Size    | 20 bytes |
| Instructions | 5        |

```
      00 01 02 03 04 05 06 07  08 09 0A 0B 0C 0D 0E 0F
      -- -- -- -- -- -- -- --  -- -- -- -- -- -- -- --
02C0:                             59 04 13 50 0F 01 1F           Y..P...
02D0: 80 1F 00 38 80 39 80 24  80 1F 01 6F 00           ...8.9.$...o.   
```

#### Opcodes

```
  0: 0x02C9 [0x59] UPDATE_ENTITY_DATA: Set Seyaya (ID: 17780755/0x010F5013) main speed = 11* * 0.1
  1: 0x02D1 [0x1F] MOVE_ENTITY: EventEntity moves to X=-74.699*, Z=-107.115*, Y=5.999*
  2: 0x02D9 [0x1F] MOVE_ENTITY: Update entity position (mode=1)
  3: 0x02DB [0x6F] WAIT_FRAME_DELAY: Yield until WaitTime reaches zero
  4: 0x02DC [0x00] END_REQSTACK()
```

### Event 65535.30

#### Metadata

| Field        | Value    |
|--------------|----------|
| Entrypoint   | 0x02DD   |
| Data Size    | 17 bytes |
| Instructions | 2        |

```
      00 01 02 03 04 05 06 07  08 09 0A 0B 0C 0D 0E 0F
      -- -- -- -- -- -- -- --  -- -- -- -- -- -- -- --
02D0:                                         5B 3A 80               [:.
02E0: 13 50 0F 01 13 50 0F 01  6F 70 61 30 00 00        .P...P..opa0..  
```

#### Opcodes

```
  0: 0x02DD [0x5B] LOAD_EXT_SCHEDULER: Load scheduler "opa0" with entities [Seyaya (ID: 17780755/0x010F5013), Seyaya (ID: 17780755/0x010F5013)], work=2631*
  1: 0x02EC [0x00] END_REQSTACK()
```

#### Data or dead code:

```
# Dead code (unreachable instructions):
     0x02ED [0x00] END_REQSTACK()
```

### Event 65535.31

#### Metadata

| Field        | Value    |
|--------------|----------|
| Entrypoint   | 0x02EE   |
| Data Size    | 17 bytes |
| Instructions | 2        |

```
      00 01 02 03 04 05 06 07  08 09 0A 0B 0C 0D 0E 0F
      -- -- -- -- -- -- -- --  -- -- -- -- -- -- -- --
02E0:                                            5B 3A                [:
02F0: 80 13 50 0F 01 13 50 0F  01 6F 70 61 31 00 00     ..P...P..opa1.. 
```

#### Opcodes

```
  0: 0x02EE [0x5B] LOAD_EXT_SCHEDULER: Load scheduler "opa1" with entities [Seyaya (ID: 17780755/0x010F5013), Seyaya (ID: 17780755/0x010F5013)], work=2631*
  1: 0x02FD [0x00] END_REQSTACK()
```

#### Data or dead code:

```
# Dead code (unreachable instructions):
     0x02FE [0x00] END_REQSTACK()
```

### Event 65535.32

#### Metadata

| Field        | Value    |
|--------------|----------|
| Entrypoint   | 0x02FF   |
| Data Size    | 16 bytes |
| Instructions | 2        |

```
      00 01 02 03 04 05 06 07  08 09 0A 0B 0C 0D 0E 0F
      -- -- -- -- -- -- -- --  -- -- -- -- -- -- -- --
02F0:                                               5B                 [
0300: 3A 80 13 50 0F 01 13 50  0F 01 6F 70 61 32 00     :..P...P..opa2. 
```

#### Opcodes

```
  0: 0x02FF [0x5B] LOAD_EXT_SCHEDULER: Load scheduler "opa2" with entities [Seyaya (ID: 17780755/0x010F5013), Seyaya (ID: 17780755/0x010F5013)], work=2631*
  1: 0x030E [0x00] END_REQSTACK()
```

### Event 65535.33

#### Metadata

| Field        | Value    |
|--------------|----------|
| Entrypoint   | 0x030F   |
| Data Size    | 16 bytes |
| Instructions | 2        |

```
      00 01 02 03 04 05 06 07  08 09 0A 0B 0C 0D 0E 0F
      -- -- -- -- -- -- -- --  -- -- -- -- -- -- -- --
0300:                                               5B                 [
0310: 3B 80 13 50 0F 01 13 50  0F 01 74 68 6B 31 00     ;..P...P..thk1. 
```

#### Opcodes

```
  0: 0x030F [0x5B] LOAD_EXT_SCHEDULER: Load scheduler "thk1" with entities [Seyaya (ID: 17780755/0x010F5013), Seyaya (ID: 17780755/0x010F5013)], work=85*
  1: 0x031E [0x00] END_REQSTACK()
```

### Event 65535.34

#### Metadata

| Field        | Value    |
|--------------|----------|
| Entrypoint   | 0x031F   |
| Data Size    | 16 bytes |
| Instructions | 2        |

```
      00 01 02 03 04 05 06 07  08 09 0A 0B 0C 0D 0E 0F
      -- -- -- -- -- -- -- --  -- -- -- -- -- -- -- --
0310:                                               5B                 [
0320: 3B 80 13 50 0F 01 13 50  0F 01 74 68 6B 32 00     ;..P...P..thk2. 
```

#### Opcodes

```
  0: 0x031F [0x5B] LOAD_EXT_SCHEDULER: Load scheduler "thk2" with entities [Seyaya (ID: 17780755/0x010F5013), Seyaya (ID: 17780755/0x010F5013)], work=85*
  1: 0x032E [0x00] END_REQSTACK()
```

### Event 65535.35

#### Metadata

| Field        | Value    |
|--------------|----------|
| Entrypoint   | 0x032F   |
| Data Size    | 16 bytes |
| Instructions | 2        |

```
      00 01 02 03 04 05 06 07  08 09 0A 0B 0C 0D 0E 0F
      -- -- -- -- -- -- -- --  -- -- -- -- -- -- -- --
0320:                                               5B                 [
0330: 3B 80 13 50 0F 01 13 50  0F 01 74 6C 6B 30 00     ;..P...P..tlk0. 
```

#### Opcodes

```
  0: 0x032F [0x5B] LOAD_EXT_SCHEDULER: Load scheduler "tlk0" with entities [Seyaya (ID: 17780755/0x010F5013), Seyaya (ID: 17780755/0x010F5013)], work=85*
  1: 0x033E [0x00] END_REQSTACK()
```

### Event 65535.36

#### Metadata

| Field        | Value    |
|--------------|----------|
| Entrypoint   | 0x033F   |
| Data Size    | 16 bytes |
| Instructions | 2        |

```
      00 01 02 03 04 05 06 07  08 09 0A 0B 0C 0D 0E 0F
      -- -- -- -- -- -- -- --  -- -- -- -- -- -- -- --
0330:                                               5B                 [
0340: 3B 80 13 50 0F 01 13 50  0F 01 74 6C 6B 65 00     ;..P...P..tlke. 
```

#### Opcodes

```
  0: 0x033F [0x5B] LOAD_EXT_SCHEDULER: Load scheduler "tlke" with entities [Seyaya (ID: 17780755/0x010F5013), Seyaya (ID: 17780755/0x010F5013)], work=85*
  1: 0x034E [0x00] END_REQSTACK()
```

### Event 65535.37

#### Metadata

| Field        | Value    |
|--------------|----------|
| Entrypoint   | 0x034F   |
| Data Size    | 16 bytes |
| Instructions | 2        |

```
      00 01 02 03 04 05 06 07  08 09 0A 0B 0C 0D 0E 0F
      -- -- -- -- -- -- -- --  -- -- -- -- -- -- -- --
0340:                                               5B                 [
0350: 3B 80 13 50 0F 01 13 50  0F 01 62 61 6E 30 00     ;..P...P..ban0. 
```

#### Opcodes

```
  0: 0x034F [0x5B] LOAD_EXT_SCHEDULER: Load scheduler "ban0" with entities [Seyaya (ID: 17780755/0x010F5013), Seyaya (ID: 17780755/0x010F5013)], work=85*
  1: 0x035E [0x00] END_REQSTACK()
```

### Event 65535.38

#### Metadata

| Field        | Value    |
|--------------|----------|
| Entrypoint   | 0x035F   |
| Data Size    | 13 bytes |
| Instructions | 4        |

```
      00 01 02 03 04 05 06 07  08 09 0A 0B 0C 0D 0E 0F
      -- -- -- -- -- -- -- --  -- -- -- -- -- -- -- --
0350:                                               1F                 .
0360: 00 3C 80 3D 80 00 80 1F  01 6F 00 00              .<.=.....o..    
```

#### Opcodes

```
  0: 0x035F [0x1F] MOVE_ENTITY: EventEntity moves to X=-19.857*, Z=-21.712*, Y=0.000*
  1: 0x0367 [0x1F] MOVE_ENTITY: Update entity position (mode=1)
  2: 0x0369 [0x6F] WAIT_FRAME_DELAY: Yield until WaitTime reaches zero
  3: 0x036A [0x00] END_REQSTACK()
```

#### Data or dead code:

```
# Dead code (unreachable instructions):
     0x036B [0x00] END_REQSTACK()
```

### Event 65535.39

#### Metadata

| Field        | Value    |
|--------------|----------|
| Entrypoint   | 0x036C   |
| Data Size    | 20 bytes |
| Instructions | 5        |

```
      00 01 02 03 04 05 06 07  08 09 0A 0B 0C 0D 0E 0F
      -- -- -- -- -- -- -- --  -- -- -- -- -- -- -- --
0360:                                      59 04 C0 50              Y..P
0370: 0F 01 3E 80 1F 00 3F 80  40 80 00 80 1F 01 6F 00  ..>...?.@.....o.
```

#### Opcodes

```
  0: 0x036C [0x59] UPDATE_ENTITY_DATA: Set Rakuru-Rakoru (ID: 17780928/0x010F50C0) main speed = 14* * 0.1
  1: 0x0374 [0x1F] MOVE_ENTITY: EventEntity moves to X=-37.763*, Z=-62.812*, Y=0.000*
  2: 0x037C [0x1F] MOVE_ENTITY: Update entity position (mode=1)
  3: 0x037E [0x6F] WAIT_FRAME_DELAY: Yield until WaitTime reaches zero
  4: 0x037F [0x00] END_REQSTACK()
```

### Event 65535.40

#### Metadata

| Field        | Value    |
|--------------|----------|
| Entrypoint   | 0x0380   |
| Data Size    | 12 bytes |
| Instructions | 4        |

```
      00 01 02 03 04 05 06 07  08 09 0A 0B 0C 0D 0E 0F
      -- -- -- -- -- -- -- --  -- -- -- -- -- -- -- --
0380: 1F 00 41 80 42 80 43 80  1F 01 6F 00              ..A.B.C...o.    
```

#### Opcodes

```
  0: 0x0380 [0x1F] MOVE_ENTITY: EventEntity moves to X=-13.366*, Z=2.528*, Y=-0.449*
  1: 0x0388 [0x1F] MOVE_ENTITY: Update entity position (mode=1)
  2: 0x038A [0x6F] WAIT_FRAME_DELAY: Yield until WaitTime reaches zero
  3: 0x038B [0x00] END_REQSTACK()
```

### Event 65535.41

#### Metadata

| Field        | Value    |
|--------------|----------|
| Entrypoint   | 0x038C   |
| Data Size    | 16 bytes |
| Instructions | 2        |

```
      00 01 02 03 04 05 06 07  08 09 0A 0B 0C 0D 0E 0F
      -- -- -- -- -- -- -- --  -- -- -- -- -- -- -- --
0380:                                      66 44 80 C0              fD..
0390: 50 0F 01 C0 50 0F 01 74  6C 6B 30 00              P...P..tlk0.    
```

#### Opcodes

```
  0: 0x038C [0x66] LOAD_EXT_SCHEDULER_MAIN: Load scheduler "tlk0" with entities [Rakuru-Rakoru (ID: 17780928/0x010F50C0), Rakuru-Rakoru (ID: 17780928/0x010F50C0)], work=40*
  1: 0x039B [0x00] END_REQSTACK()
```

### Event 65535.42

#### Metadata

| Field        | Value    |
|--------------|----------|
| Entrypoint   | 0x039C   |
| Data Size    | 16 bytes |
| Instructions | 2        |

```
      00 01 02 03 04 05 06 07  08 09 0A 0B 0C 0D 0E 0F
      -- -- -- -- -- -- -- --  -- -- -- -- -- -- -- --
0390:                                      66 45 80 C0              fE..
03A0: 50 0F 01 C0 50 0F 01 65  68 6E 31 00              P...P..ehn1.    
```

#### Opcodes

```
  0: 0x039C [0x66] LOAD_EXT_SCHEDULER_MAIN: Load scheduler "ehn1" with entities [Rakuru-Rakoru (ID: 17780928/0x010F50C0), Rakuru-Rakoru (ID: 17780928/0x010F50C0)], work=41*
  1: 0x03AB [0x00] END_REQSTACK()
```

### Event 65535.43

#### Metadata

| Field        | Value    |
|--------------|----------|
| Entrypoint   | 0x03AC   |
| Data Size    | 16 bytes |
| Instructions | 2        |

```
      00 01 02 03 04 05 06 07  08 09 0A 0B 0C 0D 0E 0F
      -- -- -- -- -- -- -- --  -- -- -- -- -- -- -- --
03A0:                                      66 44 80 C0              fD..
03B0: 50 0F 01 C0 50 0F 01 6D  6F 6A 30 00              P...P..moj0.    
```

#### Opcodes

```
  0: 0x03AC [0x66] LOAD_EXT_SCHEDULER_MAIN: Load scheduler "moj0" with entities [Rakuru-Rakoru (ID: 17780928/0x010F50C0), Rakuru-Rakoru (ID: 17780928/0x010F50C0)], work=40*
  1: 0x03BB [0x00] END_REQSTACK()
```

### Event 65535.44

#### Metadata

| Field        | Value    |
|--------------|----------|
| Entrypoint   | 0x03BC   |
| Data Size    | 20 bytes |
| Instructions | 5        |

```
      00 01 02 03 04 05 06 07  08 09 0A 0B 0C 0D 0E 0F
      -- -- -- -- -- -- -- --  -- -- -- -- -- -- -- --
03B0:                                      59 04 C0 50              Y..P
03C0: 0F 01 3E 80 1F 00 46 80  47 80 24 80 1F 01 6F 00  ..>...F.G.$...o.
```

#### Opcodes

```
  0: 0x03BC [0x59] UPDATE_ENTITY_DATA: Set Rakuru-Rakoru (ID: 17780928/0x010F50C0) main speed = 14* * 0.1
  1: 0x03C4 [0x1F] MOVE_ENTITY: EventEntity moves to X=-71.130*, Z=-110.791*, Y=5.999*
  2: 0x03CC [0x1F] MOVE_ENTITY: Update entity position (mode=1)
  3: 0x03CE [0x6F] WAIT_FRAME_DELAY: Yield until WaitTime reaches zero
  4: 0x03CF [0x00] END_REQSTACK()
```

### Event 65535.45

#### Metadata

| Field        | Value    |
|--------------|----------|
| Entrypoint   | 0x03D0   |
| Data Size    | 29 bytes |
| Instructions | 6        |

```
      00 01 02 03 04 05 06 07  08 09 0A 0B 0C 0D 0E 0F
      -- -- -- -- -- -- -- --  -- -- -- -- -- -- -- --
03D0: 59 04 C0 50 0F 01 3E 80  1F 00 48 80 49 80 24 80  Y..P..>...H.I.$.
03E0: 1F 01 5A 00 4A 80 4B 80  4C 80 5A 01 00           ..Z.J.K.L.Z..   
```

#### Opcodes

```
  0: 0x03D0 [0x59] UPDATE_ENTITY_DATA: Set Rakuru-Rakoru (ID: 17780928/0x010F50C0) main speed = 14* * 0.1
  1: 0x03D8 [0x1F] MOVE_ENTITY: EventEntity moves to X=-75.540*, Z=-116.545*, Y=5.999*
  2: 0x03E0 [0x1F] MOVE_ENTITY: Update entity position (mode=1)
  3: 0x03E2 [0x5A] UPDATE_EVENT_POSITION: Set EventEntity MovePosition to X=-80.452*, Z=-125.376*, Y=0.999*
  4: 0x03EA [0x5A] UPDATE_EVENT_POSITION: Move EventEntity incrementally towards MovePosition
  5: 0x03EC [0x00] END_REQSTACK()
```

### Event 65535.46

#### Metadata

| Field        | Value    |
|--------------|----------|
| Entrypoint   | 0x03ED   |
| Data Size    | 17 bytes |
| Instructions | 2        |

```
      00 01 02 03 04 05 06 07  08 09 0A 0B 0C 0D 0E 0F
      -- -- -- -- -- -- -- --  -- -- -- -- -- -- -- --
03E0:                                         5B 4D 80               [M.
03F0: C0 50 0F 01 C0 50 0F 01  62 6F 70 30 00 00        .P...P..bop0..  
```

#### Opcodes

```
  0: 0x03ED [0x5B] LOAD_EXT_SCHEDULER: Load scheduler "bop0" with entities [Rakuru-Rakoru (ID: 17780928/0x010F50C0), Rakuru-Rakoru (ID: 17780928/0x010F50C0)], work=2611*
  1: 0x03FC [0x00] END_REQSTACK()
```

#### Data or dead code:

```
# Dead code (unreachable instructions):
     0x03FD [0x00] END_REQSTACK()
```

### Event 65535.47

#### Metadata

| Field        | Value    |
|--------------|----------|
| Entrypoint   | 0x03FE   |
| Data Size    | 20 bytes |
| Instructions | 5        |

```
      00 01 02 03 04 05 06 07  08 09 0A 0B 0C 0D 0E 0F
      -- -- -- -- -- -- -- --  -- -- -- -- -- -- -- --
03F0:                                            59 04                Y.
0400: 25 50 0F 01 4E 80 1F 00  26 80 27 80 00 80 1F 01  %P..N...&.'.....
0410: 6F 00                                             o.              
```

#### Opcodes

```
  0: 0x03FE [0x59] UPDATE_ENTITY_DATA: Set Sutarara (ID: 17780773/0x010F5025) main speed = 13* * 0.1
  1: 0x0406 [0x1F] MOVE_ENTITY: EventEntity moves to X=-83.944*, Z=-128.625*, Y=0.000*
  2: 0x040E [0x1F] MOVE_ENTITY: Update entity position (mode=1)
  3: 0x0410 [0x6F] WAIT_FRAME_DELAY: Yield until WaitTime reaches zero
  4: 0x0411 [0x00] END_REQSTACK()
```

### Event 65535.48

#### Metadata

| Field        | Value    |
|--------------|----------|
| Entrypoint   | 0x0412   |
| Data Size    | 20 bytes |
| Instructions | 5        |

```
      00 01 02 03 04 05 06 07  08 09 0A 0B 0C 0D 0E 0F
      -- -- -- -- -- -- -- --  -- -- -- -- -- -- -- --
0410:       59 04 25 50 0F 01  4E 80 1F 00 4F 80 50 80    Y.%P..N...O.P.
0420: 24 80 1F 01 6F 00                                 $...o.          
```

#### Opcodes

```
  0: 0x0412 [0x59] UPDATE_ENTITY_DATA: Set Sutarara (ID: 17780773/0x010F5025) main speed = 13* * 0.1
  1: 0x041A [0x1F] MOVE_ENTITY: EventEntity moves to X=-64.287*, Z=-102.136*, Y=5.999*
  2: 0x0422 [0x1F] MOVE_ENTITY: Update entity position (mode=1)
  3: 0x0424 [0x6F] WAIT_FRAME_DELAY: Yield until WaitTime reaches zero
  4: 0x0425 [0x00] END_REQSTACK()
```

### Event 65535.49

#### Metadata

| Field        | Value    |
|--------------|----------|
| Entrypoint   | 0x0426   |
| Data Size    | 20 bytes |
| Instructions | 5        |

```
      00 01 02 03 04 05 06 07  08 09 0A 0B 0C 0D 0E 0F
      -- -- -- -- -- -- -- --  -- -- -- -- -- -- -- --
0420:                   59 04  25 50 0F 01 4E 80 1F 00        Y.%P..N...
0430: 51 80 52 80 00 80 1F 01  6F 00                    Q.R.....o.      
```

#### Opcodes

```
  0: 0x0426 [0x59] UPDATE_ENTITY_DATA: Set Sutarara (ID: 17780773/0x010F5025) main speed = 13* * 0.1
  1: 0x042E [0x1F] MOVE_ENTITY: EventEntity moves to X=4.236*, Z=4.336*, Y=0.000*
  2: 0x0436 [0x1F] MOVE_ENTITY: Update entity position (mode=1)
  3: 0x0438 [0x6F] WAIT_FRAME_DELAY: Yield until WaitTime reaches zero
  4: 0x0439 [0x00] END_REQSTACK()
```

### Event 65535.50

#### Metadata

| Field        | Value    |
|--------------|----------|
| Entrypoint   | 0x043A   |
| Data Size    | 20 bytes |
| Instructions | 5        |

```
      00 01 02 03 04 05 06 07  08 09 0A 0B 0C 0D 0E 0F
      -- -- -- -- -- -- -- --  -- -- -- -- -- -- -- --
0430:                                59 04 34 50 0F 01            Y.4P..
0440: 1C 80 1F 00 53 80 54 80  55 80 1F 01 6F 00        ....S.T.U...o.  
```

#### Opcodes

```
  0: 0x043A [0x59] UPDATE_ENTITY_DATA: Set Venika (ID: 17780788/0x010F5034) main speed = 12* * 0.1
  1: 0x0442 [0x1F] MOVE_ENTITY: EventEntity moves to X=-15.376*, Z=-23.775*, Y=-0.101*
  2: 0x044A [0x1F] MOVE_ENTITY: Update entity position (mode=1)
  3: 0x044C [0x6F] WAIT_FRAME_DELAY: Yield until WaitTime reaches zero
  4: 0x044D [0x00] END_REQSTACK()
```

### Event 65535.51

#### Metadata

| Field        | Value    |
|--------------|----------|
| Entrypoint   | 0x044E   |
| Data Size    | 20 bytes |
| Instructions | 5        |

```
      00 01 02 03 04 05 06 07  08 09 0A 0B 0C 0D 0E 0F
      -- -- -- -- -- -- -- --  -- -- -- -- -- -- -- --
0440:                                            59 04                Y.
0450: 34 50 0F 01 56 80 1F 00  4F 80 50 80 24 80 1F 01  4P..V...O.P.$...
0460: 6F 00                                             o.              
```

#### Opcodes

```
  0: 0x044E [0x59] UPDATE_ENTITY_DATA: Set Venika (ID: 17780788/0x010F5034) main speed = 10* * 0.1
  1: 0x0456 [0x1F] MOVE_ENTITY: EventEntity moves to X=-64.287*, Z=-102.136*, Y=5.999*
  2: 0x045E [0x1F] MOVE_ENTITY: Update entity position (mode=1)
  3: 0x0460 [0x6F] WAIT_FRAME_DELAY: Yield until WaitTime reaches zero
  4: 0x0461 [0x00] END_REQSTACK()
```

### Event 65535.52

#### Metadata

| Field        | Value    |
|--------------|----------|
| Entrypoint   | 0x0462   |
| Data Size    | 16 bytes |
| Instructions | 2        |

```
      00 01 02 03 04 05 06 07  08 09 0A 0B 0C 0D 0E 0F
      -- -- -- -- -- -- -- --  -- -- -- -- -- -- -- --
0460:       5B 57 80 34 50 0F  01 34 50 0F 01 6F 70 62    [W.4P..4P..opb
0470: 30 00                                             0.              
```

#### Opcodes

```
  0: 0x0462 [0x5B] LOAD_EXT_SCHEDULER: Load scheduler "opb0" with entities [Venika (ID: 17780788/0x010F5034), Venika (ID: 17780788/0x010F5034)], work=2584*
  1: 0x0471 [0x00] END_REQSTACK()
```

### Event 65535.53

#### Metadata

| Field        | Value    |
|--------------|----------|
| Entrypoint   | 0x0472   |
| Data Size    | 16 bytes |
| Instructions | 2        |

```
      00 01 02 03 04 05 06 07  08 09 0A 0B 0C 0D 0E 0F
      -- -- -- -- -- -- -- --  -- -- -- -- -- -- -- --
0470:       5B 57 80 34 50 0F  01 34 50 0F 01 6F 70 62    [W.4P..4P..opb
0480: 31 00                                             1.              
```

#### Opcodes

```
  0: 0x0472 [0x5B] LOAD_EXT_SCHEDULER: Load scheduler "opb1" with entities [Venika (ID: 17780788/0x010F5034), Venika (ID: 17780788/0x010F5034)], work=2584*
  1: 0x0481 [0x00] END_REQSTACK()
```

### Event 65535.54

#### Metadata

| Field        | Value    |
|--------------|----------|
| Entrypoint   | 0x0482   |
| Data Size    | 20 bytes |
| Instructions | 5        |

```
      00 01 02 03 04 05 06 07  08 09 0A 0B 0C 0D 0E 0F
      -- -- -- -- -- -- -- --  -- -- -- -- -- -- -- --
0480:       59 04 34 50 0F 01  1C 80 1F 00 58 80 59 80    Y.4P......X.Y.
0490: 00 80 1F 01 6F 00                                 ....o.          
```

#### Opcodes

```
  0: 0x0482 [0x59] UPDATE_ENTITY_DATA: Set Venika (ID: 17780788/0x010F5034) main speed = 12* * 0.1
  1: 0x048A [0x1F] MOVE_ENTITY: EventEntity moves to X=-0.991*, Z=2.123*, Y=0.000*
  2: 0x0492 [0x1F] MOVE_ENTITY: Update entity position (mode=1)
  3: 0x0494 [0x6F] WAIT_FRAME_DELAY: Yield until WaitTime reaches zero
  4: 0x0495 [0x00] END_REQSTACK()
```

### Event 65535.55

#### Metadata

| Field        | Value    |
|--------------|----------|
| Entrypoint   | 0x0496   |
| Data Size    | 16 bytes |
| Instructions | 2        |

```
      00 01 02 03 04 05 06 07  08 09 0A 0B 0C 0D 0E 0F
      -- -- -- -- -- -- -- --  -- -- -- -- -- -- -- --
0490:                   5B 57  80 34 50 0F 01 34 50 0F        [W.4P..4P.
04A0: 01 6F 70 63 30 00                                 .opc0.          
```

#### Opcodes

```
  0: 0x0496 [0x5B] LOAD_EXT_SCHEDULER: Load scheduler "opc0" with entities [Venika (ID: 17780788/0x010F5034), Venika (ID: 17780788/0x010F5034)], work=2584*
  1: 0x04A5 [0x00] END_REQSTACK()
```

### Event 65535.56

#### Metadata

| Field        | Value    |
|--------------|----------|
| Entrypoint   | 0x04A6   |
| Data Size    | 16 bytes |
| Instructions | 2        |

```
      00 01 02 03 04 05 06 07  08 09 0A 0B 0C 0D 0E 0F
      -- -- -- -- -- -- -- --  -- -- -- -- -- -- -- --
04A0:                   5B 57  80 34 50 0F 01 34 50 0F        [W.4P..4P.
04B0: 01 6F 70 63 31 00                                 .opc1.          
```

#### Opcodes

```
  0: 0x04A6 [0x5B] LOAD_EXT_SCHEDULER: Load scheduler "opc1" with entities [Venika (ID: 17780788/0x010F5034), Venika (ID: 17780788/0x010F5034)], work=2584*
  1: 0x04B5 [0x00] END_REQSTACK()
```

### Event 65535.57

#### Metadata

| Field        | Value    |
|--------------|----------|
| Entrypoint   | 0x04B6   |
| Data Size    | 16 bytes |
| Instructions | 2        |

```
      00 01 02 03 04 05 06 07  08 09 0A 0B 0C 0D 0E 0F
      -- -- -- -- -- -- -- --  -- -- -- -- -- -- -- --
04B0:                   66 5A  80 36 50 0F 01 36 50 0F        fZ.6P..6P.
04C0: 01 61 77 77 30 00                                 .aww0.          
```

#### Opcodes

```
  0: 0x04B6 [0x66] LOAD_EXT_SCHEDULER_MAIN: Load scheduler "aww0" with entities [Kuah Dakonsa (ID: 17780790/0x010F5036), Kuah Dakonsa (ID: 17780790/0x010F5036)], work=8*
  1: 0x04C5 [0x00] END_REQSTACK()
```

### Event 65535.58

#### Metadata

| Field        | Value    |
|--------------|----------|
| Entrypoint   | 0x04C6   |
| Data Size    | 16 bytes |
| Instructions | 2        |

```
      00 01 02 03 04 05 06 07  08 09 0A 0B 0C 0D 0E 0F
      -- -- -- -- -- -- -- --  -- -- -- -- -- -- -- --
04C0:                   66 5B  80 36 50 0F 01 36 50 0F        f[.6P..6P.
04D0: 01 74 68 6B 31 00                                 .thk1.          
```

#### Opcodes

```
  0: 0x04C6 [0x66] LOAD_EXT_SCHEDULER_MAIN: Load scheduler "thk1" with entities [Kuah Dakonsa (ID: 17780790/0x010F5036), Kuah Dakonsa (ID: 17780790/0x010F5036)], work=51*
  1: 0x04D5 [0x00] END_REQSTACK()
```

### Event 65535.59

#### Metadata

| Field        | Value    |
|--------------|----------|
| Entrypoint   | 0x04D6   |
| Data Size    | 21 bytes |
| Instructions | 5        |

```
      00 01 02 03 04 05 06 07  08 09 0A 0B 0C 0D 0E 0F
      -- -- -- -- -- -- -- --  -- -- -- -- -- -- -- --
04D0:                   59 04  32 50 0F 01 1C 80 1F 00        Y.2P......
04E0: 5C 80 5D 80 24 80 1F 01  6F 00 00                 \.].$...o..     
```

#### Opcodes

```
  0: 0x04D6 [0x59] UPDATE_ENTITY_DATA: Set Gurdern (ID: 17780786/0x010F5032) main speed = 12* * 0.1
  1: 0x04DE [0x1F] MOVE_ENTITY: EventEntity moves to X=-61.958*, Z=-103.267*, Y=5.999*
  2: 0x04E6 [0x1F] MOVE_ENTITY: Update entity position (mode=1)
  3: 0x04E8 [0x6F] WAIT_FRAME_DELAY: Yield until WaitTime reaches zero
  4: 0x04E9 [0x00] END_REQSTACK()
```

#### Data or dead code:

```
# Dead code (unreachable instructions):
     0x04EA [0x00] END_REQSTACK()
```

### Event 65535.60

#### Metadata

| Field        | Value    |
|--------------|----------|
| Entrypoint   | 0x04EB   |
| Data Size    | 20 bytes |
| Instructions | 5        |

```
      00 01 02 03 04 05 06 07  08 09 0A 0B 0C 0D 0E 0F
      -- -- -- -- -- -- -- --  -- -- -- -- -- -- -- --
04E0:                                   59 04 32 50 0F             Y.2P.
04F0: 01 1C 80 1F 00 5E 80 5F  80 24 80 1F 01 6F 00     .....^._.$...o. 
```

#### Opcodes

```
  0: 0x04EB [0x59] UPDATE_ENTITY_DATA: Set Gurdern (ID: 17780786/0x010F5032) main speed = 12* * 0.1
  1: 0x04F3 [0x1F] MOVE_ENTITY: EventEntity moves to X=-66.589*, Z=-92.299*, Y=5.999*
  2: 0x04FB [0x1F] MOVE_ENTITY: Update entity position (mode=1)
  3: 0x04FD [0x6F] WAIT_FRAME_DELAY: Yield until WaitTime reaches zero
  4: 0x04FE [0x00] END_REQSTACK()
```

### Event 65535.61

#### Metadata

| Field        | Value    |
|--------------|----------|
| Entrypoint   | 0x04FF   |
| Data Size    | 20 bytes |
| Instructions | 5        |

```
      00 01 02 03 04 05 06 07  08 09 0A 0B 0C 0D 0E 0F
      -- -- -- -- -- -- -- --  -- -- -- -- -- -- -- --
04F0:                                               59                 Y
0500: 04 32 50 0F 01 1C 80 1F  00 60 80 61 80 24 80 1F  .2P......`.a.$..
0510: 01 6F 00                                          .o.             
```

#### Opcodes

```
  0: 0x04FF [0x59] UPDATE_ENTITY_DATA: Set Gurdern (ID: 17780786/0x010F5032) main speed = 12* * 0.1
  1: 0x0507 [0x1F] MOVE_ENTITY: EventEntity moves to X=-58.931*, Z=-86.942*, Y=5.999*
  2: 0x050F [0x1F] MOVE_ENTITY: Update entity position (mode=1)
  3: 0x0511 [0x6F] WAIT_FRAME_DELAY: Yield until WaitTime reaches zero
  4: 0x0512 [0x00] END_REQSTACK()
```

### Event 65535.62

#### Metadata

| Field        | Value    |
|--------------|----------|
| Entrypoint   | 0x0513   |
| Data Size    | 17 bytes |
| Instructions | 2        |

```
      00 01 02 03 04 05 06 07  08 09 0A 0B 0C 0D 0E 0F
      -- -- -- -- -- -- -- --  -- -- -- -- -- -- -- --
0510:          5B 33 80 32 50  0F 01 32 50 0F 01 6F 70     [3.2P..2P..op
0520: 30 30 00 00                                       00..            
```

#### Opcodes

```
  0: 0x0513 [0x5B] LOAD_EXT_SCHEDULER: Load scheduler "op00" with entities [Gurdern (ID: 17780786/0x010F5032), Gurdern (ID: 17780786/0x010F5032)], work=2621*
  1: 0x0522 [0x00] END_REQSTACK()
```

#### Data or dead code:

```
# Dead code (unreachable instructions):
     0x0523 [0x00] END_REQSTACK()
```

### Event 65535.63

#### Metadata

| Field        | Value    |
|--------------|----------|
| Entrypoint   | 0x0524   |
| Data Size    | 20 bytes |
| Instructions | 5        |

```
      00 01 02 03 04 05 06 07  08 09 0A 0B 0C 0D 0E 0F
      -- -- -- -- -- -- -- --  -- -- -- -- -- -- -- --
0520:             59 04 1C 50  0F 01 1F 80 1F 00 20 80      Y..P...... .
0530: 21 80 00 80 1F 01 6F 00                           !.....o.        
```

#### Opcodes

```
  0: 0x0524 [0x59] UPDATE_ENTITY_DATA: Set Mertaire (ID: 17780764/0x010F501C) main speed = 11* * 0.1
  1: 0x052C [0x1F] MOVE_ENTITY: EventEntity moves to X=-95.337*, Z=-156.056*, Y=0.000*
  2: 0x0534 [0x1F] MOVE_ENTITY: Update entity position (mode=1)
  3: 0x0536 [0x6F] WAIT_FRAME_DELAY: Yield until WaitTime reaches zero
  4: 0x0537 [0x00] END_REQSTACK()
```

### Event 65535.64

#### Metadata

| Field        | Value    |
|--------------|----------|
| Entrypoint   | 0x0538   |
| Data Size    | 20 bytes |
| Instructions | 5        |

```
      00 01 02 03 04 05 06 07  08 09 0A 0B 0C 0D 0E 0F
      -- -- -- -- -- -- -- --  -- -- -- -- -- -- -- --
0530:                          59 04 1C 50 0F 01 1F 80          Y..P....
0540: 1F 00 62 80 63 80 64 80  1F 01 6F 00              ..b.c.d...o.    
```

#### Opcodes

```
  0: 0x0538 [0x59] UPDATE_ENTITY_DATA: Set Mertaire (ID: 17780764/0x010F501C) main speed = 11* * 0.1
  1: 0x0540 [0x1F] MOVE_ENTITY: EventEntity moves to X=-78.197*, Z=-116.328*, Y=3.999*
  2: 0x0548 [0x1F] MOVE_ENTITY: Update entity position (mode=1)
  3: 0x054A [0x6F] WAIT_FRAME_DELAY: Yield until WaitTime reaches zero
  4: 0x054B [0x00] END_REQSTACK()
```

### Event 65535.65

#### Metadata

| Field        | Value    |
|--------------|----------|
| Entrypoint   | 0x054C   |
| Data Size    | 16 bytes |
| Instructions | 2        |

```
      00 01 02 03 04 05 06 07  08 09 0A 0B 0C 0D 0E 0F
      -- -- -- -- -- -- -- --  -- -- -- -- -- -- -- --
0540:                                      5B 65 80 1C              [e..
0550: 50 0F 01 1C 50 0F 01 6F  70 63 30 00              P...P..opc0.    
```

#### Opcodes

```
  0: 0x054C [0x5B] LOAD_EXT_SCHEDULER: Load scheduler "opc0" with entities [Mertaire (ID: 17780764/0x010F501C), Mertaire (ID: 17780764/0x010F501C)], work=2583*
  1: 0x055B [0x00] END_REQSTACK()
```

### Event 65535.66

#### Metadata

| Field        | Value    |
|--------------|----------|
| Entrypoint   | 0x055C   |
| Data Size    | 16 bytes |
| Instructions | 2        |

```
      00 01 02 03 04 05 06 07  08 09 0A 0B 0C 0D 0E 0F
      -- -- -- -- -- -- -- --  -- -- -- -- -- -- -- --
0550:                                      5B 65 80 1C              [e..
0560: 50 0F 01 1C 50 0F 01 6F  70 63 31 00              P...P..opc1.    
```

#### Opcodes

```
  0: 0x055C [0x5B] LOAD_EXT_SCHEDULER: Load scheduler "opc1" with entities [Mertaire (ID: 17780764/0x010F501C), Mertaire (ID: 17780764/0x010F501C)], work=2583*
  1: 0x056B [0x00] END_REQSTACK()
```

### Event 65535.67

#### Metadata

| Field        | Value    |
|--------------|----------|
| Entrypoint   | 0x056C   |
| Data Size    | 21 bytes |
| Instructions | 5        |

```
      00 01 02 03 04 05 06 07  08 09 0A 0B 0C 0D 0E 0F
      -- -- -- -- -- -- -- --  -- -- -- -- -- -- -- --
0560:                                      59 04 1C 50              Y..P
0570: 0F 01 1F 80 1F 00 66 80  67 80 00 80 1F 01 6F 00  ......f.g.....o.
0580: 00                                                .               
```

#### Opcodes

```
  0: 0x056C [0x59] UPDATE_ENTITY_DATA: Set Mertaire (ID: 17780764/0x010F501C) main speed = 11* * 0.1
  1: 0x0574 [0x1F] MOVE_ENTITY: EventEntity moves to X=-9.883*, Z=-9.826*, Y=0.000*
  2: 0x057C [0x1F] MOVE_ENTITY: Update entity position (mode=1)
  3: 0x057E [0x6F] WAIT_FRAME_DELAY: Yield until WaitTime reaches zero
  4: 0x057F [0x00] END_REQSTACK()
```

#### Data or dead code:

```
# Dead code (unreachable instructions):
     0x0580 [0x00] END_REQSTACK()
```

### Event 65535.68

#### Metadata

| Field        | Value    |
|--------------|----------|
| Entrypoint   | 0x0581   |
| Data Size    | 20 bytes |
| Instructions | 5        |

```
      00 01 02 03 04 05 06 07  08 09 0A 0B 0C 0D 0E 0F
      -- -- -- -- -- -- -- --  -- -- -- -- -- -- -- --
0580:    59 04 1E 50 0F 01 68  80 1F 00 38 80 39 80 24   Y..P..h...8.9.$
0590: 80 1F 01 6F 00                                    ...o.           
```

#### Opcodes

```
  0: 0x0581 [0x59] UPDATE_ENTITY_DATA: Set Bki Tbujhja (ID: 17780766/0x010F501E) main speed = 9* * 0.1
  1: 0x0589 [0x1F] MOVE_ENTITY: EventEntity moves to X=-74.699*, Z=-107.115*, Y=5.999*
  2: 0x0591 [0x1F] MOVE_ENTITY: Update entity position (mode=1)
  3: 0x0593 [0x6F] WAIT_FRAME_DELAY: Yield until WaitTime reaches zero
  4: 0x0594 [0x00] END_REQSTACK()
```

### Event 65535.69

#### Metadata

| Field        | Value    |
|--------------|----------|
| Entrypoint   | 0x0595   |
| Data Size    | 20 bytes |
| Instructions | 5        |

```
      00 01 02 03 04 05 06 07  08 09 0A 0B 0C 0D 0E 0F
      -- -- -- -- -- -- -- --  -- -- -- -- -- -- -- --
0590:                59 04 1E  50 0F 01 1F 80 1F 00 69       Y..P......i
05A0: 80 6A 80 24 80 1F 01 6F  00                       .j.$...o.       
```

#### Opcodes

```
  0: 0x0595 [0x59] UPDATE_ENTITY_DATA: Set Bki Tbujhja (ID: 17780766/0x010F501E) main speed = 11* * 0.1
  1: 0x059D [0x1F] MOVE_ENTITY: EventEntity moves to X=-72.052*, Z=-102.467*, Y=5.999*
  2: 0x05A5 [0x1F] MOVE_ENTITY: Update entity position (mode=1)
  3: 0x05A7 [0x6F] WAIT_FRAME_DELAY: Yield until WaitTime reaches zero
  4: 0x05A8 [0x00] END_REQSTACK()
```

### Event 65535.70

#### Metadata

| Field        | Value    |
|--------------|----------|
| Entrypoint   | 0x05A9   |
| Data Size    | 16 bytes |
| Instructions | 2        |

```
      00 01 02 03 04 05 06 07  08 09 0A 0B 0C 0D 0E 0F
      -- -- -- -- -- -- -- --  -- -- -- -- -- -- -- --
05A0:                             66 5A 80 1E 50 0F 01           fZ..P..
05B0: 1E 50 0F 01 61 77 77 30  00                       .P..aww0.       
```

#### Opcodes

```
  0: 0x05A9 [0x66] LOAD_EXT_SCHEDULER_MAIN: Load scheduler "aww0" with entities [Bki Tbujhja (ID: 17780766/0x010F501E), Bki Tbujhja (ID: 17780766/0x010F501E)], work=8*
  1: 0x05B8 [0x00] END_REQSTACK()
```

### Event 65535.71

#### Metadata

| Field        | Value    |
|--------------|----------|
| Entrypoint   | 0x05B9   |
| Data Size    | 20 bytes |
| Instructions | 5        |

```
      00 01 02 03 04 05 06 07  08 09 0A 0B 0C 0D 0E 0F
      -- -- -- -- -- -- -- --  -- -- -- -- -- -- -- --
05B0:                             59 04 1E 50 0F 01 68           Y..P..h
05C0: 80 1F 00 6B 80 6C 80 00  80 1F 01 6F 00           ...k.l.....o.   
```

#### Opcodes

```
  0: 0x05B9 [0x59] UPDATE_ENTITY_DATA: Set Bki Tbujhja (ID: 17780766/0x010F501E) main speed = 9* * 0.1
  1: 0x05C1 [0x1F] MOVE_ENTITY: EventEntity moves to X=-5.853*, Z=-5.190*, Y=0.000*
  2: 0x05C9 [0x1F] MOVE_ENTITY: Update entity position (mode=1)
  3: 0x05CB [0x6F] WAIT_FRAME_DELAY: Yield until WaitTime reaches zero
  4: 0x05CC [0x00] END_REQSTACK()
```

### Event 65535.72

#### Metadata

| Field        | Value    |
|--------------|----------|
| Entrypoint   | 0x05CD   |
| Data Size    | 21 bytes |
| Instructions | 5        |

```
      00 01 02 03 04 05 06 07  08 09 0A 0B 0C 0D 0E 0F
      -- -- -- -- -- -- -- --  -- -- -- -- -- -- -- --
05C0:                                         59 04 1E               Y..
05D0: 50 0F 01 1F 80 1F 00 60  80 61 80 24 80 1F 01 6F  P......`.a.$...o
05E0: 00 00                                             ..              
```

#### Opcodes

```
  0: 0x05CD [0x59] UPDATE_ENTITY_DATA: Set Bki Tbujhja (ID: 17780766/0x010F501E) main speed = 11* * 0.1
  1: 0x05D5 [0x1F] MOVE_ENTITY: EventEntity moves to X=-58.931*, Z=-86.942*, Y=5.999*
  2: 0x05DD [0x1F] MOVE_ENTITY: Update entity position (mode=1)
  3: 0x05DF [0x6F] WAIT_FRAME_DELAY: Yield until WaitTime reaches zero
  4: 0x05E0 [0x00] END_REQSTACK()
```

#### Data or dead code:

```
# Dead code (unreachable instructions):
     0x05E1 [0x00] END_REQSTACK()
```

### Event 65535.73

#### Metadata

| Field        | Value    |
|--------------|----------|
| Entrypoint   | 0x05E2   |
| Data Size    | 20 bytes |
| Instructions | 5        |

```
      00 01 02 03 04 05 06 07  08 09 0A 0B 0C 0D 0E 0F
      -- -- -- -- -- -- -- --  -- -- -- -- -- -- -- --
05E0:       59 04 27 50 0F 01  1C 80 1F 00 6D 80 6E 80    Y.'P......m.n.
05F0: 6F 80 1F 01 6F 00                                 o...o.          
```

#### Opcodes

```
  0: 0x05E2 [0x59] UPDATE_ENTITY_DATA: Set Danzhor (ID: 17780775/0x010F5027) main speed = 12* * 0.1
  1: 0x05EA [0x1F] MOVE_ENTITY: EventEntity moves to X=-45.210*, Z=-89.196*, Y=-5.999*
  2: 0x05F2 [0x1F] MOVE_ENTITY: Update entity position (mode=1)
  3: 0x05F4 [0x6F] WAIT_FRAME_DELAY: Yield until WaitTime reaches zero
  4: 0x05F5 [0x00] END_REQSTACK()
```

### Event 65535.74

#### Metadata

| Field        | Value    |
|--------------|----------|
| Entrypoint   | 0x05F6   |
| Data Size    | 12 bytes |
| Instructions | 4        |

```
      00 01 02 03 04 05 06 07  08 09 0A 0B 0C 0D 0E 0F
      -- -- -- -- -- -- -- --  -- -- -- -- -- -- -- --
05F0:                   1F 00  70 80 71 80 00 80 1F 01        ..p.q.....
0600: 6F 00                                             o.              
```

#### Opcodes

```
  0: 0x05F6 [0x1F] MOVE_ENTITY: EventEntity moves to X=-18.343*, Z=-8.286*, Y=0.000*
  1: 0x05FE [0x1F] MOVE_ENTITY: Update entity position (mode=1)
  2: 0x0600 [0x6F] WAIT_FRAME_DELAY: Yield until WaitTime reaches zero
  3: 0x0601 [0x00] END_REQSTACK()
```

### Event 65535.75

#### Metadata

| Field        | Value    |
|--------------|----------|
| Entrypoint   | 0x0602   |
| Data Size    | 16 bytes |
| Instructions | 2        |

```
      00 01 02 03 04 05 06 07  08 09 0A 0B 0C 0D 0E 0F
      -- -- -- -- -- -- -- --  -- -- -- -- -- -- -- --
0600:       66 30 80 27 50 0F  01 27 50 0F 01 74 68 6B    f0.'P..'P..thk
0610: 31 00                                             1.              
```

#### Opcodes

```
  0: 0x0602 [0x66] LOAD_EXT_SCHEDULER_MAIN: Load scheduler "thk1" with entities [Danzhor (ID: 17780775/0x010F5027), Danzhor (ID: 17780775/0x010F5027)], work=69*
  1: 0x0611 [0x00] END_REQSTACK()
```

### Event 65535.76

#### Metadata

| Field        | Value    |
|--------------|----------|
| Entrypoint   | 0x0612   |
| Data Size    | 16 bytes |
| Instructions | 2        |

```
      00 01 02 03 04 05 06 07  08 09 0A 0B 0C 0D 0E 0F
      -- -- -- -- -- -- -- --  -- -- -- -- -- -- -- --
0610:       66 30 80 27 50 0F  01 27 50 0F 01 74 68 6B    f0.'P..'P..thk
0620: 32 00                                             2.              
```

#### Opcodes

```
  0: 0x0612 [0x66] LOAD_EXT_SCHEDULER_MAIN: Load scheduler "thk2" with entities [Danzhor (ID: 17780775/0x010F5027), Danzhor (ID: 17780775/0x010F5027)], work=69*
  1: 0x0621 [0x00] END_REQSTACK()
```

### Event 65535.77

#### Metadata

| Field        | Value    |
|--------------|----------|
| Entrypoint   | 0x0622   |
| Data Size    | 20 bytes |
| Instructions | 5        |

```
      00 01 02 03 04 05 06 07  08 09 0A 0B 0C 0D 0E 0F
      -- -- -- -- -- -- -- --  -- -- -- -- -- -- -- --
0620:       59 04 27 50 0F 01  1C 80 1F 00 72 80 73 80    Y.'P......r.s.
0630: 00 80 1F 01 6F 00                                 ....o.          
```

#### Opcodes

```
  0: 0x0622 [0x59] UPDATE_ENTITY_DATA: Set Danzhor (ID: 17780775/0x010F5027) main speed = 12* * 0.1
  1: 0x062A [0x1F] MOVE_ENTITY: EventEntity moves to X=-17.939*, Z=-16.579*, Y=0.000*
  2: 0x0632 [0x1F] MOVE_ENTITY: Update entity position (mode=1)
  3: 0x0634 [0x6F] WAIT_FRAME_DELAY: Yield until WaitTime reaches zero
  4: 0x0635 [0x00] END_REQSTACK()
```

### Event 65535.78

#### Metadata

| Field        | Value    |
|--------------|----------|
| Entrypoint   | 0x0636   |
| Data Size    | 20 bytes |
| Instructions | 5        |

```
      00 01 02 03 04 05 06 07  08 09 0A 0B 0C 0D 0E 0F
      -- -- -- -- -- -- -- --  -- -- -- -- -- -- -- --
0630:                   59 04  27 50 0F 01 1C 80 1F 00        Y.'P......
0640: 74 80 75 80 00 80 1F 01  6F 00                    t.u.....o.      
```

#### Opcodes

```
  0: 0x0636 [0x59] UPDATE_ENTITY_DATA: Set Danzhor (ID: 17780775/0x010F5027) main speed = 12* * 0.1
  1: 0x063E [0x1F] MOVE_ENTITY: EventEntity moves to X=-3.065*, Z=-7.931*, Y=0.000*
  2: 0x0646 [0x1F] MOVE_ENTITY: Update entity position (mode=1)
  3: 0x0648 [0x6F] WAIT_FRAME_DELAY: Yield until WaitTime reaches zero
  4: 0x0649 [0x00] END_REQSTACK()
```

### Event 65535.79

#### Metadata

| Field        | Value    |
|--------------|----------|
| Entrypoint   | 0x064A   |
| Data Size    | 17 bytes |
| Instructions | 2        |

```
      00 01 02 03 04 05 06 07  08 09 0A 0B 0C 0D 0E 0F
      -- -- -- -- -- -- -- --  -- -- -- -- -- -- -- --
0640:                                66 45 80 30 50 0F            fE.0P.
0650: 01 30 50 0F 01 73 68 6B  30 00 00                 .0P..shk0..     
```

#### Opcodes

```
  0: 0x064A [0x66] LOAD_EXT_SCHEDULER_MAIN: Load scheduler "shk0" with entities [Kikilolo (ID: 17780784/0x010F5030), Kikilolo (ID: 17780784/0x010F5030)], work=41*
  1: 0x0659 [0x00] END_REQSTACK()
```

#### Data or dead code:

```
# Dead code (unreachable instructions):
     0x065A [0x00] END_REQSTACK()
```

### Event 65535.80

#### Metadata

| Field        | Value    |
|--------------|----------|
| Entrypoint   | 0x065B   |
| Data Size    | 16 bytes |
| Instructions | 2        |

```
      00 01 02 03 04 05 06 07  08 09 0A 0B 0C 0D 0E 0F
      -- -- -- -- -- -- -- --  -- -- -- -- -- -- -- --
0650:                                   5B 76 80 39 50             [v.9P
0660: 0F 01 39 50 0F 01 74 6C  6B 30 00                 ..9P..tlk0.     
```

#### Opcodes

```
  0: 0x065B [0x5B] LOAD_EXT_SCHEDULER: Load scheduler "tlk0" with entities [Momiji (ID: 17780793/0x010F5039), Momiji (ID: 17780793/0x010F5039)], work=60*
  1: 0x066A [0x00] END_REQSTACK()
```

### Event 65535.81

#### Metadata

| Field        | Value    |
|--------------|----------|
| Entrypoint   | 0x066B   |
| Data Size    | 16 bytes |
| Instructions | 2        |

```
      00 01 02 03 04 05 06 07  08 09 0A 0B 0C 0D 0E 0F
      -- -- -- -- -- -- -- --  -- -- -- -- -- -- -- --
0660:                                   5B 76 80 39 50             [v.9P
0670: 0F 01 39 50 0F 01 74 6C  6B 31 00                 ..9P..tlk1.     
```

#### Opcodes

```
  0: 0x066B [0x5B] LOAD_EXT_SCHEDULER: Load scheduler "tlk1" with entities [Momiji (ID: 17780793/0x010F5039), Momiji (ID: 17780793/0x010F5039)], work=60*
  1: 0x067A [0x00] END_REQSTACK()
```

### Event 65535.82

#### Metadata

| Field        | Value    |
|--------------|----------|
| Entrypoint   | 0x067B   |
| Data Size    | 16 bytes |
| Instructions | 2        |

```
      00 01 02 03 04 05 06 07  08 09 0A 0B 0C 0D 0E 0F
      -- -- -- -- -- -- -- --  -- -- -- -- -- -- -- --
0670:                                   5B 76 80 39 50             [v.9P
0680: 0F 01 39 50 0F 01 74 68  6B 31 00                 ..9P..thk1.     
```

#### Opcodes

```
  0: 0x067B [0x5B] LOAD_EXT_SCHEDULER: Load scheduler "thk1" with entities [Momiji (ID: 17780793/0x010F5039), Momiji (ID: 17780793/0x010F5039)], work=60*
  1: 0x068A [0x00] END_REQSTACK()
```

### Event 65535.83

#### Metadata

| Field        | Value    |
|--------------|----------|
| Entrypoint   | 0x068B   |
| Data Size    | 16 bytes |
| Instructions | 2        |

```
      00 01 02 03 04 05 06 07  08 09 0A 0B 0C 0D 0E 0F
      -- -- -- -- -- -- -- --  -- -- -- -- -- -- -- --
0680:                                   5B 76 80 39 50             [v.9P
0690: 0F 01 39 50 0F 01 74 68  6B 32 00                 ..9P..thk2.     
```

#### Opcodes

```
  0: 0x068B [0x5B] LOAD_EXT_SCHEDULER: Load scheduler "thk2" with entities [Momiji (ID: 17780793/0x010F5039), Momiji (ID: 17780793/0x010F5039)], work=60*
  1: 0x069A [0x00] END_REQSTACK()
```

### Event 65535.84

#### Metadata

| Field        | Value    |
|--------------|----------|
| Entrypoint   | 0x069B   |
| Data Size    | 17 bytes |
| Instructions | 2        |

```
      00 01 02 03 04 05 06 07  08 09 0A 0B 0C 0D 0E 0F
      -- -- -- -- -- -- -- --  -- -- -- -- -- -- -- --
0690:                                   5B 77 80 39 50             [w.9P
06A0: 0F 01 39 50 0F 01 65 6D  74 30 00 00              ..9P..emt0..    
```

#### Opcodes

```
  0: 0x069B [0x5B] LOAD_EXT_SCHEDULER: Load scheduler "emt0" with entities [Momiji (ID: 17780793/0x010F5039), Momiji (ID: 17780793/0x010F5039)], work=2624*
  1: 0x06AA [0x00] END_REQSTACK()
```

#### Data or dead code:

```
# Dead code (unreachable instructions):
     0x06AB [0x00] END_REQSTACK()
```

### Event 65535.85

#### Metadata

| Field        | Value    |
|--------------|----------|
| Entrypoint   | 0x06AC   |
| Data Size    | 20 bytes |
| Instructions | 5        |

```
      00 01 02 03 04 05 06 07  08 09 0A 0B 0C 0D 0E 0F
      -- -- -- -- -- -- -- --  -- -- -- -- -- -- -- --
06A0:                                      59 04 3C 50              Y.<P
06B0: 0F 01 4E 80 1F 00 78 80  79 80 00 80 1F 01 6F 00  ..N...x.y.....o.
```

#### Opcodes

```
  0: 0x06AC [0x59] UPDATE_ENTITY_DATA: Set Mendi (ID: 17780796/0x010F503C) main speed = 13* * 0.1
  1: 0x06B4 [0x1F] MOVE_ENTITY: EventEntity moves to X=-38.371*, Z=-67.496*, Y=0.000*
  2: 0x06BC [0x1F] MOVE_ENTITY: Update entity position (mode=1)
  3: 0x06BE [0x6F] WAIT_FRAME_DELAY: Yield until WaitTime reaches zero
  4: 0x06BF [0x00] END_REQSTACK()
```

### Event 65535.86

#### Metadata

| Field        | Value    |
|--------------|----------|
| Entrypoint   | 0x06C0   |
| Data Size    | 12 bytes |
| Instructions | 4        |

```
      00 01 02 03 04 05 06 07  08 09 0A 0B 0C 0D 0E 0F
      -- -- -- -- -- -- -- --  -- -- -- -- -- -- -- --
06C0: 1F 00 7A 80 7B 80 00 80  1F 01 6F 00              ..z.{.....o.    
```

#### Opcodes

```
  0: 0x06C0 [0x1F] MOVE_ENTITY: EventEntity moves to X=-5.565*, Z=-1.804*, Y=0.000*
  1: 0x06C8 [0x1F] MOVE_ENTITY: Update entity position (mode=1)
  2: 0x06CA [0x6F] WAIT_FRAME_DELAY: Yield until WaitTime reaches zero
  3: 0x06CB [0x00] END_REQSTACK()
```

### Event 65535.87

#### Metadata

| Field        | Value    |
|--------------|----------|
| Entrypoint   | 0x06CC   |
| Data Size    | 16 bytes |
| Instructions | 2        |

```
      00 01 02 03 04 05 06 07  08 09 0A 0B 0C 0D 0E 0F
      -- -- -- -- -- -- -- --  -- -- -- -- -- -- -- --
06C0:                                      5B 65 80 3C              [e.<
06D0: 50 0F 01 3C 50 0F 01 6F  70 62 30 00              P..<P..opb0.    
```

#### Opcodes

```
  0: 0x06CC [0x5B] LOAD_EXT_SCHEDULER: Load scheduler "opb0" with entities [Mendi (ID: 17780796/0x010F503C), Mendi (ID: 17780796/0x010F503C)], work=2583*
  1: 0x06DB [0x00] END_REQSTACK()
```

### Event 65535.88

#### Metadata

| Field        | Value    |
|--------------|----------|
| Entrypoint   | 0x06DC   |
| Data Size    | 16 bytes |
| Instructions | 2        |

```
      00 01 02 03 04 05 06 07  08 09 0A 0B 0C 0D 0E 0F
      -- -- -- -- -- -- -- --  -- -- -- -- -- -- -- --
06D0:                                      5B 65 80 3C              [e.<
06E0: 50 0F 01 3C 50 0F 01 6F  70 63 30 00              P..<P..opc0.    
```

#### Opcodes

```
  0: 0x06DC [0x5B] LOAD_EXT_SCHEDULER: Load scheduler "opc0" with entities [Mendi (ID: 17780796/0x010F503C), Mendi (ID: 17780796/0x010F503C)], work=2583*
  1: 0x06EB [0x00] END_REQSTACK()
```

### Event 65535.89

#### Metadata

| Field        | Value    |
|--------------|----------|
| Entrypoint   | 0x06EC   |
| Data Size    | 16 bytes |
| Instructions | 2        |

```
      00 01 02 03 04 05 06 07  08 09 0A 0B 0C 0D 0E 0F
      -- -- -- -- -- -- -- --  -- -- -- -- -- -- -- --
06E0:                                      5B 65 80 3C              [e.<
06F0: 50 0F 01 3C 50 0F 01 6F  70 63 31 00              P..<P..opc1.    
```

#### Opcodes

```
  0: 0x06EC [0x5B] LOAD_EXT_SCHEDULER: Load scheduler "opc1" with entities [Mendi (ID: 17780796/0x010F503C), Mendi (ID: 17780796/0x010F503C)], work=2583*
  1: 0x06FB [0x00] END_REQSTACK()
```

### Event 65535.90

#### Metadata

| Field        | Value    |
|--------------|----------|
| Entrypoint   | 0x06FC   |
| Data Size    | 16 bytes |
| Instructions | 2        |

```
      00 01 02 03 04 05 06 07  08 09 0A 0B 0C 0D 0E 0F
      -- -- -- -- -- -- -- --  -- -- -- -- -- -- -- --
06F0:                                      66 7C 80 3C              f|.<
0700: 50 0F 01 3C 50 0F 01 74  68 62 31 00              P..<P..thb1.    
```

#### Opcodes

```
  0: 0x06FC [0x66] LOAD_EXT_SCHEDULER_MAIN: Load scheduler "thb1" with entities [Mendi (ID: 17780796/0x010F503C), Mendi (ID: 17780796/0x010F503C)], work=2*
  1: 0x070B [0x00] END_REQSTACK()
```

### Event 65535.91

#### Metadata

| Field        | Value    |
|--------------|----------|
| Entrypoint   | 0x070C   |
| Data Size    | 16 bytes |
| Instructions | 2        |

```
      00 01 02 03 04 05 06 07  08 09 0A 0B 0C 0D 0E 0F
      -- -- -- -- -- -- -- --  -- -- -- -- -- -- -- --
0700:                                      66 7C 80 3C              f|.<
0710: 50 0F 01 3C 50 0F 01 74  68 62 32 00              P..<P..thb2.    
```

#### Opcodes

```
  0: 0x070C [0x66] LOAD_EXT_SCHEDULER_MAIN: Load scheduler "thb2" with entities [Mendi (ID: 17780796/0x010F503C), Mendi (ID: 17780796/0x010F503C)], work=2*
  1: 0x071B [0x00] END_REQSTACK()
```

### Event 65535.92

#### Metadata

| Field        | Value    |
|--------------|----------|
| Entrypoint   | 0x071C   |
| Data Size    | 16 bytes |
| Instructions | 2        |

```
      00 01 02 03 04 05 06 07  08 09 0A 0B 0C 0D 0E 0F
      -- -- -- -- -- -- -- --  -- -- -- -- -- -- -- --
0710:                                      66 00 80 3C              f..<
0720: 50 0F 01 3C 50 0F 01 74  68 6B 31 00              P..<P..thk1.    
```

#### Opcodes

```
  0: 0x071C [0x66] LOAD_EXT_SCHEDULER_MAIN: Load scheduler "thk1" with entities [Mendi (ID: 17780796/0x010F503C), Mendi (ID: 17780796/0x010F503C)], work=0*
  1: 0x072B [0x00] END_REQSTACK()
```

### Event 65535.93

#### Metadata

| Field        | Value    |
|--------------|----------|
| Entrypoint   | 0x072C   |
| Data Size    | 16 bytes |
| Instructions | 2        |

```
      00 01 02 03 04 05 06 07  08 09 0A 0B 0C 0D 0E 0F
      -- -- -- -- -- -- -- --  -- -- -- -- -- -- -- --
0720:                                      66 00 80 3C              f..<
0730: 50 0F 01 3C 50 0F 01 74  68 6B 32 00              P..<P..thk2.    
```

#### Opcodes

```
  0: 0x072C [0x66] LOAD_EXT_SCHEDULER_MAIN: Load scheduler "thk2" with entities [Mendi (ID: 17780796/0x010F503C), Mendi (ID: 17780796/0x010F503C)], work=0*
  1: 0x073B [0x00] END_REQSTACK()
```

### Event 65535.94

#### Metadata

| Field        | Value    |
|--------------|----------|
| Entrypoint   | 0x073C   |
| Data Size    | 20 bytes |
| Instructions | 5        |

```
      00 01 02 03 04 05 06 07  08 09 0A 0B 0C 0D 0E 0F
      -- -- -- -- -- -- -- --  -- -- -- -- -- -- -- --
0730:                                      59 04 3C 50              Y.<P
0740: 0F 01 4E 80 1F 00 7D 80  7E 80 00 80 1F 01 6F 00  ..N...}.~.....o.
```

#### Opcodes

```
  0: 0x073C [0x59] UPDATE_ENTITY_DATA: Set Mendi (ID: 17780796/0x010F503C) main speed = 13* * 0.1
  1: 0x0744 [0x1F] MOVE_ENTITY: EventEntity moves to X=-2.765*, Z=5.059*, Y=0.000*
  2: 0x074C [0x1F] MOVE_ENTITY: Update entity position (mode=1)
  3: 0x074E [0x6F] WAIT_FRAME_DELAY: Yield until WaitTime reaches zero
  4: 0x074F [0x00] END_REQSTACK()
```

### Event 65535.95

#### Metadata

| Field        | Value    |
|--------------|----------|
| Entrypoint   | 0x0750   |
| Data Size    | 20 bytes |
| Instructions | 5        |

```
      00 01 02 03 04 05 06 07  08 09 0A 0B 0C 0D 0E 0F
      -- -- -- -- -- -- -- --  -- -- -- -- -- -- -- --
0750: 59 04 3C 50 0F 01 4E 80  1F 00 58 80 59 80 00 80  Y.<P..N...X.Y...
0760: 1F 01 6F 00                                       ..o.            
```

#### Opcodes

```
  0: 0x0750 [0x59] UPDATE_ENTITY_DATA: Set Mendi (ID: 17780796/0x010F503C) main speed = 13* * 0.1
  1: 0x0758 [0x1F] MOVE_ENTITY: EventEntity moves to X=-0.991*, Z=2.123*, Y=0.000*
  2: 0x0760 [0x1F] MOVE_ENTITY: Update entity position (mode=1)
  3: 0x0762 [0x6F] WAIT_FRAME_DELAY: Yield until WaitTime reaches zero
  4: 0x0763 [0x00] END_REQSTACK()
```

### Event 65535.96

#### Metadata

| Field        | Value    |
|--------------|----------|
| Entrypoint   | 0x0764   |
| Data Size    | 16 bytes |
| Instructions | 2        |

```
      00 01 02 03 04 05 06 07  08 09 0A 0B 0C 0D 0E 0F
      -- -- -- -- -- -- -- --  -- -- -- -- -- -- -- --
0760:             5B 65 80 3C  50 0F 01 3C 50 0F 01 6F      [e.<P..<P..o
0770: 70 64 30 00                                       pd0.            
```

#### Opcodes

```
  0: 0x0764 [0x5B] LOAD_EXT_SCHEDULER: Load scheduler "opd0" with entities [Mendi (ID: 17780796/0x010F503C), Mendi (ID: 17780796/0x010F503C)], work=2583*
  1: 0x0773 [0x00] END_REQSTACK()
```

### Event 65535.97

#### Metadata

| Field        | Value    |
|--------------|----------|
| Entrypoint   | 0x0774   |
| Data Size    | 16 bytes |
| Instructions | 2        |

```
      00 01 02 03 04 05 06 07  08 09 0A 0B 0C 0D 0E 0F
      -- -- -- -- -- -- -- --  -- -- -- -- -- -- -- --
0770:             5B 65 80 3C  50 0F 01 3C 50 0F 01 6F      [e.<P..<P..o
0780: 70 64 31 00                                       pd1.            
```

#### Opcodes

```
  0: 0x0774 [0x5B] LOAD_EXT_SCHEDULER: Load scheduler "opd1" with entities [Mendi (ID: 17780796/0x010F503C), Mendi (ID: 17780796/0x010F503C)], work=2583*
  1: 0x0783 [0x00] END_REQSTACK()
```
