# 17780737 - Wolfgang

## Common Data

| Field            | Value                 |
|------------------|-----------------------|
| Zone             | Lower Jeuno (ID: 245) |
| Block Size       | 364 bytes             |
| Total Events     | 9                     |
| References Count | 19                    |

## List of Events

| Event ID                 | Entrypoint   |   Size |   Instructions |
|--------------------------|--------------|--------|----------------|
| [65535](#event-65535)    | 0x0000       |     13 |              3 |
| [86](#event-86)          | 0x000D       |     20 |              3 |
| [65535.1](#event-655351) | 0x0021       |     14 |              4 |
| [65535.2](#event-655352) | 0x002F       |     14 |              4 |
| [65535.3](#event-655353) | 0x003D       |     14 |              4 |
| [70](#event-70)          | 0x004B       |     13 |              3 |
| [65535.4](#event-655354) | 0x0058       |     27 |              5 |
| [65535.5](#event-655355) | 0x0073       |     28 |              8 |
| [65535.6](#event-655356) | 0x008F       |     92 |             19 |

## DAT References (imed_data)

|   Index | Hex Value   |   Dec Value |
|---------|-------------|-------------|
|       0 | 0x79D1      |       31185 |
|       1 | 0xFFFFCECD  |  4294954701 |
|       2 | 0xFFFFFF91  |  4294967185 |
|       3 | 0x0140      |         320 |
|       4 | 0x000D      |          13 |
|       5 | 0x81A8      |       33192 |
|       6 | 0xFFFFCA60  |  4294953568 |
|       7 | 0x879F      |       34719 |
|       8 | 0xFFFFC6CA  |  4294952650 |
|       9 | 0x54E0      |       21728 |
|      10 | 0xFFFFE3D2  |  4294960082 |
|      11 | 0xFFFFFC34  |  4294966324 |
|      12 | 0x8F7E      |       36734 |
|      13 | 0x07CF      |        1999 |
|      14 | 0x0C00      |        3072 |
|      15 | 0xFFFFEC78  |  4294962296 |
|      16 | 0x1388      |        5000 |
|      17 | 0x0028      |          40 |
|      18 | 0x3A98      |       15000 |

## Events

### Event 65535

#### Metadata

| Field        | Value    |
|--------------|----------|
| Entrypoint   | 0x0000   |
| Data Size    | 13 bytes |
| Instructions | 3        |

```
      00 01 02 03 04 05 06 07  08 09 0A 0B 0C 0D 0E 0F
      -- -- -- -- -- -- -- --  -- -- -- -- -- -- -- --
0000: 94 01 F8 FF FF 7F 92 01  F8 FF FF 7F 00           .............   
```

#### Opcodes

```
  0: 0x0000 [0x94] EventEntity->Render.Flags3 ^= 0x01
  1: 0x0006 [0x92] EventEntity->Render.Flags3 ^= 0x01
  2: 0x000C [0x00] END_REQSTACK()
```

### Event 86

#### Metadata

| Field        | Value    |
|--------------|----------|
| Entrypoint   | 0x000D   |
| Data Size    | 20 bytes |
| Instructions | 3        |

```
      00 01 02 03 04 05 06 07  08 09 0A 0B 0C 0D 0E 0F
      -- -- -- -- -- -- -- --  -- -- -- -- -- -- -- --
0000:                                         37 00 80               7..
0010: 01 80 02 80 03 80 79 00  F8 FF FF 7F F0 FF FF 7F  ......y.........
0020: 00                                                .               
```

#### Opcodes

```
  0: 0x000D [0x37] UPDATE_EVENT_POSITION_AND_DIR: x=31.185*, z=-12.595*, y=-0.111*, direction=28.1°*
  1: 0x0016 [0x79] EventEntity looks at LocalPlayer (Basic look)
  2: 0x0020 [0x00] END_REQSTACK()
```

### Event 65535.1

#### Metadata

| Field        | Value    |
|--------------|----------|
| Entrypoint   | 0x0021   |
| Data Size    | 14 bytes |
| Instructions | 4        |

```
      00 01 02 03 04 05 06 07  08 09 0A 0B 0C 0D 0E 0F
      -- -- -- -- -- -- -- --  -- -- -- -- -- -- -- --
0020:    32 04 80 1F 00 05 80  06 80 02 80 1F 01 00      2............. 
```

#### Opcodes

```
  0: 0x0021 [0x32] ExtData[1]->MainSpeed = 13* * 0.1
  1: 0x0024 [0x1F] MOVE_ENTITY: EventEntity moves to X=33.192*, Z=-13.728*, Y=-0.111*
  2: 0x002C [0x1F] MOVE_ENTITY: Update entity position (mode=1)
  3: 0x002E [0x00] END_REQSTACK()
```

### Event 65535.2

#### Metadata

| Field        | Value    |
|--------------|----------|
| Entrypoint   | 0x002F   |
| Data Size    | 14 bytes |
| Instructions | 4        |

```
      00 01 02 03 04 05 06 07  08 09 0A 0B 0C 0D 0E 0F
      -- -- -- -- -- -- -- --  -- -- -- -- -- -- -- --
0020:                                               32                 2
0030: 04 80 1F 00 07 80 08 80  02 80 1F 01 00           .............   
```

#### Opcodes

```
  0: 0x002F [0x32] ExtData[1]->MainSpeed = 13* * 0.1
  1: 0x0032 [0x1F] MOVE_ENTITY: EventEntity moves to X=34.719*, Z=-14.646*, Y=-0.111*
  2: 0x003A [0x1F] MOVE_ENTITY: Update entity position (mode=1)
  3: 0x003C [0x00] END_REQSTACK()
```

### Event 65535.3

#### Metadata

| Field        | Value    |
|--------------|----------|
| Entrypoint   | 0x003D   |
| Data Size    | 14 bytes |
| Instructions | 4        |

```
      00 01 02 03 04 05 06 07  08 09 0A 0B 0C 0D 0E 0F
      -- -- -- -- -- -- -- --  -- -- -- -- -- -- -- --
0030:                                         32 04 80               2..
0040: 1F 00 09 80 0A 80 02 80  1F 01 00                 ...........     
```

#### Opcodes

```
  0: 0x003D [0x32] ExtData[1]->MainSpeed = 13* * 0.1
  1: 0x0040 [0x1F] MOVE_ENTITY: EventEntity moves to X=21.728*, Z=-7.214*, Y=-0.111*
  2: 0x0048 [0x1F] MOVE_ENTITY: Update entity position (mode=1)
  3: 0x004A [0x00] END_REQSTACK()
```

### Event 70

#### Metadata

| Field        | Value    |
|--------------|----------|
| Entrypoint   | 0x004B   |
| Data Size    | 13 bytes |
| Instructions | 3        |

```
      00 01 02 03 04 05 06 07  08 09 0A 0B 0C 0D 0E 0F
      -- -- -- -- -- -- -- --  -- -- -- -- -- -- -- --
0040:                                   94 01 F8 FF FF             .....
0050: 7F 92 01 F8 FF FF 7F 00                           ........        
```

#### Opcodes

```
  0: 0x004B [0x94] EventEntity->Render.Flags3 ^= 0x01
  1: 0x0051 [0x92] EventEntity->Render.Flags3 ^= 0x01
  2: 0x0057 [0x00] END_REQSTACK()
```

### Event 65535.4

#### Metadata

| Field        | Value    |
|--------------|----------|
| Entrypoint   | 0x0058   |
| Data Size    | 27 bytes |
| Instructions | 5        |

```
      00 01 02 03 04 05 06 07  08 09 0A 0B 0C 0D 0E 0F
      -- -- -- -- -- -- -- --  -- -- -- -- -- -- -- --
0050:                          37 0B 80 0C 80 0D 80 0E          7.......
0060: 80 03 00 00 0F 80 1A A7  00 37 01 00 02 00 03 00  .........7......
0070: 04 00 00                                          ...             
```

#### Opcodes

```
  0: 0x0058 [0x37] UPDATE_EVENT_POSITION_AND_DIR: x=-0.972*, z=36.734*, y=1.999*, direction=270.0°*
  1: 0x0061 [0x03] ExtData[1]->WorkLocal[0] = 4294962296*
  2: 0x0066 [0x1A] CALL_SUBROUTINE(address=0x00A7)
  3: 0x0069 [0x37] UPDATE_EVENT_POSITION_AND_DIR: x=ExtData[1]->WorkLocal[1], z=ExtData[1]->WorkLocal[2], y=ExtData[1]->WorkLocal[3], direction=ExtData[1]->WorkLocal[4]
  4: 0x0072 [0x00] END_REQSTACK()
```

### Event 65535.5

#### Metadata

| Field        | Value    |
|--------------|----------|
| Entrypoint   | 0x0073   |
| Data Size    | 28 bytes |
| Instructions | 8        |

```
      00 01 02 03 04 05 06 07  08 09 0A 0B 0C 0D 0E 0F
      -- -- -- -- -- -- -- --  -- -- -- -- -- -- -- --
0070:          03 00 00 10 80  1A A7 00 32 11 80 1F 00     ........2....
0080: 01 00 02 00 03 00 1F 01  6F 1E 54 50 0F 01 00     ........o.TP... 
```

#### Opcodes

```
  0: 0x0073 [0x03] ExtData[1]->WorkLocal[0] = 5000*
  1: 0x0078 [0x1A] CALL_SUBROUTINE(address=0x00A7)
  2: 0x007B [0x32] ExtData[1]->MainSpeed = 40* * 0.1
  3: 0x007E [0x1F] MOVE_ENTITY: EventEntity moves to X=ExtData[1]->WorkLocal[1], Z=ExtData[1]->WorkLocal[2], Y=ExtData[1]->WorkLocal[3]
  4: 0x0086 [0x1F] MOVE_ENTITY: Update entity position (mode=1)
  5: 0x0088 [0x6F] WAIT_FRAME_DELAY: Yield until WaitTime reaches zero
  6: 0x0089 [0x1E] EventEntity looks at Nag'molada (ID: 17780820/0x010F5054) and starts talking
  7: 0x008E [0x00] END_REQSTACK()
```

### Event 65535.6

#### Metadata

| Field        | Value    |
|--------------|----------|
| Entrypoint   | 0x008F   |
| Data Size    | 92 bytes |
| Instructions | 14       |

```
      00 01 02 03 04 05 06 07  08 09 0A 0B 0C 0D 0E 0F
      -- -- -- -- -- -- -- --  -- -- -- -- -- -- -- --
0080:                                               03                 .
0090: 00 00 12 80 1A A7 00 32  11 80 1F 00 01 00 02 00  .......2........
00A0: 03 00 1F 01 22 01 00 3B  F8 FF FF 7F 01 00 02 00  ...."..;........
00B0: 03 00 3A F8 FF FF 7F 04  00 17 05 00 04 00 00 00  ..:.............
00C0: 16 06 00 04 00 00 00 07  01 00 05 00 07 02 00 06  ................
00D0: 00 1B 17 05 00 04 00 00  00 16 06 00 04 00 00 00  ................
00E0: 07 01 00 05 00 07 02 00  06 00 1B                 ...........     
```

#### Opcodes

```
  0: 0x008F [0x03] ExtData[1]->WorkLocal[0] = 15000*
  1: 0x0094 [0x1A] CALL_SUBROUTINE(address=0x00A7)
  2: 0x0097 [0x32] ExtData[1]->MainSpeed = 40* * 0.1
  3: 0x009A [0x1F] MOVE_ENTITY: EventEntity moves to X=ExtData[1]->WorkLocal[1], Z=ExtData[1]->WorkLocal[2], Y=ExtData[1]->WorkLocal[3]
  4: 0x00A2 [0x1F] MOVE_ENTITY: Update entity position (mode=1)
  5: 0x00A4 [0x22] ENTITY_HIDE_FLAG(enabled=0x01)
  6: 0x00A6 [0x00] END_REQSTACK()

SUBROUTINE_00A7:
  7: 0x00A7 [0x3B] GET_ENTITY_POSITION(entity=EventEntity, x_destination=ExtData[1]->WorkLocal[1], y_destination=ExtData[1]->WorkLocal[2], z_destination=ExtData[1]->WorkLocal[3])
  8: 0x00B2 [0x3A] CONVERT_YAW_TO_BYTE(entity=EventEntity, result_destination=ExtData[1]->WorkLocal[4])
  9: 0x00B9 [0x17] ExtData[1]->WorkLocal[5] = cos(ExtData[1]->WorkLocal[4]) * ExtData[1]->WorkLocal[0]
 10: 0x00C0 [0x16] ExtData[1]->WorkLocal[6] = sin(ExtData[1]->WorkLocal[4]) * ExtData[1]->WorkLocal[0]
 11: 0x00C7 [0x07] ExtData[1]->WorkLocal[1] += ExtData[1]->WorkLocal[5]
 12: 0x00CC [0x07] ExtData[1]->WorkLocal[2] += ExtData[1]->WorkLocal[6]
 13: 0x00D1 [0x1B] RETURN
```

#### Data or dead code:

```
# Dead code (unreachable instructions):
     0x00D2 [0x17] ExtData[1]->WorkLocal[5] = cos(ExtData[1]->WorkLocal[4]) * ExtData[1]->WorkLocal[0]
     0x00D9 [0x16] ExtData[1]->WorkLocal[6] = sin(ExtData[1]->WorkLocal[4]) * ExtData[1]->WorkLocal[0]
     0x00E0 [0x07] ExtData[1]->WorkLocal[1] += ExtData[1]->WorkLocal[5]
     0x00E5 [0x07] ExtData[1]->WorkLocal[2] += ExtData[1]->WorkLocal[6]
     0x00EA [0x1B] RETURN
```
