# 17780756 - Teigero-Bangero

## Common Data

| Field            | Value                 |
|------------------|-----------------------|
| Zone             | Lower Jeuno (ID: 245) |
| Block Size       | 3076 bytes            |
| Total Events     | 117                   |
| References Count | 126                   |

## List of Events

| Event ID                     | Entrypoint   |   Size |   Instructions |
|------------------------------|--------------|--------|----------------|
| [65535](#event-65535)        | 0x0000       |      4 |              2 |
| [75](#event-75)              | 0x0004       |     27 |              8 |
| [34](#event-34)              | 0x001F       |      1 |              1 |
| [32](#event-32)              | 0x0020       |     33 |             10 |
| [29](#event-29)              | 0x0041       |     56 |             14 |
| [66](#event-66)              | 0x0079       |     11 |              5 |
| [67](#event-67)              | 0x0084       |     11 |              5 |
| [35](#event-35)              | 0x008F       |      1 |              1 |
| [74](#event-74)              | 0x0090       |     33 |             13 |
| [65535.1](#event-655351)     | 0x00B1       |     30 |              6 |
| [65535.2](#event-655352)     | 0x00CF       |     10 |              2 |
| [65535.3](#event-655353)     | 0x00D9       |     10 |              2 |
| [65535.4](#event-655354)     | 0x00E3       |     29 |              3 |
| [65535.5](#event-655355)     | 0x0100       |     29 |              3 |
| [65535.6](#event-655356)     | 0x011D       |     29 |              3 |
| [65535.7](#event-655357)     | 0x013A       |     29 |              3 |
| [65535.8](#event-655358)     | 0x0157       |     29 |              3 |
| [65535.9](#event-655359)     | 0x0174       |      9 |              3 |
| [65535.10](#event-6553510)   | 0x017D       |      2 |              2 |
| [10094](#event-10094)        | 0x017F       |      5 |              3 |
| [65535.11](#event-6553511)   | 0x0184       |     20 |              5 |
| [65535.12](#event-6553512)   | 0x0198       |     20 |              5 |
| [65535.13](#event-6553513)   | 0x01AC       |     20 |              5 |
| [65535.14](#event-6553514)   | 0x01C0       |     17 |              3 |
| [65535.15](#event-6553515)   | 0x01D1       |     20 |              5 |
| [65535.16](#event-6553516)   | 0x01E5       |     20 |              5 |
| [65535.17](#event-6553517)   | 0x01F9       |     19 |              4 |
| [65535.18](#event-6553518)   | 0x020C       |     19 |              4 |
| [65535.19](#event-6553519)   | 0x021F       |     16 |              2 |
| [65535.20](#event-6553520)   | 0x022F       |     16 |              2 |
| [65535.21](#event-6553521)   | 0x023F       |     20 |              5 |
| [65535.22](#event-6553522)   | 0x0253       |     16 |              2 |
| [65535.23](#event-6553523)   | 0x0263       |     16 |              2 |
| [65535.24](#event-6553524)   | 0x0273       |     16 |              2 |
| [65535.25](#event-6553525)   | 0x0283       |     21 |              6 |
| [65535.26](#event-6553526)   | 0x0298       |     16 |              2 |
| [65535.27](#event-6553527)   | 0x02A8       |     16 |              2 |
| [65535.28](#event-6553528)   | 0x02B8       |     20 |              5 |
| [65535.29](#event-6553529)   | 0x02CC       |     17 |              3 |
| [65535.30](#event-6553530)   | 0x02DD       |     20 |              5 |
| [65535.31](#event-6553531)   | 0x02F1       |     16 |              2 |
| [65535.32](#event-6553532)   | 0x0301       |     16 |              2 |
| [65535.33](#event-6553533)   | 0x0311       |     16 |              2 |
| [65535.34](#event-6553534)   | 0x0321       |     16 |              2 |
| [65535.35](#event-6553535)   | 0x0331       |     16 |              2 |
| [65535.36](#event-6553536)   | 0x0341       |     16 |              2 |
| [65535.37](#event-6553537)   | 0x0351       |     16 |              2 |
| [65535.38](#event-6553538)   | 0x0361       |     12 |              4 |
| [65535.39](#event-6553539)   | 0x036D       |     20 |              5 |
| [65535.40](#event-6553540)   | 0x0381       |     17 |              3 |
| [65535.41](#event-6553541)   | 0x0392       |     17 |              3 |
| [65535.42](#event-6553542)   | 0x03A3       |     16 |              2 |
| [65535.43](#event-6553543)   | 0x03B3       |     16 |              2 |
| [65535.44](#event-6553544)   | 0x03C3       |     16 |              2 |
| [65535.45](#event-6553545)   | 0x03D3       |     16 |              2 |
| [65535.46](#event-6553546)   | 0x03E3       |     16 |              2 |
| [65535.47](#event-6553547)   | 0x03F3       |     16 |              2 |
| [65535.48](#event-6553548)   | 0x0403       |     13 |              5 |
| [65535.49](#event-6553549)   | 0x0410       |     20 |              5 |
| [65535.50](#event-6553550)   | 0x0424       |     12 |              4 |
| [65535.51](#event-6553551)   | 0x0430       |     16 |              2 |
| [65535.52](#event-6553552)   | 0x0440       |     16 |              2 |
| [65535.53](#event-6553553)   | 0x0450       |     16 |              2 |
| [65535.54](#event-6553554)   | 0x0460       |     20 |              5 |
| [65535.55](#event-6553555)   | 0x0474       |     29 |              6 |
| [65535.56](#event-6553556)   | 0x0491       |     17 |              3 |
| [65535.57](#event-6553557)   | 0x04A2       |     20 |              5 |
| [65535.58](#event-6553558)   | 0x04B6       |     20 |              5 |
| [65535.59](#event-6553559)   | 0x04CA       |     20 |              5 |
| [65535.60](#event-6553560)   | 0x04DE       |     20 |              5 |
| [65535.61](#event-6553561)   | 0x04F2       |     20 |              5 |
| [65535.62](#event-6553562)   | 0x0506       |     16 |              2 |
| [65535.63](#event-6553563)   | 0x0516       |     16 |              2 |
| [65535.64](#event-6553564)   | 0x0526       |     20 |              5 |
| [65535.65](#event-6553565)   | 0x053A       |     16 |              2 |
| [65535.66](#event-6553566)   | 0x054A       |     16 |              2 |
| [65535.67](#event-6553567)   | 0x055A       |     16 |              2 |
| [65535.68](#event-6553568)   | 0x056A       |     16 |              2 |
| [65535.69](#event-6553569)   | 0x057A       |     21 |              6 |
| [65535.70](#event-6553570)   | 0x058F       |     20 |              5 |
| [65535.71](#event-6553571)   | 0x05A3       |     20 |              5 |
| [65535.72](#event-6553572)   | 0x05B7       |     17 |              3 |
| [65535.73](#event-6553573)   | 0x05C8       |     20 |              5 |
| [65535.74](#event-6553574)   | 0x05DC       |     20 |              5 |
| [65535.75](#event-6553575)   | 0x05F0       |     16 |              2 |
| [65535.76](#event-6553576)   | 0x0600       |     16 |              2 |
| [65535.77](#event-6553577)   | 0x0610       |     21 |              6 |
| [65535.78](#event-6553578)   | 0x0625       |     20 |              5 |
| [65535.79](#event-6553579)   | 0x0639       |     20 |              5 |
| [65535.80](#event-6553580)   | 0x064D       |     16 |              2 |
| [65535.81](#event-6553581)   | 0x065D       |     20 |              5 |
| [65535.82](#event-6553582)   | 0x0671       |     21 |              6 |
| [65535.83](#event-6553583)   | 0x0686       |     20 |              5 |
| [65535.84](#event-6553584)   | 0x069A       |     12 |              4 |
| [65535.85](#event-6553585)   | 0x06A6       |     16 |              2 |
| [65535.86](#event-6553586)   | 0x06B6       |     16 |              2 |
| [65535.87](#event-6553587)   | 0x06C6       |     20 |              5 |
| [65535.88](#event-6553588)   | 0x06DA       |     20 |              5 |
| [65535.89](#event-6553589)   | 0x06EE       |     17 |              3 |
| [65535.90](#event-6553590)   | 0x06FF       |     16 |              2 |
| [65535.91](#event-6553591)   | 0x070F       |     16 |              2 |
| [65535.92](#event-6553592)   | 0x071F       |     16 |              2 |
| [65535.93](#event-6553593)   | 0x072F       |     16 |              2 |
| [65535.94](#event-6553594)   | 0x073F       |     17 |              3 |
| [65535.95](#event-6553595)   | 0x0750       |     20 |              5 |
| [65535.96](#event-6553596)   | 0x0764       |     12 |              4 |
| [65535.97](#event-6553597)   | 0x0770       |     16 |              2 |
| [65535.98](#event-6553598)   | 0x0780       |     16 |              2 |
| [65535.99](#event-6553599)   | 0x0790       |     16 |              2 |
| [65535.100](#event-65535100) | 0x07A0       |     16 |              2 |
| [65535.101](#event-65535101) | 0x07B0       |     16 |              2 |
| [65535.102](#event-65535102) | 0x07C0       |     16 |              2 |
| [65535.103](#event-65535103) | 0x07D0       |     16 |              2 |
| [65535.104](#event-65535104) | 0x07E0       |     20 |              5 |
| [65535.105](#event-65535105) | 0x07F4       |     20 |              5 |
| [65535.106](#event-65535106) | 0x0808       |     16 |              2 |
| [65535.107](#event-65535107) | 0x0818       |     16 |              2 |

## DAT References (imed_data)

|   Index | Hex Value   |   Dec Value |
|---------|-------------|-------------|
|       0 | 0x000D      |          13 |
|       1 | 0x1C72      |        7282 |
|       2 | 0x1C84      |        7300 |
|       3 | 0x1C85      |        7301 |
|       4 | 0x1C86      |        7302 |
|       5 | 0x1CA8      |        7336 |
|       6 | 0x1CA9      |        7337 |
|       7 | 0x1CAA      |        7338 |
|       8 | 0x1CB2      |        7346 |
|       9 | 0x1CDA      |        7386 |
|      10 | 0x1CDC      |        7388 |
|      11 | 0x0000      |           0 |
|      12 | 0x1BFC      |        7164 |
|      13 | 0x1BFD      |        7165 |
|      14 | 0xFFFF21D6  |  4294910422 |
|      15 | 0xFFFDD47F  |  4294825087 |
|      16 | 0xFFFFFF93  |  4294967187 |
|      17 | 0x0E0C      |        3596 |
|      18 | 0xFFFF2622  |  4294911522 |
|      19 | 0xFFFDDC6B  |  4294827115 |
|      20 | 0xFFFEEF51  |  4294897489 |
|      21 | 0xFFFDEABD  |  4294830781 |
|      22 | 0xFFFFFE28  |  4294966824 |
|      23 | 0x0956      |        2390 |
|      24 | 0xFFFF1CA4  |  4294909092 |
|      25 | 0xFFFDE35D  |  4294828893 |
|      26 | 0x0C4D      |        3149 |
|      27 | 0x0028      |          40 |
|      28 | 0x003C      |          60 |
|      29 | 0x0001      |           1 |
|      30 | 0x000C      |          12 |
|      31 | 0xFFFED6C4  |  4294891204 |
|      32 | 0xFFFDEB5B  |  4294830939 |
|      33 | 0x000B      |          11 |
|      34 | 0xFFFE8B97  |  4294871959 |
|      35 | 0xFFFD9E68  |  4294811240 |
|      36 | 0xFFFF0D87  |  4294905223 |
|      37 | 0xFFFEA0EF  |  4294877423 |
|      38 | 0x176F      |        5999 |
|      39 | 0x0A3A      |        2618 |
|      40 | 0xFFFEB818  |  4294883352 |
|      41 | 0xFFFE098F  |  4294838671 |
|      42 | 0xFFFEF410  |  4294898704 |
|      43 | 0xFFFE85B9  |  4294870457 |
|      44 | 0xFFFEEC91  |  4294896785 |
|      45 | 0xFFFE6EA2  |  4294864546 |
|      46 | 0x0A2A      |        2602 |
|      47 | 0xFFFEE552  |  4294894930 |
|      48 | 0xFFFE3269  |  4294849129 |
|      49 | 0x0A39      |        2617 |
|      50 | 0x0045      |          69 |
|      51 | 0xFFFF2160  |  4294910304 |
|      52 | 0xFFFEA80E  |  4294879246 |
|      53 | 0x0A3D      |        2621 |
|      54 | 0x0A43      |        2627 |
|      55 | 0x004B      |          75 |
|      56 | 0xFFFFB20E  |  4294947342 |
|      57 | 0xFFFFAE2A  |  4294946346 |
|      58 | 0xFFFEDC35  |  4294892597 |
|      59 | 0xFFFE5D95  |  4294860181 |
|      60 | 0x0A47      |        2631 |
|      61 | 0x0055      |          85 |
|      62 | 0xFFFFB26F  |  4294947439 |
|      63 | 0xFFFFAB30  |  4294945584 |
|      64 | 0x000E      |          14 |
|      65 | 0xFFFF6C7D  |  4294929533 |
|      66 | 0xFFFF0AA4  |  4294904484 |
|      67 | 0xFFFFCBCA  |  4294953930 |
|      68 | 0x09E0      |        2528 |
|      69 | 0xFFFFFE3F  |  4294966847 |
|      70 | 0x0029      |          41 |
|      71 | 0xFFFEEA26  |  4294896166 |
|      72 | 0xFFFE4F39  |  4294856505 |
|      73 | 0xFFFED8EC  |  4294891756 |
|      74 | 0xFFFE38BF  |  4294850751 |
|      75 | 0xFFFEC5BC  |  4294886844 |
|      76 | 0xFFFE1640  |  4294841920 |
|      77 | 0x03E7      |         999 |
|      78 | 0x0A33      |        2611 |
|      79 | 0xFFFF04E1  |  4294903009 |
|      80 | 0xFFFE7108  |  4294865160 |
|      81 | 0x108C      |        4236 |
|      82 | 0x10F0      |        4336 |
|      83 | 0xFFFFC3F0  |  4294951920 |
|      84 | 0xFFFFA321  |  4294943521 |
|      85 | 0xFFFFFF9B  |  4294967195 |
|      86 | 0x000A      |          10 |
|      87 | 0x0A18      |        2584 |
|      88 | 0xFFFFFC21  |  4294966305 |
|      89 | 0x084B      |        2123 |
|      90 | 0x0008      |           8 |
|      91 | 0x0033      |          51 |
|      92 | 0xFFFF0DFA  |  4294905338 |
|      93 | 0xFFFE6C9D  |  4294864029 |
|      94 | 0xFFFEFBE3  |  4294900707 |
|      95 | 0xFFFE9775  |  4294874997 |
|      96 | 0xFFFF19CD  |  4294908365 |
|      97 | 0xFFFEAC62  |  4294880354 |
|      98 | 0xFFFECE8B  |  4294889099 |
|      99 | 0xFFFE3998  |  4294850968 |
|     100 | 0x0F9F      |        3999 |
|     101 | 0x0A17      |        2583 |
|     102 | 0xFFFFD965  |  4294957413 |
|     103 | 0xFFFFD99E  |  4294957470 |
|     104 | 0x0009      |           9 |
|     105 | 0xFFFEE68C  |  4294895244 |
|     106 | 0xFFFE6FBD  |  4294864829 |
|     107 | 0xFFFFE923  |  4294961443 |
|     108 | 0xFFFFEBBA  |  4294962106 |
|     109 | 0xFFFF4F66  |  4294922086 |
|     110 | 0xFFFEA394  |  4294878100 |
|     111 | 0xFFFFE891  |  4294961297 |
|     112 | 0xFFFFB859  |  4294948953 |
|     113 | 0xFFFFDFA2  |  4294959010 |
|     114 | 0xFFFFB9ED  |  4294949357 |
|     115 | 0xFFFFBF3D  |  4294950717 |
|     116 | 0xFFFFF407  |  4294964231 |
|     117 | 0xFFFFE105  |  4294959365 |
|     118 | 0x0A40      |        2624 |
|     119 | 0xFFFF6A1D  |  4294928925 |
|     120 | 0xFFFEF858  |  4294899800 |
|     121 | 0xFFFFEA43  |  4294961731 |
|     122 | 0xFFFFF8F4  |  4294965492 |
|     123 | 0x0002      |           2 |
|     124 | 0xFFFFF533  |  4294964531 |
|     125 | 0x13C3      |        5059 |

## String References

- **7164**: The petition is complete!
- **7165**: You have $0 more [signature/signatures] to go.
- **7346**: I can't believe that could happen to our Two! <Player>, please help us!
- **7386**: We're so grateful for all you've done. I'm sure you've taught Panta a valuable lesson, too.
- **7388**: What? You want me to sign your petition for the clock tower? Well, why not?

## Events

### Event 65535

#### Metadata

| Field        | Value   |
|--------------|---------|
| Entrypoint   | 0x0000  |
| Data Size    | 4 bytes |
| Instructions | 2       |

```
      00 01 02 03 04 05 06 07  08 09 0A 0B 0C 0D 0E 0F
      -- -- -- -- -- -- -- --  -- -- -- -- -- -- -- --
0000: 32 00 80 00                                       2...            
```

#### Opcodes

```
  0: 0x0000 [0x32] ExtData[1]->MainSpeed = 13* * 0.1
  1: 0x0003 [0x00] END_REQSTACK()
```

### Event 75

#### Metadata

| Field        | Value    |
|--------------|----------|
| Entrypoint   | 0x0004   |
| Data Size    | 27 bytes |
| Instructions | 8        |

```
      00 01 02 03 04 05 06 07  08 09 0A 0B 0C 0D 0E 0F
      -- -- -- -- -- -- -- --  -- -- -- -- -- -- -- --
0000:             20 01 4A 14  50 0F 01 F0 FF FF 7F 6F       .J.P......o
0010: 76 14 50 0F 01 2B 14 50  0F 01 01 80 23 21 00     v.P..+.P....#!. 
```

#### Opcodes

```
  0: 0x0004 [0x20] SET_CLI_EVENT_UC_FLAG: Lock player control
  1: 0x0006 [0x4A] Teigero-Bangero (ID: 17780756/0x010F5014) looks at LocalPlayer
  2: 0x000F [0x6F] WAIT_FRAME_DELAY: Yield until WaitTime reaches zero
  3: 0x0010 [0x76] CHECK_ENTITY_RENDER_FLAGS: Wait until Teigero-Bangero (ID: 17780756/0x010F5014) Render.Flags0 and Render.Flags3 conditions are met
  4: 0x0015 [0x2B] Teigero-Bangero (ID: 17780756/0x010F5014) [7282*]:
    → "Hm? Oh, I thought you were Two. He should be back any minutaru..."
  5: 0x001C [0x23] WAIT_FOR_DIALOG_INTERACTION
  6: 0x001D [0x21] END_EVENT
  7: 0x001E [0x00] END_REQSTACK()
```

### Event 34

#### Metadata

| Field        | Value   |
|--------------|---------|
| Entrypoint   | 0x001F  |
| Data Size    | 1 bytes |
| Instructions | 1       |

```
      00 01 02 03 04 05 06 07  08 09 0A 0B 0C 0D 0E 0F
      -- -- -- -- -- -- -- --  -- -- -- -- -- -- -- --
0010:                                               00                 .
```

#### Opcodes

```
  0: 0x001F [0x00] END_REQSTACK()
```

### Event 32

#### Metadata

| Field        | Value    |
|--------------|----------|
| Entrypoint   | 0x0020   |
| Data Size    | 33 bytes |
| Instructions | 10       |

```
      00 01 02 03 04 05 06 07  08 09 0A 0B 0C 0D 0E 0F
      -- -- -- -- -- -- -- --  -- -- -- -- -- -- -- --
0020: 20 01 1E F0 FF FF 7F 2B  14 50 0F 01 02 80 23 2B   ......+.P....#+
0030: 14 50 0F 01 03 80 23 2B  14 50 0F 01 04 80 23 21  .P....#+.P....#!
0040: 00                                                .               
```

#### Opcodes

```
  0: 0x0020 [0x20] SET_CLI_EVENT_UC_FLAG: Lock player control
  1: 0x0022 [0x1E] EventEntity looks at LocalPlayer and starts talking
  2: 0x0027 [0x2B] Teigero-Bangero (ID: 17780756/0x010F5014) [7300*]:
    → "I salvaged that Cardian when Panta was just a cub. We didn't think he'd make it, but somehow he started up."
  3: 0x002E [0x23] WAIT_FOR_DIALOG_INTERACTION
  4: 0x002F [0x2B] Teigero-Bangero (ID: 17780756/0x010F5014) [7301*]:
    → "Both me and my wife used to work back then, doing all we could to make ends meet. But how could we take care of little Panta with both of us slavey-waving away?"
  5: 0x0036 [0x23] WAIT_FOR_DIALOG_INTERACTION
  6: 0x0037 [0x2B] Teigero-Bangero (ID: 17780756/0x010F5014) [7302*]:
    → "That's where Two came in. We were so grateful for his help. He's such an earnest Cardian. We don't know what we'd do without him."
  7: 0x003E [0x23] WAIT_FOR_DIALOG_INTERACTION
  8: 0x003F [0x21] END_EVENT
  9: 0x0040 [0x00] END_REQSTACK()
```

### Event 29

#### Metadata

| Field        | Value    |
|--------------|----------|
| Entrypoint   | 0x0041   |
| Data Size    | 56 bytes |
| Instructions | 14       |

```
      00 01 02 03 04 05 06 07  08 09 0A 0B 0C 0D 0E 0F
      -- -- -- -- -- -- -- --  -- -- -- -- -- -- -- --
0040:    4A 14 50 0F 01 15 50  0F 01 6F 76 14 50 0F 01   J.P...P..ov.P..
0050: 2B 14 50 0F 01 05 80 23  4A 15 50 0F 01 14 50 0F  +.P....#J.P...P.
0060: 01 6F 76 15 50 0F 01 2B  15 50 0F 01 06 80 23 2B  .ov.P..+.P....#+
0070: 14 50 0F 01 07 80 23 21  00                       .P....#!.       
```

#### Opcodes

```
  0: 0x0041 [0x4A] Teigero-Bangero (ID: 17780756/0x010F5014) looks at Naruru (ID: 17780757/0x010F5015)
  1: 0x004A [0x6F] WAIT_FRAME_DELAY: Yield until WaitTime reaches zero
  2: 0x004B [0x76] CHECK_ENTITY_RENDER_FLAGS: Wait until Teigero-Bangero (ID: 17780756/0x010F5014) Render.Flags0 and Render.Flags3 conditions are met
  3: 0x0050 [0x2B] Teigero-Bangero (ID: 17780756/0x010F5014) [7336*]:
    → "Hey, I haven't seen Two lately. Did you send him off someplace?"
  4: 0x0057 [0x23] WAIT_FOR_DIALOG_INTERACTION
  5: 0x0058 [0x4A] Naruru (ID: 17780757/0x010F5015) looks at Teigero-Bangero (ID: 17780756/0x010F5014)
  6: 0x0061 [0x6F] WAIT_FRAME_DELAY: Yield until WaitTime reaches zero
  7: 0x0062 [0x76] CHECK_ENTITY_RENDER_FLAGS: Wait until Naruru (ID: 17780757/0x010F5015) Render.Flags0 and Render.Flags3 conditions are met
  8: 0x0067 [0x2B] Naruru (ID: 17780757/0x010F5015) [7337*]:
    → "No, dear... He must have just wandered off. I wonder what's the matter with him."
  9: 0x006E [0x23] WAIT_FOR_DIALOG_INTERACTION
 10: 0x006F [0x2B] Teigero-Bangero (ID: 17780756/0x010F5014) [7338*]:
    → "Yeah, it's not like him. We'd better ask the neighbors if they've seen him."
 11: 0x0076 [0x23] WAIT_FOR_DIALOG_INTERACTION
 12: 0x0077 [0x21] END_EVENT
 13: 0x0078 [0x00] END_REQSTACK()
```

### Event 66

#### Metadata

| Field        | Value    |
|--------------|----------|
| Entrypoint   | 0x0079   |
| Data Size    | 11 bytes |
| Instructions | 5        |

```
      00 01 02 03 04 05 06 07  08 09 0A 0B 0C 0D 0E 0F
      -- -- -- -- -- -- -- --  -- -- -- -- -- -- -- --
0070:                             1E F0 FF FF 7F 1D 08           .......
0080: 80 23 21 00                                       .#!.            
```

#### Opcodes

```
  0: 0x0079 [0x1E] EventEntity looks at LocalPlayer and starts talking
  1: 0x007E [0x1D] PRINT_EVENT_MESSAGE(message_id=7346*)
    → "I can't believe that could happen to our Two! <Player>, please help us!"
  2: 0x0081 [0x23] WAIT_FOR_DIALOG_INTERACTION
  3: 0x0082 [0x21] END_EVENT
  4: 0x0083 [0x00] END_REQSTACK()
```

### Event 67

#### Metadata

| Field        | Value    |
|--------------|----------|
| Entrypoint   | 0x0084   |
| Data Size    | 11 bytes |
| Instructions | 5        |

```
      00 01 02 03 04 05 06 07  08 09 0A 0B 0C 0D 0E 0F
      -- -- -- -- -- -- -- --  -- -- -- -- -- -- -- --
0080:             1E F0 FF FF  7F 1D 09 80 23 21 00         ........#!. 
```

#### Opcodes

```
  0: 0x0084 [0x1E] EventEntity looks at LocalPlayer and starts talking
  1: 0x0089 [0x1D] PRINT_EVENT_MESSAGE(message_id=7386*)
    → "We're so grateful for all you've done. I'm sure you've taught Panta a valuable lesson, too."
  2: 0x008C [0x23] WAIT_FOR_DIALOG_INTERACTION
  3: 0x008D [0x21] END_EVENT
  4: 0x008E [0x00] END_REQSTACK()
```

### Event 35

#### Metadata

| Field        | Value   |
|--------------|---------|
| Entrypoint   | 0x008F  |
| Data Size    | 1 bytes |
| Instructions | 1       |

```
      00 01 02 03 04 05 06 07  08 09 0A 0B 0C 0D 0E 0F
      -- -- -- -- -- -- -- --  -- -- -- -- -- -- -- --
0080:                                               00                 .
```

#### Opcodes

```
  0: 0x008F [0x00] END_REQSTACK()
```

### Event 74

#### Metadata

| Field        | Value    |
|--------------|----------|
| Entrypoint   | 0x0090   |
| Data Size    | 33 bytes |
| Instructions | 13       |

```
      00 01 02 03 04 05 06 07  08 09 0A 0B 0C 0D 0E 0F
      -- -- -- -- -- -- -- --  -- -- -- -- -- -- -- --
0090: 20 01 42 1E F0 FF FF 7F  1D 0A 80 23 02 02 10 0B   .B........#....
00A0: 80 00 AB 00 48 0C 80 23  01 AF 00 48 0D 80 23 21  ....H..#...H..#!
00B0: 00                                                .               
```

#### Opcodes

```
  0: 0x0090 [0x20] SET_CLI_EVENT_UC_FLAG: Lock player control
  1: 0x0092 [0x42] SET_CLI_EVENT_CANCEL_DATA()
  2: 0x0093 [0x1E] EventEntity looks at LocalPlayer and starts talking
  3: 0x0098 [0x1D] PRINT_EVENT_MESSAGE(message_id=7388*)
    → "What? You want me to sign your petition for the clock tower? Well, why not?"
  4: 0x009B [0x23] WAIT_FOR_DIALOG_INTERACTION
  5: 0x009C [0x02] IF !(Work_Zone[2] == 0*) GOTO 0x00AB
  6: 0x00A4 [0x48] [System] [7164*]:
    → "The petition is complete!"
  7: 0x00A7 [0x23] WAIT_FOR_DIALOG_INTERACTION
  8: 0x00A8 [0x01] GOTO 0x00AF
  9: 0x00AB [0x48] [System] [7165*]:
    → "You have $0 more [signature/signatures] to go."
 10: 0x00AE [0x23] WAIT_FOR_DIALOG_INTERACTION

SUBROUTINE_00AF:
 11: 0x00AF [0x21] END_EVENT
 12: 0x00B0 [0x00] END_REQSTACK()
```

### Event 65535.1

#### Metadata

| Field        | Value    |
|--------------|----------|
| Entrypoint   | 0x00B1   |
| Data Size    | 30 bytes |
| Instructions | 6        |

```
      00 01 02 03 04 05 06 07  08 09 0A 0B 0C 0D 0E 0F
      -- -- -- -- -- -- -- --  -- -- -- -- -- -- -- --
00B0:    37 0E 80 0F 80 10 80  11 80 1F 00 12 80 13 80   7..............
00C0: 10 80 1F 01 6F 4A 14 50  0F 01 16 50 0F 01 00     ....oJ.P...P... 
```

#### Opcodes

```
  0: 0x00B1 [0x37] UPDATE_EVENT_POSITION_AND_DIR: x=-56.874*, z=-142.209*, y=-0.109*, direction=316.0°*
  1: 0x00BA [0x1F] MOVE_ENTITY: EventEntity moves to X=-55.774*, Z=-140.181*, Y=-0.109*
  2: 0x00C2 [0x1F] MOVE_ENTITY: Update entity position (mode=1)
  3: 0x00C4 [0x6F] WAIT_FRAME_DELAY: Yield until WaitTime reaches zero
  4: 0x00C5 [0x4A] Teigero-Bangero (ID: 17780756/0x010F5014) looks at Panta-Putta (ID: 17780758/0x010F5016)
  5: 0x00CE [0x00] END_REQSTACK()
```

### Event 65535.2

#### Metadata

| Field        | Value    |
|--------------|----------|
| Entrypoint   | 0x00CF   |
| Data Size    | 10 bytes |
| Instructions | 2        |

```
      00 01 02 03 04 05 06 07  08 09 0A 0B 0C 0D 0E 0F
      -- -- -- -- -- -- -- --  -- -- -- -- -- -- -- --
00C0:                                               37                 7
00D0: 14 80 15 80 16 80 17 80  00                       .........       
```

#### Opcodes

```
  0: 0x00CF [0x37] UPDATE_EVENT_POSITION_AND_DIR: x=-69.807*, z=-136.515*, y=-0.472*, direction=210.1°*
  1: 0x00D8 [0x00] END_REQSTACK()
```

### Event 65535.3

#### Metadata

| Field        | Value    |
|--------------|----------|
| Entrypoint   | 0x00D9   |
| Data Size    | 10 bytes |
| Instructions | 2        |

```
      00 01 02 03 04 05 06 07  08 09 0A 0B 0C 0D 0E 0F
      -- -- -- -- -- -- -- --  -- -- -- -- -- -- -- --
00D0:                             37 18 80 19 80 10 80           7......
00E0: 1A 80 00                                          ...             
```

#### Opcodes

```
  0: 0x00D9 [0x37] UPDATE_EVENT_POSITION_AND_DIR: x=-58.204*, z=-138.403*, y=-0.109*, direction=276.8°*
  1: 0x00E2 [0x00] END_REQSTACK()
```

### Event 65535.4

#### Metadata

| Field        | Value    |
|--------------|----------|
| Entrypoint   | 0x00E3   |
| Data Size    | 29 bytes |
| Instructions | 3        |

```
      00 01 02 03 04 05 06 07  08 09 0A 0B 0C 0D 0E 0F
      -- -- -- -- -- -- -- --  -- -- -- -- -- -- -- --
00E0:          66 1B 80 F8 FF  FF 7F F8 FF FF 7F 74 68     f..........th
00F0: 6B 31 53 F8 FF FF 7F F8  FF FF 7F 74 68 6B 31 00  k1S........thk1.
```

#### Opcodes

```
  0: 0x00E3 [0x66] LOAD_EXT_SCHEDULER_MAIN: Load scheduler "thk1" with entities [EventEntity, EventEntity], work=40*
  1: 0x00F2 [0x53] WAIT_SCHEDULER_TASK: Wait for scheduler "thk1" with entities [EventEntity, EventEntity]
  2: 0x00FF [0x00] END_REQSTACK()
```

### Event 65535.5

#### Metadata

| Field        | Value    |
|--------------|----------|
| Entrypoint   | 0x0100   |
| Data Size    | 29 bytes |
| Instructions | 3        |

```
      00 01 02 03 04 05 06 07  08 09 0A 0B 0C 0D 0E 0F
      -- -- -- -- -- -- -- --  -- -- -- -- -- -- -- --
0100: 66 1B 80 F8 FF FF 7F F8  FF FF 7F 74 68 6B 32 53  f..........thk2S
0110: F8 FF FF 7F F8 FF FF 7F  74 68 6B 32 00           ........thk2.   
```

#### Opcodes

```
  0: 0x0100 [0x66] LOAD_EXT_SCHEDULER_MAIN: Load scheduler "thk2" with entities [EventEntity, EventEntity], work=40*
  1: 0x010F [0x53] WAIT_SCHEDULER_TASK: Wait for scheduler "thk2" with entities [EventEntity, EventEntity]
  2: 0x011C [0x00] END_REQSTACK()
```

### Event 65535.6

#### Metadata

| Field        | Value    |
|--------------|----------|
| Entrypoint   | 0x011D   |
| Data Size    | 29 bytes |
| Instructions | 3        |

```
      00 01 02 03 04 05 06 07  08 09 0A 0B 0C 0D 0E 0F
      -- -- -- -- -- -- -- --  -- -- -- -- -- -- -- --
0110:                                         66 1B 80               f..
0120: F8 FF FF 7F F8 FF FF 7F  64 69 73 30 53 F8 FF FF  ........dis0S...
0130: 7F F8 FF FF 7F 64 69 73  30 00                    .....dis0.      
```

#### Opcodes

```
  0: 0x011D [0x66] LOAD_EXT_SCHEDULER_MAIN: Load scheduler "dis0" with entities [EventEntity, EventEntity], work=40*
  1: 0x012C [0x53] WAIT_SCHEDULER_TASK: Wait for scheduler "dis0" with entities [EventEntity, EventEntity]
  2: 0x0139 [0x00] END_REQSTACK()
```

### Event 65535.7

#### Metadata

| Field        | Value    |
|--------------|----------|
| Entrypoint   | 0x013A   |
| Data Size    | 29 bytes |
| Instructions | 3        |

```
      00 01 02 03 04 05 06 07  08 09 0A 0B 0C 0D 0E 0F
      -- -- -- -- -- -- -- --  -- -- -- -- -- -- -- --
0130:                                66 1B 80 F8 FF FF            f.....
0140: 7F F8 FF FF 7F 74 6C 6B  30 53 F8 FF FF 7F F8 FF  .....tlk0S......
0150: FF 7F 74 6C 6B 30 00                              ..tlk0.         
```

#### Opcodes

```
  0: 0x013A [0x66] LOAD_EXT_SCHEDULER_MAIN: Load scheduler "tlk0" with entities [EventEntity, EventEntity], work=40*
  1: 0x0149 [0x53] WAIT_SCHEDULER_TASK: Wait for scheduler "tlk0" with entities [EventEntity, EventEntity]
  2: 0x0156 [0x00] END_REQSTACK()
```

### Event 65535.8

#### Metadata

| Field        | Value    |
|--------------|----------|
| Entrypoint   | 0x0157   |
| Data Size    | 29 bytes |
| Instructions | 3        |

```
      00 01 02 03 04 05 06 07  08 09 0A 0B 0C 0D 0E 0F
      -- -- -- -- -- -- -- --  -- -- -- -- -- -- -- --
0150:                      66  1B 80 F8 FF FF 7F F8 FF         f........
0160: FF 7F 73 79 75 30 53 F8  FF FF 7F F8 FF FF 7F 73  ..syu0S........s
0170: 79 75 30 00                                       yu0.            
```

#### Opcodes

```
  0: 0x0157 [0x66] LOAD_EXT_SCHEDULER_MAIN: Load scheduler "syu0" with entities [EventEntity, EventEntity], work=40*
  1: 0x0166 [0x53] WAIT_SCHEDULER_TASK: Wait for scheduler "syu0" with entities [EventEntity, EventEntity]
  2: 0x0173 [0x00] END_REQSTACK()
```

### Event 65535.9

#### Metadata

| Field        | Value   |
|--------------|---------|
| Entrypoint   | 0x0174  |
| Data Size    | 9 bytes |
| Instructions | 3       |

```
      00 01 02 03 04 05 06 07  08 09 0A 0B 0C 0D 0E 0F
      -- -- -- -- -- -- -- --  -- -- -- -- -- -- -- --
0170:             5E 69 64 6C  30 1C 1C 80 00               ^idl0....   
```

#### Opcodes

```
  0: 0x0174 [0x5E] EventEntity goes idle (kills current action) (animation: "idl0")
  1: 0x0179 [0x1C] WAIT(60* ticks)
  2: 0x017C [0x00] END_REQSTACK()
```

### Event 65535.10

#### Metadata

| Field        | Value   |
|--------------|---------|
| Entrypoint   | 0x017D  |
| Data Size    | 2 bytes |
| Instructions | 1       |

```
      00 01 02 03 04 05 06 07  08 09 0A 0B 0C 0D 0E 0F
      -- -- -- -- -- -- -- --  -- -- -- -- -- -- -- --
0170:                                         00 00                  .. 
```

#### Opcodes

```
  0: 0x017D [0x00] END_REQSTACK()
```

#### Data or dead code:

```
# Dead code (unreachable instructions):
     0x017E [0x00] END_REQSTACK()
```

### Event 10094

#### Metadata

| Field        | Value   |
|--------------|---------|
| Entrypoint   | 0x017F  |
| Data Size    | 5 bytes |
| Instructions | 2       |

```
      00 01 02 03 04 05 06 07  08 09 0A 0B 0C 0D 0E 0F
      -- -- -- -- -- -- -- --  -- -- -- -- -- -- -- --
0170:                                               C0                 .
0180: 1D 80 00 00                                       ....            
```

#### Opcodes

```
  0: 0x017F [0xC0] EventEntity->Render.Flags3 |= 0x1000 // Set bit 12 (from 1*)
  1: 0x0182 [0x00] END_REQSTACK()
```

#### Data or dead code:

```
# Dead code (unreachable instructions):
     0x0183 [0x00] END_REQSTACK()
```

### Event 65535.11

#### Metadata

| Field        | Value    |
|--------------|----------|
| Entrypoint   | 0x0184   |
| Data Size    | 20 bytes |
| Instructions | 5        |

```
      00 01 02 03 04 05 06 07  08 09 0A 0B 0C 0D 0E 0F
      -- -- -- -- -- -- -- --  -- -- -- -- -- -- -- --
0180:             59 04 0B 50  0F 01 1E 80 1F 00 1F 80      Y..P........
0190: 20 80 0B 80 1F 01 6F 00                            .....o.        
```

#### Opcodes

```
  0: 0x0184 [0x59] UPDATE_ENTITY_DATA: Set Garnev (ID: 17780747/0x010F500B) main speed = 12* * 0.1
  1: 0x018C [0x1F] MOVE_ENTITY: EventEntity moves to X=-76.092*, Z=-136.357*, Y=0.000*
  2: 0x0194 [0x1F] MOVE_ENTITY: Update entity position (mode=1)
  3: 0x0196 [0x6F] WAIT_FRAME_DELAY: Yield until WaitTime reaches zero
  4: 0x0197 [0x00] END_REQSTACK()
```

### Event 65535.12

#### Metadata

| Field        | Value    |
|--------------|----------|
| Entrypoint   | 0x0198   |
| Data Size    | 20 bytes |
| Instructions | 5        |

```
      00 01 02 03 04 05 06 07  08 09 0A 0B 0C 0D 0E 0F
      -- -- -- -- -- -- -- --  -- -- -- -- -- -- -- --
0190:                          59 04 1D 50 0F 01 21 80          Y..P..!.
01A0: 1F 00 22 80 23 80 0B 80  1F 01 6F 00              ..".#.....o.    
```

#### Opcodes

```
  0: 0x0198 [0x59] UPDATE_ENTITY_DATA: Set Mataligeat (ID: 17780765/0x010F501D) main speed = 11* * 0.1
  1: 0x01A0 [0x1F] MOVE_ENTITY: EventEntity moves to X=-95.337*, Z=-156.056*, Y=0.000*
  2: 0x01A8 [0x1F] MOVE_ENTITY: Update entity position (mode=1)
  3: 0x01AA [0x6F] WAIT_FRAME_DELAY: Yield until WaitTime reaches zero
  4: 0x01AB [0x00] END_REQSTACK()
```

### Event 65535.13

#### Metadata

| Field        | Value    |
|--------------|----------|
| Entrypoint   | 0x01AC   |
| Data Size    | 20 bytes |
| Instructions | 5        |

```
      00 01 02 03 04 05 06 07  08 09 0A 0B 0C 0D 0E 0F
      -- -- -- -- -- -- -- --  -- -- -- -- -- -- -- --
01A0:                                      59 04 1D 50              Y..P
01B0: 0F 01 21 80 1F 00 24 80  25 80 26 80 1F 01 6F 00  ..!...$.%.&...o.
```

#### Opcodes

```
  0: 0x01AC [0x59] UPDATE_ENTITY_DATA: Set Mataligeat (ID: 17780765/0x010F501D) main speed = 11* * 0.1
  1: 0x01B4 [0x1F] MOVE_ENTITY: EventEntity moves to X=-62.073*, Z=-89.873*, Y=5.999*
  2: 0x01BC [0x1F] MOVE_ENTITY: Update entity position (mode=1)
  3: 0x01BE [0x6F] WAIT_FRAME_DELAY: Yield until WaitTime reaches zero
  4: 0x01BF [0x00] END_REQSTACK()
```

### Event 65535.14

#### Metadata

| Field        | Value    |
|--------------|----------|
| Entrypoint   | 0x01C0   |
| Data Size    | 17 bytes |
| Instructions | 2        |

```
      00 01 02 03 04 05 06 07  08 09 0A 0B 0C 0D 0E 0F
      -- -- -- -- -- -- -- --  -- -- -- -- -- -- -- --
01C0: 5B 27 80 1D 50 0F 01 1D  50 0F 01 6F 70 30 30 00  ['..P...P..op00.
01D0: 00                                                .               
```

#### Opcodes

```
  0: 0x01C0 [0x5B] LOAD_EXT_SCHEDULER: Load scheduler "op00" with entities [Mataligeat (ID: 17780765/0x010F501D), Mataligeat (ID: 17780765/0x010F501D)], work=2618*
  1: 0x01CF [0x00] END_REQSTACK()
```

#### Data or dead code:

```
# Dead code (unreachable instructions):
     0x01D0 [0x00] END_REQSTACK()
```

### Event 65535.15

#### Metadata

| Field        | Value    |
|--------------|----------|
| Entrypoint   | 0x01D1   |
| Data Size    | 20 bytes |
| Instructions | 5        |

```
      00 01 02 03 04 05 06 07  08 09 0A 0B 0C 0D 0E 0F
      -- -- -- -- -- -- -- --  -- -- -- -- -- -- -- --
01D0:    59 04 3A 50 0F 01 21  80 1F 00 22 80 23 80 0B   Y.:P..!...".#..
01E0: 80 1F 01 6F 00                                    ...o.           
```

#### Opcodes

```
  0: 0x01D1 [0x59] UPDATE_ENTITY_DATA: Set Navisse (ID: 17780794/0x010F503A) main speed = 11* * 0.1
  1: 0x01D9 [0x1F] MOVE_ENTITY: EventEntity moves to X=-95.337*, Z=-156.056*, Y=0.000*
  2: 0x01E1 [0x1F] MOVE_ENTITY: Update entity position (mode=1)
  3: 0x01E3 [0x6F] WAIT_FRAME_DELAY: Yield until WaitTime reaches zero
  4: 0x01E4 [0x00] END_REQSTACK()
```

### Event 65535.16

#### Metadata

| Field        | Value    |
|--------------|----------|
| Entrypoint   | 0x01E5   |
| Data Size    | 20 bytes |
| Instructions | 5        |

```
      00 01 02 03 04 05 06 07  08 09 0A 0B 0C 0D 0E 0F
      -- -- -- -- -- -- -- --  -- -- -- -- -- -- -- --
01E0:                59 04 2C  50 0F 01 1E 80 1F 00 28       Y.,P......(
01F0: 80 29 80 0B 80 1F 01 6F  00                       .).....o.       
```

#### Opcodes

```
  0: 0x01E5 [0x59] UPDATE_ENTITY_DATA: Set Jazmin (ID: 17780780/0x010F502C) main speed = 12* * 0.1
  1: 0x01ED [0x1F] MOVE_ENTITY: EventEntity moves to X=-83.944*, Z=-128.625*, Y=0.000*
  2: 0x01F5 [0x1F] MOVE_ENTITY: Update entity position (mode=1)
  3: 0x01F7 [0x6F] WAIT_FRAME_DELAY: Yield until WaitTime reaches zero
  4: 0x01F8 [0x00] END_REQSTACK()
```

### Event 65535.17

#### Metadata

| Field        | Value    |
|--------------|----------|
| Entrypoint   | 0x01F9   |
| Data Size    | 19 bytes |
| Instructions | 4        |

```
      00 01 02 03 04 05 06 07  08 09 0A 0B 0C 0D 0E 0F
      -- -- -- -- -- -- -- --  -- -- -- -- -- -- -- --
01F0:                             59 04 2C 50 0F 01 21           Y.,P..!
0200: 80 1F 00 2A 80 2B 80 26  80 1F 01 00              ...*.+.&....    
```

#### Opcodes

```
  0: 0x01F9 [0x59] UPDATE_ENTITY_DATA: Set Jazmin (ID: 17780780/0x010F502C) main speed = 11* * 0.1
  1: 0x0201 [0x1F] MOVE_ENTITY: EventEntity moves to X=-68.592*, Z=-96.839*, Y=5.999*
  2: 0x0209 [0x1F] MOVE_ENTITY: Update entity position (mode=1)
  3: 0x020B [0x00] END_REQSTACK()
```

### Event 65535.18

#### Metadata

| Field        | Value    |
|--------------|----------|
| Entrypoint   | 0x020C   |
| Data Size    | 19 bytes |
| Instructions | 4        |

```
      00 01 02 03 04 05 06 07  08 09 0A 0B 0C 0D 0E 0F
      -- -- -- -- -- -- -- --  -- -- -- -- -- -- -- --
0200:                                      59 04 2C 50              Y.,P
0210: 0F 01 21 80 1F 00 2C 80  2D 80 26 80 1F 01 00     ..!...,.-.&.... 
```

#### Opcodes

```
  0: 0x020C [0x59] UPDATE_ENTITY_DATA: Set Jazmin (ID: 17780780/0x010F502C) main speed = 11* * 0.1
  1: 0x0214 [0x1F] MOVE_ENTITY: EventEntity moves to X=-70.511*, Z=-102.750*, Y=5.999*
  2: 0x021C [0x1F] MOVE_ENTITY: Update entity position (mode=1)
  3: 0x021E [0x00] END_REQSTACK()
```

### Event 65535.19

#### Metadata

| Field        | Value    |
|--------------|----------|
| Entrypoint   | 0x021F   |
| Data Size    | 16 bytes |
| Instructions | 2        |

```
      00 01 02 03 04 05 06 07  08 09 0A 0B 0C 0D 0E 0F
      -- -- -- -- -- -- -- --  -- -- -- -- -- -- -- --
0210:                                               5B                 [
0220: 2E 80 2C 50 0F 01 2C 50  0F 01 6F 70 30 30 00     ..,P..,P..op00. 
```

#### Opcodes

```
  0: 0x021F [0x5B] LOAD_EXT_SCHEDULER: Load scheduler "op00" with entities [Jazmin (ID: 17780780/0x010F502C), Jazmin (ID: 17780780/0x010F502C)], work=2602*
  1: 0x022E [0x00] END_REQSTACK()
```

### Event 65535.20

#### Metadata

| Field        | Value    |
|--------------|----------|
| Entrypoint   | 0x022F   |
| Data Size    | 16 bytes |
| Instructions | 2        |

```
      00 01 02 03 04 05 06 07  08 09 0A 0B 0C 0D 0E 0F
      -- -- -- -- -- -- -- --  -- -- -- -- -- -- -- --
0220:                                               5B                 [
0230: 2E 80 2C 50 0F 01 2C 50  0F 01 6F 70 30 31 00     ..,P..,P..op01. 
```

#### Opcodes

```
  0: 0x022F [0x5B] LOAD_EXT_SCHEDULER: Load scheduler "op01" with entities [Jazmin (ID: 17780780/0x010F502C), Jazmin (ID: 17780780/0x010F502C)], work=2602*
  1: 0x023E [0x00] END_REQSTACK()
```

### Event 65535.21

#### Metadata

| Field        | Value    |
|--------------|----------|
| Entrypoint   | 0x023F   |
| Data Size    | 20 bytes |
| Instructions | 5        |

```
      00 01 02 03 04 05 06 07  08 09 0A 0B 0C 0D 0E 0F
      -- -- -- -- -- -- -- --  -- -- -- -- -- -- -- --
0230:                                               59                 Y
0240: 04 2C 50 0F 01 21 80 1F  00 2F 80 30 80 26 80 1F  .,P..!.../.0.&..
0250: 01 6F 00                                          .o.             
```

#### Opcodes

```
  0: 0x023F [0x59] UPDATE_ENTITY_DATA: Set Jazmin (ID: 17780780/0x010F502C) main speed = 11* * 0.1
  1: 0x0247 [0x1F] MOVE_ENTITY: EventEntity moves to X=-72.366*, Z=-118.167*, Y=5.999*
  2: 0x024F [0x1F] MOVE_ENTITY: Update entity position (mode=1)
  3: 0x0251 [0x6F] WAIT_FRAME_DELAY: Yield until WaitTime reaches zero
  4: 0x0252 [0x00] END_REQSTACK()
```

### Event 65535.22

#### Metadata

| Field        | Value    |
|--------------|----------|
| Entrypoint   | 0x0253   |
| Data Size    | 16 bytes |
| Instructions | 2        |

```
      00 01 02 03 04 05 06 07  08 09 0A 0B 0C 0D 0E 0F
      -- -- -- -- -- -- -- --  -- -- -- -- -- -- -- --
0250:          5B 31 80 2C 50  0F 01 2C 50 0F 01 6F 70     [1.,P..,P..op
0260: 61 30 00                                          a0.             
```

#### Opcodes

```
  0: 0x0253 [0x5B] LOAD_EXT_SCHEDULER: Load scheduler "opa0" with entities [Jazmin (ID: 17780780/0x010F502C), Jazmin (ID: 17780780/0x010F502C)], work=2617*
  1: 0x0262 [0x00] END_REQSTACK()
```

### Event 65535.23

#### Metadata

| Field        | Value    |
|--------------|----------|
| Entrypoint   | 0x0263   |
| Data Size    | 16 bytes |
| Instructions | 2        |

```
      00 01 02 03 04 05 06 07  08 09 0A 0B 0C 0D 0E 0F
      -- -- -- -- -- -- -- --  -- -- -- -- -- -- -- --
0260:          5B 31 80 2C 50  0F 01 2C 50 0F 01 6F 70     [1.,P..,P..op
0270: 61 31 00                                          a1.             
```

#### Opcodes

```
  0: 0x0263 [0x5B] LOAD_EXT_SCHEDULER: Load scheduler "opa1" with entities [Jazmin (ID: 17780780/0x010F502C), Jazmin (ID: 17780780/0x010F502C)], work=2617*
  1: 0x0272 [0x00] END_REQSTACK()
```

### Event 65535.24

#### Metadata

| Field        | Value    |
|--------------|----------|
| Entrypoint   | 0x0273   |
| Data Size    | 16 bytes |
| Instructions | 2        |

```
      00 01 02 03 04 05 06 07  08 09 0A 0B 0C 0D 0E 0F
      -- -- -- -- -- -- -- --  -- -- -- -- -- -- -- --
0270:          5B 31 80 2C 50  0F 01 2C 50 0F 01 6F 70     [1.,P..,P..op
0280: 61 32 00                                          a2.             
```

#### Opcodes

```
  0: 0x0273 [0x5B] LOAD_EXT_SCHEDULER: Load scheduler "opa2" with entities [Jazmin (ID: 17780780/0x010F502C), Jazmin (ID: 17780780/0x010F502C)], work=2617*
  1: 0x0282 [0x00] END_REQSTACK()
```

### Event 65535.25

#### Metadata

| Field        | Value    |
|--------------|----------|
| Entrypoint   | 0x0283   |
| Data Size    | 21 bytes |
| Instructions | 5        |

```
      00 01 02 03 04 05 06 07  08 09 0A 0B 0C 0D 0E 0F
      -- -- -- -- -- -- -- --  -- -- -- -- -- -- -- --
0280:          59 04 2E 50 0F  01 1E 80 1F 00 1F 80 20     Y..P........ 
0290: 80 0B 80 1F 01 6F 00 00                           .....o..        
```

#### Opcodes

```
  0: 0x0283 [0x59] UPDATE_ENTITY_DATA: Set Bogharg (ID: 17780782/0x010F502E) main speed = 12* * 0.1
  1: 0x028B [0x1F] MOVE_ENTITY: EventEntity moves to X=-76.092*, Z=-136.357*, Y=0.000*
  2: 0x0293 [0x1F] MOVE_ENTITY: Update entity position (mode=1)
  3: 0x0295 [0x6F] WAIT_FRAME_DELAY: Yield until WaitTime reaches zero
  4: 0x0296 [0x00] END_REQSTACK()
```

#### Data or dead code:

```
# Dead code (unreachable instructions):
     0x0297 [0x00] END_REQSTACK()
```

### Event 65535.26

#### Metadata

| Field        | Value    |
|--------------|----------|
| Entrypoint   | 0x0298   |
| Data Size    | 16 bytes |
| Instructions | 2        |

```
      00 01 02 03 04 05 06 07  08 09 0A 0B 0C 0D 0E 0F
      -- -- -- -- -- -- -- --  -- -- -- -- -- -- -- --
0290:                          66 32 80 2E 50 0F 01 2E          f2..P...
02A0: 50 0F 01 74 68 6B 31 00                           P..thk1.        
```

#### Opcodes

```
  0: 0x0298 [0x66] LOAD_EXT_SCHEDULER_MAIN: Load scheduler "thk1" with entities [Bogharg (ID: 17780782/0x010F502E), Bogharg (ID: 17780782/0x010F502E)], work=69*
  1: 0x02A7 [0x00] END_REQSTACK()
```

### Event 65535.27

#### Metadata

| Field        | Value    |
|--------------|----------|
| Entrypoint   | 0x02A8   |
| Data Size    | 16 bytes |
| Instructions | 2        |

```
      00 01 02 03 04 05 06 07  08 09 0A 0B 0C 0D 0E 0F
      -- -- -- -- -- -- -- --  -- -- -- -- -- -- -- --
02A0:                          66 32 80 2E 50 0F 01 2E          f2..P...
02B0: 50 0F 01 74 68 6B 32 00                           P..thk2.        
```

#### Opcodes

```
  0: 0x02A8 [0x66] LOAD_EXT_SCHEDULER_MAIN: Load scheduler "thk2" with entities [Bogharg (ID: 17780782/0x010F502E), Bogharg (ID: 17780782/0x010F502E)], work=69*
  1: 0x02B7 [0x00] END_REQSTACK()
```

### Event 65535.28

#### Metadata

| Field        | Value    |
|--------------|----------|
| Entrypoint   | 0x02B8   |
| Data Size    | 20 bytes |
| Instructions | 5        |

```
      00 01 02 03 04 05 06 07  08 09 0A 0B 0C 0D 0E 0F
      -- -- -- -- -- -- -- --  -- -- -- -- -- -- -- --
02B0:                          59 04 2E 50 0F 01 1E 80          Y..P....
02C0: 1F 00 33 80 34 80 26 80  1F 01 6F 00              ..3.4.&...o.    
```

#### Opcodes

```
  0: 0x02B8 [0x59] UPDATE_ENTITY_DATA: Set Bogharg (ID: 17780782/0x010F502E) main speed = 12* * 0.1
  1: 0x02C0 [0x1F] MOVE_ENTITY: EventEntity moves to X=-56.992*, Z=-88.050*, Y=5.999*
  2: 0x02C8 [0x1F] MOVE_ENTITY: Update entity position (mode=1)
  3: 0x02CA [0x6F] WAIT_FRAME_DELAY: Yield until WaitTime reaches zero
  4: 0x02CB [0x00] END_REQSTACK()
```

### Event 65535.29

#### Metadata

| Field        | Value    |
|--------------|----------|
| Entrypoint   | 0x02CC   |
| Data Size    | 17 bytes |
| Instructions | 2        |

```
      00 01 02 03 04 05 06 07  08 09 0A 0B 0C 0D 0E 0F
      -- -- -- -- -- -- -- --  -- -- -- -- -- -- -- --
02C0:                                      5B 35 80 2E              [5..
02D0: 50 0F 01 2E 50 0F 01 6F  70 30 30 00 00           P...P..op00..   
```

#### Opcodes

```
  0: 0x02CC [0x5B] LOAD_EXT_SCHEDULER: Load scheduler "op00" with entities [Bogharg (ID: 17780782/0x010F502E), Bogharg (ID: 17780782/0x010F502E)], work=2621*
  1: 0x02DB [0x00] END_REQSTACK()
```

#### Data or dead code:

```
# Dead code (unreachable instructions):
     0x02DC [0x00] END_REQSTACK()
```

### Event 65535.30

#### Metadata

| Field        | Value    |
|--------------|----------|
| Entrypoint   | 0x02DD   |
| Data Size    | 20 bytes |
| Instructions | 5        |

```
      00 01 02 03 04 05 06 07  08 09 0A 0B 0C 0D 0E 0F
      -- -- -- -- -- -- -- --  -- -- -- -- -- -- -- --
02D0:                                         59 04 31               Y.1
02E0: 50 0F 01 21 80 1F 00 28  80 29 80 0B 80 1F 01 6F  P..!...(.).....o
02F0: 00                                                .               
```

#### Opcodes

```
  0: 0x02DD [0x59] UPDATE_ENTITY_DATA: Set Nakho Jawantal (ID: 17780785/0x010F5031) main speed = 11* * 0.1
  1: 0x02E5 [0x1F] MOVE_ENTITY: EventEntity moves to X=-83.944*, Z=-128.625*, Y=0.000*
  2: 0x02ED [0x1F] MOVE_ENTITY: Update entity position (mode=1)
  3: 0x02EF [0x6F] WAIT_FRAME_DELAY: Yield until WaitTime reaches zero
  4: 0x02F0 [0x00] END_REQSTACK()
```

### Event 65535.31

#### Metadata

| Field        | Value    |
|--------------|----------|
| Entrypoint   | 0x02F1   |
| Data Size    | 16 bytes |
| Instructions | 2        |

```
      00 01 02 03 04 05 06 07  08 09 0A 0B 0C 0D 0E 0F
      -- -- -- -- -- -- -- --  -- -- -- -- -- -- -- --
02F0:    5B 36 80 12 50 0F 01  12 50 0F 01 6F 70 61 30   [6..P...P..opa0
0300: 00                                                .               
```

#### Opcodes

```
  0: 0x02F1 [0x5B] LOAD_EXT_SCHEDULER: Load scheduler "opa0" with entities [Tovrutaux (ID: 17780754/0x010F5012), Tovrutaux (ID: 17780754/0x010F5012)], work=2627*
  1: 0x0300 [0x00] END_REQSTACK()
```

### Event 65535.32

#### Metadata

| Field        | Value    |
|--------------|----------|
| Entrypoint   | 0x0301   |
| Data Size    | 16 bytes |
| Instructions | 2        |

```
      00 01 02 03 04 05 06 07  08 09 0A 0B 0C 0D 0E 0F
      -- -- -- -- -- -- -- --  -- -- -- -- -- -- -- --
0300:    5B 36 80 12 50 0F 01  12 50 0F 01 6F 70 61 31   [6..P...P..opa1
0310: 00                                                .               
```

#### Opcodes

```
  0: 0x0301 [0x5B] LOAD_EXT_SCHEDULER: Load scheduler "opa1" with entities [Tovrutaux (ID: 17780754/0x010F5012), Tovrutaux (ID: 17780754/0x010F5012)], work=2627*
  1: 0x0310 [0x00] END_REQSTACK()
```

### Event 65535.33

#### Metadata

| Field        | Value    |
|--------------|----------|
| Entrypoint   | 0x0311   |
| Data Size    | 16 bytes |
| Instructions | 2        |

```
      00 01 02 03 04 05 06 07  08 09 0A 0B 0C 0D 0E 0F
      -- -- -- -- -- -- -- --  -- -- -- -- -- -- -- --
0310:    5B 36 80 12 50 0F 01  12 50 0F 01 6F 70 61 32   [6..P...P..opa2
0320: 00                                                .               
```

#### Opcodes

```
  0: 0x0311 [0x5B] LOAD_EXT_SCHEDULER: Load scheduler "opa2" with entities [Tovrutaux (ID: 17780754/0x010F5012), Tovrutaux (ID: 17780754/0x010F5012)], work=2627*
  1: 0x0320 [0x00] END_REQSTACK()
```

### Event 65535.34

#### Metadata

| Field        | Value    |
|--------------|----------|
| Entrypoint   | 0x0321   |
| Data Size    | 16 bytes |
| Instructions | 2        |

```
      00 01 02 03 04 05 06 07  08 09 0A 0B 0C 0D 0E 0F
      -- -- -- -- -- -- -- --  -- -- -- -- -- -- -- --
0320:    5B 37 80 12 50 0F 01  12 50 0F 01 74 68 6B 31   [7..P...P..thk1
0330: 00                                                .               
```

#### Opcodes

```
  0: 0x0321 [0x5B] LOAD_EXT_SCHEDULER: Load scheduler "thk1" with entities [Tovrutaux (ID: 17780754/0x010F5012), Tovrutaux (ID: 17780754/0x010F5012)], work=75*
  1: 0x0330 [0x00] END_REQSTACK()
```

### Event 65535.35

#### Metadata

| Field        | Value    |
|--------------|----------|
| Entrypoint   | 0x0331   |
| Data Size    | 16 bytes |
| Instructions | 2        |

```
      00 01 02 03 04 05 06 07  08 09 0A 0B 0C 0D 0E 0F
      -- -- -- -- -- -- -- --  -- -- -- -- -- -- -- --
0330:    5B 37 80 12 50 0F 01  12 50 0F 01 74 68 6B 32   [7..P...P..thk2
0340: 00                                                .               
```

#### Opcodes

```
  0: 0x0331 [0x5B] LOAD_EXT_SCHEDULER: Load scheduler "thk2" with entities [Tovrutaux (ID: 17780754/0x010F5012), Tovrutaux (ID: 17780754/0x010F5012)], work=75*
  1: 0x0340 [0x00] END_REQSTACK()
```

### Event 65535.36

#### Metadata

| Field        | Value    |
|--------------|----------|
| Entrypoint   | 0x0341   |
| Data Size    | 16 bytes |
| Instructions | 2        |

```
      00 01 02 03 04 05 06 07  08 09 0A 0B 0C 0D 0E 0F
      -- -- -- -- -- -- -- --  -- -- -- -- -- -- -- --
0340:    5B 37 80 12 50 0F 01  12 50 0F 01 74 6C 6B 30   [7..P...P..tlk0
0350: 00                                                .               
```

#### Opcodes

```
  0: 0x0341 [0x5B] LOAD_EXT_SCHEDULER: Load scheduler "tlk0" with entities [Tovrutaux (ID: 17780754/0x010F5012), Tovrutaux (ID: 17780754/0x010F5012)], work=75*
  1: 0x0350 [0x00] END_REQSTACK()
```

### Event 65535.37

#### Metadata

| Field        | Value    |
|--------------|----------|
| Entrypoint   | 0x0351   |
| Data Size    | 16 bytes |
| Instructions | 2        |

```
      00 01 02 03 04 05 06 07  08 09 0A 0B 0C 0D 0E 0F
      -- -- -- -- -- -- -- --  -- -- -- -- -- -- -- --
0350:    5B 37 80 12 50 0F 01  12 50 0F 01 74 6C 6B 31   [7..P...P..tlk1
0360: 00                                                .               
```

#### Opcodes

```
  0: 0x0351 [0x5B] LOAD_EXT_SCHEDULER: Load scheduler "tlk1" with entities [Tovrutaux (ID: 17780754/0x010F5012), Tovrutaux (ID: 17780754/0x010F5012)], work=75*
  1: 0x0360 [0x00] END_REQSTACK()
```

### Event 65535.38

#### Metadata

| Field        | Value    |
|--------------|----------|
| Entrypoint   | 0x0361   |
| Data Size    | 12 bytes |
| Instructions | 4        |

```
      00 01 02 03 04 05 06 07  08 09 0A 0B 0C 0D 0E 0F
      -- -- -- -- -- -- -- --  -- -- -- -- -- -- -- --
0360:    1F 00 38 80 39 80 0B  80 1F 01 6F 00            ..8.9.....o.   
```

#### Opcodes

```
  0: 0x0361 [0x1F] MOVE_ENTITY: EventEntity moves to X=-19.954*, Z=-20.950*, Y=0.000*
  1: 0x0369 [0x1F] MOVE_ENTITY: Update entity position (mode=1)
  2: 0x036B [0x6F] WAIT_FRAME_DELAY: Yield until WaitTime reaches zero
  3: 0x036C [0x00] END_REQSTACK()
```

### Event 65535.39

#### Metadata

| Field        | Value    |
|--------------|----------|
| Entrypoint   | 0x036D   |
| Data Size    | 20 bytes |
| Instructions | 5        |

```
      00 01 02 03 04 05 06 07  08 09 0A 0B 0C 0D 0E 0F
      -- -- -- -- -- -- -- --  -- -- -- -- -- -- -- --
0360:                                         59 04 13               Y..
0370: 50 0F 01 21 80 1F 00 3A  80 3B 80 26 80 1F 01 6F  P..!...:.;.&...o
0380: 00                                                .               
```

#### Opcodes

```
  0: 0x036D [0x59] UPDATE_ENTITY_DATA: Set Seyaya (ID: 17780755/0x010F5013) main speed = 11* * 0.1
  1: 0x0375 [0x1F] MOVE_ENTITY: EventEntity moves to X=-74.699*, Z=-107.115*, Y=5.999*
  2: 0x037D [0x1F] MOVE_ENTITY: Update entity position (mode=1)
  3: 0x037F [0x6F] WAIT_FRAME_DELAY: Yield until WaitTime reaches zero
  4: 0x0380 [0x00] END_REQSTACK()
```

### Event 65535.40

#### Metadata

| Field        | Value    |
|--------------|----------|
| Entrypoint   | 0x0381   |
| Data Size    | 17 bytes |
| Instructions | 2        |

```
      00 01 02 03 04 05 06 07  08 09 0A 0B 0C 0D 0E 0F
      -- -- -- -- -- -- -- --  -- -- -- -- -- -- -- --
0380:    5B 3C 80 13 50 0F 01  13 50 0F 01 6F 70 61 30   [<..P...P..opa0
0390: 00 00                                             ..              
```

#### Opcodes

```
  0: 0x0381 [0x5B] LOAD_EXT_SCHEDULER: Load scheduler "opa0" with entities [Seyaya (ID: 17780755/0x010F5013), Seyaya (ID: 17780755/0x010F5013)], work=2631*
  1: 0x0390 [0x00] END_REQSTACK()
```

#### Data or dead code:

```
# Dead code (unreachable instructions):
     0x0391 [0x00] END_REQSTACK()
```

### Event 65535.41

#### Metadata

| Field        | Value    |
|--------------|----------|
| Entrypoint   | 0x0392   |
| Data Size    | 17 bytes |
| Instructions | 2        |

```
      00 01 02 03 04 05 06 07  08 09 0A 0B 0C 0D 0E 0F
      -- -- -- -- -- -- -- --  -- -- -- -- -- -- -- --
0390:       5B 3C 80 13 50 0F  01 13 50 0F 01 6F 70 61    [<..P...P..opa
03A0: 31 00 00                                          1..             
```

#### Opcodes

```
  0: 0x0392 [0x5B] LOAD_EXT_SCHEDULER: Load scheduler "opa1" with entities [Seyaya (ID: 17780755/0x010F5013), Seyaya (ID: 17780755/0x010F5013)], work=2631*
  1: 0x03A1 [0x00] END_REQSTACK()
```

#### Data or dead code:

```
# Dead code (unreachable instructions):
     0x03A2 [0x00] END_REQSTACK()
```

### Event 65535.42

#### Metadata

| Field        | Value    |
|--------------|----------|
| Entrypoint   | 0x03A3   |
| Data Size    | 16 bytes |
| Instructions | 2        |

```
      00 01 02 03 04 05 06 07  08 09 0A 0B 0C 0D 0E 0F
      -- -- -- -- -- -- -- --  -- -- -- -- -- -- -- --
03A0:          5B 3C 80 13 50  0F 01 13 50 0F 01 6F 70     [<..P...P..op
03B0: 61 32 00                                          a2.             
```

#### Opcodes

```
  0: 0x03A3 [0x5B] LOAD_EXT_SCHEDULER: Load scheduler "opa2" with entities [Seyaya (ID: 17780755/0x010F5013), Seyaya (ID: 17780755/0x010F5013)], work=2631*
  1: 0x03B2 [0x00] END_REQSTACK()
```

### Event 65535.43

#### Metadata

| Field        | Value    |
|--------------|----------|
| Entrypoint   | 0x03B3   |
| Data Size    | 16 bytes |
| Instructions | 2        |

```
      00 01 02 03 04 05 06 07  08 09 0A 0B 0C 0D 0E 0F
      -- -- -- -- -- -- -- --  -- -- -- -- -- -- -- --
03B0:          5B 3D 80 13 50  0F 01 13 50 0F 01 74 68     [=..P...P..th
03C0: 6B 31 00                                          k1.             
```

#### Opcodes

```
  0: 0x03B3 [0x5B] LOAD_EXT_SCHEDULER: Load scheduler "thk1" with entities [Seyaya (ID: 17780755/0x010F5013), Seyaya (ID: 17780755/0x010F5013)], work=85*
  1: 0x03C2 [0x00] END_REQSTACK()
```

### Event 65535.44

#### Metadata

| Field        | Value    |
|--------------|----------|
| Entrypoint   | 0x03C3   |
| Data Size    | 16 bytes |
| Instructions | 2        |

```
      00 01 02 03 04 05 06 07  08 09 0A 0B 0C 0D 0E 0F
      -- -- -- -- -- -- -- --  -- -- -- -- -- -- -- --
03C0:          5B 3D 80 13 50  0F 01 13 50 0F 01 74 68     [=..P...P..th
03D0: 6B 32 00                                          k2.             
```

#### Opcodes

```
  0: 0x03C3 [0x5B] LOAD_EXT_SCHEDULER: Load scheduler "thk2" with entities [Seyaya (ID: 17780755/0x010F5013), Seyaya (ID: 17780755/0x010F5013)], work=85*
  1: 0x03D2 [0x00] END_REQSTACK()
```

### Event 65535.45

#### Metadata

| Field        | Value    |
|--------------|----------|
| Entrypoint   | 0x03D3   |
| Data Size    | 16 bytes |
| Instructions | 2        |

```
      00 01 02 03 04 05 06 07  08 09 0A 0B 0C 0D 0E 0F
      -- -- -- -- -- -- -- --  -- -- -- -- -- -- -- --
03D0:          5B 3D 80 13 50  0F 01 13 50 0F 01 74 6C     [=..P...P..tl
03E0: 6B 30 00                                          k0.             
```

#### Opcodes

```
  0: 0x03D3 [0x5B] LOAD_EXT_SCHEDULER: Load scheduler "tlk0" with entities [Seyaya (ID: 17780755/0x010F5013), Seyaya (ID: 17780755/0x010F5013)], work=85*
  1: 0x03E2 [0x00] END_REQSTACK()
```

### Event 65535.46

#### Metadata

| Field        | Value    |
|--------------|----------|
| Entrypoint   | 0x03E3   |
| Data Size    | 16 bytes |
| Instructions | 2        |

```
      00 01 02 03 04 05 06 07  08 09 0A 0B 0C 0D 0E 0F
      -- -- -- -- -- -- -- --  -- -- -- -- -- -- -- --
03E0:          5B 3D 80 13 50  0F 01 13 50 0F 01 74 6C     [=..P...P..tl
03F0: 6B 65 00                                          ke.             
```

#### Opcodes

```
  0: 0x03E3 [0x5B] LOAD_EXT_SCHEDULER: Load scheduler "tlke" with entities [Seyaya (ID: 17780755/0x010F5013), Seyaya (ID: 17780755/0x010F5013)], work=85*
  1: 0x03F2 [0x00] END_REQSTACK()
```

### Event 65535.47

#### Metadata

| Field        | Value    |
|--------------|----------|
| Entrypoint   | 0x03F3   |
| Data Size    | 16 bytes |
| Instructions | 2        |

```
      00 01 02 03 04 05 06 07  08 09 0A 0B 0C 0D 0E 0F
      -- -- -- -- -- -- -- --  -- -- -- -- -- -- -- --
03F0:          5B 3D 80 13 50  0F 01 13 50 0F 01 62 61     [=..P...P..ba
0400: 6E 30 00                                          n0.             
```

#### Opcodes

```
  0: 0x03F3 [0x5B] LOAD_EXT_SCHEDULER: Load scheduler "ban0" with entities [Seyaya (ID: 17780755/0x010F5013), Seyaya (ID: 17780755/0x010F5013)], work=85*
  1: 0x0402 [0x00] END_REQSTACK()
```

### Event 65535.48

#### Metadata

| Field        | Value    |
|--------------|----------|
| Entrypoint   | 0x0403   |
| Data Size    | 13 bytes |
| Instructions | 4        |

```
      00 01 02 03 04 05 06 07  08 09 0A 0B 0C 0D 0E 0F
      -- -- -- -- -- -- -- --  -- -- -- -- -- -- -- --
0400:          1F 00 3E 80 3F  80 0B 80 1F 01 6F 00 00     ..>.?.....o..
```

#### Opcodes

```
  0: 0x0403 [0x1F] MOVE_ENTITY: EventEntity moves to X=-19.857*, Z=-21.712*, Y=0.000*
  1: 0x040B [0x1F] MOVE_ENTITY: Update entity position (mode=1)
  2: 0x040D [0x6F] WAIT_FRAME_DELAY: Yield until WaitTime reaches zero
  3: 0x040E [0x00] END_REQSTACK()
```

#### Data or dead code:

```
# Dead code (unreachable instructions):
     0x040F [0x00] END_REQSTACK()
```

### Event 65535.49

#### Metadata

| Field        | Value    |
|--------------|----------|
| Entrypoint   | 0x0410   |
| Data Size    | 20 bytes |
| Instructions | 5        |

```
      00 01 02 03 04 05 06 07  08 09 0A 0B 0C 0D 0E 0F
      -- -- -- -- -- -- -- --  -- -- -- -- -- -- -- --
0410: 59 04 C0 50 0F 01 40 80  1F 00 41 80 42 80 0B 80  Y..P..@...A.B...
0420: 1F 01 6F 00                                       ..o.            
```

#### Opcodes

```
  0: 0x0410 [0x59] UPDATE_ENTITY_DATA: Set Rakuru-Rakoru (ID: 17780928/0x010F50C0) main speed = 14* * 0.1
  1: 0x0418 [0x1F] MOVE_ENTITY: EventEntity moves to X=-37.763*, Z=-62.812*, Y=0.000*
  2: 0x0420 [0x1F] MOVE_ENTITY: Update entity position (mode=1)
  3: 0x0422 [0x6F] WAIT_FRAME_DELAY: Yield until WaitTime reaches zero
  4: 0x0423 [0x00] END_REQSTACK()
```

### Event 65535.50

#### Metadata

| Field        | Value    |
|--------------|----------|
| Entrypoint   | 0x0424   |
| Data Size    | 12 bytes |
| Instructions | 4        |

```
      00 01 02 03 04 05 06 07  08 09 0A 0B 0C 0D 0E 0F
      -- -- -- -- -- -- -- --  -- -- -- -- -- -- -- --
0420:             1F 00 43 80  44 80 45 80 1F 01 6F 00      ..C.D.E...o.
```

#### Opcodes

```
  0: 0x0424 [0x1F] MOVE_ENTITY: EventEntity moves to X=-13.366*, Z=2.528*, Y=-0.449*
  1: 0x042C [0x1F] MOVE_ENTITY: Update entity position (mode=1)
  2: 0x042E [0x6F] WAIT_FRAME_DELAY: Yield until WaitTime reaches zero
  3: 0x042F [0x00] END_REQSTACK()
```

### Event 65535.51

#### Metadata

| Field        | Value    |
|--------------|----------|
| Entrypoint   | 0x0430   |
| Data Size    | 16 bytes |
| Instructions | 2        |

```
      00 01 02 03 04 05 06 07  08 09 0A 0B 0C 0D 0E 0F
      -- -- -- -- -- -- -- --  -- -- -- -- -- -- -- --
0430: 66 1B 80 C0 50 0F 01 C0  50 0F 01 74 6C 6B 30 00  f...P...P..tlk0.
```

#### Opcodes

```
  0: 0x0430 [0x66] LOAD_EXT_SCHEDULER_MAIN: Load scheduler "tlk0" with entities [Rakuru-Rakoru (ID: 17780928/0x010F50C0), Rakuru-Rakoru (ID: 17780928/0x010F50C0)], work=40*
  1: 0x043F [0x00] END_REQSTACK()
```

### Event 65535.52

#### Metadata

| Field        | Value    |
|--------------|----------|
| Entrypoint   | 0x0440   |
| Data Size    | 16 bytes |
| Instructions | 2        |

```
      00 01 02 03 04 05 06 07  08 09 0A 0B 0C 0D 0E 0F
      -- -- -- -- -- -- -- --  -- -- -- -- -- -- -- --
0440: 66 46 80 C0 50 0F 01 C0  50 0F 01 65 68 6E 31 00  fF..P...P..ehn1.
```

#### Opcodes

```
  0: 0x0440 [0x66] LOAD_EXT_SCHEDULER_MAIN: Load scheduler "ehn1" with entities [Rakuru-Rakoru (ID: 17780928/0x010F50C0), Rakuru-Rakoru (ID: 17780928/0x010F50C0)], work=41*
  1: 0x044F [0x00] END_REQSTACK()
```

### Event 65535.53

#### Metadata

| Field        | Value    |
|--------------|----------|
| Entrypoint   | 0x0450   |
| Data Size    | 16 bytes |
| Instructions | 2        |

```
      00 01 02 03 04 05 06 07  08 09 0A 0B 0C 0D 0E 0F
      -- -- -- -- -- -- -- --  -- -- -- -- -- -- -- --
0450: 66 1B 80 C0 50 0F 01 C0  50 0F 01 6D 6F 6A 30 00  f...P...P..moj0.
```

#### Opcodes

```
  0: 0x0450 [0x66] LOAD_EXT_SCHEDULER_MAIN: Load scheduler "moj0" with entities [Rakuru-Rakoru (ID: 17780928/0x010F50C0), Rakuru-Rakoru (ID: 17780928/0x010F50C0)], work=40*
  1: 0x045F [0x00] END_REQSTACK()
```

### Event 65535.54

#### Metadata

| Field        | Value    |
|--------------|----------|
| Entrypoint   | 0x0460   |
| Data Size    | 20 bytes |
| Instructions | 5        |

```
      00 01 02 03 04 05 06 07  08 09 0A 0B 0C 0D 0E 0F
      -- -- -- -- -- -- -- --  -- -- -- -- -- -- -- --
0460: 59 04 C0 50 0F 01 40 80  1F 00 47 80 48 80 26 80  Y..P..@...G.H.&.
0470: 1F 01 6F 00                                       ..o.            
```

#### Opcodes

```
  0: 0x0460 [0x59] UPDATE_ENTITY_DATA: Set Rakuru-Rakoru (ID: 17780928/0x010F50C0) main speed = 14* * 0.1
  1: 0x0468 [0x1F] MOVE_ENTITY: EventEntity moves to X=-71.130*, Z=-110.791*, Y=5.999*
  2: 0x0470 [0x1F] MOVE_ENTITY: Update entity position (mode=1)
  3: 0x0472 [0x6F] WAIT_FRAME_DELAY: Yield until WaitTime reaches zero
  4: 0x0473 [0x00] END_REQSTACK()
```

### Event 65535.55

#### Metadata

| Field        | Value    |
|--------------|----------|
| Entrypoint   | 0x0474   |
| Data Size    | 29 bytes |
| Instructions | 6        |

```
      00 01 02 03 04 05 06 07  08 09 0A 0B 0C 0D 0E 0F
      -- -- -- -- -- -- -- --  -- -- -- -- -- -- -- --
0470:             59 04 C0 50  0F 01 40 80 1F 00 49 80      Y..P..@...I.
0480: 4A 80 26 80 1F 01 5A 00  4B 80 4C 80 4D 80 5A 01  J.&...Z.K.L.M.Z.
0490: 00                                                .               
```

#### Opcodes

```
  0: 0x0474 [0x59] UPDATE_ENTITY_DATA: Set Rakuru-Rakoru (ID: 17780928/0x010F50C0) main speed = 14* * 0.1
  1: 0x047C [0x1F] MOVE_ENTITY: EventEntity moves to X=-75.540*, Z=-116.545*, Y=5.999*
  2: 0x0484 [0x1F] MOVE_ENTITY: Update entity position (mode=1)
  3: 0x0486 [0x5A] UPDATE_EVENT_POSITION: Set EventEntity MovePosition to X=-80.452*, Z=-125.376*, Y=0.999*
  4: 0x048E [0x5A] UPDATE_EVENT_POSITION: Move EventEntity incrementally towards MovePosition
  5: 0x0490 [0x00] END_REQSTACK()
```

### Event 65535.56

#### Metadata

| Field        | Value    |
|--------------|----------|
| Entrypoint   | 0x0491   |
| Data Size    | 17 bytes |
| Instructions | 2        |

```
      00 01 02 03 04 05 06 07  08 09 0A 0B 0C 0D 0E 0F
      -- -- -- -- -- -- -- --  -- -- -- -- -- -- -- --
0490:    5B 4E 80 C0 50 0F 01  C0 50 0F 01 62 6F 70 30   [N..P...P..bop0
04A0: 00 00                                             ..              
```

#### Opcodes

```
  0: 0x0491 [0x5B] LOAD_EXT_SCHEDULER: Load scheduler "bop0" with entities [Rakuru-Rakoru (ID: 17780928/0x010F50C0), Rakuru-Rakoru (ID: 17780928/0x010F50C0)], work=2611*
  1: 0x04A0 [0x00] END_REQSTACK()
```

#### Data or dead code:

```
# Dead code (unreachable instructions):
     0x04A1 [0x00] END_REQSTACK()
```

### Event 65535.57

#### Metadata

| Field        | Value    |
|--------------|----------|
| Entrypoint   | 0x04A2   |
| Data Size    | 20 bytes |
| Instructions | 5        |

```
      00 01 02 03 04 05 06 07  08 09 0A 0B 0C 0D 0E 0F
      -- -- -- -- -- -- -- --  -- -- -- -- -- -- -- --
04A0:       59 04 25 50 0F 01  00 80 1F 00 28 80 29 80    Y.%P......(.).
04B0: 0B 80 1F 01 6F 00                                 ....o.          
```

#### Opcodes

```
  0: 0x04A2 [0x59] UPDATE_ENTITY_DATA: Set Sutarara (ID: 17780773/0x010F5025) main speed = 13* * 0.1
  1: 0x04AA [0x1F] MOVE_ENTITY: EventEntity moves to X=-83.944*, Z=-128.625*, Y=0.000*
  2: 0x04B2 [0x1F] MOVE_ENTITY: Update entity position (mode=1)
  3: 0x04B4 [0x6F] WAIT_FRAME_DELAY: Yield until WaitTime reaches zero
  4: 0x04B5 [0x00] END_REQSTACK()
```

### Event 65535.58

#### Metadata

| Field        | Value    |
|--------------|----------|
| Entrypoint   | 0x04B6   |
| Data Size    | 20 bytes |
| Instructions | 5        |

```
      00 01 02 03 04 05 06 07  08 09 0A 0B 0C 0D 0E 0F
      -- -- -- -- -- -- -- --  -- -- -- -- -- -- -- --
04B0:                   59 04  25 50 0F 01 00 80 1F 00        Y.%P......
04C0: 4F 80 50 80 26 80 1F 01  6F 00                    O.P.&...o.      
```

#### Opcodes

```
  0: 0x04B6 [0x59] UPDATE_ENTITY_DATA: Set Sutarara (ID: 17780773/0x010F5025) main speed = 13* * 0.1
  1: 0x04BE [0x1F] MOVE_ENTITY: EventEntity moves to X=-64.287*, Z=-102.136*, Y=5.999*
  2: 0x04C6 [0x1F] MOVE_ENTITY: Update entity position (mode=1)
  3: 0x04C8 [0x6F] WAIT_FRAME_DELAY: Yield until WaitTime reaches zero
  4: 0x04C9 [0x00] END_REQSTACK()
```

### Event 65535.59

#### Metadata

| Field        | Value    |
|--------------|----------|
| Entrypoint   | 0x04CA   |
| Data Size    | 20 bytes |
| Instructions | 5        |

```
      00 01 02 03 04 05 06 07  08 09 0A 0B 0C 0D 0E 0F
      -- -- -- -- -- -- -- --  -- -- -- -- -- -- -- --
04C0:                                59 04 25 50 0F 01            Y.%P..
04D0: 00 80 1F 00 51 80 52 80  0B 80 1F 01 6F 00        ....Q.R.....o.  
```

#### Opcodes

```
  0: 0x04CA [0x59] UPDATE_ENTITY_DATA: Set Sutarara (ID: 17780773/0x010F5025) main speed = 13* * 0.1
  1: 0x04D2 [0x1F] MOVE_ENTITY: EventEntity moves to X=4.236*, Z=4.336*, Y=0.000*
  2: 0x04DA [0x1F] MOVE_ENTITY: Update entity position (mode=1)
  3: 0x04DC [0x6F] WAIT_FRAME_DELAY: Yield until WaitTime reaches zero
  4: 0x04DD [0x00] END_REQSTACK()
```

### Event 65535.60

#### Metadata

| Field        | Value    |
|--------------|----------|
| Entrypoint   | 0x04DE   |
| Data Size    | 20 bytes |
| Instructions | 5        |

```
      00 01 02 03 04 05 06 07  08 09 0A 0B 0C 0D 0E 0F
      -- -- -- -- -- -- -- --  -- -- -- -- -- -- -- --
04D0:                                            59 04                Y.
04E0: 34 50 0F 01 1E 80 1F 00  53 80 54 80 55 80 1F 01  4P......S.T.U...
04F0: 6F 00                                             o.              
```

#### Opcodes

```
  0: 0x04DE [0x59] UPDATE_ENTITY_DATA: Set Venika (ID: 17780788/0x010F5034) main speed = 12* * 0.1
  1: 0x04E6 [0x1F] MOVE_ENTITY: EventEntity moves to X=-15.376*, Z=-23.775*, Y=-0.101*
  2: 0x04EE [0x1F] MOVE_ENTITY: Update entity position (mode=1)
  3: 0x04F0 [0x6F] WAIT_FRAME_DELAY: Yield until WaitTime reaches zero
  4: 0x04F1 [0x00] END_REQSTACK()
```

### Event 65535.61

#### Metadata

| Field        | Value    |
|--------------|----------|
| Entrypoint   | 0x04F2   |
| Data Size    | 20 bytes |
| Instructions | 5        |

```
      00 01 02 03 04 05 06 07  08 09 0A 0B 0C 0D 0E 0F
      -- -- -- -- -- -- -- --  -- -- -- -- -- -- -- --
04F0:       59 04 34 50 0F 01  56 80 1F 00 4F 80 50 80    Y.4P..V...O.P.
0500: 26 80 1F 01 6F 00                                 &...o.          
```

#### Opcodes

```
  0: 0x04F2 [0x59] UPDATE_ENTITY_DATA: Set Venika (ID: 17780788/0x010F5034) main speed = 10* * 0.1
  1: 0x04FA [0x1F] MOVE_ENTITY: EventEntity moves to X=-64.287*, Z=-102.136*, Y=5.999*
  2: 0x0502 [0x1F] MOVE_ENTITY: Update entity position (mode=1)
  3: 0x0504 [0x6F] WAIT_FRAME_DELAY: Yield until WaitTime reaches zero
  4: 0x0505 [0x00] END_REQSTACK()
```

### Event 65535.62

#### Metadata

| Field        | Value    |
|--------------|----------|
| Entrypoint   | 0x0506   |
| Data Size    | 16 bytes |
| Instructions | 2        |

```
      00 01 02 03 04 05 06 07  08 09 0A 0B 0C 0D 0E 0F
      -- -- -- -- -- -- -- --  -- -- -- -- -- -- -- --
0500:                   5B 57  80 34 50 0F 01 34 50 0F        [W.4P..4P.
0510: 01 6F 70 62 30 00                                 .opb0.          
```

#### Opcodes

```
  0: 0x0506 [0x5B] LOAD_EXT_SCHEDULER: Load scheduler "opb0" with entities [Venika (ID: 17780788/0x010F5034), Venika (ID: 17780788/0x010F5034)], work=2584*
  1: 0x0515 [0x00] END_REQSTACK()
```

### Event 65535.63

#### Metadata

| Field        | Value    |
|--------------|----------|
| Entrypoint   | 0x0516   |
| Data Size    | 16 bytes |
| Instructions | 2        |

```
      00 01 02 03 04 05 06 07  08 09 0A 0B 0C 0D 0E 0F
      -- -- -- -- -- -- -- --  -- -- -- -- -- -- -- --
0510:                   5B 57  80 34 50 0F 01 34 50 0F        [W.4P..4P.
0520: 01 6F 70 62 31 00                                 .opb1.          
```

#### Opcodes

```
  0: 0x0516 [0x5B] LOAD_EXT_SCHEDULER: Load scheduler "opb1" with entities [Venika (ID: 17780788/0x010F5034), Venika (ID: 17780788/0x010F5034)], work=2584*
  1: 0x0525 [0x00] END_REQSTACK()
```

### Event 65535.64

#### Metadata

| Field        | Value    |
|--------------|----------|
| Entrypoint   | 0x0526   |
| Data Size    | 20 bytes |
| Instructions | 5        |

```
      00 01 02 03 04 05 06 07  08 09 0A 0B 0C 0D 0E 0F
      -- -- -- -- -- -- -- --  -- -- -- -- -- -- -- --
0520:                   59 04  34 50 0F 01 1E 80 1F 00        Y.4P......
0530: 58 80 59 80 0B 80 1F 01  6F 00                    X.Y.....o.      
```

#### Opcodes

```
  0: 0x0526 [0x59] UPDATE_ENTITY_DATA: Set Venika (ID: 17780788/0x010F5034) main speed = 12* * 0.1
  1: 0x052E [0x1F] MOVE_ENTITY: EventEntity moves to X=-0.991*, Z=2.123*, Y=0.000*
  2: 0x0536 [0x1F] MOVE_ENTITY: Update entity position (mode=1)
  3: 0x0538 [0x6F] WAIT_FRAME_DELAY: Yield until WaitTime reaches zero
  4: 0x0539 [0x00] END_REQSTACK()
```

### Event 65535.65

#### Metadata

| Field        | Value    |
|--------------|----------|
| Entrypoint   | 0x053A   |
| Data Size    | 16 bytes |
| Instructions | 2        |

```
      00 01 02 03 04 05 06 07  08 09 0A 0B 0C 0D 0E 0F
      -- -- -- -- -- -- -- --  -- -- -- -- -- -- -- --
0530:                                5B 57 80 34 50 0F            [W.4P.
0540: 01 34 50 0F 01 6F 70 63  30 00                    .4P..opc0.      
```

#### Opcodes

```
  0: 0x053A [0x5B] LOAD_EXT_SCHEDULER: Load scheduler "opc0" with entities [Venika (ID: 17780788/0x010F5034), Venika (ID: 17780788/0x010F5034)], work=2584*
  1: 0x0549 [0x00] END_REQSTACK()
```

### Event 65535.66

#### Metadata

| Field        | Value    |
|--------------|----------|
| Entrypoint   | 0x054A   |
| Data Size    | 16 bytes |
| Instructions | 2        |

```
      00 01 02 03 04 05 06 07  08 09 0A 0B 0C 0D 0E 0F
      -- -- -- -- -- -- -- --  -- -- -- -- -- -- -- --
0540:                                5B 57 80 34 50 0F            [W.4P.
0550: 01 34 50 0F 01 6F 70 63  31 00                    .4P..opc1.      
```

#### Opcodes

```
  0: 0x054A [0x5B] LOAD_EXT_SCHEDULER: Load scheduler "opc1" with entities [Venika (ID: 17780788/0x010F5034), Venika (ID: 17780788/0x010F5034)], work=2584*
  1: 0x0559 [0x00] END_REQSTACK()
```

### Event 65535.67

#### Metadata

| Field        | Value    |
|--------------|----------|
| Entrypoint   | 0x055A   |
| Data Size    | 16 bytes |
| Instructions | 2        |

```
      00 01 02 03 04 05 06 07  08 09 0A 0B 0C 0D 0E 0F
      -- -- -- -- -- -- -- --  -- -- -- -- -- -- -- --
0550:                                66 5A 80 36 50 0F            fZ.6P.
0560: 01 36 50 0F 01 61 77 77  30 00                    .6P..aww0.      
```

#### Opcodes

```
  0: 0x055A [0x66] LOAD_EXT_SCHEDULER_MAIN: Load scheduler "aww0" with entities [Kuah Dakonsa (ID: 17780790/0x010F5036), Kuah Dakonsa (ID: 17780790/0x010F5036)], work=8*
  1: 0x0569 [0x00] END_REQSTACK()
```

### Event 65535.68

#### Metadata

| Field        | Value    |
|--------------|----------|
| Entrypoint   | 0x056A   |
| Data Size    | 16 bytes |
| Instructions | 2        |

```
      00 01 02 03 04 05 06 07  08 09 0A 0B 0C 0D 0E 0F
      -- -- -- -- -- -- -- --  -- -- -- -- -- -- -- --
0560:                                66 5B 80 36 50 0F            f[.6P.
0570: 01 36 50 0F 01 74 68 6B  31 00                    .6P..thk1.      
```

#### Opcodes

```
  0: 0x056A [0x66] LOAD_EXT_SCHEDULER_MAIN: Load scheduler "thk1" with entities [Kuah Dakonsa (ID: 17780790/0x010F5036), Kuah Dakonsa (ID: 17780790/0x010F5036)], work=51*
  1: 0x0579 [0x00] END_REQSTACK()
```

### Event 65535.69

#### Metadata

| Field        | Value    |
|--------------|----------|
| Entrypoint   | 0x057A   |
| Data Size    | 21 bytes |
| Instructions | 5        |

```
      00 01 02 03 04 05 06 07  08 09 0A 0B 0C 0D 0E 0F
      -- -- -- -- -- -- -- --  -- -- -- -- -- -- -- --
0570:                                59 04 32 50 0F 01            Y.2P..
0580: 1E 80 1F 00 5C 80 5D 80  26 80 1F 01 6F 00 00     ....\.].&...o.. 
```

#### Opcodes

```
  0: 0x057A [0x59] UPDATE_ENTITY_DATA: Set Gurdern (ID: 17780786/0x010F5032) main speed = 12* * 0.1
  1: 0x0582 [0x1F] MOVE_ENTITY: EventEntity moves to X=-61.958*, Z=-103.267*, Y=5.999*
  2: 0x058A [0x1F] MOVE_ENTITY: Update entity position (mode=1)
  3: 0x058C [0x6F] WAIT_FRAME_DELAY: Yield until WaitTime reaches zero
  4: 0x058D [0x00] END_REQSTACK()
```

#### Data or dead code:

```
# Dead code (unreachable instructions):
     0x058E [0x00] END_REQSTACK()
```

### Event 65535.70

#### Metadata

| Field        | Value    |
|--------------|----------|
| Entrypoint   | 0x058F   |
| Data Size    | 20 bytes |
| Instructions | 5        |

```
      00 01 02 03 04 05 06 07  08 09 0A 0B 0C 0D 0E 0F
      -- -- -- -- -- -- -- --  -- -- -- -- -- -- -- --
0580:                                               59                 Y
0590: 04 32 50 0F 01 1E 80 1F  00 5E 80 5F 80 26 80 1F  .2P......^._.&..
05A0: 01 6F 00                                          .o.             
```

#### Opcodes

```
  0: 0x058F [0x59] UPDATE_ENTITY_DATA: Set Gurdern (ID: 17780786/0x010F5032) main speed = 12* * 0.1
  1: 0x0597 [0x1F] MOVE_ENTITY: EventEntity moves to X=-66.589*, Z=-92.299*, Y=5.999*
  2: 0x059F [0x1F] MOVE_ENTITY: Update entity position (mode=1)
  3: 0x05A1 [0x6F] WAIT_FRAME_DELAY: Yield until WaitTime reaches zero
  4: 0x05A2 [0x00] END_REQSTACK()
```

### Event 65535.71

#### Metadata

| Field        | Value    |
|--------------|----------|
| Entrypoint   | 0x05A3   |
| Data Size    | 20 bytes |
| Instructions | 5        |

```
      00 01 02 03 04 05 06 07  08 09 0A 0B 0C 0D 0E 0F
      -- -- -- -- -- -- -- --  -- -- -- -- -- -- -- --
05A0:          59 04 32 50 0F  01 1E 80 1F 00 60 80 61     Y.2P......`.a
05B0: 80 26 80 1F 01 6F 00                              .&...o.         
```

#### Opcodes

```
  0: 0x05A3 [0x59] UPDATE_ENTITY_DATA: Set Gurdern (ID: 17780786/0x010F5032) main speed = 12* * 0.1
  1: 0x05AB [0x1F] MOVE_ENTITY: EventEntity moves to X=-58.931*, Z=-86.942*, Y=5.999*
  2: 0x05B3 [0x1F] MOVE_ENTITY: Update entity position (mode=1)
  3: 0x05B5 [0x6F] WAIT_FRAME_DELAY: Yield until WaitTime reaches zero
  4: 0x05B6 [0x00] END_REQSTACK()
```

### Event 65535.72

#### Metadata

| Field        | Value    |
|--------------|----------|
| Entrypoint   | 0x05B7   |
| Data Size    | 17 bytes |
| Instructions | 2        |

```
      00 01 02 03 04 05 06 07  08 09 0A 0B 0C 0D 0E 0F
      -- -- -- -- -- -- -- --  -- -- -- -- -- -- -- --
05B0:                      5B  35 80 32 50 0F 01 32 50         [5.2P..2P
05C0: 0F 01 6F 70 30 30 00 00                           ..op00..        
```

#### Opcodes

```
  0: 0x05B7 [0x5B] LOAD_EXT_SCHEDULER: Load scheduler "op00" with entities [Gurdern (ID: 17780786/0x010F5032), Gurdern (ID: 17780786/0x010F5032)], work=2621*
  1: 0x05C6 [0x00] END_REQSTACK()
```

#### Data or dead code:

```
# Dead code (unreachable instructions):
     0x05C7 [0x00] END_REQSTACK()
```

### Event 65535.73

#### Metadata

| Field        | Value    |
|--------------|----------|
| Entrypoint   | 0x05C8   |
| Data Size    | 20 bytes |
| Instructions | 5        |

```
      00 01 02 03 04 05 06 07  08 09 0A 0B 0C 0D 0E 0F
      -- -- -- -- -- -- -- --  -- -- -- -- -- -- -- --
05C0:                          59 04 1C 50 0F 01 21 80          Y..P..!.
05D0: 1F 00 22 80 23 80 0B 80  1F 01 6F 00              ..".#.....o.    
```

#### Opcodes

```
  0: 0x05C8 [0x59] UPDATE_ENTITY_DATA: Set Mertaire (ID: 17780764/0x010F501C) main speed = 11* * 0.1
  1: 0x05D0 [0x1F] MOVE_ENTITY: EventEntity moves to X=-95.337*, Z=-156.056*, Y=0.000*
  2: 0x05D8 [0x1F] MOVE_ENTITY: Update entity position (mode=1)
  3: 0x05DA [0x6F] WAIT_FRAME_DELAY: Yield until WaitTime reaches zero
  4: 0x05DB [0x00] END_REQSTACK()
```

### Event 65535.74

#### Metadata

| Field        | Value    |
|--------------|----------|
| Entrypoint   | 0x05DC   |
| Data Size    | 20 bytes |
| Instructions | 5        |

```
      00 01 02 03 04 05 06 07  08 09 0A 0B 0C 0D 0E 0F
      -- -- -- -- -- -- -- --  -- -- -- -- -- -- -- --
05D0:                                      59 04 1C 50              Y..P
05E0: 0F 01 21 80 1F 00 62 80  63 80 64 80 1F 01 6F 00  ..!...b.c.d...o.
```

#### Opcodes

```
  0: 0x05DC [0x59] UPDATE_ENTITY_DATA: Set Mertaire (ID: 17780764/0x010F501C) main speed = 11* * 0.1
  1: 0x05E4 [0x1F] MOVE_ENTITY: EventEntity moves to X=-78.197*, Z=-116.328*, Y=3.999*
  2: 0x05EC [0x1F] MOVE_ENTITY: Update entity position (mode=1)
  3: 0x05EE [0x6F] WAIT_FRAME_DELAY: Yield until WaitTime reaches zero
  4: 0x05EF [0x00] END_REQSTACK()
```

### Event 65535.75

#### Metadata

| Field        | Value    |
|--------------|----------|
| Entrypoint   | 0x05F0   |
| Data Size    | 16 bytes |
| Instructions | 2        |

```
      00 01 02 03 04 05 06 07  08 09 0A 0B 0C 0D 0E 0F
      -- -- -- -- -- -- -- --  -- -- -- -- -- -- -- --
05F0: 5B 65 80 1C 50 0F 01 1C  50 0F 01 6F 70 63 30 00  [e..P...P..opc0.
```

#### Opcodes

```
  0: 0x05F0 [0x5B] LOAD_EXT_SCHEDULER: Load scheduler "opc0" with entities [Mertaire (ID: 17780764/0x010F501C), Mertaire (ID: 17780764/0x010F501C)], work=2583*
  1: 0x05FF [0x00] END_REQSTACK()
```

### Event 65535.76

#### Metadata

| Field        | Value    |
|--------------|----------|
| Entrypoint   | 0x0600   |
| Data Size    | 16 bytes |
| Instructions | 2        |

```
      00 01 02 03 04 05 06 07  08 09 0A 0B 0C 0D 0E 0F
      -- -- -- -- -- -- -- --  -- -- -- -- -- -- -- --
0600: 5B 65 80 1C 50 0F 01 1C  50 0F 01 6F 70 63 31 00  [e..P...P..opc1.
```

#### Opcodes

```
  0: 0x0600 [0x5B] LOAD_EXT_SCHEDULER: Load scheduler "opc1" with entities [Mertaire (ID: 17780764/0x010F501C), Mertaire (ID: 17780764/0x010F501C)], work=2583*
  1: 0x060F [0x00] END_REQSTACK()
```

### Event 65535.77

#### Metadata

| Field        | Value    |
|--------------|----------|
| Entrypoint   | 0x0610   |
| Data Size    | 21 bytes |
| Instructions | 5        |

```
      00 01 02 03 04 05 06 07  08 09 0A 0B 0C 0D 0E 0F
      -- -- -- -- -- -- -- --  -- -- -- -- -- -- -- --
0610: 59 04 1C 50 0F 01 21 80  1F 00 66 80 67 80 0B 80  Y..P..!...f.g...
0620: 1F 01 6F 00 00                                    ..o..           
```

#### Opcodes

```
  0: 0x0610 [0x59] UPDATE_ENTITY_DATA: Set Mertaire (ID: 17780764/0x010F501C) main speed = 11* * 0.1
  1: 0x0618 [0x1F] MOVE_ENTITY: EventEntity moves to X=-9.883*, Z=-9.826*, Y=0.000*
  2: 0x0620 [0x1F] MOVE_ENTITY: Update entity position (mode=1)
  3: 0x0622 [0x6F] WAIT_FRAME_DELAY: Yield until WaitTime reaches zero
  4: 0x0623 [0x00] END_REQSTACK()
```

#### Data or dead code:

```
# Dead code (unreachable instructions):
     0x0624 [0x00] END_REQSTACK()
```

### Event 65535.78

#### Metadata

| Field        | Value    |
|--------------|----------|
| Entrypoint   | 0x0625   |
| Data Size    | 20 bytes |
| Instructions | 5        |

```
      00 01 02 03 04 05 06 07  08 09 0A 0B 0C 0D 0E 0F
      -- -- -- -- -- -- -- --  -- -- -- -- -- -- -- --
0620:                59 04 1E  50 0F 01 68 80 1F 00 3A       Y..P..h...:
0630: 80 3B 80 26 80 1F 01 6F  00                       .;.&...o.       
```

#### Opcodes

```
  0: 0x0625 [0x59] UPDATE_ENTITY_DATA: Set Bki Tbujhja (ID: 17780766/0x010F501E) main speed = 9* * 0.1
  1: 0x062D [0x1F] MOVE_ENTITY: EventEntity moves to X=-74.699*, Z=-107.115*, Y=5.999*
  2: 0x0635 [0x1F] MOVE_ENTITY: Update entity position (mode=1)
  3: 0x0637 [0x6F] WAIT_FRAME_DELAY: Yield until WaitTime reaches zero
  4: 0x0638 [0x00] END_REQSTACK()
```

### Event 65535.79

#### Metadata

| Field        | Value    |
|--------------|----------|
| Entrypoint   | 0x0639   |
| Data Size    | 20 bytes |
| Instructions | 5        |

```
      00 01 02 03 04 05 06 07  08 09 0A 0B 0C 0D 0E 0F
      -- -- -- -- -- -- -- --  -- -- -- -- -- -- -- --
0630:                             59 04 1E 50 0F 01 21           Y..P..!
0640: 80 1F 00 69 80 6A 80 26  80 1F 01 6F 00           ...i.j.&...o.   
```

#### Opcodes

```
  0: 0x0639 [0x59] UPDATE_ENTITY_DATA: Set Bki Tbujhja (ID: 17780766/0x010F501E) main speed = 11* * 0.1
  1: 0x0641 [0x1F] MOVE_ENTITY: EventEntity moves to X=-72.052*, Z=-102.467*, Y=5.999*
  2: 0x0649 [0x1F] MOVE_ENTITY: Update entity position (mode=1)
  3: 0x064B [0x6F] WAIT_FRAME_DELAY: Yield until WaitTime reaches zero
  4: 0x064C [0x00] END_REQSTACK()
```

### Event 65535.80

#### Metadata

| Field        | Value    |
|--------------|----------|
| Entrypoint   | 0x064D   |
| Data Size    | 16 bytes |
| Instructions | 2        |

```
      00 01 02 03 04 05 06 07  08 09 0A 0B 0C 0D 0E 0F
      -- -- -- -- -- -- -- --  -- -- -- -- -- -- -- --
0640:                                         66 5A 80               fZ.
0650: 1E 50 0F 01 1E 50 0F 01  61 77 77 30 00           .P...P..aww0.   
```

#### Opcodes

```
  0: 0x064D [0x66] LOAD_EXT_SCHEDULER_MAIN: Load scheduler "aww0" with entities [Bki Tbujhja (ID: 17780766/0x010F501E), Bki Tbujhja (ID: 17780766/0x010F501E)], work=8*
  1: 0x065C [0x00] END_REQSTACK()
```

### Event 65535.81

#### Metadata

| Field        | Value    |
|--------------|----------|
| Entrypoint   | 0x065D   |
| Data Size    | 20 bytes |
| Instructions | 5        |

```
      00 01 02 03 04 05 06 07  08 09 0A 0B 0C 0D 0E 0F
      -- -- -- -- -- -- -- --  -- -- -- -- -- -- -- --
0650:                                         59 04 1E               Y..
0660: 50 0F 01 68 80 1F 00 6B  80 6C 80 0B 80 1F 01 6F  P..h...k.l.....o
0670: 00                                                .               
```

#### Opcodes

```
  0: 0x065D [0x59] UPDATE_ENTITY_DATA: Set Bki Tbujhja (ID: 17780766/0x010F501E) main speed = 9* * 0.1
  1: 0x0665 [0x1F] MOVE_ENTITY: EventEntity moves to X=-5.853*, Z=-5.190*, Y=0.000*
  2: 0x066D [0x1F] MOVE_ENTITY: Update entity position (mode=1)
  3: 0x066F [0x6F] WAIT_FRAME_DELAY: Yield until WaitTime reaches zero
  4: 0x0670 [0x00] END_REQSTACK()
```

### Event 65535.82

#### Metadata

| Field        | Value    |
|--------------|----------|
| Entrypoint   | 0x0671   |
| Data Size    | 21 bytes |
| Instructions | 5        |

```
      00 01 02 03 04 05 06 07  08 09 0A 0B 0C 0D 0E 0F
      -- -- -- -- -- -- -- --  -- -- -- -- -- -- -- --
0670:    59 04 1E 50 0F 01 21  80 1F 00 60 80 61 80 26   Y..P..!...`.a.&
0680: 80 1F 01 6F 00 00                                 ...o..          
```

#### Opcodes

```
  0: 0x0671 [0x59] UPDATE_ENTITY_DATA: Set Bki Tbujhja (ID: 17780766/0x010F501E) main speed = 11* * 0.1
  1: 0x0679 [0x1F] MOVE_ENTITY: EventEntity moves to X=-58.931*, Z=-86.942*, Y=5.999*
  2: 0x0681 [0x1F] MOVE_ENTITY: Update entity position (mode=1)
  3: 0x0683 [0x6F] WAIT_FRAME_DELAY: Yield until WaitTime reaches zero
  4: 0x0684 [0x00] END_REQSTACK()
```

#### Data or dead code:

```
# Dead code (unreachable instructions):
     0x0685 [0x00] END_REQSTACK()
```

### Event 65535.83

#### Metadata

| Field        | Value    |
|--------------|----------|
| Entrypoint   | 0x0686   |
| Data Size    | 20 bytes |
| Instructions | 5        |

```
      00 01 02 03 04 05 06 07  08 09 0A 0B 0C 0D 0E 0F
      -- -- -- -- -- -- -- --  -- -- -- -- -- -- -- --
0680:                   59 04  27 50 0F 01 1E 80 1F 00        Y.'P......
0690: 6D 80 6E 80 6F 80 1F 01  6F 00                    m.n.o...o.      
```

#### Opcodes

```
  0: 0x0686 [0x59] UPDATE_ENTITY_DATA: Set Danzhor (ID: 17780775/0x010F5027) main speed = 12* * 0.1
  1: 0x068E [0x1F] MOVE_ENTITY: EventEntity moves to X=-45.210*, Z=-89.196*, Y=-5.999*
  2: 0x0696 [0x1F] MOVE_ENTITY: Update entity position (mode=1)
  3: 0x0698 [0x6F] WAIT_FRAME_DELAY: Yield until WaitTime reaches zero
  4: 0x0699 [0x00] END_REQSTACK()
```

### Event 65535.84

#### Metadata

| Field        | Value    |
|--------------|----------|
| Entrypoint   | 0x069A   |
| Data Size    | 12 bytes |
| Instructions | 4        |

```
      00 01 02 03 04 05 06 07  08 09 0A 0B 0C 0D 0E 0F
      -- -- -- -- -- -- -- --  -- -- -- -- -- -- -- --
0690:                                1F 00 70 80 71 80            ..p.q.
06A0: 0B 80 1F 01 6F 00                                 ....o.          
```

#### Opcodes

```
  0: 0x069A [0x1F] MOVE_ENTITY: EventEntity moves to X=-18.343*, Z=-8.286*, Y=0.000*
  1: 0x06A2 [0x1F] MOVE_ENTITY: Update entity position (mode=1)
  2: 0x06A4 [0x6F] WAIT_FRAME_DELAY: Yield until WaitTime reaches zero
  3: 0x06A5 [0x00] END_REQSTACK()
```

### Event 65535.85

#### Metadata

| Field        | Value    |
|--------------|----------|
| Entrypoint   | 0x06A6   |
| Data Size    | 16 bytes |
| Instructions | 2        |

```
      00 01 02 03 04 05 06 07  08 09 0A 0B 0C 0D 0E 0F
      -- -- -- -- -- -- -- --  -- -- -- -- -- -- -- --
06A0:                   66 32  80 27 50 0F 01 27 50 0F        f2.'P..'P.
06B0: 01 74 68 6B 31 00                                 .thk1.          
```

#### Opcodes

```
  0: 0x06A6 [0x66] LOAD_EXT_SCHEDULER_MAIN: Load scheduler "thk1" with entities [Danzhor (ID: 17780775/0x010F5027), Danzhor (ID: 17780775/0x010F5027)], work=69*
  1: 0x06B5 [0x00] END_REQSTACK()
```

### Event 65535.86

#### Metadata

| Field        | Value    |
|--------------|----------|
| Entrypoint   | 0x06B6   |
| Data Size    | 16 bytes |
| Instructions | 2        |

```
      00 01 02 03 04 05 06 07  08 09 0A 0B 0C 0D 0E 0F
      -- -- -- -- -- -- -- --  -- -- -- -- -- -- -- --
06B0:                   66 32  80 27 50 0F 01 27 50 0F        f2.'P..'P.
06C0: 01 74 68 6B 32 00                                 .thk2.          
```

#### Opcodes

```
  0: 0x06B6 [0x66] LOAD_EXT_SCHEDULER_MAIN: Load scheduler "thk2" with entities [Danzhor (ID: 17780775/0x010F5027), Danzhor (ID: 17780775/0x010F5027)], work=69*
  1: 0x06C5 [0x00] END_REQSTACK()
```

### Event 65535.87

#### Metadata

| Field        | Value    |
|--------------|----------|
| Entrypoint   | 0x06C6   |
| Data Size    | 20 bytes |
| Instructions | 5        |

```
      00 01 02 03 04 05 06 07  08 09 0A 0B 0C 0D 0E 0F
      -- -- -- -- -- -- -- --  -- -- -- -- -- -- -- --
06C0:                   59 04  27 50 0F 01 1E 80 1F 00        Y.'P......
06D0: 72 80 73 80 0B 80 1F 01  6F 00                    r.s.....o.      
```

#### Opcodes

```
  0: 0x06C6 [0x59] UPDATE_ENTITY_DATA: Set Danzhor (ID: 17780775/0x010F5027) main speed = 12* * 0.1
  1: 0x06CE [0x1F] MOVE_ENTITY: EventEntity moves to X=-17.939*, Z=-16.579*, Y=0.000*
  2: 0x06D6 [0x1F] MOVE_ENTITY: Update entity position (mode=1)
  3: 0x06D8 [0x6F] WAIT_FRAME_DELAY: Yield until WaitTime reaches zero
  4: 0x06D9 [0x00] END_REQSTACK()
```

### Event 65535.88

#### Metadata

| Field        | Value    |
|--------------|----------|
| Entrypoint   | 0x06DA   |
| Data Size    | 20 bytes |
| Instructions | 5        |

```
      00 01 02 03 04 05 06 07  08 09 0A 0B 0C 0D 0E 0F
      -- -- -- -- -- -- -- --  -- -- -- -- -- -- -- --
06D0:                                59 04 27 50 0F 01            Y.'P..
06E0: 1E 80 1F 00 74 80 75 80  0B 80 1F 01 6F 00        ....t.u.....o.  
```

#### Opcodes

```
  0: 0x06DA [0x59] UPDATE_ENTITY_DATA: Set Danzhor (ID: 17780775/0x010F5027) main speed = 12* * 0.1
  1: 0x06E2 [0x1F] MOVE_ENTITY: EventEntity moves to X=-3.065*, Z=-7.931*, Y=0.000*
  2: 0x06EA [0x1F] MOVE_ENTITY: Update entity position (mode=1)
  3: 0x06EC [0x6F] WAIT_FRAME_DELAY: Yield until WaitTime reaches zero
  4: 0x06ED [0x00] END_REQSTACK()
```

### Event 65535.89

#### Metadata

| Field        | Value    |
|--------------|----------|
| Entrypoint   | 0x06EE   |
| Data Size    | 17 bytes |
| Instructions | 2        |

```
      00 01 02 03 04 05 06 07  08 09 0A 0B 0C 0D 0E 0F
      -- -- -- -- -- -- -- --  -- -- -- -- -- -- -- --
06E0:                                            66 46                fF
06F0: 80 30 50 0F 01 30 50 0F  01 73 68 6B 30 00 00     .0P..0P..shk0.. 
```

#### Opcodes

```
  0: 0x06EE [0x66] LOAD_EXT_SCHEDULER_MAIN: Load scheduler "shk0" with entities [Kikilolo (ID: 17780784/0x010F5030), Kikilolo (ID: 17780784/0x010F5030)], work=41*
  1: 0x06FD [0x00] END_REQSTACK()
```

#### Data or dead code:

```
# Dead code (unreachable instructions):
     0x06FE [0x00] END_REQSTACK()
```

### Event 65535.90

#### Metadata

| Field        | Value    |
|--------------|----------|
| Entrypoint   | 0x06FF   |
| Data Size    | 16 bytes |
| Instructions | 2        |

```
      00 01 02 03 04 05 06 07  08 09 0A 0B 0C 0D 0E 0F
      -- -- -- -- -- -- -- --  -- -- -- -- -- -- -- --
06F0:                                               5B                 [
0700: 1C 80 39 50 0F 01 39 50  0F 01 74 6C 6B 30 00     ..9P..9P..tlk0. 
```

#### Opcodes

```
  0: 0x06FF [0x5B] LOAD_EXT_SCHEDULER: Load scheduler "tlk0" with entities [Momiji (ID: 17780793/0x010F5039), Momiji (ID: 17780793/0x010F5039)], work=60*
  1: 0x070E [0x00] END_REQSTACK()
```

### Event 65535.91

#### Metadata

| Field        | Value    |
|--------------|----------|
| Entrypoint   | 0x070F   |
| Data Size    | 16 bytes |
| Instructions | 2        |

```
      00 01 02 03 04 05 06 07  08 09 0A 0B 0C 0D 0E 0F
      -- -- -- -- -- -- -- --  -- -- -- -- -- -- -- --
0700:                                               5B                 [
0710: 1C 80 39 50 0F 01 39 50  0F 01 74 6C 6B 31 00     ..9P..9P..tlk1. 
```

#### Opcodes

```
  0: 0x070F [0x5B] LOAD_EXT_SCHEDULER: Load scheduler "tlk1" with entities [Momiji (ID: 17780793/0x010F5039), Momiji (ID: 17780793/0x010F5039)], work=60*
  1: 0x071E [0x00] END_REQSTACK()
```

### Event 65535.92

#### Metadata

| Field        | Value    |
|--------------|----------|
| Entrypoint   | 0x071F   |
| Data Size    | 16 bytes |
| Instructions | 2        |

```
      00 01 02 03 04 05 06 07  08 09 0A 0B 0C 0D 0E 0F
      -- -- -- -- -- -- -- --  -- -- -- -- -- -- -- --
0710:                                               5B                 [
0720: 1C 80 39 50 0F 01 39 50  0F 01 74 68 6B 31 00     ..9P..9P..thk1. 
```

#### Opcodes

```
  0: 0x071F [0x5B] LOAD_EXT_SCHEDULER: Load scheduler "thk1" with entities [Momiji (ID: 17780793/0x010F5039), Momiji (ID: 17780793/0x010F5039)], work=60*
  1: 0x072E [0x00] END_REQSTACK()
```

### Event 65535.93

#### Metadata

| Field        | Value    |
|--------------|----------|
| Entrypoint   | 0x072F   |
| Data Size    | 16 bytes |
| Instructions | 2        |

```
      00 01 02 03 04 05 06 07  08 09 0A 0B 0C 0D 0E 0F
      -- -- -- -- -- -- -- --  -- -- -- -- -- -- -- --
0720:                                               5B                 [
0730: 1C 80 39 50 0F 01 39 50  0F 01 74 68 6B 32 00     ..9P..9P..thk2. 
```

#### Opcodes

```
  0: 0x072F [0x5B] LOAD_EXT_SCHEDULER: Load scheduler "thk2" with entities [Momiji (ID: 17780793/0x010F5039), Momiji (ID: 17780793/0x010F5039)], work=60*
  1: 0x073E [0x00] END_REQSTACK()
```

### Event 65535.94

#### Metadata

| Field        | Value    |
|--------------|----------|
| Entrypoint   | 0x073F   |
| Data Size    | 17 bytes |
| Instructions | 2        |

```
      00 01 02 03 04 05 06 07  08 09 0A 0B 0C 0D 0E 0F
      -- -- -- -- -- -- -- --  -- -- -- -- -- -- -- --
0730:                                               5B                 [
0740: 76 80 39 50 0F 01 39 50  0F 01 65 6D 74 30 00 00  v.9P..9P..emt0..
```

#### Opcodes

```
  0: 0x073F [0x5B] LOAD_EXT_SCHEDULER: Load scheduler "emt0" with entities [Momiji (ID: 17780793/0x010F5039), Momiji (ID: 17780793/0x010F5039)], work=2624*
  1: 0x074E [0x00] END_REQSTACK()
```

#### Data or dead code:

```
# Dead code (unreachable instructions):
     0x074F [0x00] END_REQSTACK()
```

### Event 65535.95

#### Metadata

| Field        | Value    |
|--------------|----------|
| Entrypoint   | 0x0750   |
| Data Size    | 20 bytes |
| Instructions | 5        |

```
      00 01 02 03 04 05 06 07  08 09 0A 0B 0C 0D 0E 0F
      -- -- -- -- -- -- -- --  -- -- -- -- -- -- -- --
0750: 59 04 3C 50 0F 01 00 80  1F 00 77 80 78 80 0B 80  Y.<P......w.x...
0760: 1F 01 6F 00                                       ..o.            
```

#### Opcodes

```
  0: 0x0750 [0x59] UPDATE_ENTITY_DATA: Set Mendi (ID: 17780796/0x010F503C) main speed = 13* * 0.1
  1: 0x0758 [0x1F] MOVE_ENTITY: EventEntity moves to X=-38.371*, Z=-67.496*, Y=0.000*
  2: 0x0760 [0x1F] MOVE_ENTITY: Update entity position (mode=1)
  3: 0x0762 [0x6F] WAIT_FRAME_DELAY: Yield until WaitTime reaches zero
  4: 0x0763 [0x00] END_REQSTACK()
```

### Event 65535.96

#### Metadata

| Field        | Value    |
|--------------|----------|
| Entrypoint   | 0x0764   |
| Data Size    | 12 bytes |
| Instructions | 4        |

```
      00 01 02 03 04 05 06 07  08 09 0A 0B 0C 0D 0E 0F
      -- -- -- -- -- -- -- --  -- -- -- -- -- -- -- --
0760:             1F 00 79 80  7A 80 0B 80 1F 01 6F 00      ..y.z.....o.
```

#### Opcodes

```
  0: 0x0764 [0x1F] MOVE_ENTITY: EventEntity moves to X=-5.565*, Z=-1.804*, Y=0.000*
  1: 0x076C [0x1F] MOVE_ENTITY: Update entity position (mode=1)
  2: 0x076E [0x6F] WAIT_FRAME_DELAY: Yield until WaitTime reaches zero
  3: 0x076F [0x00] END_REQSTACK()
```

### Event 65535.97

#### Metadata

| Field        | Value    |
|--------------|----------|
| Entrypoint   | 0x0770   |
| Data Size    | 16 bytes |
| Instructions | 2        |

```
      00 01 02 03 04 05 06 07  08 09 0A 0B 0C 0D 0E 0F
      -- -- -- -- -- -- -- --  -- -- -- -- -- -- -- --
0770: 5B 65 80 3C 50 0F 01 3C  50 0F 01 6F 70 62 30 00  [e.<P..<P..opb0.
```

#### Opcodes

```
  0: 0x0770 [0x5B] LOAD_EXT_SCHEDULER: Load scheduler "opb0" with entities [Mendi (ID: 17780796/0x010F503C), Mendi (ID: 17780796/0x010F503C)], work=2583*
  1: 0x077F [0x00] END_REQSTACK()
```

### Event 65535.98

#### Metadata

| Field        | Value    |
|--------------|----------|
| Entrypoint   | 0x0780   |
| Data Size    | 16 bytes |
| Instructions | 2        |

```
      00 01 02 03 04 05 06 07  08 09 0A 0B 0C 0D 0E 0F
      -- -- -- -- -- -- -- --  -- -- -- -- -- -- -- --
0780: 5B 65 80 3C 50 0F 01 3C  50 0F 01 6F 70 63 30 00  [e.<P..<P..opc0.
```

#### Opcodes

```
  0: 0x0780 [0x5B] LOAD_EXT_SCHEDULER: Load scheduler "opc0" with entities [Mendi (ID: 17780796/0x010F503C), Mendi (ID: 17780796/0x010F503C)], work=2583*
  1: 0x078F [0x00] END_REQSTACK()
```

### Event 65535.99

#### Metadata

| Field        | Value    |
|--------------|----------|
| Entrypoint   | 0x0790   |
| Data Size    | 16 bytes |
| Instructions | 2        |

```
      00 01 02 03 04 05 06 07  08 09 0A 0B 0C 0D 0E 0F
      -- -- -- -- -- -- -- --  -- -- -- -- -- -- -- --
0790: 5B 65 80 3C 50 0F 01 3C  50 0F 01 6F 70 63 31 00  [e.<P..<P..opc1.
```

#### Opcodes

```
  0: 0x0790 [0x5B] LOAD_EXT_SCHEDULER: Load scheduler "opc1" with entities [Mendi (ID: 17780796/0x010F503C), Mendi (ID: 17780796/0x010F503C)], work=2583*
  1: 0x079F [0x00] END_REQSTACK()
```

### Event 65535.100

#### Metadata

| Field        | Value    |
|--------------|----------|
| Entrypoint   | 0x07A0   |
| Data Size    | 16 bytes |
| Instructions | 2        |

```
      00 01 02 03 04 05 06 07  08 09 0A 0B 0C 0D 0E 0F
      -- -- -- -- -- -- -- --  -- -- -- -- -- -- -- --
07A0: 66 7B 80 3C 50 0F 01 3C  50 0F 01 74 68 62 31 00  f{.<P..<P..thb1.
```

#### Opcodes

```
  0: 0x07A0 [0x66] LOAD_EXT_SCHEDULER_MAIN: Load scheduler "thb1" with entities [Mendi (ID: 17780796/0x010F503C), Mendi (ID: 17780796/0x010F503C)], work=2*
  1: 0x07AF [0x00] END_REQSTACK()
```

### Event 65535.101

#### Metadata

| Field        | Value    |
|--------------|----------|
| Entrypoint   | 0x07B0   |
| Data Size    | 16 bytes |
| Instructions | 2        |

```
      00 01 02 03 04 05 06 07  08 09 0A 0B 0C 0D 0E 0F
      -- -- -- -- -- -- -- --  -- -- -- -- -- -- -- --
07B0: 66 7B 80 3C 50 0F 01 3C  50 0F 01 74 68 62 32 00  f{.<P..<P..thb2.
```

#### Opcodes

```
  0: 0x07B0 [0x66] LOAD_EXT_SCHEDULER_MAIN: Load scheduler "thb2" with entities [Mendi (ID: 17780796/0x010F503C), Mendi (ID: 17780796/0x010F503C)], work=2*
  1: 0x07BF [0x00] END_REQSTACK()
```

### Event 65535.102

#### Metadata

| Field        | Value    |
|--------------|----------|
| Entrypoint   | 0x07C0   |
| Data Size    | 16 bytes |
| Instructions | 2        |

```
      00 01 02 03 04 05 06 07  08 09 0A 0B 0C 0D 0E 0F
      -- -- -- -- -- -- -- --  -- -- -- -- -- -- -- --
07C0: 66 0B 80 3C 50 0F 01 3C  50 0F 01 74 68 6B 31 00  f..<P..<P..thk1.
```

#### Opcodes

```
  0: 0x07C0 [0x66] LOAD_EXT_SCHEDULER_MAIN: Load scheduler "thk1" with entities [Mendi (ID: 17780796/0x010F503C), Mendi (ID: 17780796/0x010F503C)], work=0*
  1: 0x07CF [0x00] END_REQSTACK()
```

### Event 65535.103

#### Metadata

| Field        | Value    |
|--------------|----------|
| Entrypoint   | 0x07D0   |
| Data Size    | 16 bytes |
| Instructions | 2        |

```
      00 01 02 03 04 05 06 07  08 09 0A 0B 0C 0D 0E 0F
      -- -- -- -- -- -- -- --  -- -- -- -- -- -- -- --
07D0: 66 0B 80 3C 50 0F 01 3C  50 0F 01 74 68 6B 32 00  f..<P..<P..thk2.
```

#### Opcodes

```
  0: 0x07D0 [0x66] LOAD_EXT_SCHEDULER_MAIN: Load scheduler "thk2" with entities [Mendi (ID: 17780796/0x010F503C), Mendi (ID: 17780796/0x010F503C)], work=0*
  1: 0x07DF [0x00] END_REQSTACK()
```

### Event 65535.104

#### Metadata

| Field        | Value    |
|--------------|----------|
| Entrypoint   | 0x07E0   |
| Data Size    | 20 bytes |
| Instructions | 5        |

```
      00 01 02 03 04 05 06 07  08 09 0A 0B 0C 0D 0E 0F
      -- -- -- -- -- -- -- --  -- -- -- -- -- -- -- --
07E0: 59 04 3C 50 0F 01 00 80  1F 00 7C 80 7D 80 0B 80  Y.<P......|.}...
07F0: 1F 01 6F 00                                       ..o.            
```

#### Opcodes

```
  0: 0x07E0 [0x59] UPDATE_ENTITY_DATA: Set Mendi (ID: 17780796/0x010F503C) main speed = 13* * 0.1
  1: 0x07E8 [0x1F] MOVE_ENTITY: EventEntity moves to X=-2.765*, Z=5.059*, Y=0.000*
  2: 0x07F0 [0x1F] MOVE_ENTITY: Update entity position (mode=1)
  3: 0x07F2 [0x6F] WAIT_FRAME_DELAY: Yield until WaitTime reaches zero
  4: 0x07F3 [0x00] END_REQSTACK()
```

### Event 65535.105

#### Metadata

| Field        | Value    |
|--------------|----------|
| Entrypoint   | 0x07F4   |
| Data Size    | 20 bytes |
| Instructions | 5        |

```
      00 01 02 03 04 05 06 07  08 09 0A 0B 0C 0D 0E 0F
      -- -- -- -- -- -- -- --  -- -- -- -- -- -- -- --
