# 17780771 - Chululu

## Common Data

| Field            | Value                 |
|------------------|-----------------------|
| Zone             | Lower Jeuno (ID: 245) |
| Block Size       | 5928 bytes            |
| Total Events     | 128                   |
| References Count | 187                   |

## List of Events

| Event ID                     | Entrypoint   |   Size |   Instructions |
|------------------------------|--------------|--------|----------------|
| [65535](#event-65535)        | 0x0000       |      4 |              2 |
| [17](#event-17)              | 0x0004       |      1 |              1 |
| [154](#event-154)            | 0x0005       |      1 |              1 |
| [57](#event-57)              | 0x0006       |     49 |              7 |
| [56](#event-56)              | 0x0037       |     78 |             14 |
| [65535.1](#event-655351)     | 0x0085       |     10 |              2 |
| [26](#event-26)              | 0x008F       |     15 |              8 |
| [28](#event-28)              | 0x009E       |     80 |             29 |
| [27](#event-27)              | 0x00EE       |     15 |              8 |
| [199](#event-199)            | 0x00FD       |    179 |             51 |
| [198](#event-198)            | 0x01B0       |     77 |             26 |
| [49](#event-49)              | 0x01FD       |     16 |              9 |
| [197](#event-197)            | 0x020D       |     33 |             10 |
| [196](#event-196)            | 0x022E       |      1 |              1 |
| [200](#event-200)            | 0x022F       |      1 |              1 |
| [65535.2](#event-655352)     | 0x0230       |     10 |              2 |
| [65535.3](#event-655353)     | 0x023A       |     27 |              7 |
| [65535.4](#event-655354)     | 0x0255       |     13 |              4 |
| [65535.5](#event-655355)     | 0x0262       |     29 |              3 |
| [65535.6](#event-655356)     | 0x027F       |     19 |              3 |
| [65535.7](#event-655357)     | 0x0292       |     29 |              3 |
| [65535.8](#event-655358)     | 0x02AF       |     29 |              3 |
| [65535.9](#event-655359)     | 0x02CC       |     29 |              3 |
| [65535.10](#event-6553510)   | 0x02E9       |      9 |              3 |
| [65535.11](#event-6553511)   | 0x02F2       |   1496 |            302 |
| [10094](#event-10094)        | 0x08CA       |      5 |              3 |
| [65535.12](#event-6553512)   | 0x08CF       |     20 |              5 |
| [65535.13](#event-6553513)   | 0x08E3       |     20 |              5 |
| [65535.14](#event-6553514)   | 0x08F7       |     20 |              5 |
| [65535.15](#event-6553515)   | 0x090B       |     17 |              3 |
| [65535.16](#event-6553516)   | 0x091C       |     20 |              5 |
| [65535.17](#event-6553517)   | 0x0930       |     20 |              5 |
| [65535.18](#event-6553518)   | 0x0944       |     19 |              4 |
| [65535.19](#event-6553519)   | 0x0957       |     19 |              4 |
| [65535.20](#event-6553520)   | 0x096A       |     16 |              2 |
| [65535.21](#event-6553521)   | 0x097A       |     16 |              2 |
| [65535.22](#event-6553522)   | 0x098A       |     20 |              5 |
| [65535.23](#event-6553523)   | 0x099E       |     16 |              2 |
| [65535.24](#event-6553524)   | 0x09AE       |     16 |              2 |
| [65535.25](#event-6553525)   | 0x09BE       |     16 |              2 |
| [65535.26](#event-6553526)   | 0x09CE       |     21 |              6 |
| [65535.27](#event-6553527)   | 0x09E3       |     16 |              2 |
| [65535.28](#event-6553528)   | 0x09F3       |     16 |              2 |
| [65535.29](#event-6553529)   | 0x0A03       |     20 |              5 |
| [65535.30](#event-6553530)   | 0x0A17       |     17 |              3 |
| [65535.31](#event-6553531)   | 0x0A28       |     20 |              5 |
| [65535.32](#event-6553532)   | 0x0A3C       |     16 |              2 |
| [65535.33](#event-6553533)   | 0x0A4C       |     16 |              2 |
| [65535.34](#event-6553534)   | 0x0A5C       |     16 |              2 |
| [65535.35](#event-6553535)   | 0x0A6C       |     16 |              2 |
| [65535.36](#event-6553536)   | 0x0A7C       |     16 |              2 |
| [65535.37](#event-6553537)   | 0x0A8C       |     16 |              2 |
| [65535.38](#event-6553538)   | 0x0A9C       |     16 |              2 |
| [65535.39](#event-6553539)   | 0x0AAC       |     12 |              4 |
| [65535.40](#event-6553540)   | 0x0AB8       |     20 |              5 |
| [65535.41](#event-6553541)   | 0x0ACC       |     17 |              3 |
| [65535.42](#event-6553542)   | 0x0ADD       |     17 |              3 |
| [65535.43](#event-6553543)   | 0x0AEE       |     16 |              2 |
| [65535.44](#event-6553544)   | 0x0AFE       |     16 |              2 |
| [65535.45](#event-6553545)   | 0x0B0E       |     16 |              2 |
| [65535.46](#event-6553546)   | 0x0B1E       |     16 |              2 |
| [65535.47](#event-6553547)   | 0x0B2E       |     16 |              2 |
| [65535.48](#event-6553548)   | 0x0B3E       |     16 |              2 |
| [65535.49](#event-6553549)   | 0x0B4E       |     13 |              5 |
| [65535.50](#event-6553550)   | 0x0B5B       |     20 |              5 |
| [65535.51](#event-6553551)   | 0x0B6F       |     12 |              4 |
| [65535.52](#event-6553552)   | 0x0B7B       |     16 |              2 |
| [65535.53](#event-6553553)   | 0x0B8B       |     16 |              2 |
| [65535.54](#event-6553554)   | 0x0B9B       |     16 |              2 |
| [65535.55](#event-6553555)   | 0x0BAB       |     20 |              5 |
| [65535.56](#event-6553556)   | 0x0BBF       |     29 |              6 |
| [65535.57](#event-6553557)   | 0x0BDC       |     17 |              3 |
| [65535.58](#event-6553558)   | 0x0BED       |     20 |              5 |
| [65535.59](#event-6553559)   | 0x0C01       |     20 |              5 |
| [65535.60](#event-6553560)   | 0x0C15       |     20 |              5 |
| [65535.61](#event-6553561)   | 0x0C29       |     20 |              5 |
| [65535.62](#event-6553562)   | 0x0C3D       |     20 |              5 |
| [65535.63](#event-6553563)   | 0x0C51       |     16 |              2 |
| [65535.64](#event-6553564)   | 0x0C61       |     16 |              2 |
| [65535.65](#event-6553565)   | 0x0C71       |     20 |              5 |
| [65535.66](#event-6553566)   | 0x0C85       |     16 |              2 |
| [65535.67](#event-6553567)   | 0x0C95       |     16 |              2 |
| [65535.68](#event-6553568)   | 0x0CA5       |     16 |              2 |
| [65535.69](#event-6553569)   | 0x0CB5       |     16 |              2 |
| [65535.70](#event-6553570)   | 0x0CC5       |     21 |              6 |
| [65535.71](#event-6553571)   | 0x0CDA       |     20 |              5 |
| [65535.72](#event-6553572)   | 0x0CEE       |     20 |              5 |
| [65535.73](#event-6553573)   | 0x0D02       |     17 |              3 |
| [65535.74](#event-6553574)   | 0x0D13       |     20 |              5 |
| [65535.75](#event-6553575)   | 0x0D27       |     20 |              5 |
| [65535.76](#event-6553576)   | 0x0D3B       |     16 |              2 |
| [65535.77](#event-6553577)   | 0x0D4B       |     16 |              2 |
| [65535.78](#event-6553578)   | 0x0D5B       |     21 |              6 |
| [65535.79](#event-6553579)   | 0x0D70       |     20 |              5 |
| [65535.80](#event-6553580)   | 0x0D84       |     20 |              5 |
| [65535.81](#event-6553581)   | 0x0D98       |     16 |              2 |
| [65535.82](#event-6553582)   | 0x0DA8       |     20 |              5 |
| [65535.83](#event-6553583)   | 0x0DBC       |     21 |              6 |
| [65535.84](#event-6553584)   | 0x0DD1       |     20 |              5 |
| [65535.85](#event-6553585)   | 0x0DE5       |     12 |              4 |
| [65535.86](#event-6553586)   | 0x0DF1       |     16 |              2 |
| [65535.87](#event-6553587)   | 0x0E01       |     16 |              2 |
| [65535.88](#event-6553588)   | 0x0E11       |     20 |              5 |
| [65535.89](#event-6553589)   | 0x0E25       |     20 |              5 |
| [65535.90](#event-6553590)   | 0x0E39       |     17 |              3 |
| [65535.91](#event-6553591)   | 0x0E4A       |     16 |              2 |
| [65535.92](#event-6553592)   | 0x0E5A       |     16 |              2 |
| [65535.93](#event-6553593)   | 0x0E6A       |     16 |              2 |
| [65535.94](#event-6553594)   | 0x0E7A       |     16 |              2 |
| [65535.95](#event-6553595)   | 0x0E8A       |     17 |              3 |
| [65535.96](#event-6553596)   | 0x0E9B       |     20 |              5 |
| [65535.97](#event-6553597)   | 0x0EAF       |     12 |              4 |
| [65535.98](#event-6553598)   | 0x0EBB       |     16 |              2 |
| [65535.99](#event-6553599)   | 0x0ECB       |     16 |              2 |
| [65535.100](#event-65535100) | 0x0EDB       |     16 |              2 |
| [65535.101](#event-65535101) | 0x0EEB       |     16 |              2 |
| [65535.102](#event-65535102) | 0x0EFB       |     16 |              2 |
| [65535.103](#event-65535103) | 0x0F0B       |     16 |              2 |
| [65535.104](#event-65535104) | 0x0F1B       |     16 |              2 |
| [65535.105](#event-65535105) | 0x0F2B       |     20 |              5 |
| [65535.106](#event-65535106) | 0x0F3F       |     20 |              5 |
| [65535.107](#event-65535107) | 0x0F53       |     16 |              2 |
| [65535.108](#event-65535108) | 0x0F63       |     16 |              2 |
| [10110](#event-10110)        | 0x0F73       |    240 |             53 |
| [10111](#event-10111)        | 0x1063       |     74 |             14 |
| [10112](#event-10112)        | 0x10AD       |     89 |             19 |
| [10113](#event-10113)        | 0x1106       |    202 |             47 |
| [10114](#event-10114)        | 0x11D0       |     91 |             17 |

## DAT References (imed_data)

|   Index | Hex Value   |   Dec Value |
|---------|-------------|-------------|
|       0 | 0x000D      |          13 |
|       1 | 0x0028      |          40 |
|       2 | 0x2150      |        8528 |
|       3 | 0x2171      |        8561 |
|       4 | 0x2172      |        8562 |
|       5 | 0xFFFFBF59  |  4294950745 |
|       6 | 0xFFFF7707  |  4294932231 |
|       7 | 0xFFFFE891  |  4294961297 |
|       8 | 0x0D6B      |        3435 |
|       9 | 0x1D82      |        7554 |
|      10 | 0x1D83      |        7555 |
|      11 | 0x1D84      |        7556 |
|      12 | 0x1D85      |        7557 |
|      13 | 0x0001      |           1 |
|      14 | 0x0000      |           0 |
|      15 | 0x1D86      |        7558 |
|      16 | 0x1D87      |        7559 |
|      17 | 0x1D88      |        7560 |
|      18 | 0x1D89      |        7561 |
|      19 | 0x1D8A      |        7562 |
|      20 | 0x1D97      |        7575 |
|      21 | 0x1D98      |        7576 |
|      22 | 0x1D9A      |        7578 |
|      23 | 0x1D9F      |        7583 |
|      24 | 0x0002      |           2 |
|      25 | 0x1DA0      |        7584 |
|      26 | 0x0003      |           3 |
|      27 | 0x1D9E      |        7582 |
|      28 | 0x1D9C      |        7580 |
|      29 | 0x1D9D      |        7581 |
|      30 | 0x1D99      |        7577 |
|      31 | 0x40000000  |  1073741824 |
|      32 | 0x1DAE      |        7598 |
|      33 | 0x1DAF      |        7599 |
|      34 | 0x1DB0      |        7600 |
|      35 | 0x0078      |         120 |
|      36 | 0x1DB1      |        7601 |
|      37 | 0x1DB2      |        7602 |
|      38 | 0x1DB3      |        7603 |
|      39 | 0x1DB4      |        7604 |
|      40 | 0x1DB5      |        7605 |
|      41 | 0x00C9      |         201 |
|      42 | 0xFFFFE17C  |  4294959484 |
|      43 | 0xFFFF7A62  |  4294933090 |
|      44 | 0xFFFFE890  |  4294961296 |
|      45 | 0x0D30      |        3376 |
|      46 | 0xFFFFEAD8  |  4294961880 |
|      47 | 0xFFFF8C04  |  4294937604 |
|      48 | 0x003C      |          60 |
|      49 | 0x002A      |          42 |
|      50 | 0x1EEC      |        7916 |
|      51 | 0x000A      |          10 |
|      52 | 0x1DA8      |        7592 |
|      53 | 0x0008      |           8 |
|      54 | 0x1DA9      |        7593 |
|      55 | 0x0006      |           6 |
|      56 | 0x1DAA      |        7594 |
|      57 | 0x0004      |           4 |
|      58 | 0x1DAB      |        7595 |
|      59 | 0x1DAD      |        7597 |
|      60 | 0x1DAC      |        7596 |
|      61 | 0x0005      |           5 |
|      62 | 0x0007      |           7 |
|      63 | 0xFFFFFFFE  |  4294967294 |
|      64 | 0xFFFFFFFF  |  4294967295 |
|      65 | 0x001F      |          31 |
|      66 | 0x0022      |          34 |
|      67 | 0x0023      |          35 |
|      68 | 0x0011      |          17 |
|      69 | 0x0014      |          20 |
|      70 | 0x0015      |          21 |
|      71 | 0x0009      |           9 |
|      72 | 0x000B      |          11 |
|      73 | 0x000C      |          12 |
|      74 | 0x000E      |          14 |
|      75 | 0x0024      |          36 |
|      76 | 0x000F      |          15 |
|      77 | 0xFFFED6C4  |  4294891204 |
|      78 | 0xFFFDEB5B  |  4294830939 |
|      79 | 0xFFFE8B97  |  4294871959 |
|      80 | 0xFFFD9E68  |  4294811240 |
|      81 | 0xFFFF0D87  |  4294905223 |
|      82 | 0xFFFEA0EF  |  4294877423 |
|      83 | 0x176F      |        5999 |
|      84 | 0x0A3A      |        2618 |
|      85 | 0xFFFEB818  |  4294883352 |
|      86 | 0xFFFE098F  |  4294838671 |
|      87 | 0xFFFEF410  |  4294898704 |
|      88 | 0xFFFE85B9  |  4294870457 |
|      89 | 0xFFFEEC91  |  4294896785 |
|      90 | 0xFFFE6EA2  |  4294864546 |
|      91 | 0x0A2A      |        2602 |
|      92 | 0xFFFEE552  |  4294894930 |
|      93 | 0xFFFE3269  |  4294849129 |
|      94 | 0x0A39      |        2617 |
|      95 | 0x0045      |          69 |
|      96 | 0xFFFF2160  |  4294910304 |
|      97 | 0xFFFEA80E  |  4294879246 |
|      98 | 0x0A3D      |        2621 |
|      99 | 0x0A43      |        2627 |
|     100 | 0x004B      |          75 |
|     101 | 0xFFFFB20E  |  4294947342 |
|     102 | 0xFFFFAE2A  |  4294946346 |
|     103 | 0xFFFEDC35  |  4294892597 |
|     104 | 0xFFFE5D95  |  4294860181 |
|     105 | 0x0A47      |        2631 |
|     106 | 0x0055      |          85 |
|     107 | 0xFFFFB26F  |  4294947439 |
|     108 | 0xFFFFAB30  |  4294945584 |
|     109 | 0xFFFF6C7D  |  4294929533 |
|     110 | 0xFFFF0AA4  |  4294904484 |
|     111 | 0xFFFFCBCA  |  4294953930 |
|     112 | 0x09E0      |        2528 |
|     113 | 0xFFFFFE3F  |  4294966847 |
|     114 | 0x0029      |          41 |
|     115 | 0xFFFEEA26  |  4294896166 |
|     116 | 0xFFFE4F39  |  4294856505 |
|     117 | 0xFFFED8EC  |  4294891756 |
|     118 | 0xFFFE38BF  |  4294850751 |
|     119 | 0xFFFEC5BC  |  4294886844 |
|     120 | 0xFFFE1640  |  4294841920 |
|     121 | 0x03E7      |         999 |
|     122 | 0x0A33      |        2611 |
|     123 | 0xFFFF04E1  |  4294903009 |
|     124 | 0xFFFE7108  |  4294865160 |
|     125 | 0x108C      |        4236 |
|     126 | 0x10F0      |        4336 |
|     127 | 0xFFFFC3F0  |  4294951920 |
|     128 | 0xFFFFA321  |  4294943521 |
|     129 | 0xFFFFFF9B  |  4294967195 |
|     130 | 0x0A18      |        2584 |
|     131 | 0xFFFFFC21  |  4294966305 |
|     132 | 0x084B      |        2123 |
|     133 | 0x0033      |          51 |
|     134 | 0xFFFF0DFA  |  4294905338 |
|     135 | 0xFFFE6C9D  |  4294864029 |
|     136 | 0xFFFEFBE3  |  4294900707 |
|     137 | 0xFFFE9775  |  4294874997 |
|     138 | 0xFFFF19CD  |  4294908365 |
|     139 | 0xFFFEAC62  |  4294880354 |
|     140 | 0xFFFECE8B  |  4294889099 |
|     141 | 0xFFFE3998  |  4294850968 |
|     142 | 0x0F9F      |        3999 |
|     143 | 0x0A17      |        2583 |
|     144 | 0xFFFFD965  |  4294957413 |
|     145 | 0xFFFFD99E  |  4294957470 |
|     146 | 0xFFFEE68C  |  4294895244 |
|     147 | 0xFFFE6FBD  |  4294864829 |
|     148 | 0xFFFFE923  |  4294961443 |
|     149 | 0xFFFFEBBA  |  4294962106 |
|     150 | 0xFFFF4F66  |  4294922086 |
|     151 | 0xFFFEA394  |  4294878100 |
|     152 | 0xFFFFB859  |  4294948953 |
|     153 | 0xFFFFDFA2  |  4294959010 |
|     154 | 0xFFFFB9ED  |  4294949357 |
|     155 | 0xFFFFBF3D  |  4294950717 |
|     156 | 0xFFFFF407  |  4294964231 |
|     157 | 0xFFFFE105  |  4294959365 |
|     158 | 0x0A40      |        2624 |
|     159 | 0xFFFF6A1D  |  4294928925 |
|     160 | 0xFFFEF858  |  4294899800 |
|     161 | 0xFFFFEA43  |  4294961731 |
|     162 | 0xFFFFF8F4  |  4294965492 |
|     163 | 0xFFFFF533  |  4294964531 |
|     164 | 0x13C3      |        5059 |
|     165 | 0x0031      |          49 |
|     166 | 0x2806      |       10246 |
|     167 | 0x2807      |       10247 |
|     168 | 0x2808      |       10248 |
|     169 | 0x2809      |       10249 |
|     170 | 0x001E      |          30 |
|     171 | 0x280A      |       10250 |
|     172 | 0x002D      |          45 |
|     173 | 0x280B      |       10251 |
|     174 | 0x280C      |       10252 |
|     175 | 0x280D      |       10253 |
|     176 | 0x280E      |       10254 |
|     177 | 0x2810      |       10256 |
|     178 | 0x006F      |         111 |
|     179 | 0x280F      |       10255 |
|     180 | 0x005A      |          90 |
|     181 | 0x0020      |          32 |
|     182 | 0x2813      |       10259 |
|     183 | 0x2814      |       10260 |
|     184 | 0x2812      |       10258 |
|     185 | 0x1D8B      |        7563 |
|     186 | 0x2811      |       10257 |

## String References

- **7554**: Aha! I haven't seen you before. I am Madam Chululu. I specialize in divining compatibility.
- **7555**: Have you ever questioned whether you and your sweetheart are truly compatible? Or whether you and another adventurer could fight well together?
- **7556**: That's what I am here to tell you. Just give me a try. There's no risk and no obligation.
- **7557**: Hear your fortune? [At once./Not now.]
- **7558**: Excellent! First, you must collect Tarut cards. There are a total of four different cards: the Hermit, the King, Death, and the Fool.
- **7559**: I will give you five of the same card. You must trade with other-wothers and bring the four different cards back to me.
- **7560**: Only then can your fortune be told. Good luck, and may the winds of fate favor you!
- **7561**: Well, come back anytime. You are always welcome here.
- **7562**: Bring me the four Tarut cards: the Hermit, the King, Death, and the Fool. You can do with the fifth card as you please. Throw it away, give it away, I care not.
- **7563**: Yes, this is all of them!
- **7575**: Shall I test your compatibility-wility?
- **7576**: Have your compatibility tested? [Yes, please./No, thanks.]
- **7577**: Have a nice day.
- **7578**: Very well. Just fill in the name of your partner where it says "Password."
- **7580**: Your partner-wartner doesn't seem to be nearby.
- **7581**: Of course you're compatible with yourself! Hello!?
- **7582**: Please fill in your partner's name.
- **7583**: What? With me!? Spare me.
- **7584**: What? With that creep? Over my dead body!
- **7592**: Why, this is amazing... A perfect fit! The two of you can overcome any obstacle-wobstacle.
- **7593**: Yes, highly compatible! Go and do your bestaru for each other.
- **7594**: Yes, there's some compatibility-wility. But you must be open to each other. Try to make your feelings known.
- **7595**: Well, not bad. Just don't expectaru too much.
- **7596**: You're not very compatible, as a matter of fact. I'd advise you not to worry, except that my fortunes are always right.
- **7597**: Yikesie-wikesie! Zero compatibility! Just like me and my nemesis! I'd steer clear from this one if I were you.
- **7598**: Thanks for letting me handle your fortune-telling needs. Actually, there's something I'd like to ask you.
- **7599**: I've got a pile of rubbish I forgot to put out on magic trash day. It's not like regular garbage; someone has to collect and treat it. I don't know what to do!
- **7600**: I'd just die if Kurou-Morou saw it! Please, would you take it to the incinerator in the Garlaige Citadel?
- **7601**: Will you dispose of the $3? [I will./I'm sorry, but I can't.]
- **7602**: Really? I knew you'd help. And don't say a word to Kurou-Morou about this!
- **7603**: Really? Well, what was I thinking, asking my own client? But I wonder what I should do...
- **7604**: Find the incinerator inside the Garlaige Citadel. Please hurry. I'm counting on you!
- **7605**: Well, thanks for taking care of all thataru! Now I can sleep soundly. Here, perhaps you'll find this useful.
- **7916**: Hold on, there! I can't divine you with that partner.
- **8528**: Oh, what should I do...? I should just go over there and ask him, but... No, I couldn'taru!
- **8561**: <Sigh> Boy, was I surprised when he told me he... But he's always like that. Why can't he just be a little more in touch with his feelings?
- **8562**: But to tell you the truth, I was pretty happy-wappy when he finally let the beans outaru of the baggie! But don'taru you go telling Kurou-Morou I said that!
- **10246**: Oh, what a crying-wying shame! The cards open our eyes to the truth, yet so many still wander aimlessly through life, blind as batarus.
- **10247**: But it doesn't have to be this way! I just need someone to help me spread the wonders of fortune-wortune-telling across the land!
- **10248**: I predict that it would be a most fruitaruful career choice! What do you say?
- **10249**: What do you say? [Sure, I'll help./Not today.]
- **10250**: I see dark clouds and stormy-wormy seas on the horizon for [he/she] who refuses to aid me! But oh well, it's your life...or death, as the case may be.
- **10251**: Oh, thank you ever so much! I see naughtaru but rainbows and rosy-woses in your future!
- **10252**: I'm sure you already know about tarut cards, but let's not take any chances with such a vital-wital task, shall we?
- **10253**: There are four types of cards. To witaru, we have the Hermit, the King, Death, and the Fool.
- **10254**: This means that you'll end up with an extra-wextra card, but no need to fretaru! You can give it to a friend, or simply toss it aside and spread the joy to a lucky anonymous passerby!
- **10255**: Got all that? Then off you go!
- **10256**: I'm not in any rush, but should you find yourself shortaru on luck after a time, just come back here, okay? I'll see what I can do to turn your fortune-wortunes around.
- **10257**: You've done much to spread truth and wisdom in Vana'diel today, my friend! Take this as a small token of my gratitude and come back whenever you need your fortune told. Ta-taru!
- **10258**: Oh, look who's back! Returned to help me spread the wonder of tarut cards across the realm, have you? I see not-insignificantaru rewards in the future of the generous adventurer who says yes!
- **10259**: No, don't tell me...! I sense this hasn't been your lucky-wucky week.
- **10260**: Perhaps a new setaru of cards will change your fortunes. Here you go, and may fate smile upon you!

## Events

### Event 65535

#### Metadata

| Field        | Value   |
|--------------|---------|
| Entrypoint   | 0x0000  |
| Data Size    | 4 bytes |
| Instructions | 2       |

```
      00 01 02 03 04 05 06 07  08 09 0A 0B 0C 0D 0E 0F
      -- -- -- -- -- -- -- --  -- -- -- -- -- -- -- --
0000: 32 00 80 00                                       2...            
```

#### Opcodes

```
  0: 0x0000 [0x32] ExtData[1]->MainSpeed = 13* * 0.1
  1: 0x0003 [0x00] END_REQSTACK()
```

### Event 17

#### Metadata

| Field        | Value   |
|--------------|---------|
| Entrypoint   | 0x0004  |
| Data Size    | 1 bytes |
| Instructions | 1       |

```
      00 01 02 03 04 05 06 07  08 09 0A 0B 0C 0D 0E 0F
      -- -- -- -- -- -- -- --  -- -- -- -- -- -- -- --
0000:             00                                        .           
```

#### Opcodes

```
  0: 0x0004 [0x00] END_REQSTACK()
```

### Event 154

#### Metadata

| Field        | Value   |
|--------------|---------|
| Entrypoint   | 0x0005  |
| Data Size    | 1 bytes |
| Instructions | 1       |

```
      00 01 02 03 04 05 06 07  08 09 0A 0B 0C 0D 0E 0F
      -- -- -- -- -- -- -- --  -- -- -- -- -- -- -- --
0000:                00                                      .          
```

#### Opcodes

```
  0: 0x0005 [0x00] END_REQSTACK()
```

### Event 57

#### Metadata

| Field        | Value    |
|--------------|----------|
| Entrypoint   | 0x0006   |
| Data Size    | 49 bytes |
| Instructions | 7        |

```
      00 01 02 03 04 05 06 07  08 09 0A 0B 0C 0D 0E 0F
      -- -- -- -- -- -- -- --  -- -- -- -- -- -- -- --
0000:                   66 01  80 F8 FF FF 7F F8 FF FF        f.........
0010: 7F 74 68 6B 31 1D 02 80  23 66 01 80 F8 FF FF 7F  .thk1...#f......
0020: F8 FF FF 7F 74 68 6B 32  53 F8 FF FF 7F F8 FF FF  ....thk2S.......
0030: 7F 74 68 6B 32 21 00                              .thk2!.         
```

#### Opcodes

```
  0: 0x0006 [0x66] LOAD_EXT_SCHEDULER_MAIN: Load scheduler "thk1" with entities [EventEntity, EventEntity], work=40*
  1: 0x0015 [0x1D] PRINT_EVENT_MESSAGE(message_id=8528*)
    → "Oh, what should I do...? I should just go over there and ask him, but... No, I couldn'taru!"
  2: 0x0018 [0x23] WAIT_FOR_DIALOG_INTERACTION
  3: 0x0019 [0x66] LOAD_EXT_SCHEDULER_MAIN: Load scheduler "thk2" with entities [EventEntity, EventEntity], work=40*
  4: 0x0028 [0x53] WAIT_SCHEDULER_TASK: Wait for scheduler "thk2" with entities [EventEntity, EventEntity]
  5: 0x0035 [0x21] END_EVENT
  6: 0x0036 [0x00] END_REQSTACK()
```

### Event 56

#### Metadata

| Field        | Value    |
|--------------|----------|
| Entrypoint   | 0x0037   |
| Data Size    | 78 bytes |
| Instructions | 14       |

```
      00 01 02 03 04 05 06 07  08 09 0A 0B 0C 0D 0E 0F
      -- -- -- -- -- -- -- --  -- -- -- -- -- -- -- --
0030:                      1E  F0 FF FF 7F 6F 70 66 01         .....opf.
0040: 80 F8 FF FF 7F F8 FF FF  7F 64 69 73 30 1D 03 80  .........dis0...
0050: 23 53 F8 FF FF 7F F8 FF  FF 7F 64 69 73 30 1D 04  #S........dis0..
0060: 80 66 01 80 F8 FF FF 7F  F8 FF FF 7F 6D 6F 6A 30  .f..........moj0
0070: 53 F8 FF FF 7F F8 FF FF  7F 6D 6F 6A 30 5E 69 64  S........moj0^id
0080: 6C 30 23 21 00                                    l0#!.           
```

#### Opcodes

```
  0: 0x0037 [0x1E] EventEntity looks at LocalPlayer and starts talking
  1: 0x003C [0x6F] WAIT_FRAME_DELAY: Yield until WaitTime reaches zero
  2: 0x003D [0x70] WAIT_ENTITY_RENDER_FLAG: Wait while EventEntity->Render.Flags3 bit 2 is set (cancel turn if not)
  3: 0x003E [0x66] LOAD_EXT_SCHEDULER_MAIN: Load scheduler "dis0" with entities [EventEntity, EventEntity], work=40*
  4: 0x004D [0x1D] PRINT_EVENT_MESSAGE(message_id=8561*)
    → "<Sigh> Boy, was I surprised when he told me he... But he's always like that. Why can't he just be a little more in touch with his feelings?"
  5: 0x0050 [0x23] WAIT_FOR_DIALOG_INTERACTION
  6: 0x0051 [0x53] WAIT_SCHEDULER_TASK: Wait for scheduler "dis0" with entities [EventEntity, EventEntity]
  7: 0x005E [0x1D] PRINT_EVENT_MESSAGE(message_id=8562*)
    → "But to tell you the truth, I was pretty happy-wappy when he finally let the beans outaru of the baggie! But don'taru you go telling Kurou-Morou I said that!"
  8: 0x0061 [0x66] LOAD_EXT_SCHEDULER_MAIN: Load scheduler "moj0" with entities [EventEntity, EventEntity], work=40*
  9: 0x0070 [0x53] WAIT_SCHEDULER_TASK: Wait for scheduler "moj0" with entities [EventEntity, EventEntity]
 10: 0x007D [0x5E] EventEntity goes idle (kills current action) (animation: "idl0")
 11: 0x0082 [0x23] WAIT_FOR_DIALOG_INTERACTION
 12: 0x0083 [0x21] END_EVENT
 13: 0x0084 [0x00] END_REQSTACK()
```

### Event 65535.1

#### Metadata

| Field        | Value    |
|--------------|----------|
| Entrypoint   | 0x0085   |
| Data Size    | 10 bytes |
| Instructions | 2        |

```
      00 01 02 03 04 05 06 07  08 09 0A 0B 0C 0D 0E 0F
      -- -- -- -- -- -- -- --  -- -- -- -- -- -- -- --
0080:                37 05 80  06 80 07 80 08 80 00          7......... 
```

#### Opcodes

```
  0: 0x0085 [0x37] UPDATE_EVENT_POSITION_AND_DIR: x=-16.551*, z=-35.065*, y=-5.999*, direction=301.9°*
  1: 0x008E [0x00] END_REQSTACK()
```

### Event 26

#### Metadata

| Field        | Value    |
|--------------|----------|
| Entrypoint   | 0x008F   |
| Data Size    | 15 bytes |
| Instructions | 8        |

```
      00 01 02 03 04 05 06 07  08 09 0A 0B 0C 0D 0E 0F
      -- -- -- -- -- -- -- --  -- -- -- -- -- -- -- --
0080:                                               20                  
0090: 01 1E F0 FF FF 7F 6F 70  1D 09 80 23 21 00        ......op...#!.  
```

#### Opcodes

```
  0: 0x008F [0x20] SET_CLI_EVENT_UC_FLAG: Lock player control
  1: 0x0091 [0x1E] EventEntity looks at LocalPlayer and starts talking
  2: 0x0096 [0x6F] WAIT_FRAME_DELAY: Yield until WaitTime reaches zero
  3: 0x0097 [0x70] WAIT_ENTITY_RENDER_FLAG: Wait while EventEntity->Render.Flags3 bit 2 is set (cancel turn if not)
  4: 0x0098 [0x1D] PRINT_EVENT_MESSAGE(message_id=7554*)
    → "Aha! I haven't seen you before. I am Madam Chululu. I specialize in divining compatibility."
  5: 0x009B [0x23] WAIT_FOR_DIALOG_INTERACTION
  6: 0x009C [0x21] END_EVENT
  7: 0x009D [0x00] END_REQSTACK()
```

### Event 28

#### Metadata

| Field        | Value    |
|--------------|----------|
| Entrypoint   | 0x009E   |
| Data Size    | 80 bytes |
| Instructions | 29       |

```
      00 01 02 03 04 05 06 07  08 09 0A 0B 0C 0D 0E 0F
      -- -- -- -- -- -- -- --  -- -- -- -- -- -- -- --
0090:                                            20 01                 .
00A0: 1E F0 FF FF 7F 6F 70 1D  09 80 23 1D 0A 80 23 1D  .....op...#...#.
00B0: 0B 80 23 42 24 0C 80 0D  80 0E 80 25 02 00 10 0E  ..#B$......%....
00C0: 80 00 D8 00 1D 0F 80 23  1D 10 80 23 1D 11 80 23  .......#...#...#
00D0: 03 01 10 0E 80 01 EC 00  02 00 10 0D 80 00 EC 00  ................
00E0: 1D 12 80 23 03 01 10 0D  80 01 EC 00 21 00        ...#........!.  
```

#### Opcodes

```
  0: 0x009E [0x20] SET_CLI_EVENT_UC_FLAG: Lock player control
  1: 0x00A0 [0x1E] EventEntity looks at LocalPlayer and starts talking
  2: 0x00A5 [0x6F] WAIT_FRAME_DELAY: Yield until WaitTime reaches zero
  3: 0x00A6 [0x70] WAIT_ENTITY_RENDER_FLAG: Wait while EventEntity->Render.Flags3 bit 2 is set (cancel turn if not)
  4: 0x00A7 [0x1D] PRINT_EVENT_MESSAGE(message_id=7554*)
    → "Aha! I haven't seen you before. I am Madam Chululu. I specialize in divining compatibility."
  5: 0x00AA [0x23] WAIT_FOR_DIALOG_INTERACTION
  6: 0x00AB [0x1D] PRINT_EVENT_MESSAGE(message_id=7555*)
    → "Have you ever questioned whether you and your sweetheart are truly compatible? Or whether you and another adventurer could fight well together?"
  7: 0x00AE [0x23] WAIT_FOR_DIALOG_INTERACTION
  8: 0x00AF [0x1D] PRINT_EVENT_MESSAGE(message_id=7556*)
    → "That's what I am here to tell you. Just give me a try. There's no risk and no obligation."
  9: 0x00B2 [0x23] WAIT_FOR_DIALOG_INTERACTION
 10: 0x00B3 [0x42] SET_CLI_EVENT_CANCEL_DATA()
 11: 0x00B4 [0x24] CREATE_DIALOG(message_id=7557*, default_option=1*, option_flags=0*)
    → "Hear your fortune? [At once./Not now.]"
 12: 0x00BB [0x25] WAIT_DIALOG_SELECT()
 13: 0x00BC [0x02] IF !(Work_Zone[0] == 0*) GOTO 0x00D8
 14: 0x00C4 [0x1D] PRINT_EVENT_MESSAGE(message_id=7558*)
    → "Excellent! First, you must collect Tarut cards. There are a total of four different cards: the Hermit, the King, Death, and the Fool."
 15: 0x00C7 [0x23] WAIT_FOR_DIALOG_INTERACTION
 16: 0x00C8 [0x1D] PRINT_EVENT_MESSAGE(message_id=7559*)
    → "I will give you five of the same card. You must trade with other-wothers and bring the four different cards back to me."
 17: 0x00CB [0x23] WAIT_FOR_DIALOG_INTERACTION
 18: 0x00CC [0x1D] PRINT_EVENT_MESSAGE(message_id=7560*)
    → "Only then can your fortune be told. Good luck, and may the winds of fate favor you!"
 19: 0x00CF [0x23] WAIT_FOR_DIALOG_INTERACTION
 20: 0x00D0 [0x03] Work_Zone[1] = 0*
 21: 0x00D5 [0x01] GOTO 0x00EC
 22: 0x00D8 [0x02] IF !(Work_Zone[0] == 1*) GOTO 0x00EC
 23: 0x00E0 [0x1D] PRINT_EVENT_MESSAGE(message_id=7561*)
    → "Well, come back anytime. You are always welcome here."
 24: 0x00E3 [0x23] WAIT_FOR_DIALOG_INTERACTION
 25: 0x00E4 [0x03] Work_Zone[1] = 1*
 26: 0x00E9 [0x01] GOTO 0x00EC

SUBROUTINE_00EC:
 27: 0x00EC [0x21] END_EVENT
 28: 0x00ED [0x00] END_REQSTACK()
```

### Event 27

#### Metadata

| Field        | Value    |
|--------------|----------|
| Entrypoint   | 0x00EE   |
| Data Size    | 15 bytes |
| Instructions | 8        |

```
      00 01 02 03 04 05 06 07  08 09 0A 0B 0C 0D 0E 0F
      -- -- -- -- -- -- -- --  -- -- -- -- -- -- -- --
00E0:                                            20 01                 .
00F0: 1E F0 FF FF 7F 6F 70 1D  13 80 23 21 00           .....op...#!.   
```

#### Opcodes

```
  0: 0x00EE [0x20] SET_CLI_EVENT_UC_FLAG: Lock player control
  1: 0x00F0 [0x1E] EventEntity looks at LocalPlayer and starts talking
  2: 0x00F5 [0x6F] WAIT_FRAME_DELAY: Yield until WaitTime reaches zero
  3: 0x00F6 [0x70] WAIT_ENTITY_RENDER_FLAG: Wait while EventEntity->Render.Flags3 bit 2 is set (cancel turn if not)
  4: 0x00F7 [0x1D] PRINT_EVENT_MESSAGE(message_id=7562*)
    → "Bring me the four Tarut cards: the Hermit, the King, Death, and the Fool. You can do with the fifth card as you please. Throw it away, give it away, I care not."
  5: 0x00FA [0x23] WAIT_FOR_DIALOG_INTERACTION
  6: 0x00FB [0x21] END_EVENT
  7: 0x00FC [0x00] END_REQSTACK()
```

### Event 199

#### Metadata

| Field        | Value     |
|--------------|-----------|
| Entrypoint   | 0x00FD    |
| Data Size    | 179 bytes |
| Instructions | 51        |

```
      00 01 02 03 04 05 06 07  08 09 0A 0B 0C 0D 0E 0F
      -- -- -- -- -- -- -- --  -- -- -- -- -- -- -- --
00F0:                                         20 01 1E                ..
0100: F0 FF FF 7F 6F 70 1D 14  80 23 03 01 10 0E 80 24  ....op...#.....$
0110: 15 80 0D 80 0E 80 25 02  00 10 0E 80 00 9A 01 42  ......%........B
0120: 1D 16 80 23 71 00 71 01  71 02 03 00 00 02 10 03  ...#q.q.q.......
0130: 01 00 03 10 03 02 00 04  10 02 02 00 0E 80 01 71  ...............q
0140: 01 02 02 00 0D 80 80 50  01 1D 17 80 23 01 6E 01  .......P....#.n.
0150: 02 02 00 18 80 80 5F 01  1D 19 80 23 01 6E 01 02  ......_....#.n..
0160: 02 00 1A 80 80 6E 01 1D  1B 80 23 01 6E 01 01 97  .....n....#.n...
0170: 01 02 01 00 0E 80 00 80  01 1D 1C 80 23 01 97 01  ............#...
0180: 02 01 00 00 00 00 8F 01  1D 1D 80 23 01 97 01 1A  ...........#....
0190: F3 02 03 01 10 0D 80 01  AE 01 02 00 10 0D 80 00  ................
01A0: AE 01 1D 1E 80 23 03 01  10 1F 80 01 AE 01 21 00  .....#........!.
```

#### Opcodes

```
  0: 0x00FD [0x20] SET_CLI_EVENT_UC_FLAG: Lock player control
  1: 0x00FF [0x1E] EventEntity looks at LocalPlayer and starts talking
  2: 0x0104 [0x6F] WAIT_FRAME_DELAY: Yield until WaitTime reaches zero
  3: 0x0105 [0x70] WAIT_ENTITY_RENDER_FLAG: Wait while EventEntity->Render.Flags3 bit 2 is set (cancel turn if not)
  4: 0x0106 [0x1D] PRINT_EVENT_MESSAGE(message_id=7575*)
    → "Shall I test your compatibility-wility?"
  5: 0x0109 [0x23] WAIT_FOR_DIALOG_INTERACTION
  6: 0x010A [0x03] Work_Zone[1] = 0*
  7: 0x010F [0x24] CREATE_DIALOG(message_id=7576*, default_option=1*, option_flags=0*)
    → "Have your compatibility tested? [Yes, please./No, thanks.]"
  8: 0x0116 [0x25] WAIT_DIALOG_SELECT()
  9: 0x0117 [0x02] IF !(Work_Zone[0] == 0*) GOTO 0x019A
 10: 0x011F [0x42] SET_CLI_EVENT_CANCEL_DATA()
 11: 0x0120 [0x1D] PRINT_EVENT_MESSAGE(message_id=7578*)
    → "Very well. Just fill in the name of your partner where it says "Password.""
 12: 0x0123 [0x23] WAIT_FOR_DIALOG_INTERACTION
 13: 0x0124 [0x71] USER_INPUT_HANDLER: Open password input dialog (sends packet 0x60)
 14: 0x0126 [0x71] USER_INPUT_HANDLER: Check if player has input or exited
 15: 0x0128 [0x71] USER_INPUT_HANDLER: Check if server responded
 16: 0x012A [0x03] ExtData[1]->WorkLocal[0] = Work_Zone[2]
 17: 0x012F [0x03] ExtData[1]->WorkLocal[1] = Work_Zone[3]
 18: 0x0134 [0x03] ExtData[1]->WorkLocal[2] = Work_Zone[4]
 19: 0x0139 [0x02] IF !(ExtData[1]->WorkLocal[2] == 0*) GOTO 0x0171
 20: 0x0141 [0x02] IF !(ExtData[1]->WorkLocal[2] == 1*) GOTO 0x0150
 21: 0x0149 [0x1D] PRINT_EVENT_MESSAGE(message_id=7583*)
    → "What? With me!? Spare me."
 22: 0x014C [0x23] WAIT_FOR_DIALOG_INTERACTION
 23: 0x014D [0x01] GOTO 0x016E
 24: 0x0150 [0x02] IF !(ExtData[1]->WorkLocal[2] == 2*) GOTO 0x015F
 25: 0x0158 [0x1D] PRINT_EVENT_MESSAGE(message_id=7584*)
    → "What? With that creep? Over my dead body!"
 26: 0x015B [0x23] WAIT_FOR_DIALOG_INTERACTION
 27: 0x015C [0x01] GOTO 0x016E
 28: 0x015F [0x02] IF !(ExtData[1]->WorkLocal[2] == 3*) GOTO 0x016E
 29: 0x0167 [0x1D] PRINT_EVENT_MESSAGE(message_id=7582*)
    → "Please fill in your partner's name."
 30: 0x016A [0x23] WAIT_FOR_DIALOG_INTERACTION
 31: 0x016B [0x01] GOTO 0x016E

SUBROUTINE_016E:
 32: 0x016E [0x01] GOTO 0x0197
 33: 0x0171 [0x02] IF !(ExtData[1]->WorkLocal[1] == 0*) GOTO 0x0180
 34: 0x0179 [0x1D] PRINT_EVENT_MESSAGE(message_id=7580*)
    → "Your partner-wartner doesn't seem to be nearby."
 35: 0x017C [0x23] WAIT_FOR_DIALOG_INTERACTION
 36: 0x017D [0x01] GOTO 0x0197
 37: 0x0180 [0x02] IF !(ExtData[1]->WorkLocal[1] == ExtData[1]->WorkLocal[0]) GOTO 0x018F
 38: 0x0188 [0x1D] PRINT_EVENT_MESSAGE(message_id=7581*)
    → "Of course you're compatible with yourself! Hello!?"
 39: 0x018B [0x23] WAIT_FOR_DIALOG_INTERACTION
 40: 0x018C [0x01] GOTO 0x0197
 41: 0x018F [0x1A] CALL_SUBROUTINE(address=0x02F3)
 42: 0x0192 [0x03] Work_Zone[1] = 1*

SUBROUTINE_0197:
 43: 0x0197 [0x01] GOTO 0x01AE
 44: 0x019A [0x02] IF !(Work_Zone[0] == 1*) GOTO 0x01AE
 45: 0x01A2 [0x1D] PRINT_EVENT_MESSAGE(message_id=7577*)
    → "Have a nice day."
 46: 0x01A5 [0x23] WAIT_FOR_DIALOG_INTERACTION
 47: 0x01A6 [0x03] Work_Zone[1] = 1073741824*
 48: 0x01AB [0x01] GOTO 0x01AE

SUBROUTINE_01AE:
 49: 0x01AE [0x21] END_EVENT
 50: 0x01AF [0x00] END_REQSTACK()
```

### Event 198

#### Metadata

| Field        | Value    |
|--------------|----------|
| Entrypoint   | 0x01B0   |
| Data Size    | 77 bytes |
| Instructions | 26       |

```
      00 01 02 03 04 05 06 07  08 09 0A 0B 0C 0D 0E 0F
      -- -- -- -- -- -- -- --  -- -- -- -- -- -- -- --
01B0: 20 01 42 1E F0 FF FF 7F  6F 70 1D 20 80 23 1D 21   .B.....op. .#.!
01C0: 80 23 1D 22 80 23 03 09  10 23 80 24 24 80 0E 80  .#.".#...#.$$...
01D0: 0E 80 25 02 00 10 0E 80  00 E7 01 1D 25 80 23 03  ..%.........%.#.
01E0: 01 10 0E 80 01 FB 01 02  00 10 0D 80 00 FB 01 1D  ................
01F0: 26 80 23 03 01 10 0D 80  01 FB 01 21 00           &.#........!.   
```

#### Opcodes

```
  0: 0x01B0 [0x20] SET_CLI_EVENT_UC_FLAG: Lock player control
  1: 0x01B2 [0x42] SET_CLI_EVENT_CANCEL_DATA()
  2: 0x01B3 [0x1E] EventEntity looks at LocalPlayer and starts talking
  3: 0x01B8 [0x6F] WAIT_FRAME_DELAY: Yield until WaitTime reaches zero
  4: 0x01B9 [0x70] WAIT_ENTITY_RENDER_FLAG: Wait while EventEntity->Render.Flags3 bit 2 is set (cancel turn if not)
  5: 0x01BA [0x1D] PRINT_EVENT_MESSAGE(message_id=7598*)
    → "Thanks for letting me handle your fortune-telling needs. Actually, there's something I'd like to ask you."
  6: 0x01BD [0x23] WAIT_FOR_DIALOG_INTERACTION
  7: 0x01BE [0x1D] PRINT_EVENT_MESSAGE(message_id=7599*)
    → "I've got a pile of rubbish I forgot to put out on magic trash day. It's not like regular garbage; someone has to collect and treat it. I don't know what to do!"
  8: 0x01C1 [0x23] WAIT_FOR_DIALOG_INTERACTION
  9: 0x01C2 [0x1D] PRINT_EVENT_MESSAGE(message_id=7600*)
    → "I'd just die if Kurou-Morou saw it! Please, would you take it to the incinerator in the Garlaige Citadel?"
 10: 0x01C5 [0x23] WAIT_FOR_DIALOG_INTERACTION
 11: 0x01C6 [0x03] Work_Zone[9] = 120*
 12: 0x01CB [0x24] CREATE_DIALOG(message_id=7601*, default_option=0*, option_flags=0*)
    → "Will you dispose of the $3? [I will./I'm sorry, but I can't.]"
 13: 0x01D2 [0x25] WAIT_DIALOG_SELECT()
 14: 0x01D3 [0x02] IF !(Work_Zone[0] == 0*) GOTO 0x01E7
 15: 0x01DB [0x1D] PRINT_EVENT_MESSAGE(message_id=7602*)
    → "Really? I knew you'd help. And don't say a word to Kurou-Morou about this!"
 16: 0x01DE [0x23] WAIT_FOR_DIALOG_INTERACTION
 17: 0x01DF [0x03] Work_Zone[1] = 0*
 18: 0x01E4 [0x01] GOTO 0x01FB
 19: 0x01E7 [0x02] IF !(Work_Zone[0] == 1*) GOTO 0x01FB
 20: 0x01EF [0x1D] PRINT_EVENT_MESSAGE(message_id=7603*)
    → "Really? Well, what was I thinking, asking my own client? But I wonder what I should do..."
 21: 0x01F2 [0x23] WAIT_FOR_DIALOG_INTERACTION
 22: 0x01F3 [0x03] Work_Zone[1] = 1*
 23: 0x01F8 [0x01] GOTO 0x01FB

SUBROUTINE_01FB:
 24: 0x01FB [0x21] END_EVENT
 25: 0x01FC [0x00] END_REQSTACK()
```

### Event 49

#### Metadata

| Field        | Value    |
|--------------|----------|
| Entrypoint   | 0x01FD   |
| Data Size    | 16 bytes |
| Instructions | 9        |

```
      00 01 02 03 04 05 06 07  08 09 0A 0B 0C 0D 0E 0F
      -- -- -- -- -- -- -- --  -- -- -- -- -- -- -- --
01F0:                                         20 01 42                .B
0200: 1E F0 FF FF 7F 6F 70 1D  27 80 23 21 00           .....op.'.#!.   
```

#### Opcodes

```
  0: 0x01FD [0x20] SET_CLI_EVENT_UC_FLAG: Lock player control
  1: 0x01FF [0x42] SET_CLI_EVENT_CANCEL_DATA()
  2: 0x0200 [0x1E] EventEntity looks at LocalPlayer and starts talking
  3: 0x0205 [0x6F] WAIT_FRAME_DELAY: Yield until WaitTime reaches zero
  4: 0x0206 [0x70] WAIT_ENTITY_RENDER_FLAG: Wait while EventEntity->Render.Flags3 bit 2 is set (cancel turn if not)
  5: 0x0207 [0x1D] PRINT_EVENT_MESSAGE(message_id=7604*)
    → "Find the incinerator inside the Garlaige Citadel. Please hurry. I'm counting on you!"
  6: 0x020A [0x23] WAIT_FOR_DIALOG_INTERACTION
  7: 0x020B [0x21] END_EVENT
  8: 0x020C [0x00] END_REQSTACK()
```

### Event 197

#### Metadata

| Field        | Value    |
|--------------|----------|
| Entrypoint   | 0x020D   |
| Data Size    | 33 bytes |
| Instructions | 10       |

```
      00 01 02 03 04 05 06 07  08 09 0A 0B 0C 0D 0E 0F
      -- -- -- -- -- -- -- --  -- -- -- -- -- -- -- --
0200:                                         20 01 42                .B
0210: 1E F0 FF FF 7F 6F 70 1D  28 80 23 45 29 80 F0 FF  .....op.(.#E)...
0220: FF 7F F0 FF FF 7F 71 73  74 63 0E 80 21 00        ......qstc..!.  
```

#### Opcodes

```
  0: 0x020D [0x20] SET_CLI_EVENT_UC_FLAG: Lock player control
  1: 0x020F [0x42] SET_CLI_EVENT_CANCEL_DATA()
  2: 0x0210 [0x1E] EventEntity looks at LocalPlayer and starts talking
  3: 0x0215 [0x6F] WAIT_FRAME_DELAY: Yield until WaitTime reaches zero
  4: 0x0216 [0x70] WAIT_ENTITY_RENDER_FLAG: Wait while EventEntity->Render.Flags3 bit 2 is set (cancel turn if not)
  5: 0x0217 [0x1D] PRINT_EVENT_MESSAGE(message_id=7605*)
    → "Well, thanks for taking care of all thataru! Now I can sleep soundly. Here, perhaps you'll find this useful."
  6: 0x021A [0x23] WAIT_FOR_DIALOG_INTERACTION
  7: 0x021B [0x45] LOAD_SCHEDULED_TASK: Load scheduler "qstc" with entities [LocalPlayer, LocalPlayer], work=[201*, 0*]
  8: 0x022C [0x21] END_EVENT
  9: 0x022D [0x00] END_REQSTACK()
```

### Event 196

#### Metadata

| Field        | Value   |
|--------------|---------|
| Entrypoint   | 0x022E  |
| Data Size    | 1 bytes |
| Instructions | 1       |

```
      00 01 02 03 04 05 06 07  08 09 0A 0B 0C 0D 0E 0F
      -- -- -- -- -- -- -- --  -- -- -- -- -- -- -- --
0220:                                            00                   . 
```

#### Opcodes

```
  0: 0x022E [0x00] END_REQSTACK()
```

### Event 200

#### Metadata

| Field        | Value   |
|--------------|---------|
| Entrypoint   | 0x022F  |
| Data Size    | 1 bytes |
| Instructions | 1       |

```
      00 01 02 03 04 05 06 07  08 09 0A 0B 0C 0D 0E 0F
      -- -- -- -- -- -- -- --  -- -- -- -- -- -- -- --
0220:                                               00                 .
```

#### Opcodes

```
  0: 0x022F [0x00] END_REQSTACK()
```

### Event 65535.2

#### Metadata

| Field        | Value    |
|--------------|----------|
| Entrypoint   | 0x0230   |
| Data Size    | 10 bytes |
| Instructions | 2        |

```
      00 01 02 03 04 05 06 07  08 09 0A 0B 0C 0D 0E 0F
      -- -- -- -- -- -- -- --  -- -- -- -- -- -- -- --
0230: 37 2A 80 2B 80 2C 80 2D  80 00                    7*.+.,.-..      
```

#### Opcodes

```
  0: 0x0230 [0x37] UPDATE_EVENT_POSITION_AND_DIR: x=-7.812*, z=-34.206*, y=-6.000*, direction=296.7°*
  1: 0x0239 [0x00] END_REQSTACK()
```

### Event 65535.3

#### Metadata

| Field        | Value    |
|--------------|----------|
| Entrypoint   | 0x023A   |
| Data Size    | 27 bytes |
| Instructions | 7        |

```
      00 01 02 03 04 05 06 07  08 09 0A 0B 0C 0D 0E 0F
      -- -- -- -- -- -- -- --  -- -- -- -- -- -- -- --
0230:                                1F 00 2E 80 2F 80            ..../.
0240: 07 80 1F 01 4A 22 50 0F  01 23 50 0F 01 1E F0 FF  ....J"P..#P.....
0250: FF 7F 6F 70 00                                    ..op.           
```

#### Opcodes

```
  0: 0x023A [0x1F] MOVE_ENTITY: EventEntity moves to X=-5.416*, Z=-29.692*, Y=-5.999*
  1: 0x0242 [0x1F] MOVE_ENTITY: Update entity position (mode=1)
  2: 0x0244 [0x4A] Kurou-Morou (ID: 17780770/0x010F5022) looks at Chululu (ID: 17780771/0x010F5023)
  3: 0x024D [0x1E] EventEntity looks at LocalPlayer and starts talking
  4: 0x0252 [0x6F] WAIT_FRAME_DELAY: Yield until WaitTime reaches zero
  5: 0x0253 [0x70] WAIT_ENTITY_RENDER_FLAG: Wait while EventEntity->Render.Flags3 bit 2 is set (cancel turn if not)
  6: 0x0254 [0x00] END_REQSTACK()
```

### Event 65535.4

#### Metadata

| Field        | Value    |
|--------------|----------|
| Entrypoint   | 0x0255   |
| Data Size    | 13 bytes |
| Instructions | 4        |

```
      00 01 02 03 04 05 06 07  08 09 0A 0B 0C 0D 0E 0F
      -- -- -- -- -- -- -- --  -- -- -- -- -- -- -- --
0250:                1F 00 2A  80 2B 80 2C 80 1F 01 22       ..*.+.,..."
0260: 01 00                                             ..              
```

#### Opcodes

```
  0: 0x0255 [0x1F] MOVE_ENTITY: EventEntity moves to X=-7.812*, Z=-34.206*, Y=-6.000*
  1: 0x025D [0x1F] MOVE_ENTITY: Update entity position (mode=1)
  2: 0x025F [0x22] ENTITY_HIDE_FLAG(enabled=0x01)
  3: 0x0261 [0x00] END_REQSTACK()
```

### Event 65535.5

#### Metadata

| Field        | Value    |
|--------------|----------|
| Entrypoint   | 0x0262   |
| Data Size    | 29 bytes |
| Instructions | 3        |

```
      00 01 02 03 04 05 06 07  08 09 0A 0B 0C 0D 0E 0F
      -- -- -- -- -- -- -- --  -- -- -- -- -- -- -- --
0260:       66 01 80 F8 FF FF  7F F8 FF FF 7F 74 6C 6B    f..........tlk
0270: 30 53 F8 FF FF 7F F8 FF  FF 7F 74 6C 6B 30 00     0S........tlk0. 
```

#### Opcodes

```
  0: 0x0262 [0x66] LOAD_EXT_SCHEDULER_MAIN: Load scheduler "tlk0" with entities [EventEntity, EventEntity], work=40*
  1: 0x0271 [0x53] WAIT_SCHEDULER_TASK: Wait for scheduler "tlk0" with entities [EventEntity, EventEntity]
  2: 0x027E [0x00] END_REQSTACK()
```

### Event 65535.6

#### Metadata

| Field        | Value    |
|--------------|----------|
| Entrypoint   | 0x027F   |
| Data Size    | 19 bytes |
| Instructions | 3        |

```
      00 01 02 03 04 05 06 07  08 09 0A 0B 0C 0D 0E 0F
      -- -- -- -- -- -- -- --  -- -- -- -- -- -- -- --
0270:                                               66                 f
0280: 01 80 F8 FF FF 7F F8 FF  FF 7F 74 68 6B 31 1C 30  ..........thk1.0
0290: 80 00                                             ..              
```

#### Opcodes

```
  0: 0x027F [0x66] LOAD_EXT_SCHEDULER_MAIN: Load scheduler "thk1" with entities [EventEntity, EventEntity], work=40*
  1: 0x028E [0x1C] WAIT(60* ticks)
  2: 0x0291 [0x00] END_REQSTACK()
```

### Event 65535.7

#### Metadata

| Field        | Value    |
|--------------|----------|
| Entrypoint   | 0x0292   |
| Data Size    | 29 bytes |
| Instructions | 3        |

```
      00 01 02 03 04 05 06 07  08 09 0A 0B 0C 0D 0E 0F
      -- -- -- -- -- -- -- --  -- -- -- -- -- -- -- --
0290:       66 01 80 F8 FF FF  7F F8 FF FF 7F 74 68 6B    f..........thk
02A0: 32 53 F8 FF FF 7F F8 FF  FF 7F 74 68 6B 32 00     2S........thk2. 
```

#### Opcodes

```
  0: 0x0292 [0x66] LOAD_EXT_SCHEDULER_MAIN: Load scheduler "thk2" with entities [EventEntity, EventEntity], work=40*
  1: 0x02A1 [0x53] WAIT_SCHEDULER_TASK: Wait for scheduler "thk2" with entities [EventEntity, EventEntity]
  2: 0x02AE [0x00] END_REQSTACK()
```

### Event 65535.8

#### Metadata

| Field        | Value    |
|--------------|----------|
| Entrypoint   | 0x02AF   |
| Data Size    | 29 bytes |
| Instructions | 3        |

```
      00 01 02 03 04 05 06 07  08 09 0A 0B 0C 0D 0E 0F
      -- -- -- -- -- -- -- --  -- -- -- -- -- -- -- --
02A0:                                               66                 f
02B0: 01 80 F8 FF FF 7F F8 FF  FF 7F 69 72 6F 30 53 F8  ..........iro0S.
02C0: FF FF 7F F8 FF FF 7F 69  72 6F 30 00              .......iro0.    
```

#### Opcodes

```
  0: 0x02AF [0x66] LOAD_EXT_SCHEDULER_MAIN: Load scheduler "iro0" with entities [EventEntity, EventEntity], work=40*
  1: 0x02BE [0x53] WAIT_SCHEDULER_TASK: Wait for scheduler "iro0" with entities [EventEntity, EventEntity]
  2: 0x02CB [0x00] END_REQSTACK()
```

### Event 65535.9

#### Metadata

| Field        | Value    |
|--------------|----------|
| Entrypoint   | 0x02CC   |
| Data Size    | 29 bytes |
| Instructions | 3        |

```
      00 01 02 03 04 05 06 07  08 09 0A 0B 0C 0D 0E 0F
      -- -- -- -- -- -- -- --  -- -- -- -- -- -- -- --
02C0:                                      66 01 80 F8              f...
02D0: FF FF 7F F8 FF FF 7F 64  69 73 30 53 F8 FF FF 7F  .......dis0S....
02E0: F8 FF FF 7F 64 69 73 30  00                       ....dis0.       
```

#### Opcodes

```
  0: 0x02CC [0x66] LOAD_EXT_SCHEDULER_MAIN: Load scheduler "dis0" with entities [EventEntity, EventEntity], work=40*
  1: 0x02DB [0x53] WAIT_SCHEDULER_TASK: Wait for scheduler "dis0" with entities [EventEntity, EventEntity]
  2: 0x02E8 [0x00] END_REQSTACK()
```

### Event 65535.10

#### Metadata

| Field        | Value   |
|--------------|---------|
| Entrypoint   | 0x02E9  |
| Data Size    | 9 bytes |
| Instructions | 3       |

```
      00 01 02 03 04 05 06 07  08 09 0A 0B 0C 0D 0E 0F
      -- -- -- -- -- -- -- --  -- -- -- -- -- -- -- --
02E0:                             5E 69 64 6C 30 1C 30           ^idl0.0
02F0: 80 00                                             ..              
```

#### Opcodes

```
  0: 0x02E9 [0x5E] EventEntity goes idle (kills current action) (animation: "idl0")
  1: 0x02EE [0x1C] WAIT(60* ticks)
  2: 0x02F1 [0x00] END_REQSTACK()
```

### Event 65535.11

#### Metadata

| Field        | Value      |
|--------------|------------|
| Entrypoint   | 0x02F2     |
| Data Size    | 1496 bytes |
| Instructions | 1          |

```
      00 01 02 03 04 05 06 07  08 09 0A 0B 0C 0D 0E 0F
      -- -- -- -- -- -- -- --  -- -- -- -- -- -- -- --
02F0:       00 66 31 80 F8 FF  FF 7F F8 FF FF 7F 73 68    .f1.........sh
0300: 61 30 03 01 10 01 00 43  00 43 01 66 31 80 F8 FF  a0.....C.C.f1...
0310: FF 7F F8 FF FF 7F 73 68  61 31 03 03 00 02 10 03  ......sha1......
0320: 04 00 03 10 03 09 00 04  10 03 0A 00 05 10 03 07  ................
0330: 00 06 10 03 08 00 07 10  03 0B 00 08 10 03 0C 00  ................
0340: 09 10 02 08 00 0E 80 00  51 03 1D 32 80 23 01 CB  ........Q..2.#..
0350: 03 1A CC 03 1A 66 06 1A  5D 07 1A 15 07 1A B8 08  .....f..].......
0360: 06 12 00 07 12 00 0D 00  07 12 00 0E 00 07 12 00  ................
0370: 10 00 07 12 00 0F 00 07  12 00 11 00 02 12 00 33  ...............3
0380: 80 04 8B 03 1D 34 80 23  01 CB 03 02 12 00 35 80  .....4.#......5.
0390: 04 9A 03 1D 36 80 23 01  CB 03 02 12 00 37 80 04  ....6.#......7..
03A0: A9 03 1D 38 80 23 01 CB  03 02 12 00 39 80 04 B8  ...8.#......9...
03B0: 03 1D 3A 80 23 01 CB 03  02 12 00 0E 80 05 C7 03  ..:.#...........
03C0: 1D 3B 80 23 01 CB 03 1D  3C 80 23 1B 06 0D 00 02  .;.#....<.#.....
03D0: 03 00 0D 80 80 3C 04 02  04 00 0D 80 80 E7 03 07  .....<..........
03E0: 0D 00 18 80 01 39 04 02  04 00 18 80 80 F7 03 07  .....9..........
03F0: 0D 00 18 80 01 39 04 02  04 00 1A 80 80 02 04 01  .....9..........
0400: 39 04 02 04 00 39 80 80  0D 04 01 39 04 02 04 00  9....9.....9....
0410: 3D 80 80 18 04 01 39 04  02 04 00 37 80 80 23 04  =.....9....7..#.
0420: 01 39 04 02 04 00 3E 80  80 2E 04 01 39 04 02 04  .9....>.....9...
0430: 00 35 80 80 39 04 01 39  04 01 65 06 02 03 00 18  .5..9..9..e.....
0440: 80 80 4A 04 01 D7 03 01  65 06 02 03 00 1A 80 80  ..J.....e.......
0450: CB 04 02 04 00 0D 80 80  5D 04 01 C8 04 02 04 00  ........].......
0460: 18 80 80 68 04 01 C8 04  02 04 00 1A 80 80 78 04  ...h..........x.
0470: 07 0D 00 18 80 01 C8 04  02 04 00 39 80 80 88 04  ...........9....
0480: 07 0D 00 18 80 01 C8 04  02 04 00 3D 80 80 98 04  ...........=....
0490: 07 0D 00 3F 80 01 C8 04  02 04 00 37 80 80 A8 04  ...?.......7....
04A0: 07 0D 00 3F 80 01 C8 04  02 04 00 3E 80 80 B8 04  ...?.......>....
04B0: 07 0D 00 3F 80 01 C8 04  02 04 00 35 80 80 C8 04  ...?.......5....
04C0: 07 0D 00 3F 80 01 C8 04  01 65 06 02 03 00 39 80  ...?.....e....9.
04D0: 80 D9 04 01 52 04 01 65  06 02 03 00 3D 80 80 50  ....R..e....=..P
04E0: 05 02 04 00 0D 80 80 EC  04 01 4D 05 02 04 00 18  ..........M.....
04F0: 80 80 F7 04 01 4D 05 02  04 00 1A 80 80 02 05 01  .....M..........
0500: 4D 05 02 04 00 39 80 80  0D 05 01 4D 05 02 04 00  M....9.....M....
0510: 3D 80 80 1D 05 07 0D 00  18 80 01 4D 05 02 04 00  =..........M....
0520: 37 80 80 2D 05 07 0D 00  18 80 01 4D 05 02 04 00  7..-.......M....
0530: 3E 80 80 3D 05 07 0D 00  18 80 01 4D 05 02 04 00  >..=.......M....
0540: 35 80 80 4D 05 07 0D 00  18 80 01 4D 05 01 65 06  5..M.......M..e.
0550: 02 03 00 37 80 80 5E 05  01 E1 04 01 65 06 02 03  ...7..^.....e...
0560: 00 3E 80 80 E4 05 03 06  00 0D 80 02 04 00 0D 80  .>..............
0570: 80 76 05 01 E1 05 02 04  00 18 80 80 81 05 01 E1  .v..............
0580: 05 02 04 00 1A 80 80 91  05 07 0D 00 3F 80 01 E1  ............?...
0590: 05 02 04 00 39 80 80 A1  05 07 0D 00 3F 80 01 E1  ....9.......?...
05A0: 05 02 04 00 3D 80 80 B1  05 07 0D 00 18 80 01 E1  ....=...........
05B0: 05 02 04 00 37 80 80 C1  05 07 0D 00 18 80 01 E1  ....7...........
05C0: 05 02 04 00 3E 80 80 D1  05 07 0D 00 18 80 01 E1  ....>...........
05D0: 05 02 04 00 35 80 80 E1  05 07 0D 00 18 80 01 E1  ....5...........
05E0: 05 01 65 06 02 03 00 35  80 80 65 06 02 04 00 0D  ..e....5..e.....
05F0: 80 80 F7 05 01 62 06 02  04 00 18 80 80 02 06 01  .....b..........
0600: 62 06 02 04 00 1A 80 80  12 06 07 0D 00 3F 80 01  b............?..
0610: 62 06 02 04 00 39 80 80  22 06 07 0D 00 3F 80 01  b....9.."....?..
0620: 62 06 02 04 00 3D 80 80  32 06 07 0D 00 18 80 01  b....=..2.......
0630: 62 06 02 04 00 37 80 80  42 06 07 0D 00 18 80 01  b....7..B.......
0640: 62 06 02 04 00 3E 80 80  52 06 07 0D 00 18 80 01  b....>..R.......
0650: 62 06 02 04 00 35 80 80  62 06 07 0D 00 18 80 01  b....5..b.......
0660: 62 06 01 65 06 1B 03 14  00 03 00 1A 91 06 03 05  b..e............
0670: 00 13 00 03 14 00 04 00  1A 91 06 03 06 00 13 00  ................
0680: 06 0E 00 02 05 00 06 00  01 90 06 03 0E 00 0D 80  ................
0690: 1B 06 13 00 02 14 00 0D  80 80 A4 06 03 13 00 0E  ................
06A0: 80 01 14 07 02 14 00 18  80 80 B4 06 03 13 00 0D  ................
06B0: 80 01 14 07 02 14 00 1A  80 80 C4 06 03 13 00 0E  ................
06C0: 80 01 14 07 02 14 00 39  80 80 D4 06 03 13 00 0D  .......9........
06D0: 80 01 14 07 02 14 00 3D  80 80 E4 06 03 13 00 0E  .......=........
06E0: 80 01 14 07 02 14 00 37  80 80 F4 06 03 13 00 0D  .......7........
06F0: 80 01 14 07 02 14 00 3E  80 80 04 07 03 13 00 0D  .......>........
0700: 80 01 14 07 02 14 00 35  80 80 14 07 03 13 00 0E  .......5........
0710: 80 01 14 07 1B 03 15 00  07 00 08 15 00 08 00 02  ................
0720: 15 00 0E 80 03 2C 07 14  15 00 40 80 06 0F 00 02  .....,....@.....
0730: 15 00 37 80 05 5C 07 02  15 00 39 80 04 47 07 03  ..7..\....9..G..
0740: 0F 00 0D 80 01 5C 07 02  15 00 0E 80 00 57 07 03  .....\.......W..
0750: 0F 00 1A 80 01 5C 07 03  0F 00 18 80 1B 03 1C 00  .....\..........
0760: 09 00 1A C4 07 03 16 00  1D 00 03 1C 00 0A 00 1A  ................
0770: C4 07 03 17 00 1D 00 03  19 00 16 00 0E 19 00 17  ................
0780: 00 06 1A 00 06 18 00 02  1A 00 41 80 05 A3 07 41  ..........A....A
0790: 1A 00 1A 00 19 00 1B 00  07 18 00 1B 00 0B 1A 00  ................
07A0: 01 87 07 06 10 00 02 18  00 39 80 04 B6 07 07 10  .........9......
07B0: 00 18 80 01 C3 07 02 18  00 1A 80 04 C3 07 07 10  ................
07C0: 00 0D 80 1B 06 1D 00 02  1C 00 0D 80 80 D7 07 03  ................
07D0: 1D 00 42 80 01 B7 08 02  1C 00 18 80 80 E7 07 03  ..B.............
07E0: 1D 00 43 80 01 B7 08 02  1C 00 1A 80 80 F7 07 03  ..C.............
07F0: 1D 00 44 80 01 B7 08 02  1C 00 39 80 80 07 08 03  ..D.......9.....
0800: 1D 00 45 80 01 B7 08 02  1C 00 3D 80 80 17 08 03  ..E.......=.....
0810: 1D 00 46 80 01 B7 08 02  1C 00 37 80 80 27 08 03  ..F.......7..'..
0820: 1D 00 33 80 01 B7 08 02  1C 00 3E 80 80 37 08 03  ..3.......>..7..
0830: 1D 00 42 80 01 B7 08 02  1C 00 35 80 80 47 08 03  ..B.......5..G..
0840: 1D 00 42 80 01 B7 08 02  1C 00 47 80 80 57 08 03  ..B.......G..W..
0850: 1D 00 33 80 01 B7 08 02  1C 00 33 80 80 67 08 03  ..3.......3..g..
0860: 1D 00 47 80 01 B7 08 02  1C 00 48 80 80 77 08 03  ..G.......H..w..
0870: 1D 00 49 80 01 B7 08 02  1C 00 49 80 80 87 08 03  ..I.......I.....
0880: 1D 00 42 80 01 B7 08 02  1C 00 00 80 80 97 08 03  ..B.............
0890: 1D 00 49 80 01 B7 08 02  1C 00 4A 80 80 A7 08 03  ..I.......J.....
08A0: 1D 00 4B 80 01 B7 08 02  1C 00 4C 80 80 B7 08 03  ..K.......L.....
08B0: 1D 00 45 80 01 B7 08 1B  06 11 00 02 0B 00 0C 00  ..E.............
08C0: 00 C8 08 03 11 00 18 80  1B 00                    ..........      
```

#### Opcodes

```
  0: 0x02F2 [0x00] END_REQSTACK()
```

#### Data or dead code:

```
# Dead code (unreachable instructions):
     0x02F3 [0x66] LOAD_EXT_SCHEDULER_MAIN: Load scheduler "sha0" with entities [EventEntity, EventEntity], work=42*
     0x0302 [0x03] Work_Zone[1] = ExtData[1]->WorkLocal[1]
     0x0307 [0x43] SEND_EVENT_UPDATE: Send pending tag to server (packet 0x005B)
     0x0309 [0x43] SEND_EVENT_UPDATE: Check pending flag (skip if not pending)
     0x030B [0x66] LOAD_EXT_SCHEDULER_MAIN: Load scheduler "sha1" with entities [EventEntity, EventEntity], work=42*
     0x031A [0x03] ExtData[1]->WorkLocal[3] = Work_Zone[2]
     0x031F [0x03] ExtData[1]->WorkLocal[4] = Work_Zone[3]
     0x0324 [0x03] ExtData[1]->WorkLocal[9] = Work_Zone[4]
     0x0329 [0x03] ExtData[1]->WorkLocal[10] = Work_Zone[5]
     0x032E [0x03] ExtData[1]->WorkLocal[7] = Work_Zone[6]
     0x0333 [0x03] ExtData[1]->WorkLocal[8] = Work_Zone[7]
     0x0338 [0x03] ExtData[1]->WorkLocal[11] = Work_Zone[8]
     0x033D [0x03] ExtData[1]->WorkLocal[12] = Work_Zone[9]
     0x0342 [0x02] IF !(ExtData[1]->WorkLocal[8] == 0*) GOTO 0x0351
     0x034A [0x1D] PRINT_EVENT_MESSAGE(message_id=7916*)
    → "Hold on, there! I can't divine you with that partner."
     0x034D [0x23] WAIT_FOR_DIALOG_INTERACTION
     0x034E [0x01] GOTO 0x03CB
     0x0351 [0x1A] CALL_SUBROUTINE(address=0x03CC)
     0x0354 [0x1A] CALL_SUBROUTINE(address=0x0666)
     0x0357 [0x1A] CALL_SUBROUTINE(address=0x075D)
     0x035A [0x1A] CALL_SUBROUTINE(address=0x0715)
     0x035D [0x1A] CALL_SUBROUTINE(address=0x08B8)
     0x0360 [0x06] ExtData[1]->WorkLocal[18] = 0
     0x0363 [0x07] ExtData[1]->WorkLocal[18] += ExtData[1]->WorkLocal[13]
     0x0368 [0x07] ExtData[1]->WorkLocal[18] += ExtData[1]->WorkLocal[14]
     0x036D [0x07] ExtData[1]->WorkLocal[18] += ExtData[1]->WorkLocal[16]
     0x0372 [0x07] ExtData[1]->WorkLocal[18] += ExtData[1]->WorkLocal[15]
     0x0377 [0x07] ExtData[1]->WorkLocal[18] += ExtData[1]->WorkLocal[17]
     0x037C [0x02] IF !(ExtData[1]->WorkLocal[18] < 10*) GOTO 0x038B
     0x0384 [0x1D] PRINT_EVENT_MESSAGE(message_id=7592*)
    → "Why, this is amazing... A perfect fit! The two of you can overcome any obstacle-wobstacle."
     0x0387 [0x23] WAIT_FOR_DIALOG_INTERACTION
     0x0388 [0x01] GOTO 0x03CB
     0x038B [0x02] IF !(ExtData[1]->WorkLocal[18] < 8*) GOTO 0x039A
     0x0393 [0x1D] PRINT_EVENT_MESSAGE(message_id=7593*)
    → "Yes, highly compatible! Go and do your bestaru for each other."
     0x0396 [0x23] WAIT_FOR_DIALOG_INTERACTION
     0x0397 [0x01] GOTO 0x03CB
     0x039A [0x02] IF !(ExtData[1]->WorkLocal[18] < 6*) GOTO 0x03A9
     0x03A2 [0x1D] PRINT_EVENT_MESSAGE(message_id=7594*)
    → "Yes, there's some compatibility-wility. But you must be open to each other. Try to make your feelings known."
     0x03A5 [0x23] WAIT_FOR_DIALOG_INTERACTION
     0x03A6 [0x01] GOTO 0x03CB
     0x03A9 [0x02] IF !(ExtData[1]->WorkLocal[18] < 4*) GOTO 0x03B8
     0x03B1 [0x1D] PRINT_EVENT_MESSAGE(message_id=7595*)
    → "Well, not bad. Just don't expectaru too much."
     0x03B4 [0x23] WAIT_FOR_DIALOG_INTERACTION
     0x03B5 [0x01] GOTO 0x03CB
     0x03B8 [0x02] IF !(ExtData[1]->WorkLocal[18] > 0*) GOTO 0x03C7
     0x03C0 [0x1D] PRINT_EVENT_MESSAGE(message_id=7597*)
    → "Yikesie-wikesie! Zero compatibility! Just like me and my nemesis! I'd steer clear from this one if I were you."
     0x03C3 [0x23] WAIT_FOR_DIALOG_INTERACTION
     0x03C4 [0x01] GOTO 0x03CB
     0x03C7 [0x1D] PRINT_EVENT_MESSAGE(message_id=7596*)
    → "You're not very compatible, as a matter of fact. I'd advise you not to worry, except that my fortunes are always right."
     0x03CA [0x23] WAIT_FOR_DIALOG_INTERACTION
     0x03CB [0x1B] RETURN
     0x03CC [0x06] ExtData[1]->WorkLocal[13] = 0
     0x03CF [0x02] IF !(ExtData[1]->WorkLocal[3] == 1*) GOTO 0x043C
     0x03D7 [0x02] IF !(ExtData[1]->WorkLocal[4] == 1*) GOTO 0x03E7
     0x03DF [0x07] ExtData[1]->WorkLocal[13] += 2*
     0x03E4 [0x01] GOTO 0x0439
     0x03E7 [0x02] IF !(ExtData[1]->WorkLocal[4] == 2*) GOTO 0x03F7
     0x03EF [0x07] ExtData[1]->WorkLocal[13] += 2*
     0x03F4 [0x01] GOTO 0x0439
     0x03F7 [0x02] IF !(ExtData[1]->WorkLocal[4] == 3*) GOTO 0x0402
     0x03FF [0x01] GOTO 0x0439
     0x0402 [0x02] IF !(ExtData[1]->WorkLocal[4] == 4*) GOTO 0x040D
     0x040A [0x01] GOTO 0x0439
     0x040D [0x02] IF !(ExtData[1]->WorkLocal[4] == 5*) GOTO 0x0418
     0x0415 [0x01] GOTO 0x0439
     0x0418 [0x02] IF !(ExtData[1]->WorkLocal[4] == 6*) GOTO 0x0423
     0x0420 [0x01] GOTO 0x0439
     0x0423 [0x02] IF !(ExtData[1]->WorkLocal[4] == 7*) GOTO 0x042E
     0x042B [0x01] GOTO 0x0439
     0x042E [0x02] IF !(ExtData[1]->WorkLocal[4] == 8*) GOTO 0x0439
     0x0436 [0x01] GOTO 0x0439
     0x0439 [0x01] GOTO 0x0665
     0x043C [0x02] IF !(ExtData[1]->WorkLocal[3] == 2*) GOTO 0x044A
     0x0444 [0x01] GOTO 0x03D7
     0x0447 [0x01] GOTO 0x0665
     0x044A [0x02] IF !(ExtData[1]->WorkLocal[3] == 3*) GOTO 0x04CB
     0x0452 [0x02] IF !(ExtData[1]->WorkLocal[4] == 1*) GOTO 0x045D
     0x045A [0x01] GOTO 0x04C8
     0x045D [0x02] IF !(ExtData[1]->WorkLocal[4] == 2*) GOTO 0x0468
     0x0465 [0x01] GOTO 0x04C8
     0x0468 [0x02] IF !(ExtData[1]->WorkLocal[4] == 3*) GOTO 0x0478
     0x0470 [0x07] ExtData[1]->WorkLocal[13] += 2*
     0x0475 [0x01] GOTO 0x04C8
     0x0478 [0x02] IF !(ExtData[1]->WorkLocal[4] == 4*) GOTO 0x0488
     0x0480 [0x07] ExtData[1]->WorkLocal[13] += 2*
     0x0485 [0x01] GOTO 0x04C8
     0x0488 [0x02] IF !(ExtData[1]->WorkLocal[4] == 5*) GOTO 0x0498
     0x0490 [0x07] ExtData[1]->WorkLocal[13] += 4294967294*
     0x0495 [0x01] GOTO 0x04C8
     0x0498 [0x02] IF !(ExtData[1]->WorkLocal[4] == 6*) GOTO 0x04A8
     0x04A0 [0x07] ExtData[1]->WorkLocal[13] += 4294967294*
     0x04A5 [0x01] GOTO 0x04C8
     0x04A8 [0x02] IF !(ExtData[1]->WorkLocal[4] == 7*) GOTO 0x04B8
     0x04B0 [0x07] ExtData[1]->WorkLocal[13] += 4294967294*
     0x04B5 [0x01] GOTO 0x04C8
     0x04B8 [0x02] IF !(ExtData[1]->WorkLocal[4] == 8*) GOTO 0x04C8
     0x04C0 [0x07] ExtData[1]->WorkLocal[13] += 4294967294*
     0x04C5 [0x01] GOTO 0x04C8
     0x04C8 [0x01] GOTO 0x0665
     0x04CB [0x02] IF !(ExtData[1]->WorkLocal[3] == 4*) GOTO 0x04D9
     0x04D3 [0x01] GOTO 0x0452
     0x04D6 [0x01] GOTO 0x0665
     0x04D9 [0x02] IF !(ExtData[1]->WorkLocal[3] == 5*) GOTO 0x0550
     0x04E1 [0x02] IF !(ExtData[1]->WorkLocal[4] == 1*) GOTO 0x04EC
     0x04E9 [0x01] GOTO 0x054D
     0x04EC [0x02] IF !(ExtData[1]->WorkLocal[4] == 2*) GOTO 0x04F7
     0x04F4 [0x01] GOTO 0x054D
     0x04F7 [0x02] IF !(ExtData[1]->WorkLocal[4] == 3*) GOTO 0x0502
     0x04FF [0x01] GOTO 0x054D
     0x0502 [0x02] IF !(ExtData[1]->WorkLocal[4] == 4*) GOTO 0x050D
     0x050A [0x01] GOTO 0x054D
     0x050D [0x02] IF !(ExtData[1]->WorkLocal[4] == 5*) GOTO 0x051D
     0x0515 [0x07] ExtData[1]->WorkLocal[13] += 2*
     0x051A [0x01] GOTO 0x054D
     0x051D [0x02] IF !(ExtData[1]->WorkLocal[4] == 6*) GOTO 0x052D
     0x0525 [0x07] ExtData[1]->WorkLocal[13] += 2*
     0x052A [0x01] GOTO 0x054D
     0x052D [0x02] IF !(ExtData[1]->WorkLocal[4] == 7*) GOTO 0x053D
     0x0535 [0x07] ExtData[1]->WorkLocal[13] += 2*
     0x053A [0x01] GOTO 0x054D
     0x053D [0x02] IF !(ExtData[1]->WorkLocal[4] == 8*) GOTO 0x054D
     0x0545 [0x07] ExtData[1]->WorkLocal[13] += 2*
     0x054A [0x01] GOTO 0x054D
     0x054D [0x01] GOTO 0x0665
     0x0550 [0x02] IF !(ExtData[1]->WorkLocal[3] == 6*) GOTO 0x055E
     0x0558 [0x01] GOTO 0x04E1
     0x055B [0x01] GOTO 0x0665
     0x055E [0x02] IF !(ExtData[1]->WorkLocal[3] == 7*) GOTO 0x05E4
     0x0566 [0x03] ExtData[1]->WorkLocal[6] = 1*
     0x056B [0x02] IF !(ExtData[1]->WorkLocal[4] == 1*) GOTO 0x0576
     0x0573 [0x01] GOTO 0x05E1
     0x0576 [0x02] IF !(ExtData[1]->WorkLocal[4] == 2*) GOTO 0x0581
     0x057E [0x01] GOTO 0x05E1
     0x0581 [0x02] IF !(ExtData[1]->WorkLocal[4] == 3*) GOTO 0x0591
     0x0589 [0x07] ExtData[1]->WorkLocal[13] += 4294967294*
     0x058E [0x01] GOTO 0x05E1
     0x0591 [0x02] IF !(ExtData[1]->WorkLocal[4] == 4*) GOTO 0x05A1
     0x0599 [0x07] ExtData[1]->WorkLocal[13] += 4294967294*
     0x059E [0x01] GOTO 0x05E1
     0x05A1 [0x02] IF !(ExtData[1]->WorkLocal[4] == 5*) GOTO 0x05B1
     0x05A9 [0x07] ExtData[1]->WorkLocal[13] += 2*
     0x05AE [0x01] GOTO 0x05E1
     0x05B1 [0x02] IF !(ExtData[1]->WorkLocal[4] == 6*) GOTO 0x05C1
     0x05B9 [0x07] ExtData[1]->WorkLocal[13] += 2*
     0x05BE [0x01] GOTO 0x05E1
     0x05C1 [0x02] IF !(ExtData[1]->WorkLocal[4] == 7*) GOTO 0x05D1
     0x05C9 [0x07] ExtData[1]->WorkLocal[13] += 2*
     0x05CE [0x01] GOTO 0x05E1
     0x05D1 [0x02] IF !(ExtData[1]->WorkLocal[4] == 8*) GOTO 0x05E1
     0x05D9 [0x07] ExtData[1]->WorkLocal[13] += 2*
     0x05DE [0x01] GOTO 0x05E1
     0x05E1 [0x01] GOTO 0x0665
     0x05E4 [0x02] IF !(ExtData[1]->WorkLocal[3] == 8*) GOTO 0x0665
     0x05EC [0x02] IF !(ExtData[1]->WorkLocal[4] == 1*) GOTO 0x05F7
     0x05F4 [0x01] GOTO 0x0662
     0x05F7 [0x02] IF !(ExtData[1]->WorkLocal[4] == 2*) GOTO 0x0602
     0x05FF [0x01] GOTO 0x0662
     0x0602 [0x02] IF !(ExtData[1]->WorkLocal[4] == 3*) GOTO 0x0612
     0x060A [0x07] ExtData[1]->WorkLocal[13] += 4294967294*
     0x060F [0x01] GOTO 0x0662
     0x0612 [0x02] IF !(ExtData[1]->WorkLocal[4] == 4*) GOTO 0x0622
     0x061A [0x07] ExtData[1]->WorkLocal[13] += 4294967294*
     0x061F [0x01] GOTO 0x0662
     0x0622 [0x02] IF !(ExtData[1]->WorkLocal[4] == 5*) GOTO 0x0632
     0x062A [0x07] ExtData[1]->WorkLocal[13] += 2*
     0x062F [0x01] GOTO 0x0662
     0x0632 [0x02] IF !(ExtData[1]->WorkLocal[4] == 6*) GOTO 0x0642
     0x063A [0x07] ExtData[1]->WorkLocal[13] += 2*
     0x063F [0x01] GOTO 0x0662
     0x0642 [0x02] IF !(ExtData[1]->WorkLocal[4] == 7*) GOTO 0x0652
     0x064A [0x07] ExtData[1]->WorkLocal[13] += 2*
     0x064F [0x01] GOTO 0x0662
     0x0652 [0x02] IF !(ExtData[1]->WorkLocal[4] == 8*) GOTO 0x0662
     0x065A [0x07] ExtData[1]->WorkLocal[13] += 2*
     0x065F [0x01] GOTO 0x0662
     0x0662 [0x01] GOTO 0x0665
     0x0665 [0x1B] RETURN
     0x0666 [0x03] ExtData[1]->WorkLocal[20] = ExtData[1]->WorkLocal[3]
     0x066B [0x1A] CALL_SUBROUTINE(address=0x0691)
     0x066E [0x03] ExtData[1]->WorkLocal[5] = ExtData[1]->WorkLocal[19]
     0x0673 [0x03] ExtData[1]->WorkLocal[20] = ExtData[1]->WorkLocal[4]
     0x0678 [0x1A] CALL_SUBROUTINE(address=0x0691)
     0x067B [0x03] ExtData[1]->WorkLocal[6] = ExtData[1]->WorkLocal[19]
     0x0680 [0x06] ExtData[1]->WorkLocal[14] = 0
     0x0683 [0x02] IF !(ExtData[1]->WorkLocal[5] == ExtData[1]->WorkLocal[6]) GOTO 0x0690
     0x068B [0x03] ExtData[1]->WorkLocal[14] = 1*
     0x0690 [0x1B] RETURN
     0x0691 [0x06] ExtData[1]->WorkLocal[19] = 0
     0x0694 [0x02] IF !(ExtData[1]->WorkLocal[20] == 1*) GOTO 0x06A4
     0x069C [0x03] ExtData[1]->WorkLocal[19] = 0*
     0x06A1 [0x01] GOTO 0x0714
     0x06A4 [0x02] IF !(ExtData[1]->WorkLocal[20] == 2*) GOTO 0x06B4
     0x06AC [0x03] ExtData[1]->WorkLocal[19] = 1*
     0x06B1 [0x01] GOTO 0x0714
     0x06B4 [0x02] IF !(ExtData[1]->WorkLocal[20] == 3*) GOTO 0x06C4
     0x06BC [0x03] ExtData[1]->WorkLocal[19] = 0*
     0x06C1 [0x01] GOTO 0x0714
     0x06C4 [0x02] IF !(ExtData[1]->WorkLocal[20] == 4*) GOTO 0x06D4
     0x06CC [0x03] ExtData[1]->WorkLocal[19] = 1*
     0x06D1 [0x01] GOTO 0x0714
     0x06D4 [0x02] IF !(ExtData[1]->WorkLocal[20] == 5*) GOTO 0x06E4
     0x06DC [0x03] ExtData[1]->WorkLocal[19] = 0*
     0x06E1 [0x01] GOTO 0x0714
     0x06E4 [0x02] IF !(ExtData[1]->WorkLocal[20] == 6*) GOTO 0x06F4
     0x06EC [0x03] ExtData[1]->WorkLocal[19] = 1*
     0x06F1 [0x01] GOTO 0x0714
     0x06F4 [0x02] IF !(ExtData[1]->WorkLocal[20] == 7*) GOTO 0x0704
     0x06FC [0x03] ExtData[1]->WorkLocal[19] = 1*
     0x0701 [0x01] GOTO 0x0714
     0x0704 [0x02] IF !(ExtData[1]->WorkLocal[20] == 8*) GOTO 0x0714
     0x070C [0x03] ExtData[1]->WorkLocal[19] = 0*
     0x0711 [0x01] GOTO 0x0714
     0x0714 [0x1B] RETURN
     0x0715 [0x03] ExtData[1]->WorkLocal[21] = ExtData[1]->WorkLocal[7]
     0x071A [0x08] ExtData[1]->WorkLocal[21] -= ExtData[1]->WorkLocal[8]
     0x071F [0x02] IF !(ExtData[1]->WorkLocal[21] >= 0*) GOTO 0x072C
     0x0727 [0x14] ExtData[1]->WorkLocal[21] *= 4294967295*
     0x072C [0x06] ExtData[1]->WorkLocal[15] = 0
     0x072F [0x02] IF !(ExtData[1]->WorkLocal[21] > 6*) GOTO 0x075C
     0x0737 [0x02] IF !(ExtData[1]->WorkLocal[21] < 4*) GOTO 0x0747
     0x073F [0x03] ExtData[1]->WorkLocal[15] = 1*
     0x0744 [0x01] GOTO 0x075C
     0x0747 [0x02] IF !(ExtData[1]->WorkLocal[21] == 0*) GOTO 0x0757
     0x074F [0x03] ExtData[1]->WorkLocal[15] = 3*
     0x0754 [0x01] GOTO 0x075C
     0x0757 [0x03] ExtData[1]->WorkLocal[15] = 2*
     0x075C [0x1B] RETURN
     0x075D [0x03] ExtData[1]->WorkLocal[28] = ExtData[1]->WorkLocal[9]
     0x0762 [0x1A] CALL_SUBROUTINE(address=0x07C4)
     0x0765 [0x03] ExtData[1]->WorkLocal[22] = ExtData[1]->WorkLocal[29]
     0x076A [0x03] ExtData[1]->WorkLocal[28] = ExtData[1]->WorkLocal[10]
     0x076F [0x1A] CALL_SUBROUTINE(address=0x07C4)
     0x0772 [0x03] ExtData[1]->WorkLocal[23] = ExtData[1]->WorkLocal[29]
     0x0777 [0x03] ExtData[1]->WorkLocal[25] = ExtData[1]->WorkLocal[22]
     0x077C [0x0E] ExtData[1]->WorkLocal[25] |= ExtData[1]->WorkLocal[23]
     0x0781 [0x06] ExtData[1]->WorkLocal[26] = 0
     0x0784 [0x06] ExtData[1]->WorkLocal[24] = 0
     0x0787 [0x02] IF !(ExtData[1]->WorkLocal[26] > 31*) GOTO 0x07A3
     0x078F [0x41] ExtData[1]->WorkLocal[27] = ExtData[1]->WorkLocal[25] (bits ExtData[1]->WorkLocal[26]-ExtData[1]->WorkLocal[26])
     0x0798 [0x07] ExtData[1]->WorkLocal[24] += ExtData[1]->WorkLocal[27]
     0x079D [0x0B] ExtData[1]->WorkLocal[26]++
     0x07A0 [0x01] GOTO 0x0787
     0x07A3 [0x06] ExtData[1]->WorkLocal[16] = 0
     0x07A6 [0x02] IF !(ExtData[1]->WorkLocal[24] < 4*) GOTO 0x07B6
     0x07AE [0x07] ExtData[1]->WorkLocal[16] += 2*
     0x07B3 [0x01] GOTO 0x07C3
     0x07B6 [0x02] IF !(ExtData[1]->WorkLocal[24] < 3*) GOTO 0x07C3
     0x07BE [0x07] ExtData[1]->WorkLocal[16] += 1*
     0x07C3 [0x1B] RETURN
     0x07C4 [0x06] ExtData[1]->WorkLocal[29] = 0
     0x07C7 [0x02] IF !(ExtData[1]->WorkLocal[28] == 1*) GOTO 0x07D7
     0x07CF [0x03] ExtData[1]->WorkLocal[29] = 34*
     0x07D4 [0x01] GOTO 0x08B7
     0x07D7 [0x02] IF !(ExtData[1]->WorkLocal[28] == 2*) GOTO 0x07E7
     0x07DF [0x03] ExtData[1]->WorkLocal[29] = 35*
     0x07E4 [0x01] GOTO 0x08B7
     0x07E7 [0x02] IF !(ExtData[1]->WorkLocal[28] == 3*) GOTO 0x07F7
     0x07EF [0x03] ExtData[1]->WorkLocal[29] = 17*
     0x07F4 [0x01] GOTO 0x08B7
     0x07F7 [0x02] IF !(ExtData[1]->WorkLocal[28] == 4*) GOTO 0x0807
     0x07FF [0x03] ExtData[1]->WorkLocal[29] = 20*
     0x0804 [0x01] GOTO 0x08B7
     0x0807 [0x02] IF !(ExtData[1]->WorkLocal[28] == 5*) GOTO 0x0817
     0x080F [0x03] ExtData[1]->WorkLocal[29] = 21*
     0x0814 [0x01] GOTO 0x08B7
     0x0817 [0x02] IF !(ExtData[1]->WorkLocal[28] == 6*) GOTO 0x0827
     0x081F [0x03] ExtData[1]->WorkLocal[29] = 10*
     0x0824 [0x01] GOTO 0x08B7
     0x0827 [0x02] IF !(ExtData[1]->WorkLocal[28] == 7*) GOTO 0x0837
     0x082F [0x03] ExtData[1]->WorkLocal[29] = 34*
     0x0834 [0x01] GOTO 0x08B7
     0x0837 [0x02] IF !(ExtData[1]->WorkLocal[28] == 8*) GOTO 0x0847
     0x083F [0x03] ExtData[1]->WorkLocal[29] = 34*
     0x0844 [0x01] GOTO 0x08B7
     0x0847 [0x02] IF !(ExtData[1]->WorkLocal[28] == 9*) GOTO 0x0857
     0x084F [0x03] ExtData[1]->WorkLocal[29] = 10*
     0x0854 [0x01] GOTO 0x08B7
     0x0857 [0x02] IF !(ExtData[1]->WorkLocal[28] == 10*) GOTO 0x0867
     0x085F [0x03] ExtData[1]->WorkLocal[29] = 9*
     0x0864 [0x01] GOTO 0x08B7
     0x0867 [0x02] IF !(ExtData[1]->WorkLocal[28] == 11*) GOTO 0x0877
     0x086F [0x03] ExtData[1]->WorkLocal[29] = 12*
     0x0874 [0x01] GOTO 0x08B7
     0x0877 [0x02] IF !(ExtData[1]->WorkLocal[28] == 12*) GOTO 0x0887
     0x087F [0x03] ExtData[1]->WorkLocal[29] = 34*
     0x0884 [0x01] GOTO 0x08B7
     0x0887 [0x02] IF !(ExtData[1]->WorkLocal[28] == 13*) GOTO 0x0897
     0x088F [0x03] ExtData[1]->WorkLocal[29] = 12*
     0x0894 [0x01] GOTO 0x08B7
     0x0897 [0x02] IF !(ExtData[1]->WorkLocal[28] == 14*) GOTO 0x08A7
     0x089F [0x03] ExtData[1]->WorkLocal[29] = 36*
     0x08A4 [0x01] GOTO 0x08B7
     0x08A7 [0x02] IF !(ExtData[1]->WorkLocal[28] == 15*) GOTO 0x08B7
     0x08AF [0x03] ExtData[1]->WorkLocal[29] = 20*
     0x08B4 [0x01] GOTO 0x08B7
     0x08B7 [0x1B] RETURN
     0x08B8 [0x06] ExtData[1]->WorkLocal[17] = 0
     0x08BB [0x02] IF !(ExtData[1]->WorkLocal[11] == ExtData[1]->WorkLocal[12]) GOTO 0x08C8
     0x08C3 [0x03] ExtData[1]->WorkLocal[17] = 2*
     0x08C8 [0x1B] RETURN
     0x08C9 [0x00] END_REQSTACK()
```

### Event 10094

#### Metadata

| Field        | Value   |
|--------------|---------|
| Entrypoint   | 0x08CA  |
| Data Size    | 5 bytes |
| Instructions | 2       |

```
      00 01 02 03 04 05 06 07  08 09 0A 0B 0C 0D 0E 0F
      -- -- -- -- -- -- -- --  -- -- -- -- -- -- -- --
08C0:                                C0 0D 80 00 00               ..... 
```

#### Opcodes

```
  0: 0x08CA [0xC0] EventEntity->Render.Flags3 |= 0x1000 // Set bit 12 (from 1*)
  1: 0x08CD [0x00] END_REQSTACK()
```

#### Data or dead code:

```
# Dead code (unreachable instructions):
     0x08CE [0x00] END_REQSTACK()
```

### Event 65535.12

#### Metadata

| Field        | Value    |
|--------------|----------|
| Entrypoint   | 0x08CF   |
| Data Size    | 20 bytes |
| Instructions | 5        |

```
      00 01 02 03 04 05 06 07  08 09 0A 0B 0C 0D 0E 0F
      -- -- -- -- -- -- -- --  -- -- -- -- -- -- -- --
08C0:                                               59                 Y
08D0: 04 0B 50 0F 01 49 80 1F  00 4D 80 4E 80 0E 80 1F  ..P..I...M.N....
08E0: 01 6F 00                                          .o.             
```

#### Opcodes

```
  0: 0x08CF [0x59] UPDATE_ENTITY_DATA: Set Garnev (ID: 17780747/0x010F500B) main speed = 12* * 0.1
  1: 0x08D7 [0x1F] MOVE_ENTITY: EventEntity moves to X=-76.092*, Z=-136.357*, Y=0.000*
  2: 0x08DF [0x1F] MOVE_ENTITY: Update entity position (mode=1)
  3: 0x08E1 [0x6F] WAIT_FRAME_DELAY: Yield until WaitTime reaches zero
  4: 0x08E2 [0x00] END_REQSTACK()
```

### Event 65535.13

#### Metadata

| Field        | Value    |
|--------------|----------|
| Entrypoint   | 0x08E3   |
| Data Size    | 20 bytes |
| Instructions | 5        |

```
      00 01 02 03 04 05 06 07  08 09 0A 0B 0C 0D 0E 0F
      -- -- -- -- -- -- -- --  -- -- -- -- -- -- -- --
08E0:          59 04 1D 50 0F  01 48 80 1F 00 4F 80 50     Y..P..H...O.P
08F0: 80 0E 80 1F 01 6F 00                              .....o.         
```

#### Opcodes

```
  0: 0x08E3 [0x59] UPDATE_ENTITY_DATA: Set Mataligeat (ID: 17780765/0x010F501D) main speed = 11* * 0.1
  1: 0x08EB [0x1F] MOVE_ENTITY: EventEntity moves to X=-95.337*, Z=-156.056*, Y=0.000*
  2: 0x08F3 [0x1F] MOVE_ENTITY: Update entity position (mode=1)
  3: 0x08F5 [0x6F] WAIT_FRAME_DELAY: Yield until WaitTime reaches zero
  4: 0x08F6 [0x00] END_REQSTACK()
```

### Event 65535.14

#### Metadata

| Field        | Value    |
|--------------|----------|
| Entrypoint   | 0x08F7   |
| Data Size    | 20 bytes |
| Instructions | 5        |

```
      00 01 02 03 04 05 06 07  08 09 0A 0B 0C 0D 0E 0F
      -- -- -- -- -- -- -- --  -- -- -- -- -- -- -- --
08F0:                      59  04 1D 50 0F 01 48 80 1F         Y..P..H..
0900: 00 51 80 52 80 53 80 1F  01 6F 00                 .Q.R.S...o.     
```

#### Opcodes

```
  0: 0x08F7 [0x59] UPDATE_ENTITY_DATA: Set Mataligeat (ID: 17780765/0x010F501D) main speed = 11* * 0.1
  1: 0x08FF [0x1F] MOVE_ENTITY: EventEntity moves to X=-62.073*, Z=-89.873*, Y=5.999*
  2: 0x0907 [0x1F] MOVE_ENTITY: Update entity position (mode=1)
  3: 0x0909 [0x6F] WAIT_FRAME_DELAY: Yield until WaitTime reaches zero
  4: 0x090A [0x00] END_REQSTACK()
```

### Event 65535.15

#### Metadata

| Field        | Value    |
|--------------|----------|
| Entrypoint   | 0x090B   |
| Data Size    | 17 bytes |
| Instructions | 2        |

```
      00 01 02 03 04 05 06 07  08 09 0A 0B 0C 0D 0E 0F
      -- -- -- -- -- -- -- --  -- -- -- -- -- -- -- --
0900:                                   5B 54 80 1D 50             [T..P
0910: 0F 01 1D 50 0F 01 6F 70  30 30 00 00              ...P..op00..    
```

#### Opcodes

```
  0: 0x090B [0x5B] LOAD_EXT_SCHEDULER: Load scheduler "op00" with entities [Mataligeat (ID: 17780765/0x010F501D), Mataligeat (ID: 17780765/0x010F501D)], work=2618*
  1: 0x091A [0x00] END_REQSTACK()
```

#### Data or dead code:

```
# Dead code (unreachable instructions):
     0x091B [0x00] END_REQSTACK()
```

### Event 65535.16

#### Metadata

| Field        | Value    |
|--------------|----------|
| Entrypoint   | 0x091C   |
| Data Size    | 20 bytes |
| Instructions | 5        |

```
      00 01 02 03 04 05 06 07  08 09 0A 0B 0C 0D 0E 0F
      -- -- -- -- -- -- -- --  -- -- -- -- -- -- -- --
0910:                                      59 04 3A 50              Y.:P
0920: 0F 01 48 80 1F 00 4F 80  50 80 0E 80 1F 01 6F 00  ..H...O.P.....o.
```

#### Opcodes

```
  0: 0x091C [0x59] UPDATE_ENTITY_DATA: Set Navisse (ID: 17780794/0x010F503A) main speed = 11* * 0.1
  1: 0x0924 [0x1F] MOVE_ENTITY: EventEntity moves to X=-95.337*, Z=-156.056*, Y=0.000*
  2: 0x092C [0x1F] MOVE_ENTITY: Update entity position (mode=1)
  3: 0x092E [0x6F] WAIT_FRAME_DELAY: Yield until WaitTime reaches zero
  4: 0x092F [0x00] END_REQSTACK()
```

### Event 65535.17

#### Metadata

| Field        | Value    |
|--------------|----------|
| Entrypoint   | 0x0930   |
| Data Size    | 20 bytes |
| Instructions | 5        |

```
      00 01 02 03 04 05 06 07  08 09 0A 0B 0C 0D 0E 0F
      -- -- -- -- -- -- -- --  -- -- -- -- -- -- -- --
0930: 59 04 2C 50 0F 01 49 80  1F 00 55 80 56 80 0E 80  Y.,P..I...U.V...
0940: 1F 01 6F 00                                       ..o.            
```

#### Opcodes

```
  0: 0x0930 [0x59] UPDATE_ENTITY_DATA: Set Jazmin (ID: 17780780/0x010F502C) main speed = 12* * 0.1
  1: 0x0938 [0x1F] MOVE_ENTITY: EventEntity moves to X=-83.944*, Z=-128.625*, Y=0.000*
  2: 0x0940 [0x1F] MOVE_ENTITY: Update entity position (mode=1)
  3: 0x0942 [0x6F] WAIT_FRAME_DELAY: Yield until WaitTime reaches zero
  4: 0x0943 [0x00] END_REQSTACK()
```

### Event 65535.18

#### Metadata

| Field        | Value    |
|--------------|----------|
| Entrypoint   | 0x0944   |
| Data Size    | 19 bytes |
| Instructions | 4        |

```
      00 01 02 03 04 05 06 07  08 09 0A 0B 0C 0D 0E 0F
      -- -- -- -- -- -- -- --  -- -- -- -- -- -- -- --
0940:             59 04 2C 50  0F 01 48 80 1F 00 57 80      Y.,P..H...W.
0950: 58 80 53 80 1F 01 00                              X.S....         
```

#### Opcodes

```
  0: 0x0944 [0x59] UPDATE_ENTITY_DATA: Set Jazmin (ID: 17780780/0x010F502C) main speed = 11* * 0.1
  1: 0x094C [0x1F] MOVE_ENTITY: EventEntity moves to X=-68.592*, Z=-96.839*, Y=5.999*
  2: 0x0954 [0x1F] MOVE_ENTITY: Update entity position (mode=1)
  3: 0x0956 [0x00] END_REQSTACK()
```

### Event 65535.19

#### Metadata

| Field        | Value    |
|--------------|----------|
| Entrypoint   | 0x0957   |
| Data Size    | 19 bytes |
| Instructions | 4        |

```
      00 01 02 03 04 05 06 07  08 09 0A 0B 0C 0D 0E 0F
      -- -- -- -- -- -- -- --  -- -- -- -- -- -- -- --
0950:                      59  04 2C 50 0F 01 48 80 1F         Y.,P..H..
0960: 00 59 80 5A 80 53 80 1F  01 00                    .Y.Z.S....      
```

#### Opcodes

```
  0: 0x0957 [0x59] UPDATE_ENTITY_DATA: Set Jazmin (ID: 17780780/0x010F502C) main speed = 11* * 0.1
  1: 0x095F [0x1F] MOVE_ENTITY: EventEntity moves to X=-70.511*, Z=-102.750*, Y=5.999*
  2: 0x0967 [0x1F] MOVE_ENTITY: Update entity position (mode=1)
  3: 0x0969 [0x00] END_REQSTACK()
```

### Event 65535.20

#### Metadata

| Field        | Value    |
|--------------|----------|
| Entrypoint   | 0x096A   |
| Data Size    | 16 bytes |
| Instructions | 2        |

```
      00 01 02 03 04 05 06 07  08 09 0A 0B 0C 0D 0E 0F
      -- -- -- -- -- -- -- --  -- -- -- -- -- -- -- --
0960:                                5B 5B 80 2C 50 0F            [[.,P.
0970: 01 2C 50 0F 01 6F 70 30  30 00                    .,P..op00.      
```

#### Opcodes

```
  0: 0x096A [0x5B] LOAD_EXT_SCHEDULER: Load scheduler "op00" with entities [Jazmin (ID: 17780780/0x010F502C), Jazmin (ID: 17780780/0x010F502C)], work=2602*
  1: 0x0979 [0x00] END_REQSTACK()
```

### Event 65535.21

#### Metadata

| Field        | Value    |
|--------------|----------|
| Entrypoint   | 0x097A   |
| Data Size    | 16 bytes |
| Instructions | 2        |

```
      00 01 02 03 04 05 06 07  08 09 0A 0B 0C 0D 0E 0F
      -- -- -- -- -- -- -- --  -- -- -- -- -- -- -- --
0970:                                5B 5B 80 2C 50 0F            [[.,P.
0980: 01 2C 50 0F 01 6F 70 30  31 00                    .,P..op01.      
```

#### Opcodes

```
  0: 0x097A [0x5B] LOAD_EXT_SCHEDULER: Load scheduler "op01" with entities [Jazmin (ID: 17780780/0x010F502C), Jazmin (ID: 17780780/0x010F502C)], work=2602*
  1: 0x0989 [0x00] END_REQSTACK()
```

### Event 65535.22

#### Metadata

| Field        | Value    |
|--------------|----------|
| Entrypoint   | 0x098A   |
| Data Size    | 20 bytes |
| Instructions | 5        |

```
      00 01 02 03 04 05 06 07  08 09 0A 0B 0C 0D 0E 0F
      -- -- -- -- -- -- -- --  -- -- -- -- -- -- -- --
0980:                                59 04 2C 50 0F 01            Y.,P..
0990: 48 80 1F 00 5C 80 5D 80  53 80 1F 01 6F 00        H...\.].S...o.  
```

#### Opcodes

```
  0: 0x098A [0x59] UPDATE_ENTITY_DATA: Set Jazmin (ID: 17780780/0x010F502C) main speed = 11* * 0.1
  1: 0x0992 [0x1F] MOVE_ENTITY: EventEntity moves to X=-72.366*, Z=-118.167*, Y=5.999*
  2: 0x099A [0x1F] MOVE_ENTITY: Update entity position (mode=1)
  3: 0x099C [0x6F] WAIT_FRAME_DELAY: Yield until WaitTime reaches zero
  4: 0x099D [0x00] END_REQSTACK()
```

### Event 65535.23

#### Metadata

| Field        | Value    |
|--------------|----------|
| Entrypoint   | 0x099E   |
| Data Size    | 16 bytes |
| Instructions | 2        |

```
      00 01 02 03 04 05 06 07  08 09 0A 0B 0C 0D 0E 0F
      -- -- -- -- -- -- -- --  -- -- -- -- -- -- -- --
0990:                                            5B 5E                [^
09A0: 80 2C 50 0F 01 2C 50 0F  01 6F 70 61 30 00        .,P..,P..opa0.  
```

#### Opcodes

```
  0: 0x099E [0x5B] LOAD_EXT_SCHEDULER: Load scheduler "opa0" with entities [Jazmin (ID: 17780780/0x010F502C), Jazmin (ID: 17780780/0x010F502C)], work=2617*
  1: 0x09AD [0x00] END_REQSTACK()
```

### Event 65535.24

#### Metadata

| Field        | Value    |
|--------------|----------|
| Entrypoint   | 0x09AE   |
| Data Size    | 16 bytes |
| Instructions | 2        |

```
      00 01 02 03 04 05 06 07  08 09 0A 0B 0C 0D 0E 0F
      -- -- -- -- -- -- -- --  -- -- -- -- -- -- -- --
09A0:                                            5B 5E                [^
09B0: 80 2C 50 0F 01 2C 50 0F  01 6F 70 61 31 00        .,P..,P..opa1.  
```

#### Opcodes

```
  0: 0x09AE [0x5B] LOAD_EXT_SCHEDULER: Load scheduler "opa1" with entities [Jazmin (ID: 17780780/0x010F502C), Jazmin (ID: 17780780/0x010F502C)], work=2617*
  1: 0x09BD [0x00] END_REQSTACK()
```

### Event 65535.25

#### Metadata

| Field        | Value    |
|--------------|----------|
| Entrypoint   | 0x09BE   |
| Data Size    | 16 bytes |
| Instructions | 2        |

```
      00 01 02 03 04 05 06 07  08 09 0A 0B 0C 0D 0E 0F
      -- -- -- -- -- -- -- --  -- -- -- -- -- -- -- --
09B0:                                            5B 5E                [^
09C0: 80 2C 50 0F 01 2C 50 0F  01 6F 70 61 32 00        .,P..,P..opa2.  
```

#### Opcodes

```
  0: 0x09BE [0x5B] LOAD_EXT_SCHEDULER: Load scheduler "opa2" with entities [Jazmin (ID: 17780780/0x010F502C), Jazmin (ID: 17780780/0x010F502C)], work=2617*
  1: 0x09CD [0x00] END_REQSTACK()
```

### Event 65535.26

#### Metadata

| Field        | Value    |
|--------------|----------|
| Entrypoint   | 0x09CE   |
| Data Size    | 21 bytes |
| Instructions | 5        |

```
      00 01 02 03 04 05 06 07  08 09 0A 0B 0C 0D 0E 0F
      -- -- -- -- -- -- -- --  -- -- -- -- -- -- -- --
09C0:                                            59 04                Y.
09D0: 2E 50 0F 01 49 80 1F 00  4D 80 4E 80 0E 80 1F 01  .P..I...M.N.....
09E0: 6F 00 00                                          o..             
```

#### Opcodes

```
  0: 0x09CE [0x59] UPDATE_ENTITY_DATA: Set Bogharg (ID: 17780782/0x010F502E) main speed = 12* * 0.1
  1: 0x09D6 [0x1F] MOVE_ENTITY: EventEntity moves to X=-76.092*, Z=-136.357*, Y=0.000*
  2: 0x09DE [0x1F] MOVE_ENTITY: Update entity position (mode=1)
  3: 0x09E0 [0x6F] WAIT_FRAME_DELAY: Yield until WaitTime reaches zero
  4: 0x09E1 [0x00] END_REQSTACK()
```

#### Data or dead code:

```
# Dead code (unreachable instructions):
     0x09E2 [0x00] END_REQSTACK()
```

### Event 65535.27

#### Metadata

| Field        | Value    |
|--------------|----------|
| Entrypoint   | 0x09E3   |
| Data Size    | 16 bytes |
| Instructions | 2        |

```
      00 01 02 03 04 05 06 07  08 09 0A 0B 0C 0D 0E 0F
      -- -- -- -- -- -- -- --  -- -- -- -- -- -- -- --
09E0:          66 5F 80 2E 50  0F 01 2E 50 0F 01 74 68     f_..P...P..th
09F0: 6B 31 00                                          k1.             
```

#### Opcodes

```
  0: 0x09E3 [0x66] LOAD_EXT_SCHEDULER_MAIN: Load scheduler "thk1" with entities [Bogharg (ID: 17780782/0x010F502E), Bogharg (ID: 17780782/0x010F502E)], work=69*
  1: 0x09F2 [0x00] END_REQSTACK()
```

### Event 65535.28

#### Metadata

| Field        | Value    |
|--------------|----------|
| Entrypoint   | 0x09F3   |
| Data Size    | 16 bytes |
| Instructions | 2        |

```
      00 01 02 03 04 05 06 07  08 09 0A 0B 0C 0D 0E 0F
      -- -- -- -- -- -- -- --  -- -- -- -- -- -- -- --
09F0:          66 5F 80 2E 50  0F 01 2E 50 0F 01 74 68     f_..P...P..th
0A00: 6B 32 00                                          k2.             
```

#### Opcodes

```
  0: 0x09F3 [0x66] LOAD_EXT_SCHEDULER_MAIN: Load scheduler "thk2" with entities [Bogharg (ID: 17780782/0x010F502E), Bogharg (ID: 17780782/0x010F502E)], work=69*
  1: 0x0A02 [0x00] END_REQSTACK()
```

### Event 65535.29

#### Metadata

| Field        | Value    |
|--------------|----------|
| Entrypoint   | 0x0A03   |
| Data Size    | 20 bytes |
| Instructions | 5        |

```
      00 01 02 03 04 05 06 07  08 09 0A 0B 0C 0D 0E 0F
      -- -- -- -- -- -- -- --  -- -- -- -- -- -- -- --
0A00:          59 04 2E 50 0F  01 49 80 1F 00 60 80 61     Y..P..I...`.a
0A10: 80 53 80 1F 01 6F 00                              .S...o.         
```

#### Opcodes

```
  0: 0x0A03 [0x59] UPDATE_ENTITY_DATA: Set Bogharg (ID: 17780782/0x010F502E) main speed = 12* * 0.1
  1: 0x0A0B [0x1F] MOVE_ENTITY: EventEntity moves to X=-56.992*, Z=-88.050*, Y=5.999*
  2: 0x0A13 [0x1F] MOVE_ENTITY: Update entity position (mode=1)
  3: 0x0A15 [0x6F] WAIT_FRAME_DELAY: Yield until WaitTime reaches zero
  4: 0x0A16 [0x00] END_REQSTACK()
```

### Event 65535.30

#### Metadata

| Field        | Value    |
|--------------|----------|
| Entrypoint   | 0x0A17   |
| Data Size    | 17 bytes |
| Instructions | 2        |

```
      00 01 02 03 04 05 06 07  08 09 0A 0B 0C 0D 0E 0F
      -- -- -- -- -- -- -- --  -- -- -- -- -- -- -- --
0A10:                      5B  62 80 2E 50 0F 01 2E 50         [b..P...P
0A20: 0F 01 6F 70 30 30 00 00                           ..op00..        
```

#### Opcodes

```
  0: 0x0A17 [0x5B] LOAD_EXT_SCHEDULER: Load scheduler "op00" with entities [Bogharg (ID: 17780782/0x010F502E), Bogharg (ID: 17780782/0x010F502E)], work=2621*
  1: 0x0A26 [0x00] END_REQSTACK()
```

#### Data or dead code:

```
# Dead code (unreachable instructions):
     0x0A27 [0x00] END_REQSTACK()
```

### Event 65535.31

#### Metadata

| Field        | Value    |
|--------------|----------|
| Entrypoint   | 0x0A28   |
| Data Size    | 20 bytes |
| Instructions | 5        |

```
      00 01 02 03 04 05 06 07  08 09 0A 0B 0C 0D 0E 0F
      -- -- -- -- -- -- -- --  -- -- -- -- -- -- -- --
0A20:                          59 04 31 50 0F 01 48 80          Y.1P..H.
0A30: 1F 00 55 80 56 80 0E 80  1F 01 6F 00              ..U.V.....o.    
```

#### Opcodes

```
  0: 0x0A28 [0x59] UPDATE_ENTITY_DATA: Set Nakho Jawantal (ID: 17780785/0x010F5031) main speed = 11* * 0.1
  1: 0x0A30 [0x1F] MOVE_ENTITY: EventEntity moves to X=-83.944*, Z=-128.625*, Y=0.000*
  2: 0x0A38 [0x1F] MOVE_ENTITY: Update entity position (mode=1)
  3: 0x0A3A [0x6F] WAIT_FRAME_DELAY: Yield until WaitTime reaches zero
  4: 0x0A3B [0x00] END_REQSTACK()
```

### Event 65535.32

#### Metadata

| Field        | Value    |
|--------------|----------|
| Entrypoint   | 0x0A3C   |
| Data Size    | 16 bytes |
| Instructions | 2        |

```
      00 01 02 03 04 05 06 07  08 09 0A 0B 0C 0D 0E 0F
      -- -- -- -- -- -- -- --  -- -- -- -- -- -- -- --
0A30:                                      5B 63 80 12              [c..
0A40: 50 0F 01 12 50 0F 01 6F  70 61 30 00              P...P..opa0.    
```

#### Opcodes

```
  0: 0x0A3C [0x5B] LOAD_EXT_SCHEDULER: Load scheduler "opa0" with entities [Tovrutaux (ID: 17780754/0x010F5012), Tovrutaux (ID: 17780754/0x010F5012)], work=2627*
  1: 0x0A4B [0x00] END_REQSTACK()
```

### Event 65535.33

#### Metadata

| Field        | Value    |
|--------------|----------|
| Entrypoint   | 0x0A4C   |
| Data Size    | 16 bytes |
| Instructions | 2        |

```
      00 01 02 03 04 05 06 07  08 09 0A 0B 0C 0D 0E 0F
      -- -- -- -- -- -- -- --  -- -- -- -- -- -- -- --
0A40:                                      5B 63 80 12              [c..
0A50: 50 0F 01 12 50 0F 01 6F  70 61 31 00              P...P..opa1.    
```

#### Opcodes

```
  0: 0x0A4C [0x5B] LOAD_EXT_SCHEDULER: Load scheduler "opa1" with entities [Tovrutaux (ID: 17780754/0x010F5012), Tovrutaux (ID: 17780754/0x010F5012)], work=2627*
  1: 0x0A5B [0x00] END_REQSTACK()
```

### Event 65535.34

#### Metadata

| Field        | Value    |
|--------------|----------|
| Entrypoint   | 0x0A5C   |
| Data Size    | 16 bytes |
| Instructions | 2        |

```
      00 01 02 03 04 05 06 07  08 09 0A 0B 0C 0D 0E 0F
      -- -- -- -- -- -- -- --  -- -- -- -- -- -- -- --
0A50:                                      5B 63 80 12              [c..
0A60: 50 0F 01 12 50 0F 01 6F  70 61 32 00              P...P..opa2.    
```

#### Opcodes

```
  0: 0x0A5C [0x5B] LOAD_EXT_SCHEDULER: Load scheduler "opa2" with entities [Tovrutaux (ID: 17780754/0x010F5012), Tovrutaux (ID: 17780754/0x010F5012)], work=2627*
  1: 0x0A6B [0x00] END_REQSTACK()
```

### Event 65535.35

#### Metadata

| Field        | Value    |
|--------------|----------|
| Entrypoint   | 0x0A6C   |
| Data Size    | 16 bytes |
| Instructions | 2        |

```
      00 01 02 03 04 05 06 07  08 09 0A 0B 0C 0D 0E 0F
      -- -- -- -- -- -- -- --  -- -- -- -- -- -- -- --
0A60:                                      5B 64 80 12              [d..
0A70: 50 0F 01 12 50 0F 01 74  68 6B 31 00              P...P..thk1.    
```

#### Opcodes

```
  0: 0x0A6C [0x5B] LOAD_EXT_SCHEDULER: Load scheduler "thk1" with entities [Tovrutaux (ID: 17780754/0x010F5012), Tovrutaux (ID: 17780754/0x010F5012)], work=75*
  1: 0x0A7B [0x00] END_REQSTACK()
```

### Event 65535.36

#### Metadata

| Field        | Value    |
|--------------|----------|
| Entrypoint   | 0x0A7C   |
| Data Size    | 16 bytes |
| Instructions | 2        |

```
      00 01 02 03 04 05 06 07  08 09 0A 0B 0C 0D 0E 0F
      -- -- -- -- -- -- -- --  -- -- -- -- -- -- -- --
0A70:                                      5B 64 80 12              [d..
0A80: 50 0F 01 12 50 0F 01 74  68 6B 32 00              P...P..thk2.    
```

#### Opcodes

```
  0: 0x0A7C [0x5B] LOAD_EXT_SCHEDULER: Load scheduler "thk2" with entities [Tovrutaux (ID: 17780754/0x010F5012), Tovrutaux (ID: 17780754/0x010F5012)], work=75*
  1: 0x0A8B [0x00] END_REQSTACK()
```

### Event 65535.37

#### Metadata

| Field        | Value    |
|--------------|----------|
| Entrypoint   | 0x0A8C   |
| Data Size    | 16 bytes |
| Instructions | 2        |

```
      00 01 02 03 04 05 06 07  08 09 0A 0B 0C 0D 0E 0F
      -- -- -- -- -- -- -- --  -- -- -- -- -- -- -- --
0A80:                                      5B 64 80 12              [d..
0A90: 50 0F 01 12 50 0F 01 74  6C 6B 30 00              P...P..tlk0.    
```

#### Opcodes

```
  0: 0x0A8C [0x5B] LOAD_EXT_SCHEDULER: Load scheduler "tlk0" with entities [Tovrutaux (ID: 17780754/0x010F5012), Tovrutaux (ID: 17780754/0x010F5012)], work=75*
  1: 0x0A9B [0x00] END_REQSTACK()
```

### Event 65535.38

#### Metadata

| Field        | Value    |
|--------------|----------|
| Entrypoint   | 0x0A9C   |
| Data Size    | 16 bytes |
| Instructions | 2        |

```
      00 01 02 03 04 05 06 07  08 09 0A 0B 0C 0D 0E 0F
      -- -- -- -- -- -- -- --  -- -- -- -- -- -- -- --
0A90:                                      5B 64 80 12              [d..
0AA0: 50 0F 01 12 50 0F 01 74  6C 6B 31 00              P...P..tlk1.    
```

#### Opcodes

```
  0: 0x0A9C [0x5B] LOAD_EXT_SCHEDULER: Load scheduler "tlk1" with entities [Tovrutaux (ID: 17780754/0x010F5012), Tovrutaux (ID: 17780754/0x010F5012)], work=75*
  1: 0x0AAB [0x00] END_REQSTACK()
```

### Event 65535.39

#### Metadata

| Field        | Value    |
|--------------|----------|
| Entrypoint   | 0x0AAC   |
| Data Size    | 12 bytes |
| Instructions | 4        |

```
      00 01 02 03 04 05 06 07  08 09 0A 0B 0C 0D 0E 0F
      -- -- -- -- -- -- -- --  -- -- -- -- -- -- -- --
0AA0:                                      1F 00 65 80              ..e.
0AB0: 66 80 0E 80 1F 01 6F 00                           f.....o.        
```

#### Opcodes

```
  0: 0x0AAC [0x1F] MOVE_ENTITY: EventEntity moves to X=-19.954*, Z=-20.950*, Y=0.000*
  1: 0x0AB4 [0x1F] MOVE_ENTITY: Update entity position (mode=1)
  2: 0x0AB6 [0x6F] WAIT_FRAME_DELAY: Yield until WaitTime reaches zero
  3: 0x0AB7 [0x00] END_REQSTACK()
```

### Event 65535.40

#### Metadata

| Field        | Value    |
|--------------|----------|
| Entrypoint   | 0x0AB8   |
| Data Size    | 20 bytes |
| Instructions | 5        |

```
      00 01 02 03 04 05 06 07  08 09 0A 0B 0C 0D 0E 0F
      -- -- -- -- -- -- -- --  -- -- -- -- -- -- -- --
0AB0:                          59 04 13 50 0F 01 48 80          Y..P..H.
0AC0: 1F 00 67 80 68 80 53 80  1F 01 6F 00              ..g.h.S...o.    
```

#### Opcodes

```
  0: 0x0AB8 [0x59] UPDATE_ENTITY_DATA: Set Seyaya (ID: 17780755/0x010F5013) main speed = 11* * 0.1
  1: 0x0AC0 [0x1F] MOVE_ENTITY: EventEntity moves to X=-74.699*, Z=-107.115*, Y=5.999*
  2: 0x0AC8 [0x1F] MOVE_ENTITY: Update entity position (mode=1)
  3: 0x0ACA [0x6F] WAIT_FRAME_DELAY: Yield until WaitTime reaches zero
  4: 0x0ACB [0x00] END_REQSTACK()
```

### Event 65535.41

#### Metadata

| Field        | Value    |
|--------------|----------|
| Entrypoint   | 0x0ACC   |
| Data Size    | 17 bytes |
| Instructions | 2        |

```
      00 01 02 03 04 05 06 07  08 09 0A 0B 0C 0D 0E 0F
      -- -- -- -- -- -- -- --  -- -- -- -- -- -- -- --
0AC0:                                      5B 69 80 13              [i..
0AD0: 50 0F 01 13 50 0F 01 6F  70 61 30 00 00           P...P..opa0..   
```

#### Opcodes

```
  0: 0x0ACC [0x5B] LOAD_EXT_SCHEDULER: Load scheduler "opa0" with entities [Seyaya (ID: 17780755/0x010F5013), Seyaya (ID: 17780755/0x010F5013)], work=2631*
  1: 0x0ADB [0x00] END_REQSTACK()
```

#### Data or dead code:

```
# Dead code (unreachable instructions):
     0x0ADC [0x00] END_REQSTACK()
```

### Event 65535.42

#### Metadata

| Field        | Value    |
|--------------|----------|
| Entrypoint   | 0x0ADD   |
| Data Size    | 17 bytes |
| Instructions | 2        |

```
      00 01 02 03 04 05 06 07  08 09 0A 0B 0C 0D 0E 0F
      -- -- -- -- -- -- -- --  -- -- -- -- -- -- -- --
0AD0:                                         5B 69 80               [i.
0AE0: 13 50 0F 01 13 50 0F 01  6F 70 61 31 00 00        .P...P..opa1..  
```

#### Opcodes

```
  0: 0x0ADD [0x5B] LOAD_EXT_SCHEDULER: Load scheduler "opa1" with entities [Seyaya (ID: 17780755/0x010F5013), Seyaya (ID: 17780755/0x010F5013)], work=2631*
  1: 0x0AEC [0x00] END_REQSTACK()
```

#### Data or dead code:

```
# Dead code (unreachable instructions):
     0x0AED [0x00] END_REQSTACK()
```

### Event 65535.43

#### Metadata

| Field        | Value    |
|--------------|----------|
| Entrypoint   | 0x0AEE   |
| Data Size    | 16 bytes |
| Instructions | 2        |

```
      00 01 02 03 04 05 06 07  08 09 0A 0B 0C 0D 0E 0F
      -- -- -- -- -- -- -- --  -- -- -- -- -- -- -- --
0AE0:                                            5B 69                [i
0AF0: 80 13 50 0F 01 13 50 0F  01 6F 70 61 32 00        ..P...P..opa2.  
```

#### Opcodes

```
  0: 0x0AEE [0x5B] LOAD_EXT_SCHEDULER: Load scheduler "opa2" with entities [Seyaya (ID: 17780755/0x010F5013), Seyaya (ID: 17780755/0x010F5013)], work=2631*
  1: 0x0AFD [0x00] END_REQSTACK()
```

### Event 65535.44

#### Metadata

| Field        | Value    |
|--------------|----------|
| Entrypoint   | 0x0AFE   |
| Data Size    | 16 bytes |
| Instructions | 2        |

```
      00 01 02 03 04 05 06 07  08 09 0A 0B 0C 0D 0E 0F
      -- -- -- -- -- -- -- --  -- -- -- -- -- -- -- --
0AF0:                                            5B 6A                [j
0B00: 80 13 50 0F 01 13 50 0F  01 74 68 6B 31 00        ..P...P..thk1.  
```

#### Opcodes

```
  0: 0x0AFE [0x5B] LOAD_EXT_SCHEDULER: Load scheduler "thk1" with entities [Seyaya (ID: 17780755/0x010F5013), Seyaya (ID: 17780755/0x010F5013)], work=85*
  1: 0x0B0D [0x00] END_REQSTACK()
```

### Event 65535.45

#### Metadata

| Field        | Value    |
|--------------|----------|
| Entrypoint   | 0x0B0E   |
| Data Size    | 16 bytes |
| Instructions | 2        |

```
      00 01 02 03 04 05 06 07  08 09 0A 0B 0C 0D 0E 0F
      -- -- -- -- -- -- -- --  -- -- -- -- -- -- -- --
0B00:                                            5B 6A                [j
0B10: 80 13 50 0F 01 13 50 0F  01 74 68 6B 32 00        ..P...P..thk2.  
```

#### Opcodes

```
  0: 0x0B0E [0x5B] LOAD_EXT_SCHEDULER: Load scheduler "thk2" with entities [Seyaya (ID: 17780755/0x010F5013), Seyaya (ID: 17780755/0x010F5013)], work=85*
  1: 0x0B1D [0x00] END_REQSTACK()
```

### Event 65535.46

#### Metadata

| Field        | Value    |
|--------------|----------|
| Entrypoint   | 0x0B1E   |
| Data Size    | 16 bytes |
