# 17780811

## Common Data

| Field            | Value                 |
|------------------|-----------------------|
| Zone             | Lower Jeuno (ID: 245) |
| Block Size       | 10348 bytes           |
| Total Events     | 7                     |
| References Count | 156                   |

## List of Events

| Event ID              | Entrypoint   |   Size |   Instructions |
|-----------------------|--------------|--------|----------------|
| [65535](#event-65535) | 0x0000       |      1 |              1 |
| [10035](#event-10035) | 0x0001       |   1248 |            168 |
| [10036](#event-10036) | 0x04E1       |   1804 |            234 |
| [10039](#event-10039) | 0x0BED       |    645 |             88 |
| [10040](#event-10040) | 0x0E72       |   2196 |            287 |
| [10042](#event-10042) | 0x1706       |    990 |            136 |
| [20070](#event-20070) | 0x1AE4       |   2793 |            377 |

## DAT References (imed_data)

|   Index | Hex Value   |   Dec Value |
|---------|-------------|-------------|
|       0 | 0x0000      |           0 |
|       1 | 0x0078      |         120 |
|       2 | 0x00C8      |         200 |
|       3 | 0x0003      |           3 |
|       4 | 0x00A3      |         163 |
|       5 | 0x007E      |         126 |
|       6 | 0x21FD      |        8701 |
|       7 | 0x21FE      |        8702 |
|       8 | 0x21FF      |        8703 |
|       9 | 0x2200      |        8704 |
|      10 | 0x0005      |           5 |
|      11 | 0x0006      |           6 |
|      12 | 0x2201      |        8705 |
|      13 | 0x2202      |        8706 |
|      14 | 0x2203      |        8707 |
|      15 | 0x003C      |          60 |
|      16 | 0x2204      |        8708 |
|      17 | 0x2205      |        8709 |
|      18 | 0x2206      |        8710 |
|      19 | 0x2207      |        8711 |
|      20 | 0x2208      |        8712 |
|      21 | 0x2209      |        8713 |
|      22 | 0x220A      |        8714 |
|      23 | 0x220B      |        8715 |
|      24 | 0x220C      |        8716 |
|      25 | 0x220D      |        8717 |
|      26 | 0x0001      |           1 |
|      27 | 0x220F      |        8719 |
|      28 | 0x2210      |        8720 |
|      29 | 0x0002      |           2 |
|      30 | 0x220E      |        8718 |
|      31 | 0x006E      |         110 |
|      32 | 0x2213      |        8723 |
|      33 | 0x2214      |        8724 |
|      34 | 0x2215      |        8725 |
|      35 | 0x2216      |        8726 |
|      36 | 0x2217      |        8727 |
|      37 | 0x2218      |        8728 |
|      38 | 0x2219      |        8729 |
|      39 | 0x221A      |        8730 |
|      40 | 0x221B      |        8731 |
|      41 | 0x221C      |        8732 |
|      42 | 0x001E      |          30 |
|      43 | 0x221D      |        8733 |
|      44 | 0x005A      |          90 |
|      45 | 0x221E      |        8734 |
|      46 | 0x221F      |        8735 |
|      47 | 0x0008      |           8 |
|      48 | 0x2220      |        8736 |
|      49 | 0x2221      |        8737 |
|      50 | 0x2222      |        8738 |
|      51 | 0x2223      |        8739 |
|      52 | 0x2224      |        8740 |
|      53 | 0x2225      |        8741 |
|      54 | 0x00C9      |         201 |
|      55 | 0x0013      |          19 |
|      56 | 0x01CB      |         459 |
|      57 | 0x2228      |        8744 |
|      58 | 0x2229      |        8745 |
|      59 | 0x222A      |        8746 |
|      60 | 0x222B      |        8747 |
|      61 | 0x222C      |        8748 |
|      62 | 0x222D      |        8749 |
|      63 | 0x222E      |        8750 |
|      64 | 0x0064      |         100 |
|      65 | 0x0019      |          25 |
|      66 | 0x2296      |        8854 |
|      67 | 0x2297      |        8855 |
|      68 | 0x2298      |        8856 |
|      69 | 0x007F      |         127 |
|      70 | 0x2299      |        8857 |
|      71 | 0x229A      |        8858 |
|      72 | 0x229B      |        8859 |
|      73 | 0x229C      |        8860 |
|      74 | 0x229D      |        8861 |
|      75 | 0x229E      |        8862 |
|      76 | 0x229F      |        8863 |
|      77 | 0x22A0      |        8864 |
|      78 | 0x22A1      |        8865 |
|      79 | 0x22A2      |        8866 |
|      80 | 0x22A3      |        8867 |
|      81 | 0x22A4      |        8868 |
|      82 | 0x22A5      |        8869 |
|      83 | 0x22A6      |        8870 |
|      84 | 0x22A7      |        8871 |
|      85 | 0x22A8      |        8872 |
|      86 | 0x22A9      |        8873 |
|      87 | 0x22AA      |        8874 |
|      88 | 0x22AB      |        8875 |
|      89 | 0x22AC      |        8876 |
|      90 | 0x22AD      |        8877 |
|      91 | 0x22B2      |        8882 |
|      92 | 0x22B3      |        8883 |
|      93 | 0x22AE      |        8878 |
|      94 | 0x22AF      |        8879 |
|      95 | 0x22B0      |        8880 |
|      96 | 0x22B1      |        8881 |
|      97 | 0x22B8      |        8888 |
|      98 | 0x007C      |         124 |
|      99 | 0x22B9      |        8889 |
|     100 | 0x22BA      |        8890 |
|     101 | 0x22BB      |        8891 |
|     102 | 0x22BC      |        8892 |
|     103 | 0x22BD      |        8893 |
|     104 | 0x22BE      |        8894 |
|     105 | 0x22BF      |        8895 |
|     106 | 0x22C0      |        8896 |
|     107 | 0x22C1      |        8897 |
|     108 | 0x22C2      |        8898 |
|     109 | 0x22C3      |        8899 |
|     110 | 0x22C4      |        8900 |
|     111 | 0x22C5      |        8901 |
|     112 | 0x22C6      |        8902 |
|     113 | 0x22C7      |        8903 |
|     114 | 0x22C8      |        8904 |
|     115 | 0x22C9      |        8905 |
|     116 | 0x22CA      |        8906 |
|     117 | 0x22CB      |        8907 |
|     118 | 0x22CC      |        8908 |
|     119 | 0x01CC      |         460 |
|     120 | 0x0069      |         105 |
|     121 | 0x2AD3      |       10963 |
|     122 | 0x2AD4      |       10964 |
|     123 | 0x0014      |          20 |
|     124 | 0x0028      |          40 |
|     125 | 0x2AD5      |       10965 |
|     126 | 0x2AD6      |       10966 |
|     127 | 0x0004      |           4 |
|     128 | 0x2AD7      |       10967 |
|     129 | 0x2AD8      |       10968 |
|     130 | 0x2AD9      |       10969 |
|     131 | 0x0080      |         128 |
|     132 | 0x2ADA      |       10970 |
|     133 | 0x2ADB      |       10971 |
|     134 | 0x2ADC      |       10972 |
|     135 | 0x2ADD      |       10973 |
|     136 | 0x2ADE      |       10974 |
|     137 | 0x2ADF      |       10975 |
|     138 | 0x2AE0      |       10976 |
|     139 | 0x2AE1      |       10977 |
|     140 | 0x2AE2      |       10978 |
|     141 | 0x2AE3      |       10979 |
|     142 | 0x2AE4      |       10980 |
|     143 | 0x2AE5      |       10981 |
|     144 | 0x0015      |          21 |
|     145 | 0x2AE6      |       10982 |
|     146 | 0x0190      |         400 |
|     147 | 0x2AE7      |       10983 |
|     148 | 0x2AE8      |       10984 |
|     149 | 0x2AE9      |       10985 |
|     150 | 0x2AEA      |       10986 |
|     151 | 0x2AEB      |       10987 |
|     152 | 0x2AEC      |       10988 |
|     153 | 0x2AED      |       10989 |
|     154 | 0x2AEE      |       10990 |
|     155 | 0x2AEF      |       10991 |

## String References

- **8717**: Any clue about $1? [I have a pretty good idea./Never heard of them.]
- **8877**: Do you think he was duped? [Absolutely./Of course not.]

## Events

### Event 65535

#### Metadata

| Field        | Value   |
|--------------|---------|
| Entrypoint   | 0x0000  |
| Data Size    | 1 bytes |
| Instructions | 1       |

```
      00 01 02 03 04 05 06 07  08 09 0A 0B 0C 0D 0E 0F
      -- -- -- -- -- -- -- --  -- -- -- -- -- -- -- --
0000: 00                                                .               
```

#### Opcodes

```
  0: 0x0000 [0x00] END_REQSTACK()
```

### Event 10035

#### Metadata

| Field        | Value      |
|--------------|------------|
| Entrypoint   | 0x0001     |
| Data Size    | 1248 bytes |
| Instructions | 168        |

```
      00 01 02 03 04 05 06 07  08 09 0A 0B 0C 0D 0E 0F
      -- -- -- -- -- -- -- --  -- -- -- -- -- -- -- --
0000:    20 01 42 46 01 5D 00  80 01 80 45 02 80 F8 FF    .BF.]....E....
0010: FF 7F F8 FF FF 7F 66 64  6F 31 00 80 1C 01 80 38  ......fdo1.....8
0020: 03 80 29 08 F0 FF FF 7F  33 29 0B F0 FF FF 7F 36  ..).....3).....6
0030: 29 0B 2F 50 0F 01 2B 4A  F0 FF FF 7F 2F 50 0F 01  )./P..+J..../P..
0040: 4A 2F 50 0F 01 F0 FF FF  7F 6F 76 F0 FF FF 7F 6F  J/P......ov....o
0050: 76 2F 50 0F 01 4E 00 2F  50 0F 01 80 2F 50 0F 01  v/P..N./P.../P..
0060: 92 01 2F 50 0F 01 92 01  7D 50 0F 01 92 01 7E 50  ../P....}P....~P
0070: 0F 01 92 01 7F 50 0F 01  5C 00 04 80 5C 01 04 80  .....P..\...\...
0080: 45 05 80 F8 FF FF 7F F8  FF FF 7F 73 30 38 30 00  E..........s080.
0090: 80 45 02 80 F8 FF FF 7F  F8 FF FF 7F 66 64 69 31  .E..........fdi1
00A0: 00 80 29 08 2F 50 0F 01  17 2B 2F 50 0F 01 06 80  ..)./P...+/P....
00B0: 23 2B 2F 50 0F 01 07 80  23 29 08 2F 50 0F 01 18  #+/P....#)./P...
00C0: 52 05 80 F8 FF FF 7F F8  FF FF 7F 73 30 38 30 45  R..........s080E
00D0: 05 80 F8 FF FF 7F F8 FF  FF 7F 73 30 38 31 00 80  ..........s081..
00E0: 29 08 2F 50 0F 01 19 2B  2F 50 0F 01 08 80 23 29  )./P...+/P....#)
00F0: 08 2F 50 0F 01 1A 29 08  2F 50 0F 01 04 2B 2F 50  ./P...)./P...+/P
0100: 0F 01 09 80 23 29 08 2F  50 0F 01 05 52 05 80 F8  ....#)./P...R...
0110: FF FF 7F F8 FF FF 7F 73  30 38 31 02 09 10 0A 80  .......s081.....
0120: 00 37 01 45 05 80 F8 FF  FF 7F F8 FF FF 7F 73 30  .7.E..........s0
0130: 38 38 00 80 01 64 01 02  09 10 0B 80 00 53 01 45  88...d.......S.E
0140: 05 80 F8 FF FF 7F F8 FF  FF 7F 73 30 38 38 00 80  ..........s088..
0150: 01 64 01 45 05 80 F8 FF  FF 7F F8 FF FF 7F 73 30  .d.E..........s0
0160: 38 32 00 80 7B 2F 50 0F  01 29 08 2F 50 0F 01 13  82..{/P..)./P...
0170: 2B 2F 50 0F 01 0C 80 23  2B 2F 50 0F 01 0D 80 23  +/P....#+/P....#
0180: 29 08 2F 50 0F 01 14 29  08 2F 50 0F 01 15 2B 2F  )./P...)./P...+/
0190: 50 0F 01 0E 80 23 29 08  2F 50 0F 01 16 45 02 80  P....#)./P...E..
01A0: F8 FF FF 7F F8 FF FF 7F  66 64 6F 31 00 80 1C 0F  ........fdo1....
01B0: 80 79 00 2F 50 0F 01 F0  FF FF 7F 02 09 10 0A 80  .y./P...........
01C0: 00 D5 01 52 05 80 F8 FF  FF 7F F8 FF FF 7F 73 30  ...R..........s0
01D0: 38 38 01 FE 01 02 09 10  0B 80 00 EF 01 52 05 80  88...........R..
01E0: F8 FF FF 7F F8 FF FF 7F  73 30 38 38 01 FE 01 52  ........s088...R
01F0: 05 80 F8 FF FF 7F F8 FF  FF 7F 73 30 38 32 45 05  ..........s082E.
0200: 80 F8 FF FF 7F F8 FF FF  7F 73 30 38 33 00 80 45  .........s083..E
0210: 02 80 F8 FF FF 7F F8 FF  FF 7F 66 64 69 31 00 80  ..........fdi1..
0220: 2B 2F 50 0F 01 10 80 23  2B 2F 50 0F 01 11 80 23  +/P....#+/P....#
0230: 2B 2F 50 0F 01 12 80 23  45 02 80 F8 FF FF 7F F8  +/P....#E.......
0240: FF FF 7F 66 64 6F 31 00  80 1C 02 80 52 05 80 F8  ...fdo1.....R...
0250: FF FF 7F F8 FF FF 7F 73  30 38 33 45 05 80 F8 FF  .......s083E....
0260: FF 7F F8 FF FF 7F 73 30  38 34 00 80 45 02 80 F8  ......s084..E...
0270: FF FF 7F F8 FF FF 7F 66  64 69 31 00 80 29 08 2F  .......fdi1..)./
0280: 50 0F 01 04 2B 2F 50 0F  01 13 80 23 29 08 2F 50  P...+/P....#)./P
0290: 0F 01 05 29 08 2F 50 0F  01 17 2B 2F 50 0F 01 14  ...)./P...+/P...
02A0: 80 23 29 08 2F 50 0F 01  18 52 05 80 F8 FF FF 7F  .#)./P...R......
02B0: F8 FF FF 7F 73 30 38 34  45 05 80 F8 FF FF 7F F8  ....s084E.......
02C0: FF FF 7F 73 30 38 35 00  80 29 08 2F 50 0F 01 19  ...s085..)./P...
02D0: 2B 2F 50 0F 01 15 80 23  29 08 2F 50 0F 01 1A 27  +/P....#)./P...'
02E0: 0B 2F 50 0F 01 2C 2B 2F  50 0F 01 16 80 23 2A 0B  ./P..,+/P....#*.
02F0: 2F 50 0F 01 52 05 80 F8  FF FF 7F F8 FF FF 7F 73  /P..R..........s
0300: 30 38 35 45 05 80 F8 FF  FF 7F F8 FF FF 7F 73 30  085E..........s0
0310: 38 36 00 80 4A 2F 50 0F  01 F0 FF FF 7F 6F 76 2F  86..J/P......ov/
0320: 50 0F 01 29 08 2F 50 0F  01 17 2B 2F 50 0F 01 17  P..)./P...+/P...
0330: 80 23 2B 2F 50 0F 01 18  80 23 29 08 2F 50 0F 01  .#+/P....#)./P..
0340: 18 24 19 80 1A 80 00 80  25 02 00 10 00 80 00 DD  .$......%.......
0350: 03 03 01 10 1A 80 52 05  80 F8 FF FF 7F F8 FF FF  ......R.........
0360: 7F 73 30 38 36 02 09 10  0A 80 00 81 03 45 05 80  .s086........E..
0370: F8 FF FF 7F F8 FF FF 7F  73 30 38 39 00 80 01 AE  ........s089....
0380: 03 02 09 10 0B 80 00 9D  03 45 05 80 F8 FF FF 7F  .........E......
0390: F8 FF FF 7F 73 30 38 39  00 80 01 AE 03 45 05 80  ....s089.....E..
03A0: F8 FF FF 7F F8 FF FF 7F  73 30 38 37 00 80 29 08  ........s087..).
03B0: 2F 50 0F 01 19 2B 2F 50  0F 01 1B 80 23 29 08 2F  /P...+/P....#)./
03C0: 50 0F 01 1A 29 08 2F 50  0F 01 02 2B 2F 50 0F 01  P...)./P...+/P..
03D0: 1C 80 23 29 08 2F 50 0F  01 03 01 5B 04 02 00 10  ..#)./P....[....
03E0: 1A 80 00 5B 04 03 01 10  1D 80 52 05 80 F8 FF FF  ...[......R.....
03F0: 7F F8 FF FF 7F 73 30 38  36 02 09 10 0A 80 00 15  .....s086.......
0400: 04 45 05 80 F8 FF FF 7F  F8 FF FF 7F 73 30 38 39  .E..........s089
0410: 00 80 01 42 04 02 09 10  0B 80 00 31 04 45 05 80  ...B.......1.E..
0420: F8 FF FF 7F F8 FF FF 7F  73 30 38 39 00 80 01 42  ........s089...B
0430: 04 45 05 80 F8 FF FF 7F  F8 FF FF 7F 73 30 38 37  .E..........s087
0440: 00 80 29 08 2F 50 0F 01  19 2B 2F 50 0F 01 1E 80  ..)./P...+/P....
0450: 23 29 08 2F 50 0F 01 1A  01 5B 04 5D 00 80 01 80  #)./P....[.]....
0460: 45 02 80 F0 FF FF 7F F0  FF FF 7F 66 64 6F 31 00  E..........fdo1.
0470: 80 1C 01 80 02 09 10 0A  80 00 8E 04 52 05 80 F8  ............R...
0480: FF FF 7F F8 FF FF 7F 73  30 38 39 01 B7 04 02 09  .......s089.....
0490: 10 0B 80 00 A8 04 52 05  80 F8 FF FF 7F F8 FF FF  ......R.........
04A0: 7F 73 30 38 39 01 B7 04  52 05 80 F8 FF FF 7F F8  .s089...R.......
04B0: FF FF 7F 73 30 38 37 5C  00 1F 80 5C 01 1F 80 4E  ...s087\...\...N
04C0: 00 F0 FF FF 7F 80 F0 FF  FF 7F 46 00 45 02 80 F0  ..........F.E...
04D0: FF FF 7F F0 FF FF 7F 66  64 69 31 00 80 20 00 21  .......fdi1.. .!
04E0: 00                                                .               
```

#### Opcodes

```
  0: 0x0001 [0x20] SET_CLI_EVENT_UC_FLAG: Lock player control
  1: 0x0003 [0x42] SET_CLI_EVENT_CANCEL_DATA()
  2: 0x0004 [0x46] CAMERA_CONTROL: Disable user control
  3: 0x0006 [0x5D] SET_MUSIC_VOLUME(volume=0*, fade_time=120*)
  4: 0x000B [0x45] LOAD_SCHEDULED_TASK: Load scheduler "fdo1" with entities [EventEntity, EventEntity], work=[200*, 0*]
  5: 0x001C [0x1C] WAIT(120* ticks)
  6: 0x001F [0x38] SET_CLIENT_EVENT_MODE(mode=3*)
  7: 0x0022 [0x29] REQ_SET_WAIT(priority=0x08, entity_id=LocalPlayer, tag_num=0x33)
  8: 0x0029 [0x29] REQ_SET_WAIT(priority=0x0B, entity_id=LocalPlayer, tag_num=0x36)
  9: 0x0030 [0x29] REQ_SET_WAIT(priority=0x0B, entity_id=Odasel (ID: 17780783/0x010F502F), tag_num=0x2B)
 10: 0x0037 [0x4A] LocalPlayer looks at Odasel (ID: 17780783/0x010F502F)
 11: 0x0040 [0x4A] Odasel (ID: 17780783/0x010F502F) looks at LocalPlayer
 12: 0x0049 [0x6F] WAIT_FRAME_DELAY: Yield until WaitTime reaches zero
 13: 0x004A [0x76] CHECK_ENTITY_RENDER_FLAGS: Wait until LocalPlayer Render.Flags0 and Render.Flags3 conditions are met
 14: 0x004F [0x6F] WAIT_FRAME_DELAY: Yield until WaitTime reaches zero
 15: 0x0050 [0x76] CHECK_ENTITY_RENDER_FLAGS: Wait until Odasel (ID: 17780783/0x010F502F) Render.Flags0 and Render.Flags3 conditions are met
 16: 0x0055 [0x4E] SET_ENTITY_HIDE_FLAG: Show Odasel (ID: 17780783/0x010F502F)
 17: 0x005B [0x80] LOAD_WAIT(entity=Odasel (ID: 17780783/0x010F502F))
 18: 0x0060 [0x92] Odasel (ID: 17780783/0x010F502F)->Render.Flags3 ^= 0x01
 19: 0x0066 [0x92] Adelflete (ID: 17780861/0x010F507D)->Render.Flags3 ^= 0x01
 20: 0x006C [0x92] Morefie (ID: 17780862/0x010F507E)->Render.Flags3 ^= 0x01
 21: 0x0072 [0x92] Matoaka (ID: 17780863/0x010F507F)->Render.Flags3 ^= 0x01
 22: 0x0078 [0x5C] MUSIC_CONTROL: Set Idle (Day) music to song 163*
 23: 0x007C [0x5C] MUSIC_CONTROL: Set Idle (Night) music to song 163*
 24: 0x0080 [0x45] LOAD_SCHEDULED_TASK: Load scheduler "s080" with entities [EventEntity, EventEntity], work=[126*, 0*]
 25: 0x0091 [0x45] LOAD_SCHEDULED_TASK: Load scheduler "fdi1" with entities [EventEntity, EventEntity], work=[200*, 0*]
 26: 0x00A2 [0x29] REQ_SET_WAIT(priority=0x08, entity_id=Odasel (ID: 17780783/0x010F502F), tag_num=0x17)
 27: 0x00A9 [0x2B] Odasel (ID: 17780783/0x010F502F) [8701*]:
    → "Hey there, pal. I just met the weirdest Elvaan kid."
 28: 0x00B0 [0x23] WAIT_FOR_DIALOG_INTERACTION
 29: 0x00B1 [0x2B] Odasel (ID: 17780783/0x010F502F) [8702*]:
    → "She didn't have a single gil on her, but she spent hours in the gem store mooning over the same piece of jewelry."
 30: 0x00B8 [0x23] WAIT_FOR_DIALOG_INTERACTION
 31: 0x00B9 [0x29] REQ_SET_WAIT(priority=0x08, entity_id=Odasel (ID: 17780783/0x010F502F), tag_num=0x18)
 32: 0x00C0 [0x52] END_LOAD_SCHEDULER: End scheduler "s080" with entities [EventEntity, EventEntity], work=126*
 33: 0x00CF [0x45] LOAD_SCHEDULED_TASK: Load scheduler "s081" with entities [EventEntity, EventEntity], work=[126*, 0*]
 34: 0x00E0 [0x29] REQ_SET_WAIT(priority=0x08, entity_id=Odasel (ID: 17780783/0x010F502F), tag_num=0x19)
 35: 0x00E7 [0x2B] Odasel (ID: 17780783/0x010F502F) [8703*]:
    → "Eventually, the beauties working behind the counter got tired of her antics and threw her out."
 36: 0x00EE [0x23] WAIT_FOR_DIALOG_INTERACTION
 37: 0x00EF [0x29] REQ_SET_WAIT(priority=0x08, entity_id=Odasel (ID: 17780783/0x010F502F), tag_num=0x1A)
 38: 0x00F6 [0x29] REQ_SET_WAIT(priority=0x08, entity_id=Odasel (ID: 17780783/0x010F502F), tag_num=0x04)
 39: 0x00FD [0x2B] Odasel (ID: 17780783/0x010F502F) [8704*]:
    → "I'd been watching the whole thing and had the rotten luck of meeting the girl's eyes when she left the store."
 40: 0x0104 [0x23] WAIT_FOR_DIALOG_INTERACTION
 41: 0x0105 [0x29] REQ_SET_WAIT(priority=0x08, entity_id=Odasel (ID: 17780783/0x010F502F), tag_num=0x05)
 42: 0x010C [0x52] END_LOAD_SCHEDULER: End scheduler "s081" with entities [EventEntity, EventEntity], work=126*
 43: 0x011B [0x02] IF !(Work_Zone[9] == 5*) GOTO 0x0137
 44: 0x0123 [0x45] LOAD_SCHEDULED_TASK: Load scheduler "s088" with entities [EventEntity, EventEntity], work=[126*, 0*]
 45: 0x0134 [0x01] GOTO 0x0164
 46: 0x0137 [0x02] IF !(Work_Zone[9] == 6*) GOTO 0x0153
 47: 0x013F [0x45] LOAD_SCHEDULED_TASK: Load scheduler "s088" with entities [EventEntity, EventEntity], work=[126*, 0*]
 48: 0x0150 [0x01] GOTO 0x0164
 49: 0x0153 [0x45] LOAD_SCHEDULED_TASK: Load scheduler "s082" with entities [EventEntity, EventEntity], work=[126*, 0*]

SUBROUTINE_0164:
 50: 0x0164 [0x7B] Odasel (ID: 17780783/0x010F502F) stops talking
 51: 0x0169 [0x29] REQ_SET_WAIT(priority=0x08, entity_id=Odasel (ID: 17780783/0x010F502F), tag_num=0x13)
 52: 0x0170 [0x2B] Odasel (ID: 17780783/0x010F502F) [8705*]:
    → "She's been dogging me ever since."
 53: 0x0177 [0x23] WAIT_FOR_DIALOG_INTERACTION
 54: 0x0178 [0x2B] Odasel (ID: 17780783/0x010F502F) [8706*]:
    → "I don't know if it was female intuition or what, but somehow she figured out I have a thing for the three ladies in the gem store."
 55: 0x017F [0x23] WAIT_FOR_DIALOG_INTERACTION
 56: 0x0180 [0x29] REQ_SET_WAIT(priority=0x08, entity_id=Odasel (ID: 17780783/0x010F502F), tag_num=0x14)
 57: 0x0187 [0x29] REQ_SET_WAIT(priority=0x08, entity_id=Odasel (ID: 17780783/0x010F502F), tag_num=0x15)
 58: 0x018E [0x2B] Odasel (ID: 17780783/0x010F502F) [8707*]:
    → "... So, which one's my favorite out of the three?"
 59: 0x0195 [0x23] WAIT_FOR_DIALOG_INTERACTION
 60: 0x0196 [0x29] REQ_SET_WAIT(priority=0x08, entity_id=Odasel (ID: 17780783/0x010F502F), tag_num=0x16)
 61: 0x019D [0x45] LOAD_SCHEDULED_TASK: Load scheduler "fdo1" with entities [EventEntity, EventEntity], work=[200*, 0*]
 62: 0x01AE [0x1C] WAIT(60* ticks)
 63: 0x01B1 [0x79] Odasel (ID: 17780783/0x010F502F) looks at LocalPlayer (Basic look)
 64: 0x01BB [0x02] IF !(Work_Zone[9] == 5*) GOTO 0x01D5
 65: 0x01C3 [0x52] END_LOAD_SCHEDULER: End scheduler "s088" with entities [EventEntity, EventEntity], work=126*
 66: 0x01D2 [0x01] GOTO 0x01FE
 67: 0x01D5 [0x02] IF !(Work_Zone[9] == 6*) GOTO 0x01EF
 68: 0x01DD [0x52] END_LOAD_SCHEDULER: End scheduler "s088" with entities [EventEntity, EventEntity], work=126*
 69: 0x01EC [0x01] GOTO 0x01FE
 70: 0x01EF [0x52] END_LOAD_SCHEDULER: End scheduler "s082" with entities [EventEntity, EventEntity], work=126*

SUBROUTINE_01FE:
 71: 0x01FE [0x45] LOAD_SCHEDULED_TASK: Load scheduler "s083" with entities [EventEntity, EventEntity], work=[126*, 0*]
 72: 0x020F [0x45] LOAD_SCHEDULED_TASK: Load scheduler "fdi1" with entities [EventEntity, EventEntity], work=[200*, 0*]
 73: 0x0220 [0x2B] Odasel (ID: 17780783/0x010F502F) [8708*]:
    → "At first I thought the classical beauty on the left was my type."
 74: 0x0227 [0x23] WAIT_FOR_DIALOG_INTERACTION
 75: 0x0228 [0x2B] Odasel (ID: 17780783/0x010F502F) [8709*]:
    → "But then I got to thinking older women are the way to go, like the lady on the right."
 76: 0x022F [0x23] WAIT_FOR_DIALOG_INTERACTION
 77: 0x0230 [0x2B] Odasel (ID: 17780783/0x010F502F) [8710*]:
    → "And then, not long ago, the pure and innocent type in the middle actually said hello to me. Now I'm captivated by her charms."
 78: 0x0237 [0x23] WAIT_FOR_DIALOG_INTERACTION
 79: 0x0238 [0x45] LOAD_SCHEDULED_TASK: Load scheduler "fdo1" with entities [EventEntity, EventEntity], work=[200*, 0*]
 80: 0x0249 [0x1C] WAIT(200* ticks)
 81: 0x024C [0x52] END_LOAD_SCHEDULER: End scheduler "s083" with entities [EventEntity, EventEntity], work=126*
 82: 0x025B [0x45] LOAD_SCHEDULED_TASK: Load scheduler "s084" with entities [EventEntity, EventEntity], work=[126*, 0*]
 83: 0x026C [0x45] LOAD_SCHEDULED_TASK: Load scheduler "fdi1" with entities [EventEntity, EventEntity], work=[200*, 0*]
 84: 0x027D [0x29] REQ_SET_WAIT(priority=0x08, entity_id=Odasel (ID: 17780783/0x010F502F), tag_num=0x04)
 85: 0x0284 [0x2B] Odasel (ID: 17780783/0x010F502F) [8711*]:
    → "To be perfectly honest with you, any of those three ladies could make me a happy man."
 86: 0x028B [0x23] WAIT_FOR_DIALOG_INTERACTION
 87: 0x028C [0x29] REQ_SET_WAIT(priority=0x08, entity_id=Odasel (ID: 17780783/0x010F502F), tag_num=0x05)
 88: 0x0293 [0x29] REQ_SET_WAIT(priority=0x08, entity_id=Odasel (ID: 17780783/0x010F502F), tag_num=0x17)
 89: 0x029A [0x2B] Odasel (ID: 17780783/0x010F502F) [8712*]:
    → "My plan is to confess my feelings to the one who likes me the most--the one least likely to turn me down."
 90: 0x02A1 [0x23] WAIT_FOR_DIALOG_INTERACTION
 91: 0x02A2 [0x29] REQ_SET_WAIT(priority=0x08, entity_id=Odasel (ID: 17780783/0x010F502F), tag_num=0x18)
 92: 0x02A9 [0x52] END_LOAD_SCHEDULER: End scheduler "s084" with entities [EventEntity, EventEntity], work=126*
 93: 0x02B8 [0x45] LOAD_SCHEDULED_TASK: Load scheduler "s085" with entities [EventEntity, EventEntity], work=[126*, 0*]
 94: 0x02C9 [0x29] REQ_SET_WAIT(priority=0x08, entity_id=Odasel (ID: 17780783/0x010F502F), tag_num=0x19)
 95: 0x02D0 [0x2B] Odasel (ID: 17780783/0x010F502F) [8713*]:
    → "When I explained all this to the Elvaan girl, she almost split her sides in laughter. The little brat!"
 96: 0x02D7 [0x23] WAIT_FOR_DIALOG_INTERACTION
 97: 0x02D8 [0x29] REQ_SET_WAIT(priority=0x08, entity_id=Odasel (ID: 17780783/0x010F502F), tag_num=0x1A)
 98: 0x02DF [0x27] REQ_SET(priority=0x0B, entity_id=Odasel (ID: 17780783/0x010F502F), tag_num=0x2C)
 99: 0x02E6 [0x2B] Odasel (ID: 17780783/0x010F502F) [8714*]:
    → "She told me that if I talked to each of the ladies in turn while holding $1, I would know which of them had feelings for me."
100: 0x02ED [0x23] WAIT_FOR_DIALOG_INTERACTION
101: 0x02EE [0x2A] GET_REQ_LEVEL(level=11, entity_id=Odasel (ID: 17780783/0x010F502F))
102: 0x02F4 [0x52] END_LOAD_SCHEDULER: End scheduler "s085" with entities [EventEntity, EventEntity], work=126*
103: 0x0303 [0x45] LOAD_SCHEDULED_TASK: Load scheduler "s086" with entities [EventEntity, EventEntity], work=[126*, 0*]
104: 0x0314 [0x4A] Odasel (ID: 17780783/0x010F502F) looks at LocalPlayer
105: 0x031D [0x6F] WAIT_FRAME_DELAY: Yield until WaitTime reaches zero
106: 0x031E [0x76] CHECK_ENTITY_RENDER_FLAGS: Wait until Odasel (ID: 17780783/0x010F502F) Render.Flags0 and Render.Flags3 conditions are met
107: 0x0323 [0x29] REQ_SET_WAIT(priority=0x08, entity_id=Odasel (ID: 17780783/0x010F502F), tag_num=0x17)
108: 0x032A [0x2B] Odasel (ID: 17780783/0x010F502F) [8715*]:
    → "But I've never even heard of $1, let alone seen one."
109: 0x0331 [0x23] WAIT_FOR_DIALOG_INTERACTION
110: 0x0332 [0x2B] Odasel (ID: 17780783/0x010F502F) [8716*]:
    → "Even an adventurer like you wouldn't have a clue where to get a gem like that, would you?"
111: 0x0339 [0x23] WAIT_FOR_DIALOG_INTERACTION
112: 0x033A [0x29] REQ_SET_WAIT(priority=0x08, entity_id=Odasel (ID: 17780783/0x010F502F), tag_num=0x18)
113: 0x0341 [0x24] CREATE_DIALOG(message_id=8717*, default_option=1*, option_flags=0*)
    → "Any clue about $1? [I have a pretty good idea./Never heard of them.]"
114: 0x0348 [0x25] WAIT_DIALOG_SELECT()
115: 0x0349 [0x02] IF !(Work_Zone[0] == 0*) GOTO 0x03DD
116: 0x0351 [0x03] Work_Zone[1] = 1*
117: 0x0356 [0x52] END_LOAD_SCHEDULER: End scheduler "s086" with entities [EventEntity, EventEntity], work=126*
118: 0x0365 [0x02] IF !(Work_Zone[9] == 5*) GOTO 0x0381
119: 0x036D [0x45] LOAD_SCHEDULED_TASK: Load scheduler "s089" with entities [EventEntity, EventEntity], work=[126*, 0*]
120: 0x037E [0x01] GOTO 0x03AE
121: 0x0381 [0x02] IF !(Work_Zone[9] == 6*) GOTO 0x039D
122: 0x0389 [0x45] LOAD_SCHEDULED_TASK: Load scheduler "s089" with entities [EventEntity, EventEntity], work=[126*, 0*]
123: 0x039A [0x01] GOTO 0x03AE
124: 0x039D [0x45] LOAD_SCHEDULED_TASK: Load scheduler "s087" with entities [EventEntity, EventEntity], work=[126*, 0*]

SUBROUTINE_03AE:
125: 0x03AE [0x29] REQ_SET_WAIT(priority=0x08, entity_id=Odasel (ID: 17780783/0x010F502F), tag_num=0x19)
126: 0x03B5 [0x2B] Odasel (ID: 17780783/0x010F502F) [8719*]:
    → "You serious? Are you sure you're not just making fun of my feelings, like that Elvaan kid?"
127: 0x03BC [0x23] WAIT_FOR_DIALOG_INTERACTION
128: 0x03BD [0x29] REQ_SET_WAIT(priority=0x08, entity_id=Odasel (ID: 17780783/0x010F502F), tag_num=0x1A)
129: 0x03C4 [0x29] REQ_SET_WAIT(priority=0x08, entity_id=Odasel (ID: 17780783/0x010F502F), tag_num=0x02)
130: 0x03CB [0x2B] Odasel (ID: 17780783/0x010F502F) [8720*]:
    → "Grrr! Just thinking about the smirk on that brat's face..."
131: 0x03D2 [0x23] WAIT_FOR_DIALOG_INTERACTION
132: 0x03D3 [0x29] REQ_SET_WAIT(priority=0x08, entity_id=Odasel (ID: 17780783/0x010F502F), tag_num=0x03)
133: 0x03DA [0x01] GOTO 0x045B
134: 0x03DD [0x02] IF !(Work_Zone[0] == 1*) GOTO 0x045B
135: 0x03E5 [0x03] Work_Zone[1] = 2*
136: 0x03EA [0x52] END_LOAD_SCHEDULER: End scheduler "s086" with entities [EventEntity, EventEntity], work=126*
137: 0x03F9 [0x02] IF !(Work_Zone[9] == 5*) GOTO 0x0415
138: 0x0401 [0x45] LOAD_SCHEDULED_TASK: Load scheduler "s089" with entities [EventEntity, EventEntity], work=[126*, 0*]
139: 0x0412 [0x01] GOTO 0x0442
140: 0x0415 [0x02] IF !(Work_Zone[9] == 6*) GOTO 0x0431
141: 0x041D [0x45] LOAD_SCHEDULED_TASK: Load scheduler "s089" with entities [EventEntity, EventEntity], work=[126*, 0*]
142: 0x042E [0x01] GOTO 0x0442
143: 0x0431 [0x45] LOAD_SCHEDULED_TASK: Load scheduler "s087" with entities [EventEntity, EventEntity], work=[126*, 0*]

SUBROUTINE_0442:
144: 0x0442 [0x29] REQ_SET_WAIT(priority=0x08, entity_id=Odasel (ID: 17780783/0x010F502F), tag_num=0x19)
145: 0x0449 [0x2B] Odasel (ID: 17780783/0x010F502F) [8718*]:
    → "No clue, right? I think that kid's just stringing me along for a laugh."
146: 0x0450 [0x23] WAIT_FOR_DIALOG_INTERACTION
147: 0x0451 [0x29] REQ_SET_WAIT(priority=0x08, entity_id=Odasel (ID: 17780783/0x010F502F), tag_num=0x1A)
148: 0x0458 [0x01] GOTO 0x045B

SUBROUTINE_045B:
149: 0x045B [0x5D] SET_MUSIC_VOLUME(volume=0*, fade_time=120*)
150: 0x0460 [0x45] LOAD_SCHEDULED_TASK: Load scheduler "fdo1" with entities [LocalPlayer, LocalPlayer], work=[200*, 0*]
151: 0x0471 [0x1C] WAIT(120* ticks)
152: 0x0474 [0x02] IF !(Work_Zone[9] == 5*) GOTO 0x048E
153: 0x047C [0x52] END_LOAD_SCHEDULER: End scheduler "s089" with entities [EventEntity, EventEntity], work=126*
154: 0x048B [0x01] GOTO 0x04B7
155: 0x048E [0x02] IF !(Work_Zone[9] == 6*) GOTO 0x04A8
156: 0x0496 [0x52] END_LOAD_SCHEDULER: End scheduler "s089" with entities [EventEntity, EventEntity], work=126*
157: 0x04A5 [0x01] GOTO 0x04B7
158: 0x04A8 [0x52] END_LOAD_SCHEDULER: End scheduler "s087" with entities [EventEntity, EventEntity], work=126*

SUBROUTINE_04B7:
159: 0x04B7 [0x5C] MUSIC_CONTROL: Set Idle (Day) music to song 110*
160: 0x04BB [0x5C] MUSIC_CONTROL: Set Idle (Night) music to song 110*
161: 0x04BF [0x4E] SET_ENTITY_HIDE_FLAG: Show LocalPlayer
162: 0x04C5 [0x80] LOAD_WAIT(entity=LocalPlayer)
163: 0x04CA [0x46] CAMERA_CONTROL: Restore default settings
164: 0x04CC [0x45] LOAD_SCHEDULED_TASK: Load scheduler "fdi1" with entities [LocalPlayer, LocalPlayer], work=[200*, 0*]
165: 0x04DD [0x20] SET_CLI_EVENT_UC_FLAG: Unlock player control
166: 0x04DF [0x21] END_EVENT
167: 0x04E0 [0x00] END_REQSTACK()
```

### Event 10036

#### Metadata

| Field        | Value      |
|--------------|------------|
| Entrypoint   | 0x04E1     |
| Data Size    | 1804 bytes |
| Instructions | 234        |

```
      00 01 02 03 04 05 06 07  08 09 0A 0B 0C 0D 0E 0F
      -- -- -- -- -- -- -- --  -- -- -- -- -- -- -- --
04E0:    20 01 42 46 01 5D 00  80 01 80 45 02 80 F8 FF    .BF.]....E....
04F0: FF 7F F8 FF FF 7F 66 64  6F 31 00 80 1C 01 80 38  ......fdo1.....8
0500: 03 80 29 08 F0 FF FF 7F  33 29 0B F0 FF FF 7F 36  ..).....3).....6
0510: 29 0B 2F 50 0F 01 2B 4A  F0 FF FF 7F 2F 50 0F 01  )./P..+J..../P..
0520: 4A 2F 50 0F 01 F0 FF FF  7F 6F 76 F0 FF FF 7F 6F  J/P......ov....o
0530: 76 2F 50 0F 01 4E 00 2F  50 0F 01 80 2F 50 0F 01  v/P..N./P.../P..
0540: 92 01 2F 50 0F 01 92 01  7D 50 0F 01 92 01 7E 50  ../P....}P....~P
0550: 0F 01 92 01 7F 50 0F 01  94 01 F0 FF FF 7F 5C 00  .....P........\.
0560: 04 80 5C 01 04 80 45 05  80 F8 FF FF 7F F8 FF FF  ..\...E.........
0570: 7F 73 30 38 34 00 80 45  02 80 F8 FF FF 7F F8 FF  .s084..E........
0580: FF 7F 66 64 69 31 00 80  2B 2F 50 0F 01 20 80 23  ..fdi1..+/P.. .#
0590: 29 08 2F 50 0F 01 04 2B  2F 50 0F 01 21 80 23 29  )./P...+/P..!.#)
05A0: 08 2F 50 0F 01 05 52 05  80 F8 FF FF 7F F8 FF FF  ./P...R.........
05B0: 7F 73 30 38 34 02 09 10  0A 80 00 D1 05 45 05 80  .s084........E..
05C0: F8 FF FF 7F F8 FF FF 7F  73 30 38 39 00 80 01 FE  ........s089....
05D0: 05 02 09 10 0B 80 00 ED  05 45 05 80 F8 FF FF 7F  .........E......
05E0: F8 FF FF 7F 73 30 38 39  00 80 01 FE 05 45 05 80  ....s089.....E..
05F0: F8 FF FF 7F F8 FF FF 7F  73 30 38 37 00 80 27 0B  ........s087..'.
0600: 2F 50 0F 01 2C 2B 2F 50  0F 01 22 80 23 2A 0B 2F  /P..,+/P..".#*./
0610: 50 0F 01 29 08 2F 50 0F  01 02 2B 2F 50 0F 01 23  P..)./P...+/P..#
0620: 80 23 29 08 2F 50 0F 01  03 29 08 2F 50 0F 01 10  .#)./P...)./P...
0630: 29 08 2F 50 0F 01 11 27  0B 2F 50 0F 01 2F 45 02  )./P...'./P../E.
0640: 80 F8 FF FF 7F F8 FF FF  7F 66 64 6F 31 00 80 1C  .........fdo1...
0650: 0F 80 02 09 10 0A 80 00  6C 06 52 05 80 F8 FF FF  ........l.R.....
0660: 7F F8 FF FF 7F 73 30 38  39 01 95 06 02 09 10 0B  .....s089.......
0670: 80 00 86 06 52 05 80 F8  FF FF 7F F8 FF FF 7F 73  ....R..........s
0680: 30 38 39 01 95 06 52 05  80 F8 FF FF 7F F8 FF FF  089...R.........
0690: 7F 73 30 38 37 29 0B 58  50 0F 01 04 1C 01 80 2A  .s087).XP......*
06A0: 0B 2F 50 0F 01 29 0B 2F  50 0F 01 30 29 0B F0 FF  ./P..)./P..0)...
06B0: FF 7F 37 29 0B 58 50 0F  01 05 1C 0F 80 79 00 2F  ..7).XP......y./
06C0: 50 0F 01 7D 50 0F 01 79  00 7D 50 0F 01 2F 50 0F  P..}P..y.}P../P.
06D0: 01 27 0B 2F 50 0F 01 31  27 0B F0 FF FF 7F 38 1C  .'./P..1'.....8.
06E0: 0A 80 45 05 80 F8 FF FF  7F F8 FF FF 7F 73 30 39  ..E..........s09
06F0: 30 00 80 45 02 80 F8 FF  FF 7F F8 FF FF 7F 66 64  0..E..........fd
0700: 69 31 00 80 2A 0B 2F 50  0F 01 2B 2F 50 0F 01 24  i1..*./P..+/P..$
0710: 80 23 2A 0B F0 FF FF 7F  2B 7D 50 0F 01 25 80 23  .#*.....+}P..%.#
0720: 52 05 80 F8 FF FF 7F F8  FF FF 7F 73 30 39 30 45  R..........s090E
0730: 05 80 F8 FF FF 7F F8 FF  FF 7F 73 30 39 31 00 80  ..........s091..
0740: 29 08 2F 50 0F 01 13 2B  2F 50 0F 01 26 80 23 29  )./P...+/P..&.#)
0750: 08 2F 50 0F 01 14 29 08  7D 50 0F 01 15 2B 7D 50  ./P...).}P...+}P
0760: 0F 01 27 80 23 29 08 7D  50 0F 01 16 27 0B 7D 50  ..'.#).}P...'.}P
0770: 0F 01 37 29 08 2F 50 0F  01 15 29 08 2F 50 0F 01  ..7)./P...)./P..
0780: 16 2A 0B 7D 50 0F 01 29  0B F0 FF FF 7F 39 52 05  .*.}P..).....9R.
0790: 80 F8 FF FF 7F F8 FF FF  7F 73 30 39 31 02 09 10  .........s091...
07A0: 0A 80 00 B9 07 45 05 80  F8 FF FF 7F F8 FF FF 7F  .....E..........
07B0: 73 31 30 30 00 80 01 E6  07 02 09 10 0B 80 00 D5  s100............
07C0: 07 45 05 80 F8 FF FF 7F  F8 FF FF 7F 73 31 30 30  .E..........s100
07D0: 00 80 01 E6 07 45 05 80  F8 FF FF 7F F8 FF FF 7F  .....E..........
07E0: 73 30 39 32 00 80 2B 2F  50 0F 01 28 80 23 4A 2F  s092..+/P..(.#J/
07F0: 50 0F 01 F0 FF FF 7F 6F  76 2F 50 0F 01 29 08 2F  P......ov/P..)./
0800: 50 0F 01 17 2B 2F 50 0F  01 29 80 23 29 08 2F 50  P...+/P..).#)./P
0810: 0F 01 18 29 08 2F 50 0F  01 19 29 08 2F 50 0F 01  ...)./P...)./P..
0820: 1A 02 09 10 0A 80 00 3B  08 52 05 80 F8 FF FF 7F  .......;.R......
0830: F8 FF FF 7F 73 31 30 30  01 64 08 02 09 10 0B 80  ....s100.d......
0840: 00 55 08 52 05 80 F8 FF  FF 7F F8 FF FF 7F 73 31  .U.R..........s1
0850: 30 30 01 64 08 52 05 80  F8 FF FF 7F F8 FF FF 7F  00.d.R..........
0860: 73 30 39 32 45 05 80 F8  FF FF 7F F8 FF FF 7F 73  s092E..........s
0870: 30 39 33 00 80 29 08 2F  50 0F 01 06 1C 2A 80 2B  093..)./P....*.+
0880: 2F 50 0F 01 2B 80 23 79  00 7F 50 0F 01 2F 50 0F  /P..+.#y..P../P.
0890: 01 29 08 2F 50 0F 01 07  45 02 80 F8 FF FF 7F F8  .)./P...E.......
08A0: FF FF 7F 66 64 6F 31 00  80 1C 0F 80 52 05 80 F8  ...fdo1.....R...
08B0: FF FF 7F F8 FF FF 7F 73  30 39 33 29 0B 58 50 0F  .......s093).XP.
08C0: 01 04 29 0B 2F 50 0F 01  32 29 0B F0 FF FF 7F 3A  ..)./P..2).....:
08D0: 27 0B 2F 50 0F 01 33 1C  0A 80 45 05 80 F8 FF FF  './P..3...E.....
08E0: 7F F8 FF FF 7F 73 30 39  34 00 80 45 02 80 F8 FF  .....s094..E....
08F0: FF 7F F8 FF FF 7F 66 64  69 31 00 80 1C 2C 80 4A  ......fdi1...,.J
0900: F0 FF FF 7F 2F 50 0F 01  6F 76 F0 FF FF 7F 29 0B  ..../P..ov....).
0910: 58 50 0F 01 05 27 0B F0  FF FF 7F 3B 1C 2C 80 52  XP...'.....;.,.R
0920: 05 80 F8 FF FF 7F F8 FF  FF 7F 73 30 39 34 45 02  ..........s094E.
0930: 80 F0 FF FF 7F F0 FF FF  7F 6F 76 6C 31 00 80 45  .........ovl1..E
0940: 05 80 F8 FF FF 7F F8 FF  FF 7F 73 30 39 35 00 80  ..........s095..
0950: 2A 0B 2F 50 0F 01 29 08  2F 50 0F 01 04 2B 2F 50  *./P..)./P...+/P
0960: 0F 01 2D 80 23 29 08 2F  50 0F 01 05 2A 0B F0 FF  ..-.#)./P...*...
0970: FF 7F 29 08 2F 50 0F 01  17 2B 2F 50 0F 01 2E 80  ..)./P...+/P....
0980: 23 29 08 2F 50 0F 01 18  52 05 80 F8 FF FF 7F F8  #)./P...R.......
0990: FF FF 7F 73 30 39 35 02  09 10 0A 80 00 B3 09 45  ...s095........E
09A0: 05 80 F8 FF FF 7F F8 FF  FF 7F 73 31 30 31 00 80  ..........s101..
09B0: 01 FC 09 02 09 10 0B 80  00 CF 09 45 05 80 F8 FF  ...........E....
09C0: FF 7F F8 FF FF 7F 73 31  30 31 00 80 01 FC 09 02  ......s101......
09D0: 09 10 2F 80 00 EB 09 45  05 80 F8 FF FF 7F F8 FF  ../....E........
09E0: FF 7F 73 30 39 39 00 80  01 FC 09 45 05 80 F8 FF  ..s099.....E....
09F0: FF 7F F8 FF FF 7F 73 30  39 36 00 80 7B 2F 50 0F  ......s096..{/P.
0A00: 01 29 08 2F 50 0F 01 13  2B 2F 50 0F 01 30 80 23  .)./P...+/P..0.#
0A10: 29 08 2F 50 0F 01 14 29  08 2F 50 0F 01 15 2B 2F  )./P...)./P...+/
0A20: 50 0F 01 31 80 23 29 08  2F 50 0F 01 16 02 09 10  P..1.#)./P......
0A30: 0A 80 00 47 0A 52 05 80  F8 FF FF 7F F8 FF FF 7F  ...G.R..........
0A40: 73 31 30 31 01 8A 0A 02  09 10 0B 80 00 61 0A 52  s101.........a.R
0A50: 05 80 F8 FF FF 7F F8 FF  FF 7F 73 31 30 31 01 8A  ..........s101..
0A60: 0A 02 09 10 2F 80 00 7B  0A 52 05 80 F8 FF FF 7F  ..../..{.R......
0A70: F8 FF FF 7F 73 30 39 39  01 8A 0A 52 05 80 F8 FF  ....s099...R....
0A80: FF 7F F8 FF FF 7F 73 30  39 36 45 02 80 F0 FF FF  ......s096E.....
0A90: 7F F0 FF FF 7F 6F 76 6C  31 00 80 02 09 10 0A 80  .....ovl1.......
0AA0: 00 B7 0A 45 05 80 F8 FF  FF 7F F8 FF FF 7F 73 31  ...E..........s1
0AB0: 30 32 00 80 01 E4 0A 02  09 10 0B 80 00 D3 0A 45  02.............E
0AC0: 05 80 F8 FF FF 7F F8 FF  FF 7F 73 31 30 32 00 80  ..........s102..
0AD0: 01 E4 0A 45 05 80 F8 FF  FF 7F F8 FF FF 7F 73 30  ...E..........s0
0AE0: 39 38 00 80 79 00 2F 50  0F 01 F0 FF FF 7F 2B 2F  98..y./P......+/
0AF0: 50 0F 01 32 80 23 27 0B  2F 50 0F 01 34 2B 2F 50  P..2.#'./P..4+/P
0B00: 0F 01 33 80 23 2A 0B 2F  50 0F 01 02 09 10 0A 80  ..3.#*./P.......
0B10: 00 25 0B 52 05 80 F8 FF  FF 7F F8 FF FF 7F 73 31  .%.R..........s1
0B20: 30 32 01 4E 0B 02 09 10  0B 80 00 3F 0B 52 05 80  02.N.......?.R..
0B30: F8 FF FF 7F F8 FF FF 7F  73 31 30 32 01 4E 0B 52  ........s102.N.R
0B40: 05 80 F8 FF FF 7F F8 FF  FF 7F 73 30 39 38 45 05  ..........s098E.
0B50: 80 F8 FF FF 7F F8 FF FF  7F 73 30 39 37 00 80 29  .........s097..)
0B60: 08 2F 50 0F 01 06 2B 2F  50 0F 01 34 80 23 29 08  ./P...+/P..4.#).
0B70: 2F 50 0F 01 07 27 0B 2F  50 0F 01 34 2B 2F 50 0F  /P...'./P..4+/P.
0B80: 01 35 80 23 5D 00 80 01  80 45 02 80 F0 FF FF 7F  .5.#]....E......
0B90: F0 FF FF 7F 66 64 6F 31  00 80 1C 01 80 2A 0B 2F  ....fdo1.....*./
0BA0: 50 0F 01 52 05 80 F8 FF  FF 7F F8 FF FF 7F 73 30  P..R..........s0
0BB0: 39 37 45 36 80 F0 FF FF  7F F0 FF FF 7F 71 73 74  97E6.........qst
0BC0: 63 00 80 5C 00 1F 80 5C  01 1F 80 4E 00 F0 FF FF  c..\...\...N....
0BD0: 7F 80 F0 FF FF 7F 46 00  45 02 80 F0 FF FF 7F F0  ......F.E.......
0BE0: FF FF 7F 66 64 69 31 00  80 20 00 21 00           ...fdi1.. .!.   
```

#### Opcodes

```
  0: 0x04E1 [0x20] SET_CLI_EVENT_UC_FLAG: Lock player control
  1: 0x04E3 [0x42] SET_CLI_EVENT_CANCEL_DATA()
  2: 0x04E4 [0x46] CAMERA_CONTROL: Disable user control
  3: 0x04E6 [0x5D] SET_MUSIC_VOLUME(volume=0*, fade_time=120*)
  4: 0x04EB [0x45] LOAD_SCHEDULED_TASK: Load scheduler "fdo1" with entities [EventEntity, EventEntity], work=[200*, 0*]
  5: 0x04FC [0x1C] WAIT(120* ticks)
  6: 0x04FF [0x38] SET_CLIENT_EVENT_MODE(mode=3*)
  7: 0x0502 [0x29] REQ_SET_WAIT(priority=0x08, entity_id=LocalPlayer, tag_num=0x33)
  8: 0x0509 [0x29] REQ_SET_WAIT(priority=0x0B, entity_id=LocalPlayer, tag_num=0x36)
  9: 0x0510 [0x29] REQ_SET_WAIT(priority=0x0B, entity_id=Odasel (ID: 17780783/0x010F502F), tag_num=0x2B)
 10: 0x0517 [0x4A] LocalPlayer looks at Odasel (ID: 17780783/0x010F502F)
 11: 0x0520 [0x4A] Odasel (ID: 17780783/0x010F502F) looks at LocalPlayer
 12: 0x0529 [0x6F] WAIT_FRAME_DELAY: Yield until WaitTime reaches zero
 13: 0x052A [0x76] CHECK_ENTITY_RENDER_FLAGS: Wait until LocalPlayer Render.Flags0 and Render.Flags3 conditions are met
 14: 0x052F [0x6F] WAIT_FRAME_DELAY: Yield until WaitTime reaches zero
 15: 0x0530 [0x76] CHECK_ENTITY_RENDER_FLAGS: Wait until Odasel (ID: 17780783/0x010F502F) Render.Flags0 and Render.Flags3 conditions are met
 16: 0x0535 [0x4E] SET_ENTITY_HIDE_FLAG: Show Odasel (ID: 17780783/0x010F502F)
 17: 0x053B [0x80] LOAD_WAIT(entity=Odasel (ID: 17780783/0x010F502F))
 18: 0x0540 [0x92] Odasel (ID: 17780783/0x010F502F)->Render.Flags3 ^= 0x01
 19: 0x0546 [0x92] Adelflete (ID: 17780861/0x010F507D)->Render.Flags3 ^= 0x01
 20: 0x054C [0x92] Morefie (ID: 17780862/0x010F507E)->Render.Flags3 ^= 0x01
 21: 0x0552 [0x92] Matoaka (ID: 17780863/0x010F507F)->Render.Flags3 ^= 0x01
 22: 0x0558 [0x94] LocalPlayer->Render.Flags3 ^= 0x01
 23: 0x055E [0x5C] MUSIC_CONTROL: Set Idle (Day) music to song 163*
 24: 0x0562 [0x5C] MUSIC_CONTROL: Set Idle (Night) music to song 163*
 25: 0x0566 [0x45] LOAD_SCHEDULED_TASK: Load scheduler "s084" with entities [EventEntity, EventEntity], work=[126*, 0*]
 26: 0x0577 [0x45] LOAD_SCHEDULED_TASK: Load scheduler "fdi1" with entities [EventEntity, EventEntity], work=[200*, 0*]
 27: 0x0588 [0x2B] Odasel (ID: 17780783/0x010F502F) [8723*]:
    → "Is that really...$1!?"
 28: 0x058F [0x23] WAIT_FOR_DIALOG_INTERACTION
 29: 0x0590 [0x29] REQ_SET_WAIT(priority=0x08, entity_id=Odasel (ID: 17780783/0x010F502F), tag_num=0x04)
 30: 0x0597 [0x2B] Odasel (ID: 17780783/0x010F502F) [8724*]:
    → "I can't believe that kid was telling the truth. Well, I'll be damned."
 31: 0x059E [0x23] WAIT_FOR_DIALOG_INTERACTION
 32: 0x059F [0x29] REQ_SET_WAIT(priority=0x08, entity_id=Odasel (ID: 17780783/0x010F502F), tag_num=0x05)
 33: 0x05A6 [0x52] END_LOAD_SCHEDULER: End scheduler "s084" with entities [EventEntity, EventEntity], work=126*
 34: 0x05B5 [0x02] IF !(Work_Zone[9] == 5*) GOTO 0x05D1
 35: 0x05BD [0x45] LOAD_SCHEDULED_TASK: Load scheduler "s089" with entities [EventEntity, EventEntity], work=[126*, 0*]
 36: 0x05CE [0x01] GOTO 0x05FE
 37: 0x05D1 [0x02] IF !(Work_Zone[9] == 6*) GOTO 0x05ED
 38: 0x05D9 [0x45] LOAD_SCHEDULED_TASK: Load scheduler "s089" with entities [EventEntity, EventEntity], work=[126*, 0*]
 39: 0x05EA [0x01] GOTO 0x05FE
 40: 0x05ED [0x45] LOAD_SCHEDULED_TASK: Load scheduler "s087" with entities [EventEntity, EventEntity], work=[126*, 0*]

SUBROUTINE_05FE:
 41: 0x05FE [0x27] REQ_SET(priority=0x0B, entity_id=Odasel (ID: 17780783/0x010F502F), tag_num=0x2C)
 42: 0x0605 [0x2B] Odasel (ID: 17780783/0x010F502F) [8725*]:
    → "There's no time to lose. I gotta get in there and find the girl of my dreams!"
 43: 0x060C [0x23] WAIT_FOR_DIALOG_INTERACTION
 44: 0x060D [0x2A] GET_REQ_LEVEL(level=11, entity_id=Odasel (ID: 17780783/0x010F502F))
 45: 0x0613 [0x29] REQ_SET_WAIT(priority=0x08, entity_id=Odasel (ID: 17780783/0x010F502F), tag_num=0x02)
 46: 0x061A [0x2B] Odasel (ID: 17780783/0x010F502F) [8726*]:
    → "You ready? I'm going in!"
 47: 0x0621 [0x23] WAIT_FOR_DIALOG_INTERACTION
 48: 0x0622 [0x29] REQ_SET_WAIT(priority=0x08, entity_id=Odasel (ID: 17780783/0x010F502F), tag_num=0x03)
 49: 0x0629 [0x29] REQ_SET_WAIT(priority=0x08, entity_id=Odasel (ID: 17780783/0x010F502F), tag_num=0x10)
 50: 0x0630 [0x29] REQ_SET_WAIT(priority=0x08, entity_id=Odasel (ID: 17780783/0x010F502F), tag_num=0x11)
 51: 0x0637 [0x27] REQ_SET(priority=0x0B, entity_id=Odasel (ID: 17780783/0x010F502F), tag_num=0x2F)
 52: 0x063E [0x45] LOAD_SCHEDULED_TASK: Load scheduler "fdo1" with entities [EventEntity, EventEntity], work=[200*, 0*]
 53: 0x064F [0x1C] WAIT(60* ticks)
 54: 0x0652 [0x02] IF !(Work_Zone[9] == 5*) GOTO 0x066C
 55: 0x065A [0x52] END_LOAD_SCHEDULER: End scheduler "s089" with entities [EventEntity, EventEntity], work=126*
 56: 0x0669 [0x01] GOTO 0x0695
 57: 0x066C [0x02] IF !(Work_Zone[9] == 6*) GOTO 0x0686
 58: 0x0674 [0x52] END_LOAD_SCHEDULER: End scheduler "s089" with entities [EventEntity, EventEntity], work=126*
 59: 0x0683 [0x01] GOTO 0x0695
 60: 0x0686 [0x52] END_LOAD_SCHEDULER: End scheduler "s087" with entities [EventEntity, EventEntity], work=126*

SUBROUTINE_0695:
 61: 0x0695 [0x29] REQ_SET_WAIT(priority=0x0B, entity_id=Door:Gems by Kshama (ID: 17780824/0x010F5058), tag_num=0x04)
 62: 0x069C [0x1C] WAIT(120* ticks)
 63: 0x069F [0x2A] GET_REQ_LEVEL(level=11, entity_id=Odasel (ID: 17780783/0x010F502F))
 64: 0x06A5 [0x29] REQ_SET_WAIT(priority=0x0B, entity_id=Odasel (ID: 17780783/0x010F502F), tag_num=0x30)
 65: 0x06AC [0x29] REQ_SET_WAIT(priority=0x0B, entity_id=LocalPlayer, tag_num=0x37)
 66: 0x06B3 [0x29] REQ_SET_WAIT(priority=0x0B, entity_id=Door:Gems by Kshama (ID: 17780824/0x010F5058), tag_num=0x05)
 67: 0x06BA [0x1C] WAIT(60* ticks)
 68: 0x06BD [0x79] Odasel (ID: 17780783/0x010F502F) looks at Adelflete (ID: 17780861/0x010F507D) (Basic look)
 69: 0x06C7 [0x79] Adelflete (ID: 17780861/0x010F507D) looks at Odasel (ID: 17780783/0x010F502F) (Basic look)
 70: 0x06D1 [0x27] REQ_SET(priority=0x0B, entity_id=Odasel (ID: 17780783/0x010F502F), tag_num=0x31)
 71: 0x06D8 [0x27] REQ_SET(priority=0x0B, entity_id=LocalPlayer, tag_num=0x38)
 72: 0x06DF [0x1C] WAIT(5* ticks)
 73: 0x06E2 [0x45] LOAD_SCHEDULED_TASK: Load scheduler "s090" with entities [EventEntity, EventEntity], work=[126*, 0*]
 74: 0x06F3 [0x45] LOAD_SCHEDULED_TASK: Load scheduler "fdi1" with entities [EventEntity, EventEntity], work=[200*, 0*]
 75: 0x0704 [0x2A] GET_REQ_LEVEL(level=11, entity_id=Odasel (ID: 17780783/0x010F502F))
 76: 0x070A [0x2B] Odasel (ID: 17780783/0x010F502F) [8727*]:
    → "I'm looking to buy a necklace..."
 77: 0x0711 [0x23] WAIT_FOR_DIALOG_INTERACTION
 78: 0x0712 [0x2A] GET_REQ_LEVEL(level=11, entity_id=LocalPlayer)
 79: 0x0718 [0x2B] Adelflete (ID: 17780861/0x010F507D) [8728*]:
    → "Of course, sir! Is it a gift for someone special?"
 80: 0x071F [0x23] WAIT_FOR_DIALOG_INTERACTION
 81: 0x0720 [0x52] END_LOAD_SCHEDULER: End scheduler "s090" with entities [EventEntity, EventEntity], work=126*
 82: 0x072F [0x45] LOAD_SCHEDULED_TASK: Load scheduler "s091" with entities [EventEntity, EventEntity], work=[126*, 0*]
 83: 0x0740 [0x29] REQ_SET_WAIT(priority=0x08, entity_id=Odasel (ID: 17780783/0x010F502F), tag_num=0x13)
 84: 0x0747 [0x2B] Odasel (ID: 17780783/0x010F502F) [8729*]:
    → "Um, yeah...could be..."
 85: 0x074E [0x23] WAIT_FOR_DIALOG_INTERACTION
 86: 0x074F [0x29] REQ_SET_WAIT(priority=0x08, entity_id=Odasel (ID: 17780783/0x010F502F), tag_num=0x14)
 87: 0x0756 [0x29] REQ_SET_WAIT(priority=0x08, entity_id=Adelflete (ID: 17780861/0x010F507D), tag_num=0x15)
 88: 0x075D [0x2B] Adelflete (ID: 17780861/0x010F507D) [8730*]:
    → "We have a great selection for you to choose from! Just a moment, sir!"
 89: 0x0764 [0x23] WAIT_FOR_DIALOG_INTERACTION
 90: 0x0765 [0x29] REQ_SET_WAIT(priority=0x08, entity_id=Adelflete (ID: 17780861/0x010F507D), tag_num=0x16)
 91: 0x076C [0x27] REQ_SET(priority=0x0B, entity_id=Adelflete (ID: 17780861/0x010F507D), tag_num=0x37)
 92: 0x0773 [0x29] REQ_SET_WAIT(priority=0x08, entity_id=Odasel (ID: 17780783/0x010F502F), tag_num=0x15)
 93: 0x077A [0x29] REQ_SET_WAIT(priority=0x08, entity_id=Odasel (ID: 17780783/0x010F502F), tag_num=0x16)
 94: 0x0781 [0x2A] GET_REQ_LEVEL(level=11, entity_id=Adelflete (ID: 17780861/0x010F507D))
 95: 0x0787 [0x29] REQ_SET_WAIT(priority=0x0B, entity_id=LocalPlayer, tag_num=0x39)
 96: 0x078E [0x52] END_LOAD_SCHEDULER: End scheduler "s091" with entities [EventEntity, EventEntity], work=126*
 97: 0x079D [0x02] IF !(Work_Zone[9] == 5*) GOTO 0x07B9
 98: 0x07A5 [0x45] LOAD_SCHEDULED_TASK: Load scheduler "s100" with entities [EventEntity, EventEntity], work=[126*, 0*]
 99: 0x07B6 [0x01] GOTO 0x07E6
100: 0x07B9 [0x02] IF !(Work_Zone[9] == 6*) GOTO 0x07D5
101: 0x07C1 [0x45] LOAD_SCHEDULED_TASK: Load scheduler "s100" with entities [EventEntity, EventEntity], work=[126*, 0*]
102: 0x07D2 [0x01] GOTO 0x07E6
103: 0x07D5 [0x45] LOAD_SCHEDULED_TASK: Load scheduler "s092" with entities [EventEntity, EventEntity], work=[126*, 0*]

SUBROUTINE_07E6:
104: 0x07E6 [0x2B] Odasel (ID: 17780783/0x010F502F) [8731*]:
    → "Man, my hands won't stop sweating."
105: 0x07ED [0x23] WAIT_FOR_DIALOG_INTERACTION
106: 0x07EE [0x4A] Odasel (ID: 17780783/0x010F502F) looks at LocalPlayer
107: 0x07F7 [0x6F] WAIT_FRAME_DELAY: Yield until WaitTime reaches zero
108: 0x07F8 [0x76] CHECK_ENTITY_RENDER_FLAGS: Wait until Odasel (ID: 17780783/0x010F502F) Render.Flags0 and Render.Flags3 conditions are met
109: 0x07FD [0x29] REQ_SET_WAIT(priority=0x08, entity_id=Odasel (ID: 17780783/0x010F502F), tag_num=0x17)
110: 0x0804 [0x2B] Odasel (ID: 17780783/0x010F502F) [8732*]:
    → "So how's this $1 supposed to work?"
111: 0x080B [0x23] WAIT_FOR_DIALOG_INTERACTION
112: 0x080C [0x29] REQ_SET_WAIT(priority=0x08, entity_id=Odasel (ID: 17780783/0x010F502F), tag_num=0x18)
113: 0x0813 [0x29] REQ_SET_WAIT(priority=0x08, entity_id=Odasel (ID: 17780783/0x010F502F), tag_num=0x19)
114: 0x081A [0x29] REQ_SET_WAIT(priority=0x08, entity_id=Odasel (ID: 17780783/0x010F502F), tag_num=0x1A)
115: 0x0821 [0x02] IF !(Work_Zone[9] == 5*) GOTO 0x083B
116: 0x0829 [0x52] END_LOAD_SCHEDULER: End scheduler "s100" with entities [EventEntity, EventEntity], work=126*
117: 0x0838 [0x01] GOTO 0x0864
118: 0x083B [0x02] IF !(Work_Zone[9] == 6*) GOTO 0x0855
119: 0x0843 [0x52] END_LOAD_SCHEDULER: End scheduler "s100" with entities [EventEntity, EventEntity], work=126*
120: 0x0852 [0x01] GOTO 0x0864
121: 0x0855 [0x52] END_LOAD_SCHEDULER: End scheduler "s092" with entities [EventEntity, EventEntity], work=126*

SUBROUTINE_0864:
122: 0x0864 [0x45] LOAD_SCHEDULED_TASK: Load scheduler "s093" with entities [EventEntity, EventEntity], work=[126*, 0*]
123: 0x0875 [0x29] REQ_SET_WAIT(priority=0x08, entity_id=Odasel (ID: 17780783/0x010F502F), tag_num=0x06)
124: 0x087C [0x1C] WAIT(30* ticks)
125: 0x087F [0x2B] Odasel (ID: 17780783/0x010F502F) [8733*]:
    → "Whoa! The $1 changed color! Is this what she meant!?"
126: 0x0886 [0x23] WAIT_FOR_DIALOG_INTERACTION
127: 0x0887 [0x79] Matoaka (ID: 17780863/0x010F507F) looks at Odasel (ID: 17780783/0x010F502F) (Basic look)
128: 0x0891 [0x29] REQ_SET_WAIT(priority=0x08, entity_id=Odasel (ID: 17780783/0x010F502F), tag_num=0x07)
129: 0x0898 [0x45] LOAD_SCHEDULED_TASK: Load scheduler "fdo1" with entities [EventEntity, EventEntity], work=[200*, 0*]
130: 0x08A9 [0x1C] WAIT(60* ticks)
131: 0x08AC [0x52] END_LOAD_SCHEDULER: End scheduler "s093" with entities [EventEntity, EventEntity], work=126*
132: 0x08BB [0x29] REQ_SET_WAIT(priority=0x0B, entity_id=Door:Gems by Kshama (ID: 17780824/0x010F5058), tag_num=0x04)
133: 0x08C2 [0x29] REQ_SET_WAIT(priority=0x0B, entity_id=Odasel (ID: 17780783/0x010F502F), tag_num=0x32)
134: 0x08C9 [0x29] REQ_SET_WAIT(priority=0x0B, entity_id=LocalPlayer, tag_num=0x3A)
135: 0x08D0 [0x27] REQ_SET(priority=0x0B, entity_id=Odasel (ID: 17780783/0x010F502F), tag_num=0x33)
136: 0x08D7 [0x1C] WAIT(5* ticks)
137: 0x08DA [0x45] LOAD_SCHEDULED_TASK: Load scheduler "s094" with entities [EventEntity, EventEntity], work=[126*, 0*]
138: 0x08EB [0x45] LOAD_SCHEDULED_TASK: Load scheduler "fdi1" with entities [EventEntity, EventEntity], work=[200*, 0*]
139: 0x08FC [0x1C] WAIT(90* ticks)
140: 0x08FF [0x4A] LocalPlayer looks at Odasel (ID: 17780783/0x010F502F)
141: 0x0908 [0x6F] WAIT_FRAME_DELAY: Yield until WaitTime reaches zero
142: 0x0909 [0x76] CHECK_ENTITY_RENDER_FLAGS: Wait until LocalPlayer Render.Flags0 and Render.Flags3 conditions are met
143: 0x090E [0x29] REQ_SET_WAIT(priority=0x0B, entity_id=Door:Gems by Kshama (ID: 17780824/0x010F5058), tag_num=0x05)
144: 0x0915 [0x27] REQ_SET(priority=0x0B, entity_id=LocalPlayer, tag_num=0x3B)
145: 0x091C [0x1C] WAIT(90* ticks)
146: 0x091F [0x52] END_LOAD_SCHEDULER: End scheduler "s094" with entities [EventEntity, EventEntity], work=126*
147: 0x092E [0x45] LOAD_SCHEDULED_TASK: Load scheduler "ovl1" with entities [LocalPlayer, LocalPlayer], work=[200*, 0*]
148: 0x093F [0x45] LOAD_SCHEDULED_TASK: Load scheduler "s095" with entities [EventEntity, EventEntity], work=[126*, 0*]
149: 0x0950 [0x2A] GET_REQ_LEVEL(level=11, entity_id=Odasel (ID: 17780783/0x010F502F))
150: 0x0956 [0x29] REQ_SET_WAIT(priority=0x08, entity_id=Odasel (ID: 17780783/0x010F502F), tag_num=0x04)
151: 0x095D [0x2B] Odasel (ID: 17780783/0x010F502F) [8734*]:
    → "This $1 is one fantastic gem!"
152: 0x0964 [0x23] WAIT_FOR_DIALOG_INTERACTION
153: 0x0965 [0x29] REQ_SET_WAIT(priority=0x08, entity_id=Odasel (ID: 17780783/0x010F502F), tag_num=0x05)
154: 0x096C [0x2A] GET_REQ_LEVEL(level=11, entity_id=LocalPlayer)
155: 0x0972 [0x29] REQ_SET_WAIT(priority=0x08, entity_id=Odasel (ID: 17780783/0x010F502F), tag_num=0x17)
156: 0x0979 [0x2B] Odasel (ID: 17780783/0x010F502F) [8735*]:
    → "You wandered off before things got interesting, but you shoulda seen the sparks of romance fly between me and Adelflete."
157: 0x0980 [0x23] WAIT_FOR_DIALOG_INTERACTION
158: 0x0981 [0x29] REQ_SET_WAIT(priority=0x08, entity_id=Odasel (ID: 17780783/0x010F502F), tag_num=0x18)
159: 0x0988 [0x52] END_LOAD_SCHEDULER: End scheduler "s095" with entities [EventEntity, EventEntity], work=126*
160: 0x0997 [0x02] IF !(Work_Zone[9] == 5*) GOTO 0x09B3
161: 0x099F [0x45] LOAD_SCHEDULED_TASK: Load scheduler "s101" with entities [EventEntity, EventEntity], work=[126*, 0*]
162: 0x09B0 [0x01] GOTO 0x09FC
163: 0x09B3 [0x02] IF !(Work_Zone[9] == 6*) GOTO 0x09CF
164: 0x09BB [0x45] LOAD_SCHEDULED_TASK: Load scheduler "s101" with entities [EventEntity, EventEntity], work=[126*, 0*]
165: 0x09CC [0x01] GOTO 0x09FC
166: 0x09CF [0x02] IF !(Work_Zone[9] == 8*) GOTO 0x09EB
167: 0x09D7 [0x45] LOAD_SCHEDULED_TASK: Load scheduler "s099" with entities [EventEntity, EventEntity], work=[126*, 0*]
168: 0x09E8 [0x01] GOTO 0x09FC
169: 0x09EB [0x45] LOAD_SCHEDULED_TASK: Load scheduler "s096" with entities [EventEntity, EventEntity], work=[126*, 0*]

SUBROUTINE_09FC:
170: 0x09FC [0x7B] Odasel (ID: 17780783/0x010F502F) stops talking
171: 0x0A01 [0x29] REQ_SET_WAIT(priority=0x08, entity_id=Odasel (ID: 17780783/0x010F502F), tag_num=0x13)
172: 0x0A08 [0x2B] Odasel (ID: 17780783/0x010F502F) [8736*]:
    → "My mind is made up!"
173: 0x0A0F [0x23] WAIT_FOR_DIALOG_INTERACTION
174: 0x0A10 [0x29] REQ_SET_WAIT(priority=0x08, entity_id=Odasel (ID: 17780783/0x010F502F), tag_num=0x14)
175: 0x0A17 [0x29] REQ_SET_WAIT(priority=0x08, entity_id=Odasel (ID: 17780783/0x010F502F), tag_num=0x15)
176: 0x0A1E [0x2B] Odasel (ID: 17780783/0x010F502F) [8737*]:
    → "It's more than just knowing that she likes me. Now I realize just how much I liked her!"
177: 0x0A25 [0x23] WAIT_FOR_DIALOG_INTERACTION
178: 0x0A26 [0x29] REQ_SET_WAIT(priority=0x08, entity_id=Odasel (ID: 17780783/0x010F502F), tag_num=0x16)
179: 0x0A2D [0x02] IF !(Work_Zone[9] == 5*) GOTO 0x0A47
180: 0x0A35 [0x52] END_LOAD_SCHEDULER: End scheduler "s101" with entities [EventEntity, EventEntity], work=126*
181: 0x0A44 [0x01] GOTO 0x0A8A
182: 0x0A47 [0x02] IF !(Work_Zone[9] == 6*) GOTO 0x0A61
183: 0x0A4F [0x52] END_LOAD_SCHEDULER: End scheduler "s101" with entities [EventEntity, EventEntity], work=126*
184: 0x0A5E [0x01] GOTO 0x0A8A
185: 0x0A61 [0x02] IF !(Work_Zone[9] == 8*) GOTO 0x0A7B
186: 0x0A69 [0x52] END_LOAD_SCHEDULER: End scheduler "s099" with entities [EventEntity, EventEntity], work=126*
187: 0x0A78 [0x01] GOTO 0x0A8A
188: 0x0A7B [0x52] END_LOAD_SCHEDULER: End scheduler "s096" with entities [EventEntity, EventEntity], work=126*

SUBROUTINE_0A8A:
189: 0x0A8A [0x45] LOAD_SCHEDULED_TASK: Load scheduler "ovl1" with entities [LocalPlayer, LocalPlayer], work=[200*, 0*]
190: 0x0A9B [0x02] IF !(Work_Zone[9] == 5*) GOTO 0x0AB7
191: 0x0AA3 [0x45] LOAD_SCHEDULED_TASK: Load scheduler "s102" with entities [EventEntity, EventEntity], work=[126*, 0*]
192: 0x0AB4 [0x01] GOTO 0x0AE4
193: 0x0AB7 [0x02] IF !(Work_Zone[9] == 6*) GOTO 0x0AD3
194: 0x0ABF [0x45] LOAD_SCHEDULED_TASK: Load scheduler "s102" with entities [EventEntity, EventEntity], work=[126*, 0*]
195: 0x0AD0 [0x01] GOTO 0x0AE4
196: 0x0AD3 [0x45] LOAD_SCHEDULED_TASK: Load scheduler "s098" with entities [EventEntity, EventEntity], work=[126*, 0*]

SUBROUTINE_0AE4:
197: 0x0AE4 [0x79] Odasel (ID: 17780783/0x010F502F) looks at LocalPlayer (Basic look)
198: 0x0AEE [0x2B] Odasel (ID: 17780783/0x010F502F) [8738*]:
    → "You say you've seen it all before?"
199: 0x0AF5 [0x23] WAIT_FOR_DIALOG_INTERACTION
200: 0x0AF6 [0x27] REQ_SET(priority=0x0B, entity_id=Odasel (ID: 17780783/0x010F502F), tag_num=0x34)
201: 0x0AFD [0x2B] Odasel (ID: 17780783/0x010F502F) [8739*]:
    → "Hahaha! Looks like someone has a small case of jealousy."
202: 0x0B04 [0x23] WAIT_FOR_DIALOG_INTERACTION
203: 0x0B05 [0x2A] GET_REQ_LEVEL(level=11, entity_id=Odasel (ID: 17780783/0x010F502F))
204: 0x0B0B [0x02] IF !(Work_Zone[9] == 5*) GOTO 0x0B25
205: 0x0B13 [0x52] END_LOAD_SCHEDULER: End scheduler "s102" with entities [EventEntity, EventEntity], work=126*
206: 0x0B22 [0x01] GOTO 0x0B4E
207: 0x0B25 [0x02] IF !(Work_Zone[9] == 6*) GOTO 0x0B3F
208: 0x0B2D [0x52] END_LOAD_SCHEDULER: End scheduler "s102" with entities [EventEntity, EventEntity], work=126*
209: 0x0B3C [0x01] GOTO 0x0B4E
210: 0x0B3F [0x52] END_LOAD_SCHEDULER: End scheduler "s098" with entities [EventEntity, EventEntity], work=126*

SUBROUTINE_0B4E:
211: 0x0B4E [0x45] LOAD_SCHEDULED_TASK: Load scheduler "s097" with entities [EventEntity, EventEntity], work=[126*, 0*]
212: 0x0B5F [0x29] REQ_SET_WAIT(priority=0x08, entity_id=Odasel (ID: 17780783/0x010F502F), tag_num=0x06)
213: 0x0B66 [0x2B] Odasel (ID: 17780783/0x010F502F) [8740*]:
    → "Well, here's a little present from the happiest man in the world to help cheer you up."
214: 0x0B6D [0x23] WAIT_FOR_DIALOG_INTERACTION
215: 0x0B6E [0x29] REQ_SET_WAIT(priority=0x08, entity_id=Odasel (ID: 17780783/0x010F502F), tag_num=0x07)
216: 0x0B75 [0x27] REQ_SET(priority=0x0B, entity_id=Odasel (ID: 17780783/0x010F502F), tag_num=0x34)
217: 0x0B7C [0x2B] Odasel (ID: 17780783/0x010F502F) [8741*]:
    → "Hahaha! Don't look so glum. The world's full of possibilities, even for you!"
218: 0x0B83 [0x23] WAIT_FOR_DIALOG_INTERACTION
219: 0x0B84 [0x5D] SET_MUSIC_VOLUME(volume=0*, fade_time=120*)
220: 0x0B89 [0x45] LOAD_SCHEDULED_TASK: Load scheduler "fdo1" with entities [LocalPlayer, LocalPlayer], work=[200*, 0*]
221: 0x0B9A [0x1C] WAIT(120* ticks)
222: 0x0B9D [0x2A] GET_REQ_LEVEL(level=11, entity_id=Odasel (ID: 17780783/0x010F502F))
223: 0x0BA3 [0x52] END_LOAD_SCHEDULER: End scheduler "s097" with entities [EventEntity, EventEntity], work=126*
224: 0x0BB2 [0x45] LOAD_SCHEDULED_TASK: Load scheduler "qstc" with entities [LocalPlayer, LocalPlayer], work=[201*, 0*]
225: 0x0BC3 [0x5C] MUSIC_CONTROL: Set Idle (Day) music to song 110*
226: 0x0BC7 [0x5C] MUSIC_CONTROL: Set Idle (Night) music to song 110*
227: 0x0BCB [0x4E] SET_ENTITY_HIDE_FLAG: Show LocalPlayer
228: 0x0BD1 [0x80] LOAD_WAIT(entity=LocalPlayer)
229: 0x0BD6 [0x46] CAMERA_CONTROL: Restore default settings
230: 0x0BD8 [0x45] LOAD_SCHEDULED_TASK: Load scheduler "fdi1" with entities [LocalPlayer, LocalPlayer], work=[200*, 0*]
231: 0x0BE9 [0x20] SET_CLI_EVENT_UC_FLAG: Unlock player control
232: 0x0BEB [0x21] END_EVENT
233: 0x0BEC [0x00] END_REQSTACK()
```

### Event 10039

#### Metadata

| Field        | Value     |
|--------------|-----------|
| Entrypoint   | 0x0BED    |
| Data Size    | 645 bytes |
| Instructions | 88        |

```
      00 01 02 03 04 05 06 07  08 09 0A 0B 0C 0D 0E 0F
      -- -- -- -- -- -- -- --  -- -- -- -- -- -- -- --
0BE0:                                         20 01 42                .B
0BF0: 46 01 45 02 80 F8 FF FF  7F F8 FF FF 7F 66 64 6F  F.E..........fdo
0C00: 31 00 80 1C 0F 80 38 37  80 29 08 F0 FF FF 7F 33  1.....87.).....3
0C10: 75 00 38 80 75 01 29 0B  F0 FF FF 7F 3C 29 0B 7D  u.8.u.).....<).}
0C20: 50 0F 01 39 29 0B 7E 50  0F 01 24 4A 7F 50 0F 01  P..9).~P..$J.P..
0C30: 7E 50 0F 01 4A 7E 50 0F  01 7F 50 0F 01 4A F0 FF  ~P..J~P...P..J..
0C40: FF 7F 7F 50 0F 01 6F 76  F0 FF FF 7F 6F 76 7F 50  ...P..ov....ov.P
0C50: 0F 01 6F 76 7E 50 0F 01  4E 00 7F 50 0F 01 4E 00  ..ov~P..N..P..N.
0C60: 7E 50 0F 01 80 7F 50 0F  01 80 7E 50 0F 01 92 01  ~P....P...~P....
0C70: 7F 50 0F 01 92 01 7E 50  0F 01 92 01 7D 50 0F 01  .P....~P....}P..
0C80: 7B 7E 50 0F 01 02 09 10  0A 80 00 A1 0C 45 05 80  {~P..........E..
0C90: F8 FF FF 7F F8 FF FF 7F  73 31 30 37 00 80 01 CE  ........s107....
0CA0: 0C 02 09 10 0B 80 00 BD  0C 45 05 80 F8 FF FF 7F  .........E......
0CB0: F8 FF FF 7F 73 31 30 37  00 80 01 CE 0C 45 05 80  ....s107.....E..
0CC0: F8 FF FF 7F F8 FF FF 7F  73 31 30 33 00 80 45 02  ........s103..E.
0CD0: 80 F8 FF FF 7F F8 FF FF  7F 66 64 69 31 00 80 29  .........fdi1..)
0CE0: 08 7F 50 0F 01 01 2B 7F  50 0F 01 39 80 23 2B 7F  ..P...+.P..9.#+.
0CF0: 50 0F 01 3A 80 23 29 08  7F 50 0F 01 02 29 08 7E  P..:.#)..P...).~
0D00: 50 0F 01 01 02 09 10 0A  80 00 1E 0D 52 05 80 F8  P...........R...
0D10: FF FF 7F F8 FF FF 7F 73  31 30 37 01 47 0D 02 09  .......s107.G...
0D20: 10 0B 80 00 38 0D 52 05  80 F8 FF FF 7F F8 FF FF  ....8.R.........
0D30: 7F 73 31 30 37 01 47 0D  52 05 80 F8 FF FF 7F F8  .s107.G.R.......
0D40: FF FF 7F 73 31 30 33 45  02 80 F0 FF FF 7F F0 FF  ...s103E........
0D50: FF 7F 6F 76 6C 31 00 80  45 05 80 F8 FF FF 7F F8  ..ovl1..E.......
0D60: FF FF 7F 73 31 30 34 00  80 29 08 7F 50 0F 01 03  ...s104..)..P...
0D70: 2B 7E 50 0F 01 3B 80 23  2B 7E 50 0F 01 3C 80 23  +~P..;.#+~P..<.#
0D80: 27 08 7E 50 0F 01 02 52  05 80 F8 FF FF 7F F8 FF  '.~P...R........
0D90: FF 7F 73 31 30 34 45 05  80 F8 FF FF 7F F8 FF FF  ..s104E.........
0DA0: 7F 73 31 30 35 00 80 29  08 7F 50 0F 01 05 2B 7F  .s105..)..P...+.
0DB0: 50 0F 01 3D 80 23 29 08  7F 50 0F 01 06 29 08 7F  P..=.#)..P...)..
0DC0: 50 0F 01 07 2B 7F 50 0F  01 3E 80 23 29 08 7F 50  P...+.P..>.#)..P
0DD0: 0F 01 08 2A 08 7E 50 0F  01 52 05 80 F8 FF FF 7F  ...*.~P..R......
0DE0: F8 FF FF 7F 73 31 30 35  45 02 80 F0 FF FF 7F F0  ....s105E.......
0DF0: FF FF 7F 6F 76 6C 31 00  80 45 05 80 F8 FF FF 7F  ...ovl1..E......
0E00: F8 FF FF 7F 73 31 30 36  00 80 29 08 7E 50 0F 01  ....s106..).~P..
0E10: 0A 79 00 7F 50 0F 01 7D  50 0F 01 79 00 7E 50 0F  .y..P..}P..y.~P.
0E20: 01 7D 50 0F 01 2B 7E 50  0F 01 3F 80 23 45 02 80  .}P..+~P..?.#E..
0E30: F0 FF FF 7F F0 FF FF 7F  66 64 6F 31 00 80 1C 02  ........fdo1....
0E40: 80 52 05 80 F8 FF FF 7F  F8 FF FF 7F 73 31 30 36  .R..........s106
0E50: 4E 00 F0 FF FF 7F 80 F0  FF FF 7F 46 00 45 02 80  N..........F.E..
0E60: F0 FF FF 7F F0 FF FF 7F  66 64 69 31 00 80 20 00  ........fdi1.. .
0E70: 21 00                                             !.              
```

#### Opcodes

```
  0: 0x0BED [0x20] SET_CLI_EVENT_UC_FLAG: Lock player control
  1: 0x0BEF [0x42] SET_CLI_EVENT_CANCEL_DATA()
  2: 0x0BF0 [0x46] CAMERA_CONTROL: Disable user control
  3: 0x0BF2 [0x45] LOAD_SCHEDULED_TASK: Load scheduler "fdo1" with entities [EventEntity, EventEntity], work=[200*, 0*]
  4: 0x0C03 [0x1C] WAIT(60* ticks)
  5: 0x0C06 [0x38] SET_CLIENT_EVENT_MODE(mode=19*)
  6: 0x0C09 [0x29] REQ_SET_WAIT(priority=0x08, entity_id=LocalPlayer, tag_num=0x33)
  7: 0x0C10 [0x75] LOAD_ROOM(Load indoor room, room=459*)
  8: 0x0C14 [0x75] LOAD_ROOM(No action)
  9: 0x0C16 [0x29] REQ_SET_WAIT(priority=0x0B, entity_id=LocalPlayer, tag_num=0x3C)
 10: 0x0C1D [0x29] REQ_SET_WAIT(priority=0x0B, entity_id=Adelflete (ID: 17780861/0x010F507D), tag_num=0x39)
 11: 0x0C24 [0x29] REQ_SET_WAIT(priority=0x0B, entity_id=Morefie (ID: 17780862/0x010F507E), tag_num=0x24)
 12: 0x0C2B [0x4A] Matoaka (ID: 17780863/0x010F507F) looks at Morefie (ID: 17780862/0x010F507E)
 13: 0x0C34 [0x4A] Morefie (ID: 17780862/0x010F507E) looks at Matoaka (ID: 17780863/0x010F507F)
 14: 0x0C3D [0x4A] LocalPlayer looks at Matoaka (ID: 17780863/0x010F507F)
 15: 0x0C46 [0x6F] WAIT_FRAME_DELAY: Yield until WaitTime reaches zero
 16: 0x0C47 [0x76] CHECK_ENTITY_RENDER_FLAGS: Wait until LocalPlayer Render.Flags0 and Render.Flags3 conditions are met
 17: 0x0C4C [0x6F] WAIT_FRAME_DELAY: Yield until WaitTime reaches zero
 18: 0x0C4D [0x76] CHECK_ENTITY_RENDER_FLAGS: Wait until Matoaka (ID: 17780863/0x010F507F) Render.Flags0 and Render.Flags3 conditions are met
 19: 0x0C52 [0x6F] WAIT_FRAME_DELAY: Yield until WaitTime reaches zero
 20: 0x0C53 [0x76] CHECK_ENTITY_RENDER_FLAGS: Wait until Morefie (ID: 17780862/0x010F507E) Render.Flags0 and Render.Flags3 conditions are met
 21: 0x0C58 [0x4E] SET_ENTITY_HIDE_FLAG: Show Matoaka (ID: 17780863/0x010F507F)
 22: 0x0C5E [0x4E] SET_ENTITY_HIDE_FLAG: Show Morefie (ID: 17780862/0x010F507E)
 23: 0x0C64 [0x80] LOAD_WAIT(entity=Matoaka (ID: 17780863/0x010F507F))
 24: 0x0C69 [0x80] LOAD_WAIT(entity=Morefie (ID: 17780862/0x010F507E))
 25: 0x0C6E [0x92] Matoaka (ID: 17780863/0x010F507F)->Render.Flags3 ^= 0x01
 26: 0x0C74 [0x92] Morefie (ID: 17780862/0x010F507E)->Render.Flags3 ^= 0x01
 27: 0x0C7A [0x92] Adelflete (ID: 17780861/0x010F507D)->Render.Flags3 ^= 0x01
 28: 0x0C80 [0x7B] Morefie (ID: 17780862/0x010F507E) stops talking
 29: 0x0C85 [0x02] IF !(Work_Zone[9] == 5*) GOTO 0x0CA1
 30: 0x0C8D [0x45] LOAD_SCHEDULED_TASK: Load scheduler "s107" with entities [EventEntity, EventEntity], work=[126*, 0*]
 31: 0x0C9E [0x01] GOTO 0x0CCE
 32: 0x0CA1 [0x02] IF !(Work_Zone[9] == 6*) GOTO 0x0CBD
 33: 0x0CA9 [0x45] LOAD_SCHEDULED_TASK: Load scheduler "s107" with entities [EventEntity, EventEntity], work=[126*, 0*]
 34: 0x0CBA [0x01] GOTO 0x0CCE
 35: 0x0CBD [0x45] LOAD_SCHEDULED_TASK: Load scheduler "s103" with entities [EventEntity, EventEntity], work=[126*, 0*]

SUBROUTINE_0CCE:
 36: 0x0CCE [0x45] LOAD_SCHEDULED_TASK: Load scheduler "fdi1" with entities [EventEntity, EventEntity], work=[200*, 0*]
 37: 0x0CDF [0x29] REQ_SET_WAIT(priority=0x08, entity_id=Matoaka (ID: 17780863/0x010F507F), tag_num=0x01)
 38: 0x0CE6 [0x2B] Matoaka (ID: 17780863/0x010F507F) [8744*]:
    → "The customer Adelflete just served--isn't he the man who's always loitering outside the store?"
 39: 0x0CED [0x23] WAIT_FOR_DIALOG_INTERACTION
 40: 0x0CEE [0x2B] Matoaka (ID: 17780863/0x010F507F) [8745*]:
    → "Did you happen to see the gem he was holding? It's a rare stone that changes color depending on the temperature."
 41: 0x0CF5 [0x23] WAIT_FOR_DIALOG_INTERACTION
 42: 0x0CF6 [0x29] REQ_SET_WAIT(priority=0x08, entity_id=Matoaka (ID: 17780863/0x010F507F), tag_num=0x02)
 43: 0x0CFD [0x29] REQ_SET_WAIT(priority=0x08, entity_id=Morefie (ID: 17780862/0x010F507E), tag_num=0x01)
 44: 0x0D04 [0x02] IF !(Work_Zone[9] == 5*) GOTO 0x0D1E
 45: 0x0D0C [0x52] END_LOAD_SCHEDULER: End scheduler "s107" with entities [EventEntity, EventEntity], work=126*
 46: 0x0D1B [0x01] GOTO 0x0D47
 47: 0x0D1E [0x02] IF !(Work_Zone[9] == 6*) GOTO 0x0D38
 48: 0x0D26 [0x52] END_LOAD_SCHEDULER: End scheduler "s107" with entities [EventEntity, EventEntity], work=126*
 49: 0x0D35 [0x01] GOTO 0x0D47
 50: 0x0D38 [0x52] END_LOAD_SCHEDULER: End scheduler "s103" with entities [EventEntity, EventEntity], work=126*

SUBROUTINE_0D47:
 51: 0x0D47 [0x45] LOAD_SCHEDULED_TASK: Load scheduler "ovl1" with entities [LocalPlayer, LocalPlayer], work=[200*, 0*]
 52: 0x0D58 [0x45] LOAD_SCHEDULED_TASK: Load scheduler "s104" with entities [EventEntity, EventEntity], work=[126*, 0*]
 53: 0x0D69 [0x29] REQ_SET_WAIT(priority=0x08, entity_id=Matoaka (ID: 17780863/0x010F507F), tag_num=0x03)
 54: 0x0D70 [0x2B] Morefie (ID: 17780862/0x010F507E) [8746*]:
    → "Ah yes, I've seen one before. When the person holding it becomes hot and flustered, the hue of the gem changes."
 55: 0x0D77 [0x23] WAIT_FOR_DIALOG_INTERACTION
 56: 0x0D78 [0x2B] Morefie (ID: 17780862/0x010F507E) [8747*]:
    → "I've heard that it's used in other countries to measure the intensity of a person's feelings."
 57: 0x0D7F [0x23] WAIT_FOR_DIALOG_INTERACTION
 58: 0x0D80 [0x27] REQ_SET(priority=0x08, entity_id=Morefie (ID: 17780862/0x010F507E), tag_num=0x02)
 59: 0x0D87 [0x52] END_LOAD_SCHEDULER: End scheduler "s104" with entities [EventEntity, EventEntity], work=126*
 60: 0x0D96 [0x45] LOAD_SCHEDULED_TASK: Load scheduler "s105" with entities [EventEntity, EventEntity], work=[126*, 0*]
 61: 0x0DA7 [0x29] REQ_SET_WAIT(priority=0x08, entity_id=Matoaka (ID: 17780863/0x010F507F), tag_num=0x05)
 62: 0x0DAE [0x2B] Matoaka (ID: 17780863/0x010F507F) [8748*]:
    → "Which would mean that he's quite taken by our Adelflete, wouldn't it?"
 63: 0x0DB5 [0x23] WAIT_FOR_DIALOG_INTERACTION
 64: 0x0DB6 [0x29] REQ_SET_WAIT(priority=0x08, entity_id=Matoaka (ID: 17780863/0x010F507F), tag_num=0x06)
 65: 0x0DBD [0x29] REQ_SET_WAIT(priority=0x08, entity_id=Matoaka (ID: 17780863/0x010F507F), tag_num=0x07)
 66: 0x0DC4 [0x2B] Matoaka (ID: 17780863/0x010F507F) [8749*]:
    → "I was wondering who he was after for quite a while now. Now we know."
 67: 0x0DCB [0x23] WAIT_FOR_DIALOG_INTERACTION
 68: 0x0DCC [0x29] REQ_SET_WAIT(priority=0x08, entity_id=Matoaka (ID: 17780863/0x010F507F), tag_num=0x08)
 69: 0x0DD3 [0x2A] GET_REQ_LEVEL(level=8, entity_id=Morefie (ID: 17780862/0x010F507E))
 70: 0x0DD9 [0x52] END_LOAD_SCHEDULER: End scheduler "s105" with entities [EventEntity, EventEntity], work=126*
 71: 0x0DE8 [0x45] LOAD_SCHEDULED_TASK: Load scheduler "ovl1" with entities [LocalPlayer, LocalPlayer], work=[200*, 0*]
 72: 0x0DF9 [0x45] LOAD_SCHEDULED_TASK: Load scheduler "s106" with entities [EventEntity, EventEntity], work=[126*, 0*]
 73: 0x0E0A [0x29] REQ_SET_WAIT(priority=0x08, entity_id=Morefie (ID: 17780862/0x010F507E), tag_num=0x0A)
 74: 0x0E11 [0x79] Matoaka (ID: 17780863/0x010F507F) looks at Adelflete (ID: 17780861/0x010F507D) (Basic look)
 75: 0x0E1B [0x79] Morefie (ID: 17780862/0x010F507E) looks at Adelflete (ID: 17780861/0x010F507D) (Basic look)
 76: 0x0E25 [0x2B] Morefie (ID: 17780862/0x010F507E) [8750*]:
    → "I can't wait to see what happens. It's just like having one of those romantic plays right inside the store!"
 77: 0x0E2C [0x23] WAIT_FOR_DIALOG_INTERACTION
 78: 0x0E2D [0x45] LOAD_SCHEDULED_TASK: Load scheduler "fdo1" with entities [LocalPlayer, LocalPlayer], work=[200*, 0*]
 79: 0x0E3E [0x1C] WAIT(200* ticks)
 80: 0x0E41 [0x52] END_LOAD_SCHEDULER: End scheduler "s106" with entities [EventEntity, EventEntity], work=126*
 81: 0x0E50 [0x4E] SET_ENTITY_HIDE_FLAG: Show LocalPlayer
 82: 0x0E56 [0x80] LOAD_WAIT(entity=LocalPlayer)
 83: 0x0E5B [0x46] CAMERA_CONTROL: Restore default settings
 84: 0x0E5D [0x45] LOAD_SCHEDULED_TASK: Load scheduler "fdi1" with entities [LocalPlayer, LocalPlayer], work=[200*, 0*]
 85: 0x0E6E [0x20] SET_CLI_EVENT_UC_FLAG: Unlock player control
 86: 0x0E70 [0x21] END_EVENT
 87: 0x0E71 [0x00] END_REQSTACK()
```

### Event 10040

#### Metadata

| Field        | Value      |
|--------------|------------|
| Entrypoint   | 0x0E72     |
| Data Size    | 2196 bytes |
| Instructions | 287        |

```
      00 01 02 03 04 05 06 07  08 09 0A 0B 0C 0D 0E 0F
      -- -- -- -- -- -- -- --  -- -- -- -- -- -- -- --
0E70:       20 01 42 46 01 5D  00 80 01 80 45 02 80 F8     .BF.]....E...
0E80: FF FF 7F F8 FF FF 7F 66  64 6F 31 00 80 1C 01 80  .......fdo1.....
0E90: 38 37 80 29 08 F0 FF FF  7F 33 29 0B 33 50 0F 01  87.).....3).3P..
0EA0: 19 29 0B F0 FF FF 7F 3D  4A 33 50 0F 01 F0 FF FF  .).....=J3P.....
0EB0: 7F 4A F0 FF FF 7F 33 50  0F 01 6F 76 33 50 0F 01  .J....3P..ov3P..
0EC0: 6F 76 F0 FF FF 7F 4E 00  33 50 0F 01 80 33 50 0F  ov....N.3P...3P.
0ED0: 01 92 01 33 50 0F 01 94  01 F0 FF FF 7F 1C 40 80  ...3P.........@.
0EE0: 02 09 10 03 80 00 FC 0E  45 41 80 F8 FF FF 7F F8  ........EA......
0EF0: FF FF 7F 73 30 34 34 00  80 01 61 0F 02 09 10 0A  ...s044...a.....
0F00: 80 00 18 0F 45 41 80 F8  FF FF 7F F8 FF FF 7F 73  ....EA.........s
0F10: 30 34 31 00 80 01 61 0F  02 09 10 0B 80 00 34 0F  041...a.......4.
0F20: 45 41 80 F8 FF FF 7F F8  FF FF 7F 73 30 34 31 00  EA.........s041.
0F30: 80 01 61 0F 02 09 10 2F  80 00 50 0F 45 41 80 F8  ..a..../..P.EA..
0F40: FF FF 7F F8 FF FF 7F 73  30 34 34 00 80 01 61 0F  .......s044...a.
0F50: 45 41 80 F8 FF FF 7F F8  FF FF 7F 73 30 32 36 00  EA.........s026.
0F60: 80 45 02 80 F8 FF FF 7F  F8 FF FF 7F 66 64 69 31  .E..........fdi1
0F70: 00 80 29 08 33 50 0F 01  0C 2B 33 50 0F 01 42 80  ..).3P...+3P..B.
0F80: 23 29 08 33 50 0F 01 0D  29 08 33 50 0F 01 0E 2B  #).3P...).3P...+
0F90: 33 50 0F 01 43 80 23 29  08 33 50 0F 01 0F 29 08  3P..C.#).3P...).
0FA0: 33 50 0F 01 02 2B 33 50  0F 01 44 80 23 45 02 80  3P...+3P..D.#E..
0FB0: F8 FF FF 7F F8 FF FF 7F  66 64 6F 31 00 80 1C 0F  ........fdo1....
0FC0: 80 29 08 33 50 0F 01 03  02 09 10 03 80 00 E2 0F  .).3P...........
0FD0: 52 41 80 F8 FF FF 7F F8  FF FF 7F 73 30 34 34 01  RA.........s044.
0FE0: 3F 10 02 09 10 0A 80 00  FC 0F 52 41 80 F8 FF FF  ?.........RA....
0FF0: 7F F8 FF FF 7F 73 30 34  31 01 3F 10 02 09 10 0B  .....s041.?.....
1000: 80 00 16 10 52 41 80 F8  FF FF 7F F8 FF FF 7F 73  ....RA.........s
1010: 30 34 31 01 3F 10 02 09  10 2F 80 00 30 10 52 41  041.?..../..0.RA
1020: 80 F8 FF FF 7F F8 FF FF  7F 73 30 34 34 01 3F 10  .........s044.?.
1030: 52 41 80 F8 FF FF 7F F8  FF FF 7F 73 30 32 36 5C  RA.........s026\
1040: 00 45 80 5C 01 45 80 29  0B 33 50 0F 01 1A 29 0B  .E.\.E.).3P...).
1050: 4A 50 0F 01 8F 4E 00 4A  50 0F 01 80 4A 50 0F 01  JP...N.JP...JP..
1060: 4E 01 F0 FF FF 7F 45 41  80 F8 FF FF 7F F8 FF FF  N.....EA........
1070: 7F 73 30 32 37 00 80 1C  01 80 27 0B 4A 50 0F 01  .s027.....'.JP..
1080: 90 45 02 80 F8 FF FF 7F  F8 FF FF 7F 66 64 69 31  .E..........fdi1
1090: 00 80 2A 0B 4A 50 0F 01  1C 0F 80 79 00 4A 50 0F  ..*.JP.....y.JP.
10A0: 01 33 50 0F 01 1C 0F 80  27 0B 4A 50 0F 01 91 1C  .3P.....'.JP....
10B0: 2A 80 52 41 80 F8 FF FF  7F F8 FF FF 7F 73 30 32  *.RA.........s02
10C0: 37 45 41 80 F8 FF FF 7F  F8 FF FF 7F 73 30 32 38  7EA.........s028
10D0: 00 80 1C 2A 80 4A 33 50  0F 01 4A 50 0F 01 2B 4A  ...*.J3P..JP..+J
10E0: 50 0F 01 46 80 23 2A 0B  4A 50 0F 01 6F 76 33 50  P..F.#*.JP..ov3P
10F0: 0F 01 29 08 33 50 0F 01  0C 2B 33 50 0F 01 47 80  ..).3P...+3P..G.
1100: 23 29 08 33 50 0F 01 0D  52 41 80 F8 FF FF 7F F8  #).3P...RA......
1110: FF FF 7F 73 30 32 38 45  41 80 F8 FF FF 7F F8 FF  ...s028EA.......
1120: FF 7F 73 30 32 39 00 80  29 08 33 50 0F 01 0E 2B  ..s029..).3P...+
1130: 33 50 0F 01 48 80 23 29  08 33 50 0F 01 0F 52 41  3P..H.#).3P...RA
1140: 80 F8 FF FF 7F F8 FF FF  7F 73 30 32 39 45 02 80  .........s029E..
1150: F0 FF FF 7F F0 FF FF 7F  6F 76 6C 31 00 80 45 41  ........ovl1..EA
1160: 80 F8 FF FF 7F F8 FF FF  7F 73 30 33 30 00 80 29  .........s030..)
1170: 08 4A 50 0F 01 13 2B 4A  50 0F 01 49 80 23 29 08  .JP...+JP..I.#).
1180: 4A 50 0F 01 14 52 41 80  F8 FF FF 7F F8 FF FF 7F  JP...RA.........
1190: 73 30 33 30 45 41 80 F8  FF FF 7F F8 FF FF 7F 73  s030EA.........s
11A0: 30 33 31 00 80 29 08 4A  50 0F 01 15 29 08 33 50  031..).JP...).3P
11B0: 0F 01 02 2B 33 50 0F 01  4A 80 23 29 08 33 50 0F  ...+3P..J.#).3P.
11C0: 01 03 29 08 33 50 0F 01  0C 2B 33 50 0F 01 4B 80  ..).3P...+3P..K.
11D0: 23 29 08 33 50 0F 01 0D  29 08 4A 50 0F 01 16 52  #).3P...).JP...R
11E0: 41 80 F8 FF FF 7F F8 FF  FF 7F 73 30 33 31 45 41  A.........s031EA
11F0: 80 F8 FF FF 7F F8 FF FF  7F 73 30 33 32 00 80 7B  .........s032..{
1200: 4A 50 0F 01 81 00 4A 50  0F 01 29 08 4A 50 0F 01  JP....JP..).JP..
1210: 1F 2B 4A 50 0F 01 4C 80  23 29 08 4A 50 0F 01 20  .+JP..L.#).JP.. 
1220: 2B 4A 50 0F 01 4D 80 23  29 08 33 50 0F 01 0E 2B  +JP..M.#).3P...+
1230: 33 50 0F 01 4E 80 23 29  08 33 50 0F 01 0F 52 41  3P..N.#).3P...RA
1240: 80 F8 FF FF 7F F8 FF FF  7F 73 30 33 32 45 41 80  .........s032EA.
1250: F8 FF FF 7F F8 FF FF 7F  73 30 33 33 00 80 81 01  ........s033....
1260: 4A 50 0F 01 79 00 4A 50  0F 01 33 50 0F 01 29 08  JP..y.JP..3P..).
1270: 4A 50 0F 01 21 29 08 4A  50 0F 01 22 27 0B 4A 50  JP..!).JP.."'.JP
1280: 0F 01 93 2B 4A 50 0F 01  4F 80 23 2A 0B 4A 50 0F  ...+JP..O.#*.JP.
1290: 01 45 02 80 F8 FF FF 7F  F8 FF FF 7F 66 64 6F 31  .E..........fdo1
12A0: 00 80 1C 0F 80 52 41 80  F8 FF FF 7F F8 FF FF 7F  .....RA.........
12B0: 73 30 33 33 4E 01 4A 50  0F 01 4E 00 F0 FF FF 7F  s033N.JP..N.....
12C0: 80 F0 FF FF 7F 29 0B 33  50 0F 01 19 29 0B F0 FF  .....).3P...)...
12D0: FF 7F 3D 45 41 80 F8 FF  FF 7F F8 FF FF 7F 73 30  ..=EA.........s0
12E0: 33 34 00 80 45 02 80 F8  FF FF 7F F8 FF FF 7F 66  34..E..........f
12F0: 64 69 31 00 80 1C 2C 80  2B 33 50 0F 01 50 80 23  di1...,.+3P..P.#
1300: 52 41 80 F8 FF FF 7F F8  FF FF 7F 73 30 33 34 45  RA.........s034E
1310: 02 80 F0 FF FF 7F F0 FF  FF 7F 6F 76 6C 31 00 80  ..........ovl1..
1320: 02 09 10 0A 80 00 3C 13  45 41 80 F8 FF FF 7F F8  ......<.EA......
1330: FF FF 7F 73 30 34 32 00  80 01 69 13 02 09 10 0B  ...s042...i.....
1340: 80 00 58 13 45 41 80 F8  FF FF 7F F8 FF FF 7F 73  ..X.EA.........s
1350: 30 34 32 00 80 01 69 13  45 41 80 F8 FF FF 7F F8  042...i.EA......
1360: FF FF 7F 73 30 33 35 00  80 79 00 33 50 0F 01 F0  ...s035..y.3P...
1370: FF FF 7F 2B 33 50 0F 01  51 80 23 7B 33 50 0F 01  ...+3P..Q.#{3P..
1380: 29 08 33 50 0F 01 10 2B  33 50 0F 01 52 80 23 29  ).3P...+3P..R.#)
1390: 08 33 50 0F 01 11 02 09  10 0A 80 00 B0 13 52 41  .3P...........RA
13A0: 80 F8 FF FF 7F F8 FF FF  7F 73 30 34 32 01 D9 13  .........s042...
13B0: 02 09 10 0B 80 00 CA 13  52 41 80 F8 FF FF 7F F8  ........RA......
13C0: FF FF 7F 73 30 34 32 01  D9 13 52 41 80 F8 FF FF  ...s042...RA....
13D0: 7F F8 FF FF 7F 73 30 33  35 45 41 80 F8 FF FF 7F  .....s035EA.....
13E0: F8 FF FF 7F 73 30 33 36  00 80 29 08 33 50 0F 01  ....s036..).3P..
13F0: 12 29 08 33 50 0F 01 13  27 0B 33 50 0F 01 1B 2B  .).3P...'.3P...+
1400: 33 50 0F 01 53 80 23 2A  0B 33 50 0F 01 2B 33 50  3P..S.#*.3P..+3P
1410: 0F 01 54 80 23 52 41 80  F8 FF FF 7F F8 FF FF 7F  ..T.#RA.........
1420: 73 30 33 36 45 41 80 F8  FF FF 7F F8 FF FF 7F 73  s036EA.........s
1430: 30 33 37 00 80 4A 33 50  0F 01 F0 FF FF 7F 6F 76  037..J3P......ov
1440: 33 50 0F 01 4A F0 FF FF  7F 33 50 0F 01 2B 33 50  3P..J....3P..+3P
1450: 0F 01 55 80 23 6F 76 33  50 0F 01 52 41 80 F8 FF  ..U.#ov3P..RA...
1460: FF 7F F8 FF FF 7F 73 30  33 37 45 41 80 F8 FF FF  ......s037EA....
1470: 7F F8 FF FF 7F 73 30 33  38 00 80 29 08 33 50 0F  .....s038..).3P.
1480: 01 08 2B 33 50 0F 01 56  80 23 2B 33 50 0F 01 57  ..+3P..V.#+3P..W
1490: 80 23 29 08 33 50 0F 01  09 52 41 80 F8 FF FF 7F  .#).3P...RA.....
14A0: F8 FF FF 7F 73 30 33 38  45 41 80 F8 FF FF 7F F8  ....s038EA......
14B0: FF FF 7F 73 30 33 39 00  80 29 08 33 50 0F 01 0A  ...s039..).3P...
14C0: 2B 33 50 0F 01 58 80 23  29 08 33 50 0F 01 0B 29  +3P..X.#).3P...)
14D0: 08 33 50 0F 01 0C 2B 33  50 0F 01 59 80 23 29 08  .3P...+3P..Y.#).
14E0: 33 50 0F 01 0D 29 08 33  50 0F 01 0E 52 41 80 F8  3P...).3P...RA..
14F0: FF FF 7F F8 FF FF 7F 73  30 33 39 24 5A 80 1A 80  .......s039$Z...
1500: 00 80 25 02 00 10 00 80  00 B6 15 03 01 10 1A 80  ..%.............
1510: 02 09 10 0A 80 00 2C 15  45 41 80 F8 FF FF 7F F8  ......,.EA......
1520: FF FF 7F 73 30 34 33 00  80 01 59 15 02 09 10 0B  ...s043...Y.....
1530: 80 00 48 15 45 41 80 F8  FF FF 7F F8 FF FF 7F 73  ..H.EA.........s
1540: 30 34 33 00 80 01 59 15  45 41 80 F8 FF FF 7F F8  043...Y.EA......
1550: FF FF 7F 73 30 34 30 00  80 2B 33 50 0F 01 5B 80  ...s040..+3P..[.
1560: 23 29 08 33 50 0F 01 0F  2B 33 50 0F 01 5C 80 23  #).3P...+3P..\.#
1570: 02 09 10 0A 80 00 8A 15  52 41 80 F8 FF FF 7F F8  ........RA......
1580: FF FF 7F 73 30 34 33 01  B3 15 02 09 10 0B 80 00  ...s043.........
1590: A4 15 52 41 80 F8 FF FF  7F F8 FF FF 7F 73 30 34  ..RA.........s04
15A0: 33 01 B3 15 52 41 80 F8  FF FF 7F F8 FF FF 7F 73  3...RA.........s
15B0: 30 34 30 01 C3 16 02 00  10 1A 80 00 C3 16 03 01  040.............
15C0: 10 1D 80 02 09 10 0A 80  00 DF 15 45 41 80 F8 FF  ...........EA...
15D0: FF 7F F8 FF FF 7F 73 30  34 33 00 80 01 0C 16 02  ......s043......
15E0: 09 10 0B 80 00 FB 15 45  41 80 F8 FF FF 7F F8 FF  .......EA.......
15F0: FF 7F 73 30 34 33 00 80  01 0C 16 45 41 80 F8 FF  ..s043.....EA...
1600: FF 7F F8 FF FF 7F 73 30  34 30 00 80 29 08 33 50  ......s040..).3P
1610: 0F 01 0F 29 08 33 50 0F  01 0C 2B 33 50 0F 01 5D  ...).3P...+3P..]
1620: 80 23 2B 33 50 0F 01 5E  80 23 29 08 33 50 0F 01  .#+3P..^.#).3P..
1630: 0D 02 09 10 0A 80 00 4B  16 52 41 80 F8 FF FF 7F  .......K.RA.....
1640: F8 FF FF 7F 73 30 34 33  01 74 16 02 09 10 0B 80  ....s043.t......
1650: 00 65 16 52 41 80 F8 FF  FF 7F F8 FF FF 7F 73 30  .e.RA.........s0
1660: 34 33 01 74 16 52 41 80  F8 FF FF 7F F8 FF FF 7F  43.t.RA.........
1670: 73 30 34 30 45 41 80 F8  FF FF 7F F8 FF FF 7F 73  s040EA.........s
1680: 30 33 37 00 80 29 08 33  50 0F 01 0E 29 08 33 50  037..).3P...).3P
1690: 0F 01 0F 29 08 33 50 0F  01 02 2B 33 50 0F 01 5F  ...).3P...+3P.._
16A0: 80 23 29 08 33 50 0F 01  03 2B 33 50 0F 01 60 80  .#).3P...+3P..`.
16B0: 23 52 41 80 F8 FF FF 7F  F8 FF FF 7F 73 30 33 37  #RA.........s037
16C0: 01 C3 16 5D 00 80 01 80  45 02 80 F0 FF FF 7F F0  ...]....E.......
16D0: FF FF 7F 66 64 6F 31 00  80 1C 01 80 5C 00 1F 80  ...fdo1.....\...
16E0: 5C 01 1F 80 4E 00 F0 FF  FF 7F 80 F0 FF FF 7F 46  \...N..........F
16F0: 00 45 02 80 F0 FF FF 7F  F0 FF FF 7F 66 64 69 31  .E..........fdi1
1700: 00 80 20 00 21 00                                 .. .!.          
```

#### Opcodes

```
  0: 0x0E72 [0x20] SET_CLI_EVENT_UC_FLAG: Lock player control
  1: 0x0E74 [0x42] SET_CLI_EVENT_CANCEL_DATA()
  2: 0x0E75 [0x46] CAMERA_CONTROL: Disable user control
  3: 0x0E77 [0x5D] SET_MUSIC_VOLUME(volume=0*, fade_time=120*)
  4: 0x0E7C [0x45] LOAD_SCHEDULED_TASK: Load scheduler "fdo1" with entities [EventEntity, EventEntity], work=[200*, 0*]
  5: 0x0E8D [0x1C] WAIT(120* ticks)
  6: 0x0E90 [0x38] SET_CLIENT_EVENT_MODE(mode=19*)
  7: 0x0E93 [0x29] REQ_SET_WAIT(priority=0x08, entity_id=LocalPlayer, tag_num=0x33)
  8: 0x0E9A [0x29] REQ_SET_WAIT(priority=0x0B, entity_id=Omer (ID: 17780787/0x010F5033), tag_num=0x19)
  9: 0x0EA1 [0x29] REQ_SET_WAIT(priority=0x0B, entity_id=LocalPlayer, tag_num=0x3D)
 10: 0x0EA8 [0x4A] Omer (ID: 17780787/0x010F5033) looks at LocalPlayer
 11: 0x0EB1 [0x4A] LocalPlayer looks at Omer (ID: 17780787/0x010F5033)
 12: 0x0EBA [0x6F] WAIT_FRAME_DELAY: Yield until WaitTime reaches zero
 13: 0x0EBB [0x76] CHECK_ENTITY_RENDER_FLAGS: Wait until Omer (ID: 17780787/0x010F5033) Render.Flags0 and Render.Flags3 conditions are met
 14: 0x0EC0 [0x6F] WAIT_FRAME_DELAY: Yield until WaitTime reaches zero
 15: 0x0EC1 [0x76] CHECK_ENTITY_RENDER_FLAGS: Wait until LocalPlayer Render.Flags0 and Render.Flags3 conditions are met
 16: 0x0EC6 [0x4E] SET_ENTITY_HIDE_FLAG: Show Omer (ID: 17780787/0x010F5033)
 17: 0x0ECC [0x80] LOAD_WAIT(entity=Omer (ID: 17780787/0x010F5033))
 18: 0x0ED1 [0x92] Omer (ID: 17780787/0x010F5033)->Render.Flags3 ^= 0x01
 19: 0x0ED7 [0x94] LocalPlayer->Render.Flags3 ^= 0x01
 20: 0x0EDD [0x1C] WAIT(100* ticks)
 21: 0x0EE0 [0x02] IF !(Work_Zone[9] == 3*) GOTO 0x0EFC
 22: 0x0EE8 [0x45] LOAD_SCHEDULED_TASK: Load scheduler "s044" with entities [EventEntity, EventEntity], work=[25*, 0*]
 23: 0x0EF9 [0x01] GOTO 0x0F61
 24: 0x0EFC [0x02] IF !(Work_Zone[9] == 5*) GOTO 0x0F18
 25: 0x0F04 [0x45] LOAD_SCHEDULED_TASK: Load scheduler "s041" with entities [EventEntity, EventEntity], work=[25*, 0*]
 26: 0x0F15 [0x01] GOTO 0x0F61
 27: 0x0F18 [0x02] IF !(Work_Zone[9] == 6*) GOTO 0x0F34
 28: 0x0F20 [0x45] LOAD_SCHEDULED_TASK: Load scheduler "s041" with entities [EventEntity, EventEntity], work=[25*, 0*]
 29: 0x0F31 [0x01] GOTO 0x0F61
 30: 0x0F34 [0x02] IF !(Work_Zone[9] == 8*) GOTO 0x0F50
 31: 0x0F3C [0x45] LOAD_SCHEDULED_TASK: Load scheduler "s044" with entities [EventEntity, EventEntity], work=[25*, 0*]
 32: 0x0F4D [0x01] GOTO 0x0F61
 33: 0x0F50 [0x45] LOAD_SCHEDULED_TASK: Load scheduler "s026" with entities [EventEntity, EventEntity], work=[25*, 0*]

SUBROUTINE_0F61:
 34: 0x0F61 [0x45] LOAD_SCHEDULED_TASK: Load scheduler "fdi1" with entities [EventEntity, EventEntity], work=[200*, 0*]
 35: 0x0F72 [0x29] REQ_SET_WAIT(priority=0x08, entity_id=Omer (ID: 17780787/0x010F5033), tag_num=0x0C)
 36: 0x0F79 [0x2B] Omer (ID: 17780787/0x010F5033) [8854*]:
    → "You should be careful in a big city like Jeuno; there are always people ready to take advantage of your naivet<Player>i."
 37: 0x0F80 [0x23] WAIT_FOR_DIALOG_INTERACTION
 38: 0x0F81 [0x29] REQ_SET_WAIT(priority=0x08, entity_id=Omer (ID: 17780787/0x010F5033), tag_num=0x0D)
 39: 0x0F88 [0x29] REQ_SET_WAIT(priority=0x08, entity_id=Omer (ID: 17780787/0x010F5033), tag_num=0x0E)
 40: 0x0F8F [0x2B] Omer (ID: 17780787/0x010F5033) [8855*]:
    → "Even a city dweller like me was duped a while back by a young Elvaan girl."
 41: 0x0F96 [0x23] WAIT_FOR_DIALOG_INTERACTION
 42: 0x0F97 [0x29] REQ_SET_WAIT(priority=0x08, entity_id=Omer (ID: 17780787/0x010F5033), tag_num=0x0F)
 43: 0x0F9E [0x29] REQ_SET_WAIT(priority=0x08, entity_id=Omer (ID: 17780787/0x010F5033), tag_num=0x02)
 44: 0x0FA5 [0x2B] Omer (ID: 17780787/0x010F5033) [8856*]:
    → "She tricked me into giving her my fishing rod..."
 45: 0x0FAC [0x23] WAIT_FOR_DIALOG_INTERACTION
 46: 0x0FAD [0x45] LOAD_SCHEDULED_TASK: Load scheduler "fdo1" with entities [EventEntity, EventEntity], work=[200*, 0*]
 47: 0x0FBE [0x1C] WAIT(60* ticks)
 48: 0x0FC1 [0x29] REQ_SET_WAIT(priority=0x08, entity_id=Omer (ID: 17780787/0x010F5033), tag_num=0x03)
 49: 0x0FC8 [0x02] IF !(Work_Zone[9] == 3*) GOTO 0x0FE2
 50: 0x0FD0 [0x52] END_LOAD_SCHEDULER: End scheduler "s044" with entities [EventEntity, EventEntity], work=25*
 51: 0x0FDF [0x01] GOTO 0x103F
 52: 0x0FE2 [0x02] IF !(Work_Zone[9] == 5*) GOTO 0x0FFC
 53: 0x0FEA [0x52] END_LOAD_SCHEDULER: End scheduler "s041" with entities [EventEntity, EventEntity], work=25*
 54: 0x0FF9 [0x01] GOTO 0x103F
 55: 0x0FFC [0x02] IF !(Work_Zone[9] == 6*) GOTO 0x1016
 56: 0x1004 [0x52] END_LOAD_SCHEDULER: End scheduler "s041" with entities [EventEntity, EventEntity], work=25*
 57: 0x1013 [0x01] GOTO 0x103F
 58: 0x1016 [0x02] IF !(Work_Zone[9] == 8*) GOTO 0x1030
 59: 0x101E [0x52] END_LOAD_SCHEDULER: End scheduler "s044" with entities [EventEntity, EventEntity], work=25*
 60: 0x102D [0x01] GOTO 0x103F
 61: 0x1030 [0x52] END_LOAD_SCHEDULER: End scheduler "s026" with entities [EventEntity, EventEntity], work=25*

SUBROUTINE_103F:
 62: 0x103F [0x5C] MUSIC_CONTROL: Set Idle (Day) music to song 127*
 63: 0x1043 [0x5C] MUSIC_CONTROL: Set Idle (Night) music to song 127*
 64: 0x1047 [0x29] REQ_SET_WAIT(priority=0x0B, entity_id=Omer (ID: 17780787/0x010F5033), tag_num=0x1A)
 65: 0x104E [0x29] REQ_SET_WAIT(priority=0x0B, entity_id=Prishe (ID: 17780810/0x010F504A), tag_num=0x8F)
 66: 0x1055 [0x4E] SET_ENTITY_HIDE_FLAG: Show Prishe (ID: 17780810/0x010F504A)
 67: 0x105B [0x80] LOAD_WAIT(entity=Prishe (ID: 17780810/0x010F504A))
 68: 0x1060 [0x4E] SET_ENTITY_HIDE_FLAG: Hide LocalPlayer
 69: 0x1066 [0x45] LOAD_SCHEDULED_TASK: Load scheduler "s027" with entities [EventEntity, EventEntity], work=[25*, 0*]
 70: 0x1077 [0x1C] WAIT(120* ticks)
 71: 0x107A [0x27] REQ_SET(priority=0x0B, entity_id=Prishe (ID: 17780810/0x010F504A), tag_num=0x90)
 72: 0x1081 [0x45] LOAD_SCHEDULED_TASK: Load scheduler "fdi1" with entities [EventEntity, EventEntity], work=[200*, 0*]
 73: 0x1092 [0x2A] GET_REQ_LEVEL(level=11, entity_id=Prishe (ID: 17780810/0x010F504A))
 74: 0x1098 [0x1C] WAIT(60* ticks)
 75: 0x109B [0x79] Prishe (ID: 17780810/0x010F504A) looks at Omer (ID: 17780787/0x010F5033) (Basic look)
 76: 0x10A5 [0x1C] WAIT(60* ticks)
 77: 0x10A8 [0x27] REQ_SET(priority=0x0B, entity_id=Prishe (ID: 17780810/0x010F504A), tag_num=0x91)
 78: 0x10AF [0x1C] WAIT(30* ticks)
 79: 0x10B2 [0x52] END_LOAD_SCHEDULER: End scheduler "s027" with entities [EventEntity, EventEntity], work=25*
 80: 0x10C1 [0x45] LOAD_SCHEDULED_TASK: Load scheduler "s028" with entities [EventEntity, EventEntity], work=[25*, 0*]
 81: 0x10D2 [0x1C] WAIT(30* ticks)
 82: 0x10D5 [0x4A] Omer (ID: 17780787/0x010F5033) looks at Prishe (ID: 17780810/0x010F504A)
 83: 0x10DE [0x2B] Prishe (ID: 17780810/0x010F504A) [8857*]:
    → "I wanna give this fishing lark a go. Lend me your fishing rod!"
 84: 0x10E5 [0x23] WAIT_FOR_DIALOG_INTERACTION
 85: 0x10E6 [0x2A] GET_REQ_LEVEL(level=11, entity_id=Prishe (ID: 17780810/0x010F504A))
 86: 0x10EC [0x6F] WAIT_FRAME_DELAY: Yield until WaitTime reaches zero
 87: 0x10ED [0x76] CHECK_ENTITY_RENDER_FLAGS: Wait until Omer (ID: 17780787/0x010F5033) Render.Flags0 and Render.Flags3 conditions are met
 88: 0x10F2 [0x29] REQ_SET_WAIT(priority=0x08, entity_id=Omer (ID: 17780787/0x010F5033), tag_num=0x0C)
 89: 0x10F9 [0x2B] Omer (ID: 17780787/0x010F5033) [8858*]:
    → "Lend you my rod? Why would I do a thing like that?"
 90: 0x1100 [0x23] WAIT_FOR_DIALOG_INTERACTION
 91: 0x1101 [0x29] REQ_SET_WAIT(priority=0x08, entity_id=Omer (ID: 17780787/0x010F5033), tag_num=0x0D)
 92: 0x1108 [0x52] END_LOAD_SCHEDULER: End scheduler "s028" with entities [EventEntity, EventEntity], work=25*
 93: 0x1117 [0x45] LOAD_SCHEDULED_TASK: Load scheduler "s029" with entities [EventEntity, EventEntity], work=[25*, 0*]
 94: 0x1128 [0x29] REQ_SET_WAIT(priority=0x08, entity_id=Omer (ID: 17780787/0x010F5033), tag_num=0x0E)
 95: 0x112F [0x2B] Omer (ID: 17780787/0x010F5033) [8859*]:
    → "I don't know what country town you came from, but here in the city we don't just lend our possessions to total strangers."
 96: 0x1136 [0x23] WAIT_FOR_DIALOG_INTERACTION
 97: 0x1137 [0x29] REQ_SET_WAIT(priority=0x08, entity_id=Omer (ID: 17780787/0x010F5033), tag_num=0x0F)
 98: 0x113E [0x52] END_LOAD_SCHEDULER: End scheduler "s029" with entities [EventEntity, EventEntity], work=25*
 99: 0x114D [0x45] LOAD_SCHEDULED_TASK: Load scheduler "ovl1" with entities [LocalPlayer, LocalPlayer], work=[200*, 0*]
100: 0x115E [0x45] LOAD_SCHEDULED_TASK: Load scheduler "s030" with entities [EventEntity, EventEntity], work=[25*, 0*]
101: 0x116F [0x29] REQ_SET_WAIT(priority=0x08, entity_id=Prishe (ID: 17780810/0x010F504A), tag_num=0x13)
102: 0x1176 [0x2B] Prishe (ID: 17780810/0x010F504A) [8860*]:
    → "You're not gonna use it anymore, right? I can tell."
103: 0x117D [0x23] WAIT_FOR_DIALOG_INTERACTION
104: 0x117E [0x29] REQ_SET_WAIT(priority=0x08, entity_id=Prishe (ID: 17780810/0x010F504A), tag_num=0x14)
105: 0x1185 [0x52] END_LOAD_SCHEDULER: End scheduler "s030" with entities [EventEntity, EventEntity], work=25*
106: 0x1194 [0x45] LOAD_SCHEDULED_TASK: Load scheduler "s031" with entities [EventEntity, EventEntity], work=[25*, 0*]
107: 0x11A5 [0x29] REQ_SET_WAIT(priority=0x08, entity_id=Prishe (ID: 17780810/0x010F504A), tag_num=0x15)
108: 0x11AC [0x29] REQ_SET_WAIT(priority=0x08, entity_id=Omer (ID: 17780787/0x010F5033), tag_num=0x02)
109: 0x11B3 [0x2B] Omer (ID: 17780787/0x010F5033) [8861*]:
    → "What would you know!?"
110: 0x11BA [0x23] WAIT_FOR_DIALOG_INTERACTION
111: 0x11BB [0x29] REQ_SET_WAIT(priority=0x08, entity_id=Omer (ID: 17780787/0x010F5033), tag_num=0x03)
112: 0x11C2 [0x29] REQ_SET_WAIT(priority=0x08, entity_id=Omer (ID: 17780787/0x010F5033), tag_num=0x0C)
113: 0x11C9 [0x2B] Omer (ID: 17780787/0x010F5033) [8862*]:
    → "I...I'm looking for the perfect place to cast my line. It takes time to find just the right spot."
114: 0x11D0 [0x23] WAIT_FOR_DIALOG_INTERACTION
115: 0x11D1 [0x29] REQ_SET_WAIT(priority=0x08, entity_id=Omer (ID: 17780787/0x010F5033), tag_num=0x0D)
116: 0x11D8 [0x29] REQ_SET_WAIT(priority=0x08, entity_id=Prishe (ID: 17780810/0x010F504A), tag_num=0x16)
117: 0x11DF [0x52] END_LOAD_SCHEDULER: End scheduler "s031" with entities [EventEntity, EventEntity], work=25*
118: 0x11EE [0x45] LOAD_SCHEDULED_TASK: Load scheduler "s032" with entities [EventEntity, EventEntity], work=[25*, 0*]
119: 0x11FF [0x7B] Prishe (ID: 17780810/0x010F504A) stops talking
120: 0x1204 [0x81] SET_ENTITY_BLINKING(blink_flag=0x00, entity=Prishe (ID: 17780810/0x010F504A))
121: 0x120A [0x29] REQ_SET_WAIT(priority=0x08, entity_id=Prishe (ID: 17780810/0x010F504A), tag_num=0x1F)
122: 0x1211 [0x2B] Prishe (ID: 17780810/0x010F504A) [8863*]:
    → "Uh-huh. But you've already found the perfect place."
123: 0x1218 [0x23] WAIT_FOR_DIALOG_INTERACTION
124: 0x1219 [0x29] REQ_SET_WAIT(priority=0x08, entity_id=Prishe (ID: 17780810/0x010F504A), tag_num=0x20)
125: 0x1220 [0x2B] Prishe (ID: 17780810/0x010F504A) [8864*]:
    → "You just don't have the guts to go there. You're even trying to convince yourself it's not the best spot after all."
126: 0x1227 [0x23] WAIT_FOR_DIALOG_INTERACTION
127: 0x1228 [0x29] REQ_SET_WAIT(priority=0x08, entity_id=Omer (ID: 17780787/0x010F5033), tag_num=0x0E)
128: 0x122F [0x2B] Omer (ID: 17780787/0x010F5033) [8865*]:
    → "How dare you...!?"
129: 0x1236 [0x23] WAIT_FOR_DIALOG_INTERACTION
130: 0x1237 [0x29] REQ_SET_WAIT(priority=0x08, entity_id=Omer (ID: 17780787/0x010F5033), tag_num=0x0F)
131: 0x123E [0x52] END_LOAD_SCHEDULER: End scheduler "s032" with entities [EventEntity, EventEntity], work=25*
132: 0x124D [0x45] LOAD_SCHEDULED_TASK: Load scheduler "s033" with entities [EventEntity, EventEntity], work=[25*, 0*]
133: 0x125E [0x81] SET_ENTITY_BLINKING(blink_flag=0x01, entity=Prishe (ID: 17780810/0x010F504A))
134: 0x1264 [0x79] Prishe (ID: 17780810/0x010F504A) looks at Omer (ID: 17780787/0x010F5033) (Basic look)
135: 0x126E [0x29] REQ_SET_WAIT(priority=0x08, entity_id=Prishe (ID: 17780810/0x010F504A), tag_num=0x21)
136: 0x1275 [0x29] REQ_SET_WAIT(priority=0x08, entity_id=Prishe (ID: 17780810/0x010F504A), tag_num=0x22)
137: 0x127C [0x27] REQ_SET(priority=0x0B, entity_id=Prishe (ID: 17780810/0x010F504A), tag_num=0x93)
138: 0x1283 [0x2B] Prishe (ID: 17780810/0x010F504A) [8866*]:
    → "Just give me your damn rod. I'll go to Qufim Island and prove that you can catch $1 in that spot!"
139: 0x128A [0x23] WAIT_FOR_DIALOG_INTERACTION
140: 0x128B [0x2A] GET_REQ_LEVEL(level=11, entity_id=Prishe (ID: 17780810/0x010F504A))
141: 0x1291 [0x45] LOAD_SCHEDULED_TASK: Load scheduler "fdo1" with entities [EventEntity, EventEntity], work=[200*, 0*]
142: 0x12A2 [0x1C] WAIT(60* ticks)
143: 0x12A5 [0x52] END_LOAD_SCHEDULER: End scheduler "s033" with entities [EventEntity, EventEntity], work=25*
144: 0x12B4 [0x4E] SET_ENTITY_HIDE_FLAG: Hide Prishe (ID: 17780810/0x010F504A)
145: 0x12BA [0x4E] SET_ENTITY_HIDE_FLAG: Show LocalPlayer
146: 0x12C0 [0x80] LOAD_WAIT(entity=LocalPlayer)
147: 0x12C5 [0x29] REQ_SET_WAIT(priority=0x0B, entity_id=Omer (ID: 17780787/0x010F5033), tag_num=0x19)
148: 0x12CC [0x29] REQ_SET_WAIT(priority=0x0B, entity_id=LocalPlayer, tag_num=0x3D)
149: 0x12D3 [0x45] LOAD_SCHEDULED_TASK: Load scheduler "s034" with entities [EventEntity, EventEntity], work=[25*, 0*]
150: 0x12E4 [0x45] LOAD_SCHEDULED_TASK: Load scheduler "fdi1" with entities [EventEntity, EventEntity], work=[200*, 0*]
151: 0x12F5 [0x1C] WAIT(90* ticks)
152: 0x12F8 [0x2B] Omer (ID: 17780787/0x010F5033) [8867*]:
    → "Now that I think about it, she probably knew my fishing buddies were making fun of my idea that $1 could be caught on Qufim."
153: 0x12FF [0x23] WAIT_FOR_DIALOG_INTERACTION
154: 0x1300 [0x52] END_LOAD_SCHEDULER: End scheduler "s034" with entities [EventEntity, EventEntity], work=25*
155: 0x130F [0x45] LOAD_SCHEDULED_TASK: Load scheduler "ovl1" with entities [LocalPlayer, LocalPlayer], work=[200*, 0*]
156: 0x1320 [0x02] IF !(Work_Zone[9] == 5*) GOTO 0x133C
157: 0x1328 [0x45] LOAD_SCHEDULED_TASK: Load scheduler "s042" with entities [EventEntity, EventEntity], work=[25*, 0*]
158: 0x1339 [0x01] GOTO 0x1369
159: 0x133C [0x02] IF !(Work_Zone[9] == 6*) GOTO 0x1358
160: 0x1344 [0x45] LOAD_SCHEDULED_TASK: Load scheduler "s042" with entities [EventEntity, EventEntity], work=[25*, 0*]
161: 0x1355 [0x01] GOTO 0x1369
162: 0x1358 [0x45] LOAD_SCHEDULED_TASK: Load scheduler "s035" with entities [EventEntity, EventEntity], work=[25*, 0*]

SUBROUTINE_1369:
163: 0x1369 [0x79] Omer (ID: 17780787/0x010F5033) looks at LocalPlayer (Basic look)
164: 0x1373 [0x2B] Omer (ID: 17780787/0x010F5033) [8868*]:
    → "Even when I said I'd caught the elusive $2 in East Sarutabaruta, my friends wouldn't believe me."
165: 0x137A [0x23] WAIT_FOR_DIALOG_INTERACTION
166: 0x137B [0x7B] Omer (ID: 17780787/0x010F5033) stops talking
167: 0x1380 [0x29] REQ_SET_WAIT(priority=0x08, entity_id=Omer (ID: 17780787/0x010F5033), tag_num=0x10)
168: 0x1387 [0x2B] Omer (ID: 17780787/0x010F5033) [8869*]:
    → "If I'm that great a fisherman, I should be able to go to Qufim Island and catch the legendary $1, they said."
169: 0x138E [0x23] WAIT_FOR_DIALOG_INTERACTION
170: 0x138F [0x29] REQ_SET_WAIT(priority=0x08, entity_id=Omer (ID: 17780787/0x010F5033), tag_num=0x11)
171: 0x1396 [0x02] IF !(Work_Zone[9] == 5*) GOTO 0x13B0
172: 0x139E [0x52] END_LOAD_SCHEDULER: End scheduler "s042" with entities [EventEntity, EventEntity], work=25*
173: 0x13AD [0x01] GOTO 0x13D9
174: 0x13B0 [0x02] IF !(Work_Zone[9] == 6*) GOTO 0x13CA
175: 0x13B8 [0x52] END_LOAD_SCHEDULER: End scheduler "s042" with entities [EventEntity, EventEntity], work=25*
176: 0x13C7 [0x01] GOTO 0x13D9
177: 0x13CA [0x52] END_LOAD_SCHEDULER: End scheduler "s035" with entities [EventEntity, EventEntity], work=25*

SUBROUTINE_13D9:
178: 0x13D9 [0x45] LOAD_SCHEDULED_TASK: Load scheduler "s036" with entities [EventEntity, EventEntity], work=[25*, 0*]
179: 0x13EA [0x29] REQ_SET_WAIT(priority=0x08, entity_id=Omer (ID: 17780787/0x010F5033), tag_num=0x12)
180: 0x13F1 [0x29] REQ_SET_WAIT(priority=0x08, entity_id=Omer (ID: 17780787/0x010F5033), tag_num=0x13)
181: 0x13F8 [0x27] REQ_SET(priority=0x0B, entity_id=Omer (ID: 17780787/0x010F5033), tag_num=0x1B)
182: 0x13FF [0x2B] Omer (ID: 17780787/0x010F5033) [8870*]:
    → "But fishing out on that island is sheer madness. You can get attacked by all sorts of horrible creatures."
183: 0x1406 [0x23] WAIT_FOR_DIALOG_INTERACTION
184: 0x1407 [0x2A] GET_REQ_LEVEL(level=11, entity_id=Omer (ID: 17780787/0x010F5033))
185: 0x140D [0x2B] Omer (ID: 17780787/0x010F5033) [8871*]:
    → "To me, fishing is a hobby, a leisurely pastime. It's not worth risking my life for."
186: 0x1414 [0x23] WAIT_FOR_DIALOG_INTERACTION
187: 0x1415 [0x52] END_LOAD_SCHEDULER: End scheduler "s036" with entities [EventEntity, EventEntity], work=25*
188: 0x1424 [0x45] LOAD_SCHEDULED_TASK: Load scheduler "s037" with entities [EventEntity, EventEntity], work=[25*, 0*]
189: 0x1435 [0x4A] Omer (ID: 17780787/0x010F5033) looks at LocalPlayer
190: 0x143E [0x6F] WAIT_FRAME_DELAY: Yield until WaitTime reaches zero
191: 0x143F [0x76] CHECK_ENTITY_RENDER_FLAGS: Wait until Omer (ID: 17780787/0x010F5033) Render.Flags0 and Render.Flags3 conditions are met
192: 0x1444 [0x4A] LocalPlayer looks at Omer (ID: 17780787/0x010F5033)
193: 0x144D [0x2B] Omer (ID: 17780787/0x010F5033) [8872*]:
    → "I bet that girl knew if she cooked up that story, I would lend her my rod."
194: 0x1454 [0x23] WAIT_FOR_DIALOG_INTERACTION
195: 0x1455 [0x6F] WAIT_FRAME_DELAY: Yield until WaitTime reaches zero
196: 0x1456 [0x76] CHECK_ENTITY_RENDER_FLAGS: Wait until Omer (ID: 17780787/0x010F5033) Render.Flags0 and Render.Flags3 conditions are met
197: 0x145B [0x52] END_LOAD_SCHEDULER: End scheduler "s037" with entities [EventEntity, EventEntity], work=25*
198: 0x146A [0x45] LOAD_SCHEDULED_TASK: Load scheduler "s038" with entities [EventEntity, EventEntity], work=[25*, 0*]
199: 0x147B [0x29] REQ_SET_WAIT(priority=0x08, entity_id=Omer (ID: 17780787/0x010F5033), tag_num=0x08)
200: 0x1482 [0x2B] Omer (ID: 17780787/0x010F5033) [8873*]:
    → "A little while later she came back, insisting she had used my rod to catch $1."
201: 0x1489 [0x23] WAIT_FOR_DIALOG_INTERACTION
202: 0x148A [0x2B] Omer (ID: 17780787/0x010F5033) [8874*]:
    → "I never saw my fishing rod again, though."
203: 0x1491 [0x23] WAIT_FOR_DIALOG_INTERACTION
204: 0x1492 [0x29] REQ_SET_WAIT(priority=0x08, entity_id=Omer (ID: 17780787/0x010F5033), tag_num=0x09)
205: 0x1499 [0x52] END_LOAD_SCHEDULER: End scheduler "s038" with entities [EventEntity, EventEntity], work=25*
206: 0x14A8 [0x45] LOAD_SCHEDULED_TASK: Load scheduler "s039" with entities [EventEntity, EventEntity], work=[25*, 0*]
207: 0x14B9 [0x29] REQ_SET_WAIT(priority=0x08, entity_id=Omer (ID: 17780787/0x010F5033), tag_num=0x0A)
208: 0x14C0 [0x2B] Omer (ID: 17780787/0x010F5033) [8875*]:
    → "When I asked what happened, she said a monster she had fished up took it from her."
209: 0x14C7 [0x23] WAIT_FOR_DIALOG_INTERACTION
210: 0x14C8 [0x29] REQ_SET_WAIT(priority=0x08, entity_id=Omer (ID: 17780787/0x010F5033), tag_num=0x0B)
211: 0x14CF [0x29] REQ_SET_WAIT(priority=0x08, entity_id=Omer (ID: 17780787/0x010F5033), tag_num=0x0C)
212: 0x14D6 [0x2B] Omer (ID: 17780787/0x010F5033) [8876*]:
    → "Can you believe that!? She probably just sold my lovely rod and used the money to buy $1 at the auction house!"
213: 0x14DD [0x23] WAIT_FOR_DIALOG_INTERACTION
214: 0x14DE [0x29] REQ_SET_WAIT(priority=0x08, entity_id=Omer (ID: 17780787/0x010F5033), tag_num=0x0D)
215: 0x14E5 [0x29] REQ_SET_WAIT(priority=0x08, entity_id=Omer (ID: 17780787/0x010F5033), tag_num=0x0E)
216: 0x14EC [0x52] END_LOAD_SCHEDULER: End scheduler "s039" with entities [EventEntity, EventEntity], work=25*
217: 0x14FB [0x24] CREATE_DIALOG(message_id=8877*, default_option=1*, option_flags=0*)
    → "Do you think he was duped? [Absolutely./Of course not.]"
218: 0x1502 [0x25] WAIT_DIALOG_SELECT()
219: 0x1503 [0x02] IF !(Work_Zone[0] == 0*) GOTO 0x15B6
220: 0x150B [0x03] Work_Zone[1] = 1*
221: 0x1510 [0x02] IF !(Work_Zone[9] == 5*) GOTO 0x152C
222: 0x1518 [0x45] LOAD_SCHEDULED_TASK: Load scheduler "s043" with entities [EventEntity, EventEntity], work=[25*, 0*]
223: 0x1529 [0x01] GOTO 0x1559
224: 0x152C [0x02] IF !(Work_Zone[9] == 6*) GOTO 0x1548
225: 0x1534 [0x45] LOAD_SCHEDULED_TASK: Load scheduler "s043" with entities [EventEntity, EventEntity], work=[25*, 0*]
226: 0x1545 [0x01] GOTO 0x1559
227: 0x1548 [0x45] LOAD_SCHEDULED_TASK: Load scheduler "s040" with entities [EventEntity, EventEntity], work=[25*, 0*]

SUBROUTINE_1559:
228: 0x1559 [0x2B] Omer (ID: 17780787/0x010F5033) [8882*]:
    → "She was lying, right? Please help me find my precious $4."
229: 0x1560 [0x23] WAIT_FOR_DIALOG_INTERACTION
230: 0x1561 [0x29] REQ_SET_WAIT(priority=0x08, entity_id=Omer (ID: 17780787/0x010F5033), tag_num=0x0F)
