# 17780908 - Pawnpix

## Common Data

| Field            | Value                 |
|------------------|-----------------------|
| Zone             | Lower Jeuno (ID: 245) |
| Block Size       | 308 bytes             |
| Total Events     | 10                    |
| References Count | 25                    |

## List of Events

| Event ID                 | Entrypoint   |   Size |   Instructions |
|--------------------------|--------------|--------|----------------|
| [65535](#event-65535)    | 0x0000       |      1 |              1 |
| [99](#event-99)          | 0x0001       |      1 |              1 |
| [100](#event-100)        | 0x0002       |      1 |              1 |
| [65535.1](#event-655351) | 0x0003       |     18 |              4 |
| [65535.2](#event-655352) | 0x0015       |      9 |              3 |
| [65535.3](#event-655353) | 0x001E       |     10 |              2 |
| [65535.4](#event-655354) | 0x0028       |     51 |             13 |
| [65535.5](#event-655355) | 0x005B       |     15 |              3 |
| [65535.6](#event-655356) | 0x006A       |     10 |              2 |
| [65535.7](#event-655357) | 0x0074       |     34 |              8 |

## DAT References (imed_data)

|   Index | Hex Value   |   Dec Value |
|---------|-------------|-------------|
|       0 | 0x0000      |           0 |
|       1 | 0x0001      |           1 |
|       2 | 0xFFFF77AD  |  4294932397 |
|       3 | 0xFFFDE9D2  |  4294830546 |
|       4 | 0x1518      |        5400 |
|       5 | 0x017A      |         378 |
|       6 | 0x000D      |          13 |
|       7 | 0x0080      |         128 |
|       8 | 0xFFFF8197  |  4294934935 |
|       9 | 0xFFFDE3F5  |  4294829045 |
|      10 | 0x157B      |        5499 |
|      11 | 0xFFFF8754  |  4294936404 |
|      12 | 0xFFFDE355  |  4294828885 |
|      13 | 0xFFFF898E  |  4294936974 |
|      14 | 0xFFFDDFA3  |  4294827939 |
|      15 | 0xFFFF8365  |  4294935397 |
|      16 | 0xFFFDDEE2  |  4294827746 |
|      17 | 0x0EB1      |        3761 |
|      18 | 0xFFFF8CEA  |  4294937834 |
|      19 | 0xFFFDDD66  |  4294827366 |
|      20 | 0x0DD2      |        3538 |
|      21 | 0xFFFF7CAB  |  4294933675 |
|      22 | 0xFFFDE662  |  4294829666 |
|      23 | 0xFFFF726D  |  4294931053 |
|      24 | 0xFFFDEADF  |  4294830815 |

## Events

### Event 65535

#### Metadata

| Field        | Value   |
|--------------|---------|
| Entrypoint   | 0x0000  |
| Data Size    | 1 bytes |
| Instructions | 1       |

```
      00 01 02 03 04 05 06 07  08 09 0A 0B 0C 0D 0E 0F
      -- -- -- -- -- -- -- --  -- -- -- -- -- -- -- --
0000: 00                                                .               
```

#### Opcodes

```
  0: 0x0000 [0x00] END_REQSTACK()
```

### Event 99

#### Metadata

| Field        | Value   |
|--------------|---------|
| Entrypoint   | 0x0001  |
| Data Size    | 1 bytes |
| Instructions | 1       |

```
      00 01 02 03 04 05 06 07  08 09 0A 0B 0C 0D 0E 0F
      -- -- -- -- -- -- -- --  -- -- -- -- -- -- -- --
0000:    00                                              .              
```

#### Opcodes

```
  0: 0x0001 [0x00] END_REQSTACK()
```

### Event 100

#### Metadata

| Field        | Value   |
|--------------|---------|
| Entrypoint   | 0x0002  |
| Data Size    | 1 bytes |
| Instructions | 1       |

```
      00 01 02 03 04 05 06 07  08 09 0A 0B 0C 0D 0E 0F
      -- -- -- -- -- -- -- --  -- -- -- -- -- -- -- --
0000:       00                                            .             
```

#### Opcodes

```
  0: 0x0002 [0x00] END_REQSTACK()
```

### Event 65535.1

#### Metadata

| Field        | Value    |
|--------------|----------|
| Entrypoint   | 0x0003   |
| Data Size    | 18 bytes |
| Instructions | 4        |

```
      00 01 02 03 04 05 06 07  08 09 0A 0B 0C 0D 0E 0F
      -- -- -- -- -- -- -- --  -- -- -- -- -- -- -- --
0000:          22 00 2F 00 F8  FF FF 7F 6C F8 FF FF 7F     "./.....l....
0010: 00 80 01 80 00                                    .....           
```

#### Opcodes

```
  0: 0x0003 [0x22] ENTITY_HIDE_FLAG(enabled=0x00)
  1: 0x0005 [0x2F] EventEntity->Render.Flags0 &= ~0x80000 // Bit 19
  2: 0x000B [0x6C] FADE_ENTITY_COLOR(entity_id=EventEntity, end_alpha=0*, fade_time=1*)
  3: 0x0014 [0x00] END_REQSTACK()
```

### Event 65535.2

#### Metadata

| Field        | Value   |
|--------------|---------|
| Entrypoint   | 0x0015  |
| Data Size    | 9 bytes |
| Instructions | 3       |

```
      00 01 02 03 04 05 06 07  08 09 0A 0B 0C 0D 0E 0F
      -- -- -- -- -- -- -- --  -- -- -- -- -- -- -- --
0010:                22 00 2F  00 F8 FF FF 7F 00             "./......  
```

#### Opcodes

```
  0: 0x0015 [0x22] ENTITY_HIDE_FLAG(enabled=0x00)
  1: 0x0017 [0x2F] EventEntity->Render.Flags0 &= ~0x80000 // Bit 19
  2: 0x001D [0x00] END_REQSTACK()
```

### Event 65535.3

#### Metadata

| Field        | Value    |
|--------------|----------|
| Entrypoint   | 0x001E   |
| Data Size    | 10 bytes |
| Instructions | 2        |

```
      00 01 02 03 04 05 06 07  08 09 0A 0B 0C 0D 0E 0F
      -- -- -- -- -- -- -- --  -- -- -- -- -- -- -- --
0010:                                            37 02                7.
0020: 80 03 80 04 80 05 80 00                           ........        
```

#### Opcodes

```
  0: 0x001E [0x37] UPDATE_EVENT_POSITION_AND_DIR: x=-34.899*, z=-136.750*, y=5.400*, direction=33.2°*
  1: 0x0027 [0x00] END_REQSTACK()
```

### Event 65535.4

#### Metadata

| Field        | Value    |
|--------------|----------|
| Entrypoint   | 0x0028   |
| Data Size    | 51 bytes |
| Instructions | 13       |

```
      00 01 02 03 04 05 06 07  08 09 0A 0B 0C 0D 0E 0F
      -- -- -- -- -- -- -- --  -- -- -- -- -- -- -- --
0020:                          32 06 80 6C F8 FF FF 7F          2..l....
0030: 07 80 01 80 1F 00 08 80  09 80 0A 80 1F 01 1F 00  ................
0040: 0B 80 0C 80 0A 80 1F 01  1F 00 0D 80 0E 80 0A 80  ................
0050: 1F 01 6F 1E 19 50 0F 01  6F 70 00                 ..o..P..op.     
```

#### Opcodes

```
  0: 0x0028 [0x32] ExtData[1]->MainSpeed = 13* * 0.1
  1: 0x002B [0x6C] FADE_ENTITY_COLOR(entity_id=EventEntity, end_alpha=128*, fade_time=1*)
  2: 0x0034 [0x1F] MOVE_ENTITY: EventEntity moves to X=-32.361*, Z=-138.251*, Y=5.499*
  3: 0x003C [0x1F] MOVE_ENTITY: Update entity position (mode=1)
  4: 0x003E [0x1F] MOVE_ENTITY: EventEntity moves to X=-30.892*, Z=-138.411*, Y=5.499*
  5: 0x0046 [0x1F] MOVE_ENTITY: Update entity position (mode=1)
  6: 0x0048 [0x1F] MOVE_ENTITY: EventEntity moves to X=-30.322*, Z=-139.357*, Y=5.499*
  7: 0x0050 [0x1F] MOVE_ENTITY: Update entity position (mode=1)
  8: 0x0052 [0x6F] WAIT_FRAME_DELAY: Yield until WaitTime reaches zero
  9: 0x0053 [0x1E] EventEntity looks at Muckvix (ID: 17780761/0x010F5019) and starts talking
 10: 0x0058 [0x6F] WAIT_FRAME_DELAY: Yield until WaitTime reaches zero
 11: 0x0059 [0x70] WAIT_ENTITY_RENDER_FLAG: Wait while EventEntity->Render.Flags3 bit 2 is set (cancel turn if not)
 12: 0x005A [0x00] END_REQSTACK()
```

### Event 65535.5

#### Metadata

| Field        | Value    |
|--------------|----------|
| Entrypoint   | 0x005B   |
| Data Size    | 15 bytes |
| Instructions | 3        |

```
      00 01 02 03 04 05 06 07  08 09 0A 0B 0C 0D 0E 0F
      -- -- -- -- -- -- -- --  -- -- -- -- -- -- -- --
0050:                                   5E 69 64 6C 30             ^idl0
0060: 37 0F 80 10 80 04 80 11  80 00                    7.........      
```

#### Opcodes

```
  0: 0x005B [0x5E] EventEntity goes idle (kills current action) (animation: "idl0")
  1: 0x0060 [0x37] UPDATE_EVENT_POSITION_AND_DIR: x=-31.899*, z=-139.550*, y=5.400*, direction=330.5°*
  2: 0x0069 [0x00] END_REQSTACK()
```

### Event 65535.6

#### Metadata

| Field        | Value    |
|--------------|----------|
| Entrypoint   | 0x006A   |
| Data Size    | 10 bytes |
| Instructions | 2        |

```
      00 01 02 03 04 05 06 07  08 09 0A 0B 0C 0D 0E 0F
      -- -- -- -- -- -- -- --  -- -- -- -- -- -- -- --
0060:                                37 12 80 13 80 04            7.....
0070: 80 14 80 00                                       ....            
```

#### Opcodes

```
  0: 0x006A [0x37] UPDATE_EVENT_POSITION_AND_DIR: x=-29.462*, z=-139.930*, y=5.400*, direction=310.9°*
  1: 0x0073 [0x00] END_REQSTACK()
```

### Event 65535.7

#### Metadata

| Field        | Value    |
|--------------|----------|
| Entrypoint   | 0x0074   |
| Data Size    | 34 bytes |
| Instructions | 8        |

```
      00 01 02 03 04 05 06 07  08 09 0A 0B 0C 0D 0E 0F
      -- -- -- -- -- -- -- --  -- -- -- -- -- -- -- --
0070:             32 06 80 1F  00 15 80 16 80 0A 80 1F      2...........
0080: 01 1F 00 17 80 18 80 0A  80 1F 01 6F 6C F8 FF FF  ...........ol...
0090: 7F 00 80 01 80 00                                 ......          
```

#### Opcodes

```
  0: 0x0074 [0x32] ExtData[1]->MainSpeed = 13* * 0.1
  1: 0x0077 [0x1F] MOVE_ENTITY: EventEntity moves to X=-33.621*, Z=-137.630*, Y=5.499*
  2: 0x007F [0x1F] MOVE_ENTITY: Update entity position (mode=1)
  3: 0x0081 [0x1F] MOVE_ENTITY: EventEntity moves to X=-36.243*, Z=-136.481*, Y=5.499*
  4: 0x0089 [0x1F] MOVE_ENTITY: Update entity position (mode=1)
  5: 0x008B [0x6F] WAIT_FRAME_DELAY: Yield until WaitTime reaches zero
  6: 0x008C [0x6C] FADE_ENTITY_COLOR(entity_id=EventEntity, end_alpha=0*, fade_time=1*)
  7: 0x0095 [0x00] END_REQSTACK()
```
