# 17780766 - Bki Tbujhja

## Common Data

| Field            | Value                 |
|------------------|-----------------------|
| Zone             | Lower Jeuno (ID: 245) |
| Block Size       | 3344 bytes            |
| Total Events     | 110                   |
| References Count | 130                   |

## List of Events

| Event ID                   | Entrypoint   |   Size |   Instructions |
|----------------------------|--------------|--------|----------------|
| [65535](#event-65535)      | 0x0000       |      1 |              1 |
| [181](#event-181)          | 0x0001       |     73 |             16 |
| [182](#event-182)          | 0x004A       |     50 |             13 |
| [180](#event-180)          | 0x007C       |     59 |             16 |
| [145](#event-145)          | 0x00B7       |     58 |             12 |
| [148](#event-148)          | 0x00F1       |    134 |             28 |
| [146](#event-146)          | 0x0177       |     20 |              6 |
| [151](#event-151)          | 0x018B       |     92 |             17 |
| [147](#event-147)          | 0x01E7       |     20 |              6 |
| [149](#event-149)          | 0x01FB       |     28 |              8 |
| [150](#event-150)          | 0x0217       |    111 |             18 |
| [134](#event-134)          | 0x0286       |     16 |              6 |
| [10094](#event-10094)      | 0x0296       |      5 |              3 |
| [65535.1](#event-655351)   | 0x029B       |     20 |              5 |
| [65535.2](#event-655352)   | 0x02AF       |     20 |              5 |
| [65535.3](#event-655353)   | 0x02C3       |     20 |              5 |
| [65535.4](#event-655354)   | 0x02D7       |     17 |              3 |
| [65535.5](#event-655355)   | 0x02E8       |     20 |              5 |
| [65535.6](#event-655356)   | 0x02FC       |     20 |              5 |
| [65535.7](#event-655357)   | 0x0310       |     19 |              4 |
| [65535.8](#event-655358)   | 0x0323       |     19 |              4 |
| [65535.9](#event-655359)   | 0x0336       |     16 |              2 |
| [65535.10](#event-6553510) | 0x0346       |     16 |              2 |
| [65535.11](#event-6553511) | 0x0356       |     20 |              5 |
| [65535.12](#event-6553512) | 0x036A       |     16 |              2 |
| [65535.13](#event-6553513) | 0x037A       |     16 |              2 |
| [65535.14](#event-6553514) | 0x038A       |     16 |              2 |
| [65535.15](#event-6553515) | 0x039A       |     21 |              6 |
| [65535.16](#event-6553516) | 0x03AF       |     16 |              2 |
| [65535.17](#event-6553517) | 0x03BF       |     16 |              2 |
| [65535.18](#event-6553518) | 0x03CF       |     20 |              5 |
| [65535.19](#event-6553519) | 0x03E3       |     17 |              3 |
| [65535.20](#event-6553520) | 0x03F4       |     20 |              5 |
| [65535.21](#event-6553521) | 0x0408       |     16 |              2 |
| [65535.22](#event-6553522) | 0x0418       |     16 |              2 |
| [65535.23](#event-6553523) | 0x0428       |     16 |              2 |
| [65535.24](#event-6553524) | 0x0438       |     16 |              2 |
| [65535.25](#event-6553525) | 0x0448       |     16 |              2 |
| [65535.26](#event-6553526) | 0x0458       |     16 |              2 |
| [65535.27](#event-6553527) | 0x0468       |     16 |              2 |
| [65535.28](#event-6553528) | 0x0478       |     12 |              4 |
| [65535.29](#event-6553529) | 0x0484       |     20 |              5 |
| [65535.30](#event-6553530) | 0x0498       |     17 |              3 |
| [65535.31](#event-6553531) | 0x04A9       |     17 |              3 |
| [65535.32](#event-6553532) | 0x04BA       |     16 |              2 |
| [65535.33](#event-6553533) | 0x04CA       |     16 |              2 |
| [65535.34](#event-6553534) | 0x04DA       |     16 |              2 |
| [65535.35](#event-6553535) | 0x04EA       |     16 |              2 |
| [65535.36](#event-6553536) | 0x04FA       |     16 |              2 |
| [65535.37](#event-6553537) | 0x050A       |     16 |              2 |
| [65535.38](#event-6553538) | 0x051A       |     13 |              5 |
| [65535.39](#event-6553539) | 0x0527       |     20 |              5 |
| [65535.40](#event-6553540) | 0x053B       |     12 |              4 |
| [65535.41](#event-6553541) | 0x0547       |     16 |              2 |
| [65535.42](#event-6553542) | 0x0557       |     16 |              2 |
| [65535.43](#event-6553543) | 0x0567       |     16 |              2 |
| [65535.44](#event-6553544) | 0x0577       |     20 |              5 |
| [65535.45](#event-6553545) | 0x058B       |     29 |              6 |
| [65535.46](#event-6553546) | 0x05A8       |     17 |              3 |
| [65535.47](#event-6553547) | 0x05B9       |     20 |              5 |
| [65535.48](#event-6553548) | 0x05CD       |     20 |              5 |
| [65535.49](#event-6553549) | 0x05E1       |     20 |              5 |
| [65535.50](#event-6553550) | 0x05F5       |     20 |              5 |
| [65535.51](#event-6553551) | 0x0609       |     20 |              5 |
| [65535.52](#event-6553552) | 0x061D       |     16 |              2 |
| [65535.53](#event-6553553) | 0x062D       |     16 |              2 |
| [65535.54](#event-6553554) | 0x063D       |     20 |              5 |
| [65535.55](#event-6553555) | 0x0651       |     16 |              2 |
| [65535.56](#event-6553556) | 0x0661       |     16 |              2 |
| [65535.57](#event-6553557) | 0x0671       |     16 |              2 |
| [65535.58](#event-6553558) | 0x0681       |     16 |              2 |
| [65535.59](#event-6553559) | 0x0691       |     21 |              6 |
| [65535.60](#event-6553560) | 0x06A6       |     20 |              5 |
| [65535.61](#event-6553561) | 0x06BA       |     20 |              5 |
| [65535.62](#event-6553562) | 0x06CE       |     17 |              3 |
| [65535.63](#event-6553563) | 0x06DF       |     20 |              5 |
| [65535.64](#event-6553564) | 0x06F3       |     20 |              5 |
| [65535.65](#event-6553565) | 0x0707       |     16 |              2 |
| [65535.66](#event-6553566) | 0x0717       |     16 |              2 |
| [65535.67](#event-6553567) | 0x0727       |     21 |              6 |
| [65535.68](#event-6553568) | 0x073C       |     20 |              5 |
| [65535.69](#event-6553569) | 0x0750       |     20 |              5 |
| [65535.70](#event-6553570) | 0x0764       |     16 |              2 |
| [65535.71](#event-6553571) | 0x0774       |     20 |              5 |
| [65535.72](#event-6553572) | 0x0788       |     21 |              6 |
| [65535.73](#event-6553573) | 0x079D       |     20 |              5 |
| [65535.74](#event-6553574) | 0x07B1       |     12 |              4 |
| [65535.75](#event-6553575) | 0x07BD       |     16 |              2 |
| [65535.76](#event-6553576) | 0x07CD       |     16 |              2 |
| [65535.77](#event-6553577) | 0x07DD       |     20 |              5 |
| [65535.78](#event-6553578) | 0x07F1       |     20 |              5 |
| [65535.79](#event-6553579) | 0x0805       |     17 |              3 |
| [65535.80](#event-6553580) | 0x0816       |     16 |              2 |
| [65535.81](#event-6553581) | 0x0826       |     16 |              2 |
| [65535.82](#event-6553582) | 0x0836       |     16 |              2 |
| [65535.83](#event-6553583) | 0x0846       |     16 |              2 |
| [65535.84](#event-6553584) | 0x0856       |     17 |              3 |
| [65535.85](#event-6553585) | 0x0867       |     20 |              5 |
| [65535.86](#event-6553586) | 0x087B       |     12 |              4 |
| [65535.87](#event-6553587) | 0x0887       |     16 |              2 |
| [65535.88](#event-6553588) | 0x0897       |     16 |              2 |
| [65535.89](#event-6553589) | 0x08A7       |     16 |              2 |
| [65535.90](#event-6553590) | 0x08B7       |     16 |              2 |
| [65535.91](#event-6553591) | 0x08C7       |     16 |              2 |
| [65535.92](#event-6553592) | 0x08D7       |     16 |              2 |
| [65535.93](#event-6553593) | 0x08E7       |     16 |              2 |
| [65535.94](#event-6553594) | 0x08F7       |     20 |              5 |
| [65535.95](#event-6553595) | 0x090B       |     20 |              5 |
| [65535.96](#event-6553596) | 0x091F       |     16 |              2 |
| [65535.97](#event-6553597) | 0x092F       |     16 |              2 |

## DAT References (imed_data)

|   Index | Hex Value   |   Dec Value |
|---------|-------------|-------------|
|       0 | 0x0008      |           8 |
|       1 | 0x1D09      |        7433 |
|       2 | 0x1D0A      |        7434 |
|       3 | 0x0032      |          50 |
|       4 | 0x1D0B      |        7435 |
|       5 | 0x1D0C      |        7436 |
|       6 | 0x1D0D      |        7437 |
|       7 | 0x1D0E      |        7438 |
|       8 | 0x1D0F      |        7439 |
|       9 | 0x000A      |          10 |
|      10 | 0x1D10      |        7440 |
|      11 | 0x1D11      |        7441 |
|      12 | 0x1D12      |        7442 |
|      13 | 0x1F6F      |        8047 |
|      14 | 0x1F70      |        8048 |
|      15 | 0x1F75      |        8053 |
|      16 | 0x1F71      |        8049 |
|      17 | 0x0001      |           1 |
|      18 | 0x0000      |           0 |
|      19 | 0x1F72      |        8050 |
|      20 | 0x103A      |        4154 |
|      21 | 0x1F73      |        8051 |
|      22 | 0x1F74      |        8052 |
|      23 | 0x1F76      |        8054 |
|      24 | 0x1F77      |        8055 |
|      25 | 0x1F78      |        8056 |
|      26 | 0x1F79      |        8057 |
|      27 | 0x1F7C      |        8060 |
|      28 | 0x1F7D      |        8061 |
|      29 | 0x1F7E      |        8062 |
|      30 | 0x1F7F      |        8063 |
|      31 | 0x00C9      |         201 |
|      32 | 0x1F80      |        8064 |
|      33 | 0x000C      |          12 |
|      34 | 0xFFFED6C4  |  4294891204 |
|      35 | 0xFFFDEB5B  |  4294830939 |
|      36 | 0x000B      |          11 |
|      37 | 0xFFFE8B97  |  4294871959 |
|      38 | 0xFFFD9E68  |  4294811240 |
|      39 | 0xFFFF0D87  |  4294905223 |
|      40 | 0xFFFEA0EF  |  4294877423 |
|      41 | 0x176F      |        5999 |
|      42 | 0x0A3A      |        2618 |
|      43 | 0xFFFEB818  |  4294883352 |
|      44 | 0xFFFE098F  |  4294838671 |
|      45 | 0xFFFEF410  |  4294898704 |
|      46 | 0xFFFE85B9  |  4294870457 |
|      47 | 0xFFFEEC91  |  4294896785 |
|      48 | 0xFFFE6EA2  |  4294864546 |
|      49 | 0x0A2A      |        2602 |
|      50 | 0xFFFEE552  |  4294894930 |
|      51 | 0xFFFE3269  |  4294849129 |
|      52 | 0x0A39      |        2617 |
|      53 | 0x0045      |          69 |
|      54 | 0xFFFF2160  |  4294910304 |
|      55 | 0xFFFEA80E  |  4294879246 |
|      56 | 0x0A3D      |        2621 |
|      57 | 0x0A43      |        2627 |
|      58 | 0x004B      |          75 |
|      59 | 0xFFFFB20E  |  4294947342 |
|      60 | 0xFFFFAE2A  |  4294946346 |
|      61 | 0xFFFEDC35  |  4294892597 |
|      62 | 0xFFFE5D95  |  4294860181 |
|      63 | 0x0A47      |        2631 |
|      64 | 0x0055      |          85 |
|      65 | 0xFFFFB26F  |  4294947439 |
|      66 | 0xFFFFAB30  |  4294945584 |
|      67 | 0x000E      |          14 |
|      68 | 0xFFFF6C7D  |  4294929533 |
|      69 | 0xFFFF0AA4  |  4294904484 |
|      70 | 0xFFFFCBCA  |  4294953930 |
|      71 | 0x09E0      |        2528 |
|      72 | 0xFFFFFE3F  |  4294966847 |
|      73 | 0x0028      |          40 |
|      74 | 0x0029      |          41 |
|      75 | 0xFFFEEA26  |  4294896166 |
|      76 | 0xFFFE4F39  |  4294856505 |
|      77 | 0xFFFED8EC  |  4294891756 |
|      78 | 0xFFFE38BF  |  4294850751 |
|      79 | 0xFFFEC5BC  |  4294886844 |
|      80 | 0xFFFE1640  |  4294841920 |
|      81 | 0x03E7      |         999 |
|      82 | 0x0A33      |        2611 |
|      83 | 0x000D      |          13 |
|      84 | 0xFFFF04E1  |  4294903009 |
|      85 | 0xFFFE7108  |  4294865160 |
|      86 | 0x108C      |        4236 |
|      87 | 0x10F0      |        4336 |
|      88 | 0xFFFFC3F0  |  4294951920 |
|      89 | 0xFFFFA321  |  4294943521 |
|      90 | 0xFFFFFF9B  |  4294967195 |
|      91 | 0x0A18      |        2584 |
|      92 | 0xFFFFFC21  |  4294966305 |
|      93 | 0x084B      |        2123 |
|      94 | 0x0033      |          51 |
|      95 | 0xFFFF0DFA  |  4294905338 |
|      96 | 0xFFFE6C9D  |  4294864029 |
|      97 | 0xFFFEFBE3  |  4294900707 |
|      98 | 0xFFFE9775  |  4294874997 |
|      99 | 0xFFFF19CD  |  4294908365 |
|     100 | 0xFFFEAC62  |  4294880354 |
|     101 | 0xFFFECE8B  |  4294889099 |
|     102 | 0xFFFE3998  |  4294850968 |
|     103 | 0x0F9F      |        3999 |
|     104 | 0x0A17      |        2583 |
|     105 | 0xFFFFD965  |  4294957413 |
|     106 | 0xFFFFD99E  |  4294957470 |
|     107 | 0x0009      |           9 |
|     108 | 0xFFFEE68C  |  4294895244 |
|     109 | 0xFFFE6FBD  |  4294864829 |
|     110 | 0xFFFFE923  |  4294961443 |
|     111 | 0xFFFFEBBA  |  4294962106 |
|     112 | 0xFFFF4F66  |  4294922086 |
|     113 | 0xFFFEA394  |  4294878100 |
|     114 | 0xFFFFE891  |  4294961297 |
|     115 | 0xFFFFB859  |  4294948953 |
|     116 | 0xFFFFDFA2  |  4294959010 |
|     117 | 0xFFFFB9ED  |  4294949357 |
|     118 | 0xFFFFBF3D  |  4294950717 |
|     119 | 0xFFFFF407  |  4294964231 |
|     120 | 0xFFFFE105  |  4294959365 |
|     121 | 0x003C      |          60 |
|     122 | 0x0A40      |        2624 |
|     123 | 0xFFFF6A1D  |  4294928925 |
|     124 | 0xFFFEF858  |  4294899800 |
|     125 | 0xFFFFEA43  |  4294961731 |
|     126 | 0xFFFFF8F4  |  4294965492 |
|     127 | 0x0002      |           2 |
|     128 | 0xFFFFF533  |  4294964531 |
|     129 | 0x13C3      |        5059 |

## String References

- **7440**: Oh, you're a barrrd too? Then stop by more often!
- **7441**: Say, you should be a barrrd. What are you thinking?
- **7442**: See! That man by the table looks so full of life, doesn't he? Of course, not long ago I wouldn't have stood near him!
- **8049**: Interested? [You bet./Spare me.]

## Events

### Event 65535

#### Metadata

| Field        | Value   |
|--------------|---------|
| Entrypoint   | 0x0000  |
| Data Size    | 1 bytes |
| Instructions | 1       |

```
      00 01 02 03 04 05 06 07  08 09 0A 0B 0C 0D 0E 0F
      -- -- -- -- -- -- -- --  -- -- -- -- -- -- -- --
0000: 00                                                .               
```

#### Opcodes

```
  0: 0x0000 [0x00] END_REQSTACK()
```

### Event 181

#### Metadata

| Field        | Value    |
|--------------|----------|
| Entrypoint   | 0x0001   |
| Data Size    | 73 bytes |
| Instructions | 16       |

```
      00 01 02 03 04 05 06 07  08 09 0A 0B 0C 0D 0E 0F
      -- -- -- -- -- -- -- --  -- -- -- -- -- -- -- --
0000:    20 01 1E F0 FF FF 7F  6F 70 66 00 80 F8 FF FF    ......opf.....
0010: 7F F8 FF FF 7F 74 6C 6B  30 2B 1E 50 0F 01 01 80  .....tlk0+.P....
0020: 23 2B 1E 50 0F 01 02 80  23 66 03 80 F8 FF FF 7F  #+.P....#f......
0030: F8 FF FF 7F 75 72 65 30  2B 1E 50 0F 01 04 80 23  ....ure0+.P....#
0040: 2B 1E 50 0F 01 05 80 23  21 00                    +.P....#!.      
```

#### Opcodes

```
  0: 0x0001 [0x20] SET_CLI_EVENT_UC_FLAG: Lock player control
  1: 0x0003 [0x1E] EventEntity looks at LocalPlayer and starts talking
  2: 0x0008 [0x6F] WAIT_FRAME_DELAY: Yield until WaitTime reaches zero
  3: 0x0009 [0x70] WAIT_ENTITY_RENDER_FLAG: Wait while EventEntity->Render.Flags3 bit 2 is set (cancel turn if not)
  4: 0x000A [0x66] LOAD_EXT_SCHEDULER_MAIN: Load scheduler "tlk0" with entities [EventEntity, EventEntity], work=8*
  5: 0x0019 [0x2B] Bki Tbujhja (ID: 17780766/0x010F501E) [7433*]:
    → "Say, have you seen the song rrrunes in Buburimu? They contain the words to the song that torn-apart lovers sang to each other many years ago."
  6: 0x0020 [0x23] WAIT_FOR_DIALOG_INTERACTION
  7: 0x0021 [0x2B] Bki Tbujhja (ID: 17780766/0x010F501E) [7434*]:
    → "The lyrics are simple, but they hit you right in the heart. It's a really good song!"
  8: 0x0028 [0x23] WAIT_FOR_DIALOG_INTERACTION
  9: 0x0029 [0x66] LOAD_EXT_SCHEDULER_MAIN: Load scheduler "ure0" with entities [EventEntity, EventEntity], work=50*
 10: 0x0038 [0x2B] Bki Tbujhja (ID: 17780766/0x010F501E) [7435*]:
    → "No matter how much the worrrld changes, people are still the same. Oh, how I long to be loved like that..."
 11: 0x003F [0x23] WAIT_FOR_DIALOG_INTERACTION
 12: 0x0040 [0x2B] Bki Tbujhja (ID: 17780766/0x010F501E) [7436*]:
    → "Well, anyway... I bet those bitter lyrics would rrreally cheer up the broken-hearted."
 13: 0x0047 [0x23] WAIT_FOR_DIALOG_INTERACTION
 14: 0x0048 [0x21] END_EVENT
 15: 0x0049 [0x00] END_REQSTACK()
```

### Event 182

#### Metadata

| Field        | Value    |
|--------------|----------|
| Entrypoint   | 0x004A   |
| Data Size    | 50 bytes |
| Instructions | 13       |

```
      00 01 02 03 04 05 06 07  08 09 0A 0B 0C 0D 0E 0F
      -- -- -- -- -- -- -- --  -- -- -- -- -- -- -- --
0040:                                20 01 1E F0 FF FF             .....
0050: 7F 6F 70 66 03 80 F8 FF  FF 7F F8 FF FF 7F 74 6C  .opf..........tl
0060: 6B 30 2B 1E 50 0F 01 06  80 23 2B 1E 50 0F 01 07  k0+.P....#+.P...
0070: 80 23 2B 1E 50 0F 01 08  80 23 21 00              .#+.P....#!.    
```

#### Opcodes

```
  0: 0x004A [0x20] SET_CLI_EVENT_UC_FLAG: Lock player control
  1: 0x004C [0x1E] EventEntity looks at LocalPlayer and starts talking
  2: 0x0051 [0x6F] WAIT_FRAME_DELAY: Yield until WaitTime reaches zero
  3: 0x0052 [0x70] WAIT_ENTITY_RENDER_FLAG: Wait while EventEntity->Render.Flags3 bit 2 is set (cancel turn if not)
  4: 0x0053 [0x66] LOAD_EXT_SCHEDULER_MAIN: Load scheduler "tlk0" with entities [EventEntity, EventEntity], work=50*
  5: 0x0062 [0x2B] Bki Tbujhja (ID: 17780766/0x010F501E) [7437*]:
    → "Oh, you've been to Buburimu? They say couples descend on the place at nightfall. How do they dodge the monsterrrs?"
  6: 0x0069 [0x23] WAIT_FOR_DIALOG_INTERACTION
  7: 0x006A [0x2B] Bki Tbujhja (ID: 17780766/0x010F501E) [7438*]:
    → "And you know what? There's another set of rrrunes in Valkurm...with the opposing set of lyrics! It's a fabulous spot for a date; take it from me."
  8: 0x0071 [0x23] WAIT_FOR_DIALOG_INTERACTION
  9: 0x0072 [0x2B] Bki Tbujhja (ID: 17780766/0x010F501E) [7439*]:
    → "When you rrread the lyrics on Buburimu after you've seen the ones on Valkurm, it brings the tears all over again. Oh, sad songs are so moving!"
 10: 0x0079 [0x23] WAIT_FOR_DIALOG_INTERACTION
 11: 0x007A [0x21] END_EVENT
 12: 0x007B [0x00] END_REQSTACK()
```

### Event 180

#### Metadata

| Field        | Value    |
|--------------|----------|
| Entrypoint   | 0x007C   |
| Data Size    | 59 bytes |
| Instructions | 16       |

```
      00 01 02 03 04 05 06 07  08 09 0A 0B 0C 0D 0E 0F
      -- -- -- -- -- -- -- --  -- -- -- -- -- -- -- --
0070:                                      20 01 1E F0               ...
0080: FF FF 7F 6F 70 66 03 80  F8 FF FF 7F F8 FF FF 7F  ...opf..........
0090: 74 6C 6B 30 02 86 7F 09  80 00 A3 00 1D 0A 80 23  tlk0...........#
00A0: 01 B5 00 1D 0B 80 23 79  00 F8 FF FF 7F 1C 50 0F  ......#y......P.
00B0: 01 1D 0C 80 23 21 00                              ....#!.         
```

#### Opcodes

```
  0: 0x007C [0x20] SET_CLI_EVENT_UC_FLAG: Lock player control
  1: 0x007E [0x1E] EventEntity looks at LocalPlayer and starts talking
  2: 0x0083 [0x6F] WAIT_FRAME_DELAY: Yield until WaitTime reaches zero
  3: 0x0084 [0x70] WAIT_ENTITY_RENDER_FLAG: Wait while EventEntity->Render.Flags3 bit 2 is set (cancel turn if not)
  4: 0x0085 [0x66] LOAD_EXT_SCHEDULER_MAIN: Load scheduler "tlk0" with entities [EventEntity, EventEntity], work=50*
  5: 0x0094 [0x02] IF !(LocalPlayer->JobId == 10*) GOTO 0x00A3
  6: 0x009C [0x1D] PRINT_EVENT_MESSAGE(message_id=7440*)
    → "Oh, you're a barrrd too? Then stop by more often!"
  7: 0x009F [0x23] WAIT_FOR_DIALOG_INTERACTION
  8: 0x00A0 [0x01] GOTO 0x00B5
  9: 0x00A3 [0x1D] PRINT_EVENT_MESSAGE(message_id=7441*)
    → "Say, you should be a barrrd. What are you thinking?"
 10: 0x00A6 [0x23] WAIT_FOR_DIALOG_INTERACTION
 11: 0x00A7 [0x79] EventEntity looks at Mertaire (ID: 17780764/0x010F501C) (Basic look)
 12: 0x00B1 [0x1D] PRINT_EVENT_MESSAGE(message_id=7442*)
    → "See! That man by the table looks so full of life, doesn't he? Of course, not long ago I wouldn't have stood near him!"
 13: 0x00B4 [0x23] WAIT_FOR_DIALOG_INTERACTION

SUBROUTINE_00B5:
 14: 0x00B5 [0x21] END_EVENT
 15: 0x00B6 [0x00] END_REQSTACK()
```

### Event 145

#### Metadata

| Field        | Value    |
|--------------|----------|
| Entrypoint   | 0x00B7   |
| Data Size    | 58 bytes |
| Instructions | 12       |

```
      00 01 02 03 04 05 06 07  08 09 0A 0B 0C 0D 0E 0F
      -- -- -- -- -- -- -- --  -- -- -- -- -- -- -- --
00B0:                      1E  F0 FF FF 7F 6F 70 66 03         .....opf.
00C0: 80 F8 FF FF 7F F8 FF FF  7F 74 6C 6B 30 2B 1E 50  .........tlk0+.P
00D0: 0F 01 0D 80 23 66 03 80  F8 FF FF 7F F8 FF FF 7F  ....#f..........
00E0: 74 68 6B 31 2B 1E 50 0F  01 0E 80 23 1A 14 01 21  thk1+.P....#...!
00F0: 00                                                .               
```

#### Opcodes

```
  0: 0x00B7 [0x1E] EventEntity looks at LocalPlayer and starts talking
  1: 0x00BC [0x6F] WAIT_FRAME_DELAY: Yield until WaitTime reaches zero
  2: 0x00BD [0x70] WAIT_ENTITY_RENDER_FLAG: Wait while EventEntity->Render.Flags3 bit 2 is set (cancel turn if not)
  3: 0x00BE [0x66] LOAD_EXT_SCHEDULER_MAIN: Load scheduler "tlk0" with entities [EventEntity, EventEntity], work=50*
  4: 0x00CD [0x2B] Bki Tbujhja (ID: 17780766/0x010F501E) [8047*]:
    → "Say, I see you're quite a bard now. I'm looking for a bard, you see..."
  5: 0x00D4 [0x23] WAIT_FOR_DIALOG_INTERACTION
  6: 0x00D5 [0x66] LOAD_EXT_SCHEDULER_MAIN: Load scheduler "thk1" with entities [EventEntity, EventEntity], work=50*
  7: 0x00E4 [0x2B] Bki Tbujhja (ID: 17780766/0x010F501E) [8048*]:
    → "I thought you'd be a perfect match for this task. What do you say?"
  8: 0x00EB [0x23] WAIT_FOR_DIALOG_INTERACTION
  9: 0x00EC [0x1A] CALL_SUBROUTINE(address=0x0114)
 10: 0x00EF [0x21] END_EVENT
 11: 0x00F0 [0x00] END_REQSTACK()
```

### Event 148

#### Metadata

| Field        | Value     |
|--------------|-----------|
| Entrypoint   | 0x00F1    |
| Data Size    | 134 bytes |
| Instructions | 28        |

```
      00 01 02 03 04 05 06 07  08 09 0A 0B 0C 0D 0E 0F
      -- -- -- -- -- -- -- --  -- -- -- -- -- -- -- --
00F0:    1E F0 FF FF 7F 6F 70  66 03 80 F8 FF FF 7F F8   .....opf.......
0100: FF FF 7F 74 68 6B 31 2B  1E 50 0F 01 0F 80 23 1A  ...thk1+.P....#.
0110: 14 01 21 00 42 06 01 10  24 10 80 11 80 12 80 25  ..!.B...$......%
0120: 02 00 10 12 80 00 54 01  66 03 80 F8 FF FF 7F F8  ......T.f.......
0130: FF FF 7F 74 68 6B 32 2B  1E 50 0F 01 13 80 23 03  ...thk2+.P....#.
0140: 02 10 14 80 2B 1E 50 0F  01 15 80 23 03 01 10 11  ....+.P....#....
0150: 80 01 76 01 02 00 10 11  80 00 76 01 66 03 80 F8  ..v.......v.f...
0160: FF FF 7F F8 FF FF 7F 74  68 6B 32 2B 1E 50 0F 01  .......thk2+.P..
0170: 16 80 23 01 76 01 1B                              ..#.v..         
```

#### Opcodes

```
  0: 0x00F1 [0x1E] EventEntity looks at LocalPlayer and starts talking
  1: 0x00F6 [0x6F] WAIT_FRAME_DELAY: Yield until WaitTime reaches zero
  2: 0x00F7 [0x70] WAIT_ENTITY_RENDER_FLAG: Wait while EventEntity->Render.Flags3 bit 2 is set (cancel turn if not)
  3: 0x00F8 [0x66] LOAD_EXT_SCHEDULER_MAIN: Load scheduler "thk1" with entities [EventEntity, EventEntity], work=50*
  4: 0x0107 [0x2B] Bki Tbujhja (ID: 17780766/0x010F501E) [8053*]:
    → "Say, how about that task I told you about?"
  5: 0x010E [0x23] WAIT_FOR_DIALOG_INTERACTION
  6: 0x010F [0x1A] CALL_SUBROUTINE(address=0x0114)
  7: 0x0112 [0x21] END_EVENT
  8: 0x0113 [0x00] END_REQSTACK()

SUBROUTINE_0114:
  9: 0x0114 [0x42] SET_CLI_EVENT_CANCEL_DATA()
 10: 0x0115 [0x06] Work_Zone[1] = 0
 11: 0x0118 [0x24] CREATE_DIALOG(message_id=8049*, default_option=1*, option_flags=0*)
    → "Interested? [You bet./Spare me.]"
 12: 0x011F [0x25] WAIT_DIALOG_SELECT()
 13: 0x0120 [0x02] IF !(Work_Zone[0] == 0*) GOTO 0x0154
 14: 0x0128 [0x66] LOAD_EXT_SCHEDULER_MAIN: Load scheduler "thk2" with entities [EventEntity, EventEntity], work=50*
 15: 0x0137 [0x2B] Bki Tbujhja (ID: 17780766/0x010F501E) [8050*]:
    → "Thank goodness! Listen, it's such an onerous task that nobody wants to do it. I'm so lucky you're here!"
 16: 0x013E [0x23] WAIT_FOR_DIALOG_INTERACTION
 17: 0x013F [0x03] Work_Zone[2] = 4154*
 18: 0x0144 [0x2B] Bki Tbujhja (ID: 17780766/0x010F501E) [8051*]:
    → "Well, for starters, you'll need to bring me $0. Can't do much without one."
 19: 0x014B [0x23] WAIT_FOR_DIALOG_INTERACTION
 20: 0x014C [0x03] Work_Zone[1] = 1*
 21: 0x0151 [0x01] GOTO 0x0176
 22: 0x0154 [0x02] IF !(Work_Zone[0] == 1*) GOTO 0x0176
 23: 0x015C [0x66] LOAD_EXT_SCHEDULER_MAIN: Load scheduler "thk2" with entities [EventEntity, EventEntity], work=50*
 24: 0x016B [0x2B] Bki Tbujhja (ID: 17780766/0x010F501E) [8052*]:
    → "Oh, you're busy, huh? Well, who am I supposed to ask now? Bards like you don't exactly grow on trees, you know!"
 25: 0x0172 [0x23] WAIT_FOR_DIALOG_INTERACTION
 26: 0x0173 [0x01] GOTO 0x0176

SUBROUTINE_0176:
 27: 0x0176 [0x1B] RETURN
```

### Event 146

#### Metadata

| Field        | Value    |
|--------------|----------|
| Entrypoint   | 0x0177   |
| Data Size    | 20 bytes |
| Instructions | 6        |

```
      00 01 02 03 04 05 06 07  08 09 0A 0B 0C 0D 0E 0F
      -- -- -- -- -- -- -- --  -- -- -- -- -- -- -- --
0170:                      1E  F0 FF FF 7F 03 02 10 14         .........
0180: 80 2B 1E 50 0F 01 15 80  23 21 00                 .+.P....#!.     
```

#### Opcodes

```
  0: 0x0177 [0x1E] EventEntity looks at LocalPlayer and starts talking
  1: 0x017C [0x03] Work_Zone[2] = 4154*
  2: 0x0181 [0x2B] Bki Tbujhja (ID: 17780766/0x010F501E) [8051*]:
    → "Well, for starters, you'll need to bring me $0. Can't do much without one."
  3: 0x0188 [0x23] WAIT_FOR_DIALOG_INTERACTION
  4: 0x0189 [0x21] END_EVENT
  5: 0x018A [0x00] END_REQSTACK()
```

### Event 151

#### Metadata

| Field        | Value    |
|--------------|----------|
| Entrypoint   | 0x018B   |
| Data Size    | 92 bytes |
| Instructions | 17       |

```
      00 01 02 03 04 05 06 07  08 09 0A 0B 0C 0D 0E 0F
      -- -- -- -- -- -- -- --  -- -- -- -- -- -- -- --
0180:                                   20 01 42 1E F0              .B..
0190: FF FF 7F 66 03 80 F8 FF  FF 7F F8 FF FF 7F 74 6C  ...f..........tl
01A0: 6B 30 2B 1E 50 0F 01 17  80 23 66 03 80 F8 FF FF  k0+.P....#f.....
01B0: 7F F8 FF FF 7F 74 68 6B  31 2B 1E 50 0F 01 18 80  .....thk1+.P....
01C0: 23 66 03 80 F8 FF FF 7F  F8 FF FF 7F 74 68 6B 32  #f..........thk2
01D0: 2B 1E 50 0F 01 19 80 23  03 02 10 14 80 2B 1E 50  +.P....#.....+.P
01E0: 0F 01 1A 80 23 21 00                              ....#!.         
```

#### Opcodes

```
  0: 0x018B [0x20] SET_CLI_EVENT_UC_FLAG: Lock player control
  1: 0x018D [0x42] SET_CLI_EVENT_CANCEL_DATA()
  2: 0x018E [0x1E] EventEntity looks at LocalPlayer and starts talking
  3: 0x0193 [0x66] LOAD_EXT_SCHEDULER_MAIN: Load scheduler "tlk0" with entities [EventEntity, EventEntity], work=50*
  4: 0x01A2 [0x2B] Bki Tbujhja (ID: 17780766/0x010F501E) [8054*]:
    → "Good, this will do nicely. Now for the task! I want you to visit the grave of a great bard of yesteryear and pray for him."
  5: 0x01A9 [0x23] WAIT_FOR_DIALOG_INTERACTION
  6: 0x01AA [0x66] LOAD_EXT_SCHEDULER_MAIN: Load scheduler "thk1" with entities [EventEntity, EventEntity], work=50*
  7: 0x01B9 [0x2B] Bki Tbujhja (ID: 17780766/0x010F501E) [8055*]:
    → "Why, you ask? I don't know; it's just something we always do. They say he met a tragic end. Go ask other bards if you want to learn about him."
  8: 0x01C0 [0x23] WAIT_FOR_DIALOG_INTERACTION
  9: 0x01C1 [0x66] LOAD_EXT_SCHEDULER_MAIN: Load scheduler "thk2" with entities [EventEntity, EventEntity], work=50*
 10: 0x01D0 [0x2B] Bki Tbujhja (ID: 17780766/0x010F501E) [8056*]:
    → "His stone sarcophagus is deep inside the Eldieme Necropolis. It's one of several, and I can't remember which. Well, you'll find it."
 11: 0x01D7 [0x23] WAIT_FOR_DIALOG_INTERACTION
 12: 0x01D8 [0x03] Work_Zone[2] = 4154*
 13: 0x01DD [0x2B] Bki Tbujhja (ID: 17780766/0x010F501E) [8057*]:
    → "A little investigation will reveal which one is his. Purify it with that $0 and play the requiem. You don't know the tune? It's okay, just go!"
 14: 0x01E4 [0x23] WAIT_FOR_DIALOG_INTERACTION
 15: 0x01E5 [0x21] END_EVENT
 16: 0x01E6 [0x00] END_REQSTACK()
```

### Event 147

#### Metadata

| Field        | Value    |
|--------------|----------|
| Entrypoint   | 0x01E7   |
| Data Size    | 20 bytes |
| Instructions | 6        |

```
      00 01 02 03 04 05 06 07  08 09 0A 0B 0C 0D 0E 0F
      -- -- -- -- -- -- -- --  -- -- -- -- -- -- -- --
01E0:                      1E  F0 FF FF 7F 03 02 10 14         .........
01F0: 80 2B 1E 50 0F 01 1B 80  23 21 00                 .+.P....#!.     
```

#### Opcodes

```
  0: 0x01E7 [0x1E] EventEntity looks at LocalPlayer and starts talking
  1: 0x01EC [0x03] Work_Zone[2] = 4154*
  2: 0x01F1 [0x2B] Bki Tbujhja (ID: 17780766/0x010F501E) [8060*]:
    → "Oh, did you take the $0 and play the requiem? The task isn't complete until you've done both!"
  3: 0x01F8 [0x23] WAIT_FOR_DIALOG_INTERACTION
  4: 0x01F9 [0x21] END_EVENT
  5: 0x01FA [0x00] END_REQSTACK()
```

### Event 149

#### Metadata

| Field        | Value    |
|--------------|----------|
| Entrypoint   | 0x01FB   |
| Data Size    | 28 bytes |
| Instructions | 8        |

```
      00 01 02 03 04 05 06 07  08 09 0A 0B 0C 0D 0E 0F
      -- -- -- -- -- -- -- --  -- -- -- -- -- -- -- --
01F0:                                   1E F0 FF FF 7F             .....
0200: 2B 1E 50 0F 01 19 80 23  03 02 10 14 80 2B 1E 50  +.P....#.....+.P
0210: 0F 01 1A 80 23 21 00                              ....#!.         
```

#### Opcodes

```
  0: 0x01FB [0x1E] EventEntity looks at LocalPlayer and starts talking
  1: 0x0200 [0x2B] Bki Tbujhja (ID: 17780766/0x010F501E) [8056*]:
    → "His stone sarcophagus is deep inside the Eldieme Necropolis. It's one of several, and I can't remember which. Well, you'll find it."
  2: 0x0207 [0x23] WAIT_FOR_DIALOG_INTERACTION
  3: 0x0208 [0x03] Work_Zone[2] = 4154*
  4: 0x020D [0x2B] Bki Tbujhja (ID: 17780766/0x010F501E) [8057*]:
    → "A little investigation will reveal which one is his. Purify it with that $0 and play the requiem. You don't know the tune? It's okay, just go!"
  5: 0x0214 [0x23] WAIT_FOR_DIALOG_INTERACTION
  6: 0x0215 [0x21] END_EVENT
  7: 0x0216 [0x00] END_REQSTACK()
```

### Event 150

#### Metadata

| Field        | Value     |
|--------------|-----------|
| Entrypoint   | 0x0217    |
| Data Size    | 111 bytes |
| Instructions | 18        |

```
      00 01 02 03 04 05 06 07  08 09 0A 0B 0C 0D 0E 0F
      -- -- -- -- -- -- -- --  -- -- -- -- -- -- -- --
0210:                      20  01 42 1E F0 FF FF 7F 6F          .B.....o
0220: 70 66 00 80 F8 FF FF 7F  F8 FF FF 7F 75 72 65 30  pf..........ure0
0230: 2B 1E 50 0F 01 1C 80 23  53 F8 FF FF 7F F8 FF FF  +.P....#S.......
0240: 7F 75 72 65 30 66 03 80  F8 FF FF 7F F8 FF FF 7F  .ure0f..........
0250: 74 68 6B 31 2B 1E 50 0F  01 1D 80 23 66 03 80 F8  thk1+.P....#f...
0260: FF FF 7F F8 FF FF 7F 74  68 6B 32 2B 1E 50 0F 01  .......thk2+.P..
0270: 1E 80 23 45 1F 80 F0 FF  FF 7F F0 FF FF 7F 71 73  ..#E..........qs
0280: 74 63 12 80 21 00                                 tc..!.          
```

#### Opcodes

```
  0: 0x0217 [0x20] SET_CLI_EVENT_UC_FLAG: Lock player control
  1: 0x0219 [0x42] SET_CLI_EVENT_CANCEL_DATA()
  2: 0x021A [0x1E] EventEntity looks at LocalPlayer and starts talking
  3: 0x021F [0x6F] WAIT_FRAME_DELAY: Yield until WaitTime reaches zero
  4: 0x0220 [0x70] WAIT_ENTITY_RENDER_FLAG: Wait while EventEntity->Render.Flags3 bit 2 is set (cancel turn if not)
  5: 0x0221 [0x66] LOAD_EXT_SCHEDULER_MAIN: Load scheduler "ure0" with entities [EventEntity, EventEntity], work=8*
  6: 0x0230 [0x2B] Bki Tbujhja (ID: 17780766/0x010F501E) [8061*]:
    → "Good work, <Player>! Yeah, sorry I didn't tell you about the monsters. Otherwise nobody would go! Understand?"
  7: 0x0237 [0x23] WAIT_FOR_DIALOG_INTERACTION
  8: 0x0238 [0x53] WAIT_SCHEDULER_TASK: Wait for scheduler "ure0" with entities [EventEntity, EventEntity]
  9: 0x0245 [0x66] LOAD_EXT_SCHEDULER_MAIN: Load scheduler "thk1" with entities [EventEntity, EventEntity], work=50*
 10: 0x0254 [0x2B] Bki Tbujhja (ID: 17780766/0x010F501E) [8062*]:
    → "Huh? After that a man came and gave you a ring? I hope he wasn't a grave robber!"
 11: 0x025B [0x23] WAIT_FOR_DIALOG_INTERACTION
 12: 0x025C [0x66] LOAD_EXT_SCHEDULER_MAIN: Load scheduler "thk2" with entities [EventEntity, EventEntity], work=50*
 13: 0x026B [0x2B] Bki Tbujhja (ID: 17780766/0x010F501E) [8063*]:
    → "But don't give that ring to me; I hate antiques. Anyway, here's your reward. Thanks again!"
 14: 0x0272 [0x23] WAIT_FOR_DIALOG_INTERACTION
 15: 0x0273 [0x45] LOAD_SCHEDULED_TASK: Load scheduler "qstc" with entities [LocalPlayer, LocalPlayer], work=[201*, 0*]
 16: 0x0284 [0x21] END_EVENT
 17: 0x0285 [0x00] END_REQSTACK()
```

### Event 134

#### Metadata

| Field        | Value    |
|--------------|----------|
| Entrypoint   | 0x0286   |
| Data Size    | 16 bytes |
| Instructions | 5        |

```
      00 01 02 03 04 05 06 07  08 09 0A 0B 0C 0D 0E 0F
      -- -- -- -- -- -- -- --  -- -- -- -- -- -- -- --
0280:                   1E F0  FF FF 7F 2B 1E 50 0F 01        .....+.P..
0290: 20 80 23 21 00 00                                  .#!..          
```

#### Opcodes

```
  0: 0x0286 [0x1E] EventEntity looks at LocalPlayer and starts talking
  1: 0x028B [0x2B] Bki Tbujhja (ID: 17780766/0x010F501E) [8064*]:
    → "Well, that's out of the way. Now who should I ask for the next task? Bards can be so selfish sometimes!"
  2: 0x0292 [0x23] WAIT_FOR_DIALOG_INTERACTION
  3: 0x0293 [0x21] END_EVENT
  4: 0x0294 [0x00] END_REQSTACK()
```

#### Data or dead code:

```
# Dead code (unreachable instructions):
     0x0295 [0x00] END_REQSTACK()
```

### Event 10094

#### Metadata

| Field        | Value   |
|--------------|---------|
| Entrypoint   | 0x0296  |
| Data Size    | 5 bytes |
| Instructions | 2       |

```
      00 01 02 03 04 05 06 07  08 09 0A 0B 0C 0D 0E 0F
      -- -- -- -- -- -- -- --  -- -- -- -- -- -- -- --
0290:                   C0 11  80 00 00                       .....     
```

#### Opcodes

```
  0: 0x0296 [0xC0] EventEntity->Render.Flags3 |= 0x1000 // Set bit 12 (from 1*)
  1: 0x0299 [0x00] END_REQSTACK()
```

#### Data or dead code:

```
# Dead code (unreachable instructions):
     0x029A [0x00] END_REQSTACK()
```

### Event 65535.1

#### Metadata

| Field        | Value    |
|--------------|----------|
| Entrypoint   | 0x029B   |
| Data Size    | 20 bytes |
| Instructions | 5        |

```
      00 01 02 03 04 05 06 07  08 09 0A 0B 0C 0D 0E 0F
      -- -- -- -- -- -- -- --  -- -- -- -- -- -- -- --
0290:                                   59 04 0B 50 0F             Y..P.
02A0: 01 21 80 1F 00 22 80 23  80 12 80 1F 01 6F 00     .!...".#.....o. 
```

#### Opcodes

```
  0: 0x029B [0x59] UPDATE_ENTITY_DATA: Set Garnev (ID: 17780747/0x010F500B) main speed = 12* * 0.1
  1: 0x02A3 [0x1F] MOVE_ENTITY: EventEntity moves to X=-76.092*, Z=-136.357*, Y=0.000*
  2: 0x02AB [0x1F] MOVE_ENTITY: Update entity position (mode=1)
  3: 0x02AD [0x6F] WAIT_FRAME_DELAY: Yield until WaitTime reaches zero
  4: 0x02AE [0x00] END_REQSTACK()
```

### Event 65535.2

#### Metadata

| Field        | Value    |
|--------------|----------|
| Entrypoint   | 0x02AF   |
| Data Size    | 20 bytes |
| Instructions | 5        |

```
      00 01 02 03 04 05 06 07  08 09 0A 0B 0C 0D 0E 0F
      -- -- -- -- -- -- -- --  -- -- -- -- -- -- -- --
02A0:                                               59                 Y
02B0: 04 1D 50 0F 01 24 80 1F  00 25 80 26 80 12 80 1F  ..P..$...%.&....
02C0: 01 6F 00                                          .o.             
```

#### Opcodes

```
  0: 0x02AF [0x59] UPDATE_ENTITY_DATA: Set Mataligeat (ID: 17780765/0x010F501D) main speed = 11* * 0.1
  1: 0x02B7 [0x1F] MOVE_ENTITY: EventEntity moves to X=-95.337*, Z=-156.056*, Y=0.000*
  2: 0x02BF [0x1F] MOVE_ENTITY: Update entity position (mode=1)
  3: 0x02C1 [0x6F] WAIT_FRAME_DELAY: Yield until WaitTime reaches zero
  4: 0x02C2 [0x00] END_REQSTACK()
```

### Event 65535.3

#### Metadata

| Field        | Value    |
|--------------|----------|
| Entrypoint   | 0x02C3   |
| Data Size    | 20 bytes |
| Instructions | 5        |

```
      00 01 02 03 04 05 06 07  08 09 0A 0B 0C 0D 0E 0F
      -- -- -- -- -- -- -- --  -- -- -- -- -- -- -- --
02C0:          59 04 1D 50 0F  01 24 80 1F 00 27 80 28     Y..P..$...'.(
02D0: 80 29 80 1F 01 6F 00                              .)...o.         
```

#### Opcodes

```
  0: 0x02C3 [0x59] UPDATE_ENTITY_DATA: Set Mataligeat (ID: 17780765/0x010F501D) main speed = 11* * 0.1
  1: 0x02CB [0x1F] MOVE_ENTITY: EventEntity moves to X=-62.073*, Z=-89.873*, Y=5.999*
  2: 0x02D3 [0x1F] MOVE_ENTITY: Update entity position (mode=1)
  3: 0x02D5 [0x6F] WAIT_FRAME_DELAY: Yield until WaitTime reaches zero
  4: 0x02D6 [0x00] END_REQSTACK()
```

### Event 65535.4

#### Metadata

| Field        | Value    |
|--------------|----------|
| Entrypoint   | 0x02D7   |
| Data Size    | 17 bytes |
| Instructions | 2        |

```
      00 01 02 03 04 05 06 07  08 09 0A 0B 0C 0D 0E 0F
      -- -- -- -- -- -- -- --  -- -- -- -- -- -- -- --
02D0:                      5B  2A 80 1D 50 0F 01 1D 50         [*..P...P
02E0: 0F 01 6F 70 30 30 00 00                           ..op00..        
```

#### Opcodes

```
  0: 0x02D7 [0x5B] LOAD_EXT_SCHEDULER: Load scheduler "op00" with entities [Mataligeat (ID: 17780765/0x010F501D), Mataligeat (ID: 17780765/0x010F501D)], work=2618*
  1: 0x02E6 [0x00] END_REQSTACK()
```

#### Data or dead code:

```
# Dead code (unreachable instructions):
     0x02E7 [0x00] END_REQSTACK()
```

### Event 65535.5

#### Metadata

| Field        | Value    |
|--------------|----------|
| Entrypoint   | 0x02E8   |
| Data Size    | 20 bytes |
| Instructions | 5        |

```
      00 01 02 03 04 05 06 07  08 09 0A 0B 0C 0D 0E 0F
      -- -- -- -- -- -- -- --  -- -- -- -- -- -- -- --
02E0:                          59 04 3A 50 0F 01 24 80          Y.:P..$.
02F0: 1F 00 25 80 26 80 12 80  1F 01 6F 00              ..%.&.....o.    
```

#### Opcodes

```
  0: 0x02E8 [0x59] UPDATE_ENTITY_DATA: Set Navisse (ID: 17780794/0x010F503A) main speed = 11* * 0.1
  1: 0x02F0 [0x1F] MOVE_ENTITY: EventEntity moves to X=-95.337*, Z=-156.056*, Y=0.000*
  2: 0x02F8 [0x1F] MOVE_ENTITY: Update entity position (mode=1)
  3: 0x02FA [0x6F] WAIT_FRAME_DELAY: Yield until WaitTime reaches zero
  4: 0x02FB [0x00] END_REQSTACK()
```

### Event 65535.6

#### Metadata

| Field        | Value    |
|--------------|----------|
| Entrypoint   | 0x02FC   |
| Data Size    | 20 bytes |
| Instructions | 5        |

```
      00 01 02 03 04 05 06 07  08 09 0A 0B 0C 0D 0E 0F
      -- -- -- -- -- -- -- --  -- -- -- -- -- -- -- --
02F0:                                      59 04 2C 50              Y.,P
0300: 0F 01 21 80 1F 00 2B 80  2C 80 12 80 1F 01 6F 00  ..!...+.,.....o.
```

#### Opcodes

```
  0: 0x02FC [0x59] UPDATE_ENTITY_DATA: Set Jazmin (ID: 17780780/0x010F502C) main speed = 12* * 0.1
  1: 0x0304 [0x1F] MOVE_ENTITY: EventEntity moves to X=-83.944*, Z=-128.625*, Y=0.000*
  2: 0x030C [0x1F] MOVE_ENTITY: Update entity position (mode=1)
  3: 0x030E [0x6F] WAIT_FRAME_DELAY: Yield until WaitTime reaches zero
  4: 0x030F [0x00] END_REQSTACK()
```

### Event 65535.7

#### Metadata

| Field        | Value    |
|--------------|----------|
| Entrypoint   | 0x0310   |
| Data Size    | 19 bytes |
| Instructions | 4        |

```
      00 01 02 03 04 05 06 07  08 09 0A 0B 0C 0D 0E 0F
      -- -- -- -- -- -- -- --  -- -- -- -- -- -- -- --
0310: 59 04 2C 50 0F 01 24 80  1F 00 2D 80 2E 80 29 80  Y.,P..$...-...).
0320: 1F 01 00                                          ...             
```

#### Opcodes

```
  0: 0x0310 [0x59] UPDATE_ENTITY_DATA: Set Jazmin (ID: 17780780/0x010F502C) main speed = 11* * 0.1
  1: 0x0318 [0x1F] MOVE_ENTITY: EventEntity moves to X=-68.592*, Z=-96.839*, Y=5.999*
  2: 0x0320 [0x1F] MOVE_ENTITY: Update entity position (mode=1)
  3: 0x0322 [0x00] END_REQSTACK()
```

### Event 65535.8

#### Metadata

| Field        | Value    |
|--------------|----------|
| Entrypoint   | 0x0323   |
| Data Size    | 19 bytes |
| Instructions | 4        |

```
      00 01 02 03 04 05 06 07  08 09 0A 0B 0C 0D 0E 0F
      -- -- -- -- -- -- -- --  -- -- -- -- -- -- -- --
0320:          59 04 2C 50 0F  01 24 80 1F 00 2F 80 30     Y.,P..$.../.0
0330: 80 29 80 1F 01 00                                 .)....          
```

#### Opcodes

```
  0: 0x0323 [0x59] UPDATE_ENTITY_DATA: Set Jazmin (ID: 17780780/0x010F502C) main speed = 11* * 0.1
  1: 0x032B [0x1F] MOVE_ENTITY: EventEntity moves to X=-70.511*, Z=-102.750*, Y=5.999*
  2: 0x0333 [0x1F] MOVE_ENTITY: Update entity position (mode=1)
  3: 0x0335 [0x00] END_REQSTACK()
```

### Event 65535.9

#### Metadata

| Field        | Value    |
|--------------|----------|
| Entrypoint   | 0x0336   |
| Data Size    | 16 bytes |
| Instructions | 2        |

```
      00 01 02 03 04 05 06 07  08 09 0A 0B 0C 0D 0E 0F
      -- -- -- -- -- -- -- --  -- -- -- -- -- -- -- --
0330:                   5B 31  80 2C 50 0F 01 2C 50 0F        [1.,P..,P.
0340: 01 6F 70 30 30 00                                 .op00.          
```

#### Opcodes

```
  0: 0x0336 [0x5B] LOAD_EXT_SCHEDULER: Load scheduler "op00" with entities [Jazmin (ID: 17780780/0x010F502C), Jazmin (ID: 17780780/0x010F502C)], work=2602*
  1: 0x0345 [0x00] END_REQSTACK()
```

### Event 65535.10

#### Metadata

| Field        | Value    |
|--------------|----------|
| Entrypoint   | 0x0346   |
| Data Size    | 16 bytes |
| Instructions | 2        |

```
      00 01 02 03 04 05 06 07  08 09 0A 0B 0C 0D 0E 0F
      -- -- -- -- -- -- -- --  -- -- -- -- -- -- -- --
0340:                   5B 31  80 2C 50 0F 01 2C 50 0F        [1.,P..,P.
0350: 01 6F 70 30 31 00                                 .op01.          
```

#### Opcodes

```
  0: 0x0346 [0x5B] LOAD_EXT_SCHEDULER: Load scheduler "op01" with entities [Jazmin (ID: 17780780/0x010F502C), Jazmin (ID: 17780780/0x010F502C)], work=2602*
  1: 0x0355 [0x00] END_REQSTACK()
```

### Event 65535.11

#### Metadata

| Field        | Value    |
|--------------|----------|
| Entrypoint   | 0x0356   |
| Data Size    | 20 bytes |
| Instructions | 5        |

```
      00 01 02 03 04 05 06 07  08 09 0A 0B 0C 0D 0E 0F
      -- -- -- -- -- -- -- --  -- -- -- -- -- -- -- --
0350:                   59 04  2C 50 0F 01 24 80 1F 00        Y.,P..$...
0360: 32 80 33 80 29 80 1F 01  6F 00                    2.3.)...o.      
```

#### Opcodes

```
  0: 0x0356 [0x59] UPDATE_ENTITY_DATA: Set Jazmin (ID: 17780780/0x010F502C) main speed = 11* * 0.1
  1: 0x035E [0x1F] MOVE_ENTITY: EventEntity moves to X=-72.366*, Z=-118.167*, Y=5.999*
  2: 0x0366 [0x1F] MOVE_ENTITY: Update entity position (mode=1)
  3: 0x0368 [0x6F] WAIT_FRAME_DELAY: Yield until WaitTime reaches zero
  4: 0x0369 [0x00] END_REQSTACK()
```

### Event 65535.12

#### Metadata

| Field        | Value    |
|--------------|----------|
| Entrypoint   | 0x036A   |
| Data Size    | 16 bytes |
| Instructions | 2        |

```
      00 01 02 03 04 05 06 07  08 09 0A 0B 0C 0D 0E 0F
      -- -- -- -- -- -- -- --  -- -- -- -- -- -- -- --
0360:                                5B 34 80 2C 50 0F            [4.,P.
0370: 01 2C 50 0F 01 6F 70 61  30 00                    .,P..opa0.      
```

#### Opcodes

```
  0: 0x036A [0x5B] LOAD_EXT_SCHEDULER: Load scheduler "opa0" with entities [Jazmin (ID: 17780780/0x010F502C), Jazmin (ID: 17780780/0x010F502C)], work=2617*
  1: 0x0379 [0x00] END_REQSTACK()
```

### Event 65535.13

#### Metadata

| Field        | Value    |
|--------------|----------|
| Entrypoint   | 0x037A   |
| Data Size    | 16 bytes |
| Instructions | 2        |

```
      00 01 02 03 04 05 06 07  08 09 0A 0B 0C 0D 0E 0F
      -- -- -- -- -- -- -- --  -- -- -- -- -- -- -- --
0370:                                5B 34 80 2C 50 0F            [4.,P.
0380: 01 2C 50 0F 01 6F 70 61  31 00                    .,P..opa1.      
```

#### Opcodes

```
  0: 0x037A [0x5B] LOAD_EXT_SCHEDULER: Load scheduler "opa1" with entities [Jazmin (ID: 17780780/0x010F502C), Jazmin (ID: 17780780/0x010F502C)], work=2617*
  1: 0x0389 [0x00] END_REQSTACK()
```

### Event 65535.14

#### Metadata

| Field        | Value    |
|--------------|----------|
| Entrypoint   | 0x038A   |
| Data Size    | 16 bytes |
| Instructions | 2        |

```
      00 01 02 03 04 05 06 07  08 09 0A 0B 0C 0D 0E 0F
      -- -- -- -- -- -- -- --  -- -- -- -- -- -- -- --
0380:                                5B 34 80 2C 50 0F            [4.,P.
0390: 01 2C 50 0F 01 6F 70 61  32 00                    .,P..opa2.      
```

#### Opcodes

```
  0: 0x038A [0x5B] LOAD_EXT_SCHEDULER: Load scheduler "opa2" with entities [Jazmin (ID: 17780780/0x010F502C), Jazmin (ID: 17780780/0x010F502C)], work=2617*
  1: 0x0399 [0x00] END_REQSTACK()
```

### Event 65535.15

#### Metadata

| Field        | Value    |
|--------------|----------|
| Entrypoint   | 0x039A   |
| Data Size    | 21 bytes |
| Instructions | 5        |

```
      00 01 02 03 04 05 06 07  08 09 0A 0B 0C 0D 0E 0F
      -- -- -- -- -- -- -- --  -- -- -- -- -- -- -- --
0390:                                59 04 2E 50 0F 01            Y..P..
03A0: 21 80 1F 00 22 80 23 80  12 80 1F 01 6F 00 00     !...".#.....o.. 
```

#### Opcodes

```
  0: 0x039A [0x59] UPDATE_ENTITY_DATA: Set Bogharg (ID: 17780782/0x010F502E) main speed = 12* * 0.1
  1: 0x03A2 [0x1F] MOVE_ENTITY: EventEntity moves to X=-76.092*, Z=-136.357*, Y=0.000*
  2: 0x03AA [0x1F] MOVE_ENTITY: Update entity position (mode=1)
  3: 0x03AC [0x6F] WAIT_FRAME_DELAY: Yield until WaitTime reaches zero
  4: 0x03AD [0x00] END_REQSTACK()
```

#### Data or dead code:

```
# Dead code (unreachable instructions):
     0x03AE [0x00] END_REQSTACK()
```

### Event 65535.16

#### Metadata

| Field        | Value    |
|--------------|----------|
| Entrypoint   | 0x03AF   |
| Data Size    | 16 bytes |
| Instructions | 2        |

```
      00 01 02 03 04 05 06 07  08 09 0A 0B 0C 0D 0E 0F
      -- -- -- -- -- -- -- --  -- -- -- -- -- -- -- --
03A0:                                               66                 f
03B0: 35 80 2E 50 0F 01 2E 50  0F 01 74 68 6B 31 00     5..P...P..thk1. 
```

#### Opcodes

```
  0: 0x03AF [0x66] LOAD_EXT_SCHEDULER_MAIN: Load scheduler "thk1" with entities [Bogharg (ID: 17780782/0x010F502E), Bogharg (ID: 17780782/0x010F502E)], work=69*
  1: 0x03BE [0x00] END_REQSTACK()
```

### Event 65535.17

#### Metadata

| Field        | Value    |
|--------------|----------|
| Entrypoint   | 0x03BF   |
| Data Size    | 16 bytes |
| Instructions | 2        |

```
      00 01 02 03 04 05 06 07  08 09 0A 0B 0C 0D 0E 0F
      -- -- -- -- -- -- -- --  -- -- -- -- -- -- -- --
03B0:                                               66                 f
03C0: 35 80 2E 50 0F 01 2E 50  0F 01 74 68 6B 32 00     5..P...P..thk2. 
```

#### Opcodes

```
  0: 0x03BF [0x66] LOAD_EXT_SCHEDULER_MAIN: Load scheduler "thk2" with entities [Bogharg (ID: 17780782/0x010F502E), Bogharg (ID: 17780782/0x010F502E)], work=69*
  1: 0x03CE [0x00] END_REQSTACK()
```

### Event 65535.18

#### Metadata

| Field        | Value    |
|--------------|----------|
| Entrypoint   | 0x03CF   |
| Data Size    | 20 bytes |
| Instructions | 5        |

```
      00 01 02 03 04 05 06 07  08 09 0A 0B 0C 0D 0E 0F
      -- -- -- -- -- -- -- --  -- -- -- -- -- -- -- --
03C0:                                               59                 Y
03D0: 04 2E 50 0F 01 21 80 1F  00 36 80 37 80 29 80 1F  ..P..!...6.7.)..
03E0: 01 6F 00                                          .o.             
```

#### Opcodes

```
  0: 0x03CF [0x59] UPDATE_ENTITY_DATA: Set Bogharg (ID: 17780782/0x010F502E) main speed = 12* * 0.1
  1: 0x03D7 [0x1F] MOVE_ENTITY: EventEntity moves to X=-56.992*, Z=-88.050*, Y=5.999*
  2: 0x03DF [0x1F] MOVE_ENTITY: Update entity position (mode=1)
  3: 0x03E1 [0x6F] WAIT_FRAME_DELAY: Yield until WaitTime reaches zero
  4: 0x03E2 [0x00] END_REQSTACK()
```

### Event 65535.19

#### Metadata

| Field        | Value    |
|--------------|----------|
| Entrypoint   | 0x03E3   |
| Data Size    | 17 bytes |
| Instructions | 2        |

```
      00 01 02 03 04 05 06 07  08 09 0A 0B 0C 0D 0E 0F
      -- -- -- -- -- -- -- --  -- -- -- -- -- -- -- --
03E0:          5B 38 80 2E 50  0F 01 2E 50 0F 01 6F 70     [8..P...P..op
03F0: 30 30 00 00                                       00..            
```

#### Opcodes

```
  0: 0x03E3 [0x5B] LOAD_EXT_SCHEDULER: Load scheduler "op00" with entities [Bogharg (ID: 17780782/0x010F502E), Bogharg (ID: 17780782/0x010F502E)], work=2621*
  1: 0x03F2 [0x00] END_REQSTACK()
```

#### Data or dead code:

```
# Dead code (unreachable instructions):
     0x03F3 [0x00] END_REQSTACK()
```

### Event 65535.20

#### Metadata

| Field        | Value    |
|--------------|----------|
| Entrypoint   | 0x03F4   |
| Data Size    | 20 bytes |
| Instructions | 5        |

```
      00 01 02 03 04 05 06 07  08 09 0A 0B 0C 0D 0E 0F
      -- -- -- -- -- -- -- --  -- -- -- -- -- -- -- --
03F0:             59 04 31 50  0F 01 24 80 1F 00 2B 80      Y.1P..$...+.
0400: 2C 80 12 80 1F 01 6F 00                           ,.....o.        
```

#### Opcodes

```
  0: 0x03F4 [0x59] UPDATE_ENTITY_DATA: Set Nakho Jawantal (ID: 17780785/0x010F5031) main speed = 11* * 0.1
  1: 0x03FC [0x1F] MOVE_ENTITY: EventEntity moves to X=-83.944*, Z=-128.625*, Y=0.000*
  2: 0x0404 [0x1F] MOVE_ENTITY: Update entity position (mode=1)
  3: 0x0406 [0x6F] WAIT_FRAME_DELAY: Yield until WaitTime reaches zero
  4: 0x0407 [0x00] END_REQSTACK()
```

### Event 65535.21

#### Metadata

| Field        | Value    |
|--------------|----------|
| Entrypoint   | 0x0408   |
| Data Size    | 16 bytes |
| Instructions | 2        |

```
      00 01 02 03 04 05 06 07  08 09 0A 0B 0C 0D 0E 0F
      -- -- -- -- -- -- -- --  -- -- -- -- -- -- -- --
0400:                          5B 39 80 12 50 0F 01 12          [9..P...
0410: 50 0F 01 6F 70 61 30 00                           P..opa0.        
```

#### Opcodes

```
  0: 0x0408 [0x5B] LOAD_EXT_SCHEDULER: Load scheduler "opa0" with entities [Tovrutaux (ID: 17780754/0x010F5012), Tovrutaux (ID: 17780754/0x010F5012)], work=2627*
  1: 0x0417 [0x00] END_REQSTACK()
```

### Event 65535.22

#### Metadata

| Field        | Value    |
|--------------|----------|
| Entrypoint   | 0x0418   |
| Data Size    | 16 bytes |
| Instructions | 2        |

```
      00 01 02 03 04 05 06 07  08 09 0A 0B 0C 0D 0E 0F
      -- -- -- -- -- -- -- --  -- -- -- -- -- -- -- --
0410:                          5B 39 80 12 50 0F 01 12          [9..P...
0420: 50 0F 01 6F 70 61 31 00                           P..opa1.        
```

#### Opcodes

```
  0: 0x0418 [0x5B] LOAD_EXT_SCHEDULER: Load scheduler "opa1" with entities [Tovrutaux (ID: 17780754/0x010F5012), Tovrutaux (ID: 17780754/0x010F5012)], work=2627*
  1: 0x0427 [0x00] END_REQSTACK()
```

### Event 65535.23

#### Metadata

| Field        | Value    |
|--------------|----------|
| Entrypoint   | 0x0428   |
| Data Size    | 16 bytes |
| Instructions | 2        |

```
      00 01 02 03 04 05 06 07  08 09 0A 0B 0C 0D 0E 0F
      -- -- -- -- -- -- -- --  -- -- -- -- -- -- -- --
0420:                          5B 39 80 12 50 0F 01 12          [9..P...
0430: 50 0F 01 6F 70 61 32 00                           P..opa2.        
```

#### Opcodes

```
  0: 0x0428 [0x5B] LOAD_EXT_SCHEDULER: Load scheduler "opa2" with entities [Tovrutaux (ID: 17780754/0x010F5012), Tovrutaux (ID: 17780754/0x010F5012)], work=2627*
  1: 0x0437 [0x00] END_REQSTACK()
```

### Event 65535.24

#### Metadata

| Field        | Value    |
|--------------|----------|
| Entrypoint   | 0x0438   |
| Data Size    | 16 bytes |
| Instructions | 2        |

```
      00 01 02 03 04 05 06 07  08 09 0A 0B 0C 0D 0E 0F
      -- -- -- -- -- -- -- --  -- -- -- -- -- -- -- --
0430:                          5B 3A 80 12 50 0F 01 12          [:..P...
0440: 50 0F 01 74 68 6B 31 00                           P..thk1.        
```

#### Opcodes

```
  0: 0x0438 [0x5B] LOAD_EXT_SCHEDULER: Load scheduler "thk1" with entities [Tovrutaux (ID: 17780754/0x010F5012), Tovrutaux (ID: 17780754/0x010F5012)], work=75*
  1: 0x0447 [0x00] END_REQSTACK()
```

### Event 65535.25

#### Metadata

| Field        | Value    |
|--------------|----------|
| Entrypoint   | 0x0448   |
| Data Size    | 16 bytes |
| Instructions | 2        |

```
      00 01 02 03 04 05 06 07  08 09 0A 0B 0C 0D 0E 0F
      -- -- -- -- -- -- -- --  -- -- -- -- -- -- -- --
0440:                          5B 3A 80 12 50 0F 01 12          [:..P...
0450: 50 0F 01 74 68 6B 32 00                           P..thk2.        
```

#### Opcodes

```
  0: 0x0448 [0x5B] LOAD_EXT_SCHEDULER: Load scheduler "thk2" with entities [Tovrutaux (ID: 17780754/0x010F5012), Tovrutaux (ID: 17780754/0x010F5012)], work=75*
  1: 0x0457 [0x00] END_REQSTACK()
```

### Event 65535.26

#### Metadata

| Field        | Value    |
|--------------|----------|
| Entrypoint   | 0x0458   |
| Data Size    | 16 bytes |
| Instructions | 2        |

```
      00 01 02 03 04 05 06 07  08 09 0A 0B 0C 0D 0E 0F
      -- -- -- -- -- -- -- --  -- -- -- -- -- -- -- --
0450:                          5B 3A 80 12 50 0F 01 12          [:..P...
0460: 50 0F 01 74 6C 6B 30 00                           P..tlk0.        
```

#### Opcodes

```
  0: 0x0458 [0x5B] LOAD_EXT_SCHEDULER: Load scheduler "tlk0" with entities [Tovrutaux (ID: 17780754/0x010F5012), Tovrutaux (ID: 17780754/0x010F5012)], work=75*
  1: 0x0467 [0x00] END_REQSTACK()
```

### Event 65535.27

#### Metadata

| Field        | Value    |
|--------------|----------|
| Entrypoint   | 0x0468   |
| Data Size    | 16 bytes |
| Instructions | 2        |

```
      00 01 02 03 04 05 06 07  08 09 0A 0B 0C 0D 0E 0F
      -- -- -- -- -- -- -- --  -- -- -- -- -- -- -- --
0460:                          5B 3A 80 12 50 0F 01 12          [:..P...
0470: 50 0F 01 74 6C 6B 31 00                           P..tlk1.        
```

#### Opcodes

```
  0: 0x0468 [0x5B] LOAD_EXT_SCHEDULER: Load scheduler "tlk1" with entities [Tovrutaux (ID: 17780754/0x010F5012), Tovrutaux (ID: 17780754/0x010F5012)], work=75*
  1: 0x0477 [0x00] END_REQSTACK()
```

### Event 65535.28

#### Metadata

| Field        | Value    |
|--------------|----------|
| Entrypoint   | 0x0478   |
| Data Size    | 12 bytes |
| Instructions | 4        |

```
      00 01 02 03 04 05 06 07  08 09 0A 0B 0C 0D 0E 0F
      -- -- -- -- -- -- -- --  -- -- -- -- -- -- -- --
0470:                          1F 00 3B 80 3C 80 12 80          ..;.<...
0480: 1F 01 6F 00                                       ..o.            
```

#### Opcodes

```
  0: 0x0478 [0x1F] MOVE_ENTITY: EventEntity moves to X=-19.954*, Z=-20.950*, Y=0.000*
  1: 0x0480 [0x1F] MOVE_ENTITY: Update entity position (mode=1)
  2: 0x0482 [0x6F] WAIT_FRAME_DELAY: Yield until WaitTime reaches zero
  3: 0x0483 [0x00] END_REQSTACK()
```

### Event 65535.29

#### Metadata

| Field        | Value    |
|--------------|----------|
| Entrypoint   | 0x0484   |
| Data Size    | 20 bytes |
| Instructions | 5        |

```
      00 01 02 03 04 05 06 07  08 09 0A 0B 0C 0D 0E 0F
      -- -- -- -- -- -- -- --  -- -- -- -- -- -- -- --
0480:             59 04 13 50  0F 01 24 80 1F 00 3D 80      Y..P..$...=.
0490: 3E 80 29 80 1F 01 6F 00                           >.)...o.        
```

#### Opcodes

```
  0: 0x0484 [0x59] UPDATE_ENTITY_DATA: Set Seyaya (ID: 17780755/0x010F5013) main speed = 11* * 0.1
  1: 0x048C [0x1F] MOVE_ENTITY: EventEntity moves to X=-74.699*, Z=-107.115*, Y=5.999*
  2: 0x0494 [0x1F] MOVE_ENTITY: Update entity position (mode=1)
  3: 0x0496 [0x6F] WAIT_FRAME_DELAY: Yield until WaitTime reaches zero
  4: 0x0497 [0x00] END_REQSTACK()
```

### Event 65535.30

#### Metadata

| Field        | Value    |
|--------------|----------|
| Entrypoint   | 0x0498   |
| Data Size    | 17 bytes |
| Instructions | 2        |

```
      00 01 02 03 04 05 06 07  08 09 0A 0B 0C 0D 0E 0F
      -- -- -- -- -- -- -- --  -- -- -- -- -- -- -- --
0490:                          5B 3F 80 13 50 0F 01 13          [?..P...
04A0: 50 0F 01 6F 70 61 30 00  00                       P..opa0..       
```

#### Opcodes

```
  0: 0x0498 [0x5B] LOAD_EXT_SCHEDULER: Load scheduler "opa0" with entities [Seyaya (ID: 17780755/0x010F5013), Seyaya (ID: 17780755/0x010F5013)], work=2631*
  1: 0x04A7 [0x00] END_REQSTACK()
```

#### Data or dead code:

```
# Dead code (unreachable instructions):
     0x04A8 [0x00] END_REQSTACK()
```

### Event 65535.31

#### Metadata

| Field        | Value    |
|--------------|----------|
| Entrypoint   | 0x04A9   |
| Data Size    | 17 bytes |
| Instructions | 2        |

```
      00 01 02 03 04 05 06 07  08 09 0A 0B 0C 0D 0E 0F
      -- -- -- -- -- -- -- --  -- -- -- -- -- -- -- --
04A0:                             5B 3F 80 13 50 0F 01           [?..P..
04B0: 13 50 0F 01 6F 70 61 31  00 00                    .P..opa1..      
```

#### Opcodes

```
  0: 0x04A9 [0x5B] LOAD_EXT_SCHEDULER: Load scheduler "opa1" with entities [Seyaya (ID: 17780755/0x010F5013), Seyaya (ID: 17780755/0x010F5013)], work=2631*
  1: 0x04B8 [0x00] END_REQSTACK()
```

#### Data or dead code:

```
# Dead code (unreachable instructions):
     0x04B9 [0x00] END_REQSTACK()
```

### Event 65535.32

#### Metadata

| Field        | Value    |
|--------------|----------|
| Entrypoint   | 0x04BA   |
| Data Size    | 16 bytes |
| Instructions | 2        |

```
      00 01 02 03 04 05 06 07  08 09 0A 0B 0C 0D 0E 0F
      -- -- -- -- -- -- -- --  -- -- -- -- -- -- -- --
04B0:                                5B 3F 80 13 50 0F            [?..P.
04C0: 01 13 50 0F 01 6F 70 61  32 00                    ..P..opa2.      
```

#### Opcodes

```
  0: 0x04BA [0x5B] LOAD_EXT_SCHEDULER: Load scheduler "opa2" with entities [Seyaya (ID: 17780755/0x010F5013), Seyaya (ID: 17780755/0x010F5013)], work=2631*
  1: 0x04C9 [0x00] END_REQSTACK()
```

### Event 65535.33

#### Metadata

| Field        | Value    |
|--------------|----------|
| Entrypoint   | 0x04CA   |
| Data Size    | 16 bytes |
| Instructions | 2        |

```
      00 01 02 03 04 05 06 07  08 09 0A 0B 0C 0D 0E 0F
      -- -- -- -- -- -- -- --  -- -- -- -- -- -- -- --
04C0:                                5B 40 80 13 50 0F            [@..P.
04D0: 01 13 50 0F 01 74 68 6B  31 00                    ..P..thk1.      
```

#### Opcodes

```
  0: 0x04CA [0x5B] LOAD_EXT_SCHEDULER: Load scheduler "thk1" with entities [Seyaya (ID: 17780755/0x010F5013), Seyaya (ID: 17780755/0x010F5013)], work=85*
  1: 0x04D9 [0x00] END_REQSTACK()
```

### Event 65535.34

#### Metadata

| Field        | Value    |
|--------------|----------|
| Entrypoint   | 0x04DA   |
| Data Size    | 16 bytes |
| Instructions | 2        |

```
      00 01 02 03 04 05 06 07  08 09 0A 0B 0C 0D 0E 0F
      -- -- -- -- -- -- -- --  -- -- -- -- -- -- -- --
04D0:                                5B 40 80 13 50 0F            [@..P.
04E0: 01 13 50 0F 01 74 68 6B  32 00                    ..P..thk2.      
```

#### Opcodes

```
  0: 0x04DA [0x5B] LOAD_EXT_SCHEDULER: Load scheduler "thk2" with entities [Seyaya (ID: 17780755/0x010F5013), Seyaya (ID: 17780755/0x010F5013)], work=85*
  1: 0x04E9 [0x00] END_REQSTACK()
```

### Event 65535.35

#### Metadata

| Field        | Value    |
|--------------|----------|
| Entrypoint   | 0x04EA   |
| Data Size    | 16 bytes |
| Instructions | 2        |

```
      00 01 02 03 04 05 06 07  08 09 0A 0B 0C 0D 0E 0F
      -- -- -- -- -- -- -- --  -- -- -- -- -- -- -- --
04E0:                                5B 40 80 13 50 0F            [@..P.
04F0: 01 13 50 0F 01 74 6C 6B  30 00                    ..P..tlk0.      
```

#### Opcodes

```
  0: 0x04EA [0x5B] LOAD_EXT_SCHEDULER: Load scheduler "tlk0" with entities [Seyaya (ID: 17780755/0x010F5013), Seyaya (ID: 17780755/0x010F5013)], work=85*
  1: 0x04F9 [0x00] END_REQSTACK()
```

### Event 65535.36

#### Metadata

| Field        | Value    |
|--------------|----------|
| Entrypoint   | 0x04FA   |
| Data Size    | 16 bytes |
| Instructions | 2        |

```
      00 01 02 03 04 05 06 07  08 09 0A 0B 0C 0D 0E 0F
      -- -- -- -- -- -- -- --  -- -- -- -- -- -- -- --
04F0:                                5B 40 80 13 50 0F            [@..P.
0500: 01 13 50 0F 01 74 6C 6B  65 00                    ..P..tlke.      
```

#### Opcodes

```
  0: 0x04FA [0x5B] LOAD_EXT_SCHEDULER: Load scheduler "tlke" with entities [Seyaya (ID: 17780755/0x010F5013), Seyaya (ID: 17780755/0x010F5013)], work=85*
  1: 0x0509 [0x00] END_REQSTACK()
```

### Event 65535.37

#### Metadata

| Field        | Value    |
|--------------|----------|
| Entrypoint   | 0x050A   |
| Data Size    | 16 bytes |
| Instructions | 2        |

```
      00 01 02 03 04 05 06 07  08 09 0A 0B 0C 0D 0E 0F
      -- -- -- -- -- -- -- --  -- -- -- -- -- -- -- --
0500:                                5B 40 80 13 50 0F            [@..P.
0510: 01 13 50 0F 01 62 61 6E  30 00                    ..P..ban0.      
```

#### Opcodes

```
  0: 0x050A [0x5B] LOAD_EXT_SCHEDULER: Load scheduler "ban0" with entities [Seyaya (ID: 17780755/0x010F5013), Seyaya (ID: 17780755/0x010F5013)], work=85*
  1: 0x0519 [0x00] END_REQSTACK()
```

### Event 65535.38

#### Metadata

| Field        | Value    |
|--------------|----------|
| Entrypoint   | 0x051A   |
| Data Size    | 13 bytes |
| Instructions | 4        |

```
      00 01 02 03 04 05 06 07  08 09 0A 0B 0C 0D 0E 0F
      -- -- -- -- -- -- -- --  -- -- -- -- -- -- -- --
0510:                                1F 00 41 80 42 80            ..A.B.
0520: 12 80 1F 01 6F 00 00                              ....o..         
```

#### Opcodes

```
  0: 0x051A [0x1F] MOVE_ENTITY: EventEntity moves to X=-19.857*, Z=-21.712*, Y=0.000*
  1: 0x0522 [0x1F] MOVE_ENTITY: Update entity position (mode=1)
  2: 0x0524 [0x6F] WAIT_FRAME_DELAY: Yield until WaitTime reaches zero
  3: 0x0525 [0x00] END_REQSTACK()
```

#### Data or dead code:

```
# Dead code (unreachable instructions):
     0x0526 [0x00] END_REQSTACK()
```

### Event 65535.39

#### Metadata

| Field        | Value    |
|--------------|----------|
| Entrypoint   | 0x0527   |
| Data Size    | 20 bytes |
| Instructions | 5        |

```
      00 01 02 03 04 05 06 07  08 09 0A 0B 0C 0D 0E 0F
      -- -- -- -- -- -- -- --  -- -- -- -- -- -- -- --
0520:                      59  04 C0 50 0F 01 43 80 1F         Y..P..C..
0530: 00 44 80 45 80 12 80 1F  01 6F 00                 .D.E.....o.     
```

#### Opcodes

```
  0: 0x0527 [0x59] UPDATE_ENTITY_DATA: Set Rakuru-Rakoru (ID: 17780928/0x010F50C0) main speed = 14* * 0.1
  1: 0x052F [0x1F] MOVE_ENTITY: EventEntity moves to X=-37.763*, Z=-62.812*, Y=0.000*
  2: 0x0537 [0x1F] MOVE_ENTITY: Update entity position (mode=1)
  3: 0x0539 [0x6F] WAIT_FRAME_DELAY: Yield until WaitTime reaches zero
  4: 0x053A [0x00] END_REQSTACK()
```

### Event 65535.40

#### Metadata

| Field        | Value    |
|--------------|----------|
| Entrypoint   | 0x053B   |
| Data Size    | 12 bytes |
| Instructions | 4        |

```
      00 01 02 03 04 05 06 07  08 09 0A 0B 0C 0D 0E 0F
      -- -- -- -- -- -- -- --  -- -- -- -- -- -- -- --
0530:                                   1F 00 46 80 47             ..F.G
0540: 80 48 80 1F 01 6F 00                              .H...o.         
```

#### Opcodes

```
  0: 0x053B [0x1F] MOVE_ENTITY: EventEntity moves to X=-13.366*, Z=2.528*, Y=-0.449*
  1: 0x0543 [0x1F] MOVE_ENTITY: Update entity position (mode=1)
  2: 0x0545 [0x6F] WAIT_FRAME_DELAY: Yield until WaitTime reaches zero
  3: 0x0546 [0x00] END_REQSTACK()
```

### Event 65535.41

#### Metadata

| Field        | Value    |
|--------------|----------|
| Entrypoint   | 0x0547   |
| Data Size    | 16 bytes |
| Instructions | 2        |

```
      00 01 02 03 04 05 06 07  08 09 0A 0B 0C 0D 0E 0F
      -- -- -- -- -- -- -- --  -- -- -- -- -- -- -- --
0540:                      66  49 80 C0 50 0F 01 C0 50         fI..P...P
0550: 0F 01 74 6C 6B 30 00                              ..tlk0.         
```

#### Opcodes

```
  0: 0x0547 [0x66] LOAD_EXT_SCHEDULER_MAIN: Load scheduler "tlk0" with entities [Rakuru-Rakoru (ID: 17780928/0x010F50C0), Rakuru-Rakoru (ID: 17780928/0x010F50C0)], work=40*
  1: 0x0556 [0x00] END_REQSTACK()
```

### Event 65535.42

#### Metadata

| Field        | Value    |
|--------------|----------|
| Entrypoint   | 0x0557   |
| Data Size    | 16 bytes |
| Instructions | 2        |

```
      00 01 02 03 04 05 06 07  08 09 0A 0B 0C 0D 0E 0F
      -- -- -- -- -- -- -- --  -- -- -- -- -- -- -- --
0550:                      66  4A 80 C0 50 0F 01 C0 50         fJ..P...P
0560: 0F 01 65 68 6E 31 00                              ..ehn1.         
```

#### Opcodes

```
  0: 0x0557 [0x66] LOAD_EXT_SCHEDULER_MAIN: Load scheduler "ehn1" with entities [Rakuru-Rakoru (ID: 17780928/0x010F50C0), Rakuru-Rakoru (ID: 17780928/0x010F50C0)], work=41*
  1: 0x0566 [0x00] END_REQSTACK()
```

### Event 65535.43

#### Metadata

| Field        | Value    |
|--------------|----------|
| Entrypoint   | 0x0567   |
| Data Size    | 16 bytes |
| Instructions | 2        |

```
      00 01 02 03 04 05 06 07  08 09 0A 0B 0C 0D 0E 0F
      -- -- -- -- -- -- -- --  -- -- -- -- -- -- -- --
0560:                      66  49 80 C0 50 0F 01 C0 50         fI..P...P
0570: 0F 01 6D 6F 6A 30 00                              ..moj0.         
```

#### Opcodes

```
  0: 0x0567 [0x66] LOAD_EXT_SCHEDULER_MAIN: Load scheduler "moj0" with entities [Rakuru-Rakoru (ID: 17780928/0x010F50C0), Rakuru-Rakoru (ID: 17780928/0x010F50C0)], work=40*
  1: 0x0576 [0x00] END_REQSTACK()
```

### Event 65535.44

#### Metadata

| Field        | Value    |
|--------------|----------|
| Entrypoint   | 0x0577   |
| Data Size    | 20 bytes |
| Instructions | 5        |

```
      00 01 02 03 04 05 06 07  08 09 0A 0B 0C 0D 0E 0F
      -- -- -- -- -- -- -- --  -- -- -- -- -- -- -- --
0570:                      59  04 C0 50 0F 01 43 80 1F         Y..P..C..
0580: 00 4B 80 4C 80 29 80 1F  01 6F 00                 .K.L.)...o.     
```

#### Opcodes

```
  0: 0x0577 [0x59] UPDATE_ENTITY_DATA: Set Rakuru-Rakoru (ID: 17780928/0x010F50C0) main speed = 14* * 0.1
  1: 0x057F [0x1F] MOVE_ENTITY: EventEntity moves to X=-71.130*, Z=-110.791*, Y=5.999*
  2: 0x0587 [0x1F] MOVE_ENTITY: Update entity position (mode=1)
  3: 0x0589 [0x6F] WAIT_FRAME_DELAY: Yield until WaitTime reaches zero
  4: 0x058A [0x00] END_REQSTACK()
```

### Event 65535.45

#### Metadata

| Field        | Value    |
|--------------|----------|
| Entrypoint   | 0x058B   |
| Data Size    | 29 bytes |
| Instructions | 6        |

```
      00 01 02 03 04 05 06 07  08 09 0A 0B 0C 0D 0E 0F
      -- -- -- -- -- -- -- --  -- -- -- -- -- -- -- --
0580:                                   59 04 C0 50 0F             Y..P.
0590: 01 43 80 1F 00 4D 80 4E  80 29 80 1F 01 5A 00 4F  .C...M.N.)...Z.O
05A0: 80 50 80 51 80 5A 01 00                           .P.Q.Z..        
```

#### Opcodes

```
  0: 0x058B [0x59] UPDATE_ENTITY_DATA: Set Rakuru-Rakoru (ID: 17780928/0x010F50C0) main speed = 14* * 0.1
  1: 0x0593 [0x1F] MOVE_ENTITY: EventEntity moves to X=-75.540*, Z=-116.545*, Y=5.999*
  2: 0x059B [0x1F] MOVE_ENTITY: Update entity position (mode=1)
  3: 0x059D [0x5A] UPDATE_EVENT_POSITION: Set EventEntity MovePosition to X=-80.452*, Z=-125.376*, Y=0.999*
  4: 0x05A5 [0x5A] UPDATE_EVENT_POSITION: Move EventEntity incrementally towards MovePosition
  5: 0x05A7 [0x00] END_REQSTACK()
```

### Event 65535.46

#### Metadata

| Field        | Value    |
|--------------|----------|
| Entrypoint   | 0x05A8   |
| Data Size    | 17 bytes |
| Instructions | 2        |

```
      00 01 02 03 04 05 06 07  08 09 0A 0B 0C 0D 0E 0F
      -- -- -- -- -- -- -- --  -- -- -- -- -- -- -- --
05A0:                          5B 52 80 C0 50 0F 01 C0          [R..P...
05B0: 50 0F 01 62 6F 70 30 00  00                       P..bop0..       
```

#### Opcodes

```
  0: 0x05A8 [0x5B] LOAD_EXT_SCHEDULER: Load scheduler "bop0" with entities [Rakuru-Rakoru (ID: 17780928/0x010F50C0), Rakuru-Rakoru (ID: 17780928/0x010F50C0)], work=2611*
  1: 0x05B7 [0x00] END_REQSTACK()
```

#### Data or dead code:

```
# Dead code (unreachable instructions):
     0x05B8 [0x00] END_REQSTACK()
```

### Event 65535.47

#### Metadata

| Field        | Value    |
|--------------|----------|
| Entrypoint   | 0x05B9   |
| Data Size    | 20 bytes |
| Instructions | 5        |

```
      00 01 02 03 04 05 06 07  08 09 0A 0B 0C 0D 0E 0F
      -- -- -- -- -- -- -- --  -- -- -- -- -- -- -- --
05B0:                             59 04 25 50 0F 01 53           Y.%P..S
05C0: 80 1F 00 2B 80 2C 80 12  80 1F 01 6F 00           ...+.,.....o.   
```

#### Opcodes

```
  0: 0x05B9 [0x59] UPDATE_ENTITY_DATA: Set Sutarara (ID: 17780773/0x010F5025) main speed = 13* * 0.1
  1: 0x05C1 [0x1F] MOVE_ENTITY: EventEntity moves to X=-83.944*, Z=-128.625*, Y=0.000*
  2: 0x05C9 [0x1F] MOVE_ENTITY: Update entity position (mode=1)
  3: 0x05CB [0x6F] WAIT_FRAME_DELAY: Yield until WaitTime reaches zero
  4: 0x05CC [0x00] END_REQSTACK()
```

### Event 65535.48

#### Metadata

| Field        | Value    |
|--------------|----------|
| Entrypoint   | 0x05CD   |
| Data Size    | 20 bytes |
| Instructions | 5        |

```
      00 01 02 03 04 05 06 07  08 09 0A 0B 0C 0D 0E 0F
      -- -- -- -- -- -- -- --  -- -- -- -- -- -- -- --
05C0:                                         59 04 25               Y.%
05D0: 50 0F 01 53 80 1F 00 54  80 55 80 29 80 1F 01 6F  P..S...T.U.)...o
05E0: 00                                                .               
```

#### Opcodes

```
  0: 0x05CD [0x59] UPDATE_ENTITY_DATA: Set Sutarara (ID: 17780773/0x010F5025) main speed = 13* * 0.1
  1: 0x05D5 [0x1F] MOVE_ENTITY: EventEntity moves to X=-64.287*, Z=-102.136*, Y=5.999*
  2: 0x05DD [0x1F] MOVE_ENTITY: Update entity position (mode=1)
  3: 0x05DF [0x6F] WAIT_FRAME_DELAY: Yield until WaitTime reaches zero
  4: 0x05E0 [0x00] END_REQSTACK()
```

### Event 65535.49

#### Metadata

| Field        | Value    |
|--------------|----------|
| Entrypoint   | 0x05E1   |
| Data Size    | 20 bytes |
| Instructions | 5        |

```
      00 01 02 03 04 05 06 07  08 09 0A 0B 0C 0D 0E 0F
      -- -- -- -- -- -- -- --  -- -- -- -- -- -- -- --
05E0:    59 04 25 50 0F 01 53  80 1F 00 56 80 57 80 12   Y.%P..S...V.W..
05F0: 80 1F 01 6F 00                                    ...o.           
```

#### Opcodes

```
  0: 0x05E1 [0x59] UPDATE_ENTITY_DATA: Set Sutarara (ID: 17780773/0x010F5025) main speed = 13* * 0.1
  1: 0x05E9 [0x1F] MOVE_ENTITY: EventEntity moves to X=4.236*, Z=4.336*, Y=0.000*
  2: 0x05F1 [0x1F] MOVE_ENTITY: Update entity position (mode=1)
  3: 0x05F3 [0x6F] WAIT_FRAME_DELAY: Yield until WaitTime reaches zero
  4: 0x05F4 [0x00] END_REQSTACK()
```

### Event 65535.50

#### Metadata

| Field        | Value    |
|--------------|----------|
| Entrypoint   | 0x05F5   |
| Data Size    | 20 bytes |
| Instructions | 5        |

```
      00 01 02 03 04 05 06 07  08 09 0A 0B 0C 0D 0E 0F
      -- -- -- -- -- -- -- --  -- -- -- -- -- -- -- --
05F0:                59 04 34  50 0F 01 21 80 1F 00 58       Y.4P..!...X
0600: 80 59 80 5A 80 1F 01 6F  00                       .Y.Z...o.       
```

#### Opcodes

```
  0: 0x05F5 [0x59] UPDATE_ENTITY_DATA: Set Venika (ID: 17780788/0x010F5034) main speed = 12* * 0.1
  1: 0x05FD [0x1F] MOVE_ENTITY: EventEntity moves to X=-15.376*, Z=-23.775*, Y=-0.101*
  2: 0x0605 [0x1F] MOVE_ENTITY: Update entity position (mode=1)
  3: 0x0607 [0x6F] WAIT_FRAME_DELAY: Yield until WaitTime reaches zero
  4: 0x0608 [0x00] END_REQSTACK()
```

### Event 65535.51

#### Metadata

| Field        | Value    |
|--------------|----------|
| Entrypoint   | 0x0609   |
| Data Size    | 20 bytes |
| Instructions | 5        |

```
      00 01 02 03 04 05 06 07  08 09 0A 0B 0C 0D 0E 0F
      -- -- -- -- -- -- -- --  -- -- -- -- -- -- -- --
0600:                             59 04 34 50 0F 01 09           Y.4P...
0610: 80 1F 00 54 80 55 80 29  80 1F 01 6F 00           ...T.U.)...o.   
```

#### Opcodes

```
  0: 0x0609 [0x59] UPDATE_ENTITY_DATA: Set Venika (ID: 17780788/0x010F5034) main speed = 10* * 0.1
  1: 0x0611 [0x1F] MOVE_ENTITY: EventEntity moves to X=-64.287*, Z=-102.136*, Y=5.999*
  2: 0x0619 [0x1F] MOVE_ENTITY: Update entity position (mode=1)
  3: 0x061B [0x6F] WAIT_FRAME_DELAY: Yield until WaitTime reaches zero
  4: 0x061C [0x00] END_REQSTACK()
```

### Event 65535.52

#### Metadata

| Field        | Value    |
|--------------|----------|
| Entrypoint   | 0x061D   |
| Data Size    | 16 bytes |
| Instructions | 2        |

```
      00 01 02 03 04 05 06 07  08 09 0A 0B 0C 0D 0E 0F
      -- -- -- -- -- -- -- --  -- -- -- -- -- -- -- --
0610:                                         5B 5B 80               [[.
0620: 34 50 0F 01 34 50 0F 01  6F 70 62 30 00           4P..4P..opb0.   
```

#### Opcodes

```
  0: 0x061D [0x5B] LOAD_EXT_SCHEDULER: Load scheduler "opb0" with entities [Venika (ID: 17780788/0x010F5034), Venika (ID: 17780788/0x010F5034)], work=2584*
  1: 0x062C [0x00] END_REQSTACK()
```

### Event 65535.53

#### Metadata

| Field        | Value    |
|--------------|----------|
| Entrypoint   | 0x062D   |
| Data Size    | 16 bytes |
| Instructions | 2        |

```
      00 01 02 03 04 05 06 07  08 09 0A 0B 0C 0D 0E 0F
      -- -- -- -- -- -- -- --  -- -- -- -- -- -- -- --
0620:                                         5B 5B 80               [[.
0630: 34 50 0F 01 34 50 0F 01  6F 70 62 31 00           4P..4P..opb1.   
```

#### Opcodes

```
  0: 0x062D [0x5B] LOAD_EXT_SCHEDULER: Load scheduler "opb1" with entities [Venika (ID: 17780788/0x010F5034), Venika (ID: 17780788/0x010F5034)], work=2584*
  1: 0x063C [0x00] END_REQSTACK()
```

### Event 65535.54

#### Metadata

| Field        | Value    |
|--------------|----------|
| Entrypoint   | 0x063D   |
| Data Size    | 20 bytes |
| Instructions | 5        |

```
      00 01 02 03 04 05 06 07  08 09 0A 0B 0C 0D 0E 0F
      -- -- -- -- -- -- -- --  -- -- -- -- -- -- -- --
0630:                                         59 04 34               Y.4
0640: 50 0F 01 21 80 1F 00 5C  80 5D 80 12 80 1F 01 6F  P..!...\.].....o
0650: 00                                                .               
```

#### Opcodes

```
  0: 0x063D [0x59] UPDATE_ENTITY_DATA: Set Venika (ID: 17780788/0x010F5034) main speed = 12* * 0.1
  1: 0x0645 [0x1F] MOVE_ENTITY: EventEntity moves to X=-0.991*, Z=2.123*, Y=0.000*
  2: 0x064D [0x1F] MOVE_ENTITY: Update entity position (mode=1)
  3: 0x064F [0x6F] WAIT_FRAME_DELAY: Yield until WaitTime reaches zero
  4: 0x0650 [0x00] END_REQSTACK()
```

### Event 65535.55

#### Metadata

| Field        | Value    |
|--------------|----------|
| Entrypoint   | 0x0651   |
| Data Size    | 16 bytes |
| Instructions | 2        |

```
      00 01 02 03 04 05 06 07  08 09 0A 0B 0C 0D 0E 0F
      -- -- -- -- -- -- -- --  -- -- -- -- -- -- -- --
0650:    5B 5B 80 34 50 0F 01  34 50 0F 01 6F 70 63 30   [[.4P..4P..opc0
0660: 00                                                .               
```

#### Opcodes

```
  0: 0x0651 [0x5B] LOAD_EXT_SCHEDULER: Load scheduler "opc0" with entities [Venika (ID: 17780788/0x010F5034), Venika (ID: 17780788/0x010F5034)], work=2584*
  1: 0x0660 [0x00] END_REQSTACK()
```

### Event 65535.56

#### Metadata

| Field        | Value    |
|--------------|----------|
| Entrypoint   | 0x0661   |
| Data Size    | 16 bytes |
| Instructions | 2        |

```
      00 01 02 03 04 05 06 07  08 09 0A 0B 0C 0D 0E 0F
      -- -- -- -- -- -- -- --  -- -- -- -- -- -- -- --
0660:    5B 5B 80 34 50 0F 01  34 50 0F 01 6F 70 63 31   [[.4P..4P..opc1
0670: 00                                                .               
```

#### Opcodes

```
  0: 0x0661 [0x5B] LOAD_EXT_SCHEDULER: Load scheduler "opc1" with entities [Venika (ID: 17780788/0x010F5034), Venika (ID: 17780788/0x010F5034)], work=2584*
  1: 0x0670 [0x00] END_REQSTACK()
```

### Event 65535.57

#### Metadata

| Field        | Value    |
|--------------|----------|
| Entrypoint   | 0x0671   |
| Data Size    | 16 bytes |
| Instructions | 2        |

```
      00 01 02 03 04 05 06 07  08 09 0A 0B 0C 0D 0E 0F
      -- -- -- -- -- -- -- --  -- -- -- -- -- -- -- --
0670:    66 00 80 36 50 0F 01  36 50 0F 01 61 77 77 30   f..6P..6P..aww0
0680: 00                                                .               
```

#### Opcodes

```
  0: 0x0671 [0x66] LOAD_EXT_SCHEDULER_MAIN: Load scheduler "aww0" with entities [Kuah Dakonsa (ID: 17780790/0x010F5036), Kuah Dakonsa (ID: 17780790/0x010F5036)], work=8*
  1: 0x0680 [0x00] END_REQSTACK()
```

### Event 65535.58

#### Metadata

| Field        | Value    |
|--------------|----------|
| Entrypoint   | 0x0681   |
| Data Size    | 16 bytes |
| Instructions | 2        |

```
      00 01 02 03 04 05 06 07  08 09 0A 0B 0C 0D 0E 0F
      -- -- -- -- -- -- -- --  -- -- -- -- -- -- -- --
0680:    66 5E 80 36 50 0F 01  36 50 0F 01 74 68 6B 31   f^.6P..6P..thk1
0690: 00                                                .               
```

#### Opcodes

```
  0: 0x0681 [0x66] LOAD_EXT_SCHEDULER_MAIN: Load scheduler "thk1" with entities [Kuah Dakonsa (ID: 17780790/0x010F5036), Kuah Dakonsa (ID: 17780790/0x010F5036)], work=51*
  1: 0x0690 [0x00] END_REQSTACK()
```

### Event 65535.59

#### Metadata

| Field        | Value    |
|--------------|----------|
| Entrypoint   | 0x0691   |
| Data Size    | 21 bytes |
| Instructions | 5        |

```
      00 01 02 03 04 05 06 07  08 09 0A 0B 0C 0D 0E 0F
      -- -- -- -- -- -- -- --  -- -- -- -- -- -- -- --
0690:    59 04 32 50 0F 01 21  80 1F 00 5F 80 60 80 29   Y.2P..!..._.`.)
06A0: 80 1F 01 6F 00 00                                 ...o..          
```

#### Opcodes

```
  0: 0x0691 [0x59] UPDATE_ENTITY_DATA: Set Gurdern (ID: 17780786/0x010F5032) main speed = 12* * 0.1
  1: 0x0699 [0x1F] MOVE_ENTITY: EventEntity moves to X=-61.958*, Z=-103.267*, Y=5.999*
  2: 0x06A1 [0x1F] MOVE_ENTITY: Update entity position (mode=1)
  3: 0x06A3 [0x6F] WAIT_FRAME_DELAY: Yield until WaitTime reaches zero
  4: 0x06A4 [0x00] END_REQSTACK()
```

#### Data or dead code:

```
# Dead code (unreachable instructions):
     0x06A5 [0x00] END_REQSTACK()
```

### Event 65535.60

#### Metadata

| Field        | Value    |
|--------------|----------|
| Entrypoint   | 0x06A6   |
| Data Size    | 20 bytes |
| Instructions | 5        |

```
      00 01 02 03 04 05 06 07  08 09 0A 0B 0C 0D 0E 0F
      -- -- -- -- -- -- -- --  -- -- -- -- -- -- -- --
06A0:                   59 04  32 50 0F 01 21 80 1F 00        Y.2P..!...
06B0: 61 80 62 80 29 80 1F 01  6F 00                    a.b.)...o.      
```

#### Opcodes

```
  0: 0x06A6 [0x59] UPDATE_ENTITY_DATA: Set Gurdern (ID: 17780786/0x010F5032) main speed = 12* * 0.1
  1: 0x06AE [0x1F] MOVE_ENTITY: EventEntity moves to X=-66.589*, Z=-92.299*, Y=5.999*
  2: 0x06B6 [0x1F] MOVE_ENTITY: Update entity position (mode=1)
  3: 0x06B8 [0x6F] WAIT_FRAME_DELAY: Yield until WaitTime reaches zero
  4: 0x06B9 [0x00] END_REQSTACK()
```

### Event 65535.61

#### Metadata

| Field        | Value    |
|--------------|----------|
| Entrypoint   | 0x06BA   |
| Data Size    | 20 bytes |
| Instructions | 5        |

```
      00 01 02 03 04 05 06 07  08 09 0A 0B 0C 0D 0E 0F
      -- -- -- -- -- -- -- --  -- -- -- -- -- -- -- --
06B0:                                59 04 32 50 0F 01            Y.2P..
06C0: 21 80 1F 00 63 80 64 80  29 80 1F 01 6F 00        !...c.d.)...o.  
```

#### Opcodes

```
  0: 0x06BA [0x59] UPDATE_ENTITY_DATA: Set Gurdern (ID: 17780786/0x010F5032) main speed = 12* * 0.1
  1: 0x06C2 [0x1F] MOVE_ENTITY: EventEntity moves to X=-58.931*, Z=-86.942*, Y=5.999*
  2: 0x06CA [0x1F] MOVE_ENTITY: Update entity position (mode=1)
  3: 0x06CC [0x6F] WAIT_FRAME_DELAY: Yield until WaitTime reaches zero
  4: 0x06CD [0x00] END_REQSTACK()
```

### Event 65535.62

#### Metadata

| Field        | Value    |
|--------------|----------|
| Entrypoint   | 0x06CE   |
| Data Size    | 17 bytes |
| Instructions | 2        |

```
      00 01 02 03 04 05 06 07  08 09 0A 0B 0C 0D 0E 0F
      -- -- -- -- -- -- -- --  -- -- -- -- -- -- -- --
06C0:                                            5B 38                [8
06D0: 80 32 50 0F 01 32 50 0F  01 6F 70 30 30 00 00     .2P..2P..op00.. 
```

#### Opcodes

```
  0: 0x06CE [0x5B] LOAD_EXT_SCHEDULER: Load scheduler "op00" with entities [Gurdern (ID: 17780786/0x010F5032), Gurdern (ID: 17780786/0x010F5032)], work=2621*
  1: 0x06DD [0x00] END_REQSTACK()
```

#### Data or dead code:

```
# Dead code (unreachable instructions):
     0x06DE [0x00] END_REQSTACK()
```

### Event 65535.63

#### Metadata

| Field        | Value    |
|--------------|----------|
| Entrypoint   | 0x06DF   |
| Data Size    | 20 bytes |
| Instructions | 5        |

```
      00 01 02 03 04 05 06 07  08 09 0A 0B 0C 0D 0E 0F
      -- -- -- -- -- -- -- --  -- -- -- -- -- -- -- --
06D0:                                               59                 Y
06E0: 04 1C 50 0F 01 24 80 1F  00 25 80 26 80 12 80 1F  ..P..$...%.&....
06F0: 01 6F 00                                          .o.             
```

#### Opcodes

```
  0: 0x06DF [0x59] UPDATE_ENTITY_DATA: Set Mertaire (ID: 17780764/0x010F501C) main speed = 11* * 0.1
  1: 0x06E7 [0x1F] MOVE_ENTITY: EventEntity moves to X=-95.337*, Z=-156.056*, Y=0.000*
  2: 0x06EF [0x1F] MOVE_ENTITY: Update entity position (mode=1)
  3: 0x06F1 [0x6F] WAIT_FRAME_DELAY: Yield until WaitTime reaches zero
  4: 0x06F2 [0x00] END_REQSTACK()
```

### Event 65535.64

#### Metadata

| Field        | Value    |
|--------------|----------|
| Entrypoint   | 0x06F3   |
| Data Size    | 20 bytes |
| Instructions | 5        |

```
      00 01 02 03 04 05 06 07  08 09 0A 0B 0C 0D 0E 0F
      -- -- -- -- -- -- -- --  -- -- -- -- -- -- -- --
06F0:          59 04 1C 50 0F  01 24 80 1F 00 65 80 66     Y..P..$...e.f
0700: 80 67 80 1F 01 6F 00                              .g...o.         
```

#### Opcodes

```
  0: 0x06F3 [0x59] UPDATE_ENTITY_DATA: Set Mertaire (ID: 17780764/0x010F501C) main speed = 11* * 0.1
  1: 0x06FB [0x1F] MOVE_ENTITY: EventEntity moves to X=-78.197*, Z=-116.328*, Y=3.999*
  2: 0x0703 [0x1F] MOVE_ENTITY: Update entity position (mode=1)
  3: 0x0705 [0x6F] WAIT_FRAME_DELAY: Yield until WaitTime reaches zero
  4: 0x0706 [0x00] END_REQSTACK()
```

### Event 65535.65

#### Metadata

| Field        | Value    |
|--------------|----------|
| Entrypoint   | 0x0707   |
| Data Size    | 16 bytes |
| Instructions | 2        |

```
      00 01 02 03 04 05 06 07  08 09 0A 0B 0C 0D 0E 0F
      -- -- -- -- -- -- -- --  -- -- -- -- -- -- -- --
0700:                      5B  68 80 1C 50 0F 01 1C 50         [h..P...P
0710: 0F 01 6F 70 63 30 00                              ..opc0.         
```

#### Opcodes

```
  0: 0x0707 [0x5B] LOAD_EXT_SCHEDULER: Load scheduler "opc0" with entities [Mertaire (ID: 17780764/0x010F501C), Mertaire (ID: 17780764/0x010F501C)], work=2583*
  1: 0x0716 [0x00] END_REQSTACK()
```

### Event 65535.66

#### Metadata

| Field        | Value    |
|--------------|----------|
| Entrypoint   | 0x0717   |
| Data Size    | 16 bytes |
| Instructions | 2        |

```
      00 01 02 03 04 05 06 07  08 09 0A 0B 0C 0D 0E 0F
      -- -- -- -- -- -- -- --  -- -- -- -- -- -- -- --
0710:                      5B  68 80 1C 50 0F 01 1C 50         [h..P...P
0720: 0F 01 6F 70 63 31 00                              ..opc1.         
```

#### Opcodes

```
  0: 0x0717 [0x5B] LOAD_EXT_SCHEDULER: Load scheduler "opc1" with entities [Mertaire (ID: 17780764/0x010F501C), Mertaire (ID: 17780764/0x010F501C)], work=2583*
  1: 0x0726 [0x00] END_REQSTACK()
```

### Event 65535.67

#### Metadata

| Field        | Value    |
|--------------|----------|
| Entrypoint   | 0x0727   |
| Data Size    | 21 bytes |
| Instructions | 5        |

```
      00 01 02 03 04 05 06 07  08 09 0A 0B 0C 0D 0E 0F
      -- -- -- -- -- -- -- --  -- -- -- -- -- -- -- --
0720:                      59  04 1C 50 0F 01 24 80 1F         Y..P..$..
0730: 00 69 80 6A 80 12 80 1F  01 6F 00 00              .i.j.....o..    
```

#### Opcodes

```
  0: 0x0727 [0x59] UPDATE_ENTITY_DATA: Set Mertaire (ID: 17780764/0x010F501C) main speed = 11* * 0.1
  1: 0x072F [0x1F] MOVE_ENTITY: EventEntity moves to X=-9.883*, Z=-9.826*, Y=0.000*
  2: 0x0737 [0x1F] MOVE_ENTITY: Update entity position (mode=1)
  3: 0x0739 [0x6F] WAIT_FRAME_DELAY: Yield until WaitTime reaches zero
  4: 0x073A [0x00] END_REQSTACK()
```

#### Data or dead code:

```
# Dead code (unreachable instructions):
     0x073B [0x00] END_REQSTACK()
```

### Event 65535.68

#### Metadata

| Field        | Value    |
|--------------|----------|
| Entrypoint   | 0x073C   |
| Data Size    | 20 bytes |
| Instructions | 5        |

```
      00 01 02 03 04 05 06 07  08 09 0A 0B 0C 0D 0E 0F
      -- -- -- -- -- -- -- --  -- -- -- -- -- -- -- --
0730:                                      59 04 1E 50              Y..P
0740: 0F 01 6B 80 1F 00 3D 80  3E 80 29 80 1F 01 6F 00  ..k...=.>.)...o.
```

#### Opcodes

```
  0: 0x073C [0x59] UPDATE_ENTITY_DATA: Set Bki Tbujhja (ID: 17780766/0x010F501E) main speed = 9* * 0.1
  1: 0x0744 [0x1F] MOVE_ENTITY: EventEntity moves to X=-74.699*, Z=-107.115*, Y=5.999*
  2: 0x074C [0x1F] MOVE_ENTITY: Update entity position (mode=1)
  3: 0x074E [0x6F] WAIT_FRAME_DELAY: Yield until WaitTime reaches zero
  4: 0x074F [0x00] END_REQSTACK()
```

### Event 65535.69

#### Metadata

| Field        | Value    |
|--------------|----------|
| Entrypoint   | 0x0750   |
| Data Size    | 20 bytes |
| Instructions | 5        |

```
      00 01 02 03 04 05 06 07  08 09 0A 0B 0C 0D 0E 0F
      -- -- -- -- -- -- -- --  -- -- -- -- -- -- -- --
0750: 59 04 1E 50 0F 01 24 80  1F 00 6C 80 6D 80 29 80  Y..P..$...l.m.).
0760: 1F 01 6F 00                                       ..o.            
```

#### Opcodes

```
  0: 0x0750 [0x59] UPDATE_ENTITY_DATA: Set Bki Tbujhja (ID: 17780766/0x010F501E) main speed = 11* * 0.1
  1: 0x0758 [0x1F] MOVE_ENTITY: EventEntity moves to X=-72.052*, Z=-102.467*, Y=5.999*
  2: 0x0760 [0x1F] MOVE_ENTITY: Update entity position (mode=1)
  3: 0x0762 [0x6F] WAIT_FRAME_DELAY: Yield until WaitTime reaches zero
  4: 0x0763 [0x00] END_REQSTACK()
```

### Event 65535.70

#### Metadata

| Field        | Value    |
|--------------|----------|
| Entrypoint   | 0x0764   |
| Data Size    | 16 bytes |
| Instructions | 2        |

```
      00 01 02 03 04 05 06 07  08 09 0A 0B 0C 0D 0E 0F
      -- -- -- -- -- -- -- --  -- -- -- -- -- -- -- --
0760:             66 00 80 1E  50 0F 01 1E 50 0F 01 61      f...P...P..a
0770: 77 77 30 00                                       ww0.            
```

#### Opcodes

```
  0: 0x0764 [0x66] LOAD_EXT_SCHEDULER_MAIN: Load scheduler "aww0" with entities [Bki Tbujhja (ID: 17780766/0x010F501E), Bki Tbujhja (ID: 17780766/0x010F501E)], work=8*
  1: 0x0773 [0x00] END_REQSTACK()
```

### Event 65535.71

#### Metadata

| Field        | Value    |
|--------------|----------|
| Entrypoint   | 0x0774   |
| Data Size    | 20 bytes |
| Instructions | 5        |

```
      00 01 02 03 04 05 06 07  08 09 0A 0B 0C 0D 0E 0F
      -- -- -- -- -- -- -- --  -- -- -- -- -- -- -- --
0770:             59 04 1E 50  0F 01 6B 80 1F 00 6E 80      Y..P..k...n.
0780: 6F 80 12 80 1F 01 6F 00                           o.....o.        
```

#### Opcodes

```
  0: 0x0774 [0x59] UPDATE_ENTITY_DATA: Set Bki Tbujhja (ID: 17780766/0x010F501E) main speed = 9* * 0.1
  1: 0x077C [0x1F] MOVE_ENTITY: EventEntity moves to X=-5.853*, Z=-5.190*, Y=0.000*
  2: 0x0784 [0x1F] MOVE_ENTITY: Update entity position (mode=1)
  3: 0x0786 [0x6F] WAIT_FRAME_DELAY: Yield until WaitTime reaches zero
  4: 0x0787 [0x00] END_REQSTACK()
```

### Event 65535.72

#### Metadata

| Field        | Value    |
|--------------|----------|
| Entrypoint   | 0x0788   |
| Data Size    | 21 bytes |
| Instructions | 5        |

```
      00 01 02 03 04 05 06 07  08 09 0A 0B 0C 0D 0E 0F
      -- -- -- -- -- -- -- --  -- -- -- -- -- -- -- --
0780:                          59 04 1E 50 0F 01 24 80          Y..P..$.
0790: 1F 00 63 80 64 80 29 80  1F 01 6F 00 00           ..c.d.)...o..   
```

#### Opcodes

```
  0: 0x0788 [0x59] UPDATE_ENTITY_DATA: Set Bki Tbujhja (ID: 17780766/0x010F501E) main speed = 11* * 0.1
  1: 0x0790 [0x1F] MOVE_ENTITY: EventEntity moves to X=-58.931*, Z=-86.942*, Y=5.999*
  2: 0x0798 [0x1F] MOVE_ENTITY: Update entity position (mode=1)
  3: 0x079A [0x6F] WAIT_FRAME_DELAY: Yield until WaitTime reaches zero
  4: 0x079B [0x00] END_REQSTACK()
```

#### Data or dead code:

```
# Dead code (unreachable instructions):
     0x079C [0x00] END_REQSTACK()
```

### Event 65535.73

#### Metadata

| Field        | Value    |
|--------------|----------|
| Entrypoint   | 0x079D   |
| Data Size    | 20 bytes |
| Instructions | 5        |

```
      00 01 02 03 04 05 06 07  08 09 0A 0B 0C 0D 0E 0F
      -- -- -- -- -- -- -- --  -- -- -- -- -- -- -- --
0790:                                         59 04 27               Y.'
07A0: 50 0F 01 21 80 1F 00 70  80 71 80 72 80 1F 01 6F  P..!...p.q.r...o
07B0: 00                                                .               
```

#### Opcodes

```
  0: 0x079D [0x59] UPDATE_ENTITY_DATA: Set Danzhor (ID: 17780775/0x010F5027) main speed = 12* * 0.1
  1: 0x07A5 [0x1F] MOVE_ENTITY: EventEntity moves to X=-45.210*, Z=-89.196*, Y=-5.999*
  2: 0x07AD [0x1F] MOVE_ENTITY: Update entity position (mode=1)
  3: 0x07AF [0x6F] WAIT_FRAME_DELAY: Yield until WaitTime reaches zero
  4: 0x07B0 [0x00] END_REQSTACK()
```

### Event 65535.74

#### Metadata

| Field        | Value    |
|--------------|----------|
| Entrypoint   | 0x07B1   |
| Data Size    | 12 bytes |
| Instructions | 4        |

```
      00 01 02 03 04 05 06 07  08 09 0A 0B 0C 0D 0E 0F
      -- -- -- -- -- -- -- --  -- -- -- -- -- -- -- --
07B0:    1F 00 73 80 74 80 12  80 1F 01 6F 00            ..s.t.....o.   
```

#### Opcodes

```
  0: 0x07B1 [0x1F] MOVE_ENTITY: EventEntity moves to X=-18.343*, Z=-8.286*, Y=0.000*
  1: 0x07B9 [0x1F] MOVE_ENTITY: Update entity position (mode=1)
  2: 0x07BB [0x6F] WAIT_FRAME_DELAY: Yield until WaitTime reaches zero
  3: 0x07BC [0x00] END_REQSTACK()
```

### Event 65535.75

#### Metadata

| Field        | Value    |
|--------------|----------|
| Entrypoint   | 0x07BD   |
| Data Size    | 16 bytes |
| Instructions | 2        |

```
      00 01 02 03 04 05 06 07  08 09 0A 0B 0C 0D 0E 0F
      -- -- -- -- -- -- -- --  -- -- -- -- -- -- -- --
07B0:                                         66 35 80               f5.
07C0: 27 50 0F 01 27 50 0F 01  74 68 6B 31 00           'P..'P..thk1.   
```

#### Opcodes

```
  0: 0x07BD [0x66] LOAD_EXT_SCHEDULER_MAIN: Load scheduler "thk1" with entities [Danzhor (ID: 17780775/0x010F5027), Danzhor (ID: 17780775/0x010F5027)], work=69*
  1: 0x07CC [0x00] END_REQSTACK()
```

### Event 65535.76

#### Metadata

| Field        | Value    |
|--------------|----------|
| Entrypoint   | 0x07CD   |
| Data Size    | 16 bytes |
| Instructions | 2        |

```
      00 01 02 03 04 05 06 07  08 09 0A 0B 0C 0D 0E 0F
      -- -- -- -- -- -- -- --  -- -- -- -- -- -- -- --
07C0:                                         66 35 80               f5.
07D0: 27 50 0F 01 27 50 0F 01  74 68 6B 32 00           'P..'P..thk2.   
```

#### Opcodes

```
  0: 0x07CD [0x66] LOAD_EXT_SCHEDULER_MAIN: Load scheduler "thk2" with entities [Danzhor (ID: 17780775/0x010F5027), Danzhor (ID: 17780775/0x010F5027)], work=69*
  1: 0x07DC [0x00] END_REQSTACK()
```

### Event 65535.77

#### Metadata

| Field        | Value    |
|--------------|----------|
| Entrypoint   | 0x07DD   |
| Data Size    | 20 bytes |
| Instructions | 5        |

```
      00 01 02 03 04 05 06 07  08 09 0A 0B 0C 0D 0E 0F
      -- -- -- -- -- -- -- --  -- -- -- -- -- -- -- --
07D0:                                         59 04 27               Y.'
07E0: 50 0F 01 21 80 1F 00 75  80 76 80 12 80 1F 01 6F  P..!...u.v.....o
07F0: 00                                                .               
```

#### Opcodes

```
  0: 0x07DD [0x59] UPDATE_ENTITY_DATA: Set Danzhor (ID: 17780775/0x010F5027) main speed = 12* * 0.1
  1: 0x07E5 [0x1F] MOVE_ENTITY: EventEntity moves to X=-17.939*, Z=-16.579*, Y=0.000*
  2: 0x07ED [0x1F] MOVE_ENTITY: Update entity position (mode=1)
  3: 0x07EF [0x6F] WAIT_FRAME_DELAY: Yield until WaitTime reaches zero
  4: 0x07F0 [0x00] END_REQSTACK()
```

### Event 65535.78

#### Metadata

| Field        | Value    |
|--------------|----------|
| Entrypoint   | 0x07F1   |
| Data Size    | 20 bytes |
| Instructions | 5        |

```
      00 01 02 03 04 05 06 07  08 09 0A 0B 0C 0D 0E 0F
      -- -- -- -- -- -- -- --  -- -- -- -- -- -- -- --
07F0:    59 04 27 50 0F 01 21  80 1F 00 77 80 78 80 12   Y.'P..!...w.x..
0800: 80 1F 01 6F 00                                    ...o.           
```

#### Opcodes

```
  0: 0x07F1 [0x59] UPDATE_ENTITY_DATA: Set Danzhor (ID: 17780775/0x010F5027) main speed = 12* * 0.1
  1: 0x07F9 [0x1F] MOVE_ENTITY: EventEntity moves to X=-3.065*, Z=-7.931*, Y=0.000*
  2: 0x0801 [0x1F] MOVE_ENTITY: Update entity position (mode=1)
  3: 0x0803 [0x6F] WAIT_FRAME_DELAY: Yield until WaitTime reaches zero
  4: 0x0804 [0x00] END_REQSTACK()
```

### Event 65535.79

#### Metadata

| Field        | Value    |
|--------------|----------|
| Entrypoint   | 0x0805   |
| Data Size    | 17 bytes |
| Instructions | 2        |

```
      00 01 02 03 04 05 06 07  08 09 0A 0B 0C 0D 0E 0F
      -- -- -- -- -- -- -- --  -- -- -- -- -- -- -- --
0800:                66 4A 80  30 50 0F 01 30 50 0F 01       fJ.0P..0P..
0810: 73 68 6B 30 00 00                                 shk0..          
```

#### Opcodes

```
  0: 0x0805 [0x66] LOAD_EXT_SCHEDULER_MAIN: Load scheduler "shk0" with entities [Kikilolo (ID: 17780784/0x010F5030), Kikilolo (ID: 17780784/0x010F5030)], work=41*
  1: 0x0814 [0x00] END_REQSTACK()
```

#### Data or dead code:

```
# Dead code (unreachable instructions):
     0x0815 [0x00] END_REQSTACK()
```

### Event 65535.80

#### Metadata

| Field        | Value    |
|--------------|----------|
| Entrypoint   | 0x0816   |
| Data Size    | 16 bytes |
| Instructions | 2        |

```
      00 01 02 03 04 05 06 07  08 09 0A 0B 0C 0D 0E 0F
      -- -- -- -- -- -- -- --  -- -- -- -- -- -- -- --
0810:                   5B 79  80 39 50 0F 01 39 50 0F        [y.9P..9P.
0820: 01 74 6C 6B 30 00                                 .tlk0.          
```

#### Opcodes

```
  0: 0x0816 [0x5B] LOAD_EXT_SCHEDULER: Load scheduler "tlk0" with entities [Momiji (ID: 17780793/0x010F5039), Momiji (ID: 17780793/0x010F5039)], work=60*
  1: 0x0825 [0x00] END_REQSTACK()
```

### Event 65535.81

#### Metadata

| Field        | Value    |
|--------------|----------|
| Entrypoint   | 0x0826   |
| Data Size    | 16 bytes |
| Instructions | 2        |

```
      00 01 02 03 04 05 06 07  08 09 0A 0B 0C 0D 0E 0F
      -- -- -- -- -- -- -- --  -- -- -- -- -- -- -- --
0820:                   5B 79  80 39 50 0F 01 39 50 0F        [y.9P..9P.
0830: 01 74 6C 6B 31 00                                 .tlk1.          
```

#### Opcodes

```
  0: 0x0826 [0x5B] LOAD_EXT_SCHEDULER: Load scheduler "tlk1" with entities [Momiji (ID: 17780793/0x010F5039), Momiji (ID: 17780793/0x010F5039)], work=60*
  1: 0x0835 [0x00] END_REQSTACK()
```

### Event 65535.82

#### Metadata

| Field        | Value    |
|--------------|----------|
| Entrypoint   | 0x0836   |
| Data Size    | 16 bytes |
| Instructions | 2        |

```
      00 01 02 03 04 05 06 07  08 09 0A 0B 0C 0D 0E 0F
      -- -- -- -- -- -- -- --  -- -- -- -- -- -- -- --
0830:                   5B 79  80 39 50 0F 01 39 50 0F        [y.9P..9P.
0840: 01 74 68 6B 31 00                                 .thk1.          
```

#### Opcodes

```
  0: 0x0836 [0x5B] LOAD_EXT_SCHEDULER: Load scheduler "thk1" with entities [Momiji (ID: 17780793/0x010F5039), Momiji (ID: 17780793/0x010F5039)], work=60*
  1: 0x0845 [0x00] END_REQSTACK()
```

### Event 65535.83

#### Metadata

| Field        | Value    |
|--------------|----------|
| Entrypoint   | 0x0846   |
| Data Size    | 16 bytes |
| Instructions | 2        |

```
      00 01 02 03 04 05 06 07  08 09 0A 0B 0C 0D 0E 0F
      -- -- -- -- -- -- -- --  -- -- -- -- -- -- -- --
0840:                   5B 79  80 39 50 0F 01 39 50 0F        [y.9P..9P.
0850: 01 74 68 6B 32 00                                 .thk2.          
```

#### Opcodes

```
  0: 0x0846 [0x5B] LOAD_EXT_SCHEDULER: Load scheduler "thk2" with entities [Momiji (ID: 17780793/0x010F5039), Momiji (ID: 17780793/0x010F5039)], work=60*
  1: 0x0855 [0x00] END_REQSTACK()
```

### Event 65535.84

#### Metadata

| Field        | Value    |
|--------------|----------|
| Entrypoint   | 0x0856   |
| Data Size    | 17 bytes |
| Instructions | 2        |

```
      00 01 02 03 04 05 06 07  08 09 0A 0B 0C 0D 0E 0F
      -- -- -- -- -- -- -- --  -- -- -- -- -- -- -- --
0850:                   5B 7A  80 39 50 0F 01 39 50 0F        [z.9P..9P.
0860: 01 65 6D 74 30 00 00                              .emt0..         
```

#### Opcodes

```
  0: 0x0856 [0x5B] LOAD_EXT_SCHEDULER: Load scheduler "emt0" with entities [Momiji (ID: 17780793/0x010F5039), Momiji (ID: 17780793/0x010F5039)], work=2624*
  1: 0x0865 [0x00] END_REQSTACK()
```

#### Data or dead code:

```
# Dead code (unreachable instructions):
     0x0866 [0x00] END_REQSTACK()
```

### Event 65535.85

#### Metadata

| Field        | Value    |
|--------------|----------|
| Entrypoint   | 0x0867   |
| Data Size    | 20 bytes |
| Instructions | 5        |

```
      00 01 02 03 04 05 06 07  08 09 0A 0B 0C 0D 0E 0F
      -- -- -- -- -- -- -- --  -- -- -- -- -- -- -- --
0860:                      59  04 3C 50 0F 01 53 80 1F         Y.<P..S..
0870: 00 7B 80 7C 80 12 80 1F  01 6F 00                 .{.|.....o.     
```

#### Opcodes

```
  0: 0x0867 [0x59] UPDATE_ENTITY_DATA: Set Mendi (ID: 17780796/0x010F503C) main speed = 13* * 0.1
  1: 0x086F [0x1F] MOVE_ENTITY: EventEntity moves to X=-38.371*, Z=-67.496*, Y=0.000*
  2: 0x0877 [0x1F] MOVE_ENTITY: Update entity position (mode=1)
  3: 0x0879 [0x6F] WAIT_FRAME_DELAY: Yield until WaitTime reaches zero
  4: 0x087A [0x00] END_REQSTACK()
```

### Event 65535.86

#### Metadata

| Field        | Value    |
|--------------|----------|
| Entrypoint   | 0x087B   |
| Data Size    | 12 bytes |
| Instructions | 4        |

```
      00 01 02 03 04 05 06 07  08 09 0A 0B 0C 0D 0E 0F
      -- -- -- -- -- -- -- --  -- -- -- -- -- -- -- --
0870:                                   1F 00 7D 80 7E             ..}.~
0880: 80 12 80 1F 01 6F 00                              .....o.         
```

#### Opcodes

```
  0: 0x087B [0x1F] MOVE_ENTITY: EventEntity moves to X=-5.565*, Z=-1.804*, Y=0.000*
  1: 0x0883 [0x1F] MOVE_ENTITY: Update entity position (mode=1)
  2: 0x0885 [0x6F] WAIT_FRAME_DELAY: Yield until WaitTime reaches zero
  3: 0x0886 [0x00] END_REQSTACK()
```

### Event 65535.87

#### Metadata

| Field        | Value    |
|--------------|----------|
| Entrypoint   | 0x0887   |
| Data Size    | 16 bytes |
| Instructions | 2        |

```
      00 01 02 03 04 05 06 07  08 09 0A 0B 0C 0D 0E 0F
      -- -- -- -- -- -- -- --  -- -- -- -- -- -- -- --
0880:                      5B  68 80 3C 50 0F 01 3C 50         [h.<P..<P
0890: 0F 01 6F 70 62 30 00                              ..opb0.         
```

#### Opcodes

```
  0: 0x0887 [0x5B] LOAD_EXT_SCHEDULER: Load scheduler "opb0" with entities [Mendi (ID: 17780796/0x010F503C), Mendi (ID: 17780796/0x010F503C)], work=2583*
  1: 0x0896 [0x00] END_REQSTACK()
```

### Event 65535.88

#### Metadata

| Field        | Value    |
|--------------|----------|
| Entrypoint   | 0x0897   |
| Data Size    | 16 bytes |
| Instructions | 2        |

```
