# 17780982 - Nantoto

## Common Data

| Field            | Value                 |
|------------------|-----------------------|
| Zone             | Lower Jeuno (ID: 245) |
| Block Size       | 19796 bytes           |
| Total Events     | 23                    |
| References Count | 374                   |

## List of Events

| Event ID              | Entrypoint   |   Size |   Instructions |
|-----------------------|--------------|--------|----------------|
| [65535](#event-65535) | 0x0000       |    658 |             62 |
| [20054](#event-20054) | 0x0292       |    527 |             82 |
| [20035](#event-20035) | 0x04A1       |   1836 |            230 |
| [20037](#event-20037) | 0x0BCD       |   2178 |            285 |
| [20039](#event-20039) | 0x144F       |   1006 |            139 |
| [20041](#event-20041) | 0x183D       |   2695 |            356 |
| [20045](#event-20045) | 0x22C4       |   1788 |            222 |
| [20052](#event-20052) | 0x29C0       |   1099 |            152 |
| [20047](#event-20047) | 0x2E0B       |   5085 |            627 |
| [20033](#event-20033) | 0x41E8       |    139 |             20 |
| [20034](#event-20034) | 0x4273       |    126 |             21 |
| [20036](#event-20036) | 0x42F1       |    223 |             40 |
| [20049](#event-20049) | 0x43D0       |     76 |             12 |
| [20038](#event-20038) | 0x441C       |     15 |              5 |
| [20040](#event-20040) | 0x442B       |     76 |             12 |
| [20050](#event-20050) | 0x4477       |     76 |             12 |
| [20042](#event-20042) | 0x44C3       |     76 |             12 |
| [20043](#event-20043) | 0x450F       |    101 |             22 |
| [20044](#event-20044) | 0x4574       |     30 |              8 |
| [20046](#event-20046) | 0x4592       |     30 |              8 |
| [20051](#event-20051) | 0x45B0       |     59 |             11 |
| [20048](#event-20048) | 0x45EB       |     45 |             11 |
| [20053](#event-20053) | 0x4618       |    247 |             40 |

## DAT References (imed_data)

|   Index | Hex Value   |   Dec Value |
|---------|-------------|-------------|
|       0 | 0x00C8      |         200 |
|       1 | 0x0000      |           0 |
|       2 | 0x00C9      |         201 |
|       3 | 0x0001      |           1 |
|       4 | 0x002D      |          45 |
|       5 | 0x0002      |           2 |
|       6 | 0x001E      |          30 |
|       7 | 0x00D7      |         215 |
|       8 | 0x0008      |           8 |
|       9 | 0x0028      |          40 |
|      10 | 0x2A69      |       10857 |
|      11 | 0x0032      |          50 |
|      12 | 0x0096      |         150 |
|      13 | 0x2A6A      |       10858 |
|      14 | 0x2A6B      |       10859 |
|      15 | 0x0064      |         100 |
|      16 | 0x2A6C      |       10860 |
|      17 | 0x2A6D      |       10861 |
|      18 | 0x0003      |           3 |
|      19 | 0x0004      |           4 |
|      20 | 0x0005      |           5 |
|      21 | 0x0006      |           6 |
|      22 | 0x0007      |           7 |
|      23 | 0x0009      |           9 |
|      24 | 0x000A      |          10 |
|      25 | 0x000B      |          11 |
|      26 | 0x00C7      |         199 |
|      27 | 0x0046      |          70 |
|      28 | 0x2A6E      |       10862 |
|      29 | 0x2A6F      |       10863 |
|      30 | 0x0093      |         147 |
|      31 | 0xFFFF52AD  |  4294922925 |
|      32 | 0xFFFF3F38  |  4294917944 |
|      33 | 0x07C6      |        1990 |
|      34 | 0xFFFF7720  |  4294932256 |
|      35 | 0xFFFF51EC  |  4294922732 |
|      36 | 0xFFFF7225  |  4294930981 |
|      37 | 0xFFFF4B1F  |  4294920991 |
|      38 | 0x0AE7      |        2791 |
|      39 | 0x0273      |         627 |
|      40 | 0x29B2      |       10674 |
|      41 | 0x29A0      |       10656 |
|      42 | 0x29A1      |       10657 |
|      43 | 0x29A2      |       10658 |
|      44 | 0x29A3      |       10659 |
|      45 | 0x29A4      |       10660 |
|      46 | 0x0020      |          32 |
|      47 | 0x29A5      |       10661 |
|      48 | 0x29A6      |       10662 |
|      49 | 0x0050      |          80 |
|      50 | 0x29A7      |       10663 |
|      51 | 0x000F      |          15 |
|      52 | 0x29A8      |       10664 |
|      53 | 0x29A9      |       10665 |
|      54 | 0x29AA      |       10666 |
|      55 | 0x29AB      |       10667 |
|      56 | 0x29AC      |       10668 |
|      57 | 0x29AD      |       10669 |
|      58 | 0x29AE      |       10670 |
|      59 | 0x29AF      |       10671 |
|      60 | 0x29B0      |       10672 |
|      61 | 0x29B1      |       10673 |
|      62 | 0x29B3      |       10675 |
|      63 | 0x29B4      |       10676 |
|      64 | 0x29B5      |       10677 |
|      65 | 0x0022      |          34 |
|      66 | 0x29B8      |       10680 |
|      67 | 0x29B9      |       10681 |
|      68 | 0x29B6      |       10678 |
|      69 | 0x29B7      |       10679 |
|      70 | 0x29BA      |       10682 |
|      71 | 0xFFFF8FB0  |  4294938544 |
|      72 | 0xFFFF6529  |  4294927657 |
|      73 | 0xFFFF9984  |  4294941060 |
|      74 | 0xFFFF6241  |  4294926913 |
|      75 | 0x0045      |          69 |
|      76 | 0x29BE      |       10686 |
|      77 | 0x29BF      |       10687 |
|      78 | 0x003C      |          60 |
|      79 | 0x0078      |         120 |
|      80 | 0x29C0      |       10688 |
|      81 | 0xFFFF797F  |  4294932863 |
|      82 | 0xFFFF3B3A  |  4294916922 |
|      83 | 0x051C      |        1308 |
|      84 | 0xFFFF4F22  |  4294922018 |
|      85 | 0xFFFF3E62  |  4294917730 |
|      86 | 0x012C      |         300 |
|      87 | 0x000D      |          13 |
|      88 | 0xFFFF4AC1  |  4294920897 |
|      89 | 0xFFFF3E84  |  4294917764 |
|      90 | 0x007F      |         127 |
|      91 | 0x00F0      |         240 |
|      92 | 0x29C1      |       10689 |
|      93 | 0x29C2      |       10690 |
|      94 | 0x29C3      |       10691 |
|      95 | 0x29C4      |       10692 |
|      96 | 0x29C5      |       10693 |
|      97 | 0x29C6      |       10694 |
|      98 | 0xFFFF874F  |  4294936399 |
|      99 | 0xFFFF3E44  |  4294917700 |
|     100 | 0xFFFF9164  |  4294938980 |
|     101 | 0xFFFF3AAB  |  4294916779 |
|     102 | 0x06B3      |        1715 |
|     103 | 0xFFFF836D  |  4294935405 |
|     104 | 0xFFFF35C2  |  4294915522 |
|     105 | 0x0F79      |        3961 |
|     106 | 0xFFFF8EC9  |  4294938313 |
|     107 | 0xFFFF417A  |  4294918522 |
|     108 | 0x04E9      |        1257 |
|     109 | 0xFFFF8CA1  |  4294937761 |
|     110 | 0xFFFF322E  |  4294914606 |
|     111 | 0x0B69      |        2921 |
|     112 | 0x007C      |         124 |
|     113 | 0x29C7      |       10695 |
|     114 | 0x002A      |          42 |
|     115 | 0x29C8      |       10696 |
|     116 | 0x0027      |          39 |
|     117 | 0x29C9      |       10697 |
|     118 | 0x0024      |          36 |
|     119 | 0x29CA      |       10698 |
|     120 | 0x29CB      |       10699 |
|     121 | 0x0016      |          22 |
|     122 | 0x29CC      |       10700 |
|     123 | 0x003B      |          59 |
|     124 | 0x29CD      |       10701 |
|     125 | 0x29CE      |       10702 |
|     126 | 0x29CF      |       10703 |
|     127 | 0x29D0      |       10704 |
|     128 | 0x29D1      |       10705 |
|     129 | 0x29D2      |       10706 |
|     130 | 0x00EF      |         239 |
|     131 | 0x006E      |         110 |
|     132 | 0x29D3      |       10707 |
|     133 | 0x29D4      |       10708 |
|     134 | 0x29D5      |       10709 |
|     135 | 0x29E3      |       10723 |
|     136 | 0xFFFF587B  |  4294924411 |
|     137 | 0xFFFF4505  |  4294919429 |
|     138 | 0x07C5      |        1989 |
|     139 | 0x29D7      |       10711 |
|     140 | 0x29D8      |       10712 |
|     141 | 0x29D9      |       10713 |
|     142 | 0x0013      |          19 |
|     143 | 0x29DA      |       10714 |
|     144 | 0x29DB      |       10715 |
|     145 | 0x29DC      |       10716 |
|     146 | 0x29DD      |       10717 |
|     147 | 0x29DE      |       10718 |
|     148 | 0x29DF      |       10719 |
|     149 | 0x29E0      |       10720 |
|     150 | 0x29E1      |       10721 |
|     151 | 0x29E4      |       10724 |
|     152 | 0x29E2      |       10722 |
|     153 | 0x0014      |          20 |
|     154 | 0x0776      |        1910 |
|     155 | 0x29E5      |       10725 |
|     156 | 0x0072      |         114 |
|     157 | 0x29E6      |       10726 |
|     158 | 0xFFFF5F46  |  4294926150 |
|     159 | 0xFFFF4313  |  4294918931 |
|     160 | 0xFFFF4EF3  |  4294921971 |
|     161 | 0xFFFF3505  |  4294915333 |
|     162 | 0x0947      |        2375 |
|     163 | 0xFFFF48BB  |  4294920379 |
|     164 | 0xFFFF3411  |  4294915089 |
|     165 | 0x0C9A      |        3226 |
|     166 | 0x001F      |          31 |
|     167 | 0x0168      |         360 |
|     168 | 0x29E8      |       10728 |
|     169 | 0x007B      |         123 |
|     170 | 0x29E9      |       10729 |
|     171 | 0x29EA      |       10730 |
|     172 | 0x29EB      |       10731 |
|     173 | 0x0015      |          21 |
|     174 | 0x29EC      |       10732 |
|     175 | 0x29ED      |       10733 |
|     176 | 0x29EE      |       10734 |
|     177 | 0x29EF      |       10735 |
|     178 | 0x29F0      |       10736 |
|     179 | 0x29F1      |       10737 |
|     180 | 0xFFFF4D65  |  4294921573 |
|     181 | 0xFFFF3304  |  4294914820 |
|     182 | 0x005A      |          90 |
|     183 | 0x29F2      |       10738 |
|     184 | 0x000C      |          12 |
|     185 | 0x0012      |          18 |
|     186 | 0x29F3      |       10739 |
|     187 | 0x29F4      |       10740 |
|     188 | 0x29F5      |       10741 |
|     189 | 0x29F6      |       10742 |
|     190 | 0x29F7      |       10743 |
|     191 | 0x29F8      |       10744 |
|     192 | 0x29F9      |       10745 |
|     193 | 0x29FA      |       10746 |
|     194 | 0x00D2      |         210 |
|     195 | 0x29FB      |       10747 |
|     196 | 0x29FC      |       10748 |
|     197 | 0x29FD      |       10749 |
|     198 | 0x29FE      |       10750 |
|     199 | 0x29FF      |       10751 |
|     200 | 0x2A00      |       10752 |
|     201 | 0x2A01      |       10753 |
|     202 | 0x2A02      |       10754 |
|     203 | 0x2A03      |       10755 |
|     204 | 0x2A04      |       10756 |
|     205 | 0x2A05      |       10757 |
|     206 | 0x2A06      |       10758 |
|     207 | 0x0023      |          35 |
|     208 | 0x2A07      |       10759 |
|     209 | 0x2A08      |       10760 |
|     210 | 0x2A09      |       10761 |
|     211 | 0x2A0A      |       10762 |
|     212 | 0x2A0B      |       10763 |
|     213 | 0x2A0C      |       10764 |
|     214 | 0xFFFF77C4  |  4294932420 |
|     215 | 0xFFFF5885  |  4294924421 |
|     216 | 0x0EA8      |        3752 |
|     217 | 0x0269      |         617 |
|     218 | 0xFFFF5C60  |  4294925408 |
|     219 | 0xFFFF450C  |  4294919436 |
|     220 | 0x2A12      |       10770 |
|     221 | 0x2A13      |       10771 |
|     222 | 0x2A14      |       10772 |
|     223 | 0x0262      |         610 |
|     224 | 0x2A15      |       10773 |
|     225 | 0x2A16      |       10774 |
|     226 | 0x2A17      |       10775 |
|     227 | 0x2A18      |       10776 |
|     228 | 0x2A19      |       10777 |
|     229 | 0x2A1A      |       10778 |
|     230 | 0x2A1B      |       10779 |
|     231 | 0x2A1C      |       10780 |
|     232 | 0x2A1E      |       10782 |
|     233 | 0x2A1D      |       10781 |
|     234 | 0x2A1F      |       10783 |
|     235 | 0x0031      |          49 |
|     236 | 0x2A20      |       10784 |
|     237 | 0xFFFF5946  |  4294924614 |
|     238 | 0xFFFF4D93  |  4294921619 |
|     239 | 0x2A21      |       10785 |
|     240 | 0x2A22      |       10786 |
|     241 | 0x00BD      |         189 |
|     242 | 0x2A23      |       10787 |
|     243 | 0x2A25      |       10789 |
|     244 | 0x2A26      |       10790 |
|     245 | 0x2A24      |       10788 |
|     246 | 0x2A27      |       10791 |
|     247 | 0x2A28      |       10792 |
|     248 | 0x2A29      |       10793 |
|     249 | 0x2A2A      |       10794 |
|     250 | 0xFFFF5B16  |  4294925078 |
|     251 | 0xFFFF5C05  |  4294925317 |
|     252 | 0x086F      |        2159 |
|     253 | 0xFFFF474A  |  4294920010 |
|     254 | 0xFFFF0E86  |  4294905478 |
|     255 | 0x0C2E      |        3118 |
|     256 | 0x026A      |         618 |
|     257 | 0x2A2C      |       10796 |
|     258 | 0x2A2D      |       10797 |
|     259 | 0x2A2E      |       10798 |
|     260 | 0x2A2F      |       10799 |
|     261 | 0x2A30      |       10800 |
|     262 | 0x2A31      |       10801 |
|     263 | 0xFFFF740C  |  4294931468 |
|     264 | 0xFFFF4EBE  |  4294921918 |
|     265 | 0x01DB      |         475 |
|     266 | 0xFFFF62DB  |  4294927067 |
|     267 | 0xFFFF5288  |  4294922888 |
|     268 | 0x0749      |        1865 |
|     269 | 0xFFFF6B70  |  4294929264 |
|     270 | 0xFFFF4FA0  |  4294922144 |
|     271 | 0x0680      |        1664 |
|     272 | 0xFFFF6792  |  4294928274 |
|     273 | 0xFFFF4A0E  |  4294920718 |
|     274 | 0x062C      |        1580 |
|     275 | 0xFFFF6A55  |  4294928981 |
|     276 | 0xFFFF53DC  |  4294923228 |
|     277 | 0x0696      |        1686 |
|     278 | 0xFFFF8FFF  |  4294938623 |
|     279 | 0xFFFF4AEB  |  4294920939 |
|     280 | 0x0792      |        1938 |
|     281 | 0xFFFF947B  |  4294939771 |
|     282 | 0xFFFF434E  |  4294918990 |
|     283 | 0x0811      |        2065 |
|     284 | 0xFFFF8A30  |  4294937136 |
|     285 | 0xFFFF3B76  |  4294916982 |
|     286 | 0x0B06      |        2822 |
|     287 | 0x2A32      |       10802 |
|     288 | 0x2A33      |       10803 |
|     289 | 0x00B3      |         179 |
|     290 | 0x2A34      |       10804 |
|     291 | 0x00D1      |         209 |
|     292 | 0x2A35      |       10805 |
|     293 | 0x2A36      |       10806 |
|     294 | 0x009F      |         159 |
|     295 | 0x00EA      |         234 |
|     296 | 0x2A37      |       10807 |
|     297 | 0x2A38      |       10808 |
|     298 | 0x2A39      |       10809 |
|     299 | 0x2A3A      |       10810 |
|     300 | 0x2A3B      |       10811 |
|     301 | 0x2A3C      |       10812 |
|     302 | 0x120D      |        4621 |
|     303 | 0x2A3D      |       10813 |
|     304 | 0x2A3E      |       10814 |
|     305 | 0x2A3F      |       10815 |
|     306 | 0x2A40      |       10816 |
|     307 | 0x0082      |         130 |
|     308 | 0x2A41      |       10817 |
|     309 | 0x001D      |          29 |
|     310 | 0x2A42      |       10818 |
|     311 | 0x2A43      |       10819 |
|     312 | 0x2A44      |       10820 |
|     313 | 0x2A45      |       10821 |
|     314 | 0x2A46      |       10822 |
|     315 | 0x2A47      |       10823 |
|     316 | 0x2A48      |       10824 |
|     317 | 0x0086      |         134 |
|     318 | 0x2A49      |       10825 |
|     319 | 0x2A4A      |       10826 |
|     320 | 0x2A4B      |       10827 |
|     321 | 0x2A4C      |       10828 |
|     322 | 0x2A4D      |       10829 |
|     323 | 0x2A4E      |       10830 |
|     324 | 0x2A4F      |       10831 |
|     325 | 0x2A50      |       10832 |
|     326 | 0x0018      |          24 |
|     327 | 0x2A51      |       10833 |
|     328 | 0x00A1      |         161 |
|     329 | 0x2A52      |       10834 |
|     330 | 0x2A53      |       10835 |
|     331 | 0x004B      |          75 |
|     332 | 0x2A54      |       10836 |
|     333 | 0x2A55      |       10837 |
|     334 | 0x2A56      |       10838 |
|     335 | 0x2A57      |       10839 |
|     336 | 0x2A58      |       10840 |
|     337 | 0x2A59      |       10841 |
|     338 | 0x0055      |          85 |
|     339 | 0x2A5A      |       10842 |
|     340 | 0x2A5C      |       10844 |
|     341 | 0x2A5D      |       10845 |
|     342 | 0x2A5E      |       10846 |
|     343 | 0x2A5F      |       10847 |
|     344 | 0x2A60      |       10848 |
|     345 | 0x2A61      |       10849 |
|     346 | 0x2A62      |       10850 |
|     347 | 0xFFFF60A7  |  4294926503 |
|     348 | 0xFFFF423E  |  4294918718 |
|     349 | 0x2A63      |       10851 |
|     350 | 0x2A64      |       10852 |
|     351 | 0x00B4      |         180 |
|     352 | 0x00FC      |         252 |
|     353 | 0x29D6      |       10710 |
|     354 | 0x299C      |       10652 |
|     355 | 0x09A2      |        2466 |
|     356 | 0x299D      |       10653 |
|     357 | 0x299E      |       10654 |
|     358 | 0x299F      |       10655 |
|     359 | 0x29BB      |       10683 |
|     360 | 0x29BD      |       10685 |
|     361 | 0x29BC      |       10684 |
|     362 | 0x29E7      |       10727 |
|     363 | 0x2A0D      |       10765 |
|     364 | 0x2A0E      |       10766 |
|     365 | 0x2A0F      |       10767 |
|     366 | 0x2A10      |       10768 |
|     367 | 0x2A11      |       10769 |
|     368 | 0x2A2B      |       10795 |
|     369 | 0x2A65      |       10853 |
|     370 | 0x2A66      |       10854 |
|     371 | 0x2A67      |       10855 |
|     372 | 0x006C      |         108 |
|     373 | 0x2A68      |       10856 |

## String References

- **10652**: Don't looky-wook at me like that, whelp.
- **10653**: That...that's $6!
- **10654**: Hmmm, another adventurer who sully-wullied [his/her] hands with Records of Eminence, I see.
- **10655**: Not that it concerns me in the leastaru.
- **10656**: Wait a goddess-damned minutaru, you're...
- **10657**: You're that adventurer who's not entirely-wirely unknown for [his/her] feats in Records of Eminence, right?
- **10658**: If I recall correctaruly, your name is...<Player>?
- **10659**: Is that your name? [Yes, ma'am./Nope, wrong person./My name's Kam'lanaut, jerk.]
- **10660**: Oh, I'm sorry. Didn't meant to holdy-wold you up. Carry on.
- **10661**: What did you say? Sorry, I'm hardly fluentaru in stupid.
- **10662**: I knew it, now here's the dossier of objective data. Make sure you don't look this giftaru chocobo in the mouth.
- **10663**: What? You can't do this alone?
- **10664**: Ugh, are you so mentaruly deficient that you haven't even heard of the Adventurers' Mutual Aid Network?
- **10665**: Lessee... A simple explanation for a simpleton... For example, you know those tomes that floataru outside the city, right?
- **10666**: A.M.A.N. is the group responsible-wonsible for those and other such adventurer-supporting ideas.
- **10667**: Records of Eminence is just another manifestation of A.M.A.N.'s helpful-welpful nature.
- **10668**: I'd like to know exactaruly who's dispensing the spoils for completed objectives and why, however.
- **10669**: They say that people's greatest fear is the fear of the unknown, which makes sense to me. Why else would my teeth start chattaruing every time I get objectives addressed to me with no sender?
- **10670**: Anyway, that's why I'm so gracious-waciously giving this one to you, <Player>.
- **10671**: ...You are going to prove to me that you're a truly valiantaru and brave adventurer, aren't you?
- **10672**: Will you prove your worth? [Yes, for no one questions my valor!/Doing your dirty work won't prove a thing.]
- **10673**: Fine, then. I'm sure there are hordes of other adventurers chomping-womping at the bit to prove their worth.
- **10674**: I knew you'd be back. So, are you ready to prove-wove yourself in Records of Eminence?
- **10675**: You adventurers can never abide affrontarus to your character, can you?
- **10676**: Either way, your objective is to investigate various telepoints. Yeesh, this task is so far beneath a white mage of my caliber-waliber, it isn't even funny.
- **10677**: Anything to say? [It's not beneath me./Teleport me to them, then.]
- **10678**: Teleportaru you!? Bite me!
- **10679**: You've just insulted every hardworking mage everywhere. You need to work for your share, not leech-weech off the kindness of strangers.
- **10680**: Excellentaru. Just remember to procure gate crystals along the way, lest you look like a fool.
- **10681**: Perfectaru. It shouldn't give you much trouble, either, as long as you know the spell Teleport.
- **10682**: Alright, I'll see you once you've completarued your objective.
- **10683**: Your mission, should you choose to remember-wember it, is to investigate the various telepoints scattered throughout Vana'diel.
- **10684**: Fine, fine, fine. Let me listaru the ones you've been to:[/ Holla.][/ Dem.][/ Mea.][/ Altepa.][/ Yhoator.][/ Vazhl.] I guess that means you've got [/one/two/three/four/five] to go.
- **10685**: ...Not the ripest pamama in the bunch, I see. You haven't investigated a single-wingle one!
- **10686**: I honestly didn't expectaru you to return with such haste.
- **10687**: Oh...no...
- **10688**: Don't you dare move a finger-winger, or I'll bite you harder than a poison leech!
- **10689**: That was Ervie...I mean Ervok.
- **10690**: He's my friend, but we haven't adventured together in so long. We've driftarued so far apart that the gap between us is impossible to cross.
- **10691**: But now I hear he started teaching-weaching people about Records of Eminence!
- **10692**: He even stopped using his real name. Now he goes by the moniker-woniker "Eternal Flame" or something dumb.
- **10693**: Back in the old days, the five of us always used to venture forth into the unknown and combataru the forces of evil whenever we got the chance.
- **10694**: I still remember how the auction house was always packed, so we'd meet in frontaru of the tavern.
- **10702**: It's not that I hate the spell Teleport. On the contrary, I felt like I was serving a greater purpose-wurpose whenever I used it.
- **10703**: I'll never forgetaru the memories of all I did with my friends back then. Countless sunsets have been swallowed by the ocean since I enjoyed using Teleport, but while I may not remember how many sunsets the seas have claimed, those memories are still as vivid as the bluest of skies.
- **10704**: ...Although they may not mean much now that our friendship has darkened more than the setting sun.
- **10705**: C...can I confide something to you? ...There's another reason-weason I handed over that objective.
- **10706**: You might not know this, but...one is the loneliest number to teleportaru.
- **10707**: Ugh, forget I said anything! It was all an elaborataru lie! Don't listen to my misguided ramblings!
- **10708**: More importantly, I should thank you for putting up with my shenanigan-wanigans.
- **10709**: Here. Now get out of my sightaru!
- **10710**: Ah, if it isn't <Player>. So, how's your inquestaru coming along?
- **10711**: <Sniffle> I want to ask Rolandienne and the others a favor-wavor, but...
- **10712**: ...What if they rejectaru my offer?
- **10713**: I just know they will, and I'll be devastatarued. Oh, my Goddess, I can feel myself getting depressed just thinking about it.
- **10714**: <Sigh>...
- **10715**: What timing-wiming you have, <Player>!
- **10716**: Another one of those strange and horrible-worrible objectives showed up in my name!
- **10717**: I don't getaru it at all. Why won't they leave me alone!?
- **10718**: Moreover, it's a real doozy-woozy. How can a delicataru little flower like me possibly be asked to slay nasty shadows in the Eldieme Necropolis!?
- **10719**: You know what? I refuse-wuse to undertake any of these until the person in charge shows himself!
- **10720**: ...So, <Player>, my friend of friends. My buddy of buddies...how about acceptaruing this objective in my stead?
- **10721**: Anything to say? [I'd love to help./...Delicate little flower?/No, thanks.]
- **10722**: Hmph! With that attitude, I'd be surprise-wised if you die ever having known the touch of a [woman/man].
- **10723**: So, have you finally caved in and decided to eradicataru those shadows in the Eldieme Necropolis?
- **10724**: Thanks for letting me know you're a misogynistaru.[/ It must be such a burden to loathe your own kind.]
- **10725**: Not scared of combat in the least, are you? Well, that's precisely the quality I'm looking for in my surrogataru.
- **10726**: I give you permission to go completely berserk-werk over any opponent you find, so don't disappoint me.
- **10727**: How does it feel to be the grim reaper-weaper of shadows in the Eldieme Necropolis?
- **10729**: When I say "No," I explicitaruly mean no!
- **10731**: Neither of you actually care about me. Ever since you began working as Records of Eminence guides, all you can think-wink about is how to make more gil!
- **10736**: Ah... H-hello, <Player>.
- **10737**: Anything to say? [What's going on?/Oooh, I love cat fights!]
- **10738**: I'm sorry you had to witness that unsavory-wavory display. It's just that...
- **10739**: Sorry, but I'm not in the mood to play along with your japes today. To spare me the embarrassmentaru of you guessing what happened, let me tell you instead.
- **10740**: These two just got done entreataruing me to help with an objective.
- **10743**: But I'm not interested in rewards or spoils at all! And that's why you came to me... You knew you'd get half the pie for a third of the effortaru!
- **10747**: Haaah... I'm so drain-wained.
- **10748**: At least I know you're not pretending-wending to be my friend to wring gil out of me, <Player>. I knew from the start you only cared about the reward.
- **10749**: Yet I can't faultaru your work ethic. You've performed far better than I assumed you would.
- **10750**: I have to say, though, part of me was jumping-wumping at the prospect of adventuring with my friends again.
- **10751**: On the other hand, I no longer understand what motivatarus adventurers.
- **10752**: I'd always assumed it was to appreciataru being with one's friends, but...
- **10753**: What do you think? Is there a specific reason-weason you became an adventurer?
- **10754**: What did you want to do as an adventurer? [Explore unknown frontiers./Share experiences with friends./Stuff and things./Search for shiny equipment./Expand my intellectual horizons./Combat powerful entities./Nothing in particular.]
- **10755**: Well, at least you're honestaru. Straight answers can be so refreshing.
- **10756**: You go "any way the wind blows," eh? I envy-wenvy you. I could never bring myself to do something so radical.
- **10757**: Unlike you, I...
- **10758**: I simultaneously covetaru the adventurer lifestyle while withdrawing from it.
- **10759**: What am I even doing...?
- **10760**: Deep down, I understand that Records of Eminence, objectives, and adventuring are nothing more than impetus-wimpetuses.
- **10761**: They're excuses to reach out, to make contactaru, to say, "I miss the time we spent together."
- **10762**: I just had to be stubborn-wubborn, though. If anyone here's a fool, it's definitely me.
- **10763**: ...And now I'm complaining to you. Some embodimentaru of adventuring ideals I turned out to be.
- **10764**: Take this and leave me to wallow in my self-pity-wity already!
- **10765**: Oh, to go adventuring again...
- **10766**: Hey, I have an idea. Why not lightaru these fireworks from a place that has special meaning to you? A place that's overflowing with memories of the past.
- **10767**: Then, could I ask you to share anything of significance-wificance you remember with those close to you?
- **10768**: You don't have to...but if you do, I'd be in your debtaru.
- **10769**: They say every adventurer has a reason for startaruing their journey. Sometimes I forget what mine was...
- **10770**: <Player>.
- **10771**: I've been giving it some thoughtaru for a while now, and, well, I...
- **10772**: I quitaru being an adventurer!
- **10773**: Now because of that...I need to ask you a favor-wavor.
- **10774**: You see, I got a little bit of Eternal Flame in me and kind of had A.M.A.N. make a special-wecial objective for me.
- **10775**: They were nice enough to oblige me and post it publicly, for all to undertake, which I appreciataru.
- **10776**: After mulling-wulling it over, though, I realized that I can't possibly completaru it alone.
- **10777**: So, yeeeah... <Whistle> I'm going to need-weed you to do it for me.
- **10778**: Wh-what'll you have to do? Well, uhhhm...just excommunicataru some Yagudo High Priests from Castle Oztroja, that's all.
- **10779**: Someone so teensy-weensy as me couldn't even pull a feather off one of them, let alone baste a flock. You've been baptized by the Records of Eminence, though! You can defeataru almost anything that comes at you, so will you please help me?
- **10780**: Will you help her? [With pleasure./If you give a Taru a treat...]
- **10781**: I guess I'll just have to ask a more competentaru adventurer, then. One who won't fly the coop when faced with a challenge.
- **10782**: I just knew you would! Now, go out and ground a few of those high flyers in the name of progress-wogress!
- **10783**: Why Yagudo High Priests?
- **10784**: I have my reason-weasons...
- **10785**: ...and that's why it had to be those theocratic thugs. I was sick of that sour-wour taste in my mouth.
- **10786**: Anything to say? [I feel for you./So you took it out on me?]
- **10787**: I can't begin to describe how elatarued you've just made me. Thank you.
- **10788**: So what if I did? You got a problem-woblem with that?
- **10789**: Anyway, I've discovered that in the end, adventaruing comes down to three things: strength of mind, strength of body, and the strength of fortune.
- **10790**: I understand that the wheel of fate does not stop in the same place-wace for everyone...
- **10791**: ...but still, I can't help but feel slightarued.
- **10792**: That's my honestaru opinion.
- **10793**: I won't ask for your empathy-wempathy or to have the scales fall from your eyes, I just want you to comply with my dumb requestaru.
- **10794**: ...Not at the expense of your own life, though. I wouldn't want to have that on my conscience-wonscience. Take as many companions as you can gather and don't do anything I wouldn't...wait, then you wouldn't even undertake this objective.
- **10795**: If the "Grudge" objective I gave you seems too difficultaru or dangerous, feel free to leave it for later-water.
- **10796**: You must be the envy of pugilistarus the world over.
- **10797**: To think that I was worried about you not coming back alive due to my exorbitantaru demands...
- **10798**: How silly-willy of me. I should have known that it would take more than a flock of zealous friars to kill you.
- **10799**: Especially with the aura of confidence you exertaru, I can never count you out of any fight.
- **10800**: Well, now that you've cleared the emotional cloud-wouds that hung over my heart, I can quit in peace. Too bad I'll have to look for a new place to stay, since I can't use my Mog House any more.
- **10801**: But before I go, take this as thanks for all you've done-wone.
- **10813**: Nantoto uses $0.
- **10814**: Nantoto learns a new spell!
- **10852**: I can't adequataruly express how much I owe you for taking out those Yagudo!
- **10853**: Listen, we've all decided-wided to go to $8...
- **10854**: We want to check on some reportarus concerning a humongous dragon that supposedly patrols the skies there.
- **10855**: We've heard various rumors about a specific locale there where bounding insectarus gather. Hopefully we'll be able to find it.
- **10856**: There's a mountain of hearsay about a flower there that floatarus in midair. I certainly want to see if it's actually real or not.
- **10857**: There you are! I've been looking-wooking all over for you.
- **10858**: I received a couple lettarus addressed to you.
- **10859**: They all come in...uniquely colored envelope-wenvelopes and are signed "D." What do you want to do with them?
- **10860**: Open which one? [None for the nonce./The white one./The green one./The silver one./The purple one./The black one./The blue one./The gold one./The yellow one./The brown one./The red one./The rainbow one.]
- **10861**: I wouldn't open any if I were you, either. You never know what crazy-wazy stuff people deliver these days. I'd feel bad about throwing another person's property away, though, so I'll hold onto them for safekeeping.
- **10862**: Here you go. I hope it doesn't contain anything too suspectaru.
- **10863**: The envelope contains a briefing for a new objective.

## Events

### Event 65535

#### Metadata

| Field        | Value     |
|--------------|-----------|
| Entrypoint   | 0x0000    |
| Data Size    | 658 bytes |
| Instructions | 1         |

```
      00 01 02 03 04 05 06 07  08 09 0A 0B 0C 0D 0E 0F
      -- -- -- -- -- -- -- --  -- -- -- -- -- -- -- --
0000: 00 45 00 80 F0 FF FF 7F  F0 FF FF 7F 66 64 69 30  .E..........fdi0
0010: 01 80 55 00 80 F0 FF FF  7F F0 FF FF 7F 66 64 69  ..U..........fdi
0020: 30 1B 45 00 80 F0 FF FF  7F F0 FF FF 7F 66 64 6F  0.E..........fdo
0030: 30 01 80 55 00 80 F0 FF  FF 7F F0 FF FF 7F 66 64  0..U..........fd
0040: 6F 30 1B 45 00 80 F0 FF  FF 7F F0 FF FF 7F 66 64  o0.E..........fd
0050: 69 31 01 80 55 00 80 F0  FF FF 7F F0 FF FF 7F 66  i1..U..........f
0060: 64 69 31 1B 45 00 80 F0  FF FF 7F F0 FF FF 7F 66  di1.E..........f
0070: 64 6F 31 01 80 55 00 80  F0 FF FF 7F F0 FF FF 7F  do1..U..........
0080: 66 64 6F 31 1B 45 02 80  F0 FF FF 7F F0 FF FF 7F  fdo1.E..........
0090: 77 68 69 31 01 80 55 02  80 F0 FF FF 7F F0 FF FF  whi1..U.........
00A0: 7F 77 68 69 31 1B 45 02  80 F0 FF FF 7F F0 FF FF  .whi1.E.........
00B0: 7F 77 68 6F 31 01 80 55  02 80 F0 FF FF 7F F0 FF  .who1..U........
00C0: FF 7F 77 68 6F 31 1B 45  02 80 F0 FF FF 7F F0 FF  ..who1.E........
00D0: FF 7F 77 68 6F 32 01 80  55 02 80 F0 FF FF 7F F0  ..who2..U.......
00E0: FF FF 7F 77 68 6F 32 1B  45 02 80 F0 FF FF 7F F0  ...who2.E.......
00F0: FF FF 7F 77 68 6F 33 01  80 55 02 80 F0 FF FF 7F  ...who3..U......
0100: F0 FF FF 7F 77 68 6F 33  1B 62 03 80 F0 FF FF 7F  ....who3.b......
0110: F0 FF FF 7F 6D 61 69 6E  01 80 1C 04 80 45 00 80  ....main.....E..
0120: F0 FF FF 7F F0 FF FF 7F  66 64 6F 31 01 80 55 00  ........fdo1..U.
0130: 80 F0 FF FF 7F F0 FF FF  7F 66 64 6F 31 1B 45 00  .........fdo1.E.
0140: 80 F0 FF FF 7F F0 FF FF  7F 66 64 69 31 01 80 62  .........fdi1..b
0150: 05 80 F0 FF FF 7F F0 FF  FF 7F 6D 61 69 6E 01 80  ..........main..
0160: 1C 06 80 55 00 80 F0 FF  FF 7F F0 FF FF 7F 66 64  ...U..........fd
0170: 69 31 1B 45 00 80 F0 FF  FF 7F F0 FF FF 7F 62 6C  i1.E..........bl
0180: 6F 6E 01 80 45 02 80 F0  FF FF 7F F0 FF FF 7F 62  on..E..........b
0190: 6C 6F 6E 01 80 1B 45 02  80 F0 FF FF 7F F0 FF FF  lon...E.........
01A0: 7F 77 68 69 30 01 80 55  02 80 F0 FF FF 7F F0 FF  .whi0..U........
01B0: FF 7F 77 68 69 30 1B 45  02 80 F0 FF FF 7F F0 FF  ..whi0.E........
01C0: FF 7F 77 68 6F 30 01 80  55 02 80 F0 FF FF 7F F0  ..who0..U.......
01D0: FF FF 7F 77 68 6F 30 1B  45 07 80 F0 FF FF 7F F0  ...who0.E.......
01E0: FF FF 7F 65 66 6F 6E 01  80 55 07 80 F0 FF FF 7F  ...efon..U......
01F0: F0 FF FF 7F 65 66 6F 6E  1B 45 00 80 F0 FF FF 7F  ....efon.E......
0200: F0 FF FF 7F 66 64 69 73  01 80 1B 45 00 80 F0 FF  ....fdis...E....
0210: FF 7F F0 FF FF 7F 66 64  6F 73 01 80 55 00 80 F0  ......fdos..U...
0220: FF FF 7F F0 FF FF 7F 66  64 6F 73 1B 45 00 80 F0  .......fdos.E...
0230: FF FF 7F F0 FF FF 7F 66  64 69 66 01 80 1B 45 00  .......fdif...E.
0240: 80 F0 FF FF 7F F0 FF FF  7F 66 64 6F 66 01 80 55  .........fdof..U
0250: 00 80 F0 FF FF 7F F0 FF  FF 7F 66 64 6F 66 1B 45  ..........fdof.E
0260: 00 80 F0 FF FF 7F F0 FF  FF 7F 66 64 69 70 01 80  ..........fdip..
0270: 1B 45 00 80 F0 FF FF 7F  F0 FF FF 7F 66 64 6F 70  .E..........fdop
0280: 01 80 55 00 80 F0 FF FF  7F F0 FF FF 7F 66 64 6F  ..U..........fdo
0290: 70 1B                                             p.              
```

#### Opcodes

```
  0: 0x0000 [0x00] END_REQSTACK()
```

#### Data or dead code:

```
# Dead code (unreachable instructions):
     0x0001 [0x45] LOAD_SCHEDULED_TASK: Load scheduler "fdi0" with entities [LocalPlayer, LocalPlayer], work=[200*, 0*]
     0x0012 [0x55] WAIT_LOAD_SCHEDULER: Wait for scheduler "fdi0" with entities [LocalPlayer, LocalPlayer], work=200*
     0x0021 [0x1B] RETURN
     0x0022 [0x45] LOAD_SCHEDULED_TASK: Load scheduler "fdo0" with entities [LocalPlayer, LocalPlayer], work=[200*, 0*]
     0x0033 [0x55] WAIT_LOAD_SCHEDULER: Wait for scheduler "fdo0" with entities [LocalPlayer, LocalPlayer], work=200*
     0x0042 [0x1B] RETURN
     0x0043 [0x45] LOAD_SCHEDULED_TASK: Load scheduler "fdi1" with entities [LocalPlayer, LocalPlayer], work=[200*, 0*]
     0x0054 [0x55] WAIT_LOAD_SCHEDULER: Wait for scheduler "fdi1" with entities [LocalPlayer, LocalPlayer], work=200*
     0x0063 [0x1B] RETURN
     0x0064 [0x45] LOAD_SCHEDULED_TASK: Load scheduler "fdo1" with entities [LocalPlayer, LocalPlayer], work=[200*, 0*]
     0x0075 [0x55] WAIT_LOAD_SCHEDULER: Wait for scheduler "fdo1" with entities [LocalPlayer, LocalPlayer], work=200*
     0x0084 [0x1B] RETURN
     0x0085 [0x45] LOAD_SCHEDULED_TASK: Load scheduler "whi1" with entities [LocalPlayer, LocalPlayer], work=[201*, 0*]
     0x0096 [0x55] WAIT_LOAD_SCHEDULER: Wait for scheduler "whi1" with entities [LocalPlayer, LocalPlayer], work=201*
     0x00A5 [0x1B] RETURN
     0x00A6 [0x45] LOAD_SCHEDULED_TASK: Load scheduler "who1" with entities [LocalPlayer, LocalPlayer], work=[201*, 0*]
     0x00B7 [0x55] WAIT_LOAD_SCHEDULER: Wait for scheduler "who1" with entities [LocalPlayer, LocalPlayer], work=201*
     0x00C6 [0x1B] RETURN
     0x00C7 [0x45] LOAD_SCHEDULED_TASK: Load scheduler "who2" with entities [LocalPlayer, LocalPlayer], work=[201*, 0*]
     0x00D8 [0x55] WAIT_LOAD_SCHEDULER: Wait for scheduler "who2" with entities [LocalPlayer, LocalPlayer], work=201*
     0x00E7 [0x1B] RETURN
     0x00E8 [0x45] LOAD_SCHEDULED_TASK: Load scheduler "who3" with entities [LocalPlayer, LocalPlayer], work=[201*, 0*]
     0x00F9 [0x55] WAIT_LOAD_SCHEDULER: Wait for scheduler "who3" with entities [LocalPlayer, LocalPlayer], work=201*
     0x0108 [0x1B] RETURN
     0x0109 [0x62] LOAD_EVENT_SCHEDULER: Load scheduler "main" with entities [LocalPlayer, LocalPlayer], work=[1*, 0*]
     0x011A [0x1C] WAIT(45* ticks)
     0x011D [0x45] LOAD_SCHEDULED_TASK: Load scheduler "fdo1" with entities [LocalPlayer, LocalPlayer], work=[200*, 0*]
     0x012E [0x55] WAIT_LOAD_SCHEDULER: Wait for scheduler "fdo1" with entities [LocalPlayer, LocalPlayer], work=200*
     0x013D [0x1B] RETURN
     0x013E [0x45] LOAD_SCHEDULED_TASK: Load scheduler "fdi1" with entities [LocalPlayer, LocalPlayer], work=[200*, 0*]
     0x014F [0x62] LOAD_EVENT_SCHEDULER: Load scheduler "main" with entities [LocalPlayer, LocalPlayer], work=[2*, 0*]
     0x0160 [0x1C] WAIT(30* ticks)
     0x0163 [0x55] WAIT_LOAD_SCHEDULER: Wait for scheduler "fdi1" with entities [LocalPlayer, LocalPlayer], work=200*
     0x0172 [0x1B] RETURN
     0x0173 [0x45] LOAD_SCHEDULED_TASK: Load scheduler "blon" with entities [LocalPlayer, LocalPlayer], work=[200*, 0*]
     0x0184 [0x45] LOAD_SCHEDULED_TASK: Load scheduler "blon" with entities [LocalPlayer, LocalPlayer], work=[201*, 0*]
     0x0195 [0x1B] RETURN
     0x0196 [0x45] LOAD_SCHEDULED_TASK: Load scheduler "whi0" with entities [LocalPlayer, LocalPlayer], work=[201*, 0*]
     0x01A7 [0x55] WAIT_LOAD_SCHEDULER: Wait for scheduler "whi0" with entities [LocalPlayer, LocalPlayer], work=201*
     0x01B6 [0x1B] RETURN
     0x01B7 [0x45] LOAD_SCHEDULED_TASK: Load scheduler "who0" with entities [LocalPlayer, LocalPlayer], work=[201*, 0*]
     0x01C8 [0x55] WAIT_LOAD_SCHEDULER: Wait for scheduler "who0" with entities [LocalPlayer, LocalPlayer], work=201*
     0x01D7 [0x1B] RETURN
     0x01D8 [0x45] LOAD_SCHEDULED_TASK: Load scheduler "efon" with entities [LocalPlayer, LocalPlayer], work=[215*, 0*]
     0x01E9 [0x55] WAIT_LOAD_SCHEDULER: Wait for scheduler "efon" with entities [LocalPlayer, LocalPlayer], work=215*
     0x01F8 [0x1B] RETURN
     0x01F9 [0x45] LOAD_SCHEDULED_TASK: Load scheduler "fdis" with entities [LocalPlayer, LocalPlayer], work=[200*, 0*]
     0x020A [0x1B] RETURN
     0x020B [0x45] LOAD_SCHEDULED_TASK: Load scheduler "fdos" with entities [LocalPlayer, LocalPlayer], work=[200*, 0*]
     0x021C [0x55] WAIT_LOAD_SCHEDULER: Wait for scheduler "fdos" with entities [LocalPlayer, LocalPlayer], work=200*
     0x022B [0x1B] RETURN
     0x022C [0x45] LOAD_SCHEDULED_TASK: Load scheduler "fdif" with entities [LocalPlayer, LocalPlayer], work=[200*, 0*]
     0x023D [0x1B] RETURN
     0x023E [0x45] LOAD_SCHEDULED_TASK: Load scheduler "fdof" with entities [LocalPlayer, LocalPlayer], work=[200*, 0*]
     0x024F [0x55] WAIT_LOAD_SCHEDULER: Wait for scheduler "fdof" with entities [LocalPlayer, LocalPlayer], work=200*
     0x025E [0x1B] RETURN
     0x025F [0x45] LOAD_SCHEDULED_TASK: Load scheduler "fdip" with entities [LocalPlayer, LocalPlayer], work=[200*, 0*]
     0x0270 [0x1B] RETURN
     0x0271 [0x45] LOAD_SCHEDULED_TASK: Load scheduler "fdop" with entities [LocalPlayer, LocalPlayer], work=[200*, 0*]
     0x0282 [0x55] WAIT_LOAD_SCHEDULER: Wait for scheduler "fdop" with entities [LocalPlayer, LocalPlayer], work=200*
     0x0291 [0x1B] RETURN
```

### Event 20054

#### Metadata

| Field        | Value     |
|--------------|-----------|
| Entrypoint   | 0x0292    |
| Data Size    | 527 bytes |
| Instructions | 37        |

```
      00 01 02 03 04 05 06 07  08 09 0A 0B 0C 0D 0E 0F
      -- -- -- -- -- -- -- --  -- -- -- -- -- -- -- --
0290:       42 03 00 00 03 10  06 01 10 4A F0 FF FF 7F    B........J....
02A0: F8 FF FF 7F 4A F8 FF FF  7F F0 FF FF 7F 6F 76 F8  ....J........ov.
02B0: FF FF 7F 6E F8 FF FF 7F  08 80 99 F8 FF FF 7F 1C  ...n............
02C0: 09 80 1D 0A 80 1C 0B 80  23 5F 06 09 80 F8 FF FF  ........#_......
02D0: 7F F8 FF FF 7F 74 6C 6B  30 0C 80 1D 0D 80 23 1D  .....tlk0.....#.
02E0: 0E 80 5F 07 F8 FF FF 7F  F8 FF FF 7F 74 6C 6B 30  .._.........tlk0
02F0: 23 5F 06 09 80 F8 FF FF  7F F8 FF FF 7F 74 6C 6B  #_...........tlk
0300: 31 0F 80 24 10 80 01 80  00 00 25 02 00 10 01 80  1..$......%.....
0310: 00 2A 03 1D 11 80 5F 07  F8 FF FF 7F F8 FF FF 7F  .*...._.........
0320: 74 6C 6B 31 23 21 00 01  74 04 02 00 10 03 80 00  tlk1#!..t.......
0330: 48 03 5F 07 F8 FF FF 7F  F8 FF FF 7F 74 6C 6B 31  H._.........tlk1
0340: 03 01 10 03 80 01 74 04  02 00 10 05 80 00 66 03  ......t.......f.
0350: 5F 07 F8 FF FF 7F F8 FF  FF 7F 74 6C 6B 31 03 01  _.........tlk1..
0360: 10 05 80 01 74 04 02 00  10 12 80 00 84 03 5F 07  ....t........._.
0370: F8 FF FF 7F F8 FF FF 7F  74 6C 6B 31 03 01 10 12  ........tlk1....
0380: 80 01 74 04 02 00 10 13  80 00 A2 03 5F 07 F8 FF  ..t........._...
0390: FF 7F F8 FF FF 7F 74 6C  6B 31 03 01 10 13 80 01  ......tlk1......
03A0: 74 04 02 00 10 14 80 00  C0 03 5F 07 F8 FF FF 7F  t........._.....
03B0: F8 FF FF 7F 74 6C 6B 31  03 01 10 14 80 01 74 04  ....tlk1......t.
03C0: 02 00 10 15 80 00 DE 03  5F 07 F8 FF FF 7F F8 FF  ........_.......
03D0: FF 7F 74 6C 6B 31 03 01  10 15 80 01 74 04 02 00  ..tlk1......t...
03E0: 10 16 80 00 FC 03 5F 07  F8 FF FF 7F F8 FF FF 7F  ......_.........
03F0: 74 6C 6B 31 03 01 10 16  80 01 74 04 02 00 10 08  tlk1......t.....
0400: 80 00 1A 04 5F 07 F8 FF  FF 7F F8 FF FF 7F 74 6C  ...._.........tl
0410: 6B 31 03 01 10 08 80 01  74 04 02 00 10 17 80 00  k1......t.......
0420: 38 04 5F 07 F8 FF FF 7F  F8 FF FF 7F 74 6C 6B 31  8._.........tlk1
0430: 03 01 10 17 80 01 74 04  02 00 10 18 80 00 56 04  ......t.......V.
0440: 5F 07 F8 FF FF 7F F8 FF  FF 7F 74 6C 6B 31 03 01  _.........tlk1..
0450: 10 18 80 01 74 04 02 00  10 19 80 00 74 04 5F 07  ....t.......t._.
0460: F8 FF FF 7F F8 FF FF 7F  74 6C 6B 31 03 01 10 19  ........tlk1....
0470: 80 01 74 04 5F 06 09 80  F8 FF FF 7F F8 FF FF 7F  ..t._...........
0480: 70 61 73 30 1A 80 1C 1B  80 1D 1C 80 5F 07 F8 FF  pas0........_...
0490: FF 7F F8 FF FF 7F 70 61  73 30 23 48 1D 80 23 21  ......pas0#H..#!
04A0: 00                                                .               
```

#### Opcodes

```
  0: 0x0292 [0x42] SET_CLI_EVENT_CANCEL_DATA()
  1: 0x0293 [0x03] ExtData[1]->WorkLocal[0] = Work_Zone[3]
  2: 0x0298 [0x06] Work_Zone[1] = 0
  3: 0x029B [0x4A] LocalPlayer looks at EventEntity
  4: 0x02A4 [0x4A] EventEntity looks at LocalPlayer
  5: 0x02AD [0x6F] WAIT_FRAME_DELAY: Yield until WaitTime reaches zero
  6: 0x02AE [0x76] CHECK_ENTITY_RENDER_FLAGS: Wait until EventEntity Render.Flags0 and Render.Flags3 conditions are met
  7: 0x02B3 [0x6E] EventEntity uses emote 8*
  8: 0x02BA [0x99] Wait for EventEntity animation to complete
  9: 0x02BF [0x1C] WAIT(40* ticks)
 10: 0x02C2 [0x1D] PRINT_EVENT_MESSAGE(message_id=10857*)
    → "There you are! I've been looking-wooking all over for you."
 11: 0x02C5 [0x1C] WAIT(50* ticks)
 12: 0x02C8 [0x23] WAIT_FOR_DIALOG_INTERACTION
 13: 0x02C9 [0x5F] MULTI_HANDLER_COMPLEX(mode=0x06 - Load ext scheduler with flag (OpCode 0x5B mode 1, flag 1), ref=40*, entity1=EventEntity, entity2=EventEntity, string="tlk0", extra=150*)
 14: 0x02DB [0x1D] PRINT_EVENT_MESSAGE(message_id=10858*)
    → "I received a couple lettarus addressed to you."
 15: 0x02DE [0x23] WAIT_FOR_DIALOG_INTERACTION
 16: 0x02DF [0x1D] PRINT_EVENT_MESSAGE(message_id=10859*)
    → "They all come in...uniquely colored envelope-wenvelopes and are signed "D." What do you want to do with them?"
 17: 0x02E2 [0x5F] MULTI_HANDLER_COMPLEX(mode=0x07 - Wait scheduler task (OpCode 0x53))
 18: 0x02F0 [0x23] WAIT_FOR_DIALOG_INTERACTION
 19: 0x02F1 [0x5F] MULTI_HANDLER_COMPLEX(mode=0x06 - Load ext scheduler with flag (OpCode 0x5B mode 1, flag 1), ref=40*, entity1=EventEntity, entity2=EventEntity, string="tlk1", extra=100*)
 20: 0x0303 [0x24] CREATE_DIALOG(message_id=10860*, default_option=0*, option_flags=ExtData[1]->WorkLocal[0])
    → "Open which one? [None for the nonce./The white one./The green one./The silver one./The purple one./The black one./The blue one./The gold one./The yellow one./The brown one./The red one./The rainbow one.]"
 21: 0x030A [0x25] WAIT_DIALOG_SELECT()
 22: 0x030B [0x02] IF !(Work_Zone[0] == 0*) GOTO 0x032A
 23: 0x0313 [0x1D] PRINT_EVENT_MESSAGE(message_id=10861*)
    → "I wouldn't open any if I were you, either. You never know what crazy-wazy stuff people deliver these days. I'd feel bad about throwing another person's property away, though, so I'll hold onto them for safekeeping."
 24: 0x0316 [0x5F] MULTI_HANDLER_COMPLEX(mode=0x07 - Wait scheduler task (OpCode 0x53))
 25: 0x0324 [0x23] WAIT_FOR_DIALOG_INTERACTION
 26: 0x0325 [0x21] END_EVENT
 27: 0x0326 [0x00] END_REQSTACK()

SUBROUTINE_0474:
 28: 0x0474 [0x5F] MULTI_HANDLER_COMPLEX(mode=0x06 - Load ext scheduler with flag (OpCode 0x5B mode 1, flag 1), ref=40*, entity1=EventEntity, entity2=EventEntity, string="pas0", extra=199*)
 29: 0x0486 [0x1C] WAIT(70* ticks)
 30: 0x0489 [0x1D] PRINT_EVENT_MESSAGE(message_id=10862*)
    → "Here you go. I hope it doesn't contain anything too suspectaru."
 31: 0x048C [0x5F] MULTI_HANDLER_COMPLEX(mode=0x07 - Wait scheduler task (OpCode 0x53))
 32: 0x049A [0x23] WAIT_FOR_DIALOG_INTERACTION
 33: 0x049B [0x48] [System] [10863*]:
    → "The envelope contains a briefing for a new objective."
 34: 0x049E [0x23] WAIT_FOR_DIALOG_INTERACTION
 35: 0x049F [0x21] END_EVENT
 36: 0x04A0 [0x00] END_REQSTACK()
```

#### Data or dead code:

```
# Dead code (unreachable instructions):
     0x0327 [0x01] GOTO 0x0474
```

### Event 20035

#### Metadata

| Field        | Value      |
|--------------|------------|
| Entrypoint   | 0x04A1     |
| Data Size    | 1836 bytes |
| Instructions | 211        |

```
      00 01 02 03 04 05 06 07  08 09 0A 0B 0C 0D 0E 0F
      -- -- -- -- -- -- -- --  -- -- -- -- -- -- -- --
04A0:    42 03 00 00 02 10 03  03 00 03 10 03 04 00 04   B..............
04B0: 10 06 01 10 1A 64 00 46  01 38 1E 80 92 01 F6 50  .....d.F.8.....P
04C0: 0F 01 92 01 26 50 0F 01  92 01 36 50 0F 01 94 01  ....&P....6P....
04D0: F0 FF FF 7F 94 01 F6 50  0F 01 94 01 26 50 0F 01  .......P....&P..
04E0: 94 01 36 50 0F 01 BA F0  FF FF 7F 1F 80 20 80 01  ..6P......... ..
04F0: 80 21 80 BA 26 50 0F 01  22 80 23 80 01 80 21 80  .!..&P..".#...!.
0500: BA 36 50 0F 01 24 80 25  80 01 80 26 80 80 F0 FF  .6P..$.%...&....
0510: FF 7F 80 F6 50 0F 01 80  26 50 0F 01 80 36 50 0F  ....P...&P...6P.
0520: 01 4A F0 FF FF 7F F6 50  0F 01 4A F6 50 0F 01 F0  .J.....P..J.P...
0530: FF FF 7F 4A 36 50 0F 01  26 50 0F 01 4A 26 50 0F  ...J6P..&P..J&P.
0540: 01 36 50 0F 01 1C 06 80  66 0B 80 36 50 0F 01 36  .6P.....f..6P..6
0550: 50 0F 01 74 68 6B 31 7B  36 50 0F 01 66 01 80 26  P..thk1{6P..f..&
0560: 50 0F 01 26 50 0F 01 74  6C 6B 30 02 00 00 03 80  P..&P..tlk0.....
0570: 00 D2 05 45 27 80 F8 FF  FF 7F F8 FF FF 7F 73 31  ...E'.........s1
0580: 33 34 01 80 1C 06 80 1A  43 00 66 09 80 F8 FF FF  34......C.f.....
0590: 7F F8 FF FF 7F 74 6C 6B  30 1D 28 80 23 66 09 80  .....tlk0.(.#f..
05A0: F8 FF FF 7F F8 FF FF 7F  74 6C 6B 31 52 27 80 F8  ........tlk1R'..
05B0: FF FF 7F F8 FF FF 7F 73  31 33 34 45 27 80 F8 FF  .......s134E'...
05C0: FF 7F F8 FF FF 7F 73 31  33 35 01 80 01 76 08 01  ......s135...v..
05D0: 0A 06 66 09 80 F8 FF FF  7F F8 FF FF 7F 74 68 6B  ..f..........thk
05E0: 31 7B F8 FF FF 7F 53 F8  FF FF 7F F8 FF FF 7F 74  1{....S........t
05F0: 68 6B 31 45 27 80 F8 FF  FF 7F F8 FF FF 7F 73 31  hk1E'.........s1
0600: 33 34 01 80 1C 06 80 1A  43 00 1D 29 80 23 1D 2A  34......C..).#.*
0610: 80 23 52 27 80 F8 FF FF  7F F8 FF FF 7F 73 31 33  .#R'.........s13
0620: 34 45 27 80 F8 FF FF 7F  F8 FF FF 7F 73 31 33 35  4E'.........s135
0630: 01 80 66 09 80 F8 FF FF  7F F8 FF FF 7F 74 68 6B  ..f..........thk
0640: 32 79 00 F8 FF FF 7F F0  FF FF 7F 53 F8 FF FF 7F  2y.........S....
0650: F8 FF FF 7F 74 68 6B 32  1D 2B 80 23 24 2C 80 01  ....thk2.+.#$,..
0660: 80 01 80 25 02 00 10 01  80 00 6F 06 01 F8 06 02  ...%......o.....
0670: 00 10 03 80 00 B5 06 52  27 80 F8 FF FF 7F F8 FF  .......R'.......
0680: FF 7F 73 31 33 35 45 27  80 F8 FF FF 7F F8 FF FF  ..s135E'........
0690: 7F 73 31 33 36 01 80 66  09 80 F8 FF FF 7F F8 FF  .s136..f........
06A0: FF 7F 74 68 6B 31 7B F8  FF FF 7F 1D 2D 80 23 01  ..thk1{.....-.#.
06B0: 8D 0B 01 F8 06 02 00 10  05 80 00 F8 06 52 27 80  .............R'.
06C0: F8 FF FF 7F F8 FF FF 7F  73 31 33 35 45 27 80 F8  ........s135E'..
06D0: FF FF 7F F8 FF FF 7F 73  31 33 36 01 80 6E F8 FF  .......s136..n..
06E0: FF 7F 2E 80 99 F8 FF FF  7F 7B F8 FF FF 7F 1D 2F  .........{...../
06F0: 80 23 01 8D 0B 01 F8 06  52 27 80 F8 FF FF 7F F8  .#......R'......
0700: FF FF 7F 73 31 33 35 45  27 80 F8 FF FF 7F F8 FF  ...s135E'.......
0710: FF 7F 73 31 33 37 01 80  66 09 80 F8 FF FF 7F F8  ..s137..f.......
0720: FF FF 7F 70 61 73 30 1D  30 80 23 27 05 F0 FF FF  ...pas0.0.#'....
0730: 7F 54 1C 31 80 27 05 F0  FF FF 7F 55 1C 09 80 52  .T.1.'.....U...R
0740: 27 80 F8 FF FF 7F F8 FF  FF 7F 73 31 33 37 45 27  '.........s137E'
0750: 80 F8 FF FF 7F F8 FF FF  7F 73 31 33 38 01 80 1D  .........s138...
0760: 32 80 23 66 09 80 F8 FF  FF 7F F8 FF FF 7F 74 68  2.#f..........th
0770: 6B 31 7B F8 FF FF 7F 1C  33 80 1D 34 80 23 52 27  k1{.....3..4.#R'
0780: 80 F8 FF FF 7F F8 FF FF  7F 73 31 33 38 45 27 80  .........s138E'.
0790: F8 FF FF 7F F8 FF FF 7F  73 31 33 39 01 80 1D 35  ........s139...5
07A0: 80 23 1D 36 80 23 1D 37  80 23 52 27 80 F8 FF FF  .#.6.#.7.#R'....
07B0: 7F F8 FF FF 7F 73 31 33  39 45 27 80 F8 FF FF 7F  .....s139E'.....
07C0: F8 FF FF 7F 73 31 34 30  01 80 1D 38 80 23 1D 39  ....s140...8.#.9
07D0: 80 23 66 09 80 F8 FF FF  7F F8 FF FF 7F 74 68 6B  .#f..........thk
07E0: 32 79 00 F8 FF FF 7F F0  FF FF 7F 53 F8 FF FF 7F  2y.........S....
07F0: F8 FF FF 7F 74 68 6B 32  1D 3A 80 23 52 27 80 F8  ....thk2.:.#R'..
0800: FF FF 7F F8 FF FF 7F 73  31 34 30 02 87 7F 14 80  .......s140.....
0810: 80 27 08 45 27 80 F8 FF  FF 7F F8 FF FF 7F 73 31  .'.E'.........s1
0820: 34 32 01 80 01 54 08 02  87 7F 15 80 80 43 08 45  42...T.......C.E
0830: 27 80 F8 FF FF 7F F8 FF  FF 7F 73 31 34 32 01 80  '.........s142..
0840: 01 54 08 45 27 80 F8 FF  FF 7F F8 FF FF 7F 73 31  .T.E'.........s1
0850: 34 31 01 80 66 09 80 F8  FF FF 7F F8 FF FF 7F 74  41..f..........t
0860: 6C 6B 30 1D 3B 80 23 66  09 80 F8 FF FF 7F F8 FF  lk0.;.#f........
0870: FF 7F 74 6C 6B 31 24 3C  80 01 80 01 80 25 02 00  ..tlk1$<.....%..
0880: 10 01 80 00 89 08 01 F0  08 02 00 10 03 80 00 F0  ................
0890: 08 52 27 80 F8 FF FF 7F  F8 FF FF 7F 73 31 33 35  .R'.........s135
08A0: 52 27 80 F8 FF FF 7F F8  FF FF 7F 73 31 34 31 52  R'.........s141R
08B0: 27 80 F8 FF FF 7F F8 FF  FF 7F 73 31 34 32 45 27  '.........s142E'
08C0: 80 F8 FF FF 7F F8 FF FF  7F 73 31 33 36 01 80 66  .........s136..f
08D0: 09 80 F8 FF FF 7F F8 FF  FF 7F 74 68 6B 31 7B F8  ..........thk1{.
08E0: FF FF 7F 1D 3D 80 23 05  01 10 01 8D 0B 01 F0 08  ....=.#.........
08F0: 52 27 80 F8 FF FF 7F F8  FF FF 7F 73 31 33 35 52  R'.........s135R
0900: 27 80 F8 FF FF 7F F8 FF  FF 7F 73 31 34 31 52 27  '.........s141R'
0910: 80 F8 FF FF 7F F8 FF FF  7F 73 31 34 32 45 27 80  .........s142E'.
0920: F8 FF FF 7F F8 FF FF 7F  73 31 34 33 01 80 66 09  ........s143..f.
0930: 80 F8 FF FF 7F F8 FF FF  7F 70 61 73 30 1D 3E 80  .........pas0.>.
0940: 23 52 27 80 F8 FF FF 7F  F8 FF FF 7F 73 31 34 33  #R'.........s143
0950: 45 27 80 F8 FF FF 7F F8  FF FF 7F 73 31 34 34 01  E'.........s144.
0960: 80 66 09 80 F8 FF FF 7F  F8 FF FF 7F 74 68 6B 31  .f..........thk1
0970: 7B F8 FF FF 7F 1D 3F 80  23 52 27 80 F8 FF FF 7F  {.....?.#R'.....
0980: F8 FF FF 7F 73 31 34 34  02 87 7F 14 80 80 A4 09  ....s144........
0990: 45 27 80 F8 FF FF 7F F8  FF FF 7F 73 31 34 36 01  E'.........s146.
09A0: 80 01 D1 09 02 87 7F 15  80 80 C0 09 45 27 80 F8  ............E'..
09B0: FF FF 7F F8 FF FF 7F 73  31 34 36 01 80 01 D1 09  .......s146.....
09C0: 45 27 80 F8 FF FF 7F F8  FF FF 7F 73 31 34 35 01  E'.........s145.
09D0: 80 66 01 80 26 50 0F 01  26 50 0F 01 74 65 6E 30  .f..&P..&P..ten0
09E0: 24 40 80 01 80 01 80 25  02 00 10 01 80 00 BD 0A  $@.....%........
09F0: 27 05 F0 FF FF 7F 54 1C  31 80 6B 69 64 6C 30 F8  '.....T.1.kidl0.
0A00: FF FF 7F 1C 06 80 79 00  F8 FF FF 7F F0 FF FF 7F  ......y.........
0A10: 27 05 F0 FF FF 7F 55 1C  09 80 52 27 80 F8 FF FF  '.....U...R'....
0A20: 7F F8 FF FF 7F 73 31 34  35 52 27 80 F8 FF FF 7F  .....s145R'.....
0A30: F8 FF FF 7F 73 31 34 36  45 27 80 F8 FF FF 7F F8  ....s146E'......
0A40: FF FF 7F 73 31 34 38 01  80 02 03 00 03 80 00 83  ...s148.........
0A50: 0A 66 41 80 F8 FF FF 7F  F8 FF FF 7F 74 6C 62 30  .fA.........tlb0
0A60: 1D 42 80 23 53 F8 FF FF  7F F8 FF FF 7F 74 6C 62  .B.#S........tlb
0A70: 30 66 41 80 F8 FF FF 7F  F8 FF FF 7F 74 6C 62 31  0fA.........tlb1
0A80: 01 BA 0A 02 04 00 03 80  00 BA 0A 66 41 80 F8 FF  ...........fA...
0A90: FF 7F F8 FF FF 7F 74 6C  62 30 1D 43 80 23 53 F8  ......tlb0.C.#S.
0AA0: FF FF 7F F8 FF FF 7F 74  6C 62 30 66 41 80 F8 FF  .......tlb0fA...
0AB0: FF 7F F8 FF FF 7F 74 6C  62 31 01 84 0B 02 00 10  ......tlb1......
0AC0: 03 80 00 84 0B 27 05 F0  FF FF 7F 54 1C 31 80 27  .....'.....T.1.'
0AD0: 05 F0 FF FF 7F 55 1C 09  80 52 27 80 F8 FF FF 7F  .....U...R'.....
0AE0: F8 FF FF 7F 73 31 34 35  52 27 80 F8 FF FF 7F F8  ....s145R'......
0AF0: FF FF 7F 73 31 34 36 45  27 80 F8 FF FF 7F F8 FF  ...s146E'.......
0B00: FF 7F 73 31 34 37 01 80  66 09 80 F8 FF FF 7F F8  ..s147..f.......
0B10: FF FF 7F 74 68 6B 32 79  00 F8 FF FF 7F F0 FF FF  ...thk2y........
0B20: 7F 53 F8 FF FF 7F F8 FF  FF 7F 74 68 6B 32 1D 44  .S........thk2.D
0B30: 80 23 52 27 80 F8 FF FF  7F F8 FF FF 7F 73 31 34  .#R'.........s14
0B40: 37 45 27 80 F8 FF FF 7F  F8 FF FF 7F 73 31 34 38  7E'.........s148
0B50: 01 80 66 41 80 F8 FF FF  7F F8 FF FF 7F 74 6C 62  ..fA.........tlb
0B60: 30 1D 45 80 23 53 F8 FF  FF 7F F8 FF FF 7F 74 6C  0.E.#S........tl
0B70: 62 30 66 41 80 F8 FF FF  7F F8 FF FF 7F 74 6C 62  b0fA.........tlb
0B80: 31 01 84 0B 1D 46 80 23  03 01 10 05 80 1A 64 00  1....F.#......d.
0B90: 52 27 80 F8 FF FF 7F F8  FF FF 7F 73 31 33 36 52  R'.........s136R
0BA0: 27 80 F8 FF FF 7F F8 FF  FF 7F 73 31 34 38 1C 33  '.........s148.3
0BB0: 80 AB 11 01 80 1C 03 80  46 00 45 00 80 F0 FF FF  ........F.E.....
0BC0: 7F F0 FF FF 7F 66 64 69  32 01 80 21 00           .....fdi2..!.   
```

#### Opcodes

```
  0: 0x04A1 [0x42] SET_CLI_EVENT_CANCEL_DATA()
  1: 0x04A2 [0x03] ExtData[1]->WorkLocal[0] = Work_Zone[2]
  2: 0x04A7 [0x03] ExtData[1]->WorkLocal[3] = Work_Zone[3]
  3: 0x04AC [0x03] ExtData[1]->WorkLocal[4] = Work_Zone[4]
  4: 0x04B1 [0x06] Work_Zone[1] = 0
  5: 0x04B4 [0x1A] CALL_SUBROUTINE(address=0x0064)
  6: 0x04B7 [0x46] CAMERA_CONTROL: Disable user control
  7: 0x04B9 [0x38] SET_CLIENT_EVENT_MODE(mode=147*)
  8: 0x04BC [0x92] Nantoto (ID: 17780982/0x010F50F6)->Render.Flags3 ^= 0x01
  9: 0x04C2 [0x92] Joseph (ID: 17780774/0x010F5026)->Render.Flags3 ^= 0x01
 10: 0x04C8 [0x92] Kuah Dakonsa (ID: 17780790/0x010F5036)->Render.Flags3 ^= 0x01
 11: 0x04CE [0x94] LocalPlayer->Render.Flags3 ^= 0x01
 12: 0x04D4 [0x94] Nantoto (ID: 17780982/0x010F50F6)->Render.Flags3 ^= 0x01
 13: 0x04DA [0x94] Joseph (ID: 17780774/0x010F5026)->Render.Flags3 ^= 0x01
 14: 0x04E0 [0x94] Kuah Dakonsa (ID: 17780790/0x010F5036)->Render.Flags3 ^= 0x01
 15: 0x04E6 [0xBA] SET_ENTITY_POSITION(entity_id=LocalPlayer, pos_x=-44.371*, pos_z=-49.352*, pos_y=0.000*, direction=174.9°*)
 16: 0x04F3 [0xBA] SET_ENTITY_POSITION(entity_id=Joseph (ID: 17780774/0x010F5026), pos_x=-35.040*, pos_z=-44.564*, pos_y=0.000*, direction=174.9°*)
 17: 0x0500 [0xBA] SET_ENTITY_POSITION(entity_id=Kuah Dakonsa (ID: 17780790/0x010F5036), pos_x=-36.315*, pos_z=-46.305*, pos_y=0.000*, direction=245.3°*)
 18: 0x050D [0x80] LOAD_WAIT(entity=LocalPlayer)
 19: 0x0512 [0x80] LOAD_WAIT(entity=Nantoto (ID: 17780982/0x010F50F6))
 20: 0x0517 [0x80] LOAD_WAIT(entity=Joseph (ID: 17780774/0x010F5026))
 21: 0x051C [0x80] LOAD_WAIT(entity=Kuah Dakonsa (ID: 17780790/0x010F5036))
 22: 0x0521 [0x4A] LocalPlayer looks at Nantoto (ID: 17780982/0x010F50F6)
 23: 0x052A [0x4A] Nantoto (ID: 17780982/0x010F50F6) looks at LocalPlayer
 24: 0x0533 [0x4A] Kuah Dakonsa (ID: 17780790/0x010F5036) looks at Joseph (ID: 17780774/0x010F5026)
 25: 0x053C [0x4A] Joseph (ID: 17780774/0x010F5026) looks at Kuah Dakonsa (ID: 17780790/0x010F5036)
 26: 0x0545 [0x1C] WAIT(30* ticks)
 27: 0x0548 [0x66] LOAD_EXT_SCHEDULER_MAIN: Load scheduler "thk1" with entities [Kuah Dakonsa (ID: 17780790/0x010F5036), Kuah Dakonsa (ID: 17780790/0x010F5036)], work=50*
 28: 0x0557 [0x7B] Kuah Dakonsa (ID: 17780790/0x010F5036) stops talking
 29: 0x055C [0x66] LOAD_EXT_SCHEDULER_MAIN: Load scheduler "tlk0" with entities [Joseph (ID: 17780774/0x010F5026), Joseph (ID: 17780774/0x010F5026)], work=0*
 30: 0x056B [0x02] IF !(ExtData[1]->WorkLocal[0] == 1*) GOTO 0x05D2
 31: 0x0573 [0x45] LOAD_SCHEDULED_TASK: Load scheduler "s134" with entities [EventEntity, EventEntity], work=[627*, 0*]
 32: 0x0584 [0x1C] WAIT(30* ticks)
 33: 0x0587 [0x1A] CALL_SUBROUTINE(address=0x0043)
 34: 0x058A [0x66] LOAD_EXT_SCHEDULER_MAIN: Load scheduler "tlk0" with entities [EventEntity, EventEntity], work=40*
 35: 0x0599 [0x1D] PRINT_EVENT_MESSAGE(message_id=10674*)
    → "I knew you'd be back. So, are you ready to prove-wove yourself in Records of Eminence?"
 36: 0x059C [0x23] WAIT_FOR_DIALOG_INTERACTION
 37: 0x059D [0x66] LOAD_EXT_SCHEDULER_MAIN: Load scheduler "tlk1" with entities [EventEntity, EventEntity], work=40*
 38: 0x05AC [0x52] END_LOAD_SCHEDULER: End scheduler "s134" with entities [EventEntity, EventEntity], work=627*
 39: 0x05BB [0x45] LOAD_SCHEDULED_TASK: Load scheduler "s135" with entities [EventEntity, EventEntity], work=[627*, 0*]
 40: 0x05CC [0x01] GOTO 0x0876

SUBROUTINE_060A:
 41: 0x060A [0x1D] PRINT_EVENT_MESSAGE(message_id=10656*)
    → "Wait a goddess-damned minutaru, you're..."
 42: 0x060D [0x23] WAIT_FOR_DIALOG_INTERACTION
 43: 0x060E [0x1D] PRINT_EVENT_MESSAGE(message_id=10657*)
    → "You're that adventurer who's not entirely-wirely unknown for [his/her] feats in Records of Eminence, right?"
 44: 0x0611 [0x23] WAIT_FOR_DIALOG_INTERACTION
 45: 0x0612 [0x52] END_LOAD_SCHEDULER: End scheduler "s134" with entities [EventEntity, EventEntity], work=627*
 46: 0x0621 [0x45] LOAD_SCHEDULED_TASK: Load scheduler "s135" with entities [EventEntity, EventEntity], work=[627*, 0*]
 47: 0x0632 [0x66] LOAD_EXT_SCHEDULER_MAIN: Load scheduler "thk2" with entities [EventEntity, EventEntity], work=40*
 48: 0x0641 [0x79] EventEntity looks at LocalPlayer (Basic look)
 49: 0x064B [0x53] WAIT_SCHEDULER_TASK: Wait for scheduler "thk2" with entities [EventEntity, EventEntity]
 50: 0x0658 [0x1D] PRINT_EVENT_MESSAGE(message_id=10658*)
    → "If I recall correctaruly, your name is...<Player>?"
 51: 0x065B [0x23] WAIT_FOR_DIALOG_INTERACTION
 52: 0x065C [0x24] CREATE_DIALOG(message_id=10659*, default_option=0*, option_flags=0*)
    → "Is that your name? [Yes, ma'am./Nope, wrong person./My name's Kam'lanaut, jerk.]"
 53: 0x0663 [0x25] WAIT_DIALOG_SELECT()
 54: 0x0664 [0x02] IF !(Work_Zone[0] == 0*) GOTO 0x066F
 55: 0x066C [0x01] GOTO 0x06F8
 56: 0x066F [0x02] IF !(Work_Zone[0] == 1*) GOTO 0x06B5
 57: 0x0677 [0x52] END_LOAD_SCHEDULER: End scheduler "s135" with entities [EventEntity, EventEntity], work=627*
 58: 0x0686 [0x45] LOAD_SCHEDULED_TASK: Load scheduler "s136" with entities [EventEntity, EventEntity], work=[627*, 0*]
 59: 0x0697 [0x66] LOAD_EXT_SCHEDULER_MAIN: Load scheduler "thk1" with entities [EventEntity, EventEntity], work=40*
 60: 0x06A6 [0x7B] EventEntity stops talking
 61: 0x06AB [0x1D] PRINT_EVENT_MESSAGE(message_id=10660*)
    → "Oh, I'm sorry. Didn't meant to holdy-wold you up. Carry on."
 62: 0x06AE [0x23] WAIT_FOR_DIALOG_INTERACTION
 63: 0x06AF [0x01] GOTO 0x0B8D

SUBROUTINE_06F8:
 64: 0x06F8 [0x52] END_LOAD_SCHEDULER: End scheduler "s135" with entities [EventEntity, EventEntity], work=627*
 65: 0x0707 [0x45] LOAD_SCHEDULED_TASK: Load scheduler "s137" with entities [EventEntity, EventEntity], work=[627*, 0*]
 66: 0x0718 [0x66] LOAD_EXT_SCHEDULER_MAIN: Load scheduler "pas0" with entities [EventEntity, EventEntity], work=40*
 67: 0x0727 [0x1D] PRINT_EVENT_MESSAGE(message_id=10662*)
    → "I knew it, now here's the dossier of objective data. Make sure you don't look this giftaru chocobo in the mouth."
 68: 0x072A [0x23] WAIT_FOR_DIALOG_INTERACTION
 69: 0x072B [0x27] REQ_SET(priority=0x05, entity_id=LocalPlayer, tag_num=0x54)
 70: 0x0732 [0x1C] WAIT(80* ticks)
 71: 0x0735 [0x27] REQ_SET(priority=0x05, entity_id=LocalPlayer, tag_num=0x55)
 72: 0x073C [0x1C] WAIT(40* ticks)
 73: 0x073F [0x52] END_LOAD_SCHEDULER: End scheduler "s137" with entities [EventEntity, EventEntity], work=627*
 74: 0x074E [0x45] LOAD_SCHEDULED_TASK: Load scheduler "s138" with entities [EventEntity, EventEntity], work=[627*, 0*]
 75: 0x075F [0x1D] PRINT_EVENT_MESSAGE(message_id=10663*)
    → "What? You can't do this alone?"
 76: 0x0762 [0x23] WAIT_FOR_DIALOG_INTERACTION
 77: 0x0763 [0x66] LOAD_EXT_SCHEDULER_MAIN: Load scheduler "thk1" with entities [EventEntity, EventEntity], work=40*
 78: 0x0772 [0x7B] EventEntity stops talking
 79: 0x0777 [0x1C] WAIT(15* ticks)
 80: 0x077A [0x1D] PRINT_EVENT_MESSAGE(message_id=10664*)
    → "Ugh, are you so mentaruly deficient that you haven't even heard of the Adventurers' Mutual Aid Network?"
 81: 0x077D [0x23] WAIT_FOR_DIALOG_INTERACTION
 82: 0x077E [0x52] END_LOAD_SCHEDULER: End scheduler "s138" with entities [EventEntity, EventEntity], work=627*
 83: 0x078D [0x45] LOAD_SCHEDULED_TASK: Load scheduler "s139" with entities [EventEntity, EventEntity], work=[627*, 0*]
 84: 0x079E [0x1D] PRINT_EVENT_MESSAGE(message_id=10665*)
    → "Lessee... A simple explanation for a simpleton... For example, you know those tomes that floataru outside the city, right?"
 85: 0x07A1 [0x23] WAIT_FOR_DIALOG_INTERACTION
 86: 0x07A2 [0x1D] PRINT_EVENT_MESSAGE(message_id=10666*)
    → "A.M.A.N. is the group responsible-wonsible for those and other such adventurer-supporting ideas."
 87: 0x07A5 [0x23] WAIT_FOR_DIALOG_INTERACTION
 88: 0x07A6 [0x1D] PRINT_EVENT_MESSAGE(message_id=10667*)
    → "Records of Eminence is just another manifestation of A.M.A.N.'s helpful-welpful nature."
 89: 0x07A9 [0x23] WAIT_FOR_DIALOG_INTERACTION
 90: 0x07AA [0x52] END_LOAD_SCHEDULER: End scheduler "s139" with entities [EventEntity, EventEntity], work=627*
 91: 0x07B9 [0x45] LOAD_SCHEDULED_TASK: Load scheduler "s140" with entities [EventEntity, EventEntity], work=[627*, 0*]
 92: 0x07CA [0x1D] PRINT_EVENT_MESSAGE(message_id=10668*)
    → "I'd like to know exactaruly who's dispensing the spoils for completed objectives and why, however."
 93: 0x07CD [0x23] WAIT_FOR_DIALOG_INTERACTION
 94: 0x07CE [0x1D] PRINT_EVENT_MESSAGE(message_id=10669*)
    → "They say that people's greatest fear is the fear of the unknown, which makes sense to me. Why else would my teeth start chattaruing every time I get objectives addressed to me with no sender?"
 95: 0x07D1 [0x23] WAIT_FOR_DIALOG_INTERACTION
 96: 0x07D2 [0x66] LOAD_EXT_SCHEDULER_MAIN: Load scheduler "thk2" with entities [EventEntity, EventEntity], work=40*
 97: 0x07E1 [0x79] EventEntity looks at LocalPlayer (Basic look)
 98: 0x07EB [0x53] WAIT_SCHEDULER_TASK: Wait for scheduler "thk2" with entities [EventEntity, EventEntity]
 99: 0x07F8 [0x1D] PRINT_EVENT_MESSAGE(message_id=10670*)
    → "Anyway, that's why I'm so gracious-waciously giving this one to you, <Player>."
100: 0x07FB [0x23] WAIT_FOR_DIALOG_INTERACTION
101: 0x07FC [0x52] END_LOAD_SCHEDULER: End scheduler "s140" with entities [EventEntity, EventEntity], work=627*
102: 0x080B [0x02] IF !(LocalPlayer->Race == 5*) GOTO 0x0827
103: 0x0813 [0x45] LOAD_SCHEDULED_TASK: Load scheduler "s142" with entities [EventEntity, EventEntity], work=[627*, 0*]
104: 0x0824 [0x01] GOTO 0x0854
105: 0x0827 [0x02] IF !(LocalPlayer->Race == 6*) GOTO 0x0843
106: 0x082F [0x45] LOAD_SCHEDULED_TASK: Load scheduler "s142" with entities [EventEntity, EventEntity], work=[627*, 0*]
107: 0x0840 [0x01] GOTO 0x0854
108: 0x0843 [0x45] LOAD_SCHEDULED_TASK: Load scheduler "s141" with entities [EventEntity, EventEntity], work=[627*, 0*]

SUBROUTINE_0854:
109: 0x0854 [0x66] LOAD_EXT_SCHEDULER_MAIN: Load scheduler "tlk0" with entities [EventEntity, EventEntity], work=40*
110: 0x0863 [0x1D] PRINT_EVENT_MESSAGE(message_id=10671*)
    → "...You are going to prove to me that you're a truly valiantaru and brave adventurer, aren't you?"
111: 0x0866 [0x23] WAIT_FOR_DIALOG_INTERACTION
112: 0x0867 [0x66] LOAD_EXT_SCHEDULER_MAIN: Load scheduler "tlk1" with entities [EventEntity, EventEntity], work=40*

SUBROUTINE_0876:
113: 0x0876 [0x24] CREATE_DIALOG(message_id=10672*, default_option=0*, option_flags=0*)
    → "Will you prove your worth? [Yes, for no one questions my valor!/Doing your dirty work won't prove a thing.]"
114: 0x087D [0x25] WAIT_DIALOG_SELECT()
115: 0x087E [0x02] IF !(Work_Zone[0] == 0*) GOTO 0x0889
116: 0x0886 [0x01] GOTO 0x08F0
117: 0x0889 [0x02] IF !(Work_Zone[0] == 1*) GOTO 0x08F0
118: 0x0891 [0x52] END_LOAD_SCHEDULER: End scheduler "s135" with entities [EventEntity, EventEntity], work=627*
119: 0x08A0 [0x52] END_LOAD_SCHEDULER: End scheduler "s141" with entities [EventEntity, EventEntity], work=627*
120: 0x08AF [0x52] END_LOAD_SCHEDULER: End scheduler "s142" with entities [EventEntity, EventEntity], work=627*
121: 0x08BE [0x45] LOAD_SCHEDULED_TASK: Load scheduler "s136" with entities [EventEntity, EventEntity], work=[627*, 0*]
122: 0x08CF [0x66] LOAD_EXT_SCHEDULER_MAIN: Load scheduler "thk1" with entities [EventEntity, EventEntity], work=40*
123: 0x08DE [0x7B] EventEntity stops talking
124: 0x08E3 [0x1D] PRINT_EVENT_MESSAGE(message_id=10673*)
    → "Fine, then. I'm sure there are hordes of other adventurers chomping-womping at the bit to prove their worth."
125: 0x08E6 [0x23] WAIT_FOR_DIALOG_INTERACTION
126: 0x08E7 [0x05] Work_Zone[1] = 1
127: 0x08EA [0x01] GOTO 0x0B8D

SUBROUTINE_08F0:
128: 0x08F0 [0x52] END_LOAD_SCHEDULER: End scheduler "s135" with entities [EventEntity, EventEntity], work=627*
129: 0x08FF [0x52] END_LOAD_SCHEDULER: End scheduler "s141" with entities [EventEntity, EventEntity], work=627*
130: 0x090E [0x52] END_LOAD_SCHEDULER: End scheduler "s142" with entities [EventEntity, EventEntity], work=627*
131: 0x091D [0x45] LOAD_SCHEDULED_TASK: Load scheduler "s143" with entities [EventEntity, EventEntity], work=[627*, 0*]
132: 0x092E [0x66] LOAD_EXT_SCHEDULER_MAIN: Load scheduler "pas0" with entities [EventEntity, EventEntity], work=40*
133: 0x093D [0x1D] PRINT_EVENT_MESSAGE(message_id=10675*)
    → "You adventurers can never abide affrontarus to your character, can you?"
134: 0x0940 [0x23] WAIT_FOR_DIALOG_INTERACTION
135: 0x0941 [0x52] END_LOAD_SCHEDULER: End scheduler "s143" with entities [EventEntity, EventEntity], work=627*
136: 0x0950 [0x45] LOAD_SCHEDULED_TASK: Load scheduler "s144" with entities [EventEntity, EventEntity], work=[627*, 0*]
137: 0x0961 [0x66] LOAD_EXT_SCHEDULER_MAIN: Load scheduler "thk1" with entities [EventEntity, EventEntity], work=40*
138: 0x0970 [0x7B] EventEntity stops talking
139: 0x0975 [0x1D] PRINT_EVENT_MESSAGE(message_id=10676*)
    → "Either way, your objective is to investigate various telepoints. Yeesh, this task is so far beneath a white mage of my caliber-waliber, it isn't even funny."
140: 0x0978 [0x23] WAIT_FOR_DIALOG_INTERACTION
141: 0x0979 [0x52] END_LOAD_SCHEDULER: End scheduler "s144" with entities [EventEntity, EventEntity], work=627*
142: 0x0988 [0x02] IF !(LocalPlayer->Race == 5*) GOTO 0x09A4
143: 0x0990 [0x45] LOAD_SCHEDULED_TASK: Load scheduler "s146" with entities [EventEntity, EventEntity], work=[627*, 0*]
144: 0x09A1 [0x01] GOTO 0x09D1
145: 0x09A4 [0x02] IF !(LocalPlayer->Race == 6*) GOTO 0x09C0
146: 0x09AC [0x45] LOAD_SCHEDULED_TASK: Load scheduler "s146" with entities [EventEntity, EventEntity], work=[627*, 0*]
147: 0x09BD [0x01] GOTO 0x09D1
148: 0x09C0 [0x45] LOAD_SCHEDULED_TASK: Load scheduler "s145" with entities [EventEntity, EventEntity], work=[627*, 0*]

SUBROUTINE_09D1:
149: 0x09D1 [0x66] LOAD_EXT_SCHEDULER_MAIN: Load scheduler "ten0" with entities [Joseph (ID: 17780774/0x010F5026), Joseph (ID: 17780774/0x010F5026)], work=0*
150: 0x09E0 [0x24] CREATE_DIALOG(message_id=10677*, default_option=0*, option_flags=0*)
    → "Anything to say? [It's not beneath me./Teleport me to them, then.]"
151: 0x09E7 [0x25] WAIT_DIALOG_SELECT()
152: 0x09E8 [0x02] IF !(Work_Zone[0] == 0*) GOTO 0x0ABD
153: 0x09F0 [0x27] REQ_SET(priority=0x05, entity_id=LocalPlayer, tag_num=0x54)
154: 0x09F7 [0x1C] WAIT(80* ticks)
155: 0x09FA [0x6B] STOP_AND_IDLE: EventEntity stops current action and resets to idle (animation="idl0")
156: 0x0A03 [0x1C] WAIT(30* ticks)
157: 0x0A06 [0x79] EventEntity looks at LocalPlayer (Basic look)
158: 0x0A10 [0x27] REQ_SET(priority=0x05, entity_id=LocalPlayer, tag_num=0x55)
159: 0x0A17 [0x1C] WAIT(40* ticks)
160: 0x0A1A [0x52] END_LOAD_SCHEDULER: End scheduler "s145" with entities [EventEntity, EventEntity], work=627*
161: 0x0A29 [0x52] END_LOAD_SCHEDULER: End scheduler "s146" with entities [EventEntity, EventEntity], work=627*
162: 0x0A38 [0x45] LOAD_SCHEDULED_TASK: Load scheduler "s148" with entities [EventEntity, EventEntity], work=[627*, 0*]
163: 0x0A49 [0x02] IF !(ExtData[1]->WorkLocal[3] == 1*) GOTO 0x0A83
164: 0x0A51 [0x66] LOAD_EXT_SCHEDULER_MAIN: Load scheduler "tlb0" with entities [EventEntity, EventEntity], work=34*
165: 0x0A60 [0x1D] PRINT_EVENT_MESSAGE(message_id=10680*)
    → "Excellentaru. Just remember to procure gate crystals along the way, lest you look like a fool."
166: 0x0A63 [0x23] WAIT_FOR_DIALOG_INTERACTION
167: 0x0A64 [0x53] WAIT_SCHEDULER_TASK: Wait for scheduler "tlb0" with entities [EventEntity, EventEntity]
168: 0x0A71 [0x66] LOAD_EXT_SCHEDULER_MAIN: Load scheduler "tlb1" with entities [EventEntity, EventEntity], work=34*
169: 0x0A80 [0x01] GOTO 0x0ABA
170: 0x0A83 [0x02] IF !(ExtData[1]->WorkLocal[4] == 1*) GOTO 0x0ABA
171: 0x0A8B [0x66] LOAD_EXT_SCHEDULER_MAIN: Load scheduler "tlb0" with entities [EventEntity, EventEntity], work=34*
172: 0x0A9A [0x1D] PRINT_EVENT_MESSAGE(message_id=10681*)
    → "Perfectaru. It shouldn't give you much trouble, either, as long as you know the spell Teleport."
173: 0x0A9D [0x23] WAIT_FOR_DIALOG_INTERACTION
174: 0x0A9E [0x53] WAIT_SCHEDULER_TASK: Wait for scheduler "tlb0" with entities [EventEntity, EventEntity]
175: 0x0AAB [0x66] LOAD_EXT_SCHEDULER_MAIN: Load scheduler "tlb1" with entities [EventEntity, EventEntity], work=34*

SUBROUTINE_0ABA:
176: 0x0ABA [0x01] GOTO 0x0B84
177: 0x0ABD [0x02] IF !(Work_Zone[0] == 1*) GOTO 0x0B84
178: 0x0AC5 [0x27] REQ_SET(priority=0x05, entity_id=LocalPlayer, tag_num=0x54)
179: 0x0ACC [0x1C] WAIT(80* ticks)
180: 0x0ACF [0x27] REQ_SET(priority=0x05, entity_id=LocalPlayer, tag_num=0x55)
181: 0x0AD6 [0x1C] WAIT(40* ticks)
182: 0x0AD9 [0x52] END_LOAD_SCHEDULER: End scheduler "s145" with entities [EventEntity, EventEntity], work=627*
183: 0x0AE8 [0x52] END_LOAD_SCHEDULER: End scheduler "s146" with entities [EventEntity, EventEntity], work=627*
184: 0x0AF7 [0x45] LOAD_SCHEDULED_TASK: Load scheduler "s147" with entities [EventEntity, EventEntity], work=[627*, 0*]
185: 0x0B08 [0x66] LOAD_EXT_SCHEDULER_MAIN: Load scheduler "thk2" with entities [EventEntity, EventEntity], work=40*
186: 0x0B17 [0x79] EventEntity looks at LocalPlayer (Basic look)
187: 0x0B21 [0x53] WAIT_SCHEDULER_TASK: Wait for scheduler "thk2" with entities [EventEntity, EventEntity]
188: 0x0B2E [0x1D] PRINT_EVENT_MESSAGE(message_id=10678*)
    → "Teleportaru you!? Bite me!"
189: 0x0B31 [0x23] WAIT_FOR_DIALOG_INTERACTION
190: 0x0B32 [0x52] END_LOAD_SCHEDULER: End scheduler "s147" with entities [EventEntity, EventEntity], work=627*
191: 0x0B41 [0x45] LOAD_SCHEDULED_TASK: Load scheduler "s148" with entities [EventEntity, EventEntity], work=[627*, 0*]
192: 0x0B52 [0x66] LOAD_EXT_SCHEDULER_MAIN: Load scheduler "tlb0" with entities [EventEntity, EventEntity], work=34*
193: 0x0B61 [0x1D] PRINT_EVENT_MESSAGE(message_id=10679*)
    → "You've just insulted every hardworking mage everywhere. You need to work for your share, not leech-weech off the kindness of strangers."
194: 0x0B64 [0x23] WAIT_FOR_DIALOG_INTERACTION
195: 0x0B65 [0x53] WAIT_SCHEDULER_TASK: Wait for scheduler "tlb0" with entities [EventEntity, EventEntity]
196: 0x0B72 [0x66] LOAD_EXT_SCHEDULER_MAIN: Load scheduler "tlb1" with entities [EventEntity, EventEntity], work=34*
197: 0x0B81 [0x01] GOTO 0x0B84

SUBROUTINE_0B84:
198: 0x0B84 [0x1D] PRINT_EVENT_MESSAGE(message_id=10682*)
    → "Alright, I'll see you once you've completarued your objective."
199: 0x0B87 [0x23] WAIT_FOR_DIALOG_INTERACTION
200: 0x0B88 [0x03] Work_Zone[1] = 2*

SUBROUTINE_0B8D:
201: 0x0B8D [0x1A] CALL_SUBROUTINE(address=0x0064)
202: 0x0B90 [0x52] END_LOAD_SCHEDULER: End scheduler "s136" with entities [EventEntity, EventEntity], work=627*
203: 0x0B9F [0x52] END_LOAD_SCHEDULER: End scheduler "s148" with entities [EventEntity, EventEntity], work=627*
204: 0x0BAE [0x1C] WAIT(15* ticks)
205: 0x0BB1 [0xAB] EventEntity->DespawnValue = 0* // Set despawn value
206: 0x0BB5 [0x1C] WAIT(1* ticks)
207: 0x0BB8 [0x46] CAMERA_CONTROL: Restore default settings
208: 0x0BBA [0x45] LOAD_SCHEDULED_TASK: Load scheduler "fdi2" with entities [LocalPlayer, LocalPlayer], work=[200*, 0*]
209: 0x0BCB [0x21] END_EVENT
210: 0x0BCC [0x00] END_REQSTACK()
```

#### Data or dead code:

```
# Dead code (unreachable instructions):
     0x05CF [0x01] GOTO 0x060A
# Dead code (unreachable instructions):
     0x06B2 [0x01] GOTO 0x06F8
     0x06F5 [0x01] GOTO 0x06F8
# Dead code (unreachable instructions):
     0x08ED [0x01] GOTO 0x08F0
```

### Event 20037

#### Metadata

| Field        | Value      |
|--------------|------------|
| Entrypoint   | 0x0BCD     |
| Data Size    | 2178 bytes |
| Instructions | 285        |

```
      00 01 02 03 04 05 06 07  08 09 0A 0B 0C 0D 0E 0F
      -- -- -- -- -- -- -- --  -- -- -- -- -- -- -- --
0BC0:                                         42 03 00               B..
0BD0: 00 02 10 06 01 10 1A 64  00 46 01 38 1E 80 4E 00  .......d.F.8..N.
0BE0: FD 50 0F 01 2F 00 FD 50  0F 01 59 05 FD 50 0F 01  .P../..P..Y..P..
0BF0: 01 92 01 F6 50 0F 01 92  01 FD 50 0F 01 92 01 6D  ....P.....P....m
0C00: 50 0F 01 94 01 F0 FF FF  7F 94 01 F6 50 0F 01 94  P...........P...
0C10: 01 FD 50 0F 01 94 01 6D  50 0F 01 BA F0 FF FF 7F  ..P....mP.......
0C20: 1F 80 20 80 01 80 21 80  BA FD 50 0F 01 47 80 48  .. ...!...P..G.H
0C30: 80 01 80 21 80 BA 6D 50  0F 01 49 80 4A 80 01 80  ...!..mP..I.J...
0C40: 21 80 80 F0 FF FF 7F 80  F6 50 0F 01 80 6D 50 0F  !........P...mP.
0C50: 01 4A F0 FF FF 7F F6 50  0F 01 4A F6 50 0F 01 F0  .J.....P..J.P...
0C60: FF FF 7F 4A FD 50 0F 01  6D 50 0F 01 4A 6D 50 0F  ...J.P..mP..JmP.
0C70: 01 FD 50 0F 01 1C 06 80  66 4B 80 FD 50 0F 01 FD  ..P.....fK..P...
0C80: 50 0F 01 74 6C 6B 30 45  27 80 F8 FF FF 7F F8 FF  P..tlk0E'.......
0C90: FF 7F 73 31 34 39 01 80  1C 06 80 1A 43 00 66 09  ..s149......C.f.
0CA0: 80 F8 FF FF 7F F8 FF FF  7F 74 6C 6B 30 1D 4C 80  .........tlk0.L.
0CB0: 23 66 09 80 F8 FF FF 7F  F8 FF FF 7F 74 6C 6B 31  #f..........tlk1
0CC0: 1C 06 80 52 27 80 F8 FF  FF 7F F8 FF FF 7F 73 31  ...R'.........s1
0CD0: 34 39 45 27 80 F8 FF FF  7F F8 FF FF 7F 73 31 35  49E'.........s15
0CE0: 30 01 80 1E FD 50 0F 01  1D 4D 80 23 52 27 80 F8  0....P...M.#R'..
0CF0: FF FF 7F F8 FF FF 7F 73  31 35 30 45 27 80 F8 FF  .......s150E'...
0D00: FF 7F F8 FF FF 7F 73 31  35 31 01 80 66 4B 80 FD  ......s151..fK..
0D10: 50 0F 01 FD 50 0F 01 74  6C 6B 31 1C 06 80 27 05  P...P..tlk1...'.
0D20: FD 50 0F 01 02 7B FD 50  0F 01 1C 4E 80 66 12 80  .P...{.P...N.f..
0D30: 6D 50 0F 01 6D 50 0F 01  77 61 76 30 1C 4F 80 52  mP..mP..wav0.O.R
0D40: 27 80 F8 FF FF 7F F8 FF  FF 7F 73 31 35 31 45 27  '.........s151E'
0D50: 80 F8 FF FF 7F F8 FF FF  7F 73 31 35 32 01 80 5D  .........s152..]
0D60: 01 80 01 80 1D 50 80 1C  33 80 7A 00 FD 50 0F 01  .....P..3.z..P..
0D70: BA FD 50 0F 01 51 80 52  80 01 80 53 80 32 09 80  ..P..Q.R...S.2..
0D80: 1F 00 54 80 55 80 01 80  1F 01 23 80 FD 50 0F 01  ..T.U.....#..P..
0D90: 27 05 FD 50 0F 01 02 1C  33 80 52 27 80 F8 FF FF  '..P....3.R'....
0DA0: 7F F8 FF FF 7F 73 31 35  32 45 27 80 F8 FF FF 7F  .....s152E'.....
0DB0: F8 FF FF 7F 73 31 35 33  01 80 1C 56 80 52 27 80  ....s153...V.R'.
0DC0: F8 FF FF 7F F8 FF FF 7F  73 31 35 33 45 27 80 F8  ........s153E'..
0DD0: FF FF 7F F8 FF FF 7F 73  31 35 34 01 80 2A 05 FD  .......s154..*..
0DE0: 50 0F 01 32 57 80 1F 00  58 80 59 80 01 80 1F 01  P..2W...X.Y.....
0DF0: 5D 5A 80 5B 80 1D 5C 80  23 6E F8 FF FF 7F 2E 80  ]Z.[..\.#n......
0E00: 99 F8 FF FF 7F 1D 5D 80  23 52 27 80 F8 FF FF 7F  ......].#R'.....
0E10: F8 FF FF 7F 73 31 35 34  45 27 80 F8 FF FF 7F F8  ....s154E'......
0E20: FF FF 7F 73 31 35 35 01  80 4A F6 50 0F 01 F0 FF  ...s155..J.P....
0E30: FF 7F 1C 06 80 1D 5E 80  23 66 09 80 F8 FF FF 7F  ......^.#f......
0E40: F8 FF FF 7F 74 68 6B 31  7B F8 FF FF 7F 1D 5F 80  ....thk1{....._.
0E50: 23 52 27 80 F8 FF FF 7F  F8 FF FF 7F 73 31 35 35  #R'.........s155
0E60: 45 27 80 F8 FF FF 7F F8  FF FF 7F 73 31 35 36 01  E'.........s156.
0E70: 80 66 09 80 F8 FF FF 7F  F8 FF FF 7F 74 68 6B 32  .f..........thk2
0E80: 79 00 F8 FF FF 7F F0 FF  FF 7F 53 F8 FF FF 7F F8  y.........S.....
0E90: FF FF 7F 74 68 6B 32 1D  60 80 23 66 09 80 F8 FF  ...thk2.`.#f....
0EA0: FF 7F F8 FF FF 7F 74 6C  6B 30 1D 61 80 23 5D 01  ......tlk0.a.#].
0EB0: 80 4F 80 1A A6 00 1C 06  80 52 27 80 F8 FF FF 7F  .O.......R'.....
0EC0: F8 FF FF 7F 73 31 35 36  6B 69 64 6C 30 F8 FF FF  ....s156kidl0...
0ED0: 7F 4E 01 FD 50 0F 01 4E  00 F8 50 0F 01 4E 00 F9  .N..P..N..P..N..
0EE0: 50 0F 01 4E 00 FA 50 0F  01 4E 00 FB 50 0F 01 4E  P..N..P..N..P..N
0EF0: 00 FC 50 0F 01 2F 00 F8  50 0F 01 2F 00 F9 50 0F  ..P../..P../..P.
0F00: 01 2F 00 FA 50 0F 01 2F  00 FB 50 0F 01 2F 00 FC  ./..P../..P../..
0F10: 50 0F 01 59 05 F8 50 0F  01 01 59 05 F9 50 0F 01  P..Y..P...Y..P..
0F20: 01 59 05 FA 50 0F 01 01  59 05 FB 50 0F 01 01 59  .Y..P...Y..P...Y
0F30: 05 FC 50 0F 01 01 92 01  F8 50 0F 01 92 01 F9 50  ..P......P.....P
0F40: 0F 01 92 01 FA 50 0F 01  92 01 FB 50 0F 01 92 01  .....P.....P....
0F50: FC 50 0F 01 94 01 F8 50  0F 01 94 01 F9 50 0F 01  .P.....P.....P..
0F60: 94 01 FA 50 0F 01 94 01  FB 50 0F 01 94 01 FC 50  ...P.....P.....P
0F70: 0F 01 BA F8 50 0F 01 62  80 63 80 01 80 21 80 BA  ....P..b.c...!..
0F80: F9 50 0F 01 64 80 65 80  01 80 66 80 BA FA 50 0F  .P..d.e...f...P.
0F90: 01 67 80 68 80 01 80 69  80 BA FB 50 0F 01 6A 80  .g.h...i...P..j.
0FA0: 6B 80 01 80 6C 80 BA FC  50 0F 01 6D 80 6E 80 01  k...l...P..m.n..
0FB0: 80 6F 80 4E 01 F0 FF FF  7F 4E 01 F6 50 0F 01 80  .o.N.....N..P...
0FC0: F0 FF FF 7F 80 F6 50 0F  01 4A FA 50 0F 01 FC 50  ......P..J.P...P
0FD0: 0F 01 4A F8 50 0F 01 FC  50 0F 01 4A F9 50 0F 01  ..J.P...P..J.P..
0FE0: FC 50 0F 01 4A FB 50 0F  01 FC 50 0F 01 79 00 FC  .P..J.P...P..y..
0FF0: 50 0F 01 FA 50 0F 01 5C  00 70 80 5C 01 70 80 9A  P...P..\.p.\.p..
1000: 1C 06 80 45 27 80 F8 FF  FF 7F F8 FF FF 7F 73 31  ...E'.........s1
1010: 35 37 01 80 1A D8 01 1A  85 00 1C 33 80 6E FA 50  57.........3.n.P
1020: 0F 01 18 80 99 FA 50 0F  01 2B FA 50 0F 01 71 80  ......P..+.P..q.
1030: 23 52 27 80 F8 FF FF 7F  F8 FF FF 7F 73 31 35 37  #R'.........s157
1040: 45 27 80 F8 FF FF 7F F8  FF FF 7F 73 31 35 38 01  E'.........s158.
1050: 80 66 72 80 FC 50 0F 01  FC 50 0F 01 6D 73 75 30  .fr..P...P..msu0
1060: 2B FC 50 0F 01 73 80 23  66 72 80 FC 50 0F 01 FC  +.P..s.#fr..P...
1070: 50 0F 01 6D 73 75 31 53  FC 50 0F 01 FC 50 0F 01  P..msu1S.P...P..
1080: 6D 73 75 31 52 27 80 F8  FF FF 7F F8 FF FF 7F 73  msu1R'.........s
1090: 31 35 38 45 27 80 F8 FF  FF 7F F8 FF FF 7F 73 31  158E'.........s1
10A0: 35 39 01 80 6E FA 50 0F  01 13 80 99 FA 50 0F 01  59..n.P......P..
10B0: 1C 06 80 66 74 80 F8 50  0F 01 F8 50 0F 01 74 6C  ...ft..P...P..tl
10C0: 6B 30 1C 18 80 79 00 FC  50 0F 01 F8 50 0F 01 2B  k0...y..P...P..+
10D0: F8 50 0F 01 75 80 23 66  74 80 F8 50 0F 01 F8 50  .P..u.#ft..P...P
10E0: 0F 01 74 6C 6B 31 52 27  80 F8 FF FF 7F F8 FF FF  ..tlk1R'........
10F0: 7F 73 31 35 39 45 27 80  F8 FF FF 7F F8 FF FF 7F  .s159E'.........
1100: 73 31 36 30 01 80 6E F9  50 0F 01 76 80 99 F9 50  s160..n.P..v...P
1110: 0F 01 79 00 FC 50 0F 01  F9 50 0F 01 79 00 FB 50  ..y..P...P..y..P
1120: 0F 01 F9 50 0F 01 79 00  F8 50 0F 01 F9 50 0F 01  ...P..y..P...P..
1130: 2B F9 50 0F 01 77 80 23  4A FA 50 0F 01 F9 50 0F  +.P..w.#J.P...P.
1140: 01 66 4B 80 FB 50 0F 01  FB 50 0F 01 74 6C 6B 30  .fK..P...P..tlk0
1150: 79 00 FC 50 0F 01 FB 50  0F 01 2B FB 50 0F 01 78  y..P...P..+.P..x
1160: 80 23 66 4B 80 FB 50 0F  01 FB 50 0F 01 74 6C 6B  .#fK..P...P..tlk
1170: 31 52 27 80 F8 FF FF 7F  F8 FF FF 7F 73 31 36 30  1R'.........s160
1180: 45 27 80 F8 FF FF 7F F8  FF FF 7F 73 31 36 31 01  E'.........s161.
1190: 80 7B FC 50 0F 01 6E FC  50 0F 01 79 80 99 FC 50  .{.P..n.P..y...P
11A0: 0F 01 79 00 FB 50 0F 01  FC 50 0F 01 79 00 F8 50  ..y..P...P..y..P
11B0: 0F 01 FC 50 0F 01 2B FC  50 0F 01 7A 80 23 7B FA  ...P..+.P..z.#{.
11C0: 50 0F 01 66 7B 80 FA 50  0F 01 FA 50 0F 01 74 68  P..f{..P...P..th
11D0: 6B 31 2B FA 50 0F 01 7C  80 23 1A A6 00 52 27 80  k1+.P..|.#...R'.
11E0: F8 FF FF 7F F8 FF FF 7F  73 31 36 31 45 07 80 F0  ........s161E...
11F0: FF FF 7F F0 FF FF 7F 65  66 6F 66 01 80 55 07 80  .......efof..U..
1200: F0 FF FF 7F F0 FF FF 7F  65 66 6F 66 4E 01 F8 50  ........efofN..P
1210: 0F 01 4E 01 F9 50 0F 01  4E 01 FA 50 0F 01 4E 01  ..N..P..N..P..N.
1220: FB 50 0F 01 4E 01 FC 50  0F 01 4E 00 F0 FF FF 7F  .P..N..P..N.....
1230: 4E 00 F6 50 0F 01 BA F6  50 0F 01 58 80 59 80 01  N..P....P..X.Y..
1240: 80 21 80 80 F0 FF FF 7F  80 F6 50 0F 01 45 27 80  .!........P..E'.
1250: F8 FF FF 7F F8 FF FF 7F  73 31 36 32 01 80 1C 06  ........s162....
1260: 80 1A 85 00 1D 7D 80 23  52 27 80 F8 FF FF 7F F8  .....}.#R'......
1270: FF FF 7F 73 31 36 32 45  27 80 F8 FF FF 7F F8 FF  ...s162E'.......
1280: FF 7F 73 31 36 33 01 80  1D 7E 80 23 52 27 80 F8  ..s163...~.#R'..
1290: FF FF 7F F8 FF FF 7F 73  31 36 33 45 27 80 F8 FF  .......s163E'...
12A0: FF 7F F8 FF FF 7F 73 31  36 34 01 80 1D 7F 80 23  ......s164.....#
12B0: 52 27 80 F8 FF FF 7F F8  FF FF 7F 73 31 36 34 45  R'.........s164E
12C0: 27 80 F8 FF FF 7F F8 FF  FF 7F 73 31 36 35 01 80  '.........s165..
12D0: 1C 06 80 1E F0 FF FF 7F  66 09 80 F8 FF FF 7F F8  ........f.......
12E0: FF FF 7F 74 68 6B 31 7B  F8 FF FF 7F 1D 80 80 23  ...thk1{.......#
12F0: 52 27 80 F8 FF FF 7F F8  FF FF 7F 73 31 36 35 45  R'.........s165E
1300: 27 80 F8 FF FF 7F F8 FF  FF 7F 73 31 36 36 01 80  '.........s166..
1310: 1D 81 80 23 52 27 80 F8  FF FF 7F F8 FF FF 7F 73  ...#R'.........s
1320: 31 36 36 45 27 80 F8 FF  FF 7F F8 FF FF 7F 73 31  166E'.........s1
1330: 36 37 01 80 66 09 80 F8  FF FF 7F F8 FF FF 7F 74  67..f..........t
1340: 68 6B 32 53 F8 FF FF 7F  F8 FF FF 7F 74 68 6B 32  hk2S........thk2
1350: 7C 00 F8 FF FF 7F 5C 00  01 80 5C 01 01 80 9A 66  |.....\...\....f
1360: 72 80 F8 FF FF 7F F8 FF  FF 7F 62 69 6B 30 02 00  r.........bik0..
1370: 00 01 80 01 81 13 5C 00  82 80 5C 01 82 80 01 89  ......\...\.....
1380: 13 5C 00 83 80 5C 01 83  80 9A 1D 84 80 23 53 F8  .\...\.......#S.
1390: FF FF 7F F8 FF FF 7F 62  69 6B 30 66 72 80 F8 FF  .......bik0fr...
13A0: FF 7F F8 FF FF 7F 62 69  6B 31 7C 01 F8 FF FF 7F  ......bik1|.....
13B0: 79 00 F8 FF FF 7F F0 FF  FF 7F 52 27 80 F8 FF FF  y.........R'....
13C0: 7F F8 FF FF 7F 73 31 36  37 45 27 80 F8 FF FF 7F  .....s167E'.....
13D0: F8 FF FF 7F 73 31 36 38  01 80 53 F8 FF FF 7F F8  ....s168..S.....
13E0: FF FF 7F 62 69 6B 31 6E  F8 FF FF 7F 16 80 99 F8  ...bik1n........
13F0: FF FF 7F 1D 85 80 23 66  09 80 F8 FF FF 7F F8 FF  ......#f........
1400: FF 7F 70 61 73 30 1D 86  80 23 1C 31 80 1A 64 00  ..pas0...#.1..d.
1410: 52 27 80 F8 FF FF 7F F8  FF FF 7F 73 31 36 38 1C  R'.........s168.
1420: 33 80 AB 11 01 80 1C 03  80 46 00 45 02 80 F8 FF  3........F.E....
1430: FF 7F F8 FF FF 7F 71 73  74 63 01 80 45 00 80 F0  ......qstc..E...
1440: FF FF 7F F0 FF FF 7F 66  64 69 32 01 80 21 00     .......fdi2..!. 
```

#### Opcodes

```
  0: 0x0BCD [0x42] SET_CLI_EVENT_CANCEL_DATA()
  1: 0x0BCE [0x03] ExtData[1]->WorkLocal[0] = Work_Zone[2]
  2: 0x0BD3 [0x06] Work_Zone[1] = 0
  3: 0x0BD6 [0x1A] CALL_SUBROUTINE(address=0x0064)
  4: 0x0BD9 [0x46] CAMERA_CONTROL: Disable user control
  5: 0x0BDB [0x38] SET_CLIENT_EVENT_MODE(mode=147*)
  6: 0x0BDE [0x4E] SET_ENTITY_HIDE_FLAG: Show Eternal Flame (ID: 17780989/0x010F50FD)
  7: 0x0BE4 [0x2F] Eternal Flame (ID: 17780989/0x010F50FD)->Render.Flags0 &= ~0x80000 // Bit 19
  8: 0x0BEA [0x59] UPDATE_ENTITY_DATA: Eternal Flame (ID: 17780989/0x010F50FD)->Render.Flags0 |= 0x200000
  9: 0x0BF1 [0x92] Nantoto (ID: 17780982/0x010F50F6)->Render.Flags3 ^= 0x01
 10: 0x0BF7 [0x92] Eternal Flame (ID: 17780989/0x010F50FD)->Render.Flags3 ^= 0x01
 11: 0x0BFD [0x92] Subash (ID: 17780845/0x010F506D)->Render.Flags3 ^= 0x01
 12: 0x0C03 [0x94] LocalPlayer->Render.Flags3 ^= 0x01
 13: 0x0C09 [0x94] Nantoto (ID: 17780982/0x010F50F6)->Render.Flags3 ^= 0x01
 14: 0x0C0F [0x94] Eternal Flame (ID: 17780989/0x010F50FD)->Render.Flags3 ^= 0x01
 15: 0x0C15 [0x94] Subash (ID: 17780845/0x010F506D)->Render.Flags3 ^= 0x01
 16: 0x0C1B [0xBA] SET_ENTITY_POSITION(entity_id=LocalPlayer, pos_x=-44.371*, pos_z=-49.352*, pos_y=0.000*, direction=174.9°*)
 17: 0x0C28 [0xBA] SET_ENTITY_POSITION(entity_id=Eternal Flame (ID: 17780989/0x010F50FD), pos_x=-28.752*, pos_z=-39.639*, pos_y=0.000*, direction=174.9°*)
 18: 0x0C35 [0xBA] SET_ENTITY_POSITION(entity_id=Subash (ID: 17780845/0x010F506D), pos_x=-26.236*, pos_z=-40.383*, pos_y=0.000*, direction=174.9°*)
 19: 0x0C42 [0x80] LOAD_WAIT(entity=LocalPlayer)
 20: 0x0C47 [0x80] LOAD_WAIT(entity=Nantoto (ID: 17780982/0x010F50F6))
 21: 0x0C4C [0x80] LOAD_WAIT(entity=Subash (ID: 17780845/0x010F506D))
 22: 0x0C51 [0x4A] LocalPlayer looks at Nantoto (ID: 17780982/0x010F50F6)
 23: 0x0C5A [0x4A] Nantoto (ID: 17780982/0x010F50F6) looks at LocalPlayer
 24: 0x0C63 [0x4A] Eternal Flame (ID: 17780989/0x010F50FD) looks at Subash (ID: 17780845/0x010F506D)
 25: 0x0C6C [0x4A] Subash (ID: 17780845/0x010F506D) looks at Eternal Flame (ID: 17780989/0x010F50FD)
 26: 0x0C75 [0x1C] WAIT(30* ticks)
 27: 0x0C78 [0x66] LOAD_EXT_SCHEDULER_MAIN: Load scheduler "tlk0" with entities [Eternal Flame (ID: 17780989/0x010F50FD), Eternal Flame (ID: 17780989/0x010F50FD)], work=69*
 28: 0x0C87 [0x45] LOAD_SCHEDULED_TASK: Load scheduler "s149" with entities [EventEntity, EventEntity], work=[627*, 0*]
 29: 0x0C98 [0x1C] WAIT(30* ticks)
 30: 0x0C9B [0x1A] CALL_SUBROUTINE(address=0x0043)
 31: 0x0C9E [0x66] LOAD_EXT_SCHEDULER_MAIN: Load scheduler "tlk0" with entities [EventEntity, EventEntity], work=40*
 32: 0x0CAD [0x1D] PRINT_EVENT_MESSAGE(message_id=10686*)
    → "I honestly didn't expectaru you to return with such haste."
 33: 0x0CB0 [0x23] WAIT_FOR_DIALOG_INTERACTION
 34: 0x0CB1 [0x66] LOAD_EXT_SCHEDULER_MAIN: Load scheduler "tlk1" with entities [EventEntity, EventEntity], work=40*
 35: 0x0CC0 [0x1C] WAIT(30* ticks)
 36: 0x0CC3 [0x52] END_LOAD_SCHEDULER: End scheduler "s149" with entities [EventEntity, EventEntity], work=627*
 37: 0x0CD2 [0x45] LOAD_SCHEDULED_TASK: Load scheduler "s150" with entities [EventEntity, EventEntity], work=[627*, 0*]
 38: 0x0CE3 [0x1E] EventEntity looks at Eternal Flame (ID: 17780989/0x010F50FD) and starts talking
 39: 0x0CE8 [0x1D] PRINT_EVENT_MESSAGE(message_id=10687*)
    → "Oh...no..."
 40: 0x0CEB [0x23] WAIT_FOR_DIALOG_INTERACTION
 41: 0x0CEC [0x52] END_LOAD_SCHEDULER: End scheduler "s150" with entities [EventEntity, EventEntity], work=627*
 42: 0x0CFB [0x45] LOAD_SCHEDULED_TASK: Load scheduler "s151" with entities [EventEntity, EventEntity], work=[627*, 0*]
 43: 0x0D0C [0x66] LOAD_EXT_SCHEDULER_MAIN: Load scheduler "tlk1" with entities [Eternal Flame (ID: 17780989/0x010F50FD), Eternal Flame (ID: 17780989/0x010F50FD)], work=69*
 44: 0x0D1B [0x1C] WAIT(30* ticks)
 45: 0x0D1E [0x27] REQ_SET(priority=0x05, entity_id=Eternal Flame (ID: 17780989/0x010F50FD), tag_num=0x02)
 46: 0x0D25 [0x7B] Eternal Flame (ID: 17780989/0x010F50FD) stops talking
 47: 0x0D2A [0x1C] WAIT(60* ticks)
 48: 0x0D2D [0x66] LOAD_EXT_SCHEDULER_MAIN: Load scheduler "wav0" with entities [Subash (ID: 17780845/0x010F506D), Subash (ID: 17780845/0x010F506D)], work=3*
 49: 0x0D3C [0x1C] WAIT(120* ticks)
 50: 0x0D3F [0x52] END_LOAD_SCHEDULER: End scheduler "s151" with entities [EventEntity, EventEntity], work=627*
 51: 0x0D4E [0x45] LOAD_SCHEDULED_TASK: Load scheduler "s152" with entities [EventEntity, EventEntity], work=[627*, 0*]
 52: 0x0D5F [0x5D] SET_MUSIC_VOLUME(volume=0*, fade_time=0*)
 53: 0x0D64 [0x1D] PRINT_EVENT_MESSAGE(message_id=10688*)
    → "Don't you dare move a finger-winger, or I'll bite you harder than a poison leech!"
 54: 0x0D67 [0x1C] WAIT(15* ticks)
 55: 0x0D6A [0x7A] VM_CONTROL: Reset VM for Eternal Flame (ID: 17780989/0x010F50FD)
 56: 0x0D70 [0xBA] SET_ENTITY_POSITION(entity_id=Eternal Flame (ID: 17780989/0x010F50FD), pos_x=-34.433*, pos_z=-50.374*, pos_y=0.000*, direction=115.0°*)
 57: 0x0D7D [0x32] ExtData[1]->MainSpeed = 40* * 0.1
 58: 0x0D80 [0x1F] MOVE_ENTITY: EventEntity moves to X=-45.278*, Z=-49.566*, Y=0.000*
 59: 0x0D88 [0x1F] MOVE_ENTITY: Update entity position (mode=1)
 60: 0x0D8A [0x23] WAIT_FOR_DIALOG_INTERACTION
 61: 0x0D8B [0x80] LOAD_WAIT(entity=Eternal Flame (ID: 17780989/0x010F50FD))
 62: 0x0D90 [0x27] REQ_SET(priority=0x05, entity_id=Eternal Flame (ID: 17780989/0x010F50FD), tag_num=0x02)
 63: 0x0D97 [0x1C] WAIT(15* ticks)
 64: 0x0D9A [0x52] END_LOAD_SCHEDULER: End scheduler "s152" with entities [EventEntity, EventEntity], work=627*
 65: 0x0DA9 [0x45] LOAD_SCHEDULED_TASK: Load scheduler "s153" with entities [EventEntity, EventEntity], work=[627*, 0*]
 66: 0x0DBA [0x1C] WAIT(300* ticks)
 67: 0x0DBD [0x52] END_LOAD_SCHEDULER: End scheduler "s153" with entities [EventEntity, EventEntity], work=627*
 68: 0x0DCC [0x45] LOAD_SCHEDULED_TASK: Load scheduler "s154" with entities [EventEntity, EventEntity], work=[627*, 0*]
 69: 0x0DDD [0x2A] GET_REQ_LEVEL(level=5, entity_id=Eternal Flame (ID: 17780989/0x010F50FD))
 70: 0x0DE3 [0x32] ExtData[1]->MainSpeed = 13* * 0.1
 71: 0x0DE6 [0x1F] MOVE_ENTITY: EventEntity moves to X=-46.399*, Z=-49.532*, Y=0.000*
 72: 0x0DEE [0x1F] MOVE_ENTITY: Update entity position (mode=1)
 73: 0x0DF0 [0x5D] SET_MUSIC_VOLUME(volume=127*, fade_time=240*)
 74: 0x0DF5 [0x1D] PRINT_EVENT_MESSAGE(message_id=10689*)
    → "That was Ervie...I mean Ervok."
 75: 0x0DF8 [0x23] WAIT_FOR_DIALOG_INTERACTION
 76: 0x0DF9 [0x6E] EventEntity uses emote 32*
 77: 0x0E00 [0x99] Wait for EventEntity animation to complete
 78: 0x0E05 [0x1D] PRINT_EVENT_MESSAGE(message_id=10690*)
    → "He's my friend, but we haven't adventured together in so long. We've driftarued so far apart that the gap between us is impossible to cross."
 79: 0x0E08 [0x23] WAIT_FOR_DIALOG_INTERACTION
 80: 0x0E09 [0x52] END_LOAD_SCHEDULER: End scheduler "s154" with entities [EventEntity, EventEntity], work=627*
 81: 0x0E18 [0x45] LOAD_SCHEDULED_TASK: Load scheduler "s155" with entities [EventEntity, EventEntity], work=[627*, 0*]
 82: 0x0E29 [0x4A] Nantoto (ID: 17780982/0x010F50F6) looks at LocalPlayer
 83: 0x0E32 [0x1C] WAIT(30* ticks)
 84: 0x0E35 [0x1D] PRINT_EVENT_MESSAGE(message_id=10691*)
    → "But now I hear he started teaching-weaching people about Records of Eminence!"
 85: 0x0E38 [0x23] WAIT_FOR_DIALOG_INTERACTION
 86: 0x0E39 [0x66] LOAD_EXT_SCHEDULER_MAIN: Load scheduler "thk1" with entities [EventEntity, EventEntity], work=40*
 87: 0x0E48 [0x7B] EventEntity stops talking
 88: 0x0E4D [0x1D] PRINT_EVENT_MESSAGE(message_id=10692*)
    → "He even stopped using his real name. Now he goes by the moniker-woniker "Eternal Flame" or something dumb."
 89: 0x0E50 [0x23] WAIT_FOR_DIALOG_INTERACTION
 90: 0x0E51 [0x52] END_LOAD_SCHEDULER: End scheduler "s155" with entities [EventEntity, EventEntity], work=627*
 91: 0x0E60 [0x45] LOAD_SCHEDULED_TASK: Load scheduler "s156" with entities [EventEntity, EventEntity], work=[627*, 0*]
 92: 0x0E71 [0x66] LOAD_EXT_SCHEDULER_MAIN: Load scheduler "thk2" with entities [EventEntity, EventEntity], work=40*
 93: 0x0E80 [0x79] EventEntity looks at LocalPlayer (Basic look)
 94: 0x0E8A [0x53] WAIT_SCHEDULER_TASK: Wait for scheduler "thk2" with entities [EventEntity, EventEntity]
 95: 0x0E97 [0x1D] PRINT_EVENT_MESSAGE(message_id=10693*)
    → "Back in the old days, the five of us always used to venture forth into the unknown and combataru the forces of evil whenever we got the chance."
 96: 0x0E9A [0x23] WAIT_FOR_DIALOG_INTERACTION
 97: 0x0E9B [0x66] LOAD_EXT_SCHEDULER_MAIN: Load scheduler "tlk0" with entities [EventEntity, EventEntity], work=40*
 98: 0x0EAA [0x1D] PRINT_EVENT_MESSAGE(message_id=10694*)
    → "I still remember how the auction house was always packed, so we'd meet in frontaru of the tavern."
 99: 0x0EAD [0x23] WAIT_FOR_DIALOG_INTERACTION
100: 0x0EAE [0x5D] SET_MUSIC_VOLUME(volume=0*, fade_time=120*)
101: 0x0EB3 [0x1A] CALL_SUBROUTINE(address=0x00A6)
102: 0x0EB6 [0x1C] WAIT(30* ticks)
103: 0x0EB9 [0x52] END_LOAD_SCHEDULER: End scheduler "s156" with entities [EventEntity, EventEntity], work=627*
104: 0x0EC8 [0x6B] STOP_AND_IDLE: EventEntity stops current action and resets to idle (animation="idl0")
105: 0x0ED1 [0x4E] SET_ENTITY_HIDE_FLAG: Hide Eternal Flame (ID: 17780989/0x010F50FD)
106: 0x0ED7 [0x4E] SET_ENTITY_HIDE_FLAG: Show Rolandienne (ID: 17780984/0x010F50F8)
107: 0x0EDD [0x4E] SET_ENTITY_HIDE_FLAG: Show Isakoth (ID: 17780985/0x010F50F9)
108: 0x0EE3 [0x4E] SET_ENTITY_HIDE_FLAG: Show Fhelm Jobeizat (ID: 17780986/0x010F50FA)
109: 0x0EE9 [0x4E] SET_ENTITY_HIDE_FLAG: Show Eternal Flame (ID: 17780987/0x010F50FB)
110: 0x0EEF [0x4E] SET_ENTITY_HIDE_FLAG: Show Nantoto (ID: 17780988/0x010F50FC)
111: 0x0EF5 [0x2F] Rolandienne (ID: 17780984/0x010F50F8)->Render.Flags0 &= ~0x80000 // Bit 19
112: 0x0EFB [0x2F] Isakoth (ID: 17780985/0x010F50F9)->Render.Flags0 &= ~0x80000 // Bit 19
113: 0x0F01 [0x2F] Fhelm Jobeizat (ID: 17780986/0x010F50FA)->Render.Flags0 &= ~0x80000 // Bit 19
114: 0x0F07 [0x2F] Eternal Flame (ID: 17780987/0x010F50FB)->Render.Flags0 &= ~0x80000 // Bit 19
115: 0x0F0D [0x2F] Nantoto (ID: 17780988/0x010F50FC)->Render.Flags0 &= ~0x80000 // Bit 19
116: 0x0F13 [0x59] UPDATE_ENTITY_DATA: Rolandienne (ID: 17780984/0x010F50F8)->Render.Flags0 |= 0x200000
117: 0x0F1A [0x59] UPDATE_ENTITY_DATA: Isakoth (ID: 17780985/0x010F50F9)->Render.Flags0 |= 0x200000
118: 0x0F21 [0x59] UPDATE_ENTITY_DATA: Fhelm Jobeizat (ID: 17780986/0x010F50FA)->Render.Flags0 |= 0x200000
119: 0x0F28 [0x59] UPDATE_ENTITY_DATA: Eternal Flame (ID: 17780987/0x010F50FB)->Render.Flags0 |= 0x200000
120: 0x0F2F [0x59] UPDATE_ENTITY_DATA: Nantoto (ID: 17780988/0x010F50FC)->Render.Flags0 |= 0x200000
121: 0x0F36 [0x92] Rolandienne (ID: 17780984/0x010F50F8)->Render.Flags3 ^= 0x01
122: 0x0F3C [0x92] Isakoth (ID: 17780985/0x010F50F9)->Render.Flags3 ^= 0x01
123: 0x0F42 [0x92] Fhelm Jobeizat (ID: 17780986/0x010F50FA)->Render.Flags3 ^= 0x01
124: 0x0F48 [0x92] Eternal Flame (ID: 17780987/0x010F50FB)->Render.Flags3 ^= 0x01
125: 0x0F4E [0x92] Nantoto (ID: 17780988/0x010F50FC)->Render.Flags3 ^= 0x01
126: 0x0F54 [0x94] Rolandienne (ID: 17780984/0x010F50F8)->Render.Flags3 ^= 0x01
127: 0x0F5A [0x94] Isakoth (ID: 17780985/0x010F50F9)->Render.Flags3 ^= 0x01
128: 0x0F60 [0x94] Fhelm Jobeizat (ID: 17780986/0x010F50FA)->Render.Flags3 ^= 0x01
129: 0x0F66 [0x94] Eternal Flame (ID: 17780987/0x010F50FB)->Render.Flags3 ^= 0x01
130: 0x0F6C [0x94] Nantoto (ID: 17780988/0x010F50FC)->Render.Flags3 ^= 0x01
131: 0x0F72 [0xBA] SET_ENTITY_POSITION(entity_id=Rolandienne (ID: 17780984/0x010F50F8), pos_x=-30.897*, pos_z=-49.596*, pos_y=0.000*, direction=174.9°*)
132: 0x0F7F [0xBA] SET_ENTITY_POSITION(entity_id=Isakoth (ID: 17780985/0x010F50F9), pos_x=-28.316*, pos_z=-50.517*, pos_y=0.000*, direction=150.7°*)
133: 0x0F8C [0xBA] SET_ENTITY_POSITION(entity_id=Fhelm Jobeizat (ID: 17780986/0x010F50FA), pos_x=-31.891*, pos_z=-51.774*, pos_y=0.000*, direction=348.1°*)
134: 0x0F99 [0xBA] SET_ENTITY_POSITION(entity_id=Eternal Flame (ID: 17780987/0x010F50FB), pos_x=-28.983*, pos_z=-48.774*, pos_y=0.000*, direction=110.5°*)
135: 0x0FA6 [0xBA] SET_ENTITY_POSITION(entity_id=Nantoto (ID: 17780988/0x010F50FC), pos_x=-29.535*, pos_z=-52.690*, pos_y=0.000*, direction=256.7°*)
136: 0x0FB3 [0x4E] SET_ENTITY_HIDE_FLAG: Hide LocalPlayer
137: 0x0FB9 [0x4E] SET_ENTITY_HIDE_FLAG: Hide Nantoto (ID: 17780982/0x010F50F6)
138: 0x0FBF [0x80] LOAD_WAIT(entity=LocalPlayer)
139: 0x0FC4 [0x80] LOAD_WAIT(entity=Nantoto (ID: 17780982/0x010F50F6))
140: 0x0FC9 [0x4A] Fhelm Jobeizat (ID: 17780986/0x010F50FA) looks at Nantoto (ID: 17780988/0x010F50FC)
141: 0x0FD2 [0x4A] Rolandienne (ID: 17780984/0x010F50F8) looks at Nantoto (ID: 17780988/0x010F50FC)
142: 0x0FDB [0x4A] Isakoth (ID: 17780985/0x010F50F9) looks at Nantoto (ID: 17780988/0x010F50FC)
143: 0x0FE4 [0x4A] Eternal Flame (ID: 17780987/0x010F50FB) looks at Nantoto (ID: 17780988/0x010F50FC)
144: 0x0FED [0x79] Nantoto (ID: 17780988/0x010F50FC) looks at Fhelm Jobeizat (ID: 17780986/0x010F50FA) (Basic look)
145: 0x0FF7 [0x5C] MUSIC_CONTROL: Set Idle (Day) music to song 124*
146: 0x0FFB [0x5C] MUSIC_CONTROL: Set Idle (Night) music to song 124*
147: 0x0FFF [0x9A] WAIT_MUSIC_SERVER()
148: 0x1000 [0x1C] WAIT(30* ticks)
149: 0x1003 [0x45] LOAD_SCHEDULED_TASK: Load scheduler "s157" with entities [EventEntity, EventEntity], work=[627*, 0*]
150: 0x1014 [0x1A] CALL_SUBROUTINE(address=0x01D8)
151: 0x1017 [0x1A] CALL_SUBROUTINE(address=0x0085)
152: 0x101A [0x1C] WAIT(15* ticks)
153: 0x101D [0x6E] Fhelm Jobeizat (ID: 17780986/0x010F50FA) uses emote 10*
154: 0x1024 [0x99] Wait for Fhelm Jobeizat (ID: 17780986/0x010F50FA) animation to complete
155: 0x1029 [0x2B] Fhelm Jobeizat (ID: 17780986/0x010F50FA) [10695*]:
    → "Beam me up, Toto!"
156: 0x1030 [0x23] WAIT_FOR_DIALOG_INTERACTION
157: 0x1031 [0x52] END_LOAD_SCHEDULER: End scheduler "s157" with entities [EventEntity, EventEntity], work=627*
158: 0x1040 [0x45] LOAD_SCHEDULED_TASK: Load scheduler "s158" with entities [EventEntity, EventEntity], work=[627*, 0*]
159: 0x1051 [0x66] LOAD_EXT_SCHEDULER_MAIN: Load scheduler "msu0" with entities [Nantoto (ID: 17780988/0x010F50FC), Nantoto (ID: 17780988/0x010F50FC)], work=42*
160: 0x1060 [0x2B] Nantoto (ID: 17780988/0x010F50FC) [10696*]:
    → "How many times have I told-wold you to stop calling me that!?"
161: 0x1067 [0x23] WAIT_FOR_DIALOG_INTERACTION
162: 0x1068 [0x66] LOAD_EXT_SCHEDULER_MAIN: Load scheduler "msu1" with entities [Nantoto (ID: 17780988/0x010F50FC), Nantoto (ID: 17780988/0x010F50FC)], work=42*
