# 17780748 - Yin Pocanakhu

## Common Data

| Field            | Value                 |
|------------------|-----------------------|
| Zone             | Lower Jeuno (ID: 245) |
| Block Size       | 3736 bytes            |
| Total Events     | 128                   |
| References Count | 138                   |

## List of Events

| Event ID                     | Entrypoint   |   Size |   Instructions |
|------------------------------|--------------|--------|----------------|
| [65535](#event-65535)        | 0x0000       |      1 |              1 |
| [179](#event-179)            | 0x0001       |     60 |             10 |
| [177](#event-177)            | 0x003D       |     60 |             10 |
| [178](#event-178)            | 0x0079       |     60 |             10 |
| [176](#event-176)            | 0x00B5       |     64 |             12 |
| [175](#event-175)            | 0x00F5       |     85 |             19 |
| [20](#event-20)              | 0x014A       |     20 |              3 |
| [65535.1](#event-655351)     | 0x015E       |     31 |              9 |
| [65535.2](#event-655352)     | 0x017D       |      9 |              3 |
| [209](#event-209)            | 0x0186       |     68 |             14 |
| [210](#event-210)            | 0x01CA       |     64 |             12 |
| [219](#event-219)            | 0x020A       |     60 |             10 |
| [218](#event-218)            | 0x0246       |     60 |             10 |
| [220](#event-220)            | 0x0282       |    111 |             30 |
| [221](#event-221)            | 0x02F1       |     43 |              9 |
| [65535.3](#event-655353)     | 0x031C       |     29 |              3 |
| [65535.4](#event-655354)     | 0x0339       |     29 |              3 |
| [10060](#event-10060)        | 0x0356       |     81 |             17 |
| [10062](#event-10062)        | 0x03A7       |      1 |              1 |
| [10063](#event-10063)        | 0x03A8       |      1 |              1 |
| [10064](#event-10064)        | 0x03A9       |      1 |              1 |
| [10065](#event-10065)        | 0x03AA       |      1 |              1 |
| [10066](#event-10066)        | 0x03AB       |      1 |              1 |
| [10067](#event-10067)        | 0x03AC       |      1 |              1 |
| [10068](#event-10068)        | 0x03AD       |      1 |              1 |
| [10069](#event-10069)        | 0x03AE       |      1 |              1 |
| [10070](#event-10070)        | 0x03AF       |      1 |              1 |
| [10071](#event-10071)        | 0x03B0       |      1 |              1 |
| [10072](#event-10072)        | 0x03B1       |      2 |              2 |
| [10094](#event-10094)        | 0x03B3       |      5 |              3 |
| [65535.5](#event-655355)     | 0x03B8       |     20 |              5 |
| [65535.6](#event-655356)     | 0x03CC       |     20 |              5 |
| [65535.7](#event-655357)     | 0x03E0       |     20 |              5 |
| [65535.8](#event-655358)     | 0x03F4       |     17 |              3 |
| [65535.9](#event-655359)     | 0x0405       |     20 |              5 |
| [65535.10](#event-6553510)   | 0x0419       |     20 |              5 |
| [65535.11](#event-6553511)   | 0x042D       |     19 |              4 |
| [65535.12](#event-6553512)   | 0x0440       |     19 |              4 |
| [65535.13](#event-6553513)   | 0x0453       |     16 |              2 |
| [65535.14](#event-6553514)   | 0x0463       |     16 |              2 |
| [65535.15](#event-6553515)   | 0x0473       |     20 |              5 |
| [65535.16](#event-6553516)   | 0x0487       |     16 |              2 |
| [65535.17](#event-6553517)   | 0x0497       |     16 |              2 |
| [65535.18](#event-6553518)   | 0x04A7       |     16 |              2 |
| [65535.19](#event-6553519)   | 0x04B7       |     21 |              6 |
| [65535.20](#event-6553520)   | 0x04CC       |     16 |              2 |
| [65535.21](#event-6553521)   | 0x04DC       |     16 |              2 |
| [65535.22](#event-6553522)   | 0x04EC       |     20 |              5 |
| [65535.23](#event-6553523)   | 0x0500       |     17 |              3 |
| [65535.24](#event-6553524)   | 0x0511       |     20 |              5 |
| [65535.25](#event-6553525)   | 0x0525       |     16 |              2 |
| [65535.26](#event-6553526)   | 0x0535       |     16 |              2 |
| [65535.27](#event-6553527)   | 0x0545       |     16 |              2 |
| [65535.28](#event-6553528)   | 0x0555       |     16 |              2 |
| [65535.29](#event-6553529)   | 0x0565       |     16 |              2 |
| [65535.30](#event-6553530)   | 0x0575       |     16 |              2 |
| [65535.31](#event-6553531)   | 0x0585       |     16 |              2 |
| [65535.32](#event-6553532)   | 0x0595       |     12 |              4 |
| [65535.33](#event-6553533)   | 0x05A1       |     20 |              5 |
| [65535.34](#event-6553534)   | 0x05B5       |     17 |              3 |
| [65535.35](#event-6553535)   | 0x05C6       |     17 |              3 |
| [65535.36](#event-6553536)   | 0x05D7       |     16 |              2 |
| [65535.37](#event-6553537)   | 0x05E7       |     16 |              2 |
| [65535.38](#event-6553538)   | 0x05F7       |     16 |              2 |
| [65535.39](#event-6553539)   | 0x0607       |     16 |              2 |
| [65535.40](#event-6553540)   | 0x0617       |     16 |              2 |
| [65535.41](#event-6553541)   | 0x0627       |     16 |              2 |
| [65535.42](#event-6553542)   | 0x0637       |     13 |              5 |
| [65535.43](#event-6553543)   | 0x0644       |     20 |              5 |
| [65535.44](#event-6553544)   | 0x0658       |     12 |              4 |
| [65535.45](#event-6553545)   | 0x0664       |     16 |              2 |
| [65535.46](#event-6553546)   | 0x0674       |     16 |              2 |
| [65535.47](#event-6553547)   | 0x0684       |     16 |              2 |
| [65535.48](#event-6553548)   | 0x0694       |     20 |              5 |
| [65535.49](#event-6553549)   | 0x06A8       |     29 |              6 |
| [65535.50](#event-6553550)   | 0x06C5       |     17 |              3 |
| [65535.51](#event-6553551)   | 0x06D6       |     20 |              5 |
| [65535.52](#event-6553552)   | 0x06EA       |     20 |              5 |
| [65535.53](#event-6553553)   | 0x06FE       |     20 |              5 |
| [65535.54](#event-6553554)   | 0x0712       |     20 |              5 |
| [65535.55](#event-6553555)   | 0x0726       |     20 |              5 |
| [65535.56](#event-6553556)   | 0x073A       |     16 |              2 |
| [65535.57](#event-6553557)   | 0x074A       |     16 |              2 |
| [65535.58](#event-6553558)   | 0x075A       |     20 |              5 |
| [65535.59](#event-6553559)   | 0x076E       |     16 |              2 |
| [65535.60](#event-6553560)   | 0x077E       |     16 |              2 |
| [65535.61](#event-6553561)   | 0x078E       |     16 |              2 |
| [65535.62](#event-6553562)   | 0x079E       |     16 |              2 |
| [65535.63](#event-6553563)   | 0x07AE       |     21 |              6 |
| [65535.64](#event-6553564)   | 0x07C3       |     20 |              5 |
| [65535.65](#event-6553565)   | 0x07D7       |     20 |              5 |
| [65535.66](#event-6553566)   | 0x07EB       |     17 |              3 |
| [65535.67](#event-6553567)   | 0x07FC       |     20 |              5 |
| [65535.68](#event-6553568)   | 0x0810       |     20 |              5 |
| [65535.69](#event-6553569)   | 0x0824       |     16 |              2 |
| [65535.70](#event-6553570)   | 0x0834       |     16 |              2 |
| [65535.71](#event-6553571)   | 0x0844       |     21 |              6 |
| [65535.72](#event-6553572)   | 0x0859       |     20 |              5 |
| [65535.73](#event-6553573)   | 0x086D       |     20 |              5 |
| [65535.74](#event-6553574)   | 0x0881       |     16 |              2 |
| [65535.75](#event-6553575)   | 0x0891       |     20 |              5 |
| [65535.76](#event-6553576)   | 0x08A5       |     21 |              6 |
| [65535.77](#event-6553577)   | 0x08BA       |     20 |              5 |
| [65535.78](#event-6553578)   | 0x08CE       |     12 |              4 |
| [65535.79](#event-6553579)   | 0x08DA       |     16 |              2 |
| [65535.80](#event-6553580)   | 0x08EA       |     16 |              2 |
| [65535.81](#event-6553581)   | 0x08FA       |     20 |              5 |
| [65535.82](#event-6553582)   | 0x090E       |     20 |              5 |
| [65535.83](#event-6553583)   | 0x0922       |     17 |              3 |
| [65535.84](#event-6553584)   | 0x0933       |     16 |              2 |
| [65535.85](#event-6553585)   | 0x0943       |     16 |              2 |
| [65535.86](#event-6553586)   | 0x0953       |     16 |              2 |
| [65535.87](#event-6553587)   | 0x0963       |     16 |              2 |
| [65535.88](#event-6553588)   | 0x0973       |     17 |              3 |
| [65535.89](#event-6553589)   | 0x0984       |     20 |              5 |
| [65535.90](#event-6553590)   | 0x0998       |     12 |              4 |
| [65535.91](#event-6553591)   | 0x09A4       |     16 |              2 |
| [65535.92](#event-6553592)   | 0x09B4       |     16 |              2 |
| [65535.93](#event-6553593)   | 0x09C4       |     16 |              2 |
| [65535.94](#event-6553594)   | 0x09D4       |     16 |              2 |
| [65535.95](#event-6553595)   | 0x09E4       |     16 |              2 |
| [65535.96](#event-6553596)   | 0x09F4       |     16 |              2 |
| [65535.97](#event-6553597)   | 0x0A04       |     16 |              2 |
| [65535.98](#event-6553598)   | 0x0A14       |     20 |              5 |
| [65535.99](#event-6553599)   | 0x0A28       |     20 |              5 |
| [65535.100](#event-65535100) | 0x0A3C       |     16 |              2 |
| [65535.101](#event-65535101) | 0x0A4C       |     16 |              2 |
| [10125](#event-10125)        | 0x0A5C       |      1 |              1 |

## DAT References (imed_data)

|   Index | Hex Value   |   Dec Value |
|---------|-------------|-------------|
|       0 | 0x0032      |          50 |
|       1 | 0x1E10      |        7696 |
|       2 | 0x1E11      |        7697 |
|       3 | 0x1E12      |        7698 |
|       4 | 0x1E13      |        7699 |
|       5 | 0x1E14      |        7700 |
|       6 | 0x1E15      |        7701 |
|       7 | 0x1E16      |        7702 |
|       8 | 0x0800      |        2048 |
|       9 | 0x1E17      |        7703 |
|      10 | 0x7EAE      |       32430 |
|      11 | 0xFFFF5A3C  |  4294924860 |
|      12 | 0x0F3B      |        3899 |
|      13 | 0x03F4      |        1012 |
|      14 | 0x000F      |          15 |
|      15 | 0x002D      |          45 |
|      16 | 0x0028      |          40 |
|      17 | 0x812A      |       33066 |
|      18 | 0xFFFF5FEA  |  4294926314 |
|      19 | 0x0050      |          80 |
|      20 | 0x1E07      |        7687 |
|      21 | 0x1E08      |        7688 |
|      22 | 0x1E09      |        7689 |
|      23 | 0x1E0A      |        7690 |
|      24 | 0x1E0B      |        7691 |
|      25 | 0x1E0C      |        7692 |
|      26 | 0x1E0D      |        7693 |
|      27 | 0x03E8      |        1000 |
|      28 | 0x1F49      |        8009 |
|      29 | 0x1F4A      |        8010 |
|      30 | 0x1F4B      |        8011 |
|      31 | 0x1F4C      |        8012 |
|      32 | 0x0001      |           1 |
|      33 | 0x0000      |           0 |
|      34 | 0x1F4E      |        8014 |
|      35 | 0x1F4F      |        8015 |
|      36 | 0x1F4D      |        8013 |
|      37 | 0x1F50      |        8016 |
|      38 | 0x2529      |        9513 |
|      39 | 0x252A      |        9514 |
|      40 | 0x000C      |          12 |
|      41 | 0xFFFED6C4  |  4294891204 |
|      42 | 0xFFFDEB5B  |  4294830939 |
|      43 | 0x000B      |          11 |
|      44 | 0xFFFE8B97  |  4294871959 |
|      45 | 0xFFFD9E68  |  4294811240 |
|      46 | 0xFFFF0D87  |  4294905223 |
|      47 | 0xFFFEA0EF  |  4294877423 |
|      48 | 0x176F      |        5999 |
|      49 | 0x0A3A      |        2618 |
|      50 | 0xFFFEB818  |  4294883352 |
|      51 | 0xFFFE098F  |  4294838671 |
|      52 | 0xFFFEF410  |  4294898704 |
|      53 | 0xFFFE85B9  |  4294870457 |
|      54 | 0xFFFEEC91  |  4294896785 |
|      55 | 0xFFFE6EA2  |  4294864546 |
|      56 | 0x0A2A      |        2602 |
|      57 | 0xFFFEE552  |  4294894930 |
|      58 | 0xFFFE3269  |  4294849129 |
|      59 | 0x0A39      |        2617 |
|      60 | 0x0045      |          69 |
|      61 | 0xFFFF2160  |  4294910304 |
|      62 | 0xFFFEA80E  |  4294879246 |
|      63 | 0x0A3D      |        2621 |
|      64 | 0x0A43      |        2627 |
|      65 | 0x004B      |          75 |
|      66 | 0xFFFFB20E  |  4294947342 |
|      67 | 0xFFFFAE2A  |  4294946346 |
|      68 | 0xFFFEDC35  |  4294892597 |
|      69 | 0xFFFE5D95  |  4294860181 |
|      70 | 0x0A47      |        2631 |
|      71 | 0x0055      |          85 |
|      72 | 0xFFFFB26F  |  4294947439 |
|      73 | 0xFFFFAB30  |  4294945584 |
|      74 | 0x000E      |          14 |
|      75 | 0xFFFF6C7D  |  4294929533 |
|      76 | 0xFFFF0AA4  |  4294904484 |
|      77 | 0xFFFFCBCA  |  4294953930 |
|      78 | 0x09E0      |        2528 |
|      79 | 0xFFFFFE3F  |  4294966847 |
|      80 | 0x0029      |          41 |
|      81 | 0xFFFEEA26  |  4294896166 |
|      82 | 0xFFFE4F39  |  4294856505 |
|      83 | 0xFFFED8EC  |  4294891756 |
|      84 | 0xFFFE38BF  |  4294850751 |
|      85 | 0xFFFEC5BC  |  4294886844 |
|      86 | 0xFFFE1640  |  4294841920 |
|      87 | 0x03E7      |         999 |
|      88 | 0x0A33      |        2611 |
|      89 | 0x000D      |          13 |
|      90 | 0xFFFF04E1  |  4294903009 |
|      91 | 0xFFFE7108  |  4294865160 |
|      92 | 0x108C      |        4236 |
|      93 | 0x10F0      |        4336 |
|      94 | 0xFFFFC3F0  |  4294951920 |
|      95 | 0xFFFFA321  |  4294943521 |
|      96 | 0xFFFFFF9B  |  4294967195 |
|      97 | 0x000A      |          10 |
|      98 | 0x0A18      |        2584 |
|      99 | 0xFFFFFC21  |  4294966305 |
|     100 | 0x084B      |        2123 |
|     101 | 0x0008      |           8 |
|     102 | 0x0033      |          51 |
|     103 | 0xFFFF0DFA  |  4294905338 |
|     104 | 0xFFFE6C9D  |  4294864029 |
|     105 | 0xFFFEFBE3  |  4294900707 |
|     106 | 0xFFFE9775  |  4294874997 |
|     107 | 0xFFFF19CD  |  4294908365 |
|     108 | 0xFFFEAC62  |  4294880354 |
|     109 | 0xFFFECE8B  |  4294889099 |
|     110 | 0xFFFE3998  |  4294850968 |
|     111 | 0x0F9F      |        3999 |
|     112 | 0x0A17      |        2583 |
|     113 | 0xFFFFD965  |  4294957413 |
|     114 | 0xFFFFD99E  |  4294957470 |
|     115 | 0x0009      |           9 |
|     116 | 0xFFFEE68C  |  4294895244 |
|     117 | 0xFFFE6FBD  |  4294864829 |
|     118 | 0xFFFFE923  |  4294961443 |
|     119 | 0xFFFFEBBA  |  4294962106 |
|     120 | 0xFFFF4F66  |  4294922086 |
|     121 | 0xFFFEA394  |  4294878100 |
|     122 | 0xFFFFE891  |  4294961297 |
|     123 | 0xFFFFB859  |  4294948953 |
|     124 | 0xFFFFDFA2  |  4294959010 |
|     125 | 0xFFFFB9ED  |  4294949357 |
|     126 | 0xFFFFBF3D  |  4294950717 |
|     127 | 0xFFFFF407  |  4294964231 |
|     128 | 0xFFFFE105  |  4294959365 |
|     129 | 0x003C      |          60 |
|     130 | 0x0A40      |        2624 |
|     131 | 0xFFFF6A1D  |  4294928925 |
|     132 | 0xFFFEF858  |  4294899800 |
|     133 | 0xFFFFEA43  |  4294961731 |
|     134 | 0xFFFFF8F4  |  4294965492 |
|     135 | 0x0002      |           2 |
|     136 | 0xFFFFF533  |  4294964531 |
|     137 | 0x13C3      |        5059 |

## String References

- **7687**: Watch your back. Our boss, Aldo, is a rrreal pirate. I can be quite a scoundrel, too, but I ain't nothing compared to him.
- **7688**: You follow me, [mister/lady]? Whenever Aldo's deep in thought, it's best to just look the other way.
- **7689**: After all, he's seen hell with those eyes. Of course, lots of people suffered in the wars twenty years ago, but most of them never came back.
- **7690**: Somehow Verena seems different than the other girls. Some folks say she can rrread animals' minds.
- **7691**: She's a fine chocobo rrrider, and unlike my boss, she gets along fine with those beastmen. Those two always fight about that.
- **7692**: Hey, you made it through! Thanks for the package. Now, go back and get paid.
- **7693**: Hey, you made it through! But look at this junk. It's trash! Next time go easier on the goods, okay?
- **7696**: Hey, did you hear? Verena is missing and our boss is in a mess over it. If you ask me, I think they just had another one of their sibling quarrels.
- **7697**: The other day when Lion came, she was in and out of here like a white rrrabbit on a full moon. I wonder what she could be up to?
- **7698**: Verena was at Delkfutt's Tower!? And I thought that she and the boss had just had a fight... Boy, am I an idiot!
- **7699**: Boss is talking about setting off on some adventure. You're going too, aren't you? It must be something rrreally big if they didn't ask me to come along.
- **7700**: I can't do much for you, but good luck out there. Wouldn't want to see you lose any of your nine lives.
- **7701**: Welcome back. From the looks of it, you had a pretty tough time out there... But that's about all I know. Boss never tells us about anything that goes on...
- **7702**: But as long as you are okay... Ahem! Don't be a stranger, <Player>!
- **7703**: If only Lion were okay, as well...
- **8009**: What? A toolbox that won't open? Oh, yeah... A long time ago I took a strange box from one of Brugaire's warehouses.
- **8010**: The box was old and filthy, but I couldn't wait to pry it open and see the treasure inside. But it simply wouldn't open!
- **8011**: Wait, are you looking for that box? Hmm... I'll sell it to you for $0 gil.
- **8012**: Well? [Fine, I'll take it./No, thanks.]
- **8013**: Oh, yeah? Well, I'm not telling you where it is, then!
- **8014**: That's the spirit, my fine customer!
- **8015**: I left the toolbox on top of a crate outside the Duty-Free shop in Port Jeuno. Till just now I had completely forgotten it!
- **8016**: Look, the toolbox is on top of a crate outside of Port Jeuno's Duty-Free shop. Go ahead and take it.
- **9513**: Are you telling me that Lion's back? Where the hell has she been? She's lucky I don't give her what for.
- **9514**: Lion... She really had us worried!

## Events

### Event 65535

#### Metadata

| Field        | Value   |
|--------------|---------|
| Entrypoint   | 0x0000  |
| Data Size    | 1 bytes |
| Instructions | 1       |

```
      00 01 02 03 04 05 06 07  08 09 0A 0B 0C 0D 0E 0F
      -- -- -- -- -- -- -- --  -- -- -- -- -- -- -- --
0000: 00                                                .               
```

#### Opcodes

```
  0: 0x0000 [0x00] END_REQSTACK()
```

### Event 179

#### Metadata

| Field        | Value    |
|--------------|----------|
| Entrypoint   | 0x0001   |
| Data Size    | 60 bytes |
| Instructions | 10       |

```
      00 01 02 03 04 05 06 07  08 09 0A 0B 0C 0D 0E 0F
      -- -- -- -- -- -- -- --  -- -- -- -- -- -- -- --
0000:    1E F0 FF FF 7F 6F 76  F8 FF FF 7F 66 00 80 F8   .....ov....f...
0010: FF FF 7F F8 FF FF 7F 74  6C 6B 30 1D 01 80 23 66  .......tlk0...#f
0020: 00 80 F8 FF FF 7F F8 FF  FF 7F 74 6C 6B 32 53 F8  ..........tlk2S.
0030: FF FF 7F F8 FF FF 7F 74  6C 6B 32 21 00           .......tlk2!.   
```

#### Opcodes

```
  0: 0x0001 [0x1E] EventEntity looks at LocalPlayer and starts talking
  1: 0x0006 [0x6F] WAIT_FRAME_DELAY: Yield until WaitTime reaches zero
  2: 0x0007 [0x76] CHECK_ENTITY_RENDER_FLAGS: Wait until EventEntity Render.Flags0 and Render.Flags3 conditions are met
  3: 0x000C [0x66] LOAD_EXT_SCHEDULER_MAIN: Load scheduler "tlk0" with entities [EventEntity, EventEntity], work=50*
  4: 0x001B [0x1D] PRINT_EVENT_MESSAGE(message_id=7696*)
    → "Hey, did you hear? Verena is missing and our boss is in a mess over it. If you ask me, I think they just had another one of their sibling quarrels."
  5: 0x001E [0x23] WAIT_FOR_DIALOG_INTERACTION
  6: 0x001F [0x66] LOAD_EXT_SCHEDULER_MAIN: Load scheduler "tlk2" with entities [EventEntity, EventEntity], work=50*
  7: 0x002E [0x53] WAIT_SCHEDULER_TASK: Wait for scheduler "tlk2" with entities [EventEntity, EventEntity]
  8: 0x003B [0x21] END_EVENT
  9: 0x003C [0x00] END_REQSTACK()
```

### Event 177

#### Metadata

| Field        | Value    |
|--------------|----------|
| Entrypoint   | 0x003D   |
| Data Size    | 60 bytes |
| Instructions | 10       |

```
      00 01 02 03 04 05 06 07  08 09 0A 0B 0C 0D 0E 0F
      -- -- -- -- -- -- -- --  -- -- -- -- -- -- -- --
0030:                                         1E F0 FF               ...
0040: FF 7F 6F 76 F8 FF FF 7F  66 00 80 F8 FF FF 7F F8  ..ov....f.......
0050: FF FF 7F 74 6C 6B 30 1D  02 80 23 66 00 80 F8 FF  ...tlk0...#f....
0060: FF 7F F8 FF FF 7F 74 6C  6B 32 53 F8 FF FF 7F F8  ......tlk2S.....
0070: FF FF 7F 74 6C 6B 32 21  00                       ...tlk2!.       
```

#### Opcodes

```
  0: 0x003D [0x1E] EventEntity looks at LocalPlayer and starts talking
  1: 0x0042 [0x6F] WAIT_FRAME_DELAY: Yield until WaitTime reaches zero
  2: 0x0043 [0x76] CHECK_ENTITY_RENDER_FLAGS: Wait until EventEntity Render.Flags0 and Render.Flags3 conditions are met
  3: 0x0048 [0x66] LOAD_EXT_SCHEDULER_MAIN: Load scheduler "tlk0" with entities [EventEntity, EventEntity], work=50*
  4: 0x0057 [0x1D] PRINT_EVENT_MESSAGE(message_id=7697*)
    → "The other day when Lion came, she was in and out of here like a white rrrabbit on a full moon. I wonder what she could be up to?"
  5: 0x005A [0x23] WAIT_FOR_DIALOG_INTERACTION
  6: 0x005B [0x66] LOAD_EXT_SCHEDULER_MAIN: Load scheduler "tlk2" with entities [EventEntity, EventEntity], work=50*
  7: 0x006A [0x53] WAIT_SCHEDULER_TASK: Wait for scheduler "tlk2" with entities [EventEntity, EventEntity]
  8: 0x0077 [0x21] END_EVENT
  9: 0x0078 [0x00] END_REQSTACK()
```

### Event 178

#### Metadata

| Field        | Value    |
|--------------|----------|
| Entrypoint   | 0x0079   |
| Data Size    | 60 bytes |
| Instructions | 10       |

```
      00 01 02 03 04 05 06 07  08 09 0A 0B 0C 0D 0E 0F
      -- -- -- -- -- -- -- --  -- -- -- -- -- -- -- --
0070:                             1E F0 FF FF 7F 6F 76           .....ov
0080: F8 FF FF 7F 66 00 80 F8  FF FF 7F F8 FF FF 7F 74  ....f..........t
0090: 6C 6B 30 1D 03 80 23 66  00 80 F8 FF FF 7F F8 FF  lk0...#f........
00A0: FF 7F 74 6C 6B 32 53 F8  FF FF 7F F8 FF FF 7F 74  ..tlk2S........t
00B0: 6C 6B 32 21 00                                    lk2!.           
```

#### Opcodes

```
  0: 0x0079 [0x1E] EventEntity looks at LocalPlayer and starts talking
  1: 0x007E [0x6F] WAIT_FRAME_DELAY: Yield until WaitTime reaches zero
  2: 0x007F [0x76] CHECK_ENTITY_RENDER_FLAGS: Wait until EventEntity Render.Flags0 and Render.Flags3 conditions are met
  3: 0x0084 [0x66] LOAD_EXT_SCHEDULER_MAIN: Load scheduler "tlk0" with entities [EventEntity, EventEntity], work=50*
  4: 0x0093 [0x1D] PRINT_EVENT_MESSAGE(message_id=7698*)
    → "Verena was at Delkfutt's Tower!? And I thought that she and the boss had just had a fight... Boy, am I an idiot!"
  5: 0x0096 [0x23] WAIT_FOR_DIALOG_INTERACTION
  6: 0x0097 [0x66] LOAD_EXT_SCHEDULER_MAIN: Load scheduler "tlk2" with entities [EventEntity, EventEntity], work=50*
  7: 0x00A6 [0x53] WAIT_SCHEDULER_TASK: Wait for scheduler "tlk2" with entities [EventEntity, EventEntity]
  8: 0x00B3 [0x21] END_EVENT
  9: 0x00B4 [0x00] END_REQSTACK()
```

### Event 176

#### Metadata

| Field        | Value    |
|--------------|----------|
| Entrypoint   | 0x00B5   |
| Data Size    | 64 bytes |
| Instructions | 12       |

```
      00 01 02 03 04 05 06 07  08 09 0A 0B 0C 0D 0E 0F
      -- -- -- -- -- -- -- --  -- -- -- -- -- -- -- --
00B0:                1E F0 FF  FF 7F 6F 76 F8 FF FF 7F       .....ov....
00C0: 66 00 80 F8 FF FF 7F F8  FF FF 7F 74 6C 6B 30 1D  f..........tlk0.
00D0: 04 80 23 1D 05 80 23 66  00 80 F8 FF FF 7F F8 FF  ..#...#f........
00E0: FF 7F 74 6C 6B 32 53 F8  FF FF 7F F8 FF FF 7F 74  ..tlk2S........t
00F0: 6C 6B 32 21 00                                    lk2!.           
```

#### Opcodes

```
  0: 0x00B5 [0x1E] EventEntity looks at LocalPlayer and starts talking
  1: 0x00BA [0x6F] WAIT_FRAME_DELAY: Yield until WaitTime reaches zero
  2: 0x00BB [0x76] CHECK_ENTITY_RENDER_FLAGS: Wait until EventEntity Render.Flags0 and Render.Flags3 conditions are met
  3: 0x00C0 [0x66] LOAD_EXT_SCHEDULER_MAIN: Load scheduler "tlk0" with entities [EventEntity, EventEntity], work=50*
  4: 0x00CF [0x1D] PRINT_EVENT_MESSAGE(message_id=7699*)
    → "Boss is talking about setting off on some adventure. You're going too, aren't you? It must be something rrreally big if they didn't ask me to come along."
  5: 0x00D2 [0x23] WAIT_FOR_DIALOG_INTERACTION
  6: 0x00D3 [0x1D] PRINT_EVENT_MESSAGE(message_id=7700*)
    → "I can't do much for you, but good luck out there. Wouldn't want to see you lose any of your nine lives."
  7: 0x00D6 [0x23] WAIT_FOR_DIALOG_INTERACTION
  8: 0x00D7 [0x66] LOAD_EXT_SCHEDULER_MAIN: Load scheduler "tlk2" with entities [EventEntity, EventEntity], work=50*
  9: 0x00E6 [0x53] WAIT_SCHEDULER_TASK: Wait for scheduler "tlk2" with entities [EventEntity, EventEntity]
 10: 0x00F3 [0x21] END_EVENT
 11: 0x00F4 [0x00] END_REQSTACK()
```

### Event 175

#### Metadata

| Field        | Value    |
|--------------|----------|
| Entrypoint   | 0x00F5   |
| Data Size    | 85 bytes |
| Instructions | 19       |

```
      00 01 02 03 04 05 06 07  08 09 0A 0B 0C 0D 0E 0F
      -- -- -- -- -- -- -- --  -- -- -- -- -- -- -- --
00F0:                1E F0 FF  FF 7F 6F 76 F8 FF FF 7F       .....ov....
0100: 66 00 80 F8 FF FF 7F F8  FF FF 7F 74 6C 6B 30 1D  f..........tlk0.
0110: 06 80 23 1D 07 80 23 66  00 80 F8 FF FF 7F F8 FF  ..#...#f........
0120: FF 7F 74 6C 6B 32 53 F8  FF FF 7F F8 FF FF 7F 74  ..tlk2S........t
0130: 6C 6B 32 3A F8 FF FF 7F  00 00 07 00 00 08 80 39  lk2:...........9
0140: 00 00 6F 70 1D 09 80 23  21 00                    ..op...#!.      
```

#### Opcodes

```
  0: 0x00F5 [0x1E] EventEntity looks at LocalPlayer and starts talking
  1: 0x00FA [0x6F] WAIT_FRAME_DELAY: Yield until WaitTime reaches zero
  2: 0x00FB [0x76] CHECK_ENTITY_RENDER_FLAGS: Wait until EventEntity Render.Flags0 and Render.Flags3 conditions are met
  3: 0x0100 [0x66] LOAD_EXT_SCHEDULER_MAIN: Load scheduler "tlk0" with entities [EventEntity, EventEntity], work=50*
  4: 0x010F [0x1D] PRINT_EVENT_MESSAGE(message_id=7701*)
    → "Welcome back. From the looks of it, you had a pretty tough time out there... But that's about all I know. Boss never tells us about anything that goes on..."
  5: 0x0112 [0x23] WAIT_FOR_DIALOG_INTERACTION
  6: 0x0113 [0x1D] PRINT_EVENT_MESSAGE(message_id=7702*)
    → "But as long as you are okay... Ahem! Don't be a stranger, <Player>!"
  7: 0x0116 [0x23] WAIT_FOR_DIALOG_INTERACTION
  8: 0x0117 [0x66] LOAD_EXT_SCHEDULER_MAIN: Load scheduler "tlk2" with entities [EventEntity, EventEntity], work=50*
  9: 0x0126 [0x53] WAIT_SCHEDULER_TASK: Wait for scheduler "tlk2" with entities [EventEntity, EventEntity]
 10: 0x0133 [0x3A] CONVERT_YAW_TO_BYTE(entity=EventEntity, result_destination=ExtData[1]->WorkLocal[0])
 11: 0x013A [0x07] ExtData[1]->WorkLocal[0] += 2048*
 12: 0x013F [0x39] SET_ENTITY_DIRECTION(direction=ExtData[1]->WorkLocal[0])
 13: 0x0142 [0x6F] WAIT_FRAME_DELAY: Yield until WaitTime reaches zero
 14: 0x0143 [0x70] WAIT_ENTITY_RENDER_FLAG: Wait while EventEntity->Render.Flags3 bit 2 is set (cancel turn if not)
 15: 0x0144 [0x1D] PRINT_EVENT_MESSAGE(message_id=7703*)
    → "If only Lion were okay, as well..."
 16: 0x0147 [0x23] WAIT_FOR_DIALOG_INTERACTION
 17: 0x0148 [0x21] END_EVENT
 18: 0x0149 [0x00] END_REQSTACK()
```

### Event 20

#### Metadata

| Field        | Value    |
|--------------|----------|
| Entrypoint   | 0x014A   |
| Data Size    | 20 bytes |
| Instructions | 3        |

```
      00 01 02 03 04 05 06 07  08 09 0A 0B 0C 0D 0E 0F
      -- -- -- -- -- -- -- --  -- -- -- -- -- -- -- --
0140:                                37 0A 80 0B 80 0C            7.....
0150: 80 0D 80 79 00 F8 FF FF  7F 0E 50 0F 01 00        ...y......P...  
```

#### Opcodes

```
  0: 0x014A [0x37] UPDATE_EVENT_POSITION_AND_DIR: x=32.430*, z=-42.436*, y=3.899*, direction=88.9°*
  1: 0x0153 [0x79] EventEntity looks at Sattal-Mansal (ID: 17780750/0x010F500E) (Basic look)
  2: 0x015D [0x00] END_REQSTACK()
```

### Event 65535.1

#### Metadata

| Field        | Value    |
|--------------|----------|
| Entrypoint   | 0x015E   |
| Data Size    | 31 bytes |
| Instructions | 9        |

```
      00 01 02 03 04 05 06 07  08 09 0A 0B 0C 0D 0E 0F
      -- -- -- -- -- -- -- --  -- -- -- -- -- -- -- --
0150:                                            1C 0E                ..
0160: 80 1E F0 FF FF 7F 1C 0F  80 32 10 80 1F 00 11 80  .........2......
0170: 12 80 0C 80 1F 01 6F 1E  F0 FF FF 7F 00           ......o......   
```

#### Opcodes

```
  0: 0x015E [0x1C] WAIT(15* ticks)
  1: 0x0161 [0x1E] EventEntity looks at LocalPlayer and starts talking
  2: 0x0166 [0x1C] WAIT(45* ticks)
  3: 0x0169 [0x32] ExtData[1]->MainSpeed = 40* * 0.1
  4: 0x016C [0x1F] MOVE_ENTITY: EventEntity moves to X=33.066*, Z=-40.982*, Y=3.899*
  5: 0x0174 [0x1F] MOVE_ENTITY: Update entity position (mode=1)
  6: 0x0176 [0x6F] WAIT_FRAME_DELAY: Yield until WaitTime reaches zero
  7: 0x0177 [0x1E] EventEntity looks at LocalPlayer and starts talking
  8: 0x017C [0x00] END_REQSTACK()
```

### Event 65535.2

#### Metadata

| Field        | Value   |
|--------------|---------|
| Entrypoint   | 0x017D  |
| Data Size    | 9 bytes |
| Instructions | 3       |

```
      00 01 02 03 04 05 06 07  08 09 0A 0B 0C 0D 0E 0F
      -- -- -- -- -- -- -- --  -- -- -- -- -- -- -- --
0170:                                         1C 13 80               ...
0180: 1E 07 50 0F 01 00                                 ..P...          
```

#### Opcodes

```
  0: 0x017D [0x1C] WAIT(80* ticks)
  1: 0x0180 [0x1E] EventEntity looks at Aldo (ID: 17780743/0x010F5007) and starts talking
  2: 0x0185 [0x00] END_REQSTACK()
```

### Event 209

#### Metadata

| Field        | Value    |
|--------------|----------|
| Entrypoint   | 0x0186   |
| Data Size    | 68 bytes |
| Instructions | 14       |

```
      00 01 02 03 04 05 06 07  08 09 0A 0B 0C 0D 0E 0F
      -- -- -- -- -- -- -- --  -- -- -- -- -- -- -- --
0180:                   1E F0  FF FF 7F 6F 76 F8 FF FF        .....ov...
0190: 7F 66 00 80 F8 FF FF 7F  F8 FF FF 7F 74 6C 6B 30  .f..........tlk0
01A0: 1D 14 80 23 1D 15 80 23  1D 16 80 23 66 00 80 F8  ...#...#...#f...
01B0: FF FF 7F F8 FF FF 7F 74  6C 6B 32 53 F8 FF FF 7F  .......tlk2S....
01C0: F8 FF FF 7F 74 6C 6B 32  21 00                    ....tlk2!.      
```

#### Opcodes

```
  0: 0x0186 [0x1E] EventEntity looks at LocalPlayer and starts talking
  1: 0x018B [0x6F] WAIT_FRAME_DELAY: Yield until WaitTime reaches zero
  2: 0x018C [0x76] CHECK_ENTITY_RENDER_FLAGS: Wait until EventEntity Render.Flags0 and Render.Flags3 conditions are met
  3: 0x0191 [0x66] LOAD_EXT_SCHEDULER_MAIN: Load scheduler "tlk0" with entities [EventEntity, EventEntity], work=50*
  4: 0x01A0 [0x1D] PRINT_EVENT_MESSAGE(message_id=7687*)
    → "Watch your back. Our boss, Aldo, is a rrreal pirate. I can be quite a scoundrel, too, but I ain't nothing compared to him."
  5: 0x01A3 [0x23] WAIT_FOR_DIALOG_INTERACTION
  6: 0x01A4 [0x1D] PRINT_EVENT_MESSAGE(message_id=7688*)
    → "You follow me, [mister/lady]? Whenever Aldo's deep in thought, it's best to just look the other way."
  7: 0x01A7 [0x23] WAIT_FOR_DIALOG_INTERACTION
  8: 0x01A8 [0x1D] PRINT_EVENT_MESSAGE(message_id=7689*)
    → "After all, he's seen hell with those eyes. Of course, lots of people suffered in the wars twenty years ago, but most of them never came back."
  9: 0x01AB [0x23] WAIT_FOR_DIALOG_INTERACTION
 10: 0x01AC [0x66] LOAD_EXT_SCHEDULER_MAIN: Load scheduler "tlk2" with entities [EventEntity, EventEntity], work=50*
 11: 0x01BB [0x53] WAIT_SCHEDULER_TASK: Wait for scheduler "tlk2" with entities [EventEntity, EventEntity]
 12: 0x01C8 [0x21] END_EVENT
 13: 0x01C9 [0x00] END_REQSTACK()
```

### Event 210

#### Metadata

| Field        | Value    |
|--------------|----------|
| Entrypoint   | 0x01CA   |
| Data Size    | 64 bytes |
| Instructions | 12       |

```
      00 01 02 03 04 05 06 07  08 09 0A 0B 0C 0D 0E 0F
      -- -- -- -- -- -- -- --  -- -- -- -- -- -- -- --
01C0:                                1E F0 FF FF 7F 6F            .....o
01D0: 76 F8 FF FF 7F 66 00 80  F8 FF FF 7F F8 FF FF 7F  v....f..........
01E0: 74 6C 6B 30 1D 17 80 23  1D 18 80 23 66 00 80 F8  tlk0...#...#f...
01F0: FF FF 7F F8 FF FF 7F 74  6C 6B 32 53 F8 FF FF 7F  .......tlk2S....
0200: F8 FF FF 7F 74 6C 6B 32  21 00                    ....tlk2!.      
```

#### Opcodes

```
  0: 0x01CA [0x1E] EventEntity looks at LocalPlayer and starts talking
  1: 0x01CF [0x6F] WAIT_FRAME_DELAY: Yield until WaitTime reaches zero
  2: 0x01D0 [0x76] CHECK_ENTITY_RENDER_FLAGS: Wait until EventEntity Render.Flags0 and Render.Flags3 conditions are met
  3: 0x01D5 [0x66] LOAD_EXT_SCHEDULER_MAIN: Load scheduler "tlk0" with entities [EventEntity, EventEntity], work=50*
  4: 0x01E4 [0x1D] PRINT_EVENT_MESSAGE(message_id=7690*)
    → "Somehow Verena seems different than the other girls. Some folks say she can rrread animals' minds."
  5: 0x01E7 [0x23] WAIT_FOR_DIALOG_INTERACTION
  6: 0x01E8 [0x1D] PRINT_EVENT_MESSAGE(message_id=7691*)
    → "She's a fine chocobo rrrider, and unlike my boss, she gets along fine with those beastmen. Those two always fight about that."
  7: 0x01EB [0x23] WAIT_FOR_DIALOG_INTERACTION
  8: 0x01EC [0x66] LOAD_EXT_SCHEDULER_MAIN: Load scheduler "tlk2" with entities [EventEntity, EventEntity], work=50*
  9: 0x01FB [0x53] WAIT_SCHEDULER_TASK: Wait for scheduler "tlk2" with entities [EventEntity, EventEntity]
 10: 0x0208 [0x21] END_EVENT
 11: 0x0209 [0x00] END_REQSTACK()
```

### Event 219

#### Metadata

| Field        | Value    |
|--------------|----------|
| Entrypoint   | 0x020A   |
| Data Size    | 60 bytes |
| Instructions | 10       |

```
      00 01 02 03 04 05 06 07  08 09 0A 0B 0C 0D 0E 0F
      -- -- -- -- -- -- -- --  -- -- -- -- -- -- -- --
0200:                                1E F0 FF FF 7F 6F            .....o
0210: 76 F8 FF FF 7F 66 00 80  F8 FF FF 7F F8 FF FF 7F  v....f..........
0220: 74 6C 6B 30 1D 19 80 23  66 00 80 F8 FF FF 7F F8  tlk0...#f.......
0230: FF FF 7F 74 6C 6B 32 53  F8 FF FF 7F F8 FF FF 7F  ...tlk2S........
0240: 74 6C 6B 32 21 00                                 tlk2!.          
```

#### Opcodes

```
  0: 0x020A [0x1E] EventEntity looks at LocalPlayer and starts talking
  1: 0x020F [0x6F] WAIT_FRAME_DELAY: Yield until WaitTime reaches zero
  2: 0x0210 [0x76] CHECK_ENTITY_RENDER_FLAGS: Wait until EventEntity Render.Flags0 and Render.Flags3 conditions are met
  3: 0x0215 [0x66] LOAD_EXT_SCHEDULER_MAIN: Load scheduler "tlk0" with entities [EventEntity, EventEntity], work=50*
  4: 0x0224 [0x1D] PRINT_EVENT_MESSAGE(message_id=7692*)
    → "Hey, you made it through! Thanks for the package. Now, go back and get paid."
  5: 0x0227 [0x23] WAIT_FOR_DIALOG_INTERACTION
  6: 0x0228 [0x66] LOAD_EXT_SCHEDULER_MAIN: Load scheduler "tlk2" with entities [EventEntity, EventEntity], work=50*
  7: 0x0237 [0x53] WAIT_SCHEDULER_TASK: Wait for scheduler "tlk2" with entities [EventEntity, EventEntity]
  8: 0x0244 [0x21] END_EVENT
  9: 0x0245 [0x00] END_REQSTACK()
```

### Event 218

#### Metadata

| Field        | Value    |
|--------------|----------|
| Entrypoint   | 0x0246   |
| Data Size    | 60 bytes |
| Instructions | 10       |

```
      00 01 02 03 04 05 06 07  08 09 0A 0B 0C 0D 0E 0F
      -- -- -- -- -- -- -- --  -- -- -- -- -- -- -- --
0240:                   1E F0  FF FF 7F 6F 76 F8 FF FF        .....ov...
0250: 7F 66 00 80 F8 FF FF 7F  F8 FF FF 7F 74 6C 6B 30  .f..........tlk0
0260: 1D 1A 80 23 66 00 80 F8  FF FF 7F F8 FF FF 7F 74  ...#f..........t
0270: 6C 6B 32 53 F8 FF FF 7F  F8 FF FF 7F 74 6C 6B 32  lk2S........tlk2
0280: 21 00                                             !.              
```

#### Opcodes

```
  0: 0x0246 [0x1E] EventEntity looks at LocalPlayer and starts talking
  1: 0x024B [0x6F] WAIT_FRAME_DELAY: Yield until WaitTime reaches zero
  2: 0x024C [0x76] CHECK_ENTITY_RENDER_FLAGS: Wait until EventEntity Render.Flags0 and Render.Flags3 conditions are met
  3: 0x0251 [0x66] LOAD_EXT_SCHEDULER_MAIN: Load scheduler "tlk0" with entities [EventEntity, EventEntity], work=50*
  4: 0x0260 [0x1D] PRINT_EVENT_MESSAGE(message_id=7693*)
    → "Hey, you made it through! But look at this junk. It's trash! Next time go easier on the goods, okay?"
  5: 0x0263 [0x23] WAIT_FOR_DIALOG_INTERACTION
  6: 0x0264 [0x66] LOAD_EXT_SCHEDULER_MAIN: Load scheduler "tlk2" with entities [EventEntity, EventEntity], work=50*
  7: 0x0273 [0x53] WAIT_SCHEDULER_TASK: Wait for scheduler "tlk2" with entities [EventEntity, EventEntity]
  8: 0x0280 [0x21] END_EVENT
  9: 0x0281 [0x00] END_REQSTACK()
```

### Event 220

#### Metadata

| Field        | Value     |
|--------------|-----------|
| Entrypoint   | 0x0282    |
| Data Size    | 111 bytes |
| Instructions | 30        |

```
      00 01 02 03 04 05 06 07  08 09 0A 0B 0C 0D 0E 0F
      -- -- -- -- -- -- -- --  -- -- -- -- -- -- -- --
0280:       1E F0 FF FF 7F 6F  70 03 02 10 1B 80 1D 1C    .....op.......
0290: 80 23 66 00 80 F8 FF FF  7F F8 FF FF 7F 74 6C 6B  .#f..........tlk
02A0: 30 1D 1D 80 23 1D 1E 80  23 66 00 80 F8 FF FF 7F  0...#...#f......
02B0: F8 FF FF 7F 74 6C 6B 32  42 24 1F 80 20 80 21 80  ....tlk2B$.. .!.
02C0: 25 02 00 10 21 80 00 E0  02 43 00 43 01 02 02 10  %...!....C.C....
02D0: 20 80 00 DD 02 1D 22 80  23 1D 23 80 23 01 EF 02   .....".#.#.#...
02E0: 02 00 10 20 80 00 EF 02  1D 24 80 23 01 EF 02 21  ... .....$.#...!
02F0: 00                                                .               
```

#### Opcodes

```
  0: 0x0282 [0x1E] EventEntity looks at LocalPlayer and starts talking
  1: 0x0287 [0x6F] WAIT_FRAME_DELAY: Yield until WaitTime reaches zero
  2: 0x0288 [0x70] WAIT_ENTITY_RENDER_FLAG: Wait while EventEntity->Render.Flags3 bit 2 is set (cancel turn if not)
  3: 0x0289 [0x03] Work_Zone[2] = 1000*
  4: 0x028E [0x1D] PRINT_EVENT_MESSAGE(message_id=8009*)
    → "What? A toolbox that won't open? Oh, yeah... A long time ago I took a strange box from one of Brugaire's warehouses."
  5: 0x0291 [0x23] WAIT_FOR_DIALOG_INTERACTION
  6: 0x0292 [0x66] LOAD_EXT_SCHEDULER_MAIN: Load scheduler "tlk0" with entities [EventEntity, EventEntity], work=50*
  7: 0x02A1 [0x1D] PRINT_EVENT_MESSAGE(message_id=8010*)
    → "The box was old and filthy, but I couldn't wait to pry it open and see the treasure inside. But it simply wouldn't open!"
  8: 0x02A4 [0x23] WAIT_FOR_DIALOG_INTERACTION
  9: 0x02A5 [0x1D] PRINT_EVENT_MESSAGE(message_id=8011*)
    → "Wait, are you looking for that box? Hmm... I'll sell it to you for $0 gil."
 10: 0x02A8 [0x23] WAIT_FOR_DIALOG_INTERACTION
 11: 0x02A9 [0x66] LOAD_EXT_SCHEDULER_MAIN: Load scheduler "tlk2" with entities [EventEntity, EventEntity], work=50*
 12: 0x02B8 [0x42] SET_CLI_EVENT_CANCEL_DATA()
 13: 0x02B9 [0x24] CREATE_DIALOG(message_id=8012*, default_option=1*, option_flags=0*)
    → "Well? [Fine, I'll take it./No, thanks.]"
 14: 0x02C0 [0x25] WAIT_DIALOG_SELECT()
 15: 0x02C1 [0x02] IF !(Work_Zone[0] == 0*) GOTO 0x02E0
 16: 0x02C9 [0x43] SEND_EVENT_UPDATE: Send pending tag to server (packet 0x005B)
 17: 0x02CB [0x43] SEND_EVENT_UPDATE: Check pending flag (skip if not pending)
 18: 0x02CD [0x02] IF !(Work_Zone[2] == 1*) GOTO 0x02DD
 19: 0x02D5 [0x1D] PRINT_EVENT_MESSAGE(message_id=8014*)
    → "That's the spirit, my fine customer!"
 20: 0x02D8 [0x23] WAIT_FOR_DIALOG_INTERACTION
 21: 0x02D9 [0x1D] PRINT_EVENT_MESSAGE(message_id=8015*)
    → "I left the toolbox on top of a crate outside the Duty-Free shop in Port Jeuno. Till just now I had completely forgotten it!"
 22: 0x02DC [0x23] WAIT_FOR_DIALOG_INTERACTION
 23: 0x02DD [0x01] GOTO 0x02EF
 24: 0x02E0 [0x02] IF !(Work_Zone[0] == 1*) GOTO 0x02EF
 25: 0x02E8 [0x1D] PRINT_EVENT_MESSAGE(message_id=8013*)
    → "Oh, yeah? Well, I'm not telling you where it is, then!"
 26: 0x02EB [0x23] WAIT_FOR_DIALOG_INTERACTION
 27: 0x02EC [0x01] GOTO 0x02EF

SUBROUTINE_02EF:
 28: 0x02EF [0x21] END_EVENT
 29: 0x02F0 [0x00] END_REQSTACK()
```

### Event 221

#### Metadata

| Field        | Value    |
|--------------|----------|
| Entrypoint   | 0x02F1   |
| Data Size    | 43 bytes |
| Instructions | 9        |

```
      00 01 02 03 04 05 06 07  08 09 0A 0B 0C 0D 0E 0F
      -- -- -- -- -- -- -- --  -- -- -- -- -- -- -- --
02F0:    1E F0 FF FF 7F 6F 70  66 00 80 F8 FF FF 7F F8   .....opf.......
0300: FF FF 7F 74 6C 6B 30 1D  25 80 23 66 00 80 F8 FF  ...tlk0.%.#f....
0310: FF 7F F8 FF FF 7F 74 6C  6B 32 21 00              ......tlk2!.    
```

#### Opcodes

```
  0: 0x02F1 [0x1E] EventEntity looks at LocalPlayer and starts talking
  1: 0x02F6 [0x6F] WAIT_FRAME_DELAY: Yield until WaitTime reaches zero
  2: 0x02F7 [0x70] WAIT_ENTITY_RENDER_FLAG: Wait while EventEntity->Render.Flags3 bit 2 is set (cancel turn if not)
  3: 0x02F8 [0x66] LOAD_EXT_SCHEDULER_MAIN: Load scheduler "tlk0" with entities [EventEntity, EventEntity], work=50*
  4: 0x0307 [0x1D] PRINT_EVENT_MESSAGE(message_id=8016*)
    → "Look, the toolbox is on top of a crate outside of Port Jeuno's Duty-Free shop. Go ahead and take it."
  5: 0x030A [0x23] WAIT_FOR_DIALOG_INTERACTION
  6: 0x030B [0x66] LOAD_EXT_SCHEDULER_MAIN: Load scheduler "tlk2" with entities [EventEntity, EventEntity], work=50*
  7: 0x031A [0x21] END_EVENT
  8: 0x031B [0x00] END_REQSTACK()
```

### Event 65535.3

#### Metadata

| Field        | Value    |
|--------------|----------|
| Entrypoint   | 0x031C   |
| Data Size    | 29 bytes |
| Instructions | 3        |

```
      00 01 02 03 04 05 06 07  08 09 0A 0B 0C 0D 0E 0F
      -- -- -- -- -- -- -- --  -- -- -- -- -- -- -- --
0310:                                      66 00 80 F8              f...
0320: FF FF 7F F8 FF FF 7F 74  6C 6B 30 53 F8 FF FF 7F  .......tlk0S....
0330: F8 FF FF 7F 74 6C 6B 30  00                       ....tlk0.       
```

#### Opcodes

```
  0: 0x031C [0x66] LOAD_EXT_SCHEDULER_MAIN: Load scheduler "tlk0" with entities [EventEntity, EventEntity], work=50*
  1: 0x032B [0x53] WAIT_SCHEDULER_TASK: Wait for scheduler "tlk0" with entities [EventEntity, EventEntity]
  2: 0x0338 [0x00] END_REQSTACK()
```

### Event 65535.4

#### Metadata

| Field        | Value    |
|--------------|----------|
| Entrypoint   | 0x0339   |
| Data Size    | 29 bytes |
| Instructions | 3        |

```
      00 01 02 03 04 05 06 07  08 09 0A 0B 0C 0D 0E 0F
      -- -- -- -- -- -- -- --  -- -- -- -- -- -- -- --
0330:                             66 00 80 F8 FF FF 7F           f......
0340: F8 FF FF 7F 74 6C 6B 32  53 F8 FF FF 7F F8 FF FF  ....tlk2S.......
0350: 7F 74 6C 6B 32 00                                 .tlk2.          
```

#### Opcodes

```
  0: 0x0339 [0x66] LOAD_EXT_SCHEDULER_MAIN: Load scheduler "tlk2" with entities [EventEntity, EventEntity], work=50*
  1: 0x0348 [0x53] WAIT_SCHEDULER_TASK: Wait for scheduler "tlk2" with entities [EventEntity, EventEntity]
  2: 0x0355 [0x00] END_REQSTACK()
```

### Event 10060

#### Metadata

| Field        | Value    |
|--------------|----------|
| Entrypoint   | 0x0356   |
| Data Size    | 81 bytes |
| Instructions | 17       |

```
      00 01 02 03 04 05 06 07  08 09 0A 0B 0C 0D 0E 0F
      -- -- -- -- -- -- -- --  -- -- -- -- -- -- -- --
0350:                   1E F0  FF FF 7F 6F 76 F8 FF FF        .....ov...
0360: 7F 66 00 80 F8 FF FF 7F  F8 FF FF 7F 74 6C 6B 30  .f..........tlk0
0370: 1D 26 80 23 3A F8 FF FF  7F 00 00 07 00 00 08 80  .&.#:...........
0380: 39 00 00 6F 70 1D 27 80  23 66 00 80 F8 FF FF 7F  9..op.'.#f......
0390: F8 FF FF 7F 74 6C 6B 32  53 F8 FF FF 7F F8 FF FF  ....tlk2S.......
03A0: 7F 74 6C 6B 32 21 00                              .tlk2!.         
```

#### Opcodes

```
  0: 0x0356 [0x1E] EventEntity looks at LocalPlayer and starts talking
  1: 0x035B [0x6F] WAIT_FRAME_DELAY: Yield until WaitTime reaches zero
  2: 0x035C [0x76] CHECK_ENTITY_RENDER_FLAGS: Wait until EventEntity Render.Flags0 and Render.Flags3 conditions are met
  3: 0x0361 [0x66] LOAD_EXT_SCHEDULER_MAIN: Load scheduler "tlk0" with entities [EventEntity, EventEntity], work=50*
  4: 0x0370 [0x1D] PRINT_EVENT_MESSAGE(message_id=9513*)
    → "Are you telling me that Lion's back? Where the hell has she been? She's lucky I don't give her what for."
  5: 0x0373 [0x23] WAIT_FOR_DIALOG_INTERACTION
  6: 0x0374 [0x3A] CONVERT_YAW_TO_BYTE(entity=EventEntity, result_destination=ExtData[1]->WorkLocal[0])
  7: 0x037B [0x07] ExtData[1]->WorkLocal[0] += 2048*
  8: 0x0380 [0x39] SET_ENTITY_DIRECTION(direction=ExtData[1]->WorkLocal[0])
  9: 0x0383 [0x6F] WAIT_FRAME_DELAY: Yield until WaitTime reaches zero
 10: 0x0384 [0x70] WAIT_ENTITY_RENDER_FLAG: Wait while EventEntity->Render.Flags3 bit 2 is set (cancel turn if not)
 11: 0x0385 [0x1D] PRINT_EVENT_MESSAGE(message_id=9514*)
    → "Lion... She really had us worried!"
 12: 0x0388 [0x23] WAIT_FOR_DIALOG_INTERACTION
 13: 0x0389 [0x66] LOAD_EXT_SCHEDULER_MAIN: Load scheduler "tlk2" with entities [EventEntity, EventEntity], work=50*
 14: 0x0398 [0x53] WAIT_SCHEDULER_TASK: Wait for scheduler "tlk2" with entities [EventEntity, EventEntity]
 15: 0x03A5 [0x21] END_EVENT
 16: 0x03A6 [0x00] END_REQSTACK()
```

### Event 10062

#### Metadata

| Field        | Value   |
|--------------|---------|
| Entrypoint   | 0x03A7  |
| Data Size    | 1 bytes |
| Instructions | 1       |

```
      00 01 02 03 04 05 06 07  08 09 0A 0B 0C 0D 0E 0F
      -- -- -- -- -- -- -- --  -- -- -- -- -- -- -- --
03A0:                      00                                  .        
```

#### Opcodes

```
  0: 0x03A7 [0x00] END_REQSTACK()
```

### Event 10063

#### Metadata

| Field        | Value   |
|--------------|---------|
| Entrypoint   | 0x03A8  |
| Data Size    | 1 bytes |
| Instructions | 1       |

```
      00 01 02 03 04 05 06 07  08 09 0A 0B 0C 0D 0E 0F
      -- -- -- -- -- -- -- --  -- -- -- -- -- -- -- --
03A0:                          00                               .       
```

#### Opcodes

```
  0: 0x03A8 [0x00] END_REQSTACK()
```

### Event 10064

#### Metadata

| Field        | Value   |
|--------------|---------|
| Entrypoint   | 0x03A9  |
| Data Size    | 1 bytes |
| Instructions | 1       |

```
      00 01 02 03 04 05 06 07  08 09 0A 0B 0C 0D 0E 0F
      -- -- -- -- -- -- -- --  -- -- -- -- -- -- -- --
03A0:                             00                             .      
```

#### Opcodes

```
  0: 0x03A9 [0x00] END_REQSTACK()
```

### Event 10065

#### Metadata

| Field        | Value   |
|--------------|---------|
| Entrypoint   | 0x03AA  |
| Data Size    | 1 bytes |
| Instructions | 1       |

```
      00 01 02 03 04 05 06 07  08 09 0A 0B 0C 0D 0E 0F
      -- -- -- -- -- -- -- --  -- -- -- -- -- -- -- --
03A0:                                00                           .     
```

#### Opcodes

```
  0: 0x03AA [0x00] END_REQSTACK()
```

### Event 10066

#### Metadata

| Field        | Value   |
|--------------|---------|
| Entrypoint   | 0x03AB  |
| Data Size    | 1 bytes |
| Instructions | 1       |

```
      00 01 02 03 04 05 06 07  08 09 0A 0B 0C 0D 0E 0F
      -- -- -- -- -- -- -- --  -- -- -- -- -- -- -- --
03A0:                                   00                         .    
```

#### Opcodes

```
  0: 0x03AB [0x00] END_REQSTACK()
```

### Event 10067

#### Metadata

| Field        | Value   |
|--------------|---------|
| Entrypoint   | 0x03AC  |
| Data Size    | 1 bytes |
| Instructions | 1       |

```
      00 01 02 03 04 05 06 07  08 09 0A 0B 0C 0D 0E 0F
      -- -- -- -- -- -- -- --  -- -- -- -- -- -- -- --
03A0:                                      00                       .   
```

#### Opcodes

```
  0: 0x03AC [0x00] END_REQSTACK()
```

### Event 10068

#### Metadata

| Field        | Value   |
|--------------|---------|
| Entrypoint   | 0x03AD  |
| Data Size    | 1 bytes |
| Instructions | 1       |

```
      00 01 02 03 04 05 06 07  08 09 0A 0B 0C 0D 0E 0F
      -- -- -- -- -- -- -- --  -- -- -- -- -- -- -- --
03A0:                                         00                     .  
```

#### Opcodes

```
  0: 0x03AD [0x00] END_REQSTACK()
```

### Event 10069

#### Metadata

| Field        | Value   |
|--------------|---------|
| Entrypoint   | 0x03AE  |
| Data Size    | 1 bytes |
| Instructions | 1       |

```
      00 01 02 03 04 05 06 07  08 09 0A 0B 0C 0D 0E 0F
      -- -- -- -- -- -- -- --  -- -- -- -- -- -- -- --
03A0:                                            00                   . 
```

#### Opcodes

```
  0: 0x03AE [0x00] END_REQSTACK()
```

### Event 10070

#### Metadata

| Field        | Value   |
|--------------|---------|
| Entrypoint   | 0x03AF  |
| Data Size    | 1 bytes |
| Instructions | 1       |

```
      00 01 02 03 04 05 06 07  08 09 0A 0B 0C 0D 0E 0F
      -- -- -- -- -- -- -- --  -- -- -- -- -- -- -- --
03A0:                                               00                 .
```

#### Opcodes

```
  0: 0x03AF [0x00] END_REQSTACK()
```

### Event 10071

#### Metadata

| Field        | Value   |
|--------------|---------|
| Entrypoint   | 0x03B0  |
| Data Size    | 1 bytes |
| Instructions | 1       |

```
      00 01 02 03 04 05 06 07  08 09 0A 0B 0C 0D 0E 0F
      -- -- -- -- -- -- -- --  -- -- -- -- -- -- -- --
03B0: 00                                                .               
```

#### Opcodes

```
  0: 0x03B0 [0x00] END_REQSTACK()
```

### Event 10072

#### Metadata

| Field        | Value   |
|--------------|---------|
| Entrypoint   | 0x03B1  |
| Data Size    | 2 bytes |
| Instructions | 1       |

```
      00 01 02 03 04 05 06 07  08 09 0A 0B 0C 0D 0E 0F
      -- -- -- -- -- -- -- --  -- -- -- -- -- -- -- --
03B0:    00 00                                           ..             
```

#### Opcodes

```
  0: 0x03B1 [0x00] END_REQSTACK()
```

#### Data or dead code:

```
# Dead code (unreachable instructions):
     0x03B2 [0x00] END_REQSTACK()
```

### Event 10094

#### Metadata

| Field        | Value   |
|--------------|---------|
| Entrypoint   | 0x03B3  |
| Data Size    | 5 bytes |
| Instructions | 2       |

```
      00 01 02 03 04 05 06 07  08 09 0A 0B 0C 0D 0E 0F
      -- -- -- -- -- -- -- --  -- -- -- -- -- -- -- --
03B0:          C0 20 80 00 00                              . ...        
```

#### Opcodes

```
  0: 0x03B3 [0xC0] EventEntity->Render.Flags3 |= 0x1000 // Set bit 12 (from 1*)
  1: 0x03B6 [0x00] END_REQSTACK()
```

#### Data or dead code:

```
# Dead code (unreachable instructions):
     0x03B7 [0x00] END_REQSTACK()
```

### Event 65535.5

#### Metadata

| Field        | Value    |
|--------------|----------|
| Entrypoint   | 0x03B8   |
| Data Size    | 20 bytes |
| Instructions | 5        |

```
      00 01 02 03 04 05 06 07  08 09 0A 0B 0C 0D 0E 0F
      -- -- -- -- -- -- -- --  -- -- -- -- -- -- -- --
03B0:                          59 04 0B 50 0F 01 28 80          Y..P..(.
03C0: 1F 00 29 80 2A 80 21 80  1F 01 6F 00              ..).*.!...o.    
```

#### Opcodes

```
  0: 0x03B8 [0x59] UPDATE_ENTITY_DATA: Set Garnev (ID: 17780747/0x010F500B) main speed = 12* * 0.1
  1: 0x03C0 [0x1F] MOVE_ENTITY: EventEntity moves to X=-76.092*, Z=-136.357*, Y=0.000*
  2: 0x03C8 [0x1F] MOVE_ENTITY: Update entity position (mode=1)
  3: 0x03CA [0x6F] WAIT_FRAME_DELAY: Yield until WaitTime reaches zero
  4: 0x03CB [0x00] END_REQSTACK()
```

### Event 65535.6

#### Metadata

| Field        | Value    |
|--------------|----------|
| Entrypoint   | 0x03CC   |
| Data Size    | 20 bytes |
| Instructions | 5        |

```
      00 01 02 03 04 05 06 07  08 09 0A 0B 0C 0D 0E 0F
      -- -- -- -- -- -- -- --  -- -- -- -- -- -- -- --
03C0:                                      59 04 1D 50              Y..P
03D0: 0F 01 2B 80 1F 00 2C 80  2D 80 21 80 1F 01 6F 00  ..+...,.-.!...o.
```

#### Opcodes

```
  0: 0x03CC [0x59] UPDATE_ENTITY_DATA: Set Mataligeat (ID: 17780765/0x010F501D) main speed = 11* * 0.1
  1: 0x03D4 [0x1F] MOVE_ENTITY: EventEntity moves to X=-95.337*, Z=-156.056*, Y=0.000*
  2: 0x03DC [0x1F] MOVE_ENTITY: Update entity position (mode=1)
  3: 0x03DE [0x6F] WAIT_FRAME_DELAY: Yield until WaitTime reaches zero
  4: 0x03DF [0x00] END_REQSTACK()
```

### Event 65535.7

#### Metadata

| Field        | Value    |
|--------------|----------|
| Entrypoint   | 0x03E0   |
| Data Size    | 20 bytes |
| Instructions | 5        |

```
      00 01 02 03 04 05 06 07  08 09 0A 0B 0C 0D 0E 0F
      -- -- -- -- -- -- -- --  -- -- -- -- -- -- -- --
03E0: 59 04 1D 50 0F 01 2B 80  1F 00 2E 80 2F 80 30 80  Y..P..+...../.0.
03F0: 1F 01 6F 00                                       ..o.            
```

#### Opcodes

```
  0: 0x03E0 [0x59] UPDATE_ENTITY_DATA: Set Mataligeat (ID: 17780765/0x010F501D) main speed = 11* * 0.1
  1: 0x03E8 [0x1F] MOVE_ENTITY: EventEntity moves to X=-62.073*, Z=-89.873*, Y=5.999*
  2: 0x03F0 [0x1F] MOVE_ENTITY: Update entity position (mode=1)
  3: 0x03F2 [0x6F] WAIT_FRAME_DELAY: Yield until WaitTime reaches zero
  4: 0x03F3 [0x00] END_REQSTACK()
```

### Event 65535.8

#### Metadata

| Field        | Value    |
|--------------|----------|
| Entrypoint   | 0x03F4   |
| Data Size    | 17 bytes |
| Instructions | 2        |

```
      00 01 02 03 04 05 06 07  08 09 0A 0B 0C 0D 0E 0F
      -- -- -- -- -- -- -- --  -- -- -- -- -- -- -- --
03F0:             5B 31 80 1D  50 0F 01 1D 50 0F 01 6F      [1..P...P..o
0400: 70 30 30 00 00                                    p00..           
```

#### Opcodes

```
  0: 0x03F4 [0x5B] LOAD_EXT_SCHEDULER: Load scheduler "op00" with entities [Mataligeat (ID: 17780765/0x010F501D), Mataligeat (ID: 17780765/0x010F501D)], work=2618*
  1: 0x0403 [0x00] END_REQSTACK()
```

#### Data or dead code:

```
# Dead code (unreachable instructions):
     0x0404 [0x00] END_REQSTACK()
```

### Event 65535.9

#### Metadata

| Field        | Value    |
|--------------|----------|
| Entrypoint   | 0x0405   |
| Data Size    | 20 bytes |
| Instructions | 5        |

```
      00 01 02 03 04 05 06 07  08 09 0A 0B 0C 0D 0E 0F
      -- -- -- -- -- -- -- --  -- -- -- -- -- -- -- --
0400:                59 04 3A  50 0F 01 2B 80 1F 00 2C       Y.:P..+...,
0410: 80 2D 80 21 80 1F 01 6F  00                       .-.!...o.       
```

#### Opcodes

```
  0: 0x0405 [0x59] UPDATE_ENTITY_DATA: Set Navisse (ID: 17780794/0x010F503A) main speed = 11* * 0.1
  1: 0x040D [0x1F] MOVE_ENTITY: EventEntity moves to X=-95.337*, Z=-156.056*, Y=0.000*
  2: 0x0415 [0x1F] MOVE_ENTITY: Update entity position (mode=1)
  3: 0x0417 [0x6F] WAIT_FRAME_DELAY: Yield until WaitTime reaches zero
  4: 0x0418 [0x00] END_REQSTACK()
```

### Event 65535.10

#### Metadata

| Field        | Value    |
|--------------|----------|
| Entrypoint   | 0x0419   |
| Data Size    | 20 bytes |
| Instructions | 5        |

```
      00 01 02 03 04 05 06 07  08 09 0A 0B 0C 0D 0E 0F
      -- -- -- -- -- -- -- --  -- -- -- -- -- -- -- --
0410:                             59 04 2C 50 0F 01 28           Y.,P..(
0420: 80 1F 00 32 80 33 80 21  80 1F 01 6F 00           ...2.3.!...o.   
```

#### Opcodes

```
  0: 0x0419 [0x59] UPDATE_ENTITY_DATA: Set Jazmin (ID: 17780780/0x010F502C) main speed = 12* * 0.1
  1: 0x0421 [0x1F] MOVE_ENTITY: EventEntity moves to X=-83.944*, Z=-128.625*, Y=0.000*
  2: 0x0429 [0x1F] MOVE_ENTITY: Update entity position (mode=1)
  3: 0x042B [0x6F] WAIT_FRAME_DELAY: Yield until WaitTime reaches zero
  4: 0x042C [0x00] END_REQSTACK()
```

### Event 65535.11

#### Metadata

| Field        | Value    |
|--------------|----------|
| Entrypoint   | 0x042D   |
| Data Size    | 19 bytes |
| Instructions | 4        |

```
      00 01 02 03 04 05 06 07  08 09 0A 0B 0C 0D 0E 0F
      -- -- -- -- -- -- -- --  -- -- -- -- -- -- -- --
0420:                                         59 04 2C               Y.,
0430: 50 0F 01 2B 80 1F 00 34  80 35 80 30 80 1F 01 00  P..+...4.5.0....
```

#### Opcodes

```
  0: 0x042D [0x59] UPDATE_ENTITY_DATA: Set Jazmin (ID: 17780780/0x010F502C) main speed = 11* * 0.1
  1: 0x0435 [0x1F] MOVE_ENTITY: EventEntity moves to X=-68.592*, Z=-96.839*, Y=5.999*
  2: 0x043D [0x1F] MOVE_ENTITY: Update entity position (mode=1)
  3: 0x043F [0x00] END_REQSTACK()
```

### Event 65535.12

#### Metadata

| Field        | Value    |
|--------------|----------|
| Entrypoint   | 0x0440   |
| Data Size    | 19 bytes |
| Instructions | 4        |

```
      00 01 02 03 04 05 06 07  08 09 0A 0B 0C 0D 0E 0F
      -- -- -- -- -- -- -- --  -- -- -- -- -- -- -- --
0440: 59 04 2C 50 0F 01 2B 80  1F 00 36 80 37 80 30 80  Y.,P..+...6.7.0.
0450: 1F 01 00                                          ...             
```

#### Opcodes

```
  0: 0x0440 [0x59] UPDATE_ENTITY_DATA: Set Jazmin (ID: 17780780/0x010F502C) main speed = 11* * 0.1
  1: 0x0448 [0x1F] MOVE_ENTITY: EventEntity moves to X=-70.511*, Z=-102.750*, Y=5.999*
  2: 0x0450 [0x1F] MOVE_ENTITY: Update entity position (mode=1)
  3: 0x0452 [0x00] END_REQSTACK()
```

### Event 65535.13

#### Metadata

| Field        | Value    |
|--------------|----------|
| Entrypoint   | 0x0453   |
| Data Size    | 16 bytes |
| Instructions | 2        |

```
      00 01 02 03 04 05 06 07  08 09 0A 0B 0C 0D 0E 0F
      -- -- -- -- -- -- -- --  -- -- -- -- -- -- -- --
0450:          5B 38 80 2C 50  0F 01 2C 50 0F 01 6F 70     [8.,P..,P..op
0460: 30 30 00                                          00.             
```

#### Opcodes

```
  0: 0x0453 [0x5B] LOAD_EXT_SCHEDULER: Load scheduler "op00" with entities [Jazmin (ID: 17780780/0x010F502C), Jazmin (ID: 17780780/0x010F502C)], work=2602*
  1: 0x0462 [0x00] END_REQSTACK()
```

### Event 65535.14

#### Metadata

| Field        | Value    |
|--------------|----------|
| Entrypoint   | 0x0463   |
| Data Size    | 16 bytes |
| Instructions | 2        |

```
      00 01 02 03 04 05 06 07  08 09 0A 0B 0C 0D 0E 0F
      -- -- -- -- -- -- -- --  -- -- -- -- -- -- -- --
0460:          5B 38 80 2C 50  0F 01 2C 50 0F 01 6F 70     [8.,P..,P..op
0470: 30 31 00                                          01.             
```

#### Opcodes

```
  0: 0x0463 [0x5B] LOAD_EXT_SCHEDULER: Load scheduler "op01" with entities [Jazmin (ID: 17780780/0x010F502C), Jazmin (ID: 17780780/0x010F502C)], work=2602*
  1: 0x0472 [0x00] END_REQSTACK()
```

### Event 65535.15

#### Metadata

| Field        | Value    |
|--------------|----------|
| Entrypoint   | 0x0473   |
| Data Size    | 20 bytes |
| Instructions | 5        |

```
      00 01 02 03 04 05 06 07  08 09 0A 0B 0C 0D 0E 0F
      -- -- -- -- -- -- -- --  -- -- -- -- -- -- -- --
0470:          59 04 2C 50 0F  01 2B 80 1F 00 39 80 3A     Y.,P..+...9.:
0480: 80 30 80 1F 01 6F 00                              .0...o.         
```

#### Opcodes

```
  0: 0x0473 [0x59] UPDATE_ENTITY_DATA: Set Jazmin (ID: 17780780/0x010F502C) main speed = 11* * 0.1
  1: 0x047B [0x1F] MOVE_ENTITY: EventEntity moves to X=-72.366*, Z=-118.167*, Y=5.999*
  2: 0x0483 [0x1F] MOVE_ENTITY: Update entity position (mode=1)
  3: 0x0485 [0x6F] WAIT_FRAME_DELAY: Yield until WaitTime reaches zero
  4: 0x0486 [0x00] END_REQSTACK()
```

### Event 65535.16

#### Metadata

| Field        | Value    |
|--------------|----------|
| Entrypoint   | 0x0487   |
| Data Size    | 16 bytes |
| Instructions | 2        |

```
      00 01 02 03 04 05 06 07  08 09 0A 0B 0C 0D 0E 0F
      -- -- -- -- -- -- -- --  -- -- -- -- -- -- -- --
0480:                      5B  3B 80 2C 50 0F 01 2C 50         [;.,P..,P
0490: 0F 01 6F 70 61 30 00                              ..opa0.         
```

#### Opcodes

```
  0: 0x0487 [0x5B] LOAD_EXT_SCHEDULER: Load scheduler "opa0" with entities [Jazmin (ID: 17780780/0x010F502C), Jazmin (ID: 17780780/0x010F502C)], work=2617*
  1: 0x0496 [0x00] END_REQSTACK()
```

### Event 65535.17

#### Metadata

| Field        | Value    |
|--------------|----------|
| Entrypoint   | 0x0497   |
| Data Size    | 16 bytes |
| Instructions | 2        |

```
      00 01 02 03 04 05 06 07  08 09 0A 0B 0C 0D 0E 0F
      -- -- -- -- -- -- -- --  -- -- -- -- -- -- -- --
0490:                      5B  3B 80 2C 50 0F 01 2C 50         [;.,P..,P
04A0: 0F 01 6F 70 61 31 00                              ..opa1.         
```

#### Opcodes

```
  0: 0x0497 [0x5B] LOAD_EXT_SCHEDULER: Load scheduler "opa1" with entities [Jazmin (ID: 17780780/0x010F502C), Jazmin (ID: 17780780/0x010F502C)], work=2617*
  1: 0x04A6 [0x00] END_REQSTACK()
```

### Event 65535.18

#### Metadata

| Field        | Value    |
|--------------|----------|
| Entrypoint   | 0x04A7   |
| Data Size    | 16 bytes |
| Instructions | 2        |

```
      00 01 02 03 04 05 06 07  08 09 0A 0B 0C 0D 0E 0F
      -- -- -- -- -- -- -- --  -- -- -- -- -- -- -- --
04A0:                      5B  3B 80 2C 50 0F 01 2C 50         [;.,P..,P
04B0: 0F 01 6F 70 61 32 00                              ..opa2.         
```

#### Opcodes

```
  0: 0x04A7 [0x5B] LOAD_EXT_SCHEDULER: Load scheduler "opa2" with entities [Jazmin (ID: 17780780/0x010F502C), Jazmin (ID: 17780780/0x010F502C)], work=2617*
  1: 0x04B6 [0x00] END_REQSTACK()
```

### Event 65535.19

#### Metadata

| Field        | Value    |
|--------------|----------|
| Entrypoint   | 0x04B7   |
| Data Size    | 21 bytes |
| Instructions | 5        |

```
      00 01 02 03 04 05 06 07  08 09 0A 0B 0C 0D 0E 0F
      -- -- -- -- -- -- -- --  -- -- -- -- -- -- -- --
04B0:                      59  04 2E 50 0F 01 28 80 1F         Y..P..(..
04C0: 00 29 80 2A 80 21 80 1F  01 6F 00 00              .).*.!...o..    
```

#### Opcodes

```
  0: 0x04B7 [0x59] UPDATE_ENTITY_DATA: Set Bogharg (ID: 17780782/0x010F502E) main speed = 12* * 0.1
  1: 0x04BF [0x1F] MOVE_ENTITY: EventEntity moves to X=-76.092*, Z=-136.357*, Y=0.000*
  2: 0x04C7 [0x1F] MOVE_ENTITY: Update entity position (mode=1)
  3: 0x04C9 [0x6F] WAIT_FRAME_DELAY: Yield until WaitTime reaches zero
  4: 0x04CA [0x00] END_REQSTACK()
```

#### Data or dead code:

```
# Dead code (unreachable instructions):
     0x04CB [0x00] END_REQSTACK()
```

### Event 65535.20

#### Metadata

| Field        | Value    |
|--------------|----------|
| Entrypoint   | 0x04CC   |
| Data Size    | 16 bytes |
| Instructions | 2        |

```
      00 01 02 03 04 05 06 07  08 09 0A 0B 0C 0D 0E 0F
      -- -- -- -- -- -- -- --  -- -- -- -- -- -- -- --
04C0:                                      66 3C 80 2E              f<..
04D0: 50 0F 01 2E 50 0F 01 74  68 6B 31 00              P...P..thk1.    
```

#### Opcodes

```
  0: 0x04CC [0x66] LOAD_EXT_SCHEDULER_MAIN: Load scheduler "thk1" with entities [Bogharg (ID: 17780782/0x010F502E), Bogharg (ID: 17780782/0x010F502E)], work=69*
  1: 0x04DB [0x00] END_REQSTACK()
```

### Event 65535.21

#### Metadata

| Field        | Value    |
|--------------|----------|
| Entrypoint   | 0x04DC   |
| Data Size    | 16 bytes |
| Instructions | 2        |

```
      00 01 02 03 04 05 06 07  08 09 0A 0B 0C 0D 0E 0F
      -- -- -- -- -- -- -- --  -- -- -- -- -- -- -- --
04D0:                                      66 3C 80 2E              f<..
04E0: 50 0F 01 2E 50 0F 01 74  68 6B 32 00              P...P..thk2.    
```

#### Opcodes

```
  0: 0x04DC [0x66] LOAD_EXT_SCHEDULER_MAIN: Load scheduler "thk2" with entities [Bogharg (ID: 17780782/0x010F502E), Bogharg (ID: 17780782/0x010F502E)], work=69*
  1: 0x04EB [0x00] END_REQSTACK()
```

### Event 65535.22

#### Metadata

| Field        | Value    |
|--------------|----------|
| Entrypoint   | 0x04EC   |
| Data Size    | 20 bytes |
| Instructions | 5        |

```
      00 01 02 03 04 05 06 07  08 09 0A 0B 0C 0D 0E 0F
      -- -- -- -- -- -- -- --  -- -- -- -- -- -- -- --
04E0:                                      59 04 2E 50              Y..P
04F0: 0F 01 28 80 1F 00 3D 80  3E 80 30 80 1F 01 6F 00  ..(...=.>.0...o.
```

#### Opcodes

```
  0: 0x04EC [0x59] UPDATE_ENTITY_DATA: Set Bogharg (ID: 17780782/0x010F502E) main speed = 12* * 0.1
  1: 0x04F4 [0x1F] MOVE_ENTITY: EventEntity moves to X=-56.992*, Z=-88.050*, Y=5.999*
  2: 0x04FC [0x1F] MOVE_ENTITY: Update entity position (mode=1)
  3: 0x04FE [0x6F] WAIT_FRAME_DELAY: Yield until WaitTime reaches zero
  4: 0x04FF [0x00] END_REQSTACK()
```

### Event 65535.23

#### Metadata

| Field        | Value    |
|--------------|----------|
| Entrypoint   | 0x0500   |
| Data Size    | 17 bytes |
| Instructions | 2        |

```
      00 01 02 03 04 05 06 07  08 09 0A 0B 0C 0D 0E 0F
      -- -- -- -- -- -- -- --  -- -- -- -- -- -- -- --
0500: 5B 3F 80 2E 50 0F 01 2E  50 0F 01 6F 70 30 30 00  [?..P...P..op00.
0510: 00                                                .               
```

#### Opcodes

```
  0: 0x0500 [0x5B] LOAD_EXT_SCHEDULER: Load scheduler "op00" with entities [Bogharg (ID: 17780782/0x010F502E), Bogharg (ID: 17780782/0x010F502E)], work=2621*
  1: 0x050F [0x00] END_REQSTACK()
```

#### Data or dead code:

```
# Dead code (unreachable instructions):
     0x0510 [0x00] END_REQSTACK()
```

### Event 65535.24

#### Metadata

| Field        | Value    |
|--------------|----------|
| Entrypoint   | 0x0511   |
| Data Size    | 20 bytes |
| Instructions | 5        |

```
      00 01 02 03 04 05 06 07  08 09 0A 0B 0C 0D 0E 0F
      -- -- -- -- -- -- -- --  -- -- -- -- -- -- -- --
0510:    59 04 31 50 0F 01 2B  80 1F 00 32 80 33 80 21   Y.1P..+...2.3.!
0520: 80 1F 01 6F 00                                    ...o.           
```

#### Opcodes

```
  0: 0x0511 [0x59] UPDATE_ENTITY_DATA: Set Nakho Jawantal (ID: 17780785/0x010F5031) main speed = 11* * 0.1
  1: 0x0519 [0x1F] MOVE_ENTITY: EventEntity moves to X=-83.944*, Z=-128.625*, Y=0.000*
  2: 0x0521 [0x1F] MOVE_ENTITY: Update entity position (mode=1)
  3: 0x0523 [0x6F] WAIT_FRAME_DELAY: Yield until WaitTime reaches zero
  4: 0x0524 [0x00] END_REQSTACK()
```

### Event 65535.25

#### Metadata

| Field        | Value    |
|--------------|----------|
| Entrypoint   | 0x0525   |
| Data Size    | 16 bytes |
| Instructions | 2        |

```
      00 01 02 03 04 05 06 07  08 09 0A 0B 0C 0D 0E 0F
      -- -- -- -- -- -- -- --  -- -- -- -- -- -- -- --
0520:                5B 40 80  12 50 0F 01 12 50 0F 01       [@..P...P..
0530: 6F 70 61 30 00                                    opa0.           
```

#### Opcodes

```
  0: 0x0525 [0x5B] LOAD_EXT_SCHEDULER: Load scheduler "opa0" with entities [Tovrutaux (ID: 17780754/0x010F5012), Tovrutaux (ID: 17780754/0x010F5012)], work=2627*
  1: 0x0534 [0x00] END_REQSTACK()
```

### Event 65535.26

#### Metadata

| Field        | Value    |
|--------------|----------|
| Entrypoint   | 0x0535   |
| Data Size    | 16 bytes |
| Instructions | 2        |

```
      00 01 02 03 04 05 06 07  08 09 0A 0B 0C 0D 0E 0F
      -- -- -- -- -- -- -- --  -- -- -- -- -- -- -- --
0530:                5B 40 80  12 50 0F 01 12 50 0F 01       [@..P...P..
0540: 6F 70 61 31 00                                    opa1.           
```

#### Opcodes

```
  0: 0x0535 [0x5B] LOAD_EXT_SCHEDULER: Load scheduler "opa1" with entities [Tovrutaux (ID: 17780754/0x010F5012), Tovrutaux (ID: 17780754/0x010F5012)], work=2627*
  1: 0x0544 [0x00] END_REQSTACK()
```

### Event 65535.27

#### Metadata

| Field        | Value    |
|--------------|----------|
| Entrypoint   | 0x0545   |
| Data Size    | 16 bytes |
| Instructions | 2        |

```
      00 01 02 03 04 05 06 07  08 09 0A 0B 0C 0D 0E 0F
      -- -- -- -- -- -- -- --  -- -- -- -- -- -- -- --
0540:                5B 40 80  12 50 0F 01 12 50 0F 01       [@..P...P..
0550: 6F 70 61 32 00                                    opa2.           
```

#### Opcodes

```
  0: 0x0545 [0x5B] LOAD_EXT_SCHEDULER: Load scheduler "opa2" with entities [Tovrutaux (ID: 17780754/0x010F5012), Tovrutaux (ID: 17780754/0x010F5012)], work=2627*
  1: 0x0554 [0x00] END_REQSTACK()
```

### Event 65535.28

#### Metadata

| Field        | Value    |
|--------------|----------|
| Entrypoint   | 0x0555   |
| Data Size    | 16 bytes |
| Instructions | 2        |

```
      00 01 02 03 04 05 06 07  08 09 0A 0B 0C 0D 0E 0F
      -- -- -- -- -- -- -- --  -- -- -- -- -- -- -- --
0550:                5B 41 80  12 50 0F 01 12 50 0F 01       [A..P...P..
0560: 74 68 6B 31 00                                    thk1.           
```

#### Opcodes

```
  0: 0x0555 [0x5B] LOAD_EXT_SCHEDULER: Load scheduler "thk1" with entities [Tovrutaux (ID: 17780754/0x010F5012), Tovrutaux (ID: 17780754/0x010F5012)], work=75*
  1: 0x0564 [0x00] END_REQSTACK()
```

### Event 65535.29

#### Metadata

| Field        | Value    |
|--------------|----------|
| Entrypoint   | 0x0565   |
| Data Size    | 16 bytes |
| Instructions | 2        |

```
      00 01 02 03 04 05 06 07  08 09 0A 0B 0C 0D 0E 0F
      -- -- -- -- -- -- -- --  -- -- -- -- -- -- -- --
0560:                5B 41 80  12 50 0F 01 12 50 0F 01       [A..P...P..
0570: 74 68 6B 32 00                                    thk2.           
```

#### Opcodes

```
  0: 0x0565 [0x5B] LOAD_EXT_SCHEDULER: Load scheduler "thk2" with entities [Tovrutaux (ID: 17780754/0x010F5012), Tovrutaux (ID: 17780754/0x010F5012)], work=75*
  1: 0x0574 [0x00] END_REQSTACK()
```

### Event 65535.30

#### Metadata

| Field        | Value    |
|--------------|----------|
| Entrypoint   | 0x0575   |
| Data Size    | 16 bytes |
| Instructions | 2        |

```
      00 01 02 03 04 05 06 07  08 09 0A 0B 0C 0D 0E 0F
      -- -- -- -- -- -- -- --  -- -- -- -- -- -- -- --
0570:                5B 41 80  12 50 0F 01 12 50 0F 01       [A..P...P..
0580: 74 6C 6B 30 00                                    tlk0.           
```

#### Opcodes

```
  0: 0x0575 [0x5B] LOAD_EXT_SCHEDULER: Load scheduler "tlk0" with entities [Tovrutaux (ID: 17780754/0x010F5012), Tovrutaux (ID: 17780754/0x010F5012)], work=75*
  1: 0x0584 [0x00] END_REQSTACK()
```

### Event 65535.31

#### Metadata

| Field        | Value    |
|--------------|----------|
| Entrypoint   | 0x0585   |
| Data Size    | 16 bytes |
| Instructions | 2        |

```
      00 01 02 03 04 05 06 07  08 09 0A 0B 0C 0D 0E 0F
      -- -- -- -- -- -- -- --  -- -- -- -- -- -- -- --
0580:                5B 41 80  12 50 0F 01 12 50 0F 01       [A..P...P..
0590: 74 6C 6B 31 00                                    tlk1.           
```

#### Opcodes

```
  0: 0x0585 [0x5B] LOAD_EXT_SCHEDULER: Load scheduler "tlk1" with entities [Tovrutaux (ID: 17780754/0x010F5012), Tovrutaux (ID: 17780754/0x010F5012)], work=75*
  1: 0x0594 [0x00] END_REQSTACK()
```

### Event 65535.32

#### Metadata

| Field        | Value    |
|--------------|----------|
| Entrypoint   | 0x0595   |
| Data Size    | 12 bytes |
| Instructions | 4        |

```
      00 01 02 03 04 05 06 07  08 09 0A 0B 0C 0D 0E 0F
      -- -- -- -- -- -- -- --  -- -- -- -- -- -- -- --
0590:                1F 00 42  80 43 80 21 80 1F 01 6F       ..B.C.!...o
05A0: 00                                                .               
```

#### Opcodes

```
  0: 0x0595 [0x1F] MOVE_ENTITY: EventEntity moves to X=-19.954*, Z=-20.950*, Y=0.000*
  1: 0x059D [0x1F] MOVE_ENTITY: Update entity position (mode=1)
  2: 0x059F [0x6F] WAIT_FRAME_DELAY: Yield until WaitTime reaches zero
  3: 0x05A0 [0x00] END_REQSTACK()
```

### Event 65535.33

#### Metadata

| Field        | Value    |
|--------------|----------|
| Entrypoint   | 0x05A1   |
| Data Size    | 20 bytes |
| Instructions | 5        |

```
      00 01 02 03 04 05 06 07  08 09 0A 0B 0C 0D 0E 0F
      -- -- -- -- -- -- -- --  -- -- -- -- -- -- -- --
05A0:    59 04 13 50 0F 01 2B  80 1F 00 44 80 45 80 30   Y..P..+...D.E.0
05B0: 80 1F 01 6F 00                                    ...o.           
```

#### Opcodes

```
  0: 0x05A1 [0x59] UPDATE_ENTITY_DATA: Set Seyaya (ID: 17780755/0x010F5013) main speed = 11* * 0.1
  1: 0x05A9 [0x1F] MOVE_ENTITY: EventEntity moves to X=-74.699*, Z=-107.115*, Y=5.999*
  2: 0x05B1 [0x1F] MOVE_ENTITY: Update entity position (mode=1)
  3: 0x05B3 [0x6F] WAIT_FRAME_DELAY: Yield until WaitTime reaches zero
  4: 0x05B4 [0x00] END_REQSTACK()
```

### Event 65535.34

#### Metadata

| Field        | Value    |
|--------------|----------|
| Entrypoint   | 0x05B5   |
| Data Size    | 17 bytes |
| Instructions | 2        |

```
      00 01 02 03 04 05 06 07  08 09 0A 0B 0C 0D 0E 0F
      -- -- -- -- -- -- -- --  -- -- -- -- -- -- -- --
05B0:                5B 46 80  13 50 0F 01 13 50 0F 01       [F..P...P..
05C0: 6F 70 61 30 00 00                                 opa0..          
```

#### Opcodes

```
  0: 0x05B5 [0x5B] LOAD_EXT_SCHEDULER: Load scheduler "opa0" with entities [Seyaya (ID: 17780755/0x010F5013), Seyaya (ID: 17780755/0x010F5013)], work=2631*
  1: 0x05C4 [0x00] END_REQSTACK()
```

#### Data or dead code:

```
# Dead code (unreachable instructions):
     0x05C5 [0x00] END_REQSTACK()
```

### Event 65535.35

#### Metadata

| Field        | Value    |
|--------------|----------|
| Entrypoint   | 0x05C6   |
| Data Size    | 17 bytes |
| Instructions | 2        |

```
      00 01 02 03 04 05 06 07  08 09 0A 0B 0C 0D 0E 0F
      -- -- -- -- -- -- -- --  -- -- -- -- -- -- -- --
05C0:                   5B 46  80 13 50 0F 01 13 50 0F        [F..P...P.
05D0: 01 6F 70 61 31 00 00                              .opa1..         
```

#### Opcodes

```
  0: 0x05C6 [0x5B] LOAD_EXT_SCHEDULER: Load scheduler "opa1" with entities [Seyaya (ID: 17780755/0x010F5013), Seyaya (ID: 17780755/0x010F5013)], work=2631*
  1: 0x05D5 [0x00] END_REQSTACK()
```

#### Data or dead code:

```
# Dead code (unreachable instructions):
     0x05D6 [0x00] END_REQSTACK()
```

### Event 65535.36

#### Metadata

| Field        | Value    |
|--------------|----------|
| Entrypoint   | 0x05D7   |
| Data Size    | 16 bytes |
| Instructions | 2        |

```
      00 01 02 03 04 05 06 07  08 09 0A 0B 0C 0D 0E 0F
      -- -- -- -- -- -- -- --  -- -- -- -- -- -- -- --
05D0:                      5B  46 80 13 50 0F 01 13 50         [F..P...P
05E0: 0F 01 6F 70 61 32 00                              ..opa2.         
```

#### Opcodes

```
  0: 0x05D7 [0x5B] LOAD_EXT_SCHEDULER: Load scheduler "opa2" with entities [Seyaya (ID: 17780755/0x010F5013), Seyaya (ID: 17780755/0x010F5013)], work=2631*
  1: 0x05E6 [0x00] END_REQSTACK()
```

### Event 65535.37

#### Metadata

| Field        | Value    |
|--------------|----------|
| Entrypoint   | 0x05E7   |
| Data Size    | 16 bytes |
| Instructions | 2        |

```
      00 01 02 03 04 05 06 07  08 09 0A 0B 0C 0D 0E 0F
      -- -- -- -- -- -- -- --  -- -- -- -- -- -- -- --
05E0:                      5B  47 80 13 50 0F 01 13 50         [G..P...P
05F0: 0F 01 74 68 6B 31 00                              ..thk1.         
```

#### Opcodes

```
  0: 0x05E7 [0x5B] LOAD_EXT_SCHEDULER: Load scheduler "thk1" with entities [Seyaya (ID: 17780755/0x010F5013), Seyaya (ID: 17780755/0x010F5013)], work=85*
  1: 0x05F6 [0x00] END_REQSTACK()
```

### Event 65535.38

#### Metadata

| Field        | Value    |
|--------------|----------|
| Entrypoint   | 0x05F7   |
| Data Size    | 16 bytes |
| Instructions | 2        |

```
      00 01 02 03 04 05 06 07  08 09 0A 0B 0C 0D 0E 0F
      -- -- -- -- -- -- -- --  -- -- -- -- -- -- -- --
05F0:                      5B  47 80 13 50 0F 01 13 50         [G..P...P
0600: 0F 01 74 68 6B 32 00                              ..thk2.         
```

#### Opcodes

```
  0: 0x05F7 [0x5B] LOAD_EXT_SCHEDULER: Load scheduler "thk2" with entities [Seyaya (ID: 17780755/0x010F5013), Seyaya (ID: 17780755/0x010F5013)], work=85*
  1: 0x0606 [0x00] END_REQSTACK()
```

### Event 65535.39

#### Metadata

| Field        | Value    |
|--------------|----------|
| Entrypoint   | 0x0607   |
| Data Size    | 16 bytes |
| Instructions | 2        |

```
      00 01 02 03 04 05 06 07  08 09 0A 0B 0C 0D 0E 0F
      -- -- -- -- -- -- -- --  -- -- -- -- -- -- -- --
0600:                      5B  47 80 13 50 0F 01 13 50         [G..P...P
0610: 0F 01 74 6C 6B 30 00                              ..tlk0.         
```

#### Opcodes

```
  0: 0x0607 [0x5B] LOAD_EXT_SCHEDULER: Load scheduler "tlk0" with entities [Seyaya (ID: 17780755/0x010F5013), Seyaya (ID: 17780755/0x010F5013)], work=85*
  1: 0x0616 [0x00] END_REQSTACK()
```

### Event 65535.40

#### Metadata

| Field        | Value    |
|--------------|----------|
| Entrypoint   | 0x0617   |
| Data Size    | 16 bytes |
| Instructions | 2        |

```
      00 01 02 03 04 05 06 07  08 09 0A 0B 0C 0D 0E 0F
      -- -- -- -- -- -- -- --  -- -- -- -- -- -- -- --
0610:                      5B  47 80 13 50 0F 01 13 50         [G..P...P
0620: 0F 01 74 6C 6B 65 00                              ..tlke.         
```

#### Opcodes

```
  0: 0x0617 [0x5B] LOAD_EXT_SCHEDULER: Load scheduler "tlke" with entities [Seyaya (ID: 17780755/0x010F5013), Seyaya (ID: 17780755/0x010F5013)], work=85*
  1: 0x0626 [0x00] END_REQSTACK()
```

### Event 65535.41

#### Metadata

| Field        | Value    |
|--------------|----------|
| Entrypoint   | 0x0627   |
| Data Size    | 16 bytes |
| Instructions | 2        |

```
      00 01 02 03 04 05 06 07  08 09 0A 0B 0C 0D 0E 0F
      -- -- -- -- -- -- -- --  -- -- -- -- -- -- -- --
0620:                      5B  47 80 13 50 0F 01 13 50         [G..P...P
0630: 0F 01 62 61 6E 30 00                              ..ban0.         
```

#### Opcodes

```
  0: 0x0627 [0x5B] LOAD_EXT_SCHEDULER: Load scheduler "ban0" with entities [Seyaya (ID: 17780755/0x010F5013), Seyaya (ID: 17780755/0x010F5013)], work=85*
  1: 0x0636 [0x00] END_REQSTACK()
```

### Event 65535.42

#### Metadata

| Field        | Value    |
|--------------|----------|
| Entrypoint   | 0x0637   |
| Data Size    | 13 bytes |
| Instructions | 4        |

```
      00 01 02 03 04 05 06 07  08 09 0A 0B 0C 0D 0E 0F
      -- -- -- -- -- -- -- --  -- -- -- -- -- -- -- --
0630:                      1F  00 48 80 49 80 21 80 1F         ..H.I.!..
0640: 01 6F 00 00                                       .o..            
```

#### Opcodes

```
  0: 0x0637 [0x1F] MOVE_ENTITY: EventEntity moves to X=-19.857*, Z=-21.712*, Y=0.000*
  1: 0x063F [0x1F] MOVE_ENTITY: Update entity position (mode=1)
  2: 0x0641 [0x6F] WAIT_FRAME_DELAY: Yield until WaitTime reaches zero
  3: 0x0642 [0x00] END_REQSTACK()
```

#### Data or dead code:

```
# Dead code (unreachable instructions):
     0x0643 [0x00] END_REQSTACK()
```

### Event 65535.43

#### Metadata

| Field        | Value    |
|--------------|----------|
| Entrypoint   | 0x0644   |
| Data Size    | 20 bytes |
| Instructions | 5        |

```
      00 01 02 03 04 05 06 07  08 09 0A 0B 0C 0D 0E 0F
      -- -- -- -- -- -- -- --  -- -- -- -- -- -- -- --
0640:             59 04 C0 50  0F 01 4A 80 1F 00 4B 80      Y..P..J...K.
0650: 4C 80 21 80 1F 01 6F 00                           L.!...o.        
```

#### Opcodes

```
  0: 0x0644 [0x59] UPDATE_ENTITY_DATA: Set Rakuru-Rakoru (ID: 17780928/0x010F50C0) main speed = 14* * 0.1
  1: 0x064C [0x1F] MOVE_ENTITY: EventEntity moves to X=-37.763*, Z=-62.812*, Y=0.000*
  2: 0x0654 [0x1F] MOVE_ENTITY: Update entity position (mode=1)
  3: 0x0656 [0x6F] WAIT_FRAME_DELAY: Yield until WaitTime reaches zero
  4: 0x0657 [0x00] END_REQSTACK()
```

### Event 65535.44

#### Metadata

| Field        | Value    |
|--------------|----------|
| Entrypoint   | 0x0658   |
| Data Size    | 12 bytes |
| Instructions | 4        |

```
      00 01 02 03 04 05 06 07  08 09 0A 0B 0C 0D 0E 0F
      -- -- -- -- -- -- -- --  -- -- -- -- -- -- -- --
0650:                          1F 00 4D 80 4E 80 4F 80          ..M.N.O.
0660: 1F 01 6F 00                                       ..o.            
```

#### Opcodes

```
  0: 0x0658 [0x1F] MOVE_ENTITY: EventEntity moves to X=-13.366*, Z=2.528*, Y=-0.449*
  1: 0x0660 [0x1F] MOVE_ENTITY: Update entity position (mode=1)
  2: 0x0662 [0x6F] WAIT_FRAME_DELAY: Yield until WaitTime reaches zero
  3: 0x0663 [0x00] END_REQSTACK()
```

### Event 65535.45

#### Metadata

| Field        | Value    |
|--------------|----------|
| Entrypoint   | 0x0664   |
| Data Size    | 16 bytes |
| Instructions | 2        |

```
      00 01 02 03 04 05 06 07  08 09 0A 0B 0C 0D 0E 0F
      -- -- -- -- -- -- -- --  -- -- -- -- -- -- -- --
0660:             66 10 80 C0  50 0F 01 C0 50 0F 01 74      f...P...P..t
0670: 6C 6B 30 00                                       lk0.            
```

#### Opcodes

```
  0: 0x0664 [0x66] LOAD_EXT_SCHEDULER_MAIN: Load scheduler "tlk0" with entities [Rakuru-Rakoru (ID: 17780928/0x010F50C0), Rakuru-Rakoru (ID: 17780928/0x010F50C0)], work=40*
  1: 0x0673 [0x00] END_REQSTACK()
```

### Event 65535.46

#### Metadata

| Field        | Value    |
|--------------|----------|
| Entrypoint   | 0x0674   |
| Data Size    | 16 bytes |
| Instructions | 2        |

```
      00 01 02 03 04 05 06 07  08 09 0A 0B 0C 0D 0E 0F
      -- -- -- -- -- -- -- --  -- -- -- -- -- -- -- --
0670:             66 50 80 C0  50 0F 01 C0 50 0F 01 65      fP..P...P..e
0680: 68 6E 31 00                                       hn1.            
```

#### Opcodes

```
  0: 0x0674 [0x66] LOAD_EXT_SCHEDULER_MAIN: Load scheduler "ehn1" with entities [Rakuru-Rakoru (ID: 17780928/0x010F50C0), Rakuru-Rakoru (ID: 17780928/0x010F50C0)], work=41*
  1: 0x0683 [0x00] END_REQSTACK()
```

### Event 65535.47

#### Metadata

| Field        | Value    |
|--------------|----------|
| Entrypoint   | 0x0684   |
| Data Size    | 16 bytes |
| Instructions | 2        |

```
      00 01 02 03 04 05 06 07  08 09 0A 0B 0C 0D 0E 0F
      -- -- -- -- -- -- -- --  -- -- -- -- -- -- -- --
0680:             66 10 80 C0  50 0F 01 C0 50 0F 01 6D      f...P...P..m
0690: 6F 6A 30 00                                       oj0.            
```

#### Opcodes

```
  0: 0x0684 [0x66] LOAD_EXT_SCHEDULER_MAIN: Load scheduler "moj0" with entities [Rakuru-Rakoru (ID: 17780928/0x010F50C0), Rakuru-Rakoru (ID: 17780928/0x010F50C0)], work=40*
  1: 0x0693 [0x00] END_REQSTACK()
```

### Event 65535.48

#### Metadata

| Field        | Value    |
|--------------|----------|
| Entrypoint   | 0x0694   |
| Data Size    | 20 bytes |
| Instructions | 5        |

```
      00 01 02 03 04 05 06 07  08 09 0A 0B 0C 0D 0E 0F
      -- -- -- -- -- -- -- --  -- -- -- -- -- -- -- --
0690:             59 04 C0 50  0F 01 4A 80 1F 00 51 80      Y..P..J...Q.
06A0: 52 80 30 80 1F 01 6F 00                           R.0...o.        
```

#### Opcodes

```
  0: 0x0694 [0x59] UPDATE_ENTITY_DATA: Set Rakuru-Rakoru (ID: 17780928/0x010F50C0) main speed = 14* * 0.1
  1: 0x069C [0x1F] MOVE_ENTITY: EventEntity moves to X=-71.130*, Z=-110.791*, Y=5.999*
  2: 0x06A4 [0x1F] MOVE_ENTITY: Update entity position (mode=1)
  3: 0x06A6 [0x6F] WAIT_FRAME_DELAY: Yield until WaitTime reaches zero
  4: 0x06A7 [0x00] END_REQSTACK()
```

### Event 65535.49

#### Metadata

| Field        | Value    |
|--------------|----------|
| Entrypoint   | 0x06A8   |
| Data Size    | 29 bytes |
| Instructions | 6        |

```
      00 01 02 03 04 05 06 07  08 09 0A 0B 0C 0D 0E 0F
      -- -- -- -- -- -- -- --  -- -- -- -- -- -- -- --
06A0:                          59 04 C0 50 0F 01 4A 80          Y..P..J.
06B0: 1F 00 53 80 54 80 30 80  1F 01 5A 00 55 80 56 80  ..S.T.0...Z.U.V.
06C0: 57 80 5A 01 00                                    W.Z..           
```

#### Opcodes

```
  0: 0x06A8 [0x59] UPDATE_ENTITY_DATA: Set Rakuru-Rakoru (ID: 17780928/0x010F50C0) main speed = 14* * 0.1
  1: 0x06B0 [0x1F] MOVE_ENTITY: EventEntity moves to X=-75.540*, Z=-116.545*, Y=5.999*
  2: 0x06B8 [0x1F] MOVE_ENTITY: Update entity position (mode=1)
  3: 0x06BA [0x5A] UPDATE_EVENT_POSITION: Set EventEntity MovePosition to X=-80.452*, Z=-125.376*, Y=0.999*
  4: 0x06C2 [0x5A] UPDATE_EVENT_POSITION: Move EventEntity incrementally towards MovePosition
  5: 0x06C4 [0x00] END_REQSTACK()
```

### Event 65535.50

#### Metadata

| Field        | Value    |
|--------------|----------|
| Entrypoint   | 0x06C5   |
| Data Size    | 17 bytes |
| Instructions | 2        |

```
      00 01 02 03 04 05 06 07  08 09 0A 0B 0C 0D 0E 0F
      -- -- -- -- -- -- -- --  -- -- -- -- -- -- -- --
06C0:                5B 58 80  C0 50 0F 01 C0 50 0F 01       [X..P...P..
06D0: 62 6F 70 30 00 00                                 bop0..          
```

#### Opcodes

```
  0: 0x06C5 [0x5B] LOAD_EXT_SCHEDULER: Load scheduler "bop0" with entities [Rakuru-Rakoru (ID: 17780928/0x010F50C0), Rakuru-Rakoru (ID: 17780928/0x010F50C0)], work=2611*
  1: 0x06D4 [0x00] END_REQSTACK()
```

#### Data or dead code:

```
# Dead code (unreachable instructions):
     0x06D5 [0x00] END_REQSTACK()
```

### Event 65535.51

#### Metadata

| Field        | Value    |
|--------------|----------|
| Entrypoint   | 0x06D6   |
| Data Size    | 20 bytes |
| Instructions | 5        |

```
      00 01 02 03 04 05 06 07  08 09 0A 0B 0C 0D 0E 0F
      -- -- -- -- -- -- -- --  -- -- -- -- -- -- -- --
06D0:                   59 04  25 50 0F 01 59 80 1F 00        Y.%P..Y...
06E0: 32 80 33 80 21 80 1F 01  6F 00                    2.3.!...o.      
```

#### Opcodes

```
  0: 0x06D6 [0x59] UPDATE_ENTITY_DATA: Set Sutarara (ID: 17780773/0x010F5025) main speed = 13* * 0.1
  1: 0x06DE [0x1F] MOVE_ENTITY: EventEntity moves to X=-83.944*, Z=-128.625*, Y=0.000*
  2: 0x06E6 [0x1F] MOVE_ENTITY: Update entity position (mode=1)
  3: 0x06E8 [0x6F] WAIT_FRAME_DELAY: Yield until WaitTime reaches zero
  4: 0x06E9 [0x00] END_REQSTACK()
```

### Event 65535.52

#### Metadata

| Field        | Value    |
|--------------|----------|
| Entrypoint   | 0x06EA   |
| Data Size    | 20 bytes |
| Instructions | 5        |

```
      00 01 02 03 04 05 06 07  08 09 0A 0B 0C 0D 0E 0F
      -- -- -- -- -- -- -- --  -- -- -- -- -- -- -- --
06E0:                                59 04 25 50 0F 01            Y.%P..
06F0: 59 80 1F 00 5A 80 5B 80  30 80 1F 01 6F 00        Y...Z.[.0...o.  
```

#### Opcodes

```
  0: 0x06EA [0x59] UPDATE_ENTITY_DATA: Set Sutarara (ID: 17780773/0x010F5025) main speed = 13* * 0.1
  1: 0x06F2 [0x1F] MOVE_ENTITY: EventEntity moves to X=-64.287*, Z=-102.136*, Y=5.999*
  2: 0x06FA [0x1F] MOVE_ENTITY: Update entity position (mode=1)
  3: 0x06FC [0x6F] WAIT_FRAME_DELAY: Yield until WaitTime reaches zero
  4: 0x06FD [0x00] END_REQSTACK()
```

### Event 65535.53

#### Metadata

| Field        | Value    |
|--------------|----------|
| Entrypoint   | 0x06FE   |
| Data Size    | 20 bytes |
| Instructions | 5        |

```
      00 01 02 03 04 05 06 07  08 09 0A 0B 0C 0D 0E 0F
      -- -- -- -- -- -- -- --  -- -- -- -- -- -- -- --
06F0:                                            59 04                Y.
0700: 25 50 0F 01 59 80 1F 00  5C 80 5D 80 21 80 1F 01  %P..Y...\.].!...
0710: 6F 00                                             o.              
```

#### Opcodes

```
  0: 0x06FE [0x59] UPDATE_ENTITY_DATA: Set Sutarara (ID: 17780773/0x010F5025) main speed = 13* * 0.1
  1: 0x0706 [0x1F] MOVE_ENTITY: EventEntity moves to X=4.236*, Z=4.336*, Y=0.000*
  2: 0x070E [0x1F] MOVE_ENTITY: Update entity position (mode=1)
  3: 0x0710 [0x6F] WAIT_FRAME_DELAY: Yield until WaitTime reaches zero
  4: 0x0711 [0x00] END_REQSTACK()
```

### Event 65535.54

#### Metadata

| Field        | Value    |
|--------------|----------|
| Entrypoint   | 0x0712   |
| Data Size    | 20 bytes |
| Instructions | 5        |

```
      00 01 02 03 04 05 06 07  08 09 0A 0B 0C 0D 0E 0F
      -- -- -- -- -- -- -- --  -- -- -- -- -- -- -- --
0710:       59 04 34 50 0F 01  28 80 1F 00 5E 80 5F 80    Y.4P..(...^._.
0720: 60 80 1F 01 6F 00                                 `...o.          
```

#### Opcodes

```
  0: 0x0712 [0x59] UPDATE_ENTITY_DATA: Set Venika (ID: 17780788/0x010F5034) main speed = 12* * 0.1
  1: 0x071A [0x1F] MOVE_ENTITY: EventEntity moves to X=-15.376*, Z=-23.775*, Y=-0.101*
  2: 0x0722 [0x1F] MOVE_ENTITY: Update entity position (mode=1)
  3: 0x0724 [0x6F] WAIT_FRAME_DELAY: Yield until WaitTime reaches zero
  4: 0x0725 [0x00] END_REQSTACK()
```

### Event 65535.55

#### Metadata

| Field        | Value    |
|--------------|----------|
| Entrypoint   | 0x0726   |
| Data Size    | 20 bytes |
| Instructions | 5        |

```
      00 01 02 03 04 05 06 07  08 09 0A 0B 0C 0D 0E 0F
      -- -- -- -- -- -- -- --  -- -- -- -- -- -- -- --
0720:                   59 04  34 50 0F 01 61 80 1F 00        Y.4P..a...
0730: 5A 80 5B 80 30 80 1F 01  6F 00                    Z.[.0...o.      
```

#### Opcodes

```
  0: 0x0726 [0x59] UPDATE_ENTITY_DATA: Set Venika (ID: 17780788/0x010F5034) main speed = 10* * 0.1
  1: 0x072E [0x1F] MOVE_ENTITY: EventEntity moves to X=-64.287*, Z=-102.136*, Y=5.999*
  2: 0x0736 [0x1F] MOVE_ENTITY: Update entity position (mode=1)
  3: 0x0738 [0x6F] WAIT_FRAME_DELAY: Yield until WaitTime reaches zero
  4: 0x0739 [0x00] END_REQSTACK()
```

### Event 65535.56

#### Metadata

| Field        | Value    |
|--------------|----------|
| Entrypoint   | 0x073A   |
| Data Size    | 16 bytes |
| Instructions | 2        |

```
      00 01 02 03 04 05 06 07  08 09 0A 0B 0C 0D 0E 0F
      -- -- -- -- -- -- -- --  -- -- -- -- -- -- -- --
0730:                                5B 62 80 34 50 0F            [b.4P.
0740: 01 34 50 0F 01 6F 70 62  30 00                    .4P..opb0.      
```

#### Opcodes

```
  0: 0x073A [0x5B] LOAD_EXT_SCHEDULER: Load scheduler "opb0" with entities [Venika (ID: 17780788/0x010F5034), Venika (ID: 17780788/0x010F5034)], work=2584*
  1: 0x0749 [0x00] END_REQSTACK()
```

### Event 65535.57

#### Metadata

| Field        | Value    |
|--------------|----------|
| Entrypoint   | 0x074A   |
| Data Size    | 16 bytes |
| Instructions | 2        |

```
      00 01 02 03 04 05 06 07  08 09 0A 0B 0C 0D 0E 0F
      -- -- -- -- -- -- -- --  -- -- -- -- -- -- -- --
0740:                                5B 62 80 34 50 0F            [b.4P.
0750: 01 34 50 0F 01 6F 70 62  31 00                    .4P..opb1.      
```

#### Opcodes

```
  0: 0x074A [0x5B] LOAD_EXT_SCHEDULER: Load scheduler "opb1" with entities [Venika (ID: 17780788/0x010F5034), Venika (ID: 17780788/0x010F5034)], work=2584*
  1: 0x0759 [0x00] END_REQSTACK()
```

### Event 65535.58

#### Metadata

| Field        | Value    |
|--------------|----------|
| Entrypoint   | 0x075A   |
| Data Size    | 20 bytes |
| Instructions | 5        |

```
      00 01 02 03 04 05 06 07  08 09 0A 0B 0C 0D 0E 0F
      -- -- -- -- -- -- -- --  -- -- -- -- -- -- -- --
0750:                                59 04 34 50 0F 01            Y.4P..
0760: 28 80 1F 00 63 80 64 80  21 80 1F 01 6F 00        (...c.d.!...o.  
```

#### Opcodes

```
  0: 0x075A [0x59] UPDATE_ENTITY_DATA: Set Venika (ID: 17780788/0x010F5034) main speed = 12* * 0.1
  1: 0x0762 [0x1F] MOVE_ENTITY: EventEntity moves to X=-0.991*, Z=2.123*, Y=0.000*
  2: 0x076A [0x1F] MOVE_ENTITY: Update entity position (mode=1)
  3: 0x076C [0x6F] WAIT_FRAME_DELAY: Yield until WaitTime reaches zero
  4: 0x076D [0x00] END_REQSTACK()
```

### Event 65535.59

#### Metadata

| Field        | Value    |
|--------------|----------|
| Entrypoint   | 0x076E   |
| Data Size    | 16 bytes |
| Instructions | 2        |

```
      00 01 02 03 04 05 06 07  08 09 0A 0B 0C 0D 0E 0F
      -- -- -- -- -- -- -- --  -- -- -- -- -- -- -- --
0760:                                            5B 62                [b
0770: 80 34 50 0F 01 34 50 0F  01 6F 70 63 30 00        .4P..4P..opc0.  
```

#### Opcodes

```
  0: 0x076E [0x5B] LOAD_EXT_SCHEDULER: Load scheduler "opc0" with entities [Venika (ID: 17780788/0x010F5034), Venika (ID: 17780788/0x010F5034)], work=2584*
  1: 0x077D [0x00] END_REQSTACK()
```

### Event 65535.60

#### Metadata

| Field        | Value    |
|--------------|----------|
| Entrypoint   | 0x077E   |
| Data Size    | 16 bytes |
| Instructions | 2        |

```
      00 01 02 03 04 05 06 07  08 09 0A 0B 0C 0D 0E 0F
      -- -- -- -- -- -- -- --  -- -- -- -- -- -- -- --
0770:                                            5B 62                [b
0780: 80 34 50 0F 01 34 50 0F  01 6F 70 63 31 00        .4P..4P..opc1.  
```

#### Opcodes

```
  0: 0x077E [0x5B] LOAD_EXT_SCHEDULER: Load scheduler "opc1" with entities [Venika (ID: 17780788/0x010F5034), Venika (ID: 17780788/0x010F5034)], work=2584*
  1: 0x078D [0x00] END_REQSTACK()
```

### Event 65535.61

#### Metadata

| Field        | Value    |
|--------------|----------|
| Entrypoint   | 0x078E   |
| Data Size    | 16 bytes |
| Instructions | 2        |

```
      00 01 02 03 04 05 06 07  08 09 0A 0B 0C 0D 0E 0F
      -- -- -- -- -- -- -- --  -- -- -- -- -- -- -- --
0780:                                            66 65                fe
0790: 80 36 50 0F 01 36 50 0F  01 61 77 77 30 00        .6P..6P..aww0.  
```

#### Opcodes

```
  0: 0x078E [0x66] LOAD_EXT_SCHEDULER_MAIN: Load scheduler "aww0" with entities [Kuah Dakonsa (ID: 17780790/0x010F5036), Kuah Dakonsa (ID: 17780790/0x010F5036)], work=8*
  1: 0x079D [0x00] END_REQSTACK()
```

### Event 65535.62

#### Metadata

| Field        | Value    |
|--------------|----------|
| Entrypoint   | 0x079E   |
| Data Size    | 16 bytes |
| Instructions | 2        |

```
      00 01 02 03 04 05 06 07  08 09 0A 0B 0C 0D 0E 0F
      -- -- -- -- -- -- -- --  -- -- -- -- -- -- -- --
0790:                                            66 66                ff
07A0: 80 36 50 0F 01 36 50 0F  01 74 68 6B 31 00        .6P..6P..thk1.  
```

#### Opcodes

```
  0: 0x079E [0x66] LOAD_EXT_SCHEDULER_MAIN: Load scheduler "thk1" with entities [Kuah Dakonsa (ID: 17780790/0x010F5036), Kuah Dakonsa (ID: 17780790/0x010F5036)], work=51*
  1: 0x07AD [0x00] END_REQSTACK()
```

### Event 65535.63

#### Metadata

| Field        | Value    |
|--------------|----------|
| Entrypoint   | 0x07AE   |
| Data Size    | 21 bytes |
| Instructions | 5        |

```
      00 01 02 03 04 05 06 07  08 09 0A 0B 0C 0D 0E 0F
      -- -- -- -- -- -- -- --  -- -- -- -- -- -- -- --
07A0:                                            59 04                Y.
07B0: 32 50 0F 01 28 80 1F 00  67 80 68 80 30 80 1F 01  2P..(...g.h.0...
07C0: 6F 00 00                                          o..             
```

#### Opcodes

```
  0: 0x07AE [0x59] UPDATE_ENTITY_DATA: Set Gurdern (ID: 17780786/0x010F5032) main speed = 12* * 0.1
  1: 0x07B6 [0x1F] MOVE_ENTITY: EventEntity moves to X=-61.958*, Z=-103.267*, Y=5.999*
  2: 0x07BE [0x1F] MOVE_ENTITY: Update entity position (mode=1)
  3: 0x07C0 [0x6F] WAIT_FRAME_DELAY: Yield until WaitTime reaches zero
  4: 0x07C1 [0x00] END_REQSTACK()
```

#### Data or dead code:

```
# Dead code (unreachable instructions):
     0x07C2 [0x00] END_REQSTACK()
```

### Event 65535.64

#### Metadata

| Field        | Value    |
|--------------|----------|
| Entrypoint   | 0x07C3   |
| Data Size    | 20 bytes |
| Instructions | 5        |

```
      00 01 02 03 04 05 06 07  08 09 0A 0B 0C 0D 0E 0F
      -- -- -- -- -- -- -- --  -- -- -- -- -- -- -- --
07C0:          59 04 32 50 0F  01 28 80 1F 00 69 80 6A     Y.2P..(...i.j
07D0: 80 30 80 1F 01 6F 00                              .0...o.         
```

#### Opcodes

```
  0: 0x07C3 [0x59] UPDATE_ENTITY_DATA: Set Gurdern (ID: 17780786/0x010F5032) main speed = 12* * 0.1
  1: 0x07CB [0x1F] MOVE_ENTITY: EventEntity moves to X=-66.589*, Z=-92.299*, Y=5.999*
  2: 0x07D3 [0x1F] MOVE_ENTITY: Update entity position (mode=1)
  3: 0x07D5 [0x6F] WAIT_FRAME_DELAY: Yield until WaitTime reaches zero
  4: 0x07D6 [0x00] END_REQSTACK()
```

### Event 65535.65

#### Metadata

| Field        | Value    |
|--------------|----------|
| Entrypoint   | 0x07D7   |
| Data Size    | 20 bytes |
| Instructions | 5        |

```
      00 01 02 03 04 05 06 07  08 09 0A 0B 0C 0D 0E 0F
      -- -- -- -- -- -- -- --  -- -- -- -- -- -- -- --
07D0:                      59  04 32 50 0F 01 28 80 1F         Y.2P..(..
07E0: 00 6B 80 6C 80 30 80 1F  01 6F 00                 .k.l.0...o.     
```

#### Opcodes

```
  0: 0x07D7 [0x59] UPDATE_ENTITY_DATA: Set Gurdern (ID: 17780786/0x010F5032) main speed = 12* * 0.1
  1: 0x07DF [0x1F] MOVE_ENTITY: EventEntity moves to X=-58.931*, Z=-86.942*, Y=5.999*
  2: 0x07E7 [0x1F] MOVE_ENTITY: Update entity position (mode=1)
  3: 0x07E9 [0x6F] WAIT_FRAME_DELAY: Yield until WaitTime reaches zero
  4: 0x07EA [0x00] END_REQSTACK()
```

### Event 65535.66

#### Metadata

| Field        | Value    |
|--------------|----------|
| Entrypoint   | 0x07EB   |
| Data Size    | 17 bytes |
| Instructions | 2        |

```
      00 01 02 03 04 05 06 07  08 09 0A 0B 0C 0D 0E 0F
      -- -- -- -- -- -- -- --  -- -- -- -- -- -- -- --
07E0:                                   5B 3F 80 32 50             [?.2P
07F0: 0F 01 32 50 0F 01 6F 70  30 30 00 00              ..2P..op00..    
```

#### Opcodes

```
  0: 0x07EB [0x5B] LOAD_EXT_SCHEDULER: Load scheduler "op00" with entities [Gurdern (ID: 17780786/0x010F5032), Gurdern (ID: 17780786/0x010F5032)], work=2621*
  1: 0x07FA [0x00] END_REQSTACK()
```

#### Data or dead code:

```
# Dead code (unreachable instructions):
     0x07FB [0x00] END_REQSTACK()
```

### Event 65535.67

#### Metadata

| Field        | Value    |
|--------------|----------|
| Entrypoint   | 0x07FC   |
| Data Size    | 20 bytes |
| Instructions | 5        |

```
      00 01 02 03 04 05 06 07  08 09 0A 0B 0C 0D 0E 0F
      -- -- -- -- -- -- -- --  -- -- -- -- -- -- -- --
07F0:                                      59 04 1C 50              Y..P
0800: 0F 01 2B 80 1F 00 2C 80  2D 80 21 80 1F 01 6F 00  ..+...,.-.!...o.
```

#### Opcodes

```
  0: 0x07FC [0x59] UPDATE_ENTITY_DATA: Set Mertaire (ID: 17780764/0x010F501C) main speed = 11* * 0.1
  1: 0x0804 [0x1F] MOVE_ENTITY: EventEntity moves to X=-95.337*, Z=-156.056*, Y=0.000*
  2: 0x080C [0x1F] MOVE_ENTITY: Update entity position (mode=1)
  3: 0x080E [0x6F] WAIT_FRAME_DELAY: Yield until WaitTime reaches zero
  4: 0x080F [0x00] END_REQSTACK()
```

### Event 65535.68

#### Metadata

| Field        | Value    |
|--------------|----------|
| Entrypoint   | 0x0810   |
| Data Size    | 20 bytes |
| Instructions | 5        |

```
      00 01 02 03 04 05 06 07  08 09 0A 0B 0C 0D 0E 0F
      -- -- -- -- -- -- -- --  -- -- -- -- -- -- -- --
0810: 59 04 1C 50 0F 01 2B 80  1F 00 6D 80 6E 80 6F 80  Y..P..+...m.n.o.
0820: 1F 01 6F 00                                       ..o.            
```

#### Opcodes

```
  0: 0x0810 [0x59] UPDATE_ENTITY_DATA: Set Mertaire (ID: 17780764/0x010F501C) main speed = 11* * 0.1
  1: 0x0818 [0x1F] MOVE_ENTITY: EventEntity moves to X=-78.197*, Z=-116.328*, Y=3.999*
  2: 0x0820 [0x1F] MOVE_ENTITY: Update entity position (mode=1)
  3: 0x0822 [0x6F] WAIT_FRAME_DELAY: Yield until WaitTime reaches zero
  4: 0x0823 [0x00] END_REQSTACK()
```

### Event 65535.69

#### Metadata

| Field        | Value    |
|--------------|----------|
| Entrypoint   | 0x0824   |
| Data Size    | 16 bytes |
| Instructions | 2        |

```
      00 01 02 03 04 05 06 07  08 09 0A 0B 0C 0D 0E 0F
      -- -- -- -- -- -- -- --  -- -- -- -- -- -- -- --
0820:             5B 70 80 1C  50 0F 01 1C 50 0F 01 6F      [p..P...P..o
0830: 70 63 30 00                                       pc0.            
```

#### Opcodes

```
  0: 0x0824 [0x5B] LOAD_EXT_SCHEDULER: Load scheduler "opc0" with entities [Mertaire (ID: 17780764/0x010F501C), Mertaire (ID: 17780764/0x010F501C)], work=2583*
  1: 0x0833 [0x00] END_REQSTACK()
```

### Event 65535.70

#### Metadata

| Field        | Value    |
|--------------|----------|
| Entrypoint   | 0x0834   |
| Data Size    | 16 bytes |
| Instructions | 2        |

```
      00 01 02 03 04 05 06 07  08 09 0A 0B 0C 0D 0E 0F
      -- -- -- -- -- -- -- --  -- -- -- -- -- -- -- --
0830:             5B 70 80 1C  50 0F 01 1C 50 0F 01 6F      [p..P...P..o
0840: 70 63 31 00                                       pc1.            
```

#### Opcodes

```
  0: 0x0834 [0x5B] LOAD_EXT_SCHEDULER: Load scheduler "opc1" with entities [Mertaire (ID: 17780764/0x010F501C), Mertaire (ID: 17780764/0x010F501C)], work=2583*
  1: 0x0843 [0x00] END_REQSTACK()
```

### Event 65535.71

#### Metadata

| Field        | Value    |
|--------------|----------|
| Entrypoint   | 0x0844   |
| Data Size    | 21 bytes |
| Instructions | 5        |

```
