# 17780779 - Amhu Sabaroleka

## Common Data

| Field            | Value                 |
|------------------|-----------------------|
| Zone             | Lower Jeuno (ID: 245) |
| Block Size       | 2592 bytes            |
| Total Events     | 100                   |
| References Count | 104                   |

## List of Events

| Event ID                   | Entrypoint   |   Size |   Instructions |
|----------------------------|--------------|--------|----------------|
| [65535](#event-65535)      | 0x0000       |      1 |              1 |
| [14](#event-14)            | 0x0001       |     54 |             10 |
| [10094](#event-10094)      | 0x0037       |      5 |              3 |
| [65535.1](#event-655351)   | 0x003C       |     20 |              5 |
| [65535.2](#event-655352)   | 0x0050       |     20 |              5 |
| [65535.3](#event-655353)   | 0x0064       |     20 |              5 |
| [65535.4](#event-655354)   | 0x0078       |     17 |              3 |
| [65535.5](#event-655355)   | 0x0089       |     20 |              5 |
| [65535.6](#event-655356)   | 0x009D       |     20 |              5 |
| [65535.7](#event-655357)   | 0x00B1       |     19 |              4 |
| [65535.8](#event-655358)   | 0x00C4       |     19 |              4 |
| [65535.9](#event-655359)   | 0x00D7       |     16 |              2 |
| [65535.10](#event-6553510) | 0x00E7       |     16 |              2 |
| [65535.11](#event-6553511) | 0x00F7       |     20 |              5 |
| [65535.12](#event-6553512) | 0x010B       |     16 |              2 |
| [65535.13](#event-6553513) | 0x011B       |     16 |              2 |
| [65535.14](#event-6553514) | 0x012B       |     16 |              2 |
| [65535.15](#event-6553515) | 0x013B       |     21 |              6 |
| [65535.16](#event-6553516) | 0x0150       |     16 |              2 |
| [65535.17](#event-6553517) | 0x0160       |     16 |              2 |
| [65535.18](#event-6553518) | 0x0170       |     20 |              5 |
| [65535.19](#event-6553519) | 0x0184       |     17 |              3 |
| [65535.20](#event-6553520) | 0x0195       |     20 |              5 |
| [65535.21](#event-6553521) | 0x01A9       |     16 |              2 |
| [65535.22](#event-6553522) | 0x01B9       |     16 |              2 |
| [65535.23](#event-6553523) | 0x01C9       |     16 |              2 |
| [65535.24](#event-6553524) | 0x01D9       |     16 |              2 |
| [65535.25](#event-6553525) | 0x01E9       |     16 |              2 |
| [65535.26](#event-6553526) | 0x01F9       |     16 |              2 |
| [65535.27](#event-6553527) | 0x0209       |     16 |              2 |
| [65535.28](#event-6553528) | 0x0219       |     12 |              4 |
| [65535.29](#event-6553529) | 0x0225       |     20 |              5 |
| [65535.30](#event-6553530) | 0x0239       |     17 |              3 |
| [65535.31](#event-6553531) | 0x024A       |     17 |              3 |
| [65535.32](#event-6553532) | 0x025B       |     16 |              2 |
| [65535.33](#event-6553533) | 0x026B       |     16 |              2 |
| [65535.34](#event-6553534) | 0x027B       |     16 |              2 |
| [65535.35](#event-6553535) | 0x028B       |     16 |              2 |
| [65535.36](#event-6553536) | 0x029B       |     16 |              2 |
| [65535.37](#event-6553537) | 0x02AB       |     16 |              2 |
| [65535.38](#event-6553538) | 0x02BB       |     13 |              5 |
| [65535.39](#event-6553539) | 0x02C8       |     20 |              5 |
| [65535.40](#event-6553540) | 0x02DC       |     12 |              4 |
| [65535.41](#event-6553541) | 0x02E8       |     16 |              2 |
| [65535.42](#event-6553542) | 0x02F8       |     16 |              2 |
| [65535.43](#event-6553543) | 0x0308       |     16 |              2 |
| [65535.44](#event-6553544) | 0x0318       |     20 |              5 |
| [65535.45](#event-6553545) | 0x032C       |     29 |              6 |
| [65535.46](#event-6553546) | 0x0349       |     17 |              3 |
| [65535.47](#event-6553547) | 0x035A       |     20 |              5 |
| [65535.48](#event-6553548) | 0x036E       |     20 |              5 |
| [65535.49](#event-6553549) | 0x0382       |     20 |              5 |
| [65535.50](#event-6553550) | 0x0396       |     20 |              5 |
| [65535.51](#event-6553551) | 0x03AA       |     20 |              5 |
| [65535.52](#event-6553552) | 0x03BE       |     16 |              2 |
| [65535.53](#event-6553553) | 0x03CE       |     16 |              2 |
| [65535.54](#event-6553554) | 0x03DE       |     20 |              5 |
| [65535.55](#event-6553555) | 0x03F2       |     16 |              2 |
| [65535.56](#event-6553556) | 0x0402       |     16 |              2 |
| [65535.57](#event-6553557) | 0x0412       |     16 |              2 |
| [65535.58](#event-6553558) | 0x0422       |     16 |              2 |
| [65535.59](#event-6553559) | 0x0432       |     21 |              6 |
| [65535.60](#event-6553560) | 0x0447       |     20 |              5 |
| [65535.61](#event-6553561) | 0x045B       |     20 |              5 |
| [65535.62](#event-6553562) | 0x046F       |     17 |              3 |
| [65535.63](#event-6553563) | 0x0480       |     20 |              5 |
| [65535.64](#event-6553564) | 0x0494       |     20 |              5 |
| [65535.65](#event-6553565) | 0x04A8       |     16 |              2 |
| [65535.66](#event-6553566) | 0x04B8       |     16 |              2 |
| [65535.67](#event-6553567) | 0x04C8       |     21 |              6 |
| [65535.68](#event-6553568) | 0x04DD       |     20 |              5 |
| [65535.69](#event-6553569) | 0x04F1       |     20 |              5 |
| [65535.70](#event-6553570) | 0x0505       |     16 |              2 |
| [65535.71](#event-6553571) | 0x0515       |     20 |              5 |
| [65535.72](#event-6553572) | 0x0529       |     21 |              6 |
| [65535.73](#event-6553573) | 0x053E       |     20 |              5 |
| [65535.74](#event-6553574) | 0x0552       |     12 |              4 |
| [65535.75](#event-6553575) | 0x055E       |     16 |              2 |
| [65535.76](#event-6553576) | 0x056E       |     16 |              2 |
| [65535.77](#event-6553577) | 0x057E       |     20 |              5 |
| [65535.78](#event-6553578) | 0x0592       |     20 |              5 |
| [65535.79](#event-6553579) | 0x05A6       |     17 |              3 |
| [65535.80](#event-6553580) | 0x05B7       |     16 |              2 |
| [65535.81](#event-6553581) | 0x05C7       |     16 |              2 |
| [65535.82](#event-6553582) | 0x05D7       |     16 |              2 |
| [65535.83](#event-6553583) | 0x05E7       |     16 |              2 |
| [65535.84](#event-6553584) | 0x05F7       |     17 |              3 |
| [65535.85](#event-6553585) | 0x0608       |     20 |              5 |
| [65535.86](#event-6553586) | 0x061C       |     12 |              4 |
| [65535.87](#event-6553587) | 0x0628       |     16 |              2 |
| [65535.88](#event-6553588) | 0x0638       |     16 |              2 |
| [65535.89](#event-6553589) | 0x0648       |     16 |              2 |
| [65535.90](#event-6553590) | 0x0658       |     16 |              2 |
| [65535.91](#event-6553591) | 0x0668       |     16 |              2 |
| [65535.92](#event-6553592) | 0x0678       |     16 |              2 |
| [65535.93](#event-6553593) | 0x0688       |     16 |              2 |
| [65535.94](#event-6553594) | 0x0698       |     20 |              5 |
| [65535.95](#event-6553595) | 0x06AC       |     20 |              5 |
| [65535.96](#event-6553596) | 0x06C0       |     16 |              2 |
| [65535.97](#event-6553597) | 0x06D0       |     16 |              2 |

## DAT References (imed_data)

|   Index | Hex Value   |   Dec Value |
|---------|-------------|-------------|
|       0 | 0x0032      |          50 |
|       1 | 0x1E57      |        7767 |
|       2 | 0x1E58      |        7768 |
|       3 | 0x0001      |           1 |
|       4 | 0x000C      |          12 |
|       5 | 0xFFFED6C4  |  4294891204 |
|       6 | 0xFFFDEB5B  |  4294830939 |
|       7 | 0x0000      |           0 |
|       8 | 0x000B      |          11 |
|       9 | 0xFFFE8B97  |  4294871959 |
|      10 | 0xFFFD9E68  |  4294811240 |
|      11 | 0xFFFF0D87  |  4294905223 |
|      12 | 0xFFFEA0EF  |  4294877423 |
|      13 | 0x176F      |        5999 |
|      14 | 0x0A3A      |        2618 |
|      15 | 0xFFFEB818  |  4294883352 |
|      16 | 0xFFFE098F  |  4294838671 |
|      17 | 0xFFFEF410  |  4294898704 |
|      18 | 0xFFFE85B9  |  4294870457 |
|      19 | 0xFFFEEC91  |  4294896785 |
|      20 | 0xFFFE6EA2  |  4294864546 |
|      21 | 0x0A2A      |        2602 |
|      22 | 0xFFFEE552  |  4294894930 |
|      23 | 0xFFFE3269  |  4294849129 |
|      24 | 0x0A39      |        2617 |
|      25 | 0x0045      |          69 |
|      26 | 0xFFFF2160  |  4294910304 |
|      27 | 0xFFFEA80E  |  4294879246 |
|      28 | 0x0A3D      |        2621 |
|      29 | 0x0A43      |        2627 |
|      30 | 0x004B      |          75 |
|      31 | 0xFFFFB20E  |  4294947342 |
|      32 | 0xFFFFAE2A  |  4294946346 |
|      33 | 0xFFFEDC35  |  4294892597 |
|      34 | 0xFFFE5D95  |  4294860181 |
|      35 | 0x0A47      |        2631 |
|      36 | 0x0055      |          85 |
|      37 | 0xFFFFB26F  |  4294947439 |
|      38 | 0xFFFFAB30  |  4294945584 |
|      39 | 0x000E      |          14 |
|      40 | 0xFFFF6C7D  |  4294929533 |
|      41 | 0xFFFF0AA4  |  4294904484 |
|      42 | 0xFFFFCBCA  |  4294953930 |
|      43 | 0x09E0      |        2528 |
|      44 | 0xFFFFFE3F  |  4294966847 |
|      45 | 0x0028      |          40 |
|      46 | 0x0029      |          41 |
|      47 | 0xFFFEEA26  |  4294896166 |
|      48 | 0xFFFE4F39  |  4294856505 |
|      49 | 0xFFFED8EC  |  4294891756 |
|      50 | 0xFFFE38BF  |  4294850751 |
|      51 | 0xFFFEC5BC  |  4294886844 |
|      52 | 0xFFFE1640  |  4294841920 |
|      53 | 0x03E7      |         999 |
|      54 | 0x0A33      |        2611 |
|      55 | 0x000D      |          13 |
|      56 | 0xFFFF04E1  |  4294903009 |
|      57 | 0xFFFE7108  |  4294865160 |
|      58 | 0x108C      |        4236 |
|      59 | 0x10F0      |        4336 |
|      60 | 0xFFFFC3F0  |  4294951920 |
|      61 | 0xFFFFA321  |  4294943521 |
|      62 | 0xFFFFFF9B  |  4294967195 |
|      63 | 0x000A      |          10 |
|      64 | 0x0A18      |        2584 |
|      65 | 0xFFFFFC21  |  4294966305 |
|      66 | 0x084B      |        2123 |
|      67 | 0x0008      |           8 |
|      68 | 0x0033      |          51 |
|      69 | 0xFFFF0DFA  |  4294905338 |
|      70 | 0xFFFE6C9D  |  4294864029 |
|      71 | 0xFFFEFBE3  |  4294900707 |
|      72 | 0xFFFE9775  |  4294874997 |
|      73 | 0xFFFF19CD  |  4294908365 |
|      74 | 0xFFFEAC62  |  4294880354 |
|      75 | 0xFFFECE8B  |  4294889099 |
|      76 | 0xFFFE3998  |  4294850968 |
|      77 | 0x0F9F      |        3999 |
|      78 | 0x0A17      |        2583 |
|      79 | 0xFFFFD965  |  4294957413 |
|      80 | 0xFFFFD99E  |  4294957470 |
|      81 | 0x0009      |           9 |
|      82 | 0xFFFEE68C  |  4294895244 |
|      83 | 0xFFFE6FBD  |  4294864829 |
|      84 | 0xFFFFE923  |  4294961443 |
|      85 | 0xFFFFEBBA  |  4294962106 |
|      86 | 0xFFFF4F66  |  4294922086 |
|      87 | 0xFFFEA394  |  4294878100 |
|      88 | 0xFFFFE891  |  4294961297 |
|      89 | 0xFFFFB859  |  4294948953 |
|      90 | 0xFFFFDFA2  |  4294959010 |
|      91 | 0xFFFFB9ED  |  4294949357 |
|      92 | 0xFFFFBF3D  |  4294950717 |
|      93 | 0xFFFFF407  |  4294964231 |
|      94 | 0xFFFFE105  |  4294959365 |
|      95 | 0x003C      |          60 |
|      96 | 0x0A40      |        2624 |
|      97 | 0xFFFF6A1D  |  4294928925 |
|      98 | 0xFFFEF858  |  4294899800 |
|      99 | 0xFFFFEA43  |  4294961731 |
|     100 | 0xFFFFF8F4  |  4294965492 |
|     101 | 0x0002      |           2 |
|     102 | 0xFFFFF533  |  4294964531 |
|     103 | 0x13C3      |        5059 |

## String References

- **7767**: Oh, dear... There are so many to choose from! I don't know what to pick. By the way, do you think this looks good on me?
- **7768**: I don't think it does. I need something that jumps out and screams "me." Hmm... What to choose...

## Events

### Event 65535

#### Metadata

| Field        | Value   |
|--------------|---------|
| Entrypoint   | 0x0000  |
| Data Size    | 1 bytes |
| Instructions | 1       |

```
      00 01 02 03 04 05 06 07  08 09 0A 0B 0C 0D 0E 0F
      -- -- -- -- -- -- -- --  -- -- -- -- -- -- -- --
0000: 00                                                .               
```

#### Opcodes

```
  0: 0x0000 [0x00] END_REQSTACK()
```

### Event 14

#### Metadata

| Field        | Value    |
|--------------|----------|
| Entrypoint   | 0x0001   |
| Data Size    | 54 bytes |
| Instructions | 9        |

```
      00 01 02 03 04 05 06 07  08 09 0A 0B 0C 0D 0E 0F
      -- -- -- -- -- -- -- --  -- -- -- -- -- -- -- --
0000:    66 00 80 F8 FF FF 7F  F8 FF FF 7F 74 68 6B 31   f..........thk1
0010: 1D 01 80 23 1D 02 80 23  66 00 80 F8 FF FF 7F F8  ...#...#f.......
0020: FF FF 7F 74 68 6B 32 53  F8 FF FF 7F F8 FF FF 7F  ...thk2S........
0030: 74 68 6B 32 21 00 00                              thk2!..         
```

#### Opcodes

```
  0: 0x0001 [0x66] LOAD_EXT_SCHEDULER_MAIN: Load scheduler "thk1" with entities [EventEntity, EventEntity], work=50*
  1: 0x0010 [0x1D] PRINT_EVENT_MESSAGE(message_id=7767*)
    → "Oh, dear... There are so many to choose from! I don't know what to pick. By the way, do you think this looks good on me?"
  2: 0x0013 [0x23] WAIT_FOR_DIALOG_INTERACTION
  3: 0x0014 [0x1D] PRINT_EVENT_MESSAGE(message_id=7768*)
    → "I don't think it does. I need something that jumps out and screams "me." Hmm... What to choose..."
  4: 0x0017 [0x23] WAIT_FOR_DIALOG_INTERACTION
  5: 0x0018 [0x66] LOAD_EXT_SCHEDULER_MAIN: Load scheduler "thk2" with entities [EventEntity, EventEntity], work=50*
  6: 0x0027 [0x53] WAIT_SCHEDULER_TASK: Wait for scheduler "thk2" with entities [EventEntity, EventEntity]
  7: 0x0034 [0x21] END_EVENT
  8: 0x0035 [0x00] END_REQSTACK()
```

#### Data or dead code:

```
# Dead code (unreachable instructions):
     0x0036 [0x00] END_REQSTACK()
```

### Event 10094

#### Metadata

| Field        | Value   |
|--------------|---------|
| Entrypoint   | 0x0037  |
| Data Size    | 5 bytes |
| Instructions | 2       |

```
      00 01 02 03 04 05 06 07  08 09 0A 0B 0C 0D 0E 0F
      -- -- -- -- -- -- -- --  -- -- -- -- -- -- -- --
0030:                      C0  03 80 00 00                     .....    
```

#### Opcodes

```
  0: 0x0037 [0xC0] EventEntity->Render.Flags3 |= 0x1000 // Set bit 12 (from 1*)
  1: 0x003A [0x00] END_REQSTACK()
```

#### Data or dead code:

```
# Dead code (unreachable instructions):
     0x003B [0x00] END_REQSTACK()
```

### Event 65535.1

#### Metadata

| Field        | Value    |
|--------------|----------|
| Entrypoint   | 0x003C   |
| Data Size    | 20 bytes |
| Instructions | 5        |

```
      00 01 02 03 04 05 06 07  08 09 0A 0B 0C 0D 0E 0F
      -- -- -- -- -- -- -- --  -- -- -- -- -- -- -- --
0030:                                      59 04 0B 50              Y..P
0040: 0F 01 04 80 1F 00 05 80  06 80 07 80 1F 01 6F 00  ..............o.
```

#### Opcodes

```
  0: 0x003C [0x59] UPDATE_ENTITY_DATA: Set Garnev (ID: 17780747/0x010F500B) main speed = 12* * 0.1
  1: 0x0044 [0x1F] MOVE_ENTITY: EventEntity moves to X=-76.092*, Z=-136.357*, Y=0.000*
  2: 0x004C [0x1F] MOVE_ENTITY: Update entity position (mode=1)
  3: 0x004E [0x6F] WAIT_FRAME_DELAY: Yield until WaitTime reaches zero
  4: 0x004F [0x00] END_REQSTACK()
```

### Event 65535.2

#### Metadata

| Field        | Value    |
|--------------|----------|
| Entrypoint   | 0x0050   |
| Data Size    | 20 bytes |
| Instructions | 5        |

```
      00 01 02 03 04 05 06 07  08 09 0A 0B 0C 0D 0E 0F
      -- -- -- -- -- -- -- --  -- -- -- -- -- -- -- --
0050: 59 04 1D 50 0F 01 08 80  1F 00 09 80 0A 80 07 80  Y..P............
0060: 1F 01 6F 00                                       ..o.            
```

#### Opcodes

```
  0: 0x0050 [0x59] UPDATE_ENTITY_DATA: Set Mataligeat (ID: 17780765/0x010F501D) main speed = 11* * 0.1
  1: 0x0058 [0x1F] MOVE_ENTITY: EventEntity moves to X=-95.337*, Z=-156.056*, Y=0.000*
  2: 0x0060 [0x1F] MOVE_ENTITY: Update entity position (mode=1)
  3: 0x0062 [0x6F] WAIT_FRAME_DELAY: Yield until WaitTime reaches zero
  4: 0x0063 [0x00] END_REQSTACK()
```

### Event 65535.3

#### Metadata

| Field        | Value    |
|--------------|----------|
| Entrypoint   | 0x0064   |
| Data Size    | 20 bytes |
| Instructions | 5        |

```
      00 01 02 03 04 05 06 07  08 09 0A 0B 0C 0D 0E 0F
      -- -- -- -- -- -- -- --  -- -- -- -- -- -- -- --
0060:             59 04 1D 50  0F 01 08 80 1F 00 0B 80      Y..P........
0070: 0C 80 0D 80 1F 01 6F 00                           ......o.        
```

#### Opcodes

```
  0: 0x0064 [0x59] UPDATE_ENTITY_DATA: Set Mataligeat (ID: 17780765/0x010F501D) main speed = 11* * 0.1
  1: 0x006C [0x1F] MOVE_ENTITY: EventEntity moves to X=-62.073*, Z=-89.873*, Y=5.999*
  2: 0x0074 [0x1F] MOVE_ENTITY: Update entity position (mode=1)
  3: 0x0076 [0x6F] WAIT_FRAME_DELAY: Yield until WaitTime reaches zero
  4: 0x0077 [0x00] END_REQSTACK()
```

### Event 65535.4

#### Metadata

| Field        | Value    |
|--------------|----------|
| Entrypoint   | 0x0078   |
| Data Size    | 17 bytes |
| Instructions | 2        |

```
      00 01 02 03 04 05 06 07  08 09 0A 0B 0C 0D 0E 0F
      -- -- -- -- -- -- -- --  -- -- -- -- -- -- -- --
0070:                          5B 0E 80 1D 50 0F 01 1D          [...P...
0080: 50 0F 01 6F 70 30 30 00  00                       P..op00..       
```

#### Opcodes

```
  0: 0x0078 [0x5B] LOAD_EXT_SCHEDULER: Load scheduler "op00" with entities [Mataligeat (ID: 17780765/0x010F501D), Mataligeat (ID: 17780765/0x010F501D)], work=2618*
  1: 0x0087 [0x00] END_REQSTACK()
```

#### Data or dead code:

```
# Dead code (unreachable instructions):
     0x0088 [0x00] END_REQSTACK()
```

### Event 65535.5

#### Metadata

| Field        | Value    |
|--------------|----------|
| Entrypoint   | 0x0089   |
| Data Size    | 20 bytes |
| Instructions | 5        |

```
      00 01 02 03 04 05 06 07  08 09 0A 0B 0C 0D 0E 0F
      -- -- -- -- -- -- -- --  -- -- -- -- -- -- -- --
0080:                             59 04 3A 50 0F 01 08           Y.:P...
0090: 80 1F 00 09 80 0A 80 07  80 1F 01 6F 00           ...........o.   
```

#### Opcodes

```
  0: 0x0089 [0x59] UPDATE_ENTITY_DATA: Set Navisse (ID: 17780794/0x010F503A) main speed = 11* * 0.1
  1: 0x0091 [0x1F] MOVE_ENTITY: EventEntity moves to X=-95.337*, Z=-156.056*, Y=0.000*
  2: 0x0099 [0x1F] MOVE_ENTITY: Update entity position (mode=1)
  3: 0x009B [0x6F] WAIT_FRAME_DELAY: Yield until WaitTime reaches zero
  4: 0x009C [0x00] END_REQSTACK()
```

### Event 65535.6

#### Metadata

| Field        | Value    |
|--------------|----------|
| Entrypoint   | 0x009D   |
| Data Size    | 20 bytes |
| Instructions | 5        |

```
      00 01 02 03 04 05 06 07  08 09 0A 0B 0C 0D 0E 0F
      -- -- -- -- -- -- -- --  -- -- -- -- -- -- -- --
0090:                                         59 04 2C               Y.,
00A0: 50 0F 01 04 80 1F 00 0F  80 10 80 07 80 1F 01 6F  P..............o
00B0: 00                                                .               
```

#### Opcodes

```
  0: 0x009D [0x59] UPDATE_ENTITY_DATA: Set Jazmin (ID: 17780780/0x010F502C) main speed = 12* * 0.1
  1: 0x00A5 [0x1F] MOVE_ENTITY: EventEntity moves to X=-83.944*, Z=-128.625*, Y=0.000*
  2: 0x00AD [0x1F] MOVE_ENTITY: Update entity position (mode=1)
  3: 0x00AF [0x6F] WAIT_FRAME_DELAY: Yield until WaitTime reaches zero
  4: 0x00B0 [0x00] END_REQSTACK()
```

### Event 65535.7

#### Metadata

| Field        | Value    |
|--------------|----------|
| Entrypoint   | 0x00B1   |
| Data Size    | 19 bytes |
| Instructions | 4        |

```
      00 01 02 03 04 05 06 07  08 09 0A 0B 0C 0D 0E 0F
      -- -- -- -- -- -- -- --  -- -- -- -- -- -- -- --
00B0:    59 04 2C 50 0F 01 08  80 1F 00 11 80 12 80 0D   Y.,P...........
00C0: 80 1F 01 00                                       ....            
```

#### Opcodes

```
  0: 0x00B1 [0x59] UPDATE_ENTITY_DATA: Set Jazmin (ID: 17780780/0x010F502C) main speed = 11* * 0.1
  1: 0x00B9 [0x1F] MOVE_ENTITY: EventEntity moves to X=-68.592*, Z=-96.839*, Y=5.999*
  2: 0x00C1 [0x1F] MOVE_ENTITY: Update entity position (mode=1)
  3: 0x00C3 [0x00] END_REQSTACK()
```

### Event 65535.8

#### Metadata

| Field        | Value    |
|--------------|----------|
| Entrypoint   | 0x00C4   |
| Data Size    | 19 bytes |
| Instructions | 4        |

```
      00 01 02 03 04 05 06 07  08 09 0A 0B 0C 0D 0E 0F
      -- -- -- -- -- -- -- --  -- -- -- -- -- -- -- --
00C0:             59 04 2C 50  0F 01 08 80 1F 00 13 80      Y.,P........
00D0: 14 80 0D 80 1F 01 00                              .......         
```

#### Opcodes

```
  0: 0x00C4 [0x59] UPDATE_ENTITY_DATA: Set Jazmin (ID: 17780780/0x010F502C) main speed = 11* * 0.1
  1: 0x00CC [0x1F] MOVE_ENTITY: EventEntity moves to X=-70.511*, Z=-102.750*, Y=5.999*
  2: 0x00D4 [0x1F] MOVE_ENTITY: Update entity position (mode=1)
  3: 0x00D6 [0x00] END_REQSTACK()
```

### Event 65535.9

#### Metadata

| Field        | Value    |
|--------------|----------|
| Entrypoint   | 0x00D7   |
| Data Size    | 16 bytes |
| Instructions | 2        |

```
      00 01 02 03 04 05 06 07  08 09 0A 0B 0C 0D 0E 0F
      -- -- -- -- -- -- -- --  -- -- -- -- -- -- -- --
00D0:                      5B  15 80 2C 50 0F 01 2C 50         [..,P..,P
00E0: 0F 01 6F 70 30 30 00                              ..op00.         
```

#### Opcodes

```
  0: 0x00D7 [0x5B] LOAD_EXT_SCHEDULER: Load scheduler "op00" with entities [Jazmin (ID: 17780780/0x010F502C), Jazmin (ID: 17780780/0x010F502C)], work=2602*
  1: 0x00E6 [0x00] END_REQSTACK()
```

### Event 65535.10

#### Metadata

| Field        | Value    |
|--------------|----------|
| Entrypoint   | 0x00E7   |
| Data Size    | 16 bytes |
| Instructions | 2        |

```
      00 01 02 03 04 05 06 07  08 09 0A 0B 0C 0D 0E 0F
      -- -- -- -- -- -- -- --  -- -- -- -- -- -- -- --
00E0:                      5B  15 80 2C 50 0F 01 2C 50         [..,P..,P
00F0: 0F 01 6F 70 30 31 00                              ..op01.         
```

#### Opcodes

```
  0: 0x00E7 [0x5B] LOAD_EXT_SCHEDULER: Load scheduler "op01" with entities [Jazmin (ID: 17780780/0x010F502C), Jazmin (ID: 17780780/0x010F502C)], work=2602*
  1: 0x00F6 [0x00] END_REQSTACK()
```

### Event 65535.11

#### Metadata

| Field        | Value    |
|--------------|----------|
| Entrypoint   | 0x00F7   |
| Data Size    | 20 bytes |
| Instructions | 5        |

```
      00 01 02 03 04 05 06 07  08 09 0A 0B 0C 0D 0E 0F
      -- -- -- -- -- -- -- --  -- -- -- -- -- -- -- --
00F0:                      59  04 2C 50 0F 01 08 80 1F         Y.,P.....
0100: 00 16 80 17 80 0D 80 1F  01 6F 00                 .........o.     
```

#### Opcodes

```
  0: 0x00F7 [0x59] UPDATE_ENTITY_DATA: Set Jazmin (ID: 17780780/0x010F502C) main speed = 11* * 0.1
  1: 0x00FF [0x1F] MOVE_ENTITY: EventEntity moves to X=-72.366*, Z=-118.167*, Y=5.999*
  2: 0x0107 [0x1F] MOVE_ENTITY: Update entity position (mode=1)
  3: 0x0109 [0x6F] WAIT_FRAME_DELAY: Yield until WaitTime reaches zero
  4: 0x010A [0x00] END_REQSTACK()
```

### Event 65535.12

#### Metadata

| Field        | Value    |
|--------------|----------|
| Entrypoint   | 0x010B   |
| Data Size    | 16 bytes |
| Instructions | 2        |

```
      00 01 02 03 04 05 06 07  08 09 0A 0B 0C 0D 0E 0F
      -- -- -- -- -- -- -- --  -- -- -- -- -- -- -- --
0100:                                   5B 18 80 2C 50             [..,P
0110: 0F 01 2C 50 0F 01 6F 70  61 30 00                 ..,P..opa0.     
```

#### Opcodes

```
  0: 0x010B [0x5B] LOAD_EXT_SCHEDULER: Load scheduler "opa0" with entities [Jazmin (ID: 17780780/0x010F502C), Jazmin (ID: 17780780/0x010F502C)], work=2617*
  1: 0x011A [0x00] END_REQSTACK()
```

### Event 65535.13

#### Metadata

| Field        | Value    |
|--------------|----------|
| Entrypoint   | 0x011B   |
| Data Size    | 16 bytes |
| Instructions | 2        |

```
      00 01 02 03 04 05 06 07  08 09 0A 0B 0C 0D 0E 0F
      -- -- -- -- -- -- -- --  -- -- -- -- -- -- -- --
0110:                                   5B 18 80 2C 50             [..,P
0120: 0F 01 2C 50 0F 01 6F 70  61 31 00                 ..,P..opa1.     
```

#### Opcodes

```
  0: 0x011B [0x5B] LOAD_EXT_SCHEDULER: Load scheduler "opa1" with entities [Jazmin (ID: 17780780/0x010F502C), Jazmin (ID: 17780780/0x010F502C)], work=2617*
  1: 0x012A [0x00] END_REQSTACK()
```

### Event 65535.14

#### Metadata

| Field        | Value    |
|--------------|----------|
| Entrypoint   | 0x012B   |
| Data Size    | 16 bytes |
| Instructions | 2        |

```
      00 01 02 03 04 05 06 07  08 09 0A 0B 0C 0D 0E 0F
      -- -- -- -- -- -- -- --  -- -- -- -- -- -- -- --
0120:                                   5B 18 80 2C 50             [..,P
0130: 0F 01 2C 50 0F 01 6F 70  61 32 00                 ..,P..opa2.     
```

#### Opcodes

```
  0: 0x012B [0x5B] LOAD_EXT_SCHEDULER: Load scheduler "opa2" with entities [Jazmin (ID: 17780780/0x010F502C), Jazmin (ID: 17780780/0x010F502C)], work=2617*
  1: 0x013A [0x00] END_REQSTACK()
```

### Event 65535.15

#### Metadata

| Field        | Value    |
|--------------|----------|
| Entrypoint   | 0x013B   |
| Data Size    | 21 bytes |
| Instructions | 5        |

```
      00 01 02 03 04 05 06 07  08 09 0A 0B 0C 0D 0E 0F
      -- -- -- -- -- -- -- --  -- -- -- -- -- -- -- --
0130:                                   59 04 2E 50 0F             Y..P.
0140: 01 04 80 1F 00 05 80 06  80 07 80 1F 01 6F 00 00  .............o..
```

#### Opcodes

```
  0: 0x013B [0x59] UPDATE_ENTITY_DATA: Set Bogharg (ID: 17780782/0x010F502E) main speed = 12* * 0.1
  1: 0x0143 [0x1F] MOVE_ENTITY: EventEntity moves to X=-76.092*, Z=-136.357*, Y=0.000*
  2: 0x014B [0x1F] MOVE_ENTITY: Update entity position (mode=1)
  3: 0x014D [0x6F] WAIT_FRAME_DELAY: Yield until WaitTime reaches zero
  4: 0x014E [0x00] END_REQSTACK()
```

#### Data or dead code:

```
# Dead code (unreachable instructions):
     0x014F [0x00] END_REQSTACK()
```

### Event 65535.16

#### Metadata

| Field        | Value    |
|--------------|----------|
| Entrypoint   | 0x0150   |
| Data Size    | 16 bytes |
| Instructions | 2        |

```
      00 01 02 03 04 05 06 07  08 09 0A 0B 0C 0D 0E 0F
      -- -- -- -- -- -- -- --  -- -- -- -- -- -- -- --
0150: 66 19 80 2E 50 0F 01 2E  50 0F 01 74 68 6B 31 00  f...P...P..thk1.
```

#### Opcodes

```
  0: 0x0150 [0x66] LOAD_EXT_SCHEDULER_MAIN: Load scheduler "thk1" with entities [Bogharg (ID: 17780782/0x010F502E), Bogharg (ID: 17780782/0x010F502E)], work=69*
  1: 0x015F [0x00] END_REQSTACK()
```

### Event 65535.17

#### Metadata

| Field        | Value    |
|--------------|----------|
| Entrypoint   | 0x0160   |
| Data Size    | 16 bytes |
| Instructions | 2        |

```
      00 01 02 03 04 05 06 07  08 09 0A 0B 0C 0D 0E 0F
      -- -- -- -- -- -- -- --  -- -- -- -- -- -- -- --
0160: 66 19 80 2E 50 0F 01 2E  50 0F 01 74 68 6B 32 00  f...P...P..thk2.
```

#### Opcodes

```
  0: 0x0160 [0x66] LOAD_EXT_SCHEDULER_MAIN: Load scheduler "thk2" with entities [Bogharg (ID: 17780782/0x010F502E), Bogharg (ID: 17780782/0x010F502E)], work=69*
  1: 0x016F [0x00] END_REQSTACK()
```

### Event 65535.18

#### Metadata

| Field        | Value    |
|--------------|----------|
| Entrypoint   | 0x0170   |
| Data Size    | 20 bytes |
| Instructions | 5        |

```
      00 01 02 03 04 05 06 07  08 09 0A 0B 0C 0D 0E 0F
      -- -- -- -- -- -- -- --  -- -- -- -- -- -- -- --
0170: 59 04 2E 50 0F 01 04 80  1F 00 1A 80 1B 80 0D 80  Y..P............
0180: 1F 01 6F 00                                       ..o.            
```

#### Opcodes

```
  0: 0x0170 [0x59] UPDATE_ENTITY_DATA: Set Bogharg (ID: 17780782/0x010F502E) main speed = 12* * 0.1
  1: 0x0178 [0x1F] MOVE_ENTITY: EventEntity moves to X=-56.992*, Z=-88.050*, Y=5.999*
  2: 0x0180 [0x1F] MOVE_ENTITY: Update entity position (mode=1)
  3: 0x0182 [0x6F] WAIT_FRAME_DELAY: Yield until WaitTime reaches zero
  4: 0x0183 [0x00] END_REQSTACK()
```

### Event 65535.19

#### Metadata

| Field        | Value    |
|--------------|----------|
| Entrypoint   | 0x0184   |
| Data Size    | 17 bytes |
| Instructions | 2        |

```
      00 01 02 03 04 05 06 07  08 09 0A 0B 0C 0D 0E 0F
      -- -- -- -- -- -- -- --  -- -- -- -- -- -- -- --
0180:             5B 1C 80 2E  50 0F 01 2E 50 0F 01 6F      [...P...P..o
0190: 70 30 30 00 00                                    p00..           
```

#### Opcodes

```
  0: 0x0184 [0x5B] LOAD_EXT_SCHEDULER: Load scheduler "op00" with entities [Bogharg (ID: 17780782/0x010F502E), Bogharg (ID: 17780782/0x010F502E)], work=2621*
  1: 0x0193 [0x00] END_REQSTACK()
```

#### Data or dead code:

```
# Dead code (unreachable instructions):
     0x0194 [0x00] END_REQSTACK()
```

### Event 65535.20

#### Metadata

| Field        | Value    |
|--------------|----------|
| Entrypoint   | 0x0195   |
| Data Size    | 20 bytes |
| Instructions | 5        |

```
      00 01 02 03 04 05 06 07  08 09 0A 0B 0C 0D 0E 0F
      -- -- -- -- -- -- -- --  -- -- -- -- -- -- -- --
0190:                59 04 31  50 0F 01 08 80 1F 00 0F       Y.1P.......
01A0: 80 10 80 07 80 1F 01 6F  00                       .......o.       
```

#### Opcodes

```
  0: 0x0195 [0x59] UPDATE_ENTITY_DATA: Set Nakho Jawantal (ID: 17780785/0x010F5031) main speed = 11* * 0.1
  1: 0x019D [0x1F] MOVE_ENTITY: EventEntity moves to X=-83.944*, Z=-128.625*, Y=0.000*
  2: 0x01A5 [0x1F] MOVE_ENTITY: Update entity position (mode=1)
  3: 0x01A7 [0x6F] WAIT_FRAME_DELAY: Yield until WaitTime reaches zero
  4: 0x01A8 [0x00] END_REQSTACK()
```

### Event 65535.21

#### Metadata

| Field        | Value    |
|--------------|----------|
| Entrypoint   | 0x01A9   |
| Data Size    | 16 bytes |
| Instructions | 2        |

```
      00 01 02 03 04 05 06 07  08 09 0A 0B 0C 0D 0E 0F
      -- -- -- -- -- -- -- --  -- -- -- -- -- -- -- --
01A0:                             5B 1D 80 12 50 0F 01           [...P..
01B0: 12 50 0F 01 6F 70 61 30  00                       .P..opa0.       
```

#### Opcodes

```
  0: 0x01A9 [0x5B] LOAD_EXT_SCHEDULER: Load scheduler "opa0" with entities [Tovrutaux (ID: 17780754/0x010F5012), Tovrutaux (ID: 17780754/0x010F5012)], work=2627*
  1: 0x01B8 [0x00] END_REQSTACK()
```

### Event 65535.22

#### Metadata

| Field        | Value    |
|--------------|----------|
| Entrypoint   | 0x01B9   |
| Data Size    | 16 bytes |
| Instructions | 2        |

```
      00 01 02 03 04 05 06 07  08 09 0A 0B 0C 0D 0E 0F
      -- -- -- -- -- -- -- --  -- -- -- -- -- -- -- --
01B0:                             5B 1D 80 12 50 0F 01           [...P..
01C0: 12 50 0F 01 6F 70 61 31  00                       .P..opa1.       
```

#### Opcodes

```
  0: 0x01B9 [0x5B] LOAD_EXT_SCHEDULER: Load scheduler "opa1" with entities [Tovrutaux (ID: 17780754/0x010F5012), Tovrutaux (ID: 17780754/0x010F5012)], work=2627*
  1: 0x01C8 [0x00] END_REQSTACK()
```

### Event 65535.23

#### Metadata

| Field        | Value    |
|--------------|----------|
| Entrypoint   | 0x01C9   |
| Data Size    | 16 bytes |
| Instructions | 2        |

```
      00 01 02 03 04 05 06 07  08 09 0A 0B 0C 0D 0E 0F
      -- -- -- -- -- -- -- --  -- -- -- -- -- -- -- --
01C0:                             5B 1D 80 12 50 0F 01           [...P..
01D0: 12 50 0F 01 6F 70 61 32  00                       .P..opa2.       
```

#### Opcodes

```
  0: 0x01C9 [0x5B] LOAD_EXT_SCHEDULER: Load scheduler "opa2" with entities [Tovrutaux (ID: 17780754/0x010F5012), Tovrutaux (ID: 17780754/0x010F5012)], work=2627*
  1: 0x01D8 [0x00] END_REQSTACK()
```

### Event 65535.24

#### Metadata

| Field        | Value    |
|--------------|----------|
| Entrypoint   | 0x01D9   |
| Data Size    | 16 bytes |
| Instructions | 2        |

```
      00 01 02 03 04 05 06 07  08 09 0A 0B 0C 0D 0E 0F
      -- -- -- -- -- -- -- --  -- -- -- -- -- -- -- --
01D0:                             5B 1E 80 12 50 0F 01           [...P..
01E0: 12 50 0F 01 74 68 6B 31  00                       .P..thk1.       
```

#### Opcodes

```
  0: 0x01D9 [0x5B] LOAD_EXT_SCHEDULER: Load scheduler "thk1" with entities [Tovrutaux (ID: 17780754/0x010F5012), Tovrutaux (ID: 17780754/0x010F5012)], work=75*
  1: 0x01E8 [0x00] END_REQSTACK()
```

### Event 65535.25

#### Metadata

| Field        | Value    |
|--------------|----------|
| Entrypoint   | 0x01E9   |
| Data Size    | 16 bytes |
| Instructions | 2        |

```
      00 01 02 03 04 05 06 07  08 09 0A 0B 0C 0D 0E 0F
      -- -- -- -- -- -- -- --  -- -- -- -- -- -- -- --
01E0:                             5B 1E 80 12 50 0F 01           [...P..
01F0: 12 50 0F 01 74 68 6B 32  00                       .P..thk2.       
```

#### Opcodes

```
  0: 0x01E9 [0x5B] LOAD_EXT_SCHEDULER: Load scheduler "thk2" with entities [Tovrutaux (ID: 17780754/0x010F5012), Tovrutaux (ID: 17780754/0x010F5012)], work=75*
  1: 0x01F8 [0x00] END_REQSTACK()
```

### Event 65535.26

#### Metadata

| Field        | Value    |
|--------------|----------|
| Entrypoint   | 0x01F9   |
| Data Size    | 16 bytes |
| Instructions | 2        |

```
      00 01 02 03 04 05 06 07  08 09 0A 0B 0C 0D 0E 0F
      -- -- -- -- -- -- -- --  -- -- -- -- -- -- -- --
01F0:                             5B 1E 80 12 50 0F 01           [...P..
0200: 12 50 0F 01 74 6C 6B 30  00                       .P..tlk0.       
```

#### Opcodes

```
  0: 0x01F9 [0x5B] LOAD_EXT_SCHEDULER: Load scheduler "tlk0" with entities [Tovrutaux (ID: 17780754/0x010F5012), Tovrutaux (ID: 17780754/0x010F5012)], work=75*
  1: 0x0208 [0x00] END_REQSTACK()
```

### Event 65535.27

#### Metadata

| Field        | Value    |
|--------------|----------|
| Entrypoint   | 0x0209   |
| Data Size    | 16 bytes |
| Instructions | 2        |

```
      00 01 02 03 04 05 06 07  08 09 0A 0B 0C 0D 0E 0F
      -- -- -- -- -- -- -- --  -- -- -- -- -- -- -- --
0200:                             5B 1E 80 12 50 0F 01           [...P..
0210: 12 50 0F 01 74 6C 6B 31  00                       .P..tlk1.       
```

#### Opcodes

```
  0: 0x0209 [0x5B] LOAD_EXT_SCHEDULER: Load scheduler "tlk1" with entities [Tovrutaux (ID: 17780754/0x010F5012), Tovrutaux (ID: 17780754/0x010F5012)], work=75*
  1: 0x0218 [0x00] END_REQSTACK()
```

### Event 65535.28

#### Metadata

| Field        | Value    |
|--------------|----------|
| Entrypoint   | 0x0219   |
| Data Size    | 12 bytes |
| Instructions | 4        |

```
      00 01 02 03 04 05 06 07  08 09 0A 0B 0C 0D 0E 0F
      -- -- -- -- -- -- -- --  -- -- -- -- -- -- -- --
0210:                             1F 00 1F 80 20 80 07           .... ..
0220: 80 1F 01 6F 00                                    ...o.           
```

#### Opcodes

```
  0: 0x0219 [0x1F] MOVE_ENTITY: EventEntity moves to X=-19.954*, Z=-20.950*, Y=0.000*
  1: 0x0221 [0x1F] MOVE_ENTITY: Update entity position (mode=1)
  2: 0x0223 [0x6F] WAIT_FRAME_DELAY: Yield until WaitTime reaches zero
  3: 0x0224 [0x00] END_REQSTACK()
```

### Event 65535.29

#### Metadata

| Field        | Value    |
|--------------|----------|
| Entrypoint   | 0x0225   |
| Data Size    | 20 bytes |
| Instructions | 5        |

```
      00 01 02 03 04 05 06 07  08 09 0A 0B 0C 0D 0E 0F
      -- -- -- -- -- -- -- --  -- -- -- -- -- -- -- --
0220:                59 04 13  50 0F 01 08 80 1F 00 21       Y..P......!
0230: 80 22 80 0D 80 1F 01 6F  00                       .".....o.       
```

#### Opcodes

```
  0: 0x0225 [0x59] UPDATE_ENTITY_DATA: Set Seyaya (ID: 17780755/0x010F5013) main speed = 11* * 0.1
  1: 0x022D [0x1F] MOVE_ENTITY: EventEntity moves to X=-74.699*, Z=-107.115*, Y=5.999*
  2: 0x0235 [0x1F] MOVE_ENTITY: Update entity position (mode=1)
  3: 0x0237 [0x6F] WAIT_FRAME_DELAY: Yield until WaitTime reaches zero
  4: 0x0238 [0x00] END_REQSTACK()
```

### Event 65535.30

#### Metadata

| Field        | Value    |
|--------------|----------|
| Entrypoint   | 0x0239   |
| Data Size    | 17 bytes |
| Instructions | 2        |

```
      00 01 02 03 04 05 06 07  08 09 0A 0B 0C 0D 0E 0F
      -- -- -- -- -- -- -- --  -- -- -- -- -- -- -- --
0230:                             5B 23 80 13 50 0F 01           [#..P..
0240: 13 50 0F 01 6F 70 61 30  00 00                    .P..opa0..      
```

#### Opcodes

```
  0: 0x0239 [0x5B] LOAD_EXT_SCHEDULER: Load scheduler "opa0" with entities [Seyaya (ID: 17780755/0x010F5013), Seyaya (ID: 17780755/0x010F5013)], work=2631*
  1: 0x0248 [0x00] END_REQSTACK()
```

#### Data or dead code:

```
# Dead code (unreachable instructions):
     0x0249 [0x00] END_REQSTACK()
```

### Event 65535.31

#### Metadata

| Field        | Value    |
|--------------|----------|
| Entrypoint   | 0x024A   |
| Data Size    | 17 bytes |
| Instructions | 2        |

```
      00 01 02 03 04 05 06 07  08 09 0A 0B 0C 0D 0E 0F
      -- -- -- -- -- -- -- --  -- -- -- -- -- -- -- --
0240:                                5B 23 80 13 50 0F            [#..P.
0250: 01 13 50 0F 01 6F 70 61  31 00 00                 ..P..opa1..     
```

#### Opcodes

```
  0: 0x024A [0x5B] LOAD_EXT_SCHEDULER: Load scheduler "opa1" with entities [Seyaya (ID: 17780755/0x010F5013), Seyaya (ID: 17780755/0x010F5013)], work=2631*
  1: 0x0259 [0x00] END_REQSTACK()
```

#### Data or dead code:

```
# Dead code (unreachable instructions):
     0x025A [0x00] END_REQSTACK()
```

### Event 65535.32

#### Metadata

| Field        | Value    |
|--------------|----------|
| Entrypoint   | 0x025B   |
| Data Size    | 16 bytes |
| Instructions | 2        |

```
      00 01 02 03 04 05 06 07  08 09 0A 0B 0C 0D 0E 0F
      -- -- -- -- -- -- -- --  -- -- -- -- -- -- -- --
0250:                                   5B 23 80 13 50             [#..P
0260: 0F 01 13 50 0F 01 6F 70  61 32 00                 ...P..opa2.     
```

#### Opcodes

```
  0: 0x025B [0x5B] LOAD_EXT_SCHEDULER: Load scheduler "opa2" with entities [Seyaya (ID: 17780755/0x010F5013), Seyaya (ID: 17780755/0x010F5013)], work=2631*
  1: 0x026A [0x00] END_REQSTACK()
```

### Event 65535.33

#### Metadata

| Field        | Value    |
|--------------|----------|
| Entrypoint   | 0x026B   |
| Data Size    | 16 bytes |
| Instructions | 2        |

```
      00 01 02 03 04 05 06 07  08 09 0A 0B 0C 0D 0E 0F
      -- -- -- -- -- -- -- --  -- -- -- -- -- -- -- --
0260:                                   5B 24 80 13 50             [$..P
0270: 0F 01 13 50 0F 01 74 68  6B 31 00                 ...P..thk1.     
```

#### Opcodes

```
  0: 0x026B [0x5B] LOAD_EXT_SCHEDULER: Load scheduler "thk1" with entities [Seyaya (ID: 17780755/0x010F5013), Seyaya (ID: 17780755/0x010F5013)], work=85*
  1: 0x027A [0x00] END_REQSTACK()
```

### Event 65535.34

#### Metadata

| Field        | Value    |
|--------------|----------|
| Entrypoint   | 0x027B   |
| Data Size    | 16 bytes |
| Instructions | 2        |

```
      00 01 02 03 04 05 06 07  08 09 0A 0B 0C 0D 0E 0F
      -- -- -- -- -- -- -- --  -- -- -- -- -- -- -- --
0270:                                   5B 24 80 13 50             [$..P
0280: 0F 01 13 50 0F 01 74 68  6B 32 00                 ...P..thk2.     
```

#### Opcodes

```
  0: 0x027B [0x5B] LOAD_EXT_SCHEDULER: Load scheduler "thk2" with entities [Seyaya (ID: 17780755/0x010F5013), Seyaya (ID: 17780755/0x010F5013)], work=85*
  1: 0x028A [0x00] END_REQSTACK()
```

### Event 65535.35

#### Metadata

| Field        | Value    |
|--------------|----------|
| Entrypoint   | 0x028B   |
| Data Size    | 16 bytes |
| Instructions | 2        |

```
      00 01 02 03 04 05 06 07  08 09 0A 0B 0C 0D 0E 0F
      -- -- -- -- -- -- -- --  -- -- -- -- -- -- -- --
0280:                                   5B 24 80 13 50             [$..P
0290: 0F 01 13 50 0F 01 74 6C  6B 30 00                 ...P..tlk0.     
```

#### Opcodes

```
  0: 0x028B [0x5B] LOAD_EXT_SCHEDULER: Load scheduler "tlk0" with entities [Seyaya (ID: 17780755/0x010F5013), Seyaya (ID: 17780755/0x010F5013)], work=85*
  1: 0x029A [0x00] END_REQSTACK()
```

### Event 65535.36

#### Metadata

| Field        | Value    |
|--------------|----------|
| Entrypoint   | 0x029B   |
| Data Size    | 16 bytes |
| Instructions | 2        |

```
      00 01 02 03 04 05 06 07  08 09 0A 0B 0C 0D 0E 0F
      -- -- -- -- -- -- -- --  -- -- -- -- -- -- -- --
0290:                                   5B 24 80 13 50             [$..P
02A0: 0F 01 13 50 0F 01 74 6C  6B 65 00                 ...P..tlke.     
```

#### Opcodes

```
  0: 0x029B [0x5B] LOAD_EXT_SCHEDULER: Load scheduler "tlke" with entities [Seyaya (ID: 17780755/0x010F5013), Seyaya (ID: 17780755/0x010F5013)], work=85*
  1: 0x02AA [0x00] END_REQSTACK()
```

### Event 65535.37

#### Metadata

| Field        | Value    |
|--------------|----------|
| Entrypoint   | 0x02AB   |
| Data Size    | 16 bytes |
| Instructions | 2        |

```
      00 01 02 03 04 05 06 07  08 09 0A 0B 0C 0D 0E 0F
      -- -- -- -- -- -- -- --  -- -- -- -- -- -- -- --
02A0:                                   5B 24 80 13 50             [$..P
02B0: 0F 01 13 50 0F 01 62 61  6E 30 00                 ...P..ban0.     
```

#### Opcodes

```
  0: 0x02AB [0x5B] LOAD_EXT_SCHEDULER: Load scheduler "ban0" with entities [Seyaya (ID: 17780755/0x010F5013), Seyaya (ID: 17780755/0x010F5013)], work=85*
  1: 0x02BA [0x00] END_REQSTACK()
```

### Event 65535.38

#### Metadata

| Field        | Value    |
|--------------|----------|
| Entrypoint   | 0x02BB   |
| Data Size    | 13 bytes |
| Instructions | 4        |

```
      00 01 02 03 04 05 06 07  08 09 0A 0B 0C 0D 0E 0F
      -- -- -- -- -- -- -- --  -- -- -- -- -- -- -- --
02B0:                                   1F 00 25 80 26             ..%.&
02C0: 80 07 80 1F 01 6F 00 00                           .....o..        
```

#### Opcodes

```
  0: 0x02BB [0x1F] MOVE_ENTITY: EventEntity moves to X=-19.857*, Z=-21.712*, Y=0.000*
  1: 0x02C3 [0x1F] MOVE_ENTITY: Update entity position (mode=1)
  2: 0x02C5 [0x6F] WAIT_FRAME_DELAY: Yield until WaitTime reaches zero
  3: 0x02C6 [0x00] END_REQSTACK()
```

#### Data or dead code:

```
# Dead code (unreachable instructions):
     0x02C7 [0x00] END_REQSTACK()
```

### Event 65535.39

#### Metadata

| Field        | Value    |
|--------------|----------|
| Entrypoint   | 0x02C8   |
| Data Size    | 20 bytes |
| Instructions | 5        |

```
      00 01 02 03 04 05 06 07  08 09 0A 0B 0C 0D 0E 0F
      -- -- -- -- -- -- -- --  -- -- -- -- -- -- -- --
02C0:                          59 04 C0 50 0F 01 27 80          Y..P..'.
02D0: 1F 00 28 80 29 80 07 80  1F 01 6F 00              ..(.).....o.    
```

#### Opcodes

```
  0: 0x02C8 [0x59] UPDATE_ENTITY_DATA: Set Rakuru-Rakoru (ID: 17780928/0x010F50C0) main speed = 14* * 0.1
  1: 0x02D0 [0x1F] MOVE_ENTITY: EventEntity moves to X=-37.763*, Z=-62.812*, Y=0.000*
  2: 0x02D8 [0x1F] MOVE_ENTITY: Update entity position (mode=1)
  3: 0x02DA [0x6F] WAIT_FRAME_DELAY: Yield until WaitTime reaches zero
  4: 0x02DB [0x00] END_REQSTACK()
```

### Event 65535.40

#### Metadata

| Field        | Value    |
|--------------|----------|
| Entrypoint   | 0x02DC   |
| Data Size    | 12 bytes |
| Instructions | 4        |

```
      00 01 02 03 04 05 06 07  08 09 0A 0B 0C 0D 0E 0F
      -- -- -- -- -- -- -- --  -- -- -- -- -- -- -- --
02D0:                                      1F 00 2A 80              ..*.
02E0: 2B 80 2C 80 1F 01 6F 00                           +.,...o.        
```

#### Opcodes

```
  0: 0x02DC [0x1F] MOVE_ENTITY: EventEntity moves to X=-13.366*, Z=2.528*, Y=-0.449*
  1: 0x02E4 [0x1F] MOVE_ENTITY: Update entity position (mode=1)
  2: 0x02E6 [0x6F] WAIT_FRAME_DELAY: Yield until WaitTime reaches zero
  3: 0x02E7 [0x00] END_REQSTACK()
```

### Event 65535.41

#### Metadata

| Field        | Value    |
|--------------|----------|
| Entrypoint   | 0x02E8   |
| Data Size    | 16 bytes |
| Instructions | 2        |

```
      00 01 02 03 04 05 06 07  08 09 0A 0B 0C 0D 0E 0F
      -- -- -- -- -- -- -- --  -- -- -- -- -- -- -- --
02E0:                          66 2D 80 C0 50 0F 01 C0          f-..P...
02F0: 50 0F 01 74 6C 6B 30 00                           P..tlk0.        
```

#### Opcodes

```
  0: 0x02E8 [0x66] LOAD_EXT_SCHEDULER_MAIN: Load scheduler "tlk0" with entities [Rakuru-Rakoru (ID: 17780928/0x010F50C0), Rakuru-Rakoru (ID: 17780928/0x010F50C0)], work=40*
  1: 0x02F7 [0x00] END_REQSTACK()
```

### Event 65535.42

#### Metadata

| Field        | Value    |
|--------------|----------|
| Entrypoint   | 0x02F8   |
| Data Size    | 16 bytes |
| Instructions | 2        |

```
      00 01 02 03 04 05 06 07  08 09 0A 0B 0C 0D 0E 0F
      -- -- -- -- -- -- -- --  -- -- -- -- -- -- -- --
02F0:                          66 2E 80 C0 50 0F 01 C0          f...P...
0300: 50 0F 01 65 68 6E 31 00                           P..ehn1.        
```

#### Opcodes

```
  0: 0x02F8 [0x66] LOAD_EXT_SCHEDULER_MAIN: Load scheduler "ehn1" with entities [Rakuru-Rakoru (ID: 17780928/0x010F50C0), Rakuru-Rakoru (ID: 17780928/0x010F50C0)], work=41*
  1: 0x0307 [0x00] END_REQSTACK()
```

### Event 65535.43

#### Metadata

| Field        | Value    |
|--------------|----------|
| Entrypoint   | 0x0308   |
| Data Size    | 16 bytes |
| Instructions | 2        |

```
      00 01 02 03 04 05 06 07  08 09 0A 0B 0C 0D 0E 0F
      -- -- -- -- -- -- -- --  -- -- -- -- -- -- -- --
0300:                          66 2D 80 C0 50 0F 01 C0          f-..P...
0310: 50 0F 01 6D 6F 6A 30 00                           P..moj0.        
```

#### Opcodes

```
  0: 0x0308 [0x66] LOAD_EXT_SCHEDULER_MAIN: Load scheduler "moj0" with entities [Rakuru-Rakoru (ID: 17780928/0x010F50C0), Rakuru-Rakoru (ID: 17780928/0x010F50C0)], work=40*
  1: 0x0317 [0x00] END_REQSTACK()
```

### Event 65535.44

#### Metadata

| Field        | Value    |
|--------------|----------|
| Entrypoint   | 0x0318   |
| Data Size    | 20 bytes |
| Instructions | 5        |

```
      00 01 02 03 04 05 06 07  08 09 0A 0B 0C 0D 0E 0F
      -- -- -- -- -- -- -- --  -- -- -- -- -- -- -- --
0310:                          59 04 C0 50 0F 01 27 80          Y..P..'.
0320: 1F 00 2F 80 30 80 0D 80  1F 01 6F 00              ../.0.....o.    
```

#### Opcodes

```
  0: 0x0318 [0x59] UPDATE_ENTITY_DATA: Set Rakuru-Rakoru (ID: 17780928/0x010F50C0) main speed = 14* * 0.1
  1: 0x0320 [0x1F] MOVE_ENTITY: EventEntity moves to X=-71.130*, Z=-110.791*, Y=5.999*
  2: 0x0328 [0x1F] MOVE_ENTITY: Update entity position (mode=1)
  3: 0x032A [0x6F] WAIT_FRAME_DELAY: Yield until WaitTime reaches zero
  4: 0x032B [0x00] END_REQSTACK()
```

### Event 65535.45

#### Metadata

| Field        | Value    |
|--------------|----------|
| Entrypoint   | 0x032C   |
| Data Size    | 29 bytes |
| Instructions | 6        |

```
      00 01 02 03 04 05 06 07  08 09 0A 0B 0C 0D 0E 0F
      -- -- -- -- -- -- -- --  -- -- -- -- -- -- -- --
0320:                                      59 04 C0 50              Y..P
0330: 0F 01 27 80 1F 00 31 80  32 80 0D 80 1F 01 5A 00  ..'...1.2.....Z.
0340: 33 80 34 80 35 80 5A 01  00                       3.4.5.Z..       
```

#### Opcodes

```
  0: 0x032C [0x59] UPDATE_ENTITY_DATA: Set Rakuru-Rakoru (ID: 17780928/0x010F50C0) main speed = 14* * 0.1
  1: 0x0334 [0x1F] MOVE_ENTITY: EventEntity moves to X=-75.540*, Z=-116.545*, Y=5.999*
  2: 0x033C [0x1F] MOVE_ENTITY: Update entity position (mode=1)
  3: 0x033E [0x5A] UPDATE_EVENT_POSITION: Set EventEntity MovePosition to X=-80.452*, Z=-125.376*, Y=0.999*
  4: 0x0346 [0x5A] UPDATE_EVENT_POSITION: Move EventEntity incrementally towards MovePosition
  5: 0x0348 [0x00] END_REQSTACK()
```

### Event 65535.46

#### Metadata

| Field        | Value    |
|--------------|----------|
| Entrypoint   | 0x0349   |
| Data Size    | 17 bytes |
| Instructions | 2        |

```
      00 01 02 03 04 05 06 07  08 09 0A 0B 0C 0D 0E 0F
      -- -- -- -- -- -- -- --  -- -- -- -- -- -- -- --
0340:                             5B 36 80 C0 50 0F 01           [6..P..
0350: C0 50 0F 01 62 6F 70 30  00 00                    .P..bop0..      
```

#### Opcodes

```
  0: 0x0349 [0x5B] LOAD_EXT_SCHEDULER: Load scheduler "bop0" with entities [Rakuru-Rakoru (ID: 17780928/0x010F50C0), Rakuru-Rakoru (ID: 17780928/0x010F50C0)], work=2611*
  1: 0x0358 [0x00] END_REQSTACK()
```

#### Data or dead code:

```
# Dead code (unreachable instructions):
     0x0359 [0x00] END_REQSTACK()
```

### Event 65535.47

#### Metadata

| Field        | Value    |
|--------------|----------|
| Entrypoint   | 0x035A   |
| Data Size    | 20 bytes |
| Instructions | 5        |

```
      00 01 02 03 04 05 06 07  08 09 0A 0B 0C 0D 0E 0F
      -- -- -- -- -- -- -- --  -- -- -- -- -- -- -- --
0350:                                59 04 25 50 0F 01            Y.%P..
0360: 37 80 1F 00 0F 80 10 80  07 80 1F 01 6F 00        7...........o.  
```

#### Opcodes

```
  0: 0x035A [0x59] UPDATE_ENTITY_DATA: Set Sutarara (ID: 17780773/0x010F5025) main speed = 13* * 0.1
  1: 0x0362 [0x1F] MOVE_ENTITY: EventEntity moves to X=-83.944*, Z=-128.625*, Y=0.000*
  2: 0x036A [0x1F] MOVE_ENTITY: Update entity position (mode=1)
  3: 0x036C [0x6F] WAIT_FRAME_DELAY: Yield until WaitTime reaches zero
  4: 0x036D [0x00] END_REQSTACK()
```

### Event 65535.48

#### Metadata

| Field        | Value    |
|--------------|----------|
| Entrypoint   | 0x036E   |
| Data Size    | 20 bytes |
| Instructions | 5        |

```
      00 01 02 03 04 05 06 07  08 09 0A 0B 0C 0D 0E 0F
      -- -- -- -- -- -- -- --  -- -- -- -- -- -- -- --
0360:                                            59 04                Y.
0370: 25 50 0F 01 37 80 1F 00  38 80 39 80 0D 80 1F 01  %P..7...8.9.....
0380: 6F 00                                             o.              
```

#### Opcodes

```
  0: 0x036E [0x59] UPDATE_ENTITY_DATA: Set Sutarara (ID: 17780773/0x010F5025) main speed = 13* * 0.1
  1: 0x0376 [0x1F] MOVE_ENTITY: EventEntity moves to X=-64.287*, Z=-102.136*, Y=5.999*
  2: 0x037E [0x1F] MOVE_ENTITY: Update entity position (mode=1)
  3: 0x0380 [0x6F] WAIT_FRAME_DELAY: Yield until WaitTime reaches zero
  4: 0x0381 [0x00] END_REQSTACK()
```

### Event 65535.49

#### Metadata

| Field        | Value    |
|--------------|----------|
| Entrypoint   | 0x0382   |
| Data Size    | 20 bytes |
| Instructions | 5        |

```
      00 01 02 03 04 05 06 07  08 09 0A 0B 0C 0D 0E 0F
      -- -- -- -- -- -- -- --  -- -- -- -- -- -- -- --
0380:       59 04 25 50 0F 01  37 80 1F 00 3A 80 3B 80    Y.%P..7...:.;.
0390: 07 80 1F 01 6F 00                                 ....o.          
```

#### Opcodes

```
  0: 0x0382 [0x59] UPDATE_ENTITY_DATA: Set Sutarara (ID: 17780773/0x010F5025) main speed = 13* * 0.1
  1: 0x038A [0x1F] MOVE_ENTITY: EventEntity moves to X=4.236*, Z=4.336*, Y=0.000*
  2: 0x0392 [0x1F] MOVE_ENTITY: Update entity position (mode=1)
  3: 0x0394 [0x6F] WAIT_FRAME_DELAY: Yield until WaitTime reaches zero
  4: 0x0395 [0x00] END_REQSTACK()
```

### Event 65535.50

#### Metadata

| Field        | Value    |
|--------------|----------|
| Entrypoint   | 0x0396   |
| Data Size    | 20 bytes |
| Instructions | 5        |

```
      00 01 02 03 04 05 06 07  08 09 0A 0B 0C 0D 0E 0F
      -- -- -- -- -- -- -- --  -- -- -- -- -- -- -- --
0390:                   59 04  34 50 0F 01 04 80 1F 00        Y.4P......
03A0: 3C 80 3D 80 3E 80 1F 01  6F 00                    <.=.>...o.      
```

#### Opcodes

```
  0: 0x0396 [0x59] UPDATE_ENTITY_DATA: Set Venika (ID: 17780788/0x010F5034) main speed = 12* * 0.1
  1: 0x039E [0x1F] MOVE_ENTITY: EventEntity moves to X=-15.376*, Z=-23.775*, Y=-0.101*
  2: 0x03A6 [0x1F] MOVE_ENTITY: Update entity position (mode=1)
  3: 0x03A8 [0x6F] WAIT_FRAME_DELAY: Yield until WaitTime reaches zero
  4: 0x03A9 [0x00] END_REQSTACK()
```

### Event 65535.51

#### Metadata

| Field        | Value    |
|--------------|----------|
| Entrypoint   | 0x03AA   |
| Data Size    | 20 bytes |
| Instructions | 5        |

```
      00 01 02 03 04 05 06 07  08 09 0A 0B 0C 0D 0E 0F
      -- -- -- -- -- -- -- --  -- -- -- -- -- -- -- --
03A0:                                59 04 34 50 0F 01            Y.4P..
03B0: 3F 80 1F 00 38 80 39 80  0D 80 1F 01 6F 00        ?...8.9.....o.  
```

#### Opcodes

```
  0: 0x03AA [0x59] UPDATE_ENTITY_DATA: Set Venika (ID: 17780788/0x010F5034) main speed = 10* * 0.1
  1: 0x03B2 [0x1F] MOVE_ENTITY: EventEntity moves to X=-64.287*, Z=-102.136*, Y=5.999*
  2: 0x03BA [0x1F] MOVE_ENTITY: Update entity position (mode=1)
  3: 0x03BC [0x6F] WAIT_FRAME_DELAY: Yield until WaitTime reaches zero
  4: 0x03BD [0x00] END_REQSTACK()
```

### Event 65535.52

#### Metadata

| Field        | Value    |
|--------------|----------|
| Entrypoint   | 0x03BE   |
| Data Size    | 16 bytes |
| Instructions | 2        |

```
      00 01 02 03 04 05 06 07  08 09 0A 0B 0C 0D 0E 0F
      -- -- -- -- -- -- -- --  -- -- -- -- -- -- -- --
03B0:                                            5B 40                [@
03C0: 80 34 50 0F 01 34 50 0F  01 6F 70 62 30 00        .4P..4P..opb0.  
```

#### Opcodes

```
  0: 0x03BE [0x5B] LOAD_EXT_SCHEDULER: Load scheduler "opb0" with entities [Venika (ID: 17780788/0x010F5034), Venika (ID: 17780788/0x010F5034)], work=2584*
  1: 0x03CD [0x00] END_REQSTACK()
```

### Event 65535.53

#### Metadata

| Field        | Value    |
|--------------|----------|
| Entrypoint   | 0x03CE   |
| Data Size    | 16 bytes |
| Instructions | 2        |

```
      00 01 02 03 04 05 06 07  08 09 0A 0B 0C 0D 0E 0F
      -- -- -- -- -- -- -- --  -- -- -- -- -- -- -- --
03C0:                                            5B 40                [@
03D0: 80 34 50 0F 01 34 50 0F  01 6F 70 62 31 00        .4P..4P..opb1.  
```

#### Opcodes

```
  0: 0x03CE [0x5B] LOAD_EXT_SCHEDULER: Load scheduler "opb1" with entities [Venika (ID: 17780788/0x010F5034), Venika (ID: 17780788/0x010F5034)], work=2584*
  1: 0x03DD [0x00] END_REQSTACK()
```

### Event 65535.54

#### Metadata

| Field        | Value    |
|--------------|----------|
| Entrypoint   | 0x03DE   |
| Data Size    | 20 bytes |
| Instructions | 5        |

```
      00 01 02 03 04 05 06 07  08 09 0A 0B 0C 0D 0E 0F
      -- -- -- -- -- -- -- --  -- -- -- -- -- -- -- --
03D0:                                            59 04                Y.
03E0: 34 50 0F 01 04 80 1F 00  41 80 42 80 07 80 1F 01  4P......A.B.....
03F0: 6F 00                                             o.              
```

#### Opcodes

```
  0: 0x03DE [0x59] UPDATE_ENTITY_DATA: Set Venika (ID: 17780788/0x010F5034) main speed = 12* * 0.1
  1: 0x03E6 [0x1F] MOVE_ENTITY: EventEntity moves to X=-0.991*, Z=2.123*, Y=0.000*
  2: 0x03EE [0x1F] MOVE_ENTITY: Update entity position (mode=1)
  3: 0x03F0 [0x6F] WAIT_FRAME_DELAY: Yield until WaitTime reaches zero
  4: 0x03F1 [0x00] END_REQSTACK()
```

### Event 65535.55

#### Metadata

| Field        | Value    |
|--------------|----------|
| Entrypoint   | 0x03F2   |
| Data Size    | 16 bytes |
| Instructions | 2        |

```
      00 01 02 03 04 05 06 07  08 09 0A 0B 0C 0D 0E 0F
      -- -- -- -- -- -- -- --  -- -- -- -- -- -- -- --
03F0:       5B 40 80 34 50 0F  01 34 50 0F 01 6F 70 63    [@.4P..4P..opc
0400: 30 00                                             0.              
```

#### Opcodes

```
  0: 0x03F2 [0x5B] LOAD_EXT_SCHEDULER: Load scheduler "opc0" with entities [Venika (ID: 17780788/0x010F5034), Venika (ID: 17780788/0x010F5034)], work=2584*
  1: 0x0401 [0x00] END_REQSTACK()
```

### Event 65535.56

#### Metadata

| Field        | Value    |
|--------------|----------|
| Entrypoint   | 0x0402   |
| Data Size    | 16 bytes |
| Instructions | 2        |

```
      00 01 02 03 04 05 06 07  08 09 0A 0B 0C 0D 0E 0F
      -- -- -- -- -- -- -- --  -- -- -- -- -- -- -- --
0400:       5B 40 80 34 50 0F  01 34 50 0F 01 6F 70 63    [@.4P..4P..opc
0410: 31 00                                             1.              
```

#### Opcodes

```
  0: 0x0402 [0x5B] LOAD_EXT_SCHEDULER: Load scheduler "opc1" with entities [Venika (ID: 17780788/0x010F5034), Venika (ID: 17780788/0x010F5034)], work=2584*
  1: 0x0411 [0x00] END_REQSTACK()
```

### Event 65535.57

#### Metadata

| Field        | Value    |
|--------------|----------|
| Entrypoint   | 0x0412   |
| Data Size    | 16 bytes |
| Instructions | 2        |

```
      00 01 02 03 04 05 06 07  08 09 0A 0B 0C 0D 0E 0F
      -- -- -- -- -- -- -- --  -- -- -- -- -- -- -- --
0410:       66 43 80 36 50 0F  01 36 50 0F 01 61 77 77    fC.6P..6P..aww
0420: 30 00                                             0.              
```

#### Opcodes

```
  0: 0x0412 [0x66] LOAD_EXT_SCHEDULER_MAIN: Load scheduler "aww0" with entities [Kuah Dakonsa (ID: 17780790/0x010F5036), Kuah Dakonsa (ID: 17780790/0x010F5036)], work=8*
  1: 0x0421 [0x00] END_REQSTACK()
```

### Event 65535.58

#### Metadata

| Field        | Value    |
|--------------|----------|
| Entrypoint   | 0x0422   |
| Data Size    | 16 bytes |
| Instructions | 2        |

```
      00 01 02 03 04 05 06 07  08 09 0A 0B 0C 0D 0E 0F
      -- -- -- -- -- -- -- --  -- -- -- -- -- -- -- --
0420:       66 44 80 36 50 0F  01 36 50 0F 01 74 68 6B    fD.6P..6P..thk
0430: 31 00                                             1.              
```

#### Opcodes

```
  0: 0x0422 [0x66] LOAD_EXT_SCHEDULER_MAIN: Load scheduler "thk1" with entities [Kuah Dakonsa (ID: 17780790/0x010F5036), Kuah Dakonsa (ID: 17780790/0x010F5036)], work=51*
  1: 0x0431 [0x00] END_REQSTACK()
```

### Event 65535.59

#### Metadata

| Field        | Value    |
|--------------|----------|
| Entrypoint   | 0x0432   |
| Data Size    | 21 bytes |
| Instructions | 5        |

```
      00 01 02 03 04 05 06 07  08 09 0A 0B 0C 0D 0E 0F
      -- -- -- -- -- -- -- --  -- -- -- -- -- -- -- --
0430:       59 04 32 50 0F 01  04 80 1F 00 45 80 46 80    Y.2P......E.F.
0440: 0D 80 1F 01 6F 00 00                              ....o..         
```

#### Opcodes

```
  0: 0x0432 [0x59] UPDATE_ENTITY_DATA: Set Gurdern (ID: 17780786/0x010F5032) main speed = 12* * 0.1
  1: 0x043A [0x1F] MOVE_ENTITY: EventEntity moves to X=-61.958*, Z=-103.267*, Y=5.999*
  2: 0x0442 [0x1F] MOVE_ENTITY: Update entity position (mode=1)
  3: 0x0444 [0x6F] WAIT_FRAME_DELAY: Yield until WaitTime reaches zero
  4: 0x0445 [0x00] END_REQSTACK()
```

#### Data or dead code:

```
# Dead code (unreachable instructions):
     0x0446 [0x00] END_REQSTACK()
```

### Event 65535.60

#### Metadata

| Field        | Value    |
|--------------|----------|
| Entrypoint   | 0x0447   |
| Data Size    | 20 bytes |
| Instructions | 5        |

```
      00 01 02 03 04 05 06 07  08 09 0A 0B 0C 0D 0E 0F
      -- -- -- -- -- -- -- --  -- -- -- -- -- -- -- --
0440:                      59  04 32 50 0F 01 04 80 1F         Y.2P.....
0450: 00 47 80 48 80 0D 80 1F  01 6F 00                 .G.H.....o.     
```

#### Opcodes

```
  0: 0x0447 [0x59] UPDATE_ENTITY_DATA: Set Gurdern (ID: 17780786/0x010F5032) main speed = 12* * 0.1
  1: 0x044F [0x1F] MOVE_ENTITY: EventEntity moves to X=-66.589*, Z=-92.299*, Y=5.999*
  2: 0x0457 [0x1F] MOVE_ENTITY: Update entity position (mode=1)
  3: 0x0459 [0x6F] WAIT_FRAME_DELAY: Yield until WaitTime reaches zero
  4: 0x045A [0x00] END_REQSTACK()
```

### Event 65535.61

#### Metadata

| Field        | Value    |
|--------------|----------|
| Entrypoint   | 0x045B   |
| Data Size    | 20 bytes |
| Instructions | 5        |

```
      00 01 02 03 04 05 06 07  08 09 0A 0B 0C 0D 0E 0F
      -- -- -- -- -- -- -- --  -- -- -- -- -- -- -- --
0450:                                   59 04 32 50 0F             Y.2P.
0460: 01 04 80 1F 00 49 80 4A  80 0D 80 1F 01 6F 00     .....I.J.....o. 
```

#### Opcodes

```
  0: 0x045B [0x59] UPDATE_ENTITY_DATA: Set Gurdern (ID: 17780786/0x010F5032) main speed = 12* * 0.1
  1: 0x0463 [0x1F] MOVE_ENTITY: EventEntity moves to X=-58.931*, Z=-86.942*, Y=5.999*
  2: 0x046B [0x1F] MOVE_ENTITY: Update entity position (mode=1)
  3: 0x046D [0x6F] WAIT_FRAME_DELAY: Yield until WaitTime reaches zero
  4: 0x046E [0x00] END_REQSTACK()
```

### Event 65535.62

#### Metadata

| Field        | Value    |
|--------------|----------|
| Entrypoint   | 0x046F   |
| Data Size    | 17 bytes |
| Instructions | 2        |

```
      00 01 02 03 04 05 06 07  08 09 0A 0B 0C 0D 0E 0F
      -- -- -- -- -- -- -- --  -- -- -- -- -- -- -- --
0460:                                               5B                 [
0470: 1C 80 32 50 0F 01 32 50  0F 01 6F 70 30 30 00 00  ..2P..2P..op00..
```

#### Opcodes

```
  0: 0x046F [0x5B] LOAD_EXT_SCHEDULER: Load scheduler "op00" with entities [Gurdern (ID: 17780786/0x010F5032), Gurdern (ID: 17780786/0x010F5032)], work=2621*
  1: 0x047E [0x00] END_REQSTACK()
```

#### Data or dead code:

```
# Dead code (unreachable instructions):
     0x047F [0x00] END_REQSTACK()
```

### Event 65535.63

#### Metadata

| Field        | Value    |
|--------------|----------|
| Entrypoint   | 0x0480   |
| Data Size    | 20 bytes |
| Instructions | 5        |

```
      00 01 02 03 04 05 06 07  08 09 0A 0B 0C 0D 0E 0F
      -- -- -- -- -- -- -- --  -- -- -- -- -- -- -- --
0480: 59 04 1C 50 0F 01 08 80  1F 00 09 80 0A 80 07 80  Y..P............
0490: 1F 01 6F 00                                       ..o.            
```

#### Opcodes

```
  0: 0x0480 [0x59] UPDATE_ENTITY_DATA: Set Mertaire (ID: 17780764/0x010F501C) main speed = 11* * 0.1
  1: 0x0488 [0x1F] MOVE_ENTITY: EventEntity moves to X=-95.337*, Z=-156.056*, Y=0.000*
  2: 0x0490 [0x1F] MOVE_ENTITY: Update entity position (mode=1)
  3: 0x0492 [0x6F] WAIT_FRAME_DELAY: Yield until WaitTime reaches zero
  4: 0x0493 [0x00] END_REQSTACK()
```

### Event 65535.64

#### Metadata

| Field        | Value    |
|--------------|----------|
| Entrypoint   | 0x0494   |
| Data Size    | 20 bytes |
| Instructions | 5        |

```
      00 01 02 03 04 05 06 07  08 09 0A 0B 0C 0D 0E 0F
      -- -- -- -- -- -- -- --  -- -- -- -- -- -- -- --
0490:             59 04 1C 50  0F 01 08 80 1F 00 4B 80      Y..P......K.
04A0: 4C 80 4D 80 1F 01 6F 00                           L.M...o.        
```

#### Opcodes

```
  0: 0x0494 [0x59] UPDATE_ENTITY_DATA: Set Mertaire (ID: 17780764/0x010F501C) main speed = 11* * 0.1
  1: 0x049C [0x1F] MOVE_ENTITY: EventEntity moves to X=-78.197*, Z=-116.328*, Y=3.999*
  2: 0x04A4 [0x1F] MOVE_ENTITY: Update entity position (mode=1)
  3: 0x04A6 [0x6F] WAIT_FRAME_DELAY: Yield until WaitTime reaches zero
  4: 0x04A7 [0x00] END_REQSTACK()
```

### Event 65535.65

#### Metadata

| Field        | Value    |
|--------------|----------|
| Entrypoint   | 0x04A8   |
| Data Size    | 16 bytes |
| Instructions | 2        |

```
      00 01 02 03 04 05 06 07  08 09 0A 0B 0C 0D 0E 0F
      -- -- -- -- -- -- -- --  -- -- -- -- -- -- -- --
04A0:                          5B 4E 80 1C 50 0F 01 1C          [N..P...
04B0: 50 0F 01 6F 70 63 30 00                           P..opc0.        
```

#### Opcodes

```
  0: 0x04A8 [0x5B] LOAD_EXT_SCHEDULER: Load scheduler "opc0" with entities [Mertaire (ID: 17780764/0x010F501C), Mertaire (ID: 17780764/0x010F501C)], work=2583*
  1: 0x04B7 [0x00] END_REQSTACK()
```

### Event 65535.66

#### Metadata

| Field        | Value    |
|--------------|----------|
| Entrypoint   | 0x04B8   |
| Data Size    | 16 bytes |
| Instructions | 2        |

```
      00 01 02 03 04 05 06 07  08 09 0A 0B 0C 0D 0E 0F
      -- -- -- -- -- -- -- --  -- -- -- -- -- -- -- --
04B0:                          5B 4E 80 1C 50 0F 01 1C          [N..P...
04C0: 50 0F 01 6F 70 63 31 00                           P..opc1.        
```

#### Opcodes

```
  0: 0x04B8 [0x5B] LOAD_EXT_SCHEDULER: Load scheduler "opc1" with entities [Mertaire (ID: 17780764/0x010F501C), Mertaire (ID: 17780764/0x010F501C)], work=2583*
  1: 0x04C7 [0x00] END_REQSTACK()
```

### Event 65535.67

#### Metadata

| Field        | Value    |
|--------------|----------|
| Entrypoint   | 0x04C8   |
| Data Size    | 21 bytes |
| Instructions | 5        |

```
      00 01 02 03 04 05 06 07  08 09 0A 0B 0C 0D 0E 0F
      -- -- -- -- -- -- -- --  -- -- -- -- -- -- -- --
04C0:                          59 04 1C 50 0F 01 08 80          Y..P....
04D0: 1F 00 4F 80 50 80 07 80  1F 01 6F 00 00           ..O.P.....o..   
```

#### Opcodes

```
  0: 0x04C8 [0x59] UPDATE_ENTITY_DATA: Set Mertaire (ID: 17780764/0x010F501C) main speed = 11* * 0.1
  1: 0x04D0 [0x1F] MOVE_ENTITY: EventEntity moves to X=-9.883*, Z=-9.826*, Y=0.000*
  2: 0x04D8 [0x1F] MOVE_ENTITY: Update entity position (mode=1)
  3: 0x04DA [0x6F] WAIT_FRAME_DELAY: Yield until WaitTime reaches zero
  4: 0x04DB [0x00] END_REQSTACK()
```

#### Data or dead code:

```
# Dead code (unreachable instructions):
     0x04DC [0x00] END_REQSTACK()
```

### Event 65535.68

#### Metadata

| Field        | Value    |
|--------------|----------|
| Entrypoint   | 0x04DD   |
| Data Size    | 20 bytes |
| Instructions | 5        |

```
      00 01 02 03 04 05 06 07  08 09 0A 0B 0C 0D 0E 0F
      -- -- -- -- -- -- -- --  -- -- -- -- -- -- -- --
04D0:                                         59 04 1E               Y..
04E0: 50 0F 01 51 80 1F 00 21  80 22 80 0D 80 1F 01 6F  P..Q...!.".....o
04F0: 00                                                .               
```

#### Opcodes

```
  0: 0x04DD [0x59] UPDATE_ENTITY_DATA: Set Bki Tbujhja (ID: 17780766/0x010F501E) main speed = 9* * 0.1
  1: 0x04E5 [0x1F] MOVE_ENTITY: EventEntity moves to X=-74.699*, Z=-107.115*, Y=5.999*
  2: 0x04ED [0x1F] MOVE_ENTITY: Update entity position (mode=1)
  3: 0x04EF [0x6F] WAIT_FRAME_DELAY: Yield until WaitTime reaches zero
  4: 0x04F0 [0x00] END_REQSTACK()
```

### Event 65535.69

#### Metadata

| Field        | Value    |
|--------------|----------|
| Entrypoint   | 0x04F1   |
| Data Size    | 20 bytes |
| Instructions | 5        |

```
      00 01 02 03 04 05 06 07  08 09 0A 0B 0C 0D 0E 0F
      -- -- -- -- -- -- -- --  -- -- -- -- -- -- -- --
04F0:    59 04 1E 50 0F 01 08  80 1F 00 52 80 53 80 0D   Y..P......R.S..
0500: 80 1F 01 6F 00                                    ...o.           
```

#### Opcodes

```
  0: 0x04F1 [0x59] UPDATE_ENTITY_DATA: Set Bki Tbujhja (ID: 17780766/0x010F501E) main speed = 11* * 0.1
  1: 0x04F9 [0x1F] MOVE_ENTITY: EventEntity moves to X=-72.052*, Z=-102.467*, Y=5.999*
  2: 0x0501 [0x1F] MOVE_ENTITY: Update entity position (mode=1)
  3: 0x0503 [0x6F] WAIT_FRAME_DELAY: Yield until WaitTime reaches zero
  4: 0x0504 [0x00] END_REQSTACK()
```

### Event 65535.70

#### Metadata

| Field        | Value    |
|--------------|----------|
| Entrypoint   | 0x0505   |
| Data Size    | 16 bytes |
| Instructions | 2        |

```
      00 01 02 03 04 05 06 07  08 09 0A 0B 0C 0D 0E 0F
      -- -- -- -- -- -- -- --  -- -- -- -- -- -- -- --
0500:                66 43 80  1E 50 0F 01 1E 50 0F 01       fC..P...P..
0510: 61 77 77 30 00                                    aww0.           
```

#### Opcodes

```
  0: 0x0505 [0x66] LOAD_EXT_SCHEDULER_MAIN: Load scheduler "aww0" with entities [Bki Tbujhja (ID: 17780766/0x010F501E), Bki Tbujhja (ID: 17780766/0x010F501E)], work=8*
  1: 0x0514 [0x00] END_REQSTACK()
```

### Event 65535.71

#### Metadata

| Field        | Value    |
|--------------|----------|
| Entrypoint   | 0x0515   |
| Data Size    | 20 bytes |
| Instructions | 5        |

```
      00 01 02 03 04 05 06 07  08 09 0A 0B 0C 0D 0E 0F
      -- -- -- -- -- -- -- --  -- -- -- -- -- -- -- --
0510:                59 04 1E  50 0F 01 51 80 1F 00 54       Y..P..Q...T
0520: 80 55 80 07 80 1F 01 6F  00                       .U.....o.       
```

#### Opcodes

```
  0: 0x0515 [0x59] UPDATE_ENTITY_DATA: Set Bki Tbujhja (ID: 17780766/0x010F501E) main speed = 9* * 0.1
  1: 0x051D [0x1F] MOVE_ENTITY: EventEntity moves to X=-5.853*, Z=-5.190*, Y=0.000*
  2: 0x0525 [0x1F] MOVE_ENTITY: Update entity position (mode=1)
  3: 0x0527 [0x6F] WAIT_FRAME_DELAY: Yield until WaitTime reaches zero
  4: 0x0528 [0x00] END_REQSTACK()
```

### Event 65535.72

#### Metadata

| Field        | Value    |
|--------------|----------|
| Entrypoint   | 0x0529   |
| Data Size    | 21 bytes |
| Instructions | 5        |

```
      00 01 02 03 04 05 06 07  08 09 0A 0B 0C 0D 0E 0F
      -- -- -- -- -- -- -- --  -- -- -- -- -- -- -- --
0520:                             59 04 1E 50 0F 01 08           Y..P...
0530: 80 1F 00 49 80 4A 80 0D  80 1F 01 6F 00 00        ...I.J.....o..  
```

#### Opcodes

```
  0: 0x0529 [0x59] UPDATE_ENTITY_DATA: Set Bki Tbujhja (ID: 17780766/0x010F501E) main speed = 11* * 0.1
  1: 0x0531 [0x1F] MOVE_ENTITY: EventEntity moves to X=-58.931*, Z=-86.942*, Y=5.999*
  2: 0x0539 [0x1F] MOVE_ENTITY: Update entity position (mode=1)
  3: 0x053B [0x6F] WAIT_FRAME_DELAY: Yield until WaitTime reaches zero
  4: 0x053C [0x00] END_REQSTACK()
```

#### Data or dead code:

```
# Dead code (unreachable instructions):
     0x053D [0x00] END_REQSTACK()
```

### Event 65535.73

#### Metadata

| Field        | Value    |
|--------------|----------|
| Entrypoint   | 0x053E   |
| Data Size    | 20 bytes |
| Instructions | 5        |

```
      00 01 02 03 04 05 06 07  08 09 0A 0B 0C 0D 0E 0F
      -- -- -- -- -- -- -- --  -- -- -- -- -- -- -- --
0530:                                            59 04                Y.
0540: 27 50 0F 01 04 80 1F 00  56 80 57 80 58 80 1F 01  'P......V.W.X...
0550: 6F 00                                             o.              
```

#### Opcodes

```
  0: 0x053E [0x59] UPDATE_ENTITY_DATA: Set Danzhor (ID: 17780775/0x010F5027) main speed = 12* * 0.1
  1: 0x0546 [0x1F] MOVE_ENTITY: EventEntity moves to X=-45.210*, Z=-89.196*, Y=-5.999*
  2: 0x054E [0x1F] MOVE_ENTITY: Update entity position (mode=1)
  3: 0x0550 [0x6F] WAIT_FRAME_DELAY: Yield until WaitTime reaches zero
  4: 0x0551 [0x00] END_REQSTACK()
```

### Event 65535.74

#### Metadata

| Field        | Value    |
|--------------|----------|
| Entrypoint   | 0x0552   |
| Data Size    | 12 bytes |
| Instructions | 4        |

```
      00 01 02 03 04 05 06 07  08 09 0A 0B 0C 0D 0E 0F
      -- -- -- -- -- -- -- --  -- -- -- -- -- -- -- --
0550:       1F 00 59 80 5A 80  07 80 1F 01 6F 00          ..Y.Z.....o.  
```

#### Opcodes

```
  0: 0x0552 [0x1F] MOVE_ENTITY: EventEntity moves to X=-18.343*, Z=-8.286*, Y=0.000*
  1: 0x055A [0x1F] MOVE_ENTITY: Update entity position (mode=1)
  2: 0x055C [0x6F] WAIT_FRAME_DELAY: Yield until WaitTime reaches zero
  3: 0x055D [0x00] END_REQSTACK()
```

### Event 65535.75

#### Metadata

| Field        | Value    |
|--------------|----------|
| Entrypoint   | 0x055E   |
| Data Size    | 16 bytes |
| Instructions | 2        |

```
      00 01 02 03 04 05 06 07  08 09 0A 0B 0C 0D 0E 0F
      -- -- -- -- -- -- -- --  -- -- -- -- -- -- -- --
0550:                                            66 19                f.
0560: 80 27 50 0F 01 27 50 0F  01 74 68 6B 31 00        .'P..'P..thk1.  
```

#### Opcodes

```
  0: 0x055E [0x66] LOAD_EXT_SCHEDULER_MAIN: Load scheduler "thk1" with entities [Danzhor (ID: 17780775/0x010F5027), Danzhor (ID: 17780775/0x010F5027)], work=69*
  1: 0x056D [0x00] END_REQSTACK()
```

### Event 65535.76

#### Metadata

| Field        | Value    |
|--------------|----------|
| Entrypoint   | 0x056E   |
| Data Size    | 16 bytes |
| Instructions | 2        |

```
      00 01 02 03 04 05 06 07  08 09 0A 0B 0C 0D 0E 0F
      -- -- -- -- -- -- -- --  -- -- -- -- -- -- -- --
0560:                                            66 19                f.
0570: 80 27 50 0F 01 27 50 0F  01 74 68 6B 32 00        .'P..'P..thk2.  
```

#### Opcodes

```
  0: 0x056E [0x66] LOAD_EXT_SCHEDULER_MAIN: Load scheduler "thk2" with entities [Danzhor (ID: 17780775/0x010F5027), Danzhor (ID: 17780775/0x010F5027)], work=69*
  1: 0x057D [0x00] END_REQSTACK()
```

### Event 65535.77

#### Metadata

| Field        | Value    |
|--------------|----------|
| Entrypoint   | 0x057E   |
| Data Size    | 20 bytes |
| Instructions | 5        |

```
      00 01 02 03 04 05 06 07  08 09 0A 0B 0C 0D 0E 0F
      -- -- -- -- -- -- -- --  -- -- -- -- -- -- -- --
0570:                                            59 04                Y.
0580: 27 50 0F 01 04 80 1F 00  5B 80 5C 80 07 80 1F 01  'P......[.\.....
0590: 6F 00                                             o.              
```

#### Opcodes

```
  0: 0x057E [0x59] UPDATE_ENTITY_DATA: Set Danzhor (ID: 17780775/0x010F5027) main speed = 12* * 0.1
  1: 0x0586 [0x1F] MOVE_ENTITY: EventEntity moves to X=-17.939*, Z=-16.579*, Y=0.000*
  2: 0x058E [0x1F] MOVE_ENTITY: Update entity position (mode=1)
  3: 0x0590 [0x6F] WAIT_FRAME_DELAY: Yield until WaitTime reaches zero
  4: 0x0591 [0x00] END_REQSTACK()
```

### Event 65535.78

#### Metadata

| Field        | Value    |
|--------------|----------|
| Entrypoint   | 0x0592   |
| Data Size    | 20 bytes |
| Instructions | 5        |

```
      00 01 02 03 04 05 06 07  08 09 0A 0B 0C 0D 0E 0F
      -- -- -- -- -- -- -- --  -- -- -- -- -- -- -- --
0590:       59 04 27 50 0F 01  04 80 1F 00 5D 80 5E 80    Y.'P......].^.
05A0: 07 80 1F 01 6F 00                                 ....o.          
```

#### Opcodes

```
  0: 0x0592 [0x59] UPDATE_ENTITY_DATA: Set Danzhor (ID: 17780775/0x010F5027) main speed = 12* * 0.1
  1: 0x059A [0x1F] MOVE_ENTITY: EventEntity moves to X=-3.065*, Z=-7.931*, Y=0.000*
  2: 0x05A2 [0x1F] MOVE_ENTITY: Update entity position (mode=1)
  3: 0x05A4 [0x6F] WAIT_FRAME_DELAY: Yield until WaitTime reaches zero
  4: 0x05A5 [0x00] END_REQSTACK()
```

### Event 65535.79

#### Metadata

| Field        | Value    |
|--------------|----------|
| Entrypoint   | 0x05A6   |
| Data Size    | 17 bytes |
| Instructions | 2        |

```
      00 01 02 03 04 05 06 07  08 09 0A 0B 0C 0D 0E 0F
      -- -- -- -- -- -- -- --  -- -- -- -- -- -- -- --
05A0:                   66 2E  80 30 50 0F 01 30 50 0F        f..0P..0P.
05B0: 01 73 68 6B 30 00 00                              .shk0..         
```

#### Opcodes

```
  0: 0x05A6 [0x66] LOAD_EXT_SCHEDULER_MAIN: Load scheduler "shk0" with entities [Kikilolo (ID: 17780784/0x010F5030), Kikilolo (ID: 17780784/0x010F5030)], work=41*
  1: 0x05B5 [0x00] END_REQSTACK()
```

#### Data or dead code:

```
# Dead code (unreachable instructions):
     0x05B6 [0x00] END_REQSTACK()
```

### Event 65535.80

#### Metadata

| Field        | Value    |
|--------------|----------|
| Entrypoint   | 0x05B7   |
| Data Size    | 16 bytes |
| Instructions | 2        |

```
      00 01 02 03 04 05 06 07  08 09 0A 0B 0C 0D 0E 0F
      -- -- -- -- -- -- -- --  -- -- -- -- -- -- -- --
05B0:                      5B  5F 80 39 50 0F 01 39 50         [_.9P..9P
05C0: 0F 01 74 6C 6B 30 00                              ..tlk0.         
```

#### Opcodes

```
  0: 0x05B7 [0x5B] LOAD_EXT_SCHEDULER: Load scheduler "tlk0" with entities [Momiji (ID: 17780793/0x010F5039), Momiji (ID: 17780793/0x010F5039)], work=60*
  1: 0x05C6 [0x00] END_REQSTACK()
```

### Event 65535.81

#### Metadata

| Field        | Value    |
|--------------|----------|
| Entrypoint   | 0x05C7   |
| Data Size    | 16 bytes |
| Instructions | 2        |

```
      00 01 02 03 04 05 06 07  08 09 0A 0B 0C 0D 0E 0F
      -- -- -- -- -- -- -- --  -- -- -- -- -- -- -- --
05C0:                      5B  5F 80 39 50 0F 01 39 50         [_.9P..9P
05D0: 0F 01 74 6C 6B 31 00                              ..tlk1.         
```

#### Opcodes

```
  0: 0x05C7 [0x5B] LOAD_EXT_SCHEDULER: Load scheduler "tlk1" with entities [Momiji (ID: 17780793/0x010F5039), Momiji (ID: 17780793/0x010F5039)], work=60*
  1: 0x05D6 [0x00] END_REQSTACK()
```

### Event 65535.82

#### Metadata

| Field        | Value    |
|--------------|----------|
| Entrypoint   | 0x05D7   |
| Data Size    | 16 bytes |
| Instructions | 2        |

```
      00 01 02 03 04 05 06 07  08 09 0A 0B 0C 0D 0E 0F
      -- -- -- -- -- -- -- --  -- -- -- -- -- -- -- --
05D0:                      5B  5F 80 39 50 0F 01 39 50         [_.9P..9P
05E0: 0F 01 74 68 6B 31 00                              ..thk1.         
```

#### Opcodes

```
  0: 0x05D7 [0x5B] LOAD_EXT_SCHEDULER: Load scheduler "thk1" with entities [Momiji (ID: 17780793/0x010F5039), Momiji (ID: 17780793/0x010F5039)], work=60*
  1: 0x05E6 [0x00] END_REQSTACK()
```

### Event 65535.83

#### Metadata

| Field        | Value    |
|--------------|----------|
| Entrypoint   | 0x05E7   |
| Data Size    | 16 bytes |
| Instructions | 2        |

```
      00 01 02 03 04 05 06 07  08 09 0A 0B 0C 0D 0E 0F
      -- -- -- -- -- -- -- --  -- -- -- -- -- -- -- --
05E0:                      5B  5F 80 39 50 0F 01 39 50         [_.9P..9P
05F0: 0F 01 74 68 6B 32 00                              ..thk2.         
```

#### Opcodes

```
  0: 0x05E7 [0x5B] LOAD_EXT_SCHEDULER: Load scheduler "thk2" with entities [Momiji (ID: 17780793/0x010F5039), Momiji (ID: 17780793/0x010F5039)], work=60*
  1: 0x05F6 [0x00] END_REQSTACK()
```

### Event 65535.84

#### Metadata

| Field        | Value    |
|--------------|----------|
| Entrypoint   | 0x05F7   |
| Data Size    | 17 bytes |
| Instructions | 2        |

```
      00 01 02 03 04 05 06 07  08 09 0A 0B 0C 0D 0E 0F
      -- -- -- -- -- -- -- --  -- -- -- -- -- -- -- --
05F0:                      5B  60 80 39 50 0F 01 39 50         [`.9P..9P
0600: 0F 01 65 6D 74 30 00 00                           ..emt0..        
```

#### Opcodes

```
  0: 0x05F7 [0x5B] LOAD_EXT_SCHEDULER: Load scheduler "emt0" with entities [Momiji (ID: 17780793/0x010F5039), Momiji (ID: 17780793/0x010F5039)], work=2624*
  1: 0x0606 [0x00] END_REQSTACK()
```

#### Data or dead code:

```
# Dead code (unreachable instructions):
     0x0607 [0x00] END_REQSTACK()
```

### Event 65535.85

#### Metadata

| Field        | Value    |
|--------------|----------|
| Entrypoint   | 0x0608   |
| Data Size    | 20 bytes |
| Instructions | 5        |

```
      00 01 02 03 04 05 06 07  08 09 0A 0B 0C 0D 0E 0F
      -- -- -- -- -- -- -- --  -- -- -- -- -- -- -- --
0600:                          59 04 3C 50 0F 01 37 80          Y.<P..7.
0610: 1F 00 61 80 62 80 07 80  1F 01 6F 00              ..a.b.....o.    
```

#### Opcodes

```
  0: 0x0608 [0x59] UPDATE_ENTITY_DATA: Set Mendi (ID: 17780796/0x010F503C) main speed = 13* * 0.1
  1: 0x0610 [0x1F] MOVE_ENTITY: EventEntity moves to X=-38.371*, Z=-67.496*, Y=0.000*
  2: 0x0618 [0x1F] MOVE_ENTITY: Update entity position (mode=1)
  3: 0x061A [0x6F] WAIT_FRAME_DELAY: Yield until WaitTime reaches zero
  4: 0x061B [0x00] END_REQSTACK()
```

### Event 65535.86

#### Metadata

| Field        | Value    |
|--------------|----------|
| Entrypoint   | 0x061C   |
| Data Size    | 12 bytes |
| Instructions | 4        |

```
      00 01 02 03 04 05 06 07  08 09 0A 0B 0C 0D 0E 0F
      -- -- -- -- -- -- -- --  -- -- -- -- -- -- -- --
0610:                                      1F 00 63 80              ..c.
0620: 64 80 07 80 1F 01 6F 00                           d.....o.        
```

#### Opcodes

```
  0: 0x061C [0x1F] MOVE_ENTITY: EventEntity moves to X=-5.565*, Z=-1.804*, Y=0.000*
  1: 0x0624 [0x1F] MOVE_ENTITY: Update entity position (mode=1)
  2: 0x0626 [0x6F] WAIT_FRAME_DELAY: Yield until WaitTime reaches zero
  3: 0x0627 [0x00] END_REQSTACK()
```

### Event 65535.87

#### Metadata

| Field        | Value    |
|--------------|----------|
| Entrypoint   | 0x0628   |
| Data Size    | 16 bytes |
| Instructions | 2        |

```
      00 01 02 03 04 05 06 07  08 09 0A 0B 0C 0D 0E 0F
      -- -- -- -- -- -- -- --  -- -- -- -- -- -- -- --
0620:                          5B 4E 80 3C 50 0F 01 3C          [N.<P..<
0630: 50 0F 01 6F 70 62 30 00                           P..opb0.        
```

#### Opcodes

```
  0: 0x0628 [0x5B] LOAD_EXT_SCHEDULER: Load scheduler "opb0" with entities [Mendi (ID: 17780796/0x010F503C), Mendi (ID: 17780796/0x010F503C)], work=2583*
  1: 0x0637 [0x00] END_REQSTACK()
```

### Event 65535.88

#### Metadata

| Field        | Value    |
|--------------|----------|
| Entrypoint   | 0x0638   |
| Data Size    | 16 bytes |
| Instructions | 2        |

```
      00 01 02 03 04 05 06 07  08 09 0A 0B 0C 0D 0E 0F
      -- -- -- -- -- -- -- --  -- -- -- -- -- -- -- --
0630:                          5B 4E 80 3C 50 0F 01 3C          [N.<P..<
0640: 50 0F 01 6F 70 63 30 00                           P..opc0.        
```

#### Opcodes

```
  0: 0x0638 [0x5B] LOAD_EXT_SCHEDULER: Load scheduler "opc0" with entities [Mendi (ID: 17780796/0x010F503C), Mendi (ID: 17780796/0x010F503C)], work=2583*
  1: 0x0647 [0x00] END_REQSTACK()
```

### Event 65535.89

#### Metadata

| Field        | Value    |
|--------------|----------|
| Entrypoint   | 0x0648   |
| Data Size    | 16 bytes |
| Instructions | 2        |

```
      00 01 02 03 04 05 06 07  08 09 0A 0B 0C 0D 0E 0F
      -- -- -- -- -- -- -- --  -- -- -- -- -- -- -- --
0640:                          5B 4E 80 3C 50 0F 01 3C          [N.<P..<
0650: 50 0F 01 6F 70 63 31 00                           P..opc1.        
```

#### Opcodes

```
  0: 0x0648 [0x5B] LOAD_EXT_SCHEDULER: Load scheduler "opc1" with entities [Mendi (ID: 17780796/0x010F503C), Mendi (ID: 17780796/0x010F503C)], work=2583*
  1: 0x0657 [0x00] END_REQSTACK()
```

### Event 65535.90

#### Metadata

| Field        | Value    |
|--------------|----------|
| Entrypoint   | 0x0658   |
| Data Size    | 16 bytes |
| Instructions | 2        |

```
      00 01 02 03 04 05 06 07  08 09 0A 0B 0C 0D 0E 0F
      -- -- -- -- -- -- -- --  -- -- -- -- -- -- -- --
0650:                          66 65 80 3C 50 0F 01 3C          fe.<P..<
0660: 50 0F 01 74 68 62 31 00                           P..thb1.        
```

#### Opcodes

```
  0: 0x0658 [0x66] LOAD_EXT_SCHEDULER_MAIN: Load scheduler "thb1" with entities [Mendi (ID: 17780796/0x010F503C), Mendi (ID: 17780796/0x010F503C)], work=2*
  1: 0x0667 [0x00] END_REQSTACK()
```

### Event 65535.91

#### Metadata

| Field        | Value    |
|--------------|----------|
| Entrypoint   | 0x0668   |
| Data Size    | 16 bytes |
| Instructions | 2        |

```
      00 01 02 03 04 05 06 07  08 09 0A 0B 0C 0D 0E 0F
      -- -- -- -- -- -- -- --  -- -- -- -- -- -- -- --
0660:                          66 65 80 3C 50 0F 01 3C          fe.<P..<
0670: 50 0F 01 74 68 62 32 00                           P..thb2.        
```

#### Opcodes

```
  0: 0x0668 [0x66] LOAD_EXT_SCHEDULER_MAIN: Load scheduler "thb2" with entities [Mendi (ID: 17780796/0x010F503C), Mendi (ID: 17780796/0x010F503C)], work=2*
  1: 0x0677 [0x00] END_REQSTACK()
```

### Event 65535.92

#### Metadata

| Field        | Value    |
|--------------|----------|
| Entrypoint   | 0x0678   |
| Data Size    | 16 bytes |
| Instructions | 2        |

```
      00 01 02 03 04 05 06 07  08 09 0A 0B 0C 0D 0E 0F
      -- -- -- -- -- -- -- --  -- -- -- -- -- -- -- --
0670:                          66 07 80 3C 50 0F 01 3C          f..<P..<
0680: 50 0F 01 74 68 6B 31 00                           P..thk1.        
```

#### Opcodes

```
  0: 0x0678 [0x66] LOAD_EXT_SCHEDULER_MAIN: Load scheduler "thk1" with entities [Mendi (ID: 17780796/0x010F503C), Mendi (ID: 17780796/0x010F503C)], work=0*
  1: 0x0687 [0x00] END_REQSTACK()
```

### Event 65535.93

#### Metadata

| Field        | Value    |
|--------------|----------|
| Entrypoint   | 0x0688   |
| Data Size    | 16 bytes |
| Instructions | 2        |

```
      00 01 02 03 04 05 06 07  08 09 0A 0B 0C 0D 0E 0F
      -- -- -- -- -- -- -- --  -- -- -- -- -- -- -- --
0680:                          66 07 80 3C 50 0F 01 3C          f..<P..<
0690: 50 0F 01 74 68 6B 32 00                           P..thk2.        
```

#### Opcodes

```
  0: 0x0688 [0x66] LOAD_EXT_SCHEDULER_MAIN: Load scheduler "thk2" with entities [Mendi (ID: 17780796/0x010F503C), Mendi (ID: 17780796/0x010F503C)], work=0*
  1: 0x0697 [0x00] END_REQSTACK()
```

### Event 65535.94

#### Metadata

| Field        | Value    |
|--------------|----------|
| Entrypoint   | 0x0698   |
| Data Size    | 20 bytes |
| Instructions | 5        |

```
      00 01 02 03 04 05 06 07  08 09 0A 0B 0C 0D 0E 0F
      -- -- -- -- -- -- -- --  -- -- -- -- -- -- -- --
0690:                          59 04 3C 50 0F 01 37 80          Y.<P..7.
06A0: 1F 00 66 80 67 80 07 80  1F 01 6F 00              ..f.g.....o.    
```

#### Opcodes

```
  0: 0x0698 [0x59] UPDATE_ENTITY_DATA: Set Mendi (ID: 17780796/0x010F503C) main speed = 13* * 0.1
  1: 0x06A0 [0x1F] MOVE_ENTITY: EventEntity moves to X=-2.765*, Z=5.059*, Y=0.000*
  2: 0x06A8 [0x1F] MOVE_ENTITY: Update entity position (mode=1)
  3: 0x06AA [0x6F] WAIT_FRAME_DELAY: Yield until WaitTime reaches zero
  4: 0x06AB [0x00] END_REQSTACK()
```

### Event 65535.95

#### Metadata

| Field        | Value    |
|--------------|----------|
| Entrypoint   | 0x06AC   |
| Data Size    | 20 bytes |
| Instructions | 5        |

```
      00 01 02 03 04 05 06 07  08 09 0A 0B 0C 0D 0E 0F
      -- -- -- -- -- -- -- --  -- -- -- -- -- -- -- --
06A0:                                      59 04 3C 50              Y.<P
06B0: 0F 01 37 80 1F 00 41 80  42 80 07 80 1F 01 6F 00  ..7...A.B.....o.
```

#### Opcodes

```
  0: 0x06AC [0x59] UPDATE_ENTITY_DATA: Set Mendi (ID: 17780796/0x010F503C) main speed = 13* * 0.1
  1: 0x06B4 [0x1F] MOVE_ENTITY: EventEntity moves to X=-0.991*, Z=2.123*, Y=0.000*
  2: 0x06BC [0x1F] MOVE_ENTITY: Update entity position (mode=1)
  3: 0x06BE [0x6F] WAIT_FRAME_DELAY: Yield until WaitTime reaches zero
  4: 0x06BF [0x00] END_REQSTACK()
```

### Event 65535.96

#### Metadata

| Field        | Value    |
|--------------|----------|
| Entrypoint   | 0x06C0   |
| Data Size    | 16 bytes |
| Instructions | 2        |

```
      00 01 02 03 04 05 06 07  08 09 0A 0B 0C 0D 0E 0F
      -- -- -- -- -- -- -- --  -- -- -- -- -- -- -- --
06C0: 5B 4E 80 3C 50 0F 01 3C  50 0F 01 6F 70 64 30 00  [N.<P..<P..opd0.
```

#### Opcodes

```
  0: 0x06C0 [0x5B] LOAD_EXT_SCHEDULER: Load scheduler "opd0" with entities [Mendi (ID: 17780796/0x010F503C), Mendi (ID: 17780796/0x010F503C)], work=2583*
  1: 0x06CF [0x00] END_REQSTACK()
```

### Event 65535.97

#### Metadata

| Field        | Value    |
|--------------|----------|
| Entrypoint   | 0x06D0   |
| Data Size    | 16 bytes |
| Instructions | 2        |

```
      00 01 02 03 04 05 06 07  08 09 0A 0B 0C 0D 0E 0F
      -- -- -- -- -- -- -- --  -- -- -- -- -- -- -- --
06D0: 5B 4E 80 3C 50 0F 01 3C  50 0F 01 6F 70 64 31 00  [N.<P..<P..opd1.
```

#### Opcodes

```
  0: 0x06D0 [0x5B] LOAD_EXT_SCHEDULER: Load scheduler "opd1" with entities [Mendi (ID: 17780796/0x010F503C), Mendi (ID: 17780796/0x010F503C)], work=2583*
  1: 0x06DF [0x00] END_REQSTACK()
```
