# 17780810 - Prishe

## Common Data

| Field            | Value                 |
|------------------|-----------------------|
| Zone             | Lower Jeuno (ID: 245) |
| Block Size       | 3032 bytes            |
| Total Events     | 148                   |
| References Count | 32                    |

## List of Events

| Event ID                     | Entrypoint   |   Size |   Instructions |
|------------------------------|--------------|--------|----------------|
| [65535](#event-65535)        | 0x0000       |      1 |              1 |
| [65535.1](#event-655351)     | 0x0001       |     16 |              2 |
| [65535.2](#event-655352)     | 0x0011       |     14 |              2 |
| [65535.3](#event-655353)     | 0x001F       |     16 |              2 |
| [65535.4](#event-655354)     | 0x002F       |     14 |              2 |
| [65535.5](#event-655355)     | 0x003D       |     16 |              2 |
| [65535.6](#event-655356)     | 0x004D       |     14 |              2 |
| [65535.7](#event-655357)     | 0x005B       |     16 |              2 |
| [65535.8](#event-655358)     | 0x006B       |     14 |              2 |
| [65535.9](#event-655359)     | 0x0079       |     16 |              2 |
| [65535.10](#event-6553510)   | 0x0089       |     14 |              2 |
| [65535.11](#event-6553511)   | 0x0097       |     16 |              2 |
| [65535.12](#event-6553512)   | 0x00A7       |     14 |              2 |
| [65535.13](#event-6553513)   | 0x00B5       |     16 |              2 |
| [65535.14](#event-6553514)   | 0x00C5       |     14 |              2 |
| [65535.15](#event-6553515)   | 0x00D3       |     16 |              2 |
| [65535.16](#event-6553516)   | 0x00E3       |     14 |              2 |
| [65535.17](#event-6553517)   | 0x00F1       |     16 |              2 |
| [65535.18](#event-6553518)   | 0x0101       |     14 |              2 |
| [65535.19](#event-6553519)   | 0x010F       |     16 |              2 |
| [65535.20](#event-6553520)   | 0x011F       |     14 |              2 |
| [65535.21](#event-6553521)   | 0x012D       |     16 |              2 |
| [65535.22](#event-6553522)   | 0x013D       |     14 |              2 |
| [65535.23](#event-6553523)   | 0x014B       |     16 |              2 |
| [65535.24](#event-6553524)   | 0x015B       |     14 |              2 |
| [65535.25](#event-6553525)   | 0x0169       |     16 |              2 |
| [65535.26](#event-6553526)   | 0x0179       |     14 |              2 |
| [65535.27](#event-6553527)   | 0x0187       |     16 |              2 |
| [65535.28](#event-6553528)   | 0x0197       |     14 |              2 |
| [65535.29](#event-6553529)   | 0x01A5       |     16 |              2 |
| [65535.30](#event-6553530)   | 0x01B5       |     14 |              2 |
| [65535.31](#event-6553531)   | 0x01C3       |     16 |              2 |
| [65535.32](#event-6553532)   | 0x01D3       |     14 |              2 |
| [65535.33](#event-6553533)   | 0x01E1       |     16 |              2 |
| [65535.34](#event-6553534)   | 0x01F1       |     14 |              2 |
| [65535.35](#event-6553535)   | 0x01FF       |     16 |              2 |
| [65535.36](#event-6553536)   | 0x020F       |     14 |              2 |
| [65535.37](#event-6553537)   | 0x021D       |     16 |              2 |
| [65535.38](#event-6553538)   | 0x022D       |     14 |              2 |
| [65535.39](#event-6553539)   | 0x023B       |     16 |              2 |
| [65535.40](#event-6553540)   | 0x024B       |     14 |              2 |
| [65535.41](#event-6553541)   | 0x0259       |     16 |              2 |
| [65535.42](#event-6553542)   | 0x0269       |     14 |              2 |
| [65535.43](#event-6553543)   | 0x0277       |     16 |              2 |
| [65535.44](#event-6553544)   | 0x0287       |     14 |              2 |
| [65535.45](#event-6553545)   | 0x0295       |     16 |              2 |
| [65535.46](#event-6553546)   | 0x02A5       |     14 |              2 |
| [65535.47](#event-6553547)   | 0x02B3       |     22 |              3 |
| [65535.48](#event-6553548)   | 0x02C9       |     14 |              2 |
| [65535.49](#event-6553549)   | 0x02D7       |     16 |              2 |
| [65535.50](#event-6553550)   | 0x02E7       |     20 |              3 |
| [65535.51](#event-6553551)   | 0x02FB       |     22 |              3 |
| [65535.52](#event-6553552)   | 0x0311       |     14 |              2 |
| [65535.53](#event-6553553)   | 0x031F       |     16 |              2 |
| [65535.54](#event-6553554)   | 0x032F       |     14 |              2 |
| [65535.55](#event-6553555)   | 0x033D       |     16 |              2 |
| [65535.56](#event-6553556)   | 0x034D       |     14 |              2 |
| [65535.57](#event-6553557)   | 0x035B       |     16 |              2 |
| [65535.58](#event-6553558)   | 0x036B       |     14 |              2 |
| [65535.59](#event-6553559)   | 0x0379       |     16 |              2 |
| [65535.60](#event-6553560)   | 0x0389       |     14 |              2 |
| [65535.61](#event-6553561)   | 0x0397       |     16 |              2 |
| [65535.62](#event-6553562)   | 0x03A7       |     14 |              2 |
| [65535.63](#event-6553563)   | 0x03B5       |     16 |              2 |
| [65535.64](#event-6553564)   | 0x03C5       |     14 |              2 |
| [65535.65](#event-6553565)   | 0x03D3       |     16 |              2 |
| [65535.66](#event-6553566)   | 0x03E3       |     14 |              2 |
| [65535.67](#event-6553567)   | 0x03F1       |     22 |              3 |
| [65535.68](#event-6553568)   | 0x0407       |     14 |              2 |
| [65535.69](#event-6553569)   | 0x0415       |     16 |              2 |
| [65535.70](#event-6553570)   | 0x0425       |     20 |              3 |
| [65535.71](#event-6553571)   | 0x0439       |     16 |              2 |
| [65535.72](#event-6553572)   | 0x0449       |     14 |              2 |
| [65535.73](#event-6553573)   | 0x0457       |     16 |              2 |
| [65535.74](#event-6553574)   | 0x0467       |     14 |              2 |
| [65535.75](#event-6553575)   | 0x0475       |     16 |              2 |
| [65535.76](#event-6553576)   | 0x0485       |     14 |              2 |
| [65535.77](#event-6553577)   | 0x0493       |     16 |              2 |
| [65535.78](#event-6553578)   | 0x04A3       |     14 |              2 |
| [65535.79](#event-6553579)   | 0x04B1       |     16 |              2 |
| [65535.80](#event-6553580)   | 0x04C1       |     14 |              2 |
| [65535.81](#event-6553581)   | 0x04CF       |     16 |              2 |
| [65535.82](#event-6553582)   | 0x04DF       |     14 |              2 |
| [65535.83](#event-6553583)   | 0x04ED       |     16 |              2 |
| [65535.84](#event-6553584)   | 0x04FD       |     16 |              2 |
| [65535.85](#event-6553585)   | 0x050D       |     14 |              2 |
| [65535.86](#event-6553586)   | 0x051B       |     22 |              3 |
| [65535.87](#event-6553587)   | 0x0531       |     14 |              2 |
| [65535.88](#event-6553588)   | 0x053F       |     16 |              2 |
| [65535.89](#event-6553589)   | 0x054F       |     14 |              2 |
| [65535.90](#event-6553590)   | 0x055D       |     16 |              2 |
| [65535.91](#event-6553591)   | 0x056D       |     14 |              2 |
| [65535.92](#event-6553592)   | 0x057B       |     16 |              2 |
| [65535.93](#event-6553593)   | 0x058B       |     14 |              2 |
| [65535.94](#event-6553594)   | 0x0599       |     16 |              2 |
| [65535.95](#event-6553595)   | 0x05A9       |     14 |              2 |
| [65535.96](#event-6553596)   | 0x05B7       |     16 |              2 |
| [65535.97](#event-6553597)   | 0x05C7       |     14 |              2 |
| [65535.98](#event-6553598)   | 0x05D5       |     16 |              2 |
| [65535.99](#event-6553599)   | 0x05E5       |     14 |              2 |
| [65535.100](#event-65535100) | 0x05F3       |     16 |              2 |
| [65535.101](#event-65535101) | 0x0603       |     14 |              2 |
| [65535.102](#event-65535102) | 0x0611       |     16 |              2 |
| [65535.103](#event-65535103) | 0x0621       |     14 |              2 |
| [65535.104](#event-65535104) | 0x062F       |     16 |              2 |
| [65535.105](#event-65535105) | 0x063F       |     14 |              2 |
| [65535.106](#event-65535106) | 0x064D       |     16 |              2 |
| [65535.107](#event-65535107) | 0x065D       |     14 |              2 |
| [65535.108](#event-65535108) | 0x066B       |     16 |              2 |
| [65535.109](#event-65535109) | 0x067B       |     14 |              2 |
| [65535.110](#event-65535110) | 0x0689       |     16 |              2 |
| [65535.111](#event-65535111) | 0x0699       |     14 |              2 |
| [65535.112](#event-65535112) | 0x06A7       |     16 |              2 |
| [65535.113](#event-65535113) | 0x06B7       |     14 |              2 |
| [65535.114](#event-65535114) | 0x06C5       |     16 |              2 |
| [65535.115](#event-65535115) | 0x06D5       |     14 |              2 |
| [65535.116](#event-65535116) | 0x06E3       |     16 |              2 |
| [65535.117](#event-65535117) | 0x06F3       |     14 |              2 |
| [65535.118](#event-65535118) | 0x0701       |     24 |              3 |
| [65535.119](#event-65535119) | 0x0719       |     16 |              2 |
| [65535.120](#event-65535120) | 0x0729       |     39 |              4 |
| [65535.121](#event-65535121) | 0x0750       |     14 |              2 |
| [65535.122](#event-65535122) | 0x075E       |      7 |              2 |
| [65535.123](#event-65535123) | 0x0765       |     16 |              2 |
| [65535.124](#event-65535124) | 0x0775       |     14 |              2 |
| [65535.125](#event-65535125) | 0x0783       |     16 |              2 |
| [65535.126](#event-65535126) | 0x0793       |     14 |              2 |
| [65535.127](#event-65535127) | 0x07A1       |     22 |              3 |
| [65535.128](#event-65535128) | 0x07B7       |     14 |              2 |
| [65535.129](#event-65535129) | 0x07C5       |     16 |              2 |
| [65535.130](#event-65535130) | 0x07D5       |     20 |              3 |
| [65535.131](#event-65535131) | 0x07E9       |     22 |              3 |
| [65535.132](#event-65535132) | 0x07FF       |     20 |              3 |
| [65535.133](#event-65535133) | 0x0813       |     16 |              2 |
| [65535.134](#event-65535134) | 0x0823       |     14 |              2 |
| [65535.135](#event-65535135) | 0x0831       |     22 |              3 |
| [65535.136](#event-65535136) | 0x0847       |     14 |              2 |
| [65535.137](#event-65535137) | 0x0855       |     22 |              3 |
| [65535.138](#event-65535138) | 0x086B       |     14 |              2 |
| [65535.139](#event-65535139) | 0x0879       |     22 |              3 |
| [65535.140](#event-65535140) | 0x088F       |     14 |              2 |
| [65535.141](#event-65535141) | 0x089D       |      9 |              3 |
| [10040](#event-10040)        | 0x08A6       |     15 |              4 |
| [65535.142](#event-65535142) | 0x08B5       |     10 |              2 |
| [65535.143](#event-65535143) | 0x08BF       |     14 |              4 |
| [65535.144](#event-65535144) | 0x08CD       |     15 |              5 |
| [65535.145](#event-65535145) | 0x08DC       |      4 |              2 |
| [65535.146](#event-65535146) | 0x08E0       |     22 |              6 |

## DAT References (imed_data)

|   Index | Hex Value   |   Dec Value |
|---------|-------------|-------------|
|       0 | 0x01E2      |         482 |
|       1 | 0x01DB      |         475 |
|       2 | 0x01DD      |         477 |
|       3 | 0x01DF      |         479 |
|       4 | 0x01E1      |         481 |
|       5 | 0x01E4      |         484 |
|       6 | 0x01DE      |         478 |
|       7 | 0x026B      |         619 |
|       8 | 0x01E3      |         483 |
|       9 | 0x0270      |         624 |
|      10 | 0x026C      |         620 |
|      11 | 0x003B      |          59 |
|      12 | 0x0000      |           0 |
|      13 | 0x026D      |         621 |
|      14 | 0x0271      |         625 |
|      15 | 0x0265      |         613 |
|      16 | 0x026F      |         623 |
|      17 | 0x0272      |         626 |
|      18 | 0x0268      |         616 |
|      19 | 0x001E      |          30 |
|      20 | 0xFFFED24E  |  4294890062 |
|      21 | 0xFFFE27B5  |  4294846389 |
|      22 | 0x0EA5      |        3749 |
|      23 | 0x0580      |        1408 |
|      24 | 0x0036      |          54 |
|      25 | 0xFFFEC330  |  4294886192 |
|      26 | 0xFFFE0BB6  |  4294839222 |
|      27 | 0xFFFEA5CE  |  4294878670 |
|      28 | 0xFFFE0CF3  |  4294839539 |
|      29 | 0x0012      |          18 |
|      30 | 0xFFFEA2D1  |  4294877905 |
|      31 | 0xFFFE0E1B  |  4294839835 |

## Events

### Event 65535

#### Metadata

| Field        | Value   |
|--------------|---------|
| Entrypoint   | 0x0000  |
| Data Size    | 1 bytes |
| Instructions | 1       |

```
      00 01 02 03 04 05 06 07  08 09 0A 0B 0C 0D 0E 0F
      -- -- -- -- -- -- -- --  -- -- -- -- -- -- -- --
0000: 00                                                .               
```

#### Opcodes

```
  0: 0x0000 [0x00] END_REQSTACK()
```

### Event 65535.1

#### Metadata

| Field        | Value    |
|--------------|----------|
| Entrypoint   | 0x0001   |
| Data Size    | 16 bytes |
| Instructions | 2        |

```
      00 01 02 03 04 05 06 07  08 09 0A 0B 0C 0D 0E 0F
      -- -- -- -- -- -- -- --  -- -- -- -- -- -- -- --
0000:    5B 00 80 F8 FF FF 7F  F8 FF FF 7F 69 61 6D 30   [..........iam0
0010: 00                                                .               
```

#### Opcodes

```
  0: 0x0001 [0x5B] LOAD_EXT_SCHEDULER: Load scheduler "iam0" with entities [EventEntity, EventEntity], work=482*
  1: 0x0010 [0x00] END_REQSTACK()
```

### Event 65535.2

#### Metadata

| Field        | Value    |
|--------------|----------|
| Entrypoint   | 0x0011   |
| Data Size    | 14 bytes |
| Instructions | 2        |

```
      00 01 02 03 04 05 06 07  08 09 0A 0B 0C 0D 0E 0F
      -- -- -- -- -- -- -- --  -- -- -- -- -- -- -- --
0010:    53 F8 FF FF 7F F8 FF  FF 7F 69 61 6D 30 00      S........iam0. 
```

#### Opcodes

```
  0: 0x0011 [0x53] WAIT_SCHEDULER_TASK: Wait for scheduler "iam0" with entities [EventEntity, EventEntity]
  1: 0x001E [0x00] END_REQSTACK()
```

### Event 65535.3

#### Metadata

| Field        | Value    |
|--------------|----------|
| Entrypoint   | 0x001F   |
| Data Size    | 16 bytes |
| Instructions | 2        |

```
      00 01 02 03 04 05 06 07  08 09 0A 0B 0C 0D 0E 0F
      -- -- -- -- -- -- -- --  -- -- -- -- -- -- -- --
0010:                                               5B                 [
0020: 00 80 F8 FF FF 7F F8 FF  FF 7F 69 61 6D 31 00     ..........iam1. 
```

#### Opcodes

```
  0: 0x001F [0x5B] LOAD_EXT_SCHEDULER: Load scheduler "iam1" with entities [EventEntity, EventEntity], work=482*
  1: 0x002E [0x00] END_REQSTACK()
```

### Event 65535.4

#### Metadata

| Field        | Value    |
|--------------|----------|
| Entrypoint   | 0x002F   |
| Data Size    | 14 bytes |
| Instructions | 2        |

```
      00 01 02 03 04 05 06 07  08 09 0A 0B 0C 0D 0E 0F
      -- -- -- -- -- -- -- --  -- -- -- -- -- -- -- --
0020:                                               53                 S
0030: F8 FF FF 7F F8 FF FF 7F  69 61 6D 31 00           ........iam1.   
```

#### Opcodes

```
  0: 0x002F [0x53] WAIT_SCHEDULER_TASK: Wait for scheduler "iam1" with entities [EventEntity, EventEntity]
  1: 0x003C [0x00] END_REQSTACK()
```

### Event 65535.5

#### Metadata

| Field        | Value    |
|--------------|----------|
| Entrypoint   | 0x003D   |
| Data Size    | 16 bytes |
| Instructions | 2        |

```
      00 01 02 03 04 05 06 07  08 09 0A 0B 0C 0D 0E 0F
      -- -- -- -- -- -- -- --  -- -- -- -- -- -- -- --
0030:                                         5B 00 80               [..
0040: F8 FF FF 7F F8 FF FF 7F  6B 79 72 30 00           ........kyr0.   
```

#### Opcodes

```
  0: 0x003D [0x5B] LOAD_EXT_SCHEDULER: Load scheduler "kyr0" with entities [EventEntity, EventEntity], work=482*
  1: 0x004C [0x00] END_REQSTACK()
```

### Event 65535.6

#### Metadata

| Field        | Value    |
|--------------|----------|
| Entrypoint   | 0x004D   |
| Data Size    | 14 bytes |
| Instructions | 2        |

```
      00 01 02 03 04 05 06 07  08 09 0A 0B 0C 0D 0E 0F
      -- -- -- -- -- -- -- --  -- -- -- -- -- -- -- --
0040:                                         53 F8 FF               S..
0050: FF 7F F8 FF FF 7F 6B 72  79 30 00                 ......kry0.     
```

#### Opcodes

```
  0: 0x004D [0x53] WAIT_SCHEDULER_TASK: Wait for scheduler "kry0" with entities [EventEntity, EventEntity]
  1: 0x005A [0x00] END_REQSTACK()
```

### Event 65535.7

#### Metadata

| Field        | Value    |
|--------------|----------|
| Entrypoint   | 0x005B   |
| Data Size    | 16 bytes |
| Instructions | 2        |

```
      00 01 02 03 04 05 06 07  08 09 0A 0B 0C 0D 0E 0F
      -- -- -- -- -- -- -- --  -- -- -- -- -- -- -- --
0050:                                   5B 00 80 F8 FF             [....
0060: FF 7F F8 FF FF 7F 6D 69  61 30 00                 ......mia0.     
```

#### Opcodes

```
  0: 0x005B [0x5B] LOAD_EXT_SCHEDULER: Load scheduler "mia0" with entities [EventEntity, EventEntity], work=482*
  1: 0x006A [0x00] END_REQSTACK()
```

### Event 65535.8

#### Metadata

| Field        | Value    |
|--------------|----------|
| Entrypoint   | 0x006B   |
| Data Size    | 14 bytes |
| Instructions | 2        |

```
      00 01 02 03 04 05 06 07  08 09 0A 0B 0C 0D 0E 0F
      -- -- -- -- -- -- -- --  -- -- -- -- -- -- -- --
0060:                                   53 F8 FF FF 7F             S....
0070: F8 FF FF 7F 6D 69 61 30  00                       ....mia0.       
```

#### Opcodes

```
  0: 0x006B [0x53] WAIT_SCHEDULER_TASK: Wait for scheduler "mia0" with entities [EventEntity, EventEntity]
  1: 0x0078 [0x00] END_REQSTACK()
```

### Event 65535.9

#### Metadata

| Field        | Value    |
|--------------|----------|
| Entrypoint   | 0x0079   |
| Data Size    | 16 bytes |
| Instructions | 2        |

```
      00 01 02 03 04 05 06 07  08 09 0A 0B 0C 0D 0E 0F
      -- -- -- -- -- -- -- --  -- -- -- -- -- -- -- --
0070:                             5B 00 80 F8 FF FF 7F           [......
0080: F8 FF FF 7F 6D 69 61 31  00                       ....mia1.       
```

#### Opcodes

```
  0: 0x0079 [0x5B] LOAD_EXT_SCHEDULER: Load scheduler "mia1" with entities [EventEntity, EventEntity], work=482*
  1: 0x0088 [0x00] END_REQSTACK()
```

### Event 65535.10

#### Metadata

| Field        | Value    |
|--------------|----------|
| Entrypoint   | 0x0089   |
| Data Size    | 14 bytes |
| Instructions | 2        |

```
      00 01 02 03 04 05 06 07  08 09 0A 0B 0C 0D 0E 0F
      -- -- -- -- -- -- -- --  -- -- -- -- -- -- -- --
0080:                             53 F8 FF FF 7F F8 FF           S......
0090: FF 7F 6D 69 61 31 00                              ..mia1.         
```

#### Opcodes

```
  0: 0x0089 [0x53] WAIT_SCHEDULER_TASK: Wait for scheduler "mia1" with entities [EventEntity, EventEntity]
  1: 0x0096 [0x00] END_REQSTACK()
```

### Event 65535.11

#### Metadata

| Field        | Value    |
|--------------|----------|
| Entrypoint   | 0x0097   |
| Data Size    | 16 bytes |
| Instructions | 2        |

```
      00 01 02 03 04 05 06 07  08 09 0A 0B 0C 0D 0E 0F
      -- -- -- -- -- -- -- --  -- -- -- -- -- -- -- --
0090:                      5B  01 80 F8 FF FF 7F F8 FF         [........
00A0: FF 7F 74 6C 61 30 00                              ..tla0.         
```

#### Opcodes

```
  0: 0x0097 [0x5B] LOAD_EXT_SCHEDULER: Load scheduler "tla0" with entities [EventEntity, EventEntity], work=475*
  1: 0x00A6 [0x00] END_REQSTACK()
```

### Event 65535.12

#### Metadata

| Field        | Value    |
|--------------|----------|
| Entrypoint   | 0x00A7   |
| Data Size    | 14 bytes |
| Instructions | 2        |

```
      00 01 02 03 04 05 06 07  08 09 0A 0B 0C 0D 0E 0F
      -- -- -- -- -- -- -- --  -- -- -- -- -- -- -- --
00A0:                      53  F8 FF FF 7F F8 FF FF 7F         S........
00B0: 74 6C 61 30 00                                    tla0.           
```

#### Opcodes

```
  0: 0x00A7 [0x53] WAIT_SCHEDULER_TASK: Wait for scheduler "tla0" with entities [EventEntity, EventEntity]
  1: 0x00B4 [0x00] END_REQSTACK()
```

### Event 65535.13

#### Metadata

| Field        | Value    |
|--------------|----------|
| Entrypoint   | 0x00B5   |
| Data Size    | 16 bytes |
| Instructions | 2        |

```
      00 01 02 03 04 05 06 07  08 09 0A 0B 0C 0D 0E 0F
      -- -- -- -- -- -- -- --  -- -- -- -- -- -- -- --
00B0:                5B 01 80  F8 FF FF 7F F8 FF FF 7F       [..........
00C0: 74 6C 61 31 00                                    tla1.           
```

#### Opcodes

```
  0: 0x00B5 [0x5B] LOAD_EXT_SCHEDULER: Load scheduler "tla1" with entities [EventEntity, EventEntity], work=475*
  1: 0x00C4 [0x00] END_REQSTACK()
```

### Event 65535.14

#### Metadata

| Field        | Value    |
|--------------|----------|
| Entrypoint   | 0x00C5   |
| Data Size    | 14 bytes |
| Instructions | 2        |

```
      00 01 02 03 04 05 06 07  08 09 0A 0B 0C 0D 0E 0F
      -- -- -- -- -- -- -- --  -- -- -- -- -- -- -- --
00C0:                53 F8 FF  FF 7F F8 FF FF 7F 74 6C       S........tl
00D0: 61 31 00                                          a1.             
```

#### Opcodes

```
  0: 0x00C5 [0x53] WAIT_SCHEDULER_TASK: Wait for scheduler "tla1" with entities [EventEntity, EventEntity]
  1: 0x00D2 [0x00] END_REQSTACK()
```

### Event 65535.15

#### Metadata

| Field        | Value    |
|--------------|----------|
| Entrypoint   | 0x00D3   |
| Data Size    | 16 bytes |
| Instructions | 2        |

```
      00 01 02 03 04 05 06 07  08 09 0A 0B 0C 0D 0E 0F
      -- -- -- -- -- -- -- --  -- -- -- -- -- -- -- --
00D0:          5B 01 80 F8 FF  FF 7F F8 FF FF 7F 74 6C     [..........tl
00E0: 62 30 00                                          b0.             
```

#### Opcodes

```
  0: 0x00D3 [0x5B] LOAD_EXT_SCHEDULER: Load scheduler "tlb0" with entities [EventEntity, EventEntity], work=475*
  1: 0x00E2 [0x00] END_REQSTACK()
```

### Event 65535.16

#### Metadata

| Field        | Value    |
|--------------|----------|
| Entrypoint   | 0x00E3   |
| Data Size    | 14 bytes |
| Instructions | 2        |

```
      00 01 02 03 04 05 06 07  08 09 0A 0B 0C 0D 0E 0F
      -- -- -- -- -- -- -- --  -- -- -- -- -- -- -- --
00E0:          53 F8 FF FF 7F  F8 FF FF 7F 74 6C 62 30     S........tlb0
00F0: 00                                                .               
```

#### Opcodes

```
  0: 0x00E3 [0x53] WAIT_SCHEDULER_TASK: Wait for scheduler "tlb0" with entities [EventEntity, EventEntity]
  1: 0x00F0 [0x00] END_REQSTACK()
```

### Event 65535.17

#### Metadata

| Field        | Value    |
|--------------|----------|
| Entrypoint   | 0x00F1   |
| Data Size    | 16 bytes |
| Instructions | 2        |

```
      00 01 02 03 04 05 06 07  08 09 0A 0B 0C 0D 0E 0F
      -- -- -- -- -- -- -- --  -- -- -- -- -- -- -- --
00F0:    5B 01 80 F8 FF FF 7F  F8 FF FF 7F 74 6C 62 31   [..........tlb1
0100: 00                                                .               
```

#### Opcodes

```
  0: 0x00F1 [0x5B] LOAD_EXT_SCHEDULER: Load scheduler "tlb1" with entities [EventEntity, EventEntity], work=475*
  1: 0x0100 [0x00] END_REQSTACK()
```

### Event 65535.18

#### Metadata

| Field        | Value    |
|--------------|----------|
| Entrypoint   | 0x0101   |
| Data Size    | 14 bytes |
| Instructions | 2        |

```
      00 01 02 03 04 05 06 07  08 09 0A 0B 0C 0D 0E 0F
      -- -- -- -- -- -- -- --  -- -- -- -- -- -- -- --
0100:    53 F8 FF FF 7F F8 FF  FF 7F 74 6C 62 31 00      S........tlb1. 
```

#### Opcodes

```
  0: 0x0101 [0x53] WAIT_SCHEDULER_TASK: Wait for scheduler "tlb1" with entities [EventEntity, EventEntity]
  1: 0x010E [0x00] END_REQSTACK()
```

### Event 65535.19

#### Metadata

| Field        | Value    |
|--------------|----------|
| Entrypoint   | 0x010F   |
| Data Size    | 16 bytes |
| Instructions | 2        |

```
      00 01 02 03 04 05 06 07  08 09 0A 0B 0C 0D 0E 0F
      -- -- -- -- -- -- -- --  -- -- -- -- -- -- -- --
0100:                                               5B                 [
0110: 01 80 F8 FF FF 7F F8 FF  FF 7F 74 6C 63 30 00     ..........tlc0. 
```

#### Opcodes

```
  0: 0x010F [0x5B] LOAD_EXT_SCHEDULER: Load scheduler "tlc0" with entities [EventEntity, EventEntity], work=475*
  1: 0x011E [0x00] END_REQSTACK()
```

### Event 65535.20

#### Metadata

| Field        | Value    |
|--------------|----------|
| Entrypoint   | 0x011F   |
| Data Size    | 14 bytes |
| Instructions | 2        |

```
      00 01 02 03 04 05 06 07  08 09 0A 0B 0C 0D 0E 0F
      -- -- -- -- -- -- -- --  -- -- -- -- -- -- -- --
0110:                                               53                 S
0120: F8 FF FF 7F F8 FF FF 7F  74 6C 63 30 00           ........tlc0.   
```

#### Opcodes

```
  0: 0x011F [0x53] WAIT_SCHEDULER_TASK: Wait for scheduler "tlc0" with entities [EventEntity, EventEntity]
  1: 0x012C [0x00] END_REQSTACK()
```

### Event 65535.21

#### Metadata

| Field        | Value    |
|--------------|----------|
| Entrypoint   | 0x012D   |
| Data Size    | 16 bytes |
| Instructions | 2        |

```
      00 01 02 03 04 05 06 07  08 09 0A 0B 0C 0D 0E 0F
      -- -- -- -- -- -- -- --  -- -- -- -- -- -- -- --
0120:                                         5B 01 80               [..
0130: F8 FF FF 7F F8 FF FF 7F  74 6C 63 31 00           ........tlc1.   
```

#### Opcodes

```
  0: 0x012D [0x5B] LOAD_EXT_SCHEDULER: Load scheduler "tlc1" with entities [EventEntity, EventEntity], work=475*
  1: 0x013C [0x00] END_REQSTACK()
```

### Event 65535.22

#### Metadata

| Field        | Value    |
|--------------|----------|
| Entrypoint   | 0x013D   |
| Data Size    | 14 bytes |
| Instructions | 2        |

```
      00 01 02 03 04 05 06 07  08 09 0A 0B 0C 0D 0E 0F
      -- -- -- -- -- -- -- --  -- -- -- -- -- -- -- --
0130:                                         53 F8 FF               S..
0140: FF 7F F8 FF FF 7F 74 6C  63 31 00                 ......tlc1.     
```

#### Opcodes

```
  0: 0x013D [0x53] WAIT_SCHEDULER_TASK: Wait for scheduler "tlc1" with entities [EventEntity, EventEntity]
  1: 0x014A [0x00] END_REQSTACK()
```

### Event 65535.23

#### Metadata

| Field        | Value    |
|--------------|----------|
| Entrypoint   | 0x014B   |
| Data Size    | 16 bytes |
| Instructions | 2        |

```
      00 01 02 03 04 05 06 07  08 09 0A 0B 0C 0D 0E 0F
      -- -- -- -- -- -- -- --  -- -- -- -- -- -- -- --
0140:                                   5B 01 80 F8 FF             [....
0150: FF 7F F8 FF FF 7F 74 6C  64 30 00                 ......tld0.     
```

#### Opcodes

```
  0: 0x014B [0x5B] LOAD_EXT_SCHEDULER: Load scheduler "tld0" with entities [EventEntity, EventEntity], work=475*
  1: 0x015A [0x00] END_REQSTACK()
```

### Event 65535.24

#### Metadata

| Field        | Value    |
|--------------|----------|
| Entrypoint   | 0x015B   |
| Data Size    | 14 bytes |
| Instructions | 2        |

```
      00 01 02 03 04 05 06 07  08 09 0A 0B 0C 0D 0E 0F
      -- -- -- -- -- -- -- --  -- -- -- -- -- -- -- --
0150:                                   53 F8 FF FF 7F             S....
0160: F8 FF FF 7F 74 6C 64 30  00                       ....tld0.       
```

#### Opcodes

```
  0: 0x015B [0x53] WAIT_SCHEDULER_TASK: Wait for scheduler "tld0" with entities [EventEntity, EventEntity]
  1: 0x0168 [0x00] END_REQSTACK()
```

### Event 65535.25

#### Metadata

| Field        | Value    |
|--------------|----------|
| Entrypoint   | 0x0169   |
| Data Size    | 16 bytes |
| Instructions | 2        |

```
      00 01 02 03 04 05 06 07  08 09 0A 0B 0C 0D 0E 0F
      -- -- -- -- -- -- -- --  -- -- -- -- -- -- -- --
0160:                             5B 01 80 F8 FF FF 7F           [......
0170: F8 FF FF 7F 74 6C 64 31  00                       ....tld1.       
```

#### Opcodes

```
  0: 0x0169 [0x5B] LOAD_EXT_SCHEDULER: Load scheduler "tld1" with entities [EventEntity, EventEntity], work=475*
  1: 0x0178 [0x00] END_REQSTACK()
```

### Event 65535.26

#### Metadata

| Field        | Value    |
|--------------|----------|
| Entrypoint   | 0x0179   |
| Data Size    | 14 bytes |
| Instructions | 2        |

```
      00 01 02 03 04 05 06 07  08 09 0A 0B 0C 0D 0E 0F
      -- -- -- -- -- -- -- --  -- -- -- -- -- -- -- --
0170:                             53 F8 FF FF 7F F8 FF           S......
0180: FF 7F 74 6C 64 31 00                              ..tld1.         
```

#### Opcodes

```
  0: 0x0179 [0x53] WAIT_SCHEDULER_TASK: Wait for scheduler "tld1" with entities [EventEntity, EventEntity]
  1: 0x0186 [0x00] END_REQSTACK()
```

### Event 65535.27

#### Metadata

| Field        | Value    |
|--------------|----------|
| Entrypoint   | 0x0187   |
| Data Size    | 16 bytes |
| Instructions | 2        |

```
      00 01 02 03 04 05 06 07  08 09 0A 0B 0C 0D 0E 0F
      -- -- -- -- -- -- -- --  -- -- -- -- -- -- -- --
0180:                      5B  01 80 F8 FF FF 7F F8 FF         [........
0190: FF 7F 74 6C 65 30 00                              ..tle0.         
```

#### Opcodes

```
  0: 0x0187 [0x5B] LOAD_EXT_SCHEDULER: Load scheduler "tle0" with entities [EventEntity, EventEntity], work=475*
  1: 0x0196 [0x00] END_REQSTACK()
```

### Event 65535.28

#### Metadata

| Field        | Value    |
|--------------|----------|
| Entrypoint   | 0x0197   |
| Data Size    | 14 bytes |
| Instructions | 2        |

```
      00 01 02 03 04 05 06 07  08 09 0A 0B 0C 0D 0E 0F
      -- -- -- -- -- -- -- --  -- -- -- -- -- -- -- --
0190:                      53  F8 FF FF 7F F8 FF FF 7F         S........
01A0: 74 6C 65 30 00                                    tle0.           
```

#### Opcodes

```
  0: 0x0197 [0x53] WAIT_SCHEDULER_TASK: Wait for scheduler "tle0" with entities [EventEntity, EventEntity]
  1: 0x01A4 [0x00] END_REQSTACK()
```

### Event 65535.29

#### Metadata

| Field        | Value    |
|--------------|----------|
| Entrypoint   | 0x01A5   |
| Data Size    | 16 bytes |
| Instructions | 2        |

```
      00 01 02 03 04 05 06 07  08 09 0A 0B 0C 0D 0E 0F
      -- -- -- -- -- -- -- --  -- -- -- -- -- -- -- --
01A0:                5B 01 80  F8 FF FF 7F F8 FF FF 7F       [..........
01B0: 74 6C 65 31 00                                    tle1.           
```

#### Opcodes

```
  0: 0x01A5 [0x5B] LOAD_EXT_SCHEDULER: Load scheduler "tle1" with entities [EventEntity, EventEntity], work=475*
  1: 0x01B4 [0x00] END_REQSTACK()
```

### Event 65535.30

#### Metadata

| Field        | Value    |
|--------------|----------|
| Entrypoint   | 0x01B5   |
| Data Size    | 14 bytes |
| Instructions | 2        |

```
      00 01 02 03 04 05 06 07  08 09 0A 0B 0C 0D 0E 0F
      -- -- -- -- -- -- -- --  -- -- -- -- -- -- -- --
01B0:                53 F8 FF  FF 7F F8 FF FF 7F 74 6C       S........tl
01C0: 65 31 00                                          e1.             
```

#### Opcodes

```
  0: 0x01B5 [0x53] WAIT_SCHEDULER_TASK: Wait for scheduler "tle1" with entities [EventEntity, EventEntity]
  1: 0x01C2 [0x00] END_REQSTACK()
```

### Event 65535.31

#### Metadata

| Field        | Value    |
|--------------|----------|
| Entrypoint   | 0x01C3   |
| Data Size    | 16 bytes |
| Instructions | 2        |

```
      00 01 02 03 04 05 06 07  08 09 0A 0B 0C 0D 0E 0F
      -- -- -- -- -- -- -- --  -- -- -- -- -- -- -- --
01C0:          5B 02 80 F8 FF  FF 7F F8 FF FF 7F 74 68     [..........th
01D0: 6B 30 00                                          k0.             
```

#### Opcodes

```
  0: 0x01C3 [0x5B] LOAD_EXT_SCHEDULER: Load scheduler "thk0" with entities [EventEntity, EventEntity], work=477*
  1: 0x01D2 [0x00] END_REQSTACK()
```

### Event 65535.32

#### Metadata

| Field        | Value    |
|--------------|----------|
| Entrypoint   | 0x01D3   |
| Data Size    | 14 bytes |
| Instructions | 2        |

```
      00 01 02 03 04 05 06 07  08 09 0A 0B 0C 0D 0E 0F
      -- -- -- -- -- -- -- --  -- -- -- -- -- -- -- --
01D0:          53 F8 FF FF 7F  F8 FF FF 7F 74 68 6B 30     S........thk0
01E0: 00                                                .               
```

#### Opcodes

```
  0: 0x01D3 [0x53] WAIT_SCHEDULER_TASK: Wait for scheduler "thk0" with entities [EventEntity, EventEntity]
  1: 0x01E0 [0x00] END_REQSTACK()
```

### Event 65535.33

#### Metadata

| Field        | Value    |
|--------------|----------|
| Entrypoint   | 0x01E1   |
| Data Size    | 16 bytes |
| Instructions | 2        |

```
      00 01 02 03 04 05 06 07  08 09 0A 0B 0C 0D 0E 0F
      -- -- -- -- -- -- -- --  -- -- -- -- -- -- -- --
01E0:    5B 02 80 F8 FF FF 7F  F8 FF FF 7F 74 68 6B 31   [..........thk1
01F0: 00                                                .               
```

#### Opcodes

```
  0: 0x01E1 [0x5B] LOAD_EXT_SCHEDULER: Load scheduler "thk1" with entities [EventEntity, EventEntity], work=477*
  1: 0x01F0 [0x00] END_REQSTACK()
```

### Event 65535.34

#### Metadata

| Field        | Value    |
|--------------|----------|
| Entrypoint   | 0x01F1   |
| Data Size    | 14 bytes |
| Instructions | 2        |

```
      00 01 02 03 04 05 06 07  08 09 0A 0B 0C 0D 0E 0F
      -- -- -- -- -- -- -- --  -- -- -- -- -- -- -- --
01F0:    53 F8 FF FF 7F F8 FF  FF 7F 74 68 6B 31 00      S........thk1. 
```

#### Opcodes

```
  0: 0x01F1 [0x53] WAIT_SCHEDULER_TASK: Wait for scheduler "thk1" with entities [EventEntity, EventEntity]
  1: 0x01FE [0x00] END_REQSTACK()
```

### Event 65535.35

#### Metadata

| Field        | Value    |
|--------------|----------|
| Entrypoint   | 0x01FF   |
| Data Size    | 16 bytes |
| Instructions | 2        |

```
      00 01 02 03 04 05 06 07  08 09 0A 0B 0C 0D 0E 0F
      -- -- -- -- -- -- -- --  -- -- -- -- -- -- -- --
01F0:                                               5B                 [
0200: 03 80 F8 FF FF 7F F8 FF  FF 7F 73 74 64 30 00     ..........std0. 
```

#### Opcodes

```
  0: 0x01FF [0x5B] LOAD_EXT_SCHEDULER: Load scheduler "std0" with entities [EventEntity, EventEntity], work=479*
  1: 0x020E [0x00] END_REQSTACK()
```

### Event 65535.36

#### Metadata

| Field        | Value    |
|--------------|----------|
| Entrypoint   | 0x020F   |
| Data Size    | 14 bytes |
| Instructions | 2        |

```
      00 01 02 03 04 05 06 07  08 09 0A 0B 0C 0D 0E 0F
      -- -- -- -- -- -- -- --  -- -- -- -- -- -- -- --
0200:                                               53                 S
0210: F8 FF FF 7F F8 FF FF 7F  73 74 64 30 00           ........std0.   
```

#### Opcodes

```
  0: 0x020F [0x53] WAIT_SCHEDULER_TASK: Wait for scheduler "std0" with entities [EventEntity, EventEntity]
  1: 0x021C [0x00] END_REQSTACK()
```

### Event 65535.37

#### Metadata

| Field        | Value    |
|--------------|----------|
| Entrypoint   | 0x021D   |
| Data Size    | 16 bytes |
| Instructions | 2        |

```
      00 01 02 03 04 05 06 07  08 09 0A 0B 0C 0D 0E 0F
      -- -- -- -- -- -- -- --  -- -- -- -- -- -- -- --
0210:                                         5B 03 80               [..
0220: F8 FF FF 7F F8 FF FF 7F  73 74 64 31 00           ........std1.   
```

#### Opcodes

```
  0: 0x021D [0x5B] LOAD_EXT_SCHEDULER: Load scheduler "std1" with entities [EventEntity, EventEntity], work=479*
  1: 0x022C [0x00] END_REQSTACK()
```

### Event 65535.38

#### Metadata

| Field        | Value    |
|--------------|----------|
| Entrypoint   | 0x022D   |
| Data Size    | 14 bytes |
| Instructions | 2        |

```
      00 01 02 03 04 05 06 07  08 09 0A 0B 0C 0D 0E 0F
      -- -- -- -- -- -- -- --  -- -- -- -- -- -- -- --
0220:                                         53 F8 FF               S..
0230: FF 7F F8 FF FF 7F 73 74  64 31 00                 ......std1.     
```

#### Opcodes

```
  0: 0x022D [0x53] WAIT_SCHEDULER_TASK: Wait for scheduler "std1" with entities [EventEntity, EventEntity]
  1: 0x023A [0x00] END_REQSTACK()
```

### Event 65535.39

#### Metadata

| Field        | Value    |
|--------------|----------|
| Entrypoint   | 0x023B   |
| Data Size    | 16 bytes |
| Instructions | 2        |

```
      00 01 02 03 04 05 06 07  08 09 0A 0B 0C 0D 0E 0F
      -- -- -- -- -- -- -- --  -- -- -- -- -- -- -- --
0230:                                   5B 03 80 F8 FF             [....
0240: FF 7F F8 FF FF 7F 74 6C  66 30 00                 ......tlf0.     
```

#### Opcodes

```
  0: 0x023B [0x5B] LOAD_EXT_SCHEDULER: Load scheduler "tlf0" with entities [EventEntity, EventEntity], work=479*
  1: 0x024A [0x00] END_REQSTACK()
```

### Event 65535.40

#### Metadata

| Field        | Value    |
|--------------|----------|
| Entrypoint   | 0x024B   |
| Data Size    | 14 bytes |
| Instructions | 2        |

```
      00 01 02 03 04 05 06 07  08 09 0A 0B 0C 0D 0E 0F
      -- -- -- -- -- -- -- --  -- -- -- -- -- -- -- --
0240:                                   53 F8 FF FF 7F             S....
0250: F8 FF FF 7F 74 6C 66 30  00                       ....tlf0.       
```

#### Opcodes

```
  0: 0x024B [0x53] WAIT_SCHEDULER_TASK: Wait for scheduler "tlf0" with entities [EventEntity, EventEntity]
  1: 0x0258 [0x00] END_REQSTACK()
```

### Event 65535.41

#### Metadata

| Field        | Value    |
|--------------|----------|
| Entrypoint   | 0x0259   |
| Data Size    | 16 bytes |
| Instructions | 2        |

```
      00 01 02 03 04 05 06 07  08 09 0A 0B 0C 0D 0E 0F
      -- -- -- -- -- -- -- --  -- -- -- -- -- -- -- --
0250:                             5B 03 80 F8 FF FF 7F           [......
0260: F8 FF FF 7F 74 6C 66 31  00                       ....tlf1.       
```

#### Opcodes

```
  0: 0x0259 [0x5B] LOAD_EXT_SCHEDULER: Load scheduler "tlf1" with entities [EventEntity, EventEntity], work=479*
  1: 0x0268 [0x00] END_REQSTACK()
```

### Event 65535.42

#### Metadata

| Field        | Value    |
|--------------|----------|
| Entrypoint   | 0x0269   |
| Data Size    | 14 bytes |
| Instructions | 2        |

```
      00 01 02 03 04 05 06 07  08 09 0A 0B 0C 0D 0E 0F
      -- -- -- -- -- -- -- --  -- -- -- -- -- -- -- --
0260:                             53 F8 FF FF 7F F8 FF           S......
0270: FF 7F 74 6C 66 31 00                              ..tlf1.         
```

#### Opcodes

```
  0: 0x0269 [0x53] WAIT_SCHEDULER_TASK: Wait for scheduler "tlf1" with entities [EventEntity, EventEntity]
  1: 0x0276 [0x00] END_REQSTACK()
```

### Event 65535.43

#### Metadata

| Field        | Value    |
|--------------|----------|
| Entrypoint   | 0x0277   |
| Data Size    | 16 bytes |
| Instructions | 2        |

```
      00 01 02 03 04 05 06 07  08 09 0A 0B 0C 0D 0E 0F
      -- -- -- -- -- -- -- --  -- -- -- -- -- -- -- --
0270:                      5B  03 80 F8 FF FF 7F F8 FF         [........
0280: FF 7F 74 66 68 63 00                              ..tfhc.         
```

#### Opcodes

```
  0: 0x0277 [0x5B] LOAD_EXT_SCHEDULER: Load scheduler "tfhc" with entities [EventEntity, EventEntity], work=479*
  1: 0x0286 [0x00] END_REQSTACK()
```

### Event 65535.44

#### Metadata

| Field        | Value    |
|--------------|----------|
| Entrypoint   | 0x0287   |
| Data Size    | 14 bytes |
| Instructions | 2        |

```
      00 01 02 03 04 05 06 07  08 09 0A 0B 0C 0D 0E 0F
      -- -- -- -- -- -- -- --  -- -- -- -- -- -- -- --
0280:                      53  F8 FF FF 7F F8 FF FF 7F         S........
0290: 74 66 68 63 00                                    tfhc.           
```

#### Opcodes

```
  0: 0x0287 [0x53] WAIT_SCHEDULER_TASK: Wait for scheduler "tfhc" with entities [EventEntity, EventEntity]
  1: 0x0294 [0x00] END_REQSTACK()
```

### Event 65535.45

#### Metadata

| Field        | Value    |
|--------------|----------|
| Entrypoint   | 0x0295   |
| Data Size    | 16 bytes |
| Instructions | 2        |

```
      00 01 02 03 04 05 06 07  08 09 0A 0B 0C 0D 0E 0F
      -- -- -- -- -- -- -- --  -- -- -- -- -- -- -- --
0290:                5B 03 80  F8 FF FF 7F F8 FF FF 7F       [..........
02A0: 68 63 74 66 00                                    hctf.           
```

#### Opcodes

```
  0: 0x0295 [0x5B] LOAD_EXT_SCHEDULER: Load scheduler "hctf" with entities [EventEntity, EventEntity], work=479*
  1: 0x02A4 [0x00] END_REQSTACK()
```

### Event 65535.46

#### Metadata

| Field        | Value    |
|--------------|----------|
| Entrypoint   | 0x02A5   |
| Data Size    | 14 bytes |
| Instructions | 2        |

```
      00 01 02 03 04 05 06 07  08 09 0A 0B 0C 0D 0E 0F
      -- -- -- -- -- -- -- --  -- -- -- -- -- -- -- --
02A0:                53 F8 FF  FF 7F F8 FF FF 7F 68 63       S........hc
02B0: 74 66 00                                          tf.             
```

#### Opcodes

```
  0: 0x02A5 [0x53] WAIT_SCHEDULER_TASK: Wait for scheduler "hctf" with entities [EventEntity, EventEntity]
  1: 0x02B2 [0x00] END_REQSTACK()
```

### Event 65535.47

#### Metadata

| Field        | Value    |
|--------------|----------|
| Entrypoint   | 0x02B3   |
| Data Size    | 22 bytes |
| Instructions | 3        |

```
      00 01 02 03 04 05 06 07  08 09 0A 0B 0C 0D 0E 0F
      -- -- -- -- -- -- -- --  -- -- -- -- -- -- -- --
02B0:          81 00 F8 FF FF  7F 5B 03 80 F8 FF FF 7F     ......[......
02C0: F8 FF FF 7F 74 68 63 30  00                       ....thc0.       
```

#### Opcodes

```
  0: 0x02B3 [0x81] SET_ENTITY_BLINKING(blink_flag=0x00, entity=EventEntity)
  1: 0x02B9 [0x5B] LOAD_EXT_SCHEDULER: Load scheduler "thc0" with entities [EventEntity, EventEntity], work=479*
  2: 0x02C8 [0x00] END_REQSTACK()
```

### Event 65535.48

#### Metadata

| Field        | Value    |
|--------------|----------|
| Entrypoint   | 0x02C9   |
| Data Size    | 14 bytes |
| Instructions | 2        |

```
      00 01 02 03 04 05 06 07  08 09 0A 0B 0C 0D 0E 0F
      -- -- -- -- -- -- -- --  -- -- -- -- -- -- -- --
02C0:                             53 F8 FF FF 7F F8 FF           S......
02D0: FF 7F 74 68 63 30 00                              ..thc0.         
```

#### Opcodes

```
  0: 0x02C9 [0x53] WAIT_SCHEDULER_TASK: Wait for scheduler "thc0" with entities [EventEntity, EventEntity]
  1: 0x02D6 [0x00] END_REQSTACK()
```

### Event 65535.49

#### Metadata

| Field        | Value    |
|--------------|----------|
| Entrypoint   | 0x02D7   |
| Data Size    | 16 bytes |
| Instructions | 2        |

```
      00 01 02 03 04 05 06 07  08 09 0A 0B 0C 0D 0E 0F
      -- -- -- -- -- -- -- --  -- -- -- -- -- -- -- --
02D0:                      5B  03 80 F8 FF FF 7F F8 FF         [........
02E0: FF 7F 74 68 63 31 00                              ..thc1.         
```

#### Opcodes

```
  0: 0x02D7 [0x5B] LOAD_EXT_SCHEDULER: Load scheduler "thc1" with entities [EventEntity, EventEntity], work=479*
  1: 0x02E6 [0x00] END_REQSTACK()
```

### Event 65535.50

#### Metadata

| Field        | Value    |
|--------------|----------|
| Entrypoint   | 0x02E7   |
| Data Size    | 20 bytes |
| Instructions | 3        |

```
      00 01 02 03 04 05 06 07  08 09 0A 0B 0C 0D 0E 0F
      -- -- -- -- -- -- -- --  -- -- -- -- -- -- -- --
02E0:                      53  F8 FF FF 7F F8 FF FF 7F         S........
02F0: 74 68 63 31 81 01 F8 FF  FF 7F 00                 thc1.......     
```

#### Opcodes

```
  0: 0x02E7 [0x53] WAIT_SCHEDULER_TASK: Wait for scheduler "thc1" with entities [EventEntity, EventEntity]
  1: 0x02F4 [0x81] SET_ENTITY_BLINKING(blink_flag=0x01, entity=EventEntity)
  2: 0x02FA [0x00] END_REQSTACK()
```

### Event 65535.51

#### Metadata

| Field        | Value    |
|--------------|----------|
| Entrypoint   | 0x02FB   |
| Data Size    | 22 bytes |
| Instructions | 3        |

```
      00 01 02 03 04 05 06 07  08 09 0A 0B 0C 0D 0E 0F
      -- -- -- -- -- -- -- --  -- -- -- -- -- -- -- --
02F0:                                   81 00 F8 FF FF             .....
0300: 7F 5B 03 80 F8 FF FF 7F  F8 FF FF 7F 73 74 68 63  .[..........sthc
0310: 00                                                .               
```

#### Opcodes

```
  0: 0x02FB [0x81] SET_ENTITY_BLINKING(blink_flag=0x00, entity=EventEntity)
  1: 0x0301 [0x5B] LOAD_EXT_SCHEDULER: Load scheduler "sthc" with entities [EventEntity, EventEntity], work=479*
  2: 0x0310 [0x00] END_REQSTACK()
```

### Event 65535.52

#### Metadata

| Field        | Value    |
|--------------|----------|
| Entrypoint   | 0x0311   |
| Data Size    | 14 bytes |
| Instructions | 2        |

```
      00 01 02 03 04 05 06 07  08 09 0A 0B 0C 0D 0E 0F
      -- -- -- -- -- -- -- --  -- -- -- -- -- -- -- --
0310:    53 F8 FF FF 7F F8 FF  FF 7F 73 74 68 63 00      S........sthc. 
```

#### Opcodes

```
  0: 0x0311 [0x53] WAIT_SCHEDULER_TASK: Wait for scheduler "sthc" with entities [EventEntity, EventEntity]
  1: 0x031E [0x00] END_REQSTACK()
```

### Event 65535.53

#### Metadata

| Field        | Value    |
|--------------|----------|
| Entrypoint   | 0x031F   |
| Data Size    | 16 bytes |
| Instructions | 2        |

```
      00 01 02 03 04 05 06 07  08 09 0A 0B 0C 0D 0E 0F
      -- -- -- -- -- -- -- --  -- -- -- -- -- -- -- --
0310:                                               5B                 [
0320: 03 80 F8 FF FF 7F F8 FF  FF 7F 74 66 73 74 00     ..........tfst. 
```

#### Opcodes

```
  0: 0x031F [0x5B] LOAD_EXT_SCHEDULER: Load scheduler "tfst" with entities [EventEntity, EventEntity], work=479*
  1: 0x032E [0x00] END_REQSTACK()
```

### Event 65535.54

#### Metadata

| Field        | Value    |
|--------------|----------|
| Entrypoint   | 0x032F   |
| Data Size    | 14 bytes |
| Instructions | 2        |

```
      00 01 02 03 04 05 06 07  08 09 0A 0B 0C 0D 0E 0F
      -- -- -- -- -- -- -- --  -- -- -- -- -- -- -- --
0320:                                               53                 S
0330: F8 FF FF 7F F8 FF FF 7F  74 66 73 74 00           ........tfst.   
```

#### Opcodes

```
  0: 0x032F [0x53] WAIT_SCHEDULER_TASK: Wait for scheduler "tfst" with entities [EventEntity, EventEntity]
  1: 0x033C [0x00] END_REQSTACK()
```

### Event 65535.55

#### Metadata

| Field        | Value    |
|--------------|----------|
| Entrypoint   | 0x033D   |
| Data Size    | 16 bytes |
| Instructions | 2        |

```
      00 01 02 03 04 05 06 07  08 09 0A 0B 0C 0D 0E 0F
      -- -- -- -- -- -- -- --  -- -- -- -- -- -- -- --
0330:                                         5B 03 80               [..
0340: F8 FF FF 7F F8 FF FF 7F  73 74 74 66 00           ........sttf.   
```

#### Opcodes

```
  0: 0x033D [0x5B] LOAD_EXT_SCHEDULER: Load scheduler "sttf" with entities [EventEntity, EventEntity], work=479*
  1: 0x034C [0x00] END_REQSTACK()
```

### Event 65535.56

#### Metadata

| Field        | Value    |
|--------------|----------|
| Entrypoint   | 0x034D   |
| Data Size    | 14 bytes |
| Instructions | 2        |

```
      00 01 02 03 04 05 06 07  08 09 0A 0B 0C 0D 0E 0F
      -- -- -- -- -- -- -- --  -- -- -- -- -- -- -- --
0340:                                         53 F8 FF               S..
0350: FF 7F F8 FF FF 7F 73 74  74 66 00                 ......sttf.     
```

#### Opcodes

```
  0: 0x034D [0x53] WAIT_SCHEDULER_TASK: Wait for scheduler "sttf" with entities [EventEntity, EventEntity]
  1: 0x035A [0x00] END_REQSTACK()
```

### Event 65535.57

#### Metadata

| Field        | Value    |
|--------------|----------|
| Entrypoint   | 0x035B   |
| Data Size    | 16 bytes |
| Instructions | 2        |

```
      00 01 02 03 04 05 06 07  08 09 0A 0B 0C 0D 0E 0F
      -- -- -- -- -- -- -- --  -- -- -- -- -- -- -- --
0350:                                   5B 04 80 F8 FF             [....
0360: FF 7F F8 FF FF 7F 67 6D  61 30 00                 ......gma0.     
```

#### Opcodes

```
  0: 0x035B [0x5B] LOAD_EXT_SCHEDULER: Load scheduler "gma0" with entities [EventEntity, EventEntity], work=481*
  1: 0x036A [0x00] END_REQSTACK()
```

### Event 65535.58

#### Metadata

| Field        | Value    |
|--------------|----------|
| Entrypoint   | 0x036B   |
| Data Size    | 14 bytes |
| Instructions | 2        |

```
      00 01 02 03 04 05 06 07  08 09 0A 0B 0C 0D 0E 0F
      -- -- -- -- -- -- -- --  -- -- -- -- -- -- -- --
0360:                                   53 F8 FF FF 7F             S....
0370: F8 FF FF 7F 67 6D 61 30  00                       ....gma0.       
```

#### Opcodes

```
  0: 0x036B [0x53] WAIT_SCHEDULER_TASK: Wait for scheduler "gma0" with entities [EventEntity, EventEntity]
  1: 0x0378 [0x00] END_REQSTACK()
```

### Event 65535.59

#### Metadata

| Field        | Value    |
|--------------|----------|
| Entrypoint   | 0x0379   |
| Data Size    | 16 bytes |
| Instructions | 2        |

```
      00 01 02 03 04 05 06 07  08 09 0A 0B 0C 0D 0E 0F
      -- -- -- -- -- -- -- --  -- -- -- -- -- -- -- --
0370:                             5B 04 80 F8 FF FF 7F           [......
0380: F8 FF FF 7F 67 6D 61 31  00                       ....gma1.       
```

#### Opcodes

```
  0: 0x0379 [0x5B] LOAD_EXT_SCHEDULER: Load scheduler "gma1" with entities [EventEntity, EventEntity], work=481*
  1: 0x0388 [0x00] END_REQSTACK()
```

### Event 65535.60

#### Metadata

| Field        | Value    |
|--------------|----------|
| Entrypoint   | 0x0389   |
| Data Size    | 14 bytes |
| Instructions | 2        |

```
      00 01 02 03 04 05 06 07  08 09 0A 0B 0C 0D 0E 0F
      -- -- -- -- -- -- -- --  -- -- -- -- -- -- -- --
0380:                             53 F8 FF FF 7F F8 FF           S......
0390: FF 7F 67 6D 61 31 00                              ..gma1.         
```

#### Opcodes

```
  0: 0x0389 [0x53] WAIT_SCHEDULER_TASK: Wait for scheduler "gma1" with entities [EventEntity, EventEntity]
  1: 0x0396 [0x00] END_REQSTACK()
```

### Event 65535.61

#### Metadata

| Field        | Value    |
|--------------|----------|
| Entrypoint   | 0x0397   |
| Data Size    | 16 bytes |
| Instructions | 2        |

```
      00 01 02 03 04 05 06 07  08 09 0A 0B 0C 0D 0E 0F
      -- -- -- -- -- -- -- --  -- -- -- -- -- -- -- --
0390:                      5B  04 80 F8 FF FF 7F F8 FF         [........
03A0: FF 7F 74 62 6F 30 00                              ..tbo0.         
```

#### Opcodes

```
  0: 0x0397 [0x5B] LOAD_EXT_SCHEDULER: Load scheduler "tbo0" with entities [EventEntity, EventEntity], work=481*
  1: 0x03A6 [0x00] END_REQSTACK()
```

### Event 65535.62

#### Metadata

| Field        | Value    |
|--------------|----------|
| Entrypoint   | 0x03A7   |
| Data Size    | 14 bytes |
| Instructions | 2        |

```
      00 01 02 03 04 05 06 07  08 09 0A 0B 0C 0D 0E 0F
      -- -- -- -- -- -- -- --  -- -- -- -- -- -- -- --
03A0:                      53  F8 FF FF 7F F8 FF FF 7F         S........
03B0: 74 62 6F 30 00                                    tbo0.           
```

#### Opcodes

```
  0: 0x03A7 [0x53] WAIT_SCHEDULER_TASK: Wait for scheduler "tbo0" with entities [EventEntity, EventEntity]
  1: 0x03B4 [0x00] END_REQSTACK()
```

### Event 65535.63

#### Metadata

| Field        | Value    |
|--------------|----------|
| Entrypoint   | 0x03B5   |
| Data Size    | 16 bytes |
| Instructions | 2        |

```
      00 01 02 03 04 05 06 07  08 09 0A 0B 0C 0D 0E 0F
      -- -- -- -- -- -- -- --  -- -- -- -- -- -- -- --
03B0:                5B 04 80  F8 FF FF 7F F8 FF FF 7F       [..........
03C0: 74 62 6F 31 00                                    tbo1.           
```

#### Opcodes

```
  0: 0x03B5 [0x5B] LOAD_EXT_SCHEDULER: Load scheduler "tbo1" with entities [EventEntity, EventEntity], work=481*
  1: 0x03C4 [0x00] END_REQSTACK()
```

### Event 65535.64

#### Metadata

| Field        | Value    |
|--------------|----------|
| Entrypoint   | 0x03C5   |
| Data Size    | 14 bytes |
| Instructions | 2        |

```
      00 01 02 03 04 05 06 07  08 09 0A 0B 0C 0D 0E 0F
      -- -- -- -- -- -- -- --  -- -- -- -- -- -- -- --
03C0:                53 F8 FF  FF 7F F8 FF FF 7F 74 62       S........tb
03D0: 6F 31 00                                          o1.             
```

#### Opcodes

```
  0: 0x03C5 [0x53] WAIT_SCHEDULER_TASK: Wait for scheduler "tbo1" with entities [EventEntity, EventEntity]
  1: 0x03D2 [0x00] END_REQSTACK()
```

### Event 65535.65

#### Metadata

| Field        | Value    |
|--------------|----------|
| Entrypoint   | 0x03D3   |
| Data Size    | 16 bytes |
| Instructions | 2        |

```
      00 01 02 03 04 05 06 07  08 09 0A 0B 0C 0D 0E 0F
      -- -- -- -- -- -- -- --  -- -- -- -- -- -- -- --
03D0:          5B 04 80 F8 FF  FF 7F F8 FF FF 7F 74 62     [..........tb
03E0: 6F 67 00                                          og.             
```

#### Opcodes

```
  0: 0x03D3 [0x5B] LOAD_EXT_SCHEDULER: Load scheduler "tbog" with entities [EventEntity, EventEntity], work=481*
  1: 0x03E2 [0x00] END_REQSTACK()
```

### Event 65535.66

#### Metadata

| Field        | Value    |
|--------------|----------|
| Entrypoint   | 0x03E3   |
| Data Size    | 14 bytes |
| Instructions | 2        |

```
      00 01 02 03 04 05 06 07  08 09 0A 0B 0C 0D 0E 0F
      -- -- -- -- -- -- -- --  -- -- -- -- -- -- -- --
03E0:          53 F8 FF FF 7F  F8 FF FF 7F 74 62 6F 67     S........tbog
03F0: 00                                                .               
```

#### Opcodes

```
  0: 0x03E3 [0x53] WAIT_SCHEDULER_TASK: Wait for scheduler "tbog" with entities [EventEntity, EventEntity]
  1: 0x03F0 [0x00] END_REQSTACK()
```

### Event 65535.67

#### Metadata

| Field        | Value    |
|--------------|----------|
| Entrypoint   | 0x03F1   |
| Data Size    | 22 bytes |
| Instructions | 3        |

```
      00 01 02 03 04 05 06 07  08 09 0A 0B 0C 0D 0E 0F
      -- -- -- -- -- -- -- --  -- -- -- -- -- -- -- --
03F0:    81 00 F8 FF FF 7F 5B  04 80 F8 FF FF 7F F8 FF   ......[........
0400: FF 7F 73 72 61 30 00                              ..sra0.         
```

#### Opcodes

```
  0: 0x03F1 [0x81] SET_ENTITY_BLINKING(blink_flag=0x00, entity=EventEntity)
  1: 0x03F7 [0x5B] LOAD_EXT_SCHEDULER: Load scheduler "sra0" with entities [EventEntity, EventEntity], work=481*
  2: 0x0406 [0x00] END_REQSTACK()
```

### Event 65535.68

#### Metadata

| Field        | Value    |
|--------------|----------|
| Entrypoint   | 0x0407   |
| Data Size    | 14 bytes |
| Instructions | 2        |

```
      00 01 02 03 04 05 06 07  08 09 0A 0B 0C 0D 0E 0F
      -- -- -- -- -- -- -- --  -- -- -- -- -- -- -- --
0400:                      53  F8 FF FF 7F F8 FF FF 7F         S........
0410: 73 72 61 30 00                                    sra0.           
```

#### Opcodes

```
  0: 0x0407 [0x53] WAIT_SCHEDULER_TASK: Wait for scheduler "sra0" with entities [EventEntity, EventEntity]
  1: 0x0414 [0x00] END_REQSTACK()
```

### Event 65535.69

#### Metadata

| Field        | Value    |
|--------------|----------|
| Entrypoint   | 0x0415   |
| Data Size    | 16 bytes |
| Instructions | 2        |

```
      00 01 02 03 04 05 06 07  08 09 0A 0B 0C 0D 0E 0F
      -- -- -- -- -- -- -- --  -- -- -- -- -- -- -- --
0410:                5B 04 80  F8 FF FF 7F F8 FF FF 7F       [..........
0420: 73 72 61 31 00                                    sra1.           
```

#### Opcodes

```
  0: 0x0415 [0x5B] LOAD_EXT_SCHEDULER: Load scheduler "sra1" with entities [EventEntity, EventEntity], work=481*
  1: 0x0424 [0x00] END_REQSTACK()
```

### Event 65535.70

#### Metadata

| Field        | Value    |
|--------------|----------|
| Entrypoint   | 0x0425   |
| Data Size    | 20 bytes |
| Instructions | 3        |

```
      00 01 02 03 04 05 06 07  08 09 0A 0B 0C 0D 0E 0F
      -- -- -- -- -- -- -- --  -- -- -- -- -- -- -- --
0420:                53 F8 FF  FF 7F F8 FF FF 7F 73 72       S........sr
0430: 61 31 81 01 F8 FF FF 7F  00                       a1.......       
```

#### Opcodes

```
  0: 0x0425 [0x53] WAIT_SCHEDULER_TASK: Wait for scheduler "sra1" with entities [EventEntity, EventEntity]
  1: 0x0432 [0x81] SET_ENTITY_BLINKING(blink_flag=0x01, entity=EventEntity)
  2: 0x0438 [0x00] END_REQSTACK()
```

### Event 65535.71

#### Metadata

| Field        | Value    |
|--------------|----------|
| Entrypoint   | 0x0439   |
| Data Size    | 16 bytes |
| Instructions | 2        |

```
      00 01 02 03 04 05 06 07  08 09 0A 0B 0C 0D 0E 0F
      -- -- -- -- -- -- -- --  -- -- -- -- -- -- -- --
0430:                             5B 05 80 F8 FF FF 7F           [......
0440: F8 FF FF 7F 6B 74 61 30  00                       ....kta0.       
```

#### Opcodes

```
  0: 0x0439 [0x5B] LOAD_EXT_SCHEDULER: Load scheduler "kta0" with entities [EventEntity, EventEntity], work=484*
  1: 0x0448 [0x00] END_REQSTACK()
```

### Event 65535.72

#### Metadata

| Field        | Value    |
|--------------|----------|
| Entrypoint   | 0x0449   |
| Data Size    | 14 bytes |
| Instructions | 2        |

```
      00 01 02 03 04 05 06 07  08 09 0A 0B 0C 0D 0E 0F
      -- -- -- -- -- -- -- --  -- -- -- -- -- -- -- --
0440:                             53 F8 FF FF 7F F8 FF           S......
0450: FF 7F 6B 74 61 30 00                              ..kta0.         
```

#### Opcodes

```
  0: 0x0449 [0x53] WAIT_SCHEDULER_TASK: Wait for scheduler "kta0" with entities [EventEntity, EventEntity]
  1: 0x0456 [0x00] END_REQSTACK()
```

### Event 65535.73

#### Metadata

| Field        | Value    |
|--------------|----------|
| Entrypoint   | 0x0457   |
| Data Size    | 16 bytes |
| Instructions | 2        |

```
      00 01 02 03 04 05 06 07  08 09 0A 0B 0C 0D 0E 0F
      -- -- -- -- -- -- -- --  -- -- -- -- -- -- -- --
0450:                      5B  05 80 F8 FF FF 7F F8 FF         [........
0460: FF 7F 6B 74 61 31 00                              ..kta1.         
```

#### Opcodes

```
  0: 0x0457 [0x5B] LOAD_EXT_SCHEDULER: Load scheduler "kta1" with entities [EventEntity, EventEntity], work=484*
  1: 0x0466 [0x00] END_REQSTACK()
```

### Event 65535.74

#### Metadata

| Field        | Value    |
|--------------|----------|
| Entrypoint   | 0x0467   |
| Data Size    | 14 bytes |
| Instructions | 2        |

```
      00 01 02 03 04 05 06 07  08 09 0A 0B 0C 0D 0E 0F
      -- -- -- -- -- -- -- --  -- -- -- -- -- -- -- --
0460:                      53  F8 FF FF 7F F8 FF FF 7F         S........
0470: 6B 74 61 31 00                                    kta1.           
```

#### Opcodes

```
  0: 0x0467 [0x53] WAIT_SCHEDULER_TASK: Wait for scheduler "kta1" with entities [EventEntity, EventEntity]
  1: 0x0474 [0x00] END_REQSTACK()
```

### Event 65535.75

#### Metadata

| Field        | Value    |
|--------------|----------|
| Entrypoint   | 0x0475   |
| Data Size    | 16 bytes |
| Instructions | 2        |

```
      00 01 02 03 04 05 06 07  08 09 0A 0B 0C 0D 0E 0F
      -- -- -- -- -- -- -- --  -- -- -- -- -- -- -- --
0470:                5B 06 80  F8 FF FF 7F F8 FF FF 7F       [..........
0480: 6D 6F 6A 30 00                                    moj0.           
```

#### Opcodes

```
  0: 0x0475 [0x5B] LOAD_EXT_SCHEDULER: Load scheduler "moj0" with entities [EventEntity, EventEntity], work=478*
  1: 0x0484 [0x00] END_REQSTACK()
```

### Event 65535.76

#### Metadata

| Field        | Value    |
|--------------|----------|
| Entrypoint   | 0x0485   |
| Data Size    | 14 bytes |
| Instructions | 2        |

```
      00 01 02 03 04 05 06 07  08 09 0A 0B 0C 0D 0E 0F
      -- -- -- -- -- -- -- --  -- -- -- -- -- -- -- --
0480:                53 F8 FF  FF 7F F8 FF FF 7F 6D 6F       S........mo
0490: 6A 30 00                                          j0.             
```

#### Opcodes

```
  0: 0x0485 [0x53] WAIT_SCHEDULER_TASK: Wait for scheduler "moj0" with entities [EventEntity, EventEntity]
  1: 0x0492 [0x00] END_REQSTACK()
```

### Event 65535.77

#### Metadata

| Field        | Value    |
|--------------|----------|
| Entrypoint   | 0x0493   |
| Data Size    | 16 bytes |
| Instructions | 2        |

```
      00 01 02 03 04 05 06 07  08 09 0A 0B 0C 0D 0E 0F
      -- -- -- -- -- -- -- --  -- -- -- -- -- -- -- --
0490:          5B 06 80 F8 FF  FF 7F F8 FF FF 7F 6D 6F     [..........mo
04A0: 6A 31 00                                          j1.             
```

#### Opcodes

```
  0: 0x0493 [0x5B] LOAD_EXT_SCHEDULER: Load scheduler "moj1" with entities [EventEntity, EventEntity], work=478*
  1: 0x04A2 [0x00] END_REQSTACK()
```

### Event 65535.78

#### Metadata

| Field        | Value    |
|--------------|----------|
| Entrypoint   | 0x04A3   |
| Data Size    | 14 bytes |
| Instructions | 2        |

```
      00 01 02 03 04 05 06 07  08 09 0A 0B 0C 0D 0E 0F
      -- -- -- -- -- -- -- --  -- -- -- -- -- -- -- --
04A0:          53 F8 FF FF 7F  F8 FF FF 7F 6D 6F 6A 31     S........moj1
04B0: 00                                                .               
```

#### Opcodes

```
  0: 0x04A3 [0x53] WAIT_SCHEDULER_TASK: Wait for scheduler "moj1" with entities [EventEntity, EventEntity]
  1: 0x04B0 [0x00] END_REQSTACK()
```

### Event 65535.79

#### Metadata

| Field        | Value    |
|--------------|----------|
| Entrypoint   | 0x04B1   |
| Data Size    | 16 bytes |
| Instructions | 2        |

```
      00 01 02 03 04 05 06 07  08 09 0A 0B 0C 0D 0E 0F
      -- -- -- -- -- -- -- --  -- -- -- -- -- -- -- --
04B0:    5B 06 80 F8 FF FF 7F  F8 FF FF 7F 6D 6F 6A 32   [..........moj2
04C0: 00                                                .               
```

#### Opcodes

```
  0: 0x04B1 [0x5B] LOAD_EXT_SCHEDULER: Load scheduler "moj2" with entities [EventEntity, EventEntity], work=478*
  1: 0x04C0 [0x00] END_REQSTACK()
```

### Event 65535.80

#### Metadata

| Field        | Value    |
|--------------|----------|
| Entrypoint   | 0x04C1   |
| Data Size    | 14 bytes |
| Instructions | 2        |

```
      00 01 02 03 04 05 06 07  08 09 0A 0B 0C 0D 0E 0F
      -- -- -- -- -- -- -- --  -- -- -- -- -- -- -- --
04C0:    53 F8 FF FF 7F F8 FF  FF 7F 6D 6F 6A 32 00      S........moj2. 
```

#### Opcodes

```
  0: 0x04C1 [0x53] WAIT_SCHEDULER_TASK: Wait for scheduler "moj2" with entities [EventEntity, EventEntity]
  1: 0x04CE [0x00] END_REQSTACK()
```

### Event 65535.81

#### Metadata

| Field        | Value    |
|--------------|----------|
| Entrypoint   | 0x04CF   |
| Data Size    | 16 bytes |
| Instructions | 2        |

```
      00 01 02 03 04 05 06 07  08 09 0A 0B 0C 0D 0E 0F
      -- -- -- -- -- -- -- --  -- -- -- -- -- -- -- --
04C0:                                               5B                 [
04D0: 06 80 F8 FF FF 7F F8 FF  FF 7F 6D 6F 6A 33 00     ..........moj3. 
```

#### Opcodes

```
  0: 0x04CF [0x5B] LOAD_EXT_SCHEDULER: Load scheduler "moj3" with entities [EventEntity, EventEntity], work=478*
  1: 0x04DE [0x00] END_REQSTACK()
```

### Event 65535.82

#### Metadata

| Field        | Value    |
|--------------|----------|
| Entrypoint   | 0x04DF   |
| Data Size    | 14 bytes |
| Instructions | 2        |

```
      00 01 02 03 04 05 06 07  08 09 0A 0B 0C 0D 0E 0F
      -- -- -- -- -- -- -- --  -- -- -- -- -- -- -- --
04D0:                                               53                 S
04E0: F8 FF FF 7F F8 FF FF 7F  6D 6F 6A 33 00           ........moj3.   
```

#### Opcodes

```
  0: 0x04DF [0x53] WAIT_SCHEDULER_TASK: Wait for scheduler "moj3" with entities [EventEntity, EventEntity]
  1: 0x04EC [0x00] END_REQSTACK()
```

### Event 65535.83

#### Metadata

| Field        | Value    |
|--------------|----------|
| Entrypoint   | 0x04ED   |
| Data Size    | 16 bytes |
| Instructions | 2        |

```
      00 01 02 03 04 05 06 07  08 09 0A 0B 0C 0D 0E 0F
      -- -- -- -- -- -- -- --  -- -- -- -- -- -- -- --
04E0:                                         5B 02 80               [..
04F0: F8 FF FF 7F F8 FF FF 7F  00 FE FE FE 00           .............   
```

#### Opcodes

```
  0: 0x04ED [0x5B] LOAD_EXT_SCHEDULER: Load scheduler 0xFEFEFE00 with entities [EventEntity, EventEntity], work=477*
  1: 0x04FC [0x00] END_REQSTACK()
```

### Event 65535.84

#### Metadata

| Field        | Value    |
|--------------|----------|
| Entrypoint   | 0x04FD   |
| Data Size    | 16 bytes |
| Instructions | 2        |

```
      00 01 02 03 04 05 06 07  08 09 0A 0B 0C 0D 0E 0F
      -- -- -- -- -- -- -- --  -- -- -- -- -- -- -- --
04F0:                                         5B 02 80               [..
0500: F8 FF FF 7F F8 FF FF 7F  70 61 73 30 00           ........pas0.   
```

#### Opcodes

```
  0: 0x04FD [0x5B] LOAD_EXT_SCHEDULER: Load scheduler "pas0" with entities [EventEntity, EventEntity], work=477*
  1: 0x050C [0x00] END_REQSTACK()
```

### Event 65535.85

#### Metadata

| Field        | Value    |
|--------------|----------|
| Entrypoint   | 0x050D   |
| Data Size    | 14 bytes |
| Instructions | 2        |

```
      00 01 02 03 04 05 06 07  08 09 0A 0B 0C 0D 0E 0F
      -- -- -- -- -- -- -- --  -- -- -- -- -- -- -- --
0500:                                         53 F8 FF               S..
0510: FF 7F F8 FF FF 7F 70 61  73 30 00                 ......pas0.     
```

#### Opcodes

```
  0: 0x050D [0x53] WAIT_SCHEDULER_TASK: Wait for scheduler "pas0" with entities [EventEntity, EventEntity]
  1: 0x051A [0x00] END_REQSTACK()
```

### Event 65535.86

#### Metadata

| Field        | Value    |
|--------------|----------|
| Entrypoint   | 0x051B   |
| Data Size    | 22 bytes |
| Instructions | 3        |

```
      00 01 02 03 04 05 06 07  08 09 0A 0B 0C 0D 0E 0F
      -- -- -- -- -- -- -- --  -- -- -- -- -- -- -- --
0510:                                   81 00 F8 FF FF             .....
0520: 7F 5B 05 80 F8 FF FF 7F  F8 FF FF 7F 70 72 30 30  .[..........pr00
0530: 00                                                .               
```

#### Opcodes

```
  0: 0x051B [0x81] SET_ENTITY_BLINKING(blink_flag=0x00, entity=EventEntity)
  1: 0x0521 [0x5B] LOAD_EXT_SCHEDULER: Load scheduler "pr00" with entities [EventEntity, EventEntity], work=484*
  2: 0x0530 [0x00] END_REQSTACK()
```

### Event 65535.87

#### Metadata

| Field        | Value    |
|--------------|----------|
| Entrypoint   | 0x0531   |
| Data Size    | 14 bytes |
| Instructions | 2        |

```
      00 01 02 03 04 05 06 07  08 09 0A 0B 0C 0D 0E 0F
      -- -- -- -- -- -- -- --  -- -- -- -- -- -- -- --
0530:    53 F8 FF FF 7F F8 FF  FF 7F 70 72 30 30 00      S........pr00. 
```

#### Opcodes

```
  0: 0x0531 [0x53] WAIT_SCHEDULER_TASK: Wait for scheduler "pr00" with entities [EventEntity, EventEntity]
  1: 0x053E [0x00] END_REQSTACK()
```

### Event 65535.88

#### Metadata

| Field        | Value    |
|--------------|----------|
| Entrypoint   | 0x053F   |
| Data Size    | 16 bytes |
| Instructions | 2        |

```
      00 01 02 03 04 05 06 07  08 09 0A 0B 0C 0D 0E 0F
      -- -- -- -- -- -- -- --  -- -- -- -- -- -- -- --
0530:                                               5B                 [
0540: 05 80 F8 FF FF 7F F8 FF  FF 7F 70 72 30 31 00     ..........pr01. 
```

#### Opcodes

```
  0: 0x053F [0x5B] LOAD_EXT_SCHEDULER: Load scheduler "pr01" with entities [EventEntity, EventEntity], work=484*
  1: 0x054E [0x00] END_REQSTACK()
```

### Event 65535.89

#### Metadata

| Field        | Value    |
|--------------|----------|
| Entrypoint   | 0x054F   |
| Data Size    | 14 bytes |
| Instructions | 2        |

```
      00 01 02 03 04 05 06 07  08 09 0A 0B 0C 0D 0E 0F
      -- -- -- -- -- -- -- --  -- -- -- -- -- -- -- --
0540:                                               53                 S
0550: F8 FF FF 7F F8 FF FF 7F  70 72 30 31 00           ........pr01.   
```

#### Opcodes

```
  0: 0x054F [0x53] WAIT_SCHEDULER_TASK: Wait for scheduler "pr01" with entities [EventEntity, EventEntity]
  1: 0x055C [0x00] END_REQSTACK()
```

### Event 65535.90

#### Metadata

| Field        | Value    |
|--------------|----------|
| Entrypoint   | 0x055D   |
| Data Size    | 16 bytes |
| Instructions | 2        |

```
      00 01 02 03 04 05 06 07  08 09 0A 0B 0C 0D 0E 0F
      -- -- -- -- -- -- -- --  -- -- -- -- -- -- -- --
0550:                                         5B 05 80               [..
0560: F8 FF FF 7F F8 FF FF 7F  70 72 30 32 00           ........pr02.   
```

#### Opcodes

```
  0: 0x055D [0x5B] LOAD_EXT_SCHEDULER: Load scheduler "pr02" with entities [EventEntity, EventEntity], work=484*
  1: 0x056C [0x00] END_REQSTACK()
```

### Event 65535.91

#### Metadata

| Field        | Value    |
|--------------|----------|
| Entrypoint   | 0x056D   |
| Data Size    | 14 bytes |
| Instructions | 2        |

```
      00 01 02 03 04 05 06 07  08 09 0A 0B 0C 0D 0E 0F
      -- -- -- -- -- -- -- --  -- -- -- -- -- -- -- --
0560:                                         53 F8 FF               S..
0570: FF 7F F8 FF FF 7F 70 72  30 32 00                 ......pr02.     
```

#### Opcodes

```
  0: 0x056D [0x53] WAIT_SCHEDULER_TASK: Wait for scheduler "pr02" with entities [EventEntity, EventEntity]
  1: 0x057A [0x00] END_REQSTACK()
```

### Event 65535.92

#### Metadata

| Field        | Value    |
|--------------|----------|
| Entrypoint   | 0x057B   |
| Data Size    | 16 bytes |
| Instructions | 2        |

```
      00 01 02 03 04 05 06 07  08 09 0A 0B 0C 0D 0E 0F
      -- -- -- -- -- -- -- --  -- -- -- -- -- -- -- --
0570:                                   5B 07 80 F8 FF             [....
0580: FF 7F F8 FF FF 7F 6E 67  69 30 00                 ......ngi0.     
```

#### Opcodes

```
  0: 0x057B [0x5B] LOAD_EXT_SCHEDULER: Load scheduler "ngi0" with entities [EventEntity, EventEntity], work=619*
  1: 0x058A [0x00] END_REQSTACK()
```

### Event 65535.93

#### Metadata

| Field        | Value    |
|--------------|----------|
| Entrypoint   | 0x058B   |
| Data Size    | 14 bytes |
| Instructions | 2        |

```
      00 01 02 03 04 05 06 07  08 09 0A 0B 0C 0D 0E 0F
      -- -- -- -- -- -- -- --  -- -- -- -- -- -- -- --
0580:                                   53 F8 FF FF 7F             S....
0590: F8 FF FF 7F 6E 67 69 30  00                       ....ngi0.       
```

#### Opcodes

```
  0: 0x058B [0x53] WAIT_SCHEDULER_TASK: Wait for scheduler "ngi0" with entities [EventEntity, EventEntity]
  1: 0x0598 [0x00] END_REQSTACK()
```

### Event 65535.94

#### Metadata

| Field        | Value    |
|--------------|----------|
| Entrypoint   | 0x0599   |
| Data Size    | 16 bytes |
| Instructions | 2        |

```
      00 01 02 03 04 05 06 07  08 09 0A 0B 0C 0D 0E 0F
      -- -- -- -- -- -- -- --  -- -- -- -- -- -- -- --
0590:                             5B 07 80 F8 FF FF 7F           [......
05A0: F8 FF FF 7F 6E 67 69 31  00                       ....ngi1.       
```

#### Opcodes

```
  0: 0x0599 [0x5B] LOAD_EXT_SCHEDULER: Load scheduler "ngi1" with entities [EventEntity, EventEntity], work=619*
  1: 0x05A8 [0x00] END_REQSTACK()
```

### Event 65535.95

#### Metadata

| Field        | Value    |
|--------------|----------|
| Entrypoint   | 0x05A9   |
| Data Size    | 14 bytes |
| Instructions | 2        |

```
      00 01 02 03 04 05 06 07  08 09 0A 0B 0C 0D 0E 0F
      -- -- -- -- -- -- -- --  -- -- -- -- -- -- -- --
05A0:                             53 F8 FF FF 7F F8 FF           S......
05B0: FF 7F 6E 67 69 31 00                              ..ngi1.         
```

#### Opcodes

```
  0: 0x05A9 [0x53] WAIT_SCHEDULER_TASK: Wait for scheduler "ngi1" with entities [EventEntity, EventEntity]
  1: 0x05B6 [0x00] END_REQSTACK()
```

### Event 65535.96

#### Metadata

| Field        | Value    |
|--------------|----------|
| Entrypoint   | 0x05B7   |
| Data Size    | 16 bytes |
| Instructions | 2        |

```
      00 01 02 03 04 05 06 07  08 09 0A 0B 0C 0D 0E 0F
      -- -- -- -- -- -- -- --  -- -- -- -- -- -- -- --
05B0:                      5B  07 80 F8 FF FF 7F F8 FF         [........
05C0: FF 7F 6E 67 69 32 00                              ..ngi2.         
```

#### Opcodes

```
  0: 0x05B7 [0x5B] LOAD_EXT_SCHEDULER: Load scheduler "ngi2" with entities [EventEntity, EventEntity], work=619*
  1: 0x05C6 [0x00] END_REQSTACK()
```

### Event 65535.97

#### Metadata

| Field        | Value    |
|--------------|----------|
| Entrypoint   | 0x05C7   |
| Data Size    | 14 bytes |
| Instructions | 2        |

```
      00 01 02 03 04 05 06 07  08 09 0A 0B 0C 0D 0E 0F
      -- -- -- -- -- -- -- --  -- -- -- -- -- -- -- --
05C0:                      53  F8 FF FF 7F F8 FF FF 7F         S........
05D0: 6E 67 69 32 00                                    ngi2.           
```

#### Opcodes

```
  0: 0x05C7 [0x53] WAIT_SCHEDULER_TASK: Wait for scheduler "ngi2" with entities [EventEntity, EventEntity]
  1: 0x05D4 [0x00] END_REQSTACK()
```

### Event 65535.98

#### Metadata

| Field        | Value    |
|--------------|----------|
| Entrypoint   | 0x05D5   |
| Data Size    | 16 bytes |
| Instructions | 2        |

```
      00 01 02 03 04 05 06 07  08 09 0A 0B 0C 0D 0E 0F
      -- -- -- -- -- -- -- --  -- -- -- -- -- -- -- --
05D0:                5B 08 80  F8 FF FF 7F F8 FF FF 7F       [..........
05E0: 6F 72 61 30 00                                    ora0.           
```

#### Opcodes

```
  0: 0x05D5 [0x5B] LOAD_EXT_SCHEDULER: Load scheduler "ora0" with entities [EventEntity, EventEntity], work=483*
  1: 0x05E4 [0x00] END_REQSTACK()
```

### Event 65535.99

#### Metadata

| Field        | Value    |
|--------------|----------|
| Entrypoint   | 0x05E5   |
| Data Size    | 14 bytes |
| Instructions | 2        |

```
      00 01 02 03 04 05 06 07  08 09 0A 0B 0C 0D 0E 0F
      -- -- -- -- -- -- -- --  -- -- -- -- -- -- -- --
05E0:                53 F8 FF  FF 7F F8 FF FF 7F 6F 72       S........or
05F0: 61 30 00                                          a0.             
```

#### Opcodes

```
  0: 0x05E5 [0x53] WAIT_SCHEDULER_TASK: Wait for scheduler "ora0" with entities [EventEntity, EventEntity]
  1: 0x05F2 [0x00] END_REQSTACK()
```

### Event 65535.100

#### Metadata

| Field        | Value    |
|--------------|----------|
| Entrypoint   | 0x05F3   |
| Data Size    | 16 bytes |
| Instructions | 2        |

```
      00 01 02 03 04 05 06 07  08 09 0A 0B 0C 0D 0E 0F
      -- -- -- -- -- -- -- --  -- -- -- -- -- -- -- --
05F0:          5B 08 80 F8 FF  FF 7F F8 FF FF 7F 6F 72     [..........or
0600: 61 31 00                                          a1.             
```

#### Opcodes

```
  0: 0x05F3 [0x5B] LOAD_EXT_SCHEDULER: Load scheduler "ora1" with entities [EventEntity, EventEntity], work=483*
  1: 0x0602 [0x00] END_REQSTACK()
```

### Event 65535.101

#### Metadata

| Field        | Value    |
|--------------|----------|
| Entrypoint   | 0x0603   |
| Data Size    | 14 bytes |
| Instructions | 2        |

```
      00 01 02 03 04 05 06 07  08 09 0A 0B 0C 0D 0E 0F
      -- -- -- -- -- -- -- --  -- -- -- -- -- -- -- --
0600:          53 F8 FF FF 7F  F8 FF FF 7F 6F 72 61 31     S........ora1
0610: 00                                                .               
```

#### Opcodes

```
  0: 0x0603 [0x53] WAIT_SCHEDULER_TASK: Wait for scheduler "ora1" with entities [EventEntity, EventEntity]
  1: 0x0610 [0x00] END_REQSTACK()
```

### Event 65535.102

#### Metadata

| Field        | Value    |
|--------------|----------|
| Entrypoint   | 0x0611   |
| Data Size    | 16 bytes |
| Instructions | 2        |

```
      00 01 02 03 04 05 06 07  08 09 0A 0B 0C 0D 0E 0F
      -- -- -- -- -- -- -- --  -- -- -- -- -- -- -- --
0610:    5B 09 80 F8 FF FF 7F  F8 FF FF 7F 6F 72 61 30   [..........ora0
0620: 00                                                .               
```

#### Opcodes

```
  0: 0x0611 [0x5B] LOAD_EXT_SCHEDULER: Load scheduler "ora0" with entities [EventEntity, EventEntity], work=624*
  1: 0x0620 [0x00] END_REQSTACK()
```

### Event 65535.103

#### Metadata

| Field        | Value    |
|--------------|----------|
| Entrypoint   | 0x0621   |
| Data Size    | 14 bytes |
| Instructions | 2        |

```
      00 01 02 03 04 05 06 07  08 09 0A 0B 0C 0D 0E 0F
      -- -- -- -- -- -- -- --  -- -- -- -- -- -- -- --
0620:    53 F8 FF FF 7F F8 FF  FF 7F 6F 72 61 30 00      S........ora0. 
```

#### Opcodes

```
  0: 0x0621 [0x53] WAIT_SCHEDULER_TASK: Wait for scheduler "ora0" with entities [EventEntity, EventEntity]
  1: 0x062E [0x00] END_REQSTACK()
```

### Event 65535.104

#### Metadata

| Field        | Value    |
|--------------|----------|
| Entrypoint   | 0x062F   |
| Data Size    | 16 bytes |
| Instructions | 2        |

```
      00 01 02 03 04 05 06 07  08 09 0A 0B 0C 0D 0E 0F
      -- -- -- -- -- -- -- --  -- -- -- -- -- -- -- --
0620:                                               5B                 [
0630: 09 80 F8 FF FF 7F F8 FF  FF 7F 6F 72 61 31 00     ..........ora1. 
```

#### Opcodes

```
  0: 0x062F [0x5B] LOAD_EXT_SCHEDULER: Load scheduler "ora1" with entities [EventEntity, EventEntity], work=624*
  1: 0x063E [0x00] END_REQSTACK()
```

### Event 65535.105

#### Metadata

| Field        | Value    |
|--------------|----------|
| Entrypoint   | 0x063F   |
| Data Size    | 14 bytes |
| Instructions | 2        |

```
      00 01 02 03 04 05 06 07  08 09 0A 0B 0C 0D 0E 0F
      -- -- -- -- -- -- -- --  -- -- -- -- -- -- -- --
0630:                                               53                 S
0640: F8 FF FF 7F F8 FF FF 7F  6F 72 61 31 00           ........ora1.   
```

#### Opcodes

```
  0: 0x063F [0x53] WAIT_SCHEDULER_TASK: Wait for scheduler "ora1" with entities [EventEntity, EventEntity]
  1: 0x064C [0x00] END_REQSTACK()
```

### Event 65535.106

#### Metadata

| Field        | Value    |
|--------------|----------|
| Entrypoint   | 0x064D   |
| Data Size    | 16 bytes |
| Instructions | 2        |

```
      00 01 02 03 04 05 06 07  08 09 0A 0B 0C 0D 0E 0F
      -- -- -- -- -- -- -- --  -- -- -- -- -- -- -- --
0640:                                         5B 09 80               [..
0650: F8 FF FF 7F F8 FF FF 7F  6F 72 61 32 00           ........ora2.   
```

#### Opcodes

```
  0: 0x064D [0x5B] LOAD_EXT_SCHEDULER: Load scheduler "ora2" with entities [EventEntity, EventEntity], work=624*
  1: 0x065C [0x00] END_REQSTACK()
```

### Event 65535.107

#### Metadata

| Field        | Value    |
|--------------|----------|
| Entrypoint   | 0x065D   |
| Data Size    | 14 bytes |
| Instructions | 2        |

```
      00 01 02 03 04 05 06 07  08 09 0A 0B 0C 0D 0E 0F
      -- -- -- -- -- -- -- --  -- -- -- -- -- -- -- --
0650:                                         53 F8 FF               S..
0660: FF 7F F8 FF FF 7F 6F 72  61 32 00                 ......ora2.     
```

#### Opcodes

```
  0: 0x065D [0x53] WAIT_SCHEDULER_TASK: Wait for scheduler "ora2" with entities [EventEntity, EventEntity]
  1: 0x066A [0x00] END_REQSTACK()
```

### Event 65535.108

#### Metadata

| Field        | Value    |
|--------------|----------|
| Entrypoint   | 0x066B   |
| Data Size    | 16 bytes |
| Instructions | 2        |

```
      00 01 02 03 04 05 06 07  08 09 0A 0B 0C 0D 0E 0F
      -- -- -- -- -- -- -- --  -- -- -- -- -- -- -- --
0660:                                   5B 09 80 F8 FF             [....
0670: FF 7F F8 FF FF 7F 6F 72  61 33 00                 ......ora3.     
```

#### Opcodes

```
  0: 0x066B [0x5B] LOAD_EXT_SCHEDULER: Load scheduler "ora3" with entities [EventEntity, EventEntity], work=624*
  1: 0x067A [0x00] END_REQSTACK()
```

### Event 65535.109

#### Metadata

| Field        | Value    |
|--------------|----------|
| Entrypoint   | 0x067B   |
| Data Size    | 14 bytes |
| Instructions | 2        |

```
      00 01 02 03 04 05 06 07  08 09 0A 0B 0C 0D 0E 0F
      -- -- -- -- -- -- -- --  -- -- -- -- -- -- -- --
0670:                                   53 F8 FF FF 7F             S....
0680: F8 FF FF 7F 6F 72 61 33  00                       ....ora3.       
```

#### Opcodes

```
  0: 0x067B [0x53] WAIT_SCHEDULER_TASK: Wait for scheduler "ora3" with entities [EventEntity, EventEntity]
  1: 0x0688 [0x00] END_REQSTACK()
```

### Event 65535.110

#### Metadata

| Field        | Value    |
|--------------|----------|
| Entrypoint   | 0x0689   |
| Data Size    | 16 bytes |
| Instructions | 2        |

```
      00 01 02 03 04 05 06 07  08 09 0A 0B 0C 0D 0E 0F
      -- -- -- -- -- -- -- --  -- -- -- -- -- -- -- --
0680:                             5B 0A 80 F8 FF FF 7F           [......
0690: F8 FF FF 7F 66 6E 64 30  00                       ....fnd0.       
```

#### Opcodes

```
  0: 0x0689 [0x5B] LOAD_EXT_SCHEDULER: Load scheduler "fnd0" with entities [EventEntity, EventEntity], work=620*
  1: 0x0698 [0x00] END_REQSTACK()
```

### Event 65535.111

#### Metadata

| Field        | Value    |
|--------------|----------|
| Entrypoint   | 0x0699   |
| Data Size    | 14 bytes |
| Instructions | 2        |

```
      00 01 02 03 04 05 06 07  08 09 0A 0B 0C 0D 0E 0F
      -- -- -- -- -- -- -- --  -- -- -- -- -- -- -- --
0690:                             53 F8 FF FF 7F F8 FF           S......
06A0: FF 7F 66 6E 64 30 00                              ..fnd0.         
```

#### Opcodes

```
  0: 0x0699 [0x53] WAIT_SCHEDULER_TASK: Wait for scheduler "fnd0" with entities [EventEntity, EventEntity]
  1: 0x06A6 [0x00] END_REQSTACK()
```

### Event 65535.112

#### Metadata

| Field        | Value    |
|--------------|----------|
| Entrypoint   | 0x06A7   |
| Data Size    | 16 bytes |
| Instructions | 2        |

```
      00 01 02 03 04 05 06 07  08 09 0A 0B 0C 0D 0E 0F
      -- -- -- -- -- -- -- --  -- -- -- -- -- -- -- --
06A0:                      5B  0A 80 F8 FF FF 7F F8 FF         [........
06B0: FF 7F 66 6E 64 31 00                              ..fnd1.         
```

#### Opcodes

```
  0: 0x06A7 [0x5B] LOAD_EXT_SCHEDULER: Load scheduler "fnd1" with entities [EventEntity, EventEntity], work=620*
  1: 0x06B6 [0x00] END_REQSTACK()
```

### Event 65535.113

#### Metadata

| Field        | Value    |
|--------------|----------|
| Entrypoint   | 0x06B7   |
| Data Size    | 14 bytes |
| Instructions | 2        |

```
      00 01 02 03 04 05 06 07  08 09 0A 0B 0C 0D 0E 0F
      -- -- -- -- -- -- -- --  -- -- -- -- -- -- -- --
06B0:                      53  F8 FF FF 7F F8 FF FF 7F         S........
06C0: 66 6E 64 31 00                                    fnd1.           
```

#### Opcodes

```
  0: 0x06B7 [0x53] WAIT_SCHEDULER_TASK: Wait for scheduler "fnd1" with entities [EventEntity, EventEntity]
  1: 0x06C4 [0x00] END_REQSTACK()
```

### Event 65535.114

#### Metadata

| Field        | Value    |
|--------------|----------|
| Entrypoint   | 0x06C5   |
| Data Size    | 16 bytes |
| Instructions | 2        |

```
      00 01 02 03 04 05 06 07  08 09 0A 0B 0C 0D 0E 0F
      -- -- -- -- -- -- -- --  -- -- -- -- -- -- -- --
06C0:                5B 0A 80  F8 FF FF 7F F8 FF FF 7F       [..........
06D0: 66 6E 73 70 00                                    fnsp.           
```

#### Opcodes

```
  0: 0x06C5 [0x5B] LOAD_EXT_SCHEDULER: Load scheduler "fnsp" with entities [EventEntity, EventEntity], work=620*
  1: 0x06D4 [0x00] END_REQSTACK()
```

### Event 65535.115

#### Metadata

| Field        | Value    |
|--------------|----------|
| Entrypoint   | 0x06D5   |
| Data Size    | 14 bytes |
| Instructions | 2        |

```
      00 01 02 03 04 05 06 07  08 09 0A 0B 0C 0D 0E 0F
      -- -- -- -- -- -- -- --  -- -- -- -- -- -- -- --
06D0:                53 F8 FF  FF 7F F8 FF FF 7F 66 6E       S........fn
06E0: 73 70 00                                          sp.             
```

#### Opcodes

```
  0: 0x06D5 [0x53] WAIT_SCHEDULER_TASK: Wait for scheduler "fnsp" with entities [EventEntity, EventEntity]
  1: 0x06E2 [0x00] END_REQSTACK()
```

### Event 65535.116

#### Metadata

| Field        | Value    |
|--------------|----------|
| Entrypoint   | 0x06E3   |
| Data Size    | 16 bytes |
| Instructions | 2        |

```
      00 01 02 03 04 05 06 07  08 09 0A 0B 0C 0D 0E 0F
      -- -- -- -- -- -- -- --  -- -- -- -- -- -- -- --
06E0:          5B 08 80 F8 FF  FF 7F F8 FF FF 7F 6D 61     [..........ma
06F0: 73 30 00                                          s0.             
```

#### Opcodes

```
  0: 0x06E3 [0x5B] LOAD_EXT_SCHEDULER: Load scheduler "mas0" with entities [EventEntity, EventEntity], work=483*
  1: 0x06F2 [0x00] END_REQSTACK()
```

### Event 65535.117

#### Metadata

| Field        | Value    |
|--------------|----------|
| Entrypoint   | 0x06F3   |
| Data Size    | 14 bytes |
| Instructions | 2        |

```
      00 01 02 03 04 05 06 07  08 09 0A 0B 0C 0D 0E 0F
      -- -- -- -- -- -- -- --  -- -- -- -- -- -- -- --
06F0:          53 F8 FF FF 7F  F8 FF FF 7F 6D 61 73 30     S........mas0
0700: 00                                                .               
```

#### Opcodes

```
  0: 0x06F3 [0x53] WAIT_SCHEDULER_TASK: Wait for scheduler "mas0" with entities [EventEntity, EventEntity]
  1: 0x0700 [0x00] END_REQSTACK()
```

### Event 65535.118

#### Metadata

| Field        | Value    |
|--------------|----------|
| Entrypoint   | 0x0701   |
| Data Size    | 24 bytes |
| Instructions | 3        |

```
      00 01 02 03 04 05 06 07  08 09 0A 0B 0C 0D 0E 0F
      -- -- -- -- -- -- -- --  -- -- -- -- -- -- -- --
0700:    81 00 F8 FF FF 7F 9F  0B 80 F8 FF FF 7F F8 FF   ...............
0710: FF 7F 65 66 73 31 0C 80  00                       ..efs1...       
```

#### Opcodes

```
  0: 0x0701 [0x81] SET_ENTITY_BLINKING(blink_flag=0x00, entity=EventEntity)
  1: 0x0707 [0x9F] LOAD_SCHEDULED_TASK_ALT: Load scheduler "efs1" with entities [EventEntity, EventEntity], work=[59*, 0*]
  2: 0x0718 [0x00] END_REQSTACK()
```

### Event 65535.119

#### Metadata

| Field        | Value    |
|--------------|----------|
| Entrypoint   | 0x0719   |
| Data Size    | 16 bytes |
| Instructions | 2        |

```
      00 01 02 03 04 05 06 07  08 09 0A 0B 0C 0D 0E 0F
      -- -- -- -- -- -- -- --  -- -- -- -- -- -- -- --
0710:                             5B 08 80 F8 FF FF 7F           [......
0720: F8 FF FF 7F 6D 61 73 33  00                       ....mas3.       
```

#### Opcodes

```
  0: 0x0719 [0x5B] LOAD_EXT_SCHEDULER: Load scheduler "mas3" with entities [EventEntity, EventEntity], work=483*
  1: 0x0728 [0x00] END_REQSTACK()
```

### Event 65535.120

#### Metadata

| Field        | Value    |
|--------------|----------|
| Entrypoint   | 0x0729   |
| Data Size    | 39 bytes |
| Instructions | 4        |

```
      00 01 02 03 04 05 06 07  08 09 0A 0B 0C 0D 0E 0F
      -- -- -- -- -- -- -- --  -- -- -- -- -- -- -- --
0720:                             81 00 F8 FF FF 7F 5B           ......[
0730: 08 80 F8 FF FF 7F F8 FF  FF 7F 6D 61 73 32 9F 0B  ..........mas2..
0740: 80 F8 FF FF 7F F8 FF FF  7F 65 66 73 74 0C 80 00  .........efst...
```

#### Opcodes

```
  0: 0x0729 [0x81] SET_ENTITY_BLINKING(blink_flag=0x00, entity=EventEntity)
  1: 0x072F [0x5B] LOAD_EXT_SCHEDULER: Load scheduler "mas2" with entities [EventEntity, EventEntity], work=483*
  2: 0x073E [0x9F] LOAD_SCHEDULED_TASK_ALT: Load scheduler "efst" with entities [EventEntity, EventEntity], work=[59*, 0*]
  3: 0x074F [0x00] END_REQSTACK()
```

### Event 65535.121

#### Metadata

| Field        | Value    |
|--------------|----------|
| Entrypoint   | 0x0750   |
| Data Size    | 14 bytes |
| Instructions | 2        |

```
      00 01 02 03 04 05 06 07  08 09 0A 0B 0C 0D 0E 0F
      -- -- -- -- -- -- -- --  -- -- -- -- -- -- -- --
0750: 53 F8 FF FF 7F F8 FF FF  7F 6D 61 73 32 00        S........mas2.  
```

#### Opcodes

```
  0: 0x0750 [0x53] WAIT_SCHEDULER_TASK: Wait for scheduler "mas2" with entities [EventEntity, EventEntity]
  1: 0x075D [0x00] END_REQSTACK()
```

### Event 65535.122

#### Metadata

| Field        | Value   |
|--------------|---------|
| Entrypoint   | 0x075E  |
| Data Size    | 7 bytes |
| Instructions | 2       |

```
      00 01 02 03 04 05 06 07  08 09 0A 0B 0C 0D 0E 0F
      -- -- -- -- -- -- -- --  -- -- -- -- -- -- -- --
0750:                                            81 01                ..
0760: F8 FF FF 7F 00                                    .....           
```

#### Opcodes

```
  0: 0x075E [0x81] SET_ENTITY_BLINKING(blink_flag=0x01, entity=EventEntity)
  1: 0x0764 [0x00] END_REQSTACK()
```

### Event 65535.123

#### Metadata

| Field        | Value    |
|--------------|----------|
| Entrypoint   | 0x0765   |
| Data Size    | 16 bytes |
| Instructions | 2        |

```
      00 01 02 03 04 05 06 07  08 09 0A 0B 0C 0D 0E 0F
      -- -- -- -- -- -- -- --  -- -- -- -- -- -- -- --
0760:                5B 0D 80  F8 FF FF 7F F8 FF FF 7F       [..........
0770: 68 6E 64 30 00                                    hnd0.           
```

#### Opcodes

```
  0: 0x0765 [0x5B] LOAD_EXT_SCHEDULER: Load scheduler "hnd0" with entities [EventEntity, EventEntity], work=621*
  1: 0x0774 [0x00] END_REQSTACK()
```

### Event 65535.124

#### Metadata

| Field        | Value    |
|--------------|----------|
| Entrypoint   | 0x0775   |
| Data Size    | 14 bytes |
| Instructions | 2        |

```
      00 01 02 03 04 05 06 07  08 09 0A 0B 0C 0D 0E 0F
      -- -- -- -- -- -- -- --  -- -- -- -- -- -- -- --
0770:                53 F8 FF  FF 7F F8 FF FF 7F 68 6E       S........hn
0780: 64 30 00                                          d0.             
```

#### Opcodes

```
  0: 0x0775 [0x53] WAIT_SCHEDULER_TASK: Wait for scheduler "hnd0" with entities [EventEntity, EventEntity]
  1: 0x0782 [0x00] END_REQSTACK()
```

### Event 65535.125

#### Metadata

| Field        | Value    |
|--------------|----------|
| Entrypoint   | 0x0783   |
| Data Size    | 16 bytes |
| Instructions | 2        |

```
      00 01 02 03 04 05 06 07  08 09 0A 0B 0C 0D 0E 0F
      -- -- -- -- -- -- -- --  -- -- -- -- -- -- -- --
0780:          5B 0D 80 F8 FF  FF 7F F8 FF FF 7F 68 6E     [..........hn
0790: 64 31 00                                          d1.             
```

#### Opcodes

```
  0: 0x0783 [0x5B] LOAD_EXT_SCHEDULER: Load scheduler "hnd1" with entities [EventEntity, EventEntity], work=621*
  1: 0x0792 [0x00] END_REQSTACK()
```

### Event 65535.126

#### Metadata

| Field        | Value    |
|--------------|----------|
| Entrypoint   | 0x0793   |
| Data Size    | 14 bytes |
| Instructions | 2        |

```
      00 01 02 03 04 05 06 07  08 09 0A 0B 0C 0D 0E 0F
      -- -- -- -- -- -- -- --  -- -- -- -- -- -- -- --
0790:          53 F8 FF FF 7F  F8 FF FF 7F 68 6E 64 31     S........hnd1
07A0: 00                                                .               
```

#### Opcodes

```
  0: 0x0793 [0x53] WAIT_SCHEDULER_TASK: Wait for scheduler "hnd1" with entities [EventEntity, EventEntity]
  1: 0x07A0 [0x00] END_REQSTACK()
```

### Event 65535.127

#### Metadata

| Field        | Value    |
|--------------|----------|
| Entrypoint   | 0x07A1   |
| Data Size    | 22 bytes |
| Instructions | 3        |

```
      00 01 02 03 04 05 06 07  08 09 0A 0B 0C 0D 0E 0F
      -- -- -- -- -- -- -- --  -- -- -- -- -- -- -- --
07A0:    7C 00 F8 FF FF 7F 5B  09 80 F8 FF FF 7F F8 FF   |.....[........
07B0: FF 7F 73 69 6B 30 00                              ..sik0.         
```

#### Opcodes

```
  0: 0x07A1 [0x7C] EventEntity->Render.Flags2 |= 0x00
  1: 0x07A7 [0x5B] LOAD_EXT_SCHEDULER: Load scheduler "sik0" with entities [EventEntity, EventEntity], work=624*
  2: 0x07B6 [0x00] END_REQSTACK()
```

### Event 65535.128

#### Metadata

| Field        | Value    |
|--------------|----------|
| Entrypoint   | 0x07B7   |
| Data Size    | 14 bytes |
| Instructions | 2        |

```
      00 01 02 03 04 05 06 07  08 09 0A 0B 0C 0D 0E 0F
      -- -- -- -- -- -- -- --  -- -- -- -- -- -- -- --
07B0:                      53  F8 FF FF 7F F8 FF FF 7F         S........
07C0: 73 69 6B 30 00                                    sik0.           
```

#### Opcodes

```
  0: 0x07B7 [0x53] WAIT_SCHEDULER_TASK: Wait for scheduler "sik0" with entities [EventEntity, EventEntity]
  1: 0x07C4 [0x00] END_REQSTACK()
```

### Event 65535.129

#### Metadata

| Field        | Value    |
|--------------|----------|
| Entrypoint   | 0x07C5   |
| Data Size    | 16 bytes |
| Instructions | 2        |

```
      00 01 02 03 04 05 06 07  08 09 0A 0B 0C 0D 0E 0F
      -- -- -- -- -- -- -- --  -- -- -- -- -- -- -- --
07C0:                5B 09 80  F8 FF FF 7F F8 FF FF 7F       [..........
07D0: 73 69 6B 31 00                                    sik1.           
```

#### Opcodes

```
  0: 0x07C5 [0x5B] LOAD_EXT_SCHEDULER: Load scheduler "sik1" with entities [EventEntity, EventEntity], work=624*
  1: 0x07D4 [0x00] END_REQSTACK()
```

### Event 65535.130

#### Metadata

| Field        | Value    |
|--------------|----------|
| Entrypoint   | 0x07D5   |
| Data Size    | 20 bytes |
| Instructions | 3        |

```
      00 01 02 03 04 05 06 07  08 09 0A 0B 0C 0D 0E 0F
      -- -- -- -- -- -- -- --  -- -- -- -- -- -- -- --
07D0:                53 F8 FF  FF 7F F8 FF FF 7F 73 69       S........si
07E0: 6B 31 7C 01 F8 FF FF 7F  00                       k1|......       
```

#### Opcodes

```
  0: 0x07D5 [0x53] WAIT_SCHEDULER_TASK: Wait for scheduler "sik1" with entities [EventEntity, EventEntity]
  1: 0x07E2 [0x7C] EventEntity->Render.Flags2 |= 0x01
  2: 0x07E8 [0x00] END_REQSTACK()
```

### Event 65535.131

#### Metadata

| Field        | Value    |
|--------------|----------|
| Entrypoint   | 0x07E9   |
| Data Size    | 22 bytes |
| Instructions | 3        |

```
      00 01 02 03 04 05 06 07  08 09 0A 0B 0C 0D 0E 0F
      -- -- -- -- -- -- -- --  -- -- -- -- -- -- -- --
07E0:                             7C 00 F8 FF FF 7F 5B           |.....[
07F0: 0E 80 F8 FF FF 7F F8 FF  FF 7F 77 61 76 65 00     ..........wave. 
```

#### Opcodes

```
  0: 0x07E9 [0x7C] EventEntity->Render.Flags2 |= 0x00
  1: 0x07EF [0x5B] LOAD_EXT_SCHEDULER: Load scheduler "wave" with entities [EventEntity, EventEntity], work=625*
  2: 0x07FE [0x00] END_REQSTACK()
```

### Event 65535.132

#### Metadata

| Field        | Value    |
|--------------|----------|
| Entrypoint   | 0x07FF   |
| Data Size    | 20 bytes |
| Instructions | 3        |

```
      00 01 02 03 04 05 06 07  08 09 0A 0B 0C 0D 0E 0F
      -- -- -- -- -- -- -- --  -- -- -- -- -- -- -- --
07F0:                                               53                 S
0800: F8 FF FF 7F F8 FF FF 7F  77 61 76 65 7C 01 F8 FF  ........wave|...
0810: FF 7F 00                                          ...             
```

#### Opcodes

```
  0: 0x07FF [0x53] WAIT_SCHEDULER_TASK: Wait for scheduler "wave" with entities [EventEntity, EventEntity]
  1: 0x080C [0x7C] EventEntity->Render.Flags2 |= 0x01
  2: 0x0812 [0x00] END_REQSTACK()
```

### Event 65535.133

#### Metadata

| Field        | Value    |
|--------------|----------|
| Entrypoint   | 0x0813   |
| Data Size    | 16 bytes |
| Instructions | 2        |

```
      00 01 02 03 04 05 06 07  08 09 0A 0B 0C 0D 0E 0F
      -- -- -- -- -- -- -- --  -- -- -- -- -- -- -- --
0810:          5B 0F 80 F8 FF  FF 7F F8 FF FF 7F 61 73     [..........as
0820: 30 30 00                                          00.             
```

#### Opcodes

```
  0: 0x0813 [0x5B] LOAD_EXT_SCHEDULER: Load scheduler "as00" with entities [EventEntity, EventEntity], work=613*
  1: 0x0822 [0x00] END_REQSTACK()
```

### Event 65535.134

#### Metadata

| Field        | Value    |
|--------------|----------|
| Entrypoint   | 0x0823   |
| Data Size    | 14 bytes |
| Instructions | 2        |

```
      00 01 02 03 04 05 06 07  08 09 0A 0B 0C 0D 0E 0F
      -- -- -- -- -- -- -- --  -- -- -- -- -- -- -- --
0820:          53 F8 FF FF 7F  F8 FF FF 7F 61 73 30 30     S........as00
0830: 00                                                .               
```

#### Opcodes

```
  0: 0x0823 [0x53] WAIT_SCHEDULER_TASK: Wait for scheduler "as00" with entities [EventEntity, EventEntity]
  1: 0x0830 [0x00] END_REQSTACK()
```

### Event 65535.135

#### Metadata

| Field        | Value    |
|--------------|----------|
| Entrypoint   | 0x0831   |
| Data Size    | 22 bytes |
| Instructions | 3        |

```
      00 01 02 03 04 05 06 07  08 09 0A 0B 0C 0D 0E 0F
      -- -- -- -- -- -- -- --  -- -- -- -- -- -- -- --
0830:    81 00 F8 FF FF 7F 5B  10 80 F8 FF FF 7F F8 FF   ......[........
0840: FF 7F 63 6C 32 30 00                              ..cl20.         
```

#### Opcodes

```
  0: 0x0831 [0x81] SET_ENTITY_BLINKING(blink_flag=0x00, entity=EventEntity)
  1: 0x0837 [0x5B] LOAD_EXT_SCHEDULER: Load scheduler "cl20" with entities [EventEntity, EventEntity], work=623*
  2: 0x0846 [0x00] END_REQSTACK()
```

### Event 65535.136

#### Metadata

| Field        | Value    |
|--------------|----------|
| Entrypoint   | 0x0847   |
| Data Size    | 14 bytes |
| Instructions | 2        |

```
      00 01 02 03 04 05 06 07  08 09 0A 0B 0C 0D 0E 0F
      -- -- -- -- -- -- -- --  -- -- -- -- -- -- -- --
0840:                      53  F8 FF FF 7F F8 FF FF 7F         S........
0850: 63 6C 32 30 00                                    cl20.           
```

#### Opcodes

```
  0: 0x0847 [0x53] WAIT_SCHEDULER_TASK: Wait for scheduler "cl20" with entities [EventEntity, EventEntity]
  1: 0x0854 [0x00] END_REQSTACK()
```

### Event 65535.137

#### Metadata

| Field        | Value    |
|--------------|----------|
| Entrypoint   | 0x0855   |
| Data Size    | 22 bytes |
| Instructions | 3        |

```
      00 01 02 03 04 05 06 07  08 09 0A 0B 0C 0D 0E 0F
      -- -- -- -- -- -- -- --  -- -- -- -- -- -- -- --
0850:                81 00 F8  FF FF 7F 5B 11 80 F8 FF       ......[....
0860: FF 7F F8 FF FF 7F 75 74  75 30 00                 ......utu0.     
```

#### Opcodes

```
  0: 0x0855 [0x81] SET_ENTITY_BLINKING(blink_flag=0x00, entity=EventEntity)
  1: 0x085B [0x5B] LOAD_EXT_SCHEDULER: Load scheduler "utu0" with entities [EventEntity, EventEntity], work=626*
  2: 0x086A [0x00] END_REQSTACK()
```

### Event 65535.138

#### Metadata

| Field        | Value    |
|--------------|----------|
| Entrypoint   | 0x086B   |
| Data Size    | 14 bytes |
| Instructions | 2        |

```
      00 01 02 03 04 05 06 07  08 09 0A 0B 0C 0D 0E 0F
      -- -- -- -- -- -- -- --  -- -- -- -- -- -- -- --
0860:                                   53 F8 FF FF 7F             S....
0870: F8 FF FF 7F 75 74 75 30  00                       ....utu0.       
```

#### Opcodes

```
  0: 0x086B [0x53] WAIT_SCHEDULER_TASK: Wait for scheduler "utu0" with entities [EventEntity, EventEntity]
  1: 0x0878 [0x00] END_REQSTACK()
```

### Event 65535.139

#### Metadata

| Field        | Value    |
|--------------|----------|
| Entrypoint   | 0x0879   |
| Data Size    | 22 bytes |
| Instructions | 3        |

```
      00 01 02 03 04 05 06 07  08 09 0A 0B 0C 0D 0E 0F
      -- -- -- -- -- -- -- --  -- -- -- -- -- -- -- --
0870:                             81 00 F8 FF FF 7F 5B           ......[
0880: 12 80 F8 FF FF 7F F8 FF  FF 7F 63 34 31 31 00     ..........c411. 
```

#### Opcodes

```
  0: 0x0879 [0x81] SET_ENTITY_BLINKING(blink_flag=0x00, entity=EventEntity)
  1: 0x087F [0x5B] LOAD_EXT_SCHEDULER: Load scheduler "c411" with entities [EventEntity, EventEntity], work=616*
  2: 0x088E [0x00] END_REQSTACK()
```

### Event 65535.140

#### Metadata

| Field        | Value    |
|--------------|----------|
| Entrypoint   | 0x088F   |
| Data Size    | 14 bytes |
| Instructions | 2        |

```
      00 01 02 03 04 05 06 07  08 09 0A 0B 0C 0D 0E 0F
      -- -- -- -- -- -- -- --  -- -- -- -- -- -- -- --
0880:                                               53                 S
0890: F8 FF FF 7F F8 FF FF 7F  75 74 75 30 00           ........utu0.   
```

#### Opcodes

```
  0: 0x088F [0x53] WAIT_SCHEDULER_TASK: Wait for scheduler "utu0" with entities [EventEntity, EventEntity]
  1: 0x089C [0x00] END_REQSTACK()
```

### Event 65535.141

#### Metadata

| Field        | Value   |
|--------------|---------|
| Entrypoint   | 0x089D  |
| Data Size    | 9 bytes |
| Instructions | 3       |

```
      00 01 02 03 04 05 06 07  08 09 0A 0B 0C 0D 0E 0F
      -- -- -- -- -- -- -- --  -- -- -- -- -- -- -- --
0890:                                         5E 69 64               ^id
08A0: 6C 30 1C 13 80 00                                 l0....          
```

#### Opcodes

```
  0: 0x089D [0x5E] EventEntity goes idle (kills current action) (animation: "idl0")
  1: 0x08A2 [0x1C] WAIT(30* ticks)
  2: 0x08A5 [0x00] END_REQSTACK()
```

### Event 10040

#### Metadata

| Field        | Value    |
|--------------|----------|
| Entrypoint   | 0x08A6   |
