# 17780981 - Domenic

## Common Data

| Field            | Value                 |
|------------------|-----------------------|
| Zone             | Lower Jeuno (ID: 245) |
| Block Size       | 1044 bytes            |
| Total Events     | 3                     |
| References Count | 23                    |

## List of Events

| Event ID              | Entrypoint   |   Size |   Instructions |
|-----------------------|--------------|--------|----------------|
| [65535](#event-65535) | 0x0000       |      1 |              1 |
| [10115](#event-10115) | 0x0001       |    252 |             64 |
| [10116](#event-10116) | 0x00FD       |    668 |             66 |

## DAT References (imed_data)

|   Index | Hex Value   |   Dec Value |
|---------|-------------|-------------|
|       0 | 0x2816      |       10262 |
|       1 | 0x2817      |       10263 |
|       2 | 0x2818      |       10264 |
|       3 | 0x0000      |           0 |
|       4 | 0x2819      |       10265 |
|       5 | 0x0001      |           1 |
|       6 | 0x02EE      |         750 |
|       7 | 0x0002      |           2 |
|       8 | 0x0003      |           3 |
|       9 | 0x0004      |           4 |
|      10 | 0x0005      |           5 |
|      11 | 0x03E8      |        1000 |
|      12 | 0x281D      |       10269 |
|      13 | 0x281A      |       10266 |
|      14 | 0x281B      |       10267 |
|      15 | 0x18FC      |        6396 |
|      16 | 0x281C      |       10268 |
|      17 | 0x2815      |       10261 |
|      18 | 0x00C8      |         200 |
|      19 | 0x00C9      |         201 |
|      20 | 0x002D      |          45 |
|      21 | 0x001E      |          30 |
|      22 | 0x00D7      |         215 |

## String References

- **6396**: You do not have enough gil.
- **10261**: Hm? I got no business with the likes of you. Now get outta here.
- **10262**: Psst, you. Yeah, you. I got a special deal for ya.
- **10263**: For a nominal fee, I can warp ya to some outta-the-way battlefield entrances. No questions asked. Mind ya, I don't do this for just anyone, so ya'd better appreciate it.
- **10264**: As for gettin' back, you're on yer own. I ain't runnin' a charity here, after all.
- **10265**: Where ya headin' today? [Nowhere./Ghelsba Outpost./Horlais Peak./Waughroon Shrine./Balga's Dais./Qu'Bia Arena.]
- **10266**: [/Ghelsba Outpost/Horlais Peak/Waughroon Shrine/Balga's Dais/Qu'Bia Arena], ya say? That'll run ya $1 gil. Whaddaya say?
- **10267**: Whaddaya say? (Current gil: $0) [Pay and teleport./On second thought...]
- **10268**: Alright, now we just gotta put this blindfold on ya. A businessman's gotta protect his trade secrets, after all...
- **10269**: ...Then whaddaya wastin' my time for? Get lost!

## Events

### Event 65535

#### Metadata

| Field        | Value   |
|--------------|---------|
| Entrypoint   | 0x0000  |
| Data Size    | 1 bytes |
| Instructions | 1       |

```
      00 01 02 03 04 05 06 07  08 09 0A 0B 0C 0D 0E 0F
      -- -- -- -- -- -- -- --  -- -- -- -- -- -- -- --
0000: 00                                                .               
```

#### Opcodes

```
  0: 0x0000 [0x00] END_REQSTACK()
```

### Event 10115

#### Metadata

| Field        | Value     |
|--------------|-----------|
| Entrypoint   | 0x0001    |
| Data Size    | 252 bytes |
| Instructions | 64        |

```
      00 01 02 03 04 05 06 07  08 09 0A 0B 0C 0D 0E 0F
      -- -- -- -- -- -- -- --  -- -- -- -- -- -- -- --
0000:    03 02 00 02 10 1E F0  FF FF 7F 1D 00 80 23 1D   .............#.
0010: 01 80 23 1D 02 80 23 06  00 00 02 00 00 03 80 00  ..#...#.........
0020: AE 00 24 04 80 03 80 03  80 25 02 00 10 05 80 00  ..$......%......
0030: 42 00 03 01 00 00 10 03  03 00 06 80 1A B0 00 01  B...............
0040: AB 00 02 00 10 07 80 00  5A 00 03 01 00 00 10 03  ........Z.......
0050: 03 00 06 80 1A B0 00 01  AB 00 02 00 10 08 80 00  ................
0060: 72 00 03 01 00 00 10 03  03 00 06 80 1A B0 00 01  r...............
0070: AB 00 02 00 10 09 80 00  8A 00 03 01 00 00 10 03  ................
0080: 03 00 06 80 1A B0 00 01  AB 00 02 00 10 0A 80 00  ................
0090: A2 00 03 01 00 00 10 03  03 00 0B 80 1A B0 00 01  ................
00A0: AB 00 1D 0C 80 23 03 00  00 05 80 01 1A 00 21 00  .....#........!.
00B0: 03 02 10 02 00 03 03 10  03 00 03 04 10 01 00 1D  ................
00C0: 0D 80 23 24 0E 80 05 80  03 80 25 02 00 10 03 80  ..#$......%.....
00D0: 00 FC 00 02 03 00 02 00  02 E7 00 48 0F 80 23 03  ...........H..#.
00E0: 00 00 05 80 01 F9 00 42  1D 10 80 23 1A 6B 01 03  .......B...#.k..
00F0: 00 00 05 80 03 01 10 01  00 01 FC 00 1B           .............   
```

#### Opcodes

```
  0: 0x0001 [0x03] ExtData[1]->WorkLocal[2] = Work_Zone[2]
  1: 0x0006 [0x1E] EventEntity looks at LocalPlayer and starts talking
  2: 0x000B [0x1D] PRINT_EVENT_MESSAGE(message_id=10262*)
    → "Psst, you. Yeah, you. I got a special deal for ya."
  3: 0x000E [0x23] WAIT_FOR_DIALOG_INTERACTION
  4: 0x000F [0x1D] PRINT_EVENT_MESSAGE(message_id=10263*)
    → "For a nominal fee, I can warp ya to some outta-the-way battlefield entrances. No questions asked. Mind ya, I don't do this for just anyone, so ya'd better appreciate it."
  5: 0x0012 [0x23] WAIT_FOR_DIALOG_INTERACTION
  6: 0x0013 [0x1D] PRINT_EVENT_MESSAGE(message_id=10264*)
    → "As for gettin' back, you're on yer own. I ain't runnin' a charity here, after all."
  7: 0x0016 [0x23] WAIT_FOR_DIALOG_INTERACTION
  8: 0x0017 [0x06] ExtData[1]->WorkLocal[0] = 0
  9: 0x001A [0x02] IF !(ExtData[1]->WorkLocal[0] == 0*) GOTO 0x00AE
 10: 0x0022 [0x24] CREATE_DIALOG(message_id=10265*, default_option=0*, option_flags=0*)
    → "Where ya headin' today? [Nowhere./Ghelsba Outpost./Horlais Peak./Waughroon Shrine./Balga's Dais./Qu'Bia Arena.]"
 11: 0x0029 [0x25] WAIT_DIALOG_SELECT()
 12: 0x002A [0x02] IF !(Work_Zone[0] == 1*) GOTO 0x0042
 13: 0x0032 [0x03] ExtData[1]->WorkLocal[1] = Work_Zone[0]
 14: 0x0037 [0x03] ExtData[1]->WorkLocal[3] = 750*
 15: 0x003C [0x1A] CALL_SUBROUTINE(address=0x00B0)
 16: 0x003F [0x01] GOTO 0x00AB
 17: 0x0042 [0x02] IF !(Work_Zone[0] == 2*) GOTO 0x005A
 18: 0x004A [0x03] ExtData[1]->WorkLocal[1] = Work_Zone[0]
 19: 0x004F [0x03] ExtData[1]->WorkLocal[3] = 750*
 20: 0x0054 [0x1A] CALL_SUBROUTINE(address=0x00B0)
 21: 0x0057 [0x01] GOTO 0x00AB
 22: 0x005A [0x02] IF !(Work_Zone[0] == 3*) GOTO 0x0072
 23: 0x0062 [0x03] ExtData[1]->WorkLocal[1] = Work_Zone[0]
 24: 0x0067 [0x03] ExtData[1]->WorkLocal[3] = 750*
 25: 0x006C [0x1A] CALL_SUBROUTINE(address=0x00B0)
 26: 0x006F [0x01] GOTO 0x00AB
 27: 0x0072 [0x02] IF !(Work_Zone[0] == 4*) GOTO 0x008A
 28: 0x007A [0x03] ExtData[1]->WorkLocal[1] = Work_Zone[0]
 29: 0x007F [0x03] ExtData[1]->WorkLocal[3] = 750*
 30: 0x0084 [0x1A] CALL_SUBROUTINE(address=0x00B0)
 31: 0x0087 [0x01] GOTO 0x00AB
 32: 0x008A [0x02] IF !(Work_Zone[0] == 5*) GOTO 0x00A2
 33: 0x0092 [0x03] ExtData[1]->WorkLocal[1] = Work_Zone[0]
 34: 0x0097 [0x03] ExtData[1]->WorkLocal[3] = 1000*
 35: 0x009C [0x1A] CALL_SUBROUTINE(address=0x00B0)
 36: 0x009F [0x01] GOTO 0x00AB
 37: 0x00A2 [0x1D] PRINT_EVENT_MESSAGE(message_id=10269*)
    → "...Then whaddaya wastin' my time for? Get lost!"
 38: 0x00A5 [0x23] WAIT_FOR_DIALOG_INTERACTION
 39: 0x00A6 [0x03] ExtData[1]->WorkLocal[0] = 1*

SUBROUTINE_00AB:
 40: 0x00AB [0x01] GOTO 0x001A
 41: 0x00AE [0x21] END_EVENT
 42: 0x00AF [0x00] END_REQSTACK()

SUBROUTINE_00B0:
 43: 0x00B0 [0x03] Work_Zone[2] = ExtData[1]->WorkLocal[2]
 44: 0x00B5 [0x03] Work_Zone[3] = ExtData[1]->WorkLocal[3]
 45: 0x00BA [0x03] Work_Zone[4] = ExtData[1]->WorkLocal[1]
 46: 0x00BF [0x1D] PRINT_EVENT_MESSAGE(message_id=10266*)
    → "[/Ghelsba Outpost/Horlais Peak/Waughroon Shrine/Balga's Dais/Qu'Bia Arena], ya say? That'll run ya $1 gil. Whaddaya say?"
 47: 0x00C2 [0x23] WAIT_FOR_DIALOG_INTERACTION
 48: 0x00C3 [0x24] CREATE_DIALOG(message_id=10267*, default_option=1*, option_flags=0*)
    → "Whaddaya say? (Current gil: $0) [Pay and teleport./On second thought...]"
 49: 0x00CA [0x25] WAIT_DIALOG_SELECT()
 50: 0x00CB [0x02] IF !(Work_Zone[0] == 0*) GOTO 0x00FC
 51: 0x00D3 [0x02] IF !(ExtData[1]->WorkLocal[3] <= ExtData[1]->WorkLocal[2]) GOTO 0x00E7
 52: 0x00DB [0x48] [System] [6396*]:
    → "You do not have enough gil."
 53: 0x00DE [0x23] WAIT_FOR_DIALOG_INTERACTION
 54: 0x00DF [0x03] ExtData[1]->WorkLocal[0] = 1*
 55: 0x00E4 [0x01] GOTO 0x00F9
 56: 0x00E7 [0x42] SET_CLI_EVENT_CANCEL_DATA()
 57: 0x00E8 [0x1D] PRINT_EVENT_MESSAGE(message_id=10268*)
    → "Alright, now we just gotta put this blindfold on ya. A businessman's gotta protect his trade secrets, after all..."
 58: 0x00EB [0x23] WAIT_FOR_DIALOG_INTERACTION
 59: 0x00EC [0x1A] CALL_SUBROUTINE(address=0x016B)
 60: 0x00EF [0x03] ExtData[1]->WorkLocal[0] = 1*
 61: 0x00F4 [0x03] Work_Zone[1] = ExtData[1]->WorkLocal[1]

SUBROUTINE_00F9:
 62: 0x00F9 [0x01] GOTO 0x00FC

SUBROUTINE_00FC:
 63: 0x00FC [0x1B] RETURN
```

### Event 10116

#### Metadata

| Field        | Value     |
|--------------|-----------|
| Entrypoint   | 0x00FD    |
| Data Size    | 668 bytes |
| Instructions | 5         |

```
      00 01 02 03 04 05 06 07  08 09 0A 0B 0C 0D 0E 0F
      -- -- -- -- -- -- -- --  -- -- -- -- -- -- -- --
00F0:                                         1E F0 FF               ...
0100: FF 7F 1D 11 80 23 21 00  45 12 80 F0 FF FF 7F F0  .....#!.E.......
0110: FF FF 7F 66 64 69 30 03  80 55 12 80 F0 FF FF 7F  ...fdi0..U......
0120: F0 FF FF 7F 66 64 69 30  1B 45 12 80 F0 FF FF 7F  ....fdi0.E......
0130: F0 FF FF 7F 66 64 6F 30  03 80 55 12 80 F0 FF FF  ....fdo0..U.....
0140: 7F F0 FF FF 7F 66 64 6F  30 1B 45 12 80 F0 FF FF  .....fdo0.E.....
0150: 7F F0 FF FF 7F 66 64 69  31 03 80 55 12 80 F0 FF  .....fdi1..U....
0160: FF 7F F0 FF FF 7F 66 64  69 31 1B 45 12 80 F0 FF  ......fdi1.E....
0170: FF 7F F0 FF FF 7F 66 64  6F 31 03 80 55 12 80 F0  ......fdo1..U...
0180: FF FF 7F F0 FF FF 7F 66  64 6F 31 1B 45 13 80 F0  .......fdo1.E...
0190: FF FF 7F F0 FF FF 7F 77  68 69 31 03 80 55 13 80  .......whi1..U..
01A0: F0 FF FF 7F F0 FF FF 7F  77 68 69 31 1B 45 13 80  ........whi1.E..
01B0: F0 FF FF 7F F0 FF FF 7F  77 68 6F 31 03 80 55 13  ........who1..U.
01C0: 80 F0 FF FF 7F F0 FF FF  7F 77 68 6F 31 1B 45 13  .........who1.E.
01D0: 80 F0 FF FF 7F F0 FF FF  7F 77 68 6F 32 03 80 55  .........who2..U
01E0: 13 80 F0 FF FF 7F F0 FF  FF 7F 77 68 6F 32 1B 45  ..........who2.E
01F0: 13 80 F0 FF FF 7F F0 FF  FF 7F 77 68 6F 33 03 80  ..........who3..
0200: 55 13 80 F0 FF FF 7F F0  FF FF 7F 77 68 6F 33 1B  U..........who3.
0210: 62 05 80 F0 FF FF 7F F0  FF FF 7F 6D 61 69 6E 03  b..........main.
0220: 80 1C 14 80 45 12 80 F0  FF FF 7F F0 FF FF 7F 66  ....E..........f
0230: 64 6F 31 03 80 55 12 80  F0 FF FF 7F F0 FF FF 7F  do1..U..........
0240: 66 64 6F 31 1B 45 12 80  F0 FF FF 7F F0 FF FF 7F  fdo1.E..........
0250: 66 64 69 31 03 80 62 07  80 F0 FF FF 7F F0 FF FF  fdi1..b.........
0260: 7F 6D 61 69 6E 03 80 1C  15 80 55 12 80 F0 FF FF  .main.....U.....
0270: 7F F0 FF FF 7F 66 64 69  31 1B 45 12 80 F0 FF FF  .....fdi1.E.....
0280: 7F F0 FF FF 7F 62 6C 6F  6E 03 80 45 13 80 F0 FF  .....blon..E....
0290: FF 7F F0 FF FF 7F 62 6C  6F 6E 03 80 1B 45 13 80  ......blon...E..
02A0: F0 FF FF 7F F0 FF FF 7F  77 68 69 30 03 80 55 13  ........whi0..U.
02B0: 80 F0 FF FF 7F F0 FF FF  7F 77 68 69 30 1B 45 13  .........whi0.E.
02C0: 80 F0 FF FF 7F F0 FF FF  7F 77 68 6F 30 03 80 55  .........who0..U
02D0: 13 80 F0 FF FF 7F F0 FF  FF 7F 77 68 6F 30 1B 45  ..........who0.E
02E0: 16 80 F0 FF FF 7F F0 FF  FF 7F 65 66 6F 6E 03 80  ..........efon..
02F0: 55 16 80 F0 FF FF 7F F0  FF FF 7F 65 66 6F 6E 1B  U..........efon.
0300: 45 12 80 F0 FF FF 7F F0  FF FF 7F 66 64 69 73 03  E..........fdis.
0310: 80 1B 45 12 80 F0 FF FF  7F F0 FF FF 7F 66 64 6F  ..E..........fdo
0320: 73 03 80 55 12 80 F0 FF  FF 7F F0 FF FF 7F 66 64  s..U..........fd
0330: 6F 73 1B 45 12 80 F0 FF  FF 7F F0 FF FF 7F 66 64  os.E..........fd
0340: 69 66 03 80 1B 45 12 80  F0 FF FF 7F F0 FF FF 7F  if...E..........
0350: 66 64 6F 66 03 80 55 12  80 F0 FF FF 7F F0 FF FF  fdof..U.........
0360: 7F 66 64 6F 66 1B 45 12  80 F0 FF FF 7F F0 FF FF  .fdof.E.........
0370: 7F 66 64 69 70 03 80 1B  45 12 80 F0 FF FF 7F F0  .fdip...E.......
0380: FF FF 7F 66 64 6F 70 03  80 55 12 80 F0 FF FF 7F  ...fdop..U......
0390: F0 FF FF 7F 66 64 6F 70  1B                       ....fdop.       
```

#### Opcodes

```
  0: 0x00FD [0x1E] EventEntity looks at LocalPlayer and starts talking
  1: 0x0102 [0x1D] PRINT_EVENT_MESSAGE(message_id=10261*)
    → "Hm? I got no business with the likes of you. Now get outta here."
  2: 0x0105 [0x23] WAIT_FOR_DIALOG_INTERACTION
  3: 0x0106 [0x21] END_EVENT
  4: 0x0107 [0x00] END_REQSTACK()
```

#### Data or dead code:

```
# Dead code (unreachable instructions):
     0x0108 [0x45] LOAD_SCHEDULED_TASK: Load scheduler "fdi0" with entities [LocalPlayer, LocalPlayer], work=[200*, 0*]
     0x0119 [0x55] WAIT_LOAD_SCHEDULER: Wait for scheduler "fdi0" with entities [LocalPlayer, LocalPlayer], work=200*
     0x0128 [0x1B] RETURN
     0x0129 [0x45] LOAD_SCHEDULED_TASK: Load scheduler "fdo0" with entities [LocalPlayer, LocalPlayer], work=[200*, 0*]
     0x013A [0x55] WAIT_LOAD_SCHEDULER: Wait for scheduler "fdo0" with entities [LocalPlayer, LocalPlayer], work=200*
     0x0149 [0x1B] RETURN
     0x014A [0x45] LOAD_SCHEDULED_TASK: Load scheduler "fdi1" with entities [LocalPlayer, LocalPlayer], work=[200*, 0*]
     0x015B [0x55] WAIT_LOAD_SCHEDULER: Wait for scheduler "fdi1" with entities [LocalPlayer, LocalPlayer], work=200*
     0x016A [0x1B] RETURN
     0x016B [0x45] LOAD_SCHEDULED_TASK: Load scheduler "fdo1" with entities [LocalPlayer, LocalPlayer], work=[200*, 0*]
     0x017C [0x55] WAIT_LOAD_SCHEDULER: Wait for scheduler "fdo1" with entities [LocalPlayer, LocalPlayer], work=200*
     0x018B [0x1B] RETURN
     0x018C [0x45] LOAD_SCHEDULED_TASK: Load scheduler "whi1" with entities [LocalPlayer, LocalPlayer], work=[201*, 0*]
     0x019D [0x55] WAIT_LOAD_SCHEDULER: Wait for scheduler "whi1" with entities [LocalPlayer, LocalPlayer], work=201*
     0x01AC [0x1B] RETURN
     0x01AD [0x45] LOAD_SCHEDULED_TASK: Load scheduler "who1" with entities [LocalPlayer, LocalPlayer], work=[201*, 0*]
     0x01BE [0x55] WAIT_LOAD_SCHEDULER: Wait for scheduler "who1" with entities [LocalPlayer, LocalPlayer], work=201*
     0x01CD [0x1B] RETURN
     0x01CE [0x45] LOAD_SCHEDULED_TASK: Load scheduler "who2" with entities [LocalPlayer, LocalPlayer], work=[201*, 0*]
     0x01DF [0x55] WAIT_LOAD_SCHEDULER: Wait for scheduler "who2" with entities [LocalPlayer, LocalPlayer], work=201*
     0x01EE [0x1B] RETURN
     0x01EF [0x45] LOAD_SCHEDULED_TASK: Load scheduler "who3" with entities [LocalPlayer, LocalPlayer], work=[201*, 0*]
     0x0200 [0x55] WAIT_LOAD_SCHEDULER: Wait for scheduler "who3" with entities [LocalPlayer, LocalPlayer], work=201*
     0x020F [0x1B] RETURN
     0x0210 [0x62] LOAD_EVENT_SCHEDULER: Load scheduler "main" with entities [LocalPlayer, LocalPlayer], work=[1*, 0*]
     0x0221 [0x1C] WAIT(45* ticks)
     0x0224 [0x45] LOAD_SCHEDULED_TASK: Load scheduler "fdo1" with entities [LocalPlayer, LocalPlayer], work=[200*, 0*]
     0x0235 [0x55] WAIT_LOAD_SCHEDULER: Wait for scheduler "fdo1" with entities [LocalPlayer, LocalPlayer], work=200*
     0x0244 [0x1B] RETURN
     0x0245 [0x45] LOAD_SCHEDULED_TASK: Load scheduler "fdi1" with entities [LocalPlayer, LocalPlayer], work=[200*, 0*]
     0x0256 [0x62] LOAD_EVENT_SCHEDULER: Load scheduler "main" with entities [LocalPlayer, LocalPlayer], work=[2*, 0*]
     0x0267 [0x1C] WAIT(30* ticks)
     0x026A [0x55] WAIT_LOAD_SCHEDULER: Wait for scheduler "fdi1" with entities [LocalPlayer, LocalPlayer], work=200*
     0x0279 [0x1B] RETURN
     0x027A [0x45] LOAD_SCHEDULED_TASK: Load scheduler "blon" with entities [LocalPlayer, LocalPlayer], work=[200*, 0*]
     0x028B [0x45] LOAD_SCHEDULED_TASK: Load scheduler "blon" with entities [LocalPlayer, LocalPlayer], work=[201*, 0*]
     0x029C [0x1B] RETURN
     0x029D [0x45] LOAD_SCHEDULED_TASK: Load scheduler "whi0" with entities [LocalPlayer, LocalPlayer], work=[201*, 0*]
     0x02AE [0x55] WAIT_LOAD_SCHEDULER: Wait for scheduler "whi0" with entities [LocalPlayer, LocalPlayer], work=201*
     0x02BD [0x1B] RETURN
     0x02BE [0x45] LOAD_SCHEDULED_TASK: Load scheduler "who0" with entities [LocalPlayer, LocalPlayer], work=[201*, 0*]
     0x02CF [0x55] WAIT_LOAD_SCHEDULER: Wait for scheduler "who0" with entities [LocalPlayer, LocalPlayer], work=201*
     0x02DE [0x1B] RETURN
     0x02DF [0x45] LOAD_SCHEDULED_TASK: Load scheduler "efon" with entities [LocalPlayer, LocalPlayer], work=[215*, 0*]
     0x02F0 [0x55] WAIT_LOAD_SCHEDULER: Wait for scheduler "efon" with entities [LocalPlayer, LocalPlayer], work=215*
     0x02FF [0x1B] RETURN
     0x0300 [0x45] LOAD_SCHEDULED_TASK: Load scheduler "fdis" with entities [LocalPlayer, LocalPlayer], work=[200*, 0*]
     0x0311 [0x1B] RETURN
     0x0312 [0x45] LOAD_SCHEDULED_TASK: Load scheduler "fdos" with entities [LocalPlayer, LocalPlayer], work=[200*, 0*]
     0x0323 [0x55] WAIT_LOAD_SCHEDULER: Wait for scheduler "fdos" with entities [LocalPlayer, LocalPlayer], work=200*
     0x0332 [0x1B] RETURN
     0x0333 [0x45] LOAD_SCHEDULED_TASK: Load scheduler "fdif" with entities [LocalPlayer, LocalPlayer], work=[200*, 0*]
     0x0344 [0x1B] RETURN
     0x0345 [0x45] LOAD_SCHEDULED_TASK: Load scheduler "fdof" with entities [LocalPlayer, LocalPlayer], work=[200*, 0*]
     0x0356 [0x55] WAIT_LOAD_SCHEDULER: Wait for scheduler "fdof" with entities [LocalPlayer, LocalPlayer], work=200*
     0x0365 [0x1B] RETURN
     0x0366 [0x45] LOAD_SCHEDULED_TASK: Load scheduler "fdip" with entities [LocalPlayer, LocalPlayer], work=[200*, 0*]
     0x0377 [0x1B] RETURN
     0x0378 [0x45] LOAD_SCHEDULED_TASK: Load scheduler "fdop" with entities [LocalPlayer, LocalPlayer], work=[200*, 0*]
     0x0389 [0x55] WAIT_LOAD_SCHEDULER: Wait for scheduler "fdop" with entities [LocalPlayer, LocalPlayer], work=200*
     0x0398 [0x1B] RETURN
```
