# 17780762 - Bluffnix

## Common Data

| Field            | Value                 |
|------------------|-----------------------|
| Zone             | Lower Jeuno (ID: 245) |
| Block Size       | 1616 bytes            |
| Total Events     | 7                     |
| References Count | 104                   |

## List of Events

| Event ID              | Entrypoint   |   Size |   Instructions |
|-----------------------|--------------|--------|----------------|
| [65535](#event-65535) | 0x0000       |      1 |              1 |
| [42](#event-42)       | 0x0001       |     51 |             18 |
| [43](#event-43)       | 0x0034       |    911 |            245 |
| [73](#event-73)       | 0x03C3       |    116 |             33 |
| [10056](#event-10056) | 0x0437       |     22 |             10 |
| [10077](#event-10077) | 0x044D       |     52 |             18 |
| [20070](#event-20070) | 0x0481       |      1 |              1 |

## DAT References (imed_data)

|   Index | Hex Value   |   Dec Value |
|---------|-------------|-------------|
|       0 | 0x0038      |          56 |
|       1 | 0x1DE2      |        7650 |
|       2 | 0x0033      |          51 |
|       3 | 0x1DE1      |        7649 |
|       4 | 0x1DC9      |        7625 |
|       5 | 0x0051      |          81 |
|       6 | 0x26B1      |        9905 |
|       7 | 0x40000000  |  1073741824 |
|       8 | 0x0000      |           0 |
|       9 | 0x0001      |           1 |
|      10 | 0x004C      |          76 |
|      11 | 0x26AB      |        9899 |
|      12 | 0x26AC      |        9900 |
|      13 | 0x1DCD      |        7629 |
|      14 | 0x1DCC      |        7628 |
|      15 | 0x1DCF      |        7631 |
|      16 | 0x001F      |          31 |
|      17 | 0x1DCB      |        7627 |
|      18 | 0x1DCA      |        7626 |
|      19 | 0x1DCE      |        7630 |
|      20 | 0x1DD4      |        7636 |
|      21 | 0x1DD3      |        7635 |
|      22 | 0x0350      |         848 |
|      23 | 0x028C      |         652 |
|      24 | 0x033A      |         826 |
|      25 | 0x0314      |         788 |
|      26 | 0x0024      |          36 |
|      27 | 0x1DD6      |        7638 |
|      28 | 0x1DD5      |        7637 |
|      29 | 0x0353      |         851 |
|      30 | 0x028D      |         653 |
|      31 | 0x033B      |         827 |
|      32 | 0x031E      |         798 |
|      33 | 0x0029      |          41 |
|      34 | 0x1DD8      |        7640 |
|      35 | 0x1DD7      |        7639 |
|      36 | 0x0357      |         855 |
|      37 | 0x02E9      |         745 |
|      38 | 0x033C      |         828 |
|      39 | 0x031D      |         797 |
|      40 | 0x002E      |          46 |
|      41 | 0x1DDA      |        7642 |
|      42 | 0x1DD9      |        7641 |
|      43 | 0x03A3      |         931 |
|      44 | 0x028E      |         654 |
|      45 | 0x033D      |         829 |
|      46 | 0x0328      |         808 |
|      47 | 0x1DDD      |        7645 |
|      48 | 0x1DDB      |        7643 |
|      49 | 0x1DDC      |        7644 |
|      50 | 0x0662      |        1634 |
|      51 | 0x0663      |        1635 |
|      52 | 0x0664      |        1636 |
|      53 | 0x0665      |        1637 |
|      54 | 0x1DE4      |        7652 |
|      55 | 0x1DE3      |        7651 |
|      56 | 0x06CA      |        1738 |
|      57 | 0x06CB      |        1739 |
|      58 | 0x06CC      |        1740 |
|      59 | 0x06CD      |        1741 |
|      60 | 0x003D      |          61 |
|      61 | 0x09E2      |        2530 |
|      62 | 0x028F      |         655 |
|      63 | 0x033E      |         830 |
|      64 | 0x032C      |         812 |
|      65 | 0x0042      |          66 |
|      66 | 0x09E1      |        2529 |
|      67 | 0x09E8      |        2536 |
|      68 | 0x09E9      |        2537 |
|      69 | 0x032D      |         813 |
|      70 | 0x0047      |          71 |
|      71 | 0x02EB      |         747 |
|      72 | 0x09EA      |        2538 |
|      73 | 0x0A90      |        2704 |
|      74 | 0x0AB7      |        2743 |
|      75 | 0x26AD      |        9901 |
|      76 | 0x26AE      |        9902 |
|      77 | 0x26AF      |        9903 |
|      78 | 0x06AF      |        1711 |
|      79 | 0x05B3      |        1459 |
|      80 | 0x0A91      |        2705 |
|      81 | 0x0AB8      |        2744 |
|      82 | 0x1DDE      |        7646 |
|      83 | 0x259D      |        9629 |
|      84 | 0x259E      |        9630 |
|      85 | 0x259F      |        9631 |
|      86 | 0x26B0      |        9904 |
|      87 | 0x1DDF      |        7647 |
|      88 | 0x1DD1      |        7633 |
|      89 | 0x1DD2      |        7634 |
|      90 | 0x1DD0      |        7632 |
|      91 | 0x1DE5      |        7653 |
|      92 | 0x1DE6      |        7654 |
|      93 | 0x1DE7      |        7655 |
|      94 | 0x1DE0      |        7648 |
|      95 | 0x00C9      |         201 |
|      96 | 0x250E      |        9486 |
|      97 | 0x001E      |          30 |
|      98 | 0x2517      |        9495 |
|      99 | 0x2518      |        9496 |
|     100 | 0x25A3      |        9635 |
|     101 | 0x25A4      |        9636 |
|     102 | 0x25A5      |        9637 |
|     103 | 0x25A6      |        9638 |

## String References

- **7625**: Gobbiebags are the bomb! They carry lotsa loot! Ya want one too, don'tcha?
- **7626**: Us Gobbies got bigger bags than you. Ya want one, don'tcha?
- **7627**: Hey, your bag's bigger than before, but compared to our gobbiebags, it's still puny. You jealous, right?
- **7628**: Whoa, your bag's just as big as our gobbiebags! Wait a minute... You ain't thinkin' what I think you're thinkin', are ya?
- **7629**: Well, well, well... If it isn't the local Greedalox and [his/her] big bag. Wait a minute... You ain't thinkin' what I think you're thinkin', are ya?
- **7630**: I bet you want a bigger bag, don'tcha? [Yes, very much./Not at all.]
- **7631**: I bet you want a bigger bag, don'tcha? [Yes, very much./Not at all.]
- **7632**: No? And here I was, thinkin' I might bump up your bag size. Too bad!
- **7633**: Finally come to your senses, huh? It's about time! We Gobs have an old saying...
- **7634**: "If ya don't use it, sell it! If ya don't want it, sell it! If ya can't sell it, eat it!" Ya got it?
- **7635**: Oh, yeah? Well, hook me up with these, and I'll bump up your bag size a smidgen.
- **7636**: You like the gobbiebags, don'tcha? I'll tell ya what. Hook me up with these, and I'll bump up your bag size a smidgen.
- **7637**: Hook me up with these, and I'll bump up your bag size some more.
- **7638**: You like the gobbiebags, don'tcha? Well, hook me up with these, and I'll bump up your bag size some more.
- **7639**: Well, hook me up with these, and I'll max out your bag size.
- **7640**: You like the gobbiebags, don'tcha? Well, hook me up with these, and I'll max out your bag size.
- **7641**: Well, hook me up with these, and I'll make your bag as big as a gobbiebag.
- **7642**: You like the gobbiebags, don'tcha? Well, hook me up with these, and I'll make your bag as big as a gobbiebag.
- **7643**: We Gobs have an old saying: "If ya don't use it, sell it! If ya don't want it, sell it! If ya can't sell it, eat it!"
- **7644**: We call Gobs that don't live by that rule, "Greedaloxes." Ya sure smell like a Greedalox, but you ain't a Gob, so I guess our rules don't apply.
- **7645**: You hook me up with the following goods, and I'll whip ya together a bag so big you'll be able to haul your grandma around in it!
- **7646**: I want $0, $1, $2, and $3.
- **7647**: Bring 'em to me and I'll make your bag bigger. But I ain't gonna tell ya how it's done. Ancient Gobbie secret!
- **7648**: There you go, pal. Bigger bag for ya. It still don't compare to gobbiebags, though.
- **7649**: Hey, your bag's as big as ours... I don't think I like that one bit.
- **7650**: That's one mighty big bag you've got there... We Gobs don't like Greedaloxes one bit!
- **7651**: You people are all the same--Greedaloxes! The whole stinkin' lot of ya! But, ya know, I never can turn down a tasty business proposal.
- **7652**: You hook me up with the following goods, and I'll throw ya together a bag so big, it can double as a summer home!
- **7653**: So, ya want me to bag that bag of yours bigger in exchange for this? How'd ya know what we goblins like?
- **7654**: We goblins aren't inta that kinda trading. Not like the lot of ya, with all your stuff and your things.
- **7655**: ...Okay, but just this once.
- **9486**: <Player>'s badge flashes brightly.
- **9495**: You have shiny badge.
- **9496**: I don't have shiny badge. Very, very sad.
- **9629**: Bring 'em to me and I'll make your bag bigger.
- **9630**: Don't know where on Vana'diel you're going to find most of those goodies, but I'm bettin' a Greedalox the likes of yourself'll find a way.
- **9631**: Oh, and in case ya start gettin' the strange idea that after six or seven fixes you and me are buddies...stuff it! I still ain't gonna tell ya how I make your bag bigger. Ancient Gobbie secret!
- **9635**: Hey, buddy. You hear about those cavernous maws?
- **9636**: Heard of the cavernous maws? [Hasn't everyone?/Cavernous...what?]
- **9637**: You've seen one of 'em? They make me think of the song me grandgobbie used to sing about the Mawed One.
- **9638**: You've never seen one? Bah, why am I even talkin' to you?
- **9899**: Oh, lookie who's back. What's eatin' ya, Greedalox? Lemme guess. We made ya our biggest, baddest gobbiebag and you went out and filled the whole darn thing up. You did, didn'tcha?
- **9900**: Your bag full? [Full to bursting./Nope, still got room.]
- **9901**: I knew it. I was tellin' my buddy Gobs that you weren't no ordinary Greedalox, no siree. No, you're a junk-packin' legend. A true king o'clutter. The legendary..."Grand Greedalox"! Just standin' in front o' you here sends a chill up my Gobbie spine...
- **9902**: Okay, listen. We Gobbies got one more trick up our sleeves. Our final, ultimate, bag-bolsterin' technique.
- **9903**: Tell ya what. You go hunt down the goods I ask ya for, and I'll whip ya up a bag so brain-burstin'ly big that you can build a castle inside and found yerself a whole nation of Greedaloxes!
- **9904**: Now, I warn ya. This stuff is the rarest of the rare, some seriously primo loot, so don't think you'll be findin' any of 'em easily. But if you're the Grand Greedalox I'm thinkin' you are, you can do it.
- **9905**: Whoa...wh-wh-whoa! Your bag's bigger than any gobbiebag I've ever seen. But that's why you're the Grand Greedalox, after all. Still not big enough, you say? Amazing. The legend continues...

## Events

### Event 65535

#### Metadata

| Field        | Value   |
|--------------|---------|
| Entrypoint   | 0x0000  |
| Data Size    | 1 bytes |
| Instructions | 1       |

```
      00 01 02 03 04 05 06 07  08 09 0A 0B 0C 0D 0E 0F
      -- -- -- -- -- -- -- --  -- -- -- -- -- -- -- --
0000: 00                                                .               
```

#### Opcodes

```
  0: 0x0000 [0x00] END_REQSTACK()
```

### Event 42

#### Metadata

| Field        | Value    |
|--------------|----------|
| Entrypoint   | 0x0001   |
| Data Size    | 51 bytes |
| Instructions | 18       |

```
      00 01 02 03 04 05 06 07  08 09 0A 0B 0C 0D 0E 0F
      -- -- -- -- -- -- -- --  -- -- -- -- -- -- -- --
0000:    03 00 00 02 10 20 01  42 1E F0 FF FF 7F 6F 70   ..... .B.....op
0010: 02 00 00 00 80 04 1F 00  1D 01 80 23 01 32 00 02  ...........#.2..
0020: 00 00 02 80 04 2E 00 1D  03 80 23 01 32 00 1D 04  ..........#.2...
0030: 80 23 21 00                                       .#!.            
```

#### Opcodes

```
  0: 0x0001 [0x03] ExtData[1]->WorkLocal[0] = Work_Zone[2]
  1: 0x0006 [0x20] SET_CLI_EVENT_UC_FLAG: Lock player control
  2: 0x0008 [0x42] SET_CLI_EVENT_CANCEL_DATA()
  3: 0x0009 [0x1E] EventEntity looks at LocalPlayer and starts talking
  4: 0x000E [0x6F] WAIT_FRAME_DELAY: Yield until WaitTime reaches zero
  5: 0x000F [0x70] WAIT_ENTITY_RENDER_FLAG: Wait while EventEntity->Render.Flags3 bit 2 is set (cancel turn if not)
  6: 0x0010 [0x02] IF !(ExtData[1]->WorkLocal[0] < 56*) GOTO 0x001F
  7: 0x0018 [0x1D] PRINT_EVENT_MESSAGE(message_id=7650*)
    → "That's one mighty big bag you've got there... We Gobs don't like Greedaloxes one bit!"
  8: 0x001B [0x23] WAIT_FOR_DIALOG_INTERACTION
  9: 0x001C [0x01] GOTO 0x0032
 10: 0x001F [0x02] IF !(ExtData[1]->WorkLocal[0] < 51*) GOTO 0x002E
 11: 0x0027 [0x1D] PRINT_EVENT_MESSAGE(message_id=7649*)
    → "Hey, your bag's as big as ours... I don't think I like that one bit."
 12: 0x002A [0x23] WAIT_FOR_DIALOG_INTERACTION
 13: 0x002B [0x01] GOTO 0x0032
 14: 0x002E [0x1D] PRINT_EVENT_MESSAGE(message_id=7625*)
    → "Gobbiebags are the bomb! They carry lotsa loot! Ya want one too, don'tcha?"
 15: 0x0031 [0x23] WAIT_FOR_DIALOG_INTERACTION

SUBROUTINE_0032:
 16: 0x0032 [0x21] END_EVENT
 17: 0x0033 [0x00] END_REQSTACK()
```

### Event 43

#### Metadata

| Field        | Value     |
|--------------|-----------|
| Entrypoint   | 0x0034    |
| Data Size    | 911 bytes |
| Instructions | 230       |

```
      00 01 02 03 04 05 06 07  08 09 0A 0B 0C 0D 0E 0F
      -- -- -- -- -- -- -- --  -- -- -- -- -- -- -- --
0030:             03 00 00 02  10 03 01 00 03 10 03 02      ............
0040: 00 04 10 1E F0 FF FF 7F  6F 70 02 00 00 05 80 00  ........op......
0050: 70 00 02 00 00 05 80 00  61 00 1D 06 80 23 01 65  p.......a....#.e
0060: 00 1D 01 80 23 03 01 10  07 80 01 C1 03 01 C1 03  ....#...........
0070: 02 02 00 08 80 00 A2 00  02 00 00 00 80 04 87 00  ................
0080: 1D 01 80 23 01 9A 00 02  00 00 02 80 04 96 00 1D  ...#............
0090: 03 80 23 01 9A 00 1D 04  80 23 03 01 10 07 80 01  ..#......#......
00A0: C1 03 02 01 00 09 80 00  AD 00 01 31 01 02 00 00  ...........1....
00B0: 02 80 04 03 01 02 00 00  00 80 04 E9 00 02 00 00  ................
00C0: 0A 80 04 E2 00 1D 0B 80  23 24 0C 80 09 80 08 80  ........#$......
00D0: 25 02 00 10 08 80 00 DC  00 01 DC 00 01 29 01 01  %............)..
00E0: E6 00 1D 0D 80 23 01 ED  00 1D 0E 80 23 24 0F 80  .....#......#$..
00F0: 09 80 08 80 25 02 00 10  08 80 00 00 01 01 00 01  ....%...........
0100: 01 29 01 02 00 00 10 80  02 12 01 1D 11 80 23 01  .)............#.
0110: 16 01 1D 12 80 23 24 13  80 09 80 08 80 25 02 00  .....#$......%..
0120: 10 08 80 00 29 01 01 29  01 02 00 10 08 80 80 9A  ....)..)........
0130: 03 02 00 00 10 80 80 64  01 02 01 00 09 80 00 48  .......d.......H
0140: 01 1D 14 80 23 01 4D 01  42 1D 15 80 23 03 02 10  ....#.M.B...#...
0150: 16 80 03 03 10 17 80 03  04 10 18 80 03 05 10 19  ................
0160: 80 01 37 03 02 00 00 1A  80 80 97 01 02 01 00 09  ..7.............
0170: 80 00 7B 01 1D 1B 80 23  01 80 01 42 1D 1C 80 23  ..{....#...B...#
0180: 03 02 10 1D 80 03 03 10  1E 80 03 04 10 1F 80 03  ................
0190: 05 10 20 80 01 37 03 02  00 00 21 80 80 CA 01 02  .. ..7....!.....
01A0: 01 00 09 80 00 AE 01 1D  22 80 23 01 B3 01 42 1D  ........".#...B.
01B0: 23 80 23 03 02 10 24 80  03 03 10 25 80 03 04 10  #.#...$....%....
01C0: 26 80 03 05 10 27 80 01  37 03 02 00 00 28 80 80  &....'..7....(..
01D0: FD 01 02 01 00 09 80 00  E1 01 1D 29 80 23 01 E6  ...........).#..
01E0: 01 42 1D 2A 80 23 03 02  10 2B 80 03 03 10 2C 80  .B.*.#...+....,.
01F0: 03 04 10 2D 80 03 05 10  2E 80 01 37 03 02 00 00  ...-.......7....
0200: 02 80 80 34 02 02 01 00  09 80 00 14 02 1D 2F 80  ...4........../.
0210: 23 01 1D 02 42 1D 30 80  23 1D 31 80 23 03 02 10  #...B.0.#.1.#...
0220: 32 80 03 03 10 33 80 03  04 10 34 80 03 05 10 35  2....3....4....5
0230: 80 01 37 03 02 00 00 00  80 80 67 02 02 01 00 09  ..7.......g.....
0240: 80 00 4B 02 1D 36 80 23  01 50 02 42 1D 37 80 23  ..K..6.#.P.B.7.#
0250: 03 02 10 38 80 03 03 10  39 80 03 04 10 3A 80 03  ...8....9....:..
0260: 05 10 3B 80 01 37 03 02  00 00 3C 80 80 9A 02 02  ..;..7....<.....
0270: 01 00 09 80 00 7E 02 1D  36 80 23 01 83 02 42 1D  .....~..6.#...B.
0280: 37 80 23 03 02 10 3D 80  03 03 10 3E 80 03 04 10  7.#...=....>....
0290: 3F 80 03 05 10 40 80 01  37 03 02 00 00 41 80 80  ?....@..7....A..
02A0: CD 02 02 01 00 09 80 00  B1 02 1D 36 80 23 01 B6  ...........6.#..
02B0: 02 42 1D 37 80 23 03 02  10 42 80 03 03 10 43 80  .B.7.#...B....C.
02C0: 03 04 10 44 80 03 05 10  45 80 01 37 03 02 00 00  ...D....E..7....
02D0: 46 80 80 00 03 02 01 00  09 80 00 E4 02 1D 36 80  F.............6.
02E0: 23 01 E9 02 42 1D 37 80  23 03 02 10 47 80 03 03  #...B.7.#...G...
02F0: 10 48 80 03 04 10 49 80  03 05 10 4A 80 01 37 03  .H....I....J..7.
0300: 02 00 00 0A 80 80 37 03  02 01 00 09 80 00 13 03  ......7.........
0310: 01 1C 03 42 1D 4B 80 23  1D 4C 80 23 1D 4D 80 23  ...B.K.#.L.#.M.#
0320: 03 02 10 4E 80 03 03 10  4F 80 03 04 10 50 80 03  ...N....O....P..
0330: 05 10 51 80 01 37 03 1D  52 80 23 02 00 00 3C 80  ..Q..7..R.#...<.
0340: 80 52 03 1D 53 80 23 1D  54 80 23 1D 55 80 23 01  .R..S.#.T.#.U.#.
0350: 97 03 02 00 00 41 80 80  69 03 1D 53 80 23 1D 54  .....A..i..S.#.T
0360: 80 23 1D 55 80 23 01 97  03 02 00 00 46 80 80 80  .#.U.#......F...
0370: 03 1D 53 80 23 1D 54 80  23 1D 55 80 23 01 97 03  ..S.#.T.#.U.#...
0380: 02 00 00 0A 80 80 93 03  1D 53 80 23 1D 56 80 23  .........S.#.V.#
0390: 01 97 03 1D 57 80 23 01  C1 03 02 00 10 09 80 80  ....W.#.........
03A0: C1 03 02 00 00 00 80 04  B5 03 1D 58 80 23 1D 59  ...........X.#.Y
03B0: 80 23 01 B9 03 1D 5A 80  23 03 01 10 07 80 01 C1  .#....Z.#.......
03C0: 03 21 00                                          .!.             
```

#### Opcodes

```
  0: 0x0034 [0x03] ExtData[1]->WorkLocal[0] = Work_Zone[2]
  1: 0x0039 [0x03] ExtData[1]->WorkLocal[1] = Work_Zone[3]
  2: 0x003E [0x03] ExtData[1]->WorkLocal[2] = Work_Zone[4]
  3: 0x0043 [0x1E] EventEntity looks at LocalPlayer and starts talking
  4: 0x0048 [0x6F] WAIT_FRAME_DELAY: Yield until WaitTime reaches zero
  5: 0x0049 [0x70] WAIT_ENTITY_RENDER_FLAG: Wait while EventEntity->Render.Flags3 bit 2 is set (cancel turn if not)
  6: 0x004A [0x02] IF !(ExtData[1]->WorkLocal[0] == 81*) GOTO 0x0070
  7: 0x0052 [0x02] IF !(ExtData[1]->WorkLocal[0] == 81*) GOTO 0x0061
  8: 0x005A [0x1D] PRINT_EVENT_MESSAGE(message_id=9905*)
    → "Whoa...wh-wh-whoa! Your bag's bigger than any gobbiebag I've ever seen. But that's why you're the Grand Greedalox, after all. Still not big enough, you say? Amazing. The legend continues..."
  9: 0x005D [0x23] WAIT_FOR_DIALOG_INTERACTION
 10: 0x005E [0x01] GOTO 0x0065
 11: 0x0061 [0x1D] PRINT_EVENT_MESSAGE(message_id=7650*)
    → "That's one mighty big bag you've got there... We Gobs don't like Greedaloxes one bit!"
 12: 0x0064 [0x23] WAIT_FOR_DIALOG_INTERACTION

SUBROUTINE_0065:
 13: 0x0065 [0x03] Work_Zone[1] = 1073741824*
 14: 0x006A [0x01] GOTO 0x03C1

SUBROUTINE_009A:
 15: 0x009A [0x03] Work_Zone[1] = 1073741824*
 16: 0x009F [0x01] GOTO 0x03C1
 17: 0x00A2 [0x02] IF !(ExtData[1]->WorkLocal[1] == 1*) GOTO 0x00AD
 18: 0x00AA [0x01] GOTO 0x0131
 19: 0x00AD [0x02] IF !(ExtData[1]->WorkLocal[0] < 51*) GOTO 0x0103
 20: 0x00B5 [0x02] IF !(ExtData[1]->WorkLocal[0] < 56*) GOTO 0x00E9
 21: 0x00BD [0x02] IF !(ExtData[1]->WorkLocal[0] < 76*) GOTO 0x00E2
 22: 0x00C5 [0x1D] PRINT_EVENT_MESSAGE(message_id=9899*)
    → "Oh, lookie who's back. What's eatin' ya, Greedalox? Lemme guess. We made ya our biggest, baddest gobbiebag and you went out and filled the whole darn thing up. You did, didn'tcha?"
 23: 0x00C8 [0x23] WAIT_FOR_DIALOG_INTERACTION
 24: 0x00C9 [0x24] CREATE_DIALOG(message_id=9900*, default_option=1*, option_flags=0*)
    → "Your bag full? [Full to bursting./Nope, still got room.]"
 25: 0x00D0 [0x25] WAIT_DIALOG_SELECT()
 26: 0x00D1 [0x02] IF !(Work_Zone[0] == 0*) GOTO 0x00DC
 27: 0x00D9 [0x01] GOTO 0x00DC

SUBROUTINE_00DC:
 28: 0x00DC [0x01] GOTO 0x0129

SUBROUTINE_00E6:
 29: 0x00E6 [0x01] GOTO 0x00ED
 30: 0x00E9 [0x1D] PRINT_EVENT_MESSAGE(message_id=7628*)
    → "Whoa, your bag's just as big as our gobbiebags! Wait a minute... You ain't thinkin' what I think you're thinkin', are ya?"
 31: 0x00EC [0x23] WAIT_FOR_DIALOG_INTERACTION

SUBROUTINE_00ED:
 32: 0x00ED [0x24] CREATE_DIALOG(message_id=7631*, default_option=1*, option_flags=0*)
    → "I bet you want a bigger bag, don'tcha? [Yes, very much./Not at all.]"
 33: 0x00F4 [0x25] WAIT_DIALOG_SELECT()
 34: 0x00F5 [0x02] IF !(Work_Zone[0] == 0*) GOTO 0x0100
 35: 0x00FD [0x01] GOTO 0x0100

SUBROUTINE_0100:
 36: 0x0100 [0x01] GOTO 0x0129
 37: 0x0103 [0x02] IF !(ExtData[1]->WorkLocal[0] <= 31*) GOTO 0x0112
 38: 0x010B [0x1D] PRINT_EVENT_MESSAGE(message_id=7627*)
    → "Hey, your bag's bigger than before, but compared to our gobbiebags, it's still puny. You jealous, right?"
 39: 0x010E [0x23] WAIT_FOR_DIALOG_INTERACTION
 40: 0x010F [0x01] GOTO 0x0116
 41: 0x0112 [0x1D] PRINT_EVENT_MESSAGE(message_id=7626*)
    → "Us Gobbies got bigger bags than you. Ya want one, don'tcha?"
 42: 0x0115 [0x23] WAIT_FOR_DIALOG_INTERACTION

SUBROUTINE_0116:
 43: 0x0116 [0x24] CREATE_DIALOG(message_id=7630*, default_option=1*, option_flags=0*)
    → "I bet you want a bigger bag, don'tcha? [Yes, very much./Not at all.]"
 44: 0x011D [0x25] WAIT_DIALOG_SELECT()
 45: 0x011E [0x02] IF !(Work_Zone[0] == 0*) GOTO 0x0129
 46: 0x0126 [0x01] GOTO 0x0129

SUBROUTINE_0129:
 47: 0x0129 [0x02] IF !(Work_Zone[0] == 0*) GOTO 0x039A

SUBROUTINE_0131:
 48: 0x0131 [0x02] IF !(ExtData[1]->WorkLocal[0] == 31*) GOTO 0x0164
 49: 0x0139 [0x02] IF !(ExtData[1]->WorkLocal[1] == 1*) GOTO 0x0148
 50: 0x0141 [0x1D] PRINT_EVENT_MESSAGE(message_id=7636*)
    → "You like the gobbiebags, don'tcha? I'll tell ya what. Hook me up with these, and I'll bump up your bag size a smidgen."
 51: 0x0144 [0x23] WAIT_FOR_DIALOG_INTERACTION
 52: 0x0145 [0x01] GOTO 0x014D
 53: 0x0148 [0x42] SET_CLI_EVENT_CANCEL_DATA()
 54: 0x0149 [0x1D] PRINT_EVENT_MESSAGE(message_id=7635*)
    → "Oh, yeah? Well, hook me up with these, and I'll bump up your bag size a smidgen."
 55: 0x014C [0x23] WAIT_FOR_DIALOG_INTERACTION

SUBROUTINE_014D:
 56: 0x014D [0x03] Work_Zone[2] = 848*
 57: 0x0152 [0x03] Work_Zone[3] = 652*
 58: 0x0157 [0x03] Work_Zone[4] = 826*
 59: 0x015C [0x03] Work_Zone[5] = 788*
 60: 0x0161 [0x01] GOTO 0x0337
 61: 0x0164 [0x02] IF !(ExtData[1]->WorkLocal[0] == 36*) GOTO 0x0197
 62: 0x016C [0x02] IF !(ExtData[1]->WorkLocal[1] == 1*) GOTO 0x017B
 63: 0x0174 [0x1D] PRINT_EVENT_MESSAGE(message_id=7638*)
    → "You like the gobbiebags, don'tcha? Well, hook me up with these, and I'll bump up your bag size some more."
 64: 0x0177 [0x23] WAIT_FOR_DIALOG_INTERACTION
 65: 0x0178 [0x01] GOTO 0x0180
 66: 0x017B [0x42] SET_CLI_EVENT_CANCEL_DATA()
 67: 0x017C [0x1D] PRINT_EVENT_MESSAGE(message_id=7637*)
    → "Hook me up with these, and I'll bump up your bag size some more."
 68: 0x017F [0x23] WAIT_FOR_DIALOG_INTERACTION

SUBROUTINE_0180:
 69: 0x0180 [0x03] Work_Zone[2] = 851*
 70: 0x0185 [0x03] Work_Zone[3] = 653*
 71: 0x018A [0x03] Work_Zone[4] = 827*
 72: 0x018F [0x03] Work_Zone[5] = 798*
 73: 0x0194 [0x01] GOTO 0x0337
 74: 0x0197 [0x02] IF !(ExtData[1]->WorkLocal[0] == 41*) GOTO 0x01CA
 75: 0x019F [0x02] IF !(ExtData[1]->WorkLocal[1] == 1*) GOTO 0x01AE
 76: 0x01A7 [0x1D] PRINT_EVENT_MESSAGE(message_id=7640*)
    → "You like the gobbiebags, don'tcha? Well, hook me up with these, and I'll max out your bag size."
 77: 0x01AA [0x23] WAIT_FOR_DIALOG_INTERACTION
 78: 0x01AB [0x01] GOTO 0x01B3
 79: 0x01AE [0x42] SET_CLI_EVENT_CANCEL_DATA()
 80: 0x01AF [0x1D] PRINT_EVENT_MESSAGE(message_id=7639*)
    → "Well, hook me up with these, and I'll max out your bag size."
 81: 0x01B2 [0x23] WAIT_FOR_DIALOG_INTERACTION

SUBROUTINE_01B3:
 82: 0x01B3 [0x03] Work_Zone[2] = 855*
 83: 0x01B8 [0x03] Work_Zone[3] = 745*
 84: 0x01BD [0x03] Work_Zone[4] = 828*
 85: 0x01C2 [0x03] Work_Zone[5] = 797*
 86: 0x01C7 [0x01] GOTO 0x0337
 87: 0x01CA [0x02] IF !(ExtData[1]->WorkLocal[0] == 46*) GOTO 0x01FD
 88: 0x01D2 [0x02] IF !(ExtData[1]->WorkLocal[1] == 1*) GOTO 0x01E1
 89: 0x01DA [0x1D] PRINT_EVENT_MESSAGE(message_id=7642*)
    → "You like the gobbiebags, don'tcha? Well, hook me up with these, and I'll make your bag as big as a gobbiebag."
 90: 0x01DD [0x23] WAIT_FOR_DIALOG_INTERACTION
 91: 0x01DE [0x01] GOTO 0x01E6
 92: 0x01E1 [0x42] SET_CLI_EVENT_CANCEL_DATA()
 93: 0x01E2 [0x1D] PRINT_EVENT_MESSAGE(message_id=7641*)
    → "Well, hook me up with these, and I'll make your bag as big as a gobbiebag."
 94: 0x01E5 [0x23] WAIT_FOR_DIALOG_INTERACTION

SUBROUTINE_01E6:
 95: 0x01E6 [0x03] Work_Zone[2] = 931*
 96: 0x01EB [0x03] Work_Zone[3] = 654*
 97: 0x01F0 [0x03] Work_Zone[4] = 829*
 98: 0x01F5 [0x03] Work_Zone[5] = 808*
 99: 0x01FA [0x01] GOTO 0x0337
100: 0x01FD [0x02] IF !(ExtData[1]->WorkLocal[0] == 51*) GOTO 0x0234
101: 0x0205 [0x02] IF !(ExtData[1]->WorkLocal[1] == 1*) GOTO 0x0214
102: 0x020D [0x1D] PRINT_EVENT_MESSAGE(message_id=7645*)
    → "You hook me up with the following goods, and I'll whip ya together a bag so big you'll be able to haul your grandma around in it!"
103: 0x0210 [0x23] WAIT_FOR_DIALOG_INTERACTION
104: 0x0211 [0x01] GOTO 0x021D
105: 0x0214 [0x42] SET_CLI_EVENT_CANCEL_DATA()
106: 0x0215 [0x1D] PRINT_EVENT_MESSAGE(message_id=7643*)
    → "We Gobs have an old saying: "If ya don't use it, sell it! If ya don't want it, sell it! If ya can't sell it, eat it!""
107: 0x0218 [0x23] WAIT_FOR_DIALOG_INTERACTION
108: 0x0219 [0x1D] PRINT_EVENT_MESSAGE(message_id=7644*)
    → "We call Gobs that don't live by that rule, "Greedaloxes." Ya sure smell like a Greedalox, but you ain't a Gob, so I guess our rules don't apply."
109: 0x021C [0x23] WAIT_FOR_DIALOG_INTERACTION

SUBROUTINE_021D:
110: 0x021D [0x03] Work_Zone[2] = 1634*
111: 0x0222 [0x03] Work_Zone[3] = 1635*
112: 0x0227 [0x03] Work_Zone[4] = 1636*
113: 0x022C [0x03] Work_Zone[5] = 1637*
114: 0x0231 [0x01] GOTO 0x0337
115: 0x0234 [0x02] IF !(ExtData[1]->WorkLocal[0] == 56*) GOTO 0x0267
116: 0x023C [0x02] IF !(ExtData[1]->WorkLocal[1] == 1*) GOTO 0x024B
117: 0x0244 [0x1D] PRINT_EVENT_MESSAGE(message_id=7652*)
    → "You hook me up with the following goods, and I'll throw ya together a bag so big, it can double as a summer home!"
118: 0x0247 [0x23] WAIT_FOR_DIALOG_INTERACTION
119: 0x0248 [0x01] GOTO 0x0250
120: 0x024B [0x42] SET_CLI_EVENT_CANCEL_DATA()
121: 0x024C [0x1D] PRINT_EVENT_MESSAGE(message_id=7651*)
    → "You people are all the same--Greedaloxes! The whole stinkin' lot of ya! But, ya know, I never can turn down a tasty business proposal."
122: 0x024F [0x23] WAIT_FOR_DIALOG_INTERACTION

SUBROUTINE_0250:
123: 0x0250 [0x03] Work_Zone[2] = 1738*
124: 0x0255 [0x03] Work_Zone[3] = 1739*
125: 0x025A [0x03] Work_Zone[4] = 1740*
126: 0x025F [0x03] Work_Zone[5] = 1741*
127: 0x0264 [0x01] GOTO 0x0337
128: 0x0267 [0x02] IF !(ExtData[1]->WorkLocal[0] == 61*) GOTO 0x029A
129: 0x026F [0x02] IF !(ExtData[1]->WorkLocal[1] == 1*) GOTO 0x027E
130: 0x0277 [0x1D] PRINT_EVENT_MESSAGE(message_id=7652*)
    → "You hook me up with the following goods, and I'll throw ya together a bag so big, it can double as a summer home!"
131: 0x027A [0x23] WAIT_FOR_DIALOG_INTERACTION
132: 0x027B [0x01] GOTO 0x0283
133: 0x027E [0x42] SET_CLI_EVENT_CANCEL_DATA()
134: 0x027F [0x1D] PRINT_EVENT_MESSAGE(message_id=7651*)
    → "You people are all the same--Greedaloxes! The whole stinkin' lot of ya! But, ya know, I never can turn down a tasty business proposal."
135: 0x0282 [0x23] WAIT_FOR_DIALOG_INTERACTION

SUBROUTINE_0283:
136: 0x0283 [0x03] Work_Zone[2] = 2530*
137: 0x0288 [0x03] Work_Zone[3] = 655*
138: 0x028D [0x03] Work_Zone[4] = 830*
139: 0x0292 [0x03] Work_Zone[5] = 812*
140: 0x0297 [0x01] GOTO 0x0337
141: 0x029A [0x02] IF !(ExtData[1]->WorkLocal[0] == 66*) GOTO 0x02CD
142: 0x02A2 [0x02] IF !(ExtData[1]->WorkLocal[1] == 1*) GOTO 0x02B1
143: 0x02AA [0x1D] PRINT_EVENT_MESSAGE(message_id=7652*)
    → "You hook me up with the following goods, and I'll throw ya together a bag so big, it can double as a summer home!"
144: 0x02AD [0x23] WAIT_FOR_DIALOG_INTERACTION
145: 0x02AE [0x01] GOTO 0x02B6
146: 0x02B1 [0x42] SET_CLI_EVENT_CANCEL_DATA()
147: 0x02B2 [0x1D] PRINT_EVENT_MESSAGE(message_id=7651*)
    → "You people are all the same--Greedaloxes! The whole stinkin' lot of ya! But, ya know, I never can turn down a tasty business proposal."
148: 0x02B5 [0x23] WAIT_FOR_DIALOG_INTERACTION

SUBROUTINE_02B6:
149: 0x02B6 [0x03] Work_Zone[2] = 2529*
150: 0x02BB [0x03] Work_Zone[3] = 2536*
151: 0x02C0 [0x03] Work_Zone[4] = 2537*
152: 0x02C5 [0x03] Work_Zone[5] = 813*
153: 0x02CA [0x01] GOTO 0x0337
154: 0x02CD [0x02] IF !(ExtData[1]->WorkLocal[0] == 71*) GOTO 0x0300
155: 0x02D5 [0x02] IF !(ExtData[1]->WorkLocal[1] == 1*) GOTO 0x02E4
156: 0x02DD [0x1D] PRINT_EVENT_MESSAGE(message_id=7652*)
    → "You hook me up with the following goods, and I'll throw ya together a bag so big, it can double as a summer home!"
157: 0x02E0 [0x23] WAIT_FOR_DIALOG_INTERACTION
158: 0x02E1 [0x01] GOTO 0x02E9
159: 0x02E4 [0x42] SET_CLI_EVENT_CANCEL_DATA()
160: 0x02E5 [0x1D] PRINT_EVENT_MESSAGE(message_id=7651*)
    → "You people are all the same--Greedaloxes! The whole stinkin' lot of ya! But, ya know, I never can turn down a tasty business proposal."
161: 0x02E8 [0x23] WAIT_FOR_DIALOG_INTERACTION

SUBROUTINE_02E9:
162: 0x02E9 [0x03] Work_Zone[2] = 747*
163: 0x02EE [0x03] Work_Zone[3] = 2538*
164: 0x02F3 [0x03] Work_Zone[4] = 2704*
165: 0x02F8 [0x03] Work_Zone[5] = 2743*
166: 0x02FD [0x01] GOTO 0x0337
167: 0x0300 [0x02] IF !(ExtData[1]->WorkLocal[0] == 76*) GOTO 0x0337
168: 0x0308 [0x02] IF !(ExtData[1]->WorkLocal[1] == 1*) GOTO 0x0313
169: 0x0310 [0x01] GOTO 0x031C
170: 0x0313 [0x42] SET_CLI_EVENT_CANCEL_DATA()
171: 0x0314 [0x1D] PRINT_EVENT_MESSAGE(message_id=9901*)
    → "I knew it. I was tellin' my buddy Gobs that you weren't no ordinary Greedalox, no siree. No, you're a junk-packin' legend. A true king o'clutter. The legendary..."Grand Greedalox"! Just standin' in front o' you here sends a chill up my Gobbie spine..."
172: 0x0317 [0x23] WAIT_FOR_DIALOG_INTERACTION
173: 0x0318 [0x1D] PRINT_EVENT_MESSAGE(message_id=9902*)
    → "Okay, listen. We Gobbies got one more trick up our sleeves. Our final, ultimate, bag-bolsterin' technique."
174: 0x031B [0x23] WAIT_FOR_DIALOG_INTERACTION

SUBROUTINE_031C:
175: 0x031C [0x1D] PRINT_EVENT_MESSAGE(message_id=9903*)
    → "Tell ya what. You go hunt down the goods I ask ya for, and I'll whip ya up a bag so brain-burstin'ly big that you can build a castle inside and found yerself a whole nation of Greedaloxes!"
176: 0x031F [0x23] WAIT_FOR_DIALOG_INTERACTION
177: 0x0320 [0x03] Work_Zone[2] = 1711*
178: 0x0325 [0x03] Work_Zone[3] = 1459*
179: 0x032A [0x03] Work_Zone[4] = 2705*
180: 0x032F [0x03] Work_Zone[5] = 2744*
181: 0x0334 [0x01] GOTO 0x0337

SUBROUTINE_0337:
182: 0x0337 [0x1D] PRINT_EVENT_MESSAGE(message_id=7646*)
    → "I want $0, $1, $2, and $3."
183: 0x033A [0x23] WAIT_FOR_DIALOG_INTERACTION
184: 0x033B [0x02] IF !(ExtData[1]->WorkLocal[0] == 61*) GOTO 0x0352
185: 0x0343 [0x1D] PRINT_EVENT_MESSAGE(message_id=9629*)
    → "Bring 'em to me and I'll make your bag bigger."
186: 0x0346 [0x23] WAIT_FOR_DIALOG_INTERACTION
187: 0x0347 [0x1D] PRINT_EVENT_MESSAGE(message_id=9630*)
    → "Don't know where on Vana'diel you're going to find most of those goodies, but I'm bettin' a Greedalox the likes of yourself'll find a way."
188: 0x034A [0x23] WAIT_FOR_DIALOG_INTERACTION
189: 0x034B [0x1D] PRINT_EVENT_MESSAGE(message_id=9631*)
    → "Oh, and in case ya start gettin' the strange idea that after six or seven fixes you and me are buddies...stuff it! I still ain't gonna tell ya how I make your bag bigger. Ancient Gobbie secret!"
190: 0x034E [0x23] WAIT_FOR_DIALOG_INTERACTION
191: 0x034F [0x01] GOTO 0x0397
192: 0x0352 [0x02] IF !(ExtData[1]->WorkLocal[0] == 66*) GOTO 0x0369
193: 0x035A [0x1D] PRINT_EVENT_MESSAGE(message_id=9629*)
    → "Bring 'em to me and I'll make your bag bigger."
194: 0x035D [0x23] WAIT_FOR_DIALOG_INTERACTION
195: 0x035E [0x1D] PRINT_EVENT_MESSAGE(message_id=9630*)
    → "Don't know where on Vana'diel you're going to find most of those goodies, but I'm bettin' a Greedalox the likes of yourself'll find a way."
196: 0x0361 [0x23] WAIT_FOR_DIALOG_INTERACTION
197: 0x0362 [0x1D] PRINT_EVENT_MESSAGE(message_id=9631*)
    → "Oh, and in case ya start gettin' the strange idea that after six or seven fixes you and me are buddies...stuff it! I still ain't gonna tell ya how I make your bag bigger. Ancient Gobbie secret!"
198: 0x0365 [0x23] WAIT_FOR_DIALOG_INTERACTION
199: 0x0366 [0x01] GOTO 0x0397
200: 0x0369 [0x02] IF !(ExtData[1]->WorkLocal[0] == 71*) GOTO 0x0380
201: 0x0371 [0x1D] PRINT_EVENT_MESSAGE(message_id=9629*)
    → "Bring 'em to me and I'll make your bag bigger."
202: 0x0374 [0x23] WAIT_FOR_DIALOG_INTERACTION
203: 0x0375 [0x1D] PRINT_EVENT_MESSAGE(message_id=9630*)
    → "Don't know where on Vana'diel you're going to find most of those goodies, but I'm bettin' a Greedalox the likes of yourself'll find a way."
204: 0x0378 [0x23] WAIT_FOR_DIALOG_INTERACTION
205: 0x0379 [0x1D] PRINT_EVENT_MESSAGE(message_id=9631*)
    → "Oh, and in case ya start gettin' the strange idea that after six or seven fixes you and me are buddies...stuff it! I still ain't gonna tell ya how I make your bag bigger. Ancient Gobbie secret!"
206: 0x037C [0x23] WAIT_FOR_DIALOG_INTERACTION
207: 0x037D [0x01] GOTO 0x0397
208: 0x0380 [0x02] IF !(ExtData[1]->WorkLocal[0] == 76*) GOTO 0x0393
209: 0x0388 [0x1D] PRINT_EVENT_MESSAGE(message_id=9629*)
    → "Bring 'em to me and I'll make your bag bigger."
210: 0x038B [0x23] WAIT_FOR_DIALOG_INTERACTION
211: 0x038C [0x1D] PRINT_EVENT_MESSAGE(message_id=9904*)
    → "Now, I warn ya. This stuff is the rarest of the rare, some seriously primo loot, so don't think you'll be findin' any of 'em easily. But if you're the Grand Greedalox I'm thinkin' you are, you can do it."
212: 0x038F [0x23] WAIT_FOR_DIALOG_INTERACTION
213: 0x0390 [0x01] GOTO 0x0397
214: 0x0393 [0x1D] PRINT_EVENT_MESSAGE(message_id=7647*)
    → "Bring 'em to me and I'll make your bag bigger. But I ain't gonna tell ya how it's done. Ancient Gobbie secret!"
215: 0x0396 [0x23] WAIT_FOR_DIALOG_INTERACTION

SUBROUTINE_0397:
216: 0x0397 [0x01] GOTO 0x03C1
217: 0x039A [0x02] IF !(Work_Zone[0] == 1*) GOTO 0x03C1
218: 0x03A2 [0x02] IF !(ExtData[1]->WorkLocal[0] < 56*) GOTO 0x03B5
219: 0x03AA [0x1D] PRINT_EVENT_MESSAGE(message_id=7633*)
    → "Finally come to your senses, huh? It's about time! We Gobs have an old saying..."
220: 0x03AD [0x23] WAIT_FOR_DIALOG_INTERACTION
221: 0x03AE [0x1D] PRINT_EVENT_MESSAGE(message_id=7634*)
    → ""If ya don't use it, sell it! If ya don't want it, sell it! If ya can't sell it, eat it!" Ya got it?"
222: 0x03B1 [0x23] WAIT_FOR_DIALOG_INTERACTION
223: 0x03B2 [0x01] GOTO 0x03B9
224: 0x03B5 [0x1D] PRINT_EVENT_MESSAGE(message_id=7632*)
    → "No? And here I was, thinkin' I might bump up your bag size. Too bad!"
225: 0x03B8 [0x23] WAIT_FOR_DIALOG_INTERACTION

SUBROUTINE_03B9:
226: 0x03B9 [0x03] Work_Zone[1] = 1073741824*
227: 0x03BE [0x01] GOTO 0x03C1

SUBROUTINE_03C1:
228: 0x03C1 [0x21] END_EVENT
229: 0x03C2 [0x00] END_REQSTACK()
```

#### Data or dead code:

```
# Dead code (unreachable instructions):
     0x006D [0x01] GOTO 0x03C1
# Dead code (unreachable instructions):
     0x00DF [0x01] GOTO 0x00E6
```

### Event 73

#### Metadata

| Field        | Value     |
|--------------|-----------|
| Entrypoint   | 0x03C3    |
| Data Size    | 116 bytes |
| Instructions | 33        |

```
      00 01 02 03 04 05 06 07  08 09 0A 0B 0C 0D 0E 0F
      -- -- -- -- -- -- -- --  -- -- -- -- -- -- -- --
03C0:          20 01 42 03 03  00 02 10 03 04 00 03 10      .B..........
03D0: 1E F0 FF FF 7F 6F 70 02  04 00 08 80 01 EB 03 1D  .....op.........
03E0: 5B 80 23 1D 5C 80 23 1D  5D 80 23 03 02 10 03 00  [.#.\.#.].#.....
03F0: 0C 02 10 02 03 00 00 80  04 11 04 02 03 00 05 80  ................
0400: 00 0A 04 1D 06 80 23 01  0E 04 1D 01 80 23 01 24  ......#......#.$
0410: 04 02 03 00 02 80 04 20  04 1D 03 80 23 01 24 04  ....... ....#.$.
0420: 1D 5E 80 23 45 5F 80 F0  FF FF 7F F0 FF FF 7F 71  .^.#E_.........q
0430: 73 74 63 08 80 21 00                              stc..!.         
```

#### Opcodes

```
  0: 0x03C3 [0x20] SET_CLI_EVENT_UC_FLAG: Lock player control
  1: 0x03C5 [0x42] SET_CLI_EVENT_CANCEL_DATA()
  2: 0x03C6 [0x03] ExtData[1]->WorkLocal[3] = Work_Zone[2]
  3: 0x03CB [0x03] ExtData[1]->WorkLocal[4] = Work_Zone[3]
  4: 0x03D0 [0x1E] EventEntity looks at LocalPlayer and starts talking
  5: 0x03D5 [0x6F] WAIT_FRAME_DELAY: Yield until WaitTime reaches zero
  6: 0x03D6 [0x70] WAIT_ENTITY_RENDER_FLAG: Wait while EventEntity->Render.Flags3 bit 2 is set (cancel turn if not)
  7: 0x03D7 [0x02] IF !(ExtData[1]->WorkLocal[4] == 0*) GOTO 0x03EB
  8: 0x03DF [0x1D] PRINT_EVENT_MESSAGE(message_id=7653*)
    → "So, ya want me to bag that bag of yours bigger in exchange for this? How'd ya know what we goblins like?"
  9: 0x03E2 [0x23] WAIT_FOR_DIALOG_INTERACTION
 10: 0x03E3 [0x1D] PRINT_EVENT_MESSAGE(message_id=7654*)
    → "We goblins aren't inta that kinda trading. Not like the lot of ya, with all your stuff and your things."
 11: 0x03E6 [0x23] WAIT_FOR_DIALOG_INTERACTION
 12: 0x03E7 [0x1D] PRINT_EVENT_MESSAGE(message_id=7655*)
    → "...Okay, but just this once."
 13: 0x03EA [0x23] WAIT_FOR_DIALOG_INTERACTION
 14: 0x03EB [0x03] Work_Zone[2] = ExtData[1]->WorkLocal[3]
 15: 0x03F0 [0x0C] Work_Zone[2]--
 16: 0x03F3 [0x02] IF !(ExtData[1]->WorkLocal[3] < 56*) GOTO 0x0411
 17: 0x03FB [0x02] IF !(ExtData[1]->WorkLocal[3] == 81*) GOTO 0x040A
 18: 0x0403 [0x1D] PRINT_EVENT_MESSAGE(message_id=9905*)
    → "Whoa...wh-wh-whoa! Your bag's bigger than any gobbiebag I've ever seen. But that's why you're the Grand Greedalox, after all. Still not big enough, you say? Amazing. The legend continues..."
 19: 0x0406 [0x23] WAIT_FOR_DIALOG_INTERACTION
 20: 0x0407 [0x01] GOTO 0x040E
 21: 0x040A [0x1D] PRINT_EVENT_MESSAGE(message_id=7650*)
    → "That's one mighty big bag you've got there... We Gobs don't like Greedaloxes one bit!"
 22: 0x040D [0x23] WAIT_FOR_DIALOG_INTERACTION

SUBROUTINE_040E:
 23: 0x040E [0x01] GOTO 0x0424
 24: 0x0411 [0x02] IF !(ExtData[1]->WorkLocal[3] < 51*) GOTO 0x0420
 25: 0x0419 [0x1D] PRINT_EVENT_MESSAGE(message_id=7649*)
    → "Hey, your bag's as big as ours... I don't think I like that one bit."
 26: 0x041C [0x23] WAIT_FOR_DIALOG_INTERACTION
 27: 0x041D [0x01] GOTO 0x0424
 28: 0x0420 [0x1D] PRINT_EVENT_MESSAGE(message_id=7648*)
    → "There you go, pal. Bigger bag for ya. It still don't compare to gobbiebags, though."
 29: 0x0423 [0x23] WAIT_FOR_DIALOG_INTERACTION

SUBROUTINE_0424:
 30: 0x0424 [0x45] LOAD_SCHEDULED_TASK: Load scheduler "qstc" with entities [LocalPlayer, LocalPlayer], work=[201*, 0*]
 31: 0x0435 [0x21] END_EVENT
 32: 0x0436 [0x00] END_REQSTACK()
```

### Event 10056

#### Metadata

| Field        | Value    |
|--------------|----------|
| Entrypoint   | 0x0437   |
| Data Size    | 22 bytes |
| Instructions | 10       |

```
      00 01 02 03 04 05 06 07  08 09 0A 0B 0C 0D 0E 0F
      -- -- -- -- -- -- -- --  -- -- -- -- -- -- -- --
0430:                      42  48 60 80 1E F0 FF FF 7F         BH`......
0440: 1C 61 80 1D 62 80 23 1D  63 80 23 21 00           .a..b.#.c.#!.   
```

#### Opcodes

```
  0: 0x0437 [0x42] SET_CLI_EVENT_CANCEL_DATA()
  1: 0x0438 [0x48] [System] [9486*]:
    → "<Player>'s badge flashes brightly."
  2: 0x043B [0x1E] EventEntity looks at LocalPlayer and starts talking
  3: 0x0440 [0x1C] WAIT(30* ticks)
  4: 0x0443 [0x1D] PRINT_EVENT_MESSAGE(message_id=9495*)
    → "You have shiny badge."
  5: 0x0446 [0x23] WAIT_FOR_DIALOG_INTERACTION
  6: 0x0447 [0x1D] PRINT_EVENT_MESSAGE(message_id=9496*)
    → "I don't have shiny badge. Very, very sad."
  7: 0x044A [0x23] WAIT_FOR_DIALOG_INTERACTION
  8: 0x044B [0x21] END_EVENT
  9: 0x044C [0x00] END_REQSTACK()
```

### Event 10077

#### Metadata

| Field        | Value    |
|--------------|----------|
| Entrypoint   | 0x044D   |
| Data Size    | 52 bytes |
| Instructions | 18       |

```
      00 01 02 03 04 05 06 07  08 09 0A 0B 0C 0D 0E 0F
      -- -- -- -- -- -- -- --  -- -- -- -- -- -- -- --
0440:                                         42 1E F0               B..
0450: FF FF 7F 6F 70 1D 64 80  23 24 65 80 09 80 08 80  ...op.d.#$e.....
0460: 25 02 00 10 08 80 00 70  04 1D 66 80 23 01 7F 04  %......p..f.#...
0470: 02 00 10 09 80 00 7F 04  1D 67 80 23 01 7F 04 21  .........g.#...!
0480: 00                                                .               
```

#### Opcodes

```
  0: 0x044D [0x42] SET_CLI_EVENT_CANCEL_DATA()
  1: 0x044E [0x1E] EventEntity looks at LocalPlayer and starts talking
  2: 0x0453 [0x6F] WAIT_FRAME_DELAY: Yield until WaitTime reaches zero
  3: 0x0454 [0x70] WAIT_ENTITY_RENDER_FLAG: Wait while EventEntity->Render.Flags3 bit 2 is set (cancel turn if not)
  4: 0x0455 [0x1D] PRINT_EVENT_MESSAGE(message_id=9635*)
    → "Hey, buddy. You hear about those cavernous maws?"
  5: 0x0458 [0x23] WAIT_FOR_DIALOG_INTERACTION
  6: 0x0459 [0x24] CREATE_DIALOG(message_id=9636*, default_option=1*, option_flags=0*)
    → "Heard of the cavernous maws? [Hasn't everyone?/Cavernous...what?]"
  7: 0x0460 [0x25] WAIT_DIALOG_SELECT()
  8: 0x0461 [0x02] IF !(Work_Zone[0] == 0*) GOTO 0x0470
  9: 0x0469 [0x1D] PRINT_EVENT_MESSAGE(message_id=9637*)
    → "You've seen one of 'em? They make me think of the song me grandgobbie used to sing about the Mawed One."
 10: 0x046C [0x23] WAIT_FOR_DIALOG_INTERACTION
 11: 0x046D [0x01] GOTO 0x047F
 12: 0x0470 [0x02] IF !(Work_Zone[0] == 1*) GOTO 0x047F
 13: 0x0478 [0x1D] PRINT_EVENT_MESSAGE(message_id=9638*)
    → "You've never seen one? Bah, why am I even talkin' to you?"
 14: 0x047B [0x23] WAIT_FOR_DIALOG_INTERACTION
 15: 0x047C [0x01] GOTO 0x047F

SUBROUTINE_047F:
 16: 0x047F [0x21] END_EVENT
 17: 0x0480 [0x00] END_REQSTACK()
```

### Event 20070

#### Metadata

| Field        | Value   |
|--------------|---------|
| Entrypoint   | 0x0481  |
| Data Size    | 1 bytes |
| Instructions | 1       |

```
      00 01 02 03 04 05 06 07  08 09 0A 0B 0C 0D 0E 0F
      -- -- -- -- -- -- -- --  -- -- -- -- -- -- -- --
0480:    00                                              .              
```

#### Opcodes

```
  0: 0x0481 [0x00] END_REQSTACK()
```
