# 17780947 - Duplidoc

## Common Data

| Field            | Value                 |
|------------------|-----------------------|
| Zone             | Lower Jeuno (ID: 245) |
| Block Size       | 1204 bytes            |
| Total Events     | 4                     |
| References Count | 35                    |

## List of Events

| Event ID              | Entrypoint   |   Size |   Instructions |
|-----------------------|--------------|--------|----------------|
| [65535](#event-65535) | 0x0000       |      1 |              1 |
| [20008](#event-20008) | 0x0001       |    956 |            182 |
| [20009](#event-20009) | 0x03BD       |     71 |             18 |
| [20070](#event-20070) | 0x0404       |      1 |              1 |

## DAT References (imed_data)

|   Index | Hex Value   |   Dec Value |
|---------|-------------|-------------|
|       0 | 0x40000000  |  1073741824 |
|       1 | 0x0000      |           0 |
|       2 | 0x2689      |        9865 |
|       3 | 0x268A      |        9866 |
|       4 | 0x0001      |           1 |
|       5 | 0x0003      |           3 |
|       6 | 0x2690      |        9872 |
|       7 | 0x0004      |           4 |
|       8 | 0x0007      |           7 |
|       9 | 0x001A      |          26 |
|      10 | 0x001F      |          31 |
|      11 | 0x0019      |          25 |
|      12 | 0x2692      |        9874 |
|      13 | 0x2693      |        9875 |
|      14 | 0x000F      |          15 |
|      15 | 0x0013      |          19 |
|      16 | 0x0002      |           2 |
|      17 | 0x0005      |           5 |
|      18 | 0x2694      |        9876 |
|      19 | 0x0008      |           8 |
|      20 | 0x0006      |           6 |
|      21 | 0x01F4      |         500 |
|      22 | 0x2695      |        9877 |
|      23 | 0x2696      |        9878 |
|      24 | 0x18FC      |        6396 |
|      25 | 0x2691      |        9873 |
|      26 | 0x269B      |        9883 |
|      27 | 0x2698      |        9880 |
|      28 | 0x268B      |        9867 |
|      29 | 0x268C      |        9868 |
|      30 | 0x268D      |        9869 |
|      31 | 0x268E      |        9870 |
|      32 | 0x268F      |        9871 |
|      33 | 0x2699      |        9881 |
|      34 | 0x269A      |        9882 |

## String References

- **6396**: You do not have enough gil.
- **9865**: Me called Duplidoc. Mazes, mazes everywhere. I see them all. Ya want something from me?
- **9866**: What do you want? [Never mind!/View copiable mazes./Register your Maze Tabula./Tell me more.]
- **9867**: New maze opens up, I visit. Never miss one. You want to see the mazes I've seen? I make you copy...for price.
- **9868**: My copies good as real thing. Maybe better. But I make too many, Goldagrik yell at me. Say bad for business. So you can only use copy five times max, okay?
- **9869**: Or maybe you a maze maker yourself? You give me maze, I copy. I give to others. Good times for all.
- **9870**: One catch. You want copy, you give me Moblin Marbles. New kid with no marbles? You go away. There better mazes for me to look at.
- **9871**: One more thing. I only copy maze I can remember. Popular maze, fun maze, I remember long time. So build good one.
- **9872**: Examine a list? [No thanks./View Hall of Fame Tabulae./View Maze Tabulae by theme.]
- **9873**: View mazes of which theme? [Cancel./MMM Sanitization Team Alpha./MMM Sanitization Team Beta./MMM Sanitization Team Gamma./MMM Materialization Team./MMM Actualization Team./MMM Appropriation Team./MMM Liquidation Team./MMM Aquatic Depopulation Team./MMM Revitalization Team.]
- **9874**: Nothing registered for that yet. You come back later.
- **9875**: Here's the list. You like one, you choose.
- **9876**: Which will you copy? [%0 (Popularity: $4)./%1 (Popularity: $5)./%2 (Popularity: $6)./%3 (Popularity: $7)./View next list./View previous list./Cancel.]
- **9877**: You want copy of this maze, you pay $8 gil. Deal?
- **9878**: Really copy this maze? [Make it so./Cancel.]
- **9880**: You trade me Maze Tabula, okay?
- **9881**: You register this maze. Okay?
- **9882**: Proceed with registration? [Register./Cancel.]
- **9883**: Confirming registration data...

## Events

### Event 65535

#### Metadata

| Field        | Value   |
|--------------|---------|
| Entrypoint   | 0x0000  |
| Data Size    | 1 bytes |
| Instructions | 1       |

```
      00 01 02 03 04 05 06 07  08 09 0A 0B 0C 0D 0E 0F
      -- -- -- -- -- -- -- --  -- -- -- -- -- -- -- --
0000: 00                                                .               
```

#### Opcodes

```
  0: 0x0000 [0x00] END_REQSTACK()
```

### Event 20008

#### Metadata

| Field        | Value     |
|--------------|-----------|
| Entrypoint   | 0x0001    |
| Data Size    | 956 bytes |
| Instructions | 182       |

```
      00 01 02 03 04 05 06 07  08 09 0A 0B 0C 0D 0E 0F
      -- -- -- -- -- -- -- --  -- -- -- -- -- -- -- --
0000:    03 01 10 00 80 03 05  00 02 10 03 09 00 01 80   ...............
0010: 1D 02 80 23 05 01 00 02  01 00 01 80 01 BB 03 24  ...#...........$
0020: 03 80 01 80 01 80 25 02  00 10 01 80 00 35 00 06  ......%......5..
0030: 01 00 01 B8 03 02 00 10  04 80 00 87 03 40 01 80  .............@..
0040: 05 80 01 10 00 10 05 02  00 02 02 00 01 80 01 84  ................
0050: 03 24 06 80 01 80 01 80  25 02 00 10 01 80 00 6F  .$......%......o
0060: 00 06 01 00 06 02 00 03  01 10 00 80 01 81 03 02  ................
0070: 00 10 04 80 00 2E 03 40  07 80 08 80 01 10 00 10  .......@........
0080: 43 00 43 01 41 09 80 0A  80 05 10 08 00 41 01 80  C.C.A........A..
0090: 0B 80 05 10 05 10 02 08  00 01 80 00 A5 00 1D 0C  ................
00A0: 80 23 01 2B 03 1D 0D 80  23 03 07 00 01 80 05 03  .#.+....#.......
00B0: 00 02 03 00 01 80 01 2B  03 03 06 00 01 80 03 01  .......+........
00C0: 10 01 80 40 01 80 05 80  01 10 0E 80 41 01 80 0F  ...@........A...
00D0: 80 02 10 00 00 02 00 00  01 80 00 E4 00 3C 06 00  .............<..
00E0: 01 80 04 80 41 01 80 0F  80 03 10 00 00 02 00 00  ....A...........
00F0: 01 80 00 FC 00 3C 06 00  04 80 04 80 41 01 80 0F  .....<......A...
0100: 80 04 10 00 00 02 00 00  01 80 00 14 01 3C 06 00  .............<..
0110: 10 80 04 80 41 01 80 0F  80 05 10 00 00 02 00 00  ....A...........
0120: 01 80 00 2C 01 3C 06 00  05 80 04 80 02 07 00 01  ...,.<..........
0130: 80 00 3E 01 3C 06 00 11  80 04 80 01 45 01 3D 06  ..>.<.......E.=.
0140: 00 11 80 04 80 03 00 00  07 00 07 00 00 07 80 02  ................
0150: 08 00 00 00 05 61 01 3C  06 00 07 80 04 80 01 68  .....a.<.......h
0160: 01 3D 06 00 07 80 04 80  24 12 80 01 80 06 00 25  .=......$......%
0170: 02 00 10 01 80 00 89 01  03 09 00 02 10 40 07 80  .............@..
0180: 08 80 01 10 10 80 01 38  02 02 00 10 04 80 00 A2  .......8........
0190: 01 03 09 00 03 10 40 07  80 08 80 01 10 10 80 01  ......@.........
01A0: 38 02 02 00 10 10 80 00  BB 01 03 09 00 04 10 40  8..............@
01B0: 07 80 08 80 01 10 10 80  01 38 02 02 00 10 05 80  .........8......
01C0: 00 D4 01 03 09 00 05 10  40 07 80 08 80 01 10 10  ........@.......
01D0: 80 01 38 02 02 00 10 07  80 00 F6 01 07 07 00 07  ..8.............
01E0: 80 40 07 80 08 80 01 10  04 80 40 13 80 0E 80 01  .@........@.....
01F0: 10 07 00 01 38 02 02 00  10 11 80 00 18 02 08 07  ....8...........
0200: 00 07 80 40 07 80 08 80  01 10 04 80 40 13 80 0E  ...@........@...
0210: 80 01 10 07 00 01 38 02  02 00 10 14 80 00 38 02  ......8.......8.
0220: 06 03 00 40 01 80 05 80  01 10 04 80 40 07 80 08  ...@........@...
0230: 80 01 10 01 80 01 38 02  02 00 10 07 80 03 0A 03  ......8.........
0240: 40 13 80 0A 80 01 10 09  00 43 00 43 01 3E 09 10  @........C.C.>..
0250: 0A 80 65 02 03 01 10 00  80 06 01 00 06 02 00 06  ..e.............
0260: 03 00 01 07 03 03 05 00  09 10 71 20 02 10 03 10  ..........q ....
0270: 04 10 05 10 06 10 07 10  08 10 03 00 17 15 80 1D  ................
0280: 16 80 23 71 21 24 17 80  04 80 01 80 25 02 00 10  ..#q!$......%...
0290: 01 80 00 C6 02 06 01 00  06 02 00 06 03 00 02 05  ................
02A0: 00 15 80 03 B1 02 48 18  80 03 01 10 00 80 01 C3  ......H.........
02B0: 02 40 01 80 05 80 01 10  04 80 40 07 80 08 80 01  .@........@.....
02C0: 10 04 80 01 07 03 02 00  10 04 80 00 07 03 03 01  ................
02D0: 10 01 80 40 01 80 05 80  01 10 0E 80 40 07 80 08  ...@........@...
02E0: 80 01 10 04 80 40 13 80  0E 80 01 10 07 00 43 00  .....@........C.
02F0: 43 01 41 09 80 0A 80 05  10 08 00 41 01 80 0B 80  C.A........A....
0300: 05 10 05 10 01 07 03 01  28 03 02 00 10 14 80 03  ........(.......
0310: 28 03 43 00 43 01 41 09  80 0A 80 05 10 08 00 41  (.C.C.A........A
0320: 01 80 0B 80 05 10 05 10  01 B1 00 01 81 03 02 00  ................
0330: 10 10 80 00 81 03 40 07  80 08 80 01 10 00 10 03  ......@.........
0340: 00 00 01 80 24 19 80 01  80 00 00 25 02 00 10 01  ....$......%....
0350: 80 00 57 03 01 62 03 02  00 10 04 80 00 62 03 01  ..W..b.......b..
0360: 62 03 02 00 10 01 80 02  7E 03 42 48 1A 80 30 40  b.......~.BH..0@
0370: 13 80 0E 80 01 10 00 10  06 01 00 06 02 00 01 81  ................
0380: 03 01 49 00 01 B8 03 02  00 10 10 80 00 99 03 06  ..I.............
0390: 01 00 1D 1B 80 23 01 B8  03 02 00 10 05 80 00 B8  .....#..........
03A0: 03 1D 1C 80 23 1D 1D 80  23 1D 1E 80 23 1D 1F 80  ....#...#...#...
03B0: 23 1D 20 80 23 01 B8 03  01 17 00 21 00           #. .#......!.   
```

#### Opcodes

```
  0: 0x0001 [0x03] Work_Zone[1] = 1073741824*
  1: 0x0006 [0x03] ExtData[1]->WorkLocal[5] = Work_Zone[2]
  2: 0x000B [0x03] ExtData[1]->WorkLocal[9] = 0*
  3: 0x0010 [0x1D] PRINT_EVENT_MESSAGE(message_id=9865*)
    → "Me called Duplidoc. Mazes, mazes everywhere. I see them all. Ya want something from me?"
  4: 0x0013 [0x23] WAIT_FOR_DIALOG_INTERACTION
  5: 0x0014 [0x05] ExtData[1]->WorkLocal[1] = 1
  6: 0x0017 [0x02] IF !(ExtData[1]->WorkLocal[1] == 0*) GOTO 0x03BB
  7: 0x001F [0x24] CREATE_DIALOG(message_id=9866*, default_option=0*, option_flags=0*)
    → "What do you want? [Never mind!/View copiable mazes./Register your Maze Tabula./Tell me more.]"
  8: 0x0026 [0x25] WAIT_DIALOG_SELECT()
  9: 0x0027 [0x02] IF !(Work_Zone[0] == 0*) GOTO 0x0035
 10: 0x002F [0x06] ExtData[1]->WorkLocal[1] = 0
 11: 0x0032 [0x01] GOTO 0x03B8
 12: 0x0035 [0x02] IF !(Work_Zone[0] == 1*) GOTO 0x0387
 13: 0x003D [0x40] SET_BIT_WORK_RANGE(start_bit=0*, end_bit=3*, target=Work_Zone[1], source=Work_Zone[0])
 14: 0x0046 [0x05] ExtData[1]->WorkLocal[2] = 1

SUBROUTINE_0049:
 15: 0x0049 [0x02] IF !(ExtData[1]->WorkLocal[2] == 0*) GOTO 0x0384
 16: 0x0051 [0x24] CREATE_DIALOG(message_id=9872*, default_option=0*, option_flags=0*)
    → "Examine a list? [No thanks./View Hall of Fame Tabulae./View Maze Tabulae by theme.]"
 17: 0x0058 [0x25] WAIT_DIALOG_SELECT()
 18: 0x0059 [0x02] IF !(Work_Zone[0] == 0*) GOTO 0x006F
 19: 0x0061 [0x06] ExtData[1]->WorkLocal[1] = 0
 20: 0x0064 [0x06] ExtData[1]->WorkLocal[2] = 0
 21: 0x0067 [0x03] Work_Zone[1] = 1073741824*
 22: 0x006C [0x01] GOTO 0x0381
 23: 0x006F [0x02] IF !(Work_Zone[0] == 1*) GOTO 0x032E
 24: 0x0077 [0x40] SET_BIT_WORK_RANGE(start_bit=4*, end_bit=7*, target=Work_Zone[1], source=Work_Zone[0])
 25: 0x0080 [0x43] SEND_EVENT_UPDATE: Send pending tag to server (packet 0x005B)
 26: 0x0082 [0x43] SEND_EVENT_UPDATE: Check pending flag (skip if not pending)
 27: 0x0084 [0x41] ExtData[1]->WorkLocal[8] = Work_Zone[5] (bits 26*-31*)
 28: 0x008D [0x41] Work_Zone[5] = Work_Zone[5] (bits 0*-25*)
 29: 0x0096 [0x02] IF !(ExtData[1]->WorkLocal[8] == 0*) GOTO 0x00A5
 30: 0x009E [0x1D] PRINT_EVENT_MESSAGE(message_id=9874*)
    → "Nothing registered for that yet. You come back later."
 31: 0x00A1 [0x23] WAIT_FOR_DIALOG_INTERACTION
 32: 0x00A2 [0x01] GOTO 0x032B
 33: 0x00A5 [0x1D] PRINT_EVENT_MESSAGE(message_id=9875*)
    → "Here's the list. You like one, you choose."
 34: 0x00A8 [0x23] WAIT_FOR_DIALOG_INTERACTION
 35: 0x00A9 [0x03] ExtData[1]->WorkLocal[7] = 0*
 36: 0x00AE [0x05] ExtData[1]->WorkLocal[3] = 1

SUBROUTINE_00B1:
 37: 0x00B1 [0x02] IF !(ExtData[1]->WorkLocal[3] == 0*) GOTO 0x032B
 38: 0x00B9 [0x03] ExtData[1]->WorkLocal[6] = 0*
 39: 0x00BE [0x03] Work_Zone[1] = 0*
 40: 0x00C3 [0x40] SET_BIT_WORK_RANGE(start_bit=0*, end_bit=3*, target=Work_Zone[1], source=15*)
 41: 0x00CC [0x41] ExtData[1]->WorkLocal[0] = Work_Zone[2] (bits 0*-19*)
 42: 0x00D5 [0x02] IF !(ExtData[1]->WorkLocal[0] == 0*) GOTO 0x00E4
 43: 0x00DD [0x3C] SET_BIT_FLAG_CONDITIONAL(target_work_offset=ExtData[1]->WorkLocal[6], bit_index_work_offset=0*, condition_work_offset=1*)
 44: 0x00E4 [0x41] ExtData[1]->WorkLocal[0] = Work_Zone[3] (bits 0*-19*)
 45: 0x00ED [0x02] IF !(ExtData[1]->WorkLocal[0] == 0*) GOTO 0x00FC
 46: 0x00F5 [0x3C] SET_BIT_FLAG_CONDITIONAL(target_work_offset=ExtData[1]->WorkLocal[6], bit_index_work_offset=1*, condition_work_offset=1*)
 47: 0x00FC [0x41] ExtData[1]->WorkLocal[0] = Work_Zone[4] (bits 0*-19*)
 48: 0x0105 [0x02] IF !(ExtData[1]->WorkLocal[0] == 0*) GOTO 0x0114
 49: 0x010D [0x3C] SET_BIT_FLAG_CONDITIONAL(target_work_offset=ExtData[1]->WorkLocal[6], bit_index_work_offset=2*, condition_work_offset=1*)
 50: 0x0114 [0x41] ExtData[1]->WorkLocal[0] = Work_Zone[5] (bits 0*-19*)
 51: 0x011D [0x02] IF !(ExtData[1]->WorkLocal[0] == 0*) GOTO 0x012C
 52: 0x0125 [0x3C] SET_BIT_FLAG_CONDITIONAL(target_work_offset=ExtData[1]->WorkLocal[6], bit_index_work_offset=3*, condition_work_offset=1*)
 53: 0x012C [0x02] IF !(ExtData[1]->WorkLocal[7] == 0*) GOTO 0x013E
 54: 0x0134 [0x3C] SET_BIT_FLAG_CONDITIONAL(target_work_offset=ExtData[1]->WorkLocal[6], bit_index_work_offset=5*, condition_work_offset=1*)
 55: 0x013B [0x01] GOTO 0x0145
 56: 0x013E [0x3D] CLEAR_BIT_FLAG_CONDITIONAL(target_work_offset=ExtData[1]->WorkLocal[6], bit_index_work_offset=5*, condition_work_offset=1*)

SUBROUTINE_0145:
 57: 0x0145 [0x03] ExtData[1]->WorkLocal[0] = ExtData[1]->WorkLocal[7]
 58: 0x014A [0x07] ExtData[1]->WorkLocal[0] += 4*
 59: 0x014F [0x02] IF !(ExtData[1]->WorkLocal[8] > ExtData[1]->WorkLocal[0]) GOTO 0x0161
 60: 0x0157 [0x3C] SET_BIT_FLAG_CONDITIONAL(target_work_offset=ExtData[1]->WorkLocal[6], bit_index_work_offset=4*, condition_work_offset=1*)
 61: 0x015E [0x01] GOTO 0x0168
 62: 0x0161 [0x3D] CLEAR_BIT_FLAG_CONDITIONAL(target_work_offset=ExtData[1]->WorkLocal[6], bit_index_work_offset=4*, condition_work_offset=1*)

SUBROUTINE_0168:
 63: 0x0168 [0x24] CREATE_DIALOG(message_id=9876*, default_option=0*, option_flags=ExtData[1]->WorkLocal[6])
    → "Which will you copy? [%0 (Popularity: $4)./%1 (Popularity: $5)./%2 (Popularity: $6)./%3 (Popularity: $7)./View next list./View previous list./Cancel.]"
 64: 0x016F [0x25] WAIT_DIALOG_SELECT()
 65: 0x0170 [0x02] IF !(Work_Zone[0] == 0*) GOTO 0x0189
 66: 0x0178 [0x03] ExtData[1]->WorkLocal[9] = Work_Zone[2]
 67: 0x017D [0x40] SET_BIT_WORK_RANGE(start_bit=4*, end_bit=7*, target=Work_Zone[1], source=2*)
 68: 0x0186 [0x01] GOTO 0x0238
 69: 0x0189 [0x02] IF !(Work_Zone[0] == 1*) GOTO 0x01A2
 70: 0x0191 [0x03] ExtData[1]->WorkLocal[9] = Work_Zone[3]
 71: 0x0196 [0x40] SET_BIT_WORK_RANGE(start_bit=4*, end_bit=7*, target=Work_Zone[1], source=2*)
 72: 0x019F [0x01] GOTO 0x0238
 73: 0x01A2 [0x02] IF !(Work_Zone[0] == 2*) GOTO 0x01BB
 74: 0x01AA [0x03] ExtData[1]->WorkLocal[9] = Work_Zone[4]
 75: 0x01AF [0x40] SET_BIT_WORK_RANGE(start_bit=4*, end_bit=7*, target=Work_Zone[1], source=2*)
 76: 0x01B8 [0x01] GOTO 0x0238
 77: 0x01BB [0x02] IF !(Work_Zone[0] == 3*) GOTO 0x01D4
 78: 0x01C3 [0x03] ExtData[1]->WorkLocal[9] = Work_Zone[5]
 79: 0x01C8 [0x40] SET_BIT_WORK_RANGE(start_bit=4*, end_bit=7*, target=Work_Zone[1], source=2*)
 80: 0x01D1 [0x01] GOTO 0x0238
 81: 0x01D4 [0x02] IF !(Work_Zone[0] == 4*) GOTO 0x01F6
 82: 0x01DC [0x07] ExtData[1]->WorkLocal[7] += 4*
 83: 0x01E1 [0x40] SET_BIT_WORK_RANGE(start_bit=4*, end_bit=7*, target=Work_Zone[1], source=1*)
 84: 0x01EA [0x40] SET_BIT_WORK_RANGE(start_bit=8*, end_bit=15*, target=Work_Zone[1], source=ExtData[1]->WorkLocal[7])
 85: 0x01F3 [0x01] GOTO 0x0238
 86: 0x01F6 [0x02] IF !(Work_Zone[0] == 5*) GOTO 0x0218
 87: 0x01FE [0x08] ExtData[1]->WorkLocal[7] -= 4*
 88: 0x0203 [0x40] SET_BIT_WORK_RANGE(start_bit=4*, end_bit=7*, target=Work_Zone[1], source=1*)
 89: 0x020C [0x40] SET_BIT_WORK_RANGE(start_bit=8*, end_bit=15*, target=Work_Zone[1], source=ExtData[1]->WorkLocal[7])
 90: 0x0215 [0x01] GOTO 0x0238
 91: 0x0218 [0x02] IF !(Work_Zone[0] == 6*) GOTO 0x0238
 92: 0x0220 [0x06] ExtData[1]->WorkLocal[3] = 0
 93: 0x0223 [0x40] SET_BIT_WORK_RANGE(start_bit=0*, end_bit=3*, target=Work_Zone[1], source=1*)
 94: 0x022C [0x40] SET_BIT_WORK_RANGE(start_bit=4*, end_bit=7*, target=Work_Zone[1], source=0*)
 95: 0x0235 [0x01] GOTO 0x0238

SUBROUTINE_0238:
 96: 0x0238 [0x02] IF !(Work_Zone[0] >= 4*) GOTO 0x030A
 97: 0x0240 [0x40] SET_BIT_WORK_RANGE(start_bit=8*, end_bit=31*, target=Work_Zone[1], source=ExtData[1]->WorkLocal[9])
 98: 0x0249 [0x43] SEND_EVENT_UPDATE: Send pending tag to server (packet 0x005B)
 99: 0x024B [0x43] SEND_EVENT_UPDATE: Check pending flag (skip if not pending)
100: 0x024D [0x3E] IF !(Work_Zone[9] bit 31*) GOTO 0x0265
101: 0x0254 [0x03] Work_Zone[1] = 1073741824*
102: 0x0259 [0x06] ExtData[1]->WorkLocal[1] = 0
103: 0x025C [0x06] ExtData[1]->WorkLocal[2] = 0
104: 0x025F [0x06] ExtData[1]->WorkLocal[3] = 0
105: 0x0262 [0x01] GOTO 0x0307
106: 0x0265 [0x03] ExtData[1]->WorkLocal[5] = Work_Zone[9]
107: 0x026A [0x71] USER_INPUT_HANDLER: Moblin Maze Mongers menu (sends packet 0x60) (params=[0x1002, 0x1003, 0x1004, 0x1005, 0x1006, 0x1007, 0x1008])
108: 0x027A [0x03] Work_Zone_1700[0] = 500*
109: 0x027F [0x1D] PRINT_EVENT_MESSAGE(message_id=9877*)
    → "You want copy of this maze, you pay $8 gil. Deal?"
110: 0x0282 [0x23] WAIT_FOR_DIALOG_INTERACTION
111: 0x0283 [0x71] USER_INPUT_HANDLER: MMM menu check
112: 0x0285 [0x24] CREATE_DIALOG(message_id=9878*, default_option=1*, option_flags=0*)
    → "Really copy this maze? [Make it so./Cancel.]"
113: 0x028C [0x25] WAIT_DIALOG_SELECT()
114: 0x028D [0x02] IF !(Work_Zone[0] == 0*) GOTO 0x02C6
115: 0x0295 [0x06] ExtData[1]->WorkLocal[1] = 0
116: 0x0298 [0x06] ExtData[1]->WorkLocal[2] = 0
117: 0x029B [0x06] ExtData[1]->WorkLocal[3] = 0
118: 0x029E [0x02] IF !(ExtData[1]->WorkLocal[5] >= 500*) GOTO 0x02B1
119: 0x02A6 [0x48] [System] [6396*]:
    → "You do not have enough gil."
120: 0x02A9 [0x03] Work_Zone[1] = 1073741824*
121: 0x02AE [0x01] GOTO 0x02C3
122: 0x02B1 [0x40] SET_BIT_WORK_RANGE(start_bit=0*, end_bit=3*, target=Work_Zone[1], source=1*)
123: 0x02BA [0x40] SET_BIT_WORK_RANGE(start_bit=4*, end_bit=7*, target=Work_Zone[1], source=1*)

SUBROUTINE_02C3:
124: 0x02C3 [0x01] GOTO 0x0307
125: 0x02C6 [0x02] IF !(Work_Zone[0] == 1*) GOTO 0x0307
126: 0x02CE [0x03] Work_Zone[1] = 0*
127: 0x02D3 [0x40] SET_BIT_WORK_RANGE(start_bit=0*, end_bit=3*, target=Work_Zone[1], source=15*)
128: 0x02DC [0x40] SET_BIT_WORK_RANGE(start_bit=4*, end_bit=7*, target=Work_Zone[1], source=1*)
129: 0x02E5 [0x40] SET_BIT_WORK_RANGE(start_bit=8*, end_bit=15*, target=Work_Zone[1], source=ExtData[1]->WorkLocal[7])
130: 0x02EE [0x43] SEND_EVENT_UPDATE: Send pending tag to server (packet 0x005B)
131: 0x02F0 [0x43] SEND_EVENT_UPDATE: Check pending flag (skip if not pending)
132: 0x02F2 [0x41] ExtData[1]->WorkLocal[8] = Work_Zone[5] (bits 26*-31*)
133: 0x02FB [0x41] Work_Zone[5] = Work_Zone[5] (bits 0*-25*)
134: 0x0304 [0x01] GOTO 0x0307

SUBROUTINE_0307:
135: 0x0307 [0x01] GOTO 0x0328
136: 0x030A [0x02] IF !(Work_Zone[0] >= 6*) GOTO 0x0328
137: 0x0312 [0x43] SEND_EVENT_UPDATE: Send pending tag to server (packet 0x005B)
138: 0x0314 [0x43] SEND_EVENT_UPDATE: Check pending flag (skip if not pending)
139: 0x0316 [0x41] ExtData[1]->WorkLocal[8] = Work_Zone[5] (bits 26*-31*)
140: 0x031F [0x41] Work_Zone[5] = Work_Zone[5] (bits 0*-25*)

SUBROUTINE_0328:
141: 0x0328 [0x01] GOTO 0x00B1

SUBROUTINE_032B:
142: 0x032B [0x01] GOTO 0x0381
143: 0x032E [0x02] IF !(Work_Zone[0] == 2*) GOTO 0x0381
144: 0x0336 [0x40] SET_BIT_WORK_RANGE(start_bit=4*, end_bit=7*, target=Work_Zone[1], source=Work_Zone[0])
145: 0x033F [0x03] ExtData[1]->WorkLocal[0] = 0*
146: 0x0344 [0x24] CREATE_DIALOG(message_id=9873*, default_option=0*, option_flags=ExtData[1]->WorkLocal[0])
    → "View mazes of which theme? [Cancel./MMM Sanitization Team Alpha./MMM Sanitization Team Beta./MMM Sanitization Team Gamma./MMM Materialization Team./MMM Actualization Team./MMM Appropriation Team./MMM Liquidation Team./MMM Aquatic Depopulation Team./MMM Revitalization Team.]"
147: 0x034B [0x25] WAIT_DIALOG_SELECT()
148: 0x034C [0x02] IF !(Work_Zone[0] == 0*) GOTO 0x0357
149: 0x0354 [0x01] GOTO 0x0362
150: 0x0357 [0x02] IF !(Work_Zone[0] == 1*) GOTO 0x0362
151: 0x035F [0x01] GOTO 0x0362

SUBROUTINE_0362:
152: 0x0362 [0x02] IF !(Work_Zone[0] <= 0*) GOTO 0x037E
153: 0x036A [0x42] SET_CLI_EVENT_CANCEL_DATA()
154: 0x036B [0x48] [System] [9883*]:
    → "Confirming registration data..."
155: 0x036E [0x30] SET_UCOFF_CONTINUE_ZERO()
156: 0x036F [0x40] SET_BIT_WORK_RANGE(start_bit=8*, end_bit=15*, target=Work_Zone[1], source=Work_Zone[0])
157: 0x0378 [0x06] ExtData[1]->WorkLocal[1] = 0
158: 0x037B [0x06] ExtData[1]->WorkLocal[2] = 0
159: 0x037E [0x01] GOTO 0x0381

SUBROUTINE_0381:
160: 0x0381 [0x01] GOTO 0x0049
161: 0x0384 [0x01] GOTO 0x03B8
162: 0x0387 [0x02] IF !(Work_Zone[0] == 2*) GOTO 0x0399
163: 0x038F [0x06] ExtData[1]->WorkLocal[1] = 0
164: 0x0392 [0x1D] PRINT_EVENT_MESSAGE(message_id=9880*)
    → "You trade me Maze Tabula, okay?"
165: 0x0395 [0x23] WAIT_FOR_DIALOG_INTERACTION
166: 0x0396 [0x01] GOTO 0x03B8
167: 0x0399 [0x02] IF !(Work_Zone[0] == 3*) GOTO 0x03B8
168: 0x03A1 [0x1D] PRINT_EVENT_MESSAGE(message_id=9867*)
    → "New maze opens up, I visit. Never miss one. You want to see the mazes I've seen? I make you copy...for price."
169: 0x03A4 [0x23] WAIT_FOR_DIALOG_INTERACTION
170: 0x03A5 [0x1D] PRINT_EVENT_MESSAGE(message_id=9868*)
    → "My copies good as real thing. Maybe better. But I make too many, Goldagrik yell at me. Say bad for business. So you can only use copy five times max, okay?"
171: 0x03A8 [0x23] WAIT_FOR_DIALOG_INTERACTION
172: 0x03A9 [0x1D] PRINT_EVENT_MESSAGE(message_id=9869*)
    → "Or maybe you a maze maker yourself? You give me maze, I copy. I give to others. Good times for all."
173: 0x03AC [0x23] WAIT_FOR_DIALOG_INTERACTION
174: 0x03AD [0x1D] PRINT_EVENT_MESSAGE(message_id=9870*)
    → "One catch. You want copy, you give me Moblin Marbles. New kid with no marbles? You go away. There better mazes for me to look at."
175: 0x03B0 [0x23] WAIT_FOR_DIALOG_INTERACTION
176: 0x03B1 [0x1D] PRINT_EVENT_MESSAGE(message_id=9871*)
    → "One more thing. I only copy maze I can remember. Popular maze, fun maze, I remember long time. So build good one."
177: 0x03B4 [0x23] WAIT_FOR_DIALOG_INTERACTION
178: 0x03B5 [0x01] GOTO 0x03B8

SUBROUTINE_03B8:
179: 0x03B8 [0x01] GOTO 0x0017
180: 0x03BB [0x21] END_EVENT
181: 0x03BC [0x00] END_REQSTACK()
```

### Event 20009

#### Metadata

| Field        | Value    |
|--------------|----------|
| Entrypoint   | 0x03BD   |
| Data Size    | 71 bytes |
| Instructions | 18       |

```
      00 01 02 03 04 05 06 07  08 09 0A 0B 0C 0D 0E 0F
      -- -- -- -- -- -- -- --  -- -- -- -- -- -- -- --
03B0:                                         03 01 10               ...
03C0: 00 80 42 20 01 71 20 02  10 03 10 04 10 05 10 06  ..B .q .........
03D0: 10 07 10 08 10 1D 21 80  23 71 21 24 22 80 04 80  ......!.#q!$"...
03E0: 01 80 25 02 00 10 01 80  00 F2 03 48 1A 80 30 01  ..%........H..0.
03F0: FD 03 02 00 10 04 80 00  FD 03 01 FD 03 03 01 10  ................
0400: 00 10 21 00                                       ..!.            
```

#### Opcodes

```
  0: 0x03BD [0x03] Work_Zone[1] = 1073741824*
  1: 0x03C2 [0x42] SET_CLI_EVENT_CANCEL_DATA()
  2: 0x03C3 [0x20] SET_CLI_EVENT_UC_FLAG: Lock player control
  3: 0x03C5 [0x71] USER_INPUT_HANDLER: Moblin Maze Mongers menu (sends packet 0x60) (params=[0x1002, 0x1003, 0x1004, 0x1005, 0x1006, 0x1007, 0x1008])
  4: 0x03D5 [0x1D] PRINT_EVENT_MESSAGE(message_id=9881*)
    → "You register this maze. Okay?"
  5: 0x03D8 [0x23] WAIT_FOR_DIALOG_INTERACTION
  6: 0x03D9 [0x71] USER_INPUT_HANDLER: MMM menu check
  7: 0x03DB [0x24] CREATE_DIALOG(message_id=9882*, default_option=1*, option_flags=0*)
    → "Proceed with registration? [Register./Cancel.]"
  8: 0x03E2 [0x25] WAIT_DIALOG_SELECT()
  9: 0x03E3 [0x02] IF !(Work_Zone[0] == 0*) GOTO 0x03F2
 10: 0x03EB [0x48] [System] [9883*]:
    → "Confirming registration data..."
 11: 0x03EE [0x30] SET_UCOFF_CONTINUE_ZERO()
 12: 0x03EF [0x01] GOTO 0x03FD
 13: 0x03F2 [0x02] IF !(Work_Zone[0] == 1*) GOTO 0x03FD
 14: 0x03FA [0x01] GOTO 0x03FD

SUBROUTINE_03FD:
 15: 0x03FD [0x03] Work_Zone[1] = Work_Zone[0]
 16: 0x0402 [0x21] END_EVENT
 17: 0x0403 [0x00] END_REQSTACK()
```

### Event 20070

#### Metadata

| Field        | Value   |
|--------------|---------|
| Entrypoint   | 0x0404  |
| Data Size    | 1 bytes |
| Instructions | 1       |

```
      00 01 02 03 04 05 06 07  08 09 0A 0B 0C 0D 0E 0F
      -- -- -- -- -- -- -- --  -- -- -- -- -- -- -- --
0400:             00                                        .           
```

#### Opcodes

```
  0: 0x0404 [0x00] END_REQSTACK()
```
