# 17780750 - Sattal-Mansal

## Common Data

| Field            | Value                 |
|------------------|-----------------------|
| Zone             | Lower Jeuno (ID: 245) |
| Block Size       | 1236 bytes            |
| Total Events     | 36                    |
| References Count | 58                    |

## List of Events

| Event ID                 | Entrypoint   |   Size |   Instructions |
|--------------------------|--------------|--------|----------------|
| [65535](#event-65535)    | 0x0000       |      1 |              1 |
| [11](#event-11)          | 0x0001       |     43 |              9 |
| [86](#event-86)          | 0x002C       |     12 |              3 |
| [65535.1](#event-655351) | 0x0038       |     16 |              5 |
| [65535.2](#event-655352) | 0x0048       |     36 |              4 |
| [22](#event-22)          | 0x006C       |     24 |              5 |
| [65535.3](#event-655353) | 0x0084       |     49 |             11 |
| [95](#event-95)          | 0x00B5       |     40 |             12 |
| [90](#event-90)          | 0x00DD       |     36 |             10 |
| [93](#event-93)          | 0x0101       |     75 |             21 |
| [94](#event-94)          | 0x014C       |     36 |             10 |
| [88](#event-88)          | 0x0170       |     36 |             10 |
| [87](#event-87)          | 0x0194       |     40 |             12 |
| [20](#event-20)          | 0x01BC       |     20 |              3 |
| [65535.4](#event-655354) | 0x01D0       |     28 |              8 |
| [65535.5](#event-655355) | 0x01EC       |      9 |              3 |
| [89](#event-89)          | 0x01F5       |     83 |             22 |
| [96](#event-96)          | 0x0248       |     45 |             15 |
| [91](#event-91)          | 0x0275       |     56 |             13 |
| [92](#event-92)          | 0x02AD       |     56 |             13 |
| [65535.6](#event-655356) | 0x02E5       |     16 |              2 |
| [65535.7](#event-655357) | 0x02F5       |     16 |              2 |
| [65535.8](#event-655358) | 0x0305       |     16 |              2 |
| [10061](#event-10061)    | 0x0315       |     40 |             12 |
| [10062](#event-10062)    | 0x033D       |      1 |              1 |
| [10063](#event-10063)    | 0x033E       |      1 |              1 |
| [10064](#event-10064)    | 0x033F       |      1 |              1 |
| [10065](#event-10065)    | 0x0340       |      1 |              1 |
| [10066](#event-10066)    | 0x0341       |      1 |              1 |
| [10067](#event-10067)    | 0x0342       |      1 |              1 |
| [10068](#event-10068)    | 0x0343       |      1 |              1 |
| [10069](#event-10069)    | 0x0344       |      1 |              1 |
| [10070](#event-10070)    | 0x0345       |      1 |              1 |
| [10071](#event-10071)    | 0x0346       |      1 |              1 |
| [10072](#event-10072)    | 0x0347       |      1 |              1 |
| [10125](#event-10125)    | 0x0348       |      1 |              1 |

## DAT References (imed_data)

|   Index | Hex Value   |   Dec Value |
|---------|-------------|-------------|
|       0 | 0x0028      |          40 |
|       1 | 0x21F5      |        8693 |
|       2 | 0xA1F8      |       41464 |
|       3 | 0xFFFFACA7  |  4294945959 |
|       4 | 0xFFFFFF9D  |  4294967197 |
|       5 | 0x058B      |        1419 |
|       6 | 0x9B0F      |       39695 |
|       7 | 0xFFFFA07C  |  4294942844 |
|       8 | 0x0078      |         120 |
|       9 | 0x00C8      |         200 |
|      10 | 0x0000      |           0 |
|      11 | 0x54B1      |       21681 |
|      12 | 0xFFFF36B1  |  4294915761 |
|      13 | 0x0F3D      |        3901 |
|      14 | 0x0974      |        2420 |
|      15 | 0x4C74      |       19572 |
|      16 | 0xFFFF3B9E  |  4294917022 |
|      17 | 0x486D      |       18541 |
|      18 | 0xFFFF324A  |  4294914634 |
|      19 | 0x0F3B      |        3899 |
|      20 | 0x4771      |       18289 |
|      21 | 0xFFFF297D  |  4294912381 |
|      22 | 0x0F1D      |        3869 |
|      23 | 0x1E24      |        7716 |
|      24 | 0x1E25      |        7717 |
|      25 | 0x003C      |          60 |
|      26 | 0x1E26      |        7718 |
|      27 | 0x1E27      |        7719 |
|      28 | 0x1E28      |        7720 |
|      29 | 0x1E29      |        7721 |
|      30 | 0x0001      |           1 |
|      31 | 0x1E2A      |        7722 |
|      32 | 0x1E2B      |        7723 |
|      33 | 0x1E2C      |        7724 |
|      34 | 0x1E2D      |        7725 |
|      35 | 0x1E2E      |        7726 |
|      36 | 0x1E2F      |        7727 |
|      37 | 0x840B      |       33803 |
|      38 | 0xFFFF5DF3  |  4294925811 |
|      39 | 0x086A      |        2154 |
|      40 | 0x002D      |          45 |
|      41 | 0x8592      |       34194 |
|      42 | 0xFFFF601C  |  4294926364 |
|      43 | 0x002E      |          46 |
|      44 | 0x01EF      |         495 |
|      45 | 0x002F      |          47 |
|      46 | 0x01EE      |         494 |
|      47 | 0x1E1D      |        7709 |
|      48 | 0x1E1E      |        7710 |
|      49 | 0x1E1F      |        7711 |
|      50 | 0x1E1A      |        7706 |
|      51 | 0x1E1B      |        7707 |
|      52 | 0x1E1C      |        7708 |
|      53 | 0x1E20      |        7712 |
|      54 | 0x00C9      |         201 |
|      55 | 0x1E22      |        7714 |
|      56 | 0x252B      |        9515 |
|      57 | 0x252C      |        9516 |

## String References

- **7706**: Our boss looks all hairy-scary, but he caves in to his sister Verena all the time.
- **7707**: Verena's a really nice girl. We all think she's super-duper swell.
- **7708**: But don't you lay a single-wingle finger on her. People who do... Well, they have a tendency to be found dead, floating off the pier. So please, keep that in mind.
- **7709**: Wait, so all you got from Aldo was $6? Kinda stingy-winjy of him, don't you think?
- **7710**: There's a place in Beadeaux where you need $6 and $6 just to get in. If you want, we can try to hook you up.
- **7711**: Tell you what. I'll trade you $6 for $5, and I'll let you have $6 if you find me $7.
- **7712**: Okey-dokey, here you go.
- **7714**: Okey-dokey, here you go.
- **7716**: I'm shocked... I'm stunned... I can't believe that Lady-wady Verena is missing. If I had the time, I'd be out there searching...
- **7717**: If anything happened to her, what would I do!?
- **7718**: That cutie-wootie Lion was here the other day talking to the boss. A lucky man, he is...
- **7719**: Lady-wady Verena is back, but she's not doing that good... What did she do to deserve this!?
- **7720**: What happened in Delkfutt's Tower!? You can tell me, we're buddy-wuddies!
- **7721**: Tell him about what happened? [Yes./No.]
- **7722**: No, wait... Maybe it's better that I don't know. I'll just pray for Lady-wady Verena's recovery, and ask her myself.
- **7723**: You mean, it was that bad...? Okay, just forget that I asked.
- **7724**: Lady-wady Verena's bak in tip-top shape? That's great! Maybe I should go in and see how she's doing... But what if she's forgotten who I was!?
- **7725**: The boss told me to get his equipment ready-steady. But, when I asked him where he was going, he told me to mind my own busy-business!
- **7726**: This is great! This is stupendous! I have a feeling that everything will finally-winally go back to being the way it was!
- **7727**: But I'm still kinda worried about Verena... She's growing up so fast!
- **8693**: That blue-haired girl was taken to Monberaux's after the attack. I'm pretty sure she'll be all right, though. Doctor M. is the best medic in town.
- **9515**: What's going on? The boss is walking around like he's seen the Gates of Paradise, or something.
- **9516**: He always gets like that when you're around. I don't get it, you don't look that special to me. It's starting to give me the heebie-jeebies...

## Events

### Event 65535

#### Metadata

| Field        | Value   |
|--------------|---------|
| Entrypoint   | 0x0000  |
| Data Size    | 1 bytes |
| Instructions | 1       |

```
      00 01 02 03 04 05 06 07  08 09 0A 0B 0C 0D 0E 0F
      -- -- -- -- -- -- -- --  -- -- -- -- -- -- -- --
0000: 00                                                .               
```

#### Opcodes

```
  0: 0x0000 [0x00] END_REQSTACK()
```

### Event 11

#### Metadata

| Field        | Value    |
|--------------|----------|
| Entrypoint   | 0x0001   |
| Data Size    | 43 bytes |
| Instructions | 9        |

```
      00 01 02 03 04 05 06 07  08 09 0A 0B 0C 0D 0E 0F
      -- -- -- -- -- -- -- --  -- -- -- -- -- -- -- --
0000:    1E F0 FF FF 7F 6F 70  66 00 80 F8 FF FF 7F F8   .....opf.......
0010: FF FF 7F 74 6C 6B 30 1D  01 80 23 66 00 80 F8 FF  ...tlk0...#f....
0020: FF 7F F8 FF FF 7F 74 6C  6B 31 21 00              ......tlk1!.    
```

#### Opcodes

```
  0: 0x0001 [0x1E] EventEntity looks at LocalPlayer and starts talking
  1: 0x0006 [0x6F] WAIT_FRAME_DELAY: Yield until WaitTime reaches zero
  2: 0x0007 [0x70] WAIT_ENTITY_RENDER_FLAG: Wait while EventEntity->Render.Flags3 bit 2 is set (cancel turn if not)
  3: 0x0008 [0x66] LOAD_EXT_SCHEDULER_MAIN: Load scheduler "tlk0" with entities [EventEntity, EventEntity], work=40*
  4: 0x0017 [0x1D] PRINT_EVENT_MESSAGE(message_id=8693*)
    → "That blue-haired girl was taken to Monberaux's after the attack. I'm pretty sure she'll be all right, though. Doctor M. is the best medic in town."
  5: 0x001A [0x23] WAIT_FOR_DIALOG_INTERACTION
  6: 0x001B [0x66] LOAD_EXT_SCHEDULER_MAIN: Load scheduler "tlk1" with entities [EventEntity, EventEntity], work=40*
  7: 0x002A [0x21] END_EVENT
  8: 0x002B [0x00] END_REQSTACK()
```

### Event 86

#### Metadata

| Field        | Value    |
|--------------|----------|
| Entrypoint   | 0x002C   |
| Data Size    | 12 bytes |
| Instructions | 3        |

```
      00 01 02 03 04 05 06 07  08 09 0A 0B 0C 0D 0E 0F
      -- -- -- -- -- -- -- --  -- -- -- -- -- -- -- --
0020:                                      37 02 80 03              7...
0030: 80 04 80 05 80 22 01 00                           ....."..        
```

#### Opcodes

```
  0: 0x002C [0x37] UPDATE_EVENT_POSITION_AND_DIR: x=41.464*, z=-21.337*, y=-0.099*, direction=124.7°*
  1: 0x0035 [0x22] ENTITY_HIDE_FLAG(enabled=0x01)
  2: 0x0037 [0x00] END_REQSTACK()
```

### Event 65535.1

#### Metadata

| Field        | Value    |
|--------------|----------|
| Entrypoint   | 0x0038   |
| Data Size    | 16 bytes |
| Instructions | 5        |

```
      00 01 02 03 04 05 06 07  08 09 0A 0B 0C 0D 0E 0F
      -- -- -- -- -- -- -- --  -- -- -- -- -- -- -- --
0030:                          32 00 80 1F 00 06 80 07          2.......
0040: 80 04 80 1F 01 22 01 00                           ....."..        
```

#### Opcodes

```
  0: 0x0038 [0x32] ExtData[1]->MainSpeed = 40* * 0.1
  1: 0x003B [0x1F] MOVE_ENTITY: EventEntity moves to X=39.695*, Z=-24.452*, Y=-0.099*
  2: 0x0043 [0x1F] MOVE_ENTITY: Update entity position (mode=1)
  3: 0x0045 [0x22] ENTITY_HIDE_FLAG(enabled=0x01)
  4: 0x0047 [0x00] END_REQSTACK()
```

### Event 65535.2

#### Metadata

| Field        | Value    |
|--------------|----------|
| Entrypoint   | 0x0048   |
| Data Size    | 36 bytes |
| Instructions | 4        |

```
      00 01 02 03 04 05 06 07  08 09 0A 0B 0C 0D 0E 0F
      -- -- -- -- -- -- -- --  -- -- -- -- -- -- -- --
0040:                          1C 08 80 45 09 80 F0 FF          ...E....
0050: FF 7F F0 FF FF 7F 66 64  6F 31 0A 80 55 09 80 F0  ......fdo1..U...
0060: FF FF 7F F0 FF FF 7F 66  64 6F 31 00              .......fdo1.    
```

#### Opcodes

```
  0: 0x0048 [0x1C] WAIT(120* ticks)
  1: 0x004B [0x45] LOAD_SCHEDULED_TASK: Load scheduler "fdo1" with entities [LocalPlayer, LocalPlayer], work=[200*, 0*]
  2: 0x005C [0x55] WAIT_LOAD_SCHEDULER: Wait for scheduler "fdo1" with entities [LocalPlayer, LocalPlayer], work=200*
  3: 0x006B [0x00] END_REQSTACK()
```

### Event 22

#### Metadata

| Field        | Value    |
|--------------|----------|
| Entrypoint   | 0x006C   |
| Data Size    | 24 bytes |
| Instructions | 5        |

```
      00 01 02 03 04 05 06 07  08 09 0A 0B 0C 0D 0E 0F
      -- -- -- -- -- -- -- --  -- -- -- -- -- -- -- --
0060:                                      22 01 94 01              "...
0070: F8 FF FF 7F 92 01 F8 FF  FF 7F 37 0B 80 0C 80 0D  ..........7.....
0080: 80 0E 80 00                                       ....            
```

#### Opcodes

```
  0: 0x006C [0x22] ENTITY_HIDE_FLAG(enabled=0x01)
  1: 0x006E [0x94] EventEntity->Render.Flags3 ^= 0x01
  2: 0x0074 [0x92] EventEntity->Render.Flags3 ^= 0x01
  3: 0x007A [0x37] UPDATE_EVENT_POSITION_AND_DIR: x=21.681*, z=-51.535*, y=3.901*, direction=212.7°*
  4: 0x0083 [0x00] END_REQSTACK()
```

### Event 65535.3

#### Metadata

| Field        | Value    |
|--------------|----------|
| Entrypoint   | 0x0084   |
| Data Size    | 49 bytes |
| Instructions | 11       |

```
      00 01 02 03 04 05 06 07  08 09 0A 0B 0C 0D 0E 0F
      -- -- -- -- -- -- -- --  -- -- -- -- -- -- -- --
0080:             32 00 80 1F  00 0F 80 10 80 0D 80 1F      2...........
0090: 01 1F 00 11 80 12 80 13  80 1F 01 1F 00 14 80 15  ................
00A0: 80 16 80 1F 01 6F 1E 07  50 0F 01 4A 05 50 0F 01  .....o..P..J.P..
00B0: F8 FF FF 7F 00                                    .....           
```

#### Opcodes

```
  0: 0x0084 [0x32] ExtData[1]->MainSpeed = 40* * 0.1
  1: 0x0087 [0x1F] MOVE_ENTITY: EventEntity moves to X=19.572*, Z=-50.274*, Y=3.901*
  2: 0x008F [0x1F] MOVE_ENTITY: Update entity position (mode=1)
  3: 0x0091 [0x1F] MOVE_ENTITY: EventEntity moves to X=18.541*, Z=-52.662*, Y=3.899*
  4: 0x0099 [0x1F] MOVE_ENTITY: Update entity position (mode=1)
  5: 0x009B [0x1F] MOVE_ENTITY: EventEntity moves to X=18.289*, Z=-54.915*, Y=3.869*
  6: 0x00A3 [0x1F] MOVE_ENTITY: Update entity position (mode=1)
  7: 0x00A5 [0x6F] WAIT_FRAME_DELAY: Yield until WaitTime reaches zero
  8: 0x00A6 [0x1E] EventEntity looks at Aldo (ID: 17780743/0x010F5007) and starts talking
  9: 0x00AB [0x4A] Ulmia (ID: 17780741/0x010F5005) looks at EventEntity
 10: 0x00B4 [0x00] END_REQSTACK()
```

### Event 95

#### Metadata

| Field        | Value    |
|--------------|----------|
| Entrypoint   | 0x00B5   |
| Data Size    | 40 bytes |
| Instructions | 12       |

```
      00 01 02 03 04 05 06 07  08 09 0A 0B 0C 0D 0E 0F
      -- -- -- -- -- -- -- --  -- -- -- -- -- -- -- --
00B0:                1E F0 FF  FF 7F 6F 70 66 00 80 F8       .....opf...
00C0: FF FF 7F F8 FF FF 7F 74  6C 6B 30 1D 17 80 23 1D  .......tlk0...#.
00D0: 18 80 23 5E 69 64 6C 30  1C 19 80 21 00           ..#^idl0...!.   
```

#### Opcodes

```
  0: 0x00B5 [0x1E] EventEntity looks at LocalPlayer and starts talking
  1: 0x00BA [0x6F] WAIT_FRAME_DELAY: Yield until WaitTime reaches zero
  2: 0x00BB [0x70] WAIT_ENTITY_RENDER_FLAG: Wait while EventEntity->Render.Flags3 bit 2 is set (cancel turn if not)
  3: 0x00BC [0x66] LOAD_EXT_SCHEDULER_MAIN: Load scheduler "tlk0" with entities [EventEntity, EventEntity], work=40*
  4: 0x00CB [0x1D] PRINT_EVENT_MESSAGE(message_id=7716*)
    → "I'm shocked... I'm stunned... I can't believe that Lady-wady Verena is missing. If I had the time, I'd be out there searching..."
  5: 0x00CE [0x23] WAIT_FOR_DIALOG_INTERACTION
  6: 0x00CF [0x1D] PRINT_EVENT_MESSAGE(message_id=7717*)
    → "If anything happened to her, what would I do!?"
  7: 0x00D2 [0x23] WAIT_FOR_DIALOG_INTERACTION
  8: 0x00D3 [0x5E] EventEntity goes idle (kills current action) (animation: "idl0")
  9: 0x00D8 [0x1C] WAIT(60* ticks)
 10: 0x00DB [0x21] END_EVENT
 11: 0x00DC [0x00] END_REQSTACK()
```

### Event 90

#### Metadata

| Field        | Value    |
|--------------|----------|
| Entrypoint   | 0x00DD   |
| Data Size    | 36 bytes |
| Instructions | 10       |

```
      00 01 02 03 04 05 06 07  08 09 0A 0B 0C 0D 0E 0F
      -- -- -- -- -- -- -- --  -- -- -- -- -- -- -- --
00D0:                                         1E F0 FF               ...
00E0: FF 7F 6F 70 66 00 80 F8  FF FF 7F F8 FF FF 7F 74  ..opf..........t
00F0: 6C 6B 30 1D 1A 80 23 5E  69 64 6C 30 1C 19 80 21  lk0...#^idl0...!
0100: 00                                                .               
```

#### Opcodes

```
  0: 0x00DD [0x1E] EventEntity looks at LocalPlayer and starts talking
  1: 0x00E2 [0x6F] WAIT_FRAME_DELAY: Yield until WaitTime reaches zero
  2: 0x00E3 [0x70] WAIT_ENTITY_RENDER_FLAG: Wait while EventEntity->Render.Flags3 bit 2 is set (cancel turn if not)
  3: 0x00E4 [0x66] LOAD_EXT_SCHEDULER_MAIN: Load scheduler "tlk0" with entities [EventEntity, EventEntity], work=40*
  4: 0x00F3 [0x1D] PRINT_EVENT_MESSAGE(message_id=7718*)
    → "That cutie-wootie Lion was here the other day talking to the boss. A lucky man, he is..."
  5: 0x00F6 [0x23] WAIT_FOR_DIALOG_INTERACTION
  6: 0x00F7 [0x5E] EventEntity goes idle (kills current action) (animation: "idl0")
  7: 0x00FC [0x1C] WAIT(60* ticks)
  8: 0x00FF [0x21] END_EVENT
  9: 0x0100 [0x00] END_REQSTACK()
```

### Event 93

#### Metadata

| Field        | Value    |
|--------------|----------|
| Entrypoint   | 0x0101   |
| Data Size    | 75 bytes |
| Instructions | 21       |

```
      00 01 02 03 04 05 06 07  08 09 0A 0B 0C 0D 0E 0F
      -- -- -- -- -- -- -- --  -- -- -- -- -- -- -- --
0100:    1E F0 FF FF 7F 6F 70  66 00 80 F8 FF FF 7F F8   .....opf.......
0110: FF FF 7F 74 6C 6B 30 1D  1B 80 23 1D 1C 80 23 5E  ...tlk0...#...#^
0120: 69 64 6C 30 24 1D 80 1E  80 0A 80 25 02 00 10 0A  idl0$......%....
0130: 80 00 3B 01 1D 1F 80 23  01 4A 01 02 00 10 1E 80  ..;....#.J......
0140: 00 4A 01 1D 20 80 23 01  4A 01 21 00              .J.. .#.J.!.    
```

#### Opcodes

```
  0: 0x0101 [0x1E] EventEntity looks at LocalPlayer and starts talking
  1: 0x0106 [0x6F] WAIT_FRAME_DELAY: Yield until WaitTime reaches zero
  2: 0x0107 [0x70] WAIT_ENTITY_RENDER_FLAG: Wait while EventEntity->Render.Flags3 bit 2 is set (cancel turn if not)
  3: 0x0108 [0x66] LOAD_EXT_SCHEDULER_MAIN: Load scheduler "tlk0" with entities [EventEntity, EventEntity], work=40*
  4: 0x0117 [0x1D] PRINT_EVENT_MESSAGE(message_id=7719*)
    → "Lady-wady Verena is back, but she's not doing that good... What did she do to deserve this!?"
  5: 0x011A [0x23] WAIT_FOR_DIALOG_INTERACTION
  6: 0x011B [0x1D] PRINT_EVENT_MESSAGE(message_id=7720*)
    → "What happened in Delkfutt's Tower!? You can tell me, we're buddy-wuddies!"
  7: 0x011E [0x23] WAIT_FOR_DIALOG_INTERACTION
  8: 0x011F [0x5E] EventEntity goes idle (kills current action) (animation: "idl0")
  9: 0x0124 [0x24] CREATE_DIALOG(message_id=7721*, default_option=1*, option_flags=0*)
    → "Tell him about what happened? [Yes./No.]"
 10: 0x012B [0x25] WAIT_DIALOG_SELECT()
 11: 0x012C [0x02] IF !(Work_Zone[0] == 0*) GOTO 0x013B
 12: 0x0134 [0x1D] PRINT_EVENT_MESSAGE(message_id=7722*)
    → "No, wait... Maybe it's better that I don't know. I'll just pray for Lady-wady Verena's recovery, and ask her myself."
 13: 0x0137 [0x23] WAIT_FOR_DIALOG_INTERACTION
 14: 0x0138 [0x01] GOTO 0x014A
 15: 0x013B [0x02] IF !(Work_Zone[0] == 1*) GOTO 0x014A
 16: 0x0143 [0x1D] PRINT_EVENT_MESSAGE(message_id=7723*)
    → "You mean, it was that bad...? Okay, just forget that I asked."
 17: 0x0146 [0x23] WAIT_FOR_DIALOG_INTERACTION
 18: 0x0147 [0x01] GOTO 0x014A

SUBROUTINE_014A:
 19: 0x014A [0x21] END_EVENT
 20: 0x014B [0x00] END_REQSTACK()
```

### Event 94

#### Metadata

| Field        | Value    |
|--------------|----------|
| Entrypoint   | 0x014C   |
| Data Size    | 36 bytes |
| Instructions | 10       |

```
      00 01 02 03 04 05 06 07  08 09 0A 0B 0C 0D 0E 0F
      -- -- -- -- -- -- -- --  -- -- -- -- -- -- -- --
0140:                                      1E F0 FF FF              ....
0150: 7F 6F 70 66 00 80 F8 FF  FF 7F F8 FF FF 7F 74 6C  .opf..........tl
0160: 6B 30 1D 21 80 23 5E 69  64 6C 30 1C 19 80 21 00  k0.!.#^idl0...!.
```

#### Opcodes

```
  0: 0x014C [0x1E] EventEntity looks at LocalPlayer and starts talking
  1: 0x0151 [0x6F] WAIT_FRAME_DELAY: Yield until WaitTime reaches zero
  2: 0x0152 [0x70] WAIT_ENTITY_RENDER_FLAG: Wait while EventEntity->Render.Flags3 bit 2 is set (cancel turn if not)
  3: 0x0153 [0x66] LOAD_EXT_SCHEDULER_MAIN: Load scheduler "tlk0" with entities [EventEntity, EventEntity], work=40*
  4: 0x0162 [0x1D] PRINT_EVENT_MESSAGE(message_id=7724*)
    → "Lady-wady Verena's bak in tip-top shape? That's great! Maybe I should go in and see how she's doing... But what if she's forgotten who I was!?"
  5: 0x0165 [0x23] WAIT_FOR_DIALOG_INTERACTION
  6: 0x0166 [0x5E] EventEntity goes idle (kills current action) (animation: "idl0")
  7: 0x016B [0x1C] WAIT(60* ticks)
  8: 0x016E [0x21] END_EVENT
  9: 0x016F [0x00] END_REQSTACK()
```

### Event 88

#### Metadata

| Field        | Value    |
|--------------|----------|
| Entrypoint   | 0x0170   |
| Data Size    | 36 bytes |
| Instructions | 10       |

```
      00 01 02 03 04 05 06 07  08 09 0A 0B 0C 0D 0E 0F
      -- -- -- -- -- -- -- --  -- -- -- -- -- -- -- --
0170: 1E F0 FF FF 7F 6F 70 66  00 80 F8 FF FF 7F F8 FF  .....opf........
0180: FF 7F 74 6C 6B 30 1D 22  80 23 5E 69 64 6C 30 1C  ..tlk0.".#^idl0.
0190: 19 80 21 00                                       ..!.            
```

#### Opcodes

```
  0: 0x0170 [0x1E] EventEntity looks at LocalPlayer and starts talking
  1: 0x0175 [0x6F] WAIT_FRAME_DELAY: Yield until WaitTime reaches zero
  2: 0x0176 [0x70] WAIT_ENTITY_RENDER_FLAG: Wait while EventEntity->Render.Flags3 bit 2 is set (cancel turn if not)
  3: 0x0177 [0x66] LOAD_EXT_SCHEDULER_MAIN: Load scheduler "tlk0" with entities [EventEntity, EventEntity], work=40*
  4: 0x0186 [0x1D] PRINT_EVENT_MESSAGE(message_id=7725*)
    → "The boss told me to get his equipment ready-steady. But, when I asked him where he was going, he told me to mind my own busy-business!"
  5: 0x0189 [0x23] WAIT_FOR_DIALOG_INTERACTION
  6: 0x018A [0x5E] EventEntity goes idle (kills current action) (animation: "idl0")
  7: 0x018F [0x1C] WAIT(60* ticks)
  8: 0x0192 [0x21] END_EVENT
  9: 0x0193 [0x00] END_REQSTACK()
```

### Event 87

#### Metadata

| Field        | Value    |
|--------------|----------|
| Entrypoint   | 0x0194   |
| Data Size    | 40 bytes |
| Instructions | 12       |

```
      00 01 02 03 04 05 06 07  08 09 0A 0B 0C 0D 0E 0F
      -- -- -- -- -- -- -- --  -- -- -- -- -- -- -- --
0190:             1E F0 FF FF  7F 6F 70 66 00 80 F8 FF      .....opf....
01A0: FF 7F F8 FF FF 7F 74 6C  6B 30 1D 23 80 23 1D 24  ......tlk0.#.#.$
01B0: 80 23 5E 69 64 6C 30 1C  19 80 21 00              .#^idl0...!.    
```

#### Opcodes

```
  0: 0x0194 [0x1E] EventEntity looks at LocalPlayer and starts talking
  1: 0x0199 [0x6F] WAIT_FRAME_DELAY: Yield until WaitTime reaches zero
  2: 0x019A [0x70] WAIT_ENTITY_RENDER_FLAG: Wait while EventEntity->Render.Flags3 bit 2 is set (cancel turn if not)
  3: 0x019B [0x66] LOAD_EXT_SCHEDULER_MAIN: Load scheduler "tlk0" with entities [EventEntity, EventEntity], work=40*
  4: 0x01AA [0x1D] PRINT_EVENT_MESSAGE(message_id=7726*)
    → "This is great! This is stupendous! I have a feeling that everything will finally-winally go back to being the way it was!"
  5: 0x01AD [0x23] WAIT_FOR_DIALOG_INTERACTION
  6: 0x01AE [0x1D] PRINT_EVENT_MESSAGE(message_id=7727*)
    → "But I'm still kinda worried about Verena... She's growing up so fast!"
  7: 0x01B1 [0x23] WAIT_FOR_DIALOG_INTERACTION
  8: 0x01B2 [0x5E] EventEntity goes idle (kills current action) (animation: "idl0")
  9: 0x01B7 [0x1C] WAIT(60* ticks)
 10: 0x01BA [0x21] END_EVENT
 11: 0x01BB [0x00] END_REQSTACK()
```

### Event 20

#### Metadata

| Field        | Value    |
|--------------|----------|
| Entrypoint   | 0x01BC   |
| Data Size    | 20 bytes |
| Instructions | 3        |

```
      00 01 02 03 04 05 06 07  08 09 0A 0B 0C 0D 0E 0F
      -- -- -- -- -- -- -- --  -- -- -- -- -- -- -- --
01B0:                                      37 25 80 26              7%.&
01C0: 80 13 80 27 80 79 00 F8  FF FF 7F 0C 50 0F 01 00  ...'.y......P...
```

#### Opcodes

```
  0: 0x01BC [0x37] UPDATE_EVENT_POSITION_AND_DIR: x=33.803*, z=-41.485*, y=3.899*, direction=189.3°*
  1: 0x01C5 [0x79] EventEntity looks at Yin Pocanakhu (ID: 17780748/0x010F500C) (Basic look)
  2: 0x01CF [0x00] END_REQSTACK()
```

### Event 65535.4

#### Metadata

| Field        | Value    |
|--------------|----------|
| Entrypoint   | 0x01D0   |
| Data Size    | 28 bytes |
| Instructions | 8        |

```
      00 01 02 03 04 05 06 07  08 09 0A 0B 0C 0D 0E 0F
      -- -- -- -- -- -- -- --  -- -- -- -- -- -- -- --
01D0: 1E F0 FF FF 7F 1C 28 80  32 00 80 1F 00 29 80 2A  ......(.2....).*
01E0: 80 13 80 1F 01 6F 1E F0  FF FF 7F 00              .....o......    
```

#### Opcodes

```
  0: 0x01D0 [0x1E] EventEntity looks at LocalPlayer and starts talking
  1: 0x01D5 [0x1C] WAIT(45* ticks)
  2: 0x01D8 [0x32] ExtData[1]->MainSpeed = 40* * 0.1
  3: 0x01DB [0x1F] MOVE_ENTITY: EventEntity moves to X=34.194*, Z=-40.932*, Y=3.899*
  4: 0x01E3 [0x1F] MOVE_ENTITY: Update entity position (mode=1)
  5: 0x01E5 [0x6F] WAIT_FRAME_DELAY: Yield until WaitTime reaches zero
  6: 0x01E6 [0x1E] EventEntity looks at LocalPlayer and starts talking
  7: 0x01EB [0x00] END_REQSTACK()
```

### Event 65535.5

#### Metadata

| Field        | Value   |
|--------------|---------|
| Entrypoint   | 0x01EC  |
| Data Size    | 9 bytes |
| Instructions | 3       |

```
      00 01 02 03 04 05 06 07  08 09 0A 0B 0C 0D 0E 0F
      -- -- -- -- -- -- -- --  -- -- -- -- -- -- -- --
01E0:                                      1C 19 80 1E              ....
01F0: 07 50 0F 01 00                                    .P...           
```

#### Opcodes

```
  0: 0x01EC [0x1C] WAIT(60* ticks)
  1: 0x01EF [0x1E] EventEntity looks at Aldo (ID: 17780743/0x010F5007) and starts talking
  2: 0x01F4 [0x00] END_REQSTACK()
```

### Event 89

#### Metadata

| Field        | Value    |
|--------------|----------|
| Entrypoint   | 0x01F5   |
| Data Size    | 83 bytes |
| Instructions | 22       |

```
      00 01 02 03 04 05 06 07  08 09 0A 0B 0C 0D 0E 0F
      -- -- -- -- -- -- -- --  -- -- -- -- -- -- -- --
01F0:                03 00 00  02 10 42 03 02 10 28 80       .....B...(.
0200: 03 06 10 2B 80 03 07 10  2C 80 03 08 10 2D 80 03  ...+....,....-..
0210: 09 10 2E 80 1E F0 FF FF  7F 6F 70 66 00 80 F8 FF  .........opf....
0220: FF 7F F8 FF FF 7F 74 6C  6B 30 02 00 00 0A 80 00  ......tlk0......
0230: 36 02 1D 2F 80 23 1D 30  80 23 1D 31 80 23 5E 69  6../.#.0.#.1.#^i
0240: 64 6C 30 1C 19 80 21 00                           dl0...!.        
```

#### Opcodes

```
  0: 0x01F5 [0x03] ExtData[1]->WorkLocal[0] = Work_Zone[2]
  1: 0x01FA [0x42] SET_CLI_EVENT_CANCEL_DATA()
  2: 0x01FB [0x03] Work_Zone[2] = 45*
  3: 0x0200 [0x03] Work_Zone[6] = 46*
  4: 0x0205 [0x03] Work_Zone[7] = 495*
  5: 0x020A [0x03] Work_Zone[8] = 47*
  6: 0x020F [0x03] Work_Zone[9] = 494*
  7: 0x0214 [0x1E] EventEntity looks at LocalPlayer and starts talking
  8: 0x0219 [0x6F] WAIT_FRAME_DELAY: Yield until WaitTime reaches zero
  9: 0x021A [0x70] WAIT_ENTITY_RENDER_FLAG: Wait while EventEntity->Render.Flags3 bit 2 is set (cancel turn if not)
 10: 0x021B [0x66] LOAD_EXT_SCHEDULER_MAIN: Load scheduler "tlk0" with entities [EventEntity, EventEntity], work=40*
 11: 0x022A [0x02] IF !(ExtData[1]->WorkLocal[0] == 0*) GOTO 0x0236
 12: 0x0232 [0x1D] PRINT_EVENT_MESSAGE(message_id=7709*)
    → "Wait, so all you got from Aldo was $6? Kinda stingy-winjy of him, don't you think?"
 13: 0x0235 [0x23] WAIT_FOR_DIALOG_INTERACTION
 14: 0x0236 [0x1D] PRINT_EVENT_MESSAGE(message_id=7710*)
    → "There's a place in Beadeaux where you need $6 and $6 just to get in. If you want, we can try to hook you up."
 15: 0x0239 [0x23] WAIT_FOR_DIALOG_INTERACTION
 16: 0x023A [0x1D] PRINT_EVENT_MESSAGE(message_id=7711*)
    → "Tell you what. I'll trade you $6 for $5, and I'll let you have $6 if you find me $7."
 17: 0x023D [0x23] WAIT_FOR_DIALOG_INTERACTION
 18: 0x023E [0x5E] EventEntity goes idle (kills current action) (animation: "idl0")
 19: 0x0243 [0x1C] WAIT(60* ticks)
 20: 0x0246 [0x21] END_EVENT
 21: 0x0247 [0x00] END_REQSTACK()
```

### Event 96

#### Metadata

| Field        | Value    |
|--------------|----------|
| Entrypoint   | 0x0248   |
| Data Size    | 45 bytes |
| Instructions | 15       |

```
      00 01 02 03 04 05 06 07  08 09 0A 0B 0C 0D 0E 0F
      -- -- -- -- -- -- -- --  -- -- -- -- -- -- -- --
0240:                          42 1E F0 FF FF 7F 6F 70          B.....op
0250: 66 00 80 F8 FF FF 7F F8  FF FF 7F 74 6C 6B 30 1D  f..........tlk0.
0260: 32 80 23 1D 33 80 23 1D  34 80 23 5E 69 64 6C 30  2.#.3.#.4.#^idl0
0270: 1C 19 80 21 00                                    ...!.           
```

#### Opcodes

```
  0: 0x0248 [0x42] SET_CLI_EVENT_CANCEL_DATA()
  1: 0x0249 [0x1E] EventEntity looks at LocalPlayer and starts talking
  2: 0x024E [0x6F] WAIT_FRAME_DELAY: Yield until WaitTime reaches zero
  3: 0x024F [0x70] WAIT_ENTITY_RENDER_FLAG: Wait while EventEntity->Render.Flags3 bit 2 is set (cancel turn if not)
  4: 0x0250 [0x66] LOAD_EXT_SCHEDULER_MAIN: Load scheduler "tlk0" with entities [EventEntity, EventEntity], work=40*
  5: 0x025F [0x1D] PRINT_EVENT_MESSAGE(message_id=7706*)
    → "Our boss looks all hairy-scary, but he caves in to his sister Verena all the time."
  6: 0x0262 [0x23] WAIT_FOR_DIALOG_INTERACTION
  7: 0x0263 [0x1D] PRINT_EVENT_MESSAGE(message_id=7707*)
    → "Verena's a really nice girl. We all think she's super-duper swell."
  8: 0x0266 [0x23] WAIT_FOR_DIALOG_INTERACTION
  9: 0x0267 [0x1D] PRINT_EVENT_MESSAGE(message_id=7708*)
    → "But don't you lay a single-wingle finger on her. People who do... Well, they have a tendency to be found dead, floating off the pier. So please, keep that in mind."
 10: 0x026A [0x23] WAIT_FOR_DIALOG_INTERACTION
 11: 0x026B [0x5E] EventEntity goes idle (kills current action) (animation: "idl0")
 12: 0x0270 [0x1C] WAIT(60* ticks)
 13: 0x0273 [0x21] END_EVENT
 14: 0x0274 [0x00] END_REQSTACK()
```

### Event 91

#### Metadata

| Field        | Value    |
|--------------|----------|
| Entrypoint   | 0x0275   |
| Data Size    | 56 bytes |
| Instructions | 13       |

```
      00 01 02 03 04 05 06 07  08 09 0A 0B 0C 0D 0E 0F
      -- -- -- -- -- -- -- --  -- -- -- -- -- -- -- --
0270:                20 01 42  1E F0 FF FF 7F 6F 70 66        .B.....opf
0280: 00 80 F8 FF FF 7F F8 FF  FF 7F 74 6C 6B 30 1D 35  ..........tlk0.5
0290: 80 23 45 36 80 F0 FF FF  7F F0 FF FF 7F 71 73 74  .#E6.........qst
02A0: 63 0A 80 5E 69 64 6C 30  1C 19 80 21 00           c..^idl0...!.   
```

#### Opcodes

```
  0: 0x0275 [0x20] SET_CLI_EVENT_UC_FLAG: Lock player control
  1: 0x0277 [0x42] SET_CLI_EVENT_CANCEL_DATA()
  2: 0x0278 [0x1E] EventEntity looks at LocalPlayer and starts talking
  3: 0x027D [0x6F] WAIT_FRAME_DELAY: Yield until WaitTime reaches zero
  4: 0x027E [0x70] WAIT_ENTITY_RENDER_FLAG: Wait while EventEntity->Render.Flags3 bit 2 is set (cancel turn if not)
  5: 0x027F [0x66] LOAD_EXT_SCHEDULER_MAIN: Load scheduler "tlk0" with entities [EventEntity, EventEntity], work=40*
  6: 0x028E [0x1D] PRINT_EVENT_MESSAGE(message_id=7712*)
    → "Okey-dokey, here you go."
  7: 0x0291 [0x23] WAIT_FOR_DIALOG_INTERACTION
  8: 0x0292 [0x45] LOAD_SCHEDULED_TASK: Load scheduler "qstc" with entities [LocalPlayer, LocalPlayer], work=[201*, 0*]
  9: 0x02A3 [0x5E] EventEntity goes idle (kills current action) (animation: "idl0")
 10: 0x02A8 [0x1C] WAIT(60* ticks)
 11: 0x02AB [0x21] END_EVENT
 12: 0x02AC [0x00] END_REQSTACK()
```

### Event 92

#### Metadata

| Field        | Value    |
|--------------|----------|
| Entrypoint   | 0x02AD   |
| Data Size    | 56 bytes |
| Instructions | 13       |

```
      00 01 02 03 04 05 06 07  08 09 0A 0B 0C 0D 0E 0F
      -- -- -- -- -- -- -- --  -- -- -- -- -- -- -- --
02A0:                                         20 01 42                .B
02B0: 1E F0 FF FF 7F 6F 70 66  00 80 F8 FF FF 7F F8 FF  .....opf........
02C0: FF 7F 74 6C 6B 30 1D 37  80 23 45 36 80 F0 FF FF  ..tlk0.7.#E6....
02D0: 7F F0 FF FF 7F 71 73 74  63 0A 80 5E 69 64 6C 30  .....qstc..^idl0
02E0: 1C 19 80 21 00                                    ...!.           
```

#### Opcodes

```
  0: 0x02AD [0x20] SET_CLI_EVENT_UC_FLAG: Lock player control
  1: 0x02AF [0x42] SET_CLI_EVENT_CANCEL_DATA()
  2: 0x02B0 [0x1E] EventEntity looks at LocalPlayer and starts talking
  3: 0x02B5 [0x6F] WAIT_FRAME_DELAY: Yield until WaitTime reaches zero
  4: 0x02B6 [0x70] WAIT_ENTITY_RENDER_FLAG: Wait while EventEntity->Render.Flags3 bit 2 is set (cancel turn if not)
  5: 0x02B7 [0x66] LOAD_EXT_SCHEDULER_MAIN: Load scheduler "tlk0" with entities [EventEntity, EventEntity], work=40*
  6: 0x02C6 [0x1D] PRINT_EVENT_MESSAGE(message_id=7714*)
    → "Okey-dokey, here you go."
  7: 0x02C9 [0x23] WAIT_FOR_DIALOG_INTERACTION
  8: 0x02CA [0x45] LOAD_SCHEDULED_TASK: Load scheduler "qstc" with entities [LocalPlayer, LocalPlayer], work=[201*, 0*]
  9: 0x02DB [0x5E] EventEntity goes idle (kills current action) (animation: "idl0")
 10: 0x02E0 [0x1C] WAIT(60* ticks)
 11: 0x02E3 [0x21] END_EVENT
 12: 0x02E4 [0x00] END_REQSTACK()
```

### Event 65535.6

#### Metadata

| Field        | Value    |
|--------------|----------|
| Entrypoint   | 0x02E5   |
| Data Size    | 16 bytes |
| Instructions | 2        |

```
      00 01 02 03 04 05 06 07  08 09 0A 0B 0C 0D 0E 0F
      -- -- -- -- -- -- -- --  -- -- -- -- -- -- -- --
02E0:                66 00 80  F8 FF FF 7F F8 FF FF 7F       f..........
02F0: 7A 69 74 30 00                                    zit0.           
```

#### Opcodes

```
  0: 0x02E5 [0x66] LOAD_EXT_SCHEDULER_MAIN: Load scheduler "zit0" with entities [EventEntity, EventEntity], work=40*
  1: 0x02F4 [0x00] END_REQSTACK()
```

### Event 65535.7

#### Metadata

| Field        | Value    |
|--------------|----------|
| Entrypoint   | 0x02F5   |
| Data Size    | 16 bytes |
| Instructions | 2        |

```
      00 01 02 03 04 05 06 07  08 09 0A 0B 0C 0D 0E 0F
      -- -- -- -- -- -- -- --  -- -- -- -- -- -- -- --
02F0:                66 00 80  F8 FF FF 7F F8 FF FF 7F       f..........
0300: 74 6C 6B 30 00                                    tlk0.           
```

#### Opcodes

```
  0: 0x02F5 [0x66] LOAD_EXT_SCHEDULER_MAIN: Load scheduler "tlk0" with entities [EventEntity, EventEntity], work=40*
  1: 0x0304 [0x00] END_REQSTACK()
```

### Event 65535.8

#### Metadata

| Field        | Value    |
|--------------|----------|
| Entrypoint   | 0x0305   |
| Data Size    | 16 bytes |
| Instructions | 2        |

```
      00 01 02 03 04 05 06 07  08 09 0A 0B 0C 0D 0E 0F
      -- -- -- -- -- -- -- --  -- -- -- -- -- -- -- --
0300:                66 00 80  F8 FF FF 7F F8 FF FF 7F       f..........
0310: 74 6C 6B 31 00                                    tlk1.           
```

#### Opcodes

```
  0: 0x0305 [0x66] LOAD_EXT_SCHEDULER_MAIN: Load scheduler "tlk1" with entities [EventEntity, EventEntity], work=40*
  1: 0x0314 [0x00] END_REQSTACK()
```

### Event 10061

#### Metadata

| Field        | Value    |
|--------------|----------|
| Entrypoint   | 0x0315   |
| Data Size    | 40 bytes |
| Instructions | 12       |

```
      00 01 02 03 04 05 06 07  08 09 0A 0B 0C 0D 0E 0F
      -- -- -- -- -- -- -- --  -- -- -- -- -- -- -- --
0310:                1E F0 FF  FF 7F 6F 70 66 00 80 F8       .....opf...
0320: FF FF 7F F8 FF FF 7F 74  6C 6B 30 1D 38 80 23 1D  .......tlk0.8.#.
0330: 39 80 23 5E 69 64 6C 30  1C 19 80 21 00           9.#^idl0...!.   
```

#### Opcodes

```
  0: 0x0315 [0x1E] EventEntity looks at LocalPlayer and starts talking
  1: 0x031A [0x6F] WAIT_FRAME_DELAY: Yield until WaitTime reaches zero
  2: 0x031B [0x70] WAIT_ENTITY_RENDER_FLAG: Wait while EventEntity->Render.Flags3 bit 2 is set (cancel turn if not)
  3: 0x031C [0x66] LOAD_EXT_SCHEDULER_MAIN: Load scheduler "tlk0" with entities [EventEntity, EventEntity], work=40*
  4: 0x032B [0x1D] PRINT_EVENT_MESSAGE(message_id=9515*)
    → "What's going on? The boss is walking around like he's seen the Gates of Paradise, or something."
  5: 0x032E [0x23] WAIT_FOR_DIALOG_INTERACTION
  6: 0x032F [0x1D] PRINT_EVENT_MESSAGE(message_id=9516*)
    → "He always gets like that when you're around. I don't get it, you don't look that special to me. It's starting to give me the heebie-jeebies..."
  7: 0x0332 [0x23] WAIT_FOR_DIALOG_INTERACTION
  8: 0x0333 [0x5E] EventEntity goes idle (kills current action) (animation: "idl0")
  9: 0x0338 [0x1C] WAIT(60* ticks)
 10: 0x033B [0x21] END_EVENT
 11: 0x033C [0x00] END_REQSTACK()
```

### Event 10062

#### Metadata

| Field        | Value   |
|--------------|---------|
| Entrypoint   | 0x033D  |
| Data Size    | 1 bytes |
| Instructions | 1       |

```
      00 01 02 03 04 05 06 07  08 09 0A 0B 0C 0D 0E 0F
      -- -- -- -- -- -- -- --  -- -- -- -- -- -- -- --
0330:                                         00                     .  
```

#### Opcodes

```
  0: 0x033D [0x00] END_REQSTACK()
```

### Event 10063

#### Metadata

| Field        | Value   |
|--------------|---------|
| Entrypoint   | 0x033E  |
| Data Size    | 1 bytes |
| Instructions | 1       |

```
      00 01 02 03 04 05 06 07  08 09 0A 0B 0C 0D 0E 0F
      -- -- -- -- -- -- -- --  -- -- -- -- -- -- -- --
0330:                                            00                   . 
```

#### Opcodes

```
  0: 0x033E [0x00] END_REQSTACK()
```

### Event 10064

#### Metadata

| Field        | Value   |
|--------------|---------|
| Entrypoint   | 0x033F  |
| Data Size    | 1 bytes |
| Instructions | 1       |

```
      00 01 02 03 04 05 06 07  08 09 0A 0B 0C 0D 0E 0F
      -- -- -- -- -- -- -- --  -- -- -- -- -- -- -- --
0330:                                               00                 .
```

#### Opcodes

```
  0: 0x033F [0x00] END_REQSTACK()
```

### Event 10065

#### Metadata

| Field        | Value   |
|--------------|---------|
| Entrypoint   | 0x0340  |
| Data Size    | 1 bytes |
| Instructions | 1       |

```
      00 01 02 03 04 05 06 07  08 09 0A 0B 0C 0D 0E 0F
      -- -- -- -- -- -- -- --  -- -- -- -- -- -- -- --
0340: 00                                                .               
```

#### Opcodes

```
  0: 0x0340 [0x00] END_REQSTACK()
```

### Event 10066

#### Metadata

| Field        | Value   |
|--------------|---------|
| Entrypoint   | 0x0341  |
| Data Size    | 1 bytes |
| Instructions | 1       |

```
      00 01 02 03 04 05 06 07  08 09 0A 0B 0C 0D 0E 0F
      -- -- -- -- -- -- -- --  -- -- -- -- -- -- -- --
0340:    00                                              .              
```

#### Opcodes

```
  0: 0x0341 [0x00] END_REQSTACK()
```

### Event 10067

#### Metadata

| Field        | Value   |
|--------------|---------|
| Entrypoint   | 0x0342  |
| Data Size    | 1 bytes |
| Instructions | 1       |

```
      00 01 02 03 04 05 06 07  08 09 0A 0B 0C 0D 0E 0F
      -- -- -- -- -- -- -- --  -- -- -- -- -- -- -- --
0340:       00                                            .             
```

#### Opcodes

```
  0: 0x0342 [0x00] END_REQSTACK()
```

### Event 10068

#### Metadata

| Field        | Value   |
|--------------|---------|
| Entrypoint   | 0x0343  |
| Data Size    | 1 bytes |
| Instructions | 1       |

```
      00 01 02 03 04 05 06 07  08 09 0A 0B 0C 0D 0E 0F
      -- -- -- -- -- -- -- --  -- -- -- -- -- -- -- --
0340:          00                                          .            
```

#### Opcodes

```
  0: 0x0343 [0x00] END_REQSTACK()
```

### Event 10069

#### Metadata

| Field        | Value   |
|--------------|---------|
| Entrypoint   | 0x0344  |
| Data Size    | 1 bytes |
| Instructions | 1       |

```
      00 01 02 03 04 05 06 07  08 09 0A 0B 0C 0D 0E 0F
      -- -- -- -- -- -- -- --  -- -- -- -- -- -- -- --
0340:             00                                        .           
```

#### Opcodes

```
  0: 0x0344 [0x00] END_REQSTACK()
```

### Event 10070

#### Metadata

| Field        | Value   |
|--------------|---------|
| Entrypoint   | 0x0345  |
| Data Size    | 1 bytes |
| Instructions | 1       |

```
      00 01 02 03 04 05 06 07  08 09 0A 0B 0C 0D 0E 0F
      -- -- -- -- -- -- -- --  -- -- -- -- -- -- -- --
0340:                00                                      .          
```

#### Opcodes

```
  0: 0x0345 [0x00] END_REQSTACK()
```

### Event 10071

#### Metadata

| Field        | Value   |
|--------------|---------|
| Entrypoint   | 0x0346  |
| Data Size    | 1 bytes |
| Instructions | 1       |

```
      00 01 02 03 04 05 06 07  08 09 0A 0B 0C 0D 0E 0F
      -- -- -- -- -- -- -- --  -- -- -- -- -- -- -- --
0340:                   00                                    .         
```

#### Opcodes

```
  0: 0x0346 [0x00] END_REQSTACK()
```

### Event 10072

#### Metadata

| Field        | Value   |
|--------------|---------|
| Entrypoint   | 0x0347  |
| Data Size    | 1 bytes |
| Instructions | 1       |

```
      00 01 02 03 04 05 06 07  08 09 0A 0B 0C 0D 0E 0F
      -- -- -- -- -- -- -- --  -- -- -- -- -- -- -- --
0340:                      00                                  .        
```

#### Opcodes

```
  0: 0x0347 [0x00] END_REQSTACK()
```

### Event 10125

#### Metadata

| Field        | Value   |
|--------------|---------|
| Entrypoint   | 0x0348  |
| Data Size    | 1 bytes |
| Instructions | 1       |

```
      00 01 02 03 04 05 06 07  08 09 0A 0B 0C 0D 0E 0F
      -- -- -- -- -- -- -- --  -- -- -- -- -- -- -- --
0340:                          00                               .       
```

#### Opcodes

```
  0: 0x0348 [0x00] END_REQSTACK()
```
