# 17780879 - Zauko

## Common Data

| Field            | Value                 |
|------------------|-----------------------|
| Zone             | Lower Jeuno (ID: 245) |
| Block Size       | 684 bytes             |
| Total Events     | 12                    |
| References Count | 39                    |

## List of Events

| Event ID              | Entrypoint   |   Size |   Instructions |
|-----------------------|--------------|--------|----------------|
| [65535](#event-65535) | 0x0000       |      1 |              1 |
| [116](#event-116)     | 0x0001       |    114 |             36 |
| [118](#event-118)     | 0x0073       |     90 |             28 |
| [115](#event-115)     | 0x00CD       |     13 |              6 |
| [114](#event-114)     | 0x00DA       |     13 |              6 |
| [117](#event-117)     | 0x00E7       |    144 |             40 |
| [119](#event-119)     | 0x0177       |     13 |              6 |
| [113](#event-113)     | 0x0184       |     33 |             10 |
| [50](#event-50)       | 0x01A5       |     37 |             15 |
| [10079](#event-10079) | 0x01CA       |      1 |              1 |
| [10081](#event-10081) | 0x01CB       |      1 |              1 |
| [10082](#event-10082) | 0x01CC       |      1 |              1 |

## DAT References (imed_data)

|   Index | Hex Value   |   Dec Value |
|---------|-------------|-------------|
|       0 | 0x0001      |           1 |
|       1 | 0x1C51      |        7249 |
|       2 | 0x1C50      |        7248 |
|       3 | 0x1C52      |        7250 |
|       4 | 0x0000      |           0 |
|       5 | 0x1C56      |        7254 |
|       6 | 0x1C53      |        7251 |
|       7 | 0x1C54      |        7252 |
|       8 | 0x1C55      |        7253 |
|       9 | 0x1C58      |        7256 |
|      10 | 0x1C57      |        7255 |
|      11 | 0x02C2      |         706 |
|      12 | 0x1C42      |        7234 |
|      13 | 0x1C43      |        7235 |
|      14 | 0x1C44      |        7236 |
|      15 | 0x1C4B      |        7243 |
|      16 | 0x1C4C      |        7244 |
|      17 | 0x1C4D      |        7245 |
|      18 | 0x1C4E      |        7246 |
|      19 | 0x1C59      |        7257 |
|      20 | 0x1C5A      |        7258 |
|      21 | 0x1C5C      |        7260 |
|      22 | 0x1C5B      |        7259 |
|      23 | 0x1C5D      |        7261 |
|      24 | 0x1C5E      |        7262 |
|      25 | 0x1C45      |        7237 |
|      26 | 0x1C46      |        7238 |
|      27 | 0x1C47      |        7239 |
|      28 | 0x1C48      |        7240 |
|      29 | 0x1C49      |        7241 |
|      30 | 0x1C4A      |        7242 |
|      31 | 0x00C9      |         201 |
|      32 | 0x1C5F      |        7263 |
|      33 | 0x1C60      |        7264 |
|      34 | 0x1C61      |        7265 |
|      35 | 0x1C6F      |        7279 |
|      36 | 0x1C70      |        7280 |
|      37 | 0x1BFC      |        7164 |
|      38 | 0x1BFD      |        7165 |

## String References

- **7164**: The petition is complete!
- **7165**: You have $0 more [signature/signatures] to go.
- **7234**: I am Zauko. I patrol Lower Jeuno.
- **7235**: We guards need more than muscle. We need the residents' trust.
- **7236**: Come see me if you're ever in trouble.
- **7237**: Oh, I meant to tell you. If you're interested in helping out on a regular basis, I have something for you.
- **7238**: It's $6. If you have this with you in Lower Jeuno, you'll know when I'm looking for someone to light the lamps.
- **7239**: How about it? You can always give it back when you get tired of hearing the announcement. Go ahead, take it.
- **7240**: Take the $3? [Sure, why not?/No thanks.]
- **7241**: That's the spirit. Can never have enough volunteers ready to keep the streets of Jeuno out of the dark.
- **7242**: I see... Well, come back if you change your mind. Can never have enough volunteers ready to keep the streets of Jeuno out of the dark.
- **7243**: So what do you think of the $3? Pretty handy, huh?
- **7244**: I think I'll... [...hang on to it./...give it back now.]
- **7245**: Sure, no problem. Be sure to lend a hand when the sun goes down.
- **7246**: Well, I hate to lose one of my volunteers. Speak to me again if you ever miss lamp-lighting duty.
- **7248**: Darkness falls soon. It's time to light the lamps. Maybe you could help? I could always use a hand.
- **7249**: Soon darkness falls. It's time to light the lamps. Do you want to help me again?
- **7250**: Will you help out? [Of course./No, not now.]
- **7251**: Don't worry. It's easy. See the twelve lamps on the sea side? Just light them for me.
- **7252**: It's no big task, but seeing the streets lit up at night brings warmth to my heart.
- **7253**: Heh. Poetic, isn't it? Well, you better get started. Try to finish before one in the morning.
- **7254**: Light the twelve lamps facing the ocean. I know you've done it before, but try to finish by one in the morning.
- **7255**: Oh? It's not hard. Come back if you change your mind.
- **7256**: Sorry. I already have a helper tonight. Maybe tomorrow.
- **7257**: It's too early. Lights on at nine o'clock.
- **7258**: Now you can begin. Do your best to finish by one o'clock. Thank you for your cooperation.
- **7259**: Good work. I can't pay you, but I hope you found the experience rewarding.
- **7260**: Good work. It's rewarding each and every time, isn't it? You know I can't pay you, but I'm always glad to see people come back.
- **7261**: Next time you come to Jeuno, think of the special evening when you gave light to its streets.
- **7262**: And if the lamps happen to be lit then, it means that others are doing their best for Jeuno. You'd make me happy if you remember that.
- **7263**: I am disappointed. Stay sharp next time.
- **7264**: Ahh, there's nothing like city streets lit up at night.
- **7265**: The lamps were lit by %0 today. If you happen to run across the person who took time out to bring light to our city, don't forget to say a word of thanks.
- **7279**: What? They're going to tear down the clock tower? Not if I can help it. What could they be thinking?
- **7280**: Damn the politicians! Of course I'll sign.

## Events

### Event 65535

#### Metadata

| Field        | Value   |
|--------------|---------|
| Entrypoint   | 0x0000  |
| Data Size    | 1 bytes |
| Instructions | 1       |

```
      00 01 02 03 04 05 06 07  08 09 0A 0B 0C 0D 0E 0F
      -- -- -- -- -- -- -- --  -- -- -- -- -- -- -- --
0000: 00                                                .               
```

#### Opcodes

```
  0: 0x0000 [0x00] END_REQSTACK()
```

### Event 116

#### Metadata

| Field        | Value     |
|--------------|-----------|
| Entrypoint   | 0x0001    |
| Data Size    | 114 bytes |
| Instructions | 36        |

```
      00 01 02 03 04 05 06 07  08 09 0A 0B 0C 0D 0E 0F
      -- -- -- -- -- -- -- --  -- -- -- -- -- -- -- --
0000:    03 00 00 02 10 20 01  1E F0 FF FF 7F 02 00 00   ..... .........
0010: 00 80 00 1C 00 1D 01 80  23 01 20 00 1D 02 80 23  ........#. ....#
0020: 24 03 80 04 80 04 80 25  02 00 10 04 80 00 62 00  $......%......b.
0030: 42 43 00 43 01 02 02 10  00 80 00 5B 00 02 00 00  BC.C.......[....
0040: 00 80 00 4C 00 1D 05 80  23 01 58 00 1D 06 80 23  ...L....#.X....#
0050: 1D 07 80 23 1D 08 80 23  01 5F 00 1D 09 80 23 01  ...#...#._....#.
0060: 71 00 02 00 10 00 80 00  71 00 1D 0A 80 23 01 71  q.......q....#.q
0070: 00 21 00                                          .!.             
```

#### Opcodes

```
  0: 0x0001 [0x03] ExtData[1]->WorkLocal[0] = Work_Zone[2]
  1: 0x0006 [0x20] SET_CLI_EVENT_UC_FLAG: Lock player control
  2: 0x0008 [0x1E] EventEntity looks at LocalPlayer and starts talking
  3: 0x000D [0x02] IF !(ExtData[1]->WorkLocal[0] == 1*) GOTO 0x001C
  4: 0x0015 [0x1D] PRINT_EVENT_MESSAGE(message_id=7249*)
    → "Soon darkness falls. It's time to light the lamps. Do you want to help me again?"
  5: 0x0018 [0x23] WAIT_FOR_DIALOG_INTERACTION
  6: 0x0019 [0x01] GOTO 0x0020
  7: 0x001C [0x1D] PRINT_EVENT_MESSAGE(message_id=7248*)
    → "Darkness falls soon. It's time to light the lamps. Maybe you could help? I could always use a hand."
  8: 0x001F [0x23] WAIT_FOR_DIALOG_INTERACTION

SUBROUTINE_0020:
  9: 0x0020 [0x24] CREATE_DIALOG(message_id=7250*, default_option=0*, option_flags=0*)
    → "Will you help out? [Of course./No, not now.]"
 10: 0x0027 [0x25] WAIT_DIALOG_SELECT()
 11: 0x0028 [0x02] IF !(Work_Zone[0] == 0*) GOTO 0x0062
 12: 0x0030 [0x42] SET_CLI_EVENT_CANCEL_DATA()
 13: 0x0031 [0x43] SEND_EVENT_UPDATE: Send pending tag to server (packet 0x005B)
 14: 0x0033 [0x43] SEND_EVENT_UPDATE: Check pending flag (skip if not pending)
 15: 0x0035 [0x02] IF !(Work_Zone[2] == 1*) GOTO 0x005B
 16: 0x003D [0x02] IF !(ExtData[1]->WorkLocal[0] == 1*) GOTO 0x004C
 17: 0x0045 [0x1D] PRINT_EVENT_MESSAGE(message_id=7254*)
    → "Light the twelve lamps facing the ocean. I know you've done it before, but try to finish by one in the morning."
 18: 0x0048 [0x23] WAIT_FOR_DIALOG_INTERACTION
 19: 0x0049 [0x01] GOTO 0x0058
 20: 0x004C [0x1D] PRINT_EVENT_MESSAGE(message_id=7251*)
    → "Don't worry. It's easy. See the twelve lamps on the sea side? Just light them for me."
 21: 0x004F [0x23] WAIT_FOR_DIALOG_INTERACTION
 22: 0x0050 [0x1D] PRINT_EVENT_MESSAGE(message_id=7252*)
    → "It's no big task, but seeing the streets lit up at night brings warmth to my heart."
 23: 0x0053 [0x23] WAIT_FOR_DIALOG_INTERACTION
 24: 0x0054 [0x1D] PRINT_EVENT_MESSAGE(message_id=7253*)
    → "Heh. Poetic, isn't it? Well, you better get started. Try to finish before one in the morning."
 25: 0x0057 [0x23] WAIT_FOR_DIALOG_INTERACTION

SUBROUTINE_0058:
 26: 0x0058 [0x01] GOTO 0x005F
 27: 0x005B [0x1D] PRINT_EVENT_MESSAGE(message_id=7256*)
    → "Sorry. I already have a helper tonight. Maybe tomorrow."
 28: 0x005E [0x23] WAIT_FOR_DIALOG_INTERACTION

SUBROUTINE_005F:
 29: 0x005F [0x01] GOTO 0x0071
 30: 0x0062 [0x02] IF !(Work_Zone[0] == 1*) GOTO 0x0071
 31: 0x006A [0x1D] PRINT_EVENT_MESSAGE(message_id=7255*)
    → "Oh? It's not hard. Come back if you change your mind."
 32: 0x006D [0x23] WAIT_FOR_DIALOG_INTERACTION
 33: 0x006E [0x01] GOTO 0x0071

SUBROUTINE_0071:
 34: 0x0071 [0x21] END_EVENT
 35: 0x0072 [0x00] END_REQSTACK()
```

### Event 118

#### Metadata

| Field        | Value    |
|--------------|----------|
| Entrypoint   | 0x0073   |
| Data Size    | 90 bytes |
| Instructions | 28       |

```
      00 01 02 03 04 05 06 07  08 09 0A 0B 0C 0D 0E 0F
      -- -- -- -- -- -- -- --  -- -- -- -- -- -- -- --
0070:          03 01 00 02 10  20 01 03 09 10 0B 80 1E     ..... .......
0080: F0 FF FF 7F 1D 0C 80 23  1D 0D 80 23 1D 0E 80 23  .......#...#...#
0090: 06 01 10 02 01 00 00 80  00 CB 00 1D 0F 80 23 24  ..............#$
00A0: 10 80 04 80 04 80 25 02  00 10 04 80 00 B6 00 1D  ......%.........
00B0: 11 80 23 01 CB 00 02 00  10 00 80 00 CB 00 42 1D  ..#...........B.
00C0: 12 80 23 03 01 10 00 80  01 CB 00 21 00           ..#........!.   
```

#### Opcodes

```
  0: 0x0073 [0x03] ExtData[1]->WorkLocal[1] = Work_Zone[2]
  1: 0x0078 [0x20] SET_CLI_EVENT_UC_FLAG: Lock player control
  2: 0x007A [0x03] Work_Zone[9] = 706*
  3: 0x007F [0x1E] EventEntity looks at LocalPlayer and starts talking
  4: 0x0084 [0x1D] PRINT_EVENT_MESSAGE(message_id=7234*)
    → "I am Zauko. I patrol Lower Jeuno."
  5: 0x0087 [0x23] WAIT_FOR_DIALOG_INTERACTION
  6: 0x0088 [0x1D] PRINT_EVENT_MESSAGE(message_id=7235*)
    → "We guards need more than muscle. We need the residents' trust."
  7: 0x008B [0x23] WAIT_FOR_DIALOG_INTERACTION
  8: 0x008C [0x1D] PRINT_EVENT_MESSAGE(message_id=7236*)
    → "Come see me if you're ever in trouble."
  9: 0x008F [0x23] WAIT_FOR_DIALOG_INTERACTION
 10: 0x0090 [0x06] Work_Zone[1] = 0
 11: 0x0093 [0x02] IF !(ExtData[1]->WorkLocal[1] == 1*) GOTO 0x00CB
 12: 0x009B [0x1D] PRINT_EVENT_MESSAGE(message_id=7243*)
    → "So what do you think of the $3? Pretty handy, huh?"
 13: 0x009E [0x23] WAIT_FOR_DIALOG_INTERACTION
 14: 0x009F [0x24] CREATE_DIALOG(message_id=7244*, default_option=0*, option_flags=0*)
    → "I think I'll... [...hang on to it./...give it back now.]"
 15: 0x00A6 [0x25] WAIT_DIALOG_SELECT()
 16: 0x00A7 [0x02] IF !(Work_Zone[0] == 0*) GOTO 0x00B6
 17: 0x00AF [0x1D] PRINT_EVENT_MESSAGE(message_id=7245*)
    → "Sure, no problem. Be sure to lend a hand when the sun goes down."
 18: 0x00B2 [0x23] WAIT_FOR_DIALOG_INTERACTION
 19: 0x00B3 [0x01] GOTO 0x00CB
 20: 0x00B6 [0x02] IF !(Work_Zone[0] == 1*) GOTO 0x00CB
 21: 0x00BE [0x42] SET_CLI_EVENT_CANCEL_DATA()
 22: 0x00BF [0x1D] PRINT_EVENT_MESSAGE(message_id=7246*)
    → "Well, I hate to lose one of my volunteers. Speak to me again if you ever miss lamp-lighting duty."
 23: 0x00C2 [0x23] WAIT_FOR_DIALOG_INTERACTION
 24: 0x00C3 [0x03] Work_Zone[1] = 1*
 25: 0x00C8 [0x01] GOTO 0x00CB

SUBROUTINE_00CB:
 26: 0x00CB [0x21] END_EVENT
 27: 0x00CC [0x00] END_REQSTACK()
```

### Event 115

#### Metadata

| Field        | Value    |
|--------------|----------|
| Entrypoint   | 0x00CD   |
| Data Size    | 13 bytes |
| Instructions | 6        |

```
      00 01 02 03 04 05 06 07  08 09 0A 0B 0C 0D 0E 0F
      -- -- -- -- -- -- -- --  -- -- -- -- -- -- -- --
00C0:                                         20 01 1E                ..
00D0: F0 FF FF 7F 1D 13 80 23  21 00                    .......#!.      
```

#### Opcodes

```
  0: 0x00CD [0x20] SET_CLI_EVENT_UC_FLAG: Lock player control
  1: 0x00CF [0x1E] EventEntity looks at LocalPlayer and starts talking
  2: 0x00D4 [0x1D] PRINT_EVENT_MESSAGE(message_id=7257*)
    → "It's too early. Lights on at nine o'clock."
  3: 0x00D7 [0x23] WAIT_FOR_DIALOG_INTERACTION
  4: 0x00D8 [0x21] END_EVENT
  5: 0x00D9 [0x00] END_REQSTACK()
```

### Event 114

#### Metadata

| Field        | Value    |
|--------------|----------|
| Entrypoint   | 0x00DA   |
| Data Size    | 13 bytes |
| Instructions | 6        |

```
      00 01 02 03 04 05 06 07  08 09 0A 0B 0C 0D 0E 0F
      -- -- -- -- -- -- -- --  -- -- -- -- -- -- -- --
00D0:                                20 01 1E F0 FF FF             .....
00E0: 7F 1D 14 80 23 21 00                              ....#!.         
```

#### Opcodes

```
  0: 0x00DA [0x20] SET_CLI_EVENT_UC_FLAG: Lock player control
  1: 0x00DC [0x1E] EventEntity looks at LocalPlayer and starts talking
  2: 0x00E1 [0x1D] PRINT_EVENT_MESSAGE(message_id=7258*)
    → "Now you can begin. Do your best to finish by one o'clock. Thank you for your cooperation."
  3: 0x00E4 [0x23] WAIT_FOR_DIALOG_INTERACTION
  4: 0x00E5 [0x21] END_EVENT
  5: 0x00E6 [0x00] END_REQSTACK()
```

### Event 117

#### Metadata

| Field        | Value     |
|--------------|-----------|
| Entrypoint   | 0x00E7    |
| Data Size    | 144 bytes |
| Instructions | 40        |

```
      00 01 02 03 04 05 06 07  08 09 0A 0B 0C 0D 0E 0F
      -- -- -- -- -- -- -- --  -- -- -- -- -- -- -- --
00E0:                      03  00 00 02 10 03 01 00 03         .........
00F0: 10 20 01 42 1E F0 FF FF  7F 02 00 00 00 80 00 08  . .B............
0100: 01 1D 15 80 23 01 0C 01  1D 16 80 23 1D 17 80 23  ....#......#...#
0110: 1D 18 80 23 06 01 10 02  00 00 00 80 00 64 01 02  ...#.........d..
0120: 01 00 04 80 00 64 01 03  09 10 0B 80 1D 19 80 23  .....d.........#
0130: 1D 1A 80 23 1D 1B 80 23  24 1C 80 00 80 04 80 25  ...#...#$......%
0140: 02 00 10 04 80 00 55 01  42 1D 1D 80 23 03 01 10  ......U.B...#...
0150: 00 80 01 64 01 02 00 10  00 80 00 64 01 1D 1E 80  ...d.......d....
0160: 23 01 64 01 45 1F 80 F0  FF FF 7F F0 FF FF 7F 71  #.d.E..........q
0170: 73 74 63 04 80 21 00                              stc..!.         
```

#### Opcodes

```
  0: 0x00E7 [0x03] ExtData[1]->WorkLocal[0] = Work_Zone[2]
  1: 0x00EC [0x03] ExtData[1]->WorkLocal[1] = Work_Zone[3]
  2: 0x00F1 [0x20] SET_CLI_EVENT_UC_FLAG: Lock player control
  3: 0x00F3 [0x42] SET_CLI_EVENT_CANCEL_DATA()
  4: 0x00F4 [0x1E] EventEntity looks at LocalPlayer and starts talking
  5: 0x00F9 [0x02] IF !(ExtData[1]->WorkLocal[0] == 1*) GOTO 0x0108
  6: 0x0101 [0x1D] PRINT_EVENT_MESSAGE(message_id=7260*)
    → "Good work. It's rewarding each and every time, isn't it? You know I can't pay you, but I'm always glad to see people come back."
  7: 0x0104 [0x23] WAIT_FOR_DIALOG_INTERACTION
  8: 0x0105 [0x01] GOTO 0x010C
  9: 0x0108 [0x1D] PRINT_EVENT_MESSAGE(message_id=7259*)
    → "Good work. I can't pay you, but I hope you found the experience rewarding."
 10: 0x010B [0x23] WAIT_FOR_DIALOG_INTERACTION

SUBROUTINE_010C:
 11: 0x010C [0x1D] PRINT_EVENT_MESSAGE(message_id=7261*)
    → "Next time you come to Jeuno, think of the special evening when you gave light to its streets."
 12: 0x010F [0x23] WAIT_FOR_DIALOG_INTERACTION
 13: 0x0110 [0x1D] PRINT_EVENT_MESSAGE(message_id=7262*)
    → "And if the lamps happen to be lit then, it means that others are doing their best for Jeuno. You'd make me happy if you remember that."
 14: 0x0113 [0x23] WAIT_FOR_DIALOG_INTERACTION
 15: 0x0114 [0x06] Work_Zone[1] = 0
 16: 0x0117 [0x02] IF !(ExtData[1]->WorkLocal[0] == 1*) GOTO 0x0164
 17: 0x011F [0x02] IF !(ExtData[1]->WorkLocal[1] == 0*) GOTO 0x0164
 18: 0x0127 [0x03] Work_Zone[9] = 706*
 19: 0x012C [0x1D] PRINT_EVENT_MESSAGE(message_id=7237*)
    → "Oh, I meant to tell you. If you're interested in helping out on a regular basis, I have something for you."
 20: 0x012F [0x23] WAIT_FOR_DIALOG_INTERACTION
 21: 0x0130 [0x1D] PRINT_EVENT_MESSAGE(message_id=7238*)
    → "It's $6. If you have this with you in Lower Jeuno, you'll know when I'm looking for someone to light the lamps."
 22: 0x0133 [0x23] WAIT_FOR_DIALOG_INTERACTION
 23: 0x0134 [0x1D] PRINT_EVENT_MESSAGE(message_id=7239*)
    → "How about it? You can always give it back when you get tired of hearing the announcement. Go ahead, take it."
 24: 0x0137 [0x23] WAIT_FOR_DIALOG_INTERACTION
 25: 0x0138 [0x24] CREATE_DIALOG(message_id=7240*, default_option=1*, option_flags=0*)
    → "Take the $3? [Sure, why not?/No thanks.]"
 26: 0x013F [0x25] WAIT_DIALOG_SELECT()
 27: 0x0140 [0x02] IF !(Work_Zone[0] == 0*) GOTO 0x0155
 28: 0x0148 [0x42] SET_CLI_EVENT_CANCEL_DATA()
 29: 0x0149 [0x1D] PRINT_EVENT_MESSAGE(message_id=7241*)
    → "That's the spirit. Can never have enough volunteers ready to keep the streets of Jeuno out of the dark."
 30: 0x014C [0x23] WAIT_FOR_DIALOG_INTERACTION
 31: 0x014D [0x03] Work_Zone[1] = 1*
 32: 0x0152 [0x01] GOTO 0x0164
 33: 0x0155 [0x02] IF !(Work_Zone[0] == 1*) GOTO 0x0164
 34: 0x015D [0x1D] PRINT_EVENT_MESSAGE(message_id=7242*)
    → "I see... Well, come back if you change your mind. Can never have enough volunteers ready to keep the streets of Jeuno out of the dark."
 35: 0x0160 [0x23] WAIT_FOR_DIALOG_INTERACTION
 36: 0x0161 [0x01] GOTO 0x0164

SUBROUTINE_0164:
 37: 0x0164 [0x45] LOAD_SCHEDULED_TASK: Load scheduler "qstc" with entities [LocalPlayer, LocalPlayer], work=[201*, 0*]
 38: 0x0175 [0x21] END_EVENT
 39: 0x0176 [0x00] END_REQSTACK()
```

### Event 119

#### Metadata

| Field        | Value    |
|--------------|----------|
| Entrypoint   | 0x0177   |
| Data Size    | 13 bytes |
| Instructions | 6        |

```
      00 01 02 03 04 05 06 07  08 09 0A 0B 0C 0D 0E 0F
      -- -- -- -- -- -- -- --  -- -- -- -- -- -- -- --
0170:                      20  01 1E F0 FF FF 7F 1D 20          ....... 
0180: 80 23 21 00                                       .#!.            
```

#### Opcodes

```
  0: 0x0177 [0x20] SET_CLI_EVENT_UC_FLAG: Lock player control
  1: 0x0179 [0x1E] EventEntity looks at LocalPlayer and starts talking
  2: 0x017E [0x1D] PRINT_EVENT_MESSAGE(message_id=7263*)
    → "I am disappointed. Stay sharp next time."
  3: 0x0181 [0x23] WAIT_FOR_DIALOG_INTERACTION
  4: 0x0182 [0x21] END_EVENT
  5: 0x0183 [0x00] END_REQSTACK()
```

### Event 113

#### Metadata

| Field        | Value    |
|--------------|----------|
| Entrypoint   | 0x0184   |
| Data Size    | 33 bytes |
| Instructions | 10       |

```
      00 01 02 03 04 05 06 07  08 09 0A 0B 0C 0D 0E 0F
      -- -- -- -- -- -- -- --  -- -- -- -- -- -- -- --
0180:             20 01 1E F0  FF FF 7F 1D 21 80 23 02       .......!.#.
0190: 03 10 04 80 00 A3 01 02  02 10 00 80 00 A3 01 1D  ................
01A0: 22 80 23 21 00                                    ".#!.           
```

#### Opcodes

```
  0: 0x0184 [0x20] SET_CLI_EVENT_UC_FLAG: Lock player control
  1: 0x0186 [0x1E] EventEntity looks at LocalPlayer and starts talking
  2: 0x018B [0x1D] PRINT_EVENT_MESSAGE(message_id=7264*)
    → "Ahh, there's nothing like city streets lit up at night."
  3: 0x018E [0x23] WAIT_FOR_DIALOG_INTERACTION
  4: 0x018F [0x02] IF !(Work_Zone[3] == 0*) GOTO 0x01A3
  5: 0x0197 [0x02] IF !(Work_Zone[2] == 1*) GOTO 0x01A3
  6: 0x019F [0x1D] PRINT_EVENT_MESSAGE(message_id=7265*)
    → "The lamps were lit by %0 today. If you happen to run across the person who took time out to bring light to our city, don't forget to say a word of thanks."
  7: 0x01A2 [0x23] WAIT_FOR_DIALOG_INTERACTION
  8: 0x01A3 [0x21] END_EVENT
  9: 0x01A4 [0x00] END_REQSTACK()
```

### Event 50

#### Metadata

| Field        | Value    |
|--------------|----------|
| Entrypoint   | 0x01A5   |
| Data Size    | 37 bytes |
| Instructions | 15       |

```
      00 01 02 03 04 05 06 07  08 09 0A 0B 0C 0D 0E 0F
      -- -- -- -- -- -- -- --  -- -- -- -- -- -- -- --
01A0:                20 01 42  1E F0 FF FF 7F 1D 23 80        .B......#.
01B0: 23 1D 24 80 23 02 02 10  04 80 00 C4 01 48 25 80  #.$.#........H%.
01C0: 23 01 C8 01 48 26 80 23  21 00                    #...H&.#!.      
```

#### Opcodes

```
  0: 0x01A5 [0x20] SET_CLI_EVENT_UC_FLAG: Lock player control
  1: 0x01A7 [0x42] SET_CLI_EVENT_CANCEL_DATA()
  2: 0x01A8 [0x1E] EventEntity looks at LocalPlayer and starts talking
  3: 0x01AD [0x1D] PRINT_EVENT_MESSAGE(message_id=7279*)
    → "What? They're going to tear down the clock tower? Not if I can help it. What could they be thinking?"
  4: 0x01B0 [0x23] WAIT_FOR_DIALOG_INTERACTION
  5: 0x01B1 [0x1D] PRINT_EVENT_MESSAGE(message_id=7280*)
    → "Damn the politicians! Of course I'll sign."
  6: 0x01B4 [0x23] WAIT_FOR_DIALOG_INTERACTION
  7: 0x01B5 [0x02] IF !(Work_Zone[2] == 0*) GOTO 0x01C4
  8: 0x01BD [0x48] [System] [7164*]:
    → "The petition is complete!"
  9: 0x01C0 [0x23] WAIT_FOR_DIALOG_INTERACTION
 10: 0x01C1 [0x01] GOTO 0x01C8
 11: 0x01C4 [0x48] [System] [7165*]:
    → "You have $0 more [signature/signatures] to go."
 12: 0x01C7 [0x23] WAIT_FOR_DIALOG_INTERACTION

SUBROUTINE_01C8:
 13: 0x01C8 [0x21] END_EVENT
 14: 0x01C9 [0x00] END_REQSTACK()
```

### Event 10079

#### Metadata

| Field        | Value   |
|--------------|---------|
| Entrypoint   | 0x01CA  |
| Data Size    | 1 bytes |
| Instructions | 1       |

```
      00 01 02 03 04 05 06 07  08 09 0A 0B 0C 0D 0E 0F
      -- -- -- -- -- -- -- --  -- -- -- -- -- -- -- --
01C0:                                00                           .     
```

#### Opcodes

```
  0: 0x01CA [0x00] END_REQSTACK()
```

### Event 10081

#### Metadata

| Field        | Value   |
|--------------|---------|
| Entrypoint   | 0x01CB  |
| Data Size    | 1 bytes |
| Instructions | 1       |

```
      00 01 02 03 04 05 06 07  08 09 0A 0B 0C 0D 0E 0F
      -- -- -- -- -- -- -- --  -- -- -- -- -- -- -- --
01C0:                                   00                         .    
```

#### Opcodes

```
  0: 0x01CB [0x00] END_REQSTACK()
```

### Event 10082

#### Metadata

| Field        | Value   |
|--------------|---------|
| Entrypoint   | 0x01CC  |
| Data Size    | 1 bytes |
| Instructions | 1       |

```
      00 01 02 03 04 05 06 07  08 09 0A 0B 0C 0D 0E 0F
      -- -- -- -- -- -- -- --  -- -- -- -- -- -- -- --
01C0:                                      00                       .   
```

#### Opcodes

```
  0: 0x01CC [0x00] END_REQSTACK()
```
