# 17780935 - NPC03

## Common Data

| Field            | Value                 |
|------------------|-----------------------|
| Zone             | Lower Jeuno (ID: 245) |
| Block Size       | 524 bytes             |
| Total Events     | 22                    |
| References Count | 22                    |

## List of Events

| Event ID                   | Entrypoint   |   Size |   Instructions |
|----------------------------|--------------|--------|----------------|
| [65535](#event-65535)      | 0x0000       |      1 |              1 |
| [10094](#event-10094)      | 0x0001       |      4 |              2 |
| [65535.1](#event-655351)   | 0x0005       |     29 |              4 |
| [65535.2](#event-655352)   | 0x0022       |     16 |              2 |
| [65535.3](#event-655353)   | 0x0032       |     16 |              2 |
| [65535.4](#event-655354)   | 0x0042       |     16 |              2 |
| [65535.5](#event-655355)   | 0x0052       |     16 |              2 |
| [65535.6](#event-655356)   | 0x0062       |     16 |              2 |
| [65535.7](#event-655357)   | 0x0072       |     29 |              4 |
| [65535.8](#event-655358)   | 0x008F       |     16 |              2 |
| [65535.9](#event-655359)   | 0x009F       |     16 |              2 |
| [65535.10](#event-6553510) | 0x00AF       |     14 |              4 |
| [65535.11](#event-6553511) | 0x00BD       |     14 |              4 |
| [65535.12](#event-6553512) | 0x00CB       |     15 |              5 |
| [65535.13](#event-6553513) | 0x00DA       |     16 |              2 |
| [65535.14](#event-6553514) | 0x00EA       |     16 |              2 |
| [65535.15](#event-6553515) | 0x00FA       |     16 |              2 |
| [65535.16](#event-6553516) | 0x010A       |     16 |              2 |
| [65535.17](#event-6553517) | 0x011A       |     16 |              2 |
| [65535.18](#event-6553518) | 0x012A       |     16 |              2 |
| [65535.19](#event-6553519) | 0x013A       |     15 |              5 |
| [65535.20](#event-6553520) | 0x0149       |      3 |              2 |

## DAT References (imed_data)

|   Index | Hex Value   |   Dec Value |
|---------|-------------|-------------|
|       0 | 0x0001      |           1 |
|       1 | 0x0042      |          66 |
|       2 | 0x007D      |         125 |
|       3 | 0x007F      |         127 |
|       4 | 0x0A1C      |        2588 |
|       5 | 0x004B      |          75 |
|       6 | 0x00AA      |         170 |
|       7 | 0x000D      |          13 |
|       8 | 0xFFFFFEB5  |  4294966965 |
|       9 | 0x83E4      |       33764 |
|      10 | 0xFFFF4099  |  4294918297 |
|      11 | 0xFFFFFED3  |  4294966995 |
|      12 | 0x8047      |       32839 |
|      13 | 0xFFFFFFB9  |  4294967225 |
|      14 | 0x1B25      |        6949 |
|      15 | 0xFFFF4868  |  4294920296 |
|      16 | 0x00AB      |         171 |
|      17 | 0x0A37      |        2615 |
|      18 | 0x000A      |          10 |
|      19 | 0xFFFF8CC2  |  4294937794 |
|      20 | 0x2ECE4     |      191716 |
|      21 | 0xFFFFC180  |  4294951296 |

## Events

### Event 65535

#### Metadata

| Field        | Value   |
|--------------|---------|
| Entrypoint   | 0x0000  |
| Data Size    | 1 bytes |
| Instructions | 1       |

```
      00 01 02 03 04 05 06 07  08 09 0A 0B 0C 0D 0E 0F
      -- -- -- -- -- -- -- --  -- -- -- -- -- -- -- --
0000: 00                                                .               
```

#### Opcodes

```
  0: 0x0000 [0x00] END_REQSTACK()
```

### Event 10094

#### Metadata

| Field        | Value   |
|--------------|---------|
| Entrypoint   | 0x0001  |
| Data Size    | 4 bytes |
| Instructions | 2       |

```
      00 01 02 03 04 05 06 07  08 09 0A 0B 0C 0D 0E 0F
      -- -- -- -- -- -- -- --  -- -- -- -- -- -- -- --
0000:    C0 00 80 00                                     ....           
```

#### Opcodes

```
  0: 0x0001 [0xC0] EventEntity->Render.Flags3 |= 0x1000 // Set bit 12 (from 1*)
  1: 0x0004 [0x00] END_REQSTACK()
```

### Event 65535.1

#### Metadata

| Field        | Value    |
|--------------|----------|
| Entrypoint   | 0x0005   |
| Data Size    | 29 bytes |
| Instructions | 4        |

```
      00 01 02 03 04 05 06 07  08 09 0A 0B 0C 0D 0E 0F
      -- -- -- -- -- -- -- --  -- -- -- -- -- -- -- --
0000:                B6 00 01  80 B4 00 00 00 43 6C 61       ........Cla
0010: 69 64 69 65 00 00 00 00  00 00 00 00 00 B5 00 00  idie............
0020: 00 00                                             ..              
```

#### Opcodes

```
  0: 0x0005 [0xB6] ENTITY_APPEARANCE_HANDLER(case=Hair style, value=66*)
  1: 0x0009 [0xB4] UI_WINDOW_STRING_HANDLER(case=0x00 - Copy string from opcode, work_offset=ExtData[1]->WorkLocal[0], string="Claidie")
  2: 0x001D [0xB5] SET_EVENT_ENTITY_NAME: Change EventEntity name to ExtData[1]->WorkLocal[0]
  3: 0x0021 [0x00] END_REQSTACK()
```

### Event 65535.2

#### Metadata

| Field        | Value    |
|--------------|----------|
| Entrypoint   | 0x0022   |
| Data Size    | 16 bytes |
| Instructions | 2        |

```
      00 01 02 03 04 05 06 07  08 09 0A 0B 0C 0D 0E 0F
      -- -- -- -- -- -- -- --  -- -- -- -- -- -- -- --
0020:       5B 02 80 F8 FF FF  7F F8 FF FF 7F 70 72 79    [..........pry
0030: 30 00                                             0.              
```

#### Opcodes

```
  0: 0x0022 [0x5B] LOAD_EXT_SCHEDULER: Load scheduler "pry0" with entities [EventEntity, EventEntity], work=125*
  1: 0x0031 [0x00] END_REQSTACK()
```

### Event 65535.3

#### Metadata

| Field        | Value    |
|--------------|----------|
| Entrypoint   | 0x0032   |
| Data Size    | 16 bytes |
| Instructions | 2        |

```
      00 01 02 03 04 05 06 07  08 09 0A 0B 0C 0D 0E 0F
      -- -- -- -- -- -- -- --  -- -- -- -- -- -- -- --
0030:       5B 02 80 F8 FF FF  7F F8 FF FF 7F 70 72 79    [..........pry
0040: 31 00                                             1.              
```

#### Opcodes

```
  0: 0x0032 [0x5B] LOAD_EXT_SCHEDULER: Load scheduler "pry1" with entities [EventEntity, EventEntity], work=125*
  1: 0x0041 [0x00] END_REQSTACK()
```

### Event 65535.4

#### Metadata

| Field        | Value    |
|--------------|----------|
| Entrypoint   | 0x0042   |
| Data Size    | 16 bytes |
| Instructions | 2        |

```
      00 01 02 03 04 05 06 07  08 09 0A 0B 0C 0D 0E 0F
      -- -- -- -- -- -- -- --  -- -- -- -- -- -- -- --
0040:       5B 03 80 F8 FF FF  7F F8 FF FF 7F 6D 62 73    [..........mbs
0050: 30 00                                             0.              
```

#### Opcodes

```
  0: 0x0042 [0x5B] LOAD_EXT_SCHEDULER: Load scheduler "mbs0" with entities [EventEntity, EventEntity], work=127*
  1: 0x0051 [0x00] END_REQSTACK()
```

### Event 65535.5

#### Metadata

| Field        | Value    |
|--------------|----------|
| Entrypoint   | 0x0052   |
| Data Size    | 16 bytes |
| Instructions | 2        |

```
      00 01 02 03 04 05 06 07  08 09 0A 0B 0C 0D 0E 0F
      -- -- -- -- -- -- -- --  -- -- -- -- -- -- -- --
0050:       5B 04 80 F8 FF FF  7F F8 FF FF 7F 6F 70 30    [..........op0
0060: 30 00                                             0.              
```

#### Opcodes

```
  0: 0x0052 [0x5B] LOAD_EXT_SCHEDULER: Load scheduler "op00" with entities [EventEntity, EventEntity], work=2588*
  1: 0x0061 [0x00] END_REQSTACK()
```

### Event 65535.6

#### Metadata

| Field        | Value    |
|--------------|----------|
| Entrypoint   | 0x0062   |
| Data Size    | 16 bytes |
| Instructions | 2        |

```
      00 01 02 03 04 05 06 07  08 09 0A 0B 0C 0D 0E 0F
      -- -- -- -- -- -- -- --  -- -- -- -- -- -- -- --
0060:       5B 04 80 F8 FF FF  7F F8 FF FF 7F 6F 70 30    [..........op0
0070: 31 00                                             1.              
```

#### Opcodes

```
  0: 0x0062 [0x5B] LOAD_EXT_SCHEDULER: Load scheduler "op01" with entities [EventEntity, EventEntity], work=2588*
  1: 0x0071 [0x00] END_REQSTACK()
```

### Event 65535.7

#### Metadata

| Field        | Value    |
|--------------|----------|
| Entrypoint   | 0x0072   |
| Data Size    | 29 bytes |
| Instructions | 4        |

```
      00 01 02 03 04 05 06 07  08 09 0A 0B 0C 0D 0E 0F
      -- -- -- -- -- -- -- --  -- -- -- -- -- -- -- --
0070:       B6 00 05 80 B4 13  00 00 53 74 61 72 40 53    ........Star@S
0080: 69 62 79 6C 00 00 00 00  00 00 B5 00 00 00 00     ibyl........... 
```

#### Opcodes

```
  0: 0x0072 [0xB6] ENTITY_APPEARANCE_HANDLER(case=Hair style, value=75*)
  1: 0x0076 [0xB4] UI_WINDOW_STRING_HANDLER(case=0x13 - Copy string and replace @ with space, work_offset=ExtData[1]->WorkLocal[0], string="Star@Sibyl")
  2: 0x008A [0xB5] SET_EVENT_ENTITY_NAME: Change EventEntity name to ExtData[1]->WorkLocal[0]
  3: 0x008E [0x00] END_REQSTACK()
```

### Event 65535.8

#### Metadata

| Field        | Value    |
|--------------|----------|
| Entrypoint   | 0x008F   |
| Data Size    | 16 bytes |
| Instructions | 2        |

```
      00 01 02 03 04 05 06 07  08 09 0A 0B 0C 0D 0E 0F
      -- -- -- -- -- -- -- --  -- -- -- -- -- -- -- --
0080:                                               5B                 [
0090: 06 80 F8 FF FF 7F F8 FF  FF 7F 74 6C 61 30 00     ..........tla0. 
```

#### Opcodes

```
  0: 0x008F [0x5B] LOAD_EXT_SCHEDULER: Load scheduler "tla0" with entities [EventEntity, EventEntity], work=170*
  1: 0x009E [0x00] END_REQSTACK()
```

### Event 65535.9

#### Metadata

| Field        | Value    |
|--------------|----------|
| Entrypoint   | 0x009F   |
| Data Size    | 16 bytes |
| Instructions | 2        |

```
      00 01 02 03 04 05 06 07  08 09 0A 0B 0C 0D 0E 0F
      -- -- -- -- -- -- -- --  -- -- -- -- -- -- -- --
0090:                                               5B                 [
00A0: 06 80 F8 FF FF 7F F8 FF  FF 7F 74 6C 61 31 00     ..........tla1. 
```

#### Opcodes

```
  0: 0x009F [0x5B] LOAD_EXT_SCHEDULER: Load scheduler "tla1" with entities [EventEntity, EventEntity], work=170*
  1: 0x00AE [0x00] END_REQSTACK()
```

### Event 65535.10

#### Metadata

| Field        | Value    |
|--------------|----------|
| Entrypoint   | 0x00AF   |
| Data Size    | 14 bytes |
| Instructions | 4        |

```
      00 01 02 03 04 05 06 07  08 09 0A 0B 0C 0D 0E 0F
      -- -- -- -- -- -- -- --  -- -- -- -- -- -- -- --
00A0:                                               32                 2
00B0: 07 80 1F 00 08 80 09 80  0A 80 1F 01 00           .............   
```

#### Opcodes

```
  0: 0x00AF [0x32] ExtData[1]->MainSpeed = 13* * 0.1
  1: 0x00B2 [0x1F] MOVE_ENTITY: EventEntity moves to X=-0.331*, Z=33.764*, Y=-48.999*
  2: 0x00BA [0x1F] MOVE_ENTITY: Update entity position (mode=1)
  3: 0x00BC [0x00] END_REQSTACK()
```

### Event 65535.11

#### Metadata

| Field        | Value    |
|--------------|----------|
| Entrypoint   | 0x00BD   |
| Data Size    | 14 bytes |
| Instructions | 4        |

```
      00 01 02 03 04 05 06 07  08 09 0A 0B 0C 0D 0E 0F
      -- -- -- -- -- -- -- --  -- -- -- -- -- -- -- --
00B0:                                         32 07 80               2..
00C0: 1F 00 0B 80 0C 80 0A 80  1F 01 00                 ...........     
```

#### Opcodes

```
  0: 0x00BD [0x32] ExtData[1]->MainSpeed = 13* * 0.1
  1: 0x00C0 [0x1F] MOVE_ENTITY: EventEntity moves to X=-0.301*, Z=32.839*, Y=-48.999*
  2: 0x00C8 [0x1F] MOVE_ENTITY: Update entity position (mode=1)
  3: 0x00CA [0x00] END_REQSTACK()
```

### Event 65535.12

#### Metadata

| Field        | Value    |
|--------------|----------|
| Entrypoint   | 0x00CB   |
| Data Size    | 15 bytes |
| Instructions | 5        |

```
      00 01 02 03 04 05 06 07  08 09 0A 0B 0C 0D 0E 0F
      -- -- -- -- -- -- -- --  -- -- -- -- -- -- -- --
00C0:                                   32 07 80 1F 00             2....
00D0: 0D 80 0E 80 0F 80 1F 01  6F 00                    ........o.      
```

#### Opcodes

```
  0: 0x00CB [0x32] ExtData[1]->MainSpeed = 13* * 0.1
  1: 0x00CE [0x1F] MOVE_ENTITY: EventEntity moves to X=-0.071*, Z=6.949*, Y=-47.000*
  2: 0x00D6 [0x1F] MOVE_ENTITY: Update entity position (mode=1)
  3: 0x00D8 [0x6F] WAIT_FRAME_DELAY: Yield until WaitTime reaches zero
  4: 0x00D9 [0x00] END_REQSTACK()
```

### Event 65535.13

#### Metadata

| Field        | Value    |
|--------------|----------|
| Entrypoint   | 0x00DA   |
| Data Size    | 16 bytes |
| Instructions | 2        |

```
      00 01 02 03 04 05 06 07  08 09 0A 0B 0C 0D 0E 0F
      -- -- -- -- -- -- -- --  -- -- -- -- -- -- -- --
00D0:                                5B 06 80 F8 FF FF            [.....
00E0: 7F F8 FF FF 7F 6F 62 69  30 00                    .....obi0.      
```

#### Opcodes

```
  0: 0x00DA [0x5B] LOAD_EXT_SCHEDULER: Load scheduler "obi0" with entities [EventEntity, EventEntity], work=170*
  1: 0x00E9 [0x00] END_REQSTACK()
```

### Event 65535.14

#### Metadata

| Field        | Value    |
|--------------|----------|
| Entrypoint   | 0x00EA   |
| Data Size    | 16 bytes |
| Instructions | 2        |

```
      00 01 02 03 04 05 06 07  08 09 0A 0B 0C 0D 0E 0F
      -- -- -- -- -- -- -- --  -- -- -- -- -- -- -- --
00E0:                                5B 10 80 F8 FF FF            [.....
00F0: 7F F8 FF FF 7F 6B 6E 6A  30 00                    .....knj0.      
```

#### Opcodes

```
  0: 0x00EA [0x5B] LOAD_EXT_SCHEDULER: Load scheduler "knj0" with entities [EventEntity, EventEntity], work=171*
  1: 0x00F9 [0x00] END_REQSTACK()
```

### Event 65535.15

#### Metadata

| Field        | Value    |
|--------------|----------|
| Entrypoint   | 0x00FA   |
| Data Size    | 16 bytes |
| Instructions | 2        |

```
      00 01 02 03 04 05 06 07  08 09 0A 0B 0C 0D 0E 0F
      -- -- -- -- -- -- -- --  -- -- -- -- -- -- -- --
00F0:                                5B 10 80 F8 FF FF            [.....
0100: 7F F8 FF FF 7F 6B 6E 6A  31 00                    .....knj1.      
```

#### Opcodes

```
  0: 0x00FA [0x5B] LOAD_EXT_SCHEDULER: Load scheduler "knj1" with entities [EventEntity, EventEntity], work=171*
  1: 0x0109 [0x00] END_REQSTACK()
```

### Event 65535.16

#### Metadata

| Field        | Value    |
|--------------|----------|
| Entrypoint   | 0x010A   |
| Data Size    | 16 bytes |
| Instructions | 2        |

```
      00 01 02 03 04 05 06 07  08 09 0A 0B 0C 0D 0E 0F
      -- -- -- -- -- -- -- --  -- -- -- -- -- -- -- --
0100:                                5B 06 80 F8 FF FF            [.....
0110: 7F F8 FF FF 7F 64 65 64  30 00                    .....ded0.      
```

#### Opcodes

```
  0: 0x010A [0x5B] LOAD_EXT_SCHEDULER: Load scheduler "ded0" with entities [EventEntity, EventEntity], work=170*
  1: 0x0119 [0x00] END_REQSTACK()
```

### Event 65535.17

#### Metadata

| Field        | Value    |
|--------------|----------|
| Entrypoint   | 0x011A   |
| Data Size    | 16 bytes |
| Instructions | 2        |

```
      00 01 02 03 04 05 06 07  08 09 0A 0B 0C 0D 0E 0F
      -- -- -- -- -- -- -- --  -- -- -- -- -- -- -- --
0110:                                5B 11 80 F8 FF FF            [.....
0120: 7F F8 FF FF 7F 6F 70 30  30 00                    .....op00.      
```

#### Opcodes

```
  0: 0x011A [0x5B] LOAD_EXT_SCHEDULER: Load scheduler "op00" with entities [EventEntity, EventEntity], work=2615*
  1: 0x0129 [0x00] END_REQSTACK()
```

### Event 65535.18

#### Metadata

| Field        | Value    |
|--------------|----------|
| Entrypoint   | 0x012A   |
| Data Size    | 16 bytes |
| Instructions | 2        |

```
      00 01 02 03 04 05 06 07  08 09 0A 0B 0C 0D 0E 0F
      -- -- -- -- -- -- -- --  -- -- -- -- -- -- -- --
0120:                                5B 11 80 F8 FF FF            [.....
0130: 7F F8 FF FF 7F 6F 70 30  31 00                    .....op01.      
```

#### Opcodes

```
  0: 0x012A [0x5B] LOAD_EXT_SCHEDULER: Load scheduler "op01" with entities [EventEntity, EventEntity], work=2615*
  1: 0x0139 [0x00] END_REQSTACK()
```

### Event 65535.19

#### Metadata

| Field        | Value    |
|--------------|----------|
| Entrypoint   | 0x013A   |
| Data Size    | 15 bytes |
| Instructions | 5        |

```
      00 01 02 03 04 05 06 07  08 09 0A 0B 0C 0D 0E 0F
      -- -- -- -- -- -- -- --  -- -- -- -- -- -- -- --
0130:                                32 12 80 1F 00 13            2.....
0140: 80 14 80 15 80 1F 01 6F  00                       .......o.       
```

#### Opcodes

```
  0: 0x013A [0x32] ExtData[1]->MainSpeed = 10* * 0.1
  1: 0x013D [0x1F] MOVE_ENTITY: EventEntity moves to X=-29.502*, Z=191.716*, Y=-16.000*
  2: 0x0145 [0x1F] MOVE_ENTITY: Update entity position (mode=1)
  3: 0x0147 [0x6F] WAIT_FRAME_DELAY: Yield until WaitTime reaches zero
  4: 0x0148 [0x00] END_REQSTACK()
```

### Event 65535.20

#### Metadata

| Field        | Value   |
|--------------|---------|
| Entrypoint   | 0x0149  |
| Data Size    | 3 bytes |
| Instructions | 2       |

```
      00 01 02 03 04 05 06 07  08 09 0A 0B 0C 0D 0E 0F
      -- -- -- -- -- -- -- --  -- -- -- -- -- -- -- --
0140:                             A4 01 00                       ...    
```

#### Opcodes

```
  0: 0x0149 [0xA4] EventEntity->Flags3.unknown_3_2 = 1
  1: 0x014B [0x00] END_REQSTACK()
```
