# 17781064

## Common Data

| Field            | Value                 |
|------------------|-----------------------|
| Zone             | Lower Jeuno (ID: 245) |
| Block Size       | 112 bytes             |
| Total Events     | 2                     |
| References Count | 7                     |

## List of Events

| Event ID              | Entrypoint   |   Size |   Instructions |
|-----------------------|--------------|--------|----------------|
| [65535](#event-65535) | 0x0000       |      1 |              1 |
| [20089](#event-20089) | 0x0001       |     57 |              9 |

## DAT References (imed_data)

|   Index | Hex Value   |   Dec Value |
|---------|-------------|-------------|
|       0 | 0xFFFEDD06  |  4294892806 |
|       1 | 0xFFFD7EDE  |  4294803166 |
|       2 | 0xFFFFE890  |  4294961296 |
|       3 | 0x081B      |        2075 |
|       4 | 0x0C00      |        3072 |
|       5 | 0x012C      |         300 |
|       6 | 0x0800      |        2048 |

## Events

### Event 65535

#### Metadata

| Field        | Value   |
|--------------|---------|
| Entrypoint   | 0x0000  |
| Data Size    | 1 bytes |
| Instructions | 1       |

```
      00 01 02 03 04 05 06 07  08 09 0A 0B 0C 0D 0E 0F
      -- -- -- -- -- -- -- --  -- -- -- -- -- -- -- --
0000: 00                                                .               
```

#### Opcodes

```
  0: 0x0000 [0x00] END_REQSTACK()
```

### Event 20089

#### Metadata

| Field        | Value    |
|--------------|----------|
| Entrypoint   | 0x0001   |
| Data Size    | 57 bytes |
| Instructions | 9        |

```
      00 01 02 03 04 05 06 07  08 09 0A 0B 0C 0D 0E 0F
      -- -- -- -- -- -- -- --  -- -- -- -- -- -- -- --
0000:    37 00 80 01 80 02 80  03 80 33 01 D8 03 F8 FF   7........3.....
0010: FF 7F 04 80 3B F8 FF FF  7F 00 00 02 00 01 00 3A  ....;..........:
0020: F8 FF FF 7F 03 00 08 01  00 05 80 08 03 00 06 80  ................
0030: 37 00 00 02 00 01 00 03  00 00                    7.........      
```

#### Opcodes

```
  0: 0x0001 [0x37] UPDATE_EVENT_POSITION_AND_DIR: x=-74.490*, z=-164.130*, y=-6.000*, direction=182.4°*
  1: 0x000A [0x33] EventEntity->Render.Flags0 |= 0x200000 // Bit 21 (flag=0x01)
  2: 0x000C [0xD8] SET_ENTITY_EVENT_DIR: Set EventEntity EventDir[2] = 3072*
  3: 0x0014 [0x3B] GET_ENTITY_POSITION(entity=EventEntity, x_destination=ExtData[1]->WorkLocal[0], y_destination=ExtData[1]->WorkLocal[2], z_destination=ExtData[1]->WorkLocal[1])
  4: 0x001F [0x3A] CONVERT_YAW_TO_BYTE(entity=EventEntity, result_destination=ExtData[1]->WorkLocal[3])
  5: 0x0026 [0x08] ExtData[1]->WorkLocal[1] -= 300*
  6: 0x002B [0x08] ExtData[1]->WorkLocal[3] -= 2048*
  7: 0x0030 [0x37] UPDATE_EVENT_POSITION_AND_DIR: x=ExtData[1]->WorkLocal[0], z=ExtData[1]->WorkLocal[2], y=ExtData[1]->WorkLocal[1], direction=ExtData[1]->WorkLocal[3]
  8: 0x0039 [0x00] END_REQSTACK()
```
