# 17780773 - Sutarara

## Common Data

| Field            | Value                 |
|------------------|-----------------------|
| Zone             | Lower Jeuno (ID: 245) |
| Block Size       | 2892 bytes            |
| Total Events     | 110                   |
| References Count | 128                   |

## List of Events

| Event ID                     | Entrypoint   |   Size |   Instructions |
|------------------------------|--------------|--------|----------------|
| [65535](#event-65535)        | 0x0000       |      1 |              1 |
| [208](#event-208)            | 0x0001       |     57 |             17 |
| [211](#event-211)            | 0x003A       |     44 |             12 |
| [10055](#event-10055)        | 0x0066       |     37 |             11 |
| [10050](#event-10050)        | 0x008B       |      1 |              1 |
| [65535.1](#event-655351)     | 0x008C       |     10 |              2 |
| [65535.2](#event-655352)     | 0x0096       |     14 |              4 |
| [65535.3](#event-655353)     | 0x00A4       |     10 |              2 |
| [65535.4](#event-655354)     | 0x00AE       |     14 |              4 |
| [65535.5](#event-655355)     | 0x00BC       |     14 |              4 |
| [65535.6](#event-655356)     | 0x00CA       |     14 |              4 |
| [10051](#event-10051)        | 0x00D8       |      2 |              2 |
| [10094](#event-10094)        | 0x00DA       |      5 |              3 |
| [65535.7](#event-655357)     | 0x00DF       |     20 |              5 |
| [65535.8](#event-655358)     | 0x00F3       |     20 |              5 |
| [65535.9](#event-655359)     | 0x0107       |     20 |              5 |
| [65535.10](#event-6553510)   | 0x011B       |     17 |              3 |
| [65535.11](#event-6553511)   | 0x012C       |     20 |              5 |
| [65535.12](#event-6553512)   | 0x0140       |     20 |              5 |
| [65535.13](#event-6553513)   | 0x0154       |     19 |              4 |
| [65535.14](#event-6553514)   | 0x0167       |     19 |              4 |
| [65535.15](#event-6553515)   | 0x017A       |     16 |              2 |
| [65535.16](#event-6553516)   | 0x018A       |     16 |              2 |
| [65535.17](#event-6553517)   | 0x019A       |     20 |              5 |
| [65535.18](#event-6553518)   | 0x01AE       |     16 |              2 |
| [65535.19](#event-6553519)   | 0x01BE       |     16 |              2 |
| [65535.20](#event-6553520)   | 0x01CE       |     16 |              2 |
| [65535.21](#event-6553521)   | 0x01DE       |     21 |              6 |
| [65535.22](#event-6553522)   | 0x01F3       |     16 |              2 |
| [65535.23](#event-6553523)   | 0x0203       |     16 |              2 |
| [65535.24](#event-6553524)   | 0x0213       |     20 |              5 |
| [65535.25](#event-6553525)   | 0x0227       |     17 |              3 |
| [65535.26](#event-6553526)   | 0x0238       |     20 |              5 |
| [65535.27](#event-6553527)   | 0x024C       |     16 |              2 |
| [65535.28](#event-6553528)   | 0x025C       |     16 |              2 |
| [65535.29](#event-6553529)   | 0x026C       |     16 |              2 |
| [65535.30](#event-6553530)   | 0x027C       |     16 |              2 |
| [65535.31](#event-6553531)   | 0x028C       |     16 |              2 |
| [65535.32](#event-6553532)   | 0x029C       |     16 |              2 |
| [65535.33](#event-6553533)   | 0x02AC       |     16 |              2 |
| [65535.34](#event-6553534)   | 0x02BC       |     12 |              4 |
| [65535.35](#event-6553535)   | 0x02C8       |     20 |              5 |
| [65535.36](#event-6553536)   | 0x02DC       |     17 |              3 |
| [65535.37](#event-6553537)   | 0x02ED       |     17 |              3 |
| [65535.38](#event-6553538)   | 0x02FE       |     16 |              2 |
| [65535.39](#event-6553539)   | 0x030E       |     16 |              2 |
| [65535.40](#event-6553540)   | 0x031E       |     16 |              2 |
| [65535.41](#event-6553541)   | 0x032E       |     16 |              2 |
| [65535.42](#event-6553542)   | 0x033E       |     16 |              2 |
| [65535.43](#event-6553543)   | 0x034E       |     16 |              2 |
| [65535.44](#event-6553544)   | 0x035E       |     13 |              5 |
| [65535.45](#event-6553545)   | 0x036B       |     20 |              5 |
| [65535.46](#event-6553546)   | 0x037F       |     12 |              4 |
| [65535.47](#event-6553547)   | 0x038B       |     16 |              2 |
| [65535.48](#event-6553548)   | 0x039B       |     16 |              2 |
| [65535.49](#event-6553549)   | 0x03AB       |     16 |              2 |
| [65535.50](#event-6553550)   | 0x03BB       |     20 |              5 |
| [65535.51](#event-6553551)   | 0x03CF       |     29 |              6 |
| [65535.52](#event-6553552)   | 0x03EC       |     17 |              3 |
| [65535.53](#event-6553553)   | 0x03FD       |     20 |              5 |
| [65535.54](#event-6553554)   | 0x0411       |     20 |              5 |
| [65535.55](#event-6553555)   | 0x0425       |     20 |              5 |
| [65535.56](#event-6553556)   | 0x0439       |     20 |              5 |
| [65535.57](#event-6553557)   | 0x044D       |     20 |              5 |
| [65535.58](#event-6553558)   | 0x0461       |     16 |              2 |
| [65535.59](#event-6553559)   | 0x0471       |     16 |              2 |
| [65535.60](#event-6553560)   | 0x0481       |     20 |              5 |
| [65535.61](#event-6553561)   | 0x0495       |     16 |              2 |
| [65535.62](#event-6553562)   | 0x04A5       |     16 |              2 |
| [65535.63](#event-6553563)   | 0x04B5       |     16 |              2 |
| [65535.64](#event-6553564)   | 0x04C5       |     16 |              2 |
| [65535.65](#event-6553565)   | 0x04D5       |     21 |              6 |
| [65535.66](#event-6553566)   | 0x04EA       |     20 |              5 |
| [65535.67](#event-6553567)   | 0x04FE       |     20 |              5 |
| [65535.68](#event-6553568)   | 0x0512       |     17 |              3 |
| [65535.69](#event-6553569)   | 0x0523       |     20 |              5 |
| [65535.70](#event-6553570)   | 0x0537       |     20 |              5 |
| [65535.71](#event-6553571)   | 0x054B       |     16 |              2 |
| [65535.72](#event-6553572)   | 0x055B       |     16 |              2 |
| [65535.73](#event-6553573)   | 0x056B       |     21 |              6 |
| [65535.74](#event-6553574)   | 0x0580       |     20 |              5 |
| [65535.75](#event-6553575)   | 0x0594       |     20 |              5 |
| [65535.76](#event-6553576)   | 0x05A8       |     16 |              2 |
| [65535.77](#event-6553577)   | 0x05B8       |     20 |              5 |
| [65535.78](#event-6553578)   | 0x05CC       |     21 |              6 |
| [65535.79](#event-6553579)   | 0x05E1       |     20 |              5 |
| [65535.80](#event-6553580)   | 0x05F5       |     12 |              4 |
| [65535.81](#event-6553581)   | 0x0601       |     16 |              2 |
| [65535.82](#event-6553582)   | 0x0611       |     16 |              2 |
| [65535.83](#event-6553583)   | 0x0621       |     20 |              5 |
| [65535.84](#event-6553584)   | 0x0635       |     20 |              5 |
| [65535.85](#event-6553585)   | 0x0649       |     17 |              3 |
| [65535.86](#event-6553586)   | 0x065A       |     16 |              2 |
| [65535.87](#event-6553587)   | 0x066A       |     16 |              2 |
| [65535.88](#event-6553588)   | 0x067A       |     16 |              2 |
| [65535.89](#event-6553589)   | 0x068A       |     16 |              2 |
| [65535.90](#event-6553590)   | 0x069A       |     17 |              3 |
| [65535.91](#event-6553591)   | 0x06AB       |     20 |              5 |
| [65535.92](#event-6553592)   | 0x06BF       |     12 |              4 |
| [65535.93](#event-6553593)   | 0x06CB       |     16 |              2 |
| [65535.94](#event-6553594)   | 0x06DB       |     16 |              2 |
| [65535.95](#event-6553595)   | 0x06EB       |     16 |              2 |
| [65535.96](#event-6553596)   | 0x06FB       |     16 |              2 |
| [65535.97](#event-6553597)   | 0x070B       |     16 |              2 |
| [65535.98](#event-6553598)   | 0x071B       |     16 |              2 |
| [65535.99](#event-6553599)   | 0x072B       |     16 |              2 |
| [65535.100](#event-65535100) | 0x073B       |     20 |              5 |
| [65535.101](#event-65535101) | 0x074F       |     20 |              5 |
| [65535.102](#event-65535102) | 0x0763       |     16 |              2 |
| [65535.103](#event-65535103) | 0x0773       |     16 |              2 |

## DAT References (imed_data)

|   Index | Hex Value   |   Dec Value |
|---------|-------------|-------------|
|       0 | 0x0028      |          40 |
|       1 | 0x1E44      |        7748 |
|       2 | 0x1E45      |        7749 |
|       3 | 0x1E46      |        7750 |
|       4 | 0x0224      |         548 |
|       5 | 0x1E47      |        7751 |
|       6 | 0x003C      |          60 |
|       7 | 0x1E48      |        7752 |
|       8 | 0x1E49      |        7753 |
|       9 | 0x250E      |        9486 |
|      10 | 0x001E      |          30 |
|      11 | 0x2515      |        9493 |
|      12 | 0x2516      |        9494 |
|      13 | 0x6A58      |       27224 |
|      14 | 0xFFFFD927  |  4294957351 |
|      15 | 0xFFFFFF91  |  4294967185 |
|      16 | 0x069E      |        1694 |
|      17 | 0x000D      |          13 |
|      18 | 0x558B      |       21899 |
|      19 | 0xFFFFE3AA  |  4294960042 |
|      20 | 0x73DC      |       29660 |
|      21 | 0xFFFFFBDC  |  4294966236 |
|      22 | 0xFFFFFF9D  |  4294967197 |
|      23 | 0x095B      |        2395 |
|      24 | 0x4D8C      |       19852 |
|      25 | 0xFFFFE97E  |  4294961534 |
|      26 | 0x5433      |       21555 |
|      27 | 0xFFFFEAC9  |  4294961865 |
|      28 | 0x3DEC      |       15852 |
|      29 | 0xFFFFEB0E  |  4294961934 |
|      30 | 0x0001      |           1 |
|      31 | 0x000C      |          12 |
|      32 | 0xFFFED6C4  |  4294891204 |
|      33 | 0xFFFDEB5B  |  4294830939 |
|      34 | 0x0000      |           0 |
|      35 | 0x000B      |          11 |
|      36 | 0xFFFE8B97  |  4294871959 |
|      37 | 0xFFFD9E68  |  4294811240 |
|      38 | 0xFFFF0D87  |  4294905223 |
|      39 | 0xFFFEA0EF  |  4294877423 |
|      40 | 0x176F      |        5999 |
|      41 | 0x0A3A      |        2618 |
|      42 | 0xFFFEB818  |  4294883352 |
|      43 | 0xFFFE098F  |  4294838671 |
|      44 | 0xFFFEF410  |  4294898704 |
|      45 | 0xFFFE85B9  |  4294870457 |
|      46 | 0xFFFEEC91  |  4294896785 |
|      47 | 0xFFFE6EA2  |  4294864546 |
|      48 | 0x0A2A      |        2602 |
|      49 | 0xFFFEE552  |  4294894930 |
|      50 | 0xFFFE3269  |  4294849129 |
|      51 | 0x0A39      |        2617 |
|      52 | 0x0045      |          69 |
|      53 | 0xFFFF2160  |  4294910304 |
|      54 | 0xFFFEA80E  |  4294879246 |
|      55 | 0x0A3D      |        2621 |
|      56 | 0x0A43      |        2627 |
|      57 | 0x004B      |          75 |
|      58 | 0xFFFFB20E  |  4294947342 |
|      59 | 0xFFFFAE2A  |  4294946346 |
|      60 | 0xFFFEDC35  |  4294892597 |
|      61 | 0xFFFE5D95  |  4294860181 |
|      62 | 0x0A47      |        2631 |
|      63 | 0x0055      |          85 |
|      64 | 0xFFFFB26F  |  4294947439 |
|      65 | 0xFFFFAB30  |  4294945584 |
|      66 | 0x000E      |          14 |
|      67 | 0xFFFF6C7D  |  4294929533 |
|      68 | 0xFFFF0AA4  |  4294904484 |
|      69 | 0xFFFFCBCA  |  4294953930 |
|      70 | 0x09E0      |        2528 |
|      71 | 0xFFFFFE3F  |  4294966847 |
|      72 | 0x0029      |          41 |
|      73 | 0xFFFEEA26  |  4294896166 |
|      74 | 0xFFFE4F39  |  4294856505 |
|      75 | 0xFFFED8EC  |  4294891756 |
|      76 | 0xFFFE38BF  |  4294850751 |
|      77 | 0xFFFEC5BC  |  4294886844 |
|      78 | 0xFFFE1640  |  4294841920 |
|      79 | 0x03E7      |         999 |
|      80 | 0x0A33      |        2611 |
|      81 | 0xFFFF04E1  |  4294903009 |
|      82 | 0xFFFE7108  |  4294865160 |
|      83 | 0x108C      |        4236 |
|      84 | 0x10F0      |        4336 |
|      85 | 0xFFFFC3F0  |  4294951920 |
|      86 | 0xFFFFA321  |  4294943521 |
|      87 | 0xFFFFFF9B  |  4294967195 |
|      88 | 0x000A      |          10 |
|      89 | 0x0A18      |        2584 |
|      90 | 0xFFFFFC21  |  4294966305 |
|      91 | 0x084B      |        2123 |
|      92 | 0x0008      |           8 |
|      93 | 0x0033      |          51 |
|      94 | 0xFFFF0DFA  |  4294905338 |
|      95 | 0xFFFE6C9D  |  4294864029 |
|      96 | 0xFFFEFBE3  |  4294900707 |
|      97 | 0xFFFE9775  |  4294874997 |
|      98 | 0xFFFF19CD  |  4294908365 |
|      99 | 0xFFFEAC62  |  4294880354 |
|     100 | 0xFFFECE8B  |  4294889099 |
|     101 | 0xFFFE3998  |  4294850968 |
|     102 | 0x0F9F      |        3999 |
|     103 | 0x0A17      |        2583 |
|     104 | 0xFFFFD965  |  4294957413 |
|     105 | 0xFFFFD99E  |  4294957470 |
|     106 | 0x0009      |           9 |
|     107 | 0xFFFEE68C  |  4294895244 |
|     108 | 0xFFFE6FBD  |  4294864829 |
|     109 | 0xFFFFE923  |  4294961443 |
|     110 | 0xFFFFEBBA  |  4294962106 |
|     111 | 0xFFFF4F66  |  4294922086 |
|     112 | 0xFFFEA394  |  4294878100 |
|     113 | 0xFFFFE891  |  4294961297 |
|     114 | 0xFFFFB859  |  4294948953 |
|     115 | 0xFFFFDFA2  |  4294959010 |
|     116 | 0xFFFFB9ED  |  4294949357 |
|     117 | 0xFFFFBF3D  |  4294950717 |
|     118 | 0xFFFFF407  |  4294964231 |
|     119 | 0xFFFFE105  |  4294959365 |
|     120 | 0x0A40      |        2624 |
|     121 | 0xFFFF6A1D  |  4294928925 |
|     122 | 0xFFFEF858  |  4294899800 |
|     123 | 0xFFFFEA43  |  4294961731 |
|     124 | 0xFFFFF8F4  |  4294965492 |
|     125 | 0x0002      |           2 |
|     126 | 0xFFFFF533  |  4294964531 |
|     127 | 0x13C3      |        5059 |

## String References

- **7748**: You know, I came to Jeuno to shop at a splendid store called the "Tenshodo," but I can't find it anywhere! Where could it be?
- **7749**: I can't wait to see their selection of fine jewelry and accessories. I'm not going home till I find it!
- **7750**: They say it can be found "right under your nose." But what could they mean?
- **7751**: Oh, yes... I've seen people pass $0 to the front desk here, but they won't tell me where they got them. Where can I get one?
- **7752**: What? You're a Tenshodo member now, too? And you're not going to give me an invite? How dare you!
- **7753**: I don't believe this! Well, fine! I'll find one myself!
- **9486**: <Player>'s badge flashes brightly.
- **9493**: I heard that the Near East is bursting at the seams with wonderful treasures never seen this side of Vana'diel.
- **9494**: I can't figure out which sounds more interesting--the Tenshodo or the Near East...

## Events

### Event 65535

#### Metadata

| Field        | Value   |
|--------------|---------|
| Entrypoint   | 0x0000  |
| Data Size    | 1 bytes |
| Instructions | 1       |

```
      00 01 02 03 04 05 06 07  08 09 0A 0B 0C 0D 0E 0F
      -- -- -- -- -- -- -- --  -- -- -- -- -- -- -- --
0000: 00                                                .               
```

#### Opcodes

```
  0: 0x0000 [0x00] END_REQSTACK()
```

### Event 208

#### Metadata

| Field        | Value    |
|--------------|----------|
| Entrypoint   | 0x0001   |
| Data Size    | 57 bytes |
| Instructions | 17       |

```
      00 01 02 03 04 05 06 07  08 09 0A 0B 0C 0D 0E 0F
      -- -- -- -- -- -- -- --  -- -- -- -- -- -- -- --
0000:    1E F0 FF FF 7F 6F 76  F8 FF FF 7F 66 00 80 F8   .....ov....f...
0010: FF FF 7F F8 FF FF 7F 74  6C 6B 30 1D 01 80 23 1D  .......tlk0...#.
0020: 02 80 23 1D 03 80 23 03  02 10 04 80 1D 05 80 23  ..#...#........#
0030: 5E 69 64 6C 30 1C 06 80  21 00                    ^idl0...!.      
```

#### Opcodes

```
  0: 0x0001 [0x1E] EventEntity looks at LocalPlayer and starts talking
  1: 0x0006 [0x6F] WAIT_FRAME_DELAY: Yield until WaitTime reaches zero
  2: 0x0007 [0x76] CHECK_ENTITY_RENDER_FLAGS: Wait until EventEntity Render.Flags0 and Render.Flags3 conditions are met
  3: 0x000C [0x66] LOAD_EXT_SCHEDULER_MAIN: Load scheduler "tlk0" with entities [EventEntity, EventEntity], work=40*
  4: 0x001B [0x1D] PRINT_EVENT_MESSAGE(message_id=7748*)
    → "You know, I came to Jeuno to shop at a splendid store called the "Tenshodo," but I can't find it anywhere! Where could it be?"
  5: 0x001E [0x23] WAIT_FOR_DIALOG_INTERACTION
  6: 0x001F [0x1D] PRINT_EVENT_MESSAGE(message_id=7749*)
    → "I can't wait to see their selection of fine jewelry and accessories. I'm not going home till I find it!"
  7: 0x0022 [0x23] WAIT_FOR_DIALOG_INTERACTION
  8: 0x0023 [0x1D] PRINT_EVENT_MESSAGE(message_id=7750*)
    → "They say it can be found "right under your nose." But what could they mean?"
  9: 0x0026 [0x23] WAIT_FOR_DIALOG_INTERACTION
 10: 0x0027 [0x03] Work_Zone[2] = 548*
 11: 0x002C [0x1D] PRINT_EVENT_MESSAGE(message_id=7751*)
    → "Oh, yes... I've seen people pass $0 to the front desk here, but they won't tell me where they got them. Where can I get one?"
 12: 0x002F [0x23] WAIT_FOR_DIALOG_INTERACTION
 13: 0x0030 [0x5E] EventEntity goes idle (kills current action) (animation: "idl0")
 14: 0x0035 [0x1C] WAIT(60* ticks)
 15: 0x0038 [0x21] END_EVENT
 16: 0x0039 [0x00] END_REQSTACK()
```

### Event 211

#### Metadata

| Field        | Value    |
|--------------|----------|
| Entrypoint   | 0x003A   |
| Data Size    | 44 bytes |
| Instructions | 12       |

```
      00 01 02 03 04 05 06 07  08 09 0A 0B 0C 0D 0E 0F
      -- -- -- -- -- -- -- --  -- -- -- -- -- -- -- --
0030:                                1E F0 FF FF 7F 6F            .....o
0040: 76 F8 FF FF 7F 66 00 80  F8 FF FF 7F F8 FF FF 7F  v....f..........
0050: 74 6C 6B 30 1D 07 80 23  1D 08 80 23 5E 69 64 6C  tlk0...#...#^idl
0060: 30 1C 06 80 21 00                                 0...!.          
```

#### Opcodes

```
  0: 0x003A [0x1E] EventEntity looks at LocalPlayer and starts talking
  1: 0x003F [0x6F] WAIT_FRAME_DELAY: Yield until WaitTime reaches zero
  2: 0x0040 [0x76] CHECK_ENTITY_RENDER_FLAGS: Wait until EventEntity Render.Flags0 and Render.Flags3 conditions are met
  3: 0x0045 [0x66] LOAD_EXT_SCHEDULER_MAIN: Load scheduler "tlk0" with entities [EventEntity, EventEntity], work=40*
  4: 0x0054 [0x1D] PRINT_EVENT_MESSAGE(message_id=7752*)
    → "What? You're a Tenshodo member now, too? And you're not going to give me an invite? How dare you!"
  5: 0x0057 [0x23] WAIT_FOR_DIALOG_INTERACTION
  6: 0x0058 [0x1D] PRINT_EVENT_MESSAGE(message_id=7753*)
    → "I don't believe this! Well, fine! I'll find one myself!"
  7: 0x005B [0x23] WAIT_FOR_DIALOG_INTERACTION
  8: 0x005C [0x5E] EventEntity goes idle (kills current action) (animation: "idl0")
  9: 0x0061 [0x1C] WAIT(60* ticks)
 10: 0x0064 [0x21] END_EVENT
 11: 0x0065 [0x00] END_REQSTACK()
```

### Event 10055

#### Metadata

| Field        | Value    |
|--------------|----------|
| Entrypoint   | 0x0066   |
| Data Size    | 37 bytes |
| Instructions | 11       |

```
      00 01 02 03 04 05 06 07  08 09 0A 0B 0C 0D 0E 0F
      -- -- -- -- -- -- -- --  -- -- -- -- -- -- -- --
0060:                   42 48  09 80 1E F0 FF FF 7F 1C        BH........
0070: 0A 80 66 00 80 F8 FF FF  7F F8 FF FF 7F 74 6C 6B  ..f..........tlk
0080: 30 1D 0B 80 23 1D 0C 80  23 21 00                 0...#...#!.     
```

#### Opcodes

```
  0: 0x0066 [0x42] SET_CLI_EVENT_CANCEL_DATA()
  1: 0x0067 [0x48] [System] [9486*]:
    → "<Player>'s badge flashes brightly."
  2: 0x006A [0x1E] EventEntity looks at LocalPlayer and starts talking
  3: 0x006F [0x1C] WAIT(30* ticks)
  4: 0x0072 [0x66] LOAD_EXT_SCHEDULER_MAIN: Load scheduler "tlk0" with entities [EventEntity, EventEntity], work=40*
  5: 0x0081 [0x1D] PRINT_EVENT_MESSAGE(message_id=9493*)
    → "I heard that the Near East is bursting at the seams with wonderful treasures never seen this side of Vana'diel."
  6: 0x0084 [0x23] WAIT_FOR_DIALOG_INTERACTION
  7: 0x0085 [0x1D] PRINT_EVENT_MESSAGE(message_id=9494*)
    → "I can't figure out which sounds more interesting--the Tenshodo or the Near East..."
  8: 0x0088 [0x23] WAIT_FOR_DIALOG_INTERACTION
  9: 0x0089 [0x21] END_EVENT
 10: 0x008A [0x00] END_REQSTACK()
```

### Event 10050

#### Metadata

| Field        | Value   |
|--------------|---------|
| Entrypoint   | 0x008B  |
| Data Size    | 1 bytes |
| Instructions | 1       |

```
      00 01 02 03 04 05 06 07  08 09 0A 0B 0C 0D 0E 0F
      -- -- -- -- -- -- -- --  -- -- -- -- -- -- -- --
0080:                                   00                         .    
```

#### Opcodes

```
  0: 0x008B [0x00] END_REQSTACK()
```

### Event 65535.1

#### Metadata

| Field        | Value    |
|--------------|----------|
| Entrypoint   | 0x008C   |
| Data Size    | 10 bytes |
| Instructions | 2        |

```
      00 01 02 03 04 05 06 07  08 09 0A 0B 0C 0D 0E 0F
      -- -- -- -- -- -- -- --  -- -- -- -- -- -- -- --
0080:                                      37 0D 80 0E              7...
0090: 80 0F 80 10 80 00                                 ......          
```

#### Opcodes

```
  0: 0x008C [0x37] UPDATE_EVENT_POSITION_AND_DIR: x=27.224*, z=-9.945*, y=-0.111*, direction=148.9°*
  1: 0x0095 [0x00] END_REQSTACK()
```

### Event 65535.2

#### Metadata

| Field        | Value    |
|--------------|----------|
| Entrypoint   | 0x0096   |
| Data Size    | 14 bytes |
| Instructions | 4        |

```
      00 01 02 03 04 05 06 07  08 09 0A 0B 0C 0D 0E 0F
      -- -- -- -- -- -- -- --  -- -- -- -- -- -- -- --
0090:                   32 11  80 1F 00 12 80 13 80 0F        2.........
00A0: 80 1F 01 00                                       ....            
```

#### Opcodes

```
  0: 0x0096 [0x32] ExtData[1]->MainSpeed = 13* * 0.1
  1: 0x0099 [0x1F] MOVE_ENTITY: EventEntity moves to X=21.899*, Z=-7.254*, Y=-0.111*
  2: 0x00A1 [0x1F] MOVE_ENTITY: Update entity position (mode=1)
  3: 0x00A3 [0x00] END_REQSTACK()
```

### Event 65535.3

#### Metadata

| Field        | Value    |
|--------------|----------|
| Entrypoint   | 0x00A4   |
| Data Size    | 10 bytes |
| Instructions | 2        |

```
      00 01 02 03 04 05 06 07  08 09 0A 0B 0C 0D 0E 0F
      -- -- -- -- -- -- -- --  -- -- -- -- -- -- -- --
00A0:             37 14 80 15  80 16 80 17 80 00            7.........  
```

#### Opcodes

```
  0: 0x00A4 [0x37] UPDATE_EVENT_POSITION_AND_DIR: x=29.660*, z=-1.060*, y=-0.099*, direction=210.5°*
  1: 0x00AD [0x00] END_REQSTACK()
```

### Event 65535.4

#### Metadata

| Field        | Value    |
|--------------|----------|
| Entrypoint   | 0x00AE   |
| Data Size    | 14 bytes |
| Instructions | 4        |

```
      00 01 02 03 04 05 06 07  08 09 0A 0B 0C 0D 0E 0F
      -- -- -- -- -- -- -- --  -- -- -- -- -- -- -- --
00A0:                                            32 11                2.
00B0: 80 1F 00 18 80 19 80 0F  80 1F 01 00              ............    
```

#### Opcodes

```
  0: 0x00AE [0x32] ExtData[1]->MainSpeed = 13* * 0.1
  1: 0x00B1 [0x1F] MOVE_ENTITY: EventEntity moves to X=19.852*, Z=-5.762*, Y=-0.111*
  2: 0x00B9 [0x1F] MOVE_ENTITY: Update entity position (mode=1)
  3: 0x00BB [0x00] END_REQSTACK()
```

### Event 65535.5

#### Metadata

| Field        | Value    |
|--------------|----------|
| Entrypoint   | 0x00BC   |
| Data Size    | 14 bytes |
| Instructions | 4        |

```
      00 01 02 03 04 05 06 07  08 09 0A 0B 0C 0D 0E 0F
      -- -- -- -- -- -- -- --  -- -- -- -- -- -- -- --
00B0:                                      32 11 80 1F              2...
00C0: 00 1A 80 1B 80 16 80 1F  01 00                    ..........      
```

#### Opcodes

```
  0: 0x00BC [0x32] ExtData[1]->MainSpeed = 13* * 0.1
  1: 0x00BF [0x1F] MOVE_ENTITY: EventEntity moves to X=21.555*, Z=-5.431*, Y=-0.099*
  2: 0x00C7 [0x1F] MOVE_ENTITY: Update entity position (mode=1)
  3: 0x00C9 [0x00] END_REQSTACK()
```

### Event 65535.6

#### Metadata

| Field        | Value    |
|--------------|----------|
| Entrypoint   | 0x00CA   |
| Data Size    | 14 bytes |
| Instructions | 4        |

```
      00 01 02 03 04 05 06 07  08 09 0A 0B 0C 0D 0E 0F
      -- -- -- -- -- -- -- --  -- -- -- -- -- -- -- --
00C0:                                32 00 80 1F 00 1C            2.....
00D0: 80 1D 80 0F 80 1F 01 00                           ........        
```

#### Opcodes

```
  0: 0x00CA [0x32] ExtData[1]->MainSpeed = 40* * 0.1
  1: 0x00CD [0x1F] MOVE_ENTITY: EventEntity moves to X=15.852*, Z=-5.362*, Y=-0.111*
  2: 0x00D5 [0x1F] MOVE_ENTITY: Update entity position (mode=1)
  3: 0x00D7 [0x00] END_REQSTACK()
```

### Event 10051

#### Metadata

| Field        | Value   |
|--------------|---------|
| Entrypoint   | 0x00D8  |
| Data Size    | 2 bytes |
| Instructions | 1       |

```
      00 01 02 03 04 05 06 07  08 09 0A 0B 0C 0D 0E 0F
      -- -- -- -- -- -- -- --  -- -- -- -- -- -- -- --
00D0:                          00 00                            ..      
```

#### Opcodes

```
  0: 0x00D8 [0x00] END_REQSTACK()
```

#### Data or dead code:

```
# Dead code (unreachable instructions):
     0x00D9 [0x00] END_REQSTACK()
```

### Event 10094

#### Metadata

| Field        | Value   |
|--------------|---------|
| Entrypoint   | 0x00DA  |
| Data Size    | 5 bytes |
| Instructions | 2       |

```
      00 01 02 03 04 05 06 07  08 09 0A 0B 0C 0D 0E 0F
      -- -- -- -- -- -- -- --  -- -- -- -- -- -- -- --
00D0:                                C0 1E 80 00 00               ..... 
```

#### Opcodes

```
  0: 0x00DA [0xC0] EventEntity->Render.Flags3 |= 0x1000 // Set bit 12 (from 1*)
  1: 0x00DD [0x00] END_REQSTACK()
```

#### Data or dead code:

```
# Dead code (unreachable instructions):
     0x00DE [0x00] END_REQSTACK()
```

### Event 65535.7

#### Metadata

| Field        | Value    |
|--------------|----------|
| Entrypoint   | 0x00DF   |
| Data Size    | 20 bytes |
| Instructions | 5        |

```
      00 01 02 03 04 05 06 07  08 09 0A 0B 0C 0D 0E 0F
      -- -- -- -- -- -- -- --  -- -- -- -- -- -- -- --
00D0:                                               59                 Y
00E0: 04 0B 50 0F 01 1F 80 1F  00 20 80 21 80 22 80 1F  ..P...... .!."..
00F0: 01 6F 00                                          .o.             
```

#### Opcodes

```
  0: 0x00DF [0x59] UPDATE_ENTITY_DATA: Set Garnev (ID: 17780747/0x010F500B) main speed = 12* * 0.1
  1: 0x00E7 [0x1F] MOVE_ENTITY: EventEntity moves to X=-76.092*, Z=-136.357*, Y=0.000*
  2: 0x00EF [0x1F] MOVE_ENTITY: Update entity position (mode=1)
  3: 0x00F1 [0x6F] WAIT_FRAME_DELAY: Yield until WaitTime reaches zero
  4: 0x00F2 [0x00] END_REQSTACK()
```

### Event 65535.8

#### Metadata

| Field        | Value    |
|--------------|----------|
| Entrypoint   | 0x00F3   |
| Data Size    | 20 bytes |
| Instructions | 5        |

```
      00 01 02 03 04 05 06 07  08 09 0A 0B 0C 0D 0E 0F
      -- -- -- -- -- -- -- --  -- -- -- -- -- -- -- --
00F0:          59 04 1D 50 0F  01 23 80 1F 00 24 80 25     Y..P..#...$.%
0100: 80 22 80 1F 01 6F 00                              ."...o.         
```

#### Opcodes

```
  0: 0x00F3 [0x59] UPDATE_ENTITY_DATA: Set Mataligeat (ID: 17780765/0x010F501D) main speed = 11* * 0.1
  1: 0x00FB [0x1F] MOVE_ENTITY: EventEntity moves to X=-95.337*, Z=-156.056*, Y=0.000*
  2: 0x0103 [0x1F] MOVE_ENTITY: Update entity position (mode=1)
  3: 0x0105 [0x6F] WAIT_FRAME_DELAY: Yield until WaitTime reaches zero
  4: 0x0106 [0x00] END_REQSTACK()
```

### Event 65535.9

#### Metadata

| Field        | Value    |
|--------------|----------|
| Entrypoint   | 0x0107   |
| Data Size    | 20 bytes |
| Instructions | 5        |

```
      00 01 02 03 04 05 06 07  08 09 0A 0B 0C 0D 0E 0F
      -- -- -- -- -- -- -- --  -- -- -- -- -- -- -- --
0100:                      59  04 1D 50 0F 01 23 80 1F         Y..P..#..
0110: 00 26 80 27 80 28 80 1F  01 6F 00                 .&.'.(...o.     
```

#### Opcodes

```
  0: 0x0107 [0x59] UPDATE_ENTITY_DATA: Set Mataligeat (ID: 17780765/0x010F501D) main speed = 11* * 0.1
  1: 0x010F [0x1F] MOVE_ENTITY: EventEntity moves to X=-62.073*, Z=-89.873*, Y=5.999*
  2: 0x0117 [0x1F] MOVE_ENTITY: Update entity position (mode=1)
  3: 0x0119 [0x6F] WAIT_FRAME_DELAY: Yield until WaitTime reaches zero
  4: 0x011A [0x00] END_REQSTACK()
```

### Event 65535.10

#### Metadata

| Field        | Value    |
|--------------|----------|
| Entrypoint   | 0x011B   |
| Data Size    | 17 bytes |
| Instructions | 2        |

```
      00 01 02 03 04 05 06 07  08 09 0A 0B 0C 0D 0E 0F
      -- -- -- -- -- -- -- --  -- -- -- -- -- -- -- --
0110:                                   5B 29 80 1D 50             [)..P
0120: 0F 01 1D 50 0F 01 6F 70  30 30 00 00              ...P..op00..    
```

#### Opcodes

```
  0: 0x011B [0x5B] LOAD_EXT_SCHEDULER: Load scheduler "op00" with entities [Mataligeat (ID: 17780765/0x010F501D), Mataligeat (ID: 17780765/0x010F501D)], work=2618*
  1: 0x012A [0x00] END_REQSTACK()
```

#### Data or dead code:

```
# Dead code (unreachable instructions):
     0x012B [0x00] END_REQSTACK()
```

### Event 65535.11

#### Metadata

| Field        | Value    |
|--------------|----------|
| Entrypoint   | 0x012C   |
| Data Size    | 20 bytes |
| Instructions | 5        |

```
      00 01 02 03 04 05 06 07  08 09 0A 0B 0C 0D 0E 0F
      -- -- -- -- -- -- -- --  -- -- -- -- -- -- -- --
0120:                                      59 04 3A 50              Y.:P
0130: 0F 01 23 80 1F 00 24 80  25 80 22 80 1F 01 6F 00  ..#...$.%."...o.
```

#### Opcodes

```
  0: 0x012C [0x59] UPDATE_ENTITY_DATA: Set Navisse (ID: 17780794/0x010F503A) main speed = 11* * 0.1
  1: 0x0134 [0x1F] MOVE_ENTITY: EventEntity moves to X=-95.337*, Z=-156.056*, Y=0.000*
  2: 0x013C [0x1F] MOVE_ENTITY: Update entity position (mode=1)
  3: 0x013E [0x6F] WAIT_FRAME_DELAY: Yield until WaitTime reaches zero
  4: 0x013F [0x00] END_REQSTACK()
```

### Event 65535.12

#### Metadata

| Field        | Value    |
|--------------|----------|
| Entrypoint   | 0x0140   |
| Data Size    | 20 bytes |
| Instructions | 5        |

```
      00 01 02 03 04 05 06 07  08 09 0A 0B 0C 0D 0E 0F
      -- -- -- -- -- -- -- --  -- -- -- -- -- -- -- --
0140: 59 04 2C 50 0F 01 1F 80  1F 00 2A 80 2B 80 22 80  Y.,P......*.+.".
0150: 1F 01 6F 00                                       ..o.            
```

#### Opcodes

```
  0: 0x0140 [0x59] UPDATE_ENTITY_DATA: Set Jazmin (ID: 17780780/0x010F502C) main speed = 12* * 0.1
  1: 0x0148 [0x1F] MOVE_ENTITY: EventEntity moves to X=-83.944*, Z=-128.625*, Y=0.000*
  2: 0x0150 [0x1F] MOVE_ENTITY: Update entity position (mode=1)
  3: 0x0152 [0x6F] WAIT_FRAME_DELAY: Yield until WaitTime reaches zero
  4: 0x0153 [0x00] END_REQSTACK()
```

### Event 65535.13

#### Metadata

| Field        | Value    |
|--------------|----------|
| Entrypoint   | 0x0154   |
| Data Size    | 19 bytes |
| Instructions | 4        |

```
      00 01 02 03 04 05 06 07  08 09 0A 0B 0C 0D 0E 0F
      -- -- -- -- -- -- -- --  -- -- -- -- -- -- -- --
0150:             59 04 2C 50  0F 01 23 80 1F 00 2C 80      Y.,P..#...,.
0160: 2D 80 28 80 1F 01 00                              -.(....         
```

#### Opcodes

```
  0: 0x0154 [0x59] UPDATE_ENTITY_DATA: Set Jazmin (ID: 17780780/0x010F502C) main speed = 11* * 0.1
  1: 0x015C [0x1F] MOVE_ENTITY: EventEntity moves to X=-68.592*, Z=-96.839*, Y=5.999*
  2: 0x0164 [0x1F] MOVE_ENTITY: Update entity position (mode=1)
  3: 0x0166 [0x00] END_REQSTACK()
```

### Event 65535.14

#### Metadata

| Field        | Value    |
|--------------|----------|
| Entrypoint   | 0x0167   |
| Data Size    | 19 bytes |
| Instructions | 4        |

```
      00 01 02 03 04 05 06 07  08 09 0A 0B 0C 0D 0E 0F
      -- -- -- -- -- -- -- --  -- -- -- -- -- -- -- --
0160:                      59  04 2C 50 0F 01 23 80 1F         Y.,P..#..
0170: 00 2E 80 2F 80 28 80 1F  01 00                    .../.(....      
```

#### Opcodes

```
  0: 0x0167 [0x59] UPDATE_ENTITY_DATA: Set Jazmin (ID: 17780780/0x010F502C) main speed = 11* * 0.1
  1: 0x016F [0x1F] MOVE_ENTITY: EventEntity moves to X=-70.511*, Z=-102.750*, Y=5.999*
  2: 0x0177 [0x1F] MOVE_ENTITY: Update entity position (mode=1)
  3: 0x0179 [0x00] END_REQSTACK()
```

### Event 65535.15

#### Metadata

| Field        | Value    |
|--------------|----------|
| Entrypoint   | 0x017A   |
| Data Size    | 16 bytes |
| Instructions | 2        |

```
      00 01 02 03 04 05 06 07  08 09 0A 0B 0C 0D 0E 0F
      -- -- -- -- -- -- -- --  -- -- -- -- -- -- -- --
0170:                                5B 30 80 2C 50 0F            [0.,P.
0180: 01 2C 50 0F 01 6F 70 30  30 00                    .,P..op00.      
```

#### Opcodes

```
  0: 0x017A [0x5B] LOAD_EXT_SCHEDULER: Load scheduler "op00" with entities [Jazmin (ID: 17780780/0x010F502C), Jazmin (ID: 17780780/0x010F502C)], work=2602*
  1: 0x0189 [0x00] END_REQSTACK()
```

### Event 65535.16

#### Metadata

| Field        | Value    |
|--------------|----------|
| Entrypoint   | 0x018A   |
| Data Size    | 16 bytes |
| Instructions | 2        |

```
      00 01 02 03 04 05 06 07  08 09 0A 0B 0C 0D 0E 0F
      -- -- -- -- -- -- -- --  -- -- -- -- -- -- -- --
0180:                                5B 30 80 2C 50 0F            [0.,P.
0190: 01 2C 50 0F 01 6F 70 30  31 00                    .,P..op01.      
```

#### Opcodes

```
  0: 0x018A [0x5B] LOAD_EXT_SCHEDULER: Load scheduler "op01" with entities [Jazmin (ID: 17780780/0x010F502C), Jazmin (ID: 17780780/0x010F502C)], work=2602*
  1: 0x0199 [0x00] END_REQSTACK()
```

### Event 65535.17

#### Metadata

| Field        | Value    |
|--------------|----------|
| Entrypoint   | 0x019A   |
| Data Size    | 20 bytes |
| Instructions | 5        |

```
      00 01 02 03 04 05 06 07  08 09 0A 0B 0C 0D 0E 0F
      -- -- -- -- -- -- -- --  -- -- -- -- -- -- -- --
0190:                                59 04 2C 50 0F 01            Y.,P..
01A0: 23 80 1F 00 31 80 32 80  28 80 1F 01 6F 00        #...1.2.(...o.  
```

#### Opcodes

```
  0: 0x019A [0x59] UPDATE_ENTITY_DATA: Set Jazmin (ID: 17780780/0x010F502C) main speed = 11* * 0.1
  1: 0x01A2 [0x1F] MOVE_ENTITY: EventEntity moves to X=-72.366*, Z=-118.167*, Y=5.999*
  2: 0x01AA [0x1F] MOVE_ENTITY: Update entity position (mode=1)
  3: 0x01AC [0x6F] WAIT_FRAME_DELAY: Yield until WaitTime reaches zero
  4: 0x01AD [0x00] END_REQSTACK()
```

### Event 65535.18

#### Metadata

| Field        | Value    |
|--------------|----------|
| Entrypoint   | 0x01AE   |
| Data Size    | 16 bytes |
| Instructions | 2        |

```
      00 01 02 03 04 05 06 07  08 09 0A 0B 0C 0D 0E 0F
      -- -- -- -- -- -- -- --  -- -- -- -- -- -- -- --
01A0:                                            5B 33                [3
01B0: 80 2C 50 0F 01 2C 50 0F  01 6F 70 61 30 00        .,P..,P..opa0.  
```

#### Opcodes

```
  0: 0x01AE [0x5B] LOAD_EXT_SCHEDULER: Load scheduler "opa0" with entities [Jazmin (ID: 17780780/0x010F502C), Jazmin (ID: 17780780/0x010F502C)], work=2617*
  1: 0x01BD [0x00] END_REQSTACK()
```

### Event 65535.19

#### Metadata

| Field        | Value    |
|--------------|----------|
| Entrypoint   | 0x01BE   |
| Data Size    | 16 bytes |
| Instructions | 2        |

```
      00 01 02 03 04 05 06 07  08 09 0A 0B 0C 0D 0E 0F
      -- -- -- -- -- -- -- --  -- -- -- -- -- -- -- --
01B0:                                            5B 33                [3
01C0: 80 2C 50 0F 01 2C 50 0F  01 6F 70 61 31 00        .,P..,P..opa1.  
```

#### Opcodes

```
  0: 0x01BE [0x5B] LOAD_EXT_SCHEDULER: Load scheduler "opa1" with entities [Jazmin (ID: 17780780/0x010F502C), Jazmin (ID: 17780780/0x010F502C)], work=2617*
  1: 0x01CD [0x00] END_REQSTACK()
```

### Event 65535.20

#### Metadata

| Field        | Value    |
|--------------|----------|
| Entrypoint   | 0x01CE   |
| Data Size    | 16 bytes |
| Instructions | 2        |

```
      00 01 02 03 04 05 06 07  08 09 0A 0B 0C 0D 0E 0F
      -- -- -- -- -- -- -- --  -- -- -- -- -- -- -- --
01C0:                                            5B 33                [3
01D0: 80 2C 50 0F 01 2C 50 0F  01 6F 70 61 32 00        .,P..,P..opa2.  
```

#### Opcodes

```
  0: 0x01CE [0x5B] LOAD_EXT_SCHEDULER: Load scheduler "opa2" with entities [Jazmin (ID: 17780780/0x010F502C), Jazmin (ID: 17780780/0x010F502C)], work=2617*
  1: 0x01DD [0x00] END_REQSTACK()
```

### Event 65535.21

#### Metadata

| Field        | Value    |
|--------------|----------|
| Entrypoint   | 0x01DE   |
| Data Size    | 21 bytes |
| Instructions | 5        |

```
      00 01 02 03 04 05 06 07  08 09 0A 0B 0C 0D 0E 0F
      -- -- -- -- -- -- -- --  -- -- -- -- -- -- -- --
01D0:                                            59 04                Y.
01E0: 2E 50 0F 01 1F 80 1F 00  20 80 21 80 22 80 1F 01  .P...... .!."...
01F0: 6F 00 00                                          o..             
```

#### Opcodes

```
  0: 0x01DE [0x59] UPDATE_ENTITY_DATA: Set Bogharg (ID: 17780782/0x010F502E) main speed = 12* * 0.1
  1: 0x01E6 [0x1F] MOVE_ENTITY: EventEntity moves to X=-76.092*, Z=-136.357*, Y=0.000*
  2: 0x01EE [0x1F] MOVE_ENTITY: Update entity position (mode=1)
  3: 0x01F0 [0x6F] WAIT_FRAME_DELAY: Yield until WaitTime reaches zero
  4: 0x01F1 [0x00] END_REQSTACK()
```

#### Data or dead code:

```
# Dead code (unreachable instructions):
     0x01F2 [0x00] END_REQSTACK()
```

### Event 65535.22

#### Metadata

| Field        | Value    |
|--------------|----------|
| Entrypoint   | 0x01F3   |
| Data Size    | 16 bytes |
| Instructions | 2        |

```
      00 01 02 03 04 05 06 07  08 09 0A 0B 0C 0D 0E 0F
      -- -- -- -- -- -- -- --  -- -- -- -- -- -- -- --
01F0:          66 34 80 2E 50  0F 01 2E 50 0F 01 74 68     f4..P...P..th
0200: 6B 31 00                                          k1.             
```

#### Opcodes

```
  0: 0x01F3 [0x66] LOAD_EXT_SCHEDULER_MAIN: Load scheduler "thk1" with entities [Bogharg (ID: 17780782/0x010F502E), Bogharg (ID: 17780782/0x010F502E)], work=69*
  1: 0x0202 [0x00] END_REQSTACK()
```

### Event 65535.23

#### Metadata

| Field        | Value    |
|--------------|----------|
| Entrypoint   | 0x0203   |
| Data Size    | 16 bytes |
| Instructions | 2        |

```
      00 01 02 03 04 05 06 07  08 09 0A 0B 0C 0D 0E 0F
      -- -- -- -- -- -- -- --  -- -- -- -- -- -- -- --
0200:          66 34 80 2E 50  0F 01 2E 50 0F 01 74 68     f4..P...P..th
0210: 6B 32 00                                          k2.             
```

#### Opcodes

```
  0: 0x0203 [0x66] LOAD_EXT_SCHEDULER_MAIN: Load scheduler "thk2" with entities [Bogharg (ID: 17780782/0x010F502E), Bogharg (ID: 17780782/0x010F502E)], work=69*
  1: 0x0212 [0x00] END_REQSTACK()
```

### Event 65535.24

#### Metadata

| Field        | Value    |
|--------------|----------|
| Entrypoint   | 0x0213   |
| Data Size    | 20 bytes |
| Instructions | 5        |

```
      00 01 02 03 04 05 06 07  08 09 0A 0B 0C 0D 0E 0F
      -- -- -- -- -- -- -- --  -- -- -- -- -- -- -- --
0210:          59 04 2E 50 0F  01 1F 80 1F 00 35 80 36     Y..P......5.6
0220: 80 28 80 1F 01 6F 00                              .(...o.         
```

#### Opcodes

```
  0: 0x0213 [0x59] UPDATE_ENTITY_DATA: Set Bogharg (ID: 17780782/0x010F502E) main speed = 12* * 0.1
  1: 0x021B [0x1F] MOVE_ENTITY: EventEntity moves to X=-56.992*, Z=-88.050*, Y=5.999*
  2: 0x0223 [0x1F] MOVE_ENTITY: Update entity position (mode=1)
  3: 0x0225 [0x6F] WAIT_FRAME_DELAY: Yield until WaitTime reaches zero
  4: 0x0226 [0x00] END_REQSTACK()
```

### Event 65535.25

#### Metadata

| Field        | Value    |
|--------------|----------|
| Entrypoint   | 0x0227   |
| Data Size    | 17 bytes |
| Instructions | 2        |

```
      00 01 02 03 04 05 06 07  08 09 0A 0B 0C 0D 0E 0F
      -- -- -- -- -- -- -- --  -- -- -- -- -- -- -- --
0220:                      5B  37 80 2E 50 0F 01 2E 50         [7..P...P
0230: 0F 01 6F 70 30 30 00 00                           ..op00..        
```

#### Opcodes

```
  0: 0x0227 [0x5B] LOAD_EXT_SCHEDULER: Load scheduler "op00" with entities [Bogharg (ID: 17780782/0x010F502E), Bogharg (ID: 17780782/0x010F502E)], work=2621*
  1: 0x0236 [0x00] END_REQSTACK()
```

#### Data or dead code:

```
# Dead code (unreachable instructions):
     0x0237 [0x00] END_REQSTACK()
```

### Event 65535.26

#### Metadata

| Field        | Value    |
|--------------|----------|
| Entrypoint   | 0x0238   |
| Data Size    | 20 bytes |
| Instructions | 5        |

```
      00 01 02 03 04 05 06 07  08 09 0A 0B 0C 0D 0E 0F
      -- -- -- -- -- -- -- --  -- -- -- -- -- -- -- --
0230:                          59 04 31 50 0F 01 23 80          Y.1P..#.
0240: 1F 00 2A 80 2B 80 22 80  1F 01 6F 00              ..*.+."...o.    
```

#### Opcodes

```
  0: 0x0238 [0x59] UPDATE_ENTITY_DATA: Set Nakho Jawantal (ID: 17780785/0x010F5031) main speed = 11* * 0.1
  1: 0x0240 [0x1F] MOVE_ENTITY: EventEntity moves to X=-83.944*, Z=-128.625*, Y=0.000*
  2: 0x0248 [0x1F] MOVE_ENTITY: Update entity position (mode=1)
  3: 0x024A [0x6F] WAIT_FRAME_DELAY: Yield until WaitTime reaches zero
  4: 0x024B [0x00] END_REQSTACK()
```

### Event 65535.27

#### Metadata

| Field        | Value    |
|--------------|----------|
| Entrypoint   | 0x024C   |
| Data Size    | 16 bytes |
| Instructions | 2        |

```
      00 01 02 03 04 05 06 07  08 09 0A 0B 0C 0D 0E 0F
      -- -- -- -- -- -- -- --  -- -- -- -- -- -- -- --
0240:                                      5B 38 80 12              [8..
0250: 50 0F 01 12 50 0F 01 6F  70 61 30 00              P...P..opa0.    
```

#### Opcodes

```
  0: 0x024C [0x5B] LOAD_EXT_SCHEDULER: Load scheduler "opa0" with entities [Tovrutaux (ID: 17780754/0x010F5012), Tovrutaux (ID: 17780754/0x010F5012)], work=2627*
  1: 0x025B [0x00] END_REQSTACK()
```

### Event 65535.28

#### Metadata

| Field        | Value    |
|--------------|----------|
| Entrypoint   | 0x025C   |
| Data Size    | 16 bytes |
| Instructions | 2        |

```
      00 01 02 03 04 05 06 07  08 09 0A 0B 0C 0D 0E 0F
      -- -- -- -- -- -- -- --  -- -- -- -- -- -- -- --
0250:                                      5B 38 80 12              [8..
0260: 50 0F 01 12 50 0F 01 6F  70 61 31 00              P...P..opa1.    
```

#### Opcodes

```
  0: 0x025C [0x5B] LOAD_EXT_SCHEDULER: Load scheduler "opa1" with entities [Tovrutaux (ID: 17780754/0x010F5012), Tovrutaux (ID: 17780754/0x010F5012)], work=2627*
  1: 0x026B [0x00] END_REQSTACK()
```

### Event 65535.29

#### Metadata

| Field        | Value    |
|--------------|----------|
| Entrypoint   | 0x026C   |
| Data Size    | 16 bytes |
| Instructions | 2        |

```
      00 01 02 03 04 05 06 07  08 09 0A 0B 0C 0D 0E 0F
      -- -- -- -- -- -- -- --  -- -- -- -- -- -- -- --
0260:                                      5B 38 80 12              [8..
0270: 50 0F 01 12 50 0F 01 6F  70 61 32 00              P...P..opa2.    
```

#### Opcodes

```
  0: 0x026C [0x5B] LOAD_EXT_SCHEDULER: Load scheduler "opa2" with entities [Tovrutaux (ID: 17780754/0x010F5012), Tovrutaux (ID: 17780754/0x010F5012)], work=2627*
  1: 0x027B [0x00] END_REQSTACK()
```

### Event 65535.30

#### Metadata

| Field        | Value    |
|--------------|----------|
| Entrypoint   | 0x027C   |
| Data Size    | 16 bytes |
| Instructions | 2        |

```
      00 01 02 03 04 05 06 07  08 09 0A 0B 0C 0D 0E 0F
      -- -- -- -- -- -- -- --  -- -- -- -- -- -- -- --
0270:                                      5B 39 80 12              [9..
0280: 50 0F 01 12 50 0F 01 74  68 6B 31 00              P...P..thk1.    
```

#### Opcodes

```
  0: 0x027C [0x5B] LOAD_EXT_SCHEDULER: Load scheduler "thk1" with entities [Tovrutaux (ID: 17780754/0x010F5012), Tovrutaux (ID: 17780754/0x010F5012)], work=75*
  1: 0x028B [0x00] END_REQSTACK()
```

### Event 65535.31

#### Metadata

| Field        | Value    |
|--------------|----------|
| Entrypoint   | 0x028C   |
| Data Size    | 16 bytes |
| Instructions | 2        |

```
      00 01 02 03 04 05 06 07  08 09 0A 0B 0C 0D 0E 0F
      -- -- -- -- -- -- -- --  -- -- -- -- -- -- -- --
0280:                                      5B 39 80 12              [9..
0290: 50 0F 01 12 50 0F 01 74  68 6B 32 00              P...P..thk2.    
```

#### Opcodes

```
  0: 0x028C [0x5B] LOAD_EXT_SCHEDULER: Load scheduler "thk2" with entities [Tovrutaux (ID: 17780754/0x010F5012), Tovrutaux (ID: 17780754/0x010F5012)], work=75*
  1: 0x029B [0x00] END_REQSTACK()
```

### Event 65535.32

#### Metadata

| Field        | Value    |
|--------------|----------|
| Entrypoint   | 0x029C   |
| Data Size    | 16 bytes |
| Instructions | 2        |

```
      00 01 02 03 04 05 06 07  08 09 0A 0B 0C 0D 0E 0F
      -- -- -- -- -- -- -- --  -- -- -- -- -- -- -- --
0290:                                      5B 39 80 12              [9..
02A0: 50 0F 01 12 50 0F 01 74  6C 6B 30 00              P...P..tlk0.    
```

#### Opcodes

```
  0: 0x029C [0x5B] LOAD_EXT_SCHEDULER: Load scheduler "tlk0" with entities [Tovrutaux (ID: 17780754/0x010F5012), Tovrutaux (ID: 17780754/0x010F5012)], work=75*
  1: 0x02AB [0x00] END_REQSTACK()
```

### Event 65535.33

#### Metadata

| Field        | Value    |
|--------------|----------|
| Entrypoint   | 0x02AC   |
| Data Size    | 16 bytes |
| Instructions | 2        |

```
      00 01 02 03 04 05 06 07  08 09 0A 0B 0C 0D 0E 0F
      -- -- -- -- -- -- -- --  -- -- -- -- -- -- -- --
02A0:                                      5B 39 80 12              [9..
02B0: 50 0F 01 12 50 0F 01 74  6C 6B 31 00              P...P..tlk1.    
```

#### Opcodes

```
  0: 0x02AC [0x5B] LOAD_EXT_SCHEDULER: Load scheduler "tlk1" with entities [Tovrutaux (ID: 17780754/0x010F5012), Tovrutaux (ID: 17780754/0x010F5012)], work=75*
  1: 0x02BB [0x00] END_REQSTACK()
```

### Event 65535.34

#### Metadata

| Field        | Value    |
|--------------|----------|
| Entrypoint   | 0x02BC   |
| Data Size    | 12 bytes |
| Instructions | 4        |

```
      00 01 02 03 04 05 06 07  08 09 0A 0B 0C 0D 0E 0F
      -- -- -- -- -- -- -- --  -- -- -- -- -- -- -- --
02B0:                                      1F 00 3A 80              ..:.
02C0: 3B 80 22 80 1F 01 6F 00                           ;."...o.        
```

#### Opcodes

```
  0: 0x02BC [0x1F] MOVE_ENTITY: EventEntity moves to X=-19.954*, Z=-20.950*, Y=0.000*
  1: 0x02C4 [0x1F] MOVE_ENTITY: Update entity position (mode=1)
  2: 0x02C6 [0x6F] WAIT_FRAME_DELAY: Yield until WaitTime reaches zero
  3: 0x02C7 [0x00] END_REQSTACK()
```

### Event 65535.35

#### Metadata

| Field        | Value    |
|--------------|----------|
| Entrypoint   | 0x02C8   |
| Data Size    | 20 bytes |
| Instructions | 5        |

```
      00 01 02 03 04 05 06 07  08 09 0A 0B 0C 0D 0E 0F
      -- -- -- -- -- -- -- --  -- -- -- -- -- -- -- --
02C0:                          59 04 13 50 0F 01 23 80          Y..P..#.
02D0: 1F 00 3C 80 3D 80 28 80  1F 01 6F 00              ..<.=.(...o.    
```

#### Opcodes

```
  0: 0x02C8 [0x59] UPDATE_ENTITY_DATA: Set Seyaya (ID: 17780755/0x010F5013) main speed = 11* * 0.1
  1: 0x02D0 [0x1F] MOVE_ENTITY: EventEntity moves to X=-74.699*, Z=-107.115*, Y=5.999*
  2: 0x02D8 [0x1F] MOVE_ENTITY: Update entity position (mode=1)
  3: 0x02DA [0x6F] WAIT_FRAME_DELAY: Yield until WaitTime reaches zero
  4: 0x02DB [0x00] END_REQSTACK()
```

### Event 65535.36

#### Metadata

| Field        | Value    |
|--------------|----------|
| Entrypoint   | 0x02DC   |
| Data Size    | 17 bytes |
| Instructions | 2        |

```
      00 01 02 03 04 05 06 07  08 09 0A 0B 0C 0D 0E 0F
      -- -- -- -- -- -- -- --  -- -- -- -- -- -- -- --
02D0:                                      5B 3E 80 13              [>..
02E0: 50 0F 01 13 50 0F 01 6F  70 61 30 00 00           P...P..opa0..   
```

#### Opcodes

```
  0: 0x02DC [0x5B] LOAD_EXT_SCHEDULER: Load scheduler "opa0" with entities [Seyaya (ID: 17780755/0x010F5013), Seyaya (ID: 17780755/0x010F5013)], work=2631*
  1: 0x02EB [0x00] END_REQSTACK()
```

#### Data or dead code:

```
# Dead code (unreachable instructions):
     0x02EC [0x00] END_REQSTACK()
```

### Event 65535.37

#### Metadata

| Field        | Value    |
|--------------|----------|
| Entrypoint   | 0x02ED   |
| Data Size    | 17 bytes |
| Instructions | 2        |

```
      00 01 02 03 04 05 06 07  08 09 0A 0B 0C 0D 0E 0F
      -- -- -- -- -- -- -- --  -- -- -- -- -- -- -- --
02E0:                                         5B 3E 80               [>.
02F0: 13 50 0F 01 13 50 0F 01  6F 70 61 31 00 00        .P...P..opa1..  
```

#### Opcodes

```
  0: 0x02ED [0x5B] LOAD_EXT_SCHEDULER: Load scheduler "opa1" with entities [Seyaya (ID: 17780755/0x010F5013), Seyaya (ID: 17780755/0x010F5013)], work=2631*
  1: 0x02FC [0x00] END_REQSTACK()
```

#### Data or dead code:

```
# Dead code (unreachable instructions):
     0x02FD [0x00] END_REQSTACK()
```

### Event 65535.38

#### Metadata

| Field        | Value    |
|--------------|----------|
| Entrypoint   | 0x02FE   |
| Data Size    | 16 bytes |
| Instructions | 2        |

```
      00 01 02 03 04 05 06 07  08 09 0A 0B 0C 0D 0E 0F
      -- -- -- -- -- -- -- --  -- -- -- -- -- -- -- --
02F0:                                            5B 3E                [>
0300: 80 13 50 0F 01 13 50 0F  01 6F 70 61 32 00        ..P...P..opa2.  
```

#### Opcodes

```
  0: 0x02FE [0x5B] LOAD_EXT_SCHEDULER: Load scheduler "opa2" with entities [Seyaya (ID: 17780755/0x010F5013), Seyaya (ID: 17780755/0x010F5013)], work=2631*
  1: 0x030D [0x00] END_REQSTACK()
```

### Event 65535.39

#### Metadata

| Field        | Value    |
|--------------|----------|
| Entrypoint   | 0x030E   |
| Data Size    | 16 bytes |
| Instructions | 2        |

```
      00 01 02 03 04 05 06 07  08 09 0A 0B 0C 0D 0E 0F
      -- -- -- -- -- -- -- --  -- -- -- -- -- -- -- --
0300:                                            5B 3F                [?
0310: 80 13 50 0F 01 13 50 0F  01 74 68 6B 31 00        ..P...P..thk1.  
```

#### Opcodes

```
  0: 0x030E [0x5B] LOAD_EXT_SCHEDULER: Load scheduler "thk1" with entities [Seyaya (ID: 17780755/0x010F5013), Seyaya (ID: 17780755/0x010F5013)], work=85*
  1: 0x031D [0x00] END_REQSTACK()
```

### Event 65535.40

#### Metadata

| Field        | Value    |
|--------------|----------|
| Entrypoint   | 0x031E   |
| Data Size    | 16 bytes |
| Instructions | 2        |

```
      00 01 02 03 04 05 06 07  08 09 0A 0B 0C 0D 0E 0F
      -- -- -- -- -- -- -- --  -- -- -- -- -- -- -- --
0310:                                            5B 3F                [?
0320: 80 13 50 0F 01 13 50 0F  01 74 68 6B 32 00        ..P...P..thk2.  
```

#### Opcodes

```
  0: 0x031E [0x5B] LOAD_EXT_SCHEDULER: Load scheduler "thk2" with entities [Seyaya (ID: 17780755/0x010F5013), Seyaya (ID: 17780755/0x010F5013)], work=85*
  1: 0x032D [0x00] END_REQSTACK()
```

### Event 65535.41

#### Metadata

| Field        | Value    |
|--------------|----------|
| Entrypoint   | 0x032E   |
| Data Size    | 16 bytes |
| Instructions | 2        |

```
      00 01 02 03 04 05 06 07  08 09 0A 0B 0C 0D 0E 0F
      -- -- -- -- -- -- -- --  -- -- -- -- -- -- -- --
0320:                                            5B 3F                [?
0330: 80 13 50 0F 01 13 50 0F  01 74 6C 6B 30 00        ..P...P..tlk0.  
```

#### Opcodes

```
  0: 0x032E [0x5B] LOAD_EXT_SCHEDULER: Load scheduler "tlk0" with entities [Seyaya (ID: 17780755/0x010F5013), Seyaya (ID: 17780755/0x010F5013)], work=85*
  1: 0x033D [0x00] END_REQSTACK()
```

### Event 65535.42

#### Metadata

| Field        | Value    |
|--------------|----------|
| Entrypoint   | 0x033E   |
| Data Size    | 16 bytes |
| Instructions | 2        |

```
      00 01 02 03 04 05 06 07  08 09 0A 0B 0C 0D 0E 0F
      -- -- -- -- -- -- -- --  -- -- -- -- -- -- -- --
0330:                                            5B 3F                [?
0340: 80 13 50 0F 01 13 50 0F  01 74 6C 6B 65 00        ..P...P..tlke.  
```

#### Opcodes

```
  0: 0x033E [0x5B] LOAD_EXT_SCHEDULER: Load scheduler "tlke" with entities [Seyaya (ID: 17780755/0x010F5013), Seyaya (ID: 17780755/0x010F5013)], work=85*
  1: 0x034D [0x00] END_REQSTACK()
```

### Event 65535.43

#### Metadata

| Field        | Value    |
|--------------|----------|
| Entrypoint   | 0x034E   |
| Data Size    | 16 bytes |
| Instructions | 2        |

```
      00 01 02 03 04 05 06 07  08 09 0A 0B 0C 0D 0E 0F
      -- -- -- -- -- -- -- --  -- -- -- -- -- -- -- --
0340:                                            5B 3F                [?
0350: 80 13 50 0F 01 13 50 0F  01 62 61 6E 30 00        ..P...P..ban0.  
```

#### Opcodes

```
  0: 0x034E [0x5B] LOAD_EXT_SCHEDULER: Load scheduler "ban0" with entities [Seyaya (ID: 17780755/0x010F5013), Seyaya (ID: 17780755/0x010F5013)], work=85*
  1: 0x035D [0x00] END_REQSTACK()
```

### Event 65535.44

#### Metadata

| Field        | Value    |
|--------------|----------|
| Entrypoint   | 0x035E   |
| Data Size    | 13 bytes |
| Instructions | 4        |

```
      00 01 02 03 04 05 06 07  08 09 0A 0B 0C 0D 0E 0F
      -- -- -- -- -- -- -- --  -- -- -- -- -- -- -- --
0350:                                            1F 00                ..
0360: 40 80 41 80 22 80 1F 01  6F 00 00                 @.A."...o..     
```

#### Opcodes

```
  0: 0x035E [0x1F] MOVE_ENTITY: EventEntity moves to X=-19.857*, Z=-21.712*, Y=0.000*
  1: 0x0366 [0x1F] MOVE_ENTITY: Update entity position (mode=1)
  2: 0x0368 [0x6F] WAIT_FRAME_DELAY: Yield until WaitTime reaches zero
  3: 0x0369 [0x00] END_REQSTACK()
```

#### Data or dead code:

```
# Dead code (unreachable instructions):
     0x036A [0x00] END_REQSTACK()
```

### Event 65535.45

#### Metadata

| Field        | Value    |
|--------------|----------|
| Entrypoint   | 0x036B   |
| Data Size    | 20 bytes |
| Instructions | 5        |

```
      00 01 02 03 04 05 06 07  08 09 0A 0B 0C 0D 0E 0F
      -- -- -- -- -- -- -- --  -- -- -- -- -- -- -- --
0360:                                   59 04 C0 50 0F             Y..P.
0370: 01 42 80 1F 00 43 80 44  80 22 80 1F 01 6F 00     .B...C.D."...o. 
```

#### Opcodes

```
  0: 0x036B [0x59] UPDATE_ENTITY_DATA: Set Rakuru-Rakoru (ID: 17780928/0x010F50C0) main speed = 14* * 0.1
  1: 0x0373 [0x1F] MOVE_ENTITY: EventEntity moves to X=-37.763*, Z=-62.812*, Y=0.000*
  2: 0x037B [0x1F] MOVE_ENTITY: Update entity position (mode=1)
  3: 0x037D [0x6F] WAIT_FRAME_DELAY: Yield until WaitTime reaches zero
  4: 0x037E [0x00] END_REQSTACK()
```

### Event 65535.46

#### Metadata

| Field        | Value    |
|--------------|----------|
| Entrypoint   | 0x037F   |
| Data Size    | 12 bytes |
| Instructions | 4        |

```
      00 01 02 03 04 05 06 07  08 09 0A 0B 0C 0D 0E 0F
      -- -- -- -- -- -- -- --  -- -- -- -- -- -- -- --
0370:                                               1F                 .
0380: 00 45 80 46 80 47 80 1F  01 6F 00                 .E.F.G...o.     
```

#### Opcodes

```
  0: 0x037F [0x1F] MOVE_ENTITY: EventEntity moves to X=-13.366*, Z=2.528*, Y=-0.449*
  1: 0x0387 [0x1F] MOVE_ENTITY: Update entity position (mode=1)
  2: 0x0389 [0x6F] WAIT_FRAME_DELAY: Yield until WaitTime reaches zero
  3: 0x038A [0x00] END_REQSTACK()
```

### Event 65535.47

#### Metadata

| Field        | Value    |
|--------------|----------|
| Entrypoint   | 0x038B   |
| Data Size    | 16 bytes |
| Instructions | 2        |

```
      00 01 02 03 04 05 06 07  08 09 0A 0B 0C 0D 0E 0F
      -- -- -- -- -- -- -- --  -- -- -- -- -- -- -- --
0380:                                   66 00 80 C0 50             f...P
0390: 0F 01 C0 50 0F 01 74 6C  6B 30 00                 ...P..tlk0.     
```

#### Opcodes

```
  0: 0x038B [0x66] LOAD_EXT_SCHEDULER_MAIN: Load scheduler "tlk0" with entities [Rakuru-Rakoru (ID: 17780928/0x010F50C0), Rakuru-Rakoru (ID: 17780928/0x010F50C0)], work=40*
  1: 0x039A [0x00] END_REQSTACK()
```

### Event 65535.48

#### Metadata

| Field        | Value    |
|--------------|----------|
| Entrypoint   | 0x039B   |
| Data Size    | 16 bytes |
| Instructions | 2        |

```
      00 01 02 03 04 05 06 07  08 09 0A 0B 0C 0D 0E 0F
      -- -- -- -- -- -- -- --  -- -- -- -- -- -- -- --
0390:                                   66 48 80 C0 50             fH..P
03A0: 0F 01 C0 50 0F 01 65 68  6E 31 00                 ...P..ehn1.     
```

#### Opcodes

```
  0: 0x039B [0x66] LOAD_EXT_SCHEDULER_MAIN: Load scheduler "ehn1" with entities [Rakuru-Rakoru (ID: 17780928/0x010F50C0), Rakuru-Rakoru (ID: 17780928/0x010F50C0)], work=41*
  1: 0x03AA [0x00] END_REQSTACK()
```

### Event 65535.49

#### Metadata

| Field        | Value    |
|--------------|----------|
| Entrypoint   | 0x03AB   |
| Data Size    | 16 bytes |
| Instructions | 2        |

```
      00 01 02 03 04 05 06 07  08 09 0A 0B 0C 0D 0E 0F
      -- -- -- -- -- -- -- --  -- -- -- -- -- -- -- --
03A0:                                   66 00 80 C0 50             f...P
03B0: 0F 01 C0 50 0F 01 6D 6F  6A 30 00                 ...P..moj0.     
```

#### Opcodes

```
  0: 0x03AB [0x66] LOAD_EXT_SCHEDULER_MAIN: Load scheduler "moj0" with entities [Rakuru-Rakoru (ID: 17780928/0x010F50C0), Rakuru-Rakoru (ID: 17780928/0x010F50C0)], work=40*
  1: 0x03BA [0x00] END_REQSTACK()
```

### Event 65535.50

#### Metadata

| Field        | Value    |
|--------------|----------|
| Entrypoint   | 0x03BB   |
| Data Size    | 20 bytes |
| Instructions | 5        |

```
      00 01 02 03 04 05 06 07  08 09 0A 0B 0C 0D 0E 0F
      -- -- -- -- -- -- -- --  -- -- -- -- -- -- -- --
03B0:                                   59 04 C0 50 0F             Y..P.
03C0: 01 42 80 1F 00 49 80 4A  80 28 80 1F 01 6F 00     .B...I.J.(...o. 
```

#### Opcodes

```
  0: 0x03BB [0x59] UPDATE_ENTITY_DATA: Set Rakuru-Rakoru (ID: 17780928/0x010F50C0) main speed = 14* * 0.1
  1: 0x03C3 [0x1F] MOVE_ENTITY: EventEntity moves to X=-71.130*, Z=-110.791*, Y=5.999*
  2: 0x03CB [0x1F] MOVE_ENTITY: Update entity position (mode=1)
  3: 0x03CD [0x6F] WAIT_FRAME_DELAY: Yield until WaitTime reaches zero
  4: 0x03CE [0x00] END_REQSTACK()
```

### Event 65535.51

#### Metadata

| Field        | Value    |
|--------------|----------|
| Entrypoint   | 0x03CF   |
| Data Size    | 29 bytes |
| Instructions | 6        |

```
      00 01 02 03 04 05 06 07  08 09 0A 0B 0C 0D 0E 0F
      -- -- -- -- -- -- -- --  -- -- -- -- -- -- -- --
03C0:                                               59                 Y
03D0: 04 C0 50 0F 01 42 80 1F  00 4B 80 4C 80 28 80 1F  ..P..B...K.L.(..
03E0: 01 5A 00 4D 80 4E 80 4F  80 5A 01 00              .Z.M.N.O.Z..    
```

#### Opcodes

```
  0: 0x03CF [0x59] UPDATE_ENTITY_DATA: Set Rakuru-Rakoru (ID: 17780928/0x010F50C0) main speed = 14* * 0.1
  1: 0x03D7 [0x1F] MOVE_ENTITY: EventEntity moves to X=-75.540*, Z=-116.545*, Y=5.999*
  2: 0x03DF [0x1F] MOVE_ENTITY: Update entity position (mode=1)
  3: 0x03E1 [0x5A] UPDATE_EVENT_POSITION: Set EventEntity MovePosition to X=-80.452*, Z=-125.376*, Y=0.999*
  4: 0x03E9 [0x5A] UPDATE_EVENT_POSITION: Move EventEntity incrementally towards MovePosition
  5: 0x03EB [0x00] END_REQSTACK()
```

### Event 65535.52

#### Metadata

| Field        | Value    |
|--------------|----------|
| Entrypoint   | 0x03EC   |
| Data Size    | 17 bytes |
| Instructions | 2        |

```
      00 01 02 03 04 05 06 07  08 09 0A 0B 0C 0D 0E 0F
      -- -- -- -- -- -- -- --  -- -- -- -- -- -- -- --
03E0:                                      5B 50 80 C0              [P..
03F0: 50 0F 01 C0 50 0F 01 62  6F 70 30 00 00           P...P..bop0..   
```

#### Opcodes

```
  0: 0x03EC [0x5B] LOAD_EXT_SCHEDULER: Load scheduler "bop0" with entities [Rakuru-Rakoru (ID: 17780928/0x010F50C0), Rakuru-Rakoru (ID: 17780928/0x010F50C0)], work=2611*
  1: 0x03FB [0x00] END_REQSTACK()
```

#### Data or dead code:

```
# Dead code (unreachable instructions):
     0x03FC [0x00] END_REQSTACK()
```

### Event 65535.53

#### Metadata

| Field        | Value    |
|--------------|----------|
| Entrypoint   | 0x03FD   |
| Data Size    | 20 bytes |
| Instructions | 5        |

```
      00 01 02 03 04 05 06 07  08 09 0A 0B 0C 0D 0E 0F
      -- -- -- -- -- -- -- --  -- -- -- -- -- -- -- --
03F0:                                         59 04 25               Y.%
0400: 50 0F 01 11 80 1F 00 2A  80 2B 80 22 80 1F 01 6F  P......*.+."...o
0410: 00                                                .               
```

#### Opcodes

```
  0: 0x03FD [0x59] UPDATE_ENTITY_DATA: Set Sutarara (ID: 17780773/0x010F5025) main speed = 13* * 0.1
  1: 0x0405 [0x1F] MOVE_ENTITY: EventEntity moves to X=-83.944*, Z=-128.625*, Y=0.000*
  2: 0x040D [0x1F] MOVE_ENTITY: Update entity position (mode=1)
  3: 0x040F [0x6F] WAIT_FRAME_DELAY: Yield until WaitTime reaches zero
  4: 0x0410 [0x00] END_REQSTACK()
```

### Event 65535.54

#### Metadata

| Field        | Value    |
|--------------|----------|
| Entrypoint   | 0x0411   |
| Data Size    | 20 bytes |
| Instructions | 5        |

```
      00 01 02 03 04 05 06 07  08 09 0A 0B 0C 0D 0E 0F
      -- -- -- -- -- -- -- --  -- -- -- -- -- -- -- --
0410:    59 04 25 50 0F 01 11  80 1F 00 51 80 52 80 28   Y.%P......Q.R.(
0420: 80 1F 01 6F 00                                    ...o.           
```

#### Opcodes

```
  0: 0x0411 [0x59] UPDATE_ENTITY_DATA: Set Sutarara (ID: 17780773/0x010F5025) main speed = 13* * 0.1
  1: 0x0419 [0x1F] MOVE_ENTITY: EventEntity moves to X=-64.287*, Z=-102.136*, Y=5.999*
  2: 0x0421 [0x1F] MOVE_ENTITY: Update entity position (mode=1)
  3: 0x0423 [0x6F] WAIT_FRAME_DELAY: Yield until WaitTime reaches zero
  4: 0x0424 [0x00] END_REQSTACK()
```

### Event 65535.55

#### Metadata

| Field        | Value    |
|--------------|----------|
| Entrypoint   | 0x0425   |
| Data Size    | 20 bytes |
| Instructions | 5        |

```
      00 01 02 03 04 05 06 07  08 09 0A 0B 0C 0D 0E 0F
      -- -- -- -- -- -- -- --  -- -- -- -- -- -- -- --
0420:                59 04 25  50 0F 01 11 80 1F 00 53       Y.%P......S
0430: 80 54 80 22 80 1F 01 6F  00                       .T."...o.       
```

#### Opcodes

```
  0: 0x0425 [0x59] UPDATE_ENTITY_DATA: Set Sutarara (ID: 17780773/0x010F5025) main speed = 13* * 0.1
  1: 0x042D [0x1F] MOVE_ENTITY: EventEntity moves to X=4.236*, Z=4.336*, Y=0.000*
  2: 0x0435 [0x1F] MOVE_ENTITY: Update entity position (mode=1)
  3: 0x0437 [0x6F] WAIT_FRAME_DELAY: Yield until WaitTime reaches zero
  4: 0x0438 [0x00] END_REQSTACK()
```

### Event 65535.56

#### Metadata

| Field        | Value    |
|--------------|----------|
| Entrypoint   | 0x0439   |
| Data Size    | 20 bytes |
| Instructions | 5        |

```
      00 01 02 03 04 05 06 07  08 09 0A 0B 0C 0D 0E 0F
      -- -- -- -- -- -- -- --  -- -- -- -- -- -- -- --
0430:                             59 04 34 50 0F 01 1F           Y.4P...
0440: 80 1F 00 55 80 56 80 57  80 1F 01 6F 00           ...U.V.W...o.   
```

#### Opcodes

```
  0: 0x0439 [0x59] UPDATE_ENTITY_DATA: Set Venika (ID: 17780788/0x010F5034) main speed = 12* * 0.1
  1: 0x0441 [0x1F] MOVE_ENTITY: EventEntity moves to X=-15.376*, Z=-23.775*, Y=-0.101*
  2: 0x0449 [0x1F] MOVE_ENTITY: Update entity position (mode=1)
  3: 0x044B [0x6F] WAIT_FRAME_DELAY: Yield until WaitTime reaches zero
  4: 0x044C [0x00] END_REQSTACK()
```

### Event 65535.57

#### Metadata

| Field        | Value    |
|--------------|----------|
| Entrypoint   | 0x044D   |
| Data Size    | 20 bytes |
| Instructions | 5        |

```
      00 01 02 03 04 05 06 07  08 09 0A 0B 0C 0D 0E 0F
      -- -- -- -- -- -- -- --  -- -- -- -- -- -- -- --
0440:                                         59 04 34               Y.4
0450: 50 0F 01 58 80 1F 00 51  80 52 80 28 80 1F 01 6F  P..X...Q.R.(...o
0460: 00                                                .               
```

#### Opcodes

```
  0: 0x044D [0x59] UPDATE_ENTITY_DATA: Set Venika (ID: 17780788/0x010F5034) main speed = 10* * 0.1
  1: 0x0455 [0x1F] MOVE_ENTITY: EventEntity moves to X=-64.287*, Z=-102.136*, Y=5.999*
  2: 0x045D [0x1F] MOVE_ENTITY: Update entity position (mode=1)
  3: 0x045F [0x6F] WAIT_FRAME_DELAY: Yield until WaitTime reaches zero
  4: 0x0460 [0x00] END_REQSTACK()
```

### Event 65535.58

#### Metadata

| Field        | Value    |
|--------------|----------|
| Entrypoint   | 0x0461   |
| Data Size    | 16 bytes |
| Instructions | 2        |

```
      00 01 02 03 04 05 06 07  08 09 0A 0B 0C 0D 0E 0F
      -- -- -- -- -- -- -- --  -- -- -- -- -- -- -- --
0460:    5B 59 80 34 50 0F 01  34 50 0F 01 6F 70 62 30   [Y.4P..4P..opb0
0470: 00                                                .               
```

#### Opcodes

```
  0: 0x0461 [0x5B] LOAD_EXT_SCHEDULER: Load scheduler "opb0" with entities [Venika (ID: 17780788/0x010F5034), Venika (ID: 17780788/0x010F5034)], work=2584*
  1: 0x0470 [0x00] END_REQSTACK()
```

### Event 65535.59

#### Metadata

| Field        | Value    |
|--------------|----------|
| Entrypoint   | 0x0471   |
| Data Size    | 16 bytes |
| Instructions | 2        |

```
      00 01 02 03 04 05 06 07  08 09 0A 0B 0C 0D 0E 0F
      -- -- -- -- -- -- -- --  -- -- -- -- -- -- -- --
0470:    5B 59 80 34 50 0F 01  34 50 0F 01 6F 70 62 31   [Y.4P..4P..opb1
0480: 00                                                .               
```

#### Opcodes

```
  0: 0x0471 [0x5B] LOAD_EXT_SCHEDULER: Load scheduler "opb1" with entities [Venika (ID: 17780788/0x010F5034), Venika (ID: 17780788/0x010F5034)], work=2584*
  1: 0x0480 [0x00] END_REQSTACK()
```

### Event 65535.60

#### Metadata

| Field        | Value    |
|--------------|----------|
| Entrypoint   | 0x0481   |
| Data Size    | 20 bytes |
| Instructions | 5        |

```
      00 01 02 03 04 05 06 07  08 09 0A 0B 0C 0D 0E 0F
      -- -- -- -- -- -- -- --  -- -- -- -- -- -- -- --
0480:    59 04 34 50 0F 01 1F  80 1F 00 5A 80 5B 80 22   Y.4P......Z.[."
0490: 80 1F 01 6F 00                                    ...o.           
```

#### Opcodes

```
  0: 0x0481 [0x59] UPDATE_ENTITY_DATA: Set Venika (ID: 17780788/0x010F5034) main speed = 12* * 0.1
  1: 0x0489 [0x1F] MOVE_ENTITY: EventEntity moves to X=-0.991*, Z=2.123*, Y=0.000*
  2: 0x0491 [0x1F] MOVE_ENTITY: Update entity position (mode=1)
  3: 0x0493 [0x6F] WAIT_FRAME_DELAY: Yield until WaitTime reaches zero
  4: 0x0494 [0x00] END_REQSTACK()
```

### Event 65535.61

#### Metadata

| Field        | Value    |
|--------------|----------|
| Entrypoint   | 0x0495   |
| Data Size    | 16 bytes |
| Instructions | 2        |

```
      00 01 02 03 04 05 06 07  08 09 0A 0B 0C 0D 0E 0F
      -- -- -- -- -- -- -- --  -- -- -- -- -- -- -- --
0490:                5B 59 80  34 50 0F 01 34 50 0F 01       [Y.4P..4P..
04A0: 6F 70 63 30 00                                    opc0.           
```

#### Opcodes

```
  0: 0x0495 [0x5B] LOAD_EXT_SCHEDULER: Load scheduler "opc0" with entities [Venika (ID: 17780788/0x010F5034), Venika (ID: 17780788/0x010F5034)], work=2584*
  1: 0x04A4 [0x00] END_REQSTACK()
```

### Event 65535.62

#### Metadata

| Field        | Value    |
|--------------|----------|
| Entrypoint   | 0x04A5   |
| Data Size    | 16 bytes |
| Instructions | 2        |

```
      00 01 02 03 04 05 06 07  08 09 0A 0B 0C 0D 0E 0F
      -- -- -- -- -- -- -- --  -- -- -- -- -- -- -- --
04A0:                5B 59 80  34 50 0F 01 34 50 0F 01       [Y.4P..4P..
04B0: 6F 70 63 31 00                                    opc1.           
```

#### Opcodes

```
  0: 0x04A5 [0x5B] LOAD_EXT_SCHEDULER: Load scheduler "opc1" with entities [Venika (ID: 17780788/0x010F5034), Venika (ID: 17780788/0x010F5034)], work=2584*
  1: 0x04B4 [0x00] END_REQSTACK()
```

### Event 65535.63

#### Metadata

| Field        | Value    |
|--------------|----------|
| Entrypoint   | 0x04B5   |
| Data Size    | 16 bytes |
| Instructions | 2        |

```
      00 01 02 03 04 05 06 07  08 09 0A 0B 0C 0D 0E 0F
      -- -- -- -- -- -- -- --  -- -- -- -- -- -- -- --
04B0:                66 5C 80  36 50 0F 01 36 50 0F 01       f\.6P..6P..
04C0: 61 77 77 30 00                                    aww0.           
```

#### Opcodes

```
  0: 0x04B5 [0x66] LOAD_EXT_SCHEDULER_MAIN: Load scheduler "aww0" with entities [Kuah Dakonsa (ID: 17780790/0x010F5036), Kuah Dakonsa (ID: 17780790/0x010F5036)], work=8*
  1: 0x04C4 [0x00] END_REQSTACK()
```

### Event 65535.64

#### Metadata

| Field        | Value    |
|--------------|----------|
| Entrypoint   | 0x04C5   |
| Data Size    | 16 bytes |
| Instructions | 2        |

```
      00 01 02 03 04 05 06 07  08 09 0A 0B 0C 0D 0E 0F
      -- -- -- -- -- -- -- --  -- -- -- -- -- -- -- --
04C0:                66 5D 80  36 50 0F 01 36 50 0F 01       f].6P..6P..
04D0: 74 68 6B 31 00                                    thk1.           
```

#### Opcodes

```
  0: 0x04C5 [0x66] LOAD_EXT_SCHEDULER_MAIN: Load scheduler "thk1" with entities [Kuah Dakonsa (ID: 17780790/0x010F5036), Kuah Dakonsa (ID: 17780790/0x010F5036)], work=51*
  1: 0x04D4 [0x00] END_REQSTACK()
```

### Event 65535.65

#### Metadata

| Field        | Value    |
|--------------|----------|
| Entrypoint   | 0x04D5   |
| Data Size    | 21 bytes |
| Instructions | 5        |

```
      00 01 02 03 04 05 06 07  08 09 0A 0B 0C 0D 0E 0F
      -- -- -- -- -- -- -- --  -- -- -- -- -- -- -- --
04D0:                59 04 32  50 0F 01 1F 80 1F 00 5E       Y.2P......^
04E0: 80 5F 80 28 80 1F 01 6F  00 00                    ._.(...o..      
```

#### Opcodes

```
  0: 0x04D5 [0x59] UPDATE_ENTITY_DATA: Set Gurdern (ID: 17780786/0x010F5032) main speed = 12* * 0.1
  1: 0x04DD [0x1F] MOVE_ENTITY: EventEntity moves to X=-61.958*, Z=-103.267*, Y=5.999*
  2: 0x04E5 [0x1F] MOVE_ENTITY: Update entity position (mode=1)
  3: 0x04E7 [0x6F] WAIT_FRAME_DELAY: Yield until WaitTime reaches zero
  4: 0x04E8 [0x00] END_REQSTACK()
```

#### Data or dead code:

```
# Dead code (unreachable instructions):
     0x04E9 [0x00] END_REQSTACK()
```

### Event 65535.66

#### Metadata

| Field        | Value    |
|--------------|----------|
| Entrypoint   | 0x04EA   |
| Data Size    | 20 bytes |
| Instructions | 5        |

```
      00 01 02 03 04 05 06 07  08 09 0A 0B 0C 0D 0E 0F
      -- -- -- -- -- -- -- --  -- -- -- -- -- -- -- --
04E0:                                59 04 32 50 0F 01            Y.2P..
04F0: 1F 80 1F 00 60 80 61 80  28 80 1F 01 6F 00        ....`.a.(...o.  
```

#### Opcodes

```
  0: 0x04EA [0x59] UPDATE_ENTITY_DATA: Set Gurdern (ID: 17780786/0x010F5032) main speed = 12* * 0.1
  1: 0x04F2 [0x1F] MOVE_ENTITY: EventEntity moves to X=-66.589*, Z=-92.299*, Y=5.999*
  2: 0x04FA [0x1F] MOVE_ENTITY: Update entity position (mode=1)
  3: 0x04FC [0x6F] WAIT_FRAME_DELAY: Yield until WaitTime reaches zero
  4: 0x04FD [0x00] END_REQSTACK()
```

### Event 65535.67

#### Metadata

| Field        | Value    |
|--------------|----------|
| Entrypoint   | 0x04FE   |
| Data Size    | 20 bytes |
| Instructions | 5        |

```
      00 01 02 03 04 05 06 07  08 09 0A 0B 0C 0D 0E 0F
      -- -- -- -- -- -- -- --  -- -- -- -- -- -- -- --
04F0:                                            59 04                Y.
0500: 32 50 0F 01 1F 80 1F 00  62 80 63 80 28 80 1F 01  2P......b.c.(...
0510: 6F 00                                             o.              
```

#### Opcodes

```
  0: 0x04FE [0x59] UPDATE_ENTITY_DATA: Set Gurdern (ID: 17780786/0x010F5032) main speed = 12* * 0.1
  1: 0x0506 [0x1F] MOVE_ENTITY: EventEntity moves to X=-58.931*, Z=-86.942*, Y=5.999*
  2: 0x050E [0x1F] MOVE_ENTITY: Update entity position (mode=1)
  3: 0x0510 [0x6F] WAIT_FRAME_DELAY: Yield until WaitTime reaches zero
  4: 0x0511 [0x00] END_REQSTACK()
```

### Event 65535.68

#### Metadata

| Field        | Value    |
|--------------|----------|
| Entrypoint   | 0x0512   |
| Data Size    | 17 bytes |
| Instructions | 2        |

```
      00 01 02 03 04 05 06 07  08 09 0A 0B 0C 0D 0E 0F
      -- -- -- -- -- -- -- --  -- -- -- -- -- -- -- --
0510:       5B 37 80 32 50 0F  01 32 50 0F 01 6F 70 30    [7.2P..2P..op0
0520: 30 00 00                                          0..             
```

#### Opcodes

```
  0: 0x0512 [0x5B] LOAD_EXT_SCHEDULER: Load scheduler "op00" with entities [Gurdern (ID: 17780786/0x010F5032), Gurdern (ID: 17780786/0x010F5032)], work=2621*
  1: 0x0521 [0x00] END_REQSTACK()
```

#### Data or dead code:

```
# Dead code (unreachable instructions):
     0x0522 [0x00] END_REQSTACK()
```

### Event 65535.69

#### Metadata

| Field        | Value    |
|--------------|----------|
| Entrypoint   | 0x0523   |
| Data Size    | 20 bytes |
| Instructions | 5        |

```
      00 01 02 03 04 05 06 07  08 09 0A 0B 0C 0D 0E 0F
      -- -- -- -- -- -- -- --  -- -- -- -- -- -- -- --
0520:          59 04 1C 50 0F  01 23 80 1F 00 24 80 25     Y..P..#...$.%
0530: 80 22 80 1F 01 6F 00                              ."...o.         
```

#### Opcodes

```
  0: 0x0523 [0x59] UPDATE_ENTITY_DATA: Set Mertaire (ID: 17780764/0x010F501C) main speed = 11* * 0.1
  1: 0x052B [0x1F] MOVE_ENTITY: EventEntity moves to X=-95.337*, Z=-156.056*, Y=0.000*
  2: 0x0533 [0x1F] MOVE_ENTITY: Update entity position (mode=1)
  3: 0x0535 [0x6F] WAIT_FRAME_DELAY: Yield until WaitTime reaches zero
  4: 0x0536 [0x00] END_REQSTACK()
```

### Event 65535.70

#### Metadata

| Field        | Value    |
|--------------|----------|
| Entrypoint   | 0x0537   |
| Data Size    | 20 bytes |
| Instructions | 5        |

```
      00 01 02 03 04 05 06 07  08 09 0A 0B 0C 0D 0E 0F
      -- -- -- -- -- -- -- --  -- -- -- -- -- -- -- --
0530:                      59  04 1C 50 0F 01 23 80 1F         Y..P..#..
0540: 00 64 80 65 80 66 80 1F  01 6F 00                 .d.e.f...o.     
```

#### Opcodes

```
  0: 0x0537 [0x59] UPDATE_ENTITY_DATA: Set Mertaire (ID: 17780764/0x010F501C) main speed = 11* * 0.1
  1: 0x053F [0x1F] MOVE_ENTITY: EventEntity moves to X=-78.197*, Z=-116.328*, Y=3.999*
  2: 0x0547 [0x1F] MOVE_ENTITY: Update entity position (mode=1)
  3: 0x0549 [0x6F] WAIT_FRAME_DELAY: Yield until WaitTime reaches zero
  4: 0x054A [0x00] END_REQSTACK()
```

### Event 65535.71

#### Metadata

| Field        | Value    |
|--------------|----------|
| Entrypoint   | 0x054B   |
| Data Size    | 16 bytes |
| Instructions | 2        |

```
      00 01 02 03 04 05 06 07  08 09 0A 0B 0C 0D 0E 0F
      -- -- -- -- -- -- -- --  -- -- -- -- -- -- -- --
0540:                                   5B 67 80 1C 50             [g..P
0550: 0F 01 1C 50 0F 01 6F 70  63 30 00                 ...P..opc0.     
```

#### Opcodes

```
  0: 0x054B [0x5B] LOAD_EXT_SCHEDULER: Load scheduler "opc0" with entities [Mertaire (ID: 17780764/0x010F501C), Mertaire (ID: 17780764/0x010F501C)], work=2583*
  1: 0x055A [0x00] END_REQSTACK()
```

### Event 65535.72

#### Metadata

| Field        | Value    |
|--------------|----------|
| Entrypoint   | 0x055B   |
| Data Size    | 16 bytes |
| Instructions | 2        |

```
      00 01 02 03 04 05 06 07  08 09 0A 0B 0C 0D 0E 0F
      -- -- -- -- -- -- -- --  -- -- -- -- -- -- -- --
0550:                                   5B 67 80 1C 50             [g..P
0560: 0F 01 1C 50 0F 01 6F 70  63 31 00                 ...P..opc1.     
```

#### Opcodes

```
  0: 0x055B [0x5B] LOAD_EXT_SCHEDULER: Load scheduler "opc1" with entities [Mertaire (ID: 17780764/0x010F501C), Mertaire (ID: 17780764/0x010F501C)], work=2583*
  1: 0x056A [0x00] END_REQSTACK()
```

### Event 65535.73

#### Metadata

| Field        | Value    |
|--------------|----------|
| Entrypoint   | 0x056B   |
| Data Size    | 21 bytes |
| Instructions | 5        |

```
      00 01 02 03 04 05 06 07  08 09 0A 0B 0C 0D 0E 0F
      -- -- -- -- -- -- -- --  -- -- -- -- -- -- -- --
0560:                                   59 04 1C 50 0F             Y..P.
0570: 01 23 80 1F 00 68 80 69  80 22 80 1F 01 6F 00 00  .#...h.i."...o..
```

#### Opcodes

```
  0: 0x056B [0x59] UPDATE_ENTITY_DATA: Set Mertaire (ID: 17780764/0x010F501C) main speed = 11* * 0.1
  1: 0x0573 [0x1F] MOVE_ENTITY: EventEntity moves to X=-9.883*, Z=-9.826*, Y=0.000*
  2: 0x057B [0x1F] MOVE_ENTITY: Update entity position (mode=1)
  3: 0x057D [0x6F] WAIT_FRAME_DELAY: Yield until WaitTime reaches zero
  4: 0x057E [0x00] END_REQSTACK()
```

#### Data or dead code:

```
# Dead code (unreachable instructions):
     0x057F [0x00] END_REQSTACK()
```

### Event 65535.74

#### Metadata

| Field        | Value    |
|--------------|----------|
| Entrypoint   | 0x0580   |
| Data Size    | 20 bytes |
| Instructions | 5        |

```
      00 01 02 03 04 05 06 07  08 09 0A 0B 0C 0D 0E 0F
      -- -- -- -- -- -- -- --  -- -- -- -- -- -- -- --
0580: 59 04 1E 50 0F 01 6A 80  1F 00 3C 80 3D 80 28 80  Y..P..j...<.=.(.
0590: 1F 01 6F 00                                       ..o.            
```

#### Opcodes

```
  0: 0x0580 [0x59] UPDATE_ENTITY_DATA: Set Bki Tbujhja (ID: 17780766/0x010F501E) main speed = 9* * 0.1
  1: 0x0588 [0x1F] MOVE_ENTITY: EventEntity moves to X=-74.699*, Z=-107.115*, Y=5.999*
  2: 0x0590 [0x1F] MOVE_ENTITY: Update entity position (mode=1)
  3: 0x0592 [0x6F] WAIT_FRAME_DELAY: Yield until WaitTime reaches zero
  4: 0x0593 [0x00] END_REQSTACK()
```

### Event 65535.75

#### Metadata

| Field        | Value    |
|--------------|----------|
| Entrypoint   | 0x0594   |
| Data Size    | 20 bytes |
| Instructions | 5        |

```
      00 01 02 03 04 05 06 07  08 09 0A 0B 0C 0D 0E 0F
      -- -- -- -- -- -- -- --  -- -- -- -- -- -- -- --
0590:             59 04 1E 50  0F 01 23 80 1F 00 6B 80      Y..P..#...k.
05A0: 6C 80 28 80 1F 01 6F 00                           l.(...o.        
```

#### Opcodes

```
  0: 0x0594 [0x59] UPDATE_ENTITY_DATA: Set Bki Tbujhja (ID: 17780766/0x010F501E) main speed = 11* * 0.1
  1: 0x059C [0x1F] MOVE_ENTITY: EventEntity moves to X=-72.052*, Z=-102.467*, Y=5.999*
  2: 0x05A4 [0x1F] MOVE_ENTITY: Update entity position (mode=1)
  3: 0x05A6 [0x6F] WAIT_FRAME_DELAY: Yield until WaitTime reaches zero
  4: 0x05A7 [0x00] END_REQSTACK()
```

### Event 65535.76

#### Metadata

| Field        | Value    |
|--------------|----------|
| Entrypoint   | 0x05A8   |
| Data Size    | 16 bytes |
| Instructions | 2        |

```
      00 01 02 03 04 05 06 07  08 09 0A 0B 0C 0D 0E 0F
      -- -- -- -- -- -- -- --  -- -- -- -- -- -- -- --
05A0:                          66 5C 80 1E 50 0F 01 1E          f\..P...
05B0: 50 0F 01 61 77 77 30 00                           P..aww0.        
```

#### Opcodes

```
  0: 0x05A8 [0x66] LOAD_EXT_SCHEDULER_MAIN: Load scheduler "aww0" with entities [Bki Tbujhja (ID: 17780766/0x010F501E), Bki Tbujhja (ID: 17780766/0x010F501E)], work=8*
  1: 0x05B7 [0x00] END_REQSTACK()
```

### Event 65535.77

#### Metadata

| Field        | Value    |
|--------------|----------|
| Entrypoint   | 0x05B8   |
| Data Size    | 20 bytes |
| Instructions | 5        |

```
      00 01 02 03 04 05 06 07  08 09 0A 0B 0C 0D 0E 0F
      -- -- -- -- -- -- -- --  -- -- -- -- -- -- -- --
05B0:                          59 04 1E 50 0F 01 6A 80          Y..P..j.
05C0: 1F 00 6D 80 6E 80 22 80  1F 01 6F 00              ..m.n."...o.    
```

#### Opcodes

```
  0: 0x05B8 [0x59] UPDATE_ENTITY_DATA: Set Bki Tbujhja (ID: 17780766/0x010F501E) main speed = 9* * 0.1
  1: 0x05C0 [0x1F] MOVE_ENTITY: EventEntity moves to X=-5.853*, Z=-5.190*, Y=0.000*
  2: 0x05C8 [0x1F] MOVE_ENTITY: Update entity position (mode=1)
  3: 0x05CA [0x6F] WAIT_FRAME_DELAY: Yield until WaitTime reaches zero
  4: 0x05CB [0x00] END_REQSTACK()
```

### Event 65535.78

#### Metadata

| Field        | Value    |
|--------------|----------|
| Entrypoint   | 0x05CC   |
| Data Size    | 21 bytes |
| Instructions | 5        |

```
      00 01 02 03 04 05 06 07  08 09 0A 0B 0C 0D 0E 0F
      -- -- -- -- -- -- -- --  -- -- -- -- -- -- -- --
05C0:                                      59 04 1E 50              Y..P
05D0: 0F 01 23 80 1F 00 62 80  63 80 28 80 1F 01 6F 00  ..#...b.c.(...o.
05E0: 00                                                .               
```

#### Opcodes

```
  0: 0x05CC [0x59] UPDATE_ENTITY_DATA: Set Bki Tbujhja (ID: 17780766/0x010F501E) main speed = 11* * 0.1
  1: 0x05D4 [0x1F] MOVE_ENTITY: EventEntity moves to X=-58.931*, Z=-86.942*, Y=5.999*
  2: 0x05DC [0x1F] MOVE_ENTITY: Update entity position (mode=1)
  3: 0x05DE [0x6F] WAIT_FRAME_DELAY: Yield until WaitTime reaches zero
  4: 0x05DF [0x00] END_REQSTACK()
```

#### Data or dead code:

```
# Dead code (unreachable instructions):
     0x05E0 [0x00] END_REQSTACK()
```

### Event 65535.79

#### Metadata

| Field        | Value    |
|--------------|----------|
| Entrypoint   | 0x05E1   |
| Data Size    | 20 bytes |
| Instructions | 5        |

```
      00 01 02 03 04 05 06 07  08 09 0A 0B 0C 0D 0E 0F
      -- -- -- -- -- -- -- --  -- -- -- -- -- -- -- --
05E0:    59 04 27 50 0F 01 1F  80 1F 00 6F 80 70 80 71   Y.'P......o.p.q
05F0: 80 1F 01 6F 00                                    ...o.           
```

#### Opcodes

```
  0: 0x05E1 [0x59] UPDATE_ENTITY_DATA: Set Danzhor (ID: 17780775/0x010F5027) main speed = 12* * 0.1
  1: 0x05E9 [0x1F] MOVE_ENTITY: EventEntity moves to X=-45.210*, Z=-89.196*, Y=-5.999*
  2: 0x05F1 [0x1F] MOVE_ENTITY: Update entity position (mode=1)
  3: 0x05F3 [0x6F] WAIT_FRAME_DELAY: Yield until WaitTime reaches zero
  4: 0x05F4 [0x00] END_REQSTACK()
```

### Event 65535.80

#### Metadata

| Field        | Value    |
|--------------|----------|
| Entrypoint   | 0x05F5   |
| Data Size    | 12 bytes |
| Instructions | 4        |

```
      00 01 02 03 04 05 06 07  08 09 0A 0B 0C 0D 0E 0F
      -- -- -- -- -- -- -- --  -- -- -- -- -- -- -- --
05F0:                1F 00 72  80 73 80 22 80 1F 01 6F       ..r.s."...o
0600: 00                                                .               
```

#### Opcodes

```
  0: 0x05F5 [0x1F] MOVE_ENTITY: EventEntity moves to X=-18.343*, Z=-8.286*, Y=0.000*
  1: 0x05FD [0x1F] MOVE_ENTITY: Update entity position (mode=1)
  2: 0x05FF [0x6F] WAIT_FRAME_DELAY: Yield until WaitTime reaches zero
  3: 0x0600 [0x00] END_REQSTACK()
```

### Event 65535.81

#### Metadata

| Field        | Value    |
|--------------|----------|
| Entrypoint   | 0x0601   |
| Data Size    | 16 bytes |
| Instructions | 2        |

```
      00 01 02 03 04 05 06 07  08 09 0A 0B 0C 0D 0E 0F
      -- -- -- -- -- -- -- --  -- -- -- -- -- -- -- --
0600:    66 34 80 27 50 0F 01  27 50 0F 01 74 68 6B 31   f4.'P..'P..thk1
0610: 00                                                .               
```

#### Opcodes

```
  0: 0x0601 [0x66] LOAD_EXT_SCHEDULER_MAIN: Load scheduler "thk1" with entities [Danzhor (ID: 17780775/0x010F5027), Danzhor (ID: 17780775/0x010F5027)], work=69*
  1: 0x0610 [0x00] END_REQSTACK()
```

### Event 65535.82

#### Metadata

| Field        | Value    |
|--------------|----------|
| Entrypoint   | 0x0611   |
| Data Size    | 16 bytes |
| Instructions | 2        |

```
      00 01 02 03 04 05 06 07  08 09 0A 0B 0C 0D 0E 0F
      -- -- -- -- -- -- -- --  -- -- -- -- -- -- -- --
0610:    66 34 80 27 50 0F 01  27 50 0F 01 74 68 6B 32   f4.'P..'P..thk2
0620: 00                                                .               
```

#### Opcodes

```
  0: 0x0611 [0x66] LOAD_EXT_SCHEDULER_MAIN: Load scheduler "thk2" with entities [Danzhor (ID: 17780775/0x010F5027), Danzhor (ID: 17780775/0x010F5027)], work=69*
  1: 0x0620 [0x00] END_REQSTACK()
```

### Event 65535.83

#### Metadata

| Field        | Value    |
|--------------|----------|
| Entrypoint   | 0x0621   |
| Data Size    | 20 bytes |
| Instructions | 5        |

```
      00 01 02 03 04 05 06 07  08 09 0A 0B 0C 0D 0E 0F
      -- -- -- -- -- -- -- --  -- -- -- -- -- -- -- --
0620:    59 04 27 50 0F 01 1F  80 1F 00 74 80 75 80 22   Y.'P......t.u."
0630: 80 1F 01 6F 00                                    ...o.           
```

#### Opcodes

```
  0: 0x0621 [0x59] UPDATE_ENTITY_DATA: Set Danzhor (ID: 17780775/0x010F5027) main speed = 12* * 0.1
  1: 0x0629 [0x1F] MOVE_ENTITY: EventEntity moves to X=-17.939*, Z=-16.579*, Y=0.000*
  2: 0x0631 [0x1F] MOVE_ENTITY: Update entity position (mode=1)
  3: 0x0633 [0x6F] WAIT_FRAME_DELAY: Yield until WaitTime reaches zero
  4: 0x0634 [0x00] END_REQSTACK()
```

### Event 65535.84

#### Metadata

| Field        | Value    |
|--------------|----------|
| Entrypoint   | 0x0635   |
| Data Size    | 20 bytes |
| Instructions | 5        |

```
      00 01 02 03 04 05 06 07  08 09 0A 0B 0C 0D 0E 0F
      -- -- -- -- -- -- -- --  -- -- -- -- -- -- -- --
0630:                59 04 27  50 0F 01 1F 80 1F 00 76       Y.'P......v
0640: 80 77 80 22 80 1F 01 6F  00                       .w."...o.       
```

#### Opcodes

```
  0: 0x0635 [0x59] UPDATE_ENTITY_DATA: Set Danzhor (ID: 17780775/0x010F5027) main speed = 12* * 0.1
  1: 0x063D [0x1F] MOVE_ENTITY: EventEntity moves to X=-3.065*, Z=-7.931*, Y=0.000*
  2: 0x0645 [0x1F] MOVE_ENTITY: Update entity position (mode=1)
  3: 0x0647 [0x6F] WAIT_FRAME_DELAY: Yield until WaitTime reaches zero
  4: 0x0648 [0x00] END_REQSTACK()
```

### Event 65535.85

#### Metadata

| Field        | Value    |
|--------------|----------|
| Entrypoint   | 0x0649   |
| Data Size    | 17 bytes |
| Instructions | 2        |

```
      00 01 02 03 04 05 06 07  08 09 0A 0B 0C 0D 0E 0F
      -- -- -- -- -- -- -- --  -- -- -- -- -- -- -- --
0640:                             66 48 80 30 50 0F 01           fH.0P..
0650: 30 50 0F 01 73 68 6B 30  00 00                    0P..shk0..      
```

#### Opcodes

```
  0: 0x0649 [0x66] LOAD_EXT_SCHEDULER_MAIN: Load scheduler "shk0" with entities [Kikilolo (ID: 17780784/0x010F5030), Kikilolo (ID: 17780784/0x010F5030)], work=41*
  1: 0x0658 [0x00] END_REQSTACK()
```

#### Data or dead code:

```
# Dead code (unreachable instructions):
     0x0659 [0x00] END_REQSTACK()
```

### Event 65535.86

#### Metadata

| Field        | Value    |
|--------------|----------|
| Entrypoint   | 0x065A   |
| Data Size    | 16 bytes |
| Instructions | 2        |

```
      00 01 02 03 04 05 06 07  08 09 0A 0B 0C 0D 0E 0F
      -- -- -- -- -- -- -- --  -- -- -- -- -- -- -- --
0650:                                5B 06 80 39 50 0F            [..9P.
0660: 01 39 50 0F 01 74 6C 6B  30 00                    .9P..tlk0.      
```

#### Opcodes

```
  0: 0x065A [0x5B] LOAD_EXT_SCHEDULER: Load scheduler "tlk0" with entities [Momiji (ID: 17780793/0x010F5039), Momiji (ID: 17780793/0x010F5039)], work=60*
  1: 0x0669 [0x00] END_REQSTACK()
```

### Event 65535.87

#### Metadata

| Field        | Value    |
|--------------|----------|
| Entrypoint   | 0x066A   |
| Data Size    | 16 bytes |
| Instructions | 2        |

```
      00 01 02 03 04 05 06 07  08 09 0A 0B 0C 0D 0E 0F
      -- -- -- -- -- -- -- --  -- -- -- -- -- -- -- --
0660:                                5B 06 80 39 50 0F            [..9P.
0670: 01 39 50 0F 01 74 6C 6B  31 00                    .9P..tlk1.      
```

#### Opcodes

```
  0: 0x066A [0x5B] LOAD_EXT_SCHEDULER: Load scheduler "tlk1" with entities [Momiji (ID: 17780793/0x010F5039), Momiji (ID: 17780793/0x010F5039)], work=60*
  1: 0x0679 [0x00] END_REQSTACK()
```

### Event 65535.88

#### Metadata

| Field        | Value    |
|--------------|----------|
| Entrypoint   | 0x067A   |
| Data Size    | 16 bytes |
| Instructions | 2        |

```
      00 01 02 03 04 05 06 07  08 09 0A 0B 0C 0D 0E 0F
      -- -- -- -- -- -- -- --  -- -- -- -- -- -- -- --
0670:                                5B 06 80 39 50 0F            [..9P.
0680: 01 39 50 0F 01 74 68 6B  31 00                    .9P..thk1.      
```

#### Opcodes

```
  0: 0x067A [0x5B] LOAD_EXT_SCHEDULER: Load scheduler "thk1" with entities [Momiji (ID: 17780793/0x010F5039), Momiji (ID: 17780793/0x010F5039)], work=60*
  1: 0x0689 [0x00] END_REQSTACK()
```

### Event 65535.89

#### Metadata

| Field        | Value    |
|--------------|----------|
| Entrypoint   | 0x068A   |
| Data Size    | 16 bytes |
| Instructions | 2        |

```
      00 01 02 03 04 05 06 07  08 09 0A 0B 0C 0D 0E 0F
      -- -- -- -- -- -- -- --  -- -- -- -- -- -- -- --
0680:                                5B 06 80 39 50 0F            [..9P.
0690: 01 39 50 0F 01 74 68 6B  32 00                    .9P..thk2.      
```

#### Opcodes

```
  0: 0x068A [0x5B] LOAD_EXT_SCHEDULER: Load scheduler "thk2" with entities [Momiji (ID: 17780793/0x010F5039), Momiji (ID: 17780793/0x010F5039)], work=60*
  1: 0x0699 [0x00] END_REQSTACK()
```

### Event 65535.90

#### Metadata

| Field        | Value    |
|--------------|----------|
| Entrypoint   | 0x069A   |
| Data Size    | 17 bytes |
| Instructions | 2        |

```
      00 01 02 03 04 05 06 07  08 09 0A 0B 0C 0D 0E 0F
      -- -- -- -- -- -- -- --  -- -- -- -- -- -- -- --
0690:                                5B 78 80 39 50 0F            [x.9P.
06A0: 01 39 50 0F 01 65 6D 74  30 00 00                 .9P..emt0..     
```

#### Opcodes

```
  0: 0x069A [0x5B] LOAD_EXT_SCHEDULER: Load scheduler "emt0" with entities [Momiji (ID: 17780793/0x010F5039), Momiji (ID: 17780793/0x010F5039)], work=2624*
  1: 0x06A9 [0x00] END_REQSTACK()
```

#### Data or dead code:

```
# Dead code (unreachable instructions):
     0x06AA [0x00] END_REQSTACK()
```

### Event 65535.91

#### Metadata

| Field        | Value    |
|--------------|----------|
| Entrypoint   | 0x06AB   |
| Data Size    | 20 bytes |
| Instructions | 5        |

```
      00 01 02 03 04 05 06 07  08 09 0A 0B 0C 0D 0E 0F
      -- -- -- -- -- -- -- --  -- -- -- -- -- -- -- --
06A0:                                   59 04 3C 50 0F             Y.<P.
06B0: 01 11 80 1F 00 79 80 7A  80 22 80 1F 01 6F 00     .....y.z."...o. 
```

#### Opcodes

```
  0: 0x06AB [0x59] UPDATE_ENTITY_DATA: Set Mendi (ID: 17780796/0x010F503C) main speed = 13* * 0.1
  1: 0x06B3 [0x1F] MOVE_ENTITY: EventEntity moves to X=-38.371*, Z=-67.496*, Y=0.000*
  2: 0x06BB [0x1F] MOVE_ENTITY: Update entity position (mode=1)
  3: 0x06BD [0x6F] WAIT_FRAME_DELAY: Yield until WaitTime reaches zero
  4: 0x06BE [0x00] END_REQSTACK()
```

### Event 65535.92

#### Metadata

| Field        | Value    |
|--------------|----------|
| Entrypoint   | 0x06BF   |
| Data Size    | 12 bytes |
| Instructions | 4        |

```
      00 01 02 03 04 05 06 07  08 09 0A 0B 0C 0D 0E 0F
      -- -- -- -- -- -- -- --  -- -- -- -- -- -- -- --
06B0:                                               1F                 .
06C0: 00 7B 80 7C 80 22 80 1F  01 6F 00                 .{.|."...o.     
```

#### Opcodes

```
  0: 0x06BF [0x1F] MOVE_ENTITY: EventEntity moves to X=-5.565*, Z=-1.804*, Y=0.000*
  1: 0x06C7 [0x1F] MOVE_ENTITY: Update entity position (mode=1)
  2: 0x06C9 [0x6F] WAIT_FRAME_DELAY: Yield until WaitTime reaches zero
  3: 0x06CA [0x00] END_REQSTACK()
```

### Event 65535.93

#### Metadata

| Field        | Value    |
|--------------|----------|
| Entrypoint   | 0x06CB   |
| Data Size    | 16 bytes |
| Instructions | 2        |

```
      00 01 02 03 04 05 06 07  08 09 0A 0B 0C 0D 0E 0F
      -- -- -- -- -- -- -- --  -- -- -- -- -- -- -- --
06C0:                                   5B 67 80 3C 50             [g.<P
06D0: 0F 01 3C 50 0F 01 6F 70  62 30 00                 ..<P..opb0.     
```

#### Opcodes

```
  0: 0x06CB [0x5B] LOAD_EXT_SCHEDULER: Load scheduler "opb0" with entities [Mendi (ID: 17780796/0x010F503C), Mendi (ID: 17780796/0x010F503C)], work=2583*
  1: 0x06DA [0x00] END_REQSTACK()
```

### Event 65535.94

#### Metadata

| Field        | Value    |
|--------------|----------|
| Entrypoint   | 0x06DB   |
| Data Size    | 16 bytes |
| Instructions | 2        |

```
      00 01 02 03 04 05 06 07  08 09 0A 0B 0C 0D 0E 0F
      -- -- -- -- -- -- -- --  -- -- -- -- -- -- -- --
06D0:                                   5B 67 80 3C 50             [g.<P
06E0: 0F 01 3C 50 0F 01 6F 70  63 30 00                 ..<P..opc0.     
```

#### Opcodes

```
  0: 0x06DB [0x5B] LOAD_EXT_SCHEDULER: Load scheduler "opc0" with entities [Mendi (ID: 17780796/0x010F503C), Mendi (ID: 17780796/0x010F503C)], work=2583*
  1: 0x06EA [0x00] END_REQSTACK()
```

### Event 65535.95

#### Metadata

| Field        | Value    |
|--------------|----------|
| Entrypoint   | 0x06EB   |
| Data Size    | 16 bytes |
| Instructions | 2        |

```
      00 01 02 03 04 05 06 07  08 09 0A 0B 0C 0D 0E 0F
      -- -- -- -- -- -- -- --  -- -- -- -- -- -- -- --
06E0:                                   5B 67 80 3C 50             [g.<P
06F0: 0F 01 3C 50 0F 01 6F 70  63 31 00                 ..<P..opc1.     
```

#### Opcodes

```
  0: 0x06EB [0x5B] LOAD_EXT_SCHEDULER: Load scheduler "opc1" with entities [Mendi (ID: 17780796/0x010F503C), Mendi (ID: 17780796/0x010F503C)], work=2583*
  1: 0x06FA [0x00] END_REQSTACK()
```

### Event 65535.96

#### Metadata

| Field        | Value    |
|--------------|----------|
| Entrypoint   | 0x06FB   |
| Data Size    | 16 bytes |
| Instructions | 2        |

```
      00 01 02 03 04 05 06 07  08 09 0A 0B 0C 0D 0E 0F
      -- -- -- -- -- -- -- --  -- -- -- -- -- -- -- --
06F0:                                   66 7D 80 3C 50             f}.<P
0700: 0F 01 3C 50 0F 01 74 68  62 31 00                 ..<P..thb1.     
```

#### Opcodes

```
  0: 0x06FB [0x66] LOAD_EXT_SCHEDULER_MAIN: Load scheduler "thb1" with entities [Mendi (ID: 17780796/0x010F503C), Mendi (ID: 17780796/0x010F503C)], work=2*
  1: 0x070A [0x00] END_REQSTACK()
```

### Event 65535.97

#### Metadata

| Field        | Value    |
|--------------|----------|
| Entrypoint   | 0x070B   |
| Data Size    | 16 bytes |
| Instructions | 2        |

```
      00 01 02 03 04 05 06 07  08 09 0A 0B 0C 0D 0E 0F
      -- -- -- -- -- -- -- --  -- -- -- -- -- -- -- --
0700:                                   66 7D 80 3C 50             f}.<P
0710: 0F 01 3C 50 0F 01 74 68  62 32 00                 ..<P..thb2.     
```

#### Opcodes

```
  0: 0x070B [0x66] LOAD_EXT_SCHEDULER_MAIN: Load scheduler "thb2" with entities [Mendi (ID: 17780796/0x010F503C), Mendi (ID: 17780796/0x010F503C)], work=2*
  1: 0x071A [0x00] END_REQSTACK()
```

### Event 65535.98

#### Metadata

| Field        | Value    |
|--------------|----------|
| Entrypoint   | 0x071B   |
| Data Size    | 16 bytes |
| Instructions | 2        |

```
      00 01 02 03 04 05 06 07  08 09 0A 0B 0C 0D 0E 0F
      -- -- -- -- -- -- -- --  -- -- -- -- -- -- -- --
0710:                                   66 22 80 3C 50             f".<P
0720: 0F 01 3C 50 0F 01 74 68  6B 31 00                 ..<P..thk1.     
```

#### Opcodes

```
  0: 0x071B [0x66] LOAD_EXT_SCHEDULER_MAIN: Load scheduler "thk1" with entities [Mendi (ID: 17780796/0x010F503C), Mendi (ID: 17780796/0x010F503C)], work=0*
  1: 0x072A [0x00] END_REQSTACK()
```

### Event 65535.99

#### Metadata

| Field        | Value    |
|--------------|----------|
| Entrypoint   | 0x072B   |
| Data Size    | 16 bytes |
| Instructions | 2        |

```
      00 01 02 03 04 05 06 07  08 09 0A 0B 0C 0D 0E 0F
      -- -- -- -- -- -- -- --  -- -- -- -- -- -- -- --
0720:                                   66 22 80 3C 50             f".<P
0730: 0F 01 3C 50 0F 01 74 68  6B 32 00                 ..<P..thk2.     
```

#### Opcodes

```
  0: 0x072B [0x66] LOAD_EXT_SCHEDULER_MAIN: Load scheduler "thk2" with entities [Mendi (ID: 17780796/0x010F503C), Mendi (ID: 17780796/0x010F503C)], work=0*
  1: 0x073A [0x00] END_REQSTACK()
```

### Event 65535.100

#### Metadata

| Field        | Value    |
|--------------|----------|
| Entrypoint   | 0x073B   |
| Data Size    | 20 bytes |
| Instructions | 5        |

```
      00 01 02 03 04 05 06 07  08 09 0A 0B 0C 0D 0E 0F
      -- -- -- -- -- -- -- --  -- -- -- -- -- -- -- --
0730:                                   59 04 3C 50 0F             Y.<P.
0740: 01 11 80 1F 00 7E 80 7F  80 22 80 1F 01 6F 00     .....~..."...o. 
```

#### Opcodes

```
  0: 0x073B [0x59] UPDATE_ENTITY_DATA: Set Mendi (ID: 17780796/0x010F503C) main speed = 13* * 0.1
  1: 0x0743 [0x1F] MOVE_ENTITY: EventEntity moves to X=-2.765*, Z=5.059*, Y=0.000*
  2: 0x074B [0x1F] MOVE_ENTITY: Update entity position (mode=1)
  3: 0x074D [0x6F] WAIT_FRAME_DELAY: Yield until WaitTime reaches zero
  4: 0x074E [0x00] END_REQSTACK()
```

### Event 65535.101

#### Metadata

| Field        | Value    |
|--------------|----------|
| Entrypoint   | 0x074F   |
| Data Size    | 20 bytes |
| Instructions | 5        |

```
      00 01 02 03 04 05 06 07  08 09 0A 0B 0C 0D 0E 0F
      -- -- -- -- -- -- -- --  -- -- -- -- -- -- -- --
0740:                                               59                 Y
0750: 04 3C 50 0F 01 11 80 1F  00 5A 80 5B 80 22 80 1F  .<P......Z.[."..
0760: 01 6F 00                                          .o.             
```

#### Opcodes

```
  0: 0x074F [0x59] UPDATE_ENTITY_DATA: Set Mendi (ID: 17780796/0x010F503C) main speed = 13* * 0.1
  1: 0x0757 [0x1F] MOVE_ENTITY: EventEntity moves to X=-0.991*, Z=2.123*, Y=0.000*
  2: 0x075F [0x1F] MOVE_ENTITY: Update entity position (mode=1)
  3: 0x0761 [0x6F] WAIT_FRAME_DELAY: Yield until WaitTime reaches zero
  4: 0x0762 [0x00] END_REQSTACK()
```

### Event 65535.102

#### Metadata

| Field        | Value    |
|--------------|----------|
| Entrypoint   | 0x0763   |
| Data Size    | 16 bytes |
| Instructions | 2        |

```
      00 01 02 03 04 05 06 07  08 09 0A 0B 0C 0D 0E 0F
      -- -- -- -- -- -- -- --  -- -- -- -- -- -- -- --
0760:          5B 67 80 3C 50  0F 01 3C 50 0F 01 6F 70     [g.<P..<P..op
0770: 64 30 00                                          d0.             
```

#### Opcodes

```
  0: 0x0763 [0x5B] LOAD_EXT_SCHEDULER: Load scheduler "opd0" with entities [Mendi (ID: 17780796/0x010F503C), Mendi (ID: 17780796/0x010F503C)], work=2583*
  1: 0x0772 [0x00] END_REQSTACK()
```

### Event 65535.103

#### Metadata

| Field        | Value    |
|--------------|----------|
| Entrypoint   | 0x0773   |
| Data Size    | 16 bytes |
| Instructions | 2        |

```
      00 01 02 03 04 05 06 07  08 09 0A 0B 0C 0D 0E 0F
      -- -- -- -- -- -- -- --  -- -- -- -- -- -- -- --
0770:          5B 67 80 3C 50  0F 01 3C 50 0F 01 6F 70     [g.<P..<P..op
0780: 64 31 00                                          d1.             
```

#### Opcodes

```
  0: 0x0773 [0x5B] LOAD_EXT_SCHEDULER: Load scheduler "opd1" with entities [Mendi (ID: 17780796/0x010F503C), Mendi (ID: 17780796/0x010F503C)], work=2583*
  1: 0x0782 [0x00] END_REQSTACK()
```
