# 17780781 - Tawfeeq

## Common Data

| Field            | Value                 |
|------------------|-----------------------|
| Zone             | Lower Jeuno (ID: 245) |
| Block Size       | 104 bytes             |
| Total Events     | 2                     |
| References Count | 3                     |

## List of Events

| Event ID              | Entrypoint   |   Size |   Instructions |
|-----------------------|--------------|--------|----------------|
| [65535](#event-65535) | 0x0000       |      1 |              1 |
| [225](#event-225)     | 0x0001       |     64 |             12 |

## DAT References (imed_data)

|   Index | Hex Value   |   Dec Value |
|---------|-------------|-------------|
|       0 | 0x0000      |           0 |
|       1 | 0x1E5A      |        7770 |
|       2 | 0x1E5B      |        7771 |

## String References

- **7770**: Why do women always go gaga over diamonds? I don't get it at all.
- **7771**: She's having fun, so that's fine. I just wish she'd hurry up and pick something out already!

## Events

### Event 65535

#### Metadata

| Field        | Value   |
|--------------|---------|
| Entrypoint   | 0x0000  |
| Data Size    | 1 bytes |
| Instructions | 1       |

```
      00 01 02 03 04 05 06 07  08 09 0A 0B 0C 0D 0E 0F
      -- -- -- -- -- -- -- --  -- -- -- -- -- -- -- --
0000: 00                                                .               
```

#### Opcodes

```
  0: 0x0000 [0x00] END_REQSTACK()
```

### Event 225

#### Metadata

| Field        | Value    |
|--------------|----------|
| Entrypoint   | 0x0001   |
| Data Size    | 64 bytes |
| Instructions | 12       |

```
      00 01 02 03 04 05 06 07  08 09 0A 0B 0C 0D 0E 0F
      -- -- -- -- -- -- -- --  -- -- -- -- -- -- -- --
0000:    1E F0 FF FF 7F 6F 76  F8 FF FF 7F 66 00 80 F8   .....ov....f...
0010: FF FF 7F F8 FF FF 7F 74  68 6B 31 1D 01 80 23 66  .......thk1...#f
0020: 00 80 F8 FF FF 7F F8 FF  FF 7F 74 68 6B 32 1D 02  ..........thk2..
0030: 80 23 53 F8 FF FF 7F F8  FF FF 7F 74 68 6B 32 21  .#S........thk2!
0040: 00                                                .               
```

#### Opcodes

```
  0: 0x0001 [0x1E] EventEntity looks at LocalPlayer and starts talking
  1: 0x0006 [0x6F] WAIT_FRAME_DELAY: Yield until WaitTime reaches zero
  2: 0x0007 [0x76] CHECK_ENTITY_RENDER_FLAGS: Wait until EventEntity Render.Flags0 and Render.Flags3 conditions are met
  3: 0x000C [0x66] LOAD_EXT_SCHEDULER_MAIN: Load scheduler "thk1" with entities [EventEntity, EventEntity], work=0*
  4: 0x001B [0x1D] PRINT_EVENT_MESSAGE(message_id=7770*)
    → "Why do women always go gaga over diamonds? I don't get it at all."
  5: 0x001E [0x23] WAIT_FOR_DIALOG_INTERACTION
  6: 0x001F [0x66] LOAD_EXT_SCHEDULER_MAIN: Load scheduler "thk2" with entities [EventEntity, EventEntity], work=0*
  7: 0x002E [0x1D] PRINT_EVENT_MESSAGE(message_id=7771*)
    → "She's having fun, so that's fine. I just wish she'd hurry up and pick something out already!"
  8: 0x0031 [0x23] WAIT_FOR_DIALOG_INTERACTION
  9: 0x0032 [0x53] WAIT_SCHEDULER_TASK: Wait for scheduler "thk2" with entities [EventEntity, EventEntity]
 10: 0x003F [0x21] END_EVENT
 11: 0x0040 [0x00] END_REQSTACK()
```
