# 17781063

## Common Data

| Field            | Value                 |
|------------------|-----------------------|
| Zone             | Lower Jeuno (ID: 245) |
| Block Size       | 68 bytes              |
| Total Events     | 2                     |
| References Count | 6                     |

## List of Events

| Event ID              | Entrypoint   |   Size |   Instructions |
|-----------------------|--------------|--------|----------------|
| [65535](#event-65535) | 0x0000       |      1 |              1 |
| [20089](#event-20089) | 0x0001       |     18 |              4 |

## DAT References (imed_data)

|   Index | Hex Value   |   Dec Value |
|---------|-------------|-------------|
|       0 | 0xFFFEDE00  |  4294893056 |
|       1 | 0xFFFD72D6  |  4294800086 |
|       2 | 0xFFFFE890  |  4294961296 |
|       3 | 0x06B7      |        1719 |
|       4 | 0x00C8      |         200 |
|       5 | 0x0002      |           2 |

## Events

### Event 65535

#### Metadata

| Field        | Value   |
|--------------|---------|
| Entrypoint   | 0x0000  |
| Data Size    | 1 bytes |
| Instructions | 1       |

```
      00 01 02 03 04 05 06 07  08 09 0A 0B 0C 0D 0E 0F
      -- -- -- -- -- -- -- --  -- -- -- -- -- -- -- --
0000: 00                                                .               
```

#### Opcodes

```
  0: 0x0000 [0x00] END_REQSTACK()
```

### Event 20089

#### Metadata

| Field        | Value    |
|--------------|----------|
| Entrypoint   | 0x0001   |
| Data Size    | 18 bytes |
| Instructions | 4        |

```
      00 01 02 03 04 05 06 07  08 09 0A 0B 0C 0D 0E 0F
      -- -- -- -- -- -- -- --  -- -- -- -- -- -- -- --
0000:    37 00 80 01 80 02 80  03 80 B6 0F 04 80 AC 01   7..............
0010: 05 80 00                                          ...             
```

#### Opcodes

```
  0: 0x0001 [0x37] UPDATE_EVENT_POSITION_AND_DIR: x=-74.240*, z=-167.210*, y=-6.000*, direction=151.1°*
  1: 0x000A [0xB6] ENTITY_APPEARANCE_HANDLER(case=Model size, value=200*)
  2: 0x000E [0xAC] EventEntity->StatusEvent = 2*
  3: 0x0012 [0x00] END_REQSTACK()
```
