# 17780787 - Omer

## Common Data

| Field            | Value                 |
|------------------|-----------------------|
| Zone             | Lower Jeuno (ID: 245) |
| Block Size       | 1232 bytes            |
| Total Events     | 52                    |
| References Count | 36                    |

## List of Events

| Event ID                   | Entrypoint   |   Size |   Instructions |
|----------------------------|--------------|--------|----------------|
| [65535](#event-65535)      | 0x0000       |      1 |              1 |
| [206](#event-206)          | 0x0001       |     56 |             10 |
| [65535.1](#event-655351)   | 0x0039       |     16 |              2 |
| [65535.2](#event-655352)   | 0x0049       |     14 |              2 |
| [65535.3](#event-655353)   | 0x0057       |     16 |              2 |
| [65535.4](#event-655354)   | 0x0067       |     14 |              2 |
| [65535.5](#event-655355)   | 0x0075       |     16 |              2 |
| [65535.6](#event-655356)   | 0x0085       |     14 |              2 |
| [65535.7](#event-655357)   | 0x0093       |     16 |              2 |
| [65535.8](#event-655358)   | 0x00A3       |     14 |              2 |
| [65535.9](#event-655359)   | 0x00B1       |     16 |              2 |
| [65535.10](#event-6553510) | 0x00C1       |     14 |              2 |
| [65535.11](#event-6553511) | 0x00CF       |     16 |              2 |
| [65535.12](#event-6553512) | 0x00DF       |     14 |              2 |
| [65535.13](#event-6553513) | 0x00ED       |     16 |              2 |
| [65535.14](#event-6553514) | 0x00FD       |     14 |              2 |
| [65535.15](#event-6553515) | 0x010B       |     16 |              2 |
| [65535.16](#event-6553516) | 0x011B       |     14 |              2 |
| [65535.17](#event-6553517) | 0x0129       |     16 |              2 |
| [65535.18](#event-6553518) | 0x0139       |     14 |              2 |
| [65535.19](#event-6553519) | 0x0147       |     16 |              2 |
| [65535.20](#event-6553520) | 0x0157       |     14 |              2 |
| [65535.21](#event-6553521) | 0x0165       |     16 |              2 |
| [65535.22](#event-6553522) | 0x0175       |     14 |              2 |
| [10040](#event-10040)      | 0x0183       |      1 |              1 |
| [65535.23](#event-6553523) | 0x0184       |     10 |              2 |
| [65535.24](#event-6553524) | 0x018E       |     10 |              2 |
| [65535.25](#event-6553525) | 0x0198       |     15 |              5 |
| [10041](#event-10041)      | 0x01A7       |     66 |             20 |
| [10042](#event-10042)      | 0x01E9       |      1 |              1 |
| [65535.26](#event-6553526) | 0x01EA       |     10 |              2 |
| [65535.27](#event-6553527) | 0x01F4       |     15 |              5 |
| [65535.28](#event-6553528) | 0x0203       |     15 |              5 |
| [10043](#event-10043)      | 0x0212       |     55 |             14 |
| [10094](#event-10094)      | 0x0249       |      4 |              2 |
| [65535.29](#event-6553529) | 0x024D       |     20 |              5 |
| [65535.30](#event-6553530) | 0x0261       |     12 |              4 |
| [65535.31](#event-6553531) | 0x026D       |     16 |              2 |
| [65535.32](#event-6553532) | 0x027D       |     16 |              2 |
| [65535.33](#event-6553533) | 0x028D       |     16 |              2 |
| [65535.34](#event-6553534) | 0x029D       |     16 |              2 |
| [65535.35](#event-6553535) | 0x02AD       |     16 |              2 |
| [65535.36](#event-6553536) | 0x02BD       |     20 |              5 |
| [65535.37](#event-6553537) | 0x02D1       |     16 |              2 |
| [65535.38](#event-6553538) | 0x02E1       |     16 |              2 |
| [65535.39](#event-6553539) | 0x02F1       |     16 |              2 |
| [65535.40](#event-6553540) | 0x0301       |     16 |              2 |
| [65535.41](#event-6553541) | 0x0311       |     16 |              2 |
| [65535.42](#event-6553542) | 0x0321       |     16 |              2 |
| [65535.43](#event-6553543) | 0x0331       |     16 |              2 |
| [65535.44](#event-6553544) | 0x0341       |     16 |              2 |
| [65535.45](#event-6553545) | 0x0351       |     12 |              4 |

## DAT References (imed_data)

|   Index | Hex Value   |   Dec Value |
|---------|-------------|-------------|
|       0 | 0x00EE      |         238 |
|       1 | 0x1E6C      |        7788 |
|       2 | 0xFFFEB143  |  4294881603 |
|       3 | 0xFFFE2A5B  |  4294847067 |
|       4 | 0x0000      |           0 |
|       5 | 0x03AC      |         940 |
|       6 | 0xFFFE9EC3  |  4294876867 |
|       7 | 0xFFFE0F1C  |  4294840092 |
|       8 | 0x0A20      |        2592 |
|       9 | 0x000D      |          13 |
|      10 | 0xFFFEACF3  |  4294880499 |
|      11 | 0xFFFE22AD  |  4294845101 |
|      12 | 0x0002      |           2 |
|      13 | 0x22B4      |        8884 |
|      14 | 0x22B5      |        8885 |
|      15 | 0x22B6      |        8886 |
|      16 | 0x22B7      |        8887 |
|      17 | 0x05C9      |        1481 |
|      18 | 0xFFFEAC49  |  4294880329 |
|      19 | 0xFFFE2991  |  4294846865 |
|      20 | 0xFFFEB0DB  |  4294881499 |
|      21 | 0xFFFE2644  |  4294846020 |
|      22 | 0x22C8      |        8904 |
|      23 | 0x22C9      |        8905 |
|      24 | 0x0001      |           1 |
|      25 | 0xFFFF6A8C  |  4294929036 |
|      26 | 0xFFFED030  |  4294889520 |
|      27 | 0xFFFFE891  |  4294961297 |
|      28 | 0xFFFFC5AB  |  4294952363 |
|      29 | 0xFFFFF228  |  4294963752 |
|      30 | 0x0A18      |        2584 |
|      31 | 0xFFFFD321  |  4294955809 |
|      32 | 0xFFFFFE44  |  4294966852 |
|      33 | 0x0041      |          65 |
|      34 | 0xFFFFB94F  |  4294949199 |
|      35 | 0xFFFFCACF  |  4294953679 |

## String References

- **7788**: I'm searching for the perfect fishing spot. Thing is, I've been looking so long, I don't have time to fish!
- **8884**: That girl said a monster she had fished up on Qufim Island took my $4 from her.
- **8885**: If you really believe her story, then you should prove it.
- **8886**: She probably just sold my poor $4 to the highest bidder!
- **8887**: Please help me find my precious rod. I'll make it worth your while, I assure you!

## Events

### Event 65535

#### Metadata

| Field        | Value   |
|--------------|---------|
| Entrypoint   | 0x0000  |
| Data Size    | 1 bytes |
| Instructions | 1       |

```
      00 01 02 03 04 05 06 07  08 09 0A 0B 0C 0D 0E 0F
      -- -- -- -- -- -- -- --  -- -- -- -- -- -- -- --
0000: 00                                                .               
```

#### Opcodes

```
  0: 0x0000 [0x00] END_REQSTACK()
```

### Event 206

#### Metadata

| Field        | Value    |
|--------------|----------|
| Entrypoint   | 0x0001   |
| Data Size    | 56 bytes |
| Instructions | 10       |

```
      00 01 02 03 04 05 06 07  08 09 0A 0B 0C 0D 0E 0F
      -- -- -- -- -- -- -- --  -- -- -- -- -- -- -- --
0000:    1E F0 FF FF 7F 6F 70  5B 00 80 F8 FF FF 7F F8   .....op[.......
0010: FF FF 7F 74 68 6B 31 1D  01 80 23 5B 00 80 F8 FF  ...thk1...#[....
0020: FF 7F F8 FF FF 7F 74 68  6B 32 53 F8 FF FF 7F F8  ......thk2S.....
0030: FF FF 7F 74 68 6B 32 21  00                       ...thk2!.       
```

#### Opcodes

```
  0: 0x0001 [0x1E] EventEntity looks at LocalPlayer and starts talking
  1: 0x0006 [0x6F] WAIT_FRAME_DELAY: Yield until WaitTime reaches zero
  2: 0x0007 [0x70] WAIT_ENTITY_RENDER_FLAG: Wait while EventEntity->Render.Flags3 bit 2 is set (cancel turn if not)
  3: 0x0008 [0x5B] LOAD_EXT_SCHEDULER: Load scheduler "thk1" with entities [EventEntity, EventEntity], work=238*
  4: 0x0017 [0x1D] PRINT_EVENT_MESSAGE(message_id=7788*)
    → "I'm searching for the perfect fishing spot. Thing is, I've been looking so long, I don't have time to fish!"
  5: 0x001A [0x23] WAIT_FOR_DIALOG_INTERACTION
  6: 0x001B [0x5B] LOAD_EXT_SCHEDULER: Load scheduler "thk2" with entities [EventEntity, EventEntity], work=238*
  7: 0x002A [0x53] WAIT_SCHEDULER_TASK: Wait for scheduler "thk2" with entities [EventEntity, EventEntity]
  8: 0x0037 [0x21] END_EVENT
  9: 0x0038 [0x00] END_REQSTACK()
```

### Event 65535.1

#### Metadata

| Field        | Value    |
|--------------|----------|
| Entrypoint   | 0x0039   |
| Data Size    | 16 bytes |
| Instructions | 2        |

```
      00 01 02 03 04 05 06 07  08 09 0A 0B 0C 0D 0E 0F
      -- -- -- -- -- -- -- --  -- -- -- -- -- -- -- --
0030:                             5B 00 80 F8 FF FF 7F           [......
0040: F8 FF FF 7F 68 61 72 30  00                       ....har0.       
```

#### Opcodes

```
  0: 0x0039 [0x5B] LOAD_EXT_SCHEDULER: Load scheduler "har0" with entities [EventEntity, EventEntity], work=238*
  1: 0x0048 [0x00] END_REQSTACK()
```

### Event 65535.2

#### Metadata

| Field        | Value    |
|--------------|----------|
| Entrypoint   | 0x0049   |
| Data Size    | 14 bytes |
| Instructions | 2        |

```
      00 01 02 03 04 05 06 07  08 09 0A 0B 0C 0D 0E 0F
      -- -- -- -- -- -- -- --  -- -- -- -- -- -- -- --
0040:                             53 F8 FF FF 7F F8 FF           S......
0050: FF 7F 68 61 72 30 00                              ..har0.         
```

#### Opcodes

```
  0: 0x0049 [0x53] WAIT_SCHEDULER_TASK: Wait for scheduler "har0" with entities [EventEntity, EventEntity]
  1: 0x0056 [0x00] END_REQSTACK()
```

### Event 65535.3

#### Metadata

| Field        | Value    |
|--------------|----------|
| Entrypoint   | 0x0057   |
| Data Size    | 16 bytes |
| Instructions | 2        |

```
      00 01 02 03 04 05 06 07  08 09 0A 0B 0C 0D 0E 0F
      -- -- -- -- -- -- -- --  -- -- -- -- -- -- -- --
0050:                      5B  00 80 F8 FF FF 7F F8 FF         [........
0060: FF 7F 70 61 73 30 00                              ..pas0.         
```

#### Opcodes

```
  0: 0x0057 [0x5B] LOAD_EXT_SCHEDULER: Load scheduler "pas0" with entities [EventEntity, EventEntity], work=238*
  1: 0x0066 [0x00] END_REQSTACK()
```

### Event 65535.4

#### Metadata

| Field        | Value    |
|--------------|----------|
| Entrypoint   | 0x0067   |
| Data Size    | 14 bytes |
| Instructions | 2        |

```
      00 01 02 03 04 05 06 07  08 09 0A 0B 0C 0D 0E 0F
      -- -- -- -- -- -- -- --  -- -- -- -- -- -- -- --
0060:                      53  F8 FF FF 7F F8 FF FF 7F         S........
0070: 70 61 73 30 00                                    pas0.           
```

#### Opcodes

```
  0: 0x0067 [0x53] WAIT_SCHEDULER_TASK: Wait for scheduler "pas0" with entities [EventEntity, EventEntity]
  1: 0x0074 [0x00] END_REQSTACK()
```

### Event 65535.5

#### Metadata

| Field        | Value    |
|--------------|----------|
| Entrypoint   | 0x0075   |
| Data Size    | 16 bytes |
| Instructions | 2        |

```
      00 01 02 03 04 05 06 07  08 09 0A 0B 0C 0D 0E 0F
      -- -- -- -- -- -- -- --  -- -- -- -- -- -- -- --
0070:                5B 00 80  F8 FF FF 7F F8 FF FF 7F       [..........
0080: 74 68 6B 30 00                                    thk0.           
```

#### Opcodes

```
  0: 0x0075 [0x5B] LOAD_EXT_SCHEDULER: Load scheduler "thk0" with entities [EventEntity, EventEntity], work=238*
  1: 0x0084 [0x00] END_REQSTACK()
```

### Event 65535.6

#### Metadata

| Field        | Value    |
|--------------|----------|
| Entrypoint   | 0x0085   |
| Data Size    | 14 bytes |
| Instructions | 2        |

```
      00 01 02 03 04 05 06 07  08 09 0A 0B 0C 0D 0E 0F
      -- -- -- -- -- -- -- --  -- -- -- -- -- -- -- --
0080:                53 F8 FF  FF 7F F8 FF FF 7F 74 68       S........th
0090: 6B 30 00                                          k0.             
```

#### Opcodes

```
  0: 0x0085 [0x53] WAIT_SCHEDULER_TASK: Wait for scheduler "thk0" with entities [EventEntity, EventEntity]
  1: 0x0092 [0x00] END_REQSTACK()
```

### Event 65535.7

#### Metadata

| Field        | Value    |
|--------------|----------|
| Entrypoint   | 0x0093   |
| Data Size    | 16 bytes |
| Instructions | 2        |

```
      00 01 02 03 04 05 06 07  08 09 0A 0B 0C 0D 0E 0F
      -- -- -- -- -- -- -- --  -- -- -- -- -- -- -- --
0090:          5B 00 80 F8 FF  FF 7F F8 FF FF 7F 74 68     [..........th
00A0: 6B 31 00                                          k1.             
```

#### Opcodes

```
  0: 0x0093 [0x5B] LOAD_EXT_SCHEDULER: Load scheduler "thk1" with entities [EventEntity, EventEntity], work=238*
  1: 0x00A2 [0x00] END_REQSTACK()
```

### Event 65535.8

#### Metadata

| Field        | Value    |
|--------------|----------|
| Entrypoint   | 0x00A3   |
| Data Size    | 14 bytes |
| Instructions | 2        |

```
      00 01 02 03 04 05 06 07  08 09 0A 0B 0C 0D 0E 0F
      -- -- -- -- -- -- -- --  -- -- -- -- -- -- -- --
00A0:          53 F8 FF FF 7F  F8 FF FF 7F 74 68 6B 31     S........thk1
00B0: 00                                                .               
```

#### Opcodes

```
  0: 0x00A3 [0x53] WAIT_SCHEDULER_TASK: Wait for scheduler "thk1" with entities [EventEntity, EventEntity]
  1: 0x00B0 [0x00] END_REQSTACK()
```

### Event 65535.9

#### Metadata

| Field        | Value    |
|--------------|----------|
| Entrypoint   | 0x00B1   |
| Data Size    | 16 bytes |
| Instructions | 2        |

```
      00 01 02 03 04 05 06 07  08 09 0A 0B 0C 0D 0E 0F
      -- -- -- -- -- -- -- --  -- -- -- -- -- -- -- --
00B0:    5B 00 80 F8 FF FF 7F  F8 FF FF 7F 74 68 6B 32   [..........thk2
00C0: 00                                                .               
```

#### Opcodes

```
  0: 0x00B1 [0x5B] LOAD_EXT_SCHEDULER: Load scheduler "thk2" with entities [EventEntity, EventEntity], work=238*
  1: 0x00C0 [0x00] END_REQSTACK()
```

### Event 65535.10

#### Metadata

| Field        | Value    |
|--------------|----------|
| Entrypoint   | 0x00C1   |
| Data Size    | 14 bytes |
| Instructions | 2        |

```
      00 01 02 03 04 05 06 07  08 09 0A 0B 0C 0D 0E 0F
      -- -- -- -- -- -- -- --  -- -- -- -- -- -- -- --
00C0:    53 F8 FF FF 7F F8 FF  FF 7F 74 68 6B 32 00      S........thk2. 
```

#### Opcodes

```
  0: 0x00C1 [0x53] WAIT_SCHEDULER_TASK: Wait for scheduler "thk2" with entities [EventEntity, EventEntity]
  1: 0x00CE [0x00] END_REQSTACK()
```

### Event 65535.11

#### Metadata

| Field        | Value    |
|--------------|----------|
| Entrypoint   | 0x00CF   |
| Data Size    | 16 bytes |
| Instructions | 2        |

```
      00 01 02 03 04 05 06 07  08 09 0A 0B 0C 0D 0E 0F
      -- -- -- -- -- -- -- --  -- -- -- -- -- -- -- --
00C0:                                               5B                 [
00D0: 00 80 F8 FF FF 7F F8 FF  FF 7F 74 6C 6B 30 00     ..........tlk0. 
```

#### Opcodes

```
  0: 0x00CF [0x5B] LOAD_EXT_SCHEDULER: Load scheduler "tlk0" with entities [EventEntity, EventEntity], work=238*
  1: 0x00DE [0x00] END_REQSTACK()
```

### Event 65535.12

#### Metadata

| Field        | Value    |
|--------------|----------|
| Entrypoint   | 0x00DF   |
| Data Size    | 14 bytes |
| Instructions | 2        |

```
      00 01 02 03 04 05 06 07  08 09 0A 0B 0C 0D 0E 0F
      -- -- -- -- -- -- -- --  -- -- -- -- -- -- -- --
00D0:                                               53                 S
00E0: F8 FF FF 7F F8 FF FF 7F  74 6C 6B 30 00           ........tlk0.   
```

#### Opcodes

```
  0: 0x00DF [0x53] WAIT_SCHEDULER_TASK: Wait for scheduler "tlk0" with entities [EventEntity, EventEntity]
  1: 0x00EC [0x00] END_REQSTACK()
```

### Event 65535.13

#### Metadata

| Field        | Value    |
|--------------|----------|
| Entrypoint   | 0x00ED   |
| Data Size    | 16 bytes |
| Instructions | 2        |

```
      00 01 02 03 04 05 06 07  08 09 0A 0B 0C 0D 0E 0F
      -- -- -- -- -- -- -- --  -- -- -- -- -- -- -- --
00E0:                                         5B 00 80               [..
00F0: F8 FF FF 7F F8 FF FF 7F  74 6C 6B 31 00           ........tlk1.   
```

#### Opcodes

```
  0: 0x00ED [0x5B] LOAD_EXT_SCHEDULER: Load scheduler "tlk1" with entities [EventEntity, EventEntity], work=238*
  1: 0x00FC [0x00] END_REQSTACK()
```

### Event 65535.14

#### Metadata

| Field        | Value    |
|--------------|----------|
| Entrypoint   | 0x00FD   |
| Data Size    | 14 bytes |
| Instructions | 2        |

```
      00 01 02 03 04 05 06 07  08 09 0A 0B 0C 0D 0E 0F
      -- -- -- -- -- -- -- --  -- -- -- -- -- -- -- --
00F0:                                         53 F8 FF               S..
0100: FF 7F F8 FF FF 7F 74 6C  6B 31 00                 ......tlk1.     
```

#### Opcodes

```
  0: 0x00FD [0x53] WAIT_SCHEDULER_TASK: Wait for scheduler "tlk1" with entities [EventEntity, EventEntity]
  1: 0x010A [0x00] END_REQSTACK()
```

### Event 65535.15

#### Metadata

| Field        | Value    |
|--------------|----------|
| Entrypoint   | 0x010B   |
| Data Size    | 16 bytes |
| Instructions | 2        |

```
      00 01 02 03 04 05 06 07  08 09 0A 0B 0C 0D 0E 0F
      -- -- -- -- -- -- -- --  -- -- -- -- -- -- -- --
0100:                                   5B 00 80 F8 FF             [....
0110: FF 7F F8 FF FF 7F 77 61  72 30 00                 ......war0.     
```

#### Opcodes

```
  0: 0x010B [0x5B] LOAD_EXT_SCHEDULER: Load scheduler "war0" with entities [EventEntity, EventEntity], work=238*
  1: 0x011A [0x00] END_REQSTACK()
```

### Event 65535.16

#### Metadata

| Field        | Value    |
|--------------|----------|
| Entrypoint   | 0x011B   |
| Data Size    | 14 bytes |
| Instructions | 2        |

```
      00 01 02 03 04 05 06 07  08 09 0A 0B 0C 0D 0E 0F
      -- -- -- -- -- -- -- --  -- -- -- -- -- -- -- --
0110:                                   53 F8 FF FF 7F             S....
0120: F8 FF FF 7F 77 61 72 30  00                       ....war0.       
```

#### Opcodes

```
  0: 0x011B [0x53] WAIT_SCHEDULER_TASK: Wait for scheduler "war0" with entities [EventEntity, EventEntity]
  1: 0x0128 [0x00] END_REQSTACK()
```

### Event 65535.17

#### Metadata

| Field        | Value    |
|--------------|----------|
| Entrypoint   | 0x0129   |
| Data Size    | 16 bytes |
| Instructions | 2        |

```
      00 01 02 03 04 05 06 07  08 09 0A 0B 0C 0D 0E 0F
      -- -- -- -- -- -- -- --  -- -- -- -- -- -- -- --
0120:                             5B 00 80 F8 FF FF 7F           [......
0130: F8 FF FF 7F 77 61 72 31  00                       ....war1.       
```

#### Opcodes

```
  0: 0x0129 [0x5B] LOAD_EXT_SCHEDULER: Load scheduler "war1" with entities [EventEntity, EventEntity], work=238*
  1: 0x0138 [0x00] END_REQSTACK()
```

### Event 65535.18

#### Metadata

| Field        | Value    |
|--------------|----------|
| Entrypoint   | 0x0139   |
| Data Size    | 14 bytes |
| Instructions | 2        |

```
      00 01 02 03 04 05 06 07  08 09 0A 0B 0C 0D 0E 0F
      -- -- -- -- -- -- -- --  -- -- -- -- -- -- -- --
0130:                             53 F8 FF FF 7F F8 FF           S......
0140: FF 7F 77 61 72 31 00                              ..war1.         
```

#### Opcodes

```
  0: 0x0139 [0x53] WAIT_SCHEDULER_TASK: Wait for scheduler "war1" with entities [EventEntity, EventEntity]
  1: 0x0146 [0x00] END_REQSTACK()
```

### Event 65535.19

#### Metadata

| Field        | Value    |
|--------------|----------|
| Entrypoint   | 0x0147   |
| Data Size    | 16 bytes |
| Instructions | 2        |

```
      00 01 02 03 04 05 06 07  08 09 0A 0B 0C 0D 0E 0F
      -- -- -- -- -- -- -- --  -- -- -- -- -- -- -- --
0140:                      5B  00 80 F8 FF FF 7F F8 FF         [........
0150: FF 7F 79 75 62 30 00                              ..yub0.         
```

#### Opcodes

```
  0: 0x0147 [0x5B] LOAD_EXT_SCHEDULER: Load scheduler "yub0" with entities [EventEntity, EventEntity], work=238*
  1: 0x0156 [0x00] END_REQSTACK()
```

### Event 65535.20

#### Metadata

| Field        | Value    |
|--------------|----------|
| Entrypoint   | 0x0157   |
| Data Size    | 14 bytes |
| Instructions | 2        |

```
      00 01 02 03 04 05 06 07  08 09 0A 0B 0C 0D 0E 0F
      -- -- -- -- -- -- -- --  -- -- -- -- -- -- -- --
0150:                      53  F8 FF FF 7F F8 FF FF 7F         S........
0160: 79 75 62 30 00                                    yub0.           
```

#### Opcodes

```
  0: 0x0157 [0x53] WAIT_SCHEDULER_TASK: Wait for scheduler "yub0" with entities [EventEntity, EventEntity]
  1: 0x0164 [0x00] END_REQSTACK()
```

### Event 65535.21

#### Metadata

| Field        | Value    |
|--------------|----------|
| Entrypoint   | 0x0165   |
| Data Size    | 16 bytes |
| Instructions | 2        |

```
      00 01 02 03 04 05 06 07  08 09 0A 0B 0C 0D 0E 0F
      -- -- -- -- -- -- -- --  -- -- -- -- -- -- -- --
0160:                5B 00 80  F8 FF FF 7F F8 FF FF 7F       [..........
0170: 79 75 62 31 00                                    yub1.           
```

#### Opcodes

```
  0: 0x0165 [0x5B] LOAD_EXT_SCHEDULER: Load scheduler "yub1" with entities [EventEntity, EventEntity], work=238*
  1: 0x0174 [0x00] END_REQSTACK()
```

### Event 65535.22

#### Metadata

| Field        | Value    |
|--------------|----------|
| Entrypoint   | 0x0175   |
| Data Size    | 14 bytes |
| Instructions | 2        |

```
      00 01 02 03 04 05 06 07  08 09 0A 0B 0C 0D 0E 0F
      -- -- -- -- -- -- -- --  -- -- -- -- -- -- -- --
0170:                53 F8 FF  FF 7F F8 FF FF 7F 79 75       S........yu
0180: 62 31 00                                          b1.             
```

#### Opcodes

```
  0: 0x0175 [0x53] WAIT_SCHEDULER_TASK: Wait for scheduler "yub1" with entities [EventEntity, EventEntity]
  1: 0x0182 [0x00] END_REQSTACK()
```

### Event 10040

#### Metadata

| Field        | Value   |
|--------------|---------|
| Entrypoint   | 0x0183  |
| Data Size    | 1 bytes |
| Instructions | 1       |

```
      00 01 02 03 04 05 06 07  08 09 0A 0B 0C 0D 0E 0F
      -- -- -- -- -- -- -- --  -- -- -- -- -- -- -- --
0180:          00                                          .            
```

#### Opcodes

```
  0: 0x0183 [0x00] END_REQSTACK()
```

### Event 65535.23

#### Metadata

| Field        | Value    |
|--------------|----------|
| Entrypoint   | 0x0184   |
| Data Size    | 10 bytes |
| Instructions | 2        |

```
      00 01 02 03 04 05 06 07  08 09 0A 0B 0C 0D 0E 0F
      -- -- -- -- -- -- -- --  -- -- -- -- -- -- -- --
0180:             37 02 80 03  80 04 80 05 80 00            7.........  
```

#### Opcodes

```
  0: 0x0184 [0x37] UPDATE_EVENT_POSITION_AND_DIR: x=-85.693*, z=-120.229*, y=0.000*, direction=82.6°*
  1: 0x018D [0x00] END_REQSTACK()
```

### Event 65535.24

#### Metadata

| Field        | Value    |
|--------------|----------|
| Entrypoint   | 0x018E   |
| Data Size    | 10 bytes |
| Instructions | 2        |

```
      00 01 02 03 04 05 06 07  08 09 0A 0B 0C 0D 0E 0F
      -- -- -- -- -- -- -- --  -- -- -- -- -- -- -- --
0180:                                            37 06                7.
0190: 80 07 80 04 80 08 80 00                           ........        
```

#### Opcodes

```
  0: 0x018E [0x37] UPDATE_EVENT_POSITION_AND_DIR: x=-90.429*, z=-127.204*, y=0.000*, direction=227.8°*
  1: 0x0197 [0x00] END_REQSTACK()
```

### Event 65535.25

#### Metadata

| Field        | Value    |
|--------------|----------|
| Entrypoint   | 0x0198   |
| Data Size    | 15 bytes |
| Instructions | 5        |

```
      00 01 02 03 04 05 06 07  08 09 0A 0B 0C 0D 0E 0F
      -- -- -- -- -- -- -- --  -- -- -- -- -- -- -- --
0190:                          32 09 80 1F 00 0A 80 0B          2.......
01A0: 80 04 80 1F 01 6F 00                              .....o.         
```

#### Opcodes

```
  0: 0x0198 [0x32] ExtData[1]->MainSpeed = 13* * 0.1
  1: 0x019B [0x1F] MOVE_ENTITY: EventEntity moves to X=-86.797*, Z=-122.195*, Y=0.000*
  2: 0x01A3 [0x1F] MOVE_ENTITY: Update entity position (mode=1)
  3: 0x01A5 [0x6F] WAIT_FRAME_DELAY: Yield until WaitTime reaches zero
  4: 0x01A6 [0x00] END_REQSTACK()
```

### Event 10041

#### Metadata

| Field        | Value    |
|--------------|----------|
| Entrypoint   | 0x01A7   |
| Data Size    | 66 bytes |
| Instructions | 20       |

```
      00 01 02 03 04 05 06 07  08 09 0A 0B 0C 0D 0E 0F
      -- -- -- -- -- -- -- --  -- -- -- -- -- -- -- --
01A0:                      1E  F0 FF FF 7F 6F 70 29 08         .....op).
01B0: 33 50 0F 01 0C 02 02 10  0C 80 00 C8 01 1D 0D 80  3P..............
01C0: 23 1D 0E 80 23 01 D0 01  1D 0F 80 23 1D 10 80 23  #...#......#...#
01D0: 29 08 33 50 0F 01 0D 29  08 33 50 0F 01 0E 29 08  ).3P...).3P...).
01E0: 33 50 0F 01 0F 20 00 21  00                       3P... .!.       
```

#### Opcodes

```
  0: 0x01A7 [0x1E] EventEntity looks at LocalPlayer and starts talking
  1: 0x01AC [0x6F] WAIT_FRAME_DELAY: Yield until WaitTime reaches zero
  2: 0x01AD [0x70] WAIT_ENTITY_RENDER_FLAG: Wait while EventEntity->Render.Flags3 bit 2 is set (cancel turn if not)
  3: 0x01AE [0x29] REQ_SET_WAIT(priority=0x08, entity_id=Omer (ID: 17780787/0x010F5033), tag_num=0x0C)
  4: 0x01B5 [0x02] IF !(Work_Zone[2] == 2*) GOTO 0x01C8
  5: 0x01BD [0x1D] PRINT_EVENT_MESSAGE(message_id=8884*)
    → "That girl said a monster she had fished up on Qufim Island took my $4 from her."
  6: 0x01C0 [0x23] WAIT_FOR_DIALOG_INTERACTION
  7: 0x01C1 [0x1D] PRINT_EVENT_MESSAGE(message_id=8885*)
    → "If you really believe her story, then you should prove it."
  8: 0x01C4 [0x23] WAIT_FOR_DIALOG_INTERACTION
  9: 0x01C5 [0x01] GOTO 0x01D0
 10: 0x01C8 [0x1D] PRINT_EVENT_MESSAGE(message_id=8886*)
    → "She probably just sold my poor $4 to the highest bidder!"
 11: 0x01CB [0x23] WAIT_FOR_DIALOG_INTERACTION
 12: 0x01CC [0x1D] PRINT_EVENT_MESSAGE(message_id=8887*)
    → "Please help me find my precious rod. I'll make it worth your while, I assure you!"
 13: 0x01CF [0x23] WAIT_FOR_DIALOG_INTERACTION

SUBROUTINE_01D0:
 14: 0x01D0 [0x29] REQ_SET_WAIT(priority=0x08, entity_id=Omer (ID: 17780787/0x010F5033), tag_num=0x0D)
 15: 0x01D7 [0x29] REQ_SET_WAIT(priority=0x08, entity_id=Omer (ID: 17780787/0x010F5033), tag_num=0x0E)
 16: 0x01DE [0x29] REQ_SET_WAIT(priority=0x08, entity_id=Omer (ID: 17780787/0x010F5033), tag_num=0x0F)
 17: 0x01E5 [0x20] SET_CLI_EVENT_UC_FLAG: Unlock player control
 18: 0x01E7 [0x21] END_EVENT
 19: 0x01E8 [0x00] END_REQSTACK()
```

### Event 10042

#### Metadata

| Field        | Value   |
|--------------|---------|
| Entrypoint   | 0x01E9  |
| Data Size    | 1 bytes |
| Instructions | 1       |

```
      00 01 02 03 04 05 06 07  08 09 0A 0B 0C 0D 0E 0F
      -- -- -- -- -- -- -- --  -- -- -- -- -- -- -- --
01E0:                             00                             .      
```

#### Opcodes

```
  0: 0x01E9 [0x00] END_REQSTACK()
```

### Event 65535.26

#### Metadata

| Field        | Value    |
|--------------|----------|
| Entrypoint   | 0x01EA   |
| Data Size    | 10 bytes |
| Instructions | 2        |

```
      00 01 02 03 04 05 06 07  08 09 0A 0B 0C 0D 0E 0F
      -- -- -- -- -- -- -- --  -- -- -- -- -- -- -- --
01E0:                                37 0A 80 0B 80 04            7.....
01F0: 80 11 80 00                                       ....            
```

#### Opcodes

```
  0: 0x01EA [0x37] UPDATE_EVENT_POSITION_AND_DIR: x=-86.797*, z=-122.195*, y=0.000*, direction=130.2°*
  1: 0x01F3 [0x00] END_REQSTACK()
```

### Event 65535.27

#### Metadata

| Field        | Value    |
|--------------|----------|
| Entrypoint   | 0x01F4   |
| Data Size    | 15 bytes |
| Instructions | 5        |

```
      00 01 02 03 04 05 06 07  08 09 0A 0B 0C 0D 0E 0F
      -- -- -- -- -- -- -- --  -- -- -- -- -- -- -- --
01F0:             32 09 80 1F  00 12 80 13 80 04 80 1F      2...........
0200: 01 6F 00                                          .o.             
```

#### Opcodes

```
  0: 0x01F4 [0x32] ExtData[1]->MainSpeed = 13* * 0.1
  1: 0x01F7 [0x1F] MOVE_ENTITY: EventEntity moves to X=-86.967*, Z=-120.431*, Y=0.000*
  2: 0x01FF [0x1F] MOVE_ENTITY: Update entity position (mode=1)
  3: 0x0201 [0x6F] WAIT_FRAME_DELAY: Yield until WaitTime reaches zero
  4: 0x0202 [0x00] END_REQSTACK()
```

### Event 65535.28

#### Metadata

| Field        | Value    |
|--------------|----------|
| Entrypoint   | 0x0203   |
| Data Size    | 15 bytes |
| Instructions | 5        |

```
      00 01 02 03 04 05 06 07  08 09 0A 0B 0C 0D 0E 0F
      -- -- -- -- -- -- -- --  -- -- -- -- -- -- -- --
0200:          32 09 80 1F 00  14 80 15 80 04 80 1F 01     2............
0210: 6F 00                                             o.              
```

#### Opcodes

```
  0: 0x0203 [0x32] ExtData[1]->MainSpeed = 13* * 0.1
  1: 0x0206 [0x1F] MOVE_ENTITY: EventEntity moves to X=-85.797*, Z=-121.276*, Y=0.000*
  2: 0x020E [0x1F] MOVE_ENTITY: Update entity position (mode=1)
  3: 0x0210 [0x6F] WAIT_FRAME_DELAY: Yield until WaitTime reaches zero
  4: 0x0211 [0x00] END_REQSTACK()
```

### Event 10043

#### Metadata

| Field        | Value    |
|--------------|----------|
| Entrypoint   | 0x0212   |
| Data Size    | 55 bytes |
| Instructions | 14       |

```
      00 01 02 03 04 05 06 07  08 09 0A 0B 0C 0D 0E 0F
      -- -- -- -- -- -- -- --  -- -- -- -- -- -- -- --
0210:       1E F0 FF FF 7F 6F  70 29 08 33 50 0F 01 0C    .....op).3P...
0220: 2B 33 50 0F 01 16 80 23  2B 33 50 0F 01 17 80 23  +3P....#+3P....#
0230: 29 08 33 50 0F 01 0D 29  08 33 50 0F 01 0E 29 08  ).3P...).3P...).
0240: 33 50 0F 01 0F 20 00 21  00                       3P... .!.       
```

#### Opcodes

```
  0: 0x0212 [0x1E] EventEntity looks at LocalPlayer and starts talking
  1: 0x0217 [0x6F] WAIT_FRAME_DELAY: Yield until WaitTime reaches zero
  2: 0x0218 [0x70] WAIT_ENTITY_RENDER_FLAG: Wait while EventEntity->Render.Flags3 bit 2 is set (cancel turn if not)
  3: 0x0219 [0x29] REQ_SET_WAIT(priority=0x08, entity_id=Omer (ID: 17780787/0x010F5033), tag_num=0x0C)
  4: 0x0220 [0x2B] Omer (ID: 17780787/0x010F5033) [8904*]:
    → "That girl went to Qufim in my stead..."
  5: 0x0227 [0x23] WAIT_FOR_DIALOG_INTERACTION
  6: 0x0228 [0x2B] Omer (ID: 17780787/0x010F5033) [8905*]:
    → "She went there to retrieve the pride I had lost in my favorite pastime."
  7: 0x022F [0x23] WAIT_FOR_DIALOG_INTERACTION
  8: 0x0230 [0x29] REQ_SET_WAIT(priority=0x08, entity_id=Omer (ID: 17780787/0x010F5033), tag_num=0x0D)
  9: 0x0237 [0x29] REQ_SET_WAIT(priority=0x08, entity_id=Omer (ID: 17780787/0x010F5033), tag_num=0x0E)
 10: 0x023E [0x29] REQ_SET_WAIT(priority=0x08, entity_id=Omer (ID: 17780787/0x010F5033), tag_num=0x0F)
 11: 0x0245 [0x20] SET_CLI_EVENT_UC_FLAG: Unlock player control
 12: 0x0247 [0x21] END_EVENT
 13: 0x0248 [0x00] END_REQSTACK()
```

### Event 10094

#### Metadata

| Field        | Value   |
|--------------|---------|
| Entrypoint   | 0x0249  |
| Data Size    | 4 bytes |
| Instructions | 2       |

```
      00 01 02 03 04 05 06 07  08 09 0A 0B 0C 0D 0E 0F
      -- -- -- -- -- -- -- --  -- -- -- -- -- -- -- --
0240:                             C0 18 80 00                    ....   
```

#### Opcodes

```
  0: 0x0249 [0xC0] EventEntity->Render.Flags3 |= 0x1000 // Set bit 12 (from 1*)
  1: 0x024C [0x00] END_REQSTACK()
```

### Event 65535.29

#### Metadata

| Field        | Value    |
|--------------|----------|
| Entrypoint   | 0x024D   |
| Data Size    | 20 bytes |
| Instructions | 5        |

```
      00 01 02 03 04 05 06 07  08 09 0A 0B 0C 0D 0E 0F
      -- -- -- -- -- -- -- --  -- -- -- -- -- -- -- --
0240:                                         59 04 33               Y.3
0250: 50 0F 01 09 80 1F 00 19  80 1A 80 1B 80 1F 01 6F  P..............o
0260: 00                                                .               
```

#### Opcodes

```
  0: 0x024D [0x59] UPDATE_ENTITY_DATA: Set Omer (ID: 17780787/0x010F5033) main speed = 13* * 0.1
  1: 0x0255 [0x1F] MOVE_ENTITY: EventEntity moves to X=-38.260*, Z=-77.776*, Y=-5.999*
  2: 0x025D [0x1F] MOVE_ENTITY: Update entity position (mode=1)
  3: 0x025F [0x6F] WAIT_FRAME_DELAY: Yield until WaitTime reaches zero
  4: 0x0260 [0x00] END_REQSTACK()
```

### Event 65535.30

#### Metadata

| Field        | Value    |
|--------------|----------|
| Entrypoint   | 0x0261   |
| Data Size    | 12 bytes |
| Instructions | 4        |

```
      00 01 02 03 04 05 06 07  08 09 0A 0B 0C 0D 0E 0F
      -- -- -- -- -- -- -- --  -- -- -- -- -- -- -- --
0260:    1F 00 1C 80 1D 80 04  80 1F 01 6F 00            ..........o.   
```

#### Opcodes

```
  0: 0x0261 [0x1F] MOVE_ENTITY: EventEntity moves to X=-14.933*, Z=-3.544*, Y=0.000*
  1: 0x0269 [0x1F] MOVE_ENTITY: Update entity position (mode=1)
  2: 0x026B [0x6F] WAIT_FRAME_DELAY: Yield until WaitTime reaches zero
  3: 0x026C [0x00] END_REQSTACK()
```

### Event 65535.31

#### Metadata

| Field        | Value    |
|--------------|----------|
| Entrypoint   | 0x026D   |
| Data Size    | 16 bytes |
| Instructions | 2        |

```
      00 01 02 03 04 05 06 07  08 09 0A 0B 0C 0D 0E 0F
      -- -- -- -- -- -- -- --  -- -- -- -- -- -- -- --
0260:                                         5B 1E 80               [..
0270: 33 50 0F 01 33 50 0F 01  6F 70 61 30 00           3P..3P..opa0.   
```

#### Opcodes

```
  0: 0x026D [0x5B] LOAD_EXT_SCHEDULER: Load scheduler "opa0" with entities [Omer (ID: 17780787/0x010F5033), Omer (ID: 17780787/0x010F5033)], work=2584*
  1: 0x027C [0x00] END_REQSTACK()
```

### Event 65535.32

#### Metadata

| Field        | Value    |
|--------------|----------|
| Entrypoint   | 0x027D   |
| Data Size    | 16 bytes |
| Instructions | 2        |

```
      00 01 02 03 04 05 06 07  08 09 0A 0B 0C 0D 0E 0F
      -- -- -- -- -- -- -- --  -- -- -- -- -- -- -- --
0270:                                         5B 1E 80               [..
0280: 33 50 0F 01 33 50 0F 01  6F 70 61 31 00           3P..3P..opa1.   
```

#### Opcodes

```
  0: 0x027D [0x5B] LOAD_EXT_SCHEDULER: Load scheduler "opa1" with entities [Omer (ID: 17780787/0x010F5033), Omer (ID: 17780787/0x010F5033)], work=2584*
  1: 0x028C [0x00] END_REQSTACK()
```

### Event 65535.33

#### Metadata

| Field        | Value    |
|--------------|----------|
| Entrypoint   | 0x028D   |
| Data Size    | 16 bytes |
| Instructions | 2        |

```
      00 01 02 03 04 05 06 07  08 09 0A 0B 0C 0D 0E 0F
      -- -- -- -- -- -- -- --  -- -- -- -- -- -- -- --
0280:                                         5B 1E 80               [..
0290: 33 50 0F 01 33 50 0F 01  6F 70 62 30 00           3P..3P..opb0.   
```

#### Opcodes

```
  0: 0x028D [0x5B] LOAD_EXT_SCHEDULER: Load scheduler "opb0" with entities [Omer (ID: 17780787/0x010F5033), Omer (ID: 17780787/0x010F5033)], work=2584*
  1: 0x029C [0x00] END_REQSTACK()
```

### Event 65535.34

#### Metadata

| Field        | Value    |
|--------------|----------|
| Entrypoint   | 0x029D   |
| Data Size    | 16 bytes |
| Instructions | 2        |

```
      00 01 02 03 04 05 06 07  08 09 0A 0B 0C 0D 0E 0F
      -- -- -- -- -- -- -- --  -- -- -- -- -- -- -- --
0290:                                         5B 1E 80               [..
02A0: 33 50 0F 01 33 50 0F 01  6F 70 62 31 00           3P..3P..opb1.   
```

#### Opcodes

```
  0: 0x029D [0x5B] LOAD_EXT_SCHEDULER: Load scheduler "opb1" with entities [Omer (ID: 17780787/0x010F5033), Omer (ID: 17780787/0x010F5033)], work=2584*
  1: 0x02AC [0x00] END_REQSTACK()
```

### Event 65535.35

#### Metadata

| Field        | Value    |
|--------------|----------|
| Entrypoint   | 0x02AD   |
| Data Size    | 16 bytes |
| Instructions | 2        |

```
      00 01 02 03 04 05 06 07  08 09 0A 0B 0C 0D 0E 0F
      -- -- -- -- -- -- -- --  -- -- -- -- -- -- -- --
02A0:                                         5B 1E 80               [..
02B0: 33 50 0F 01 33 50 0F 01  6F 70 62 32 00           3P..3P..opb2.   
```

#### Opcodes

```
  0: 0x02AD [0x5B] LOAD_EXT_SCHEDULER: Load scheduler "opb2" with entities [Omer (ID: 17780787/0x010F5033), Omer (ID: 17780787/0x010F5033)], work=2584*
  1: 0x02BC [0x00] END_REQSTACK()
```

### Event 65535.36

#### Metadata

| Field        | Value    |
|--------------|----------|
| Entrypoint   | 0x02BD   |
| Data Size    | 20 bytes |
| Instructions | 5        |

```
      00 01 02 03 04 05 06 07  08 09 0A 0B 0C 0D 0E 0F
      -- -- -- -- -- -- -- --  -- -- -- -- -- -- -- --
02B0:                                         59 04 33               Y.3
02C0: 50 0F 01 09 80 1F 00 1F  80 20 80 04 80 1F 01 6F  P........ .....o
02D0: 00                                                .               
```

#### Opcodes

```
  0: 0x02BD [0x59] UPDATE_ENTITY_DATA: Set Omer (ID: 17780787/0x010F5033) main speed = 13* * 0.1
  1: 0x02C5 [0x1F] MOVE_ENTITY: EventEntity moves to X=-11.487*, Z=-0.444*, Y=0.000*
  2: 0x02CD [0x1F] MOVE_ENTITY: Update entity position (mode=1)
  3: 0x02CF [0x6F] WAIT_FRAME_DELAY: Yield until WaitTime reaches zero
  4: 0x02D0 [0x00] END_REQSTACK()
```

### Event 65535.37

#### Metadata

| Field        | Value    |
|--------------|----------|
| Entrypoint   | 0x02D1   |
| Data Size    | 16 bytes |
| Instructions | 2        |

```
      00 01 02 03 04 05 06 07  08 09 0A 0B 0C 0D 0E 0F
      -- -- -- -- -- -- -- --  -- -- -- -- -- -- -- --
02D0:    5B 1E 80 33 50 0F 01  33 50 0F 01 6F 70 63 30   [..3P..3P..opc0
02E0: 00                                                .               
```

#### Opcodes

```
  0: 0x02D1 [0x5B] LOAD_EXT_SCHEDULER: Load scheduler "opc0" with entities [Omer (ID: 17780787/0x010F5033), Omer (ID: 17780787/0x010F5033)], work=2584*
  1: 0x02E0 [0x00] END_REQSTACK()
```

### Event 65535.38

#### Metadata

| Field        | Value    |
|--------------|----------|
| Entrypoint   | 0x02E1   |
| Data Size    | 16 bytes |
| Instructions | 2        |

```
      00 01 02 03 04 05 06 07  08 09 0A 0B 0C 0D 0E 0F
      -- -- -- -- -- -- -- --  -- -- -- -- -- -- -- --
02E0:    5B 1E 80 33 50 0F 01  33 50 0F 01 6F 70 63 31   [..3P..3P..opc1
02F0: 00                                                .               
```

#### Opcodes

```
  0: 0x02E1 [0x5B] LOAD_EXT_SCHEDULER: Load scheduler "opc1" with entities [Omer (ID: 17780787/0x010F5033), Omer (ID: 17780787/0x010F5033)], work=2584*
  1: 0x02F0 [0x00] END_REQSTACK()
```

### Event 65535.39

#### Metadata

| Field        | Value    |
|--------------|----------|
| Entrypoint   | 0x02F1   |
| Data Size    | 16 bytes |
| Instructions | 2        |

```
      00 01 02 03 04 05 06 07  08 09 0A 0B 0C 0D 0E 0F
      -- -- -- -- -- -- -- --  -- -- -- -- -- -- -- --
02F0:    5B 21 80 33 50 0F 01  33 50 0F 01 67 72 65 30   [!.3P..3P..gre0
0300: 00                                                .               
```

#### Opcodes

```
  0: 0x02F1 [0x5B] LOAD_EXT_SCHEDULER: Load scheduler "gre0" with entities [Omer (ID: 17780787/0x010F5033), Omer (ID: 17780787/0x010F5033)], work=65*
  1: 0x0300 [0x00] END_REQSTACK()
```

### Event 65535.40

#### Metadata

| Field        | Value    |
|--------------|----------|
| Entrypoint   | 0x0301   |
| Data Size    | 16 bytes |
| Instructions | 2        |

```
      00 01 02 03 04 05 06 07  08 09 0A 0B 0C 0D 0E 0F
      -- -- -- -- -- -- -- --  -- -- -- -- -- -- -- --
0300:    5B 21 80 33 50 0F 01  33 50 0F 01 74 6C 6B 30   [!.3P..3P..tlk0
0310: 00                                                .               
```

#### Opcodes

```
  0: 0x0301 [0x5B] LOAD_EXT_SCHEDULER: Load scheduler "tlk0" with entities [Omer (ID: 17780787/0x010F5033), Omer (ID: 17780787/0x010F5033)], work=65*
  1: 0x0310 [0x00] END_REQSTACK()
```

### Event 65535.41

#### Metadata

| Field        | Value    |
|--------------|----------|
| Entrypoint   | 0x0311   |
| Data Size    | 16 bytes |
| Instructions | 2        |

```
      00 01 02 03 04 05 06 07  08 09 0A 0B 0C 0D 0E 0F
      -- -- -- -- -- -- -- --  -- -- -- -- -- -- -- --
0310:    5B 00 80 33 50 0F 01  33 50 0F 01 77 61 72 30   [..3P..3P..war0
0320: 00                                                .               
```

#### Opcodes

```
  0: 0x0311 [0x5B] LOAD_EXT_SCHEDULER: Load scheduler "war0" with entities [Omer (ID: 17780787/0x010F5033), Omer (ID: 17780787/0x010F5033)], work=238*
  1: 0x0320 [0x00] END_REQSTACK()
```

### Event 65535.42

#### Metadata

| Field        | Value    |
|--------------|----------|
| Entrypoint   | 0x0321   |
| Data Size    | 16 bytes |
| Instructions | 2        |

```
      00 01 02 03 04 05 06 07  08 09 0A 0B 0C 0D 0E 0F
      -- -- -- -- -- -- -- --  -- -- -- -- -- -- -- --
0320:    5B 21 80 33 50 0F 01  33 50 0F 01 6A 69 6D 30   [!.3P..3P..jim0
0330: 00                                                .               
```

#### Opcodes

```
  0: 0x0321 [0x5B] LOAD_EXT_SCHEDULER: Load scheduler "jim0" with entities [Omer (ID: 17780787/0x010F5033), Omer (ID: 17780787/0x010F5033)], work=65*
  1: 0x0330 [0x00] END_REQSTACK()
```

### Event 65535.43

#### Metadata

| Field        | Value    |
|--------------|----------|
| Entrypoint   | 0x0331   |
| Data Size    | 16 bytes |
| Instructions | 2        |

```
      00 01 02 03 04 05 06 07  08 09 0A 0B 0C 0D 0E 0F
      -- -- -- -- -- -- -- --  -- -- -- -- -- -- -- --
0330:    5B 21 80 33 50 0F 01  33 50 0F 01 6A 69 6D 31   [!.3P..3P..jim1
0340: 00                                                .               
```

#### Opcodes

```
  0: 0x0331 [0x5B] LOAD_EXT_SCHEDULER: Load scheduler "jim1" with entities [Omer (ID: 17780787/0x010F5033), Omer (ID: 17780787/0x010F5033)], work=65*
  1: 0x0340 [0x00] END_REQSTACK()
```

### Event 65535.44

#### Metadata

| Field        | Value    |
|--------------|----------|
| Entrypoint   | 0x0341   |
| Data Size    | 16 bytes |
| Instructions | 2        |

```
      00 01 02 03 04 05 06 07  08 09 0A 0B 0C 0D 0E 0F
      -- -- -- -- -- -- -- --  -- -- -- -- -- -- -- --
0340:    5B 21 80 33 50 0F 01  33 50 0F 01 74 68 6B 31   [!.3P..3P..thk1
0350: 00                                                .               
```

#### Opcodes

```
  0: 0x0341 [0x5B] LOAD_EXT_SCHEDULER: Load scheduler "thk1" with entities [Omer (ID: 17780787/0x010F5033), Omer (ID: 17780787/0x010F5033)], work=65*
  1: 0x0350 [0x00] END_REQSTACK()
```

### Event 65535.45

#### Metadata

| Field        | Value    |
|--------------|----------|
| Entrypoint   | 0x0351   |
| Data Size    | 12 bytes |
| Instructions | 4        |

```
      00 01 02 03 04 05 06 07  08 09 0A 0B 0C 0D 0E 0F
      -- -- -- -- -- -- -- --  -- -- -- -- -- -- -- --
0350:    1F 00 22 80 23 80 04  80 1F 01 6F 00            ..".#.....o.   
```

#### Opcodes

```
  0: 0x0351 [0x1F] MOVE_ENTITY: EventEntity moves to X=-18.097*, Z=-13.617*, Y=0.000*
  1: 0x0359 [0x1F] MOVE_ENTITY: Update entity position (mode=1)
  2: 0x035B [0x6F] WAIT_FRAME_DELAY: Yield until WaitTime reaches zero
  3: 0x035C [0x00] END_REQSTACK()
```
