# 17780763 - Fickblix

## Common Data

| Field            | Value                 |
|------------------|-----------------------|
| Zone             | Lower Jeuno (ID: 245) |
| Block Size       | 624 bytes             |
| Total Events     | 19                    |
| References Count | 45                    |

## List of Events

| Event ID                   | Entrypoint   |   Size |   Instructions |
|----------------------------|--------------|--------|----------------|
| [65535](#event-65535)      | 0x0000       |      6 |              3 |
| [152](#event-152)          | 0x0006       |     10 |              2 |
| [184](#event-184)          | 0x0010       |     10 |              2 |
| [65535.1](#event-655351)   | 0x001A       |     19 |              7 |
| [111](#event-111)          | 0x002D       |      1 |              1 |
| [65535.2](#event-655352)   | 0x002E       |     29 |              6 |
| [65535.3](#event-655353)   | 0x004B       |     29 |              6 |
| [65535.4](#event-655354)   | 0x0068       |     17 |              6 |
| [65535.5](#event-655355)   | 0x0079       |     16 |              3 |
| [65535.6](#event-655356)   | 0x0089       |     30 |              6 |
| [65535.7](#event-655357)   | 0x00A7       |     33 |              8 |
| [65535.8](#event-655358)   | 0x00C8       |     23 |              7 |
| [65535.9](#event-655359)   | 0x00DF       |     21 |              5 |
| [65535.10](#event-6553510) | 0x00F4       |     13 |              4 |
| [65535.11](#event-6553511) | 0x0101       |     19 |              3 |
| [65535.12](#event-6553512) | 0x0114       |     37 |              5 |
| [65535.13](#event-6553513) | 0x0139       |     29 |              3 |
| [65535.14](#event-6553514) | 0x0156       |      9 |              3 |
| [65535.15](#event-6553515) | 0x015F       |      1 |              1 |

## DAT References (imed_data)

|   Index | Hex Value   |   Dec Value |
|---------|-------------|-------------|
|       0 | 0x000D      |          13 |
|       1 | 0x48CE      |       18638 |
|       2 | 0xFFFF3631  |  4294915633 |
|       3 | 0x0F3C      |        3900 |
|       4 | 0x049B      |        1179 |
|       5 | 0xFFFF86D5  |  4294936277 |
|       6 | 0xFFFDE512  |  4294829330 |
|       7 | 0x157B      |        5499 |
|       8 | 0x0F47      |        3911 |
|       9 | 0xFFFF8AEB  |  4294937323 |
|      10 | 0xFFFDE35D  |  4294828893 |
|      11 | 0x31A8      |       12712 |
|      12 | 0x10FAC     |       69548 |
|      13 | 0x06A3      |        1699 |
|      14 | 0x0636      |        1590 |
|      15 | 0x0000      |           0 |
|      16 | 0x0001      |           1 |
|      17 | 0x0050      |          80 |
|      18 | 0x1AE6      |        6886 |
|      19 | 0x107C1     |       67521 |
|      20 | 0x07D0      |        2000 |
|      21 | 0x0F1B      |        3867 |
|      22 | 0x1F10      |        7952 |
|      23 | 0x10A24     |       68132 |
|      24 | 0x07CF      |        1999 |
|      25 | 0x00C8      |         200 |
|      26 | 0x46C5      |       18117 |
|      27 | 0xFFFF2AF9  |  4294912761 |
|      28 | 0x0F1D      |        3869 |
|      29 | 0x451D      |       17693 |
|      30 | 0xFFFF2ED1  |  4294913745 |
|      31 | 0x0F3B      |        3899 |
|      32 | 0x4B3D      |       19261 |
|      33 | 0xFFFF3A50  |  4294916688 |
|      34 | 0x0F3D      |        3901 |
|      35 | 0x5769      |       22377 |
|      36 | 0xFFFF33F3  |  4294915059 |
|      37 | 0xFFFF8EE2  |  4294938338 |
|      38 | 0xFFFDE3C3  |  4294828995 |
|      39 | 0xFFFF85E6  |  4294936038 |
|      40 | 0xFFFDE491  |  4294829201 |
|      41 | 0xFFFF71EE  |  4294930926 |
|      42 | 0xFFFDEB11  |  4294830865 |
|      43 | 0x00D7      |         215 |
|      44 | 0x003C      |          60 |

## Events

### Event 65535

#### Metadata

| Field        | Value   |
|--------------|---------|
| Entrypoint   | 0x0000  |
| Data Size    | 6 bytes |
| Instructions | 3       |

```
      00 01 02 03 04 05 06 07  08 09 0A 0B 0C 0D 0E 0F
      -- -- -- -- -- -- -- --  -- -- -- -- -- -- -- --
0000: 22 01 32 00 80 00                                 ".2...          
```

#### Opcodes

```
  0: 0x0000 [0x22] ENTITY_HIDE_FLAG(enabled=0x01)
  1: 0x0002 [0x32] ExtData[1]->MainSpeed = 13* * 0.1
  2: 0x0005 [0x00] END_REQSTACK()
```

### Event 152

#### Metadata

| Field        | Value    |
|--------------|----------|
| Entrypoint   | 0x0006   |
| Data Size    | 10 bytes |
| Instructions | 2        |

```
      00 01 02 03 04 05 06 07  08 09 0A 0B 0C 0D 0E 0F
      -- -- -- -- -- -- -- --  -- -- -- -- -- -- -- --
0000:                   37 01  80 02 80 03 80 04 80 00        7.........
```

#### Opcodes

```
  0: 0x0006 [0x37] UPDATE_EVENT_POSITION_AND_DIR: x=18.638*, z=-51.663*, y=3.900*, direction=103.6째*
  1: 0x000F [0x00] END_REQSTACK()
```

### Event 184

#### Metadata

| Field        | Value    |
|--------------|----------|
| Entrypoint   | 0x0010   |
| Data Size    | 10 bytes |
| Instructions | 2        |

```
      00 01 02 03 04 05 06 07  08 09 0A 0B 0C 0D 0E 0F
      -- -- -- -- -- -- -- --  -- -- -- -- -- -- -- --
0010: 37 05 80 06 80 07 80 08  80 00                    7.........      
```

#### Opcodes

```
  0: 0x0010 [0x37] UPDATE_EVENT_POSITION_AND_DIR: x=-31.019*, z=-137.966*, y=5.499*, direction=343.7째*
  1: 0x0019 [0x00] END_REQSTACK()
```

### Event 65535.1

#### Metadata

| Field        | Value    |
|--------------|----------|
| Entrypoint   | 0x001A   |
| Data Size    | 19 bytes |
| Instructions | 7        |

```
      00 01 02 03 04 05 06 07  08 09 0A 0B 0C 0D 0E 0F
      -- -- -- -- -- -- -- --  -- -- -- -- -- -- -- --
0010:                                1F 00 09 80 0A 80            ......
0020: 07 80 1F 01 6F 1E 19 50  0F 01 6F 70 00           ....o..P..op.   
```

#### Opcodes

```
  0: 0x001A [0x1F] MOVE_ENTITY: EventEntity moves to X=-29.973*, Z=-138.403*, Y=5.499*
  1: 0x0022 [0x1F] MOVE_ENTITY: Update entity position (mode=1)
  2: 0x0024 [0x6F] WAIT_FRAME_DELAY: Yield until WaitTime reaches zero
  3: 0x0025 [0x1E] EventEntity looks at Muckvix (ID: 17780761/0x010F5019) and starts talking
  4: 0x002A [0x6F] WAIT_FRAME_DELAY: Yield until WaitTime reaches zero
  5: 0x002B [0x70] WAIT_ENTITY_RENDER_FLAG: Wait while EventEntity->Render.Flags3 bit 2 is set (cancel turn if not)
  6: 0x002C [0x00] END_REQSTACK()
```

### Event 111

#### Metadata

| Field        | Value   |
|--------------|---------|
| Entrypoint   | 0x002D  |
| Data Size    | 1 bytes |
| Instructions | 1       |

```
      00 01 02 03 04 05 06 07  08 09 0A 0B 0C 0D 0E 0F
      -- -- -- -- -- -- -- --  -- -- -- -- -- -- -- --
0020:                                         00                     .  
```

#### Opcodes

```
  0: 0x002D [0x00] END_REQSTACK()
```

### Event 65535.2

#### Metadata

| Field        | Value    |
|--------------|----------|
| Entrypoint   | 0x002E   |
| Data Size    | 29 bytes |
| Instructions | 6        |

```
      00 01 02 03 04 05 06 07  08 09 0A 0B 0C 0D 0E 0F
      -- -- -- -- -- -- -- --  -- -- -- -- -- -- -- --
0020:                                            33 01                3.
0030: 37 0B 80 0C 80 0D 80 0E  80 6C F8 FF FF 7F 0F 80  7........l......
0040: 10 80 92 01 F8 FF FF 7F  22 00 00                 ........"..     
```

#### Opcodes

```
  0: 0x002E [0x33] EventEntity->Render.Flags0 |= 0x200000 // Bit 21 (flag=0x01)
  1: 0x0030 [0x37] UPDATE_EVENT_POSITION_AND_DIR: x=12.712*, z=69.548*, y=1.699*, direction=139.7째*
  2: 0x0039 [0x6C] FADE_ENTITY_COLOR(entity_id=EventEntity, end_alpha=0*, fade_time=1*)
  3: 0x0042 [0x92] EventEntity->Render.Flags3 ^= 0x01
  4: 0x0048 [0x22] ENTITY_HIDE_FLAG(enabled=0x00)
  5: 0x004A [0x00] END_REQSTACK()
```

### Event 65535.3

#### Metadata

| Field        | Value    |
|--------------|----------|
| Entrypoint   | 0x004B   |
| Data Size    | 29 bytes |
| Instructions | 6        |

```
      00 01 02 03 04 05 06 07  08 09 0A 0B 0C 0D 0E 0F
      -- -- -- -- -- -- -- --  -- -- -- -- -- -- -- --
0040:                                   22 01 6C F8 FF             ".l..
0050: FF 7F 11 80 10 80 33 00  37 12 80 13 80 14 80 15  ......3.7.......
0060: 80 92 00 F8 FF FF 7F 00                           ........        
```

#### Opcodes

```
  0: 0x004B [0x22] ENTITY_HIDE_FLAG(enabled=0x01)
  1: 0x004D [0x6C] FADE_ENTITY_COLOR(entity_id=EventEntity, end_alpha=80*, fade_time=1*)
  2: 0x0056 [0x33] EventEntity->Render.Flags0 &= ~ 0x200000 // Bit 21 (flag=0x00)
  3: 0x0058 [0x37] UPDATE_EVENT_POSITION_AND_DIR: x=6.886*, z=67.521*, y=2.000*, direction=339.9째*
  4: 0x0061 [0x92] EventEntity->Render.Flags3 = Flags3  // No change (flag=0)
  5: 0x0067 [0x00] END_REQSTACK()
```

### Event 65535.4

#### Metadata

| Field        | Value    |
|--------------|----------|
| Entrypoint   | 0x0068   |
| Data Size    | 17 bytes |
| Instructions | 6        |

```
      00 01 02 03 04 05 06 07  08 09 0A 0B 0C 0D 0E 0F
      -- -- -- -- -- -- -- --  -- -- -- -- -- -- -- --
0060:                          22 00 32 00 80 1F 00 16          ".2.....
0070: 80 17 80 18 80 1F 01 6F  00                       .......o.       
```

#### Opcodes

```
  0: 0x0068 [0x22] ENTITY_HIDE_FLAG(enabled=0x00)
  1: 0x006A [0x32] ExtData[1]->MainSpeed = 13* * 0.1
  2: 0x006D [0x1F] MOVE_ENTITY: EventEntity moves to X=7.952*, Z=68.132*, Y=1.999*
  3: 0x0075 [0x1F] MOVE_ENTITY: Update entity position (mode=1)
  4: 0x0077 [0x6F] WAIT_FRAME_DELAY: Yield until WaitTime reaches zero
  5: 0x0078 [0x00] END_REQSTACK()
```

### Event 65535.5

#### Metadata

| Field        | Value    |
|--------------|----------|
| Entrypoint   | 0x0079   |
| Data Size    | 16 bytes |
| Instructions | 3        |

```
      00 01 02 03 04 05 06 07  08 09 0A 0B 0C 0D 0E 0F
      -- -- -- -- -- -- -- --  -- -- -- -- -- -- -- --
0070:                             6C F8 FF FF 7F 0F 80           l......
0080: 19 80 92 01 F8 FF FF 7F  00                       .........       
```

#### Opcodes

```
  0: 0x0079 [0x6C] FADE_ENTITY_COLOR(entity_id=EventEntity, end_alpha=0*, fade_time=200*)
  1: 0x0082 [0x92] EventEntity->Render.Flags3 ^= 0x01
  2: 0x0088 [0x00] END_REQSTACK()
```

### Event 65535.6

#### Metadata

| Field        | Value    |
|--------------|----------|
| Entrypoint   | 0x0089   |
| Data Size    | 30 bytes |
| Instructions | 6        |

```
      00 01 02 03 04 05 06 07  08 09 0A 0B 0C 0D 0E 0F
      -- -- -- -- -- -- -- --  -- -- -- -- -- -- -- --
0080:                             1F 00 1A 80 1B 80 1C           .......
0090: 80 1F 01 6F 4A 08 50 0F  01 1B 50 0F 01 4A 1B 50  ...oJ.P...P..J.P
00A0: 0F 01 08 50 0F 01 00                              ...P...         
```

#### Opcodes

```
  0: 0x0089 [0x1F] MOVE_ENTITY: EventEntity moves to X=18.117*, Z=-54.535*, Y=3.869*
  1: 0x0091 [0x1F] MOVE_ENTITY: Update entity position (mode=1)
  2: 0x0093 [0x6F] WAIT_FRAME_DELAY: Yield until WaitTime reaches zero
  3: 0x0094 [0x4A] Verena (ID: 17780744/0x010F5008) looks at Fickblix (ID: 17780763/0x010F501B)
  4: 0x009D [0x4A] Fickblix (ID: 17780763/0x010F501B) looks at Verena (ID: 17780744/0x010F5008)
  5: 0x00A6 [0x00] END_REQSTACK()
```

### Event 65535.7

#### Metadata

| Field        | Value    |
|--------------|----------|
| Entrypoint   | 0x00A7   |
| Data Size    | 33 bytes |
| Instructions | 8        |

```
      00 01 02 03 04 05 06 07  08 09 0A 0B 0C 0D 0E 0F
      -- -- -- -- -- -- -- --  -- -- -- -- -- -- -- --
00A0:                      1F  00 1D 80 1E 80 1F 80 1F         .........
00B0: 01 1F 00 20 80 21 80 22  80 1F 01 1F 00 23 80 24  ... .!.".....#.$
00C0: 80 22 80 1F 01 22 01 00                           ."..."..        
```

#### Opcodes

```
  0: 0x00A7 [0x1F] MOVE_ENTITY: EventEntity moves to X=17.693*, Z=-53.551*, Y=3.899*
  1: 0x00AF [0x1F] MOVE_ENTITY: Update entity position (mode=1)
  2: 0x00B1 [0x1F] MOVE_ENTITY: EventEntity moves to X=19.261*, Z=-50.608*, Y=3.901*
  3: 0x00B9 [0x1F] MOVE_ENTITY: Update entity position (mode=1)
  4: 0x00BB [0x1F] MOVE_ENTITY: EventEntity moves to X=22.377*, Z=-52.237*, Y=3.901*
  5: 0x00C3 [0x1F] MOVE_ENTITY: Update entity position (mode=1)
  6: 0x00C5 [0x22] ENTITY_HIDE_FLAG(enabled=0x01)
  7: 0x00C7 [0x00] END_REQSTACK()
```

### Event 65535.8

#### Metadata

| Field        | Value    |
|--------------|----------|
| Entrypoint   | 0x00C8   |
| Data Size    | 23 bytes |
| Instructions | 7        |

```
      00 01 02 03 04 05 06 07  08 09 0A 0B 0C 0D 0E 0F
      -- -- -- -- -- -- -- --  -- -- -- -- -- -- -- --
00C0:                          1F 00 25 80 26 80 07 80          ..%.&...
00D0: 1F 01 6F 4A 1B 50 0F 01  F0 FF FF 7F 6F 70 00     ..oJ.P......op. 
```

#### Opcodes

```
  0: 0x00C8 [0x1F] MOVE_ENTITY: EventEntity moves to X=-28.958*, Z=-138.301*, Y=5.499*
  1: 0x00D0 [0x1F] MOVE_ENTITY: Update entity position (mode=1)
  2: 0x00D2 [0x6F] WAIT_FRAME_DELAY: Yield until WaitTime reaches zero
  3: 0x00D3 [0x4A] Fickblix (ID: 17780763/0x010F501B) looks at LocalPlayer
  4: 0x00DC [0x6F] WAIT_FRAME_DELAY: Yield until WaitTime reaches zero
  5: 0x00DD [0x70] WAIT_ENTITY_RENDER_FLAG: Wait while EventEntity->Render.Flags3 bit 2 is set (cancel turn if not)
  6: 0x00DE [0x00] END_REQSTACK()
```

### Event 65535.9

#### Metadata

| Field        | Value    |
|--------------|----------|
| Entrypoint   | 0x00DF   |
| Data Size    | 21 bytes |
| Instructions | 5        |

```
      00 01 02 03 04 05 06 07  08 09 0A 0B 0C 0D 0E 0F
      -- -- -- -- -- -- -- --  -- -- -- -- -- -- -- --
00D0:                                               1F                 .
00E0: 00 27 80 28 80 07 80 1F  01 6F 4A 1B 50 0F 01 19  .'.(.....oJ.P...
00F0: 50 0F 01 00                                       P...            
```

#### Opcodes

```
  0: 0x00DF [0x1F] MOVE_ENTITY: EventEntity moves to X=-31.258*, Z=-138.095*, Y=5.499*
  1: 0x00E7 [0x1F] MOVE_ENTITY: Update entity position (mode=1)
  2: 0x00E9 [0x6F] WAIT_FRAME_DELAY: Yield until WaitTime reaches zero
  3: 0x00EA [0x4A] Fickblix (ID: 17780763/0x010F501B) looks at Muckvix (ID: 17780761/0x010F5019)
  4: 0x00F3 [0x00] END_REQSTACK()
```

### Event 65535.10

#### Metadata

| Field        | Value    |
|--------------|----------|
| Entrypoint   | 0x00F4   |
| Data Size    | 13 bytes |
| Instructions | 4        |

```
      00 01 02 03 04 05 06 07  08 09 0A 0B 0C 0D 0E 0F
      -- -- -- -- -- -- -- --  -- -- -- -- -- -- -- --
00F0:             1F 00 29 80  2A 80 07 80 1F 01 22 01      ..).*.....".
0100: 00                                                .               
```

#### Opcodes

```
  0: 0x00F4 [0x1F] MOVE_ENTITY: EventEntity moves to X=-36.370*, Z=-136.431*, Y=5.499*
  1: 0x00FC [0x1F] MOVE_ENTITY: Update entity position (mode=1)
  2: 0x00FE [0x22] ENTITY_HIDE_FLAG(enabled=0x01)
  3: 0x0100 [0x00] END_REQSTACK()
```

### Event 65535.11

#### Metadata

| Field        | Value    |
|--------------|----------|
| Entrypoint   | 0x0101   |
| Data Size    | 19 bytes |
| Instructions | 3        |

```
      00 01 02 03 04 05 06 07  08 09 0A 0B 0C 0D 0E 0F
      -- -- -- -- -- -- -- --  -- -- -- -- -- -- -- --
0100:    5B 2B 80 F8 FF FF 7F  F8 FF FF 7F 74 6C 6B 30   [+.........tlk0
0110: 1C 2C 80 00                                       .,..            
```

#### Opcodes

```
  0: 0x0101 [0x5B] LOAD_EXT_SCHEDULER: Load scheduler "tlk0" with entities [EventEntity, EventEntity], work=215*
  1: 0x0110 [0x1C] WAIT(60* ticks)
  2: 0x0113 [0x00] END_REQSTACK()
```

### Event 65535.12

#### Metadata

| Field        | Value    |
|--------------|----------|
| Entrypoint   | 0x0114   |
| Data Size    | 37 bytes |
| Instructions | 5        |

```
      00 01 02 03 04 05 06 07  08 09 0A 0B 0C 0D 0E 0F
      -- -- -- -- -- -- -- --  -- -- -- -- -- -- -- --
0110:             5B 2B 80 F8  FF FF 7F F8 FF FF 7F 74      [+.........t
0120: 6C 6B 31 53 F8 FF FF 7F  F8 FF FF 7F 74 6C 6B 31  lk1S........tlk1
0130: 5E 69 64 6C 30 1C 2C 80  00                       ^idl0.,..       
```

#### Opcodes

```
  0: 0x0114 [0x5B] LOAD_EXT_SCHEDULER: Load scheduler "tlk1" with entities [EventEntity, EventEntity], work=215*
  1: 0x0123 [0x53] WAIT_SCHEDULER_TASK: Wait for scheduler "tlk1" with entities [EventEntity, EventEntity]
  2: 0x0130 [0x5E] EventEntity goes idle (kills current action) (animation: "idl0")
  3: 0x0135 [0x1C] WAIT(60* ticks)
  4: 0x0138 [0x00] END_REQSTACK()
```

### Event 65535.13

#### Metadata

| Field        | Value    |
|--------------|----------|
| Entrypoint   | 0x0139   |
| Data Size    | 29 bytes |
| Instructions | 3        |

```
      00 01 02 03 04 05 06 07  08 09 0A 0B 0C 0D 0E 0F
      -- -- -- -- -- -- -- --  -- -- -- -- -- -- -- --
0130:                             5B 2B 80 F8 FF FF 7F           [+.....
0140: F8 FF FF 7F 70 61 73 30  53 F8 FF FF 7F F8 FF FF  ....pas0S.......
0150: 7F 70 61 73 30 00                                 .pas0.          
```

#### Opcodes

```
  0: 0x0139 [0x5B] LOAD_EXT_SCHEDULER: Load scheduler "pas0" with entities [EventEntity, EventEntity], work=215*
  1: 0x0148 [0x53] WAIT_SCHEDULER_TASK: Wait for scheduler "pas0" with entities [EventEntity, EventEntity]
  2: 0x0155 [0x00] END_REQSTACK()
```

### Event 65535.14

#### Metadata

| Field        | Value   |
|--------------|---------|
| Entrypoint   | 0x0156  |
| Data Size    | 9 bytes |
| Instructions | 3       |

```
      00 01 02 03 04 05 06 07  08 09 0A 0B 0C 0D 0E 0F
      -- -- -- -- -- -- -- --  -- -- -- -- -- -- -- --
0150:                   5E 69  64 6C 30 1C 2C 80 00           ^idl0.,.. 
```

#### Opcodes

```
  0: 0x0156 [0x5E] EventEntity goes idle (kills current action) (animation: "idl0")
  1: 0x015B [0x1C] WAIT(60* ticks)
  2: 0x015E [0x00] END_REQSTACK()
```

### Event 65535.15

#### Metadata

| Field        | Value   |
|--------------|---------|
| Entrypoint   | 0x015F  |
| Data Size    | 1 bytes |
| Instructions | 1       |

```
      00 01 02 03 04 05 06 07  08 09 0A 0B 0C 0D 0E 0F
      -- -- -- -- -- -- -- --  -- -- -- -- -- -- -- --
0150:                                               00                 .
```

#### Opcodes

```
  0: 0x015F [0x00] END_REQSTACK()
```
