# 17780741 - Ulmia

## Common Data

| Field            | Value                 |
|------------------|-----------------------|
| Zone             | Lower Jeuno (ID: 245) |
| Block Size       | 408 bytes             |
| Total Events     | 13                    |
| References Count | 18                    |

## List of Events

| Event ID                   | Entrypoint   |   Size |   Instructions |
|----------------------------|--------------|--------|----------------|
| [65535](#event-65535)      | 0x0000       |      1 |              1 |
| [22](#event-22)            | 0x0001       |     32 |              5 |
| [65535.1](#event-655351)   | 0x0021       |      9 |              3 |
| [65535.2](#event-655352)   | 0x002A       |     44 |             10 |
| [65535.3](#event-655353)   | 0x0056       |     16 |              2 |
| [65535.4](#event-655354)   | 0x0066       |     29 |              3 |
| [65535.5](#event-655355)   | 0x0083       |     16 |              2 |
| [65535.6](#event-655356)   | 0x0093       |     29 |              3 |
| [65535.7](#event-655357)   | 0x00B0       |     16 |              2 |
| [65535.8](#event-655358)   | 0x00C0       |     29 |              3 |
| [65535.9](#event-655359)   | 0x00DD       |     16 |              2 |
| [65535.10](#event-6553510) | 0x00ED       |     29 |              3 |
| [65535.11](#event-6553511) | 0x010A       |      1 |              1 |

## DAT References (imed_data)

|   Index | Hex Value   |   Dec Value |
|---------|-------------|-------------|
|       0 | 0x4AC9      |       19145 |
|       1 | 0xFFFF2A00  |  4294912512 |
|       2 | 0x0F1D      |        3869 |
|       3 | 0x06FA      |        1786 |
|       4 | 0x0078      |         120 |
|       5 | 0x0028      |          40 |
|       6 | 0x4862      |       18530 |
|       7 | 0xFFFF2EB7  |  4294913719 |
|       8 | 0x0F3B      |        3899 |
|       9 | 0x4872      |       18546 |
|      10 | 0xFFFF35AC  |  4294915500 |
|      11 | 0x5250      |       21072 |
|      12 | 0xFFFF3900  |  4294916352 |
|      13 | 0x0F3D      |        3901 |
|      14 | 0x6D9C      |       28060 |
|      15 | 0xFFFF29E5  |  4294912485 |
|      16 | 0x01A4      |         420 |
|      17 | 0x01A7      |         423 |

## Events

### Event 65535

#### Metadata

| Field        | Value   |
|--------------|---------|
| Entrypoint   | 0x0000  |
| Data Size    | 1 bytes |
| Instructions | 1       |

```
      00 01 02 03 04 05 06 07  08 09 0A 0B 0C 0D 0E 0F
      -- -- -- -- -- -- -- --  -- -- -- -- -- -- -- --
0000: 00                                                .               
```

#### Opcodes

```
  0: 0x0000 [0x00] END_REQSTACK()
```

### Event 22

#### Metadata

| Field        | Value    |
|--------------|----------|
| Entrypoint   | 0x0001   |
| Data Size    | 32 bytes |
| Instructions | 5        |

```
      00 01 02 03 04 05 06 07  08 09 0A 0B 0C 0D 0E 0F
      -- -- -- -- -- -- -- --  -- -- -- -- -- -- -- --
0000:    94 01 F8 FF FF 7F 92  01 F8 FF FF 7F 37 00 80   ............7..
0010: 01 80 02 80 03 80 79 00  F8 FF FF 7F 07 50 0F 01  ......y......P..
0020: 00                                                .               
```

#### Opcodes

```
  0: 0x0001 [0x94] EventEntity->Render.Flags3 ^= 0x01
  1: 0x0007 [0x92] EventEntity->Render.Flags3 ^= 0x01
  2: 0x000D [0x37] UPDATE_EVENT_POSITION_AND_DIR: x=19.145*, z=-54.784*, y=3.869*, direction=157.0°*
  3: 0x0016 [0x79] EventEntity looks at Aldo (ID: 17780743/0x010F5007) (Basic look)
  4: 0x0020 [0x00] END_REQSTACK()
```

### Event 65535.1

#### Metadata

| Field        | Value   |
|--------------|---------|
| Entrypoint   | 0x0021  |
| Data Size    | 9 bytes |
| Instructions | 3       |

```
      00 01 02 03 04 05 06 07  08 09 0A 0B 0C 0D 0E 0F
      -- -- -- -- -- -- -- --  -- -- -- -- -- -- -- --
0020:    1C 04 80 1E F0 FF FF  7F 00                     .........      
```

#### Opcodes

```
  0: 0x0021 [0x1C] WAIT(120* ticks)
  1: 0x0024 [0x1E] EventEntity looks at LocalPlayer and starts talking
  2: 0x0029 [0x00] END_REQSTACK()
```

### Event 65535.2

#### Metadata

| Field        | Value    |
|--------------|----------|
| Entrypoint   | 0x002A   |
| Data Size    | 44 bytes |
| Instructions | 10       |

```
      00 01 02 03 04 05 06 07  08 09 0A 0B 0C 0D 0E 0F
      -- -- -- -- -- -- -- --  -- -- -- -- -- -- -- --
0020:                                32 05 80 1F 00 06            2.....
0030: 80 07 80 08 80 1F 01 1F  00 09 80 0A 80 08 80 1F  ................
0040: 01 1F 00 0B 80 0C 80 0D  80 1F 01 1F 00 0E 80 0F  ................
0050: 80 0D 80 1F 01 00                                 ......          
```

#### Opcodes

```
  0: 0x002A [0x32] ExtData[1]->MainSpeed = 40* * 0.1
  1: 0x002D [0x1F] MOVE_ENTITY: EventEntity moves to X=18.530*, Z=-53.577*, Y=3.899*
  2: 0x0035 [0x1F] MOVE_ENTITY: Update entity position (mode=1)
  3: 0x0037 [0x1F] MOVE_ENTITY: EventEntity moves to X=18.546*, Z=-51.796*, Y=3.899*
  4: 0x003F [0x1F] MOVE_ENTITY: Update entity position (mode=1)
  5: 0x0041 [0x1F] MOVE_ENTITY: EventEntity moves to X=21.072*, Z=-50.944*, Y=3.901*
  6: 0x0049 [0x1F] MOVE_ENTITY: Update entity position (mode=1)
  7: 0x004B [0x1F] MOVE_ENTITY: EventEntity moves to X=28.060*, Z=-54.811*, Y=3.901*
  8: 0x0053 [0x1F] MOVE_ENTITY: Update entity position (mode=1)
  9: 0x0055 [0x00] END_REQSTACK()
```

### Event 65535.3

#### Metadata

| Field        | Value    |
|--------------|----------|
| Entrypoint   | 0x0056   |
| Data Size    | 16 bytes |
| Instructions | 2        |

```
      00 01 02 03 04 05 06 07  08 09 0A 0B 0C 0D 0E 0F
      -- -- -- -- -- -- -- --  -- -- -- -- -- -- -- --
0050:                   5B 10  80 F8 FF FF 7F F8 FF FF        [.........
0060: 7F 74 6C 63 30 00                                 .tlc0.          
```

#### Opcodes

```
  0: 0x0056 [0x5B] LOAD_EXT_SCHEDULER: Load scheduler "tlc0" with entities [EventEntity, EventEntity], work=420*
  1: 0x0065 [0x00] END_REQSTACK()
```

### Event 65535.4

#### Metadata

| Field        | Value    |
|--------------|----------|
| Entrypoint   | 0x0066   |
| Data Size    | 29 bytes |
| Instructions | 3        |

```
      00 01 02 03 04 05 06 07  08 09 0A 0B 0C 0D 0E 0F
      -- -- -- -- -- -- -- --  -- -- -- -- -- -- -- --
0060:                   5B 10  80 F8 FF FF 7F F8 FF FF        [.........
0070: 7F 74 6C 63 31 53 F8 FF  FF 7F F8 FF FF 7F 74 6C  .tlc1S........tl
0080: 63 31 00                                          c1.             
```

#### Opcodes

```
  0: 0x0066 [0x5B] LOAD_EXT_SCHEDULER: Load scheduler "tlc1" with entities [EventEntity, EventEntity], work=420*
  1: 0x0075 [0x53] WAIT_SCHEDULER_TASK: Wait for scheduler "tlc1" with entities [EventEntity, EventEntity]
  2: 0x0082 [0x00] END_REQSTACK()
```

### Event 65535.5

#### Metadata

| Field        | Value    |
|--------------|----------|
| Entrypoint   | 0x0083   |
| Data Size    | 16 bytes |
| Instructions | 2        |

```
      00 01 02 03 04 05 06 07  08 09 0A 0B 0C 0D 0E 0F
      -- -- -- -- -- -- -- --  -- -- -- -- -- -- -- --
0080:          5B 10 80 F8 FF  FF 7F F8 FF FF 7F 74 6C     [..........tl
0090: 61 30 00                                          a0.             
```

#### Opcodes

```
  0: 0x0083 [0x5B] LOAD_EXT_SCHEDULER: Load scheduler "tla0" with entities [EventEntity, EventEntity], work=420*
  1: 0x0092 [0x00] END_REQSTACK()
```

### Event 65535.6

#### Metadata

| Field        | Value    |
|--------------|----------|
| Entrypoint   | 0x0093   |
| Data Size    | 29 bytes |
| Instructions | 3        |

```
      00 01 02 03 04 05 06 07  08 09 0A 0B 0C 0D 0E 0F
      -- -- -- -- -- -- -- --  -- -- -- -- -- -- -- --
0090:          5B 10 80 F8 FF  FF 7F F8 FF FF 7F 74 6C     [..........tl
00A0: 61 31 53 F8 FF FF 7F F8  FF FF 7F 74 6C 61 31 00  a1S........tla1.
```

#### Opcodes

```
  0: 0x0093 [0x5B] LOAD_EXT_SCHEDULER: Load scheduler "tla1" with entities [EventEntity, EventEntity], work=420*
  1: 0x00A2 [0x53] WAIT_SCHEDULER_TASK: Wait for scheduler "tla1" with entities [EventEntity, EventEntity]
  2: 0x00AF [0x00] END_REQSTACK()
```

### Event 65535.7

#### Metadata

| Field        | Value    |
|--------------|----------|
| Entrypoint   | 0x00B0   |
| Data Size    | 16 bytes |
| Instructions | 2        |

```
      00 01 02 03 04 05 06 07  08 09 0A 0B 0C 0D 0E 0F
      -- -- -- -- -- -- -- --  -- -- -- -- -- -- -- --
00B0: 5B 10 80 F8 FF FF 7F F8  FF FF 7F 74 6C 62 30 00  [..........tlb0.
```

#### Opcodes

```
  0: 0x00B0 [0x5B] LOAD_EXT_SCHEDULER: Load scheduler "tlb0" with entities [EventEntity, EventEntity], work=420*
  1: 0x00BF [0x00] END_REQSTACK()
```

### Event 65535.8

#### Metadata

| Field        | Value    |
|--------------|----------|
| Entrypoint   | 0x00C0   |
| Data Size    | 29 bytes |
| Instructions | 3        |

```
      00 01 02 03 04 05 06 07  08 09 0A 0B 0C 0D 0E 0F
      -- -- -- -- -- -- -- --  -- -- -- -- -- -- -- --
00C0: 5B 10 80 F8 FF FF 7F F8  FF FF 7F 74 6C 62 31 53  [..........tlb1S
00D0: F8 FF FF 7F F8 FF FF 7F  74 6C 62 31 00           ........tlb1.   
```

#### Opcodes

```
  0: 0x00C0 [0x5B] LOAD_EXT_SCHEDULER: Load scheduler "tlb1" with entities [EventEntity, EventEntity], work=420*
  1: 0x00CF [0x53] WAIT_SCHEDULER_TASK: Wait for scheduler "tlb1" with entities [EventEntity, EventEntity]
  2: 0x00DC [0x00] END_REQSTACK()
```

### Event 65535.9

#### Metadata

| Field        | Value    |
|--------------|----------|
| Entrypoint   | 0x00DD   |
| Data Size    | 16 bytes |
| Instructions | 2        |

```
      00 01 02 03 04 05 06 07  08 09 0A 0B 0C 0D 0E 0F
      -- -- -- -- -- -- -- --  -- -- -- -- -- -- -- --
00D0:                                         5B 11 80               [..
00E0: F8 FF FF 7F F8 FF FF 7F  68 74 61 30 00           ........hta0.   
```

#### Opcodes

```
  0: 0x00DD [0x5B] LOAD_EXT_SCHEDULER: Load scheduler "hta0" with entities [EventEntity, EventEntity], work=423*
  1: 0x00EC [0x00] END_REQSTACK()
```

### Event 65535.10

#### Metadata

| Field        | Value    |
|--------------|----------|
| Entrypoint   | 0x00ED   |
| Data Size    | 29 bytes |
| Instructions | 3        |

```
      00 01 02 03 04 05 06 07  08 09 0A 0B 0C 0D 0E 0F
      -- -- -- -- -- -- -- --  -- -- -- -- -- -- -- --
00E0:                                         5B 11 80               [..
00F0: F8 FF FF 7F F8 FF FF 7F  68 74 61 31 53 F8 FF FF  ........hta1S...
0100: 7F F8 FF FF 7F 68 74 61  31 00                    .....hta1.      
```

#### Opcodes

```
  0: 0x00ED [0x5B] LOAD_EXT_SCHEDULER: Load scheduler "hta1" with entities [EventEntity, EventEntity], work=423*
  1: 0x00FC [0x53] WAIT_SCHEDULER_TASK: Wait for scheduler "hta1" with entities [EventEntity, EventEntity]
  2: 0x0109 [0x00] END_REQSTACK()
```

### Event 65535.11

#### Metadata

| Field        | Value   |
|--------------|---------|
| Entrypoint   | 0x010A  |
| Data Size    | 1 bytes |
| Instructions | 1       |

```
      00 01 02 03 04 05 06 07  08 09 0A 0B 0C 0D 0E 0F
      -- -- -- -- -- -- -- --  -- -- -- -- -- -- -- --
0100:                                00                           .     
```

#### Opcodes

```
  0: 0x010A [0x00] END_REQSTACK()
```
