# 17780765 - Mataligeat

## Common Data

| Field            | Value                 |
|------------------|-----------------------|
| Zone             | Lower Jeuno (ID: 245) |
| Block Size       | 2828 bytes            |
| Total Events     | 104                   |
| References Count | 115                   |

## List of Events

| Event ID                   | Entrypoint   |   Size |   Instructions |
|----------------------------|--------------|--------|----------------|
| [65535](#event-65535)      | 0x0000       |      1 |              1 |
| [141](#event-141)          | 0x0001       |     42 |             11 |
| [140](#event-140)          | 0x002B       |     50 |             13 |
| [144](#event-144)          | 0x005D       |     58 |             15 |
| [143](#event-143)          | 0x0097       |     45 |             13 |
| [142](#event-142)          | 0x00C4       |     35 |             12 |
| [10094](#event-10094)      | 0x00E7       |      5 |              3 |
| [65535.1](#event-655351)   | 0x00EC       |     20 |              5 |
| [65535.2](#event-655352)   | 0x0100       |     20 |              5 |
| [65535.3](#event-655353)   | 0x0114       |     20 |              5 |
| [65535.4](#event-655354)   | 0x0128       |     17 |              3 |
| [65535.5](#event-655355)   | 0x0139       |     20 |              5 |
| [65535.6](#event-655356)   | 0x014D       |     20 |              5 |
| [65535.7](#event-655357)   | 0x0161       |     19 |              4 |
| [65535.8](#event-655358)   | 0x0174       |     19 |              4 |
| [65535.9](#event-655359)   | 0x0187       |     16 |              2 |
| [65535.10](#event-6553510) | 0x0197       |     16 |              2 |
| [65535.11](#event-6553511) | 0x01A7       |     20 |              5 |
| [65535.12](#event-6553512) | 0x01BB       |     16 |              2 |
| [65535.13](#event-6553513) | 0x01CB       |     16 |              2 |
| [65535.14](#event-6553514) | 0x01DB       |     16 |              2 |
| [65535.15](#event-6553515) | 0x01EB       |     21 |              6 |
| [65535.16](#event-6553516) | 0x0200       |     16 |              2 |
| [65535.17](#event-6553517) | 0x0210       |     16 |              2 |
| [65535.18](#event-6553518) | 0x0220       |     20 |              5 |
| [65535.19](#event-6553519) | 0x0234       |     17 |              3 |
| [65535.20](#event-6553520) | 0x0245       |     20 |              5 |
| [65535.21](#event-6553521) | 0x0259       |     16 |              2 |
| [65535.22](#event-6553522) | 0x0269       |     16 |              2 |
| [65535.23](#event-6553523) | 0x0279       |     16 |              2 |
| [65535.24](#event-6553524) | 0x0289       |     16 |              2 |
| [65535.25](#event-6553525) | 0x0299       |     16 |              2 |
| [65535.26](#event-6553526) | 0x02A9       |     16 |              2 |
| [65535.27](#event-6553527) | 0x02B9       |     16 |              2 |
| [65535.28](#event-6553528) | 0x02C9       |     12 |              4 |
| [65535.29](#event-6553529) | 0x02D5       |     20 |              5 |
| [65535.30](#event-6553530) | 0x02E9       |     17 |              3 |
| [65535.31](#event-6553531) | 0x02FA       |     17 |              3 |
| [65535.32](#event-6553532) | 0x030B       |     16 |              2 |
| [65535.33](#event-6553533) | 0x031B       |     16 |              2 |
| [65535.34](#event-6553534) | 0x032B       |     16 |              2 |
| [65535.35](#event-6553535) | 0x033B       |     16 |              2 |
| [65535.36](#event-6553536) | 0x034B       |     16 |              2 |
| [65535.37](#event-6553537) | 0x035B       |     16 |              2 |
| [65535.38](#event-6553538) | 0x036B       |     13 |              5 |
| [65535.39](#event-6553539) | 0x0378       |     20 |              5 |
| [65535.40](#event-6553540) | 0x038C       |     12 |              4 |
| [65535.41](#event-6553541) | 0x0398       |     16 |              2 |
| [65535.42](#event-6553542) | 0x03A8       |     16 |              2 |
| [65535.43](#event-6553543) | 0x03B8       |     16 |              2 |
| [65535.44](#event-6553544) | 0x03C8       |     20 |              5 |
| [65535.45](#event-6553545) | 0x03DC       |     29 |              6 |
| [65535.46](#event-6553546) | 0x03F9       |     17 |              3 |
| [65535.47](#event-6553547) | 0x040A       |     20 |              5 |
| [65535.48](#event-6553548) | 0x041E       |     20 |              5 |
| [65535.49](#event-6553549) | 0x0432       |     20 |              5 |
| [65535.50](#event-6553550) | 0x0446       |     20 |              5 |
| [65535.51](#event-6553551) | 0x045A       |     20 |              5 |
| [65535.52](#event-6553552) | 0x046E       |     16 |              2 |
| [65535.53](#event-6553553) | 0x047E       |     16 |              2 |
| [65535.54](#event-6553554) | 0x048E       |     20 |              5 |
| [65535.55](#event-6553555) | 0x04A2       |     16 |              2 |
| [65535.56](#event-6553556) | 0x04B2       |     16 |              2 |
| [65535.57](#event-6553557) | 0x04C2       |     16 |              2 |
| [65535.58](#event-6553558) | 0x04D2       |     16 |              2 |
| [65535.59](#event-6553559) | 0x04E2       |     21 |              6 |
| [65535.60](#event-6553560) | 0x04F7       |     20 |              5 |
| [65535.61](#event-6553561) | 0x050B       |     20 |              5 |
| [65535.62](#event-6553562) | 0x051F       |     17 |              3 |
| [65535.63](#event-6553563) | 0x0530       |     20 |              5 |
| [65535.64](#event-6553564) | 0x0544       |     20 |              5 |
| [65535.65](#event-6553565) | 0x0558       |     16 |              2 |
| [65535.66](#event-6553566) | 0x0568       |     16 |              2 |
| [65535.67](#event-6553567) | 0x0578       |     21 |              6 |
| [65535.68](#event-6553568) | 0x058D       |     20 |              5 |
| [65535.69](#event-6553569) | 0x05A1       |     20 |              5 |
| [65535.70](#event-6553570) | 0x05B5       |     16 |              2 |
| [65535.71](#event-6553571) | 0x05C5       |     20 |              5 |
| [65535.72](#event-6553572) | 0x05D9       |     21 |              6 |
| [65535.73](#event-6553573) | 0x05EE       |     20 |              5 |
| [65535.74](#event-6553574) | 0x0602       |     12 |              4 |
| [65535.75](#event-6553575) | 0x060E       |     16 |              2 |
| [65535.76](#event-6553576) | 0x061E       |     16 |              2 |
| [65535.77](#event-6553577) | 0x062E       |     20 |              5 |
| [65535.78](#event-6553578) | 0x0642       |     20 |              5 |
| [65535.79](#event-6553579) | 0x0656       |     17 |              3 |
| [65535.80](#event-6553580) | 0x0667       |     16 |              2 |
| [65535.81](#event-6553581) | 0x0677       |     16 |              2 |
| [65535.82](#event-6553582) | 0x0687       |     16 |              2 |
| [65535.83](#event-6553583) | 0x0697       |     16 |              2 |
| [65535.84](#event-6553584) | 0x06A7       |     17 |              3 |
| [65535.85](#event-6553585) | 0x06B8       |     20 |              5 |
| [65535.86](#event-6553586) | 0x06CC       |     12 |              4 |
| [65535.87](#event-6553587) | 0x06D8       |     16 |              2 |
| [65535.88](#event-6553588) | 0x06E8       |     16 |              2 |
| [65535.89](#event-6553589) | 0x06F8       |     16 |              2 |
| [65535.90](#event-6553590) | 0x0708       |     16 |              2 |
| [65535.91](#event-6553591) | 0x0718       |     16 |              2 |
| [65535.92](#event-6553592) | 0x0728       |     16 |              2 |
| [65535.93](#event-6553593) | 0x0738       |     16 |              2 |
| [65535.94](#event-6553594) | 0x0748       |     20 |              5 |
| [65535.95](#event-6553595) | 0x075C       |     20 |              5 |
| [65535.96](#event-6553596) | 0x0770       |     16 |              2 |
| [65535.97](#event-6553597) | 0x0780       |     16 |              2 |

## DAT References (imed_data)

|   Index | Hex Value   |   Dec Value |
|---------|-------------|-------------|
|       0 | 0x0014      |          20 |
|       1 | 0x1CFE      |        7422 |
|       2 | 0x1CFF      |        7423 |
|       3 | 0x1D00      |        7424 |
|       4 | 0x1D01      |        7425 |
|       5 | 0x1D02      |        7426 |
|       6 | 0x1D03      |        7427 |
|       7 | 0x1D04      |        7428 |
|       8 | 0x1D05      |        7429 |
|       9 | 0x1D06      |        7430 |
|      10 | 0x000A      |          10 |
|      11 | 0x1D07      |        7431 |
|      12 | 0x1D08      |        7432 |
|      13 | 0x1F7A      |        8058 |
|      14 | 0x1F7B      |        8059 |
|      15 | 0x0001      |           1 |
|      16 | 0x000C      |          12 |
|      17 | 0xFFFED6C4  |  4294891204 |
|      18 | 0xFFFDEB5B  |  4294830939 |
|      19 | 0x0000      |           0 |
|      20 | 0x000B      |          11 |
|      21 | 0xFFFE8B97  |  4294871959 |
|      22 | 0xFFFD9E68  |  4294811240 |
|      23 | 0xFFFF0D87  |  4294905223 |
|      24 | 0xFFFEA0EF  |  4294877423 |
|      25 | 0x176F      |        5999 |
|      26 | 0x0A3A      |        2618 |
|      27 | 0xFFFEB818  |  4294883352 |
|      28 | 0xFFFE098F  |  4294838671 |
|      29 | 0xFFFEF410  |  4294898704 |
|      30 | 0xFFFE85B9  |  4294870457 |
|      31 | 0xFFFEEC91  |  4294896785 |
|      32 | 0xFFFE6EA2  |  4294864546 |
|      33 | 0x0A2A      |        2602 |
|      34 | 0xFFFEE552  |  4294894930 |
|      35 | 0xFFFE3269  |  4294849129 |
|      36 | 0x0A39      |        2617 |
|      37 | 0x0045      |          69 |
|      38 | 0xFFFF2160  |  4294910304 |
|      39 | 0xFFFEA80E  |  4294879246 |
|      40 | 0x0A3D      |        2621 |
|      41 | 0x0A43      |        2627 |
|      42 | 0x004B      |          75 |
|      43 | 0xFFFFB20E  |  4294947342 |
|      44 | 0xFFFFAE2A  |  4294946346 |
|      45 | 0xFFFEDC35  |  4294892597 |
|      46 | 0xFFFE5D95  |  4294860181 |
|      47 | 0x0A47      |        2631 |
|      48 | 0x0055      |          85 |
|      49 | 0xFFFFB26F  |  4294947439 |
|      50 | 0xFFFFAB30  |  4294945584 |
|      51 | 0x000E      |          14 |
|      52 | 0xFFFF6C7D  |  4294929533 |
|      53 | 0xFFFF0AA4  |  4294904484 |
|      54 | 0xFFFFCBCA  |  4294953930 |
|      55 | 0x09E0      |        2528 |
|      56 | 0xFFFFFE3F  |  4294966847 |
|      57 | 0x0028      |          40 |
|      58 | 0x0029      |          41 |
|      59 | 0xFFFEEA26  |  4294896166 |
|      60 | 0xFFFE4F39  |  4294856505 |
|      61 | 0xFFFED8EC  |  4294891756 |
|      62 | 0xFFFE38BF  |  4294850751 |
|      63 | 0xFFFEC5BC  |  4294886844 |
|      64 | 0xFFFE1640  |  4294841920 |
|      65 | 0x03E7      |         999 |
|      66 | 0x0A33      |        2611 |
|      67 | 0x000D      |          13 |
|      68 | 0xFFFF04E1  |  4294903009 |
|      69 | 0xFFFE7108  |  4294865160 |
|      70 | 0x108C      |        4236 |
|      71 | 0x10F0      |        4336 |
|      72 | 0xFFFFC3F0  |  4294951920 |
|      73 | 0xFFFFA321  |  4294943521 |
|      74 | 0xFFFFFF9B  |  4294967195 |
|      75 | 0x0A18      |        2584 |
|      76 | 0xFFFFFC21  |  4294966305 |
|      77 | 0x084B      |        2123 |
|      78 | 0x0008      |           8 |
|      79 | 0x0033      |          51 |
|      80 | 0xFFFF0DFA  |  4294905338 |
|      81 | 0xFFFE6C9D  |  4294864029 |
|      82 | 0xFFFEFBE3  |  4294900707 |
|      83 | 0xFFFE9775  |  4294874997 |
|      84 | 0xFFFF19CD  |  4294908365 |
|      85 | 0xFFFEAC62  |  4294880354 |
|      86 | 0xFFFECE8B  |  4294889099 |
|      87 | 0xFFFE3998  |  4294850968 |
|      88 | 0x0F9F      |        3999 |
|      89 | 0x0A17      |        2583 |
|      90 | 0xFFFFD965  |  4294957413 |
|      91 | 0xFFFFD99E  |  4294957470 |
|      92 | 0x0009      |           9 |
|      93 | 0xFFFEE68C  |  4294895244 |
|      94 | 0xFFFE6FBD  |  4294864829 |
|      95 | 0xFFFFE923  |  4294961443 |
|      96 | 0xFFFFEBBA  |  4294962106 |
|      97 | 0xFFFF4F66  |  4294922086 |
|      98 | 0xFFFEA394  |  4294878100 |
|      99 | 0xFFFFE891  |  4294961297 |
|     100 | 0xFFFFB859  |  4294948953 |
|     101 | 0xFFFFDFA2  |  4294959010 |
|     102 | 0xFFFFB9ED  |  4294949357 |
|     103 | 0xFFFFBF3D  |  4294950717 |
|     104 | 0xFFFFF407  |  4294964231 |
|     105 | 0xFFFFE105  |  4294959365 |
|     106 | 0x003C      |          60 |
|     107 | 0x0A40      |        2624 |
|     108 | 0xFFFF6A1D  |  4294928925 |
|     109 | 0xFFFEF858  |  4294899800 |
|     110 | 0xFFFFEA43  |  4294961731 |
|     111 | 0xFFFFF8F4  |  4294965492 |
|     112 | 0x0002      |           2 |
|     113 | 0xFFFFF533  |  4294964531 |
|     114 | 0x13C3      |        5059 |

## String References

- **7431**: So now you're one of us, huh? Well, may we bring much harmony to this world!
- **7432**: What? You could be such a fine bard! What are you thinking? We could bring so much harmony to this world!
- **8058**: Huh? The bard interred inside Eldieme? Yeah, he was executed in San d'Oria for committing a serious crime!
- **8059**: So you're off to pray at his grave, huh? Be careful! You never know what evil lurks in those halls!

## Events

### Event 65535

#### Metadata

| Field        | Value   |
|--------------|---------|
| Entrypoint   | 0x0000  |
| Data Size    | 1 bytes |
| Instructions | 1       |

```
      00 01 02 03 04 05 06 07  08 09 0A 0B 0C 0D 0E 0F
      -- -- -- -- -- -- -- --  -- -- -- -- -- -- -- --
0000: 00                                                .               
```

#### Opcodes

```
  0: 0x0000 [0x00] END_REQSTACK()
```

### Event 141

#### Metadata

| Field        | Value    |
|--------------|----------|
| Entrypoint   | 0x0001   |
| Data Size    | 42 bytes |
| Instructions | 11       |

```
      00 01 02 03 04 05 06 07  08 09 0A 0B 0C 0D 0E 0F
      -- -- -- -- -- -- -- --  -- -- -- -- -- -- -- --
0000:    20 01 1E F0 FF FF 7F  6F 70 66 00 80 F8 FF FF    ......opf.....
0010: 7F F8 FF FF 7F 74 6C 6B  30 2B 1D 50 0F 01 01 80  .....tlk0+.P....
0020: 23 2B 1D 50 0F 01 02 80  23 21 00                 #+.P....#!.     
```

#### Opcodes

```
  0: 0x0001 [0x20] SET_CLI_EVENT_UC_FLAG: Lock player control
  1: 0x0003 [0x1E] EventEntity looks at LocalPlayer and starts talking
  2: 0x0008 [0x6F] WAIT_FRAME_DELAY: Yield until WaitTime reaches zero
  3: 0x0009 [0x70] WAIT_ENTITY_RENDER_FLAG: Wait while EventEntity->Render.Flags3 bit 2 is set (cancel turn if not)
  4: 0x000A [0x66] LOAD_EXT_SCHEDULER_MAIN: Load scheduler "tlk0" with entities [EventEntity, EventEntity], work=20*
  5: 0x0019 [0x2B] Mataligeat (ID: 17780765/0x010F501D) [7422*]:
    → "Looks like his girlfriend dumped him. He probably doesn't want to talk right now. Best leave him be."
  6: 0x0020 [0x23] WAIT_FOR_DIALOG_INTERACTION
  7: 0x0021 [0x2B] Mataligeat (ID: 17780765/0x010F501D) [7423*]:
    → "Nothing's more pathetic than a broken-hearted man."
  8: 0x0028 [0x23] WAIT_FOR_DIALOG_INTERACTION
  9: 0x0029 [0x21] END_EVENT
 10: 0x002A [0x00] END_REQSTACK()
```

### Event 140

#### Metadata

| Field        | Value    |
|--------------|----------|
| Entrypoint   | 0x002B   |
| Data Size    | 50 bytes |
| Instructions | 13       |

```
      00 01 02 03 04 05 06 07  08 09 0A 0B 0C 0D 0E 0F
      -- -- -- -- -- -- -- --  -- -- -- -- -- -- -- --
0020:                                   20 01 1E F0 FF              ....
0030: FF 7F 6F 70 66 00 80 F8  FF FF 7F F8 FF FF 7F 74  ..opf..........t
0040: 6C 6B 30 2B 1D 50 0F 01  03 80 23 2B 1D 50 0F 01  lk0+.P....#+.P..
0050: 04 80 23 2B 1D 50 0F 01  05 80 23 21 00           ..#+.P....#!.   
```

#### Opcodes

```
  0: 0x002B [0x20] SET_CLI_EVENT_UC_FLAG: Lock player control
  1: 0x002D [0x1E] EventEntity looks at LocalPlayer and starts talking
  2: 0x0032 [0x6F] WAIT_FRAME_DELAY: Yield until WaitTime reaches zero
  3: 0x0033 [0x70] WAIT_ENTITY_RENDER_FLAG: Wait while EventEntity->Render.Flags3 bit 2 is set (cancel turn if not)
  4: 0x0034 [0x66] LOAD_EXT_SCHEDULER_MAIN: Load scheduler "tlk0" with entities [EventEntity, EventEntity], work=20*
  5: 0x0043 [0x2B] Mataligeat (ID: 17780765/0x010F501D) [7424*]:
    → "He's forgotten why he took up the lute in the first place. Well, it's something we all have to face some time or another."
  6: 0x004A [0x23] WAIT_FOR_DIALOG_INTERACTION
  7: 0x004B [0x2B] Mataligeat (ID: 17780765/0x010F501D) [7425*]:
    → "Some men give up and turn back. But most find a way over it, while some are strong enough to bust right through. That's when you finally become someone."
  8: 0x0052 [0x23] WAIT_FOR_DIALOG_INTERACTION
  9: 0x0053 [0x2B] Mataligeat (ID: 17780765/0x010F501D) [7426*]:
    → "He's at his own crossroads. He has to figure it out for himself."
 10: 0x005A [0x23] WAIT_FOR_DIALOG_INTERACTION
 11: 0x005B [0x21] END_EVENT
 12: 0x005C [0x00] END_REQSTACK()
```

### Event 144

#### Metadata

| Field        | Value    |
|--------------|----------|
| Entrypoint   | 0x005D   |
| Data Size    | 58 bytes |
| Instructions | 15       |

```
      00 01 02 03 04 05 06 07  08 09 0A 0B 0C 0D 0E 0F
      -- -- -- -- -- -- -- --  -- -- -- -- -- -- -- --
0050:                                         20 01 1E                ..
0060: F0 FF FF 7F 6F 70 66 00  80 F8 FF FF 7F F8 FF FF  ....opf.........
0070: 7F 74 6C 6B 30 2B 1D 50  0F 01 06 80 23 2B 1D 50  .tlk0+.P....#+.P
0080: 0F 01 07 80 23 2B 1D 50  0F 01 08 80 23 2B 1D 50  ....#+.P....#+.P
0090: 0F 01 09 80 23 21 00                              ....#!.         
```

#### Opcodes

```
  0: 0x005D [0x20] SET_CLI_EVENT_UC_FLAG: Lock player control
  1: 0x005F [0x1E] EventEntity looks at LocalPlayer and starts talking
  2: 0x0064 [0x6F] WAIT_FRAME_DELAY: Yield until WaitTime reaches zero
  3: 0x0065 [0x70] WAIT_ENTITY_RENDER_FLAG: Wait while EventEntity->Render.Flags3 bit 2 is set (cancel turn if not)
  4: 0x0066 [0x66] LOAD_EXT_SCHEDULER_MAIN: Load scheduler "tlk0" with entities [EventEntity, EventEntity], work=20*
  5: 0x0075 [0x2B] Mataligeat (ID: 17780765/0x010F501D) [7427*]:
    → "Have you heard of Lewenhart?"
  6: 0x007C [0x23] WAIT_FOR_DIALOG_INTERACTION
  7: 0x007D [0x2B] Mataligeat (ID: 17780765/0x010F501D) [7428*]:
    → "Everywhere he goes, fantastic melodies follow. He is the bard for all bards, a legend among our kind."
  8: 0x0084 [0x23] WAIT_FOR_DIALOG_INTERACTION
  9: 0x0085 [0x2B] Mataligeat (ID: 17780765/0x010F501D) [7429*]:
    → "He should still be wandering somewhere out there, but nobody has seen him for ages."
 10: 0x008C [0x23] WAIT_FOR_DIALOG_INTERACTION
 11: 0x008D [0x2B] Mataligeat (ID: 17780765/0x010F501D) [7430*]:
    → "Someone of his stature could easily settle down and live quite comfortably. Perhaps he'll keep wandering his whole life. Who knows what thoughts such a creative mind entertains?"
 12: 0x0094 [0x23] WAIT_FOR_DIALOG_INTERACTION
 13: 0x0095 [0x21] END_EVENT
 14: 0x0096 [0x00] END_REQSTACK()
```

### Event 143

#### Metadata

| Field        | Value    |
|--------------|----------|
| Entrypoint   | 0x0097   |
| Data Size    | 45 bytes |
| Instructions | 13       |

```
      00 01 02 03 04 05 06 07  08 09 0A 0B 0C 0D 0E 0F
      -- -- -- -- -- -- -- --  -- -- -- -- -- -- -- --
0090:                      20  01 1E F0 FF FF 7F 6F 70          ......op
00A0: 66 00 80 F8 FF FF 7F F8  FF FF 7F 74 6C 6B 30 02  f..........tlk0.
00B0: 86 7F 0A 80 00 BE 00 1D  0B 80 23 01 C2 00 1D 0C  ..........#.....
00C0: 80 23 21 00                                       .#!.            
```

#### Opcodes

```
  0: 0x0097 [0x20] SET_CLI_EVENT_UC_FLAG: Lock player control
  1: 0x0099 [0x1E] EventEntity looks at LocalPlayer and starts talking
  2: 0x009E [0x6F] WAIT_FRAME_DELAY: Yield until WaitTime reaches zero
  3: 0x009F [0x70] WAIT_ENTITY_RENDER_FLAG: Wait while EventEntity->Render.Flags3 bit 2 is set (cancel turn if not)
  4: 0x00A0 [0x66] LOAD_EXT_SCHEDULER_MAIN: Load scheduler "tlk0" with entities [EventEntity, EventEntity], work=20*
  5: 0x00AF [0x02] IF !(LocalPlayer->JobId == 10*) GOTO 0x00BE
  6: 0x00B7 [0x1D] PRINT_EVENT_MESSAGE(message_id=7431*)
    → "So now you're one of us, huh? Well, may we bring much harmony to this world!"
  7: 0x00BA [0x23] WAIT_FOR_DIALOG_INTERACTION
  8: 0x00BB [0x01] GOTO 0x00C2
  9: 0x00BE [0x1D] PRINT_EVENT_MESSAGE(message_id=7432*)
    → "What? You could be such a fine bard! What are you thinking? We could bring so much harmony to this world!"
 10: 0x00C1 [0x23] WAIT_FOR_DIALOG_INTERACTION

SUBROUTINE_00C2:
 11: 0x00C2 [0x21] END_EVENT
 12: 0x00C3 [0x00] END_REQSTACK()
```

### Event 142

#### Metadata

| Field        | Value    |
|--------------|----------|
| Entrypoint   | 0x00C4   |
| Data Size    | 35 bytes |
| Instructions | 11       |

```
      00 01 02 03 04 05 06 07  08 09 0A 0B 0C 0D 0E 0F
      -- -- -- -- -- -- -- --  -- -- -- -- -- -- -- --
00C0:             20 01 1E F0  FF FF 7F 6F 70 66 00 80       ......opf..
00D0: F8 FF FF 7F F8 FF FF 7F  74 6C 6B 30 1D 0D 80 23  ........tlk0...#
00E0: 1D 0E 80 23 21 00 00                              ...#!..         
```

#### Opcodes

```
  0: 0x00C4 [0x20] SET_CLI_EVENT_UC_FLAG: Lock player control
  1: 0x00C6 [0x1E] EventEntity looks at LocalPlayer and starts talking
  2: 0x00CB [0x6F] WAIT_FRAME_DELAY: Yield until WaitTime reaches zero
  3: 0x00CC [0x70] WAIT_ENTITY_RENDER_FLAG: Wait while EventEntity->Render.Flags3 bit 2 is set (cancel turn if not)
  4: 0x00CD [0x66] LOAD_EXT_SCHEDULER_MAIN: Load scheduler "tlk0" with entities [EventEntity, EventEntity], work=20*
  5: 0x00DC [0x1D] PRINT_EVENT_MESSAGE(message_id=8058*)
    → "Huh? The bard interred inside Eldieme? Yeah, he was executed in San d'Oria for committing a serious crime!"
  6: 0x00DF [0x23] WAIT_FOR_DIALOG_INTERACTION
  7: 0x00E0 [0x1D] PRINT_EVENT_MESSAGE(message_id=8059*)
    → "So you're off to pray at his grave, huh? Be careful! You never know what evil lurks in those halls!"
  8: 0x00E3 [0x23] WAIT_FOR_DIALOG_INTERACTION
  9: 0x00E4 [0x21] END_EVENT
 10: 0x00E5 [0x00] END_REQSTACK()
```

#### Data or dead code:

```
# Dead code (unreachable instructions):
     0x00E6 [0x00] END_REQSTACK()
```

### Event 10094

#### Metadata

| Field        | Value   |
|--------------|---------|
| Entrypoint   | 0x00E7  |
| Data Size    | 5 bytes |
| Instructions | 2       |

```
      00 01 02 03 04 05 06 07  08 09 0A 0B 0C 0D 0E 0F
      -- -- -- -- -- -- -- --  -- -- -- -- -- -- -- --
00E0:                      C0  0F 80 00 00                     .....    
```

#### Opcodes

```
  0: 0x00E7 [0xC0] EventEntity->Render.Flags3 |= 0x1000 // Set bit 12 (from 1*)
  1: 0x00EA [0x00] END_REQSTACK()
```

#### Data or dead code:

```
# Dead code (unreachable instructions):
     0x00EB [0x00] END_REQSTACK()
```

### Event 65535.1

#### Metadata

| Field        | Value    |
|--------------|----------|
| Entrypoint   | 0x00EC   |
| Data Size    | 20 bytes |
| Instructions | 5        |

```
      00 01 02 03 04 05 06 07  08 09 0A 0B 0C 0D 0E 0F
      -- -- -- -- -- -- -- --  -- -- -- -- -- -- -- --
00E0:                                      59 04 0B 50              Y..P
00F0: 0F 01 10 80 1F 00 11 80  12 80 13 80 1F 01 6F 00  ..............o.
```

#### Opcodes

```
  0: 0x00EC [0x59] UPDATE_ENTITY_DATA: Set Garnev (ID: 17780747/0x010F500B) main speed = 12* * 0.1
  1: 0x00F4 [0x1F] MOVE_ENTITY: EventEntity moves to X=-76.092*, Z=-136.357*, Y=0.000*
  2: 0x00FC [0x1F] MOVE_ENTITY: Update entity position (mode=1)
  3: 0x00FE [0x6F] WAIT_FRAME_DELAY: Yield until WaitTime reaches zero
  4: 0x00FF [0x00] END_REQSTACK()
```

### Event 65535.2

#### Metadata

| Field        | Value    |
|--------------|----------|
| Entrypoint   | 0x0100   |
| Data Size    | 20 bytes |
| Instructions | 5        |

```
      00 01 02 03 04 05 06 07  08 09 0A 0B 0C 0D 0E 0F
      -- -- -- -- -- -- -- --  -- -- -- -- -- -- -- --
0100: 59 04 1D 50 0F 01 14 80  1F 00 15 80 16 80 13 80  Y..P............
0110: 1F 01 6F 00                                       ..o.            
```

#### Opcodes

```
  0: 0x0100 [0x59] UPDATE_ENTITY_DATA: Set Mataligeat (ID: 17780765/0x010F501D) main speed = 11* * 0.1
  1: 0x0108 [0x1F] MOVE_ENTITY: EventEntity moves to X=-95.337*, Z=-156.056*, Y=0.000*
  2: 0x0110 [0x1F] MOVE_ENTITY: Update entity position (mode=1)
  3: 0x0112 [0x6F] WAIT_FRAME_DELAY: Yield until WaitTime reaches zero
  4: 0x0113 [0x00] END_REQSTACK()
```

### Event 65535.3

#### Metadata

| Field        | Value    |
|--------------|----------|
| Entrypoint   | 0x0114   |
| Data Size    | 20 bytes |
| Instructions | 5        |

```
      00 01 02 03 04 05 06 07  08 09 0A 0B 0C 0D 0E 0F
      -- -- -- -- -- -- -- --  -- -- -- -- -- -- -- --
0110:             59 04 1D 50  0F 01 14 80 1F 00 17 80      Y..P........
0120: 18 80 19 80 1F 01 6F 00                           ......o.        
```

#### Opcodes

```
  0: 0x0114 [0x59] UPDATE_ENTITY_DATA: Set Mataligeat (ID: 17780765/0x010F501D) main speed = 11* * 0.1
  1: 0x011C [0x1F] MOVE_ENTITY: EventEntity moves to X=-62.073*, Z=-89.873*, Y=5.999*
  2: 0x0124 [0x1F] MOVE_ENTITY: Update entity position (mode=1)
  3: 0x0126 [0x6F] WAIT_FRAME_DELAY: Yield until WaitTime reaches zero
  4: 0x0127 [0x00] END_REQSTACK()
```

### Event 65535.4

#### Metadata

| Field        | Value    |
|--------------|----------|
| Entrypoint   | 0x0128   |
| Data Size    | 17 bytes |
| Instructions | 2        |

```
      00 01 02 03 04 05 06 07  08 09 0A 0B 0C 0D 0E 0F
      -- -- -- -- -- -- -- --  -- -- -- -- -- -- -- --
0120:                          5B 1A 80 1D 50 0F 01 1D          [...P...
0130: 50 0F 01 6F 70 30 30 00  00                       P..op00..       
```

#### Opcodes

```
  0: 0x0128 [0x5B] LOAD_EXT_SCHEDULER: Load scheduler "op00" with entities [Mataligeat (ID: 17780765/0x010F501D), Mataligeat (ID: 17780765/0x010F501D)], work=2618*
  1: 0x0137 [0x00] END_REQSTACK()
```

#### Data or dead code:

```
# Dead code (unreachable instructions):
     0x0138 [0x00] END_REQSTACK()
```

### Event 65535.5

#### Metadata

| Field        | Value    |
|--------------|----------|
| Entrypoint   | 0x0139   |
| Data Size    | 20 bytes |
| Instructions | 5        |

```
      00 01 02 03 04 05 06 07  08 09 0A 0B 0C 0D 0E 0F
      -- -- -- -- -- -- -- --  -- -- -- -- -- -- -- --
0130:                             59 04 3A 50 0F 01 14           Y.:P...
0140: 80 1F 00 15 80 16 80 13  80 1F 01 6F 00           ...........o.   
```

#### Opcodes

```
  0: 0x0139 [0x59] UPDATE_ENTITY_DATA: Set Navisse (ID: 17780794/0x010F503A) main speed = 11* * 0.1
  1: 0x0141 [0x1F] MOVE_ENTITY: EventEntity moves to X=-95.337*, Z=-156.056*, Y=0.000*
  2: 0x0149 [0x1F] MOVE_ENTITY: Update entity position (mode=1)
  3: 0x014B [0x6F] WAIT_FRAME_DELAY: Yield until WaitTime reaches zero
  4: 0x014C [0x00] END_REQSTACK()
```

### Event 65535.6

#### Metadata

| Field        | Value    |
|--------------|----------|
| Entrypoint   | 0x014D   |
| Data Size    | 20 bytes |
| Instructions | 5        |

```
      00 01 02 03 04 05 06 07  08 09 0A 0B 0C 0D 0E 0F
      -- -- -- -- -- -- -- --  -- -- -- -- -- -- -- --
0140:                                         59 04 2C               Y.,
0150: 50 0F 01 10 80 1F 00 1B  80 1C 80 13 80 1F 01 6F  P..............o
0160: 00                                                .               
```

#### Opcodes

```
  0: 0x014D [0x59] UPDATE_ENTITY_DATA: Set Jazmin (ID: 17780780/0x010F502C) main speed = 12* * 0.1
  1: 0x0155 [0x1F] MOVE_ENTITY: EventEntity moves to X=-83.944*, Z=-128.625*, Y=0.000*
  2: 0x015D [0x1F] MOVE_ENTITY: Update entity position (mode=1)
  3: 0x015F [0x6F] WAIT_FRAME_DELAY: Yield until WaitTime reaches zero
  4: 0x0160 [0x00] END_REQSTACK()
```

### Event 65535.7

#### Metadata

| Field        | Value    |
|--------------|----------|
| Entrypoint   | 0x0161   |
| Data Size    | 19 bytes |
| Instructions | 4        |

```
      00 01 02 03 04 05 06 07  08 09 0A 0B 0C 0D 0E 0F
      -- -- -- -- -- -- -- --  -- -- -- -- -- -- -- --
0160:    59 04 2C 50 0F 01 14  80 1F 00 1D 80 1E 80 19   Y.,P...........
0170: 80 1F 01 00                                       ....            
```

#### Opcodes

```
  0: 0x0161 [0x59] UPDATE_ENTITY_DATA: Set Jazmin (ID: 17780780/0x010F502C) main speed = 11* * 0.1
  1: 0x0169 [0x1F] MOVE_ENTITY: EventEntity moves to X=-68.592*, Z=-96.839*, Y=5.999*
  2: 0x0171 [0x1F] MOVE_ENTITY: Update entity position (mode=1)
  3: 0x0173 [0x00] END_REQSTACK()
```

### Event 65535.8

#### Metadata

| Field        | Value    |
|--------------|----------|
| Entrypoint   | 0x0174   |
| Data Size    | 19 bytes |
| Instructions | 4        |

```
      00 01 02 03 04 05 06 07  08 09 0A 0B 0C 0D 0E 0F
      -- -- -- -- -- -- -- --  -- -- -- -- -- -- -- --
0170:             59 04 2C 50  0F 01 14 80 1F 00 1F 80      Y.,P........
0180: 20 80 19 80 1F 01 00                               ......         
```

#### Opcodes

```
  0: 0x0174 [0x59] UPDATE_ENTITY_DATA: Set Jazmin (ID: 17780780/0x010F502C) main speed = 11* * 0.1
  1: 0x017C [0x1F] MOVE_ENTITY: EventEntity moves to X=-70.511*, Z=-102.750*, Y=5.999*
  2: 0x0184 [0x1F] MOVE_ENTITY: Update entity position (mode=1)
  3: 0x0186 [0x00] END_REQSTACK()
```

### Event 65535.9

#### Metadata

| Field        | Value    |
|--------------|----------|
| Entrypoint   | 0x0187   |
| Data Size    | 16 bytes |
| Instructions | 2        |

```
      00 01 02 03 04 05 06 07  08 09 0A 0B 0C 0D 0E 0F
      -- -- -- -- -- -- -- --  -- -- -- -- -- -- -- --
0180:                      5B  21 80 2C 50 0F 01 2C 50         [!.,P..,P
0190: 0F 01 6F 70 30 30 00                              ..op00.         
```

#### Opcodes

```
  0: 0x0187 [0x5B] LOAD_EXT_SCHEDULER: Load scheduler "op00" with entities [Jazmin (ID: 17780780/0x010F502C), Jazmin (ID: 17780780/0x010F502C)], work=2602*
  1: 0x0196 [0x00] END_REQSTACK()
```

### Event 65535.10

#### Metadata

| Field        | Value    |
|--------------|----------|
| Entrypoint   | 0x0197   |
| Data Size    | 16 bytes |
| Instructions | 2        |

```
      00 01 02 03 04 05 06 07  08 09 0A 0B 0C 0D 0E 0F
      -- -- -- -- -- -- -- --  -- -- -- -- -- -- -- --
0190:                      5B  21 80 2C 50 0F 01 2C 50         [!.,P..,P
01A0: 0F 01 6F 70 30 31 00                              ..op01.         
```

#### Opcodes

```
  0: 0x0197 [0x5B] LOAD_EXT_SCHEDULER: Load scheduler "op01" with entities [Jazmin (ID: 17780780/0x010F502C), Jazmin (ID: 17780780/0x010F502C)], work=2602*
  1: 0x01A6 [0x00] END_REQSTACK()
```

### Event 65535.11

#### Metadata

| Field        | Value    |
|--------------|----------|
| Entrypoint   | 0x01A7   |
| Data Size    | 20 bytes |
| Instructions | 5        |

```
      00 01 02 03 04 05 06 07  08 09 0A 0B 0C 0D 0E 0F
      -- -- -- -- -- -- -- --  -- -- -- -- -- -- -- --
01A0:                      59  04 2C 50 0F 01 14 80 1F         Y.,P.....
01B0: 00 22 80 23 80 19 80 1F  01 6F 00                 .".#.....o.     
```

#### Opcodes

```
  0: 0x01A7 [0x59] UPDATE_ENTITY_DATA: Set Jazmin (ID: 17780780/0x010F502C) main speed = 11* * 0.1
  1: 0x01AF [0x1F] MOVE_ENTITY: EventEntity moves to X=-72.366*, Z=-118.167*, Y=5.999*
  2: 0x01B7 [0x1F] MOVE_ENTITY: Update entity position (mode=1)
  3: 0x01B9 [0x6F] WAIT_FRAME_DELAY: Yield until WaitTime reaches zero
  4: 0x01BA [0x00] END_REQSTACK()
```

### Event 65535.12

#### Metadata

| Field        | Value    |
|--------------|----------|
| Entrypoint   | 0x01BB   |
| Data Size    | 16 bytes |
| Instructions | 2        |

```
      00 01 02 03 04 05 06 07  08 09 0A 0B 0C 0D 0E 0F
      -- -- -- -- -- -- -- --  -- -- -- -- -- -- -- --
01B0:                                   5B 24 80 2C 50             [$.,P
01C0: 0F 01 2C 50 0F 01 6F 70  61 30 00                 ..,P..opa0.     
```

#### Opcodes

```
  0: 0x01BB [0x5B] LOAD_EXT_SCHEDULER: Load scheduler "opa0" with entities [Jazmin (ID: 17780780/0x010F502C), Jazmin (ID: 17780780/0x010F502C)], work=2617*
  1: 0x01CA [0x00] END_REQSTACK()
```

### Event 65535.13

#### Metadata

| Field        | Value    |
|--------------|----------|
| Entrypoint   | 0x01CB   |
| Data Size    | 16 bytes |
| Instructions | 2        |

```
      00 01 02 03 04 05 06 07  08 09 0A 0B 0C 0D 0E 0F
      -- -- -- -- -- -- -- --  -- -- -- -- -- -- -- --
01C0:                                   5B 24 80 2C 50             [$.,P
01D0: 0F 01 2C 50 0F 01 6F 70  61 31 00                 ..,P..opa1.     
```

#### Opcodes

```
  0: 0x01CB [0x5B] LOAD_EXT_SCHEDULER: Load scheduler "opa1" with entities [Jazmin (ID: 17780780/0x010F502C), Jazmin (ID: 17780780/0x010F502C)], work=2617*
  1: 0x01DA [0x00] END_REQSTACK()
```

### Event 65535.14

#### Metadata

| Field        | Value    |
|--------------|----------|
| Entrypoint   | 0x01DB   |
| Data Size    | 16 bytes |
| Instructions | 2        |

```
      00 01 02 03 04 05 06 07  08 09 0A 0B 0C 0D 0E 0F
      -- -- -- -- -- -- -- --  -- -- -- -- -- -- -- --
01D0:                                   5B 24 80 2C 50             [$.,P
01E0: 0F 01 2C 50 0F 01 6F 70  61 32 00                 ..,P..opa2.     
```

#### Opcodes

```
  0: 0x01DB [0x5B] LOAD_EXT_SCHEDULER: Load scheduler "opa2" with entities [Jazmin (ID: 17780780/0x010F502C), Jazmin (ID: 17780780/0x010F502C)], work=2617*
  1: 0x01EA [0x00] END_REQSTACK()
```

### Event 65535.15

#### Metadata

| Field        | Value    |
|--------------|----------|
| Entrypoint   | 0x01EB   |
| Data Size    | 21 bytes |
| Instructions | 5        |

```
      00 01 02 03 04 05 06 07  08 09 0A 0B 0C 0D 0E 0F
      -- -- -- -- -- -- -- --  -- -- -- -- -- -- -- --
01E0:                                   59 04 2E 50 0F             Y..P.
01F0: 01 10 80 1F 00 11 80 12  80 13 80 1F 01 6F 00 00  .............o..
```

#### Opcodes

```
  0: 0x01EB [0x59] UPDATE_ENTITY_DATA: Set Bogharg (ID: 17780782/0x010F502E) main speed = 12* * 0.1
  1: 0x01F3 [0x1F] MOVE_ENTITY: EventEntity moves to X=-76.092*, Z=-136.357*, Y=0.000*
  2: 0x01FB [0x1F] MOVE_ENTITY: Update entity position (mode=1)
  3: 0x01FD [0x6F] WAIT_FRAME_DELAY: Yield until WaitTime reaches zero
  4: 0x01FE [0x00] END_REQSTACK()
```

#### Data or dead code:

```
# Dead code (unreachable instructions):
     0x01FF [0x00] END_REQSTACK()
```

### Event 65535.16

#### Metadata

| Field        | Value    |
|--------------|----------|
| Entrypoint   | 0x0200   |
| Data Size    | 16 bytes |
| Instructions | 2        |

```
      00 01 02 03 04 05 06 07  08 09 0A 0B 0C 0D 0E 0F
      -- -- -- -- -- -- -- --  -- -- -- -- -- -- -- --
0200: 66 25 80 2E 50 0F 01 2E  50 0F 01 74 68 6B 31 00  f%..P...P..thk1.
```

#### Opcodes

```
  0: 0x0200 [0x66] LOAD_EXT_SCHEDULER_MAIN: Load scheduler "thk1" with entities [Bogharg (ID: 17780782/0x010F502E), Bogharg (ID: 17780782/0x010F502E)], work=69*
  1: 0x020F [0x00] END_REQSTACK()
```

### Event 65535.17

#### Metadata

| Field        | Value    |
|--------------|----------|
| Entrypoint   | 0x0210   |
| Data Size    | 16 bytes |
| Instructions | 2        |

```
      00 01 02 03 04 05 06 07  08 09 0A 0B 0C 0D 0E 0F
      -- -- -- -- -- -- -- --  -- -- -- -- -- -- -- --
0210: 66 25 80 2E 50 0F 01 2E  50 0F 01 74 68 6B 32 00  f%..P...P..thk2.
```

#### Opcodes

```
  0: 0x0210 [0x66] LOAD_EXT_SCHEDULER_MAIN: Load scheduler "thk2" with entities [Bogharg (ID: 17780782/0x010F502E), Bogharg (ID: 17780782/0x010F502E)], work=69*
  1: 0x021F [0x00] END_REQSTACK()
```

### Event 65535.18

#### Metadata

| Field        | Value    |
|--------------|----------|
| Entrypoint   | 0x0220   |
| Data Size    | 20 bytes |
| Instructions | 5        |

```
      00 01 02 03 04 05 06 07  08 09 0A 0B 0C 0D 0E 0F
      -- -- -- -- -- -- -- --  -- -- -- -- -- -- -- --
0220: 59 04 2E 50 0F 01 10 80  1F 00 26 80 27 80 19 80  Y..P......&.'...
0230: 1F 01 6F 00                                       ..o.            
```

#### Opcodes

```
  0: 0x0220 [0x59] UPDATE_ENTITY_DATA: Set Bogharg (ID: 17780782/0x010F502E) main speed = 12* * 0.1
  1: 0x0228 [0x1F] MOVE_ENTITY: EventEntity moves to X=-56.992*, Z=-88.050*, Y=5.999*
  2: 0x0230 [0x1F] MOVE_ENTITY: Update entity position (mode=1)
  3: 0x0232 [0x6F] WAIT_FRAME_DELAY: Yield until WaitTime reaches zero
  4: 0x0233 [0x00] END_REQSTACK()
```

### Event 65535.19

#### Metadata

| Field        | Value    |
|--------------|----------|
| Entrypoint   | 0x0234   |
| Data Size    | 17 bytes |
| Instructions | 2        |

```
      00 01 02 03 04 05 06 07  08 09 0A 0B 0C 0D 0E 0F
      -- -- -- -- -- -- -- --  -- -- -- -- -- -- -- --
0230:             5B 28 80 2E  50 0F 01 2E 50 0F 01 6F      [(..P...P..o
0240: 70 30 30 00 00                                    p00..           
```

#### Opcodes

```
  0: 0x0234 [0x5B] LOAD_EXT_SCHEDULER: Load scheduler "op00" with entities [Bogharg (ID: 17780782/0x010F502E), Bogharg (ID: 17780782/0x010F502E)], work=2621*
  1: 0x0243 [0x00] END_REQSTACK()
```

#### Data or dead code:

```
# Dead code (unreachable instructions):
     0x0244 [0x00] END_REQSTACK()
```

### Event 65535.20

#### Metadata

| Field        | Value    |
|--------------|----------|
| Entrypoint   | 0x0245   |
| Data Size    | 20 bytes |
| Instructions | 5        |

```
      00 01 02 03 04 05 06 07  08 09 0A 0B 0C 0D 0E 0F
      -- -- -- -- -- -- -- --  -- -- -- -- -- -- -- --
0240:                59 04 31  50 0F 01 14 80 1F 00 1B       Y.1P.......
0250: 80 1C 80 13 80 1F 01 6F  00                       .......o.       
```

#### Opcodes

```
  0: 0x0245 [0x59] UPDATE_ENTITY_DATA: Set Nakho Jawantal (ID: 17780785/0x010F5031) main speed = 11* * 0.1
  1: 0x024D [0x1F] MOVE_ENTITY: EventEntity moves to X=-83.944*, Z=-128.625*, Y=0.000*
  2: 0x0255 [0x1F] MOVE_ENTITY: Update entity position (mode=1)
  3: 0x0257 [0x6F] WAIT_FRAME_DELAY: Yield until WaitTime reaches zero
  4: 0x0258 [0x00] END_REQSTACK()
```

### Event 65535.21

#### Metadata

| Field        | Value    |
|--------------|----------|
| Entrypoint   | 0x0259   |
| Data Size    | 16 bytes |
| Instructions | 2        |

```
      00 01 02 03 04 05 06 07  08 09 0A 0B 0C 0D 0E 0F
      -- -- -- -- -- -- -- --  -- -- -- -- -- -- -- --
0250:                             5B 29 80 12 50 0F 01           [)..P..
0260: 12 50 0F 01 6F 70 61 30  00                       .P..opa0.       
```

#### Opcodes

```
  0: 0x0259 [0x5B] LOAD_EXT_SCHEDULER: Load scheduler "opa0" with entities [Tovrutaux (ID: 17780754/0x010F5012), Tovrutaux (ID: 17780754/0x010F5012)], work=2627*
  1: 0x0268 [0x00] END_REQSTACK()
```

### Event 65535.22

#### Metadata

| Field        | Value    |
|--------------|----------|
| Entrypoint   | 0x0269   |
| Data Size    | 16 bytes |
| Instructions | 2        |

```
      00 01 02 03 04 05 06 07  08 09 0A 0B 0C 0D 0E 0F
      -- -- -- -- -- -- -- --  -- -- -- -- -- -- -- --
0260:                             5B 29 80 12 50 0F 01           [)..P..
0270: 12 50 0F 01 6F 70 61 31  00                       .P..opa1.       
```

#### Opcodes

```
  0: 0x0269 [0x5B] LOAD_EXT_SCHEDULER: Load scheduler "opa1" with entities [Tovrutaux (ID: 17780754/0x010F5012), Tovrutaux (ID: 17780754/0x010F5012)], work=2627*
  1: 0x0278 [0x00] END_REQSTACK()
```

### Event 65535.23

#### Metadata

| Field        | Value    |
|--------------|----------|
| Entrypoint   | 0x0279   |
| Data Size    | 16 bytes |
| Instructions | 2        |

```
      00 01 02 03 04 05 06 07  08 09 0A 0B 0C 0D 0E 0F
      -- -- -- -- -- -- -- --  -- -- -- -- -- -- -- --
0270:                             5B 29 80 12 50 0F 01           [)..P..
0280: 12 50 0F 01 6F 70 61 32  00                       .P..opa2.       
```

#### Opcodes

```
  0: 0x0279 [0x5B] LOAD_EXT_SCHEDULER: Load scheduler "opa2" with entities [Tovrutaux (ID: 17780754/0x010F5012), Tovrutaux (ID: 17780754/0x010F5012)], work=2627*
  1: 0x0288 [0x00] END_REQSTACK()
```

### Event 65535.24

#### Metadata

| Field        | Value    |
|--------------|----------|
| Entrypoint   | 0x0289   |
| Data Size    | 16 bytes |
| Instructions | 2        |

```
      00 01 02 03 04 05 06 07  08 09 0A 0B 0C 0D 0E 0F
      -- -- -- -- -- -- -- --  -- -- -- -- -- -- -- --
0280:                             5B 2A 80 12 50 0F 01           [*..P..
0290: 12 50 0F 01 74 68 6B 31  00                       .P..thk1.       
```

#### Opcodes

```
  0: 0x0289 [0x5B] LOAD_EXT_SCHEDULER: Load scheduler "thk1" with entities [Tovrutaux (ID: 17780754/0x010F5012), Tovrutaux (ID: 17780754/0x010F5012)], work=75*
  1: 0x0298 [0x00] END_REQSTACK()
```

### Event 65535.25

#### Metadata

| Field        | Value    |
|--------------|----------|
| Entrypoint   | 0x0299   |
| Data Size    | 16 bytes |
| Instructions | 2        |

```
      00 01 02 03 04 05 06 07  08 09 0A 0B 0C 0D 0E 0F
      -- -- -- -- -- -- -- --  -- -- -- -- -- -- -- --
0290:                             5B 2A 80 12 50 0F 01           [*..P..
02A0: 12 50 0F 01 74 68 6B 32  00                       .P..thk2.       
```

#### Opcodes

```
  0: 0x0299 [0x5B] LOAD_EXT_SCHEDULER: Load scheduler "thk2" with entities [Tovrutaux (ID: 17780754/0x010F5012), Tovrutaux (ID: 17780754/0x010F5012)], work=75*
  1: 0x02A8 [0x00] END_REQSTACK()
```

### Event 65535.26

#### Metadata

| Field        | Value    |
|--------------|----------|
| Entrypoint   | 0x02A9   |
| Data Size    | 16 bytes |
| Instructions | 2        |

```
      00 01 02 03 04 05 06 07  08 09 0A 0B 0C 0D 0E 0F
      -- -- -- -- -- -- -- --  -- -- -- -- -- -- -- --
02A0:                             5B 2A 80 12 50 0F 01           [*..P..
02B0: 12 50 0F 01 74 6C 6B 30  00                       .P..tlk0.       
```

#### Opcodes

```
  0: 0x02A9 [0x5B] LOAD_EXT_SCHEDULER: Load scheduler "tlk0" with entities [Tovrutaux (ID: 17780754/0x010F5012), Tovrutaux (ID: 17780754/0x010F5012)], work=75*
  1: 0x02B8 [0x00] END_REQSTACK()
```

### Event 65535.27

#### Metadata

| Field        | Value    |
|--------------|----------|
| Entrypoint   | 0x02B9   |
| Data Size    | 16 bytes |
| Instructions | 2        |

```
      00 01 02 03 04 05 06 07  08 09 0A 0B 0C 0D 0E 0F
      -- -- -- -- -- -- -- --  -- -- -- -- -- -- -- --
02B0:                             5B 2A 80 12 50 0F 01           [*..P..
02C0: 12 50 0F 01 74 6C 6B 31  00                       .P..tlk1.       
```

#### Opcodes

```
  0: 0x02B9 [0x5B] LOAD_EXT_SCHEDULER: Load scheduler "tlk1" with entities [Tovrutaux (ID: 17780754/0x010F5012), Tovrutaux (ID: 17780754/0x010F5012)], work=75*
  1: 0x02C8 [0x00] END_REQSTACK()
```

### Event 65535.28

#### Metadata

| Field        | Value    |
|--------------|----------|
| Entrypoint   | 0x02C9   |
| Data Size    | 12 bytes |
| Instructions | 4        |

```
      00 01 02 03 04 05 06 07  08 09 0A 0B 0C 0D 0E 0F
      -- -- -- -- -- -- -- --  -- -- -- -- -- -- -- --
02C0:                             1F 00 2B 80 2C 80 13           ..+.,..
02D0: 80 1F 01 6F 00                                    ...o.           
```

#### Opcodes

```
  0: 0x02C9 [0x1F] MOVE_ENTITY: EventEntity moves to X=-19.954*, Z=-20.950*, Y=0.000*
  1: 0x02D1 [0x1F] MOVE_ENTITY: Update entity position (mode=1)
  2: 0x02D3 [0x6F] WAIT_FRAME_DELAY: Yield until WaitTime reaches zero
  3: 0x02D4 [0x00] END_REQSTACK()
```

### Event 65535.29

#### Metadata

| Field        | Value    |
|--------------|----------|
| Entrypoint   | 0x02D5   |
| Data Size    | 20 bytes |
| Instructions | 5        |

```
      00 01 02 03 04 05 06 07  08 09 0A 0B 0C 0D 0E 0F
      -- -- -- -- -- -- -- --  -- -- -- -- -- -- -- --
02D0:                59 04 13  50 0F 01 14 80 1F 00 2D       Y..P......-
02E0: 80 2E 80 19 80 1F 01 6F  00                       .......o.       
```

#### Opcodes

```
  0: 0x02D5 [0x59] UPDATE_ENTITY_DATA: Set Seyaya (ID: 17780755/0x010F5013) main speed = 11* * 0.1
  1: 0x02DD [0x1F] MOVE_ENTITY: EventEntity moves to X=-74.699*, Z=-107.115*, Y=5.999*
  2: 0x02E5 [0x1F] MOVE_ENTITY: Update entity position (mode=1)
  3: 0x02E7 [0x6F] WAIT_FRAME_DELAY: Yield until WaitTime reaches zero
  4: 0x02E8 [0x00] END_REQSTACK()
```

### Event 65535.30

#### Metadata

| Field        | Value    |
|--------------|----------|
| Entrypoint   | 0x02E9   |
| Data Size    | 17 bytes |
| Instructions | 2        |

```
      00 01 02 03 04 05 06 07  08 09 0A 0B 0C 0D 0E 0F
      -- -- -- -- -- -- -- --  -- -- -- -- -- -- -- --
02E0:                             5B 2F 80 13 50 0F 01           [/..P..
02F0: 13 50 0F 01 6F 70 61 30  00 00                    .P..opa0..      
```

#### Opcodes

```
  0: 0x02E9 [0x5B] LOAD_EXT_SCHEDULER: Load scheduler "opa0" with entities [Seyaya (ID: 17780755/0x010F5013), Seyaya (ID: 17780755/0x010F5013)], work=2631*
  1: 0x02F8 [0x00] END_REQSTACK()
```

#### Data or dead code:

```
# Dead code (unreachable instructions):
     0x02F9 [0x00] END_REQSTACK()
```

### Event 65535.31

#### Metadata

| Field        | Value    |
|--------------|----------|
| Entrypoint   | 0x02FA   |
| Data Size    | 17 bytes |
| Instructions | 2        |

```
      00 01 02 03 04 05 06 07  08 09 0A 0B 0C 0D 0E 0F
      -- -- -- -- -- -- -- --  -- -- -- -- -- -- -- --
02F0:                                5B 2F 80 13 50 0F            [/..P.
0300: 01 13 50 0F 01 6F 70 61  31 00 00                 ..P..opa1..     
```

#### Opcodes

```
  0: 0x02FA [0x5B] LOAD_EXT_SCHEDULER: Load scheduler "opa1" with entities [Seyaya (ID: 17780755/0x010F5013), Seyaya (ID: 17780755/0x010F5013)], work=2631*
  1: 0x0309 [0x00] END_REQSTACK()
```

#### Data or dead code:

```
# Dead code (unreachable instructions):
     0x030A [0x00] END_REQSTACK()
```

### Event 65535.32

#### Metadata

| Field        | Value    |
|--------------|----------|
| Entrypoint   | 0x030B   |
| Data Size    | 16 bytes |
| Instructions | 2        |

```
      00 01 02 03 04 05 06 07  08 09 0A 0B 0C 0D 0E 0F
      -- -- -- -- -- -- -- --  -- -- -- -- -- -- -- --
0300:                                   5B 2F 80 13 50             [/..P
0310: 0F 01 13 50 0F 01 6F 70  61 32 00                 ...P..opa2.     
```

#### Opcodes

```
  0: 0x030B [0x5B] LOAD_EXT_SCHEDULER: Load scheduler "opa2" with entities [Seyaya (ID: 17780755/0x010F5013), Seyaya (ID: 17780755/0x010F5013)], work=2631*
  1: 0x031A [0x00] END_REQSTACK()
```

### Event 65535.33

#### Metadata

| Field        | Value    |
|--------------|----------|
| Entrypoint   | 0x031B   |
| Data Size    | 16 bytes |
| Instructions | 2        |

```
      00 01 02 03 04 05 06 07  08 09 0A 0B 0C 0D 0E 0F
      -- -- -- -- -- -- -- --  -- -- -- -- -- -- -- --
0310:                                   5B 30 80 13 50             [0..P
0320: 0F 01 13 50 0F 01 74 68  6B 31 00                 ...P..thk1.     
```

#### Opcodes

```
  0: 0x031B [0x5B] LOAD_EXT_SCHEDULER: Load scheduler "thk1" with entities [Seyaya (ID: 17780755/0x010F5013), Seyaya (ID: 17780755/0x010F5013)], work=85*
  1: 0x032A [0x00] END_REQSTACK()
```

### Event 65535.34

#### Metadata

| Field        | Value    |
|--------------|----------|
| Entrypoint   | 0x032B   |
| Data Size    | 16 bytes |
| Instructions | 2        |

```
      00 01 02 03 04 05 06 07  08 09 0A 0B 0C 0D 0E 0F
      -- -- -- -- -- -- -- --  -- -- -- -- -- -- -- --
0320:                                   5B 30 80 13 50             [0..P
0330: 0F 01 13 50 0F 01 74 68  6B 32 00                 ...P..thk2.     
```

#### Opcodes

```
  0: 0x032B [0x5B] LOAD_EXT_SCHEDULER: Load scheduler "thk2" with entities [Seyaya (ID: 17780755/0x010F5013), Seyaya (ID: 17780755/0x010F5013)], work=85*
  1: 0x033A [0x00] END_REQSTACK()
```

### Event 65535.35

#### Metadata

| Field        | Value    |
|--------------|----------|
| Entrypoint   | 0x033B   |
| Data Size    | 16 bytes |
| Instructions | 2        |

```
      00 01 02 03 04 05 06 07  08 09 0A 0B 0C 0D 0E 0F
      -- -- -- -- -- -- -- --  -- -- -- -- -- -- -- --
0330:                                   5B 30 80 13 50             [0..P
0340: 0F 01 13 50 0F 01 74 6C  6B 30 00                 ...P..tlk0.     
```

#### Opcodes

```
  0: 0x033B [0x5B] LOAD_EXT_SCHEDULER: Load scheduler "tlk0" with entities [Seyaya (ID: 17780755/0x010F5013), Seyaya (ID: 17780755/0x010F5013)], work=85*
  1: 0x034A [0x00] END_REQSTACK()
```

### Event 65535.36

#### Metadata

| Field        | Value    |
|--------------|----------|
| Entrypoint   | 0x034B   |
| Data Size    | 16 bytes |
| Instructions | 2        |

```
      00 01 02 03 04 05 06 07  08 09 0A 0B 0C 0D 0E 0F
      -- -- -- -- -- -- -- --  -- -- -- -- -- -- -- --
0340:                                   5B 30 80 13 50             [0..P
0350: 0F 01 13 50 0F 01 74 6C  6B 65 00                 ...P..tlke.     
```

#### Opcodes

```
  0: 0x034B [0x5B] LOAD_EXT_SCHEDULER: Load scheduler "tlke" with entities [Seyaya (ID: 17780755/0x010F5013), Seyaya (ID: 17780755/0x010F5013)], work=85*
  1: 0x035A [0x00] END_REQSTACK()
```

### Event 65535.37

#### Metadata

| Field        | Value    |
|--------------|----------|
| Entrypoint   | 0x035B   |
| Data Size    | 16 bytes |
| Instructions | 2        |

```
      00 01 02 03 04 05 06 07  08 09 0A 0B 0C 0D 0E 0F
      -- -- -- -- -- -- -- --  -- -- -- -- -- -- -- --
0350:                                   5B 30 80 13 50             [0..P
0360: 0F 01 13 50 0F 01 62 61  6E 30 00                 ...P..ban0.     
```

#### Opcodes

```
  0: 0x035B [0x5B] LOAD_EXT_SCHEDULER: Load scheduler "ban0" with entities [Seyaya (ID: 17780755/0x010F5013), Seyaya (ID: 17780755/0x010F5013)], work=85*
  1: 0x036A [0x00] END_REQSTACK()
```

### Event 65535.38

#### Metadata

| Field        | Value    |
|--------------|----------|
| Entrypoint   | 0x036B   |
| Data Size    | 13 bytes |
| Instructions | 4        |

```
      00 01 02 03 04 05 06 07  08 09 0A 0B 0C 0D 0E 0F
      -- -- -- -- -- -- -- --  -- -- -- -- -- -- -- --
0360:                                   1F 00 31 80 32             ..1.2
0370: 80 13 80 1F 01 6F 00 00                           .....o..        
```

#### Opcodes

```
  0: 0x036B [0x1F] MOVE_ENTITY: EventEntity moves to X=-19.857*, Z=-21.712*, Y=0.000*
  1: 0x0373 [0x1F] MOVE_ENTITY: Update entity position (mode=1)
  2: 0x0375 [0x6F] WAIT_FRAME_DELAY: Yield until WaitTime reaches zero
  3: 0x0376 [0x00] END_REQSTACK()
```

#### Data or dead code:

```
# Dead code (unreachable instructions):
     0x0377 [0x00] END_REQSTACK()
```

### Event 65535.39

#### Metadata

| Field        | Value    |
|--------------|----------|
| Entrypoint   | 0x0378   |
| Data Size    | 20 bytes |
| Instructions | 5        |

```
      00 01 02 03 04 05 06 07  08 09 0A 0B 0C 0D 0E 0F
      -- -- -- -- -- -- -- --  -- -- -- -- -- -- -- --
0370:                          59 04 C0 50 0F 01 33 80          Y..P..3.
0380: 1F 00 34 80 35 80 13 80  1F 01 6F 00              ..4.5.....o.    
```

#### Opcodes

```
  0: 0x0378 [0x59] UPDATE_ENTITY_DATA: Set Rakuru-Rakoru (ID: 17780928/0x010F50C0) main speed = 14* * 0.1
  1: 0x0380 [0x1F] MOVE_ENTITY: EventEntity moves to X=-37.763*, Z=-62.812*, Y=0.000*
  2: 0x0388 [0x1F] MOVE_ENTITY: Update entity position (mode=1)
  3: 0x038A [0x6F] WAIT_FRAME_DELAY: Yield until WaitTime reaches zero
  4: 0x038B [0x00] END_REQSTACK()
```

### Event 65535.40

#### Metadata

| Field        | Value    |
|--------------|----------|
| Entrypoint   | 0x038C   |
| Data Size    | 12 bytes |
| Instructions | 4        |

```
      00 01 02 03 04 05 06 07  08 09 0A 0B 0C 0D 0E 0F
      -- -- -- -- -- -- -- --  -- -- -- -- -- -- -- --
0380:                                      1F 00 36 80              ..6.
0390: 37 80 38 80 1F 01 6F 00                           7.8...o.        
```

#### Opcodes

```
  0: 0x038C [0x1F] MOVE_ENTITY: EventEntity moves to X=-13.366*, Z=2.528*, Y=-0.449*
  1: 0x0394 [0x1F] MOVE_ENTITY: Update entity position (mode=1)
  2: 0x0396 [0x6F] WAIT_FRAME_DELAY: Yield until WaitTime reaches zero
  3: 0x0397 [0x00] END_REQSTACK()
```

### Event 65535.41

#### Metadata

| Field        | Value    |
|--------------|----------|
| Entrypoint   | 0x0398   |
| Data Size    | 16 bytes |
| Instructions | 2        |

```
      00 01 02 03 04 05 06 07  08 09 0A 0B 0C 0D 0E 0F
      -- -- -- -- -- -- -- --  -- -- -- -- -- -- -- --
0390:                          66 39 80 C0 50 0F 01 C0          f9..P...
03A0: 50 0F 01 74 6C 6B 30 00                           P..tlk0.        
```

#### Opcodes

```
  0: 0x0398 [0x66] LOAD_EXT_SCHEDULER_MAIN: Load scheduler "tlk0" with entities [Rakuru-Rakoru (ID: 17780928/0x010F50C0), Rakuru-Rakoru (ID: 17780928/0x010F50C0)], work=40*
  1: 0x03A7 [0x00] END_REQSTACK()
```

### Event 65535.42

#### Metadata

| Field        | Value    |
|--------------|----------|
| Entrypoint   | 0x03A8   |
| Data Size    | 16 bytes |
| Instructions | 2        |

```
      00 01 02 03 04 05 06 07  08 09 0A 0B 0C 0D 0E 0F
      -- -- -- -- -- -- -- --  -- -- -- -- -- -- -- --
03A0:                          66 3A 80 C0 50 0F 01 C0          f:..P...
03B0: 50 0F 01 65 68 6E 31 00                           P..ehn1.        
```

#### Opcodes

```
  0: 0x03A8 [0x66] LOAD_EXT_SCHEDULER_MAIN: Load scheduler "ehn1" with entities [Rakuru-Rakoru (ID: 17780928/0x010F50C0), Rakuru-Rakoru (ID: 17780928/0x010F50C0)], work=41*
  1: 0x03B7 [0x00] END_REQSTACK()
```

### Event 65535.43

#### Metadata

| Field        | Value    |
|--------------|----------|
| Entrypoint   | 0x03B8   |
| Data Size    | 16 bytes |
| Instructions | 2        |

```
      00 01 02 03 04 05 06 07  08 09 0A 0B 0C 0D 0E 0F
      -- -- -- -- -- -- -- --  -- -- -- -- -- -- -- --
03B0:                          66 39 80 C0 50 0F 01 C0          f9..P...
03C0: 50 0F 01 6D 6F 6A 30 00                           P..moj0.        
```

#### Opcodes

```
  0: 0x03B8 [0x66] LOAD_EXT_SCHEDULER_MAIN: Load scheduler "moj0" with entities [Rakuru-Rakoru (ID: 17780928/0x010F50C0), Rakuru-Rakoru (ID: 17780928/0x010F50C0)], work=40*
  1: 0x03C7 [0x00] END_REQSTACK()
```

### Event 65535.44

#### Metadata

| Field        | Value    |
|--------------|----------|
| Entrypoint   | 0x03C8   |
| Data Size    | 20 bytes |
| Instructions | 5        |

```
      00 01 02 03 04 05 06 07  08 09 0A 0B 0C 0D 0E 0F
      -- -- -- -- -- -- -- --  -- -- -- -- -- -- -- --
03C0:                          59 04 C0 50 0F 01 33 80          Y..P..3.
03D0: 1F 00 3B 80 3C 80 19 80  1F 01 6F 00              ..;.<.....o.    
```

#### Opcodes

```
  0: 0x03C8 [0x59] UPDATE_ENTITY_DATA: Set Rakuru-Rakoru (ID: 17780928/0x010F50C0) main speed = 14* * 0.1
  1: 0x03D0 [0x1F] MOVE_ENTITY: EventEntity moves to X=-71.130*, Z=-110.791*, Y=5.999*
  2: 0x03D8 [0x1F] MOVE_ENTITY: Update entity position (mode=1)
  3: 0x03DA [0x6F] WAIT_FRAME_DELAY: Yield until WaitTime reaches zero
  4: 0x03DB [0x00] END_REQSTACK()
```

### Event 65535.45

#### Metadata

| Field        | Value    |
|--------------|----------|
| Entrypoint   | 0x03DC   |
| Data Size    | 29 bytes |
| Instructions | 6        |

```
      00 01 02 03 04 05 06 07  08 09 0A 0B 0C 0D 0E 0F
      -- -- -- -- -- -- -- --  -- -- -- -- -- -- -- --
03D0:                                      59 04 C0 50              Y..P
03E0: 0F 01 33 80 1F 00 3D 80  3E 80 19 80 1F 01 5A 00  ..3...=.>.....Z.
03F0: 3F 80 40 80 41 80 5A 01  00                       ?.@.A.Z..       
```

#### Opcodes

```
  0: 0x03DC [0x59] UPDATE_ENTITY_DATA: Set Rakuru-Rakoru (ID: 17780928/0x010F50C0) main speed = 14* * 0.1
  1: 0x03E4 [0x1F] MOVE_ENTITY: EventEntity moves to X=-75.540*, Z=-116.545*, Y=5.999*
  2: 0x03EC [0x1F] MOVE_ENTITY: Update entity position (mode=1)
  3: 0x03EE [0x5A] UPDATE_EVENT_POSITION: Set EventEntity MovePosition to X=-80.452*, Z=-125.376*, Y=0.999*
  4: 0x03F6 [0x5A] UPDATE_EVENT_POSITION: Move EventEntity incrementally towards MovePosition
  5: 0x03F8 [0x00] END_REQSTACK()
```

### Event 65535.46

#### Metadata

| Field        | Value    |
|--------------|----------|
| Entrypoint   | 0x03F9   |
| Data Size    | 17 bytes |
| Instructions | 2        |

```
      00 01 02 03 04 05 06 07  08 09 0A 0B 0C 0D 0E 0F
      -- -- -- -- -- -- -- --  -- -- -- -- -- -- -- --
03F0:                             5B 42 80 C0 50 0F 01           [B..P..
0400: C0 50 0F 01 62 6F 70 30  00 00                    .P..bop0..      
```

#### Opcodes

```
  0: 0x03F9 [0x5B] LOAD_EXT_SCHEDULER: Load scheduler "bop0" with entities [Rakuru-Rakoru (ID: 17780928/0x010F50C0), Rakuru-Rakoru (ID: 17780928/0x010F50C0)], work=2611*
  1: 0x0408 [0x00] END_REQSTACK()
```

#### Data or dead code:

```
# Dead code (unreachable instructions):
     0x0409 [0x00] END_REQSTACK()
```

### Event 65535.47

#### Metadata

| Field        | Value    |
|--------------|----------|
| Entrypoint   | 0x040A   |
| Data Size    | 20 bytes |
| Instructions | 5        |

```
      00 01 02 03 04 05 06 07  08 09 0A 0B 0C 0D 0E 0F
      -- -- -- -- -- -- -- --  -- -- -- -- -- -- -- --
0400:                                59 04 25 50 0F 01            Y.%P..
0410: 43 80 1F 00 1B 80 1C 80  13 80 1F 01 6F 00        C...........o.  
```

#### Opcodes

```
  0: 0x040A [0x59] UPDATE_ENTITY_DATA: Set Sutarara (ID: 17780773/0x010F5025) main speed = 13* * 0.1
  1: 0x0412 [0x1F] MOVE_ENTITY: EventEntity moves to X=-83.944*, Z=-128.625*, Y=0.000*
  2: 0x041A [0x1F] MOVE_ENTITY: Update entity position (mode=1)
  3: 0x041C [0x6F] WAIT_FRAME_DELAY: Yield until WaitTime reaches zero
  4: 0x041D [0x00] END_REQSTACK()
```

### Event 65535.48

#### Metadata

| Field        | Value    |
|--------------|----------|
| Entrypoint   | 0x041E   |
| Data Size    | 20 bytes |
| Instructions | 5        |

```
      00 01 02 03 04 05 06 07  08 09 0A 0B 0C 0D 0E 0F
      -- -- -- -- -- -- -- --  -- -- -- -- -- -- -- --
0410:                                            59 04                Y.
0420: 25 50 0F 01 43 80 1F 00  44 80 45 80 19 80 1F 01  %P..C...D.E.....
0430: 6F 00                                             o.              
```

#### Opcodes

```
  0: 0x041E [0x59] UPDATE_ENTITY_DATA: Set Sutarara (ID: 17780773/0x010F5025) main speed = 13* * 0.1
  1: 0x0426 [0x1F] MOVE_ENTITY: EventEntity moves to X=-64.287*, Z=-102.136*, Y=5.999*
  2: 0x042E [0x1F] MOVE_ENTITY: Update entity position (mode=1)
  3: 0x0430 [0x6F] WAIT_FRAME_DELAY: Yield until WaitTime reaches zero
  4: 0x0431 [0x00] END_REQSTACK()
```

### Event 65535.49

#### Metadata

| Field        | Value    |
|--------------|----------|
| Entrypoint   | 0x0432   |
| Data Size    | 20 bytes |
| Instructions | 5        |

```
      00 01 02 03 04 05 06 07  08 09 0A 0B 0C 0D 0E 0F
      -- -- -- -- -- -- -- --  -- -- -- -- -- -- -- --
0430:       59 04 25 50 0F 01  43 80 1F 00 46 80 47 80    Y.%P..C...F.G.
0440: 13 80 1F 01 6F 00                                 ....o.          
```

#### Opcodes

```
  0: 0x0432 [0x59] UPDATE_ENTITY_DATA: Set Sutarara (ID: 17780773/0x010F5025) main speed = 13* * 0.1
  1: 0x043A [0x1F] MOVE_ENTITY: EventEntity moves to X=4.236*, Z=4.336*, Y=0.000*
  2: 0x0442 [0x1F] MOVE_ENTITY: Update entity position (mode=1)
  3: 0x0444 [0x6F] WAIT_FRAME_DELAY: Yield until WaitTime reaches zero
  4: 0x0445 [0x00] END_REQSTACK()
```

### Event 65535.50

#### Metadata

| Field        | Value    |
|--------------|----------|
| Entrypoint   | 0x0446   |
| Data Size    | 20 bytes |
| Instructions | 5        |

```
      00 01 02 03 04 05 06 07  08 09 0A 0B 0C 0D 0E 0F
      -- -- -- -- -- -- -- --  -- -- -- -- -- -- -- --
0440:                   59 04  34 50 0F 01 10 80 1F 00        Y.4P......
0450: 48 80 49 80 4A 80 1F 01  6F 00                    H.I.J...o.      
```

#### Opcodes

```
  0: 0x0446 [0x59] UPDATE_ENTITY_DATA: Set Venika (ID: 17780788/0x010F5034) main speed = 12* * 0.1
  1: 0x044E [0x1F] MOVE_ENTITY: EventEntity moves to X=-15.376*, Z=-23.775*, Y=-0.101*
  2: 0x0456 [0x1F] MOVE_ENTITY: Update entity position (mode=1)
  3: 0x0458 [0x6F] WAIT_FRAME_DELAY: Yield until WaitTime reaches zero
  4: 0x0459 [0x00] END_REQSTACK()
```

### Event 65535.51

#### Metadata

| Field        | Value    |
|--------------|----------|
| Entrypoint   | 0x045A   |
| Data Size    | 20 bytes |
| Instructions | 5        |

```
      00 01 02 03 04 05 06 07  08 09 0A 0B 0C 0D 0E 0F
      -- -- -- -- -- -- -- --  -- -- -- -- -- -- -- --
0450:                                59 04 34 50 0F 01            Y.4P..
0460: 0A 80 1F 00 44 80 45 80  19 80 1F 01 6F 00        ....D.E.....o.  
```

#### Opcodes

```
  0: 0x045A [0x59] UPDATE_ENTITY_DATA: Set Venika (ID: 17780788/0x010F5034) main speed = 10* * 0.1
  1: 0x0462 [0x1F] MOVE_ENTITY: EventEntity moves to X=-64.287*, Z=-102.136*, Y=5.999*
  2: 0x046A [0x1F] MOVE_ENTITY: Update entity position (mode=1)
  3: 0x046C [0x6F] WAIT_FRAME_DELAY: Yield until WaitTime reaches zero
  4: 0x046D [0x00] END_REQSTACK()
```

### Event 65535.52

#### Metadata

| Field        | Value    |
|--------------|----------|
| Entrypoint   | 0x046E   |
| Data Size    | 16 bytes |
| Instructions | 2        |

```
      00 01 02 03 04 05 06 07  08 09 0A 0B 0C 0D 0E 0F
      -- -- -- -- -- -- -- --  -- -- -- -- -- -- -- --
0460:                                            5B 4B                [K
0470: 80 34 50 0F 01 34 50 0F  01 6F 70 62 30 00        .4P..4P..opb0.  
```

#### Opcodes

```
  0: 0x046E [0x5B] LOAD_EXT_SCHEDULER: Load scheduler "opb0" with entities [Venika (ID: 17780788/0x010F5034), Venika (ID: 17780788/0x010F5034)], work=2584*
  1: 0x047D [0x00] END_REQSTACK()
```

### Event 65535.53

#### Metadata

| Field        | Value    |
|--------------|----------|
| Entrypoint   | 0x047E   |
| Data Size    | 16 bytes |
| Instructions | 2        |

```
      00 01 02 03 04 05 06 07  08 09 0A 0B 0C 0D 0E 0F
      -- -- -- -- -- -- -- --  -- -- -- -- -- -- -- --
0470:                                            5B 4B                [K
0480: 80 34 50 0F 01 34 50 0F  01 6F 70 62 31 00        .4P..4P..opb1.  
```

#### Opcodes

```
  0: 0x047E [0x5B] LOAD_EXT_SCHEDULER: Load scheduler "opb1" with entities [Venika (ID: 17780788/0x010F5034), Venika (ID: 17780788/0x010F5034)], work=2584*
  1: 0x048D [0x00] END_REQSTACK()
```

### Event 65535.54

#### Metadata

| Field        | Value    |
|--------------|----------|
| Entrypoint   | 0x048E   |
| Data Size    | 20 bytes |
| Instructions | 5        |

```
      00 01 02 03 04 05 06 07  08 09 0A 0B 0C 0D 0E 0F
      -- -- -- -- -- -- -- --  -- -- -- -- -- -- -- --
0480:                                            59 04                Y.
0490: 34 50 0F 01 10 80 1F 00  4C 80 4D 80 13 80 1F 01  4P......L.M.....
04A0: 6F 00                                             o.              
```

#### Opcodes

```
  0: 0x048E [0x59] UPDATE_ENTITY_DATA: Set Venika (ID: 17780788/0x010F5034) main speed = 12* * 0.1
  1: 0x0496 [0x1F] MOVE_ENTITY: EventEntity moves to X=-0.991*, Z=2.123*, Y=0.000*
  2: 0x049E [0x1F] MOVE_ENTITY: Update entity position (mode=1)
  3: 0x04A0 [0x6F] WAIT_FRAME_DELAY: Yield until WaitTime reaches zero
  4: 0x04A1 [0x00] END_REQSTACK()
```

### Event 65535.55

#### Metadata

| Field        | Value    |
|--------------|----------|
| Entrypoint   | 0x04A2   |
| Data Size    | 16 bytes |
| Instructions | 2        |

```
      00 01 02 03 04 05 06 07  08 09 0A 0B 0C 0D 0E 0F
      -- -- -- -- -- -- -- --  -- -- -- -- -- -- -- --
04A0:       5B 4B 80 34 50 0F  01 34 50 0F 01 6F 70 63    [K.4P..4P..opc
04B0: 30 00                                             0.              
```

#### Opcodes

```
  0: 0x04A2 [0x5B] LOAD_EXT_SCHEDULER: Load scheduler "opc0" with entities [Venika (ID: 17780788/0x010F5034), Venika (ID: 17780788/0x010F5034)], work=2584*
  1: 0x04B1 [0x00] END_REQSTACK()
```

### Event 65535.56

#### Metadata

| Field        | Value    |
|--------------|----------|
| Entrypoint   | 0x04B2   |
| Data Size    | 16 bytes |
| Instructions | 2        |

```
      00 01 02 03 04 05 06 07  08 09 0A 0B 0C 0D 0E 0F
      -- -- -- -- -- -- -- --  -- -- -- -- -- -- -- --
04B0:       5B 4B 80 34 50 0F  01 34 50 0F 01 6F 70 63    [K.4P..4P..opc
04C0: 31 00                                             1.              
```

#### Opcodes

```
  0: 0x04B2 [0x5B] LOAD_EXT_SCHEDULER: Load scheduler "opc1" with entities [Venika (ID: 17780788/0x010F5034), Venika (ID: 17780788/0x010F5034)], work=2584*
  1: 0x04C1 [0x00] END_REQSTACK()
```

### Event 65535.57

#### Metadata

| Field        | Value    |
|--------------|----------|
| Entrypoint   | 0x04C2   |
| Data Size    | 16 bytes |
| Instructions | 2        |

```
      00 01 02 03 04 05 06 07  08 09 0A 0B 0C 0D 0E 0F
      -- -- -- -- -- -- -- --  -- -- -- -- -- -- -- --
04C0:       66 4E 80 36 50 0F  01 36 50 0F 01 61 77 77    fN.6P..6P..aww
04D0: 30 00                                             0.              
```

#### Opcodes

```
  0: 0x04C2 [0x66] LOAD_EXT_SCHEDULER_MAIN: Load scheduler "aww0" with entities [Kuah Dakonsa (ID: 17780790/0x010F5036), Kuah Dakonsa (ID: 17780790/0x010F5036)], work=8*
  1: 0x04D1 [0x00] END_REQSTACK()
```

### Event 65535.58

#### Metadata

| Field        | Value    |
|--------------|----------|
| Entrypoint   | 0x04D2   |
| Data Size    | 16 bytes |
| Instructions | 2        |

```
      00 01 02 03 04 05 06 07  08 09 0A 0B 0C 0D 0E 0F
      -- -- -- -- -- -- -- --  -- -- -- -- -- -- -- --
04D0:       66 4F 80 36 50 0F  01 36 50 0F 01 74 68 6B    fO.6P..6P..thk
04E0: 31 00                                             1.              
```

#### Opcodes

```
  0: 0x04D2 [0x66] LOAD_EXT_SCHEDULER_MAIN: Load scheduler "thk1" with entities [Kuah Dakonsa (ID: 17780790/0x010F5036), Kuah Dakonsa (ID: 17780790/0x010F5036)], work=51*
  1: 0x04E1 [0x00] END_REQSTACK()
```

### Event 65535.59

#### Metadata

| Field        | Value    |
|--------------|----------|
| Entrypoint   | 0x04E2   |
| Data Size    | 21 bytes |
| Instructions | 5        |

```
      00 01 02 03 04 05 06 07  08 09 0A 0B 0C 0D 0E 0F
      -- -- -- -- -- -- -- --  -- -- -- -- -- -- -- --
04E0:       59 04 32 50 0F 01  10 80 1F 00 50 80 51 80    Y.2P......P.Q.
04F0: 19 80 1F 01 6F 00 00                              ....o..         
```

#### Opcodes

```
  0: 0x04E2 [0x59] UPDATE_ENTITY_DATA: Set Gurdern (ID: 17780786/0x010F5032) main speed = 12* * 0.1
  1: 0x04EA [0x1F] MOVE_ENTITY: EventEntity moves to X=-61.958*, Z=-103.267*, Y=5.999*
  2: 0x04F2 [0x1F] MOVE_ENTITY: Update entity position (mode=1)
  3: 0x04F4 [0x6F] WAIT_FRAME_DELAY: Yield until WaitTime reaches zero
  4: 0x04F5 [0x00] END_REQSTACK()
```

#### Data or dead code:

```
# Dead code (unreachable instructions):
     0x04F6 [0x00] END_REQSTACK()
```

### Event 65535.60

#### Metadata

| Field        | Value    |
|--------------|----------|
| Entrypoint   | 0x04F7   |
| Data Size    | 20 bytes |
| Instructions | 5        |

```
      00 01 02 03 04 05 06 07  08 09 0A 0B 0C 0D 0E 0F
      -- -- -- -- -- -- -- --  -- -- -- -- -- -- -- --
04F0:                      59  04 32 50 0F 01 10 80 1F         Y.2P.....
0500: 00 52 80 53 80 19 80 1F  01 6F 00                 .R.S.....o.     
```

#### Opcodes

```
  0: 0x04F7 [0x59] UPDATE_ENTITY_DATA: Set Gurdern (ID: 17780786/0x010F5032) main speed = 12* * 0.1
  1: 0x04FF [0x1F] MOVE_ENTITY: EventEntity moves to X=-66.589*, Z=-92.299*, Y=5.999*
  2: 0x0507 [0x1F] MOVE_ENTITY: Update entity position (mode=1)
  3: 0x0509 [0x6F] WAIT_FRAME_DELAY: Yield until WaitTime reaches zero
  4: 0x050A [0x00] END_REQSTACK()
```

### Event 65535.61

#### Metadata

| Field        | Value    |
|--------------|----------|
| Entrypoint   | 0x050B   |
| Data Size    | 20 bytes |
| Instructions | 5        |

```
      00 01 02 03 04 05 06 07  08 09 0A 0B 0C 0D 0E 0F
      -- -- -- -- -- -- -- --  -- -- -- -- -- -- -- --
0500:                                   59 04 32 50 0F             Y.2P.
0510: 01 10 80 1F 00 54 80 55  80 19 80 1F 01 6F 00     .....T.U.....o. 
```

#### Opcodes

```
  0: 0x050B [0x59] UPDATE_ENTITY_DATA: Set Gurdern (ID: 17780786/0x010F5032) main speed = 12* * 0.1
  1: 0x0513 [0x1F] MOVE_ENTITY: EventEntity moves to X=-58.931*, Z=-86.942*, Y=5.999*
  2: 0x051B [0x1F] MOVE_ENTITY: Update entity position (mode=1)
  3: 0x051D [0x6F] WAIT_FRAME_DELAY: Yield until WaitTime reaches zero
  4: 0x051E [0x00] END_REQSTACK()
```

### Event 65535.62

#### Metadata

| Field        | Value    |
|--------------|----------|
| Entrypoint   | 0x051F   |
| Data Size    | 17 bytes |
| Instructions | 2        |

```
      00 01 02 03 04 05 06 07  08 09 0A 0B 0C 0D 0E 0F
      -- -- -- -- -- -- -- --  -- -- -- -- -- -- -- --
0510:                                               5B                 [
0520: 28 80 32 50 0F 01 32 50  0F 01 6F 70 30 30 00 00  (.2P..2P..op00..
```

#### Opcodes

```
  0: 0x051F [0x5B] LOAD_EXT_SCHEDULER: Load scheduler "op00" with entities [Gurdern (ID: 17780786/0x010F5032), Gurdern (ID: 17780786/0x010F5032)], work=2621*
  1: 0x052E [0x00] END_REQSTACK()
```

#### Data or dead code:

```
# Dead code (unreachable instructions):
     0x052F [0x00] END_REQSTACK()
```

### Event 65535.63

#### Metadata

| Field        | Value    |
|--------------|----------|
| Entrypoint   | 0x0530   |
| Data Size    | 20 bytes |
| Instructions | 5        |

```
      00 01 02 03 04 05 06 07  08 09 0A 0B 0C 0D 0E 0F
      -- -- -- -- -- -- -- --  -- -- -- -- -- -- -- --
0530: 59 04 1C 50 0F 01 14 80  1F 00 15 80 16 80 13 80  Y..P............
0540: 1F 01 6F 00                                       ..o.            
```

#### Opcodes

```
  0: 0x0530 [0x59] UPDATE_ENTITY_DATA: Set Mertaire (ID: 17780764/0x010F501C) main speed = 11* * 0.1
  1: 0x0538 [0x1F] MOVE_ENTITY: EventEntity moves to X=-95.337*, Z=-156.056*, Y=0.000*
  2: 0x0540 [0x1F] MOVE_ENTITY: Update entity position (mode=1)
  3: 0x0542 [0x6F] WAIT_FRAME_DELAY: Yield until WaitTime reaches zero
  4: 0x0543 [0x00] END_REQSTACK()
```

### Event 65535.64

#### Metadata

| Field        | Value    |
|--------------|----------|
| Entrypoint   | 0x0544   |
| Data Size    | 20 bytes |
| Instructions | 5        |

```
      00 01 02 03 04 05 06 07  08 09 0A 0B 0C 0D 0E 0F
      -- -- -- -- -- -- -- --  -- -- -- -- -- -- -- --
0540:             59 04 1C 50  0F 01 14 80 1F 00 56 80      Y..P......V.
0550: 57 80 58 80 1F 01 6F 00                           W.X...o.        
```

#### Opcodes

```
  0: 0x0544 [0x59] UPDATE_ENTITY_DATA: Set Mertaire (ID: 17780764/0x010F501C) main speed = 11* * 0.1
  1: 0x054C [0x1F] MOVE_ENTITY: EventEntity moves to X=-78.197*, Z=-116.328*, Y=3.999*
  2: 0x0554 [0x1F] MOVE_ENTITY: Update entity position (mode=1)
  3: 0x0556 [0x6F] WAIT_FRAME_DELAY: Yield until WaitTime reaches zero
  4: 0x0557 [0x00] END_REQSTACK()
```

### Event 65535.65

#### Metadata

| Field        | Value    |
|--------------|----------|
| Entrypoint   | 0x0558   |
| Data Size    | 16 bytes |
| Instructions | 2        |

```
      00 01 02 03 04 05 06 07  08 09 0A 0B 0C 0D 0E 0F
      -- -- -- -- -- -- -- --  -- -- -- -- -- -- -- --
0550:                          5B 59 80 1C 50 0F 01 1C          [Y..P...
0560: 50 0F 01 6F 70 63 30 00                           P..opc0.        
```

#### Opcodes

```
  0: 0x0558 [0x5B] LOAD_EXT_SCHEDULER: Load scheduler "opc0" with entities [Mertaire (ID: 17780764/0x010F501C), Mertaire (ID: 17780764/0x010F501C)], work=2583*
  1: 0x0567 [0x00] END_REQSTACK()
```

### Event 65535.66

#### Metadata

| Field        | Value    |
|--------------|----------|
| Entrypoint   | 0x0568   |
| Data Size    | 16 bytes |
| Instructions | 2        |

```
      00 01 02 03 04 05 06 07  08 09 0A 0B 0C 0D 0E 0F
      -- -- -- -- -- -- -- --  -- -- -- -- -- -- -- --
0560:                          5B 59 80 1C 50 0F 01 1C          [Y..P...
0570: 50 0F 01 6F 70 63 31 00                           P..opc1.        
```

#### Opcodes

```
  0: 0x0568 [0x5B] LOAD_EXT_SCHEDULER: Load scheduler "opc1" with entities [Mertaire (ID: 17780764/0x010F501C), Mertaire (ID: 17780764/0x010F501C)], work=2583*
  1: 0x0577 [0x00] END_REQSTACK()
```

### Event 65535.67

#### Metadata

| Field        | Value    |
|--------------|----------|
| Entrypoint   | 0x0578   |
| Data Size    | 21 bytes |
| Instructions | 5        |

```
      00 01 02 03 04 05 06 07  08 09 0A 0B 0C 0D 0E 0F
      -- -- -- -- -- -- -- --  -- -- -- -- -- -- -- --
0570:                          59 04 1C 50 0F 01 14 80          Y..P....
0580: 1F 00 5A 80 5B 80 13 80  1F 01 6F 00 00           ..Z.[.....o..   
```

#### Opcodes

```
  0: 0x0578 [0x59] UPDATE_ENTITY_DATA: Set Mertaire (ID: 17780764/0x010F501C) main speed = 11* * 0.1
  1: 0x0580 [0x1F] MOVE_ENTITY: EventEntity moves to X=-9.883*, Z=-9.826*, Y=0.000*
  2: 0x0588 [0x1F] MOVE_ENTITY: Update entity position (mode=1)
  3: 0x058A [0x6F] WAIT_FRAME_DELAY: Yield until WaitTime reaches zero
  4: 0x058B [0x00] END_REQSTACK()
```

#### Data or dead code:

```
# Dead code (unreachable instructions):
     0x058C [0x00] END_REQSTACK()
```

### Event 65535.68

#### Metadata

| Field        | Value    |
|--------------|----------|
| Entrypoint   | 0x058D   |
| Data Size    | 20 bytes |
| Instructions | 5        |

```
      00 01 02 03 04 05 06 07  08 09 0A 0B 0C 0D 0E 0F
      -- -- -- -- -- -- -- --  -- -- -- -- -- -- -- --
0580:                                         59 04 1E               Y..
0590: 50 0F 01 5C 80 1F 00 2D  80 2E 80 19 80 1F 01 6F  P..\...-.......o
05A0: 00                                                .               
```

#### Opcodes

```
  0: 0x058D [0x59] UPDATE_ENTITY_DATA: Set Bki Tbujhja (ID: 17780766/0x010F501E) main speed = 9* * 0.1
  1: 0x0595 [0x1F] MOVE_ENTITY: EventEntity moves to X=-74.699*, Z=-107.115*, Y=5.999*
  2: 0x059D [0x1F] MOVE_ENTITY: Update entity position (mode=1)
  3: 0x059F [0x6F] WAIT_FRAME_DELAY: Yield until WaitTime reaches zero
  4: 0x05A0 [0x00] END_REQSTACK()
```

### Event 65535.69

#### Metadata

| Field        | Value    |
|--------------|----------|
| Entrypoint   | 0x05A1   |
| Data Size    | 20 bytes |
| Instructions | 5        |

```
      00 01 02 03 04 05 06 07  08 09 0A 0B 0C 0D 0E 0F
      -- -- -- -- -- -- -- --  -- -- -- -- -- -- -- --
05A0:    59 04 1E 50 0F 01 14  80 1F 00 5D 80 5E 80 19   Y..P......].^..
05B0: 80 1F 01 6F 00                                    ...o.           
```

#### Opcodes

```
  0: 0x05A1 [0x59] UPDATE_ENTITY_DATA: Set Bki Tbujhja (ID: 17780766/0x010F501E) main speed = 11* * 0.1
  1: 0x05A9 [0x1F] MOVE_ENTITY: EventEntity moves to X=-72.052*, Z=-102.467*, Y=5.999*
  2: 0x05B1 [0x1F] MOVE_ENTITY: Update entity position (mode=1)
  3: 0x05B3 [0x6F] WAIT_FRAME_DELAY: Yield until WaitTime reaches zero
  4: 0x05B4 [0x00] END_REQSTACK()
```

### Event 65535.70

#### Metadata

| Field        | Value    |
|--------------|----------|
| Entrypoint   | 0x05B5   |
| Data Size    | 16 bytes |
| Instructions | 2        |

```
      00 01 02 03 04 05 06 07  08 09 0A 0B 0C 0D 0E 0F
      -- -- -- -- -- -- -- --  -- -- -- -- -- -- -- --
05B0:                66 4E 80  1E 50 0F 01 1E 50 0F 01       fN..P...P..
05C0: 61 77 77 30 00                                    aww0.           
```

#### Opcodes

```
  0: 0x05B5 [0x66] LOAD_EXT_SCHEDULER_MAIN: Load scheduler "aww0" with entities [Bki Tbujhja (ID: 17780766/0x010F501E), Bki Tbujhja (ID: 17780766/0x010F501E)], work=8*
  1: 0x05C4 [0x00] END_REQSTACK()
```

### Event 65535.71

#### Metadata

| Field        | Value    |
|--------------|----------|
| Entrypoint   | 0x05C5   |
| Data Size    | 20 bytes |
| Instructions | 5        |

```
      00 01 02 03 04 05 06 07  08 09 0A 0B 0C 0D 0E 0F
      -- -- -- -- -- -- -- --  -- -- -- -- -- -- -- --
05C0:                59 04 1E  50 0F 01 5C 80 1F 00 5F       Y..P..\..._
05D0: 80 60 80 13 80 1F 01 6F  00                       .`.....o.       
```

#### Opcodes

```
  0: 0x05C5 [0x59] UPDATE_ENTITY_DATA: Set Bki Tbujhja (ID: 17780766/0x010F501E) main speed = 9* * 0.1
  1: 0x05CD [0x1F] MOVE_ENTITY: EventEntity moves to X=-5.853*, Z=-5.190*, Y=0.000*
  2: 0x05D5 [0x1F] MOVE_ENTITY: Update entity position (mode=1)
  3: 0x05D7 [0x6F] WAIT_FRAME_DELAY: Yield until WaitTime reaches zero
  4: 0x05D8 [0x00] END_REQSTACK()
```

### Event 65535.72

#### Metadata

| Field        | Value    |
|--------------|----------|
| Entrypoint   | 0x05D9   |
| Data Size    | 21 bytes |
| Instructions | 5        |

```
      00 01 02 03 04 05 06 07  08 09 0A 0B 0C 0D 0E 0F
      -- -- -- -- -- -- -- --  -- -- -- -- -- -- -- --
05D0:                             59 04 1E 50 0F 01 14           Y..P...
05E0: 80 1F 00 54 80 55 80 19  80 1F 01 6F 00 00        ...T.U.....o..  
```

#### Opcodes

```
  0: 0x05D9 [0x59] UPDATE_ENTITY_DATA: Set Bki Tbujhja (ID: 17780766/0x010F501E) main speed = 11* * 0.1
  1: 0x05E1 [0x1F] MOVE_ENTITY: EventEntity moves to X=-58.931*, Z=-86.942*, Y=5.999*
  2: 0x05E9 [0x1F] MOVE_ENTITY: Update entity position (mode=1)
  3: 0x05EB [0x6F] WAIT_FRAME_DELAY: Yield until WaitTime reaches zero
  4: 0x05EC [0x00] END_REQSTACK()
```

#### Data or dead code:

```
# Dead code (unreachable instructions):
     0x05ED [0x00] END_REQSTACK()
```

### Event 65535.73

#### Metadata

| Field        | Value    |
|--------------|----------|
| Entrypoint   | 0x05EE   |
| Data Size    | 20 bytes |
| Instructions | 5        |

```
      00 01 02 03 04 05 06 07  08 09 0A 0B 0C 0D 0E 0F
      -- -- -- -- -- -- -- --  -- -- -- -- -- -- -- --
05E0:                                            59 04                Y.
05F0: 27 50 0F 01 10 80 1F 00  61 80 62 80 63 80 1F 01  'P......a.b.c...
0600: 6F 00                                             o.              
```

#### Opcodes

```
  0: 0x05EE [0x59] UPDATE_ENTITY_DATA: Set Danzhor (ID: 17780775/0x010F5027) main speed = 12* * 0.1
  1: 0x05F6 [0x1F] MOVE_ENTITY: EventEntity moves to X=-45.210*, Z=-89.196*, Y=-5.999*
  2: 0x05FE [0x1F] MOVE_ENTITY: Update entity position (mode=1)
  3: 0x0600 [0x6F] WAIT_FRAME_DELAY: Yield until WaitTime reaches zero
  4: 0x0601 [0x00] END_REQSTACK()
```

### Event 65535.74

#### Metadata

| Field        | Value    |
|--------------|----------|
| Entrypoint   | 0x0602   |
| Data Size    | 12 bytes |
| Instructions | 4        |

```
      00 01 02 03 04 05 06 07  08 09 0A 0B 0C 0D 0E 0F
      -- -- -- -- -- -- -- --  -- -- -- -- -- -- -- --
0600:       1F 00 64 80 65 80  13 80 1F 01 6F 00          ..d.e.....o.  
```

#### Opcodes

```
  0: 0x0602 [0x1F] MOVE_ENTITY: EventEntity moves to X=-18.343*, Z=-8.286*, Y=0.000*
  1: 0x060A [0x1F] MOVE_ENTITY: Update entity position (mode=1)
  2: 0x060C [0x6F] WAIT_FRAME_DELAY: Yield until WaitTime reaches zero
  3: 0x060D [0x00] END_REQSTACK()
```

### Event 65535.75

#### Metadata

| Field        | Value    |
|--------------|----------|
| Entrypoint   | 0x060E   |
| Data Size    | 16 bytes |
| Instructions | 2        |

```
      00 01 02 03 04 05 06 07  08 09 0A 0B 0C 0D 0E 0F
      -- -- -- -- -- -- -- --  -- -- -- -- -- -- -- --
0600:                                            66 25                f%
0610: 80 27 50 0F 01 27 50 0F  01 74 68 6B 31 00        .'P..'P..thk1.  
```

#### Opcodes

```
  0: 0x060E [0x66] LOAD_EXT_SCHEDULER_MAIN: Load scheduler "thk1" with entities [Danzhor (ID: 17780775/0x010F5027), Danzhor (ID: 17780775/0x010F5027)], work=69*
  1: 0x061D [0x00] END_REQSTACK()
```

### Event 65535.76

#### Metadata

| Field        | Value    |
|--------------|----------|
| Entrypoint   | 0x061E   |
| Data Size    | 16 bytes |
| Instructions | 2        |

```
      00 01 02 03 04 05 06 07  08 09 0A 0B 0C 0D 0E 0F
      -- -- -- -- -- -- -- --  -- -- -- -- -- -- -- --
0610:                                            66 25                f%
0620: 80 27 50 0F 01 27 50 0F  01 74 68 6B 32 00        .'P..'P..thk2.  
```

#### Opcodes

```
  0: 0x061E [0x66] LOAD_EXT_SCHEDULER_MAIN: Load scheduler "thk2" with entities [Danzhor (ID: 17780775/0x010F5027), Danzhor (ID: 17780775/0x010F5027)], work=69*
  1: 0x062D [0x00] END_REQSTACK()
```

### Event 65535.77

#### Metadata

| Field        | Value    |
|--------------|----------|
| Entrypoint   | 0x062E   |
| Data Size    | 20 bytes |
| Instructions | 5        |

```
      00 01 02 03 04 05 06 07  08 09 0A 0B 0C 0D 0E 0F
      -- -- -- -- -- -- -- --  -- -- -- -- -- -- -- --
0620:                                            59 04                Y.
0630: 27 50 0F 01 10 80 1F 00  66 80 67 80 13 80 1F 01  'P......f.g.....
0640: 6F 00                                             o.              
```

#### Opcodes

```
  0: 0x062E [0x59] UPDATE_ENTITY_DATA: Set Danzhor (ID: 17780775/0x010F5027) main speed = 12* * 0.1
  1: 0x0636 [0x1F] MOVE_ENTITY: EventEntity moves to X=-17.939*, Z=-16.579*, Y=0.000*
  2: 0x063E [0x1F] MOVE_ENTITY: Update entity position (mode=1)
  3: 0x0640 [0x6F] WAIT_FRAME_DELAY: Yield until WaitTime reaches zero
  4: 0x0641 [0x00] END_REQSTACK()
```

### Event 65535.78

#### Metadata

| Field        | Value    |
|--------------|----------|
| Entrypoint   | 0x0642   |
| Data Size    | 20 bytes |
| Instructions | 5        |

```
      00 01 02 03 04 05 06 07  08 09 0A 0B 0C 0D 0E 0F
      -- -- -- -- -- -- -- --  -- -- -- -- -- -- -- --
0640:       59 04 27 50 0F 01  10 80 1F 00 68 80 69 80    Y.'P......h.i.
0650: 13 80 1F 01 6F 00                                 ....o.          
```

#### Opcodes

```
  0: 0x0642 [0x59] UPDATE_ENTITY_DATA: Set Danzhor (ID: 17780775/0x010F5027) main speed = 12* * 0.1
  1: 0x064A [0x1F] MOVE_ENTITY: EventEntity moves to X=-3.065*, Z=-7.931*, Y=0.000*
  2: 0x0652 [0x1F] MOVE_ENTITY: Update entity position (mode=1)
  3: 0x0654 [0x6F] WAIT_FRAME_DELAY: Yield until WaitTime reaches zero
  4: 0x0655 [0x00] END_REQSTACK()
```

### Event 65535.79

#### Metadata

| Field        | Value    |
|--------------|----------|
| Entrypoint   | 0x0656   |
| Data Size    | 17 bytes |
| Instructions | 2        |

```
      00 01 02 03 04 05 06 07  08 09 0A 0B 0C 0D 0E 0F
      -- -- -- -- -- -- -- --  -- -- -- -- -- -- -- --
0650:                   66 3A  80 30 50 0F 01 30 50 0F        f:.0P..0P.
0660: 01 73 68 6B 30 00 00                              .shk0..         
```

#### Opcodes

```
  0: 0x0656 [0x66] LOAD_EXT_SCHEDULER_MAIN: Load scheduler "shk0" with entities [Kikilolo (ID: 17780784/0x010F5030), Kikilolo (ID: 17780784/0x010F5030)], work=41*
  1: 0x0665 [0x00] END_REQSTACK()
```

#### Data or dead code:

```
# Dead code (unreachable instructions):
     0x0666 [0x00] END_REQSTACK()
```

### Event 65535.80

#### Metadata

| Field        | Value    |
|--------------|----------|
| Entrypoint   | 0x0667   |
| Data Size    | 16 bytes |
| Instructions | 2        |

```
      00 01 02 03 04 05 06 07  08 09 0A 0B 0C 0D 0E 0F
      -- -- -- -- -- -- -- --  -- -- -- -- -- -- -- --
0660:                      5B  6A 80 39 50 0F 01 39 50         [j.9P..9P
0670: 0F 01 74 6C 6B 30 00                              ..tlk0.         
```

#### Opcodes

```
  0: 0x0667 [0x5B] LOAD_EXT_SCHEDULER: Load scheduler "tlk0" with entities [Momiji (ID: 17780793/0x010F5039), Momiji (ID: 17780793/0x010F5039)], work=60*
  1: 0x0676 [0x00] END_REQSTACK()
```

### Event 65535.81

#### Metadata

| Field        | Value    |
|--------------|----------|
| Entrypoint   | 0x0677   |
| Data Size    | 16 bytes |
| Instructions | 2        |

```
      00 01 02 03 04 05 06 07  08 09 0A 0B 0C 0D 0E 0F
      -- -- -- -- -- -- -- --  -- -- -- -- -- -- -- --
0670:                      5B  6A 80 39 50 0F 01 39 50         [j.9P..9P
0680: 0F 01 74 6C 6B 31 00                              ..tlk1.         
```

#### Opcodes

```
  0: 0x0677 [0x5B] LOAD_EXT_SCHEDULER: Load scheduler "tlk1" with entities [Momiji (ID: 17780793/0x010F5039), Momiji (ID: 17780793/0x010F5039)], work=60*
  1: 0x0686 [0x00] END_REQSTACK()
```

### Event 65535.82

#### Metadata

| Field        | Value    |
|--------------|----------|
| Entrypoint   | 0x0687   |
| Data Size    | 16 bytes |
| Instructions | 2        |

```
      00 01 02 03 04 05 06 07  08 09 0A 0B 0C 0D 0E 0F
      -- -- -- -- -- -- -- --  -- -- -- -- -- -- -- --
0680:                      5B  6A 80 39 50 0F 01 39 50         [j.9P..9P
0690: 0F 01 74 68 6B 31 00                              ..thk1.         
```

#### Opcodes

```
  0: 0x0687 [0x5B] LOAD_EXT_SCHEDULER: Load scheduler "thk1" with entities [Momiji (ID: 17780793/0x010F5039), Momiji (ID: 17780793/0x010F5039)], work=60*
  1: 0x0696 [0x00] END_REQSTACK()
```

### Event 65535.83

#### Metadata

| Field        | Value    |
|--------------|----------|
| Entrypoint   | 0x0697   |
| Data Size    | 16 bytes |
| Instructions | 2        |

```
      00 01 02 03 04 05 06 07  08 09 0A 0B 0C 0D 0E 0F
      -- -- -- -- -- -- -- --  -- -- -- -- -- -- -- --
0690:                      5B  6A 80 39 50 0F 01 39 50         [j.9P..9P
06A0: 0F 01 74 68 6B 32 00                              ..thk2.         
```

#### Opcodes

```
  0: 0x0697 [0x5B] LOAD_EXT_SCHEDULER: Load scheduler "thk2" with entities [Momiji (ID: 17780793/0x010F5039), Momiji (ID: 17780793/0x010F5039)], work=60*
  1: 0x06A6 [0x00] END_REQSTACK()
```

### Event 65535.84

#### Metadata

| Field        | Value    |
|--------------|----------|
| Entrypoint   | 0x06A7   |
| Data Size    | 17 bytes |
| Instructions | 2        |

```
      00 01 02 03 04 05 06 07  08 09 0A 0B 0C 0D 0E 0F
      -- -- -- -- -- -- -- --  -- -- -- -- -- -- -- --
06A0:                      5B  6B 80 39 50 0F 01 39 50         [k.9P..9P
06B0: 0F 01 65 6D 74 30 00 00                           ..emt0..        
```

#### Opcodes

```
  0: 0x06A7 [0x5B] LOAD_EXT_SCHEDULER: Load scheduler "emt0" with entities [Momiji (ID: 17780793/0x010F5039), Momiji (ID: 17780793/0x010F5039)], work=2624*
  1: 0x06B6 [0x00] END_REQSTACK()
```

#### Data or dead code:

```
# Dead code (unreachable instructions):
     0x06B7 [0x00] END_REQSTACK()
```

### Event 65535.85

#### Metadata

| Field        | Value    |
|--------------|----------|
| Entrypoint   | 0x06B8   |
| Data Size    | 20 bytes |
| Instructions | 5        |

```
      00 01 02 03 04 05 06 07  08 09 0A 0B 0C 0D 0E 0F
      -- -- -- -- -- -- -- --  -- -- -- -- -- -- -- --
06B0:                          59 04 3C 50 0F 01 43 80          Y.<P..C.
06C0: 1F 00 6C 80 6D 80 13 80  1F 01 6F 00              ..l.m.....o.    
```

#### Opcodes

```
  0: 0x06B8 [0x59] UPDATE_ENTITY_DATA: Set Mendi (ID: 17780796/0x010F503C) main speed = 13* * 0.1
  1: 0x06C0 [0x1F] MOVE_ENTITY: EventEntity moves to X=-38.371*, Z=-67.496*, Y=0.000*
  2: 0x06C8 [0x1F] MOVE_ENTITY: Update entity position (mode=1)
  3: 0x06CA [0x6F] WAIT_FRAME_DELAY: Yield until WaitTime reaches zero
  4: 0x06CB [0x00] END_REQSTACK()
```

### Event 65535.86

#### Metadata

| Field        | Value    |
|--------------|----------|
| Entrypoint   | 0x06CC   |
| Data Size    | 12 bytes |
| Instructions | 4        |

```
      00 01 02 03 04 05 06 07  08 09 0A 0B 0C 0D 0E 0F
      -- -- -- -- -- -- -- --  -- -- -- -- -- -- -- --
06C0:                                      1F 00 6E 80              ..n.
06D0: 6F 80 13 80 1F 01 6F 00                           o.....o.        
```

#### Opcodes

```
  0: 0x06CC [0x1F] MOVE_ENTITY: EventEntity moves to X=-5.565*, Z=-1.804*, Y=0.000*
  1: 0x06D4 [0x1F] MOVE_ENTITY: Update entity position (mode=1)
  2: 0x06D6 [0x6F] WAIT_FRAME_DELAY: Yield until WaitTime reaches zero
  3: 0x06D7 [0x00] END_REQSTACK()
```

### Event 65535.87

#### Metadata

| Field        | Value    |
|--------------|----------|
| Entrypoint   | 0x06D8   |
| Data Size    | 16 bytes |
| Instructions | 2        |

```
      00 01 02 03 04 05 06 07  08 09 0A 0B 0C 0D 0E 0F
      -- -- -- -- -- -- -- --  -- -- -- -- -- -- -- --
06D0:                          5B 59 80 3C 50 0F 01 3C          [Y.<P..<
06E0: 50 0F 01 6F 70 62 30 00                           P..opb0.        
```

#### Opcodes

```
  0: 0x06D8 [0x5B] LOAD_EXT_SCHEDULER: Load scheduler "opb0" with entities [Mendi (ID: 17780796/0x010F503C), Mendi (ID: 17780796/0x010F503C)], work=2583*
  1: 0x06E7 [0x00] END_REQSTACK()
```

### Event 65535.88

#### Metadata

| Field        | Value    |
|--------------|----------|
| Entrypoint   | 0x06E8   |
| Data Size    | 16 bytes |
| Instructions | 2        |

```
      00 01 02 03 04 05 06 07  08 09 0A 0B 0C 0D 0E 0F
      -- -- -- -- -- -- -- --  -- -- -- -- -- -- -- --
06E0:                          5B 59 80 3C 50 0F 01 3C          [Y.<P..<
06F0: 50 0F 01 6F 70 63 30 00                           P..opc0.        
```

#### Opcodes

```
  0: 0x06E8 [0x5B] LOAD_EXT_SCHEDULER: Load scheduler "opc0" with entities [Mendi (ID: 17780796/0x010F503C), Mendi (ID: 17780796/0x010F503C)], work=2583*
  1: 0x06F7 [0x00] END_REQSTACK()
```

### Event 65535.89

#### Metadata

| Field        | Value    |
|--------------|----------|
| Entrypoint   | 0x06F8   |
| Data Size    | 16 bytes |
| Instructions | 2        |

```
      00 01 02 03 04 05 06 07  08 09 0A 0B 0C 0D 0E 0F
      -- -- -- -- -- -- -- --  -- -- -- -- -- -- -- --
06F0:                          5B 59 80 3C 50 0F 01 3C          [Y.<P..<
0700: 50 0F 01 6F 70 63 31 00                           P..opc1.        
```

#### Opcodes

```
  0: 0x06F8 [0x5B] LOAD_EXT_SCHEDULER: Load scheduler "opc1" with entities [Mendi (ID: 17780796/0x010F503C), Mendi (ID: 17780796/0x010F503C)], work=2583*
  1: 0x0707 [0x00] END_REQSTACK()
```

### Event 65535.90

#### Metadata

| Field        | Value    |
|--------------|----------|
| Entrypoint   | 0x0708   |
| Data Size    | 16 bytes |
| Instructions | 2        |

```
      00 01 02 03 04 05 06 07  08 09 0A 0B 0C 0D 0E 0F
      -- -- -- -- -- -- -- --  -- -- -- -- -- -- -- --
0700:                          66 70 80 3C 50 0F 01 3C          fp.<P..<
0710: 50 0F 01 74 68 62 31 00                           P..thb1.        
```

#### Opcodes

```
  0: 0x0708 [0x66] LOAD_EXT_SCHEDULER_MAIN: Load scheduler "thb1" with entities [Mendi (ID: 17780796/0x010F503C), Mendi (ID: 17780796/0x010F503C)], work=2*
  1: 0x0717 [0x00] END_REQSTACK()
```

### Event 65535.91

#### Metadata

| Field        | Value    |
|--------------|----------|
| Entrypoint   | 0x0718   |
| Data Size    | 16 bytes |
| Instructions | 2        |

```
      00 01 02 03 04 05 06 07  08 09 0A 0B 0C 0D 0E 0F
      -- -- -- -- -- -- -- --  -- -- -- -- -- -- -- --
0710:                          66 70 80 3C 50 0F 01 3C          fp.<P..<
0720: 50 0F 01 74 68 62 32 00                           P..thb2.        
```

#### Opcodes

```
  0: 0x0718 [0x66] LOAD_EXT_SCHEDULER_MAIN: Load scheduler "thb2" with entities [Mendi (ID: 17780796/0x010F503C), Mendi (ID: 17780796/0x010F503C)], work=2*
  1: 0x0727 [0x00] END_REQSTACK()
```

### Event 65535.92

#### Metadata

| Field        | Value    |
|--------------|----------|
| Entrypoint   | 0x0728   |
| Data Size    | 16 bytes |
| Instructions | 2        |

```
      00 01 02 03 04 05 06 07  08 09 0A 0B 0C 0D 0E 0F
      -- -- -- -- -- -- -- --  -- -- -- -- -- -- -- --
0720:                          66 13 80 3C 50 0F 01 3C          f..<P..<
0730: 50 0F 01 74 68 6B 31 00                           P..thk1.        
```

#### Opcodes

```
  0: 0x0728 [0x66] LOAD_EXT_SCHEDULER_MAIN: Load scheduler "thk1" with entities [Mendi (ID: 17780796/0x010F503C), Mendi (ID: 17780796/0x010F503C)], work=0*
  1: 0x0737 [0x00] END_REQSTACK()
```

### Event 65535.93

#### Metadata

| Field        | Value    |
|--------------|----------|
| Entrypoint   | 0x0738   |
| Data Size    | 16 bytes |
| Instructions | 2        |

```
      00 01 02 03 04 05 06 07  08 09 0A 0B 0C 0D 0E 0F
      -- -- -- -- -- -- -- --  -- -- -- -- -- -- -- --
0730:                          66 13 80 3C 50 0F 01 3C          f..<P..<
0740: 50 0F 01 74 68 6B 32 00                           P..thk2.        
```

#### Opcodes

```
  0: 0x0738 [0x66] LOAD_EXT_SCHEDULER_MAIN: Load scheduler "thk2" with entities [Mendi (ID: 17780796/0x010F503C), Mendi (ID: 17780796/0x010F503C)], work=0*
  1: 0x0747 [0x00] END_REQSTACK()
```

### Event 65535.94

#### Metadata

| Field        | Value    |
|--------------|----------|
| Entrypoint   | 0x0748   |
| Data Size    | 20 bytes |
| Instructions | 5        |

```
      00 01 02 03 04 05 06 07  08 09 0A 0B 0C 0D 0E 0F
      -- -- -- -- -- -- -- --  -- -- -- -- -- -- -- --
0740:                          59 04 3C 50 0F 01 43 80          Y.<P..C.
0750: 1F 00 71 80 72 80 13 80  1F 01 6F 00              ..q.r.....o.    
```

#### Opcodes

```
  0: 0x0748 [0x59] UPDATE_ENTITY_DATA: Set Mendi (ID: 17780796/0x010F503C) main speed = 13* * 0.1
  1: 0x0750 [0x1F] MOVE_ENTITY: EventEntity moves to X=-2.765*, Z=5.059*, Y=0.000*
  2: 0x0758 [0x1F] MOVE_ENTITY: Update entity position (mode=1)
  3: 0x075A [0x6F] WAIT_FRAME_DELAY: Yield until WaitTime reaches zero
  4: 0x075B [0x00] END_REQSTACK()
```

### Event 65535.95

#### Metadata

| Field        | Value    |
|--------------|----------|
| Entrypoint   | 0x075C   |
| Data Size    | 20 bytes |
| Instructions | 5        |

```
      00 01 02 03 04 05 06 07  08 09 0A 0B 0C 0D 0E 0F
      -- -- -- -- -- -- -- --  -- -- -- -- -- -- -- --
0750:                                      59 04 3C 50              Y.<P
0760: 0F 01 43 80 1F 00 4C 80  4D 80 13 80 1F 01 6F 00  ..C...L.M.....o.
```

#### Opcodes

```
  0: 0x075C [0x59] UPDATE_ENTITY_DATA: Set Mendi (ID: 17780796/0x010F503C) main speed = 13* * 0.1
  1: 0x0764 [0x1F] MOVE_ENTITY: EventEntity moves to X=-0.991*, Z=2.123*, Y=0.000*
  2: 0x076C [0x1F] MOVE_ENTITY: Update entity position (mode=1)
  3: 0x076E [0x6F] WAIT_FRAME_DELAY: Yield until WaitTime reaches zero
  4: 0x076F [0x00] END_REQSTACK()
```

### Event 65535.96

#### Metadata

| Field        | Value    |
|--------------|----------|
| Entrypoint   | 0x0770   |
| Data Size    | 16 bytes |
| Instructions | 2        |

```
      00 01 02 03 04 05 06 07  08 09 0A 0B 0C 0D 0E 0F
      -- -- -- -- -- -- -- --  -- -- -- -- -- -- -- --
0770: 5B 59 80 3C 50 0F 01 3C  50 0F 01 6F 70 64 30 00  [Y.<P..<P..opd0.
```

#### Opcodes

```
  0: 0x0770 [0x5B] LOAD_EXT_SCHEDULER: Load scheduler "opd0" with entities [Mendi (ID: 17780796/0x010F503C), Mendi (ID: 17780796/0x010F503C)], work=2583*
  1: 0x077F [0x00] END_REQSTACK()
```

### Event 65535.97

#### Metadata

| Field        | Value    |
|--------------|----------|
| Entrypoint   | 0x0780   |
| Data Size    | 16 bytes |
| Instructions | 2        |

```
      00 01 02 03 04 05 06 07  08 09 0A 0B 0C 0D 0E 0F
      -- -- -- -- -- -- -- --  -- -- -- -- -- -- -- --
0780: 5B 59 80 3C 50 0F 01 3C  50 0F 01 6F 70 64 31 00  [Y.<P..<P..opd1.
```

#### Opcodes

```
  0: 0x0780 [0x5B] LOAD_EXT_SCHEDULER: Load scheduler "opd1" with entities [Mendi (ID: 17780796/0x010F503C), Mendi (ID: 17780796/0x010F503C)], work=2583*
  1: 0x078F [0x00] END_REQSTACK()
```
