# 17780928 - Rakuru-Rakoru

## Common Data

| Field            | Value                 |
|------------------|-----------------------|
| Zone             | Lower Jeuno (ID: 245) |
| Block Size       | 6856 bytes            |
| Total Events     | 105                   |
| References Count | 202                   |

## List of Events

| Event ID                   | Entrypoint   |   Size |   Instructions |
|----------------------------|--------------|--------|----------------|
| [65535](#event-65535)      | 0x0000       |      1 |              1 |
| [10078](#event-10078)      | 0x0001       |     34 |             12 |
| [10079](#event-10079)      | 0x0023       |   1279 |            187 |
| [10080](#event-10080)      | 0x0522       |    604 |            125 |
| [10081](#event-10081)      | 0x077E       |    540 |             90 |
| [10082](#event-10082)      | 0x099A       |   1142 |            139 |
| [10083](#event-10083)      | 0x0E10       |    307 |             75 |
| [10094](#event-10094)      | 0x0F43       |      5 |              3 |
| [65535.1](#event-655351)   | 0x0F48       |     20 |              5 |
| [65535.2](#event-655352)   | 0x0F5C       |     20 |              5 |
| [65535.3](#event-655353)   | 0x0F70       |     20 |              5 |
| [65535.4](#event-655354)   | 0x0F84       |     17 |              3 |
| [65535.5](#event-655355)   | 0x0F95       |     20 |              5 |
| [65535.6](#event-655356)   | 0x0FA9       |     20 |              5 |
| [65535.7](#event-655357)   | 0x0FBD       |     19 |              4 |
| [65535.8](#event-655358)   | 0x0FD0       |     19 |              4 |
| [65535.9](#event-655359)   | 0x0FE3       |     16 |              2 |
| [65535.10](#event-6553510) | 0x0FF3       |     16 |              2 |
| [65535.11](#event-6553511) | 0x1003       |     20 |              5 |
| [65535.12](#event-6553512) | 0x1017       |     16 |              2 |
| [65535.13](#event-6553513) | 0x1027       |     16 |              2 |
| [65535.14](#event-6553514) | 0x1037       |     16 |              2 |
| [65535.15](#event-6553515) | 0x1047       |     21 |              6 |
| [65535.16](#event-6553516) | 0x105C       |     16 |              2 |
| [65535.17](#event-6553517) | 0x106C       |     16 |              2 |
| [65535.18](#event-6553518) | 0x107C       |     20 |              5 |
| [65535.19](#event-6553519) | 0x1090       |     17 |              3 |
| [65535.20](#event-6553520) | 0x10A1       |     20 |              5 |
| [65535.21](#event-6553521) | 0x10B5       |     16 |              2 |
| [65535.22](#event-6553522) | 0x10C5       |     16 |              2 |
| [65535.23](#event-6553523) | 0x10D5       |     16 |              2 |
| [65535.24](#event-6553524) | 0x10E5       |     16 |              2 |
| [65535.25](#event-6553525) | 0x10F5       |     16 |              2 |
| [65535.26](#event-6553526) | 0x1105       |     16 |              2 |
| [65535.27](#event-6553527) | 0x1115       |     16 |              2 |
| [65535.28](#event-6553528) | 0x1125       |     12 |              4 |
| [65535.29](#event-6553529) | 0x1131       |     20 |              5 |
| [65535.30](#event-6553530) | 0x1145       |     17 |              3 |
| [65535.31](#event-6553531) | 0x1156       |     17 |              3 |
| [65535.32](#event-6553532) | 0x1167       |     16 |              2 |
| [65535.33](#event-6553533) | 0x1177       |     16 |              2 |
| [65535.34](#event-6553534) | 0x1187       |     16 |              2 |
| [65535.35](#event-6553535) | 0x1197       |     16 |              2 |
| [65535.36](#event-6553536) | 0x11A7       |     16 |              2 |
| [65535.37](#event-6553537) | 0x11B7       |     16 |              2 |
| [65535.38](#event-6553538) | 0x11C7       |     13 |              5 |
| [65535.39](#event-6553539) | 0x11D4       |     20 |              5 |
| [65535.40](#event-6553540) | 0x11E8       |     12 |              4 |
| [65535.41](#event-6553541) | 0x11F4       |     16 |              2 |
| [65535.42](#event-6553542) | 0x1204       |     16 |              2 |
| [65535.43](#event-6553543) | 0x1214       |     16 |              2 |
| [65535.44](#event-6553544) | 0x1224       |     20 |              5 |
| [65535.45](#event-6553545) | 0x1238       |     29 |              6 |
| [65535.46](#event-6553546) | 0x1255       |     17 |              3 |
| [65535.47](#event-6553547) | 0x1266       |     20 |              5 |
| [65535.48](#event-6553548) | 0x127A       |     20 |              5 |
| [65535.49](#event-6553549) | 0x128E       |     20 |              5 |
| [65535.50](#event-6553550) | 0x12A2       |     20 |              5 |
| [65535.51](#event-6553551) | 0x12B6       |     20 |              5 |
| [65535.52](#event-6553552) | 0x12CA       |     16 |              2 |
| [65535.53](#event-6553553) | 0x12DA       |     16 |              2 |
| [65535.54](#event-6553554) | 0x12EA       |     20 |              5 |
| [65535.55](#event-6553555) | 0x12FE       |     16 |              2 |
| [65535.56](#event-6553556) | 0x130E       |     16 |              2 |
| [65535.57](#event-6553557) | 0x131E       |     16 |              2 |
| [65535.58](#event-6553558) | 0x132E       |     16 |              2 |
| [65535.59](#event-6553559) | 0x133E       |     21 |              6 |
| [65535.60](#event-6553560) | 0x1353       |     20 |              5 |
| [65535.61](#event-6553561) | 0x1367       |     20 |              5 |
| [65535.62](#event-6553562) | 0x137B       |     17 |              3 |
| [65535.63](#event-6553563) | 0x138C       |     20 |              5 |
| [65535.64](#event-6553564) | 0x13A0       |     20 |              5 |
| [65535.65](#event-6553565) | 0x13B4       |     16 |              2 |
| [65535.66](#event-6553566) | 0x13C4       |     16 |              2 |
| [65535.67](#event-6553567) | 0x13D4       |     21 |              6 |
| [65535.68](#event-6553568) | 0x13E9       |     20 |              5 |
| [65535.69](#event-6553569) | 0x13FD       |     20 |              5 |
| [65535.70](#event-6553570) | 0x1411       |     16 |              2 |
| [65535.71](#event-6553571) | 0x1421       |     20 |              5 |
| [65535.72](#event-6553572) | 0x1435       |     21 |              6 |
| [65535.73](#event-6553573) | 0x144A       |     20 |              5 |
| [65535.74](#event-6553574) | 0x145E       |     12 |              4 |
| [65535.75](#event-6553575) | 0x146A       |     16 |              2 |
| [65535.76](#event-6553576) | 0x147A       |     16 |              2 |
| [65535.77](#event-6553577) | 0x148A       |     20 |              5 |
| [65535.78](#event-6553578) | 0x149E       |     20 |              5 |
| [65535.79](#event-6553579) | 0x14B2       |     17 |              3 |
| [65535.80](#event-6553580) | 0x14C3       |     16 |              2 |
| [65535.81](#event-6553581) | 0x14D3       |     16 |              2 |
| [65535.82](#event-6553582) | 0x14E3       |     16 |              2 |
| [65535.83](#event-6553583) | 0x14F3       |     16 |              2 |
| [65535.84](#event-6553584) | 0x1503       |     17 |              3 |
| [65535.85](#event-6553585) | 0x1514       |     20 |              5 |
| [65535.86](#event-6553586) | 0x1528       |     12 |              4 |
| [65535.87](#event-6553587) | 0x1534       |     16 |              2 |
| [65535.88](#event-6553588) | 0x1544       |     16 |              2 |
| [65535.89](#event-6553589) | 0x1554       |     16 |              2 |
| [65535.90](#event-6553590) | 0x1564       |     16 |              2 |
| [65535.91](#event-6553591) | 0x1574       |     16 |              2 |
| [65535.92](#event-6553592) | 0x1584       |     16 |              2 |
| [65535.93](#event-6553593) | 0x1594       |     16 |              2 |
| [65535.94](#event-6553594) | 0x15A4       |     20 |              5 |
| [65535.95](#event-6553595) | 0x15B8       |     20 |              5 |
| [65535.96](#event-6553596) | 0x15CC       |     16 |              2 |
| [65535.97](#event-6553597) | 0x15DC       |     16 |              2 |

## DAT References (imed_data)

|   Index | Hex Value   |   Dec Value |
|---------|-------------|-------------|
|       0 | 0x0006      |           6 |
|       1 | 0x1B95      |        7061 |
|       2 | 0x00C8      |         200 |
|       3 | 0x0000      |           0 |
|       4 | 0x003C      |          60 |
|       5 | 0x0013      |          19 |
|       6 | 0x0155      |         341 |
|       7 | 0x0078      |         120 |
|       8 | 0x0020      |          32 |
|       9 | 0x1B96      |        7062 |
|      10 | 0x000D      |          13 |
|      11 | 0x1B97      |        7063 |
|      12 | 0x0022      |          34 |
|      13 | 0x1B98      |        7064 |
|      14 | 0x1B99      |        7065 |
|      15 | 0x1B9A      |        7066 |
|      16 | 0x005A      |          90 |
|      17 | 0x000B      |          11 |
|      18 | 0x1B9C      |        7068 |
|      19 | 0x0028      |          40 |
|      20 | 0x1B9D      |        7069 |
|      21 | 0x1B9E      |        7070 |
|      22 | 0x1B9F      |        7071 |
|      23 | 0x1BA0      |        7072 |
|      24 | 0x03FD      |        1021 |
|      25 | 0x1BA1      |        7073 |
|      26 | 0x00F0      |         240 |
|      27 | 0x1BA2      |        7074 |
|      28 | 0x1BA3      |        7075 |
|      29 | 0x1BA4      |        7076 |
|      30 | 0x0018      |          24 |
|      31 | 0x1BA5      |        7077 |
|      32 | 0x1BA6      |        7078 |
|      33 | 0x1BA7      |        7079 |
|      34 | 0x1BA8      |        7080 |
|      35 | 0x1BAA      |        7082 |
|      36 | 0x1BAB      |        7083 |
|      37 | 0x1BAC      |        7084 |
|      38 | 0x1BC0      |        7104 |
|      39 | 0x0001      |           1 |
|      40 | 0x1BC1      |        7105 |
|      41 | 0x00B4      |         180 |
|      42 | 0x0036      |          54 |
|      43 | 0x0021      |          33 |
|      44 | 0x0035      |          53 |
|      45 | 0x1BA9      |        7081 |
|      46 | 0x1B9B      |        7067 |
|      47 | 0x1BAD      |        7085 |
|      48 | 0x1BAE      |        7086 |
|      49 | 0x1BAF      |        7087 |
|      50 | 0x0002      |           2 |
|      51 | 0x1BB0      |        7088 |
|      52 | 0x0003      |           3 |
|      53 | 0x1BB1      |        7089 |
|      54 | 0x0004      |           4 |
|      55 | 0x1BB2      |        7090 |
|      56 | 0x0005      |           5 |
|      57 | 0x1BB3      |        7091 |
|      58 | 0x1BB4      |        7092 |
|      59 | 0x0007      |           7 |
|      60 | 0x1BB5      |        7093 |
|      61 | 0x0008      |           8 |
|      62 | 0x1BB6      |        7094 |
|      63 | 0x0009      |           9 |
|      64 | 0x1BB7      |        7095 |
|      65 | 0x000A      |          10 |
|      66 | 0x1BB8      |        7096 |
|      67 | 0x1BB9      |        7097 |
|      68 | 0x000C      |          12 |
|      69 | 0x1BBA      |        7098 |
|      70 | 0x1BBB      |        7099 |
|      71 | 0x000E      |          14 |
|      72 | 0x1BBC      |        7100 |
|      73 | 0x000F      |          15 |
|      74 | 0x1BBD      |        7101 |
|      75 | 0x0010      |          16 |
|      76 | 0x1BBE      |        7102 |
|      77 | 0x1BBF      |        7103 |
|      78 | 0x1BC2      |        7106 |
|      79 | 0x1BC3      |        7107 |
|      80 | 0x1BC7      |        7111 |
|      81 | 0x1BC6      |        7110 |
|      82 | 0x0024      |          36 |
|      83 | 0x1BC5      |        7109 |
|      84 | 0x1BC4      |        7108 |
|      85 | 0x1BC8      |        7112 |
|      86 | 0x1BC9      |        7113 |
|      87 | 0x1BCA      |        7114 |
|      88 | 0x1BCB      |        7115 |
|      89 | 0x1BCC      |        7116 |
|      90 | 0x00C9      |         201 |
|      91 | 0x1BCD      |        7117 |
|      92 | 0x1BCE      |        7118 |
|      93 | 0x1BCF      |        7119 |
|      94 | 0x002A      |          42 |
|      95 | 0x1BD0      |        7120 |
|      96 | 0x0031      |          49 |
|      97 | 0x1BD1      |        7121 |
|      98 | 0x0015      |          21 |
|      99 | 0x001E      |          30 |
|     100 | 0x1BD2      |        7122 |
|     101 | 0x1BD4      |        7124 |
|     102 | 0x001D      |          29 |
|     103 | 0x1BD6      |        7126 |
|     104 | 0x0096      |         150 |
|     105 | 0xFFFFBC7F  |  4294950015 |
|     106 | 0x0680      |        1664 |
|     107 | 0xFFFFFE3F  |  4294966847 |
|     108 | 0x02FB      |         763 |
|     109 | 0x1BD7      |        7127 |
|     110 | 0x01A4      |         420 |
|     111 | 0x0037      |          55 |
|     112 | 0x0032      |          50 |
|     113 | 0x0033      |          51 |
|     114 | 0x0034      |          52 |
|     115 | 0xFFFED6C4  |  4294891204 |
|     116 | 0xFFFDEB5B  |  4294830939 |
|     117 | 0xFFFE8B97  |  4294871959 |
|     118 | 0xFFFD9E68  |  4294811240 |
|     119 | 0xFFFF0D87  |  4294905223 |
|     120 | 0xFFFEA0EF  |  4294877423 |
|     121 | 0x176F      |        5999 |
|     122 | 0x0A3A      |        2618 |
|     123 | 0xFFFEB818  |  4294883352 |
|     124 | 0xFFFE098F  |  4294838671 |
|     125 | 0xFFFEF410  |  4294898704 |
|     126 | 0xFFFE85B9  |  4294870457 |
|     127 | 0xFFFEEC91  |  4294896785 |
|     128 | 0xFFFE6EA2  |  4294864546 |
|     129 | 0x0A2A      |        2602 |
|     130 | 0xFFFEE552  |  4294894930 |
|     131 | 0xFFFE3269  |  4294849129 |
|     132 | 0x0A39      |        2617 |
|     133 | 0x0045      |          69 |
|     134 | 0xFFFF2160  |  4294910304 |
|     135 | 0xFFFEA80E  |  4294879246 |
|     136 | 0x0A3D      |        2621 |
|     137 | 0x0A43      |        2627 |
|     138 | 0x004B      |          75 |
|     139 | 0xFFFFB20E  |  4294947342 |
|     140 | 0xFFFFAE2A  |  4294946346 |
|     141 | 0xFFFEDC35  |  4294892597 |
|     142 | 0xFFFE5D95  |  4294860181 |
|     143 | 0x0A47      |        2631 |
|     144 | 0x0055      |          85 |
|     145 | 0xFFFFB26F  |  4294947439 |
|     146 | 0xFFFFAB30  |  4294945584 |
|     147 | 0xFFFF6C7D  |  4294929533 |
|     148 | 0xFFFF0AA4  |  4294904484 |
|     149 | 0xFFFFCBCA  |  4294953930 |
|     150 | 0x09E0      |        2528 |
|     151 | 0x0029      |          41 |
|     152 | 0xFFFEEA26  |  4294896166 |
|     153 | 0xFFFE4F39  |  4294856505 |
|     154 | 0xFFFED8EC  |  4294891756 |
|     155 | 0xFFFE38BF  |  4294850751 |
|     156 | 0xFFFEC5BC  |  4294886844 |
|     157 | 0xFFFE1640  |  4294841920 |
|     158 | 0x03E7      |         999 |
|     159 | 0x0A33      |        2611 |
|     160 | 0xFFFF04E1  |  4294903009 |
|     161 | 0xFFFE7108  |  4294865160 |
|     162 | 0x108C      |        4236 |
|     163 | 0x10F0      |        4336 |
|     164 | 0xFFFFC3F0  |  4294951920 |
|     165 | 0xFFFFA321  |  4294943521 |
|     166 | 0xFFFFFF9B  |  4294967195 |
|     167 | 0x0A18      |        2584 |
|     168 | 0xFFFFFC21  |  4294966305 |
|     169 | 0x084B      |        2123 |
|     170 | 0xFFFF0DFA  |  4294905338 |
|     171 | 0xFFFE6C9D  |  4294864029 |
|     172 | 0xFFFEFBE3  |  4294900707 |
|     173 | 0xFFFE9775  |  4294874997 |
|     174 | 0xFFFF19CD  |  4294908365 |
|     175 | 0xFFFEAC62  |  4294880354 |
|     176 | 0xFFFECE8B  |  4294889099 |
|     177 | 0xFFFE3998  |  4294850968 |
|     178 | 0x0F9F      |        3999 |
|     179 | 0x0A17      |        2583 |
|     180 | 0xFFFFD965  |  4294957413 |
|     181 | 0xFFFFD99E  |  4294957470 |
|     182 | 0xFFFEE68C  |  4294895244 |
|     183 | 0xFFFE6FBD  |  4294864829 |
|     184 | 0xFFFFE923  |  4294961443 |
|     185 | 0xFFFFEBBA  |  4294962106 |
|     186 | 0xFFFF4F66  |  4294922086 |
|     187 | 0xFFFEA394  |  4294878100 |
|     188 | 0xFFFFE891  |  4294961297 |
|     189 | 0xFFFFB859  |  4294948953 |
|     190 | 0xFFFFDFA2  |  4294959010 |
|     191 | 0xFFFFB9ED  |  4294949357 |
|     192 | 0xFFFFBF3D  |  4294950717 |
|     193 | 0xFFFFF407  |  4294964231 |
|     194 | 0xFFFFE105  |  4294959365 |
|     195 | 0x0A40      |        2624 |
|     196 | 0xFFFF6A1D  |  4294928925 |
|     197 | 0xFFFEF858  |  4294899800 |
|     198 | 0xFFFFEA43  |  4294961731 |
|     199 | 0xFFFFF8F4  |  4294965492 |
|     200 | 0xFFFFF533  |  4294964531 |
|     201 | 0x13C3      |        5059 |

## String References

- **7061**: And who might you be, eh? Hrmmm... You're a bit too green for my liking. Don'taru you have any really-weally strong adventurer friends you can introduce me to?
- **7062**: Boy oh boy, am I in trouble-wouble!
- **7063**: Ah! You over there! Yes, you, the one with the muscles! You look like an adventurer who's rough and ready-weady for anything.
- **7064**: I'm Rakuru-Rakoru, soon-to-be leading citizen of Windurst. I've got a proposal that you couldn't possibly resistaru!
- **7065**: Oh, it's you again... If you've changed your mind aboutaru listening to my proposal, I'll excuse your earlier display of rudeness.
- **7066**: What do you say? [Propose away!/I'm too busy.]
- **7067**: Great! Now, what I want you to do, is--what!? Hmph...then you can go and getaru ripped off at the auction house for all I care! Adventurers like you are a gil a gallon anyway. Hey wait, that didn't make sense...
- **7068**: Greataru! I knew you had promise!
- **7069**: Now, let me give you the low-down. I'm from the Orastery in Windurst. I've been entrusted to conduct research of such great importaru, it will determine the very future of Vana'diel! No jokey-woke!
- **7070**: To complete my research, I'm recruiting strong, reliable adventurers to venture outaru and gather data on my behalf.
- **7071**: What kind of data, you ask?
- **7072**: Hold on...justaru a second... This here, is...
- **7073**: The miraculous $3\`!
- **7074**: So, like I said, your role in my promotion exam--er...research, is to collect data.
- **7075**: All you have to do is go and clobber all of the monstarus whose names have been recorded onto the $3, or "Dale," as I like to call him.
- **7076**: Data of your encounter with each creature will be automatically recorded by Dale. So all that's leftaru to do is bring him back to me! Easy peasy, just like a strolly-woll through Windurst Waters!
- **7077**: With that data, fame and fortune will finally be...
- **7078**: Uh...I meantaru, peace and prosperity will be guaranteed for all of Vana'diel!
- **7079**: Of course, I'm not asking you to work for free. You'll be well rewarded aftaru completing the task. So, how about it?
- **7080**: What do you say? [Reward? Count me in!/Nah, it's not worth the effort.]
- **7081**: Excellent! I knew I could count on--what!? Hmph...then you can go and getaru thrown off a chocobo for all I care! A dozen adventurers like you aren't worth a single copper ingot anyway!
- **7082**: Excellent! Why don't we first take a look at the list of monstarus?
- **7083**: You can see the listy-wist of monstarus by examining Dale. The ones you've already defeated will have crosses after their names.
- **7084**: If you wantaru to know more about each of the creatures, just ask me, okay?
- **7085**: $26Dale's Monstaru List$26 [Close list./Tumbling Truffle [ /x]/Tottering Toby [ /x]/Blubbery Bulge [ /x]/Black Triple Stars [ /x]/Drooling Daisy [ /x]/Jolly Green [ /x]/Sharp-Eared Ropipi [ /x]/Buburimboo [ /x]/Daggerclaw Dracos [ /x]/Trickster Kinetix [ /x]/Ixtab [ /x]/Gargantua [ /x]/Shadow Eye [ /x]/Boreal Coeurl [ /x]/Boreal Hound [ /x]/Boreal Tiger [ /x]]
- **7086**: According to my research...
- **7087**: Tumbling Truffle is a creature from the funguar family. It's known to inhabitaru valley floors near the Crag of Holla, in the northeastern area of the La Theine Plateau.
- **7088**: Tottering Toby is a creature from the sapling family. It's been observed around Coveffe Barrows, in the Batallia Downs.
- **7089**: Blubbery Bulge is a creature from the slime family. It's been observed around the Disused Well in the southwestern region of Davoi.
- **7090**: Black Triple Stars is a creature from the bat family. It's a known inhabitant of Brutus's Field in the Rolanberry Fields.
- **7091**: Drooling Daisy is a creature from the morbol family. It's been observed near the Fountain of Partings in the Rolanberry Fields.
- **7092**: Jolly Green is a creature from the goobbue family. It's supposed to inhabitaru the Luremarsh area in the Pashhow Marshlands.
- **7093**: Sharp-Eared Ropipi is a creature from the rabbit family. It inhabits the southeastern region of East Sarutabaruta.
- **7094**: Buburimboo is a creature from the pugil family. It's a known inhabitant of the Mighoya Dunes in the Buburimu Peninsula.
- **7095**: Daggerclaw Dracos is a creature from the raptor family. It's been observed in the southeastern region of the Meriphataud Mountains.
- **7096**: Trickster Kinetix is a creature from the evil weapon family. It's been seen in the open area near Delkfutt's Tower on Qufim Island.
- **7097**: Ixtab is a creature from the ghost family. It supposedly dwells in one of the roomy-wooms inside Upper Delkfutt's Tower.
- **7098**: Gargantua is a creature from the golem family. It's a known inhabitant of the coastaru area in eastern Beaucedine Glacier.
- **7099**: Shadow Eye is a creature from the Ahriman family. It's been seen in western Xarcabard.
- **7100**: Boreal Coeurl is a creature from the coeurl family. It supposedly dwells inside a cavey-wave in the northeastern region of Xarcabard.
- **7101**: Boreal Hound is a creature from the hound family. It supposedly dwells inside a cavey-wave in the southwestern region of Xarcabard.
- **7102**: Boreal Tiger is a creature from the tiger family. It supposedly dwells inside a cavey-wave in the northern region of Xarcabard.
- **7103**: Is there anything else you wantaru to know about?
- **7104**: I'll let you hold on to Dale for the duration of your task. Bring him back here any time you want to check the listaru, okay?
- **7105**: Thank you for your cooperation!
- **7106**: Hey! How goes my promotion exam--uh...the collection of data?
- **7107**: May I see the $3? [Certainly./Nothing to see here.]
- **7108**: You still have a long way to go before I can getaru that promot--uh, before the people of Vana'diel can know true peace and prosperity. Yes, that's it...peace and prosperity!
- **7109**: Looks like you've made some progress. Keep up the good work, and my promot--uh, the land will be rid of the pesky monstarus for good!
- **7110**: Hey, the list shows you've taken care of quite a few monstarus! The thought of my promot--uh, a brighter future for the land drawing nearer makes my heart racey-wace! Yes it does!
- **7111**: Wowsers! My promotion is just around the corn--uh, what I meantaru to say is, data collection is almost over! Exciting times indeed!
- **7112**: And that's the latest report from Dale. Thank you for your continued cooperation!
- **7113**: <Gasp!> The...the data. It...it's finally complete!
- **7114**: I knew a sorry bunch of monstarus like that would be a cakewalk for a bruiser like you!
- **7115**: But, wow! I never thought passing the promotion exam could be this easy! I truly-wuly am a genius!
- **7116**: Now, let me prepare your reward for services rendered...
- **7117**: (Hohoho, a measly-weasly price to pay for passing the exam.)
- **7118**: (My promotion at the Orastery is guaranteed!)
- **7119**: (But why stop there? At this rate, joining the ranks of the Patriarchs doesn't even seem crazy-wazy anymore! Mwahahaha!)
- **7120**: Now, I justaru need to lock down the battle data...
- **7121**: Hrm? Doesn't seem to be working for some reason...
- **7122**: Uwaaah! It's...alive!?
- **7124**: (Th...that voice! It can't be!)
- **7126**: Uwaaaaaah!!!
- **7127**: M-my promotion...my dreamy-weam of becoming leading citizen...all gone... <Sniff, sob>

## Events

### Event 65535

#### Metadata

| Field        | Value   |
|--------------|---------|
| Entrypoint   | 0x0000  |
| Data Size    | 1 bytes |
| Instructions | 1       |

```
      00 01 02 03 04 05 06 07  08 09 0A 0B 0C 0D 0E 0F
      -- -- -- -- -- -- -- --  -- -- -- -- -- -- -- --
0000: 00                                                .               
```

#### Opcodes

```
  0: 0x0000 [0x00] END_REQSTACK()
```

### Event 10078

#### Metadata

| Field        | Value    |
|--------------|----------|
| Entrypoint   | 0x0001   |
| Data Size    | 34 bytes |
| Instructions | 12       |

```
      00 01 02 03 04 05 06 07  08 09 0A 0B 0C 0D 0E 0F
      -- -- -- -- -- -- -- --  -- -- -- -- -- -- -- --
0000:    20 01 1E F0 FF FF 7F  6F 70 6E C0 50 0F 01 00    ......opn.P...
0010: 80 99 C0 50 0F 01 1D 01  80 23 99 C0 50 0F 01 20  ...P.....#..P.. 
0020: 00 21 00                                          .!.             
```

#### Opcodes

```
  0: 0x0001 [0x20] SET_CLI_EVENT_UC_FLAG: Lock player control
  1: 0x0003 [0x1E] EventEntity looks at LocalPlayer and starts talking
  2: 0x0008 [0x6F] WAIT_FRAME_DELAY: Yield until WaitTime reaches zero
  3: 0x0009 [0x70] WAIT_ENTITY_RENDER_FLAG: Wait while EventEntity->Render.Flags3 bit 2 is set (cancel turn if not)
  4: 0x000A [0x6E] Rakuru-Rakoru (ID: 17780928/0x010F50C0) uses emote 6*
  5: 0x0011 [0x99] Wait for Rakuru-Rakoru (ID: 17780928/0x010F50C0) animation to complete
  6: 0x0016 [0x1D] PRINT_EVENT_MESSAGE(message_id=7061*)
    → "And who might you be, eh? Hrmmm... You're a bit too green for my liking. Don'taru you have any really-weally strong adventurer friends you can introduce me to?"
  7: 0x0019 [0x23] WAIT_FOR_DIALOG_INTERACTION
  8: 0x001A [0x99] Wait for Rakuru-Rakoru (ID: 17780928/0x010F50C0) animation to complete
  9: 0x001F [0x20] SET_CLI_EVENT_UC_FLAG: Unlock player control
 10: 0x0021 [0x21] END_EVENT
 11: 0x0022 [0x00] END_REQSTACK()
```

### Event 10079

#### Metadata

| Field        | Value      |
|--------------|------------|
| Entrypoint   | 0x0023     |
| Data Size    | 1279 bytes |
| Instructions | 187        |

```
      00 01 02 03 04 05 06 07  08 09 0A 0B 0C 0D 0E 0F
      -- -- -- -- -- -- -- --  -- -- -- -- -- -- -- --
0020:          42 20 01 46 01  45 02 80 F0 FF FF 7F F0     B .F.E.......
0030: FF FF 7F 66 64 6F 31 03  80 1C 04 80 38 05 80 80  ...fdo1.....8...
0040: F0 FF FF 7F 80 C0 50 0F  01 92 01 C0 50 0F 01 92  ......P.....P...
0050: 01 39 50 0F 01 92 01 8F  50 0F 01 92 01 38 50 0F  .9P.....P....8P.
0060: 01 29 0F F0 FF FF 7F 06  1E F0 FF FF 7F 6F 70 79  .)...........opy
0070: 00 F0 FF FF 7F C0 50 0F  01 45 06 80 F0 FF FF 7F  ......P..E......
0080: F0 FF FF 7F 6E 6D 30 31  03 80 45 02 80 F0 FF FF  ....nm01..E.....
0090: 7F F0 FF FF 7F 66 64 69  31 03 80 1C 04 80 1C 07  .....fdi1.......
00A0: 80 02 02 10 03 80 00 0B  01 6E C0 50 0F 01 08 80  .........n.P....
00B0: 99 C0 50 0F 01 1D 09 80  23 99 C0 50 0F 01 6E C0  ..P.....#..P..n.
00C0: 50 0F 01 0A 80 99 C0 50  0F 01 1D 0B 80 23 99 C0  P......P.....#..
00D0: 50 0F 01 55 06 80 F0 FF  FF 7F F0 FF FF 7F 6E 6D  P..U..........nm
00E0: 30 31 45 06 80 F0 FF FF  7F F0 FF FF 7F 6E 6D 30  01E..........nm0
00F0: 32 03 80 6E C0 50 0F 01  0C 80 99 C0 50 0F 01 1D  2..n.P......P...
0100: 0D 80 23 99 C0 50 0F 01  01 40 01 6E C0 50 0F 01  ..#..P...@.n.P..
0110: 08 80 99 C0 50 0F 01 1D  0E 80 23 99 C0 50 0F 01  ....P.....#..P..
0120: 55 06 80 F0 FF FF 7F F0  FF FF 7F 6E 6D 30 31 45  U..........nm01E
0130: 06 80 F0 FF FF 7F F0 FF  FF 7F 6E 6D 30 32 03 80  ..........nm02..
0140: 24 0F 80 03 80 03 80 25  02 00 10 03 80 00 B9 04  $......%........
0150: 29 0F F0 FF FF 7F 07 1C  10 80 6E C0 50 0F 01 11  ).........n.P...
0160: 80 99 C0 50 0F 01 1D 12  80 23 99 C0 50 0F 01 52  ...P.....#..P..R
0170: 06 80 F0 FF FF 7F F0 FF  FF 7F 6E 6D 30 32 66 13  ..........nm02f.
0180: 80 F8 FF FF 7F F8 FF FF  7F 74 6C 6B 30 45 06 80  .........tlk0E..
0190: F0 FF FF 7F F0 FF FF 7F  6E 6D 30 33 03 80 1D 14  ........nm03....
01A0: 80 23 1D 15 80 23 66 13  80 F8 FF FF 7F F8 FF FF  .#...#f.........
01B0: 7F 74 6C 6B 31 6E C0 50  0F 01 08 80 99 C0 50 0F  .tlk1n.P......P.
01C0: 01 1D 16 80 23 99 C0 50  0F 01 55 06 80 F0 FF FF  ....#..P..U.....
01D0: 7F F0 FF FF 7F 6E 6D 30  33 66 13 80 F8 FF FF 7F  .....nm03f......
01E0: F8 FF FF 7F 70 61 73 30  1D 17 80 23 1C 04 80 29  ....pas0...#...)
01F0: 0F C1 50 0F 01 01 45 06  80 F0 FF FF 7F F0 FF FF  ..P...E.........
0200: 7F 6E 6D 30 36 03 80 45  06 80 F0 FF FF 7F F0 FF  .nm06..E........
0210: FF 7F 6C 76 75 70 03 80  03 02 10 18 80 1D 19 80  ..lvup..........
0220: 1C 1A 80 52 06 80 F0 FF  FF 7F F0 FF FF 7F 6E 6D  ...R..........nm
0230: 30 36 45 06 80 F0 FF FF  7F F0 FF FF 7F 6E 6D 30  06E..........nm0
0240: 35 03 80 66 13 80 F8 FF  FF 7F F8 FF FF 7F 74 6C  5..f..........tl
0250: 6B 30 1D 1B 80 23 1D 1C  80 23 1D 1D 80 23 66 13  k0...#...#...#f.
0260: 80 F8 FF FF 7F F8 FF FF  7F 74 6C 6B 31 45 02 80  .........tlk1E..
0270: F0 FF FF 7F F0 FF FF 7F  66 64 6F 31 03 80 1C 04  ........fdo1....
0280: 80 29 0F C1 50 0F 01 02  52 06 80 F0 FF FF 7F F0  .)..P...R.......
0290: FF FF 7F 6E 6D 30 35 45  06 80 F0 FF FF 7F F0 FF  ...nm05E........
02A0: FF 7F 6E 6D 30 33 03 80  45 02 80 F0 FF FF 7F F0  ..nm03..E.......
02B0: FF FF 7F 66 64 69 31 03  80 1C 04 80 6E C0 50 0F  ...fdi1.....n.P.
02C0: 01 1E 80 99 C0 50 0F 01  1D 1F 80 23 99 C0 50 0F  .....P.....#..P.
02D0: 01 6E C0 50 0F 01 00 80  99 C0 50 0F 01 1D 20 80  .n.P......P... .
02E0: 23 99 C0 50 0F 01 52 06  80 F0 FF FF 7F F0 FF FF  #..P..R.........
02F0: 7F 6E 6D 30 33 45 06 80  F0 FF FF 7F F0 FF FF 7F  .nm03E..........
0300: 6E 6D 30 32 03 80 66 13  80 F8 FF FF 7F F8 FF FF  nm02..f.........
0310: 7F 74 6C 6B 30 1D 21 80  23 66 13 80 F8 FF FF 7F  .tlk0.!.#f......
0320: F8 FF FF 7F 74 6C 6B 31  24 22 80 03 80 03 80 25  ....tlk1$".....%
0330: 02 00 10 03 80 00 78 04  29 0F F0 FF FF 7F 07 1C  ......x.).......
0340: 10 80 52 06 80 F0 FF FF  7F F0 FF FF 7F 6E 6D 30  ..R..........nm0
0350: 32 45 06 80 F0 FF FF 7F  F0 FF FF 7F 6E 6D 30 33  2E..........nm03
0360: 03 80 66 13 80 F8 FF FF  7F F8 FF FF 7F 70 61 73  ..f..........pas
0370: 30 1D 23 80 23 1C 04 80  45 02 80 F0 FF FF 7F F0  0.#.#...E.......
0380: FF FF 7F 66 64 6F 31 03  80 1C 04 80 52 06 80 F0  ...fdo1.....R...
0390: FF FF 7F F0 FF FF 7F 6E  6D 30 33 29 0F C1 50 0F  .......nm03)..P.
03A0: 01 01 45 06 80 F0 FF FF  7F F0 FF FF 7F 6E 6D 30  ..E..........nm0
03B0: 34 03 80 1C 04 80 45 02  80 F0 FF FF 7F F0 FF FF  4.....E.........
03C0: 7F 66 64 69 31 03 80 66  13 80 F8 FF FF 7F F8 FF  .fdi1..f........
03D0: FF 7F 74 6C 6B 30 1D 24  80 23 1D 25 80 23 66 13  ..tlk0.$.#.%.#f.
03E0: 80 F8 FF FF 7F F8 FF FF  7F 74 6C 6B 31 29 0F C0  .........tlk1)..
03F0: 50 0F 01 03 45 02 80 F0  FF FF 7F F0 FF FF 7F 66  P...E..........f
0400: 64 6F 31 03 80 1C 04 80  29 0F C1 50 0F 01 02 52  do1.....)..P...R
0410: 06 80 F0 FF FF 7F F0 FF  FF 7F 6E 6D 30 34 45 06  ..........nm04E.
0420: 80 F0 FF FF 7F F0 FF FF  7F 6E 6D 30 32 03 80 45  .........nm02..E
0430: 02 80 F0 FF FF 7F F0 FF  FF 7F 66 64 69 31 03 80  ..........fdi1..
0440: 1C 04 80 1D 26 80 23 66  13 80 F8 FF FF 7F F8 FF  ....&.#f........
0450: FF 7F 70 61 73 30 1C 10  80 6E C0 50 0F 01 27 80  ..pas0...n.P..'.
0460: 99 C0 50 0F 01 1D 28 80  1C 29 80 99 C0 50 0F 01  ..P...(..)...P..
0470: 03 01 10 2A 80 01 B6 04  02 00 10 27 80 00 B6 04  ...*.......'....
0480: 29 0F F0 FF FF 7F 08 1C  10 80 6E C0 50 0F 01 2B  ).........n.P..+
0490: 80 99 C0 50 0F 01 03 01  10 2C 80 1D 2D 80 23 99  ...P.....,..-.#.
04A0: C0 50 0F 01 55 06 80 F0  FF FF 7F F0 FF FF 7F 6E  .P..U..........n
04B0: 6D 30 32 01 B6 04 01 F7  04 02 00 10 27 80 00 F7  m02.........'...
04C0: 04 29 0F F0 FF FF 7F 08  1C 10 80 6E C0 50 0F 01  .).........n.P..
04D0: 2B 80 99 C0 50 0F 01 03  01 10 2C 80 1D 2E 80 23  +...P.....,....#
04E0: 99 C0 50 0F 01 55 06 80  F0 FF FF 7F F0 FF FF 7F  ..P..U..........
04F0: 6E 6D 30 32 01 F7 04 45  02 80 F0 FF FF 7F F0 FF  nm02...E........
0500: FF 7F 66 64 6F 31 03 80  1C 04 80 46 00 45 02 80  ..fdo1.....F.E..
0510: F0 FF FF 7F F0 FF FF 7F  66 64 69 31 03 80 20 00  ........fdi1.. .
0520: 21 00                                             !.              
```

#### Opcodes

```
  0: 0x0023 [0x42] SET_CLI_EVENT_CANCEL_DATA()
  1: 0x0024 [0x20] SET_CLI_EVENT_UC_FLAG: Lock player control
  2: 0x0026 [0x46] CAMERA_CONTROL: Disable user control
  3: 0x0028 [0x45] LOAD_SCHEDULED_TASK: Load scheduler "fdo1" with entities [LocalPlayer, LocalPlayer], work=[200*, 0*]
  4: 0x0039 [0x1C] WAIT(60* ticks)
  5: 0x003C [0x38] SET_CLIENT_EVENT_MODE(mode=19*)
  6: 0x003F [0x80] LOAD_WAIT(entity=LocalPlayer)
  7: 0x0044 [0x80] LOAD_WAIT(entity=Rakuru-Rakoru (ID: 17780928/0x010F50C0))
  8: 0x0049 [0x92] Rakuru-Rakoru (ID: 17780928/0x010F50C0)->Render.Flags3 ^= 0x01
  9: 0x004F [0x92] Momiji (ID: 17780793/0x010F5039)->Render.Flags3 ^= 0x01
 10: 0x0055 [0x92] Zauko (ID: 17780879/0x010F508F)->Render.Flags3 ^= 0x01
 11: 0x005B [0x92] Honorine (ID: 17780792/0x010F5038)->Render.Flags3 ^= 0x01
 12: 0x0061 [0x29] REQ_SET_WAIT(priority=0x0F, entity_id=LocalPlayer, tag_num=0x06)
 13: 0x0068 [0x1E] EventEntity looks at LocalPlayer and starts talking
 14: 0x006D [0x6F] WAIT_FRAME_DELAY: Yield until WaitTime reaches zero
 15: 0x006E [0x70] WAIT_ENTITY_RENDER_FLAG: Wait while EventEntity->Render.Flags3 bit 2 is set (cancel turn if not)
 16: 0x006F [0x79] LocalPlayer looks at Rakuru-Rakoru (ID: 17780928/0x010F50C0) (Basic look)
 17: 0x0079 [0x45] LOAD_SCHEDULED_TASK: Load scheduler "nm01" with entities [LocalPlayer, LocalPlayer], work=[341*, 0*]
 18: 0x008A [0x45] LOAD_SCHEDULED_TASK: Load scheduler "fdi1" with entities [LocalPlayer, LocalPlayer], work=[200*, 0*]
 19: 0x009B [0x1C] WAIT(60* ticks)
 20: 0x009E [0x1C] WAIT(120* ticks)
 21: 0x00A1 [0x02] IF !(Work_Zone[2] == 0*) GOTO 0x010B
 22: 0x00A9 [0x6E] Rakuru-Rakoru (ID: 17780928/0x010F50C0) uses emote 32*
 23: 0x00B0 [0x99] Wait for Rakuru-Rakoru (ID: 17780928/0x010F50C0) animation to complete
 24: 0x00B5 [0x1D] PRINT_EVENT_MESSAGE(message_id=7062*)
    → "Boy oh boy, am I in trouble-wouble!"
 25: 0x00B8 [0x23] WAIT_FOR_DIALOG_INTERACTION
 26: 0x00B9 [0x99] Wait for Rakuru-Rakoru (ID: 17780928/0x010F50C0) animation to complete
 27: 0x00BE [0x6E] Rakuru-Rakoru (ID: 17780928/0x010F50C0) uses emote 13*
 28: 0x00C5 [0x99] Wait for Rakuru-Rakoru (ID: 17780928/0x010F50C0) animation to complete
 29: 0x00CA [0x1D] PRINT_EVENT_MESSAGE(message_id=7063*)
    → "Ah! You over there! Yes, you, the one with the muscles! You look like an adventurer who's rough and ready-weady for anything."
 30: 0x00CD [0x23] WAIT_FOR_DIALOG_INTERACTION
 31: 0x00CE [0x99] Wait for Rakuru-Rakoru (ID: 17780928/0x010F50C0) animation to complete
 32: 0x00D3 [0x55] WAIT_LOAD_SCHEDULER: Wait for scheduler "nm01" with entities [LocalPlayer, LocalPlayer], work=341*
 33: 0x00E2 [0x45] LOAD_SCHEDULED_TASK: Load scheduler "nm02" with entities [LocalPlayer, LocalPlayer], work=[341*, 0*]
 34: 0x00F3 [0x6E] Rakuru-Rakoru (ID: 17780928/0x010F50C0) uses emote 34*
 35: 0x00FA [0x99] Wait for Rakuru-Rakoru (ID: 17780928/0x010F50C0) animation to complete
 36: 0x00FF [0x1D] PRINT_EVENT_MESSAGE(message_id=7064*)
    → "I'm Rakuru-Rakoru, soon-to-be leading citizen of Windurst. I've got a proposal that you couldn't possibly resistaru!"
 37: 0x0102 [0x23] WAIT_FOR_DIALOG_INTERACTION
 38: 0x0103 [0x99] Wait for Rakuru-Rakoru (ID: 17780928/0x010F50C0) animation to complete
 39: 0x0108 [0x01] GOTO 0x0140
 40: 0x010B [0x6E] Rakuru-Rakoru (ID: 17780928/0x010F50C0) uses emote 32*
 41: 0x0112 [0x99] Wait for Rakuru-Rakoru (ID: 17780928/0x010F50C0) animation to complete
 42: 0x0117 [0x1D] PRINT_EVENT_MESSAGE(message_id=7065*)
    → "Oh, it's you again... If you've changed your mind aboutaru listening to my proposal, I'll excuse your earlier display of rudeness."
 43: 0x011A [0x23] WAIT_FOR_DIALOG_INTERACTION
 44: 0x011B [0x99] Wait for Rakuru-Rakoru (ID: 17780928/0x010F50C0) animation to complete
 45: 0x0120 [0x55] WAIT_LOAD_SCHEDULER: Wait for scheduler "nm01" with entities [LocalPlayer, LocalPlayer], work=341*
 46: 0x012F [0x45] LOAD_SCHEDULED_TASK: Load scheduler "nm02" with entities [LocalPlayer, LocalPlayer], work=[341*, 0*]

SUBROUTINE_0140:
 47: 0x0140 [0x24] CREATE_DIALOG(message_id=7066*, default_option=0*, option_flags=0*)
    → "What do you say? [Propose away!/I'm too busy.]"
 48: 0x0147 [0x25] WAIT_DIALOG_SELECT()
 49: 0x0148 [0x02] IF !(Work_Zone[0] == 0*) GOTO 0x04B9
 50: 0x0150 [0x29] REQ_SET_WAIT(priority=0x0F, entity_id=LocalPlayer, tag_num=0x07)
 51: 0x0157 [0x1C] WAIT(90* ticks)
 52: 0x015A [0x6E] Rakuru-Rakoru (ID: 17780928/0x010F50C0) uses emote 11*
 53: 0x0161 [0x99] Wait for Rakuru-Rakoru (ID: 17780928/0x010F50C0) animation to complete
 54: 0x0166 [0x1D] PRINT_EVENT_MESSAGE(message_id=7068*)
    → "Greataru! I knew you had promise!"
 55: 0x0169 [0x23] WAIT_FOR_DIALOG_INTERACTION
 56: 0x016A [0x99] Wait for Rakuru-Rakoru (ID: 17780928/0x010F50C0) animation to complete
 57: 0x016F [0x52] END_LOAD_SCHEDULER: End scheduler "nm02" with entities [LocalPlayer, LocalPlayer], work=341*
 58: 0x017E [0x66] LOAD_EXT_SCHEDULER_MAIN: Load scheduler "tlk0" with entities [EventEntity, EventEntity], work=40*
 59: 0x018D [0x45] LOAD_SCHEDULED_TASK: Load scheduler "nm03" with entities [LocalPlayer, LocalPlayer], work=[341*, 0*]
 60: 0x019E [0x1D] PRINT_EVENT_MESSAGE(message_id=7069*)
    → "Now, let me give you the low-down. I'm from the Orastery in Windurst. I've been entrusted to conduct research of such great importaru, it will determine the very future of Vana'diel! No jokey-woke!"
 61: 0x01A1 [0x23] WAIT_FOR_DIALOG_INTERACTION
 62: 0x01A2 [0x1D] PRINT_EVENT_MESSAGE(message_id=7070*)
    → "To complete my research, I'm recruiting strong, reliable adventurers to venture outaru and gather data on my behalf."
 63: 0x01A5 [0x23] WAIT_FOR_DIALOG_INTERACTION
 64: 0x01A6 [0x66] LOAD_EXT_SCHEDULER_MAIN: Load scheduler "tlk1" with entities [EventEntity, EventEntity], work=40*
 65: 0x01B5 [0x6E] Rakuru-Rakoru (ID: 17780928/0x010F50C0) uses emote 32*
 66: 0x01BC [0x99] Wait for Rakuru-Rakoru (ID: 17780928/0x010F50C0) animation to complete
 67: 0x01C1 [0x1D] PRINT_EVENT_MESSAGE(message_id=7071*)
    → "What kind of data, you ask?"
 68: 0x01C4 [0x23] WAIT_FOR_DIALOG_INTERACTION
 69: 0x01C5 [0x99] Wait for Rakuru-Rakoru (ID: 17780928/0x010F50C0) animation to complete
 70: 0x01CA [0x55] WAIT_LOAD_SCHEDULER: Wait for scheduler "nm03" with entities [LocalPlayer, LocalPlayer], work=341*
 71: 0x01D9 [0x66] LOAD_EXT_SCHEDULER_MAIN: Load scheduler "pas0" with entities [EventEntity, EventEntity], work=40*
 72: 0x01E8 [0x1D] PRINT_EVENT_MESSAGE(message_id=7072*)
    → "Hold on...justaru a second... This here, is..."
 73: 0x01EB [0x23] WAIT_FOR_DIALOG_INTERACTION
 74: 0x01EC [0x1C] WAIT(60* ticks)
 75: 0x01EF [0x29] REQ_SET_WAIT(priority=0x0F, entity_id=Talking Doll (ID: 17780929/0x010F50C1), tag_num=0x01)
 76: 0x01F6 [0x45] LOAD_SCHEDULED_TASK: Load scheduler "nm06" with entities [LocalPlayer, LocalPlayer], work=[341*, 0*]
 77: 0x0207 [0x45] LOAD_SCHEDULED_TASK: Load scheduler "lvup" with entities [LocalPlayer, LocalPlayer], work=[341*, 0*]
 78: 0x0218 [0x03] Work_Zone[2] = 1021*
 79: 0x021D [0x1D] PRINT_EVENT_MESSAGE(message_id=7073*)
    → "The miraculous $3`!"
 80: 0x0220 [0x1C] WAIT(240* ticks)
 81: 0x0223 [0x52] END_LOAD_SCHEDULER: End scheduler "nm06" with entities [LocalPlayer, LocalPlayer], work=341*
 82: 0x0232 [0x45] LOAD_SCHEDULED_TASK: Load scheduler "nm05" with entities [LocalPlayer, LocalPlayer], work=[341*, 0*]
 83: 0x0243 [0x66] LOAD_EXT_SCHEDULER_MAIN: Load scheduler "tlk0" with entities [EventEntity, EventEntity], work=40*
 84: 0x0252 [0x1D] PRINT_EVENT_MESSAGE(message_id=7074*)
    → "So, like I said, your role in my promotion exam--er...research, is to collect data."
 85: 0x0255 [0x23] WAIT_FOR_DIALOG_INTERACTION
 86: 0x0256 [0x1D] PRINT_EVENT_MESSAGE(message_id=7075*)
    → "All you have to do is go and clobber all of the monstarus whose names have been recorded onto the $3, or "Dale," as I like to call him."
 87: 0x0259 [0x23] WAIT_FOR_DIALOG_INTERACTION
 88: 0x025A [0x1D] PRINT_EVENT_MESSAGE(message_id=7076*)
    → "Data of your encounter with each creature will be automatically recorded by Dale. So all that's leftaru to do is bring him back to me! Easy peasy, just like a strolly-woll through Windurst Waters!"
 89: 0x025D [0x23] WAIT_FOR_DIALOG_INTERACTION
 90: 0x025E [0x66] LOAD_EXT_SCHEDULER_MAIN: Load scheduler "tlk1" with entities [EventEntity, EventEntity], work=40*
 91: 0x026D [0x45] LOAD_SCHEDULED_TASK: Load scheduler "fdo1" with entities [LocalPlayer, LocalPlayer], work=[200*, 0*]
 92: 0x027E [0x1C] WAIT(60* ticks)
 93: 0x0281 [0x29] REQ_SET_WAIT(priority=0x0F, entity_id=Talking Doll (ID: 17780929/0x010F50C1), tag_num=0x02)
 94: 0x0288 [0x52] END_LOAD_SCHEDULER: End scheduler "nm05" with entities [LocalPlayer, LocalPlayer], work=341*
 95: 0x0297 [0x45] LOAD_SCHEDULED_TASK: Load scheduler "nm03" with entities [LocalPlayer, LocalPlayer], work=[341*, 0*]
 96: 0x02A8 [0x45] LOAD_SCHEDULED_TASK: Load scheduler "fdi1" with entities [LocalPlayer, LocalPlayer], work=[200*, 0*]
 97: 0x02B9 [0x1C] WAIT(60* ticks)
 98: 0x02BC [0x6E] Rakuru-Rakoru (ID: 17780928/0x010F50C0) uses emote 24*
 99: 0x02C3 [0x99] Wait for Rakuru-Rakoru (ID: 17780928/0x010F50C0) animation to complete
100: 0x02C8 [0x1D] PRINT_EVENT_MESSAGE(message_id=7077*)
    → "With that data, fame and fortune will finally be..."
101: 0x02CB [0x23] WAIT_FOR_DIALOG_INTERACTION
102: 0x02CC [0x99] Wait for Rakuru-Rakoru (ID: 17780928/0x010F50C0) animation to complete
103: 0x02D1 [0x6E] Rakuru-Rakoru (ID: 17780928/0x010F50C0) uses emote 6*
104: 0x02D8 [0x99] Wait for Rakuru-Rakoru (ID: 17780928/0x010F50C0) animation to complete
105: 0x02DD [0x1D] PRINT_EVENT_MESSAGE(message_id=7078*)
    → "Uh...I meantaru, peace and prosperity will be guaranteed for all of Vana'diel!"
106: 0x02E0 [0x23] WAIT_FOR_DIALOG_INTERACTION
107: 0x02E1 [0x99] Wait for Rakuru-Rakoru (ID: 17780928/0x010F50C0) animation to complete
108: 0x02E6 [0x52] END_LOAD_SCHEDULER: End scheduler "nm03" with entities [LocalPlayer, LocalPlayer], work=341*
109: 0x02F5 [0x45] LOAD_SCHEDULED_TASK: Load scheduler "nm02" with entities [LocalPlayer, LocalPlayer], work=[341*, 0*]
110: 0x0306 [0x66] LOAD_EXT_SCHEDULER_MAIN: Load scheduler "tlk0" with entities [EventEntity, EventEntity], work=40*
111: 0x0315 [0x1D] PRINT_EVENT_MESSAGE(message_id=7079*)
    → "Of course, I'm not asking you to work for free. You'll be well rewarded aftaru completing the task. So, how about it?"
112: 0x0318 [0x23] WAIT_FOR_DIALOG_INTERACTION
113: 0x0319 [0x66] LOAD_EXT_SCHEDULER_MAIN: Load scheduler "tlk1" with entities [EventEntity, EventEntity], work=40*
114: 0x0328 [0x24] CREATE_DIALOG(message_id=7080*, default_option=0*, option_flags=0*)
    → "What do you say? [Reward? Count me in!/Nah, it's not worth the effort.]"
115: 0x032F [0x25] WAIT_DIALOG_SELECT()
116: 0x0330 [0x02] IF !(Work_Zone[0] == 0*) GOTO 0x0478
117: 0x0338 [0x29] REQ_SET_WAIT(priority=0x0F, entity_id=LocalPlayer, tag_num=0x07)
118: 0x033F [0x1C] WAIT(90* ticks)
119: 0x0342 [0x52] END_LOAD_SCHEDULER: End scheduler "nm02" with entities [LocalPlayer, LocalPlayer], work=341*
120: 0x0351 [0x45] LOAD_SCHEDULED_TASK: Load scheduler "nm03" with entities [LocalPlayer, LocalPlayer], work=[341*, 0*]
121: 0x0362 [0x66] LOAD_EXT_SCHEDULER_MAIN: Load scheduler "pas0" with entities [EventEntity, EventEntity], work=40*
122: 0x0371 [0x1D] PRINT_EVENT_MESSAGE(message_id=7082*)
    → "Excellent! Why don't we first take a look at the list of monstarus?"
123: 0x0374 [0x23] WAIT_FOR_DIALOG_INTERACTION
124: 0x0375 [0x1C] WAIT(60* ticks)
125: 0x0378 [0x45] LOAD_SCHEDULED_TASK: Load scheduler "fdo1" with entities [LocalPlayer, LocalPlayer], work=[200*, 0*]
126: 0x0389 [0x1C] WAIT(60* ticks)
127: 0x038C [0x52] END_LOAD_SCHEDULER: End scheduler "nm03" with entities [LocalPlayer, LocalPlayer], work=341*
128: 0x039B [0x29] REQ_SET_WAIT(priority=0x0F, entity_id=Talking Doll (ID: 17780929/0x010F50C1), tag_num=0x01)
129: 0x03A2 [0x45] LOAD_SCHEDULED_TASK: Load scheduler "nm04" with entities [LocalPlayer, LocalPlayer], work=[341*, 0*]
130: 0x03B3 [0x1C] WAIT(60* ticks)
131: 0x03B6 [0x45] LOAD_SCHEDULED_TASK: Load scheduler "fdi1" with entities [LocalPlayer, LocalPlayer], work=[200*, 0*]
132: 0x03C7 [0x66] LOAD_EXT_SCHEDULER_MAIN: Load scheduler "tlk0" with entities [EventEntity, EventEntity], work=40*
133: 0x03D6 [0x1D] PRINT_EVENT_MESSAGE(message_id=7083*)
    → "You can see the listy-wist of monstarus by examining Dale. The ones you've already defeated will have crosses after their names."
134: 0x03D9 [0x23] WAIT_FOR_DIALOG_INTERACTION
135: 0x03DA [0x1D] PRINT_EVENT_MESSAGE(message_id=7084*)
    → "If you wantaru to know more about each of the creatures, just ask me, okay?"
136: 0x03DD [0x23] WAIT_FOR_DIALOG_INTERACTION
137: 0x03DE [0x66] LOAD_EXT_SCHEDULER_MAIN: Load scheduler "tlk1" with entities [EventEntity, EventEntity], work=40*
138: 0x03ED [0x29] REQ_SET_WAIT(priority=0x0F, entity_id=Rakuru-Rakoru (ID: 17780928/0x010F50C0), tag_num=0x03)
139: 0x03F4 [0x45] LOAD_SCHEDULED_TASK: Load scheduler "fdo1" with entities [LocalPlayer, LocalPlayer], work=[200*, 0*]
140: 0x0405 [0x1C] WAIT(60* ticks)
141: 0x0408 [0x29] REQ_SET_WAIT(priority=0x0F, entity_id=Talking Doll (ID: 17780929/0x010F50C1), tag_num=0x02)
142: 0x040F [0x52] END_LOAD_SCHEDULER: End scheduler "nm04" with entities [LocalPlayer, LocalPlayer], work=341*
143: 0x041E [0x45] LOAD_SCHEDULED_TASK: Load scheduler "nm02" with entities [LocalPlayer, LocalPlayer], work=[341*, 0*]
144: 0x042F [0x45] LOAD_SCHEDULED_TASK: Load scheduler "fdi1" with entities [LocalPlayer, LocalPlayer], work=[200*, 0*]
145: 0x0440 [0x1C] WAIT(60* ticks)
146: 0x0443 [0x1D] PRINT_EVENT_MESSAGE(message_id=7104*)
    → "I'll let you hold on to Dale for the duration of your task. Bring him back here any time you want to check the listaru, okay?"
147: 0x0446 [0x23] WAIT_FOR_DIALOG_INTERACTION
148: 0x0447 [0x66] LOAD_EXT_SCHEDULER_MAIN: Load scheduler "pas0" with entities [EventEntity, EventEntity], work=40*
149: 0x0456 [0x1C] WAIT(90* ticks)
150: 0x0459 [0x6E] Rakuru-Rakoru (ID: 17780928/0x010F50C0) uses emote 1*
151: 0x0460 [0x99] Wait for Rakuru-Rakoru (ID: 17780928/0x010F50C0) animation to complete
152: 0x0465 [0x1D] PRINT_EVENT_MESSAGE(message_id=7105*)
    → "Thank you for your cooperation!"
153: 0x0468 [0x1C] WAIT(180* ticks)
154: 0x046B [0x99] Wait for Rakuru-Rakoru (ID: 17780928/0x010F50C0) animation to complete
155: 0x0470 [0x03] Work_Zone[1] = 54*
156: 0x0475 [0x01] GOTO 0x04B6
157: 0x0478 [0x02] IF !(Work_Zone[0] == 1*) GOTO 0x04B6
158: 0x0480 [0x29] REQ_SET_WAIT(priority=0x0F, entity_id=LocalPlayer, tag_num=0x08)
159: 0x0487 [0x1C] WAIT(90* ticks)
160: 0x048A [0x6E] Rakuru-Rakoru (ID: 17780928/0x010F50C0) uses emote 33*
161: 0x0491 [0x99] Wait for Rakuru-Rakoru (ID: 17780928/0x010F50C0) animation to complete
162: 0x0496 [0x03] Work_Zone[1] = 53*
163: 0x049B [0x1D] PRINT_EVENT_MESSAGE(message_id=7081*)
    → "Excellent! I knew I could count on--what!? Hmph...then you can go and getaru thrown off a chocobo for all I care! A dozen adventurers like you aren't worth a single copper ingot anyway!"
164: 0x049E [0x23] WAIT_FOR_DIALOG_INTERACTION
165: 0x049F [0x99] Wait for Rakuru-Rakoru (ID: 17780928/0x010F50C0) animation to complete
166: 0x04A4 [0x55] WAIT_LOAD_SCHEDULER: Wait for scheduler "nm02" with entities [LocalPlayer, LocalPlayer], work=341*
167: 0x04B3 [0x01] GOTO 0x04B6

SUBROUTINE_04B6:
168: 0x04B6 [0x01] GOTO 0x04F7
169: 0x04B9 [0x02] IF !(Work_Zone[0] == 1*) GOTO 0x04F7
170: 0x04C1 [0x29] REQ_SET_WAIT(priority=0x0F, entity_id=LocalPlayer, tag_num=0x08)
171: 0x04C8 [0x1C] WAIT(90* ticks)
172: 0x04CB [0x6E] Rakuru-Rakoru (ID: 17780928/0x010F50C0) uses emote 33*
173: 0x04D2 [0x99] Wait for Rakuru-Rakoru (ID: 17780928/0x010F50C0) animation to complete
174: 0x04D7 [0x03] Work_Zone[1] = 53*
175: 0x04DC [0x1D] PRINT_EVENT_MESSAGE(message_id=7067*)
    → "Great! Now, what I want you to do, is--what!? Hmph...then you can go and getaru ripped off at the auction house for all I care! Adventurers like you are a gil a gallon anyway. Hey wait, that didn't make sense..."
176: 0x04DF [0x23] WAIT_FOR_DIALOG_INTERACTION
177: 0x04E0 [0x99] Wait for Rakuru-Rakoru (ID: 17780928/0x010F50C0) animation to complete
178: 0x04E5 [0x55] WAIT_LOAD_SCHEDULER: Wait for scheduler "nm02" with entities [LocalPlayer, LocalPlayer], work=341*
179: 0x04F4 [0x01] GOTO 0x04F7

SUBROUTINE_04F7:
180: 0x04F7 [0x45] LOAD_SCHEDULED_TASK: Load scheduler "fdo1" with entities [LocalPlayer, LocalPlayer], work=[200*, 0*]
181: 0x0508 [0x1C] WAIT(60* ticks)
182: 0x050B [0x46] CAMERA_CONTROL: Restore default settings
183: 0x050D [0x45] LOAD_SCHEDULED_TASK: Load scheduler "fdi1" with entities [LocalPlayer, LocalPlayer], work=[200*, 0*]
184: 0x051E [0x20] SET_CLI_EVENT_UC_FLAG: Unlock player control
185: 0x0520 [0x21] END_EVENT
186: 0x0521 [0x00] END_REQSTACK()
```

### Event 10080

#### Metadata

| Field        | Value     |
|--------------|-----------|
| Entrypoint   | 0x0522    |
| Data Size    | 604 bytes |
| Instructions | 13        |

```
      00 01 02 03 04 05 06 07  08 09 0A 0B 0C 0D 0E 0F
      -- -- -- -- -- -- -- --  -- -- -- -- -- -- -- --
0520:       42 1A 34 0E 24 2F  80 03 80 03 80 25 02 00    B.4.$/.....%..
0530: 10 03 80 00 3A 05 00 01  56 07 02 00 10 27 80 00  ....:...V....'..
0540: 5C 05 66 13 80 F8 FF FF  7F F8 FF FF 7F 74 6C 6B  \.f..........tlk
0550: 30 1D 30 80 23 1D 31 80  23 01 56 07 02 00 10 32  0.0.#.1.#.V....2
0560: 80 00 7E 05 66 13 80 F8  FF FF 7F F8 FF FF 7F 74  ..~.f..........t
0570: 6C 6B 30 1D 30 80 23 1D  33 80 23 01 56 07 02 00  lk0.0.#.3.#.V...
0580: 10 34 80 00 A0 05 66 13  80 F8 FF FF 7F F8 FF FF  .4....f.........
0590: 7F 74 6C 6B 30 1D 30 80  23 1D 35 80 23 01 56 07  .tlk0.0.#.5.#.V.
05A0: 02 00 10 36 80 00 C2 05  66 13 80 F8 FF FF 7F F8  ...6....f.......
05B0: FF FF 7F 74 6C 6B 30 1D  30 80 23 1D 37 80 23 01  ...tlk0.0.#.7.#.
05C0: 56 07 02 00 10 38 80 00  E4 05 66 13 80 F8 FF FF  V....8....f.....
05D0: 7F F8 FF FF 7F 74 6C 6B  30 1D 30 80 23 1D 39 80  .....tlk0.0.#.9.
05E0: 23 01 56 07 02 00 10 00  80 00 06 06 66 13 80 F8  #.V.........f...
05F0: FF FF 7F F8 FF FF 7F 74  6C 6B 30 1D 30 80 23 1D  .......tlk0.0.#.
0600: 3A 80 23 01 56 07 02 00  10 3B 80 00 28 06 66 13  :.#.V....;..(.f.
0610: 80 F8 FF FF 7F F8 FF FF  7F 74 6C 6B 30 1D 30 80  .........tlk0.0.
0620: 23 1D 3C 80 23 01 56 07  02 00 10 3D 80 00 4A 06  #.<.#.V....=..J.
0630: 66 13 80 F8 FF FF 7F F8  FF FF 7F 74 6C 6B 30 1D  f..........tlk0.
0640: 30 80 23 1D 3E 80 23 01  56 07 02 00 10 3F 80 00  0.#.>.#.V....?..
0650: 6C 06 66 13 80 F8 FF FF  7F F8 FF FF 7F 74 6C 6B  l.f..........tlk
0660: 30 1D 30 80 23 1D 40 80  23 01 56 07 02 00 10 41  0.0.#.@.#.V....A
0670: 80 00 8E 06 66 13 80 F8  FF FF 7F F8 FF FF 7F 74  ....f..........t
0680: 6C 6B 30 1D 30 80 23 1D  42 80 23 01 56 07 02 00  lk0.0.#.B.#.V...
0690: 10 11 80 00 B0 06 66 13  80 F8 FF FF 7F F8 FF FF  ......f.........
06A0: 7F 74 6C 6B 30 1D 30 80  23 1D 43 80 23 01 56 07  .tlk0.0.#.C.#.V.
06B0: 02 00 10 44 80 00 D2 06  66 13 80 F8 FF FF 7F F8  ...D....f.......
06C0: FF FF 7F 74 6C 6B 30 1D  30 80 23 1D 45 80 23 01  ...tlk0.0.#.E.#.
06D0: 56 07 02 00 10 0A 80 00  F4 06 66 13 80 F8 FF FF  V.........f.....
06E0: 7F F8 FF FF 7F 74 6C 6B  30 1D 30 80 23 1D 46 80  .....tlk0.0.#.F.
06F0: 23 01 56 07 02 00 10 47  80 00 16 07 66 13 80 F8  #.V....G....f...
0700: FF FF 7F F8 FF FF 7F 74  6C 6B 30 1D 30 80 23 1D  .......tlk0.0.#.
0710: 48 80 23 01 56 07 02 00  10 49 80 00 34 07 66 13  H.#.V....I..4.f.
0720: 80 F8 FF FF 7F F8 FF FF  7F 74 6C 6B 30 1D 4A 80  .........tlk0.J.
0730: 23 01 56 07 02 00 10 4B  80 00 56 07 66 13 80 F8  #.V....K..V.f...
0740: FF FF 7F F8 FF FF 7F 74  6C 6B 30 1D 30 80 23 1D  .......tlk0.0.#.
0750: 4C 80 23 01 56 07 66 13  80 F8 FF FF 7F F8 FF FF  L.#.V.f.........
0760: 7F 74 6C 6B 31 6E C0 50  0F 01 08 80 99 C0 50 0F  .tlk1n.P......P.
0770: 01 1D 4D 80 23 99 C0 50  0F 01 01 26 05 00        ..M.#..P...&..  
```

#### Opcodes

```
  0: 0x0522 [0x42] SET_CLI_EVENT_CANCEL_DATA()
  1: 0x0523 [0x1A] CALL_SUBROUTINE(address=0x0E34)
  2: 0x0526 [0x24] CREATE_DIALOG(message_id=7085*, default_option=0*, option_flags=0*)
    → "$26Dale's Monstaru List$26 [Close list./Tumbling Truffle [ /x]/Tottering Toby [ /x]/Blubbery Bulge [ /x]/Black Triple Stars [ /x]/Drooling Daisy [ /x]/Jolly Green [ /x]/Sharp-Eared Ropipi [ /x]/Buburimboo [ /x]/Daggerclaw Dracos [ /x]/Trickster Kinetix [ /x]/Ixtab [ /x]/Gargantua [ /x]/Shadow Eye [ /x]/Boreal Coeurl [ /x]/Boreal Hound [ /x]/Boreal Tiger [ /x]]"
  3: 0x052D [0x25] WAIT_DIALOG_SELECT()
  4: 0x052E [0x02] IF !(Work_Zone[0] == 0*) GOTO 0x053A
  5: 0x0536 [0x00] END_REQSTACK()

SUBROUTINE_0756:
  6: 0x0756 [0x66] LOAD_EXT_SCHEDULER_MAIN: Load scheduler "tlk1" with entities [EventEntity, EventEntity], work=40*
  7: 0x0765 [0x6E] Rakuru-Rakoru (ID: 17780928/0x010F50C0) uses emote 32*
  8: 0x076C [0x99] Wait for Rakuru-Rakoru (ID: 17780928/0x010F50C0) animation to complete
  9: 0x0771 [0x1D] PRINT_EVENT_MESSAGE(message_id=7103*)
    → "Is there anything else you wantaru to know about?"
 10: 0x0774 [0x23] WAIT_FOR_DIALOG_INTERACTION
 11: 0x0775 [0x99] Wait for Rakuru-Rakoru (ID: 17780928/0x010F50C0) animation to complete
 12: 0x077A [0x01] GOTO 0x0526
```

#### Data or dead code:

```
# Dead code (unreachable instructions):
     0x0537 [0x01] GOTO 0x0756
# Dead code (unreachable instructions):
     0x077D [0x00] END_REQSTACK()
```

### Event 10081

#### Metadata

| Field        | Value     |
|--------------|-----------|
| Entrypoint   | 0x077E    |
| Data Size    | 540 bytes |
| Instructions | 55        |

```
      00 01 02 03 04 05 06 07  08 09 0A 0B 0C 0D 0E 0F
      -- -- -- -- -- -- -- --  -- -- -- -- -- -- -- --
0770:                                            20 01                 .
0780: 1E F0 FF FF 7F 6F 70 79  00 F0 FF FF 7F C0 50 0F  .....opy......P.
0790: 01 66 13 80 F8 FF FF 7F  F8 FF FF 7F 74 6C 6B 30  .f..........tlk0
07A0: 1D 4E 80 23 03 02 10 18  80 24 4F 80 03 80 03 80  .N.#.....$O.....
07B0: 25 02 00 10 03 80 00 96  09 42 46 01 45 02 80 F0  %........BF.E...
07C0: FF FF 7F F0 FF FF 7F 66  64 6F 31 03 80 1C 04 80  .......fdo1.....
07D0: 38 05 80 80 F0 FF FF 7F  80 C0 50 0F 01 92 01 C0  8.........P.....
07E0: 50 0F 01 92 01 39 50 0F  01 92 01 8F 50 0F 01 92  P....9P.....P...
07F0: 01 38 50 0F 01 29 0F F0  FF FF 7F 06 1E F0 FF FF  .8P..)..........
0800: 7F 6F 70 79 00 F0 FF FF  7F C0 50 0F 01 29 0F C1  .opy......P..)..
0810: 50 0F 01 01 45 06 80 F0  FF FF 7F F0 FF FF 7F 6E  P...E..........n
0820: 6D 30 34 03 80 1C 04 80  45 02 80 F0 FF FF 7F F0  m04.....E.......
0830: FF FF 7F 66 64 69 31 03  80 1C 04 80 1D 25 80 23  ...fdi1......%.#
0840: 29 0F C0 50 0F 01 03 02  00 00 4B 80 04 5A 08 29  )..P......K..Z.)
0850: 0F C0 50 0F 01 05 00 01  26 09 45 02 80 F0 FF FF  ..P.....&.E.....
0860: 7F F0 FF FF 7F 66 64 6F  31 03 80 1C 04 80 29 0F  .....fdo1.....).
0870: C1 50 0F 01 02 52 06 80  F0 FF FF 7F F0 FF FF 7F  .P...R..........
0880: 6E 6D 30 34 45 06 80 F0  FF FF 7F F0 FF FF 7F 6E  nm04E..........n
0890: 6D 30 33 03 80 45 02 80  F0 FF FF 7F F0 FF FF 7F  m03..E..........
08A0: 66 64 69 31 03 80 1C 04  80 02 00 00 44 80 04 C9  fdi1........D...
08B0: 08 6E C0 50 0F 01 47 80  99 C0 50 0F 01 1D 50 80  .n.P..G...P...P.
08C0: 23 99 C0 50 0F 01 01 26  09 02 00 00 3D 80 04 E9  #..P...&....=...
08D0: 08 6E C0 50 0F 01 41 80  99 C0 50 0F 01 1D 51 80  .n.P..A...P...Q.
08E0: 23 99 C0 50 0F 01 01 26  09 02 00 00 36 80 04 09  #..P...&....6...
08F0: 09 6E C0 50 0F 01 52 80  99 C0 50 0F 01 1D 53 80  .n.P..R...P...S.
0900: 23 99 C0 50 0F 01 01 26  09 02 00 00 03 80 04 26  #..P...&.......&
0910: 09 6E C0 50 0F 01 44 80  99 C0 50 0F 01 1D 54 80  .n.P..D...P...T.
0920: 23 99 C0 50 0F 01 52 06  80 F0 FF FF 7F F0 FF FF  #..P..R.........
0930: 7F 6E 6D 30 33 45 06 80  F0 FF FF 7F F0 FF FF 7F  .nm03E..........
0940: 6E 6D 30 32 03 80 6E C0  50 0F 01 27 80 99 C0 50  nm02..n.P..'...P
0950: 0F 01 1D 55 80 1C 29 80  99 C0 50 0F 01 45 02 80  ...U..)...P..E..
0960: F0 FF FF 7F F0 FF FF 7F  66 64 6F 31 03 80 1C 04  ........fdo1....
0970: 80 52 06 80 F0 FF FF 7F  F0 FF FF 7F 6E 6D 30 32  .R..........nm02
0980: 46 00 45 02 80 F0 FF FF  7F F0 FF FF 7F 66 64 69  F.E..........fdi
0990: 31 03 80 01 96 09 20 00  21 00                    1..... .!.      
```

#### Opcodes

```
  0: 0x077E [0x20] SET_CLI_EVENT_UC_FLAG: Lock player control
  1: 0x0780 [0x1E] EventEntity looks at LocalPlayer and starts talking
  2: 0x0785 [0x6F] WAIT_FRAME_DELAY: Yield until WaitTime reaches zero
  3: 0x0786 [0x70] WAIT_ENTITY_RENDER_FLAG: Wait while EventEntity->Render.Flags3 bit 2 is set (cancel turn if not)
  4: 0x0787 [0x79] LocalPlayer looks at Rakuru-Rakoru (ID: 17780928/0x010F50C0) (Basic look)
  5: 0x0791 [0x66] LOAD_EXT_SCHEDULER_MAIN: Load scheduler "tlk0" with entities [EventEntity, EventEntity], work=40*
  6: 0x07A0 [0x1D] PRINT_EVENT_MESSAGE(message_id=7106*)
    → "Hey! How goes my promotion exam--uh...the collection of data?"
  7: 0x07A3 [0x23] WAIT_FOR_DIALOG_INTERACTION
  8: 0x07A4 [0x03] Work_Zone[2] = 1021*
  9: 0x07A9 [0x24] CREATE_DIALOG(message_id=7107*, default_option=0*, option_flags=0*)
    → "May I see the $3? [Certainly./Nothing to see here.]"
 10: 0x07B0 [0x25] WAIT_DIALOG_SELECT()
 11: 0x07B1 [0x02] IF !(Work_Zone[0] == 0*) GOTO 0x0996
 12: 0x07B9 [0x42] SET_CLI_EVENT_CANCEL_DATA()
 13: 0x07BA [0x46] CAMERA_CONTROL: Disable user control
 14: 0x07BC [0x45] LOAD_SCHEDULED_TASK: Load scheduler "fdo1" with entities [LocalPlayer, LocalPlayer], work=[200*, 0*]
 15: 0x07CD [0x1C] WAIT(60* ticks)
 16: 0x07D0 [0x38] SET_CLIENT_EVENT_MODE(mode=19*)
 17: 0x07D3 [0x80] LOAD_WAIT(entity=LocalPlayer)
 18: 0x07D8 [0x80] LOAD_WAIT(entity=Rakuru-Rakoru (ID: 17780928/0x010F50C0))
 19: 0x07DD [0x92] Rakuru-Rakoru (ID: 17780928/0x010F50C0)->Render.Flags3 ^= 0x01
 20: 0x07E3 [0x92] Momiji (ID: 17780793/0x010F5039)->Render.Flags3 ^= 0x01
 21: 0x07E9 [0x92] Zauko (ID: 17780879/0x010F508F)->Render.Flags3 ^= 0x01
 22: 0x07EF [0x92] Honorine (ID: 17780792/0x010F5038)->Render.Flags3 ^= 0x01
 23: 0x07F5 [0x29] REQ_SET_WAIT(priority=0x0F, entity_id=LocalPlayer, tag_num=0x06)
 24: 0x07FC [0x1E] EventEntity looks at LocalPlayer and starts talking
 25: 0x0801 [0x6F] WAIT_FRAME_DELAY: Yield until WaitTime reaches zero
 26: 0x0802 [0x70] WAIT_ENTITY_RENDER_FLAG: Wait while EventEntity->Render.Flags3 bit 2 is set (cancel turn if not)
 27: 0x0803 [0x79] LocalPlayer looks at Rakuru-Rakoru (ID: 17780928/0x010F50C0) (Basic look)
 28: 0x080D [0x29] REQ_SET_WAIT(priority=0x0F, entity_id=Talking Doll (ID: 17780929/0x010F50C1), tag_num=0x01)
 29: 0x0814 [0x45] LOAD_SCHEDULED_TASK: Load scheduler "nm04" with entities [LocalPlayer, LocalPlayer], work=[341*, 0*]
 30: 0x0825 [0x1C] WAIT(60* ticks)
 31: 0x0828 [0x45] LOAD_SCHEDULED_TASK: Load scheduler "fdi1" with entities [LocalPlayer, LocalPlayer], work=[200*, 0*]
 32: 0x0839 [0x1C] WAIT(60* ticks)
 33: 0x083C [0x1D] PRINT_EVENT_MESSAGE(message_id=7084*)
    → "If you wantaru to know more about each of the creatures, just ask me, okay?"
 34: 0x083F [0x23] WAIT_FOR_DIALOG_INTERACTION
 35: 0x0840 [0x29] REQ_SET_WAIT(priority=0x0F, entity_id=Rakuru-Rakoru (ID: 17780928/0x010F50C0), tag_num=0x03)
 36: 0x0847 [0x02] IF !(ExtData[1]->WorkLocal[0] < 16*) GOTO 0x085A
 37: 0x084F [0x29] REQ_SET_WAIT(priority=0x0F, entity_id=Rakuru-Rakoru (ID: 17780928/0x010F50C0), tag_num=0x05)
 38: 0x0856 [0x00] END_REQSTACK()

SUBROUTINE_0926:
 39: 0x0926 [0x52] END_LOAD_SCHEDULER: End scheduler "nm03" with entities [LocalPlayer, LocalPlayer], work=341*
 40: 0x0935 [0x45] LOAD_SCHEDULED_TASK: Load scheduler "nm02" with entities [LocalPlayer, LocalPlayer], work=[341*, 0*]
 41: 0x0946 [0x6E] Rakuru-Rakoru (ID: 17780928/0x010F50C0) uses emote 1*
 42: 0x094D [0x99] Wait for Rakuru-Rakoru (ID: 17780928/0x010F50C0) animation to complete
 43: 0x0952 [0x1D] PRINT_EVENT_MESSAGE(message_id=7112*)
    → "And that's the latest report from Dale. Thank you for your continued cooperation!"
 44: 0x0955 [0x1C] WAIT(180* ticks)
 45: 0x0958 [0x99] Wait for Rakuru-Rakoru (ID: 17780928/0x010F50C0) animation to complete
 46: 0x095D [0x45] LOAD_SCHEDULED_TASK: Load scheduler "fdo1" with entities [LocalPlayer, LocalPlayer], work=[200*, 0*]
 47: 0x096E [0x1C] WAIT(60* ticks)
 48: 0x0971 [0x52] END_LOAD_SCHEDULER: End scheduler "nm02" with entities [LocalPlayer, LocalPlayer], work=341*
 49: 0x0980 [0x46] CAMERA_CONTROL: Restore default settings
 50: 0x0982 [0x45] LOAD_SCHEDULED_TASK: Load scheduler "fdi1" with entities [LocalPlayer, LocalPlayer], work=[200*, 0*]
 51: 0x0993 [0x01] GOTO 0x0996

SUBROUTINE_0996:
 52: 0x0996 [0x20] SET_CLI_EVENT_UC_FLAG: Unlock player control
 53: 0x0998 [0x21] END_EVENT
 54: 0x0999 [0x00] END_REQSTACK()
```

#### Data or dead code:

```
# Dead code (unreachable instructions):
     0x0857 [0x01] GOTO 0x0926
```

### Event 10082

#### Metadata

| Field        | Value      |
|--------------|------------|
| Entrypoint   | 0x099A     |
| Data Size    | 1142 bytes |
| Instructions | 139        |

```
      00 01 02 03 04 05 06 07  08 09 0A 0B 0C 0D 0E 0F
      -- -- -- -- -- -- -- --  -- -- -- -- -- -- -- --
0990:                                42 20 01 46 01 45            B .F.E
09A0: 02 80 F0 FF FF 7F F0 FF  FF 7F 66 64 6F 31 03 80  ..........fdo1..
09B0: 1C 04 80 38 05 80 45 06  80 F0 FF FF 7F F0 FF FF  ...8..E.........
09C0: 7F 6E 6D 30 33 03 80 80  F0 FF FF 7F 80 C0 50 0F  .nm03.........P.
09D0: 01 92 01 C0 50 0F 01 92  01 39 50 0F 01 92 01 8F  ....P....9P.....
09E0: 50 0F 01 92 01 38 50 0F  01 29 0F F0 FF FF 7F 06  P....8P..)......
09F0: 29 0F C1 50 0F 01 01 1E  F0 FF FF 7F 6F 70 79 00  )..P........opy.
0A00: F0 FF FF 7F C0 50 0F 01  45 02 80 F0 FF FF 7F F0  .....P..E.......
0A10: FF FF 7F 66 64 69 31 03  80 1C 04 80 66 13 80 F8  ...fdi1.....f...
0A20: FF FF 7F F8 FF FF 7F 77  61 69 30 1D 56 80 23 6E  .......wai0.V.#n
0A30: C0 50 0F 01 36 80 99 C0  50 0F 01 1D 57 80 23 99  .P..6...P...W.#.
0A40: C0 50 0F 01 6E C0 50 0F  01 52 80 99 C0 50 0F 01  .P..n.P..R...P..
0A50: 1D 58 80 23 99 C0 50 0F  01 1D 59 80 23 66 13 80  .X.#..P...Y.#f..
0A60: F8 FF FF 7F F8 FF FF 7F  70 61 73 30 1C 10 80 1C  ........pas0....
0A70: 10 80 45 02 80 F0 FF FF  7F F0 FF FF 7F 62 6C 6F  ..E..........blo
0A80: 6E 03 80 45 5A 80 F0 FF  FF 7F F0 FF FF 7F 62 6C  n..EZ.........bl
0A90: 6F 6E 03 80 45 02 80 F0  FF FF 7F F0 FF FF 7F 6F  on..E..........o
0AA0: 76 6C 31 03 80 45 06 80  F0 FF FF 7F F0 FF FF 7F  vl1..E..........
0AB0: 6E 6D 30 38 03 80 1D 5B  80 23 1D 5C 80 23 1D 5D  nm08...[.#.\.#.]
0AC0: 80 23 52 06 80 F0 FF FF  7F F0 FF FF 7F 6E 6D 30  .#R..........nm0
0AD0: 38 66 5E 80 F8 FF FF 7F  F8 FF FF 7F 62 69 6B 30  8f^.........bik0
0AE0: 45 02 80 F0 FF FF 7F F0  FF FF 7F 62 6C 6F 66 03  E..........blof.
0AF0: 80 45 06 80 F0 FF FF 7F  F0 FF FF 7F 6E 6D 30 33  .E..........nm03
0B00: 03 80 1C 04 80 66 5E 80  F8 FF FF 7F F8 FF FF 7F  .....f^.........
0B10: 62 69 6B 31 66 13 80 F8  FF FF 7F F8 FF FF 7F 74  bik1f..........t
0B20: 6C 6B 30 03 02 10 18 80  1D 5F 80 23 66 13 80 F8  lk0......_.#f...
0B30: FF FF 7F F8 FF FF 7F 74  6C 6B 31 45 02 80 F0 FF  .......tlk1E....
0B40: FF 7F F0 FF FF 7F 66 64  6F 31 03 80 1C 04 80 52  ......fdo1.....R
0B50: 06 80 F0 FF FF 7F F0 FF  FF 7F 6E 6D 30 33 29 0F  ..........nm03).
0B60: C1 50 0F 01 02 1C 04 80  29 0F C2 50 0F 01 01 66  .P......)..P...f
0B70: 60 80 F8 FF FF 7F F8 FF  FF 7F 73 68 61 30 45 06  `.........sha0E.
0B80: 80 F0 FF FF 7F F0 FF FF  7F 6E 6D 31 32 03 80 45  .........nm12..E
0B90: 02 80 F0 FF FF 7F F0 FF  FF 7F 66 64 69 31 03 80  ..........fdi1..
0BA0: 1C 04 80 66 60 80 F8 FF  FF 7F F8 FF FF 7F 73 69  ...f`.........si
0BB0: 72 30 1C 10 80 79 00 C0  50 0F 01 C2 50 0F 01 66  r0...y..P...P..f
0BC0: 60 80 F8 FF FF 7F F8 FF  FF 7F 73 69 72 31 1C 10  `.........sir1..
0BD0: 80 66 60 80 F8 FF FF 7F  F8 FF FF 7F 73 68 61 31  .f`.........sha1
0BE0: 1C 04 80 6E C0 50 0F 01  08 80 99 C0 50 0F 01 1D  ...n.P......P...
0BF0: 61 80 23 99 C0 50 0F 01  6E C0 50 0F 01 62 80 99  a.#..P..n.P..b..
0C00: C0 50 0F 01 1C 63 80 7B  C0 50 0F 01 1D 64 80 1C  .P...c.{.P...d..
0C10: 63 80 45 5A 80 F0 FF FF  7F F0 FF FF 7F 77 68 6F  c.EZ.........who
0C20: 31 03 80 1C 04 80 52 06  80 F0 FF FF 7F F0 FF FF  1.....R.........
0C30: 7F 6E 6D 31 32 45 02 80  F0 FF FF 7F F0 FF FF 7F  .nm12E..........
0C40: 62 6C 6F 6E 03 80 45 5A  80 F0 FF FF 7F F0 FF FF  blon..EZ........
0C50: 7F 62 6C 6F 6E 03 80 29  0F C1 50 0F 01 01 79 00  .blon..)..P...y.
0C60: C0 50 0F 01 C1 50 0F 01  45 06 80 F0 FF FF 7F F0  .P...P..E.......
0C70: FF FF 7F 6E 6D 31 31 03  80 45 5A 80 F0 FF FF 7F  ...nm11..EZ.....
0C80: F0 FF FF 7F 77 68 69 31  03 80 1C 04 80 29 0F C1  ....whi1.....)..
0C90: 50 0F 01 03 52 06 80 F0  FF FF 7F F0 FF FF 7F 6E  P...R..........n
0CA0: 6D 31 31 6E C0 50 0F 01  62 80 99 C0 50 0F 01 45  m11n.P..b...P..E
0CB0: 06 80 F0 FF FF 7F F0 FF  FF 7F 6E 6D 30 39 03 80  ..........nm09..
0CC0: 1C 63 80 1D 65 80 1C 07  80 55 06 80 F0 FF FF 7F  .c..e....U......
0CD0: F0 FF FF 7F 6E 6D 30 39  45 02 80 F0 FF FF 7F F0  ....nm09E.......
0CE0: FF FF 7F 6F 76 6C 31 03  80 45 06 80 F0 FF FF 7F  ...ovl1..E......
0CF0: F0 FF FF 7F 6E 6D 30 36  03 80 45 06 80 F0 FF FF  ....nm06..E.....
0D00: 7F F0 FF FF 7F 6C 76 64  77 03 80 29 0F C1 50 0F  .....lvdw..)..P.
0D10: 01 04 52 06 80 F0 FF FF  7F F0 FF FF 7F 6E 6D 30  ..R..........nm0
0D20: 36 6E C0 50 0F 01 66 80  99 C0 50 0F 01 45 06 80  6n.P..f...P..E..
0D30: F0 FF FF 7F F0 FF FF 7F  6E 6D 30 37 03 80 1D 67  ........nm07...g
0D40: 80 1C 68 80 99 C0 50 0F  01 45 02 80 F0 FF FF 7F  ..h...P..E......
0D50: F0 FF FF 7F 66 64 6F 31  03 80 1C 04 80 52 06 80  ....fdo1.....R..
0D60: F0 FF FF 7F F0 FF FF 7F  6E 6D 30 37 7B C0 50 0F  ........nm07{.P.
0D70: 01 45 02 80 F0 FF FF 7F  F0 FF FF 7F 62 6C 6F 66  .E..........blof
0D80: 03 80 37 69 80 6A 80 6B  80 6C 80 2C F8 FF FF 7F  ..7i.j.k.l.,....
0D90: F8 FF FF 7F 63 6F 72 70  45 06 80 F0 FF FF 7F F0  ....corpE.......
0DA0: FF FF 7F 6E 6D 31 30 03  80 45 02 80 F0 FF FF 7F  ...nm10..E......
0DB0: F0 FF FF 7F 66 64 69 31  03 80 1D 6D 80 1C 6E 80  ....fdi1...m..n.
0DC0: 03 01 10 6F 80 45 02 80  F0 FF FF 7F F0 FF FF 7F  ...o.E..........
0DD0: 66 64 6F 31 03 80 1C 04  80 52 06 80 F0 FF FF 7F  fdo1.....R......
0DE0: F0 FF FF 7F 6E 6D 31 30  46 00 45 02 80 F0 FF FF  ....nm10F.E.....
0DF0: 7F F0 FF FF 7F 66 64 69  31 03 80 20 00 45 5A 80  .....fdi1.. .EZ.
0E00: F8 FF FF 7F F8 FF FF 7F  71 73 74 63 03 80 21 00  ........qstc..!.
```

#### Opcodes

```
  0: 0x099A [0x42] SET_CLI_EVENT_CANCEL_DATA()
  1: 0x099B [0x20] SET_CLI_EVENT_UC_FLAG: Lock player control
  2: 0x099D [0x46] CAMERA_CONTROL: Disable user control
  3: 0x099F [0x45] LOAD_SCHEDULED_TASK: Load scheduler "fdo1" with entities [LocalPlayer, LocalPlayer], work=[200*, 0*]
  4: 0x09B0 [0x1C] WAIT(60* ticks)
  5: 0x09B3 [0x38] SET_CLIENT_EVENT_MODE(mode=19*)
  6: 0x09B6 [0x45] LOAD_SCHEDULED_TASK: Load scheduler "nm03" with entities [LocalPlayer, LocalPlayer], work=[341*, 0*]
  7: 0x09C7 [0x80] LOAD_WAIT(entity=LocalPlayer)
  8: 0x09CC [0x80] LOAD_WAIT(entity=Rakuru-Rakoru (ID: 17780928/0x010F50C0))
  9: 0x09D1 [0x92] Rakuru-Rakoru (ID: 17780928/0x010F50C0)->Render.Flags3 ^= 0x01
 10: 0x09D7 [0x92] Momiji (ID: 17780793/0x010F5039)->Render.Flags3 ^= 0x01
 11: 0x09DD [0x92] Zauko (ID: 17780879/0x010F508F)->Render.Flags3 ^= 0x01
 12: 0x09E3 [0x92] Honorine (ID: 17780792/0x010F5038)->Render.Flags3 ^= 0x01
 13: 0x09E9 [0x29] REQ_SET_WAIT(priority=0x0F, entity_id=LocalPlayer, tag_num=0x06)
 14: 0x09F0 [0x29] REQ_SET_WAIT(priority=0x0F, entity_id=Talking Doll (ID: 17780929/0x010F50C1), tag_num=0x01)
 15: 0x09F7 [0x1E] EventEntity looks at LocalPlayer and starts talking
 16: 0x09FC [0x6F] WAIT_FRAME_DELAY: Yield until WaitTime reaches zero
 17: 0x09FD [0x70] WAIT_ENTITY_RENDER_FLAG: Wait while EventEntity->Render.Flags3 bit 2 is set (cancel turn if not)
 18: 0x09FE [0x79] LocalPlayer looks at Rakuru-Rakoru (ID: 17780928/0x010F50C0) (Basic look)
 19: 0x0A08 [0x45] LOAD_SCHEDULED_TASK: Load scheduler "fdi1" with entities [LocalPlayer, LocalPlayer], work=[200*, 0*]
 20: 0x0A19 [0x1C] WAIT(60* ticks)
 21: 0x0A1C [0x66] LOAD_EXT_SCHEDULER_MAIN: Load scheduler "wai0" with entities [EventEntity, EventEntity], work=40*
 22: 0x0A2B [0x1D] PRINT_EVENT_MESSAGE(message_id=7113*)
    → "<Gasp!> The...the data. It...it's finally complete!"
 23: 0x0A2E [0x23] WAIT_FOR_DIALOG_INTERACTION
 24: 0x0A2F [0x6E] Rakuru-Rakoru (ID: 17780928/0x010F50C0) uses emote 4*
 25: 0x0A36 [0x99] Wait for Rakuru-Rakoru (ID: 17780928/0x010F50C0) animation to complete
 26: 0x0A3B [0x1D] PRINT_EVENT_MESSAGE(message_id=7114*)
    → "I knew a sorry bunch of monstarus like that would be a cakewalk for a bruiser like you!"
 27: 0x0A3E [0x23] WAIT_FOR_DIALOG_INTERACTION
 28: 0x0A3F [0x99] Wait for Rakuru-Rakoru (ID: 17780928/0x010F50C0) animation to complete
 29: 0x0A44 [0x6E] Rakuru-Rakoru (ID: 17780928/0x010F50C0) uses emote 36*
 30: 0x0A4B [0x99] Wait for Rakuru-Rakoru (ID: 17780928/0x010F50C0) animation to complete
 31: 0x0A50 [0x1D] PRINT_EVENT_MESSAGE(message_id=7115*)
    → "But, wow! I never thought passing the promotion exam could be this easy! I truly-wuly am a genius!"
 32: 0x0A53 [0x23] WAIT_FOR_DIALOG_INTERACTION
 33: 0x0A54 [0x99] Wait for Rakuru-Rakoru (ID: 17780928/0x010F50C0) animation to complete
 34: 0x0A59 [0x1D] PRINT_EVENT_MESSAGE(message_id=7116*)
    → "Now, let me prepare your reward for services rendered..."
 35: 0x0A5C [0x23] WAIT_FOR_DIALOG_INTERACTION
 36: 0x0A5D [0x66] LOAD_EXT_SCHEDULER_MAIN: Load scheduler "pas0" with entities [EventEntity, EventEntity], work=40*
 37: 0x0A6C [0x1C] WAIT(90* ticks)
 38: 0x0A6F [0x1C] WAIT(90* ticks)
 39: 0x0A72 [0x45] LOAD_SCHEDULED_TASK: Load scheduler "blon" with entities [LocalPlayer, LocalPlayer], work=[200*, 0*]
 40: 0x0A83 [0x45] LOAD_SCHEDULED_TASK: Load scheduler "blon" with entities [LocalPlayer, LocalPlayer], work=[201*, 0*]
 41: 0x0A94 [0x45] LOAD_SCHEDULED_TASK: Load scheduler "ovl1" with entities [LocalPlayer, LocalPlayer], work=[200*, 0*]
 42: 0x0AA5 [0x45] LOAD_SCHEDULED_TASK: Load scheduler "nm08" with entities [LocalPlayer, LocalPlayer], work=[341*, 0*]
 43: 0x0AB6 [0x1D] PRINT_EVENT_MESSAGE(message_id=7117*)
    → "(Hohoho, a measly-weasly price to pay for passing the exam.)"
 44: 0x0AB9 [0x23] WAIT_FOR_DIALOG_INTERACTION
 45: 0x0ABA [0x1D] PRINT_EVENT_MESSAGE(message_id=7118*)
    → "(My promotion at the Orastery is guaranteed!)"
 46: 0x0ABD [0x23] WAIT_FOR_DIALOG_INTERACTION
 47: 0x0ABE [0x1D] PRINT_EVENT_MESSAGE(message_id=7119*)
    → "(But why stop there? At this rate, joining the ranks of the Patriarchs doesn't even seem crazy-wazy anymore! Mwahahaha!)"
 48: 0x0AC1 [0x23] WAIT_FOR_DIALOG_INTERACTION
 49: 0x0AC2 [0x52] END_LOAD_SCHEDULER: End scheduler "nm08" with entities [LocalPlayer, LocalPlayer], work=341*
 50: 0x0AD1 [0x66] LOAD_EXT_SCHEDULER_MAIN: Load scheduler "bik0" with entities [EventEntity, EventEntity], work=42*
 51: 0x0AE0 [0x45] LOAD_SCHEDULED_TASK: Load scheduler "blof" with entities [LocalPlayer, LocalPlayer], work=[200*, 0*]
 52: 0x0AF1 [0x45] LOAD_SCHEDULED_TASK: Load scheduler "nm03" with entities [LocalPlayer, LocalPlayer], work=[341*, 0*]
 53: 0x0B02 [0x1C] WAIT(60* ticks)
 54: 0x0B05 [0x66] LOAD_EXT_SCHEDULER_MAIN: Load scheduler "bik1" with entities [EventEntity, EventEntity], work=42*
 55: 0x0B14 [0x66] LOAD_EXT_SCHEDULER_MAIN: Load scheduler "tlk0" with entities [EventEntity, EventEntity], work=40*
 56: 0x0B23 [0x03] Work_Zone[2] = 1021*
 57: 0x0B28 [0x1D] PRINT_EVENT_MESSAGE(message_id=7120*)
    → "Now, I justaru need to lock down the battle data..."
 58: 0x0B2B [0x23] WAIT_FOR_DIALOG_INTERACTION
 59: 0x0B2C [0x66] LOAD_EXT_SCHEDULER_MAIN: Load scheduler "tlk1" with entities [EventEntity, EventEntity], work=40*
 60: 0x0B3B [0x45] LOAD_SCHEDULED_TASK: Load scheduler "fdo1" with entities [LocalPlayer, LocalPlayer], work=[200*, 0*]
 61: 0x0B4C [0x1C] WAIT(60* ticks)
 62: 0x0B4F [0x52] END_LOAD_SCHEDULER: End scheduler "nm03" with entities [LocalPlayer, LocalPlayer], work=341*
 63: 0x0B5E [0x29] REQ_SET_WAIT(priority=0x0F, entity_id=Talking Doll (ID: 17780929/0x010F50C1), tag_num=0x02)
 64: 0x0B65 [0x1C] WAIT(60* ticks)
 65: 0x0B68 [0x29] REQ_SET_WAIT(priority=0x0F, entity_id=Unnamed NPC (ID: 17780930/0x010F50C2), tag_num=0x01)
 66: 0x0B6F [0x66] LOAD_EXT_SCHEDULER_MAIN: Load scheduler "sha0" with entities [EventEntity, EventEntity], work=49*
 67: 0x0B7E [0x45] LOAD_SCHEDULED_TASK: Load scheduler "nm12" with entities [LocalPlayer, LocalPlayer], work=[341*, 0*]
 68: 0x0B8F [0x45] LOAD_SCHEDULED_TASK: Load scheduler "fdi1" with entities [LocalPlayer, LocalPlayer], work=[200*, 0*]
 69: 0x0BA0 [0x1C] WAIT(60* ticks)
 70: 0x0BA3 [0x66] LOAD_EXT_SCHEDULER_MAIN: Load scheduler "sir0" with entities [EventEntity, EventEntity], work=49*
 71: 0x0BB2 [0x1C] WAIT(90* ticks)
 72: 0x0BB5 [0x79] Rakuru-Rakoru (ID: 17780928/0x010F50C0) looks at Unnamed NPC (ID: 17780930/0x010F50C2) (Basic look)
 73: 0x0BBF [0x66] LOAD_EXT_SCHEDULER_MAIN: Load scheduler "sir1" with entities [EventEntity, EventEntity], work=49*
 74: 0x0BCE [0x1C] WAIT(90* ticks)
 75: 0x0BD1 [0x66] LOAD_EXT_SCHEDULER_MAIN: Load scheduler "sha1" with entities [EventEntity, EventEntity], work=49*
 76: 0x0BE0 [0x1C] WAIT(60* ticks)
 77: 0x0BE3 [0x6E] Rakuru-Rakoru (ID: 17780928/0x010F50C0) uses emote 32*
 78: 0x0BEA [0x99] Wait for Rakuru-Rakoru (ID: 17780928/0x010F50C0) animation to complete
 79: 0x0BEF [0x1D] PRINT_EVENT_MESSAGE(message_id=7121*)
    → "Hrm? Doesn't seem to be working for some reason..."
 80: 0x0BF2 [0x23] WAIT_FOR_DIALOG_INTERACTION
 81: 0x0BF3 [0x99] Wait for Rakuru-Rakoru (ID: 17780928/0x010F50C0) animation to complete
 82: 0x0BF8 [0x6E] Rakuru-Rakoru (ID: 17780928/0x010F50C0) uses emote 21*
 83: 0x0BFF [0x99] Wait for Rakuru-Rakoru (ID: 17780928/0x010F50C0) animation to complete
 84: 0x0C04 [0x1C] WAIT(30* ticks)
 85: 0x0C07 [0x7B] Rakuru-Rakoru (ID: 17780928/0x010F50C0) stops talking
 86: 0x0C0C [0x1D] PRINT_EVENT_MESSAGE(message_id=7122*)
    → "Uwaaah! It's...alive!?"
 87: 0x0C0F [0x1C] WAIT(30* ticks)
 88: 0x0C12 [0x45] LOAD_SCHEDULED_TASK: Load scheduler "who1" with entities [LocalPlayer, LocalPlayer], work=[201*, 0*]
 89: 0x0C23 [0x1C] WAIT(60* ticks)
 90: 0x0C26 [0x52] END_LOAD_SCHEDULER: End scheduler "nm12" with entities [LocalPlayer, LocalPlayer], work=341*
 91: 0x0C35 [0x45] LOAD_SCHEDULED_TASK: Load scheduler "blon" with entities [LocalPlayer, LocalPlayer], work=[200*, 0*]
 92: 0x0C46 [0x45] LOAD_SCHEDULED_TASK: Load scheduler "blon" with entities [LocalPlayer, LocalPlayer], work=[201*, 0*]
 93: 0x0C57 [0x29] REQ_SET_WAIT(priority=0x0F, entity_id=Talking Doll (ID: 17780929/0x010F50C1), tag_num=0x01)
 94: 0x0C5E [0x79] Rakuru-Rakoru (ID: 17780928/0x010F50C0) looks at Talking Doll (ID: 17780929/0x010F50C1) (Basic look)
 95: 0x0C68 [0x45] LOAD_SCHEDULED_TASK: Load scheduler "nm11" with entities [LocalPlayer, LocalPlayer], work=[341*, 0*]
 96: 0x0C79 [0x45] LOAD_SCHEDULED_TASK: Load scheduler "whi1" with entities [LocalPlayer, LocalPlayer], work=[201*, 0*]
 97: 0x0C8A [0x1C] WAIT(60* ticks)
 98: 0x0C8D [0x29] REQ_SET_WAIT(priority=0x0F, entity_id=Talking Doll (ID: 17780929/0x010F50C1), tag_num=0x03)
 99: 0x0C94 [0x52] END_LOAD_SCHEDULER: End scheduler "nm11" with entities [LocalPlayer, LocalPlayer], work=341*
100: 0x0CA3 [0x6E] Rakuru-Rakoru (ID: 17780928/0x010F50C0) uses emote 21*
101: 0x0CAA [0x99] Wait for Rakuru-Rakoru (ID: 17780928/0x010F50C0) animation to complete
102: 0x0CAF [0x45] LOAD_SCHEDULED_TASK: Load scheduler "nm09" with entities [LocalPlayer, LocalPlayer], work=[341*, 0*]
103: 0x0CC0 [0x1C] WAIT(30* ticks)
104: 0x0CC3 [0x1D] PRINT_EVENT_MESSAGE(message_id=7124*)
    → "(Th...that voice! It can't be!)"
105: 0x0CC6 [0x1C] WAIT(120* ticks)
106: 0x0CC9 [0x55] WAIT_LOAD_SCHEDULER: Wait for scheduler "nm09" with entities [LocalPlayer, LocalPlayer], work=341*
107: 0x0CD8 [0x45] LOAD_SCHEDULED_TASK: Load scheduler "ovl1" with entities [LocalPlayer, LocalPlayer], work=[200*, 0*]
108: 0x0CE9 [0x45] LOAD_SCHEDULED_TASK: Load scheduler "nm06" with entities [LocalPlayer, LocalPlayer], work=[341*, 0*]
109: 0x0CFA [0x45] LOAD_SCHEDULED_TASK: Load scheduler "lvdw" with entities [LocalPlayer, LocalPlayer], work=[341*, 0*]
110: 0x0D0B [0x29] REQ_SET_WAIT(priority=0x0F, entity_id=Talking Doll (ID: 17780929/0x010F50C1), tag_num=0x04)
111: 0x0D12 [0x52] END_LOAD_SCHEDULER: End scheduler "nm06" with entities [LocalPlayer, LocalPlayer], work=341*
112: 0x0D21 [0x6E] Rakuru-Rakoru (ID: 17780928/0x010F50C0) uses emote 29*
113: 0x0D28 [0x99] Wait for Rakuru-Rakoru (ID: 17780928/0x010F50C0) animation to complete
114: 0x0D2D [0x45] LOAD_SCHEDULED_TASK: Load scheduler "nm07" with entities [LocalPlayer, LocalPlayer], work=[341*, 0*]
115: 0x0D3E [0x1D] PRINT_EVENT_MESSAGE(message_id=7126*)
    → "Uwaaaaaah!!!"
116: 0x0D41 [0x1C] WAIT(150* ticks)
117: 0x0D44 [0x99] Wait for Rakuru-Rakoru (ID: 17780928/0x010F50C0) animation to complete
118: 0x0D49 [0x45] LOAD_SCHEDULED_TASK: Load scheduler "fdo1" with entities [LocalPlayer, LocalPlayer], work=[200*, 0*]
119: 0x0D5A [0x1C] WAIT(60* ticks)
120: 0x0D5D [0x52] END_LOAD_SCHEDULER: End scheduler "nm07" with entities [LocalPlayer, LocalPlayer], work=341*
121: 0x0D6C [0x7B] Rakuru-Rakoru (ID: 17780928/0x010F50C0) stops talking
122: 0x0D71 [0x45] LOAD_SCHEDULED_TASK: Load scheduler "blof" with entities [LocalPlayer, LocalPlayer], work=[200*, 0*]
123: 0x0D82 [0x37] UPDATE_EVENT_POSITION_AND_DIR: x=-17.281*, z=1.664*, y=-0.449*, direction=67.1°*
124: 0x0D8B [0x2C] CREATE_SCHEDULER_TASK: Create scheduler "corp" with entities [EventEntity, EventEntity]
125: 0x0D98 [0x45] LOAD_SCHEDULED_TASK: Load scheduler "nm10" with entities [LocalPlayer, LocalPlayer], work=[341*, 0*]
126: 0x0DA9 [0x45] LOAD_SCHEDULED_TASK: Load scheduler "fdi1" with entities [LocalPlayer, LocalPlayer], work=[200*, 0*]
127: 0x0DBA [0x1D] PRINT_EVENT_MESSAGE(message_id=7127*)
    → "M-my promotion...my dreamy-weam of becoming leading citizen...all gone... <Sniff, sob>"
128: 0x0DBD [0x1C] WAIT(420* ticks)
129: 0x0DC0 [0x03] Work_Zone[1] = 55*
130: 0x0DC5 [0x45] LOAD_SCHEDULED_TASK: Load scheduler "fdo1" with entities [LocalPlayer, LocalPlayer], work=[200*, 0*]
131: 0x0DD6 [0x1C] WAIT(60* ticks)
132: 0x0DD9 [0x52] END_LOAD_SCHEDULER: End scheduler "nm10" with entities [LocalPlayer, LocalPlayer], work=341*
133: 0x0DE8 [0x46] CAMERA_CONTROL: Restore default settings
134: 0x0DEA [0x45] LOAD_SCHEDULED_TASK: Load scheduler "fdi1" with entities [LocalPlayer, LocalPlayer], work=[200*, 0*]
135: 0x0DFB [0x20] SET_CLI_EVENT_UC_FLAG: Unlock player control
136: 0x0DFD [0x45] LOAD_SCHEDULED_TASK: Load scheduler "qstc" with entities [EventEntity, EventEntity], work=[201*, 0*]
137: 0x0E0E [0x21] END_EVENT
138: 0x0E0F [0x00] END_REQSTACK()
```

### Event 10083

#### Metadata

| Field        | Value     |
|--------------|-----------|
| Entrypoint   | 0x0E10    |
| Data Size    | 307 bytes |
| Instructions | 12        |

```
      00 01 02 03 04 05 06 07  08 09 0A 0B 0C 0D 0E 0F
      -- -- -- -- -- -- -- --  -- -- -- -- -- -- -- --
0E10: 20 01 1E F0 FF FF 7F 6F  70 6E C0 50 0F 01 66 80   ......opn.P..f.
0E20: 99 C0 50 0F 01 1D 6D 80  1C 29 80 99 C0 50 0F 01  ..P...m..)...P..
0E30: 20 00 21 00 06 03 17 06  04 17 06 05 17 06 06 17   .!.............
0E40: 06 07 17 06 08 17 06 09  17 06 0A 17 06 0B 17 06  ................
0E50: 0C 17 06 0D 17 06 0E 17  06 0F 17 06 10 17 06 11  ................
0E60: 17 06 12 17 06 00 00 03  01 10 70 80 43 00 43 01  ..........p.C.C.
0E70: 07 00 00 02 10 02 03 10  03 80 01 80 0E 05 03 17  ................
0E80: 02 04 10 03 80 01 8B 0E  05 04 17 02 05 10 03 80  ................
0E90: 01 96 0E 05 05 17 02 06  10 03 80 01 A1 0E 05 06  ................
0EA0: 17 02 07 10 03 80 01 AC  0E 05 07 17 02 08 10 03  ................
0EB0: 80 01 B7 0E 05 08 17 02  09 10 03 80 01 C2 0E 05  ................
0EC0: 09 17 03 01 10 71 80 43  00 43 01 07 00 00 02 10  .....q.C.C......
0ED0: 02 03 10 03 80 01 DB 0E  05 0A 17 02 04 10 03 80  ................
0EE0: 01 E6 0E 05 0B 17 02 05  10 03 80 01 F1 0E 05 0C  ................
0EF0: 17 02 06 10 03 80 01 FC  0E 05 0D 17 02 07 10 03  ................
0F00: 80 01 07 0F 05 0E 17 02  08 10 03 80 01 12 0F 05  ................
0F10: 0F 17 02 09 10 03 80 01  1D 0F 05 10 17 03 01 10  ................
0F20: 72 80 43 00 43 01 07 00  00 02 10 02 03 10 03 80  r.C.C...........
0F30: 01 36 0F 05 11 17 02 04  10 03 80 01 41 0F 05 12  .6..........A...
0F40: 17 1B 00                                          ...             
```

#### Opcodes

```
  0: 0x0E10 [0x20] SET_CLI_EVENT_UC_FLAG: Lock player control
  1: 0x0E12 [0x1E] EventEntity looks at LocalPlayer and starts talking
  2: 0x0E17 [0x6F] WAIT_FRAME_DELAY: Yield until WaitTime reaches zero
  3: 0x0E18 [0x70] WAIT_ENTITY_RENDER_FLAG: Wait while EventEntity->Render.Flags3 bit 2 is set (cancel turn if not)
  4: 0x0E19 [0x6E] Rakuru-Rakoru (ID: 17780928/0x010F50C0) uses emote 29*
  5: 0x0E20 [0x99] Wait for Rakuru-Rakoru (ID: 17780928/0x010F50C0) animation to complete
  6: 0x0E25 [0x1D] PRINT_EVENT_MESSAGE(message_id=7127*)
    → "M-my promotion...my dreamy-weam of becoming leading citizen...all gone... <Sniff, sob>"
  7: 0x0E28 [0x1C] WAIT(180* ticks)
  8: 0x0E2B [0x99] Wait for Rakuru-Rakoru (ID: 17780928/0x010F50C0) animation to complete
  9: 0x0E30 [0x20] SET_CLI_EVENT_UC_FLAG: Unlock player control
 10: 0x0E32 [0x21] END_EVENT
 11: 0x0E33 [0x00] END_REQSTACK()
```

#### Data or dead code:

```
# Dead code (unreachable instructions):
     0x0E34 [0x06] Work_Zone_1700[3] = 0
     0x0E37 [0x06] Work_Zone_1700[4] = 0
     0x0E3A [0x06] Work_Zone_1700[5] = 0
     0x0E3D [0x06] Work_Zone_1700[6] = 0
     0x0E40 [0x06] Work_Zone_1700[7] = 0
     0x0E43 [0x06] Work_Zone_1700[8] = 0
     0x0E46 [0x06] Work_Zone_1700[9] = 0
     0x0E49 [0x06] Work_Zone_1700[10] = 0
     0x0E4C [0x06] Work_Zone_1700[11] = 0
     0x0E4F [0x06] Work_Zone_1700[12] = 0
     0x0E52 [0x06] Work_Zone_1700[13] = 0
     0x0E55 [0x06] Work_Zone_1700[14] = 0
     0x0E58 [0x06] Work_Zone_1700[15] = 0
     0x0E5B [0x06] Work_Zone_1700[16] = 0
     0x0E5E [0x06] Work_Zone_1700[17] = 0
     0x0E61 [0x06] Work_Zone_1700[18] = 0
     0x0E64 [0x06] ExtData[1]->WorkLocal[0] = 0
     0x0E67 [0x03] Work_Zone[1] = 50*
     0x0E6C [0x43] SEND_EVENT_UPDATE: Send pending tag to server (packet 0x005B)
     0x0E6E [0x43] SEND_EVENT_UPDATE: Check pending flag (skip if not pending)
     0x0E70 [0x07] ExtData[1]->WorkLocal[0] += Work_Zone[2]
     0x0E75 [0x02] IF !(Work_Zone[3] == 0*) GOTO 0x0E80
     0x0E7D [0x05] Work_Zone_1700[3] = 1
     0x0E80 [0x02] IF !(Work_Zone[4] == 0*) GOTO 0x0E8B
     0x0E88 [0x05] Work_Zone_1700[4] = 1
     0x0E8B [0x02] IF !(Work_Zone[5] == 0*) GOTO 0x0E96
     0x0E93 [0x05] Work_Zone_1700[5] = 1
     0x0E96 [0x02] IF !(Work_Zone[6] == 0*) GOTO 0x0EA1
     0x0E9E [0x05] Work_Zone_1700[6] = 1
     0x0EA1 [0x02] IF !(Work_Zone[7] == 0*) GOTO 0x0EAC
     0x0EA9 [0x05] Work_Zone_1700[7] = 1
     0x0EAC [0x02] IF !(Work_Zone[8] == 0*) GOTO 0x0EB7
     0x0EB4 [0x05] Work_Zone_1700[8] = 1
     0x0EB7 [0x02] IF !(Work_Zone[9] == 0*) GOTO 0x0EC2
     0x0EBF [0x05] Work_Zone_1700[9] = 1
     0x0EC2 [0x03] Work_Zone[1] = 51*
     0x0EC7 [0x43] SEND_EVENT_UPDATE: Send pending tag to server (packet 0x005B)
     0x0EC9 [0x43] SEND_EVENT_UPDATE: Check pending flag (skip if not pending)
     0x0ECB [0x07] ExtData[1]->WorkLocal[0] += Work_Zone[2]
     0x0ED0 [0x02] IF !(Work_Zone[3] == 0*) GOTO 0x0EDB
     0x0ED8 [0x05] Work_Zone_1700[10] = 1
     0x0EDB [0x02] IF !(Work_Zone[4] == 0*) GOTO 0x0EE6
     0x0EE3 [0x05] Work_Zone_1700[11] = 1
     0x0EE6 [0x02] IF !(Work_Zone[5] == 0*) GOTO 0x0EF1
     0x0EEE [0x05] Work_Zone_1700[12] = 1
     0x0EF1 [0x02] IF !(Work_Zone[6] == 0*) GOTO 0x0EFC
     0x0EF9 [0x05] Work_Zone_1700[13] = 1
     0x0EFC [0x02] IF !(Work_Zone[7] == 0*) GOTO 0x0F07
     0x0F04 [0x05] Work_Zone_1700[14] = 1
     0x0F07 [0x02] IF !(Work_Zone[8] == 0*) GOTO 0x0F12
     0x0F0F [0x05] Work_Zone_1700[15] = 1
     0x0F12 [0x02] IF !(Work_Zone[9] == 0*) GOTO 0x0F1D
     0x0F1A [0x05] Work_Zone_1700[16] = 1
     0x0F1D [0x03] Work_Zone[1] = 52*
     0x0F22 [0x43] SEND_EVENT_UPDATE: Send pending tag to server (packet 0x005B)
     0x0F24 [0x43] SEND_EVENT_UPDATE: Check pending flag (skip if not pending)
     0x0F26 [0x07] ExtData[1]->WorkLocal[0] += Work_Zone[2]
     0x0F2B [0x02] IF !(Work_Zone[3] == 0*) GOTO 0x0F36
     0x0F33 [0x05] Work_Zone_1700[17] = 1
     0x0F36 [0x02] IF !(Work_Zone[4] == 0*) GOTO 0x0F41
     0x0F3E [0x05] Work_Zone_1700[18] = 1
     0x0F41 [0x1B] RETURN
     0x0F42 [0x00] END_REQSTACK()
```

### Event 10094

#### Metadata

| Field        | Value   |
|--------------|---------|
| Entrypoint   | 0x0F43  |
| Data Size    | 5 bytes |
| Instructions | 2       |

```
      00 01 02 03 04 05 06 07  08 09 0A 0B 0C 0D 0E 0F
      -- -- -- -- -- -- -- --  -- -- -- -- -- -- -- --
0F40:          C0 27 80 00 00                              .'...        
```

#### Opcodes

```
  0: 0x0F43 [0xC0] EventEntity->Render.Flags3 |= 0x1000 // Set bit 12 (from 1*)
  1: 0x0F46 [0x00] END_REQSTACK()
```

#### Data or dead code:

```
# Dead code (unreachable instructions):
     0x0F47 [0x00] END_REQSTACK()
```

### Event 65535.1

#### Metadata

| Field        | Value    |
|--------------|----------|
| Entrypoint   | 0x0F48   |
| Data Size    | 20 bytes |
| Instructions | 5        |

```
      00 01 02 03 04 05 06 07  08 09 0A 0B 0C 0D 0E 0F
      -- -- -- -- -- -- -- --  -- -- -- -- -- -- -- --
0F40:                          59 04 0B 50 0F 01 44 80          Y..P..D.
0F50: 1F 00 73 80 74 80 03 80  1F 01 6F 00              ..s.t.....o.    
```

#### Opcodes

```
  0: 0x0F48 [0x59] UPDATE_ENTITY_DATA: Set Garnev (ID: 17780747/0x010F500B) main speed = 12* * 0.1
  1: 0x0F50 [0x1F] MOVE_ENTITY: EventEntity moves to X=-76.092*, Z=-136.357*, Y=0.000*
  2: 0x0F58 [0x1F] MOVE_ENTITY: Update entity position (mode=1)
  3: 0x0F5A [0x6F] WAIT_FRAME_DELAY: Yield until WaitTime reaches zero
  4: 0x0F5B [0x00] END_REQSTACK()
```

### Event 65535.2

#### Metadata

| Field        | Value    |
|--------------|----------|
| Entrypoint   | 0x0F5C   |
| Data Size    | 20 bytes |
| Instructions | 5        |

```
      00 01 02 03 04 05 06 07  08 09 0A 0B 0C 0D 0E 0F
      -- -- -- -- -- -- -- --  -- -- -- -- -- -- -- --
0F50:                                      59 04 1D 50              Y..P
0F60: 0F 01 11 80 1F 00 75 80  76 80 03 80 1F 01 6F 00  ......u.v.....o.
```

#### Opcodes

```
  0: 0x0F5C [0x59] UPDATE_ENTITY_DATA: Set Mataligeat (ID: 17780765/0x010F501D) main speed = 11* * 0.1
  1: 0x0F64 [0x1F] MOVE_ENTITY: EventEntity moves to X=-95.337*, Z=-156.056*, Y=0.000*
  2: 0x0F6C [0x1F] MOVE_ENTITY: Update entity position (mode=1)
  3: 0x0F6E [0x6F] WAIT_FRAME_DELAY: Yield until WaitTime reaches zero
  4: 0x0F6F [0x00] END_REQSTACK()
```

### Event 65535.3

#### Metadata

| Field        | Value    |
|--------------|----------|
| Entrypoint   | 0x0F70   |
| Data Size    | 20 bytes |
| Instructions | 5        |

```
      00 01 02 03 04 05 06 07  08 09 0A 0B 0C 0D 0E 0F
      -- -- -- -- -- -- -- --  -- -- -- -- -- -- -- --
0F70: 59 04 1D 50 0F 01 11 80  1F 00 77 80 78 80 79 80  Y..P......w.x.y.
0F80: 1F 01 6F 00                                       ..o.            
```

#### Opcodes

```
  0: 0x0F70 [0x59] UPDATE_ENTITY_DATA: Set Mataligeat (ID: 17780765/0x010F501D) main speed = 11* * 0.1
  1: 0x0F78 [0x1F] MOVE_ENTITY: EventEntity moves to X=-62.073*, Z=-89.873*, Y=5.999*
  2: 0x0F80 [0x1F] MOVE_ENTITY: Update entity position (mode=1)
  3: 0x0F82 [0x6F] WAIT_FRAME_DELAY: Yield until WaitTime reaches zero
  4: 0x0F83 [0x00] END_REQSTACK()
```

### Event 65535.4

#### Metadata

| Field        | Value    |
|--------------|----------|
| Entrypoint   | 0x0F84   |
| Data Size    | 17 bytes |
| Instructions | 2        |

```
      00 01 02 03 04 05 06 07  08 09 0A 0B 0C 0D 0E 0F
      -- -- -- -- -- -- -- --  -- -- -- -- -- -- -- --
0F80:             5B 7A 80 1D  50 0F 01 1D 50 0F 01 6F      [z..P...P..o
0F90: 70 30 30 00 00                                    p00..           
```

#### Opcodes

```
  0: 0x0F84 [0x5B] LOAD_EXT_SCHEDULER: Load scheduler "op00" with entities [Mataligeat (ID: 17780765/0x010F501D), Mataligeat (ID: 17780765/0x010F501D)], work=2618*
  1: 0x0F93 [0x00] END_REQSTACK()
```

#### Data or dead code:

```
# Dead code (unreachable instructions):
     0x0F94 [0x00] END_REQSTACK()
```

### Event 65535.5

#### Metadata

| Field        | Value    |
|--------------|----------|
| Entrypoint   | 0x0F95   |
| Data Size    | 20 bytes |
| Instructions | 5        |

```
      00 01 02 03 04 05 06 07  08 09 0A 0B 0C 0D 0E 0F
      -- -- -- -- -- -- -- --  -- -- -- -- -- -- -- --
0F90:                59 04 3A  50 0F 01 11 80 1F 00 75       Y.:P......u
0FA0: 80 76 80 03 80 1F 01 6F  00                       .v.....o.       
```

#### Opcodes

```
  0: 0x0F95 [0x59] UPDATE_ENTITY_DATA: Set Navisse (ID: 17780794/0x010F503A) main speed = 11* * 0.1
  1: 0x0F9D [0x1F] MOVE_ENTITY: EventEntity moves to X=-95.337*, Z=-156.056*, Y=0.000*
  2: 0x0FA5 [0x1F] MOVE_ENTITY: Update entity position (mode=1)
  3: 0x0FA7 [0x6F] WAIT_FRAME_DELAY: Yield until WaitTime reaches zero
  4: 0x0FA8 [0x00] END_REQSTACK()
```

### Event 65535.6

#### Metadata

| Field        | Value    |
|--------------|----------|
| Entrypoint   | 0x0FA9   |
| Data Size    | 20 bytes |
| Instructions | 5        |

```
      00 01 02 03 04 05 06 07  08 09 0A 0B 0C 0D 0E 0F
      -- -- -- -- -- -- -- --  -- -- -- -- -- -- -- --
0FA0:                             59 04 2C 50 0F 01 44           Y.,P..D
0FB0: 80 1F 00 7B 80 7C 80 03  80 1F 01 6F 00           ...{.|.....o.   
```

#### Opcodes

```
  0: 0x0FA9 [0x59] UPDATE_ENTITY_DATA: Set Jazmin (ID: 17780780/0x010F502C) main speed = 12* * 0.1
  1: 0x0FB1 [0x1F] MOVE_ENTITY: EventEntity moves to X=-83.944*, Z=-128.625*, Y=0.000*
  2: 0x0FB9 [0x1F] MOVE_ENTITY: Update entity position (mode=1)
  3: 0x0FBB [0x6F] WAIT_FRAME_DELAY: Yield until WaitTime reaches zero
  4: 0x0FBC [0x00] END_REQSTACK()
```

### Event 65535.7

#### Metadata

| Field        | Value    |
|--------------|----------|
| Entrypoint   | 0x0FBD   |
| Data Size    | 19 bytes |
| Instructions | 4        |

```
      00 01 02 03 04 05 06 07  08 09 0A 0B 0C 0D 0E 0F
      -- -- -- -- -- -- -- --  -- -- -- -- -- -- -- --
0FB0:                                         59 04 2C               Y.,
0FC0: 50 0F 01 11 80 1F 00 7D  80 7E 80 79 80 1F 01 00  P......}.~.y....
```

#### Opcodes

```
  0: 0x0FBD [0x59] UPDATE_ENTITY_DATA: Set Jazmin (ID: 17780780/0x010F502C) main speed = 11* * 0.1
  1: 0x0FC5 [0x1F] MOVE_ENTITY: EventEntity moves to X=-68.592*, Z=-96.839*, Y=5.999*
  2: 0x0FCD [0x1F] MOVE_ENTITY: Update entity position (mode=1)
  3: 0x0FCF [0x00] END_REQSTACK()
```

### Event 65535.8

#### Metadata

| Field        | Value    |
|--------------|----------|
| Entrypoint   | 0x0FD0   |
| Data Size    | 19 bytes |
| Instructions | 4        |

```
      00 01 02 03 04 05 06 07  08 09 0A 0B 0C 0D 0E 0F
      -- -- -- -- -- -- -- --  -- -- -- -- -- -- -- --
0FD0: 59 04 2C 50 0F 01 11 80  1F 00 7F 80 80 80 79 80  Y.,P..........y.
0FE0: 1F 01 00                                          ...             
```

#### Opcodes

```
  0: 0x0FD0 [0x59] UPDATE_ENTITY_DATA: Set Jazmin (ID: 17780780/0x010F502C) main speed = 11* * 0.1
  1: 0x0FD8 [0x1F] MOVE_ENTITY: EventEntity moves to X=-70.511*, Z=-102.750*, Y=5.999*
  2: 0x0FE0 [0x1F] MOVE_ENTITY: Update entity position (mode=1)
  3: 0x0FE2 [0x00] END_REQSTACK()
```

### Event 65535.9

#### Metadata

| Field        | Value    |
|--------------|----------|
| Entrypoint   | 0x0FE3   |
| Data Size    | 16 bytes |
| Instructions | 2        |

```
      00 01 02 03 04 05 06 07  08 09 0A 0B 0C 0D 0E 0F
      -- -- -- -- -- -- -- --  -- -- -- -- -- -- -- --
0FE0:          5B 81 80 2C 50  0F 01 2C 50 0F 01 6F 70     [..,P..,P..op
0FF0: 30 30 00                                          00.             
```

#### Opcodes

```
  0: 0x0FE3 [0x5B] LOAD_EXT_SCHEDULER: Load scheduler "op00" with entities [Jazmin (ID: 17780780/0x010F502C), Jazmin (ID: 17780780/0x010F502C)], work=2602*
  1: 0x0FF2 [0x00] END_REQSTACK()
```

### Event 65535.10

#### Metadata

| Field        | Value    |
|--------------|----------|
| Entrypoint   | 0x0FF3   |
| Data Size    | 16 bytes |
| Instructions | 2        |

```
      00 01 02 03 04 05 06 07  08 09 0A 0B 0C 0D 0E 0F
      -- -- -- -- -- -- -- --  -- -- -- -- -- -- -- --
0FF0:          5B 81 80 2C 50  0F 01 2C 50 0F 01 6F 70     [..,P..,P..op
1000: 30 31 00                                          01.             
```

#### Opcodes

```
  0: 0x0FF3 [0x5B] LOAD_EXT_SCHEDULER: Load scheduler "op01" with entities [Jazmin (ID: 17780780/0x010F502C), Jazmin (ID: 17780780/0x010F502C)], work=2602*
  1: 0x1002 [0x00] END_REQSTACK()
```

### Event 65535.11

#### Metadata

| Field        | Value    |
|--------------|----------|
| Entrypoint   | 0x1003   |
| Data Size    | 20 bytes |
| Instructions | 5        |

```
      00 01 02 03 04 05 06 07  08 09 0A 0B 0C 0D 0E 0F
      -- -- -- -- -- -- -- --  -- -- -- -- -- -- -- --
1000:          59 04 2C 50 0F  01 11 80 1F 00 82 80 83     Y.,P.........
1010: 80 79 80 1F 01 6F 00                              .y...o.         
```

#### Opcodes

```
  0: 0x1003 [0x59] UPDATE_ENTITY_DATA: Set Jazmin (ID: 17780780/0x010F502C) main speed = 11* * 0.1
  1: 0x100B [0x1F] MOVE_ENTITY: EventEntity moves to X=-72.366*, Z=-118.167*, Y=5.999*
  2: 0x1013 [0x1F] MOVE_ENTITY: Update entity position (mode=1)
  3: 0x1015 [0x6F] WAIT_FRAME_DELAY: Yield until WaitTime reaches zero
  4: 0x1016 [0x00] END_REQSTACK()
```

### Event 65535.12

#### Metadata

| Field        | Value    |
|--------------|----------|
| Entrypoint   | 0x1017   |
| Data Size    | 16 bytes |
| Instructions | 2        |

```
      00 01 02 03 04 05 06 07  08 09 0A 0B 0C 0D 0E 0F
      -- -- -- -- -- -- -- --  -- -- -- -- -- -- -- --
1010:                      5B  84 80 2C 50 0F 01 2C 50         [..,P..,P
1020: 0F 01 6F 70 61 30 00                              ..opa0.         
```

#### Opcodes

```
  0: 0x1017 [0x5B] LOAD_EXT_SCHEDULER: Load scheduler "opa0" with entities [Jazmin (ID: 17780780/0x010F502C), Jazmin (ID: 17780780/0x010F502C)], work=2617*
  1: 0x1026 [0x00] END_REQSTACK()
```

### Event 65535.13

#### Metadata

| Field        | Value    |
|--------------|----------|
| Entrypoint   | 0x1027   |
| Data Size    | 16 bytes |
| Instructions | 2        |

```
      00 01 02 03 04 05 06 07  08 09 0A 0B 0C 0D 0E 0F
      -- -- -- -- -- -- -- --  -- -- -- -- -- -- -- --
1020:                      5B  84 80 2C 50 0F 01 2C 50         [..,P..,P
1030: 0F 01 6F 70 61 31 00                              ..opa1.         
```

#### Opcodes

```
  0: 0x1027 [0x5B] LOAD_EXT_SCHEDULER: Load scheduler "opa1" with entities [Jazmin (ID: 17780780/0x010F502C), Jazmin (ID: 17780780/0x010F502C)], work=2617*
  1: 0x1036 [0x00] END_REQSTACK()
```

### Event 65535.14

#### Metadata

| Field        | Value    |
|--------------|----------|
| Entrypoint   | 0x1037   |
| Data Size    | 16 bytes |
| Instructions | 2        |

```
      00 01 02 03 04 05 06 07  08 09 0A 0B 0C 0D 0E 0F
      -- -- -- -- -- -- -- --  -- -- -- -- -- -- -- --
1030:                      5B  84 80 2C 50 0F 01 2C 50         [..,P..,P
1040: 0F 01 6F 70 61 32 00                              ..opa2.         
```

#### Opcodes

```
  0: 0x1037 [0x5B] LOAD_EXT_SCHEDULER: Load scheduler "opa2" with entities [Jazmin (ID: 17780780/0x010F502C), Jazmin (ID: 17780780/0x010F502C)], work=2617*
  1: 0x1046 [0x00] END_REQSTACK()
```

### Event 65535.15

#### Metadata

| Field        | Value    |
|--------------|----------|
| Entrypoint   | 0x1047   |
| Data Size    | 21 bytes |
| Instructions | 5        |

```
      00 01 02 03 04 05 06 07  08 09 0A 0B 0C 0D 0E 0F
      -- -- -- -- -- -- -- --  -- -- -- -- -- -- -- --
1040:                      59  04 2E 50 0F 01 44 80 1F         Y..P..D..
1050: 00 73 80 74 80 03 80 1F  01 6F 00 00              .s.t.....o..    
```

#### Opcodes

```
  0: 0x1047 [0x59] UPDATE_ENTITY_DATA: Set Bogharg (ID: 17780782/0x010F502E) main speed = 12* * 0.1
  1: 0x104F [0x1F] MOVE_ENTITY: EventEntity moves to X=-76.092*, Z=-136.357*, Y=0.000*
  2: 0x1057 [0x1F] MOVE_ENTITY: Update entity position (mode=1)
  3: 0x1059 [0x6F] WAIT_FRAME_DELAY: Yield until WaitTime reaches zero
  4: 0x105A [0x00] END_REQSTACK()
```

#### Data or dead code:

```
# Dead code (unreachable instructions):
     0x105B [0x00] END_REQSTACK()
```

### Event 65535.16

#### Metadata

| Field        | Value    |
|--------------|----------|
| Entrypoint   | 0x105C   |
| Data Size    | 16 bytes |
| Instructions | 2        |

```
      00 01 02 03 04 05 06 07  08 09 0A 0B 0C 0D 0E 0F
      -- -- -- -- -- -- -- --  -- -- -- -- -- -- -- --
1050:                                      66 85 80 2E              f...
1060: 50 0F 01 2E 50 0F 01 74  68 6B 31 00              P...P..thk1.    
```

#### Opcodes

```
  0: 0x105C [0x66] LOAD_EXT_SCHEDULER_MAIN: Load scheduler "thk1" with entities [Bogharg (ID: 17780782/0x010F502E), Bogharg (ID: 17780782/0x010F502E)], work=69*
  1: 0x106B [0x00] END_REQSTACK()
```

### Event 65535.17

#### Metadata

| Field        | Value    |
|--------------|----------|
| Entrypoint   | 0x106C   |
| Data Size    | 16 bytes |
| Instructions | 2        |

```
      00 01 02 03 04 05 06 07  08 09 0A 0B 0C 0D 0E 0F
      -- -- -- -- -- -- -- --  -- -- -- -- -- -- -- --
1060:                                      66 85 80 2E              f...
1070: 50 0F 01 2E 50 0F 01 74  68 6B 32 00              P...P..thk2.    
```

#### Opcodes

```
  0: 0x106C [0x66] LOAD_EXT_SCHEDULER_MAIN: Load scheduler "thk2" with entities [Bogharg (ID: 17780782/0x010F502E), Bogharg (ID: 17780782/0x010F502E)], work=69*
  1: 0x107B [0x00] END_REQSTACK()
```

### Event 65535.18

#### Metadata

| Field        | Value    |
|--------------|----------|
| Entrypoint   | 0x107C   |
| Data Size    | 20 bytes |
| Instructions | 5        |

```
      00 01 02 03 04 05 06 07  08 09 0A 0B 0C 0D 0E 0F
      -- -- -- -- -- -- -- --  -- -- -- -- -- -- -- --
1070:                                      59 04 2E 50              Y..P
1080: 0F 01 44 80 1F 00 86 80  87 80 79 80 1F 01 6F 00  ..D.......y...o.
```

#### Opcodes

```
  0: 0x107C [0x59] UPDATE_ENTITY_DATA: Set Bogharg (ID: 17780782/0x010F502E) main speed = 12* * 0.1
  1: 0x1084 [0x1F] MOVE_ENTITY: EventEntity moves to X=-56.992*, Z=-88.050*, Y=5.999*
  2: 0x108C [0x1F] MOVE_ENTITY: Update entity position (mode=1)
  3: 0x108E [0x6F] WAIT_FRAME_DELAY: Yield until WaitTime reaches zero
  4: 0x108F [0x00] END_REQSTACK()
```

### Event 65535.19

#### Metadata

| Field        | Value    |
|--------------|----------|
| Entrypoint   | 0x1090   |
| Data Size    | 17 bytes |
| Instructions | 2        |

```
      00 01 02 03 04 05 06 07  08 09 0A 0B 0C 0D 0E 0F
      -- -- -- -- -- -- -- --  -- -- -- -- -- -- -- --
1090: 5B 88 80 2E 50 0F 01 2E  50 0F 01 6F 70 30 30 00  [...P...P..op00.
10A0: 00                                                .               
```

#### Opcodes

```
  0: 0x1090 [0x5B] LOAD_EXT_SCHEDULER: Load scheduler "op00" with entities [Bogharg (ID: 17780782/0x010F502E), Bogharg (ID: 17780782/0x010F502E)], work=2621*
  1: 0x109F [0x00] END_REQSTACK()
```

#### Data or dead code:

```
# Dead code (unreachable instructions):
     0x10A0 [0x00] END_REQSTACK()
```

### Event 65535.20

#### Metadata

| Field        | Value    |
|--------------|----------|
| Entrypoint   | 0x10A1   |
| Data Size    | 20 bytes |
| Instructions | 5        |

```
      00 01 02 03 04 05 06 07  08 09 0A 0B 0C 0D 0E 0F
      -- -- -- -- -- -- -- --  -- -- -- -- -- -- -- --
10A0:    59 04 31 50 0F 01 11  80 1F 00 7B 80 7C 80 03   Y.1P......{.|..
10B0: 80 1F 01 6F 00                                    ...o.           
```

#### Opcodes

```
  0: 0x10A1 [0x59] UPDATE_ENTITY_DATA: Set Nakho Jawantal (ID: 17780785/0x010F5031) main speed = 11* * 0.1
  1: 0x10A9 [0x1F] MOVE_ENTITY: EventEntity moves to X=-83.944*, Z=-128.625*, Y=0.000*
  2: 0x10B1 [0x1F] MOVE_ENTITY: Update entity position (mode=1)
