# 17780754 - Tovrutaux

## Common Data

| Field            | Value                 |
|------------------|-----------------------|
| Zone             | Lower Jeuno (ID: 245) |
| Block Size       | 3104 bytes            |
| Total Events     | 111                   |
| References Count | 122                   |

## List of Events

| Event ID                     | Entrypoint   |   Size |   Instructions |
|------------------------------|--------------|--------|----------------|
| [65535](#event-65535)        | 0x0000       |      1 |              1 |
| [58](#event-58)              | 0x0001       |    178 |             29 |
| [59](#event-59)              | 0x00B3       |     15 |              5 |
| [65](#event-65)              | 0x00C2       |     40 |             10 |
| [62](#event-62)              | 0x00EA       |     40 |             10 |
| [61](#event-61)              | 0x0112       |     40 |             10 |
| [65535.1](#event-655351)     | 0x013A       |     19 |              3 |
| [65535.2](#event-655352)     | 0x014D       |     29 |              3 |
| [65535.3](#event-655353)     | 0x016A       |     19 |              3 |
| [65535.4](#event-655354)     | 0x017D       |     29 |              3 |
| [65535.5](#event-655355)     | 0x019A       |     29 |              3 |
| [65535.6](#event-655356)     | 0x01B7       |      9 |              3 |
| [65535.7](#event-655357)     | 0x01C0       |      2 |              2 |
| [10094](#event-10094)        | 0x01C2       |      5 |              3 |
| [65535.8](#event-655358)     | 0x01C7       |     20 |              5 |
| [65535.9](#event-655359)     | 0x01DB       |     20 |              5 |
| [65535.10](#event-6553510)   | 0x01EF       |     20 |              5 |
| [65535.11](#event-6553511)   | 0x0203       |     17 |              3 |
| [65535.12](#event-6553512)   | 0x0214       |     20 |              5 |
| [65535.13](#event-6553513)   | 0x0228       |     20 |              5 |
| [65535.14](#event-6553514)   | 0x023C       |     19 |              4 |
| [65535.15](#event-6553515)   | 0x024F       |     19 |              4 |
| [65535.16](#event-6553516)   | 0x0262       |     16 |              2 |
| [65535.17](#event-6553517)   | 0x0272       |     16 |              2 |
| [65535.18](#event-6553518)   | 0x0282       |     20 |              5 |
| [65535.19](#event-6553519)   | 0x0296       |     16 |              2 |
| [65535.20](#event-6553520)   | 0x02A6       |     16 |              2 |
| [65535.21](#event-6553521)   | 0x02B6       |     16 |              2 |
| [65535.22](#event-6553522)   | 0x02C6       |     21 |              6 |
| [65535.23](#event-6553523)   | 0x02DB       |     16 |              2 |
| [65535.24](#event-6553524)   | 0x02EB       |     16 |              2 |
| [65535.25](#event-6553525)   | 0x02FB       |     20 |              5 |
| [65535.26](#event-6553526)   | 0x030F       |     17 |              3 |
| [65535.27](#event-6553527)   | 0x0320       |     20 |              5 |
| [65535.28](#event-6553528)   | 0x0334       |     16 |              2 |
| [65535.29](#event-6553529)   | 0x0344       |     16 |              2 |
| [65535.30](#event-6553530)   | 0x0354       |     16 |              2 |
| [65535.31](#event-6553531)   | 0x0364       |     16 |              2 |
| [65535.32](#event-6553532)   | 0x0374       |     16 |              2 |
| [65535.33](#event-6553533)   | 0x0384       |     16 |              2 |
| [65535.34](#event-6553534)   | 0x0394       |     16 |              2 |
| [65535.35](#event-6553535)   | 0x03A4       |     12 |              4 |
| [65535.36](#event-6553536)   | 0x03B0       |     20 |              5 |
| [65535.37](#event-6553537)   | 0x03C4       |     17 |              3 |
| [65535.38](#event-6553538)   | 0x03D5       |     17 |              3 |
| [65535.39](#event-6553539)   | 0x03E6       |     16 |              2 |
| [65535.40](#event-6553540)   | 0x03F6       |     16 |              2 |
| [65535.41](#event-6553541)   | 0x0406       |     16 |              2 |
| [65535.42](#event-6553542)   | 0x0416       |     16 |              2 |
| [65535.43](#event-6553543)   | 0x0426       |     16 |              2 |
| [65535.44](#event-6553544)   | 0x0436       |     16 |              2 |
| [65535.45](#event-6553545)   | 0x0446       |     13 |              5 |
| [65535.46](#event-6553546)   | 0x0453       |     20 |              5 |
| [65535.47](#event-6553547)   | 0x0467       |     12 |              4 |
| [65535.48](#event-6553548)   | 0x0473       |     16 |              2 |
| [65535.49](#event-6553549)   | 0x0483       |     16 |              2 |
| [65535.50](#event-6553550)   | 0x0493       |     16 |              2 |
| [65535.51](#event-6553551)   | 0x04A3       |     20 |              5 |
| [65535.52](#event-6553552)   | 0x04B7       |     29 |              6 |
| [65535.53](#event-6553553)   | 0x04D4       |     17 |              3 |
| [65535.54](#event-6553554)   | 0x04E5       |     20 |              5 |
| [65535.55](#event-6553555)   | 0x04F9       |     20 |              5 |
| [65535.56](#event-6553556)   | 0x050D       |     20 |              5 |
| [65535.57](#event-6553557)   | 0x0521       |     20 |              5 |
| [65535.58](#event-6553558)   | 0x0535       |     20 |              5 |
| [65535.59](#event-6553559)   | 0x0549       |     16 |              2 |
| [65535.60](#event-6553560)   | 0x0559       |     16 |              2 |
| [65535.61](#event-6553561)   | 0x0569       |     20 |              5 |
| [65535.62](#event-6553562)   | 0x057D       |     16 |              2 |
| [65535.63](#event-6553563)   | 0x058D       |     16 |              2 |
| [65535.64](#event-6553564)   | 0x059D       |     16 |              2 |
| [65535.65](#event-6553565)   | 0x05AD       |     16 |              2 |
| [65535.66](#event-6553566)   | 0x05BD       |     21 |              6 |
| [65535.67](#event-6553567)   | 0x05D2       |     20 |              5 |
| [65535.68](#event-6553568)   | 0x05E6       |     20 |              5 |
| [65535.69](#event-6553569)   | 0x05FA       |     17 |              3 |
| [65535.70](#event-6553570)   | 0x060B       |     20 |              5 |
| [65535.71](#event-6553571)   | 0x061F       |     20 |              5 |
| [65535.72](#event-6553572)   | 0x0633       |     16 |              2 |
| [65535.73](#event-6553573)   | 0x0643       |     16 |              2 |
| [65535.74](#event-6553574)   | 0x0653       |     21 |              6 |
| [65535.75](#event-6553575)   | 0x0668       |     20 |              5 |
| [65535.76](#event-6553576)   | 0x067C       |     20 |              5 |
| [65535.77](#event-6553577)   | 0x0690       |     16 |              2 |
| [65535.78](#event-6553578)   | 0x06A0       |     20 |              5 |
| [65535.79](#event-6553579)   | 0x06B4       |     21 |              6 |
| [65535.80](#event-6553580)   | 0x06C9       |     20 |              5 |
| [65535.81](#event-6553581)   | 0x06DD       |     12 |              4 |
| [65535.82](#event-6553582)   | 0x06E9       |     16 |              2 |
| [65535.83](#event-6553583)   | 0x06F9       |     16 |              2 |
| [65535.84](#event-6553584)   | 0x0709       |     20 |              5 |
| [65535.85](#event-6553585)   | 0x071D       |     20 |              5 |
| [65535.86](#event-6553586)   | 0x0731       |     17 |              3 |
| [65535.87](#event-6553587)   | 0x0742       |     16 |              2 |
| [65535.88](#event-6553588)   | 0x0752       |     16 |              2 |
| [65535.89](#event-6553589)   | 0x0762       |     16 |              2 |
| [65535.90](#event-6553590)   | 0x0772       |     16 |              2 |
| [65535.91](#event-6553591)   | 0x0782       |     17 |              3 |
| [65535.92](#event-6553592)   | 0x0793       |     20 |              5 |
| [65535.93](#event-6553593)   | 0x07A7       |     12 |              4 |
| [65535.94](#event-6553594)   | 0x07B3       |     16 |              2 |
| [65535.95](#event-6553595)   | 0x07C3       |     16 |              2 |
| [65535.96](#event-6553596)   | 0x07D3       |     16 |              2 |
| [65535.97](#event-6553597)   | 0x07E3       |     16 |              2 |
| [65535.98](#event-6553598)   | 0x07F3       |     16 |              2 |
| [65535.99](#event-6553599)   | 0x0803       |     16 |              2 |
| [65535.100](#event-65535100) | 0x0813       |     16 |              2 |
| [65535.101](#event-65535101) | 0x0823       |     20 |              5 |
| [65535.102](#event-65535102) | 0x0837       |     20 |              5 |
| [65535.103](#event-65535103) | 0x084B       |     16 |              2 |
| [65535.104](#event-65535104) | 0x085B       |     16 |              2 |

## DAT References (imed_data)

|   Index | Hex Value   |   Dec Value |
|---------|-------------|-------------|
|       0 | 0x1DE9      |        7657 |
|       1 | 0x001E      |          30 |
|       2 | 0x1DEA      |        7658 |
|       3 | 0x1DEB      |        7659 |
|       4 | 0x1DEC      |        7660 |
|       5 | 0x1DED      |        7661 |
|       6 | 0x1DEE      |        7662 |
|       7 | 0x00C8      |         200 |
|       8 | 0x0000      |           0 |
|       9 | 0x0090      |         144 |
|      10 | 0x005A      |          90 |
|      11 | 0x1DEF      |        7663 |
|      12 | 0x1DF1      |        7665 |
|      13 | 0x1DF2      |        7666 |
|      14 | 0x1DF3      |        7667 |
|      15 | 0x1DF4      |        7668 |
|      16 | 0x1DF5      |        7669 |
|      17 | 0x1DF6      |        7670 |
|      18 | 0x1DF7      |        7671 |
|      19 | 0x1DF8      |        7672 |
|      20 | 0x1DF9      |        7673 |
|      21 | 0x004B      |          75 |
|      22 | 0x004C      |          76 |
|      23 | 0x003C      |          60 |
|      24 | 0x0001      |           1 |
|      25 | 0x000C      |          12 |
|      26 | 0xFFFED6C4  |  4294891204 |
|      27 | 0xFFFDEB5B  |  4294830939 |
|      28 | 0x000B      |          11 |
|      29 | 0xFFFE8B97  |  4294871959 |
|      30 | 0xFFFD9E68  |  4294811240 |
|      31 | 0xFFFF0D87  |  4294905223 |
|      32 | 0xFFFEA0EF  |  4294877423 |
|      33 | 0x176F      |        5999 |
|      34 | 0x0A3A      |        2618 |
|      35 | 0xFFFEB818  |  4294883352 |
|      36 | 0xFFFE098F  |  4294838671 |
|      37 | 0xFFFEF410  |  4294898704 |
|      38 | 0xFFFE85B9  |  4294870457 |
|      39 | 0xFFFEEC91  |  4294896785 |
|      40 | 0xFFFE6EA2  |  4294864546 |
|      41 | 0x0A2A      |        2602 |
|      42 | 0xFFFEE552  |  4294894930 |
|      43 | 0xFFFE3269  |  4294849129 |
|      44 | 0x0A39      |        2617 |
|      45 | 0x0045      |          69 |
|      46 | 0xFFFF2160  |  4294910304 |
|      47 | 0xFFFEA80E  |  4294879246 |
|      48 | 0x0A3D      |        2621 |
|      49 | 0x0A43      |        2627 |
|      50 | 0xFFFFB20E  |  4294947342 |
|      51 | 0xFFFFAE2A  |  4294946346 |
|      52 | 0xFFFEDC35  |  4294892597 |
|      53 | 0xFFFE5D95  |  4294860181 |
|      54 | 0x0A47      |        2631 |
|      55 | 0x0055      |          85 |
|      56 | 0xFFFFB26F  |  4294947439 |
|      57 | 0xFFFFAB30  |  4294945584 |
|      58 | 0x000E      |          14 |
|      59 | 0xFFFF6C7D  |  4294929533 |
|      60 | 0xFFFF0AA4  |  4294904484 |
|      61 | 0xFFFFCBCA  |  4294953930 |
|      62 | 0x09E0      |        2528 |
|      63 | 0xFFFFFE3F  |  4294966847 |
|      64 | 0x0028      |          40 |
|      65 | 0x0029      |          41 |
|      66 | 0xFFFEEA26  |  4294896166 |
|      67 | 0xFFFE4F39  |  4294856505 |
|      68 | 0xFFFED8EC  |  4294891756 |
|      69 | 0xFFFE38BF  |  4294850751 |
|      70 | 0xFFFEC5BC  |  4294886844 |
|      71 | 0xFFFE1640  |  4294841920 |
|      72 | 0x03E7      |         999 |
|      73 | 0x0A33      |        2611 |
|      74 | 0x000D      |          13 |
|      75 | 0xFFFF04E1  |  4294903009 |
|      76 | 0xFFFE7108  |  4294865160 |
|      77 | 0x108C      |        4236 |
|      78 | 0x10F0      |        4336 |
|      79 | 0xFFFFC3F0  |  4294951920 |
|      80 | 0xFFFFA321  |  4294943521 |
|      81 | 0xFFFFFF9B  |  4294967195 |
|      82 | 0x000A      |          10 |
|      83 | 0x0A18      |        2584 |
|      84 | 0xFFFFFC21  |  4294966305 |
|      85 | 0x084B      |        2123 |
|      86 | 0x0008      |           8 |
|      87 | 0x0033      |          51 |
|      88 | 0xFFFF0DFA  |  4294905338 |
|      89 | 0xFFFE6C9D  |  4294864029 |
|      90 | 0xFFFEFBE3  |  4294900707 |
|      91 | 0xFFFE9775  |  4294874997 |
|      92 | 0xFFFF19CD  |  4294908365 |
|      93 | 0xFFFEAC62  |  4294880354 |
|      94 | 0xFFFECE8B  |  4294889099 |
|      95 | 0xFFFE3998  |  4294850968 |
|      96 | 0x0F9F      |        3999 |
|      97 | 0x0A17      |        2583 |
|      98 | 0xFFFFD965  |  4294957413 |
|      99 | 0xFFFFD99E  |  4294957470 |
|     100 | 0x0009      |           9 |
|     101 | 0xFFFEE68C  |  4294895244 |
|     102 | 0xFFFE6FBD  |  4294864829 |
|     103 | 0xFFFFE923  |  4294961443 |
|     104 | 0xFFFFEBBA  |  4294962106 |
|     105 | 0xFFFF4F66  |  4294922086 |
|     106 | 0xFFFEA394  |  4294878100 |
|     107 | 0xFFFFE891  |  4294961297 |
|     108 | 0xFFFFB859  |  4294948953 |
|     109 | 0xFFFFDFA2  |  4294959010 |
|     110 | 0xFFFFB9ED  |  4294949357 |
|     111 | 0xFFFFBF3D  |  4294950717 |
|     112 | 0xFFFFF407  |  4294964231 |
|     113 | 0xFFFFE105  |  4294959365 |
|     114 | 0x0A40      |        2624 |
|     115 | 0xFFFF6A1D  |  4294928925 |
|     116 | 0xFFFEF858  |  4294899800 |
|     117 | 0xFFFFEA43  |  4294961731 |
|     118 | 0xFFFFF8F4  |  4294965492 |
|     119 | 0x0002      |           2 |
|     120 | 0xFFFFF533  |  4294964531 |
|     121 | 0x13C3      |        5059 |

## Events

### Event 65535

#### Metadata

| Field        | Value   |
|--------------|---------|
| Entrypoint   | 0x0000  |
| Data Size    | 1 bytes |
| Instructions | 1       |

```
      00 01 02 03 04 05 06 07  08 09 0A 0B 0C 0D 0E 0F
      -- -- -- -- -- -- -- --  -- -- -- -- -- -- -- --
0000: 00                                                .               
```

#### Opcodes

```
  0: 0x0000 [0x00] END_REQSTACK()
```

### Event 58

#### Metadata

| Field        | Value     |
|--------------|-----------|
| Entrypoint   | 0x0001    |
| Data Size    | 178 bytes |
| Instructions | 29        |

```
      00 01 02 03 04 05 06 07  08 09 0A 0B 0C 0D 0E 0F
      -- -- -- -- -- -- -- --  -- -- -- -- -- -- -- --
0000:    42 2B 12 50 0F 01 00  80 23 4A 11 50 0F 01 12   B+.P....#J.P...
0010: 50 0F 01 4A 13 50 0F 01  12 50 0F 01 27 03 11 50  P..J.P...P..'..P
0020: 0F 01 02 1C 01 80 4A 12  50 0F 01 13 50 0F 01 2B  ......J.P...P..+
0030: 13 50 0F 01 02 80 23 2B  12 50 0F 01 03 80 23 29  .P....#+.P....#)
0040: 04 11 50 0F 01 03 2B 13  50 0F 01 04 80 23 2B 12  ..P...+.P....#+.
0050: 50 0F 01 05 80 23 4A 12  50 0F 01 11 50 0F 01 1C  P....#J.P...P...
0060: 01 80 2B 12 50 0F 01 06  80 23 45 07 80 F0 FF FF  ..+.P....#E.....
0070: 7F F0 FF FF 7F 66 64 6F  31 08 80 55 07 80 F0 FF  .....fdo1..U....
0080: FF 7F F0 FF FF 7F 66 64  6F 31 45 09 80 F0 FF FF  ......fdo1E.....
0090: 7F F0 FF FF 7F 6E 61 6B  31 08 80 1C 0A 80 46 00  .....nak1.....F.
00A0: 45 07 80 F0 FF FF 7F F0  FF FF 7F 66 64 69 31 08  E..........fdi1.
00B0: 80 21 00                                          .!.             
```

#### Opcodes

```
  0: 0x0001 [0x42] SET_CLI_EVENT_CANCEL_DATA()
  1: 0x0002 [0x2B] Tovrutaux (ID: 17780754/0x010F5012) [7657*]:
    → "I knew that wild chocobos smell, but even domesticated ones reek terribly!"
  2: 0x0009 [0x23] WAIT_FOR_DIALOG_INTERACTION
  3: 0x000A [0x4A] Chocobo (ID: 17780753/0x010F5011) looks at Tovrutaux (ID: 17780754/0x010F5012)
  4: 0x0013 [0x4A] Seyaya (ID: 17780755/0x010F5013) looks at Tovrutaux (ID: 17780754/0x010F5012)
  5: 0x001C [0x27] REQ_SET(priority=0x03, entity_id=Chocobo (ID: 17780753/0x010F5011), tag_num=0x02)
  6: 0x0023 [0x1C] WAIT(30* ticks)
  7: 0x0026 [0x4A] Tovrutaux (ID: 17780754/0x010F5012) looks at Seyaya (ID: 17780755/0x010F5013)
  8: 0x002F [0x2B] Seyaya (ID: 17780755/0x010F5013) [7658*]:
    → "Don't say thataru! The chocobo'll get mad."
  9: 0x0036 [0x23] WAIT_FOR_DIALOG_INTERACTION
 10: 0x0037 [0x2B] Tovrutaux (ID: 17780754/0x010F5012) [7659*]:
    → "Nonsense! Chocobos cannot understand us."
 11: 0x003E [0x23] WAIT_FOR_DIALOG_INTERACTION
 12: 0x003F [0x29] REQ_SET_WAIT(priority=0x04, entity_id=Chocobo (ID: 17780753/0x010F5011), tag_num=0x03)
 13: 0x0046 [0x2B] Seyaya (ID: 17780755/0x010F5013) [7660*]:
    → "Uh-oh..."
 14: 0x004D [0x23] WAIT_FOR_DIALOG_INTERACTION
 15: 0x004E [0x2B] Tovrutaux (ID: 17780754/0x010F5012) [7661*]:
    → "What is it?"
 16: 0x0055 [0x23] WAIT_FOR_DIALOG_INTERACTION
 17: 0x0056 [0x4A] Tovrutaux (ID: 17780754/0x010F5012) looks at Chocobo (ID: 17780753/0x010F5011)
 18: 0x005F [0x1C] WAIT(30* ticks)
 19: 0x0062 [0x2B] Tovrutaux (ID: 17780754/0x010F5012) [7662*]:
    → "Yaaah!"
 20: 0x0069 [0x23] WAIT_FOR_DIALOG_INTERACTION
 21: 0x006A [0x45] LOAD_SCHEDULED_TASK: Load scheduler "fdo1" with entities [LocalPlayer, LocalPlayer], work=[200*, 0*]
 22: 0x007B [0x55] WAIT_LOAD_SCHEDULER: Wait for scheduler "fdo1" with entities [LocalPlayer, LocalPlayer], work=200*
 23: 0x008A [0x45] LOAD_SCHEDULED_TASK: Load scheduler "nak1" with entities [LocalPlayer, LocalPlayer], work=[144*, 0*]
 24: 0x009B [0x1C] WAIT(90* ticks)
 25: 0x009E [0x46] CAMERA_CONTROL: Restore default settings
 26: 0x00A0 [0x45] LOAD_SCHEDULED_TASK: Load scheduler "fdi1" with entities [LocalPlayer, LocalPlayer], work=[200*, 0*]
 27: 0x00B1 [0x21] END_EVENT
 28: 0x00B2 [0x00] END_REQSTACK()
```

### Event 59

#### Metadata

| Field        | Value    |
|--------------|----------|
| Entrypoint   | 0x00B3   |
| Data Size    | 15 bytes |
| Instructions | 5        |

```
      00 01 02 03 04 05 06 07  08 09 0A 0B 0C 0D 0E 0F
      -- -- -- -- -- -- -- --  -- -- -- -- -- -- -- --
00B0:          1E F0 FF FF 7F  2B 12 50 0F 01 0B 80 23     .....+.P....#
00C0: 21 00                                             !.              
```

#### Opcodes

```
  0: 0x00B3 [0x1E] EventEntity looks at LocalPlayer and starts talking
  1: 0x00B8 [0x2B] Tovrutaux (ID: 17780754/0x010F5012) [7663*]:
    → "Why, that chocobo bit me! Curse him and all his flock!"
  2: 0x00BF [0x23] WAIT_FOR_DIALOG_INTERACTION
  3: 0x00C0 [0x21] END_EVENT
  4: 0x00C1 [0x00] END_REQSTACK()
```

### Event 65

#### Metadata

| Field        | Value    |
|--------------|----------|
| Entrypoint   | 0x00C2   |
| Data Size    | 40 bytes |
| Instructions | 10       |

```
      00 01 02 03 04 05 06 07  08 09 0A 0B 0C 0D 0E 0F
      -- -- -- -- -- -- -- --  -- -- -- -- -- -- -- --
00C0:       1E F0 FF FF 7F 4A  13 50 0F 01 F0 FF FF 7F    .....J.P......
00D0: 2B 12 50 0F 01 0C 80 23  2B 13 50 0F 01 0D 80 23  +.P....#+.P....#
00E0: 2B 12 50 0F 01 0E 80 23  21 00                    +.P....#!.      
```

#### Opcodes

```
  0: 0x00C2 [0x1E] EventEntity looks at LocalPlayer and starts talking
  1: 0x00C7 [0x4A] Seyaya (ID: 17780755/0x010F5013) looks at LocalPlayer
  2: 0x00D0 [0x2B] Tovrutaux (ID: 17780754/0x010F5012) [7665*]:
    → "That man from the chocobo corral sure was scary."
  3: 0x00D7 [0x23] WAIT_FOR_DIALOG_INTERACTION
  4: 0x00D8 [0x2B] Seyaya (ID: 17780755/0x010F5013) [7666*]:
    → "He started yelling at the chocobos for no reason. I'm sure they were terrified of him."
  5: 0x00DF [0x23] WAIT_FOR_DIALOG_INTERACTION
  6: 0x00E0 [0x2B] Tovrutaux (ID: 17780754/0x010F5012) [7667*]:
    → "But he obviously loves his son a lot. How strange..."
  7: 0x00E7 [0x23] WAIT_FOR_DIALOG_INTERACTION
  8: 0x00E8 [0x21] END_EVENT
  9: 0x00E9 [0x00] END_REQSTACK()
```

### Event 62

#### Metadata

| Field        | Value    |
|--------------|----------|
| Entrypoint   | 0x00EA   |
| Data Size    | 40 bytes |
| Instructions | 10       |

```
      00 01 02 03 04 05 06 07  08 09 0A 0B 0C 0D 0E 0F
      -- -- -- -- -- -- -- --  -- -- -- -- -- -- -- --
00E0:                                1E F0 FF FF 7F 4A            .....J
00F0: 13 50 0F 01 F0 FF FF 7F  2B 12 50 0F 01 0F 80 23  .P......+.P....#
0100: 2B 13 50 0F 01 10 80 23  2B 12 50 0F 01 11 80 23  +.P....#+.P....#
0110: 21 00                                             !.              
```

#### Opcodes

```
  0: 0x00EA [0x1E] EventEntity looks at LocalPlayer and starts talking
  1: 0x00EF [0x4A] Seyaya (ID: 17780755/0x010F5013) looks at LocalPlayer
  2: 0x00F8 [0x2B] Tovrutaux (ID: 17780754/0x010F5012) [7668*]:
    → "I heard that poor chocobo master's son got sick. Now he's got to watch over both his son and his chocobos. Poor guy..."
  3: 0x00FF [0x23] WAIT_FOR_DIALOG_INTERACTION
  4: 0x0100 [0x2B] Seyaya (ID: 17780755/0x010F5013) [7669*]:
    → "Did you hear? He lost his wife after she got sick a long time ago. He was so poor, he couldn't afford any medicine for her."
  5: 0x0107 [0x23] WAIT_FOR_DIALOG_INTERACTION
  6: 0x0108 [0x2B] Tovrutaux (ID: 17780754/0x010F5012) [7670*]:
    → "He got so scary after she died."
  7: 0x010F [0x23] WAIT_FOR_DIALOG_INTERACTION
  8: 0x0110 [0x21] END_EVENT
  9: 0x0111 [0x00] END_REQSTACK()
```

### Event 61

#### Metadata

| Field        | Value    |
|--------------|----------|
| Entrypoint   | 0x0112   |
| Data Size    | 40 bytes |
| Instructions | 10       |

```
      00 01 02 03 04 05 06 07  08 09 0A 0B 0C 0D 0E 0F
      -- -- -- -- -- -- -- --  -- -- -- -- -- -- -- --
0110:       1E F0 FF FF 7F 4A  13 50 0F 01 F0 FF FF 7F    .....J.P......
0120: 2B 12 50 0F 01 12 80 23  2B 13 50 0F 01 13 80 23  +.P....#+.P....#
0130: 2B 12 50 0F 01 14 80 23  21 00                    +.P....#!.      
```

#### Opcodes

```
  0: 0x0112 [0x1E] EventEntity looks at LocalPlayer and starts talking
  1: 0x0117 [0x4A] Seyaya (ID: 17780755/0x010F5013) looks at LocalPlayer
  2: 0x0120 [0x2B] Tovrutaux (ID: 17780754/0x010F5012) [7671*]:
    → "I heard that the chocobo master's son got better. Sometimes I hear him laughing again."
  3: 0x0127 [0x23] WAIT_FOR_DIALOG_INTERACTION
  4: 0x0128 [0x2B] Seyaya (ID: 17780755/0x010F5013) [7672*]:
    → "I'm so surprised. That chocobo master doesn't get angry at the chocobos anymore. I hope he stays that way forever."
  5: 0x012F [0x23] WAIT_FOR_DIALOG_INTERACTION
  6: 0x0130 [0x2B] Tovrutaux (ID: 17780754/0x010F5012) [7673*]:
    → "Yeah, really!"
  7: 0x0137 [0x23] WAIT_FOR_DIALOG_INTERACTION
  8: 0x0138 [0x21] END_EVENT
  9: 0x0139 [0x00] END_REQSTACK()
```

### Event 65535.1

#### Metadata

| Field        | Value    |
|--------------|----------|
| Entrypoint   | 0x013A   |
| Data Size    | 19 bytes |
| Instructions | 3        |

```
      00 01 02 03 04 05 06 07  08 09 0A 0B 0C 0D 0E 0F
      -- -- -- -- -- -- -- --  -- -- -- -- -- -- -- --
0130:                                5B 15 80 F8 FF FF            [.....
0140: 7F F8 FF FF 7F 74 6C 6B  30 1C 01 80 00           .....tlk0....   
```

#### Opcodes

```
  0: 0x013A [0x5B] LOAD_EXT_SCHEDULER: Load scheduler "tlk0" with entities [EventEntity, EventEntity], work=75*
  1: 0x0149 [0x1C] WAIT(30* ticks)
  2: 0x014C [0x00] END_REQSTACK()
```

### Event 65535.2

#### Metadata

| Field        | Value    |
|--------------|----------|
| Entrypoint   | 0x014D   |
| Data Size    | 29 bytes |
| Instructions | 3        |

```
      00 01 02 03 04 05 06 07  08 09 0A 0B 0C 0D 0E 0F
      -- -- -- -- -- -- -- --  -- -- -- -- -- -- -- --
0140:                                         5B 15 80               [..
0150: F8 FF FF 7F F8 FF FF 7F  74 68 6B 31 53 F8 FF FF  ........thk1S...
0160: 7F F8 FF FF 7F 74 68 6B  31 00                    .....thk1.      
```

#### Opcodes

```
  0: 0x014D [0x5B] LOAD_EXT_SCHEDULER: Load scheduler "thk1" with entities [EventEntity, EventEntity], work=75*
  1: 0x015C [0x53] WAIT_SCHEDULER_TASK: Wait for scheduler "thk1" with entities [EventEntity, EventEntity]
  2: 0x0169 [0x00] END_REQSTACK()
```

### Event 65535.3

#### Metadata

| Field        | Value    |
|--------------|----------|
| Entrypoint   | 0x016A   |
| Data Size    | 19 bytes |
| Instructions | 3        |

```
      00 01 02 03 04 05 06 07  08 09 0A 0B 0C 0D 0E 0F
      -- -- -- -- -- -- -- --  -- -- -- -- -- -- -- --
0160:                                5B 15 80 F8 FF FF            [.....
0170: 7F F8 FF FF 7F 74 68 6B  32 1C 01 80 00           .....thk2....   
```

#### Opcodes

```
  0: 0x016A [0x5B] LOAD_EXT_SCHEDULER: Load scheduler "thk2" with entities [EventEntity, EventEntity], work=75*
  1: 0x0179 [0x1C] WAIT(30* ticks)
  2: 0x017C [0x00] END_REQSTACK()
```

### Event 65535.4

#### Metadata

| Field        | Value    |
|--------------|----------|
| Entrypoint   | 0x017D   |
| Data Size    | 29 bytes |
| Instructions | 3        |

```
      00 01 02 03 04 05 06 07  08 09 0A 0B 0C 0D 0E 0F
      -- -- -- -- -- -- -- --  -- -- -- -- -- -- -- --
0170:                                         5B 15 80               [..
0180: F8 FF FF 7F F8 FF FF 7F  70 61 73 30 53 F8 FF FF  ........pas0S...
0190: 7F F8 FF FF 7F 70 61 73  30 00                    .....pas0.      
```

#### Opcodes

```
  0: 0x017D [0x5B] LOAD_EXT_SCHEDULER: Load scheduler "pas0" with entities [EventEntity, EventEntity], work=75*
  1: 0x018C [0x53] WAIT_SCHEDULER_TASK: Wait for scheduler "pas0" with entities [EventEntity, EventEntity]
  2: 0x0199 [0x00] END_REQSTACK()
```

### Event 65535.5

#### Metadata

| Field        | Value    |
|--------------|----------|
| Entrypoint   | 0x019A   |
| Data Size    | 29 bytes |
| Instructions | 3        |

```
      00 01 02 03 04 05 06 07  08 09 0A 0B 0C 0D 0E 0F
      -- -- -- -- -- -- -- --  -- -- -- -- -- -- -- --
0190:                                5B 16 80 F8 FF FF            [.....
01A0: 7F F8 FF FF 7F 63 72 79  30 53 F8 FF FF 7F F8 FF  .....cry0S......
01B0: FF 7F 63 72 79 30 00                              ..cry0.         
```

#### Opcodes

```
  0: 0x019A [0x5B] LOAD_EXT_SCHEDULER: Load scheduler "cry0" with entities [EventEntity, EventEntity], work=76*
  1: 0x01A9 [0x53] WAIT_SCHEDULER_TASK: Wait for scheduler "cry0" with entities [EventEntity, EventEntity]
  2: 0x01B6 [0x00] END_REQSTACK()
```

### Event 65535.6

#### Metadata

| Field        | Value   |
|--------------|---------|
| Entrypoint   | 0x01B7  |
| Data Size    | 9 bytes |
| Instructions | 3       |

```
      00 01 02 03 04 05 06 07  08 09 0A 0B 0C 0D 0E 0F
      -- -- -- -- -- -- -- --  -- -- -- -- -- -- -- --
01B0:                      5E  69 64 6C 30 1C 17 80 00         ^idl0....
```

#### Opcodes

```
  0: 0x01B7 [0x5E] EventEntity goes idle (kills current action) (animation: "idl0")
  1: 0x01BC [0x1C] WAIT(60* ticks)
  2: 0x01BF [0x00] END_REQSTACK()
```

### Event 65535.7

#### Metadata

| Field        | Value   |
|--------------|---------|
| Entrypoint   | 0x01C0  |
| Data Size    | 2 bytes |
| Instructions | 1       |

```
      00 01 02 03 04 05 06 07  08 09 0A 0B 0C 0D 0E 0F
      -- -- -- -- -- -- -- --  -- -- -- -- -- -- -- --
01C0: 00 00                                             ..              
```

#### Opcodes

```
  0: 0x01C0 [0x00] END_REQSTACK()
```

#### Data or dead code:

```
# Dead code (unreachable instructions):
     0x01C1 [0x00] END_REQSTACK()
```

### Event 10094

#### Metadata

| Field        | Value   |
|--------------|---------|
| Entrypoint   | 0x01C2  |
| Data Size    | 5 bytes |
| Instructions | 2       |

```
      00 01 02 03 04 05 06 07  08 09 0A 0B 0C 0D 0E 0F
      -- -- -- -- -- -- -- --  -- -- -- -- -- -- -- --
01C0:       C0 18 80 00 00                                .....         
```

#### Opcodes

```
  0: 0x01C2 [0xC0] EventEntity->Render.Flags3 |= 0x1000 // Set bit 12 (from 1*)
  1: 0x01C5 [0x00] END_REQSTACK()
```

#### Data or dead code:

```
# Dead code (unreachable instructions):
     0x01C6 [0x00] END_REQSTACK()
```

### Event 65535.8

#### Metadata

| Field        | Value    |
|--------------|----------|
| Entrypoint   | 0x01C7   |
| Data Size    | 20 bytes |
| Instructions | 5        |

```
      00 01 02 03 04 05 06 07  08 09 0A 0B 0C 0D 0E 0F
      -- -- -- -- -- -- -- --  -- -- -- -- -- -- -- --
01C0:                      59  04 0B 50 0F 01 19 80 1F         Y..P.....
01D0: 00 1A 80 1B 80 08 80 1F  01 6F 00                 .........o.     
```

#### Opcodes

```
  0: 0x01C7 [0x59] UPDATE_ENTITY_DATA: Set Garnev (ID: 17780747/0x010F500B) main speed = 12* * 0.1
  1: 0x01CF [0x1F] MOVE_ENTITY: EventEntity moves to X=-76.092*, Z=-136.357*, Y=0.000*
  2: 0x01D7 [0x1F] MOVE_ENTITY: Update entity position (mode=1)
  3: 0x01D9 [0x6F] WAIT_FRAME_DELAY: Yield until WaitTime reaches zero
  4: 0x01DA [0x00] END_REQSTACK()
```

### Event 65535.9

#### Metadata

| Field        | Value    |
|--------------|----------|
| Entrypoint   | 0x01DB   |
| Data Size    | 20 bytes |
| Instructions | 5        |

```
      00 01 02 03 04 05 06 07  08 09 0A 0B 0C 0D 0E 0F
      -- -- -- -- -- -- -- --  -- -- -- -- -- -- -- --
01D0:                                   59 04 1D 50 0F             Y..P.
01E0: 01 1C 80 1F 00 1D 80 1E  80 08 80 1F 01 6F 00     .............o. 
```

#### Opcodes

```
  0: 0x01DB [0x59] UPDATE_ENTITY_DATA: Set Mataligeat (ID: 17780765/0x010F501D) main speed = 11* * 0.1
  1: 0x01E3 [0x1F] MOVE_ENTITY: EventEntity moves to X=-95.337*, Z=-156.056*, Y=0.000*
  2: 0x01EB [0x1F] MOVE_ENTITY: Update entity position (mode=1)
  3: 0x01ED [0x6F] WAIT_FRAME_DELAY: Yield until WaitTime reaches zero
  4: 0x01EE [0x00] END_REQSTACK()
```

### Event 65535.10

#### Metadata

| Field        | Value    |
|--------------|----------|
| Entrypoint   | 0x01EF   |
| Data Size    | 20 bytes |
| Instructions | 5        |

```
      00 01 02 03 04 05 06 07  08 09 0A 0B 0C 0D 0E 0F
      -- -- -- -- -- -- -- --  -- -- -- -- -- -- -- --
01E0:                                               59                 Y
01F0: 04 1D 50 0F 01 1C 80 1F  00 1F 80 20 80 21 80 1F  ..P........ .!..
0200: 01 6F 00                                          .o.             
```

#### Opcodes

```
  0: 0x01EF [0x59] UPDATE_ENTITY_DATA: Set Mataligeat (ID: 17780765/0x010F501D) main speed = 11* * 0.1
  1: 0x01F7 [0x1F] MOVE_ENTITY: EventEntity moves to X=-62.073*, Z=-89.873*, Y=5.999*
  2: 0x01FF [0x1F] MOVE_ENTITY: Update entity position (mode=1)
  3: 0x0201 [0x6F] WAIT_FRAME_DELAY: Yield until WaitTime reaches zero
  4: 0x0202 [0x00] END_REQSTACK()
```

### Event 65535.11

#### Metadata

| Field        | Value    |
|--------------|----------|
| Entrypoint   | 0x0203   |
| Data Size    | 17 bytes |
| Instructions | 2        |

```
      00 01 02 03 04 05 06 07  08 09 0A 0B 0C 0D 0E 0F
      -- -- -- -- -- -- -- --  -- -- -- -- -- -- -- --
0200:          5B 22 80 1D 50  0F 01 1D 50 0F 01 6F 70     ["..P...P..op
0210: 30 30 00 00                                       00..            
```

#### Opcodes

```
  0: 0x0203 [0x5B] LOAD_EXT_SCHEDULER: Load scheduler "op00" with entities [Mataligeat (ID: 17780765/0x010F501D), Mataligeat (ID: 17780765/0x010F501D)], work=2618*
  1: 0x0212 [0x00] END_REQSTACK()
```

#### Data or dead code:

```
# Dead code (unreachable instructions):
     0x0213 [0x00] END_REQSTACK()
```

### Event 65535.12

#### Metadata

| Field        | Value    |
|--------------|----------|
| Entrypoint   | 0x0214   |
| Data Size    | 20 bytes |
| Instructions | 5        |

```
      00 01 02 03 04 05 06 07  08 09 0A 0B 0C 0D 0E 0F
      -- -- -- -- -- -- -- --  -- -- -- -- -- -- -- --
0210:             59 04 3A 50  0F 01 1C 80 1F 00 1D 80      Y.:P........
0220: 1E 80 08 80 1F 01 6F 00                           ......o.        
```

#### Opcodes

```
  0: 0x0214 [0x59] UPDATE_ENTITY_DATA: Set Navisse (ID: 17780794/0x010F503A) main speed = 11* * 0.1
  1: 0x021C [0x1F] MOVE_ENTITY: EventEntity moves to X=-95.337*, Z=-156.056*, Y=0.000*
  2: 0x0224 [0x1F] MOVE_ENTITY: Update entity position (mode=1)
  3: 0x0226 [0x6F] WAIT_FRAME_DELAY: Yield until WaitTime reaches zero
  4: 0x0227 [0x00] END_REQSTACK()
```

### Event 65535.13

#### Metadata

| Field        | Value    |
|--------------|----------|
| Entrypoint   | 0x0228   |
| Data Size    | 20 bytes |
| Instructions | 5        |

```
      00 01 02 03 04 05 06 07  08 09 0A 0B 0C 0D 0E 0F
      -- -- -- -- -- -- -- --  -- -- -- -- -- -- -- --
0220:                          59 04 2C 50 0F 01 19 80          Y.,P....
0230: 1F 00 23 80 24 80 08 80  1F 01 6F 00              ..#.$.....o.    
```

#### Opcodes

```
  0: 0x0228 [0x59] UPDATE_ENTITY_DATA: Set Jazmin (ID: 17780780/0x010F502C) main speed = 12* * 0.1
  1: 0x0230 [0x1F] MOVE_ENTITY: EventEntity moves to X=-83.944*, Z=-128.625*, Y=0.000*
  2: 0x0238 [0x1F] MOVE_ENTITY: Update entity position (mode=1)
  3: 0x023A [0x6F] WAIT_FRAME_DELAY: Yield until WaitTime reaches zero
  4: 0x023B [0x00] END_REQSTACK()
```

### Event 65535.14

#### Metadata

| Field        | Value    |
|--------------|----------|
| Entrypoint   | 0x023C   |
| Data Size    | 19 bytes |
| Instructions | 4        |

```
      00 01 02 03 04 05 06 07  08 09 0A 0B 0C 0D 0E 0F
      -- -- -- -- -- -- -- --  -- -- -- -- -- -- -- --
0230:                                      59 04 2C 50              Y.,P
0240: 0F 01 1C 80 1F 00 25 80  26 80 21 80 1F 01 00     ......%.&.!.... 
```

#### Opcodes

```
  0: 0x023C [0x59] UPDATE_ENTITY_DATA: Set Jazmin (ID: 17780780/0x010F502C) main speed = 11* * 0.1
  1: 0x0244 [0x1F] MOVE_ENTITY: EventEntity moves to X=-68.592*, Z=-96.839*, Y=5.999*
  2: 0x024C [0x1F] MOVE_ENTITY: Update entity position (mode=1)
  3: 0x024E [0x00] END_REQSTACK()
```

### Event 65535.15

#### Metadata

| Field        | Value    |
|--------------|----------|
| Entrypoint   | 0x024F   |
| Data Size    | 19 bytes |
| Instructions | 4        |

```
      00 01 02 03 04 05 06 07  08 09 0A 0B 0C 0D 0E 0F
      -- -- -- -- -- -- -- --  -- -- -- -- -- -- -- --
0240:                                               59                 Y
0250: 04 2C 50 0F 01 1C 80 1F  00 27 80 28 80 21 80 1F  .,P......'.(.!..
0260: 01 00                                             ..              
```

#### Opcodes

```
  0: 0x024F [0x59] UPDATE_ENTITY_DATA: Set Jazmin (ID: 17780780/0x010F502C) main speed = 11* * 0.1
  1: 0x0257 [0x1F] MOVE_ENTITY: EventEntity moves to X=-70.511*, Z=-102.750*, Y=5.999*
  2: 0x025F [0x1F] MOVE_ENTITY: Update entity position (mode=1)
  3: 0x0261 [0x00] END_REQSTACK()
```

### Event 65535.16

#### Metadata

| Field        | Value    |
|--------------|----------|
| Entrypoint   | 0x0262   |
| Data Size    | 16 bytes |
| Instructions | 2        |

```
      00 01 02 03 04 05 06 07  08 09 0A 0B 0C 0D 0E 0F
      -- -- -- -- -- -- -- --  -- -- -- -- -- -- -- --
0260:       5B 29 80 2C 50 0F  01 2C 50 0F 01 6F 70 30    [).,P..,P..op0
0270: 30 00                                             0.              
```

#### Opcodes

```
  0: 0x0262 [0x5B] LOAD_EXT_SCHEDULER: Load scheduler "op00" with entities [Jazmin (ID: 17780780/0x010F502C), Jazmin (ID: 17780780/0x010F502C)], work=2602*
  1: 0x0271 [0x00] END_REQSTACK()
```

### Event 65535.17

#### Metadata

| Field        | Value    |
|--------------|----------|
| Entrypoint   | 0x0272   |
| Data Size    | 16 bytes |
| Instructions | 2        |

```
      00 01 02 03 04 05 06 07  08 09 0A 0B 0C 0D 0E 0F
      -- -- -- -- -- -- -- --  -- -- -- -- -- -- -- --
0270:       5B 29 80 2C 50 0F  01 2C 50 0F 01 6F 70 30    [).,P..,P..op0
0280: 31 00                                             1.              
```

#### Opcodes

```
  0: 0x0272 [0x5B] LOAD_EXT_SCHEDULER: Load scheduler "op01" with entities [Jazmin (ID: 17780780/0x010F502C), Jazmin (ID: 17780780/0x010F502C)], work=2602*
  1: 0x0281 [0x00] END_REQSTACK()
```

### Event 65535.18

#### Metadata

| Field        | Value    |
|--------------|----------|
| Entrypoint   | 0x0282   |
| Data Size    | 20 bytes |
| Instructions | 5        |

```
      00 01 02 03 04 05 06 07  08 09 0A 0B 0C 0D 0E 0F
      -- -- -- -- -- -- -- --  -- -- -- -- -- -- -- --
0280:       59 04 2C 50 0F 01  1C 80 1F 00 2A 80 2B 80    Y.,P......*.+.
0290: 21 80 1F 01 6F 00                                 !...o.          
```

#### Opcodes

```
  0: 0x0282 [0x59] UPDATE_ENTITY_DATA: Set Jazmin (ID: 17780780/0x010F502C) main speed = 11* * 0.1
  1: 0x028A [0x1F] MOVE_ENTITY: EventEntity moves to X=-72.366*, Z=-118.167*, Y=5.999*
  2: 0x0292 [0x1F] MOVE_ENTITY: Update entity position (mode=1)
  3: 0x0294 [0x6F] WAIT_FRAME_DELAY: Yield until WaitTime reaches zero
  4: 0x0295 [0x00] END_REQSTACK()
```

### Event 65535.19

#### Metadata

| Field        | Value    |
|--------------|----------|
| Entrypoint   | 0x0296   |
| Data Size    | 16 bytes |
| Instructions | 2        |

```
      00 01 02 03 04 05 06 07  08 09 0A 0B 0C 0D 0E 0F
      -- -- -- -- -- -- -- --  -- -- -- -- -- -- -- --
0290:                   5B 2C  80 2C 50 0F 01 2C 50 0F        [,.,P..,P.
02A0: 01 6F 70 61 30 00                                 .opa0.          
```

#### Opcodes

```
  0: 0x0296 [0x5B] LOAD_EXT_SCHEDULER: Load scheduler "opa0" with entities [Jazmin (ID: 17780780/0x010F502C), Jazmin (ID: 17780780/0x010F502C)], work=2617*
  1: 0x02A5 [0x00] END_REQSTACK()
```

### Event 65535.20

#### Metadata

| Field        | Value    |
|--------------|----------|
| Entrypoint   | 0x02A6   |
| Data Size    | 16 bytes |
| Instructions | 2        |

```
      00 01 02 03 04 05 06 07  08 09 0A 0B 0C 0D 0E 0F
      -- -- -- -- -- -- -- --  -- -- -- -- -- -- -- --
02A0:                   5B 2C  80 2C 50 0F 01 2C 50 0F        [,.,P..,P.
02B0: 01 6F 70 61 31 00                                 .opa1.          
```

#### Opcodes

```
  0: 0x02A6 [0x5B] LOAD_EXT_SCHEDULER: Load scheduler "opa1" with entities [Jazmin (ID: 17780780/0x010F502C), Jazmin (ID: 17780780/0x010F502C)], work=2617*
  1: 0x02B5 [0x00] END_REQSTACK()
```

### Event 65535.21

#### Metadata

| Field        | Value    |
|--------------|----------|
| Entrypoint   | 0x02B6   |
| Data Size    | 16 bytes |
| Instructions | 2        |

```
      00 01 02 03 04 05 06 07  08 09 0A 0B 0C 0D 0E 0F
      -- -- -- -- -- -- -- --  -- -- -- -- -- -- -- --
02B0:                   5B 2C  80 2C 50 0F 01 2C 50 0F        [,.,P..,P.
02C0: 01 6F 70 61 32 00                                 .opa2.          
```

#### Opcodes

```
  0: 0x02B6 [0x5B] LOAD_EXT_SCHEDULER: Load scheduler "opa2" with entities [Jazmin (ID: 17780780/0x010F502C), Jazmin (ID: 17780780/0x010F502C)], work=2617*
  1: 0x02C5 [0x00] END_REQSTACK()
```

### Event 65535.22

#### Metadata

| Field        | Value    |
|--------------|----------|
| Entrypoint   | 0x02C6   |
| Data Size    | 21 bytes |
| Instructions | 5        |

```
      00 01 02 03 04 05 06 07  08 09 0A 0B 0C 0D 0E 0F
      -- -- -- -- -- -- -- --  -- -- -- -- -- -- -- --
02C0:                   59 04  2E 50 0F 01 19 80 1F 00        Y..P......
02D0: 1A 80 1B 80 08 80 1F 01  6F 00 00                 ........o..     
```

#### Opcodes

```
  0: 0x02C6 [0x59] UPDATE_ENTITY_DATA: Set Bogharg (ID: 17780782/0x010F502E) main speed = 12* * 0.1
  1: 0x02CE [0x1F] MOVE_ENTITY: EventEntity moves to X=-76.092*, Z=-136.357*, Y=0.000*
  2: 0x02D6 [0x1F] MOVE_ENTITY: Update entity position (mode=1)
  3: 0x02D8 [0x6F] WAIT_FRAME_DELAY: Yield until WaitTime reaches zero
  4: 0x02D9 [0x00] END_REQSTACK()
```

#### Data or dead code:

```
# Dead code (unreachable instructions):
     0x02DA [0x00] END_REQSTACK()
```

### Event 65535.23

#### Metadata

| Field        | Value    |
|--------------|----------|
| Entrypoint   | 0x02DB   |
| Data Size    | 16 bytes |
| Instructions | 2        |

```
      00 01 02 03 04 05 06 07  08 09 0A 0B 0C 0D 0E 0F
      -- -- -- -- -- -- -- --  -- -- -- -- -- -- -- --
02D0:                                   66 2D 80 2E 50             f-..P
02E0: 0F 01 2E 50 0F 01 74 68  6B 31 00                 ...P..thk1.     
```

#### Opcodes

```
  0: 0x02DB [0x66] LOAD_EXT_SCHEDULER_MAIN: Load scheduler "thk1" with entities [Bogharg (ID: 17780782/0x010F502E), Bogharg (ID: 17780782/0x010F502E)], work=69*
  1: 0x02EA [0x00] END_REQSTACK()
```

### Event 65535.24

#### Metadata

| Field        | Value    |
|--------------|----------|
| Entrypoint   | 0x02EB   |
| Data Size    | 16 bytes |
| Instructions | 2        |

```
      00 01 02 03 04 05 06 07  08 09 0A 0B 0C 0D 0E 0F
      -- -- -- -- -- -- -- --  -- -- -- -- -- -- -- --
02E0:                                   66 2D 80 2E 50             f-..P
02F0: 0F 01 2E 50 0F 01 74 68  6B 32 00                 ...P..thk2.     
```

#### Opcodes

```
  0: 0x02EB [0x66] LOAD_EXT_SCHEDULER_MAIN: Load scheduler "thk2" with entities [Bogharg (ID: 17780782/0x010F502E), Bogharg (ID: 17780782/0x010F502E)], work=69*
  1: 0x02FA [0x00] END_REQSTACK()
```

### Event 65535.25

#### Metadata

| Field        | Value    |
|--------------|----------|
| Entrypoint   | 0x02FB   |
| Data Size    | 20 bytes |
| Instructions | 5        |

```
      00 01 02 03 04 05 06 07  08 09 0A 0B 0C 0D 0E 0F
      -- -- -- -- -- -- -- --  -- -- -- -- -- -- -- --
02F0:                                   59 04 2E 50 0F             Y..P.
0300: 01 19 80 1F 00 2E 80 2F  80 21 80 1F 01 6F 00     ......./.!...o. 
```

#### Opcodes

```
  0: 0x02FB [0x59] UPDATE_ENTITY_DATA: Set Bogharg (ID: 17780782/0x010F502E) main speed = 12* * 0.1
  1: 0x0303 [0x1F] MOVE_ENTITY: EventEntity moves to X=-56.992*, Z=-88.050*, Y=5.999*
  2: 0x030B [0x1F] MOVE_ENTITY: Update entity position (mode=1)
  3: 0x030D [0x6F] WAIT_FRAME_DELAY: Yield until WaitTime reaches zero
  4: 0x030E [0x00] END_REQSTACK()
```

### Event 65535.26

#### Metadata

| Field        | Value    |
|--------------|----------|
| Entrypoint   | 0x030F   |
| Data Size    | 17 bytes |
| Instructions | 2        |

```
      00 01 02 03 04 05 06 07  08 09 0A 0B 0C 0D 0E 0F
      -- -- -- -- -- -- -- --  -- -- -- -- -- -- -- --
0300:                                               5B                 [
0310: 30 80 2E 50 0F 01 2E 50  0F 01 6F 70 30 30 00 00  0..P...P..op00..
```

#### Opcodes

```
  0: 0x030F [0x5B] LOAD_EXT_SCHEDULER: Load scheduler "op00" with entities [Bogharg (ID: 17780782/0x010F502E), Bogharg (ID: 17780782/0x010F502E)], work=2621*
  1: 0x031E [0x00] END_REQSTACK()
```

#### Data or dead code:

```
# Dead code (unreachable instructions):
     0x031F [0x00] END_REQSTACK()
```

### Event 65535.27

#### Metadata

| Field        | Value    |
|--------------|----------|
| Entrypoint   | 0x0320   |
| Data Size    | 20 bytes |
| Instructions | 5        |

```
      00 01 02 03 04 05 06 07  08 09 0A 0B 0C 0D 0E 0F
      -- -- -- -- -- -- -- --  -- -- -- -- -- -- -- --
0320: 59 04 31 50 0F 01 1C 80  1F 00 23 80 24 80 08 80  Y.1P......#.$...
0330: 1F 01 6F 00                                       ..o.            
```

#### Opcodes

```
  0: 0x0320 [0x59] UPDATE_ENTITY_DATA: Set Nakho Jawantal (ID: 17780785/0x010F5031) main speed = 11* * 0.1
  1: 0x0328 [0x1F] MOVE_ENTITY: EventEntity moves to X=-83.944*, Z=-128.625*, Y=0.000*
  2: 0x0330 [0x1F] MOVE_ENTITY: Update entity position (mode=1)
  3: 0x0332 [0x6F] WAIT_FRAME_DELAY: Yield until WaitTime reaches zero
  4: 0x0333 [0x00] END_REQSTACK()
```

### Event 65535.28

#### Metadata

| Field        | Value    |
|--------------|----------|
| Entrypoint   | 0x0334   |
| Data Size    | 16 bytes |
| Instructions | 2        |

```
      00 01 02 03 04 05 06 07  08 09 0A 0B 0C 0D 0E 0F
      -- -- -- -- -- -- -- --  -- -- -- -- -- -- -- --
0330:             5B 31 80 12  50 0F 01 12 50 0F 01 6F      [1..P...P..o
0340: 70 61 30 00                                       pa0.            
```

#### Opcodes

```
  0: 0x0334 [0x5B] LOAD_EXT_SCHEDULER: Load scheduler "opa0" with entities [Tovrutaux (ID: 17780754/0x010F5012), Tovrutaux (ID: 17780754/0x010F5012)], work=2627*
  1: 0x0343 [0x00] END_REQSTACK()
```

### Event 65535.29

#### Metadata

| Field        | Value    |
|--------------|----------|
| Entrypoint   | 0x0344   |
| Data Size    | 16 bytes |
| Instructions | 2        |

```
      00 01 02 03 04 05 06 07  08 09 0A 0B 0C 0D 0E 0F
      -- -- -- -- -- -- -- --  -- -- -- -- -- -- -- --
0340:             5B 31 80 12  50 0F 01 12 50 0F 01 6F      [1..P...P..o
0350: 70 61 31 00                                       pa1.            
```

#### Opcodes

```
  0: 0x0344 [0x5B] LOAD_EXT_SCHEDULER: Load scheduler "opa1" with entities [Tovrutaux (ID: 17780754/0x010F5012), Tovrutaux (ID: 17780754/0x010F5012)], work=2627*
  1: 0x0353 [0x00] END_REQSTACK()
```

### Event 65535.30

#### Metadata

| Field        | Value    |
|--------------|----------|
| Entrypoint   | 0x0354   |
| Data Size    | 16 bytes |
| Instructions | 2        |

```
      00 01 02 03 04 05 06 07  08 09 0A 0B 0C 0D 0E 0F
      -- -- -- -- -- -- -- --  -- -- -- -- -- -- -- --
0350:             5B 31 80 12  50 0F 01 12 50 0F 01 6F      [1..P...P..o
0360: 70 61 32 00                                       pa2.            
```

#### Opcodes

```
  0: 0x0354 [0x5B] LOAD_EXT_SCHEDULER: Load scheduler "opa2" with entities [Tovrutaux (ID: 17780754/0x010F5012), Tovrutaux (ID: 17780754/0x010F5012)], work=2627*
  1: 0x0363 [0x00] END_REQSTACK()
```

### Event 65535.31

#### Metadata

| Field        | Value    |
|--------------|----------|
| Entrypoint   | 0x0364   |
| Data Size    | 16 bytes |
| Instructions | 2        |

```
      00 01 02 03 04 05 06 07  08 09 0A 0B 0C 0D 0E 0F
      -- -- -- -- -- -- -- --  -- -- -- -- -- -- -- --
0360:             5B 15 80 12  50 0F 01 12 50 0F 01 74      [...P...P..t
0370: 68 6B 31 00                                       hk1.            
```

#### Opcodes

```
  0: 0x0364 [0x5B] LOAD_EXT_SCHEDULER: Load scheduler "thk1" with entities [Tovrutaux (ID: 17780754/0x010F5012), Tovrutaux (ID: 17780754/0x010F5012)], work=75*
  1: 0x0373 [0x00] END_REQSTACK()
```

### Event 65535.32

#### Metadata

| Field        | Value    |
|--------------|----------|
| Entrypoint   | 0x0374   |
| Data Size    | 16 bytes |
| Instructions | 2        |

```
      00 01 02 03 04 05 06 07  08 09 0A 0B 0C 0D 0E 0F
      -- -- -- -- -- -- -- --  -- -- -- -- -- -- -- --
0370:             5B 15 80 12  50 0F 01 12 50 0F 01 74      [...P...P..t
0380: 68 6B 32 00                                       hk2.            
```

#### Opcodes

```
  0: 0x0374 [0x5B] LOAD_EXT_SCHEDULER: Load scheduler "thk2" with entities [Tovrutaux (ID: 17780754/0x010F5012), Tovrutaux (ID: 17780754/0x010F5012)], work=75*
  1: 0x0383 [0x00] END_REQSTACK()
```

### Event 65535.33

#### Metadata

| Field        | Value    |
|--------------|----------|
| Entrypoint   | 0x0384   |
| Data Size    | 16 bytes |
| Instructions | 2        |

```
      00 01 02 03 04 05 06 07  08 09 0A 0B 0C 0D 0E 0F
      -- -- -- -- -- -- -- --  -- -- -- -- -- -- -- --
0380:             5B 15 80 12  50 0F 01 12 50 0F 01 74      [...P...P..t
0390: 6C 6B 30 00                                       lk0.            
```

#### Opcodes

```
  0: 0x0384 [0x5B] LOAD_EXT_SCHEDULER: Load scheduler "tlk0" with entities [Tovrutaux (ID: 17780754/0x010F5012), Tovrutaux (ID: 17780754/0x010F5012)], work=75*
  1: 0x0393 [0x00] END_REQSTACK()
```

### Event 65535.34

#### Metadata

| Field        | Value    |
|--------------|----------|
| Entrypoint   | 0x0394   |
| Data Size    | 16 bytes |
| Instructions | 2        |

```
      00 01 02 03 04 05 06 07  08 09 0A 0B 0C 0D 0E 0F
      -- -- -- -- -- -- -- --  -- -- -- -- -- -- -- --
0390:             5B 15 80 12  50 0F 01 12 50 0F 01 74      [...P...P..t
03A0: 6C 6B 31 00                                       lk1.            
```

#### Opcodes

```
  0: 0x0394 [0x5B] LOAD_EXT_SCHEDULER: Load scheduler "tlk1" with entities [Tovrutaux (ID: 17780754/0x010F5012), Tovrutaux (ID: 17780754/0x010F5012)], work=75*
  1: 0x03A3 [0x00] END_REQSTACK()
```

### Event 65535.35

#### Metadata

| Field        | Value    |
|--------------|----------|
| Entrypoint   | 0x03A4   |
| Data Size    | 12 bytes |
| Instructions | 4        |

```
      00 01 02 03 04 05 06 07  08 09 0A 0B 0C 0D 0E 0F
      -- -- -- -- -- -- -- --  -- -- -- -- -- -- -- --
03A0:             1F 00 32 80  33 80 08 80 1F 01 6F 00      ..2.3.....o.
```

#### Opcodes

```
  0: 0x03A4 [0x1F] MOVE_ENTITY: EventEntity moves to X=-19.954*, Z=-20.950*, Y=0.000*
  1: 0x03AC [0x1F] MOVE_ENTITY: Update entity position (mode=1)
  2: 0x03AE [0x6F] WAIT_FRAME_DELAY: Yield until WaitTime reaches zero
  3: 0x03AF [0x00] END_REQSTACK()
```

### Event 65535.36

#### Metadata

| Field        | Value    |
|--------------|----------|
| Entrypoint   | 0x03B0   |
| Data Size    | 20 bytes |
| Instructions | 5        |

```
      00 01 02 03 04 05 06 07  08 09 0A 0B 0C 0D 0E 0F
      -- -- -- -- -- -- -- --  -- -- -- -- -- -- -- --
03B0: 59 04 13 50 0F 01 1C 80  1F 00 34 80 35 80 21 80  Y..P......4.5.!.
03C0: 1F 01 6F 00                                       ..o.            
```

#### Opcodes

```
  0: 0x03B0 [0x59] UPDATE_ENTITY_DATA: Set Seyaya (ID: 17780755/0x010F5013) main speed = 11* * 0.1
  1: 0x03B8 [0x1F] MOVE_ENTITY: EventEntity moves to X=-74.699*, Z=-107.115*, Y=5.999*
  2: 0x03C0 [0x1F] MOVE_ENTITY: Update entity position (mode=1)
  3: 0x03C2 [0x6F] WAIT_FRAME_DELAY: Yield until WaitTime reaches zero
  4: 0x03C3 [0x00] END_REQSTACK()
```

### Event 65535.37

#### Metadata

| Field        | Value    |
|--------------|----------|
| Entrypoint   | 0x03C4   |
| Data Size    | 17 bytes |
| Instructions | 2        |

```
      00 01 02 03 04 05 06 07  08 09 0A 0B 0C 0D 0E 0F
      -- -- -- -- -- -- -- --  -- -- -- -- -- -- -- --
03C0:             5B 36 80 13  50 0F 01 13 50 0F 01 6F      [6..P...P..o
03D0: 70 61 30 00 00                                    pa0..           
```

#### Opcodes

```
  0: 0x03C4 [0x5B] LOAD_EXT_SCHEDULER: Load scheduler "opa0" with entities [Seyaya (ID: 17780755/0x010F5013), Seyaya (ID: 17780755/0x010F5013)], work=2631*
  1: 0x03D3 [0x00] END_REQSTACK()
```

#### Data or dead code:

```
# Dead code (unreachable instructions):
     0x03D4 [0x00] END_REQSTACK()
```

### Event 65535.38

#### Metadata

| Field        | Value    |
|--------------|----------|
| Entrypoint   | 0x03D5   |
| Data Size    | 17 bytes |
| Instructions | 2        |

```
      00 01 02 03 04 05 06 07  08 09 0A 0B 0C 0D 0E 0F
      -- -- -- -- -- -- -- --  -- -- -- -- -- -- -- --
03D0:                5B 36 80  13 50 0F 01 13 50 0F 01       [6..P...P..
03E0: 6F 70 61 31 00 00                                 opa1..          
```

#### Opcodes

```
  0: 0x03D5 [0x5B] LOAD_EXT_SCHEDULER: Load scheduler "opa1" with entities [Seyaya (ID: 17780755/0x010F5013), Seyaya (ID: 17780755/0x010F5013)], work=2631*
  1: 0x03E4 [0x00] END_REQSTACK()
```

#### Data or dead code:

```
# Dead code (unreachable instructions):
     0x03E5 [0x00] END_REQSTACK()
```

### Event 65535.39

#### Metadata

| Field        | Value    |
|--------------|----------|
| Entrypoint   | 0x03E6   |
| Data Size    | 16 bytes |
| Instructions | 2        |

```
      00 01 02 03 04 05 06 07  08 09 0A 0B 0C 0D 0E 0F
      -- -- -- -- -- -- -- --  -- -- -- -- -- -- -- --
03E0:                   5B 36  80 13 50 0F 01 13 50 0F        [6..P...P.
03F0: 01 6F 70 61 32 00                                 .opa2.          
```

#### Opcodes

```
  0: 0x03E6 [0x5B] LOAD_EXT_SCHEDULER: Load scheduler "opa2" with entities [Seyaya (ID: 17780755/0x010F5013), Seyaya (ID: 17780755/0x010F5013)], work=2631*
  1: 0x03F5 [0x00] END_REQSTACK()
```

### Event 65535.40

#### Metadata

| Field        | Value    |
|--------------|----------|
| Entrypoint   | 0x03F6   |
| Data Size    | 16 bytes |
| Instructions | 2        |

```
      00 01 02 03 04 05 06 07  08 09 0A 0B 0C 0D 0E 0F
      -- -- -- -- -- -- -- --  -- -- -- -- -- -- -- --
03F0:                   5B 37  80 13 50 0F 01 13 50 0F        [7..P...P.
0400: 01 74 68 6B 31 00                                 .thk1.          
```

#### Opcodes

```
  0: 0x03F6 [0x5B] LOAD_EXT_SCHEDULER: Load scheduler "thk1" with entities [Seyaya (ID: 17780755/0x010F5013), Seyaya (ID: 17780755/0x010F5013)], work=85*
  1: 0x0405 [0x00] END_REQSTACK()
```

### Event 65535.41

#### Metadata

| Field        | Value    |
|--------------|----------|
| Entrypoint   | 0x0406   |
| Data Size    | 16 bytes |
| Instructions | 2        |

```
      00 01 02 03 04 05 06 07  08 09 0A 0B 0C 0D 0E 0F
      -- -- -- -- -- -- -- --  -- -- -- -- -- -- -- --
0400:                   5B 37  80 13 50 0F 01 13 50 0F        [7..P...P.
0410: 01 74 68 6B 32 00                                 .thk2.          
```

#### Opcodes

```
  0: 0x0406 [0x5B] LOAD_EXT_SCHEDULER: Load scheduler "thk2" with entities [Seyaya (ID: 17780755/0x010F5013), Seyaya (ID: 17780755/0x010F5013)], work=85*
  1: 0x0415 [0x00] END_REQSTACK()
```

### Event 65535.42

#### Metadata

| Field        | Value    |
|--------------|----------|
| Entrypoint   | 0x0416   |
| Data Size    | 16 bytes |
| Instructions | 2        |

```
      00 01 02 03 04 05 06 07  08 09 0A 0B 0C 0D 0E 0F
      -- -- -- -- -- -- -- --  -- -- -- -- -- -- -- --
0410:                   5B 37  80 13 50 0F 01 13 50 0F        [7..P...P.
0420: 01 74 6C 6B 30 00                                 .tlk0.          
```

#### Opcodes

```
  0: 0x0416 [0x5B] LOAD_EXT_SCHEDULER: Load scheduler "tlk0" with entities [Seyaya (ID: 17780755/0x010F5013), Seyaya (ID: 17780755/0x010F5013)], work=85*
  1: 0x0425 [0x00] END_REQSTACK()
```

### Event 65535.43

#### Metadata

| Field        | Value    |
|--------------|----------|
| Entrypoint   | 0x0426   |
| Data Size    | 16 bytes |
| Instructions | 2        |

```
      00 01 02 03 04 05 06 07  08 09 0A 0B 0C 0D 0E 0F
      -- -- -- -- -- -- -- --  -- -- -- -- -- -- -- --
0420:                   5B 37  80 13 50 0F 01 13 50 0F        [7..P...P.
0430: 01 74 6C 6B 65 00                                 .tlke.          
```

#### Opcodes

```
  0: 0x0426 [0x5B] LOAD_EXT_SCHEDULER: Load scheduler "tlke" with entities [Seyaya (ID: 17780755/0x010F5013), Seyaya (ID: 17780755/0x010F5013)], work=85*
  1: 0x0435 [0x00] END_REQSTACK()
```

### Event 65535.44

#### Metadata

| Field        | Value    |
|--------------|----------|
| Entrypoint   | 0x0436   |
| Data Size    | 16 bytes |
| Instructions | 2        |

```
      00 01 02 03 04 05 06 07  08 09 0A 0B 0C 0D 0E 0F
      -- -- -- -- -- -- -- --  -- -- -- -- -- -- -- --
0430:                   5B 37  80 13 50 0F 01 13 50 0F        [7..P...P.
0440: 01 62 61 6E 30 00                                 .ban0.          
```

#### Opcodes

```
  0: 0x0436 [0x5B] LOAD_EXT_SCHEDULER: Load scheduler "ban0" with entities [Seyaya (ID: 17780755/0x010F5013), Seyaya (ID: 17780755/0x010F5013)], work=85*
  1: 0x0445 [0x00] END_REQSTACK()
```

### Event 65535.45

#### Metadata

| Field        | Value    |
|--------------|----------|
| Entrypoint   | 0x0446   |
| Data Size    | 13 bytes |
| Instructions | 4        |

```
      00 01 02 03 04 05 06 07  08 09 0A 0B 0C 0D 0E 0F
      -- -- -- -- -- -- -- --  -- -- -- -- -- -- -- --
0440:                   1F 00  38 80 39 80 08 80 1F 01        ..8.9.....
0450: 6F 00 00                                          o..             
```

#### Opcodes

```
  0: 0x0446 [0x1F] MOVE_ENTITY: EventEntity moves to X=-19.857*, Z=-21.712*, Y=0.000*
  1: 0x044E [0x1F] MOVE_ENTITY: Update entity position (mode=1)
  2: 0x0450 [0x6F] WAIT_FRAME_DELAY: Yield until WaitTime reaches zero
  3: 0x0451 [0x00] END_REQSTACK()
```

#### Data or dead code:

```
# Dead code (unreachable instructions):
     0x0452 [0x00] END_REQSTACK()
```

### Event 65535.46

#### Metadata

| Field        | Value    |
|--------------|----------|
| Entrypoint   | 0x0453   |
| Data Size    | 20 bytes |
| Instructions | 5        |

```
      00 01 02 03 04 05 06 07  08 09 0A 0B 0C 0D 0E 0F
      -- -- -- -- -- -- -- --  -- -- -- -- -- -- -- --
0450:          59 04 C0 50 0F  01 3A 80 1F 00 3B 80 3C     Y..P..:...;.<
0460: 80 08 80 1F 01 6F 00                              .....o.         
```

#### Opcodes

```
  0: 0x0453 [0x59] UPDATE_ENTITY_DATA: Set Rakuru-Rakoru (ID: 17780928/0x010F50C0) main speed = 14* * 0.1
  1: 0x045B [0x1F] MOVE_ENTITY: EventEntity moves to X=-37.763*, Z=-62.812*, Y=0.000*
  2: 0x0463 [0x1F] MOVE_ENTITY: Update entity position (mode=1)
  3: 0x0465 [0x6F] WAIT_FRAME_DELAY: Yield until WaitTime reaches zero
  4: 0x0466 [0x00] END_REQSTACK()
```

### Event 65535.47

#### Metadata

| Field        | Value    |
|--------------|----------|
| Entrypoint   | 0x0467   |
| Data Size    | 12 bytes |
| Instructions | 4        |

```
      00 01 02 03 04 05 06 07  08 09 0A 0B 0C 0D 0E 0F
      -- -- -- -- -- -- -- --  -- -- -- -- -- -- -- --
0460:                      1F  00 3D 80 3E 80 3F 80 1F         ..=.>.?..
0470: 01 6F 00                                          .o.             
```

#### Opcodes

```
  0: 0x0467 [0x1F] MOVE_ENTITY: EventEntity moves to X=-13.366*, Z=2.528*, Y=-0.449*
  1: 0x046F [0x1F] MOVE_ENTITY: Update entity position (mode=1)
  2: 0x0471 [0x6F] WAIT_FRAME_DELAY: Yield until WaitTime reaches zero
  3: 0x0472 [0x00] END_REQSTACK()
```

### Event 65535.48

#### Metadata

| Field        | Value    |
|--------------|----------|
| Entrypoint   | 0x0473   |
| Data Size    | 16 bytes |
| Instructions | 2        |

```
      00 01 02 03 04 05 06 07  08 09 0A 0B 0C 0D 0E 0F
      -- -- -- -- -- -- -- --  -- -- -- -- -- -- -- --
0470:          66 40 80 C0 50  0F 01 C0 50 0F 01 74 6C     f@..P...P..tl
0480: 6B 30 00                                          k0.             
```

#### Opcodes

```
  0: 0x0473 [0x66] LOAD_EXT_SCHEDULER_MAIN: Load scheduler "tlk0" with entities [Rakuru-Rakoru (ID: 17780928/0x010F50C0), Rakuru-Rakoru (ID: 17780928/0x010F50C0)], work=40*
  1: 0x0482 [0x00] END_REQSTACK()
```

### Event 65535.49

#### Metadata

| Field        | Value    |
|--------------|----------|
| Entrypoint   | 0x0483   |
| Data Size    | 16 bytes |
| Instructions | 2        |

```
      00 01 02 03 04 05 06 07  08 09 0A 0B 0C 0D 0E 0F
      -- -- -- -- -- -- -- --  -- -- -- -- -- -- -- --
0480:          66 41 80 C0 50  0F 01 C0 50 0F 01 65 68     fA..P...P..eh
0490: 6E 31 00                                          n1.             
```

#### Opcodes

```
  0: 0x0483 [0x66] LOAD_EXT_SCHEDULER_MAIN: Load scheduler "ehn1" with entities [Rakuru-Rakoru (ID: 17780928/0x010F50C0), Rakuru-Rakoru (ID: 17780928/0x010F50C0)], work=41*
  1: 0x0492 [0x00] END_REQSTACK()
```

### Event 65535.50

#### Metadata

| Field        | Value    |
|--------------|----------|
| Entrypoint   | 0x0493   |
| Data Size    | 16 bytes |
| Instructions | 2        |

```
      00 01 02 03 04 05 06 07  08 09 0A 0B 0C 0D 0E 0F
      -- -- -- -- -- -- -- --  -- -- -- -- -- -- -- --
0490:          66 40 80 C0 50  0F 01 C0 50 0F 01 6D 6F     f@..P...P..mo
04A0: 6A 30 00                                          j0.             
```

#### Opcodes

```
  0: 0x0493 [0x66] LOAD_EXT_SCHEDULER_MAIN: Load scheduler "moj0" with entities [Rakuru-Rakoru (ID: 17780928/0x010F50C0), Rakuru-Rakoru (ID: 17780928/0x010F50C0)], work=40*
  1: 0x04A2 [0x00] END_REQSTACK()
```

### Event 65535.51

#### Metadata

| Field        | Value    |
|--------------|----------|
| Entrypoint   | 0x04A3   |
| Data Size    | 20 bytes |
| Instructions | 5        |

```
      00 01 02 03 04 05 06 07  08 09 0A 0B 0C 0D 0E 0F
      -- -- -- -- -- -- -- --  -- -- -- -- -- -- -- --
04A0:          59 04 C0 50 0F  01 3A 80 1F 00 42 80 43     Y..P..:...B.C
04B0: 80 21 80 1F 01 6F 00                              .!...o.         
```

#### Opcodes

```
  0: 0x04A3 [0x59] UPDATE_ENTITY_DATA: Set Rakuru-Rakoru (ID: 17780928/0x010F50C0) main speed = 14* * 0.1
  1: 0x04AB [0x1F] MOVE_ENTITY: EventEntity moves to X=-71.130*, Z=-110.791*, Y=5.999*
  2: 0x04B3 [0x1F] MOVE_ENTITY: Update entity position (mode=1)
  3: 0x04B5 [0x6F] WAIT_FRAME_DELAY: Yield until WaitTime reaches zero
  4: 0x04B6 [0x00] END_REQSTACK()
```

### Event 65535.52

#### Metadata

| Field        | Value    |
|--------------|----------|
| Entrypoint   | 0x04B7   |
| Data Size    | 29 bytes |
| Instructions | 6        |

```
      00 01 02 03 04 05 06 07  08 09 0A 0B 0C 0D 0E 0F
      -- -- -- -- -- -- -- --  -- -- -- -- -- -- -- --
04B0:                      59  04 C0 50 0F 01 3A 80 1F         Y..P..:..
04C0: 00 44 80 45 80 21 80 1F  01 5A 00 46 80 47 80 48  .D.E.!...Z.F.G.H
04D0: 80 5A 01 00                                       .Z..            
```

#### Opcodes

```
  0: 0x04B7 [0x59] UPDATE_ENTITY_DATA: Set Rakuru-Rakoru (ID: 17780928/0x010F50C0) main speed = 14* * 0.1
  1: 0x04BF [0x1F] MOVE_ENTITY: EventEntity moves to X=-75.540*, Z=-116.545*, Y=5.999*
  2: 0x04C7 [0x1F] MOVE_ENTITY: Update entity position (mode=1)
  3: 0x04C9 [0x5A] UPDATE_EVENT_POSITION: Set EventEntity MovePosition to X=-80.452*, Z=-125.376*, Y=0.999*
  4: 0x04D1 [0x5A] UPDATE_EVENT_POSITION: Move EventEntity incrementally towards MovePosition
  5: 0x04D3 [0x00] END_REQSTACK()
```

### Event 65535.53

#### Metadata

| Field        | Value    |
|--------------|----------|
| Entrypoint   | 0x04D4   |
| Data Size    | 17 bytes |
| Instructions | 2        |

```
      00 01 02 03 04 05 06 07  08 09 0A 0B 0C 0D 0E 0F
      -- -- -- -- -- -- -- --  -- -- -- -- -- -- -- --
04D0:             5B 49 80 C0  50 0F 01 C0 50 0F 01 62      [I..P...P..b
04E0: 6F 70 30 00 00                                    op0..           
```

#### Opcodes

```
  0: 0x04D4 [0x5B] LOAD_EXT_SCHEDULER: Load scheduler "bop0" with entities [Rakuru-Rakoru (ID: 17780928/0x010F50C0), Rakuru-Rakoru (ID: 17780928/0x010F50C0)], work=2611*
  1: 0x04E3 [0x00] END_REQSTACK()
```

#### Data or dead code:

```
# Dead code (unreachable instructions):
     0x04E4 [0x00] END_REQSTACK()
```

### Event 65535.54

#### Metadata

| Field        | Value    |
|--------------|----------|
| Entrypoint   | 0x04E5   |
| Data Size    | 20 bytes |
| Instructions | 5        |

```
      00 01 02 03 04 05 06 07  08 09 0A 0B 0C 0D 0E 0F
      -- -- -- -- -- -- -- --  -- -- -- -- -- -- -- --
04E0:                59 04 25  50 0F 01 4A 80 1F 00 23       Y.%P..J...#
04F0: 80 24 80 08 80 1F 01 6F  00                       .$.....o.       
```

#### Opcodes

```
  0: 0x04E5 [0x59] UPDATE_ENTITY_DATA: Set Sutarara (ID: 17780773/0x010F5025) main speed = 13* * 0.1
  1: 0x04ED [0x1F] MOVE_ENTITY: EventEntity moves to X=-83.944*, Z=-128.625*, Y=0.000*
  2: 0x04F5 [0x1F] MOVE_ENTITY: Update entity position (mode=1)
  3: 0x04F7 [0x6F] WAIT_FRAME_DELAY: Yield until WaitTime reaches zero
  4: 0x04F8 [0x00] END_REQSTACK()
```

### Event 65535.55

#### Metadata

| Field        | Value    |
|--------------|----------|
| Entrypoint   | 0x04F9   |
| Data Size    | 20 bytes |
| Instructions | 5        |

```
      00 01 02 03 04 05 06 07  08 09 0A 0B 0C 0D 0E 0F
      -- -- -- -- -- -- -- --  -- -- -- -- -- -- -- --
04F0:                             59 04 25 50 0F 01 4A           Y.%P..J
0500: 80 1F 00 4B 80 4C 80 21  80 1F 01 6F 00           ...K.L.!...o.   
```

#### Opcodes

```
  0: 0x04F9 [0x59] UPDATE_ENTITY_DATA: Set Sutarara (ID: 17780773/0x010F5025) main speed = 13* * 0.1
  1: 0x0501 [0x1F] MOVE_ENTITY: EventEntity moves to X=-64.287*, Z=-102.136*, Y=5.999*
  2: 0x0509 [0x1F] MOVE_ENTITY: Update entity position (mode=1)
  3: 0x050B [0x6F] WAIT_FRAME_DELAY: Yield until WaitTime reaches zero
  4: 0x050C [0x00] END_REQSTACK()
```

### Event 65535.56

#### Metadata

| Field        | Value    |
|--------------|----------|
| Entrypoint   | 0x050D   |
| Data Size    | 20 bytes |
| Instructions | 5        |

```
      00 01 02 03 04 05 06 07  08 09 0A 0B 0C 0D 0E 0F
      -- -- -- -- -- -- -- --  -- -- -- -- -- -- -- --
0500:                                         59 04 25               Y.%
0510: 50 0F 01 4A 80 1F 00 4D  80 4E 80 08 80 1F 01 6F  P..J...M.N.....o
0520: 00                                                .               
```

#### Opcodes

```
  0: 0x050D [0x59] UPDATE_ENTITY_DATA: Set Sutarara (ID: 17780773/0x010F5025) main speed = 13* * 0.1
  1: 0x0515 [0x1F] MOVE_ENTITY: EventEntity moves to X=4.236*, Z=4.336*, Y=0.000*
  2: 0x051D [0x1F] MOVE_ENTITY: Update entity position (mode=1)
  3: 0x051F [0x6F] WAIT_FRAME_DELAY: Yield until WaitTime reaches zero
  4: 0x0520 [0x00] END_REQSTACK()
```

### Event 65535.57

#### Metadata

| Field        | Value    |
|--------------|----------|
| Entrypoint   | 0x0521   |
| Data Size    | 20 bytes |
| Instructions | 5        |

```
      00 01 02 03 04 05 06 07  08 09 0A 0B 0C 0D 0E 0F
      -- -- -- -- -- -- -- --  -- -- -- -- -- -- -- --
0520:    59 04 34 50 0F 01 19  80 1F 00 4F 80 50 80 51   Y.4P......O.P.Q
0530: 80 1F 01 6F 00                                    ...o.           
```

#### Opcodes

```
  0: 0x0521 [0x59] UPDATE_ENTITY_DATA: Set Venika (ID: 17780788/0x010F5034) main speed = 12* * 0.1
  1: 0x0529 [0x1F] MOVE_ENTITY: EventEntity moves to X=-15.376*, Z=-23.775*, Y=-0.101*
  2: 0x0531 [0x1F] MOVE_ENTITY: Update entity position (mode=1)
  3: 0x0533 [0x6F] WAIT_FRAME_DELAY: Yield until WaitTime reaches zero
  4: 0x0534 [0x00] END_REQSTACK()
```

### Event 65535.58

#### Metadata

| Field        | Value    |
|--------------|----------|
| Entrypoint   | 0x0535   |
| Data Size    | 20 bytes |
| Instructions | 5        |

```
      00 01 02 03 04 05 06 07  08 09 0A 0B 0C 0D 0E 0F
      -- -- -- -- -- -- -- --  -- -- -- -- -- -- -- --
0530:                59 04 34  50 0F 01 52 80 1F 00 4B       Y.4P..R...K
0540: 80 4C 80 21 80 1F 01 6F  00                       .L.!...o.       
```

#### Opcodes

```
  0: 0x0535 [0x59] UPDATE_ENTITY_DATA: Set Venika (ID: 17780788/0x010F5034) main speed = 10* * 0.1
  1: 0x053D [0x1F] MOVE_ENTITY: EventEntity moves to X=-64.287*, Z=-102.136*, Y=5.999*
  2: 0x0545 [0x1F] MOVE_ENTITY: Update entity position (mode=1)
  3: 0x0547 [0x6F] WAIT_FRAME_DELAY: Yield until WaitTime reaches zero
  4: 0x0548 [0x00] END_REQSTACK()
```

### Event 65535.59

#### Metadata

| Field        | Value    |
|--------------|----------|
| Entrypoint   | 0x0549   |
| Data Size    | 16 bytes |
| Instructions | 2        |

```
      00 01 02 03 04 05 06 07  08 09 0A 0B 0C 0D 0E 0F
      -- -- -- -- -- -- -- --  -- -- -- -- -- -- -- --
0540:                             5B 53 80 34 50 0F 01           [S.4P..
0550: 34 50 0F 01 6F 70 62 30  00                       4P..opb0.       
```

#### Opcodes

```
  0: 0x0549 [0x5B] LOAD_EXT_SCHEDULER: Load scheduler "opb0" with entities [Venika (ID: 17780788/0x010F5034), Venika (ID: 17780788/0x010F5034)], work=2584*
  1: 0x0558 [0x00] END_REQSTACK()
```

### Event 65535.60

#### Metadata

| Field        | Value    |
|--------------|----------|
| Entrypoint   | 0x0559   |
| Data Size    | 16 bytes |
| Instructions | 2        |

```
      00 01 02 03 04 05 06 07  08 09 0A 0B 0C 0D 0E 0F
      -- -- -- -- -- -- -- --  -- -- -- -- -- -- -- --
0550:                             5B 53 80 34 50 0F 01           [S.4P..
0560: 34 50 0F 01 6F 70 62 31  00                       4P..opb1.       
```

#### Opcodes

```
  0: 0x0559 [0x5B] LOAD_EXT_SCHEDULER: Load scheduler "opb1" with entities [Venika (ID: 17780788/0x010F5034), Venika (ID: 17780788/0x010F5034)], work=2584*
  1: 0x0568 [0x00] END_REQSTACK()
```

### Event 65535.61

#### Metadata

| Field        | Value    |
|--------------|----------|
| Entrypoint   | 0x0569   |
| Data Size    | 20 bytes |
| Instructions | 5        |

```
      00 01 02 03 04 05 06 07  08 09 0A 0B 0C 0D 0E 0F
      -- -- -- -- -- -- -- --  -- -- -- -- -- -- -- --
0560:                             59 04 34 50 0F 01 19           Y.4P...
0570: 80 1F 00 54 80 55 80 08  80 1F 01 6F 00           ...T.U.....o.   
```

#### Opcodes

```
  0: 0x0569 [0x59] UPDATE_ENTITY_DATA: Set Venika (ID: 17780788/0x010F5034) main speed = 12* * 0.1
  1: 0x0571 [0x1F] MOVE_ENTITY: EventEntity moves to X=-0.991*, Z=2.123*, Y=0.000*
  2: 0x0579 [0x1F] MOVE_ENTITY: Update entity position (mode=1)
  3: 0x057B [0x6F] WAIT_FRAME_DELAY: Yield until WaitTime reaches zero
  4: 0x057C [0x00] END_REQSTACK()
```

### Event 65535.62

#### Metadata

| Field        | Value    |
|--------------|----------|
| Entrypoint   | 0x057D   |
| Data Size    | 16 bytes |
| Instructions | 2        |

```
      00 01 02 03 04 05 06 07  08 09 0A 0B 0C 0D 0E 0F
      -- -- -- -- -- -- -- --  -- -- -- -- -- -- -- --
0570:                                         5B 53 80               [S.
0580: 34 50 0F 01 34 50 0F 01  6F 70 63 30 00           4P..4P..opc0.   
```

#### Opcodes

```
  0: 0x057D [0x5B] LOAD_EXT_SCHEDULER: Load scheduler "opc0" with entities [Venika (ID: 17780788/0x010F5034), Venika (ID: 17780788/0x010F5034)], work=2584*
  1: 0x058C [0x00] END_REQSTACK()
```

### Event 65535.63

#### Metadata

| Field        | Value    |
|--------------|----------|
| Entrypoint   | 0x058D   |
| Data Size    | 16 bytes |
| Instructions | 2        |

```
      00 01 02 03 04 05 06 07  08 09 0A 0B 0C 0D 0E 0F
      -- -- -- -- -- -- -- --  -- -- -- -- -- -- -- --
0580:                                         5B 53 80               [S.
0590: 34 50 0F 01 34 50 0F 01  6F 70 63 31 00           4P..4P..opc1.   
```

#### Opcodes

```
  0: 0x058D [0x5B] LOAD_EXT_SCHEDULER: Load scheduler "opc1" with entities [Venika (ID: 17780788/0x010F5034), Venika (ID: 17780788/0x010F5034)], work=2584*
  1: 0x059C [0x00] END_REQSTACK()
```

### Event 65535.64

#### Metadata

| Field        | Value    |
|--------------|----------|
| Entrypoint   | 0x059D   |
| Data Size    | 16 bytes |
| Instructions | 2        |

```
      00 01 02 03 04 05 06 07  08 09 0A 0B 0C 0D 0E 0F
      -- -- -- -- -- -- -- --  -- -- -- -- -- -- -- --
0590:                                         66 56 80               fV.
05A0: 36 50 0F 01 36 50 0F 01  61 77 77 30 00           6P..6P..aww0.   
```

#### Opcodes

```
  0: 0x059D [0x66] LOAD_EXT_SCHEDULER_MAIN: Load scheduler "aww0" with entities [Kuah Dakonsa (ID: 17780790/0x010F5036), Kuah Dakonsa (ID: 17780790/0x010F5036)], work=8*
  1: 0x05AC [0x00] END_REQSTACK()
```

### Event 65535.65

#### Metadata

| Field        | Value    |
|--------------|----------|
| Entrypoint   | 0x05AD   |
| Data Size    | 16 bytes |
| Instructions | 2        |

```
      00 01 02 03 04 05 06 07  08 09 0A 0B 0C 0D 0E 0F
      -- -- -- -- -- -- -- --  -- -- -- -- -- -- -- --
05A0:                                         66 57 80               fW.
05B0: 36 50 0F 01 36 50 0F 01  74 68 6B 31 00           6P..6P..thk1.   
```

#### Opcodes

```
  0: 0x05AD [0x66] LOAD_EXT_SCHEDULER_MAIN: Load scheduler "thk1" with entities [Kuah Dakonsa (ID: 17780790/0x010F5036), Kuah Dakonsa (ID: 17780790/0x010F5036)], work=51*
  1: 0x05BC [0x00] END_REQSTACK()
```

### Event 65535.66

#### Metadata

| Field        | Value    |
|--------------|----------|
| Entrypoint   | 0x05BD   |
| Data Size    | 21 bytes |
| Instructions | 5        |

```
      00 01 02 03 04 05 06 07  08 09 0A 0B 0C 0D 0E 0F
      -- -- -- -- -- -- -- --  -- -- -- -- -- -- -- --
05B0:                                         59 04 32               Y.2
05C0: 50 0F 01 19 80 1F 00 58  80 59 80 21 80 1F 01 6F  P......X.Y.!...o
05D0: 00 00                                             ..              
```

#### Opcodes

```
  0: 0x05BD [0x59] UPDATE_ENTITY_DATA: Set Gurdern (ID: 17780786/0x010F5032) main speed = 12* * 0.1
  1: 0x05C5 [0x1F] MOVE_ENTITY: EventEntity moves to X=-61.958*, Z=-103.267*, Y=5.999*
  2: 0x05CD [0x1F] MOVE_ENTITY: Update entity position (mode=1)
  3: 0x05CF [0x6F] WAIT_FRAME_DELAY: Yield until WaitTime reaches zero
  4: 0x05D0 [0x00] END_REQSTACK()
```

#### Data or dead code:

```
# Dead code (unreachable instructions):
     0x05D1 [0x00] END_REQSTACK()
```

### Event 65535.67

#### Metadata

| Field        | Value    |
|--------------|----------|
| Entrypoint   | 0x05D2   |
| Data Size    | 20 bytes |
| Instructions | 5        |

```
      00 01 02 03 04 05 06 07  08 09 0A 0B 0C 0D 0E 0F
      -- -- -- -- -- -- -- --  -- -- -- -- -- -- -- --
05D0:       59 04 32 50 0F 01  19 80 1F 00 5A 80 5B 80    Y.2P......Z.[.
05E0: 21 80 1F 01 6F 00                                 !...o.          
```

#### Opcodes

```
  0: 0x05D2 [0x59] UPDATE_ENTITY_DATA: Set Gurdern (ID: 17780786/0x010F5032) main speed = 12* * 0.1
  1: 0x05DA [0x1F] MOVE_ENTITY: EventEntity moves to X=-66.589*, Z=-92.299*, Y=5.999*
  2: 0x05E2 [0x1F] MOVE_ENTITY: Update entity position (mode=1)
  3: 0x05E4 [0x6F] WAIT_FRAME_DELAY: Yield until WaitTime reaches zero
  4: 0x05E5 [0x00] END_REQSTACK()
```

### Event 65535.68

#### Metadata

| Field        | Value    |
|--------------|----------|
| Entrypoint   | 0x05E6   |
| Data Size    | 20 bytes |
| Instructions | 5        |

```
      00 01 02 03 04 05 06 07  08 09 0A 0B 0C 0D 0E 0F
      -- -- -- -- -- -- -- --  -- -- -- -- -- -- -- --
05E0:                   59 04  32 50 0F 01 19 80 1F 00        Y.2P......
05F0: 5C 80 5D 80 21 80 1F 01  6F 00                    \.].!...o.      
```

#### Opcodes

```
  0: 0x05E6 [0x59] UPDATE_ENTITY_DATA: Set Gurdern (ID: 17780786/0x010F5032) main speed = 12* * 0.1
  1: 0x05EE [0x1F] MOVE_ENTITY: EventEntity moves to X=-58.931*, Z=-86.942*, Y=5.999*
  2: 0x05F6 [0x1F] MOVE_ENTITY: Update entity position (mode=1)
  3: 0x05F8 [0x6F] WAIT_FRAME_DELAY: Yield until WaitTime reaches zero
  4: 0x05F9 [0x00] END_REQSTACK()
```

### Event 65535.69

#### Metadata

| Field        | Value    |
|--------------|----------|
| Entrypoint   | 0x05FA   |
| Data Size    | 17 bytes |
| Instructions | 2        |

```
      00 01 02 03 04 05 06 07  08 09 0A 0B 0C 0D 0E 0F
      -- -- -- -- -- -- -- --  -- -- -- -- -- -- -- --
05F0:                                5B 30 80 32 50 0F            [0.2P.
0600: 01 32 50 0F 01 6F 70 30  30 00 00                 .2P..op00..     
```

#### Opcodes

```
  0: 0x05FA [0x5B] LOAD_EXT_SCHEDULER: Load scheduler "op00" with entities [Gurdern (ID: 17780786/0x010F5032), Gurdern (ID: 17780786/0x010F5032)], work=2621*
  1: 0x0609 [0x00] END_REQSTACK()
```

#### Data or dead code:

```
# Dead code (unreachable instructions):
     0x060A [0x00] END_REQSTACK()
```

### Event 65535.70

#### Metadata

| Field        | Value    |
|--------------|----------|
| Entrypoint   | 0x060B   |
| Data Size    | 20 bytes |
| Instructions | 5        |

```
      00 01 02 03 04 05 06 07  08 09 0A 0B 0C 0D 0E 0F
      -- -- -- -- -- -- -- --  -- -- -- -- -- -- -- --
0600:                                   59 04 1C 50 0F             Y..P.
0610: 01 1C 80 1F 00 1D 80 1E  80 08 80 1F 01 6F 00     .............o. 
```

#### Opcodes

```
  0: 0x060B [0x59] UPDATE_ENTITY_DATA: Set Mertaire (ID: 17780764/0x010F501C) main speed = 11* * 0.1
  1: 0x0613 [0x1F] MOVE_ENTITY: EventEntity moves to X=-95.337*, Z=-156.056*, Y=0.000*
  2: 0x061B [0x1F] MOVE_ENTITY: Update entity position (mode=1)
  3: 0x061D [0x6F] WAIT_FRAME_DELAY: Yield until WaitTime reaches zero
  4: 0x061E [0x00] END_REQSTACK()
```

### Event 65535.71

#### Metadata

| Field        | Value    |
|--------------|----------|
| Entrypoint   | 0x061F   |
| Data Size    | 20 bytes |
| Instructions | 5        |

```
      00 01 02 03 04 05 06 07  08 09 0A 0B 0C 0D 0E 0F
      -- -- -- -- -- -- -- --  -- -- -- -- -- -- -- --
0610:                                               59                 Y
0620: 04 1C 50 0F 01 1C 80 1F  00 5E 80 5F 80 60 80 1F  ..P......^._.`..
0630: 01 6F 00                                          .o.             
```

#### Opcodes

```
  0: 0x061F [0x59] UPDATE_ENTITY_DATA: Set Mertaire (ID: 17780764/0x010F501C) main speed = 11* * 0.1
  1: 0x0627 [0x1F] MOVE_ENTITY: EventEntity moves to X=-78.197*, Z=-116.328*, Y=3.999*
  2: 0x062F [0x1F] MOVE_ENTITY: Update entity position (mode=1)
  3: 0x0631 [0x6F] WAIT_FRAME_DELAY: Yield until WaitTime reaches zero
  4: 0x0632 [0x00] END_REQSTACK()
```

### Event 65535.72

#### Metadata

| Field        | Value    |
|--------------|----------|
| Entrypoint   | 0x0633   |
| Data Size    | 16 bytes |
| Instructions | 2        |

```
      00 01 02 03 04 05 06 07  08 09 0A 0B 0C 0D 0E 0F
      -- -- -- -- -- -- -- --  -- -- -- -- -- -- -- --
0630:          5B 61 80 1C 50  0F 01 1C 50 0F 01 6F 70     [a..P...P..op
0640: 63 30 00                                          c0.             
```

#### Opcodes

```
  0: 0x0633 [0x5B] LOAD_EXT_SCHEDULER: Load scheduler "opc0" with entities [Mertaire (ID: 17780764/0x010F501C), Mertaire (ID: 17780764/0x010F501C)], work=2583*
  1: 0x0642 [0x00] END_REQSTACK()
```

### Event 65535.73

#### Metadata

| Field        | Value    |
|--------------|----------|
| Entrypoint   | 0x0643   |
| Data Size    | 16 bytes |
| Instructions | 2        |

```
      00 01 02 03 04 05 06 07  08 09 0A 0B 0C 0D 0E 0F
      -- -- -- -- -- -- -- --  -- -- -- -- -- -- -- --
0640:          5B 61 80 1C 50  0F 01 1C 50 0F 01 6F 70     [a..P...P..op
0650: 63 31 00                                          c1.             
```

#### Opcodes

```
  0: 0x0643 [0x5B] LOAD_EXT_SCHEDULER: Load scheduler "opc1" with entities [Mertaire (ID: 17780764/0x010F501C), Mertaire (ID: 17780764/0x010F501C)], work=2583*
  1: 0x0652 [0x00] END_REQSTACK()
```

### Event 65535.74

#### Metadata

| Field        | Value    |
|--------------|----------|
| Entrypoint   | 0x0653   |
| Data Size    | 21 bytes |
| Instructions | 5        |

```
      00 01 02 03 04 05 06 07  08 09 0A 0B 0C 0D 0E 0F
      -- -- -- -- -- -- -- --  -- -- -- -- -- -- -- --
0650:          59 04 1C 50 0F  01 1C 80 1F 00 62 80 63     Y..P......b.c
0660: 80 08 80 1F 01 6F 00 00                           .....o..        
```

#### Opcodes

```
  0: 0x0653 [0x59] UPDATE_ENTITY_DATA: Set Mertaire (ID: 17780764/0x010F501C) main speed = 11* * 0.1
  1: 0x065B [0x1F] MOVE_ENTITY: EventEntity moves to X=-9.883*, Z=-9.826*, Y=0.000*
  2: 0x0663 [0x1F] MOVE_ENTITY: Update entity position (mode=1)
  3: 0x0665 [0x6F] WAIT_FRAME_DELAY: Yield until WaitTime reaches zero
  4: 0x0666 [0x00] END_REQSTACK()
```

#### Data or dead code:

```
# Dead code (unreachable instructions):
     0x0667 [0x00] END_REQSTACK()
```

### Event 65535.75

#### Metadata

| Field        | Value    |
|--------------|----------|
| Entrypoint   | 0x0668   |
| Data Size    | 20 bytes |
| Instructions | 5        |

```
      00 01 02 03 04 05 06 07  08 09 0A 0B 0C 0D 0E 0F
      -- -- -- -- -- -- -- --  -- -- -- -- -- -- -- --
0660:                          59 04 1E 50 0F 01 64 80          Y..P..d.
0670: 1F 00 34 80 35 80 21 80  1F 01 6F 00              ..4.5.!...o.    
```

#### Opcodes

```
  0: 0x0668 [0x59] UPDATE_ENTITY_DATA: Set Bki Tbujhja (ID: 17780766/0x010F501E) main speed = 9* * 0.1
  1: 0x0670 [0x1F] MOVE_ENTITY: EventEntity moves to X=-74.699*, Z=-107.115*, Y=5.999*
  2: 0x0678 [0x1F] MOVE_ENTITY: Update entity position (mode=1)
  3: 0x067A [0x6F] WAIT_FRAME_DELAY: Yield until WaitTime reaches zero
  4: 0x067B [0x00] END_REQSTACK()
```

### Event 65535.76

#### Metadata

| Field        | Value    |
|--------------|----------|
| Entrypoint   | 0x067C   |
| Data Size    | 20 bytes |
| Instructions | 5        |

```
      00 01 02 03 04 05 06 07  08 09 0A 0B 0C 0D 0E 0F
      -- -- -- -- -- -- -- --  -- -- -- -- -- -- -- --
0670:                                      59 04 1E 50              Y..P
0680: 0F 01 1C 80 1F 00 65 80  66 80 21 80 1F 01 6F 00  ......e.f.!...o.
```

#### Opcodes

```
  0: 0x067C [0x59] UPDATE_ENTITY_DATA: Set Bki Tbujhja (ID: 17780766/0x010F501E) main speed = 11* * 0.1
  1: 0x0684 [0x1F] MOVE_ENTITY: EventEntity moves to X=-72.052*, Z=-102.467*, Y=5.999*
  2: 0x068C [0x1F] MOVE_ENTITY: Update entity position (mode=1)
  3: 0x068E [0x6F] WAIT_FRAME_DELAY: Yield until WaitTime reaches zero
  4: 0x068F [0x00] END_REQSTACK()
```

### Event 65535.77

#### Metadata

| Field        | Value    |
|--------------|----------|
| Entrypoint   | 0x0690   |
| Data Size    | 16 bytes |
| Instructions | 2        |

```
      00 01 02 03 04 05 06 07  08 09 0A 0B 0C 0D 0E 0F
      -- -- -- -- -- -- -- --  -- -- -- -- -- -- -- --
0690: 66 56 80 1E 50 0F 01 1E  50 0F 01 61 77 77 30 00  fV..P...P..aww0.
```

#### Opcodes

```
  0: 0x0690 [0x66] LOAD_EXT_SCHEDULER_MAIN: Load scheduler "aww0" with entities [Bki Tbujhja (ID: 17780766/0x010F501E), Bki Tbujhja (ID: 17780766/0x010F501E)], work=8*
  1: 0x069F [0x00] END_REQSTACK()
```

### Event 65535.78

#### Metadata

| Field        | Value    |
|--------------|----------|
| Entrypoint   | 0x06A0   |
| Data Size    | 20 bytes |
| Instructions | 5        |

```
      00 01 02 03 04 05 06 07  08 09 0A 0B 0C 0D 0E 0F
      -- -- -- -- -- -- -- --  -- -- -- -- -- -- -- --
06A0: 59 04 1E 50 0F 01 64 80  1F 00 67 80 68 80 08 80  Y..P..d...g.h...
06B0: 1F 01 6F 00                                       ..o.            
```

#### Opcodes

```
  0: 0x06A0 [0x59] UPDATE_ENTITY_DATA: Set Bki Tbujhja (ID: 17780766/0x010F501E) main speed = 9* * 0.1
  1: 0x06A8 [0x1F] MOVE_ENTITY: EventEntity moves to X=-5.853*, Z=-5.190*, Y=0.000*
  2: 0x06B0 [0x1F] MOVE_ENTITY: Update entity position (mode=1)
  3: 0x06B2 [0x6F] WAIT_FRAME_DELAY: Yield until WaitTime reaches zero
  4: 0x06B3 [0x00] END_REQSTACK()
```

### Event 65535.79

#### Metadata

| Field        | Value    |
|--------------|----------|
| Entrypoint   | 0x06B4   |
| Data Size    | 21 bytes |
| Instructions | 5        |

```
      00 01 02 03 04 05 06 07  08 09 0A 0B 0C 0D 0E 0F
      -- -- -- -- -- -- -- --  -- -- -- -- -- -- -- --
06B0:             59 04 1E 50  0F 01 1C 80 1F 00 5C 80      Y..P......\.
06C0: 5D 80 21 80 1F 01 6F 00  00                       ].!...o..       
```

#### Opcodes

```
  0: 0x06B4 [0x59] UPDATE_ENTITY_DATA: Set Bki Tbujhja (ID: 17780766/0x010F501E) main speed = 11* * 0.1
  1: 0x06BC [0x1F] MOVE_ENTITY: EventEntity moves to X=-58.931*, Z=-86.942*, Y=5.999*
  2: 0x06C4 [0x1F] MOVE_ENTITY: Update entity position (mode=1)
  3: 0x06C6 [0x6F] WAIT_FRAME_DELAY: Yield until WaitTime reaches zero
  4: 0x06C7 [0x00] END_REQSTACK()
```

#### Data or dead code:

```
# Dead code (unreachable instructions):
     0x06C8 [0x00] END_REQSTACK()
```

### Event 65535.80

#### Metadata

| Field        | Value    |
|--------------|----------|
| Entrypoint   | 0x06C9   |
| Data Size    | 20 bytes |
| Instructions | 5        |

```
      00 01 02 03 04 05 06 07  08 09 0A 0B 0C 0D 0E 0F
      -- -- -- -- -- -- -- --  -- -- -- -- -- -- -- --
06C0:                             59 04 27 50 0F 01 19           Y.'P...
06D0: 80 1F 00 69 80 6A 80 6B  80 1F 01 6F 00           ...i.j.k...o.   
```

#### Opcodes

```
  0: 0x06C9 [0x59] UPDATE_ENTITY_DATA: Set Danzhor (ID: 17780775/0x010F5027) main speed = 12* * 0.1
  1: 0x06D1 [0x1F] MOVE_ENTITY: EventEntity moves to X=-45.210*, Z=-89.196*, Y=-5.999*
  2: 0x06D9 [0x1F] MOVE_ENTITY: Update entity position (mode=1)
  3: 0x06DB [0x6F] WAIT_FRAME_DELAY: Yield until WaitTime reaches zero
  4: 0x06DC [0x00] END_REQSTACK()
```

### Event 65535.81

#### Metadata

| Field        | Value    |
|--------------|----------|
| Entrypoint   | 0x06DD   |
| Data Size    | 12 bytes |
| Instructions | 4        |

```
      00 01 02 03 04 05 06 07  08 09 0A 0B 0C 0D 0E 0F
      -- -- -- -- -- -- -- --  -- -- -- -- -- -- -- --
06D0:                                         1F 00 6C               ..l
06E0: 80 6D 80 08 80 1F 01 6F  00                       .m.....o.       
```

#### Opcodes

```
  0: 0x06DD [0x1F] MOVE_ENTITY: EventEntity moves to X=-18.343*, Z=-8.286*, Y=0.000*
  1: 0x06E5 [0x1F] MOVE_ENTITY: Update entity position (mode=1)
  2: 0x06E7 [0x6F] WAIT_FRAME_DELAY: Yield until WaitTime reaches zero
  3: 0x06E8 [0x00] END_REQSTACK()
```

### Event 65535.82

#### Metadata

| Field        | Value    |
|--------------|----------|
| Entrypoint   | 0x06E9   |
| Data Size    | 16 bytes |
| Instructions | 2        |

```
      00 01 02 03 04 05 06 07  08 09 0A 0B 0C 0D 0E 0F
      -- -- -- -- -- -- -- --  -- -- -- -- -- -- -- --
06E0:                             66 2D 80 27 50 0F 01           f-.'P..
06F0: 27 50 0F 01 74 68 6B 31  00                       'P..thk1.       
```

#### Opcodes

```
  0: 0x06E9 [0x66] LOAD_EXT_SCHEDULER_MAIN: Load scheduler "thk1" with entities [Danzhor (ID: 17780775/0x010F5027), Danzhor (ID: 17780775/0x010F5027)], work=69*
  1: 0x06F8 [0x00] END_REQSTACK()
```

### Event 65535.83

#### Metadata

| Field        | Value    |
|--------------|----------|
| Entrypoint   | 0x06F9   |
| Data Size    | 16 bytes |
| Instructions | 2        |

```
      00 01 02 03 04 05 06 07  08 09 0A 0B 0C 0D 0E 0F
      -- -- -- -- -- -- -- --  -- -- -- -- -- -- -- --
06F0:                             66 2D 80 27 50 0F 01           f-.'P..
0700: 27 50 0F 01 74 68 6B 32  00                       'P..thk2.       
```

#### Opcodes

```
  0: 0x06F9 [0x66] LOAD_EXT_SCHEDULER_MAIN: Load scheduler "thk2" with entities [Danzhor (ID: 17780775/0x010F5027), Danzhor (ID: 17780775/0x010F5027)], work=69*
  1: 0x0708 [0x00] END_REQSTACK()
```

### Event 65535.84

#### Metadata

| Field        | Value    |
|--------------|----------|
| Entrypoint   | 0x0709   |
| Data Size    | 20 bytes |
| Instructions | 5        |

```
      00 01 02 03 04 05 06 07  08 09 0A 0B 0C 0D 0E 0F
      -- -- -- -- -- -- -- --  -- -- -- -- -- -- -- --
0700:                             59 04 27 50 0F 01 19           Y.'P...
0710: 80 1F 00 6E 80 6F 80 08  80 1F 01 6F 00           ...n.o.....o.   
```

#### Opcodes

```
  0: 0x0709 [0x59] UPDATE_ENTITY_DATA: Set Danzhor (ID: 17780775/0x010F5027) main speed = 12* * 0.1
  1: 0x0711 [0x1F] MOVE_ENTITY: EventEntity moves to X=-17.939*, Z=-16.579*, Y=0.000*
  2: 0x0719 [0x1F] MOVE_ENTITY: Update entity position (mode=1)
  3: 0x071B [0x6F] WAIT_FRAME_DELAY: Yield until WaitTime reaches zero
  4: 0x071C [0x00] END_REQSTACK()
```

### Event 65535.85

#### Metadata

| Field        | Value    |
|--------------|----------|
| Entrypoint   | 0x071D   |
| Data Size    | 20 bytes |
| Instructions | 5        |

```
      00 01 02 03 04 05 06 07  08 09 0A 0B 0C 0D 0E 0F
      -- -- -- -- -- -- -- --  -- -- -- -- -- -- -- --
0710:                                         59 04 27               Y.'
0720: 50 0F 01 19 80 1F 00 70  80 71 80 08 80 1F 01 6F  P......p.q.....o
0730: 00                                                .               
```

#### Opcodes

```
  0: 0x071D [0x59] UPDATE_ENTITY_DATA: Set Danzhor (ID: 17780775/0x010F5027) main speed = 12* * 0.1
  1: 0x0725 [0x1F] MOVE_ENTITY: EventEntity moves to X=-3.065*, Z=-7.931*, Y=0.000*
  2: 0x072D [0x1F] MOVE_ENTITY: Update entity position (mode=1)
  3: 0x072F [0x6F] WAIT_FRAME_DELAY: Yield until WaitTime reaches zero
  4: 0x0730 [0x00] END_REQSTACK()
```

### Event 65535.86

#### Metadata

| Field        | Value    |
|--------------|----------|
| Entrypoint   | 0x0731   |
| Data Size    | 17 bytes |
| Instructions | 2        |

```
      00 01 02 03 04 05 06 07  08 09 0A 0B 0C 0D 0E 0F
      -- -- -- -- -- -- -- --  -- -- -- -- -- -- -- --
0730:    66 41 80 30 50 0F 01  30 50 0F 01 73 68 6B 30   fA.0P..0P..shk0
0740: 00 00                                             ..              
```

#### Opcodes

```
  0: 0x0731 [0x66] LOAD_EXT_SCHEDULER_MAIN: Load scheduler "shk0" with entities [Kikilolo (ID: 17780784/0x010F5030), Kikilolo (ID: 17780784/0x010F5030)], work=41*
  1: 0x0740 [0x00] END_REQSTACK()
```

#### Data or dead code:

```
# Dead code (unreachable instructions):
     0x0741 [0x00] END_REQSTACK()
```

### Event 65535.87

#### Metadata

| Field        | Value    |
|--------------|----------|
| Entrypoint   | 0x0742   |
| Data Size    | 16 bytes |
| Instructions | 2        |

```
      00 01 02 03 04 05 06 07  08 09 0A 0B 0C 0D 0E 0F
      -- -- -- -- -- -- -- --  -- -- -- -- -- -- -- --
0740:       5B 17 80 39 50 0F  01 39 50 0F 01 74 6C 6B    [..9P..9P..tlk
0750: 30 00                                             0.              
```

#### Opcodes

```
  0: 0x0742 [0x5B] LOAD_EXT_SCHEDULER: Load scheduler "tlk0" with entities [Momiji (ID: 17780793/0x010F5039), Momiji (ID: 17780793/0x010F5039)], work=60*
  1: 0x0751 [0x00] END_REQSTACK()
```

### Event 65535.88

#### Metadata

| Field        | Value    |
|--------------|----------|
| Entrypoint   | 0x0752   |
| Data Size    | 16 bytes |
| Instructions | 2        |

```
      00 01 02 03 04 05 06 07  08 09 0A 0B 0C 0D 0E 0F
      -- -- -- -- -- -- -- --  -- -- -- -- -- -- -- --
0750:       5B 17 80 39 50 0F  01 39 50 0F 01 74 6C 6B    [..9P..9P..tlk
0760: 31 00                                             1.              
```

#### Opcodes

```
  0: 0x0752 [0x5B] LOAD_EXT_SCHEDULER: Load scheduler "tlk1" with entities [Momiji (ID: 17780793/0x010F5039), Momiji (ID: 17780793/0x010F5039)], work=60*
  1: 0x0761 [0x00] END_REQSTACK()
```

### Event 65535.89

#### Metadata

| Field        | Value    |
|--------------|----------|
| Entrypoint   | 0x0762   |
| Data Size    | 16 bytes |
| Instructions | 2        |

```
      00 01 02 03 04 05 06 07  08 09 0A 0B 0C 0D 0E 0F
      -- -- -- -- -- -- -- --  -- -- -- -- -- -- -- --
0760:       5B 17 80 39 50 0F  01 39 50 0F 01 74 68 6B    [..9P..9P..thk
0770: 31 00                                             1.              
```

#### Opcodes

```
  0: 0x0762 [0x5B] LOAD_EXT_SCHEDULER: Load scheduler "thk1" with entities [Momiji (ID: 17780793/0x010F5039), Momiji (ID: 17780793/0x010F5039)], work=60*
  1: 0x0771 [0x00] END_REQSTACK()
```

### Event 65535.90

#### Metadata

| Field        | Value    |
|--------------|----------|
| Entrypoint   | 0x0772   |
| Data Size    | 16 bytes |
| Instructions | 2        |

```
      00 01 02 03 04 05 06 07  08 09 0A 0B 0C 0D 0E 0F
      -- -- -- -- -- -- -- --  -- -- -- -- -- -- -- --
0770:       5B 17 80 39 50 0F  01 39 50 0F 01 74 68 6B    [..9P..9P..thk
0780: 32 00                                             2.              
```

#### Opcodes

```
  0: 0x0772 [0x5B] LOAD_EXT_SCHEDULER: Load scheduler "thk2" with entities [Momiji (ID: 17780793/0x010F5039), Momiji (ID: 17780793/0x010F5039)], work=60*
  1: 0x0781 [0x00] END_REQSTACK()
```

### Event 65535.91

#### Metadata

| Field        | Value    |
|--------------|----------|
| Entrypoint   | 0x0782   |
| Data Size    | 17 bytes |
| Instructions | 2        |

```
      00 01 02 03 04 05 06 07  08 09 0A 0B 0C 0D 0E 0F
      -- -- -- -- -- -- -- --  -- -- -- -- -- -- -- --
0780:       5B 72 80 39 50 0F  01 39 50 0F 01 65 6D 74    [r.9P..9P..emt
0790: 30 00 00                                          0..             
```

#### Opcodes

```
  0: 0x0782 [0x5B] LOAD_EXT_SCHEDULER: Load scheduler "emt0" with entities [Momiji (ID: 17780793/0x010F5039), Momiji (ID: 17780793/0x010F5039)], work=2624*
  1: 0x0791 [0x00] END_REQSTACK()
```

#### Data or dead code:

```
# Dead code (unreachable instructions):
     0x0792 [0x00] END_REQSTACK()
```

### Event 65535.92

#### Metadata

| Field        | Value    |
|--------------|----------|
| Entrypoint   | 0x0793   |
| Data Size    | 20 bytes |
| Instructions | 5        |

```
      00 01 02 03 04 05 06 07  08 09 0A 0B 0C 0D 0E 0F
      -- -- -- -- -- -- -- --  -- -- -- -- -- -- -- --
0790:          59 04 3C 50 0F  01 4A 80 1F 00 73 80 74     Y.<P..J...s.t
07A0: 80 08 80 1F 01 6F 00                              .....o.         
```

#### Opcodes

```
  0: 0x0793 [0x59] UPDATE_ENTITY_DATA: Set Mendi (ID: 17780796/0x010F503C) main speed = 13* * 0.1
  1: 0x079B [0x1F] MOVE_ENTITY: EventEntity moves to X=-38.371*, Z=-67.496*, Y=0.000*
  2: 0x07A3 [0x1F] MOVE_ENTITY: Update entity position (mode=1)
  3: 0x07A5 [0x6F] WAIT_FRAME_DELAY: Yield until WaitTime reaches zero
  4: 0x07A6 [0x00] END_REQSTACK()
```

### Event 65535.93

#### Metadata

| Field        | Value    |
|--------------|----------|
| Entrypoint   | 0x07A7   |
| Data Size    | 12 bytes |
| Instructions | 4        |

```
      00 01 02 03 04 05 06 07  08 09 0A 0B 0C 0D 0E 0F
      -- -- -- -- -- -- -- --  -- -- -- -- -- -- -- --
07A0:                      1F  00 75 80 76 80 08 80 1F         ..u.v....
07B0: 01 6F 00                                          .o.             
```

#### Opcodes

```
  0: 0x07A7 [0x1F] MOVE_ENTITY: EventEntity moves to X=-5.565*, Z=-1.804*, Y=0.000*
  1: 0x07AF [0x1F] MOVE_ENTITY: Update entity position (mode=1)
  2: 0x07B1 [0x6F] WAIT_FRAME_DELAY: Yield until WaitTime reaches zero
  3: 0x07B2 [0x00] END_REQSTACK()
```

### Event 65535.94

#### Metadata

| Field        | Value    |
|--------------|----------|
| Entrypoint   | 0x07B3   |
| Data Size    | 16 bytes |
| Instructions | 2        |

```
      00 01 02 03 04 05 06 07  08 09 0A 0B 0C 0D 0E 0F
      -- -- -- -- -- -- -- --  -- -- -- -- -- -- -- --
07B0:          5B 61 80 3C 50  0F 01 3C 50 0F 01 6F 70     [a.<P..<P..op
07C0: 62 30 00                                          b0.             
```

#### Opcodes

```
  0: 0x07B3 [0x5B] LOAD_EXT_SCHEDULER: Load scheduler "opb0" with entities [Mendi (ID: 17780796/0x010F503C), Mendi (ID: 17780796/0x010F503C)], work=2583*
  1: 0x07C2 [0x00] END_REQSTACK()
```

### Event 65535.95

#### Metadata

| Field        | Value    |
|--------------|----------|
| Entrypoint   | 0x07C3   |
| Data Size    | 16 bytes |
| Instructions | 2        |

```
      00 01 02 03 04 05 06 07  08 09 0A 0B 0C 0D 0E 0F
      -- -- -- -- -- -- -- --  -- -- -- -- -- -- -- --
07C0:          5B 61 80 3C 50  0F 01 3C 50 0F 01 6F 70     [a.<P..<P..op
07D0: 63 30 00                                          c0.             
```

#### Opcodes

```
  0: 0x07C3 [0x5B] LOAD_EXT_SCHEDULER: Load scheduler "opc0" with entities [Mendi (ID: 17780796/0x010F503C), Mendi (ID: 17780796/0x010F503C)], work=2583*
  1: 0x07D2 [0x00] END_REQSTACK()
```

### Event 65535.96

#### Metadata

| Field        | Value    |
|--------------|----------|
| Entrypoint   | 0x07D3   |
| Data Size    | 16 bytes |
| Instructions | 2        |

```
      00 01 02 03 04 05 06 07  08 09 0A 0B 0C 0D 0E 0F
      -- -- -- -- -- -- -- --  -- -- -- -- -- -- -- --
07D0:          5B 61 80 3C 50  0F 01 3C 50 0F 01 6F 70     [a.<P..<P..op
07E0: 63 31 00                                          c1.             
```

#### Opcodes

```
  0: 0x07D3 [0x5B] LOAD_EXT_SCHEDULER: Load scheduler "opc1" with entities [Mendi (ID: 17780796/0x010F503C), Mendi (ID: 17780796/0x010F503C)], work=2583*
  1: 0x07E2 [0x00] END_REQSTACK()
```

### Event 65535.97

#### Metadata

| Field        | Value    |
|--------------|----------|
| Entrypoint   | 0x07E3   |
| Data Size    | 16 bytes |
| Instructions | 2        |

```
      00 01 02 03 04 05 06 07  08 09 0A 0B 0C 0D 0E 0F
      -- -- -- -- -- -- -- --  -- -- -- -- -- -- -- --
07E0:          66 77 80 3C 50  0F 01 3C 50 0F 01 74 68     fw.<P..<P..th
07F0: 62 31 00                                          b1.             
```

#### Opcodes

```
  0: 0x07E3 [0x66] LOAD_EXT_SCHEDULER_MAIN: Load scheduler "thb1" with entities [Mendi (ID: 17780796/0x010F503C), Mendi (ID: 17780796/0x010F503C)], work=2*
  1: 0x07F2 [0x00] END_REQSTACK()
```

### Event 65535.98

#### Metadata

| Field        | Value    |
|--------------|----------|
| Entrypoint   | 0x07F3   |
| Data Size    | 16 bytes |
| Instructions | 2        |

```
      00 01 02 03 04 05 06 07  08 09 0A 0B 0C 0D 0E 0F
      -- -- -- -- -- -- -- --  -- -- -- -- -- -- -- --
07F0:          66 77 80 3C 50  0F 01 3C 50 0F 01 74 68     fw.<P..<P..th
0800: 62 32 00                                          b2.             
```

#### Opcodes

```
  0: 0x07F3 [0x66] LOAD_EXT_SCHEDULER_MAIN: Load scheduler "thb2" with entities [Mendi (ID: 17780796/0x010F503C), Mendi (ID: 17780796/0x010F503C)], work=2*
  1: 0x0802 [0x00] END_REQSTACK()
```

### Event 65535.99

#### Metadata

| Field        | Value    |
|--------------|----------|
| Entrypoint   | 0x0803   |
| Data Size    | 16 bytes |
| Instructions | 2        |

```
      00 01 02 03 04 05 06 07  08 09 0A 0B 0C 0D 0E 0F
      -- -- -- -- -- -- -- --  -- -- -- -- -- -- -- --
0800:          66 08 80 3C 50  0F 01 3C 50 0F 01 74 68     f..<P..<P..th
0810: 6B 31 00                                          k1.             
```

#### Opcodes

```
  0: 0x0803 [0x66] LOAD_EXT_SCHEDULER_MAIN: Load scheduler "thk1" with entities [Mendi (ID: 17780796/0x010F503C), Mendi (ID: 17780796/0x010F503C)], work=0*
  1: 0x0812 [0x00] END_REQSTACK()
```

### Event 65535.100

#### Metadata

| Field        | Value    |
|--------------|----------|
| Entrypoint   | 0x0813   |
| Data Size    | 16 bytes |
| Instructions | 2        |

```
      00 01 02 03 04 05 06 07  08 09 0A 0B 0C 0D 0E 0F
      -- -- -- -- -- -- -- --  -- -- -- -- -- -- -- --
0810:          66 08 80 3C 50  0F 01 3C 50 0F 01 74 68     f..<P..<P..th
0820: 6B 32 00                                          k2.             
```

#### Opcodes

```
  0: 0x0813 [0x66] LOAD_EXT_SCHEDULER_MAIN: Load scheduler "thk2" with entities [Mendi (ID: 17780796/0x010F503C), Mendi (ID: 17780796/0x010F503C)], work=0*
  1: 0x0822 [0x00] END_REQSTACK()
```

### Event 65535.101

#### Metadata

| Field        | Value    |
|--------------|----------|
| Entrypoint   | 0x0823   |
| Data Size    | 20 bytes |
| Instructions | 5        |

```
      00 01 02 03 04 05 06 07  08 09 0A 0B 0C 0D 0E 0F
      -- -- -- -- -- -- -- --  -- -- -- -- -- -- -- --
0820:          59 04 3C 50 0F  01 4A 80 1F 00 78 80 79     Y.<P..J...x.y
0830: 80 08 80 1F 01 6F 00                              .....o.         
```

#### Opcodes

```
  0: 0x0823 [0x59] UPDATE_ENTITY_DATA: Set Mendi (ID: 17780796/0x010F503C) main speed = 13* * 0.1
  1: 0x082B [0x1F] MOVE_ENTITY: EventEntity moves to X=-2.765*, Z=5.059*, Y=0.000*
  2: 0x0833 [0x1F] MOVE_ENTITY: Update entity position (mode=1)
  3: 0x0835 [0x6F] WAIT_FRAME_DELAY: Yield until WaitTime reaches zero
  4: 0x0836 [0x00] END_REQSTACK()
```

### Event 65535.102

#### Metadata

| Field        | Value    |
|--------------|----------|
| Entrypoint   | 0x0837   |
| Data Size    | 20 bytes |
| Instructions | 5        |

```
      00 01 02 03 04 05 06 07  08 09 0A 0B 0C 0D 0E 0F
      -- -- -- -- -- -- -- --  -- -- -- -- -- -- -- --
0830:                      59  04 3C 50 0F 01 4A 80 1F         Y.<P..J..
0840: 00 54 80 55 80 08 80 1F  01 6F 00                 .T.U.....o.     
```

#### Opcodes

```
  0: 0x0837 [0x59] UPDATE_ENTITY_DATA: Set Mendi (ID: 17780796/0x010F503C) main speed = 13* * 0.1
  1: 0x083F [0x1F] MOVE_ENTITY: EventEntity moves to X=-0.991*, Z=2.123*, Y=0.000*
  2: 0x0847 [0x1F] MOVE_ENTITY: Update entity position (mode=1)
  3: 0x0849 [0x6F] WAIT_FRAME_DELAY: Yield until WaitTime reaches zero
  4: 0x084A [0x00] END_REQSTACK()
```

### Event 65535.103

#### Metadata

| Field        | Value    |
|--------------|----------|
| Entrypoint   | 0x084B   |
| Data Size    | 16 bytes |
| Instructions | 2        |

```
      00 01 02 03 04 05 06 07  08 09 0A 0B 0C 0D 0E 0F
      -- -- -- -- -- -- -- --  -- -- -- -- -- -- -- --
0840:                                   5B 61 80 3C 50             [a.<P
0850: 0F 01 3C 50 0F 01 6F 70  64 30 00                 ..<P..opd0.     
```

#### Opcodes

```
  0: 0x084B [0x5B] LOAD_EXT_SCHEDULER: Load scheduler "opd0" with entities [Mendi (ID: 17780796/0x010F503C), Mendi (ID: 17780796/0x010F503C)], work=2583*
  1: 0x085A [0x00] END_REQSTACK()
```

### Event 65535.104

#### Metadata

| Field        | Value    |
|--------------|----------|
| Entrypoint   | 0x085B   |
| Data Size    | 16 bytes |
| Instructions | 2        |

```
      00 01 02 03 04 05 06 07  08 09 0A 0B 0C 0D 0E 0F
      -- -- -- -- -- -- -- --  -- -- -- -- -- -- -- --
0850:                                   5B 61 80 3C 50             [a.<P
0860: 0F 01 3C 50 0F 01 6F 70  64 31 00                 ..<P..opd1.     
```

#### Opcodes

```
  0: 0x085B [0x5B] LOAD_EXT_SCHEDULER: Load scheduler "opd1" with entities [Mendi (ID: 17780796/0x010F503C), Mendi (ID: 17780796/0x010F503C)], work=2583*
  1: 0x086A [0x00] END_REQSTACK()
```
