# 17780774 - Joseph

## Common Data

| Field            | Value                 |
|------------------|-----------------------|
| Zone             | Lower Jeuno (ID: 245) |
| Block Size       | 484 bytes             |
| Total Events     | 22                    |
| References Count | 16                    |

## List of Events

| Event ID                   | Entrypoint   |   Size |   Instructions |
|----------------------------|--------------|--------|----------------|
| [65535](#event-65535)      | 0x0000       |      1 |              1 |
| [133](#event-133)          | 0x0001       |     68 |             14 |
| [10094](#event-10094)      | 0x0045       |      4 |              2 |
| [65535.1](#event-655351)   | 0x0049       |     12 |              4 |
| [65535.2](#event-655352)   | 0x0055       |     16 |              2 |
| [65535.3](#event-655353)   | 0x0065       |     16 |              2 |
| [65535.4](#event-655354)   | 0x0075       |     16 |              2 |
| [65535.5](#event-655355)   | 0x0085       |     16 |              2 |
| [65535.6](#event-655356)   | 0x0095       |     16 |              2 |
| [65535.7](#event-655357)   | 0x00A5       |     20 |              5 |
| [65535.8](#event-655358)   | 0x00B9       |     16 |              2 |
| [65535.9](#event-655359)   | 0x00C9       |     16 |              2 |
| [65535.10](#event-6553510) | 0x00D9       |     16 |              2 |
| [65535.11](#event-6553511) | 0x00E9       |     16 |              2 |
| [65535.12](#event-6553512) | 0x00F9       |     16 |              2 |
| [65535.13](#event-6553513) | 0x0109       |     16 |              2 |
| [65535.14](#event-6553514) | 0x0119       |     16 |              2 |
| [65535.15](#event-6553515) | 0x0129       |     12 |              4 |
| [20035](#event-20035)      | 0x0135       |      1 |              1 |
| [20045](#event-20045)      | 0x0136       |      1 |              1 |
| [20052](#event-20052)      | 0x0137       |      1 |              1 |
| [20047](#event-20047)      | 0x0138       |      1 |              1 |

## DAT References (imed_data)

|   Index | Hex Value   |   Dec Value |
|---------|-------------|-------------|
|       0 | 0x0000      |           0 |
|       1 | 0x1E4A      |        7754 |
|       2 | 0x1E4B      |        7755 |
|       3 | 0x1E4C      |        7756 |
|       4 | 0x0001      |           1 |
|       5 | 0xFFFFDA9A  |  4294957722 |
|       6 | 0xFFFFFB8F  |  4294966159 |
|       7 | 0x0A16      |        2582 |
|       8 | 0x0A17      |        2583 |
|       9 | 0x000D      |          13 |
|      10 | 0xFFFFDC10  |  4294958096 |
|      11 | 0xFFFFE92F  |  4294961455 |
|      12 | 0x0003      |           3 |
|      13 | 0x0009      |           9 |
|      14 | 0xFFFFE0AF  |  4294959279 |
|      15 | 0x25AA      |        9642 |

## String References

- **7754**: Great bridges from the days of old span the straits below. Jeuno merely sprang up atop their ruins.
- **7755**: No one knows how--or even why--our ancestors built the bridges. Of course, that doesn't stop us from living our lives atop them.
- **7756**: And they're a great way to break the ice with strangers, don't you think?

## Events

### Event 65535

#### Metadata

| Field        | Value   |
|--------------|---------|
| Entrypoint   | 0x0000  |
| Data Size    | 1 bytes |
| Instructions | 1       |

```
      00 01 02 03 04 05 06 07  08 09 0A 0B 0C 0D 0E 0F
      -- -- -- -- -- -- -- --  -- -- -- -- -- -- -- --
0000: 00                                                .               
```

#### Opcodes

```
  0: 0x0000 [0x00] END_REQSTACK()
```

### Event 133

#### Metadata

| Field        | Value    |
|--------------|----------|
| Entrypoint   | 0x0001   |
| Data Size    | 68 bytes |
| Instructions | 14       |

```
      00 01 02 03 04 05 06 07  08 09 0A 0B 0C 0D 0E 0F
      -- -- -- -- -- -- -- --  -- -- -- -- -- -- -- --
0000:    1E F0 FF FF 7F 6F 76  F8 FF FF 7F 66 00 80 F8   .....ov....f...
0010: FF FF 7F F8 FF FF 7F 74  6C 6B 30 1D 01 80 23 1D  .......tlk0...#.
0020: 02 80 23 1D 03 80 23 66  00 80 F8 FF FF 7F F8 FF  ..#...#f........
0030: FF 7F 74 65 6E 30 53 F8  FF FF 7F F8 FF FF 7F 74  ..ten0S........t
0040: 65 6E 30 21 00                                    en0!.           
```

#### Opcodes

```
  0: 0x0001 [0x1E] EventEntity looks at LocalPlayer and starts talking
  1: 0x0006 [0x6F] WAIT_FRAME_DELAY: Yield until WaitTime reaches zero
  2: 0x0007 [0x76] CHECK_ENTITY_RENDER_FLAGS: Wait until EventEntity Render.Flags0 and Render.Flags3 conditions are met
  3: 0x000C [0x66] LOAD_EXT_SCHEDULER_MAIN: Load scheduler "tlk0" with entities [EventEntity, EventEntity], work=0*
  4: 0x001B [0x1D] PRINT_EVENT_MESSAGE(message_id=7754*)
    → "Great bridges from the days of old span the straits below. Jeuno merely sprang up atop their ruins."
  5: 0x001E [0x23] WAIT_FOR_DIALOG_INTERACTION
  6: 0x001F [0x1D] PRINT_EVENT_MESSAGE(message_id=7755*)
    → "No one knows how--or even why--our ancestors built the bridges. Of course, that doesn't stop us from living our lives atop them."
  7: 0x0022 [0x23] WAIT_FOR_DIALOG_INTERACTION
  8: 0x0023 [0x1D] PRINT_EVENT_MESSAGE(message_id=7756*)
    → "And they're a great way to break the ice with strangers, don't you think?"
  9: 0x0026 [0x23] WAIT_FOR_DIALOG_INTERACTION
 10: 0x0027 [0x66] LOAD_EXT_SCHEDULER_MAIN: Load scheduler "ten0" with entities [EventEntity, EventEntity], work=0*
 11: 0x0036 [0x53] WAIT_SCHEDULER_TASK: Wait for scheduler "ten0" with entities [EventEntity, EventEntity]
 12: 0x0043 [0x21] END_EVENT
 13: 0x0044 [0x00] END_REQSTACK()
```

### Event 10094

#### Metadata

| Field        | Value   |
|--------------|---------|
| Entrypoint   | 0x0045  |
| Data Size    | 4 bytes |
| Instructions | 2       |

```
      00 01 02 03 04 05 06 07  08 09 0A 0B 0C 0D 0E 0F
      -- -- -- -- -- -- -- --  -- -- -- -- -- -- -- --
0040:                C0 04 80  00                            ....       
```

#### Opcodes

```
  0: 0x0045 [0xC0] EventEntity->Render.Flags3 |= 0x1000 // Set bit 12 (from 1*)
  1: 0x0048 [0x00] END_REQSTACK()
```

### Event 65535.1

#### Metadata

| Field        | Value    |
|--------------|----------|
| Entrypoint   | 0x0049   |
| Data Size    | 12 bytes |
| Instructions | 4        |

```
      00 01 02 03 04 05 06 07  08 09 0A 0B 0C 0D 0E 0F
      -- -- -- -- -- -- -- --  -- -- -- -- -- -- -- --
0040:                             1F 00 05 80 06 80 00           .......
0050: 80 1F 01 6F 00                                    ...o.           
```

#### Opcodes

```
  0: 0x0049 [0x1F] MOVE_ENTITY: EventEntity moves to X=-9.574*, Z=-1.137*, Y=0.000*
  1: 0x0051 [0x1F] MOVE_ENTITY: Update entity position (mode=1)
  2: 0x0053 [0x6F] WAIT_FRAME_DELAY: Yield until WaitTime reaches zero
  3: 0x0054 [0x00] END_REQSTACK()
```

### Event 65535.2

#### Metadata

| Field        | Value    |
|--------------|----------|
| Entrypoint   | 0x0055   |
| Data Size    | 16 bytes |
| Instructions | 2        |

```
      00 01 02 03 04 05 06 07  08 09 0A 0B 0C 0D 0E 0F
      -- -- -- -- -- -- -- --  -- -- -- -- -- -- -- --
0050:                5B 07 80  26 50 0F 01 26 50 0F 01       [..&P..&P..
0060: 6F 70 61 30 00                                    opa0.           
```

#### Opcodes

```
  0: 0x0055 [0x5B] LOAD_EXT_SCHEDULER: Load scheduler "opa0" with entities [Joseph (ID: 17780774/0x010F5026), Joseph (ID: 17780774/0x010F5026)], work=2582*
  1: 0x0064 [0x00] END_REQSTACK()
```

### Event 65535.3

#### Metadata

| Field        | Value    |
|--------------|----------|
| Entrypoint   | 0x0065   |
| Data Size    | 16 bytes |
| Instructions | 2        |

```
      00 01 02 03 04 05 06 07  08 09 0A 0B 0C 0D 0E 0F
      -- -- -- -- -- -- -- --  -- -- -- -- -- -- -- --
0060:                5B 07 80  26 50 0F 01 26 50 0F 01       [..&P..&P..
0070: 6F 70 61 31 00                                    opa1.           
```

#### Opcodes

```
  0: 0x0065 [0x5B] LOAD_EXT_SCHEDULER: Load scheduler "opa1" with entities [Joseph (ID: 17780774/0x010F5026), Joseph (ID: 17780774/0x010F5026)], work=2582*
  1: 0x0074 [0x00] END_REQSTACK()
```

### Event 65535.4

#### Metadata

| Field        | Value    |
|--------------|----------|
| Entrypoint   | 0x0075   |
| Data Size    | 16 bytes |
| Instructions | 2        |

```
      00 01 02 03 04 05 06 07  08 09 0A 0B 0C 0D 0E 0F
      -- -- -- -- -- -- -- --  -- -- -- -- -- -- -- --
0070:                5B 08 80  26 50 0F 01 26 50 0F 01       [..&P..&P..
0080: 6F 70 63 30 00                                    opc0.           
```

#### Opcodes

```
  0: 0x0075 [0x5B] LOAD_EXT_SCHEDULER: Load scheduler "opc0" with entities [Joseph (ID: 17780774/0x010F5026), Joseph (ID: 17780774/0x010F5026)], work=2583*
  1: 0x0084 [0x00] END_REQSTACK()
```

### Event 65535.5

#### Metadata

| Field        | Value    |
|--------------|----------|
| Entrypoint   | 0x0085   |
| Data Size    | 16 bytes |
| Instructions | 2        |

```
      00 01 02 03 04 05 06 07  08 09 0A 0B 0C 0D 0E 0F
      -- -- -- -- -- -- -- --  -- -- -- -- -- -- -- --
0080:                5B 08 80  26 50 0F 01 26 50 0F 01       [..&P..&P..
0090: 6F 70 63 31 00                                    opc1.           
```

#### Opcodes

```
  0: 0x0085 [0x5B] LOAD_EXT_SCHEDULER: Load scheduler "opc1" with entities [Joseph (ID: 17780774/0x010F5026), Joseph (ID: 17780774/0x010F5026)], work=2583*
  1: 0x0094 [0x00] END_REQSTACK()
```

### Event 65535.6

#### Metadata

| Field        | Value    |
|--------------|----------|
| Entrypoint   | 0x0095   |
| Data Size    | 16 bytes |
| Instructions | 2        |

```
      00 01 02 03 04 05 06 07  08 09 0A 0B 0C 0D 0E 0F
      -- -- -- -- -- -- -- --  -- -- -- -- -- -- -- --
0090:                5B 08 80  26 50 0F 01 26 50 0F 01       [..&P..&P..
00A0: 6F 70 63 32 00                                    opc2.           
```

#### Opcodes

```
  0: 0x0095 [0x5B] LOAD_EXT_SCHEDULER: Load scheduler "opc2" with entities [Joseph (ID: 17780774/0x010F5026), Joseph (ID: 17780774/0x010F5026)], work=2583*
  1: 0x00A4 [0x00] END_REQSTACK()
```

### Event 65535.7

#### Metadata

| Field        | Value    |
|--------------|----------|
| Entrypoint   | 0x00A5   |
| Data Size    | 20 bytes |
| Instructions | 5        |

```
      00 01 02 03 04 05 06 07  08 09 0A 0B 0C 0D 0E 0F
      -- -- -- -- -- -- -- --  -- -- -- -- -- -- -- --
00A0:                59 04 26  50 0F 01 09 80 1F 00 0A       Y.&P.......
00B0: 80 0B 80 00 80 1F 01 6F  00                       .......o.       
```

#### Opcodes

```
  0: 0x00A5 [0x59] UPDATE_ENTITY_DATA: Set Joseph (ID: 17780774/0x010F5026) main speed = 13* * 0.1
  1: 0x00AD [0x1F] MOVE_ENTITY: EventEntity moves to X=-9.200*, Z=-5.841*, Y=0.000*
  2: 0x00B5 [0x1F] MOVE_ENTITY: Update entity position (mode=1)
  3: 0x00B7 [0x6F] WAIT_FRAME_DELAY: Yield until WaitTime reaches zero
  4: 0x00B8 [0x00] END_REQSTACK()
```

### Event 65535.8

#### Metadata

| Field        | Value    |
|--------------|----------|
| Entrypoint   | 0x00B9   |
| Data Size    | 16 bytes |
| Instructions | 2        |

```
      00 01 02 03 04 05 06 07  08 09 0A 0B 0C 0D 0E 0F
      -- -- -- -- -- -- -- --  -- -- -- -- -- -- -- --
00B0:                             5B 08 80 26 50 0F 01           [..&P..
00C0: 26 50 0F 01 6F 70 64 30  00                       &P..opd0.       
```

#### Opcodes

```
  0: 0x00B9 [0x5B] LOAD_EXT_SCHEDULER: Load scheduler "opd0" with entities [Joseph (ID: 17780774/0x010F5026), Joseph (ID: 17780774/0x010F5026)], work=2583*
  1: 0x00C8 [0x00] END_REQSTACK()
```

### Event 65535.9

#### Metadata

| Field        | Value    |
|--------------|----------|
| Entrypoint   | 0x00C9   |
| Data Size    | 16 bytes |
| Instructions | 2        |

```
      00 01 02 03 04 05 06 07  08 09 0A 0B 0C 0D 0E 0F
      -- -- -- -- -- -- -- --  -- -- -- -- -- -- -- --
00C0:                             5B 08 80 26 50 0F 01           [..&P..
00D0: 26 50 0F 01 6F 70 64 31  00                       &P..opd1.       
```

#### Opcodes

```
  0: 0x00C9 [0x5B] LOAD_EXT_SCHEDULER: Load scheduler "opd1" with entities [Joseph (ID: 17780774/0x010F5026), Joseph (ID: 17780774/0x010F5026)], work=2583*
  1: 0x00D8 [0x00] END_REQSTACK()
```

### Event 65535.10

#### Metadata

| Field        | Value    |
|--------------|----------|
| Entrypoint   | 0x00D9   |
| Data Size    | 16 bytes |
| Instructions | 2        |

```
      00 01 02 03 04 05 06 07  08 09 0A 0B 0C 0D 0E 0F
      -- -- -- -- -- -- -- --  -- -- -- -- -- -- -- --
00D0:                             66 00 80 26 50 0F 01           f..&P..
00E0: 26 50 0F 01 75 74 61 30  00                       &P..uta0.       
```

#### Opcodes

```
  0: 0x00D9 [0x66] LOAD_EXT_SCHEDULER_MAIN: Load scheduler "uta0" with entities [Joseph (ID: 17780774/0x010F5026), Joseph (ID: 17780774/0x010F5026)], work=0*
  1: 0x00E8 [0x00] END_REQSTACK()
```

### Event 65535.11

#### Metadata

| Field        | Value    |
|--------------|----------|
| Entrypoint   | 0x00E9   |
| Data Size    | 16 bytes |
| Instructions | 2        |

```
      00 01 02 03 04 05 06 07  08 09 0A 0B 0C 0D 0E 0F
      -- -- -- -- -- -- -- --  -- -- -- -- -- -- -- --
00E0:                             66 00 80 26 50 0F 01           f..&P..
00F0: 26 50 0F 01 74 6C 6B 30  00                       &P..tlk0.       
```

#### Opcodes

```
  0: 0x00E9 [0x66] LOAD_EXT_SCHEDULER_MAIN: Load scheduler "tlk0" with entities [Joseph (ID: 17780774/0x010F5026), Joseph (ID: 17780774/0x010F5026)], work=0*
  1: 0x00F8 [0x00] END_REQSTACK()
```

### Event 65535.12

#### Metadata

| Field        | Value    |
|--------------|----------|
| Entrypoint   | 0x00F9   |
| Data Size    | 16 bytes |
| Instructions | 2        |

```
      00 01 02 03 04 05 06 07  08 09 0A 0B 0C 0D 0E 0F
      -- -- -- -- -- -- -- --  -- -- -- -- -- -- -- --
00F0:                             66 0C 80 26 50 0F 01           f..&P..
0100: 26 50 0F 01 70 6F 69 31  00                       &P..poi1.       
```

#### Opcodes

```
  0: 0x00F9 [0x66] LOAD_EXT_SCHEDULER_MAIN: Load scheduler "poi1" with entities [Joseph (ID: 17780774/0x010F5026), Joseph (ID: 17780774/0x010F5026)], work=3*
  1: 0x0108 [0x00] END_REQSTACK()
```

### Event 65535.13

#### Metadata

| Field        | Value    |
|--------------|----------|
| Entrypoint   | 0x0109   |
| Data Size    | 16 bytes |
| Instructions | 2        |

```
      00 01 02 03 04 05 06 07  08 09 0A 0B 0C 0D 0E 0F
      -- -- -- -- -- -- -- --  -- -- -- -- -- -- -- --
0100:                             66 0C 80 26 50 0F 01           f..&P..
0110: 26 50 0F 01 70 6F 69 32  00                       &P..poi2.       
```

#### Opcodes

```
  0: 0x0109 [0x66] LOAD_EXT_SCHEDULER_MAIN: Load scheduler "poi2" with entities [Joseph (ID: 17780774/0x010F5026), Joseph (ID: 17780774/0x010F5026)], work=3*
  1: 0x0118 [0x00] END_REQSTACK()
```

### Event 65535.14

#### Metadata

| Field        | Value    |
|--------------|----------|
| Entrypoint   | 0x0119   |
| Data Size    | 16 bytes |
| Instructions | 2        |

```
      00 01 02 03 04 05 06 07  08 09 0A 0B 0C 0D 0E 0F
      -- -- -- -- -- -- -- --  -- -- -- -- -- -- -- --
0110:                             66 0D 80 26 50 0F 01           f..&P..
0120: 26 50 0F 01 74 68 6B 31  00                       &P..thk1.       
```

#### Opcodes

```
  0: 0x0119 [0x66] LOAD_EXT_SCHEDULER_MAIN: Load scheduler "thk1" with entities [Joseph (ID: 17780774/0x010F5026), Joseph (ID: 17780774/0x010F5026)], work=9*
  1: 0x0128 [0x00] END_REQSTACK()
```

### Event 65535.15

#### Metadata

| Field        | Value    |
|--------------|----------|
| Entrypoint   | 0x0129   |
| Data Size    | 12 bytes |
| Instructions | 4        |

```
      00 01 02 03 04 05 06 07  08 09 0A 0B 0C 0D 0E 0F
      -- -- -- -- -- -- -- --  -- -- -- -- -- -- -- --
0120:                             1F 00 0E 80 0F 80 00           .......
0130: 80 1F 01 6F 00                                    ...o.           
```

#### Opcodes

```
  0: 0x0129 [0x1F] MOVE_ENTITY: EventEntity moves to X=-8.017*, Z=9.642*, Y=0.000*
  1: 0x0131 [0x1F] MOVE_ENTITY: Update entity position (mode=1)
  2: 0x0133 [0x6F] WAIT_FRAME_DELAY: Yield until WaitTime reaches zero
  3: 0x0134 [0x00] END_REQSTACK()
```

### Event 20035

#### Metadata

| Field        | Value   |
|--------------|---------|
| Entrypoint   | 0x0135  |
| Data Size    | 1 bytes |
| Instructions | 1       |

```
      00 01 02 03 04 05 06 07  08 09 0A 0B 0C 0D 0E 0F
      -- -- -- -- -- -- -- --  -- -- -- -- -- -- -- --
0130:                00                                      .          
```

#### Opcodes

```
  0: 0x0135 [0x00] END_REQSTACK()
```

### Event 20045

#### Metadata

| Field        | Value   |
|--------------|---------|
| Entrypoint   | 0x0136  |
| Data Size    | 1 bytes |
| Instructions | 1       |

```
      00 01 02 03 04 05 06 07  08 09 0A 0B 0C 0D 0E 0F
      -- -- -- -- -- -- -- --  -- -- -- -- -- -- -- --
0130:                   00                                    .         
```

#### Opcodes

```
  0: 0x0136 [0x00] END_REQSTACK()
```

### Event 20052

#### Metadata

| Field        | Value   |
|--------------|---------|
| Entrypoint   | 0x0137  |
| Data Size    | 1 bytes |
| Instructions | 1       |

```
      00 01 02 03 04 05 06 07  08 09 0A 0B 0C 0D 0E 0F
      -- -- -- -- -- -- -- --  -- -- -- -- -- -- -- --
0130:                      00                                  .        
```

#### Opcodes

```
  0: 0x0137 [0x00] END_REQSTACK()
```

### Event 20047

#### Metadata

| Field        | Value   |
|--------------|---------|
| Entrypoint   | 0x0138  |
| Data Size    | 1 bytes |
| Instructions | 1       |

```
      00 01 02 03 04 05 06 07  08 09 0A 0B 0C 0D 0E 0F
      -- -- -- -- -- -- -- --  -- -- -- -- -- -- -- --
0130:                          00                               .       
```

#### Opcodes

```
  0: 0x0138 [0x00] END_REQSTACK()
```
