# 17780775 - Danzhor

## Common Data

| Field            | Value                 |
|------------------|-----------------------|
| Zone             | Lower Jeuno (ID: 245) |
| Block Size       | 2592 bytes            |
| Total Events     | 100                   |
| References Count | 105                   |

## List of Events

| Event ID                   | Entrypoint   |   Size |   Instructions |
|----------------------------|--------------|--------|----------------|
| [65535](#event-65535)      | 0x0000       |      1 |              1 |
| [185](#event-185)          | 0x0001       |     50 |             16 |
| [10094](#event-10094)      | 0x0033       |      5 |              3 |
| [65535.1](#event-655351)   | 0x0038       |     20 |              5 |
| [65535.2](#event-655352)   | 0x004C       |     20 |              5 |
| [65535.3](#event-655353)   | 0x0060       |     20 |              5 |
| [65535.4](#event-655354)   | 0x0074       |     17 |              3 |
| [65535.5](#event-655355)   | 0x0085       |     20 |              5 |
| [65535.6](#event-655356)   | 0x0099       |     20 |              5 |
| [65535.7](#event-655357)   | 0x00AD       |     19 |              4 |
| [65535.8](#event-655358)   | 0x00C0       |     19 |              4 |
| [65535.9](#event-655359)   | 0x00D3       |     16 |              2 |
| [65535.10](#event-6553510) | 0x00E3       |     16 |              2 |
| [65535.11](#event-6553511) | 0x00F3       |     20 |              5 |
| [65535.12](#event-6553512) | 0x0107       |     16 |              2 |
| [65535.13](#event-6553513) | 0x0117       |     16 |              2 |
| [65535.14](#event-6553514) | 0x0127       |     16 |              2 |
| [65535.15](#event-6553515) | 0x0137       |     21 |              6 |
| [65535.16](#event-6553516) | 0x014C       |     16 |              2 |
| [65535.17](#event-6553517) | 0x015C       |     16 |              2 |
| [65535.18](#event-6553518) | 0x016C       |     20 |              5 |
| [65535.19](#event-6553519) | 0x0180       |     17 |              3 |
| [65535.20](#event-6553520) | 0x0191       |     20 |              5 |
| [65535.21](#event-6553521) | 0x01A5       |     16 |              2 |
| [65535.22](#event-6553522) | 0x01B5       |     16 |              2 |
| [65535.23](#event-6553523) | 0x01C5       |     16 |              2 |
| [65535.24](#event-6553524) | 0x01D5       |     16 |              2 |
| [65535.25](#event-6553525) | 0x01E5       |     16 |              2 |
| [65535.26](#event-6553526) | 0x01F5       |     16 |              2 |
| [65535.27](#event-6553527) | 0x0205       |     16 |              2 |
| [65535.28](#event-6553528) | 0x0215       |     12 |              4 |
| [65535.29](#event-6553529) | 0x0221       |     20 |              5 |
| [65535.30](#event-6553530) | 0x0235       |     17 |              3 |
| [65535.31](#event-6553531) | 0x0246       |     17 |              3 |
| [65535.32](#event-6553532) | 0x0257       |     16 |              2 |
| [65535.33](#event-6553533) | 0x0267       |     16 |              2 |
| [65535.34](#event-6553534) | 0x0277       |     16 |              2 |
| [65535.35](#event-6553535) | 0x0287       |     16 |              2 |
| [65535.36](#event-6553536) | 0x0297       |     16 |              2 |
| [65535.37](#event-6553537) | 0x02A7       |     16 |              2 |
| [65535.38](#event-6553538) | 0x02B7       |     13 |              5 |
| [65535.39](#event-6553539) | 0x02C4       |     20 |              5 |
| [65535.40](#event-6553540) | 0x02D8       |     12 |              4 |
| [65535.41](#event-6553541) | 0x02E4       |     16 |              2 |
| [65535.42](#event-6553542) | 0x02F4       |     16 |              2 |
| [65535.43](#event-6553543) | 0x0304       |     16 |              2 |
| [65535.44](#event-6553544) | 0x0314       |     20 |              5 |
| [65535.45](#event-6553545) | 0x0328       |     29 |              6 |
| [65535.46](#event-6553546) | 0x0345       |     17 |              3 |
| [65535.47](#event-6553547) | 0x0356       |     20 |              5 |
| [65535.48](#event-6553548) | 0x036A       |     20 |              5 |
| [65535.49](#event-6553549) | 0x037E       |     20 |              5 |
| [65535.50](#event-6553550) | 0x0392       |     20 |              5 |
| [65535.51](#event-6553551) | 0x03A6       |     20 |              5 |
| [65535.52](#event-6553552) | 0x03BA       |     16 |              2 |
| [65535.53](#event-6553553) | 0x03CA       |     16 |              2 |
| [65535.54](#event-6553554) | 0x03DA       |     20 |              5 |
| [65535.55](#event-6553555) | 0x03EE       |     16 |              2 |
| [65535.56](#event-6553556) | 0x03FE       |     16 |              2 |
| [65535.57](#event-6553557) | 0x040E       |     16 |              2 |
| [65535.58](#event-6553558) | 0x041E       |     16 |              2 |
| [65535.59](#event-6553559) | 0x042E       |     21 |              6 |
| [65535.60](#event-6553560) | 0x0443       |     20 |              5 |
| [65535.61](#event-6553561) | 0x0457       |     20 |              5 |
| [65535.62](#event-6553562) | 0x046B       |     17 |              3 |
| [65535.63](#event-6553563) | 0x047C       |     20 |              5 |
| [65535.64](#event-6553564) | 0x0490       |     20 |              5 |
| [65535.65](#event-6553565) | 0x04A4       |     16 |              2 |
| [65535.66](#event-6553566) | 0x04B4       |     16 |              2 |
| [65535.67](#event-6553567) | 0x04C4       |     21 |              6 |
| [65535.68](#event-6553568) | 0x04D9       |     20 |              5 |
| [65535.69](#event-6553569) | 0x04ED       |     20 |              5 |
| [65535.70](#event-6553570) | 0x0501       |     16 |              2 |
| [65535.71](#event-6553571) | 0x0511       |     20 |              5 |
| [65535.72](#event-6553572) | 0x0525       |     21 |              6 |
| [65535.73](#event-6553573) | 0x053A       |     20 |              5 |
| [65535.74](#event-6553574) | 0x054E       |     12 |              4 |
| [65535.75](#event-6553575) | 0x055A       |     16 |              2 |
| [65535.76](#event-6553576) | 0x056A       |     16 |              2 |
| [65535.77](#event-6553577) | 0x057A       |     20 |              5 |
| [65535.78](#event-6553578) | 0x058E       |     20 |              5 |
| [65535.79](#event-6553579) | 0x05A2       |     17 |              3 |
| [65535.80](#event-6553580) | 0x05B3       |     16 |              2 |
| [65535.81](#event-6553581) | 0x05C3       |     16 |              2 |
| [65535.82](#event-6553582) | 0x05D3       |     16 |              2 |
| [65535.83](#event-6553583) | 0x05E3       |     16 |              2 |
| [65535.84](#event-6553584) | 0x05F3       |     17 |              3 |
| [65535.85](#event-6553585) | 0x0604       |     20 |              5 |
| [65535.86](#event-6553586) | 0x0618       |     12 |              4 |
| [65535.87](#event-6553587) | 0x0624       |     16 |              2 |
| [65535.88](#event-6553588) | 0x0634       |     16 |              2 |
| [65535.89](#event-6553589) | 0x0644       |     16 |              2 |
| [65535.90](#event-6553590) | 0x0654       |     16 |              2 |
| [65535.91](#event-6553591) | 0x0664       |     16 |              2 |
| [65535.92](#event-6553592) | 0x0674       |     16 |              2 |
| [65535.93](#event-6553593) | 0x0684       |     16 |              2 |
| [65535.94](#event-6553594) | 0x0694       |     20 |              5 |
| [65535.95](#event-6553595) | 0x06A8       |     20 |              5 |
| [65535.96](#event-6553596) | 0x06BC       |     16 |              2 |
| [65535.97](#event-6553597) | 0x06CC       |     16 |              2 |

## DAT References (imed_data)

|   Index | Hex Value   |   Dec Value |
|---------|-------------|-------------|
|       0 | 0x003C      |          60 |
|       1 | 0x1E4D      |        7757 |
|       2 | 0x1E4E      |        7758 |
|       3 | 0x1E4F      |        7759 |
|       4 | 0x1E50      |        7760 |
|       5 | 0x0001      |           1 |
|       6 | 0x000C      |          12 |
|       7 | 0xFFFED6C4  |  4294891204 |
|       8 | 0xFFFDEB5B  |  4294830939 |
|       9 | 0x0000      |           0 |
|      10 | 0x000B      |          11 |
|      11 | 0xFFFE8B97  |  4294871959 |
|      12 | 0xFFFD9E68  |  4294811240 |
|      13 | 0xFFFF0D87  |  4294905223 |
|      14 | 0xFFFEA0EF  |  4294877423 |
|      15 | 0x176F      |        5999 |
|      16 | 0x0A3A      |        2618 |
|      17 | 0xFFFEB818  |  4294883352 |
|      18 | 0xFFFE098F  |  4294838671 |
|      19 | 0xFFFEF410  |  4294898704 |
|      20 | 0xFFFE85B9  |  4294870457 |
|      21 | 0xFFFEEC91  |  4294896785 |
|      22 | 0xFFFE6EA2  |  4294864546 |
|      23 | 0x0A2A      |        2602 |
|      24 | 0xFFFEE552  |  4294894930 |
|      25 | 0xFFFE3269  |  4294849129 |
|      26 | 0x0A39      |        2617 |
|      27 | 0x0045      |          69 |
|      28 | 0xFFFF2160  |  4294910304 |
|      29 | 0xFFFEA80E  |  4294879246 |
|      30 | 0x0A3D      |        2621 |
|      31 | 0x0A43      |        2627 |
|      32 | 0x004B      |          75 |
|      33 | 0xFFFFB20E  |  4294947342 |
|      34 | 0xFFFFAE2A  |  4294946346 |
|      35 | 0xFFFEDC35  |  4294892597 |
|      36 | 0xFFFE5D95  |  4294860181 |
|      37 | 0x0A47      |        2631 |
|      38 | 0x0055      |          85 |
|      39 | 0xFFFFB26F  |  4294947439 |
|      40 | 0xFFFFAB30  |  4294945584 |
|      41 | 0x000E      |          14 |
|      42 | 0xFFFF6C7D  |  4294929533 |
|      43 | 0xFFFF0AA4  |  4294904484 |
|      44 | 0xFFFFCBCA  |  4294953930 |
|      45 | 0x09E0      |        2528 |
|      46 | 0xFFFFFE3F  |  4294966847 |
|      47 | 0x0028      |          40 |
|      48 | 0x0029      |          41 |
|      49 | 0xFFFEEA26  |  4294896166 |
|      50 | 0xFFFE4F39  |  4294856505 |
|      51 | 0xFFFED8EC  |  4294891756 |
|      52 | 0xFFFE38BF  |  4294850751 |
|      53 | 0xFFFEC5BC  |  4294886844 |
|      54 | 0xFFFE1640  |  4294841920 |
|      55 | 0x03E7      |         999 |
|      56 | 0x0A33      |        2611 |
|      57 | 0x000D      |          13 |
|      58 | 0xFFFF04E1  |  4294903009 |
|      59 | 0xFFFE7108  |  4294865160 |
|      60 | 0x108C      |        4236 |
|      61 | 0x10F0      |        4336 |
|      62 | 0xFFFFC3F0  |  4294951920 |
|      63 | 0xFFFFA321  |  4294943521 |
|      64 | 0xFFFFFF9B  |  4294967195 |
|      65 | 0x000A      |          10 |
|      66 | 0x0A18      |        2584 |
|      67 | 0xFFFFFC21  |  4294966305 |
|      68 | 0x084B      |        2123 |
|      69 | 0x0008      |           8 |
|      70 | 0x0033      |          51 |
|      71 | 0xFFFF0DFA  |  4294905338 |
|      72 | 0xFFFE6C9D  |  4294864029 |
|      73 | 0xFFFEFBE3  |  4294900707 |
|      74 | 0xFFFE9775  |  4294874997 |
|      75 | 0xFFFF19CD  |  4294908365 |
|      76 | 0xFFFEAC62  |  4294880354 |
|      77 | 0xFFFECE8B  |  4294889099 |
|      78 | 0xFFFE3998  |  4294850968 |
|      79 | 0x0F9F      |        3999 |
|      80 | 0x0A17      |        2583 |
|      81 | 0xFFFFD965  |  4294957413 |
|      82 | 0xFFFFD99E  |  4294957470 |
|      83 | 0x0009      |           9 |
|      84 | 0xFFFEE68C  |  4294895244 |
|      85 | 0xFFFE6FBD  |  4294864829 |
|      86 | 0xFFFFE923  |  4294961443 |
|      87 | 0xFFFFEBBA  |  4294962106 |
|      88 | 0xFFFF4F66  |  4294922086 |
|      89 | 0xFFFEA394  |  4294878100 |
|      90 | 0xFFFFE891  |  4294961297 |
|      91 | 0xFFFFB859  |  4294948953 |
|      92 | 0xFFFFDFA2  |  4294959010 |
|      93 | 0xFFFFB9ED  |  4294949357 |
|      94 | 0xFFFFBF3D  |  4294950717 |
|      95 | 0xFFFFF407  |  4294964231 |
|      96 | 0xFFFFE105  |  4294959365 |
|      97 | 0x0A40      |        2624 |
|      98 | 0xFFFF6A1D  |  4294928925 |
|      99 | 0xFFFEF858  |  4294899800 |
|     100 | 0xFFFFEA43  |  4294961731 |
|     101 | 0xFFFFF8F4  |  4294965492 |
|     102 | 0x0002      |           2 |
|     103 | 0xFFFFF533  |  4294964531 |
|     104 | 0x13C3      |        5059 |

## String References

- **7757**: I heard Jeuno began about eighty years ago when fishermen settled here. It was just a tiny fishing village back then.
- **7758**: As you can see from any map, Jeuno lies on a crossroads binding the three nations together. A hub of commerce, Jeuno grew wealthy.
- **7759**: Soon it was filled with the bustle of buyer and seller. Our humble district captures that particular energy better than any other.
- **7760**: Huh? What am I doing here? I'm looking for work! I got fired from my last place. Something about talking too much...

## Events

### Event 65535

#### Metadata

| Field        | Value   |
|--------------|---------|
| Entrypoint   | 0x0000  |
| Data Size    | 1 bytes |
| Instructions | 1       |

```
      00 01 02 03 04 05 06 07  08 09 0A 0B 0C 0D 0E 0F
      -- -- -- -- -- -- -- --  -- -- -- -- -- -- -- --
0000: 00                                                .               
```

#### Opcodes

```
  0: 0x0000 [0x00] END_REQSTACK()
```

### Event 185

#### Metadata

| Field        | Value    |
|--------------|----------|
| Entrypoint   | 0x0001   |
| Data Size    | 50 bytes |
| Instructions | 15       |

```
      00 01 02 03 04 05 06 07  08 09 0A 0B 0C 0D 0E 0F
      -- -- -- -- -- -- -- --  -- -- -- -- -- -- -- --
0000:    1E F0 FF FF 7F 6F 76  F8 FF FF 7F 66 00 80 F8   .....ov....f...
0010: FF FF 7F F8 FF FF 7F 74  6C 6B 30 1D 01 80 23 1D  .......tlk0...#.
0020: 02 80 23 1D 03 80 23 5E  69 64 6C 30 1D 04 80 23  ..#...#^idl0...#
0030: 21 00 00                                          !..             
```

#### Opcodes

```
  0: 0x0001 [0x1E] EventEntity looks at LocalPlayer and starts talking
  1: 0x0006 [0x6F] WAIT_FRAME_DELAY: Yield until WaitTime reaches zero
  2: 0x0007 [0x76] CHECK_ENTITY_RENDER_FLAGS: Wait until EventEntity Render.Flags0 and Render.Flags3 conditions are met
  3: 0x000C [0x66] LOAD_EXT_SCHEDULER_MAIN: Load scheduler "tlk0" with entities [EventEntity, EventEntity], work=60*
  4: 0x001B [0x1D] PRINT_EVENT_MESSAGE(message_id=7757*)
    → "I heard Jeuno began about eighty years ago when fishermen settled here. It was just a tiny fishing village back then."
  5: 0x001E [0x23] WAIT_FOR_DIALOG_INTERACTION
  6: 0x001F [0x1D] PRINT_EVENT_MESSAGE(message_id=7758*)
    → "As you can see from any map, Jeuno lies on a crossroads binding the three nations together. A hub of commerce, Jeuno grew wealthy."
  7: 0x0022 [0x23] WAIT_FOR_DIALOG_INTERACTION
  8: 0x0023 [0x1D] PRINT_EVENT_MESSAGE(message_id=7759*)
    → "Soon it was filled with the bustle of buyer and seller. Our humble district captures that particular energy better than any other."
  9: 0x0026 [0x23] WAIT_FOR_DIALOG_INTERACTION
 10: 0x0027 [0x5E] EventEntity goes idle (kills current action) (animation: "idl0")
 11: 0x002C [0x1D] PRINT_EVENT_MESSAGE(message_id=7760*)
    → "Huh? What am I doing here? I'm looking for work! I got fired from my last place. Something about talking too much..."
 12: 0x002F [0x23] WAIT_FOR_DIALOG_INTERACTION
 13: 0x0030 [0x21] END_EVENT
 14: 0x0031 [0x00] END_REQSTACK()
```

#### Data or dead code:

```
# Dead code (unreachable instructions):
     0x0032 [0x00] END_REQSTACK()
```

### Event 10094

#### Metadata

| Field        | Value   |
|--------------|---------|
| Entrypoint   | 0x0033  |
| Data Size    | 5 bytes |
| Instructions | 2       |

```
      00 01 02 03 04 05 06 07  08 09 0A 0B 0C 0D 0E 0F
      -- -- -- -- -- -- -- --  -- -- -- -- -- -- -- --
0030:          C0 05 80 00 00                              .....        
```

#### Opcodes

```
  0: 0x0033 [0xC0] EventEntity->Render.Flags3 |= 0x1000 // Set bit 12 (from 1*)
  1: 0x0036 [0x00] END_REQSTACK()
```

#### Data or dead code:

```
# Dead code (unreachable instructions):
     0x0037 [0x00] END_REQSTACK()
```

### Event 65535.1

#### Metadata

| Field        | Value    |
|--------------|----------|
| Entrypoint   | 0x0038   |
| Data Size    | 20 bytes |
| Instructions | 5        |

```
      00 01 02 03 04 05 06 07  08 09 0A 0B 0C 0D 0E 0F
      -- -- -- -- -- -- -- --  -- -- -- -- -- -- -- --
0030:                          59 04 0B 50 0F 01 06 80          Y..P....
0040: 1F 00 07 80 08 80 09 80  1F 01 6F 00              ..........o.    
```

#### Opcodes

```
  0: 0x0038 [0x59] UPDATE_ENTITY_DATA: Set Garnev (ID: 17780747/0x010F500B) main speed = 12* * 0.1
  1: 0x0040 [0x1F] MOVE_ENTITY: EventEntity moves to X=-76.092*, Z=-136.357*, Y=0.000*
  2: 0x0048 [0x1F] MOVE_ENTITY: Update entity position (mode=1)
  3: 0x004A [0x6F] WAIT_FRAME_DELAY: Yield until WaitTime reaches zero
  4: 0x004B [0x00] END_REQSTACK()
```

### Event 65535.2

#### Metadata

| Field        | Value    |
|--------------|----------|
| Entrypoint   | 0x004C   |
| Data Size    | 20 bytes |
| Instructions | 5        |

```
      00 01 02 03 04 05 06 07  08 09 0A 0B 0C 0D 0E 0F
      -- -- -- -- -- -- -- --  -- -- -- -- -- -- -- --
0040:                                      59 04 1D 50              Y..P
0050: 0F 01 0A 80 1F 00 0B 80  0C 80 09 80 1F 01 6F 00  ..............o.
```

#### Opcodes

```
  0: 0x004C [0x59] UPDATE_ENTITY_DATA: Set Mataligeat (ID: 17780765/0x010F501D) main speed = 11* * 0.1
  1: 0x0054 [0x1F] MOVE_ENTITY: EventEntity moves to X=-95.337*, Z=-156.056*, Y=0.000*
  2: 0x005C [0x1F] MOVE_ENTITY: Update entity position (mode=1)
  3: 0x005E [0x6F] WAIT_FRAME_DELAY: Yield until WaitTime reaches zero
  4: 0x005F [0x00] END_REQSTACK()
```

### Event 65535.3

#### Metadata

| Field        | Value    |
|--------------|----------|
| Entrypoint   | 0x0060   |
| Data Size    | 20 bytes |
| Instructions | 5        |

```
      00 01 02 03 04 05 06 07  08 09 0A 0B 0C 0D 0E 0F
      -- -- -- -- -- -- -- --  -- -- -- -- -- -- -- --
0060: 59 04 1D 50 0F 01 0A 80  1F 00 0D 80 0E 80 0F 80  Y..P............
0070: 1F 01 6F 00                                       ..o.            
```

#### Opcodes

```
  0: 0x0060 [0x59] UPDATE_ENTITY_DATA: Set Mataligeat (ID: 17780765/0x010F501D) main speed = 11* * 0.1
  1: 0x0068 [0x1F] MOVE_ENTITY: EventEntity moves to X=-62.073*, Z=-89.873*, Y=5.999*
  2: 0x0070 [0x1F] MOVE_ENTITY: Update entity position (mode=1)
  3: 0x0072 [0x6F] WAIT_FRAME_DELAY: Yield until WaitTime reaches zero
  4: 0x0073 [0x00] END_REQSTACK()
```

### Event 65535.4

#### Metadata

| Field        | Value    |
|--------------|----------|
| Entrypoint   | 0x0074   |
| Data Size    | 17 bytes |
| Instructions | 2        |

```
      00 01 02 03 04 05 06 07  08 09 0A 0B 0C 0D 0E 0F
      -- -- -- -- -- -- -- --  -- -- -- -- -- -- -- --
0070:             5B 10 80 1D  50 0F 01 1D 50 0F 01 6F      [...P...P..o
0080: 70 30 30 00 00                                    p00..           
```

#### Opcodes

```
  0: 0x0074 [0x5B] LOAD_EXT_SCHEDULER: Load scheduler "op00" with entities [Mataligeat (ID: 17780765/0x010F501D), Mataligeat (ID: 17780765/0x010F501D)], work=2618*
  1: 0x0083 [0x00] END_REQSTACK()
```

#### Data or dead code:

```
# Dead code (unreachable instructions):
     0x0084 [0x00] END_REQSTACK()
```

### Event 65535.5

#### Metadata

| Field        | Value    |
|--------------|----------|
| Entrypoint   | 0x0085   |
| Data Size    | 20 bytes |
| Instructions | 5        |

```
      00 01 02 03 04 05 06 07  08 09 0A 0B 0C 0D 0E 0F
      -- -- -- -- -- -- -- --  -- -- -- -- -- -- -- --
0080:                59 04 3A  50 0F 01 0A 80 1F 00 0B       Y.:P.......
0090: 80 0C 80 09 80 1F 01 6F  00                       .......o.       
```

#### Opcodes

```
  0: 0x0085 [0x59] UPDATE_ENTITY_DATA: Set Navisse (ID: 17780794/0x010F503A) main speed = 11* * 0.1
  1: 0x008D [0x1F] MOVE_ENTITY: EventEntity moves to X=-95.337*, Z=-156.056*, Y=0.000*
  2: 0x0095 [0x1F] MOVE_ENTITY: Update entity position (mode=1)
  3: 0x0097 [0x6F] WAIT_FRAME_DELAY: Yield until WaitTime reaches zero
  4: 0x0098 [0x00] END_REQSTACK()
```

### Event 65535.6

#### Metadata

| Field        | Value    |
|--------------|----------|
| Entrypoint   | 0x0099   |
| Data Size    | 20 bytes |
| Instructions | 5        |

```
      00 01 02 03 04 05 06 07  08 09 0A 0B 0C 0D 0E 0F
      -- -- -- -- -- -- -- --  -- -- -- -- -- -- -- --
0090:                             59 04 2C 50 0F 01 06           Y.,P...
00A0: 80 1F 00 11 80 12 80 09  80 1F 01 6F 00           ...........o.   
```

#### Opcodes

```
  0: 0x0099 [0x59] UPDATE_ENTITY_DATA: Set Jazmin (ID: 17780780/0x010F502C) main speed = 12* * 0.1
  1: 0x00A1 [0x1F] MOVE_ENTITY: EventEntity moves to X=-83.944*, Z=-128.625*, Y=0.000*
  2: 0x00A9 [0x1F] MOVE_ENTITY: Update entity position (mode=1)
  3: 0x00AB [0x6F] WAIT_FRAME_DELAY: Yield until WaitTime reaches zero
  4: 0x00AC [0x00] END_REQSTACK()
```

### Event 65535.7

#### Metadata

| Field        | Value    |
|--------------|----------|
| Entrypoint   | 0x00AD   |
| Data Size    | 19 bytes |
| Instructions | 4        |

```
      00 01 02 03 04 05 06 07  08 09 0A 0B 0C 0D 0E 0F
      -- -- -- -- -- -- -- --  -- -- -- -- -- -- -- --
00A0:                                         59 04 2C               Y.,
00B0: 50 0F 01 0A 80 1F 00 13  80 14 80 0F 80 1F 01 00  P...............
```

#### Opcodes

```
  0: 0x00AD [0x59] UPDATE_ENTITY_DATA: Set Jazmin (ID: 17780780/0x010F502C) main speed = 11* * 0.1
  1: 0x00B5 [0x1F] MOVE_ENTITY: EventEntity moves to X=-68.592*, Z=-96.839*, Y=5.999*
  2: 0x00BD [0x1F] MOVE_ENTITY: Update entity position (mode=1)
  3: 0x00BF [0x00] END_REQSTACK()
```

### Event 65535.8

#### Metadata

| Field        | Value    |
|--------------|----------|
| Entrypoint   | 0x00C0   |
| Data Size    | 19 bytes |
| Instructions | 4        |

```
      00 01 02 03 04 05 06 07  08 09 0A 0B 0C 0D 0E 0F
      -- -- -- -- -- -- -- --  -- -- -- -- -- -- -- --
00C0: 59 04 2C 50 0F 01 0A 80  1F 00 15 80 16 80 0F 80  Y.,P............
00D0: 1F 01 00                                          ...             
```

#### Opcodes

```
  0: 0x00C0 [0x59] UPDATE_ENTITY_DATA: Set Jazmin (ID: 17780780/0x010F502C) main speed = 11* * 0.1
  1: 0x00C8 [0x1F] MOVE_ENTITY: EventEntity moves to X=-70.511*, Z=-102.750*, Y=5.999*
  2: 0x00D0 [0x1F] MOVE_ENTITY: Update entity position (mode=1)
  3: 0x00D2 [0x00] END_REQSTACK()
```

### Event 65535.9

#### Metadata

| Field        | Value    |
|--------------|----------|
| Entrypoint   | 0x00D3   |
| Data Size    | 16 bytes |
| Instructions | 2        |

```
      00 01 02 03 04 05 06 07  08 09 0A 0B 0C 0D 0E 0F
      -- -- -- -- -- -- -- --  -- -- -- -- -- -- -- --
00D0:          5B 17 80 2C 50  0F 01 2C 50 0F 01 6F 70     [..,P..,P..op
00E0: 30 30 00                                          00.             
```

#### Opcodes

```
  0: 0x00D3 [0x5B] LOAD_EXT_SCHEDULER: Load scheduler "op00" with entities [Jazmin (ID: 17780780/0x010F502C), Jazmin (ID: 17780780/0x010F502C)], work=2602*
  1: 0x00E2 [0x00] END_REQSTACK()
```

### Event 65535.10

#### Metadata

| Field        | Value    |
|--------------|----------|
| Entrypoint   | 0x00E3   |
| Data Size    | 16 bytes |
| Instructions | 2        |

```
      00 01 02 03 04 05 06 07  08 09 0A 0B 0C 0D 0E 0F
      -- -- -- -- -- -- -- --  -- -- -- -- -- -- -- --
00E0:          5B 17 80 2C 50  0F 01 2C 50 0F 01 6F 70     [..,P..,P..op
00F0: 30 31 00                                          01.             
```

#### Opcodes

```
  0: 0x00E3 [0x5B] LOAD_EXT_SCHEDULER: Load scheduler "op01" with entities [Jazmin (ID: 17780780/0x010F502C), Jazmin (ID: 17780780/0x010F502C)], work=2602*
  1: 0x00F2 [0x00] END_REQSTACK()
```

### Event 65535.11

#### Metadata

| Field        | Value    |
|--------------|----------|
| Entrypoint   | 0x00F3   |
| Data Size    | 20 bytes |
| Instructions | 5        |

```
      00 01 02 03 04 05 06 07  08 09 0A 0B 0C 0D 0E 0F
      -- -- -- -- -- -- -- --  -- -- -- -- -- -- -- --
00F0:          59 04 2C 50 0F  01 0A 80 1F 00 18 80 19     Y.,P.........
0100: 80 0F 80 1F 01 6F 00                              .....o.         
```

#### Opcodes

```
  0: 0x00F3 [0x59] UPDATE_ENTITY_DATA: Set Jazmin (ID: 17780780/0x010F502C) main speed = 11* * 0.1
  1: 0x00FB [0x1F] MOVE_ENTITY: EventEntity moves to X=-72.366*, Z=-118.167*, Y=5.999*
  2: 0x0103 [0x1F] MOVE_ENTITY: Update entity position (mode=1)
  3: 0x0105 [0x6F] WAIT_FRAME_DELAY: Yield until WaitTime reaches zero
  4: 0x0106 [0x00] END_REQSTACK()
```

### Event 65535.12

#### Metadata

| Field        | Value    |
|--------------|----------|
| Entrypoint   | 0x0107   |
| Data Size    | 16 bytes |
| Instructions | 2        |

```
      00 01 02 03 04 05 06 07  08 09 0A 0B 0C 0D 0E 0F
      -- -- -- -- -- -- -- --  -- -- -- -- -- -- -- --
0100:                      5B  1A 80 2C 50 0F 01 2C 50         [..,P..,P
0110: 0F 01 6F 70 61 30 00                              ..opa0.         
```

#### Opcodes

```
  0: 0x0107 [0x5B] LOAD_EXT_SCHEDULER: Load scheduler "opa0" with entities [Jazmin (ID: 17780780/0x010F502C), Jazmin (ID: 17780780/0x010F502C)], work=2617*
  1: 0x0116 [0x00] END_REQSTACK()
```

### Event 65535.13

#### Metadata

| Field        | Value    |
|--------------|----------|
| Entrypoint   | 0x0117   |
| Data Size    | 16 bytes |
| Instructions | 2        |

```
      00 01 02 03 04 05 06 07  08 09 0A 0B 0C 0D 0E 0F
      -- -- -- -- -- -- -- --  -- -- -- -- -- -- -- --
0110:                      5B  1A 80 2C 50 0F 01 2C 50         [..,P..,P
0120: 0F 01 6F 70 61 31 00                              ..opa1.         
```

#### Opcodes

```
  0: 0x0117 [0x5B] LOAD_EXT_SCHEDULER: Load scheduler "opa1" with entities [Jazmin (ID: 17780780/0x010F502C), Jazmin (ID: 17780780/0x010F502C)], work=2617*
  1: 0x0126 [0x00] END_REQSTACK()
```

### Event 65535.14

#### Metadata

| Field        | Value    |
|--------------|----------|
| Entrypoint   | 0x0127   |
| Data Size    | 16 bytes |
| Instructions | 2        |

```
      00 01 02 03 04 05 06 07  08 09 0A 0B 0C 0D 0E 0F
      -- -- -- -- -- -- -- --  -- -- -- -- -- -- -- --
0120:                      5B  1A 80 2C 50 0F 01 2C 50         [..,P..,P
0130: 0F 01 6F 70 61 32 00                              ..opa2.         
```

#### Opcodes

```
  0: 0x0127 [0x5B] LOAD_EXT_SCHEDULER: Load scheduler "opa2" with entities [Jazmin (ID: 17780780/0x010F502C), Jazmin (ID: 17780780/0x010F502C)], work=2617*
  1: 0x0136 [0x00] END_REQSTACK()
```

### Event 65535.15

#### Metadata

| Field        | Value    |
|--------------|----------|
| Entrypoint   | 0x0137   |
| Data Size    | 21 bytes |
| Instructions | 5        |

```
      00 01 02 03 04 05 06 07  08 09 0A 0B 0C 0D 0E 0F
      -- -- -- -- -- -- -- --  -- -- -- -- -- -- -- --
0130:                      59  04 2E 50 0F 01 06 80 1F         Y..P.....
0140: 00 07 80 08 80 09 80 1F  01 6F 00 00              .........o..    
```

#### Opcodes

```
  0: 0x0137 [0x59] UPDATE_ENTITY_DATA: Set Bogharg (ID: 17780782/0x010F502E) main speed = 12* * 0.1
  1: 0x013F [0x1F] MOVE_ENTITY: EventEntity moves to X=-76.092*, Z=-136.357*, Y=0.000*
  2: 0x0147 [0x1F] MOVE_ENTITY: Update entity position (mode=1)
  3: 0x0149 [0x6F] WAIT_FRAME_DELAY: Yield until WaitTime reaches zero
  4: 0x014A [0x00] END_REQSTACK()
```

#### Data or dead code:

```
# Dead code (unreachable instructions):
     0x014B [0x00] END_REQSTACK()
```

### Event 65535.16

#### Metadata

| Field        | Value    |
|--------------|----------|
| Entrypoint   | 0x014C   |
| Data Size    | 16 bytes |
| Instructions | 2        |

```
      00 01 02 03 04 05 06 07  08 09 0A 0B 0C 0D 0E 0F
      -- -- -- -- -- -- -- --  -- -- -- -- -- -- -- --
0140:                                      66 1B 80 2E              f...
0150: 50 0F 01 2E 50 0F 01 74  68 6B 31 00              P...P..thk1.    
```

#### Opcodes

```
  0: 0x014C [0x66] LOAD_EXT_SCHEDULER_MAIN: Load scheduler "thk1" with entities [Bogharg (ID: 17780782/0x010F502E), Bogharg (ID: 17780782/0x010F502E)], work=69*
  1: 0x015B [0x00] END_REQSTACK()
```

### Event 65535.17

#### Metadata

| Field        | Value    |
|--------------|----------|
| Entrypoint   | 0x015C   |
| Data Size    | 16 bytes |
| Instructions | 2        |

```
      00 01 02 03 04 05 06 07  08 09 0A 0B 0C 0D 0E 0F
      -- -- -- -- -- -- -- --  -- -- -- -- -- -- -- --
0150:                                      66 1B 80 2E              f...
0160: 50 0F 01 2E 50 0F 01 74  68 6B 32 00              P...P..thk2.    
```

#### Opcodes

```
  0: 0x015C [0x66] LOAD_EXT_SCHEDULER_MAIN: Load scheduler "thk2" with entities [Bogharg (ID: 17780782/0x010F502E), Bogharg (ID: 17780782/0x010F502E)], work=69*
  1: 0x016B [0x00] END_REQSTACK()
```

### Event 65535.18

#### Metadata

| Field        | Value    |
|--------------|----------|
| Entrypoint   | 0x016C   |
| Data Size    | 20 bytes |
| Instructions | 5        |

```
      00 01 02 03 04 05 06 07  08 09 0A 0B 0C 0D 0E 0F
      -- -- -- -- -- -- -- --  -- -- -- -- -- -- -- --
0160:                                      59 04 2E 50              Y..P
0170: 0F 01 06 80 1F 00 1C 80  1D 80 0F 80 1F 01 6F 00  ..............o.
```

#### Opcodes

```
  0: 0x016C [0x59] UPDATE_ENTITY_DATA: Set Bogharg (ID: 17780782/0x010F502E) main speed = 12* * 0.1
  1: 0x0174 [0x1F] MOVE_ENTITY: EventEntity moves to X=-56.992*, Z=-88.050*, Y=5.999*
  2: 0x017C [0x1F] MOVE_ENTITY: Update entity position (mode=1)
  3: 0x017E [0x6F] WAIT_FRAME_DELAY: Yield until WaitTime reaches zero
  4: 0x017F [0x00] END_REQSTACK()
```

### Event 65535.19

#### Metadata

| Field        | Value    |
|--------------|----------|
| Entrypoint   | 0x0180   |
| Data Size    | 17 bytes |
| Instructions | 2        |

```
      00 01 02 03 04 05 06 07  08 09 0A 0B 0C 0D 0E 0F
      -- -- -- -- -- -- -- --  -- -- -- -- -- -- -- --
0180: 5B 1E 80 2E 50 0F 01 2E  50 0F 01 6F 70 30 30 00  [...P...P..op00.
0190: 00                                                .               
```

#### Opcodes

```
  0: 0x0180 [0x5B] LOAD_EXT_SCHEDULER: Load scheduler "op00" with entities [Bogharg (ID: 17780782/0x010F502E), Bogharg (ID: 17780782/0x010F502E)], work=2621*
  1: 0x018F [0x00] END_REQSTACK()
```

#### Data or dead code:

```
# Dead code (unreachable instructions):
     0x0190 [0x00] END_REQSTACK()
```

### Event 65535.20

#### Metadata

| Field        | Value    |
|--------------|----------|
| Entrypoint   | 0x0191   |
| Data Size    | 20 bytes |
| Instructions | 5        |

```
      00 01 02 03 04 05 06 07  08 09 0A 0B 0C 0D 0E 0F
      -- -- -- -- -- -- -- --  -- -- -- -- -- -- -- --
0190:    59 04 31 50 0F 01 0A  80 1F 00 11 80 12 80 09   Y.1P...........
01A0: 80 1F 01 6F 00                                    ...o.           
```

#### Opcodes

```
  0: 0x0191 [0x59] UPDATE_ENTITY_DATA: Set Nakho Jawantal (ID: 17780785/0x010F5031) main speed = 11* * 0.1
  1: 0x0199 [0x1F] MOVE_ENTITY: EventEntity moves to X=-83.944*, Z=-128.625*, Y=0.000*
  2: 0x01A1 [0x1F] MOVE_ENTITY: Update entity position (mode=1)
  3: 0x01A3 [0x6F] WAIT_FRAME_DELAY: Yield until WaitTime reaches zero
  4: 0x01A4 [0x00] END_REQSTACK()
```

### Event 65535.21

#### Metadata

| Field        | Value    |
|--------------|----------|
| Entrypoint   | 0x01A5   |
| Data Size    | 16 bytes |
| Instructions | 2        |

```
      00 01 02 03 04 05 06 07  08 09 0A 0B 0C 0D 0E 0F
      -- -- -- -- -- -- -- --  -- -- -- -- -- -- -- --
01A0:                5B 1F 80  12 50 0F 01 12 50 0F 01       [...P...P..
01B0: 6F 70 61 30 00                                    opa0.           
```

#### Opcodes

```
  0: 0x01A5 [0x5B] LOAD_EXT_SCHEDULER: Load scheduler "opa0" with entities [Tovrutaux (ID: 17780754/0x010F5012), Tovrutaux (ID: 17780754/0x010F5012)], work=2627*
  1: 0x01B4 [0x00] END_REQSTACK()
```

### Event 65535.22

#### Metadata

| Field        | Value    |
|--------------|----------|
| Entrypoint   | 0x01B5   |
| Data Size    | 16 bytes |
| Instructions | 2        |

```
      00 01 02 03 04 05 06 07  08 09 0A 0B 0C 0D 0E 0F
      -- -- -- -- -- -- -- --  -- -- -- -- -- -- -- --
01B0:                5B 1F 80  12 50 0F 01 12 50 0F 01       [...P...P..
01C0: 6F 70 61 31 00                                    opa1.           
```

#### Opcodes

```
  0: 0x01B5 [0x5B] LOAD_EXT_SCHEDULER: Load scheduler "opa1" with entities [Tovrutaux (ID: 17780754/0x010F5012), Tovrutaux (ID: 17780754/0x010F5012)], work=2627*
  1: 0x01C4 [0x00] END_REQSTACK()
```

### Event 65535.23

#### Metadata

| Field        | Value    |
|--------------|----------|
| Entrypoint   | 0x01C5   |
| Data Size    | 16 bytes |
| Instructions | 2        |

```
      00 01 02 03 04 05 06 07  08 09 0A 0B 0C 0D 0E 0F
      -- -- -- -- -- -- -- --  -- -- -- -- -- -- -- --
01C0:                5B 1F 80  12 50 0F 01 12 50 0F 01       [...P...P..
01D0: 6F 70 61 32 00                                    opa2.           
```

#### Opcodes

```
  0: 0x01C5 [0x5B] LOAD_EXT_SCHEDULER: Load scheduler "opa2" with entities [Tovrutaux (ID: 17780754/0x010F5012), Tovrutaux (ID: 17780754/0x010F5012)], work=2627*
  1: 0x01D4 [0x00] END_REQSTACK()
```

### Event 65535.24

#### Metadata

| Field        | Value    |
|--------------|----------|
| Entrypoint   | 0x01D5   |
| Data Size    | 16 bytes |
| Instructions | 2        |

```
      00 01 02 03 04 05 06 07  08 09 0A 0B 0C 0D 0E 0F
      -- -- -- -- -- -- -- --  -- -- -- -- -- -- -- --
01D0:                5B 20 80  12 50 0F 01 12 50 0F 01       [ ..P...P..
01E0: 74 68 6B 31 00                                    thk1.           
```

#### Opcodes

```
  0: 0x01D5 [0x5B] LOAD_EXT_SCHEDULER: Load scheduler "thk1" with entities [Tovrutaux (ID: 17780754/0x010F5012), Tovrutaux (ID: 17780754/0x010F5012)], work=75*
  1: 0x01E4 [0x00] END_REQSTACK()
```

### Event 65535.25

#### Metadata

| Field        | Value    |
|--------------|----------|
| Entrypoint   | 0x01E5   |
| Data Size    | 16 bytes |
| Instructions | 2        |

```
      00 01 02 03 04 05 06 07  08 09 0A 0B 0C 0D 0E 0F
      -- -- -- -- -- -- -- --  -- -- -- -- -- -- -- --
01E0:                5B 20 80  12 50 0F 01 12 50 0F 01       [ ..P...P..
01F0: 74 68 6B 32 00                                    thk2.           
```

#### Opcodes

```
  0: 0x01E5 [0x5B] LOAD_EXT_SCHEDULER: Load scheduler "thk2" with entities [Tovrutaux (ID: 17780754/0x010F5012), Tovrutaux (ID: 17780754/0x010F5012)], work=75*
  1: 0x01F4 [0x00] END_REQSTACK()
```

### Event 65535.26

#### Metadata

| Field        | Value    |
|--------------|----------|
| Entrypoint   | 0x01F5   |
| Data Size    | 16 bytes |
| Instructions | 2        |

```
      00 01 02 03 04 05 06 07  08 09 0A 0B 0C 0D 0E 0F
      -- -- -- -- -- -- -- --  -- -- -- -- -- -- -- --
01F0:                5B 20 80  12 50 0F 01 12 50 0F 01       [ ..P...P..
0200: 74 6C 6B 30 00                                    tlk0.           
```

#### Opcodes

```
  0: 0x01F5 [0x5B] LOAD_EXT_SCHEDULER: Load scheduler "tlk0" with entities [Tovrutaux (ID: 17780754/0x010F5012), Tovrutaux (ID: 17780754/0x010F5012)], work=75*
  1: 0x0204 [0x00] END_REQSTACK()
```

### Event 65535.27

#### Metadata

| Field        | Value    |
|--------------|----------|
| Entrypoint   | 0x0205   |
| Data Size    | 16 bytes |
| Instructions | 2        |

```
      00 01 02 03 04 05 06 07  08 09 0A 0B 0C 0D 0E 0F
      -- -- -- -- -- -- -- --  -- -- -- -- -- -- -- --
0200:                5B 20 80  12 50 0F 01 12 50 0F 01       [ ..P...P..
0210: 74 6C 6B 31 00                                    tlk1.           
```

#### Opcodes

```
  0: 0x0205 [0x5B] LOAD_EXT_SCHEDULER: Load scheduler "tlk1" with entities [Tovrutaux (ID: 17780754/0x010F5012), Tovrutaux (ID: 17780754/0x010F5012)], work=75*
  1: 0x0214 [0x00] END_REQSTACK()
```

### Event 65535.28

#### Metadata

| Field        | Value    |
|--------------|----------|
| Entrypoint   | 0x0215   |
| Data Size    | 12 bytes |
| Instructions | 4        |

```
      00 01 02 03 04 05 06 07  08 09 0A 0B 0C 0D 0E 0F
      -- -- -- -- -- -- -- --  -- -- -- -- -- -- -- --
0210:                1F 00 21  80 22 80 09 80 1F 01 6F       ..!.".....o
0220: 00                                                .               
```

#### Opcodes

```
  0: 0x0215 [0x1F] MOVE_ENTITY: EventEntity moves to X=-19.954*, Z=-20.950*, Y=0.000*
  1: 0x021D [0x1F] MOVE_ENTITY: Update entity position (mode=1)
  2: 0x021F [0x6F] WAIT_FRAME_DELAY: Yield until WaitTime reaches zero
  3: 0x0220 [0x00] END_REQSTACK()
```

### Event 65535.29

#### Metadata

| Field        | Value    |
|--------------|----------|
| Entrypoint   | 0x0221   |
| Data Size    | 20 bytes |
| Instructions | 5        |

```
      00 01 02 03 04 05 06 07  08 09 0A 0B 0C 0D 0E 0F
      -- -- -- -- -- -- -- --  -- -- -- -- -- -- -- --
0220:    59 04 13 50 0F 01 0A  80 1F 00 23 80 24 80 0F   Y..P......#.$..
0230: 80 1F 01 6F 00                                    ...o.           
```

#### Opcodes

```
  0: 0x0221 [0x59] UPDATE_ENTITY_DATA: Set Seyaya (ID: 17780755/0x010F5013) main speed = 11* * 0.1
  1: 0x0229 [0x1F] MOVE_ENTITY: EventEntity moves to X=-74.699*, Z=-107.115*, Y=5.999*
  2: 0x0231 [0x1F] MOVE_ENTITY: Update entity position (mode=1)
  3: 0x0233 [0x6F] WAIT_FRAME_DELAY: Yield until WaitTime reaches zero
  4: 0x0234 [0x00] END_REQSTACK()
```

### Event 65535.30

#### Metadata

| Field        | Value    |
|--------------|----------|
| Entrypoint   | 0x0235   |
| Data Size    | 17 bytes |
| Instructions | 2        |

```
      00 01 02 03 04 05 06 07  08 09 0A 0B 0C 0D 0E 0F
      -- -- -- -- -- -- -- --  -- -- -- -- -- -- -- --
0230:                5B 25 80  13 50 0F 01 13 50 0F 01       [%..P...P..
0240: 6F 70 61 30 00 00                                 opa0..          
```

#### Opcodes

```
  0: 0x0235 [0x5B] LOAD_EXT_SCHEDULER: Load scheduler "opa0" with entities [Seyaya (ID: 17780755/0x010F5013), Seyaya (ID: 17780755/0x010F5013)], work=2631*
  1: 0x0244 [0x00] END_REQSTACK()
```

#### Data or dead code:

```
# Dead code (unreachable instructions):
     0x0245 [0x00] END_REQSTACK()
```

### Event 65535.31

#### Metadata

| Field        | Value    |
|--------------|----------|
| Entrypoint   | 0x0246   |
| Data Size    | 17 bytes |
| Instructions | 2        |

```
      00 01 02 03 04 05 06 07  08 09 0A 0B 0C 0D 0E 0F
      -- -- -- -- -- -- -- --  -- -- -- -- -- -- -- --
0240:                   5B 25  80 13 50 0F 01 13 50 0F        [%..P...P.
0250: 01 6F 70 61 31 00 00                              .opa1..         
```

#### Opcodes

```
  0: 0x0246 [0x5B] LOAD_EXT_SCHEDULER: Load scheduler "opa1" with entities [Seyaya (ID: 17780755/0x010F5013), Seyaya (ID: 17780755/0x010F5013)], work=2631*
  1: 0x0255 [0x00] END_REQSTACK()
```

#### Data or dead code:

```
# Dead code (unreachable instructions):
     0x0256 [0x00] END_REQSTACK()
```

### Event 65535.32

#### Metadata

| Field        | Value    |
|--------------|----------|
| Entrypoint   | 0x0257   |
| Data Size    | 16 bytes |
| Instructions | 2        |

```
      00 01 02 03 04 05 06 07  08 09 0A 0B 0C 0D 0E 0F
      -- -- -- -- -- -- -- --  -- -- -- -- -- -- -- --
0250:                      5B  25 80 13 50 0F 01 13 50         [%..P...P
0260: 0F 01 6F 70 61 32 00                              ..opa2.         
```

#### Opcodes

```
  0: 0x0257 [0x5B] LOAD_EXT_SCHEDULER: Load scheduler "opa2" with entities [Seyaya (ID: 17780755/0x010F5013), Seyaya (ID: 17780755/0x010F5013)], work=2631*
  1: 0x0266 [0x00] END_REQSTACK()
```

### Event 65535.33

#### Metadata

| Field        | Value    |
|--------------|----------|
| Entrypoint   | 0x0267   |
| Data Size    | 16 bytes |
| Instructions | 2        |

```
      00 01 02 03 04 05 06 07  08 09 0A 0B 0C 0D 0E 0F
      -- -- -- -- -- -- -- --  -- -- -- -- -- -- -- --
0260:                      5B  26 80 13 50 0F 01 13 50         [&..P...P
0270: 0F 01 74 68 6B 31 00                              ..thk1.         
```

#### Opcodes

```
  0: 0x0267 [0x5B] LOAD_EXT_SCHEDULER: Load scheduler "thk1" with entities [Seyaya (ID: 17780755/0x010F5013), Seyaya (ID: 17780755/0x010F5013)], work=85*
  1: 0x0276 [0x00] END_REQSTACK()
```

### Event 65535.34

#### Metadata

| Field        | Value    |
|--------------|----------|
| Entrypoint   | 0x0277   |
| Data Size    | 16 bytes |
| Instructions | 2        |

```
      00 01 02 03 04 05 06 07  08 09 0A 0B 0C 0D 0E 0F
      -- -- -- -- -- -- -- --  -- -- -- -- -- -- -- --
0270:                      5B  26 80 13 50 0F 01 13 50         [&..P...P
0280: 0F 01 74 68 6B 32 00                              ..thk2.         
```

#### Opcodes

```
  0: 0x0277 [0x5B] LOAD_EXT_SCHEDULER: Load scheduler "thk2" with entities [Seyaya (ID: 17780755/0x010F5013), Seyaya (ID: 17780755/0x010F5013)], work=85*
  1: 0x0286 [0x00] END_REQSTACK()
```

### Event 65535.35

#### Metadata

| Field        | Value    |
|--------------|----------|
| Entrypoint   | 0x0287   |
| Data Size    | 16 bytes |
| Instructions | 2        |

```
      00 01 02 03 04 05 06 07  08 09 0A 0B 0C 0D 0E 0F
      -- -- -- -- -- -- -- --  -- -- -- -- -- -- -- --
0280:                      5B  26 80 13 50 0F 01 13 50         [&..P...P
0290: 0F 01 74 6C 6B 30 00                              ..tlk0.         
```

#### Opcodes

```
  0: 0x0287 [0x5B] LOAD_EXT_SCHEDULER: Load scheduler "tlk0" with entities [Seyaya (ID: 17780755/0x010F5013), Seyaya (ID: 17780755/0x010F5013)], work=85*
  1: 0x0296 [0x00] END_REQSTACK()
```

### Event 65535.36

#### Metadata

| Field        | Value    |
|--------------|----------|
| Entrypoint   | 0x0297   |
| Data Size    | 16 bytes |
| Instructions | 2        |

```
      00 01 02 03 04 05 06 07  08 09 0A 0B 0C 0D 0E 0F
      -- -- -- -- -- -- -- --  -- -- -- -- -- -- -- --
0290:                      5B  26 80 13 50 0F 01 13 50         [&..P...P
02A0: 0F 01 74 6C 6B 65 00                              ..tlke.         
```

#### Opcodes

```
  0: 0x0297 [0x5B] LOAD_EXT_SCHEDULER: Load scheduler "tlke" with entities [Seyaya (ID: 17780755/0x010F5013), Seyaya (ID: 17780755/0x010F5013)], work=85*
  1: 0x02A6 [0x00] END_REQSTACK()
```

### Event 65535.37

#### Metadata

| Field        | Value    |
|--------------|----------|
| Entrypoint   | 0x02A7   |
| Data Size    | 16 bytes |
| Instructions | 2        |

```
      00 01 02 03 04 05 06 07  08 09 0A 0B 0C 0D 0E 0F
      -- -- -- -- -- -- -- --  -- -- -- -- -- -- -- --
02A0:                      5B  26 80 13 50 0F 01 13 50         [&..P...P
02B0: 0F 01 62 61 6E 30 00                              ..ban0.         
```

#### Opcodes

```
  0: 0x02A7 [0x5B] LOAD_EXT_SCHEDULER: Load scheduler "ban0" with entities [Seyaya (ID: 17780755/0x010F5013), Seyaya (ID: 17780755/0x010F5013)], work=85*
  1: 0x02B6 [0x00] END_REQSTACK()
```

### Event 65535.38

#### Metadata

| Field        | Value    |
|--------------|----------|
| Entrypoint   | 0x02B7   |
| Data Size    | 13 bytes |
| Instructions | 4        |

```
      00 01 02 03 04 05 06 07  08 09 0A 0B 0C 0D 0E 0F
      -- -- -- -- -- -- -- --  -- -- -- -- -- -- -- --
02B0:                      1F  00 27 80 28 80 09 80 1F         ..'.(....
02C0: 01 6F 00 00                                       .o..            
```

#### Opcodes

```
  0: 0x02B7 [0x1F] MOVE_ENTITY: EventEntity moves to X=-19.857*, Z=-21.712*, Y=0.000*
  1: 0x02BF [0x1F] MOVE_ENTITY: Update entity position (mode=1)
  2: 0x02C1 [0x6F] WAIT_FRAME_DELAY: Yield until WaitTime reaches zero
  3: 0x02C2 [0x00] END_REQSTACK()
```

#### Data or dead code:

```
# Dead code (unreachable instructions):
     0x02C3 [0x00] END_REQSTACK()
```

### Event 65535.39

#### Metadata

| Field        | Value    |
|--------------|----------|
| Entrypoint   | 0x02C4   |
| Data Size    | 20 bytes |
| Instructions | 5        |

```
      00 01 02 03 04 05 06 07  08 09 0A 0B 0C 0D 0E 0F
      -- -- -- -- -- -- -- --  -- -- -- -- -- -- -- --
02C0:             59 04 C0 50  0F 01 29 80 1F 00 2A 80      Y..P..)...*.
02D0: 2B 80 09 80 1F 01 6F 00                           +.....o.        
```

#### Opcodes

```
  0: 0x02C4 [0x59] UPDATE_ENTITY_DATA: Set Rakuru-Rakoru (ID: 17780928/0x010F50C0) main speed = 14* * 0.1
  1: 0x02CC [0x1F] MOVE_ENTITY: EventEntity moves to X=-37.763*, Z=-62.812*, Y=0.000*
  2: 0x02D4 [0x1F] MOVE_ENTITY: Update entity position (mode=1)
  3: 0x02D6 [0x6F] WAIT_FRAME_DELAY: Yield until WaitTime reaches zero
  4: 0x02D7 [0x00] END_REQSTACK()
```

### Event 65535.40

#### Metadata

| Field        | Value    |
|--------------|----------|
| Entrypoint   | 0x02D8   |
| Data Size    | 12 bytes |
| Instructions | 4        |

```
      00 01 02 03 04 05 06 07  08 09 0A 0B 0C 0D 0E 0F
      -- -- -- -- -- -- -- --  -- -- -- -- -- -- -- --
02D0:                          1F 00 2C 80 2D 80 2E 80          ..,.-...
02E0: 1F 01 6F 00                                       ..o.            
```

#### Opcodes

```
  0: 0x02D8 [0x1F] MOVE_ENTITY: EventEntity moves to X=-13.366*, Z=2.528*, Y=-0.449*
  1: 0x02E0 [0x1F] MOVE_ENTITY: Update entity position (mode=1)
  2: 0x02E2 [0x6F] WAIT_FRAME_DELAY: Yield until WaitTime reaches zero
  3: 0x02E3 [0x00] END_REQSTACK()
```

### Event 65535.41

#### Metadata

| Field        | Value    |
|--------------|----------|
| Entrypoint   | 0x02E4   |
| Data Size    | 16 bytes |
| Instructions | 2        |

```
      00 01 02 03 04 05 06 07  08 09 0A 0B 0C 0D 0E 0F
      -- -- -- -- -- -- -- --  -- -- -- -- -- -- -- --
02E0:             66 2F 80 C0  50 0F 01 C0 50 0F 01 74      f/..P...P..t
02F0: 6C 6B 30 00                                       lk0.            
```

#### Opcodes

```
  0: 0x02E4 [0x66] LOAD_EXT_SCHEDULER_MAIN: Load scheduler "tlk0" with entities [Rakuru-Rakoru (ID: 17780928/0x010F50C0), Rakuru-Rakoru (ID: 17780928/0x010F50C0)], work=40*
  1: 0x02F3 [0x00] END_REQSTACK()
```

### Event 65535.42

#### Metadata

| Field        | Value    |
|--------------|----------|
| Entrypoint   | 0x02F4   |
| Data Size    | 16 bytes |
| Instructions | 2        |

```
      00 01 02 03 04 05 06 07  08 09 0A 0B 0C 0D 0E 0F
      -- -- -- -- -- -- -- --  -- -- -- -- -- -- -- --
02F0:             66 30 80 C0  50 0F 01 C0 50 0F 01 65      f0..P...P..e
0300: 68 6E 31 00                                       hn1.            
```

#### Opcodes

```
  0: 0x02F4 [0x66] LOAD_EXT_SCHEDULER_MAIN: Load scheduler "ehn1" with entities [Rakuru-Rakoru (ID: 17780928/0x010F50C0), Rakuru-Rakoru (ID: 17780928/0x010F50C0)], work=41*
  1: 0x0303 [0x00] END_REQSTACK()
```

### Event 65535.43

#### Metadata

| Field        | Value    |
|--------------|----------|
| Entrypoint   | 0x0304   |
| Data Size    | 16 bytes |
| Instructions | 2        |

```
      00 01 02 03 04 05 06 07  08 09 0A 0B 0C 0D 0E 0F
      -- -- -- -- -- -- -- --  -- -- -- -- -- -- -- --
0300:             66 2F 80 C0  50 0F 01 C0 50 0F 01 6D      f/..P...P..m
0310: 6F 6A 30 00                                       oj0.            
```

#### Opcodes

```
  0: 0x0304 [0x66] LOAD_EXT_SCHEDULER_MAIN: Load scheduler "moj0" with entities [Rakuru-Rakoru (ID: 17780928/0x010F50C0), Rakuru-Rakoru (ID: 17780928/0x010F50C0)], work=40*
  1: 0x0313 [0x00] END_REQSTACK()
```

### Event 65535.44

#### Metadata

| Field        | Value    |
|--------------|----------|
| Entrypoint   | 0x0314   |
| Data Size    | 20 bytes |
| Instructions | 5        |

```
      00 01 02 03 04 05 06 07  08 09 0A 0B 0C 0D 0E 0F
      -- -- -- -- -- -- -- --  -- -- -- -- -- -- -- --
0310:             59 04 C0 50  0F 01 29 80 1F 00 31 80      Y..P..)...1.
0320: 32 80 0F 80 1F 01 6F 00                           2.....o.        
```

#### Opcodes

```
  0: 0x0314 [0x59] UPDATE_ENTITY_DATA: Set Rakuru-Rakoru (ID: 17780928/0x010F50C0) main speed = 14* * 0.1
  1: 0x031C [0x1F] MOVE_ENTITY: EventEntity moves to X=-71.130*, Z=-110.791*, Y=5.999*
  2: 0x0324 [0x1F] MOVE_ENTITY: Update entity position (mode=1)
  3: 0x0326 [0x6F] WAIT_FRAME_DELAY: Yield until WaitTime reaches zero
  4: 0x0327 [0x00] END_REQSTACK()
```

### Event 65535.45

#### Metadata

| Field        | Value    |
|--------------|----------|
| Entrypoint   | 0x0328   |
| Data Size    | 29 bytes |
| Instructions | 6        |

```
      00 01 02 03 04 05 06 07  08 09 0A 0B 0C 0D 0E 0F
      -- -- -- -- -- -- -- --  -- -- -- -- -- -- -- --
0320:                          59 04 C0 50 0F 01 29 80          Y..P..).
0330: 1F 00 33 80 34 80 0F 80  1F 01 5A 00 35 80 36 80  ..3.4.....Z.5.6.
0340: 37 80 5A 01 00                                    7.Z..           
```

#### Opcodes

```
  0: 0x0328 [0x59] UPDATE_ENTITY_DATA: Set Rakuru-Rakoru (ID: 17780928/0x010F50C0) main speed = 14* * 0.1
  1: 0x0330 [0x1F] MOVE_ENTITY: EventEntity moves to X=-75.540*, Z=-116.545*, Y=5.999*
  2: 0x0338 [0x1F] MOVE_ENTITY: Update entity position (mode=1)
  3: 0x033A [0x5A] UPDATE_EVENT_POSITION: Set EventEntity MovePosition to X=-80.452*, Z=-125.376*, Y=0.999*
  4: 0x0342 [0x5A] UPDATE_EVENT_POSITION: Move EventEntity incrementally towards MovePosition
  5: 0x0344 [0x00] END_REQSTACK()
```

### Event 65535.46

#### Metadata

| Field        | Value    |
|--------------|----------|
| Entrypoint   | 0x0345   |
| Data Size    | 17 bytes |
| Instructions | 2        |

```
      00 01 02 03 04 05 06 07  08 09 0A 0B 0C 0D 0E 0F
      -- -- -- -- -- -- -- --  -- -- -- -- -- -- -- --
0340:                5B 38 80  C0 50 0F 01 C0 50 0F 01       [8..P...P..
0350: 62 6F 70 30 00 00                                 bop0..          
```

#### Opcodes

```
  0: 0x0345 [0x5B] LOAD_EXT_SCHEDULER: Load scheduler "bop0" with entities [Rakuru-Rakoru (ID: 17780928/0x010F50C0), Rakuru-Rakoru (ID: 17780928/0x010F50C0)], work=2611*
  1: 0x0354 [0x00] END_REQSTACK()
```

#### Data or dead code:

```
# Dead code (unreachable instructions):
     0x0355 [0x00] END_REQSTACK()
```

### Event 65535.47

#### Metadata

| Field        | Value    |
|--------------|----------|
| Entrypoint   | 0x0356   |
| Data Size    | 20 bytes |
| Instructions | 5        |

```
      00 01 02 03 04 05 06 07  08 09 0A 0B 0C 0D 0E 0F
      -- -- -- -- -- -- -- --  -- -- -- -- -- -- -- --
0350:                   59 04  25 50 0F 01 39 80 1F 00        Y.%P..9...
0360: 11 80 12 80 09 80 1F 01  6F 00                    ........o.      
```

#### Opcodes

```
  0: 0x0356 [0x59] UPDATE_ENTITY_DATA: Set Sutarara (ID: 17780773/0x010F5025) main speed = 13* * 0.1
  1: 0x035E [0x1F] MOVE_ENTITY: EventEntity moves to X=-83.944*, Z=-128.625*, Y=0.000*
  2: 0x0366 [0x1F] MOVE_ENTITY: Update entity position (mode=1)
  3: 0x0368 [0x6F] WAIT_FRAME_DELAY: Yield until WaitTime reaches zero
  4: 0x0369 [0x00] END_REQSTACK()
```

### Event 65535.48

#### Metadata

| Field        | Value    |
|--------------|----------|
| Entrypoint   | 0x036A   |
| Data Size    | 20 bytes |
| Instructions | 5        |

```
      00 01 02 03 04 05 06 07  08 09 0A 0B 0C 0D 0E 0F
      -- -- -- -- -- -- -- --  -- -- -- -- -- -- -- --
0360:                                59 04 25 50 0F 01            Y.%P..
0370: 39 80 1F 00 3A 80 3B 80  0F 80 1F 01 6F 00        9...:.;.....o.  
```

#### Opcodes

```
  0: 0x036A [0x59] UPDATE_ENTITY_DATA: Set Sutarara (ID: 17780773/0x010F5025) main speed = 13* * 0.1
  1: 0x0372 [0x1F] MOVE_ENTITY: EventEntity moves to X=-64.287*, Z=-102.136*, Y=5.999*
  2: 0x037A [0x1F] MOVE_ENTITY: Update entity position (mode=1)
  3: 0x037C [0x6F] WAIT_FRAME_DELAY: Yield until WaitTime reaches zero
  4: 0x037D [0x00] END_REQSTACK()
```

### Event 65535.49

#### Metadata

| Field        | Value    |
|--------------|----------|
| Entrypoint   | 0x037E   |
| Data Size    | 20 bytes |
| Instructions | 5        |

```
      00 01 02 03 04 05 06 07  08 09 0A 0B 0C 0D 0E 0F
      -- -- -- -- -- -- -- --  -- -- -- -- -- -- -- --
0370:                                            59 04                Y.
0380: 25 50 0F 01 39 80 1F 00  3C 80 3D 80 09 80 1F 01  %P..9...<.=.....
0390: 6F 00                                             o.              
```

#### Opcodes

```
  0: 0x037E [0x59] UPDATE_ENTITY_DATA: Set Sutarara (ID: 17780773/0x010F5025) main speed = 13* * 0.1
  1: 0x0386 [0x1F] MOVE_ENTITY: EventEntity moves to X=4.236*, Z=4.336*, Y=0.000*
  2: 0x038E [0x1F] MOVE_ENTITY: Update entity position (mode=1)
  3: 0x0390 [0x6F] WAIT_FRAME_DELAY: Yield until WaitTime reaches zero
  4: 0x0391 [0x00] END_REQSTACK()
```

### Event 65535.50

#### Metadata

| Field        | Value    |
|--------------|----------|
| Entrypoint   | 0x0392   |
| Data Size    | 20 bytes |
| Instructions | 5        |

```
      00 01 02 03 04 05 06 07  08 09 0A 0B 0C 0D 0E 0F
      -- -- -- -- -- -- -- --  -- -- -- -- -- -- -- --
0390:       59 04 34 50 0F 01  06 80 1F 00 3E 80 3F 80    Y.4P......>.?.
03A0: 40 80 1F 01 6F 00                                 @...o.          
```

#### Opcodes

```
  0: 0x0392 [0x59] UPDATE_ENTITY_DATA: Set Venika (ID: 17780788/0x010F5034) main speed = 12* * 0.1
  1: 0x039A [0x1F] MOVE_ENTITY: EventEntity moves to X=-15.376*, Z=-23.775*, Y=-0.101*
  2: 0x03A2 [0x1F] MOVE_ENTITY: Update entity position (mode=1)
  3: 0x03A4 [0x6F] WAIT_FRAME_DELAY: Yield until WaitTime reaches zero
  4: 0x03A5 [0x00] END_REQSTACK()
```

### Event 65535.51

#### Metadata

| Field        | Value    |
|--------------|----------|
| Entrypoint   | 0x03A6   |
| Data Size    | 20 bytes |
| Instructions | 5        |

```
      00 01 02 03 04 05 06 07  08 09 0A 0B 0C 0D 0E 0F
      -- -- -- -- -- -- -- --  -- -- -- -- -- -- -- --
03A0:                   59 04  34 50 0F 01 41 80 1F 00        Y.4P..A...
03B0: 3A 80 3B 80 0F 80 1F 01  6F 00                    :.;.....o.      
```

#### Opcodes

```
  0: 0x03A6 [0x59] UPDATE_ENTITY_DATA: Set Venika (ID: 17780788/0x010F5034) main speed = 10* * 0.1
  1: 0x03AE [0x1F] MOVE_ENTITY: EventEntity moves to X=-64.287*, Z=-102.136*, Y=5.999*
  2: 0x03B6 [0x1F] MOVE_ENTITY: Update entity position (mode=1)
  3: 0x03B8 [0x6F] WAIT_FRAME_DELAY: Yield until WaitTime reaches zero
  4: 0x03B9 [0x00] END_REQSTACK()
```

### Event 65535.52

#### Metadata

| Field        | Value    |
|--------------|----------|
| Entrypoint   | 0x03BA   |
| Data Size    | 16 bytes |
| Instructions | 2        |

```
      00 01 02 03 04 05 06 07  08 09 0A 0B 0C 0D 0E 0F
      -- -- -- -- -- -- -- --  -- -- -- -- -- -- -- --
03B0:                                5B 42 80 34 50 0F            [B.4P.
03C0: 01 34 50 0F 01 6F 70 62  30 00                    .4P..opb0.      
```

#### Opcodes

```
  0: 0x03BA [0x5B] LOAD_EXT_SCHEDULER: Load scheduler "opb0" with entities [Venika (ID: 17780788/0x010F5034), Venika (ID: 17780788/0x010F5034)], work=2584*
  1: 0x03C9 [0x00] END_REQSTACK()
```

### Event 65535.53

#### Metadata

| Field        | Value    |
|--------------|----------|
| Entrypoint   | 0x03CA   |
| Data Size    | 16 bytes |
| Instructions | 2        |

```
      00 01 02 03 04 05 06 07  08 09 0A 0B 0C 0D 0E 0F
      -- -- -- -- -- -- -- --  -- -- -- -- -- -- -- --
03C0:                                5B 42 80 34 50 0F            [B.4P.
03D0: 01 34 50 0F 01 6F 70 62  31 00                    .4P..opb1.      
```

#### Opcodes

```
  0: 0x03CA [0x5B] LOAD_EXT_SCHEDULER: Load scheduler "opb1" with entities [Venika (ID: 17780788/0x010F5034), Venika (ID: 17780788/0x010F5034)], work=2584*
  1: 0x03D9 [0x00] END_REQSTACK()
```

### Event 65535.54

#### Metadata

| Field        | Value    |
|--------------|----------|
| Entrypoint   | 0x03DA   |
| Data Size    | 20 bytes |
| Instructions | 5        |

```
      00 01 02 03 04 05 06 07  08 09 0A 0B 0C 0D 0E 0F
      -- -- -- -- -- -- -- --  -- -- -- -- -- -- -- --
03D0:                                59 04 34 50 0F 01            Y.4P..
03E0: 06 80 1F 00 43 80 44 80  09 80 1F 01 6F 00        ....C.D.....o.  
```

#### Opcodes

```
  0: 0x03DA [0x59] UPDATE_ENTITY_DATA: Set Venika (ID: 17780788/0x010F5034) main speed = 12* * 0.1
  1: 0x03E2 [0x1F] MOVE_ENTITY: EventEntity moves to X=-0.991*, Z=2.123*, Y=0.000*
  2: 0x03EA [0x1F] MOVE_ENTITY: Update entity position (mode=1)
  3: 0x03EC [0x6F] WAIT_FRAME_DELAY: Yield until WaitTime reaches zero
  4: 0x03ED [0x00] END_REQSTACK()
```

### Event 65535.55

#### Metadata

| Field        | Value    |
|--------------|----------|
| Entrypoint   | 0x03EE   |
| Data Size    | 16 bytes |
| Instructions | 2        |

```
      00 01 02 03 04 05 06 07  08 09 0A 0B 0C 0D 0E 0F
      -- -- -- -- -- -- -- --  -- -- -- -- -- -- -- --
03E0:                                            5B 42                [B
03F0: 80 34 50 0F 01 34 50 0F  01 6F 70 63 30 00        .4P..4P..opc0.  
```

#### Opcodes

```
  0: 0x03EE [0x5B] LOAD_EXT_SCHEDULER: Load scheduler "opc0" with entities [Venika (ID: 17780788/0x010F5034), Venika (ID: 17780788/0x010F5034)], work=2584*
  1: 0x03FD [0x00] END_REQSTACK()
```

### Event 65535.56

#### Metadata

| Field        | Value    |
|--------------|----------|
| Entrypoint   | 0x03FE   |
| Data Size    | 16 bytes |
| Instructions | 2        |

```
      00 01 02 03 04 05 06 07  08 09 0A 0B 0C 0D 0E 0F
      -- -- -- -- -- -- -- --  -- -- -- -- -- -- -- --
03F0:                                            5B 42                [B
0400: 80 34 50 0F 01 34 50 0F  01 6F 70 63 31 00        .4P..4P..opc1.  
```

#### Opcodes

```
  0: 0x03FE [0x5B] LOAD_EXT_SCHEDULER: Load scheduler "opc1" with entities [Venika (ID: 17780788/0x010F5034), Venika (ID: 17780788/0x010F5034)], work=2584*
  1: 0x040D [0x00] END_REQSTACK()
```

### Event 65535.57

#### Metadata

| Field        | Value    |
|--------------|----------|
| Entrypoint   | 0x040E   |
| Data Size    | 16 bytes |
| Instructions | 2        |

```
      00 01 02 03 04 05 06 07  08 09 0A 0B 0C 0D 0E 0F
      -- -- -- -- -- -- -- --  -- -- -- -- -- -- -- --
0400:                                            66 45                fE
0410: 80 36 50 0F 01 36 50 0F  01 61 77 77 30 00        .6P..6P..aww0.  
```

#### Opcodes

```
  0: 0x040E [0x66] LOAD_EXT_SCHEDULER_MAIN: Load scheduler "aww0" with entities [Kuah Dakonsa (ID: 17780790/0x010F5036), Kuah Dakonsa (ID: 17780790/0x010F5036)], work=8*
  1: 0x041D [0x00] END_REQSTACK()
```

### Event 65535.58

#### Metadata

| Field        | Value    |
|--------------|----------|
| Entrypoint   | 0x041E   |
| Data Size    | 16 bytes |
| Instructions | 2        |

```
      00 01 02 03 04 05 06 07  08 09 0A 0B 0C 0D 0E 0F
      -- -- -- -- -- -- -- --  -- -- -- -- -- -- -- --
0410:                                            66 46                fF
0420: 80 36 50 0F 01 36 50 0F  01 74 68 6B 31 00        .6P..6P..thk1.  
```

#### Opcodes

```
  0: 0x041E [0x66] LOAD_EXT_SCHEDULER_MAIN: Load scheduler "thk1" with entities [Kuah Dakonsa (ID: 17780790/0x010F5036), Kuah Dakonsa (ID: 17780790/0x010F5036)], work=51*
  1: 0x042D [0x00] END_REQSTACK()
```

### Event 65535.59

#### Metadata

| Field        | Value    |
|--------------|----------|
| Entrypoint   | 0x042E   |
| Data Size    | 21 bytes |
| Instructions | 5        |

```
      00 01 02 03 04 05 06 07  08 09 0A 0B 0C 0D 0E 0F
      -- -- -- -- -- -- -- --  -- -- -- -- -- -- -- --
0420:                                            59 04                Y.
0430: 32 50 0F 01 06 80 1F 00  47 80 48 80 0F 80 1F 01  2P......G.H.....
0440: 6F 00 00                                          o..             
```

#### Opcodes

```
  0: 0x042E [0x59] UPDATE_ENTITY_DATA: Set Gurdern (ID: 17780786/0x010F5032) main speed = 12* * 0.1
  1: 0x0436 [0x1F] MOVE_ENTITY: EventEntity moves to X=-61.958*, Z=-103.267*, Y=5.999*
  2: 0x043E [0x1F] MOVE_ENTITY: Update entity position (mode=1)
  3: 0x0440 [0x6F] WAIT_FRAME_DELAY: Yield until WaitTime reaches zero
  4: 0x0441 [0x00] END_REQSTACK()
```

#### Data or dead code:

```
# Dead code (unreachable instructions):
     0x0442 [0x00] END_REQSTACK()
```

### Event 65535.60

#### Metadata

| Field        | Value    |
|--------------|----------|
| Entrypoint   | 0x0443   |
| Data Size    | 20 bytes |
| Instructions | 5        |

```
      00 01 02 03 04 05 06 07  08 09 0A 0B 0C 0D 0E 0F
      -- -- -- -- -- -- -- --  -- -- -- -- -- -- -- --
0440:          59 04 32 50 0F  01 06 80 1F 00 49 80 4A     Y.2P......I.J
0450: 80 0F 80 1F 01 6F 00                              .....o.         
```

#### Opcodes

```
  0: 0x0443 [0x59] UPDATE_ENTITY_DATA: Set Gurdern (ID: 17780786/0x010F5032) main speed = 12* * 0.1
  1: 0x044B [0x1F] MOVE_ENTITY: EventEntity moves to X=-66.589*, Z=-92.299*, Y=5.999*
  2: 0x0453 [0x1F] MOVE_ENTITY: Update entity position (mode=1)
  3: 0x0455 [0x6F] WAIT_FRAME_DELAY: Yield until WaitTime reaches zero
  4: 0x0456 [0x00] END_REQSTACK()
```

### Event 65535.61

#### Metadata

| Field        | Value    |
|--------------|----------|
| Entrypoint   | 0x0457   |
| Data Size    | 20 bytes |
| Instructions | 5        |

```
      00 01 02 03 04 05 06 07  08 09 0A 0B 0C 0D 0E 0F
      -- -- -- -- -- -- -- --  -- -- -- -- -- -- -- --
0450:                      59  04 32 50 0F 01 06 80 1F         Y.2P.....
0460: 00 4B 80 4C 80 0F 80 1F  01 6F 00                 .K.L.....o.     
```

#### Opcodes

```
  0: 0x0457 [0x59] UPDATE_ENTITY_DATA: Set Gurdern (ID: 17780786/0x010F5032) main speed = 12* * 0.1
  1: 0x045F [0x1F] MOVE_ENTITY: EventEntity moves to X=-58.931*, Z=-86.942*, Y=5.999*
  2: 0x0467 [0x1F] MOVE_ENTITY: Update entity position (mode=1)
  3: 0x0469 [0x6F] WAIT_FRAME_DELAY: Yield until WaitTime reaches zero
  4: 0x046A [0x00] END_REQSTACK()
```

### Event 65535.62

#### Metadata

| Field        | Value    |
|--------------|----------|
| Entrypoint   | 0x046B   |
| Data Size    | 17 bytes |
| Instructions | 2        |

```
      00 01 02 03 04 05 06 07  08 09 0A 0B 0C 0D 0E 0F
      -- -- -- -- -- -- -- --  -- -- -- -- -- -- -- --
0460:                                   5B 1E 80 32 50             [..2P
0470: 0F 01 32 50 0F 01 6F 70  30 30 00 00              ..2P..op00..    
```

#### Opcodes

```
  0: 0x046B [0x5B] LOAD_EXT_SCHEDULER: Load scheduler "op00" with entities [Gurdern (ID: 17780786/0x010F5032), Gurdern (ID: 17780786/0x010F5032)], work=2621*
  1: 0x047A [0x00] END_REQSTACK()
```

#### Data or dead code:

```
# Dead code (unreachable instructions):
     0x047B [0x00] END_REQSTACK()
```

### Event 65535.63

#### Metadata

| Field        | Value    |
|--------------|----------|
| Entrypoint   | 0x047C   |
| Data Size    | 20 bytes |
| Instructions | 5        |

```
      00 01 02 03 04 05 06 07  08 09 0A 0B 0C 0D 0E 0F
      -- -- -- -- -- -- -- --  -- -- -- -- -- -- -- --
0470:                                      59 04 1C 50              Y..P
0480: 0F 01 0A 80 1F 00 0B 80  0C 80 09 80 1F 01 6F 00  ..............o.
```

#### Opcodes

```
  0: 0x047C [0x59] UPDATE_ENTITY_DATA: Set Mertaire (ID: 17780764/0x010F501C) main speed = 11* * 0.1
  1: 0x0484 [0x1F] MOVE_ENTITY: EventEntity moves to X=-95.337*, Z=-156.056*, Y=0.000*
  2: 0x048C [0x1F] MOVE_ENTITY: Update entity position (mode=1)
  3: 0x048E [0x6F] WAIT_FRAME_DELAY: Yield until WaitTime reaches zero
  4: 0x048F [0x00] END_REQSTACK()
```

### Event 65535.64

#### Metadata

| Field        | Value    |
|--------------|----------|
| Entrypoint   | 0x0490   |
| Data Size    | 20 bytes |
| Instructions | 5        |

```
      00 01 02 03 04 05 06 07  08 09 0A 0B 0C 0D 0E 0F
      -- -- -- -- -- -- -- --  -- -- -- -- -- -- -- --
0490: 59 04 1C 50 0F 01 0A 80  1F 00 4D 80 4E 80 4F 80  Y..P......M.N.O.
04A0: 1F 01 6F 00                                       ..o.            
```

#### Opcodes

```
  0: 0x0490 [0x59] UPDATE_ENTITY_DATA: Set Mertaire (ID: 17780764/0x010F501C) main speed = 11* * 0.1
  1: 0x0498 [0x1F] MOVE_ENTITY: EventEntity moves to X=-78.197*, Z=-116.328*, Y=3.999*
  2: 0x04A0 [0x1F] MOVE_ENTITY: Update entity position (mode=1)
  3: 0x04A2 [0x6F] WAIT_FRAME_DELAY: Yield until WaitTime reaches zero
  4: 0x04A3 [0x00] END_REQSTACK()
```

### Event 65535.65

#### Metadata

| Field        | Value    |
|--------------|----------|
| Entrypoint   | 0x04A4   |
| Data Size    | 16 bytes |
| Instructions | 2        |

```
      00 01 02 03 04 05 06 07  08 09 0A 0B 0C 0D 0E 0F
      -- -- -- -- -- -- -- --  -- -- -- -- -- -- -- --
04A0:             5B 50 80 1C  50 0F 01 1C 50 0F 01 6F      [P..P...P..o
04B0: 70 63 30 00                                       pc0.            
```

#### Opcodes

```
  0: 0x04A4 [0x5B] LOAD_EXT_SCHEDULER: Load scheduler "opc0" with entities [Mertaire (ID: 17780764/0x010F501C), Mertaire (ID: 17780764/0x010F501C)], work=2583*
  1: 0x04B3 [0x00] END_REQSTACK()
```

### Event 65535.66

#### Metadata

| Field        | Value    |
|--------------|----------|
| Entrypoint   | 0x04B4   |
| Data Size    | 16 bytes |
| Instructions | 2        |

```
      00 01 02 03 04 05 06 07  08 09 0A 0B 0C 0D 0E 0F
      -- -- -- -- -- -- -- --  -- -- -- -- -- -- -- --
04B0:             5B 50 80 1C  50 0F 01 1C 50 0F 01 6F      [P..P...P..o
04C0: 70 63 31 00                                       pc1.            
```

#### Opcodes

```
  0: 0x04B4 [0x5B] LOAD_EXT_SCHEDULER: Load scheduler "opc1" with entities [Mertaire (ID: 17780764/0x010F501C), Mertaire (ID: 17780764/0x010F501C)], work=2583*
  1: 0x04C3 [0x00] END_REQSTACK()
```

### Event 65535.67

#### Metadata

| Field        | Value    |
|--------------|----------|
| Entrypoint   | 0x04C4   |
| Data Size    | 21 bytes |
| Instructions | 5        |

```
      00 01 02 03 04 05 06 07  08 09 0A 0B 0C 0D 0E 0F
      -- -- -- -- -- -- -- --  -- -- -- -- -- -- -- --
04C0:             59 04 1C 50  0F 01 0A 80 1F 00 51 80      Y..P......Q.
04D0: 52 80 09 80 1F 01 6F 00  00                       R.....o..       
```

#### Opcodes

```
  0: 0x04C4 [0x59] UPDATE_ENTITY_DATA: Set Mertaire (ID: 17780764/0x010F501C) main speed = 11* * 0.1
  1: 0x04CC [0x1F] MOVE_ENTITY: EventEntity moves to X=-9.883*, Z=-9.826*, Y=0.000*
  2: 0x04D4 [0x1F] MOVE_ENTITY: Update entity position (mode=1)
  3: 0x04D6 [0x6F] WAIT_FRAME_DELAY: Yield until WaitTime reaches zero
  4: 0x04D7 [0x00] END_REQSTACK()
```

#### Data or dead code:

```
# Dead code (unreachable instructions):
     0x04D8 [0x00] END_REQSTACK()
```

### Event 65535.68

#### Metadata

| Field        | Value    |
|--------------|----------|
| Entrypoint   | 0x04D9   |
| Data Size    | 20 bytes |
| Instructions | 5        |

```
      00 01 02 03 04 05 06 07  08 09 0A 0B 0C 0D 0E 0F
      -- -- -- -- -- -- -- --  -- -- -- -- -- -- -- --
04D0:                             59 04 1E 50 0F 01 53           Y..P..S
04E0: 80 1F 00 23 80 24 80 0F  80 1F 01 6F 00           ...#.$.....o.   
```

#### Opcodes

```
  0: 0x04D9 [0x59] UPDATE_ENTITY_DATA: Set Bki Tbujhja (ID: 17780766/0x010F501E) main speed = 9* * 0.1
  1: 0x04E1 [0x1F] MOVE_ENTITY: EventEntity moves to X=-74.699*, Z=-107.115*, Y=5.999*
  2: 0x04E9 [0x1F] MOVE_ENTITY: Update entity position (mode=1)
  3: 0x04EB [0x6F] WAIT_FRAME_DELAY: Yield until WaitTime reaches zero
  4: 0x04EC [0x00] END_REQSTACK()
```

### Event 65535.69

#### Metadata

| Field        | Value    |
|--------------|----------|
| Entrypoint   | 0x04ED   |
| Data Size    | 20 bytes |
| Instructions | 5        |

```
      00 01 02 03 04 05 06 07  08 09 0A 0B 0C 0D 0E 0F
      -- -- -- -- -- -- -- --  -- -- -- -- -- -- -- --
04E0:                                         59 04 1E               Y..
04F0: 50 0F 01 0A 80 1F 00 54  80 55 80 0F 80 1F 01 6F  P......T.U.....o
0500: 00                                                .               
```

#### Opcodes

```
  0: 0x04ED [0x59] UPDATE_ENTITY_DATA: Set Bki Tbujhja (ID: 17780766/0x010F501E) main speed = 11* * 0.1
  1: 0x04F5 [0x1F] MOVE_ENTITY: EventEntity moves to X=-72.052*, Z=-102.467*, Y=5.999*
  2: 0x04FD [0x1F] MOVE_ENTITY: Update entity position (mode=1)
  3: 0x04FF [0x6F] WAIT_FRAME_DELAY: Yield until WaitTime reaches zero
  4: 0x0500 [0x00] END_REQSTACK()
```

### Event 65535.70

#### Metadata

| Field        | Value    |
|--------------|----------|
| Entrypoint   | 0x0501   |
| Data Size    | 16 bytes |
| Instructions | 2        |

```
      00 01 02 03 04 05 06 07  08 09 0A 0B 0C 0D 0E 0F
      -- -- -- -- -- -- -- --  -- -- -- -- -- -- -- --
0500:    66 45 80 1E 50 0F 01  1E 50 0F 01 61 77 77 30   fE..P...P..aww0
0510: 00                                                .               
```

#### Opcodes

```
  0: 0x0501 [0x66] LOAD_EXT_SCHEDULER_MAIN: Load scheduler "aww0" with entities [Bki Tbujhja (ID: 17780766/0x010F501E), Bki Tbujhja (ID: 17780766/0x010F501E)], work=8*
  1: 0x0510 [0x00] END_REQSTACK()
```

### Event 65535.71

#### Metadata

| Field        | Value    |
|--------------|----------|
| Entrypoint   | 0x0511   |
| Data Size    | 20 bytes |
| Instructions | 5        |

```
      00 01 02 03 04 05 06 07  08 09 0A 0B 0C 0D 0E 0F
      -- -- -- -- -- -- -- --  -- -- -- -- -- -- -- --
0510:    59 04 1E 50 0F 01 53  80 1F 00 56 80 57 80 09   Y..P..S...V.W..
0520: 80 1F 01 6F 00                                    ...o.           
```

#### Opcodes

```
  0: 0x0511 [0x59] UPDATE_ENTITY_DATA: Set Bki Tbujhja (ID: 17780766/0x010F501E) main speed = 9* * 0.1
  1: 0x0519 [0x1F] MOVE_ENTITY: EventEntity moves to X=-5.853*, Z=-5.190*, Y=0.000*
  2: 0x0521 [0x1F] MOVE_ENTITY: Update entity position (mode=1)
  3: 0x0523 [0x6F] WAIT_FRAME_DELAY: Yield until WaitTime reaches zero
  4: 0x0524 [0x00] END_REQSTACK()
```

### Event 65535.72

#### Metadata

| Field        | Value    |
|--------------|----------|
| Entrypoint   | 0x0525   |
| Data Size    | 21 bytes |
| Instructions | 5        |

```
      00 01 02 03 04 05 06 07  08 09 0A 0B 0C 0D 0E 0F
      -- -- -- -- -- -- -- --  -- -- -- -- -- -- -- --
0520:                59 04 1E  50 0F 01 0A 80 1F 00 4B       Y..P......K
0530: 80 4C 80 0F 80 1F 01 6F  00 00                    .L.....o..      
```

#### Opcodes

```
  0: 0x0525 [0x59] UPDATE_ENTITY_DATA: Set Bki Tbujhja (ID: 17780766/0x010F501E) main speed = 11* * 0.1
  1: 0x052D [0x1F] MOVE_ENTITY: EventEntity moves to X=-58.931*, Z=-86.942*, Y=5.999*
  2: 0x0535 [0x1F] MOVE_ENTITY: Update entity position (mode=1)
  3: 0x0537 [0x6F] WAIT_FRAME_DELAY: Yield until WaitTime reaches zero
  4: 0x0538 [0x00] END_REQSTACK()
```

#### Data or dead code:

```
# Dead code (unreachable instructions):
     0x0539 [0x00] END_REQSTACK()
```

### Event 65535.73

#### Metadata

| Field        | Value    |
|--------------|----------|
| Entrypoint   | 0x053A   |
| Data Size    | 20 bytes |
| Instructions | 5        |

```
      00 01 02 03 04 05 06 07  08 09 0A 0B 0C 0D 0E 0F
      -- -- -- -- -- -- -- --  -- -- -- -- -- -- -- --
0530:                                59 04 27 50 0F 01            Y.'P..
0540: 06 80 1F 00 58 80 59 80  5A 80 1F 01 6F 00        ....X.Y.Z...o.  
```

#### Opcodes

```
  0: 0x053A [0x59] UPDATE_ENTITY_DATA: Set Danzhor (ID: 17780775/0x010F5027) main speed = 12* * 0.1
  1: 0x0542 [0x1F] MOVE_ENTITY: EventEntity moves to X=-45.210*, Z=-89.196*, Y=-5.999*
  2: 0x054A [0x1F] MOVE_ENTITY: Update entity position (mode=1)
  3: 0x054C [0x6F] WAIT_FRAME_DELAY: Yield until WaitTime reaches zero
  4: 0x054D [0x00] END_REQSTACK()
```

### Event 65535.74

#### Metadata

| Field        | Value    |
|--------------|----------|
| Entrypoint   | 0x054E   |
| Data Size    | 12 bytes |
| Instructions | 4        |

```
      00 01 02 03 04 05 06 07  08 09 0A 0B 0C 0D 0E 0F
      -- -- -- -- -- -- -- --  -- -- -- -- -- -- -- --
0540:                                            1F 00                ..
0550: 5B 80 5C 80 09 80 1F 01  6F 00                    [.\.....o.      
```

#### Opcodes

```
  0: 0x054E [0x1F] MOVE_ENTITY: EventEntity moves to X=-18.343*, Z=-8.286*, Y=0.000*
  1: 0x0556 [0x1F] MOVE_ENTITY: Update entity position (mode=1)
  2: 0x0558 [0x6F] WAIT_FRAME_DELAY: Yield until WaitTime reaches zero
  3: 0x0559 [0x00] END_REQSTACK()
```

### Event 65535.75

#### Metadata

| Field        | Value    |
|--------------|----------|
| Entrypoint   | 0x055A   |
| Data Size    | 16 bytes |
| Instructions | 2        |

```
      00 01 02 03 04 05 06 07  08 09 0A 0B 0C 0D 0E 0F
      -- -- -- -- -- -- -- --  -- -- -- -- -- -- -- --
0550:                                66 1B 80 27 50 0F            f..'P.
0560: 01 27 50 0F 01 74 68 6B  31 00                    .'P..thk1.      
```

#### Opcodes

```
  0: 0x055A [0x66] LOAD_EXT_SCHEDULER_MAIN: Load scheduler "thk1" with entities [Danzhor (ID: 17780775/0x010F5027), Danzhor (ID: 17780775/0x010F5027)], work=69*
  1: 0x0569 [0x00] END_REQSTACK()
```

### Event 65535.76

#### Metadata

| Field        | Value    |
|--------------|----------|
| Entrypoint   | 0x056A   |
| Data Size    | 16 bytes |
| Instructions | 2        |

```
      00 01 02 03 04 05 06 07  08 09 0A 0B 0C 0D 0E 0F
      -- -- -- -- -- -- -- --  -- -- -- -- -- -- -- --
0560:                                66 1B 80 27 50 0F            f..'P.
0570: 01 27 50 0F 01 74 68 6B  32 00                    .'P..thk2.      
```

#### Opcodes

```
  0: 0x056A [0x66] LOAD_EXT_SCHEDULER_MAIN: Load scheduler "thk2" with entities [Danzhor (ID: 17780775/0x010F5027), Danzhor (ID: 17780775/0x010F5027)], work=69*
  1: 0x0579 [0x00] END_REQSTACK()
```

### Event 65535.77

#### Metadata

| Field        | Value    |
|--------------|----------|
| Entrypoint   | 0x057A   |
| Data Size    | 20 bytes |
| Instructions | 5        |

```
      00 01 02 03 04 05 06 07  08 09 0A 0B 0C 0D 0E 0F
      -- -- -- -- -- -- -- --  -- -- -- -- -- -- -- --
0570:                                59 04 27 50 0F 01            Y.'P..
0580: 06 80 1F 00 5D 80 5E 80  09 80 1F 01 6F 00        ....].^.....o.  
```

#### Opcodes

```
  0: 0x057A [0x59] UPDATE_ENTITY_DATA: Set Danzhor (ID: 17780775/0x010F5027) main speed = 12* * 0.1
  1: 0x0582 [0x1F] MOVE_ENTITY: EventEntity moves to X=-17.939*, Z=-16.579*, Y=0.000*
  2: 0x058A [0x1F] MOVE_ENTITY: Update entity position (mode=1)
  3: 0x058C [0x6F] WAIT_FRAME_DELAY: Yield until WaitTime reaches zero
  4: 0x058D [0x00] END_REQSTACK()
```

### Event 65535.78

#### Metadata

| Field        | Value    |
|--------------|----------|
| Entrypoint   | 0x058E   |
| Data Size    | 20 bytes |
| Instructions | 5        |

```
      00 01 02 03 04 05 06 07  08 09 0A 0B 0C 0D 0E 0F
      -- -- -- -- -- -- -- --  -- -- -- -- -- -- -- --
0580:                                            59 04                Y.
0590: 27 50 0F 01 06 80 1F 00  5F 80 60 80 09 80 1F 01  'P......_.`.....
05A0: 6F 00                                             o.              
```

#### Opcodes

```
  0: 0x058E [0x59] UPDATE_ENTITY_DATA: Set Danzhor (ID: 17780775/0x010F5027) main speed = 12* * 0.1
  1: 0x0596 [0x1F] MOVE_ENTITY: EventEntity moves to X=-3.065*, Z=-7.931*, Y=0.000*
  2: 0x059E [0x1F] MOVE_ENTITY: Update entity position (mode=1)
  3: 0x05A0 [0x6F] WAIT_FRAME_DELAY: Yield until WaitTime reaches zero
  4: 0x05A1 [0x00] END_REQSTACK()
```

### Event 65535.79

#### Metadata

| Field        | Value    |
|--------------|----------|
| Entrypoint   | 0x05A2   |
| Data Size    | 17 bytes |
| Instructions | 2        |

```
      00 01 02 03 04 05 06 07  08 09 0A 0B 0C 0D 0E 0F
      -- -- -- -- -- -- -- --  -- -- -- -- -- -- -- --
05A0:       66 30 80 30 50 0F  01 30 50 0F 01 73 68 6B    f0.0P..0P..shk
05B0: 30 00 00                                          0..             
```

#### Opcodes

```
  0: 0x05A2 [0x66] LOAD_EXT_SCHEDULER_MAIN: Load scheduler "shk0" with entities [Kikilolo (ID: 17780784/0x010F5030), Kikilolo (ID: 17780784/0x010F5030)], work=41*
  1: 0x05B1 [0x00] END_REQSTACK()
```

#### Data or dead code:

```
# Dead code (unreachable instructions):
     0x05B2 [0x00] END_REQSTACK()
```

### Event 65535.80

#### Metadata

| Field        | Value    |
|--------------|----------|
| Entrypoint   | 0x05B3   |
| Data Size    | 16 bytes |
| Instructions | 2        |

```
      00 01 02 03 04 05 06 07  08 09 0A 0B 0C 0D 0E 0F
      -- -- -- -- -- -- -- --  -- -- -- -- -- -- -- --
05B0:          5B 00 80 39 50  0F 01 39 50 0F 01 74 6C     [..9P..9P..tl
05C0: 6B 30 00                                          k0.             
```

#### Opcodes

```
  0: 0x05B3 [0x5B] LOAD_EXT_SCHEDULER: Load scheduler "tlk0" with entities [Momiji (ID: 17780793/0x010F5039), Momiji (ID: 17780793/0x010F5039)], work=60*
  1: 0x05C2 [0x00] END_REQSTACK()
```

### Event 65535.81

#### Metadata

| Field        | Value    |
|--------------|----------|
| Entrypoint   | 0x05C3   |
| Data Size    | 16 bytes |
| Instructions | 2        |

```
      00 01 02 03 04 05 06 07  08 09 0A 0B 0C 0D 0E 0F
      -- -- -- -- -- -- -- --  -- -- -- -- -- -- -- --
05C0:          5B 00 80 39 50  0F 01 39 50 0F 01 74 6C     [..9P..9P..tl
05D0: 6B 31 00                                          k1.             
```

#### Opcodes

```
  0: 0x05C3 [0x5B] LOAD_EXT_SCHEDULER: Load scheduler "tlk1" with entities [Momiji (ID: 17780793/0x010F5039), Momiji (ID: 17780793/0x010F5039)], work=60*
  1: 0x05D2 [0x00] END_REQSTACK()
```

### Event 65535.82

#### Metadata

| Field        | Value    |
|--------------|----------|
| Entrypoint   | 0x05D3   |
| Data Size    | 16 bytes |
| Instructions | 2        |

```
      00 01 02 03 04 05 06 07  08 09 0A 0B 0C 0D 0E 0F
      -- -- -- -- -- -- -- --  -- -- -- -- -- -- -- --
05D0:          5B 00 80 39 50  0F 01 39 50 0F 01 74 68     [..9P..9P..th
05E0: 6B 31 00                                          k1.             
```

#### Opcodes

```
  0: 0x05D3 [0x5B] LOAD_EXT_SCHEDULER: Load scheduler "thk1" with entities [Momiji (ID: 17780793/0x010F5039), Momiji (ID: 17780793/0x010F5039)], work=60*
  1: 0x05E2 [0x00] END_REQSTACK()
```

### Event 65535.83

#### Metadata

| Field        | Value    |
|--------------|----------|
| Entrypoint   | 0x05E3   |
| Data Size    | 16 bytes |
| Instructions | 2        |

```
      00 01 02 03 04 05 06 07  08 09 0A 0B 0C 0D 0E 0F
      -- -- -- -- -- -- -- --  -- -- -- -- -- -- -- --
05E0:          5B 00 80 39 50  0F 01 39 50 0F 01 74 68     [..9P..9P..th
05F0: 6B 32 00                                          k2.             
```

#### Opcodes

```
  0: 0x05E3 [0x5B] LOAD_EXT_SCHEDULER: Load scheduler "thk2" with entities [Momiji (ID: 17780793/0x010F5039), Momiji (ID: 17780793/0x010F5039)], work=60*
  1: 0x05F2 [0x00] END_REQSTACK()
```

### Event 65535.84

#### Metadata

| Field        | Value    |
|--------------|----------|
| Entrypoint   | 0x05F3   |
| Data Size    | 17 bytes |
| Instructions | 2        |

```
      00 01 02 03 04 05 06 07  08 09 0A 0B 0C 0D 0E 0F
      -- -- -- -- -- -- -- --  -- -- -- -- -- -- -- --
05F0:          5B 61 80 39 50  0F 01 39 50 0F 01 65 6D     [a.9P..9P..em
0600: 74 30 00 00                                       t0..            
```

#### Opcodes

```
  0: 0x05F3 [0x5B] LOAD_EXT_SCHEDULER: Load scheduler "emt0" with entities [Momiji (ID: 17780793/0x010F5039), Momiji (ID: 17780793/0x010F5039)], work=2624*
  1: 0x0602 [0x00] END_REQSTACK()
```

#### Data or dead code:

```
# Dead code (unreachable instructions):
     0x0603 [0x00] END_REQSTACK()
```

### Event 65535.85

#### Metadata

| Field        | Value    |
|--------------|----------|
| Entrypoint   | 0x0604   |
| Data Size    | 20 bytes |
| Instructions | 5        |

```
      00 01 02 03 04 05 06 07  08 09 0A 0B 0C 0D 0E 0F
      -- -- -- -- -- -- -- --  -- -- -- -- -- -- -- --
0600:             59 04 3C 50  0F 01 39 80 1F 00 62 80      Y.<P..9...b.
0610: 63 80 09 80 1F 01 6F 00                           c.....o.        
```

#### Opcodes

```
  0: 0x0604 [0x59] UPDATE_ENTITY_DATA: Set Mendi (ID: 17780796/0x010F503C) main speed = 13* * 0.1
  1: 0x060C [0x1F] MOVE_ENTITY: EventEntity moves to X=-38.371*, Z=-67.496*, Y=0.000*
  2: 0x0614 [0x1F] MOVE_ENTITY: Update entity position (mode=1)
  3: 0x0616 [0x6F] WAIT_FRAME_DELAY: Yield until WaitTime reaches zero
  4: 0x0617 [0x00] END_REQSTACK()
```

### Event 65535.86

#### Metadata

| Field        | Value    |
|--------------|----------|
| Entrypoint   | 0x0618   |
| Data Size    | 12 bytes |
| Instructions | 4        |

```
      00 01 02 03 04 05 06 07  08 09 0A 0B 0C 0D 0E 0F
      -- -- -- -- -- -- -- --  -- -- -- -- -- -- -- --
0610:                          1F 00 64 80 65 80 09 80          ..d.e...
0620: 1F 01 6F 00                                       ..o.            
```

#### Opcodes

```
  0: 0x0618 [0x1F] MOVE_ENTITY: EventEntity moves to X=-5.565*, Z=-1.804*, Y=0.000*
  1: 0x0620 [0x1F] MOVE_ENTITY: Update entity position (mode=1)
  2: 0x0622 [0x6F] WAIT_FRAME_DELAY: Yield until WaitTime reaches zero
  3: 0x0623 [0x00] END_REQSTACK()
```

### Event 65535.87

#### Metadata

| Field        | Value    |
|--------------|----------|
| Entrypoint   | 0x0624   |
| Data Size    | 16 bytes |
| Instructions | 2        |

```
      00 01 02 03 04 05 06 07  08 09 0A 0B 0C 0D 0E 0F
      -- -- -- -- -- -- -- --  -- -- -- -- -- -- -- --
0620:             5B 50 80 3C  50 0F 01 3C 50 0F 01 6F      [P.<P..<P..o
0630: 70 62 30 00                                       pb0.            
```

#### Opcodes

```
  0: 0x0624 [0x5B] LOAD_EXT_SCHEDULER: Load scheduler "opb0" with entities [Mendi (ID: 17780796/0x010F503C), Mendi (ID: 17780796/0x010F503C)], work=2583*
  1: 0x0633 [0x00] END_REQSTACK()
```

### Event 65535.88

#### Metadata

| Field        | Value    |
|--------------|----------|
| Entrypoint   | 0x0634   |
| Data Size    | 16 bytes |
| Instructions | 2        |

```
      00 01 02 03 04 05 06 07  08 09 0A 0B 0C 0D 0E 0F
      -- -- -- -- -- -- -- --  -- -- -- -- -- -- -- --
0630:             5B 50 80 3C  50 0F 01 3C 50 0F 01 6F      [P.<P..<P..o
0640: 70 63 30 00                                       pc0.            
```

#### Opcodes

```
  0: 0x0634 [0x5B] LOAD_EXT_SCHEDULER: Load scheduler "opc0" with entities [Mendi (ID: 17780796/0x010F503C), Mendi (ID: 17780796/0x010F503C)], work=2583*
  1: 0x0643 [0x00] END_REQSTACK()
```

### Event 65535.89

#### Metadata

| Field        | Value    |
|--------------|----------|
| Entrypoint   | 0x0644   |
| Data Size    | 16 bytes |
| Instructions | 2        |

```
      00 01 02 03 04 05 06 07  08 09 0A 0B 0C 0D 0E 0F
      -- -- -- -- -- -- -- --  -- -- -- -- -- -- -- --
0640:             5B 50 80 3C  50 0F 01 3C 50 0F 01 6F      [P.<P..<P..o
0650: 70 63 31 00                                       pc1.            
```

#### Opcodes

```
  0: 0x0644 [0x5B] LOAD_EXT_SCHEDULER: Load scheduler "opc1" with entities [Mendi (ID: 17780796/0x010F503C), Mendi (ID: 17780796/0x010F503C)], work=2583*
  1: 0x0653 [0x00] END_REQSTACK()
```

### Event 65535.90

#### Metadata

| Field        | Value    |
|--------------|----------|
| Entrypoint   | 0x0654   |
| Data Size    | 16 bytes |
| Instructions | 2        |

```
      00 01 02 03 04 05 06 07  08 09 0A 0B 0C 0D 0E 0F
      -- -- -- -- -- -- -- --  -- -- -- -- -- -- -- --
0650:             66 66 80 3C  50 0F 01 3C 50 0F 01 74      ff.<P..<P..t
0660: 68 62 31 00                                       hb1.            
```

#### Opcodes

```
  0: 0x0654 [0x66] LOAD_EXT_SCHEDULER_MAIN: Load scheduler "thb1" with entities [Mendi (ID: 17780796/0x010F503C), Mendi (ID: 17780796/0x010F503C)], work=2*
  1: 0x0663 [0x00] END_REQSTACK()
```

### Event 65535.91

#### Metadata

| Field        | Value    |
|--------------|----------|
| Entrypoint   | 0x0664   |
| Data Size    | 16 bytes |
| Instructions | 2        |

```
      00 01 02 03 04 05 06 07  08 09 0A 0B 0C 0D 0E 0F
      -- -- -- -- -- -- -- --  -- -- -- -- -- -- -- --
0660:             66 66 80 3C  50 0F 01 3C 50 0F 01 74      ff.<P..<P..t
0670: 68 62 32 00                                       hb2.            
```

#### Opcodes

```
  0: 0x0664 [0x66] LOAD_EXT_SCHEDULER_MAIN: Load scheduler "thb2" with entities [Mendi (ID: 17780796/0x010F503C), Mendi (ID: 17780796/0x010F503C)], work=2*
  1: 0x0673 [0x00] END_REQSTACK()
```

### Event 65535.92

#### Metadata

| Field        | Value    |
|--------------|----------|
| Entrypoint   | 0x0674   |
| Data Size    | 16 bytes |
| Instructions | 2        |

```
      00 01 02 03 04 05 06 07  08 09 0A 0B 0C 0D 0E 0F
      -- -- -- -- -- -- -- --  -- -- -- -- -- -- -- --
0670:             66 09 80 3C  50 0F 01 3C 50 0F 01 74      f..<P..<P..t
0680: 68 6B 31 00                                       hk1.            
```

#### Opcodes

```
  0: 0x0674 [0x66] LOAD_EXT_SCHEDULER_MAIN: Load scheduler "thk1" with entities [Mendi (ID: 17780796/0x010F503C), Mendi (ID: 17780796/0x010F503C)], work=0*
  1: 0x0683 [0x00] END_REQSTACK()
```

### Event 65535.93

#### Metadata

| Field        | Value    |
|--------------|----------|
| Entrypoint   | 0x0684   |
| Data Size    | 16 bytes |
| Instructions | 2        |

```
      00 01 02 03 04 05 06 07  08 09 0A 0B 0C 0D 0E 0F
      -- -- -- -- -- -- -- --  -- -- -- -- -- -- -- --
0680:             66 09 80 3C  50 0F 01 3C 50 0F 01 74      f..<P..<P..t
0690: 68 6B 32 00                                       hk2.            
```

#### Opcodes

```
  0: 0x0684 [0x66] LOAD_EXT_SCHEDULER_MAIN: Load scheduler "thk2" with entities [Mendi (ID: 17780796/0x010F503C), Mendi (ID: 17780796/0x010F503C)], work=0*
  1: 0x0693 [0x00] END_REQSTACK()
```

### Event 65535.94

#### Metadata

| Field        | Value    |
|--------------|----------|
| Entrypoint   | 0x0694   |
| Data Size    | 20 bytes |
| Instructions | 5        |

```
      00 01 02 03 04 05 06 07  08 09 0A 0B 0C 0D 0E 0F
      -- -- -- -- -- -- -- --  -- -- -- -- -- -- -- --
0690:             59 04 3C 50  0F 01 39 80 1F 00 67 80      Y.<P..9...g.
06A0: 68 80 09 80 1F 01 6F 00                           h.....o.        
```

#### Opcodes

```
  0: 0x0694 [0x59] UPDATE_ENTITY_DATA: Set Mendi (ID: 17780796/0x010F503C) main speed = 13* * 0.1
  1: 0x069C [0x1F] MOVE_ENTITY: EventEntity moves to X=-2.765*, Z=5.059*, Y=0.000*
  2: 0x06A4 [0x1F] MOVE_ENTITY: Update entity position (mode=1)
  3: 0x06A6 [0x6F] WAIT_FRAME_DELAY: Yield until WaitTime reaches zero
  4: 0x06A7 [0x00] END_REQSTACK()
```

### Event 65535.95

#### Metadata

| Field        | Value    |
|--------------|----------|
| Entrypoint   | 0x06A8   |
| Data Size    | 20 bytes |
| Instructions | 5        |

```
      00 01 02 03 04 05 06 07  08 09 0A 0B 0C 0D 0E 0F
      -- -- -- -- -- -- -- --  -- -- -- -- -- -- -- --
06A0:                          59 04 3C 50 0F 01 39 80          Y.<P..9.
06B0: 1F 00 43 80 44 80 09 80  1F 01 6F 00              ..C.D.....o.    
```

#### Opcodes

```
  0: 0x06A8 [0x59] UPDATE_ENTITY_DATA: Set Mendi (ID: 17780796/0x010F503C) main speed = 13* * 0.1
  1: 0x06B0 [0x1F] MOVE_ENTITY: EventEntity moves to X=-0.991*, Z=2.123*, Y=0.000*
  2: 0x06B8 [0x1F] MOVE_ENTITY: Update entity position (mode=1)
  3: 0x06BA [0x6F] WAIT_FRAME_DELAY: Yield until WaitTime reaches zero
  4: 0x06BB [0x00] END_REQSTACK()
```

### Event 65535.96

#### Metadata

| Field        | Value    |
|--------------|----------|
| Entrypoint   | 0x06BC   |
| Data Size    | 16 bytes |
| Instructions | 2        |

```
      00 01 02 03 04 05 06 07  08 09 0A 0B 0C 0D 0E 0F
      -- -- -- -- -- -- -- --  -- -- -- -- -- -- -- --
06B0:                                      5B 50 80 3C              [P.<
06C0: 50 0F 01 3C 50 0F 01 6F  70 64 30 00              P..<P..opd0.    
```

#### Opcodes

```
  0: 0x06BC [0x5B] LOAD_EXT_SCHEDULER: Load scheduler "opd0" with entities [Mendi (ID: 17780796/0x010F503C), Mendi (ID: 17780796/0x010F503C)], work=2583*
  1: 0x06CB [0x00] END_REQSTACK()
```

### Event 65535.97

#### Metadata

| Field        | Value    |
|--------------|----------|
| Entrypoint   | 0x06CC   |
| Data Size    | 16 bytes |
| Instructions | 2        |

```
      00 01 02 03 04 05 06 07  08 09 0A 0B 0C 0D 0E 0F
      -- -- -- -- -- -- -- --  -- -- -- -- -- -- -- --
06C0:                                      5B 50 80 3C              [P.<
06D0: 50 0F 01 3C 50 0F 01 6F  70 64 31 00              P..<P..opd1.    
```

#### Opcodes

```
  0: 0x06CC [0x5B] LOAD_EXT_SCHEDULER: Load scheduler "opd1" with entities [Mendi (ID: 17780796/0x010F503C), Mendi (ID: 17780796/0x010F503C)], work=2583*
  1: 0x06DB [0x00] END_REQSTACK()
```
