# 17780795 - Vola

## Common Data

| Field            | Value                 |
|------------------|-----------------------|
| Zone             | Lower Jeuno (ID: 245) |
| Block Size       | 3164 bytes            |
| Total Events     | 118                   |
| References Count | 118                   |

## List of Events

| Event ID                   | Entrypoint   |   Size |   Instructions |
|----------------------------|--------------|--------|----------------|
| [65535](#event-65535)      | 0x0000       |     26 |              6 |
| [212](#event-212)          | 0x001A       |     60 |             12 |
| [216](#event-216)          | 0x0056       |    205 |             37 |
| [215](#event-215)          | 0x0123       |     60 |             12 |
| [213](#event-213)          | 0x015F       |     76 |             13 |
| [214](#event-214)          | 0x01AB       |     56 |             10 |
| [20](#event-20)            | 0x01E3       |      1 |              1 |
| [160](#event-160)          | 0x01E4       |      1 |              1 |
| [10062](#event-10062)      | 0x01E5       |      1 |              1 |
| [10063](#event-10063)      | 0x01E6       |      1 |              1 |
| [10064](#event-10064)      | 0x01E7       |      1 |              1 |
| [10065](#event-10065)      | 0x01E8       |      1 |              1 |
| [10066](#event-10066)      | 0x01E9       |      1 |              1 |
| [10067](#event-10067)      | 0x01EA       |      1 |              1 |
| [10068](#event-10068)      | 0x01EB       |      1 |              1 |
| [10069](#event-10069)      | 0x01EC       |      1 |              1 |
| [10070](#event-10070)      | 0x01ED       |      1 |              1 |
| [10071](#event-10071)      | 0x01EE       |      1 |              1 |
| [10072](#event-10072)      | 0x01EF       |      2 |              2 |
| [10094](#event-10094)      | 0x01F1       |      5 |              3 |
| [65535.1](#event-655351)   | 0x01F6       |     20 |              5 |
| [65535.2](#event-655352)   | 0x020A       |     20 |              5 |
| [65535.3](#event-655353)   | 0x021E       |     20 |              5 |
| [65535.4](#event-655354)   | 0x0232       |     17 |              3 |
| [65535.5](#event-655355)   | 0x0243       |     20 |              5 |
| [65535.6](#event-655356)   | 0x0257       |     20 |              5 |
| [65535.7](#event-655357)   | 0x026B       |     19 |              4 |
| [65535.8](#event-655358)   | 0x027E       |     19 |              4 |
| [65535.9](#event-655359)   | 0x0291       |     16 |              2 |
| [65535.10](#event-6553510) | 0x02A1       |     16 |              2 |
| [65535.11](#event-6553511) | 0x02B1       |     20 |              5 |
| [65535.12](#event-6553512) | 0x02C5       |     16 |              2 |
| [65535.13](#event-6553513) | 0x02D5       |     16 |              2 |
| [65535.14](#event-6553514) | 0x02E5       |     16 |              2 |
| [65535.15](#event-6553515) | 0x02F5       |     21 |              6 |
| [65535.16](#event-6553516) | 0x030A       |     16 |              2 |
| [65535.17](#event-6553517) | 0x031A       |     16 |              2 |
| [65535.18](#event-6553518) | 0x032A       |     20 |              5 |
| [65535.19](#event-6553519) | 0x033E       |     17 |              3 |
| [65535.20](#event-6553520) | 0x034F       |     20 |              5 |
| [65535.21](#event-6553521) | 0x0363       |     16 |              2 |
| [65535.22](#event-6553522) | 0x0373       |     16 |              2 |
| [65535.23](#event-6553523) | 0x0383       |     16 |              2 |
| [65535.24](#event-6553524) | 0x0393       |     16 |              2 |
| [65535.25](#event-6553525) | 0x03A3       |     16 |              2 |
| [65535.26](#event-6553526) | 0x03B3       |     16 |              2 |
| [65535.27](#event-6553527) | 0x03C3       |     16 |              2 |
| [65535.28](#event-6553528) | 0x03D3       |     12 |              4 |
| [65535.29](#event-6553529) | 0x03DF       |     20 |              5 |
| [65535.30](#event-6553530) | 0x03F3       |     17 |              3 |
| [65535.31](#event-6553531) | 0x0404       |     17 |              3 |
| [65535.32](#event-6553532) | 0x0415       |     16 |              2 |
| [65535.33](#event-6553533) | 0x0425       |     16 |              2 |
| [65535.34](#event-6553534) | 0x0435       |     16 |              2 |
| [65535.35](#event-6553535) | 0x0445       |     16 |              2 |
| [65535.36](#event-6553536) | 0x0455       |     16 |              2 |
| [65535.37](#event-6553537) | 0x0465       |     16 |              2 |
| [65535.38](#event-6553538) | 0x0475       |     13 |              5 |
| [65535.39](#event-6553539) | 0x0482       |     20 |              5 |
| [65535.40](#event-6553540) | 0x0496       |     12 |              4 |
| [65535.41](#event-6553541) | 0x04A2       |     16 |              2 |
| [65535.42](#event-6553542) | 0x04B2       |     16 |              2 |
| [65535.43](#event-6553543) | 0x04C2       |     16 |              2 |
| [65535.44](#event-6553544) | 0x04D2       |     20 |              5 |
| [65535.45](#event-6553545) | 0x04E6       |     29 |              6 |
| [65535.46](#event-6553546) | 0x0503       |     17 |              3 |
| [65535.47](#event-6553547) | 0x0514       |     20 |              5 |
| [65535.48](#event-6553548) | 0x0528       |     20 |              5 |
| [65535.49](#event-6553549) | 0x053C       |     20 |              5 |
| [65535.50](#event-6553550) | 0x0550       |     20 |              5 |
| [65535.51](#event-6553551) | 0x0564       |     20 |              5 |
| [65535.52](#event-6553552) | 0x0578       |     16 |              2 |
| [65535.53](#event-6553553) | 0x0588       |     16 |              2 |
| [65535.54](#event-6553554) | 0x0598       |     20 |              5 |
| [65535.55](#event-6553555) | 0x05AC       |     16 |              2 |
| [65535.56](#event-6553556) | 0x05BC       |     16 |              2 |
| [65535.57](#event-6553557) | 0x05CC       |     16 |              2 |
| [65535.58](#event-6553558) | 0x05DC       |     16 |              2 |
| [65535.59](#event-6553559) | 0x05EC       |     21 |              6 |
| [65535.60](#event-6553560) | 0x0601       |     20 |              5 |
| [65535.61](#event-6553561) | 0x0615       |     20 |              5 |
| [65535.62](#event-6553562) | 0x0629       |     17 |              3 |
| [65535.63](#event-6553563) | 0x063A       |     20 |              5 |
| [65535.64](#event-6553564) | 0x064E       |     20 |              5 |
| [65535.65](#event-6553565) | 0x0662       |     16 |              2 |
| [65535.66](#event-6553566) | 0x0672       |     16 |              2 |
| [65535.67](#event-6553567) | 0x0682       |     21 |              6 |
| [65535.68](#event-6553568) | 0x0697       |     20 |              5 |
| [65535.69](#event-6553569) | 0x06AB       |     20 |              5 |
| [65535.70](#event-6553570) | 0x06BF       |     16 |              2 |
| [65535.71](#event-6553571) | 0x06CF       |     20 |              5 |
| [65535.72](#event-6553572) | 0x06E3       |     21 |              6 |
| [65535.73](#event-6553573) | 0x06F8       |     20 |              5 |
| [65535.74](#event-6553574) | 0x070C       |     12 |              4 |
| [65535.75](#event-6553575) | 0x0718       |     16 |              2 |
| [65535.76](#event-6553576) | 0x0728       |     16 |              2 |
| [65535.77](#event-6553577) | 0x0738       |     20 |              5 |
| [65535.78](#event-6553578) | 0x074C       |     20 |              5 |
| [65535.79](#event-6553579) | 0x0760       |     17 |              3 |
| [65535.80](#event-6553580) | 0x0771       |     16 |              2 |
| [65535.81](#event-6553581) | 0x0781       |     16 |              2 |
| [65535.82](#event-6553582) | 0x0791       |     16 |              2 |
| [65535.83](#event-6553583) | 0x07A1       |     16 |              2 |
| [65535.84](#event-6553584) | 0x07B1       |     17 |              3 |
| [65535.85](#event-6553585) | 0x07C2       |     20 |              5 |
| [65535.86](#event-6553586) | 0x07D6       |     12 |              4 |
| [65535.87](#event-6553587) | 0x07E2       |     16 |              2 |
| [65535.88](#event-6553588) | 0x07F2       |     16 |              2 |
| [65535.89](#event-6553589) | 0x0802       |     16 |              2 |
| [65535.90](#event-6553590) | 0x0812       |     16 |              2 |
| [65535.91](#event-6553591) | 0x0822       |     16 |              2 |
| [65535.92](#event-6553592) | 0x0832       |     16 |              2 |
| [65535.93](#event-6553593) | 0x0842       |     16 |              2 |
| [65535.94](#event-6553594) | 0x0852       |     20 |              5 |
| [65535.95](#event-6553595) | 0x0866       |     20 |              5 |
| [65535.96](#event-6553596) | 0x087A       |     16 |              2 |
| [65535.97](#event-6553597) | 0x088A       |     16 |              2 |
| [10125](#event-10125)      | 0x089A       |      1 |              1 |

## DAT References (imed_data)

|   Index | Hex Value   |   Dec Value |
|---------|-------------|-------------|
|       0 | 0x3391      |       13201 |
|       1 | 0x3392      |       13202 |
|       2 | 0x03F4      |        1012 |
|       3 | 0x03F5      |        1013 |
|       4 | 0x03F6      |        1014 |
|       5 | 0x0000      |           0 |
|       6 | 0x1E7E      |        7806 |
|       7 | 0x1E7F      |        7807 |
|       8 | 0x1E80      |        7808 |
|       9 | 0x1E81      |        7809 |
|      10 | 0x1E82      |        7810 |
|      11 | 0x0001      |           1 |
|      12 | 0x1E83      |        7811 |
|      13 | 0x1E84      |        7812 |
|      14 | 0x1E85      |        7813 |
|      15 | 0x1E86      |        7814 |
|      16 | 0x1E87      |        7815 |
|      17 | 0x00C9      |         201 |
|      18 | 0x1E88      |        7816 |
|      19 | 0x000C      |          12 |
|      20 | 0xFFFED6C4  |  4294891204 |
|      21 | 0xFFFDEB5B  |  4294830939 |
|      22 | 0x000B      |          11 |
|      23 | 0xFFFE8B97  |  4294871959 |
|      24 | 0xFFFD9E68  |  4294811240 |
|      25 | 0xFFFF0D87  |  4294905223 |
|      26 | 0xFFFEA0EF  |  4294877423 |
|      27 | 0x176F      |        5999 |
|      28 | 0x0A3A      |        2618 |
|      29 | 0xFFFEB818  |  4294883352 |
|      30 | 0xFFFE098F  |  4294838671 |
|      31 | 0xFFFEF410  |  4294898704 |
|      32 | 0xFFFE85B9  |  4294870457 |
|      33 | 0xFFFEEC91  |  4294896785 |
|      34 | 0xFFFE6EA2  |  4294864546 |
|      35 | 0x0A2A      |        2602 |
|      36 | 0xFFFEE552  |  4294894930 |
|      37 | 0xFFFE3269  |  4294849129 |
|      38 | 0x0A39      |        2617 |
|      39 | 0x0045      |          69 |
|      40 | 0xFFFF2160  |  4294910304 |
|      41 | 0xFFFEA80E  |  4294879246 |
|      42 | 0x0A3D      |        2621 |
|      43 | 0x0A43      |        2627 |
|      44 | 0x004B      |          75 |
|      45 | 0xFFFFB20E  |  4294947342 |
|      46 | 0xFFFFAE2A  |  4294946346 |
|      47 | 0xFFFEDC35  |  4294892597 |
|      48 | 0xFFFE5D95  |  4294860181 |
|      49 | 0x0A47      |        2631 |
|      50 | 0x0055      |          85 |
|      51 | 0xFFFFB26F  |  4294947439 |
|      52 | 0xFFFFAB30  |  4294945584 |
|      53 | 0x000E      |          14 |
|      54 | 0xFFFF6C7D  |  4294929533 |
|      55 | 0xFFFF0AA4  |  4294904484 |
|      56 | 0xFFFFCBCA  |  4294953930 |
|      57 | 0x09E0      |        2528 |
|      58 | 0xFFFFFE3F  |  4294966847 |
|      59 | 0x0028      |          40 |
|      60 | 0x0029      |          41 |
|      61 | 0xFFFEEA26  |  4294896166 |
|      62 | 0xFFFE4F39  |  4294856505 |
|      63 | 0xFFFED8EC  |  4294891756 |
|      64 | 0xFFFE38BF  |  4294850751 |
|      65 | 0xFFFEC5BC  |  4294886844 |
|      66 | 0xFFFE1640  |  4294841920 |
|      67 | 0x03E7      |         999 |
|      68 | 0x0A33      |        2611 |
|      69 | 0x000D      |          13 |
|      70 | 0xFFFF04E1  |  4294903009 |
|      71 | 0xFFFE7108  |  4294865160 |
|      72 | 0x108C      |        4236 |
|      73 | 0x10F0      |        4336 |
|      74 | 0xFFFFC3F0  |  4294951920 |
|      75 | 0xFFFFA321  |  4294943521 |
|      76 | 0xFFFFFF9B  |  4294967195 |
|      77 | 0x000A      |          10 |
|      78 | 0x0A18      |        2584 |
|      79 | 0xFFFFFC21  |  4294966305 |
|      80 | 0x084B      |        2123 |
|      81 | 0x0008      |           8 |
|      82 | 0x0033      |          51 |
|      83 | 0xFFFF0DFA  |  4294905338 |
|      84 | 0xFFFE6C9D  |  4294864029 |
|      85 | 0xFFFEFBE3  |  4294900707 |
|      86 | 0xFFFE9775  |  4294874997 |
|      87 | 0xFFFF19CD  |  4294908365 |
|      88 | 0xFFFEAC62  |  4294880354 |
|      89 | 0xFFFECE8B  |  4294889099 |
|      90 | 0xFFFE3998  |  4294850968 |
|      91 | 0x0F9F      |        3999 |
|      92 | 0x0A17      |        2583 |
|      93 | 0xFFFFD965  |  4294957413 |
|      94 | 0xFFFFD99E  |  4294957470 |
|      95 | 0x0009      |           9 |
|      96 | 0xFFFEE68C  |  4294895244 |
|      97 | 0xFFFE6FBD  |  4294864829 |
|      98 | 0xFFFFE923  |  4294961443 |
|      99 | 0xFFFFEBBA  |  4294962106 |
|     100 | 0xFFFF4F66  |  4294922086 |
|     101 | 0xFFFEA394  |  4294878100 |
|     102 | 0xFFFFE891  |  4294961297 |
|     103 | 0xFFFFB859  |  4294948953 |
|     104 | 0xFFFFDFA2  |  4294959010 |
|     105 | 0xFFFFB9ED  |  4294949357 |
|     106 | 0xFFFFBF3D  |  4294950717 |
|     107 | 0xFFFFF407  |  4294964231 |
|     108 | 0xFFFFE105  |  4294959365 |
|     109 | 0x003C      |          60 |
|     110 | 0x0A40      |        2624 |
|     111 | 0xFFFF6A1D  |  4294928925 |
|     112 | 0xFFFEF858  |  4294899800 |
|     113 | 0xFFFFEA43  |  4294961731 |
|     114 | 0xFFFFF8F4  |  4294965492 |
|     115 | 0x0002      |           2 |
|     116 | 0xFFFFF533  |  4294964531 |
|     117 | 0x13C3      |        5059 |

## String References

- **7806**: I instruct Tenshodo members in the way of the fist and foot. In their line of work, there are times they must defend themselves, you see.
- **7807**: I'd watch out if I were you. Stick your nose into places you don't belong, and you could find yourself in trouble.
- **7808**: Well, well... I see you have attained your $0. But you still need more training, child. You must seek the rank of $1.
- **7809**: When you are ready, I will test you. If you prove yourself worthy of promotion, the $1 will be yours.
- **7810**: Are you ready for the test? [Bring it on./No, not yet.]
- **7811**: Very good, child. A true martial artist always conquers fear. Defeat the following opponents in mortal combat, and bring me proof of their demise.
- **7812**: Slay a nue for its $2, a morbolger for its $3, and a deadly dodo for its $4. Gather these and bring them to me.
- **7813**: Only then will you be worthy of promotion. Now, go!
- **7814**: What are you afraid of? The true martial artist does not fear.
- **7815**: Oh... The circle is now complete. Wear this $1 with pride and honor. Always remember the trials you faced to claim it.
- **7816**: Perhaps one day we can face each other in open-hand combat. A glorious fight that would be, don't you think?

## Events

### Event 65535

#### Metadata

| Field        | Value    |
|--------------|----------|
| Entrypoint   | 0x0000   |
| Data Size    | 26 bytes |
| Instructions | 6        |

```
      00 01 02 03 04 05 06 07  08 09 0A 0B 0C 0D 0E 0F
      -- -- -- -- -- -- -- --  -- -- -- -- -- -- -- --
0000: 03 02 10 00 80 03 03 10  01 80 03 04 10 02 80 03  ................
0010: 05 10 03 80 03 06 10 04  80 00                    ..........      
```

#### Opcodes

```
  0: 0x0000 [0x03] Work_Zone[2] = 13201*
  1: 0x0005 [0x03] Work_Zone[3] = 13202*
  2: 0x000A [0x03] Work_Zone[4] = 1012*
  3: 0x000F [0x03] Work_Zone[5] = 1013*
  4: 0x0014 [0x03] Work_Zone[6] = 1014*
  5: 0x0019 [0x00] END_REQSTACK()
```

### Event 212

#### Metadata

| Field        | Value    |
|--------------|----------|
| Entrypoint   | 0x001A   |
| Data Size    | 60 bytes |
| Instructions | 12       |

```
      00 01 02 03 04 05 06 07  08 09 0A 0B 0C 0D 0E 0F
      -- -- -- -- -- -- -- --  -- -- -- -- -- -- -- --
0010:                                1E F0 FF FF 7F 6F            .....o
0020: 70 66 05 80 F8 FF FF 7F  F8 FF FF 7F 74 6C 6B 30  pf..........tlk0
0030: 1D 06 80 23 1D 07 80 23  66 05 80 F8 FF FF 7F F8  ...#...#f.......
0040: FF FF 7F 74 65 6E 30 53  F8 FF FF 7F F8 FF FF 7F  ...ten0S........
0050: 74 65 6E 30 21 00                                 ten0!.          
```

#### Opcodes

```
  0: 0x001A [0x1E] EventEntity looks at LocalPlayer and starts talking
  1: 0x001F [0x6F] WAIT_FRAME_DELAY: Yield until WaitTime reaches zero
  2: 0x0020 [0x70] WAIT_ENTITY_RENDER_FLAG: Wait while EventEntity->Render.Flags3 bit 2 is set (cancel turn if not)
  3: 0x0021 [0x66] LOAD_EXT_SCHEDULER_MAIN: Load scheduler "tlk0" with entities [EventEntity, EventEntity], work=0*
  4: 0x0030 [0x1D] PRINT_EVENT_MESSAGE(message_id=7806*)
    → "I instruct Tenshodo members in the way of the fist and foot. In their line of work, there are times they must defend themselves, you see."
  5: 0x0033 [0x23] WAIT_FOR_DIALOG_INTERACTION
  6: 0x0034 [0x1D] PRINT_EVENT_MESSAGE(message_id=7807*)
    → "I'd watch out if I were you. Stick your nose into places you don't belong, and you could find yourself in trouble."
  7: 0x0037 [0x23] WAIT_FOR_DIALOG_INTERACTION
  8: 0x0038 [0x66] LOAD_EXT_SCHEDULER_MAIN: Load scheduler "ten0" with entities [EventEntity, EventEntity], work=0*
  9: 0x0047 [0x53] WAIT_SCHEDULER_TASK: Wait for scheduler "ten0" with entities [EventEntity, EventEntity]
 10: 0x0054 [0x21] END_EVENT
 11: 0x0055 [0x00] END_REQSTACK()
```

### Event 216

#### Metadata

| Field        | Value     |
|--------------|-----------|
| Entrypoint   | 0x0056    |
| Data Size    | 205 bytes |
| Instructions | 37        |

```
      00 01 02 03 04 05 06 07  08 09 0A 0B 0C 0D 0E 0F
      -- -- -- -- -- -- -- --  -- -- -- -- -- -- -- --
0050:                   06 01  10 1E F0 FF FF 7F 6F 70        ........op
0060: 66 05 80 F8 FF FF 7F F8  FF FF 7F 74 6C 6B 30 1D  f..........tlk0.
0070: 06 80 23 1D 08 80 23 1D  09 80 23 66 05 80 F8 FF  ..#...#...#f....
0080: FF 7F F8 FF FF 7F 74 65  6E 30 53 F8 FF FF 7F F8  ......ten0S.....
0090: FF FF 7F 74 65 6E 30 24  0A 80 0B 80 05 80 25 02  ...ten0$......%.
00A0: 00 10 05 80 00 E7 00 42  03 01 10 0B 80 66 05 80  .......B.....f..
00B0: F8 FF FF 7F F8 FF FF 7F  74 68 6B 31 1D 0C 80 23  ........thk1...#
00C0: 1D 0D 80 23 1D 0E 80 23  66 05 80 F8 FF FF 7F F8  ...#...#f.......
00D0: FF FF 7F 74 68 6B 32 53  F8 FF FF 7F F8 FF FF 7F  ...thk2S........
00E0: 74 68 6B 32 01 21 01 02  00 10 0B 80 00 21 01 66  thk2.!.......!.f
00F0: 05 80 F8 FF FF 7F F8 FF  FF 7F 74 68 6B 31 1D 0F  ..........thk1..
0100: 80 23 66 05 80 F8 FF FF  7F F8 FF FF 7F 74 68 6B  .#f..........thk
0110: 32 53 F8 FF FF 7F F8 FF  FF 7F 74 68 6B 32 01 21  2S........thk2.!
0120: 01 21 00                                          .!.             
```

#### Opcodes

```
  0: 0x0056 [0x06] Work_Zone[1] = 0
  1: 0x0059 [0x1E] EventEntity looks at LocalPlayer and starts talking
  2: 0x005E [0x6F] WAIT_FRAME_DELAY: Yield until WaitTime reaches zero
  3: 0x005F [0x70] WAIT_ENTITY_RENDER_FLAG: Wait while EventEntity->Render.Flags3 bit 2 is set (cancel turn if not)
  4: 0x0060 [0x66] LOAD_EXT_SCHEDULER_MAIN: Load scheduler "tlk0" with entities [EventEntity, EventEntity], work=0*
  5: 0x006F [0x1D] PRINT_EVENT_MESSAGE(message_id=7806*)
    → "I instruct Tenshodo members in the way of the fist and foot. In their line of work, there are times they must defend themselves, you see."
  6: 0x0072 [0x23] WAIT_FOR_DIALOG_INTERACTION
  7: 0x0073 [0x1D] PRINT_EVENT_MESSAGE(message_id=7808*)
    → "Well, well... I see you have attained your $0. But you still need more training, child. You must seek the rank of $1."
  8: 0x0076 [0x23] WAIT_FOR_DIALOG_INTERACTION
  9: 0x0077 [0x1D] PRINT_EVENT_MESSAGE(message_id=7809*)
    → "When you are ready, I will test you. If you prove yourself worthy of promotion, the $1 will be yours."
 10: 0x007A [0x23] WAIT_FOR_DIALOG_INTERACTION
 11: 0x007B [0x66] LOAD_EXT_SCHEDULER_MAIN: Load scheduler "ten0" with entities [EventEntity, EventEntity], work=0*
 12: 0x008A [0x53] WAIT_SCHEDULER_TASK: Wait for scheduler "ten0" with entities [EventEntity, EventEntity]
 13: 0x0097 [0x24] CREATE_DIALOG(message_id=7810*, default_option=1*, option_flags=0*)
    → "Are you ready for the test? [Bring it on./No, not yet.]"
 14: 0x009E [0x25] WAIT_DIALOG_SELECT()
 15: 0x009F [0x02] IF !(Work_Zone[0] == 0*) GOTO 0x00E7
 16: 0x00A7 [0x42] SET_CLI_EVENT_CANCEL_DATA()
 17: 0x00A8 [0x03] Work_Zone[1] = 1*
 18: 0x00AD [0x66] LOAD_EXT_SCHEDULER_MAIN: Load scheduler "thk1" with entities [EventEntity, EventEntity], work=0*
 19: 0x00BC [0x1D] PRINT_EVENT_MESSAGE(message_id=7811*)
    → "Very good, child. A true martial artist always conquers fear. Defeat the following opponents in mortal combat, and bring me proof of their demise."
 20: 0x00BF [0x23] WAIT_FOR_DIALOG_INTERACTION
 21: 0x00C0 [0x1D] PRINT_EVENT_MESSAGE(message_id=7812*)
    → "Slay a nue for its $2, a morbolger for its $3, and a deadly dodo for its $4. Gather these and bring them to me."
 22: 0x00C3 [0x23] WAIT_FOR_DIALOG_INTERACTION
 23: 0x00C4 [0x1D] PRINT_EVENT_MESSAGE(message_id=7813*)
    → "Only then will you be worthy of promotion. Now, go!"
 24: 0x00C7 [0x23] WAIT_FOR_DIALOG_INTERACTION
 25: 0x00C8 [0x66] LOAD_EXT_SCHEDULER_MAIN: Load scheduler "thk2" with entities [EventEntity, EventEntity], work=0*
 26: 0x00D7 [0x53] WAIT_SCHEDULER_TASK: Wait for scheduler "thk2" with entities [EventEntity, EventEntity]
 27: 0x00E4 [0x01] GOTO 0x0121
 28: 0x00E7 [0x02] IF !(Work_Zone[0] == 1*) GOTO 0x0121
 29: 0x00EF [0x66] LOAD_EXT_SCHEDULER_MAIN: Load scheduler "thk1" with entities [EventEntity, EventEntity], work=0*
 30: 0x00FE [0x1D] PRINT_EVENT_MESSAGE(message_id=7814*)
    → "What are you afraid of? The true martial artist does not fear."
 31: 0x0101 [0x23] WAIT_FOR_DIALOG_INTERACTION
 32: 0x0102 [0x66] LOAD_EXT_SCHEDULER_MAIN: Load scheduler "thk2" with entities [EventEntity, EventEntity], work=0*
 33: 0x0111 [0x53] WAIT_SCHEDULER_TASK: Wait for scheduler "thk2" with entities [EventEntity, EventEntity]
 34: 0x011E [0x01] GOTO 0x0121

SUBROUTINE_0121:
 35: 0x0121 [0x21] END_EVENT
 36: 0x0122 [0x00] END_REQSTACK()
```

### Event 215

#### Metadata

| Field        | Value    |
|--------------|----------|
| Entrypoint   | 0x0123   |
| Data Size    | 60 bytes |
| Instructions | 12       |

```
      00 01 02 03 04 05 06 07  08 09 0A 0B 0C 0D 0E 0F
      -- -- -- -- -- -- -- --  -- -- -- -- -- -- -- --
0120:          1E F0 FF FF 7F  6F 70 66 05 80 F8 FF FF     .....opf.....
0130: 7F F8 FF FF 7F 74 6C 6B  31 1D 0D 80 23 1D 0E 80  .....tlk1...#...
0140: 23 66 05 80 F8 FF FF 7F  F8 FF FF 7F 74 65 6E 31  #f..........ten1
0150: 53 F8 FF FF 7F F8 FF FF  7F 74 65 6E 31 21 00     S........ten1!. 
```

#### Opcodes

```
  0: 0x0123 [0x1E] EventEntity looks at LocalPlayer and starts talking
  1: 0x0128 [0x6F] WAIT_FRAME_DELAY: Yield until WaitTime reaches zero
  2: 0x0129 [0x70] WAIT_ENTITY_RENDER_FLAG: Wait while EventEntity->Render.Flags3 bit 2 is set (cancel turn if not)
  3: 0x012A [0x66] LOAD_EXT_SCHEDULER_MAIN: Load scheduler "tlk1" with entities [EventEntity, EventEntity], work=0*
  4: 0x0139 [0x1D] PRINT_EVENT_MESSAGE(message_id=7812*)
    → "Slay a nue for its $2, a morbolger for its $3, and a deadly dodo for its $4. Gather these and bring them to me."
  5: 0x013C [0x23] WAIT_FOR_DIALOG_INTERACTION
  6: 0x013D [0x1D] PRINT_EVENT_MESSAGE(message_id=7813*)
    → "Only then will you be worthy of promotion. Now, go!"
  7: 0x0140 [0x23] WAIT_FOR_DIALOG_INTERACTION
  8: 0x0141 [0x66] LOAD_EXT_SCHEDULER_MAIN: Load scheduler "ten1" with entities [EventEntity, EventEntity], work=0*
  9: 0x0150 [0x53] WAIT_SCHEDULER_TASK: Wait for scheduler "ten1" with entities [EventEntity, EventEntity]
 10: 0x015D [0x21] END_EVENT
 11: 0x015E [0x00] END_REQSTACK()
```

### Event 213

#### Metadata

| Field        | Value    |
|--------------|----------|
| Entrypoint   | 0x015F   |
| Data Size    | 76 bytes |
| Instructions | 13       |

```
      00 01 02 03 04 05 06 07  08 09 0A 0B 0C 0D 0E 0F
      -- -- -- -- -- -- -- --  -- -- -- -- -- -- -- --
0150:                                               20                  
0160: 01 42 1E F0 FF FF 7F 6F  70 66 05 80 F8 FF FF 7F  .B.....opf......
0170: F8 FF FF 7F 74 6C 6B 31  1D 10 80 23 66 05 80 F8  ....tlk1...#f...
0180: FF FF 7F F8 FF FF 7F 74  65 6E 31 53 F8 FF FF 7F  .......ten1S....
0190: F8 FF FF 7F 74 65 6E 31  45 11 80 F0 FF FF 7F F0  ....ten1E.......
01A0: FF FF 7F 71 73 74 63 05  80 21 00                 ...qstc..!.     
```

#### Opcodes

```
  0: 0x015F [0x20] SET_CLI_EVENT_UC_FLAG: Lock player control
  1: 0x0161 [0x42] SET_CLI_EVENT_CANCEL_DATA()
  2: 0x0162 [0x1E] EventEntity looks at LocalPlayer and starts talking
  3: 0x0167 [0x6F] WAIT_FRAME_DELAY: Yield until WaitTime reaches zero
  4: 0x0168 [0x70] WAIT_ENTITY_RENDER_FLAG: Wait while EventEntity->Render.Flags3 bit 2 is set (cancel turn if not)
  5: 0x0169 [0x66] LOAD_EXT_SCHEDULER_MAIN: Load scheduler "tlk1" with entities [EventEntity, EventEntity], work=0*
  6: 0x0178 [0x1D] PRINT_EVENT_MESSAGE(message_id=7815*)
    → "Oh... The circle is now complete. Wear this $1 with pride and honor. Always remember the trials you faced to claim it."
  7: 0x017B [0x23] WAIT_FOR_DIALOG_INTERACTION
  8: 0x017C [0x66] LOAD_EXT_SCHEDULER_MAIN: Load scheduler "ten1" with entities [EventEntity, EventEntity], work=0*
  9: 0x018B [0x53] WAIT_SCHEDULER_TASK: Wait for scheduler "ten1" with entities [EventEntity, EventEntity]
 10: 0x0198 [0x45] LOAD_SCHEDULED_TASK: Load scheduler "qstc" with entities [LocalPlayer, LocalPlayer], work=[201*, 0*]
 11: 0x01A9 [0x21] END_EVENT
 12: 0x01AA [0x00] END_REQSTACK()
```

### Event 214

#### Metadata

| Field        | Value    |
|--------------|----------|
| Entrypoint   | 0x01AB   |
| Data Size    | 56 bytes |
| Instructions | 10       |

```
      00 01 02 03 04 05 06 07  08 09 0A 0B 0C 0D 0E 0F
      -- -- -- -- -- -- -- --  -- -- -- -- -- -- -- --
01A0:                                   1E F0 FF FF 7F             .....
01B0: 6F 70 66 05 80 F8 FF FF  7F F8 FF FF 7F 74 6C 6B  opf..........tlk
01C0: 30 1D 12 80 23 66 05 80  F8 FF FF 7F F8 FF FF 7F  0...#f..........
01D0: 74 65 6E 30 53 F8 FF FF  7F F8 FF FF 7F 74 65 6E  ten0S........ten
01E0: 30 21 00                                          0!.             
```

#### Opcodes

```
  0: 0x01AB [0x1E] EventEntity looks at LocalPlayer and starts talking
  1: 0x01B0 [0x6F] WAIT_FRAME_DELAY: Yield until WaitTime reaches zero
  2: 0x01B1 [0x70] WAIT_ENTITY_RENDER_FLAG: Wait while EventEntity->Render.Flags3 bit 2 is set (cancel turn if not)
  3: 0x01B2 [0x66] LOAD_EXT_SCHEDULER_MAIN: Load scheduler "tlk0" with entities [EventEntity, EventEntity], work=0*
  4: 0x01C1 [0x1D] PRINT_EVENT_MESSAGE(message_id=7816*)
    → "Perhaps one day we can face each other in open-hand combat. A glorious fight that would be, don't you think?"
  5: 0x01C4 [0x23] WAIT_FOR_DIALOG_INTERACTION
  6: 0x01C5 [0x66] LOAD_EXT_SCHEDULER_MAIN: Load scheduler "ten0" with entities [EventEntity, EventEntity], work=0*
  7: 0x01D4 [0x53] WAIT_SCHEDULER_TASK: Wait for scheduler "ten0" with entities [EventEntity, EventEntity]
  8: 0x01E1 [0x21] END_EVENT
  9: 0x01E2 [0x00] END_REQSTACK()
```

### Event 20

#### Metadata

| Field        | Value   |
|--------------|---------|
| Entrypoint   | 0x01E3  |
| Data Size    | 1 bytes |
| Instructions | 1       |

```
      00 01 02 03 04 05 06 07  08 09 0A 0B 0C 0D 0E 0F
      -- -- -- -- -- -- -- --  -- -- -- -- -- -- -- --
01E0:          00                                          .            
```

#### Opcodes

```
  0: 0x01E3 [0x00] END_REQSTACK()
```

### Event 160

#### Metadata

| Field        | Value   |
|--------------|---------|
| Entrypoint   | 0x01E4  |
| Data Size    | 1 bytes |
| Instructions | 1       |

```
      00 01 02 03 04 05 06 07  08 09 0A 0B 0C 0D 0E 0F
      -- -- -- -- -- -- -- --  -- -- -- -- -- -- -- --
01E0:             00                                        .           
```

#### Opcodes

```
  0: 0x01E4 [0x00] END_REQSTACK()
```

### Event 10062

#### Metadata

| Field        | Value   |
|--------------|---------|
| Entrypoint   | 0x01E5  |
| Data Size    | 1 bytes |
| Instructions | 1       |

```
      00 01 02 03 04 05 06 07  08 09 0A 0B 0C 0D 0E 0F
      -- -- -- -- -- -- -- --  -- -- -- -- -- -- -- --
01E0:                00                                      .          
```

#### Opcodes

```
  0: 0x01E5 [0x00] END_REQSTACK()
```

### Event 10063

#### Metadata

| Field        | Value   |
|--------------|---------|
| Entrypoint   | 0x01E6  |
| Data Size    | 1 bytes |
| Instructions | 1       |

```
      00 01 02 03 04 05 06 07  08 09 0A 0B 0C 0D 0E 0F
      -- -- -- -- -- -- -- --  -- -- -- -- -- -- -- --
01E0:                   00                                    .         
```

#### Opcodes

```
  0: 0x01E6 [0x00] END_REQSTACK()
```

### Event 10064

#### Metadata

| Field        | Value   |
|--------------|---------|
| Entrypoint   | 0x01E7  |
| Data Size    | 1 bytes |
| Instructions | 1       |

```
      00 01 02 03 04 05 06 07  08 09 0A 0B 0C 0D 0E 0F
      -- -- -- -- -- -- -- --  -- -- -- -- -- -- -- --
01E0:                      00                                  .        
```

#### Opcodes

```
  0: 0x01E7 [0x00] END_REQSTACK()
```

### Event 10065

#### Metadata

| Field        | Value   |
|--------------|---------|
| Entrypoint   | 0x01E8  |
| Data Size    | 1 bytes |
| Instructions | 1       |

```
      00 01 02 03 04 05 06 07  08 09 0A 0B 0C 0D 0E 0F
      -- -- -- -- -- -- -- --  -- -- -- -- -- -- -- --
01E0:                          00                               .       
```

#### Opcodes

```
  0: 0x01E8 [0x00] END_REQSTACK()
```

### Event 10066

#### Metadata

| Field        | Value   |
|--------------|---------|
| Entrypoint   | 0x01E9  |
| Data Size    | 1 bytes |
| Instructions | 1       |

```
      00 01 02 03 04 05 06 07  08 09 0A 0B 0C 0D 0E 0F
      -- -- -- -- -- -- -- --  -- -- -- -- -- -- -- --
01E0:                             00                             .      
```

#### Opcodes

```
  0: 0x01E9 [0x00] END_REQSTACK()
```

### Event 10067

#### Metadata

| Field        | Value   |
|--------------|---------|
| Entrypoint   | 0x01EA  |
| Data Size    | 1 bytes |
| Instructions | 1       |

```
      00 01 02 03 04 05 06 07  08 09 0A 0B 0C 0D 0E 0F
      -- -- -- -- -- -- -- --  -- -- -- -- -- -- -- --
01E0:                                00                           .     
```

#### Opcodes

```
  0: 0x01EA [0x00] END_REQSTACK()
```

### Event 10068

#### Metadata

| Field        | Value   |
|--------------|---------|
| Entrypoint   | 0x01EB  |
| Data Size    | 1 bytes |
| Instructions | 1       |

```
      00 01 02 03 04 05 06 07  08 09 0A 0B 0C 0D 0E 0F
      -- -- -- -- -- -- -- --  -- -- -- -- -- -- -- --
01E0:                                   00                         .    
```

#### Opcodes

```
  0: 0x01EB [0x00] END_REQSTACK()
```

### Event 10069

#### Metadata

| Field        | Value   |
|--------------|---------|
| Entrypoint   | 0x01EC  |
| Data Size    | 1 bytes |
| Instructions | 1       |

```
      00 01 02 03 04 05 06 07  08 09 0A 0B 0C 0D 0E 0F
      -- -- -- -- -- -- -- --  -- -- -- -- -- -- -- --
01E0:                                      00                       .   
```

#### Opcodes

```
  0: 0x01EC [0x00] END_REQSTACK()
```

### Event 10070

#### Metadata

| Field        | Value   |
|--------------|---------|
| Entrypoint   | 0x01ED  |
| Data Size    | 1 bytes |
| Instructions | 1       |

```
      00 01 02 03 04 05 06 07  08 09 0A 0B 0C 0D 0E 0F
      -- -- -- -- -- -- -- --  -- -- -- -- -- -- -- --
01E0:                                         00                     .  
```

#### Opcodes

```
  0: 0x01ED [0x00] END_REQSTACK()
```

### Event 10071

#### Metadata

| Field        | Value   |
|--------------|---------|
| Entrypoint   | 0x01EE  |
| Data Size    | 1 bytes |
| Instructions | 1       |

```
      00 01 02 03 04 05 06 07  08 09 0A 0B 0C 0D 0E 0F
      -- -- -- -- -- -- -- --  -- -- -- -- -- -- -- --
01E0:                                            00                   . 
```

#### Opcodes

```
  0: 0x01EE [0x00] END_REQSTACK()
```

### Event 10072

#### Metadata

| Field        | Value   |
|--------------|---------|
| Entrypoint   | 0x01EF  |
| Data Size    | 2 bytes |
| Instructions | 1       |

```
      00 01 02 03 04 05 06 07  08 09 0A 0B 0C 0D 0E 0F
      -- -- -- -- -- -- -- --  -- -- -- -- -- -- -- --
01E0:                                               00                 .
01F0: 00                                                .               
```

#### Opcodes

```
  0: 0x01EF [0x00] END_REQSTACK()
```

#### Data or dead code:

```
# Dead code (unreachable instructions):
     0x01F0 [0x00] END_REQSTACK()
```

### Event 10094

#### Metadata

| Field        | Value   |
|--------------|---------|
| Entrypoint   | 0x01F1  |
| Data Size    | 5 bytes |
| Instructions | 2       |

```
      00 01 02 03 04 05 06 07  08 09 0A 0B 0C 0D 0E 0F
      -- -- -- -- -- -- -- --  -- -- -- -- -- -- -- --
01F0:    C0 0B 80 00 00                                  .....          
```

#### Opcodes

```
  0: 0x01F1 [0xC0] EventEntity->Render.Flags3 |= 0x1000 // Set bit 12 (from 1*)
  1: 0x01F4 [0x00] END_REQSTACK()
```

#### Data or dead code:

```
# Dead code (unreachable instructions):
     0x01F5 [0x00] END_REQSTACK()
```

### Event 65535.1

#### Metadata

| Field        | Value    |
|--------------|----------|
| Entrypoint   | 0x01F6   |
| Data Size    | 20 bytes |
| Instructions | 5        |

```
      00 01 02 03 04 05 06 07  08 09 0A 0B 0C 0D 0E 0F
      -- -- -- -- -- -- -- --  -- -- -- -- -- -- -- --
01F0:                   59 04  0B 50 0F 01 13 80 1F 00        Y..P......
0200: 14 80 15 80 05 80 1F 01  6F 00                    ........o.      
```

#### Opcodes

```
  0: 0x01F6 [0x59] UPDATE_ENTITY_DATA: Set Garnev (ID: 17780747/0x010F500B) main speed = 12* * 0.1
  1: 0x01FE [0x1F] MOVE_ENTITY: EventEntity moves to X=-76.092*, Z=-136.357*, Y=0.000*
  2: 0x0206 [0x1F] MOVE_ENTITY: Update entity position (mode=1)
  3: 0x0208 [0x6F] WAIT_FRAME_DELAY: Yield until WaitTime reaches zero
  4: 0x0209 [0x00] END_REQSTACK()
```

### Event 65535.2

#### Metadata

| Field        | Value    |
|--------------|----------|
| Entrypoint   | 0x020A   |
| Data Size    | 20 bytes |
| Instructions | 5        |

```
      00 01 02 03 04 05 06 07  08 09 0A 0B 0C 0D 0E 0F
      -- -- -- -- -- -- -- --  -- -- -- -- -- -- -- --
0200:                                59 04 1D 50 0F 01            Y..P..
0210: 16 80 1F 00 17 80 18 80  05 80 1F 01 6F 00        ............o.  
```

#### Opcodes

```
  0: 0x020A [0x59] UPDATE_ENTITY_DATA: Set Mataligeat (ID: 17780765/0x010F501D) main speed = 11* * 0.1
  1: 0x0212 [0x1F] MOVE_ENTITY: EventEntity moves to X=-95.337*, Z=-156.056*, Y=0.000*
  2: 0x021A [0x1F] MOVE_ENTITY: Update entity position (mode=1)
  3: 0x021C [0x6F] WAIT_FRAME_DELAY: Yield until WaitTime reaches zero
  4: 0x021D [0x00] END_REQSTACK()
```

### Event 65535.3

#### Metadata

| Field        | Value    |
|--------------|----------|
| Entrypoint   | 0x021E   |
| Data Size    | 20 bytes |
| Instructions | 5        |

```
      00 01 02 03 04 05 06 07  08 09 0A 0B 0C 0D 0E 0F
      -- -- -- -- -- -- -- --  -- -- -- -- -- -- -- --
0210:                                            59 04                Y.
0220: 1D 50 0F 01 16 80 1F 00  19 80 1A 80 1B 80 1F 01  .P..............
0230: 6F 00                                             o.              
```

#### Opcodes

```
  0: 0x021E [0x59] UPDATE_ENTITY_DATA: Set Mataligeat (ID: 17780765/0x010F501D) main speed = 11* * 0.1
  1: 0x0226 [0x1F] MOVE_ENTITY: EventEntity moves to X=-62.073*, Z=-89.873*, Y=5.999*
  2: 0x022E [0x1F] MOVE_ENTITY: Update entity position (mode=1)
  3: 0x0230 [0x6F] WAIT_FRAME_DELAY: Yield until WaitTime reaches zero
  4: 0x0231 [0x00] END_REQSTACK()
```

### Event 65535.4

#### Metadata

| Field        | Value    |
|--------------|----------|
| Entrypoint   | 0x0232   |
| Data Size    | 17 bytes |
| Instructions | 2        |

```
      00 01 02 03 04 05 06 07  08 09 0A 0B 0C 0D 0E 0F
      -- -- -- -- -- -- -- --  -- -- -- -- -- -- -- --
0230:       5B 1C 80 1D 50 0F  01 1D 50 0F 01 6F 70 30    [...P...P..op0
0240: 30 00 00                                          0..             
```

#### Opcodes

```
  0: 0x0232 [0x5B] LOAD_EXT_SCHEDULER: Load scheduler "op00" with entities [Mataligeat (ID: 17780765/0x010F501D), Mataligeat (ID: 17780765/0x010F501D)], work=2618*
  1: 0x0241 [0x00] END_REQSTACK()
```

#### Data or dead code:

```
# Dead code (unreachable instructions):
     0x0242 [0x00] END_REQSTACK()
```

### Event 65535.5

#### Metadata

| Field        | Value    |
|--------------|----------|
| Entrypoint   | 0x0243   |
| Data Size    | 20 bytes |
| Instructions | 5        |

```
      00 01 02 03 04 05 06 07  08 09 0A 0B 0C 0D 0E 0F
      -- -- -- -- -- -- -- --  -- -- -- -- -- -- -- --
0240:          59 04 3A 50 0F  01 16 80 1F 00 17 80 18     Y.:P.........
0250: 80 05 80 1F 01 6F 00                              .....o.         
```

#### Opcodes

```
  0: 0x0243 [0x59] UPDATE_ENTITY_DATA: Set Navisse (ID: 17780794/0x010F503A) main speed = 11* * 0.1
  1: 0x024B [0x1F] MOVE_ENTITY: EventEntity moves to X=-95.337*, Z=-156.056*, Y=0.000*
  2: 0x0253 [0x1F] MOVE_ENTITY: Update entity position (mode=1)
  3: 0x0255 [0x6F] WAIT_FRAME_DELAY: Yield until WaitTime reaches zero
  4: 0x0256 [0x00] END_REQSTACK()
```

### Event 65535.6

#### Metadata

| Field        | Value    |
|--------------|----------|
| Entrypoint   | 0x0257   |
| Data Size    | 20 bytes |
| Instructions | 5        |

```
      00 01 02 03 04 05 06 07  08 09 0A 0B 0C 0D 0E 0F
      -- -- -- -- -- -- -- --  -- -- -- -- -- -- -- --
0250:                      59  04 2C 50 0F 01 13 80 1F         Y.,P.....
0260: 00 1D 80 1E 80 05 80 1F  01 6F 00                 .........o.     
```

#### Opcodes

```
  0: 0x0257 [0x59] UPDATE_ENTITY_DATA: Set Jazmin (ID: 17780780/0x010F502C) main speed = 12* * 0.1
  1: 0x025F [0x1F] MOVE_ENTITY: EventEntity moves to X=-83.944*, Z=-128.625*, Y=0.000*
  2: 0x0267 [0x1F] MOVE_ENTITY: Update entity position (mode=1)
  3: 0x0269 [0x6F] WAIT_FRAME_DELAY: Yield until WaitTime reaches zero
  4: 0x026A [0x00] END_REQSTACK()
```

### Event 65535.7

#### Metadata

| Field        | Value    |
|--------------|----------|
| Entrypoint   | 0x026B   |
| Data Size    | 19 bytes |
| Instructions | 4        |

```
      00 01 02 03 04 05 06 07  08 09 0A 0B 0C 0D 0E 0F
      -- -- -- -- -- -- -- --  -- -- -- -- -- -- -- --
0260:                                   59 04 2C 50 0F             Y.,P.
0270: 01 16 80 1F 00 1F 80 20  80 1B 80 1F 01 00        ....... ......  
```

#### Opcodes

```
  0: 0x026B [0x59] UPDATE_ENTITY_DATA: Set Jazmin (ID: 17780780/0x010F502C) main speed = 11* * 0.1
  1: 0x0273 [0x1F] MOVE_ENTITY: EventEntity moves to X=-68.592*, Z=-96.839*, Y=5.999*
  2: 0x027B [0x1F] MOVE_ENTITY: Update entity position (mode=1)
  3: 0x027D [0x00] END_REQSTACK()
```

### Event 65535.8

#### Metadata

| Field        | Value    |
|--------------|----------|
| Entrypoint   | 0x027E   |
| Data Size    | 19 bytes |
| Instructions | 4        |

```
      00 01 02 03 04 05 06 07  08 09 0A 0B 0C 0D 0E 0F
      -- -- -- -- -- -- -- --  -- -- -- -- -- -- -- --
0270:                                            59 04                Y.
0280: 2C 50 0F 01 16 80 1F 00  21 80 22 80 1B 80 1F 01  ,P......!.".....
0290: 00                                                .               
```

#### Opcodes

```
  0: 0x027E [0x59] UPDATE_ENTITY_DATA: Set Jazmin (ID: 17780780/0x010F502C) main speed = 11* * 0.1
  1: 0x0286 [0x1F] MOVE_ENTITY: EventEntity moves to X=-70.511*, Z=-102.750*, Y=5.999*
  2: 0x028E [0x1F] MOVE_ENTITY: Update entity position (mode=1)
  3: 0x0290 [0x00] END_REQSTACK()
```

### Event 65535.9

#### Metadata

| Field        | Value    |
|--------------|----------|
| Entrypoint   | 0x0291   |
| Data Size    | 16 bytes |
| Instructions | 2        |

```
      00 01 02 03 04 05 06 07  08 09 0A 0B 0C 0D 0E 0F
      -- -- -- -- -- -- -- --  -- -- -- -- -- -- -- --
0290:    5B 23 80 2C 50 0F 01  2C 50 0F 01 6F 70 30 30   [#.,P..,P..op00
02A0: 00                                                .               
```

#### Opcodes

```
  0: 0x0291 [0x5B] LOAD_EXT_SCHEDULER: Load scheduler "op00" with entities [Jazmin (ID: 17780780/0x010F502C), Jazmin (ID: 17780780/0x010F502C)], work=2602*
  1: 0x02A0 [0x00] END_REQSTACK()
```

### Event 65535.10

#### Metadata

| Field        | Value    |
|--------------|----------|
| Entrypoint   | 0x02A1   |
| Data Size    | 16 bytes |
| Instructions | 2        |

```
      00 01 02 03 04 05 06 07  08 09 0A 0B 0C 0D 0E 0F
      -- -- -- -- -- -- -- --  -- -- -- -- -- -- -- --
02A0:    5B 23 80 2C 50 0F 01  2C 50 0F 01 6F 70 30 31   [#.,P..,P..op01
02B0: 00                                                .               
```

#### Opcodes

```
  0: 0x02A1 [0x5B] LOAD_EXT_SCHEDULER: Load scheduler "op01" with entities [Jazmin (ID: 17780780/0x010F502C), Jazmin (ID: 17780780/0x010F502C)], work=2602*
  1: 0x02B0 [0x00] END_REQSTACK()
```

### Event 65535.11

#### Metadata

| Field        | Value    |
|--------------|----------|
| Entrypoint   | 0x02B1   |
| Data Size    | 20 bytes |
| Instructions | 5        |

```
      00 01 02 03 04 05 06 07  08 09 0A 0B 0C 0D 0E 0F
      -- -- -- -- -- -- -- --  -- -- -- -- -- -- -- --
02B0:    59 04 2C 50 0F 01 16  80 1F 00 24 80 25 80 1B   Y.,P......$.%..
02C0: 80 1F 01 6F 00                                    ...o.           
```

#### Opcodes

```
  0: 0x02B1 [0x59] UPDATE_ENTITY_DATA: Set Jazmin (ID: 17780780/0x010F502C) main speed = 11* * 0.1
  1: 0x02B9 [0x1F] MOVE_ENTITY: EventEntity moves to X=-72.366*, Z=-118.167*, Y=5.999*
  2: 0x02C1 [0x1F] MOVE_ENTITY: Update entity position (mode=1)
  3: 0x02C3 [0x6F] WAIT_FRAME_DELAY: Yield until WaitTime reaches zero
  4: 0x02C4 [0x00] END_REQSTACK()
```

### Event 65535.12

#### Metadata

| Field        | Value    |
|--------------|----------|
| Entrypoint   | 0x02C5   |
| Data Size    | 16 bytes |
| Instructions | 2        |

```
      00 01 02 03 04 05 06 07  08 09 0A 0B 0C 0D 0E 0F
      -- -- -- -- -- -- -- --  -- -- -- -- -- -- -- --
02C0:                5B 26 80  2C 50 0F 01 2C 50 0F 01       [&.,P..,P..
02D0: 6F 70 61 30 00                                    opa0.           
```

#### Opcodes

```
  0: 0x02C5 [0x5B] LOAD_EXT_SCHEDULER: Load scheduler "opa0" with entities [Jazmin (ID: 17780780/0x010F502C), Jazmin (ID: 17780780/0x010F502C)], work=2617*
  1: 0x02D4 [0x00] END_REQSTACK()
```

### Event 65535.13

#### Metadata

| Field        | Value    |
|--------------|----------|
| Entrypoint   | 0x02D5   |
| Data Size    | 16 bytes |
| Instructions | 2        |

```
      00 01 02 03 04 05 06 07  08 09 0A 0B 0C 0D 0E 0F
      -- -- -- -- -- -- -- --  -- -- -- -- -- -- -- --
02D0:                5B 26 80  2C 50 0F 01 2C 50 0F 01       [&.,P..,P..
02E0: 6F 70 61 31 00                                    opa1.           
```

#### Opcodes

```
  0: 0x02D5 [0x5B] LOAD_EXT_SCHEDULER: Load scheduler "opa1" with entities [Jazmin (ID: 17780780/0x010F502C), Jazmin (ID: 17780780/0x010F502C)], work=2617*
  1: 0x02E4 [0x00] END_REQSTACK()
```

### Event 65535.14

#### Metadata

| Field        | Value    |
|--------------|----------|
| Entrypoint   | 0x02E5   |
| Data Size    | 16 bytes |
| Instructions | 2        |

```
      00 01 02 03 04 05 06 07  08 09 0A 0B 0C 0D 0E 0F
      -- -- -- -- -- -- -- --  -- -- -- -- -- -- -- --
02E0:                5B 26 80  2C 50 0F 01 2C 50 0F 01       [&.,P..,P..
02F0: 6F 70 61 32 00                                    opa2.           
```

#### Opcodes

```
  0: 0x02E5 [0x5B] LOAD_EXT_SCHEDULER: Load scheduler "opa2" with entities [Jazmin (ID: 17780780/0x010F502C), Jazmin (ID: 17780780/0x010F502C)], work=2617*
  1: 0x02F4 [0x00] END_REQSTACK()
```

### Event 65535.15

#### Metadata

| Field        | Value    |
|--------------|----------|
| Entrypoint   | 0x02F5   |
| Data Size    | 21 bytes |
| Instructions | 5        |

```
      00 01 02 03 04 05 06 07  08 09 0A 0B 0C 0D 0E 0F
      -- -- -- -- -- -- -- --  -- -- -- -- -- -- -- --
02F0:                59 04 2E  50 0F 01 13 80 1F 00 14       Y..P.......
0300: 80 15 80 05 80 1F 01 6F  00 00                    .......o..      
```

#### Opcodes

```
  0: 0x02F5 [0x59] UPDATE_ENTITY_DATA: Set Bogharg (ID: 17780782/0x010F502E) main speed = 12* * 0.1
  1: 0x02FD [0x1F] MOVE_ENTITY: EventEntity moves to X=-76.092*, Z=-136.357*, Y=0.000*
  2: 0x0305 [0x1F] MOVE_ENTITY: Update entity position (mode=1)
  3: 0x0307 [0x6F] WAIT_FRAME_DELAY: Yield until WaitTime reaches zero
  4: 0x0308 [0x00] END_REQSTACK()
```

#### Data or dead code:

```
# Dead code (unreachable instructions):
     0x0309 [0x00] END_REQSTACK()
```

### Event 65535.16

#### Metadata

| Field        | Value    |
|--------------|----------|
| Entrypoint   | 0x030A   |
| Data Size    | 16 bytes |
| Instructions | 2        |

```
      00 01 02 03 04 05 06 07  08 09 0A 0B 0C 0D 0E 0F
      -- -- -- -- -- -- -- --  -- -- -- -- -- -- -- --
0300:                                66 27 80 2E 50 0F            f'..P.
0310: 01 2E 50 0F 01 74 68 6B  31 00                    ..P..thk1.      
```

#### Opcodes

```
  0: 0x030A [0x66] LOAD_EXT_SCHEDULER_MAIN: Load scheduler "thk1" with entities [Bogharg (ID: 17780782/0x010F502E), Bogharg (ID: 17780782/0x010F502E)], work=69*
  1: 0x0319 [0x00] END_REQSTACK()
```

### Event 65535.17

#### Metadata

| Field        | Value    |
|--------------|----------|
| Entrypoint   | 0x031A   |
| Data Size    | 16 bytes |
| Instructions | 2        |

```
      00 01 02 03 04 05 06 07  08 09 0A 0B 0C 0D 0E 0F
      -- -- -- -- -- -- -- --  -- -- -- -- -- -- -- --
0310:                                66 27 80 2E 50 0F            f'..P.
0320: 01 2E 50 0F 01 74 68 6B  32 00                    ..P..thk2.      
```

#### Opcodes

```
  0: 0x031A [0x66] LOAD_EXT_SCHEDULER_MAIN: Load scheduler "thk2" with entities [Bogharg (ID: 17780782/0x010F502E), Bogharg (ID: 17780782/0x010F502E)], work=69*
  1: 0x0329 [0x00] END_REQSTACK()
```

### Event 65535.18

#### Metadata

| Field        | Value    |
|--------------|----------|
| Entrypoint   | 0x032A   |
| Data Size    | 20 bytes |
| Instructions | 5        |

```
      00 01 02 03 04 05 06 07  08 09 0A 0B 0C 0D 0E 0F
      -- -- -- -- -- -- -- --  -- -- -- -- -- -- -- --
0320:                                59 04 2E 50 0F 01            Y..P..
0330: 13 80 1F 00 28 80 29 80  1B 80 1F 01 6F 00        ....(.).....o.  
```

#### Opcodes

```
  0: 0x032A [0x59] UPDATE_ENTITY_DATA: Set Bogharg (ID: 17780782/0x010F502E) main speed = 12* * 0.1
  1: 0x0332 [0x1F] MOVE_ENTITY: EventEntity moves to X=-56.992*, Z=-88.050*, Y=5.999*
  2: 0x033A [0x1F] MOVE_ENTITY: Update entity position (mode=1)
  3: 0x033C [0x6F] WAIT_FRAME_DELAY: Yield until WaitTime reaches zero
  4: 0x033D [0x00] END_REQSTACK()
```

### Event 65535.19

#### Metadata

| Field        | Value    |
|--------------|----------|
| Entrypoint   | 0x033E   |
| Data Size    | 17 bytes |
| Instructions | 2        |

```
      00 01 02 03 04 05 06 07  08 09 0A 0B 0C 0D 0E 0F
      -- -- -- -- -- -- -- --  -- -- -- -- -- -- -- --
0330:                                            5B 2A                [*
0340: 80 2E 50 0F 01 2E 50 0F  01 6F 70 30 30 00 00     ..P...P..op00.. 
```

#### Opcodes

```
  0: 0x033E [0x5B] LOAD_EXT_SCHEDULER: Load scheduler "op00" with entities [Bogharg (ID: 17780782/0x010F502E), Bogharg (ID: 17780782/0x010F502E)], work=2621*
  1: 0x034D [0x00] END_REQSTACK()
```

#### Data or dead code:

```
# Dead code (unreachable instructions):
     0x034E [0x00] END_REQSTACK()
```

### Event 65535.20

#### Metadata

| Field        | Value    |
|--------------|----------|
| Entrypoint   | 0x034F   |
| Data Size    | 20 bytes |
| Instructions | 5        |

```
      00 01 02 03 04 05 06 07  08 09 0A 0B 0C 0D 0E 0F
      -- -- -- -- -- -- -- --  -- -- -- -- -- -- -- --
0340:                                               59                 Y
0350: 04 31 50 0F 01 16 80 1F  00 1D 80 1E 80 05 80 1F  .1P.............
0360: 01 6F 00                                          .o.             
```

#### Opcodes

```
  0: 0x034F [0x59] UPDATE_ENTITY_DATA: Set Nakho Jawantal (ID: 17780785/0x010F5031) main speed = 11* * 0.1
  1: 0x0357 [0x1F] MOVE_ENTITY: EventEntity moves to X=-83.944*, Z=-128.625*, Y=0.000*
  2: 0x035F [0x1F] MOVE_ENTITY: Update entity position (mode=1)
  3: 0x0361 [0x6F] WAIT_FRAME_DELAY: Yield until WaitTime reaches zero
  4: 0x0362 [0x00] END_REQSTACK()
```

### Event 65535.21

#### Metadata

| Field        | Value    |
|--------------|----------|
| Entrypoint   | 0x0363   |
| Data Size    | 16 bytes |
| Instructions | 2        |

```
      00 01 02 03 04 05 06 07  08 09 0A 0B 0C 0D 0E 0F
      -- -- -- -- -- -- -- --  -- -- -- -- -- -- -- --
0360:          5B 2B 80 12 50  0F 01 12 50 0F 01 6F 70     [+..P...P..op
0370: 61 30 00                                          a0.             
```

#### Opcodes

```
  0: 0x0363 [0x5B] LOAD_EXT_SCHEDULER: Load scheduler "opa0" with entities [Tovrutaux (ID: 17780754/0x010F5012), Tovrutaux (ID: 17780754/0x010F5012)], work=2627*
  1: 0x0372 [0x00] END_REQSTACK()
```

### Event 65535.22

#### Metadata

| Field        | Value    |
|--------------|----------|
| Entrypoint   | 0x0373   |
| Data Size    | 16 bytes |
| Instructions | 2        |

```
      00 01 02 03 04 05 06 07  08 09 0A 0B 0C 0D 0E 0F
      -- -- -- -- -- -- -- --  -- -- -- -- -- -- -- --
0370:          5B 2B 80 12 50  0F 01 12 50 0F 01 6F 70     [+..P...P..op
0380: 61 31 00                                          a1.             
```

#### Opcodes

```
  0: 0x0373 [0x5B] LOAD_EXT_SCHEDULER: Load scheduler "opa1" with entities [Tovrutaux (ID: 17780754/0x010F5012), Tovrutaux (ID: 17780754/0x010F5012)], work=2627*
  1: 0x0382 [0x00] END_REQSTACK()
```

### Event 65535.23

#### Metadata

| Field        | Value    |
|--------------|----------|
| Entrypoint   | 0x0383   |
| Data Size    | 16 bytes |
| Instructions | 2        |

```
      00 01 02 03 04 05 06 07  08 09 0A 0B 0C 0D 0E 0F
      -- -- -- -- -- -- -- --  -- -- -- -- -- -- -- --
0380:          5B 2B 80 12 50  0F 01 12 50 0F 01 6F 70     [+..P...P..op
0390: 61 32 00                                          a2.             
```

#### Opcodes

```
  0: 0x0383 [0x5B] LOAD_EXT_SCHEDULER: Load scheduler "opa2" with entities [Tovrutaux (ID: 17780754/0x010F5012), Tovrutaux (ID: 17780754/0x010F5012)], work=2627*
  1: 0x0392 [0x00] END_REQSTACK()
```

### Event 65535.24

#### Metadata

| Field        | Value    |
|--------------|----------|
| Entrypoint   | 0x0393   |
| Data Size    | 16 bytes |
| Instructions | 2        |

```
      00 01 02 03 04 05 06 07  08 09 0A 0B 0C 0D 0E 0F
      -- -- -- -- -- -- -- --  -- -- -- -- -- -- -- --
0390:          5B 2C 80 12 50  0F 01 12 50 0F 01 74 68     [,..P...P..th
03A0: 6B 31 00                                          k1.             
```

#### Opcodes

```
  0: 0x0393 [0x5B] LOAD_EXT_SCHEDULER: Load scheduler "thk1" with entities [Tovrutaux (ID: 17780754/0x010F5012), Tovrutaux (ID: 17780754/0x010F5012)], work=75*
  1: 0x03A2 [0x00] END_REQSTACK()
```

### Event 65535.25

#### Metadata

| Field        | Value    |
|--------------|----------|
| Entrypoint   | 0x03A3   |
| Data Size    | 16 bytes |
| Instructions | 2        |

```
      00 01 02 03 04 05 06 07  08 09 0A 0B 0C 0D 0E 0F
      -- -- -- -- -- -- -- --  -- -- -- -- -- -- -- --
03A0:          5B 2C 80 12 50  0F 01 12 50 0F 01 74 68     [,..P...P..th
03B0: 6B 32 00                                          k2.             
```

#### Opcodes

```
  0: 0x03A3 [0x5B] LOAD_EXT_SCHEDULER: Load scheduler "thk2" with entities [Tovrutaux (ID: 17780754/0x010F5012), Tovrutaux (ID: 17780754/0x010F5012)], work=75*
  1: 0x03B2 [0x00] END_REQSTACK()
```

### Event 65535.26

#### Metadata

| Field        | Value    |
|--------------|----------|
| Entrypoint   | 0x03B3   |
| Data Size    | 16 bytes |
| Instructions | 2        |

```
      00 01 02 03 04 05 06 07  08 09 0A 0B 0C 0D 0E 0F
      -- -- -- -- -- -- -- --  -- -- -- -- -- -- -- --
03B0:          5B 2C 80 12 50  0F 01 12 50 0F 01 74 6C     [,..P...P..tl
03C0: 6B 30 00                                          k0.             
```

#### Opcodes

```
  0: 0x03B3 [0x5B] LOAD_EXT_SCHEDULER: Load scheduler "tlk0" with entities [Tovrutaux (ID: 17780754/0x010F5012), Tovrutaux (ID: 17780754/0x010F5012)], work=75*
  1: 0x03C2 [0x00] END_REQSTACK()
```

### Event 65535.27

#### Metadata

| Field        | Value    |
|--------------|----------|
| Entrypoint   | 0x03C3   |
| Data Size    | 16 bytes |
| Instructions | 2        |

```
      00 01 02 03 04 05 06 07  08 09 0A 0B 0C 0D 0E 0F
      -- -- -- -- -- -- -- --  -- -- -- -- -- -- -- --
03C0:          5B 2C 80 12 50  0F 01 12 50 0F 01 74 6C     [,..P...P..tl
03D0: 6B 31 00                                          k1.             
```

#### Opcodes

```
  0: 0x03C3 [0x5B] LOAD_EXT_SCHEDULER: Load scheduler "tlk1" with entities [Tovrutaux (ID: 17780754/0x010F5012), Tovrutaux (ID: 17780754/0x010F5012)], work=75*
  1: 0x03D2 [0x00] END_REQSTACK()
```

### Event 65535.28

#### Metadata

| Field        | Value    |
|--------------|----------|
| Entrypoint   | 0x03D3   |
| Data Size    | 12 bytes |
| Instructions | 4        |

```
      00 01 02 03 04 05 06 07  08 09 0A 0B 0C 0D 0E 0F
      -- -- -- -- -- -- -- --  -- -- -- -- -- -- -- --
03D0:          1F 00 2D 80 2E  80 05 80 1F 01 6F 00        ..-.......o. 
```

#### Opcodes

```
  0: 0x03D3 [0x1F] MOVE_ENTITY: EventEntity moves to X=-19.954*, Z=-20.950*, Y=0.000*
  1: 0x03DB [0x1F] MOVE_ENTITY: Update entity position (mode=1)
  2: 0x03DD [0x6F] WAIT_FRAME_DELAY: Yield until WaitTime reaches zero
  3: 0x03DE [0x00] END_REQSTACK()
```

### Event 65535.29

#### Metadata

| Field        | Value    |
|--------------|----------|
| Entrypoint   | 0x03DF   |
| Data Size    | 20 bytes |
| Instructions | 5        |

```
      00 01 02 03 04 05 06 07  08 09 0A 0B 0C 0D 0E 0F
      -- -- -- -- -- -- -- --  -- -- -- -- -- -- -- --
03D0:                                               59                 Y
03E0: 04 13 50 0F 01 16 80 1F  00 2F 80 30 80 1B 80 1F  ..P....../.0....
03F0: 01 6F 00                                          .o.             
```

#### Opcodes

```
  0: 0x03DF [0x59] UPDATE_ENTITY_DATA: Set Seyaya (ID: 17780755/0x010F5013) main speed = 11* * 0.1
  1: 0x03E7 [0x1F] MOVE_ENTITY: EventEntity moves to X=-74.699*, Z=-107.115*, Y=5.999*
  2: 0x03EF [0x1F] MOVE_ENTITY: Update entity position (mode=1)
  3: 0x03F1 [0x6F] WAIT_FRAME_DELAY: Yield until WaitTime reaches zero
  4: 0x03F2 [0x00] END_REQSTACK()
```

### Event 65535.30

#### Metadata

| Field        | Value    |
|--------------|----------|
| Entrypoint   | 0x03F3   |
| Data Size    | 17 bytes |
| Instructions | 2        |

```
      00 01 02 03 04 05 06 07  08 09 0A 0B 0C 0D 0E 0F
      -- -- -- -- -- -- -- --  -- -- -- -- -- -- -- --
03F0:          5B 31 80 13 50  0F 01 13 50 0F 01 6F 70     [1..P...P..op
0400: 61 30 00 00                                       a0..            
```

#### Opcodes

```
  0: 0x03F3 [0x5B] LOAD_EXT_SCHEDULER: Load scheduler "opa0" with entities [Seyaya (ID: 17780755/0x010F5013), Seyaya (ID: 17780755/0x010F5013)], work=2631*
  1: 0x0402 [0x00] END_REQSTACK()
```

#### Data or dead code:

```
# Dead code (unreachable instructions):
     0x0403 [0x00] END_REQSTACK()
```

### Event 65535.31

#### Metadata

| Field        | Value    |
|--------------|----------|
| Entrypoint   | 0x0404   |
| Data Size    | 17 bytes |
| Instructions | 2        |

```
      00 01 02 03 04 05 06 07  08 09 0A 0B 0C 0D 0E 0F
      -- -- -- -- -- -- -- --  -- -- -- -- -- -- -- --
0400:             5B 31 80 13  50 0F 01 13 50 0F 01 6F      [1..P...P..o
0410: 70 61 31 00 00                                    pa1..           
```

#### Opcodes

```
  0: 0x0404 [0x5B] LOAD_EXT_SCHEDULER: Load scheduler "opa1" with entities [Seyaya (ID: 17780755/0x010F5013), Seyaya (ID: 17780755/0x010F5013)], work=2631*
  1: 0x0413 [0x00] END_REQSTACK()
```

#### Data or dead code:

```
# Dead code (unreachable instructions):
     0x0414 [0x00] END_REQSTACK()
```

### Event 65535.32

#### Metadata

| Field        | Value    |
|--------------|----------|
| Entrypoint   | 0x0415   |
| Data Size    | 16 bytes |
| Instructions | 2        |

```
      00 01 02 03 04 05 06 07  08 09 0A 0B 0C 0D 0E 0F
      -- -- -- -- -- -- -- --  -- -- -- -- -- -- -- --
0410:                5B 31 80  13 50 0F 01 13 50 0F 01       [1..P...P..
0420: 6F 70 61 32 00                                    opa2.           
```

#### Opcodes

```
  0: 0x0415 [0x5B] LOAD_EXT_SCHEDULER: Load scheduler "opa2" with entities [Seyaya (ID: 17780755/0x010F5013), Seyaya (ID: 17780755/0x010F5013)], work=2631*
  1: 0x0424 [0x00] END_REQSTACK()
```

### Event 65535.33

#### Metadata

| Field        | Value    |
|--------------|----------|
| Entrypoint   | 0x0425   |
| Data Size    | 16 bytes |
| Instructions | 2        |

```
      00 01 02 03 04 05 06 07  08 09 0A 0B 0C 0D 0E 0F
      -- -- -- -- -- -- -- --  -- -- -- -- -- -- -- --
0420:                5B 32 80  13 50 0F 01 13 50 0F 01       [2..P...P..
0430: 74 68 6B 31 00                                    thk1.           
```

#### Opcodes

```
  0: 0x0425 [0x5B] LOAD_EXT_SCHEDULER: Load scheduler "thk1" with entities [Seyaya (ID: 17780755/0x010F5013), Seyaya (ID: 17780755/0x010F5013)], work=85*
  1: 0x0434 [0x00] END_REQSTACK()
```

### Event 65535.34

#### Metadata

| Field        | Value    |
|--------------|----------|
| Entrypoint   | 0x0435   |
| Data Size    | 16 bytes |
| Instructions | 2        |

```
      00 01 02 03 04 05 06 07  08 09 0A 0B 0C 0D 0E 0F
      -- -- -- -- -- -- -- --  -- -- -- -- -- -- -- --
0430:                5B 32 80  13 50 0F 01 13 50 0F 01       [2..P...P..
0440: 74 68 6B 32 00                                    thk2.           
```

#### Opcodes

```
  0: 0x0435 [0x5B] LOAD_EXT_SCHEDULER: Load scheduler "thk2" with entities [Seyaya (ID: 17780755/0x010F5013), Seyaya (ID: 17780755/0x010F5013)], work=85*
  1: 0x0444 [0x00] END_REQSTACK()
```

### Event 65535.35

#### Metadata

| Field        | Value    |
|--------------|----------|
| Entrypoint   | 0x0445   |
| Data Size    | 16 bytes |
| Instructions | 2        |

```
      00 01 02 03 04 05 06 07  08 09 0A 0B 0C 0D 0E 0F
      -- -- -- -- -- -- -- --  -- -- -- -- -- -- -- --
0440:                5B 32 80  13 50 0F 01 13 50 0F 01       [2..P...P..
0450: 74 6C 6B 30 00                                    tlk0.           
```

#### Opcodes

```
  0: 0x0445 [0x5B] LOAD_EXT_SCHEDULER: Load scheduler "tlk0" with entities [Seyaya (ID: 17780755/0x010F5013), Seyaya (ID: 17780755/0x010F5013)], work=85*
  1: 0x0454 [0x00] END_REQSTACK()
```

### Event 65535.36

#### Metadata

| Field        | Value    |
|--------------|----------|
| Entrypoint   | 0x0455   |
| Data Size    | 16 bytes |
| Instructions | 2        |

```
      00 01 02 03 04 05 06 07  08 09 0A 0B 0C 0D 0E 0F
      -- -- -- -- -- -- -- --  -- -- -- -- -- -- -- --
0450:                5B 32 80  13 50 0F 01 13 50 0F 01       [2..P...P..
0460: 74 6C 6B 65 00                                    tlke.           
```

#### Opcodes

```
  0: 0x0455 [0x5B] LOAD_EXT_SCHEDULER: Load scheduler "tlke" with entities [Seyaya (ID: 17780755/0x010F5013), Seyaya (ID: 17780755/0x010F5013)], work=85*
  1: 0x0464 [0x00] END_REQSTACK()
```

### Event 65535.37

#### Metadata

| Field        | Value    |
|--------------|----------|
| Entrypoint   | 0x0465   |
| Data Size    | 16 bytes |
| Instructions | 2        |

```
      00 01 02 03 04 05 06 07  08 09 0A 0B 0C 0D 0E 0F
      -- -- -- -- -- -- -- --  -- -- -- -- -- -- -- --
0460:                5B 32 80  13 50 0F 01 13 50 0F 01       [2..P...P..
0470: 62 61 6E 30 00                                    ban0.           
```

#### Opcodes

```
  0: 0x0465 [0x5B] LOAD_EXT_SCHEDULER: Load scheduler "ban0" with entities [Seyaya (ID: 17780755/0x010F5013), Seyaya (ID: 17780755/0x010F5013)], work=85*
  1: 0x0474 [0x00] END_REQSTACK()
```

### Event 65535.38

#### Metadata

| Field        | Value    |
|--------------|----------|
| Entrypoint   | 0x0475   |
| Data Size    | 13 bytes |
| Instructions | 4        |

```
      00 01 02 03 04 05 06 07  08 09 0A 0B 0C 0D 0E 0F
      -- -- -- -- -- -- -- --  -- -- -- -- -- -- -- --
0470:                1F 00 33  80 34 80 05 80 1F 01 6F       ..3.4.....o
0480: 00 00                                             ..              
```

#### Opcodes

```
  0: 0x0475 [0x1F] MOVE_ENTITY: EventEntity moves to X=-19.857*, Z=-21.712*, Y=0.000*
  1: 0x047D [0x1F] MOVE_ENTITY: Update entity position (mode=1)
  2: 0x047F [0x6F] WAIT_FRAME_DELAY: Yield until WaitTime reaches zero
  3: 0x0480 [0x00] END_REQSTACK()
```

#### Data or dead code:

```
# Dead code (unreachable instructions):
     0x0481 [0x00] END_REQSTACK()
```

### Event 65535.39

#### Metadata

| Field        | Value    |
|--------------|----------|
| Entrypoint   | 0x0482   |
| Data Size    | 20 bytes |
| Instructions | 5        |

```
      00 01 02 03 04 05 06 07  08 09 0A 0B 0C 0D 0E 0F
      -- -- -- -- -- -- -- --  -- -- -- -- -- -- -- --
0480:       59 04 C0 50 0F 01  35 80 1F 00 36 80 37 80    Y..P..5...6.7.
0490: 05 80 1F 01 6F 00                                 ....o.          
```

#### Opcodes

```
  0: 0x0482 [0x59] UPDATE_ENTITY_DATA: Set Rakuru-Rakoru (ID: 17780928/0x010F50C0) main speed = 14* * 0.1
  1: 0x048A [0x1F] MOVE_ENTITY: EventEntity moves to X=-37.763*, Z=-62.812*, Y=0.000*
  2: 0x0492 [0x1F] MOVE_ENTITY: Update entity position (mode=1)
  3: 0x0494 [0x6F] WAIT_FRAME_DELAY: Yield until WaitTime reaches zero
  4: 0x0495 [0x00] END_REQSTACK()
```

### Event 65535.40

#### Metadata

| Field        | Value    |
|--------------|----------|
| Entrypoint   | 0x0496   |
| Data Size    | 12 bytes |
| Instructions | 4        |

```
      00 01 02 03 04 05 06 07  08 09 0A 0B 0C 0D 0E 0F
      -- -- -- -- -- -- -- --  -- -- -- -- -- -- -- --
0490:                   1F 00  38 80 39 80 3A 80 1F 01        ..8.9.:...
04A0: 6F 00                                             o.              
```

#### Opcodes

```
  0: 0x0496 [0x1F] MOVE_ENTITY: EventEntity moves to X=-13.366*, Z=2.528*, Y=-0.449*
  1: 0x049E [0x1F] MOVE_ENTITY: Update entity position (mode=1)
  2: 0x04A0 [0x6F] WAIT_FRAME_DELAY: Yield until WaitTime reaches zero
  3: 0x04A1 [0x00] END_REQSTACK()
```

### Event 65535.41

#### Metadata

| Field        | Value    |
|--------------|----------|
| Entrypoint   | 0x04A2   |
| Data Size    | 16 bytes |
| Instructions | 2        |

```
      00 01 02 03 04 05 06 07  08 09 0A 0B 0C 0D 0E 0F
      -- -- -- -- -- -- -- --  -- -- -- -- -- -- -- --
04A0:       66 3B 80 C0 50 0F  01 C0 50 0F 01 74 6C 6B    f;..P...P..tlk
04B0: 30 00                                             0.              
```

#### Opcodes

```
  0: 0x04A2 [0x66] LOAD_EXT_SCHEDULER_MAIN: Load scheduler "tlk0" with entities [Rakuru-Rakoru (ID: 17780928/0x010F50C0), Rakuru-Rakoru (ID: 17780928/0x010F50C0)], work=40*
  1: 0x04B1 [0x00] END_REQSTACK()
```

### Event 65535.42

#### Metadata

| Field        | Value    |
|--------------|----------|
| Entrypoint   | 0x04B2   |
| Data Size    | 16 bytes |
| Instructions | 2        |

```
      00 01 02 03 04 05 06 07  08 09 0A 0B 0C 0D 0E 0F
      -- -- -- -- -- -- -- --  -- -- -- -- -- -- -- --
04B0:       66 3C 80 C0 50 0F  01 C0 50 0F 01 65 68 6E    f<..P...P..ehn
04C0: 31 00                                             1.              
```

#### Opcodes

```
  0: 0x04B2 [0x66] LOAD_EXT_SCHEDULER_MAIN: Load scheduler "ehn1" with entities [Rakuru-Rakoru (ID: 17780928/0x010F50C0), Rakuru-Rakoru (ID: 17780928/0x010F50C0)], work=41*
  1: 0x04C1 [0x00] END_REQSTACK()
```

### Event 65535.43

#### Metadata

| Field        | Value    |
|--------------|----------|
| Entrypoint   | 0x04C2   |
| Data Size    | 16 bytes |
| Instructions | 2        |

```
      00 01 02 03 04 05 06 07  08 09 0A 0B 0C 0D 0E 0F
      -- -- -- -- -- -- -- --  -- -- -- -- -- -- -- --
04C0:       66 3B 80 C0 50 0F  01 C0 50 0F 01 6D 6F 6A    f;..P...P..moj
04D0: 30 00                                             0.              
```

#### Opcodes

```
  0: 0x04C2 [0x66] LOAD_EXT_SCHEDULER_MAIN: Load scheduler "moj0" with entities [Rakuru-Rakoru (ID: 17780928/0x010F50C0), Rakuru-Rakoru (ID: 17780928/0x010F50C0)], work=40*
  1: 0x04D1 [0x00] END_REQSTACK()
```

### Event 65535.44

#### Metadata

| Field        | Value    |
|--------------|----------|
| Entrypoint   | 0x04D2   |
| Data Size    | 20 bytes |
| Instructions | 5        |

```
      00 01 02 03 04 05 06 07  08 09 0A 0B 0C 0D 0E 0F
      -- -- -- -- -- -- -- --  -- -- -- -- -- -- -- --
04D0:       59 04 C0 50 0F 01  35 80 1F 00 3D 80 3E 80    Y..P..5...=.>.
04E0: 1B 80 1F 01 6F 00                                 ....o.          
```

#### Opcodes

```
  0: 0x04D2 [0x59] UPDATE_ENTITY_DATA: Set Rakuru-Rakoru (ID: 17780928/0x010F50C0) main speed = 14* * 0.1
  1: 0x04DA [0x1F] MOVE_ENTITY: EventEntity moves to X=-71.130*, Z=-110.791*, Y=5.999*
  2: 0x04E2 [0x1F] MOVE_ENTITY: Update entity position (mode=1)
  3: 0x04E4 [0x6F] WAIT_FRAME_DELAY: Yield until WaitTime reaches zero
  4: 0x04E5 [0x00] END_REQSTACK()
```

### Event 65535.45

#### Metadata

| Field        | Value    |
|--------------|----------|
| Entrypoint   | 0x04E6   |
| Data Size    | 29 bytes |
| Instructions | 6        |

```
      00 01 02 03 04 05 06 07  08 09 0A 0B 0C 0D 0E 0F
      -- -- -- -- -- -- -- --  -- -- -- -- -- -- -- --
04E0:                   59 04  C0 50 0F 01 35 80 1F 00        Y..P..5...
04F0: 3F 80 40 80 1B 80 1F 01  5A 00 41 80 42 80 43 80  ?.@.....Z.A.B.C.
0500: 5A 01 00                                          Z..             
```

#### Opcodes

```
  0: 0x04E6 [0x59] UPDATE_ENTITY_DATA: Set Rakuru-Rakoru (ID: 17780928/0x010F50C0) main speed = 14* * 0.1
  1: 0x04EE [0x1F] MOVE_ENTITY: EventEntity moves to X=-75.540*, Z=-116.545*, Y=5.999*
  2: 0x04F6 [0x1F] MOVE_ENTITY: Update entity position (mode=1)
  3: 0x04F8 [0x5A] UPDATE_EVENT_POSITION: Set EventEntity MovePosition to X=-80.452*, Z=-125.376*, Y=0.999*
  4: 0x0500 [0x5A] UPDATE_EVENT_POSITION: Move EventEntity incrementally towards MovePosition
  5: 0x0502 [0x00] END_REQSTACK()
```

### Event 65535.46

#### Metadata

| Field        | Value    |
|--------------|----------|
| Entrypoint   | 0x0503   |
| Data Size    | 17 bytes |
| Instructions | 2        |

```
      00 01 02 03 04 05 06 07  08 09 0A 0B 0C 0D 0E 0F
      -- -- -- -- -- -- -- --  -- -- -- -- -- -- -- --
0500:          5B 44 80 C0 50  0F 01 C0 50 0F 01 62 6F     [D..P...P..bo
0510: 70 30 00 00                                       p0..            
```

#### Opcodes

```
  0: 0x0503 [0x5B] LOAD_EXT_SCHEDULER: Load scheduler "bop0" with entities [Rakuru-Rakoru (ID: 17780928/0x010F50C0), Rakuru-Rakoru (ID: 17780928/0x010F50C0)], work=2611*
  1: 0x0512 [0x00] END_REQSTACK()
```

#### Data or dead code:

```
# Dead code (unreachable instructions):
     0x0513 [0x00] END_REQSTACK()
```

### Event 65535.47

#### Metadata

| Field        | Value    |
|--------------|----------|
| Entrypoint   | 0x0514   |
| Data Size    | 20 bytes |
| Instructions | 5        |

```
      00 01 02 03 04 05 06 07  08 09 0A 0B 0C 0D 0E 0F
      -- -- -- -- -- -- -- --  -- -- -- -- -- -- -- --
0510:             59 04 25 50  0F 01 45 80 1F 00 1D 80      Y.%P..E.....
0520: 1E 80 05 80 1F 01 6F 00                           ......o.        
```

#### Opcodes

```
  0: 0x0514 [0x59] UPDATE_ENTITY_DATA: Set Sutarara (ID: 17780773/0x010F5025) main speed = 13* * 0.1
  1: 0x051C [0x1F] MOVE_ENTITY: EventEntity moves to X=-83.944*, Z=-128.625*, Y=0.000*
  2: 0x0524 [0x1F] MOVE_ENTITY: Update entity position (mode=1)
  3: 0x0526 [0x6F] WAIT_FRAME_DELAY: Yield until WaitTime reaches zero
  4: 0x0527 [0x00] END_REQSTACK()
```

### Event 65535.48

#### Metadata

| Field        | Value    |
|--------------|----------|
| Entrypoint   | 0x0528   |
| Data Size    | 20 bytes |
| Instructions | 5        |

```
      00 01 02 03 04 05 06 07  08 09 0A 0B 0C 0D 0E 0F
      -- -- -- -- -- -- -- --  -- -- -- -- -- -- -- --
0520:                          59 04 25 50 0F 01 45 80          Y.%P..E.
0530: 1F 00 46 80 47 80 1B 80  1F 01 6F 00              ..F.G.....o.    
```

#### Opcodes

```
  0: 0x0528 [0x59] UPDATE_ENTITY_DATA: Set Sutarara (ID: 17780773/0x010F5025) main speed = 13* * 0.1
  1: 0x0530 [0x1F] MOVE_ENTITY: EventEntity moves to X=-64.287*, Z=-102.136*, Y=5.999*
  2: 0x0538 [0x1F] MOVE_ENTITY: Update entity position (mode=1)
  3: 0x053A [0x6F] WAIT_FRAME_DELAY: Yield until WaitTime reaches zero
  4: 0x053B [0x00] END_REQSTACK()
```

### Event 65535.49

#### Metadata

| Field        | Value    |
|--------------|----------|
| Entrypoint   | 0x053C   |
| Data Size    | 20 bytes |
| Instructions | 5        |

```
      00 01 02 03 04 05 06 07  08 09 0A 0B 0C 0D 0E 0F
      -- -- -- -- -- -- -- --  -- -- -- -- -- -- -- --
0530:                                      59 04 25 50              Y.%P
0540: 0F 01 45 80 1F 00 48 80  49 80 05 80 1F 01 6F 00  ..E...H.I.....o.
```

#### Opcodes

```
  0: 0x053C [0x59] UPDATE_ENTITY_DATA: Set Sutarara (ID: 17780773/0x010F5025) main speed = 13* * 0.1
  1: 0x0544 [0x1F] MOVE_ENTITY: EventEntity moves to X=4.236*, Z=4.336*, Y=0.000*
  2: 0x054C [0x1F] MOVE_ENTITY: Update entity position (mode=1)
  3: 0x054E [0x6F] WAIT_FRAME_DELAY: Yield until WaitTime reaches zero
  4: 0x054F [0x00] END_REQSTACK()
```

### Event 65535.50

#### Metadata

| Field        | Value    |
|--------------|----------|
| Entrypoint   | 0x0550   |
| Data Size    | 20 bytes |
| Instructions | 5        |

```
      00 01 02 03 04 05 06 07  08 09 0A 0B 0C 0D 0E 0F
      -- -- -- -- -- -- -- --  -- -- -- -- -- -- -- --
0550: 59 04 34 50 0F 01 13 80  1F 00 4A 80 4B 80 4C 80  Y.4P......J.K.L.
0560: 1F 01 6F 00                                       ..o.            
```

#### Opcodes

```
  0: 0x0550 [0x59] UPDATE_ENTITY_DATA: Set Venika (ID: 17780788/0x010F5034) main speed = 12* * 0.1
  1: 0x0558 [0x1F] MOVE_ENTITY: EventEntity moves to X=-15.376*, Z=-23.775*, Y=-0.101*
  2: 0x0560 [0x1F] MOVE_ENTITY: Update entity position (mode=1)
  3: 0x0562 [0x6F] WAIT_FRAME_DELAY: Yield until WaitTime reaches zero
  4: 0x0563 [0x00] END_REQSTACK()
```

### Event 65535.51

#### Metadata

| Field        | Value    |
|--------------|----------|
| Entrypoint   | 0x0564   |
| Data Size    | 20 bytes |
| Instructions | 5        |

```
      00 01 02 03 04 05 06 07  08 09 0A 0B 0C 0D 0E 0F
      -- -- -- -- -- -- -- --  -- -- -- -- -- -- -- --
0560:             59 04 34 50  0F 01 4D 80 1F 00 46 80      Y.4P..M...F.
0570: 47 80 1B 80 1F 01 6F 00                           G.....o.        
```

#### Opcodes

```
  0: 0x0564 [0x59] UPDATE_ENTITY_DATA: Set Venika (ID: 17780788/0x010F5034) main speed = 10* * 0.1
  1: 0x056C [0x1F] MOVE_ENTITY: EventEntity moves to X=-64.287*, Z=-102.136*, Y=5.999*
  2: 0x0574 [0x1F] MOVE_ENTITY: Update entity position (mode=1)
  3: 0x0576 [0x6F] WAIT_FRAME_DELAY: Yield until WaitTime reaches zero
  4: 0x0577 [0x00] END_REQSTACK()
```

### Event 65535.52

#### Metadata

| Field        | Value    |
|--------------|----------|
| Entrypoint   | 0x0578   |
| Data Size    | 16 bytes |
| Instructions | 2        |

```
      00 01 02 03 04 05 06 07  08 09 0A 0B 0C 0D 0E 0F
      -- -- -- -- -- -- -- --  -- -- -- -- -- -- -- --
0570:                          5B 4E 80 34 50 0F 01 34          [N.4P..4
0580: 50 0F 01 6F 70 62 30 00                           P..opb0.        
```

#### Opcodes

```
  0: 0x0578 [0x5B] LOAD_EXT_SCHEDULER: Load scheduler "opb0" with entities [Venika (ID: 17780788/0x010F5034), Venika (ID: 17780788/0x010F5034)], work=2584*
  1: 0x0587 [0x00] END_REQSTACK()
```

### Event 65535.53

#### Metadata

| Field        | Value    |
|--------------|----------|
| Entrypoint   | 0x0588   |
| Data Size    | 16 bytes |
| Instructions | 2        |

```
      00 01 02 03 04 05 06 07  08 09 0A 0B 0C 0D 0E 0F
      -- -- -- -- -- -- -- --  -- -- -- -- -- -- -- --
0580:                          5B 4E 80 34 50 0F 01 34          [N.4P..4
0590: 50 0F 01 6F 70 62 31 00                           P..opb1.        
```

#### Opcodes

```
  0: 0x0588 [0x5B] LOAD_EXT_SCHEDULER: Load scheduler "opb1" with entities [Venika (ID: 17780788/0x010F5034), Venika (ID: 17780788/0x010F5034)], work=2584*
  1: 0x0597 [0x00] END_REQSTACK()
```

### Event 65535.54

#### Metadata

| Field        | Value    |
|--------------|----------|
| Entrypoint   | 0x0598   |
| Data Size    | 20 bytes |
| Instructions | 5        |

```
      00 01 02 03 04 05 06 07  08 09 0A 0B 0C 0D 0E 0F
      -- -- -- -- -- -- -- --  -- -- -- -- -- -- -- --
0590:                          59 04 34 50 0F 01 13 80          Y.4P....
05A0: 1F 00 4F 80 50 80 05 80  1F 01 6F 00              ..O.P.....o.    
```

#### Opcodes

```
  0: 0x0598 [0x59] UPDATE_ENTITY_DATA: Set Venika (ID: 17780788/0x010F5034) main speed = 12* * 0.1
  1: 0x05A0 [0x1F] MOVE_ENTITY: EventEntity moves to X=-0.991*, Z=2.123*, Y=0.000*
  2: 0x05A8 [0x1F] MOVE_ENTITY: Update entity position (mode=1)
  3: 0x05AA [0x6F] WAIT_FRAME_DELAY: Yield until WaitTime reaches zero
  4: 0x05AB [0x00] END_REQSTACK()
```

### Event 65535.55

#### Metadata

| Field        | Value    |
|--------------|----------|
| Entrypoint   | 0x05AC   |
| Data Size    | 16 bytes |
| Instructions | 2        |

```
      00 01 02 03 04 05 06 07  08 09 0A 0B 0C 0D 0E 0F
      -- -- -- -- -- -- -- --  -- -- -- -- -- -- -- --
05A0:                                      5B 4E 80 34              [N.4
05B0: 50 0F 01 34 50 0F 01 6F  70 63 30 00              P..4P..opc0.    
```

#### Opcodes

```
  0: 0x05AC [0x5B] LOAD_EXT_SCHEDULER: Load scheduler "opc0" with entities [Venika (ID: 17780788/0x010F5034), Venika (ID: 17780788/0x010F5034)], work=2584*
  1: 0x05BB [0x00] END_REQSTACK()
```

### Event 65535.56

#### Metadata

| Field        | Value    |
|--------------|----------|
| Entrypoint   | 0x05BC   |
| Data Size    | 16 bytes |
| Instructions | 2        |

```
      00 01 02 03 04 05 06 07  08 09 0A 0B 0C 0D 0E 0F
      -- -- -- -- -- -- -- --  -- -- -- -- -- -- -- --
05B0:                                      5B 4E 80 34              [N.4
05C0: 50 0F 01 34 50 0F 01 6F  70 63 31 00              P..4P..opc1.    
```

#### Opcodes

```
  0: 0x05BC [0x5B] LOAD_EXT_SCHEDULER: Load scheduler "opc1" with entities [Venika (ID: 17780788/0x010F5034), Venika (ID: 17780788/0x010F5034)], work=2584*
  1: 0x05CB [0x00] END_REQSTACK()
```

### Event 65535.57

#### Metadata

| Field        | Value    |
|--------------|----------|
| Entrypoint   | 0x05CC   |
| Data Size    | 16 bytes |
| Instructions | 2        |

```
      00 01 02 03 04 05 06 07  08 09 0A 0B 0C 0D 0E 0F
      -- -- -- -- -- -- -- --  -- -- -- -- -- -- -- --
05C0:                                      66 51 80 36              fQ.6
05D0: 50 0F 01 36 50 0F 01 61  77 77 30 00              P..6P..aww0.    
```

#### Opcodes

```
  0: 0x05CC [0x66] LOAD_EXT_SCHEDULER_MAIN: Load scheduler "aww0" with entities [Kuah Dakonsa (ID: 17780790/0x010F5036), Kuah Dakonsa (ID: 17780790/0x010F5036)], work=8*
  1: 0x05DB [0x00] END_REQSTACK()
```

### Event 65535.58

#### Metadata

| Field        | Value    |
|--------------|----------|
| Entrypoint   | 0x05DC   |
| Data Size    | 16 bytes |
| Instructions | 2        |

```
      00 01 02 03 04 05 06 07  08 09 0A 0B 0C 0D 0E 0F
      -- -- -- -- -- -- -- --  -- -- -- -- -- -- -- --
05D0:                                      66 52 80 36              fR.6
05E0: 50 0F 01 36 50 0F 01 74  68 6B 31 00              P..6P..thk1.    
```

#### Opcodes

```
  0: 0x05DC [0x66] LOAD_EXT_SCHEDULER_MAIN: Load scheduler "thk1" with entities [Kuah Dakonsa (ID: 17780790/0x010F5036), Kuah Dakonsa (ID: 17780790/0x010F5036)], work=51*
  1: 0x05EB [0x00] END_REQSTACK()
```

### Event 65535.59

#### Metadata

| Field        | Value    |
|--------------|----------|
| Entrypoint   | 0x05EC   |
| Data Size    | 21 bytes |
| Instructions | 5        |

```
      00 01 02 03 04 05 06 07  08 09 0A 0B 0C 0D 0E 0F
      -- -- -- -- -- -- -- --  -- -- -- -- -- -- -- --
05E0:                                      59 04 32 50              Y.2P
05F0: 0F 01 13 80 1F 00 53 80  54 80 1B 80 1F 01 6F 00  ......S.T.....o.
0600: 00                                                .               
```

#### Opcodes

```
  0: 0x05EC [0x59] UPDATE_ENTITY_DATA: Set Gurdern (ID: 17780786/0x010F5032) main speed = 12* * 0.1
  1: 0x05F4 [0x1F] MOVE_ENTITY: EventEntity moves to X=-61.958*, Z=-103.267*, Y=5.999*
  2: 0x05FC [0x1F] MOVE_ENTITY: Update entity position (mode=1)
  3: 0x05FE [0x6F] WAIT_FRAME_DELAY: Yield until WaitTime reaches zero
  4: 0x05FF [0x00] END_REQSTACK()
```

#### Data or dead code:

```
# Dead code (unreachable instructions):
     0x0600 [0x00] END_REQSTACK()
```

### Event 65535.60

#### Metadata

| Field        | Value    |
|--------------|----------|
| Entrypoint   | 0x0601   |
| Data Size    | 20 bytes |
| Instructions | 5        |

```
      00 01 02 03 04 05 06 07  08 09 0A 0B 0C 0D 0E 0F
      -- -- -- -- -- -- -- --  -- -- -- -- -- -- -- --
0600:    59 04 32 50 0F 01 13  80 1F 00 55 80 56 80 1B   Y.2P......U.V..
0610: 80 1F 01 6F 00                                    ...o.           
```

#### Opcodes

```
  0: 0x0601 [0x59] UPDATE_ENTITY_DATA: Set Gurdern (ID: 17780786/0x010F5032) main speed = 12* * 0.1
  1: 0x0609 [0x1F] MOVE_ENTITY: EventEntity moves to X=-66.589*, Z=-92.299*, Y=5.999*
  2: 0x0611 [0x1F] MOVE_ENTITY: Update entity position (mode=1)
  3: 0x0613 [0x6F] WAIT_FRAME_DELAY: Yield until WaitTime reaches zero
  4: 0x0614 [0x00] END_REQSTACK()
```

### Event 65535.61

#### Metadata

| Field        | Value    |
|--------------|----------|
| Entrypoint   | 0x0615   |
| Data Size    | 20 bytes |
| Instructions | 5        |

```
      00 01 02 03 04 05 06 07  08 09 0A 0B 0C 0D 0E 0F
      -- -- -- -- -- -- -- --  -- -- -- -- -- -- -- --
0610:                59 04 32  50 0F 01 13 80 1F 00 57       Y.2P......W
0620: 80 58 80 1B 80 1F 01 6F  00                       .X.....o.       
```

#### Opcodes

```
  0: 0x0615 [0x59] UPDATE_ENTITY_DATA: Set Gurdern (ID: 17780786/0x010F5032) main speed = 12* * 0.1
  1: 0x061D [0x1F] MOVE_ENTITY: EventEntity moves to X=-58.931*, Z=-86.942*, Y=5.999*
  2: 0x0625 [0x1F] MOVE_ENTITY: Update entity position (mode=1)
  3: 0x0627 [0x6F] WAIT_FRAME_DELAY: Yield until WaitTime reaches zero
  4: 0x0628 [0x00] END_REQSTACK()
```

### Event 65535.62

#### Metadata

| Field        | Value    |
|--------------|----------|
| Entrypoint   | 0x0629   |
| Data Size    | 17 bytes |
| Instructions | 2        |

```
      00 01 02 03 04 05 06 07  08 09 0A 0B 0C 0D 0E 0F
      -- -- -- -- -- -- -- --  -- -- -- -- -- -- -- --
0620:                             5B 2A 80 32 50 0F 01           [*.2P..
0630: 32 50 0F 01 6F 70 30 30  00 00                    2P..op00..      
```

#### Opcodes

```
  0: 0x0629 [0x5B] LOAD_EXT_SCHEDULER: Load scheduler "op00" with entities [Gurdern (ID: 17780786/0x010F5032), Gurdern (ID: 17780786/0x010F5032)], work=2621*
  1: 0x0638 [0x00] END_REQSTACK()
```

#### Data or dead code:

```
# Dead code (unreachable instructions):
     0x0639 [0x00] END_REQSTACK()
```

### Event 65535.63

#### Metadata

| Field        | Value    |
|--------------|----------|
| Entrypoint   | 0x063A   |
| Data Size    | 20 bytes |
| Instructions | 5        |

```
      00 01 02 03 04 05 06 07  08 09 0A 0B 0C 0D 0E 0F
      -- -- -- -- -- -- -- --  -- -- -- -- -- -- -- --
0630:                                59 04 1C 50 0F 01            Y..P..
0640: 16 80 1F 00 17 80 18 80  05 80 1F 01 6F 00        ............o.  
```

#### Opcodes

```
  0: 0x063A [0x59] UPDATE_ENTITY_DATA: Set Mertaire (ID: 17780764/0x010F501C) main speed = 11* * 0.1
  1: 0x0642 [0x1F] MOVE_ENTITY: EventEntity moves to X=-95.337*, Z=-156.056*, Y=0.000*
  2: 0x064A [0x1F] MOVE_ENTITY: Update entity position (mode=1)
  3: 0x064C [0x6F] WAIT_FRAME_DELAY: Yield until WaitTime reaches zero
  4: 0x064D [0x00] END_REQSTACK()
```

### Event 65535.64

#### Metadata

| Field        | Value    |
|--------------|----------|
| Entrypoint   | 0x064E   |
| Data Size    | 20 bytes |
| Instructions | 5        |

```
      00 01 02 03 04 05 06 07  08 09 0A 0B 0C 0D 0E 0F
      -- -- -- -- -- -- -- --  -- -- -- -- -- -- -- --
0640:                                            59 04                Y.
0650: 1C 50 0F 01 16 80 1F 00  59 80 5A 80 5B 80 1F 01  .P......Y.Z.[...
0660: 6F 00                                             o.              
```

#### Opcodes

```
  0: 0x064E [0x59] UPDATE_ENTITY_DATA: Set Mertaire (ID: 17780764/0x010F501C) main speed = 11* * 0.1
  1: 0x0656 [0x1F] MOVE_ENTITY: EventEntity moves to X=-78.197*, Z=-116.328*, Y=3.999*
  2: 0x065E [0x1F] MOVE_ENTITY: Update entity position (mode=1)
  3: 0x0660 [0x6F] WAIT_FRAME_DELAY: Yield until WaitTime reaches zero
  4: 0x0661 [0x00] END_REQSTACK()
```

### Event 65535.65

#### Metadata

| Field        | Value    |
|--------------|----------|
| Entrypoint   | 0x0662   |
| Data Size    | 16 bytes |
| Instructions | 2        |

```
      00 01 02 03 04 05 06 07  08 09 0A 0B 0C 0D 0E 0F
      -- -- -- -- -- -- -- --  -- -- -- -- -- -- -- --
0660:       5B 5C 80 1C 50 0F  01 1C 50 0F 01 6F 70 63    [\..P...P..opc
0670: 30 00                                             0.              
```

#### Opcodes

```
  0: 0x0662 [0x5B] LOAD_EXT_SCHEDULER: Load scheduler "opc0" with entities [Mertaire (ID: 17780764/0x010F501C), Mertaire (ID: 17780764/0x010F501C)], work=2583*
  1: 0x0671 [0x00] END_REQSTACK()
```

### Event 65535.66

#### Metadata

| Field        | Value    |
|--------------|----------|
| Entrypoint   | 0x0672   |
| Data Size    | 16 bytes |
| Instructions | 2        |

```
      00 01 02 03 04 05 06 07  08 09 0A 0B 0C 0D 0E 0F
      -- -- -- -- -- -- -- --  -- -- -- -- -- -- -- --
0670:       5B 5C 80 1C 50 0F  01 1C 50 0F 01 6F 70 63    [\..P...P..opc
0680: 31 00                                             1.              
```

#### Opcodes

```
  0: 0x0672 [0x5B] LOAD_EXT_SCHEDULER: Load scheduler "opc1" with entities [Mertaire (ID: 17780764/0x010F501C), Mertaire (ID: 17780764/0x010F501C)], work=2583*
  1: 0x0681 [0x00] END_REQSTACK()
```

### Event 65535.67

#### Metadata

| Field        | Value    |
|--------------|----------|
| Entrypoint   | 0x0682   |
| Data Size    | 21 bytes |
| Instructions | 5        |

```
      00 01 02 03 04 05 06 07  08 09 0A 0B 0C 0D 0E 0F
      -- -- -- -- -- -- -- --  -- -- -- -- -- -- -- --
0680:       59 04 1C 50 0F 01  16 80 1F 00 5D 80 5E 80    Y..P......].^.
0690: 05 80 1F 01 6F 00 00                              ....o..         
```

#### Opcodes

```
  0: 0x0682 [0x59] UPDATE_ENTITY_DATA: Set Mertaire (ID: 17780764/0x010F501C) main speed = 11* * 0.1
  1: 0x068A [0x1F] MOVE_ENTITY: EventEntity moves to X=-9.883*, Z=-9.826*, Y=0.000*
  2: 0x0692 [0x1F] MOVE_ENTITY: Update entity position (mode=1)
  3: 0x0694 [0x6F] WAIT_FRAME_DELAY: Yield until WaitTime reaches zero
  4: 0x0695 [0x00] END_REQSTACK()
```

#### Data or dead code:

```
# Dead code (unreachable instructions):
     0x0696 [0x00] END_REQSTACK()
```

### Event 65535.68

#### Metadata

| Field        | Value    |
|--------------|----------|
| Entrypoint   | 0x0697   |
| Data Size    | 20 bytes |
| Instructions | 5        |

```
      00 01 02 03 04 05 06 07  08 09 0A 0B 0C 0D 0E 0F
      -- -- -- -- -- -- -- --  -- -- -- -- -- -- -- --
0690:                      59  04 1E 50 0F 01 5F 80 1F         Y..P.._..
06A0: 00 2F 80 30 80 1B 80 1F  01 6F 00                 ./.0.....o.     
```

#### Opcodes

```
  0: 0x0697 [0x59] UPDATE_ENTITY_DATA: Set Bki Tbujhja (ID: 17780766/0x010F501E) main speed = 9* * 0.1
  1: 0x069F [0x1F] MOVE_ENTITY: EventEntity moves to X=-74.699*, Z=-107.115*, Y=5.999*
  2: 0x06A7 [0x1F] MOVE_ENTITY: Update entity position (mode=1)
  3: 0x06A9 [0x6F] WAIT_FRAME_DELAY: Yield until WaitTime reaches zero
  4: 0x06AA [0x00] END_REQSTACK()
```

### Event 65535.69

#### Metadata

| Field        | Value    |
|--------------|----------|
| Entrypoint   | 0x06AB   |
| Data Size    | 20 bytes |
| Instructions | 5        |

```
      00 01 02 03 04 05 06 07  08 09 0A 0B 0C 0D 0E 0F
      -- -- -- -- -- -- -- --  -- -- -- -- -- -- -- --
06A0:                                   59 04 1E 50 0F             Y..P.
06B0: 01 16 80 1F 00 60 80 61  80 1B 80 1F 01 6F 00     .....`.a.....o. 
```

#### Opcodes

```
  0: 0x06AB [0x59] UPDATE_ENTITY_DATA: Set Bki Tbujhja (ID: 17780766/0x010F501E) main speed = 11* * 0.1
  1: 0x06B3 [0x1F] MOVE_ENTITY: EventEntity moves to X=-72.052*, Z=-102.467*, Y=5.999*
  2: 0x06BB [0x1F] MOVE_ENTITY: Update entity position (mode=1)
  3: 0x06BD [0x6F] WAIT_FRAME_DELAY: Yield until WaitTime reaches zero
  4: 0x06BE [0x00] END_REQSTACK()
```

### Event 65535.70

#### Metadata

| Field        | Value    |
|--------------|----------|
| Entrypoint   | 0x06BF   |
| Data Size    | 16 bytes |
| Instructions | 2        |

```
      00 01 02 03 04 05 06 07  08 09 0A 0B 0C 0D 0E 0F
      -- -- -- -- -- -- -- --  -- -- -- -- -- -- -- --
06B0:                                               66                 f
06C0: 51 80 1E 50 0F 01 1E 50  0F 01 61 77 77 30 00     Q..P...P..aww0. 
```

#### Opcodes

```
  0: 0x06BF [0x66] LOAD_EXT_SCHEDULER_MAIN: Load scheduler "aww0" with entities [Bki Tbujhja (ID: 17780766/0x010F501E), Bki Tbujhja (ID: 17780766/0x010F501E)], work=8*
  1: 0x06CE [0x00] END_REQSTACK()
```

### Event 65535.71

#### Metadata

| Field        | Value    |
|--------------|----------|
| Entrypoint   | 0x06CF   |
| Data Size    | 20 bytes |
| Instructions | 5        |

```
      00 01 02 03 04 05 06 07  08 09 0A 0B 0C 0D 0E 0F
      -- -- -- -- -- -- -- --  -- -- -- -- -- -- -- --
06C0:                                               59                 Y
06D0: 04 1E 50 0F 01 5F 80 1F  00 62 80 63 80 05 80 1F  ..P.._...b.c....
06E0: 01 6F 00                                          .o.             
```

#### Opcodes

```
  0: 0x06CF [0x59] UPDATE_ENTITY_DATA: Set Bki Tbujhja (ID: 17780766/0x010F501E) main speed = 9* * 0.1
  1: 0x06D7 [0x1F] MOVE_ENTITY: EventEntity moves to X=-5.853*, Z=-5.190*, Y=0.000*
  2: 0x06DF [0x1F] MOVE_ENTITY: Update entity position (mode=1)
  3: 0x06E1 [0x6F] WAIT_FRAME_DELAY: Yield until WaitTime reaches zero
  4: 0x06E2 [0x00] END_REQSTACK()
```

### Event 65535.72

#### Metadata

| Field        | Value    |
|--------------|----------|
| Entrypoint   | 0x06E3   |
| Data Size    | 21 bytes |
| Instructions | 5        |

```
      00 01 02 03 04 05 06 07  08 09 0A 0B 0C 0D 0E 0F
      -- -- -- -- -- -- -- --  -- -- -- -- -- -- -- --
06E0:          59 04 1E 50 0F  01 16 80 1F 00 57 80 58     Y..P......W.X
06F0: 80 1B 80 1F 01 6F 00 00                           .....o..        
```

#### Opcodes

```
  0: 0x06E3 [0x59] UPDATE_ENTITY_DATA: Set Bki Tbujhja (ID: 17780766/0x010F501E) main speed = 11* * 0.1
  1: 0x06EB [0x1F] MOVE_ENTITY: EventEntity moves to X=-58.931*, Z=-86.942*, Y=5.999*
  2: 0x06F3 [0x1F] MOVE_ENTITY: Update entity position (mode=1)
  3: 0x06F5 [0x6F] WAIT_FRAME_DELAY: Yield until WaitTime reaches zero
  4: 0x06F6 [0x00] END_REQSTACK()
```

#### Data or dead code:

```
# Dead code (unreachable instructions):
     0x06F7 [0x00] END_REQSTACK()
```

### Event 65535.73

#### Metadata

| Field        | Value    |
|--------------|----------|
| Entrypoint   | 0x06F8   |
| Data Size    | 20 bytes |
| Instructions | 5        |

```
      00 01 02 03 04 05 06 07  08 09 0A 0B 0C 0D 0E 0F
      -- -- -- -- -- -- -- --  -- -- -- -- -- -- -- --
06F0:                          59 04 27 50 0F 01 13 80          Y.'P....
0700: 1F 00 64 80 65 80 66 80  1F 01 6F 00              ..d.e.f...o.    
```

#### Opcodes

```
  0: 0x06F8 [0x59] UPDATE_ENTITY_DATA: Set Danzhor (ID: 17780775/0x010F5027) main speed = 12* * 0.1
  1: 0x0700 [0x1F] MOVE_ENTITY: EventEntity moves to X=-45.210*, Z=-89.196*, Y=-5.999*
  2: 0x0708 [0x1F] MOVE_ENTITY: Update entity position (mode=1)
  3: 0x070A [0x6F] WAIT_FRAME_DELAY: Yield until WaitTime reaches zero
  4: 0x070B [0x00] END_REQSTACK()
```

### Event 65535.74

#### Metadata

| Field        | Value    |
|--------------|----------|
| Entrypoint   | 0x070C   |
| Data Size    | 12 bytes |
| Instructions | 4        |

```
      00 01 02 03 04 05 06 07  08 09 0A 0B 0C 0D 0E 0F
      -- -- -- -- -- -- -- --  -- -- -- -- -- -- -- --
0700:                                      1F 00 67 80              ..g.
0710: 68 80 05 80 1F 01 6F 00                           h.....o.        
```

#### Opcodes

```
  0: 0x070C [0x1F] MOVE_ENTITY: EventEntity moves to X=-18.343*, Z=-8.286*, Y=0.000*
  1: 0x0714 [0x1F] MOVE_ENTITY: Update entity position (mode=1)
  2: 0x0716 [0x6F] WAIT_FRAME_DELAY: Yield until WaitTime reaches zero
  3: 0x0717 [0x00] END_REQSTACK()
```

### Event 65535.75

#### Metadata

| Field        | Value    |
|--------------|----------|
| Entrypoint   | 0x0718   |
| Data Size    | 16 bytes |
| Instructions | 2        |

```
      00 01 02 03 04 05 06 07  08 09 0A 0B 0C 0D 0E 0F
      -- -- -- -- -- -- -- --  -- -- -- -- -- -- -- --
0710:                          66 27 80 27 50 0F 01 27          f'.'P..'
0720: 50 0F 01 74 68 6B 31 00                           P..thk1.        
```

#### Opcodes

```
  0: 0x0718 [0x66] LOAD_EXT_SCHEDULER_MAIN: Load scheduler "thk1" with entities [Danzhor (ID: 17780775/0x010F5027), Danzhor (ID: 17780775/0x010F5027)], work=69*
  1: 0x0727 [0x00] END_REQSTACK()
```

### Event 65535.76

#### Metadata

| Field        | Value    |
|--------------|----------|
| Entrypoint   | 0x0728   |
| Data Size    | 16 bytes |
| Instructions | 2        |

```
      00 01 02 03 04 05 06 07  08 09 0A 0B 0C 0D 0E 0F
      -- -- -- -- -- -- -- --  -- -- -- -- -- -- -- --
0720:                          66 27 80 27 50 0F 01 27          f'.'P..'
0730: 50 0F 01 74 68 6B 32 00                           P..thk2.        
```

#### Opcodes

```
  0: 0x0728 [0x66] LOAD_EXT_SCHEDULER_MAIN: Load scheduler "thk2" with entities [Danzhor (ID: 17780775/0x010F5027), Danzhor (ID: 17780775/0x010F5027)], work=69*
  1: 0x0737 [0x00] END_REQSTACK()
```

### Event 65535.77

#### Metadata

| Field        | Value    |
|--------------|----------|
| Entrypoint   | 0x0738   |
| Data Size    | 20 bytes |
| Instructions | 5        |

```
      00 01 02 03 04 05 06 07  08 09 0A 0B 0C 0D 0E 0F
      -- -- -- -- -- -- -- --  -- -- -- -- -- -- -- --
0730:                          59 04 27 50 0F 01 13 80          Y.'P....
0740: 1F 00 69 80 6A 80 05 80  1F 01 6F 00              ..i.j.....o.    
```

#### Opcodes

```
  0: 0x0738 [0x59] UPDATE_ENTITY_DATA: Set Danzhor (ID: 17780775/0x010F5027) main speed = 12* * 0.1
  1: 0x0740 [0x1F] MOVE_ENTITY: EventEntity moves to X=-17.939*, Z=-16.579*, Y=0.000*
  2: 0x0748 [0x1F] MOVE_ENTITY: Update entity position (mode=1)
  3: 0x074A [0x6F] WAIT_FRAME_DELAY: Yield until WaitTime reaches zero
  4: 0x074B [0x00] END_REQSTACK()
```

### Event 65535.78

#### Metadata

| Field        | Value    |
|--------------|----------|
| Entrypoint   | 0x074C   |
| Data Size    | 20 bytes |
| Instructions | 5        |

```
      00 01 02 03 04 05 06 07  08 09 0A 0B 0C 0D 0E 0F
      -- -- -- -- -- -- -- --  -- -- -- -- -- -- -- --
0740:                                      59 04 27 50              Y.'P
0750: 0F 01 13 80 1F 00 6B 80  6C 80 05 80 1F 01 6F 00  ......k.l.....o.
```

#### Opcodes

```
  0: 0x074C [0x59] UPDATE_ENTITY_DATA: Set Danzhor (ID: 17780775/0x010F5027) main speed = 12* * 0.1
  1: 0x0754 [0x1F] MOVE_ENTITY: EventEntity moves to X=-3.065*, Z=-7.931*, Y=0.000*
  2: 0x075C [0x1F] MOVE_ENTITY: Update entity position (mode=1)
  3: 0x075E [0x6F] WAIT_FRAME_DELAY: Yield until WaitTime reaches zero
  4: 0x075F [0x00] END_REQSTACK()
```

### Event 65535.79

#### Metadata

| Field        | Value    |
|--------------|----------|
| Entrypoint   | 0x0760   |
| Data Size    | 17 bytes |
| Instructions | 2        |

```
      00 01 02 03 04 05 06 07  08 09 0A 0B 0C 0D 0E 0F
      -- -- -- -- -- -- -- --  -- -- -- -- -- -- -- --
0760: 66 3C 80 30 50 0F 01 30  50 0F 01 73 68 6B 30 00  f<.0P..0P..shk0.
0770: 00                                                .               
```

#### Opcodes

```
  0: 0x0760 [0x66] LOAD_EXT_SCHEDULER_MAIN: Load scheduler "shk0" with entities [Kikilolo (ID: 17780784/0x010F5030), Kikilolo (ID: 17780784/0x010F5030)], work=41*
  1: 0x076F [0x00] END_REQSTACK()
```

#### Data or dead code:

```
# Dead code (unreachable instructions):
     0x0770 [0x00] END_REQSTACK()
```

### Event 65535.80

#### Metadata

| Field        | Value    |
|--------------|----------|
| Entrypoint   | 0x0771   |
| Data Size    | 16 bytes |
| Instructions | 2        |

```
      00 01 02 03 04 05 06 07  08 09 0A 0B 0C 0D 0E 0F
      -- -- -- -- -- -- -- --  -- -- -- -- -- -- -- --
0770:    5B 6D 80 39 50 0F 01  39 50 0F 01 74 6C 6B 30   [m.9P..9P..tlk0
0780: 00                                                .               
```

#### Opcodes

```
  0: 0x0771 [0x5B] LOAD_EXT_SCHEDULER: Load scheduler "tlk0" with entities [Momiji (ID: 17780793/0x010F5039), Momiji (ID: 17780793/0x010F5039)], work=60*
  1: 0x0780 [0x00] END_REQSTACK()
```

### Event 65535.81

#### Metadata

| Field        | Value    |
|--------------|----------|
| Entrypoint   | 0x0781   |
| Data Size    | 16 bytes |
| Instructions | 2        |

```
      00 01 02 03 04 05 06 07  08 09 0A 0B 0C 0D 0E 0F
      -- -- -- -- -- -- -- --  -- -- -- -- -- -- -- --
0780:    5B 6D 80 39 50 0F 01  39 50 0F 01 74 6C 6B 31   [m.9P..9P..tlk1
0790: 00                                                .               
```

#### Opcodes

```
  0: 0x0781 [0x5B] LOAD_EXT_SCHEDULER: Load scheduler "tlk1" with entities [Momiji (ID: 17780793/0x010F5039), Momiji (ID: 17780793/0x010F5039)], work=60*
  1: 0x0790 [0x00] END_REQSTACK()
```

### Event 65535.82

#### Metadata

| Field        | Value    |
|--------------|----------|
| Entrypoint   | 0x0791   |
| Data Size    | 16 bytes |
| Instructions | 2        |

```
      00 01 02 03 04 05 06 07  08 09 0A 0B 0C 0D 0E 0F
      -- -- -- -- -- -- -- --  -- -- -- -- -- -- -- --
0790:    5B 6D 80 39 50 0F 01  39 50 0F 01 74 68 6B 31   [m.9P..9P..thk1
07A0: 00                                                .               
```

#### Opcodes

```
  0: 0x0791 [0x5B] LOAD_EXT_SCHEDULER: Load scheduler "thk1" with entities [Momiji (ID: 17780793/0x010F5039), Momiji (ID: 17780793/0x010F5039)], work=60*
  1: 0x07A0 [0x00] END_REQSTACK()
```

### Event 65535.83

#### Metadata

| Field        | Value    |
|--------------|----------|
| Entrypoint   | 0x07A1   |
| Data Size    | 16 bytes |
| Instructions | 2        |

```
      00 01 02 03 04 05 06 07  08 09 0A 0B 0C 0D 0E 0F
      -- -- -- -- -- -- -- --  -- -- -- -- -- -- -- --
07A0:    5B 6D 80 39 50 0F 01  39 50 0F 01 74 68 6B 32   [m.9P..9P..thk2
07B0: 00                                                .               
```

#### Opcodes

```
  0: 0x07A1 [0x5B] LOAD_EXT_SCHEDULER: Load scheduler "thk2" with entities [Momiji (ID: 17780793/0x010F5039), Momiji (ID: 17780793/0x010F5039)], work=60*
  1: 0x07B0 [0x00] END_REQSTACK()
```

### Event 65535.84

#### Metadata

| Field        | Value    |
|--------------|----------|
| Entrypoint   | 0x07B1   |
| Data Size    | 17 bytes |
| Instructions | 2        |

```
      00 01 02 03 04 05 06 07  08 09 0A 0B 0C 0D 0E 0F
      -- -- -- -- -- -- -- --  -- -- -- -- -- -- -- --
07B0:    5B 6E 80 39 50 0F 01  39 50 0F 01 65 6D 74 30   [n.9P..9P..emt0
07C0: 00 00                                             ..              
```

#### Opcodes

```
  0: 0x07B1 [0x5B] LOAD_EXT_SCHEDULER: Load scheduler "emt0" with entities [Momiji (ID: 17780793/0x010F5039), Momiji (ID: 17780793/0x010F5039)], work=2624*
  1: 0x07C0 [0x00] END_REQSTACK()
```

#### Data or dead code:

```
# Dead code (unreachable instructions):
     0x07C1 [0x00] END_REQSTACK()
```

### Event 65535.85

#### Metadata

| Field        | Value    |
|--------------|----------|
| Entrypoint   | 0x07C2   |
| Data Size    | 20 bytes |
| Instructions | 5        |

```
      00 01 02 03 04 05 06 07  08 09 0A 0B 0C 0D 0E 0F
      -- -- -- -- -- -- -- --  -- -- -- -- -- -- -- --
07C0:       59 04 3C 50 0F 01  45 80 1F 00 6F 80 70 80    Y.<P..E...o.p.
07D0: 05 80 1F 01 6F 00                                 ....o.          
```

#### Opcodes

```
  0: 0x07C2 [0x59] UPDATE_ENTITY_DATA: Set Mendi (ID: 17780796/0x010F503C) main speed = 13* * 0.1
  1: 0x07CA [0x1F] MOVE_ENTITY: EventEntity moves to X=-38.371*, Z=-67.496*, Y=0.000*
  2: 0x07D2 [0x1F] MOVE_ENTITY: Update entity position (mode=1)
  3: 0x07D4 [0x6F] WAIT_FRAME_DELAY: Yield until WaitTime reaches zero
  4: 0x07D5 [0x00] END_REQSTACK()
```

### Event 65535.86

#### Metadata

| Field        | Value    |
|--------------|----------|
| Entrypoint   | 0x07D6   |
| Data Size    | 12 bytes |
| Instructions | 4        |

```
      00 01 02 03 04 05 06 07  08 09 0A 0B 0C 0D 0E 0F
      -- -- -- -- -- -- -- --  -- -- -- -- -- -- -- --
07D0:                   1F 00  71 80 72 80 05 80 1F 01        ..q.r.....
07E0: 6F 00                                             o.              
```

#### Opcodes

```
  0: 0x07D6 [0x1F] MOVE_ENTITY: EventEntity moves to X=-5.565*, Z=-1.804*, Y=0.000*
  1: 0x07DE [0x1F] MOVE_ENTITY: Update entity position (mode=1)
  2: 0x07E0 [0x6F] WAIT_FRAME_DELAY: Yield until WaitTime reaches zero
  3: 0x07E1 [0x00] END_REQSTACK()
```

### Event 65535.87

#### Metadata

| Field        | Value    |
|--------------|----------|
| Entrypoint   | 0x07E2   |
| Data Size    | 16 bytes |
| Instructions | 2        |

```
      00 01 02 03 04 05 06 07  08 09 0A 0B 0C 0D 0E 0F
      -- -- -- -- -- -- -- --  -- -- -- -- -- -- -- --
07E0:       5B 5C 80 3C 50 0F  01 3C 50 0F 01 6F 70 62    [\.<P..<P..opb
07F0: 30 00                                             0.              
```

#### Opcodes

```
  0: 0x07E2 [0x5B] LOAD_EXT_SCHEDULER: Load scheduler "opb0" with entities [Mendi (ID: 17780796/0x010F503C), Mendi (ID: 17780796/0x010F503C)], work=2583*
  1: 0x07F1 [0x00] END_REQSTACK()
```

### Event 65535.88

#### Metadata

| Field        | Value    |
|--------------|----------|
| Entrypoint   | 0x07F2   |
| Data Size    | 16 bytes |
| Instructions | 2        |

```
      00 01 02 03 04 05 06 07  08 09 0A 0B 0C 0D 0E 0F
      -- -- -- -- -- -- -- --  -- -- -- -- -- -- -- --
07F0:       5B 5C 80 3C 50 0F  01 3C 50 0F 01 6F 70 63    [\.<P..<P..opc
0800: 30 00                                             0.              
```

#### Opcodes

```
  0: 0x07F2 [0x5B] LOAD_EXT_SCHEDULER: Load scheduler "opc0" with entities [Mendi (ID: 17780796/0x010F503C), Mendi (ID: 17780796/0x010F503C)], work=2583*
  1: 0x0801 [0x00] END_REQSTACK()
```

### Event 65535.89

#### Metadata

| Field        | Value    |
|--------------|----------|
| Entrypoint   | 0x0802   |
| Data Size    | 16 bytes |
| Instructions | 2        |

```
      00 01 02 03 04 05 06 07  08 09 0A 0B 0C 0D 0E 0F
      -- -- -- -- -- -- -- --  -- -- -- -- -- -- -- --
0800:       5B 5C 80 3C 50 0F  01 3C 50 0F 01 6F 70 63    [\.<P..<P..opc
0810: 31 00                                             1.              
```

#### Opcodes

```
  0: 0x0802 [0x5B] LOAD_EXT_SCHEDULER: Load scheduler "opc1" with entities [Mendi (ID: 17780796/0x010F503C), Mendi (ID: 17780796/0x010F503C)], work=2583*
  1: 0x0811 [0x00] END_REQSTACK()
```

