# 0x7FFFFFF0 - Zone Events

## Common Data

| Field            | Value                 |
|------------------|-----------------------|
| Zone             | Lower Jeuno (ID: 245) |
| Block Size       | 68680 bytes           |
| Total Events     | 140                   |
| References Count | 1522                  |

## List of Events

| Event ID                     | Entrypoint   |   Size |   Instructions |
|------------------------------|--------------|--------|----------------|
| [65535](#event-65535)        | 0x0000       |      4 |              2 |
| [65535.1](#event-655351)     | 0x0004       |     10 |              2 |
| [65534](#event-65534)        | 0x000E       |      1 |              1 |
| [20002](#event-20002)        | 0x000F       |     97 |             14 |
| [65535.2](#event-655352)     | 0x0070       |      6 |              2 |
| [65535.3](#event-655353)     | 0x0076       |      6 |              2 |
| [65535.4](#event-655354)     | 0x007C       |     10 |              2 |
| [65535.5](#event-655355)     | 0x0086       |     18 |              4 |
| [65535.6](#event-655356)     | 0x0098       |     18 |              4 |
| [9](#event-9)                | 0x00AA       |    280 |             34 |
| [10](#event-10)              | 0x01C2       |    288 |             36 |
| [70](#event-70)              | 0x02E2       |    707 |            102 |
| [86](#event-86)              | 0x05A5       |   2687 |            386 |
| [22](#event-22)              | 0x1024       |   1215 |            165 |
| [17](#event-17)              | 0x14E3       |   1236 |            151 |
| [154](#event-154)            | 0x19B7       |   1772 |            209 |
| [104](#event-104)            | 0x20A3       |    812 |            108 |
| [97](#event-97)              | 0x23CF       |      1 |              1 |
| [105](#event-105)            | 0x23D0       |    298 |             42 |
| [152](#event-152)            | 0x24FA       |   1090 |            170 |
| [83](#event-83)              | 0x293C       |    570 |             81 |
| [101](#event-101)            | 0x2B76       |    674 |            103 |
| [34](#event-34)              | 0x2E18       |    787 |            121 |
| [77](#event-77)              | 0x312B       |    174 |             37 |
| [33](#event-33)              | 0x31D9       |    669 |             90 |
| [189](#event-189)            | 0x3476       |    188 |             39 |
| [35](#event-35)              | 0x3532       |   1657 |            235 |
| [65535.7](#event-655357)     | 0x3BAB       |     23 |              5 |
| [65535.8](#event-655358)     | 0x3BC2       |     10 |              2 |
| [65535.9](#event-655359)     | 0x3BCC       |     10 |              2 |
| [65535.10](#event-6553510)   | 0x3BD6       |     10 |              2 |
| [65535.11](#event-6553511)   | 0x3BE0       |     24 |              6 |
| [184](#event-184)            | 0x3BF8       |   1305 |            195 |
| [48](#event-48)              | 0x4111       |    563 |             87 |
| [194](#event-194)            | 0x4344       |    177 |             40 |
| [196](#event-196)            | 0x43F5       |    703 |             99 |
| [200](#event-200)            | 0x46B4       |    661 |             93 |
| [65535.12](#event-6553512)   | 0x4949       |     10 |              2 |
| [65535.13](#event-6553513)   | 0x4953       |     23 |              7 |
| [65535.14](#event-6553514)   | 0x496A       |    131 |             19 |
| [65535.15](#event-6553515)   | 0x49ED       |      1 |              1 |
| [65535.16](#event-6553516)   | 0x49EE       |    132 |             20 |
| [65535.17](#event-6553517)   | 0x4A72       |      1 |              1 |
| [65535.18](#event-6553518)   | 0x4A73       |     99 |             13 |
| [65535.19](#event-6553519)   | 0x4AD6       |     10 |              2 |
| [65535.20](#event-6553520)   | 0x4AE0       |     10 |              2 |
| [65535.21](#event-6553521)   | 0x4AEA       |     24 |              6 |
| [65535.22](#event-6553522)   | 0x4B02       |     11 |              3 |
| [65535.23](#event-6553523)   | 0x4B0D       |      6 |              2 |
| [65535.24](#event-6553524)   | 0x4B13       |      6 |              2 |
| [65535.25](#event-6553525)   | 0x4B19       |      6 |              2 |
| [65535.26](#event-6553526)   | 0x4B1F       |      6 |              2 |
| [65535.27](#event-6553527)   | 0x4B25       |     10 |              2 |
| [65535.28](#event-6553528)   | 0x4B2F       |     10 |              2 |
| [65535.29](#event-6553529)   | 0x4B39       |     10 |              2 |
| [65535.30](#event-6553530)   | 0x4B43       |     10 |              2 |
| [65535.31](#event-6553531)   | 0x4B4D       |     15 |              5 |
| [65535.32](#event-6553532)   | 0x4B5C       |     10 |              2 |
| [65535.33](#event-6553533)   | 0x4B66       |     10 |              2 |
| [65535.34](#event-6553534)   | 0x4B70       |     22 |              8 |
| [65535.35](#event-6553535)   | 0x4B86       |     10 |              2 |
| [65535.36](#event-6553536)   | 0x4B90       |     10 |              2 |
| [111](#event-111)            | 0x4B9A       |   2083 |            287 |
| [20](#event-20)              | 0x53BD       |   1916 |            273 |
| [160](#event-160)            | 0x5B39       |    236 |             42 |
| [155](#event-155)            | 0x5C25       |    361 |             58 |
| [156](#event-156)            | 0x5D8E       |    459 |             66 |
| [157](#event-157)            | 0x5F59       |    486 |             69 |
| [158](#event-158)            | 0x613F       |    430 |             65 |
| [159](#event-159)            | 0x62ED       |   1059 |            139 |
| [65535.37](#event-6553537)   | 0x6710       |     10 |              2 |
| [65535.38](#event-6553538)   | 0x671A       |     10 |              2 |
| [65535.39](#event-6553539)   | 0x6724       |     10 |              2 |
| [65535.40](#event-6553540)   | 0x672E       |      6 |              2 |
| [10049](#event-10049)        | 0x6734       |   5146 |            842 |
| [10050](#event-10050)        | 0x7B4E       |   3332 |            457 |
| [10051](#event-10051)        | 0x8852       |   6795 |           1278 |
| [65535.41](#event-6553541)   | 0xA2DD       |     14 |              4 |
| [65535.42](#event-6553542)   | 0xA2EB       |     14 |              4 |
| [65535.43](#event-6553543)   | 0xA2F9       |      3 |              2 |
| [65535.44](#event-6553544)   | 0xA2FC       |  18745 |           3204 |
| [65535.45](#event-6553545)   | 0xEC35       |     20 |              3 |
| [65535.46](#event-6553546)   | 0xEC49       |     10 |              2 |
| [65535.47](#event-6553547)   | 0xEC53       |     10 |              2 |
| [65535.48](#event-6553548)   | 0xEC5D       |     24 |              4 |
| [65535.49](#event-6553549)   | 0xEC75       |     24 |              4 |
| [10094](#event-10094)        | 0xEC8D       |      1 |              1 |
| [65535.50](#event-6553550)   | 0xEC8E       |     15 |              5 |
| [65535.51](#event-6553551)   | 0xEC9D       |     12 |              4 |
| [65535.52](#event-6553552)   | 0xECA9       |      8 |              2 |
| [65535.53](#event-6553553)   | 0xECB1       |     15 |              5 |
| [65535.54](#event-6553554)   | 0xECC0       |      9 |              3 |
| [65535.55](#event-6553555)   | 0xECC9       |     14 |              4 |
| [65535.56](#event-6553556)   | 0xECD7       |     14 |              4 |
| [65535.57](#event-6553557)   | 0xECE5       |    172 |             36 |
| [65535.58](#event-6553558)   | 0xED91       |     41 |             10 |
| [65535.59](#event-6553559)   | 0xEDBA       |      9 |              3 |
| [20070](#event-20070)        | 0xEDC3       |      1 |              1 |
| [65535.60](#event-6553560)   | 0xEDC4       |     10 |              2 |
| [65535.61](#event-6553561)   | 0xEDCE       |     10 |              2 |
| [65535.62](#event-6553562)   | 0xEDD8       |     14 |              4 |
| [10125](#event-10125)        | 0xEDE6       |      1 |              1 |
| [65535.63](#event-6553563)   | 0xEDE7       |    366 |             43 |
| [65535.64](#event-6553564)   | 0xEF55       |     50 |             12 |
| [65535.65](#event-6553565)   | 0xEF87       |     23 |              7 |
| [65535.66](#event-6553566)   | 0xEF9E       |     14 |              4 |
| [65535.67](#event-6553567)   | 0xEFAC       |     18 |              6 |
| [65535.68](#event-6553568)   | 0xEFBE       |     16 |              4 |
| [65535.69](#event-6553569)   | 0xEFCE       |     29 |              5 |
| [65535.70](#event-6553570)   | 0xEFEB       |      4 |              2 |
| [65535.71](#event-6553571)   | 0xEFEF       |     22 |              6 |
| [65535.72](#event-6553572)   | 0xF005       |     23 |              7 |
| [65535.73](#event-6553573)   | 0xF01C       |     16 |              4 |
| [65535.74](#event-6553574)   | 0xF02C       |     16 |              4 |
| [65535.75](#event-6553575)   | 0xF03C       |     27 |              7 |
| [65535.76](#event-6553576)   | 0xF057       |     15 |              5 |
| [65535.77](#event-6553577)   | 0xF066       |     13 |              3 |
| [65535.78](#event-6553578)   | 0xF073       |     37 |              5 |
| [65535.79](#event-6553579)   | 0xF098       |     37 |              5 |
| [65535.80](#event-6553580)   | 0xF0BD       |     37 |              5 |
| [65535.81](#event-6553581)   | 0xF0E2       |     37 |              5 |
| [65535.82](#event-6553582)   | 0xF107       |     13 |              3 |
| [65535.83](#event-6553583)   | 0xF114       |     13 |              3 |
| [65535.84](#event-6553584)   | 0xF121       |     13 |              3 |
| [65535.85](#event-6553585)   | 0xF12E       |     13 |              3 |
| [65535.86](#event-6553586)   | 0xF13B       |     13 |              3 |
| [65535.87](#event-6553587)   | 0xF148       |     13 |              3 |
| [65535.88](#event-6553588)   | 0xF155       |     13 |              3 |
| [65535.89](#event-6553589)   | 0xF162       |     15 |              5 |
| [65535.90](#event-6553590)   | 0xF171       |     15 |              5 |
| [65535.91](#event-6553591)   | 0xF180       |     15 |              5 |
| [65535.92](#event-6553592)   | 0xF18F       |     22 |              8 |
| [65535.93](#event-6553593)   | 0xF1A5       |     15 |              5 |
| [65535.94](#event-6553594)   | 0xF1B4       |     22 |              8 |
| [65535.95](#event-6553595)   | 0xF1CA       |     25 |              6 |
| [65535.96](#event-6553596)   | 0xF1E3       |     24 |              6 |
| [65535.97](#event-6553597)   | 0xF1FB       |     15 |              5 |
| [65535.98](#event-6553598)   | 0xF20A       |     22 |              8 |
| [65535.99](#event-6553599)   | 0xF220       |     15 |              5 |
| [65535.100](#event-65535100) | 0xF22F       |     15 |              5 |

## DAT References (imed_data)

|   Index | Hex Value   |   Dec Value |
|---------|-------------|-------------|
|       0 | 0x000D      |          13 |
|       1 | 0x009A      |         154 |
|       2 | 0xFFFFF98B  |  4294965643 |
|       3 | 0x0000      |           0 |
|       4 | 0x0B83      |        2947 |
|       5 | 0x262B      |        9771 |
|       6 | 0x00C8      |         200 |
|       7 | 0x0001      |           1 |
|       8 | 0x005A      |          90 |
|       9 | 0x003C      |          60 |
|      10 | 0x00C9      |         201 |
|      11 | 0xFFFFC026  |  4294950950 |
|      12 | 0xFFFFFD01  |  4294966529 |
|      13 | 0x0AF0      |        2800 |
|      14 | 0x0007      |           7 |
|      15 | 0x0006      |           6 |
|      16 | 0x0003      |           3 |
|      17 | 0x8B38      |       35640 |
|      18 | 0xFFFFC4B2  |  4294952114 |
|      19 | 0xFFFFFF91  |  4294967185 |
|      20 | 0x0128      |         296 |
|      21 | 0x01C7      |         455 |
|      22 | 0x00BD      |         189 |
|      23 | 0x21E1      |        8673 |
|      24 | 0x001E      |          30 |
|      25 | 0x0078      |         120 |
|      26 | 0x21F3      |        8691 |
|      27 | 0x21F4      |        8692 |
|      28 | 0x0013      |          19 |
|      29 | 0x00E7      |         231 |
|      30 | 0x000C      |          12 |
|      31 | 0x00F3      |         243 |
|      32 | 0x0064      |         100 |
|      33 | 0x00FF      |         255 |
|      34 | 0x0051      |          81 |
|      35 | 0x21F9      |        8697 |
|      36 | 0x21FA      |        8698 |
|      37 | 0x21FB      |        8699 |
|      38 | 0x0400      |        1024 |
|      39 | 0x0005      |           5 |
|      40 | 0x012C      |         300 |
|      41 | 0x000A      |          10 |
|      42 | 0x21FC      |        8700 |
|      43 | 0x00F5      |         245 |
|      44 | 0x006E      |         110 |
|      45 | 0x8C34      |       35892 |
|      46 | 0xFFFFC3E3  |  4294951907 |
|      47 | 0x0141      |         321 |
|      48 | 0x21B6      |        8630 |
|      49 | 0x21B7      |        8631 |
|      50 | 0x21B8      |        8632 |
|      51 | 0x002D      |          45 |
|      52 | 0x8E13      |       36371 |
|      53 | 0xFFFFC69D  |  4294952605 |
|      54 | 0x07E4      |        2020 |
|      55 | 0x21B9      |        8633 |
|      56 | 0x21BA      |        8634 |
|      57 | 0x21BB      |        8635 |
|      58 | 0x0008      |           8 |
|      59 | 0x21BC      |        8636 |
|      60 | 0x0028      |          40 |
|      61 | 0x21BD      |        8637 |
|      62 | 0x0047      |          71 |
|      63 | 0x21BE      |        8638 |
|      64 | 0x21BF      |        8639 |
|      65 | 0x21C0      |        8640 |
|      66 | 0x000F      |          15 |
|      67 | 0x21C1      |        8641 |
|      68 | 0x21C2      |        8642 |
|      69 | 0x21C3      |        8643 |
|      70 | 0x00EA      |         234 |
|      71 | 0x019A      |         410 |
|      72 | 0x00B4      |         180 |
|      73 | 0x9C20      |       39968 |
|      74 | 0xFFFFBAB0  |  4294949552 |
|      75 | 0xFFFFFF9D  |  4294967197 |
|      76 | 0x4521      |       17697 |
|      77 | 0xFFFF3224  |  4294914596 |
|      78 | 0x0F3B      |        3899 |
|      79 | 0x0366      |         870 |
|      80 | 0x01C9      |         457 |
|      81 | 0x4B08      |       19208 |
|      82 | 0xFFFF2421  |  4294911009 |
|      83 | 0x0F1D      |        3869 |
|      84 | 0x21C4      |        8644 |
|      85 | 0x21C5      |        8645 |
|      86 | 0x21C6      |        8646 |
|      87 | 0x21C7      |        8647 |
|      88 | 0x0EF0      |        3824 |
|      89 | 0x21C8      |        8648 |
|      90 | 0x21C9      |        8649 |
|      91 | 0x21CB      |        8651 |
|      92 | 0x21CC      |        8652 |
|      93 | 0x21CD      |        8653 |
|      94 | 0x21CE      |        8654 |
|      95 | 0x21CF      |        8655 |
|      96 | 0x21D0      |        8656 |
|      97 | 0x21D1      |        8657 |
|      98 | 0x03E9      |        1001 |
|      99 | 0x21D2      |        8658 |
|     100 | 0x21D3      |        8659 |
|     101 | 0x21D4      |        8660 |
|     102 | 0x21D5      |        8661 |
|     103 | 0x21D6      |        8662 |
|     104 | 0x21D7      |        8663 |
|     105 | 0x21D8      |        8664 |
|     106 | 0x21D9      |        8665 |
|     107 | 0x0E4C      |        3660 |
|     108 | 0x21DA      |        8666 |
|     109 | 0x21DB      |        8667 |
|     110 | 0x21DC      |        8668 |
|     111 | 0x21DD      |        8669 |
|     112 | 0x21DE      |        8670 |
|     113 | 0x21DF      |        8671 |
|     114 | 0x5CB3      |       23731 |
|     115 | 0xFFFF34AE  |  4294915246 |
|     116 | 0x0F3D      |        3901 |
|     117 | 0x095D      |        2397 |
|     118 | 0x007B      |         123 |
|     119 | 0x004A      |          74 |
|     120 | 0x4B83      |       19331 |
|     121 | 0xFFFF3A1F  |  4294916639 |
|     122 | 0x21E2      |        8674 |
|     123 | 0x44EC      |       17644 |
|     124 | 0xFFFF2FA9  |  4294913961 |
|     125 | 0x21E3      |        8675 |
|     126 | 0x21E4      |        8676 |
|     127 | 0x21E5      |        8677 |
|     128 | 0x21E6      |        8678 |
|     129 | 0x21E7      |        8679 |
|     130 | 0x21E8      |        8680 |
|     131 | 0x21E9      |        8681 |
|     132 | 0x21EA      |        8682 |
|     133 | 0x21EB      |        8683 |
|     134 | 0x0014      |          20 |
|     135 | 0x21EC      |        8684 |
|     136 | 0x21ED      |        8685 |
|     137 | 0x21EE      |        8686 |
|     138 | 0x21EF      |        8687 |
|     139 | 0x21F0      |        8688 |
|     140 | 0x21F1      |        8689 |
|     141 | 0x21F2      |        8690 |
|     142 | 0xFFFFE800  |  4294961152 |
|     143 | 0xFFFF9241  |  4294939201 |
|     144 | 0xFFFFE891  |  4294961297 |
|     145 | 0x0168      |         360 |
|     146 | 0x2136      |        8502 |
|     147 | 0x2137      |        8503 |
|     148 | 0x00A3      |         163 |
|     149 | 0x2138      |        8504 |
|     150 | 0x2139      |        8505 |
|     151 | 0x213A      |        8506 |
|     152 | 0x213B      |        8507 |
|     153 | 0x213C      |        8508 |
|     154 | 0x213D      |        8509 |
|     155 | 0x213E      |        8510 |
|     156 | 0x213F      |        8511 |
|     157 | 0x2140      |        8512 |
|     158 | 0x2141      |        8513 |
|     159 | 0x2142      |        8514 |
|     160 | 0x2143      |        8515 |
|     161 | 0x2144      |        8516 |
|     162 | 0x0AD7      |        2775 |
|     163 | 0x2145      |        8517 |
|     164 | 0x2146      |        8518 |
|     165 | 0x2147      |        8519 |
|     166 | 0x2148      |        8520 |
|     167 | 0x2149      |        8521 |
|     168 | 0x214A      |        8522 |
|     169 | 0x214B      |        8523 |
|     170 | 0x214C      |        8524 |
|     171 | 0xFFFFEDB6  |  4294962614 |
|     172 | 0xFFFF8FE1  |  4294938593 |
|     173 | 0x012D      |         301 |
|     174 | 0x2151      |        8529 |
|     175 | 0x00F0      |         240 |
|     176 | 0xFFFFEABB  |  4294961851 |
|     177 | 0xFFFF8818  |  4294936600 |
|     178 | 0x07C2      |        1986 |
|     179 | 0x007C      |         124 |
|     180 | 0x2152      |        8530 |
|     181 | 0x2153      |        8531 |
|     182 | 0x2154      |        8532 |
|     183 | 0x2155      |        8533 |
|     184 | 0x2156      |        8534 |
|     185 | 0x2157      |        8535 |
|     186 | 0x2158      |        8536 |
|     187 | 0x2159      |        8537 |
|     188 | 0x215A      |        8538 |
|     189 | 0x215B      |        8539 |
|     190 | 0x215C      |        8540 |
|     191 | 0x215D      |        8541 |
|     192 | 0x215E      |        8542 |
|     193 | 0x215F      |        8543 |
|     194 | 0x2160      |        8544 |
|     195 | 0x2161      |        8545 |
|     196 | 0x2162      |        8546 |
|     197 | 0x2163      |        8547 |
|     198 | 0x2164      |        8548 |
|     199 | 0x2165      |        8549 |
|     200 | 0x2166      |        8550 |
|     201 | 0x2167      |        8551 |
|     202 | 0x2168      |        8552 |
|     203 | 0x2169      |        8553 |
|     204 | 0x216A      |        8554 |
|     205 | 0x007F      |         127 |
|     206 | 0x4C4A      |       19530 |
|     207 | 0xFFFF131F  |  4294906655 |
|     208 | 0x0159      |         345 |
|     209 | 0x00F4      |         244 |
|     210 | 0x20DC      |        8412 |
|     211 | 0x20DA      |        8410 |
|     212 | 0x20DB      |        8411 |
|     213 | 0x20DD      |        8413 |
|     214 | 0x20DE      |        8414 |
|     215 | 0x20DF      |        8415 |
|     216 | 0x20E0      |        8416 |
|     217 | 0x20E1      |        8417 |
|     218 | 0x20E2      |        8418 |
|     219 | 0x20E3      |        8419 |
|     220 | 0x20E4      |        8420 |
|     221 | 0x20E5      |        8421 |
|     222 | 0x0002      |           2 |
|     223 | 0x9D18      |       40216 |
|     224 | 0xFFFFBA09  |  4294949385 |
|     225 | 0x01AA      |         426 |
|     226 | 0x8F6E      |       36718 |
|     227 | 0xFFFFC210  |  4294951440 |
|     228 | 0x00D5      |         213 |
|     229 | 0x8D5F      |       36191 |
|     230 | 0xFFFFC2FE  |  4294951678 |
|     231 | 0x091A      |        2330 |
|     232 | 0x9A5A      |       39514 |
|     233 | 0xFFFFBBF3  |  4294949875 |
|     234 | 0x0902      |        2306 |
|     235 | 0x1BFF      |        7167 |
|     236 | 0x5374      |       21364 |
|     237 | 0xFFFF0EA8  |  4294905512 |
|     238 | 0x0921      |        2337 |
|     239 | 0x0091      |         145 |
|     240 | 0x1C00      |        7168 |
|     241 | 0x1C01      |        7169 |
|     242 | 0x1C1B      |        7195 |
|     243 | 0x1C02      |        7170 |
|     244 | 0x1C03      |        7171 |
|     245 | 0x1C04      |        7172 |
|     246 | 0x1C05      |        7173 |
|     247 | 0x1C06      |        7174 |
|     248 | 0x1C07      |        7175 |
|     249 | 0x1C08      |        7176 |
|     250 | 0x1C09      |        7177 |
|     251 | 0x1C0A      |        7178 |
|     252 | 0x1C0B      |        7179 |
|     253 | 0x1C0C      |        7180 |
|     254 | 0x1C0D      |        7181 |
|     255 | 0x1C0E      |        7182 |
|     256 | 0x1C0F      |        7183 |
|     257 | 0x1C10      |        7184 |
|     258 | 0x1C11      |        7185 |
|     259 | 0x1C12      |        7186 |
|     260 | 0x1C14      |        7188 |
|     261 | 0x1C13      |        7187 |
|     262 | 0x1C15      |        7189 |
|     263 | 0x1C16      |        7190 |
|     264 | 0x1C17      |        7191 |
|     265 | 0x1C18      |        7192 |
|     266 | 0x1C19      |        7193 |
|     267 | 0x0096      |         150 |
|     268 | 0x4D2B      |       19755 |
|     269 | 0xFFFF1EE0  |  4294909664 |
|     270 | 0x012F      |         303 |
|     271 | 0x1C25      |        7205 |
|     272 | 0x1C26      |        7206 |
|     273 | 0x1C27      |        7207 |
|     274 | 0x1C28      |        7208 |
|     275 | 0x0A73      |        2675 |
|     276 | 0x1C29      |        7209 |
|     277 | 0x1C2A      |        7210 |
|     278 | 0x1C2B      |        7211 |
|     279 | 0x1C2C      |        7212 |
|     280 | 0x1C2D      |        7213 |
|     281 | 0x1C2E      |        7214 |
|     282 | 0x1C2F      |        7215 |
|     283 | 0x1C30      |        7216 |
|     284 | 0x1C31      |        7217 |
|     285 | 0x1C32      |        7218 |
|     286 | 0x01CE      |         462 |
|     287 | 0xFFFFC0FF  |  4294951167 |
|     288 | 0xFFFF1586  |  4294907270 |
|     289 | 0xFFFFFF9C  |  4294967196 |
|     290 | 0x07AE      |        1966 |
|     291 | 0x1D13      |        7443 |
|     292 | 0x1D14      |        7444 |
|     293 | 0x1D15      |        7445 |
|     294 | 0x1D16      |        7446 |
|     295 | 0x1D17      |        7447 |
|     296 | 0x1D18      |        7448 |
|     297 | 0x1D19      |        7449 |
|     298 | 0x1D1A      |        7450 |
|     299 | 0x1D1B      |        7451 |
|     300 | 0x1D1C      |        7452 |
|     301 | 0x1D1D      |        7453 |
|     302 | 0x1D1E      |        7454 |
|     303 | 0x0999      |        2457 |
|     304 | 0x1D1F      |        7455 |
|     305 | 0x01D1      |         465 |
|     306 | 0x1C72      |        7282 |
|     307 | 0x1C73      |        7283 |
|     308 | 0x1C74      |        7284 |
|     309 | 0xFFFF2086  |  4294910086 |
|     310 | 0xFFFDD873  |  4294826099 |
|     311 | 0xFFFFFF93  |  4294967187 |
|     312 | 0x0C5C      |        3164 |
|     313 | 0x1C75      |        7285 |
|     314 | 0x1C76      |        7286 |
|     315 | 0x1C77      |        7287 |
|     316 | 0x1C78      |        7288 |
|     317 | 0x1C79      |        7289 |
|     318 | 0x1C7A      |        7290 |
|     319 | 0x1C7B      |        7291 |
|     320 | 0x1C7C      |        7292 |
|     321 | 0x1C7D      |        7293 |
|     322 | 0x1C7E      |        7294 |
|     323 | 0x1C7F      |        7295 |
|     324 | 0x1C80      |        7296 |
|     325 | 0x0071      |         113 |
|     326 | 0x1C87      |        7303 |
|     327 | 0x1C88      |        7304 |
|     328 | 0x1C89      |        7305 |
|     329 | 0x1C8A      |        7306 |
|     330 | 0x1C8B      |        7307 |
|     331 | 0x1C8C      |        7308 |
|     332 | 0x0039      |          57 |
|     333 | 0xFFFF11EF  |  4294906351 |
|     334 | 0xFFFDDA23  |  4294826531 |
|     335 | 0x08E1      |        2273 |
|     336 | 0x1C8E      |        7310 |
|     337 | 0x1C8F      |        7311 |
|     338 | 0x1C90      |        7312 |
|     339 | 0x1C91      |        7313 |
|     340 | 0x1C92      |        7314 |
|     341 | 0x1C93      |        7315 |
|     342 | 0x1C94      |        7316 |
|     343 | 0x1C95      |        7317 |
|     344 | 0x1C96      |        7318 |
|     345 | 0x1C97      |        7319 |
|     346 | 0x1C98      |        7320 |
|     347 | 0x1C99      |        7321 |
|     348 | 0x1C9B      |        7323 |
|     349 | 0x1C9C      |        7324 |
|     350 | 0x1C9D      |        7325 |
|     351 | 0x1C9E      |        7326 |
|     352 | 0x1C9F      |        7327 |
|     353 | 0x1CA0      |        7328 |
|     354 | 0x1CA1      |        7329 |
|     355 | 0x1CA3      |        7331 |
|     356 | 0x009F      |         159 |
|     357 | 0xFFFF10C9  |  4294906057 |
|     358 | 0xFFFDDA78  |  4294826616 |
|     359 | 0x08DB      |        2267 |
|     360 | 0x1CB4      |        7348 |
|     361 | 0x1CB5      |        7349 |
|     362 | 0x1CB6      |        7350 |
|     363 | 0x1CB7      |        7351 |
|     364 | 0xFFFF1843  |  4294907971 |
|     365 | 0xFFFDE545  |  4294829381 |
|     366 | 0x09C0      |        2496 |
|     367 | 0x1CB8      |        7352 |
|     368 | 0x1CB9      |        7353 |
|     369 | 0x1CBA      |        7354 |
|     370 | 0x1CBB      |        7355 |
|     371 | 0x1CBC      |        7356 |
|     372 | 0x1CBD      |        7357 |
|     373 | 0x1CBE      |        7358 |
|     374 | 0x1CBF      |        7359 |
|     375 | 0x1CC0      |        7360 |
|     376 | 0x1CC1      |        7361 |
|     377 | 0x1CC2      |        7362 |
|     378 | 0x1CC3      |        7363 |
|     379 | 0x1CC4      |        7364 |
|     380 | 0x1CC5      |        7365 |
|     381 | 0x1CC6      |        7366 |
|     382 | 0x1CC7      |        7367 |
|     383 | 0x1CC8      |        7368 |
|     384 | 0x1CC9      |        7369 |
|     385 | 0xFFFF17A2  |  4294907810 |
|     386 | 0xFFFDE174  |  4294828404 |
|     387 | 0x0D93      |        3475 |
|     388 | 0x1CCA      |        7370 |
|     389 | 0x1CCB      |        7371 |
|     390 | 0x1CCC      |        7372 |
|     391 | 0x1CCD      |        7373 |
|     392 | 0x1CCE      |        7374 |
|     393 | 0x1CCF      |        7375 |
|     394 | 0x1CD0      |        7376 |
|     395 | 0x1CD1      |        7377 |
|     396 | 0x1CD2      |        7378 |
|     397 | 0x1CD3      |        7379 |
|     398 | 0x1CD4      |        7380 |
|     399 | 0x1CD5      |        7381 |
|     400 | 0x00D2      |         210 |
|     401 | 0x1CD6      |        7382 |
|     402 | 0x1CD7      |        7383 |
|     403 | 0x1CD8      |        7384 |
|     404 | 0x1CD9      |        7385 |
|     405 | 0x4875      |       18549 |
|     406 | 0xFFFF35B2  |  4294915506 |
|     407 | 0x0F3C      |        3900 |
|     408 | 0x04DF      |        1247 |
|     409 | 0x4B24      |       19236 |
|     410 | 0xFFFF2037  |  4294910007 |
|     411 | 0x0109      |         265 |
|     412 | 0xFFFEB6ED  |  4294883053 |
|     413 | 0xFFFD70EB  |  4294799595 |
|     414 | 0xFFFFE82C  |  4294961196 |
|     415 | 0x012B      |         299 |
|     416 | 0xFFFEC99B  |  4294887835 |
|     417 | 0xFFFD6B02  |  4294798082 |
|     418 | 0x0EA6      |        3750 |
|     419 | 0xFFFEC0C7  |  4294885575 |
|     420 | 0xFFFD6B78  |  4294798200 |
|     421 | 0x0115      |         277 |
|     422 | 0xFFFEBD8D  |  4294884749 |
|     423 | 0xFFFD6A60  |  4294797920 |
|     424 | 0xFFFFE815  |  4294961173 |
|     425 | 0x01CF      |         463 |
|     426 | 0xFFFF940C  |  4294939660 |
|     427 | 0xFFFDE23E  |  4294828606 |
|     428 | 0x157B      |        5499 |
|     429 | 0x0D24      |        3364 |
|     430 | 0x1D25      |        7461 |
|     431 | 0x1D26      |        7462 |
|     432 | 0x1D27      |        7463 |
|     433 | 0x1D28      |        7464 |
|     434 | 0x1D29      |        7465 |
|     435 | 0x1D2A      |        7466 |
|     436 | 0x1D2B      |        7467 |
|     437 | 0x1D2C      |        7468 |
|     438 | 0x1D2D      |        7469 |
|     439 | 0x1D2E      |        7470 |
|     440 | 0x1D2F      |        7471 |
|     441 | 0x1D30      |        7472 |
|     442 | 0x1D31      |        7473 |
|     443 | 0x1D32      |        7474 |
|     444 | 0x1D33      |        7475 |
|     445 | 0x1D34      |        7476 |
|     446 | 0x1D35      |        7477 |
|     447 | 0x1D36      |        7478 |
|     448 | 0x1D37      |        7479 |
|     449 | 0x1D38      |        7480 |
|     450 | 0x1D39      |        7481 |
|     451 | 0x1D3A      |        7482 |
|     452 | 0x1D3B      |        7483 |
|     453 | 0x1D3C      |        7484 |
|     454 | 0x1D3D      |        7485 |
|     455 | 0x1D3E      |        7486 |
|     456 | 0x1D3F      |        7487 |
|     457 | 0x07D6      |        2006 |
|     458 | 0x1D40      |        7488 |
|     459 | 0x1D41      |        7489 |
|     460 | 0x1D42      |        7490 |
|     461 | 0x1D43      |        7491 |
|     462 | 0xFFFF929A  |  4294939290 |
|     463 | 0xFFFDDF8C  |  4294827916 |
|     464 | 0x0D78      |        3448 |
|     465 | 0x1C33      |        7219 |
|     466 | 0x008C      |         140 |
|     467 | 0x1C34      |        7220 |
|     468 | 0x1C35      |        7221 |
|     469 | 0x1C36      |        7222 |
|     470 | 0x1C37      |        7223 |
|     471 | 0x1C38      |        7224 |
|     472 | 0x1C39      |        7225 |
|     473 | 0x1C3A      |        7226 |
|     474 | 0x0800      |        2048 |
|     475 | 0x03EE      |        1006 |
|     476 | 0x1C3B      |        7227 |
|     477 | 0x1C3C      |        7228 |
|     478 | 0x1C3D      |        7229 |
|     479 | 0x1C3E      |        7230 |
|     480 | 0x1C3F      |        7231 |
|     481 | 0x1C40      |        7232 |
|     482 | 0x1C41      |        7233 |
|     483 | 0x022D      |         557 |
|     484 | 0x022C      |         556 |
|     485 | 0x1D46      |        7494 |
|     486 | 0x1D47      |        7495 |
|     487 | 0x1D48      |        7496 |
|     488 | 0x1D49      |        7497 |
|     489 | 0x1D4A      |        7498 |
|     490 | 0x1D4C      |        7500 |
|     491 | 0x1D4D      |        7501 |
|     492 | 0x1D4E      |        7502 |
|     493 | 0x1D4B      |        7499 |
|     494 | 0xFFFFEF68  |  4294963048 |
|     495 | 0xFFFF8DCA  |  4294938058 |
|     496 | 0xFFFFE890  |  4294961296 |
|     497 | 0x0147      |         327 |
|     498 | 0x1D51      |        7505 |
|     499 | 0x1D52      |        7506 |
|     500 | 0x1D53      |        7507 |
|     501 | 0x1D54      |        7508 |
|     502 | 0x1D55      |        7509 |
|     503 | 0x1D56      |        7510 |
|     504 | 0x1D57      |        7511 |
|     505 | 0x1D58      |        7512 |
|     506 | 0x1D59      |        7513 |
|     507 | 0x1D5A      |        7514 |
|     508 | 0x1D5B      |        7515 |
|     509 | 0x1D5C      |        7516 |
|     510 | 0x1D5D      |        7517 |
|     511 | 0x1D5E      |        7518 |
|     512 | 0xFFFFCE7F  |  4294954623 |
|     513 | 0xFFFF58E2  |  4294924514 |
|     514 | 0x0121      |         289 |
|     515 | 0x1D8B      |        7563 |
|     516 | 0x1D8C      |        7564 |
|     517 | 0x1D8D      |        7565 |
|     518 | 0x1D8E      |        7566 |
|     519 | 0x1D8F      |        7567 |
|     520 | 0x1D90      |        7568 |
|     521 | 0x1D91      |        7569 |
|     522 | 0x1D92      |        7570 |
|     523 | 0x1D93      |        7571 |
|     524 | 0x1D94      |        7572 |
|     525 | 0x1D95      |        7573 |
|     526 | 0x1D96      |        7574 |
|     527 | 0x4F9A      |       20378 |
|     528 | 0xFFFFEDA7  |  4294962599 |
|     529 | 0x0D68      |        3432 |
|     530 | 0x5920      |       22816 |
|     531 | 0x042B      |        1067 |
|     532 | 0xFFFEAF29  |  4294881065 |
|     533 | 0xFFFCF598  |  4294768024 |
|     534 | 0x0063      |          99 |
|     535 | 0x0138      |         312 |
|     536 | 0x00CA      |         202 |
|     537 | 0xFFFEB624  |  4294882852 |
|     538 | 0xFFFCF28B  |  4294767243 |
|     539 | 0xFFFEB66C  |  4294882924 |
|     540 | 0xFFFCF45A  |  4294767706 |
|     541 | 0xFFFEA566  |  4294878566 |
|     542 | 0xFFFCE613  |  4294764051 |
|     543 | 0x0101      |         257 |
|     544 | 0xFFFEAC82  |  4294880386 |
|     545 | 0xFFFCE246  |  4294763078 |
|     546 | 0xFFFEAC9A  |  4294880410 |
|     547 | 0xFFFCE50D  |  4294763789 |
|     548 | 0x001B      |          27 |
|     549 | 0xFFFEBF64  |  4294885220 |
|     550 | 0xFFFCED46  |  4294765894 |
|     551 | 0x0529      |        1321 |
|     552 | 0xFFFEACCC  |  4294880460 |
|     553 | 0xFFFCC943  |  4294756675 |
|     554 | 0x0050      |          80 |
|     555 | 0xFFFEA428  |  4294878248 |
|     556 | 0xFFFCB944  |  4294752580 |
|     557 | 0x5348      |       21320 |
|     558 | 0xFFFFF41A  |  4294964250 |
|     559 | 0x0D1D      |        3357 |
|     560 | 0x54E9      |       21737 |
|     561 | 0x099C      |        2460 |
|     562 | 0x0CA2      |        3234 |
|     563 | 0x53D8      |       21464 |
|     564 | 0x0700      |        1792 |
|     565 | 0x4DA9      |       19881 |
|     566 | 0xFFFFF8EB  |  4294965483 |
|     567 | 0xFFFFFF26  |  4294967078 |
|     568 | 0xFFFEDF78  |  4294893432 |
|     569 | 0xFFFE7D42  |  4294868290 |
|     570 | 0x170D      |        5901 |
|     571 | 0x08A7      |        2215 |
|     572 | 0xFFFF54B8  |  4294923448 |
|     573 | 0xFFFDF282  |  4294832770 |
|     574 | 0x157A      |        5498 |
|     575 | 0x0723      |        1827 |
|     576 | 0xFFFF1CEF  |  4294909167 |
|     577 | 0xFFFE5285  |  4294857349 |
|     578 | 0x0395      |         917 |
|     579 | 0xFFFF5657  |  4294923863 |
|     580 | 0xFFFE42B6  |  4294853302 |
|     581 | 0x0179      |         377 |
|     582 | 0xFFFF5C3C  |  4294925372 |
|     583 | 0xFFFE3EEB  |  4294852331 |
|     584 | 0xFFFF67C6  |  4294928326 |
|     585 | 0xFFFE387B  |  4294850683 |
|     586 | 0xFFFFE819  |  4294961177 |
|     587 | 0x0236      |         566 |
|     588 | 0xFFFF204C  |  4294910028 |
|     589 | 0xFFFE597C  |  4294859132 |
|     590 | 0x0A0C      |        2572 |
|     591 | 0xFFFF262F  |  4294911535 |
|     592 | 0xFFFE52C3  |  4294857411 |
|     593 | 0xFFFF64CA  |  4294927562 |
|     594 | 0xFFFE29BD  |  4294846909 |
|     595 | 0xFFFEB66D  |  4294882925 |
|     596 | 0xFFFE226A  |  4294845034 |
|     597 | 0x0A7A      |        2682 |
|     598 | 0x20F5      |        8437 |
|     599 | 0x4B89      |       19337 |
|     600 | 0xFFFF148B  |  4294907019 |
|     601 | 0x0178      |         376 |
|     602 | 0x0584      |        1412 |
|     603 | 0x20F6      |        8438 |
|     604 | 0x20F7      |        8439 |
|     605 | 0x0AE1      |        2785 |
|     606 | 0x20F8      |        8440 |
|     607 | 0x20F9      |        8441 |
|     608 | 0x20FA      |        8442 |
|     609 | 0x20FB      |        8443 |
|     610 | 0x20FC      |        8444 |
|     611 | 0x0012      |          18 |
|     612 | 0x1AC6      |        6854 |
|     613 | 0xFEF4      |       65268 |
|     614 | 0x07D0      |        2000 |
|     615 | 0x0EE0      |        3808 |
|     616 | 0x2565      |        9573 |
|     617 | 0x105EB     |       67051 |
|     618 | 0x07CF      |        1999 |
|     619 | 0x20FD      |        8445 |
|     620 | 0x20FE      |        8446 |
|     621 | 0x20FF      |        8447 |
|     622 | 0x2100      |        8448 |
|     623 | 0x2101      |        8449 |
|     624 | 0x2102      |        8450 |
|     625 | 0x2103      |        8451 |
|     626 | 0x2104      |        8452 |
|     627 | 0x2105      |        8453 |
|     628 | 0x2106      |        8454 |
|     629 | 0x2107      |        8455 |
|     630 | 0x2108      |        8456 |
|     631 | 0x2109      |        8457 |
|     632 | 0x210A      |        8458 |
|     633 | 0x210B      |        8459 |
|     634 | 0x210C      |        8460 |
|     635 | 0x210D      |        8461 |
|     636 | 0x210E      |        8462 |
|     637 | 0x210F      |        8463 |
|     638 | 0x2110      |        8464 |
|     639 | 0x2111      |        8465 |
|     640 | 0x2112      |        8466 |
|     641 | 0x01C8      |         456 |
|     642 | 0x938B      |       37771 |
|     643 | 0xFFFF8894  |  4294936724 |
|     644 | 0x0A5A      |        2650 |
|     645 | 0x054A      |        1354 |
|     646 | 0x8EA4      |       36516 |
|     647 | 0xFFFF7FC8  |  4294934472 |
|     648 | 0x8851      |       34897 |
|     649 | 0xFFFF7508  |  4294931720 |
|     650 | 0x837B      |       33659 |
|     651 | 0xFFFF6BCA  |  4294929354 |
|     652 | 0x82DA      |       33498 |
|     653 | 0xFFFF63AD  |  4294927277 |
|     654 | 0x2113      |        8467 |
|     655 | 0x2114      |        8468 |
|     656 | 0x2115      |        8469 |
|     657 | 0x2116      |        8470 |
|     658 | 0x2117      |        8471 |
|     659 | 0x2118      |        8472 |
|     660 | 0x2119      |        8473 |
|     661 | 0x211A      |        8474 |
|     662 | 0x211B      |        8475 |
|     663 | 0x211C      |        8476 |
|     664 | 0x211D      |        8477 |
|     665 | 0x211E      |        8478 |
|     666 | 0x211F      |        8479 |
|     667 | 0x2120      |        8480 |
|     668 | 0x2121      |        8481 |
|     669 | 0x2122      |        8482 |
|     670 | 0x2123      |        8483 |
|     671 | 0x2124      |        8484 |
|     672 | 0x2125      |        8485 |
|     673 | 0x2126      |        8486 |
|     674 | 0x0B85      |        2949 |
|     675 | 0x2127      |        8487 |
|     676 | 0x2128      |        8488 |
|     677 | 0x2129      |        8489 |
|     678 | 0x212A      |        8490 |
|     679 | 0x212B      |        8491 |
|     680 | 0x212C      |        8492 |
|     681 | 0x0D58      |        3416 |
|     682 | 0x212D      |        8493 |
|     683 | 0x212E      |        8494 |
|     684 | 0x212F      |        8495 |
|     685 | 0x2130      |        8496 |
|     686 | 0x2131      |        8497 |
|     687 | 0x2132      |        8498 |
|     688 | 0x2133      |        8499 |
|     689 | 0x81CC      |       33228 |
|     690 | 0xFFFF5D16  |  4294925590 |
|     691 | 0x03A3      |         931 |
|     692 | 0x3382      |       13186 |
|     693 | 0xA7F8      |       43000 |
|     694 | 0xFFFF4C50  |  4294921296 |
|     695 | 0x0FA0      |        4000 |
|     696 | 0x2187      |        8583 |
|     697 | 0x2188      |        8584 |
|     698 | 0x2189      |        8585 |
|     699 | 0x218A      |        8586 |
|     700 | 0x218B      |        8587 |
|     701 | 0x218C      |        8588 |
|     702 | 0x218D      |        8589 |
|     703 | 0x05F6      |        1526 |
|     704 | 0x9858      |       39000 |
|     705 | 0xFFFFBD98  |  4294950296 |
|     706 | 0x03E8      |        1000 |
|     707 | 0x218E      |        8590 |
|     708 | 0x218F      |        8591 |
|     709 | 0x2190      |        8592 |
|     710 | 0x0029      |          41 |
|     711 | 0x2191      |        8593 |
|     712 | 0x2192      |        8594 |
|     713 | 0x0031      |          49 |
|     714 | 0x2193      |        8595 |
|     715 | 0x2194      |        8596 |
|     716 | 0x2195      |        8597 |
|     717 | 0x0011      |          17 |
|     718 | 0xA410      |       42000 |
|     719 | 0xFFFFB5C8  |  4294948296 |
|     720 | 0x2196      |        8598 |
|     721 | 0x9E98      |       40600 |
|     722 | 0x2197      |        8599 |
|     723 | 0x2198      |        8600 |
|     724 | 0x2199      |        8601 |
|     725 | 0x219A      |        8602 |
|     726 | 0x219B      |        8603 |
|     727 | 0x219C      |        8604 |
|     728 | 0x05F7      |        1527 |
|     729 | 0xA028      |       41000 |
|     730 | 0xFFFFB9B0  |  4294949296 |
|     731 | 0x219D      |        8605 |
|     732 | 0x219E      |        8606 |
|     733 | 0x002A      |          42 |
|     734 | 0x219F      |        8607 |
|     735 | 0x21A0      |        8608 |
|     736 | 0x21A1      |        8609 |
|     737 | 0x21A2      |        8610 |
|     738 | 0x21A3      |        8611 |
|     739 | 0x21A4      |        8612 |
|     740 | 0x21A5      |        8613 |
|     741 | 0x05F5      |        1525 |
|     742 | 0x3392      |       13202 |
|     743 | 0x21A6      |        8614 |
|     744 | 0x21A7      |        8615 |
|     745 | 0x21A8      |        8616 |
|     746 | 0x21A9      |        8617 |
|     747 | 0x21AA      |        8618 |
|     748 | 0x0022      |          34 |
|     749 | 0x21AB      |        8619 |
|     750 | 0x21AC      |        8620 |
|     751 | 0x21AD      |        8621 |
|     752 | 0x21AE      |        8622 |
|     753 | 0x21AF      |        8623 |
|     754 | 0x21B0      |        8624 |
|     755 | 0x0032      |          50 |
|     756 | 0x21B1      |        8625 |
|     757 | 0xA53C      |       42300 |
|     758 | 0xABE0      |       44000 |
|     759 | 0xFFFFB3D4  |  4294947796 |
|     760 | 0x21B2      |        8626 |
|     761 | 0xFFFFFCE0  |  4294966496 |
|     762 | 0xA730      |       42800 |
|     763 | 0x21B3      |        8627 |
|     764 | 0x21B4      |        8628 |
|     765 | 0x21B5      |        8629 |
|     766 | 0xFFFF92D7  |  4294939351 |
|     767 | 0xFFFDE021  |  4294828065 |
|     768 | 0x0D3A      |        3386 |
|     769 | 0xFFFF9551  |  4294939985 |
|     770 | 0xFFFDDE3E  |  4294827582 |
|     771 | 0x0C97      |        3223 |
|     772 | 0xFFFF78A3  |  4294932643 |
|     773 | 0xFFFF133B  |  4294906683 |
|     774 | 0x4FD5      |       20437 |
|     775 | 0xFFFFEB2C  |  4294961964 |
|     776 | 0x0F2D      |        3885 |
|     777 | 0x0053      |          83 |
|     778 | 0x00B6      |         182 |
|     779 | 0x5460      |       21600 |
|     780 | 0xFFFFF81E  |  4294965278 |
|     781 | 0x5CBB      |       23739 |
|     782 | 0x03CC      |         972 |
|     783 | 0x2362      |        9058 |
|     784 | 0x2363      |        9059 |
|     785 | 0x2364      |        9060 |
|     786 | 0x2365      |        9061 |
|     787 | 0x0004      |           4 |
|     788 | 0x2366      |        9062 |
|     789 | 0x2369      |        9065 |
|     790 | 0x236A      |        9066 |
|     791 | 0x236B      |        9067 |
|     792 | 0x236C      |        9068 |
|     793 | 0x0009      |           9 |
|     794 | 0x236D      |        9069 |
|     795 | 0x2367      |        9063 |
|     796 | 0x000B      |          11 |
|     797 | 0x2368      |        9064 |
|     798 | 0x236E      |        9070 |
|     799 | 0x236F      |        9071 |
|     800 | 0x2370      |        9072 |
|     801 | 0x2371      |        9073 |
|     802 | 0x2372      |        9074 |
|     803 | 0x2375      |        9077 |
|     804 | 0x2376      |        9078 |
|     805 | 0x2377      |        9079 |
|     806 | 0x2378      |        9080 |
|     807 | 0x2379      |        9081 |
|     808 | 0x0020      |          32 |
|     809 | 0x237B      |        9083 |
|     810 | 0x237C      |        9084 |
|     811 | 0x237D      |        9085 |
|     812 | 0x237E      |        9086 |
|     813 | 0x2381      |        9089 |
|     814 | 0x2382      |        9090 |
|     815 | 0x2383      |        9091 |
|     816 | 0x2384      |        9092 |
|     817 | 0x2385      |        9093 |
|     818 | 0x237F      |        9087 |
|     819 | 0x2380      |        9088 |
|     820 | 0x2386      |        9094 |
|     821 | 0x2387      |        9095 |
|     822 | 0x2388      |        9096 |
|     823 | 0x2389      |        9097 |
|     824 | 0x238A      |        9098 |
|     825 | 0x238D      |        9101 |
|     826 | 0x238E      |        9102 |
|     827 | 0x238F      |        9103 |
|     828 | 0x2390      |        9104 |
|     829 | 0x2391      |        9105 |
|     830 | 0x238B      |        9099 |
|     831 | 0x238C      |        9100 |
|     832 | 0x2392      |        9106 |
|     833 | 0x2393      |        9107 |
|     834 | 0x2394      |        9108 |
|     835 | 0x2395      |        9109 |
|     836 | 0x2396      |        9110 |
|     837 | 0x2399      |        9113 |
|     838 | 0x239A      |        9114 |
|     839 | 0x239B      |        9115 |
|     840 | 0x239C      |        9116 |
|     841 | 0x239D      |        9117 |
|     842 | 0x2397      |        9111 |
|     843 | 0x2398      |        9112 |
|     844 | 0x239E      |        9118 |
|     845 | 0x0030      |          48 |
|     846 | 0x239F      |        9119 |
|     847 | 0x23A0      |        9120 |
|     848 | 0x23A1      |        9121 |
|     849 | 0x00EE      |         238 |
|     850 | 0x018A      |         394 |
|     851 | 0x0097      |         151 |
|     852 | 0x0151      |         337 |
|     853 | 0x23A2      |        9122 |
|     854 | 0x23A3      |        9123 |
|     855 | 0x23A4      |        9124 |
|     856 | 0x23A5      |        9125 |
|     857 | 0x23A6      |        9126 |
|     858 | 0x23A7      |        9127 |
|     859 | 0x0033      |          51 |
|     860 | 0x23A8      |        9128 |
|     861 | 0x23A9      |        9129 |
|     862 | 0x23AA      |        9130 |
|     863 | 0x23AB      |        9131 |
|     864 | 0x23AC      |        9132 |
|     865 | 0x23AD      |        9133 |
|     866 | 0x23AE      |        9134 |
|     867 | 0x23AF      |        9135 |
|     868 | 0x23B0      |        9136 |
|     869 | 0x23B1      |        9137 |
|     870 | 0x23B2      |        9138 |
|     871 | 0x23B3      |        9139 |
|     872 | 0x001A      |          26 |
|     873 | 0x23B4      |        9140 |
|     874 | 0x23B5      |        9141 |
|     875 | 0x23B6      |        9142 |
|     876 | 0x23B7      |        9143 |
|     877 | 0x23B8      |        9144 |
|     878 | 0x23B9      |        9145 |
|     879 | 0x23BA      |        9146 |
|     880 | 0x23BB      |        9147 |
|     881 | 0x23BC      |        9148 |
|     882 | 0x23BD      |        9149 |
|     883 | 0x23BE      |        9150 |
|     884 | 0x23BF      |        9151 |
|     885 | 0x23C0      |        9152 |
|     886 | 0x23C1      |        9153 |
|     887 | 0x23C2      |        9154 |
|     888 | 0x23C3      |        9155 |
|     889 | 0x23C4      |        9156 |
|     890 | 0x23C5      |        9157 |
|     891 | 0x23C6      |        9158 |
|     892 | 0x23C7      |        9159 |
|     893 | 0x23C8      |        9160 |
|     894 | 0x23C9      |        9161 |
|     895 | 0x23CA      |        9162 |
|     896 | 0x23CB      |        9163 |
|     897 | 0x02E0      |         736 |
|     898 | 0x02E1      |         737 |
|     899 | 0x02E2      |         738 |
|     900 | 0x23CC      |        9164 |
|     901 | 0x025D      |         605 |
|     902 | 0x03FC      |        1020 |
|     903 | 0x03FD      |        1021 |
|     904 | 0x23CD      |        9165 |
|     905 | 0x23CE      |        9166 |
|     906 | 0x23CF      |        9167 |
|     907 | 0x0BA8      |        2984 |
|     908 | 0x23D0      |        9168 |
|     909 | 0x23D1      |        9169 |
|     910 | 0x23D2      |        9170 |
|     911 | 0x23D3      |        9171 |
|     912 | 0x23D4      |        9172 |
|     913 | 0x23D7      |        9175 |
|     914 | 0x23D8      |        9176 |
|     915 | 0x23D9      |        9177 |
|     916 | 0x23DA      |        9178 |
|     917 | 0x23DB      |        9179 |
|     918 | 0x23D5      |        9173 |
|     919 | 0x23D6      |        9174 |
|     920 | 0x23DC      |        9180 |
|     921 | 0x00AE      |         174 |
|     922 | 0x23DD      |        9181 |
|     923 | 0x23DE      |        9182 |
|     924 | 0x23DF      |        9183 |
|     925 | 0x23E0      |        9184 |
|     926 | 0x23E3      |        9187 |
|     927 | 0x23E4      |        9188 |
|     928 | 0x23E5      |        9189 |
|     929 | 0x23E6      |        9190 |
|     930 | 0x23E7      |        9191 |
|     931 | 0x23E1      |        9185 |
|     932 | 0x23E2      |        9186 |
|     933 | 0x23E8      |        9192 |
|     934 | 0x4D8C      |       19852 |
|     935 | 0xFFFFE97E  |  4294961534 |
|     936 | 0x0D43      |        3395 |
|     937 | 0x00B5      |         181 |
|     938 | 0x23E9      |        9193 |
|     939 | 0x23EA      |        9194 |
|     940 | 0x23EB      |        9195 |
|     941 | 0x23EC      |        9196 |
|     942 | 0x23EE      |        9198 |
|     943 | 0x0038      |          56 |
|     944 | 0x23EF      |        9199 |
|     945 | 0x23F0      |        9200 |
|     946 | 0x23F1      |        9201 |
|     947 | 0x23F2      |        9202 |
|     948 | 0x00AF      |         175 |
|     949 | 0x23F4      |        9204 |
|     950 | 0x0016      |          22 |
|     951 | 0x23F5      |        9205 |
|     952 | 0x23F6      |        9206 |
|     953 | 0x23F7      |        9207 |
|     954 | 0x23F8      |        9208 |
|     955 | 0x23F9      |        9209 |
|     956 | 0x23FA      |        9210 |
|     957 | 0x23FB      |        9211 |
|     958 | 0x23FC      |        9212 |
|     959 | 0x23FD      |        9213 |
|     960 | 0x23FE      |        9214 |
|     961 | 0x23FF      |        9215 |
|     962 | 0x2400      |        9216 |
|     963 | 0x2401      |        9217 |
|     964 | 0x0108      |         264 |
|     965 | 0x2402      |        9218 |
|     966 | 0x2403      |        9219 |
|     967 | 0x2404      |        9220 |
|     968 | 0x2405      |        9221 |
|     969 | 0x2406      |        9222 |
|     970 | 0x2407      |        9223 |
|     971 | 0x240A      |        9226 |
|     972 | 0x240B      |        9227 |
|     973 | 0x240C      |        9228 |
|     974 | 0x240D      |        9229 |
|     975 | 0x240E      |        9230 |
|     976 | 0x2408      |        9224 |
|     977 | 0x2409      |        9225 |
|     978 | 0x240F      |        9231 |
|     979 | 0x2410      |        9232 |
|     980 | 0x2411      |        9233 |
|     981 | 0x2412      |        9234 |
|     982 | 0x2413      |        9235 |
|     983 | 0x2416      |        9238 |
|     984 | 0x2417      |        9239 |
|     985 | 0x2418      |        9240 |
|     986 | 0x2419      |        9241 |
|     987 | 0x241A      |        9242 |
|     988 | 0x2414      |        9236 |
|     989 | 0x2415      |        9237 |
|     990 | 0x241B      |        9243 |
|     991 | 0x241C      |        9244 |
|     992 | 0x241D      |        9245 |
|     993 | 0x241E      |        9246 |
|     994 | 0x241F      |        9247 |
|     995 | 0x2422      |        9250 |
|     996 | 0x2423      |        9251 |
|     997 | 0x2424      |        9252 |
|     998 | 0x2425      |        9253 |
|     999 | 0x2426      |        9254 |
|    1000 | 0x2420      |        9248 |
|    1001 | 0x2421      |        9249 |
|    1002 | 0x2427      |        9255 |
|    1003 | 0x01E0      |         480 |
|    1004 | 0x2428      |        9256 |
|    1005 | 0x2429      |        9257 |
|    1006 | 0x242A      |        9258 |
|    1007 | 0xFFFF1B0D  |  4294908685 |
|    1008 | 0xFFFED979  |  4294891897 |
|    1009 | 0x176F      |        5999 |
|    1010 | 0x0B75      |        2933 |
|    1011 | 0x242B      |        9259 |
|    1012 | 0x242C      |        9260 |
|    1013 | 0x242D      |        9261 |
|    1014 | 0x242E      |        9262 |
|    1015 | 0x001D      |          29 |
|    1016 | 0x0027      |          39 |
|    1017 | 0x003B      |          59 |
|    1018 | 0x0045      |          69 |
|    1019 | 0x242F      |        9263 |
|    1020 | 0x2442      |        9282 |
|    1021 | 0x2454      |        9300 |
|    1022 | 0x2469      |        9321 |
|    1023 | 0x24A1      |        9377 |
|    1024 | 0x24B7      |        9399 |
|    1025 | 0x24C6      |        9414 |
|    1026 | 0x24D9      |        9433 |
|    1027 | 0x24EC      |        9452 |
|    1028 | 0x247B      |        9339 |
|    1029 | 0x248E      |        9358 |
|    1030 | 0x24FD      |        9469 |
|    1031 | 0x2430      |        9264 |
|    1032 | 0x2443      |        9283 |
|    1033 | 0x2455      |        9301 |
|    1034 | 0x246A      |        9322 |
|    1035 | 0x24A2      |        9378 |
|    1036 | 0x24B8      |        9400 |
|    1037 | 0x24C7      |        9415 |
|    1038 | 0x24DA      |        9434 |
|    1039 | 0x24ED      |        9453 |
|    1040 | 0x247C      |        9340 |
|    1041 | 0x248F      |        9359 |
|    1042 | 0x24FE      |        9470 |
|    1043 | 0x2431      |        9265 |
|    1044 | 0x2456      |        9302 |
|    1045 | 0x246B      |        9323 |
|    1046 | 0x24A3      |        9379 |
|    1047 | 0x24C8      |        9416 |
|    1048 | 0x24DB      |        9435 |
|    1049 | 0x24EE      |        9454 |
|    1050 | 0x247D      |        9341 |
|    1051 | 0x2490      |        9360 |
|    1052 | 0x24FF      |        9471 |
|    1053 | 0x2432      |        9266 |
|    1054 | 0x2444      |        9284 |
|    1055 | 0x246C      |        9324 |
|    1056 | 0x24A4      |        9380 |
|    1057 | 0x24C9      |        9417 |
|    1058 | 0x24DC      |        9436 |
|    1059 | 0x24EF      |        9455 |
|    1060 | 0x247E      |        9342 |
|    1061 | 0x2491      |        9361 |
|    1062 | 0x2500      |        9472 |
|    1063 | 0x2433      |        9267 |
|    1064 | 0x2445      |        9285 |
|    1065 | 0x2457      |        9303 |
|    1066 | 0x246D      |        9325 |
|    1067 | 0x24A5      |        9381 |
|    1068 | 0x24B9      |        9401 |
|    1069 | 0x24CA      |        9418 |
|    1070 | 0x24DD      |        9437 |
|    1071 | 0x24F0      |        9456 |
|    1072 | 0x247F      |        9343 |
|    1073 | 0x2492      |        9362 |
|    1074 | 0x2501      |        9473 |
|    1075 | 0x2434      |        9268 |
|    1076 | 0x2446      |        9286 |
|    1077 | 0x2458      |        9304 |
|    1078 | 0x246E      |        9326 |
|    1079 | 0x24A6      |        9382 |
|    1080 | 0x24BA      |        9402 |
|    1081 | 0x24CB      |        9419 |
|    1082 | 0x24DE      |        9438 |
|    1083 | 0x24F1      |        9457 |
|    1084 | 0x2480      |        9344 |
|    1085 | 0x2493      |        9363 |
|    1086 | 0x2502      |        9474 |
|    1087 | 0x2435      |        9269 |
|    1088 | 0x2447      |        9287 |
|    1089 | 0x2459      |        9305 |
|    1090 | 0x246F      |        9327 |
|    1091 | 0x24A7      |        9383 |
|    1092 | 0x24CC      |        9420 |
|    1093 | 0x24DF      |        9439 |
|    1094 | 0x24F2      |        9458 |
|    1095 | 0x2481      |        9345 |
|    1096 | 0x2494      |        9364 |
|    1097 | 0x2503      |        9475 |
|    1098 | 0x2436      |        9270 |
|    1099 | 0x2448      |        9288 |
|    1100 | 0x245A      |        9306 |
|    1101 | 0x2470      |        9328 |
|    1102 | 0x24A8      |        9384 |
|    1103 | 0x24BB      |        9403 |
|    1104 | 0x24CD      |        9421 |
|    1105 | 0x24E0      |        9440 |
|    1106 | 0x24F3      |        9459 |
|    1107 | 0x2482      |        9346 |
|    1108 | 0x2495      |        9365 |
|    1109 | 0x2504      |        9476 |
|    1110 | 0x2437      |        9271 |
|    1111 | 0x2449      |        9289 |
|    1112 | 0x245B      |        9307 |
|    1113 | 0x2471      |        9329 |
|    1114 | 0x24A9      |        9385 |
|    1115 | 0x24BC      |        9404 |
|    1116 | 0x24CF      |        9423 |
|    1117 | 0x24E1      |        9441 |
|    1118 | 0x24F4      |        9460 |
|    1119 | 0x2483      |        9347 |
|    1120 | 0x2496      |        9366 |
|    1121 | 0x2438      |        9272 |
|    1122 | 0x244A      |        9290 |
|    1123 | 0x245C      |        9308 |
|    1124 | 0x2472      |        9330 |
|    1125 | 0x24AA      |        9386 |
|    1126 | 0x24BD      |        9405 |
|    1127 | 0x24D0      |        9424 |
|    1128 | 0x24E2      |        9442 |
|    1129 | 0x2484      |        9348 |
|    1130 | 0x2497      |        9367 |
|    1131 | 0x2439      |        9273 |
|    1132 | 0x244B      |        9291 |
|    1133 | 0x245D      |        9309 |
|    1134 | 0x2473      |        9331 |
|    1135 | 0x24AB      |        9387 |
|    1136 | 0x24BE      |        9406 |
|    1137 | 0x24D1      |        9425 |
|    1138 | 0x24E3      |        9443 |
|    1139 | 0x24F5      |        9461 |
|    1140 | 0x2485      |        9349 |
|    1141 | 0x2498      |        9368 |
|    1142 | 0x2505      |        9477 |
|    1143 | 0x243A      |        9274 |
|    1144 | 0x244C      |        9292 |
|    1145 | 0x245E      |        9310 |
|    1146 | 0x2474      |        9332 |
|    1147 | 0x24AC      |        9388 |
|    1148 | 0x24BF      |        9407 |
|    1149 | 0x24D2      |        9426 |
|    1150 | 0x24E4      |        9444 |
|    1151 | 0x24F6      |        9462 |
|    1152 | 0x2486      |        9350 |
|    1153 | 0x2499      |        9369 |
|    1154 | 0x2506      |        9478 |
|    1155 | 0x243B      |        9275 |
|    1156 | 0x244D      |        9293 |
|    1157 | 0x245F      |        9311 |
|    1158 | 0x24AD      |        9389 |
|    1159 | 0x24C0      |        9408 |
|    1160 | 0x24E5      |        9445 |
|    1161 | 0x24F7      |        9463 |
|    1162 | 0x2487      |        9351 |
|    1163 | 0x249A      |        9370 |
|    1164 | 0x2507      |        9479 |
|    1165 | 0x243C      |        9276 |
|    1166 | 0x244E      |        9294 |
|    1167 | 0x2460      |        9312 |
|    1168 | 0x2475      |        9333 |
|    1169 | 0x24AE      |        9390 |
|    1170 | 0x24C1      |        9409 |
|    1171 | 0x24D3      |        9427 |
|    1172 | 0x24E6      |        9446 |
|    1173 | 0x24F8      |        9464 |
|    1174 | 0x2488      |        9352 |
|    1175 | 0x249B      |        9371 |
|    1176 | 0x2508      |        9480 |
|    1177 | 0x243D      |        9277 |
|    1178 | 0x244F      |        9295 |
|    1179 | 0x2461      |        9313 |
|    1180 | 0x2476      |        9334 |
|    1181 | 0x24AF      |        9391 |
|    1182 | 0x24B0      |        9392 |
|    1183 | 0x24C2      |        9410 |
|    1184 | 0x24D4      |        9428 |
|    1185 | 0x24E7      |        9447 |
|    1186 | 0x24F9      |        9465 |
|    1187 | 0x2489      |        9353 |
|    1188 | 0x249C      |        9372 |
|    1189 | 0x2509      |        9481 |
|    1190 | 0x243E      |        9278 |
|    1191 | 0x2450      |        9296 |
|    1192 | 0x2462      |        9314 |
|    1193 | 0x2477      |        9335 |
|    1194 | 0x24B1      |        9393 |
|    1195 | 0x24B2      |        9394 |
|    1196 | 0x24B3      |        9395 |
|    1197 | 0x24C4      |        9412 |
|    1198 | 0x24D5      |        9429 |
|    1199 | 0x24E8      |        9448 |
|    1200 | 0x24FA      |        9466 |
|    1201 | 0x248A      |        9354 |
|    1202 | 0x249D      |        9373 |
|    1203 | 0x243F      |        9279 |
|    1204 | 0x2451      |        9297 |
|    1205 | 0x2463      |        9315 |
|    1206 | 0x2478      |        9336 |
|    1207 | 0x24B4      |        9396 |
|    1208 | 0x24D6      |        9430 |
|    1209 | 0x24E9      |        9449 |
|    1210 | 0x24FB      |        9467 |
|    1211 | 0x248B      |        9355 |
|    1212 | 0x249E      |        9374 |
|    1213 | 0x250A      |        9482 |
|    1214 | 0x2440      |        9280 |
|    1215 | 0x2452      |        9298 |
|    1216 | 0x2464      |        9316 |
|    1217 | 0x2465      |        9317 |
|    1218 | 0x2479      |        9337 |
|    1219 | 0x24B5      |        9397 |
|    1220 | 0x24C3      |        9411 |
|    1221 | 0x24D7      |        9431 |
|    1222 | 0x24EA      |        9450 |
|    1223 | 0x248C      |        9356 |
|    1224 | 0x249F      |        9375 |
|    1225 | 0x250B      |        9483 |
|    1226 | 0x2441      |        9281 |
|    1227 | 0x2453      |        9299 |
|    1228 | 0x2466      |        9318 |
|    1229 | 0x2467      |        9319 |
|    1230 | 0x2468      |        9320 |
|    1231 | 0x247A      |        9338 |
|    1232 | 0x24B6      |        9398 |
|    1233 | 0x24C5      |        9413 |
|    1234 | 0x24D8      |        9432 |
|    1235 | 0x24EB      |        9451 |
|    1236 | 0x24FC      |        9468 |
|    1237 | 0x248D      |        9357 |
|    1238 | 0x24A0      |        9376 |
|    1239 | 0x250C      |        9484 |
|    1240 | 0x250D      |        9485 |
|    1241 | 0x4333      |       17203 |
|    1242 | 0xFFFFED05  |  4294962437 |
|    1243 | 0x1556      |        5462 |
|    1244 | 0x0895      |        2197 |
|    1245 | 0x005F      |          95 |
|    1246 | 0x0069      |         105 |
|    1247 | 0x0052      |          82 |
|    1248 | 0x0057      |          87 |
|    1249 | 0x005C      |          92 |
|    1250 | 0x0059      |          89 |
|    1251 | 0x005D      |          93 |
|    1252 | 0x0061      |          97 |
|    1253 | 0x0060      |          96 |
|    1254 | 0x0017      |          23 |
|    1255 | 0x000E      |          14 |
|    1256 | 0x0018      |          24 |
|    1257 | 0x001F      |          31 |
|    1258 | 0x0010      |          16 |
|    1259 | 0x0015      |          21 |
|    1260 | 0x018D      |         397 |
|    1261 | 0x0175      |         373 |
|    1262 | 0x0170      |         368 |
|    1263 | 0x0171      |         369 |
|    1264 | 0x014C      |         332 |
|    1265 | 0x01C1      |         449 |
|    1266 | 0x027C      |         636 |
|    1267 | 0x027B      |         635 |
|    1268 | 0x027D      |         637 |
|    1269 | 0x02D3      |         723 |
|    1270 | 0x0321      |         801 |
|    1271 | 0x0326      |         806 |
|    1272 | 0x01E1      |         481 |
|    1273 | 0x0343      |         835 |
|    1274 | 0x0386      |         902 |
|    1275 | 0x0388      |         904 |
|    1276 | 0x0361      |         865 |
|    1277 | 0x0387      |         903 |
|    1278 | 0x038A      |         906 |
|    1279 | 0x003F      |          63 |
|    1280 | 0x0282      |         642 |
|    1281 | 0x0283      |         643 |
|    1282 | 0x0288      |         648 |
|    1283 | 0x0289      |         649 |
|    1284 | 0x028A      |         650 |
|    1285 | 0x028B      |         651 |
|    1286 | 0x029E      |         670 |
|    1287 | 0x0019      |          25 |
|    1288 | 0x00C6      |         198 |
|    1289 | 0x008E      |         142 |
|    1290 | 0x007A      |         122 |
|    1291 | 0x014B      |         331 |
|    1292 | 0x0148      |         328 |
|    1293 | 0x0166      |         358 |
|    1294 | 0x017A      |         378 |
|    1295 | 0x0182      |         386 |
|    1296 | 0x0183      |         387 |
|    1297 | 0x0192      |         402 |
|    1298 | 0x01DF      |         479 |
|    1299 | 0x01E9      |         489 |
|    1300 | 0x001C      |          28 |
|    1301 | 0x00E6      |         230 |
|    1302 | 0x00EB      |         235 |
|    1303 | 0x007E      |         126 |
|    1304 | 0x00E0      |         224 |
|    1305 | 0x00E9      |         233 |
|    1306 | 0x009E      |         158 |
|    1307 | 0x009D      |         157 |
|    1308 | 0x00E2      |         226 |
|    1309 | 0x00E1      |         225 |
|    1310 | 0x014F      |         335 |
|    1311 | 0x014E      |         334 |
|    1312 | 0x0167      |         359 |
|    1313 | 0x00E5      |         229 |
|    1314 | 0x0169      |         361 |
|    1315 | 0x016A      |         362 |
|    1316 | 0x0133      |         307 |
|    1317 | 0x0174      |         372 |
|    1318 | 0x018C      |         396 |
|    1319 | 0x0194      |         404 |
|    1320 | 0x0195      |         405 |
|    1321 | 0x0240      |         576 |
|    1322 | 0x0197      |         407 |
|    1323 | 0x0198      |         408 |
|    1324 | 0x01A3      |         419 |
|    1325 | 0x019E      |         414 |
|    1326 | 0x0246      |         582 |
|    1327 | 0x0247      |         583 |
|    1328 | 0x0248      |         584 |
|    1329 | 0x024B      |         587 |
|    1330 | 0x024A      |         586 |
|    1331 | 0x024F      |         591 |
|    1332 | 0x01C3      |         451 |
|    1333 | 0x01C4      |         452 |
|    1334 | 0x01EF      |         495 |
|    1335 | 0x01F0      |         496 |
|    1336 | 0x0095      |         149 |
|    1337 | 0x0073      |         115 |
|    1338 | 0x0034      |          52 |
|    1339 | 0x0024      |          36 |
|    1340 | 0x005E      |          94 |
|    1341 | 0x0072      |         114 |
|    1342 | 0x006C      |         108 |
|    1343 | 0x003A      |          58 |
|    1344 | 0x0035      |          53 |
|    1345 | 0x0085      |         133 |
|    1346 | 0x0081      |         129 |
|    1347 | 0x0023      |          35 |
|    1348 | 0x0082      |         130 |
|    1349 | 0x0036      |          54 |
|    1350 | 0x0083      |         131 |
|    1351 | 0x00A2      |         162 |
|    1352 | 0x0021      |          33 |
|    1353 | 0x0065      |         101 |
|    1354 | 0x0086      |         134 |
|    1355 | 0x0062      |          98 |
|    1356 | 0x008D      |         141 |
|    1357 | 0x0037      |          55 |
|    1358 | 0x008A      |         138 |
|    1359 | 0x008B      |         139 |
|    1360 | 0x002B      |          43 |
|    1361 | 0x0067      |         103 |
|    1362 | 0x00A1      |         161 |
|    1363 | 0x0066      |         102 |
|    1364 | 0x0075      |         117 |
|    1365 | 0x0068      |         104 |
|    1366 | 0x0077      |         119 |
|    1367 | 0x01FE      |         510 |
|    1368 | 0x00A4      |         164 |
|    1369 | 0x00A9      |         169 |
|    1370 | 0x00AC      |         172 |
|    1371 | 0x00B2      |         178 |
|    1372 | 0x00B0      |         176 |
|    1373 | 0x013D      |         317 |
|    1374 | 0x010C      |         268 |
|    1375 | 0x0100      |         256 |
|    1376 | 0x00FB      |         251 |
|    1377 | 0x00B8      |         184 |
|    1378 | 0x011C      |         284 |
|    1379 | 0x0041      |          65 |
|    1380 | 0x0042      |          66 |
|    1381 | 0x0160      |         352 |
|    1382 | 0x0043      |          67 |
|    1383 | 0x0048      |          72 |
|    1384 | 0x004B      |          75 |
|    1385 | 0x004C      |          76 |
|    1386 | 0x004D      |          77 |
|    1387 | 0x005B      |          91 |
|    1388 | 0x0058      |          88 |
|    1389 | 0x0054      |          84 |
|    1390 | 0x0161      |         353 |
|    1391 | 0x015C      |         348 |
|    1392 | 0x016D      |         365 |
|    1393 | 0x00C5      |         197 |
|    1394 | 0x00C3      |         195 |
|    1395 | 0x00C7      |         199 |
|    1396 | 0x015E      |         350 |
|    1397 | 0x00C4      |         196 |
|    1398 | 0x016E      |         366 |
|    1399 | 0x00D0      |         208 |
|    1400 | 0x00CD      |         205 |
|    1401 | 0x00D8      |         216 |
|    1402 | 0x00D6      |         214 |
|    1403 | 0x013B      |         315 |
|    1404 | 0x0136      |         310 |
|    1405 | 0x013A      |         314 |
|    1406 | 0x0137      |         311 |
|    1407 | 0x016F      |         367 |
|    1408 | 0x0139      |         313 |
|    1409 | 0x009B      |         155 |
|    1410 | 0x0099      |         153 |
|    1411 | 0x0093      |         147 |
|    1412 | 0x0092      |         146 |
|    1413 | 0x0098      |         152 |
|    1414 | 0x00E8      |         232 |
|    1415 | 0x00DD      |         221 |
|    1416 | 0x00F8      |         248 |
|    1417 | 0x00F1      |         241 |
|    1418 | 0x0124      |         292 |
|    1419 | 0x012E      |         302 |
|    1420 | 0x0129      |         297 |
|    1421 | 0x0122      |         290 |
|    1422 | 0x0132      |         306 |
|    1423 | 0x0126      |         294 |
|    1424 | 0x0155      |         341 |
|    1425 | 0x0025      |          37 |
|    1426 | 0x007D      |         125 |
|    1427 | 0x0079      |         121 |
|    1428 | 0x0074      |         116 |
|    1429 | 0x00EC      |         236 |
|    1430 | 0x019C      |         412 |
|    1431 | 0x0193      |         403 |
|    1432 | 0x01C6      |         454 |
|    1433 | 0x4BB4      |       19380 |
|    1434 | 0xFFFF1815  |  4294907925 |
|    1435 | 0x0250      |         592 |
|    1436 | 0x9002      |       36866 |
|    1437 | 0xFFFF546C  |  4294923372 |
|    1438 | 0x1016      |        4118 |
|    1439 | 0x0223      |         547 |
|    1440 | 0xFFFCF29C  |  4294767260 |
|    1441 | 0x1384C     |       79948 |
|    1442 | 0xFFFFD8F0  |  4294957296 |
|    1443 | 0x0FEC      |        4076 |
|    1444 | 0xFFFEEE1B  |  4294897179 |
|    1445 | 0xFFFE5732  |  4294858546 |
|    1446 | 0xFFFEED76  |  4294897014 |
|    1447 | 0xFFFE85DF  |  4294870495 |
|    1448 | 0xFFFEFE03  |  4294901251 |
|    1449 | 0xFFFE73B3  |  4294865843 |
|    1450 | 0x4C6E      |       19566 |
|    1451 | 0xFFFF182B  |  4294907947 |
|    1452 | 0x4AC2      |       19138 |
|    1453 | 0xFFFF1C40  |  4294908992 |
|    1454 | 0x0046      |          70 |
|    1455 | 0x0E10      |        3600 |
|    1456 | 0xFFFF331E  |  4294914846 |
|    1457 | 0xFFFE3DF9  |  4294852089 |
|    1458 | 0x170C      |        5900 |
|    1459 | 0x0102      |         258 |
|    1460 | 0xFFFF3082  |  4294914178 |
|    1461 | 0xFFFE40A4  |  4294852772 |
|    1462 | 0x170B      |        5899 |
|    1463 | 0x0D81      |        3457 |
|    1464 | 0xFFFF332B  |  4294914859 |
|    1465 | 0xFFFE3D13  |  4294851859 |
|    1466 | 0x00B3      |         179 |
|    1467 | 0x00D1      |         209 |
|    1468 | 0x9C36      |       39990 |
|    1469 | 0xFFFFB9FF  |  4294949375 |
|    1470 | 0xFFFFFF9B  |  4294967195 |
|    1471 | 0xA1D0      |       41424 |
|    1472 | 0xFFFFB57B  |  4294948219 |
|    1473 | 0xA947      |       43335 |
|    1474 | 0xFFFFB0D4  |  4294947028 |
|    1475 | 0xAB55      |       43861 |
|    1476 | 0xFFFFB4A3  |  4294948003 |
|    1477 | 0x04FF      |        1279 |
|    1478 | 0x8C1A      |       35866 |
|    1479 | 0xFFFF7B5D  |  4294933341 |
|    1480 | 0x7C38      |       31800 |
|    1481 | 0xFFFF4E44  |  4294921796 |
|    1482 | 0x037F      |         895 |
|    1483 | 0xFFFF52AD  |  4294922925 |
|    1484 | 0xFFFF3F38  |  4294917944 |
|    1485 | 0xFFFF66BD  |  4294928061 |
|    1486 | 0xFFFF4350  |  4294918992 |
|    1487 | 0xFFFF7950  |  4294932816 |
|    1488 | 0xFFFF4800  |  4294920192 |
|    1489 | 0x062B      |        1579 |
|    1490 | 0x032B      |         811 |
|    1491 | 0x052B      |        1323 |
|    1492 | 0x022B      |         555 |
|    1493 | 0x9E4D      |       40525 |
|    1494 | 0x13F80     |       81792 |
|    1495 | 0xFFFFEC7C  |  4294962300 |
|    1496 | 0xFFFECAAD  |  4294888109 |
|    1497 | 0xFFFD65CD  |  4294796749 |
|    1498 | 0xFFFECDF6  |  4294888950 |
|    1499 | 0xFFFD65EF  |  4294796783 |
|    1500 | 0xFFFFE82D  |  4294961197 |
|    1501 | 0xFFFECDE1  |  4294888929 |
|    1502 | 0xFFFD62C7  |  4294795975 |
|    1503 | 0xFFFFE82B  |  4294961195 |
|    1504 | 0xFFFECFE8  |  4294889448 |
|    1505 | 0xFFFD6976  |  4294797686 |
|    1506 | 0xFFFED1E4  |  4294889956 |
|    1507 | 0xFFFD68AB  |  4294797483 |
|    1508 | 0xFFFED3BE  |  4294890430 |
|    1509 | 0xFFFD6928  |  4294797608 |
|    1510 | 0xFFFED23A  |  4294890042 |
|    1511 | 0xFFFD66A0  |  4294796960 |
|    1512 | 0xFFFEB6CF  |  4294883023 |
|    1513 | 0xFFFD71C3  |  4294799811 |
|    1514 | 0xFFFF8C45  |  4294937669 |
|    1515 | 0xFFFDE4BF  |  4294829247 |
|    1516 | 0xFFFF8BF0  |  4294937584 |
|    1517 | 0xFFFDDDD5  |  4294827477 |
|    1518 | 0xFFFF7B63  |  4294933347 |
|    1519 | 0xFFFDE889  |  4294830217 |
|    1520 | 0xFFFF8371  |  4294935409 |
|    1521 | 0xFFFDE4EA  |  4294829290 |

## String References

- **7305**: Will you help Panta-Putta? [Very well./No.]
- **7328**: Will you do Naruru this favor? [Of course./I can't right now.]
- **7498**: Have your own $7 made? [Yes, please./No, thanks.]
- **8520**: Would you express your lovey-wuvy? [Of course!/I couldn't...]
- **9485**: You feel the bonds between you and your adventuring fellow strengthen!
- **9771**: You accompany your party leader into the maze...

## Events

### Event 65535

#### Metadata

| Field        | Value   |
|--------------|---------|
| Entrypoint   | 0x0000  |
| Data Size    | 4 bytes |
| Instructions | 2       |

```
      00 01 02 03 04 05 06 07  08 09 0A 0B 0C 0D 0E 0F
      -- -- -- -- -- -- -- --  -- -- -- -- -- -- -- --
0000: 32 00 80 00                                       2...            
```

#### Opcodes

```
  0: 0x0000 [0x32] ExtData[1]->MainSpeed = 13* * 0.1
  1: 0x0003 [0x00] END_REQSTACK()
```

### Event 65535.1

#### Metadata

| Field        | Value    |
|--------------|----------|
| Entrypoint   | 0x0004   |
| Data Size    | 10 bytes |
| Instructions | 2        |

```
      00 01 02 03 04 05 06 07  08 09 0A 0B 0C 0D 0E 0F
      -- -- -- -- -- -- -- --  -- -- -- -- -- -- -- --
0000:             37 01 80 02  80 03 80 04 80 00            7.........  
```

#### Opcodes

```
  0: 0x0004 [0x37] UPDATE_EVENT_POSITION_AND_DIR: x=0.154*, z=-1.653*, y=0.000*, direction=259.0*
  1: 0x000D [0x00] END_REQSTACK()
```

### Event 65534

#### Metadata

| Field        | Value   |
|--------------|---------|
| Entrypoint   | 0x000E  |
| Data Size    | 1 bytes |
| Instructions | 1       |

```
      00 01 02 03 04 05 06 07  08 09 0A 0B 0C 0D 0E 0F
      -- -- -- -- -- -- -- --  -- -- -- -- -- -- -- --
0000:                                            00                   . 
```

#### Opcodes

```
  0: 0x000E [0x00] END_REQSTACK()
```

### Event 20002

#### Metadata

| Field        | Value    |
|--------------|----------|
| Entrypoint   | 0x000F   |
| Data Size    | 97 bytes |
| Instructions | 14       |

```
      00 01 02 03 04 05 06 07  08 09 0A 0B 0C 0D 0E 0F
      -- -- -- -- -- -- -- --  -- -- -- -- -- -- -- --
0000:                                               42                 B
0010: 48 05 80 45 06 80 F0 FF  FF 7F F0 FF FF 7F 66 64  H..E..........fd
0020: 6F 31 03 80 02 03 10 03  80 00 40 00 62 07 80 F0  o1........@.b...
0030: FF FF 7F F0 FF FF 7F 6D  61 69 6E 03 80 1C 08 80  .......main.....
0040: 1C 09 80 83 1E 17 AA 1E  17 1E 17 1E 17 1E 17 1E  ................
0050: 17 1F 17 1E 17 1E 17 77  1F 17 03 80 78 45 0A 80  .......w....xE..
0060: F0 FF FF 7F F0 FF FF 7F  77 68 69 31 03 80 21 00  ........whi1..!.
```

#### Opcodes

```
  0: 0x000F [0x42] SET_CLI_EVENT_CANCEL_DATA()
  1: 0x0010 [0x48] [System] [9771*]:
     "You accompany your party leader into the maze..."
  2: 0x0013 [0x45] LOAD_SCHEDULED_TASK: Load scheduler "fdo1" with entities [LocalPlayer, LocalPlayer], work=[200*, 0*]
  3: 0x0024 [0x02] IF !(Work_Zone[3] == 0*) GOTO 0x0040
  4: 0x002C [0x62] LOAD_EVENT_SCHEDULER: Load scheduler "main" with entities [LocalPlayer, LocalPlayer], work=[1*, 0*]
  5: 0x003D [0x1C] WAIT(90* ticks)
  6: 0x0040 [0x1C] WAIT(60* ticks)
  7: 0x0043 [0x83] Work_Zone_1700[30] = GetGameTime()
  8: 0x0046 [0xAA] VANA_DIEL_TIMESTAMP_CONVERTER(timestamp=Work_Zone_1700[30], year=Work_Zone_1700[30], month=Work_Zone_1700[30], day=Work_Zone_1700[30], weekday=Work_Zone_1700[30], hour=Work_Zone_1700[31], minute=Work_Zone_1700[30], moon=Work_Zone_1700[30])
  9: 0x0057 [0x77] SET_EVENT_TIME_WEATHER(hour=Work_Zone_1700[31], weather=0*)
 10: 0x005C [0x78] ENABLE_GAME_TIMER_RESET_WEATHER()
 11: 0x005D [0x45] LOAD_SCHEDULED_TASK: Load scheduler "whi1" with entities [LocalPlayer, LocalPlayer], work=[201*, 0*]
 12: 0x006E [0x21] END_EVENT
 13: 0x006F [0x00] END_REQSTACK()
```

### Event 65535.2

#### Metadata

| Field        | Value   |
|--------------|---------|
| Entrypoint   | 0x0070  |
| Data Size    | 6 bytes |
| Instructions | 2       |

```
      00 01 02 03 04 05 06 07  08 09 0A 0B 0C 0D 0E 0F
      -- -- -- -- -- -- -- --  -- -- -- -- -- -- -- --
0070: 03 02 10 07 7F 00                                 ......          
```

#### Opcodes

```
  0: 0x0070 [0x03] Work_Zone[2] = Entity->Race
  1: 0x0075 [0x00] END_REQSTACK()
```

### Event 65535.3

#### Metadata

| Field        | Value   |
|--------------|---------|
| Entrypoint   | 0x0076  |
| Data Size    | 6 bytes |
| Instructions | 2       |

```
      00 01 02 03 04 05 06 07  08 09 0A 0B 0C 0D 0E 0F
      -- -- -- -- -- -- -- --  -- -- -- -- -- -- -- --
0070:                   03 02  10 0B 7F 00                    ......    
```

#### Opcodes

```
  0: 0x0076 [0x03] Work_Zone[2] = (Entity->Render.Flags01 >> 25) & 1
  1: 0x007B [0x00] END_REQSTACK()
```

### Event 65535.4

#### Metadata

| Field        | Value    |
|--------------|----------|
| Entrypoint   | 0x007C   |
| Data Size    | 10 bytes |
| Instructions | 2        |

```
      00 01 02 03 04 05 06 07  08 09 0A 0B 0C 0D 0E 0F
      -- -- -- -- -- -- -- --  -- -- -- -- -- -- -- --
0070:                                      37 0B 80 0C              7...
0080: 80 03 80 0D 80 00                                 ......          
```

#### Opcodes

```
  0: 0x007C [0x37] UPDATE_EVENT_POSITION_AND_DIR: x=-16.346*, z=-0.767*, y=0.000*, direction=246.1*
  1: 0x0085 [0x00] END_REQSTACK()
```

### Event 65535.5

#### Metadata

| Field        | Value    |
|--------------|----------|
| Entrypoint   | 0x0086   |
| Data Size    | 18 bytes |
| Instructions | 4        |

```
      00 01 02 03 04 05 06 07  08 09 0A 0B 0C 0D 0E 0F
      -- -- -- -- -- -- -- --  -- -- -- -- -- -- -- --
0080:                   6E F0  FF FF 7F 0E 80 99 F0 FF        n.........
0090: FF 7F 99 F0 FF FF 7F 00                           ........        
```

#### Opcodes

```
  0: 0x0086 [0x6E] LocalPlayer uses emote 7*
  1: 0x008D [0x99] Wait for LocalPlayer animation to complete
  2: 0x0092 [0x99] Wait for LocalPlayer animation to complete
  3: 0x0097 [0x00] END_REQSTACK()
```

### Event 65535.6

#### Metadata

| Field        | Value    |
|--------------|----------|
| Entrypoint   | 0x0098   |
| Data Size    | 18 bytes |
| Instructions | 4        |

```
      00 01 02 03 04 05 06 07  08 09 0A 0B 0C 0D 0E 0F
      -- -- -- -- -- -- -- --  -- -- -- -- -- -- -- --
0090:                          6E F0 FF FF 7F 0F 80 99          n.......
00A0: F0 FF FF 7F 99 F0 FF FF  7F 00                    ..........      
```

#### Opcodes

```
  0: 0x0098 [0x6E] LocalPlayer uses emote 6*
  1: 0x009F [0x99] Wait for LocalPlayer animation to complete
  2: 0x00A4 [0x99] Wait for LocalPlayer animation to complete
  3: 0x00A9 [0x00] END_REQSTACK()
```

### Event 9

#### Metadata

| Field        | Value     |
|--------------|-----------|
| Entrypoint   | 0x00AA    |
| Data Size    | 280 bytes |
| Instructions | 34        |

```
      00 01 02 03 04 05 06 07  08 09 0A 0B 0C 0D 0E 0F
      -- -- -- -- -- -- -- --  -- -- -- -- -- -- -- --
00A0:                                20 01 46 01 42 45             .F.BE
00B0: 06 80 F0 FF FF 7F F0 FF  FF 7F 66 64 6F 31 03 80  ..........fdo1..
00C0: 55 06 80 F0 FF FF 7F F0  FF FF 7F 66 64 6F 31 38  U..........fdo18
00D0: 10 80 94 01 F0 FF FF 7F  92 01 0D 50 0F 01 37 11  ...........P..7.
00E0: 80 12 80 13 80 14 80 75  00 15 80 75 01 79 00 0D  .......u...u.y..
00F0: 50 0F 01 F0 FF FF 7F 79  00 F0 FF FF 7F 0D 50 0F  P......y......P.
0100: 01 97 03 80 07 80 27 03  60 50 0F 01 06 27 03 0D  ......'.`P...'..
0110: 50 0F 01 05 45 16 80 F0  FF FF 7F F0 FF FF 7F 76  P...E..........v
0120: 30 30 30 03 80 45 06 80  F0 FF FF 7F F0 FF FF 7F  000..E..........
0130: 66 64 69 31 03 80 55 06  80 F0 FF FF 7F F0 FF FF  fdi1..U.........
0140: 7F 66 64 69 31 2A 03 0D  50 0F 01 55 16 80 F0 FF  .fdi1*..P..U....
0150: FF 7F F0 FF FF 7F 76 30  30 30 66 03 80 0D 50 0F  ......v000f...P.
0160: 01 0D 50 0F 01 74 6C 6B  30 2B 0D 50 0F 01 17 80  ..P..tlk0+.P....
0170: 23 66 03 80 0D 50 0F 01  0D 50 0F 01 74 65 6E 30  #f...P...P..ten0
0180: 1C 18 80 45 06 80 F0 FF  FF 7F F0 FF FF 7F 66 64  ...E..........fd
0190: 6F 32 03 80 55 06 80 F0  FF FF 7F F0 FF FF 7F 66  o2..U..........f
01A0: 64 6F 32 27 03 60 50 0F  01 07 1C 19 80 46 00 45  do2'.`P......F.E
01B0: 06 80 F0 FF FF 7F F0 FF  FF 7F 66 64 69 32 03 80  ..........fdi2..
01C0: 21 00                                             !.              
```

#### Opcodes

```
  0: 0x00AA [0x20] SET_CLI_EVENT_UC_FLAG: Lock player control
  1: 0x00AC [0x46] CAMERA_CONTROL: Disable user control
  2: 0x00AE [0x42] SET_CLI_EVENT_CANCEL_DATA()
  3: 0x00AF [0x45] LOAD_SCHEDULED_TASK: Load scheduler "fdo1" with entities [LocalPlayer, LocalPlayer], work=[200*, 0*]
  4: 0x00C0 [0x55] WAIT_LOAD_SCHEDULER: Wait for scheduler "fdo1" with entities [LocalPlayer, LocalPlayer], work=200*
  5: 0x00CF [0x38] SET_CLIENT_EVENT_MODE(mode=3*)
  6: 0x00D2 [0x94] LocalPlayer->Render.Flags3 ^= 0x01
  7: 0x00D8 [0x92] Harnek (ID: 17780749/0x010F500D)->Render.Flags3 ^= 0x01
  8: 0x00DE [0x37] UPDATE_EVENT_POSITION_AND_DIR: x=35.640*, z=-15.182*, y=-0.111*, direction=26.0*
  9: 0x00E7 [0x75] LOAD_ROOM(Load indoor room, room=455*)
 10: 0x00EB [0x75] LOAD_ROOM(No action)
 11: 0x00ED [0x79] Harnek (ID: 17780749/0x010F500D) looks at LocalPlayer (Basic look)
 12: 0x00F7 [0x79] LocalPlayer looks at Harnek (ID: 17780749/0x010F500D) (Basic look)
 13: 0x0101 [0x97] SAVE_SET_WIND_VALUES(wind_base=0x8003, wind_width=0x8007)
 14: 0x0106 [0x27] REQ_SET(priority=0x03, entity_id=Door:"Neptune's Spire" (ID: 17780832/0x010F5060), tag_num=0x06)
 15: 0x010D [0x27] REQ_SET(priority=0x03, entity_id=Harnek (ID: 17780749/0x010F500D), tag_num=0x05)
 16: 0x0114 [0x45] LOAD_SCHEDULED_TASK: Load scheduler "v000" with entities [LocalPlayer, LocalPlayer], work=[189*, 0*]
 17: 0x0125 [0x45] LOAD_SCHEDULED_TASK: Load scheduler "fdi1" with entities [LocalPlayer, LocalPlayer], work=[200*, 0*]
 18: 0x0136 [0x55] WAIT_LOAD_SCHEDULER: Wait for scheduler "fdi1" with entities [LocalPlayer, LocalPlayer], work=200*
 19: 0x0145 [0x2A] GET_REQ_LEVEL(level=3, entity_id=Harnek (ID: 17780749/0x010F500D))
 20: 0x014B [0x55] WAIT_LOAD_SCHEDULER: Wait for scheduler "v000" with entities [LocalPlayer, LocalPlayer], work=189*
 21: 0x015A [0x66] LOAD_EXT_SCHEDULER_MAIN: Load scheduler "tlk0" with entities [Harnek (ID: 17780749/0x010F500D), Harnek (ID: 17780749/0x010F500D)], work=0*
 22: 0x0169 [0x2B] Harnek (ID: 17780749/0x010F500D) [8673*]:
     "<Player>, you weren't thinking of running now, were you? If you know what's good for you, you'll head on up to the Grand Duke Palace and face your crimes."
 23: 0x0170 [0x23] WAIT_FOR_DIALOG_INTERACTION
 24: 0x0171 [0x66] LOAD_EXT_SCHEDULER_MAIN: Load scheduler "ten0" with entities [Harnek (ID: 17780749/0x010F500D), Harnek (ID: 17780749/0x010F500D)], work=0*
 25: 0x0180 [0x1C] WAIT(30* ticks)
 26: 0x0183 [0x45] LOAD_SCHEDULED_TASK: Load scheduler "fdo2" with entities [LocalPlayer, LocalPlayer], work=[200*, 0*]
 27: 0x0194 [0x55] WAIT_LOAD_SCHEDULER: Wait for scheduler "fdo2" with entities [LocalPlayer, LocalPlayer], work=200*
 28: 0x01A3 [0x27] REQ_SET(priority=0x03, entity_id=Door:"Neptune's Spire" (ID: 17780832/0x010F5060), tag_num=0x07)
 29: 0x01AA [0x1C] WAIT(120* ticks)
 30: 0x01AD [0x46] CAMERA_CONTROL: Restore default settings
 31: 0x01AF [0x45] LOAD_SCHEDULED_TASK: Load scheduler "fdi2" with entities [LocalPlayer, LocalPlayer], work=[200*, 0*]
 32: 0x01C0 [0x21] END_EVENT
 33: 0x01C1 [0x00] END_REQSTACK()
```

### Event 10

#### Metadata

| Field        | Value     |
|--------------|-----------|
| Entrypoint   | 0x01C2    |
| Data Size    | 288 bytes |
| Instructions | 36        |

```
      00 01 02 03 04 05 06 07  08 09 0A 0B 0C 0D 0E 0F
      -- -- -- -- -- -- -- --  -- -- -- -- -- -- -- --
01C0:       20 01 46 01 42 45  06 80 F0 FF FF 7F F0 FF     .F.BE........
01D0: FF 7F 66 64 6F 31 03 80  55 06 80 F0 FF FF 7F F0  ..fdo1..U.......
01E0: FF FF 7F 66 64 6F 31 38  10 80 94 01 F0 FF FF 7F  ...fdo18........
01F0: 92 01 0D 50 0F 01 37 11  80 12 80 13 80 14 80 75  ...P..7........u
0200: 00 15 80 75 01 79 00 0D  50 0F 01 F0 FF FF 7F 79  ...u.y..P......y
0210: 00 F0 FF FF 7F 0D 50 0F  01 97 03 80 07 80 27 03  ......P.......'.
0220: 60 50 0F 01 06 27 03 0D  50 0F 01 05 45 16 80 F0  `P...'..P...E...
0230: FF FF 7F F0 FF FF 7F 76  30 30 30 03 80 45 06 80  .......v000..E..
0240: F0 FF FF 7F F0 FF FF 7F  66 64 69 31 03 80 55 06  ........fdi1..U.
0250: 80 F0 FF FF 7F F0 FF FF  7F 66 64 69 31 2A 03 0D  .........fdi1*..
0260: 50 0F 01 55 16 80 F0 FF  FF 7F F0 FF FF 7F 76 30  P..U..........v0
0270: 30 30 66 03 80 0D 50 0F  01 0D 50 0F 01 74 6C 6B  00f...P...P..tlk
0280: 30 2B 0D 50 0F 01 1A 80  23 66 03 80 0D 50 0F 01  0+.P....#f...P..
0290: 0D 50 0F 01 74 65 6E 30  2B 0D 50 0F 01 1B 80 23  .P..ten0+.P....#
02A0: 1C 18 80 45 06 80 F0 FF  FF 7F F0 FF FF 7F 66 64  ...E..........fd
02B0: 6F 32 03 80 55 06 80 F0  FF FF 7F F0 FF FF 7F 66  o2..U..........f
02C0: 64 6F 32 27 03 60 50 0F  01 07 1C 19 80 46 00 45  do2'.`P......F.E
02D0: 06 80 F0 FF FF 7F F0 FF  FF 7F 66 64 69 32 03 80  ..........fdi2..
02E0: 21 00                                             !.              
```

#### Opcodes

```
  0: 0x01C2 [0x20] SET_CLI_EVENT_UC_FLAG: Lock player control
  1: 0x01C4 [0x46] CAMERA_CONTROL: Disable user control
  2: 0x01C6 [0x42] SET_CLI_EVENT_CANCEL_DATA()
  3: 0x01C7 [0x45] LOAD_SCHEDULED_TASK: Load scheduler "fdo1" with entities [LocalPlayer, LocalPlayer], work=[200*, 0*]
  4: 0x01D8 [0x55] WAIT_LOAD_SCHEDULER: Wait for scheduler "fdo1" with entities [LocalPlayer, LocalPlayer], work=200*
  5: 0x01E7 [0x38] SET_CLIENT_EVENT_MODE(mode=3*)
  6: 0x01EA [0x94] LocalPlayer->Render.Flags3 ^= 0x01
  7: 0x01F0 [0x92] Harnek (ID: 17780749/0x010F500D)->Render.Flags3 ^= 0x01
  8: 0x01F6 [0x37] UPDATE_EVENT_POSITION_AND_DIR: x=35.640*, z=-15.182*, y=-0.111*, direction=26.0*
  9: 0x01FF [0x75] LOAD_ROOM(Load indoor room, room=455*)
 10: 0x0203 [0x75] LOAD_ROOM(No action)
 11: 0x0205 [0x79] Harnek (ID: 17780749/0x010F500D) looks at LocalPlayer (Basic look)
 12: 0x020F [0x79] LocalPlayer looks at Harnek (ID: 17780749/0x010F500D) (Basic look)
 13: 0x0219 [0x97] SAVE_SET_WIND_VALUES(wind_base=0x8003, wind_width=0x8007)
 14: 0x021E [0x27] REQ_SET(priority=0x03, entity_id=Door:"Neptune's Spire" (ID: 17780832/0x010F5060), tag_num=0x06)
 15: 0x0225 [0x27] REQ_SET(priority=0x03, entity_id=Harnek (ID: 17780749/0x010F500D), tag_num=0x05)
 16: 0x022C [0x45] LOAD_SCHEDULED_TASK: Load scheduler "v000" with entities [LocalPlayer, LocalPlayer], work=[189*, 0*]
 17: 0x023D [0x45] LOAD_SCHEDULED_TASK: Load scheduler "fdi1" with entities [LocalPlayer, LocalPlayer], work=[200*, 0*]
 18: 0x024E [0x55] WAIT_LOAD_SCHEDULER: Wait for scheduler "fdi1" with entities [LocalPlayer, LocalPlayer], work=200*
 19: 0x025D [0x2A] GET_REQ_LEVEL(level=3, entity_id=Harnek (ID: 17780749/0x010F500D))
 20: 0x0263 [0x55] WAIT_LOAD_SCHEDULER: Wait for scheduler "v000" with entities [LocalPlayer, LocalPlayer], work=189*
 21: 0x0272 [0x66] LOAD_EXT_SCHEDULER_MAIN: Load scheduler "tlk0" with entities [Harnek (ID: 17780749/0x010F500D), Harnek (ID: 17780749/0x010F500D)], work=0*
 22: 0x0281 [0x2B] Harnek (ID: 17780749/0x010F500D) [8691*]:
     "They say some Elvaan girl was attacked while in the Temple of the Goddess--right in front of the statue of Altana! What is this city coming to!?"
 23: 0x0288 [0x23] WAIT_FOR_DIALOG_INTERACTION
 24: 0x0289 [0x66] LOAD_EXT_SCHEDULER_MAIN: Load scheduler "ten0" with entities [Harnek (ID: 17780749/0x010F500D), Harnek (ID: 17780749/0x010F500D)], work=0*
 25: 0x0298 [0x2B] Harnek (ID: 17780749/0x010F500D) [8692*]:
     "Huh? You think it was a Tenshodo member that did the dirty deed!? <Player>, you'd better watch your tongue unless you want to see it on a plate!"
 26: 0x029F [0x23] WAIT_FOR_DIALOG_INTERACTION
 27: 0x02A0 [0x1C] WAIT(30* ticks)
 28: 0x02A3 [0x45] LOAD_SCHEDULED_TASK: Load scheduler "fdo2" with entities [LocalPlayer, LocalPlayer], work=[200*, 0*]
 29: 0x02B4 [0x55] WAIT_LOAD_SCHEDULER: Wait for scheduler "fdo2" with entities [LocalPlayer, LocalPlayer], work=200*
 30: 0x02C3 [0x27] REQ_SET(priority=0x03, entity_id=Door:"Neptune's Spire" (ID: 17780832/0x010F5060), tag_num=0x07)
 31: 0x02CA [0x1C] WAIT(120* ticks)
 32: 0x02CD [0x46] CAMERA_CONTROL: Restore default settings
 33: 0x02CF [0x45] LOAD_SCHEDULED_TASK: Load scheduler "fdi2" with entities [LocalPlayer, LocalPlayer], work=[200*, 0*]
 34: 0x02E0 [0x21] END_EVENT
 35: 0x02E1 [0x00] END_REQSTACK()
```

### Event 70

#### Metadata

| Field        | Value     |
|--------------|-----------|
| Entrypoint   | 0x02E2    |
| Data Size    | 707 bytes |
| Instructions | 102       |

```
      00 01 02 03 04 05 06 07  08 09 0A 0B 0C 0D 0E 0F
      -- -- -- -- -- -- -- --  -- -- -- -- -- -- -- --
02E0:       20 01 46 01 42 45  06 80 F0 FF FF 7F F0 FF     .F.BE........
02F0: FF 7F 66 64 6F 31 03 80  55 06 80 F0 FF FF 7F F0  ..fdo1..U.......
0300: FF FF 7F 66 64 6F 31 38  1C 80 4E 01 F0 FF FF 7F  ...fdo18..N.....
0310: 5C 00 1D 80 5C 01 1D 80  9A 77 1E 80 03 80 34 1F  \...\....w....4.
0320: 80 1C 20 80 80 54 50 0F  01 80 01 50 0F 01 80 4F  .. ..TP....P...O
0330: 50 0F 01 80 50 50 0F 01  77 21 80 03 80 4E 00 54  P...PP..w!...N.T
0340: 50 0F 01 4E 00 01 50 0F  01 4E 00 4F 50 0F 01 4E  P..N..P..N.OP..N
0350: 00 50 50 0F 01 97 03 80  07 80 45 22 80 F0 FF FF  .PP.......E"....
0360: 7F F0 FF FF 7F 7A 30 30  30 03 80 29 02 54 50 0F  .....z000..).TP.
0370: 01 02 29 02 01 50 0F 01  06 29 02 4F 50 0F 01 02  ..)..P...).OP...
0380: 29 02 50 50 0F 01 02 29  02 51 50 0F 01 02 29 02  ).PP...).QP...).
0390: 52 50 0F 01 02 29 02 53  50 0F 01 02 27 03 54 50  RP...).SP...'.TP
03A0: 0F 01 03 27 03 01 50 0F  01 07 27 03 4F 50 0F 01  ...'..P...'.OP..
03B0: 03 27 03 50 50 0F 01 03  45 06 80 F0 FF FF 7F F0  .'.PP...E.......
03C0: FF FF 7F 66 64 69 31 03  80 55 06 80 F0 FF FF 7F  ...fdi1..U......
03D0: F0 FF FF 7F 66 64 69 31  2A 03 54 50 0F 01 2A 03  ....fdi1*.TP..*.
03E0: 01 50 0F 01 2A 03 4F 50  0F 01 2A 03 50 50 0F 01  .P..*.OP..*.PP..
03F0: 55 22 80 F0 FF FF 7F F0  FF FF 7F 7A 30 30 30 45  U".........z000E
0400: 22 80 F0 FF FF 7F F0 FF  FF 7F 7A 30 30 31 03 80  ".........z001..
0410: 55 22 80 F0 FF FF 7F F0  FF FF 7F 7A 30 30 31 2B  U".........z001+
0420: 01 50 0F 01 23 80 23 45  22 80 F0 FF FF 7F F0 FF  .P..#.#E".......
0430: FF 7F 7A 30 30 32 03 80  55 22 80 F0 FF FF 7F F0  ..z002..U"......
0440: FF FF 7F 7A 30 30 32 27  03 54 50 0F 01 05 2B 54  ...z002'.TP...+T
0450: 50 0F 01 24 80 23 28 04  54 50 0F 01 06 2B 01 50  P..$.#(.TP...+.P
0460: 0F 01 25 80 23 4B 01 50  0F 01 26 80 6F 76 01 50  ..%.#K.P..&.ov.P
0470: 0F 01 45 22 80 F0 FF FF  7F F0 FF FF 7F 7A 30 30  ..E".........z00
0480: 33 03 80 55 22 80 F0 FF  FF 7F F0 FF FF 7F 7A 30  3..U".........z0
0490: 30 33 4B 4F 50 0F 01 26  80 4B 50 50 0F 01 26 80  03KOP..&.KPP..&.
04A0: 6F 76 50 50 0F 01 27 03  01 50 0F 01 08 1C 27 80  ovPP..'..P....'.
04B0: 27 03 4F 50 0F 01 04 27  03 50 50 0F 01 04 1C 08  '.OP...'.PP.....
04C0: 80 4E 00 51 50 0F 01 4E  00 52 50 0F 01 4E 00 53  .N.QP..N.RP..N.S
04D0: 50 0F 01 27 03 51 50 0F  01 03 27 03 52 50 0F 01  P..'.QP...'.RP..
04E0: 03 27 03 53 50 0F 01 03  1C 08 80 4A 54 50 0F 01  .'.SP......JTP..
04F0: 52 50 0F 01 1C 09 80 45  22 80 F0 FF FF 7F F0 FF  RP.....E".......
0500: FF 7F 7A 30 30 34 03 80  55 22 80 F0 FF FF 7F F0  ..z004..U"......
0510: FF FF 7F 7A 30 30 34 2A  03 53 50 0F 01 1C 18 80  ...z004*.SP.....
0520: 81 00 54 50 0F 01 5D 03  80 28 80 45 22 80 F0 FF  ..TP..]..(.E"...
0530: FF 7F F0 FF FF 7F 7A 30  30 35 03 80 55 22 80 F0  ......z005..U"..
0540: FF FF 7F F0 FF FF 7F 7A  30 30 35 1C 29 80 2B 54  .......z005.).+T
0550: 50 0F 01 2A 80 1C 18 80  7B 54 50 0F 01 23 45 06  P..*....{TP..#E.
0560: 80 F0 FF FF 7F F0 FF FF  7F 66 64 6F 32 03 80 55  .........fdo2..U
0570: 06 80 F0 FF FF 7F F0 FF  FF 7F 66 64 6F 32 1C 06  ..........fdo2..
0580: 80 35 2B 80 1C 20 80 78  5C 00 2C 80 5C 01 2C 80  .5+.. .x\.,.\.,.
0590: 46 00 45 06 80 F0 FF FF  7F F0 FF FF 7F 66 64 69  F.E..........fdi
05A0: 32 03 80 21 00                                    2..!.           
```

#### Opcodes

```
  0: 0x02E2 [0x20] SET_CLI_EVENT_UC_FLAG: Lock player control
  1: 0x02E4 [0x46] CAMERA_CONTROL: Disable user control
  2: 0x02E6 [0x42] SET_CLI_EVENT_CANCEL_DATA()
  3: 0x02E7 [0x45] LOAD_SCHEDULED_TASK: Load scheduler "fdo1" with entities [LocalPlayer, LocalPlayer], work=[200*, 0*]
  4: 0x02F8 [0x55] WAIT_LOAD_SCHEDULER: Wait for scheduler "fdo1" with entities [LocalPlayer, LocalPlayer], work=200*
  5: 0x0307 [0x38] SET_CLIENT_EVENT_MODE(mode=19*)
  6: 0x030A [0x4E] SET_ENTITY_HIDE_FLAG: Hide LocalPlayer
  7: 0x0310 [0x5C] MUSIC_CONTROL: Set Idle (Day) music to song 231*
  8: 0x0314 [0x5C] MUSIC_CONTROL: Set Idle (Night) music to song 231*
  9: 0x0318 [0x9A] WAIT_MUSIC_SERVER()
 10: 0x0319 [0x77] SET_EVENT_TIME_WEATHER(hour=12*, weather=0*)
 11: 0x031E [0x34] LOAD_UNLOAD_ZONE(zone_id=243*)
 12: 0x0321 [0x1C] WAIT(100* ticks)
 13: 0x0324 [0x80] LOAD_WAIT(entity=Nag'molada (ID: 17780820/0x010F5054))
 14: 0x0329 [0x80] LOAD_WAIT(entity=Wolfgang (ID: 17780737/0x010F5001))
 15: 0x032E [0x80] LOAD_WAIT(entity=Chapi Galepilai (ID: 17780815/0x010F504F))
 16: 0x0333 [0x80] LOAD_WAIT(entity=Crooked Arrow (ID: 17780816/0x010F5050))
 17: 0x0338 [0x77] SET_EVENT_TIME_WEATHER(hour=255*, weather=0*)
 18: 0x033D [0x4E] SET_ENTITY_HIDE_FLAG: Show Nag'molada (ID: 17780820/0x010F5054)
 19: 0x0343 [0x4E] SET_ENTITY_HIDE_FLAG: Show Wolfgang (ID: 17780737/0x010F5001)
 20: 0x0349 [0x4E] SET_ENTITY_HIDE_FLAG: Show Chapi Galepilai (ID: 17780815/0x010F504F)
 21: 0x034F [0x4E] SET_ENTITY_HIDE_FLAG: Show Crooked Arrow (ID: 17780816/0x010F5050)
 22: 0x0355 [0x97] SAVE_SET_WIND_VALUES(wind_base=0x8003, wind_width=0x8007)
 23: 0x035A [0x45] LOAD_SCHEDULED_TASK: Load scheduler "z000" with entities [LocalPlayer, LocalPlayer], work=[81*, 0*]
 24: 0x036B [0x29] REQ_SET_WAIT(priority=0x02, entity_id=Nag'molada (ID: 17780820/0x010F5054), tag_num=0x02)
 25: 0x0372 [0x29] REQ_SET_WAIT(priority=0x02, entity_id=Wolfgang (ID: 17780737/0x010F5001), tag_num=0x06)
 26: 0x0379 [0x29] REQ_SET_WAIT(priority=0x02, entity_id=Chapi Galepilai (ID: 17780815/0x010F504F), tag_num=0x02)
 27: 0x0380 [0x29] REQ_SET_WAIT(priority=0x02, entity_id=Crooked Arrow (ID: 17780816/0x010F5050), tag_num=0x02)
 28: 0x0387 [0x29] REQ_SET_WAIT(priority=0x02, entity_id=Cherukiki (ID: 17780817/0x010F5051), tag_num=0x02)
 29: 0x038E [0x29] REQ_SET_WAIT(priority=0x02, entity_id=Kukki-Chebukki (ID: 17780818/0x010F5052), tag_num=0x02)
 30: 0x0395 [0x29] REQ_SET_WAIT(priority=0x02, entity_id=Makki-Chebukki (ID: 17780819/0x010F5053), tag_num=0x02)
 31: 0x039C [0x27] REQ_SET(priority=0x03, entity_id=Nag'molada (ID: 17780820/0x010F5054), tag_num=0x03)
 32: 0x03A3 [0x27] REQ_SET(priority=0x03, entity_id=Wolfgang (ID: 17780737/0x010F5001), tag_num=0x07)
 33: 0x03AA [0x27] REQ_SET(priority=0x03, entity_id=Chapi Galepilai (ID: 17780815/0x010F504F), tag_num=0x03)
 34: 0x03B1 [0x27] REQ_SET(priority=0x03, entity_id=Crooked Arrow (ID: 17780816/0x010F5050), tag_num=0x03)
 35: 0x03B8 [0x45] LOAD_SCHEDULED_TASK: Load scheduler "fdi1" with entities [LocalPlayer, LocalPlayer], work=[200*, 0*]
 36: 0x03C9 [0x55] WAIT_LOAD_SCHEDULER: Wait for scheduler "fdi1" with entities [LocalPlayer, LocalPlayer], work=200*
 37: 0x03D8 [0x2A] GET_REQ_LEVEL(level=3, entity_id=Nag'molada (ID: 17780820/0x010F5054))
 38: 0x03DE [0x2A] GET_REQ_LEVEL(level=3, entity_id=Wolfgang (ID: 17780737/0x010F5001))
 39: 0x03E4 [0x2A] GET_REQ_LEVEL(level=3, entity_id=Chapi Galepilai (ID: 17780815/0x010F504F))
 40: 0x03EA [0x2A] GET_REQ_LEVEL(level=3, entity_id=Crooked Arrow (ID: 17780816/0x010F5050))
 41: 0x03F0 [0x55] WAIT_LOAD_SCHEDULER: Wait for scheduler "z000" with entities [LocalPlayer, LocalPlayer], work=81*
 42: 0x03FF [0x45] LOAD_SCHEDULED_TASK: Load scheduler "z001" with entities [LocalPlayer, LocalPlayer], work=[81*, 0*]
 43: 0x0410 [0x55] WAIT_LOAD_SCHEDULER: Wait for scheduler "z001" with entities [LocalPlayer, LocalPlayer], work=81*
 44: 0x041F [0x2B] Wolfgang (ID: 17780737/0x010F5001) [8697*]:
     "Sir, the airships are ready for departure."
 45: 0x0426 [0x23] WAIT_FOR_DIALOG_INTERACTION
 46: 0x0427 [0x45] LOAD_SCHEDULED_TASK: Load scheduler "z002" with entities [LocalPlayer, LocalPlayer], work=[81*, 0*]
 47: 0x0438 [0x55] WAIT_LOAD_SCHEDULER: Wait for scheduler "z002" with entities [LocalPlayer, LocalPlayer], work=81*
 48: 0x0447 [0x27] REQ_SET(priority=0x03, entity_id=Nag'molada (ID: 17780820/0x010F5054), tag_num=0x05)
 49: 0x044E [0x2B] Nag'molada (ID: 17780820/0x010F5054) [8698*]:
     "I will be traveling on a separate vessel. If "he" appears before I arrive, prevent him from escaping, but do not attack."
 50: 0x0455 [0x23] WAIT_FOR_DIALOG_INTERACTION
 51: 0x0456 [0x28] REQ_SET_WITH_CONDITIONS(priority=0x04, target_entity=Nag'molada (ID: 17780820/0x010F5054), tag_num=0x06)
 52: 0x045D [0x2B] Wolfgang (ID: 17780737/0x010F5001) [8699*]:
     "Yes, sir!"
 53: 0x0464 [0x23] WAIT_FOR_DIALOG_INTERACTION
 54: 0x0465 [0x4B] UPDATE_ENTITY_YAW(entity=Wolfgang (ID: 17780737/0x010F5001), yaw=5.6*)
 55: 0x046C [0x6F] WAIT_FRAME_DELAY: Yield until WaitTime reaches zero
 56: 0x046D [0x76] CHECK_ENTITY_RENDER_FLAGS: Wait until Wolfgang (ID: 17780737/0x010F5001) Render.Flags0 and Render.Flags3 conditions are met
 57: 0x0472 [0x45] LOAD_SCHEDULED_TASK: Load scheduler "z003" with entities [LocalPlayer, LocalPlayer], work=[81*, 0*]
 58: 0x0483 [0x55] WAIT_LOAD_SCHEDULER: Wait for scheduler "z003" with entities [LocalPlayer, LocalPlayer], work=81*
 59: 0x0492 [0x4B] UPDATE_ENTITY_YAW(entity=Chapi Galepilai (ID: 17780815/0x010F504F), yaw=5.6*)
 60: 0x0499 [0x4B] UPDATE_ENTITY_YAW(entity=Crooked Arrow (ID: 17780816/0x010F5050), yaw=5.6*)
 61: 0x04A0 [0x6F] WAIT_FRAME_DELAY: Yield until WaitTime reaches zero
 62: 0x04A1 [0x76] CHECK_ENTITY_RENDER_FLAGS: Wait until Crooked Arrow (ID: 17780816/0x010F5050) Render.Flags0 and Render.Flags3 conditions are met
 63: 0x04A6 [0x27] REQ_SET(priority=0x03, entity_id=Wolfgang (ID: 17780737/0x010F5001), tag_num=0x08)
 64: 0x04AD [0x1C] WAIT(5* ticks)
 65: 0x04B0 [0x27] REQ_SET(priority=0x03, entity_id=Chapi Galepilai (ID: 17780815/0x010F504F), tag_num=0x04)
 66: 0x04B7 [0x27] REQ_SET(priority=0x03, entity_id=Crooked Arrow (ID: 17780816/0x010F5050), tag_num=0x04)
 67: 0x04BE [0x1C] WAIT(90* ticks)
 68: 0x04C1 [0x4E] SET_ENTITY_HIDE_FLAG: Show Cherukiki (ID: 17780817/0x010F5051)
 69: 0x04C7 [0x4E] SET_ENTITY_HIDE_FLAG: Show Kukki-Chebukki (ID: 17780818/0x010F5052)
 70: 0x04CD [0x4E] SET_ENTITY_HIDE_FLAG: Show Makki-Chebukki (ID: 17780819/0x010F5053)
 71: 0x04D3 [0x27] REQ_SET(priority=0x03, entity_id=Cherukiki (ID: 17780817/0x010F5051), tag_num=0x03)
 72: 0x04DA [0x27] REQ_SET(priority=0x03, entity_id=Kukki-Chebukki (ID: 17780818/0x010F5052), tag_num=0x03)
 73: 0x04E1 [0x27] REQ_SET(priority=0x03, entity_id=Makki-Chebukki (ID: 17780819/0x010F5053), tag_num=0x03)
 74: 0x04E8 [0x1C] WAIT(90* ticks)
 75: 0x04EB [0x4A] Nag'molada (ID: 17780820/0x010F5054) looks at Kukki-Chebukki (ID: 17780818/0x010F5052)
 76: 0x04F4 [0x1C] WAIT(60* ticks)
 77: 0x04F7 [0x45] LOAD_SCHEDULED_TASK: Load scheduler "z004" with entities [LocalPlayer, LocalPlayer], work=[81*, 0*]
 78: 0x0508 [0x55] WAIT_LOAD_SCHEDULER: Wait for scheduler "z004" with entities [LocalPlayer, LocalPlayer], work=81*
 79: 0x0517 [0x2A] GET_REQ_LEVEL(level=3, entity_id=Makki-Chebukki (ID: 17780819/0x010F5053))
 80: 0x051D [0x1C] WAIT(30* ticks)
 81: 0x0520 [0x81] SET_ENTITY_BLINKING(blink_flag=0x00, entity=Nag'molada (ID: 17780820/0x010F5054))
 82: 0x0526 [0x5D] SET_MUSIC_VOLUME(volume=0*, fade_time=300*)
 83: 0x052B [0x45] LOAD_SCHEDULED_TASK: Load scheduler "z005" with entities [LocalPlayer, LocalPlayer], work=[81*, 0*]
 84: 0x053C [0x55] WAIT_LOAD_SCHEDULER: Wait for scheduler "z005" with entities [LocalPlayer, LocalPlayer], work=81*
 85: 0x054B [0x1C] WAIT(10* ticks)
 86: 0x054E [0x2B] Nag'molada (ID: 17780820/0x010F5054) [8700*]:
     "It is all working as planned. Now, I will finally retrieve what is mine."
 87: 0x0555 [0x1C] WAIT(30* ticks)
 88: 0x0558 [0x7B] Nag'molada (ID: 17780820/0x010F5054) stops talking
 89: 0x055D [0x23] WAIT_FOR_DIALOG_INTERACTION
