# Event 5036

## Metadata

| Field           | Value    |
|-----------------|----------|
| Event Index     | 7/14     |
| Offset          | 0x0099   |
| Data Size       | 33 bytes |
| Calculated Size | 33 bytes |
| Instructions    | 11       |

```
      00 01 02 03 04 05 06 07  08 09 0A 0B 0C 0D 0E 0F
      -- -- -- -- -- -- -- --  -- -- -- -- -- -- -- --
0090:                             1E F0 FF FF 7F 6F 70           .....op
00A0: 2B 75 20 03 01 0F 80 23  2B 75 20 03 01 10 80 23  +u ....#+u ....#
00B0: 2B 75 20 03 01 11 80 23  21 00                    +u ....#!.      
```

## Opcodes

```
  0: 0x0099 [0x1E] EventEntity looks at LocalPlayer and starts talking
  1: 0x009E [0x6F] WAIT_FRAME_DELAY: Yield until WaitTime reaches zero
  2: 0x009F [0x70] WAIT_ENTITY_RENDER_FLAG: Wait while EventEntity->Render.Flags3 bit 2 is set (cancel turn if not)
  3: 0x00A0 [0x2B] Nafiwaa (ID: 16982133/0x01032075) [10836*]:
    → "\u0008.\u0007I would like you to use the test tubes I gave you to collect water from the Mythralline Wellsprings.\u007F1\u0000\u0007"
  4: 0x00A7 [0x23] WAIT_FOR_DIALOG_INTERACTION
  5: 0x00A8 [0x2B] Nafiwaa (ID: 16982133/0x01032075) [10837*]:
    → "There are five locations: four in the Wajaom Woodlands, and one in Bhaflau Thickets.\u007F1\u0000\u0007"
  6: 0x00AF [0x23] WAIT_FOR_DIALOG_INTERACTION
  7: 0x00B0 [0x2B] Nafiwaa (ID: 16982133/0x01032075) [10838*]:
    → "The waters of each spring differ slightly in composition, so please make sure you collect samples from all five locations.\u007F1\u0000\u0007"
  8: 0x00B7 [0x23] WAIT_FOR_DIALOG_INTERACTION
  9: 0x00B8 [0x21] END_EVENT
 10: 0x00B9 [0x00] END_REQSTACK()
```
