# Event 76

## Metadata

| Field           | Value    |
|-----------------|----------|
| Event Index     | 11/20    |
| Offset          | 0x00A9   |
| Data Size       | 17 bytes |
| Calculated Size | 17 bytes |
| Instructions    | 9        |

```
      00 01 02 03 04 05 06 07  08 09 0A 0B 0C 0D 0E 0F
      -- -- -- -- -- -- -- --  -- -- -- -- -- -- -- --
00A0:                             1E F0 FF FF 7F 6F 70           .....op
00B0: 1D 11 80 23 1D 12 80 23  21 00                    ...#...#!.      
```

## Opcodes

```
  0: 0x00A9 [0x1E] EventEntity looks at LocalPlayer and starts talking
  1: 0x00AE [0x6F] WAIT_FRAME_DELAY: Yield until WaitTime reaches zero
  2: 0x00AF [0x70] WAIT_ENTITY_RENDER_FLAG: Wait while EventEntity->Render.Flags3 bit 2 is set (cancel turn if not)
  3: 0x00B0 [0x1D] PRINT_EVENT_MESSAGE(message_id=9192*)
    → "Currently I am suggesting we sell all the weapons we purchased so far, but it's a pity we have to sell low what we bought high. Now I know how you adventurers must feel.\u007F1\u0000\u0007"
  4: 0x00B3 [0x23] WAIT_FOR_DIALOG_INTERACTION
  5: 0x00B4 [0x1D] PRINT_EVENT_MESSAGE(message_id=9193*)
    → "My son and I are going fishing. I keep wanting to take the best pole for myself, but I am not who I once was. We will catch a big one with the same pole!\u007F1\u0000\u0007"
  6: 0x00B7 [0x23] WAIT_FOR_DIALOG_INTERACTION
  7: 0x00B8 [0x21] END_EVENT
  8: 0x00B9 [0x00] END_REQSTACK()
```
