# Event 946

## Metadata

| Field           | Value    |
|-----------------|----------|
| Event Index     | 16/20    |
| Offset          | 0x0109   |
| Data Size       | 19 bytes |
| Calculated Size | 19 bytes |
| Instructions    | 9        |

```
      00 01 02 03 04 05 06 07  08 09 0A 0B 0C 0D 0E 0F
      -- -- -- -- -- -- -- --  -- -- -- -- -- -- -- --
0100:                             20 01 1E F0 FF FF 7F            ......
0110: 1D 14 80 23 1D 15 80 23  20 00 21 00              ...#...# .!.    
```

## Opcodes

```
  0: 0x0109 [0x20] SET_CLI_EVENT_UC_FLAG: Lock player control
  1: 0x010B [0x1E] EventEntity looks at LocalPlayer and starts talking
  2: 0x0110 [0x1D] PRINT_EVENT_MESSAGE(message_id=14003*)
    → "What's that? You wish to hear of my father?\u0007Forgive me, but I'm far too busy to indulge in idle reminiscing.\u007F1\u0000\u0007"
  3: 0x0113 [0x23] WAIT_FOR_DIALOG_INTERACTION
  4: 0x0114 [0x1D] PRINT_EVENT_MESSAGE(message_id=14004*)
    → "Perhaps you can seek out my son Ailbeche.\u0007The boy was quite close to his grandfather.\u007F1\u0000\u0007"
  5: 0x0117 [0x23] WAIT_FOR_DIALOG_INTERACTION
  6: 0x0118 [0x20] SET_CLI_EVENT_UC_FLAG: Unlock player control
  7: 0x011A [0x21] END_EVENT
  8: 0x011B [0x00] END_REQSTACK()
```
