# Event 65535

## Metadata

| Field           | Value    |
|-----------------|----------|
| Event Index     | 11/15    |
| Offset          | 0x0095   |
| Data Size       | 53 bytes |
| Calculated Size | 53 bytes |
| Instructions    | 10       |

```
      00 01 02 03 04 05 06 07  08 09 0A 0B 0C 0D 0E 0F
      -- -- -- -- -- -- -- --  -- -- -- -- -- -- -- --
0090:                1C 12 80  4A 97 40 0F 01 95 40 0F       ...J.@...@.
00A0: 01 6F 76 97 40 0F 01 1C  13 80 4A F0 FF FF 7F 95  .ov.@.....J.....
00B0: 40 0F 01 1C 14 80 4A 8F  40 0F 01 95 40 0F 01 79  @.....J.@...@..y
00C0: 00 01 40 0F 01 95 40 0F  01 00                    ..@...@...      
```

## Opcodes

```
  0: 0x0095 [0x1C] WAIT(90* ticks)
  1: 0x0098 [0x4A] Pembroke (ID: 17776791/0x010F4097) looks at Pheauclemand (ID: 17776789/0x010F4095)
  2: 0x00A1 [0x6F] WAIT_FRAME_DELAY: Yield until WaitTime reaches zero
  3: 0x00A2 [0x76] CHECK_ENTITY_RENDER_FLAGS: Wait until Pembroke (ID: 17776791/0x010F4097) Render.Flags0 and Render.Flags3 conditions are met
  4: 0x00A7 [0x1C] WAIT(5* ticks)
  5: 0x00AA [0x4A] LocalPlayer looks at Pheauclemand (ID: 17776789/0x010F4095)
  6: 0x00B3 [0x1C] WAIT(15* ticks)
  7: 0x00B6 [0x4A] Unnamed NPC (ID: 17776783/0x010F408F) looks at Pheauclemand (ID: 17776789/0x010F4095)
  8: 0x00BF [0x79] Monberaux (ID: 17776641/0x010F4001) looks at Pheauclemand (ID: 17776789/0x010F4095) (Basic look)
  9: 0x00C9 [0x00] END_REQSTACK()
```
