# Event 65535

## Metadata

| Field           | Value    |
|-----------------|----------|
| Event Index     | 9/15     |
| Offset          | 0x004E   |
| Data Size       | 45 bytes |
| Calculated Size | 45 bytes |
| Instructions    | 8        |

```
      00 01 02 03 04 05 06 07  08 09 0A 0B 0C 0D 0E 0F
      -- -- -- -- -- -- -- --  -- -- -- -- -- -- -- --
0040:                                            79 00                y.
0050: 97 40 0F 01 9C 40 0F 01  1C 0F 80 79 00 97 40 0F  .@...@.....y..@.
0060: 01 9D 40 0F 01 1C 0F 80  79 00 97 40 0F 01 9C 40  ..@.....y..@...@
0070: 0F 01 1C 0D 80 7B 97 40  0F 01 00                 .....{.@...     
```

## Opcodes

```
  0: 0x004E [0x79] Pembroke (ID: 17776791/0x010F4097) looks at Unnamed NPC (ID: 17776796/0x010F409C) (Basic look)
  1: 0x0058 [0x1C] WAIT(60* ticks)
  2: 0x005B [0x79] Pembroke (ID: 17776791/0x010F4097) looks at Unnamed NPC (ID: 17776797/0x010F409D) (Basic look)
  3: 0x0065 [0x1C] WAIT(60* ticks)
  4: 0x0068 [0x79] Pembroke (ID: 17776791/0x010F4097) looks at Unnamed NPC (ID: 17776796/0x010F409C) (Basic look)
  5: 0x0072 [0x1C] WAIT(45* ticks)
  6: 0x0075 [0x7B] Pembroke (ID: 17776791/0x010F4097) stops talking
  7: 0x007A [0x00] END_REQSTACK()
```
