# Event 142

## Metadata

| Field           | Value    |
|-----------------|----------|
| Event Index     | 6/104    |
| Offset          | 0x00C4   |
| Data Size       | 35 bytes |
| Calculated Size | 35 bytes |
| Instructions    | 12       |

```
      00 01 02 03 04 05 06 07  08 09 0A 0B 0C 0D 0E 0F
      -- -- -- -- -- -- -- --  -- -- -- -- -- -- -- --
00C0:             20 01 1E F0  FF FF 7F 6F 70 66 00 80       ......opf..
00D0: F8 FF FF 7F F8 FF FF 7F  74 6C 6B 30 1D 0D 80 23  ........tlk0...#
00E0: 1D 0E 80 23 21 00 00                              ...#!..         
```

## Opcodes

```
  0: 0x00C4 [0x20] SET_CLI_EVENT_UC_FLAG: Lock player control
  1: 0x00C6 [0x1E] EventEntity looks at LocalPlayer and starts talking
  2: 0x00CB [0x6F] WAIT_FRAME_DELAY: Yield until WaitTime reaches zero
  3: 0x00CC [0x70] WAIT_ENTITY_RENDER_FLAG: Wait while EventEntity->Render.Flags3 bit 2 is set (cancel turn if not)
  4: 0x00CD [0x66] LOAD_EXT_SCHEDULER_MAIN: Load scheduler "tlk0" with entities [EventEntity, EventEntity], work=20*
  5: 0x00DC [0x1D] PRINT_EVENT_MESSAGE(message_id=8058*)
    → "Huh? The bard interred inside Eldieme? Yeah, he was executed in San d'Oria for committing a serious crime!\u007F1\u0000\u0007"
  6: 0x00DF [0x23] WAIT_FOR_DIALOG_INTERACTION
  7: 0x00E0 [0x1D] PRINT_EVENT_MESSAGE(message_id=8059*)
    → "So you're off to pray at his grave, huh? Be careful! You never know what evil lurks in those halls!\u007F1\u0000\u0007"
  8: 0x00E3 [0x23] WAIT_FOR_DIALOG_INTERACTION
  9: 0x00E4 [0x21] END_EVENT
 10: 0x00E5 [0x00] END_REQSTACK()
```

## Data or dead code:

```
# Dead code (unreachable instructions):
     0x00E6 [0x00] END_REQSTACK()
```