# Event 143

## Metadata

| Field           | Value    |
|-----------------|----------|
| Event Index     | 5/104    |
| Offset          | 0x0097   |
| Data Size       | 45 bytes |
| Calculated Size | 45 bytes |
| Instructions    | 13       |

```
      00 01 02 03 04 05 06 07  08 09 0A 0B 0C 0D 0E 0F
      -- -- -- -- -- -- -- --  -- -- -- -- -- -- -- --
0090:                      20  01 1E F0 FF FF 7F 6F 70          ......op
00A0: 66 00 80 F8 FF FF 7F F8  FF FF 7F 74 6C 6B 30 02  f..........tlk0.
00B0: 86 7F 0A 80 00 BE 00 1D  0B 80 23 01 C2 00 1D 0C  ..........#.....
00C0: 80 23 21 00                                       .#!.            
```

## Opcodes

```
  0: 0x0097 [0x20] SET_CLI_EVENT_UC_FLAG: Lock player control
  1: 0x0099 [0x1E] EventEntity looks at LocalPlayer and starts talking
  2: 0x009E [0x6F] WAIT_FRAME_DELAY: Yield until WaitTime reaches zero
  3: 0x009F [0x70] WAIT_ENTITY_RENDER_FLAG: Wait while EventEntity->Render.Flags3 bit 2 is set (cancel turn if not)
  4: 0x00A0 [0x66] LOAD_EXT_SCHEDULER_MAIN: Load scheduler "tlk0" with entities [EventEntity, EventEntity], work=20*
  5: 0x00AF [0x02] IF !(LocalPlayer->JobId == 10*) GOTO 0x00BE
  6: 0x00B7 [0x1D] PRINT_EVENT_MESSAGE(message_id=7431*)
    → "So now you're one of us, huh? Well, may we bring much harmony to this world!\u007F1\u0000\u0007"
  7: 0x00BA [0x23] WAIT_FOR_DIALOG_INTERACTION
  8: 0x00BB [0x01] GOTO 0x00C2
  9: 0x00BE [0x1D] PRINT_EVENT_MESSAGE(message_id=7432*)
    → "What? You could be such a fine bard! What are you thinking? We could bring so much harmony to this world!\u007F1\u0000\u0007"
 10: 0x00C1 [0x23] WAIT_FOR_DIALOG_INTERACTION

SUBROUTINE_00C2:
 11: 0x00C2 [0x21] END_EVENT
 12: 0x00C3 [0x00] END_REQSTACK()
```
