# Event 65535

## Metadata

| Field           | Value    |
|-----------------|----------|
| Event Index     | 46/57    |
| Offset          | 0x04D5   |
| Data Size       | 49 bytes |
| Calculated Size | 49 bytes |
| Instructions    | 10       |

```
      00 01 02 03 04 05 06 07  08 09 0A 0B 0C 0D 0E 0F
      -- -- -- -- -- -- -- --  -- -- -- -- -- -- -- --
04D0:                59 04 F8  FF FF 7F 22 80 1F 00 72       Y....."...r
04E0: 80 73 80 66 80 1F 01 1F  00 74 80 75 80 66 80 1F  .s.f.....t.u.f..
04F0: 01 1F 00 76 80 77 80 66  80 1F 01 6F 4A F0 FF FF  ...v.w.f...oJ...
0500: 7F 9B F3 05 01 00                                 ......          
```

## Opcodes

```
  0: 0x04D5 [0x59] UPDATE_ENTITY_DATA: Set EventEntity main speed = 13* * 0.1
  1: 0x04DD [0x1F] MOVE_ENTITY: EventEntity moves to X=8.696*, Z=-5.666*, Y=0.749*
  2: 0x04E5 [0x1F] MOVE_ENTITY: Update entity position (mode=1)
  3: 0x04E7 [0x1F] MOVE_ENTITY: EventEntity moves to X=9.705*, Z=-3.286*, Y=0.749*
  4: 0x04EF [0x1F] MOVE_ENTITY: Update entity position (mode=1)
  5: 0x04F1 [0x1F] MOVE_ENTITY: EventEntity moves to X=9.123*, Z=-1.841*, Y=0.749*
  6: 0x04F9 [0x1F] MOVE_ENTITY: Update entity position (mode=1)
  7: 0x04FB [0x6F] WAIT_FRAME_DELAY: Yield until WaitTime reaches zero
  8: 0x04FC [0x4A] LocalPlayer looks at Lehko Habhoka (ID: 17167259/0x0105F39B)
  9: 0x0505 [0x00] END_REQSTACK()
```
