# Event 65535

## Metadata

| Field           | Value    |
|-----------------|----------|
| Event Index     | 44/57    |
| Offset          | 0x0423   |
| Data Size       | 75 bytes |
| Calculated Size | 75 bytes |
| Instructions    | 15       |

```
      00 01 02 03 04 05 06 07  08 09 0A 0B 0C 0D 0E 0F
      -- -- -- -- -- -- -- --  -- -- -- -- -- -- -- --
0420:          06 09 10 59 04  F8 FF FF 7F 60 80 1F 00     ...Y.....`...
0430: 61 80 62 80 63 80 1F 01  1F 00 64 80 65 80 66 80  a.b.c.....d.e.f.
0440: 1F 01 79 00 F0 FF FF 7F  9B F3 05 01 1F 00 67 80  ..y...........g.
0450: 68 80 66 80 1F 01 1F 00  69 80 6A 80 66 80 1F 01  h.f.....i.j.f...
0460: 6F 05 09 10 4A F0 FF FF  7F 9B F3 05 01 00        o...J.........  
```

## Opcodes

```
  0: 0x0423 [0x06] Work_Zone[9] = 0
  1: 0x0426 [0x59] UPDATE_ENTITY_DATA: Set EventEntity main speed = 15* * 0.1
  2: 0x042E [0x1F] MOVE_ENTITY: EventEntity moves to X=1.409*, Z=-16.284*, Y=0.694*
  3: 0x0436 [0x1F] MOVE_ENTITY: Update entity position (mode=1)
  4: 0x0438 [0x1F] MOVE_ENTITY: EventEntity moves to X=2.496*, Z=-13.505*, Y=0.749*
  5: 0x0440 [0x1F] MOVE_ENTITY: Update entity position (mode=1)
  6: 0x0442 [0x79] LocalPlayer looks at Lehko Habhoka (ID: 17167259/0x0105F39B) (Basic look)
  7: 0x044C [0x1F] MOVE_ENTITY: EventEntity moves to X=4.049*, Z=-11.807*, Y=0.749*
  8: 0x0454 [0x1F] MOVE_ENTITY: Update entity position (mode=1)
  9: 0x0456 [0x1F] MOVE_ENTITY: EventEntity moves to X=6.100*, Z=-8.689*, Y=0.749*
 10: 0x045E [0x1F] MOVE_ENTITY: Update entity position (mode=1)
 11: 0x0460 [0x6F] WAIT_FRAME_DELAY: Yield until WaitTime reaches zero
 12: 0x0461 [0x05] Work_Zone[9] = 1
 13: 0x0464 [0x4A] LocalPlayer looks at Lehko Habhoka (ID: 17167259/0x0105F39B)
 14: 0x046D [0x00] END_REQSTACK()
```
