# Event 65535

## Metadata

| Field           | Value    |
|-----------------|----------|
| Event Index     | 47/57    |
| Offset          | 0x0506   |
| Data Size       | 61 bytes |
| Calculated Size | 61 bytes |
| Instructions    | 14       |

```
      00 01 02 03 04 05 06 07  08 09 0A 0B 0C 0D 0E 0F
      -- -- -- -- -- -- -- --  -- -- -- -- -- -- -- --
0500:                   06 09  10 59 04 F8 FF FF 7F 22        ...Y....."
0510: 80 1F 00 78 80 79 80 66  80 1F 01 1F 00 7A 80 7B  ...x.y.f.....z.{
0520: 80 7C 80 1F 01 1F 00 7D  80 7E 80 66 80 1F 01 6F  .|.....}.~.f...o
0530: 4A F0 FF FF 7F 9B F3 05  01 6F 76 F0 FF FF 7F 05  J........ov.....
0540: 09 10 00                                          ...             
```

## Opcodes

```
  0: 0x0506 [0x06] Work_Zone[9] = 0
  1: 0x0509 [0x59] UPDATE_ENTITY_DATA: Set EventEntity main speed = 13* * 0.1
  2: 0x0511 [0x1F] MOVE_ENTITY: EventEntity moves to X=10.166*, Z=5.981*, Y=0.749*
  3: 0x0519 [0x1F] MOVE_ENTITY: Update entity position (mode=1)
  4: 0x051B [0x1F] MOVE_ENTITY: EventEntity moves to X=7.384*, Z=7.623*, Y=0.530*
  5: 0x0523 [0x1F] MOVE_ENTITY: Update entity position (mode=1)
  6: 0x0525 [0x1F] MOVE_ENTITY: EventEntity moves to X=5.197*, Z=9.014*, Y=0.749*
  7: 0x052D [0x1F] MOVE_ENTITY: Update entity position (mode=1)
  8: 0x052F [0x6F] WAIT_FRAME_DELAY: Yield until WaitTime reaches zero
  9: 0x0530 [0x4A] LocalPlayer looks at Lehko Habhoka (ID: 17167259/0x0105F39B)
 10: 0x0539 [0x6F] WAIT_FRAME_DELAY: Yield until WaitTime reaches zero
 11: 0x053A [0x76] CHECK_ENTITY_RENDER_FLAGS: Wait until LocalPlayer Render.Flags0 and Render.Flags3 conditions are met
 12: 0x053F [0x05] Work_Zone[9] = 1
 13: 0x0542 [0x00] END_REQSTACK()
```
