# Event 65535

## Metadata

| Field           | Value    |
|-----------------|----------|
| Event Index     | 78/78    |
| Offset          | 0x04CF   |
| Data Size       | 63 bytes |
| Calculated Size | 63 bytes |
| Instructions    | 13       |

```
      00 01 02 03 04 05 06 07  08 09 0A 0B 0C 0D 0E 0F
      -- -- -- -- -- -- -- --  -- -- -- -- -- -- -- --
04C0:                                               32                 2
04D0: 00 80 1F 00 0E 80 0F 80  10 80 1F 01 1F 00 11 80  ................
04E0: 12 80 13 80 1F 01 6F 1E  36 C0 11 01 6F 70 1C 14  ......o.6...op..
04F0: 80 66 00 80 F8 FF FF 7F  F8 FF FF 7F 70 6F 69 30  .f..........poi0
0500: 53 F8 FF FF 7F F8 FF FF  7F 70 6F 69 30 00        S........poi0.  
```

## Opcodes

```
  0: 0x04CF [0x32] ExtData[1]->MainSpeed = 40* * 0.1
  1: 0x04D2 [0x1F] MOVE_ENTITY: EventEntity moves to X=-57.134*, Z=-14.341*, Y=11.982*
  2: 0x04DA [0x1F] MOVE_ENTITY: Update entity position (mode=1)
  3: 0x04DC [0x1F] MOVE_ENTITY: EventEntity moves to X=-59.893*, Z=-11.233*, Y=12.106*
  4: 0x04E4 [0x1F] MOVE_ENTITY: Update entity position (mode=1)
  5: 0x04E6 [0x6F] WAIT_FRAME_DELAY: Yield until WaitTime reaches zero
  6: 0x04E7 [0x1E] EventEntity looks at Garazu-Horeizu (ID: 17940534/0x0111C036) and starts talking
  7: 0x04EC [0x6F] WAIT_FRAME_DELAY: Yield until WaitTime reaches zero
  8: 0x04ED [0x70] WAIT_ENTITY_RENDER_FLAG: Wait while EventEntity->Render.Flags3 bit 2 is set (cancel turn if not)
  9: 0x04EE [0x1C] WAIT(30* ticks)
 10: 0x04F1 [0x66] LOAD_EXT_SCHEDULER_MAIN(work_offset=40*, entity1=EventEntity, entity2=EventEntity, action="poi0")
 11: 0x0500 [0x53] WAIT_SCHEDULER_TASK(entity1=EventEntity, entity2=EventEntity, action_id="poi0")
 12: 0x050D [0x00] END_REQSTACK()
```
