# Event 10015

## Metadata

| Field           | Value    |
|-----------------|----------|
| Event Index     | 3/6      |
| Offset          | 0x0032   |
| Data Size       | 50 bytes |
| Calculated Size | 50 bytes |
| Instructions    | 17       |

```
      00 01 02 03 04 05 06 07  08 09 0A 0B 0C 0D 0E 0F
      -- -- -- -- -- -- -- --  -- -- -- -- -- -- -- --
0030:       1E F0 FF FF 7F 1D  03 80 23 1D 04 80 23 24    ........#...#$
0040: 05 80 06 80 07 80 25 02  00 10 07 80 00 5D 00 1D  ......%......]..
0050: 08 80 23 03 01 10 07 80  21 00 01 5D 00 03 01 10  ..#.....!..]....
0060: 09 80 21 00                                       ..!.            
```

## Opcodes

```
  0: 0x0032 [0x1E] EventEntity looks at LocalPlayer and starts talking
  1: 0x0037 [0x1D] PRINT_EVENT_MESSAGE(message_id=12790*)
    → "Your client's name is Wanzo-Unzozo. He should be waiting just inside the citadel's entrrrance.\u007F1\u0000\u0007"
  2: 0x003A [0x23] WAIT_FOR_DIALOG_INTERACTION
  3: 0x003B [0x1D] PRINT_EVENT_MESSAGE(message_id=12791*)
    → "Whoa, hold on.\u0007You're not thinking of slitherrring your way out of this job, are you?\u007F1\u0000\u0007"
  4: 0x003E [0x23] WAIT_FOR_DIALOG_INTERACTION
  5: 0x003F [0x24] CREATE_DIALOG(message_id=12792*, default_option=1*, option_flags=0*)
    → "Slithering your way out?\u0007\u000BLike a snake.\u0007Not at all.\u007F1\u0000\u0007"
  6: 0x0046 [0x25] WAIT_DIALOG_SELECT()
  7: 0x0047 [0x02] IF !(Work_Zone[0] == 0*) GOTO 0x005D
  8: 0x004F [0x1D] PRINT_EVENT_MESSAGE(message_id=12793*)
    → "I knew it! I don't know why I ever trusted you in the firrrst place...\u007F1\u0000\u0007"
  9: 0x0052 [0x23] WAIT_FOR_DIALOG_INTERACTION
 10: 0x0053 [0x03] Work_Zone[1] = 0*
 11: 0x0058 [0x21] END_EVENT
 12: 0x0059 [0x00] END_REQSTACK()

SUBROUTINE_005D:
 13: 0x005D [0x03] Work_Zone[1] = 1073741824*
 14: 0x0062 [0x21] END_EVENT
 15: 0x0063 [0x00] END_REQSTACK()
```

## Data or dead code:

```
# Dead code (unreachable instructions):
     0x005A [0x01] GOTO 0x005D
```