# 17391832 - Lion

## Common Data

| Field            | Value                     |
|------------------|---------------------------|
| Zone             | Monastic Cavern (ID: 150) |
| Block Size       | 260 bytes                 |
| Total Events     | 10                        |
| References Count | 16                        |

## List of Events

| Event ID                 | Entrypoint   |   Size |   Instructions |
|--------------------------|--------------|--------|----------------|
| [65535](#event-65535)    | 0x0000       |      1 |              1 |
| [0](#event-0)            | 0x0001       |      1 |              1 |
| [1](#event-1)            | 0x0002       |      1 |              1 |
| [65535.1](#event-655351) | 0x0003       |     18 |              4 |
| [65535.2](#event-655352) | 0x0015       |     14 |              4 |
| [65535.3](#event-655353) | 0x0023       |     19 |              4 |
| [65535.4](#event-655354) | 0x0036       |     11 |              2 |
| [65535.5](#event-655355) | 0x0041       |     16 |              3 |
| [65535.6](#event-655356) | 0x0051       |      5 |              3 |
| [65535.7](#event-655357) | 0x0056       |     51 |             11 |

## DAT References (imed_data)

|   Index | Hex Value   |   Dec Value |
|---------|-------------|-------------|
|       0 | 0xFFFD9860  |  4294809696 |
|       1 | 0xFFFFF04E  |  4294963278 |
|       2 | 0xFFFFE245  |  4294959685 |
|       3 | 0x0B6E      |        2926 |
|       4 | 0x000D      |          13 |
|       5 | 0xFFFD9077  |  4294807671 |
|       6 | 0x112B      |        4395 |
|       7 | 0xFFFFE2AC  |  4294959788 |
|       8 | 0x003C      |          60 |
|       9 | 0x1C7F      |        7295 |
|      10 | 0x1C80      |        7296 |
|      11 | 0x00C8      |         200 |
|      12 | 0x0000      |           0 |
|      13 | 0xFFFD97E0  |  4294809568 |
|      14 | 0xFFFFF411  |  4294964241 |
|      15 | 0xFFFFE27E  |  4294959742 |

## String References

- **7295**: The Shadow Lord? It can't be! His powers have returned!
- **7296**: Then it is true! The beastmen are trying to resurrect the Shadow Lord.

## Events

### Event 65535

#### Metadata

| Field        | Value   |
|--------------|---------|
| Entrypoint   | 0x0000  |
| Data Size    | 1 bytes |
| Instructions | 1       |

```
      00 01 02 03 04 05 06 07  08 09 0A 0B 0C 0D 0E 0F
      -- -- -- -- -- -- -- --  -- -- -- -- -- -- -- --
0000: 00                                                .               
```

#### Opcodes

```
  0: 0x0000 [0x00] END_REQSTACK()
```

### Event 0

#### Metadata

| Field        | Value   |
|--------------|---------|
| Entrypoint   | 0x0001  |
| Data Size    | 1 bytes |
| Instructions | 1       |

```
      00 01 02 03 04 05 06 07  08 09 0A 0B 0C 0D 0E 0F
      -- -- -- -- -- -- -- --  -- -- -- -- -- -- -- --
0000:    00                                              .              
```

#### Opcodes

```
  0: 0x0001 [0x00] END_REQSTACK()
```

### Event 1

#### Metadata

| Field        | Value   |
|--------------|---------|
| Entrypoint   | 0x0002  |
| Data Size    | 1 bytes |
| Instructions | 1       |

```
      00 01 02 03 04 05 06 07  08 09 0A 0B 0C 0D 0E 0F
      -- -- -- -- -- -- -- --  -- -- -- -- -- -- -- --
0000:       00                                            .             
```

#### Opcodes

```
  0: 0x0002 [0x00] END_REQSTACK()
```

### Event 65535.1

#### Metadata

| Field        | Value    |
|--------------|----------|
| Entrypoint   | 0x0003   |
| Data Size    | 18 bytes |
| Instructions | 4        |

```
      00 01 02 03 04 05 06 07  08 09 0A 0B 0C 0D 0E 0F
      -- -- -- -- -- -- -- --  -- -- -- -- -- -- -- --
0000:          2F 00 D8 60 09  01 22 00 37 00 80 01 80     /..`..".7....
0010: 02 80 03 80 00                                    .....           
```

#### Opcodes

```
  0: 0x0003 [0x2F] Lion (ID: 17391832/0x010960D8)->Render.Flags0 &= ~0x80000 // Bit 19
  1: 0x0009 [0x22] ENTITY_HIDE_FLAG(enabled=0x00)
  2: 0x000B [0x37] UPDATE_EVENT_POSITION_AND_DIR: x=-157.600*, z=-4.018*, y=-7.611*, direction=257.2°*
  3: 0x0014 [0x00] END_REQSTACK()
```

### Event 65535.2

#### Metadata

| Field        | Value    |
|--------------|----------|
| Entrypoint   | 0x0015   |
| Data Size    | 14 bytes |
| Instructions | 4        |

```
      00 01 02 03 04 05 06 07  08 09 0A 0B 0C 0D 0E 0F
      -- -- -- -- -- -- -- --  -- -- -- -- -- -- -- --
0010:                32 04 80  1F 00 05 80 06 80 07 80       2..........
0020: 1F 01 00                                          ...             
```

#### Opcodes

```
  0: 0x0015 [0x32] ExtData[1]->MainSpeed = 13* * 0.1
  1: 0x0018 [0x1F] MOVE_ENTITY: EventEntity moves to X=-159.625*, Z=4.395*, Y=-7.508*
  2: 0x0020 [0x1F] MOVE_ENTITY: Update entity position (mode=1)
  3: 0x0022 [0x00] END_REQSTACK()
```

### Event 65535.3

#### Metadata

| Field        | Value    |
|--------------|----------|
| Entrypoint   | 0x0023   |
| Data Size    | 19 bytes |
| Instructions | 4        |

```
      00 01 02 03 04 05 06 07  08 09 0A 0B 0C 0D 0E 0F
      -- -- -- -- -- -- -- --  -- -- -- -- -- -- -- --
0020:          79 00 D8 60 09  01 DA 60 09 01 1C 08 80     y..`...`.....
0030: 7B D8 60 09 01 00                                 {.`...          
```

#### Opcodes

```
  0: 0x0023 [0x79] Lion (ID: 17391832/0x010960D8) looks at Unnamed NPC (ID: 17391834/0x010960DA) (Basic look)
  1: 0x002D [0x1C] WAIT(60* ticks)
  2: 0x0030 [0x7B] Lion (ID: 17391832/0x010960D8) stops talking
  3: 0x0035 [0x00] END_REQSTACK()
```

### Event 65535.4

#### Metadata

| Field        | Value    |
|--------------|----------|
| Entrypoint   | 0x0036   |
| Data Size    | 11 bytes |
| Instructions | 2        |

```
      00 01 02 03 04 05 06 07  08 09 0A 0B 0C 0D 0E 0F
      -- -- -- -- -- -- -- --  -- -- -- -- -- -- -- --
0030:                   79 00  D8 60 09 01 D7 60 09 01        y..`...`..
0040: 00                                                .               
```

#### Opcodes

```
  0: 0x0036 [0x79] Lion (ID: 17391832/0x010960D8) looks at Magicite (ID: 17391831/0x010960D7) (Basic look)
  1: 0x0040 [0x00] END_REQSTACK()
```

### Event 65535.5

#### Metadata

| Field        | Value    |
|--------------|----------|
| Entrypoint   | 0x0041   |
| Data Size    | 16 bytes |
| Instructions | 3        |

```
      00 01 02 03 04 05 06 07  08 09 0A 0B 0C 0D 0E 0F
      -- -- -- -- -- -- -- --  -- -- -- -- -- -- -- --
0040:    1E D9 60 09 01 79 00  D8 60 09 01 D9 60 09 01   ..`..y..`...`..
0050: 00                                                .               
```

#### Opcodes

```
  0: 0x0041 [0x1E] EventEntity looks at Shadow of Darkness (ID: 17391833/0x010960D9) and starts talking
  1: 0x0046 [0x79] Lion (ID: 17391832/0x010960D8) looks at Shadow of Darkness (ID: 17391833/0x010960D9) (Basic look)
  2: 0x0050 [0x00] END_REQSTACK()
```

### Event 65535.6

#### Metadata

| Field        | Value   |
|--------------|---------|
| Entrypoint   | 0x0051  |
| Data Size    | 5 bytes |
| Instructions | 3       |

```
      00 01 02 03 04 05 06 07  08 09 0A 0B 0C 0D 0E 0F
      -- -- -- -- -- -- -- --  -- -- -- -- -- -- -- --
0050:    1D 09 80 23 00                                  ...#.          
```

#### Opcodes

```
  0: 0x0051 [0x1D] PRINT_EVENT_MESSAGE(message_id=7295*)
    → "The Shadow Lord? It can't be! His powers have returned!"
  1: 0x0054 [0x23] WAIT_FOR_DIALOG_INTERACTION
  2: 0x0055 [0x00] END_REQSTACK()
```

### Event 65535.7

#### Metadata

| Field        | Value    |
|--------------|----------|
| Entrypoint   | 0x0056   |
| Data Size    | 51 bytes |
| Instructions | 11       |

```
      00 01 02 03 04 05 06 07  08 09 0A 0B 0C 0D 0E 0F
      -- -- -- -- -- -- -- --  -- -- -- -- -- -- -- --
0050:                   1E F0  FF FF 7F 1C 08 80 1D 0A        ..........
0060: 80 23 1C 08 80 45 0B 80  F8 FF FF 7F F8 FF FF 7F  .#...E..........
0070: 66 64 6F 31 0C 80 1F 00  0D 80 0E 80 0F 80 1F 01  fdo1............
0080: 2F 01 D8 60 09 01 22 01  00                       /..`.."..       
```

#### Opcodes

```
  0: 0x0056 [0x1E] EventEntity looks at LocalPlayer and starts talking
  1: 0x005B [0x1C] WAIT(60* ticks)
  2: 0x005E [0x1D] PRINT_EVENT_MESSAGE(message_id=7296*)
    → "Then it is true! The beastmen are trying to resurrect the Shadow Lord."
  3: 0x0061 [0x23] WAIT_FOR_DIALOG_INTERACTION
  4: 0x0062 [0x1C] WAIT(60* ticks)
  5: 0x0065 [0x45] LOAD_SCHEDULED_TASK: Load scheduler "fdo1" with entities [EventEntity, EventEntity], work=[200*, 0*]
  6: 0x0076 [0x1F] MOVE_ENTITY: EventEntity moves to X=-157.728*, Z=-3.055*, Y=-7.554*
  7: 0x007E [0x1F] MOVE_ENTITY: Update entity position (mode=1)
  8: 0x0080 [0x2F] Lion (ID: 17391832/0x010960D8)->Render.Flags0 |= 0x80000 // Bit 19
  9: 0x0086 [0x22] ENTITY_HIDE_FLAG(enabled=0x01)
 10: 0x0088 [0x00] END_REQSTACK()
```
