# 17391837 - Altar

## Common Data

| Field            | Value                     |
|------------------|---------------------------|
| Zone             | Monastic Cavern (ID: 150) |
| Block Size       | 92 bytes                  |
| Total Events     | 3                         |
| References Count | 5                         |

## List of Events

| Event ID                 | Entrypoint   |   Size |   Instructions |
|--------------------------|--------------|--------|----------------|
| [65535](#event-65535)    | 0x0000       |      1 |              1 |
| [3](#event-3)            | 0x0001       |      1 |              1 |
| [65535.1](#event-655351) | 0x0002       |     41 |              5 |

## DAT References (imed_data)

|   Index | Hex Value   |   Dec Value |
|---------|-------------|-------------|
|       0 | 0x0032      |          50 |
|       1 | 0x00C8      |         200 |
|       2 | 0x0000      |           0 |
|       3 | 0x000A      |          10 |
|       4 | 0x00D0      |         208 |

## Events

### Event 65535

#### Metadata

| Field        | Value   |
|--------------|---------|
| Entrypoint   | 0x0000  |
| Data Size    | 1 bytes |
| Instructions | 1       |

```
      00 01 02 03 04 05 06 07  08 09 0A 0B 0C 0D 0E 0F
      -- -- -- -- -- -- -- --  -- -- -- -- -- -- -- --
0000: 00                                                .               
```

#### Opcodes

```
  0: 0x0000 [0x00] END_REQSTACK()
```

### Event 3

#### Metadata

| Field        | Value   |
|--------------|---------|
| Entrypoint   | 0x0001  |
| Data Size    | 1 bytes |
| Instructions | 1       |

```
      00 01 02 03 04 05 06 07  08 09 0A 0B 0C 0D 0E 0F
      -- -- -- -- -- -- -- --  -- -- -- -- -- -- -- --
0000:    00                                              .              
```

#### Opcodes

```
  0: 0x0001 [0x00] END_REQSTACK()
```

### Event 65535.1

#### Metadata

| Field        | Value    |
|--------------|----------|
| Entrypoint   | 0x0002   |
| Data Size    | 41 bytes |
| Instructions | 5        |

```
      00 01 02 03 04 05 06 07  08 09 0A 0B 0C 0D 0E 0F
      -- -- -- -- -- -- -- --  -- -- -- -- -- -- -- --
0000:       1C 00 80 45 01 80  F0 FF FF 7F F0 FF FF 7F    ...E..........
0010: 6F 76 6C 31 02 80 1C 03  80 45 04 80 F0 FF FF 7F  ovl1.....E......
0020: F0 FF FF 7F 74 30 30 35  02 80 00                 ....t005...     
```

#### Opcodes

```
  0: 0x0002 [0x1C] WAIT(50* ticks)
  1: 0x0005 [0x45] LOAD_SCHEDULED_TASK: Load scheduler "ovl1" with entities [LocalPlayer, LocalPlayer], work=[200*, 0*]
  2: 0x0016 [0x1C] WAIT(10* ticks)
  3: 0x0019 [0x45] LOAD_SCHEDULED_TASK: Load scheduler "t005" with entities [LocalPlayer, LocalPlayer], work=[208*, 0*]
  4: 0x002A [0x00] END_REQSTACK()
```
