# 17391846 - Iru-Kuiru

## Common Data

| Field            | Value                     |
|------------------|---------------------------|
| Zone             | Monastic Cavern (ID: 150) |
| Block Size       | 232 bytes                 |
| Total Events     | 5                         |
| References Count | 22                        |

## List of Events

| Event ID                 | Entrypoint   |   Size |   Instructions |
|--------------------------|--------------|--------|----------------|
| [65535](#event-65535)    | 0x0000       |      1 |              1 |
| [0](#event-0)            | 0x0001       |     18 |              4 |
| [65535.1](#event-655351) | 0x0013       |     10 |              2 |
| [65535.2](#event-655352) | 0x001D       |     27 |              7 |
| [65535.3](#event-655353) | 0x0038       |     49 |             10 |

## DAT References (imed_data)

|   Index | Hex Value   |   Dec Value |
|---------|-------------|-------------|
|       0 | 0x0000      |           0 |
|       1 | 0x0001      |           1 |
|       2 | 0xFFFDD5F3  |  4294825459 |
|       3 | 0x1111D     |       69917 |
|       4 | 0xFFFF9177  |  4294938999 |
|       5 | 0x0B4A      |        2890 |
|       6 | 0x001E      |          30 |
|       7 | 0x0028      |          40 |
|       8 | 0x52F2F     |      339759 |
|       9 | 0xFFFA9760  |  4294612832 |
|      10 | 0xFFFFFA25  |  4294965797 |
|      11 | 0x53A84     |      342660 |
|      12 | 0xFFFAD957  |  4294629719 |
|      13 | 0xFFFFFF97  |  4294967191 |
|      14 | 0x0005      |           5 |
|      15 | 0xFFFDD4C5  |  4294825157 |
|      16 | 0x11533     |       70963 |
|      17 | 0xFFFF926E  |  4294939246 |
|      18 | 0xFFFDD3D1  |  4294824913 |
|      19 | 0x12382     |       74626 |
|      20 | 0xFFFF9426  |  4294939686 |
|      21 | 0x0031      |          49 |

## Events

### Event 65535

#### Metadata

| Field        | Value   |
|--------------|---------|
| Entrypoint   | 0x0000  |
| Data Size    | 1 bytes |
| Instructions | 1       |

```
      00 01 02 03 04 05 06 07  08 09 0A 0B 0C 0D 0E 0F
      -- -- -- -- -- -- -- --  -- -- -- -- -- -- -- --
0000: 00                                                .               
```

#### Opcodes

```
  0: 0x0000 [0x00] END_REQSTACK()
```

### Event 0

#### Metadata

| Field        | Value    |
|--------------|----------|
| Entrypoint   | 0x0001   |
| Data Size    | 18 bytes |
| Instructions | 4        |

```
      00 01 02 03 04 05 06 07  08 09 0A 0B 0C 0D 0E 0F
      -- -- -- -- -- -- -- --  -- -- -- -- -- -- -- --
0000:    22 00 2F 00 F8 FF FF  7F 6C F8 FF FF 7F 00 80   "./.....l......
0010: 01 80 00                                          ...             
```

#### Opcodes

```
  0: 0x0001 [0x22] ENTITY_HIDE_FLAG(enabled=0x00)
  1: 0x0003 [0x2F] EventEntity->Render.Flags0 &= ~0x80000 // Bit 19
  2: 0x0009 [0x6C] FADE_ENTITY_COLOR(entity_id=EventEntity, end_alpha=0*, fade_time=1*)
  3: 0x0012 [0x00] END_REQSTACK()
```

### Event 65535.1

#### Metadata

| Field        | Value    |
|--------------|----------|
| Entrypoint   | 0x0013   |
| Data Size    | 10 bytes |
| Instructions | 2        |

```
      00 01 02 03 04 05 06 07  08 09 0A 0B 0C 0D 0E 0F
      -- -- -- -- -- -- -- --  -- -- -- -- -- -- -- --
0010:          37 02 80 03 80  04 80 05 80 00              7.........   
```

#### Opcodes

```
  0: 0x0013 [0x37] UPDATE_EVENT_POSITION_AND_DIR: x=-141.837*, z=69.917*, y=-28.297*, direction=254.0°*
  1: 0x001C [0x00] END_REQSTACK()
```

### Event 65535.2

#### Metadata

| Field        | Value    |
|--------------|----------|
| Entrypoint   | 0x001D   |
| Data Size    | 27 bytes |
| Instructions | 7        |

```
      00 01 02 03 04 05 06 07  08 09 0A 0B 0C 0D 0E 0F
      -- -- -- -- -- -- -- --  -- -- -- -- -- -- -- --
0010:                                         1C 06 80               ...
0020: 32 07 80 1F 00 08 80 09  80 0A 80 1F 01 1F 00 0B  2...............
0030: 80 0C 80 0D 80 1F 01 00                           ........        
```

#### Opcodes

```
  0: 0x001D [0x1C] WAIT(30* ticks)
  1: 0x0020 [0x32] ExtData[1]->MainSpeed = 40* * 0.1
  2: 0x0023 [0x1F] MOVE_ENTITY: EventEntity moves to X=339.759*, Z=-354.464*, Y=-1.499*
  3: 0x002B [0x1F] MOVE_ENTITY: Update entity position (mode=1)
  4: 0x002D [0x1F] MOVE_ENTITY: EventEntity moves to X=342.660*, Z=-337.577*, Y=-0.105*
  5: 0x0035 [0x1F] MOVE_ENTITY: Update entity position (mode=1)
  6: 0x0037 [0x00] END_REQSTACK()
```

### Event 65535.3

#### Metadata

| Field        | Value    |
|--------------|----------|
| Entrypoint   | 0x0038   |
| Data Size    | 49 bytes |
| Instructions | 10       |

```
      00 01 02 03 04 05 06 07  08 09 0A 0B 0C 0D 0E 0F
      -- -- -- -- -- -- -- --  -- -- -- -- -- -- -- --
0030:                          32 0E 80 1F 00 0F 80 10          2.......
0040: 80 11 80 1F 01 1F 00 12  80 13 80 14 80 1F 01 6F  ...............o
0050: 1C 06 80 81 00 E6 60 09  01 66 15 80 E6 60 09 01  ......`..f...`..
0060: E6 60 09 01 74 68 6B 31  00                       .`..thk1.       
```

#### Opcodes

```
  0: 0x0038 [0x32] ExtData[1]->MainSpeed = 5* * 0.1
  1: 0x003B [0x1F] MOVE_ENTITY: EventEntity moves to X=-142.139*, Z=70.963*, Y=-28.050*
  2: 0x0043 [0x1F] MOVE_ENTITY: Update entity position (mode=1)
  3: 0x0045 [0x1F] MOVE_ENTITY: EventEntity moves to X=-142.383*, Z=74.626*, Y=-27.610*
  4: 0x004D [0x1F] MOVE_ENTITY: Update entity position (mode=1)
  5: 0x004F [0x6F] WAIT_FRAME_DELAY: Yield until WaitTime reaches zero
  6: 0x0050 [0x1C] WAIT(30* ticks)
  7: 0x0053 [0x81] SET_ENTITY_BLINKING(blink_flag=0x00, entity=Iru-Kuiru (ID: 17391846/0x010960E6))
  8: 0x0059 [0x66] LOAD_EXT_SCHEDULER_MAIN: Load scheduler "thk1" with entities [Iru-Kuiru (ID: 17391846/0x010960E6), Iru-Kuiru (ID: 17391846/0x010960E6)], work=49*
  9: 0x0068 [0x00] END_REQSTACK()
```
