# 17391838

## Common Data

| Field            | Value                     |
|------------------|---------------------------|
| Zone             | Monastic Cavern (ID: 150) |
| Block Size       | 116 bytes                 |
| Total Events     | 4                         |
| References Count | 6                         |

## List of Events

| Event ID                 | Entrypoint   |   Size |   Instructions |
|--------------------------|--------------|--------|----------------|
| [65535](#event-65535)    | 0x0000       |      1 |              1 |
| [3](#event-3)            | 0x0001       |     10 |              2 |
| [65535.1](#event-655351) | 0x000B       |     19 |              3 |
| [65535.2](#event-655352) | 0x001E       |     29 |              3 |

## DAT References (imed_data)

|   Index | Hex Value   |   Dec Value |
|---------|-------------|-------------|
|       0 | 0x1AA19     |      109081 |
|       1 | 0xFFFDC7A3  |  4294821795 |
|       2 | 0xFFFFF348  |  4294964040 |
|       3 | 0x0A0A      |        2570 |
|       4 | 0x007D      |         125 |
|       5 | 0x003C      |          60 |

## Events

### Event 65535

#### Metadata

| Field        | Value   |
|--------------|---------|
| Entrypoint   | 0x0000  |
| Data Size    | 1 bytes |
| Instructions | 1       |

```
      00 01 02 03 04 05 06 07  08 09 0A 0B 0C 0D 0E 0F
      -- -- -- -- -- -- -- --  -- -- -- -- -- -- -- --
0000: 00                                                .               
```

#### Opcodes

```
  0: 0x0000 [0x00] END_REQSTACK()
```

### Event 3

#### Metadata

| Field        | Value    |
|--------------|----------|
| Entrypoint   | 0x0001   |
| Data Size    | 10 bytes |
| Instructions | 2        |

```
      00 01 02 03 04 05 06 07  08 09 0A 0B 0C 0D 0E 0F
      -- -- -- -- -- -- -- --  -- -- -- -- -- -- -- --
0000:    37 00 80 01 80 02 80  03 80 00                  7.........     
```

#### Opcodes

```
  0: 0x0001 [0x37] UPDATE_EVENT_POSITION_AND_DIR: x=109.081*, z=-145.501*, y=-3.256*, direction=225.9°*
  1: 0x000A [0x00] END_REQSTACK()
```

### Event 65535.1

#### Metadata

| Field        | Value    |
|--------------|----------|
| Entrypoint   | 0x000B   |
| Data Size    | 19 bytes |
| Instructions | 3        |

```
      00 01 02 03 04 05 06 07  08 09 0A 0B 0C 0D 0E 0F
      -- -- -- -- -- -- -- --  -- -- -- -- -- -- -- --
0000:                                   5B 04 80 F8 FF             [....
0010: FF 7F F8 FF FF 7F 70 72  79 30 1C 05 80 00        ......pry0....  
```

#### Opcodes

```
  0: 0x000B [0x5B] LOAD_EXT_SCHEDULER: Load scheduler "pry0" with entities [EventEntity, EventEntity], work=125*
  1: 0x001A [0x1C] WAIT(60* ticks)
  2: 0x001D [0x00] END_REQSTACK()
```

### Event 65535.2

#### Metadata

| Field        | Value    |
|--------------|----------|
| Entrypoint   | 0x001E   |
| Data Size    | 29 bytes |
| Instructions | 3        |

```
      00 01 02 03 04 05 06 07  08 09 0A 0B 0C 0D 0E 0F
      -- -- -- -- -- -- -- --  -- -- -- -- -- -- -- --
0010:                                            5B 04                [.
0020: 80 F8 FF FF 7F F8 FF FF  7F 70 72 79 31 53 F8 FF  .........pry1S..
0030: FF 7F F8 FF FF 7F 70 72  79 31 00                 ......pry1.     
```

#### Opcodes

```
  0: 0x001E [0x5B] LOAD_EXT_SCHEDULER: Load scheduler "pry1" with entities [EventEntity, EventEntity], work=125*
  1: 0x002D [0x53] WAIT_SCHEDULER_TASK: Wait for scheduler "pry1" with entities [EventEntity, EventEntity]
  2: 0x003A [0x00] END_REQSTACK()
```
