# 0x7FFFFFF0 - Zone Events

## Common Data

| Field            | Value                     |
|------------------|---------------------------|
| Zone             | Monastic Cavern (ID: 150) |
| Block Size       | 4312 bytes                |
| Total Events     | 12                        |
| References Count | 129                       |

## List of Events

| Event ID                 | Entrypoint   |   Size |   Instructions |
|--------------------------|--------------|--------|----------------|
| [65535](#event-65535)    | 0x0000       |      1 |              1 |
| [65534](#event-65534)    | 0x0001       |      1 |              1 |
| [65535.1](#event-655351) | 0x0002       |     10 |              2 |
| [65535.2](#event-655352) | 0x000C       |     50 |              4 |
| [65535.3](#event-655353) | 0x003E       |     21 |              3 |
| [3](#event-3)            | 0x0053       |    452 |             53 |
| [5](#event-5)            | 0x0217       |    815 |            111 |
| [6](#event-6)            | 0x0546       |    618 |             73 |
| [7](#event-7)            | 0x07B0       |    262 |             29 |
| [8](#event-8)            | 0x08B6       |    438 |             55 |
| [9](#event-9)            | 0x0A6C       |    700 |             85 |
| [10](#event-10)          | 0x0D28       |    362 |             50 |

## DAT References (imed_data)

|   Index | Hex Value   |   Dec Value |
|---------|-------------|-------------|
|       0 | 0xFFFD89B6  |  4294805942 |
|       1 | 0x1168      |        4456 |
|       2 | 0xFFFFE2DF  |  4294959839 |
|       3 | 0x0C9A      |        3226 |
|       4 | 0x0043      |          67 |
|       5 | 0x0000      |           0 |
|       6 | 0x003C      |          60 |
|       7 | 0x00C8      |         200 |
|       8 | 0x0013      |          19 |
|       9 | 0x1A19D     |      106909 |
|      10 | 0xFFFDD02F  |  4294823983 |
|      11 | 0xFFFFF9D0  |  4294965712 |
|      12 | 0x0198      |         408 |
|      13 | 0x000D      |          13 |
|      14 | 0x00D0      |         208 |
|      15 | 0x000A      |          10 |
|      16 | 0x1A47A     |      107642 |
|      17 | 0xFFFDCD51  |  4294823249 |
|      18 | 0xFFFFF9DC  |  4294965724 |
|      19 | 0x0003      |           3 |
|      20 | 0x00E2      |         226 |
|      21 | 0x00E3      |         227 |
|      22 | 0x1C91      |        7313 |
|      23 | 0x0040      |          64 |
|      24 | 0x012C      |         300 |
|      25 | 0x0078      |         120 |
|      26 | 0x0080      |         128 |
|      27 | 0x00A3      |         163 |
|      28 | 0xFFFF5372  |  4294923122 |
|      29 | 0xFFFE73F0  |  4294865904 |
|      30 | 0xFFFFC04D  |  4294950989 |
|      31 | 0x0822      |        2082 |
|      32 | 0x0005      |           5 |
|      33 | 0xFFFF49FD  |  4294920701 |
|      34 | 0xFFFE72BD  |  4294865597 |
|      35 | 0xFFFFC0D0  |  4294951120 |
|      36 | 0x1CAA      |        7338 |
|      37 | 0xFFFF4341  |  4294918977 |
|      38 | 0xFFFE7216  |  4294865430 |
|      39 | 0xFFFFC038  |  4294950968 |
|      40 | 0x1CAB      |        7339 |
|      41 | 0x1CAC      |        7340 |
|      42 | 0x00FE      |         254 |
|      43 | 0x1CAD      |        7341 |
|      44 | 0x1CAE      |        7342 |
|      45 | 0x1CAF      |        7343 |
|      46 | 0x1CB0      |        7344 |
|      47 | 0x1CB1      |        7345 |
|      48 | 0x1CB2      |        7346 |
|      49 | 0x0001      |           1 |
|      50 | 0x1CB3      |        7347 |
|      51 | 0x000F      |          15 |
|      52 | 0x1CB4      |        7348 |
|      53 | 0x001E      |          30 |
|      54 | 0x002D      |          45 |
|      55 | 0x0D48      |        3400 |
|      56 | 0x1CB5      |        7349 |
|      57 | 0x1CB6      |        7350 |
|      58 | 0x0FD2      |        4050 |
|      59 | 0x1CB7      |        7351 |
|      60 | 0x1CB8      |        7352 |
|      61 | 0x1CB9      |        7353 |
|      62 | 0x1CBA      |        7354 |
|      63 | 0x1CBB      |        7355 |
|      64 | 0xFFFF5098  |  4294922392 |
|      65 | 0xFFFE76D8  |  4294866648 |
|      66 | 0xFFFFC086  |  4294951046 |
|      67 | 0x0711      |        1809 |
|      68 | 0x1CBC      |        7356 |
|      69 | 0x0004      |           4 |
|      70 | 0x0008      |           8 |
|      71 | 0x0006      |           6 |
|      72 | 0x1CBD      |        7357 |
|      73 | 0x1CBE      |        7358 |
|      74 | 0x1CBF      |        7359 |
|      75 | 0x1CC0      |        7360 |
|      76 | 0x1CC1      |        7361 |
|      77 | 0x0032      |          50 |
|      78 | 0xFFFDC42D  |  4294820909 |
|      79 | 0xFFFF9967  |  4294941031 |
|      80 | 0xFFFFDF49  |  4294958921 |
|      81 | 0x0664      |        1636 |
|      82 | 0x0027      |          39 |
|      83 | 0x1CC4      |        7364 |
|      84 | 0x00C9      |         201 |
|      85 | 0x1CC5      |        7365 |
|      86 | 0x00A1      |         161 |
|      87 | 0xFFFDC78B  |  4294821771 |
|      88 | 0xFFFF9578  |  4294940024 |
|      89 | 0xFFFFDF38  |  4294958904 |
|      90 | 0x0FF1      |        4081 |
|      91 | 0x1CC6      |        7366 |
|      92 | 0x1CC7      |        7367 |
|      93 | 0x1CC8      |        7368 |
|      94 | 0x1CC9      |        7369 |
|      95 | 0x00E1      |         225 |
|      96 | 0x1CCA      |        7370 |
|      97 | 0x1CCB      |        7371 |
|      98 | 0x1CCC      |        7372 |
|      99 | 0x009D      |         157 |
|     100 | 0xFFFDC201  |  4294820353 |
|     101 | 0xFFFF92EC  |  4294939372 |
|     102 | 0xFFFFDFB4  |  4294959028 |
|     103 | 0x0AC5      |        2757 |
|     104 | 0x1CCD      |        7373 |
|     105 | 0x1CCE      |        7374 |
|     106 | 0x1CCF      |        7375 |
|     107 | 0x1CD0      |        7376 |
|     108 | 0x1CD1      |        7377 |
|     109 | 0x1CD2      |        7378 |
|     110 | 0x1CD3      |        7379 |
|     111 | 0x0A8C      |        2700 |
|     112 | 0x1CD4      |        7380 |
|     113 | 0x1CD5      |        7381 |
|     114 | 0x01F5      |         501 |
|     115 | 0x00F0      |         240 |
|     116 | 0x1CD6      |        7382 |
|     117 | 0x1CD7      |        7383 |
|     118 | 0x0DAC      |        3500 |
|     119 | 0x1CD8      |        7384 |
|     120 | 0x1CD9      |        7385 |
|     121 | 0x0826      |        2086 |
|     122 | 0x1CDA      |        7386 |
|     123 | 0x1CDB      |        7387 |
|     124 | 0x1CDC      |        7388 |
|     125 | 0x1CDD      |        7389 |
|     126 | 0x005A      |          90 |
|     127 | 0x1CDE      |        7390 |
|     128 | 0x1CDF      |        7391 |

## String References

- **7313**: You place $6 and $6 together upon the altar.
- **7346**: What say you? Hear my offer? [I'm all ears./What? What!?]
- **7350**: What say you? [I'm your [man/woman]!/Deliver it yourself!]

## Events

### Event 65535

#### Metadata

| Field        | Value   |
|--------------|---------|
| Entrypoint   | 0x0000  |
| Data Size    | 1 bytes |
| Instructions | 1       |

```
      00 01 02 03 04 05 06 07  08 09 0A 0B 0C 0D 0E 0F
      -- -- -- -- -- -- -- --  -- -- -- -- -- -- -- --
0000: 00                                                .               
```

#### Opcodes

```
  0: 0x0000 [0x00] END_REQSTACK()
```

### Event 65534

#### Metadata

| Field        | Value   |
|--------------|---------|
| Entrypoint   | 0x0001  |
| Data Size    | 1 bytes |
| Instructions | 1       |

```
      00 01 02 03 04 05 06 07  08 09 0A 0B 0C 0D 0E 0F
      -- -- -- -- -- -- -- --  -- -- -- -- -- -- -- --
0000:    00                                              .              
```

#### Opcodes

```
  0: 0x0001 [0x00] END_REQSTACK()
```

### Event 65535.1

#### Metadata

| Field        | Value    |
|--------------|----------|
| Entrypoint   | 0x0002   |
| Data Size    | 10 bytes |
| Instructions | 2        |

```
      00 01 02 03 04 05 06 07  08 09 0A 0B 0C 0D 0E 0F
      -- -- -- -- -- -- -- --  -- -- -- -- -- -- -- --
0000:       37 00 80 01 80 02  80 03 80 00                7.........    
```

#### Opcodes

```
  0: 0x0002 [0x37] UPDATE_EVENT_POSITION_AND_DIR: x=-161.354*, z=4.456*, y=-7.457*, direction=283.5°*
  1: 0x000B [0x00] END_REQSTACK()
```

### Event 65535.2

#### Metadata

| Field        | Value    |
|--------------|----------|
| Entrypoint   | 0x000C   |
| Data Size    | 50 bytes |
| Instructions | 4        |

```
      00 01 02 03 04 05 06 07  08 09 0A 0B 0C 0D 0E 0F
      -- -- -- -- -- -- -- --  -- -- -- -- -- -- -- --
0000:                                      45 04 80 F0              E...
0010: FF FF 7F F0 FF FF 7F 73  67 31 30 05 80 55 04 80  .......sg10..U..
0020: F0 FF FF 7F F0 FF FF 7F  73 67 31 30 45 04 80 F0  ........sg10E...
0030: FF FF 7F F0 FF FF 7F 73  67 31 31 05 80 00        .......sg11...  
```

#### Opcodes

```
  0: 0x000C [0x45] LOAD_SCHEDULED_TASK: Load scheduler "sg10" with entities [LocalPlayer, LocalPlayer], work=[67*, 0*]
  1: 0x001D [0x55] WAIT_LOAD_SCHEDULER: Wait for scheduler "sg10" with entities [LocalPlayer, LocalPlayer], work=67*
  2: 0x002C [0x45] LOAD_SCHEDULED_TASK: Load scheduler "sg11" with entities [LocalPlayer, LocalPlayer], work=[67*, 0*]
  3: 0x003D [0x00] END_REQSTACK()
```

### Event 65535.3

#### Metadata

| Field        | Value    |
|--------------|----------|
| Entrypoint   | 0x003E   |
| Data Size    | 21 bytes |
| Instructions | 3        |

```
      00 01 02 03 04 05 06 07  08 09 0A 0B 0C 0D 0E 0F
      -- -- -- -- -- -- -- --  -- -- -- -- -- -- -- --
0030:                                            1C 06                ..
0040: 80 45 07 80 F0 FF FF 7F  F0 FF FF 7F 62 6C 6F 6E  .E..........blon
0050: 05 80 00                                          ...             
```

#### Opcodes

```
  0: 0x003E [0x1C] WAIT(60* ticks)
  1: 0x0041 [0x45] LOAD_SCHEDULED_TASK: Load scheduler "blon" with entities [LocalPlayer, LocalPlayer], work=[200*, 0*]
  2: 0x0052 [0x00] END_REQSTACK()
```

### Event 3

#### Metadata

| Field        | Value     |
|--------------|-----------|
| Entrypoint   | 0x0053    |
| Data Size    | 452 bytes |
| Instructions | 53        |

```
      00 01 02 03 04 05 06 07  08 09 0A 0B 0C 0D 0E 0F
      -- -- -- -- -- -- -- --  -- -- -- -- -- -- -- --
0050:          2F 00 DE 60 09  01 20 01 42 46 01 45 07     /..`.. .BF.E.
0060: 80 F0 FF FF 7F F0 FF FF  7F 66 64 6F 31 05 80 55  .........fdo1..U
0070: 07 80 F0 FF FF 7F F0 FF  FF 7F 66 64 6F 31 38 08  ..........fdo18.
0080: 80 37 09 80 0A 80 0B 80  0C 80 32 0D 80 4E 00 DE  .7........2..N..
0090: 60 09 01 92 01 DE 60 09  01 6C DE 60 09 01 05 80  `.....`..l.`....
00A0: 05 80 45 0E 80 F0 FF FF  7F F0 FF FF 7F 74 30 30  ..E..........t00
00B0: 34 05 80 55 0E 80 F0 FF  FF 7F F0 FF FF 7F 74 30  4..U..........t0
00C0: 30 34 45 07 80 F0 FF FF  7F F0 FF FF 7F 66 64 69  04E..........fdi
00D0: 31 05 80 55 07 80 F0 FF  FF 7F F0 FF FF 7F 66 64  1..U..........fd
00E0: 69 31 1C 0F 80 1F 00 10  80 11 80 12 80 1F 01 6F  i1.............o
00F0: 2C F8 FF FF 7F F8 FF FF  7F 72 65 73 30 1C 06 80  ,........res0...
0100: 53 F8 FF FF 7F F8 FF FF  7F 72 65 73 30 45 0E 80  S........res0E..
0110: F0 FF FF 7F F0 FF FF 7F  74 30 30 61 05 80 55 0E  ........t00a..U.
0120: 80 F0 FF FF 7F F0 FF FF  7F 74 30 30 61 62 13 80  .........t00ab..
0130: DD 60 09 01 DD 60 09 01  6D 61 69 6E 05 80 1C 06  .`...`..main....
0140: 80 03 02 10 14 80 03 03  10 15 80 48 16 80 23 2C  ...........H..#,
0150: F8 FF FF 7F F8 FF FF 7F  72 65 73 32 1C 06 80 27  ........res2...'
0160: 03 DD 60 09 01 02 6C DE  60 09 01 17 80 18 80 53  ..`...l.`......S
0170: F8 FF FF 7F F8 FF FF 7F  72 65 73 32 55 0E 80 F0  ........res2U...
0180: FF FF 7F F0 FF FF 7F 74  30 30 35 79 00 F0 FF FF  .......t005y....
0190: 7F F0 FF FF 7F 79 00 F0  FF FF 7F DE 60 09 01 27  .....y......`..'
01A0: 03 DE 60 09 01 02 1C 06  80 45 0E 80 F0 FF FF 7F  ..`......E......
01B0: F0 FF FF 7F 74 30 30 36  05 80 55 0E 80 F0 FF FF  ....t006..U.....
01C0: 7F F0 FF FF 7F 74 30 30  36 2A 03 DE 60 09 01 1C  .....t006*..`...
01D0: 19 80 27 04 DE 60 09 01  03 6C DE 60 09 01 05 80  ..'..`...l.`....
01E0: 1A 80 45 07 80 F0 FF FF  7F F0 FF FF 7F 66 64 6F  ..E..........fdo
01F0: 32 05 80 55 07 80 F0 FF  FF 7F F0 FF FF 7F 66 64  2..U..........fd
0200: 6F 32 46 00 45 07 80 F0  FF FF 7F F0 FF FF 7F 66  o2F.E..........f
0210: 64 69 32 05 80 21 00                              di2..!.         
```

#### Opcodes

```
  0: 0x0053 [0x2F] Unnamed NPC (ID: 17391838/0x010960DE)->Render.Flags0 &= ~0x80000 // Bit 19
  1: 0x0059 [0x20] SET_CLI_EVENT_UC_FLAG: Lock player control
  2: 0x005B [0x42] SET_CLI_EVENT_CANCEL_DATA()
  3: 0x005C [0x46] CAMERA_CONTROL: Disable user control
  4: 0x005E [0x45] LOAD_SCHEDULED_TASK: Load scheduler "fdo1" with entities [LocalPlayer, LocalPlayer], work=[200*, 0*]
  5: 0x006F [0x55] WAIT_LOAD_SCHEDULER: Wait for scheduler "fdo1" with entities [LocalPlayer, LocalPlayer], work=200*
  6: 0x007E [0x38] SET_CLIENT_EVENT_MODE(mode=19*)
  7: 0x0081 [0x37] UPDATE_EVENT_POSITION_AND_DIR: x=106.909*, z=-143.313*, y=-1.584*, direction=35.9°*
  8: 0x008A [0x32] ExtData[1]->MainSpeed = 13* * 0.1
  9: 0x008D [0x4E] SET_ENTITY_HIDE_FLAG: Show Unnamed NPC (ID: 17391838/0x010960DE)
 10: 0x0093 [0x92] Unnamed NPC (ID: 17391838/0x010960DE)->Render.Flags3 ^= 0x01
 11: 0x0099 [0x6C] FADE_ENTITY_COLOR(entity_id=Unnamed NPC (ID: 17391838/0x010960DE), end_alpha=0*, fade_time=0*)
 12: 0x00A2 [0x45] LOAD_SCHEDULED_TASK: Load scheduler "t004" with entities [LocalPlayer, LocalPlayer], work=[208*, 0*]
 13: 0x00B3 [0x55] WAIT_LOAD_SCHEDULER: Wait for scheduler "t004" with entities [LocalPlayer, LocalPlayer], work=208*
 14: 0x00C2 [0x45] LOAD_SCHEDULED_TASK: Load scheduler "fdi1" with entities [LocalPlayer, LocalPlayer], work=[200*, 0*]
 15: 0x00D3 [0x55] WAIT_LOAD_SCHEDULER: Wait for scheduler "fdi1" with entities [LocalPlayer, LocalPlayer], work=200*
 16: 0x00E2 [0x1C] WAIT(10* ticks)
 17: 0x00E5 [0x1F] MOVE_ENTITY: EventEntity moves to X=107.642*, Z=-144.047*, Y=-1.572*
 18: 0x00ED [0x1F] MOVE_ENTITY: Update entity position (mode=1)
 19: 0x00EF [0x6F] WAIT_FRAME_DELAY: Yield until WaitTime reaches zero
 20: 0x00F0 [0x2C] CREATE_SCHEDULER_TASK: Create scheduler "res0" with entities [EventEntity, EventEntity]
 21: 0x00FD [0x1C] WAIT(60* ticks)
 22: 0x0100 [0x53] WAIT_SCHEDULER_TASK: Wait for scheduler "res0" with entities [EventEntity, EventEntity]
 23: 0x010D [0x45] LOAD_SCHEDULED_TASK: Load scheduler "t00a" with entities [LocalPlayer, LocalPlayer], work=[208*, 0*]
 24: 0x011E [0x55] WAIT_LOAD_SCHEDULER: Wait for scheduler "t00a" with entities [LocalPlayer, LocalPlayer], work=208*
 25: 0x012D [0x62] LOAD_EVENT_SCHEDULER: Load scheduler "main" with entities [Altar (ID: 17391837/0x010960DD), Altar (ID: 17391837/0x010960DD)], work=[3*, 0*]
 26: 0x013E [0x1C] WAIT(60* ticks)
 27: 0x0141 [0x03] Work_Zone[2] = 226*
 28: 0x0146 [0x03] Work_Zone[3] = 227*
 29: 0x014B [0x48] [System] [7313*]:
    → "You place $6 and $6 together upon the altar."
 30: 0x014E [0x23] WAIT_FOR_DIALOG_INTERACTION
 31: 0x014F [0x2C] CREATE_SCHEDULER_TASK: Create scheduler "res2" with entities [EventEntity, EventEntity]
 32: 0x015C [0x1C] WAIT(60* ticks)
 33: 0x015F [0x27] REQ_SET(priority=0x03, entity_id=Altar (ID: 17391837/0x010960DD), tag_num=0x02)
 34: 0x0166 [0x6C] FADE_ENTITY_COLOR(entity_id=Unnamed NPC (ID: 17391838/0x010960DE), end_alpha=64*, fade_time=300*)
 35: 0x016F [0x53] WAIT_SCHEDULER_TASK: Wait for scheduler "res2" with entities [EventEntity, EventEntity]
 36: 0x017C [0x55] WAIT_LOAD_SCHEDULER: Wait for scheduler "t005" with entities [LocalPlayer, LocalPlayer], work=208*
 37: 0x018B [0x79] LocalPlayer looks at LocalPlayer (Basic look)
 38: 0x0195 [0x79] LocalPlayer looks at Unnamed NPC (ID: 17391838/0x010960DE) (Basic look)
 39: 0x019F [0x27] REQ_SET(priority=0x03, entity_id=Unnamed NPC (ID: 17391838/0x010960DE), tag_num=0x02)
 40: 0x01A6 [0x1C] WAIT(60* ticks)
 41: 0x01A9 [0x45] LOAD_SCHEDULED_TASK: Load scheduler "t006" with entities [LocalPlayer, LocalPlayer], work=[208*, 0*]
 42: 0x01BA [0x55] WAIT_LOAD_SCHEDULER: Wait for scheduler "t006" with entities [LocalPlayer, LocalPlayer], work=208*
 43: 0x01C9 [0x2A] GET_REQ_LEVEL(level=3, entity_id=Unnamed NPC (ID: 17391838/0x010960DE))
 44: 0x01CF [0x1C] WAIT(120* ticks)
 45: 0x01D2 [0x27] REQ_SET(priority=0x04, entity_id=Unnamed NPC (ID: 17391838/0x010960DE), tag_num=0x03)
 46: 0x01D9 [0x6C] FADE_ENTITY_COLOR(entity_id=Unnamed NPC (ID: 17391838/0x010960DE), end_alpha=0*, fade_time=128*)
 47: 0x01E2 [0x45] LOAD_SCHEDULED_TASK: Load scheduler "fdo2" with entities [LocalPlayer, LocalPlayer], work=[200*, 0*]
 48: 0x01F3 [0x55] WAIT_LOAD_SCHEDULER: Wait for scheduler "fdo2" with entities [LocalPlayer, LocalPlayer], work=200*
 49: 0x0202 [0x46] CAMERA_CONTROL: Restore default settings
 50: 0x0204 [0x45] LOAD_SCHEDULED_TASK: Load scheduler "fdi2" with entities [LocalPlayer, LocalPlayer], work=[200*, 0*]
 51: 0x0215 [0x21] END_EVENT
 52: 0x0216 [0x00] END_REQSTACK()
```

### Event 5

#### Metadata

| Field        | Value     |
|--------------|-----------|
| Entrypoint   | 0x0217    |
| Data Size    | 815 bytes |
| Instructions | 109       |

```
      00 01 02 03 04 05 06 07  08 09 0A 0B 0C 0D 0E 0F
      -- -- -- -- -- -- -- --  -- -- -- -- -- -- -- --
0210:                      42  46 01 45 07 80 F0 FF FF         BF.E.....
0220: 7F F0 FF FF 7F 66 64 6F  31 05 80 55 07 80 F0 FF  .....fdo1..U....
0230: FF 7F F0 FF FF 7F 66 64  6F 31 5C 00 1B 80 5C 01  ......fdo1\...\.
0240: 1B 80 38 08 80 4E 00 EF  60 09 01 37 1C 80 1D 80  ..8..N..`..7....
0250: 1E 80 1F 80 22 00 45 20  80 F0 FF FF 7F F0 FF FF  ....".E ........
0260: 7F 73 30 30 37 05 80 45  07 80 F0 FF FF 7F F0 FF  .s007..E........
0270: FF 7F 66 64 69 32 05 80  32 0D 80 1F 00 21 80 22  ..fdi2..2....!."
0280: 80 23 80 1F 01 55 20 80  F0 FF FF 7F F0 FF FF 7F  .#...U .........
0290: 73 30 30 37 45 07 80 F0  FF FF 7F F0 FF FF 7F 6F  s007E..........o
02A0: 76 6C 31 05 80 45 20 80  F0 FF FF 7F F0 FF FF 7F  vl1..E .........
02B0: 73 30 30 38 05 80 1E EF  60 09 01 1C 06 80 2B EF  s008....`.....+.
02C0: 60 09 01 24 80 1F 00 25  80 26 80 27 80 1F 01 23  `..$...%.&.'...#
02D0: 4A EF 60 09 01 F0 FF FF  7F 2B EF 60 09 01 28 80  J.`......+.`..(.
02E0: 23 52 20 80 F0 FF FF 7F  F0 FF FF 7F 73 30 30 38  #R .........s008
02F0: 45 20 80 F0 FF FF 7F F0  FF FF 7F 73 30 30 39 05  E .........s009.
0300: 80 2B EF 60 09 01 29 80  23 5B 2A 80 EF 60 09 01  .+.`..).#[*..`..
0310: EF 60 09 01 74 6C 6B 30  2B EF 60 09 01 2B 80 23  .`..tlk0+.`..+.#
0320: 2B EF 60 09 01 2C 80 23  5B 2A 80 EF 60 09 01 EF  +.`..,.#[*..`...
0330: 60 09 01 74 6C 6B 31 52  20 80 F0 FF FF 7F F0 FF  `..tlk1R .......
0340: FF 7F 73 30 30 39 45 20  80 F0 FF FF 7F F0 FF FF  ..s009E ........
0350: 7F 73 30 31 30 05 80 2B  EF 60 09 01 2D 80 23 27  .s010..+.`..-.#'
0360: 0A EF 60 09 01 02 2B EF  60 09 01 2E 80 23 2B EF  ..`...+.`....#+.
0370: 60 09 01 2F 80 23 24 30  80 05 80 05 80 25 02 00  `../.#$0.....%..
0380: 10 31 80 00 CC 03 27 0A  EF 60 09 01 05 2B EF 60  .1....'..`...+.`
0390: 09 01 32 80 1C 33 80 52  20 80 F0 FF FF 7F F0 FF  ..2..3.R .......
03A0: FF 7F 73 30 31 30 45 20  80 F0 FF FF 7F F0 FF FF  ..s010E ........
03B0: 7F 73 30 31 31 05 80 2A  0A EF 60 09 01 1E EF 60  .s011..*..`....`
03C0: 09 01 23 05 01 10 01 DC  04 01 CC 03 27 0A EF 60  ..#.........'..`
03D0: 09 01 05 2B EF 60 09 01  34 80 1C 35 80 52 20 80  ...+.`..4..5.R .
03E0: F0 FF FF 7F F0 FF FF 7F  73 30 31 30 45 20 80 F0  ........s010E ..
03F0: FF FF 7F F0 FF FF 7F 73  30 31 31 05 80 1C 36 80  .......s011...6.
0400: 1E EF 60 09 01 23 2A 0A  EF 60 09 01 4B EF 60 09  ..`..#*..`..K.`.
0410: 01 37 80 2B EF 60 09 01  38 80 23 24 39 80 05 80  .7.+.`..8.#$9...
0420: 05 80 25 02 00 10 31 80  00 63 04 52 20 80 F0 FF  ..%...1..c.R ...
0430: FF 7F F0 FF FF 7F 73 30  31 31 45 20 80 F0 FF FF  ......s011E ....
0440: 7F F0 FF FF 7F 73 30 31  33 05 80 4B EF 60 09 01  .....s013..K.`..
0450: 3A 80 2B EF 60 09 01 3B  80 23 05 01 10 01 DC 04  :.+.`..;.#......
0460: 01 63 04 2B EF 60 09 01  3C 80 23 5B 2A 80 EF 60  .c.+.`..<.#[*..`
0470: 09 01 EF 60 09 01 74 6C  6B 30 45 20 80 F0 FF FF  ...`..tlk0E ....
0480: 7F F0 FF FF 7F 73 30 31  32 05 80 2B EF 60 09 01  .....s012..+.`..
0490: 3D 80 23 5B 2A 80 EF 60  09 01 EF 60 09 01 74 6C  =.#[*..`...`..tl
04A0: 6B 31 2B EF 60 09 01 3E  80 23 52 20 80 F0 FF FF  k1+.`..>.#R ....
04B0: 7F F0 FF FF 7F 73 30 31  32 45 20 80 F0 FF FF 7F  .....s012E .....
04C0: F0 FF FF 7F 73 30 31 33  05 80 4B EF 60 09 01 3A  ....s013..K.`..:
04D0: 80 2B EF 60 09 01 3F 80  23 06 01 10 27 0A EF 60  .+.`..?.#...'..`
04E0: 09 01 06 1C 19 80 5D 05  80 19 80 45 07 80 F0 FF  ......]....E....
04F0: FF 7F F0 FF FF 7F 66 64  6F 32 05 80 55 07 80 F0  ......fdo2..U...
0500: FF FF 7F F0 FF FF 7F 66  64 6F 32 5C 00 05 80 5C  .......fdo2\...\
0510: 01 05 80 52 20 80 F0 FF  FF 7F F0 FF FF 7F 73 30  ...R .........s0
0520: 31 31 52 20 80 F0 FF FF  7F F0 FF FF 7F 73 30 31  11R .........s01
0530: 33 46 00 45 07 80 F0 FF  FF 7F F0 FF FF 7F 66 64  3F.E..........fd
0540: 69 31 05 80 21 00                                 i1..!.          
```

#### Opcodes

```
  0: 0x0217 [0x42] SET_CLI_EVENT_CANCEL_DATA()
  1: 0x0218 [0x46] CAMERA_CONTROL: Disable user control
  2: 0x021A [0x45] LOAD_SCHEDULED_TASK: Load scheduler "fdo1" with entities [LocalPlayer, LocalPlayer], work=[200*, 0*]
  3: 0x022B [0x55] WAIT_LOAD_SCHEDULER: Wait for scheduler "fdo1" with entities [LocalPlayer, LocalPlayer], work=200*
  4: 0x023A [0x5C] MUSIC_CONTROL: Set Idle (Day) music to song 163*
  5: 0x023E [0x5C] MUSIC_CONTROL: Set Idle (Night) music to song 163*
  6: 0x0242 [0x38] SET_CLIENT_EVENT_MODE(mode=19*)
  7: 0x0245 [0x4E] SET_ENTITY_HIDE_FLAG: Show Loo Kohor (ID: 17391855/0x010960EF)
  8: 0x024B [0x37] UPDATE_EVENT_POSITION_AND_DIR: x=-44.174*, z=-101.392*, y=-16.307*, direction=183.0°*
  9: 0x0254 [0x22] ENTITY_HIDE_FLAG(enabled=0x00)
 10: 0x0256 [0x45] LOAD_SCHEDULED_TASK: Load scheduler "s007" with entities [LocalPlayer, LocalPlayer], work=[5*, 0*]
 11: 0x0267 [0x45] LOAD_SCHEDULED_TASK: Load scheduler "fdi2" with entities [LocalPlayer, LocalPlayer], work=[200*, 0*]
 12: 0x0278 [0x32] ExtData[1]->MainSpeed = 13* * 0.1
 13: 0x027B [0x1F] MOVE_ENTITY: EventEntity moves to X=-46.595*, Z=-101.699*, Y=-16.176*
 14: 0x0283 [0x1F] MOVE_ENTITY: Update entity position (mode=1)
 15: 0x0285 [0x55] WAIT_LOAD_SCHEDULER: Wait for scheduler "s007" with entities [LocalPlayer, LocalPlayer], work=5*
 16: 0x0294 [0x45] LOAD_SCHEDULED_TASK: Load scheduler "ovl1" with entities [LocalPlayer, LocalPlayer], work=[200*, 0*]
 17: 0x02A5 [0x45] LOAD_SCHEDULED_TASK: Load scheduler "s008" with entities [LocalPlayer, LocalPlayer], work=[5*, 0*]
 18: 0x02B6 [0x1E] EventEntity looks at Loo Kohor (ID: 17391855/0x010960EF) and starts talking
 19: 0x02BB [0x1C] WAIT(60* ticks)
 20: 0x02BE [0x2B] Loo Kohor (ID: 17391855/0x010960EF) [7338*]:
    → "Kukhu... Hahmkyanmho khoronhma-sahlmi, chakgon buhim!"
 21: 0x02C5 [0x1F] MOVE_ENTITY: EventEntity moves to X=-48.319*, Z=-101.866*, Y=-16.328*
 22: 0x02CD [0x1F] MOVE_ENTITY: Update entity position (mode=1)
 23: 0x02CF [0x23] WAIT_FOR_DIALOG_INTERACTION
 24: 0x02D0 [0x4A] Loo Kohor (ID: 17391855/0x010960EF) looks at LocalPlayer
 25: 0x02D9 [0x2B] Loo Kohor (ID: 17391855/0x010960EF) [7339*]:
    → "Kweh? Kharabom, tspoluhi...! Ahk! What business have you here!?"
 26: 0x02E0 [0x23] WAIT_FOR_DIALOG_INTERACTION
 27: 0x02E1 [0x52] END_LOAD_SCHEDULER: End scheduler "s008" with entities [LocalPlayer, LocalPlayer], work=5*
 28: 0x02F0 [0x45] LOAD_SCHEDULED_TASK: Load scheduler "s009" with entities [LocalPlayer, LocalPlayer], work=[5*, 0*]
 29: 0x0301 [0x2B] Loo Kohor (ID: 17391855/0x010960EF) [7340*]:
    → "(Though merely exchanging words with a heretic heathen can be punished with an eternity of damnation, the almighty Tzee Xicu will surely forgive me for what I am about to do...)"
 30: 0x0308 [0x23] WAIT_FOR_DIALOG_INTERACTION
 31: 0x0309 [0x5B] LOAD_EXT_SCHEDULER: Load scheduler "tlk0" with entities [Loo Kohor (ID: 17391855/0x010960EF), Loo Kohor (ID: 17391855/0x010960EF)], work=254*
 32: 0x0318 [0x2B] Loo Kohor (ID: 17391855/0x010960EF) [7341*]:
    → "Ahem...kwahk! I am Loo Kohor, servant of Tzee Xicu the Manifest. I have traveled from mighty Castle Oztroja in the mountains of Aragoneu to deliver a message to the Orcs."
 33: 0x031F [0x23] WAIT_FOR_DIALOG_INTERACTION
 34: 0x0320 [0x2B] Loo Kohor (ID: 17391855/0x010960EF) [7342*]:
    → "However, it seems that information of my visit has not been relayed to the lower ranks of the Orcish army."
 35: 0x0327 [0x23] WAIT_FOR_DIALOG_INTERACTION
 36: 0x0328 [0x5B] LOAD_EXT_SCHEDULER: Load scheduler "tlk1" with entities [Loo Kohor (ID: 17391855/0x010960EF), Loo Kohor (ID: 17391855/0x010960EF)], work=254*
 37: 0x0337 [0x52] END_LOAD_SCHEDULER: End scheduler "s009" with entities [LocalPlayer, LocalPlayer], work=5*
 38: 0x0346 [0x45] LOAD_SCHEDULED_TASK: Load scheduler "s010" with entities [LocalPlayer, LocalPlayer], work=[5*, 0*]
 39: 0x0357 [0x2B] Loo Kohor (ID: 17391855/0x010960EF) [7343*]:
    → "And as you probably already know, the oversized swine do not make a habit of asking many questions before they proceed in prodding you with one of their pointy weapons."
 40: 0x035E [0x23] WAIT_FOR_DIALOG_INTERACTION
 41: 0x035F [0x27] REQ_SET(priority=0x0A, entity_id=Loo Kohor (ID: 17391855/0x010960EF), tag_num=0x02)
 42: 0x0366 [0x2B] Loo Kohor (ID: 17391855/0x010960EF) [7344*]:
    → "Alright. Adventurer, are you not?"
 43: 0x036D [0x23] WAIT_FOR_DIALOG_INTERACTION
 44: 0x036E [0x2B] Loo Kohor (ID: 17391855/0x010960EF) [7345*]:
    → "I hear tales that your type will do just about anything...if the price is right."
 45: 0x0375 [0x23] WAIT_FOR_DIALOG_INTERACTION
 46: 0x0376 [0x24] CREATE_DIALOG(message_id=7346*, default_option=0*, option_flags=0*)
    → "What say you? Hear my offer? [I'm all ears./What? What!?]"
 47: 0x037D [0x25] WAIT_DIALOG_SELECT()
 48: 0x037E [0x02] IF !(Work_Zone[0] == 1*) GOTO 0x03CC
 49: 0x0386 [0x27] REQ_SET(priority=0x0A, entity_id=Loo Kohor (ID: 17391855/0x010960EF), tag_num=0x05)
 50: 0x038D [0x2B] Loo Kohor (ID: 17391855/0x010960EF) [7347*]:
    → "Hmph... Will not lend your services to a "lowly" beastman, I see. Now, who truly is the "beast"?"
 51: 0x0394 [0x1C] WAIT(15* ticks)
 52: 0x0397 [0x52] END_LOAD_SCHEDULER: End scheduler "s010" with entities [LocalPlayer, LocalPlayer], work=5*
 53: 0x03A6 [0x45] LOAD_SCHEDULED_TASK: Load scheduler "s011" with entities [LocalPlayer, LocalPlayer], work=[5*, 0*]
 54: 0x03B7 [0x2A] GET_REQ_LEVEL(level=10, entity_id=Loo Kohor (ID: 17391855/0x010960EF))
 55: 0x03BD [0x1E] EventEntity looks at Loo Kohor (ID: 17391855/0x010960EF) and starts talking
 56: 0x03C2 [0x23] WAIT_FOR_DIALOG_INTERACTION
 57: 0x03C3 [0x05] Work_Zone[1] = 1
 58: 0x03C6 [0x01] GOTO 0x04DC

SUBROUTINE_03CC:
 59: 0x03CC [0x27] REQ_SET(priority=0x0A, entity_id=Loo Kohor (ID: 17391855/0x010960EF), tag_num=0x05)
 60: 0x03D3 [0x2B] Loo Kohor (ID: 17391855/0x010960EF) [7348*]:
    → "Kwah! So the rumors are true. In the shadow of gold, your faith is lost. What pitiful creatures you are..."
 61: 0x03DA [0x1C] WAIT(30* ticks)
 62: 0x03DD [0x52] END_LOAD_SCHEDULER: End scheduler "s010" with entities [LocalPlayer, LocalPlayer], work=5*
 63: 0x03EC [0x45] LOAD_SCHEDULED_TASK: Load scheduler "s011" with entities [LocalPlayer, LocalPlayer], work=[5*, 0*]
 64: 0x03FD [0x1C] WAIT(45* ticks)
 65: 0x0400 [0x1E] EventEntity looks at Loo Kohor (ID: 17391855/0x010960EF) and starts talking
 66: 0x0405 [0x23] WAIT_FOR_DIALOG_INTERACTION
 67: 0x0406 [0x2A] GET_REQ_LEVEL(level=10, entity_id=Loo Kohor (ID: 17391855/0x010960EF))
 68: 0x040C [0x4B] UPDATE_ENTITY_YAW(entity=Loo Kohor (ID: 17391855/0x010960EF), yaw=18.7°*)
 69: 0x0413 [0x2B] Loo Kohor (ID: 17391855/0x010960EF) [7349*]:
    → "However, I am not one to judge those who have chosen to walk their path in darkness. I need you to deliver this parchment to the Orcish Overlord. You will be paid upon your return."
 70: 0x041A [0x23] WAIT_FOR_DIALOG_INTERACTION
 71: 0x041B [0x24] CREATE_DIALOG(message_id=7350*, default_option=0*, option_flags=0*)
    → "What say you? [I'm your [man/woman]!/Deliver it yourself!]"
 72: 0x0422 [0x25] WAIT_DIALOG_SELECT()
 73: 0x0423 [0x02] IF !(Work_Zone[0] == 1*) GOTO 0x0463
 74: 0x042B [0x52] END_LOAD_SCHEDULER: End scheduler "s011" with entities [LocalPlayer, LocalPlayer], work=5*
 75: 0x043A [0x45] LOAD_SCHEDULED_TASK: Load scheduler "s013" with entities [LocalPlayer, LocalPlayer], work=[5*, 0*]
 76: 0x044B [0x4B] UPDATE_ENTITY_YAW(entity=Loo Kohor (ID: 17391855/0x010960EF), yaw=22.2°*)
 77: 0x0452 [0x2B] Loo Kohor (ID: 17391855/0x010960EF) [7351*]:
    → "Second thoughts? While your faith hides behind the temptation of carnal pleasures, those temptations are no match for the cowardice that rots your pitiful soul. Go on, now. Leave this place before you stumble and scratch your knee."
 78: 0x0459 [0x23] WAIT_FOR_DIALOG_INTERACTION
 79: 0x045A [0x05] Work_Zone[1] = 1
 80: 0x045D [0x01] GOTO 0x04DC

SUBROUTINE_0463:
 81: 0x0463 [0x2B] Loo Kohor (ID: 17391855/0x010960EF) [7352*]:
    → "Kwahah! Excellent. ...Hm? Not thinking of walking into Orc lair looking like that, are we?"
 82: 0x046A [0x23] WAIT_FOR_DIALOG_INTERACTION
 83: 0x046B [0x5B] LOAD_EXT_SCHEDULER: Load scheduler "tlk0" with entities [Loo Kohor (ID: 17391855/0x010960EF), Loo Kohor (ID: 17391855/0x010960EF)], work=254*
 84: 0x047A [0x45] LOAD_SCHEDULED_TASK: Load scheduler "s012" with entities [LocalPlayer, LocalPlayer], work=[5*, 0*]
 85: 0x048B [0x2B] Loo Kohor (ID: 17391855/0x010960EF) [7353*]:
    → "The pathetic barbarians would slice you into ribbons and serve your flesh to the Overlord for supper. A disguise is what you need."
 86: 0x0492 [0x23] WAIT_FOR_DIALOG_INTERACTION
 87: 0x0493 [0x5B] LOAD_EXT_SCHEDULER: Load scheduler "tlk1" with entities [Loo Kohor (ID: 17391855/0x010960EF), Loo Kohor (ID: 17391855/0x010960EF)], work=254*
 88: 0x04A2 [0x2B] Loo Kohor (ID: 17391855/0x010960EF) [7354*]:
    → "Why not skin one of the grunts and use its thick leather to make yourself a mask to hide that repulsive face?"
 89: 0x04A9 [0x23] WAIT_FOR_DIALOG_INTERACTION
 90: 0x04AA [0x52] END_LOAD_SCHEDULER: End scheduler "s012" with entities [LocalPlayer, LocalPlayer], work=5*
 91: 0x04B9 [0x45] LOAD_SCHEDULED_TASK: Load scheduler "s013" with entities [LocalPlayer, LocalPlayer], work=[5*, 0*]
 92: 0x04CA [0x4B] UPDATE_ENTITY_YAW(entity=Loo Kohor (ID: 17391855/0x010960EF), yaw=22.2°*)
 93: 0x04D1 [0x2B] Loo Kohor (ID: 17391855/0x010960EF) [7355*]:
    → "I shall be waiting for you here when you have made your preparations."
 94: 0x04D8 [0x23] WAIT_FOR_DIALOG_INTERACTION
 95: 0x04D9 [0x06] Work_Zone[1] = 0

SUBROUTINE_04DC:
 96: 0x04DC [0x27] REQ_SET(priority=0x0A, entity_id=Loo Kohor (ID: 17391855/0x010960EF), tag_num=0x06)
 97: 0x04E3 [0x1C] WAIT(120* ticks)
 98: 0x04E6 [0x5D] SET_MUSIC_VOLUME(volume=0*, fade_time=120*)
 99: 0x04EB [0x45] LOAD_SCHEDULED_TASK: Load scheduler "fdo2" with entities [LocalPlayer, LocalPlayer], work=[200*, 0*]
100: 0x04FC [0x55] WAIT_LOAD_SCHEDULER: Wait for scheduler "fdo2" with entities [LocalPlayer, LocalPlayer], work=200*
101: 0x050B [0x5C] MUSIC_CONTROL: Set Idle (Day) music to song 0*
102: 0x050F [0x5C] MUSIC_CONTROL: Set Idle (Night) music to song 0*
103: 0x0513 [0x52] END_LOAD_SCHEDULER: End scheduler "s011" with entities [LocalPlayer, LocalPlayer], work=5*
104: 0x0522 [0x52] END_LOAD_SCHEDULER: End scheduler "s013" with entities [LocalPlayer, LocalPlayer], work=5*
105: 0x0531 [0x46] CAMERA_CONTROL: Restore default settings
106: 0x0533 [0x45] LOAD_SCHEDULED_TASK: Load scheduler "fdi1" with entities [LocalPlayer, LocalPlayer], work=[200*, 0*]
107: 0x0544 [0x21] END_EVENT
108: 0x0545 [0x00] END_REQSTACK()
```

#### Data or dead code:

```
# Dead code (unreachable instructions):
     0x03C9 [0x01] GOTO 0x03CC
# Dead code (unreachable instructions):
     0x0460 [0x01] GOTO 0x0463
```

### Event 6

#### Metadata

| Field        | Value     |
|--------------|-----------|
| Entrypoint   | 0x0546    |
| Data Size    | 618 bytes |
| Instructions | 73        |

```
      00 01 02 03 04 05 06 07  08 09 0A 0B 0C 0D 0E 0F
      -- -- -- -- -- -- -- --  -- -- -- -- -- -- -- --
0540:                   42 46  01 5D 05 80 06 80 45 07        BF.]....E.
0550: 80 F0 FF FF 7F F0 FF FF  7F 66 64 6F 31 05 80 55  .........fdo1..U
0560: 07 80 F0 FF FF 7F F0 FF  FF 7F 66 64 6F 31 38 08  ..........fdo18.
0570: 80 4E 00 EF 60 09 01 79  00 F8 FF FF 7F EF 60 09  .N..`..y......`.
0580: 01 5C 00 1B 80 5C 01 1B  80 45 20 80 F0 FF FF 7F  .\...\...E .....
0590: F0 FF FF 7F 73 30 31 34  05 80 37 40 80 41 80 42  ....s014..7@.A.B
05A0: 80 43 80 22 00 45 07 80  F0 FF FF 7F F0 FF FF 7F  .C.".E..........
05B0: 66 64 69 31 05 80 1C 36  80 4A EF 60 09 01 F0 FF  fdi1...6.J.`....
05C0: FF 7F 1C 35 80 2B EF 60  09 01 44 80 23 52 20 80  ...5.+.`..D.#R .
05D0: F0 FF FF 7F F0 FF FF 7F  73 30 31 34 02 87 7F 13  ........s014....
05E0: 80 80 F8 05 45 20 80 F0  FF FF 7F F0 FF FF 7F 73  ....E .........s
05F0: 30 31 38 05 80 01 79 06  02 87 7F 45 80 80 14 06  018...y....E....
0600: 45 20 80 F0 FF FF 7F F0  FF FF 7F 73 30 31 38 05  E .........s018.
0610: 80 01 79 06 02 87 7F 46  80 80 30 06 45 20 80 F0  ..y....F..0.E ..
0620: FF FF 7F F0 FF FF 7F 73  30 31 38 05 80 01 79 06  .......s018...y.
0630: 02 87 7F 20 80 80 4C 06  45 20 80 F0 FF FF 7F F0  ... ..L.E ......
0640: FF FF 7F 73 30 31 39 05  80 01 79 06 02 87 7F 47  ...s019...y....G
0650: 80 80 68 06 45 20 80 F0  FF FF 7F F0 FF FF 7F 73  ..h.E .........s
0660: 30 31 39 05 80 01 79 06  45 20 80 F0 FF FF 7F F0  019...y.E ......
0670: FF FF 7F 73 30 31 35 05  80 2B EF 60 09 01 48 80  ...s015..+.`..H.
0680: 23 55 20 80 F0 FF FF 7F  F0 FF FF 7F 73 30 31 35  #U .........s015
0690: 55 20 80 F0 FF FF 7F F0  FF FF 7F 73 30 31 38 55  U .........s018U
06A0: 20 80 F0 FF FF 7F F0 FF  FF 7F 73 30 31 39 45 07   .........s019E.
06B0: 80 F0 FF FF 7F F0 FF FF  7F 6F 76 6C 31 05 80 45  .........ovl1..E
06C0: 20 80 F0 FF FF 7F F0 FF  FF 7F 73 30 31 36 05 80   .........s016..
06D0: 1C 36 80 5B 2A 80 EF 60  09 01 EF 60 09 01 74 6C  .6.[*..`...`..tl
06E0: 6B 30 2B EF 60 09 01 49  80 23 5B 2A 80 EF 60 09  k0+.`..I.#[*..`.
06F0: 01 EF 60 09 01 74 6C 6B  31 2B EF 60 09 01 4A 80  ..`..tlk1+.`..J.
0700: 23 52 20 80 F0 FF FF 7F  F0 FF FF 7F 73 30 31 36  #R .........s016
0710: 45 20 80 F0 FF FF 7F F0  FF FF 7F 73 30 31 37 05  E .........s017.
0720: 80 27 0A EF 60 09 01 03  2B EF 60 09 01 4B 80 23  .'..`...+.`..K.#
0730: 2A 0A EF 60 09 01 5B 2A  80 EF 60 09 01 EF 60 09  *..`..[*..`...`.
0740: 01 74 6C 6B 30 2B EF 60  09 01 4C 80 23 5B 2A 80  .tlk0+.`..L.#[*.
0750: EF 60 09 01 EF 60 09 01  74 6C 6B 31 1C 0F 80 27  .`...`..tlk1...'
0760: 0A EF 60 09 01 04 1C 4D  80 1E EF 60 09 01 5D 05  ..`....M...`..].
0770: 80 19 80 45 07 80 F0 FF  FF 7F F0 FF FF 7F 66 64  ...E..........fd
0780: 6F 32 05 80 55 07 80 F0  FF FF 7F F0 FF FF 7F 66  o2..U..........f
0790: 64 6F 32 5C 00 05 80 5C  01 05 80 46 00 45 07 80  do2\...\...F.E..
07A0: F0 FF FF 7F F0 FF FF 7F  66 64 69 31 05 80 21 00  ........fdi1..!.
```

#### Opcodes

```
  0: 0x0546 [0x42] SET_CLI_EVENT_CANCEL_DATA()
  1: 0x0547 [0x46] CAMERA_CONTROL: Disable user control
  2: 0x0549 [0x5D] SET_MUSIC_VOLUME(volume=0*, fade_time=60*)
  3: 0x054E [0x45] LOAD_SCHEDULED_TASK: Load scheduler "fdo1" with entities [LocalPlayer, LocalPlayer], work=[200*, 0*]
  4: 0x055F [0x55] WAIT_LOAD_SCHEDULER: Wait for scheduler "fdo1" with entities [LocalPlayer, LocalPlayer], work=200*
  5: 0x056E [0x38] SET_CLIENT_EVENT_MODE(mode=19*)
  6: 0x0571 [0x4E] SET_ENTITY_HIDE_FLAG: Show Loo Kohor (ID: 17391855/0x010960EF)
  7: 0x0577 [0x79] EventEntity looks at Loo Kohor (ID: 17391855/0x010960EF) (Basic look)
  8: 0x0581 [0x5C] MUSIC_CONTROL: Set Idle (Day) music to song 163*
  9: 0x0585 [0x5C] MUSIC_CONTROL: Set Idle (Night) music to song 163*
 10: 0x0589 [0x45] LOAD_SCHEDULED_TASK: Load scheduler "s014" with entities [LocalPlayer, LocalPlayer], work=[5*, 0*]
 11: 0x059A [0x37] UPDATE_EVENT_POSITION_AND_DIR: x=-44.904*, z=-100.648*, y=-16.250*, direction=159.0°*
 12: 0x05A3 [0x22] ENTITY_HIDE_FLAG(enabled=0x00)
 13: 0x05A5 [0x45] LOAD_SCHEDULED_TASK: Load scheduler "fdi1" with entities [LocalPlayer, LocalPlayer], work=[200*, 0*]
 14: 0x05B6 [0x1C] WAIT(45* ticks)
 15: 0x05B9 [0x4A] Loo Kohor (ID: 17391855/0x010960EF) looks at LocalPlayer
 16: 0x05C2 [0x1C] WAIT(30* ticks)
 17: 0x05C5 [0x2B] Loo Kohor (ID: 17391855/0x010960EF) [7356*]:
    → "I was wondering when you would return. Now let me see your..."
 18: 0x05CC [0x23] WAIT_FOR_DIALOG_INTERACTION
 19: 0x05CD [0x52] END_LOAD_SCHEDULER: End scheduler "s014" with entities [LocalPlayer, LocalPlayer], work=5*
 20: 0x05DC [0x02] IF !(LocalPlayer->Race == 3*) GOTO 0x05F8
 21: 0x05E4 [0x45] LOAD_SCHEDULED_TASK: Load scheduler "s018" with entities [LocalPlayer, LocalPlayer], work=[5*, 0*]
 22: 0x05F5 [0x01] GOTO 0x0679
 23: 0x05F8 [0x02] IF !(LocalPlayer->Race == 4*) GOTO 0x0614
 24: 0x0600 [0x45] LOAD_SCHEDULED_TASK: Load scheduler "s018" with entities [LocalPlayer, LocalPlayer], work=[5*, 0*]
 25: 0x0611 [0x01] GOTO 0x0679
 26: 0x0614 [0x02] IF !(LocalPlayer->Race == 8*) GOTO 0x0630
 27: 0x061C [0x45] LOAD_SCHEDULED_TASK: Load scheduler "s018" with entities [LocalPlayer, LocalPlayer], work=[5*, 0*]
 28: 0x062D [0x01] GOTO 0x0679
 29: 0x0630 [0x02] IF !(LocalPlayer->Race == 5*) GOTO 0x064C
 30: 0x0638 [0x45] LOAD_SCHEDULED_TASK: Load scheduler "s019" with entities [LocalPlayer, LocalPlayer], work=[5*, 0*]
 31: 0x0649 [0x01] GOTO 0x0679
 32: 0x064C [0x02] IF !(LocalPlayer->Race == 6*) GOTO 0x0668
 33: 0x0654 [0x45] LOAD_SCHEDULED_TASK: Load scheduler "s019" with entities [LocalPlayer, LocalPlayer], work=[5*, 0*]
 34: 0x0665 [0x01] GOTO 0x0679
 35: 0x0668 [0x45] LOAD_SCHEDULED_TASK: Load scheduler "s015" with entities [LocalPlayer, LocalPlayer], work=[5*, 0*]

SUBROUTINE_0679:
 36: 0x0679 [0x2B] Loo Kohor (ID: 17391855/0x010960EF) [7357*]:
    → "........."
 37: 0x0680 [0x23] WAIT_FOR_DIALOG_INTERACTION
 38: 0x0681 [0x55] WAIT_LOAD_SCHEDULER: Wait for scheduler "s015" with entities [LocalPlayer, LocalPlayer], work=5*
 39: 0x0690 [0x55] WAIT_LOAD_SCHEDULER: Wait for scheduler "s018" with entities [LocalPlayer, LocalPlayer], work=5*
 40: 0x069F [0x55] WAIT_LOAD_SCHEDULER: Wait for scheduler "s019" with entities [LocalPlayer, LocalPlayer], work=5*
 41: 0x06AE [0x45] LOAD_SCHEDULED_TASK: Load scheduler "ovl1" with entities [LocalPlayer, LocalPlayer], work=[200*, 0*]
 42: 0x06BF [0x45] LOAD_SCHEDULED_TASK: Load scheduler "s016" with entities [LocalPlayer, LocalPlayer], work=[5*, 0*]
 43: 0x06D0 [0x1C] WAIT(45* ticks)
 44: 0x06D3 [0x5B] LOAD_EXT_SCHEDULER: Load scheduler "tlk0" with entities [Loo Kohor (ID: 17391855/0x010960EF), Loo Kohor (ID: 17391855/0x010960EF)], work=254*
 45: 0x06E2 [0x2B] Loo Kohor (ID: 17391855/0x010960EF) [7358*]:
    → "Orlmhattjmha! Y-you don't really think you will fool the Orcs with that...that...thing, do you?"
 46: 0x06E9 [0x23] WAIT_FOR_DIALOG_INTERACTION
 47: 0x06EA [0x5B] LOAD_EXT_SCHEDULER: Load scheduler "tlk1" with entities [Loo Kohor (ID: 17391855/0x010960EF), Loo Kohor (ID: 17391855/0x010960EF)], work=254*
 48: 0x06F9 [0x2B] Loo Kohor (ID: 17391855/0x010960EF) [7359*]:
    → "<Sigh>... However, I guess I have not any choice but to trust you and your plan. Here is the communication you are to deliver."
 49: 0x0700 [0x23] WAIT_FOR_DIALOG_INTERACTION
 50: 0x0701 [0x52] END_LOAD_SCHEDULER: End scheduler "s016" with entities [LocalPlayer, LocalPlayer], work=5*
 51: 0x0710 [0x45] LOAD_SCHEDULED_TASK: Load scheduler "s017" with entities [LocalPlayer, LocalPlayer], work=[5*, 0*]
 52: 0x0721 [0x27] REQ_SET(priority=0x0A, entity_id=Loo Kohor (ID: 17391855/0x010960EF), tag_num=0x03)
 53: 0x0728 [0x2B] Loo Kohor (ID: 17391855/0x010960EF) [7360*]:
    → "You are to take it and place it within the Overlord's cryptexphere."
 54: 0x072F [0x23] WAIT_FOR_DIALOG_INTERACTION
 55: 0x0730 [0x2A] GET_REQ_LEVEL(level=10, entity_id=Loo Kohor (ID: 17391855/0x010960EF))
 56: 0x0736 [0x5B] LOAD_EXT_SCHEDULER: Load scheduler "tlk0" with entities [Loo Kohor (ID: 17391855/0x010960EF), Loo Kohor (ID: 17391855/0x010960EF)], work=254*
 57: 0x0745 [0x2B] Loo Kohor (ID: 17391855/0x010960EF) [7361*]:
    → "Again, I will be waiting here for you behind these boulders, but let my will guide your spirit safely through this nest of fiends."
 58: 0x074C [0x23] WAIT_FOR_DIALOG_INTERACTION
 59: 0x074D [0x5B] LOAD_EXT_SCHEDULER: Load scheduler "tlk1" with entities [Loo Kohor (ID: 17391855/0x010960EF), Loo Kohor (ID: 17391855/0x010960EF)], work=254*
 60: 0x075C [0x1C] WAIT(10* ticks)
 61: 0x075F [0x27] REQ_SET(priority=0x0A, entity_id=Loo Kohor (ID: 17391855/0x010960EF), tag_num=0x04)
 62: 0x0766 [0x1C] WAIT(50* ticks)
 63: 0x0769 [0x1E] EventEntity looks at Loo Kohor (ID: 17391855/0x010960EF) and starts talking
 64: 0x076E [0x5D] SET_MUSIC_VOLUME(volume=0*, fade_time=120*)
 65: 0x0773 [0x45] LOAD_SCHEDULED_TASK: Load scheduler "fdo2" with entities [LocalPlayer, LocalPlayer], work=[200*, 0*]
 66: 0x0784 [0x55] WAIT_LOAD_SCHEDULER: Wait for scheduler "fdo2" with entities [LocalPlayer, LocalPlayer], work=200*
 67: 0x0793 [0x5C] MUSIC_CONTROL: Set Idle (Day) music to song 0*
 68: 0x0797 [0x5C] MUSIC_CONTROL: Set Idle (Night) music to song 0*
 69: 0x079B [0x46] CAMERA_CONTROL: Restore default settings
 70: 0x079D [0x45] LOAD_SCHEDULED_TASK: Load scheduler "fdi1" with entities [LocalPlayer, LocalPlayer], work=[200*, 0*]
 71: 0x07AE [0x21] END_EVENT
 72: 0x07AF [0x00] END_REQSTACK()
```

### Event 7

#### Metadata

| Field        | Value     |
|--------------|-----------|
| Entrypoint   | 0x07B0    |
| Data Size    | 262 bytes |
| Instructions | 29        |

```
      00 01 02 03 04 05 06 07  08 09 0A 0B 0C 0D 0E 0F
      -- -- -- -- -- -- -- --  -- -- -- -- -- -- -- --
07B0: 42 46 01 45 07 80 F0 FF  FF 7F F0 FF FF 7F 66 64  BF.E..........fd
07C0: 6F 31 05 80 55 07 80 F0  FF FF 7F F0 FF FF 7F 66  o1..U..........f
07D0: 64 6F 31 38 08 80 37 4E  80 4F 80 50 80 51 80 45  do18..7N.O.P.Q.E
07E0: 20 80 F0 FF FF 7F F0 FF  FF 7F 73 30 32 33 05 80   .........s023..
07F0: 45 07 80 F0 FF FF 7F F0  FF FF 7F 66 64 69 31 05  E..........fdi1.
0800: 80 6E F0 FF FF 7F 52 80  99 F0 FF FF 7F 4E 00 F1  .n....R......N..
0810: 60 09 01 2B F0 60 09 01  53 80 1C 33 80 1E F1 60  `..+.`..S..3...`
0820: 09 01 23 52 20 80 F0 FF  FF 7F F0 FF FF 7F 73 30  ..#R .........s0
0830: 32 33 45 20 80 F0 FF FF  7F F0 FF FF 7F 73 30 32  23E .........s02
0840: 34 05 80 45 07 80 F0 FF  FF 7F F0 FF FF 7F 62 6C  4..E..........bl
0850: 6F 6E 05 80 45 54 80 F0  FF FF 7F F0 FF FF 7F 62  on..ET.........b
0860: 6C 6F 6E 05 80 2B F1 60  09 01 55 80 1C 06 80 45  lon..+.`..U....E
0870: 07 80 F0 FF FF 7F F0 FF  FF 7F 62 6C 6F 66 05 80  ..........blof..
0880: 23 45 07 80 F0 FF FF 7F  F0 FF FF 7F 66 64 6F 30  #E..........fdo0
0890: 05 80 55 07 80 F0 FF FF  7F F0 FF FF 7F 66 64 6F  ..U..........fdo
08A0: 30 46 00 45 07 80 F0 FF  FF 7F F0 FF FF 7F 66 64  0F.E..........fd
08B0: 69 30 05 80 21 00                                 i0..!.          
```

#### Opcodes

```
  0: 0x07B0 [0x42] SET_CLI_EVENT_CANCEL_DATA()
  1: 0x07B1 [0x46] CAMERA_CONTROL: Disable user control
  2: 0x07B3 [0x45] LOAD_SCHEDULED_TASK: Load scheduler "fdo1" with entities [LocalPlayer, LocalPlayer], work=[200*, 0*]
  3: 0x07C4 [0x55] WAIT_LOAD_SCHEDULER: Wait for scheduler "fdo1" with entities [LocalPlayer, LocalPlayer], work=200*
  4: 0x07D3 [0x38] SET_CLIENT_EVENT_MODE(mode=19*)
  5: 0x07D6 [0x37] UPDATE_EVENT_POSITION_AND_DIR: x=-146.387*, z=-26.265*, y=-8.375*, direction=143.8°*
  6: 0x07DF [0x45] LOAD_SCHEDULED_TASK: Load scheduler "s023" with entities [LocalPlayer, LocalPlayer], work=[5*, 0*]
  7: 0x07F0 [0x45] LOAD_SCHEDULED_TASK: Load scheduler "fdi1" with entities [LocalPlayer, LocalPlayer], work=[200*, 0*]
  8: 0x0801 [0x6E] LocalPlayer uses emote 39*
  9: 0x0808 [0x99] Wait for LocalPlayer animation to complete
 10: 0x080D [0x4E] SET_ENTITY_HIDE_FLAG: Show Orcish Overlord (ID: 17391857/0x010960F1)
 11: 0x0813 [0x2B] ??? (ID: 17391856/0x010960F0) [7364*]:
    → "Uuhdahha! Kidanga rohhaah!"
 12: 0x081A [0x1C] WAIT(15* ticks)
 13: 0x081D [0x1E] EventEntity looks at Orcish Overlord (ID: 17391857/0x010960F1) and starts talking
 14: 0x0822 [0x23] WAIT_FOR_DIALOG_INTERACTION
 15: 0x0823 [0x52] END_LOAD_SCHEDULER: End scheduler "s023" with entities [LocalPlayer, LocalPlayer], work=5*
 16: 0x0832 [0x45] LOAD_SCHEDULED_TASK: Load scheduler "s024" with entities [LocalPlayer, LocalPlayer], work=[5*, 0*]
 17: 0x0843 [0x45] LOAD_SCHEDULED_TASK: Load scheduler "blon" with entities [LocalPlayer, LocalPlayer], work=[200*, 0*]
 18: 0x0854 [0x45] LOAD_SCHEDULED_TASK: Load scheduler "blon" with entities [LocalPlayer, LocalPlayer], work=[201*, 0*]
 19: 0x0865 [0x2B] Orcish Overlord (ID: 17391857/0x010960F1) [7365*]:
    → "Gahahah! I don't fall for your tricks! I know you too ugly to be Orc! Kill [him/her]!!!"
 20: 0x086C [0x1C] WAIT(60* ticks)
 21: 0x086F [0x45] LOAD_SCHEDULED_TASK: Load scheduler "blof" with entities [LocalPlayer, LocalPlayer], work=[200*, 0*]
 22: 0x0880 [0x23] WAIT_FOR_DIALOG_INTERACTION
 23: 0x0881 [0x45] LOAD_SCHEDULED_TASK: Load scheduler "fdo0" with entities [LocalPlayer, LocalPlayer], work=[200*, 0*]
 24: 0x0892 [0x55] WAIT_LOAD_SCHEDULER: Wait for scheduler "fdo0" with entities [LocalPlayer, LocalPlayer], work=200*
 25: 0x08A1 [0x46] CAMERA_CONTROL: Restore default settings
 26: 0x08A3 [0x45] LOAD_SCHEDULED_TASK: Load scheduler "fdi0" with entities [LocalPlayer, LocalPlayer], work=[200*, 0*]
 27: 0x08B4 [0x21] END_EVENT
 28: 0x08B5 [0x00] END_REQSTACK()
```

### Event 8

#### Metadata

| Field        | Value     |
|--------------|-----------|
| Entrypoint   | 0x08B6    |
| Data Size    | 438 bytes |
| Instructions | 55        |

```
      00 01 02 03 04 05 06 07  08 09 0A 0B 0C 0D 0E 0F
      -- -- -- -- -- -- -- --  -- -- -- -- -- -- -- --
08B0:                   42 46  01 5D 05 80 06 80 45 07        BF.]....E.
08C0: 80 F0 FF FF 7F F0 FF FF  7F 66 64 6F 31 05 80 55  .........fdo1..U
08D0: 07 80 F0 FF FF 7F F0 FF  FF 7F 66 64 6F 31 5C 00  ..........fdo1\.
08E0: 56 80 5C 01 56 80 38 08  80 37 57 80 58 80 59 80  V.\.V.8..7W.X.Y.
08F0: 5A 80 45 20 80 F0 FF FF  7F F0 FF FF 7F 73 30 32  Z.E .........s02
0900: 35 05 80 45 07 80 F0 FF  FF 7F F0 FF FF 7F 66 64  5..E..........fd
0910: 69 31 05 80 4E 00 F1 60  09 01 4E 00 F2 60 09 01  i1..N..`..N..`..
0920: 4A F2 60 09 01 F0 FF FF  7F 1E F1 60 09 01 2C F1  J.`........`..,.
0930: 60 09 01 F1 60 09 01 64  65 61 64 53 F1 60 09 01  `...`..deadS.`..
0940: F1 60 09 01 64 65 61 64  2B F0 60 09 01 5B 80 1C  .`..dead+.`..[..
0950: 35 80 1E F2 60 09 01 23  79 00 F2 60 09 01 F1 60  5...`..#y..`...`
0960: 09 01 27 0A F2 60 09 01  02 45 20 80 F0 FF FF 7F  ..'..`...E .....
0970: F0 FF FF 7F 73 30 32 36  05 80 1C 35 80 2B F2 60  ....s026...5.+.`
0980: 09 01 5C 80 23 2A 0A F2  60 09 01 79 00 F2 60 09  ..\.#*..`..y..`.
0990: 01 F0 FF FF 7F 2B F2 60  09 01 5D 80 23 52 20 80  .....+.`..].#R .
09A0: F0 FF FF 7F F0 FF FF 7F  73 30 32 36 45 20 80 F0  ........s026E ..
09B0: FF FF 7F F0 FF FF 7F 73  30 32 37 05 80 2B F2 60  .......s027..+.`
09C0: 09 01 5E 80 23 5B 5F 80  F2 60 09 01 F2 60 09 01  ..^.#[_..`...`..
09D0: 74 6C 6B 30 2B F2 60 09  01 60 80 23 52 20 80 F0  tlk0+.`..`.#R ..
09E0: FF FF 7F F0 FF FF 7F 73  30 32 37 45 20 80 F0 FF  .......s027E ...
09F0: FF 7F F0 FF FF 7F 73 30  32 38 05 80 2B F2 60 09  ......s028..+.`.
0A00: 01 61 80 23 5B 5F 80 F2  60 09 01 F2 60 09 01 74  .a.#[_..`...`..t
0A10: 6C 6B 31 2B F2 60 09 01  62 80 23 5D 05 80 19 80  lk1+.`..b.#]....
0A20: 45 07 80 F0 FF FF 7F F0  FF FF 7F 66 64 6F 32 05  E..........fdo2.
0A30: 80 55 07 80 F0 FF FF 7F  F0 FF FF 7F 66 64 6F 32  .U..........fdo2
0A40: 52 20 80 F0 FF FF 7F F0  FF FF 7F 73 30 32 38 5C  R .........s028\
0A50: 00 05 80 5C 01 05 80 46  00 45 07 80 F0 FF FF 7F  ...\...F.E......
0A60: F0 FF FF 7F 66 64 69 31  05 80 21 00              ....fdi1..!.    
```

#### Opcodes

```
  0: 0x08B6 [0x42] SET_CLI_EVENT_CANCEL_DATA()
  1: 0x08B7 [0x46] CAMERA_CONTROL: Disable user control
  2: 0x08B9 [0x5D] SET_MUSIC_VOLUME(volume=0*, fade_time=60*)
  3: 0x08BE [0x45] LOAD_SCHEDULED_TASK: Load scheduler "fdo1" with entities [LocalPlayer, LocalPlayer], work=[200*, 0*]
  4: 0x08CF [0x55] WAIT_LOAD_SCHEDULER: Wait for scheduler "fdo1" with entities [LocalPlayer, LocalPlayer], work=200*
  5: 0x08DE [0x5C] MUSIC_CONTROL: Set Idle (Day) music to song 161*
  6: 0x08E2 [0x5C] MUSIC_CONTROL: Set Idle (Night) music to song 161*
  7: 0x08E6 [0x38] SET_CLIENT_EVENT_MODE(mode=19*)
  8: 0x08E9 [0x37] UPDATE_EVENT_POSITION_AND_DIR: x=-145.525*, z=-27.272*, y=-8.392*, direction=358.7°*
  9: 0x08F2 [0x45] LOAD_SCHEDULED_TASK: Load scheduler "s025" with entities [LocalPlayer, LocalPlayer], work=[5*, 0*]
 10: 0x0903 [0x45] LOAD_SCHEDULED_TASK: Load scheduler "fdi1" with entities [LocalPlayer, LocalPlayer], work=[200*, 0*]
 11: 0x0914 [0x4E] SET_ENTITY_HIDE_FLAG: Show Orcish Overlord (ID: 17391857/0x010960F1)
 12: 0x091A [0x4E] SET_ENTITY_HIDE_FLAG: Show Overlord Bakgodek (ID: 17391858/0x010960F2)
 13: 0x0920 [0x4A] Overlord Bakgodek (ID: 17391858/0x010960F2) looks at LocalPlayer
 14: 0x0929 [0x1E] EventEntity looks at Orcish Overlord (ID: 17391857/0x010960F1) and starts talking
 15: 0x092E [0x2C] CREATE_SCHEDULER_TASK: Create scheduler "dead" with entities [Orcish Overlord (ID: 17391857/0x010960F1), Orcish Overlord (ID: 17391857/0x010960F1)]
 16: 0x093B [0x53] WAIT_SCHEDULER_TASK: Wait for scheduler "dead" with entities [Orcish Overlord (ID: 17391857/0x010960F1), Orcish Overlord (ID: 17391857/0x010960F1)]
 17: 0x0948 [0x2B] ??? (ID: 17391856/0x010960F0) [7366*]:
    → "Stop!"
 18: 0x094F [0x1C] WAIT(30* ticks)
 19: 0x0952 [0x1E] EventEntity looks at Overlord Bakgodek (ID: 17391858/0x010960F2) and starts talking
 20: 0x0957 [0x23] WAIT_FOR_DIALOG_INTERACTION
 21: 0x0958 [0x79] Overlord Bakgodek (ID: 17391858/0x010960F2) looks at Orcish Overlord (ID: 17391857/0x010960F1) (Basic look)
 22: 0x0962 [0x27] REQ_SET(priority=0x0A, entity_id=Overlord Bakgodek (ID: 17391858/0x010960F2), tag_num=0x02)
 23: 0x0969 [0x45] LOAD_SCHEDULED_TASK: Load scheduler "s026" with entities [LocalPlayer, LocalPlayer], work=[5*, 0*]
 24: 0x097A [0x1C] WAIT(30* ticks)
 25: 0x097D [0x2B] Overlord Bakgodek (ID: 17391858/0x010960F2) [7367*]:
    → "You fool! You bear name Overlord, but do not forget who has true power!"
 26: 0x0984 [0x23] WAIT_FOR_DIALOG_INTERACTION
 27: 0x0985 [0x2A] GET_REQ_LEVEL(level=10, entity_id=Overlord Bakgodek (ID: 17391858/0x010960F2))
 28: 0x098B [0x79] Overlord Bakgodek (ID: 17391858/0x010960F2) looks at LocalPlayer (Basic look)
 29: 0x0995 [0x2B] Overlord Bakgodek (ID: 17391858/0x010960F2) [7368*]:
    → "My apology, adventurer. I see you are messenger for Yagudo."
 30: 0x099C [0x23] WAIT_FOR_DIALOG_INTERACTION
 31: 0x099D [0x52] END_LOAD_SCHEDULER: End scheduler "s026" with entities [LocalPlayer, LocalPlayer], work=5*
 32: 0x09AC [0x45] LOAD_SCHEDULED_TASK: Load scheduler "s027" with entities [LocalPlayer, LocalPlayer], work=[5*, 0*]
 33: 0x09BD [0x2B] Overlord Bakgodek (ID: 17391858/0x010960F2) [7369*]:
    → "But I don't understand. Why would child of Altana keep promise to beastman? Why would you risk life for him? You either very brave, very noble, or very stupid. Gahahah!"
 34: 0x09C4 [0x23] WAIT_FOR_DIALOG_INTERACTION
 35: 0x09C5 [0x5B] LOAD_EXT_SCHEDULER: Load scheduler "tlk0" with entities [Overlord Bakgodek (ID: 17391858/0x010960F2), Overlord Bakgodek (ID: 17391858/0x010960F2)], work=225*
 36: 0x09D4 [0x2B] Overlord Bakgodek (ID: 17391858/0x010960F2) [7370*]:
    → "We Orcs have no respect for coward. I'll be first to cut their throat! But we do respect bravery and good fight, whether fighter be enemy or friend!"
 37: 0x09DB [0x23] WAIT_FOR_DIALOG_INTERACTION
 38: 0x09DC [0x52] END_LOAD_SCHEDULER: End scheduler "s027" with entities [LocalPlayer, LocalPlayer], work=5*
 39: 0x09EB [0x45] LOAD_SCHEDULED_TASK: Load scheduler "s028" with entities [LocalPlayer, LocalPlayer], work=[5*, 0*]
 40: 0x09FC [0x2B] Overlord Bakgodek (ID: 17391858/0x010960F2) [7371*]:
    → "Now, how can I repay you...?"
 41: 0x0A03 [0x23] WAIT_FOR_DIALOG_INTERACTION
 42: 0x0A04 [0x5B] LOAD_EXT_SCHEDULER: Load scheduler "tlk1" with entities [Overlord Bakgodek (ID: 17391858/0x010960F2), Overlord Bakgodek (ID: 17391858/0x010960F2)], work=225*
 43: 0x0A13 [0x2B] Overlord Bakgodek (ID: 17391858/0x010960F2) [7372*]:
    → "Ah! That ugly hat! Put it down on cryptexphere."
 44: 0x0A1A [0x23] WAIT_FOR_DIALOG_INTERACTION
 45: 0x0A1B [0x5D] SET_MUSIC_VOLUME(volume=0*, fade_time=120*)
 46: 0x0A20 [0x45] LOAD_SCHEDULED_TASK: Load scheduler "fdo2" with entities [LocalPlayer, LocalPlayer], work=[200*, 0*]
 47: 0x0A31 [0x55] WAIT_LOAD_SCHEDULER: Wait for scheduler "fdo2" with entities [LocalPlayer, LocalPlayer], work=200*
 48: 0x0A40 [0x52] END_LOAD_SCHEDULER: End scheduler "s028" with entities [LocalPlayer, LocalPlayer], work=5*
 49: 0x0A4F [0x5C] MUSIC_CONTROL: Set Idle (Day) music to song 0*
 50: 0x0A53 [0x5C] MUSIC_CONTROL: Set Idle (Night) music to song 0*
 51: 0x0A57 [0x46] CAMERA_CONTROL: Restore default settings
 52: 0x0A59 [0x45] LOAD_SCHEDULED_TASK: Load scheduler "fdi1" with entities [LocalPlayer, LocalPlayer], work=[200*, 0*]
 53: 0x0A6A [0x21] END_EVENT
 54: 0x0A6B [0x00] END_REQSTACK()
```

### Event 9

#### Metadata

| Field        | Value     |
|--------------|-----------|
| Entrypoint   | 0x0A6C    |
| Data Size    | 700 bytes |
| Instructions | 85        |

```
      00 01 02 03 04 05 06 07  08 09 0A 0B 0C 0D 0E 0F
      -- -- -- -- -- -- -- --  -- -- -- -- -- -- -- --
0A60:                                      42 46 01 5D              BF.]
0A70: 05 80 06 80 45 07 80 F0  FF FF 7F F0 FF FF 7F 66  ....E..........f
0A80: 64 6F 31 05 80 55 07 80  F0 FF FF 7F F0 FF FF 7F  do1..U..........
0A90: 66 64 6F 31 5C 00 63 80  5C 01 63 80 37 64 80 65  fdo1\.c.\.c.7d.e
0AA0: 80 66 80 67 80 38 08 80  4E 00 F2 60 09 01 79 00  .f.g.8..N..`..y.
0AB0: F2 60 09 01 F0 FF FF 7F  45 20 80 F0 FF FF 7F F0  .`......E ......
0AC0: FF FF 7F 73 30 32 39 05  80 45 07 80 F0 FF FF 7F  ...s029..E......
0AD0: F0 FF FF 7F 66 64 69 31  05 80 6E F0 FF FF 7F 52  ....fdi1..n....R
0AE0: 80 99 F0 FF FF 7F 2B F2  60 09 01 68 80 1C 4D 80  ......+.`..h..M.
0AF0: 1E F2 60 09 01 23 7B F2  60 09 01 2B F2 60 09 01  ..`..#{.`..+.`..
0B00: 69 80 23 4E 00 F3 60 09  01 52 20 80 F0 FF FF 7F  i.#N..`..R .....
0B10: F0 FF FF 7F 73 30 32 39  45 20 80 F0 FF FF 7F F0  ....s029E ......
0B20: FF FF 7F 73 30 33 30 05  80 27 0A F3 60 09 01 02  ...s030..'..`...
0B30: 2B F3 60 09 01 6A 80 23  2A 0A F3 60 09 01 2B F2  +.`..j.#*..`..+.
0B40: 60 09 01 6B 80 23 79 00  F3 60 09 01 F2 60 09 01  `..k.#y..`...`..
0B50: 2B F3 60 09 01 6C 80 23  52 20 80 F0 FF FF 7F F0  +.`..l.#R ......
0B60: FF FF 7F 73 30 33 30 45  20 80 F0 FF FF 7F F0 FF  ...s030E .......
0B70: FF 7F 73 30 33 31 05 80  5B 5F 80 F2 60 09 01 F2  ..s031..[_..`...
0B80: 60 09 01 74 6C 6B 30 2B  F2 60 09 01 6D 80 23 5B  `..tlk0+.`..m.#[
0B90: 5F 80 F2 60 09 01 F2 60  09 01 74 6C 6B 31 5B 5F  _..`...`..tlk1[_
0BA0: 80 F3 60 09 01 F3 60 09  01 74 6C 6B 30 2B F3 60  ..`...`..tlk0+.`
0BB0: 09 01 6E 80 23 5B 5F 80  F3 60 09 01 F3 60 09 01  ..n.#[_..`...`..
0BC0: 74 6C 6B 31 52 20 80 F0  FF FF 7F F0 FF FF 7F 73  tlk1R .........s
0BD0: 30 33 31 45 20 80 F0 FF  FF 7F F0 FF FF 7F 73 30  031E .........s0
0BE0: 33 32 05 80 79 00 F2 60  09 01 F3 60 09 01 4B F2  32..y..`...`..K.
0BF0: 60 09 01 6F 80 2B F2 60  09 01 70 80 23 7B F3 60  `..o.+.`..p.#{.`
0C00: 09 01 2B F3 60 09 01 71  80 23 73 72 80 F3 60 09  ..+.`..q.#sr..`.
0C10: 01 F3 60 09 01 1C 73 80  45 07 80 F0 FF FF 7F F0  ..`...s.E.......
0C20: FF FF 7F 66 64 6F 31 05  80 55 07 80 F0 FF FF 7F  ...fdo1..U......
0C30: F0 FF FF 7F 66 64 6F 31  4E 01 F3 60 09 01 52 20  ....fdo1N..`..R 
0C40: 80 F0 FF FF 7F F0 FF FF  7F 73 30 33 32 45 20 80  .........s032E .
0C50: F0 FF FF 7F F0 FF FF 7F  73 30 33 33 05 80 45 07  ........s033..E.
0C60: 80 F0 FF FF 7F F0 FF FF  7F 66 64 69 31 05 80 4A  .........fdi1..J
0C70: F2 60 09 01 F0 FF FF 7F  2B F2 60 09 01 74 80 23  .`......+.`..t.#
0C80: 2B F2 60 09 01 75 80 23  52 20 80 F0 FF FF 7F F0  +.`..u.#R ......
0C90: FF FF 7F 73 30 33 33 45  20 80 F0 FF FF 7F F0 FF  ...s033E .......
0CA0: FF 7F 73 30 33 34 05 80  4B F2 60 09 01 76 80 2B  ..s034..K.`..v.+
0CB0: F2 60 09 01 77 80 23 2B  F2 60 09 01 78 80 23 27  .`..w.#+.`..x.#'
0CC0: 0A F2 60 09 01 05 5D 05  80 19 80 45 07 80 F0 FF  ..`...]....E....
0CD0: FF 7F F0 FF FF 7F 66 64  6F 32 05 80 55 07 80 F0  ......fdo2..U...
0CE0: FF FF 7F F0 FF FF 7F 66  64 6F 32 5C 00 05 80 5C  .......fdo2\...\
0CF0: 01 05 80 46 00 52 20 80  F0 FF FF 7F F0 FF FF 7F  ...F.R .........
0D00: 73 30 33 34 45 54 80 F0  FF FF 7F F0 FF FF 7F 71  s034ET.........q
0D10: 73 74 63 05 80 45 07 80  F0 FF FF 7F F0 FF FF 7F  stc..E..........
0D20: 66 64 69 32 05 80 21 00                           fdi2..!.        
```

#### Opcodes

```
  0: 0x0A6C [0x42] SET_CLI_EVENT_CANCEL_DATA()
  1: 0x0A6D [0x46] CAMERA_CONTROL: Disable user control
  2: 0x0A6F [0x5D] SET_MUSIC_VOLUME(volume=0*, fade_time=60*)
  3: 0x0A74 [0x45] LOAD_SCHEDULED_TASK: Load scheduler "fdo1" with entities [LocalPlayer, LocalPlayer], work=[200*, 0*]
  4: 0x0A85 [0x55] WAIT_LOAD_SCHEDULER: Wait for scheduler "fdo1" with entities [LocalPlayer, LocalPlayer], work=200*
  5: 0x0A94 [0x5C] MUSIC_CONTROL: Set Idle (Day) music to song 157*
  6: 0x0A98 [0x5C] MUSIC_CONTROL: Set Idle (Night) music to song 157*
  7: 0x0A9C [0x37] UPDATE_EVENT_POSITION_AND_DIR: x=-146.943*, z=-27.924*, y=-8.268*, direction=242.3°*
  8: 0x0AA5 [0x38] SET_CLIENT_EVENT_MODE(mode=19*)
  9: 0x0AA8 [0x4E] SET_ENTITY_HIDE_FLAG: Show Overlord Bakgodek (ID: 17391858/0x010960F2)
 10: 0x0AAE [0x79] Overlord Bakgodek (ID: 17391858/0x010960F2) looks at LocalPlayer (Basic look)
 11: 0x0AB8 [0x45] LOAD_SCHEDULED_TASK: Load scheduler "s029" with entities [LocalPlayer, LocalPlayer], work=[5*, 0*]
 12: 0x0AC9 [0x45] LOAD_SCHEDULED_TASK: Load scheduler "fdi1" with entities [LocalPlayer, LocalPlayer], work=[200*, 0*]
 13: 0x0ADA [0x6E] LocalPlayer uses emote 39*
 14: 0x0AE1 [0x99] Wait for LocalPlayer animation to complete
 15: 0x0AE6 [0x2B] Overlord Bakgodek (ID: 17391858/0x010960F2) [7373*]:
    → "Good. You take order well. Better than most of my troops!"
 16: 0x0AED [0x1C] WAIT(50* ticks)
 17: 0x0AF0 [0x1E] EventEntity looks at Overlord Bakgodek (ID: 17391858/0x010960F2) and starts talking
 18: 0x0AF5 [0x23] WAIT_FOR_DIALOG_INTERACTION
 19: 0x0AF6 [0x7B] Overlord Bakgodek (ID: 17391858/0x010960F2) stops talking
 20: 0x0AFB [0x2B] Overlord Bakgodek (ID: 17391858/0x010960F2) [7374*]:
    → "Gadzradd! Gadzradd! Come now!"
 21: 0x0B02 [0x23] WAIT_FOR_DIALOG_INTERACTION
 22: 0x0B03 [0x4E] SET_ENTITY_HIDE_FLAG: Show Ironhand Gadzradd (ID: 17391859/0x010960F3)
 23: 0x0B09 [0x52] END_LOAD_SCHEDULER: End scheduler "s029" with entities [LocalPlayer, LocalPlayer], work=5*
 24: 0x0B18 [0x45] LOAD_SCHEDULED_TASK: Load scheduler "s030" with entities [LocalPlayer, LocalPlayer], work=[5*, 0*]
 25: 0x0B29 [0x27] REQ_SET(priority=0x0A, entity_id=Ironhand Gadzradd (ID: 17391859/0x010960F3), tag_num=0x02)
 26: 0x0B30 [0x2B] Ironhand Gadzradd (ID: 17391859/0x010960F3) [7375*]:
    → "Yes, lord..."
 27: 0x0B37 [0x23] WAIT_FOR_DIALOG_INTERACTION
 28: 0x0B38 [0x2A] GET_REQ_LEVEL(level=10, entity_id=Ironhand Gadzradd (ID: 17391859/0x010960F3))
 29: 0x0B3E [0x2B] Overlord Bakgodek (ID: 17391858/0x010960F2) [7376*]:
    → "Starting today, you have new order. You protect this adventurer when [he/she] need you."
 30: 0x0B45 [0x23] WAIT_FOR_DIALOG_INTERACTION
 31: 0x0B46 [0x79] Ironhand Gadzradd (ID: 17391859/0x010960F3) looks at Overlord Bakgodek (ID: 17391858/0x010960F2) (Basic look)
 32: 0x0B50 [0x2B] Ironhand Gadzradd (ID: 17391859/0x010960F3) [7377*]:
    → "B-but lord..."
 33: 0x0B57 [0x23] WAIT_FOR_DIALOG_INTERACTION
 34: 0x0B58 [0x52] END_LOAD_SCHEDULER: End scheduler "s030" with entities [LocalPlayer, LocalPlayer], work=5*
 35: 0x0B67 [0x45] LOAD_SCHEDULED_TASK: Load scheduler "s031" with entities [LocalPlayer, LocalPlayer], work=[5*, 0*]
 36: 0x0B78 [0x5B] LOAD_EXT_SCHEDULER: Load scheduler "tlk0" with entities [Overlord Bakgodek (ID: 17391858/0x010960F2), Overlord Bakgodek (ID: 17391858/0x010960F2)], work=225*
 37: 0x0B87 [0x2B] Overlord Bakgodek (ID: 17391858/0x010960F2) [7378*]:
    → "If adventurer use hat, you run to [his/her] side and fight to death!"
 38: 0x0B8E [0x23] WAIT_FOR_DIALOG_INTERACTION
 39: 0x0B8F [0x5B] LOAD_EXT_SCHEDULER: Load scheduler "tlk1" with entities [Overlord Bakgodek (ID: 17391858/0x010960F2), Overlord Bakgodek (ID: 17391858/0x010960F2)], work=225*
 40: 0x0B9E [0x5B] LOAD_EXT_SCHEDULER: Load scheduler "tlk0" with entities [Ironhand Gadzradd (ID: 17391859/0x010960F3), Ironhand Gadzradd (ID: 17391859/0x010960F3)], work=225*
 41: 0x0BAD [0x2B] Ironhand Gadzradd (ID: 17391859/0x010960F3) [7379*]:
    → "Yes, lord! B-but..."
 42: 0x0BB4 [0x23] WAIT_FOR_DIALOG_INTERACTION
 43: 0x0BB5 [0x5B] LOAD_EXT_SCHEDULER: Load scheduler "tlk1" with entities [Ironhand Gadzradd (ID: 17391859/0x010960F3), Ironhand Gadzradd (ID: 17391859/0x010960F3)], work=225*
 44: 0x0BC4 [0x52] END_LOAD_SCHEDULER: End scheduler "s031" with entities [LocalPlayer, LocalPlayer], work=5*
 45: 0x0BD3 [0x45] LOAD_SCHEDULED_TASK: Load scheduler "s032" with entities [LocalPlayer, LocalPlayer], work=[5*, 0*]
 46: 0x0BE4 [0x79] Overlord Bakgodek (ID: 17391858/0x010960F2) looks at Ironhand Gadzradd (ID: 17391859/0x010960F3) (Basic look)
 47: 0x0BEE [0x4B] UPDATE_ENTITY_YAW(entity=Overlord Bakgodek (ID: 17391858/0x010960F2), yaw=14.8°*)
 48: 0x0BF5 [0x2B] Overlord Bakgodek (ID: 17391858/0x010960F2) [7380*]:
    → "Even if [he/she] ask you to fight me, you don't step down, or I crush your skull myself!"
 49: 0x0BFC [0x23] WAIT_FOR_DIALOG_INTERACTION
 50: 0x0BFD [0x7B] Ironhand Gadzradd (ID: 17391859/0x010960F3) stops talking
 51: 0x0C02 [0x2B] Ironhand Gadzradd (ID: 17391859/0x010960F3) [7381*]:
    → "U-understood..."
 52: 0x0C09 [0x23] WAIT_FOR_DIALOG_INTERACTION
 53: 0x0C0A [0x73] Ironhand Gadzradd (ID: 17391859/0x010960F3) casts magic 501* on Ironhand Gadzradd (ID: 17391859/0x010960F3)
 54: 0x0C15 [0x1C] WAIT(240* ticks)
 55: 0x0C18 [0x45] LOAD_SCHEDULED_TASK: Load scheduler "fdo1" with entities [LocalPlayer, LocalPlayer], work=[200*, 0*]
 56: 0x0C29 [0x55] WAIT_LOAD_SCHEDULER: Wait for scheduler "fdo1" with entities [LocalPlayer, LocalPlayer], work=200*
 57: 0x0C38 [0x4E] SET_ENTITY_HIDE_FLAG: Hide Ironhand Gadzradd (ID: 17391859/0x010960F3)
 58: 0x0C3E [0x52] END_LOAD_SCHEDULER: End scheduler "s032" with entities [LocalPlayer, LocalPlayer], work=5*
 59: 0x0C4D [0x45] LOAD_SCHEDULED_TASK: Load scheduler "s033" with entities [LocalPlayer, LocalPlayer], work=[5*, 0*]
 60: 0x0C5E [0x45] LOAD_SCHEDULED_TASK: Load scheduler "fdi1" with entities [LocalPlayer, LocalPlayer], work=[200*, 0*]
 61: 0x0C6F [0x4A] Overlord Bakgodek (ID: 17391858/0x010960F2) looks at LocalPlayer
 62: 0x0C78 [0x2B] Overlord Bakgodek (ID: 17391858/0x010960F2) [7382*]:
    → "Here's hat. Proof of true bravery worthy of mighty Orc!"
 63: 0x0C7F [0x23] WAIT_FOR_DIALOG_INTERACTION
 64: 0x0C80 [0x2B] Overlord Bakgodek (ID: 17391858/0x010960F2) [7383*]:
    → "Use hat to summon Gadzradd. He hides in shadows but comes when you call. No worry about language. Gadzradd speaks your words good."
 65: 0x0C87 [0x23] WAIT_FOR_DIALOG_INTERACTION
 66: 0x0C88 [0x52] END_LOAD_SCHEDULER: End scheduler "s033" with entities [LocalPlayer, LocalPlayer], work=5*
 67: 0x0C97 [0x45] LOAD_SCHEDULED_TASK: Load scheduler "s034" with entities [LocalPlayer, LocalPlayer], work=[5*, 0*]
 68: 0x0CA8 [0x4B] UPDATE_ENTITY_YAW(entity=Overlord Bakgodek (ID: 17391858/0x010960F2), yaw=19.2°*)
 69: 0x0CAF [0x2B] Overlord Bakgodek (ID: 17391858/0x010960F2) [7384*]:
    → "Now I must go, adventurer."
 70: 0x0CB6 [0x23] WAIT_FOR_DIALOG_INTERACTION
 71: 0x0CB7 [0x2B] Overlord Bakgodek (ID: 17391858/0x010960F2) [7385*]:
    → "You are great warrior, and I salute you. But next time we meet we are enemy. Watch back, or you might be smashed into pulp! Gahahah!"
 72: 0x0CBE [0x23] WAIT_FOR_DIALOG_INTERACTION
 73: 0x0CBF [0x27] REQ_SET(priority=0x0A, entity_id=Overlord Bakgodek (ID: 17391858/0x010960F2), tag_num=0x05)
 74: 0x0CC6 [0x5D] SET_MUSIC_VOLUME(volume=0*, fade_time=120*)
 75: 0x0CCB [0x45] LOAD_SCHEDULED_TASK: Load scheduler "fdo2" with entities [LocalPlayer, LocalPlayer], work=[200*, 0*]
 76: 0x0CDC [0x55] WAIT_LOAD_SCHEDULER: Wait for scheduler "fdo2" with entities [LocalPlayer, LocalPlayer], work=200*
 77: 0x0CEB [0x5C] MUSIC_CONTROL: Set Idle (Day) music to song 0*
 78: 0x0CEF [0x5C] MUSIC_CONTROL: Set Idle (Night) music to song 0*
 79: 0x0CF3 [0x46] CAMERA_CONTROL: Restore default settings
 80: 0x0CF5 [0x52] END_LOAD_SCHEDULER: End scheduler "s034" with entities [LocalPlayer, LocalPlayer], work=5*
 81: 0x0D04 [0x45] LOAD_SCHEDULED_TASK: Load scheduler "qstc" with entities [LocalPlayer, LocalPlayer], work=[201*, 0*]
 82: 0x0D15 [0x45] LOAD_SCHEDULED_TASK: Load scheduler "fdi2" with entities [LocalPlayer, LocalPlayer], work=[200*, 0*]
 83: 0x0D26 [0x21] END_EVENT
 84: 0x0D27 [0x00] END_REQSTACK()
```

### Event 10

#### Metadata

| Field        | Value     |
|--------------|-----------|
| Entrypoint   | 0x0D28    |
| Data Size    | 362 bytes |
| Instructions | 50        |

```
      00 01 02 03 04 05 06 07  08 09 0A 0B 0C 0D 0E 0F
      -- -- -- -- -- -- -- --  -- -- -- -- -- -- -- --
0D20:                          42 46 01 5D 05 80 06 80          BF.]....
0D30: 45 07 80 F0 FF FF 7F F0  FF FF 7F 66 64 6F 31 05  E..........fdo1.
0D40: 80 55 07 80 F0 FF FF 7F  F0 FF FF 7F 66 64 6F 31  .U..........fdo1
0D50: 5C 00 1B 80 5C 01 1B 80  38 08 80 4E 00 EF 60 09  \...\...8..N..`.
0D60: 01 37 25 80 26 80 27 80  79 80 22 00 45 20 80 F0  .7%.&.'.y.".E ..
0D70: FF FF 7F F0 FF FF 7F 73  30 32 30 05 80 45 07 80  .......s020..E..
0D80: F0 FF FF 7F F0 FF FF 7F  66 64 69 31 05 80 1C 06  ........fdi1....
0D90: 80 4A EF 60 09 01 F0 FF  FF 7F 1C 35 80 2B EF 60  .J.`.......5.+.`
0DA0: 09 01 7A 80 23 27 0A EF  60 09 01 02 1C 35 80 52  ..z.#'..`....5.R
0DB0: 20 80 F0 FF FF 7F F0 FF  FF 7F 73 30 32 30 45 20   .........s020E 
0DC0: 80 F0 FF FF 7F F0 FF FF  7F 73 30 32 31 05 80 2B  .........s021..+
0DD0: EF 60 09 01 7B 80 23 2B  EF 60 09 01 7C 80 23 52  .`..{.#+.`..|.#R
0DE0: 20 80 F0 FF FF 7F F0 FF  FF 7F 73 30 32 31 45 20   .........s021E 
0DF0: 80 F0 FF FF 7F F0 FF FF  7F 73 30 32 32 05 80 27  .........s022..'
0E00: 0A EF 60 09 01 05 2B EF  60 09 01 7D 80 1C 7E 80  ..`...+.`..}..~.
0E10: 1E EF 60 09 01 23 2B EF  60 09 01 7F 80 23 1C 36  ..`..#+.`....#.6
0E20: 80 55 20 80 F0 FF FF 7F  F0 FF FF 7F 73 30 32 32  .U .........s022
0E30: 2B EF 60 09 01 80 80 23  27 0A EF 60 09 01 06 5D  +.`....#'..`...]
0E40: 05 80 19 80 45 07 80 F0  FF FF 7F F0 FF FF 7F 66  ....E..........f
0E50: 64 6F 32 05 80 55 07 80  F0 FF FF 7F F0 FF FF 7F  do2..U..........
0E60: 66 64 6F 32 46 00 5C 00  05 80 5C 01 05 80 45 54  fdo2F.\...\...ET
0E70: 80 F0 FF FF 7F F0 FF FF  7F 71 73 74 63 05 80 45  .........qstc..E
0E80: 07 80 F0 FF FF 7F F0 FF  FF 7F 66 64 69 32 05 80  ..........fdi2..
0E90: 21 00                                             !.              
```

#### Opcodes

```
  0: 0x0D28 [0x42] SET_CLI_EVENT_CANCEL_DATA()
  1: 0x0D29 [0x46] CAMERA_CONTROL: Disable user control
  2: 0x0D2B [0x5D] SET_MUSIC_VOLUME(volume=0*, fade_time=60*)
  3: 0x0D30 [0x45] LOAD_SCHEDULED_TASK: Load scheduler "fdo1" with entities [LocalPlayer, LocalPlayer], work=[200*, 0*]
  4: 0x0D41 [0x55] WAIT_LOAD_SCHEDULER: Wait for scheduler "fdo1" with entities [LocalPlayer, LocalPlayer], work=200*
  5: 0x0D50 [0x5C] MUSIC_CONTROL: Set Idle (Day) music to song 163*
  6: 0x0D54 [0x5C] MUSIC_CONTROL: Set Idle (Night) music to song 163*
  7: 0x0D58 [0x38] SET_CLIENT_EVENT_MODE(mode=19*)
  8: 0x0D5B [0x4E] SET_ENTITY_HIDE_FLAG: Show Loo Kohor (ID: 17391855/0x010960EF)
  9: 0x0D61 [0x37] UPDATE_EVENT_POSITION_AND_DIR: x=-48.319*, z=-101.866*, y=-16.328*, direction=183.3°*
 10: 0x0D6A [0x22] ENTITY_HIDE_FLAG(enabled=0x00)
 11: 0x0D6C [0x45] LOAD_SCHEDULED_TASK: Load scheduler "s020" with entities [LocalPlayer, LocalPlayer], work=[5*, 0*]
 12: 0x0D7D [0x45] LOAD_SCHEDULED_TASK: Load scheduler "fdi1" with entities [LocalPlayer, LocalPlayer], work=[200*, 0*]
 13: 0x0D8E [0x1C] WAIT(60* ticks)
 14: 0x0D91 [0x4A] Loo Kohor (ID: 17391855/0x010960EF) looks at LocalPlayer
 15: 0x0D9A [0x1C] WAIT(30* ticks)
 16: 0x0D9D [0x2B] Loo Kohor (ID: 17391855/0x010960EF) [7386*]:
    → "What took you so long? I was beginning to worry that you had been..."
 17: 0x0DA4 [0x23] WAIT_FOR_DIALOG_INTERACTION
 18: 0x0DA5 [0x27] REQ_SET(priority=0x0A, entity_id=Loo Kohor (ID: 17391855/0x010960EF), tag_num=0x02)
 19: 0x0DAC [0x1C] WAIT(30* ticks)
 20: 0x0DAF [0x52] END_LOAD_SCHEDULER: End scheduler "s020" with entities [LocalPlayer, LocalPlayer], work=5*
 21: 0x0DBE [0x45] LOAD_SCHEDULED_TASK: Load scheduler "s021" with entities [LocalPlayer, LocalPlayer], work=[5*, 0*]
 22: 0x0DCF [0x2B] Loo Kohor (ID: 17391855/0x010960EF) [7387*]:
    → "Ahem...kwahk! Here is your reward. Did you believe I would attempt to trick you? I know not your people's beliefs, but it is against the teachings of the almighty Tzee Xicu to break one's promise."
 23: 0x0DD6 [0x23] WAIT_FOR_DIALOG_INTERACTION
 24: 0x0DD7 [0x2B] Loo Kohor (ID: 17391855/0x010960EF) [7388*]:
    → "What? Are you dissatisfied with your prize? Is this not what you wanted?"
 25: 0x0DDE [0x23] WAIT_FOR_DIALOG_INTERACTION
 26: 0x0DDF [0x52] END_LOAD_SCHEDULER: End scheduler "s021" with entities [LocalPlayer, LocalPlayer], work=5*
 27: 0x0DEE [0x45] LOAD_SCHEDULED_TASK: Load scheduler "s022" with entities [LocalPlayer, LocalPlayer], work=[5*, 0*]
 28: 0x0DFF [0x27] REQ_SET(priority=0x0A, entity_id=Loo Kohor (ID: 17391855/0x010960EF), tag_num=0x05)
 29: 0x0E06 [0x2B] Loo Kohor (ID: 17391855/0x010960EF) [7389*]:
    → "Well, if you have any complaints, you may take them up directly with the Avatar himself--if you can make it there in one piece!"
 30: 0x0E0D [0x1C] WAIT(90* ticks)
 31: 0x0E10 [0x1E] EventEntity looks at Loo Kohor (ID: 17391855/0x010960EF) and starts talking
 32: 0x0E15 [0x23] WAIT_FOR_DIALOG_INTERACTION
 33: 0x0E16 [0x2B] Loo Kohor (ID: 17391855/0x010960EF) [7390*]:
    → "Now I must be off. Good day!"
 34: 0x0E1D [0x23] WAIT_FOR_DIALOG_INTERACTION
 35: 0x0E1E [0x1C] WAIT(45* ticks)
 36: 0x0E21 [0x55] WAIT_LOAD_SCHEDULER: Wait for scheduler "s022" with entities [LocalPlayer, LocalPlayer], work=5*
 37: 0x0E30 [0x2B] Loo Kohor (ID: 17391855/0x010960EF) [7391*]:
    → "A heretic that keeps [his/her] word... Perhaps there still is some hope for the children of Altana..."
 38: 0x0E37 [0x23] WAIT_FOR_DIALOG_INTERACTION
 39: 0x0E38 [0x27] REQ_SET(priority=0x0A, entity_id=Loo Kohor (ID: 17391855/0x010960EF), tag_num=0x06)
 40: 0x0E3F [0x5D] SET_MUSIC_VOLUME(volume=0*, fade_time=120*)
 41: 0x0E44 [0x45] LOAD_SCHEDULED_TASK: Load scheduler "fdo2" with entities [LocalPlayer, LocalPlayer], work=[200*, 0*]
 42: 0x0E55 [0x55] WAIT_LOAD_SCHEDULER: Wait for scheduler "fdo2" with entities [LocalPlayer, LocalPlayer], work=200*
 43: 0x0E64 [0x46] CAMERA_CONTROL: Restore default settings
 44: 0x0E66 [0x5C] MUSIC_CONTROL: Set Idle (Day) music to song 0*
 45: 0x0E6A [0x5C] MUSIC_CONTROL: Set Idle (Night) music to song 0*
 46: 0x0E6E [0x45] LOAD_SCHEDULED_TASK: Load scheduler "qstc" with entities [LocalPlayer, LocalPlayer], work=[201*, 0*]
 47: 0x0E7F [0x45] LOAD_SCHEDULED_TASK: Load scheduler "fdi2" with entities [LocalPlayer, LocalPlayer], work=[200*, 0*]
 48: 0x0E90 [0x21] END_EVENT
 49: 0x0E91 [0x00] END_REQSTACK()
```
