# Event 65535

## Metadata

| Field           | Value    |
|-----------------|----------|
| Event Index     | 7/9      |
| Offset          | 0x0078   |
| Data Size       | 31 bytes |
| Calculated Size | 31 bytes |
| Instructions    | 9        |

```
      00 01 02 03 04 05 06 07  08 09 0A 0B 0C 0D 0E 0F
      -- -- -- -- -- -- -- --  -- -- -- -- -- -- -- --
0070:                          32 15 80 1F 00 16 80 17          2.......
0080: 80 13 80 1F 01 6F 1F 00  18 80 19 80 1A 80 1F 01  .....o..........
0090: 6F 1E C0 42 04 01 00                              o..B...         
```

## Opcodes

```
  0: 0x0078 [0x32] ExtData[1]->MainSpeed = 41* * 0.1
  1: 0x007B [0x1F] MOVE_ENTITY: EventEntity moves to X=-61.520*, Z=-110.517*, Y=0.000*
  2: 0x0083 [0x1F] MOVE_ENTITY: Update entity position (mode=1)
  3: 0x0085 [0x6F] WAIT_FRAME_DELAY: Yield until WaitTime reaches zero
  4: 0x0086 [0x1F] MOVE_ENTITY: EventEntity moves to X=-55.831*, Z=-119.198*, Y=0.199*
  5: 0x008E [0x1F] MOVE_ENTITY: Update entity position (mode=1)
  6: 0x0090 [0x6F] WAIT_FRAME_DELAY: Yield until WaitTime reaches zero
  7: 0x0091 [0x1E] EventEntity looks at Unnamed NPC (ID: 17056448/0x010442C0) and starts talking
  8: 0x0096 [0x00] END_REQSTACK()
```
