# Event 65535

## Metadata

| Field           | Value    |
|-----------------|----------|
| Event Index     | 6/7      |
| Offset          | 0x0025   |
| Data Size       | 79 bytes |
| Calculated Size | 79 bytes |
| Instructions    | 7        |

```
      00 01 02 03 04 05 06 07  08 09 0A 0B 0C 0D 0E 0F
      -- -- -- -- -- -- -- --  -- -- -- -- -- -- -- --
0020:                62 06 80  F8 FF FF 7F F8 FF FF 7F       b..........
0030: 6D 61 69 6E 00 80 66 07  80 F8 FF FF 7F F8 FF FF  main..f.........
0040: 7F 66 75 77 30 6C F8 FF  FF 7F 08 80 09 80 6C F8  .fuw0l........l.
0050: FF FF 7F 0A 80 0B 80 53  F8 FF FF 7F F8 FF FF 7F  .......S........
0060: 66 75 77 30 66 07 80 F8  FF FF 7F F8 FF FF 7F 64  fuw0f..........d
0070: 6B 30 30 00                                       k00.            
```

## Opcodes

```
  0: 0x0025 [0x62] LOAD_EVENT_SCHEDULER (arg=5012): Load scheduler "main" with entities [EventEntity, EventEntity], work=[65*, 0*]
  1: 0x0036 [0x66] LOAD_EXT_SCHEDULER_MAIN(work_offset=12*, entity1=EventEntity, entity2=EventEntity, action="fuw0")
  2: 0x0045 [0x6C] FADE_ENTITY_COLOR(entity_id=EventEntity, end_alpha=36*, fade_time=15*)
  3: 0x004E [0x6C] FADE_ENTITY_COLOR(entity_id=EventEntity, end_alpha=72*, fade_time=165*)
  4: 0x0057 [0x53] WAIT_SCHEDULER_TASK(entity1=EventEntity, entity2=EventEntity, action_id="fuw0")
  5: 0x0064 [0x66] LOAD_EXT_SCHEDULER_MAIN(work_offset=12*, entity1=EventEntity, entity2=EventEntity, action="dk00")
  6: 0x0073 [0x00] END_REQSTACK()
```
