# Event 386

## Metadata

| Field           | Value    |
|-----------------|----------|
| Event Index     | 4/8      |
| Offset          | 0x0096   |
| Data Size       | 22 bytes |
| Calculated Size | 22 bytes |
| Instructions    | 10       |

```
      00 01 02 03 04 05 06 07  08 09 0A 0B 0C 0D 0E 0F
      -- -- -- -- -- -- -- --  -- -- -- -- -- -- -- --
0090:                   42 1E  F0 FF FF 7F 1C 00 80 93        B.........
00A0: 02 10 1D 09 80 23 93 02  80 2E 21 00              .....#....!.    
```

## Opcodes

```
  0: 0x0096 [0x42] SET_CLI_EVENT_CANCEL_DATA()
  1: 0x0097 [0x1E] EventEntity looks at LocalPlayer and starts talking
  2: 0x009C [0x1C] WAIT(1* ticks)
  3: 0x009F [0x93] DISPLAY_ITEM_INFO(item_id=Work_Zone[2])
  4: 0x00A2 [0x1D] PRINT_EVENT_MESSAGE(message_id=9019*)
    → "Sorry for the wait, but your equipment is finally in.\u0007Are you not relieved that you did not rush our genius?\u007F1\u0000\u0007"
  5: 0x00A5 [0x23] WAIT_FOR_DIALOG_INTERACTION
  6: 0x00A6 [0x93] DISPLAY_ITEM_INFO(item_id=0*)
  7: 0x00A9 [0x2E] SET_CLI_EVENT_CANCEL_FLAGS()
  8: 0x00AA [0x21] END_EVENT
  9: 0x00AB [0x00] END_REQSTACK()
```
