# Event 393

## Metadata

| Field           | Value    |
|-----------------|----------|
| Event Index     | 5/8      |
| Offset          | 0x00AC   |
| Data Size       | 34 bytes |
| Calculated Size | 34 bytes |
| Instructions    | 11       |

```
      00 01 02 03 04 05 06 07  08 09 0A 0B 0C 0D 0E 0F
      -- -- -- -- -- -- -- --  -- -- -- -- -- -- -- --
00A0:                                      42 1E F0 FF              B...
00B0: FF 7F 1C 00 80 03 03 10  0A 80 CC 01 02 10 03 10  ................
00C0: 04 10 05 10 1D 09 80 23  93 02 80 2E 21 00        .......#....!.  
```

## Opcodes

```
  0: 0x00AC [0x42] SET_CLI_EVENT_CANCEL_DATA()
  1: 0x00AD [0x1E] EventEntity looks at LocalPlayer and starts talking
  2: 0x00B2 [0x1C] WAIT(1* ticks)
  3: 0x00B5 [0x03] Work_Zone[3] = 2*
  4: 0x00BA [0xCC] ITEM_INFO_WINDOW_HANDLER(case=0x01 - Open item info window (with chase), check_value=Work_Zone[2], buffer1=Work_Zone[3], buffer2=Work_Zone[4], buffer3=Work_Zone[5])
  5: 0x00C4 [0x1D] PRINT_EVENT_MESSAGE(message_id=9019*)
    → "Sorry for the wait, but your equipment is finally in.\u0007Are you not relieved that you did not rush our genius?\u007F1\u0000\u0007"
  6: 0x00C7 [0x23] WAIT_FOR_DIALOG_INTERACTION
  7: 0x00C8 [0x93] DISPLAY_ITEM_INFO(item_id=0*)
  8: 0x00CB [0x2E] SET_CLI_EVENT_CANCEL_FLAGS()
  9: 0x00CC [0x21] END_EVENT
 10: 0x00CD [0x00] END_REQSTACK()
```
