# Event 403

## Metadata

| Field           | Value    |
|-----------------|----------|
| Event Index     | 25/40    |
| Offset          | 0x121D   |
| Data Size       | 32 bytes |
| Calculated Size | 32 bytes |
| Instructions    | 14       |

```
      00 01 02 03 04 05 06 07  08 09 0A 0B 0C 0D 0E 0F
      -- -- -- -- -- -- -- --  -- -- -- -- -- -- -- --
1210:                                         42 1E F0               B..
1220: FF FF 7F 1C 00 80 1D A5  80 23 03 02 10 80 80 48  .........#.....H
1230: A6 80 1D A7 80 23 1D A8  80 23 2E 21 00           .....#...#.!.   
```

## Opcodes

```
  0: 0x121D [0x42] SET_CLI_EVENT_CANCEL_DATA()
  1: 0x121E [0x1E] EventEntity looks at LocalPlayer and starts talking
  2: 0x1223 [0x1C] WAIT(1* ticks)
  3: 0x1226 [0x1D] PRINT_EVENT_MESSAGE(message_id=8900*)
    → "Oh, look! It's my favorite waste of materials. Back for another...\u007F6\u0001\u0007Wait. What is...?\u007F1\u0000\u0007"
  4: 0x1229 [0x23] WAIT_FOR_DIALOG_INTERACTION
  5: 0x122A [0x03] Work_Zone[2] = 2893*
  6: 0x122F [0x48] [System] [8901*]:
    → "\u001F\u000FYou proffer your \u0001\u00053\u0002\u0000\u0000\u0000.\u0000\u0007"
  7: 0x1232 [0x1D] PRINT_EVENT_MESSAGE(message_id=8902*)
    → "By Altana!\u007F1\u0000\u0007"
  8: 0x1235 [0x23] WAIT_FOR_DIALOG_INTERACTION
  9: 0x1236 [0x1D] PRINT_EVENT_MESSAGE(message_id=8903*)
    → "Despite all our one-sided dealings, \u0008, I must admit that I have misjudged you. Bring me that which I have remolded for you previously, and I shall see what I can do.\u007F1\u0000\u0007"
 10: 0x1239 [0x23] WAIT_FOR_DIALOG_INTERACTION
 11: 0x123A [0x2E] SET_CLI_EVENT_CANCEL_FLAGS()
 12: 0x123B [0x21] END_EVENT
 13: 0x123C [0x00] END_REQSTACK()
```
