# Event 405

## Metadata

| Field           | Value    |
|-----------------|----------|
| Event Index     | 27/40    |
| Offset          | 0x12F5   |
| Data Size       | 41 bytes |
| Calculated Size | 41 bytes |
| Instructions    | 14       |

```
      00 01 02 03 04 05 06 07  08 09 0A 0B 0C 0D 0E 0F
      -- -- -- -- -- -- -- --  -- -- -- -- -- -- -- --
12F0:                42 1E F0  FF FF 7F 1C 00 80 02 04       B..........
1300: 10 03 80 00 12 13 1D B3  80 23 03 01 10 00 80 01  .........#......
1310: 1B 13 1D B4 80 23 03 01  10 03 80 2E 21 00        .....#......!.  
```

## Opcodes

```
  0: 0x12F5 [0x42] SET_CLI_EVENT_CANCEL_DATA()
  1: 0x12F6 [0x1E] EventEntity looks at LocalPlayer and starts talking
  2: 0x12FB [0x1C] WAIT(1* ticks)
  3: 0x12FE [0x02] IF !(Work_Zone[4] == 0*) GOTO 0x1312
  4: 0x1306 [0x1D] PRINT_EVENT_MESSAGE(message_id=8914*)
    → "I've got enough \u0001\u0005%\u0002\u0000\u0000\u0000--now all I'll need is for you to bring the weapon in question.\u007F1\u0000\u0007"
  5: 0x1309 [0x23] WAIT_FOR_DIALOG_INTERACTION
  6: 0x130A [0x03] Work_Zone[1] = 1*
  7: 0x130F [0x01] GOTO 0x131B
  8: 0x1312 [0x1D] PRINT_EVENT_MESSAGE(message_id=8913*)
    → "Back with the goods, eh? Taking into account the 
\u0001 \u0001	)\u0002\u0001\u0000\u0000\u0002\u0000\u0000\u0000 you've just given me, I'll need 
\u0002 more.\u007F1\u0000\u0007"
  9: 0x1315 [0x23] WAIT_FOR_DIALOG_INTERACTION
 10: 0x1316 [0x03] Work_Zone[1] = 0*

SUBROUTINE_131B:
 11: 0x131B [0x2E] SET_CLI_EVENT_CANCEL_FLAGS()
 12: 0x131C [0x21] END_EVENT
 13: 0x131D [0x00] END_REQSTACK()
```
