# Event 409

## Metadata

| Field           | Value    |
|-----------------|----------|
| Event Index     | 31/40    |
| Offset          | 0x14AC   |
| Data Size       | 31 bytes |
| Calculated Size | 31 bytes |
| Instructions    | 13       |

```
      00 01 02 03 04 05 06 07  08 09 0A 0B 0C 0D 0E 0F
      -- -- -- -- -- -- -- --  -- -- -- -- -- -- -- --
14A0:                                      42 1E F0 FF              B...
14B0: FF 7F 1C 00 80 93 02 10  1D C5 80 23 1D C6 80 23  ...........#...#
14C0: 93 03 80 03 01 10 1F 80  2E 21 00                 .........!.     
```

## Opcodes

```
  0: 0x14AC [0x42] SET_CLI_EVENT_CANCEL_DATA()
  1: 0x14AD [0x1E] EventEntity looks at LocalPlayer and starts talking
  2: 0x14B2 [0x1C] WAIT(1* ticks)
  3: 0x14B5 [0x93] DISPLAY_ITEM_INFO(item_id=Work_Zone[2])
  4: 0x14B8 [0x1D] PRINT_EVENT_MESSAGE(message_id=8939*)
    → "Ha! It's as I've always said--a more competent smith you'll find nowhere else!\u007F1\u0000\u0007"
  5: 0x14BB [0x23] WAIT_FOR_DIALOG_INTERACTION
  6: 0x14BC [0x1D] PRINT_EVENT_MESSAGE(message_id=8940*)
    → "Go ahead--give it a swing!\u007F1\u0000\u0007"
  7: 0x14BF [0x23] WAIT_FOR_DIALOG_INTERACTION
  8: 0x14C0 [0x93] DISPLAY_ITEM_INFO(item_id=0*)
  9: 0x14C3 [0x03] Work_Zone[1] = 12*
 10: 0x14C8 [0x2E] SET_CLI_EVENT_CANCEL_FLAGS()
 11: 0x14C9 [0x21] END_EVENT
 12: 0x14CA [0x00] END_REQSTACK()
```
