# Event 410

## Metadata

| Field           | Value    |
|-----------------|----------|
| Event Index     | 32/40    |
| Offset          | 0x14CB   |
| Data Size       | 56 bytes |
| Calculated Size | 56 bytes |
| Instructions    | 16       |

```
      00 01 02 03 04 05 06 07  08 09 0A 0B 0C 0D 0E 0F
      -- -- -- -- -- -- -- --  -- -- -- -- -- -- -- --
14C0:                                   42 1E F0 FF FF             B....
14D0: 7F 1C 00 80 1D C7 80 23  24 C8 80 00 80 03 80 25  .......#$......%
14E0: 02 00 10 03 80 00 F0 14  03 01 10 00 80 01 00 15  ................
14F0: 02 00 10 00 80 00 00 15  03 01 10 03 80 01 00 15  ................
1500: 2E 21 00                                          .!.             
```

## Opcodes

```
  0: 0x14CB [0x42] SET_CLI_EVENT_CANCEL_DATA()
  1: 0x14CC [0x1E] EventEntity looks at LocalPlayer and starts talking
  2: 0x14D1 [0x1C] WAIT(1* ticks)
  3: 0x14D4 [0x1D] PRINT_EVENT_MESSAGE(message_id=8934*)
    → "Back with what I need? Good.\u0007I haven't yet used the \u0001\u0005#\u0002\u0000\u0000\u0000. If I do, I won't be able to use any of the others. Ready?\u007F1\u0000\u0007"
  4: 0x14D7 [0x23] WAIT_FOR_DIALOG_INTERACTION
  5: 0x14D8 [0x24] CREATE_DIALOG(message_id=8935*, default_option=1*, option_flags=0*)
    → "Really use the \u0001\u0005#\u0002\u0000\u0000\u0000?\u0007\u000BYou bet!\u0007I need time to think.\u007F1\u0000\u0007"
  6: 0x14DF [0x25] WAIT_DIALOG_SELECT()
  7: 0x14E0 [0x02] IF !(Work_Zone[0] == 0*) GOTO 0x14F0
  8: 0x14E8 [0x03] Work_Zone[1] = 1*
  9: 0x14ED [0x01] GOTO 0x1500
 10: 0x14F0 [0x02] IF !(Work_Zone[0] == 1*) GOTO 0x1500
 11: 0x14F8 [0x03] Work_Zone[1] = 0*
 12: 0x14FD [0x01] GOTO 0x1500

SUBROUTINE_1500:
 13: 0x1500 [0x2E] SET_CLI_EVENT_CANCEL_FLAGS()
 14: 0x1501 [0x21] END_EVENT
 15: 0x1502 [0x00] END_REQSTACK()
```
