# Event 411

## Metadata

| Field           | Value    |
|-----------------|----------|
| Event Index     | 33/40    |
| Offset          | 0x1503   |
| Data Size       | 36 bytes |
| Calculated Size | 36 bytes |
| Instructions    | 10       |

```
      00 01 02 03 04 05 06 07  08 09 0A 0B 0C 0D 0E 0F
      -- -- -- -- -- -- -- --  -- -- -- -- -- -- -- --
1500:          42 1E F0 FF FF  7F 1C 00 80 CC 01 02 10     B............
1510: 03 10 04 10 05 10 1D C9  80 23 CC 01 03 80 03 10  .........#......
1520: 04 10 05 10 2E 21 00                              .....!.         
```

## Opcodes

```
  0: 0x1503 [0x42] SET_CLI_EVENT_CANCEL_DATA()
  1: 0x1504 [0x1E] EventEntity looks at LocalPlayer and starts talking
  2: 0x1509 [0x1C] WAIT(1* ticks)
  3: 0x150C [0xCC] ITEM_INFO_WINDOW_HANDLER(case=0x01 - Open item info window (with chase), check_value=Work_Zone[2], buffer1=Work_Zone[3], buffer2=Work_Zone[4], buffer3=Work_Zone[5])
  4: 0x1516 [0x1D] PRINT_EVENT_MESSAGE(message_id=8936*)
    → "Hmmm...\u0007This piece might be a little bit better than the last time, but I bet I could get it to shine even brighter. Stop by later if you're interested.\u007F1\u0000\u0007"
  5: 0x1519 [0x23] WAIT_FOR_DIALOG_INTERACTION
  6: 0x151A [0xCC] ITEM_INFO_WINDOW_HANDLER(case=0x01 - Open item info window (with chase), check_value=0*, buffer1=Work_Zone[3], buffer2=Work_Zone[4], buffer3=Work_Zone[5])
  7: 0x1524 [0x2E] SET_CLI_EVENT_CANCEL_FLAGS()
  8: 0x1525 [0x21] END_EVENT
  9: 0x1526 [0x00] END_REQSTACK()
```
