# Event 65535

## Metadata

| Field           | Value    |
|-----------------|----------|
| Event Index     | 4/13     |
| Offset          | 0x0015   |
| Data Size       | 70 bytes |
| Calculated Size | 70 bytes |
| Instructions    | 8        |

```
      00 01 02 03 04 05 06 07  08 09 0A 0B 0C 0D 0E 0F
      -- -- -- -- -- -- -- --  -- -- -- -- -- -- -- --
0010:                5B 03 80  9B D0 00 01 9B D0 00 01       [..........
0020: 68 61 70 30 1C 04 80 5B  03 80 9C D0 00 01 9C D0  hap0...[........
0030: 00 01 68 61 70 30 1C 04  80 5B 03 80 9D D0 00 01  ..hap0...[......
0040: 9D D0 00 01 68 61 70 30  1C 04 80 5B 03 80 9E D0  ....hap0...[....
0050: 00 01 9E D0 00 01 68 61  70 30 00                 ......hap0.     
```

## Opcodes

```
  0: 0x0015 [0x5B] LOAD_EXT_SCHEDULER(work_offset=216*, entity1=Chekochuk (ID: 16830619/0x0100D09B), entity2=Chekochuk (ID: 16830619/0x0100D09B), action="hap0")
  1: 0x0024 [0x1C] WAIT(3* ticks)
  2: 0x0027 [0x5B] LOAD_EXT_SCHEDULER(work_offset=216*, entity1=Movamuq (ID: 16830620/0x0100D09C), entity2=Movamuq (ID: 16830620/0x0100D09C), action="hap0")
  3: 0x0036 [0x1C] WAIT(3* ticks)
  4: 0x0039 [0x5B] LOAD_EXT_SCHEDULER(work_offset=216*, entity1=Trikotrak (ID: 16830621/0x0100D09D), entity2=Trikotrak (ID: 16830621/0x0100D09D), action="hap0")
  5: 0x0048 [0x1C] WAIT(3* ticks)
  6: 0x004B [0x5B] LOAD_EXT_SCHEDULER(work_offset=216*, entity1=Swipostik (ID: 16830622/0x0100D09E), entity2=Swipostik (ID: 16830622/0x0100D09E), action="hap0")
  7: 0x005A [0x00] END_REQSTACK()
```
