# Event 65535

## Metadata

| Field           | Value    |
|-----------------|----------|
| Event Index     | 9/13     |
| Offset          | 0x0176   |
| Data Size       | 73 bytes |
| Calculated Size | 73 bytes |
| Instructions    | 9        |

```
      00 01 02 03 04 05 06 07  08 09 0A 0B 0C 0D 0E 0F
      -- -- -- -- -- -- -- --  -- -- -- -- -- -- -- --
0170:                   4A 9B  D0 00 01 F0 FF FF 7F 4A        J........J
0180: 9C D0 00 01 F0 FF FF 7F  4A 9D D0 00 01 F0 FF FF  ........J.......
0190: 7F 4A 9E D0 00 01 F0 FF  FF 7F 4A A8 D0 00 01 F0  .J........J.....
01A0: FF FF 7F 4A A9 D0 00 01  F0 FF FF 7F 4A AA D0 00  ...J........J...
01B0: 01 F0 FF FF 7F 4A AB D0  00 01 F0 FF FF 7F 00     .....J......... 
```

## Opcodes

```
  0: 0x0176 [0x4A] Chekochuk (ID: 16830619/0x0100D09B) looks at LocalPlayer
  1: 0x017F [0x4A] Movamuq (ID: 16830620/0x0100D09C) looks at LocalPlayer
  2: 0x0188 [0x4A] Trikotrak (ID: 16830621/0x0100D09D) looks at LocalPlayer
  3: 0x0191 [0x4A] Swipostik (ID: 16830622/0x0100D09E) looks at LocalPlayer
  4: 0x019A [0x4A] 5 (ID: 16830632/0x0100D0A8) looks at LocalPlayer
  5: 0x01A3 [0x4A] 6 (ID: 16830633/0x0100D0A9) looks at LocalPlayer
  6: 0x01AC [0x4A] 7 (ID: 16830634/0x0100D0AA) looks at LocalPlayer
  7: 0x01B5 [0x4A] 8 (ID: 16830635/0x0100D0AB) looks at LocalPlayer
  8: 0x01BE [0x00] END_REQSTACK()
```
