# Event 65535

## Metadata

| Field           | Value    |
|-----------------|----------|
| Event Index     | 6/13     |
| Offset          | 0x0064   |
| Data Size       | 64 bytes |
| Calculated Size | 64 bytes |
| Instructions    | 7        |

```
      00 01 02 03 04 05 06 07  08 09 0A 0B 0C 0D 0E 0F
      -- -- -- -- -- -- -- --  -- -- -- -- -- -- -- --
0060:             81 00 9A D0  00 01 81 00 99 D0 00 01      ............
0070: 81 00 98 D0 00 01 5B 06  80 9A D0 00 01 9A D0 00  ......[.........
0080: 01 63 72 79 30 5B 07 80  99 D0 00 01 99 D0 00 01  .cry0[..........
0090: 63 72 79 30 5B 07 80 98  D0 00 01 98 D0 00 01 63  cry0[..........c
00A0: 72 79 30 00                                       ry0.            
```

## Opcodes

```
  0: 0x0064 [0x81] SET_ENTITY_BLINKING(blink_flag=0x00, entity=Cherukiki (ID: 16830618/0x0100D09A))
  1: 0x006A [0x81] SET_ENTITY_BLINKING(blink_flag=0x00, entity=Kukki-Chebukki (ID: 16830617/0x0100D099))
  2: 0x0070 [0x81] SET_ENTITY_BLINKING(blink_flag=0x00, entity=Makki-Chebukki (ID: 16830616/0x0100D098))
  3: 0x0076 [0x5B] LOAD_EXT_SCHEDULER: Load scheduler "cry0" with entities [Cherukiki (ID: 16830618/0x0100D09A), Cherukiki (ID: 16830618/0x0100D09A)], work=432*
  4: 0x0085 [0x5B] LOAD_EXT_SCHEDULER: Load scheduler "cry0" with entities [Kukki-Chebukki (ID: 16830617/0x0100D099), Kukki-Chebukki (ID: 16830617/0x0100D099)], work=442*
  5: 0x0094 [0x5B] LOAD_EXT_SCHEDULER: Load scheduler "cry0" with entities [Makki-Chebukki (ID: 16830616/0x0100D098), Makki-Chebukki (ID: 16830616/0x0100D098)], work=442*
  6: 0x00A3 [0x00] END_REQSTACK()
```
