# Event 65535

## Metadata

| Field           | Value    |
|-----------------|----------|
| Event Index     | 7/13     |
| Offset          | 0x00A4   |
| Data Size       | 68 bytes |
| Calculated Size | 68 bytes |
| Instructions    | 14       |

```
      00 01 02 03 04 05 06 07  08 09 0A 0B 0C 0D 0E 0F
      -- -- -- -- -- -- -- --  -- -- -- -- -- -- -- --
00A0:             27 10 A3 D0  00 01 0E 1C 08 80 27 10      '.........'.
00B0: F0 FF FF 7F 15 1C 09 80  27 10 A6 D0 00 01 0F 1C  ........'.......
00C0: 0A 80 27 10 A5 D0 00 01  0F 1C 09 80 27 10 A4 D0  ..'.........'...
00D0: 00 01 10 1C 0B 80 27 10  96 D0 00 01 1F 1C 0C 80  ......'.........
00E0: 27 10 97 D0 00 01 1E 00                           '.......        
```

## Opcodes

```
  0: 0x00A4 [0x27] REQ_SET(priority=0x10, entity_id=Prishe (ID: 16830627/0x0100D0A3), tag_num=0x0E)
  1: 0x00AB [0x1C] WAIT(20* ticks)
  2: 0x00AE [0x27] REQ_SET(priority=0x10, entity_id=LocalPlayer, tag_num=0x15)
  3: 0x00B5 [0x1C] WAIT(6* ticks)
  4: 0x00B8 [0x27] REQ_SET(priority=0x10, entity_id=Shikaree Z (ID: 16830630/0x0100D0A6), tag_num=0x0F)
  5: 0x00BF [0x1C] WAIT(15* ticks)
  6: 0x00C2 [0x27] REQ_SET(priority=0x10, entity_id=Tenzen (ID: 16830629/0x0100D0A5), tag_num=0x0F)
  7: 0x00C9 [0x1C] WAIT(6* ticks)
  8: 0x00CC [0x27] REQ_SET(priority=0x10, entity_id=Ulmia (ID: 16830628/0x0100D0A4), tag_num=0x10)
  9: 0x00D3 [0x1C] WAIT(9* ticks)
 10: 0x00D6 [0x27] REQ_SET(priority=0x10, entity_id=Louverance (ID: 16830614/0x0100D096), tag_num=0x1F)
 11: 0x00DD [0x1C] WAIT(30* ticks)
 12: 0x00E0 [0x27] REQ_SET(priority=0x10, entity_id=Jabbos (ID: 16830615/0x0100D097), tag_num=0x1E)
 13: 0x00E7 [0x00] END_REQSTACK()
```
