# Event 313

## Metadata

| Field           | Value    |
|-----------------|----------|
| Event Index     | 9/40     |
| Offset          | 0x00AB   |
| Data Size       | 49 bytes |
| Calculated Size | 49 bytes |
| Instructions    | 11       |

```
      00 01 02 03 04 05 06 07  08 09 0A 0B 0C 0D 0E 0F
      -- -- -- -- -- -- -- --  -- -- -- -- -- -- -- --
00A0:                                   1E F0 FF FF 7F             .....
00B0: 1D 14 80 23 66 0D 80 F8  FF FF 7F F8 FF FF 7F 74  ...#f..........t
00C0: 68 6B 31 1D 15 80 23 66  0D 80 F8 FF FF 7F F8 FF  hk1...#f........
00D0: FF 7F 74 68 6B 32 1D 16  80 23 21 00              ..thk2...#!.    
```

## Opcodes

```
  0: 0x00AB [0x1E] EventEntity looks at LocalPlayer and starts talking
  1: 0x00B0 [0x1D] PRINT_EVENT_MESSAGE(message_id=10970*)
    → "It looks like something big's brewing...\u007F1\u0000\u0007"
  2: 0x00B3 [0x23] WAIT_FOR_DIALOG_INTERACTION
  3: 0x00B4 [0x66] LOAD_EXT_SCHEDULER_MAIN: Load scheduler "thk1" with entities [EventEntity, EventEntity], work=10*
  4: 0x00C3 [0x1D] PRINT_EVENT_MESSAGE(message_id=10971*)
    → "I've never been too good with words, but...\u007F1\u0000\u0007"
  5: 0x00C6 [0x23] WAIT_FOR_DIALOG_INTERACTION
  6: 0x00C7 [0x66] LOAD_EXT_SCHEDULER_MAIN: Load scheduler "thk2" with entities [EventEntity, EventEntity], work=10*
  7: 0x00D6 [0x1D] PRINT_EVENT_MESSAGE(message_id=10972*)
    → "Get out there and do what you have to do. For the safehold's sake, for Prishe's sake...heck, for the world's sake!\u007F1\u0000\u0007"
  8: 0x00D9 [0x23] WAIT_FOR_DIALOG_INTERACTION
  9: 0x00DA [0x21] END_EVENT
 10: 0x00DB [0x00] END_REQSTACK()
```
