# Event 65535

## Metadata

| Field           | Value    |
|-----------------|----------|
| Event Index     | 9/14     |
| Offset          | 0x002C   |
| Data Size       | 61 bytes |
| Calculated Size | 61 bytes |
| Instructions    | 11       |

```
      00 01 02 03 04 05 06 07  08 09 0A 0B 0C 0D 0E 0F
      -- -- -- -- -- -- -- --  -- -- -- -- -- -- -- --
0020:                                      53 0D D0 0E              S...
0030: 01 0D D0 0E 01 73 6C 30  30 1C 07 80 7B F8 FF FF  .....sl00...{...
0040: 7F 32 08 80 1F 00 09 80  0A 80 05 80 1F 01 1F 00  .2..............
0050: 0B 80 0C 80 05 80 1F 01  6F 66 07 80 F8 FF FF 7F  ........of......
0060: F8 FF FF 7F 74 68 6B 31  00                       ....thk1.       
```

## Opcodes

```
  0: 0x002C [0x53] WAIT_SCHEDULER_TASK: Wait for scheduler "sl00" with entities [Riault (ID: 17747981/0x010ED00D), Riault (ID: 17747981/0x010ED00D)]
  1: 0x0039 [0x1C] WAIT(30* ticks)
  2: 0x003C [0x7B] EventEntity stops talking
  3: 0x0041 [0x32] ExtData[1]->MainSpeed = 13* * 0.1
  4: 0x0044 [0x1F] MOVE_ENTITY: EventEntity moves to X=26.356*, Z=-43.467*, Y=-16.390*
  5: 0x004C [0x1F] MOVE_ENTITY: Update entity position (mode=1)
  6: 0x004E [0x1F] MOVE_ENTITY: EventEntity moves to X=27.199*, Z=-42.813*, Y=-16.390*
  7: 0x0056 [0x1F] MOVE_ENTITY: Update entity position (mode=1)
  8: 0x0058 [0x6F] WAIT_FRAME_DELAY: Yield until WaitTime reaches zero
  9: 0x0059 [0x66] LOAD_EXT_SCHEDULER_MAIN: Load scheduler "thk1" with entities [EventEntity, EventEntity], work=30*
 10: 0x0068 [0x00] END_REQSTACK()
```
