# Event 522

## Metadata

| Field           | Value    |
|-----------------|----------|
| Event Index     | 5/10     |
| Offset          | 0x02B8   |
| Data Size       | 41 bytes |
| Calculated Size | 41 bytes |
| Instructions    | 11       |

```
      00 01 02 03 04 05 06 07  08 09 0A 0B 0C 0D 0E 0F
      -- -- -- -- -- -- -- --  -- -- -- -- -- -- -- --
02B0:                          1E F0 FF FF 7F 6F 70 5B          .....op[
02C0: 05 80 F8 FF FF 7F F8 FF  FF 7F 74 6C 6B 30 03 02  ..........tlk0..
02D0: 10 11 80 1D 19 80 23 5E  B2 FF FF FF 1C 05 80 21  ......#^.......!
02E0: 00                                                .               
```

## Opcodes

```
  0: 0x02B8 [0x1E] EventEntity looks at LocalPlayer and starts talking
  1: 0x02BD [0x6F] WAIT_FRAME_DELAY: Yield until WaitTime reaches zero
  2: 0x02BE [0x70] WAIT_ENTITY_RENDER_FLAG: Wait while EventEntity->Render.Flags3 bit 2 is set (cancel turn if not)
  3: 0x02BF [0x5B] LOAD_EXT_SCHEDULER(work_offset=30*, entity1=EventEntity, entity2=EventEntity, action="tlk0")
  4: 0x02CE [0x03] Work_Zone[2] = 4370*
  5: 0x02D3 [0x1D] PRINT_EVENT_MESSAGE(message_id=7881*)
    → "What's that? Still no \u0001\u0005%\u0002\u0000\u0000\u0000? If I just had five, I could get to work...\u007F1\u0000\u0007"
  6: 0x02D6 [0x23] WAIT_FOR_DIALOG_INTERACTION
  7: 0x02D7 [0x5E] EventEntity goes idle (kills current action) (animation: 0xFFFFFFB2)
  8: 0x02DC [0x1C] WAIT(30* ticks)
  9: 0x02DF [0x21] END_EVENT
 10: 0x02E0 [0x00] END_REQSTACK()
```
