# Event 12

## Metadata

| Field           | Value    |
|-----------------|----------|
| Event Index     | 8/33     |
| Offset          | 0x0192   |
| Data Size       | 38 bytes |
| Calculated Size | 38 bytes |
| Instructions    | 11       |

```
      00 01 02 03 04 05 06 07  08 09 0A 0B 0C 0D 0E 0F
      -- -- -- -- -- -- -- --  -- -- -- -- -- -- -- --
0190:       20 01 42 4A 3F 60  0E 01 F0 FF FF 7F 6F 76     .BJ?`......ov
01A0: F0 FF FF 7F 03 02 10 16  80 03 04 10 17 80 2B 3F  ..............+?
01B0: 60 0E 01 18 80 23 21 00                           `....#!.        
```

## Opcodes

```
  0: 0x0192 [0x20] SET_CLI_EVENT_UC_FLAG: Lock player control
  1: 0x0194 [0x42] SET_CLI_EVENT_CANCEL_DATA()
  2: 0x0195 [0x4A] Balasiel (ID: 17719359/0x010E603F) looks at LocalPlayer
  3: 0x019E [0x6F] WAIT_FRAME_DELAY: Yield until WaitTime reaches zero
  4: 0x019F [0x76] CHECK_ENTITY_RENDER_FLAGS: Wait until LocalPlayer Render.Flags0 and Render.Flags3 conditions are met
  5: 0x01A4 [0x03] Work_Zone[2] = 344*
  6: 0x01A9 [0x03] Work_Zone[4] = 345*
  7: 0x01AE [0x2B] Balasiel (ID: 17719359/0x010E603F) [9342*]:
    → "Take that \u0001\u00053\u0002\u0000\u0000\u0000 and travel to the Sea Serpent Grotto. There you will find \u0001\u00056\u0002\u0002\u0000\u0000 buried in the earth. You are to bring that back here to me.\u0007Good luck.\u007F1\u0000\u0007"
  8: 0x01B5 [0x23] WAIT_FOR_DIALOG_INTERACTION
  9: 0x01B6 [0x21] END_EVENT
 10: 0x01B7 [0x00] END_REQSTACK()
```
