# Event 630

## Metadata

| Field           | Value    |
|-----------------|----------|
| Event Index     | 21/33    |
| Offset          | 0x0589   |
| Data Size       | 67 bytes |
| Calculated Size | 67 bytes |
| Instructions    | 14       |

```
      00 01 02 03 04 05 06 07  08 09 0A 0B 0C 0D 0E 0F
      -- -- -- -- -- -- -- --  -- -- -- -- -- -- -- --
0580:                             42 46 01 38 20 80 45           BF.8 .E
0590: 21 80 F0 FF FF 7F F0 FF  FF 7F 73 30 37 30 0A 80  !.........s070..
05A0: 79 00 3F 60 0E 01 42 60  0E 01 1C 24 80 1D 35 80  y.?`..B`...$..5.
05B0: 23 55 21 80 F0 FF FF 7F  F0 FF FF 7F 73 30 37 30  #U!.........s070
05C0: 7B 3F 60 0E 01 1C 24 80  46 00 21 00              {?`...$.F.!.    
```

## Opcodes

```
  0: 0x0589 [0x42] SET_CLI_EVENT_CANCEL_DATA()
  1: 0x058A [0x46] CAMERA_CONTROL: Disable user control
  2: 0x058C [0x38] SET_CLIENT_EVENT_MODE(mode=3*)
  3: 0x058F [0x45] LOAD_SCHEDULED_TASK(work_offset1=130*, entity1=LocalPlayer, entity2=LocalPlayer, scheduler_id="s070", work_offset2=0*)
  4: 0x05A0 [0x79] Balasiel (ID: 17719359/0x010E603F) looks at Chanpau (ID: 17719362/0x010E6042) (Basic look)
  5: 0x05AA [0x1C] WAIT(60* ticks)
  6: 0x05AD [0x1D] PRINT_EVENT_MESSAGE(message_id=7948*)
    → "Come to think of it, the time I sent another to the waterfall, he, too, had quite a hard time! Heh-heh.\u007F1\u0000\u0007"
  7: 0x05B0 [0x23] WAIT_FOR_DIALOG_INTERACTION
  8: 0x05B1 [0x55] WAIT_LOAD_SCHEDULER(work_offset=130*, entity1=LocalPlayer, entity2=LocalPlayer, scheduler_id="s070")
  9: 0x05C0 [0x7B] Balasiel (ID: 17719359/0x010E603F) stops talking
 10: 0x05C5 [0x1C] WAIT(60* ticks)
 11: 0x05C8 [0x46] CAMERA_CONTROL: Restore default settings
 12: 0x05CA [0x21] END_EVENT
 13: 0x05CB [0x00] END_REQSTACK()
```
