# 17719314 - Raimbroy

## Common Data

| Field            | Value                         |
|------------------|-------------------------------|
| Zone             | Southern San d'Oria (ID: 230) |
| Block Size       | 1256 bytes                    |
| Total Events     | 10                            |
| References Count | 40                            |

## List of Events

| Event ID                 | Entrypoint   |   Size |   Instructions |
|--------------------------|--------------|--------|----------------|
| [65535](#event-65535)    | 0x0000       |      1 |              1 |
| [532](#event-532)        | 0x0001       |    417 |             66 |
| [533](#event-533)        | 0x01A2       |    169 |             33 |
| [534](#event-534)        | 0x024B       |    109 |             25 |
| [522](#event-522)        | 0x02B8       |     41 |             11 |
| [536](#event-536)        | 0x02E1       |     41 |             11 |
| [535](#event-535)        | 0x030A       |    135 |             27 |
| [537](#event-537)        | 0x0391       |     91 |             17 |
| [65535.1](#event-655351) | 0x03EC       |     33 |              7 |
| [780](#event-780)        | 0x040D       |      1 |              1 |

## DAT References (imed_data)

|   Index | Hex Value   |   Dec Value |
|---------|-------------|-------------|
|       0 | 0x014D      |         333 |
|       1 | 0x0003      |           3 |
|       2 | 0x0082      |         130 |
|       3 | 0x0000      |           0 |
|       4 | 0x00C8      |         200 |
|       5 | 0x001E      |          30 |
|       6 | 0x1EB6      |        7862 |
|       7 | 0x003C      |          60 |
|       8 | 0x1EB8      |        7864 |
|       9 | 0x00B4      |         180 |
|      10 | 0x005A      |          90 |
|      11 | 0x1EB9      |        7865 |
|      12 | 0x1EBB      |        7867 |
|      13 | 0x0200      |         512 |
|      14 | 0x1EBC      |        7868 |
|      15 | 0x0064      |         100 |
|      16 | 0x0078      |         120 |
|      17 | 0x1112      |        4370 |
|      18 | 0x1EBF      |        7871 |
|      19 | 0x1EC0      |        7872 |
|      20 | 0x1FD0      |        8144 |
|      21 | 0x1EC1      |        7873 |
|      22 | 0x0001      |           1 |
|      23 | 0x1EBE      |        7870 |
|      24 | 0x1EC5      |        7877 |
|      25 | 0x1EC9      |        7881 |
|      26 | 0x1EC2      |        7874 |
|      27 | 0x00C9      |         201 |
|      28 | 0x1924      |        6436 |
|      29 | 0x1EC3      |        7875 |
|      30 | 0x1EC4      |        7876 |
|      31 | 0x000D      |          13 |
|      32 | 0xFFFECF42  |  4294889282 |
|      33 | 0xFFFFAB13  |  4294945555 |
|      34 | 0x07CF      |        1999 |
|      35 | 0x0D7F      |        3455 |
|      36 | 0xFFFEE0DB  |  4294893787 |
|      37 | 0xFFFFB44F  |  4294947919 |
|      38 | 0xFFFF37B8  |  4294916024 |
|      39 | 0xFFFF9F60  |  4294942560 |

## String References

- **6436**: Obtained $0 gil.
- **7862**: Greetings.
- **7865**: Ah, Katharina! How are things at the Lion Springs?
- **7867**: A cask of mulsum, eh? All right, let me go check for one.
- **7868**: Dear, dear... It looks like the one I gave you folks yesterday was the last of my stock! I'm fresh out, I am.
- **7870**: Well, that's a shame. I'll just have to find another, more willing adventurer.
- **7871**: A cask of mulsum... I'm fresh out of honey, and my errand boy's home recovering from wounds he got at Ghelsba.
- **7872**: Hrmm... Eh? An adventurer! Think you could bring me some honey? I'm short on help, you see.
- **7873**: Well, thanks be to you! I'll need five $0, if you think you can handle it.
- **7874**: Just what I needed! Here's your payment, then.
- **7875**: Hrmm... Still not enough, eh? Sorry to keep yanking you around like this, but do you think you could go bring me some more?
- **7876**: I'll take five $0 and no less, any time you can bring them. Good luck!
- **7877**: Ah, so you'll hunt down some $0 for me, then?
- **7881**: What's that? Still no $0? If I just had five, I could get to work...
- **8144**: Accept? [Yes./I'm sorry.]

## Events

### Event 65535

#### Metadata

| Field        | Value   |
|--------------|---------|
| Entrypoint   | 0x0000  |
| Data Size    | 1 bytes |
| Instructions | 1       |

```
      00 01 02 03 04 05 06 07  08 09 0A 0B 0C 0D 0E 0F
      -- -- -- -- -- -- -- --  -- -- -- -- -- -- -- --
0000: 00                                                .               
```

#### Opcodes

```
  0: 0x0000 [0x00] END_REQSTACK()
```

### Event 532

#### Metadata

| Field        | Value     |
|--------------|-----------|
| Entrypoint   | 0x0001    |
| Data Size    | 417 bytes |
| Instructions | 66        |

```
      00 01 02 03 04 05 06 07  08 09 0A 0B 0C 0D 0E 0F
      -- -- -- -- -- -- -- --  -- -- -- -- -- -- -- --
0000:    42 46 01 75 00 00 80  75 01 38 01 80 45 02 80   BF.u...u.8..E..
0010: F0 FF FF 7F F0 FF FF 7F  73 30 33 37 03 80 27 64  ........s037..'d
0020: F0 FF FF 7F 26 45 04 80  F0 FF FF 7F F0 FF FF 7F  ....&E..........
0030: 66 64 69 31 03 80 55 02  80 F0 FF FF 7F F0 FF FF  fdi1..U.........
0040: 7F 73 30 33 37 45 02 80  F0 FF FF 7F F0 FF FF 7F  .s037E..........
0050: 73 30 33 38 03 80 2A 64  F0 FF FF 7F 55 02 80 F0  s038..*d....U...
0060: FF FF 7F F0 FF FF 7F 73  30 33 38 1E F0 FF FF 7F  .......s038.....
0070: 6F 70 5B 05 80 F8 FF FF  7F F8 FF FF 7F 74 6C 6B  op[..........tlk
0080: 30 1D 06 80 23 5E 69 64  6C 30 1C 07 80 27 65 9C  0...#^idl0...'e.
0090: 60 0E 01 02 45 02 80 F0  FF FF 7F F0 FF FF 7F 73  `...E..........s
00A0: 30 34 30 03 80 27 61 13  60 0E 01 02 2B 13 60 0E  040..'a.`...+.`.
00B0: 01 08 80 23 1E 13 60 0E  01 45 02 80 F0 FF FF 7F  ...#..`..E......
00C0: F0 FF FF 7F 73 30 33 39  09 80 27 61 13 60 0E 01  ....s039..'a.`..
00D0: 03 1C 0A 80 27 65 9C 60  0E 01 03 2A 61 13 60 0E  ....'e.`...*a.`.
00E0: 01 1E 13 60 0E 01 6F 70  5B 05 80 F8 FF FF 7F F8  ...`..op[.......
00F0: FF FF 7F 74 6C 6B 30 1D  0B 80 23 27 62 13 60 0E  ...tlk0...#'b.`.
0100: 01 04 2A 62 13 60 0E 01  45 02 80 F0 FF FF 7F F0  ..*b.`..E.......
0110: FF FF 7F 73 30 34 31 03  80 5B 05 80 F8 FF FF 7F  ...s041..[......
0120: F8 FF FF 7F 74 6C 6B 30  1D 0C 80 23 39 0D 80 1C  ....tlk0...#9...
0130: 05 80 5B 05 80 F8 FF FF  7F F8 FF FF 7F 74 68 6B  ..[..........thk
0140: 30 1D 0E 80 23 1C 05 80  27 62 13 60 0E 01 05 2A  0...#...'b.`...*
0150: 62 13 60 0E 01 1C 07 80  45 02 80 F0 FF FF 7F F0  b.`.....E.......
0160: FF FF 7F 73 30 34 32 09  80 27 63 13 60 0E 01 06  ...s042..'c.`...
0170: 1C 07 80 1E 13 60 0E 01  27 65 9C 60 0E 01 02 1C  .....`..'e.`....
0180: 0F 80 2A 63 13 60 0E 01  2A 65 9C 60 0E 01 27 65  ..*c.`..*e.`..'e
0190: 9C 60 0E 01 03 2A 65 9C  60 0E 01 1C 10 80 46 00  .`...*e.`.....F.
01A0: 21 00                                             !.              
```

#### Opcodes

```
  0: 0x0001 [0x42] SET_CLI_EVENT_CANCEL_DATA()
  1: 0x0002 [0x46] CAMERA_CONTROL: Disable user control
  2: 0x0004 [0x75] LOAD_ROOM(Load indoor room, room=333*)
  3: 0x0008 [0x75] LOAD_ROOM(No action)
  4: 0x000A [0x38] SET_CLIENT_EVENT_MODE(mode=3*)
  5: 0x000D [0x45] LOAD_SCHEDULED_TASK: Load scheduler "s037" with entities [LocalPlayer, LocalPlayer], work=[130*, 0*]
  6: 0x001E [0x27] REQ_SET(priority=0x64, entity_id=LocalPlayer, tag_num=0x26)
  7: 0x0025 [0x45] LOAD_SCHEDULED_TASK: Load scheduler "fdi1" with entities [LocalPlayer, LocalPlayer], work=[200*, 0*]
  8: 0x0036 [0x55] WAIT_LOAD_SCHEDULER: Wait for scheduler "s037" with entities [LocalPlayer, LocalPlayer], work=130*
  9: 0x0045 [0x45] LOAD_SCHEDULED_TASK: Load scheduler "s038" with entities [LocalPlayer, LocalPlayer], work=[130*, 0*]
 10: 0x0056 [0x2A] GET_REQ_LEVEL(level=100, entity_id=LocalPlayer)
 11: 0x005C [0x55] WAIT_LOAD_SCHEDULER: Wait for scheduler "s038" with entities [LocalPlayer, LocalPlayer], work=130*
 12: 0x006B [0x1E] EventEntity looks at LocalPlayer and starts talking
 13: 0x0070 [0x6F] WAIT_FRAME_DELAY: Yield until WaitTime reaches zero
 14: 0x0071 [0x70] WAIT_ENTITY_RENDER_FLAG: Wait while EventEntity->Render.Flags3 bit 2 is set (cancel turn if not)
 15: 0x0072 [0x5B] LOAD_EXT_SCHEDULER: Load scheduler "tlk0" with entities [EventEntity, EventEntity], work=30*
 16: 0x0081 [0x1D] PRINT_EVENT_MESSAGE(message_id=7862*)
    → "Greetings."
 17: 0x0084 [0x23] WAIT_FOR_DIALOG_INTERACTION
 18: 0x0085 [0x5E] EventEntity goes idle (kills current action) (animation: "idl0")
 19: 0x008A [0x1C] WAIT(60* ticks)
 20: 0x008D [0x27] REQ_SET(priority=0x65, entity_id=Door:Raimbroy's Grocery (ID: 17719452/0x010E609C), tag_num=0x02)
 21: 0x0094 [0x45] LOAD_SCHEDULED_TASK: Load scheduler "s040" with entities [LocalPlayer, LocalPlayer], work=[130*, 0*]
 22: 0x00A5 [0x27] REQ_SET(priority=0x61, entity_id=Katharina (ID: 17719315/0x010E6013), tag_num=0x02)
 23: 0x00AC [0x2B] Katharina (ID: 17719315/0x010E6013) [7864*]:
    → "Hello there!"
 24: 0x00B3 [0x23] WAIT_FOR_DIALOG_INTERACTION
 25: 0x00B4 [0x1E] EventEntity looks at Katharina (ID: 17719315/0x010E6013) and starts talking
 26: 0x00B9 [0x45] LOAD_SCHEDULED_TASK: Load scheduler "s039" with entities [LocalPlayer, LocalPlayer], work=[130*, 180*]
 27: 0x00CA [0x27] REQ_SET(priority=0x61, entity_id=Katharina (ID: 17719315/0x010E6013), tag_num=0x03)
 28: 0x00D1 [0x1C] WAIT(90* ticks)
 29: 0x00D4 [0x27] REQ_SET(priority=0x65, entity_id=Door:Raimbroy's Grocery (ID: 17719452/0x010E609C), tag_num=0x03)
 30: 0x00DB [0x2A] GET_REQ_LEVEL(level=97, entity_id=Katharina (ID: 17719315/0x010E6013))
 31: 0x00E1 [0x1E] EventEntity looks at Katharina (ID: 17719315/0x010E6013) and starts talking
 32: 0x00E6 [0x6F] WAIT_FRAME_DELAY: Yield until WaitTime reaches zero
 33: 0x00E7 [0x70] WAIT_ENTITY_RENDER_FLAG: Wait while EventEntity->Render.Flags3 bit 2 is set (cancel turn if not)
 34: 0x00E8 [0x5B] LOAD_EXT_SCHEDULER: Load scheduler "tlk0" with entities [EventEntity, EventEntity], work=30*
 35: 0x00F7 [0x1D] PRINT_EVENT_MESSAGE(message_id=7865*)
    → "Ah, Katharina! How are things at the Lion Springs?"
 36: 0x00FA [0x23] WAIT_FOR_DIALOG_INTERACTION
 37: 0x00FB [0x27] REQ_SET(priority=0x62, entity_id=Katharina (ID: 17719315/0x010E6013), tag_num=0x04)
 38: 0x0102 [0x2A] GET_REQ_LEVEL(level=98, entity_id=Katharina (ID: 17719315/0x010E6013))
 39: 0x0108 [0x45] LOAD_SCHEDULED_TASK: Load scheduler "s041" with entities [LocalPlayer, LocalPlayer], work=[130*, 0*]
 40: 0x0119 [0x5B] LOAD_EXT_SCHEDULER: Load scheduler "tlk0" with entities [EventEntity, EventEntity], work=30*
 41: 0x0128 [0x1D] PRINT_EVENT_MESSAGE(message_id=7867*)
    → "A cask of mulsum, eh? All right, let me go check for one."
 42: 0x012B [0x23] WAIT_FOR_DIALOG_INTERACTION
 43: 0x012C [0x39] SET_ENTITY_DIRECTION(direction=2.8°*)
 44: 0x012F [0x1C] WAIT(30* ticks)
 45: 0x0132 [0x5B] LOAD_EXT_SCHEDULER: Load scheduler "thk0" with entities [EventEntity, EventEntity], work=30*
 46: 0x0141 [0x1D] PRINT_EVENT_MESSAGE(message_id=7868*)
    → "Dear, dear... It looks like the one I gave you folks yesterday was the last of my stock! I'm fresh out, I am."
 47: 0x0144 [0x23] WAIT_FOR_DIALOG_INTERACTION
 48: 0x0145 [0x1C] WAIT(30* ticks)
 49: 0x0148 [0x27] REQ_SET(priority=0x62, entity_id=Katharina (ID: 17719315/0x010E6013), tag_num=0x05)
 50: 0x014F [0x2A] GET_REQ_LEVEL(level=98, entity_id=Katharina (ID: 17719315/0x010E6013))
 51: 0x0155 [0x1C] WAIT(60* ticks)
 52: 0x0158 [0x45] LOAD_SCHEDULED_TASK: Load scheduler "s042" with entities [LocalPlayer, LocalPlayer], work=[130*, 180*]
 53: 0x0169 [0x27] REQ_SET(priority=0x63, entity_id=Katharina (ID: 17719315/0x010E6013), tag_num=0x06)
 54: 0x0170 [0x1C] WAIT(60* ticks)
 55: 0x0173 [0x1E] EventEntity looks at Katharina (ID: 17719315/0x010E6013) and starts talking
 56: 0x0178 [0x27] REQ_SET(priority=0x65, entity_id=Door:Raimbroy's Grocery (ID: 17719452/0x010E609C), tag_num=0x02)
 57: 0x017F [0x1C] WAIT(100* ticks)
 58: 0x0182 [0x2A] GET_REQ_LEVEL(level=99, entity_id=Katharina (ID: 17719315/0x010E6013))
 59: 0x0188 [0x2A] GET_REQ_LEVEL(level=101, entity_id=Door:Raimbroy's Grocery (ID: 17719452/0x010E609C))
 60: 0x018E [0x27] REQ_SET(priority=0x65, entity_id=Door:Raimbroy's Grocery (ID: 17719452/0x010E609C), tag_num=0x03)
 61: 0x0195 [0x2A] GET_REQ_LEVEL(level=101, entity_id=Door:Raimbroy's Grocery (ID: 17719452/0x010E609C))
 62: 0x019B [0x1C] WAIT(120* ticks)
 63: 0x019E [0x46] CAMERA_CONTROL: Restore default settings
 64: 0x01A0 [0x21] END_EVENT
 65: 0x01A1 [0x00] END_REQSTACK()
```

### Event 533

#### Metadata

| Field        | Value     |
|--------------|-----------|
| Entrypoint   | 0x01A2    |
| Data Size    | 169 bytes |
| Instructions | 33        |

```
      00 01 02 03 04 05 06 07  08 09 0A 0B 0C 0D 0E 0F
      -- -- -- -- -- -- -- --  -- -- -- -- -- -- -- --
01A0:       5B 05 80 F8 FF FF  7F F8 FF FF 7F 74 68 6B    [..........thk
01B0: 31 03 02 10 11 80 1D 12  80 23 5B 05 80 F8 FF FF  1........#[.....
01C0: 7F F8 FF FF 7F 74 68 6B  32 53 F8 FF FF 7F F8 FF  .....thk2S......
01D0: FF 7F 74 68 6B 32 1C 05  80 1E F0 FF FF 7F 6F 70  ..thk2........op
01E0: 5B 05 80 F8 FF FF 7F F8  FF FF 7F 74 6C 6B 30 03  [..........tlk0.
01F0: 02 10 11 80 1D 13 80 23  5E 69 64 6C 30 24 14 80  .......#^idl0$..
0200: 03 80 03 80 25 02 00 10  03 80 00 35 02 5B 05 80  ....%......5.[..
0210: F8 FF FF 7F F8 FF FF 7F  74 6C 6B 30 03 02 10 11  ........tlk0....
0220: 80 1D 15 80 23 5E 69 64  6C 30 1C 05 80 03 01 10  ....#^idl0......
0230: 03 80 01 49 02 02 00 10  16 80 00 49 02 1D 17 80  ...I.......I....
0240: 23 03 01 10 16 80 01 49  02 21 00                 #......I.!.     
```

#### Opcodes

```
  0: 0x01A2 [0x5B] LOAD_EXT_SCHEDULER: Load scheduler "thk1" with entities [EventEntity, EventEntity], work=30*
  1: 0x01B1 [0x03] Work_Zone[2] = 4370*
  2: 0x01B6 [0x1D] PRINT_EVENT_MESSAGE(message_id=7871*)
    → "A cask of mulsum... I'm fresh out of honey, and my errand boy's home recovering from wounds he got at Ghelsba."
  3: 0x01B9 [0x23] WAIT_FOR_DIALOG_INTERACTION
  4: 0x01BA [0x5B] LOAD_EXT_SCHEDULER: Load scheduler "thk2" with entities [EventEntity, EventEntity], work=30*
  5: 0x01C9 [0x53] WAIT_SCHEDULER_TASK: Wait for scheduler "thk2" with entities [EventEntity, EventEntity]
  6: 0x01D6 [0x1C] WAIT(30* ticks)
  7: 0x01D9 [0x1E] EventEntity looks at LocalPlayer and starts talking
  8: 0x01DE [0x6F] WAIT_FRAME_DELAY: Yield until WaitTime reaches zero
  9: 0x01DF [0x70] WAIT_ENTITY_RENDER_FLAG: Wait while EventEntity->Render.Flags3 bit 2 is set (cancel turn if not)
 10: 0x01E0 [0x5B] LOAD_EXT_SCHEDULER: Load scheduler "tlk0" with entities [EventEntity, EventEntity], work=30*
 11: 0x01EF [0x03] Work_Zone[2] = 4370*
 12: 0x01F4 [0x1D] PRINT_EVENT_MESSAGE(message_id=7872*)
    → "Hrmm... Eh? An adventurer! Think you could bring me some honey? I'm short on help, you see."
 13: 0x01F7 [0x23] WAIT_FOR_DIALOG_INTERACTION
 14: 0x01F8 [0x5E] EventEntity goes idle (kills current action) (animation: "idl0")
 15: 0x01FD [0x24] CREATE_DIALOG(message_id=8144*, default_option=0*, option_flags=0*)
    → "Accept? [Yes./I'm sorry.]"
 16: 0x0204 [0x25] WAIT_DIALOG_SELECT()
 17: 0x0205 [0x02] IF !(Work_Zone[0] == 0*) GOTO 0x0235
 18: 0x020D [0x5B] LOAD_EXT_SCHEDULER: Load scheduler "tlk0" with entities [EventEntity, EventEntity], work=30*
 19: 0x021C [0x03] Work_Zone[2] = 4370*
 20: 0x0221 [0x1D] PRINT_EVENT_MESSAGE(message_id=7873*)
    → "Well, thanks be to you! I'll need five $0, if you think you can handle it."
 21: 0x0224 [0x23] WAIT_FOR_DIALOG_INTERACTION
 22: 0x0225 [0x5E] EventEntity goes idle (kills current action) (animation: "idl0")
 23: 0x022A [0x1C] WAIT(30* ticks)
 24: 0x022D [0x03] Work_Zone[1] = 0*
 25: 0x0232 [0x01] GOTO 0x0249
 26: 0x0235 [0x02] IF !(Work_Zone[0] == 1*) GOTO 0x0249
 27: 0x023D [0x1D] PRINT_EVENT_MESSAGE(message_id=7870*)
    → "Well, that's a shame. I'll just have to find another, more willing adventurer."
 28: 0x0240 [0x23] WAIT_FOR_DIALOG_INTERACTION
 29: 0x0241 [0x03] Work_Zone[1] = 1*
 30: 0x0246 [0x01] GOTO 0x0249

SUBROUTINE_0249:
 31: 0x0249 [0x21] END_EVENT
 32: 0x024A [0x00] END_REQSTACK()
```

### Event 534

#### Metadata

| Field        | Value     |
|--------------|-----------|
| Entrypoint   | 0x024B    |
| Data Size    | 109 bytes |
| Instructions | 25        |

```
      00 01 02 03 04 05 06 07  08 09 0A 0B 0C 0D 0E 0F
      -- -- -- -- -- -- -- --  -- -- -- -- -- -- -- --
0240:                                   1E F0 FF FF 7F             .....
0250: 6F 70 5B 05 80 F8 FF FF  7F F8 FF FF 7F 74 6C 6B  op[..........tlk
0260: 30 03 02 10 11 80 1D 18  80 23 5E 69 64 6C 30 24  0........#^idl0$
0270: 14 80 03 80 03 80 25 02  00 10 03 80 00 A2 02 5B  ......%........[
0280: 05 80 F8 FF FF 7F F8 FF  FF 7F 74 6C 6B 30 1D 15  ..........tlk0..
0290: 80 23 5E 69 64 6C 30 1C  05 80 03 01 10 03 80 01  .#^idl0.........
02A0: B6 02 02 00 10 16 80 00  B6 02 1D 17 80 23 03 01  .............#..
02B0: 10 16 80 01 B6 02 21 00                           ......!.        
```

#### Opcodes

```
  0: 0x024B [0x1E] EventEntity looks at LocalPlayer and starts talking
  1: 0x0250 [0x6F] WAIT_FRAME_DELAY: Yield until WaitTime reaches zero
  2: 0x0251 [0x70] WAIT_ENTITY_RENDER_FLAG: Wait while EventEntity->Render.Flags3 bit 2 is set (cancel turn if not)
  3: 0x0252 [0x5B] LOAD_EXT_SCHEDULER: Load scheduler "tlk0" with entities [EventEntity, EventEntity], work=30*
  4: 0x0261 [0x03] Work_Zone[2] = 4370*
  5: 0x0266 [0x1D] PRINT_EVENT_MESSAGE(message_id=7877*)
    → "Ah, so you'll hunt down some $0 for me, then?"
  6: 0x0269 [0x23] WAIT_FOR_DIALOG_INTERACTION
  7: 0x026A [0x5E] EventEntity goes idle (kills current action) (animation: "idl0")
  8: 0x026F [0x24] CREATE_DIALOG(message_id=8144*, default_option=0*, option_flags=0*)
    → "Accept? [Yes./I'm sorry.]"
  9: 0x0276 [0x25] WAIT_DIALOG_SELECT()
 10: 0x0277 [0x02] IF !(Work_Zone[0] == 0*) GOTO 0x02A2
 11: 0x027F [0x5B] LOAD_EXT_SCHEDULER: Load scheduler "tlk0" with entities [EventEntity, EventEntity], work=30*
 12: 0x028E [0x1D] PRINT_EVENT_MESSAGE(message_id=7873*)
    → "Well, thanks be to you! I'll need five $0, if you think you can handle it."
 13: 0x0291 [0x23] WAIT_FOR_DIALOG_INTERACTION
 14: 0x0292 [0x5E] EventEntity goes idle (kills current action) (animation: "idl0")
 15: 0x0297 [0x1C] WAIT(30* ticks)
 16: 0x029A [0x03] Work_Zone[1] = 0*
 17: 0x029F [0x01] GOTO 0x02B6
 18: 0x02A2 [0x02] IF !(Work_Zone[0] == 1*) GOTO 0x02B6
 19: 0x02AA [0x1D] PRINT_EVENT_MESSAGE(message_id=7870*)
    → "Well, that's a shame. I'll just have to find another, more willing adventurer."
 20: 0x02AD [0x23] WAIT_FOR_DIALOG_INTERACTION
 21: 0x02AE [0x03] Work_Zone[1] = 1*
 22: 0x02B3 [0x01] GOTO 0x02B6

SUBROUTINE_02B6:
 23: 0x02B6 [0x21] END_EVENT
 24: 0x02B7 [0x00] END_REQSTACK()
```

### Event 522

#### Metadata

| Field        | Value    |
|--------------|----------|
| Entrypoint   | 0x02B8   |
| Data Size    | 41 bytes |
| Instructions | 11       |

```
      00 01 02 03 04 05 06 07  08 09 0A 0B 0C 0D 0E 0F
      -- -- -- -- -- -- -- --  -- -- -- -- -- -- -- --
02B0:                          1E F0 FF FF 7F 6F 70 5B          .....op[
02C0: 05 80 F8 FF FF 7F F8 FF  FF 7F 74 6C 6B 30 03 02  ..........tlk0..
02D0: 10 11 80 1D 19 80 23 5E  B2 FF FF FF 1C 05 80 21  ......#^.......!
02E0: 00                                                .               
```

#### Opcodes

```
  0: 0x02B8 [0x1E] EventEntity looks at LocalPlayer and starts talking
  1: 0x02BD [0x6F] WAIT_FRAME_DELAY: Yield until WaitTime reaches zero
  2: 0x02BE [0x70] WAIT_ENTITY_RENDER_FLAG: Wait while EventEntity->Render.Flags3 bit 2 is set (cancel turn if not)
  3: 0x02BF [0x5B] LOAD_EXT_SCHEDULER: Load scheduler "tlk0" with entities [EventEntity, EventEntity], work=30*
  4: 0x02CE [0x03] Work_Zone[2] = 4370*
  5: 0x02D3 [0x1D] PRINT_EVENT_MESSAGE(message_id=7881*)
    → "What's that? Still no $0? If I just had five, I could get to work..."
  6: 0x02D6 [0x23] WAIT_FOR_DIALOG_INTERACTION
  7: 0x02D7 [0x5E] EventEntity goes idle (kills current action) (animation: 0xFFFFFFB2)
  8: 0x02DC [0x1C] WAIT(30* ticks)
  9: 0x02DF [0x21] END_EVENT
 10: 0x02E0 [0x00] END_REQSTACK()
```

### Event 536

#### Metadata

| Field        | Value    |
|--------------|----------|
| Entrypoint   | 0x02E1   |
| Data Size    | 41 bytes |
| Instructions | 11       |

```
      00 01 02 03 04 05 06 07  08 09 0A 0B 0C 0D 0E 0F
      -- -- -- -- -- -- -- --  -- -- -- -- -- -- -- --
02E0:    1E F0 FF FF 7F 6F 70  5B 05 80 F8 FF FF 7F F8   .....op[.......
02F0: FF FF 7F 74 6C 6B 30 03  02 10 11 80 1D 19 80 23  ...tlk0........#
0300: 5E B2 FF FF FF 1C 05 80  21 00                    ^.......!.      
```

#### Opcodes

```
  0: 0x02E1 [0x1E] EventEntity looks at LocalPlayer and starts talking
  1: 0x02E6 [0x6F] WAIT_FRAME_DELAY: Yield until WaitTime reaches zero
  2: 0x02E7 [0x70] WAIT_ENTITY_RENDER_FLAG: Wait while EventEntity->Render.Flags3 bit 2 is set (cancel turn if not)
  3: 0x02E8 [0x5B] LOAD_EXT_SCHEDULER: Load scheduler "tlk0" with entities [EventEntity, EventEntity], work=30*
  4: 0x02F7 [0x03] Work_Zone[2] = 4370*
  5: 0x02FC [0x1D] PRINT_EVENT_MESSAGE(message_id=7881*)
    → "What's that? Still no $0? If I just had five, I could get to work..."
  6: 0x02FF [0x23] WAIT_FOR_DIALOG_INTERACTION
  7: 0x0300 [0x5E] EventEntity goes idle (kills current action) (animation: 0xFFFFFFB2)
  8: 0x0305 [0x1C] WAIT(30* ticks)
  9: 0x0308 [0x21] END_EVENT
 10: 0x0309 [0x00] END_REQSTACK()
```

### Event 535

#### Metadata

| Field        | Value     |
|--------------|-----------|
| Entrypoint   | 0x030A    |
| Data Size    | 135 bytes |
| Instructions | 27        |

```
      00 01 02 03 04 05 06 07  08 09 0A 0B 0C 0D 0E 0F
      -- -- -- -- -- -- -- --  -- -- -- -- -- -- -- --
0300:                                42 20 01 1E F0 FF            B ....
0310: FF 7F 6F 70 5B 05 80 F8  FF FF 7F F8 FF FF 7F 70  ..op[..........p
0320: 61 73 30 1D 1A 80 23 53  F8 FF FF 7F F8 FF FF 7F  as0...#S........
0330: 70 61 73 30 1C 05 80 45  1B 80 F0 FF FF 7F F0 FF  pas0...E........
0340: FF 7F 71 73 74 63 03 80  48 1C 80 23 1C 07 80 5B  ..qstc..H..#...[
0350: 05 80 F8 FF FF 7F F8 FF  FF 7F 74 68 6B 31 1D 1D  ..........thk1..
0360: 80 23 1C 05 80 5B 05 80  F8 FF FF 7F F8 FF FF 7F  .#...[..........
0370: 74 68 6B 32 53 F8 FF FF  7F F8 FF FF 7F 74 68 6B  thk2S........thk
0380: 32 1C 05 80 03 02 10 11  80 1D 1E 80 23 20 00 21  2...........# .!
0390: 00                                                .               
```

#### Opcodes

```
  0: 0x030A [0x42] SET_CLI_EVENT_CANCEL_DATA()
  1: 0x030B [0x20] SET_CLI_EVENT_UC_FLAG: Lock player control
  2: 0x030D [0x1E] EventEntity looks at LocalPlayer and starts talking
  3: 0x0312 [0x6F] WAIT_FRAME_DELAY: Yield until WaitTime reaches zero
  4: 0x0313 [0x70] WAIT_ENTITY_RENDER_FLAG: Wait while EventEntity->Render.Flags3 bit 2 is set (cancel turn if not)
  5: 0x0314 [0x5B] LOAD_EXT_SCHEDULER: Load scheduler "pas0" with entities [EventEntity, EventEntity], work=30*
  6: 0x0323 [0x1D] PRINT_EVENT_MESSAGE(message_id=7874*)
    → "Just what I needed! Here's your payment, then."
  7: 0x0326 [0x23] WAIT_FOR_DIALOG_INTERACTION
  8: 0x0327 [0x53] WAIT_SCHEDULER_TASK: Wait for scheduler "pas0" with entities [EventEntity, EventEntity]
  9: 0x0334 [0x1C] WAIT(30* ticks)
 10: 0x0337 [0x45] LOAD_SCHEDULED_TASK: Load scheduler "qstc" with entities [LocalPlayer, LocalPlayer], work=[201*, 0*]
 11: 0x0348 [0x48] [System] [6436*]:
    → "Obtained $0 gil."
 12: 0x034B [0x23] WAIT_FOR_DIALOG_INTERACTION
 13: 0x034C [0x1C] WAIT(60* ticks)
 14: 0x034F [0x5B] LOAD_EXT_SCHEDULER: Load scheduler "thk1" with entities [EventEntity, EventEntity], work=30*
 15: 0x035E [0x1D] PRINT_EVENT_MESSAGE(message_id=7875*)
    → "Hrmm... Still not enough, eh? Sorry to keep yanking you around like this, but do you think you could go bring me some more?"
 16: 0x0361 [0x23] WAIT_FOR_DIALOG_INTERACTION
 17: 0x0362 [0x1C] WAIT(30* ticks)
 18: 0x0365 [0x5B] LOAD_EXT_SCHEDULER: Load scheduler "thk2" with entities [EventEntity, EventEntity], work=30*
 19: 0x0374 [0x53] WAIT_SCHEDULER_TASK: Wait for scheduler "thk2" with entities [EventEntity, EventEntity]
 20: 0x0381 [0x1C] WAIT(30* ticks)
 21: 0x0384 [0x03] Work_Zone[2] = 4370*
 22: 0x0389 [0x1D] PRINT_EVENT_MESSAGE(message_id=7876*)
    → "I'll take five $0 and no less, any time you can bring them. Good luck!"
 23: 0x038C [0x23] WAIT_FOR_DIALOG_INTERACTION
 24: 0x038D [0x20] SET_CLI_EVENT_UC_FLAG: Unlock player control
 25: 0x038F [0x21] END_EVENT
 26: 0x0390 [0x00] END_REQSTACK()
```

### Event 537

#### Metadata

| Field        | Value    |
|--------------|----------|
| Entrypoint   | 0x0391   |
| Data Size    | 91 bytes |
| Instructions | 17       |

```
      00 01 02 03 04 05 06 07  08 09 0A 0B 0C 0D 0E 0F
      -- -- -- -- -- -- -- --  -- -- -- -- -- -- -- --
0390:    1E F0 FF FF 7F 6F 70  5B 05 80 F8 FF FF 7F F8   .....op[.......
03A0: FF FF 7F 74 68 6B 31 1D  1D 80 23 5B 05 80 F8 FF  ...thk1...#[....
03B0: FF 7F F8 FF FF 7F 74 68  6B 32 53 F8 FF FF 7F F8  ......thk2S.....
03C0: FF FF 7F 74 68 6B 32 1C  05 80 5B 05 80 F8 FF FF  ...thk2...[.....
03D0: 7F F8 FF FF 7F 74 6C 6B  30 03 02 10 11 80 1D 1E  .....tlk0.......
03E0: 80 23 5E B2 FF FF FF 1C  05 80 21 00              .#^.......!.    
```

#### Opcodes

```
  0: 0x0391 [0x1E] EventEntity looks at LocalPlayer and starts talking
  1: 0x0396 [0x6F] WAIT_FRAME_DELAY: Yield until WaitTime reaches zero
  2: 0x0397 [0x70] WAIT_ENTITY_RENDER_FLAG: Wait while EventEntity->Render.Flags3 bit 2 is set (cancel turn if not)
  3: 0x0398 [0x5B] LOAD_EXT_SCHEDULER: Load scheduler "thk1" with entities [EventEntity, EventEntity], work=30*
  4: 0x03A7 [0x1D] PRINT_EVENT_MESSAGE(message_id=7875*)
    → "Hrmm... Still not enough, eh? Sorry to keep yanking you around like this, but do you think you could go bring me some more?"
  5: 0x03AA [0x23] WAIT_FOR_DIALOG_INTERACTION
  6: 0x03AB [0x5B] LOAD_EXT_SCHEDULER: Load scheduler "thk2" with entities [EventEntity, EventEntity], work=30*
  7: 0x03BA [0x53] WAIT_SCHEDULER_TASK: Wait for scheduler "thk2" with entities [EventEntity, EventEntity]
  8: 0x03C7 [0x1C] WAIT(30* ticks)
  9: 0x03CA [0x5B] LOAD_EXT_SCHEDULER: Load scheduler "tlk0" with entities [EventEntity, EventEntity], work=30*
 10: 0x03D9 [0x03] Work_Zone[2] = 4370*
 11: 0x03DE [0x1D] PRINT_EVENT_MESSAGE(message_id=7876*)
    → "I'll take five $0 and no less, any time you can bring them. Good luck!"
 12: 0x03E1 [0x23] WAIT_FOR_DIALOG_INTERACTION
 13: 0x03E2 [0x5E] EventEntity goes idle (kills current action) (animation: 0xFFFFFFB2)
 14: 0x03E7 [0x1C] WAIT(30* ticks)
 15: 0x03EA [0x21] END_EVENT
 16: 0x03EB [0x00] END_REQSTACK()
```

### Event 65535.1

#### Metadata

| Field        | Value    |
|--------------|----------|
| Entrypoint   | 0x03EC   |
| Data Size    | 33 bytes |
| Instructions | 7        |

```
      00 01 02 03 04 05 06 07  08 09 0A 0B 0C 0D 0E 0F
      -- -- -- -- -- -- -- --  -- -- -- -- -- -- -- --
03E0:                                      32 1F 80 37              2..7
03F0: 20 80 21 80 22 80 23 80  1F 00 24 80 25 80 22 80   .!.".#...$.%.".
0400: 1F 01 1F 00 26 80 27 80  22 80 1F 01 00           ....&.'."....   
```

#### Opcodes

```
  0: 0x03EC [0x32] ExtData[1]->MainSpeed = 13* * 0.1
  1: 0x03EF [0x37] UPDATE_EVENT_POSITION_AND_DIR: x=-78.014*, z=-21.741*, y=1.999*, direction=303.7°*
  2: 0x03F8 [0x1F] MOVE_ENTITY: EventEntity moves to X=-73.509*, Z=-19.377*, Y=1.999*
  3: 0x0400 [0x1F] MOVE_ENTITY: Update entity position (mode=1)
  4: 0x0402 [0x1F] MOVE_ENTITY: EventEntity moves to X=-51.272*, Z=-24.736*, Y=1.999*
  5: 0x040A [0x1F] MOVE_ENTITY: Update entity position (mode=1)
  6: 0x040C [0x00] END_REQSTACK()
```

### Event 780

#### Metadata

| Field        | Value   |
|--------------|---------|
| Entrypoint   | 0x040D  |
| Data Size    | 1 bytes |
| Instructions | 1       |

```
      00 01 02 03 04 05 06 07  08 09 0A 0B 0C 0D 0E 0F
      -- -- -- -- -- -- -- --  -- -- -- -- -- -- -- --
0400:                                         00                     .  
```

#### Opcodes

```
  0: 0x040D [0x00] END_REQSTACK()
```
