# 17719328 - Glenne

## Common Data

| Field            | Value                         |
|------------------|-------------------------------|
| Zone             | Southern San d'Oria (ID: 230) |
| Block Size       | 540 bytes                     |
| Total Events     | 7                             |
| References Count | 19                            |

## List of Events

| Event ID              | Entrypoint   |   Size |   Instructions |
|-----------------------|--------------|--------|----------------|
| [65535](#event-65535) | 0x0000       |      1 |              1 |
| [510](#event-510)     | 0x0001       |    154 |             37 |
| [520](#event-520)     | 0x009B       |     49 |             14 |
| [513](#event-513)     | 0x00CC       |     71 |             18 |
| [644](#event-644)     | 0x0113       |     55 |             12 |
| [514](#event-514)     | 0x014A       |     47 |             14 |
| [521](#event-521)     | 0x0179       |     42 |             11 |

## DAT References (imed_data)

|   Index | Hex Value   |   Dec Value |
|---------|-------------|-------------|
|       0 | 0x001E      |          30 |
|       1 | 0x1E53      |        7763 |
|       2 | 0x1E54      |        7764 |
|       3 | 0x1E55      |        7765 |
|       4 | 0x1E56      |        7766 |
|       5 | 0x0000      |           0 |
|       6 | 0x1E57      |        7767 |
|       7 | 0x1E58      |        7768 |
|       8 | 0x0001      |           1 |
|       9 | 0x1E59      |        7769 |
|      10 | 0x40000000  |  1073741824 |
|      11 | 0x1E5B      |        7771 |
|      12 | 0x1E5C      |        7772 |
|      13 | 0x1E61      |        7777 |
|      14 | 0x1E62      |        7778 |
|      15 | 0x00C9      |         201 |
|      16 | 0x1E60      |        7776 |
|      17 | 0x1E5A      |        7770 |
|      18 | 0x1E63      |        7779 |

## String References

- **7763**: Oh, what to do? My husband is on patrol in West Ronfaure, but he forgot his salve when he went out this morning!
- **7764**: It's a dangerous job he does, and you never know when a good ointment could save your life! Perhaps you could take it to him?
- **7765**: I'd take it myself, to be sure, but I cannot leave the city.
- **7766**: Deliver the ointment? [Of course I will./Not right now.]
- **7767**: I thank you! His name is Aaveleon.
- **7768**: He patrols the wilderness outside, but not too far from Westgate.
- **7769**: I see...
- **7770**: I cannot accept this. Take it back.
- **7771**: Could you not find my husband?
- **7772**: His name is Aaveleon. Please, deliver the ointment to him. I fear he may need it.
- **7776**: So you lost the ointment! I suppose I can give you another. Please, deliver it as you said you would!
- **7777**: Thank you so much. With more fiends in the woods, always my husband returns with scrapes and scratches. These are troubling days for us all.
- **7778**: Here. It's not much, but please accept this as a token of my gratitude.
- **7779**: Thank you again for your help!

## Events

### Event 65535

#### Metadata

| Field        | Value   |
|--------------|---------|
| Entrypoint   | 0x0000  |
| Data Size    | 1 bytes |
| Instructions | 1       |

```
      00 01 02 03 04 05 06 07  08 09 0A 0B 0C 0D 0E 0F
      -- -- -- -- -- -- -- --  -- -- -- -- -- -- -- --
0000: 00                                                .               
```

#### Opcodes

```
  0: 0x0000 [0x00] END_REQSTACK()
```

### Event 510

#### Metadata

| Field        | Value     |
|--------------|-----------|
| Entrypoint   | 0x0001    |
| Data Size    | 154 bytes |
| Instructions | 37        |

```
      00 01 02 03 04 05 06 07  08 09 0A 0B 0C 0D 0E 0F
      -- -- -- -- -- -- -- --  -- -- -- -- -- -- -- --
0000:    86 00 20 60 0E 01 1E  F0 FF FF 7F 6F 70 66 00   .. `.......opf.
0010: 80 F8 FF FF 7F F8 FF FF  7F 74 6C 6B 30 1D 01 80  .........tlk0...
0020: 23 1C 00 80 1D 02 80 23  1C 00 80 1D 03 80 23 5E  #......#......#^
0030: 69 64 6C 30 24 04 80 05  80 05 80 25 02 00 10 05  idl0$......%....
0040: 80 00 6E 00 66 00 80 F8  FF FF 7F F8 FF FF 7F 74  ..n.f..........t
0050: 6C 6B 30 1D 06 80 23 1C  00 80 1D 07 80 23 5E 69  lk0...#......#^i
0060: 64 6C 30 1C 00 80 03 01  10 05 80 01 99 00 02 00  dl0.............
0070: 10 08 80 00 99 00 66 00  80 F8 FF FF 7F F8 FF FF  ......f.........
0080: 7F 74 6C 6B 30 1D 09 80  23 5E 69 64 6C 30 1C 00  .tlk0...#^idl0..
0090: 80 03 01 10 0A 80 01 99  00 21 00                 .........!.     
```

#### Opcodes

```
  0: 0x0001 [0x86] Glenne (ID: 17719328/0x010E6020)->Render.Flags3 = Flags3  // No change (flag=0)
  1: 0x0007 [0x1E] EventEntity looks at LocalPlayer and starts talking
  2: 0x000C [0x6F] WAIT_FRAME_DELAY: Yield until WaitTime reaches zero
  3: 0x000D [0x70] WAIT_ENTITY_RENDER_FLAG: Wait while EventEntity->Render.Flags3 bit 2 is set (cancel turn if not)
  4: 0x000E [0x66] LOAD_EXT_SCHEDULER_MAIN: Load scheduler "tlk0" with entities [EventEntity, EventEntity], work=30*
  5: 0x001D [0x1D] PRINT_EVENT_MESSAGE(message_id=7763*)
    → "Oh, what to do? My husband is on patrol in West Ronfaure, but he forgot his salve when he went out this morning!"
  6: 0x0020 [0x23] WAIT_FOR_DIALOG_INTERACTION
  7: 0x0021 [0x1C] WAIT(30* ticks)
  8: 0x0024 [0x1D] PRINT_EVENT_MESSAGE(message_id=7764*)
    → "It's a dangerous job he does, and you never know when a good ointment could save your life! Perhaps you could take it to him?"
  9: 0x0027 [0x23] WAIT_FOR_DIALOG_INTERACTION
 10: 0x0028 [0x1C] WAIT(30* ticks)
 11: 0x002B [0x1D] PRINT_EVENT_MESSAGE(message_id=7765*)
    → "I'd take it myself, to be sure, but I cannot leave the city."
 12: 0x002E [0x23] WAIT_FOR_DIALOG_INTERACTION
 13: 0x002F [0x5E] EventEntity goes idle (kills current action) (animation: "idl0")
 14: 0x0034 [0x24] CREATE_DIALOG(message_id=7766*, default_option=0*, option_flags=0*)
    → "Deliver the ointment? [Of course I will./Not right now.]"
 15: 0x003B [0x25] WAIT_DIALOG_SELECT()
 16: 0x003C [0x02] IF !(Work_Zone[0] == 0*) GOTO 0x006E
 17: 0x0044 [0x66] LOAD_EXT_SCHEDULER_MAIN: Load scheduler "tlk0" with entities [EventEntity, EventEntity], work=30*
 18: 0x0053 [0x1D] PRINT_EVENT_MESSAGE(message_id=7767*)
    → "I thank you! His name is Aaveleon."
 19: 0x0056 [0x23] WAIT_FOR_DIALOG_INTERACTION
 20: 0x0057 [0x1C] WAIT(30* ticks)
 21: 0x005A [0x1D] PRINT_EVENT_MESSAGE(message_id=7768*)
    → "He patrols the wilderness outside, but not too far from Westgate."
 22: 0x005D [0x23] WAIT_FOR_DIALOG_INTERACTION
 23: 0x005E [0x5E] EventEntity goes idle (kills current action) (animation: "idl0")
 24: 0x0063 [0x1C] WAIT(30* ticks)
 25: 0x0066 [0x03] Work_Zone[1] = 0*
 26: 0x006B [0x01] GOTO 0x0099
 27: 0x006E [0x02] IF !(Work_Zone[0] == 1*) GOTO 0x0099
 28: 0x0076 [0x66] LOAD_EXT_SCHEDULER_MAIN: Load scheduler "tlk0" with entities [EventEntity, EventEntity], work=30*
 29: 0x0085 [0x1D] PRINT_EVENT_MESSAGE(message_id=7769*)
    → "I see..."
 30: 0x0088 [0x23] WAIT_FOR_DIALOG_INTERACTION
 31: 0x0089 [0x5E] EventEntity goes idle (kills current action) (animation: "idl0")
 32: 0x008E [0x1C] WAIT(30* ticks)
 33: 0x0091 [0x03] Work_Zone[1] = 1073741824*
 34: 0x0096 [0x01] GOTO 0x0099

SUBROUTINE_0099:
 35: 0x0099 [0x21] END_EVENT
 36: 0x009A [0x00] END_REQSTACK()
```

### Event 520

#### Metadata

| Field        | Value    |
|--------------|----------|
| Entrypoint   | 0x009B   |
| Data Size    | 49 bytes |
| Instructions | 14       |

```
      00 01 02 03 04 05 06 07  08 09 0A 0B 0C 0D 0E 0F
      -- -- -- -- -- -- -- --  -- -- -- -- -- -- -- --
0090:                                   86 00 20 60 0E             .. `.
00A0: 01 1E F0 FF FF 7F 6F 70  66 00 80 F8 FF FF 7F F8  ......opf.......
00B0: FF FF 7F 74 6C 6B 30 1D  0B 80 23 1C 00 80 1D 0C  ...tlk0...#.....
00C0: 80 23 5E 69 64 6C 30 1C  00 80 21 00              .#^idl0...!.    
```

#### Opcodes

```
  0: 0x009B [0x86] Glenne (ID: 17719328/0x010E6020)->Render.Flags3 = Flags3  // No change (flag=0)
  1: 0x00A1 [0x1E] EventEntity looks at LocalPlayer and starts talking
  2: 0x00A6 [0x6F] WAIT_FRAME_DELAY: Yield until WaitTime reaches zero
  3: 0x00A7 [0x70] WAIT_ENTITY_RENDER_FLAG: Wait while EventEntity->Render.Flags3 bit 2 is set (cancel turn if not)
  4: 0x00A8 [0x66] LOAD_EXT_SCHEDULER_MAIN: Load scheduler "tlk0" with entities [EventEntity, EventEntity], work=30*
  5: 0x00B7 [0x1D] PRINT_EVENT_MESSAGE(message_id=7771*)
    → "Could you not find my husband?"
  6: 0x00BA [0x23] WAIT_FOR_DIALOG_INTERACTION
  7: 0x00BB [0x1C] WAIT(30* ticks)
  8: 0x00BE [0x1D] PRINT_EVENT_MESSAGE(message_id=7772*)
    → "His name is Aaveleon. Please, deliver the ointment to him. I fear he may need it."
  9: 0x00C1 [0x23] WAIT_FOR_DIALOG_INTERACTION
 10: 0x00C2 [0x5E] EventEntity goes idle (kills current action) (animation: "idl0")
 11: 0x00C7 [0x1C] WAIT(30* ticks)
 12: 0x00CA [0x21] END_EVENT
 13: 0x00CB [0x00] END_REQSTACK()
```

### Event 513

#### Metadata

| Field        | Value    |
|--------------|----------|
| Entrypoint   | 0x00CC   |
| Data Size    | 71 bytes |
| Instructions | 18       |

```
      00 01 02 03 04 05 06 07  08 09 0A 0B 0C 0D 0E 0F
      -- -- -- -- -- -- -- --  -- -- -- -- -- -- -- --
00C0:                                      42 20 01 86              B ..
00D0: 00 20 60 0E 01 1E F0 FF  FF 7F 6F 70 66 00 80 F8  . `.......opf...
00E0: FF FF 7F F8 FF FF 7F 74  6C 6B 30 1D 0D 80 23 1C  .......tlk0...#.
00F0: 00 80 1D 0E 80 23 5E 69  64 6C 30 45 0F 80 F0 FF  .....#^idl0E....
0100: FF 7F F0 FF FF 7F 71 73  74 63 05 80 1C 00 80 20  ......qstc..... 
0110: 00 21 00                                          .!.             
```

#### Opcodes

```
  0: 0x00CC [0x42] SET_CLI_EVENT_CANCEL_DATA()
  1: 0x00CD [0x20] SET_CLI_EVENT_UC_FLAG: Lock player control
  2: 0x00CF [0x86] Glenne (ID: 17719328/0x010E6020)->Render.Flags3 = Flags3  // No change (flag=0)
  3: 0x00D5 [0x1E] EventEntity looks at LocalPlayer and starts talking
  4: 0x00DA [0x6F] WAIT_FRAME_DELAY: Yield until WaitTime reaches zero
  5: 0x00DB [0x70] WAIT_ENTITY_RENDER_FLAG: Wait while EventEntity->Render.Flags3 bit 2 is set (cancel turn if not)
  6: 0x00DC [0x66] LOAD_EXT_SCHEDULER_MAIN: Load scheduler "tlk0" with entities [EventEntity, EventEntity], work=30*
  7: 0x00EB [0x1D] PRINT_EVENT_MESSAGE(message_id=7777*)
    → "Thank you so much. With more fiends in the woods, always my husband returns with scrapes and scratches. These are troubling days for us all."
  8: 0x00EE [0x23] WAIT_FOR_DIALOG_INTERACTION
  9: 0x00EF [0x1C] WAIT(30* ticks)
 10: 0x00F2 [0x1D] PRINT_EVENT_MESSAGE(message_id=7778*)
    → "Here. It's not much, but please accept this as a token of my gratitude."
 11: 0x00F5 [0x23] WAIT_FOR_DIALOG_INTERACTION
 12: 0x00F6 [0x5E] EventEntity goes idle (kills current action) (animation: "idl0")
 13: 0x00FB [0x45] LOAD_SCHEDULED_TASK: Load scheduler "qstc" with entities [LocalPlayer, LocalPlayer], work=[201*, 0*]
 14: 0x010C [0x1C] WAIT(30* ticks)
 15: 0x010F [0x20] SET_CLI_EVENT_UC_FLAG: Unlock player control
 16: 0x0111 [0x21] END_EVENT
 17: 0x0112 [0x00] END_REQSTACK()
```

### Event 644

#### Metadata

| Field        | Value    |
|--------------|----------|
| Entrypoint   | 0x0113   |
| Data Size    | 55 bytes |
| Instructions | 12       |

```
      00 01 02 03 04 05 06 07  08 09 0A 0B 0C 0D 0E 0F
      -- -- -- -- -- -- -- --  -- -- -- -- -- -- -- --
0110:          86 00 20 60 0E  01 1E F0 FF FF 7F 6F 70     .. `.......op
0120: 66 00 80 F8 FF FF 7F F8  FF FF 7F 64 69 73 30 1D  f..........dis0.
0130: 10 80 23 53 F8 FF FF 7F  F8 FF FF 7F 64 69 73 30  ..#S........dis0
0140: 1C 00 80 03 01 10 05 80  21 00                    ........!.      
```

#### Opcodes

```
  0: 0x0113 [0x86] Glenne (ID: 17719328/0x010E6020)->Render.Flags3 = Flags3  // No change (flag=0)
  1: 0x0119 [0x1E] EventEntity looks at LocalPlayer and starts talking
  2: 0x011E [0x6F] WAIT_FRAME_DELAY: Yield until WaitTime reaches zero
  3: 0x011F [0x70] WAIT_ENTITY_RENDER_FLAG: Wait while EventEntity->Render.Flags3 bit 2 is set (cancel turn if not)
  4: 0x0120 [0x66] LOAD_EXT_SCHEDULER_MAIN: Load scheduler "dis0" with entities [EventEntity, EventEntity], work=30*
  5: 0x012F [0x1D] PRINT_EVENT_MESSAGE(message_id=7776*)
    → "So you lost the ointment! I suppose I can give you another. Please, deliver it as you said you would!"
  6: 0x0132 [0x23] WAIT_FOR_DIALOG_INTERACTION
  7: 0x0133 [0x53] WAIT_SCHEDULER_TASK: Wait for scheduler "dis0" with entities [EventEntity, EventEntity]
  8: 0x0140 [0x1C] WAIT(30* ticks)
  9: 0x0143 [0x03] Work_Zone[1] = 0*
 10: 0x0148 [0x21] END_EVENT
 11: 0x0149 [0x00] END_REQSTACK()
```

### Event 514

#### Metadata

| Field        | Value    |
|--------------|----------|
| Entrypoint   | 0x014A   |
| Data Size    | 47 bytes |
| Instructions | 14       |

```
      00 01 02 03 04 05 06 07  08 09 0A 0B 0C 0D 0E 0F
      -- -- -- -- -- -- -- --  -- -- -- -- -- -- -- --
0140:                                42 20 01 86 00 20            B ... 
0150: 60 0E 01 1E F0 FF FF 7F  6F 70 66 00 80 F8 FF FF  `.......opf.....
0160: 7F F8 FF FF 7F 74 6C 6B  30 1D 11 80 23 5E 69 64  .....tlk0...#^id
0170: 6C 30 1C 00 80 20 00 21  00                       l0... .!.       
```

#### Opcodes

```
  0: 0x014A [0x42] SET_CLI_EVENT_CANCEL_DATA()
  1: 0x014B [0x20] SET_CLI_EVENT_UC_FLAG: Lock player control
  2: 0x014D [0x86] Glenne (ID: 17719328/0x010E6020)->Render.Flags3 = Flags3  // No change (flag=0)
  3: 0x0153 [0x1E] EventEntity looks at LocalPlayer and starts talking
  4: 0x0158 [0x6F] WAIT_FRAME_DELAY: Yield until WaitTime reaches zero
  5: 0x0159 [0x70] WAIT_ENTITY_RENDER_FLAG: Wait while EventEntity->Render.Flags3 bit 2 is set (cancel turn if not)
  6: 0x015A [0x66] LOAD_EXT_SCHEDULER_MAIN: Load scheduler "tlk0" with entities [EventEntity, EventEntity], work=30*
  7: 0x0169 [0x1D] PRINT_EVENT_MESSAGE(message_id=7770*)
    → "I cannot accept this. Take it back."
  8: 0x016C [0x23] WAIT_FOR_DIALOG_INTERACTION
  9: 0x016D [0x5E] EventEntity goes idle (kills current action) (animation: "idl0")
 10: 0x0172 [0x1C] WAIT(30* ticks)
 11: 0x0175 [0x20] SET_CLI_EVENT_UC_FLAG: Unlock player control
 12: 0x0177 [0x21] END_EVENT
 13: 0x0178 [0x00] END_REQSTACK()
```

### Event 521

#### Metadata

| Field        | Value    |
|--------------|----------|
| Entrypoint   | 0x0179   |
| Data Size    | 42 bytes |
| Instructions | 11       |

```
      00 01 02 03 04 05 06 07  08 09 0A 0B 0C 0D 0E 0F
      -- -- -- -- -- -- -- --  -- -- -- -- -- -- -- --
0170:                             86 00 20 60 0E 01 1E           .. `...
0180: F0 FF FF 7F 6F 70 66 00  80 F8 FF FF 7F F8 FF FF  ....opf.........
0190: 7F 64 69 73 30 1D 12 80  23 5E 69 64 6C 30 1C 00  .dis0...#^idl0..
01A0: 80 21 00                                          .!.             
```

#### Opcodes

```
  0: 0x0179 [0x86] Glenne (ID: 17719328/0x010E6020)->Render.Flags3 = Flags3  // No change (flag=0)
  1: 0x017F [0x1E] EventEntity looks at LocalPlayer and starts talking
  2: 0x0184 [0x6F] WAIT_FRAME_DELAY: Yield until WaitTime reaches zero
  3: 0x0185 [0x70] WAIT_ENTITY_RENDER_FLAG: Wait while EventEntity->Render.Flags3 bit 2 is set (cancel turn if not)
  4: 0x0186 [0x66] LOAD_EXT_SCHEDULER_MAIN: Load scheduler "dis0" with entities [EventEntity, EventEntity], work=30*
  5: 0x0195 [0x1D] PRINT_EVENT_MESSAGE(message_id=7779*)
    → "Thank you again for your help!"
  6: 0x0198 [0x23] WAIT_FOR_DIALOG_INTERACTION
  7: 0x0199 [0x5E] EventEntity goes idle (kills current action) (animation: "idl0")
  8: 0x019E [0x1C] WAIT(30* ticks)
  9: 0x01A1 [0x21] END_EVENT
 10: 0x01A2 [0x00] END_REQSTACK()
```
