# 17719571

## Common Data

| Field            | Value                         |
|------------------|-------------------------------|
| Zone             | Southern San d'Oria (ID: 230) |
| Block Size       | 3660 bytes                    |
| Total Events     | 65                            |
| References Count | 254                           |

## List of Events

| Event ID                   | Entrypoint   |   Size |   Instructions |
|----------------------------|--------------|--------|----------------|
| [65535](#event-65535)      | 0x0000       |      1 |              1 |
| [827](#event-827)          | 0x0001       |      1 |              1 |
| [823](#event-823)          | 0x0002       |      1 |              1 |
| [65535.1](#event-655351)   | 0x0003       |     12 |              3 |
| [65535.2](#event-655352)   | 0x000F       |     12 |              3 |
| [65535.3](#event-655353)   | 0x001B       |     12 |              3 |
| [65535.4](#event-655354)   | 0x0027       |     10 |              2 |
| [65535.5](#event-655355)   | 0x0031       |     11 |              3 |
| [65535.6](#event-655356)   | 0x003C       |      5 |              2 |
| [65535.7](#event-655357)   | 0x0041       |     15 |              3 |
| [65535.8](#event-655358)   | 0x0050       |     19 |              5 |
| [65535.9](#event-655359)   | 0x0063       |      3 |              2 |
| [65535.10](#event-6553510) | 0x0066       |     17 |              4 |
| [65535.11](#event-6553511) | 0x0077       |    174 |             24 |
| [65535.12](#event-6553512) | 0x0125       |     15 |              3 |
| [65535.13](#event-6553513) | 0x0134       |     27 |              7 |
| [65535.14](#event-6553514) | 0x014F       |     10 |              2 |
| [65535.15](#event-6553515) | 0x0159       |    121 |             24 |
| [65535.16](#event-6553516) | 0x01D2       |    121 |             24 |
| [65535.17](#event-6553517) | 0x024B       |     15 |              3 |
| [65535.18](#event-6553518) | 0x025A       |     48 |              9 |
| [65535.19](#event-6553519) | 0x028A       |     15 |              3 |
| [65535.20](#event-6553520) | 0x0299       |    204 |             34 |
| [65535.21](#event-6553521) | 0x0365       |     15 |              3 |
| [65535.22](#event-6553522) | 0x0374       |     76 |             12 |
| [65535.23](#event-6553523) | 0x03C0       |     14 |              4 |
| [65535.24](#event-6553524) | 0x03CE       |     10 |              2 |
| [65535.25](#event-6553525) | 0x03D8       |     64 |             10 |
| [65535.26](#event-6553526) | 0x0418       |     10 |              2 |
| [65535.27](#event-6553527) | 0x0422       |     65 |             11 |
| [65535.28](#event-6553528) | 0x0463       |     15 |              3 |
| [65535.29](#event-6553529) | 0x0472       |     58 |             10 |
| [65535.30](#event-6553530) | 0x04AC       |     15 |              3 |
| [65535.31](#event-6553531) | 0x04BB       |    307 |             41 |
| [65535.32](#event-6553532) | 0x05EE       |     30 |              8 |
| [65535.33](#event-6553533) | 0x060C       |     19 |              5 |
| [65535.34](#event-6553534) | 0x061F       |     14 |              4 |
| [65535.35](#event-6553535) | 0x062D       |     14 |              4 |
| [65535.36](#event-6553536) | 0x063B       |     40 |             10 |
| [65535.37](#event-6553537) | 0x0663       |     19 |              5 |
| [65535.38](#event-6553538) | 0x0676       |     14 |              4 |
| [65535.39](#event-6553539) | 0x0684       |     14 |              4 |
| [65535.40](#event-6553540) | 0x0692       |     10 |              2 |
| [65535.41](#event-6553541) | 0x069C       |     14 |              4 |
| [65535.42](#event-6553542) | 0x06AA       |     19 |              5 |
| [861](#event-861)          | 0x06BD       |      1 |              1 |
| [65535.43](#event-6553543) | 0x06BE       |     15 |              3 |
| [65535.44](#event-6553544) | 0x06CD       |     48 |             11 |
| [65535.45](#event-6553545) | 0x06FD       |     48 |             11 |
| [65535.46](#event-6553546) | 0x072D       |      6 |              2 |
| [65535.47](#event-6553547) | 0x0733       |      6 |              2 |
| [65535.48](#event-6553548) | 0x0739       |     15 |              3 |
| [65535.49](#event-6553549) | 0x0748       |     54 |             12 |
| [65535.50](#event-6553550) | 0x077E       |     66 |             16 |
| [65535.51](#event-6553551) | 0x07C0       |     15 |              3 |
| [65535.52](#event-6553552) | 0x07CF       |     77 |             17 |
| [65535.53](#event-6553553) | 0x081C       |     50 |             12 |
| [65535.54](#event-6553554) | 0x084E       |     50 |             12 |
| [65535.55](#event-6553555) | 0x0880       |     67 |             15 |
| [65535.56](#event-6553556) | 0x08C3       |     14 |              4 |
| [65535.57](#event-6553557) | 0x08D1       |     34 |              8 |
| [65535.58](#event-6553558) | 0x08F3       |     14 |              4 |
| [65535.59](#event-6553559) | 0x0901       |     34 |              8 |
| [65535.60](#event-6553560) | 0x0923       |     14 |              4 |
| [65535.61](#event-6553561) | 0x0931       |     15 |              3 |

## DAT References (imed_data)

|   Index | Hex Value   |   Dec Value |
|---------|-------------|-------------|
|       0 | 0xFFFFD067  |  4294955111 |
|       1 | 0xFFFE38C2  |  4294850754 |
|       2 | 0xFFFFFED4  |  4294966996 |
|       3 | 0x0083      |         131 |
|       4 | 0xFFFFD026  |  4294955046 |
|       5 | 0x0C0C      |        3084 |
|       6 | 0xFFFFE4C1  |  4294960321 |
|       7 | 0xFFFE627B  |  4294861435 |
|       8 | 0x060C      |        1548 |
|       9 | 0x0C23      |        3107 |
|      10 | 0x0000      |           0 |
|      11 | 0x027B      |         635 |
|      12 | 0xFFFE5731  |  4294858545 |
|      13 | 0x004C      |          76 |
|      14 | 0x0050      |          80 |
|      15 | 0x0F11      |        3857 |
|      16 | 0xFFFE5936  |  4294859062 |
|      17 | 0x07AB      |        1963 |
|      18 | 0xFFFEF7E6  |  4294899686 |
|      19 | 0x02BB      |         699 |
|      20 | 0x0787      |        1927 |
|      21 | 0x001E      |          30 |
|      22 | 0x00C6      |         198 |
|      23 | 0x000A      |          10 |
|      24 | 0xFFFFFDA3  |  4294966691 |
|      25 | 0xFFFEF6F1  |  4294899441 |
|      26 | 0x0005      |           5 |
|      27 | 0x0368      |         872 |
|      28 | 0x0078      |         120 |
|      29 | 0x02FA      |         762 |
|      30 | 0xFFFEF70B  |  4294899467 |
|      31 | 0x02AF      |         687 |
|      32 | 0xFFFEFDC1  |  4294901185 |
|      33 | 0xFFFFF99A  |  4294965658 |
|      34 | 0xFFFEFFD0  |  4294901712 |
|      35 | 0x0480      |        1152 |
|      36 | 0x00E0      |         224 |
|      37 | 0xFFFFD489  |  4294956169 |
|      38 | 0xFFFFC04D  |  4294950989 |
|      39 | 0x07CF      |        1999 |
|      40 | 0x021D      |         541 |
|      41 | 0x0013      |          19 |
|      42 | 0xFFFFB416  |  4294947862 |
|      43 | 0xFFFFB4EE  |  4294948078 |
|      44 | 0x0984      |        2436 |
|      45 | 0x1971      |        6513 |
|      46 | 0xFFFEA380  |  4294878080 |
|      47 | 0x0897      |        2199 |
|      48 | 0x06BA      |        1722 |
|      49 | 0x0039      |          57 |
|      50 | 0x5688      |       22152 |
|      51 | 0xFFFE8963  |  4294871395 |
|      52 | 0x59FA      |       23034 |
|      53 | 0xFFFE9703  |  4294874883 |
|      54 | 0x20CA      |        8394 |
|      55 | 0xFFFEA6F2  |  4294878962 |
|      56 | 0x1A0A      |        6666 |
|      57 | 0xFFFEA628  |  4294878760 |
|      58 | 0x22EC      |        8940 |
|      59 | 0xFFFE9A5B  |  4294875739 |
|      60 | 0x2C7E      |       11390 |
|      61 | 0xFFFE96C5  |  4294874821 |
|      62 | 0x3EC8      |       16072 |
|      63 | 0xFFFE9096  |  4294873238 |
|      64 | 0x4D5E      |       19806 |
|      65 | 0xFFFE8BA4  |  4294871972 |
|      66 | 0xFFFF945A  |  4294939738 |
|      67 | 0xFFFE8DDC  |  4294872540 |
|      68 | 0x039D      |         925 |
|      69 | 0xFFFF9E35  |  4294942261 |
|      70 | 0xFFFEA621  |  4294878753 |
|      71 | 0x106E      |        4206 |
|      72 | 0xFFFE8305  |  4294869765 |
|      73 | 0x05DC      |        1500 |
|      74 | 0x04EC      |        1260 |
|      75 | 0x036B      |         875 |
|      76 | 0x3192      |       12690 |
|      77 | 0xFFFE788B  |  4294867083 |
|      78 | 0x0812      |        2066 |
|      79 | 0x0046      |          70 |
|      80 | 0x003C      |          60 |
|      81 | 0x3832      |       14386 |
|      82 | 0xFFFE9CCE  |  4294876366 |
|      83 | 0x018F      |         399 |
|      84 | 0xFFFF9976  |  4294941046 |
|      85 | 0x06A3      |        1699 |
|      86 | 0x0407      |        1031 |
|      87 | 0xFFFFEBC7  |  4294962119 |
|      88 | 0xFFFF9AEA  |  4294941418 |
|      89 | 0xFFFDF503  |  4294833411 |
|      90 | 0x3834      |       14388 |
|      91 | 0xFFFFF831  |  4294965297 |
|      92 | 0x0843      |        2115 |
|      93 | 0x00FE      |         254 |
|      94 | 0xFFFDE316  |  4294828822 |
|      95 | 0x3B29      |       15145 |
|      96 | 0xFFFC935E  |  4294742878 |
|      97 | 0x4EEAC     |      323244 |
|      98 | 0xFFFF15CE  |  4294907342 |
|      99 | 0x0721      |        1825 |
|     100 | 0xFFFC8949  |  4294740297 |
|     101 | 0x4F19F     |      323999 |
|     102 | 0xFFFF1705  |  4294907653 |
|     103 | 0xFFFA1850  |  4294580304 |
|     104 | 0x21E5B     |      138843 |
|     105 | 0xFFFF757B  |  4294931835 |
|     106 | 0x0FFE      |        4094 |
|     107 | 0xFFFA2BCB  |  4294585291 |
|     108 | 0x21BA0     |      138144 |
|     109 | 0xFFFF73E5  |  4294931429 |
|     110 | 0x0C29      |        3113 |
|     111 | 0xFFF5A462  |  4294288482 |
|     112 | 0x73A2C     |      473644 |
|     113 | 0x3EA8      |       16040 |
|     114 | 0x038E      |         910 |
|     115 | 0xFFF5B7D4  |  4294293460 |
|     116 | 0x6F2AA     |      455338 |
|     117 | 0x40FB      |       16635 |
|     118 | 0x69D8      |       27096 |
|     119 | 0xFFFEEC1B  |  4294896667 |
|     120 | 0x0E51      |        3665 |
|     121 | 0x9C31      |       39985 |
|     122 | 0xFFFF240C  |  4294910988 |
|     123 | 0x07D3      |        2003 |
|     124 | 0x00FD      |         253 |
|     125 | 0xA101      |       41217 |
|     126 | 0xFFFF6D0F  |  4294929679 |
|     127 | 0x07D0      |        2000 |
|     128 | 0x4D51      |       19793 |
|     129 | 0xFFFF9A03  |  4294941187 |
|     130 | 0x157D      |        5501 |
|     131 | 0xFFFFACB3  |  4294945971 |
|     132 | 0xFFFFF16B  |  4294963563 |
|     133 | 0xFFFFACE5  |  4294946021 |
|     134 | 0xFFFFB836  |  4294948918 |
|     135 | 0xFFFF9CE5  |  4294941925 |
|     136 | 0xFFFF6AB9  |  4294929081 |
|     137 | 0xFFFF6CE4  |  4294929636 |
|     138 | 0xFFFF6912  |  4294928658 |
|     139 | 0xFFFF2FA0  |  4294913952 |
|     140 | 0xFFFF6CA4  |  4294929572 |
|     141 | 0xFFFF2327  |  4294910759 |
|     142 | 0xFFFF776E  |  4294932334 |
|     143 | 0xFFFF1DA4  |  4294909348 |
|     144 | 0xFFFFA544  |  4294944068 |
|     145 | 0xFFFEEB85  |  4294896517 |
|     146 | 0xFFFC7FA3  |  4294737827 |
|     147 | 0x4E55C     |      320860 |
|     148 | 0xFFFF1794  |  4294907796 |
|     149 | 0xFFFC84AF  |  4294739119 |
|     150 | 0x4D4ED     |      316653 |
|     151 | 0xFFFC9169  |  4294742377 |
|     152 | 0x4D30B     |      316171 |
|     153 | 0xFFFF160C  |  4294907404 |
|     154 | 0xFFFC7981  |  4294736257 |
|     155 | 0x4DA56     |      318038 |
|     156 | 0xFFFA3070  |  4294586480 |
|     157 | 0x21DE6     |      138726 |
|     158 | 0xFFFF73E1  |  4294931425 |
|     159 | 0xFFFA33F9  |  4294587385 |
|     160 | 0x22C06     |      142342 |
|     161 | 0xFFFF70F4  |  4294930676 |
|     162 | 0xFFFA2A60  |  4294584928 |
|     163 | 0x242F7     |      148215 |
|     164 | 0xFFFF6AB2  |  4294929074 |
|     165 | 0xFFFA3867  |  4294588519 |
|     166 | 0x235CB     |      144843 |
|     167 | 0xFFFF6DD8  |  4294929880 |
|     168 | 0xFFFA27FD  |  4294584317 |
|     169 | 0x2426D     |      148077 |
|     170 | 0xFFFF6AC6  |  4294929094 |
|     171 | 0xFFFFF154  |  4294963540 |
|     172 | 0xFFFE8C2A  |  4294872106 |
|     173 | 0x028A      |         650 |
|     174 | 0x0429      |        1065 |
|     175 | 0xFFFFF207  |  4294963719 |
|     176 | 0xFFFE725F  |  4294865503 |
|     177 | 0xFFFFFF9D  |  4294967197 |
|     178 | 0xFFF6BBFE  |  4294360062 |
|     179 | 0x924FF     |      599295 |
|     180 | 0x00A0      |         160 |
|     181 | 0x0179      |         377 |
|     182 | 0x0001      |           1 |
|     183 | 0xFFF6C5B9  |  4294362553 |
|     184 | 0x92AF2     |      600818 |
|     185 | 0x0023      |          35 |
|     186 | 0xFFF6B7C3  |  4294358979 |
|     187 | 0x92A37     |      600631 |
|     188 | 0x00D6      |         214 |
|     189 | 0xFFF6C07A  |  4294361210 |
|     190 | 0x92ED0     |      601808 |
|     191 | 0x0066      |         102 |
|     192 | 0xFFF6D7C0  |  4294367168 |
|     193 | 0x8EF6A     |      585578 |
|     194 | 0x0274      |         628 |
|     195 | 0x011C      |         284 |
|     196 | 0xFFF6D0CA  |  4294365386 |
|     197 | 0x8F7DF     |      587743 |
|     198 | 0x0112      |         274 |
|     199 | 0xFFF6D779  |  4294367097 |
|     200 | 0x8FCC2     |      588994 |
|     201 | 0x015B      |         347 |
|     202 | 0xFFF6DB55  |  4294368085 |
|     203 | 0x8F169     |      586089 |
|     204 | 0x024A      |         586 |
|     205 | 0xFFF6DAA1  |  4294367905 |
|     206 | 0x8E6CF     |      583375 |
|     207 | 0x033E      |         830 |
|     208 | 0xFFF6D069  |  4294365289 |
|     209 | 0x8F7F4     |      587764 |
|     210 | 0x010C      |         268 |
|     211 | 0x0C58      |        3160 |
|     212 | 0x0154      |         340 |
|     213 | 0xFFF6D763  |  4294367075 |
|     214 | 0x8FB0E     |      588558 |
|     215 | 0x0171      |         369 |
|     216 | 0xFFF6CFE0  |  4294365152 |
|     217 | 0x8F449     |      586825 |
|     218 | 0x0178      |         376 |
|     219 | 0x0862      |        2146 |
|     220 | 0xFFF6D8AC  |  4294367404 |
|     221 | 0x8FABD     |      588477 |
|     222 | 0x0175      |         373 |
|     223 | 0xFFF6DB01  |  4294368001 |
|     224 | 0x90356     |      590678 |
|     225 | 0x0108      |         264 |
|     226 | 0x03BF      |         959 |
|     227 | 0xFFF6C73F  |  4294362943 |
|     228 | 0x8F234     |      586292 |
|     229 | 0x008A      |         138 |
|     230 | 0x0025      |          37 |
|     231 | 0x00F0      |         240 |
|     232 | 0xFFF6D6F8  |  4294366968 |
|     233 | 0x8E30A     |      582410 |
|     234 | 0x0322      |         802 |
|     235 | 0x0BD3      |        3027 |
|     236 | 0xFFF6D2A6  |  4294365862 |
|     237 | 0x8FA8C     |      588428 |
|     238 | 0x0138      |         312 |
|     239 | 0xFFF6C79F  |  4294363039 |
|     240 | 0x8F34D     |      586573 |
|     241 | 0xFFF6CB4A  |  4294363978 |
|     242 | 0x8FAEF     |      588527 |
|     243 | 0x00C4      |         196 |
|     244 | 0xFFF6D94C  |  4294367564 |
|     245 | 0x8EC18     |      584728 |
|     246 | 0x02D3      |         723 |
|     247 | 0xFFF6C219  |  4294361625 |
|     248 | 0x8E860     |      583776 |
|     249 | 0xFFFFFF94  |  4294967188 |
|     250 | 0xFFF6D3EA  |  4294366186 |
|     251 | 0x8F45F     |      586847 |
|     252 | 0x01B7      |         439 |
|     253 | 0x064B      |        1611 |

## Events

### Event 65535

#### Metadata

| Field        | Value   |
|--------------|---------|
| Entrypoint   | 0x0000  |
| Data Size    | 1 bytes |
| Instructions | 1       |

```
      00 01 02 03 04 05 06 07  08 09 0A 0B 0C 0D 0E 0F
      -- -- -- -- -- -- -- --  -- -- -- -- -- -- -- --
0000: 00                                                .               
```

#### Opcodes

```
  0: 0x0000 [0x00] END_REQSTACK()
```

### Event 827

#### Metadata

| Field        | Value   |
|--------------|---------|
| Entrypoint   | 0x0001  |
| Data Size    | 1 bytes |
| Instructions | 1       |

```
      00 01 02 03 04 05 06 07  08 09 0A 0B 0C 0D 0E 0F
      -- -- -- -- -- -- -- --  -- -- -- -- -- -- -- --
0000:    00                                              .              
```

#### Opcodes

```
  0: 0x0001 [0x00] END_REQSTACK()
```

### Event 823

#### Metadata

| Field        | Value   |
|--------------|---------|
| Entrypoint   | 0x0002  |
| Data Size    | 1 bytes |
| Instructions | 1       |

```
      00 01 02 03 04 05 06 07  08 09 0A 0B 0C 0D 0E 0F
      -- -- -- -- -- -- -- --  -- -- -- -- -- -- -- --
0000:       00                                            .             
```

#### Opcodes

```
  0: 0x0002 [0x00] END_REQSTACK()
```

### Event 65535.1

#### Metadata

| Field        | Value    |
|--------------|----------|
| Entrypoint   | 0x0003   |
| Data Size    | 12 bytes |
| Instructions | 3        |

```
      00 01 02 03 04 05 06 07  08 09 0A 0B 0C 0D 0E 0F
      -- -- -- -- -- -- -- --  -- -- -- -- -- -- -- --
0000:          33 01 37 00 80  01 80 02 80 03 80 00        3.7......... 
```

#### Opcodes

```
  0: 0x0003 [0x33] EventEntity->Render.Flags0 |= 0x200000 // Bit 21 (flag=0x01)
  1: 0x0005 [0x37] UPDATE_EVENT_POSITION_AND_DIR: x=-12.185*, z=-116.542*, y=-0.300*, direction=11.5°*
  2: 0x000E [0x00] END_REQSTACK()
```

### Event 65535.2

#### Metadata

| Field        | Value    |
|--------------|----------|
| Entrypoint   | 0x000F   |
| Data Size    | 12 bytes |
| Instructions | 3        |

```
      00 01 02 03 04 05 06 07  08 09 0A 0B 0C 0D 0E 0F
      -- -- -- -- -- -- -- --  -- -- -- -- -- -- -- --
0000:                                               33                 3
0010: 01 37 04 80 01 80 02 80  05 80 00                 .7.........     
```

#### Opcodes

```
  0: 0x000F [0x33] EventEntity->Render.Flags0 |= 0x200000 // Bit 21 (flag=0x01)
  1: 0x0011 [0x37] UPDATE_EVENT_POSITION_AND_DIR: x=-12.250*, z=-116.542*, y=-0.300*, direction=271.0°*
  2: 0x001A [0x00] END_REQSTACK()
```

### Event 65535.3

#### Metadata

| Field        | Value    |
|--------------|----------|
| Entrypoint   | 0x001B   |
| Data Size    | 12 bytes |
| Instructions | 3        |

```
      00 01 02 03 04 05 06 07  08 09 0A 0B 0C 0D 0E 0F
      -- -- -- -- -- -- -- --  -- -- -- -- -- -- -- --
0010:                                   33 01 37 04 80             3.7..
0020: 01 80 02 80 03 80 00                              .......         
```

#### Opcodes

```
  0: 0x001B [0x33] EventEntity->Render.Flags0 |= 0x200000 // Bit 21 (flag=0x01)
  1: 0x001D [0x37] UPDATE_EVENT_POSITION_AND_DIR: x=-12.250*, z=-116.542*, y=-0.300*, direction=11.5°*
  2: 0x0026 [0x00] END_REQSTACK()
```

### Event 65535.4

#### Metadata

| Field        | Value    |
|--------------|----------|
| Entrypoint   | 0x0027   |
| Data Size    | 10 bytes |
| Instructions | 2        |

```
      00 01 02 03 04 05 06 07  08 09 0A 0B 0C 0D 0E 0F
      -- -- -- -- -- -- -- --  -- -- -- -- -- -- -- --
0020:                      37  06 80 07 80 08 80 09 80         7........
0030: 00                                                .               
```

#### Opcodes

```
  0: 0x0027 [0x37] UPDATE_EVENT_POSITION_AND_DIR: x=-6.975*, z=-105.861*, y=1.548*, direction=273.1°*
  1: 0x0030 [0x00] END_REQSTACK()
```

### Event 65535.5

#### Metadata

| Field        | Value    |
|--------------|----------|
| Entrypoint   | 0x0031   |
| Data Size    | 11 bytes |
| Instructions | 3        |

```
      00 01 02 03 04 05 06 07  08 09 0A 0B 0C 0D 0E 0F
      -- -- -- -- -- -- -- --  -- -- -- -- -- -- -- --
0030:    B4 01 00 00 0A 80 B5  00 00 00 00               ...........    
```

#### Opcodes

```
  0: 0x0031 [0xB4] UI_WINDOW_STRING_HANDLER(case=0x01 - Copy string from event strings table, work_offset=ExtData[1]->WorkLocal[0], string_index=0*)
  1: 0x0037 [0xB5] SET_EVENT_ENTITY_NAME: Change EventEntity name to ExtData[1]->WorkLocal[0]
  2: 0x003B [0x00] END_REQSTACK()
```

### Event 65535.6

#### Metadata

| Field        | Value   |
|--------------|---------|
| Entrypoint   | 0x003C  |
| Data Size    | 5 bytes |
| Instructions | 2       |

```
      00 01 02 03 04 05 06 07  08 09 0A 0B 0C 0D 0E 0F
      -- -- -- -- -- -- -- --  -- -- -- -- -- -- -- --
0030:                                      B6 00 04 10              ....
0040: 00                                                .               
```

#### Opcodes

```
  0: 0x003C [0xB6] ENTITY_APPEARANCE_HANDLER(case=Hair style, value=Work_Zone[4])
  1: 0x0040 [0x00] END_REQSTACK()
```

### Event 65535.7

#### Metadata

| Field        | Value    |
|--------------|----------|
| Entrypoint   | 0x0041   |
| Data Size    | 15 bytes |
| Instructions | 3        |

```
      00 01 02 03 04 05 06 07  08 09 0A 0B 0C 0D 0E 0F
      -- -- -- -- -- -- -- --  -- -- -- -- -- -- -- --
0040:    37 0B 80 0C 80 08 80  0D 80 80 F8 FF FF 7F 00   7..............
```

#### Opcodes

```
  0: 0x0041 [0x37] UPDATE_EVENT_POSITION_AND_DIR: x=0.635*, z=-108.751*, y=1.548*, direction=6.7°*
  1: 0x004A [0x80] LOAD_WAIT(entity=EventEntity)
  2: 0x004F [0x00] END_REQSTACK()
```

### Event 65535.8

#### Metadata

| Field        | Value    |
|--------------|----------|
| Entrypoint   | 0x0050   |
| Data Size    | 19 bytes |
| Instructions | 5        |

```
      00 01 02 03 04 05 06 07  08 09 0A 0B 0C 0D 0E 0F
      -- -- -- -- -- -- -- --  -- -- -- -- -- -- -- --
0050: 32 0E 80 1F 00 0F 80 10  80 08 80 1F 01 1E F0 FF  2...............
0060: FF 7F 00                                          ...             
```

#### Opcodes

```
  0: 0x0050 [0x32] ExtData[1]->MainSpeed = 80* * 0.1
  1: 0x0053 [0x1F] MOVE_ENTITY: EventEntity moves to X=3.857*, Z=-108.234*, Y=1.548*
  2: 0x005B [0x1F] MOVE_ENTITY: Update entity position (mode=1)
  3: 0x005D [0x1E] EventEntity looks at LocalPlayer and starts talking
  4: 0x0062 [0x00] END_REQSTACK()
```

### Event 65535.9

#### Metadata

| Field        | Value   |
|--------------|---------|
| Entrypoint   | 0x0063  |
| Data Size    | 3 bytes |
| Instructions | 2       |

```
      00 01 02 03 04 05 06 07  08 09 0A 0B 0C 0D 0E 0F
      -- -- -- -- -- -- -- --  -- -- -- -- -- -- -- --
0060:          33 00 00                                    3..          
```

#### Opcodes

```
  0: 0x0063 [0x33] EventEntity->Render.Flags0 &= ~ 0x200000 // Bit 21 (flag=0x00)
  1: 0x0065 [0x00] END_REQSTACK()
```

### Event 65535.10

#### Metadata

| Field        | Value    |
|--------------|----------|
| Entrypoint   | 0x0066   |
| Data Size    | 17 bytes |
| Instructions | 4        |

```
      00 01 02 03 04 05 06 07  08 09 0A 0B 0C 0D 0E 0F
      -- -- -- -- -- -- -- --  -- -- -- -- -- -- -- --
0060:                   33 01  37 11 80 12 80 13 80 14        3.7.......
0070: 80 80 F8 FF FF 7F 00                              .......         
```

#### Opcodes

```
  0: 0x0066 [0x33] EventEntity->Render.Flags0 |= 0x200000 // Bit 21 (flag=0x01)
  1: 0x0068 [0x37] UPDATE_EVENT_POSITION_AND_DIR: x=1.963*, z=-67.610*, y=0.699*, direction=169.4°*
  2: 0x0071 [0x80] LOAD_WAIT(entity=EventEntity)
  3: 0x0076 [0x00] END_REQSTACK()
```

### Event 65535.11

#### Metadata

| Field        | Value     |
|--------------|-----------|
| Entrypoint   | 0x0077    |
| Data Size    | 174 bytes |
| Instructions | 24        |

```
      00 01 02 03 04 05 06 07  08 09 0A 0B 0C 0D 0E 0F
      -- -- -- -- -- -- -- --  -- -- -- -- -- -- -- --
0070:                      1C  15 80 45 16 80 F8 FF FF         ...E.....
0080: 7F F8 FF FF 7F 73 31 36  39 0A 80 32 17 80 1F 00  .....s169..2....
0090: 18 80 19 80 13 80 1F 01  1C 1A 80 5B 1B 80 13 61  ...........[...a
00A0: 0E 01 13 61 0E 01 68 69  30 39 1C 1C 80 45 16 80  ...a..hi09...E..
00B0: F8 FF FF 7F F8 FF FF 7F  73 31 36 39 0A 80 1F 00  ........s169....
00C0: 1D 80 1E 80 13 80 1F 01  1F 00 1F 80 20 80 13 80  ............ ...
00D0: 1F 01 45 16 80 F8 FF FF  7F F8 FF FF 7F 73 31 36  ..E..........s16
00E0: 39 0A 80 1F 00 21 80 22  80 13 80 1F 01 4A 12 61  9....!.".....J.a
00F0: 0E 01 13 61 0E 01 4B 13  61 0E 01 23 80 1C 15 80  ...a..K.a..#....
0100: 5B 1B 80 13 61 0E 01 13  61 0E 01 68 69 30 37 1C  [...a...a..hi07.
0110: 1A 80 5B 24 80 13 61 0E  01 13 61 0E 01 31 30 30  ..[$..a...a..100
0120: 35 1C 1C 80 00                                    5....           
```

#### Opcodes

```
  0: 0x0077 [0x1C] WAIT(30* ticks)
  1: 0x007A [0x45] LOAD_SCHEDULED_TASK: Load scheduler "s169" with entities [EventEntity, EventEntity], work=[198*, 0*]
  2: 0x008B [0x32] ExtData[1]->MainSpeed = 10* * 0.1
  3: 0x008E [0x1F] MOVE_ENTITY: EventEntity moves to X=-0.605*, Z=-67.855*, Y=0.699*
  4: 0x0096 [0x1F] MOVE_ENTITY: Update entity position (mode=1)
  5: 0x0098 [0x1C] WAIT(5* ticks)
  6: 0x009B [0x5B] LOAD_EXT_SCHEDULER: Load scheduler "hi09" with entities [Unnamed NPC (ID: 17719571/0x010E6113), Unnamed NPC (ID: 17719571/0x010E6113)], work=872*
  7: 0x00AA [0x1C] WAIT(120* ticks)
  8: 0x00AD [0x45] LOAD_SCHEDULED_TASK: Load scheduler "s169" with entities [EventEntity, EventEntity], work=[198*, 0*]
  9: 0x00BE [0x1F] MOVE_ENTITY: EventEntity moves to X=0.762*, Z=-67.829*, Y=0.699*
 10: 0x00C6 [0x1F] MOVE_ENTITY: Update entity position (mode=1)
 11: 0x00C8 [0x1F] MOVE_ENTITY: EventEntity moves to X=0.687*, Z=-66.111*, Y=0.699*
 12: 0x00D0 [0x1F] MOVE_ENTITY: Update entity position (mode=1)
 13: 0x00D2 [0x45] LOAD_SCHEDULED_TASK: Load scheduler "s169" with entities [EventEntity, EventEntity], work=[198*, 0*]
 14: 0x00E3 [0x1F] MOVE_ENTITY: EventEntity moves to X=-1.638*, Z=-65.584*, Y=0.699*
 15: 0x00EB [0x1F] MOVE_ENTITY: Update entity position (mode=1)
 16: 0x00ED [0x4A] Hantileon (ID: 17719570/0x010E6112) looks at Unnamed NPC (ID: 17719571/0x010E6113)
 17: 0x00F6 [0x4B] UPDATE_ENTITY_YAW(entity=Unnamed NPC (ID: 17719571/0x010E6113), yaw=6.3°*)
 18: 0x00FD [0x1C] WAIT(30* ticks)
 19: 0x0100 [0x5B] LOAD_EXT_SCHEDULER: Load scheduler "hi07" with entities [Unnamed NPC (ID: 17719571/0x010E6113), Unnamed NPC (ID: 17719571/0x010E6113)], work=872*
 20: 0x010F [0x1C] WAIT(5* ticks)
 21: 0x0112 [0x5B] LOAD_EXT_SCHEDULER: Load scheduler "1005" with entities [Unnamed NPC (ID: 17719571/0x010E6113), Unnamed NPC (ID: 17719571/0x010E6113)], work=224*
 22: 0x0121 [0x1C] WAIT(120* ticks)
 23: 0x0124 [0x00] END_REQSTACK()
```

### Event 65535.12

#### Metadata

| Field        | Value    |
|--------------|----------|
| Entrypoint   | 0x0125   |
| Data Size    | 15 bytes |
| Instructions | 3        |

```
      00 01 02 03 04 05 06 07  08 09 0A 0B 0C 0D 0E 0F
      -- -- -- -- -- -- -- --  -- -- -- -- -- -- -- --
0120:                37 25 80  26 80 27 80 28 80 80 F8       7%.&.'.(...
0130: FF FF 7F 00                                       ....            
```

#### Opcodes

```
  0: 0x0125 [0x37] UPDATE_EVENT_POSITION_AND_DIR: x=-11.127*, z=-16.307*, y=1.999*, direction=47.5°*
  1: 0x012E [0x80] LOAD_WAIT(entity=EventEntity)
  2: 0x0133 [0x00] END_REQSTACK()
```

### Event 65535.13

#### Metadata

| Field        | Value    |
|--------------|----------|
| Entrypoint   | 0x0134   |
| Data Size    | 27 bytes |
| Instructions | 7        |

```
      00 01 02 03 04 05 06 07  08 09 0A 0B 0C 0D 0E 0F
      -- -- -- -- -- -- -- --  -- -- -- -- -- -- -- --
0130:             1C 15 80 32  29 80 1F 00 2A 80 2B 80      ...2)...*.+.
0140: 27 80 1F 01 4B 13 61 0E  01 2C 80 1C 15 80 00     '...K.a..,..... 
```

#### Opcodes

```
  0: 0x0134 [0x1C] WAIT(30* ticks)
  1: 0x0137 [0x32] ExtData[1]->MainSpeed = 19* * 0.1
  2: 0x013A [0x1F] MOVE_ENTITY: EventEntity moves to X=-19.434*, Z=-19.218*, Y=1.999*
  3: 0x0142 [0x1F] MOVE_ENTITY: Update entity position (mode=1)
  4: 0x0144 [0x4B] UPDATE_ENTITY_YAW(entity=Unnamed NPC (ID: 17719571/0x010E6113), yaw=13.4°*)
  5: 0x014B [0x1C] WAIT(30* ticks)
  6: 0x014E [0x00] END_REQSTACK()
```

### Event 65535.14

#### Metadata

| Field        | Value    |
|--------------|----------|
| Entrypoint   | 0x014F   |
| Data Size    | 10 bytes |
| Instructions | 2        |

```
      00 01 02 03 04 05 06 07  08 09 0A 0B 0C 0D 0E 0F
      -- -- -- -- -- -- -- --  -- -- -- -- -- -- -- --
0140:                                               37                 7
0150: 2D 80 2E 80 2F 80 30 80  00                       -.../.0..       
```

#### Opcodes

```
  0: 0x014F [0x37] UPDATE_EVENT_POSITION_AND_DIR: x=6.513*, z=-89.216*, y=2.199*, direction=151.3°*
  1: 0x0158 [0x00] END_REQSTACK()
```

### Event 65535.15

#### Metadata

| Field        | Value     |
|--------------|-----------|
| Entrypoint   | 0x0159    |
| Data Size    | 121 bytes |
| Instructions | 24        |

```
      00 01 02 03 04 05 06 07  08 09 0A 0B 0C 0D 0E 0F
      -- -- -- -- -- -- -- --  -- -- -- -- -- -- -- --
0150:                             32 31 80 1F 00 32 80           21...2.
0160: 33 80 2F 80 1F 01 1F 00  34 80 35 80 2F 80 1F 01  3./.....4.5./...
0170: 1F 00 36 80 37 80 2F 80  1F 01 1F 00 38 80 39 80  ..6.7./.....8.9.
0180: 2F 80 1F 01 1F 00 2D 80  2E 80 2F 80 1F 01 1F 00  /.....-.../.....
0190: 3A 80 3B 80 2F 80 1F 01  1F 00 3C 80 3D 80 2F 80  :.;./.....<.=./.
01A0: 1F 01 1F 00 3E 80 3F 80  2F 80 1F 01 1F 00 40 80  ....>.?./.....@.
01B0: 41 80 2F 80 1F 01 02 4D  10 0A 80 00 C8 01 27 05  A./....M......'.
01C0: 13 61 0E 01 12 01 D1 01  37 0A 80 0A 80 0A 80 0A  .a......7.......
01D0: 80 00                                             ..              
```

#### Opcodes

```
  0: 0x0159 [0x32] ExtData[1]->MainSpeed = 57* * 0.1
  1: 0x015C [0x1F] MOVE_ENTITY: EventEntity moves to X=22.152*, Z=-95.901*, Y=2.199*
  2: 0x0164 [0x1F] MOVE_ENTITY: Update entity position (mode=1)
  3: 0x0166 [0x1F] MOVE_ENTITY: EventEntity moves to X=23.034*, Z=-92.413*, Y=2.199*
  4: 0x016E [0x1F] MOVE_ENTITY: Update entity position (mode=1)
  5: 0x0170 [0x1F] MOVE_ENTITY: EventEntity moves to X=8.394*, Z=-88.334*, Y=2.199*
  6: 0x0178 [0x1F] MOVE_ENTITY: Update entity position (mode=1)
  7: 0x017A [0x1F] MOVE_ENTITY: EventEntity moves to X=6.666*, Z=-88.536*, Y=2.199*
  8: 0x0182 [0x1F] MOVE_ENTITY: Update entity position (mode=1)
  9: 0x0184 [0x1F] MOVE_ENTITY: EventEntity moves to X=6.513*, Z=-89.216*, Y=2.199*
 10: 0x018C [0x1F] MOVE_ENTITY: Update entity position (mode=1)
 11: 0x018E [0x1F] MOVE_ENTITY: EventEntity moves to X=8.940*, Z=-91.557*, Y=2.199*
 12: 0x0196 [0x1F] MOVE_ENTITY: Update entity position (mode=1)
 13: 0x0198 [0x1F] MOVE_ENTITY: EventEntity moves to X=11.390*, Z=-92.475*, Y=2.199*
 14: 0x01A0 [0x1F] MOVE_ENTITY: Update entity position (mode=1)
 15: 0x01A2 [0x1F] MOVE_ENTITY: EventEntity moves to X=16.072*, Z=-94.058*, Y=2.199*
 16: 0x01AA [0x1F] MOVE_ENTITY: Update entity position (mode=1)
 17: 0x01AC [0x1F] MOVE_ENTITY: EventEntity moves to X=19.806*, Z=-95.324*, Y=2.199*
 18: 0x01B4 [0x1F] MOVE_ENTITY: Update entity position (mode=1)
 19: 0x01B6 [0x02] IF !(Work_Zone[77] == 0*) GOTO 0x01C8
 20: 0x01BE [0x27] REQ_SET(priority=0x05, entity_id=Unnamed NPC (ID: 17719571/0x010E6113), tag_num=0x12)
 21: 0x01C5 [0x01] GOTO 0x01D1
 22: 0x01C8 [0x37] UPDATE_EVENT_POSITION_AND_DIR: x=0.000*, z=0.000*, y=0.000*, direction=0.0°*

SUBROUTINE_01D1:
 23: 0x01D1 [0x00] END_REQSTACK()
```

### Event 65535.16

#### Metadata

| Field        | Value     |
|--------------|-----------|
| Entrypoint   | 0x01D2    |
| Data Size    | 121 bytes |
| Instructions | 24        |

```
      00 01 02 03 04 05 06 07  08 09 0A 0B 0C 0D 0E 0F
      -- -- -- -- -- -- -- --  -- -- -- -- -- -- -- --
01D0:       32 31 80 1F 00 32  80 33 80 2F 80 1F 01 1F    21...2.3./....
01E0: 00 34 80 35 80 2F 80 1F  01 1F 00 36 80 37 80 2F  .4.5./.....6.7./
01F0: 80 1F 01 1F 00 38 80 39  80 2F 80 1F 01 1F 00 2D  .....8.9./.....-
0200: 80 2E 80 2F 80 1F 01 1F  00 3A 80 3B 80 2F 80 1F  .../.....:.;./..
0210: 01 1F 00 3C 80 3D 80 2F  80 1F 01 1F 00 3E 80 3F  ...<.=./.....>.?
0220: 80 2F 80 1F 01 1F 00 40  80 41 80 2F 80 1F 01 02  ./.....@.A./....
0230: 4D 10 0A 80 00 41 02 27  05 13 61 0E 01 11 01 4A  M....A.'..a....J
0240: 02 37 0A 80 0A 80 0A 80  0A 80 00                 .7.........     
```

#### Opcodes

```
  0: 0x01D2 [0x32] ExtData[1]->MainSpeed = 57* * 0.1
  1: 0x01D5 [0x1F] MOVE_ENTITY: EventEntity moves to X=22.152*, Z=-95.901*, Y=2.199*
  2: 0x01DD [0x1F] MOVE_ENTITY: Update entity position (mode=1)
  3: 0x01DF [0x1F] MOVE_ENTITY: EventEntity moves to X=23.034*, Z=-92.413*, Y=2.199*
  4: 0x01E7 [0x1F] MOVE_ENTITY: Update entity position (mode=1)
  5: 0x01E9 [0x1F] MOVE_ENTITY: EventEntity moves to X=8.394*, Z=-88.334*, Y=2.199*
  6: 0x01F1 [0x1F] MOVE_ENTITY: Update entity position (mode=1)
  7: 0x01F3 [0x1F] MOVE_ENTITY: EventEntity moves to X=6.666*, Z=-88.536*, Y=2.199*
  8: 0x01FB [0x1F] MOVE_ENTITY: Update entity position (mode=1)
  9: 0x01FD [0x1F] MOVE_ENTITY: EventEntity moves to X=6.513*, Z=-89.216*, Y=2.199*
 10: 0x0205 [0x1F] MOVE_ENTITY: Update entity position (mode=1)
 11: 0x0207 [0x1F] MOVE_ENTITY: EventEntity moves to X=8.940*, Z=-91.557*, Y=2.199*
 12: 0x020F [0x1F] MOVE_ENTITY: Update entity position (mode=1)
 13: 0x0211 [0x1F] MOVE_ENTITY: EventEntity moves to X=11.390*, Z=-92.475*, Y=2.199*
 14: 0x0219 [0x1F] MOVE_ENTITY: Update entity position (mode=1)
 15: 0x021B [0x1F] MOVE_ENTITY: EventEntity moves to X=16.072*, Z=-94.058*, Y=2.199*
 16: 0x0223 [0x1F] MOVE_ENTITY: Update entity position (mode=1)
 17: 0x0225 [0x1F] MOVE_ENTITY: EventEntity moves to X=19.806*, Z=-95.324*, Y=2.199*
 18: 0x022D [0x1F] MOVE_ENTITY: Update entity position (mode=1)
 19: 0x022F [0x02] IF !(Work_Zone[77] == 0*) GOTO 0x0241
 20: 0x0237 [0x27] REQ_SET(priority=0x05, entity_id=Unnamed NPC (ID: 17719571/0x010E6113), tag_num=0x11)
 21: 0x023E [0x01] GOTO 0x024A
 22: 0x0241 [0x37] UPDATE_EVENT_POSITION_AND_DIR: x=0.000*, z=0.000*, y=0.000*, direction=0.0°*

SUBROUTINE_024A:
 23: 0x024A [0x00] END_REQSTACK()
```

### Event 65535.17

#### Metadata

| Field        | Value    |
|--------------|----------|
| Entrypoint   | 0x024B   |
| Data Size    | 15 bytes |
| Instructions | 3        |

```
      00 01 02 03 04 05 06 07  08 09 0A 0B 0C 0D 0E 0F
      -- -- -- -- -- -- -- --  -- -- -- -- -- -- -- --
0240:                                   37 42 80 43 80             7B.C.
0250: 27 80 44 80 80 F8 FF FF  7F 00                    '.D.......      
```

#### Opcodes

```
  0: 0x024B [0x37] UPDATE_EVENT_POSITION_AND_DIR: x=-27.558*, z=-94.756*, y=1.999*, direction=81.3°*
  1: 0x0254 [0x80] LOAD_WAIT(entity=EventEntity)
  2: 0x0259 [0x00] END_REQSTACK()
```

### Event 65535.18

#### Metadata

| Field        | Value    |
|--------------|----------|
| Entrypoint   | 0x025A   |
| Data Size    | 48 bytes |
| Instructions | 9        |

```
      00 01 02 03 04 05 06 07  08 09 0A 0B 0C 0D 0E 0F
      -- -- -- -- -- -- -- --  -- -- -- -- -- -- -- --
0250:                                32 31 80 1F 00 45            21...E
0260: 80 46 80 27 80 1F 01 33  01 37 47 80 48 80 49 80  .F.'...3.7G.H.I.
0270: 4A 80 80 F8 FF FF 7F 1C  1A 80 5B 4B 80 13 61 0E  J.........[K..a.
0280: 01 13 61 0E 01 73 6C 70  30 00                    ..a..slp0.      
```

#### Opcodes

```
  0: 0x025A [0x32] ExtData[1]->MainSpeed = 57* * 0.1
  1: 0x025D [0x1F] MOVE_ENTITY: EventEntity moves to X=-25.035*, Z=-88.543*, Y=1.999*
  2: 0x0265 [0x1F] MOVE_ENTITY: Update entity position (mode=1)
  3: 0x0267 [0x33] EventEntity->Render.Flags0 |= 0x200000 // Bit 21 (flag=0x01)
  4: 0x0269 [0x37] UPDATE_EVENT_POSITION_AND_DIR: x=4.206*, z=-97.531*, y=1.500*, direction=110.7°*
  5: 0x0272 [0x80] LOAD_WAIT(entity=EventEntity)
  6: 0x0277 [0x1C] WAIT(5* ticks)
  7: 0x027A [0x5B] LOAD_EXT_SCHEDULER: Load scheduler "slp0" with entities [Unnamed NPC (ID: 17719571/0x010E6113), Unnamed NPC (ID: 17719571/0x010E6113)], work=875*
  8: 0x0289 [0x00] END_REQSTACK()
```

### Event 65535.19

#### Metadata

| Field        | Value    |
|--------------|----------|
| Entrypoint   | 0x028A   |
| Data Size    | 15 bytes |
| Instructions | 3        |

```
      00 01 02 03 04 05 06 07  08 09 0A 0B 0C 0D 0E 0F
      -- -- -- -- -- -- -- --  -- -- -- -- -- -- -- --
0280:                                37 4C 80 4D 80 2F            7L.M./
0290: 80 4E 80 80 F8 FF FF 7F  00                       .N.......       
```

#### Opcodes

```
  0: 0x028A [0x37] UPDATE_EVENT_POSITION_AND_DIR: x=12.690*, z=-100.213*, y=2.199*, direction=181.6°*
  1: 0x0293 [0x80] LOAD_WAIT(entity=EventEntity)
  2: 0x0298 [0x00] END_REQSTACK()
```

### Event 65535.20

#### Metadata

| Field        | Value     |
|--------------|-----------|
| Entrypoint   | 0x0299    |
| Data Size    | 204 bytes |
| Instructions | 34        |

```
      00 01 02 03 04 05 06 07  08 09 0A 0B 0C 0D 0E 0F
      -- -- -- -- -- -- -- --  -- -- -- -- -- -- -- --
0290:                             2A 05 14 61 0E 01 2A           *..a..*
02A0: 0F 15 61 0E 01 2A 14 16  61 0E 01 2A 19 17 61 0E  ..a..*..a..*..a.
02B0: 01 4B 13 61 0E 01 4F 80  1C 50 80 4B 13 61 0E 01  .K.a..O..P.K.a..
02C0: 4E 80 29 05 14 61 0E 01  0B 29 05 15 61 0E 01 0A  N.)..a...)..a...
02D0: 29 05 16 61 0E 01 0A 29  05 17 61 0E 01 0A 4B 13  )..a...)..a...K.
02E0: 61 0E 01 4F 80 1C 50 80  4B 13 61 0E 01 4E 80 29  a..O..P.K.a..N.)
02F0: 05 14 61 0E 01 0C 29 05  15 61 0E 01 0B 29 05 16  ..a...)..a...)..
0300: 61 0E 01 0B 29 05 17 61  0E 01 0B 4B 13 61 0E 01  a...)..a...K.a..
0310: 4F 80 1C 50 80 4B 13 61  0E 01 4E 80 29 05 14 61  O..P.K.a..N.)..a
0320: 0E 01 0C 29 05 15 61 0E  01 0C 29 05 16 61 0E 01  ...)..a...)..a..
0330: 0C 29 05 17 61 0E 01 0C  27 05 17 61 0E 01 0D 27  .)..a...'..a...'
0340: 0F 16 61 0E 01 0D 27 14  15 61 0E 01 0D 27 19 14  ..a...'..a...'..
0350: 61 0E 01 0E 1C 15 80 32  31 80 1F 00 51 80 52 80  a......21...Q.R.
0360: 2F 80 1F 01 00                                    /....           
```

#### Opcodes

```
  0: 0x0299 [0x2A] GET_REQ_LEVEL(level=5, entity_id=Unnamed NPC (ID: 17719572/0x010E6114))
  1: 0x029F [0x2A] GET_REQ_LEVEL(level=15, entity_id=Unnamed NPC (ID: 17719573/0x010E6115))
  2: 0x02A5 [0x2A] GET_REQ_LEVEL(level=20, entity_id=Unnamed NPC (ID: 17719574/0x010E6116))
  3: 0x02AB [0x2A] GET_REQ_LEVEL(level=25, entity_id=Unnamed NPC (ID: 17719575/0x010E6117))
  4: 0x02B1 [0x4B] UPDATE_ENTITY_YAW(entity=Unnamed NPC (ID: 17719571/0x010E6113), yaw=0.4°*)
  5: 0x02B8 [0x1C] WAIT(60* ticks)
  6: 0x02BB [0x4B] UPDATE_ENTITY_YAW(entity=Unnamed NPC (ID: 17719571/0x010E6113), yaw=11.3°*)
  7: 0x02C2 [0x29] REQ_SET_WAIT(priority=0x05, entity_id=Unnamed NPC (ID: 17719572/0x010E6114), tag_num=0x0B)
  8: 0x02C9 [0x29] REQ_SET_WAIT(priority=0x05, entity_id=Unnamed NPC (ID: 17719573/0x010E6115), tag_num=0x0A)
  9: 0x02D0 [0x29] REQ_SET_WAIT(priority=0x05, entity_id=Unnamed NPC (ID: 17719574/0x010E6116), tag_num=0x0A)
 10: 0x02D7 [0x29] REQ_SET_WAIT(priority=0x05, entity_id=Unnamed NPC (ID: 17719575/0x010E6117), tag_num=0x0A)
 11: 0x02DE [0x4B] UPDATE_ENTITY_YAW(entity=Unnamed NPC (ID: 17719571/0x010E6113), yaw=0.4°*)
 12: 0x02E5 [0x1C] WAIT(60* ticks)
 13: 0x02E8 [0x4B] UPDATE_ENTITY_YAW(entity=Unnamed NPC (ID: 17719571/0x010E6113), yaw=11.3°*)
 14: 0x02EF [0x29] REQ_SET_WAIT(priority=0x05, entity_id=Unnamed NPC (ID: 17719572/0x010E6114), tag_num=0x0C)
 15: 0x02F6 [0x29] REQ_SET_WAIT(priority=0x05, entity_id=Unnamed NPC (ID: 17719573/0x010E6115), tag_num=0x0B)
 16: 0x02FD [0x29] REQ_SET_WAIT(priority=0x05, entity_id=Unnamed NPC (ID: 17719574/0x010E6116), tag_num=0x0B)
 17: 0x0304 [0x29] REQ_SET_WAIT(priority=0x05, entity_id=Unnamed NPC (ID: 17719575/0x010E6117), tag_num=0x0B)
 18: 0x030B [0x4B] UPDATE_ENTITY_YAW(entity=Unnamed NPC (ID: 17719571/0x010E6113), yaw=0.4°*)
 19: 0x0312 [0x1C] WAIT(60* ticks)
 20: 0x0315 [0x4B] UPDATE_ENTITY_YAW(entity=Unnamed NPC (ID: 17719571/0x010E6113), yaw=11.3°*)
 21: 0x031C [0x29] REQ_SET_WAIT(priority=0x05, entity_id=Unnamed NPC (ID: 17719572/0x010E6114), tag_num=0x0C)
 22: 0x0323 [0x29] REQ_SET_WAIT(priority=0x05, entity_id=Unnamed NPC (ID: 17719573/0x010E6115), tag_num=0x0C)
 23: 0x032A [0x29] REQ_SET_WAIT(priority=0x05, entity_id=Unnamed NPC (ID: 17719574/0x010E6116), tag_num=0x0C)
 24: 0x0331 [0x29] REQ_SET_WAIT(priority=0x05, entity_id=Unnamed NPC (ID: 17719575/0x010E6117), tag_num=0x0C)
 25: 0x0338 [0x27] REQ_SET(priority=0x05, entity_id=Unnamed NPC (ID: 17719575/0x010E6117), tag_num=0x0D)
 26: 0x033F [0x27] REQ_SET(priority=0x0F, entity_id=Unnamed NPC (ID: 17719574/0x010E6116), tag_num=0x0D)
 27: 0x0346 [0x27] REQ_SET(priority=0x14, entity_id=Unnamed NPC (ID: 17719573/0x010E6115), tag_num=0x0D)
 28: 0x034D [0x27] REQ_SET(priority=0x19, entity_id=Unnamed NPC (ID: 17719572/0x010E6114), tag_num=0x0E)
 29: 0x0354 [0x1C] WAIT(30* ticks)
 30: 0x0357 [0x32] ExtData[1]->MainSpeed = 57* * 0.1
 31: 0x035A [0x1F] MOVE_ENTITY: EventEntity moves to X=14.386*, Z=-90.930*, Y=2.199*
 32: 0x0362 [0x1F] MOVE_ENTITY: Update entity position (mode=1)
 33: 0x0364 [0x00] END_REQSTACK()
```

### Event 65535.21

#### Metadata

| Field        | Value    |
|--------------|----------|
| Entrypoint   | 0x0365   |
| Data Size    | 15 bytes |
| Instructions | 3        |

```
      00 01 02 03 04 05 06 07  08 09 0A 0B 0C 0D 0E 0F
      -- -- -- -- -- -- -- --  -- -- -- -- -- -- -- --
0360:                37 53 80  54 80 55 80 56 80 80 F8       7S.T.U.V...
0370: FF FF 7F 00                                       ....            
```

#### Opcodes

```
  0: 0x0365 [0x37] UPDATE_EVENT_POSITION_AND_DIR: x=0.399*, z=-26.250*, y=1.699*, direction=90.6°*
  1: 0x036E [0x80] LOAD_WAIT(entity=EventEntity)
  2: 0x0373 [0x00] END_REQSTACK()
```

### Event 65535.22

#### Metadata

| Field        | Value    |
|--------------|----------|
| Entrypoint   | 0x0374   |
| Data Size    | 76 bytes |
| Instructions | 12       |

```
      00 01 02 03 04 05 06 07  08 09 0A 0B 0C 0D 0E 0F
      -- -- -- -- -- -- -- --  -- -- -- -- -- -- -- --
0370:             32 31 80 1F  00 57 80 58 80 55 80 1F      21...W.X.U..
0380: 01 37 59 80 5A 80 5B 80  5C 80 80 F8 FF FF 7F 1C  .7Y.Z.[.\.......
0390: 50 80 52 5D 80 F0 FF FF  7F F0 FF FF 7F 73 31 36  P.R].........s16
03A0: 38 45 5D 80 F0 FF FF 7F  F0 FF FF 7F 73 31 36 39  8E].........s169
03B0: 0A 80 32 31 80 1F 00 5E  80 5F 80 5B 80 1F 01 00  ..21...^._.[....
```

#### Opcodes

```
  0: 0x0374 [0x32] ExtData[1]->MainSpeed = 57* * 0.1
  1: 0x0377 [0x1F] MOVE_ENTITY: EventEntity moves to X=-5.177*, Z=-25.878*, Y=1.699*
  2: 0x037F [0x1F] MOVE_ENTITY: Update entity position (mode=1)
  3: 0x0381 [0x37] UPDATE_EVENT_POSITION_AND_DIR: x=-133.885*, z=14.388*, y=-1.999*, direction=185.9°*
  4: 0x038A [0x80] LOAD_WAIT(entity=EventEntity)
  5: 0x038F [0x1C] WAIT(60* ticks)
  6: 0x0392 [0x52] END_LOAD_SCHEDULER: End scheduler "s168" with entities [LocalPlayer, LocalPlayer], work=254*
  7: 0x03A1 [0x45] LOAD_SCHEDULED_TASK: Load scheduler "s169" with entities [LocalPlayer, LocalPlayer], work=[254*, 0*]
  8: 0x03B2 [0x32] ExtData[1]->MainSpeed = 57* * 0.1
  9: 0x03B5 [0x1F] MOVE_ENTITY: EventEntity moves to X=-138.474*, Z=15.145*, Y=-1.999*
 10: 0x03BD [0x1F] MOVE_ENTITY: Update entity position (mode=1)
 11: 0x03BF [0x00] END_REQSTACK()
```

### Event 65535.23

#### Metadata

| Field        | Value    |
|--------------|----------|
| Entrypoint   | 0x03C0   |
| Data Size    | 14 bytes |
| Instructions | 4        |

```
      00 01 02 03 04 05 06 07  08 09 0A 0B 0C 0D 0E 0F
      -- -- -- -- -- -- -- --  -- -- -- -- -- -- -- --
03C0: 32 31 80 1F 00 59 80 5A  80 5B 80 1F 01 00        21...Y.Z.[....  
```

#### Opcodes

```
  0: 0x03C0 [0x32] ExtData[1]->MainSpeed = 57* * 0.1
  1: 0x03C3 [0x1F] MOVE_ENTITY: EventEntity moves to X=-133.885*, Z=14.388*, Y=-1.999*
  2: 0x03CB [0x1F] MOVE_ENTITY: Update entity position (mode=1)
  3: 0x03CD [0x00] END_REQSTACK()
```

### Event 65535.24

#### Metadata

| Field        | Value    |
|--------------|----------|
| Entrypoint   | 0x03CE   |
| Data Size    | 10 bytes |
| Instructions | 2        |

```
      00 01 02 03 04 05 06 07  08 09 0A 0B 0C 0D 0E 0F
      -- -- -- -- -- -- -- --  -- -- -- -- -- -- -- --
03C0:                                            37 60                7`
03D0: 80 61 80 62 80 63 80 00                           .a.b.c..        
```

#### Opcodes

```
  0: 0x03CE [0x37] UPDATE_EVENT_POSITION_AND_DIR: x=-224.418*, z=323.244*, y=-59.954*, direction=160.4°*
  1: 0x03D7 [0x00] END_REQSTACK()
```

### Event 65535.25

#### Metadata

| Field        | Value    |
|--------------|----------|
| Entrypoint   | 0x03D8   |
| Data Size    | 64 bytes |
| Instructions | 10       |

```
      00 01 02 03 04 05 06 07  08 09 0A 0B 0C 0D 0E 0F
      -- -- -- -- -- -- -- --  -- -- -- -- -- -- -- --
03D0:                          32 17 80 5A 00 64 80 65          2..Z.d.e
03E0: 80 66 80 5A 01 4A F0 FF  FF 7F 13 61 0E 01 1E F0  .f.Z.J.....a....
03F0: FF FF 7F 1C 15 80 5B 1B  80 13 61 0E 01 13 61 0E  ......[...a...a.
0400: 01 68 69 30 37 1C 1A 80  5B 24 80 13 61 0E 01 13  .hi07...[$..a...
0410: 61 0E 01 31 30 30 35 00                           a..1005.        
```

#### Opcodes

```
  0: 0x03D8 [0x32] ExtData[1]->MainSpeed = 10* * 0.1
  1: 0x03DB [0x5A] UPDATE_EVENT_POSITION: Set EventEntity MovePosition to X=-226.999*, Z=323.999*, Y=-59.643*
  2: 0x03E3 [0x5A] UPDATE_EVENT_POSITION: Move EventEntity incrementally towards MovePosition
  3: 0x03E5 [0x4A] LocalPlayer looks at Unnamed NPC (ID: 17719571/0x010E6113)
  4: 0x03EE [0x1E] EventEntity looks at LocalPlayer and starts talking
  5: 0x03F3 [0x1C] WAIT(30* ticks)
  6: 0x03F6 [0x5B] LOAD_EXT_SCHEDULER: Load scheduler "hi07" with entities [Unnamed NPC (ID: 17719571/0x010E6113), Unnamed NPC (ID: 17719571/0x010E6113)], work=872*
  7: 0x0405 [0x1C] WAIT(5* ticks)
  8: 0x0408 [0x5B] LOAD_EXT_SCHEDULER: Load scheduler "1005" with entities [Unnamed NPC (ID: 17719571/0x010E6113), Unnamed NPC (ID: 17719571/0x010E6113)], work=224*
  9: 0x0417 [0x00] END_REQSTACK()
```

### Event 65535.26

#### Metadata

| Field        | Value    |
|--------------|----------|
| Entrypoint   | 0x0418   |
| Data Size    | 10 bytes |
| Instructions | 2        |

```
      00 01 02 03 04 05 06 07  08 09 0A 0B 0C 0D 0E 0F
      -- -- -- -- -- -- -- --  -- -- -- -- -- -- -- --
0410:                          37 67 80 68 80 69 80 6A          7g.h.i.j
0420: 80 00                                             ..              
```

#### Opcodes

```
  0: 0x0418 [0x37] UPDATE_EVENT_POSITION_AND_DIR: x=-386.992*, z=138.843*, y=-35.461*, direction=359.8°*
  1: 0x0421 [0x00] END_REQSTACK()
```

### Event 65535.27

#### Metadata

| Field        | Value    |
|--------------|----------|
| Entrypoint   | 0x0422   |
| Data Size    | 65 bytes |
| Instructions | 11       |

```
      00 01 02 03 04 05 06 07  08 09 0A 0B 0C 0D 0E 0F
      -- -- -- -- -- -- -- --  -- -- -- -- -- -- -- --
0420:       32 29 80 1F 00 6B  80 6C 80 6D 80 1F 01 4B    2)...k.l.m...K
0430: 13 61 0E 01 6E 80 1C 50  80 1E F0 FF FF 7F 1C 15  .a..n..P........
0440: 80 5B 4B 80 13 61 0E 01  13 61 0E 01 6B 75 65 30  .[K..a...a..kue0
0450: 1C 50 80 5B 24 80 13 61  0E 01 13 61 0E 01 31 30  .P.[$..a...a..10
0460: 30 39 00                                          09.             
```

#### Opcodes

```
  0: 0x0422 [0x32] ExtData[1]->MainSpeed = 19* * 0.1
  1: 0x0425 [0x1F] MOVE_ENTITY: EventEntity moves to X=-382.005*, Z=138.144*, Y=-35.867*
  2: 0x042D [0x1F] MOVE_ENTITY: Update entity position (mode=1)
  3: 0x042F [0x4B] UPDATE_ENTITY_YAW(entity=Unnamed NPC (ID: 17719571/0x010E6113), yaw=17.1°*)
  4: 0x0436 [0x1C] WAIT(60* ticks)
  5: 0x0439 [0x1E] EventEntity looks at LocalPlayer and starts talking
  6: 0x043E [0x1C] WAIT(30* ticks)
  7: 0x0441 [0x5B] LOAD_EXT_SCHEDULER: Load scheduler "kue0" with entities [Unnamed NPC (ID: 17719571/0x010E6113), Unnamed NPC (ID: 17719571/0x010E6113)], work=875*
  8: 0x0450 [0x1C] WAIT(60* ticks)
  9: 0x0453 [0x5B] LOAD_EXT_SCHEDULER: Load scheduler "1009" with entities [Unnamed NPC (ID: 17719571/0x010E6113), Unnamed NPC (ID: 17719571/0x010E6113)], work=224*
 10: 0x0462 [0x00] END_REQSTACK()
```

### Event 65535.28

#### Metadata

| Field        | Value    |
|--------------|----------|
| Entrypoint   | 0x0463   |
| Data Size    | 15 bytes |
| Instructions | 3        |

```
      00 01 02 03 04 05 06 07  08 09 0A 0B 0C 0D 0E 0F
      -- -- -- -- -- -- -- --  -- -- -- -- -- -- -- --
0460:          37 6F 80 70 80  71 80 72 80 80 F8 FF FF     7o.p.q.r.....
0470: 7F 00                                             ..              
```

#### Opcodes

```
  0: 0x0463 [0x37] UPDATE_EVENT_POSITION_AND_DIR: x=-678.814*, z=473.644*, y=16.040*, direction=80.0°*
  1: 0x046C [0x80] LOAD_WAIT(entity=EventEntity)
  2: 0x0471 [0x00] END_REQSTACK()
```

### Event 65535.29

#### Metadata

| Field        | Value    |
|--------------|----------|
| Entrypoint   | 0x0472   |
| Data Size    | 58 bytes |
| Instructions | 10       |

```
      00 01 02 03 04 05 06 07  08 09 0A 0B 0C 0D 0E 0F
      -- -- -- -- -- -- -- --  -- -- -- -- -- -- -- --
0470:       32 29 80 1F 00 73  80 74 80 75 80 1F 01 1C    2)...s.t.u....
0480: 15 80 1E F0 FF FF 7F 1C  15 80 5B 4B 80 13 61 0E  ..........[K..a.
0490: 01 13 61 0E 01 6B 75 65  30 1C 50 80 5B 24 80 13  ..a..kue0.P.[$..
04A0: 61 0E 01 13 61 0E 01 31  30 30 39 00              a...a..1009.    
```

#### Opcodes

```
  0: 0x0472 [0x32] ExtData[1]->MainSpeed = 19* * 0.1
  1: 0x0475 [0x1F] MOVE_ENTITY: EventEntity moves to X=-673.836*, Z=455.338*, Y=16.635*
  2: 0x047D [0x1F] MOVE_ENTITY: Update entity position (mode=1)
  3: 0x047F [0x1C] WAIT(30* ticks)
  4: 0x0482 [0x1E] EventEntity looks at LocalPlayer and starts talking
  5: 0x0487 [0x1C] WAIT(30* ticks)
  6: 0x048A [0x5B] LOAD_EXT_SCHEDULER: Load scheduler "kue0" with entities [Unnamed NPC (ID: 17719571/0x010E6113), Unnamed NPC (ID: 17719571/0x010E6113)], work=875*
  7: 0x0499 [0x1C] WAIT(60* ticks)
  8: 0x049C [0x5B] LOAD_EXT_SCHEDULER: Load scheduler "1009" with entities [Unnamed NPC (ID: 17719571/0x010E6113), Unnamed NPC (ID: 17719571/0x010E6113)], work=224*
  9: 0x04AB [0x00] END_REQSTACK()
```

### Event 65535.30

#### Metadata

| Field        | Value    |
|--------------|----------|
| Entrypoint   | 0x04AC   |
| Data Size    | 15 bytes |
| Instructions | 3        |

```
      00 01 02 03 04 05 06 07  08 09 0A 0B 0C 0D 0E 0F
      -- -- -- -- -- -- -- --  -- -- -- -- -- -- -- --
04A0:                                      37 76 80 77              7v.w
04B0: 80 27 80 78 80 80 F8 FF  FF 7F 00                 .'.x.......     
```

#### Opcodes

```
  0: 0x04AC [0x37] UPDATE_EVENT_POSITION_AND_DIR: x=27.096*, z=-70.629*, y=1.999*, direction=322.1°*
  1: 0x04B5 [0x80] LOAD_WAIT(entity=EventEntity)
  2: 0x04BA [0x00] END_REQSTACK()
```

### Event 65535.31

#### Metadata

| Field        | Value     |
|--------------|-----------|
| Entrypoint   | 0x04BB    |
| Data Size    | 307 bytes |
| Instructions | 41        |

```
      00 01 02 03 04 05 06 07  08 09 0A 0B 0C 0D 0E 0F
      -- -- -- -- -- -- -- --  -- -- -- -- -- -- -- --
04B0:                                   32 31 80 1F 00             21...
04C0: 79 80 7A 80 7B 80 1F 01  52 7C 80 F8 FF FF 7F F8  y.z.{...R|......
04D0: FF FF 7F 73 31 31 36 45  7C 80 F8 FF FF 7F F8 FF  ...s116E|.......
04E0: FF 7F 73 31 31 37 0A 80  27 05 F0 FF FF 7F 77 27  ..s117..'.....w'
04F0: 05 12 61 0E 01 26 27 05  2B 61 0E 01 08 27 05 2D  ..a..&'.+a...'.-
0500: 61 0E 01 08 27 05 2C 61  0E 01 08 1F 00 7D 80 7E  a...'.,a.....}.~
0510: 80 7F 80 1F 01 27 05 23  61 0E 01 0E 1F 00 80 80  .....'.#a.......
0520: 81 80 27 80 1F 01 52 7C  80 F8 FF FF 7F F8 FF FF  ..'...R|........
0530: 7F 73 31 31 37 45 7C 80  F8 FF FF 7F F8 FF FF 7F  .s117E|.........
0540: 73 31 31 38 0A 80 27 05  26 61 0E 01 05 1F 00 82  s118..'.&a......
0550: 80 83 80 27 80 1F 01 1F  00 84 80 85 80 27 80 1F  ...'.........'..
0560: 01 4A 29 61 0E 01 13 61  0E 01 1F 00 86 80 87 80  .J)a...a........
0570: 27 80 1F 01 27 05 27 61  0E 01 05 1F 00 88 80 89  '...'.'a........
0580: 80 27 80 1F 01 52 7C 80  F8 FF FF 7F F8 FF FF 7F  .'...R|.........
0590: 73 31 31 38 45 7C 80 F8  FF FF 7F F8 FF FF 7F 73  s118E|.........s
05A0: 31 31 39 0A 80 1F 00 8A  80 8B 80 7B 80 1F 01 1F  119........{....
05B0: 00 8C 80 8D 80 7B 80 1F  01 1F 00 8E 80 8F 80 7B  .....{.........{
05C0: 80 1F 01 52 7C 80 F8 FF  FF 7F F8 FF FF 7F 73 31  ...R|.........s1
05D0: 31 39 45 7C 80 F8 FF FF  7F F8 FF FF 7F 73 31 32  19E|.........s12
05E0: 30 0A 80 1F 00 90 80 91  80 27 80 1F 01 00        0........'....  
```

#### Opcodes

```
  0: 0x04BB [0x32] ExtData[1]->MainSpeed = 57* * 0.1
  1: 0x04BE [0x1F] MOVE_ENTITY: EventEntity moves to X=39.985*, Z=-56.308*, Y=2.003*
  2: 0x04C6 [0x1F] MOVE_ENTITY: Update entity position (mode=1)
  3: 0x04C8 [0x52] END_LOAD_SCHEDULER: End scheduler "s116" with entities [EventEntity, EventEntity], work=253*
  4: 0x04D7 [0x45] LOAD_SCHEDULED_TASK: Load scheduler "s117" with entities [EventEntity, EventEntity], work=[253*, 0*]
  5: 0x04E8 [0x27] REQ_SET(priority=0x05, entity_id=LocalPlayer, tag_num=0x77)
  6: 0x04EF [0x27] REQ_SET(priority=0x05, entity_id=Hantileon (ID: 17719570/0x010E6112), tag_num=0x26)
  7: 0x04F6 [0x27] REQ_SET(priority=0x05, entity_id=Bashraf (ID: 17719595/0x010E612B), tag_num=0x08)
  8: 0x04FD [0x27] REQ_SET(priority=0x05, entity_id=Wahboud (ID: 17719597/0x010E612D), tag_num=0x08)
  9: 0x0504 [0x27] REQ_SET(priority=0x05, entity_id=Foudeel (ID: 17719596/0x010E612C), tag_num=0x08)
 10: 0x050B [0x1F] MOVE_ENTITY: EventEntity moves to X=41.217*, Z=-37.617*, Y=2.000*
 11: 0x0513 [0x1F] MOVE_ENTITY: Update entity position (mode=1)
 12: 0x0515 [0x27] REQ_SET(priority=0x05, entity_id=Pulonono (ID: 17719587/0x010E6123), tag_num=0x0E)
 13: 0x051C [0x1F] MOVE_ENTITY: EventEntity moves to X=19.793*, Z=-26.109*, Y=1.999*
 14: 0x0524 [0x1F] MOVE_ENTITY: Update entity position (mode=1)
 15: 0x0526 [0x52] END_LOAD_SCHEDULER: End scheduler "s117" with entities [EventEntity, EventEntity], work=253*
 16: 0x0535 [0x45] LOAD_SCHEDULED_TASK: Load scheduler "s118" with entities [EventEntity, EventEntity], work=[253*, 0*]
 17: 0x0546 [0x27] REQ_SET(priority=0x05, entity_id=Unnamed NPC (ID: 17719590/0x010E6126), tag_num=0x05)
 18: 0x054D [0x1F] MOVE_ENTITY: EventEntity moves to X=5.501*, Z=-21.325*, Y=1.999*
 19: 0x0555 [0x1F] MOVE_ENTITY: Update entity position (mode=1)
 20: 0x0557 [0x1F] MOVE_ENTITY: EventEntity moves to X=-3.733*, Z=-21.275*, Y=1.999*
 21: 0x055F [0x1F] MOVE_ENTITY: Update entity position (mode=1)
 22: 0x0561 [0x4A] Unnamed NPC (ID: 17719593/0x010E6129) looks at Unnamed NPC (ID: 17719571/0x010E6113)
 23: 0x056A [0x1F] MOVE_ENTITY: EventEntity moves to X=-18.378*, Z=-25.371*, Y=1.999*
 24: 0x0572 [0x1F] MOVE_ENTITY: Update entity position (mode=1)
 25: 0x0574 [0x27] REQ_SET(priority=0x05, entity_id=Unnamed NPC (ID: 17719591/0x010E6127), tag_num=0x05)
 26: 0x057B [0x1F] MOVE_ENTITY: EventEntity moves to X=-38.215*, Z=-37.660*, Y=1.999*
 27: 0x0583 [0x1F] MOVE_ENTITY: Update entity position (mode=1)
 28: 0x0585 [0x52] END_LOAD_SCHEDULER: End scheduler "s118" with entities [EventEntity, EventEntity], work=253*
 29: 0x0594 [0x45] LOAD_SCHEDULED_TASK: Load scheduler "s119" with entities [EventEntity, EventEntity], work=[253*, 0*]
 30: 0x05A5 [0x1F] MOVE_ENTITY: EventEntity moves to X=-38.638*, Z=-53.344*, Y=2.003*
 31: 0x05AD [0x1F] MOVE_ENTITY: Update entity position (mode=1)
 32: 0x05AF [0x1F] MOVE_ENTITY: EventEntity moves to X=-37.724*, Z=-56.537*, Y=2.003*
 33: 0x05B7 [0x1F] MOVE_ENTITY: Update entity position (mode=1)
 34: 0x05B9 [0x1F] MOVE_ENTITY: EventEntity moves to X=-34.962*, Z=-57.948*, Y=2.003*
 35: 0x05C1 [0x1F] MOVE_ENTITY: Update entity position (mode=1)
 36: 0x05C3 [0x52] END_LOAD_SCHEDULER: End scheduler "s119" with entities [EventEntity, EventEntity], work=253*
 37: 0x05D2 [0x45] LOAD_SCHEDULED_TASK: Load scheduler "s120" with entities [EventEntity, EventEntity], work=[253*, 0*]
 38: 0x05E3 [0x1F] MOVE_ENTITY: EventEntity moves to X=-23.228*, Z=-70.779*, Y=1.999*
 39: 0x05EB [0x1F] MOVE_ENTITY: Update entity position (mode=1)
 40: 0x05ED [0x00] END_REQSTACK()
```

### Event 65535.32

#### Metadata

| Field        | Value    |
|--------------|----------|
| Entrypoint   | 0x05EE   |
| Data Size    | 30 bytes |
| Instructions | 8        |

```
      00 01 02 03 04 05 06 07  08 09 0A 0B 0C 0D 0E 0F
      -- -- -- -- -- -- -- --  -- -- -- -- -- -- -- --
05E0:                                            32 17                2.
05F0: 80 5A 00 92 80 93 80 94  80 5A 01 1E 14 61 0E 01  .Z.......Z...a..
0600: 1C 50 80 1E F0 FF FF 7F  1C 15 80 00              .P..........    
```

#### Opcodes

```
  0: 0x05EE [0x32] ExtData[1]->MainSpeed = 10* * 0.1
  1: 0x05F1 [0x5A] UPDATE_EVENT_POSITION: Set EventEntity MovePosition to X=-229.469*, Z=320.860*, Y=-59.500*
  2: 0x05F9 [0x5A] UPDATE_EVENT_POSITION: Move EventEntity incrementally towards MovePosition
  3: 0x05FB [0x1E] EventEntity looks at Unnamed NPC (ID: 17719572/0x010E6114) and starts talking
  4: 0x0600 [0x1C] WAIT(60* ticks)
  5: 0x0603 [0x1E] EventEntity looks at LocalPlayer and starts talking
  6: 0x0608 [0x1C] WAIT(30* ticks)
  7: 0x060B [0x00] END_REQSTACK()
```

### Event 65535.33

#### Metadata

| Field        | Value    |
|--------------|----------|
| Entrypoint   | 0x060C   |
| Data Size    | 19 bytes |
| Instructions | 5        |

```
      00 01 02 03 04 05 06 07  08 09 0A 0B 0C 0D 0E 0F
      -- -- -- -- -- -- -- --  -- -- -- -- -- -- -- --
0600:                                      32 17 80 5A              2..Z
0610: 00 95 80 96 80 94 80 5A  01 1E 14 61 0E 01 00     .......Z...a... 
```

#### Opcodes

```
  0: 0x060C [0x32] ExtData[1]->MainSpeed = 10* * 0.1
  1: 0x060F [0x5A] UPDATE_EVENT_POSITION: Set EventEntity MovePosition to X=-228.177*, Z=316.653*, Y=-59.500*
  2: 0x0617 [0x5A] UPDATE_EVENT_POSITION: Move EventEntity incrementally towards MovePosition
  3: 0x0619 [0x1E] EventEntity looks at Unnamed NPC (ID: 17719572/0x010E6114) and starts talking
  4: 0x061E [0x00] END_REQSTACK()
```

### Event 65535.34

#### Metadata

| Field        | Value    |
|--------------|----------|
| Entrypoint   | 0x061F   |
| Data Size    | 14 bytes |
| Instructions | 4        |

```
      00 01 02 03 04 05 06 07  08 09 0A 0B 0C 0D 0E 0F
      -- -- -- -- -- -- -- --  -- -- -- -- -- -- -- --
0610:                                               32                 2
0620: 17 80 5A 00 97 80 98 80  99 80 5A 01 00           ..Z.......Z..   
```

#### Opcodes

```
  0: 0x061F [0x32] ExtData[1]->MainSpeed = 10* * 0.1
  1: 0x0622 [0x5A] UPDATE_EVENT_POSITION: Set EventEntity MovePosition to X=-224.919*, Z=316.171*, Y=-59.892*
  2: 0x062A [0x5A] UPDATE_EVENT_POSITION: Move EventEntity incrementally towards MovePosition
  3: 0x062C [0x00] END_REQSTACK()
```

### Event 65535.35

#### Metadata

| Field        | Value    |
|--------------|----------|
| Entrypoint   | 0x062D   |
| Data Size    | 14 bytes |
| Instructions | 4        |

```
      00 01 02 03 04 05 06 07  08 09 0A 0B 0C 0D 0E 0F
      -- -- -- -- -- -- -- --  -- -- -- -- -- -- -- --
0620:                                         32 17 80               2..
0630: 5A 00 9A 80 9B 80 94 80  5A 01 00                 Z.......Z..     
```

#### Opcodes

```
  0: 0x062D [0x32] ExtData[1]->MainSpeed = 10* * 0.1
  1: 0x0630 [0x5A] UPDATE_EVENT_POSITION: Set EventEntity MovePosition to X=-231.039*, Z=318.038*, Y=-59.500*
  2: 0x0638 [0x5A] UPDATE_EVENT_POSITION: Move EventEntity incrementally towards MovePosition
  3: 0x063A [0x00] END_REQSTACK()
```

### Event 65535.36

#### Metadata

| Field        | Value    |
|--------------|----------|
| Entrypoint   | 0x063B   |
| Data Size    | 40 bytes |
| Instructions | 10       |

```
      00 01 02 03 04 05 06 07  08 09 0A 0B 0C 0D 0E 0F
      -- -- -- -- -- -- -- --  -- -- -- -- -- -- -- --
0630:                                   32 31 80 5A 00             21.Z.
0640: 9C 80 9D 80 9E 80 5A 01  5A 00 9F 80 A0 80 A1 80  ......Z.Z.......
0650: 5A 01 1E 14 61 0E 01 1C  50 80 1E F0 FF FF 7F 1C  Z...a...P.......
0660: 15 80 00                                          ...             
```

#### Opcodes

```
  0: 0x063B [0x32] ExtData[1]->MainSpeed = 57* * 0.1
  1: 0x063E [0x5A] UPDATE_EVENT_POSITION: Set EventEntity MovePosition to X=-380.816*, Z=138.726*, Y=-35.871*
  2: 0x0646 [0x5A] UPDATE_EVENT_POSITION: Move EventEntity incrementally towards MovePosition
  3: 0x0648 [0x5A] UPDATE_EVENT_POSITION: Set EventEntity MovePosition to X=-379.911*, Z=142.342*, Y=-36.620*
  4: 0x0650 [0x5A] UPDATE_EVENT_POSITION: Move EventEntity incrementally towards MovePosition
  5: 0x0652 [0x1E] EventEntity looks at Unnamed NPC (ID: 17719572/0x010E6114) and starts talking
  6: 0x0657 [0x1C] WAIT(60* ticks)
  7: 0x065A [0x1E] EventEntity looks at LocalPlayer and starts talking
  8: 0x065F [0x1C] WAIT(30* ticks)
  9: 0x0662 [0x00] END_REQSTACK()
```

### Event 65535.37

#### Metadata

| Field        | Value    |
|--------------|----------|
| Entrypoint   | 0x0663   |
| Data Size    | 19 bytes |
| Instructions | 5        |

```
      00 01 02 03 04 05 06 07  08 09 0A 0B 0C 0D 0E 0F
      -- -- -- -- -- -- -- --  -- -- -- -- -- -- -- --
0660:          32 31 80 5A 00  A2 80 A3 80 A4 80 5A 01     21.Z.......Z.
0670: 1E 14 61 0E 01 00                                 ..a...          
```

#### Opcodes

```
  0: 0x0663 [0x32] ExtData[1]->MainSpeed = 57* * 0.1
  1: 0x0666 [0x5A] UPDATE_EVENT_POSITION: Set EventEntity MovePosition to X=-382.368*, Z=148.215*, Y=-38.222*
  2: 0x066E [0x5A] UPDATE_EVENT_POSITION: Move EventEntity incrementally towards MovePosition
  3: 0x0670 [0x1E] EventEntity looks at Unnamed NPC (ID: 17719572/0x010E6114) and starts talking
  4: 0x0675 [0x00] END_REQSTACK()
```

### Event 65535.38

#### Metadata

| Field        | Value    |
|--------------|----------|
| Entrypoint   | 0x0676   |
| Data Size    | 14 bytes |
| Instructions | 4        |

```
      00 01 02 03 04 05 06 07  08 09 0A 0B 0C 0D 0E 0F
      -- -- -- -- -- -- -- --  -- -- -- -- -- -- -- --
0670:                   32 29  80 5A 00 A5 80 A6 80 A7        2).Z......
0680: 80 5A 01 00                                       .Z..            
```

#### Opcodes

```
  0: 0x0676 [0x32] ExtData[1]->MainSpeed = 19* * 0.1
  1: 0x0679 [0x5A] UPDATE_EVENT_POSITION: Set EventEntity MovePosition to X=-378.777*, Z=144.843*, Y=-37.416*
  2: 0x0681 [0x5A] UPDATE_EVENT_POSITION: Move EventEntity incrementally towards MovePosition
  3: 0x0683 [0x00] END_REQSTACK()
```

### Event 65535.39

#### Metadata

| Field        | Value    |
|--------------|----------|
| Entrypoint   | 0x0684   |
| Data Size    | 14 bytes |
| Instructions | 4        |

```
      00 01 02 03 04 05 06 07  08 09 0A 0B 0C 0D 0E 0F
      -- -- -- -- -- -- -- --  -- -- -- -- -- -- -- --
0680:             32 29 80 1F  00 A8 80 A9 80 AA 80 1F      2)..........
0690: 01 00                                             ..              
```

#### Opcodes

```
  0: 0x0684 [0x32] ExtData[1]->MainSpeed = 19* * 0.1
  1: 0x0687 [0x1F] MOVE_ENTITY: EventEntity moves to X=-382.979*, Z=148.077*, Y=-38.202*
  2: 0x068F [0x1F] MOVE_ENTITY: Update entity position (mode=1)
  3: 0x0691 [0x00] END_REQSTACK()
```

### Event 65535.40

#### Metadata

| Field        | Value    |
|--------------|----------|
| Entrypoint   | 0x0692   |
| Data Size    | 10 bytes |
| Instructions | 2        |

```
      00 01 02 03 04 05 06 07  08 09 0A 0B 0C 0D 0E 0F
      -- -- -- -- -- -- -- --  -- -- -- -- -- -- -- --
0690:       37 AB 80 AC 80 AD  80 AE 80 00                7.........    
```

#### Opcodes

```
  0: 0x0692 [0x37] UPDATE_EVENT_POSITION_AND_DIR: x=-3.756*, z=-95.190*, y=0.650*, direction=93.6°*
  1: 0x069B [0x00] END_REQSTACK()
```

### Event 65535.41

#### Metadata

| Field        | Value    |
|--------------|----------|
| Entrypoint   | 0x069C   |
| Data Size    | 14 bytes |
| Instructions | 4        |

```
      00 01 02 03 04 05 06 07  08 09 0A 0B 0C 0D 0E 0F
      -- -- -- -- -- -- -- --  -- -- -- -- -- -- -- --
0690:                                      32 17 80 1F              2...
06A0: 00 AF 80 B0 80 B1 80 1F  01 00                    ..........      
```

#### Opcodes

```
  0: 0x069C [0x32] ExtData[1]->MainSpeed = 10* * 0.1
  1: 0x069F [0x1F] MOVE_ENTITY: EventEntity moves to X=-3.577*, Z=-101.793*, Y=-0.099*
  2: 0x06A7 [0x1F] MOVE_ENTITY: Update entity position (mode=1)
  3: 0x06A9 [0x00] END_REQSTACK()
```

### Event 65535.42

#### Metadata

| Field        | Value    |
|--------------|----------|
| Entrypoint   | 0x06AA   |
| Data Size    | 19 bytes |
| Instructions | 5        |

```
      00 01 02 03 04 05 06 07  08 09 0A 0B 0C 0D 0E 0F
      -- -- -- -- -- -- -- --  -- -- -- -- -- -- -- --
06A0:                                32 29 80 1F 00 AF            2)....
06B0: 80 B0 80 B1 80 1F 01 1E  12 61 0E 01 00           .........a...   
```

#### Opcodes

```
  0: 0x06AA [0x32] ExtData[1]->MainSpeed = 19* * 0.1
  1: 0x06AD [0x1F] MOVE_ENTITY: EventEntity moves to X=-3.577*, Z=-101.793*, Y=-0.099*
  2: 0x06B5 [0x1F] MOVE_ENTITY: Update entity position (mode=1)
  3: 0x06B7 [0x1E] EventEntity looks at Hantileon (ID: 17719570/0x010E6112) and starts talking
  4: 0x06BC [0x00] END_REQSTACK()
```

### Event 861

#### Metadata

| Field        | Value   |
|--------------|---------|
| Entrypoint   | 0x06BD  |
| Data Size    | 1 bytes |
| Instructions | 1       |

```
      00 01 02 03 04 05 06 07  08 09 0A 0B 0C 0D 0E 0F
      -- -- -- -- -- -- -- --  -- -- -- -- -- -- -- --
06B0:                                         00                     .  
```

#### Opcodes

```
  0: 0x06BD [0x00] END_REQSTACK()
```

### Event 65535.43

#### Metadata

| Field        | Value    |
|--------------|----------|
| Entrypoint   | 0x06BE   |
| Data Size    | 15 bytes |
| Instructions | 3        |

```
      00 01 02 03 04 05 06 07  08 09 0A 0B 0C 0D 0E 0F
      -- -- -- -- -- -- -- --  -- -- -- -- -- -- -- --
06B0:                                            37 B2                7.
06C0: 80 B3 80 B4 80 B5 80 03  04 00 0A 80 00           .............   
```

#### Opcodes

```
  0: 0x06BE [0x37] UPDATE_EVENT_POSITION_AND_DIR: x=-607.234*, z=599.295*, y=0.160*, direction=33.1°*
  1: 0x06C7 [0x03] ExtData[1]->WorkLocal[4] = 0*
  2: 0x06CC [0x00] END_REQSTACK()
```

### Event 65535.44

#### Metadata

| Field        | Value    |
|--------------|----------|
| Entrypoint   | 0x06CD   |
| Data Size    | 48 bytes |
| Instructions | 11       |

```
      00 01 02 03 04 05 06 07  08 09 0A 0B 0C 0D 0E 0F
      -- -- -- -- -- -- -- --  -- -- -- -- -- -- -- --
06C0:                                         02 04 00               ...
06D0: B6 80 01 FC 06 32 17 80  1F 00 B7 80 B8 80 B9 80  .....2..........
06E0: 1F 01 1C 50 80 1F 00 BA  80 BB 80 BC 80 1F 01 1F  ...P............
06F0: 00 BD 80 BE 80 BF 80 1F  01 01 CD 06 00           .............   
```

#### Opcodes

```
  0: 0x06CD [0x02] IF !(ExtData[1]->WorkLocal[4] == 1*) GOTO 0x06FC
  1: 0x06D5 [0x32] ExtData[1]->MainSpeed = 10* * 0.1
  2: 0x06D8 [0x1F] MOVE_ENTITY: EventEntity moves to X=-604.743*, Z=600.818*, Y=0.035*
  3: 0x06E0 [0x1F] MOVE_ENTITY: Update entity position (mode=1)
  4: 0x06E2 [0x1C] WAIT(60* ticks)
  5: 0x06E5 [0x1F] MOVE_ENTITY: EventEntity moves to X=-608.317*, Z=600.631*, Y=0.214*
  6: 0x06ED [0x1F] MOVE_ENTITY: Update entity position (mode=1)
  7: 0x06EF [0x1F] MOVE_ENTITY: EventEntity moves to X=-606.086*, Z=601.808*, Y=0.102*
  8: 0x06F7 [0x1F] MOVE_ENTITY: Update entity position (mode=1)
  9: 0x06F9 [0x01] GOTO 0x06CD
 10: 0x06FC [0x00] END_REQSTACK()
```

### Event 65535.45

#### Metadata

| Field        | Value    |
|--------------|----------|
| Entrypoint   | 0x06FD   |
| Data Size    | 48 bytes |
| Instructions | 11       |

```
      00 01 02 03 04 05 06 07  08 09 0A 0B 0C 0D 0E 0F
      -- -- -- -- -- -- -- --  -- -- -- -- -- -- -- --
06F0:                                         02 04 00               ...
0700: B6 80 01 2C 07 32 29 80  1F 00 B7 80 B8 80 B9 80  ...,.2).........
0710: 1F 01 1C 50 80 1F 00 BA  80 BB 80 BC 80 1F 01 1F  ...P............
0720: 00 BD 80 BE 80 BF 80 1F  01 01 FD 06 00           .............   
```

#### Opcodes

```
  0: 0x06FD [0x02] IF !(ExtData[1]->WorkLocal[4] == 1*) GOTO 0x072C
  1: 0x0705 [0x32] ExtData[1]->MainSpeed = 19* * 0.1
  2: 0x0708 [0x1F] MOVE_ENTITY: EventEntity moves to X=-604.743*, Z=600.818*, Y=0.035*
  3: 0x0710 [0x1F] MOVE_ENTITY: Update entity position (mode=1)
  4: 0x0712 [0x1C] WAIT(60* ticks)
  5: 0x0715 [0x1F] MOVE_ENTITY: EventEntity moves to X=-608.317*, Z=600.631*, Y=0.214*
  6: 0x071D [0x1F] MOVE_ENTITY: Update entity position (mode=1)
  7: 0x071F [0x1F] MOVE_ENTITY: EventEntity moves to X=-606.086*, Z=601.808*, Y=0.102*
  8: 0x0727 [0x1F] MOVE_ENTITY: Update entity position (mode=1)
  9: 0x0729 [0x01] GOTO 0x06FD
 10: 0x072C [0x00] END_REQSTACK()
```

### Event 65535.46

#### Metadata

| Field        | Value   |
|--------------|---------|
| Entrypoint   | 0x072D  |
| Data Size    | 6 bytes |
| Instructions | 2       |

```
      00 01 02 03 04 05 06 07  08 09 0A 0B 0C 0D 0E 0F
      -- -- -- -- -- -- -- --  -- -- -- -- -- -- -- --
0720:                                         03 04 00               ...
0730: B6 80 00                                          ...             
```

#### Opcodes

```
  0: 0x072D [0x03] ExtData[1]->WorkLocal[4] = 1*
  1: 0x0732 [0x00] END_REQSTACK()
```

### Event 65535.47

#### Metadata

| Field        | Value   |
|--------------|---------|
| Entrypoint   | 0x0733  |
| Data Size    | 6 bytes |
| Instructions | 2       |

```
      00 01 02 03 04 05 06 07  08 09 0A 0B 0C 0D 0E 0F
      -- -- -- -- -- -- -- --  -- -- -- -- -- -- -- --
0730:          03 04 00 0A 80  00                          ......       
```

#### Opcodes

```
  0: 0x0733 [0x03] ExtData[1]->WorkLocal[4] = 0*
  1: 0x0738 [0x00] END_REQSTACK()
```

### Event 65535.48

#### Metadata

| Field        | Value    |
|--------------|----------|
| Entrypoint   | 0x0739   |
| Data Size    | 15 bytes |
| Instructions | 3        |

```
      00 01 02 03 04 05 06 07  08 09 0A 0B 0C 0D 0E 0F
      -- -- -- -- -- -- -- --  -- -- -- -- -- -- -- --
0730:                             37 C0 80 C1 80 C2 80           7......
0740: C3 80 80 F8 FF FF 7F 00                           ........        
```

#### Opcodes

```
  0: 0x0739 [0x37] UPDATE_EVENT_POSITION_AND_DIR: x=-600.128*, z=585.578*, y=0.628*, direction=25.0°*
  1: 0x0742 [0x80] LOAD_WAIT(entity=EventEntity)
  2: 0x0747 [0x00] END_REQSTACK()
```

### Event 65535.49

#### Metadata

| Field        | Value    |
|--------------|----------|
| Entrypoint   | 0x0748   |
| Data Size    | 54 bytes |
| Instructions | 12       |

```
      00 01 02 03 04 05 06 07  08 09 0A 0B 0C 0D 0E 0F
      -- -- -- -- -- -- -- --  -- -- -- -- -- -- -- --
0740:                          32 17 80 1F 00 C4 80 C5          2.......
0750: 80 C6 80 1F 01 1F 00 C7  80 C8 80 C9 80 1F 01 1F  ................
0760: 00 CA 80 CB 80 CC 80 1F  01 1F 00 CD 80 CE 80 CF  ................
0770: 80 1F 01 1F 00 C0 80 C1  80 C2 80 1F 01 00        ..............  
```

#### Opcodes

```
  0: 0x0748 [0x32] ExtData[1]->MainSpeed = 10* * 0.1
  1: 0x074B [0x1F] MOVE_ENTITY: EventEntity moves to X=-601.910*, Z=587.743*, Y=0.274*
  2: 0x0753 [0x1F] MOVE_ENTITY: Update entity position (mode=1)
  3: 0x0755 [0x1F] MOVE_ENTITY: EventEntity moves to X=-600.199*, Z=588.994*, Y=0.347*
  4: 0x075D [0x1F] MOVE_ENTITY: Update entity position (mode=1)
  5: 0x075F [0x1F] MOVE_ENTITY: EventEntity moves to X=-599.211*, Z=586.089*, Y=0.586*
  6: 0x0767 [0x1F] MOVE_ENTITY: Update entity position (mode=1)
  7: 0x0769 [0x1F] MOVE_ENTITY: EventEntity moves to X=-599.391*, Z=583.375*, Y=0.830*
  8: 0x0771 [0x1F] MOVE_ENTITY: Update entity position (mode=1)
  9: 0x0773 [0x1F] MOVE_ENTITY: EventEntity moves to X=-600.128*, Z=585.578*, Y=0.628*
 10: 0x077B [0x1F] MOVE_ENTITY: Update entity position (mode=1)
 11: 0x077D [0x00] END_REQSTACK()
```

### Event 65535.50

#### Metadata

| Field        | Value    |
|--------------|----------|
| Entrypoint   | 0x077E   |
| Data Size    | 66 bytes |
| Instructions | 16       |

```
      00 01 02 03 04 05 06 07  08 09 0A 0B 0C 0D 0E 0F
      -- -- -- -- -- -- -- --  -- -- -- -- -- -- -- --
0770:                                            32 29                2)
0780: 80 1F 00 C4 80 C5 80 C6  80 1F 01 1C 15 80 1F 00  ................
0790: C7 80 C8 80 C9 80 1F 01  1C 15 80 1F 00 CA 80 CB  ................
07A0: 80 CC 80 1F 01 1C 15 80  1F 00 CD 80 CE 80 CF 80  ................
07B0: 1F 01 1C 15 80 1F 00 C0  80 C1 80 C2 80 1F 01 00  ................
```

#### Opcodes

```
  0: 0x077E [0x32] ExtData[1]->MainSpeed = 19* * 0.1
  1: 0x0781 [0x1F] MOVE_ENTITY: EventEntity moves to X=-601.910*, Z=587.743*, Y=0.274*
  2: 0x0789 [0x1F] MOVE_ENTITY: Update entity position (mode=1)
  3: 0x078B [0x1C] WAIT(30* ticks)
  4: 0x078E [0x1F] MOVE_ENTITY: EventEntity moves to X=-600.199*, Z=588.994*, Y=0.347*
  5: 0x0796 [0x1F] MOVE_ENTITY: Update entity position (mode=1)
  6: 0x0798 [0x1C] WAIT(30* ticks)
  7: 0x079B [0x1F] MOVE_ENTITY: EventEntity moves to X=-599.211*, Z=586.089*, Y=0.586*
  8: 0x07A3 [0x1F] MOVE_ENTITY: Update entity position (mode=1)
  9: 0x07A5 [0x1C] WAIT(30* ticks)
 10: 0x07A8 [0x1F] MOVE_ENTITY: EventEntity moves to X=-599.391*, Z=583.375*, Y=0.830*
 11: 0x07B0 [0x1F] MOVE_ENTITY: Update entity position (mode=1)
 12: 0x07B2 [0x1C] WAIT(30* ticks)
 13: 0x07B5 [0x1F] MOVE_ENTITY: EventEntity moves to X=-600.128*, Z=585.578*, Y=0.628*
 14: 0x07BD [0x1F] MOVE_ENTITY: Update entity position (mode=1)
 15: 0x07BF [0x00] END_REQSTACK()
```

### Event 65535.51

#### Metadata

| Field        | Value    |
|--------------|----------|
| Entrypoint   | 0x07C0   |
| Data Size    | 15 bytes |
| Instructions | 3        |

```
      00 01 02 03 04 05 06 07  08 09 0A 0B 0C 0D 0E 0F
      -- -- -- -- -- -- -- --  -- -- -- -- -- -- -- --
07C0: 37 D0 80 D1 80 D2 80 C3  80 80 F8 FF FF 7F 00     7.............. 
```

#### Opcodes

```
  0: 0x07C0 [0x37] UPDATE_EVENT_POSITION_AND_DIR: x=-602.007*, z=587.764*, y=0.268*, direction=25.0°*
  1: 0x07C9 [0x80] LOAD_WAIT(entity=EventEntity)
  2: 0x07CE [0x00] END_REQSTACK()
```

### Event 65535.52

#### Metadata

| Field        | Value    |
|--------------|----------|
| Entrypoint   | 0x07CF   |
| Data Size    | 77 bytes |
| Instructions | 17       |

```
      00 01 02 03 04 05 06 07  08 09 0A 0B 0C 0D 0E 0F
      -- -- -- -- -- -- -- --  -- -- -- -- -- -- -- --
07C0:                                               32                 2
07D0: 29 80 1F 00 C4 80 C5 80  C6 80 1F 01 1F 00 C7 80  )...............
07E0: C8 80 C9 80 1F 01 1F 00  CA 80 CB 80 CC 80 1F 01  ................
07F0: 1F 00 CD 80 CE 80 CF 80  1F 01 1C 15 80 4B 13 61  .............K.a
0800: 0E 01 D3 80 1C 1C 80 1F  00 D0 80 D1 80 D2 80 1F  ................
0810: 01 4B 13 61 0E 01 D4 80  1C 15 80 00              .K.a........    
```

#### Opcodes

```
  0: 0x07CF [0x32] ExtData[1]->MainSpeed = 19* * 0.1
  1: 0x07D2 [0x1F] MOVE_ENTITY: EventEntity moves to X=-601.910*, Z=587.743*, Y=0.274*
  2: 0x07DA [0x1F] MOVE_ENTITY: Update entity position (mode=1)
  3: 0x07DC [0x1F] MOVE_ENTITY: EventEntity moves to X=-600.199*, Z=588.994*, Y=0.347*
  4: 0x07E4 [0x1F] MOVE_ENTITY: Update entity position (mode=1)
  5: 0x07E6 [0x1F] MOVE_ENTITY: EventEntity moves to X=-599.211*, Z=586.089*, Y=0.586*
  6: 0x07EE [0x1F] MOVE_ENTITY: Update entity position (mode=1)
  7: 0x07F0 [0x1F] MOVE_ENTITY: EventEntity moves to X=-599.391*, Z=583.375*, Y=0.830*
  8: 0x07F8 [0x1F] MOVE_ENTITY: Update entity position (mode=1)
  9: 0x07FA [0x1C] WAIT(30* ticks)
 10: 0x07FD [0x4B] UPDATE_ENTITY_YAW(entity=Unnamed NPC (ID: 17719571/0x010E6113), yaw=17.4°*)
 11: 0x0804 [0x1C] WAIT(120* ticks)
 12: 0x0807 [0x1F] MOVE_ENTITY: EventEntity moves to X=-602.007*, Z=587.764*, Y=0.268*
 13: 0x080F [0x1F] MOVE_ENTITY: Update entity position (mode=1)
 14: 0x0811 [0x4B] UPDATE_ENTITY_YAW(entity=Unnamed NPC (ID: 17719571/0x010E6113), yaw=1.9°*)
 15: 0x0818 [0x1C] WAIT(30* ticks)
 16: 0x081B [0x00] END_REQSTACK()
```

### Event 65535.53

#### Metadata

| Field        | Value    |
|--------------|----------|
| Entrypoint   | 0x081C   |
| Data Size    | 50 bytes |
| Instructions | 12       |

```
      00 01 02 03 04 05 06 07  08 09 0A 0B 0C 0D 0E 0F
      -- -- -- -- -- -- -- --  -- -- -- -- -- -- -- --
0810:                                      32 17 80 1F              2...
0820: 00 D5 80 D6 80 D7 80 1F  01 1C 50 80 1F 00 D8 80  ..........P.....
0830: D9 80 DA 80 1F 01 1C 50  80 1F 00 C0 80 C1 80 C2  .......P........
0840: 80 1F 01 4B 13 61 0E 01  DB 80 1C 50 80 00        ...K.a.....P..  
```

#### Opcodes

```
  0: 0x081C [0x32] ExtData[1]->MainSpeed = 10* * 0.1
  1: 0x081F [0x1F] MOVE_ENTITY: EventEntity moves to X=-600.221*, Z=588.558*, Y=0.369*
  2: 0x0827 [0x1F] MOVE_ENTITY: Update entity position (mode=1)
  3: 0x0829 [0x1C] WAIT(60* ticks)
  4: 0x082C [0x1F] MOVE_ENTITY: EventEntity moves to X=-602.144*, Z=586.825*, Y=0.376*
  5: 0x0834 [0x1F] MOVE_ENTITY: Update entity position (mode=1)
  6: 0x0836 [0x1C] WAIT(60* ticks)
  7: 0x0839 [0x1F] MOVE_ENTITY: EventEntity moves to X=-600.128*, Z=585.578*, Y=0.628*
  8: 0x0841 [0x1F] MOVE_ENTITY: Update entity position (mode=1)
  9: 0x0843 [0x4B] UPDATE_ENTITY_YAW(entity=Unnamed NPC (ID: 17719571/0x010E6113), yaw=11.8°*)
 10: 0x084A [0x1C] WAIT(60* ticks)
 11: 0x084D [0x00] END_REQSTACK()
```

### Event 65535.54

#### Metadata

| Field        | Value    |
|--------------|----------|
| Entrypoint   | 0x084E   |
| Data Size    | 50 bytes |
| Instructions | 12       |

```
      00 01 02 03 04 05 06 07  08 09 0A 0B 0C 0D 0E 0F
      -- -- -- -- -- -- -- --  -- -- -- -- -- -- -- --
0840:                                            32 29                2)
0850: 80 1F 00 DC 80 DD 80 DE  80 1F 01 1C 50 80 1F 00  ............P...
0860: D8 80 D9 80 DA 80 1F 01  1C 50 80 1F 00 C0 80 C1  .........P......
0870: 80 C2 80 1F 01 4B 13 61  0E 01 DB 80 1C 50 80 00  .....K.a.....P..
```

#### Opcodes

```
  0: 0x084E [0x32] ExtData[1]->MainSpeed = 19* * 0.1
  1: 0x0851 [0x1F] MOVE_ENTITY: EventEntity moves to X=-599.892*, Z=588.477*, Y=0.373*
  2: 0x0859 [0x1F] MOVE_ENTITY: Update entity position (mode=1)
  3: 0x085B [0x1C] WAIT(60* ticks)
  4: 0x085E [0x1F] MOVE_ENTITY: EventEntity moves to X=-602.144*, Z=586.825*, Y=0.376*
  5: 0x0866 [0x1F] MOVE_ENTITY: Update entity position (mode=1)
  6: 0x0868 [0x1C] WAIT(60* ticks)
  7: 0x086B [0x1F] MOVE_ENTITY: EventEntity moves to X=-600.128*, Z=585.578*, Y=0.628*
  8: 0x0873 [0x1F] MOVE_ENTITY: Update entity position (mode=1)
  9: 0x0875 [0x4B] UPDATE_ENTITY_YAW(entity=Unnamed NPC (ID: 17719571/0x010E6113), yaw=11.8°*)
 10: 0x087C [0x1C] WAIT(60* ticks)
 11: 0x087F [0x00] END_REQSTACK()
```

### Event 65535.55

#### Metadata

| Field        | Value    |
|--------------|----------|
| Entrypoint   | 0x0880   |
| Data Size    | 67 bytes |
| Instructions | 15       |

```
      00 01 02 03 04 05 06 07  08 09 0A 0B 0C 0D 0E 0F
      -- -- -- -- -- -- -- --  -- -- -- -- -- -- -- --
0880: 32 31 80 1F 00 DF 80 E0  80 E1 80 1F 01 4B 13 61  21...........K.a
0890: 0E 01 E2 80 1C 50 80 1F  00 E3 80 E4 80 E5 80 1F  .....P..........
08A0: 01 4B 13 61 0E 01 E6 80  1C E7 80 1F 00 E8 80 E9  .K.a............
08B0: 80 EA 80 1F 01 1C 15 80  4B 13 61 0E 01 EB 80 1C  ........K.a.....
08C0: 50 80 00                                          P..             
```

#### Opcodes

```
  0: 0x0880 [0x32] ExtData[1]->MainSpeed = 57* * 0.1
  1: 0x0883 [0x1F] MOVE_ENTITY: EventEntity moves to X=-599.295*, Z=590.678*, Y=0.264*
  2: 0x088B [0x1F] MOVE_ENTITY: Update entity position (mode=1)
  3: 0x088D [0x4B] UPDATE_ENTITY_YAW(entity=Unnamed NPC (ID: 17719571/0x010E6113), yaw=5.3°*)
  4: 0x0894 [0x1C] WAIT(60* ticks)
  5: 0x0897 [0x1F] MOVE_ENTITY: EventEntity moves to X=-604.353*, Z=586.292*, Y=0.138*
  6: 0x089F [0x1F] MOVE_ENTITY: Update entity position (mode=1)
  7: 0x08A1 [0x4B] UPDATE_ENTITY_YAW(entity=Unnamed NPC (ID: 17719571/0x010E6113), yaw=0.2°*)
  8: 0x08A8 [0x1C] WAIT(240* ticks)
  9: 0x08AB [0x1F] MOVE_ENTITY: EventEntity moves to X=-600.328*, Z=582.410*, Y=0.802*
 10: 0x08B3 [0x1F] MOVE_ENTITY: Update entity position (mode=1)
 11: 0x08B5 [0x1C] WAIT(30* ticks)
 12: 0x08B8 [0x4B] UPDATE_ENTITY_YAW(entity=Unnamed NPC (ID: 17719571/0x010E6113), yaw=16.6°*)
 13: 0x08BF [0x1C] WAIT(60* ticks)
 14: 0x08C2 [0x00] END_REQSTACK()
```

### Event 65535.56

#### Metadata

| Field        | Value    |
|--------------|----------|
| Entrypoint   | 0x08C3   |
| Data Size    | 14 bytes |
| Instructions | 4        |

```
      00 01 02 03 04 05 06 07  08 09 0A 0B 0C 0D 0E 0F
      -- -- -- -- -- -- -- --  -- -- -- -- -- -- -- --
08C0:          32 17 80 1F 00  EC 80 ED 80 EE 80 1F 01     2............
08D0: 00                                                .               
```

#### Opcodes

```
  0: 0x08C3 [0x32] ExtData[1]->MainSpeed = 10* * 0.1
  1: 0x08C6 [0x1F] MOVE_ENTITY: EventEntity moves to X=-601.434*, Z=588.428*, Y=0.312*
  2: 0x08CE [0x1F] MOVE_ENTITY: Update entity position (mode=1)
  3: 0x08D0 [0x00] END_REQSTACK()
```

### Event 65535.57

#### Metadata

| Field        | Value    |
|--------------|----------|
| Entrypoint   | 0x08D1   |
| Data Size    | 34 bytes |
| Instructions | 8        |

```
      00 01 02 03 04 05 06 07  08 09 0A 0B 0C 0D 0E 0F
      -- -- -- -- -- -- -- --  -- -- -- -- -- -- -- --
08D0:    32 17 80 1F 00 EF 80  F0 80 31 80 1F 01 1F 00   2........1.....
08E0: F1 80 F2 80 F3 80 1F 01  1F 00 C0 80 C1 80 C2 80  ................
08F0: 1F 01 00                                          ...             
```

#### Opcodes

```
  0: 0x08D1 [0x32] ExtData[1]->MainSpeed = 10* * 0.1
  1: 0x08D4 [0x1F] MOVE_ENTITY: EventEntity moves to X=-604.257*, Z=586.573*, Y=0.057*
  2: 0x08DC [0x1F] MOVE_ENTITY: Update entity position (mode=1)
  3: 0x08DE [0x1F] MOVE_ENTITY: EventEntity moves to X=-603.318*, Z=588.527*, Y=0.196*
  4: 0x08E6 [0x1F] MOVE_ENTITY: Update entity position (mode=1)
  5: 0x08E8 [0x1F] MOVE_ENTITY: EventEntity moves to X=-600.128*, Z=585.578*, Y=0.628*
  6: 0x08F0 [0x1F] MOVE_ENTITY: Update entity position (mode=1)
  7: 0x08F2 [0x00] END_REQSTACK()
```

### Event 65535.58

#### Metadata

| Field        | Value    |
|--------------|----------|
| Entrypoint   | 0x08F3   |
| Data Size    | 14 bytes |
| Instructions | 4        |

```
      00 01 02 03 04 05 06 07  08 09 0A 0B 0C 0D 0E 0F
      -- -- -- -- -- -- -- --  -- -- -- -- -- -- -- --
08F0:          32 31 80 1F 00  EC 80 ED 80 EE 80 1F 01     21...........
0900: 00                                                .               
```

#### Opcodes

```
  0: 0x08F3 [0x32] ExtData[1]->MainSpeed = 57* * 0.1
  1: 0x08F6 [0x1F] MOVE_ENTITY: EventEntity moves to X=-601.434*, Z=588.428*, Y=0.312*
  2: 0x08FE [0x1F] MOVE_ENTITY: Update entity position (mode=1)
  3: 0x0900 [0x00] END_REQSTACK()
```

### Event 65535.59

#### Metadata

| Field        | Value    |
|--------------|----------|
| Entrypoint   | 0x0901   |
| Data Size    | 34 bytes |
| Instructions | 8        |

```
      00 01 02 03 04 05 06 07  08 09 0A 0B 0C 0D 0E 0F
      -- -- -- -- -- -- -- --  -- -- -- -- -- -- -- --
0900:    32 31 80 1F 00 EF 80  F0 80 31 80 1F 01 1F 00   21.......1.....
0910: F1 80 F2 80 F3 80 1F 01  1F 00 F4 80 F5 80 F6 80  ................
0920: 1F 01 00                                          ...             
```

#### Opcodes

```
  0: 0x0901 [0x32] ExtData[1]->MainSpeed = 57* * 0.1
  1: 0x0904 [0x1F] MOVE_ENTITY: EventEntity moves to X=-604.257*, Z=586.573*, Y=0.057*
  2: 0x090C [0x1F] MOVE_ENTITY: Update entity position (mode=1)
  3: 0x090E [0x1F] MOVE_ENTITY: EventEntity moves to X=-603.318*, Z=588.527*, Y=0.196*
  4: 0x0916 [0x1F] MOVE_ENTITY: Update entity position (mode=1)
  5: 0x0918 [0x1F] MOVE_ENTITY: EventEntity moves to X=-599.732*, Z=584.728*, Y=0.723*
  6: 0x0920 [0x1F] MOVE_ENTITY: Update entity position (mode=1)
  7: 0x0922 [0x00] END_REQSTACK()
```

### Event 65535.60

#### Metadata

| Field        | Value    |
|--------------|----------|
| Entrypoint   | 0x0923   |
| Data Size    | 14 bytes |
| Instructions | 4        |

```
      00 01 02 03 04 05 06 07  08 09 0A 0B 0C 0D 0E 0F
      -- -- -- -- -- -- -- --  -- -- -- -- -- -- -- --
0920:          32 31 80 1F 00  F7 80 F8 80 F9 80 1F 01     21...........
0930: 00                                                .               
```

#### Opcodes

```
  0: 0x0923 [0x32] ExtData[1]->MainSpeed = 57* * 0.1
  1: 0x0926 [0x1F] MOVE_ENTITY: EventEntity moves to X=-605.671*, Z=583.776*, Y=-0.108*
  2: 0x092E [0x1F] MOVE_ENTITY: Update entity position (mode=1)
  3: 0x0930 [0x00] END_REQSTACK()
```

### Event 65535.61

#### Metadata

| Field        | Value    |
|--------------|----------|
| Entrypoint   | 0x0931   |
| Data Size    | 15 bytes |
| Instructions | 3        |

```
      00 01 02 03 04 05 06 07  08 09 0A 0B 0C 0D 0E 0F
      -- -- -- -- -- -- -- --  -- -- -- -- -- -- -- --
0930:    37 FA 80 FB 80 FC 80  FD 80 80 F8 FF FF 7F 00   7..............
```

#### Opcodes

```
  0: 0x0931 [0x37] UPDATE_EVENT_POSITION_AND_DIR: x=-601.110*, z=586.847*, y=0.439*, direction=141.6°*
  1: 0x093A [0x80] LOAD_WAIT(entity=EventEntity)
  2: 0x093F [0x00] END_REQSTACK()
```
