# 17719301 - Baunise

## Common Data

| Field            | Value                         |
|------------------|-------------------------------|
| Zone             | Southern San d'Oria (ID: 230) |
| Block Size       | 116 bytes                     |
| Total Events     | 2                             |
| References Count | 4                             |

## List of Events

| Event ID              | Entrypoint   |   Size |   Instructions |
|-----------------------|--------------|--------|----------------|
| [65535](#event-65535) | 0x0000       |      1 |              1 |
| [634](#event-634)     | 0x0001       |     73 |             15 |

## DAT References (imed_data)

|   Index | Hex Value   |   Dec Value |
|---------|-------------|-------------|
|       0 | 0x008F      |         143 |
|       1 | 0x001E      |          30 |
|       2 | 0x1F6A      |        8042 |
|       3 | 0x001F      |          31 |

## String References

- **8042**: Do you have the $3? Excellent. Here, take this. The rest you must figure out for yourself.

## Events

### Event 65535

#### Metadata

| Field        | Value   |
|--------------|---------|
| Entrypoint   | 0x0000  |
| Data Size    | 1 bytes |
| Instructions | 1       |

```
      00 01 02 03 04 05 06 07  08 09 0A 0B 0C 0D 0E 0F
      -- -- -- -- -- -- -- --  -- -- -- -- -- -- -- --
0000: 00                                                .               
```

#### Opcodes

```
  0: 0x0000 [0x00] END_REQSTACK()
```

### Event 634

#### Metadata

| Field        | Value    |
|--------------|----------|
| Entrypoint   | 0x0001   |
| Data Size    | 73 bytes |
| Instructions | 15       |

```
      00 01 02 03 04 05 06 07  08 09 0A 0B 0C 0D 0E 0F
      -- -- -- -- -- -- -- --  -- -- -- -- -- -- -- --
0000:    42 1E F0 FF FF 7F 6F  70 03 02 10 00 80 66 01   B.....op.....f.
0010: 80 F8 FF FF 7F F8 FF FF  7F 74 6C 6B 30 1D 02 80  .........tlk0...
0020: 23 5E 69 64 6C 30 1C 01  80 66 03 80 F8 FF FF 7F  #^idl0...f......
0030: F8 FF FF 7F 73 61 6C 32  53 F8 FF FF 7F F8 FF FF  ....sal2S.......
0040: 7F 73 61 6C 32 1C 01 80  21 00                    .sal2...!.      
```

#### Opcodes

```
  0: 0x0001 [0x42] SET_CLI_EVENT_CANCEL_DATA()
  1: 0x0002 [0x1E] EventEntity looks at LocalPlayer and starts talking
  2: 0x0007 [0x6F] WAIT_FRAME_DELAY: Yield until WaitTime reaches zero
  3: 0x0008 [0x70] WAIT_ENTITY_RENDER_FLAG: Wait while EventEntity->Render.Flags3 bit 2 is set (cancel turn if not)
  4: 0x0009 [0x03] Work_Zone[2] = 143*
  5: 0x000E [0x66] LOAD_EXT_SCHEDULER_MAIN: Load scheduler "tlk0" with entities [EventEntity, EventEntity], work=30*
  6: 0x001D [0x1D] PRINT_EVENT_MESSAGE(message_id=8042*)
    → "Do you have the $3? Excellent. Here, take this. The rest you must figure out for yourself."
  7: 0x0020 [0x23] WAIT_FOR_DIALOG_INTERACTION
  8: 0x0021 [0x5E] EventEntity goes idle (kills current action) (animation: "idl0")
  9: 0x0026 [0x1C] WAIT(30* ticks)
 10: 0x0029 [0x66] LOAD_EXT_SCHEDULER_MAIN: Load scheduler "sal2" with entities [EventEntity, EventEntity], work=31*
 11: 0x0038 [0x53] WAIT_SCHEDULER_TASK: Wait for scheduler "sal2" with entities [EventEntity, EventEntity]
 12: 0x0045 [0x1C] WAIT(30* ticks)
 13: 0x0048 [0x21] END_EVENT
 14: 0x0049 [0x00] END_REQSTACK()
```
