# 17719552 - Ophelia

## Common Data

| Field            | Value                         |
|------------------|-------------------------------|
| Zone             | Southern San d'Oria (ID: 230) |
| Block Size       | 452 bytes                     |
| Total Events     | 4                             |
| References Count | 26                            |

## List of Events

| Event ID              | Entrypoint   |   Size |   Instructions |
|-----------------------|--------------|--------|----------------|
| [65535](#event-65535) | 0x0000       |      1 |              1 |
| [751](#event-751)     | 0x0001       |      6 |              4 |
| [752](#event-752)     | 0x0007       |    190 |             57 |
| [753](#event-753)     | 0x00C5       |    119 |             32 |

## DAT References (imed_data)

|   Index | Hex Value   |   Dec Value |
|---------|-------------|-------------|
|       0 | 0x2728      |       10024 |
|       1 | 0x2717      |       10007 |
|       2 | 0x2718      |       10008 |
|       3 | 0x2719      |       10009 |
|       4 | 0x271A      |       10010 |
|       5 | 0x0001      |           1 |
|       6 | 0x0000      |           0 |
|       7 | 0x271B      |       10011 |
|       8 | 0x271C      |       10012 |
|       9 | 0x271D      |       10013 |
|      10 | 0x271E      |       10014 |
|      11 | 0x0007      |           7 |
|      12 | 0x02A4      |         676 |
|      13 | 0x02C3      |         707 |
|      14 | 0x2769      |       10089 |
|      15 | 0x0064      |         100 |
|      16 | 0x2721      |       10017 |
|      17 | 0x2720      |       10016 |
|      18 | 0x271F      |       10015 |
|      19 | 0x2722      |       10018 |
|      20 | 0x2723      |       10019 |
|      21 | 0x2724      |       10020 |
|      22 | 0x2725      |       10021 |
|      23 | 0x2726      |       10022 |
|      24 | 0x40000000  |  1073741824 |
|      25 | 0x2727      |       10023 |

## String References

- **10007**: At the request of a certain society, I am investigating the effects of the dreaded "Emptiness" on living beings.
- **10008**: You appear to be a well-traveled adventurer. Perhaps you have seen one of the Emptiness-ravaged creatures of which I speak?
- **10009**: We have labeled these monstrosities "Empty Notorious Monsters," or ENMs...
- **10010**: Have you seen one? [Indeed I have./I'm not quite sure...]
- **10011**: Aha, so you have firsthand experience. You probably don't need a scholar's explanation, but please indulge me...
- **10012**: The material presence of ENMs has become temporary and insubstantial, meaning that those who have witnessed a particular ENM's existence are unable to encounter it again until a period of time has passed.
- **10013**: My research has allowed me to measure the length of time between ENM manifestations. Tell me, which ENM would you like to know about?
- **10014**: I wish to know about the ENM in... [Nowhere in particular./The Spire of Holla./The Spire of Dem./The Spire of Mea./The Spire of Vahzl./Monarch Linn./The Shrouded Maw./Mine Shaft #2716./Bearclaw Pinnacle./Boneyard Gully.]
- **10015**: You won't be able to encounter that particular ENM until ( Earth time).
- **10016**: The ENM in that area should be sufficiently manifest for your next encounter.
- **10017**: You have no need of my expertise at the moment? Very well.
- **10018**: And now we come to the crux of the matter...
- **10019**: If there is an ENM that you are currently able to locate, I strongly urge you to take action.
- **10020**: These...creatures...are no longer natural beings of Vana'diel. They must be destroyed.
- **10021**: I cannot elaborate on the details, but know that the fate of the world depends on the early elimination of this threat...
- **10022**: Then perhaps it is best if you forget this conversation entirely.
- **10023**: I hope I have been of some assistance to you.
- **10024**: This dark plague grows ever stronger... If it is not stopped soon...
- **10089**: Which item will you use to enter? [6./$6.]

## Events

### Event 65535

#### Metadata

| Field        | Value   |
|--------------|---------|
| Entrypoint   | 0x0000  |
| Data Size    | 1 bytes |
| Instructions | 1       |

```
      00 01 02 03 04 05 06 07  08 09 0A 0B 0C 0D 0E 0F
      -- -- -- -- -- -- -- --  -- -- -- -- -- -- -- --
0000: 00                                                .               
```

#### Opcodes

```
  0: 0x0000 [0x00] END_REQSTACK()
```

### Event 751

#### Metadata

| Field        | Value   |
|--------------|---------|
| Entrypoint   | 0x0001  |
| Data Size    | 6 bytes |
| Instructions | 4       |

```
      00 01 02 03 04 05 06 07  08 09 0A 0B 0C 0D 0E 0F
      -- -- -- -- -- -- -- --  -- -- -- -- -- -- -- --
0000:    1D 00 80 23 21 00                               ...#!.         
```

#### Opcodes

```
  0: 0x0001 [0x1D] PRINT_EVENT_MESSAGE(message_id=10024*)
    → "This dark plague grows ever stronger... If it is not stopped soon..."
  1: 0x0004 [0x23] WAIT_FOR_DIALOG_INTERACTION
  2: 0x0005 [0x21] END_EVENT
  3: 0x0006 [0x00] END_REQSTACK()
```

### Event 752

#### Metadata

| Field        | Value     |
|--------------|-----------|
| Entrypoint   | 0x0007    |
| Data Size    | 190 bytes |
| Instructions | 57        |

```
      00 01 02 03 04 05 06 07  08 09 0A 0B 0C 0D 0E 0F
      -- -- -- -- -- -- -- --  -- -- -- -- -- -- -- --
0000:                      1E  F0 FF FF 7F 1D 01 80 23         ........#
0010: 1D 02 80 23 1D 03 80 23  24 04 80 05 80 06 80 25  ...#...#$......%
0020: 02 00 10 06 80 00 AF 00  1D 07 80 23 1D 08 80 23  ...........#...#
0030: 1D 09 80 23 24 0A 80 06  80 02 10 25 02 00 10 06  ...#$......%....
0040: 80 00 47 00 01 47 00 03  01 10 00 10 02 00 10 0B  ..G..G..........
0050: 80 00 76 00 03 02 10 0C  80 03 03 10 0D 80 24 0E  ..v...........$.
0060: 80 06 80 06 80 25 02 00  10 05 80 00 76 00 03 01  .....%......v...
0070: 10 0F 80 01 76 00 43 00  43 01 02 02 10 06 80 01  ....v.C.C.......
0080: 89 00 1D 10 80 23 01 AC  00 02 03 10 06 80 00 98  .....#..........
0090: 00 1D 11 80 23 01 9C 00  1D 12 80 23 1D 13 80 23  ....#......#...#
00A0: 1D 14 80 23 1D 15 80 23  1D 16 80 23 01 C3 00 02  ...#...#...#....
00B0: 00 10 05 80 00 C3 00 1D  17 80 23 03 01 10 18 80  ..........#.....
00C0: 01 C3 00 21 00                                    ...!.           
```

#### Opcodes

```
  0: 0x0007 [0x1E] EventEntity looks at LocalPlayer and starts talking
  1: 0x000C [0x1D] PRINT_EVENT_MESSAGE(message_id=10007*)
    → "At the request of a certain society, I am investigating the effects of the dreaded "Emptiness" on living beings."
  2: 0x000F [0x23] WAIT_FOR_DIALOG_INTERACTION
  3: 0x0010 [0x1D] PRINT_EVENT_MESSAGE(message_id=10008*)
    → "You appear to be a well-traveled adventurer. Perhaps you have seen one of the Emptiness-ravaged creatures of which I speak?"
  4: 0x0013 [0x23] WAIT_FOR_DIALOG_INTERACTION
  5: 0x0014 [0x1D] PRINT_EVENT_MESSAGE(message_id=10009*)
    → "We have labeled these monstrosities "Empty Notorious Monsters," or ENMs..."
  6: 0x0017 [0x23] WAIT_FOR_DIALOG_INTERACTION
  7: 0x0018 [0x24] CREATE_DIALOG(message_id=10010*, default_option=1*, option_flags=0*)
    → "Have you seen one? [Indeed I have./I'm not quite sure...]"
  8: 0x001F [0x25] WAIT_DIALOG_SELECT()
  9: 0x0020 [0x02] IF !(Work_Zone[0] == 0*) GOTO 0x00AF
 10: 0x0028 [0x1D] PRINT_EVENT_MESSAGE(message_id=10011*)
    → "Aha, so you have firsthand experience. You probably don't need a scholar's explanation, but please indulge me..."
 11: 0x002B [0x23] WAIT_FOR_DIALOG_INTERACTION
 12: 0x002C [0x1D] PRINT_EVENT_MESSAGE(message_id=10012*)
    → "The material presence of ENMs has become temporary and insubstantial, meaning that those who have witnessed a particular ENM's existence are unable to encounter it again until a period of time has passed."
 13: 0x002F [0x23] WAIT_FOR_DIALOG_INTERACTION
 14: 0x0030 [0x1D] PRINT_EVENT_MESSAGE(message_id=10013*)
    → "My research has allowed me to measure the length of time between ENM manifestations. Tell me, which ENM would you like to know about?"
 15: 0x0033 [0x23] WAIT_FOR_DIALOG_INTERACTION
 16: 0x0034 [0x24] CREATE_DIALOG(message_id=10014*, default_option=0*, option_flags=Work_Zone[2])
    → "I wish to know about the ENM in... [Nowhere in particular./The Spire of Holla./The Spire of Dem./The Spire of Mea./The Spire of Vahzl./Monarch Linn./The Shrouded Maw./Mine Shaft #2716./Bearclaw Pinnacle./Boneyard Gully.]"
 17: 0x003B [0x25] WAIT_DIALOG_SELECT()
 18: 0x003C [0x02] IF !(Work_Zone[0] == 0*) GOTO 0x0047
 19: 0x0044 [0x01] GOTO 0x0047

SUBROUTINE_0047:
 20: 0x0047 [0x03] Work_Zone[1] = Work_Zone[0]
 21: 0x004C [0x02] IF !(Work_Zone[0] == 7*) GOTO 0x0076
 22: 0x0054 [0x03] Work_Zone[2] = 676*
 23: 0x0059 [0x03] Work_Zone[3] = 707*
 24: 0x005E [0x24] CREATE_DIALOG(message_id=10089*, default_option=0*, option_flags=0*)
    → "Which item will you use to enter? [6./$6.]"
 25: 0x0065 [0x25] WAIT_DIALOG_SELECT()
 26: 0x0066 [0x02] IF !(Work_Zone[0] == 1*) GOTO 0x0076
 27: 0x006E [0x03] Work_Zone[1] = 100*
 28: 0x0073 [0x01] GOTO 0x0076

SUBROUTINE_0076:
 29: 0x0076 [0x43] SEND_EVENT_UPDATE: Send pending tag to server (packet 0x005B)
 30: 0x0078 [0x43] SEND_EVENT_UPDATE: Check pending flag (skip if not pending)
 31: 0x007A [0x02] IF !(Work_Zone[2] == 0*) GOTO 0x0089
 32: 0x0082 [0x1D] PRINT_EVENT_MESSAGE(message_id=10017*)
    → "You have no need of my expertise at the moment? Very well."
 33: 0x0085 [0x23] WAIT_FOR_DIALOG_INTERACTION
 34: 0x0086 [0x01] GOTO 0x00AC
 35: 0x0089 [0x02] IF !(Work_Zone[3] == 0*) GOTO 0x0098
 36: 0x0091 [0x1D] PRINT_EVENT_MESSAGE(message_id=10016*)
    → "The ENM in that area should be sufficiently manifest for your next encounter."
 37: 0x0094 [0x23] WAIT_FOR_DIALOG_INTERACTION
 38: 0x0095 [0x01] GOTO 0x009C
 39: 0x0098 [0x1D] PRINT_EVENT_MESSAGE(message_id=10015*)
    → "You won't be able to encounter that particular ENM until ( Earth time)."
 40: 0x009B [0x23] WAIT_FOR_DIALOG_INTERACTION

SUBROUTINE_009C:
 41: 0x009C [0x1D] PRINT_EVENT_MESSAGE(message_id=10018*)
    → "And now we come to the crux of the matter..."
 42: 0x009F [0x23] WAIT_FOR_DIALOG_INTERACTION
 43: 0x00A0 [0x1D] PRINT_EVENT_MESSAGE(message_id=10019*)
    → "If there is an ENM that you are currently able to locate, I strongly urge you to take action."
 44: 0x00A3 [0x23] WAIT_FOR_DIALOG_INTERACTION
 45: 0x00A4 [0x1D] PRINT_EVENT_MESSAGE(message_id=10020*)
    → "These...creatures...are no longer natural beings of Vana'diel. They must be destroyed."
 46: 0x00A7 [0x23] WAIT_FOR_DIALOG_INTERACTION
 47: 0x00A8 [0x1D] PRINT_EVENT_MESSAGE(message_id=10021*)
    → "I cannot elaborate on the details, but know that the fate of the world depends on the early elimination of this threat..."
 48: 0x00AB [0x23] WAIT_FOR_DIALOG_INTERACTION

SUBROUTINE_00AC:
 49: 0x00AC [0x01] GOTO 0x00C3
 50: 0x00AF [0x02] IF !(Work_Zone[0] == 1*) GOTO 0x00C3
 51: 0x00B7 [0x1D] PRINT_EVENT_MESSAGE(message_id=10022*)
    → "Then perhaps it is best if you forget this conversation entirely."
 52: 0x00BA [0x23] WAIT_FOR_DIALOG_INTERACTION
 53: 0x00BB [0x03] Work_Zone[1] = 1073741824*
 54: 0x00C0 [0x01] GOTO 0x00C3

SUBROUTINE_00C3:
 55: 0x00C3 [0x21] END_EVENT
 56: 0x00C4 [0x00] END_REQSTACK()
```

### Event 753

#### Metadata

| Field        | Value     |
|--------------|-----------|
| Entrypoint   | 0x00C5    |
| Data Size    | 119 bytes |
| Instructions | 32        |

```
      00 01 02 03 04 05 06 07  08 09 0A 0B 0C 0D 0E 0F
      -- -- -- -- -- -- -- --  -- -- -- -- -- -- -- --
00C0:                1E F0 FF  FF 7F 1D 09 80 23 24 0A       ........#$.
00D0: 80 06 80 02 10 25 02 00  10 06 80 00 E1 00 01 E1  .....%..........
00E0: 00 03 01 10 00 10 02 00  10 0B 80 00 10 01 03 02  ................
00F0: 10 0C 80 03 03 10 0D 80  24 0E 80 06 80 06 80 25  ........$......%
0100: 02 00 10 05 80 00 10 01  03 01 10 0F 80 01 10 01  ................
0110: 43 00 43 01 02 02 10 06  80 01 23 01 1D 10 80 23  C.C.......#....#
0120: 01 3A 01 02 03 10 06 80  00 32 01 1D 11 80 23 01  .:.......2....#.
0130: 36 01 1D 12 80 23 1D 19  80 23 21 00              6....#...#!.    
```

#### Opcodes

```
  0: 0x00C5 [0x1E] EventEntity looks at LocalPlayer and starts talking
  1: 0x00CA [0x1D] PRINT_EVENT_MESSAGE(message_id=10013*)
    → "My research has allowed me to measure the length of time between ENM manifestations. Tell me, which ENM would you like to know about?"
  2: 0x00CD [0x23] WAIT_FOR_DIALOG_INTERACTION
  3: 0x00CE [0x24] CREATE_DIALOG(message_id=10014*, default_option=0*, option_flags=Work_Zone[2])
    → "I wish to know about the ENM in... [Nowhere in particular./The Spire of Holla./The Spire of Dem./The Spire of Mea./The Spire of Vahzl./Monarch Linn./The Shrouded Maw./Mine Shaft #2716./Bearclaw Pinnacle./Boneyard Gully.]"
  4: 0x00D5 [0x25] WAIT_DIALOG_SELECT()
  5: 0x00D6 [0x02] IF !(Work_Zone[0] == 0*) GOTO 0x00E1
  6: 0x00DE [0x01] GOTO 0x00E1

SUBROUTINE_00E1:
  7: 0x00E1 [0x03] Work_Zone[1] = Work_Zone[0]
  8: 0x00E6 [0x02] IF !(Work_Zone[0] == 7*) GOTO 0x0110
  9: 0x00EE [0x03] Work_Zone[2] = 676*
 10: 0x00F3 [0x03] Work_Zone[3] = 707*
 11: 0x00F8 [0x24] CREATE_DIALOG(message_id=10089*, default_option=0*, option_flags=0*)
    → "Which item will you use to enter? [6./$6.]"
 12: 0x00FF [0x25] WAIT_DIALOG_SELECT()
 13: 0x0100 [0x02] IF !(Work_Zone[0] == 1*) GOTO 0x0110
 14: 0x0108 [0x03] Work_Zone[1] = 100*
 15: 0x010D [0x01] GOTO 0x0110

SUBROUTINE_0110:
 16: 0x0110 [0x43] SEND_EVENT_UPDATE: Send pending tag to server (packet 0x005B)
 17: 0x0112 [0x43] SEND_EVENT_UPDATE: Check pending flag (skip if not pending)
 18: 0x0114 [0x02] IF !(Work_Zone[2] == 0*) GOTO 0x0123
 19: 0x011C [0x1D] PRINT_EVENT_MESSAGE(message_id=10017*)
    → "You have no need of my expertise at the moment? Very well."
 20: 0x011F [0x23] WAIT_FOR_DIALOG_INTERACTION
 21: 0x0120 [0x01] GOTO 0x013A
 22: 0x0123 [0x02] IF !(Work_Zone[3] == 0*) GOTO 0x0132
 23: 0x012B [0x1D] PRINT_EVENT_MESSAGE(message_id=10016*)
    → "The ENM in that area should be sufficiently manifest for your next encounter."
 24: 0x012E [0x23] WAIT_FOR_DIALOG_INTERACTION
 25: 0x012F [0x01] GOTO 0x0136
 26: 0x0132 [0x1D] PRINT_EVENT_MESSAGE(message_id=10015*)
    → "You won't be able to encounter that particular ENM until ( Earth time)."
 27: 0x0135 [0x23] WAIT_FOR_DIALOG_INTERACTION

SUBROUTINE_0136:
 28: 0x0136 [0x1D] PRINT_EVENT_MESSAGE(message_id=10023*)
    → "I hope I have been of some assistance to you."
 29: 0x0139 [0x23] WAIT_FOR_DIALOG_INTERACTION

SUBROUTINE_013A:
 30: 0x013A [0x21] END_EVENT
 31: 0x013B [0x00] END_REQSTACK()
```
