# 17719720

## Common Data

| Field            | Value                         |
|------------------|-------------------------------|
| Zone             | Southern San d'Oria (ID: 230) |
| Block Size       | 42696 bytes                   |
| Total Events     | 5                             |
| References Count | 202                           |

## List of Events

| Event ID              | Entrypoint   |   Size |   Instructions |
|-----------------------|--------------|--------|----------------|
| [65535](#event-65535) | 0x0000       |    658 |             62 |
| [3630](#event-3630)   | 0x0292       |    790 |            113 |
| [3631](#event-3631)   | 0x05A8       |   2110 |            360 |
| [3632](#event-3632)   | 0x0DE6       |   3006 |            534 |
| [3633](#event-3633)   | 0x19A4       |  35287 |           5291 |

## DAT References (imed_data)

|   Index | Hex Value   |   Dec Value |
|---------|-------------|-------------|
|       0 | 0x00C8      |         200 |
|       1 | 0x0000      |           0 |
|       2 | 0x00C9      |         201 |
|       3 | 0x0001      |           1 |
|       4 | 0x002D      |          45 |
|       5 | 0x0002      |           2 |
|       6 | 0x001E      |          30 |
|       7 | 0x00D7      |         215 |
|       8 | 0x0A4C      |        2636 |
|       9 | 0x1E13380   |    31536000 |
|      10 | 0x40DD      |       16605 |
|      11 | 0x0AC3      |        2755 |
|      12 | 0x40DE      |       16606 |
|      13 | 0x0078      |         120 |
|      14 | 0x40DF      |       16607 |
|      15 | 0x40E0      |       16608 |
|      16 | 0x40E1      |       16609 |
|      17 | 0x40E2      |       16610 |
|      18 | 0x0A57      |        2647 |
|      19 | 0x40E3      |       16611 |
|      20 | 0x40E4      |       16612 |
|      21 | 0x40E5      |       16613 |
|      22 | 0x0A53      |        2643 |
|      23 | 0x40E6      |       16614 |
|      24 | 0x40E7      |       16615 |
|      25 | 0x40E8      |       16616 |
|      26 | 0x67B2      |       26546 |
|      27 | 0x40EA      |       16618 |
|      28 | 0x40EB      |       16619 |
|      29 | 0x40E9      |       16617 |
|      30 | 0x0DEE      |        3566 |
|      31 | 0x4101      |       16641 |
|      32 | 0x4102      |       16642 |
|      33 | 0x4103      |       16643 |
|      34 | 0x0003      |           3 |
|      35 | 0x03FE      |        1022 |
|      36 | 0x0005      |           5 |
|      37 | 0x0009      |           9 |
|      38 | 0x40ED      |       16621 |
|      39 | 0x40EE      |       16622 |
|      40 | 0x40EF      |       16623 |
|      41 | 0x40F0      |       16624 |
|      42 | 0x4104      |       16644 |
|      43 | 0x4105      |       16645 |
|      44 | 0x4106      |       16646 |
|      45 | 0x4107      |       16647 |
|      46 | 0x4108      |       16648 |
|      47 | 0x4109      |       16649 |
|      48 | 0x000A      |          10 |
|      49 | 0x410A      |       16650 |
|      50 | 0x0004      |           4 |
|      51 | 0x0006      |           6 |
|      52 | 0x0007      |           7 |
|      53 | 0x0008      |           8 |
|      54 | 0x0013      |          19 |
|      55 | 0x410B      |       16651 |
|      56 | 0x000B      |          11 |
|      57 | 0x000C      |          12 |
|      58 | 0x000D      |          13 |
|      59 | 0x000E      |          14 |
|      60 | 0x000F      |          15 |
|      61 | 0x410C      |       16652 |
|      62 | 0x410F      |       16655 |
|      63 | 0x4110      |       16656 |
|      64 | 0x0010      |          16 |
|      65 | 0x410D      |       16653 |
|      66 | 0x410E      |       16654 |
|      67 | 0x4111      |       16657 |
|      68 | 0x4112      |       16658 |
|      69 | 0x4113      |       16659 |
|      70 | 0x4114      |       16660 |
|      71 | 0x4115      |       16661 |
|      72 | 0x4116      |       16662 |
|      73 | 0x40EC      |       16620 |
|      74 | 0x3F17      |       16151 |
|      75 | 0x0093      |         147 |
|      76 | 0x00FF      |         255 |
|      77 | 0x0363      |         867 |
|      78 | 0x40F1      |       16625 |
|      79 | 0x40F2      |       16626 |
|      80 | 0x003C      |          60 |
|      81 | 0x40F3      |       16627 |
|      82 | 0x40F4      |       16628 |
|      83 | 0x0168      |         360 |
|      84 | 0x40F5      |       16629 |
|      85 | 0x0014      |          20 |
|      86 | 0x00F0      |         240 |
|      87 | 0x40F6      |       16630 |
|      88 | 0x40F7      |       16631 |
|      89 | 0x40F8      |       16632 |
|      90 | 0x00B4      |         180 |
|      91 | 0x40F9      |       16633 |
|      92 | 0x40FA      |       16634 |
|      93 | 0x40FB      |       16635 |
|      94 | 0x40FC      |       16636 |
|      95 | 0x40FD      |       16637 |
|      96 | 0x40FE      |       16638 |
|      97 | 0x40FF      |       16639 |
|      98 | 0x4100      |       16640 |
|      99 | 0x0040      |          64 |
|     100 | 0x4117      |       16663 |
|     101 | 0x4118      |       16664 |
|     102 | 0x4119      |       16665 |
|     103 | 0x411B      |       16667 |
|     104 | 0x411C      |       16668 |
|     105 | 0x411A      |       16666 |
|     106 | 0x4129      |       16681 |
|     107 | 0x0063      |          99 |
|     108 | 0xFFFFFF9D  |  4294967197 |
|     109 | 0x412B      |       16683 |
|     110 | 0xFFFFFFFF  |  4294967295 |
|     111 | 0x412A      |       16682 |
|     112 | 0xFFFFFC19  |  4294966297 |
|     113 | 0x412C      |       16684 |
|     114 | 0xFFFFFC18  |  4294966296 |
|     115 | 0x4128      |       16680 |
|     116 | 0x0011      |          17 |
|     117 | 0x0012      |          18 |
|     118 | 0x0015      |          21 |
|     119 | 0x0016      |          22 |
|     120 | 0x0017      |          23 |
|     121 | 0x0018      |          24 |
|     122 | 0x0019      |          25 |
|     123 | 0x001A      |          26 |
|     124 | 0x001B      |          27 |
|     125 | 0x001C      |          28 |
|     126 | 0x001D      |          29 |
|     127 | 0x001F      |          31 |
|     128 | 0x006B      |         107 |
|     129 | 0x2710      |       10000 |
|     130 | 0x05DC      |        1500 |
|     131 | 0xFFFFC180  |  4294951296 |
|     132 | 0x0578      |        1400 |
|     133 | 0x07FF      |        2047 |
|     134 | 0x0258      |         600 |
|     135 | 0xFFFFB7BC  |  4294948796 |
|     136 | 0x07D0      |        2000 |
|     137 | 0xFFFFFC01  |  4294966273 |
|     138 | 0xFFFFFDA8  |  4294966696 |
|     139 | 0xFFFFFA24  |  4294965796 |
|     140 | 0xFFFFFF74  |  4294967156 |
|     141 | 0x0020      |          32 |
|     142 | 0x0021      |          33 |
|     143 | 0x0022      |          34 |
|     144 | 0x0023      |          35 |
|     145 | 0x0024      |          36 |
|     146 | 0x0025      |          37 |
|     147 | 0x0026      |          38 |
|     148 | 0x0027      |          39 |
|     149 | 0x0028      |          40 |
|     150 | 0x0029      |          41 |
|     151 | 0x002A      |          42 |
|     152 | 0x002B      |          43 |
|     153 | 0x002C      |          44 |
|     154 | 0x002E      |          46 |
|     155 | 0x002F      |          47 |
|     156 | 0x0030      |          48 |
|     157 | 0x0031      |          49 |
|     158 | 0x0032      |          50 |
|     159 | 0x0033      |          51 |
|     160 | 0x0034      |          52 |
|     161 | 0x0035      |          53 |
|     162 | 0x0036      |          54 |
|     163 | 0x0037      |          55 |
|     164 | 0x0038      |          56 |
|     165 | 0x0039      |          57 |
|     166 | 0x003A      |          58 |
|     167 | 0x003B      |          59 |
|     168 | 0x003D      |          61 |
|     169 | 0x003E      |          62 |
|     170 | 0x003F      |          63 |
|     171 | 0x0871      |        2161 |
|     172 | 0x00D0      |         208 |
|     173 | 0x0068      |         104 |
|     174 | 0xFFFFFF9C  |  4294967196 |
|     175 | 0x0080      |         128 |
|     176 | 0x0081      |         129 |
|     177 | 0x00EB      |         235 |
|     178 | 0x0073      |         115 |
|     179 | 0x0823      |        2083 |
|     180 | 0x0A55      |        2645 |
|     181 | 0x0368      |         872 |
|     182 | 0x561F      |       22047 |
|     183 | 0x5620      |       22048 |
|     184 | 0x5621      |       22049 |
|     185 | 0x165C      |        5724 |
|     186 | 0x1987      |        6535 |
|     187 | 0x1989      |        6537 |
|     188 | 0x2207      |        8711 |
|     189 | 0x230D      |        8973 |
|     190 | 0x2402      |        9218 |
|     191 | 0x243D      |        9277 |
|     192 | 0x243A      |        9274 |
|     193 | 0x0366      |         870 |
|     194 | 0xFFFFBE1A  |  4294950426 |
|     195 | 0xFFFFFC00  |  4294966272 |
|     196 | 0x0122      |         290 |
|     197 | 0xFFFFFEDE  |  4294967006 |
|     198 | 0xFFFFFC9A  |  4294966426 |
|     199 | 0xFFFFC05E  |  4294951006 |
|     200 | 0xFFFFC2A2  |  4294951586 |
|     201 | 0xFFFFC4E6  |  4294952166 |

## String References

- **16151**: @@
- **16624**: Read the manual? [Sure./No thanks.]
- **16625**: Mandragora Mania Madness is a game in which players battle by placing different colored game pieces on a 4x4 playing area.
- **16626**: You use the white pieces (mandragoras), while your opponent uses the black pieces (corrigans).
- **16627**: The player to go first is determined randomly when the game begins. You will be able to adjust these settings yourself from the second game onward.
- **16628**: The first player to place four pieces so they align in a row will be declared the winner.
- **16629**: However, you will automatically be disqualified if you ever place three of your pieces in a row, so be mindful of your moves at all times.
- **16630**: Note that if you place your game pieces so that you have both three and four pieces in a row, the row with four pieces will take precedence and you will win the game.
- **16631**: If you place a game piece on either side of your opponent's piece, you will convert it into one of your pieces.
- **16632**: You can play anywhere from three to five games, and the first player to win three games is the winner.
- **16633**: Now, for an explanation on points.
- **16634**: You receive points after the completion of each game. The points are tallied using units known as mandy.
- **16635**: If you win the game, you will receive a number of points equal to the number of game pieces you have on the board. In the example shown, you will earn 8 mandy.
- **16636**: Even if you lose the game, you will receive a number of points equal to half the number of your game pieces on the board (rounded off to avoid fractions).
- **16637**: The first player to win three games gets to keep all of the points they have earned, although you won't get any points if you quit partway.
- **16638**: Occasionally, you might get to play a bonus game, where your pieces are pink (adenium) or feature a watermelon pattern (citrullus).
- **16639**: They are worth $0x and $1x the points, respectively, giving you the chance to quickly score a large number of points.
- **16640**: The key to victory is to not just try and place four pieces in a row, but to position your pieces in a way that forces your opponent to place three pieces in a row.
- **16649**: Do which? ($1 mandy) [Play vs. [Green Thumb Moogle/Monsieur Kupont/Susuroon/a lamb/Yeestog/Atelloune/Kuyin Hathdenna/Kupofried/Chacharoon/Sakura/a random opponent]./Play (select opponent)./Purchase prizes./Read an explanation./None of the above.]
- **16650**: Play against whom? [Green Thumb Moogle./Monsieur Kupont./Susuroon./A lamb./Yeestog./Atelloune./Kuyin Hathdenna./Kupofried./Chacharoon./Sakura./???/???/???/???/???/???/???/???/???/Back.]
- **16651**: This opponent has not yet been unlocked.
- **16653**: This reward will become available once you have defeated a particular opponent.
- **16654**: You do not have enough mandy.
- **16655**: You already have $2.
- **16656**: You may only purchase one of those per day (Earth time).
- **16663**: --- Game $0 ($1W-$2L) ---
- **16664**: $26$25$26[Adenium/Citrullus] bonus active! ($1x mandy)$26$25$26
- **16665**: Place on which area? [Area 1./Area 2./Area 3./Area 4./Area 5./Area 6./Area 7./Area 8./Area 9./Area 10./Area 11./Area 12./Area 13./Area 14./Area 15./Area 16./Pass.]
- **16666**: There is already a piece in this location.
- **16667**: You will forfeit all mandy earned this game if you give up. Are you sure?
- **16668**: Really give up? [Yes./No.]
- **16680**: aDEBUGbPlace on which area? [Area 1./Area 2./Area 3./Area 4./Area 5./Area 6./Area 7./Area 8./Area 9./Area 10./Area 11./Area 12./Area 13./Area 14./Area 15./Area 16./Pass.]
- **16681**: DEBUG(NPC Selection): Area $0
- **16682**: RANDOM ([Bonus Game Selection/Four Corners Selection]): 0-$1 = $2
- **16683**: DEBUG (Specific Placement Confirmation $3): Area $0 > [A/B/C/D/E/F/G/H]$2
- **16684**: $0 $1 $2 $3

## Events

### Event 65535

#### Metadata

| Field        | Value     |
|--------------|-----------|
| Entrypoint   | 0x0000    |
| Data Size    | 658 bytes |
| Instructions | 1         |

```
      00 01 02 03 04 05 06 07  08 09 0A 0B 0C 0D 0E 0F
      -- -- -- -- -- -- -- --  -- -- -- -- -- -- -- --
0000: 00 45 00 80 F0 FF FF 7F  F0 FF FF 7F 66 64 69 30  .E..........fdi0
0010: 01 80 55 00 80 F0 FF FF  7F F0 FF FF 7F 66 64 69  ..U..........fdi
0020: 30 1B 45 00 80 F0 FF FF  7F F0 FF FF 7F 66 64 6F  0.E..........fdo
0030: 30 01 80 55 00 80 F0 FF  FF 7F F0 FF FF 7F 66 64  0..U..........fd
0040: 6F 30 1B 45 00 80 F0 FF  FF 7F F0 FF FF 7F 66 64  o0.E..........fd
0050: 69 31 01 80 55 00 80 F0  FF FF 7F F0 FF FF 7F 66  i1..U..........f
0060: 64 69 31 1B 45 00 80 F0  FF FF 7F F0 FF FF 7F 66  di1.E..........f
0070: 64 6F 31 01 80 55 00 80  F0 FF FF 7F F0 FF FF 7F  do1..U..........
0080: 66 64 6F 31 1B 45 02 80  F0 FF FF 7F F0 FF FF 7F  fdo1.E..........
0090: 77 68 69 31 01 80 55 02  80 F0 FF FF 7F F0 FF FF  whi1..U.........
00A0: 7F 77 68 69 31 1B 45 02  80 F0 FF FF 7F F0 FF FF  .whi1.E.........
00B0: 7F 77 68 6F 31 01 80 55  02 80 F0 FF FF 7F F0 FF  .who1..U........
00C0: FF 7F 77 68 6F 31 1B 45  02 80 F0 FF FF 7F F0 FF  ..who1.E........
00D0: FF 7F 77 68 6F 32 01 80  55 02 80 F0 FF FF 7F F0  ..who2..U.......
00E0: FF FF 7F 77 68 6F 32 1B  45 02 80 F0 FF FF 7F F0  ...who2.E.......
00F0: FF FF 7F 77 68 6F 33 01  80 55 02 80 F0 FF FF 7F  ...who3..U......
0100: F0 FF FF 7F 77 68 6F 33  1B 62 03 80 F0 FF FF 7F  ....who3.b......
0110: F0 FF FF 7F 6D 61 69 6E  01 80 1C 04 80 45 00 80  ....main.....E..
0120: F0 FF FF 7F F0 FF FF 7F  66 64 6F 31 01 80 55 00  ........fdo1..U.
0130: 80 F0 FF FF 7F F0 FF FF  7F 66 64 6F 31 1B 45 00  .........fdo1.E.
0140: 80 F0 FF FF 7F F0 FF FF  7F 66 64 69 31 01 80 62  .........fdi1..b
0150: 05 80 F0 FF FF 7F F0 FF  FF 7F 6D 61 69 6E 01 80  ..........main..
0160: 1C 06 80 55 00 80 F0 FF  FF 7F F0 FF FF 7F 66 64  ...U..........fd
0170: 69 31 1B 45 00 80 F0 FF  FF 7F F0 FF FF 7F 62 6C  i1.E..........bl
0180: 6F 6E 01 80 45 02 80 F0  FF FF 7F F0 FF FF 7F 62  on..E..........b
0190: 6C 6F 6E 01 80 1B 45 02  80 F0 FF FF 7F F0 FF FF  lon...E.........
01A0: 7F 77 68 69 30 01 80 55  02 80 F0 FF FF 7F F0 FF  .whi0..U........
01B0: FF 7F 77 68 69 30 1B 45  02 80 F0 FF FF 7F F0 FF  ..whi0.E........
01C0: FF 7F 77 68 6F 30 01 80  55 02 80 F0 FF FF 7F F0  ..who0..U.......
01D0: FF FF 7F 77 68 6F 30 1B  45 07 80 F0 FF FF 7F F0  ...who0.E.......
01E0: FF FF 7F 65 66 6F 6E 01  80 55 07 80 F0 FF FF 7F  ...efon..U......
01F0: F0 FF FF 7F 65 66 6F 6E  1B 45 00 80 F0 FF FF 7F  ....efon.E......
0200: F0 FF FF 7F 66 64 69 73  01 80 1B 45 00 80 F0 FF  ....fdis...E....
0210: FF 7F F0 FF FF 7F 66 64  6F 73 01 80 55 00 80 F0  ......fdos..U...
0220: FF FF 7F F0 FF FF 7F 66  64 6F 73 1B 45 00 80 F0  .......fdos.E...
0230: FF FF 7F F0 FF FF 7F 66  64 69 66 01 80 1B 45 00  .......fdif...E.
0240: 80 F0 FF FF 7F F0 FF FF  7F 66 64 6F 66 01 80 55  .........fdof..U
0250: 00 80 F0 FF FF 7F F0 FF  FF 7F 66 64 6F 66 1B 45  ..........fdof.E
0260: 00 80 F0 FF FF 7F F0 FF  FF 7F 66 64 69 70 01 80  ..........fdip..
0270: 1B 45 00 80 F0 FF FF 7F  F0 FF FF 7F 66 64 6F 70  .E..........fdop
0280: 01 80 55 00 80 F0 FF FF  7F F0 FF FF 7F 66 64 6F  ..U..........fdo
0290: 70 1B                                             p.              
```

#### Opcodes

```
  0: 0x0000 [0x00] END_REQSTACK()
```

#### Data or dead code:

```
# Dead code (unreachable instructions):
     0x0001 [0x45] LOAD_SCHEDULED_TASK: Load scheduler "fdi0" with entities [LocalPlayer, LocalPlayer], work=[200*, 0*]
     0x0012 [0x55] WAIT_LOAD_SCHEDULER: Wait for scheduler "fdi0" with entities [LocalPlayer, LocalPlayer], work=200*
     0x0021 [0x1B] RETURN
     0x0022 [0x45] LOAD_SCHEDULED_TASK: Load scheduler "fdo0" with entities [LocalPlayer, LocalPlayer], work=[200*, 0*]
     0x0033 [0x55] WAIT_LOAD_SCHEDULER: Wait for scheduler "fdo0" with entities [LocalPlayer, LocalPlayer], work=200*
     0x0042 [0x1B] RETURN
     0x0043 [0x45] LOAD_SCHEDULED_TASK: Load scheduler "fdi1" with entities [LocalPlayer, LocalPlayer], work=[200*, 0*]
     0x0054 [0x55] WAIT_LOAD_SCHEDULER: Wait for scheduler "fdi1" with entities [LocalPlayer, LocalPlayer], work=200*
     0x0063 [0x1B] RETURN
     0x0064 [0x45] LOAD_SCHEDULED_TASK: Load scheduler "fdo1" with entities [LocalPlayer, LocalPlayer], work=[200*, 0*]
     0x0075 [0x55] WAIT_LOAD_SCHEDULER: Wait for scheduler "fdo1" with entities [LocalPlayer, LocalPlayer], work=200*
     0x0084 [0x1B] RETURN
     0x0085 [0x45] LOAD_SCHEDULED_TASK: Load scheduler "whi1" with entities [LocalPlayer, LocalPlayer], work=[201*, 0*]
     0x0096 [0x55] WAIT_LOAD_SCHEDULER: Wait for scheduler "whi1" with entities [LocalPlayer, LocalPlayer], work=201*
     0x00A5 [0x1B] RETURN
     0x00A6 [0x45] LOAD_SCHEDULED_TASK: Load scheduler "who1" with entities [LocalPlayer, LocalPlayer], work=[201*, 0*]
     0x00B7 [0x55] WAIT_LOAD_SCHEDULER: Wait for scheduler "who1" with entities [LocalPlayer, LocalPlayer], work=201*
     0x00C6 [0x1B] RETURN
     0x00C7 [0x45] LOAD_SCHEDULED_TASK: Load scheduler "who2" with entities [LocalPlayer, LocalPlayer], work=[201*, 0*]
     0x00D8 [0x55] WAIT_LOAD_SCHEDULER: Wait for scheduler "who2" with entities [LocalPlayer, LocalPlayer], work=201*
     0x00E7 [0x1B] RETURN
     0x00E8 [0x45] LOAD_SCHEDULED_TASK: Load scheduler "who3" with entities [LocalPlayer, LocalPlayer], work=[201*, 0*]
     0x00F9 [0x55] WAIT_LOAD_SCHEDULER: Wait for scheduler "who3" with entities [LocalPlayer, LocalPlayer], work=201*
     0x0108 [0x1B] RETURN
     0x0109 [0x62] LOAD_EVENT_SCHEDULER: Load scheduler "main" with entities [LocalPlayer, LocalPlayer], work=[1*, 0*]
     0x011A [0x1C] WAIT(45* ticks)
     0x011D [0x45] LOAD_SCHEDULED_TASK: Load scheduler "fdo1" with entities [LocalPlayer, LocalPlayer], work=[200*, 0*]
     0x012E [0x55] WAIT_LOAD_SCHEDULER: Wait for scheduler "fdo1" with entities [LocalPlayer, LocalPlayer], work=200*
     0x013D [0x1B] RETURN
     0x013E [0x45] LOAD_SCHEDULED_TASK: Load scheduler "fdi1" with entities [LocalPlayer, LocalPlayer], work=[200*, 0*]
     0x014F [0x62] LOAD_EVENT_SCHEDULER: Load scheduler "main" with entities [LocalPlayer, LocalPlayer], work=[2*, 0*]
     0x0160 [0x1C] WAIT(30* ticks)
     0x0163 [0x55] WAIT_LOAD_SCHEDULER: Wait for scheduler "fdi1" with entities [LocalPlayer, LocalPlayer], work=200*
     0x0172 [0x1B] RETURN
     0x0173 [0x45] LOAD_SCHEDULED_TASK: Load scheduler "blon" with entities [LocalPlayer, LocalPlayer], work=[200*, 0*]
     0x0184 [0x45] LOAD_SCHEDULED_TASK: Load scheduler "blon" with entities [LocalPlayer, LocalPlayer], work=[201*, 0*]
     0x0195 [0x1B] RETURN
     0x0196 [0x45] LOAD_SCHEDULED_TASK: Load scheduler "whi0" with entities [LocalPlayer, LocalPlayer], work=[201*, 0*]
     0x01A7 [0x55] WAIT_LOAD_SCHEDULER: Wait for scheduler "whi0" with entities [LocalPlayer, LocalPlayer], work=201*
     0x01B6 [0x1B] RETURN
     0x01B7 [0x45] LOAD_SCHEDULED_TASK: Load scheduler "who0" with entities [LocalPlayer, LocalPlayer], work=[201*, 0*]
     0x01C8 [0x55] WAIT_LOAD_SCHEDULER: Wait for scheduler "who0" with entities [LocalPlayer, LocalPlayer], work=201*
     0x01D7 [0x1B] RETURN
     0x01D8 [0x45] LOAD_SCHEDULED_TASK: Load scheduler "efon" with entities [LocalPlayer, LocalPlayer], work=[215*, 0*]
     0x01E9 [0x55] WAIT_LOAD_SCHEDULER: Wait for scheduler "efon" with entities [LocalPlayer, LocalPlayer], work=215*
     0x01F8 [0x1B] RETURN
     0x01F9 [0x45] LOAD_SCHEDULED_TASK: Load scheduler "fdis" with entities [LocalPlayer, LocalPlayer], work=[200*, 0*]
     0x020A [0x1B] RETURN
     0x020B [0x45] LOAD_SCHEDULED_TASK: Load scheduler "fdos" with entities [LocalPlayer, LocalPlayer], work=[200*, 0*]
     0x021C [0x55] WAIT_LOAD_SCHEDULER: Wait for scheduler "fdos" with entities [LocalPlayer, LocalPlayer], work=200*
     0x022B [0x1B] RETURN
     0x022C [0x45] LOAD_SCHEDULED_TASK: Load scheduler "fdif" with entities [LocalPlayer, LocalPlayer], work=[200*, 0*]
     0x023D [0x1B] RETURN
     0x023E [0x45] LOAD_SCHEDULED_TASK: Load scheduler "fdof" with entities [LocalPlayer, LocalPlayer], work=[200*, 0*]
     0x024F [0x55] WAIT_LOAD_SCHEDULER: Wait for scheduler "fdof" with entities [LocalPlayer, LocalPlayer], work=200*
     0x025E [0x1B] RETURN
     0x025F [0x45] LOAD_SCHEDULED_TASK: Load scheduler "fdip" with entities [LocalPlayer, LocalPlayer], work=[200*, 0*]
     0x0270 [0x1B] RETURN
     0x0271 [0x45] LOAD_SCHEDULED_TASK: Load scheduler "fdop" with entities [LocalPlayer, LocalPlayer], work=[200*, 0*]
     0x0282 [0x55] WAIT_LOAD_SCHEDULER: Wait for scheduler "fdop" with entities [LocalPlayer, LocalPlayer], work=200*
     0x0291 [0x1B] RETURN
```

### Event 3630

#### Metadata

| Field        | Value     |
|--------------|-----------|
| Entrypoint   | 0x0292    |
| Data Size    | 790 bytes |
| Instructions | 113       |

```
      00 01 02 03 04 05 06 07  08 09 0A 0B 0C 0D 0E 0F
      -- -- -- -- -- -- -- --  -- -- -- -- -- -- -- --
0290:       03 00 00 02 10 02  00 00 01 80 80 62 04 4A    ...........b.J
02A0: A9 61 0E 01 F0 FF FF 7F  6F 76 A9 61 0E 01 4A F0  .a......ov.a..J.
02B0: FF FF 7F A9 61 0E 01 5B  08 80 A9 61 0E 01 A9 61  ....a..[...a...a
02C0: 0E 01 68 61 70 30 83 04  10 15 04 10 09 80 2B A9  ..hap0........+.
02D0: 61 0E 01 0A 80 23 5B 08  80 A9 61 0E 01 A9 61 0E  a....#[...a...a.
02E0: 01 73 74 64 30 1C 06 80  5B 0B 80 A9 61 0E 01 A9  .std0...[...a...
02F0: 61 0E 01 70 6E 62 30 2B  A9 61 0E 01 0C 80 1C 0D  a..pnb0+.a......
0300: 80 23 5B 08 80 A9 61 0E  01 A9 61 0E 01 74 6C 6B  .#[...a...a..tlk
0310: 30 2B A9 61 0E 01 0E 80  23 2B A9 61 0E 01 0F 80  0+.a....#+.a....
0320: 23 2B A9 61 0E 01 10 80  23 2B A9 61 0E 01 11 80  #+.a....#+.a....
0330: 23 5B 08 80 A9 61 0E 01  A9 61 0E 01 73 74 64 30  #[...a...a..std0
0340: 1C 06 80 4A A9 61 0E 01  AA 61 0E 01 6F 76 A9 61  ...J.a...a..ov.a
0350: 0E 01 5B 12 80 A9 61 0E  01 A9 61 0E 01 70 6E 74  ..[...a...a..pnt
0360: 30 2B A9 61 0E 01 13 80  53 A9 61 0E 01 A9 61 0E  0+.a....S.a...a.
0370: 01 70 6E 74 30 23 5B 12  80 A9 61 0E 01 A9 61 0E  .pnt0#[...a...a.
0380: 01 70 6E 74 31 53 A9 61  0E 01 A9 61 0E 01 70 6E  .pnt1S.a...a..pn
0390: 74 31 4A A9 61 0E 01 F0  FF FF 7F 6F 76 A9 61 0E  t1J.a......ov.a.
03A0: 01 5B 08 80 A9 61 0E 01  A9 61 0E 01 68 61 70 30  .[...a...a..hap0
03B0: 2B A9 61 0E 01 14 80 53  A9 61 0E 01 A9 61 0E 01  +.a....S.a...a..
03C0: 68 61 70 30 23 5B 08 80  A9 61 0E 01 A9 61 0E 01  hap0#[...a...a..
03D0: 73 74 64 30 1C 06 80 42  4A A9 61 0E 01 F0 FF FF  std0...BJ.a.....
03E0: 7F 6F 76 A9 61 0E 01 5B  0B 80 A9 61 0E 01 A9 61  .ov.a..[...a...a
03F0: 0E 01 70 61 73 30 2B A9  61 0E 01 15 80 53 A9 61  ..pas0+.a....S.a
0400: 0E 01 A9 61 0E 01 70 61  73 30 23 5B 16 80 A9 61  ...a..pas0#[...a
0410: 0E 01 A9 61 0E 01 65 69  6F 30 2B A9 61 0E 01 17  ...a..eio0+.a...
0420: 80 53 A9 61 0E 01 A9 61  0E 01 65 69 6F 30 23 7C  .S.a...a..eio0#|
0430: 00 A9 61 0E 01 5B 16 80  A9 61 0E 01 A9 61 0E 01  ..a..[...a...a..
0440: 6B 73 75 30 2B A9 61 0E  01 18 80 53 A9 61 0E 01  ksu0+.a....S.a..
0450: A9 61 0E 01 6B 73 75 30  23 7C 01 A9 61 0E 01 01  .a..ksu0#|..a...
0460: A6 05 02 00 00 03 80 80  D1 04 42 4A A9 61 0E 01  ..........BJ.a..
0470: F0 FF FF 7F 6F 76 A9 61  0E 01 5B 0B 80 A9 61 0E  ....ov.a..[...a.
0480: 01 A9 61 0E 01 70 61 73  30 2B A9 61 0E 01 19 80  ..a..pas0+.a....
0490: 53 A9 61 0E 01 A9 61 0E  01 70 61 73 30 23 7C 00  S.a...a..pas0#|.
04A0: A9 61 0E 01 5B 16 80 A9  61 0E 01 A9 61 0E 01 6B  .a..[...a...a..k
04B0: 73 75 30 2B A9 61 0E 01  18 80 53 A9 61 0E 01 A9  su0+.a....S.a...
04C0: 61 0E 01 6B 73 75 30 23  7C 01 A9 61 0E 01 01 A6  a..ksu0#|..a....
04D0: 05 02 03 10 01 80 00 3E  05 42 4A A9 61 0E 01 F0  .......>.BJ.a...
04E0: FF FF 7F 6F 76 A9 61 0E  01 03 02 10 1A 80 5B 08  ...ov.a.......[.
04F0: 80 A9 61 0E 01 A9 61 0E  01 74 6C 6B 30 2B A9 61  ..a...a..tlk0+.a
0500: 0E 01 1B 80 23 5B 08 80  A9 61 0E 01 A9 61 0E 01  ....#[...a...a..
0510: 73 74 64 30 1C 06 80 5B  0B 80 A9 61 0E 01 A9 61  std0...[...a...a
0520: 0E 01 70 61 73 30 2B A9  61 0E 01 1C 80 53 A9 61  ..pas0+.a....S.a
0530: 0E 01 A9 61 0E 01 70 61  73 30 23 01 A6 05 4A A9  ...a..pas0#...J.
0540: 61 0E 01 F0 FF FF 7F 6F  76 A9 61 0E 01 5B 08 80  a......ov.a..[..
0550: A9 61 0E 01 A9 61 0E 01  74 6C 6B 30 2B A9 61 0E  .a...a..tlk0+.a.
0560: 01 1D 80 23 5B 08 80 A9  61 0E 01 A9 61 0E 01 73  ...#[...a...a..s
0570: 74 64 30 1C 06 80 7C 00  A9 61 0E 01 5B 16 80 A9  td0...|..a..[...
0580: 61 0E 01 A9 61 0E 01 6B  73 75 30 2B A9 61 0E 01  a...a..ksu0+.a..
0590: 18 80 53 A9 61 0E 01 A9  61 0E 01 6B 73 75 30 23  ..S.a...a..ksu0#
05A0: 7C 01 A9 61 0E 01 21 00                           |..a..!.        
```

#### Opcodes

```
  0: 0x0292 [0x03] ExtData[1]->WorkLocal[0] = Work_Zone[2]
  1: 0x0297 [0x02] IF !(ExtData[1]->WorkLocal[0] == 0*) GOTO 0x0462
  2: 0x029F [0x4A] Moogle (ID: 17719721/0x010E61A9) looks at LocalPlayer
  3: 0x02A8 [0x6F] WAIT_FRAME_DELAY: Yield until WaitTime reaches zero
  4: 0x02A9 [0x76] CHECK_ENTITY_RENDER_FLAGS: Wait until Moogle (ID: 17719721/0x010E61A9) Render.Flags0 and Render.Flags3 conditions are met
  5: 0x02AE [0x4A] LocalPlayer looks at Moogle (ID: 17719721/0x010E61A9)
  6: 0x02B7 [0x5B] LOAD_EXT_SCHEDULER: Load scheduler "hap0" with entities [Moogle (ID: 17719721/0x010E61A9), Moogle (ID: 17719721/0x010E61A9)], work=2636*
  7: 0x02C6 [0x83] Work_Zone[4] = GetGameTime()
  8: 0x02C9 [0x15] Work_Zone[4] /= 31536000*
  9: 0x02CE [0x2B] Moogle (ID: 17719721/0x010E61A9) [16605*]:
    → "It's doubly delightful to see you here for the $2th anniversary, kupo!"
 10: 0x02D5 [0x23] WAIT_FOR_DIALOG_INTERACTION
 11: 0x02D6 [0x5B] LOAD_EXT_SCHEDULER: Load scheduler "std0" with entities [Moogle (ID: 17719721/0x010E61A9), Moogle (ID: 17719721/0x010E61A9)], work=2636*
 12: 0x02E5 [0x1C] WAIT(30* ticks)
 13: 0x02E8 [0x5B] LOAD_EXT_SCHEDULER: Load scheduler "pnb0" with entities [Moogle (ID: 17719721/0x010E61A9), Moogle (ID: 17719721/0x010E61A9)], work=2755*
 14: 0x02F7 [0x2B] Moogle (ID: 17719721/0x010E61A9) [16606*]:
    → "As has become customary, I'd like to share one of the many celebratory messages that have come from the millions and millions of men and women around the planet."
 15: 0x02FE [0x1C] WAIT(120* ticks)
 16: 0x0301 [0x23] WAIT_FOR_DIALOG_INTERACTION
 17: 0x0302 [0x5B] LOAD_EXT_SCHEDULER: Load scheduler "tlk0" with entities [Moogle (ID: 17719721/0x010E61A9), Moogle (ID: 17719721/0x010E61A9)], work=2636*
 18: 0x0311 [0x2B] Moogle (ID: 17719721/0x010E61A9) [16607*]:
    → ""Once again, wish you much happy in this wonderful $2th anniversary, adventurer!"
 19: 0x0318 [0x23] WAIT_FOR_DIALOG_INTERACTION
 20: 0x0319 [0x2B] Moogle (ID: 17719721/0x010E61A9) [16608*]:
    → ""We would never have come this far without your help, and we've got a little event in store!"
 21: 0x0320 [0x23] WAIT_FOR_DIALOG_INTERACTION
 22: 0x0321 [0x2B] Moogle (ID: 17719721/0x010E61A9) [16609*]:
    → ""We are holding Mandragora Mania Madness this year, too!"
 23: 0x0328 [0x23] WAIT_FOR_DIALOG_INTERACTION
 24: 0x0329 [0x2B] Moogle (ID: 17719721/0x010E61A9) [16610*]:
    → ""Your friend, Chacharoon""
 25: 0x0330 [0x23] WAIT_FOR_DIALOG_INTERACTION
 26: 0x0331 [0x5B] LOAD_EXT_SCHEDULER: Load scheduler "std0" with entities [Moogle (ID: 17719721/0x010E61A9), Moogle (ID: 17719721/0x010E61A9)], work=2636*
 27: 0x0340 [0x1C] WAIT(30* ticks)
 28: 0x0343 [0x4A] Moogle (ID: 17719721/0x010E61A9) looks at Chacharoon (ID: 17719722/0x010E61AA)
 29: 0x034C [0x6F] WAIT_FRAME_DELAY: Yield until WaitTime reaches zero
 30: 0x034D [0x76] CHECK_ENTITY_RENDER_FLAGS: Wait until Moogle (ID: 17719721/0x010E61A9) Render.Flags0 and Render.Flags3 conditions are met
 31: 0x0352 [0x5B] LOAD_EXT_SCHEDULER: Load scheduler "pnt0" with entities [Moogle (ID: 17719721/0x010E61A9), Moogle (ID: 17719721/0x010E61A9)], work=2647*
 32: 0x0361 [0x2B] Moogle (ID: 17719721/0x010E61A9) [16611*]:
    → "As you can almost assuredly see, Chacharoon awaits you right over there, kupo!"
 33: 0x0368 [0x53] WAIT_SCHEDULER_TASK: Wait for scheduler "pnt0" with entities [Moogle (ID: 17719721/0x010E61A9), Moogle (ID: 17719721/0x010E61A9)]
 34: 0x0375 [0x23] WAIT_FOR_DIALOG_INTERACTION
 35: 0x0376 [0x5B] LOAD_EXT_SCHEDULER: Load scheduler "pnt1" with entities [Moogle (ID: 17719721/0x010E61A9), Moogle (ID: 17719721/0x010E61A9)], work=2647*
 36: 0x0385 [0x53] WAIT_SCHEDULER_TASK: Wait for scheduler "pnt1" with entities [Moogle (ID: 17719721/0x010E61A9), Moogle (ID: 17719721/0x010E61A9)]
 37: 0x0392 [0x4A] Moogle (ID: 17719721/0x010E61A9) looks at LocalPlayer
 38: 0x039B [0x6F] WAIT_FRAME_DELAY: Yield until WaitTime reaches zero
 39: 0x039C [0x76] CHECK_ENTITY_RENDER_FLAGS: Wait until Moogle (ID: 17719721/0x010E61A9) Render.Flags0 and Render.Flags3 conditions are met
 40: 0x03A1 [0x5B] LOAD_EXT_SCHEDULER: Load scheduler "hap0" with entities [Moogle (ID: 17719721/0x010E61A9), Moogle (ID: 17719721/0x010E61A9)], work=2636*
 41: 0x03B0 [0x2B] Moogle (ID: 17719721/0x010E61A9) [16612*]:
    → "We moogles eagerly look forward to challenging you, kupo!"
 42: 0x03B7 [0x53] WAIT_SCHEDULER_TASK: Wait for scheduler "hap0" with entities [Moogle (ID: 17719721/0x010E61A9), Moogle (ID: 17719721/0x010E61A9)]
 43: 0x03C4 [0x23] WAIT_FOR_DIALOG_INTERACTION
 44: 0x03C5 [0x5B] LOAD_EXT_SCHEDULER: Load scheduler "std0" with entities [Moogle (ID: 17719721/0x010E61A9), Moogle (ID: 17719721/0x010E61A9)], work=2636*
 45: 0x03D4 [0x1C] WAIT(30* ticks)
 46: 0x03D7 [0x42] SET_CLI_EVENT_CANCEL_DATA()
 47: 0x03D8 [0x4A] Moogle (ID: 17719721/0x010E61A9) looks at LocalPlayer
 48: 0x03E1 [0x6F] WAIT_FRAME_DELAY: Yield until WaitTime reaches zero
 49: 0x03E2 [0x76] CHECK_ENTITY_RENDER_FLAGS: Wait until Moogle (ID: 17719721/0x010E61A9) Render.Flags0 and Render.Flags3 conditions are met
 50: 0x03E7 [0x5B] LOAD_EXT_SCHEDULER: Load scheduler "pas0" with entities [Moogle (ID: 17719721/0x010E61A9), Moogle (ID: 17719721/0x010E61A9)], work=2755*
 51: 0x03F6 [0x2B] Moogle (ID: 17719721/0x010E61A9) [16613*]:
    → "Also, don't forget to grab your gifts, kupo!"
 52: 0x03FD [0x53] WAIT_SCHEDULER_TASK: Wait for scheduler "pas0" with entities [Moogle (ID: 17719721/0x010E61A9), Moogle (ID: 17719721/0x010E61A9)]
 53: 0x040A [0x23] WAIT_FOR_DIALOG_INTERACTION
 54: 0x040B [0x5B] LOAD_EXT_SCHEDULER: Load scheduler "eio0" with entities [Moogle (ID: 17719721/0x010E61A9), Moogle (ID: 17719721/0x010E61A9)], work=2643*
 55: 0x041A [0x2B] Moogle (ID: 17719721/0x010E61A9) [16614*]:
    → "Now then, go see Chacharoon. I'm sure you'll get a bang out of his game!"
 56: 0x0421 [0x53] WAIT_SCHEDULER_TASK: Wait for scheduler "eio0" with entities [Moogle (ID: 17719721/0x010E61A9), Moogle (ID: 17719721/0x010E61A9)]
 57: 0x042E [0x23] WAIT_FOR_DIALOG_INTERACTION
 58: 0x042F [0x7C] Moogle (ID: 17719721/0x010E61A9)->Render.Flags2 |= 0x00
 59: 0x0435 [0x5B] LOAD_EXT_SCHEDULER: Load scheduler "ksu0" with entities [Moogle (ID: 17719721/0x010E61A9), Moogle (ID: 17719721/0x010E61A9)], work=2643*
 60: 0x0444 [0x2B] Moogle (ID: 17719721/0x010E61A9) [16615*]:
    → "(Kupopo... We'll make you pay for crushing us in last year's Mandragora Mania!)"
 61: 0x044B [0x53] WAIT_SCHEDULER_TASK: Wait for scheduler "ksu0" with entities [Moogle (ID: 17719721/0x010E61A9), Moogle (ID: 17719721/0x010E61A9)]
 62: 0x0458 [0x23] WAIT_FOR_DIALOG_INTERACTION
 63: 0x0459 [0x7C] Moogle (ID: 17719721/0x010E61A9)->Render.Flags2 |= 0x01
 64: 0x045F [0x01] GOTO 0x05A6
 65: 0x0462 [0x02] IF !(ExtData[1]->WorkLocal[0] == 1*) GOTO 0x04D1
 66: 0x046A [0x42] SET_CLI_EVENT_CANCEL_DATA()
 67: 0x046B [0x4A] Moogle (ID: 17719721/0x010E61A9) looks at LocalPlayer
 68: 0x0474 [0x6F] WAIT_FRAME_DELAY: Yield until WaitTime reaches zero
 69: 0x0475 [0x76] CHECK_ENTITY_RENDER_FLAGS: Wait until Moogle (ID: 17719721/0x010E61A9) Render.Flags0 and Render.Flags3 conditions are met
 70: 0x047A [0x5B] LOAD_EXT_SCHEDULER: Load scheduler "pas0" with entities [Moogle (ID: 17719721/0x010E61A9), Moogle (ID: 17719721/0x010E61A9)], work=2755*
 71: 0x0489 [0x2B] Moogle (ID: 17719721/0x010E61A9) [16616*]:
    → "Take your gifts and go chat with Chacharoon, kupo!"
 72: 0x0490 [0x53] WAIT_SCHEDULER_TASK: Wait for scheduler "pas0" with entities [Moogle (ID: 17719721/0x010E61A9), Moogle (ID: 17719721/0x010E61A9)]
 73: 0x049D [0x23] WAIT_FOR_DIALOG_INTERACTION
 74: 0x049E [0x7C] Moogle (ID: 17719721/0x010E61A9)->Render.Flags2 |= 0x00
 75: 0x04A4 [0x5B] LOAD_EXT_SCHEDULER: Load scheduler "ksu0" with entities [Moogle (ID: 17719721/0x010E61A9), Moogle (ID: 17719721/0x010E61A9)], work=2643*
 76: 0x04B3 [0x2B] Moogle (ID: 17719721/0x010E61A9) [16615*]:
    → "(Kupopo... We'll make you pay for crushing us in last year's Mandragora Mania!)"
 77: 0x04BA [0x53] WAIT_SCHEDULER_TASK: Wait for scheduler "ksu0" with entities [Moogle (ID: 17719721/0x010E61A9), Moogle (ID: 17719721/0x010E61A9)]
 78: 0x04C7 [0x23] WAIT_FOR_DIALOG_INTERACTION
 79: 0x04C8 [0x7C] Moogle (ID: 17719721/0x010E61A9)->Render.Flags2 |= 0x01
 80: 0x04CE [0x01] GOTO 0x05A6
 81: 0x04D1 [0x02] IF !(Work_Zone[3] == 0*) GOTO 0x053E
 82: 0x04D9 [0x42] SET_CLI_EVENT_CANCEL_DATA()
 83: 0x04DA [0x4A] Moogle (ID: 17719721/0x010E61A9) looks at LocalPlayer
 84: 0x04E3 [0x6F] WAIT_FRAME_DELAY: Yield until WaitTime reaches zero
 85: 0x04E4 [0x76] CHECK_ENTITY_RENDER_FLAGS: Wait until Moogle (ID: 17719721/0x010E61A9) Render.Flags0 and Render.Flags3 conditions are met
 86: 0x04E9 [0x03] Work_Zone[2] = 26546*
 87: 0x04EE [0x5B] LOAD_EXT_SCHEDULER: Load scheduler "tlk0" with entities [Moogle (ID: 17719721/0x010E61A9), Moogle (ID: 17719721/0x010E61A9)], work=2636*
 88: 0x04FD [0x2B] Moogle (ID: 17719721/0x010E61A9) [16618*]:
    → "Wait, don't tell me you lost your $0!?"
 89: 0x0504 [0x23] WAIT_FOR_DIALOG_INTERACTION
 90: 0x0505 [0x5B] LOAD_EXT_SCHEDULER: Load scheduler "std0" with entities [Moogle (ID: 17719721/0x010E61A9), Moogle (ID: 17719721/0x010E61A9)], work=2636*
 91: 0x0514 [0x1C] WAIT(30* ticks)
 92: 0x0517 [0x5B] LOAD_EXT_SCHEDULER: Load scheduler "pas0" with entities [Moogle (ID: 17719721/0x010E61A9), Moogle (ID: 17719721/0x010E61A9)], work=2755*
 93: 0x0526 [0x2B] Moogle (ID: 17719721/0x010E61A9) [16619*]:
    → "I guess I've got to gift you another one, kupo. Please try to be more careful this time."
 94: 0x052D [0x53] WAIT_SCHEDULER_TASK: Wait for scheduler "pas0" with entities [Moogle (ID: 17719721/0x010E61A9), Moogle (ID: 17719721/0x010E61A9)]
 95: 0x053A [0x23] WAIT_FOR_DIALOG_INTERACTION
 96: 0x053B [0x01] GOTO 0x05A6
 97: 0x053E [0x4A] Moogle (ID: 17719721/0x010E61A9) looks at LocalPlayer
 98: 0x0547 [0x6F] WAIT_FRAME_DELAY: Yield until WaitTime reaches zero
 99: 0x0548 [0x76] CHECK_ENTITY_RENDER_FLAGS: Wait until Moogle (ID: 17719721/0x010E61A9) Render.Flags0 and Render.Flags3 conditions are met
100: 0x054D [0x5B] LOAD_EXT_SCHEDULER: Load scheduler "tlk0" with entities [Moogle (ID: 17719721/0x010E61A9), Moogle (ID: 17719721/0x010E61A9)], work=2636*
101: 0x055C [0x2B] Moogle (ID: 17719721/0x010E61A9) [16617*]:
    → "Make sure you speak to Chacharoon, kupo!"
102: 0x0563 [0x23] WAIT_FOR_DIALOG_INTERACTION
103: 0x0564 [0x5B] LOAD_EXT_SCHEDULER: Load scheduler "std0" with entities [Moogle (ID: 17719721/0x010E61A9), Moogle (ID: 17719721/0x010E61A9)], work=2636*
104: 0x0573 [0x1C] WAIT(30* ticks)
105: 0x0576 [0x7C] Moogle (ID: 17719721/0x010E61A9)->Render.Flags2 |= 0x00
106: 0x057C [0x5B] LOAD_EXT_SCHEDULER: Load scheduler "ksu0" with entities [Moogle (ID: 17719721/0x010E61A9), Moogle (ID: 17719721/0x010E61A9)], work=2643*
107: 0x058B [0x2B] Moogle (ID: 17719721/0x010E61A9) [16615*]:
    → "(Kupopo... We'll make you pay for crushing us in last year's Mandragora Mania!)"
108: 0x0592 [0x53] WAIT_SCHEDULER_TASK: Wait for scheduler "ksu0" with entities [Moogle (ID: 17719721/0x010E61A9), Moogle (ID: 17719721/0x010E61A9)]
109: 0x059F [0x23] WAIT_FOR_DIALOG_INTERACTION
110: 0x05A0 [0x7C] Moogle (ID: 17719721/0x010E61A9)->Render.Flags2 |= 0x01

SUBROUTINE_05A6:
111: 0x05A6 [0x21] END_EVENT
112: 0x05A7 [0x00] END_REQSTACK()
```

### Event 3631

#### Metadata

| Field        | Value      |
|--------------|------------|
| Entrypoint   | 0x05A8     |
| Data Size    | 2110 bytes |
| Instructions | 190        |

```
      00 01 02 03 04 05 06 07  08 09 0A 0B 0C 0D 0E 0F
      -- -- -- -- -- -- -- --  -- -- -- -- -- -- -- --
05A0:                          1A 24 A2 02 04 10 03 80          .$......
05B0: 00 02 06 42 4A AA 61 0E  01 F0 FF FF 7F 1A 43 00  ...BJ.a.......C.
05C0: 5B 1E 80 AA 61 0E 01 AA  61 0E 01 74 6C 6B 30 2B  [...a...a..tlk0+
05D0: AA 61 0E 01 1F 80 23 2B  AA 61 0E 01 20 80 23 2B  .a....#+.a.. .#+
05E0: AA 61 0E 01 21 80 23 5B  1E 80 AA 61 0E 01 AA 61  .a..!.#[...a...a
05F0: 0E 01 74 6C 6B 31 2E 03  07 00 01 80 01 87 07 01  ..tlk1..........
0600: 7C 06 02 04 10 05 80 00  23 06 42 4A AA 61 0E 01  |.......#.BJ.a..
0610: F0 FF FF 7F 1A 43 00 2E  03 07 00 22 80 01 87 07  .....C....."....
0620: 01 7C 06 02 04 10 22 80  00 7C 06 42 4A AA 61 0E  .|...."..|.BJ.a.
0630: 01 F0 FF FF 7F 1A 43 00  2E 02 06 10 01 80 02 74  ......C........t
0640: 06 03 07 00 03 80 03 08  00 06 10 0C 08 00 03 06  ................
0650: 00 23 80 41 05 80 24 80  02 00 01 00 02 01 00 25  .#.A..$........%
0660: 80 02 69 06 03 01 00 25  80 10 06 00 01 00 01 FB  ..i....%........
0670: 07 01 7C 06 03 07 00 01  80 01 87 07 4A AA 61 0E  ..|.........J.a.
0680: 01 F0 FF FF 7F 02 00 00  05 80 80 5D 07 02 03 00  ...........]....
0690: 03 80 00 9D 06 03 03 10  03 80 01 A2 06 03 03 10  ................
06A0: 01 80 5B 1E 80 AA 61 0E  01 AA 61 0E 01 74 6C 6B  ..[...a...a..tlk
06B0: 30 2B AA 61 0E 01 26 80  23 2B AA 61 0E 01 27 80  0+.a..&.#+.a..'.
06C0: 23 2B AA 61 0E 01 28 80  23 5B 1E 80 AA 61 0E 01  #+.a..(.#[...a..
06D0: AA 61 0E 01 74 6C 6B 31  24 29 80 01 80 01 80 25  .a..tlk1$).....%
06E0: 02 00 10 01 80 00 FB 06  42 30 1A 64 00 40 01 80  ........B0.d.@..
06F0: 22 80 01 10 03 80 21 00  01 5A 07 02 00 10 03 80  ".....!..Z......
0700: 00 5A 07 5B 1E 80 AA 61  0E 01 AA 61 0E 01 74 6C  .Z.[...a...a..tl
0710: 6B 30 2B AA 61 0E 01 2A  80 23 2B AA 61 0E 01 2B  k0+.a..*.#+.a..+
0720: 80 23 2B AA 61 0E 01 21  80 23 2B AA 61 0E 01 2C  .#+.a..!.#+.a..,
0730: 80 23 42 2B AA 61 0E 01  2D 80 23 5B 1E 80 AA 61  .#B+.a..-.#[...a
0740: 0E 01 AA 61 0E 01 74 6C  6B 31 43 00 43 01 2E 03  ...a..tlk1C.C...
0750: 07 00 01 80 01 87 07 01  5A 07 01 E4 0D 02 00 00  ........Z.......
0760: 22 80 80 A1 0D 02 03 00  03 80 00 75 07 03 03 10  "..........u....
0770: 03 80 01 7A 07 03 03 10  01 80 2B AA 61 0E 01 2E  ...z......+.a...
0780: 80 23 03 07 00 01 80 03  0D 00 01 80 41 05 80 24  .#..........A..$
0790: 80 02 00 01 00 03 02 10  01 00 03 03 10 05 00 24  ...............$
07A0: 2F 80 07 00 01 80 25 02  00 10 01 80 00 C9 07 03  /.....%.........
07B0: 07 00 00 10 02 02 10 30  80 00 C1 07 13 02 10 25  .......0.......%
07C0: 80 03 0D 00 02 10 01 7C  0D 02 00 10 03 80 00 A3  .......|........
07D0: 08 03 07 00 00 10 03 06  00 23 80 41 05 80 24 80  .........#.A..$.
07E0: 02 00 01 00 02 01 00 25  80 02 F1 07 03 01 00 25  .......%.......%
07F0: 80 10 06 00 01 00 03 08  00 01 80 24 31 80 08 00  ...........$1...
0800: 06 00 25 02 00 10 01 80  00 0E 08 01 9B 08 02 00  ..%.............
0810: 10 03 80 00 19 08 01 9B  08 02 00 10 05 80 00 24  ...............$
0820: 08 01 9B 08 02 00 10 22  80 00 2F 08 01 9B 08 02  ......."../.....
0830: 00 10 32 80 00 3A 08 01  9B 08 02 00 10 24 80 00  ..2..:.......$..
0840: 45 08 01 9B 08 02 00 10  33 80 00 50 08 01 9B 08  E.......3..P....
0850: 02 00 10 34 80 00 5B 08  01 9B 08 02 00 10 35 80  ...4..[.......5.
0860: 00 66 08 01 9B 08 02 00  10 25 80 00 71 08 01 9B  .f.......%..q...
0870: 08 02 00 10 36 80 00 7F  08 01 87 07 01 9B 08 45  ....6..........E
0880: 00 80 F8 FF FF 7F F8 FF  FF 7F 73 30 33 32 01 80  ..........s032..
0890: 48 37 80 03 08 00 00 10  01 FB 07 03 0D 00 00 10  H7..............
08A0: 01 7C 0D 02 00 10 05 80  00 37 0D 03 07 00 00 10  .|.......7......
08B0: 03 08 00 01 80 03 06 00  01 80 41 05 80 24 80 02  ..........A..$..
08C0: 00 01 00 02 01 00 03 80  02 D5 08 3C 06 00 38 80  ...........<..8.
08D0: 03 80 01 DC 08 3C 06 00  33 80 03 80 02 01 00 22  .....<..3......"
08E0: 80 02 EE 08 3C 06 00 39  80 03 80 01 F5 08 3C 06  ....<..9......<.
08F0: 00 34 80 03 80 02 01 00  24 80 02 07 09 3C 06 00  .4......$....<..
0900: 3A 80 03 80 01 0E 09 3C  06 00 35 80 03 80 02 01  :......<..5.....
0910: 00 34 80 02 20 09 3C 06  00 3B 80 03 80 01 27 09  .4.. .<..;....'.
0920: 3C 06 00 25 80 03 80 02  01 00 25 80 02 39 09 3C  <..%......%..9.<
0930: 06 00 3C 80 03 80 01 40  09 3C 06 00 30 80 03 80  ..<....@.<..0...
0940: 3E 04 00 01 80 4F 09 03  16 17 03 80 01 54 09 03  >....O.......T..
0950: 16 17 01 80 3E 04 00 03  80 63 09 03 17 17 03 80  ....>....c......
0960: 01 68 09 03 17 17 01 80  3E 04 00 05 80 77 09 03  .h......>....w..
0970: 13 17 03 80 01 7C 09 03  13 17 01 80 3E 04 00 22  .....|......>.."
0980: 80 8B 09 03 14 17 03 80  01 90 09 03 14 17 01 80  ................
0990: 3E 04 00 32 80 9F 09 03  15 17 03 80 01 A4 09 03  >..2............
09A0: 15 17 01 80 03 03 10 05  00 9D 0A 5B A2 04 10 01  ...........[....
09B0: 80 38 80 9D 0A 7B A2 05  10 01 80 38 80 9D 0A 5B  .8...{.....8...[
09C0: A2 06 10 03 80 38 80 9D  0A 7B A2 07 10 03 80 38  .....8...{.....8
09D0: 80 9D 0A 5B A2 08 10 05  80 38 80 9D 0A 7B A2 09  ...[.....8...{..
09E0: 10 05 80 38 80 9D 0A 5B  A2 00 17 22 80 38 80 9D  ...8...[...".8..
09F0: 0A 7B A2 01 17 22 80 38  80 9D 0A 5B A2 02 17 32  .{...".8...[...2
0A00: 80 38 80 9D 0A 7B A2 03  17 32 80 38 80 9D 0A 5B  .8...{...2.8...[
0A10: A2 04 17 24 80 38 80 9D  0A 7B A2 05 17 24 80 38  ...$.8...{...$.8
0A20: 80 9D 0A 5B A2 06 17 33  80 38 80 9D 0A 7B A2 07  ...[...3.8...{..
0A30: 17 33 80 38 80 9D 0A 5B  A2 08 17 34 80 38 80 9D  .3.8...[...4.8..
0A40: 0A 7B A2 09 17 34 80 38  80 9D 0A 5B A2 0A 17 35  .{...4.8...[...5
0A50: 80 38 80 9D 0A 7B A2 0B  17 35 80 38 80 9D 0A 5B  .8...{...5.8...[
0A60: A2 0C 17 25 80 38 80 9D  0A 7B A2 0D 17 25 80 38  ...%.8...{...%.8
0A70: 80 9D 0A 5B A2 0E 17 30  80 38 80 9D 0A 7B A2 0F  ...[...0.8...{..
0A80: 17 30 80 38 80 03 10 17  39 80 03 11 17 39 80 03  .0.8....9....9..
0A90: 12 17 39 80 03 1A 17 01  80 D4 03 01 80 04 10 D4  ..9.............
0AA0: 03 03 80 06 10 D4 03 05  80 08 10 D4 03 22 80 00  ............."..
0AB0: 17 D4 03 32 80 02 17 D4  03 24 80 04 17 D4 03 33  ...2.....$.....3
0AC0: 80 06 17 D4 03 34 80 08  17 D4 03 35 80 0A 17 D4  .....4.....5....
0AD0: 03 25 80 0C 17 D4 03 30  80 0E 17 D4 02 3D 80 08  .%.....0.....=..
0AE0: 00 06 00 25 02 00 10 01  80 00 12 0B 3E 04 00 05  ...%........>...
0AF0: 80 0F 0B 45 00 80 F8 FF  FF 7F F8 FF FF 7F 73 30  ...E..........s0
0B00: 33 32 01 80 48 3E 80 03  08 00 00 10 01 B5 08 01  32..H>..........
0B10: 59 0C 02 00 10 03 80 00  45 0B 3E 04 00 22 80 42  Y.......E.>..".B
0B20: 0B 45 00 80 F8 FF FF 7F  F8 FF FF 7F 73 30 33 32  .E..........s032
0B30: 01 80 03 04 10 06 10 48  3E 80 03 08 00 00 10 01  .......H>.......
0B40: B5 08 01 59 0C 02 00 10  05 80 00 78 0B 3E 04 00  ...Y.......x.>..
0B50: 32 80 75 0B 45 00 80 F8  FF FF 7F F8 FF FF 7F 73  2.u.E..........s
0B60: 30 33 32 01 80 03 04 10  08 10 48 3E 80 03 08 00  032.......H>....
0B70: 00 10 01 B5 08 01 59 0C  02 00 10 22 80 00 88 0B  ......Y...."....
0B80: 03 1A 17 39 80 01 59 0C  02 00 10 32 80 00 98 0B  ...9..Y....2....
0B90: 03 1A 17 39 80 01 59 0C  02 00 10 24 80 00 A8 0B  ...9..Y....$....
0BA0: 03 1A 17 39 80 01 59 0C  02 00 10 33 80 00 B3 0B  ...9..Y....3....
0BB0: 01 59 0C 02 00 10 34 80  00 BE 0B 01 59 0C 02 00  .Y....4.....Y...
0BC0: 10 35 80 00 C9 0B 01 59  0C 02 00 10 25 80 00 FC  .5.....Y....%...
0BD0: 0B 3E 04 00 01 80 F9 0B  45 00 80 F8 FF FF 7F F8  .>......E.......
0BE0: FF FF 7F 73 30 33 32 01  80 03 04 10 0C 17 48 3F  ...s032.......H?
0BF0: 80 03 08 00 00 10 01 B5  08 01 59 0C 02 00 10 30  ..........Y....0
0C00: 80 00 2F 0C 3E 04 00 03  80 2C 0C 45 00 80 F8 FF  ../.>....,.E....
0C10: FF 7F F8 FF FF 7F 73 30  33 32 01 80 03 04 10 0E  ......s032......
0C20: 17 48 3F 80 03 08 00 00  10 01 B5 08 01 59 0C 02  .H?..........Y..
0C30: 00 10 40 80 00 3D 0C 01  87 07 01 59 0C 45 00 80  ..@..=.....Y.E..
0C40: F8 FF FF 7F F8 FF FF 7F  73 30 33 32 01 80 48 41  ........s032..HA
0C50: 80 03 08 00 00 10 01 B5  08 03 08 00 00 10 9D 0A  ................
0C60: 5B A2 18 17 08 00 38 80  9D 0A 7B A2 19 17 08 00  [.....8...{.....
0C70: 38 80 02 05 00 19 17 03  94 0C 45 00 80 F8 FF FF  8.........E.....
0C80: 7F F8 FF FF 7F 73 30 33  32 01 80 48 42 80 01 B5  .....s032..HB...
0C90: 08 01 34 0D 03 03 10 05  00 D4 03 01 80 18 17 D4  ..4.............
0CA0: 03 03 80 18 17 02 1A 17  01 80 00 DF 0C 02 08 00  ................
0CB0: 25 80 03 C0 0C 2B AA 61  0E 01 43 80 23 01 C8 0C  %....+.a..C.#...
0CC0: 2B AA 61 0E 01 44 80 23  D4 02 45 80 03 80 01 80  +.a..D.#..E.....
0CD0: 25 02 00 10 01 80 00 DC  0C 01 DC 0C 01 FB 0C 2B  %..............+
0CE0: AA 61 0E 01 46 80 23 D4  02 47 80 03 80 01 80 25  .a..F.#..G.....%
0CF0: 02 00 10 01 80 00 FB 0C  01 FB 0C 02 00 10 01 80  ................
0D00: 00 31 0D 42 40 01 80 22  80 01 10 33 80 40 3A 80  .1.B@.."...3.@:.
0D10: 40 80 01 10 08 00 43 00  43 01 02 09 10 01 80 01  @.....C.C.......
0D20: 2D 0D 40 01 80 22 80 01  10 01 80 21 00 1A 24 A2  -.@..".....!..$.
0D30: 2E 01 B5 08 01 7C 0D 02  00 10 22 80 00 75 0D 2B  .....|...."..u.+
0D40: AA 61 0E 01 48 80 23 24  29 80 01 80 01 80 25 02  .a..H.#$).....%.
0D50: 00 10 01 80 00 6A 0D 42  30 1A 64 00 40 01 80 22  .....j.B0.d.@.."
0D60: 80 01 10 03 80 21 00 01  6A 0D 03 07 00 22 80 01  .....!..j...."..
0D70: 87 07 01 7C 0D 03 01 10  01 80 21 00 42 30 1A 64  ...|......!.B0.d
0D80: 00 40 01 80 22 80 01 10  05 80 40 32 80 32 80 01  .@..".....@2.2..
0D90: 10 07 00 40 24 80 35 80  01 10 0D 00 21 00 01 E4  ...@$.5.....!...
0DA0: 0D 5B 1E 80 AA 61 0E 01  AA 61 0E 01 74 6C 6B 30  .[...a...a..tlk0
0DB0: 02 03 00 03 80 00 C0 0D  03 03 10 03 80 01 C5 0D  ................
0DC0: 03 03 10 01 80 2B AA 61  0E 01 49 80 23 5B 1E 80  .....+.a..I.#[..
0DD0: AA 61 0E 01 AA 61 0E 01  74 6C 6B 31 1C 06 80 03  .a...a..tlk1....
0DE0: 01 10 01 80 21 00                                 ....!.          
```

#### Opcodes

```
  0: 0x05A8 [0x1A] CALL_SUBROUTINE(address=0xA224)
  1: 0x05AB [0x02] IF !(Work_Zone[4] == 1*) GOTO 0x0602
  2: 0x05B3 [0x42] SET_CLI_EVENT_CANCEL_DATA()
  3: 0x05B4 [0x4A] Chacharoon (ID: 17719722/0x010E61AA) looks at LocalPlayer
  4: 0x05BD [0x1A] CALL_SUBROUTINE(address=0x0043)
  5: 0x05C0 [0x5B] LOAD_EXT_SCHEDULER: Load scheduler "tlk0" with entities [Chacharoon (ID: 17719722/0x010E61AA), Chacharoon (ID: 17719722/0x010E61AA)], work=3566*
  6: 0x05CF [0x2B] Chacharoon (ID: 17719722/0x010E61AA) [16641*]:
    → "See? Is very easy! Ready to give try?"
  7: 0x05D6 [0x23] WAIT_FOR_DIALOG_INTERACTION
  8: 0x05D7 [0x2B] Chacharoon (ID: 17719722/0x010E61AA) [16642*]:
    → "You get mandy if you win or lose, but not if you quit partway!"
  9: 0x05DE [0x23] WAIT_FOR_DIALOG_INTERACTION
 10: 0x05DF [0x2B] Chacharoon (ID: 17719722/0x010E61AA) [16643*]:
    → "Can trade mandy for many goodies."
 11: 0x05E6 [0x23] WAIT_FOR_DIALOG_INTERACTION
 12: 0x05E7 [0x5B] LOAD_EXT_SCHEDULER: Load scheduler "tlk1" with entities [Chacharoon (ID: 17719722/0x010E61AA), Chacharoon (ID: 17719722/0x010E61AA)], work=3566*
 13: 0x05F6 [0x2E] SET_CLI_EVENT_CANCEL_FLAGS()
 14: 0x05F7 [0x03] ExtData[1]->WorkLocal[7] = 0*
 15: 0x05FC [0x01] GOTO 0x0787

SUBROUTINE_067C:
 16: 0x067C [0x4A] Chacharoon (ID: 17719722/0x010E61AA) looks at LocalPlayer
 17: 0x0685 [0x02] IF !(ExtData[1]->WorkLocal[0] == 2*) GOTO 0x075D
 18: 0x068D [0x02] IF !(ExtData[1]->WorkLocal[3] == 1*) GOTO 0x069D
 19: 0x0695 [0x03] Work_Zone[3] = 1*
 20: 0x069A [0x01] GOTO 0x06A2
 21: 0x069D [0x03] Work_Zone[3] = 0*

SUBROUTINE_06A2:
 22: 0x06A2 [0x5B] LOAD_EXT_SCHEDULER: Load scheduler "tlk0" with entities [Chacharoon (ID: 17719722/0x010E61AA), Chacharoon (ID: 17719722/0x010E61AA)], work=3566*
 23: 0x06B1 [0x2B] Chacharoon (ID: 17719722/0x010E61AA) [16621*]:
    → "Happy 20th Vana'versary!"
 24: 0x06B8 [0x23] WAIT_FOR_DIALOG_INTERACTION
 25: 0x06B9 [0x2B] Chacharoon (ID: 17719722/0x010E61AA) [16622*]:
    → "I hope you ready to play Mandragora Mania Madness!"
 26: 0x06C0 [0x23] WAIT_FOR_DIALOG_INTERACTION
 27: 0x06C1 [0x2B] Chacharoon (ID: 17719722/0x010E61AA) [16623*]:
    → "Since this new game, would you like to check rules in manual?"
 28: 0x06C8 [0x23] WAIT_FOR_DIALOG_INTERACTION
 29: 0x06C9 [0x5B] LOAD_EXT_SCHEDULER: Load scheduler "tlk1" with entities [Chacharoon (ID: 17719722/0x010E61AA), Chacharoon (ID: 17719722/0x010E61AA)], work=3566*
 30: 0x06D8 [0x24] CREATE_DIALOG(message_id=16624*, default_option=0*, option_flags=0*)
    → "Read the manual? [Sure./No thanks.]"
 31: 0x06DF [0x25] WAIT_DIALOG_SELECT()
 32: 0x06E0 [0x02] IF !(Work_Zone[0] == 0*) GOTO 0x06FB
 33: 0x06E8 [0x42] SET_CLI_EVENT_CANCEL_DATA()
 34: 0x06E9 [0x30] SET_UCOFF_CONTINUE_ZERO()
 35: 0x06EA [0x1A] CALL_SUBROUTINE(address=0x0064)
 36: 0x06ED [0x40] SET_BIT_WORK_RANGE(start_bit=0*, end_bit=3*, target=Work_Zone[1], source=1*)
 37: 0x06F6 [0x21] END_EVENT
 38: 0x06F7 [0x00] END_REQSTACK()

SUBROUTINE_075A:
 39: 0x075A [0x01] GOTO 0x0DE4
 40: 0x075D [0x02] IF !(ExtData[1]->WorkLocal[0] == 3*) GOTO 0x0DA1
 41: 0x0765 [0x02] IF !(ExtData[1]->WorkLocal[3] == 1*) GOTO 0x0775
 42: 0x076D [0x03] Work_Zone[3] = 1*
 43: 0x0772 [0x01] GOTO 0x077A
 44: 0x0775 [0x03] Work_Zone[3] = 0*

SUBROUTINE_077A:
 45: 0x077A [0x2B] Chacharoon (ID: 17719722/0x010E61AA) [16648*]:
    → "Have question?"
 46: 0x0781 [0x23] WAIT_FOR_DIALOG_INTERACTION
 47: 0x0782 [0x03] ExtData[1]->WorkLocal[7] = 0*

SUBROUTINE_0787:
 48: 0x0787 [0x03] ExtData[1]->WorkLocal[13] = 0*
 49: 0x078C [0x41] ExtData[1]->WorkLocal[1] = ExtData[1]->WorkLocal[2] (bits 2*-5*)
 50: 0x0795 [0x03] Work_Zone[2] = ExtData[1]->WorkLocal[1]
 51: 0x079A [0x03] Work_Zone[3] = ExtData[1]->WorkLocal[5]
 52: 0x079F [0x24] CREATE_DIALOG(message_id=16649*, default_option=ExtData[1]->WorkLocal[7], option_flags=0*)
    → "Do which? ($1 mandy) [Play vs. [Green Thumb Moogle/Monsieur Kupont/Susuroon/a lamb/Yeestog/Atelloune/Kuyin Hathdenna/Kupofried/Chacharoon/Sakura/a random opponent]./Play (select opponent)./Purchase prizes./Read an explanation./None of the above.]"
 53: 0x07A6 [0x25] WAIT_DIALOG_SELECT()
 54: 0x07A7 [0x02] IF !(Work_Zone[0] == 0*) GOTO 0x07C9
 55: 0x07AF [0x03] ExtData[1]->WorkLocal[7] = Work_Zone[0]
 56: 0x07B4 [0x02] IF !(Work_Zone[2] == 10*) GOTO 0x07C1
 57: 0x07BC [0x13] Work_Zone[2] = rand() % 9*
 58: 0x07C1 [0x03] ExtData[1]->WorkLocal[13] = Work_Zone[2]
 59: 0x07C6 [0x01] GOTO 0x0D7C
 60: 0x07C9 [0x02] IF !(Work_Zone[0] == 1*) GOTO 0x08A3
 61: 0x07D1 [0x03] ExtData[1]->WorkLocal[7] = Work_Zone[0]
 62: 0x07D6 [0x03] ExtData[1]->WorkLocal[6] = 1022*
 63: 0x07DB [0x41] ExtData[1]->WorkLocal[1] = ExtData[1]->WorkLocal[2] (bits 2*-5*)
 64: 0x07E4 [0x02] IF !(ExtData[1]->WorkLocal[1] <= 9*) GOTO 0x07F1
 65: 0x07EC [0x03] ExtData[1]->WorkLocal[1] = 9*
 66: 0x07F1 [0x10] ExtData[1]->WorkLocal[6] <<= ExtData[1]->WorkLocal[1]
 67: 0x07F6 [0x03] ExtData[1]->WorkLocal[8] = 0*

SUBROUTINE_07FB:
 68: 0x07FB [0x24] CREATE_DIALOG(message_id=16650*, default_option=ExtData[1]->WorkLocal[8], option_flags=ExtData[1]->WorkLocal[6])
    → "Play against whom? [Green Thumb Moogle./Monsieur Kupont./Susuroon./A lamb./Yeestog./Atelloune./Kuyin Hathdenna./Kupofried./Chacharoon./Sakura./???/???/???/???/???/???/???/???/???/Back.]"
 69: 0x0802 [0x25] WAIT_DIALOG_SELECT()
 70: 0x0803 [0x02] IF !(Work_Zone[0] == 0*) GOTO 0x080E
 71: 0x080B [0x01] GOTO 0x089B
 72: 0x080E [0x02] IF !(Work_Zone[0] == 1*) GOTO 0x0819
 73: 0x0816 [0x01] GOTO 0x089B
 74: 0x0819 [0x02] IF !(Work_Zone[0] == 2*) GOTO 0x0824
 75: 0x0821 [0x01] GOTO 0x089B
 76: 0x0824 [0x02] IF !(Work_Zone[0] == 3*) GOTO 0x082F
 77: 0x082C [0x01] GOTO 0x089B
 78: 0x082F [0x02] IF !(Work_Zone[0] == 4*) GOTO 0x083A
 79: 0x0837 [0x01] GOTO 0x089B
 80: 0x083A [0x02] IF !(Work_Zone[0] == 5*) GOTO 0x0845
 81: 0x0842 [0x01] GOTO 0x089B
 82: 0x0845 [0x02] IF !(Work_Zone[0] == 6*) GOTO 0x0850
 83: 0x084D [0x01] GOTO 0x089B
 84: 0x0850 [0x02] IF !(Work_Zone[0] == 7*) GOTO 0x085B
 85: 0x0858 [0x01] GOTO 0x089B
 86: 0x085B [0x02] IF !(Work_Zone[0] == 8*) GOTO 0x0866
 87: 0x0863 [0x01] GOTO 0x089B
 88: 0x0866 [0x02] IF !(Work_Zone[0] == 9*) GOTO 0x0871
 89: 0x086E [0x01] GOTO 0x089B
 90: 0x0871 [0x02] IF !(Work_Zone[0] == 19*) GOTO 0x087F
 91: 0x0879 [0x01] GOTO 0x0787

SUBROUTINE_089B:
 92: 0x089B [0x03] ExtData[1]->WorkLocal[13] = Work_Zone[0]
 93: 0x08A0 [0x01] GOTO 0x0D7C
 94: 0x08A3 [0x02] IF !(Work_Zone[0] == 2*) GOTO 0x0D37
 95: 0x08AB [0x03] ExtData[1]->WorkLocal[7] = Work_Zone[0]
 96: 0x08B0 [0x03] ExtData[1]->WorkLocal[8] = 0*

SUBROUTINE_08B5:
 97: 0x08B5 [0x03] ExtData[1]->WorkLocal[6] = 0*
 98: 0x08BA [0x41] ExtData[1]->WorkLocal[1] = ExtData[1]->WorkLocal[2] (bits 2*-5*)
 99: 0x08C3 [0x02] IF !(ExtData[1]->WorkLocal[1] <= 1*) GOTO 0x08D5
100: 0x08CB [0x3C] SET_BIT_FLAG_CONDITIONAL(target_work_offset=ExtData[1]->WorkLocal[6], bit_index_work_offset=11*, condition_work_offset=1*)
101: 0x08D2 [0x01] GOTO 0x08DC
102: 0x08D5 [0x3C] SET_BIT_FLAG_CONDITIONAL(target_work_offset=ExtData[1]->WorkLocal[6], bit_index_work_offset=6*, condition_work_offset=1*)

SUBROUTINE_08DC:
103: 0x08DC [0x02] IF !(ExtData[1]->WorkLocal[1] <= 3*) GOTO 0x08EE
104: 0x08E4 [0x3C] SET_BIT_FLAG_CONDITIONAL(target_work_offset=ExtData[1]->WorkLocal[6], bit_index_work_offset=12*, condition_work_offset=1*)
105: 0x08EB [0x01] GOTO 0x08F5
106: 0x08EE [0x3C] SET_BIT_FLAG_CONDITIONAL(target_work_offset=ExtData[1]->WorkLocal[6], bit_index_work_offset=7*, condition_work_offset=1*)

SUBROUTINE_08F5:
107: 0x08F5 [0x02] IF !(ExtData[1]->WorkLocal[1] <= 5*) GOTO 0x0907
108: 0x08FD [0x3C] SET_BIT_FLAG_CONDITIONAL(target_work_offset=ExtData[1]->WorkLocal[6], bit_index_work_offset=13*, condition_work_offset=1*)
109: 0x0904 [0x01] GOTO 0x090E
110: 0x0907 [0x3C] SET_BIT_FLAG_CONDITIONAL(target_work_offset=ExtData[1]->WorkLocal[6], bit_index_work_offset=8*, condition_work_offset=1*)

SUBROUTINE_090E:
111: 0x090E [0x02] IF !(ExtData[1]->WorkLocal[1] <= 7*) GOTO 0x0920
112: 0x0916 [0x3C] SET_BIT_FLAG_CONDITIONAL(target_work_offset=ExtData[1]->WorkLocal[6], bit_index_work_offset=14*, condition_work_offset=1*)
113: 0x091D [0x01] GOTO 0x0927
114: 0x0920 [0x3C] SET_BIT_FLAG_CONDITIONAL(target_work_offset=ExtData[1]->WorkLocal[6], bit_index_work_offset=9*, condition_work_offset=1*)

SUBROUTINE_0927:
115: 0x0927 [0x02] IF !(ExtData[1]->WorkLocal[1] <= 9*) GOTO 0x0939
116: 0x092F [0x3C] SET_BIT_FLAG_CONDITIONAL(target_work_offset=ExtData[1]->WorkLocal[6], bit_index_work_offset=15*, condition_work_offset=1*)
117: 0x0936 [0x01] GOTO 0x0940
118: 0x0939 [0x3C] SET_BIT_FLAG_CONDITIONAL(target_work_offset=ExtData[1]->WorkLocal[6], bit_index_work_offset=10*, condition_work_offset=1*)

SUBROUTINE_0940:
119: 0x0940 [0x3E] IF !(ExtData[1]->WorkLocal[4] bit 0*) GOTO 0x094F
120: 0x0947 [0x03] Work_Zone_1700[22] = 1*
121: 0x094C [0x01] GOTO 0x0954
122: 0x094F [0x03] Work_Zone_1700[22] = 0*

SUBROUTINE_0954:
123: 0x0954 [0x3E] IF !(ExtData[1]->WorkLocal[4] bit 1*) GOTO 0x0963
124: 0x095B [0x03] Work_Zone_1700[23] = 1*
125: 0x0960 [0x01] GOTO 0x0968
126: 0x0963 [0x03] Work_Zone_1700[23] = 0*

SUBROUTINE_0968:
127: 0x0968 [0x3E] IF !(ExtData[1]->WorkLocal[4] bit 2*) GOTO 0x0977
128: 0x096F [0x03] Work_Zone_1700[19] = 1*
129: 0x0974 [0x01] GOTO 0x097C
130: 0x0977 [0x03] Work_Zone_1700[19] = 0*

SUBROUTINE_097C:
131: 0x097C [0x3E] IF !(ExtData[1]->WorkLocal[4] bit 3*) GOTO 0x098B
132: 0x0983 [0x03] Work_Zone_1700[20] = 1*
133: 0x0988 [0x01] GOTO 0x0990
134: 0x098B [0x03] Work_Zone_1700[20] = 0*

SUBROUTINE_0990:
135: 0x0990 [0x3E] IF !(ExtData[1]->WorkLocal[4] bit 4*) GOTO 0x099F
136: 0x0997 [0x03] Work_Zone_1700[21] = 1*
137: 0x099C [0x01] GOTO 0x09A4
138: 0x099F [0x03] Work_Zone_1700[21] = 0*

SUBROUTINE_09A4:
139: 0x09A4 [0x03] Work_Zone[3] = ExtData[1]->WorkLocal[5]
140: 0x09A9 [0x9D] IF (0xA25B) 0* = Work_Zone[4] // extra=0x8038
141: 0x09B3 [0x9D] IF (0xA27B) 0* = Work_Zone[5] // extra=0x8038
142: 0x09BD [0x9D] IF (0xA25B) 1* = Work_Zone[6] // extra=0x8038
143: 0x09C7 [0x9D] IF (0xA27B) 1* = Work_Zone[7] // extra=0x8038
144: 0x09D1 [0x9D] IF (0xA25B) 2* = Work_Zone[8] // extra=0x8038
145: 0x09DB [0x9D] IF (0xA27B) 2* = Work_Zone[9] // extra=0x8038
146: 0x09E5 [0x9D] IF (0xA25B) 3* = Work_Zone_1700[0] // extra=0x8038
147: 0x09EF [0x9D] IF (0xA27B) 3* = Work_Zone_1700[1] // extra=0x8038
148: 0x09F9 [0x9D] IF (0xA25B) 4* = Work_Zone_1700[2] // extra=0x8038
149: 0x0A03 [0x9D] IF (0xA27B) 4* = Work_Zone_1700[3] // extra=0x8038
150: 0x0A0D [0x9D] IF (0xA25B) 5* = Work_Zone_1700[4] // extra=0x8038
151: 0x0A17 [0x9D] IF (0xA27B) 5* = Work_Zone_1700[5] // extra=0x8038
152: 0x0A21 [0x9D] IF (0xA25B) 6* = Work_Zone_1700[6] // extra=0x8038
153: 0x0A2B [0x9D] IF (0xA27B) 6* = Work_Zone_1700[7] // extra=0x8038
154: 0x0A35 [0x9D] IF (0xA25B) 7* = Work_Zone_1700[8] // extra=0x8038
155: 0x0A3F [0x9D] IF (0xA27B) 7* = Work_Zone_1700[9] // extra=0x8038
156: 0x0A49 [0x9D] IF (0xA25B) 8* = Work_Zone_1700[10] // extra=0x8038
157: 0x0A53 [0x9D] IF (0xA27B) 8* = Work_Zone_1700[11] // extra=0x8038
158: 0x0A5D [0x9D] IF (0xA25B) 9* = Work_Zone_1700[12] // extra=0x8038
159: 0x0A67 [0x9D] IF (0xA27B) 9* = Work_Zone_1700[13] // extra=0x8038
160: 0x0A71 [0x9D] IF (0xA25B) 10* = Work_Zone_1700[14] // extra=0x8038
161: 0x0A7B [0x9D] IF (0xA27B) 10* = Work_Zone_1700[15] // extra=0x8038
162: 0x0A85 [0x03] Work_Zone_1700[16] = 12*
163: 0x0A8A [0x03] Work_Zone_1700[17] = 12*
164: 0x0A8F [0x03] Work_Zone_1700[18] = 12*
165: 0x0A94 [0x03] Work_Zone_1700[26] = 0*
166: 0x0A99 [0xD4] MAP_QUERY_WINDOW: Prepare buffer configuration A (buffer=[01 80 04 10 D4 03 03 80...])
167: 0x0AB7 [0xD4] MAP_QUERY_WINDOW: Prepare buffer configuration A (buffer=[24 80 04 17 D4 03 33 80...])
168: 0x0AD5 [0xD4] MAP_QUERY_WINDOW: Prepare buffer configuration A (buffer=[30 80 0E 17 D4 02 3D 80...])
169: 0x0AF3 [0x45] LOAD_SCHEDULED_TASK: Load scheduler "s032" with entities [EventEntity, EventEntity], work=[200*, 0*]
170: 0x0B04 [0x48] [System] [16655*]:
    → "You already have $2."
171: 0x0B07 [0x03] ExtData[1]->WorkLocal[8] = Work_Zone[0]
172: 0x0B0C [0x01] GOTO 0x08B5

SUBROUTINE_0D6A:
173: 0x0D6A [0x03] ExtData[1]->WorkLocal[7] = 3*
174: 0x0D6F [0x01] GOTO 0x0787

SUBROUTINE_0D7C:
175: 0x0D7C [0x42] SET_CLI_EVENT_CANCEL_DATA()
176: 0x0D7D [0x30] SET_UCOFF_CONTINUE_ZERO()
177: 0x0D7E [0x1A] CALL_SUBROUTINE(address=0x0064)
178: 0x0D81 [0x40] SET_BIT_WORK_RANGE(start_bit=0*, end_bit=3*, target=Work_Zone[1], source=2*)
179: 0x0D8A [0x40] SET_BIT_WORK_RANGE(start_bit=4*, end_bit=4*, target=Work_Zone[1], source=ExtData[1]->WorkLocal[7])
180: 0x0D93 [0x40] SET_BIT_WORK_RANGE(start_bit=5*, end_bit=8*, target=Work_Zone[1], source=ExtData[1]->WorkLocal[13])
181: 0x0D9C [0x21] END_EVENT
182: 0x0D9D [0x00] END_REQSTACK()

SUBROUTINE_0DC5:
183: 0x0DC5 [0x2B] Chacharoon (ID: 17719722/0x010E61AA) [16620*]:
    → "[Hi there!/Hello, friend!] I see you got letter I give to moogle."
184: 0x0DCC [0x23] WAIT_FOR_DIALOG_INTERACTION
185: 0x0DCD [0x5B] LOAD_EXT_SCHEDULER: Load scheduler "tlk1" with entities [Chacharoon (ID: 17719722/0x010E61AA), Chacharoon (ID: 17719722/0x010E61AA)], work=3566*
186: 0x0DDC [0x1C] WAIT(30* ticks)
187: 0x0DDF [0x03] Work_Zone[1] = 0*

SUBROUTINE_0DE4:
188: 0x0DE4 [0x21] END_EVENT
189: 0x0DE5 [0x00] END_REQSTACK()
```

#### Data or dead code:

```
# Dead code (unreachable instructions):
     0x05FF [0x01] GOTO 0x067C
     0x0620 [0x01] GOTO 0x067C
     0x0671 [0x01] GOTO 0x067C
# Dead code (unreachable instructions):
     0x06F8 [0x01] GOTO 0x075A
     0x0757 [0x01] GOTO 0x075A
# Dead code (unreachable instructions):
     0x087C [0x01] GOTO 0x089B
# Dead code (unreachable instructions):
     0x0B0F [0x01] GOTO 0x0C59
     0x0B12 [0x02] IF !(Work_Zone[0] == 1*) GOTO 0x0B45
     0x0B1A [0x3E] IF !(ExtData[1]->WorkLocal[4] bit 3*) GOTO 0x0B42
     0x0B21 [0x45] LOAD_SCHEDULED_TASK: Load scheduler "s032" with entities [EventEntity, EventEntity], work=[200*, 0*]
     0x0B32 [0x03] Work_Zone[4] = Work_Zone[6]
     0x0B37 [0x48] [System] [16655*]:
    → "You already have $2."
     0x0B3A [0x03] ExtData[1]->WorkLocal[8] = Work_Zone[0]
     0x0B3F [0x01] GOTO 0x08B5
     0x0B42 [0x01] GOTO 0x0C59
     0x0B45 [0x02] IF !(Work_Zone[0] == 2*) GOTO 0x0B78
     0x0B4D [0x3E] IF !(ExtData[1]->WorkLocal[4] bit 4*) GOTO 0x0B75
     0x0B54 [0x45] LOAD_SCHEDULED_TASK: Load scheduler "s032" with entities [EventEntity, EventEntity], work=[200*, 0*]
     0x0B65 [0x03] Work_Zone[4] = Work_Zone[8]
     0x0B6A [0x48] [System] [16655*]:
    → "You already have $2."
     0x0B6D [0x03] ExtData[1]->WorkLocal[8] = Work_Zone[0]
     0x0B72 [0x01] GOTO 0x08B5
     0x0B75 [0x01] GOTO 0x0C59
     0x0B78 [0x02] IF !(Work_Zone[0] == 3*) GOTO 0x0B88
     0x0B80 [0x03] Work_Zone_1700[26] = 12*
     0x0B85 [0x01] GOTO 0x0C59
     0x0B88 [0x02] IF !(Work_Zone[0] == 4*) GOTO 0x0B98
     0x0B90 [0x03] Work_Zone_1700[26] = 12*
     0x0B95 [0x01] GOTO 0x0C59
     0x0B98 [0x02] IF !(Work_Zone[0] == 5*) GOTO 0x0BA8
     0x0BA0 [0x03] Work_Zone_1700[26] = 12*
     0x0BA5 [0x01] GOTO 0x0C59
     0x0BA8 [0x02] IF !(Work_Zone[0] == 6*) GOTO 0x0BB3
     0x0BB0 [0x01] GOTO 0x0C59
     0x0BB3 [0x02] IF !(Work_Zone[0] == 7*) GOTO 0x0BBE
     0x0BBB [0x01] GOTO 0x0C59
     0x0BBE [0x02] IF !(Work_Zone[0] == 8*) GOTO 0x0BC9
     0x0BC6 [0x01] GOTO 0x0C59
     0x0BC9 [0x02] IF !(Work_Zone[0] == 9*) GOTO 0x0BFC
     0x0BD1 [0x3E] IF !(ExtData[1]->WorkLocal[4] bit 0*) GOTO 0x0BF9
     0x0BD8 [0x45] LOAD_SCHEDULED_TASK: Load scheduler "s032" with entities [EventEntity, EventEntity], work=[200*, 0*]
     0x0BE9 [0x03] Work_Zone[4] = Work_Zone_1700[12]
     0x0BEE [0x48] [System] [16656*]:
    → "You may only purchase one of those per day (Earth time)."
     0x0BF1 [0x03] ExtData[1]->WorkLocal[8] = Work_Zone[0]
     0x0BF6 [0x01] GOTO 0x08B5
     0x0BF9 [0x01] GOTO 0x0C59
     0x0BFC [0x02] IF !(Work_Zone[0] == 10*) GOTO 0x0C2F
     0x0C04 [0x3E] IF !(ExtData[1]->WorkLocal[4] bit 1*) GOTO 0x0C2C
     0x0C0B [0x45] LOAD_SCHEDULED_TASK: Load scheduler "s032" with entities [EventEntity, EventEntity], work=[200*, 0*]
     0x0C1C [0x03] Work_Zone[4] = Work_Zone_1700[14]
     0x0C21 [0x48] [System] [16656*]:
    → "You may only purchase one of those per day (Earth time)."
     0x0C24 [0x03] ExtData[1]->WorkLocal[8] = Work_Zone[0]
     0x0C29 [0x01] GOTO 0x08B5
     0x0C2C [0x01] GOTO 0x0C59
     0x0C2F [0x02] IF !(Work_Zone[0] == 16*) GOTO 0x0C3D
     0x0C37 [0x01] GOTO 0x0787
     0x0C3A [0x01] GOTO 0x0C59
     0x0C3D [0x45] LOAD_SCHEDULED_TASK: Load scheduler "s032" with entities [EventEntity, EventEntity], work=[200*, 0*]
     0x0C4E [0x48] [System] [16653*]:
    → "This reward will become available once you have defeated a particular opponent."
     0x0C51 [0x03] ExtData[1]->WorkLocal[8] = Work_Zone[0]
     0x0C56 [0x01] GOTO 0x08B5
     0x0C59 [0x03] ExtData[1]->WorkLocal[8] = Work_Zone[0]
     0x0C5E [0x9D] IF (0xA25B) ExtData[1]->WorkLocal[8] = Work_Zone_1700[24] // extra=0x8038
     0x0C68 [0x9D] IF (0xA27B) ExtData[1]->WorkLocal[8] = Work_Zone_1700[25] // extra=0x8038
     0x0C72 [0x02] IF !(ExtData[1]->WorkLocal[5] >= Work_Zone_1700[25]) GOTO 0x0C94
     0x0C7A [0x45] LOAD_SCHEDULED_TASK: Load scheduler "s032" with entities [EventEntity, EventEntity], work=[200*, 0*]
     0x0C8B [0x48] [System] [16654*]:
    → "You do not have enough mandy."
     0x0C8E [0x01] GOTO 0x08B5
     0x0C91 [0x01] GOTO 0x0D34
     0x0C94 [0x03] Work_Zone[3] = ExtData[1]->WorkLocal[5]
     0x0C99 [0xD4] MAP_QUERY_WINDOW: Prepare buffer configuration A (buffer=[01 80 18 17 D4 03 03 80...])
     0x0CB7 [0x61] EventEntity->Render.Flags2 &= ~0x00000001
     0x0CB9 [0x01] GOTO 0x8043
     0x0CBC [0x23] WAIT_FOR_DIALOG_INTERACTION
     0x0CBD [0x01] GOTO 0x0CC8
     0x0CC0 [0x2B] Chacharoon (ID: 17719722/0x010E61AA) [16658*]:
    → "Can only buy one $32 a day (Earth time). $! mandy okay?"
     0x0CC7 [0x23] WAIT_FOR_DIALOG_INTERACTION
     0x0CC8 [0xD4] MAP_QUERY_WINDOW: Test and open query window (flag=0x45, work=[0x0380, 0x0180, 0x2580])
     0x0CD1 [0x02] IF !(Work_Zone[0] == 0*) GOTO 0x0CDC
     0x0CD9 [0x01] GOTO 0x0CDC
     0x0CDC [0x01] GOTO 0x0CFB
     0x0CDF [0x2B] Chacharoon (ID: 17719722/0x010E61AA) [16660*]:
    → "$" $0 for $! mandy?"
     0x0CE6 [0x23] WAIT_FOR_DIALOG_INTERACTION
     0x0CE7 [0xD4] MAP_QUERY_WINDOW: Test and open query window (flag=0x47, work=[0x0380, 0x0180, 0x2580])
     0x0CF0 [0x02] IF !(Work_Zone[0] == 0*) GOTO 0x0CFB
     0x0CF8 [0x01] GOTO 0x0CFB
     0x0CFB [0x02] IF !(Work_Zone[0] == 0*) GOTO 0x0D31
     0x0D03 [0x42] SET_CLI_EVENT_CANCEL_DATA()
     0x0D04 [0x40] SET_BIT_WORK_RANGE(start_bit=0*, end_bit=3*, target=Work_Zone[1], source=6*)
     0x0D0D [0x40] SET_BIT_WORK_RANGE(start_bit=13*, end_bit=16*, target=Work_Zone[1], source=ExtData[1]->WorkLocal[8])
     0x0D16 [0x43] SEND_EVENT_UPDATE: Send pending tag to server (packet 0x005B)
     0x0D18 [0x43] SEND_EVENT_UPDATE: Check pending flag (skip if not pending)
     0x0D1A [0x02] IF !(Work_Zone[9] == 0*) GOTO 0x0D2D
     0x0D22 [0x40] SET_BIT_WORK_RANGE(start_bit=0*, end_bit=3*, target=Work_Zone[1], source=0*)
     0x0D2B [0x21] END_EVENT
     0x0D2C [0x00] END_REQSTACK()
     0x0D2D [0x1A] CALL_SUBROUTINE(address=0xA224)
     0x0D30 [0x2E] SET_CLI_EVENT_CANCEL_FLAGS()
     0x0D31 [0x01] GOTO 0x08B5
     0x0D34 [0x01] GOTO 0x0D7C
     0x0D67 [0x01] GOTO 0x0D6A
# Dead code (unreachable instructions):
     0x0D72 [0x01] GOTO 0x0D7C
# Dead code (unreachable instructions):
     0x0D9E [0x01] GOTO 0x0DE4
```

### Event 3632

#### Metadata

| Field        | Value      |
|--------------|------------|
| Entrypoint   | 0x0DE6     |
| Data Size    | 3006 bytes |
| Instructions | 534        |

```
      00 01 02 03 04 05 06 07  08 09 0A 0B 0C 0D 0E 0F
      -- -- -- -- -- -- -- --  -- -- -- -- -- -- -- --
0DE0:                   42 1A  64 00 48 4A 80 46 01 D9        B.d.HJ.F..
0DF0: 00 38 4B 80 77 39 80 4C  80 45 4D 80 F8 FF FF 7F  .8K.w9.L.EM.....
0E00: F8 FF FF 7F 73 73 30 30  01 80 03 0D 00 01 80 40  ....ss00.......@
0E10: 24 80 33 80 06 10 01 80  1A 43 72 1A E4 74 1A 5B  $.3......Cr..t.[
0E20: 76 1A 43 00 48 4E 80 1C  0D 80 23 48 4A 80 48 4F  v.C.HN....#HJ.HO
0E30: 80 03 0E 00 03 80 03 09  00 33 80 03 1C 00 01 80  .........3......
0E40: 45 4D 80 F8 FF FF 7F F8  FF FF 7F 30 30 30 33 01  EM.........0003.
0E50: 80 1A 55 87 1C 50 80 03  0E 00 05 80 03 09 00 24  ..U..P.........$
0E60: 80 03 1C 00 01 80 45 4D  80 F8 FF FF 7F F8 FF FF  ......EM........
0E70: 7F 30 30 30 33 01 80 1A  55 87 1C 0D 80 23 48 4A  .0003...U....#HJ
0E80: 80 1A 5B 76 48 51 80 6E  F0 FF FF 7F 01 80 99 F0  ..[vHQ.n........
0E90: FF FF 7F 1C 06 80 45 00  80 F8 FF FF 7F F8 FF FF  ......E.........
0EA0: 7F 73 30 33 38 01 80 1C  06 80 03 0E 00 03 80 03  .s038...........
0EB0: 09 00 22 80 03 1C 00 01  80 1C 50 80 45 4D 80 F8  ..".......P.EM..
0EC0: FF FF 7F F8 FF FF 7F 30  30 30 33 01 80 1A 55 87  .......0003...U.
0ED0: 27 10 AB 61 0E 01 0D 1C  50 80 03 0E 00 05 80 03  '..a....P.......
0EE0: 09 00 01 80 03 1C 00 01  80 1C 50 80 45 4D 80 F8  ..........P.EM..
0EF0: FF FF 7F F8 FF FF 7F 30  30 30 33 01 80 1A 55 87  .......0003...U.
0F00: 6E F0 FF FF 7F 01 80 99  F0 FF FF 7F 1C 06 80 45  n..............E
0F10: 00 80 F8 FF FF 7F F8 FF  FF 7F 73 30 33 38 01 80  ..........s038..
0F20: 1C 06 80 03 0E 00 03 80  03 09 00 39 80 03 1C 00  ...........9....
0F30: 01 80 1C 50 80 45 4D 80  F8 FF FF 7F F8 FF FF 7F  ...P.EM.........
0F40: 30 30 30 33 01 80 1A 55  87 27 10 AB 61 0E 01 0D  0003...U.'..a...
0F50: 1C 50 80 03 0E 00 05 80  03 09 00 3C 80 03 1C 00  .P.........<....
0F60: 01 80 1C 50 80 45 4D 80  F8 FF FF 7F F8 FF FF 7F  ...P.EM.........
0F70: 30 30 30 33 01 80 1A 55  87 6E F0 FF FF 7F 01 80  0003...U.n......
0F80: 99 F0 FF FF 7F 1C 06 80  45 00 80 F8 FF FF 7F F8  ........E.......
0F90: FF FF 7F 73 30 33 38 01  80 1C 06 80 03 0E 00 03  ...s038.........
0FA0: 80 03 09 00 25 80 03 1C  00 01 80 1C 50 80 45 4D  ....%.......P.EM
0FB0: 80 F8 FF FF 7F F8 FF FF  7F 30 30 30 33 01 80 1A  .........0003...
0FC0: 55 87 27 10 AB 61 0E 01  0D 1C 50 80 03 0E 00 05  U.'..a....P.....
0FD0: 80 03 09 00 24 80 03 1C  00 01 80 1C 50 80 45 4D  ....$.......P.EM
0FE0: 80 F8 FF FF 7F F8 FF FF  7F 30 30 30 33 01 80 1A  .........0003...
0FF0: 55 87 1C 0D 80 23 48 4A  80 48 52 80 6E F0 FF FF  U....#HJ.HR.n...
1000: 7F 01 80 99 F0 FF FF 7F  1C 06 80 45 00 80 F8 FF  ...........E....
1010: FF 7F F8 FF FF 7F 73 30  33 38 01 80 1C 06 80 03  ......s038......
1020: 0E 00 03 80 03 09 00 33  80 03 1C 00 01 80 1C 50  .......3.......P
1030: 80 45 4D 80 F8 FF FF 7F  F8 FF FF 7F 30 30 30 33  .EM.........0003
1040: 01 80 1A 55 87 53 C9 61  0E 01 C9 61 0E 01 74 6C  ...U.S.a...a..tl
1050: 6B 31 C4 02 04 80 C6 61  0E 01 F8 FF FF 7F C4 02  k1.....a........
1060: 04 80 C9 61 0E 01 F8 FF  FF 7F C4 02 04 80 CC 61  ...a...........a
1070: 0E 01 F8 FF FF 7F C4 02  04 80 CF 61 0E 01 F8 FF  ...........a....
1080: FF 7F 1C 06 80 6E F0 FF  FF 7F 39 80 99 F0 FF FF  .....n....9.....
1090: 7F 1C 53 80 23 48 4A 80  1A 5B 76 48 54 80 03 0E  ..S.#HJ..[vHT...
10A0: 00 05 80 03 09 00 22 80  03 1C 00 01 80 1A 55 87  ......".......U.
10B0: 03 0E 00 03 80 03 09 00  30 80 03 1C 00 01 80 1A  ........0.......
10C0: 55 87 03 0E 00 05 80 03  09 00 39 80 03 1C 00 01  U.........9.....
10D0: 80 1A 55 87 03 0E 00 03  80 03 09 00 35 80 03 1C  ..U.........5...
10E0: 00 01 80 1A 55 87 03 0E  00 05 80 03 09 00 33 80  ....U.........3.
10F0: 03 1C 00 01 80 1A 55 87  1C 50 80 6E F0 FF FF 7F  ......U..P.n....
1100: 01 80 99 F0 FF FF 7F 1C  06 80 45 00 80 F8 FF FF  ..........E.....
1110: 7F F8 FF FF 7F 73 30 33  38 01 80 1C 06 80 03 0E  .....s038.......
1120: 00 03 80 03 09 00 25 80  03 1C 00 01 80 1C 50 80  ......%.......P.
1130: 45 4D 80 F8 FF FF 7F F8  FF FF 7F 30 30 30 33 01  EM.........0003.
1140: 80 1A 55 87 53 CC 61 0E  01 CC 61 0E 01 74 6C 6B  ..U.S.a...a..tlk
1150: 31 2C CB 61 0E 01 CB 61  0E 01 64 65 61 64 2C CC  1,.a...a..dead,.
1160: 61 0E 01 CC 61 0E 01 64  65 61 64 2C CD 61 0E 01  a...a..dead,.a..
1170: CD 61 0E 01 64 65 61 64  D5 55 80 CB 61 0E 01 CB  .a..dead.U..a...
1180: 61 0E 01 65 66 66 30 01  80 D5 55 80 CC 61 0E 01  a..eff0...U..a..
1190: CC 61 0E 01 65 66 66 30  01 80 D5 55 80 CD 61 0E  .a..eff0...U..a.
11A0: 01 CD 61 0E 01 65 66 66  30 01 80 5B 16 80 AB 61  ..a..eff0..[...a
11B0: 0E 01 AB 61 0E 01 65 69  6F 30 1C 56 80 23 48 4A  ...a..eio0.V.#HJ
11C0: 80 1A 5B 76 48 57 80 03  0E 00 03 80 03 09 00 05  ..[vHW..........
11D0: 80 03 1C 00 01 80 1A 55  87 03 0E 00 03 80 03 09  .......U........
11E0: 00 32 80 03 1C 00 01 80  1A 55 87 03 0E 00 03 80  .2.......U......
11F0: 03 09 00 24 80 03 1C 00  01 80 1A 55 87 03 0E 00  ...$.......U....
1200: 03 80 03 09 00 34 80 03  1C 00 01 80 1A 55 87 03  .....4.......U..
1210: 0E 00 03 80 03 09 00 30  80 03 1C 00 01 80 1A 55  .......0.......U
1220: 87 1C 50 80 6E F0 FF FF  7F 01 80 99 F0 FF FF 7F  ..P.n...........
1230: 1C 06 80 45 00 80 F8 FF  FF 7F F8 FF FF 7F 73 30  ...E..........s0
1240: 33 38 01 80 1C 06 80 03  0E 00 03 80 03 09 00 33  38.............3
1250: 80 03 1C 00 01 80 1C 50  80 45 4D 80 F8 FF FF 7F  .......P.EM.....
1260: F8 FF FF 7F 30 30 30 33  01 80 1A 55 87 53 C9 61  ....0003...U.S.a
1270: 0E 01 C9 61 0E 01 74 6C  6B 31 C4 02 04 80 C7 61  ...a..tlk1.....a
1280: 0E 01 F8 FF FF 7F C4 02  04 80 C8 61 0E 01 F8 FF  ...........a....
1290: FF 7F C4 02 04 80 C9 61  0E 01 F8 FF FF 7F C4 02  .......a........
12A0: 04 80 CA 61 0E 01 F8 FF  FF 7F 1C 06 80 6E F0 FF  ...a.........n..
12B0: FF 7F 39 80 99 F0 FF FF  7F 1C 53 80 23 48 4A 80  ..9.......S.#HJ.
12C0: 1A 5B 76 48 58 80 03 0E  00 03 80 03 09 00 22 80  .[vHX.........".
12D0: 03 1C 00 01 80 1A 55 87  03 0E 00 03 80 03 09 00  ......U.........
12E0: 32 80 03 1C 00 01 80 1A  55 87 03 0E 00 03 80 03  2.......U.......
12F0: 09 00 33 80 03 1C 00 01  80 1A 55 87 03 0E 00 03  ..3.......U.....
1300: 80 03 09 00 39 80 03 1C  00 01 80 1A 55 87 03 0E  ....9.......U...
1310: 00 05 80 03 09 00 25 80  03 1C 00 01 80 1A 55 87  ......%.......U.
1320: 1C 50 80 6E F0 FF FF 7F  01 80 99 F0 FF FF 7F 1C  .P.n............
1330: 06 80 45 00 80 F8 FF FF  7F F8 FF FF 7F 73 30 33  ..E..........s03
1340: 38 01 80 1C 06 80 03 0E  00 03 80 03 09 00 3B 80  8.............;.
1350: 03 1C 00 01 80 1C 50 80  45 4D 80 F8 FF FF 7F F8  ......P.EM......
1360: FF FF 7F 30 30 30 33 01  80 1A 55 87 03 0E 00 03  ...0003...U.....
1370: 80 03 09 00 25 80 03 1C  00 03 80 1A 55 87 53 CC  ....%.......U.S.
1380: 61 0E 01 CC 61 0E 01 62  69 6B 31 C4 02 04 80 C6  a...a..bik1.....
1390: 61 0E 01 F8 FF FF 7F C4  02 04 80 C9 61 0E 01 F8  a...........a...
13A0: FF FF 7F C4 02 04 80 CC  61 0E 01 F8 FF FF 7F C4  ........a.......
13B0: 02 04 80 CF 61 0E 01 F8  FF FF 7F 1C 06 80 6E F0  ....a.........n.
13C0: FF FF 7F 39 80 99 F0 FF  FF 7F 1C 53 80 23 48 4A  ...9.......S.#HJ
13D0: 80 1A 5B 76 48 59 80 1C  5A 80 23 48 4A 80 48 5B  ..[vHY..Z.#HJ.H[
13E0: 80 23 48 4A 80 48 5C 80  23 48 4A 80 48 5D 80 03  .#HJ.H\.#HJ.H]..
13F0: 0E 00 05 80 03 09 00 01  80 03 1C 00 01 80 1A 55  ...............U
1400: 87 03 0E 00 03 80 03 09  00 03 80 03 1C 00 01 80  ................
1410: 1A 55 87 03 0E 00 05 80  03 09 00 3C 80 03 1C 00  .U.........<....
1420: 01 80 1A 55 87 03 0E 00  03 80 03 09 00 3A 80 03  ...U.........:..
1430: 1C 00 01 80 1A 55 87 03  0E 00 05 80 03 09 00 22  .....U........."
1440: 80 03 1C 00 01 80 1A 55  87 03 0E 00 03 80 03 09  .......U........
1450: 00 05 80 03 1C 00 01 80  1A 55 87 03 0E 00 05 80  .........U......
1460: 03 09 00 39 80 03 1C 00  01 80 1A 55 87 03 0E 00  ...9.......U....
1470: 03 80 03 09 00 3B 80 03  1C 00 01 80 1A 55 87 03  .....;.......U..
1480: 0E 00 05 80 03 09 00 32  80 03 1C 00 01 80 1A 55  .......2.......U
1490: 87 03 0E 00 03 80 03 09  00 35 80 03 1C 00 01 80  .........5......
14A0: 1A 55 87 03 0E 00 05 80  03 09 00 34 80 03 1C 00  .U.........4....
14B0: 01 80 1A 55 87 03 0E 00  03 80 03 09 00 38 80 03  ...U.........8..
14C0: 1C 00 01 80 1A 55 87 27  10 AB 61 0E 01 0D 1C 50  .....U.'..a....P
14D0: 80 03 0E 00 05 80 03 09  00 24 80 03 1C 00 01 80  .........$......
14E0: 1C 50 80 45 4D 80 F8 FF  FF 7F F8 FF FF 7F 30 30  .P.EM.........00
14F0: 30 33 01 80 1A 55 87 6E  F0 FF FF 7F 01 80 99 F0  03...U.n........
1500: FF FF 7F 1C 06 80 45 00  80 F8 FF FF 7F F8 FF FF  ......E.........
1510: 7F 73 30 33 38 01 80 1C  06 80 03 0E 00 03 80 03  .s038...........
1520: 09 00 25 80 03 1C 00 01  80 1C 50 80 45 4D 80 F8  ..%.......P.EM..
1530: FF FF 7F F8 FF FF 7F 30  30 30 33 01 80 1A 55 87  .......0003...U.
1540: 03 0E 00 03 80 03 09 00  24 80 03 1C 00 03 80 1A  ........$.......
1550: 55 87 53 C8 61 0E 01 C8  61 0E 01 62 69 6B 31 C4  U.S.a...a..bik1.
1560: 02 04 80 C4 61 0E 01 F8  FF FF 7F C4 02 04 80 C8  ....a...........
1570: 61 0E 01 F8 FF FF 7F C4  02 04 80 CC 61 0E 01 F8  a...........a...
1580: FF FF 7F C4 02 04 80 D0  61 0E 01 F8 FF FF 7F 1C  ........a.......
1590: 06 80 6E F0 FF FF 7F 39  80 99 F0 FF FF 7F 1C 53  ..n....9.......S
15A0: 80 23 48 4A 80 1A 5B 76  48 5E 80 03 0E 00 05 80  .#HJ..[vH^......
15B0: 03 09 00 01 80 03 1C 00  01 80 1A 55 87 03 0E 00  ...........U....
15C0: 03 80 03 09 00 32 80 03  1C 00 01 80 1A 55 87 03  .....2.......U..
15D0: 0E 00 05 80 03 09 00 22  80 03 1C 00 01 80 1A 55  .......".......U
15E0: 87 03 0E 00 03 80 03 09  00 24 80 03 1C 00 01 80  .........$......
15F0: 1A 55 87 03 0E 00 05 80  03 09 00 39 80 03 1C 00  .U.........9....
1600: 01 80 1A 55 87 03 0E 00  03 80 03 09 00 35 80 03  ...U.........5..
1610: 1C 00 01 80 1A 55 87 27  10 AB 61 0E 01 0D 1C 50  .....U.'..a....P
1620: 80 03 0E 00 05 80 03 09  00 03 80 03 1C 00 01 80  ................
1630: 1C 50 80 45 4D 80 F8 FF  FF 7F F8 FF FF 7F 30 30  .P.EM.........00
1640: 30 33 01 80 1A 55 87 1C  50 80 6E F0 FF FF 7F 01  03...U..P.n.....
1650: 80 99 F0 FF FF 7F 1C 06  80 45 00 80 F8 FF FF 7F  .........E......
1660: F8 FF FF 7F 73 30 33 38  01 80 1C 06 80 03 0E 00  ....s038........
1670: 03 80 03 09 00 05 80 03  1C 00 01 80 1C 50 80 45  .............P.E
1680: 4D 80 F8 FF FF 7F F8 FF  FF 7F 30 30 30 33 01 80  M.........0003..
1690: 1A 55 87 53 C5 61 0E 01  C5 61 0E 01 74 6C 6B 31  .U.S.a...a..tlk1
16A0: 2C C5 61 0E 01 C5 61 0E  01 64 65 61 64 2C C8 61  ,.a...a..dead,.a
16B0: 0E 01 C8 61 0E 01 64 65  61 64 2C CB 61 0E 01 CB  ...a..dead,.a...
16C0: 61 0E 01 64 65 61 64 D5  55 80 C5 61 0E 01 C5 61  a..dead.U..a...a
16D0: 0E 01 65 66 66 30 01 80  D5 55 80 C8 61 0E 01 C8  ..eff0...U..a...
16E0: 61 0E 01 65 66 66 30 01  80 D5 55 80 CB 61 0E 01  a..eff0...U..a..
16F0: CB 61 0E 01 65 66 66 30  01 80 5B 16 80 AB 61 0E  .a..eff0..[...a.
1700: 01 AB 61 0E 01 65 69 6F  30 1C 56 80 23 48 4A 80  ..a..eio0.V.#HJ.
1710: 1A 5B 76 48 5F 80 23 48  4A 80 48 60 80 27 10 C8  .[vH_.#HJ.H`.'..
1720: 61 0E 01 04 03 0E 00 03  80 03 09 00 24 80 03 1C  a...........$...
1730: 00 01 80 1C 50 80 45 4D  80 F8 FF FF 7F F8 FF FF  ....P.EM........
1740: 7F 30 30 31 31 01 80 1A  55 87 27 10 C9 61 0E 01  .0011...U.'..a..
1750: 05 03 0E 00 03 80 03 09  00 33 80 03 1C 00 01 80  .........3......
1760: 1C 50 80 45 4D 80 F8 FF  FF 7F F8 FF FF 7F 30 30  .P.EM.........00
1770: 31 31 01 80 1A 55 87 1C  0D 80 23 03 02 10 05 80  11...U....#.....
1780: 03 03 10 22 80 48 61 80  23 48 4A 80 1A 5B 76 48  ...".Ha.#HJ..[vH
1790: 62 80 03 0E 00 05 80 03  09 00 01 80 03 1C 00 01  b...............
17A0: 80 1A 55 87 03 0E 00 03  80 03 09 00 22 80 03 1C  ..U........."...
17B0: 00 01 80 1A 55 87 03 0E  00 05 80 03 09 00 34 80  ....U.........4.
17C0: 03 1C 00 01 80 1A 55 87  03 0E 00 03 80 03 09 00  ......U.........
17D0: 3C 80 03 1C 00 01 80 1A  55 87 03 0E 00 05 80 03  <.......U.......
17E0: 09 00 38 80 03 1C 00 01  80 1A 55 87 03 0E 00 03  ..8.......U.....
17F0: 80 03 09 00 39 80 03 1C  00 01 80 1A 55 87 03 0E  ....9.......U...
1800: 00 05 80 03 09 00 35 80  03 1C 00 01 80 1A 55 87  ......5.......U.
1810: 03 0E 00 03 80 03 09 00  24 80 03 1C 00 01 80 1A  ........$.......
1820: 55 87 03 0E 00 05 80 03  09 00 03 80 03 1C 00 01  U...............
1830: 80 1A 55 87 03 0E 00 03  80 03 09 00 3A 80 03 1C  ..U.........:...
1840: 00 01 80 1A 55 87 03 0E  00 05 80 03 09 00 3B 80  ....U.........;.
1850: 03 1C 00 01 80 1A 55 87  6E F0 FF FF 7F 01 80 99  ......U.n.......
1860: F0 FF FF 7F 1C 06 80 45  00 80 F8 FF FF 7F F8 FF  .......E........
1870: FF 7F 73 30 33 38 01 80  1C 06 80 03 0E 00 03 80  ..s038..........
1880: 03 09 00 05 80 03 1C 00  01 80 1C 50 80 45 4D 80  ...........P.EM.
1890: F8 FF FF 7F F8 FF FF 7F  30 30 30 33 01 80 1A 55  ........0003...U
18A0: 87 1C 50 80 27 10 AB 61  0E 01 0D 1C 50 80 03 0E  ..P.'..a....P...
18B0: 00 05 80 03 09 00 30 80  03 1C 00 01 80 1C 50 80  ......0.......P.
18C0: 45 4D 80 F8 FF FF 7F F8  FF FF 7F 30 30 30 33 01  EM.........0003.
18D0: 80 1A 55 87 03 0E 00 05  80 03 09 00 24 80 03 1C  ..U.........$...
18E0: 00 03 80 1A 55 87 53 D8  61 0E 01 D8 61 0E 01 62  ....U.S.a...a..b
18F0: 69 6B 31 2C D3 61 0E 01  D3 61 0E 01 64 65 61 64  ik1,.a...a..dead
1900: 2C D8 61 0E 01 D8 61 0E  01 64 65 61 64 2C DD 61  ,.a...a..dead,.a
1910: 0E 01 DD 61 0E 01 64 65  61 64 D5 55 80 D3 61 0E  ...a..dead.U..a.
1920: 01 D3 61 0E 01 65 66 66  30 01 80 D5 55 80 D8 61  ..a..eff0...U..a
1930: 0E 01 D8 61 0E 01 65 66  66 30 01 80 D5 55 80 DD  ...a..eff0...U..
1940: 61 0E 01 DD 61 0E 01 65  66 66 30 01 80 1C 06 80  a...a..eff0.....
1950: 6E F0 FF FF 7F 39 80 99  F0 FF FF 7F 1C 56 80 23  n....9.......V.#
1960: 1C 50 80 1A 64 00 48 4A  80 52 4D 80 F8 FF FF 7F  .P..d.HJ.RM.....
1970: F8 FF FF 7F 73 73 30 30  1A 5B 76 22 01 27 10 AB  ....ss00.[v".'..
1980: 61 0E 01 0C 59 05 AB 61  0E 01 00 59 05 F0 FF FF  a...Y..a...Y....
1990: 7F 00 78 1C 3C 80 AB 11  01 80 1C 03 80 D9 01 46  ..x.<..........F
19A0: 00 30 21 00                                       .0!.            
```

#### Opcodes

```
  0: 0x0DE6 [0x42] SET_CLI_EVENT_CANCEL_DATA()
  1: 0x0DE7 [0x1A] CALL_SUBROUTINE(address=0x0064)
  2: 0x0DEA [0x48] [System] [16151*]:
    → "@@"
  3: 0x0DED [0x46] CAMERA_CONTROL: Disable user control
  4: 0x0DEF [0xD9] SET_SOUND_EFFECT_LIMIT_FLAG(flag_value=0x00)
  5: 0x0DF1 [0x38] SET_CLIENT_EVENT_MODE(mode=147*)
  6: 0x0DF4 [0x77] SET_EVENT_TIME_WEATHER(hour=12*, weather=255*)
  7: 0x0DF9 [0x45] LOAD_SCHEDULED_TASK: Load scheduler "ss00" with entities [EventEntity, EventEntity], work=[867*, 0*]
  8: 0x0E0A [0x03] ExtData[1]->WorkLocal[13] = 0*
  9: 0x0E0F [0x40] SET_BIT_WORK_RANGE(start_bit=5*, end_bit=6*, target=Work_Zone[6], source=0*)
 10: 0x0E18 [0x1A] CALL_SUBROUTINE(address=0x7243)
 11: 0x0E1B [0x1A] CALL_SUBROUTINE(address=0x74E4)
 12: 0x0E1E [0x1A] CALL_SUBROUTINE(address=0x765B)
 13: 0x0E21 [0x1A] CALL_SUBROUTINE(address=0x0043)
 14: 0x0E24 [0x48] [System] [16625*]:
    → "Mandragora Mania Madness is a game in which players battle by placing different colored game pieces on a 4x4 playing area."
 15: 0x0E27 [0x1C] WAIT(120* ticks)
 16: 0x0E2A [0x23] WAIT_FOR_DIALOG_INTERACTION
 17: 0x0E2B [0x48] [System] [16151*]:
    → "@@"
 18: 0x0E2E [0x48] [System] [16626*]:
    → "You use the white pieces (mandragoras), while your opponent uses the black pieces (corrigans)."
 19: 0x0E31 [0x03] ExtData[1]->WorkLocal[14] = 1*
 20: 0x0E36 [0x03] ExtData[1]->WorkLocal[9] = 6*
 21: 0x0E3B [0x03] ExtData[1]->WorkLocal[28] = 0*
 22: 0x0E40 [0x45] LOAD_SCHEDULED_TASK: Load scheduler "0003" with entities [EventEntity, EventEntity], work=[867*, 0*]
 23: 0x0E51 [0x1A] CALL_SUBROUTINE(address=0x8755)
 24: 0x0E54 [0x1C] WAIT(60* ticks)
 25: 0x0E57 [0x03] ExtData[1]->WorkLocal[14] = 2*
 26: 0x0E5C [0x03] ExtData[1]->WorkLocal[9] = 5*
 27: 0x0E61 [0x03] ExtData[1]->WorkLocal[28] = 0*
 28: 0x0E66 [0x45] LOAD_SCHEDULED_TASK: Load scheduler "0003" with entities [EventEntity, EventEntity], work=[867*, 0*]
 29: 0x0E77 [0x1A] CALL_SUBROUTINE(address=0x8755)
 30: 0x0E7A [0x1C] WAIT(120* ticks)
 31: 0x0E7D [0x23] WAIT_FOR_DIALOG_INTERACTION
 32: 0x0E7E [0x48] [System] [16151*]:
    → "@@"
 33: 0x0E81 [0x1A] CALL_SUBROUTINE(address=0x765B)
 34: 0x0E84 [0x48] [System] [16627*]:
    → "The player to go first is determined randomly when the game begins. You will be able to adjust these settings yourself from the second game onward."
 35: 0x0E87 [0x6E] LocalPlayer uses emote 0*
 36: 0x0E8E [0x99] Wait for LocalPlayer animation to complete
 37: 0x0E93 [0x1C] WAIT(30* ticks)
 38: 0x0E96 [0x45] LOAD_SCHEDULED_TASK: Load scheduler "s038" with entities [EventEntity, EventEntity], work=[200*, 0*]
 39: 0x0EA7 [0x1C] WAIT(30* ticks)
 40: 0x0EAA [0x03] ExtData[1]->WorkLocal[14] = 1*
 41: 0x0EAF [0x03] ExtData[1]->WorkLocal[9] = 3*
 42: 0x0EB4 [0x03] ExtData[1]->WorkLocal[28] = 0*
 43: 0x0EB9 [0x1C] WAIT(60* ticks)
 44: 0x0EBC [0x45] LOAD_SCHEDULED_TASK: Load scheduler "0003" with entities [EventEntity, EventEntity], work=[867*, 0*]
 45: 0x0ECD [0x1A] CALL_SUBROUTINE(address=0x8755)
 46: 0x0ED0 [0x27] REQ_SET(priority=0x10, entity_id=Unnamed NPC (ID: 17719723/0x010E61AB), tag_num=0x0D)
 47: 0x0ED7 [0x1C] WAIT(60* ticks)
 48: 0x0EDA [0x03] ExtData[1]->WorkLocal[14] = 2*
 49: 0x0EDF [0x03] ExtData[1]->WorkLocal[9] = 0*
 50: 0x0EE4 [0x03] ExtData[1]->WorkLocal[28] = 0*
 51: 0x0EE9 [0x1C] WAIT(60* ticks)
 52: 0x0EEC [0x45] LOAD_SCHEDULED_TASK: Load scheduler "0003" with entities [EventEntity, EventEntity], work=[867*, 0*]
 53: 0x0EFD [0x1A] CALL_SUBROUTINE(address=0x8755)
 54: 0x0F00 [0x6E] LocalPlayer uses emote 0*
 55: 0x0F07 [0x99] Wait for LocalPlayer animation to complete
 56: 0x0F0C [0x1C] WAIT(30* ticks)
 57: 0x0F0F [0x45] LOAD_SCHEDULED_TASK: Load scheduler "s038" with entities [EventEntity, EventEntity], work=[200*, 0*]
 58: 0x0F20 [0x1C] WAIT(30* ticks)
 59: 0x0F23 [0x03] ExtData[1]->WorkLocal[14] = 1*
 60: 0x0F28 [0x03] ExtData[1]->WorkLocal[9] = 12*
 61: 0x0F2D [0x03] ExtData[1]->WorkLocal[28] = 0*
 62: 0x0F32 [0x1C] WAIT(60* ticks)
 63: 0x0F35 [0x45] LOAD_SCHEDULED_TASK: Load scheduler "0003" with entities [EventEntity, EventEntity], work=[867*, 0*]
 64: 0x0F46 [0x1A] CALL_SUBROUTINE(address=0x8755)
 65: 0x0F49 [0x27] REQ_SET(priority=0x10, entity_id=Unnamed NPC (ID: 17719723/0x010E61AB), tag_num=0x0D)
 66: 0x0F50 [0x1C] WAIT(60* ticks)
 67: 0x0F53 [0x03] ExtData[1]->WorkLocal[14] = 2*
 68: 0x0F58 [0x03] ExtData[1]->WorkLocal[9] = 15*
 69: 0x0F5D [0x03] ExtData[1]->WorkLocal[28] = 0*
 70: 0x0F62 [0x1C] WAIT(60* ticks)
 71: 0x0F65 [0x45] LOAD_SCHEDULED_TASK: Load scheduler "0003" with entities [EventEntity, EventEntity], work=[867*, 0*]
 72: 0x0F76 [0x1A] CALL_SUBROUTINE(address=0x8755)
 73: 0x0F79 [0x6E] LocalPlayer uses emote 0*
 74: 0x0F80 [0x99] Wait for LocalPlayer animation to complete
 75: 0x0F85 [0x1C] WAIT(30* ticks)
 76: 0x0F88 [0x45] LOAD_SCHEDULED_TASK: Load scheduler "s038" with entities [EventEntity, EventEntity], work=[200*, 0*]
 77: 0x0F99 [0x1C] WAIT(30* ticks)
 78: 0x0F9C [0x03] ExtData[1]->WorkLocal[14] = 1*
 79: 0x0FA1 [0x03] ExtData[1]->WorkLocal[9] = 9*
 80: 0x0FA6 [0x03] ExtData[1]->WorkLocal[28] = 0*
 81: 0x0FAB [0x1C] WAIT(60* ticks)
 82: 0x0FAE [0x45] LOAD_SCHEDULED_TASK: Load scheduler "0003" with entities [EventEntity, EventEntity], work=[867*, 0*]
 83: 0x0FBF [0x1A] CALL_SUBROUTINE(address=0x8755)
 84: 0x0FC2 [0x27] REQ_SET(priority=0x10, entity_id=Unnamed NPC (ID: 17719723/0x010E61AB), tag_num=0x0D)
 85: 0x0FC9 [0x1C] WAIT(60* ticks)
 86: 0x0FCC [0x03] ExtData[1]->WorkLocal[14] = 2*
 87: 0x0FD1 [0x03] ExtData[1]->WorkLocal[9] = 5*
 88: 0x0FD6 [0x03] ExtData[1]->WorkLocal[28] = 0*
 89: 0x0FDB [0x1C] WAIT(60* ticks)
 90: 0x0FDE [0x45] LOAD_SCHEDULED_TASK: Load scheduler "0003" with entities [EventEntity, EventEntity], work=[867*, 0*]
 91: 0x0FEF [0x1A] CALL_SUBROUTINE(address=0x8755)
 92: 0x0FF2 [0x1C] WAIT(120* ticks)
 93: 0x0FF5 [0x23] WAIT_FOR_DIALOG_INTERACTION
 94: 0x0FF6 [0x48] [System] [16151*]:
    → "@@"
 95: 0x0FF9 [0x48] [System] [16628*]:
    → "The first player to place four pieces so they align in a row will be declared the winner."
 96: 0x0FFC [0x6E] LocalPlayer uses emote 0*
 97: 0x1003 [0x99] Wait for LocalPlayer animation to complete
 98: 0x1008 [0x1C] WAIT(30* ticks)
 99: 0x100B [0x45] LOAD_SCHEDULED_TASK: Load scheduler "s038" with entities [EventEntity, EventEntity], work=[200*, 0*]
100: 0x101C [0x1C] WAIT(30* ticks)
101: 0x101F [0x03] ExtData[1]->WorkLocal[14] = 1*
102: 0x1024 [0x03] ExtData[1]->WorkLocal[9] = 6*
103: 0x1029 [0x03] ExtData[1]->WorkLocal[28] = 0*
104: 0x102E [0x1C] WAIT(60* ticks)
105: 0x1031 [0x45] LOAD_SCHEDULED_TASK: Load scheduler "0003" with entities [EventEntity, EventEntity], work=[867*, 0*]
106: 0x1042 [0x1A] CALL_SUBROUTINE(address=0x8755)
107: 0x1045 [0x53] WAIT_SCHEDULER_TASK: Wait for scheduler "tlk1" with entities [Unnamed NPC (ID: 17719753/0x010E61C9), Unnamed NPC (ID: 17719753/0x010E61C9)]
108: 0x1052 [0xC4] SCHEDULE_MAGIC_CASTING_ALT (arg=18): Unnamed NPC (ID: 17719750/0x010E61C6) casts magic 45* on EventEntity
109: 0x105E [0xC4] SCHEDULE_MAGIC_CASTING_ALT (arg=18): Unnamed NPC (ID: 17719753/0x010E61C9) casts magic 45* on EventEntity
110: 0x106A [0xC4] SCHEDULE_MAGIC_CASTING_ALT (arg=18): Unnamed NPC (ID: 17719756/0x010E61CC) casts magic 45* on EventEntity
111: 0x1076 [0xC4] SCHEDULE_MAGIC_CASTING_ALT (arg=18): Unnamed NPC (ID: 17719759/0x010E61CF) casts magic 45* on EventEntity
112: 0x1082 [0x1C] WAIT(30* ticks)
113: 0x1085 [0x6E] LocalPlayer uses emote 12*
114: 0x108C [0x99] Wait for LocalPlayer animation to complete
115: 0x1091 [0x1C] WAIT(360* ticks)
116: 0x1094 [0x23] WAIT_FOR_DIALOG_INTERACTION
117: 0x1095 [0x48] [System] [16151*]:
    → "@@"
118: 0x1098 [0x1A] CALL_SUBROUTINE(address=0x765B)
119: 0x109B [0x48] [System] [16629*]:
    → "However, you will automatically be disqualified if you ever place three of your pieces in a row, so be mindful of your moves at all times."
120: 0x109E [0x03] ExtData[1]->WorkLocal[14] = 2*
121: 0x10A3 [0x03] ExtData[1]->WorkLocal[9] = 3*
122: 0x10A8 [0x03] ExtData[1]->WorkLocal[28] = 0*
123: 0x10AD [0x1A] CALL_SUBROUTINE(address=0x8755)
124: 0x10B0 [0x03] ExtData[1]->WorkLocal[14] = 1*
125: 0x10B5 [0x03] ExtData[1]->WorkLocal[9] = 10*
126: 0x10BA [0x03] ExtData[1]->WorkLocal[28] = 0*
127: 0x10BF [0x1A] CALL_SUBROUTINE(address=0x8755)
128: 0x10C2 [0x03] ExtData[1]->WorkLocal[14] = 2*
129: 0x10C7 [0x03] ExtData[1]->WorkLocal[9] = 12*
130: 0x10CC [0x03] ExtData[1]->WorkLocal[28] = 0*
131: 0x10D1 [0x1A] CALL_SUBROUTINE(address=0x8755)
132: 0x10D4 [0x03] ExtData[1]->WorkLocal[14] = 1*
133: 0x10D9 [0x03] ExtData[1]->WorkLocal[9] = 8*
134: 0x10DE [0x03] ExtData[1]->WorkLocal[28] = 0*
135: 0x10E3 [0x1A] CALL_SUBROUTINE(address=0x8755)
136: 0x10E6 [0x03] ExtData[1]->WorkLocal[14] = 2*
137: 0x10EB [0x03] ExtData[1]->WorkLocal[9] = 6*
138: 0x10F0 [0x03] ExtData[1]->WorkLocal[28] = 0*
139: 0x10F5 [0x1A] CALL_SUBROUTINE(address=0x8755)
140: 0x10F8 [0x1C] WAIT(60* ticks)
141: 0x10FB [0x6E] LocalPlayer uses emote 0*
142: 0x1102 [0x99] Wait for LocalPlayer animation to complete
143: 0x1107 [0x1C] WAIT(30* ticks)
144: 0x110A [0x45] LOAD_SCHEDULED_TASK: Load scheduler "s038" with entities [EventEntity, EventEntity], work=[200*, 0*]
145: 0x111B [0x1C] WAIT(30* ticks)
146: 0x111E [0x03] ExtData[1]->WorkLocal[14] = 1*
147: 0x1123 [0x03] ExtData[1]->WorkLocal[9] = 9*
148: 0x1128 [0x03] ExtData[1]->WorkLocal[28] = 0*
149: 0x112D [0x1C] WAIT(60* ticks)
150: 0x1130 [0x45] LOAD_SCHEDULED_TASK: Load scheduler "0003" with entities [EventEntity, EventEntity], work=[867*, 0*]
151: 0x1141 [0x1A] CALL_SUBROUTINE(address=0x8755)
152: 0x1144 [0x53] WAIT_SCHEDULER_TASK: Wait for scheduler "tlk1" with entities [Unnamed NPC (ID: 17719756/0x010E61CC), Unnamed NPC (ID: 17719756/0x010E61CC)]
153: 0x1151 [0x2C] CREATE_SCHEDULER_TASK: Create scheduler "dead" with entities [Unnamed NPC (ID: 17719755/0x010E61CB), Unnamed NPC (ID: 17719755/0x010E61CB)]
154: 0x115E [0x2C] CREATE_SCHEDULER_TASK: Create scheduler "dead" with entities [Unnamed NPC (ID: 17719756/0x010E61CC), Unnamed NPC (ID: 17719756/0x010E61CC)]
155: 0x116B [0x2C] CREATE_SCHEDULER_TASK: Create scheduler "dead" with entities [Unnamed NPC (ID: 17719757/0x010E61CD), Unnamed NPC (ID: 17719757/0x010E61CD)]
156: 0x1178 [0xD5] LOAD_EVENT_SCHEDULER_ALT8: Load scheduler "ef" with entities [Unnamed NPC (ID: 17719755/0x010E61CB), Unnamed NPC (ID: 17719755/0x010E61CB)], work=ExtData[1]->WorkLocal[1]
157: 0x1189 [0xD5] LOAD_EVENT_SCHEDULER_ALT8: Load scheduler "ef" with entities [Unnamed NPC (ID: 17719756/0x010E61CC), Unnamed NPC (ID: 17719756/0x010E61CC)], work=ExtData[1]->WorkLocal[1]
158: 0x119A [0xD5] LOAD_EVENT_SCHEDULER_ALT8: Load scheduler "ef" with entities [Unnamed NPC (ID: 17719757/0x010E61CD), Unnamed NPC (ID: 17719757/0x010E61CD)], work=ExtData[1]->WorkLocal[1]
159: 0x11AB [0x5B] LOAD_EXT_SCHEDULER: Load scheduler "eio0" with entities [Unnamed NPC (ID: 17719723/0x010E61AB), Unnamed NPC (ID: 17719723/0x010E61AB)], work=2643*
160: 0x11BA [0x1C] WAIT(240* ticks)
161: 0x11BD [0x23] WAIT_FOR_DIALOG_INTERACTION
162: 0x11BE [0x48] [System] [16151*]:
    → "@@"
163: 0x11C1 [0x1A] CALL_SUBROUTINE(address=0x765B)
164: 0x11C4 [0x48] [System] [16630*]:
    → "Note that if you place your game pieces so that you have both three and four pieces in a row, the row with four pieces will take precedence and you will win the game."
165: 0x11C7 [0x03] ExtData[1]->WorkLocal[14] = 1*
166: 0x11CC [0x03] ExtData[1]->WorkLocal[9] = 2*
167: 0x11D1 [0x03] ExtData[1]->WorkLocal[28] = 0*
168: 0x11D6 [0x1A] CALL_SUBROUTINE(address=0x8755)
169: 0x11D9 [0x03] ExtData[1]->WorkLocal[14] = 1*
170: 0x11DE [0x03] ExtData[1]->WorkLocal[9] = 4*
171: 0x11E3 [0x03] ExtData[1]->WorkLocal[28] = 0*
172: 0x11E8 [0x1A] CALL_SUBROUTINE(address=0x8755)
173: 0x11EB [0x03] ExtData[1]->WorkLocal[14] = 1*
174: 0x11F0 [0x03] ExtData[1]->WorkLocal[9] = 5*
175: 0x11F5 [0x03] ExtData[1]->WorkLocal[28] = 0*
176: 0x11FA [0x1A] CALL_SUBROUTINE(address=0x8755)
177: 0x11FD [0x03] ExtData[1]->WorkLocal[14] = 1*
178: 0x1202 [0x03] ExtData[1]->WorkLocal[9] = 7*
179: 0x1207 [0x03] ExtData[1]->WorkLocal[28] = 0*
180: 0x120C [0x1A] CALL_SUBROUTINE(address=0x8755)
181: 0x120F [0x03] ExtData[1]->WorkLocal[14] = 1*
182: 0x1214 [0x03] ExtData[1]->WorkLocal[9] = 10*
183: 0x1219 [0x03] ExtData[1]->WorkLocal[28] = 0*
184: 0x121E [0x1A] CALL_SUBROUTINE(address=0x8755)
185: 0x1221 [0x1C] WAIT(60* ticks)
186: 0x1224 [0x6E] LocalPlayer uses emote 0*
187: 0x122B [0x99] Wait for LocalPlayer animation to complete
188: 0x1230 [0x1C] WAIT(30* ticks)
189: 0x1233 [0x45] LOAD_SCHEDULED_TASK: Load scheduler "s038" with entities [EventEntity, EventEntity], work=[200*, 0*]
190: 0x1244 [0x1C] WAIT(30* ticks)
191: 0x1247 [0x03] ExtData[1]->WorkLocal[14] = 1*
192: 0x124C [0x03] ExtData[1]->WorkLocal[9] = 6*
193: 0x1251 [0x03] ExtData[1]->WorkLocal[28] = 0*
194: 0x1256 [0x1C] WAIT(60* ticks)
195: 0x1259 [0x45] LOAD_SCHEDULED_TASK: Load scheduler "0003" with entities [EventEntity, EventEntity], work=[867*, 0*]
196: 0x126A [0x1A] CALL_SUBROUTINE(address=0x8755)
197: 0x126D [0x53] WAIT_SCHEDULER_TASK: Wait for scheduler "tlk1" with entities [Unnamed NPC (ID: 17719753/0x010E61C9), Unnamed NPC (ID: 17719753/0x010E61C9)]
198: 0x127A [0xC4] SCHEDULE_MAGIC_CASTING_ALT (arg=18): Unnamed NPC (ID: 17719751/0x010E61C7) casts magic 45* on EventEntity
199: 0x1286 [0xC4] SCHEDULE_MAGIC_CASTING_ALT (arg=18): Unnamed NPC (ID: 17719752/0x010E61C8) casts magic 45* on EventEntity
200: 0x1292 [0xC4] SCHEDULE_MAGIC_CASTING_ALT (arg=18): Unnamed NPC (ID: 17719753/0x010E61C9) casts magic 45* on EventEntity
201: 0x129E [0xC4] SCHEDULE_MAGIC_CASTING_ALT (arg=18): Unnamed NPC (ID: 17719754/0x010E61CA) casts magic 45* on EventEntity
202: 0x12AA [0x1C] WAIT(30* ticks)
203: 0x12AD [0x6E] LocalPlayer uses emote 12*
204: 0x12B4 [0x99] Wait for LocalPlayer animation to complete
205: 0x12B9 [0x1C] WAIT(360* ticks)
206: 0x12BC [0x23] WAIT_FOR_DIALOG_INTERACTION
207: 0x12BD [0x48] [System] [16151*]:
    → "@@"
208: 0x12C0 [0x1A] CALL_SUBROUTINE(address=0x765B)
209: 0x12C3 [0x48] [System] [16631*]:
    → "If you place a game piece on either side of your opponent's piece, you will convert it into one of your pieces."
210: 0x12C6 [0x03] ExtData[1]->WorkLocal[14] = 1*
211: 0x12CB [0x03] ExtData[1]->WorkLocal[9] = 3*
212: 0x12D0 [0x03] ExtData[1]->WorkLocal[28] = 0*
213: 0x12D5 [0x1A] CALL_SUBROUTINE(address=0x8755)
214: 0x12D8 [0x03] ExtData[1]->WorkLocal[14] = 1*
215: 0x12DD [0x03] ExtData[1]->WorkLocal[9] = 4*
216: 0x12E2 [0x03] ExtData[1]->WorkLocal[28] = 0*
217: 0x12E7 [0x1A] CALL_SUBROUTINE(address=0x8755)
218: 0x12EA [0x03] ExtData[1]->WorkLocal[14] = 1*
219: 0x12EF [0x03] ExtData[1]->WorkLocal[9] = 6*
220: 0x12F4 [0x03] ExtData[1]->WorkLocal[28] = 0*
221: 0x12F9 [0x1A] CALL_SUBROUTINE(address=0x8755)
222: 0x12FC [0x03] ExtData[1]->WorkLocal[14] = 1*
223: 0x1301 [0x03] ExtData[1]->WorkLocal[9] = 12*
224: 0x1306 [0x03] ExtData[1]->WorkLocal[28] = 0*
225: 0x130B [0x1A] CALL_SUBROUTINE(address=0x8755)
226: 0x130E [0x03] ExtData[1]->WorkLocal[14] = 2*
227: 0x1313 [0x03] ExtData[1]->WorkLocal[9] = 9*
228: 0x1318 [0x03] ExtData[1]->WorkLocal[28] = 0*
229: 0x131D [0x1A] CALL_SUBROUTINE(address=0x8755)
230: 0x1320 [0x1C] WAIT(60* ticks)
231: 0x1323 [0x6E] LocalPlayer uses emote 0*
232: 0x132A [0x99] Wait for LocalPlayer animation to complete
233: 0x132F [0x1C] WAIT(30* ticks)
234: 0x1332 [0x45] LOAD_SCHEDULED_TASK: Load scheduler "s038" with entities [EventEntity, EventEntity], work=[200*, 0*]
235: 0x1343 [0x1C] WAIT(30* ticks)
236: 0x1346 [0x03] ExtData[1]->WorkLocal[14] = 1*
237: 0x134B [0x03] ExtData[1]->WorkLocal[9] = 14*
238: 0x1350 [0x03] ExtData[1]->WorkLocal[28] = 0*
239: 0x1355 [0x1C] WAIT(60* ticks)
240: 0x1358 [0x45] LOAD_SCHEDULED_TASK: Load scheduler "0003" with entities [EventEntity, EventEntity], work=[867*, 0*]
241: 0x1369 [0x1A] CALL_SUBROUTINE(address=0x8755)
242: 0x136C [0x03] ExtData[1]->WorkLocal[14] = 1*
243: 0x1371 [0x03] ExtData[1]->WorkLocal[9] = 9*
244: 0x1376 [0x03] ExtData[1]->WorkLocal[28] = 1*
245: 0x137B [0x1A] CALL_SUBROUTINE(address=0x8755)
246: 0x137E [0x53] WAIT_SCHEDULER_TASK: Wait for scheduler "bik1" with entities [Unnamed NPC (ID: 17719756/0x010E61CC), Unnamed NPC (ID: 17719756/0x010E61CC)]
247: 0x138B [0xC4] SCHEDULE_MAGIC_CASTING_ALT (arg=18): Unnamed NPC (ID: 17719750/0x010E61C6) casts magic 45* on EventEntity
248: 0x1397 [0xC4] SCHEDULE_MAGIC_CASTING_ALT (arg=18): Unnamed NPC (ID: 17719753/0x010E61C9) casts magic 45* on EventEntity
249: 0x13A3 [0xC4] SCHEDULE_MAGIC_CASTING_ALT (arg=18): Unnamed NPC (ID: 17719756/0x010E61CC) casts magic 45* on EventEntity
250: 0x13AF [0xC4] SCHEDULE_MAGIC_CASTING_ALT (arg=18): Unnamed NPC (ID: 17719759/0x010E61CF) casts magic 45* on EventEntity
251: 0x13BB [0x1C] WAIT(30* ticks)
252: 0x13BE [0x6E] LocalPlayer uses emote 12*
253: 0x13C5 [0x99] Wait for LocalPlayer animation to complete
254: 0x13CA [0x1C] WAIT(360* ticks)
255: 0x13CD [0x23] WAIT_FOR_DIALOG_INTERACTION
256: 0x13CE [0x48] [System] [16151*]:
    → "@@"
257: 0x13D1 [0x1A] CALL_SUBROUTINE(address=0x765B)
258: 0x13D4 [0x48] [System] [16632*]:
    → "You can play anywhere from three to five games, and the first player to win three games is the winner."
259: 0x13D7 [0x1C] WAIT(180* ticks)
260: 0x13DA [0x23] WAIT_FOR_DIALOG_INTERACTION
261: 0x13DB [0x48] [System] [16151*]:
    → "@@"
262: 0x13DE [0x48] [System] [16633*]:
    → "Now, for an explanation on points."
263: 0x13E1 [0x23] WAIT_FOR_DIALOG_INTERACTION
264: 0x13E2 [0x48] [System] [16151*]:
    → "@@"
265: 0x13E5 [0x48] [System] [16634*]:
    → "You receive points after the completion of each game. The points are tallied using units known as mandy."
266: 0x13E8 [0x23] WAIT_FOR_DIALOG_INTERACTION
267: 0x13E9 [0x48] [System] [16151*]:
    → "@@"
268: 0x13EC [0x48] [System] [16635*]:
    → "If you win the game, you will receive a number of points equal to the number of game pieces you have on the board. In the example shown, you will earn 8 mandy."
269: 0x13EF [0x03] ExtData[1]->WorkLocal[14] = 2*
270: 0x13F4 [0x03] ExtData[1]->WorkLocal[9] = 0*
271: 0x13F9 [0x03] ExtData[1]->WorkLocal[28] = 0*
272: 0x13FE [0x1A] CALL_SUBROUTINE(address=0x8755)
273: 0x1401 [0x03] ExtData[1]->WorkLocal[14] = 1*
274: 0x1406 [0x03] ExtData[1]->WorkLocal[9] = 1*
275: 0x140B [0x03] ExtData[1]->WorkLocal[28] = 0*
276: 0x1410 [0x1A] CALL_SUBROUTINE(address=0x8755)
277: 0x1413 [0x03] ExtData[1]->WorkLocal[14] = 2*
278: 0x1418 [0x03] ExtData[1]->WorkLocal[9] = 15*
279: 0x141D [0x03] ExtData[1]->WorkLocal[28] = 0*
280: 0x1422 [0x1A] CALL_SUBROUTINE(address=0x8755)
281: 0x1425 [0x03] ExtData[1]->WorkLocal[14] = 1*
282: 0x142A [0x03] ExtData[1]->WorkLocal[9] = 13*
283: 0x142F [0x03] ExtData[1]->WorkLocal[28] = 0*
284: 0x1434 [0x1A] CALL_SUBROUTINE(address=0x8755)
285: 0x1437 [0x03] ExtData[1]->WorkLocal[14] = 2*
286: 0x143C [0x03] ExtData[1]->WorkLocal[9] = 3*
287: 0x1441 [0x03] ExtData[1]->WorkLocal[28] = 0*
288: 0x1446 [0x1A] CALL_SUBROUTINE(address=0x8755)
289: 0x1449 [0x03] ExtData[1]->WorkLocal[14] = 1*
290: 0x144E [0x03] ExtData[1]->WorkLocal[9] = 2*
291: 0x1453 [0x03] ExtData[1]->WorkLocal[28] = 0*
292: 0x1458 [0x1A] CALL_SUBROUTINE(address=0x8755)
293: 0x145B [0x03] ExtData[1]->WorkLocal[14] = 2*
294: 0x1460 [0x03] ExtData[1]->WorkLocal[9] = 12*
295: 0x1465 [0x03] ExtData[1]->WorkLocal[28] = 0*
296: 0x146A [0x1A] CALL_SUBROUTINE(address=0x8755)
297: 0x146D [0x03] ExtData[1]->WorkLocal[14] = 1*
298: 0x1472 [0x03] ExtData[1]->WorkLocal[9] = 14*
