# 17719356 - Exoroche

## Common Data

| Field            | Value                         |
|------------------|-------------------------------|
| Zone             | Southern San d'Oria (ID: 230) |
| Block Size       | 1188 bytes                    |
| Total Events     | 20                            |
| References Count | 59                            |

## List of Events

| Event ID                 | Entrypoint   |   Size |   Instructions |
|--------------------------|--------------|--------|----------------|
| [65535](#event-65535)    | 0x0000       |      1 |              1 |
| [542](#event-542)        | 0x0001       |     74 |             16 |
| [593](#event-593)        | 0x004B       |      1 |              1 |
| [65535.1](#event-655351) | 0x004C       |     22 |              8 |
| [50](#event-50)          | 0x0062       |      1 |              1 |
| [32](#event-32)          | 0x0063       |     18 |              8 |
| [77](#event-77)          | 0x0075       |      1 |              1 |
| [79](#event-79)          | 0x0076       |     25 |             13 |
| [51](#event-51)          | 0x008F       |     13 |              7 |
| [19](#event-19)          | 0x009C       |     13 |              7 |
| [76](#event-76)          | 0x00A9       |     17 |              9 |
| [65535.2](#event-655352) | 0x00BA       |     19 |              3 |
| [65535.3](#event-655353) | 0x00CD       |     32 |              4 |
| [65535.4](#event-655354) | 0x00ED       |     19 |              3 |
| [65535.5](#event-655355) | 0x0100       |      9 |              3 |
| [946](#event-946)        | 0x0109       |     19 |              9 |
| [947](#event-947)        | 0x011C       |    528 |             95 |
| [65535.6](#event-655356) | 0x032C       |     14 |              4 |
| [65535.7](#event-655357) | 0x033A       |     14 |              4 |
| [65535.8](#event-655358) | 0x0348       |     14 |              4 |

## DAT References (imed_data)

|   Index | Hex Value   |   Dec Value |
|---------|-------------|-------------|
|       0 | 0x0014      |          20 |
|       1 | 0x1EA1      |        7841 |
|       2 | 0x001E      |          30 |
|       3 | 0x1EA2      |        7842 |
|       4 | 0x0015      |          21 |
|       5 | 0x000D      |          13 |
|       6 | 0x119DB     |       72155 |
|       7 | 0xE3C5      |       58309 |
|       8 | 0x0000      |           0 |
|       9 | 0x00DA      |         218 |
|      10 | 0x23BB      |        9147 |
|      11 | 0x23DE      |        9182 |
|      12 | 0x23DF      |        9183 |
|      13 | 0x23E0      |        9184 |
|      14 | 0x23E1      |        9185 |
|      15 | 0x23E2      |        9186 |
|      16 | 0x23E7      |        9191 |
|      17 | 0x23E8      |        9192 |
|      18 | 0x23E9      |        9193 |
|      19 | 0x003C      |          60 |
|      20 | 0x36B6      |       14006 |
|      21 | 0x36B7      |       14007 |
|      22 | 0x00C8      |         200 |
|      23 | 0x0013      |          19 |
|      24 | 0x014B      |         331 |
|      25 | 0x11922     |       71970 |
|      26 | 0xECBB      |       60603 |
|      27 | 0xFFFFFFE3  |  4294967267 |
|      28 | 0x0619      |        1561 |
|      29 | 0x01C9      |         457 |
|      30 | 0x2CEB      |       11499 |
|      31 | 0x36B8      |       14008 |
|      32 | 0x36B9      |       14009 |
|      33 | 0x36BA      |       14010 |
|      34 | 0x36BB      |       14011 |
|      35 | 0x36BC      |       14012 |
|      36 | 0x0019      |          25 |
|      37 | 0x36BD      |       14013 |
|      38 | 0x36BE      |       14014 |
|      39 | 0x36BF      |       14015 |
|      40 | 0x001A      |          26 |
|      41 | 0x36C0      |       14016 |
|      42 | 0x0020      |          32 |
|      43 | 0x36C1      |       14017 |
|      44 | 0x36C2      |       14018 |
|      45 | 0x0007      |           7 |
|      46 | 0x36C3      |       14019 |
|      47 | 0x0006      |           6 |
|      48 | 0x36C4      |       14020 |
|      49 | 0x0018      |          24 |
|      50 | 0x36C5      |       14021 |
|      51 | 0x36C6      |       14022 |
|      52 | 0x000A      |          10 |
|      53 | 0x1116C     |       69996 |
|      54 | 0xDABB      |       55995 |
|      55 | 0x11CB0     |       72880 |
|      56 | 0xDBDD      |       56285 |
|      57 | 0x113C2     |       70594 |
|      58 | 0xE780      |       59264 |

## String References

- **7841**: What's that? My son? At the Parade Grounds? So that's where he is! Could you let him know I'll go as soon as I'm done?
- **7842**: Thank you for your help. You have my gratitude.
- **9147**: Why, those $3 are from the Royal Knights. How came you by them? I should convey this to Prince Trion.
- **9182**: What, you want me to tell you about that paper? It's a special form my division uses for messages. The words are unseen, but they're there.
- **9183**: We no longer use it, so let me tell you how it works.
- **9184**: In Davoi there is a well that Orcs use. Dip the paper into its water and the writing will reappear.
- **9185**: Long ago we used to keep the water in our inkwells to use when reading the messages, but now even mine is dry. Take this one to the well if you must read it.
- **9186**: It says what? I would believe you, but I cannot.
- **9191**: Thank you for your help. I must inform Prince Trion of this unfortunate turn of events. I am summarizing my report now.
- **9192**: Currently I am suggesting we sell all the weapons we purchased so far, but it's a pity we have to sell low what we bought high. Now I know how you adventurers must feel.
- **9193**: My son and I are going fishing. I keep wanting to take the best pole for myself, but I am not who I once was. We will catch a big one with the same pole!
- **14006**: What's that? You wish to hear of my father? Forgive me, but I'm far too busy to indulge in idle reminiscing.
- **14007**: Perhaps you can seek out my son Ailbeche. The boy was quite close to his grandfather.
- **14008**: Why, those $0...!
- **14009**: They bear a remarkable resemblance to a prized possession of my dear departed father's. Oh, the memories this brings back!
- **14010**: Father was quite the ardent angler, you see. In fact, I cannot recall a single day that he did not make the trip to Lake Mechieume.
- **14011**: Oh, of course he'd spare an hour here or there to instruct me in swordplay. A gesture for which I was most thankful, to be sure.
- **14012**: But this was but a diversion for him. That angling was his true passion was clear for all to see.
- **14013**: So all-consuming was his obsession that I grew to resent him. What kind of father could harbor a greater love for fishing than for his own family?
- **14014**: As it turns out, I had misjudged the man.
- **14015**: I heard the truth from my mother one day. Fishing as a craft was of little interest to him, she said.
- **14016**: And yet, it was an age of war, with foodstuffs few and far between.
- **14017**: This is what drove my father to make the perilous journey through Jugner Forest each and every dawn. A desire to provide sustenance, not just to his own beloved family, but to his suffering countrymen as well.
- **14018**: The father I had seen as little but a cruel taskmaster was, in fact, a deeply honorable, self-sacrificing soul.
- **14019**: I was instilled with a newfound pride, and swore that one day I would instill my son with the same values that my father had stood for.
- **14020**: 'Tis a comical twist of fate, is it not? In the end, all that he inherited from his grandfather was his skill with the rod and lure.
- **14021**: My apologies. Whatever has gotten into me, to get so caught up in trivial nostalgia?
- **14022**: At any rate, I wish you the best in your travels. Farewell!

## Events

### Event 65535

#### Metadata

| Field        | Value   |
|--------------|---------|
| Entrypoint   | 0x0000  |
| Data Size    | 1 bytes |
| Instructions | 1       |

```
      00 01 02 03 04 05 06 07  08 09 0A 0B 0C 0D 0E 0F
      -- -- -- -- -- -- -- --  -- -- -- -- -- -- -- --
0000: 00                                                .               
```

#### Opcodes

```
  0: 0x0000 [0x00] END_REQSTACK()
```

### Event 542

#### Metadata

| Field        | Value    |
|--------------|----------|
| Entrypoint   | 0x0001   |
| Data Size    | 74 bytes |
| Instructions | 16       |

```
      00 01 02 03 04 05 06 07  08 09 0A 0B 0C 0D 0E 0F
      -- -- -- -- -- -- -- --  -- -- -- -- -- -- -- --
0000:    1E F0 FF FF 7F 6F 70  66 00 80 F8 FF FF 7F F8   .....opf.......
0010: FF FF 7F 74 6C 6B 30 1D  01 80 23 1C 02 80 1D 03  ...tlk0...#.....
0020: 80 23 5E 69 64 6C 30 1C  02 80 66 04 80 F8 FF FF  .#^idl0...f.....
0030: 7F F8 FF FF 7F 73 6C 30  30 53 F8 FF FF 7F F8 FF  .....sl00S......
0040: FF 7F 73 6C 30 30 1C 02  80 21 00                 ..sl00...!.     
```

#### Opcodes

```
  0: 0x0001 [0x1E] EventEntity looks at LocalPlayer and starts talking
  1: 0x0006 [0x6F] WAIT_FRAME_DELAY: Yield until WaitTime reaches zero
  2: 0x0007 [0x70] WAIT_ENTITY_RENDER_FLAG: Wait while EventEntity->Render.Flags3 bit 2 is set (cancel turn if not)
  3: 0x0008 [0x66] LOAD_EXT_SCHEDULER_MAIN: Load scheduler "tlk0" with entities [EventEntity, EventEntity], work=20*
  4: 0x0017 [0x1D] PRINT_EVENT_MESSAGE(message_id=7841*)
    → "What's that? My son? At the Parade Grounds? So that's where he is! Could you let him know I'll go as soon as I'm done?"
  5: 0x001A [0x23] WAIT_FOR_DIALOG_INTERACTION
  6: 0x001B [0x1C] WAIT(30* ticks)
  7: 0x001E [0x1D] PRINT_EVENT_MESSAGE(message_id=7842*)
    → "Thank you for your help. You have my gratitude."
  8: 0x0021 [0x23] WAIT_FOR_DIALOG_INTERACTION
  9: 0x0022 [0x5E] EventEntity goes idle (kills current action) (animation: "idl0")
 10: 0x0027 [0x1C] WAIT(30* ticks)
 11: 0x002A [0x66] LOAD_EXT_SCHEDULER_MAIN: Load scheduler "sl00" with entities [EventEntity, EventEntity], work=21*
 12: 0x0039 [0x53] WAIT_SCHEDULER_TASK: Wait for scheduler "sl00" with entities [EventEntity, EventEntity]
 13: 0x0046 [0x1C] WAIT(30* ticks)
 14: 0x0049 [0x21] END_EVENT
 15: 0x004A [0x00] END_REQSTACK()
```

### Event 593

#### Metadata

| Field        | Value   |
|--------------|---------|
| Entrypoint   | 0x004B  |
| Data Size    | 1 bytes |
| Instructions | 1       |

```
      00 01 02 03 04 05 06 07  08 09 0A 0B 0C 0D 0E 0F
      -- -- -- -- -- -- -- --  -- -- -- -- -- -- -- --
0040:                                   00                         .    
```

#### Opcodes

```
  0: 0x004B [0x00] END_REQSTACK()
```

### Event 65535.1

#### Metadata

| Field        | Value    |
|--------------|----------|
| Entrypoint   | 0x004C   |
| Data Size    | 22 bytes |
| Instructions | 8        |

```
      00 01 02 03 04 05 06 07  08 09 0A 0B 0C 0D 0E 0F
      -- -- -- -- -- -- -- --  -- -- -- -- -- -- -- --
0040:                                      32 05 80 1F              2...
0050: 00 06 80 07 80 08 80 1F  01 6F 1E D0 60 0E 01 6F  .........o..`..o
0060: 70 00                                             p.              
```

#### Opcodes

```
  0: 0x004C [0x32] ExtData[1]->MainSpeed = 13* * 0.1
  1: 0x004F [0x1F] MOVE_ENTITY: EventEntity moves to X=72.155*, Z=58.309*, Y=0.000*
  2: 0x0057 [0x1F] MOVE_ENTITY: Update entity position (mode=1)
  3: 0x0059 [0x6F] WAIT_FRAME_DELAY: Yield until WaitTime reaches zero
  4: 0x005A [0x1E] EventEntity looks at Ailbeche (ID: 17719504/0x010E60D0) and starts talking
  5: 0x005F [0x6F] WAIT_FRAME_DELAY: Yield until WaitTime reaches zero
  6: 0x0060 [0x70] WAIT_ENTITY_RENDER_FLAG: Wait while EventEntity->Render.Flags3 bit 2 is set (cancel turn if not)
  7: 0x0061 [0x00] END_REQSTACK()
```

### Event 50

#### Metadata

| Field        | Value   |
|--------------|---------|
| Entrypoint   | 0x0062  |
| Data Size    | 1 bytes |
| Instructions | 1       |

```
      00 01 02 03 04 05 06 07  08 09 0A 0B 0C 0D 0E 0F
      -- -- -- -- -- -- -- --  -- -- -- -- -- -- -- --
0060:       00                                            .             
```

#### Opcodes

```
  0: 0x0062 [0x00] END_REQSTACK()
```

### Event 32

#### Metadata

| Field        | Value    |
|--------------|----------|
| Entrypoint   | 0x0063   |
| Data Size    | 18 bytes |
| Instructions | 8        |

```
      00 01 02 03 04 05 06 07  08 09 0A 0B 0C 0D 0E 0F
      -- -- -- -- -- -- -- --  -- -- -- -- -- -- -- --
0060:          1E F0 FF FF 7F  6F 70 03 02 10 09 80 1D     .....op......
0070: 0A 80 23 21 00                                    ..#!.           
```

#### Opcodes

```
  0: 0x0063 [0x1E] EventEntity looks at LocalPlayer and starts talking
  1: 0x0068 [0x6F] WAIT_FRAME_DELAY: Yield until WaitTime reaches zero
  2: 0x0069 [0x70] WAIT_ENTITY_RENDER_FLAG: Wait while EventEntity->Render.Flags3 bit 2 is set (cancel turn if not)
  3: 0x006A [0x03] Work_Zone[2] = 218*
  4: 0x006F [0x1D] PRINT_EVENT_MESSAGE(message_id=9147*)
    → "Why, those $3 are from the Royal Knights. How came you by them? I should convey this to Prince Trion."
  5: 0x0072 [0x23] WAIT_FOR_DIALOG_INTERACTION
  6: 0x0073 [0x21] END_EVENT
  7: 0x0074 [0x00] END_REQSTACK()
```

### Event 77

#### Metadata

| Field        | Value   |
|--------------|---------|
| Entrypoint   | 0x0075  |
| Data Size    | 1 bytes |
| Instructions | 1       |

```
      00 01 02 03 04 05 06 07  08 09 0A 0B 0C 0D 0E 0F
      -- -- -- -- -- -- -- --  -- -- -- -- -- -- -- --
0070:                00                                      .          
```

#### Opcodes

```
  0: 0x0075 [0x00] END_REQSTACK()
```

### Event 79

#### Metadata

| Field        | Value    |
|--------------|----------|
| Entrypoint   | 0x0076   |
| Data Size    | 25 bytes |
| Instructions | 13       |

```
      00 01 02 03 04 05 06 07  08 09 0A 0B 0C 0D 0E 0F
      -- -- -- -- -- -- -- --  -- -- -- -- -- -- -- --
0070:                   1E F0  FF FF 7F 6F 70 1D 0B 80        .....op...
0080: 23 1D 0C 80 23 1D 0D 80  23 1D 0E 80 23 21 00     #...#...#...#!. 
```

#### Opcodes

```
  0: 0x0076 [0x1E] EventEntity looks at LocalPlayer and starts talking
  1: 0x007B [0x6F] WAIT_FRAME_DELAY: Yield until WaitTime reaches zero
  2: 0x007C [0x70] WAIT_ENTITY_RENDER_FLAG: Wait while EventEntity->Render.Flags3 bit 2 is set (cancel turn if not)
  3: 0x007D [0x1D] PRINT_EVENT_MESSAGE(message_id=9182*)
    → "What, you want me to tell you about that paper? It's a special form my division uses for messages. The words are unseen, but they're there."
  4: 0x0080 [0x23] WAIT_FOR_DIALOG_INTERACTION
  5: 0x0081 [0x1D] PRINT_EVENT_MESSAGE(message_id=9183*)
    → "We no longer use it, so let me tell you how it works."
  6: 0x0084 [0x23] WAIT_FOR_DIALOG_INTERACTION
  7: 0x0085 [0x1D] PRINT_EVENT_MESSAGE(message_id=9184*)
    → "In Davoi there is a well that Orcs use. Dip the paper into its water and the writing will reappear."
  8: 0x0088 [0x23] WAIT_FOR_DIALOG_INTERACTION
  9: 0x0089 [0x1D] PRINT_EVENT_MESSAGE(message_id=9185*)
    → "Long ago we used to keep the water in our inkwells to use when reading the messages, but now even mine is dry. Take this one to the well if you must read it."
 10: 0x008C [0x23] WAIT_FOR_DIALOG_INTERACTION
 11: 0x008D [0x21] END_EVENT
 12: 0x008E [0x00] END_REQSTACK()
```

### Event 51

#### Metadata

| Field        | Value    |
|--------------|----------|
| Entrypoint   | 0x008F   |
| Data Size    | 13 bytes |
| Instructions | 7        |

```
      00 01 02 03 04 05 06 07  08 09 0A 0B 0C 0D 0E 0F
      -- -- -- -- -- -- -- --  -- -- -- -- -- -- -- --
0080:                                               1E                 .
0090: F0 FF FF 7F 6F 70 1D 0F  80 23 21 00              ....op...#!.    
```

#### Opcodes

```
  0: 0x008F [0x1E] EventEntity looks at LocalPlayer and starts talking
  1: 0x0094 [0x6F] WAIT_FRAME_DELAY: Yield until WaitTime reaches zero
  2: 0x0095 [0x70] WAIT_ENTITY_RENDER_FLAG: Wait while EventEntity->Render.Flags3 bit 2 is set (cancel turn if not)
  3: 0x0096 [0x1D] PRINT_EVENT_MESSAGE(message_id=9186*)
    → "It says what? I would believe you, but I cannot."
  4: 0x0099 [0x23] WAIT_FOR_DIALOG_INTERACTION
  5: 0x009A [0x21] END_EVENT
  6: 0x009B [0x00] END_REQSTACK()
```

### Event 19

#### Metadata

| Field        | Value    |
|--------------|----------|
| Entrypoint   | 0x009C   |
| Data Size    | 13 bytes |
| Instructions | 7        |

```
      00 01 02 03 04 05 06 07  08 09 0A 0B 0C 0D 0E 0F
      -- -- -- -- -- -- -- --  -- -- -- -- -- -- -- --
0090:                                      1E F0 FF FF              ....
00A0: 7F 6F 70 1D 10 80 23 21  00                       .op...#!.       
```

#### Opcodes

```
  0: 0x009C [0x1E] EventEntity looks at LocalPlayer and starts talking
  1: 0x00A1 [0x6F] WAIT_FRAME_DELAY: Yield until WaitTime reaches zero
  2: 0x00A2 [0x70] WAIT_ENTITY_RENDER_FLAG: Wait while EventEntity->Render.Flags3 bit 2 is set (cancel turn if not)
  3: 0x00A3 [0x1D] PRINT_EVENT_MESSAGE(message_id=9191*)
    → "Thank you for your help. I must inform Prince Trion of this unfortunate turn of events. I am summarizing my report now."
  4: 0x00A6 [0x23] WAIT_FOR_DIALOG_INTERACTION
  5: 0x00A7 [0x21] END_EVENT
  6: 0x00A8 [0x00] END_REQSTACK()
```

### Event 76

#### Metadata

| Field        | Value    |
|--------------|----------|
| Entrypoint   | 0x00A9   |
| Data Size    | 17 bytes |
| Instructions | 9        |

```
      00 01 02 03 04 05 06 07  08 09 0A 0B 0C 0D 0E 0F
      -- -- -- -- -- -- -- --  -- -- -- -- -- -- -- --
00A0:                             1E F0 FF FF 7F 6F 70           .....op
00B0: 1D 11 80 23 1D 12 80 23  21 00                    ...#...#!.      
```

#### Opcodes

```
  0: 0x00A9 [0x1E] EventEntity looks at LocalPlayer and starts talking
  1: 0x00AE [0x6F] WAIT_FRAME_DELAY: Yield until WaitTime reaches zero
  2: 0x00AF [0x70] WAIT_ENTITY_RENDER_FLAG: Wait while EventEntity->Render.Flags3 bit 2 is set (cancel turn if not)
  3: 0x00B0 [0x1D] PRINT_EVENT_MESSAGE(message_id=9192*)
    → "Currently I am suggesting we sell all the weapons we purchased so far, but it's a pity we have to sell low what we bought high. Now I know how you adventurers must feel."
  4: 0x00B3 [0x23] WAIT_FOR_DIALOG_INTERACTION
  5: 0x00B4 [0x1D] PRINT_EVENT_MESSAGE(message_id=9193*)
    → "My son and I are going fishing. I keep wanting to take the best pole for myself, but I am not who I once was. We will catch a big one with the same pole!"
  6: 0x00B7 [0x23] WAIT_FOR_DIALOG_INTERACTION
  7: 0x00B8 [0x21] END_EVENT
  8: 0x00B9 [0x00] END_REQSTACK()
```

### Event 65535.2

#### Metadata

| Field        | Value    |
|--------------|----------|
| Entrypoint   | 0x00BA   |
| Data Size    | 19 bytes |
| Instructions | 3        |

```
      00 01 02 03 04 05 06 07  08 09 0A 0B 0C 0D 0E 0F
      -- -- -- -- -- -- -- --  -- -- -- -- -- -- -- --
00B0:                                66 00 80 F8 FF FF            f.....
00C0: 7F F8 FF FF 7F 74 68 6B  31 1C 13 80 00           .....thk1....   
```

#### Opcodes

```
  0: 0x00BA [0x66] LOAD_EXT_SCHEDULER_MAIN: Load scheduler "thk1" with entities [EventEntity, EventEntity], work=20*
  1: 0x00C9 [0x1C] WAIT(60* ticks)
  2: 0x00CC [0x00] END_REQSTACK()
```

### Event 65535.3

#### Metadata

| Field        | Value    |
|--------------|----------|
| Entrypoint   | 0x00CD   |
| Data Size    | 32 bytes |
| Instructions | 4        |

```
      00 01 02 03 04 05 06 07  08 09 0A 0B 0C 0D 0E 0F
      -- -- -- -- -- -- -- --  -- -- -- -- -- -- -- --
00C0:                                         1C 13 80               ...
00D0: 66 00 80 F8 FF FF 7F F8  FF FF 7F 74 68 6B 32 53  f..........thk2S
00E0: F8 FF FF 7F F8 FF FF 7F  74 68 6B 32 00           ........thk2.   
```

#### Opcodes

```
  0: 0x00CD [0x1C] WAIT(60* ticks)
  1: 0x00D0 [0x66] LOAD_EXT_SCHEDULER_MAIN: Load scheduler "thk2" with entities [EventEntity, EventEntity], work=20*
  2: 0x00DF [0x53] WAIT_SCHEDULER_TASK: Wait for scheduler "thk2" with entities [EventEntity, EventEntity]
  3: 0x00EC [0x00] END_REQSTACK()
```

### Event 65535.4

#### Metadata

| Field        | Value    |
|--------------|----------|
| Entrypoint   | 0x00ED   |
| Data Size    | 19 bytes |
| Instructions | 3        |

```
      00 01 02 03 04 05 06 07  08 09 0A 0B 0C 0D 0E 0F
      -- -- -- -- -- -- -- --  -- -- -- -- -- -- -- --
00E0:                                         66 00 80               f..
00F0: F8 FF FF 7F F8 FF FF 7F  74 6C 6B 30 1C 13 80 00  ........tlk0....
```

#### Opcodes

```
  0: 0x00ED [0x66] LOAD_EXT_SCHEDULER_MAIN: Load scheduler "tlk0" with entities [EventEntity, EventEntity], work=20*
  1: 0x00FC [0x1C] WAIT(60* ticks)
  2: 0x00FF [0x00] END_REQSTACK()
```

### Event 65535.5

#### Metadata

| Field        | Value   |
|--------------|---------|
| Entrypoint   | 0x0100  |
| Data Size    | 9 bytes |
| Instructions | 3       |

```
      00 01 02 03 04 05 06 07  08 09 0A 0B 0C 0D 0E 0F
      -- -- -- -- -- -- -- --  -- -- -- -- -- -- -- --
0100: 5E 69 64 6C 30 1C 13 80  00                       ^idl0....       
```

#### Opcodes

```
  0: 0x0100 [0x5E] EventEntity goes idle (kills current action) (animation: "idl0")
  1: 0x0105 [0x1C] WAIT(60* ticks)
  2: 0x0108 [0x00] END_REQSTACK()
```

### Event 946

#### Metadata

| Field        | Value    |
|--------------|----------|
| Entrypoint   | 0x0109   |
| Data Size    | 19 bytes |
| Instructions | 9        |

```
      00 01 02 03 04 05 06 07  08 09 0A 0B 0C 0D 0E 0F
      -- -- -- -- -- -- -- --  -- -- -- -- -- -- -- --
0100:                             20 01 1E F0 FF FF 7F            ......
0110: 1D 14 80 23 1D 15 80 23  20 00 21 00              ...#...# .!.    
```

#### Opcodes

```
  0: 0x0109 [0x20] SET_CLI_EVENT_UC_FLAG: Lock player control
  1: 0x010B [0x1E] EventEntity looks at LocalPlayer and starts talking
  2: 0x0110 [0x1D] PRINT_EVENT_MESSAGE(message_id=14006*)
    → "What's that? You wish to hear of my father? Forgive me, but I'm far too busy to indulge in idle reminiscing."
  3: 0x0113 [0x23] WAIT_FOR_DIALOG_INTERACTION
  4: 0x0114 [0x1D] PRINT_EVENT_MESSAGE(message_id=14007*)
    → "Perhaps you can seek out my son Ailbeche. The boy was quite close to his grandfather."
  5: 0x0117 [0x23] WAIT_FOR_DIALOG_INTERACTION
  6: 0x0118 [0x20] SET_CLI_EVENT_UC_FLAG: Unlock player control
  7: 0x011A [0x21] END_EVENT
  8: 0x011B [0x00] END_REQSTACK()
```

### Event 947

#### Metadata

| Field        | Value     |
|--------------|-----------|
| Entrypoint   | 0x011C    |
| Data Size    | 528 bytes |
| Instructions | 95        |

```
      00 01 02 03 04 05 06 07  08 09 0A 0B 0C 0D 0E 0F
      -- -- -- -- -- -- -- --  -- -- -- -- -- -- -- --
0110:                                      20 01 42 46               .BF
0120: 01 45 16 80 F0 FF FF 7F  F0 FF FF 7F 66 64 6F 31  .E..........fdo1
0130: 08 80 1C 13 80 38 17 80  75 00 18 80 75 01 BA F0  .....8..u...u...
0140: FF FF 7F 19 80 1A 80 1B  80 1C 80 80 F0 FF FF 7F  ................
0150: 92 01 3C 60 0E 01 80 3C  60 0E 01 1E F0 FF FF 7F  ..<`...<`.......
0160: 6F 70 45 1D 80 F0 FF FF  7F F0 FF FF 7F 35 37 30  opE..........570
0170: 39 08 80 45 16 80 F0 FF  FF 7F F0 FF FF 7F 66 64  9..E..........fd
0180: 69 31 08 80 1C 13 80 6E  3C 60 0E 01 04 80 99 3C  i1.....n<`.....<
0190: 60 0E 01 03 02 10 1E 80  1D 1F 80 23 1D 20 80 23  `..........#. .#
01A0: 27 03 3C 60 0E 01 11 52  1D 80 F0 FF FF 7F F0 FF  '.<`...R........
01B0: FF 7F 35 37 30 39 45 16  80 F0 FF FF 7F F0 FF FF  ..5709E.........
01C0: 7F 6F 76 6C 31 08 80 45  1D 80 F0 FF FF 7F F0 FF  .ovl1..E........
01D0: FF 7F 35 37 31 30 08 80  1D 21 80 23 1D 22 80 23  ..5710...!.#.".#
01E0: 1E F0 FF FF 7F 6F 70 1D  23 80 23 6E 3C 60 0E 01  .....op.#.#n<`..
01F0: 24 80 99 3C 60 0E 01 1D  25 80 23 1D 26 80 23 7B  $..<`...%.#.&.#{
0200: 3C 60 0E 01 52 1D 80 F0  FF FF 7F F0 FF FF 7F 35  <`..R..........5
0210: 37 31 30 45 1D 80 F0 FF  FF 7F F0 FF FF 7F 35 37  710E..........57
0220: 31 31 08 80 27 03 3C 60  0E 01 12 1D 27 80 23 6E  11..'.<`....'.#n
0230: 3C 60 0E 01 28 80 99 3C  60 0E 01 1D 29 80 23 1E  <`..(..<`...).#.
0240: F0 FF FF 7F 6F 70 7B 3C  60 0E 01 6E 3C 60 0E 01  ....op{<`..n<`..
0250: 2A 80 99 3C 60 0E 01 1D  2B 80 23 27 03 3C 60 0E  *..<`...+.#'.<`.
0260: 01 13 52 1D 80 F0 FF FF  7F F0 FF FF 7F 35 37 31  ..R..........571
0270: 31 45 1D 80 F0 FF FF 7F  F0 FF FF 7F 35 37 31 32  1E..........5712
0280: 08 80 1D 2C 80 23 6E 3C  60 0E 01 2D 80 99 3C 60  ...,.#n<`..-..<`
0290: 0E 01 1D 2E 80 23 1E F0  FF FF 7F 6F 70 52 1D 80  .....#.....opR..
02A0: F0 FF FF 7F F0 FF FF 7F  35 37 31 32 45 16 80 F0  ........5712E...
02B0: FF FF 7F F0 FF FF 7F 6F  76 6C 31 08 80 45 1D 80  .......ovl1..E..
02C0: F0 FF FF 7F F0 FF FF 7F  35 37 31 33 08 80 6E 3C  ........5713..n<
02D0: 60 0E 01 2F 80 99 3C 60  0E 01 1D 30 80 23 6E 3C  `../..<`...0.#n<
02E0: 60 0E 01 31 80 99 3C 60  0E 01 1D 32 80 23 1D 33  `..1..<`...2.#.3
02F0: 80 23 45 16 80 F0 FF FF  7F F0 FF FF 7F 66 64 6F  .#E..........fdo
0300: 31 08 80 1C 13 80 52 1D  80 F0 FF FF 7F F0 FF FF  1.....R.........
0310: 7F 35 37 31 33 46 00 45  16 80 F0 FF FF 7F F0 FF  .5713F.E........
0320: FF 7F 66 64 69 31 08 80  20 00 21 00              ..fdi1.. .!.    
```

#### Opcodes

```
  0: 0x011C [0x20] SET_CLI_EVENT_UC_FLAG: Lock player control
  1: 0x011E [0x42] SET_CLI_EVENT_CANCEL_DATA()
  2: 0x011F [0x46] CAMERA_CONTROL: Disable user control
  3: 0x0121 [0x45] LOAD_SCHEDULED_TASK: Load scheduler "fdo1" with entities [LocalPlayer, LocalPlayer], work=[200*, 0*]
  4: 0x0132 [0x1C] WAIT(60* ticks)
  5: 0x0135 [0x38] SET_CLIENT_EVENT_MODE(mode=19*)
  6: 0x0138 [0x75] LOAD_ROOM(Load indoor room, room=331*)
  7: 0x013C [0x75] LOAD_ROOM(No action)
  8: 0x013E [0xBA] SET_ENTITY_POSITION(entity_id=LocalPlayer, pos_x=71.970*, pos_z=60.603*, pos_y=-0.029*, direction=137.2°*)
  9: 0x014B [0x80] LOAD_WAIT(entity=LocalPlayer)
 10: 0x0150 [0x92] Exoroche (ID: 17719356/0x010E603C)->Render.Flags3 ^= 0x01
 11: 0x0156 [0x80] LOAD_WAIT(entity=Exoroche (ID: 17719356/0x010E603C))
 12: 0x015B [0x1E] EventEntity looks at LocalPlayer and starts talking
 13: 0x0160 [0x6F] WAIT_FRAME_DELAY: Yield until WaitTime reaches zero
 14: 0x0161 [0x70] WAIT_ENTITY_RENDER_FLAG: Wait while EventEntity->Render.Flags3 bit 2 is set (cancel turn if not)
 15: 0x0162 [0x45] LOAD_SCHEDULED_TASK: Load scheduler "5709" with entities [LocalPlayer, LocalPlayer], work=[457*, 0*]
 16: 0x0173 [0x45] LOAD_SCHEDULED_TASK: Load scheduler "fdi1" with entities [LocalPlayer, LocalPlayer], work=[200*, 0*]
 17: 0x0184 [0x1C] WAIT(60* ticks)
 18: 0x0187 [0x6E] Exoroche (ID: 17719356/0x010E603C) uses emote 21*
 19: 0x018E [0x99] Wait for Exoroche (ID: 17719356/0x010E603C) animation to complete
 20: 0x0193 [0x03] Work_Zone[2] = 11499*
 21: 0x0198 [0x1D] PRINT_EVENT_MESSAGE(message_id=14008*)
    → "Why, those $0...!"
 22: 0x019B [0x23] WAIT_FOR_DIALOG_INTERACTION
 23: 0x019C [0x1D] PRINT_EVENT_MESSAGE(message_id=14009*)
    → "They bear a remarkable resemblance to a prized possession of my dear departed father's. Oh, the memories this brings back!"
 24: 0x019F [0x23] WAIT_FOR_DIALOG_INTERACTION
 25: 0x01A0 [0x27] REQ_SET(priority=0x03, entity_id=Exoroche (ID: 17719356/0x010E603C), tag_num=0x11)
 26: 0x01A7 [0x52] END_LOAD_SCHEDULER: End scheduler "5709" with entities [LocalPlayer, LocalPlayer], work=457*
 27: 0x01B6 [0x45] LOAD_SCHEDULED_TASK: Load scheduler "ovl1" with entities [LocalPlayer, LocalPlayer], work=[200*, 0*]
 28: 0x01C7 [0x45] LOAD_SCHEDULED_TASK: Load scheduler "5710" with entities [LocalPlayer, LocalPlayer], work=[457*, 0*]
 29: 0x01D8 [0x1D] PRINT_EVENT_MESSAGE(message_id=14010*)
    → "Father was quite the ardent angler, you see. In fact, I cannot recall a single day that he did not make the trip to Lake Mechieume."
 30: 0x01DB [0x23] WAIT_FOR_DIALOG_INTERACTION
 31: 0x01DC [0x1D] PRINT_EVENT_MESSAGE(message_id=14011*)
    → "Oh, of course he'd spare an hour here or there to instruct me in swordplay. A gesture for which I was most thankful, to be sure."
 32: 0x01DF [0x23] WAIT_FOR_DIALOG_INTERACTION
 33: 0x01E0 [0x1E] EventEntity looks at LocalPlayer and starts talking
 34: 0x01E5 [0x6F] WAIT_FRAME_DELAY: Yield until WaitTime reaches zero
 35: 0x01E6 [0x70] WAIT_ENTITY_RENDER_FLAG: Wait while EventEntity->Render.Flags3 bit 2 is set (cancel turn if not)
 36: 0x01E7 [0x1D] PRINT_EVENT_MESSAGE(message_id=14012*)
    → "But this was but a diversion for him. That angling was his true passion was clear for all to see."
 37: 0x01EA [0x23] WAIT_FOR_DIALOG_INTERACTION
 38: 0x01EB [0x6E] Exoroche (ID: 17719356/0x010E603C) uses emote 25*
 39: 0x01F2 [0x99] Wait for Exoroche (ID: 17719356/0x010E603C) animation to complete
 40: 0x01F7 [0x1D] PRINT_EVENT_MESSAGE(message_id=14013*)
    → "So all-consuming was his obsession that I grew to resent him. What kind of father could harbor a greater love for fishing than for his own family?"
 41: 0x01FA [0x23] WAIT_FOR_DIALOG_INTERACTION
 42: 0x01FB [0x1D] PRINT_EVENT_MESSAGE(message_id=14014*)
    → "As it turns out, I had misjudged the man."
 43: 0x01FE [0x23] WAIT_FOR_DIALOG_INTERACTION
 44: 0x01FF [0x7B] Exoroche (ID: 17719356/0x010E603C) stops talking
 45: 0x0204 [0x52] END_LOAD_SCHEDULER: End scheduler "5710" with entities [LocalPlayer, LocalPlayer], work=457*
 46: 0x0213 [0x45] LOAD_SCHEDULED_TASK: Load scheduler "5711" with entities [LocalPlayer, LocalPlayer], work=[457*, 0*]
 47: 0x0224 [0x27] REQ_SET(priority=0x03, entity_id=Exoroche (ID: 17719356/0x010E603C), tag_num=0x12)
 48: 0x022B [0x1D] PRINT_EVENT_MESSAGE(message_id=14015*)
    → "I heard the truth from my mother one day. Fishing as a craft was of little interest to him, she said."
 49: 0x022E [0x23] WAIT_FOR_DIALOG_INTERACTION
 50: 0x022F [0x6E] Exoroche (ID: 17719356/0x010E603C) uses emote 26*
 51: 0x0236 [0x99] Wait for Exoroche (ID: 17719356/0x010E603C) animation to complete
 52: 0x023B [0x1D] PRINT_EVENT_MESSAGE(message_id=14016*)
    → "And yet, it was an age of war, with foodstuffs few and far between."
 53: 0x023E [0x23] WAIT_FOR_DIALOG_INTERACTION
 54: 0x023F [0x1E] EventEntity looks at LocalPlayer and starts talking
 55: 0x0244 [0x6F] WAIT_FRAME_DELAY: Yield until WaitTime reaches zero
 56: 0x0245 [0x70] WAIT_ENTITY_RENDER_FLAG: Wait while EventEntity->Render.Flags3 bit 2 is set (cancel turn if not)
 57: 0x0246 [0x7B] Exoroche (ID: 17719356/0x010E603C) stops talking
 58: 0x024B [0x6E] Exoroche (ID: 17719356/0x010E603C) uses emote 32*
 59: 0x0252 [0x99] Wait for Exoroche (ID: 17719356/0x010E603C) animation to complete
 60: 0x0257 [0x1D] PRINT_EVENT_MESSAGE(message_id=14017*)
    → "This is what drove my father to make the perilous journey through Jugner Forest each and every dawn. A desire to provide sustenance, not just to his own beloved family, but to his suffering countrymen as well."
 61: 0x025A [0x23] WAIT_FOR_DIALOG_INTERACTION
 62: 0x025B [0x27] REQ_SET(priority=0x03, entity_id=Exoroche (ID: 17719356/0x010E603C), tag_num=0x13)
 63: 0x0262 [0x52] END_LOAD_SCHEDULER: End scheduler "5711" with entities [LocalPlayer, LocalPlayer], work=457*
 64: 0x0271 [0x45] LOAD_SCHEDULED_TASK: Load scheduler "5712" with entities [LocalPlayer, LocalPlayer], work=[457*, 0*]
 65: 0x0282 [0x1D] PRINT_EVENT_MESSAGE(message_id=14018*)
    → "The father I had seen as little but a cruel taskmaster was, in fact, a deeply honorable, self-sacrificing soul."
 66: 0x0285 [0x23] WAIT_FOR_DIALOG_INTERACTION
 67: 0x0286 [0x6E] Exoroche (ID: 17719356/0x010E603C) uses emote 7*
 68: 0x028D [0x99] Wait for Exoroche (ID: 17719356/0x010E603C) animation to complete
 69: 0x0292 [0x1D] PRINT_EVENT_MESSAGE(message_id=14019*)
    → "I was instilled with a newfound pride, and swore that one day I would instill my son with the same values that my father had stood for."
 70: 0x0295 [0x23] WAIT_FOR_DIALOG_INTERACTION
 71: 0x0296 [0x1E] EventEntity looks at LocalPlayer and starts talking
 72: 0x029B [0x6F] WAIT_FRAME_DELAY: Yield until WaitTime reaches zero
 73: 0x029C [0x70] WAIT_ENTITY_RENDER_FLAG: Wait while EventEntity->Render.Flags3 bit 2 is set (cancel turn if not)
 74: 0x029D [0x52] END_LOAD_SCHEDULER: End scheduler "5712" with entities [LocalPlayer, LocalPlayer], work=457*
 75: 0x02AC [0x45] LOAD_SCHEDULED_TASK: Load scheduler "ovl1" with entities [LocalPlayer, LocalPlayer], work=[200*, 0*]
 76: 0x02BD [0x45] LOAD_SCHEDULED_TASK: Load scheduler "5713" with entities [LocalPlayer, LocalPlayer], work=[457*, 0*]
 77: 0x02CE [0x6E] Exoroche (ID: 17719356/0x010E603C) uses emote 6*
 78: 0x02D5 [0x99] Wait for Exoroche (ID: 17719356/0x010E603C) animation to complete
 79: 0x02DA [0x1D] PRINT_EVENT_MESSAGE(message_id=14020*)
    → "'Tis a comical twist of fate, is it not? In the end, all that he inherited from his grandfather was his skill with the rod and lure."
 80: 0x02DD [0x23] WAIT_FOR_DIALOG_INTERACTION
 81: 0x02DE [0x6E] Exoroche (ID: 17719356/0x010E603C) uses emote 24*
 82: 0x02E5 [0x99] Wait for Exoroche (ID: 17719356/0x010E603C) animation to complete
 83: 0x02EA [0x1D] PRINT_EVENT_MESSAGE(message_id=14021*)
    → "My apologies. Whatever has gotten into me, to get so caught up in trivial nostalgia?"
 84: 0x02ED [0x23] WAIT_FOR_DIALOG_INTERACTION
 85: 0x02EE [0x1D] PRINT_EVENT_MESSAGE(message_id=14022*)
    → "At any rate, I wish you the best in your travels. Farewell!"
 86: 0x02F1 [0x23] WAIT_FOR_DIALOG_INTERACTION
 87: 0x02F2 [0x45] LOAD_SCHEDULED_TASK: Load scheduler "fdo1" with entities [LocalPlayer, LocalPlayer], work=[200*, 0*]
 88: 0x0303 [0x1C] WAIT(60* ticks)
 89: 0x0306 [0x52] END_LOAD_SCHEDULER: End scheduler "5713" with entities [LocalPlayer, LocalPlayer], work=457*
 90: 0x0315 [0x46] CAMERA_CONTROL: Restore default settings
 91: 0x0317 [0x45] LOAD_SCHEDULED_TASK: Load scheduler "fdi1" with entities [LocalPlayer, LocalPlayer], work=[200*, 0*]
 92: 0x0328 [0x20] SET_CLI_EVENT_UC_FLAG: Unlock player control
 93: 0x032A [0x21] END_EVENT
 94: 0x032B [0x00] END_REQSTACK()
```

### Event 65535.6

#### Metadata

| Field        | Value    |
|--------------|----------|
| Entrypoint   | 0x032C   |
| Data Size    | 14 bytes |
| Instructions | 4        |

```
      00 01 02 03 04 05 06 07  08 09 0A 0B 0C 0D 0E 0F
      -- -- -- -- -- -- -- --  -- -- -- -- -- -- -- --
0320:                                      32 34 80 1F              24..
0330: 00 35 80 36 80 08 80 1F  01 00                    .5.6......      
```

#### Opcodes

```
  0: 0x032C [0x32] ExtData[1]->MainSpeed = 10* * 0.1
  1: 0x032F [0x1F] MOVE_ENTITY: EventEntity moves to X=69.996*, Z=55.995*, Y=0.000*
  2: 0x0337 [0x1F] MOVE_ENTITY: Update entity position (mode=1)
  3: 0x0339 [0x00] END_REQSTACK()
```

### Event 65535.7

#### Metadata

| Field        | Value    |
|--------------|----------|
| Entrypoint   | 0x033A   |
| Data Size    | 14 bytes |
| Instructions | 4        |

```
      00 01 02 03 04 05 06 07  08 09 0A 0B 0C 0D 0E 0F
      -- -- -- -- -- -- -- --  -- -- -- -- -- -- -- --
0330:                                32 34 80 1F 00 37            24...7
0340: 80 38 80 08 80 1F 01 00                           .8......        
```

#### Opcodes

```
  0: 0x033A [0x32] ExtData[1]->MainSpeed = 10* * 0.1
  1: 0x033D [0x1F] MOVE_ENTITY: EventEntity moves to X=72.880*, Z=56.285*, Y=0.000*
  2: 0x0345 [0x1F] MOVE_ENTITY: Update entity position (mode=1)
  3: 0x0347 [0x00] END_REQSTACK()
```

### Event 65535.8

#### Metadata

| Field        | Value    |
|--------------|----------|
| Entrypoint   | 0x0348   |
| Data Size    | 14 bytes |
| Instructions | 4        |

```
      00 01 02 03 04 05 06 07  08 09 0A 0B 0C 0D 0E 0F
      -- -- -- -- -- -- -- --  -- -- -- -- -- -- -- --
0340:                          32 34 80 1F 00 39 80 3A          24...9.:
0350: 80 08 80 1F 01 00                                 ......          
```

#### Opcodes

```
  0: 0x0348 [0x32] ExtData[1]->MainSpeed = 10* * 0.1
  1: 0x034B [0x1F] MOVE_ENTITY: EventEntity moves to X=70.594*, Z=59.264*, Y=0.000*
  2: 0x0353 [0x1F] MOVE_ENTITY: Update entity position (mode=1)
  3: 0x0355 [0x00] END_REQSTACK()
```
