# 17719369 - Claidie

## Common Data

| Field            | Value                         |
|------------------|-------------------------------|
| Zone             | Southern San d'Oria (ID: 230) |
| Block Size       | 860 bytes                     |
| Total Events     | 28                            |
| References Count | 37                            |

## List of Events

| Event ID                   | Entrypoint   |   Size |   Instructions |
|----------------------------|--------------|--------|----------------|
| [65535](#event-65535)      | 0x0000       |      1 |              1 |
| [0](#event-0)              | 0x0001       |     13 |              3 |
| [65535.1](#event-655351)   | 0x000E       |     15 |              5 |
| [65535.2](#event-655352)   | 0x001D       |     39 |             17 |
| [65535.3](#event-655353)   | 0x0044       |     20 |              6 |
| [65535.4](#event-655354)   | 0x0058       |     28 |              6 |
| [65535.5](#event-655355)   | 0x0074       |     82 |             16 |
| [65535.6](#event-655356)   | 0x00C6       |     40 |              8 |
| [65535.7](#event-655357)   | 0x00EE       |     19 |              3 |
| [65535.8](#event-655358)   | 0x0101       |     29 |              3 |
| [65535.9](#event-655359)   | 0x011E       |     19 |              3 |
| [65535.10](#event-6553510) | 0x0131       |     29 |              3 |
| [65535.11](#event-6553511) | 0x014E       |     19 |              3 |
| [65535.12](#event-6553512) | 0x0161       |     29 |              3 |
| [65535.13](#event-6553513) | 0x017E       |     19 |              3 |
| [65535.14](#event-6553514) | 0x0191       |     29 |              3 |
| [65535.15](#event-6553515) | 0x01AE       |     19 |              3 |
| [65535.16](#event-6553516) | 0x01C1       |     29 |              3 |
| [65535.17](#event-6553517) | 0x01DE       |      6 |              2 |
| [65535.18](#event-6553518) | 0x01E4       |     25 |              7 |
| [65535.19](#event-6553519) | 0x01FD       |      6 |              2 |
| [65535.20](#event-6553520) | 0x0203       |      6 |              2 |
| [65535.21](#event-6553521) | 0x0209       |      6 |              2 |
| [65535.22](#event-6553522) | 0x020F       |      6 |              2 |
| [65535.23](#event-6553523) | 0x0215       |      9 |              3 |
| [65535.24](#event-6553524) | 0x021E       |      9 |              3 |
| [65535.25](#event-6553525) | 0x0227       |      9 |              3 |
| [65535.26](#event-6553526) | 0x0230       |     22 |              6 |

## DAT References (imed_data)

|   Index | Hex Value   |   Dec Value |
|---------|-------------|-------------|
|       0 | 0x000A      |          10 |
|       1 | 0x0022      |          34 |
|       2 | 0x4E20      |       20000 |
|       3 | 0x0000      |           0 |
|       4 | 0x03FB      |        1019 |
|       5 | 0xFFFFFFA1  |  4294967201 |
|       6 | 0x47C4      |       18372 |
|       7 | 0xFFFFFFFB  |  4294967291 |
|       8 | 0x3E46      |       15942 |
|       9 | 0x001E      |          30 |
|      10 | 0x020C      |         524 |
|      11 | 0x003C      |          60 |
|      12 | 0x05F4      |        1524 |
|      13 | 0x0400      |        1024 |
|      14 | 0x003E      |          62 |
|      15 | 0x3165      |       12645 |
|      16 | 0x0224      |         548 |
|      17 | 0xFFFFFC41  |  4294966337 |
|      18 | 0x07CF      |        1999 |
|      19 | 0x0009      |           9 |
|      20 | 0x0F99      |        3993 |
|      21 | 0x07C5      |        1989 |
|      22 | 0x03C4      |         964 |
|      23 | 0x007D      |         125 |
|      24 | 0xFFFFB324  |  4294947620 |
|      25 | 0xFFFFBC8B  |  4294950027 |
|      26 | 0xFFFDAEAF  |  4294815407 |
|      27 | 0x12A67     |       76391 |
|      28 | 0xFFFFDDA1  |  4294958497 |
|      29 | 0x03E6      |         998 |
|      30 | 0xFFFDAE93  |  4294815379 |
|      31 | 0x10CBE     |       68798 |
|      32 | 0xFFFFDDA0  |  4294958496 |
|      33 | 0xFFFEA33A  |  4294878010 |
|      34 | 0xFFFF7730  |  4294932272 |
|      35 | 0xFFFEAFED  |  4294881261 |
|      36 | 0xFFFF86E0  |  4294936288 |

## Events

### Event 65535

#### Metadata

| Field        | Value   |
|--------------|---------|
| Entrypoint   | 0x0000  |
| Data Size    | 1 bytes |
| Instructions | 1       |

```
      00 01 02 03 04 05 06 07  08 09 0A 0B 0C 0D 0E 0F
      -- -- -- -- -- -- -- --  -- -- -- -- -- -- -- --
0000: 00                                                .               
```

#### Opcodes

```
  0: 0x0000 [0x00] END_REQSTACK()
```

### Event 0

#### Metadata

| Field        | Value    |
|--------------|----------|
| Entrypoint   | 0x0001   |
| Data Size    | 13 bytes |
| Instructions | 3        |

```
      00 01 02 03 04 05 06 07  08 09 0A 0B 0C 0D 0E 0F
      -- -- -- -- -- -- -- --  -- -- -- -- -- -- -- --
0000:    32 00 80 37 01 80 02  80 03 80 04 80 00         2..7.........  
```

#### Opcodes

```
  0: 0x0001 [0x32] ExtData[1]->MainSpeed = 10* * 0.1
  1: 0x0004 [0x37] UPDATE_EVENT_POSITION_AND_DIR: x=0.034*, z=20.000*, y=0.000*, direction=89.6°*
  2: 0x000D [0x00] END_REQSTACK()
```

### Event 65535.1

#### Metadata

| Field        | Value    |
|--------------|----------|
| Entrypoint   | 0x000E   |
| Data Size    | 15 bytes |
| Instructions | 5        |

```
      00 01 02 03 04 05 06 07  08 09 0A 0B 0C 0D 0E 0F
      -- -- -- -- -- -- -- --  -- -- -- -- -- -- -- --
0000:                                            32 00                2.
0010: 80 1F 00 05 80 06 80 03  80 1F 01 6F 00           ...........o.   
```

#### Opcodes

```
  0: 0x000E [0x32] ExtData[1]->MainSpeed = 10* * 0.1
  1: 0x0011 [0x1F] MOVE_ENTITY: EventEntity moves to X=-0.095*, Z=18.372*, Y=0.000*
  2: 0x0019 [0x1F] MOVE_ENTITY: Update entity position (mode=1)
  3: 0x001B [0x6F] WAIT_FRAME_DELAY: Yield until WaitTime reaches zero
  4: 0x001C [0x00] END_REQSTACK()
```

### Event 65535.2

#### Metadata

| Field        | Value    |
|--------------|----------|
| Entrypoint   | 0x001D   |
| Data Size    | 39 bytes |
| Instructions | 17       |

```
      00 01 02 03 04 05 06 07  08 09 0A 0B 0C 0D 0E 0F
      -- -- -- -- -- -- -- --  -- -- -- -- -- -- -- --
0010:                                         32 00 80               2..
0020: 1F 00 07 80 08 80 03 80  1F 01 6F 1C 09 80 39 0A  ..........o...9.
0030: 80 6F 70 1C 0B 80 39 0C  80 6F 70 1C 0B 80 39 0D  .op...9..op...9.
0040: 80 6F 70 00                                       .op.            
```

#### Opcodes

```
  0: 0x001D [0x32] ExtData[1]->MainSpeed = 10* * 0.1
  1: 0x0020 [0x1F] MOVE_ENTITY: EventEntity moves to X=-0.005*, Z=15.942*, Y=0.000*
  2: 0x0028 [0x1F] MOVE_ENTITY: Update entity position (mode=1)
  3: 0x002A [0x6F] WAIT_FRAME_DELAY: Yield until WaitTime reaches zero
  4: 0x002B [0x1C] WAIT(30* ticks)
  5: 0x002E [0x39] SET_ENTITY_DIRECTION(direction=2.9°*)
  6: 0x0031 [0x6F] WAIT_FRAME_DELAY: Yield until WaitTime reaches zero
  7: 0x0032 [0x70] WAIT_ENTITY_RENDER_FLAG: Wait while EventEntity->Render.Flags3 bit 2 is set (cancel turn if not)
  8: 0x0033 [0x1C] WAIT(60* ticks)
  9: 0x0036 [0x39] SET_ENTITY_DIRECTION(direction=8.4°*)
 10: 0x0039 [0x6F] WAIT_FRAME_DELAY: Yield until WaitTime reaches zero
 11: 0x003A [0x70] WAIT_ENTITY_RENDER_FLAG: Wait while EventEntity->Render.Flags3 bit 2 is set (cancel turn if not)
 12: 0x003B [0x1C] WAIT(60* ticks)
 13: 0x003E [0x39] SET_ENTITY_DIRECTION(direction=5.6°*)
 14: 0x0041 [0x6F] WAIT_FRAME_DELAY: Yield until WaitTime reaches zero
 15: 0x0042 [0x70] WAIT_ENTITY_RENDER_FLAG: Wait while EventEntity->Render.Flags3 bit 2 is set (cancel turn if not)
 16: 0x0043 [0x00] END_REQSTACK()
```

### Event 65535.3

#### Metadata

| Field        | Value    |
|--------------|----------|
| Entrypoint   | 0x0044   |
| Data Size    | 20 bytes |
| Instructions | 6        |

```
      00 01 02 03 04 05 06 07  08 09 0A 0B 0C 0D 0E 0F
      -- -- -- -- -- -- -- --  -- -- -- -- -- -- -- --
0040:             32 00 80 1F  00 0E 80 0F 80 10 80 1F      2...........
0050: 01 6F 1E 02 60 0E 01 00                           .o..`...        
```

#### Opcodes

```
  0: 0x0044 [0x32] ExtData[1]->MainSpeed = 10* * 0.1
  1: 0x0047 [0x1F] MOVE_ENTITY: EventEntity moves to X=0.062*, Z=12.645*, Y=0.548*
  2: 0x004F [0x1F] MOVE_ENTITY: Update entity position (mode=1)
  3: 0x0051 [0x6F] WAIT_FRAME_DELAY: Yield until WaitTime reaches zero
  4: 0x0052 [0x1E] EventEntity looks at Aubejart (ID: 17719298/0x010E6002) and starts talking
  5: 0x0057 [0x00] END_REQSTACK()
```

### Event 65535.4

#### Metadata

| Field        | Value    |
|--------------|----------|
| Entrypoint   | 0x0058   |
| Data Size    | 28 bytes |
| Instructions | 6        |

```
      00 01 02 03 04 05 06 07  08 09 0A 0B 0C 0D 0E 0F
      -- -- -- -- -- -- -- --  -- -- -- -- -- -- -- --
0050:                          31 00 11 80 0B 80 12 80          1.......
0060: 0B 80 31 01 37 13 80 14  80 15 80 16 80 84 80 F8  ..1.7...........
0070: FF FF 7F 00                                       ....            
```

#### Opcodes

```
  0: 0x0058 [0x31] UPDATE_ENTITY_POSITION: Set EventEntity goal position to X=-0.959*, Z=0.060*, Y=1.999*, Time=60*
  1: 0x0062 [0x31] UPDATE_ENTITY_POSITION: Move EventEntity towards goal position
  2: 0x0064 [0x37] UPDATE_EVENT_POSITION_AND_DIR: x=0.009*, z=3.993*, y=1.989*, direction=84.7°*
  3: 0x006D [0x84] ADJUST_RENDER_FLAGS3_BIT0()
  4: 0x006E [0x80] LOAD_WAIT(entity=EventEntity)
  5: 0x0073 [0x00] END_REQSTACK()
```

### Event 65535.5

#### Metadata

| Field        | Value    |
|--------------|----------|
| Entrypoint   | 0x0074   |
| Data Size    | 82 bytes |
| Instructions | 16       |

```
      00 01 02 03 04 05 06 07  08 09 0A 0B 0C 0D 0E 0F
      -- -- -- -- -- -- -- --  -- -- -- -- -- -- -- --
0070:             1F 00 11 80  0B 80 12 80 1F 01 6F 1C      ..........o.
0080: 09 80 39 0A 80 6F 70 1C  0B 80 5B 17 80 49 60 0E  ..9..op...[..I`.
0090: 01 49 60 0E 01 74 68 6B  31 1C 09 80 1C 0B 80 5B  .I`..thk1......[
00A0: 17 80 49 60 0E 01 49 60  0E 01 74 68 6B 32 53 49  ..I`..I`..thk2SI
00B0: 60 0E 01 49 60 0E 01 74  68 6B 32 1F 00 18 80 19  `..I`..thk2.....
00C0: 80 12 80 1F 01 00                                 ......          
```

#### Opcodes

```
  0: 0x0074 [0x1F] MOVE_ENTITY: EventEntity moves to X=-0.959*, Z=0.060*, Y=1.999*
  1: 0x007C [0x1F] MOVE_ENTITY: Update entity position (mode=1)
  2: 0x007E [0x6F] WAIT_FRAME_DELAY: Yield until WaitTime reaches zero
  3: 0x007F [0x1C] WAIT(30* ticks)
  4: 0x0082 [0x39] SET_ENTITY_DIRECTION(direction=2.9°*)
  5: 0x0085 [0x6F] WAIT_FRAME_DELAY: Yield until WaitTime reaches zero
  6: 0x0086 [0x70] WAIT_ENTITY_RENDER_FLAG: Wait while EventEntity->Render.Flags3 bit 2 is set (cancel turn if not)
  7: 0x0087 [0x1C] WAIT(60* ticks)
  8: 0x008A [0x5B] LOAD_EXT_SCHEDULER: Load scheduler "thk1" with entities [Claidie (ID: 17719369/0x010E6049), Claidie (ID: 17719369/0x010E6049)], work=125*
  9: 0x0099 [0x1C] WAIT(30* ticks)
 10: 0x009C [0x1C] WAIT(60* ticks)
 11: 0x009F [0x5B] LOAD_EXT_SCHEDULER: Load scheduler "thk2" with entities [Claidie (ID: 17719369/0x010E6049), Claidie (ID: 17719369/0x010E6049)], work=125*
 12: 0x00AE [0x53] WAIT_SCHEDULER_TASK: Wait for scheduler "thk2" with entities [Claidie (ID: 17719369/0x010E6049), Claidie (ID: 17719369/0x010E6049)]
 13: 0x00BB [0x1F] MOVE_ENTITY: EventEntity moves to X=-19.676*, Z=-17.269*, Y=1.999*
 14: 0x00C3 [0x1F] MOVE_ENTITY: Update entity position (mode=1)
 15: 0x00C5 [0x00] END_REQSTACK()
```

### Event 65535.6

#### Metadata

| Field        | Value    |
|--------------|----------|
| Entrypoint   | 0x00C6   |
| Data Size    | 40 bytes |
| Instructions | 8        |

```
      00 01 02 03 04 05 06 07  08 09 0A 0B 0C 0D 0E 0F
      -- -- -- -- -- -- -- --  -- -- -- -- -- -- -- --
00C0:                   37 1A  80 1B 80 1C 80 1D 80 84        7.........
00D0: 1F 00 1E 80 1F 80 20 80  1F 01 6F 1C 0B 80 5B 17  ...... ...o...[.
00E0: 80 49 60 0E 01 49 60 0E  01 74 68 6B 31 00        .I`..I`..thk1.  
```

#### Opcodes

```
  0: 0x00C6 [0x37] UPDATE_EVENT_POSITION_AND_DIR: x=-151.889*, z=76.391*, y=-8.799*, direction=87.7°*
  1: 0x00CF [0x84] ADJUST_RENDER_FLAGS3_BIT0()
  2: 0x00D0 [0x1F] MOVE_ENTITY: EventEntity moves to X=-151.917*, Z=68.798*, Y=-8.800*
  3: 0x00D8 [0x1F] MOVE_ENTITY: Update entity position (mode=1)
  4: 0x00DA [0x6F] WAIT_FRAME_DELAY: Yield until WaitTime reaches zero
  5: 0x00DB [0x1C] WAIT(60* ticks)
  6: 0x00DE [0x5B] LOAD_EXT_SCHEDULER: Load scheduler "thk1" with entities [Claidie (ID: 17719369/0x010E6049), Claidie (ID: 17719369/0x010E6049)], work=125*
  7: 0x00ED [0x00] END_REQSTACK()
```

### Event 65535.7

#### Metadata

| Field        | Value    |
|--------------|----------|
| Entrypoint   | 0x00EE   |
| Data Size    | 19 bytes |
| Instructions | 3        |

```
      00 01 02 03 04 05 06 07  08 09 0A 0B 0C 0D 0E 0F
      -- -- -- -- -- -- -- --  -- -- -- -- -- -- -- --
00E0:                                            5B 17                [.
00F0: 80 49 60 0E 01 49 60 0E  01 75 6D 75 30 1C 09 80  .I`..I`..umu0...
0100: 00                                                .               
```

#### Opcodes

```
  0: 0x00EE [0x5B] LOAD_EXT_SCHEDULER: Load scheduler "umu0" with entities [Claidie (ID: 17719369/0x010E6049), Claidie (ID: 17719369/0x010E6049)], work=125*
  1: 0x00FD [0x1C] WAIT(30* ticks)
  2: 0x0100 [0x00] END_REQSTACK()
```

### Event 65535.8

#### Metadata

| Field        | Value    |
|--------------|----------|
| Entrypoint   | 0x0101   |
| Data Size    | 29 bytes |
| Instructions | 3        |

```
      00 01 02 03 04 05 06 07  08 09 0A 0B 0C 0D 0E 0F
      -- -- -- -- -- -- -- --  -- -- -- -- -- -- -- --
0100:    5B 17 80 49 60 0E 01  49 60 0E 01 75 6D 75 31   [..I`..I`..umu1
0110: 53 49 60 0E 01 49 60 0E  01 75 6D 75 31 00        SI`..I`..umu1.  
```

#### Opcodes

```
  0: 0x0101 [0x5B] LOAD_EXT_SCHEDULER: Load scheduler "umu1" with entities [Claidie (ID: 17719369/0x010E6049), Claidie (ID: 17719369/0x010E6049)], work=125*
  1: 0x0110 [0x53] WAIT_SCHEDULER_TASK: Wait for scheduler "umu1" with entities [Claidie (ID: 17719369/0x010E6049), Claidie (ID: 17719369/0x010E6049)]
  2: 0x011D [0x00] END_REQSTACK()
```

### Event 65535.9

#### Metadata

| Field        | Value    |
|--------------|----------|
| Entrypoint   | 0x011E   |
| Data Size    | 19 bytes |
| Instructions | 3        |

```
      00 01 02 03 04 05 06 07  08 09 0A 0B 0C 0D 0E 0F
      -- -- -- -- -- -- -- --  -- -- -- -- -- -- -- --
0110:                                            5B 17                [.
0120: 80 49 60 0E 01 49 60 0E  01 74 68 6B 31 1C 09 80  .I`..I`..thk1...
0130: 00                                                .               
```

#### Opcodes

```
  0: 0x011E [0x5B] LOAD_EXT_SCHEDULER: Load scheduler "thk1" with entities [Claidie (ID: 17719369/0x010E6049), Claidie (ID: 17719369/0x010E6049)], work=125*
  1: 0x012D [0x1C] WAIT(30* ticks)
  2: 0x0130 [0x00] END_REQSTACK()
```

### Event 65535.10

#### Metadata

| Field        | Value    |
|--------------|----------|
| Entrypoint   | 0x0131   |
| Data Size    | 29 bytes |
| Instructions | 3        |

```
      00 01 02 03 04 05 06 07  08 09 0A 0B 0C 0D 0E 0F
      -- -- -- -- -- -- -- --  -- -- -- -- -- -- -- --
0130:    5B 17 80 49 60 0E 01  49 60 0E 01 74 68 6B 32   [..I`..I`..thk2
0140: 53 49 60 0E 01 49 60 0E  01 74 68 6B 32 00        SI`..I`..thk2.  
```

#### Opcodes

```
  0: 0x0131 [0x5B] LOAD_EXT_SCHEDULER: Load scheduler "thk2" with entities [Claidie (ID: 17719369/0x010E6049), Claidie (ID: 17719369/0x010E6049)], work=125*
  1: 0x0140 [0x53] WAIT_SCHEDULER_TASK: Wait for scheduler "thk2" with entities [Claidie (ID: 17719369/0x010E6049), Claidie (ID: 17719369/0x010E6049)]
  2: 0x014D [0x00] END_REQSTACK()
```

### Event 65535.11

#### Metadata

| Field        | Value    |
|--------------|----------|
| Entrypoint   | 0x014E   |
| Data Size    | 19 bytes |
| Instructions | 3        |

```
      00 01 02 03 04 05 06 07  08 09 0A 0B 0C 0D 0E 0F
      -- -- -- -- -- -- -- --  -- -- -- -- -- -- -- --
0140:                                            5B 17                [.
0150: 80 49 60 0E 01 49 60 0E  01 74 6C 6B 30 1C 09 80  .I`..I`..tlk0...
0160: 00                                                .               
```

#### Opcodes

```
  0: 0x014E [0x5B] LOAD_EXT_SCHEDULER: Load scheduler "tlk0" with entities [Claidie (ID: 17719369/0x010E6049), Claidie (ID: 17719369/0x010E6049)], work=125*
  1: 0x015D [0x1C] WAIT(30* ticks)
  2: 0x0160 [0x00] END_REQSTACK()
```

### Event 65535.12

#### Metadata

| Field        | Value    |
|--------------|----------|
| Entrypoint   | 0x0161   |
| Data Size    | 29 bytes |
| Instructions | 3        |

```
      00 01 02 03 04 05 06 07  08 09 0A 0B 0C 0D 0E 0F
      -- -- -- -- -- -- -- --  -- -- -- -- -- -- -- --
0160:    5B 17 80 49 60 0E 01  49 60 0E 01 74 6C 6B 31   [..I`..I`..tlk1
0170: 53 49 60 0E 01 49 60 0E  01 74 6C 6B 31 00        SI`..I`..tlk1.  
```

#### Opcodes

```
  0: 0x0161 [0x5B] LOAD_EXT_SCHEDULER: Load scheduler "tlk1" with entities [Claidie (ID: 17719369/0x010E6049), Claidie (ID: 17719369/0x010E6049)], work=125*
  1: 0x0170 [0x53] WAIT_SCHEDULER_TASK: Wait for scheduler "tlk1" with entities [Claidie (ID: 17719369/0x010E6049), Claidie (ID: 17719369/0x010E6049)]
  2: 0x017D [0x00] END_REQSTACK()
```

### Event 65535.13

#### Metadata

| Field        | Value    |
|--------------|----------|
| Entrypoint   | 0x017E   |
| Data Size    | 19 bytes |
| Instructions | 3        |

```
      00 01 02 03 04 05 06 07  08 09 0A 0B 0C 0D 0E 0F
      -- -- -- -- -- -- -- --  -- -- -- -- -- -- -- --
0170:                                            5B 17                [.
0180: 80 49 60 0E 01 49 60 0E  01 6F 67 61 30 1C 09 80  .I`..I`..oga0...
0190: 00                                                .               
```

#### Opcodes

```
  0: 0x017E [0x5B] LOAD_EXT_SCHEDULER: Load scheduler "oga0" with entities [Claidie (ID: 17719369/0x010E6049), Claidie (ID: 17719369/0x010E6049)], work=125*
  1: 0x018D [0x1C] WAIT(30* ticks)
  2: 0x0190 [0x00] END_REQSTACK()
```

### Event 65535.14

#### Metadata

| Field        | Value    |
|--------------|----------|
| Entrypoint   | 0x0191   |
| Data Size    | 29 bytes |
| Instructions | 3        |

```
      00 01 02 03 04 05 06 07  08 09 0A 0B 0C 0D 0E 0F
      -- -- -- -- -- -- -- --  -- -- -- -- -- -- -- --
0190:    5B 17 80 49 60 0E 01  49 60 0E 01 6F 67 61 31   [..I`..I`..oga1
01A0: 53 49 60 0E 01 49 60 0E  01 6F 67 61 31 00        SI`..I`..oga1.  
```

#### Opcodes

```
  0: 0x0191 [0x5B] LOAD_EXT_SCHEDULER: Load scheduler "oga1" with entities [Claidie (ID: 17719369/0x010E6049), Claidie (ID: 17719369/0x010E6049)], work=125*
  1: 0x01A0 [0x53] WAIT_SCHEDULER_TASK: Wait for scheduler "oga1" with entities [Claidie (ID: 17719369/0x010E6049), Claidie (ID: 17719369/0x010E6049)]
  2: 0x01AD [0x00] END_REQSTACK()
```

### Event 65535.15

#### Metadata

| Field        | Value    |
|--------------|----------|
| Entrypoint   | 0x01AE   |
| Data Size    | 19 bytes |
| Instructions | 3        |

```
      00 01 02 03 04 05 06 07  08 09 0A 0B 0C 0D 0E 0F
      -- -- -- -- -- -- -- --  -- -- -- -- -- -- -- --
01A0:                                            5B 17                [.
01B0: 80 49 60 0E 01 49 60 0E  01 70 72 79 30 1C 0B 80  .I`..I`..pry0...
01C0: 00                                                .               
```

#### Opcodes

```
  0: 0x01AE [0x5B] LOAD_EXT_SCHEDULER: Load scheduler "pry0" with entities [Claidie (ID: 17719369/0x010E6049), Claidie (ID: 17719369/0x010E6049)], work=125*
  1: 0x01BD [0x1C] WAIT(60* ticks)
  2: 0x01C0 [0x00] END_REQSTACK()
```

### Event 65535.16

#### Metadata

| Field        | Value    |
|--------------|----------|
| Entrypoint   | 0x01C1   |
| Data Size    | 29 bytes |
| Instructions | 3        |

```
      00 01 02 03 04 05 06 07  08 09 0A 0B 0C 0D 0E 0F
      -- -- -- -- -- -- -- --  -- -- -- -- -- -- -- --
01C0:    5B 17 80 49 60 0E 01  49 60 0E 01 70 72 79 31   [..I`..I`..pry1
01D0: 53 49 60 0E 01 49 60 0E  01 70 72 79 31 00        SI`..I`..pry1.  
```

#### Opcodes

```
  0: 0x01C1 [0x5B] LOAD_EXT_SCHEDULER: Load scheduler "pry1" with entities [Claidie (ID: 17719369/0x010E6049), Claidie (ID: 17719369/0x010E6049)], work=125*
  1: 0x01D0 [0x53] WAIT_SCHEDULER_TASK: Wait for scheduler "pry1" with entities [Claidie (ID: 17719369/0x010E6049), Claidie (ID: 17719369/0x010E6049)]
  2: 0x01DD [0x00] END_REQSTACK()
```

### Event 65535.17

#### Metadata

| Field        | Value   |
|--------------|---------|
| Entrypoint   | 0x01DE  |
| Data Size    | 6 bytes |
| Instructions | 2       |

```
      00 01 02 03 04 05 06 07  08 09 0A 0B 0C 0D 0E 0F
      -- -- -- -- -- -- -- --  -- -- -- -- -- -- -- --
01D0:                                            5E 69                ^i
01E0: 64 6C 30 00                                       dl0.            
```

#### Opcodes

```
  0: 0x01DE [0x5E] EventEntity goes idle (kills current action) (animation: "idl0")
  1: 0x01E3 [0x00] END_REQSTACK()
```

### Event 65535.18

#### Metadata

| Field        | Value    |
|--------------|----------|
| Entrypoint   | 0x01E4   |
| Data Size    | 25 bytes |
| Instructions | 7        |

```
      00 01 02 03 04 05 06 07  08 09 0A 0B 0C 0D 0E 0F
      -- -- -- -- -- -- -- --  -- -- -- -- -- -- -- --
01E0:             2F 00 49 60  0E 01 22 00 32 00 80 1C      /.I`..".2...
01F0: 0B 80 1F 00 21 80 22 80  12 80 1F 01 00           ....!."......   
```

#### Opcodes

```
  0: 0x01E4 [0x2F] Claidie (ID: 17719369/0x010E6049)->Render.Flags0 &= ~0x80000 // Bit 19
  1: 0x01EA [0x22] ENTITY_HIDE_FLAG(enabled=0x00)
  2: 0x01EC [0x32] ExtData[1]->MainSpeed = 10* * 0.1
  3: 0x01EF [0x1C] WAIT(60* ticks)
  4: 0x01F2 [0x1F] MOVE_ENTITY: EventEntity moves to X=-89.286*, Z=-35.024*, Y=1.999*
  5: 0x01FA [0x1F] MOVE_ENTITY: Update entity position (mode=1)
  6: 0x01FC [0x00] END_REQSTACK()
```

### Event 65535.19

#### Metadata

| Field        | Value   |
|--------------|---------|
| Entrypoint   | 0x01FD  |
| Data Size    | 6 bytes |
| Instructions | 2       |

```
      00 01 02 03 04 05 06 07  08 09 0A 0B 0C 0D 0E 0F
      -- -- -- -- -- -- -- --  -- -- -- -- -- -- -- --
01F0:                                         1E 01 60               ..`
0200: 0E 01 00                                          ...             
```

#### Opcodes

```
  0: 0x01FD [0x1E] EventEntity looks at Ceraule (ID: 17719297/0x010E6001) and starts talking
  1: 0x0202 [0x00] END_REQSTACK()
```

### Event 65535.20

#### Metadata

| Field        | Value   |
|--------------|---------|
| Entrypoint   | 0x0203  |
| Data Size    | 6 bytes |
| Instructions | 2       |

```
      00 01 02 03 04 05 06 07  08 09 0A 0B 0C 0D 0E 0F
      -- -- -- -- -- -- -- --  -- -- -- -- -- -- -- --
0200:          1E F0 FF FF 7F  00                          ......       
```

#### Opcodes

```
  0: 0x0203 [0x1E] EventEntity looks at LocalPlayer and starts talking
  1: 0x0208 [0x00] END_REQSTACK()
```

### Event 65535.21

#### Metadata

| Field        | Value   |
|--------------|---------|
| Entrypoint   | 0x0209  |
| Data Size    | 6 bytes |
| Instructions | 2       |

```
      00 01 02 03 04 05 06 07  08 09 0A 0B 0C 0D 0E 0F
      -- -- -- -- -- -- -- --  -- -- -- -- -- -- -- --
0200:                             1E 45 60 0E 01 00              .E`... 
```

#### Opcodes

```
  0: 0x0209 [0x1E] EventEntity looks at Trion (ID: 17719365/0x010E6045) and starts talking
  1: 0x020E [0x00] END_REQSTACK()
```

### Event 65535.22

#### Metadata

| Field        | Value   |
|--------------|---------|
| Entrypoint   | 0x020F  |
| Data Size    | 6 bytes |
| Instructions | 2       |

```
      00 01 02 03 04 05 06 07  08 09 0A 0B 0C 0D 0E 0F
      -- -- -- -- -- -- -- --  -- -- -- -- -- -- -- --
0200:                                               1E                 .
0210: 47 60 0E 01 00                                    G`...           
```

#### Opcodes

```
  0: 0x020F [0x1E] EventEntity looks at Pieuje (ID: 17719367/0x010E6047) and starts talking
  1: 0x0214 [0x00] END_REQSTACK()
```

### Event 65535.23

#### Metadata

| Field        | Value   |
|--------------|---------|
| Entrypoint   | 0x0215  |
| Data Size    | 9 bytes |
| Instructions | 3       |

```
      00 01 02 03 04 05 06 07  08 09 0A 0B 0C 0D 0E 0F
      -- -- -- -- -- -- -- --  -- -- -- -- -- -- -- --
0210:                1C 0B 80  1E F0 FF FF 7F 00             .........  
```

#### Opcodes

```
  0: 0x0215 [0x1C] WAIT(60* ticks)
  1: 0x0218 [0x1E] EventEntity looks at LocalPlayer and starts talking
  2: 0x021D [0x00] END_REQSTACK()
```

### Event 65535.24

#### Metadata

| Field        | Value   |
|--------------|---------|
| Entrypoint   | 0x021E  |
| Data Size    | 9 bytes |
| Instructions | 3       |

```
      00 01 02 03 04 05 06 07  08 09 0A 0B 0C 0D 0E 0F
      -- -- -- -- -- -- -- --  -- -- -- -- -- -- -- --
0210:                                            1C 0B                ..
0220: 80 1E 45 60 0E 01 00                              ..E`...         
```

#### Opcodes

```
  0: 0x021E [0x1C] WAIT(60* ticks)
  1: 0x0221 [0x1E] EventEntity looks at Trion (ID: 17719365/0x010E6045) and starts talking
  2: 0x0226 [0x00] END_REQSTACK()
```

### Event 65535.25

#### Metadata

| Field        | Value   |
|--------------|---------|
| Entrypoint   | 0x0227  |
| Data Size    | 9 bytes |
| Instructions | 3       |

```
      00 01 02 03 04 05 06 07  08 09 0A 0B 0C 0D 0E 0F
      -- -- -- -- -- -- -- --  -- -- -- -- -- -- -- --
0220:                      1C  0B 80 1E 47 60 0E 01 00         ....G`...
```

#### Opcodes

```
  0: 0x0227 [0x1C] WAIT(60* ticks)
  1: 0x022A [0x1E] EventEntity looks at Pieuje (ID: 17719367/0x010E6047) and starts talking
  2: 0x022F [0x00] END_REQSTACK()
```

### Event 65535.26

#### Metadata

| Field        | Value    |
|--------------|----------|
| Entrypoint   | 0x0230   |
| Data Size    | 22 bytes |
| Instructions | 6        |

```
      00 01 02 03 04 05 06 07  08 09 0A 0B 0C 0D 0E 0F
      -- -- -- -- -- -- -- --  -- -- -- -- -- -- -- --
0230: 32 00 80 1F 00 23 80 24  80 12 80 1F 01 2F 01 49  2....#.$...../.I
0240: 60 0E 01 22 01 00                                 `.."..          
```

#### Opcodes

```
  0: 0x0230 [0x32] ExtData[1]->MainSpeed = 10* * 0.1
  1: 0x0233 [0x1F] MOVE_ENTITY: EventEntity moves to X=-86.035*, Z=-31.008*, Y=1.999*
  2: 0x023B [0x1F] MOVE_ENTITY: Update entity position (mode=1)
  3: 0x023D [0x2F] Claidie (ID: 17719369/0x010E6049)->Render.Flags0 |= 0x80000 // Bit 19
  4: 0x0243 [0x22] ENTITY_HIDE_FLAG(enabled=0x01)
  5: 0x0245 [0x00] END_REQSTACK()
```
