# 17719333 - Roido

## Common Data

| Field            | Value                         |
|------------------|-------------------------------|
| Zone             | Southern San d'Oria (ID: 230) |
| Block Size       | 468 bytes                     |
| Total Events     | 20                            |
| References Count | 33                            |

## List of Events

| Event ID                   | Entrypoint   |   Size |   Instructions |
|----------------------------|--------------|--------|----------------|
| [65535](#event-65535)      | 0x0000       |      1 |              1 |
| [80](#event-80)            | 0x0001       |     16 |              3 |
| [65535.1](#event-655351)   | 0x0011       |     14 |              4 |
| [65535.2](#event-655352)   | 0x001F       |     14 |              4 |
| [78](#event-78)            | 0x002D       |     16 |              3 |
| [65535.3](#event-655353)   | 0x003D       |     14 |              4 |
| [65535.4](#event-655354)   | 0x004B       |     14 |              4 |
| [38](#event-38)            | 0x0059       |     16 |              3 |
| [65535.5](#event-655355)   | 0x0069       |     10 |              2 |
| [21](#event-21)            | 0x0073       |     16 |              3 |
| [65535.6](#event-655356)   | 0x0083       |     14 |              4 |
| [65535.7](#event-655357)   | 0x0091       |     16 |              5 |
| [14](#event-14)            | 0x00A1       |     16 |              3 |
| [65535.8](#event-655358)   | 0x00B1       |      6 |              2 |
| [65535.9](#event-655359)   | 0x00B7       |      6 |              2 |
| [65535.10](#event-6553510) | 0x00BD       |      6 |              2 |
| [65535.11](#event-6553511) | 0x00C3       |      6 |              2 |
| [65535.12](#event-6553512) | 0x00C9       |      6 |              2 |
| [65535.13](#event-6553513) | 0x00CF       |     16 |              2 |
| [65535.14](#event-6553514) | 0x00DF       |     16 |              2 |

## DAT References (imed_data)

|   Index | Hex Value   |   Dec Value |
|---------|-------------|-------------|
|       0 | 0xFFFE714C  |  4294865228 |
|       1 | 0x6C1A      |       27674 |
|       2 | 0xFFFFF830  |  4294965296 |
|       3 | 0x0DDD      |        3549 |
|       4 | 0x000D      |          13 |
|       5 | 0xFFFE755C  |  4294866268 |
|       6 | 0x76BF      |       30399 |
|       7 | 0xFFFE51FE  |  4294857214 |
|       8 | 0x6E44      |       28228 |
|       9 | 0xFFFCE8E4  |  4294764772 |
|      10 | 0x109D6     |       68054 |
|      11 | 0xFFFFF448  |  4294964296 |
|      12 | 0x0731      |        1841 |
|      13 | 0xFFFCD83D  |  4294760509 |
|      14 | 0x107B9     |       67513 |
|      15 | 0xFFFE7723  |  4294866723 |
|      16 | 0x782D      |       30765 |
|      17 | 0x0E6A      |        3690 |
|      18 | 0xFFFCD1E6  |  4294758886 |
|      19 | 0x1034A     |       66378 |
|      20 | 0x0EBB      |        3771 |
|      21 | 0xFFFCE89D  |  4294764701 |
|      22 | 0x1095F     |       67935 |
|      23 | 0x074C      |        1868 |
|      24 | 0x0028      |          40 |
|      25 | 0xFFFCD931  |  4294760753 |
|      26 | 0x108DD     |       67805 |
|      27 | 0xFFFD146F  |  4294775919 |
|      28 | 0x10AC8     |       68296 |
|      29 | 0xFFFCD411  |  4294759441 |
|      30 | 0x102F6     |       66294 |
|      31 | 0x0A3A      |        2618 |
|      32 | 0x0003      |           3 |

## Events

### Event 65535

#### Metadata

| Field        | Value   |
|--------------|---------|
| Entrypoint   | 0x0000  |
| Data Size    | 1 bytes |
| Instructions | 1       |

```
      00 01 02 03 04 05 06 07  08 09 0A 0B 0C 0D 0E 0F
      -- -- -- -- -- -- -- --  -- -- -- -- -- -- -- --
0000: 00                                                .               
```

#### Opcodes

```
  0: 0x0000 [0x00] END_REQSTACK()
```

### Event 80

#### Metadata

| Field        | Value    |
|--------------|----------|
| Entrypoint   | 0x0001   |
| Data Size    | 16 bytes |
| Instructions | 3        |

```
      00 01 02 03 04 05 06 07  08 09 0A 0B 0C 0D 0E 0F
      -- -- -- -- -- -- -- --  -- -- -- -- -- -- -- --
0000:    94 01 F8 FF FF 7F 37  00 80 01 80 02 80 03 80   ......7........
0010: 00                                                .               
```

#### Opcodes

```
  0: 0x0001 [0x94] EventEntity->Render.Flags3 ^= 0x01
  1: 0x0007 [0x37] UPDATE_EVENT_POSITION_AND_DIR: x=-102.068*, z=27.674*, y=-2.000*, direction=311.9°*
  2: 0x0010 [0x00] END_REQSTACK()
```

### Event 65535.1

#### Metadata

| Field        | Value    |
|--------------|----------|
| Entrypoint   | 0x0011   |
| Data Size    | 14 bytes |
| Instructions | 4        |

```
      00 01 02 03 04 05 06 07  08 09 0A 0B 0C 0D 0E 0F
      -- -- -- -- -- -- -- --  -- -- -- -- -- -- -- --
0010:    32 04 80 1F 00 05 80  06 80 02 80 1F 01 00      2............. 
```

#### Opcodes

```
  0: 0x0011 [0x32] ExtData[1]->MainSpeed = 13* * 0.1
  1: 0x0014 [0x1F] MOVE_ENTITY: EventEntity moves to X=-101.028*, Z=30.399*, Y=-2.000*
  2: 0x001C [0x1F] MOVE_ENTITY: Update entity position (mode=1)
  3: 0x001E [0x00] END_REQSTACK()
```

### Event 65535.2

#### Metadata

| Field        | Value    |
|--------------|----------|
| Entrypoint   | 0x001F   |
| Data Size    | 14 bytes |
| Instructions | 4        |

```
      00 01 02 03 04 05 06 07  08 09 0A 0B 0C 0D 0E 0F
      -- -- -- -- -- -- -- --  -- -- -- -- -- -- -- --
0010:                                               32                 2
0020: 04 80 1F 00 07 80 08 80  02 80 1F 01 00           .............   
```

#### Opcodes

```
  0: 0x001F [0x32] ExtData[1]->MainSpeed = 13* * 0.1
  1: 0x0022 [0x1F] MOVE_ENTITY: EventEntity moves to X=-110.082*, Z=28.228*, Y=-2.000*
  2: 0x002A [0x1F] MOVE_ENTITY: Update entity position (mode=1)
  3: 0x002C [0x00] END_REQSTACK()
```

### Event 78

#### Metadata

| Field        | Value    |
|--------------|----------|
| Entrypoint   | 0x002D   |
| Data Size    | 16 bytes |
| Instructions | 3        |

```
      00 01 02 03 04 05 06 07  08 09 0A 0B 0C 0D 0E 0F
      -- -- -- -- -- -- -- --  -- -- -- -- -- -- -- --
0020:                                         94 01 F8               ...
0030: FF FF 7F 37 09 80 0A 80  0B 80 0C 80 00           ...7.........   
```

#### Opcodes

```
  0: 0x002D [0x94] EventEntity->Render.Flags3 ^= 0x01
  1: 0x0033 [0x37] UPDATE_EVENT_POSITION_AND_DIR: x=-202.524*, z=68.054*, y=-3.000*, direction=161.8°*
  2: 0x003C [0x00] END_REQSTACK()
```

### Event 65535.3

#### Metadata

| Field        | Value    |
|--------------|----------|
| Entrypoint   | 0x003D   |
| Data Size    | 14 bytes |
| Instructions | 4        |

```
      00 01 02 03 04 05 06 07  08 09 0A 0B 0C 0D 0E 0F
      -- -- -- -- -- -- -- --  -- -- -- -- -- -- -- --
0030:                                         32 04 80               2..
0040: 1F 00 0D 80 0E 80 0B 80  1F 01 00                 ...........     
```

#### Opcodes

```
  0: 0x003D [0x32] ExtData[1]->MainSpeed = 13* * 0.1
  1: 0x0040 [0x1F] MOVE_ENTITY: EventEntity moves to X=-206.787*, Z=67.513*, Y=-3.000*
  2: 0x0048 [0x1F] MOVE_ENTITY: Update entity position (mode=1)
  3: 0x004A [0x00] END_REQSTACK()
```

### Event 65535.4

#### Metadata

| Field        | Value    |
|--------------|----------|
| Entrypoint   | 0x004B   |
| Data Size    | 14 bytes |
| Instructions | 4        |

```
      00 01 02 03 04 05 06 07  08 09 0A 0B 0C 0D 0E 0F
      -- -- -- -- -- -- -- --  -- -- -- -- -- -- -- --
0040:                                   32 04 80 1F 00             2....
0050: 09 80 0A 80 0B 80 1F 01  00                       .........       
```

#### Opcodes

```
  0: 0x004B [0x32] ExtData[1]->MainSpeed = 13* * 0.1
  1: 0x004E [0x1F] MOVE_ENTITY: EventEntity moves to X=-202.524*, Z=68.054*, Y=-3.000*
  2: 0x0056 [0x1F] MOVE_ENTITY: Update entity position (mode=1)
  3: 0x0058 [0x00] END_REQSTACK()
```

### Event 38

#### Metadata

| Field        | Value    |
|--------------|----------|
| Entrypoint   | 0x0059   |
| Data Size    | 16 bytes |
| Instructions | 3        |

```
      00 01 02 03 04 05 06 07  08 09 0A 0B 0C 0D 0E 0F
      -- -- -- -- -- -- -- --  -- -- -- -- -- -- -- --
0050:                             94 01 F8 FF FF 7F 37           ......7
0060: 0F 80 10 80 02 80 11 80  00                       .........       
```

#### Opcodes

```
  0: 0x0059 [0x94] EventEntity->Render.Flags3 ^= 0x01
  1: 0x005F [0x37] UPDATE_EVENT_POSITION_AND_DIR: x=-100.573*, z=30.765*, y=-2.000*, direction=324.3°*
  2: 0x0068 [0x00] END_REQSTACK()
```

### Event 65535.5

#### Metadata

| Field        | Value    |
|--------------|----------|
| Entrypoint   | 0x0069   |
| Data Size    | 10 bytes |
| Instructions | 2        |

```
      00 01 02 03 04 05 06 07  08 09 0A 0B 0C 0D 0E 0F
      -- -- -- -- -- -- -- --  -- -- -- -- -- -- -- --
0060:                             37 12 80 13 80 0B 80           7......
0070: 14 80 00                                          ...             
```

#### Opcodes

```
  0: 0x0069 [0x37] UPDATE_EVENT_POSITION_AND_DIR: x=-208.410*, z=66.378*, y=-3.000*, direction=331.4°*
  1: 0x0072 [0x00] END_REQSTACK()
```

### Event 21

#### Metadata

| Field        | Value    |
|--------------|----------|
| Entrypoint   | 0x0073   |
| Data Size    | 16 bytes |
| Instructions | 3        |

```
      00 01 02 03 04 05 06 07  08 09 0A 0B 0C 0D 0E 0F
      -- -- -- -- -- -- -- --  -- -- -- -- -- -- -- --
0070:          94 01 F8 FF FF  7F 37 15 80 16 80 0B 80     ......7......
0080: 17 80 00                                          ...             
```

#### Opcodes

```
  0: 0x0073 [0x94] EventEntity->Render.Flags3 ^= 0x01
  1: 0x0079 [0x37] UPDATE_EVENT_POSITION_AND_DIR: x=-202.595*, z=67.935*, y=-3.000*, direction=164.2°*
  2: 0x0082 [0x00] END_REQSTACK()
```

### Event 65535.6

#### Metadata

| Field        | Value    |
|--------------|----------|
| Entrypoint   | 0x0083   |
| Data Size    | 14 bytes |
| Instructions | 4        |

```
      00 01 02 03 04 05 06 07  08 09 0A 0B 0C 0D 0E 0F
      -- -- -- -- -- -- -- --  -- -- -- -- -- -- -- --
0080:          32 18 80 1F 00  19 80 1A 80 0B 80 1F 01     2............
0090: 00                                                .               
```

#### Opcodes

```
  0: 0x0083 [0x32] ExtData[1]->MainSpeed = 40* * 0.1
  1: 0x0086 [0x1F] MOVE_ENTITY: EventEntity moves to X=-206.543*, Z=67.805*, Y=-3.000*
  2: 0x008E [0x1F] MOVE_ENTITY: Update entity position (mode=1)
  3: 0x0090 [0x00] END_REQSTACK()
```

### Event 65535.7

#### Metadata

| Field        | Value    |
|--------------|----------|
| Entrypoint   | 0x0091   |
| Data Size    | 16 bytes |
| Instructions | 5        |

```
      00 01 02 03 04 05 06 07  08 09 0A 0B 0C 0D 0E 0F
      -- -- -- -- -- -- -- --  -- -- -- -- -- -- -- --
0090:    32 18 80 1F 00 1B 80  1C 80 02 80 1F 01 22 01   2............".
00A0: 00                                                .               
```

#### Opcodes

```
  0: 0x0091 [0x32] ExtData[1]->MainSpeed = 40* * 0.1
  1: 0x0094 [0x1F] MOVE_ENTITY: EventEntity moves to X=-191.377*, Z=68.296*, Y=-2.000*
  2: 0x009C [0x1F] MOVE_ENTITY: Update entity position (mode=1)
  3: 0x009E [0x22] ENTITY_HIDE_FLAG(enabled=0x01)
  4: 0x00A0 [0x00] END_REQSTACK()
```

### Event 14

#### Metadata

| Field        | Value    |
|--------------|----------|
| Entrypoint   | 0x00A1   |
| Data Size    | 16 bytes |
| Instructions | 3        |

```
      00 01 02 03 04 05 06 07  08 09 0A 0B 0C 0D 0E 0F
      -- -- -- -- -- -- -- --  -- -- -- -- -- -- -- --
00A0:    94 01 F8 FF FF 7F 37  1D 80 1E 80 0B 80 1F 80   ......7........
00B0: 00                                                .               
```

#### Opcodes

```
  0: 0x00A1 [0x94] EventEntity->Render.Flags3 ^= 0x01
  1: 0x00A7 [0x37] UPDATE_EVENT_POSITION_AND_DIR: x=-207.855*, z=66.294*, y=-3.000*, direction=230.1°*
  2: 0x00B0 [0x00] END_REQSTACK()
```

### Event 65535.8

#### Metadata

| Field        | Value   |
|--------------|---------|
| Entrypoint   | 0x00B1  |
| Data Size    | 6 bytes |
| Instructions | 2       |

```
      00 01 02 03 04 05 06 07  08 09 0A 0B 0C 0D 0E 0F
      -- -- -- -- -- -- -- --  -- -- -- -- -- -- -- --
00B0:    1E 23 60 0E 01 00                               .#`...         
```

#### Opcodes

```
  0: 0x00B1 [0x1E] EventEntity looks at Phillone (ID: 17719331/0x010E6023) and starts talking
  1: 0x00B6 [0x00] END_REQSTACK()
```

### Event 65535.9

#### Metadata

| Field        | Value   |
|--------------|---------|
| Entrypoint   | 0x00B7  |
| Data Size    | 6 bytes |
| Instructions | 2       |

```
      00 01 02 03 04 05 06 07  08 09 0A 0B 0C 0D 0E 0F
      -- -- -- -- -- -- -- --  -- -- -- -- -- -- -- --
00B0:                      1E  27 60 0E 01 00                  .'`...   
```

#### Opcodes

```
  0: 0x00B7 [0x1E] EventEntity looks at Halver (ID: 17719335/0x010E6027) and starts talking
  1: 0x00BC [0x00] END_REQSTACK()
```

### Event 65535.10

#### Metadata

| Field        | Value   |
|--------------|---------|
| Entrypoint   | 0x00BD  |
| Data Size    | 6 bytes |
| Instructions | 2       |

```
      00 01 02 03 04 05 06 07  08 09 0A 0B 0C 0D 0E 0F
      -- -- -- -- -- -- -- --  -- -- -- -- -- -- -- --
00B0:                                         1E F0 FF               ...
00C0: FF 7F 00                                          ...             
```

#### Opcodes

```
  0: 0x00BD [0x1E] EventEntity looks at LocalPlayer and starts talking
  1: 0x00C2 [0x00] END_REQSTACK()
```

### Event 65535.11

#### Metadata

| Field        | Value   |
|--------------|---------|
| Entrypoint   | 0x00C3  |
| Data Size    | 6 bytes |
| Instructions | 2       |

```
      00 01 02 03 04 05 06 07  08 09 0A 0B 0C 0D 0E 0F
      -- -- -- -- -- -- -- --  -- -- -- -- -- -- -- --
00C0:          1E 26 60 0E 01  00                          .&`...       
```

#### Opcodes

```
  0: 0x00C3 [0x1E] EventEntity looks at Vijartal (ID: 17719334/0x010E6026) and starts talking
  1: 0x00C8 [0x00] END_REQSTACK()
```

### Event 65535.12

#### Metadata

| Field        | Value   |
|--------------|---------|
| Entrypoint   | 0x00C9  |
| Data Size    | 6 bytes |
| Instructions | 2       |

```
      00 01 02 03 04 05 06 07  08 09 0A 0B 0C 0D 0E 0F
      -- -- -- -- -- -- -- --  -- -- -- -- -- -- -- --
00C0:                             1E 28 60 0E 01 00              .(`... 
```

#### Opcodes

```
  0: 0x00C9 [0x1E] EventEntity looks at Millechairale (ID: 17719336/0x010E6028) and starts talking
  1: 0x00CE [0x00] END_REQSTACK()
```

### Event 65535.13

#### Metadata

| Field        | Value    |
|--------------|----------|
| Entrypoint   | 0x00CF   |
| Data Size    | 16 bytes |
| Instructions | 2        |

```
      00 01 02 03 04 05 06 07  08 09 0A 0B 0C 0D 0E 0F
      -- -- -- -- -- -- -- --  -- -- -- -- -- -- -- --
00C0:                                               66                 f
00D0: 20 80 F8 FF FF 7F F8 FF  FF 7F 73 64 6F 30 00      .........sdo0. 
```

#### Opcodes

```
  0: 0x00CF [0x66] LOAD_EXT_SCHEDULER_MAIN: Load scheduler "sdo0" with entities [EventEntity, EventEntity], work=3*
  1: 0x00DE [0x00] END_REQSTACK()
```

### Event 65535.14

#### Metadata

| Field        | Value    |
|--------------|----------|
| Entrypoint   | 0x00DF   |
| Data Size    | 16 bytes |
| Instructions | 2        |

```
      00 01 02 03 04 05 06 07  08 09 0A 0B 0C 0D 0E 0F
      -- -- -- -- -- -- -- --  -- -- -- -- -- -- -- --
00D0:                                               66                 f
00E0: 20 80 F8 FF FF 7F F8 FF  FF 7F 73 64 6F 31 00      .........sdo1. 
```

#### Opcodes

```
  0: 0x00DF [0x66] LOAD_EXT_SCHEDULER_MAIN: Load scheduler "sdo1" with entities [EventEntity, EventEntity], work=3*
  1: 0x00EE [0x00] END_REQSTACK()
```
