# 17719393 - Endracion

## Common Data

| Field            | Value                         |
|------------------|-------------------------------|
| Zone             | Southern San d'Oria (ID: 230) |
| Block Size       | 14824 bytes                   |
| Total Events     | 98                            |
| References Count | 271                           |

## List of Events

| Event ID                   | Entrypoint   |   Size |   Instructions |
|----------------------------|--------------|--------|----------------|
| [65535](#event-65535)      | 0x0000       |      1 |              1 |
| [503](#event-503)          | 0x0001       |     10 |              2 |
| [65535.1](#event-655351)   | 0x000B       |     63 |             14 |
| [1011](#event-1011)        | 0x004A       |     36 |             10 |
| [1000](#event-1000)        | 0x006E       |    573 |             86 |
| [1002](#event-1002)        | 0x02AB       |    220 |             32 |
| [1008](#event-1008)        | 0x0387       |    191 |             25 |
| [1010](#event-1010)        | 0x0446       |    210 |             28 |
| [1009](#event-1009)        | 0x0518       |    657 |            126 |
| [1001](#event-1001)        | 0x07A9       |    467 |             73 |
| [1003](#event-1003)        | 0x097C       |    885 |            121 |
| [1004](#event-1004)        | 0x0CF1       |    500 |             66 |
| [1024](#event-1024)        | 0x0EE5       |    607 |             82 |
| [1005](#event-1005)        | 0x1144       |    589 |             87 |
| [1006](#event-1006)        | 0x1391       |    469 |             62 |
| [1007](#event-1007)        | 0x1566       |    689 |             93 |
| [1012](#event-1012)        | 0x1817       |    566 |             82 |
| [1013](#event-1013)        | 0x1A4D       |    810 |            117 |
| [1015](#event-1015)        | 0x1D77       |    185 |             27 |
| [61](#event-61)            | 0x1E30       |     36 |             10 |
| [1035](#event-1035)        | 0x1E54       |      4 |              2 |
| [1037](#event-1037)        | 0x1E58       |      4 |              2 |
| [1039](#event-1039)        | 0x1E5C       |      4 |              2 |
| [1033](#event-1033)        | 0x1E60       |      4 |              2 |
| [1041](#event-1041)        | 0x1E64       |      4 |              2 |
| [1043](#event-1043)        | 0x1E68       |      4 |              2 |
| [1045](#event-1045)        | 0x1E6C       |   1109 |            315 |
| [65535.2](#event-655352)   | 0x22C1       |     16 |              2 |
| [65535.3](#event-655353)   | 0x22D1       |     22 |              4 |
| [65535.4](#event-655354)   | 0x22E7       |     16 |              2 |
| [65535.5](#event-655355)   | 0x22F7       |     14 |              2 |
| [65535.6](#event-655356)   | 0x2305       |     16 |              2 |
| [65535.7](#event-655357)   | 0x2315       |     14 |              2 |
| [65535.8](#event-655358)   | 0x2323       |     16 |              2 |
| [65535.9](#event-655359)   | 0x2333       |     14 |              2 |
| [65535.10](#event-6553510) | 0x2341       |     16 |              2 |
| [65535.11](#event-6553511) | 0x2351       |     14 |              2 |
| [65535.12](#event-6553512) | 0x235F       |     16 |              2 |
| [65535.13](#event-6553513) | 0x236F       |     14 |              2 |
| [65535.14](#event-6553514) | 0x237D       |     16 |              2 |
| [65535.15](#event-6553515) | 0x238D       |     14 |              2 |
| [65535.16](#event-6553516) | 0x239B       |     16 |              2 |
| [65535.17](#event-6553517) | 0x23AB       |     14 |              2 |
| [65535.18](#event-6553518) | 0x23B9       |     16 |              2 |
| [65535.19](#event-6553519) | 0x23C9       |     14 |              2 |
| [65535.20](#event-6553520) | 0x23D7       |     16 |              2 |
| [65535.21](#event-6553521) | 0x23E7       |     14 |              2 |
| [65535.22](#event-6553522) | 0x23F5       |      9 |              3 |
| [1020](#event-1020)        | 0x23FE       |   1308 |            159 |
| [65535.23](#event-6553523) | 0x291A       |      5 |              3 |
| [65535.24](#event-6553524) | 0x291F       |      5 |              3 |
| [65535.25](#event-6553525) | 0x2924       |      5 |              3 |
| [65535.26](#event-6553526) | 0x2929       |      5 |              3 |
| [65535.27](#event-6553527) | 0x292E       |      5 |              3 |
| [65535.28](#event-6553528) | 0x2933       |     23 |              7 |
| [65535.29](#event-6553529) | 0x294A       |      5 |              3 |
| [65535.30](#event-6553530) | 0x294F       |    640 |             75 |
| [65535.31](#event-6553531) | 0x2BCF       |      5 |              3 |
| [65535.32](#event-6553532) | 0x2BD4       |      5 |              3 |
| [65535.33](#event-6553533) | 0x2BD9       |      5 |              3 |
| [65535.34](#event-6553534) | 0x2BDE       |      5 |              3 |
| [65535.35](#event-6553535) | 0x2BE3       |      5 |              3 |
| [65535.36](#event-6553536) | 0x2BE8       |      5 |              3 |
| [65535.37](#event-6553537) | 0x2BED       |      5 |              3 |
| [65535.38](#event-6553538) | 0x2BF2       |      5 |              3 |
| [1021](#event-1021)        | 0x2BF7       |     33 |             12 |
| [1022](#event-1022)        | 0x2C18       |     29 |             10 |
| [1023](#event-1023)        | 0x2C35       |    225 |             27 |
| [65535.39](#event-6553539) | 0x2D16       |      9 |              5 |
| [65535.40](#event-6553540) | 0x2D1F       |      5 |              3 |
| [65535.41](#event-6553541) | 0x2D24       |    585 |             66 |
| [65535.42](#event-6553542) | 0x2F6D       |      5 |              3 |
| [65535.43](#event-6553543) | 0x2F72       |      5 |              3 |
| [65535.44](#event-6553544) | 0x2F77       |      5 |              3 |
| [65535.45](#event-6553545) | 0x2F7C       |      5 |              3 |
| [65535.46](#event-6553546) | 0x2F81       |      5 |              3 |
| [65535.47](#event-6553547) | 0x2F86       |      5 |              3 |
| [65535.48](#event-6553548) | 0x2F8B       |      5 |              3 |
| [1025](#event-1025)        | 0x2F90       |     33 |             12 |
| [1026](#event-1026)        | 0x2FB1       |    326 |             38 |
| [65535.49](#event-6553549) | 0x30F7       |      5 |              3 |
| [65535.50](#event-6553550) | 0x30FC       |      5 |              3 |
| [65535.51](#event-6553551) | 0x3101       |      5 |              3 |
| [65535.52](#event-6553552) | 0x3106       |      5 |              3 |
| [65535.53](#event-6553553) | 0x310B       |      5 |              3 |
| [1027](#event-1027)        | 0x3110       |    278 |             32 |
| [1028](#event-1028)        | 0x3226       |     33 |             12 |
| [65535.54](#event-6553554) | 0x3247       |    202 |             25 |
| [65535.55](#event-6553555) | 0x3311       |      5 |              3 |
| [65535.56](#event-6553556) | 0x3316       |      5 |              3 |
| [1029](#event-1029)        | 0x331B       |     15 |              8 |
| [1032](#event-1032)        | 0x332A       |     15 |              8 |
| [1030](#event-1030)        | 0x3339       |    192 |             23 |
| [65535.57](#event-6553557) | 0x33F9       |      5 |              3 |
| [65535.58](#event-6553558) | 0x33FE       |      5 |              3 |
| [1031](#event-1031)        | 0x3403       |     15 |              8 |
| [993](#event-993)          | 0x3412       |      1 |              1 |
| [3526](#event-3526)        | 0x3413       |      1 |              1 |

## DAT References (imed_data)

|   Index | Hex Value   |   Dec Value |
|---------|-------------|-------------|
|       0 | 0xFFFEC280  |  4294886016 |
|       1 | 0xFFFFAD37  |  4294946103 |
|       2 | 0xFFFFDF32  |  4294958898 |
|       3 | 0x0256      |         598 |
|       4 | 0x000D      |          13 |
|       5 | 0xFFFEC7C4  |  4294887364 |
|       6 | 0xFFFFA7FF  |  4294944767 |
|       7 | 0xFFFFE31A  |  4294959898 |
|       8 | 0x0015      |          21 |
|       9 | 0xFFFEF520  |  4294898976 |
|      10 | 0xFFFF7A86  |  4294933126 |
|      11 | 0x0014      |          20 |
|      12 | 0x1C3E      |        7230 |
|      13 | 0x001E      |          30 |
|      14 | 0x00C8      |         200 |
|      15 | 0x0000      |           0 |
|      16 | 0x003C      |          60 |
|      17 | 0x0003      |           3 |
|      18 | 0x005A      |          90 |
|      19 | 0x1C3D      |        7229 |
|      20 | 0x1C44      |        7236 |
|      21 | 0x0082      |         130 |
|      22 | 0x1C45      |        7237 |
|      23 | 0x1C46      |        7238 |
|      24 | 0x1C47      |        7239 |
|      25 | 0x1C48      |        7240 |
|      26 | 0x1C49      |        7241 |
|      27 | 0x4110      |       16656 |
|      28 | 0x1C4A      |        7242 |
|      29 | 0x0005      |           5 |
|      30 | 0x0006      |           6 |
|      31 | 0x1C4B      |        7243 |
|      32 | 0x1C4C      |        7244 |
|      33 | 0x1C4D      |        7245 |
|      34 | 0x0001      |           1 |
|      35 | 0x0002      |           2 |
|      36 | 0x40000000  |  1073741824 |
|      37 | 0x23FD      |        9213 |
|      38 | 0x1C4E      |        7246 |
|      39 | 0x1C4F      |        7247 |
|      40 | 0x00C9      |         201 |
|      41 | 0x1C50      |        7248 |
|      42 | 0x1C51      |        7249 |
|      43 | 0x1C52      |        7250 |
|      44 | 0x1C40      |        7232 |
|      45 | 0x001F      |          31 |
|      46 | 0x0008      |           8 |
|      47 | 0x0004      |           4 |
|      48 | 0x0007      |           7 |
|      49 | 0x0009      |           9 |
|      50 | 0x000A      |          10 |
|      51 | 0x000F      |          15 |
|      52 | 0x000B      |          11 |
|      53 | 0x000C      |          12 |
|      54 | 0x000E      |          14 |
|      55 | 0x0010      |          16 |
|      56 | 0x0011      |          17 |
|      57 | 0x0012      |          18 |
|      58 | 0x0013      |          19 |
|      59 | 0x0016      |          22 |
|      60 | 0x0017      |          23 |
|      61 | 0x0018      |          24 |
|      62 | 0x0019      |          25 |
|      63 | 0x001A      |          26 |
|      64 | 0x001B      |          27 |
|      65 | 0x001C      |          28 |
|      66 | 0x001D      |          29 |
|      67 | 0x1C41      |        7233 |
|      68 | 0x1C3F      |        7231 |
|      69 | 0x23FC      |        9212 |
|      70 | 0x1C54      |        7252 |
|      71 | 0x1C55      |        7253 |
|      72 | 0x037B      |         891 |
|      73 | 0x1C56      |        7254 |
|      74 | 0x1C57      |        7255 |
|      75 | 0x1C58      |        7256 |
|      76 | 0x1C59      |        7257 |
|      77 | 0x1C5A      |        7258 |
|      78 | 0x1C5B      |        7259 |
|      79 | 0x1C5C      |        7260 |
|      80 | 0x1C5D      |        7261 |
|      81 | 0x1C5E      |        7262 |
|      82 | 0x1C5F      |        7263 |
|      83 | 0x1C60      |        7264 |
|      84 | 0x1C61      |        7265 |
|      85 | 0x1C62      |        7266 |
|      86 | 0x1C63      |        7267 |
|      87 | 0x1C64      |        7268 |
|      88 | 0x1C65      |        7269 |
|      89 | 0x1C66      |        7270 |
|      90 | 0x1C67      |        7271 |
|      91 | 0x1C68      |        7272 |
|      92 | 0x0020      |          32 |
|      93 | 0x1C69      |        7273 |
|      94 | 0x0023      |          35 |
|      95 | 0x1C6A      |        7274 |
|      96 | 0x1C6B      |        7275 |
|      97 | 0x1C6C      |        7276 |
|      98 | 0x20FA      |        8442 |
|      99 | 0x20FB      |        8443 |
|     100 | 0x20FC      |        8444 |
|     101 | 0x20FD      |        8445 |
|     102 | 0x241D      |        9245 |
|     103 | 0x1C6E      |        7278 |
|     104 | 0x1C6F      |        7279 |
|     105 | 0x1C70      |        7280 |
|     106 | 0x1C71      |        7281 |
|     107 | 0x1C72      |        7282 |
|     108 | 0x1C73      |        7283 |
|     109 | 0x1C75      |        7285 |
|     110 | 0x1C76      |        7286 |
|     111 | 0x1C77      |        7287 |
|     112 | 0x241F      |        9247 |
|     113 | 0x2420      |        9248 |
|     114 | 0x1C79      |        7289 |
|     115 | 0x1C7A      |        7290 |
|     116 | 0x0068      |         104 |
|     117 | 0x1C7B      |        7291 |
|     118 | 0x1C7C      |        7292 |
|     119 | 0x1C7D      |        7293 |
|     120 | 0x1C7E      |        7294 |
|     121 | 0x2105      |        8453 |
|     122 | 0x1C7F      |        7295 |
|     123 | 0x1C81      |        7297 |
|     124 | 0x1C82      |        7298 |
|     125 | 0x1C83      |        7299 |
|     126 | 0x1C86      |        7302 |
|     127 | 0x1C87      |        7303 |
|     128 | 0x1C88      |        7304 |
|     129 | 0x1C89      |        7305 |
|     130 | 0x1C8A      |        7306 |
|     131 | 0x1C8B      |        7307 |
|     132 | 0x1C8D      |        7309 |
|     133 | 0x1C8E      |        7310 |
|     134 | 0x11B0      |        4528 |
|     135 | 0x1C8F      |        7311 |
|     136 | 0x1C90      |        7312 |
|     137 | 0x1C91      |        7313 |
|     138 | 0x006F      |         111 |
|     139 | 0x1C92      |        7314 |
|     140 | 0x1C93      |        7315 |
|     141 | 0x1C94      |        7316 |
|     142 | 0x1C95      |        7317 |
|     143 | 0x1C96      |        7318 |
|     144 | 0x1C97      |        7319 |
|     145 | 0x1CA0      |        7328 |
|     146 | 0x1CA1      |        7329 |
|     147 | 0x1CA2      |        7330 |
|     148 | 0x1CA3      |        7331 |
|     149 | 0x1CA4      |        7332 |
|     150 | 0x1CA5      |        7333 |
|     151 | 0x1CA6      |        7334 |
|     152 | 0x1CA7      |        7335 |
|     153 | 0x1CA8      |        7336 |
|     154 | 0x0024      |          36 |
|     155 | 0x1CA9      |        7337 |
|     156 | 0x1CAA      |        7338 |
|     157 | 0x1CAB      |        7339 |
|     158 | 0x1CAC      |        7340 |
|     159 | 0x1CAD      |        7341 |
|     160 | 0x1CAE      |        7342 |
|     161 | 0x1CAF      |        7343 |
|     162 | 0x1CB0      |        7344 |
|     163 | 0x1CB1      |        7345 |
|     164 | 0x010D      |         269 |
|     165 | 0x1CB2      |        7346 |
|     166 | 0x1CB4      |        7348 |
|     167 | 0x1CB5      |        7349 |
|     168 | 0x1CB6      |        7350 |
|     169 | 0x0025      |          37 |
|     170 | 0x1CB7      |        7351 |
|     171 | 0x1CB8      |        7352 |
|     172 | 0x1CB9      |        7353 |
|     173 | 0x1CBA      |        7354 |
|     174 | 0x1CBB      |        7355 |
|     175 | 0x1CBC      |        7356 |
|     176 | 0x1CBD      |        7357 |
|     177 | 0x1CBE      |        7358 |
|     178 | 0x1CBF      |        7359 |
|     179 | 0x1CC0      |        7360 |
|     180 | 0x1CC1      |        7361 |
|     181 | 0x1CC2      |        7362 |
|     182 | 0x1CC3      |        7363 |
|     183 | 0x011C      |         284 |
|     184 | 0x1CC4      |        7364 |
|     185 | 0x1CC5      |        7365 |
|     186 | 0x1CC6      |        7366 |
|     187 | 0x0026      |          38 |
|     188 | 0x1CC7      |        7367 |
|     189 | 0x1CC8      |        7368 |
|     190 | 0x1CC9      |        7369 |
|     191 | 0x1CCA      |        7370 |
|     192 | 0x1CCC      |        7372 |
|     193 | 0x1CCD      |        7373 |
|     194 | 0x1CCE      |        7374 |
|     195 | 0x1CCF      |        7375 |
|     196 | 0x1CD0      |        7376 |
|     197 | 0x1CD2      |        7378 |
|     198 | 0x1CD3      |        7379 |
|     199 | 0x1CD4      |        7380 |
|     200 | 0x1CD5      |        7381 |
|     201 | 0x1CD6      |        7382 |
|     202 | 0x1CD7      |        7383 |
|     203 | 0x1CD8      |        7384 |
|     204 | 0x1CD9      |        7385 |
|     205 | 0x1CDA      |        7386 |
|     206 | 0x1CDB      |        7387 |
|     207 | 0x1CDC      |        7388 |
|     208 | 0x1CDD      |        7389 |
|     209 | 0x23EA      |        9194 |
|     210 | 0x23EB      |        9195 |
|     211 | 0x007A      |         122 |
|     212 | 0x007F      |         127 |
|     213 | 0x23EC      |        9196 |
|     214 | 0x23F1      |        9201 |
|     215 | 0x0919      |        2329 |
|     216 | 0x23F2      |        9202 |
|     217 | 0x23F5      |        9205 |
|     218 | 0x006B      |         107 |
|     219 | 0x0078      |         120 |
|     220 | 0x0064      |         100 |
|     221 | 0x23EE      |        9198 |
|     222 | 0x23F0      |        9200 |
|     223 | 0x23F3      |        9203 |
|     224 | 0x23F6      |        9206 |
|     225 | 0x23F8      |        9208 |
|     226 | 0x23F9      |        9209 |
|     227 | 0x23FA      |        9210 |
|     228 | 0x23FB      |        9211 |
|     229 | 0x2404      |        9220 |
|     230 | 0x0065      |         101 |
|     231 | 0x23FE      |        9214 |
|     232 | 0x23FF      |        9215 |
|     233 | 0x2400      |        9216 |
|     234 | 0x2401      |        9217 |
|     235 | 0x2402      |        9218 |
|     236 | 0x2403      |        9219 |
|     237 | 0x2405      |        9221 |
|     238 | 0x2406      |        9222 |
|     239 | 0x2407      |        9223 |
|     240 | 0x2408      |        9224 |
|     241 | 0x2409      |        9225 |
|     242 | 0x240A      |        9226 |
|     243 | 0x240B      |        9227 |
|     244 | 0x240C      |        9228 |
|     245 | 0x0066      |         102 |
|     246 | 0x240D      |        9229 |
|     247 | 0x240F      |        9231 |
|     248 | 0x2410      |        9232 |
|     249 | 0x2411      |        9233 |
|     250 | 0x2412      |        9234 |
|     251 | 0x2413      |        9235 |
|     252 | 0x2414      |        9236 |
|     253 | 0x2415      |        9237 |
|     254 | 0x2416      |        9238 |
|     255 | 0x2417      |        9239 |
|     256 | 0x2418      |        9240 |
|     257 | 0x2419      |        9241 |
|     258 | 0x241A      |        9242 |
|     259 | 0x241B      |        9243 |
|     260 | 0x241E      |        9246 |
|     261 | 0x2421      |        9249 |
|     262 | 0x2422      |        9250 |
|     263 | 0x006E      |         110 |
|     264 | 0x2423      |        9251 |
|     265 | 0x2424      |        9252 |
|     266 | 0x2425      |        9253 |
|     267 | 0x2426      |        9254 |
|     268 | 0x2427      |        9255 |
|     269 | 0x2428      |        9256 |
|     270 | 0x2429      |        9257 |

## String References

- **7229**: A recruit? What do you want with this gatehouse?
- **7230**: Only citizens of San d'Oria may apply for missions here. Go see your country's consulate in Northern San d'Oria.
- **7231**: Finish your current mission first, then come back for another.
- **7232**: Which mission will you undertake? [Smash the Orcish Scouts./Bat Hunt./Save the Children./The Rescue Drill./The Davoi Report./Journey Abroad./Journey to Bastok./Journey to Windurst./Journey to Bastok./Journey to Windurst./Infiltrate Davoi./The Crystal Spring./Appointment to Jeuno./Magicite./The Ruins of Fei'Yin./The Shadow Lord./Leaute's Last Wishes./Ranperre's Final Rest./Prestige of the Papsque./The Secret Weapon./Coming of Age./Lightbringer./Breaking Barriers./The Heir to the Light./10-1./10-2./$3_$3~[26./$3_$3~[27./$3_$3~[28./$3_$3~[29./$3_$3~[30./None.]
- **7233**: Accept this mission? [Yes./No.]
- **7236**: Your business? [A mission, please./Nothing.]
- **7237**: Hmm...not much work for those wet behind the ears, but...
- **7238**: How about slaying Orcish scouts? Only the yellowest of yearlings would run from that, and we've no work for cowards here.
- **7239**: If you're to take the mission, I'll be happy to explain.
- **7240**: Interested? [Tell me more./Never mind.]
- **7241**: Here's your mission. Orcish scouts roam outside; kill one and bring me his axe as proof.
- **7242**: You'll have to bring me $0. No other kind will do. Understand?
- **7243**: That is all. You'll take the mission then?
- **7244**: Do you accept the mission? [I accept./Could you explain again?/No, thank you.]
- **7245**: Bring me one of those axes, and your mission will be a success. No running away now; we've a proud country to defend!
- **7246**: Oh, you're back. Well, if you're so happy you defeated an Orc or two, you've a long way ahead of you!
- **7247**: That's another $0 for the armory, then. Mission complete! Not bad for a new recruit.
- **7248**: What? I don't want this!
- **7249**: Are you really a new recruit!?
- **7250**: Listen, before you bring me something, you must first accept the mission! That is how things work around here!
- **7252**: Bat patrol! How about it? Shouldn't be a problem for an adventurer such as yourself, no?
- **7253**: Here's your mission, then. Clear out bats lurking in King Ranperre's Tomb and bring me a fang as proof.
- **7254**: Bring me $0 and your mission will be a success.
- **7255**: Deep in the tomb you'll find Goblins. Take care; I don't want to lose you yet.
- **7256**: Ah, you've returned! I was afraid that Goblins got you.
- **7257**: That's one $3 for the gatehouse, then. Mission complete. Not bad for a new recruit.
- **7258**: Ah, the recruit's back again? I'm sorry, but I've no time for you today.
- **7259**: Well, perhaps you can be of some help. Many of our children have disappeared mysteriously, and I've no doubt the Ghelsba Orcs are behind it.
- **7260**: The Royal Knights should be on the job by now, but the two princes are at each other's throats.
- **7261**: Prince Trion, the eldest, says we should launch a full attack, with all haste.
- **7262**: While his younger brother, Prince Pieuje says the safety of the children comes first, and he won't authorize an attack.
- **7263**: They've been arguing this back and forth for days. The knights' hands are tied, and frankly, nobody knows what to do.
- **7264**: If you really want to make a name for yourself, go to Ghelsba, and rescue those kidnapped children!
- **7265**: What say you? Will you go?
- **7266**: Here's your mission, then. Rescue the two children kidnapped by the Orcs of Ghelsba Outpost.
- **7267**: Ghelsba Outpost is northwest of West Ronfaure. Take the path before the Westgate, then turn right when the path splits in the forest. You'll find the entrance up in the hills.
- **7268**: If you have trouble finding the way, just follow one of the soldiers on patrol.
- **7269**: Orcs tend to keep their hostages in tents or small huts. Once you're inside the compound, check them first.
- **7270**: Ah, you've returned! You were gone so long, I feared a warmachine had got you!
- **7271**: At any rate, mission complete! And to reward your accomplishment...
- **7272**: I hereby recognize you, <Player>, as a certified adventurer of San d'Oria! You're now mission rank two, as well.
- **7273**: But don't get too excited. Your title is valid only here in San d'Oria, understand?
- **7274**: In order to become a true adventurer, and bear $6, you must be recognized by Bastok and Windurst as well.
- **7275**: 'Tis a treaty between the three lands, and its word is law. I know it's hard, but those are the rules.
- **7276**: For now, cut your adventuring teeth in the areas near here. Sooner or later you'll find your way into other lands.
- **7278**: There's not much work in right now. I suppose you could go participate in the Temple Knights' rescue drills out on the La Theine Plateau.
- **7279**: Enter the forest beyond the Westgate and head southwest. You'll come out onto the La Theine Plateau before long.
- **7280**: Once you're out on the plateau, keep going until you see the knights. The training grounds aren't far from there.
- **7281**: It's all just a drill, so this should be easy compared to your usual fare. Just follow orders and you'll be fine.
- **7282**: You've returned! I hear the drill turned into something far more perilous. But real battle is the best drill for recruits, in my opinion.
- **7283**: Regardless, you've done well. I'll turn to you when there's work to be done, now.
- **7285**: This time it's messenger duty. One of our knights is out scouting in a place called Davoi, on the southern edge of Jugner Forest.
- **7286**: The Orcs' stronghold is in Davoi, so it's vital that we stop them from massing, or they may launch an assault.
- **7287**: Of course, the Orcs are keeping an eye on us, too. Why, just a few days past, a squad of our Royal Knights fell to their axes.
- **7289**: The scout's name is Zantaviat. He's somewhere in Davoi, but where I cannot say.
- **7290**: Come back after you've gotten the report. Those lands are no place to wander.
- **7291**: You have returned! And you've brought the scouting report. Good work, <Player>.
- **7292**: Troubling news, this is. It says that Orcs are gathering deep inside the encampment. The time to act is coming!
- **7293**: But that is not your concern. You've done well today. Mission complete!
- **7294**: Oh, it's you, <Player>. And at just the right time, too. Monarlais Halver is looking for an adventurer such as yourself.
- **7295**: Enter Chateau d'Oraguille. Monarlais Halver is there; he'll explain in person.
- **7297**: Ah, welcome back. I see you've been certified in Bastok and Windurst. Good work. You'll make a fine adventurer.
- **7298**: What's that, a report for our kingdom? I see. Take that to the monarlais when you go.
- **7299**: You should receive $6 from Monarlais Halver. Now, go to Chateau d'Oraguille and let them know you're back!
- **7302**: Ah! You've come at just the right time. Zantaviat, one of our scouts in Davoi, needs an adventurer.
- **7303**: He wants someone to infiltrate Davoi and scout behind enemy lines. Know anyone fitting that description?
- **7304**: Now that you've got your $3, this is an opportunity to prove you're worth it!
- **7305**: The situation in Davoi worsens by the day. This won't be easy, but I can't think of a better adventurer for the job!
- **7306**: You've returned! Zantaviat told me everything. Congratulations on a job well done!
- **7307**: But we can't let down our guard yet. Those Orcs will not just sit there. We must keep constant vigil, and move before they do!
- **7309**: Welcome back! I have an important mission for you this time. Recently, land is eroding due to crystal formation...and it's getting worse.
- **7310**: There's a small spring on the eastern edge of Jugner Forest, called Crystwater Spring. We must know what effect crystal formation has on the wildlife there.
- **7311**: I want you to get me a fish from the spring. And not just any fish! You need to get $0.
- **7312**: Ah, that reminds me--have you any fishing gear? You'll need some for this mission.
- **7313**: There are people about that know a thing or two about fishing, should you need help finding and choosing your gear.
- **7314**: Ah, the great angler returns! I was worried, to be honest. All you hear these days is the massing of beasts, the erosion of the Crystal Lines, and now...
- **7315**: ...rumors that the Shadow Lord himself has returned!
- **7316**: We will examine the fish you brought. Depending on the results, we may need to act! I'll let you know if we need your help.
- **7317**: Ah, it's you, <Player>. You've come at a good time. I've news for you.
- **7318**: By order of the Kingdom of San d'Oria, you're to head to Jeuno as an ambassadorial attach<Player>i.
- **7319**: Go to Chateau d'Oraguille. Monarlais Halver will tell you all you need to know.
- **7328**: There you are! I've been looking for you. Monarlais Halver requests your presence at the chateau immediately.
- **7329**: It sounds as if this is a fairly important mission. I need not remind you that you should take care to properly equip yourself before embarking on this journey.
- **7330**: I'm not sure what it's about, but you'd best make haste. The monarlais is not to be kept waiting!
- **7331**: Why, if it isn't <Player>! This is no time for loafing around, friend! Prince Trion is looking for you.
- **7332**: For this next mission, he's requested you personally. You should be honored!
- **7333**: As for the details of the mission, I've no idea what he wants, but he was in a hurry. You'd best be off to Chateau d'Oraguille!
- **7334**: It is a great thing you've done, <Player>! I knew deep in my heart that you were the one for the task.
- **7335**: You'd better get to the chateau quick. They're all waiting to welcome you back, I'd wager.
- **7336**: You've saved our proud Kingdom of San d'Oria. No, you're the savior of all Vana'diel! There's not a soul that doesn't owe you a great debt, <Player>.
- **7337**: Ah, if it isn't <Player>! You had best hurry off to Chateau d'Oraguille. It seems as if something terrible is in the works there.
- **7338**: Well, if it isn't <Player>! Your timing is perfect. The chateau just sent a request for an adventurer.
- **7339**: It looks as if this next mission has something to do with the late queen. You should feel honored. It's not every day that an adventurer gets to work directly with the royal family.
- **7340**: Spoken like a true San d'Orian! Now hurry off to Chateau d'Oraguille and get the details on the mission from Monarlais Halver.
- **7341**: What's wrong? Dealing with royalty is not your cup of tea? Well, think about it and come back when you've come to your senses.
- **7342**: Prince Trion is requesting the aid of an adventurer. How about it?
- **7343**: It looks fairly urgent, so you should hurry to the chateau. The prince is waiting in his chambers.
- **7344**: I expected more from you, <Player>. If you change your mind, return here. I'll be waiting.
- **7345**: I have received the details of your mission from Prince Trion. I will deliver this book to the scholars for deciphering.
- **7346**: The deciphering of the $3 will take a considerable amount of time. Return later for a report.
- **7348**: Ah, <Player>. We've been waiting. Prince Trion is calling for you. I wonder if this means the $3 has been completely deciphered.
- **7349**: Well done, <Player>! I knew you would not let the Kingdom down.
- **7350**: I'm proud to increase your rank to 7!
- **7351**: The papsque has work for you, <Player>. Are you willing to take on the task?
- **7352**: Excellent. Proceed to the papsque's chambers on the third floor of the cathedral.
- **7353**: The papsque often comes across as a difficult man, but he is actually very kindhearted and compassionate. If you change your mind, I'll be waiting here.
- **7354**: The fair Claidie I d'Oraguille has invited you to the chateau. She wishes for you to see the flowers that have bloomed from the seeds you brought back from Altepa.
- **7355**: It is an honor to be invited to the chateau garden. One day you may even have the opportunity to attend one of their royal garden parties.
- **7356**: We cannot keep the princess waiting. Now, off to the chateau!
- **7357**: A party of Royal Knights stationed in Ghelsba Outpost have reported strange activity by Orcs deep within Yughott Grotto.
- **7358**: From your reports, we already know that the beastmen have built a giant portal, but their motives remain unclear.
- **7359**: It makes me shudder to think of what those Orcs are planning with that portal...
- **7360**: <Player>, your next mission is to travel to Ghelsba and continue your investigation into the Orcs' activities.
- **7361**: Be on your guard when traveling deep into Yughott Grotto. Losing an adventurer such as yourself would deal a great blow to all of San d'Oria.
- **7362**: I see you need more time for preparations. When you are ready, I'll be waiting.
- **7363**: It's hard to believe Orcs have their hands on such dangerous equipment. More patrols will have to be sent out to prevent any new developments in their evil plans.
- **7364**: And this $3... We will have to analyze it and begin reproduction for our forces. We cannot let Orcs get the Treasure of the Dragon King before San d'Oria does.
- **7365**: Well, congratulations on the completion of your mission. Hmmm? Do I know of an adventurer named Eideialc? Never heard of him.
- **7366**: But you need not worry about some petty traveler. You are in a different league. You are now rank 8!
- **7367**: Princess Claidie's coming-of-age ceremony is drawing near. This ceremony is an important facet of d'Oraguille tradition.
- **7368**: Monarlais Halver has put out a call to high-ranking adventurers for their assistance in Chateau d'Oraguille.
- **7369**: Ah, the young princess has finally become a lady... Oh, I'm sorry. You can get the details of your next mission from Sir Halver.
- **7370**: What? You do not wish to repay the kindness the princess has shown to you in the past months? As you wish...but if you change your mind, you know where to find me.
- **7372**: Princess Claidie's coming-of-age ceremony is about to begin at the cathedral. I must remain at my post, but why don't you attend?
- **7373**: The king has requested your audience. He has selected you from the mountain of adventurers in San d'Oria. You should feel honored!
- **7374**: You have matured from a fledgling adventurer into a great asset to our kingdom. Do not let us down.
- **7375**: There is no need for modesty at a time like this. The fate of San d'Oria is at stake!
- **7376**: The authorities are saying that a dark cloud of despair is looming over the Kingdom. They are asking for the assistance of only the best adventurers.
- **7378**: Then proceed to the Audience Chamber in the Chateau d'Oraguille. Word has it that His Highness is not feeling that well. He may not be present for your briefing.
- **7379**: [Sir/Lady] <Player>! The Kingdom is counting on you. Who else, I ask you, is worthy for this task?
- **7380**: Ah, a time of great change is upon us. In a matter of days, the Rites of Succession will be held at the cathedral in Northern San d'Oria. It is then that the new heir to the throne will be decided.
- **7381**: Due to the unpredictable circumstances that took place at the princess's coming-of-age ceremony, this time, only authorized personnel will be allowed near the proceedings. However, the royal family has requested your services as a guard.
- **7382**: Even we Royal Knights have not been granted permission to attend... You must be held in high regard by His Highness. I envy you, [Sir/Ma'am].
- **7383**: When you have finished your preparations, proceed directly to the cathedral to report.
- **7384**: Off the record, which of the two princes do you think should be the next heir to the throne?
- **7385**: It is a difficult decision, but... [Trion is better suited./Pieuje is better suited.]
- **7386**: Hm... Being the oldest, he is the true heir, and many people believe he is the most suited to rule the Kingdom. However, Prince Pieuje's prudent ways may be what this country is lacking.
- **7387**: Many think as you do, [Sir/Lady] <Player>. However, what this country may need is someone who will not back down in the face of a threat--someone who will stand up for the pride of the Kingdom.
- **7388**: But our opinion is of no matter. Lightbringer will decide who is the most suited to stand over our fine nation. And do not speak a word of today's exchange, for the monarlais will have our heads if he finds out.
- **7389**: I realize that you must have many preparations before taking on such an important mission. Take your time and return here when you are ready.
- **8442**: You're one of my favorite recruits, and always have given you new missions. But I must look after many more adventurers than just yourself.
- **8443**: Henceforth, I must judge your worthiness for your next mission based on your rank points.
- **8444**: In order to earn rank points, participate in our conquests, and thereby get crystals to give to the Temple Knight.
- **8445**: If you want to know more about conquests, ask the Temple Knight who stands before any gate.
- **8453**: Accept mission? [Accept./No, thanks.]
- **9194**: Oh, you're back. Well, if you're so happy you defeated an Orc or two, you've a long way ahead of you!
- **9195**: For one so new, I'd be... Hmm?
- **9198**: Who are you, and why do you pry with such inquiries?
- **9200**: You've what!?
- **9201**: Very well. Listen closely. Fifteen years ago, Queen Leaute fell to a rare sickness. She left this world before we could save her.
- **9203**: Well, it's none of your concern at any rate. Even if she lived, an adventurer like you could never see her, much less the inside of Chateau d'Oraguille.
- **9206**: We are not told such things. Only the royal family would know.
- **9208**: Hey, wait!
- **9209**: What was the matter with that adventurer? He was awfully stubborn, wasn't he?
- **9210**: He seemed to know the late queen personally, but how could he not be aware of her death?
- **9211**: At any rate, your work is done. Excellent form, my friend!
- **9212**: What, you want the mission from rank one again?
- **9213**: I knew you'd return safely, and with the $3. Mission completed!
- **9214**: Have you ever set foot into King Ranperre's Tomb?
- **9215**: Two hundred years ago, the curtain fell on the golden age of San d'Oria. Civil war erupted over the Kingdom's hegemony.
- **9216**: King Ranperre was there to extinguish the conflict. When he died he was interred in a great tomb south of East Ronfaure.
- **9217**: But unknown hands have defiled his grave of late.
- **9218**: Visitors report missing gravestones and shadows twisting in the caverns. Ravaging a royal tomb is an unforgivable crime!
- **9219**: Your orders are to investigate the tomb and determine if there is any truth to what they say. Do you understand?
- **9220**: Accept the mission? [I accept./I do not accept.]
- **9221**: I implore you to make haste to King Ranperre's Tomb. You may find proof of grave-robbers there.
- **9222**: But wander too deeply within, and Goblins might find you. Tread boldly, my friend, but do not go in over your head!
- **9223**: Visitors report missing gravestones and shadows twisting in the caverns. Scour the tomb and determine if they speak the truth.
- **9224**: Make haste to King Ranperre's Tomb. You may find proof of grave-robbers there.
- **9225**: Have you really searched the tomb?
- **9226**: So, you got this from bats in King Ranperre's Tomb?
- **9227**: You see, this actually belonged to an Orc. What could Orcs want with the tomb?
- **9228**: At any rate, your mission is over. Speak not a word of this to another.
- **9229**: Ah, the recruit's back again? I'm sorry, but I've no time for you today.
- **9231**: Oh, who am I fooling? Of course I could use your help!
- **9232**: Have you not heard? Orcs came and kidnapped some children! We think they're keeping them at their lair in Ghelsba.
- **9233**: Why, not long ago came ill news from the cathedral. A boy training to be a friar went near Ghelsba and did not return. His name was Tedimout.
- **9234**: The Royal Knights would march to his rescue, but Prince Trion is away in the north, and cannot give the order.
- **9235**: Prince Pieuje is in earnest deliberations over whether to send Temple Knights instead. It seems his efforts are focused upon saving the children, but...
- **9236**: But no matter. We need knowledge of the enemy. You must visit the cathedral and ask what this boy looks like.
- **9237**: A boy training to be a friar went near Ghelsba and did not return. His name was Tedimout.
- **9238**: The Temple Knights may be mobilized soon. You must visit the cathedral and ask what this boy looks like.
- **9239**: Prince Trion just informed me of your handiwork. You've done beautifully.
- **9240**: Due to your exemplary contribution, <Player>, San d'Oria hereby recognizes you as an adventurer of rank two.
- **9241**: But do not let it go to your head. This certificate is valid only in San d'Oria.
- **9242**: Work hard and better things will come, my friend. Someday your name will be known to our allies as well.
- **9243**: Oh, and one more thing. The vicasque of the cathedral said he wants to thank you on behalf of the boy.
- **9245**: At any rate, you completed the mission well enough. Time for a reward!
- **9246**: I award you with rank points commensurate with your achievement.
- **9247**: Prince Trion ordered scouts from the Royal Knights to Davoi, while Prince Pieuje ordered scouts from the Temple Knights. It's like the right hand knows not what the left is doing!
- **9248**: Monarlais Halver is furious, but first he needs knowledge. You must find the scout from the Temple Knights, receive his scouting report, and return that report to the monarlais.
- **9249**: What? You were told to hand the $3 to Prince Pieuje personally?
- **9250**: Well, you should find His Highness in the cathedral.
- **9251**: You've come just at the right time! Prince Trion wants a word with you. It seems he heard of you when you received your $3.
- **9252**: Head to the chambers of Prince Trion inside Chateau d'Oraguille as soon as you're presentable!
- **9253**: Prince Trion has called for you. Head to his chamber inside Chateau d'Oraguille as soon as you're presentable!
- **9254**: I know not what Prince Trion wanted you to do, but see it through to the end! Understand?
- **9255**: Hello there. Now's not the time for missions; Chateau d'Oraguille has been visited by bandits!
- **9256**: You must make haste to Chateau d'Oraguille! Find Lady Curilla, general of the Temple Knights!
- **9257**: Bandits infiltrating Chateau d'Oraguille is unprecedented in history! Make haste and see Lady Curilla, general of the Temple Knights!

## Events

### Event 65535

#### Metadata

| Field        | Value   |
|--------------|---------|
| Entrypoint   | 0x0000  |
| Data Size    | 1 bytes |
| Instructions | 1       |

```
      00 01 02 03 04 05 06 07  08 09 0A 0B 0C 0D 0E 0F
      -- -- -- -- -- -- -- --  -- -- -- -- -- -- -- --
0000: 00                                                .               
```

#### Opcodes

```
  0: 0x0000 [0x00] END_REQSTACK()
```

### Event 503

#### Metadata

| Field        | Value    |
|--------------|----------|
| Entrypoint   | 0x0001   |
| Data Size    | 10 bytes |
| Instructions | 2        |

```
      00 01 02 03 04 05 06 07  08 09 0A 0B 0C 0D 0E 0F
      -- -- -- -- -- -- -- --  -- -- -- -- -- -- -- --
0000:    37 00 80 01 80 02 80  03 80 00                  7.........     
```

#### Opcodes

```
  0: 0x0001 [0x37] UPDATE_EVENT_POSITION_AND_DIR: x=-81.280*, z=-21.193*, y=-8.398*, direction=52.6°*
  1: 0x000A [0x00] END_REQSTACK()
```

### Event 65535.1

#### Metadata

| Field        | Value    |
|--------------|----------|
| Entrypoint   | 0x000B   |
| Data Size    | 63 bytes |
| Instructions | 14       |

```
      00 01 02 03 04 05 06 07  08 09 0A 0B 0C 0D 0E 0F
      -- -- -- -- -- -- -- --  -- -- -- -- -- -- -- --
0000:                                   32 04 80 1F 00             2....
0010: 05 80 06 80 07 80 1F 01  6F 1E 64 60 0E 01 6F 70  ........o.d`..op
0020: 66 08 80 F8 FF FF 7F F8  FF FF 7F 73 6C 30 30 53  f..........sl00S
0030: F8 FF FF 7F F8 FF FF 7F  73 6C 30 30 1F 00 09 80  ........sl00....
0040: 0A 80 07 80 1F 01 6F 22  01 00                    ......o"..      
```

#### Opcodes

```
  0: 0x000B [0x32] ExtData[1]->MainSpeed = 13* * 0.1
  1: 0x000E [0x1F] MOVE_ENTITY: EventEntity moves to X=-79.932*, Z=-22.529*, Y=-7.398*
  2: 0x0016 [0x1F] MOVE_ENTITY: Update entity position (mode=1)
  3: 0x0018 [0x6F] WAIT_FRAME_DELAY: Yield until WaitTime reaches zero
  4: 0x0019 [0x1E] EventEntity looks at Anxaberoute (ID: 17719396/0x010E6064) and starts talking
  5: 0x001E [0x6F] WAIT_FRAME_DELAY: Yield until WaitTime reaches zero
  6: 0x001F [0x70] WAIT_ENTITY_RENDER_FLAG: Wait while EventEntity->Render.Flags3 bit 2 is set (cancel turn if not)
  7: 0x0020 [0x66] LOAD_EXT_SCHEDULER_MAIN: Load scheduler "sl00" with entities [EventEntity, EventEntity], work=21*
  8: 0x002F [0x53] WAIT_SCHEDULER_TASK: Wait for scheduler "sl00" with entities [EventEntity, EventEntity]
  9: 0x003C [0x1F] MOVE_ENTITY: EventEntity moves to X=-68.320*, Z=-34.170*, Y=-7.398*
 10: 0x0044 [0x1F] MOVE_ENTITY: Update entity position (mode=1)
 11: 0x0046 [0x6F] WAIT_FRAME_DELAY: Yield until WaitTime reaches zero
 12: 0x0047 [0x22] ENTITY_HIDE_FLAG(enabled=0x01)
 13: 0x0049 [0x00] END_REQSTACK()
```

### Event 1011

#### Metadata

| Field        | Value    |
|--------------|----------|
| Entrypoint   | 0x004A   |
| Data Size    | 36 bytes |
| Instructions | 10       |

```
      00 01 02 03 04 05 06 07  08 09 0A 0B 0C 0D 0E 0F
      -- -- -- -- -- -- -- --  -- -- -- -- -- -- -- --
0040:                                1E F0 FF FF 7F 6F            .....o
0050: 70 66 0B 80 F8 FF FF 7F  F8 FF FF 7F 74 6C 6B 30  pf..........tlk0
0060: 1D 0C 80 23 5E 69 64 6C  30 1C 0D 80 21 00        ...#^idl0...!.  
```

#### Opcodes

```
  0: 0x004A [0x1E] EventEntity looks at LocalPlayer and starts talking
  1: 0x004F [0x6F] WAIT_FRAME_DELAY: Yield until WaitTime reaches zero
  2: 0x0050 [0x70] WAIT_ENTITY_RENDER_FLAG: Wait while EventEntity->Render.Flags3 bit 2 is set (cancel turn if not)
  3: 0x0051 [0x66] LOAD_EXT_SCHEDULER_MAIN: Load scheduler "tlk0" with entities [EventEntity, EventEntity], work=20*
  4: 0x0060 [0x1D] PRINT_EVENT_MESSAGE(message_id=7230*)
    → "Only citizens of San d'Oria may apply for missions here. Go see your country's consulate in Northern San d'Oria."
  5: 0x0063 [0x23] WAIT_FOR_DIALOG_INTERACTION
  6: 0x0064 [0x5E] EventEntity goes idle (kills current action) (animation: "idl0")
  7: 0x0069 [0x1C] WAIT(30* ticks)
  8: 0x006C [0x21] END_EVENT
  9: 0x006D [0x00] END_REQSTACK()
```

### Event 1000

#### Metadata

| Field        | Value     |
|--------------|-----------|
| Entrypoint   | 0x006E    |
| Data Size    | 573 bytes |
| Instructions | 82        |

```
      00 01 02 03 04 05 06 07  08 09 0A 0B 0C 0D 0E 0F
      -- -- -- -- -- -- -- --  -- -- -- -- -- -- -- --
0060:                                            42 46                BF
0070: 01 45 0E 80 F8 FF FF 7F  F8 FF FF 7F 66 64 6F 31  .E..........fdo1
0080: 0F 80 1C 10 80 38 11 80  29 64 F0 FF FF 7F 18 29  .....8..)d.....)
0090: 08 F0 FF FF 7F 39 45 12  80 F8 FF FF 7F F8 FF FF  .....9E.........
00A0: 7F 73 30 34 32 0F 80 45  0E 80 F8 FF FF 7F F8 FF  .s042..E........
00B0: FF 7F 66 64 69 31 0F 80  55 12 80 F8 FF FF 7F F8  ..fdi1..U.......
00C0: FF FF 7F 73 30 34 32 1D  13 80 23 5E 69 64 6C 30  ...s042...#^idl0
00D0: 24 14 80 0F 80 0F 80 25  02 00 10 0F 80 00 72 02  $......%......r.
00E0: 45 15 80 F0 FF FF 7F F0  FF FF 7F 73 30 31 34 0F  E..........s014.
00F0: 80 66 0B 80 F8 FF FF 7F  F8 FF FF 7F 74 68 6B 31  .f..........thk1
0100: 1D 16 80 23 1C 10 80 66  0B 80 F8 FF FF 7F F8 FF  ...#...f........
0110: FF 7F 74 68 6B 32 53 F8  FF FF 7F F8 FF FF 7F 74  ..thk2S........t
0120: 68 6B 32 1C 0D 80 66 0B  80 F8 FF FF 7F F8 FF FF  hk2...f.........
0130: 7F 74 6C 6B 30 45 15 80  F0 FF FF 7F F0 FF FF 7F  .tlk0E..........
0140: 73 30 31 36 0F 80 1D 17  80 23 1C 0D 80 1D 18 80  s016.....#......
0150: 23 5E 69 64 6C 30 24 19  80 0F 80 0F 80 25 02 00  #^idl0$......%..
0160: 10 0F 80 00 5F 02 66 0B  80 F8 FF FF 7F F8 FF FF  ...._.f.........
0170: 7F 74 6C 6B 30 45 12 80  F8 FF FF 7F F8 FF FF 7F  .tlk0E..........
0180: 73 30 39 30 0F 80 1D 1A  80 23 1C 0D 80 03 02 10  s090.....#......
0190: 1B 80 1D 1C 80 23 1C 0D  80 52 12 80 F8 FF FF 7F  .....#...R......
01A0: F8 FF FF 7F 73 30 39 30  02 09 10 1D 80 00 C4 01  ....s090........
01B0: 45 12 80 F8 FF FF 7F F8  FF FF 7F 73 30 39 31 0F  E..........s091.
01C0: 80 01 F1 01 02 09 10 1E  80 00 E0 01 45 12 80 F8  ............E...
01D0: FF FF 7F F8 FF FF 7F 73  30 39 31 0F 80 01 F1 01  .......s091.....
01E0: 45 15 80 F0 FF FF 7F F0  FF FF 7F 73 30 31 37 0F  E..........s017.
01F0: 80 1D 1F 80 23 5E 69 64  6C 30 24 20 80 0F 80 0F  ....#^idl0$ ....
0200: 80 25 02 00 10 0F 80 00  3E 02 66 0B 80 F8 FF FF  .%......>.f.....
0210: 7F F8 FF FF 7F 74 6C 6B  30 45 15 80 F0 FF FF 7F  .....tlk0E......
0220: F0 FF FF 7F 73 30 31 36  0F 80 1D 21 80 23 5E 69  ....s016...!.#^i
0230: 64 6C 30 1C 0D 80 03 01  10 0F 80 01 5C 02 02 00  dl0.........\...
0240: 10 22 80 00 4C 02 01 66  01 01 5C 02 02 00 10 23  ."..L..f..\....#
0250: 80 00 5C 02 03 01 10 24  80 01 5C 02 01 6F 02 02  ..\....$..\..o..
0260: 00 10 22 80 00 6F 02 03  01 10 24 80 01 6F 02 01  .."..o....$..o..
0270: 82 02 02 00 10 22 80 00  82 02 03 01 10 24 80 01  .....".......$..
0280: 82 02 45 0E 80 F8 FF FF  7F F8 FF FF 7F 66 64 6F  ..E..........fdo
0290: 31 0F 80 1C 10 80 46 00  45 0E 80 F8 FF FF 7F F8  1.....F.E.......
02A0: FF FF 7F 66 64 69 31 0F  80 21 00                 ...fdi1..!.     
```

#### Opcodes

```
  0: 0x006E [0x42] SET_CLI_EVENT_CANCEL_DATA()
  1: 0x006F [0x46] CAMERA_CONTROL: Disable user control
  2: 0x0071 [0x45] LOAD_SCHEDULED_TASK: Load scheduler "fdo1" with entities [EventEntity, EventEntity], work=[200*, 0*]
  3: 0x0082 [0x1C] WAIT(60* ticks)
  4: 0x0085 [0x38] SET_CLIENT_EVENT_MODE(mode=3*)
  5: 0x0088 [0x29] REQ_SET_WAIT(priority=0x64, entity_id=LocalPlayer, tag_num=0x18)
  6: 0x008F [0x29] REQ_SET_WAIT(priority=0x08, entity_id=LocalPlayer, tag_num=0x39)
  7: 0x0096 [0x45] LOAD_SCHEDULED_TASK: Load scheduler "s042" with entities [EventEntity, EventEntity], work=[90*, 0*]
  8: 0x00A7 [0x45] LOAD_SCHEDULED_TASK: Load scheduler "fdi1" with entities [EventEntity, EventEntity], work=[200*, 0*]
  9: 0x00B8 [0x55] WAIT_LOAD_SCHEDULER: Wait for scheduler "s042" with entities [EventEntity, EventEntity], work=90*
 10: 0x00C7 [0x1D] PRINT_EVENT_MESSAGE(message_id=7229*)
    → "A recruit? What do you want with this gatehouse?"
 11: 0x00CA [0x23] WAIT_FOR_DIALOG_INTERACTION
 12: 0x00CB [0x5E] EventEntity goes idle (kills current action) (animation: "idl0")
 13: 0x00D0 [0x24] CREATE_DIALOG(message_id=7236*, default_option=0*, option_flags=0*)
    → "Your business? [A mission, please./Nothing.]"
 14: 0x00D7 [0x25] WAIT_DIALOG_SELECT()
 15: 0x00D8 [0x02] IF !(Work_Zone[0] == 0*) GOTO 0x0272
 16: 0x00E0 [0x45] LOAD_SCHEDULED_TASK: Load scheduler "s014" with entities [LocalPlayer, LocalPlayer], work=[130*, 0*]
 17: 0x00F1 [0x66] LOAD_EXT_SCHEDULER_MAIN: Load scheduler "thk1" with entities [EventEntity, EventEntity], work=20*
 18: 0x0100 [0x1D] PRINT_EVENT_MESSAGE(message_id=7237*)
    → "Hmm...not much work for those wet behind the ears, but..."
 19: 0x0103 [0x23] WAIT_FOR_DIALOG_INTERACTION
 20: 0x0104 [0x1C] WAIT(60* ticks)
 21: 0x0107 [0x66] LOAD_EXT_SCHEDULER_MAIN: Load scheduler "thk2" with entities [EventEntity, EventEntity], work=20*
 22: 0x0116 [0x53] WAIT_SCHEDULER_TASK: Wait for scheduler "thk2" with entities [EventEntity, EventEntity]
 23: 0x0123 [0x1C] WAIT(30* ticks)
 24: 0x0126 [0x66] LOAD_EXT_SCHEDULER_MAIN: Load scheduler "tlk0" with entities [EventEntity, EventEntity], work=20*
 25: 0x0135 [0x45] LOAD_SCHEDULED_TASK: Load scheduler "s016" with entities [LocalPlayer, LocalPlayer], work=[130*, 0*]
 26: 0x0146 [0x1D] PRINT_EVENT_MESSAGE(message_id=7238*)
    → "How about slaying Orcish scouts? Only the yellowest of yearlings would run from that, and we've no work for cowards here."
 27: 0x0149 [0x23] WAIT_FOR_DIALOG_INTERACTION
 28: 0x014A [0x1C] WAIT(30* ticks)
 29: 0x014D [0x1D] PRINT_EVENT_MESSAGE(message_id=7239*)
    → "If you're to take the mission, I'll be happy to explain."
 30: 0x0150 [0x23] WAIT_FOR_DIALOG_INTERACTION
 31: 0x0151 [0x5E] EventEntity goes idle (kills current action) (animation: "idl0")
 32: 0x0156 [0x24] CREATE_DIALOG(message_id=7240*, default_option=0*, option_flags=0*)
    → "Interested? [Tell me more./Never mind.]"
 33: 0x015D [0x25] WAIT_DIALOG_SELECT()
 34: 0x015E [0x02] IF !(Work_Zone[0] == 0*) GOTO 0x025F
 35: 0x0166 [0x66] LOAD_EXT_SCHEDULER_MAIN: Load scheduler "tlk0" with entities [EventEntity, EventEntity], work=20*
 36: 0x0175 [0x45] LOAD_SCHEDULED_TASK: Load scheduler "s090" with entities [EventEntity, EventEntity], work=[90*, 0*]
 37: 0x0186 [0x1D] PRINT_EVENT_MESSAGE(message_id=7241*)
    → "Here's your mission. Orcish scouts roam outside; kill one and bring me his axe as proof."
 38: 0x0189 [0x23] WAIT_FOR_DIALOG_INTERACTION
 39: 0x018A [0x1C] WAIT(30* ticks)
 40: 0x018D [0x03] Work_Zone[2] = 16656*
 41: 0x0192 [0x1D] PRINT_EVENT_MESSAGE(message_id=7242*)
    → "You'll have to bring me $0. No other kind will do. Understand?"
 42: 0x0195 [0x23] WAIT_FOR_DIALOG_INTERACTION
 43: 0x0196 [0x1C] WAIT(30* ticks)
 44: 0x0199 [0x52] END_LOAD_SCHEDULER: End scheduler "s090" with entities [EventEntity, EventEntity], work=90*
 45: 0x01A8 [0x02] IF !(Work_Zone[9] == 5*) GOTO 0x01C4
 46: 0x01B0 [0x45] LOAD_SCHEDULED_TASK: Load scheduler "s091" with entities [EventEntity, EventEntity], work=[90*, 0*]
 47: 0x01C1 [0x01] GOTO 0x01F1
 48: 0x01C4 [0x02] IF !(Work_Zone[9] == 6*) GOTO 0x01E0
 49: 0x01CC [0x45] LOAD_SCHEDULED_TASK: Load scheduler "s091" with entities [EventEntity, EventEntity], work=[90*, 0*]
 50: 0x01DD [0x01] GOTO 0x01F1
 51: 0x01E0 [0x45] LOAD_SCHEDULED_TASK: Load scheduler "s017" with entities [LocalPlayer, LocalPlayer], work=[130*, 0*]

SUBROUTINE_01F1:
 52: 0x01F1 [0x1D] PRINT_EVENT_MESSAGE(message_id=7243*)
    → "That is all. You'll take the mission then?"
 53: 0x01F4 [0x23] WAIT_FOR_DIALOG_INTERACTION
 54: 0x01F5 [0x5E] EventEntity goes idle (kills current action) (animation: "idl0")
 55: 0x01FA [0x24] CREATE_DIALOG(message_id=7244*, default_option=0*, option_flags=0*)
    → "Do you accept the mission? [I accept./Could you explain again?/No, thank you.]"
 56: 0x0201 [0x25] WAIT_DIALOG_SELECT()
 57: 0x0202 [0x02] IF !(Work_Zone[0] == 0*) GOTO 0x023E
 58: 0x020A [0x66] LOAD_EXT_SCHEDULER_MAIN: Load scheduler "tlk0" with entities [EventEntity, EventEntity], work=20*
 59: 0x0219 [0x45] LOAD_SCHEDULED_TASK: Load scheduler "s016" with entities [LocalPlayer, LocalPlayer], work=[130*, 0*]
 60: 0x022A [0x1D] PRINT_EVENT_MESSAGE(message_id=7245*)
    → "Bring me one of those axes, and your mission will be a success. No running away now; we've a proud country to defend!"
 61: 0x022D [0x23] WAIT_FOR_DIALOG_INTERACTION
 62: 0x022E [0x5E] EventEntity goes idle (kills current action) (animation: "idl0")
 63: 0x0233 [0x1C] WAIT(30* ticks)
 64: 0x0236 [0x03] Work_Zone[1] = 0*
 65: 0x023B [0x01] GOTO 0x025C
 66: 0x023E [0x02] IF !(Work_Zone[0] == 1*) GOTO 0x024C
 67: 0x0246 [0x01] GOTO 0x0166

SUBROUTINE_025C:
 68: 0x025C [0x01] GOTO 0x026F
 69: 0x025F [0x02] IF !(Work_Zone[0] == 1*) GOTO 0x026F
 70: 0x0267 [0x03] Work_Zone[1] = 1073741824*
 71: 0x026C [0x01] GOTO 0x026F

SUBROUTINE_026F:
 72: 0x026F [0x01] GOTO 0x0282
 73: 0x0272 [0x02] IF !(Work_Zone[0] == 1*) GOTO 0x0282
 74: 0x027A [0x03] Work_Zone[1] = 1073741824*
 75: 0x027F [0x01] GOTO 0x0282

SUBROUTINE_0282:
 76: 0x0282 [0x45] LOAD_SCHEDULED_TASK: Load scheduler "fdo1" with entities [EventEntity, EventEntity], work=[200*, 0*]
 77: 0x0293 [0x1C] WAIT(60* ticks)
 78: 0x0296 [0x46] CAMERA_CONTROL: Restore default settings
 79: 0x0298 [0x45] LOAD_SCHEDULED_TASK: Load scheduler "fdi1" with entities [EventEntity, EventEntity], work=[200*, 0*]
 80: 0x02A9 [0x21] END_EVENT
 81: 0x02AA [0x00] END_REQSTACK()
```

#### Data or dead code:

```
# Dead code (unreachable instructions):
     0x0249 [0x01] GOTO 0x025C
```

### Event 1002

#### Metadata

| Field        | Value     |
|--------------|-----------|
| Entrypoint   | 0x02AB    |
| Data Size    | 220 bytes |
| Instructions | 32        |

```
      00 01 02 03 04 05 06 07  08 09 0A 0B 0C 0D 0E 0F
      -- -- -- -- -- -- -- --  -- -- -- -- -- -- -- --
02A0:                                   42 46 01 45 0E             BF.E.
02B0: 80 F8 FF FF 7F F8 FF FF  7F 66 64 6F 31 0F 80 1C  .........fdo1...
02C0: 10 80 38 11 80 29 64 F0  FF FF 7F 18 45 15 80 F0  ..8..)d.....E...
02D0: FF FF 7F F0 FF FF 7F 73  30 31 36 0F 80 45 0E 80  .......s016..E..
02E0: F8 FF FF 7F F8 FF FF 7F  66 64 69 31 0F 80 02 06  ........fdi1....
02F0: 10 22 80 00 16 03 66 0B  80 F8 FF FF 7F F8 FF FF  ."....f.........
0300: 7F 74 6C 6B 30 03 02 10  1B 80 1D 25 80 23 5E 69  .tlk0......%.#^i
0310: 64 6C 30 01 4B 03 66 0B  80 F8 FF FF 7F F8 FF FF  dl0.K.f.........
0320: 7F 74 6C 6B 30 1D 26 80  23 1C 0D 80 45 15 80 F0  .tlk0.&.#...E...
0330: FF FF 7F F0 FF FF 7F 73  30 31 34 0F 80 03 02 10  .......s014.....
0340: 1B 80 5E 69 64 6C 30 1D  27 80 23 45 0E 80 F8 FF  ..^idl0.'.#E....
0350: FF 7F F8 FF FF 7F 66 64  6F 31 0F 80 1C 10 80 46  ......fdo1.....F
0360: 00 45 0E 80 F8 FF FF 7F  F8 FF FF 7F 66 64 69 31  .E..........fdi1
0370: 0F 80 45 28 80 F0 FF FF  7F F0 FF FF 7F 71 73 74  ..E(.........qst
0380: 63 0F 80 20 00 21 00                              c.. .!.         
```

#### Opcodes

```
  0: 0x02AB [0x42] SET_CLI_EVENT_CANCEL_DATA()
  1: 0x02AC [0x46] CAMERA_CONTROL: Disable user control
  2: 0x02AE [0x45] LOAD_SCHEDULED_TASK: Load scheduler "fdo1" with entities [EventEntity, EventEntity], work=[200*, 0*]
  3: 0x02BF [0x1C] WAIT(60* ticks)
  4: 0x02C2 [0x38] SET_CLIENT_EVENT_MODE(mode=3*)
  5: 0x02C5 [0x29] REQ_SET_WAIT(priority=0x64, entity_id=LocalPlayer, tag_num=0x18)
  6: 0x02CC [0x45] LOAD_SCHEDULED_TASK: Load scheduler "s016" with entities [LocalPlayer, LocalPlayer], work=[130*, 0*]
  7: 0x02DD [0x45] LOAD_SCHEDULED_TASK: Load scheduler "fdi1" with entities [EventEntity, EventEntity], work=[200*, 0*]
  8: 0x02EE [0x02] IF !(Work_Zone[6] == 1*) GOTO 0x0316
  9: 0x02F6 [0x66] LOAD_EXT_SCHEDULER_MAIN: Load scheduler "tlk0" with entities [EventEntity, EventEntity], work=20*
 10: 0x0305 [0x03] Work_Zone[2] = 16656*
 11: 0x030A [0x1D] PRINT_EVENT_MESSAGE(message_id=9213*)
    → "I knew you'd return safely, and with the $3. Mission completed!"
 12: 0x030D [0x23] WAIT_FOR_DIALOG_INTERACTION
 13: 0x030E [0x5E] EventEntity goes idle (kills current action) (animation: "idl0")
 14: 0x0313 [0x01] GOTO 0x034B
 15: 0x0316 [0x66] LOAD_EXT_SCHEDULER_MAIN: Load scheduler "tlk0" with entities [EventEntity, EventEntity], work=20*
 16: 0x0325 [0x1D] PRINT_EVENT_MESSAGE(message_id=7246*)
    → "Oh, you're back. Well, if you're so happy you defeated an Orc or two, you've a long way ahead of you!"
 17: 0x0328 [0x23] WAIT_FOR_DIALOG_INTERACTION
 18: 0x0329 [0x1C] WAIT(30* ticks)
 19: 0x032C [0x45] LOAD_SCHEDULED_TASK: Load scheduler "s014" with entities [LocalPlayer, LocalPlayer], work=[130*, 0*]
 20: 0x033D [0x03] Work_Zone[2] = 16656*
 21: 0x0342 [0x5E] EventEntity goes idle (kills current action) (animation: "idl0")
 22: 0x0347 [0x1D] PRINT_EVENT_MESSAGE(message_id=7247*)
    → "That's another $0 for the armory, then. Mission complete! Not bad for a new recruit."
 23: 0x034A [0x23] WAIT_FOR_DIALOG_INTERACTION

SUBROUTINE_034B:
 24: 0x034B [0x45] LOAD_SCHEDULED_TASK: Load scheduler "fdo1" with entities [EventEntity, EventEntity], work=[200*, 0*]
 25: 0x035C [0x1C] WAIT(60* ticks)
 26: 0x035F [0x46] CAMERA_CONTROL: Restore default settings
 27: 0x0361 [0x45] LOAD_SCHEDULED_TASK: Load scheduler "fdi1" with entities [EventEntity, EventEntity], work=[200*, 0*]
 28: 0x0372 [0x45] LOAD_SCHEDULED_TASK: Load scheduler "qstc" with entities [LocalPlayer, LocalPlayer], work=[201*, 0*]
 29: 0x0383 [0x20] SET_CLI_EVENT_UC_FLAG: Unlock player control
 30: 0x0385 [0x21] END_EVENT
 31: 0x0386 [0x00] END_REQSTACK()
```

### Event 1008

#### Metadata

| Field        | Value     |
|--------------|-----------|
| Entrypoint   | 0x0387    |
| Data Size    | 191 bytes |
| Instructions | 25        |

```
      00 01 02 03 04 05 06 07  08 09 0A 0B 0C 0D 0E 0F
      -- -- -- -- -- -- -- --  -- -- -- -- -- -- -- --
0380:                      42  20 01 46 01 45 0E 80 F8         B .F.E...
0390: FF FF 7F F8 FF FF 7F 66  64 6F 31 0F 80 1C 10 80  .......fdo1.....
03A0: 38 11 80 29 64 F0 FF FF  7F 18 29 08 F0 FF FF 7F  8..)d.....).....
03B0: 39 45 15 80 F0 FF FF 7F  F0 FF FF 7F 73 30 31 37  9E..........s017
03C0: 0F 80 45 0E 80 F8 FF FF  7F F8 FF FF 7F 66 64 69  ..E..........fdi
03D0: 31 0F 80 66 0B 80 F8 FF  FF 7F F8 FF FF 7F 74 6C  1..f..........tl
03E0: 6B 30 1D 29 80 23 5E 69  64 6C 30 1C 0D 80 45 15  k0.).#^idl0...E.
03F0: 80 F0 FF FF 7F F0 FF FF  7F 73 30 31 34 0F 80 66  .........s014..f
0400: 0B 80 F8 FF FF 7F F8 FF  FF 7F 70 61 73 30 53 F8  ..........pas0S.
0410: FF FF 7F F8 FF FF 7F 70  61 73 30 45 0E 80 F8 FF  .......pas0E....
0420: FF 7F F8 FF FF 7F 66 64  6F 31 0F 80 1C 10 80 46  ......fdo1.....F
0430: 00 45 0E 80 F8 FF FF 7F  F8 FF FF 7F 66 64 69 31  .E..........fdi1
0440: 0F 80 20 00 21 00                                 .. .!.          
```

#### Opcodes

```
  0: 0x0387 [0x42] SET_CLI_EVENT_CANCEL_DATA()
  1: 0x0388 [0x20] SET_CLI_EVENT_UC_FLAG: Lock player control
  2: 0x038A [0x46] CAMERA_CONTROL: Disable user control
  3: 0x038C [0x45] LOAD_SCHEDULED_TASK: Load scheduler "fdo1" with entities [EventEntity, EventEntity], work=[200*, 0*]
  4: 0x039D [0x1C] WAIT(60* ticks)
  5: 0x03A0 [0x38] SET_CLIENT_EVENT_MODE(mode=3*)
  6: 0x03A3 [0x29] REQ_SET_WAIT(priority=0x64, entity_id=LocalPlayer, tag_num=0x18)
  7: 0x03AA [0x29] REQ_SET_WAIT(priority=0x08, entity_id=LocalPlayer, tag_num=0x39)
  8: 0x03B1 [0x45] LOAD_SCHEDULED_TASK: Load scheduler "s017" with entities [LocalPlayer, LocalPlayer], work=[130*, 0*]
  9: 0x03C2 [0x45] LOAD_SCHEDULED_TASK: Load scheduler "fdi1" with entities [EventEntity, EventEntity], work=[200*, 0*]
 10: 0x03D3 [0x66] LOAD_EXT_SCHEDULER_MAIN: Load scheduler "tlk0" with entities [EventEntity, EventEntity], work=20*
 11: 0x03E2 [0x1D] PRINT_EVENT_MESSAGE(message_id=7248*)
    → "What? I don't want this!"
 12: 0x03E5 [0x23] WAIT_FOR_DIALOG_INTERACTION
 13: 0x03E6 [0x5E] EventEntity goes idle (kills current action) (animation: "idl0")
 14: 0x03EB [0x1C] WAIT(30* ticks)
 15: 0x03EE [0x45] LOAD_SCHEDULED_TASK: Load scheduler "s014" with entities [LocalPlayer, LocalPlayer], work=[130*, 0*]
 16: 0x03FF [0x66] LOAD_EXT_SCHEDULER_MAIN: Load scheduler "pas0" with entities [EventEntity, EventEntity], work=20*
 17: 0x040E [0x53] WAIT_SCHEDULER_TASK: Wait for scheduler "pas0" with entities [EventEntity, EventEntity]
 18: 0x041B [0x45] LOAD_SCHEDULED_TASK: Load scheduler "fdo1" with entities [EventEntity, EventEntity], work=[200*, 0*]
 19: 0x042C [0x1C] WAIT(60* ticks)
 20: 0x042F [0x46] CAMERA_CONTROL: Restore default settings
 21: 0x0431 [0x45] LOAD_SCHEDULED_TASK: Load scheduler "fdi1" with entities [EventEntity, EventEntity], work=[200*, 0*]
 22: 0x0442 [0x20] SET_CLI_EVENT_UC_FLAG: Unlock player control
 23: 0x0444 [0x21] END_EVENT
 24: 0x0445 [0x00] END_REQSTACK()
```

### Event 1010

#### Metadata

| Field        | Value     |
|--------------|-----------|
| Entrypoint   | 0x0446    |
| Data Size    | 210 bytes |
| Instructions | 28        |

```
      00 01 02 03 04 05 06 07  08 09 0A 0B 0C 0D 0E 0F
      -- -- -- -- -- -- -- --  -- -- -- -- -- -- -- --
0440:                   42 20  01 46 01 45 0E 80 F8 FF        B .F.E....
0450: FF 7F F8 FF FF 7F 66 64  6F 31 0F 80 1C 10 80 38  ......fdo1.....8
0460: 11 80 29 64 F0 FF FF 7F  18 29 08 F0 FF FF 7F 39  ..)d.....).....9
0470: 45 15 80 F0 FF FF 7F F0  FF FF 7F 73 30 31 34 0F  E..........s014.
0480: 80 45 0E 80 F8 FF FF 7F  F8 FF FF 7F 66 64 69 31  .E..........fdi1
0490: 0F 80 66 0B 80 F8 FF FF  7F F8 FF FF 7F 74 68 6B  ..f..........thk
04A0: 31 1D 2A 80 23 66 0B 80  F8 FF FF 7F F8 FF FF 7F  1.*.#f..........
04B0: 74 68 6B 32 53 F8 FF FF  7F F8 FF FF 7F 74 68 6B  thk2S........thk
04C0: 32 1C 0D 80 45 15 80 F0  FF FF 7F F0 FF FF 7F 73  2...E..........s
04D0: 30 31 37 0F 80 66 0B 80  F8 FF FF 7F F8 FF FF 7F  017..f..........
04E0: 74 6C 6B 30 1D 2B 80 23  5E 69 64 6C 30 45 0E 80  tlk0.+.#^idl0E..
04F0: F8 FF FF 7F F8 FF FF 7F  66 64 6F 31 0F 80 1C 10  ........fdo1....
0500: 80 46 00 45 0E 80 F8 FF  FF 7F F8 FF FF 7F 66 64  .F.E..........fd
0510: 69 31 0F 80 20 00 21 00                           i1.. .!.        
```

#### Opcodes

```
  0: 0x0446 [0x42] SET_CLI_EVENT_CANCEL_DATA()
  1: 0x0447 [0x20] SET_CLI_EVENT_UC_FLAG: Lock player control
  2: 0x0449 [0x46] CAMERA_CONTROL: Disable user control
  3: 0x044B [0x45] LOAD_SCHEDULED_TASK: Load scheduler "fdo1" with entities [EventEntity, EventEntity], work=[200*, 0*]
  4: 0x045C [0x1C] WAIT(60* ticks)
  5: 0x045F [0x38] SET_CLIENT_EVENT_MODE(mode=3*)
  6: 0x0462 [0x29] REQ_SET_WAIT(priority=0x64, entity_id=LocalPlayer, tag_num=0x18)
  7: 0x0469 [0x29] REQ_SET_WAIT(priority=0x08, entity_id=LocalPlayer, tag_num=0x39)
  8: 0x0470 [0x45] LOAD_SCHEDULED_TASK: Load scheduler "s014" with entities [LocalPlayer, LocalPlayer], work=[130*, 0*]
  9: 0x0481 [0x45] LOAD_SCHEDULED_TASK: Load scheduler "fdi1" with entities [EventEntity, EventEntity], work=[200*, 0*]
 10: 0x0492 [0x66] LOAD_EXT_SCHEDULER_MAIN: Load scheduler "thk1" with entities [EventEntity, EventEntity], work=20*
 11: 0x04A1 [0x1D] PRINT_EVENT_MESSAGE(message_id=7249*)
    → "Are you really a new recruit!?"
 12: 0x04A4 [0x23] WAIT_FOR_DIALOG_INTERACTION
 13: 0x04A5 [0x66] LOAD_EXT_SCHEDULER_MAIN: Load scheduler "thk2" with entities [EventEntity, EventEntity], work=20*
 14: 0x04B4 [0x53] WAIT_SCHEDULER_TASK: Wait for scheduler "thk2" with entities [EventEntity, EventEntity]
 15: 0x04C1 [0x1C] WAIT(30* ticks)
 16: 0x04C4 [0x45] LOAD_SCHEDULED_TASK: Load scheduler "s017" with entities [LocalPlayer, LocalPlayer], work=[130*, 0*]
 17: 0x04D5 [0x66] LOAD_EXT_SCHEDULER_MAIN: Load scheduler "tlk0" with entities [EventEntity, EventEntity], work=20*
 18: 0x04E4 [0x1D] PRINT_EVENT_MESSAGE(message_id=7250*)
    → "Listen, before you bring me something, you must first accept the mission! That is how things work around here!"
 19: 0x04E7 [0x23] WAIT_FOR_DIALOG_INTERACTION
 20: 0x04E8 [0x5E] EventEntity goes idle (kills current action) (animation: "idl0")
 21: 0x04ED [0x45] LOAD_SCHEDULED_TASK: Load scheduler "fdo1" with entities [EventEntity, EventEntity], work=[200*, 0*]
 22: 0x04FE [0x1C] WAIT(60* ticks)
 23: 0x0501 [0x46] CAMERA_CONTROL: Restore default settings
 24: 0x0503 [0x45] LOAD_SCHEDULED_TASK: Load scheduler "fdi1" with entities [EventEntity, EventEntity], work=[200*, 0*]
 25: 0x0514 [0x20] SET_CLI_EVENT_UC_FLAG: Unlock player control
 26: 0x0516 [0x21] END_EVENT
 27: 0x0517 [0x00] END_REQSTACK()
```

### Event 1009

#### Metadata

| Field        | Value     |
|--------------|-----------|
| Entrypoint   | 0x0518    |
| Data Size    | 657 bytes |
| Instructions | 26        |

```
      00 01 02 03 04 05 06 07  08 09 0A 0B 0C 0D 0E 0F
      -- -- -- -- -- -- -- --  -- -- -- -- -- -- -- --
0510:                          42 46 01 45 0E 80 F8 FF          BF.E....
0520: FF 7F F8 FF FF 7F 66 64  6F 31 0F 80 1C 10 80 38  ......fdo1.....8
0530: 11 80 29 64 F0 FF FF 7F  18 29 08 F0 FF FF 7F 39  ..)d.....).....9
0540: 45 15 80 F0 FF FF 7F F0  FF FF 7F 73 30 31 38 0F  E..........s018.
0550: 80 45 0E 80 F8 FF FF 7F  F8 FF FF 7F 66 64 69 31  .E..........fdi1
0560: 0F 80 24 2C 80 2D 80 02  10 25 02 00 10 0F 80 00  ..$,.-...%......
0570: 78 05 01 CD 07 01 5B 07  02 00 10 22 80 00 93 05  x.....[...."....
0580: 3E 07 10 1D 80 8D 05 01  F7 07 01 90 05 01 74 09  >.............t.
0590: 01 5B 07 02 00 10 23 80  00 AE 05 3E 07 10 2E 80  .[....#....>....
05A0: A8 05 01 57 0A 01 AB 05  01 E9 0C 01 5B 07 02 00  ...W........[...
05B0: 10 11 80 00 BC 05 01 CC  0F 01 5B 07 02 00 10 2F  ..........[..../
05C0: 80 00 CA 05 01 F6 11 01  5B 07 02 00 10 1D 80 00  ........[.......
05D0: D8 05 01 64 14 01 5B 07  02 00 10 1E 80 00 E8 05  ...d..[.........
05E0: 03 01 10 1E 80 01 5B 07  02 00 10 30 80 00 F8 05  ......[....0....
05F0: 03 01 10 30 80 01 5B 07  02 00 10 2E 80 00 08 06  ...0..[.........
0600: 03 01 10 2E 80 01 5B 07  02 00 10 31 80 00 18 06  ......[....1....
0610: 03 01 10 31 80 01 5B 07  02 00 10 32 80 00 33 06  ...1..[....2..3.
0620: 3E 07 10 33 80 2D 06 01  79 16 01 30 06 01 0F 18  >..3.-..y..0....
0630: 01 5B 07 02 00 10 34 80  00 41 06 01 C6 18 01 5B  .[....4..A.....[
0640: 07 02 00 10 35 80 00 4F  06 01 5E 1B 01 5B 07 02  ....5..O..^..[..
0650: 00 10 04 80 00 5F 06 03  01 10 04 80 01 5B 07 02  ....._.......[..
0660: 00 10 36 80 00 6D 06 01  3B 1C 01 5B 07 02 00 10  ..6..m..;..[....
0670: 33 80 00 7B 06 01 DD 1C  01 5B 07 02 00 10 37 80  3..{.....[....7.
0680: 00 89 06 01 A4 1E 01 5B  07 02 00 10 38 80 00 97  .......[....8...
0690: 06 01 20 1F 01 5B 07 02  00 10 39 80 00 A5 06 01  .. ..[....9.....
06A0: D7 1F 01 5B 07 02 00 10  3A 80 00 B3 06 01 39 20  ...[....:.....9 
06B0: 01 5B 07 02 00 10 0B 80  00 C1 06 01 C7 20 01 5B  .[........... .[
06C0: 07 02 00 10 08 80 00 CF  06 01 26 21 01 5B 07 02  ..........&!.[..
06D0: 00 10 3B 80 00 DD 06 01  6E 21 01 5B 07 02 00 10  ..;.....n!.[....
06E0: 3C 80 00 EB 06 01 B6 21  01 5B 07 02 00 10 3D 80  <......!.[....=.
06F0: 00 FB 06 03 01 10 3D 80  01 5B 07 02 00 10 3E 80  ......=..[....>.
0700: 00 0B 07 03 01 10 3E 80  01 5B 07 02 00 10 3F 80  ......>..[....?.
0710: 00 1B 07 03 01 10 3F 80  01 5B 07 02 00 10 40 80  ......?..[....@.
0720: 00 2B 07 03 01 10 40 80  01 5B 07 02 00 10 41 80  .+....@..[....A.
0730: 00 3B 07 03 01 10 41 80  01 5B 07 02 00 10 42 80  .;....A..[....B.
0740: 00 4B 07 03 01 10 42 80  01 5B 07 02 00 10 0D 80  .K....B..[......
0750: 00 5B 07 03 01 10 0D 80  01 5B 07 03 01 10 00 10  .[.......[......
0760: 02 01 10 2D 80 01 80 07  24 43 80 0F 80 0F 80 25  ...-....$C.....%
0770: 02 00 10 22 80 00 80 07  03 01 10 2D 80 01 80 07  ...".......-....
0780: 45 0E 80 F8 FF FF 7F F8  FF FF 7F 66 64 6F 31 0F  E..........fdo1.
0790: 80 1C 10 80 46 00 45 0E  80 F8 FF FF 7F F8 FF FF  ....F.E.........
07A0: 7F 66 64 69 31 0F 80 21  00                       .fdi1..!.       
```

#### Opcodes

```
  0: 0x0518 [0x42] SET_CLI_EVENT_CANCEL_DATA()
  1: 0x0519 [0x46] CAMERA_CONTROL: Disable user control
  2: 0x051B [0x45] LOAD_SCHEDULED_TASK: Load scheduler "fdo1" with entities [EventEntity, EventEntity], work=[200*, 0*]
  3: 0x052C [0x1C] WAIT(60* ticks)
  4: 0x052F [0x38] SET_CLIENT_EVENT_MODE(mode=3*)
  5: 0x0532 [0x29] REQ_SET_WAIT(priority=0x64, entity_id=LocalPlayer, tag_num=0x18)
  6: 0x0539 [0x29] REQ_SET_WAIT(priority=0x08, entity_id=LocalPlayer, tag_num=0x39)
  7: 0x0540 [0x45] LOAD_SCHEDULED_TASK: Load scheduler "s018" with entities [LocalPlayer, LocalPlayer], work=[130*, 0*]
  8: 0x0551 [0x45] LOAD_SCHEDULED_TASK: Load scheduler "fdi1" with entities [EventEntity, EventEntity], work=[200*, 0*]
  9: 0x0562 [0x24] CREATE_DIALOG(message_id=7232*, default_option=31*, option_flags=Work_Zone[2])
    → "Which mission will you undertake? [Smash the Orcish Scouts./Bat Hunt./Save the Children./The Rescue Drill./The Davoi Report./Journey Abroad./Journey to Bastok./Journey to Windurst./Journey to Bastok./Journey to Windurst./Infiltrate Davoi./The Crystal Spring./Appointment to Jeuno./Magicite./The Ruins of Fei'Yin./The Shadow Lord./Leaute's Last Wishes./Ranperre's Final Rest./Prestige of the Papsque./The Secret Weapon./Coming of Age./Lightbringer./Breaking Barriers./The Heir to the Light./10-1./10-2./$3_$3~[26./$3_$3~[27./$3_$3~[28./$3_$3~[29./$3_$3~[30./None.]"
 10: 0x0569 [0x25] WAIT_DIALOG_SELECT()
 11: 0x056A [0x02] IF !(Work_Zone[0] == 0*) GOTO 0x0578
 12: 0x0572 [0x01] GOTO 0x07CD

SUBROUTINE_075B:
 13: 0x075B [0x03] Work_Zone[1] = Work_Zone[0]
 14: 0x0760 [0x02] IF !(Work_Zone[1] == 31*) GOTO 0x0780
 15: 0x0768 [0x24] CREATE_DIALOG(message_id=7233*, default_option=0*, option_flags=0*)
    → "Accept this mission? [Yes./No.]"
 16: 0x076F [0x25] WAIT_DIALOG_SELECT()
 17: 0x0770 [0x02] IF !(Work_Zone[0] == 1*) GOTO 0x0780
 18: 0x0778 [0x03] Work_Zone[1] = 31*
 19: 0x077D [0x01] GOTO 0x0780

SUBROUTINE_0780:
 20: 0x0780 [0x45] LOAD_SCHEDULED_TASK: Load scheduler "fdo1" with entities [EventEntity, EventEntity], work=[200*, 0*]
 21: 0x0791 [0x1C] WAIT(60* ticks)
 22: 0x0794 [0x46] CAMERA_CONTROL: Restore default settings
 23: 0x0796 [0x45] LOAD_SCHEDULED_TASK: Load scheduler "fdi1" with entities [EventEntity, EventEntity], work=[200*, 0*]
 24: 0x07A7 [0x21] END_EVENT
 25: 0x07A8 [0x00] END_REQSTACK()
```

#### Data or dead code:

```
# Dead code (unreachable instructions):
     0x0575 [0x01] GOTO 0x075B
     0x058A [0x01] GOTO 0x0590
     0x0590 [0x01] GOTO 0x075B
     0x05A5 [0x01] GOTO 0x05AB
     0x05AB [0x01] GOTO 0x075B
     0x05B9 [0x01] GOTO 0x075B
     0x05C7 [0x01] GOTO 0x075B
     0x05D5 [0x01] GOTO 0x075B
     0x062A [0x01] GOTO 0x0630
     0x0630 [0x01] GOTO 0x075B
     0x063E [0x01] GOTO 0x075B
     0x064C [0x01] GOTO 0x075B
     0x066A [0x01] GOTO 0x075B
     0x0678 [0x01] GOTO 0x075B
     0x0686 [0x01] GOTO 0x075B
     0x0694 [0x01] GOTO 0x075B
     0x06A2 [0x01] GOTO 0x075B
     0x06B0 [0x01] GOTO 0x075B
     0x06BE [0x01] GOTO 0x075B
     0x06CC [0x01] GOTO 0x075B
     0x06DA [0x01] GOTO 0x075B
     0x06E8 [0x01] GOTO 0x075B
```

### Event 1001

#### Metadata

| Field        | Value     |
|--------------|-----------|
| Entrypoint   | 0x07A9    |
| Data Size    | 467 bytes |
| Instructions | 10        |

```
      00 01 02 03 04 05 06 07  08 09 0A 0B 0C 0D 0E 0F
      -- -- -- -- -- -- -- --  -- -- -- -- -- -- -- --
07A0:                             1E F0 FF FF 7F 6F 70           .....op
07B0: 66 0B 80 F8 FF FF 7F F8  FF FF 7F 74 6C 6B 30 1D  f..........tlk0.
07C0: 44 80 23 5E 69 64 6C 30  1C 0D 80 21 00 45 0E 80  D.#^idl0...!.E..
07D0: F0 FF FF 7F F0 FF FF 7F  6F 76 6C 31 0F 80 45 15  ........ovl1..E.
07E0: 80 F0 FF FF 7F F0 FF FF  7F 73 30 31 36 0F 80 1D  .........s016...
07F0: 45 80 23 01 66 01 00 45  0E 80 F0 FF FF 7F F0 FF  E.#.f..E........
0800: FF 7F 6F 76 6C 31 0F 80  45 15 80 F0 FF FF 7F F0  ..ovl1..E.......
0810: FF FF 7F 73 30 31 36 0F  80 27 64 F0 FF FF 7F 18  ...s016..'d.....
0820: 66 0B 80 F8 FF FF 7F F8  FF FF 7F 74 6C 6B 30 1D  f..........tlk0.
0830: 46 80 23 5E 69 64 6C 30  24 19 80 0F 80 0F 80 25  F.#^idl0$......%
0840: 02 00 10 0F 80 00 3B 09  45 12 80 F8 FF FF 7F F8  ......;.E.......
0850: FF FF 7F 73 30 39 30 0F  80 66 0B 80 F8 FF FF 7F  ...s090..f......
0860: F8 FF FF 7F 74 6C 6B 30  1D 47 80 23 03 02 10 48  ....tlk0.G.#...H
0870: 80 1D 49 80 23 52 12 80  F8 FF FF 7F F8 FF FF 7F  ..I.#R..........
0880: 73 30 39 30 02 09 10 1D  80 00 A0 08 45 12 80 F8  s090........E...
0890: FF FF 7F F8 FF FF 7F 73  30 39 31 0F 80 01 CD 08  .......s091.....
08A0: 02 09 10 1E 80 00 BC 08  45 12 80 F8 FF FF 7F F8  ........E.......
08B0: FF FF 7F 73 30 39 31 0F  80 01 CD 08 45 15 80 F0  ...s091.....E...
08C0: FF FF 7F F0 FF FF 7F 73  30 31 37 0F 80 1D 1F 80  .......s017.....
08D0: 23 5E 69 64 6C 30 24 20  80 0F 80 0F 80 25 02 00  #^idl0$ .....%..
08E0: 10 0F 80 00 1A 09 45 15  80 F0 FF FF 7F F0 FF FF  ......E.........
08F0: 7F 73 30 31 38 0F 80 66  0B 80 F8 FF FF 7F F8 FF  .s018..f........
0900: FF 7F 74 6C 6B 30 1D 4A  80 23 5E 69 64 6C 30 1C  ..tlk0.J.#^idl0.
0910: 0D 80 03 01 10 22 80 01  38 09 02 00 10 22 80 00  ....."..8...."..
0920: 28 09 01 48 08 01 38 09  02 00 10 23 80 00 38 09  (..H..8....#..8.
0930: 03 01 10 24 80 01 38 09  01 4B 09 02 00 10 22 80  ...$..8..K....".
0940: 00 4B 09 03 01 10 24 80  01 4B 09 45 0E 80 F8 FF  .K....$..K.E....
0950: FF 7F F8 FF FF 7F 66 64  6F 31 0F 80 1C 10 80 46  ......fdo1.....F
0960: 00 45 0E 80 F8 FF FF 7F  F8 FF FF 7F 66 64 69 31  .E..........fdi1
0970: 0F 80 21 00 29 0F 61 60  0E 01 38 00              ..!.).a`..8.    
```

#### Opcodes

```
  0: 0x07A9 [0x1E] EventEntity looks at LocalPlayer and starts talking
  1: 0x07AE [0x6F] WAIT_FRAME_DELAY: Yield until WaitTime reaches zero
  2: 0x07AF [0x70] WAIT_ENTITY_RENDER_FLAG: Wait while EventEntity->Render.Flags3 bit 2 is set (cancel turn if not)
  3: 0x07B0 [0x66] LOAD_EXT_SCHEDULER_MAIN: Load scheduler "tlk0" with entities [EventEntity, EventEntity], work=20*
  4: 0x07BF [0x1D] PRINT_EVENT_MESSAGE(message_id=7231*)
    → "Finish your current mission first, then come back for another."
  5: 0x07C2 [0x23] WAIT_FOR_DIALOG_INTERACTION
  6: 0x07C3 [0x5E] EventEntity goes idle (kills current action) (animation: "idl0")
  7: 0x07C8 [0x1C] WAIT(30* ticks)
  8: 0x07CB [0x21] END_EVENT
  9: 0x07CC [0x00] END_REQSTACK()
```

#### Data or dead code:

```
# Dead code (unreachable instructions):
     0x07CD [0x45] LOAD_SCHEDULED_TASK: Load scheduler "ovl1" with entities [LocalPlayer, LocalPlayer], work=[200*, 0*]
     0x07DE [0x45] LOAD_SCHEDULED_TASK: Load scheduler "s016" with entities [LocalPlayer, LocalPlayer], work=[130*, 0*]
     0x07EF [0x1D] PRINT_EVENT_MESSAGE(message_id=9212*)
    → "What, you want the mission from rank one again?"
     0x07F2 [0x23] WAIT_FOR_DIALOG_INTERACTION
     0x07F3 [0x01] GOTO 0x0166
     0x07F6 [0x00] END_REQSTACK()
     0x07F7 [0x45] LOAD_SCHEDULED_TASK: Load scheduler "ovl1" with entities [LocalPlayer, LocalPlayer], work=[200*, 0*]
     0x0808 [0x45] LOAD_SCHEDULED_TASK: Load scheduler "s016" with entities [LocalPlayer, LocalPlayer], work=[130*, 0*]
     0x0819 [0x27] REQ_SET(priority=0x64, entity_id=LocalPlayer, tag_num=0x18)
     0x0820 [0x66] LOAD_EXT_SCHEDULER_MAIN: Load scheduler "tlk0" with entities [EventEntity, EventEntity], work=20*
     0x082F [0x1D] PRINT_EVENT_MESSAGE(message_id=7252*)
    → "Bat patrol! How about it? Shouldn't be a problem for an adventurer such as yourself, no?"
     0x0832 [0x23] WAIT_FOR_DIALOG_INTERACTION
     0x0833 [0x5E] EventEntity goes idle (kills current action) (animation: "idl0")
     0x0838 [0x24] CREATE_DIALOG(message_id=7240*, default_option=0*, option_flags=0*)
    → "Interested? [Tell me more./Never mind.]"
     0x083F [0x25] WAIT_DIALOG_SELECT()
     0x0840 [0x02] IF !(Work_Zone[0] == 0*) GOTO 0x093B
     0x0848 [0x45] LOAD_SCHEDULED_TASK: Load scheduler "s090" with entities [EventEntity, EventEntity], work=[90*, 0*]
     0x0859 [0x66] LOAD_EXT_SCHEDULER_MAIN: Load scheduler "tlk0" with entities [EventEntity, EventEntity], work=20*
     0x0868 [0x1D] PRINT_EVENT_MESSAGE(message_id=7253*)
    → "Here's your mission, then. Clear out bats lurking in King Ranperre's Tomb and bring me a fang as proof."
     0x086B [0x23] WAIT_FOR_DIALOG_INTERACTION
     0x086C [0x03] Work_Zone[2] = 891*
     0x0871 [0x1D] PRINT_EVENT_MESSAGE(message_id=7254*)
    → "Bring me $0 and your mission will be a success."
     0x0874 [0x23] WAIT_FOR_DIALOG_INTERACTION
     0x0875 [0x52] END_LOAD_SCHEDULER: End scheduler "s090" with entities [EventEntity, EventEntity], work=90*
     0x0884 [0x02] IF !(Work_Zone[9] == 5*) GOTO 0x08A0
     0x088C [0x45] LOAD_SCHEDULED_TASK: Load scheduler "s091" with entities [EventEntity, EventEntity], work=[90*, 0*]
     0x089D [0x01] GOTO 0x08CD
     0x08A0 [0x02] IF !(Work_Zone[9] == 6*) GOTO 0x08BC
     0x08A8 [0x45] LOAD_SCHEDULED_TASK: Load scheduler "s091" with entities [EventEntity, EventEntity], work=[90*, 0*]
     0x08B9 [0x01] GOTO 0x08CD
     0x08BC [0x45] LOAD_SCHEDULED_TASK: Load scheduler "s017" with entities [LocalPlayer, LocalPlayer], work=[130*, 0*]
     0x08CD [0x1D] PRINT_EVENT_MESSAGE(message_id=7243*)
    → "That is all. You'll take the mission then?"
     0x08D0 [0x23] WAIT_FOR_DIALOG_INTERACTION
     0x08D1 [0x5E] EventEntity goes idle (kills current action) (animation: "idl0")
     0x08D6 [0x24] CREATE_DIALOG(message_id=7244*, default_option=0*, option_flags=0*)
    → "Do you accept the mission? [I accept./Could you explain again?/No, thank you.]"
     0x08DD [0x25] WAIT_DIALOG_SELECT()
     0x08DE [0x02] IF !(Work_Zone[0] == 0*) GOTO 0x091A
     0x08E6 [0x45] LOAD_SCHEDULED_TASK: Load scheduler "s018" with entities [LocalPlayer, LocalPlayer], work=[130*, 0*]
     0x08F7 [0x66] LOAD_EXT_SCHEDULER_MAIN: Load scheduler "tlk0" with entities [EventEntity, EventEntity], work=20*
     0x0906 [0x1D] PRINT_EVENT_MESSAGE(message_id=7255*)
    → "Deep in the tomb you'll find Goblins. Take care; I don't want to lose you yet."
     0x0909 [0x23] WAIT_FOR_DIALOG_INTERACTION
     0x090A [0x5E] EventEntity goes idle (kills current action) (animation: "idl0")
     0x090F [0x1C] WAIT(30* ticks)
     0x0912 [0x03] Work_Zone[1] = 1*
     0x0917 [0x01] GOTO 0x0938
     0x091A [0x02] IF !(Work_Zone[0] == 1*) GOTO 0x0928
     0x0922 [0x01] GOTO 0x0848
     0x0925 [0x01] GOTO 0x0938
     0x0928 [0x02] IF !(Work_Zone[0] == 2*) GOTO 0x0938
     0x0930 [0x03] Work_Zone[1] = 1073741824*
     0x0935 [0x01] GOTO 0x0938
     0x0938 [0x01] GOTO 0x094B
     0x093B [0x02] IF !(Work_Zone[0] == 1*) GOTO 0x094B
     0x0943 [0x03] Work_Zone[1] = 1073741824*
     0x0948 [0x01] GOTO 0x094B
     0x094B [0x45] LOAD_SCHEDULED_TASK: Load scheduler "fdo1" with entities [EventEntity, EventEntity], work=[200*, 0*]
     0x095C [0x1C] WAIT(60* ticks)
     0x095F [0x46] CAMERA_CONTROL: Restore default settings
     0x0961 [0x45] LOAD_SCHEDULED_TASK: Load scheduler "fdi1" with entities [EventEntity, EventEntity], work=[200*, 0*]
     0x0972 [0x21] END_EVENT
     0x0973 [0x00] END_REQSTACK()
     0x0974 [0x29] REQ_SET_WAIT(priority=0x0F, entity_id=Endracion (ID: 17719393/0x010E6061), tag_num=0x38)
     0x097B [0x00] END_REQSTACK()
```

### Event 1003

#### Metadata

| Field        | Value     |
|--------------|-----------|
| Entrypoint   | 0x097C    |
| Data Size    | 885 bytes |
| Instructions | 31        |

```
      00 01 02 03 04 05 06 07  08 09 0A 0B 0C 0D 0E 0F
      -- -- -- -- -- -- -- --  -- -- -- -- -- -- -- --
0970:                                      42 46 01 45              BF.E
0980: 0E 80 F8 FF FF 7F F8 FF  FF 7F 66 64 6F 31 0F 80  ..........fdo1..
0990: 1C 10 80 38 11 80 29 64  F0 FF FF 7F 18 29 08 F0  ...8..)d.....)..
09A0: FF FF 7F 39 45 15 80 F0  FF FF 7F F0 FF FF 7F 73  ...9E..........s
09B0: 30 31 38 0F 80 45 0E 80  F8 FF FF 7F F8 FF FF 7F  018..E..........
09C0: 66 64 69 31 0F 80 02 06  10 22 80 00 E9 09 03 05  fdi1....."......
09D0: 10 48 80 66 0B 80 F8 FF  FF 7F F8 FF FF 7F 74 6C  .H.f..........tl
09E0: 6B 30 1D 25 80 23 01 16  0A 66 0B 80 F8 FF FF 7F  k0.%.#...f......
09F0: F8 FF FF 7F 74 6C 6B 30  1D 4B 80 23 45 15 80 F0  ....tlk0.K.#E...
0A00: FF FF 7F F0 FF FF 7F 73  30 31 34 0F 80 03 05 10  .......s014.....
0A10: 48 80 1D 4C 80 23 45 0E  80 F8 FF FF 7F F8 FF FF  H..L.#E.........
0A20: 7F 66 64 6F 31 0F 80 1C  10 80 5E 69 64 6C 30 46  .fdo1.....^idl0F
0A30: 00 45 0E 80 F8 FF FF 7F  F8 FF FF 7F 66 64 69 31  .E..........fdi1
0A40: 0F 80 45 28 80 F0 FF FF  7F F0 FF FF 7F 71 73 74  ..E(.........qst
0A50: 63 0F 80 20 00 21 00 45  0E 80 F0 FF FF 7F F0 FF  c.. .!.E........
0A60: FF 7F 6F 76 6C 31 0F 80  45 12 80 F8 FF FF 7F F8  ..ovl1..E.......
0A70: FF FF 7F 73 30 34 32 0F  80 66 0B 80 F8 FF FF 7F  ...s042..f......
0A80: F8 FF FF 7F 74 6C 6B 30  1D 4D 80 23 5E 69 64 6C  ....tlk0.M.#^idl
0A90: 30 1D 4E 80 23 52 12 80  F8 FF FF 7F F8 FF FF 7F  0.N.#R..........
0AA0: 73 30 34 32 45 12 80 F8  FF FF 7F F8 FF FF 7F 73  s042E..........s
0AB0: 30 38 31 0F 80 66 0B 80  F8 FF FF 7F F8 FF FF 7F  081..f..........
0AC0: 74 68 6B 31 1D 4F 80 23  1D 50 80 23 1D 51 80 23  thk1.O.#.P.#.Q.#
0AD0: 52 12 80 F8 FF FF 7F F8  FF FF 7F 73 30 38 31 45  R..........s081E
0AE0: 12 80 F8 FF FF 7F F8 FF  FF 7F 73 30 34 32 0F 80  ..........s042..
0AF0: 1D 52 80 23 66 0B 80 F8  FF FF 7F F8 FF FF 7F 74  .R.#f..........t
0B00: 68 6B 32 53 F8 FF FF 7F  F8 FF FF 7F 74 68 6B 32  hk2S........thk2
0B10: 1C 0D 80 52 12 80 F8 FF  FF 7F F8 FF FF 7F 73 30  ...R..........s0
0B20: 34 32 45 0E 80 F0 FF FF  7F F0 FF FF 7F 6F 76 6C  42E..........ovl
0B30: 31 0F 80 45 15 80 F0 FF  FF 7F F0 FF FF 7F 73 30  1..E..........s0
0B40: 31 34 0F 80 66 0B 80 F8  FF FF 7F F8 FF FF 7F 70  14..f..........p
0B50: 6F 69 31 1D 53 80 23 66  0B 80 F8 FF FF 7F F8 FF  oi1.S.#f........
0B60: FF 7F 70 6F 69 32 53 F8  FF FF 7F F8 FF FF 7F 70  ..poi2S........p
0B70: 6F 69 32 1C 0D 80 66 0B  80 F8 FF FF 7F F8 FF FF  oi2...f.........
0B80: 7F 74 6C 6B 30 1D 54 80  23 5E 69 64 6C 30 24 19  .tlk0.T.#^idl0$.
0B90: 80 0F 80 0F 80 25 02 00  10 0F 80 00 A1 0C 45 12  .....%........E.
0BA0: 80 F8 FF FF 7F F8 FF FF  7F 73 30 39 30 0F 80 66  .........s090..f
0BB0: 0B 80 F8 FF FF 7F F8 FF  FF 7F 74 6C 6B 30 1D 55  ..........tlk0.U
0BC0: 80 23 1D 56 80 23 52 12  80 F8 FF FF 7F F8 FF FF  .#.V.#R.........
0BD0: 7F 73 30 39 30 45 0E 80  F0 FF FF 7F F0 FF FF 7F  .s090E..........
0BE0: 6F 76 6C 31 0F 80 02 09  10 1D 80 00 02 0C 45 12  ovl1..........E.
0BF0: 80 F8 FF FF 7F F8 FF FF  7F 73 30 39 31 0F 80 01  .........s091...
0C00: 2F 0C 02 09 10 1E 80 00  1E 0C 45 12 80 F8 FF FF  /.........E.....
0C10: 7F F8 FF FF 7F 73 30 39  31 0F 80 01 2F 0C 45 15  .....s091.../.E.
0C20: 80 F0 FF FF 7F F0 FF FF  7F 73 30 31 37 0F 80 1D  .........s017...
0C30: 57 80 23 1D 1F 80 23 5E  69 64 6C 30 24 20 80 0F  W.#...#^idl0$ ..
0C40: 80 0F 80 25 02 00 10 0F  80 00 80 0C 45 12 80 F8  ...%........E...
0C50: FF FF 7F F8 FF FF 7F 73  30 38 38 0F 80 66 0B 80  .......s088..f..
0C60: F8 FF FF 7F F8 FF FF 7F  74 6C 6B 30 1D 58 80 23  ........tlk0.X.#
0C70: 5E 69 64 6C 30 1C 0D 80  03 01 10 23 80 01 9E 0C  ^idl0......#....
0C80: 02 00 10 22 80 00 8E 0C  01 9E 0B 01 9E 0C 02 00  ..."............
0C90: 10 23 80 00 9E 0C 03 01  10 24 80 01 9E 0C 01 B1  .#.......$......
0CA0: 0C 02 00 10 22 80 00 B1  0C 03 01 10 24 80 01 B1  ....".......$...
0CB0: 0C 45 0E 80 F8 FF FF 7F  F8 FF FF 7F 66 64 6F 31  .E..........fdo1
0CC0: 0F 80 1C 10 80 52 12 80  F8 FF FF 7F F8 FF FF 7F  .....R..........
0CD0: 73 30 38 38 46 00 45 0E  80 F8 FF FF 7F F8 FF FF  s088F.E.........
0CE0: 7F 66 64 69 31 0F 80 21  00 29 0F 61 60 0E 01 46  .fdi1..!.).a`..F
0CF0: 00                                                .               
```

#### Opcodes

```
  0: 0x097C [0x42] SET_CLI_EVENT_CANCEL_DATA()
  1: 0x097D [0x46] CAMERA_CONTROL: Disable user control
  2: 0x097F [0x45] LOAD_SCHEDULED_TASK: Load scheduler "fdo1" with entities [EventEntity, EventEntity], work=[200*, 0*]
  3: 0x0990 [0x1C] WAIT(60* ticks)
  4: 0x0993 [0x38] SET_CLIENT_EVENT_MODE(mode=3*)
  5: 0x0996 [0x29] REQ_SET_WAIT(priority=0x64, entity_id=LocalPlayer, tag_num=0x18)
  6: 0x099D [0x29] REQ_SET_WAIT(priority=0x08, entity_id=LocalPlayer, tag_num=0x39)
  7: 0x09A4 [0x45] LOAD_SCHEDULED_TASK: Load scheduler "s018" with entities [LocalPlayer, LocalPlayer], work=[130*, 0*]
  8: 0x09B5 [0x45] LOAD_SCHEDULED_TASK: Load scheduler "fdi1" with entities [EventEntity, EventEntity], work=[200*, 0*]
  9: 0x09C6 [0x02] IF !(Work_Zone[6] == 1*) GOTO 0x09E9
 10: 0x09CE [0x03] Work_Zone[5] = 891*
 11: 0x09D3 [0x66] LOAD_EXT_SCHEDULER_MAIN: Load scheduler "tlk0" with entities [EventEntity, EventEntity], work=20*
 12: 0x09E2 [0x1D] PRINT_EVENT_MESSAGE(message_id=9213*)
    → "I knew you'd return safely, and with the $3. Mission completed!"
 13: 0x09E5 [0x23] WAIT_FOR_DIALOG_INTERACTION
 14: 0x09E6 [0x01] GOTO 0x0A16
 15: 0x09E9 [0x66] LOAD_EXT_SCHEDULER_MAIN: Load scheduler "tlk0" with entities [EventEntity, EventEntity], work=20*
 16: 0x09F8 [0x1D] PRINT_EVENT_MESSAGE(message_id=7256*)
    → "Ah, you've returned! I was afraid that Goblins got you."
 17: 0x09FB [0x23] WAIT_FOR_DIALOG_INTERACTION
 18: 0x09FC [0x45] LOAD_SCHEDULED_TASK: Load scheduler "s014" with entities [LocalPlayer, LocalPlayer], work=[130*, 0*]
 19: 0x0A0D [0x03] Work_Zone[5] = 891*
 20: 0x0A12 [0x1D] PRINT_EVENT_MESSAGE(message_id=7257*)
    → "That's one $3 for the gatehouse, then. Mission complete. Not bad for a new recruit."
 21: 0x0A15 [0x23] WAIT_FOR_DIALOG_INTERACTION

SUBROUTINE_0A16:
 22: 0x0A16 [0x45] LOAD_SCHEDULED_TASK: Load scheduler "fdo1" with entities [EventEntity, EventEntity], work=[200*, 0*]
 23: 0x0A27 [0x1C] WAIT(60* ticks)
 24: 0x0A2A [0x5E] EventEntity goes idle (kills current action) (animation: "idl0")
 25: 0x0A2F [0x46] CAMERA_CONTROL: Restore default settings
 26: 0x0A31 [0x45] LOAD_SCHEDULED_TASK: Load scheduler "fdi1" with entities [EventEntity, EventEntity], work=[200*, 0*]
 27: 0x0A42 [0x45] LOAD_SCHEDULED_TASK: Load scheduler "qstc" with entities [LocalPlayer, LocalPlayer], work=[201*, 0*]
 28: 0x0A53 [0x20] SET_CLI_EVENT_UC_FLAG: Unlock player control
 29: 0x0A55 [0x21] END_EVENT
 30: 0x0A56 [0x00] END_REQSTACK()
```

#### Data or dead code:

```
# Dead code (unreachable instructions):
     0x0A57 [0x45] LOAD_SCHEDULED_TASK: Load scheduler "ovl1" with entities [LocalPlayer, LocalPlayer], work=[200*, 0*]
     0x0A68 [0x45] LOAD_SCHEDULED_TASK: Load scheduler "s042" with entities [EventEntity, EventEntity], work=[90*, 0*]
     0x0A79 [0x66] LOAD_EXT_SCHEDULER_MAIN: Load scheduler "tlk0" with entities [EventEntity, EventEntity], work=20*
     0x0A88 [0x1D] PRINT_EVENT_MESSAGE(message_id=7258*)
    → "Ah, the recruit's back again? I'm sorry, but I've no time for you today."
     0x0A8B [0x23] WAIT_FOR_DIALOG_INTERACTION
     0x0A8C [0x5E] EventEntity goes idle (kills current action) (animation: "idl0")
     0x0A91 [0x1D] PRINT_EVENT_MESSAGE(message_id=7259*)
    → "Well, perhaps you can be of some help. Many of our children have disappeared mysteriously, and I've no doubt the Ghelsba Orcs are behind it."
     0x0A94 [0x23] WAIT_FOR_DIALOG_INTERACTION
     0x0A95 [0x52] END_LOAD_SCHEDULER: End scheduler "s042" with entities [EventEntity, EventEntity], work=90*
     0x0AA4 [0x45] LOAD_SCHEDULED_TASK: Load scheduler "s081" with entities [EventEntity, EventEntity], work=[90*, 0*]
     0x0AB5 [0x66] LOAD_EXT_SCHEDULER_MAIN: Load scheduler "thk1" with entities [EventEntity, EventEntity], work=20*
     0x0AC4 [0x1D] PRINT_EVENT_MESSAGE(message_id=7260*)
    → "The Royal Knights should be on the job by now, but the two princes are at each other's throats."
     0x0AC7 [0x23] WAIT_FOR_DIALOG_INTERACTION
     0x0AC8 [0x1D] PRINT_EVENT_MESSAGE(message_id=7261*)
    → "Prince Trion, the eldest, says we should launch a full attack, with all haste."
     0x0ACB [0x23] WAIT_FOR_DIALOG_INTERACTION
     0x0ACC [0x1D] PRINT_EVENT_MESSAGE(message_id=7262*)
    → "While his younger brother, Prince Pieuje says the safety of the children comes first, and he won't authorize an attack."
     0x0ACF [0x23] WAIT_FOR_DIALOG_INTERACTION
     0x0AD0 [0x52] END_LOAD_SCHEDULER: End scheduler "s081" with entities [EventEntity, EventEntity], work=90*
     0x0ADF [0x45] LOAD_SCHEDULED_TASK: Load scheduler "s042" with entities [EventEntity, EventEntity], work=[90*, 0*]
     0x0AF0 [0x1D] PRINT_EVENT_MESSAGE(message_id=7263*)
    → "They've been arguing this back and forth for days. The knights' hands are tied, and frankly, nobody knows what to do."
     0x0AF3 [0x23] WAIT_FOR_DIALOG_INTERACTION
     0x0AF4 [0x66] LOAD_EXT_SCHEDULER_MAIN: Load scheduler "thk2" with entities [EventEntity, EventEntity], work=20*
     0x0B03 [0x53] WAIT_SCHEDULER_TASK: Wait for scheduler "thk2" with entities [EventEntity, EventEntity]
     0x0B10 [0x1C] WAIT(30* ticks)
     0x0B13 [0x52] END_LOAD_SCHEDULER: End scheduler "s042" with entities [EventEntity, EventEntity], work=90*
     0x0B22 [0x45] LOAD_SCHEDULED_TASK: Load scheduler "ovl1" with entities [LocalPlayer, LocalPlayer], work=[200*, 0*]
     0x0B33 [0x45] LOAD_SCHEDULED_TASK: Load scheduler "s014" with entities [LocalPlayer, LocalPlayer], work=[130*, 0*]
     0x0B44 [0x66] LOAD_EXT_SCHEDULER_MAIN: Load scheduler "poi1" with entities [EventEntity, EventEntity], work=20*
     0x0B53 [0x1D] PRINT_EVENT_MESSAGE(message_id=7264*)
    → "If you really want to make a name for yourself, go to Ghelsba, and rescue those kidnapped children!"
     0x0B56 [0x23] WAIT_FOR_DIALOG_INTERACTION
     0x0B57 [0x66] LOAD_EXT_SCHEDULER_MAIN: Load scheduler "poi2" with entities [EventEntity, EventEntity], work=20*
     0x0B66 [0x53] WAIT_SCHEDULER_TASK: Wait for scheduler "poi2" with entities [EventEntity, EventEntity]
     0x0B73 [0x1C] WAIT(30* ticks)
     0x0B76 [0x66] LOAD_EXT_SCHEDULER_MAIN: Load scheduler "tlk0" with entities [EventEntity, EventEntity], work=20*
     0x0B85 [0x1D] PRINT_EVENT_MESSAGE(message_id=7265*)
    → "What say you? Will you go?"
     0x0B88 [0x23] WAIT_FOR_DIALOG_INTERACTION
     0x0B89 [0x5E] EventEntity goes idle (kills current action) (animation: "idl0")
     0x0B8E [0x24] CREATE_DIALOG(message_id=7240*, default_option=0*, option_flags=0*)
    → "Interested? [Tell me more./Never mind.]"
     0x0B95 [0x25] WAIT_DIALOG_SELECT()
     0x0B96 [0x02] IF !(Work_Zone[0] == 0*) GOTO 0x0CA1
     0x0B9E [0x45] LOAD_SCHEDULED_TASK: Load scheduler "s090" with entities [EventEntity, EventEntity], work=[90*, 0*]
     0x0BAF [0x66] LOAD_EXT_SCHEDULER_MAIN: Load scheduler "tlk0" with entities [EventEntity, EventEntity], work=20*
     0x0BBE [0x1D] PRINT_EVENT_MESSAGE(message_id=7266*)
    → "Here's your mission, then. Rescue the two children kidnapped by the Orcs of Ghelsba Outpost."
     0x0BC1 [0x23] WAIT_FOR_DIALOG_INTERACTION
     0x0BC2 [0x1D] PRINT_EVENT_MESSAGE(message_id=7267*)
    → "Ghelsba Outpost is northwest of West Ronfaure. Take the path before the Westgate, then turn right when the path splits in the forest. You'll find the entrance up in the hills."
     0x0BC5 [0x23] WAIT_FOR_DIALOG_INTERACTION
     0x0BC6 [0x52] END_LOAD_SCHEDULER: End scheduler "s090" with entities [EventEntity, EventEntity], work=90*
     0x0BD5 [0x45] LOAD_SCHEDULED_TASK: Load scheduler "ovl1" with entities [LocalPlayer, LocalPlayer], work=[200*, 0*]
     0x0BE6 [0x02] IF !(Work_Zone[9] == 5*) GOTO 0x0C02
     0x0BEE [0x45] LOAD_SCHEDULED_TASK: Load scheduler "s091" with entities [EventEntity, EventEntity], work=[90*, 0*]
     0x0BFF [0x01] GOTO 0x0C2F
     0x0C02 [0x02] IF !(Work_Zone[9] == 6*) GOTO 0x0C1E
     0x0C0A [0x45] LOAD_SCHEDULED_TASK: Load scheduler "s091" with entities [EventEntity, EventEntity], work=[90*, 0*]
     0x0C1B [0x01] GOTO 0x0C2F
     0x0C1E [0x45] LOAD_SCHEDULED_TASK: Load scheduler "s017" with entities [LocalPlayer, LocalPlayer], work=[130*, 0*]
     0x0C2F [0x1D] PRINT_EVENT_MESSAGE(message_id=7268*)
    → "If you have trouble finding the way, just follow one of the soldiers on patrol."
     0x0C32 [0x23] WAIT_FOR_DIALOG_INTERACTION
     0x0C33 [0x1D] PRINT_EVENT_MESSAGE(message_id=7243*)
    → "That is all. You'll take the mission then?"
     0x0C36 [0x23] WAIT_FOR_DIALOG_INTERACTION
     0x0C37 [0x5E] EventEntity goes idle (kills current action) (animation: "idl0")
     0x0C3C [0x24] CREATE_DIALOG(message_id=7244*, default_option=0*, option_flags=0*)
    → "Do you accept the mission? [I accept./Could you explain again?/No, thank you.]"
     0x0C43 [0x25] WAIT_DIALOG_SELECT()
     0x0C44 [0x02] IF !(Work_Zone[0] == 0*) GOTO 0x0C80
     0x0C4C [0x45] LOAD_SCHEDULED_TASK: Load scheduler "s088" with entities [EventEntity, EventEntity], work=[90*, 0*]
     0x0C5D [0x66] LOAD_EXT_SCHEDULER_MAIN: Load scheduler "tlk0" with entities [EventEntity, EventEntity], work=20*
     0x0C6C [0x1D] PRINT_EVENT_MESSAGE(message_id=7269*)
    → "Orcs tend to keep their hostages in tents or small huts. Once you're inside the compound, check them first."
     0x0C6F [0x23] WAIT_FOR_DIALOG_INTERACTION
     0x0C70 [0x5E] EventEntity goes idle (kills current action) (animation: "idl0")
     0x0C75 [0x1C] WAIT(30* ticks)
     0x0C78 [0x03] Work_Zone[1] = 2*
     0x0C7D [0x01] GOTO 0x0C9E
     0x0C80 [0x02] IF !(Work_Zone[0] == 1*) GOTO 0x0C8E
     0x0C88 [0x01] GOTO 0x0B9E
     0x0C8B [0x01] GOTO 0x0C9E
     0x0C8E [0x02] IF !(Work_Zone[0] == 2*) GOTO 0x0C9E
     0x0C96 [0x03] Work_Zone[1] = 1073741824*
     0x0C9B [0x01] GOTO 0x0C9E
     0x0C9E [0x01] GOTO 0x0CB1
     0x0CA1 [0x02] IF !(Work_Zone[0] == 1*) GOTO 0x0CB1
     0x0CA9 [0x03] Work_Zone[1] = 1073741824*
     0x0CAE [0x01] GOTO 0x0CB1
     0x0CB1 [0x45] LOAD_SCHEDULED_TASK: Load scheduler "fdo1" with entities [EventEntity, EventEntity], work=[200*, 0*]
     0x0CC2 [0x1C] WAIT(60* ticks)
     0x0CC5 [0x52] END_LOAD_SCHEDULER: End scheduler "s088" with entities [EventEntity, EventEntity], work=90*
     0x0CD4 [0x46] CAMERA_CONTROL: Restore default settings
     0x0CD6 [0x45] LOAD_SCHEDULED_TASK: Load scheduler "fdi1" with entities [EventEntity, EventEntity], work=[200*, 0*]
     0x0CE7 [0x21] END_EVENT
     0x0CE8 [0x00] END_REQSTACK()
     0x0CE9 [0x29] REQ_SET_WAIT(priority=0x0F, entity_id=Endracion (ID: 17719393/0x010E6061), tag_num=0x46)
     0x0CF0 [0x00] END_REQSTACK()
```

### Event 1004

#### Metadata

| Field        | Value     |
|--------------|-----------|
| Entrypoint   | 0x0CF1    |
| Data Size    | 500 bytes |
| Instructions | 66        |

```
      00 01 02 03 04 05 06 07  08 09 0A 0B 0C 0D 0E 0F
      -- -- -- -- -- -- -- --  -- -- -- -- -- -- -- --
0CF0:    42 46 01 45 0E 80 F8  FF FF 7F F8 FF FF 7F 66   BF.E..........f
0D00: 64 6F 31 0F 80 1C 10 80  38 11 80 29 64 F0 FF FF  do1.....8..)d...
0D10: 7F 18 29 08 F0 FF FF 7F  39 45 12 80 F8 FF FF 7F  ..).....9E......
0D20: F8 FF FF 7F 73 30 38 31  0F 80 45 0E 80 F8 FF FF  ....s081..E.....
0D30: 7F F8 FF FF 7F 66 64 69  31 0F 80 66 0B 80 F8 FF  .....fdi1..f....
0D40: FF 7F F8 FF FF 7F 74 6C  6B 30 1D 59 80 23 5E 69  ......tlk0.Y.#^i
0D50: 64 6C 30 1D 5A 80 23 52  12 80 F8 FF FF 7F F8 FF  dl0.Z.#R........
0D60: FF 7F 73 30 38 31 45 0E  80 F0 FF FF 7F F0 FF FF  ..s081E.........
0D70: 7F 6F 76 6C 31 0F 80 02  09 10 1D 80 00 93 0D 45  .ovl1..........E
0D80: 12 80 F8 FF FF 7F F8 FF  FF 7F 73 30 39 31 0F 80  ..........s091..
0D90: 01 C0 0D 02 09 10 1E 80  00 AF 0D 45 12 80 F8 FF  ...........E....
0DA0: FF 7F F8 FF FF 7F 73 30  39 31 0F 80 01 C0 0D 45  ......s091.....E
0DB0: 15 80 F0 FF FF 7F F0 FF  FF 7F 73 30 31 37 0F 80  ..........s017..
0DC0: 1D 5B 80 23 7D 5C 80 45  28 80 F0 FF FF 7F F0 FF  .[.#}\.E(.......
0DD0: FF 7F 71 73 74 63 0F 80  1C 0E 80 45 12 80 F8 FF  ..qstc.....E....
0DE0: FF 7F F8 FF FF 7F 73 30  38 38 0F 80 66 0B 80 F8  ......s088..f...
0DF0: FF FF 7F F8 FF FF 7F 74  6C 6B 30 1D 5D 80 23 03  .......tlk0.].#.
0E00: 02 10 5E 80 1D 5F 80 23  52 12 80 F8 FF FF 7F F8  ..^.._.#R.......
0E10: FF FF 7F 73 30 38 38 45  12 80 F8 FF FF 7F F8 FF  ...s088E........
0E20: FF 7F 73 30 34 32 0F 80  1D 60 80 23 1D 61 80 23  ..s042...`.#.a.#
0E30: 52 12 80 F8 FF FF 7F F8  FF FF 7F 73 30 34 32 5E  R..........s042^
0E40: 69 64 6C 30 45 12 80 F8  FF FF 7F F8 FF FF 7F 73  idl0E..........s
0E50: 30 38 39 0F 80 1C 0D 80  66 0B 80 F8 FF FF 7F F8  089.....f.......
0E60: FF FF 7F 74 6C 6B 30 1D  62 80 23 1D 63 80 23 52  ...tlk0.b.#.c.#R
0E70: 12 80 F8 FF FF 7F F8 FF  FF 7F 73 30 38 39 45 0E  ..........s089E.
0E80: 80 F0 FF FF 7F F0 FF FF  7F 6F 76 6C 31 0F 80 45  .........ovl1..E
0E90: 12 80 F8 FF FF 7F F8 FF  FF 7F 73 30 34 32 0F 80  ..........s042..
0EA0: 1D 64 80 23 1D 65 80 23  45 0E 80 F8 FF FF 7F F8  .d.#.e.#E.......
0EB0: FF FF 7F 66 64 6F 31 0F  80 1C 10 80 52 12 80 F8  ...fdo1.....R...
0EC0: FF FF 7F F8 FF FF 7F 73  30 34 32 5E 69 64 6C 30  .......s042^idl0
0ED0: 46 00 45 0E 80 F8 FF FF  7F F8 FF FF 7F 66 64 69  F.E..........fdi
0EE0: 31 0F 80 21 00                                    1..!.           
```

#### Opcodes

```
  0: 0x0CF1 [0x42] SET_CLI_EVENT_CANCEL_DATA()
  1: 0x0CF2 [0x46] CAMERA_CONTROL: Disable user control
  2: 0x0CF4 [0x45] LOAD_SCHEDULED_TASK: Load scheduler "fdo1" with entities [EventEntity, EventEntity], work=[200*, 0*]
  3: 0x0D05 [0x1C] WAIT(60* ticks)
  4: 0x0D08 [0x38] SET_CLIENT_EVENT_MODE(mode=3*)
  5: 0x0D0B [0x29] REQ_SET_WAIT(priority=0x64, entity_id=LocalPlayer, tag_num=0x18)
  6: 0x0D12 [0x29] REQ_SET_WAIT(priority=0x08, entity_id=LocalPlayer, tag_num=0x39)
  7: 0x0D19 [0x45] LOAD_SCHEDULED_TASK: Load scheduler "s081" with entities [EventEntity, EventEntity], work=[90*, 0*]
  8: 0x0D2A [0x45] LOAD_SCHEDULED_TASK: Load scheduler "fdi1" with entities [EventEntity, EventEntity], work=[200*, 0*]
  9: 0x0D3B [0x66] LOAD_EXT_SCHEDULER_MAIN: Load scheduler "tlk0" with entities [EventEntity, EventEntity], work=20*
 10: 0x0D4A [0x1D] PRINT_EVENT_MESSAGE(message_id=7270*)
    → "Ah, you've returned! You were gone so long, I feared a warmachine had got you!"
 11: 0x0D4D [0x23] WAIT_FOR_DIALOG_INTERACTION
 12: 0x0D4E [0x5E] EventEntity goes idle (kills current action) (animation: "idl0")
 13: 0x0D53 [0x1D] PRINT_EVENT_MESSAGE(message_id=7271*)
    → "At any rate, mission complete! And to reward your accomplishment..."
 14: 0x0D56 [0x23] WAIT_FOR_DIALOG_INTERACTION
 15: 0x0D57 [0x52] END_LOAD_SCHEDULER: End scheduler "s081" with entities [EventEntity, EventEntity], work=90*
 16: 0x0D66 [0x45] LOAD_SCHEDULED_TASK: Load scheduler "ovl1" with entities [LocalPlayer, LocalPlayer], work=[200*, 0*]
 17: 0x0D77 [0x02] IF !(Work_Zone[9] == 5*) GOTO 0x0D93
 18: 0x0D7F [0x45] LOAD_SCHEDULED_TASK: Load scheduler "s091" with entities [EventEntity, EventEntity], work=[90*, 0*]
 19: 0x0D90 [0x01] GOTO 0x0DC0
