# 17719519 - EVENTER

## Common Data

| Field            | Value                         |
|------------------|-------------------------------|
| Zone             | Southern San d'Oria (ID: 230) |
| Block Size       | 6492 bytes                    |
| Total Events     | 14                            |
| References Count | 127                           |

## List of Events

| Event ID                 | Entrypoint   |   Size |   Instructions |
|--------------------------|--------------|--------|----------------|
| [65535](#event-65535)    | 0x0000       |      1 |              1 |
| [1020](#event-1020)      | 0x0001       |     10 |              2 |
| [65535.1](#event-655351) | 0x000B       |     10 |              2 |
| [65535.2](#event-655352) | 0x0015       |     10 |              2 |
| [2020](#event-2020)      | 0x001F       |      1 |              1 |
| [65535.3](#event-655353) | 0x0020       |     10 |              2 |
| [65535.4](#event-655354) | 0x002A       |      9 |              3 |
| [65535.5](#event-655355) | 0x0033       |      9 |              3 |
| [65535.6](#event-655356) | 0x003C       |      9 |              3 |
| [732](#event-732)        | 0x0045       |    794 |            109 |
| [734](#event-734)        | 0x035F       |   1720 |            250 |
| [736](#event-736)        | 0x0A17       |    688 |             96 |
| [738](#event-738)        | 0x0CC7       |   1363 |            195 |
| [740](#event-740)        | 0x121A       |   1275 |            168 |

## DAT References (imed_data)

|   Index | Hex Value   |   Dec Value |
|---------|-------------|-------------|
|       0 | 0xFFFC52F5  |  4294726389 |
|       1 | 0xF434      |       62516 |
|       2 | 0x1F3F      |        7999 |
|       3 | 0x0432      |        1074 |
|       4 | 0xFFFE444B  |  4294853707 |
|       5 | 0xFFFF80DA  |  4294934746 |
|       6 | 0x03E7      |         999 |
|       7 | 0x065A      |        1626 |
|       8 | 0x159D2     |       88530 |
|       9 | 0xFFFF17C9  |  4294907849 |
|      10 | 0x0E9E      |        3742 |
|      11 | 0x23F8      |        9208 |
|      12 | 0x23EF      |        9199 |
|      13 | 0x0000      |           0 |
|      14 | 0x0078      |         120 |
|      15 | 0x00C8      |         200 |
|      16 | 0x0013      |          19 |
|      17 | 0x0151      |         337 |
|      18 | 0x007F      |         127 |
|      19 | 0x0018      |          24 |
|      20 | 0x262E      |        9774 |
|      21 | 0x262F      |        9775 |
|      22 | 0x2630      |        9776 |
|      23 | 0x2631      |        9777 |
|      24 | 0x2632      |        9778 |
|      25 | 0x2633      |        9779 |
|      26 | 0x0001      |           1 |
|      27 | 0x0003      |           3 |
|      28 | 0x0005      |           5 |
|      29 | 0x0006      |           6 |
|      30 | 0x0008      |           8 |
|      31 | 0x2634      |        9780 |
|      32 | 0x2635      |        9781 |
|      33 | 0x0002      |           2 |
|      34 | 0x2636      |        9782 |
|      35 | 0x006B      |         107 |
|      36 | 0x2638      |        9784 |
|      37 | 0x2639      |        9785 |
|      38 | 0x003C      |          60 |
|      39 | 0x00E9      |         233 |
|      40 | 0x000C      |          12 |
|      41 | 0x005A      |          90 |
|      42 | 0x263A      |        9786 |
|      43 | 0x263B      |        9787 |
|      44 | 0x263C      |        9788 |
|      45 | 0x263D      |        9789 |
|      46 | 0x263E      |        9790 |
|      47 | 0x0173      |         371 |
|      48 | 0x263F      |        9791 |
|      49 | 0x2640      |        9792 |
|      50 | 0x2641      |        9793 |
|      51 | 0x00E6      |         230 |
|      52 | 0x0064      |         100 |
|      53 | 0x2642      |        9794 |
|      54 | 0x2643      |        9795 |
|      55 | 0x2644      |        9796 |
|      56 | 0x2645      |        9797 |
|      57 | 0x2646      |        9798 |
|      58 | 0x2647      |        9799 |
|      59 | 0x2648      |        9800 |
|      60 | 0x2649      |        9801 |
|      61 | 0x264A      |        9802 |
|      62 | 0x264B      |        9803 |
|      63 | 0x264C      |        9804 |
|      64 | 0x00A1      |         161 |
|      65 | 0x2651      |        9809 |
|      66 | 0x2652      |        9810 |
|      67 | 0x2653      |        9811 |
|      68 | 0x011F      |         287 |
|      69 | 0x2654      |        9812 |
|      70 | 0x2655      |        9813 |
|      71 | 0x2656      |        9814 |
|      72 | 0x2657      |        9815 |
|      73 | 0x2658      |        9816 |
|      74 | 0x2659      |        9817 |
|      75 | 0x265A      |        9818 |
|      76 | 0x265B      |        9819 |
|      77 | 0x265C      |        9820 |
|      78 | 0x00C9      |         201 |
|      79 | 0x265E      |        9822 |
|      80 | 0x265F      |        9823 |
|      81 | 0x2660      |        9824 |
|      82 | 0x2661      |        9825 |
|      83 | 0x2662      |        9826 |
|      84 | 0x2663      |        9827 |
|      85 | 0x2664      |        9828 |
|      86 | 0x0352      |         850 |
|      87 | 0x2665      |        9829 |
|      88 | 0x2666      |        9830 |
|      89 | 0x2667      |        9831 |
|      90 | 0x2668      |        9832 |
|      91 | 0x2669      |        9833 |
|      92 | 0x266A      |        9834 |
|      93 | 0x266B      |        9835 |
|      94 | 0x266C      |        9836 |
|      95 | 0x266D      |        9837 |
|      96 | 0x266E      |        9838 |
|      97 | 0x266F      |        9839 |
|      98 | 0x2670      |        9840 |
|      99 | 0x2671      |        9841 |
|     100 | 0x2672      |        9842 |
|     101 | 0x2673      |        9843 |
|     102 | 0x2674      |        9844 |
|     103 | 0x2675      |        9845 |
|     104 | 0x2676      |        9846 |
|     105 | 0x2677      |        9847 |
|     106 | 0x2678      |        9848 |
|     107 | 0x066F      |        1647 |
|     108 | 0x027D      |         637 |
|     109 | 0x2679      |        9849 |
|     110 | 0x267A      |        9850 |
|     111 | 0x267E      |        9854 |
|     112 | 0x267F      |        9855 |
|     113 | 0x00EA      |         234 |
|     114 | 0x2680      |        9856 |
|     115 | 0x2681      |        9857 |
|     116 | 0x2682      |        9858 |
|     117 | 0x2683      |        9859 |
|     118 | 0x2684      |        9860 |
|     119 | 0x2685      |        9861 |
|     120 | 0x2686      |        9862 |
|     121 | 0x2687      |        9863 |
|     122 | 0x2688      |        9864 |
|     123 | 0x2689      |        9865 |
|     124 | 0x0028      |          40 |
|     125 | 0x268A      |        9866 |
|     126 | 0x268B      |        9867 |

## String References

- **9779**: Do you swear? [On my honor./Only when I hurt myself...]

## Events

### Event 65535

#### Metadata

| Field        | Value   |
|--------------|---------|
| Entrypoint   | 0x0000  |
| Data Size    | 1 bytes |
| Instructions | 1       |

```
      00 01 02 03 04 05 06 07  08 09 0A 0B 0C 0D 0E 0F
      -- -- -- -- -- -- -- --  -- -- -- -- -- -- -- --
0000: 00                                                .               
```

#### Opcodes

```
  0: 0x0000 [0x00] END_REQSTACK()
```

### Event 1020

#### Metadata

| Field        | Value    |
|--------------|----------|
| Entrypoint   | 0x0001   |
| Data Size    | 10 bytes |
| Instructions | 2        |

```
      00 01 02 03 04 05 06 07  08 09 0A 0B 0C 0D 0E 0F
      -- -- -- -- -- -- -- --  -- -- -- -- -- -- -- --
0000:    37 00 80 01 80 02 80  03 80 00                  7.........     
```

#### Opcodes

```
  0: 0x0001 [0x37] UPDATE_EVENT_POSITION_AND_DIR: x=-240.907*, z=62.516*, y=7.999*, direction=94.4°*
  1: 0x000A [0x00] END_REQSTACK()
```

### Event 65535.1

#### Metadata

| Field        | Value    |
|--------------|----------|
| Entrypoint   | 0x000B   |
| Data Size    | 10 bytes |
| Instructions | 2        |

```
      00 01 02 03 04 05 06 07  08 09 0A 0B 0C 0D 0E 0F
      -- -- -- -- -- -- -- --  -- -- -- -- -- -- -- --
0000:                                   37 00 80 01 80             7....
0010: 02 80 03 80 00                                    .....           
```

#### Opcodes

```
  0: 0x000B [0x37] UPDATE_EVENT_POSITION_AND_DIR: x=-240.907*, z=62.516*, y=7.999*, direction=94.4°*
  1: 0x0014 [0x00] END_REQSTACK()
```

### Event 65535.2

#### Metadata

| Field        | Value    |
|--------------|----------|
| Entrypoint   | 0x0015   |
| Data Size    | 10 bytes |
| Instructions | 2        |

```
      00 01 02 03 04 05 06 07  08 09 0A 0B 0C 0D 0E 0F
      -- -- -- -- -- -- -- --  -- -- -- -- -- -- -- --
0010:                37 04 80  05 80 06 80 07 80 00          7......... 
```

#### Opcodes

```
  0: 0x0015 [0x37] UPDATE_EVENT_POSITION_AND_DIR: x=-113.589*, z=-32.550*, y=0.999*, direction=142.9°*
  1: 0x001E [0x00] END_REQSTACK()
```

### Event 2020

#### Metadata

| Field        | Value   |
|--------------|---------|
| Entrypoint   | 0x001F  |
| Data Size    | 1 bytes |
| Instructions | 1       |

```
      00 01 02 03 04 05 06 07  08 09 0A 0B 0C 0D 0E 0F
      -- -- -- -- -- -- -- --  -- -- -- -- -- -- -- --
0010:                                               00                 .
```

#### Opcodes

```
  0: 0x001F [0x00] END_REQSTACK()
```

### Event 65535.3

#### Metadata

| Field        | Value    |
|--------------|----------|
| Entrypoint   | 0x0020   |
| Data Size    | 10 bytes |
| Instructions | 2        |

```
      00 01 02 03 04 05 06 07  08 09 0A 0B 0C 0D 0E 0F
      -- -- -- -- -- -- -- --  -- -- -- -- -- -- -- --
0020: 37 08 80 09 80 06 80 0A  80 00                    7.........      
```

#### Opcodes

```
  0: 0x0020 [0x37] UPDATE_EVENT_POSITION_AND_DIR: x=88.530*, z=-59.447*, y=0.999*, direction=328.9°*
  1: 0x0029 [0x00] END_REQSTACK()
```

### Event 65535.4

#### Metadata

| Field        | Value   |
|--------------|---------|
| Entrypoint   | 0x002A  |
| Data Size    | 9 bytes |
| Instructions | 3       |

```
      00 01 02 03 04 05 06 07  08 09 0A 0B 0C 0D 0E 0F
      -- -- -- -- -- -- -- --  -- -- -- -- -- -- -- --
0020:                                2B 61 60 0E 01 0B            +a`...
0030: 80 23 00                                          .#.             
```

#### Opcodes

```
  0: 0x002A [0x2B] Endracion (ID: 17719393/0x010E6061) [9208*]:
    → "Hey, wait!"
  1: 0x0031 [0x23] WAIT_FOR_DIALOG_INTERACTION
  2: 0x0032 [0x00] END_REQSTACK()
```

### Event 65535.5

#### Metadata

| Field        | Value   |
|--------------|---------|
| Entrypoint   | 0x0033  |
| Data Size    | 9 bytes |
| Instructions | 3       |

```
      00 01 02 03 04 05 06 07  08 09 0A 0B 0C 0D 0E 0F
      -- -- -- -- -- -- -- --  -- -- -- -- -- -- -- --
0030:          2B 62 60 0E 01  0B 80 23 00                 +b`....#.    
```

#### Opcodes

```
  0: 0x0033 [0x2B] Ambrotien (ID: 17719394/0x010E6062) [9208*]:
    → "Hey, wait!"
  1: 0x003A [0x23] WAIT_FOR_DIALOG_INTERACTION
  2: 0x003B [0x00] END_REQSTACK()
```

### Event 65535.6

#### Metadata

| Field        | Value   |
|--------------|---------|
| Entrypoint   | 0x003C  |
| Data Size    | 9 bytes |
| Instructions | 3       |

```
      00 01 02 03 04 05 06 07  08 09 0A 0B 0C 0D 0E 0F
      -- -- -- -- -- -- -- --  -- -- -- -- -- -- -- --
0030:                                      2B E0 60 0E              +.`.
0040: 01 0C 80 23 00                                    ...#.           
```

#### Opcodes

```
  0: 0x003C [0x2B] Rochefogne (ID: 17719520/0x010E60E0) [9199*]:
    → "Please, I have traveled from afar to see Her Highness!"
  1: 0x0043 [0x23] WAIT_FOR_DIALOG_INTERACTION
  2: 0x0044 [0x00] END_REQSTACK()
```

### Event 732

#### Metadata

| Field        | Value     |
|--------------|-----------|
| Entrypoint   | 0x0045    |
| Data Size    | 794 bytes |
| Instructions | 109       |

```
      00 01 02 03 04 05 06 07  08 09 0A 0B 0C 0D 0E 0F
      -- -- -- -- -- -- -- --  -- -- -- -- -- -- -- --
0040:                20 01 42  46 01 5D 0D 80 0E 80 45        .BF.]....E
0050: 0F 80 F8 FF FF 7F F8 FF  FF 7F 66 64 6F 31 0D 80  ..........fdo1..
0060: 1C 0E 80 38 10 80 29 08  F0 FF FF 7F 39 75 00 11  ...8..).....9u..
0070: 80 75 01 29 0B F0 FF FF  7F 41 4E 00 1A 60 0E 01  .u.).....AN..`..
0080: 80 1A 60 0E 01 4A 1A 60  0E 01 F0 FF FF 7F 4A F0  ..`..J.`......J.
0090: FF FF 7F 1A 60 0E 01 6F  76 1A 60 0E 01 92 01 1A  ....`..ov.`.....
00A0: 60 0E 01 5C 00 12 80 5C  01 12 80 45 13 80 F8 FF  `..\...\...E....
00B0: FF 7F F8 FF FF 7F 73 30  30 30 0D 80 45 0F 80 F8  ......s000..E...
00C0: FF FF 7F F8 FF FF 7F 66  64 69 31 0D 80 29 08 1A  .......fdi1..)..
00D0: 60 0E 01 02 2B 1A 60 0E  01 14 80 23 2B 1A 60 0E  `...+.`....#+.`.
00E0: 01 15 80 23 29 08 1A 60  0E 01 03 52 13 80 F8 FF  ...#)..`...R....
00F0: FF 7F F8 FF FF 7F 73 30  30 30 45 13 80 F8 FF FF  ......s000E.....
0100: 7F F8 FF FF 7F 73 30 30  31 0D 80 29 08 1A 60 0E  .....s001..)..`.
0110: 01 04 2B 1A 60 0E 01 16  80 23 2B 1A 60 0E 01 17  ..+.`....#+.`...
0120: 80 23 29 08 1A 60 0E 01  05 29 08 1A 60 0E 01 06  .#)..`...)..`...
0130: 2B 1A 60 0E 01 18 80 23  29 08 1A 60 0E 01 07 52  +.`....#)..`...R
0140: 13 80 F8 FF FF 7F F8 FF  FF 7F 73 30 30 31 24 19  ..........s001$.
0150: 80 0D 80 0D 80 25 02 00  10 0D 80 00 FE 01 03 01  .....%..........
0160: 10 1A 80 02 09 10 1B 80  00 7F 01 45 13 80 F8 FF  ...........E....
0170: FF 7F F8 FF FF 7F 73 30  30 33 0D 80 01 E4 01 02  ......s003......
0180: 09 10 1C 80 00 9B 01 45  13 80 F8 FF FF 7F F8 FF  .......E........
0190: FF 7F 73 30 30 34 0D 80  01 E4 01 02 09 10 1D 80  ..s004..........
01A0: 00 B7 01 45 13 80 F8 FF  FF 7F F8 FF FF 7F 73 30  ...E..........s0
01B0: 30 34 0D 80 01 E4 01 02  09 10 1E 80 00 D3 01 45  04.............E
01C0: 13 80 F8 FF FF 7F F8 FF  FF 7F 73 30 30 33 0D 80  ..........s003..
01D0: 01 E4 01 45 13 80 F8 FF  FF 7F F8 FF FF 7F 73 30  ...E..........s0
01E0: 30 32 0D 80 29 08 1A 60  0E 01 02 2B 1A 60 0E 01  02..)..`...+.`..
01F0: 1F 80 23 2B 1A 60 0E 01  20 80 23 01 9E 02 02 00  ..#+.`.. .#.....
0200: 10 1A 80 00 9E 02 03 01  10 21 80 02 09 10 1B 80  .........!......
0210: 00 27 02 45 13 80 F8 FF  FF 7F F8 FF FF 7F 73 30  .'.E..........s0
0220: 30 33 0D 80 01 8C 02 02  09 10 1C 80 00 43 02 45  03...........C.E
0230: 13 80 F8 FF FF 7F F8 FF  FF 7F 73 30 30 34 0D 80  ..........s004..
0240: 01 8C 02 02 09 10 1D 80  00 5F 02 45 13 80 F8 FF  ........._.E....
0250: FF 7F F8 FF FF 7F 73 30  30 34 0D 80 01 8C 02 02  ......s004......
0260: 09 10 1E 80 00 7B 02 45  13 80 F8 FF FF 7F F8 FF  .....{.E........
0270: FF 7F 73 30 30 33 0D 80  01 8C 02 45 13 80 F8 FF  ..s003.....E....
0280: FF 7F F8 FF FF 7F 73 30  30 32 0D 80 29 08 1A 60  ......s002..)..`
0290: 0E 01 02 2B 1A 60 0E 01  22 80 23 01 9E 02 5D 0D  ...+.`..".#...].
02A0: 80 0E 80 45 0F 80 F0 FF  FF 7F F0 FF FF 7F 66 64  ...E..........fd
02B0: 6F 31 0D 80 1C 0E 80 02  09 10 1B 80 00 D1 02 52  o1.............R
02C0: 13 80 F8 FF FF 7F F8 FF  FF 7F 73 30 30 33 01 2E  ..........s003..
02D0: 03 02 09 10 1C 80 00 EB  02 52 13 80 F8 FF FF 7F  .........R......
02E0: F8 FF FF 7F 73 30 30 34  01 2E 03 02 09 10 1D 80  ....s004........
02F0: 00 05 03 52 13 80 F8 FF  FF 7F F8 FF FF 7F 73 30  ...R..........s0
0300: 30 34 01 2E 03 02 09 10  1E 80 00 1F 03 52 13 80  04...........R..
0310: F8 FF FF 7F F8 FF FF 7F  73 30 30 33 01 2E 03 52  ........s003...R
0320: 13 80 F8 FF FF 7F F8 FF  FF 7F 73 30 30 32 29 08  ..........s002).
0330: 1A 60 0E 01 03 5C 00 23  80 5C 01 23 80 4E 00 F0  .`...\.#.\.#.N..
0340: FF FF 7F 80 F0 FF FF 7F  46 00 45 0F 80 F0 FF FF  ........F.E.....
0350: 7F F0 FF FF 7F 66 64 69  31 0D 80 20 00 21 00     .....fdi1.. .!. 
```

#### Opcodes

```
  0: 0x0045 [0x20] SET_CLI_EVENT_UC_FLAG: Lock player control
  1: 0x0047 [0x42] SET_CLI_EVENT_CANCEL_DATA()
  2: 0x0048 [0x46] CAMERA_CONTROL: Disable user control
  3: 0x004A [0x5D] SET_MUSIC_VOLUME(volume=0*, fade_time=120*)
  4: 0x004F [0x45] LOAD_SCHEDULED_TASK: Load scheduler "fdo1" with entities [EventEntity, EventEntity], work=[200*, 0*]
  5: 0x0060 [0x1C] WAIT(120* ticks)
  6: 0x0063 [0x38] SET_CLIENT_EVENT_MODE(mode=19*)
  7: 0x0066 [0x29] REQ_SET_WAIT(priority=0x08, entity_id=LocalPlayer, tag_num=0x39)
  8: 0x006D [0x75] LOAD_ROOM(Load indoor room, room=337*)
  9: 0x0071 [0x75] LOAD_ROOM(No action)
 10: 0x0073 [0x29] REQ_SET_WAIT(priority=0x0B, entity_id=LocalPlayer, tag_num=0x41)
 11: 0x007A [0x4E] SET_ENTITY_HIDE_FLAG: Show Sobane (ID: 17719322/0x010E601A)
 12: 0x0080 [0x80] LOAD_WAIT(entity=Sobane (ID: 17719322/0x010E601A))
 13: 0x0085 [0x4A] Sobane (ID: 17719322/0x010E601A) looks at LocalPlayer
 14: 0x008E [0x4A] LocalPlayer looks at Sobane (ID: 17719322/0x010E601A)
 15: 0x0097 [0x6F] WAIT_FRAME_DELAY: Yield until WaitTime reaches zero
 16: 0x0098 [0x76] CHECK_ENTITY_RENDER_FLAGS: Wait until Sobane (ID: 17719322/0x010E601A) Render.Flags0 and Render.Flags3 conditions are met
 17: 0x009D [0x92] Sobane (ID: 17719322/0x010E601A)->Render.Flags3 ^= 0x01
 18: 0x00A3 [0x5C] MUSIC_CONTROL: Set Idle (Day) music to song 127*
 19: 0x00A7 [0x5C] MUSIC_CONTROL: Set Idle (Night) music to song 127*
 20: 0x00AB [0x45] LOAD_SCHEDULED_TASK: Load scheduler "s000" with entities [EventEntity, EventEntity], work=[24*, 0*]
 21: 0x00BC [0x45] LOAD_SCHEDULED_TASK: Load scheduler "fdi1" with entities [EventEntity, EventEntity], work=[200*, 0*]
 22: 0x00CD [0x29] REQ_SET_WAIT(priority=0x08, entity_id=Sobane (ID: 17719322/0x010E601A), tag_num=0x02)
 23: 0x00D4 [0x2B] Sobane (ID: 17719322/0x010E601A) [9774*]:
    → "My name is Sobane, and my husband is the royal family's head chef."
 24: 0x00DB [0x23] WAIT_FOR_DIALOG_INTERACTION
 25: 0x00DC [0x2B] Sobane (ID: 17719322/0x010E601A) [9775*]:
    → "Just recently, he told me the most unsettling news. Thus I was impelled to seek the aid of an adventurer..."
 26: 0x00E3 [0x23] WAIT_FOR_DIALOG_INTERACTION
 27: 0x00E4 [0x29] REQ_SET_WAIT(priority=0x08, entity_id=Sobane (ID: 17719322/0x010E601A), tag_num=0x03)
 28: 0x00EB [0x52] END_LOAD_SCHEDULER: End scheduler "s000" with entities [EventEntity, EventEntity], work=24*
 29: 0x00FA [0x45] LOAD_SCHEDULED_TASK: Load scheduler "s001" with entities [EventEntity, EventEntity], work=[24*, 0*]
 30: 0x010B [0x29] REQ_SET_WAIT(priority=0x08, entity_id=Sobane (ID: 17719322/0x010E601A), tag_num=0x04)
 31: 0x0112 [0x2B] Sobane (ID: 17719322/0x010E601A) [9776*]:
    → "If word of my request reaches the wrong ears, it may place my family in danger."
 32: 0x0119 [0x23] WAIT_FOR_DIALOG_INTERACTION
 33: 0x011A [0x2B] Sobane (ID: 17719322/0x010E601A) [9777*]:
    → "Should you decide to take up my request, would you be willing to swear a blood oath?"
 34: 0x0121 [0x23] WAIT_FOR_DIALOG_INTERACTION
 35: 0x0122 [0x29] REQ_SET_WAIT(priority=0x08, entity_id=Sobane (ID: 17719322/0x010E601A), tag_num=0x05)
 36: 0x0129 [0x29] REQ_SET_WAIT(priority=0x08, entity_id=Sobane (ID: 17719322/0x010E601A), tag_num=0x06)
 37: 0x0130 [0x2B] Sobane (ID: 17719322/0x010E601A) [9778*]:
    → "You must swear to Altana, Goddess of the Dawn, to breathe not a single syllable of this matter to anyone..."
 38: 0x0137 [0x23] WAIT_FOR_DIALOG_INTERACTION
 39: 0x0138 [0x29] REQ_SET_WAIT(priority=0x08, entity_id=Sobane (ID: 17719322/0x010E601A), tag_num=0x07)
 40: 0x013F [0x52] END_LOAD_SCHEDULER: End scheduler "s001" with entities [EventEntity, EventEntity], work=24*
 41: 0x014E [0x24] CREATE_DIALOG(message_id=9779*, default_option=0*, option_flags=0*)
    → "Do you swear? [On my honor./Only when I hurt myself...]"
 42: 0x0155 [0x25] WAIT_DIALOG_SELECT()
 43: 0x0156 [0x02] IF !(Work_Zone[0] == 0*) GOTO 0x01FE
 44: 0x015E [0x03] Work_Zone[1] = 1*
 45: 0x0163 [0x02] IF !(Work_Zone[9] == 3*) GOTO 0x017F
 46: 0x016B [0x45] LOAD_SCHEDULED_TASK: Load scheduler "s003" with entities [EventEntity, EventEntity], work=[24*, 0*]
 47: 0x017C [0x01] GOTO 0x01E4
 48: 0x017F [0x02] IF !(Work_Zone[9] == 5*) GOTO 0x019B
 49: 0x0187 [0x45] LOAD_SCHEDULED_TASK: Load scheduler "s004" with entities [EventEntity, EventEntity], work=[24*, 0*]
 50: 0x0198 [0x01] GOTO 0x01E4
 51: 0x019B [0x02] IF !(Work_Zone[9] == 6*) GOTO 0x01B7
 52: 0x01A3 [0x45] LOAD_SCHEDULED_TASK: Load scheduler "s004" with entities [EventEntity, EventEntity], work=[24*, 0*]
 53: 0x01B4 [0x01] GOTO 0x01E4
 54: 0x01B7 [0x02] IF !(Work_Zone[9] == 8*) GOTO 0x01D3
 55: 0x01BF [0x45] LOAD_SCHEDULED_TASK: Load scheduler "s003" with entities [EventEntity, EventEntity], work=[24*, 0*]
 56: 0x01D0 [0x01] GOTO 0x01E4
 57: 0x01D3 [0x45] LOAD_SCHEDULED_TASK: Load scheduler "s002" with entities [EventEntity, EventEntity], work=[24*, 0*]

SUBROUTINE_01E4:
 58: 0x01E4 [0x29] REQ_SET_WAIT(priority=0x08, entity_id=Sobane (ID: 17719322/0x010E601A), tag_num=0x02)
 59: 0x01EB [0x2B] Sobane (ID: 17719322/0x010E601A) [9780*]:
    → "My thanks. As proof of your oath, I ask that you bring me $1."
 60: 0x01F2 [0x23] WAIT_FOR_DIALOG_INTERACTION
 61: 0x01F3 [0x2B] Sobane (ID: 17719322/0x010E601A) [9781*]:
    → "My family's fate is in your hands."
 62: 0x01FA [0x23] WAIT_FOR_DIALOG_INTERACTION
 63: 0x01FB [0x01] GOTO 0x029E
 64: 0x01FE [0x02] IF !(Work_Zone[0] == 1*) GOTO 0x029E
 65: 0x0206 [0x03] Work_Zone[1] = 2*
 66: 0x020B [0x02] IF !(Work_Zone[9] == 3*) GOTO 0x0227
 67: 0x0213 [0x45] LOAD_SCHEDULED_TASK: Load scheduler "s003" with entities [EventEntity, EventEntity], work=[24*, 0*]
 68: 0x0224 [0x01] GOTO 0x028C
 69: 0x0227 [0x02] IF !(Work_Zone[9] == 5*) GOTO 0x0243
 70: 0x022F [0x45] LOAD_SCHEDULED_TASK: Load scheduler "s004" with entities [EventEntity, EventEntity], work=[24*, 0*]
 71: 0x0240 [0x01] GOTO 0x028C
 72: 0x0243 [0x02] IF !(Work_Zone[9] == 6*) GOTO 0x025F
 73: 0x024B [0x45] LOAD_SCHEDULED_TASK: Load scheduler "s004" with entities [EventEntity, EventEntity], work=[24*, 0*]
 74: 0x025C [0x01] GOTO 0x028C
 75: 0x025F [0x02] IF !(Work_Zone[9] == 8*) GOTO 0x027B
 76: 0x0267 [0x45] LOAD_SCHEDULED_TASK: Load scheduler "s003" with entities [EventEntity, EventEntity], work=[24*, 0*]
 77: 0x0278 [0x01] GOTO 0x028C
 78: 0x027B [0x45] LOAD_SCHEDULED_TASK: Load scheduler "s002" with entities [EventEntity, EventEntity], work=[24*, 0*]

SUBROUTINE_028C:
 79: 0x028C [0x29] REQ_SET_WAIT(priority=0x08, entity_id=Sobane (ID: 17719322/0x010E601A), tag_num=0x02)
 80: 0x0293 [0x2B] Sobane (ID: 17719322/0x010E601A) [9782*]:
    → "I see. It was foolish of me to expect an adventurer to accept such a binding agreement. I will think of some other way..."
 81: 0x029A [0x23] WAIT_FOR_DIALOG_INTERACTION
 82: 0x029B [0x01] GOTO 0x029E

SUBROUTINE_029E:
 83: 0x029E [0x5D] SET_MUSIC_VOLUME(volume=0*, fade_time=120*)
 84: 0x02A3 [0x45] LOAD_SCHEDULED_TASK: Load scheduler "fdo1" with entities [LocalPlayer, LocalPlayer], work=[200*, 0*]
 85: 0x02B4 [0x1C] WAIT(120* ticks)
 86: 0x02B7 [0x02] IF !(Work_Zone[9] == 3*) GOTO 0x02D1
 87: 0x02BF [0x52] END_LOAD_SCHEDULER: End scheduler "s003" with entities [EventEntity, EventEntity], work=24*
 88: 0x02CE [0x01] GOTO 0x032E
 89: 0x02D1 [0x02] IF !(Work_Zone[9] == 5*) GOTO 0x02EB
 90: 0x02D9 [0x52] END_LOAD_SCHEDULER: End scheduler "s004" with entities [EventEntity, EventEntity], work=24*
 91: 0x02E8 [0x01] GOTO 0x032E
 92: 0x02EB [0x02] IF !(Work_Zone[9] == 6*) GOTO 0x0305
 93: 0x02F3 [0x52] END_LOAD_SCHEDULER: End scheduler "s004" with entities [EventEntity, EventEntity], work=24*
 94: 0x0302 [0x01] GOTO 0x032E
 95: 0x0305 [0x02] IF !(Work_Zone[9] == 8*) GOTO 0x031F
 96: 0x030D [0x52] END_LOAD_SCHEDULER: End scheduler "s003" with entities [EventEntity, EventEntity], work=24*
 97: 0x031C [0x01] GOTO 0x032E
 98: 0x031F [0x52] END_LOAD_SCHEDULER: End scheduler "s002" with entities [EventEntity, EventEntity], work=24*

SUBROUTINE_032E:
 99: 0x032E [0x29] REQ_SET_WAIT(priority=0x08, entity_id=Sobane (ID: 17719322/0x010E601A), tag_num=0x03)
100: 0x0335 [0x5C] MUSIC_CONTROL: Set Idle (Day) music to song 107*
101: 0x0339 [0x5C] MUSIC_CONTROL: Set Idle (Night) music to song 107*
102: 0x033D [0x4E] SET_ENTITY_HIDE_FLAG: Show LocalPlayer
103: 0x0343 [0x80] LOAD_WAIT(entity=LocalPlayer)
104: 0x0348 [0x46] CAMERA_CONTROL: Restore default settings
105: 0x034A [0x45] LOAD_SCHEDULED_TASK: Load scheduler "fdi1" with entities [LocalPlayer, LocalPlayer], work=[200*, 0*]
106: 0x035B [0x20] SET_CLI_EVENT_UC_FLAG: Unlock player control
107: 0x035D [0x21] END_EVENT
108: 0x035E [0x00] END_REQSTACK()
```

### Event 734

#### Metadata

| Field        | Value      |
|--------------|------------|
| Entrypoint   | 0x035F     |
| Data Size    | 1720 bytes |
| Instructions | 250        |

```
      00 01 02 03 04 05 06 07  08 09 0A 0B 0C 0D 0E 0F
      -- -- -- -- -- -- -- --  -- -- -- -- -- -- -- --
0350:                                               20                  
0360: 01 42 46 01 5D 0D 80 0E  80 45 0F 80 F8 FF FF 7F  .BF.]....E......
0370: F8 FF FF 7F 66 64 6F 31  0D 80 1C 0E 80 38 10 80  ....fdo1.....8..
0380: 29 08 F0 FF FF 7F 39 75  00 11 80 75 01 29 0B F0  ).....9u...u.)..
0390: FF FF 7F 41 4E 00 1A 60  0E 01 80 1A 60 0E 01 4A  ...AN..`....`..J
03A0: F0 FF FF 7F 1A 60 0E 01  4A 1A 60 0E 01 F0 FF FF  .....`..J.`.....
03B0: 7F 6F 76 1A 60 0E 01 92  01 1A 60 0E 01 5C 00 12  .ov.`.....`..\..
03C0: 80 5C 01 12 80 02 09 10  1B 80 00 E1 03 45 13 80  .\...........E..
03D0: F8 FF FF 7F F8 FF FF 7F  73 30 30 33 0D 80 01 46  ........s003...F
03E0: 04 02 09 10 1C 80 00 FD  03 45 13 80 F8 FF FF 7F  .........E......
03F0: F8 FF FF 7F 73 30 30 34  0D 80 01 46 04 02 09 10  ....s004...F....
0400: 1D 80 00 19 04 45 13 80  F8 FF FF 7F F8 FF FF 7F  .....E..........
0410: 73 30 30 34 0D 80 01 46  04 02 09 10 1E 80 00 35  s004...F.......5
0420: 04 45 13 80 F8 FF FF 7F  F8 FF FF 7F 73 30 30 33  .E..........s003
0430: 0D 80 01 46 04 45 13 80  F8 FF FF 7F F8 FF FF 7F  ...F.E..........
0440: 73 30 30 32 0D 80 45 0F  80 F8 FF FF 7F F8 FF FF  s002..E.........
0450: 7F 66 64 69 31 0D 80 29  08 1A 60 0E 01 04 2B 1A  .fdi1..)..`...+.
0460: 60 0E 01 24 80 23 29 08  1A 60 0E 01 05 29 08 1A  `..$.#)..`...)..
0470: 60 0E 01 06 2B 1A 60 0E  01 25 80 23 45 0F 80 F8  `...+.`..%.#E...
0480: FF FF 7F F8 FF FF 7F 66  64 6F 31 0D 80 1C 26 80  .......fdo1...&.
0490: 29 08 1A 60 0E 01 07 02  09 10 1B 80 00 B1 04 52  )..`...........R
04A0: 13 80 F8 FF FF 7F F8 FF  FF 7F 73 30 30 33 01 0E  ..........s003..
04B0: 05 02 09 10 1C 80 00 CB  04 52 13 80 F8 FF FF 7F  .........R......
04C0: F8 FF FF 7F 73 30 30 34  01 0E 05 02 09 10 1D 80  ....s004........
04D0: 00 E5 04 52 13 80 F8 FF  FF 7F F8 FF FF 7F 73 30  ...R..........s0
04E0: 30 34 01 0E 05 02 09 10  1E 80 00 FF 04 52 13 80  04...........R..
04F0: F8 FF FF 7F F8 FF FF 7F  73 30 30 33 01 0E 05 52  ........s003...R
0500: 13 80 F8 FF FF 7F F8 FF  FF 7F 73 30 30 32 4E 01  ..........s002N.
0510: 1A 60 0E 01 34 27 80 77  28 80 1A 80 1C 29 80 4E  .`..4'.w(....).N
0520: 00 E1 60 0E 01 4E 00 E2  60 0E 01 4E 00 E3 60 0E  ..`..N..`..N..`.
0530: 01 4E 00 E4 60 0E 01 4E  00 E5 60 0E 01 4E 00 E6  .N..`..N..`..N..
0540: 60 0E 01 4E 00 E7 60 0E  01 4E 00 E8 60 0E 01 80  `..N..`..N..`...
0550: E1 60 0E 01 80 E2 60 0E  01 80 E3 60 0E 01 80 E4  .`....`....`....
0560: 60 0E 01 80 E5 60 0E 01  80 E6 60 0E 01 80 E7 60  `....`....`....`
0570: 0E 01 80 E8 60 0E 01 92  01 E1 60 0E 01 92 01 E2  ....`.....`.....
0580: 60 0E 01 92 01 E3 60 0E  01 92 01 E4 60 0E 01 92  `.....`.....`...
0590: 01 E5 60 0E 01 92 01 E6  60 0E 01 92 01 E7 60 0E  ..`.....`.....`.
05A0: 01 92 01 E8 60 0E 01 29  08 E5 60 0E 01 17 29 08  ....`..)..`...).
05B0: E6 60 0E 01 17 29 08 E7  60 0E 01 17 29 08 E8 60  .`...)..`...)..`
05C0: 0E 01 17 29 08 E5 60 0E  01 18 29 08 E6 60 0E 01  ...)..`...)..`..
05D0: 18 29 08 E7 60 0E 01 18  29 08 E8 60 0E 01 18 29  .)..`...)..`...)
05E0: 0B E4 60 0E 01 40 29 0B  E5 60 0E 01 40 29 0B E6  ..`..@)..`..@)..
05F0: 60 0E 01 40 29 0B E7 60  0E 01 40 29 0B E8 60 0E  `..@)..`..@)..`.
0600: 01 40 29 0B E3 60 0E 01  03 29 0B E2 60 0E 01 03  .@)..`...)..`...
0610: 29 0B E1 60 0E 01 10 27  0B E4 60 0E 01 41 45 13  )..`...'..`..AE.
0620: 80 F8 FF FF 7F F8 FF FF  7F 73 30 30 35 0D 80 45  .........s005..E
0630: 0F 80 F8 FF FF 7F F8 FF  FF 7F 66 64 69 31 0D 80  ..........fdi1..
0640: 2B 1A 60 0E 01 2A 80 23  2B 1A 60 0E 01 2B 80 23  +.`..*.#+.`..+.#
0650: 45 0F 80 F8 FF FF 7F F8  FF FF 7F 66 64 6F 31 0D  E..........fdo1.
0660: 80 1C 26 80 2A 0B E4 60  0E 01 52 13 80 F8 FF FF  ..&.*..`..R.....
0670: 7F F8 FF FF 7F 73 30 30  35 4E 01 E1 60 0E 01 4E  .....s005N..`..N
0680: 01 E2 60 0E 01 4E 01 E3  60 0E 01 4E 01 E5 60 0E  ..`..N..`..N..`.
0690: 01 4E 01 E6 60 0E 01 4E  01 E7 60 0E 01 4E 01 E8  .N..`..N..`..N..
06A0: 60 0E 01 34 21 80 77 28  80 1A 80 1C 29 80 45 13  `..4!.w(....).E.
06B0: 80 F8 FF FF 7F F8 FF FF  7F 73 30 30 36 0D 80 45  .........s006..E
06C0: 0F 80 F8 FF FF 7F F8 FF  FF 7F 66 64 69 31 0D 80  ..........fdi1..
06D0: 1C 26 80 2B 1A 60 0E 01  2C 80 23 2B 1A 60 0E 01  .&.+.`..,.#+.`..
06E0: 2D 80 23 2B 1A 60 0E 01  2E 80 23 1C 26 80 45 0F  -.#+.`....#.&.E.
06F0: 80 F8 FF FF 7F F8 FF FF  7F 66 64 6F 31 0D 80 1C  .........fdo1...
0700: 26 80 52 13 80 F8 FF FF  7F F8 FF FF 7F 73 30 30  &.R..........s00
0710: 36 34 27 80 77 28 80 1A  80 1C 29 80 75 00 2F 80  64'.w(....).u./.
0720: 75 01 4E 00 E9 60 0E 01  4E 00 EA 60 0E 01 80 E9  u.N..`..N..`....
0730: 60 0E 01 80 EA 60 0E 01  92 01 EA 60 0E 01 92 01  `....`.....`....
0740: E9 60 0E 01 29 0B E4 60  0E 01 42 29 0B E9 60 0E  .`..)..`..B)..`.
0750: 01 03 29 0B EA 60 0E 01  03 27 0B E9 60 0E 01 04  ..)..`...'..`...
0760: 45 13 80 F8 FF FF 7F F8  FF FF 7F 73 30 31 31 0D  E..........s011.
0770: 80 45 0F 80 F8 FF FF 7F  F8 FF FF 7F 66 64 69 31  .E..........fdi1
0780: 0D 80 1C 26 80 2B 1A 60  0E 01 30 80 23 1C 26 80  ...&.+.`..0.#.&.
0790: 45 0F 80 F8 FF FF 7F F8  FF FF 7F 66 64 6F 31 0D  E..........fdo1.
07A0: 80 1C 26 80 2A 0B E9 60  0E 01 52 13 80 F8 FF FF  ..&.*..`..R.....
07B0: 7F F8 FF FF 7F 73 30 31  31 79 00 E9 60 0E 01 EA  .....s011y..`...
07C0: 60 0E 01 79 00 E4 60 0E  01 E9 60 0E 01 27 0B E9  `..y..`...`..'..
07D0: 60 0E 01 05 27 0B EA 60  0E 01 04 45 13 80 F8 FF  `...'..`...E....
07E0: FF 7F F8 FF FF 7F 73 30  31 32 0D 80 45 0F 80 F8  ......s012..E...
07F0: FF FF 7F F8 FF FF 7F 66  64 69 31 0D 80 1C 26 80  .......fdi1...&.
0800: 2B 1A 60 0E 01 31 80 23  1C 26 80 45 0F 80 F8 FF  +.`..1.#.&.E....
0810: FF 7F F8 FF FF 7F 66 64  6F 31 0D 80 1C 26 80 52  ......fdo1...&.R
0820: 13 80 F8 FF FF 7F F8 FF  FF 7F 73 30 31 32 2A 0B  ..........s012*.
0830: E9 60 0E 01 2A 0B EA 60  0E 01 4E 01 E4 60 0E 01  .`..*..`..N..`..
0840: 4E 01 E9 60 0E 01 4E 01  EA 60 0E 01 2B 1A 60 0E  N..`..N..`..+.`.
0850: 01 32 80 23 35 33 80 78  1C 34 80 75 00 11 80 75  .2.#53.x.4.u...u
0860: 01 29 0B F0 FF FF 7F 41  29 0B 1A 60 0E 01 25 4E  .).....A)..`..%N
0870: 00 1A 60 0E 01 80 1A 60  0E 01 4A F0 FF FF 7F 1A  ..`....`..J.....
0880: 60 0E 01 4A 1A 60 0E 01  F0 FF FF 7F 6F 76 1A 60  `..J.`......ov.`
0890: 0E 01 2B 1A 60 0E 01 35  80 23 2B 1A 60 0E 01 36  ..+.`..5.#+.`..6
08A0: 80 23 45 13 80 F8 FF FF  7F F8 FF FF 7F 73 30 30  .#E..........s00
08B0: 37 0D 80 45 0F 80 F8 FF  FF 7F F8 FF FF 7F 66 64  7..E..........fd
08C0: 69 31 0D 80 29 08 1A 60  0E 01 04 2B 1A 60 0E 01  i1..)..`...+.`..
08D0: 37 80 23 2B 1A 60 0E 01  38 80 23 29 08 1A 60 0E  7.#+.`..8.#)..`.
08E0: 01 05 29 08 1A 60 0E 01  06 52 13 80 F8 FF FF 7F  ..)..`...R......
08F0: F8 FF FF 7F 73 30 30 37  45 13 80 F8 FF FF 7F F8  ....s007E.......
0900: FF FF 7F 73 30 30 38 0D  80 2B 1A 60 0E 01 39 80  ...s008..+.`..9.
0910: 23 29 08 1A 60 0E 01 07  29 08 1A 60 0E 01 02 2B  #)..`...)..`...+
0920: 1A 60 0E 01 3A 80 23 29  08 1A 60 0E 01 03 2B 1A  .`..:.#)..`...+.
0930: 60 0E 01 3B 80 23 52 13  80 F8 FF FF 7F F8 FF FF  `..;.#R.........
0940: 7F 73 30 30 38 45 13 80  F8 FF FF 7F F8 FF FF 7F  .s008E..........
0950: 73 30 30 39 0D 80 7B 1A  60 0E 01 27 0B 1A 60 0E  s009..{.`..'..`.
0960: 01 26 2B 1A 60 0E 01 3C  80 23 2B 1A 60 0E 01 3D  .&+.`..<.#+.`..=
0970: 80 23 2A 0B 1A 60 0E 01  52 13 80 F8 FF FF 7F F8  .#*..`..R.......
0980: FF FF 7F 73 30 30 39 45  13 80 F8 FF FF 7F F8 FF  ...s009E........
0990: FF 7F 73 30 31 30 0D 80  4A 1A 60 0E 01 F0 FF FF  ..s010..J.`.....
09A0: 7F 6F 76 1A 60 0E 01 29  08 1A 60 0E 01 02 2B 1A  .ov.`..)..`...+.
09B0: 60 0E 01 3E 80 23 2B 1A  60 0E 01 3F 80 23 5D 0D  `..>.#+.`..?.#].
09C0: 80 0E 80 45 0F 80 F0 FF  FF 7F F0 FF FF 7F 66 64  ...E..........fd
09D0: 6F 31 0D 80 1C 0E 80 5C  00 23 80 5C 01 23 80 29  o1.....\.#.\.#.)
09E0: 08 1A 60 0E 01 03 52 13  80 F8 FF FF 7F F8 FF FF  ..`...R.........
09F0: 7F 73 30 31 30 4E 00 F0  FF FF 7F 80 F0 FF FF 7F  .s010N..........
0A00: 46 00 45 0F 80 F0 FF FF  7F F0 FF FF 7F 66 64 69  F.E..........fdi
0A10: 31 0D 80 20 00 21 00                              1.. .!.         
```

#### Opcodes

```
  0: 0x035F [0x20] SET_CLI_EVENT_UC_FLAG: Lock player control
  1: 0x0361 [0x42] SET_CLI_EVENT_CANCEL_DATA()
  2: 0x0362 [0x46] CAMERA_CONTROL: Disable user control
  3: 0x0364 [0x5D] SET_MUSIC_VOLUME(volume=0*, fade_time=120*)
  4: 0x0369 [0x45] LOAD_SCHEDULED_TASK: Load scheduler "fdo1" with entities [EventEntity, EventEntity], work=[200*, 0*]
  5: 0x037A [0x1C] WAIT(120* ticks)
  6: 0x037D [0x38] SET_CLIENT_EVENT_MODE(mode=19*)
  7: 0x0380 [0x29] REQ_SET_WAIT(priority=0x08, entity_id=LocalPlayer, tag_num=0x39)
  8: 0x0387 [0x75] LOAD_ROOM(Load indoor room, room=337*)
  9: 0x038B [0x75] LOAD_ROOM(No action)
 10: 0x038D [0x29] REQ_SET_WAIT(priority=0x0B, entity_id=LocalPlayer, tag_num=0x41)
 11: 0x0394 [0x4E] SET_ENTITY_HIDE_FLAG: Show Sobane (ID: 17719322/0x010E601A)
 12: 0x039A [0x80] LOAD_WAIT(entity=Sobane (ID: 17719322/0x010E601A))
 13: 0x039F [0x4A] LocalPlayer looks at Sobane (ID: 17719322/0x010E601A)
 14: 0x03A8 [0x4A] Sobane (ID: 17719322/0x010E601A) looks at LocalPlayer
 15: 0x03B1 [0x6F] WAIT_FRAME_DELAY: Yield until WaitTime reaches zero
 16: 0x03B2 [0x76] CHECK_ENTITY_RENDER_FLAGS: Wait until Sobane (ID: 17719322/0x010E601A) Render.Flags0 and Render.Flags3 conditions are met
 17: 0x03B7 [0x92] Sobane (ID: 17719322/0x010E601A)->Render.Flags3 ^= 0x01
 18: 0x03BD [0x5C] MUSIC_CONTROL: Set Idle (Day) music to song 127*
 19: 0x03C1 [0x5C] MUSIC_CONTROL: Set Idle (Night) music to song 127*
 20: 0x03C5 [0x02] IF !(Work_Zone[9] == 3*) GOTO 0x03E1
 21: 0x03CD [0x45] LOAD_SCHEDULED_TASK: Load scheduler "s003" with entities [EventEntity, EventEntity], work=[24*, 0*]
 22: 0x03DE [0x01] GOTO 0x0446
 23: 0x03E1 [0x02] IF !(Work_Zone[9] == 5*) GOTO 0x03FD
 24: 0x03E9 [0x45] LOAD_SCHEDULED_TASK: Load scheduler "s004" with entities [EventEntity, EventEntity], work=[24*, 0*]
 25: 0x03FA [0x01] GOTO 0x0446
 26: 0x03FD [0x02] IF !(Work_Zone[9] == 6*) GOTO 0x0419
 27: 0x0405 [0x45] LOAD_SCHEDULED_TASK: Load scheduler "s004" with entities [EventEntity, EventEntity], work=[24*, 0*]
 28: 0x0416 [0x01] GOTO 0x0446
 29: 0x0419 [0x02] IF !(Work_Zone[9] == 8*) GOTO 0x0435
 30: 0x0421 [0x45] LOAD_SCHEDULED_TASK: Load scheduler "s003" with entities [EventEntity, EventEntity], work=[24*, 0*]
 31: 0x0432 [0x01] GOTO 0x0446
 32: 0x0435 [0x45] LOAD_SCHEDULED_TASK: Load scheduler "s002" with entities [EventEntity, EventEntity], work=[24*, 0*]

SUBROUTINE_0446:
 33: 0x0446 [0x45] LOAD_SCHEDULED_TASK: Load scheduler "fdi1" with entities [EventEntity, EventEntity], work=[200*, 0*]
 34: 0x0457 [0x29] REQ_SET_WAIT(priority=0x08, entity_id=Sobane (ID: 17719322/0x010E601A), tag_num=0x04)
 35: 0x045E [0x2B] Sobane (ID: 17719322/0x010E601A) [9784*]:
    → "Thank you, adventurer. I accept this $1 as proof of your word."
 36: 0x0465 [0x23] WAIT_FOR_DIALOG_INTERACTION
 37: 0x0466 [0x29] REQ_SET_WAIT(priority=0x08, entity_id=Sobane (ID: 17719322/0x010E601A), tag_num=0x05)
 38: 0x046D [0x29] REQ_SET_WAIT(priority=0x08, entity_id=Sobane (ID: 17719322/0x010E601A), tag_num=0x06)
 39: 0x0474 [0x2B] Sobane (ID: 17719322/0x010E601A) [9785*]:
    → "I once again insist that you breathe not a word of this to anyone. Now, to the matter at hand."
 40: 0x047B [0x23] WAIT_FOR_DIALOG_INTERACTION
 41: 0x047C [0x45] LOAD_SCHEDULED_TASK: Load scheduler "fdo1" with entities [EventEntity, EventEntity], work=[200*, 0*]
 42: 0x048D [0x1C] WAIT(60* ticks)
 43: 0x0490 [0x29] REQ_SET_WAIT(priority=0x08, entity_id=Sobane (ID: 17719322/0x010E601A), tag_num=0x07)
 44: 0x0497 [0x02] IF !(Work_Zone[9] == 3*) GOTO 0x04B1
 45: 0x049F [0x52] END_LOAD_SCHEDULER: End scheduler "s003" with entities [EventEntity, EventEntity], work=24*
 46: 0x04AE [0x01] GOTO 0x050E
 47: 0x04B1 [0x02] IF !(Work_Zone[9] == 5*) GOTO 0x04CB
 48: 0x04B9 [0x52] END_LOAD_SCHEDULER: End scheduler "s004" with entities [EventEntity, EventEntity], work=24*
 49: 0x04C8 [0x01] GOTO 0x050E
 50: 0x04CB [0x02] IF !(Work_Zone[9] == 6*) GOTO 0x04E5
 51: 0x04D3 [0x52] END_LOAD_SCHEDULER: End scheduler "s004" with entities [EventEntity, EventEntity], work=24*
 52: 0x04E2 [0x01] GOTO 0x050E
 53: 0x04E5 [0x02] IF !(Work_Zone[9] == 8*) GOTO 0x04FF
 54: 0x04ED [0x52] END_LOAD_SCHEDULER: End scheduler "s003" with entities [EventEntity, EventEntity], work=24*
 55: 0x04FC [0x01] GOTO 0x050E
 56: 0x04FF [0x52] END_LOAD_SCHEDULER: End scheduler "s002" with entities [EventEntity, EventEntity], work=24*

SUBROUTINE_050E:
 57: 0x050E [0x4E] SET_ENTITY_HIDE_FLAG: Hide Sobane (ID: 17719322/0x010E601A)
 58: 0x0514 [0x34] LOAD_UNLOAD_ZONE(zone_id=233*)
 59: 0x0517 [0x77] SET_EVENT_TIME_WEATHER(hour=12*, weather=1*)
 60: 0x051C [0x1C] WAIT(90* ticks)
 61: 0x051F [0x4E] SET_ENTITY_HIDE_FLAG: Show Destin (ID: 17719521/0x010E60E1)
 62: 0x0525 [0x4E] SET_ENTITY_HIDE_FLAG: Show Unnamed NPC (ID: 17719522/0x010E60E2)
 63: 0x052B [0x4E] SET_ENTITY_HIDE_FLAG: Show Unnamed NPC (ID: 17719523/0x010E60E3)
 64: 0x0531 [0x4E] SET_ENTITY_HIDE_FLAG: Show Varonbiriaux (ID: 17719524/0x010E60E4)
 65: 0x0537 [0x4E] SET_ENTITY_HIDE_FLAG: Show Otomo01 (ID: 17719525/0x010E60E5)
 66: 0x053D [0x4E] SET_ENTITY_HIDE_FLAG: Show Otomo02 (ID: 17719526/0x010E60E6)
 67: 0x0543 [0x4E] SET_ENTITY_HIDE_FLAG: Show Otomo03 (ID: 17719527/0x010E60E7)
 68: 0x0549 [0x4E] SET_ENTITY_HIDE_FLAG: Show Otomo04 (ID: 17719528/0x010E60E8)
 69: 0x054F [0x80] LOAD_WAIT(entity=Destin (ID: 17719521/0x010E60E1))
 70: 0x0554 [0x80] LOAD_WAIT(entity=Unnamed NPC (ID: 17719522/0x010E60E2))
 71: 0x0559 [0x80] LOAD_WAIT(entity=Unnamed NPC (ID: 17719523/0x010E60E3))
 72: 0x055E [0x80] LOAD_WAIT(entity=Varonbiriaux (ID: 17719524/0x010E60E4))
 73: 0x0563 [0x80] LOAD_WAIT(entity=Otomo01 (ID: 17719525/0x010E60E5))
 74: 0x0568 [0x80] LOAD_WAIT(entity=Otomo02 (ID: 17719526/0x010E60E6))
 75: 0x056D [0x80] LOAD_WAIT(entity=Otomo03 (ID: 17719527/0x010E60E7))
 76: 0x0572 [0x80] LOAD_WAIT(entity=Otomo04 (ID: 17719528/0x010E60E8))
 77: 0x0577 [0x92] Destin (ID: 17719521/0x010E60E1)->Render.Flags3 ^= 0x01
 78: 0x057D [0x92] Unnamed NPC (ID: 17719522/0x010E60E2)->Render.Flags3 ^= 0x01
 79: 0x0583 [0x92] Unnamed NPC (ID: 17719523/0x010E60E3)->Render.Flags3 ^= 0x01
 80: 0x0589 [0x92] Varonbiriaux (ID: 17719524/0x010E60E4)->Render.Flags3 ^= 0x01
 81: 0x058F [0x92] Otomo01 (ID: 17719525/0x010E60E5)->Render.Flags3 ^= 0x01
 82: 0x0595 [0x92] Otomo02 (ID: 17719526/0x010E60E6)->Render.Flags3 ^= 0x01
 83: 0x059B [0x92] Otomo03 (ID: 17719527/0x010E60E7)->Render.Flags3 ^= 0x01
 84: 0x05A1 [0x92] Otomo04 (ID: 17719528/0x010E60E8)->Render.Flags3 ^= 0x01
 85: 0x05A7 [0x29] REQ_SET_WAIT(priority=0x08, entity_id=Otomo01 (ID: 17719525/0x010E60E5), tag_num=0x17)
 86: 0x05AE [0x29] REQ_SET_WAIT(priority=0x08, entity_id=Otomo02 (ID: 17719526/0x010E60E6), tag_num=0x17)
 87: 0x05B5 [0x29] REQ_SET_WAIT(priority=0x08, entity_id=Otomo03 (ID: 17719527/0x010E60E7), tag_num=0x17)
 88: 0x05BC [0x29] REQ_SET_WAIT(priority=0x08, entity_id=Otomo04 (ID: 17719528/0x010E60E8), tag_num=0x17)
 89: 0x05C3 [0x29] REQ_SET_WAIT(priority=0x08, entity_id=Otomo01 (ID: 17719525/0x010E60E5), tag_num=0x18)
 90: 0x05CA [0x29] REQ_SET_WAIT(priority=0x08, entity_id=Otomo02 (ID: 17719526/0x010E60E6), tag_num=0x18)
 91: 0x05D1 [0x29] REQ_SET_WAIT(priority=0x08, entity_id=Otomo03 (ID: 17719527/0x010E60E7), tag_num=0x18)
 92: 0x05D8 [0x29] REQ_SET_WAIT(priority=0x08, entity_id=Otomo04 (ID: 17719528/0x010E60E8), tag_num=0x18)
 93: 0x05DF [0x29] REQ_SET_WAIT(priority=0x0B, entity_id=Varonbiriaux (ID: 17719524/0x010E60E4), tag_num=0x40)
 94: 0x05E6 [0x29] REQ_SET_WAIT(priority=0x0B, entity_id=Otomo01 (ID: 17719525/0x010E60E5), tag_num=0x40)
 95: 0x05ED [0x29] REQ_SET_WAIT(priority=0x0B, entity_id=Otomo02 (ID: 17719526/0x010E60E6), tag_num=0x40)
 96: 0x05F4 [0x29] REQ_SET_WAIT(priority=0x0B, entity_id=Otomo03 (ID: 17719527/0x010E60E7), tag_num=0x40)
 97: 0x05FB [0x29] REQ_SET_WAIT(priority=0x0B, entity_id=Otomo04 (ID: 17719528/0x010E60E8), tag_num=0x40)
 98: 0x0602 [0x29] REQ_SET_WAIT(priority=0x0B, entity_id=Unnamed NPC (ID: 17719523/0x010E60E3), tag_num=0x03)
 99: 0x0609 [0x29] REQ_SET_WAIT(priority=0x0B, entity_id=Unnamed NPC (ID: 17719522/0x010E60E2), tag_num=0x03)
100: 0x0610 [0x29] REQ_SET_WAIT(priority=0x0B, entity_id=Destin (ID: 17719521/0x010E60E1), tag_num=0x10)
101: 0x0617 [0x27] REQ_SET(priority=0x0B, entity_id=Varonbiriaux (ID: 17719524/0x010E60E4), tag_num=0x41)
102: 0x061E [0x45] LOAD_SCHEDULED_TASK: Load scheduler "s005" with entities [EventEntity, EventEntity], work=[24*, 0*]
103: 0x062F [0x45] LOAD_SCHEDULED_TASK: Load scheduler "fdi1" with entities [EventEntity, EventEntity], work=[200*, 0*]
104: 0x0640 [0x2B] Sobane (ID: 17719322/0x010E601A) [9786*]:
    → "Several days ago, Count Varonbiriaux M Teulomme was granted audience with the royaulais."
105: 0x0647 [0x23] WAIT_FOR_DIALOG_INTERACTION
106: 0x0648 [0x2B] Sobane (ID: 17719322/0x010E601A) [9787*]:
    → "Do you know of Count Teulomme? He resides in a mansion built within the Carpenters' Landing territory."
107: 0x064F [0x23] WAIT_FOR_DIALOG_INTERACTION
108: 0x0650 [0x45] LOAD_SCHEDULED_TASK: Load scheduler "fdo1" with entities [EventEntity, EventEntity], work=[200*, 0*]
109: 0x0661 [0x1C] WAIT(60* ticks)
110: 0x0664 [0x2A] GET_REQ_LEVEL(level=11, entity_id=Varonbiriaux (ID: 17719524/0x010E60E4))
111: 0x066A [0x52] END_LOAD_SCHEDULER: End scheduler "s005" with entities [EventEntity, EventEntity], work=24*
112: 0x0679 [0x4E] SET_ENTITY_HIDE_FLAG: Hide Destin (ID: 17719521/0x010E60E1)
113: 0x067F [0x4E] SET_ENTITY_HIDE_FLAG: Hide Unnamed NPC (ID: 17719522/0x010E60E2)
114: 0x0685 [0x4E] SET_ENTITY_HIDE_FLAG: Hide Unnamed NPC (ID: 17719523/0x010E60E3)
115: 0x068B [0x4E] SET_ENTITY_HIDE_FLAG: Hide Otomo01 (ID: 17719525/0x010E60E5)
116: 0x0691 [0x4E] SET_ENTITY_HIDE_FLAG: Hide Otomo02 (ID: 17719526/0x010E60E6)
117: 0x0697 [0x4E] SET_ENTITY_HIDE_FLAG: Hide Otomo03 (ID: 17719527/0x010E60E7)
118: 0x069D [0x4E] SET_ENTITY_HIDE_FLAG: Hide Otomo04 (ID: 17719528/0x010E60E8)
119: 0x06A3 [0x34] LOAD_UNLOAD_ZONE(zone_id=2*)
120: 0x06A6 [0x77] SET_EVENT_TIME_WEATHER(hour=12*, weather=1*)
121: 0x06AB [0x1C] WAIT(90* ticks)
122: 0x06AE [0x45] LOAD_SCHEDULED_TASK: Load scheduler "s006" with entities [EventEntity, EventEntity], work=[24*, 0*]
123: 0x06BF [0x45] LOAD_SCHEDULED_TASK: Load scheduler "fdi1" with entities [EventEntity, EventEntity], work=[200*, 0*]
124: 0x06D0 [0x1C] WAIT(60* ticks)
125: 0x06D3 [0x2B] Sobane (ID: 17719322/0x010E601A) [9788*]:
    → "Thirty years ago, those lands belonged to the Knights Mistalle."
126: 0x06DA [0x23] WAIT_FOR_DIALOG_INTERACTION
127: 0x06DB [0x2B] Sobane (ID: 17719322/0x010E601A) [9789*]:
    → "However, the head of the family, Francmage M Mistalle, lost his life under mysterious circumstances..."
128: 0x06E2 [0x23] WAIT_FOR_DIALOG_INTERACTION
129: 0x06E3 [0x2B] Sobane (ID: 17719322/0x010E601A) [9790*]:
    → "His inexplicable death dealt a terrible blow to the knights."
130: 0x06EA [0x23] WAIT_FOR_DIALOG_INTERACTION
131: 0x06EB [0x1C] WAIT(60* ticks)
132: 0x06EE [0x45] LOAD_SCHEDULED_TASK: Load scheduler "fdo1" with entities [EventEntity, EventEntity], work=[200*, 0*]
133: 0x06FF [0x1C] WAIT(60* ticks)
134: 0x0702 [0x52] END_LOAD_SCHEDULER: End scheduler "s006" with entities [EventEntity, EventEntity], work=24*
135: 0x0711 [0x34] LOAD_UNLOAD_ZONE(zone_id=233*)
136: 0x0714 [0x77] SET_EVENT_TIME_WEATHER(hour=12*, weather=1*)
137: 0x0719 [0x1C] WAIT(90* ticks)
138: 0x071C [0x75] LOAD_ROOM(Load indoor room, room=371*)
139: 0x0720 [0x75] LOAD_ROOM(No action)
140: 0x0722 [0x4E] SET_ENTITY_HIDE_FLAG: Show Leservieus (ID: 17719529/0x010E60E9)
141: 0x0728 [0x4E] SET_ENTITY_HIDE_FLAG: Show Epuliphont (ID: 17719530/0x010E60EA)
142: 0x072E [0x80] LOAD_WAIT(entity=Leservieus (ID: 17719529/0x010E60E9))
143: 0x0733 [0x80] LOAD_WAIT(entity=Epuliphont (ID: 17719530/0x010E60EA))
144: 0x0738 [0x92] Epuliphont (ID: 17719530/0x010E60EA)->Render.Flags3 ^= 0x01
145: 0x073E [0x92] Leservieus (ID: 17719529/0x010E60E9)->Render.Flags3 ^= 0x01
146: 0x0744 [0x29] REQ_SET_WAIT(priority=0x0B, entity_id=Varonbiriaux (ID: 17719524/0x010E60E4), tag_num=0x42)
147: 0x074B [0x29] REQ_SET_WAIT(priority=0x0B, entity_id=Leservieus (ID: 17719529/0x010E60E9), tag_num=0x03)
148: 0x0752 [0x29] REQ_SET_WAIT(priority=0x0B, entity_id=Epuliphont (ID: 17719530/0x010E60EA), tag_num=0x03)
149: 0x0759 [0x27] REQ_SET(priority=0x0B, entity_id=Leservieus (ID: 17719529/0x010E60E9), tag_num=0x04)
150: 0x0760 [0x45] LOAD_SCHEDULED_TASK: Load scheduler "s011" with entities [EventEntity, EventEntity], work=[24*, 0*]
151: 0x0771 [0x45] LOAD_SCHEDULED_TASK: Load scheduler "fdi1" with entities [EventEntity, EventEntity], work=[200*, 0*]
152: 0x0782 [0x1C] WAIT(60* ticks)
153: 0x0785 [0x2B] Sobane (ID: 17719322/0x010E601A) [9791*]:
    → "Francmage's only son and member of the Royal Knights, Leservieus M Mistalle, was swept up in a whirlwind of rage and despair."
154: 0x078C [0x23] WAIT_FOR_DIALOG_INTERACTION
155: 0x078D [0x1C] WAIT(60* ticks)
156: 0x0790 [0x45] LOAD_SCHEDULED_TASK: Load scheduler "fdo1" with entities [EventEntity, EventEntity], work=[200*, 0*]
157: 0x07A1 [0x1C] WAIT(60* ticks)
158: 0x07A4 [0x2A] GET_REQ_LEVEL(level=11, entity_id=Leservieus (ID: 17719529/0x010E60E9))
159: 0x07AA [0x52] END_LOAD_SCHEDULER: End scheduler "s011" with entities [EventEntity, EventEntity], work=24*
160: 0x07B9 [0x79] Leservieus (ID: 17719529/0x010E60E9) looks at Epuliphont (ID: 17719530/0x010E60EA) (Basic look)
161: 0x07C3 [0x79] Varonbiriaux (ID: 17719524/0x010E60E4) looks at Leservieus (ID: 17719529/0x010E60E9) (Basic look)
162: 0x07CD [0x27] REQ_SET(priority=0x0B, entity_id=Leservieus (ID: 17719529/0x010E60E9), tag_num=0x05)
163: 0x07D4 [0x27] REQ_SET(priority=0x0B, entity_id=Epuliphont (ID: 17719530/0x010E60EA), tag_num=0x04)
164: 0x07DB [0x45] LOAD_SCHEDULED_TASK: Load scheduler "s012" with entities [EventEntity, EventEntity], work=[24*, 0*]
165: 0x07EC [0x45] LOAD_SCHEDULED_TASK: Load scheduler "fdi1" with entities [EventEntity, EventEntity], work=[200*, 0*]
166: 0x07FD [0x1C] WAIT(60* ticks)
167: 0x0800 [0x2B] Sobane (ID: 17719322/0x010E601A) [9792*]:
    → "He became embroiled in an argument with Lord Epuliphont, a Temple Knight with whom he was not on good terms. Enraged by the slanderous conjecture on his father's fate, Leservieus challenged Epuliphont to a duel to the death."
168: 0x0807 [0x23] WAIT_FOR_DIALOG_INTERACTION
169: 0x0808 [0x1C] WAIT(60* ticks)
170: 0x080B [0x45] LOAD_SCHEDULED_TASK: Load scheduler "fdo1" with entities [EventEntity, EventEntity], work=[200*, 0*]
171: 0x081C [0x1C] WAIT(60* ticks)
172: 0x081F [0x52] END_LOAD_SCHEDULER: End scheduler "s012" with entities [EventEntity, EventEntity], work=24*
173: 0x082E [0x2A] GET_REQ_LEVEL(level=11, entity_id=Leservieus (ID: 17719529/0x010E60E9))
174: 0x0834 [0x2A] GET_REQ_LEVEL(level=11, entity_id=Epuliphont (ID: 17719530/0x010E60EA))
175: 0x083A [0x4E] SET_ENTITY_HIDE_FLAG: Hide Varonbiriaux (ID: 17719524/0x010E60E4)
176: 0x0840 [0x4E] SET_ENTITY_HIDE_FLAG: Hide Leservieus (ID: 17719529/0x010E60E9)
177: 0x0846 [0x4E] SET_ENTITY_HIDE_FLAG: Hide Epuliphont (ID: 17719530/0x010E60EA)
178: 0x084C [0x2B] Sobane (ID: 17719322/0x010E601A) [9793*]:
    → "As has always been the case in San d'Oria, duels are strictly forbidden by law."
179: 0x0853 [0x23] WAIT_FOR_DIALOG_INTERACTION
180: 0x0854 [0x35] LOAD_ZONE_NO_CLOSE(zone_id=230*)
181: 0x0857 [0x78] ENABLE_GAME_TIMER_RESET_WEATHER()
182: 0x0858 [0x1C] WAIT(100* ticks)
183: 0x085B [0x75] LOAD_ROOM(Load indoor room, room=337*)
184: 0x085F [0x75] LOAD_ROOM(No action)
185: 0x0861 [0x29] REQ_SET_WAIT(priority=0x0B, entity_id=LocalPlayer, tag_num=0x41)
186: 0x0868 [0x29] REQ_SET_WAIT(priority=0x0B, entity_id=Sobane (ID: 17719322/0x010E601A), tag_num=0x25)
187: 0x086F [0x4E] SET_ENTITY_HIDE_FLAG: Show Sobane (ID: 17719322/0x010E601A)
188: 0x0875 [0x80] LOAD_WAIT(entity=Sobane (ID: 17719322/0x010E601A))
189: 0x087A [0x4A] LocalPlayer looks at Sobane (ID: 17719322/0x010E601A)
190: 0x0883 [0x4A] Sobane (ID: 17719322/0x010E601A) looks at LocalPlayer
191: 0x088C [0x6F] WAIT_FRAME_DELAY: Yield until WaitTime reaches zero
192: 0x088D [0x76] CHECK_ENTITY_RENDER_FLAGS: Wait until Sobane (ID: 17719322/0x010E601A) Render.Flags0 and Render.Flags3 conditions are met
193: 0x0892 [0x2B] Sobane (ID: 17719322/0x010E601A) [9794*]:
    → "When word of their battle reached the royal court, both families were stripped of their titles, and Leservieus's wife returned to Selbina with her infant child in tow."
194: 0x0899 [0x23] WAIT_FOR_DIALOG_INTERACTION
195: 0x089A [0x2B] Sobane (ID: 17719322/0x010E601A) [9795*]:
    → "Thirty years have passed since that time."
196: 0x08A1 [0x23] WAIT_FOR_DIALOG_INTERACTION
197: 0x08A2 [0x45] LOAD_SCHEDULED_TASK: Load scheduler "s007" with entities [EventEntity, EventEntity], work=[24*, 0*]
198: 0x08B3 [0x45] LOAD_SCHEDULED_TASK: Load scheduler "fdi1" with entities [EventEntity, EventEntity], work=[200*, 0*]
199: 0x08C4 [0x29] REQ_SET_WAIT(priority=0x08, entity_id=Sobane (ID: 17719322/0x010E601A), tag_num=0x04)
200: 0x08CB [0x2B] Sobane (ID: 17719322/0x010E601A) [9796*]:
    → "The son born to Leservieus and his wife grew up to become a magnificent knight."
201: 0x08D2 [0x23] WAIT_FOR_DIALOG_INTERACTION
202: 0x08D3 [0x2B] Sobane (ID: 17719322/0x010E601A) [9797*]:
    → "He has embarked on a journey to redeem his family's name."
203: 0x08DA [0x23] WAIT_FOR_DIALOG_INTERACTION
204: 0x08DB [0x29] REQ_SET_WAIT(priority=0x08, entity_id=Sobane (ID: 17719322/0x010E601A), tag_num=0x05)
205: 0x08E2 [0x29] REQ_SET_WAIT(priority=0x08, entity_id=Sobane (ID: 17719322/0x010E601A), tag_num=0x06)
206: 0x08E9 [0x52] END_LOAD_SCHEDULER: End scheduler "s007" with entities [EventEntity, EventEntity], work=24*
207: 0x08F8 [0x45] LOAD_SCHEDULED_TASK: Load scheduler "s008" with entities [EventEntity, EventEntity], work=[24*, 0*]
208: 0x0909 [0x2B] Sobane (ID: 17719322/0x010E601A) [9798*]:
    → "When Count Teulomme learned of this, he ordered his vassals to search for this heir to the Knights Mistalle."
209: 0x0910 [0x23] WAIT_FOR_DIALOG_INTERACTION
210: 0x0911 [0x29] REQ_SET_WAIT(priority=0x08, entity_id=Sobane (ID: 17719322/0x010E601A), tag_num=0x07)
211: 0x0918 [0x29] REQ_SET_WAIT(priority=0x08, entity_id=Sobane (ID: 17719322/0x010E601A), tag_num=0x02)
212: 0x091F [0x2B] Sobane (ID: 17719322/0x010E601A) [9799*]:
    → "The count, under the pretext of wishing to know the truth of what happened thirty years ago, is offering to assist the knight in his endeavor..."
213: 0x0926 [0x23] WAIT_FOR_DIALOG_INTERACTION
214: 0x0927 [0x29] REQ_SET_WAIT(priority=0x08, entity_id=Sobane (ID: 17719322/0x010E601A), tag_num=0x03)
215: 0x092E [0x2B] Sobane (ID: 17719322/0x010E601A) [9800*]:
    → "However, the count's cook believes that Teulomme is more concerned with losing his lands to their rightful owner."
216: 0x0935 [0x23] WAIT_FOR_DIALOG_INTERACTION
217: 0x0936 [0x52] END_LOAD_SCHEDULER: End scheduler "s008" with entities [EventEntity, EventEntity], work=24*
218: 0x0945 [0x45] LOAD_SCHEDULED_TASK: Load scheduler "s009" with entities [EventEntity, EventEntity], work=[24*, 0*]
219: 0x0956 [0x7B] Sobane (ID: 17719322/0x010E601A) stops talking
220: 0x095B [0x27] REQ_SET(priority=0x0B, entity_id=Sobane (ID: 17719322/0x010E601A), tag_num=0x26)
221: 0x0962 [0x2B] Sobane (ID: 17719322/0x010E601A) [9801*]:
    → "Please do not take a cook's words lightly. Much information reaches a man who prepares the meals for a household."
222: 0x0969 [0x23] WAIT_FOR_DIALOG_INTERACTION
223: 0x096A [0x2B] Sobane (ID: 17719322/0x010E601A) [9802*]:
    → "If Count Teulomme is truly seeking to cause harm to the heir of the Knights Mistalle, we have a duty to warn him of the danger."
224: 0x0971 [0x23] WAIT_FOR_DIALOG_INTERACTION
225: 0x0972 [0x2A] GET_REQ_LEVEL(level=11, entity_id=Sobane (ID: 17719322/0x010E601A))
226: 0x0978 [0x52] END_LOAD_SCHEDULER: End scheduler "s009" with entities [EventEntity, EventEntity], work=24*
227: 0x0987 [0x45] LOAD_SCHEDULED_TASK: Load scheduler "s010" with entities [EventEntity, EventEntity], work=[24*, 0*]
228: 0x0998 [0x4A] Sobane (ID: 17719322/0x010E601A) looks at LocalPlayer
229: 0x09A1 [0x6F] WAIT_FRAME_DELAY: Yield until WaitTime reaches zero
230: 0x09A2 [0x76] CHECK_ENTITY_RENDER_FLAGS: Wait until Sobane (ID: 17719322/0x010E601A) Render.Flags0 and Render.Flags3 conditions are met
231: 0x09A7 [0x29] REQ_SET_WAIT(priority=0x08, entity_id=Sobane (ID: 17719322/0x010E601A), tag_num=0x02)
232: 0x09AE [0x2B] Sobane (ID: 17719322/0x010E601A) [9803*]:
    → "I am certain an adventurer of your caliber will be able to locate this man before anything untoward occurs."
233: 0x09B5 [0x23] WAIT_FOR_DIALOG_INTERACTION
234: 0x09B6 [0x2B] Sobane (ID: 17719322/0x010E601A) [9804*]:
    → "Please find the knight of Mistalle. He must know of the threat to his life."
235: 0x09BD [0x23] WAIT_FOR_DIALOG_INTERACTION
236: 0x09BE [0x5D] SET_MUSIC_VOLUME(volume=0*, fade_time=120*)
237: 0x09C3 [0x45] LOAD_SCHEDULED_TASK: Load scheduler "fdo1" with entities [LocalPlayer, LocalPlayer], work=[200*, 0*]
238: 0x09D4 [0x1C] WAIT(120* ticks)
239: 0x09D7 [0x5C] MUSIC_CONTROL: Set Idle (Day) music to song 107*
240: 0x09DB [0x5C] MUSIC_CONTROL: Set Idle (Night) music to song 107*
241: 0x09DF [0x29] REQ_SET_WAIT(priority=0x08, entity_id=Sobane (ID: 17719322/0x010E601A), tag_num=0x03)
242: 0x09E6 [0x52] END_LOAD_SCHEDULER: End scheduler "s010" with entities [EventEntity, EventEntity], work=24*
243: 0x09F5 [0x4E] SET_ENTITY_HIDE_FLAG: Show LocalPlayer
244: 0x09FB [0x80] LOAD_WAIT(entity=LocalPlayer)
245: 0x0A00 [0x46] CAMERA_CONTROL: Restore default settings
246: 0x0A02 [0x45] LOAD_SCHEDULED_TASK: Load scheduler "fdi1" with entities [LocalPlayer, LocalPlayer], work=[200*, 0*]
247: 0x0A13 [0x20] SET_CLI_EVENT_UC_FLAG: Unlock player control
248: 0x0A15 [0x21] END_EVENT
249: 0x0A16 [0x00] END_REQSTACK()
```

### Event 736

#### Metadata

| Field        | Value     |
|--------------|-----------|
| Entrypoint   | 0x0A17    |
| Data Size    | 688 bytes |
| Instructions | 96        |

```
      00 01 02 03 04 05 06 07  08 09 0A 0B 0C 0D 0E 0F
      -- -- -- -- -- -- -- --  -- -- -- -- -- -- -- --
0A10:                      20  01 42 46 01 5D 0D 80 0E          .BF.]...
0A20: 80 45 0F 80 F8 FF FF 7F  F8 FF FF 7F 66 64 6F 31  .E..........fdo1
0A30: 0D 80 1C 0E 80 38 10 80  29 08 F0 FF FF 7F 39 1C  .....8..).....9.
0A40: 26 80 75 00 11 80 75 01  29 0B F0 FF FF 7F 41 4E  &.u...u.).....AN
0A50: 00 1A 60 0E 01 80 1A 60  0E 01 4A 1A 60 0E 01 F0  ..`....`..J.`...
0A60: FF FF 7F 4A F0 FF FF 7F  1A 60 0E 01 6F 76 1A 60  ...J.....`..ov.`
0A70: 0E 01 92 01 1A 60 0E 01  5C 00 40 80 5C 01 40 80  .....`..\.@.\.@.
0A80: 45 13 80 F8 FF FF 7F F8  FF FF 7F 73 30 31 33 0D  E..........s013.
0A90: 80 45 0F 80 F8 FF FF 7F  F8 FF FF 7F 66 64 69 31  .E..........fdi1
0AA0: 0D 80 2B 1A 60 0E 01 41  80 23 52 13 80 F8 FF FF  ..+.`..A.#R.....
0AB0: 7F F8 FF FF 7F 73 30 31  33 45 0F 80 F0 FF FF 7F  .....s013E......
0AC0: F0 FF FF 7F 6F 76 6C 31  0D 80 45 13 80 F8 FF FF  ....ovl1..E.....
0AD0: 7F F8 FF FF 7F 73 30 30  31 0D 80 7B 1A 60 0E 01  .....s001..{.`..
0AE0: 29 08 1A 60 0E 01 08 2B  1A 60 0E 01 42 80 23 2B  )..`...+.`..B.#+
0AF0: 1A 60 0E 01 43 80 23 29  08 1A 60 0E 01 09 45 0F  .`..C.#)..`...E.
0B00: 80 F0 FF FF 7F F0 FF FF  7F 6F 76 6C 31 0D 80 45  .........ovl1..E
0B10: 13 80 F8 FF FF 7F F8 FF  FF 7F 73 30 31 34 0D 80  ..........s014..
0B20: 29 08 1A 60 0E 01 0A 29  08 1A 60 0E 01 0B 4B 1A  )..`...)..`...K.
0B30: 60 0E 01 44 80 2B 1A 60  0E 01 45 80 23 2B 1A 60  `..D.+.`..E.#+.`
0B40: 0E 01 46 80 23 6F 76 1A  60 0E 01 52 13 80 F8 FF  ..F.#ov.`..R....
0B50: FF 7F F8 FF FF 7F 73 30  31 34 45 0F 80 F0 FF FF  ......s014E.....
0B60: 7F F0 FF FF 7F 6F 76 6C  31 0D 80 45 13 80 F8 FF  .....ovl1..E....
0B70: FF 7F F8 FF FF 7F 73 30  31 35 0D 80 2B 1A 60 0E  ......s015..+.`.
0B80: 01 47 80 23 2B 1A 60 0E  01 48 80 23 45 0F 80 F8  .G.#+.`..H.#E...
0B90: FF FF 7F F8 FF FF 7F 66  64 6F 31 0D 80 1C 26 80  .......fdo1...&.
0BA0: 52 13 80 F8 FF FF 7F F8  FF FF 7F 73 30 31 35 45  R..........s015E
0BB0: 13 80 F8 FF FF 7F F8 FF  FF 7F 73 30 31 36 0D 80  ..........s016..
0BC0: 45 0F 80 F8 FF FF 7F F8  FF FF 7F 66 64 69 31 0D  E..........fdi1.
0BD0: 80 7B 1A 60 0E 01 27 0B  1A 60 0E 01 29 2B 1A 60  .{.`..'..`..)+.`
0BE0: 0E 01 49 80 23 2A 0B 1A  60 0E 01 29 08 1A 60 0E  ..I.#*..`..)..`.
0BF0: 01 08 2B 1A 60 0E 01 4A  80 23 2B 1A 60 0E 01 4B  ..+.`..J.#+.`..K
0C00: 80 23 29 08 1A 60 0E 01  09 52 13 80 F8 FF FF 7F  .#)..`...R......
0C10: F8 FF FF 7F 73 30 31 36  45 13 80 F8 FF FF 7F F8  ....s016E.......
0C20: FF FF 7F 73 30 31 37 0D  80 29 08 1A 60 0E 01 0A  ...s017..)..`...
0C30: 29 08 1A 60 0E 01 0B 4A  1A 60 0E 01 F0 FF FF 7F  )..`...J.`......
0C40: 6F 76 1A 60 0E 01 2B 1A  60 0E 01 4C 80 23 29 08  ov.`..+.`..L.#).
0C50: 1A 60 0E 01 14 2B 1A 60  0E 01 4D 80 23 29 08 1A  .`...+.`..M.#)..
0C60: 60 0E 01 15 5D 0D 80 0E  80 45 0F 80 F0 FF FF 7F  `...]....E......
0C70: F0 FF FF 7F 66 64 6F 31  0D 80 1C 0E 80 52 13 80  ....fdo1.....R..
0C80: F8 FF FF 7F F8 FF FF 7F  73 30 31 37 4E 00 F0 FF  ........s017N...
0C90: FF 7F 80 F0 FF FF 7F 46  00 5C 00 23 80 5C 01 23  .......F.\.#.\.#
0CA0: 80 45 4E 80 F0 FF FF 7F  F0 FF FF 7F 71 73 74 63  .EN.........qstc
0CB0: 0D 80 45 0F 80 F0 FF FF  7F F0 FF FF 7F 66 64 69  ..E..........fdi
0CC0: 31 0D 80 20 00 21 00                              1.. .!.         
```

#### Opcodes

```
  0: 0x0A17 [0x20] SET_CLI_EVENT_UC_FLAG: Lock player control
  1: 0x0A19 [0x42] SET_CLI_EVENT_CANCEL_DATA()
  2: 0x0A1A [0x46] CAMERA_CONTROL: Disable user control
  3: 0x0A1C [0x5D] SET_MUSIC_VOLUME(volume=0*, fade_time=120*)
  4: 0x0A21 [0x45] LOAD_SCHEDULED_TASK: Load scheduler "fdo1" with entities [EventEntity, EventEntity], work=[200*, 0*]
  5: 0x0A32 [0x1C] WAIT(120* ticks)
  6: 0x0A35 [0x38] SET_CLIENT_EVENT_MODE(mode=19*)
  7: 0x0A38 [0x29] REQ_SET_WAIT(priority=0x08, entity_id=LocalPlayer, tag_num=0x39)
  8: 0x0A3F [0x1C] WAIT(60* ticks)
  9: 0x0A42 [0x75] LOAD_ROOM(Load indoor room, room=337*)
 10: 0x0A46 [0x75] LOAD_ROOM(No action)
 11: 0x0A48 [0x29] REQ_SET_WAIT(priority=0x0B, entity_id=LocalPlayer, tag_num=0x41)
 12: 0x0A4F [0x4E] SET_ENTITY_HIDE_FLAG: Show Sobane (ID: 17719322/0x010E601A)
 13: 0x0A55 [0x80] LOAD_WAIT(entity=Sobane (ID: 17719322/0x010E601A))
 14: 0x0A5A [0x4A] Sobane (ID: 17719322/0x010E601A) looks at LocalPlayer
 15: 0x0A63 [0x4A] LocalPlayer looks at Sobane (ID: 17719322/0x010E601A)
 16: 0x0A6C [0x6F] WAIT_FRAME_DELAY: Yield until WaitTime reaches zero
 17: 0x0A6D [0x76] CHECK_ENTITY_RENDER_FLAGS: Wait until Sobane (ID: 17719322/0x010E601A) Render.Flags0 and Render.Flags3 conditions are met
 18: 0x0A72 [0x92] Sobane (ID: 17719322/0x010E601A)->Render.Flags3 ^= 0x01
 19: 0x0A78 [0x5C] MUSIC_CONTROL: Set Idle (Day) music to song 161*
 20: 0x0A7C [0x5C] MUSIC_CONTROL: Set Idle (Night) music to song 161*
 21: 0x0A80 [0x45] LOAD_SCHEDULED_TASK: Load scheduler "s013" with entities [EventEntity, EventEntity], work=[24*, 0*]
 22: 0x0A91 [0x45] LOAD_SCHEDULED_TASK: Load scheduler "fdi1" with entities [EventEntity, EventEntity], work=[200*, 0*]
 23: 0x0AA2 [0x2B] Sobane (ID: 17719322/0x010E601A) [9809*]:
    → "Atarefaunet's Band!?"
 24: 0x0AA9 [0x23] WAIT_FOR_DIALOG_INTERACTION
 25: 0x0AAA [0x52] END_LOAD_SCHEDULER: End scheduler "s013" with entities [EventEntity, EventEntity], work=24*
 26: 0x0AB9 [0x45] LOAD_SCHEDULED_TASK: Load scheduler "ovl1" with entities [LocalPlayer, LocalPlayer], work=[200*, 0*]
 27: 0x0ACA [0x45] LOAD_SCHEDULED_TASK: Load scheduler "s001" with entities [EventEntity, EventEntity], work=[24*, 0*]
 28: 0x0ADB [0x7B] Sobane (ID: 17719322/0x010E601A) stops talking
 29: 0x0AE0 [0x29] REQ_SET_WAIT(priority=0x08, entity_id=Sobane (ID: 17719322/0x010E601A), tag_num=0x08)
 30: 0x0AE7 [0x2B] Sobane (ID: 17719322/0x010E601A) [9810*]:
    → "That is a frightening name indeed."
 31: 0x0AEE [0x23] WAIT_FOR_DIALOG_INTERACTION
 32: 0x0AEF [0x2B] Sobane (ID: 17719322/0x010E601A) [9811*]:
    → "That despicable group of brigands terrorized the length and breadth of the Quon continent when I was a child."
 33: 0x0AF6 [0x23] WAIT_FOR_DIALOG_INTERACTION
 34: 0x0AF7 [0x29] REQ_SET_WAIT(priority=0x08, entity_id=Sobane (ID: 17719322/0x010E601A), tag_num=0x09)
 35: 0x0AFE [0x45] LOAD_SCHEDULED_TASK: Load scheduler "ovl1" with entities [LocalPlayer, LocalPlayer], work=[200*, 0*]
 36: 0x0B0F [0x45] LOAD_SCHEDULED_TASK: Load scheduler "s014" with entities [EventEntity, EventEntity], work=[24*, 0*]
 37: 0x0B20 [0x29] REQ_SET_WAIT(priority=0x08, entity_id=Sobane (ID: 17719322/0x010E601A), tag_num=0x0A)
 38: 0x0B27 [0x29] REQ_SET_WAIT(priority=0x08, entity_id=Sobane (ID: 17719322/0x010E601A), tag_num=0x0B)
 39: 0x0B2E [0x4B] UPDATE_ENTITY_YAW(entity=Sobane (ID: 17719322/0x010E601A), yaw=1.6°*)
 40: 0x0B35 [0x2B] Sobane (ID: 17719322/0x010E601A) [9812*]:
    → "They would prowl the trade routes between San d'Oria, Bastok, Jeuno, and Tavnazia, and attack any merchants they came across."
 41: 0x0B3C [0x23] WAIT_FOR_DIALOG_INTERACTION
 42: 0x0B3D [0x2B] Sobane (ID: 17719322/0x010E601A) [9813*]:
    → "They showed no mercy to man, woman, or child, and used the goods and information they obtained to threaten and blackmail others. They were far worse than a mere gang of thieves."
 43: 0x0B44 [0x23] WAIT_FOR_DIALOG_INTERACTION
 44: 0x0B45 [0x6F] WAIT_FRAME_DELAY: Yield until WaitTime reaches zero
 45: 0x0B46 [0x76] CHECK_ENTITY_RENDER_FLAGS: Wait until Sobane (ID: 17719322/0x010E601A) Render.Flags0 and Render.Flags3 conditions are met
 46: 0x0B4B [0x52] END_LOAD_SCHEDULER: End scheduler "s014" with entities [EventEntity, EventEntity], work=24*
 47: 0x0B5A [0x45] LOAD_SCHEDULED_TASK: Load scheduler "ovl1" with entities [LocalPlayer, LocalPlayer], work=[200*, 0*]
 48: 0x0B6B [0x45] LOAD_SCHEDULED_TASK: Load scheduler "s015" with entities [EventEntity, EventEntity], work=[24*, 0*]
 49: 0x0B7C [0x2B] Sobane (ID: 17719322/0x010E601A) [9814*]:
    → "But near the end of the Great War, their leader--Atarefaunet--was finally caught by bounty hunters."
 50: 0x0B83 [0x23] WAIT_FOR_DIALOG_INTERACTION
 51: 0x0B84 [0x2B] Sobane (ID: 17719322/0x010E601A) [9815*]:
    → "Atarefaunet was brought here to San d'Oria and executed soon after."
 52: 0x0B8B [0x23] WAIT_FOR_DIALOG_INTERACTION
 53: 0x0B8C [0x45] LOAD_SCHEDULED_TASK: Load scheduler "fdo1" with entities [EventEntity, EventEntity], work=[200*, 0*]
 54: 0x0B9D [0x1C] WAIT(60* ticks)
 55: 0x0BA0 [0x52] END_LOAD_SCHEDULER: End scheduler "s015" with entities [EventEntity, EventEntity], work=24*
 56: 0x0BAF [0x45] LOAD_SCHEDULED_TASK: Load scheduler "s016" with entities [EventEntity, EventEntity], work=[24*, 0*]
 57: 0x0BC0 [0x45] LOAD_SCHEDULED_TASK: Load scheduler "fdi1" with entities [EventEntity, EventEntity], work=[200*, 0*]
 58: 0x0BD1 [0x7B] Sobane (ID: 17719322/0x010E601A) stops talking
 59: 0x0BD6 [0x27] REQ_SET(priority=0x0B, entity_id=Sobane (ID: 17719322/0x010E601A), tag_num=0x29)
 60: 0x0BDD [0x2B] Sobane (ID: 17719322/0x010E601A) [9816*]:
    → "The remaining members of the band scattered to the corners of Vana'diel, and are still in hiding to this day."
 61: 0x0BE4 [0x23] WAIT_FOR_DIALOG_INTERACTION
 62: 0x0BE5 [0x2A] GET_REQ_LEVEL(level=11, entity_id=Sobane (ID: 17719322/0x010E601A))
 63: 0x0BEB [0x29] REQ_SET_WAIT(priority=0x08, entity_id=Sobane (ID: 17719322/0x010E601A), tag_num=0x08)
 64: 0x0BF2 [0x2B] Sobane (ID: 17719322/0x010E601A) [9817*]:
    → "Could it be possible that Count Teulomme has employed members of Atarefaunet's Band?"
 65: 0x0BF9 [0x23] WAIT_FOR_DIALOG_INTERACTION
 66: 0x0BFA [0x2B] Sobane (ID: 17719322/0x010E601A) [9818*]:
    → "And these villains are searching for Lady Leffine's son, Louverance..."
 67: 0x0C01 [0x23] WAIT_FOR_DIALOG_INTERACTION
 68: 0x0C02 [0x29] REQ_SET_WAIT(priority=0x08, entity_id=Sobane (ID: 17719322/0x010E601A), tag_num=0x09)
 69: 0x0C09 [0x52] END_LOAD_SCHEDULER: End scheduler "s016" with entities [EventEntity, EventEntity], work=24*
 70: 0x0C18 [0x45] LOAD_SCHEDULED_TASK: Load scheduler "s017" with entities [EventEntity, EventEntity], work=[24*, 0*]
 71: 0x0C29 [0x29] REQ_SET_WAIT(priority=0x08, entity_id=Sobane (ID: 17719322/0x010E601A), tag_num=0x0A)
 72: 0x0C30 [0x29] REQ_SET_WAIT(priority=0x08, entity_id=Sobane (ID: 17719322/0x010E601A), tag_num=0x0B)
 73: 0x0C37 [0x4A] Sobane (ID: 17719322/0x010E601A) looks at LocalPlayer
 74: 0x0C40 [0x6F] WAIT_FRAME_DELAY: Yield until WaitTime reaches zero
 75: 0x0C41 [0x76] CHECK_ENTITY_RENDER_FLAGS: Wait until Sobane (ID: 17719322/0x010E601A) Render.Flags0 and Render.Flags3 conditions are met
 76: 0x0C46 [0x2B] Sobane (ID: 17719322/0x010E601A) [9819*]:
    → "Things are far worse than I feared. Hearing of the involvement of Atarefaunet's Band fills me with dread."
 77: 0x0C4D [0x23] WAIT_FOR_DIALOG_INTERACTION
 78: 0x0C4E [0x29] REQ_SET_WAIT(priority=0x08, entity_id=Sobane (ID: 17719322/0x010E601A), tag_num=0x14)
 79: 0x0C55 [0x2B] Sobane (ID: 17719322/0x010E601A) [9820*]:
    → "Here is your reward. I beg of you, adventurer, do not speak a word of this to anyone."
 80: 0x0C5C [0x23] WAIT_FOR_DIALOG_INTERACTION
 81: 0x0C5D [0x29] REQ_SET_WAIT(priority=0x08, entity_id=Sobane (ID: 17719322/0x010E601A), tag_num=0x15)
 82: 0x0C64 [0x5D] SET_MUSIC_VOLUME(volume=0*, fade_time=120*)
 83: 0x0C69 [0x45] LOAD_SCHEDULED_TASK: Load scheduler "fdo1" with entities [LocalPlayer, LocalPlayer], work=[200*, 0*]
 84: 0x0C7A [0x1C] WAIT(120* ticks)
 85: 0x0C7D [0x52] END_LOAD_SCHEDULER: End scheduler "s017" with entities [EventEntity, EventEntity], work=24*
 86: 0x0C8C [0x4E] SET_ENTITY_HIDE_FLAG: Show LocalPlayer
 87: 0x0C92 [0x80] LOAD_WAIT(entity=LocalPlayer)
 88: 0x0C97 [0x46] CAMERA_CONTROL: Restore default settings
 89: 0x0C99 [0x5C] MUSIC_CONTROL: Set Idle (Day) music to song 107*
 90: 0x0C9D [0x5C] MUSIC_CONTROL: Set Idle (Night) music to song 107*
 91: 0x0CA1 [0x45] LOAD_SCHEDULED_TASK: Load scheduler "qstc" with entities [LocalPlayer, LocalPlayer], work=[201*, 0*]
 92: 0x0CB2 [0x45] LOAD_SCHEDULED_TASK: Load scheduler "fdi1" with entities [LocalPlayer, LocalPlayer], work=[200*, 0*]
 93: 0x0CC3 [0x20] SET_CLI_EVENT_UC_FLAG: Unlock player control
 94: 0x0CC5 [0x21] END_EVENT
 95: 0x0CC6 [0x00] END_REQSTACK()
```

### Event 738

#### Metadata

| Field        | Value      |
|--------------|------------|
| Entrypoint   | 0x0CC7     |
| Data Size    | 1363 bytes |
| Instructions | 195        |

```
      00 01 02 03 04 05 06 07  08 09 0A 0B 0C 0D 0E 0F
      -- -- -- -- -- -- -- --  -- -- -- -- -- -- -- --
0CC0:                      20  01 42 46 01 5D 0D 80 0E          .BF.]...
0CD0: 80 45 0F 80 F8 FF FF 7F  F8 FF FF 7F 66 64 6F 31  .E..........fdo1
0CE0: 0D 80 1C 0E 80 38 10 80  29 08 F0 FF FF 7F 39 75  .....8..).....9u
0CF0: 00 11 80 75 01 29 0B F0  FF FF 7F 41 29 0B EB 60  ...u.).....A)..`
0D00: 0E 01 21 4E 01 EB 60 0E  01 4E 00 1A 60 0E 01 80  ..!N..`..N..`...
0D10: 1A 60 0E 01 4A 1A 60 0E  01 F0 FF FF 7F 4A F0 FF  .`..J.`......J..
0D20: FF 7F 1A 60 0E 01 6F 76  1A 60 0E 01 92 01 1A 60  ...`..ov.`.....`
0D30: 0E 01 92 01 EB 60 0E 01  5C 00 12 80 5C 01 12 80  .....`..\...\...
0D40: 45 13 80 F8 FF FF 7F F8  FF FF 7F 73 30 32 36 0D  E..........s026.
0D50: 80 45 0F 80 F8 FF FF 7F  F8 FF FF 7F 66 64 69 31  .E..........fdi1
0D60: 0D 80 29 08 1A 60 0E 01  02 2B 1A 60 0E 01 4F 80  ..)..`...+.`..O.
0D70: 23 2B 1A 60 0E 01 50 80  23 29 08 1A 60 0E 01 03  #+.`..P.#)..`...
0D80: 79 00 F0 FF FF 7F EB 60  0E 01 79 00 EB 60 0E 01  y......`..y..`..
0D90: F0 FF FF 7F 4E 00 EB 60  0E 01 80 EB 60 0E 01 27  ....N..`....`..'
0DA0: 0B EB 60 0E 01 22 1C 26  80 52 13 80 F8 FF FF 7F  ..`..".&.R......
0DB0: F8 FF FF 7F 73 30 32 36  45 13 80 F8 FF FF 7F F8  ....s026E.......
0DC0: FF FF 7F 73 30 32 37 0D  80 4E 01 F0 FF FF 7F 2B  ...s027..N.....+
0DD0: EB 60 0E 01 51 80 23 79  00 1A 60 0E 01 EB 60 0E  .`..Q.#y..`...`.
0DE0: 01 2A 0B EB 60 0E 01 4A  F0 FF FF 7F EB 60 0E 01  .*..`..J.....`..
0DF0: 2B EB 60 0E 01 52 80 23  2B EB 60 0E 01 53 80 23  +.`..R.#+.`..S.#
0E00: 6F 76 F0 FF FF 7F 4E 00  F0 FF FF 7F 52 13 80 F8  ov....N.....R...
0E10: FF FF 7F F8 FF FF 7F 73  30 32 37 02 09 10 1C 80  .......s027.....
0E20: 00 37 0E 45 13 80 F8 FF  FF 7F F8 FF FF 7F 73 30  .7.E..........s0
0E30: 38 33 0D 80 01 64 0E 02  09 10 1D 80 00 53 0E 45  83...d.......S.E
0E40: 13 80 F8 FF FF 7F F8 FF  FF 7F 73 30 38 33 0D 80  ..........s083..
0E50: 01 64 0E 45 13 80 F8 FF  FF 7F F8 FF FF 7F 73 30  .d.E..........s0
0E60: 32 38 0D 80 7B EB 60 0E  01 29 08 EB 60 0E 01 05  28..{.`..)..`...
0E70: 2B EB 60 0E 01 54 80 23  2B EB 60 0E 01 55 80 23  +.`..T.#+.`..U.#
0E80: 29 08 EB 60 0E 01 06 02  09 10 1C 80 00 A1 0E 52  )..`...........R
0E90: 13 80 F8 FF FF 7F F8 FF  FF 7F 73 30 38 33 01 CA  ..........s083..
0EA0: 0E 02 09 10 1D 80 00 BB  0E 52 13 80 F8 FF FF 7F  .........R......
0EB0: F8 FF FF 7F 73 30 38 33  01 CA 0E 52 13 80 F8 FF  ....s083...R....
0EC0: FF 7F F8 FF FF 7F 73 30  32 38 45 13 80 F8 FF FF  ......s028E.....
0ED0: 7F F8 FF FF 7F 73 30 32  39 0D 80 29 08 EB 60 0E  .....s029..)..`.
0EE0: 01 07 29 08 EB 60 0E 01  08 4B EB 60 0E 01 56 80  ..)..`...K.`..V.
0EF0: 6F 76 EB 60 0E 01 79 00  EB 60 0E 01 1A 60 0E 01  ov.`..y..`...`..
0F00: 79 00 F0 FF FF 7F 1A 60  0E 01 2B EB 60 0E 01 57  y......`..+.`..W
0F10: 80 23 79 00 1A 60 0E 01  F0 FF FF 7F 29 08 1A 60  .#y..`......)..`
0F20: 0E 01 02 2B 1A 60 0E 01  58 80 23 52 13 80 F8 FF  ...+.`..X.#R....
0F30: FF 7F F8 FF FF 7F 73 30  32 39 45 13 80 F8 FF FF  ......s029E.....
0F40: 7F F8 FF FF 7F 73 30 33  30 0D 80 29 08 1A 60 0E  .....s030..)..`.
0F50: 01 03 79 00 EB 60 0E 01  F0 FF FF 7F 2B EB 60 0E  ..y..`......+.`.
0F60: 01 59 80 23 2B EB 60 0E  01 5A 80 23 52 13 80 F8  .Y.#+.`..Z.#R...
0F70: FF FF 7F F8 FF FF 7F 73  30 33 30 45 13 80 F8 FF  .......s030E....
0F80: FF 7F F8 FF FF 7F 73 30  33 31 0D 80 4A 1A 60 0E  ......s031..J.`.
0F90: 01 EB 60 0E 01 7B EB 60  0E 01 79 00 1A 60 0E 01  ..`..{.`..y..`..
0FA0: EB 60 0E 01 29 08 EB 60  0E 01 05 2B EB 60 0E 01  .`..)..`...+.`..
0FB0: 5B 80 23 2B EB 60 0E 01  5C 80 23 29 08 EB 60 0E  [.#+.`..\.#)..`.
0FC0: 01 06 6F 76 1A 60 0E 01  4E 01 F0 FF FF 7F 52 13  ..ov.`..N.....R.
0FD0: 80 F8 FF FF 7F F8 FF FF  7F 73 30 33 31 45 13 80  .........s031E..
0FE0: F8 FF FF 7F F8 FF FF 7F  73 30 33 32 0D 80 79 00  ........s032..y.
0FF0: F0 FF FF 7F EB 60 0E 01  29 08 1A 60 0E 01 02 2B  .....`..)..`...+
1000: 1A 60 0E 01 5D 80 23 2B  1A 60 0E 01 5E 80 23 29  .`..].#+.`..^.#)
1010: 08 1A 60 0E 01 03 2B 1A  60 0E 01 5F 80 23 52 13  ..`...+.`.._.#R.
1020: 80 F8 FF FF 7F F8 FF FF  7F 73 30 33 32 45 13 80  .........s032E..
1030: F8 FF FF 7F F8 FF FF 7F  73 30 33 33 0D 80 4E 00  ........s033..N.
1040: F0 FF FF 7F 4A EB 60 0E  01 1A 60 0E 01 6F 76 EB  ....J.`...`..ov.
1050: 60 0E 01 29 08 EB 60 0E  01 07 2B EB 60 0E 01 60  `..)..`...+.`..`
1060: 80 23 29 08 EB 60 0E 01  08 2B EB 60 0E 01 61 80  .#)..`...+.`..a.
1070: 23 2B EB 60 0E 01 62 80  23 52 13 80 F8 FF FF 7F  #+.`..b.#R......
1080: F8 FF FF 7F 73 30 33 33  45 13 80 F8 FF FF 7F F8  ....s033E.......
1090: FF FF 7F 73 30 33 34 0D  80 27 0B EB 60 0E 01 23  ...s034..'..`..#
10A0: 2B EB 60 0E 01 63 80 23  2B EB 60 0E 01 64 80 23  +.`..c.#+.`..d.#
10B0: 2A 0B EB 60 0E 01 7C 00  1A 60 0E 01 2B 1A 60 0E  *..`..|..`..+.`.
10C0: 01 65 80 23 7C 01 1A 60  0E 01 52 13 80 F8 FF FF  .e.#|..`..R.....
10D0: 7F F8 FF FF 7F 73 30 33  34 45 13 80 F8 FF FF 7F  .....s034E......
10E0: F8 FF FF 7F 73 30 33 35  0D 80 4A EB 60 0E 01 1A  ....s035..J.`...
10F0: 60 0E 01 6F 76 EB 60 0E  01 2B EB 60 0E 01 66 80  `..ov.`..+.`..f.
1100: 23 79 00 EB 60 0E 01 F0  FF FF 7F 79 00 1A 60 0E  #y..`......y..`.
1110: 01 F0 FF FF 7F 2B EB 60  0E 01 67 80 23 2B EB 60  .....+.`..g.#+.`
1120: 0E 01 68 80 23 52 13 80  F8 FF FF 7F F8 FF FF 7F  ..h.#R..........
1130: 73 30 33 35 45 13 80 F8  FF FF 7F F8 FF FF 7F 73  s035E..........s
1140: 30 33 36 0D 80 2B EB 60  0E 01 69 80 23 2B EB 60  036..+.`..i.#+.`
1150: 0E 01 6A 80 23 52 13 80  F8 FF FF 7F F8 FF FF 7F  ..j.#R..........
1160: 73 30 33 36 45 13 80 F8  FF FF 7F F8 FF FF 7F 73  s036E..........s
1170: 30 33 37 0D 80 79 00 1A  60 0E 01 EB 60 0E 01 7B  037..y..`...`..{
1180: EB 60 0E 01 4B 1A 60 0E  01 6B 80 4B F0 FF FF 7F  .`..K.`..k.K....
1190: 6C 80 27 0B EB 60 0E 01  24 2B EB 60 0E 01 6D 80  l.'..`..$+.`..m.
11A0: 23 2A 0B EB 60 0E 01 4A  F0 FF FF 7F EB 60 0E 01  #*..`..J.....`..
11B0: 2B 1A 60 0E 01 6E 80 23  27 0B EB 60 0E 01 25 1C  +.`..n.#'..`..%.
11C0: 26 80 5D 0D 80 0E 80 45  0F 80 F0 FF FF 7F F0 FF  &.]....E........
11D0: FF 7F 66 64 6F 31 0D 80  1C 0E 80 2A 0B EB 60 0E  ..fdo1.....*..`.
11E0: 01 52 13 80 F8 FF FF 7F  F8 FF FF 7F 73 30 33 37  .R..........s037
11F0: 5C 00 23 80 5C 01 23 80  4E 00 F0 FF FF 7F 80 F0  \.#.\.#.N.......
1200: FF FF 7F 46 00 45 0F 80  F0 FF FF 7F F0 FF FF 7F  ...F.E..........
1210: 66 64 69 31 0D 80 20 00  21 00                    fdi1.. .!.      
```

#### Opcodes

```
  0: 0x0CC7 [0x20] SET_CLI_EVENT_UC_FLAG: Lock player control
  1: 0x0CC9 [0x42] SET_CLI_EVENT_CANCEL_DATA()
  2: 0x0CCA [0x46] CAMERA_CONTROL: Disable user control
  3: 0x0CCC [0x5D] SET_MUSIC_VOLUME(volume=0*, fade_time=120*)
  4: 0x0CD1 [0x45] LOAD_SCHEDULED_TASK: Load scheduler "fdo1" with entities [EventEntity, EventEntity], work=[200*, 0*]
  5: 0x0CE2 [0x1C] WAIT(120* ticks)
  6: 0x0CE5 [0x38] SET_CLIENT_EVENT_MODE(mode=19*)
  7: 0x0CE8 [0x29] REQ_SET_WAIT(priority=0x08, entity_id=LocalPlayer, tag_num=0x39)
  8: 0x0CEF [0x75] LOAD_ROOM(Load indoor room, room=337*)
  9: 0x0CF3 [0x75] LOAD_ROOM(No action)
 10: 0x0CF5 [0x29] REQ_SET_WAIT(priority=0x0B, entity_id=LocalPlayer, tag_num=0x41)
 11: 0x0CFC [0x29] REQ_SET_WAIT(priority=0x0B, entity_id=Ondieumais (ID: 17719531/0x010E60EB), tag_num=0x21)
 12: 0x0D03 [0x4E] SET_ENTITY_HIDE_FLAG: Hide Ondieumais (ID: 17719531/0x010E60EB)
 13: 0x0D09 [0x4E] SET_ENTITY_HIDE_FLAG: Show Sobane (ID: 17719322/0x010E601A)
 14: 0x0D0F [0x80] LOAD_WAIT(entity=Sobane (ID: 17719322/0x010E601A))
 15: 0x0D14 [0x4A] Sobane (ID: 17719322/0x010E601A) looks at LocalPlayer
 16: 0x0D1D [0x4A] LocalPlayer looks at Sobane (ID: 17719322/0x010E601A)
 17: 0x0D26 [0x6F] WAIT_FRAME_DELAY: Yield until WaitTime reaches zero
 18: 0x0D27 [0x76] CHECK_ENTITY_RENDER_FLAGS: Wait until Sobane (ID: 17719322/0x010E601A) Render.Flags0 and Render.Flags3 conditions are met
 19: 0x0D2C [0x92] Sobane (ID: 17719322/0x010E601A)->Render.Flags3 ^= 0x01
 20: 0x0D32 [0x92] Ondieumais (ID: 17719531/0x010E60EB)->Render.Flags3 ^= 0x01
 21: 0x0D38 [0x5C] MUSIC_CONTROL: Set Idle (Day) music to song 127*
 22: 0x0D3C [0x5C] MUSIC_CONTROL: Set Idle (Night) music to song 127*
 23: 0x0D40 [0x45] LOAD_SCHEDULED_TASK: Load scheduler "s026" with entities [EventEntity, EventEntity], work=[24*, 0*]
 24: 0x0D51 [0x45] LOAD_SCHEDULED_TASK: Load scheduler "fdi1" with entities [EventEntity, EventEntity], work=[200*, 0*]
 25: 0x0D62 [0x29] REQ_SET_WAIT(priority=0x08, entity_id=Sobane (ID: 17719322/0x010E601A), tag_num=0x02)
 26: 0x0D69 [0x2B] Sobane (ID: 17719322/0x010E601A) [9822*]:
    → "<Player>. Your timing is most fortunate."
 27: 0x0D70 [0x23] WAIT_FOR_DIALOG_INTERACTION
 28: 0x0D71 [0x2B] Sobane (ID: 17719322/0x010E601A) [9823*]:
    → "My husband has something he wishes to discuss with you."
 29: 0x0D78 [0x23] WAIT_FOR_DIALOG_INTERACTION
 30: 0x0D79 [0x29] REQ_SET_WAIT(priority=0x08, entity_id=Sobane (ID: 17719322/0x010E601A), tag_num=0x03)
 31: 0x0D80 [0x79] LocalPlayer looks at Ondieumais (ID: 17719531/0x010E60EB) (Basic look)
 32: 0x0D8A [0x79] Ondieumais (ID: 17719531/0x010E60EB) looks at LocalPlayer (Basic look)
 33: 0x0D94 [0x4E] SET_ENTITY_HIDE_FLAG: Show Ondieumais (ID: 17719531/0x010E60EB)
 34: 0x0D9A [0x80] LOAD_WAIT(entity=Ondieumais (ID: 17719531/0x010E60EB))
 35: 0x0D9F [0x27] REQ_SET(priority=0x0B, entity_id=Ondieumais (ID: 17719531/0x010E60EB), tag_num=0x22)
 36: 0x0DA6 [0x1C] WAIT(60* ticks)
 37: 0x0DA9 [0x52] END_LOAD_SCHEDULER: End scheduler "s026" with entities [EventEntity, EventEntity], work=24*
 38: 0x0DB8 [0x45] LOAD_SCHEDULED_TASK: Load scheduler "s027" with entities [EventEntity, EventEntity], work=[24*, 0*]
 39: 0x0DC9 [0x4E] SET_ENTITY_HIDE_FLAG: Hide LocalPlayer
 40: 0x0DCF [0x2B] Ondieumais (ID: 17719531/0x010E60EB) [9824*]:
    → "You are the adventurer who carried out my wife's request?"
 41: 0x0DD6 [0x23] WAIT_FOR_DIALOG_INTERACTION
 42: 0x0DD7 [0x79] Sobane (ID: 17719322/0x010E601A) looks at Ondieumais (ID: 17719531/0x010E60EB) (Basic look)
 43: 0x0DE1 [0x2A] GET_REQ_LEVEL(level=11, entity_id=Ondieumais (ID: 17719531/0x010E60EB))
 44: 0x0DE7 [0x4A] LocalPlayer looks at Ondieumais (ID: 17719531/0x010E60EB)
 45: 0x0DF0 [0x2B] Ondieumais (ID: 17719531/0x010E60EB) [9825*]:
    → "She seems to hold you in high regard, but do you truly have the skills required to live up to that trust?"
 46: 0x0DF7 [0x23] WAIT_FOR_DIALOG_INTERACTION
 47: 0x0DF8 [0x2B] Ondieumais (ID: 17719531/0x010E60EB) [9826*]:
    → "You would do well not to sign an oath in blood so lightly."
 48: 0x0DFF [0x23] WAIT_FOR_DIALOG_INTERACTION
 49: 0x0E00 [0x6F] WAIT_FRAME_DELAY: Yield until WaitTime reaches zero
 50: 0x0E01 [0x76] CHECK_ENTITY_RENDER_FLAGS: Wait until LocalPlayer Render.Flags0 and Render.Flags3 conditions are met
 51: 0x0E06 [0x4E] SET_ENTITY_HIDE_FLAG: Show LocalPlayer
 52: 0x0E0C [0x52] END_LOAD_SCHEDULER: End scheduler "s027" with entities [EventEntity, EventEntity], work=24*
 53: 0x0E1B [0x02] IF !(Work_Zone[9] == 5*) GOTO 0x0E37
 54: 0x0E23 [0x45] LOAD_SCHEDULED_TASK: Load scheduler "s083" with entities [EventEntity, EventEntity], work=[24*, 0*]
 55: 0x0E34 [0x01] GOTO 0x0E64
 56: 0x0E37 [0x02] IF !(Work_Zone[9] == 6*) GOTO 0x0E53
 57: 0x0E3F [0x45] LOAD_SCHEDULED_TASK: Load scheduler "s083" with entities [EventEntity, EventEntity], work=[24*, 0*]
 58: 0x0E50 [0x01] GOTO 0x0E64
 59: 0x0E53 [0x45] LOAD_SCHEDULED_TASK: Load scheduler "s028" with entities [EventEntity, EventEntity], work=[24*, 0*]

SUBROUTINE_0E64:
 60: 0x0E64 [0x7B] Ondieumais (ID: 17719531/0x010E60EB) stops talking
 61: 0x0E69 [0x29] REQ_SET_WAIT(priority=0x08, entity_id=Ondieumais (ID: 17719531/0x010E60EB), tag_num=0x05)
 62: 0x0E70 [0x2B] Ondieumais (ID: 17719531/0x010E60EB) [9827*]:
    → "The blood oath signed by the families of Mistalle and Revemel served as evidence of their duel when the case was brought before the royal court."
 63: 0x0E77 [0x23] WAIT_FOR_DIALOG_INTERACTION
 64: 0x0E78 [0x2B] Ondieumais (ID: 17719531/0x010E60EB) [9828*]:
    → "Both families were severely punished for their actions."
 65: 0x0E7F [0x23] WAIT_FOR_DIALOG_INTERACTION
 66: 0x0E80 [0x29] REQ_SET_WAIT(priority=0x08, entity_id=Ondieumais (ID: 17719531/0x010E60EB), tag_num=0x06)
 67: 0x0E87 [0x02] IF !(Work_Zone[9] == 5*) GOTO 0x0EA1
 68: 0x0E8F [0x52] END_LOAD_SCHEDULER: End scheduler "s083" with entities [EventEntity, EventEntity], work=24*
 69: 0x0E9E [0x01] GOTO 0x0ECA
 70: 0x0EA1 [0x02] IF !(Work_Zone[9] == 6*) GOTO 0x0EBB
 71: 0x0EA9 [0x52] END_LOAD_SCHEDULER: End scheduler "s083" with entities [EventEntity, EventEntity], work=24*
 72: 0x0EB8 [0x01] GOTO 0x0ECA
 73: 0x0EBB [0x52] END_LOAD_SCHEDULER: End scheduler "s028" with entities [EventEntity, EventEntity], work=24*

SUBROUTINE_0ECA:
 74: 0x0ECA [0x45] LOAD_SCHEDULED_TASK: Load scheduler "s029" with entities [EventEntity, EventEntity], work=[24*, 0*]
 75: 0x0EDB [0x29] REQ_SET_WAIT(priority=0x08, entity_id=Ondieumais (ID: 17719531/0x010E60EB), tag_num=0x07)
 76: 0x0EE2 [0x29] REQ_SET_WAIT(priority=0x08, entity_id=Ondieumais (ID: 17719531/0x010E60EB), tag_num=0x08)
 77: 0x0EE9 [0x4B] UPDATE_ENTITY_YAW(entity=Ondieumais (ID: 17719531/0x010E60EB), yaw=4.7°*)
 78: 0x0EF0 [0x6F] WAIT_FRAME_DELAY: Yield until WaitTime reaches zero
 79: 0x0EF1 [0x76] CHECK_ENTITY_RENDER_FLAGS: Wait until Ondieumais (ID: 17719531/0x010E60EB) Render.Flags0 and Render.Flags3 conditions are met
 80: 0x0EF6 [0x79] Ondieumais (ID: 17719531/0x010E60EB) looks at Sobane (ID: 17719322/0x010E601A) (Basic look)
 81: 0x0F00 [0x79] LocalPlayer looks at Sobane (ID: 17719322/0x010E601A) (Basic look)
 82: 0x0F0A [0x2B] Ondieumais (ID: 17719531/0x010E60EB) [9829*]:
    → "This matter does not concern me personally. However, my wife's mother, who worked for the Revemel family, was accused of handing over that oath."
 83: 0x0F11 [0x23] WAIT_FOR_DIALOG_INTERACTION
 84: 0x0F12 [0x79] Sobane (ID: 17719322/0x010E601A) looks at LocalPlayer (Basic look)
 85: 0x0F1C [0x29] REQ_SET_WAIT(priority=0x08, entity_id=Sobane (ID: 17719322/0x010E601A), tag_num=0x02)
 86: 0x0F23 [0x2B] Sobane (ID: 17719322/0x010E601A) [9830*]:
    → "My mother is innocent of this charge, but her pleas fell on deaf ears."
 87: 0x0F2A [0x23] WAIT_FOR_DIALOG_INTERACTION
 88: 0x0F2B [0x52] END_LOAD_SCHEDULER: End scheduler "s029" with entities [EventEntity, EventEntity], work=24*
 89: 0x0F3A [0x45] LOAD_SCHEDULED_TASK: Load scheduler "s030" with entities [EventEntity, EventEntity], work=[24*, 0*]
 90: 0x0F4B [0x29] REQ_SET_WAIT(priority=0x08, entity_id=Sobane (ID: 17719322/0x010E601A), tag_num=0x03)
 91: 0x0F52 [0x79] Ondieumais (ID: 17719531/0x010E60EB) looks at LocalPlayer (Basic look)
 92: 0x0F5C [0x2B] Ondieumais (ID: 17719531/0x010E60EB) [9831*]:
    → "Now perhaps you see why Sobane is so adamant in her pursuit of the truth."
 93: 0x0F63 [0x23] WAIT_FOR_DIALOG_INTERACTION
 94: 0x0F64 [0x2B] Ondieumais (ID: 17719531/0x010E60EB) [9832*]:
    → "Although I may be the head chef for the royal family, I am still naught but a simple cook. I have no interest in raising knights and joining the noble families' struggle for power."
 95: 0x0F6B [0x23] WAIT_FOR_DIALOG_INTERACTION
 96: 0x0F6C [0x52] END_LOAD_SCHEDULER: End scheduler "s030" with entities [EventEntity, EventEntity], work=24*
 97: 0x0F7B [0x45] LOAD_SCHEDULED_TASK: Load scheduler "s031" with entities [EventEntity, EventEntity], work=[24*, 0*]
 98: 0x0F8C [0x4A] Sobane (ID: 17719322/0x010E601A) looks at Ondieumais (ID: 17719531/0x010E60EB)
 99: 0x0F95 [0x7B] Ondieumais (ID: 17719531/0x010E60EB) stops talking
100: 0x0F9A [0x79] Sobane (ID: 17719322/0x010E601A) looks at Ondieumais (ID: 17719531/0x010E60EB) (Basic look)
101: 0x0FA4 [0x29] REQ_SET_WAIT(priority=0x08, entity_id=Ondieumais (ID: 17719531/0x010E60EB), tag_num=0x05)
102: 0x0FAB [0x2B] Ondieumais (ID: 17719531/0x010E60EB) [9833*]:
    → "Whatever underhanded deals were made or plans hatched, it is all in the past."
103: 0x0FB2 [0x23] WAIT_FOR_DIALOG_INTERACTION
104: 0x0FB3 [0x2B] Ondieumais (ID: 17719531/0x010E60EB) [9834*]:
    → "There is nothing to be gained by staring at an empty plate once the food has been eaten."
105: 0x0FBA [0x23] WAIT_FOR_DIALOG_INTERACTION
106: 0x0FBB [0x29] REQ_SET_WAIT(priority=0x08, entity_id=Ondieumais (ID: 17719531/0x010E60EB), tag_num=0x06)
107: 0x0FC2 [0x6F] WAIT_FRAME_DELAY: Yield until WaitTime reaches zero
108: 0x0FC3 [0x76] CHECK_ENTITY_RENDER_FLAGS: Wait until Sobane (ID: 17719322/0x010E601A) Render.Flags0 and Render.Flags3 conditions are met
109: 0x0FC8 [0x4E] SET_ENTITY_HIDE_FLAG: Hide LocalPlayer
110: 0x0FCE [0x52] END_LOAD_SCHEDULER: End scheduler "s031" with entities [EventEntity, EventEntity], work=24*
111: 0x0FDD [0x45] LOAD_SCHEDULED_TASK: Load scheduler "s032" with entities [EventEntity, EventEntity], work=[24*, 0*]
112: 0x0FEE [0x79] LocalPlayer looks at Ondieumais (ID: 17719531/0x010E60EB) (Basic look)
113: 0x0FF8 [0x29] REQ_SET_WAIT(priority=0x08, entity_id=Sobane (ID: 17719322/0x010E601A), tag_num=0x02)
114: 0x0FFF [0x2B] Sobane (ID: 17719322/0x010E601A) [9835*]:
    → "I understand what you wish to say, dearest."
115: 0x1006 [0x23] WAIT_FOR_DIALOG_INTERACTION
116: 0x1007 [0x2B] Sobane (ID: 17719322/0x010E601A) [9836*]:
    → "However, we must take responsibility for the future."
117: 0x100E [0x23] WAIT_FOR_DIALOG_INTERACTION
118: 0x100F [0x29] REQ_SET_WAIT(priority=0x08, entity_id=Sobane (ID: 17719322/0x010E601A), tag_num=0x03)
119: 0x1016 [0x2B] Sobane (ID: 17719322/0x010E601A) [9837*]:
    → "Louverance Mistalle must be warned of the threat to his life..."
120: 0x101D [0x23] WAIT_FOR_DIALOG_INTERACTION
121: 0x101E [0x52] END_LOAD_SCHEDULER: End scheduler "s032" with entities [EventEntity, EventEntity], work=24*
122: 0x102D [0x45] LOAD_SCHEDULED_TASK: Load scheduler "s033" with entities [EventEntity, EventEntity], work=[24*, 0*]
123: 0x103E [0x4E] SET_ENTITY_HIDE_FLAG: Show LocalPlayer
124: 0x1044 [0x4A] Ondieumais (ID: 17719531/0x010E60EB) looks at Sobane (ID: 17719322/0x010E601A)
125: 0x104D [0x6F] WAIT_FRAME_DELAY: Yield until WaitTime reaches zero
126: 0x104E [0x76] CHECK_ENTITY_RENDER_FLAGS: Wait until Ondieumais (ID: 17719531/0x010E60EB) Render.Flags0 and Render.Flags3 conditions are met
127: 0x1053 [0x29] REQ_SET_WAIT(priority=0x08, entity_id=Ondieumais (ID: 17719531/0x010E60EB), tag_num=0x07)
128: 0x105A [0x2B] Ondieumais (ID: 17719531/0x010E60EB) [9838*]:
    → "Even though you have never met the knight in question?"
129: 0x1061 [0x23] WAIT_FOR_DIALOG_INTERACTION
130: 0x1062 [0x29] REQ_SET_WAIT(priority=0x08, entity_id=Ondieumais (ID: 17719531/0x010E60EB), tag_num=0x08)
131: 0x1069 [0x2B] Ondieumais (ID: 17719531/0x010E60EB) [9839*]:
    → "As the chef for the Teulomme family tells it, the count is facing threats from some unknown personage."
132: 0x1070 [0x23] WAIT_FOR_DIALOG_INTERACTION
133: 0x1071 [0x2B] Ondieumais (ID: 17719531/0x010E60EB) [9840*]:
    → "For all we know, it could be this Louverance you seek to protect. Count Teulomme would then be well justified in his efforts to track him down."
134: 0x1078 [0x23] WAIT_FOR_DIALOG_INTERACTION
135: 0x1079 [0x52] END_LOAD_SCHEDULER: End scheduler "s033" with entities [EventEntity, EventEntity], work=24*
136: 0x1088 [0x45] LOAD_SCHEDULED_TASK: Load scheduler "s034" with entities [EventEntity, EventEntity], work=[24*, 0*]
137: 0x1099 [0x27] REQ_SET(priority=0x0B, entity_id=Ondieumais (ID: 17719531/0x010E60EB), tag_num=0x23)
138: 0x10A0 [0x2B] Ondieumais (ID: 17719531/0x010E60EB) [9841*]:
    → "Louverance was raised in the town of Selbina, and has received no formal knightly training."
139: 0x10A7 [0x23] WAIT_FOR_DIALOG_INTERACTION
140: 0x10A8 [0x2B] Ondieumais (ID: 17719531/0x010E60EB) [9842*]:
    → "After reaching manhood, he traveled to San d'Oria with great prospects of joining the Royal Knights. His decision to give up this chance does not speak highly of his character."
141: 0x10AF [0x23] WAIT_FOR_DIALOG_INTERACTION
142: 0x10B0 [0x2A] GET_REQ_LEVEL(level=11, entity_id=Ondieumais (ID: 17719531/0x010E60EB))
143: 0x10B6 [0x7C] Sobane (ID: 17719322/0x010E601A)->Render.Flags2 |= 0x00
144: 0x10BC [0x2B] Sobane (ID: 17719322/0x010E601A) [9843*]:
    → "..."
145: 0x10C3 [0x23] WAIT_FOR_DIALOG_INTERACTION
146: 0x10C4 [0x7C] Sobane (ID: 17719322/0x010E601A)->Render.Flags2 |= 0x01
147: 0x10CA [0x52] END_LOAD_SCHEDULER: End scheduler "s034" with entities [EventEntity, EventEntity], work=24*
148: 0x10D9 [0x45] LOAD_SCHEDULED_TASK: Load scheduler "s035" with entities [EventEntity, EventEntity], work=[24*, 0*]
149: 0x10EA [0x4A] Ondieumais (ID: 17719531/0x010E60EB) looks at Sobane (ID: 17719322/0x010E601A)
150: 0x10F3 [0x6F] WAIT_FRAME_DELAY: Yield until WaitTime reaches zero
151: 0x10F4 [0x76] CHECK_ENTITY_RENDER_FLAGS: Wait until Ondieumais (ID: 17719531/0x010E60EB) Render.Flags0 and Render.Flags3 conditions are met
152: 0x10F9 [0x2B] Ondieumais (ID: 17719531/0x010E60EB) [9844*]:
    → "But it would be a mistake to judge him based on those facts alone."
153: 0x1100 [0x23] WAIT_FOR_DIALOG_INTERACTION
154: 0x1101 [0x79] Ondieumais (ID: 17719531/0x010E60EB) looks at LocalPlayer (Basic look)
155: 0x110B [0x79] Sobane (ID: 17719322/0x010E601A) looks at LocalPlayer (Basic look)
156: 0x1115 [0x2B] Ondieumais (ID: 17719531/0x010E60EB) [9845*]:
    → "That is why I would like you to confirm something for us, adventurer."
157: 0x111C [0x23] WAIT_FOR_DIALOG_INTERACTION
158: 0x111D [0x2B] Ondieumais (ID: 17719531/0x010E60EB) [9846*]:
    → "Is the person threatening Count Teulomme really this Louverance, or some other character who has strayed from the knightly path?"
159: 0x1124 [0x23] WAIT_FOR_DIALOG_INTERACTION
160: 0x1125 [0x52] END_LOAD_SCHEDULER: End scheduler "s035" with entities [EventEntity, EventEntity], work=24*
161: 0x1134 [0x45] LOAD_SCHEDULED_TASK: Load scheduler "s036" with entities [EventEntity, EventEntity], work=[24*, 0*]
162: 0x1145 [0x2B] Ondieumais (ID: 17719531/0x010E60EB) [9847*]:
    → "Apparently, the count has yet to respond to his tormentor."
163: 0x114C [0x23] WAIT_FOR_DIALOG_INTERACTION
164: 0x114D [0x2B] Ondieumais (ID: 17719531/0x010E60EB) [9848*]:
    → "According to the chef, the criminal has said that he can be contacted through one of the Tonberries of Carpenters' Landing."
165: 0x1154 [0x23] WAIT_FOR_DIALOG_INTERACTION
166: 0x1155 [0x52] END_LOAD_SCHEDULER: End scheduler "s036" with entities [EventEntity, EventEntity], work=24*
167: 0x1164 [0x45] LOAD_SCHEDULED_TASK: Load scheduler "s037" with entities [EventEntity, EventEntity], work=[24*, 0*]
168: 0x1175 [0x79] Sobane (ID: 17719322/0x010E601A) looks at Ondieumais (ID: 17719531/0x010E60EB) (Basic look)
169: 0x117F [0x7B] Ondieumais (ID: 17719531/0x010E60EB) stops talking
170: 0x1184 [0x4B] UPDATE_ENTITY_YAW(entity=Sobane (ID: 17719322/0x010E601A), yaw=9.0°*)
171: 0x118B [0x4B] UPDATE_ENTITY_YAW(entity=LocalPlayer, yaw=3.5°*)
172: 0x1192 [0x27] REQ_SET(priority=0x0B, entity_id=Ondieumais (ID: 17719531/0x010E60EB), tag_num=0x24)
173: 0x1199 [0x2B] Ondieumais (ID: 17719531/0x010E60EB) [9849*]:
    → "That is all I know. I must return to my duties in the chateau. Sobane, be wary of strangers."
174: 0x11A0 [0x23] WAIT_FOR_DIALOG_INTERACTION
175: 0x11A1 [0x2A] GET_REQ_LEVEL(level=11, entity_id=Ondieumais (ID: 17719531/0x010E60EB))
176: 0x11A7 [0x4A] LocalPlayer looks at Ondieumais (ID: 17719531/0x010E60EB)
177: 0x11B0 [0x2B] Sobane (ID: 17719322/0x010E601A) [9850*]:
    → "Yes, dear..."
178: 0x11B7 [0x23] WAIT_FOR_DIALOG_INTERACTION
179: 0x11B8 [0x27] REQ_SET(priority=0x0B, entity_id=Ondieumais (ID: 17719531/0x010E60EB), tag_num=0x25)
180: 0x11BF [0x1C] WAIT(60* ticks)
181: 0x11C2 [0x5D] SET_MUSIC_VOLUME(volume=0*, fade_time=120*)
182: 0x11C7 [0x45] LOAD_SCHEDULED_TASK: Load scheduler "fdo1" with entities [LocalPlayer, LocalPlayer], work=[200*, 0*]
183: 0x11D8 [0x1C] WAIT(120* ticks)
184: 0x11DB [0x2A] GET_REQ_LEVEL(level=11, entity_id=Ondieumais (ID: 17719531/0x010E60EB))
185: 0x11E1 [0x52] END_LOAD_SCHEDULER: End scheduler "s037" with entities [EventEntity, EventEntity], work=24*
186: 0x11F0 [0x5C] MUSIC_CONTROL: Set Idle (Day) music to song 107*
187: 0x11F4 [0x5C] MUSIC_CONTROL: Set Idle (Night) music to song 107*
188: 0x11F8 [0x4E] SET_ENTITY_HIDE_FLAG: Show LocalPlayer
189: 0x11FE [0x80] LOAD_WAIT(entity=LocalPlayer)
190: 0x1203 [0x46] CAMERA_CONTROL: Restore default settings
191: 0x1205 [0x45] LOAD_SCHEDULED_TASK: Load scheduler "fdi1" with entities [LocalPlayer, LocalPlayer], work=[200*, 0*]
192: 0x1216 [0x20] SET_CLI_EVENT_UC_FLAG: Unlock player control
193: 0x1218 [0x21] END_EVENT
194: 0x1219 [0x00] END_REQSTACK()
```

### Event 740

#### Metadata

| Field        | Value      |
|--------------|------------|
| Entrypoint   | 0x121A     |
| Data Size    | 1275 bytes |
| Instructions | 168        |

```
      00 01 02 03 04 05 06 07  08 09 0A 0B 0C 0D 0E 0F
      -- -- -- -- -- -- -- --  -- -- -- -- -- -- -- --
1210:                                20 01 42 46 01 5D             .BF.]
1220: 0D 80 0E 80 45 0F 80 F8  FF FF 7F F8 FF FF 7F 66  ....E..........f
1230: 64 6F 31 0D 80 1C 0E 80  38 10 80 29 08 F0 FF FF  do1.....8..)....
1240: 7F 39 75 00 11 80 75 01  29 0B F0 FF FF 7F 41 29  .9u...u.).....A)
1250: 0B EB 60 0E 01 28 4E 01  EB 60 0E 01 4E 00 1A 60  ..`..(N..`..N..`
1260: 0E 01 80 1A 60 0E 01 4A  1A 60 0E 01 F0 FF FF 7F  ....`..J.`......
1270: 4A F0 FF FF 7F 1A 60 0E  01 6F 76 1A 60 0E 01 92  J.....`..ov.`...
1280: 01 1A 60 0E 01 92 01 EB  60 0E 01 45 13 80 F8 FF  ..`.....`..E....
1290: FF 7F F8 FF FF 7F 73 30  30 30 0D 80 45 0F 80 F8  ......s000..E...
12A0: FF FF 7F F8 FF FF 7F 66  64 69 31 0D 80 29 08 1A  .......fdi1..)..
12B0: 60 0E 01 02 2B 1A 60 0E  01 6F 80 23 2B 1A 60 0E  `...+.`..o.#+.`.
12C0: 01 70 80 23 45 0F 80 F8  FF FF 7F F8 FF FF 7F 66  .p.#E..........f
12D0: 64 6F 31 0D 80 1C 26 80  52 13 80 F8 FF FF 7F F8  do1...&.R.......
12E0: FF FF 7F 73 30 30 30 5C  00 71 80 5C 01 71 80 45  ...s000\.q.\.q.E
12F0: 13 80 F8 FF FF 7F F8 FF  FF 7F 73 30 34 30 0D 80  ..........s040..
1300: 45 0F 80 F8 FF FF 7F F8  FF FF 7F 66 64 69 31 0D  E..........fdi1.
1310: 80 2B 1A 60 0E 01 72 80  23 2B 1A 60 0E 01 73 80  .+.`..r.#+.`..s.
1320: 23 29 08 1A 60 0E 01 03  29 0B 98 60 0E 01 05 79  #)..`...)..`...y
1330: 00 1A 60 0E 01 EB 60 0E  01 4E 00 EB 60 0E 01 80  ..`...`..N..`...
1340: EB 60 0E 01 52 13 80 F8  FF FF 7F F8 FF FF 7F 73  .`..R..........s
1350: 30 34 30 45 13 80 F8 FF  FF 7F F8 FF FF 7F 73 30  040E..........s0
1360: 33 38 0D 80 4A F0 FF FF  7F EB 60 0E 01 79 00 EB  38..J.....`..y..
1370: 60 0E 01 1A 60 0E 01 27  0B EB 60 0E 01 29 1C 26  `...`..'..`..).&
1380: 80 2B EB 60 0E 01 74 80  23 2A 0B EB 60 0E 01 52  .+.`..t.#*..`..R
1390: 13 80 F8 FF FF 7F F8 FF  FF 7F 73 30 33 38 02 09  ..........s038..
13A0: 10 1B 80 00 BA 13 45 13  80 F8 FF FF 7F F8 FF FF  ......E.........
13B0: 7F 73 30 34 33 0D 80 01  1F 14 02 09 10 1C 80 00  .s043...........
13C0: D6 13 45 13 80 F8 FF FF  7F F8 FF FF 7F 73 30 34  ..E..........s04
13D0: 32 0D 80 01 1F 14 02 09  10 1D 80 00 F2 13 45 13  2.............E.
13E0: 80 F8 FF FF 7F F8 FF FF  7F 73 30 34 32 0D 80 01  .........s042...
13F0: 1F 14 02 09 10 1E 80 00  0E 14 45 13 80 F8 FF FF  ..........E.....
1400: 7F F8 FF FF 7F 73 30 34  33 0D 80 01 1F 14 45 13  .....s043.....E.
1410: 80 F8 FF FF 7F F8 FF FF  7F 73 30 33 39 0D 80 79  .........s039..y
1420: 00 EB 60 0E 01 F0 FF FF  7F 2B EB 60 0E 01 75 80  ..`......+.`..u.
1430: 23 29 0B 98 60 0E 01 06  29 08 EB 60 0E 01 05 2B  #)..`...)..`...+
1440: EB 60 0E 01 76 80 23 2B  EB 60 0E 01 77 80 23 29  .`..v.#+.`..w.#)
1450: 08 EB 60 0E 01 06 29 08  EB 60 0E 01 07 29 08 EB  ..`...)..`...)..
1460: 60 0E 01 08 02 09 10 1B  80 00 7E 14 52 13 80 F8  `.........~.R...
1470: FF FF 7F F8 FF FF 7F 73  30 34 33 01 DB 14 02 09  .......s043.....
1480: 10 1C 80 00 98 14 52 13  80 F8 FF FF 7F F8 FF FF  ......R.........
1490: 7F 73 30 34 32 01 DB 14  02 09 10 1D 80 00 B2 14  .s042...........
14A0: 52 13 80 F8 FF FF 7F F8  FF FF 7F 73 30 34 32 01  R..........s042.
14B0: DB 14 02 09 10 1E 80 00  CC 14 52 13 80 F8 FF FF  ..........R.....
14C0: 7F F8 FF FF 7F 73 30 34  33 01 DB 14 52 13 80 F8  .....s043...R...
14D0: FF FF 7F F8 FF FF 7F 73  30 33 39 45 13 80 F8 FF  .......s039E....
14E0: FF 7F F8 FF FF 7F 73 30  34 31 0D 80 79 00 EB 60  ......s041..y..`
14F0: 0E 01 1A 60 0E 01 4A 1A  60 0E 01 EB 60 0E 01 27  ...`..J.`...`..'
1500: 0B EB 60 0E 01 2A 2B EB  60 0E 01 78 80 23 4A F0  ..`..*+.`..x.#J.
1510: FF FF 7F EB 60 0E 01 2B  EB 60 0E 01 79 80 23 2A  ....`..+.`..y.#*
1520: 0B EB 60 0E 01 6F 76 1A  60 0E 01 29 08 1A 60 0E  ..`..ov.`..)..`.
1530: 01 02 2B 1A 60 0E 01 7A  80 23 2B EB 60 0E 01 7B  ..+.`..z.#+.`..{
1540: 80 23 29 08 1A 60 0E 01  03 27 0B EB 60 0E 01 2B  .#)..`...'..`..+
1550: 1C 7C 80 45 0F 80 F8 FF  FF 7F F8 FF FF 7F 66 64  .|.E..........fd
1560: 6F 31 0D 80 1C 26 80 52  13 80 F8 FF FF 7F F8 FF  o1...&.R........
1570: FF 7F 73 30 34 31 2A 0B  EB 60 0E 01 02 09 10 1B  ..s041*..`......
1580: 80 00 98 15 45 13 80 F8  FF FF 7F F8 FF FF 7F 73  ....E..........s
1590: 30 30 33 0D 80 01 FD 15  02 09 10 1C 80 00 B4 15  003.............
15A0: 45 13 80 F8 FF FF 7F F8  FF FF 7F 73 30 30 34 0D  E..........s004.
15B0: 80 01 FD 15 02 09 10 1D  80 00 D0 15 45 13 80 F8  ............E...
15C0: FF FF 7F F8 FF FF 7F 73  30 30 34 0D 80 01 FD 15  .......s004.....
15D0: 02 09 10 1E 80 00 EC 15  45 13 80 F8 FF FF 7F F8  ........E.......
15E0: FF FF 7F 73 30 30 33 0D  80 01 FD 15 45 13 80 F8  ...s003.....E...
15F0: FF FF 7F F8 FF FF 7F 73  30 30 32 0D 80 45 0F 80  .......s002..E..
1600: F8 FF FF 7F F8 FF FF 7F  66 64 69 31 0D 80 4A 1A  ........fdi1..J.
1610: 60 0E 01 F0 FF FF 7F 6F  76 1A 60 0E 01 2B 1A 60  `......ov.`..+.`
1620: 0E 01 7D 80 23 4A F0 FF  FF 7F 1A 60 0E 01 6F 76  ..}.#J.....`..ov
1630: F0 FF FF 7F 29 08 1A 60  0E 01 14 2B 1A 60 0E 01  ....)..`...+.`..
1640: 7E 80 23 29 08 1A 60 0E  01 15 5D 0D 80 0E 80 45  ~.#)..`...]....E
1650: 0F 80 F0 FF FF 7F F0 FF  FF 7F 66 64 6F 31 0D 80  ..........fdo1..
1660: 1C 0E 80 02 09 10 1B 80  00 7D 16 52 13 80 F8 FF  .........}.R....
1670: FF 7F F8 FF FF 7F 73 30  30 33 01 DA 16 02 09 10  ......s003......
1680: 1C 80 00 97 16 52 13 80  F8 FF FF 7F F8 FF FF 7F  .....R..........
1690: 73 30 30 34 01 DA 16 02  09 10 1D 80 00 B1 16 52  s004...........R
16A0: 13 80 F8 FF FF 7F F8 FF  FF 7F 73 30 30 34 01 DA  ..........s004..
16B0: 16 02 09 10 1E 80 00 CB  16 52 13 80 F8 FF FF 7F  .........R......
16C0: F8 FF FF 7F 73 30 30 33  01 DA 16 52 13 80 F8 FF  ....s003...R....
16D0: FF 7F F8 FF FF 7F 73 30  30 32 5C 00 23 80 5C 01  ......s002\.#.\.
16E0: 23 80 4E 00 F0 FF FF 7F  80 F0 FF FF 7F 45 4E 80  #.N..........EN.
16F0: F0 FF FF 7F F0 FF FF 7F  71 73 74 63 0D 80 46 00  ........qstc..F.
1700: 45 0F 80 F0 FF FF 7F F0  FF FF 7F 66 64 69 31 0D  E..........fdi1.
1710: 80 20 00 21 00                                    . .!.           
```

#### Opcodes

```
  0: 0x121A [0x20] SET_CLI_EVENT_UC_FLAG: Lock player control
  1: 0x121C [0x42] SET_CLI_EVENT_CANCEL_DATA()
  2: 0x121D [0x46] CAMERA_CONTROL: Disable user control
  3: 0x121F [0x5D] SET_MUSIC_VOLUME(volume=0*, fade_time=120*)
  4: 0x1224 [0x45] LOAD_SCHEDULED_TASK: Load scheduler "fdo1" with entities [EventEntity, EventEntity], work=[200*, 0*]
  5: 0x1235 [0x1C] WAIT(120* ticks)
  6: 0x1238 [0x38] SET_CLIENT_EVENT_MODE(mode=19*)
  7: 0x123B [0x29] REQ_SET_WAIT(priority=0x08, entity_id=LocalPlayer, tag_num=0x39)
  8: 0x1242 [0x75] LOAD_ROOM(Load indoor room, room=337*)
  9: 0x1246 [0x75] LOAD_ROOM(No action)
 10: 0x1248 [0x29] REQ_SET_WAIT(priority=0x0B, entity_id=LocalPlayer, tag_num=0x41)
 11: 0x124F [0x29] REQ_SET_WAIT(priority=0x0B, entity_id=Ondieumais (ID: 17719531/0x010E60EB), tag_num=0x28)
 12: 0x1256 [0x4E] SET_ENTITY_HIDE_FLAG: Hide Ondieumais (ID: 17719531/0x010E60EB)
 13: 0x125C [0x4E] SET_ENTITY_HIDE_FLAG: Show Sobane (ID: 17719322/0x010E601A)
 14: 0x1262 [0x80] LOAD_WAIT(entity=Sobane (ID: 17719322/0x010E601A))
 15: 0x1267 [0x4A] Sobane (ID: 17719322/0x010E601A) looks at LocalPlayer
 16: 0x1270 [0x4A] LocalPlayer looks at Sobane (ID: 17719322/0x010E601A)
 17: 0x1279 [0x6F] WAIT_FRAME_DELAY: Yield until WaitTime reaches zero
 18: 0x127A [0x76] CHECK_ENTITY_RENDER_FLAGS: Wait until Sobane (ID: 17719322/0x010E601A) Render.Flags0 and Render.Flags3 conditions are met
 19: 0x127F [0x92] Sobane (ID: 17719322/0x010E601A)->Render.Flags3 ^= 0x01
 20: 0x1285 [0x92] Ondieumais (ID: 17719531/0x010E60EB)->Render.Flags3 ^= 0x01
 21: 0x128B [0x45] LOAD_SCHEDULED_TASK: Load scheduler "s000" with entities [EventEntity, EventEntity], work=[24*, 0*]
 22: 0x129C [0x45] LOAD_SCHEDULED_TASK: Load scheduler "fdi1" with entities [EventEntity, EventEntity], work=[200*, 0*]
 23: 0x12AD [0x29] REQ_SET_WAIT(priority=0x08, entity_id=Sobane (ID: 17719322/0x010E601A), tag_num=0x02)
 24: 0x12B4 [0x2B] Sobane (ID: 17719322/0x010E601A) [9854*]:
    → "<Player>, you look exhausted. This request has been hard on you."
 25: 0x12BB [0x23] WAIT_FOR_DIALOG_INTERACTION
 26: 0x12BC [0x2B] Sobane (ID: 17719322/0x010E601A) [9855*]:
    → "You have discovered the identity of the one threatening Count Teulomme? And it was not Sir Louverance?"
 27: 0x12C3 [0x23] WAIT_FOR_DIALOG_INTERACTION
 28: 0x12C4 [0x45] LOAD_SCHEDULED_TASK: Load scheduler "fdo1" with entities [EventEntity, EventEntity], work=[200*, 0*]
 29: 0x12D5 [0x1C] WAIT(60* ticks)
