# 17719572

## Common Data

| Field            | Value                         |
|------------------|-------------------------------|
| Zone             | Southern San d'Oria (ID: 230) |
| Block Size       | 3008 bytes                    |
| Total Events     | 56                            |
| References Count | 236                           |

## List of Events

| Event ID                   | Entrypoint   |   Size |   Instructions |
|----------------------------|--------------|--------|----------------|
| [65535](#event-65535)      | 0x0000       |      1 |              1 |
| [827](#event-827)          | 0x0001       |      1 |              1 |
| [823](#event-823)          | 0x0002       |      1 |              1 |
| [65535.1](#event-655351)   | 0x0003       |     11 |              3 |
| [65535.2](#event-655352)   | 0x000E       |     25 |              3 |
| [65535.3](#event-655353)   | 0x0027       |      5 |              2 |
| [65535.4](#event-655354)   | 0x002C       |     10 |              2 |
| [65535.5](#event-655355)   | 0x0036       |    121 |             24 |
| [65535.6](#event-655356)   | 0x00AF       |    121 |             24 |
| [65535.7](#event-655357)   | 0x0128       |     15 |              3 |
| [65535.8](#event-655358)   | 0x0137       |     14 |              4 |
| [65535.9](#event-655359)   | 0x0145       |     11 |              3 |
| [65535.10](#event-6553510) | 0x0150       |     11 |              3 |
| [65535.11](#event-6553511) | 0x015B       |     11 |              3 |
| [65535.12](#event-6553512) | 0x0166       |     14 |              4 |
| [65535.13](#event-6553513) | 0x0174       |     15 |              3 |
| [65535.14](#event-6553514) | 0x0183       |     22 |              6 |
| [65535.15](#event-6553515) | 0x0199       |     15 |              3 |
| [65535.16](#event-6553516) | 0x01A8       |     22 |              6 |
| [65535.17](#event-6553517) | 0x01BE       |     15 |              3 |
| [65535.18](#event-6553518) | 0x01CD       |     22 |              6 |
| [65535.19](#event-6553519) | 0x01E3       |     15 |              3 |
| [65535.20](#event-6553520) | 0x01F2       |    335 |             71 |
| [65535.21](#event-6553521) | 0x0341       |     22 |              5 |
| [65535.22](#event-6553522) | 0x0357       |      2 |              2 |
| [65535.23](#event-6553523) | 0x0359       |     15 |              3 |
| [65535.24](#event-6553524) | 0x0368       |     14 |              4 |
| [65535.25](#event-6553525) | 0x0376       |     19 |              5 |
| [65535.26](#event-6553526) | 0x0389       |     15 |              3 |
| [65535.27](#event-6553527) | 0x0398       |     24 |              6 |
| [65535.28](#event-6553528) | 0x03B0       |     19 |              5 |
| [65535.29](#event-6553529) | 0x03C3       |     15 |              3 |
| [65535.30](#event-6553530) | 0x03D2       |     14 |              4 |
| [65535.31](#event-6553531) | 0x03E0       |     19 |              5 |
| [65535.32](#event-6553532) | 0x03F3       |     10 |              2 |
| [65535.33](#event-6553533) | 0x03FD       |     19 |              5 |
| [861](#event-861)          | 0x0410       |      1 |              1 |
| [65535.34](#event-6553534) | 0x0411       |     15 |              3 |
| [65535.35](#event-6553535) | 0x0420       |     48 |             11 |
| [65535.36](#event-6553536) | 0x0450       |     48 |             11 |
| [65535.37](#event-6553537) | 0x0480       |      6 |              2 |
| [65535.38](#event-6553538) | 0x0486       |     15 |              3 |
| [65535.39](#event-6553539) | 0x0495       |     54 |             12 |
| [65535.40](#event-6553540) | 0x04CB       |     66 |             16 |
| [65535.41](#event-6553541) | 0x050D       |     15 |              3 |
| [65535.42](#event-6553542) | 0x051C       |     73 |             17 |
| [65535.43](#event-6553543) | 0x0565       |     50 |             12 |
| [65535.44](#event-6553544) | 0x0597       |     50 |             12 |
| [65535.45](#event-6553545) | 0x05C9       |     67 |             15 |
| [65535.46](#event-6553546) | 0x060C       |     14 |              4 |
| [65535.47](#event-6553547) | 0x061A       |     51 |             11 |
| [65535.48](#event-6553548) | 0x064D       |     14 |              4 |
| [65535.49](#event-6553549) | 0x065B       |     51 |             11 |
| [65535.50](#event-6553550) | 0x068E       |     59 |             13 |
| [65535.51](#event-6553551) | 0x06C9       |     69 |             15 |
| [65535.52](#event-6553552) | 0x070E       |     15 |              3 |

## DAT References (imed_data)

|   Index | Hex Value   |   Dec Value |
|---------|-------------|-------------|
|       0 | 0x0001      |           1 |
|       1 | 0x22EC      |        8940 |
|       2 | 0xFFFE9A5B  |  4294875739 |
|       3 | 0x0897      |        2199 |
|       4 | 0x009C      |         156 |
|       5 | 0x0039      |          57 |
|       6 | 0x5688      |       22152 |
|       7 | 0xFFFE8963  |  4294871395 |
|       8 | 0x59FA      |       23034 |
|       9 | 0xFFFE9703  |  4294874883 |
|      10 | 0x20CA      |        8394 |
|      11 | 0xFFFEA6F2  |  4294878962 |
|      12 | 0x1A0A      |        6666 |
|      13 | 0xFFFEA628  |  4294878760 |
|      14 | 0x1971      |        6513 |
|      15 | 0xFFFEA380  |  4294878080 |
|      16 | 0x2C7E      |       11390 |
|      17 | 0xFFFE96C5  |  4294874821 |
|      18 | 0x3EC8      |       16072 |
|      19 | 0xFFFE9096  |  4294873238 |
|      20 | 0x4D5E      |       19806 |
|      21 | 0xFFFE8BA4  |  4294871972 |
|      22 | 0x0000      |           0 |
|      23 | 0x6EC8      |       28360 |
|      24 | 0xFFFE72AE  |  4294865582 |
|      25 | 0x0886      |        2182 |
|      26 | 0x6B56      |       27478 |
|      27 | 0xFFFE731F  |  4294865695 |
|      28 | 0x6918      |       26904 |
|      29 | 0xFFFE7366  |  4294865766 |
|      30 | 0x6410      |       25616 |
|      31 | 0xFFFE7349  |  4294865737 |
|      32 | 0x6149      |       24905 |
|      33 | 0xFFFE7331  |  4294865713 |
|      34 | 0x63D3      |       25555 |
|      35 | 0xFFFE82D1  |  4294869713 |
|      36 | 0xFFFC6C75  |  4294732917 |
|      37 | 0x4D6AA     |      317098 |
|      38 | 0xFFFF1664  |  4294907492 |
|      39 | 0x0D8D      |        3469 |
|      40 | 0x000A      |          10 |
|      41 | 0xFFFC7F73  |  4294737779 |
|      42 | 0x4EAB0     |      322224 |
|      43 | 0xFFFF1794  |  4294907796 |
|      44 | 0x003C      |          60 |
|      45 | 0xFFFA10BD  |  4294578365 |
|      46 | 0x22462     |      140386 |
|      47 | 0xFFFF75E0  |  4294931936 |
|      48 | 0x0174      |         372 |
|      49 | 0x0013      |          19 |
|      50 | 0xFFFA226B  |  4294582891 |
|      51 | 0x21BBF     |      138175 |
|      52 | 0xFFFF7433  |  4294931507 |
|      53 | 0xFFF5E1DC  |  4294304220 |
|      54 | 0x6E11D     |      450845 |
|      55 | 0x4073      |       16499 |
|      56 | 0x01E0      |         480 |
|      57 | 0xFFF5C548  |  4294296904 |
|      58 | 0x6F0EC     |      454892 |
|      59 | 0x625D      |       25181 |
|      60 | 0xFFFEF229  |  4294898217 |
|      61 | 0x07CF      |        1999 |
|      62 | 0x0E37      |        3639 |
|      63 | 0x93AB      |       37803 |
|      64 | 0xFFFF23E2  |  4294910946 |
|      65 | 0x07D3      |        2003 |
|      66 | 0x0002      |           2 |
|      67 | 0x0005      |           5 |
|      68 | 0x97FA      |       38906 |
|      69 | 0xFFFF6CCA  |  4294929610 |
|      70 | 0x0003      |           3 |
|      71 | 0x479C      |       18332 |
|      72 | 0xFFFF969C  |  4294940316 |
|      73 | 0x110B      |        4363 |
|      74 | 0xFFFFA62D  |  4294944301 |
|      75 | 0xFFFFF053  |  4294963283 |
|      76 | 0xFFFFA713  |  4294944531 |
|      77 | 0xFFFFBA9F  |  4294949535 |
|      78 | 0xFFFF95D8  |  4294940120 |
|      79 | 0xFFFF61EF  |  4294926831 |
|      80 | 0xFFFF6BA3  |  4294929315 |
|      81 | 0xFFFF6239  |  4294926905 |
|      82 | 0xFFFF2C7B  |  4294913147 |
|      83 | 0xFFFF689C  |  4294928540 |
|      84 | 0xFFFF1E49  |  4294909513 |
|      85 | 0xFFFF776E  |  4294932334 |
|      86 | 0xFFFF1DA4  |  4294909348 |
|      87 | 0xFFFFA1E6  |  4294943206 |
|      88 | 0xFFFEE4FD  |  4294894845 |
|      89 | 0x0347      |         839 |
|      90 | 0xFFFFBCCD  |  4294950093 |
|      91 | 0xFFFFC47E  |  4294952062 |
|      92 | 0x0219      |         537 |
|      93 | 0xFFFC8A0F  |  4294740495 |
|      94 | 0x4DF24     |      319268 |
|      95 | 0xFFFF16F8  |  4294907640 |
|      96 | 0x0FC2      |        4034 |
|      97 | 0xFFFC92E5  |  4294742757 |
|      98 | 0x4D8D8     |      317656 |
|      99 | 0xFFFF15DD  |  4294907357 |
|     100 | 0xFFFC8098  |  4294738072 |
|     101 | 0x4DEA4     |      319140 |
|     102 | 0xFFFA3A45  |  4294588997 |
|     103 | 0x24D97     |      150935 |
|     104 | 0xFFFF66EA  |  4294928106 |
|     105 | 0x0F83      |        3971 |
|     106 | 0xFFFA37AF  |  4294588335 |
|     107 | 0x24AEF     |      150255 |
|     108 | 0xFFFF67FF  |  4294928383 |
|     109 | 0xFFFA37DE  |  4294588382 |
|     110 | 0x23E88     |      147080 |
|     111 | 0xFFFF6C2B  |  4294929451 |
|     112 | 0xFFFA30A5  |  4294586533 |
|     113 | 0x245DD     |      148957 |
|     114 | 0xFFFF69E6  |  4294928870 |
|     115 | 0xFFF5E3AF  |  4294304687 |
|     116 | 0x7ACB      |       31435 |
|     117 | 0xFFFF8C54  |  4294937684 |
|     118 | 0x0DB8      |        3512 |
|     119 | 0xFFF5E3D1  |  4294304721 |
|     120 | 0x6CC4      |       27844 |
|     121 | 0xFFFF8E0A  |  4294938122 |
|     122 | 0xFFF5E0A4  |  4294303908 |
|     123 | 0x76AF      |       30383 |
|     124 | 0xFFFF8D9B  |  4294938011 |
|     125 | 0xFFFFF695  |  4294964885 |
|     126 | 0xFFFE8139  |  4294869305 |
|     127 | 0xFFFFFF9D  |  4294967197 |
|     128 | 0x03CE      |         974 |
|     129 | 0xFFFFF661  |  4294964833 |
|     130 | 0xFFFE7073  |  4294865011 |
|     131 | 0xFFF6C3EF  |  4294362095 |
|     132 | 0x93FF1     |      606193 |
|     133 | 0x00A7      |         167 |
|     134 | 0x0179      |         377 |
|     135 | 0xFFF6C0EC  |  4294361324 |
|     136 | 0x945D1     |      607697 |
|     137 | 0x0004      |           4 |
|     138 | 0xFFF6B7E2  |  4294359010 |
|     139 | 0x94244     |      606788 |
|     140 | 0xFFFFFFC0  |  4294967232 |
|     141 | 0xFFF6BED4  |  4294360788 |
|     142 | 0x946D6     |      607958 |
|     143 | 0xFFFFFFCF  |  4294967247 |
|     144 | 0xFFF6D7C0  |  4294367168 |
|     145 | 0x8EF6A     |      585578 |
|     146 | 0x0274      |         628 |
|     147 | 0x011C      |         284 |
|     148 | 0xFFF6D0CA  |  4294365386 |
|     149 | 0x8F7DF     |      587743 |
|     150 | 0x0112      |         274 |
|     151 | 0xFFF6D779  |  4294367097 |
|     152 | 0x8FCC2     |      588994 |
|     153 | 0x015B      |         347 |
|     154 | 0xFFF6DB55  |  4294368085 |
|     155 | 0x8F169     |      586089 |
|     156 | 0x024A      |         586 |
|     157 | 0xFFF6DAA1  |  4294367905 |
|     158 | 0x8E6CF     |      583375 |
|     159 | 0x033E      |         830 |
|     160 | 0x001E      |          30 |
|     161 | 0xFFF6D3B3  |  4294366131 |
|     162 | 0x8F340     |      586560 |
|     163 | 0x01D0      |         464 |
|     164 | 0x0101      |         257 |
|     165 | 0x0078      |         120 |
|     166 | 0xFFF6D069  |  4294365289 |
|     167 | 0x8F7F4     |      587764 |
|     168 | 0x010C      |         268 |
|     169 | 0xFFF6D763  |  4294367075 |
|     170 | 0x8FB0E     |      588558 |
|     171 | 0x0171      |         369 |
|     172 | 0xFFF6CFE0  |  4294365152 |
|     173 | 0x8F449     |      586825 |
|     174 | 0x0178      |         376 |
|     175 | 0x0862      |        2146 |
|     176 | 0xFFF6D8AC  |  4294367404 |
|     177 | 0x8FABD     |      588477 |
|     178 | 0x0175      |         373 |
|     179 | 0xFFF6DB01  |  4294368001 |
|     180 | 0x90356     |      590678 |
|     181 | 0x0108      |         264 |
|     182 | 0x03BF      |         959 |
|     183 | 0xFFF6C73F  |  4294362943 |
|     184 | 0x8F234     |      586292 |
|     185 | 0x008A      |         138 |
|     186 | 0x0025      |          37 |
|     187 | 0x00F0      |         240 |
|     188 | 0xFFF6D6F8  |  4294366968 |
|     189 | 0x8E30A     |      582410 |
|     190 | 0x0322      |         802 |
|     191 | 0x0BD3      |        3027 |
|     192 | 0xFFF6DB94  |  4294368148 |
|     193 | 0x8FCF3     |      589043 |
|     194 | 0x0159      |         345 |
|     195 | 0xFFF6C79F  |  4294363039 |
|     196 | 0x8F34D     |      586573 |
|     197 | 0xFFF6CB4A  |  4294363978 |
|     198 | 0x8FAEF     |      588527 |
|     199 | 0x00C4      |         196 |
|     200 | 0xFFF6D269  |  4294365801 |
|     201 | 0x8F138     |      586040 |
|     202 | 0x01F0      |         496 |
|     203 | 0xFFF6D2EF  |  4294365935 |
|     204 | 0x8EB3B     |      584507 |
|     205 | 0x021E      |         542 |
|     206 | 0xFFF6D6A2  |  4294366882 |
|     207 | 0x8E8B3     |      583859 |
|     208 | 0x02C0      |         704 |
|     209 | 0xFFF6DAB0  |  4294367920 |
|     210 | 0x8EE3C     |      585276 |
|     211 | 0x029C      |         668 |
|     212 | 0xFFF6DC30  |  4294368304 |
|     213 | 0x8F5FC     |      587260 |
|     214 | 0x01D4      |         468 |
|     215 | 0xFFF6D87A  |  4294367354 |
|     216 | 0x8F6D2     |      587474 |
|     217 | 0x01BF      |         447 |
|     218 | 0xFFF6CEAA  |  4294364842 |
|     219 | 0x8FA2D     |      588333 |
|     220 | 0x00F7      |         247 |
|     221 | 0xFFF6CA0E  |  4294363662 |
|     222 | 0x8EFB9     |      585657 |
|     223 | 0x0090      |         144 |
|     224 | 0xFFF6CECB  |  4294364875 |
|     225 | 0x8E418     |      582680 |
|     226 | 0x018C      |         396 |
|     227 | 0xFFF6DB79  |  4294368121 |
|     228 | 0x8E4F3     |      582899 |
|     229 | 0x0356      |         854 |
|     230 | 0xFFF6DE60  |  4294368864 |
|     231 | 0x8F7D9     |      587737 |
|     232 | 0x019A      |         410 |
|     233 | 0xFFF6D8AE  |  4294367406 |
|     234 | 0x8FE78     |      589432 |
|     235 | 0x0146      |         326 |

## Events

### Event 65535

#### Metadata

| Field        | Value   |
|--------------|---------|
| Entrypoint   | 0x0000  |
| Data Size    | 1 bytes |
| Instructions | 1       |

```
      00 01 02 03 04 05 06 07  08 09 0A 0B 0C 0D 0E 0F
      -- -- -- -- -- -- -- --  -- -- -- -- -- -- -- --
0000: 00                                                .               
```

#### Opcodes

```
  0: 0x0000 [0x00] END_REQSTACK()
```

### Event 827

#### Metadata

| Field        | Value   |
|--------------|---------|
| Entrypoint   | 0x0001  |
| Data Size    | 1 bytes |
| Instructions | 1       |

```
      00 01 02 03 04 05 06 07  08 09 0A 0B 0C 0D 0E 0F
      -- -- -- -- -- -- -- --  -- -- -- -- -- -- -- --
0000:    00                                              .              
```

#### Opcodes

```
  0: 0x0001 [0x00] END_REQSTACK()
```

### Event 823

#### Metadata

| Field        | Value   |
|--------------|---------|
| Entrypoint   | 0x0002  |
| Data Size    | 1 bytes |
| Instructions | 1       |

```
      00 01 02 03 04 05 06 07  08 09 0A 0B 0C 0D 0E 0F
      -- -- -- -- -- -- -- --  -- -- -- -- -- -- -- --
0000:       00                                            .             
```

#### Opcodes

```
  0: 0x0002 [0x00] END_REQSTACK()
```

### Event 65535.1

#### Metadata

| Field        | Value    |
|--------------|----------|
| Entrypoint   | 0x0003   |
| Data Size    | 11 bytes |
| Instructions | 3        |

```
      00 01 02 03 04 05 06 07  08 09 0A 0B 0C 0D 0E 0F
      -- -- -- -- -- -- -- --  -- -- -- -- -- -- -- --
0000:          B4 01 00 00 00  80 B5 00 00 00 00           ...........  
```

#### Opcodes

```
  0: 0x0003 [0xB4] UI_WINDOW_STRING_HANDLER(case=0x01 - Copy string from event strings table, work_offset=ExtData[1]->WorkLocal[0], string_index=1*)
  1: 0x0009 [0xB5] SET_EVENT_ENTITY_NAME: Change EventEntity name to ExtData[1]->WorkLocal[0]
  2: 0x000D [0x00] END_REQSTACK()
```

### Event 65535.2

#### Metadata

| Field        | Value    |
|--------------|----------|
| Entrypoint   | 0x000E   |
| Data Size    | 25 bytes |
| Instructions | 3        |

```
      00 01 02 03 04 05 06 07  08 09 0A 0B 0C 0D 0E 0F
      -- -- -- -- -- -- -- --  -- -- -- -- -- -- -- --
0000:                                            B4 00                ..
0010: 00 00 43 68 6F 63 6F 62  6F 00 00 00 00 00 00 00  ..Chocobo.......
0020: 00 00 B5 00 00 00 00                              .......         
```

#### Opcodes

```
  0: 0x000E [0xB4] UI_WINDOW_STRING_HANDLER(case=0x00 - Copy string from opcode, work_offset=ExtData[1]->WorkLocal[0], string="Chocobo")
  1: 0x0022 [0xB5] SET_EVENT_ENTITY_NAME: Change EventEntity name to ExtData[1]->WorkLocal[0]
  2: 0x0026 [0x00] END_REQSTACK()
```

### Event 65535.3

#### Metadata

| Field        | Value   |
|--------------|---------|
| Entrypoint   | 0x0027  |
| Data Size    | 5 bytes |
| Instructions | 2       |

```
      00 01 02 03 04 05 06 07  08 09 0A 0B 0C 0D 0E 0F
      -- -- -- -- -- -- -- --  -- -- -- -- -- -- -- --
0020:                      B6  00 04 10 00                     .....    
```

#### Opcodes

```
  0: 0x0027 [0xB6] ENTITY_APPEARANCE_HANDLER(case=Hair style, value=Work_Zone[4])
  1: 0x002B [0x00] END_REQSTACK()
```

### Event 65535.4

#### Metadata

| Field        | Value    |
|--------------|----------|
| Entrypoint   | 0x002C   |
| Data Size    | 10 bytes |
| Instructions | 2        |

```
      00 01 02 03 04 05 06 07  08 09 0A 0B 0C 0D 0E 0F
      -- -- -- -- -- -- -- --  -- -- -- -- -- -- -- --
0020:                                      37 01 80 02              7...
0030: 80 03 80 04 80 00                                 ......          
```

#### Opcodes

```
  0: 0x002C [0x37] UPDATE_EVENT_POSITION_AND_DIR: x=8.940*, z=-91.557*, y=2.199*, direction=13.7°*
  1: 0x0035 [0x00] END_REQSTACK()
```

### Event 65535.5

#### Metadata

| Field        | Value     |
|--------------|-----------|
| Entrypoint   | 0x0036    |
| Data Size    | 121 bytes |
| Instructions | 24        |

```
      00 01 02 03 04 05 06 07  08 09 0A 0B 0C 0D 0E 0F
      -- -- -- -- -- -- -- --  -- -- -- -- -- -- -- --
0030:                   32 05  80 1F 00 06 80 07 80 03        2.........
0040: 80 1F 01 1F 00 08 80 09  80 03 80 1F 01 1F 00 0A  ................
0050: 80 0B 80 03 80 1F 01 1F  00 0C 80 0D 80 03 80 1F  ................
0060: 01 1F 00 0E 80 0F 80 03  80 1F 01 1F 00 01 80 02  ................
0070: 80 03 80 1F 01 1F 00 10  80 11 80 03 80 1F 01 1F  ................
0080: 00 12 80 13 80 03 80 1F  01 1F 00 14 80 15 80 03  ................
0090: 80 1F 01 02 4D 10 16 80  00 A5 00 27 05 14 61 0E  ....M......'..a.
00A0: 01 08 01 AE 00 37 16 80  16 80 16 80 16 80 00     .....7......... 
```

#### Opcodes

```
  0: 0x0036 [0x32] ExtData[1]->MainSpeed = 57* * 0.1
  1: 0x0039 [0x1F] MOVE_ENTITY: EventEntity moves to X=22.152*, Z=-95.901*, Y=2.199*
  2: 0x0041 [0x1F] MOVE_ENTITY: Update entity position (mode=1)
  3: 0x0043 [0x1F] MOVE_ENTITY: EventEntity moves to X=23.034*, Z=-92.413*, Y=2.199*
  4: 0x004B [0x1F] MOVE_ENTITY: Update entity position (mode=1)
  5: 0x004D [0x1F] MOVE_ENTITY: EventEntity moves to X=8.394*, Z=-88.334*, Y=2.199*
  6: 0x0055 [0x1F] MOVE_ENTITY: Update entity position (mode=1)
  7: 0x0057 [0x1F] MOVE_ENTITY: EventEntity moves to X=6.666*, Z=-88.536*, Y=2.199*
  8: 0x005F [0x1F] MOVE_ENTITY: Update entity position (mode=1)
  9: 0x0061 [0x1F] MOVE_ENTITY: EventEntity moves to X=6.513*, Z=-89.216*, Y=2.199*
 10: 0x0069 [0x1F] MOVE_ENTITY: Update entity position (mode=1)
 11: 0x006B [0x1F] MOVE_ENTITY: EventEntity moves to X=8.940*, Z=-91.557*, Y=2.199*
 12: 0x0073 [0x1F] MOVE_ENTITY: Update entity position (mode=1)
 13: 0x0075 [0x1F] MOVE_ENTITY: EventEntity moves to X=11.390*, Z=-92.475*, Y=2.199*
 14: 0x007D [0x1F] MOVE_ENTITY: Update entity position (mode=1)
 15: 0x007F [0x1F] MOVE_ENTITY: EventEntity moves to X=16.072*, Z=-94.058*, Y=2.199*
 16: 0x0087 [0x1F] MOVE_ENTITY: Update entity position (mode=1)
 17: 0x0089 [0x1F] MOVE_ENTITY: EventEntity moves to X=19.806*, Z=-95.324*, Y=2.199*
 18: 0x0091 [0x1F] MOVE_ENTITY: Update entity position (mode=1)
 19: 0x0093 [0x02] IF !(Work_Zone[77] == 0*) GOTO 0x00A5
 20: 0x009B [0x27] REQ_SET(priority=0x05, entity_id=Unnamed NPC (ID: 17719572/0x010E6114), tag_num=0x08)
 21: 0x00A2 [0x01] GOTO 0x00AE
 22: 0x00A5 [0x37] UPDATE_EVENT_POSITION_AND_DIR: x=0.000*, z=0.000*, y=0.000*, direction=0.0°*

SUBROUTINE_00AE:
 23: 0x00AE [0x00] END_REQSTACK()
```

### Event 65535.6

#### Metadata

| Field        | Value     |
|--------------|-----------|
| Entrypoint   | 0x00AF    |
| Data Size    | 121 bytes |
| Instructions | 24        |

```
      00 01 02 03 04 05 06 07  08 09 0A 0B 0C 0D 0E 0F
      -- -- -- -- -- -- -- --  -- -- -- -- -- -- -- --
00A0:                                               32                 2
00B0: 05 80 1F 00 06 80 07 80  03 80 1F 01 1F 00 08 80  ................
00C0: 09 80 03 80 1F 01 1F 00  0A 80 0B 80 03 80 1F 01  ................
00D0: 1F 00 0C 80 0D 80 03 80  1F 01 1F 00 0E 80 0F 80  ................
00E0: 03 80 1F 01 1F 00 01 80  02 80 03 80 1F 01 1F 00  ................
00F0: 10 80 11 80 03 80 1F 01  1F 00 12 80 13 80 03 80  ................
0100: 1F 01 1F 00 14 80 15 80  03 80 1F 01 02 4D 10 16  .............M..
0110: 80 00 1E 01 27 05 14 61  0E 01 07 01 27 01 37 16  ....'..a....'.7.
0120: 80 16 80 16 80 16 80 00                           ........        
```

#### Opcodes

```
  0: 0x00AF [0x32] ExtData[1]->MainSpeed = 57* * 0.1
  1: 0x00B2 [0x1F] MOVE_ENTITY: EventEntity moves to X=22.152*, Z=-95.901*, Y=2.199*
  2: 0x00BA [0x1F] MOVE_ENTITY: Update entity position (mode=1)
  3: 0x00BC [0x1F] MOVE_ENTITY: EventEntity moves to X=23.034*, Z=-92.413*, Y=2.199*
  4: 0x00C4 [0x1F] MOVE_ENTITY: Update entity position (mode=1)
  5: 0x00C6 [0x1F] MOVE_ENTITY: EventEntity moves to X=8.394*, Z=-88.334*, Y=2.199*
  6: 0x00CE [0x1F] MOVE_ENTITY: Update entity position (mode=1)
  7: 0x00D0 [0x1F] MOVE_ENTITY: EventEntity moves to X=6.666*, Z=-88.536*, Y=2.199*
  8: 0x00D8 [0x1F] MOVE_ENTITY: Update entity position (mode=1)
  9: 0x00DA [0x1F] MOVE_ENTITY: EventEntity moves to X=6.513*, Z=-89.216*, Y=2.199*
 10: 0x00E2 [0x1F] MOVE_ENTITY: Update entity position (mode=1)
 11: 0x00E4 [0x1F] MOVE_ENTITY: EventEntity moves to X=8.940*, Z=-91.557*, Y=2.199*
 12: 0x00EC [0x1F] MOVE_ENTITY: Update entity position (mode=1)
 13: 0x00EE [0x1F] MOVE_ENTITY: EventEntity moves to X=11.390*, Z=-92.475*, Y=2.199*
 14: 0x00F6 [0x1F] MOVE_ENTITY: Update entity position (mode=1)
 15: 0x00F8 [0x1F] MOVE_ENTITY: EventEntity moves to X=16.072*, Z=-94.058*, Y=2.199*
 16: 0x0100 [0x1F] MOVE_ENTITY: Update entity position (mode=1)
 17: 0x0102 [0x1F] MOVE_ENTITY: EventEntity moves to X=19.806*, Z=-95.324*, Y=2.199*
 18: 0x010A [0x1F] MOVE_ENTITY: Update entity position (mode=1)
 19: 0x010C [0x02] IF !(Work_Zone[77] == 0*) GOTO 0x011E
 20: 0x0114 [0x27] REQ_SET(priority=0x05, entity_id=Unnamed NPC (ID: 17719572/0x010E6114), tag_num=0x07)
 21: 0x011B [0x01] GOTO 0x0127
 22: 0x011E [0x37] UPDATE_EVENT_POSITION_AND_DIR: x=0.000*, z=0.000*, y=0.000*, direction=0.0°*

SUBROUTINE_0127:
 23: 0x0127 [0x00] END_REQSTACK()
```

### Event 65535.7

#### Metadata

| Field        | Value    |
|--------------|----------|
| Entrypoint   | 0x0128   |
| Data Size    | 15 bytes |
| Instructions | 3        |

```
      00 01 02 03 04 05 06 07  08 09 0A 0B 0C 0D 0E 0F
      -- -- -- -- -- -- -- --  -- -- -- -- -- -- -- --
0120:                          37 17 80 18 80 03 80 19          7.......
0130: 80 80 F8 FF FF 7F 00                              .......         
```

#### Opcodes

```
  0: 0x0128 [0x37] UPDATE_EVENT_POSITION_AND_DIR: x=28.360*, z=-101.714*, y=2.199*, direction=191.8°*
  1: 0x0131 [0x80] LOAD_WAIT(entity=EventEntity)
  2: 0x0136 [0x00] END_REQSTACK()
```

### Event 65535.8

#### Metadata

| Field        | Value    |
|--------------|----------|
| Entrypoint   | 0x0137   |
| Data Size    | 14 bytes |
| Instructions | 4        |

```
      00 01 02 03 04 05 06 07  08 09 0A 0B 0C 0D 0E 0F
      -- -- -- -- -- -- -- --  -- -- -- -- -- -- -- --
0130:                      32  05 80 1F 00 1A 80 1B 80         2........
0140: 03 80 1F 01 00                                    .....           
```

#### Opcodes

```
  0: 0x0137 [0x32] ExtData[1]->MainSpeed = 57* * 0.1
  1: 0x013A [0x1F] MOVE_ENTITY: EventEntity moves to X=27.478*, Z=-101.601*, Y=2.199*
  2: 0x0142 [0x1F] MOVE_ENTITY: Update entity position (mode=1)
  3: 0x0144 [0x00] END_REQSTACK()
```

### Event 65535.9

#### Metadata

| Field        | Value    |
|--------------|----------|
| Entrypoint   | 0x0145   |
| Data Size    | 11 bytes |
| Instructions | 3        |

```
      00 01 02 03 04 05 06 07  08 09 0A 0B 0C 0D 0E 0F
      -- -- -- -- -- -- -- --  -- -- -- -- -- -- -- --
0140:                1F 00 1C  80 1D 80 03 80 1F 01 00       ...........
```

#### Opcodes

```
  0: 0x0145 [0x1F] MOVE_ENTITY: EventEntity moves to X=26.904*, Z=-101.530*, Y=2.199*
  1: 0x014D [0x1F] MOVE_ENTITY: Update entity position (mode=1)
  2: 0x014F [0x00] END_REQSTACK()
```

### Event 65535.10

#### Metadata

| Field        | Value    |
|--------------|----------|
| Entrypoint   | 0x0150   |
| Data Size    | 11 bytes |
| Instructions | 3        |

```
      00 01 02 03 04 05 06 07  08 09 0A 0B 0C 0D 0E 0F
      -- -- -- -- -- -- -- --  -- -- -- -- -- -- -- --
0150: 1F 00 1E 80 1F 80 03 80  1F 01 00                 ...........     
```

#### Opcodes

```
  0: 0x0150 [0x1F] MOVE_ENTITY: EventEntity moves to X=25.616*, Z=-101.559*, Y=2.199*
  1: 0x0158 [0x1F] MOVE_ENTITY: Update entity position (mode=1)
  2: 0x015A [0x00] END_REQSTACK()
```

### Event 65535.11

#### Metadata

| Field        | Value    |
|--------------|----------|
| Entrypoint   | 0x015B   |
| Data Size    | 11 bytes |
| Instructions | 3        |

```
      00 01 02 03 04 05 06 07  08 09 0A 0B 0C 0D 0E 0F
      -- -- -- -- -- -- -- --  -- -- -- -- -- -- -- --
0150:                                   1F 00 20 80 21             .. .!
0160: 80 03 80 1F 01 00                                 ......          
```

#### Opcodes

```
  0: 0x015B [0x1F] MOVE_ENTITY: EventEntity moves to X=24.905*, Z=-101.583*, Y=2.199*
  1: 0x0163 [0x1F] MOVE_ENTITY: Update entity position (mode=1)
  2: 0x0165 [0x00] END_REQSTACK()
```

### Event 65535.12

#### Metadata

| Field        | Value    |
|--------------|----------|
| Entrypoint   | 0x0166   |
| Data Size    | 14 bytes |
| Instructions | 4        |

```
      00 01 02 03 04 05 06 07  08 09 0A 0B 0C 0D 0E 0F
      -- -- -- -- -- -- -- --  -- -- -- -- -- -- -- --
0160:                   32 05  80 1F 00 22 80 23 80 03        2....".#..
0170: 80 1F 01 00                                       ....            
```

#### Opcodes

```
  0: 0x0166 [0x32] ExtData[1]->MainSpeed = 57* * 0.1
  1: 0x0169 [0x1F] MOVE_ENTITY: EventEntity moves to X=25.555*, Z=-97.583*, Y=2.199*
  2: 0x0171 [0x1F] MOVE_ENTITY: Update entity position (mode=1)
  3: 0x0173 [0x00] END_REQSTACK()
```

### Event 65535.13

#### Metadata

| Field        | Value    |
|--------------|----------|
| Entrypoint   | 0x0174   |
| Data Size    | 15 bytes |
| Instructions | 3        |

```
      00 01 02 03 04 05 06 07  08 09 0A 0B 0C 0D 0E 0F
      -- -- -- -- -- -- -- --  -- -- -- -- -- -- -- --
0170:             37 24 80 25  80 26 80 27 80 80 F8 FF      7$.%.&.'....
0180: FF 7F 00                                          ...             
```

#### Opcodes

```
  0: 0x0174 [0x37] UPDATE_EVENT_POSITION_AND_DIR: x=-234.379*, z=317.098*, y=-59.804*, direction=304.9°*
  1: 0x017D [0x80] LOAD_WAIT(entity=EventEntity)
  2: 0x0182 [0x00] END_REQSTACK()
```

### Event 65535.14

#### Metadata

| Field        | Value    |
|--------------|----------|
| Entrypoint   | 0x0183   |
| Data Size    | 22 bytes |
| Instructions | 6        |

```
      00 01 02 03 04 05 06 07  08 09 0A 0B 0C 0D 0E 0F
      -- -- -- -- -- -- -- --  -- -- -- -- -- -- -- --
0180:          32 28 80 1F 00  29 80 2A 80 2B 80 1F 01     2(...).*.+...
0190: 1C 2C 80 1E 13 61 0E 01  00                       .,...a...       
```

#### Opcodes

```
  0: 0x0183 [0x32] ExtData[1]->MainSpeed = 10* * 0.1
  1: 0x0186 [0x1F] MOVE_ENTITY: EventEntity moves to X=-229.517*, Z=322.224*, Y=-59.500*
  2: 0x018E [0x1F] MOVE_ENTITY: Update entity position (mode=1)
  3: 0x0190 [0x1C] WAIT(60* ticks)
  4: 0x0193 [0x1E] EventEntity looks at Unnamed NPC (ID: 17719571/0x010E6113) and starts talking
  5: 0x0198 [0x00] END_REQSTACK()
```

### Event 65535.15

#### Metadata

| Field        | Value    |
|--------------|----------|
| Entrypoint   | 0x0199   |
| Data Size    | 15 bytes |
| Instructions | 3        |

```
      00 01 02 03 04 05 06 07  08 09 0A 0B 0C 0D 0E 0F
      -- -- -- -- -- -- -- --  -- -- -- -- -- -- -- --
0190:                             37 2D 80 2E 80 2F 80           7-.../.
01A0: 30 80 80 F8 FF FF 7F 00                           0.......        
```

#### Opcodes

```
  0: 0x0199 [0x37] UPDATE_EVENT_POSITION_AND_DIR: x=-388.931*, z=140.386*, y=-35.360*, direction=32.7°*
  1: 0x01A2 [0x80] LOAD_WAIT(entity=EventEntity)
  2: 0x01A7 [0x00] END_REQSTACK()
```

### Event 65535.16

#### Metadata

| Field        | Value    |
|--------------|----------|
| Entrypoint   | 0x01A8   |
| Data Size    | 22 bytes |
| Instructions | 6        |

```
      00 01 02 03 04 05 06 07  08 09 0A 0B 0C 0D 0E 0F
      -- -- -- -- -- -- -- --  -- -- -- -- -- -- -- --
01A0:                          32 31 80 1F 00 32 80 33          21...2.3
01B0: 80 34 80 1F 01 1C 2C 80  1E 13 61 0E 01 00        .4....,...a...  
```

#### Opcodes

```
  0: 0x01A8 [0x32] ExtData[1]->MainSpeed = 19* * 0.1
  1: 0x01AB [0x1F] MOVE_ENTITY: EventEntity moves to X=-384.405*, Z=138.175*, Y=-35.789*
  2: 0x01B3 [0x1F] MOVE_ENTITY: Update entity position (mode=1)
  3: 0x01B5 [0x1C] WAIT(60* ticks)
  4: 0x01B8 [0x1E] EventEntity looks at Unnamed NPC (ID: 17719571/0x010E6113) and starts talking
  5: 0x01BD [0x00] END_REQSTACK()
```

### Event 65535.17

#### Metadata

| Field        | Value    |
|--------------|----------|
| Entrypoint   | 0x01BE   |
| Data Size    | 15 bytes |
| Instructions | 3        |

```
      00 01 02 03 04 05 06 07  08 09 0A 0B 0C 0D 0E 0F
      -- -- -- -- -- -- -- --  -- -- -- -- -- -- -- --
01B0:                                            37 35                75
01C0: 80 36 80 37 80 38 80 80  F8 FF FF 7F 00           .6.7.8.......   
```

#### Opcodes

```
  0: 0x01BE [0x37] UPDATE_EVENT_POSITION_AND_DIR: x=-663.076*, z=450.845*, y=16.499*, direction=42.2°*
  1: 0x01C7 [0x80] LOAD_WAIT(entity=EventEntity)
  2: 0x01CC [0x00] END_REQSTACK()
```

### Event 65535.18

#### Metadata

| Field        | Value    |
|--------------|----------|
| Entrypoint   | 0x01CD   |
| Data Size    | 22 bytes |
| Instructions | 6        |

```
      00 01 02 03 04 05 06 07  08 09 0A 0B 0C 0D 0E 0F
      -- -- -- -- -- -- -- --  -- -- -- -- -- -- -- --
01C0:                                         32 31 80               21.
01D0: 1F 00 39 80 3A 80 37 80  1F 01 1C 2C 80 1E 13 61  ..9.:.7....,...a
01E0: 0E 01 00                                          ...             
```

#### Opcodes

```
  0: 0x01CD [0x32] ExtData[1]->MainSpeed = 19* * 0.1
  1: 0x01D0 [0x1F] MOVE_ENTITY: EventEntity moves to X=-670.392*, Z=454.892*, Y=16.499*
  2: 0x01D8 [0x1F] MOVE_ENTITY: Update entity position (mode=1)
  3: 0x01DA [0x1C] WAIT(60* ticks)
  4: 0x01DD [0x1E] EventEntity looks at Unnamed NPC (ID: 17719571/0x010E6113) and starts talking
  5: 0x01E2 [0x00] END_REQSTACK()
```

### Event 65535.19

#### Metadata

| Field        | Value    |
|--------------|----------|
| Entrypoint   | 0x01E3   |
| Data Size    | 15 bytes |
| Instructions | 3        |

```
      00 01 02 03 04 05 06 07  08 09 0A 0B 0C 0D 0E 0F
      -- -- -- -- -- -- -- --  -- -- -- -- -- -- -- --
01E0:          37 3B 80 3C 80  3D 80 3E 80 80 F8 FF FF     7;.<.=.>.....
01F0: 7F 00                                             ..              
```

#### Opcodes

```
  0: 0x01E3 [0x37] UPDATE_EVENT_POSITION_AND_DIR: x=25.181*, z=-69.079*, y=1.999*, direction=319.8°*
  1: 0x01EC [0x80] LOAD_WAIT(entity=EventEntity)
  2: 0x01F1 [0x00] END_REQSTACK()
```

### Event 65535.20

#### Metadata

| Field        | Value     |
|--------------|-----------|
| Entrypoint   | 0x01F2    |
| Data Size    | 335 bytes |
| Instructions | 71        |

```
      00 01 02 03 04 05 06 07  08 09 0A 0B 0C 0D 0E 0F
      -- -- -- -- -- -- -- --  -- -- -- -- -- -- -- --
01F0:       32 05 80 1F 00 3F  80 40 80 41 80 1F 01 02    2....?.@.A....
0200: 4C 10 42 80 00 0A 02 01  0D 02 1C 43 80 1F 00 44  L.B........C...D
0210: 80 45 80 3D 80 1F 01 02  4C 10 16 80 80 25 02 1C  .E.=....L....%..
0220: 43 80 01 33 02 02 4C 10  46 80 80 33 02 1C 43 80  C..3..L.F..3..C.
0230: 01 33 02 1F 00 47 80 48  80 3D 80 1F 01 02 4C 10  .3...G.H.=....L.
0240: 16 80 80 4B 02 1C 43 80  01 59 02 02 4C 10 46 80  ...K..C..Y..L.F.
0250: 80 59 02 1C 43 80 01 59  02 1F 00 49 80 4A 80 3D  .Y..C..Y...I.J.=
0260: 80 1F 01 02 4C 10 16 80  80 71 02 1C 43 80 01 7F  ....L....q..C...
0270: 02 02 4C 10 46 80 80 7F  02 1C 43 80 01 7F 02 1F  ..L.F.....C.....
0280: 00 4B 80 4C 80 3D 80 1F  01 02 4C 10 16 80 80 97  .K.L.=....L.....
0290: 02 1C 43 80 01 A5 02 02  4C 10 46 80 80 A5 02 1C  ..C.....L.F.....
02A0: 43 80 01 A5 02 1F 00 4D  80 4E 80 3D 80 1F 01 02  C......M.N.=....
02B0: 4C 10 16 80 80 BD 02 1C  43 80 01 CB 02 02 4C 10  L.......C.....L.
02C0: 46 80 80 CB 02 1C 43 80  01 CB 02 1F 00 4F 80 50  F.....C......O.P
02D0: 80 3D 80 1F 01 02 4C 10  16 80 00 E0 02 1C 43 80  .=....L.......C.
02E0: 1F 00 51 80 52 80 41 80  1F 01 02 4C 10 16 80 80  ..Q.R.A....L....
02F0: F8 02 1C 43 80 01 06 03  02 4C 10 46 80 80 06 03  ...C.....L.F....
0300: 1C 43 80 01 06 03 1F 00  53 80 54 80 41 80 1F 01  .C......S.T.A...
0310: 02 4C 10 42 80 00 1B 03  01 1E 03 1C 43 80 1F 00  .L.B........C...
0320: 55 80 56 80 41 80 1F 01  02 4C 10 42 80 00 33 03  U.V.A....L.B..3.
0330: 01 36 03 1C 43 80 1F 00  57 80 58 80 3D 80 1F 01  .6..C...W.X.=...
0340: 00                                                .               
```

#### Opcodes

```
  0: 0x01F2 [0x32] ExtData[1]->MainSpeed = 57* * 0.1
  1: 0x01F5 [0x1F] MOVE_ENTITY: EventEntity moves to X=37.803*, Z=-56.350*, Y=2.003*
  2: 0x01FD [0x1F] MOVE_ENTITY: Update entity position (mode=1)
  3: 0x01FF [0x02] IF !(Work_Zone[76] == 2*) GOTO 0x020A
  4: 0x0207 [0x01] GOTO 0x020D
  5: 0x020A [0x1C] WAIT(5* ticks)

SUBROUTINE_020D:
  6: 0x020D [0x1F] MOVE_ENTITY: EventEntity moves to X=38.906*, Z=-37.686*, Y=1.999*
  7: 0x0215 [0x1F] MOVE_ENTITY: Update entity position (mode=1)
  8: 0x0217 [0x02] IF !(Work_Zone[76] == 0*) GOTO 0x0225
  9: 0x021F [0x1C] WAIT(5* ticks)
 10: 0x0222 [0x01] GOTO 0x0233
 11: 0x0225 [0x02] IF !(Work_Zone[76] == 3*) GOTO 0x0233
 12: 0x022D [0x1C] WAIT(5* ticks)
 13: 0x0230 [0x01] GOTO 0x0233

SUBROUTINE_0233:
 14: 0x0233 [0x1F] MOVE_ENTITY: EventEntity moves to X=18.332*, Z=-26.980*, Y=1.999*
 15: 0x023B [0x1F] MOVE_ENTITY: Update entity position (mode=1)
 16: 0x023D [0x02] IF !(Work_Zone[76] == 0*) GOTO 0x024B
 17: 0x0245 [0x1C] WAIT(5* ticks)
 18: 0x0248 [0x01] GOTO 0x0259
 19: 0x024B [0x02] IF !(Work_Zone[76] == 3*) GOTO 0x0259
 20: 0x0253 [0x1C] WAIT(5* ticks)
 21: 0x0256 [0x01] GOTO 0x0259

SUBROUTINE_0259:
 22: 0x0259 [0x1F] MOVE_ENTITY: EventEntity moves to X=4.363*, Z=-22.995*, Y=1.999*
 23: 0x0261 [0x1F] MOVE_ENTITY: Update entity position (mode=1)
 24: 0x0263 [0x02] IF !(Work_Zone[76] == 0*) GOTO 0x0271
 25: 0x026B [0x1C] WAIT(5* ticks)
 26: 0x026E [0x01] GOTO 0x027F
 27: 0x0271 [0x02] IF !(Work_Zone[76] == 3*) GOTO 0x027F
 28: 0x0279 [0x1C] WAIT(5* ticks)
 29: 0x027C [0x01] GOTO 0x027F

SUBROUTINE_027F:
 30: 0x027F [0x1F] MOVE_ENTITY: EventEntity moves to X=-4.013*, Z=-22.765*, Y=1.999*
 31: 0x0287 [0x1F] MOVE_ENTITY: Update entity position (mode=1)
 32: 0x0289 [0x02] IF !(Work_Zone[76] == 0*) GOTO 0x0297
 33: 0x0291 [0x1C] WAIT(5* ticks)
 34: 0x0294 [0x01] GOTO 0x02A5
 35: 0x0297 [0x02] IF !(Work_Zone[76] == 3*) GOTO 0x02A5
 36: 0x029F [0x1C] WAIT(5* ticks)
 37: 0x02A2 [0x01] GOTO 0x02A5

SUBROUTINE_02A5:
 38: 0x02A5 [0x1F] MOVE_ENTITY: EventEntity moves to X=-17.761*, Z=-27.176*, Y=1.999*
 39: 0x02AD [0x1F] MOVE_ENTITY: Update entity position (mode=1)
 40: 0x02AF [0x02] IF !(Work_Zone[76] == 0*) GOTO 0x02BD
 41: 0x02B7 [0x1C] WAIT(5* ticks)
 42: 0x02BA [0x01] GOTO 0x02CB
 43: 0x02BD [0x02] IF !(Work_Zone[76] == 3*) GOTO 0x02CB
 44: 0x02C5 [0x1C] WAIT(5* ticks)
 45: 0x02C8 [0x01] GOTO 0x02CB

SUBROUTINE_02CB:
 46: 0x02CB [0x1F] MOVE_ENTITY: EventEntity moves to X=-40.465*, Z=-37.981*, Y=1.999*
 47: 0x02D3 [0x1F] MOVE_ENTITY: Update entity position (mode=1)
 48: 0x02D5 [0x02] IF !(Work_Zone[76] == 0*) GOTO 0x02E0
 49: 0x02DD [0x1C] WAIT(5* ticks)
 50: 0x02E0 [0x1F] MOVE_ENTITY: EventEntity moves to X=-40.391*, Z=-54.149*, Y=2.003*
 51: 0x02E8 [0x1F] MOVE_ENTITY: Update entity position (mode=1)
 52: 0x02EA [0x02] IF !(Work_Zone[76] == 0*) GOTO 0x02F8
 53: 0x02F2 [0x1C] WAIT(5* ticks)
 54: 0x02F5 [0x01] GOTO 0x0306
 55: 0x02F8 [0x02] IF !(Work_Zone[76] == 3*) GOTO 0x0306
 56: 0x0300 [0x1C] WAIT(5* ticks)
 57: 0x0303 [0x01] GOTO 0x0306

SUBROUTINE_0306:
 58: 0x0306 [0x1F] MOVE_ENTITY: EventEntity moves to X=-38.756*, Z=-57.783*, Y=2.003*
 59: 0x030E [0x1F] MOVE_ENTITY: Update entity position (mode=1)
 60: 0x0310 [0x02] IF !(Work_Zone[76] == 2*) GOTO 0x031B
 61: 0x0318 [0x01] GOTO 0x031E
 62: 0x031B [0x1C] WAIT(5* ticks)

SUBROUTINE_031E:
 63: 0x031E [0x1F] MOVE_ENTITY: EventEntity moves to X=-34.962*, Z=-57.948*, Y=2.003*
 64: 0x0326 [0x1F] MOVE_ENTITY: Update entity position (mode=1)
 65: 0x0328 [0x02] IF !(Work_Zone[76] == 2*) GOTO 0x0333
 66: 0x0330 [0x01] GOTO 0x0336
 67: 0x0333 [0x1C] WAIT(5* ticks)

SUBROUTINE_0336:
 68: 0x0336 [0x1F] MOVE_ENTITY: EventEntity moves to X=-24.090*, Z=-72.451*, Y=1.999*
 69: 0x033E [0x1F] MOVE_ENTITY: Update entity position (mode=1)
 70: 0x0340 [0x00] END_REQSTACK()
```

### Event 65535.21

#### Metadata

| Field        | Value    |
|--------------|----------|
| Entrypoint   | 0x0341   |
| Data Size    | 22 bytes |
| Instructions | 5        |

```
      00 01 02 03 04 05 06 07  08 09 0A 0B 0C 0D 0E 0F
      -- -- -- -- -- -- -- --  -- -- -- -- -- -- -- --
0340:    95 46 80 B6 00 59 80  37 5A 80 5B 80 3D 80 5C   .F...Y.7Z.[.=.\
0350: 80 80 F8 FF FF 7F 00                              .......         
```

#### Opcodes

```
  0: 0x0341 [0x95] SETUP_EVENT_NPC: Prepare NPC for event (Render.Flags3 = 3*)
  1: 0x0344 [0xB6] ENTITY_APPEARANCE_HANDLER(case=Hair style, value=839*)
  2: 0x0348 [0x37] UPDATE_EVENT_POSITION_AND_DIR: x=-17.203*, z=-15.234*, y=1.999*, direction=47.2°*
  3: 0x0351 [0x80] LOAD_WAIT(entity=EventEntity)
  4: 0x0356 [0x00] END_REQSTACK()
```

### Event 65535.22

#### Metadata

| Field        | Value   |
|--------------|---------|
| Entrypoint   | 0x0357  |
| Data Size    | 2 bytes |
| Instructions | 2       |

```
      00 01 02 03 04 05 06 07  08 09 0A 0B 0C 0D 0E 0F
      -- -- -- -- -- -- -- --  -- -- -- -- -- -- -- --
0350:                      96  00                              ..       
```

#### Opcodes

```
  0: 0x0357 [0x96] UNSET_EVENT_NPC: Restore NPC after event (removes event NPC status)
  1: 0x0358 [0x00] END_REQSTACK()
```

### Event 65535.23

#### Metadata

| Field        | Value    |
|--------------|----------|
| Entrypoint   | 0x0359   |
| Data Size    | 15 bytes |
| Instructions | 3        |

```
      00 01 02 03 04 05 06 07  08 09 0A 0B 0C 0D 0E 0F
      -- -- -- -- -- -- -- --  -- -- -- -- -- -- -- --
0350:                             37 5D 80 5E 80 5F 80           7].^._.
0360: 60 80 80 F8 FF FF 7F 00                           `.......        
```

#### Opcodes

```
  0: 0x0359 [0x37] UPDATE_EVENT_POSITION_AND_DIR: x=-226.801*, z=319.268*, y=-59.656*, direction=354.5°*
  1: 0x0362 [0x80] LOAD_WAIT(entity=EventEntity)
  2: 0x0367 [0x00] END_REQSTACK()
```

### Event 65535.24

#### Metadata

| Field        | Value    |
|--------------|----------|
| Entrypoint   | 0x0368   |
| Data Size    | 14 bytes |
| Instructions | 4        |

```
      00 01 02 03 04 05 06 07  08 09 0A 0B 0C 0D 0E 0F
      -- -- -- -- -- -- -- --  -- -- -- -- -- -- -- --
0360:                          32 28 80 5A 00 61 80 62          2(.Z.a.b
0370: 80 63 80 5A 01 00                                 .c.Z..          
```

#### Opcodes

```
  0: 0x0368 [0x32] ExtData[1]->MainSpeed = 10* * 0.1
  1: 0x036B [0x5A] UPDATE_EVENT_POSITION: Set EventEntity MovePosition to X=-224.539*, Z=317.656*, Y=-59.939*
  2: 0x0373 [0x5A] UPDATE_EVENT_POSITION: Move EventEntity incrementally towards MovePosition
  3: 0x0375 [0x00] END_REQSTACK()
```

### Event 65535.25

#### Metadata

| Field        | Value    |
|--------------|----------|
| Entrypoint   | 0x0376   |
| Data Size    | 19 bytes |
| Instructions | 5        |

```
      00 01 02 03 04 05 06 07  08 09 0A 0B 0C 0D 0E 0F
      -- -- -- -- -- -- -- --  -- -- -- -- -- -- -- --
0370:                   32 28  80 5A 00 64 80 65 80 2B        2(.Z.d.e.+
0380: 80 5A 01 1E 13 61 0E 01  00                       .Z...a...       
```

#### Opcodes

```
  0: 0x0376 [0x32] ExtData[1]->MainSpeed = 10* * 0.1
  1: 0x0379 [0x5A] UPDATE_EVENT_POSITION: Set EventEntity MovePosition to X=-229.224*, Z=319.140*, Y=-59.500*
  2: 0x0381 [0x5A] UPDATE_EVENT_POSITION: Move EventEntity incrementally towards MovePosition
  3: 0x0383 [0x1E] EventEntity looks at Unnamed NPC (ID: 17719571/0x010E6113) and starts talking
  4: 0x0388 [0x00] END_REQSTACK()
```

### Event 65535.26

#### Metadata

| Field        | Value    |
|--------------|----------|
| Entrypoint   | 0x0389   |
| Data Size    | 15 bytes |
| Instructions | 3        |

```
      00 01 02 03 04 05 06 07  08 09 0A 0B 0C 0D 0E 0F
      -- -- -- -- -- -- -- --  -- -- -- -- -- -- -- --
0380:                             37 66 80 67 80 68 80           7f.g.h.
0390: 69 80 80 F8 FF FF 7F 00                           i.......        
```

#### Opcodes

```
  0: 0x0389 [0x37] UPDATE_EVENT_POSITION_AND_DIR: x=-378.299*, z=150.935*, y=-39.190*, direction=349.0°*
  1: 0x0392 [0x80] LOAD_WAIT(entity=EventEntity)
  2: 0x0397 [0x00] END_REQSTACK()
```

### Event 65535.27

#### Metadata

| Field        | Value    |
|--------------|----------|
| Entrypoint   | 0x0398   |
| Data Size    | 24 bytes |
| Instructions | 6        |

```
      00 01 02 03 04 05 06 07  08 09 0A 0B 0C 0D 0E 0F
      -- -- -- -- -- -- -- --  -- -- -- -- -- -- -- --
0390:                          32 28 80 1F 00 6A 80 6B          2(...j.k
03A0: 80 6C 80 1F 01 1F 00 6D  80 6E 80 6F 80 1F 01 00  .l.....m.n.o....
```

#### Opcodes

```
  0: 0x0398 [0x32] ExtData[1]->MainSpeed = 10* * 0.1
  1: 0x039B [0x1F] MOVE_ENTITY: EventEntity moves to X=-378.961*, Z=150.255*, Y=-38.913*
  2: 0x03A3 [0x1F] MOVE_ENTITY: Update entity position (mode=1)
  3: 0x03A5 [0x1F] MOVE_ENTITY: EventEntity moves to X=-378.914*, Z=147.080*, Y=-37.845*
  4: 0x03AD [0x1F] MOVE_ENTITY: Update entity position (mode=1)
  5: 0x03AF [0x00] END_REQSTACK()
```

### Event 65535.28

#### Metadata

| Field        | Value    |
|--------------|----------|
| Entrypoint   | 0x03B0   |
| Data Size    | 19 bytes |
| Instructions | 5        |

```
      00 01 02 03 04 05 06 07  08 09 0A 0B 0C 0D 0E 0F
      -- -- -- -- -- -- -- --  -- -- -- -- -- -- -- --
03B0: 32 28 80 1F 00 70 80 71  80 72 80 1F 01 1E 13 61  2(...p.q.r.....a
03C0: 0E 01 00                                          ...             
```

#### Opcodes

```
  0: 0x03B0 [0x32] ExtData[1]->MainSpeed = 10* * 0.1
  1: 0x03B3 [0x1F] MOVE_ENTITY: EventEntity moves to X=-380.763*, Z=148.957*, Y=-38.426*
  2: 0x03BB [0x1F] MOVE_ENTITY: Update entity position (mode=1)
  3: 0x03BD [0x1E] EventEntity looks at Unnamed NPC (ID: 17719571/0x010E6113) and starts talking
  4: 0x03C2 [0x00] END_REQSTACK()
```

### Event 65535.29

#### Metadata

| Field        | Value    |
|--------------|----------|
| Entrypoint   | 0x03C3   |
| Data Size    | 15 bytes |
| Instructions | 3        |

```
      00 01 02 03 04 05 06 07  08 09 0A 0B 0C 0D 0E 0F
      -- -- -- -- -- -- -- --  -- -- -- -- -- -- -- --
03C0:          37 73 80 74 80  75 80 76 80 80 F8 FF FF     7s.t.u.v.....
03D0: 7F 00                                             ..              
```

#### Opcodes

```
  0: 0x03C3 [0x37] UPDATE_EVENT_POSITION_AND_DIR: x=-662.609*, z=31.435*, y=-29.612*, direction=308.7°*
  1: 0x03CC [0x80] LOAD_WAIT(entity=EventEntity)
  2: 0x03D1 [0x00] END_REQSTACK()
```

### Event 65535.30

#### Metadata

| Field        | Value    |
|--------------|----------|
| Entrypoint   | 0x03D2   |
| Data Size    | 14 bytes |
| Instructions | 4        |

```
      00 01 02 03 04 05 06 07  08 09 0A 0B 0C 0D 0E 0F
      -- -- -- -- -- -- -- --  -- -- -- -- -- -- -- --
03D0:       32 28 80 1F 00 77  80 78 80 79 80 1F 01 00    2(...w.x.y....
```

#### Opcodes

```
  0: 0x03D2 [0x32] ExtData[1]->MainSpeed = 10* * 0.1
  1: 0x03D5 [0x1F] MOVE_ENTITY: EventEntity moves to X=-662.575*, Z=27.844*, Y=-29.174*
  2: 0x03DD [0x1F] MOVE_ENTITY: Update entity position (mode=1)
  3: 0x03DF [0x00] END_REQSTACK()
```

### Event 65535.31

#### Metadata

| Field        | Value    |
|--------------|----------|
| Entrypoint   | 0x03E0   |
| Data Size    | 19 bytes |
| Instructions | 5        |

```
      00 01 02 03 04 05 06 07  08 09 0A 0B 0C 0D 0E 0F
      -- -- -- -- -- -- -- --  -- -- -- -- -- -- -- --
03E0: 32 28 80 1F 00 7A 80 7B  80 7C 80 1F 01 1E 19 61  2(...z.{.|.....a
03F0: 0E 01 00                                          ...             
```

#### Opcodes

```
  0: 0x03E0 [0x32] ExtData[1]->MainSpeed = 10* * 0.1
  1: 0x03E3 [0x1F] MOVE_ENTITY: EventEntity moves to X=-663.388*, Z=30.383*, Y=-29.285*
  2: 0x03EB [0x1F] MOVE_ENTITY: Update entity position (mode=1)
  3: 0x03ED [0x1E] EventEntity looks at Unnamed NPC (ID: 17719577/0x010E6119) and starts talking
  4: 0x03F2 [0x00] END_REQSTACK()
```

### Event 65535.32

#### Metadata

| Field        | Value    |
|--------------|----------|
| Entrypoint   | 0x03F3   |
| Data Size    | 10 bytes |
| Instructions | 2        |

```
      00 01 02 03 04 05 06 07  08 09 0A 0B 0C 0D 0E 0F
      -- -- -- -- -- -- -- --  -- -- -- -- -- -- -- --
03F0:          37 7D 80 7E 80  7F 80 80 80 00              7}.~......   
```

#### Opcodes

```
  0: 0x03F3 [0x37] UPDATE_EVENT_POSITION_AND_DIR: x=-2.411*, z=-97.991*, y=-0.099*, direction=85.6°*
  1: 0x03FC [0x00] END_REQSTACK()
```

### Event 65535.33

#### Metadata

| Field        | Value    |
|--------------|----------|
| Entrypoint   | 0x03FD   |
| Data Size    | 19 bytes |
| Instructions | 5        |

```
      00 01 02 03 04 05 06 07  08 09 0A 0B 0C 0D 0E 0F
      -- -- -- -- -- -- -- --  -- -- -- -- -- -- -- --
03F0:                                         32 28 80               2(.
0400: 1F 00 81 80 82 80 7F 80  1F 01 1E 12 61 0E 01 00  ............a...
```

#### Opcodes

```
  0: 0x03FD [0x32] ExtData[1]->MainSpeed = 10* * 0.1
  1: 0x0400 [0x1F] MOVE_ENTITY: EventEntity moves to X=-2.463*, Z=-102.285*, Y=-0.099*
  2: 0x0408 [0x1F] MOVE_ENTITY: Update entity position (mode=1)
  3: 0x040A [0x1E] EventEntity looks at Hantileon (ID: 17719570/0x010E6112) and starts talking
  4: 0x040F [0x00] END_REQSTACK()
```

### Event 861

#### Metadata

| Field        | Value   |
|--------------|---------|
| Entrypoint   | 0x0410  |
| Data Size    | 1 bytes |
| Instructions | 1       |

```
      00 01 02 03 04 05 06 07  08 09 0A 0B 0C 0D 0E 0F
      -- -- -- -- -- -- -- --  -- -- -- -- -- -- -- --
0410: 00                                                .               
```

#### Opcodes

```
  0: 0x0410 [0x00] END_REQSTACK()
```

### Event 65535.34

#### Metadata

| Field        | Value    |
|--------------|----------|
| Entrypoint   | 0x0411   |
| Data Size    | 15 bytes |
| Instructions | 3        |

```
      00 01 02 03 04 05 06 07  08 09 0A 0B 0C 0D 0E 0F
      -- -- -- -- -- -- -- --  -- -- -- -- -- -- -- --
0410:    37 83 80 84 80 85 80  86 80 03 04 00 16 80 00   7..............
```

#### Opcodes

```
  0: 0x0411 [0x37] UPDATE_EVENT_POSITION_AND_DIR: x=-605.201*, z=606.193*, y=0.167*, direction=33.1°*
  1: 0x041A [0x03] ExtData[1]->WorkLocal[4] = 0*
  2: 0x041F [0x00] END_REQSTACK()
```

### Event 65535.35

#### Metadata

| Field        | Value    |
|--------------|----------|
| Entrypoint   | 0x0420   |
| Data Size    | 48 bytes |
| Instructions | 11       |

```
      00 01 02 03 04 05 06 07  08 09 0A 0B 0C 0D 0E 0F
      -- -- -- -- -- -- -- --  -- -- -- -- -- -- -- --
0420: 02 04 00 42 80 01 4F 04  32 28 80 1F 00 87 80 88  ...B..O.2(......
0430: 80 89 80 1F 01 1F 00 8A  80 8B 80 8C 80 1F 01 1C  ................
0440: 2C 80 1F 00 8D 80 8E 80  8F 80 1F 01 01 20 04 00  ,............ ..
```

#### Opcodes

```
  0: 0x0420 [0x02] IF !(ExtData[1]->WorkLocal[4] == 2*) GOTO 0x044F
  1: 0x0428 [0x32] ExtData[1]->MainSpeed = 10* * 0.1
  2: 0x042B [0x1F] MOVE_ENTITY: EventEntity moves to X=-605.972*, Z=607.697*, Y=0.004*
  3: 0x0433 [0x1F] MOVE_ENTITY: Update entity position (mode=1)
  4: 0x0435 [0x1F] MOVE_ENTITY: EventEntity moves to X=-608.286*, Z=606.788*, Y=-0.064*
  5: 0x043D [0x1F] MOVE_ENTITY: Update entity position (mode=1)
  6: 0x043F [0x1C] WAIT(60* ticks)
  7: 0x0442 [0x1F] MOVE_ENTITY: EventEntity moves to X=-606.508*, Z=607.958*, Y=-0.049*
  8: 0x044A [0x1F] MOVE_ENTITY: Update entity position (mode=1)
  9: 0x044C [0x01] GOTO 0x0420
 10: 0x044F [0x00] END_REQSTACK()
```

### Event 65535.36

#### Metadata

| Field        | Value    |
|--------------|----------|
| Entrypoint   | 0x0450   |
| Data Size    | 48 bytes |
| Instructions | 11       |

```
      00 01 02 03 04 05 06 07  08 09 0A 0B 0C 0D 0E 0F
      -- -- -- -- -- -- -- --  -- -- -- -- -- -- -- --
0450: 02 04 00 42 80 01 7F 04  32 31 80 1F 00 87 80 88  ...B....21......
0460: 80 89 80 1F 01 1F 00 8A  80 8B 80 8C 80 1F 01 1C  ................
0470: 2C 80 1F 00 8D 80 8E 80  8F 80 1F 01 01 50 04 00  ,............P..
```

#### Opcodes

```
  0: 0x0450 [0x02] IF !(ExtData[1]->WorkLocal[4] == 2*) GOTO 0x047F
  1: 0x0458 [0x32] ExtData[1]->MainSpeed = 19* * 0.1
  2: 0x045B [0x1F] MOVE_ENTITY: EventEntity moves to X=-605.972*, Z=607.697*, Y=0.004*
  3: 0x0463 [0x1F] MOVE_ENTITY: Update entity position (mode=1)
  4: 0x0465 [0x1F] MOVE_ENTITY: EventEntity moves to X=-608.286*, Z=606.788*, Y=-0.064*
  5: 0x046D [0x1F] MOVE_ENTITY: Update entity position (mode=1)
  6: 0x046F [0x1C] WAIT(60* ticks)
  7: 0x0472 [0x1F] MOVE_ENTITY: EventEntity moves to X=-606.508*, Z=607.958*, Y=-0.049*
  8: 0x047A [0x1F] MOVE_ENTITY: Update entity position (mode=1)
  9: 0x047C [0x01] GOTO 0x0450
 10: 0x047F [0x00] END_REQSTACK()
```

### Event 65535.37

#### Metadata

| Field        | Value   |
|--------------|---------|
| Entrypoint   | 0x0480  |
| Data Size    | 6 bytes |
| Instructions | 2       |

```
      00 01 02 03 04 05 06 07  08 09 0A 0B 0C 0D 0E 0F
      -- -- -- -- -- -- -- --  -- -- -- -- -- -- -- --
0480: 03 04 00 42 80 00                                 ...B..          
```

#### Opcodes

```
  0: 0x0480 [0x03] ExtData[1]->WorkLocal[4] = 2*
  1: 0x0485 [0x00] END_REQSTACK()
```

### Event 65535.38

#### Metadata

| Field        | Value    |
|--------------|----------|
| Entrypoint   | 0x0486   |
| Data Size    | 15 bytes |
| Instructions | 3        |

```
      00 01 02 03 04 05 06 07  08 09 0A 0B 0C 0D 0E 0F
      -- -- -- -- -- -- -- --  -- -- -- -- -- -- -- --
0480:                   37 90  80 91 80 92 80 93 80 80        7.........
0490: F8 FF FF 7F 00                                    .....           
```

#### Opcodes

```
  0: 0x0486 [0x37] UPDATE_EVENT_POSITION_AND_DIR: x=-600.128*, z=585.578*, y=0.628*, direction=25.0°*
  1: 0x048F [0x80] LOAD_WAIT(entity=EventEntity)
  2: 0x0494 [0x00] END_REQSTACK()
```

### Event 65535.39

#### Metadata

| Field        | Value    |
|--------------|----------|
| Entrypoint   | 0x0495   |
| Data Size    | 54 bytes |
| Instructions | 12       |

```
      00 01 02 03 04 05 06 07  08 09 0A 0B 0C 0D 0E 0F
      -- -- -- -- -- -- -- --  -- -- -- -- -- -- -- --
0490:                32 28 80  1F 00 94 80 95 80 96 80       2(.........
04A0: 1F 01 1F 00 97 80 98 80  99 80 1F 01 1F 00 9A 80  ................
04B0: 9B 80 9C 80 1F 01 1F 00  9D 80 9E 80 9F 80 1F 01  ................
04C0: 1F 00 90 80 91 80 92 80  1F 01 00                 ...........     
```

#### Opcodes

```
  0: 0x0495 [0x32] ExtData[1]->MainSpeed = 10* * 0.1
  1: 0x0498 [0x1F] MOVE_ENTITY: EventEntity moves to X=-601.910*, Z=587.743*, Y=0.274*
  2: 0x04A0 [0x1F] MOVE_ENTITY: Update entity position (mode=1)
  3: 0x04A2 [0x1F] MOVE_ENTITY: EventEntity moves to X=-600.199*, Z=588.994*, Y=0.347*
  4: 0x04AA [0x1F] MOVE_ENTITY: Update entity position (mode=1)
  5: 0x04AC [0x1F] MOVE_ENTITY: EventEntity moves to X=-599.211*, Z=586.089*, Y=0.586*
  6: 0x04B4 [0x1F] MOVE_ENTITY: Update entity position (mode=1)
  7: 0x04B6 [0x1F] MOVE_ENTITY: EventEntity moves to X=-599.391*, Z=583.375*, Y=0.830*
  8: 0x04BE [0x1F] MOVE_ENTITY: Update entity position (mode=1)
  9: 0x04C0 [0x1F] MOVE_ENTITY: EventEntity moves to X=-600.128*, Z=585.578*, Y=0.628*
 10: 0x04C8 [0x1F] MOVE_ENTITY: Update entity position (mode=1)
 11: 0x04CA [0x00] END_REQSTACK()
```

### Event 65535.40

#### Metadata

| Field        | Value    |
|--------------|----------|
| Entrypoint   | 0x04CB   |
| Data Size    | 66 bytes |
| Instructions | 16       |

```
      00 01 02 03 04 05 06 07  08 09 0A 0B 0C 0D 0E 0F
      -- -- -- -- -- -- -- --  -- -- -- -- -- -- -- --
04C0:                                   32 31 80 1F 00             21...
04D0: 94 80 95 80 96 80 1F 01  1C A0 80 1F 00 97 80 98  ................
04E0: 80 99 80 1F 01 1C A0 80  1F 00 9A 80 9B 80 9C 80  ................
04F0: 1F 01 1C A0 80 1F 00 9D  80 9E 80 9F 80 1F 01 1C  ................
0500: A0 80 1F 00 90 80 91 80  92 80 1F 01 00           .............   
```

#### Opcodes

```
  0: 0x04CB [0x32] ExtData[1]->MainSpeed = 19* * 0.1
  1: 0x04CE [0x1F] MOVE_ENTITY: EventEntity moves to X=-601.910*, Z=587.743*, Y=0.274*
  2: 0x04D6 [0x1F] MOVE_ENTITY: Update entity position (mode=1)
  3: 0x04D8 [0x1C] WAIT(30* ticks)
  4: 0x04DB [0x1F] MOVE_ENTITY: EventEntity moves to X=-600.199*, Z=588.994*, Y=0.347*
  5: 0x04E3 [0x1F] MOVE_ENTITY: Update entity position (mode=1)
  6: 0x04E5 [0x1C] WAIT(30* ticks)
  7: 0x04E8 [0x1F] MOVE_ENTITY: EventEntity moves to X=-599.211*, Z=586.089*, Y=0.586*
  8: 0x04F0 [0x1F] MOVE_ENTITY: Update entity position (mode=1)
  9: 0x04F2 [0x1C] WAIT(30* ticks)
 10: 0x04F5 [0x1F] MOVE_ENTITY: EventEntity moves to X=-599.391*, Z=583.375*, Y=0.830*
 11: 0x04FD [0x1F] MOVE_ENTITY: Update entity position (mode=1)
 12: 0x04FF [0x1C] WAIT(30* ticks)
 13: 0x0502 [0x1F] MOVE_ENTITY: EventEntity moves to X=-600.128*, Z=585.578*, Y=0.628*
 14: 0x050A [0x1F] MOVE_ENTITY: Update entity position (mode=1)
 15: 0x050C [0x00] END_REQSTACK()
```

### Event 65535.41

#### Metadata

| Field        | Value    |
|--------------|----------|
| Entrypoint   | 0x050D   |
| Data Size    | 15 bytes |
| Instructions | 3        |

```
      00 01 02 03 04 05 06 07  08 09 0A 0B 0C 0D 0E 0F
      -- -- -- -- -- -- -- --  -- -- -- -- -- -- -- --
0500:                                         37 A1 80               7..
0510: A2 80 A3 80 A4 80 80 F8  FF FF 7F 00              ............    
```

#### Opcodes

```
  0: 0x050D [0x37] UPDATE_EVENT_POSITION_AND_DIR: x=-601.165*, z=586.560*, y=0.464*, direction=22.6°*
  1: 0x0516 [0x80] LOAD_WAIT(entity=EventEntity)
  2: 0x051B [0x00] END_REQSTACK()
```

### Event 65535.42

#### Metadata

| Field        | Value    |
|--------------|----------|
| Entrypoint   | 0x051C   |
| Data Size    | 73 bytes |
| Instructions | 17       |

```
      00 01 02 03 04 05 06 07  08 09 0A 0B 0C 0D 0E 0F
      -- -- -- -- -- -- -- --  -- -- -- -- -- -- -- --
0510:                                      32 31 80 1F              21..
0520: 00 94 80 95 80 96 80 1F  01 1F 00 97 80 98 80 99  ................
0530: 80 1F 01 1F 00 9A 80 9B  80 9C 80 1F 01 1F 00 9D  ................
0540: 80 9E 80 9F 80 1F 01 1C  A0 80 1E 13 61 0E 01 1C  ............a...
0550: A5 80 1F 00 A6 80 A7 80  A8 80 1F 01 1C A0 80 1E  ................
0560: 13 61 0E 01 00                                    .a...           
```

#### Opcodes

```
  0: 0x051C [0x32] ExtData[1]->MainSpeed = 19* * 0.1
  1: 0x051F [0x1F] MOVE_ENTITY: EventEntity moves to X=-601.910*, Z=587.743*, Y=0.274*
  2: 0x0527 [0x1F] MOVE_ENTITY: Update entity position (mode=1)
  3: 0x0529 [0x1F] MOVE_ENTITY: EventEntity moves to X=-600.199*, Z=588.994*, Y=0.347*
  4: 0x0531 [0x1F] MOVE_ENTITY: Update entity position (mode=1)
  5: 0x0533 [0x1F] MOVE_ENTITY: EventEntity moves to X=-599.211*, Z=586.089*, Y=0.586*
  6: 0x053B [0x1F] MOVE_ENTITY: Update entity position (mode=1)
  7: 0x053D [0x1F] MOVE_ENTITY: EventEntity moves to X=-599.391*, Z=583.375*, Y=0.830*
  8: 0x0545 [0x1F] MOVE_ENTITY: Update entity position (mode=1)
  9: 0x0547 [0x1C] WAIT(30* ticks)
 10: 0x054A [0x1E] EventEntity looks at Unnamed NPC (ID: 17719571/0x010E6113) and starts talking
 11: 0x054F [0x1C] WAIT(120* ticks)
 12: 0x0552 [0x1F] MOVE_ENTITY: EventEntity moves to X=-602.007*, Z=587.764*, Y=0.268*
 13: 0x055A [0x1F] MOVE_ENTITY: Update entity position (mode=1)
 14: 0x055C [0x1C] WAIT(30* ticks)
 15: 0x055F [0x1E] EventEntity looks at Unnamed NPC (ID: 17719571/0x010E6113) and starts talking
 16: 0x0564 [0x00] END_REQSTACK()
```

### Event 65535.43

#### Metadata

| Field        | Value    |
|--------------|----------|
| Entrypoint   | 0x0565   |
| Data Size    | 50 bytes |
| Instructions | 12       |

```
      00 01 02 03 04 05 06 07  08 09 0A 0B 0C 0D 0E 0F
      -- -- -- -- -- -- -- --  -- -- -- -- -- -- -- --
0560:                32 28 80  1F 00 A9 80 AA 80 AB 80       2(.........
0570: 1F 01 1C 2C 80 1F 00 AC  80 AD 80 AE 80 1F 01 1C  ...,............
0580: 2C 80 1F 00 90 80 91 80  92 80 1F 01 4B 14 61 0E  ,...........K.a.
0590: 01 AF 80 1C 2C 80 00                              ....,..         
```

#### Opcodes

```
  0: 0x0565 [0x32] ExtData[1]->MainSpeed = 10* * 0.1
  1: 0x0568 [0x1F] MOVE_ENTITY: EventEntity moves to X=-600.221*, Z=588.558*, Y=0.369*
  2: 0x0570 [0x1F] MOVE_ENTITY: Update entity position (mode=1)
  3: 0x0572 [0x1C] WAIT(60* ticks)
  4: 0x0575 [0x1F] MOVE_ENTITY: EventEntity moves to X=-602.144*, Z=586.825*, Y=0.376*
  5: 0x057D [0x1F] MOVE_ENTITY: Update entity position (mode=1)
  6: 0x057F [0x1C] WAIT(60* ticks)
  7: 0x0582 [0x1F] MOVE_ENTITY: EventEntity moves to X=-600.128*, Z=585.578*, Y=0.628*
  8: 0x058A [0x1F] MOVE_ENTITY: Update entity position (mode=1)
  9: 0x058C [0x4B] UPDATE_ENTITY_YAW(entity=Unnamed NPC (ID: 17719572/0x010E6114), yaw=11.8°*)
 10: 0x0593 [0x1C] WAIT(60* ticks)
 11: 0x0596 [0x00] END_REQSTACK()
```

### Event 65535.44

#### Metadata

| Field        | Value    |
|--------------|----------|
| Entrypoint   | 0x0597   |
| Data Size    | 50 bytes |
| Instructions | 12       |

```
      00 01 02 03 04 05 06 07  08 09 0A 0B 0C 0D 0E 0F
      -- -- -- -- -- -- -- --  -- -- -- -- -- -- -- --
0590:                      32  31 80 1F 00 B0 80 B1 80         21.......
05A0: B2 80 1F 01 1C 2C 80 1F  00 AC 80 AD 80 AE 80 1F  .....,..........
05B0: 01 1C 2C 80 1F 00 90 80  91 80 92 80 1F 01 4B 14  ..,...........K.
05C0: 61 0E 01 AF 80 1C 2C 80  00                       a.....,..       
```

#### Opcodes

```
  0: 0x0597 [0x32] ExtData[1]->MainSpeed = 19* * 0.1
  1: 0x059A [0x1F] MOVE_ENTITY: EventEntity moves to X=-599.892*, Z=588.477*, Y=0.373*
  2: 0x05A2 [0x1F] MOVE_ENTITY: Update entity position (mode=1)
  3: 0x05A4 [0x1C] WAIT(60* ticks)
  4: 0x05A7 [0x1F] MOVE_ENTITY: EventEntity moves to X=-602.144*, Z=586.825*, Y=0.376*
  5: 0x05AF [0x1F] MOVE_ENTITY: Update entity position (mode=1)
  6: 0x05B1 [0x1C] WAIT(60* ticks)
  7: 0x05B4 [0x1F] MOVE_ENTITY: EventEntity moves to X=-600.128*, Z=585.578*, Y=0.628*
  8: 0x05BC [0x1F] MOVE_ENTITY: Update entity position (mode=1)
  9: 0x05BE [0x4B] UPDATE_ENTITY_YAW(entity=Unnamed NPC (ID: 17719572/0x010E6114), yaw=11.8°*)
 10: 0x05C5 [0x1C] WAIT(60* ticks)
 11: 0x05C8 [0x00] END_REQSTACK()
```

### Event 65535.45

#### Metadata

| Field        | Value    |
|--------------|----------|
| Entrypoint   | 0x05C9   |
| Data Size    | 67 bytes |
| Instructions | 15       |

```
      00 01 02 03 04 05 06 07  08 09 0A 0B 0C 0D 0E 0F
      -- -- -- -- -- -- -- --  -- -- -- -- -- -- -- --
05C0:                             32 05 80 1F 00 B3 80           2......
05D0: B4 80 B5 80 1F 01 4B 14  61 0E 01 B6 80 1C 2C 80  ......K.a.....,.
05E0: 1F 00 B7 80 B8 80 B9 80  1F 01 4B 14 61 0E 01 BA  ..........K.a...
05F0: 80 1C BB 80 1F 00 BC 80  BD 80 BE 80 1F 01 1C A0  ................
0600: 80 4B 14 61 0E 01 BF 80  1C 2C 80 00              .K.a.....,..    
```

#### Opcodes

```
  0: 0x05C9 [0x32] ExtData[1]->MainSpeed = 57* * 0.1
  1: 0x05CC [0x1F] MOVE_ENTITY: EventEntity moves to X=-599.295*, Z=590.678*, Y=0.264*
  2: 0x05D4 [0x1F] MOVE_ENTITY: Update entity position (mode=1)
  3: 0x05D6 [0x4B] UPDATE_ENTITY_YAW(entity=Unnamed NPC (ID: 17719572/0x010E6114), yaw=5.3°*)
  4: 0x05DD [0x1C] WAIT(60* ticks)
  5: 0x05E0 [0x1F] MOVE_ENTITY: EventEntity moves to X=-604.353*, Z=586.292*, Y=0.138*
  6: 0x05E8 [0x1F] MOVE_ENTITY: Update entity position (mode=1)
  7: 0x05EA [0x4B] UPDATE_ENTITY_YAW(entity=Unnamed NPC (ID: 17719572/0x010E6114), yaw=0.2°*)
  8: 0x05F1 [0x1C] WAIT(240* ticks)
  9: 0x05F4 [0x1F] MOVE_ENTITY: EventEntity moves to X=-600.328*, Z=582.410*, Y=0.802*
 10: 0x05FC [0x1F] MOVE_ENTITY: Update entity position (mode=1)
 11: 0x05FE [0x1C] WAIT(30* ticks)
 12: 0x0601 [0x4B] UPDATE_ENTITY_YAW(entity=Unnamed NPC (ID: 17719572/0x010E6114), yaw=16.6°*)
 13: 0x0608 [0x1C] WAIT(60* ticks)
 14: 0x060B [0x00] END_REQSTACK()
```

### Event 65535.46

#### Metadata

| Field        | Value    |
|--------------|----------|
| Entrypoint   | 0x060C   |
| Data Size    | 14 bytes |
| Instructions | 4        |

```
      00 01 02 03 04 05 06 07  08 09 0A 0B 0C 0D 0E 0F
      -- -- -- -- -- -- -- --  -- -- -- -- -- -- -- --
0600:                                      32 28 80 1F              2(..
0610: 00 C0 80 C1 80 C2 80 1F  01 00                    ..........      
```

#### Opcodes

```
  0: 0x060C [0x32] ExtData[1]->MainSpeed = 10* * 0.1
  1: 0x060F [0x1F] MOVE_ENTITY: EventEntity moves to X=-599.148*, Z=589.043*, Y=0.345*
  2: 0x0617 [0x1F] MOVE_ENTITY: Update entity position (mode=1)
  3: 0x0619 [0x00] END_REQSTACK()
```

### Event 65535.47

#### Metadata

| Field        | Value    |
|--------------|----------|
| Entrypoint   | 0x061A   |
| Data Size    | 51 bytes |
| Instructions | 11       |

```
      00 01 02 03 04 05 06 07  08 09 0A 0B 0C 0D 0E 0F
      -- -- -- -- -- -- -- --  -- -- -- -- -- -- -- --
0610:                                32 28 80 1F 00 C3            2(....
0620: 80 C4 80 05 80 1F 01 1F  00 C5 80 C6 80 C7 80 1F  ................
0630: 01 1F 00 C8 80 C9 80 CA  80 1F 01 1E 13 61 0E 01  .............a..
0640: 1C A0 80 4A 13 61 0E 01  14 61 0E 01 00           ...J.a...a...   
```

#### Opcodes

```
  0: 0x061A [0x32] ExtData[1]->MainSpeed = 10* * 0.1
  1: 0x061D [0x1F] MOVE_ENTITY: EventEntity moves to X=-604.257*, Z=586.573*, Y=0.057*
  2: 0x0625 [0x1F] MOVE_ENTITY: Update entity position (mode=1)
  3: 0x0627 [0x1F] MOVE_ENTITY: EventEntity moves to X=-603.318*, Z=588.527*, Y=0.196*
  4: 0x062F [0x1F] MOVE_ENTITY: Update entity position (mode=1)
  5: 0x0631 [0x1F] MOVE_ENTITY: EventEntity moves to X=-601.495*, Z=586.040*, Y=0.496*
  6: 0x0639 [0x1F] MOVE_ENTITY: Update entity position (mode=1)
  7: 0x063B [0x1E] EventEntity looks at Unnamed NPC (ID: 17719571/0x010E6113) and starts talking
  8: 0x0640 [0x1C] WAIT(30* ticks)
  9: 0x0643 [0x4A] Unnamed NPC (ID: 17719571/0x010E6113) looks at Unnamed NPC (ID: 17719572/0x010E6114)
 10: 0x064C [0x00] END_REQSTACK()
```

### Event 65535.48

#### Metadata

| Field        | Value    |
|--------------|----------|
| Entrypoint   | 0x064D   |
| Data Size    | 14 bytes |
| Instructions | 4        |

```
      00 01 02 03 04 05 06 07  08 09 0A 0B 0C 0D 0E 0F
      -- -- -- -- -- -- -- --  -- -- -- -- -- -- -- --
0640:                                         32 05 80               2..
0650: 1F 00 C0 80 C1 80 C2 80  1F 01 00                 ...........     
```

#### Opcodes

```
  0: 0x064D [0x32] ExtData[1]->MainSpeed = 57* * 0.1
  1: 0x0650 [0x1F] MOVE_ENTITY: EventEntity moves to X=-599.148*, Z=589.043*, Y=0.345*
  2: 0x0658 [0x1F] MOVE_ENTITY: Update entity position (mode=1)
  3: 0x065A [0x00] END_REQSTACK()
```

### Event 65535.49

#### Metadata

| Field        | Value    |
|--------------|----------|
| Entrypoint   | 0x065B   |
| Data Size    | 51 bytes |
| Instructions | 11       |

```
      00 01 02 03 04 05 06 07  08 09 0A 0B 0C 0D 0E 0F
      -- -- -- -- -- -- -- --  -- -- -- -- -- -- -- --
0650:                                   32 05 80 1F 00             2....
0660: C3 80 C4 80 05 80 1F 01  1F 00 C5 80 C6 80 C7 80  ................
0670: 1F 01 1F 00 C8 80 C9 80  CA 80 1F 01 1E 13 61 0E  ..............a.
0680: 01 1C A0 80 4A 13 61 0E  01 14 61 0E 01 00        ....J.a...a...  
```

#### Opcodes

```
  0: 0x065B [0x32] ExtData[1]->MainSpeed = 57* * 0.1
  1: 0x065E [0x1F] MOVE_ENTITY: EventEntity moves to X=-604.257*, Z=586.573*, Y=0.057*
  2: 0x0666 [0x1F] MOVE_ENTITY: Update entity position (mode=1)
  3: 0x0668 [0x1F] MOVE_ENTITY: EventEntity moves to X=-603.318*, Z=588.527*, Y=0.196*
  4: 0x0670 [0x1F] MOVE_ENTITY: Update entity position (mode=1)
  5: 0x0672 [0x1F] MOVE_ENTITY: EventEntity moves to X=-601.495*, Z=586.040*, Y=0.496*
  6: 0x067A [0x1F] MOVE_ENTITY: Update entity position (mode=1)
  7: 0x067C [0x1E] EventEntity looks at Unnamed NPC (ID: 17719571/0x010E6113) and starts talking
  8: 0x0681 [0x1C] WAIT(30* ticks)
  9: 0x0684 [0x4A] Unnamed NPC (ID: 17719571/0x010E6113) looks at Unnamed NPC (ID: 17719572/0x010E6114)
 10: 0x068D [0x00] END_REQSTACK()
```

### Event 65535.50

#### Metadata

| Field        | Value    |
|--------------|----------|
| Entrypoint   | 0x068E   |
| Data Size    | 59 bytes |
| Instructions | 13       |

```
      00 01 02 03 04 05 06 07  08 09 0A 0B 0C 0D 0E 0F
      -- -- -- -- -- -- -- --  -- -- -- -- -- -- -- --
0680:                                            32 28                2(
0690: 80 1F 00 CB 80 CC 80 CD  80 1F 01 1F 00 CE 80 CF  ................
06A0: 80 D0 80 1F 01 1F 00 D1  80 D2 80 D3 80 1F 01 1F  ................
06B0: 00 D4 80 D5 80 D6 80 1F  01 1F 00 D7 80 D8 80 D9  ................
06C0: 80 1F 01 1E 13 61 0E 01  00                       .....a...       
```

#### Opcodes

```
  0: 0x068E [0x32] ExtData[1]->MainSpeed = 10* * 0.1
  1: 0x0691 [0x1F] MOVE_ENTITY: EventEntity moves to X=-601.361*, Z=584.507*, Y=0.542*
  2: 0x0699 [0x1F] MOVE_ENTITY: Update entity position (mode=1)
  3: 0x069B [0x1F] MOVE_ENTITY: EventEntity moves to X=-600.414*, Z=583.859*, Y=0.704*
  4: 0x06A3 [0x1F] MOVE_ENTITY: Update entity position (mode=1)
  5: 0x06A5 [0x1F] MOVE_ENTITY: EventEntity moves to X=-599.376*, Z=585.276*, Y=0.668*
  6: 0x06AD [0x1F] MOVE_ENTITY: Update entity position (mode=1)
  7: 0x06AF [0x1F] MOVE_ENTITY: EventEntity moves to X=-598.992*, Z=587.260*, Y=0.468*
  8: 0x06B7 [0x1F] MOVE_ENTITY: Update entity position (mode=1)
  9: 0x06B9 [0x1F] MOVE_ENTITY: EventEntity moves to X=-599.942*, Z=587.474*, Y=0.447*
 10: 0x06C1 [0x1F] MOVE_ENTITY: Update entity position (mode=1)
 11: 0x06C3 [0x1E] EventEntity looks at Unnamed NPC (ID: 17719571/0x010E6113) and starts talking
 12: 0x06C8 [0x00] END_REQSTACK()
```

### Event 65535.51

#### Metadata

| Field        | Value    |
|--------------|----------|
| Entrypoint   | 0x06C9   |
| Data Size    | 69 bytes |
| Instructions | 15       |

```
      00 01 02 03 04 05 06 07  08 09 0A 0B 0C 0D 0E 0F
      -- -- -- -- -- -- -- --  -- -- -- -- -- -- -- --
06C0:                             32 05 80 1F 00 DA 80           2......
06D0: DB 80 DC 80 1F 01 1F 00  DD 80 DE 80 DF 80 1F 01  ................
06E0: 1F 00 E0 80 E1 80 E2 80  1F 01 1F 00 E3 80 E4 80  ................
06F0: E5 80 1F 01 1F 00 E6 80  E7 80 E8 80 1F 01 1F 00  ................
0700: E9 80 EA 80 EB 80 1F 01  1E 13 61 0E 01 00        ..........a...  
```

#### Opcodes

```
  0: 0x06C9 [0x32] ExtData[1]->MainSpeed = 57* * 0.1
  1: 0x06CC [0x1F] MOVE_ENTITY: EventEntity moves to X=-602.454*, Z=588.333*, Y=0.247*
  2: 0x06D4 [0x1F] MOVE_ENTITY: Update entity position (mode=1)
  3: 0x06D6 [0x1F] MOVE_ENTITY: EventEntity moves to X=-603.634*, Z=585.657*, Y=0.144*
  4: 0x06DE [0x1F] MOVE_ENTITY: Update entity position (mode=1)
  5: 0x06E0 [0x1F] MOVE_ENTITY: EventEntity moves to X=-602.421*, Z=582.680*, Y=0.396*
  6: 0x06E8 [0x1F] MOVE_ENTITY: Update entity position (mode=1)
  7: 0x06EA [0x1F] MOVE_ENTITY: EventEntity moves to X=-599.175*, Z=582.899*, Y=0.854*
  8: 0x06F2 [0x1F] MOVE_ENTITY: Update entity position (mode=1)
  9: 0x06F4 [0x1F] MOVE_ENTITY: EventEntity moves to X=-598.432*, Z=587.737*, Y=0.410*
 10: 0x06FC [0x1F] MOVE_ENTITY: Update entity position (mode=1)
 11: 0x06FE [0x1F] MOVE_ENTITY: EventEntity moves to X=-599.890*, Z=589.432*, Y=0.326*
 12: 0x0706 [0x1F] MOVE_ENTITY: Update entity position (mode=1)
 13: 0x0708 [0x1E] EventEntity looks at Unnamed NPC (ID: 17719571/0x010E6113) and starts talking
 14: 0x070D [0x00] END_REQSTACK()
```

### Event 65535.52

#### Metadata

| Field        | Value    |
|--------------|----------|
| Entrypoint   | 0x070E   |
| Data Size    | 15 bytes |
| Instructions | 3        |

```
      00 01 02 03 04 05 06 07  08 09 0A 0B 0C 0D 0E 0F
      -- -- -- -- -- -- -- --  -- -- -- -- -- -- -- --
0700:                                            37 A6                7.
0710: 80 A7 80 A8 80 93 80 80  F8 FF FF 7F 00           .............   
```

#### Opcodes

```
  0: 0x070E [0x37] UPDATE_EVENT_POSITION_AND_DIR: x=-602.007*, z=587.764*, y=0.268*, direction=25.0°*
  1: 0x0717 [0x80] LOAD_WAIT(entity=EventEntity)
  2: 0x071C [0x00] END_REQSTACK()
```
