# 17719655 - Moogle

## Common Data

| Field            | Value                         |
|------------------|-------------------------------|
| Zone             | Southern San d'Oria (ID: 230) |
| Block Size       | 1216 bytes                    |
| Total Events     | 4                             |
| References Count | 85                            |

## List of Events

| Event ID              | Entrypoint   |   Size |   Instructions |
|-----------------------|--------------|--------|----------------|
| [65535](#event-65535) | 0x0000       |      1 |              1 |
| [804](#event-804)     | 0x0001       |     26 |              9 |
| [803](#event-803)     | 0x001B       |     25 |             11 |
| [802](#event-802)     | 0x0034       |    790 |            216 |

## DAT References (imed_data)

|   Index | Hex Value   |   Dec Value |
|---------|-------------|-------------|
|       0 | 0x0000      |           0 |
|       1 | 0x2851      |       10321 |
|       2 | 0x2852      |       10322 |
|       3 | 0x2846      |       10310 |
|       4 | 0x2847      |       10311 |
|       5 | 0x2848      |       10312 |
|       6 | 0x001C      |          28 |
|       7 | 0x0014      |          20 |
|       8 | 0x0015      |          21 |
|       9 | 0x0016      |          22 |
|      10 | 0x0017      |          23 |
|      11 | 0x2849      |       10313 |
|      12 | 0x0007      |           7 |
|      13 | 0x0040      |          64 |
|      14 | 0x284A      |       10314 |
|      15 | 0x0018      |          24 |
|      16 | 0x284B      |       10315 |
|      17 | 0x284C      |       10316 |
|      18 | 0x00FF      |         255 |
|      19 | 0x284D      |       10317 |
|      20 | 0x09D5      |        2517 |
|      21 | 0x690A      |       26890 |
|      22 | 0x6909      |       26889 |
|      23 | 0x47E0      |       18400 |
|      24 | 0x47DF      |       18399 |
|      25 | 0x499D      |       18845 |
|      26 | 0x499C      |       18844 |
|      27 | 0x1631      |        5681 |
|      28 | 0x108E      |        4238 |
|      29 | 0x108F      |        4239 |
|      30 | 0x1090      |        4240 |
|      31 | 0x1091      |        4241 |
|      32 | 0x1092      |        4242 |
|      33 | 0x1093      |        4243 |
|      34 | 0x1094      |        4244 |
|      35 | 0x1095      |        4245 |
|      36 | 0x05EA      |        1514 |
|      37 | 0x06FD      |        1789 |
|      38 | 0x284E      |       10318 |
|      39 | 0x40000000  |  1073741824 |
|      40 | 0x0001      |           1 |
|      41 | 0x0002      |           2 |
|      42 | 0x0003      |           3 |
|      43 | 0x0004      |           4 |
|      44 | 0x0005      |           5 |
|      45 | 0x0006      |           6 |
|      46 | 0x0008      |           8 |
|      47 | 0x0009      |           9 |
|      48 | 0x000A      |          10 |
|      49 | 0x000B      |          11 |
|      50 | 0x000C      |          12 |
|      51 | 0x000D      |          13 |
|      52 | 0x000E      |          14 |
|      53 | 0x000F      |          15 |
|      54 | 0x0010      |          16 |
|      55 | 0x0011      |          17 |
|      56 | 0x0012      |          18 |
|      57 | 0x284F      |       10319 |
|      58 | 0x2850      |       10320 |
|      59 | 0x283E      |       10302 |
|      60 | 0x283F      |       10303 |
|      61 | 0x2830      |       10288 |
|      62 | 0x2831      |       10289 |
|      63 | 0x2832      |       10290 |
|      64 | 0x2833      |       10291 |
|      65 | 0x2834      |       10292 |
|      66 | 0x2835      |       10293 |
|      67 | 0x2836      |       10294 |
|      68 | 0x2837      |       10295 |
|      69 | 0x2838      |       10296 |
|      70 | 0x2839      |       10297 |
|      71 | 0x283A      |       10298 |
|      72 | 0x283B      |       10299 |
|      73 | 0x283C      |       10300 |
|      74 | 0x2843      |       10307 |
|      75 | 0x2844      |       10308 |
|      76 | 0x2845      |       10309 |
|      77 | 0xFFFFFFFF  |  4294967295 |
|      78 | 0x2840      |       10304 |
|      79 | 0x001B      |          27 |
|      80 | 0x283D      |       10301 |
|      81 | 0x282C      |       10284 |
|      82 | 0x282D      |       10285 |
|      83 | 0x282E      |       10286 |
|      84 | 0x282F      |       10287 |

## String References

- **10284**: Love is in the air! It's time for Valentione's Day celebrations, kupo!
- **10285**: There is an amazing type of chocolate whose filling is influenced by your feelings! When chocolate halves from a boy and a girl are matched together, the resulting whole produces a wonderful taste if the couple is meant to be, kupo!
- **10286**: Young men and women in this town have broken their chocolates in two, hoping to meet that "special someone"!
- **10287**: We want adventurers to help each of them find their perfect match, kupo!
- **10288**: Here's what you should do, kupo: Take the two halves of a piece of chocolate from a Valentione Single.
- **10289**: There are four lonely guys and four forlorn girls who need your matchmaking expertise. Try talking to someone of the same gender as you, kupo!
- **10290**: When they hand over their chocolate halves, the singles will give you hints about the type of person they're head-over-heels for, kupo.
- **10291**: You should be able to find an adventurer of the opposite gender who is holding a chocolate half from the perfect paramour for your Valentione Single.
- **10292**: Trade the right halves of the chocolates with your adventuring colleagues and try to match them with the left half you received from the Valentione Single.
- **10293**: When matching the halves, the single who gave up the left half may also meet the preferences of the single who gave up the right half.
- **10294**: If both the singles meet each other's preferences, you'll have a match made in heaven, kupo!
- **10295**: Don't forget who you got your chocolate from! Try to do too many things at once and you'll end up confused, so we suggest you hand in the chocolate halves to a moogle one pair at a time, kupo\`.
- **10296**: We moogles can take your lonely pieces and make them into one whole, complete chocolate!
- **10297**: Then all you have to do is return the finished chocolate to the person who gave you the original piece. One bite will tell them if they've found their perfect partner!
- **10298**: After you've returned a whole chocolate to four Valentione Singles, return to a moogle and collect your reward, kupo!
- **10299**: While you're playing matchmaker, you might meet someone who puts a sparkle in your eye, too. Kupohoho\`!
- **10300**: Or maybe you could take advantage of this romantic occasion and make a party with that special someone while you exchange chocolates, kupopopo!
- **10301**: Want to try again? Match up all the lovebirds you can, kupo!
- **10302**: Something wrong, kupo?
- **10303**: Something wrong? [Listen to the rules again./Give up./Not really.]
- **10304**: Four people hold the chocolates you seek. Make them into four whole chocolates and give one to each person. When you're finished, return to a moogle, kupo!
- **10307**: If you want to start over, you'll have to get rid of the chocolates you have now.
- **10308**: Really give up? [Yes!/No, not yet!]
- **10309**: Just think of all those poor singles! You'll come back and help them later, won't you, kupo? You should get rid of your chocolates in a subtle manner, so that you don't hurt anyone's feelings! ...We wouldn't want you getting a stomachache either, now would we, kupo?
- **10310**: You've managed to gather complementary pieces of chocolate! Wait just a moment, now...
- **10311**: ...
- **10312**: Kupopopo\`! What a beautiful piece of chocolate! No need to thank me, now. Hurry and give it to the Valentione Single!
- **10313**: Great work, kupo! You delivered chocolates to everyone! I've been getting lots of feedback about it! The response has been...
- **10314**: Excellent! I thought my heart was going to flutter out of my furry little chest--you score $2 [point/points]! The power of love is amazing, kupo!
- **10315**: Decent. You score $2 [point/points]. Everyone seems relatively happy! Not bad, kupo.
- **10316**: Well, let's just say that some things just weren't meant to be. You score $2 [point/points]. Sorry, but I won't hand out a reward this time, kupo.
- **10317**: My bag is filled with goodies for helpful adventurers like yourself! Take your pick!
- **10318**: Which item would you like? [Let me think./$1./$2./$3./$4./$5./$6./$7./$8./$9./$10./$11./$12./$13./$14./$15./$16./$17./$18.]
- **10319**: Are you absolutely sure, kupo?
- **10320**: You really want $0? [Yes, that's the one!/On second thought...]
- **10321**: You must wait a bit longer to try again, kupo.
- **10322**: You have to throw away all of your chocolates before playing again, kupo! It might seem a waste, but a rule is a rule!

## Events

### Event 65535

#### Metadata

| Field        | Value   |
|--------------|---------|
| Entrypoint   | 0x0000  |
| Data Size    | 1 bytes |
| Instructions | 1       |

```
      00 01 02 03 04 05 06 07  08 09 0A 0B 0C 0D 0E 0F
      -- -- -- -- -- -- -- --  -- -- -- -- -- -- -- --
0000: 00                                                .               
```

#### Opcodes

```
  0: 0x0000 [0x00] END_REQSTACK()
```

### Event 804

#### Metadata

| Field        | Value    |
|--------------|----------|
| Entrypoint   | 0x0001   |
| Data Size    | 26 bytes |
| Instructions | 9        |

```
      00 01 02 03 04 05 06 07  08 09 0A 0B 0C 0D 0E 0F
      -- -- -- -- -- -- -- --  -- -- -- -- -- -- -- --
0000:    1E F0 FF FF 7F 02 02  10 00 80 00 15 00 1D 01   ...............
0010: 80 23 01 19 00 1D 02 80  23 21 00                 .#......#!.     
```

#### Opcodes

```
  0: 0x0001 [0x1E] EventEntity looks at LocalPlayer and starts talking
  1: 0x0006 [0x02] IF !(Work_Zone[2] == 0*) GOTO 0x0015
  2: 0x000E [0x1D] PRINT_EVENT_MESSAGE(message_id=10321*)
    → "You must wait a bit longer to try again, kupo."
  3: 0x0011 [0x23] WAIT_FOR_DIALOG_INTERACTION
  4: 0x0012 [0x01] GOTO 0x0019
  5: 0x0015 [0x1D] PRINT_EVENT_MESSAGE(message_id=10322*)
    → "You have to throw away all of your chocolates before playing again, kupo! It might seem a waste, but a rule is a rule!"
  6: 0x0018 [0x23] WAIT_FOR_DIALOG_INTERACTION

SUBROUTINE_0019:
  7: 0x0019 [0x21] END_EVENT
  8: 0x001A [0x00] END_REQSTACK()
```

### Event 803

#### Metadata

| Field        | Value    |
|--------------|----------|
| Entrypoint   | 0x001B   |
| Data Size    | 25 bytes |
| Instructions | 11       |

```
      00 01 02 03 04 05 06 07  08 09 0A 0B 0C 0D 0E 0F
      -- -- -- -- -- -- -- --  -- -- -- -- -- -- -- --
0010:                                   42 03 01 10 02             B....
0020: 10 1E F0 FF FF 7F 1D 03  80 23 1D 04 80 23 1D 05  .........#...#..
0030: 80 23 21 00                                       .#!.            
```

#### Opcodes

```
  0: 0x001B [0x42] SET_CLI_EVENT_CANCEL_DATA()
  1: 0x001C [0x03] Work_Zone[1] = Work_Zone[2]
  2: 0x0021 [0x1E] EventEntity looks at LocalPlayer and starts talking
  3: 0x0026 [0x1D] PRINT_EVENT_MESSAGE(message_id=10310*)
    → "You've managed to gather complementary pieces of chocolate! Wait just a moment, now..."
  4: 0x0029 [0x23] WAIT_FOR_DIALOG_INTERACTION
  5: 0x002A [0x1D] PRINT_EVENT_MESSAGE(message_id=10311*)
    → "..."
  6: 0x002D [0x23] WAIT_FOR_DIALOG_INTERACTION
  7: 0x002E [0x1D] PRINT_EVENT_MESSAGE(message_id=10312*)
    → "Kupopopo`! What a beautiful piece of chocolate! No need to thank me, now. Hurry and give it to the Valentione Single!"
  8: 0x0031 [0x23] WAIT_FOR_DIALOG_INTERACTION
  9: 0x0032 [0x21] END_EVENT
 10: 0x0033 [0x00] END_REQSTACK()
```

### Event 802

#### Metadata

| Field        | Value     |
|--------------|-----------|
| Entrypoint   | 0x0034    |
| Data Size    | 790 bytes |
| Instructions | 154       |

```
      00 01 02 03 04 05 06 07  08 09 0A 0B 0C 0D 0E 0F
      -- -- -- -- -- -- -- --  -- -- -- -- -- -- -- --
0030:             1E F0 FF FF  7F 06 01 10 3E 02 10 06      ........>...
0040: 80 F5 02 3E 02 10 07 80  63 02 3E 02 10 08 80 63  ...>....c.>....c
0050: 02 3E 02 10 09 80 63 02  3E 02 10 0A 80 63 02 42  .>....c.>....c.B
0060: 1D 0B 80 23 41 00 80 0C  80 02 10 00 00 03 04 10  ...#A...........
0070: 00 00 02 00 00 0D 80 04  81 00 1D 0E 80 23 01 9B  .............#..
0080: 00 02 00 00 0F 80 04 90  00 1D 10 80 23 01 9B 00  ............#...
0090: 1D 11 80 23 03 01 10 12  80 21 00 1D 13 80 23 03  ...#.....!....#.
00A0: 01 00 03 10 03 03 10 14  80 03 04 10 15 80 03 05  ................
00B0: 10 16 80 03 06 10 17 80  03 07 10 18 80 03 08 10  ................
00C0: 19 80 03 09 10 1A 80 03  00 17 1B 80 03 01 17 1C  ................
00D0: 80 03 02 17 1D 80 03 03  17 1E 80 03 04 17 1F 80  ................
00E0: 03 05 17 20 80 03 06 17  21 80 03 07 17 22 80 03  ... ....!...."..
00F0: 08 17 23 80 03 09 17 24  80 03 0A 17 25 80 24 26  ..#....$....%.$&
0100: 80 00 80 01 00 25 02 00  10 00 80 00 18 01 03 01  .....%..........
0110: 10 27 80 21 00 01 38 02  02 00 10 28 80 00 28 01  .'.!..8....(..(.
0120: 03 02 10 03 10 01 38 02  02 00 10 29 80 00 38 01  ......8....)..8.
0130: 03 02 10 04 10 01 38 02  02 00 10 2A 80 00 48 01  ......8....*..H.
0140: 03 02 10 05 10 01 38 02  02 00 10 2B 80 00 58 01  ......8....+..X.
0150: 03 02 10 06 10 01 38 02  02 00 10 2C 80 00 68 01  ......8....,..h.
0160: 03 02 10 07 10 01 38 02  02 00 10 2D 80 00 78 01  ......8....-..x.
0170: 03 02 10 08 10 01 38 02  02 00 10 0C 80 00 88 01  ......8.........
0180: 03 02 10 09 10 01 38 02  02 00 10 2E 80 00 98 01  ......8.........
0190: 03 02 10 00 17 01 38 02  02 00 10 2F 80 00 A8 01  ......8..../....
01A0: 03 02 10 01 17 01 38 02  02 00 10 30 80 00 B8 01  ......8....0....
01B0: 03 02 10 02 17 01 38 02  02 00 10 31 80 00 C8 01  ......8....1....
01C0: 03 02 10 03 17 01 38 02  02 00 10 32 80 00 D8 01  ......8....2....
01D0: 03 02 10 04 17 01 38 02  02 00 10 33 80 00 E8 01  ......8....3....
01E0: 03 02 10 05 17 01 38 02  02 00 10 34 80 00 F8 01  ......8....4....
01F0: 03 02 10 06 17 01 38 02  02 00 10 35 80 00 08 02  ......8....5....
0200: 03 02 10 07 17 01 38 02  02 00 10 36 80 00 18 02  ......8....6....
0210: 03 02 10 08 17 01 38 02  02 00 10 37 80 00 28 02  ......8....7..(.
0220: 03 02 10 09 17 01 38 02  02 00 10 38 80 00 38 02  ......8....8..8.
0230: 03 02 10 0A 17 01 38 02  93 02 10 1D 39 80 23 93  ......8.....9.#.
0240: 00 80 03 01 10 00 10 24  3A 80 28 80 00 80 25 02  .......$:.(...%.
0250: 00 10 28 80 00 61 02 03  01 10 27 80 21 00 01 61  ..(..a....'.!..a
0260: 02 21 00 1D 3B 80 23 24  3C 80 00 80 00 80 25 02  .!..;.#$<.....%.
0270: 00 10 00 80 00 AE 02 1D  3D 80 23 1D 3E 80 23 1D  ........=.#.>.#.
0280: 3F 80 23 1D 40 80 23 1D  41 80 23 1D 42 80 23 1D  ?.#.@.#.A.#.B.#.
0290: 43 80 23 1D 44 80 23 1D  45 80 23 1D 46 80 23 1D  C.#.D.#.E.#.F.#.
02A0: 47 80 23 1D 48 80 23 1D  49 80 23 01 F2 02 02 00  G.#.H.#.I.#.....
02B0: 10 28 80 00 E3 02 1D 4A  80 23 24 4B 80 28 80 00  .(.....J.#$K.(..
02C0: 80 25 02 00 10 28 80 00  D4 02 03 01 10 27 80 21  .%...(.......'.!
02D0: 00 01 D4 02 42 1D 4C 80  23 03 01 10 4D 80 21 00  ....B.L.#...M.!.
02E0: 01 F2 02 02 00 10 29 80  00 F2 02 1D 4E 80 23 01  ......).....N.#.
02F0: F2 02 01 48 03 42 3E 02  10 4F 80 04 03 1D 50 80  ...H.B>..O....P.
0300: 23 01 3C 03 1D 51 80 23  1D 52 80 23 1D 53 80 23  #.<..Q.#.R.#.S.#
0310: 1D 54 80 23 1D 3D 80 23  1D 3E 80 23 1D 3F 80 23  .T.#.=.#.>.#.?.#
0320: 1D 40 80 23 1D 41 80 23  1D 42 80 23 1D 43 80 23  .@.#.A.#.B.#.C.#
0330: 1D 44 80 23 1D 45 80 23  1D 46 80 23 1D 47 80 23  .D.#.E.#.F.#.G.#
0340: 1D 48 80 23 1D 49 80 23  21 00                    .H.#.I.#!.      
```

#### Opcodes

```
  0: 0x0034 [0x1E] EventEntity looks at LocalPlayer and starts talking
  1: 0x0039 [0x06] Work_Zone[1] = 0
  2: 0x003C [0x3E] IF !(Work_Zone[2] bit 28*) GOTO 0x02F5
  3: 0x0043 [0x3E] IF !(Work_Zone[2] bit 20*) GOTO 0x0263
  4: 0x004A [0x3E] IF !(Work_Zone[2] bit 21*) GOTO 0x0263
  5: 0x0051 [0x3E] IF !(Work_Zone[2] bit 22*) GOTO 0x0263
  6: 0x0058 [0x3E] IF !(Work_Zone[2] bit 23*) GOTO 0x0263
  7: 0x005F [0x42] SET_CLI_EVENT_CANCEL_DATA()
  8: 0x0060 [0x1D] PRINT_EVENT_MESSAGE(message_id=10313*)
    → "Great work, kupo! You delivered chocolates to everyone! I've been getting lots of feedback about it! The response has been..."
  9: 0x0063 [0x23] WAIT_FOR_DIALOG_INTERACTION
 10: 0x0064 [0x41] ExtData[1]->WorkLocal[0] = Work_Zone[2] (bits 0*-7*)
 11: 0x006D [0x03] Work_Zone[4] = ExtData[1]->WorkLocal[0]
 12: 0x0072 [0x02] IF !(ExtData[1]->WorkLocal[0] < 64*) GOTO 0x0081
 13: 0x007A [0x1D] PRINT_EVENT_MESSAGE(message_id=10314*)
    → "Excellent! I thought my heart was going to flutter out of my furry little chest--you score $2 [point/points]! The power of love is amazing, kupo!"
 14: 0x007D [0x23] WAIT_FOR_DIALOG_INTERACTION
 15: 0x007E [0x01] GOTO 0x009B
 16: 0x0081 [0x02] IF !(ExtData[1]->WorkLocal[0] < 24*) GOTO 0x0090
 17: 0x0089 [0x1D] PRINT_EVENT_MESSAGE(message_id=10315*)
    → "Decent. You score $2 [point/points]. Everyone seems relatively happy! Not bad, kupo."
 18: 0x008C [0x23] WAIT_FOR_DIALOG_INTERACTION
 19: 0x008D [0x01] GOTO 0x009B
 20: 0x0090 [0x1D] PRINT_EVENT_MESSAGE(message_id=10316*)
    → "Well, let's just say that some things just weren't meant to be. You score $2 [point/points]. Sorry, but I won't hand out a reward this time, kupo."
 21: 0x0093 [0x23] WAIT_FOR_DIALOG_INTERACTION
 22: 0x0094 [0x03] Work_Zone[1] = 255*
 23: 0x0099 [0x21] END_EVENT
 24: 0x009A [0x00] END_REQSTACK()

SUBROUTINE_009B:
 25: 0x009B [0x1D] PRINT_EVENT_MESSAGE(message_id=10317*)
    → "My bag is filled with goodies for helpful adventurers like yourself! Take your pick!"
 26: 0x009E [0x23] WAIT_FOR_DIALOG_INTERACTION
 27: 0x009F [0x03] ExtData[1]->WorkLocal[1] = Work_Zone[3]
 28: 0x00A4 [0x03] Work_Zone[3] = 2517*
 29: 0x00A9 [0x03] Work_Zone[4] = 26890*
 30: 0x00AE [0x03] Work_Zone[5] = 26889*
 31: 0x00B3 [0x03] Work_Zone[6] = 18400*
 32: 0x00B8 [0x03] Work_Zone[7] = 18399*
 33: 0x00BD [0x03] Work_Zone[8] = 18845*
 34: 0x00C2 [0x03] Work_Zone[9] = 18844*
 35: 0x00C7 [0x03] Work_Zone_1700[0] = 5681*
 36: 0x00CC [0x03] Work_Zone_1700[1] = 4238*
 37: 0x00D1 [0x03] Work_Zone_1700[2] = 4239*
 38: 0x00D6 [0x03] Work_Zone_1700[3] = 4240*
 39: 0x00DB [0x03] Work_Zone_1700[4] = 4241*
 40: 0x00E0 [0x03] Work_Zone_1700[5] = 4242*
 41: 0x00E5 [0x03] Work_Zone_1700[6] = 4243*
 42: 0x00EA [0x03] Work_Zone_1700[7] = 4244*
 43: 0x00EF [0x03] Work_Zone_1700[8] = 4245*
 44: 0x00F4 [0x03] Work_Zone_1700[9] = 1514*
 45: 0x00F9 [0x03] Work_Zone_1700[10] = 1789*
 46: 0x00FE [0x24] CREATE_DIALOG(message_id=10318*, default_option=0*, option_flags=ExtData[1]->WorkLocal[1])
    → "Which item would you like? [Let me think./$1./$2./$3./$4./$5./$6./$7./$8./$9./$10./$11./$12./$13./$14./$15./$16./$17./$18.]"
 47: 0x0105 [0x25] WAIT_DIALOG_SELECT()
 48: 0x0106 [0x02] IF !(Work_Zone[0] == 0*) GOTO 0x0118
 49: 0x010E [0x03] Work_Zone[1] = 1073741824*
 50: 0x0113 [0x21] END_EVENT
 51: 0x0114 [0x00] END_REQSTACK()

SUBROUTINE_0238:
 52: 0x0238 [0x93] DISPLAY_ITEM_INFO(item_id=Work_Zone[2])
 53: 0x023B [0x1D] PRINT_EVENT_MESSAGE(message_id=10319*)
    → "Are you absolutely sure, kupo?"
 54: 0x023E [0x23] WAIT_FOR_DIALOG_INTERACTION
 55: 0x023F [0x93] DISPLAY_ITEM_INFO(item_id=0*)
 56: 0x0242 [0x03] Work_Zone[1] = Work_Zone[0]
 57: 0x0247 [0x24] CREATE_DIALOG(message_id=10320*, default_option=1*, option_flags=0*)
    → "You really want $0? [Yes, that's the one!/On second thought...]"
 58: 0x024E [0x25] WAIT_DIALOG_SELECT()
 59: 0x024F [0x02] IF !(Work_Zone[0] == 1*) GOTO 0x0261
 60: 0x0257 [0x03] Work_Zone[1] = 1073741824*
 61: 0x025C [0x21] END_EVENT
 62: 0x025D [0x00] END_REQSTACK()

SUBROUTINE_0261:
 63: 0x0261 [0x21] END_EVENT
 64: 0x0262 [0x00] END_REQSTACK()
 65: 0x0263 [0x1D] PRINT_EVENT_MESSAGE(message_id=10302*)
    → "Something wrong, kupo?"
 66: 0x0266 [0x23] WAIT_FOR_DIALOG_INTERACTION
 67: 0x0267 [0x24] CREATE_DIALOG(message_id=10303*, default_option=0*, option_flags=0*)
    → "Something wrong? [Listen to the rules again./Give up./Not really.]"
 68: 0x026E [0x25] WAIT_DIALOG_SELECT()
 69: 0x026F [0x02] IF !(Work_Zone[0] == 0*) GOTO 0x02AE
 70: 0x0277 [0x1D] PRINT_EVENT_MESSAGE(message_id=10288*)
    → "Here's what you should do, kupo: Take the two halves of a piece of chocolate from a Valentione Single."
 71: 0x027A [0x23] WAIT_FOR_DIALOG_INTERACTION
 72: 0x027B [0x1D] PRINT_EVENT_MESSAGE(message_id=10289*)
    → "There are four lonely guys and four forlorn girls who need your matchmaking expertise. Try talking to someone of the same gender as you, kupo!"
 73: 0x027E [0x23] WAIT_FOR_DIALOG_INTERACTION
 74: 0x027F [0x1D] PRINT_EVENT_MESSAGE(message_id=10290*)
    → "When they hand over their chocolate halves, the singles will give you hints about the type of person they're head-over-heels for, kupo."
 75: 0x0282 [0x23] WAIT_FOR_DIALOG_INTERACTION
 76: 0x0283 [0x1D] PRINT_EVENT_MESSAGE(message_id=10291*)
    → "You should be able to find an adventurer of the opposite gender who is holding a chocolate half from the perfect paramour for your Valentione Single."
 77: 0x0286 [0x23] WAIT_FOR_DIALOG_INTERACTION
 78: 0x0287 [0x1D] PRINT_EVENT_MESSAGE(message_id=10292*)
    → "Trade the right halves of the chocolates with your adventuring colleagues and try to match them with the left half you received from the Valentione Single."
 79: 0x028A [0x23] WAIT_FOR_DIALOG_INTERACTION
 80: 0x028B [0x1D] PRINT_EVENT_MESSAGE(message_id=10293*)
    → "When matching the halves, the single who gave up the left half may also meet the preferences of the single who gave up the right half."
 81: 0x028E [0x23] WAIT_FOR_DIALOG_INTERACTION
 82: 0x028F [0x1D] PRINT_EVENT_MESSAGE(message_id=10294*)
    → "If both the singles meet each other's preferences, you'll have a match made in heaven, kupo!"
 83: 0x0292 [0x23] WAIT_FOR_DIALOG_INTERACTION
 84: 0x0293 [0x1D] PRINT_EVENT_MESSAGE(message_id=10295*)
    → "Don't forget who you got your chocolate from! Try to do too many things at once and you'll end up confused, so we suggest you hand in the chocolate halves to a moogle one pair at a time, kupo`."
 85: 0x0296 [0x23] WAIT_FOR_DIALOG_INTERACTION
 86: 0x0297 [0x1D] PRINT_EVENT_MESSAGE(message_id=10296*)
    → "We moogles can take your lonely pieces and make them into one whole, complete chocolate!"
 87: 0x029A [0x23] WAIT_FOR_DIALOG_INTERACTION
 88: 0x029B [0x1D] PRINT_EVENT_MESSAGE(message_id=10297*)
    → "Then all you have to do is return the finished chocolate to the person who gave you the original piece. One bite will tell them if they've found their perfect partner!"
 89: 0x029E [0x23] WAIT_FOR_DIALOG_INTERACTION
 90: 0x029F [0x1D] PRINT_EVENT_MESSAGE(message_id=10298*)
    → "After you've returned a whole chocolate to four Valentione Singles, return to a moogle and collect your reward, kupo!"
 91: 0x02A2 [0x23] WAIT_FOR_DIALOG_INTERACTION
 92: 0x02A3 [0x1D] PRINT_EVENT_MESSAGE(message_id=10299*)
    → "While you're playing matchmaker, you might meet someone who puts a sparkle in your eye, too. Kupohoho`!"
 93: 0x02A6 [0x23] WAIT_FOR_DIALOG_INTERACTION
 94: 0x02A7 [0x1D] PRINT_EVENT_MESSAGE(message_id=10300*)
    → "Or maybe you could take advantage of this romantic occasion and make a party with that special someone while you exchange chocolates, kupopopo!"
 95: 0x02AA [0x23] WAIT_FOR_DIALOG_INTERACTION
 96: 0x02AB [0x01] GOTO 0x02F2
 97: 0x02AE [0x02] IF !(Work_Zone[0] == 1*) GOTO 0x02E3
 98: 0x02B6 [0x1D] PRINT_EVENT_MESSAGE(message_id=10307*)
    → "If you want to start over, you'll have to get rid of the chocolates you have now."
 99: 0x02B9 [0x23] WAIT_FOR_DIALOG_INTERACTION
100: 0x02BA [0x24] CREATE_DIALOG(message_id=10308*, default_option=1*, option_flags=0*)
    → "Really give up? [Yes!/No, not yet!]"
101: 0x02C1 [0x25] WAIT_DIALOG_SELECT()
102: 0x02C2 [0x02] IF !(Work_Zone[0] == 1*) GOTO 0x02D4
103: 0x02CA [0x03] Work_Zone[1] = 1073741824*
104: 0x02CF [0x21] END_EVENT
105: 0x02D0 [0x00] END_REQSTACK()

SUBROUTINE_02D4:
106: 0x02D4 [0x42] SET_CLI_EVENT_CANCEL_DATA()
107: 0x02D5 [0x1D] PRINT_EVENT_MESSAGE(message_id=10309*)
    → "Just think of all those poor singles! You'll come back and help them later, won't you, kupo? You should get rid of your chocolates in a subtle manner, so that you don't hurt anyone's feelings! ...We wouldn't want you getting a stomachache either, now would we, kupo?"
108: 0x02D8 [0x23] WAIT_FOR_DIALOG_INTERACTION
109: 0x02D9 [0x03] Work_Zone[1] = 4294967295*
110: 0x02DE [0x21] END_EVENT
111: 0x02DF [0x00] END_REQSTACK()

SUBROUTINE_02F2:
112: 0x02F2 [0x01] GOTO 0x0348
113: 0x02F5 [0x42] SET_CLI_EVENT_CANCEL_DATA()
114: 0x02F6 [0x3E] IF !(Work_Zone[2] bit 27*) GOTO 0x0304
115: 0x02FD [0x1D] PRINT_EVENT_MESSAGE(message_id=10301*)
    → "Want to try again? Match up all the lovebirds you can, kupo!"
116: 0x0300 [0x23] WAIT_FOR_DIALOG_INTERACTION
117: 0x0301 [0x01] GOTO 0x033C
118: 0x0304 [0x1D] PRINT_EVENT_MESSAGE(message_id=10284*)
    → "Love is in the air! It's time for Valentione's Day celebrations, kupo!"
119: 0x0307 [0x23] WAIT_FOR_DIALOG_INTERACTION
120: 0x0308 [0x1D] PRINT_EVENT_MESSAGE(message_id=10285*)
    → "There is an amazing type of chocolate whose filling is influenced by your feelings! When chocolate halves from a boy and a girl are matched together, the resulting whole produces a wonderful taste if the couple is meant to be, kupo!"
121: 0x030B [0x23] WAIT_FOR_DIALOG_INTERACTION
122: 0x030C [0x1D] PRINT_EVENT_MESSAGE(message_id=10286*)
    → "Young men and women in this town have broken their chocolates in two, hoping to meet that "special someone"!"
123: 0x030F [0x23] WAIT_FOR_DIALOG_INTERACTION
124: 0x0310 [0x1D] PRINT_EVENT_MESSAGE(message_id=10287*)
    → "We want adventurers to help each of them find their perfect match, kupo!"
125: 0x0313 [0x23] WAIT_FOR_DIALOG_INTERACTION
126: 0x0314 [0x1D] PRINT_EVENT_MESSAGE(message_id=10288*)
    → "Here's what you should do, kupo: Take the two halves of a piece of chocolate from a Valentione Single."
127: 0x0317 [0x23] WAIT_FOR_DIALOG_INTERACTION
128: 0x0318 [0x1D] PRINT_EVENT_MESSAGE(message_id=10289*)
    → "There are four lonely guys and four forlorn girls who need your matchmaking expertise. Try talking to someone of the same gender as you, kupo!"
129: 0x031B [0x23] WAIT_FOR_DIALOG_INTERACTION
130: 0x031C [0x1D] PRINT_EVENT_MESSAGE(message_id=10290*)
    → "When they hand over their chocolate halves, the singles will give you hints about the type of person they're head-over-heels for, kupo."
131: 0x031F [0x23] WAIT_FOR_DIALOG_INTERACTION
132: 0x0320 [0x1D] PRINT_EVENT_MESSAGE(message_id=10291*)
    → "You should be able to find an adventurer of the opposite gender who is holding a chocolate half from the perfect paramour for your Valentione Single."
133: 0x0323 [0x23] WAIT_FOR_DIALOG_INTERACTION
134: 0x0324 [0x1D] PRINT_EVENT_MESSAGE(message_id=10292*)
    → "Trade the right halves of the chocolates with your adventuring colleagues and try to match them with the left half you received from the Valentione Single."
135: 0x0327 [0x23] WAIT_FOR_DIALOG_INTERACTION
136: 0x0328 [0x1D] PRINT_EVENT_MESSAGE(message_id=10293*)
    → "When matching the halves, the single who gave up the left half may also meet the preferences of the single who gave up the right half."
137: 0x032B [0x23] WAIT_FOR_DIALOG_INTERACTION
138: 0x032C [0x1D] PRINT_EVENT_MESSAGE(message_id=10294*)
    → "If both the singles meet each other's preferences, you'll have a match made in heaven, kupo!"
139: 0x032F [0x23] WAIT_FOR_DIALOG_INTERACTION
140: 0x0330 [0x1D] PRINT_EVENT_MESSAGE(message_id=10295*)
    → "Don't forget who you got your chocolate from! Try to do too many things at once and you'll end up confused, so we suggest you hand in the chocolate halves to a moogle one pair at a time, kupo`."
141: 0x0333 [0x23] WAIT_FOR_DIALOG_INTERACTION
142: 0x0334 [0x1D] PRINT_EVENT_MESSAGE(message_id=10296*)
    → "We moogles can take your lonely pieces and make them into one whole, complete chocolate!"
143: 0x0337 [0x23] WAIT_FOR_DIALOG_INTERACTION
144: 0x0338 [0x1D] PRINT_EVENT_MESSAGE(message_id=10297*)
    → "Then all you have to do is return the finished chocolate to the person who gave you the original piece. One bite will tell them if they've found their perfect partner!"
145: 0x033B [0x23] WAIT_FOR_DIALOG_INTERACTION

SUBROUTINE_033C:
146: 0x033C [0x1D] PRINT_EVENT_MESSAGE(message_id=10298*)
    → "After you've returned a whole chocolate to four Valentione Singles, return to a moogle and collect your reward, kupo!"
147: 0x033F [0x23] WAIT_FOR_DIALOG_INTERACTION
148: 0x0340 [0x1D] PRINT_EVENT_MESSAGE(message_id=10299*)
    → "While you're playing matchmaker, you might meet someone who puts a sparkle in your eye, too. Kupohoho`!"
149: 0x0343 [0x23] WAIT_FOR_DIALOG_INTERACTION
150: 0x0344 [0x1D] PRINT_EVENT_MESSAGE(message_id=10300*)
    → "Or maybe you could take advantage of this romantic occasion and make a party with that special someone while you exchange chocolates, kupopopo!"
151: 0x0347 [0x23] WAIT_FOR_DIALOG_INTERACTION

SUBROUTINE_0348:
152: 0x0348 [0x21] END_EVENT
153: 0x0349 [0x00] END_REQSTACK()
```

#### Data or dead code:

```
# Dead code (unreachable instructions):
     0x0115 [0x01] GOTO 0x0238
# Dead code (unreachable instructions):
     0x025E [0x01] GOTO 0x0261
# Dead code (unreachable instructions):
     0x02D1 [0x01] GOTO 0x02D4
# Dead code (unreachable instructions):
     0x02E0 [0x01] GOTO 0x02F2
```
