# 17719820

## Common Data

| Field            | Value                         |
|------------------|-------------------------------|
| Zone             | Southern San d'Oria (ID: 230) |
| Block Size       | 2088 bytes                    |
| Total Events     | 5                             |
| References Count | 24                            |

## List of Events

| Event ID                 | Entrypoint   |   Size |   Instructions |
|--------------------------|--------------|--------|----------------|
| [65535](#event-65535)    | 0x0000       |      1 |              1 |
| [897](#event-897)        | 0x0001       |      1 |              1 |
| [65535.1](#event-655351) | 0x0002       |    324 |             54 |
| [65535.2](#event-655352) | 0x0146       |    579 |             82 |
| [65535.3](#event-655353) | 0x0389       |   1051 |            161 |

## DAT References (imed_data)

|   Index | Hex Value   |   Dec Value |
|---------|-------------|-------------|
|       0 | 0x0001      |           1 |
|       1 | 0x0000      |           0 |
|       2 | 0x003C      |          60 |
|       3 | 0x0151      |         337 |
|       4 | 0x0002      |           2 |
|       5 | 0x010E      |         270 |
|       6 | 0x00D2      |         210 |
|       7 | 0x000A      |          10 |
|       8 | 0x00C8      |         200 |
|       9 | 0x0004      |           4 |
|      10 | 0x0078      |         120 |
|      11 | 0x005A      |          90 |
|      12 | 0x00B4      |         180 |
|      13 | 0x001E      |          30 |
|      14 | 0x0087      |         135 |
|      15 | 0x0006      |           6 |
|      16 | 0x0003      |           3 |
|      17 | 0xFFFDD83D  |  4294826045 |
|      18 | 0x2BFD      |       11261 |
|      19 | 0xFFFFDDA0  |  4294958496 |
|      20 | 0x0032      |          50 |
|      21 | 0xFFFDC2A7  |  4294820519 |
|      22 | 0x2C51      |       11345 |
|      23 | 0x0906      |        2310 |

## Events

### Event 65535

#### Metadata

| Field        | Value   |
|--------------|---------|
| Entrypoint   | 0x0000  |
| Data Size    | 1 bytes |
| Instructions | 1       |

```
      00 01 02 03 04 05 06 07  08 09 0A 0B 0C 0D 0E 0F
      -- -- -- -- -- -- -- --  -- -- -- -- -- -- -- --
0000: 00                                                .               
```

#### Opcodes

```
  0: 0x0000 [0x00] END_REQSTACK()
```

### Event 897

#### Metadata

| Field        | Value   |
|--------------|---------|
| Entrypoint   | 0x0001  |
| Data Size    | 1 bytes |
| Instructions | 1       |

```
      00 01 02 03 04 05 06 07  08 09 0A 0B 0C 0D 0E 0F
      -- -- -- -- -- -- -- --  -- -- -- -- -- -- -- --
0000:    00                                              .              
```

#### Opcodes

```
  0: 0x0001 [0x00] END_REQSTACK()
```

### Event 65535.1

#### Metadata

| Field        | Value     |
|--------------|-----------|
| Entrypoint   | 0x0002    |
| Data Size    | 324 bytes |
| Instructions | 54        |

```
      00 01 02 03 04 05 06 07  08 09 0A 0B 0C 0D 0E 0F
      -- -- -- -- -- -- -- --  -- -- -- -- -- -- -- --
0000:       7A 00 15 62 0E 01  7A 00 16 62 0E 01 7A 00    z..b..z..b..z.
0010: 18 62 0E 01 7A 00 19 62  0E 01 13 00 00 00 80 02  .b..z..b........
0020: 00 00 01 80 00 58 00 02  53 10 01 80 00 39 00 27  .....X..S....9.'
0030: 05 0E 62 0E 01 03 01 40  00 27 05 0E 62 0E 01 05  ..b....@.'..b...
0040: 27 05 0F 62 0E 01 02 27  05 11 62 0E 01 02 27 05  '..b...'..b...'.
0050: 12 62 0E 01 02 01 86 00  27 05 0E 62 0E 01 02 02  .b......'..b....
0060: 53 10 01 80 00 71 00 27  05 0F 62 0E 01 03 01 78  S....q.'..b....x
0070: 00 27 05 0F 62 0E 01 04  27 05 11 62 0E 01 02 27  .'..b...'..b...'
0080: 05 12 62 0E 01 02 80 0E  62 0E 01 80 0F 62 0E 01  ..b.....b....b..
0090: 80 11 62 0E 01 80 12 62  0E 01 1C 02 80 03 4F 10  ..b....b......O.
00A0: 01 80 52 03 80 F8 FF FF  7F F8 FF FF 7F 73 30 30  ..R..........s00
00B0: 33 45 03 80 F8 FF FF 7F  F8 FF FF 7F 73 30 30 32  3E..........s002
00C0: 01 80 7A 00 0D 62 0E 01  7A 00 0E 62 0E 01 03 55  ..z..b..z..b...U
00D0: 10 00 80 03 54 10 04 80  02 00 00 01 80 00 0F 01  ....T...........
00E0: 03 4F 10 00 80 27 05 0E  62 0E 01 04 27 05 11 62  .O...'..b...'..b
00F0: 0E 01 03 1C 05 80 03 4F  10 01 80 27 05 0F 62 0E  .......O...'..b.
0100: 01 05 27 05 12 62 0E 01  03 1C 06 80 01 3E 01 03  ..'..b.......>..
0110: 4F 10 01 80 27 05 0E 62  0E 01 04 27 05 11 62 0E  O...'..b...'..b.
0120: 01 03 1C 05 80 27 05 0F  62 0E 01 05 27 05 12 62  .....'..b...'..b
0130: 0E 01 03 1C 07 80 03 4F  10 00 80 1C 08 80 27 05  .......O......'.
0140: 0B 62 0E 01 03 00                                 .b....          
```

#### Opcodes

```
  0: 0x0002 [0x7A] VM_CONTROL: Reset VM for Unnamed NPC (ID: 17719829/0x010E6215)
  1: 0x0008 [0x7A] VM_CONTROL: Reset VM for Unnamed NPC (ID: 17719830/0x010E6216)
  2: 0x000E [0x7A] VM_CONTROL: Reset VM for Unnamed NPC (ID: 17719832/0x010E6218)
  3: 0x0014 [0x7A] VM_CONTROL: Reset VM for Unnamed NPC (ID: 17719833/0x010E6219)
  4: 0x001A [0x13] ExtData[1]->WorkLocal[0] = rand() % 1*
  5: 0x001F [0x02] IF !(ExtData[1]->WorkLocal[0] == 0*) GOTO 0x0058
  6: 0x0027 [0x02] IF !(Work_Zone[83] == 0*) GOTO 0x0039
  7: 0x002F [0x27] REQ_SET(priority=0x05, entity_id=Unnamed NPC (ID: 17719822/0x010E620E), tag_num=0x03)
  8: 0x0036 [0x01] GOTO 0x0040
  9: 0x0039 [0x27] REQ_SET(priority=0x05, entity_id=Unnamed NPC (ID: 17719822/0x010E620E), tag_num=0x05)

SUBROUTINE_0040:
 10: 0x0040 [0x27] REQ_SET(priority=0x05, entity_id=Unnamed NPC (ID: 17719823/0x010E620F), tag_num=0x02)
 11: 0x0047 [0x27] REQ_SET(priority=0x05, entity_id=Unnamed NPC (ID: 17719825/0x010E6211), tag_num=0x02)
 12: 0x004E [0x27] REQ_SET(priority=0x05, entity_id=Unnamed NPC (ID: 17719826/0x010E6212), tag_num=0x02)
 13: 0x0055 [0x01] GOTO 0x0086
 14: 0x0058 [0x27] REQ_SET(priority=0x05, entity_id=Unnamed NPC (ID: 17719822/0x010E620E), tag_num=0x02)
 15: 0x005F [0x02] IF !(Work_Zone[83] == 0*) GOTO 0x0071
 16: 0x0067 [0x27] REQ_SET(priority=0x05, entity_id=Unnamed NPC (ID: 17719823/0x010E620F), tag_num=0x03)
 17: 0x006E [0x01] GOTO 0x0078
 18: 0x0071 [0x27] REQ_SET(priority=0x05, entity_id=Unnamed NPC (ID: 17719823/0x010E620F), tag_num=0x04)

SUBROUTINE_0078:
 19: 0x0078 [0x27] REQ_SET(priority=0x05, entity_id=Unnamed NPC (ID: 17719825/0x010E6211), tag_num=0x02)
 20: 0x007F [0x27] REQ_SET(priority=0x05, entity_id=Unnamed NPC (ID: 17719826/0x010E6212), tag_num=0x02)

SUBROUTINE_0086:
 21: 0x0086 [0x80] LOAD_WAIT(entity=Unnamed NPC (ID: 17719822/0x010E620E))
 22: 0x008B [0x80] LOAD_WAIT(entity=Unnamed NPC (ID: 17719823/0x010E620F))
 23: 0x0090 [0x80] LOAD_WAIT(entity=Unnamed NPC (ID: 17719825/0x010E6211))
 24: 0x0095 [0x80] LOAD_WAIT(entity=Unnamed NPC (ID: 17719826/0x010E6212))
 25: 0x009A [0x1C] WAIT(60* ticks)
 26: 0x009D [0x03] Work_Zone[79] = 0*
 27: 0x00A2 [0x52] END_LOAD_SCHEDULER: End scheduler "s003" with entities [EventEntity, EventEntity], work=337*
 28: 0x00B1 [0x45] LOAD_SCHEDULED_TASK: Load scheduler "s002" with entities [EventEntity, EventEntity], work=[337*, 0*]
 29: 0x00C2 [0x7A] VM_CONTROL: Reset VM for Unnamed NPC (ID: 17719821/0x010E620D)
 30: 0x00C8 [0x7A] VM_CONTROL: Reset VM for Unnamed NPC (ID: 17719822/0x010E620E)
 31: 0x00CE [0x03] Work_Zone[85] = 1*
 32: 0x00D3 [0x03] Work_Zone[84] = 2*
 33: 0x00D8 [0x02] IF !(ExtData[1]->WorkLocal[0] == 0*) GOTO 0x010F
 34: 0x00E0 [0x03] Work_Zone[79] = 1*
 35: 0x00E5 [0x27] REQ_SET(priority=0x05, entity_id=Unnamed NPC (ID: 17719822/0x010E620E), tag_num=0x04)
 36: 0x00EC [0x27] REQ_SET(priority=0x05, entity_id=Unnamed NPC (ID: 17719825/0x010E6211), tag_num=0x03)
 37: 0x00F3 [0x1C] WAIT(270* ticks)
 38: 0x00F6 [0x03] Work_Zone[79] = 0*
 39: 0x00FB [0x27] REQ_SET(priority=0x05, entity_id=Unnamed NPC (ID: 17719823/0x010E620F), tag_num=0x05)
 40: 0x0102 [0x27] REQ_SET(priority=0x05, entity_id=Unnamed NPC (ID: 17719826/0x010E6212), tag_num=0x03)
 41: 0x0109 [0x1C] WAIT(210* ticks)
 42: 0x010C [0x01] GOTO 0x013E
 43: 0x010F [0x03] Work_Zone[79] = 0*
 44: 0x0114 [0x27] REQ_SET(priority=0x05, entity_id=Unnamed NPC (ID: 17719822/0x010E620E), tag_num=0x04)
 45: 0x011B [0x27] REQ_SET(priority=0x05, entity_id=Unnamed NPC (ID: 17719825/0x010E6211), tag_num=0x03)
 46: 0x0122 [0x1C] WAIT(270* ticks)
 47: 0x0125 [0x27] REQ_SET(priority=0x05, entity_id=Unnamed NPC (ID: 17719823/0x010E620F), tag_num=0x05)
 48: 0x012C [0x27] REQ_SET(priority=0x05, entity_id=Unnamed NPC (ID: 17719826/0x010E6212), tag_num=0x03)
 49: 0x0133 [0x1C] WAIT(10* ticks)
 50: 0x0136 [0x03] Work_Zone[79] = 1*
 51: 0x013B [0x1C] WAIT(200* ticks)

SUBROUTINE_013E:
 52: 0x013E [0x27] REQ_SET(priority=0x05, entity_id=Unnamed NPC (ID: 17719819/0x010E620B), tag_num=0x03)
 53: 0x0145 [0x00] END_REQSTACK()
```

### Event 65535.2

#### Metadata

| Field        | Value     |
|--------------|-----------|
| Entrypoint   | 0x0146    |
| Data Size    | 579 bytes |
| Instructions | 82        |

```
      00 01 02 03 04 05 06 07  08 09 0A 0B 0C 0D 0E 0F
      -- -- -- -- -- -- -- --  -- -- -- -- -- -- -- --
0140:                   7A 00  0E 62 0E 01 7A 00 0F 62        z..b..z..b
0150: 0E 01 7A 00 11 62 0E 01  7A 00 12 62 0E 01 03 4F  ..z..b..z..b...O
0160: 10 01 80 13 00 00 04 80  02 00 00 01 80 80 19 02  ................
0170: 02 53 10 01 80 00 82 01  27 05 14 62 0E 01 02 01  .S......'..b....
0180: 89 01 27 05 14 62 0E 01  05 1C 02 80 52 03 80 F8  ..'..b......R...
0190: FF FF 7F F8 FF FF 7F 73  30 30 35 02 53 10 01 80  .......s005.S...
01A0: 00 B7 01 45 03 80 F8 FF  FF 7F F8 FF FF 7F 73 30  ...E..........s0
01B0: 30 34 01 80 01 C8 01 45  03 80 F8 FF FF 7F F8 FF  04.....E........
01C0: FF 7F 73 30 30 38 01 80  03 55 10 00 80 03 54 10  ..s008...U....T.
01D0: 09 80 03 4F 10 00 80 02  53 10 01 80 00 E5 01 1C  ...O....S.......
01E0: 0A 80 01 E8 01 1C 0B 80  03 4F 10 01 80 02 53 10  .........O....S.
01F0: 01 80 00 07 02 55 03 80  F8 FF FF 7F F8 FF FF 7F  .....U..........
0200: 73 30 30 34 01 16 02 55  03 80 F8 FF FF 7F F8 FF  s004...U........
0210: FF 7F 73 30 30 38 01 81  03 02 00 00 00 80 80 D5  ..s008..........
0220: 02 02 53 10 01 80 00 33  02 27 05 14 62 0E 01 03  ..S....3.'..b...
0230: 01 3A 02 27 05 14 62 0E  01 06 1C 02 80 52 03 80  .:.'..b......R..
0240: F8 FF FF 7F F8 FF FF 7F  73 30 30 35 02 53 10 01  ........s005.S..
0250: 80 00 68 02 45 03 80 F8  FF FF 7F F8 FF FF 7F 73  ..h.E..........s
0260: 30 30 34 01 80 01 79 02  45 03 80 F8 FF FF 7F F8  004...y.E.......
0270: FF FF 7F 73 30 30 38 01  80 03 55 10 00 80 03 54  ...s008...U....T
0280: 10 09 80 02 53 10 01 80  00 99 02 1C 02 80 03 4F  ....S..........O
0290: 10 00 80 1C 0C 80 01 A4  02 1C 0D 80 03 4F 10 00  .............O..
02A0: 80 1C 0A 80 03 4F 10 01  80 02 53 10 01 80 00 C3  .....O....S.....
02B0: 02 55 03 80 F8 FF FF 7F  F8 FF FF 7F 73 30 30 34  .U..........s004
02C0: 01 D2 02 55 03 80 F8 FF  FF 7F F8 FF FF 7F 73 30  ...U..........s0
02D0: 30 38 01 81 03 02 00 00  04 80 80 81 03 02 53 10  08............S.
02E0: 01 80 00 EF 02 27 05 14  62 0E 01 04 01 F6 02 27  .....'..b......'
02F0: 05 14 62 0E 01 07 1C 02  80 52 03 80 F8 FF FF 7F  ..b......R......
0300: F8 FF FF 7F 73 30 30 35  03 54 10 09 80 02 53 10  ....s005.T....S.
0310: 01 80 00 29 03 45 03 80  F8 FF FF 7F F8 FF FF 7F  ...).E..........
0320: 73 30 30 34 01 80 01 3A  03 45 03 80 F8 FF FF 7F  s004...:.E......
0330: F8 FF FF 7F 73 30 30 38  01 80 03 55 10 00 80 02  ....s008...U....
0340: 53 10 01 80 00 4D 03 1C  06 80 01 50 03 1C 0E 80  S....M.....P....
0350: 03 4F 10 00 80 02 53 10  01 80 00 6F 03 55 03 80  .O....S....o.U..
0360: F8 FF FF 7F F8 FF FF 7F  73 30 30 34 01 7E 03 55  ........s004.~.U
0370: 03 80 F8 FF FF 7F F8 FF  FF 7F 73 30 30 38 01 81  ..........s008..
0380: 03 27 05 0B 62 0E 01 04  00                       .'..b....       
```

#### Opcodes

```
  0: 0x0146 [0x7A] VM_CONTROL: Reset VM for Unnamed NPC (ID: 17719822/0x010E620E)
  1: 0x014C [0x7A] VM_CONTROL: Reset VM for Unnamed NPC (ID: 17719823/0x010E620F)
  2: 0x0152 [0x7A] VM_CONTROL: Reset VM for Unnamed NPC (ID: 17719825/0x010E6211)
  3: 0x0158 [0x7A] VM_CONTROL: Reset VM for Unnamed NPC (ID: 17719826/0x010E6212)
  4: 0x015E [0x03] Work_Zone[79] = 0*
  5: 0x0163 [0x13] ExtData[1]->WorkLocal[0] = rand() % 2*
  6: 0x0168 [0x02] IF !(ExtData[1]->WorkLocal[0] == 0*) GOTO 0x0219
  7: 0x0170 [0x02] IF !(Work_Zone[83] == 0*) GOTO 0x0182
  8: 0x0178 [0x27] REQ_SET(priority=0x05, entity_id=Unnamed NPC (ID: 17719828/0x010E6214), tag_num=0x02)
  9: 0x017F [0x01] GOTO 0x0189
 10: 0x0182 [0x27] REQ_SET(priority=0x05, entity_id=Unnamed NPC (ID: 17719828/0x010E6214), tag_num=0x05)

SUBROUTINE_0189:
 11: 0x0189 [0x1C] WAIT(60* ticks)
 12: 0x018C [0x52] END_LOAD_SCHEDULER: End scheduler "s005" with entities [EventEntity, EventEntity], work=337*
 13: 0x019B [0x02] IF !(Work_Zone[83] == 0*) GOTO 0x01B7
 14: 0x01A3 [0x45] LOAD_SCHEDULED_TASK: Load scheduler "s004" with entities [EventEntity, EventEntity], work=[337*, 0*]
 15: 0x01B4 [0x01] GOTO 0x01C8
 16: 0x01B7 [0x45] LOAD_SCHEDULED_TASK: Load scheduler "s008" with entities [EventEntity, EventEntity], work=[337*, 0*]

SUBROUTINE_01C8:
 17: 0x01C8 [0x03] Work_Zone[85] = 1*
 18: 0x01CD [0x03] Work_Zone[84] = 4*
 19: 0x01D2 [0x03] Work_Zone[79] = 1*
 20: 0x01D7 [0x02] IF !(Work_Zone[83] == 0*) GOTO 0x01E5
 21: 0x01DF [0x1C] WAIT(120* ticks)
 22: 0x01E2 [0x01] GOTO 0x01E8
 23: 0x01E5 [0x1C] WAIT(90* ticks)

SUBROUTINE_01E8:
 24: 0x01E8 [0x03] Work_Zone[79] = 0*
 25: 0x01ED [0x02] IF !(Work_Zone[83] == 0*) GOTO 0x0207
 26: 0x01F5 [0x55] WAIT_LOAD_SCHEDULER: Wait for scheduler "s004" with entities [EventEntity, EventEntity], work=337*
 27: 0x0204 [0x01] GOTO 0x0216
 28: 0x0207 [0x55] WAIT_LOAD_SCHEDULER: Wait for scheduler "s008" with entities [EventEntity, EventEntity], work=337*

SUBROUTINE_0216:
 29: 0x0216 [0x01] GOTO 0x0381
 30: 0x0219 [0x02] IF !(ExtData[1]->WorkLocal[0] == 1*) GOTO 0x02D5
 31: 0x0221 [0x02] IF !(Work_Zone[83] == 0*) GOTO 0x0233
 32: 0x0229 [0x27] REQ_SET(priority=0x05, entity_id=Unnamed NPC (ID: 17719828/0x010E6214), tag_num=0x03)
 33: 0x0230 [0x01] GOTO 0x023A
 34: 0x0233 [0x27] REQ_SET(priority=0x05, entity_id=Unnamed NPC (ID: 17719828/0x010E6214), tag_num=0x06)

SUBROUTINE_023A:
 35: 0x023A [0x1C] WAIT(60* ticks)
 36: 0x023D [0x52] END_LOAD_SCHEDULER: End scheduler "s005" with entities [EventEntity, EventEntity], work=337*
 37: 0x024C [0x02] IF !(Work_Zone[83] == 0*) GOTO 0x0268
 38: 0x0254 [0x45] LOAD_SCHEDULED_TASK: Load scheduler "s004" with entities [EventEntity, EventEntity], work=[337*, 0*]
 39: 0x0265 [0x01] GOTO 0x0279
 40: 0x0268 [0x45] LOAD_SCHEDULED_TASK: Load scheduler "s008" with entities [EventEntity, EventEntity], work=[337*, 0*]

SUBROUTINE_0279:
 41: 0x0279 [0x03] Work_Zone[85] = 1*
 42: 0x027E [0x03] Work_Zone[84] = 4*
 43: 0x0283 [0x02] IF !(Work_Zone[83] == 0*) GOTO 0x0299
 44: 0x028B [0x1C] WAIT(60* ticks)
 45: 0x028E [0x03] Work_Zone[79] = 1*
 46: 0x0293 [0x1C] WAIT(180* ticks)
 47: 0x0296 [0x01] GOTO 0x02A4
 48: 0x0299 [0x1C] WAIT(30* ticks)
 49: 0x029C [0x03] Work_Zone[79] = 1*
 50: 0x02A1 [0x1C] WAIT(120* ticks)

SUBROUTINE_02A4:
 51: 0x02A4 [0x03] Work_Zone[79] = 0*
 52: 0x02A9 [0x02] IF !(Work_Zone[83] == 0*) GOTO 0x02C3
 53: 0x02B1 [0x55] WAIT_LOAD_SCHEDULER: Wait for scheduler "s004" with entities [EventEntity, EventEntity], work=337*
 54: 0x02C0 [0x01] GOTO 0x02D2
 55: 0x02C3 [0x55] WAIT_LOAD_SCHEDULER: Wait for scheduler "s008" with entities [EventEntity, EventEntity], work=337*

SUBROUTINE_02D2:
 56: 0x02D2 [0x01] GOTO 0x0381
 57: 0x02D5 [0x02] IF !(ExtData[1]->WorkLocal[0] == 2*) GOTO 0x0381
 58: 0x02DD [0x02] IF !(Work_Zone[83] == 0*) GOTO 0x02EF
 59: 0x02E5 [0x27] REQ_SET(priority=0x05, entity_id=Unnamed NPC (ID: 17719828/0x010E6214), tag_num=0x04)
 60: 0x02EC [0x01] GOTO 0x02F6
 61: 0x02EF [0x27] REQ_SET(priority=0x05, entity_id=Unnamed NPC (ID: 17719828/0x010E6214), tag_num=0x07)

SUBROUTINE_02F6:
 62: 0x02F6 [0x1C] WAIT(60* ticks)
 63: 0x02F9 [0x52] END_LOAD_SCHEDULER: End scheduler "s005" with entities [EventEntity, EventEntity], work=337*
 64: 0x0308 [0x03] Work_Zone[84] = 4*
 65: 0x030D [0x02] IF !(Work_Zone[83] == 0*) GOTO 0x0329
 66: 0x0315 [0x45] LOAD_SCHEDULED_TASK: Load scheduler "s004" with entities [EventEntity, EventEntity], work=[337*, 0*]
 67: 0x0326 [0x01] GOTO 0x033A
 68: 0x0329 [0x45] LOAD_SCHEDULED_TASK: Load scheduler "s008" with entities [EventEntity, EventEntity], work=[337*, 0*]

SUBROUTINE_033A:
 69: 0x033A [0x03] Work_Zone[85] = 1*
 70: 0x033F [0x02] IF !(Work_Zone[83] == 0*) GOTO 0x034D
 71: 0x0347 [0x1C] WAIT(210* ticks)
 72: 0x034A [0x01] GOTO 0x0350
 73: 0x034D [0x1C] WAIT(135* ticks)

SUBROUTINE_0350:
 74: 0x0350 [0x03] Work_Zone[79] = 1*
 75: 0x0355 [0x02] IF !(Work_Zone[83] == 0*) GOTO 0x036F
 76: 0x035D [0x55] WAIT_LOAD_SCHEDULER: Wait for scheduler "s004" with entities [EventEntity, EventEntity], work=337*
 77: 0x036C [0x01] GOTO 0x037E
 78: 0x036F [0x55] WAIT_LOAD_SCHEDULER: Wait for scheduler "s008" with entities [EventEntity, EventEntity], work=337*

SUBROUTINE_037E:
 79: 0x037E [0x01] GOTO 0x0381

SUBROUTINE_0381:
 80: 0x0381 [0x27] REQ_SET(priority=0x05, entity_id=Unnamed NPC (ID: 17719819/0x010E620B), tag_num=0x04)
 81: 0x0388 [0x00] END_REQSTACK()
```

### Event 65535.3

#### Metadata

| Field        | Value      |
|--------------|------------|
| Entrypoint   | 0x0389     |
| Data Size    | 1051 bytes |
| Instructions | 161        |

```
      00 01 02 03 04 05 06 07  08 09 0A 0B 0C 0D 0E 0F
      -- -- -- -- -- -- -- --  -- -- -- -- -- -- -- --
0380:                             03 4F 10 01 80 1C 02           .O.....
0390: 80 52 03 80 F8 FF FF 7F  F8 FF FF 7F 73 30 30 36  .R..........s006
03A0: 45 03 80 F8 FF FF 7F F8  FF FF 7F 73 30 30 37 01  E..........s007.
03B0: 80 03 55 10 00 80 03 54  10 0F 80 13 00 00 10 80  ..U....T........
03C0: BA 15 62 0E 01 11 80 12  80 13 80 14 80 BA 16 62  ..b............b
03D0: 0E 01 11 80 12 80 13 80  14 80 BA 18 62 0E 01 15  ............b...
03E0: 80 16 80 13 80 17 80 BA  19 62 0E 01 15 80 16 80  .........b......
03F0: 13 80 17 80 80 15 62 0E  01 80 16 62 0E 01 80 18  ......b....b....
0400: 62 0E 01 80 19 62 0E 01  02 00 00 01 80 80 ED 04  b....b..........
0410: 27 05 15 62 0E 01 03 27  05 16 62 0E 01 04 27 05  '..b...'..b...'.
0420: 18 62 0E 01 04 27 05 19  62 0E 01 03 03 4F 10 00  .b...'..b....O..
0430: 80 2A 05 15 62 0E 01 2A  05 16 62 0E 01 2A 05 18  .*..b..*..b..*..
0440: 62 0E 01 2A 05 19 62 0E  01 03 4F 10 01 80 27 05  b..*..b...O...'.
0450: 15 62 0E 01 04 27 05 16  62 0E 01 03 27 05 18 62  .b...'..b...'..b
0460: 0E 01 04 27 05 19 62 0E  01 03 2A 05 15 62 0E 01  ...'..b...*..b..
0470: 2A 05 16 62 0E 01 2A 05  18 62 0E 01 2A 05 19 62  *..b..*..b..*..b
0480: 0E 01 27 05 15 62 0E 01  03 27 05 16 62 0E 01 04  ..'..b...'..b...
0490: 27 05 18 62 0E 01 03 27  05 19 62 0E 01 04 2A 05  '..b...'..b...*.
04A0: 15 62 0E 01 2A 05 16 62  0E 01 2A 05 18 62 0E 01  .b..*..b..*..b..
04B0: 2A 05 19 62 0E 01 27 05  15 62 0E 01 04 27 05 16  *..b..'..b...'..
04C0: 62 0E 01 03 27 05 18 62  0E 01 04 27 05 19 62 0E  b...'..b...'..b.
04D0: 01 03 2A 05 15 62 0E 01  2A 05 16 62 0E 01 2A 05  ..*..b..*..b..*.
04E0: 18 62 0E 01 2A 05 19 62  0E 01 01 9C 07 02 00 00  .b..*..b........
04F0: 00 80 80 D2 05 27 05 15  62 0E 01 03 27 05 16 62  .....'..b...'..b
0500: 0E 01 04 27 05 18 62 0E  01 03 27 05 19 62 0E 01  ...'..b...'..b..
0510: 04 2A 05 15 62 0E 01 2A  05 16 62 0E 01 2A 05 18  .*..b..*..b..*..
0520: 62 0E 01 2A 05 19 62 0E  01 27 05 15 62 0E 01 04  b..*..b..'..b...
0530: 27 05 16 62 0E 01 03 27  05 18 62 0E 01 03 27 05  '..b...'..b...'.
0540: 19 62 0E 01 04 03 4F 10  00 80 2A 05 15 62 0E 01  .b....O...*..b..
0550: 2A 05 16 62 0E 01 2A 05  18 62 0E 01 2A 05 19 62  *..b..*..b..*..b
0560: 0E 01 03 4F 10 01 80 27  05 15 62 0E 01 03 27 05  ...O...'..b...'.
0570: 16 62 0E 01 04 27 05 18  62 0E 01 03 27 05 19 62  .b...'..b...'..b
0580: 0E 01 04 2A 05 15 62 0E  01 2A 05 16 62 0E 01 2A  ...*..b..*..b..*
0590: 05 18 62 0E 01 2A 05 19  62 0E 01 27 05 15 62 0E  ..b..*..b..'..b.
05A0: 01 04 27 05 16 62 0E 01  03 27 05 18 62 0E 01 04  ..'..b...'..b...
05B0: 27 05 19 62 0E 01 03 2A  05 15 62 0E 01 2A 05 16  '..b...*..b..*..
05C0: 62 0E 01 2A 05 18 62 0E  01 2A 05 19 62 0E 01 01  b..*..b..*..b...
05D0: 9C 07 02 00 00 04 80 80  B7 06 27 05 15 62 0E 01  ..........'..b..
05E0: 03 27 05 16 62 0E 01 04  27 05 18 62 0E 01 03 27  .'..b...'..b...'
05F0: 05 19 62 0E 01 04 2A 05  15 62 0E 01 2A 05 16 62  ..b...*..b..*..b
0600: 0E 01 2A 05 18 62 0E 01  2A 05 19 62 0E 01 27 05  ..*..b..*..b..'.
0610: 15 62 0E 01 04 27 05 16  62 0E 01 03 27 05 18 62  .b...'..b...'..b
0620: 0E 01 04 27 05 19 62 0E  01 03 2A 05 15 62 0E 01  ...'..b...*..b..
0630: 2A 05 16 62 0E 01 2A 05  18 62 0E 01 2A 05 19 62  *..b..*..b..*..b
0640: 0E 01 27 05 15 62 0E 01  03 27 05 16 62 0E 01 04  ..'..b...'..b...
0650: 27 05 18 62 0E 01 04 27  05 19 62 0E 01 03 03 4F  '..b...'..b....O
0660: 10 00 80 2A 05 15 62 0E  01 2A 05 16 62 0E 01 2A  ...*..b..*..b..*
0670: 05 18 62 0E 01 2A 05 19  62 0E 01 03 4F 10 01 80  ..b..*..b...O...
0680: 27 05 15 62 0E 01 04 27  05 16 62 0E 01 03 27 05  '..b...'..b...'.
0690: 18 62 0E 01 04 27 05 19  62 0E 01 03 2A 05 15 62  .b...'..b...*..b
06A0: 0E 01 2A 05 16 62 0E 01  2A 05 18 62 0E 01 2A 05  ..*..b..*..b..*.
06B0: 19 62 0E 01 01 9C 07 02  00 00 10 80 80 9C 07 27  .b.............'
06C0: 05 15 62 0E 01 03 27 05  16 62 0E 01 04 27 05 18  ..b...'..b...'..
06D0: 62 0E 01 03 27 05 19 62  0E 01 04 2A 05 15 62 0E  b...'..b...*..b.
06E0: 01 2A 05 16 62 0E 01 2A  05 18 62 0E 01 2A 05 19  .*..b..*..b..*..
06F0: 62 0E 01 27 05 15 62 0E  01 04 27 05 16 62 0E 01  b..'..b...'..b..
0700: 03 27 05 18 62 0E 01 04  27 05 19 62 0E 01 03 2A  .'..b...'..b...*
0710: 05 15 62 0E 01 2A 05 16  62 0E 01 2A 05 18 62 0E  ..b..*..b..*..b.
0720: 01 2A 05 19 62 0E 01 27  05 15 62 0E 01 03 27 05  .*..b..'..b...'.
0730: 16 62 0E 01 04 27 05 18  62 0E 01 03 27 05 19 62  .b...'..b...'..b
0740: 0E 01 04 2A 05 15 62 0E  01 2A 05 16 62 0E 01 2A  ...*..b..*..b..*
0750: 05 18 62 0E 01 2A 05 19  62 0E 01 27 05 15 62 0E  ..b..*..b..'..b.
0760: 01 04 27 05 16 62 0E 01  03 27 05 18 62 0E 01 03  ..'..b...'..b...
0770: 27 05 19 62 0E 01 04 03  4F 10 00 80 2A 05 15 62  '..b....O...*..b
0780: 0E 01 2A 05 16 62 0E 01  2A 05 18 62 0E 01 2A 05  ..*..b..*..b..*.
0790: 19 62 0E 01 03 4F 10 01  80 01 9C 07 27 05 0B 62  .b...O......'..b
07A0: 0E 01 02 00                                       ....            
```

#### Opcodes

```
  0: 0x0389 [0x03] Work_Zone[79] = 0*
  1: 0x038E [0x1C] WAIT(60* ticks)
  2: 0x0391 [0x52] END_LOAD_SCHEDULER: End scheduler "s006" with entities [EventEntity, EventEntity], work=337*
  3: 0x03A0 [0x45] LOAD_SCHEDULED_TASK: Load scheduler "s007" with entities [EventEntity, EventEntity], work=[337*, 0*]
  4: 0x03B1 [0x03] Work_Zone[85] = 1*
  5: 0x03B6 [0x03] Work_Zone[84] = 6*
  6: 0x03BB [0x13] ExtData[1]->WorkLocal[0] = rand() % 3*
  7: 0x03C0 [0xBA] SET_ENTITY_POSITION(entity_id=Unnamed NPC (ID: 17719829/0x010E6215), pos_x=-141.251*, pos_z=11.261*, pos_y=-8.800*, direction=4.4째*)
  8: 0x03CD [0xBA] SET_ENTITY_POSITION(entity_id=Unnamed NPC (ID: 17719830/0x010E6216), pos_x=-141.251*, pos_z=11.261*, pos_y=-8.800*, direction=4.4째*)
  9: 0x03DA [0xBA] SET_ENTITY_POSITION(entity_id=Unnamed NPC (ID: 17719832/0x010E6218), pos_x=-146.777*, pos_z=11.345*, pos_y=-8.800*, direction=203.0째*)
 10: 0x03E7 [0xBA] SET_ENTITY_POSITION(entity_id=Unnamed NPC (ID: 17719833/0x010E6219), pos_x=-146.777*, pos_z=11.345*, pos_y=-8.800*, direction=203.0째*)
 11: 0x03F4 [0x80] LOAD_WAIT(entity=Unnamed NPC (ID: 17719829/0x010E6215))
 12: 0x03F9 [0x80] LOAD_WAIT(entity=Unnamed NPC (ID: 17719830/0x010E6216))
 13: 0x03FE [0x80] LOAD_WAIT(entity=Unnamed NPC (ID: 17719832/0x010E6218))
 14: 0x0403 [0x80] LOAD_WAIT(entity=Unnamed NPC (ID: 17719833/0x010E6219))
 15: 0x0408 [0x02] IF !(ExtData[1]->WorkLocal[0] == 0*) GOTO 0x04ED
 16: 0x0410 [0x27] REQ_SET(priority=0x05, entity_id=Unnamed NPC (ID: 17719829/0x010E6215), tag_num=0x03)
 17: 0x0417 [0x27] REQ_SET(priority=0x05, entity_id=Unnamed NPC (ID: 17719830/0x010E6216), tag_num=0x04)
 18: 0x041E [0x27] REQ_SET(priority=0x05, entity_id=Unnamed NPC (ID: 17719832/0x010E6218), tag_num=0x04)
 19: 0x0425 [0x27] REQ_SET(priority=0x05, entity_id=Unnamed NPC (ID: 17719833/0x010E6219), tag_num=0x03)
 20: 0x042C [0x03] Work_Zone[79] = 1*
 21: 0x0431 [0x2A] GET_REQ_LEVEL(level=5, entity_id=Unnamed NPC (ID: 17719829/0x010E6215))
 22: 0x0437 [0x2A] GET_REQ_LEVEL(level=5, entity_id=Unnamed NPC (ID: 17719830/0x010E6216))
 23: 0x043D [0x2A] GET_REQ_LEVEL(level=5, entity_id=Unnamed NPC (ID: 17719832/0x010E6218))
 24: 0x0443 [0x2A] GET_REQ_LEVEL(level=5, entity_id=Unnamed NPC (ID: 17719833/0x010E6219))
 25: 0x0449 [0x03] Work_Zone[79] = 0*
 26: 0x044E [0x27] REQ_SET(priority=0x05, entity_id=Unnamed NPC (ID: 17719829/0x010E6215), tag_num=0x04)
 27: 0x0455 [0x27] REQ_SET(priority=0x05, entity_id=Unnamed NPC (ID: 17719830/0x010E6216), tag_num=0x03)
 28: 0x045C [0x27] REQ_SET(priority=0x05, entity_id=Unnamed NPC (ID: 17719832/0x010E6218), tag_num=0x04)
 29: 0x0463 [0x27] REQ_SET(priority=0x05, entity_id=Unnamed NPC (ID: 17719833/0x010E6219), tag_num=0x03)
 30: 0x046A [0x2A] GET_REQ_LEVEL(level=5, entity_id=Unnamed NPC (ID: 17719829/0x010E6215))
 31: 0x0470 [0x2A] GET_REQ_LEVEL(level=5, entity_id=Unnamed NPC (ID: 17719830/0x010E6216))
 32: 0x0476 [0x2A] GET_REQ_LEVEL(level=5, entity_id=Unnamed NPC (ID: 17719832/0x010E6218))
 33: 0x047C [0x2A] GET_REQ_LEVEL(level=5, entity_id=Unnamed NPC (ID: 17719833/0x010E6219))
 34: 0x0482 [0x27] REQ_SET(priority=0x05, entity_id=Unnamed NPC (ID: 17719829/0x010E6215), tag_num=0x03)
 35: 0x0489 [0x27] REQ_SET(priority=0x05, entity_id=Unnamed NPC (ID: 17719830/0x010E6216), tag_num=0x04)
 36: 0x0490 [0x27] REQ_SET(priority=0x05, entity_id=Unnamed NPC (ID: 17719832/0x010E6218), tag_num=0x03)
 37: 0x0497 [0x27] REQ_SET(priority=0x05, entity_id=Unnamed NPC (ID: 17719833/0x010E6219), tag_num=0x04)
 38: 0x049E [0x2A] GET_REQ_LEVEL(level=5, entity_id=Unnamed NPC (ID: 17719829/0x010E6215))
 39: 0x04A4 [0x2A] GET_REQ_LEVEL(level=5, entity_id=Unnamed NPC (ID: 17719830/0x010E6216))
 40: 0x04AA [0x2A] GET_REQ_LEVEL(level=5, entity_id=Unnamed NPC (ID: 17719832/0x010E6218))
 41: 0x04B0 [0x2A] GET_REQ_LEVEL(level=5, entity_id=Unnamed NPC (ID: 17719833/0x010E6219))
 42: 0x04B6 [0x27] REQ_SET(priority=0x05, entity_id=Unnamed NPC (ID: 17719829/0x010E6215), tag_num=0x04)
 43: 0x04BD [0x27] REQ_SET(priority=0x05, entity_id=Unnamed NPC (ID: 17719830/0x010E6216), tag_num=0x03)
 44: 0x04C4 [0x27] REQ_SET(priority=0x05, entity_id=Unnamed NPC (ID: 17719832/0x010E6218), tag_num=0x04)
 45: 0x04CB [0x27] REQ_SET(priority=0x05, entity_id=Unnamed NPC (ID: 17719833/0x010E6219), tag_num=0x03)
 46: 0x04D2 [0x2A] GET_REQ_LEVEL(level=5, entity_id=Unnamed NPC (ID: 17719829/0x010E6215))
 47: 0x04D8 [0x2A] GET_REQ_LEVEL(level=5, entity_id=Unnamed NPC (ID: 17719830/0x010E6216))
 48: 0x04DE [0x2A] GET_REQ_LEVEL(level=5, entity_id=Unnamed NPC (ID: 17719832/0x010E6218))
 49: 0x04E4 [0x2A] GET_REQ_LEVEL(level=5, entity_id=Unnamed NPC (ID: 17719833/0x010E6219))
 50: 0x04EA [0x01] GOTO 0x079C
 51: 0x04ED [0x02] IF !(ExtData[1]->WorkLocal[0] == 1*) GOTO 0x05D2
 52: 0x04F5 [0x27] REQ_SET(priority=0x05, entity_id=Unnamed NPC (ID: 17719829/0x010E6215), tag_num=0x03)
 53: 0x04FC [0x27] REQ_SET(priority=0x05, entity_id=Unnamed NPC (ID: 17719830/0x010E6216), tag_num=0x04)
 54: 0x0503 [0x27] REQ_SET(priority=0x05, entity_id=Unnamed NPC (ID: 17719832/0x010E6218), tag_num=0x03)
 55: 0x050A [0x27] REQ_SET(priority=0x05, entity_id=Unnamed NPC (ID: 17719833/0x010E6219), tag_num=0x04)
 56: 0x0511 [0x2A] GET_REQ_LEVEL(level=5, entity_id=Unnamed NPC (ID: 17719829/0x010E6215))
 57: 0x0517 [0x2A] GET_REQ_LEVEL(level=5, entity_id=Unnamed NPC (ID: 17719830/0x010E6216))
 58: 0x051D [0x2A] GET_REQ_LEVEL(level=5, entity_id=Unnamed NPC (ID: 17719832/0x010E6218))
 59: 0x0523 [0x2A] GET_REQ_LEVEL(level=5, entity_id=Unnamed NPC (ID: 17719833/0x010E6219))
 60: 0x0529 [0x27] REQ_SET(priority=0x05, entity_id=Unnamed NPC (ID: 17719829/0x010E6215), tag_num=0x04)
 61: 0x0530 [0x27] REQ_SET(priority=0x05, entity_id=Unnamed NPC (ID: 17719830/0x010E6216), tag_num=0x03)
 62: 0x0537 [0x27] REQ_SET(priority=0x05, entity_id=Unnamed NPC (ID: 17719832/0x010E6218), tag_num=0x03)
 63: 0x053E [0x27] REQ_SET(priority=0x05, entity_id=Unnamed NPC (ID: 17719833/0x010E6219), tag_num=0x04)
 64: 0x0545 [0x03] Work_Zone[79] = 1*
 65: 0x054A [0x2A] GET_REQ_LEVEL(level=5, entity_id=Unnamed NPC (ID: 17719829/0x010E6215))
 66: 0x0550 [0x2A] GET_REQ_LEVEL(level=5, entity_id=Unnamed NPC (ID: 17719830/0x010E6216))
 67: 0x0556 [0x2A] GET_REQ_LEVEL(level=5, entity_id=Unnamed NPC (ID: 17719832/0x010E6218))
 68: 0x055C [0x2A] GET_REQ_LEVEL(level=5, entity_id=Unnamed NPC (ID: 17719833/0x010E6219))
 69: 0x0562 [0x03] Work_Zone[79] = 0*
 70: 0x0567 [0x27] REQ_SET(priority=0x05, entity_id=Unnamed NPC (ID: 17719829/0x010E6215), tag_num=0x03)
 71: 0x056E [0x27] REQ_SET(priority=0x05, entity_id=Unnamed NPC (ID: 17719830/0x010E6216), tag_num=0x04)
 72: 0x0575 [0x27] REQ_SET(priority=0x05, entity_id=Unnamed NPC (ID: 17719832/0x010E6218), tag_num=0x03)
 73: 0x057C [0x27] REQ_SET(priority=0x05, entity_id=Unnamed NPC (ID: 17719833/0x010E6219), tag_num=0x04)
 74: 0x0583 [0x2A] GET_REQ_LEVEL(level=5, entity_id=Unnamed NPC (ID: 17719829/0x010E6215))
 75: 0x0589 [0x2A] GET_REQ_LEVEL(level=5, entity_id=Unnamed NPC (ID: 17719830/0x010E6216))
 76: 0x058F [0x2A] GET_REQ_LEVEL(level=5, entity_id=Unnamed NPC (ID: 17719832/0x010E6218))
 77: 0x0595 [0x2A] GET_REQ_LEVEL(level=5, entity_id=Unnamed NPC (ID: 17719833/0x010E6219))
 78: 0x059B [0x27] REQ_SET(priority=0x05, entity_id=Unnamed NPC (ID: 17719829/0x010E6215), tag_num=0x04)
 79: 0x05A2 [0x27] REQ_SET(priority=0x05, entity_id=Unnamed NPC (ID: 17719830/0x010E6216), tag_num=0x03)
 80: 0x05A9 [0x27] REQ_SET(priority=0x05, entity_id=Unnamed NPC (ID: 17719832/0x010E6218), tag_num=0x04)
 81: 0x05B0 [0x27] REQ_SET(priority=0x05, entity_id=Unnamed NPC (ID: 17719833/0x010E6219), tag_num=0x03)
 82: 0x05B7 [0x2A] GET_REQ_LEVEL(level=5, entity_id=Unnamed NPC (ID: 17719829/0x010E6215))
 83: 0x05BD [0x2A] GET_REQ_LEVEL(level=5, entity_id=Unnamed NPC (ID: 17719830/0x010E6216))
 84: 0x05C3 [0x2A] GET_REQ_LEVEL(level=5, entity_id=Unnamed NPC (ID: 17719832/0x010E6218))
 85: 0x05C9 [0x2A] GET_REQ_LEVEL(level=5, entity_id=Unnamed NPC (ID: 17719833/0x010E6219))
 86: 0x05CF [0x01] GOTO 0x079C
 87: 0x05D2 [0x02] IF !(ExtData[1]->WorkLocal[0] == 2*) GOTO 0x06B7
 88: 0x05DA [0x27] REQ_SET(priority=0x05, entity_id=Unnamed NPC (ID: 17719829/0x010E6215), tag_num=0x03)
 89: 0x05E1 [0x27] REQ_SET(priority=0x05, entity_id=Unnamed NPC (ID: 17719830/0x010E6216), tag_num=0x04)
 90: 0x05E8 [0x27] REQ_SET(priority=0x05, entity_id=Unnamed NPC (ID: 17719832/0x010E6218), tag_num=0x03)
 91: 0x05EF [0x27] REQ_SET(priority=0x05, entity_id=Unnamed NPC (ID: 17719833/0x010E6219), tag_num=0x04)
 92: 0x05F6 [0x2A] GET_REQ_LEVEL(level=5, entity_id=Unnamed NPC (ID: 17719829/0x010E6215))
 93: 0x05FC [0x2A] GET_REQ_LEVEL(level=5, entity_id=Unnamed NPC (ID: 17719830/0x010E6216))
 94: 0x0602 [0x2A] GET_REQ_LEVEL(level=5, entity_id=Unnamed NPC (ID: 17719832/0x010E6218))
 95: 0x0608 [0x2A] GET_REQ_LEVEL(level=5, entity_id=Unnamed NPC (ID: 17719833/0x010E6219))
 96: 0x060E [0x27] REQ_SET(priority=0x05, entity_id=Unnamed NPC (ID: 17719829/0x010E6215), tag_num=0x04)
 97: 0x0615 [0x27] REQ_SET(priority=0x05, entity_id=Unnamed NPC (ID: 17719830/0x010E6216), tag_num=0x03)
 98: 0x061C [0x27] REQ_SET(priority=0x05, entity_id=Unnamed NPC (ID: 17719832/0x010E6218), tag_num=0x04)
 99: 0x0623 [0x27] REQ_SET(priority=0x05, entity_id=Unnamed NPC (ID: 17719833/0x010E6219), tag_num=0x03)
100: 0x062A [0x2A] GET_REQ_LEVEL(level=5, entity_id=Unnamed NPC (ID: 17719829/0x010E6215))
101: 0x0630 [0x2A] GET_REQ_LEVEL(level=5, entity_id=Unnamed NPC (ID: 17719830/0x010E6216))
102: 0x0636 [0x2A] GET_REQ_LEVEL(level=5, entity_id=Unnamed NPC (ID: 17719832/0x010E6218))
103: 0x063C [0x2A] GET_REQ_LEVEL(level=5, entity_id=Unnamed NPC (ID: 17719833/0x010E6219))
104: 0x0642 [0x27] REQ_SET(priority=0x05, entity_id=Unnamed NPC (ID: 17719829/0x010E6215), tag_num=0x03)
105: 0x0649 [0x27] REQ_SET(priority=0x05, entity_id=Unnamed NPC (ID: 17719830/0x010E6216), tag_num=0x04)
106: 0x0650 [0x27] REQ_SET(priority=0x05, entity_id=Unnamed NPC (ID: 17719832/0x010E6218), tag_num=0x04)
107: 0x0657 [0x27] REQ_SET(priority=0x05, entity_id=Unnamed NPC (ID: 17719833/0x010E6219), tag_num=0x03)
108: 0x065E [0x03] Work_Zone[79] = 1*
109: 0x0663 [0x2A] GET_REQ_LEVEL(level=5, entity_id=Unnamed NPC (ID: 17719829/0x010E6215))
110: 0x0669 [0x2A] GET_REQ_LEVEL(level=5, entity_id=Unnamed NPC (ID: 17719830/0x010E6216))
111: 0x066F [0x2A] GET_REQ_LEVEL(level=5, entity_id=Unnamed NPC (ID: 17719832/0x010E6218))
112: 0x0675 [0x2A] GET_REQ_LEVEL(level=5, entity_id=Unnamed NPC (ID: 17719833/0x010E6219))
113: 0x067B [0x03] Work_Zone[79] = 0*
114: 0x0680 [0x27] REQ_SET(priority=0x05, entity_id=Unnamed NPC (ID: 17719829/0x010E6215), tag_num=0x04)
115: 0x0687 [0x27] REQ_SET(priority=0x05, entity_id=Unnamed NPC (ID: 17719830/0x010E6216), tag_num=0x03)
116: 0x068E [0x27] REQ_SET(priority=0x05, entity_id=Unnamed NPC (ID: 17719832/0x010E6218), tag_num=0x04)
117: 0x0695 [0x27] REQ_SET(priority=0x05, entity_id=Unnamed NPC (ID: 17719833/0x010E6219), tag_num=0x03)
118: 0x069C [0x2A] GET_REQ_LEVEL(level=5, entity_id=Unnamed NPC (ID: 17719829/0x010E6215))
119: 0x06A2 [0x2A] GET_REQ_LEVEL(level=5, entity_id=Unnamed NPC (ID: 17719830/0x010E6216))
120: 0x06A8 [0x2A] GET_REQ_LEVEL(level=5, entity_id=Unnamed NPC (ID: 17719832/0x010E6218))
121: 0x06AE [0x2A] GET_REQ_LEVEL(level=5, entity_id=Unnamed NPC (ID: 17719833/0x010E6219))
122: 0x06B4 [0x01] GOTO 0x079C
123: 0x06B7 [0x02] IF !(ExtData[1]->WorkLocal[0] == 3*) GOTO 0x079C
124: 0x06BF [0x27] REQ_SET(priority=0x05, entity_id=Unnamed NPC (ID: 17719829/0x010E6215), tag_num=0x03)
125: 0x06C6 [0x27] REQ_SET(priority=0x05, entity_id=Unnamed NPC (ID: 17719830/0x010E6216), tag_num=0x04)
126: 0x06CD [0x27] REQ_SET(priority=0x05, entity_id=Unnamed NPC (ID: 17719832/0x010E6218), tag_num=0x03)
127: 0x06D4 [0x27] REQ_SET(priority=0x05, entity_id=Unnamed NPC (ID: 17719833/0x010E6219), tag_num=0x04)
128: 0x06DB [0x2A] GET_REQ_LEVEL(level=5, entity_id=Unnamed NPC (ID: 17719829/0x010E6215))
129: 0x06E1 [0x2A] GET_REQ_LEVEL(level=5, entity_id=Unnamed NPC (ID: 17719830/0x010E6216))
130: 0x06E7 [0x2A] GET_REQ_LEVEL(level=5, entity_id=Unnamed NPC (ID: 17719832/0x010E6218))
131: 0x06ED [0x2A] GET_REQ_LEVEL(level=5, entity_id=Unnamed NPC (ID: 17719833/0x010E6219))
132: 0x06F3 [0x27] REQ_SET(priority=0x05, entity_id=Unnamed NPC (ID: 17719829/0x010E6215), tag_num=0x04)
133: 0x06FA [0x27] REQ_SET(priority=0x05, entity_id=Unnamed NPC (ID: 17719830/0x010E6216), tag_num=0x03)
134: 0x0701 [0x27] REQ_SET(priority=0x05, entity_id=Unnamed NPC (ID: 17719832/0x010E6218), tag_num=0x04)
135: 0x0708 [0x27] REQ_SET(priority=0x05, entity_id=Unnamed NPC (ID: 17719833/0x010E6219), tag_num=0x03)
136: 0x070F [0x2A] GET_REQ_LEVEL(level=5, entity_id=Unnamed NPC (ID: 17719829/0x010E6215))
137: 0x0715 [0x2A] GET_REQ_LEVEL(level=5, entity_id=Unnamed NPC (ID: 17719830/0x010E6216))
138: 0x071B [0x2A] GET_REQ_LEVEL(level=5, entity_id=Unnamed NPC (ID: 17719832/0x010E6218))
139: 0x0721 [0x2A] GET_REQ_LEVEL(level=5, entity_id=Unnamed NPC (ID: 17719833/0x010E6219))
140: 0x0727 [0x27] REQ_SET(priority=0x05, entity_id=Unnamed NPC (ID: 17719829/0x010E6215), tag_num=0x03)
141: 0x072E [0x27] REQ_SET(priority=0x05, entity_id=Unnamed NPC (ID: 17719830/0x010E6216), tag_num=0x04)
142: 0x0735 [0x27] REQ_SET(priority=0x05, entity_id=Unnamed NPC (ID: 17719832/0x010E6218), tag_num=0x03)
143: 0x073C [0x27] REQ_SET(priority=0x05, entity_id=Unnamed NPC (ID: 17719833/0x010E6219), tag_num=0x04)
144: 0x0743 [0x2A] GET_REQ_LEVEL(level=5, entity_id=Unnamed NPC (ID: 17719829/0x010E6215))
145: 0x0749 [0x2A] GET_REQ_LEVEL(level=5, entity_id=Unnamed NPC (ID: 17719830/0x010E6216))
146: 0x074F [0x2A] GET_REQ_LEVEL(level=5, entity_id=Unnamed NPC (ID: 17719832/0x010E6218))
147: 0x0755 [0x2A] GET_REQ_LEVEL(level=5, entity_id=Unnamed NPC (ID: 17719833/0x010E6219))
148: 0x075B [0x27] REQ_SET(priority=0x05, entity_id=Unnamed NPC (ID: 17719829/0x010E6215), tag_num=0x04)
149: 0x0762 [0x27] REQ_SET(priority=0x05, entity_id=Unnamed NPC (ID: 17719830/0x010E6216), tag_num=0x03)
150: 0x0769 [0x27] REQ_SET(priority=0x05, entity_id=Unnamed NPC (ID: 17719832/0x010E6218), tag_num=0x03)
151: 0x0770 [0x27] REQ_SET(priority=0x05, entity_id=Unnamed NPC (ID: 17719833/0x010E6219), tag_num=0x04)
152: 0x0777 [0x03] Work_Zone[79] = 1*
153: 0x077C [0x2A] GET_REQ_LEVEL(level=5, entity_id=Unnamed NPC (ID: 17719829/0x010E6215))
154: 0x0782 [0x2A] GET_REQ_LEVEL(level=5, entity_id=Unnamed NPC (ID: 17719830/0x010E6216))
155: 0x0788 [0x2A] GET_REQ_LEVEL(level=5, entity_id=Unnamed NPC (ID: 17719832/0x010E6218))
156: 0x078E [0x2A] GET_REQ_LEVEL(level=5, entity_id=Unnamed NPC (ID: 17719833/0x010E6219))
157: 0x0794 [0x03] Work_Zone[79] = 0*
158: 0x0799 [0x01] GOTO 0x079C

SUBROUTINE_079C:
159: 0x079C [0x27] REQ_SET(priority=0x05, entity_id=Unnamed NPC (ID: 17719819/0x010E620B), tag_num=0x02)
160: 0x07A3 [0x00] END_REQSTACK()
```
