# 17719327 - Amaura

## Common Data

| Field            | Value                         |
|------------------|-------------------------------|
| Zone             | Southern San d'Oria (ID: 230) |
| Block Size       | 1124 bytes                    |
| Total Events     | 23                            |
| References Count | 43                            |

## List of Events

| Event ID                 | Entrypoint   |   Size |   Instructions |
|--------------------------|--------------|--------|----------------|
| [65535](#event-65535)    | 0x0000       |      1 |              1 |
| [642](#event-642)        | 0x0001       |     39 |              8 |
| [636](#event-636)        | 0x0028       |    213 |             39 |
| [637](#event-637)        | 0x00FD       |    112 |             20 |
| [645](#event-645)        | 0x016D       |    105 |             23 |
| [646](#event-646)        | 0x01D6       |    151 |             27 |
| [935](#event-935)        | 0x026D       |      1 |              1 |
| [937](#event-937)        | 0x026E       |      1 |              1 |
| [939](#event-939)        | 0x026F       |      1 |              1 |
| [941](#event-941)        | 0x0270       |      1 |              1 |
| [936](#event-936)        | 0x0271       |      1 |              1 |
| [938](#event-938)        | 0x0272       |      1 |              1 |
| [940](#event-940)        | 0x0273       |      1 |              1 |
| [942](#event-942)        | 0x0274       |      1 |              1 |
| [955](#event-955)        | 0x0275       |      1 |              1 |
| [958](#event-958)        | 0x0276       |      1 |              1 |
| [959](#event-959)        | 0x0277       |      1 |              1 |
| [65535.1](#event-655351) | 0x0278       |     14 |              4 |
| [65535.2](#event-655352) | 0x0286       |     37 |              8 |
| [65535.3](#event-655353) | 0x02AB       |     32 |              7 |
| [65535.4](#event-655354) | 0x02CB       |     37 |              8 |
| [65535.5](#event-655355) | 0x02F0       |     48 |             11 |
| [956](#event-956)        | 0x0320       |     43 |             10 |

## DAT References (imed_data)

|   Index | Hex Value   |   Dec Value |
|---------|-------------|-------------|
|       0 | 0x0023      |          35 |
|       1 | 0x1FDF      |        8159 |
|       2 | 0x001E      |          30 |
|       3 | 0x1F71      |        8049 |
|       4 | 0x1F72      |        8050 |
|       5 | 0x1F73      |        8051 |
|       6 | 0x0000      |           0 |
|       7 | 0x1F75      |        8053 |
|       8 | 0x003C      |          60 |
|       9 | 0x1F76      |        8054 |
|      10 | 0x0001      |           1 |
|      11 | 0x1F74      |        8052 |
|      12 | 0x40000000  |  1073741824 |
|      13 | 0x1F77      |        8055 |
|      14 | 0x00C8      |         200 |
|      15 | 0x1F78      |        8056 |
|      16 | 0x1F23      |        7971 |
|      17 | 0x0099      |         153 |
|      18 | 0x1F24      |        7972 |
|      19 | 0x1F25      |        7973 |
|      20 | 0x1F26      |        7974 |
|      21 | 0x009A      |         154 |
|      22 | 0x1F2B      |        7979 |
|      23 | 0x0DCF      |        3535 |
|      24 | 0x0078      |         120 |
|      25 | 0x1F2C      |        7980 |
|      26 | 0x0008      |           8 |
|      27 | 0xFFFEAF20  |  4294881056 |
|      28 | 0x15C1A     |       89114 |
|      29 | 0xFFFFE4DB  |  4294960347 |
|      30 | 0x000B      |          11 |
|      31 | 0xFFFEB025  |  4294881317 |
|      32 | 0x15E43     |       89667 |
|      33 | 0x060E      |        1550 |
|      34 | 0xFFFEAD5D  |  4294880605 |
|      35 | 0x15B5F     |       88927 |
|      36 | 0x06A4      |        1700 |
|      37 | 0xFFFEB671  |  4294882929 |
|      38 | 0x1640C     |       91148 |
|      39 | 0xFFFEAF6C  |  4294881132 |
|      40 | 0x16753     |       91987 |
|      41 | 0x3ACA      |       15050 |
|      42 | 0x3AC9      |       15049 |

## String References

- **7971**: Eh? Moss to cure coughs?
- **7972**: Why, that sounds like $3. A brew of that bitter moss clears up the whoopingest of coughs. I've used it meself!
- **7973**: If ye need somethin' for coughs, bring me that $3, and I'll make ye a brew for free.
- **7974**: Where does $3 grow, ye ask? Well, my mother used to tell me it grew near an abbey, but I don't recall where that was.
- **7979**: Oooh! This is it! This is the moss! I'll make a fine $3 with this. Wait a moment, dearie.
- **7980**: Here ye are, a fine $3! I hope it'll be of some use.
- **8049**: What's that? Need something for a cold, eh?
- **8050**: I can make medicines if need be, but ye'll have to fetch me the ingredients.
- **8051**: Fetch the ingredients? [Of course./No way.]
- **8052**: What's that? And here I was, looking forward to make medicine for ye. Well, if ye change yer mind, let me know.
- **8053**: Very well, very well. I've written a list of what I'll be needing, so take it with ye.
- **8054**: Come back when ye've got it all. I'll make a draught to cure the wickedest of colds, I will.
- **8055**: Ye've brought what I asked for? Very well. Wait ye here a second while I brew the medicine.
- **8056**: Here, yer medicine is done! Give this to one who's ailing and he'll be dancing in the streets a day later, guaranteed! Hee hee.
- **8159**: I'm busy brewing a powerful potion, dearie. Got to tend the flame; no time for chatting.
- **15049**: I've been told there's a physician in Jeuno, a learned young man. Might be he can assist ye.
- **15050**: Back in the day, a simple brew to relieve the pain was all I had to offer. But medicine is a livin', ever-evolvin' science. Mayhap the years've seen the discovery of a cure.

## Events

### Event 65535

#### Metadata

| Field        | Value   |
|--------------|---------|
| Entrypoint   | 0x0000  |
| Data Size    | 1 bytes |
| Instructions | 1       |

```
      00 01 02 03 04 05 06 07  08 09 0A 0B 0C 0D 0E 0F
      -- -- -- -- -- -- -- --  -- -- -- -- -- -- -- --
0000: 00                                                .               
```

#### Opcodes

```
  0: 0x0000 [0x00] END_REQSTACK()
```

### Event 642

#### Metadata

| Field        | Value    |
|--------------|----------|
| Entrypoint   | 0x0001   |
| Data Size    | 39 bytes |
| Instructions | 8        |

```
      00 01 02 03 04 05 06 07  08 09 0A 0B 0C 0D 0E 0F
      -- -- -- -- -- -- -- --  -- -- -- -- -- -- -- --
0000:    79 00 1F 60 0E 01 F0  FF FF 7F 5B 00 80 F8 FF   y..`......[....
0010: FF 7F F8 FF FF 7F 74 6C  6B 30 1D 01 80 23 7B 1F  ......tlk0...#{.
0020: 60 0E 01 1C 02 80 21 00                           `.....!.        
```

#### Opcodes

```
  0: 0x0001 [0x79] Amaura (ID: 17719327/0x010E601F) looks at LocalPlayer (Basic look)
  1: 0x000B [0x5B] LOAD_EXT_SCHEDULER: Load scheduler "tlk0" with entities [EventEntity, EventEntity], work=35*
  2: 0x001A [0x1D] PRINT_EVENT_MESSAGE(message_id=8159*)
    → "I'm busy brewing a powerful potion, dearie. Got to tend the flame; no time for chatting."
  3: 0x001D [0x23] WAIT_FOR_DIALOG_INTERACTION
  4: 0x001E [0x7B] Amaura (ID: 17719327/0x010E601F) stops talking
  5: 0x0023 [0x1C] WAIT(30* ticks)
  6: 0x0026 [0x21] END_EVENT
  7: 0x0027 [0x00] END_REQSTACK()
```

### Event 636

#### Metadata

| Field        | Value     |
|--------------|-----------|
| Entrypoint   | 0x0028    |
| Data Size    | 213 bytes |
| Instructions | 39        |

```
      00 01 02 03 04 05 06 07  08 09 0A 0B 0C 0D 0E 0F
      -- -- -- -- -- -- -- --  -- -- -- -- -- -- -- --
0020:                          1E F0 FF FF 7F 6F 70 5B          .....op[
0030: 00 80 F8 FF FF 7F F8 FF  FF 7F 74 68 6B 31 1D 03  ..........thk1..
0040: 80 23 5B 00 80 F8 FF FF  7F F8 FF FF 7F 74 68 6B  .#[..........thk
0050: 32 53 F8 FF FF 7F F8 FF  FF 7F 74 68 6B 32 1C 02  2S........thk2..
0060: 80 5B 00 80 F8 FF FF 7F  F8 FF FF 7F 74 6C 6B 30  .[..........tlk0
0070: 1D 04 80 23 5E 69 64 6C  30 24 05 80 06 80 06 80  ...#^idl0$......
0080: 25 02 00 10 06 80 00 D0  00 42 5B 00 80 F8 FF FF  %........B[.....
0090: 7F F8 FF FF 7F 70 61 73  30 1D 07 80 23 53 F8 FF  .....pas0...#S..
00A0: FF 7F F8 FF FF 7F 70 61  73 30 1C 08 80 5B 00 80  ......pas0...[..
00B0: F8 FF FF 7F F8 FF FF 7F  74 6C 6B 30 1D 09 80 23  ........tlk0...#
00C0: 5E 69 64 6C 30 1C 02 80  03 01 10 06 80 01 FB 00  ^idl0...........
00D0: 02 00 10 0A 80 00 FB 00  5B 00 80 F8 FF FF 7F F8  ........[.......
00E0: FF FF 7F 74 6C 6B 30 1D  0B 80 23 5E 69 64 6C 30  ...tlk0...#^idl0
00F0: 1C 02 80 03 01 10 0C 80  01 FB 00 21 00           ...........!.   
```

#### Opcodes

```
  0: 0x0028 [0x1E] EventEntity looks at LocalPlayer and starts talking
  1: 0x002D [0x6F] WAIT_FRAME_DELAY: Yield until WaitTime reaches zero
  2: 0x002E [0x70] WAIT_ENTITY_RENDER_FLAG: Wait while EventEntity->Render.Flags3 bit 2 is set (cancel turn if not)
  3: 0x002F [0x5B] LOAD_EXT_SCHEDULER: Load scheduler "thk1" with entities [EventEntity, EventEntity], work=35*
  4: 0x003E [0x1D] PRINT_EVENT_MESSAGE(message_id=8049*)
    → "What's that? Need something for a cold, eh?"
  5: 0x0041 [0x23] WAIT_FOR_DIALOG_INTERACTION
  6: 0x0042 [0x5B] LOAD_EXT_SCHEDULER: Load scheduler "thk2" with entities [EventEntity, EventEntity], work=35*
  7: 0x0051 [0x53] WAIT_SCHEDULER_TASK: Wait for scheduler "thk2" with entities [EventEntity, EventEntity]
  8: 0x005E [0x1C] WAIT(30* ticks)
  9: 0x0061 [0x5B] LOAD_EXT_SCHEDULER: Load scheduler "tlk0" with entities [EventEntity, EventEntity], work=35*
 10: 0x0070 [0x1D] PRINT_EVENT_MESSAGE(message_id=8050*)
    → "I can make medicines if need be, but ye'll have to fetch me the ingredients."
 11: 0x0073 [0x23] WAIT_FOR_DIALOG_INTERACTION
 12: 0x0074 [0x5E] EventEntity goes idle (kills current action) (animation: "idl0")
 13: 0x0079 [0x24] CREATE_DIALOG(message_id=8051*, default_option=0*, option_flags=0*)
    → "Fetch the ingredients? [Of course./No way.]"
 14: 0x0080 [0x25] WAIT_DIALOG_SELECT()
 15: 0x0081 [0x02] IF !(Work_Zone[0] == 0*) GOTO 0x00D0
 16: 0x0089 [0x42] SET_CLI_EVENT_CANCEL_DATA()
 17: 0x008A [0x5B] LOAD_EXT_SCHEDULER: Load scheduler "pas0" with entities [EventEntity, EventEntity], work=35*
 18: 0x0099 [0x1D] PRINT_EVENT_MESSAGE(message_id=8053*)
    → "Very well, very well. I've written a list of what I'll be needing, so take it with ye."
 19: 0x009C [0x23] WAIT_FOR_DIALOG_INTERACTION
 20: 0x009D [0x53] WAIT_SCHEDULER_TASK: Wait for scheduler "pas0" with entities [EventEntity, EventEntity]
 21: 0x00AA [0x1C] WAIT(60* ticks)
 22: 0x00AD [0x5B] LOAD_EXT_SCHEDULER: Load scheduler "tlk0" with entities [EventEntity, EventEntity], work=35*
 23: 0x00BC [0x1D] PRINT_EVENT_MESSAGE(message_id=8054*)
    → "Come back when ye've got it all. I'll make a draught to cure the wickedest of colds, I will."
 24: 0x00BF [0x23] WAIT_FOR_DIALOG_INTERACTION
 25: 0x00C0 [0x5E] EventEntity goes idle (kills current action) (animation: "idl0")
 26: 0x00C5 [0x1C] WAIT(30* ticks)
 27: 0x00C8 [0x03] Work_Zone[1] = 0*
 28: 0x00CD [0x01] GOTO 0x00FB
 29: 0x00D0 [0x02] IF !(Work_Zone[0] == 1*) GOTO 0x00FB
 30: 0x00D8 [0x5B] LOAD_EXT_SCHEDULER: Load scheduler "tlk0" with entities [EventEntity, EventEntity], work=35*
 31: 0x00E7 [0x1D] PRINT_EVENT_MESSAGE(message_id=8052*)
    → "What's that? And here I was, looking forward to make medicine for ye. Well, if ye change yer mind, let me know."
 32: 0x00EA [0x23] WAIT_FOR_DIALOG_INTERACTION
 33: 0x00EB [0x5E] EventEntity goes idle (kills current action) (animation: "idl0")
 34: 0x00F0 [0x1C] WAIT(30* ticks)
 35: 0x00F3 [0x03] Work_Zone[1] = 1073741824*
 36: 0x00F8 [0x01] GOTO 0x00FB

SUBROUTINE_00FB:
 37: 0x00FB [0x21] END_EVENT
 38: 0x00FC [0x00] END_REQSTACK()
```

### Event 637

#### Metadata

| Field        | Value     |
|--------------|-----------|
| Entrypoint   | 0x00FD    |
| Data Size    | 112 bytes |
| Instructions | 20        |

```
      00 01 02 03 04 05 06 07  08 09 0A 0B 0C 0D 0E 0F
      -- -- -- -- -- -- -- --  -- -- -- -- -- -- -- --
00F0:                                         42 20 01               B .
0100: 1E F0 FF FF 7F 6F 70 5B  00 80 F8 FF FF 7F F8 FF  .....op[........
0110: FF 7F 74 6C 6B 30 1D 0D  80 23 45 0E 80 F0 FF FF  ..tlk0...#E.....
0120: 7F F0 FF FF 7F 66 64 6F  31 06 80 55 0E 80 F0 FF  .....fdo1..U....
0130: FF 7F F0 FF FF 7F 66 64  6F 31 1C 08 80 45 0E 80  ......fdo1...E..
0140: F0 FF FF 7F F0 FF FF 7F  66 64 69 31 06 80 55 0E  ........fdi1..U.
0150: 80 F0 FF FF 7F F0 FF FF  7F 66 64 69 31 1D 0F 80  .........fdi1...
0160: 23 5E 69 64 6C 30 1C 02  80 20 00 21 00           #^idl0... .!.   
```

#### Opcodes

```
  0: 0x00FD [0x42] SET_CLI_EVENT_CANCEL_DATA()
  1: 0x00FE [0x20] SET_CLI_EVENT_UC_FLAG: Lock player control
  2: 0x0100 [0x1E] EventEntity looks at LocalPlayer and starts talking
  3: 0x0105 [0x6F] WAIT_FRAME_DELAY: Yield until WaitTime reaches zero
  4: 0x0106 [0x70] WAIT_ENTITY_RENDER_FLAG: Wait while EventEntity->Render.Flags3 bit 2 is set (cancel turn if not)
  5: 0x0107 [0x5B] LOAD_EXT_SCHEDULER: Load scheduler "tlk0" with entities [EventEntity, EventEntity], work=35*
  6: 0x0116 [0x1D] PRINT_EVENT_MESSAGE(message_id=8055*)
    → "Ye've brought what I asked for? Very well. Wait ye here a second while I brew the medicine."
  7: 0x0119 [0x23] WAIT_FOR_DIALOG_INTERACTION
  8: 0x011A [0x45] LOAD_SCHEDULED_TASK: Load scheduler "fdo1" with entities [LocalPlayer, LocalPlayer], work=[200*, 0*]
  9: 0x012B [0x55] WAIT_LOAD_SCHEDULER: Wait for scheduler "fdo1" with entities [LocalPlayer, LocalPlayer], work=200*
 10: 0x013A [0x1C] WAIT(60* ticks)
 11: 0x013D [0x45] LOAD_SCHEDULED_TASK: Load scheduler "fdi1" with entities [LocalPlayer, LocalPlayer], work=[200*, 0*]
 12: 0x014E [0x55] WAIT_LOAD_SCHEDULER: Wait for scheduler "fdi1" with entities [LocalPlayer, LocalPlayer], work=200*
 13: 0x015D [0x1D] PRINT_EVENT_MESSAGE(message_id=8056*)
    → "Here, yer medicine is done! Give this to one who's ailing and he'll be dancing in the streets a day later, guaranteed! Hee hee."
 14: 0x0160 [0x23] WAIT_FOR_DIALOG_INTERACTION
 15: 0x0161 [0x5E] EventEntity goes idle (kills current action) (animation: "idl0")
 16: 0x0166 [0x1C] WAIT(30* ticks)
 17: 0x0169 [0x20] SET_CLI_EVENT_UC_FLAG: Unlock player control
 18: 0x016B [0x21] END_EVENT
 19: 0x016C [0x00] END_REQSTACK()
```

### Event 645

#### Metadata

| Field        | Value     |
|--------------|-----------|
| Entrypoint   | 0x016D    |
| Data Size    | 105 bytes |
| Instructions | 23        |

```
      00 01 02 03 04 05 06 07  08 09 0A 0B 0C 0D 0E 0F
      -- -- -- -- -- -- -- --  -- -- -- -- -- -- -- --
0160:                                         1E F0 FF               ...
0170: FF 7F 6F 70 5B 00 80 F8  FF FF 7F F8 FF FF 7F 74  ..op[..........t
0180: 68 6B 31 1D 10 80 23 5B  00 80 F8 FF FF 7F F8 FF  hk1...#[........
0190: FF 7F 74 68 6B 32 53 F8  FF FF 7F F8 FF FF 7F 74  ..thk2S........t
01A0: 68 6B 32 1C 08 80 5B 00  80 F8 FF FF 7F F8 FF FF  hk2...[.........
01B0: 7F 74 6C 6B 30 03 02 10  11 80 1D 12 80 23 1C 08  .tlk0........#..
01C0: 80 1D 13 80 23 1C 08 80  1D 14 80 23 5E 69 64 6C  ....#......#^idl
01D0: 30 1C 08 80 21 00                                 0...!.          
```

#### Opcodes

```
  0: 0x016D [0x1E] EventEntity looks at LocalPlayer and starts talking
  1: 0x0172 [0x6F] WAIT_FRAME_DELAY: Yield until WaitTime reaches zero
  2: 0x0173 [0x70] WAIT_ENTITY_RENDER_FLAG: Wait while EventEntity->Render.Flags3 bit 2 is set (cancel turn if not)
  3: 0x0174 [0x5B] LOAD_EXT_SCHEDULER: Load scheduler "thk1" with entities [EventEntity, EventEntity], work=35*
  4: 0x0183 [0x1D] PRINT_EVENT_MESSAGE(message_id=7971*)
    → "Eh? Moss to cure coughs?"
  5: 0x0186 [0x23] WAIT_FOR_DIALOG_INTERACTION
  6: 0x0187 [0x5B] LOAD_EXT_SCHEDULER: Load scheduler "thk2" with entities [EventEntity, EventEntity], work=35*
  7: 0x0196 [0x53] WAIT_SCHEDULER_TASK: Wait for scheduler "thk2" with entities [EventEntity, EventEntity]
  8: 0x01A3 [0x1C] WAIT(60* ticks)
  9: 0x01A6 [0x5B] LOAD_EXT_SCHEDULER: Load scheduler "tlk0" with entities [EventEntity, EventEntity], work=35*
 10: 0x01B5 [0x03] Work_Zone[2] = 153*
 11: 0x01BA [0x1D] PRINT_EVENT_MESSAGE(message_id=7972*)
    → "Why, that sounds like $3. A brew of that bitter moss clears up the whoopingest of coughs. I've used it meself!"
 12: 0x01BD [0x23] WAIT_FOR_DIALOG_INTERACTION
 13: 0x01BE [0x1C] WAIT(60* ticks)
 14: 0x01C1 [0x1D] PRINT_EVENT_MESSAGE(message_id=7973*)
    → "If ye need somethin' for coughs, bring me that $3, and I'll make ye a brew for free."
 15: 0x01C4 [0x23] WAIT_FOR_DIALOG_INTERACTION
 16: 0x01C5 [0x1C] WAIT(60* ticks)
 17: 0x01C8 [0x1D] PRINT_EVENT_MESSAGE(message_id=7974*)
    → "Where does $3 grow, ye ask? Well, my mother used to tell me it grew near an abbey, but I don't recall where that was."
 18: 0x01CB [0x23] WAIT_FOR_DIALOG_INTERACTION
 19: 0x01CC [0x5E] EventEntity goes idle (kills current action) (animation: "idl0")
 20: 0x01D1 [0x1C] WAIT(60* ticks)
 21: 0x01D4 [0x21] END_EVENT
 22: 0x01D5 [0x00] END_REQSTACK()
```

### Event 646

#### Metadata

| Field        | Value     |
|--------------|-----------|
| Entrypoint   | 0x01D6    |
| Data Size    | 151 bytes |
| Instructions | 27        |

```
      00 01 02 03 04 05 06 07  08 09 0A 0B 0C 0D 0E 0F
      -- -- -- -- -- -- -- --  -- -- -- -- -- -- -- --
01D0:                   42 1E  F0 FF FF 7F 6F 70 5B 00        B.....op[.
01E0: 80 F8 FF FF 7F F8 FF FF  7F 74 6C 6B 30 03 02 10  .........tlk0...
01F0: 15 80 1D 16 80 23 5E 69  64 6C 30 1C 02 80 39 17  .....#^idl0...9.
0200: 80 45 0E 80 F0 FF FF 7F  F0 FF FF 7F 66 64 6F 30  .E..........fdo0
0210: 06 80 55 0E 80 F0 FF FF  7F F0 FF FF 7F 66 64 6F  ..U..........fdo
0220: 30 1C 18 80 45 0E 80 F0  FF FF 7F F0 FF FF 7F 66  0...E..........f
0230: 64 69 30 06 80 55 0E 80  F0 FF FF 7F F0 FF FF 7F  di0..U..........
0240: 66 64 69 30 1E F0 FF FF  7F 6F 70 5B 00 80 F8 FF  fdi0.....op[....
0250: FF 7F F8 FF FF 7F 74 6C  6B 30 03 02 10 15 80 1D  ......tlk0......
0260: 19 80 23 5E 69 64 6C 30  1C 02 80 21 00           ..#^idl0...!.   
```

#### Opcodes

```
  0: 0x01D6 [0x42] SET_CLI_EVENT_CANCEL_DATA()
  1: 0x01D7 [0x1E] EventEntity looks at LocalPlayer and starts talking
  2: 0x01DC [0x6F] WAIT_FRAME_DELAY: Yield until WaitTime reaches zero
  3: 0x01DD [0x70] WAIT_ENTITY_RENDER_FLAG: Wait while EventEntity->Render.Flags3 bit 2 is set (cancel turn if not)
  4: 0x01DE [0x5B] LOAD_EXT_SCHEDULER: Load scheduler "tlk0" with entities [EventEntity, EventEntity], work=35*
  5: 0x01ED [0x03] Work_Zone[2] = 154*
  6: 0x01F2 [0x1D] PRINT_EVENT_MESSAGE(message_id=7979*)
    → "Oooh! This is it! This is the moss! I'll make a fine $3 with this. Wait a moment, dearie."
  7: 0x01F5 [0x23] WAIT_FOR_DIALOG_INTERACTION
  8: 0x01F6 [0x5E] EventEntity goes idle (kills current action) (animation: "idl0")
  9: 0x01FB [0x1C] WAIT(30* ticks)
 10: 0x01FE [0x39] SET_ENTITY_DIRECTION(direction=19.4°*)
 11: 0x0201 [0x45] LOAD_SCHEDULED_TASK: Load scheduler "fdo0" with entities [LocalPlayer, LocalPlayer], work=[200*, 0*]
 12: 0x0212 [0x55] WAIT_LOAD_SCHEDULER: Wait for scheduler "fdo0" with entities [LocalPlayer, LocalPlayer], work=200*
 13: 0x0221 [0x1C] WAIT(120* ticks)
 14: 0x0224 [0x45] LOAD_SCHEDULED_TASK: Load scheduler "fdi0" with entities [LocalPlayer, LocalPlayer], work=[200*, 0*]
 15: 0x0235 [0x55] WAIT_LOAD_SCHEDULER: Wait for scheduler "fdi0" with entities [LocalPlayer, LocalPlayer], work=200*
 16: 0x0244 [0x1E] EventEntity looks at LocalPlayer and starts talking
 17: 0x0249 [0x6F] WAIT_FRAME_DELAY: Yield until WaitTime reaches zero
 18: 0x024A [0x70] WAIT_ENTITY_RENDER_FLAG: Wait while EventEntity->Render.Flags3 bit 2 is set (cancel turn if not)
 19: 0x024B [0x5B] LOAD_EXT_SCHEDULER: Load scheduler "tlk0" with entities [EventEntity, EventEntity], work=35*
 20: 0x025A [0x03] Work_Zone[2] = 154*
 21: 0x025F [0x1D] PRINT_EVENT_MESSAGE(message_id=7980*)
    → "Here ye are, a fine $3! I hope it'll be of some use."
 22: 0x0262 [0x23] WAIT_FOR_DIALOG_INTERACTION
 23: 0x0263 [0x5E] EventEntity goes idle (kills current action) (animation: "idl0")
 24: 0x0268 [0x1C] WAIT(30* ticks)
 25: 0x026B [0x21] END_EVENT
 26: 0x026C [0x00] END_REQSTACK()
```

### Event 935

#### Metadata

| Field        | Value   |
|--------------|---------|
| Entrypoint   | 0x026D  |
| Data Size    | 1 bytes |
| Instructions | 1       |

```
      00 01 02 03 04 05 06 07  08 09 0A 0B 0C 0D 0E 0F
      -- -- -- -- -- -- -- --  -- -- -- -- -- -- -- --
0260:                                         00                     .  
```

#### Opcodes

```
  0: 0x026D [0x00] END_REQSTACK()
```

### Event 937

#### Metadata

| Field        | Value   |
|--------------|---------|
| Entrypoint   | 0x026E  |
| Data Size    | 1 bytes |
| Instructions | 1       |

```
      00 01 02 03 04 05 06 07  08 09 0A 0B 0C 0D 0E 0F
      -- -- -- -- -- -- -- --  -- -- -- -- -- -- -- --
0260:                                            00                   . 
```

#### Opcodes

```
  0: 0x026E [0x00] END_REQSTACK()
```

### Event 939

#### Metadata

| Field        | Value   |
|--------------|---------|
| Entrypoint   | 0x026F  |
| Data Size    | 1 bytes |
| Instructions | 1       |

```
      00 01 02 03 04 05 06 07  08 09 0A 0B 0C 0D 0E 0F
      -- -- -- -- -- -- -- --  -- -- -- -- -- -- -- --
0260:                                               00                 .
```

#### Opcodes

```
  0: 0x026F [0x00] END_REQSTACK()
```

### Event 941

#### Metadata

| Field        | Value   |
|--------------|---------|
| Entrypoint   | 0x0270  |
| Data Size    | 1 bytes |
| Instructions | 1       |

```
      00 01 02 03 04 05 06 07  08 09 0A 0B 0C 0D 0E 0F
      -- -- -- -- -- -- -- --  -- -- -- -- -- -- -- --
0270: 00                                                .               
```

#### Opcodes

```
  0: 0x0270 [0x00] END_REQSTACK()
```

### Event 936

#### Metadata

| Field        | Value   |
|--------------|---------|
| Entrypoint   | 0x0271  |
| Data Size    | 1 bytes |
| Instructions | 1       |

```
      00 01 02 03 04 05 06 07  08 09 0A 0B 0C 0D 0E 0F
      -- -- -- -- -- -- -- --  -- -- -- -- -- -- -- --
0270:    00                                              .              
```

#### Opcodes

```
  0: 0x0271 [0x00] END_REQSTACK()
```

### Event 938

#### Metadata

| Field        | Value   |
|--------------|---------|
| Entrypoint   | 0x0272  |
| Data Size    | 1 bytes |
| Instructions | 1       |

```
      00 01 02 03 04 05 06 07  08 09 0A 0B 0C 0D 0E 0F
      -- -- -- -- -- -- -- --  -- -- -- -- -- -- -- --
0270:       00                                            .             
```

#### Opcodes

```
  0: 0x0272 [0x00] END_REQSTACK()
```

### Event 940

#### Metadata

| Field        | Value   |
|--------------|---------|
| Entrypoint   | 0x0273  |
| Data Size    | 1 bytes |
| Instructions | 1       |

```
      00 01 02 03 04 05 06 07  08 09 0A 0B 0C 0D 0E 0F
      -- -- -- -- -- -- -- --  -- -- -- -- -- -- -- --
0270:          00                                          .            
```

#### Opcodes

```
  0: 0x0273 [0x00] END_REQSTACK()
```

### Event 942

#### Metadata

| Field        | Value   |
|--------------|---------|
| Entrypoint   | 0x0274  |
| Data Size    | 1 bytes |
| Instructions | 1       |

```
      00 01 02 03 04 05 06 07  08 09 0A 0B 0C 0D 0E 0F
      -- -- -- -- -- -- -- --  -- -- -- -- -- -- -- --
0270:             00                                        .           
```

#### Opcodes

```
  0: 0x0274 [0x00] END_REQSTACK()
```

### Event 955

#### Metadata

| Field        | Value   |
|--------------|---------|
| Entrypoint   | 0x0275  |
| Data Size    | 1 bytes |
| Instructions | 1       |

```
      00 01 02 03 04 05 06 07  08 09 0A 0B 0C 0D 0E 0F
      -- -- -- -- -- -- -- --  -- -- -- -- -- -- -- --
0270:                00                                      .          
```

#### Opcodes

```
  0: 0x0275 [0x00] END_REQSTACK()
```

### Event 958

#### Metadata

| Field        | Value   |
|--------------|---------|
| Entrypoint   | 0x0276  |
| Data Size    | 1 bytes |
| Instructions | 1       |

```
      00 01 02 03 04 05 06 07  08 09 0A 0B 0C 0D 0E 0F
      -- -- -- -- -- -- -- --  -- -- -- -- -- -- -- --
0270:                   00                                    .         
```

#### Opcodes

```
  0: 0x0276 [0x00] END_REQSTACK()
```

### Event 959

#### Metadata

| Field        | Value   |
|--------------|---------|
| Entrypoint   | 0x0277  |
| Data Size    | 1 bytes |
| Instructions | 1       |

```
      00 01 02 03 04 05 06 07  08 09 0A 0B 0C 0D 0E 0F
      -- -- -- -- -- -- -- --  -- -- -- -- -- -- -- --
0270:                      00                                  .        
```

#### Opcodes

```
  0: 0x0277 [0x00] END_REQSTACK()
```

### Event 65535.1

#### Metadata

| Field        | Value    |
|--------------|----------|
| Entrypoint   | 0x0278   |
| Data Size    | 14 bytes |
| Instructions | 4        |

```
      00 01 02 03 04 05 06 07  08 09 0A 0B 0C 0D 0E 0F
      -- -- -- -- -- -- -- --  -- -- -- -- -- -- -- --
0270:                          32 1A 80 1F 00 1B 80 1C          2.......
0280: 80 1D 80 1F 01 00                                 ......          
```

#### Opcodes

```
  0: 0x0278 [0x32] ExtData[1]->MainSpeed = 8* * 0.1
  1: 0x027B [0x1F] MOVE_ENTITY: EventEntity moves to X=-86.240*, Z=89.114*, Y=-6.949*
  2: 0x0283 [0x1F] MOVE_ENTITY: Update entity position (mode=1)
  3: 0x0285 [0x00] END_REQSTACK()
```

### Event 65535.2

#### Metadata

| Field        | Value    |
|--------------|----------|
| Entrypoint   | 0x0286   |
| Data Size    | 37 bytes |
| Instructions | 8        |

```
      00 01 02 03 04 05 06 07  08 09 0A 0B 0C 0D 0E 0F
      -- -- -- -- -- -- -- --  -- -- -- -- -- -- -- --
0280:                   59 04  1F 60 0E 01 1E 80 1F 00        Y..`......
0290: 1F 80 20 80 1D 80 1F 01  4B 1F 60 0E 01 21 80 7B  .. .....K.`..!.{
02A0: 1F 60 0E 01 6F 76 1F 60  0E 01 00                 .`..ov.`...     
```

#### Opcodes

```
  0: 0x0286 [0x59] UPDATE_ENTITY_DATA: Set Amaura (ID: 17719327/0x010E601F) main speed = 11* * 0.1
  1: 0x028E [0x1F] MOVE_ENTITY: EventEntity moves to X=-85.979*, Z=89.667*, Y=-6.949*
  2: 0x0296 [0x1F] MOVE_ENTITY: Update entity position (mode=1)
  3: 0x0298 [0x4B] UPDATE_ENTITY_YAW(entity=Amaura (ID: 17719327/0x010E601F), yaw=8.5°*)
  4: 0x029F [0x7B] Amaura (ID: 17719327/0x010E601F) stops talking
  5: 0x02A4 [0x6F] WAIT_FRAME_DELAY: Yield until WaitTime reaches zero
  6: 0x02A5 [0x76] CHECK_ENTITY_RENDER_FLAGS: Wait until Amaura (ID: 17719327/0x010E601F) Render.Flags0 and Render.Flags3 conditions are met
  7: 0x02AA [0x00] END_REQSTACK()
```

### Event 65535.3

#### Metadata

| Field        | Value    |
|--------------|----------|
| Entrypoint   | 0x02AB   |
| Data Size    | 32 bytes |
| Instructions | 7        |

```
      00 01 02 03 04 05 06 07  08 09 0A 0B 0C 0D 0E 0F
      -- -- -- -- -- -- -- --  -- -- -- -- -- -- -- --
02A0:                                   59 04 1F 60 0E             Y..`.
02B0: 01 1E 80 1F 00 22 80 23  80 1D 80 1F 01 4B 1F 60  .....".#.....K.`
02C0: 0E 01 24 80 6F 76 1F 60  0E 01 00                 ..$.ov.`...     
```

#### Opcodes

```
  0: 0x02AB [0x59] UPDATE_ENTITY_DATA: Set Amaura (ID: 17719327/0x010E601F) main speed = 11* * 0.1
  1: 0x02B3 [0x1F] MOVE_ENTITY: EventEntity moves to X=-86.691*, Z=88.927*, Y=-6.949*
  2: 0x02BB [0x1F] MOVE_ENTITY: Update entity position (mode=1)
  3: 0x02BD [0x4B] UPDATE_ENTITY_YAW(entity=Amaura (ID: 17719327/0x010E601F), yaw=9.3°*)
  4: 0x02C4 [0x6F] WAIT_FRAME_DELAY: Yield until WaitTime reaches zero
  5: 0x02C5 [0x76] CHECK_ENTITY_RENDER_FLAGS: Wait until Amaura (ID: 17719327/0x010E601F) Render.Flags0 and Render.Flags3 conditions are met
  6: 0x02CA [0x00] END_REQSTACK()
```

### Event 65535.4

#### Metadata

| Field        | Value    |
|--------------|----------|
| Entrypoint   | 0x02CB   |
| Data Size    | 37 bytes |
| Instructions | 8        |

```
      00 01 02 03 04 05 06 07  08 09 0A 0B 0C 0D 0E 0F
      -- -- -- -- -- -- -- --  -- -- -- -- -- -- -- --
02C0:                                   59 04 1F 60 0E             Y..`.
02D0: 01 1E 80 1F 00 25 80 26  80 1D 80 1F 01 4B 1F 60  .....%.&.....K.`
02E0: 0E 01 17 80 7B 1F 60 0E  01 6F 76 1F 60 0E 01 00  ....{.`..ov.`...
```

#### Opcodes

```
  0: 0x02CB [0x59] UPDATE_ENTITY_DATA: Set Amaura (ID: 17719327/0x010E601F) main speed = 11* * 0.1
  1: 0x02D3 [0x1F] MOVE_ENTITY: EventEntity moves to X=-84.367*, Z=91.148*, Y=-6.949*
  2: 0x02DB [0x1F] MOVE_ENTITY: Update entity position (mode=1)
  3: 0x02DD [0x4B] UPDATE_ENTITY_YAW(entity=Amaura (ID: 17719327/0x010E601F), yaw=19.4°*)
  4: 0x02E4 [0x7B] Amaura (ID: 17719327/0x010E601F) stops talking
  5: 0x02E9 [0x6F] WAIT_FRAME_DELAY: Yield until WaitTime reaches zero
  6: 0x02EA [0x76] CHECK_ENTITY_RENDER_FLAGS: Wait until Amaura (ID: 17719327/0x010E601F) Render.Flags0 and Render.Flags3 conditions are met
  7: 0x02EF [0x00] END_REQSTACK()
```

### Event 65535.5

#### Metadata

| Field        | Value    |
|--------------|----------|
| Entrypoint   | 0x02F0   |
| Data Size    | 48 bytes |
| Instructions | 11       |

```
      00 01 02 03 04 05 06 07  08 09 0A 0B 0C 0D 0E 0F
      -- -- -- -- -- -- -- --  -- -- -- -- -- -- -- --
02F0: 59 04 F8 FF FF 7F 1E 80  1F 00 27 80 28 80 1D 80  Y.........'.(...
0300: 1F 01 6F 4A F0 FF FF 7F  F8 FF FF 7F 6F 76 F0 FF  ..oJ........ov..
0310: FF 7F 1C 08 80 27 10 F0  FF FF 7F 97 1C 08 80 00  .....'..........
```

#### Opcodes

```
  0: 0x02F0 [0x59] UPDATE_ENTITY_DATA: Set EventEntity main speed = 11* * 0.1
  1: 0x02F8 [0x1F] MOVE_ENTITY: EventEntity moves to X=-86.164*, Z=91.987*, Y=-6.949*
  2: 0x0300 [0x1F] MOVE_ENTITY: Update entity position (mode=1)
  3: 0x0302 [0x6F] WAIT_FRAME_DELAY: Yield until WaitTime reaches zero
  4: 0x0303 [0x4A] LocalPlayer looks at EventEntity
  5: 0x030C [0x6F] WAIT_FRAME_DELAY: Yield until WaitTime reaches zero
  6: 0x030D [0x76] CHECK_ENTITY_RENDER_FLAGS: Wait until LocalPlayer Render.Flags0 and Render.Flags3 conditions are met
  7: 0x0312 [0x1C] WAIT(60* ticks)
  8: 0x0315 [0x27] REQ_SET(priority=0x10, entity_id=LocalPlayer, tag_num=0x97)
  9: 0x031C [0x1C] WAIT(60* ticks)
 10: 0x031F [0x00] END_REQSTACK()
```

### Event 956

#### Metadata

| Field        | Value    |
|--------------|----------|
| Entrypoint   | 0x0320   |
| Data Size    | 43 bytes |
| Instructions | 10       |

```
      00 01 02 03 04 05 06 07  08 09 0A 0B 0C 0D 0E 0F
      -- -- -- -- -- -- -- --  -- -- -- -- -- -- -- --
0320: 79 00 1F 60 0E 01 F0 FF  FF 7F 5B 00 80 F8 FF FF  y..`......[.....
0330: 7F F8 FF FF 7F 74 6C 6B  30 1D 29 80 23 1D 2A 80  .....tlk0.).#.*.
0340: 23 7B 1F 60 0E 01 1C 02  80 21 00                 #{.`.....!.     
```

#### Opcodes

```
  0: 0x0320 [0x79] Amaura (ID: 17719327/0x010E601F) looks at LocalPlayer (Basic look)
  1: 0x032A [0x5B] LOAD_EXT_SCHEDULER: Load scheduler "tlk0" with entities [EventEntity, EventEntity], work=35*
  2: 0x0339 [0x1D] PRINT_EVENT_MESSAGE(message_id=15050*)
    → "Back in the day, a simple brew to relieve the pain was all I had to offer. But medicine is a livin', ever-evolvin' science. Mayhap the years've seen the discovery of a cure."
  3: 0x033C [0x23] WAIT_FOR_DIALOG_INTERACTION
  4: 0x033D [0x1D] PRINT_EVENT_MESSAGE(message_id=15049*)
    → "I've been told there's a physician in Jeuno, a learned young man. Might be he can assist ye."
  5: 0x0340 [0x23] WAIT_FOR_DIALOG_INTERACTION
  6: 0x0341 [0x7B] Amaura (ID: 17719327/0x010E601F) stops talking
  7: 0x0346 [0x1C] WAIT(30* ticks)
  8: 0x0349 [0x21] END_EVENT
  9: 0x034A [0x00] END_REQSTACK()
```
