# 17719362 - Chanpau

## Common Data

| Field            | Value                         |
|------------------|-------------------------------|
| Zone             | Southern San d'Oria (ID: 230) |
| Block Size       | 360 bytes                     |
| Total Events     | 7                             |
| References Count | 13                            |

## List of Events

| Event ID              | Entrypoint   |   Size |   Instructions |
|-----------------------|--------------|--------|----------------|
| [65535](#event-65535) | 0x0000       |      1 |              1 |
| [32691](#event-32691) | 0x0001       |     12 |              6 |
| [0](#event-0)         | 0x000D       |      1 |              1 |
| [629](#event-629)     | 0x000E       |    126 |             26 |
| [566](#event-566)     | 0x008C       |     52 |              8 |
| [505](#event-505)     | 0x00C0       |     36 |             10 |
| [567](#event-567)     | 0x00E4       |     36 |             10 |

## DAT References (imed_data)

|   Index | Hex Value   |   Dec Value |
|---------|-------------|-------------|
|       0 | 0x35DF      |       13791 |
|       1 | 0x0014      |          20 |
|       2 | 0x1F0D      |        7949 |
|       3 | 0x1F0E      |        7950 |
|       4 | 0x008D      |         141 |
|       5 | 0x1F0F      |        7951 |
|       6 | 0x003C      |          60 |
|       7 | 0x1F10      |        7952 |
|       8 | 0x001E      |          30 |
|       9 | 0x1F11      |        7953 |
|      10 | 0x1FD9      |        8153 |
|      11 | 0x1FDB      |        8155 |
|      12 | 0x1FDD      |        8157 |

## String References

- **7949**: Proof that you went to the waterfall, eh? Hah! Old man Balasiel's got you running errands now, has he?
- **7950**: I'll tell you, but don't say a word to the old man! Stand with your back to the waterfall, and look up at the ceiling of the cave. You'll see a shining stalactite.
- **7951**: Bring $6 back and you'll be a real spelunker, you will.
- **7952**: Eh? How to get the drop? Ah...right. It's odd, but I can't seem to remember how I did it. That was a long time ago, you see.
- **7953**: Hmm... Maybe you could try reading up on it. I'm sure it's outlined somewhere.
- **8153**: La-dee-dah, la-dee-dah... Sure am bored. Wish there was some work to do.
- **8155**: Eh? There's work, you say! I'll go check it out, then. Cargo room B down at the port? Thanks!
- **8157**: Ah, it's you again... I tried out that job you told me about, but I got meself fired in only a day!
- **13791**: Well, looky here, if it isn't a Starlight Celebration present! And for me, of all people! You sure know how to bring a smile to a jobless Elvaan's face!

## Events

### Event 65535

#### Metadata

| Field        | Value   |
|--------------|---------|
| Entrypoint   | 0x0000  |
| Data Size    | 1 bytes |
| Instructions | 1       |

```
      00 01 02 03 04 05 06 07  08 09 0A 0B 0C 0D 0E 0F
      -- -- -- -- -- -- -- --  -- -- -- -- -- -- -- --
0000: 00                                                .               
```

#### Opcodes

```
  0: 0x0000 [0x00] END_REQSTACK()
```

### Event 32691

#### Metadata

| Field        | Value    |
|--------------|----------|
| Entrypoint   | 0x0001   |
| Data Size    | 12 bytes |
| Instructions | 6        |

```
      00 01 02 03 04 05 06 07  08 09 0A 0B 0C 0D 0E 0F
      -- -- -- -- -- -- -- --  -- -- -- -- -- -- -- --
0000:    42 1E F0 FF FF 7F 1D  00 80 23 21 00            B........#!.   
```

#### Opcodes

```
  0: 0x0001 [0x42] SET_CLI_EVENT_CANCEL_DATA()
  1: 0x0002 [0x1E] EventEntity looks at LocalPlayer and starts talking
  2: 0x0007 [0x1D] PRINT_EVENT_MESSAGE(message_id=13791*)
    → "Well, looky here, if it isn't a Starlight Celebration present! And for me, of all people! You sure know how to bring a smile to a jobless Elvaan's face!"
  3: 0x000A [0x23] WAIT_FOR_DIALOG_INTERACTION
  4: 0x000B [0x21] END_EVENT
  5: 0x000C [0x00] END_REQSTACK()
```

### Event 0

#### Metadata

| Field        | Value   |
|--------------|---------|
| Entrypoint   | 0x000D  |
| Data Size    | 1 bytes |
| Instructions | 1       |

```
      00 01 02 03 04 05 06 07  08 09 0A 0B 0C 0D 0E 0F
      -- -- -- -- -- -- -- --  -- -- -- -- -- -- -- --
0000:                                         00                     .  
```

#### Opcodes

```
  0: 0x000D [0x00] END_REQSTACK()
```

### Event 629

#### Metadata

| Field        | Value     |
|--------------|-----------|
| Entrypoint   | 0x000E    |
| Data Size    | 126 bytes |
| Instructions | 26        |

```
      00 01 02 03 04 05 06 07  08 09 0A 0B 0C 0D 0E 0F
      -- -- -- -- -- -- -- --  -- -- -- -- -- -- -- --
0000:                                            1E F0                ..
0010: FF FF 7F 6F 70 66 01 80  F8 FF FF 7F F8 FF FF 7F  ...opf..........
0020: 74 6C 6B 30 1D 02 80 23  1D 03 80 23 03 02 10 04  tlk0...#...#....
0030: 80 1D 05 80 23 5E 69 64  6C 30 1C 06 80 66 01 80  ....#^idl0...f..
0040: F8 FF FF 7F F8 FF FF 7F  74 68 6B 31 1D 07 80 23  ........thk1...#
0050: 66 01 80 F8 FF FF 7F F8  FF FF 7F 74 68 6B 32 53  f..........thk2S
0060: 42 60 0E 01 42 60 0E 01  74 68 6B 32 1C 08 80 66  B`..B`..thk2...f
0070: 01 80 F8 FF FF 7F F8 FF  FF 7F 74 6C 6B 30 1D 09  ..........tlk0..
0080: 80 23 5E 69 64 6C 30 1C  08 80 21 00              .#^idl0...!.    
```

#### Opcodes

```
  0: 0x000E [0x1E] EventEntity looks at LocalPlayer and starts talking
  1: 0x0013 [0x6F] WAIT_FRAME_DELAY: Yield until WaitTime reaches zero
  2: 0x0014 [0x70] WAIT_ENTITY_RENDER_FLAG: Wait while EventEntity->Render.Flags3 bit 2 is set (cancel turn if not)
  3: 0x0015 [0x66] LOAD_EXT_SCHEDULER_MAIN: Load scheduler "tlk0" with entities [EventEntity, EventEntity], work=20*
  4: 0x0024 [0x1D] PRINT_EVENT_MESSAGE(message_id=7949*)
    → "Proof that you went to the waterfall, eh? Hah! Old man Balasiel's got you running errands now, has he?"
  5: 0x0027 [0x23] WAIT_FOR_DIALOG_INTERACTION
  6: 0x0028 [0x1D] PRINT_EVENT_MESSAGE(message_id=7950*)
    → "I'll tell you, but don't say a word to the old man! Stand with your back to the waterfall, and look up at the ceiling of the cave. You'll see a shining stalactite."
  7: 0x002B [0x23] WAIT_FOR_DIALOG_INTERACTION
  8: 0x002C [0x03] Work_Zone[2] = 141*
  9: 0x0031 [0x1D] PRINT_EVENT_MESSAGE(message_id=7951*)
    → "Bring $6 back and you'll be a real spelunker, you will."
 10: 0x0034 [0x23] WAIT_FOR_DIALOG_INTERACTION
 11: 0x0035 [0x5E] EventEntity goes idle (kills current action) (animation: "idl0")
 12: 0x003A [0x1C] WAIT(60* ticks)
 13: 0x003D [0x66] LOAD_EXT_SCHEDULER_MAIN: Load scheduler "thk1" with entities [EventEntity, EventEntity], work=20*
 14: 0x004C [0x1D] PRINT_EVENT_MESSAGE(message_id=7952*)
    → "Eh? How to get the drop? Ah...right. It's odd, but I can't seem to remember how I did it. That was a long time ago, you see."
 15: 0x004F [0x23] WAIT_FOR_DIALOG_INTERACTION
 16: 0x0050 [0x66] LOAD_EXT_SCHEDULER_MAIN: Load scheduler "thk2" with entities [EventEntity, EventEntity], work=20*
 17: 0x005F [0x53] WAIT_SCHEDULER_TASK: Wait for scheduler "thk2" with entities [Chanpau (ID: 17719362/0x010E6042), Chanpau (ID: 17719362/0x010E6042)]
 18: 0x006C [0x1C] WAIT(30* ticks)
 19: 0x006F [0x66] LOAD_EXT_SCHEDULER_MAIN: Load scheduler "tlk0" with entities [EventEntity, EventEntity], work=20*
 20: 0x007E [0x1D] PRINT_EVENT_MESSAGE(message_id=7953*)
    → "Hmm... Maybe you could try reading up on it. I'm sure it's outlined somewhere."
 21: 0x0081 [0x23] WAIT_FOR_DIALOG_INTERACTION
 22: 0x0082 [0x5E] EventEntity goes idle (kills current action) (animation: "idl0")
 23: 0x0087 [0x1C] WAIT(30* ticks)
 24: 0x008A [0x21] END_EVENT
 25: 0x008B [0x00] END_REQSTACK()
```

### Event 566

#### Metadata

| Field        | Value    |
|--------------|----------|
| Entrypoint   | 0x008C   |
| Data Size    | 52 bytes |
| Instructions | 8        |

```
      00 01 02 03 04 05 06 07  08 09 0A 0B 0C 0D 0E 0F
      -- -- -- -- -- -- -- --  -- -- -- -- -- -- -- --
0080:                                      66 01 80 42              f..B
0090: 60 0E 01 42 60 0E 01 74  68 6B 31 1D 0A 80 23 66  `..B`..thk1...#f
00A0: 01 80 42 60 0E 01 42 60  0E 01 74 68 6B 32 53 42  ..B`..B`..thk2SB
00B0: 60 0E 01 42 60 0E 01 74  68 6B 32 1C 08 80 21 00  `..B`..thk2...!.
```

#### Opcodes

```
  0: 0x008C [0x66] LOAD_EXT_SCHEDULER_MAIN: Load scheduler "thk1" with entities [Chanpau (ID: 17719362/0x010E6042), Chanpau (ID: 17719362/0x010E6042)], work=20*
  1: 0x009B [0x1D] PRINT_EVENT_MESSAGE(message_id=8153*)
    → "La-dee-dah, la-dee-dah... Sure am bored. Wish there was some work to do."
  2: 0x009E [0x23] WAIT_FOR_DIALOG_INTERACTION
  3: 0x009F [0x66] LOAD_EXT_SCHEDULER_MAIN: Load scheduler "thk2" with entities [Chanpau (ID: 17719362/0x010E6042), Chanpau (ID: 17719362/0x010E6042)], work=20*
  4: 0x00AE [0x53] WAIT_SCHEDULER_TASK: Wait for scheduler "thk2" with entities [Chanpau (ID: 17719362/0x010E6042), Chanpau (ID: 17719362/0x010E6042)]
  5: 0x00BB [0x1C] WAIT(30* ticks)
  6: 0x00BE [0x21] END_EVENT
  7: 0x00BF [0x00] END_REQSTACK()
```

### Event 505

#### Metadata

| Field        | Value    |
|--------------|----------|
| Entrypoint   | 0x00C0   |
| Data Size    | 36 bytes |
| Instructions | 10       |

```
      00 01 02 03 04 05 06 07  08 09 0A 0B 0C 0D 0E 0F
      -- -- -- -- -- -- -- --  -- -- -- -- -- -- -- --
00C0: 1E F0 FF FF 7F 6F 70 66  01 80 42 60 0E 01 42 60  .....opf..B`..B`
00D0: 0E 01 74 6C 6B 30 1D 0B  80 23 5E 69 64 6C 30 1C  ..tlk0...#^idl0.
00E0: 08 80 21 00                                       ..!.            
```

#### Opcodes

```
  0: 0x00C0 [0x1E] EventEntity looks at LocalPlayer and starts talking
  1: 0x00C5 [0x6F] WAIT_FRAME_DELAY: Yield until WaitTime reaches zero
  2: 0x00C6 [0x70] WAIT_ENTITY_RENDER_FLAG: Wait while EventEntity->Render.Flags3 bit 2 is set (cancel turn if not)
  3: 0x00C7 [0x66] LOAD_EXT_SCHEDULER_MAIN: Load scheduler "tlk0" with entities [Chanpau (ID: 17719362/0x010E6042), Chanpau (ID: 17719362/0x010E6042)], work=20*
  4: 0x00D6 [0x1D] PRINT_EVENT_MESSAGE(message_id=8155*)
    → "Eh? There's work, you say! I'll go check it out, then. Cargo room B down at the port? Thanks!"
  5: 0x00D9 [0x23] WAIT_FOR_DIALOG_INTERACTION
  6: 0x00DA [0x5E] EventEntity goes idle (kills current action) (animation: "idl0")
  7: 0x00DF [0x1C] WAIT(30* ticks)
  8: 0x00E2 [0x21] END_EVENT
  9: 0x00E3 [0x00] END_REQSTACK()
```

### Event 567

#### Metadata

| Field        | Value    |
|--------------|----------|
| Entrypoint   | 0x00E4   |
| Data Size    | 36 bytes |
| Instructions | 10       |

```
      00 01 02 03 04 05 06 07  08 09 0A 0B 0C 0D 0E 0F
      -- -- -- -- -- -- -- --  -- -- -- -- -- -- -- --
00E0:             1E F0 FF FF  7F 6F 70 66 01 80 42 60      .....opf..B`
00F0: 0E 01 42 60 0E 01 74 6C  6B 30 1D 0C 80 23 5E 69  ..B`..tlk0...#^i
0100: 64 6C 30 1C 08 80 21 00                           dl0...!.        
```

#### Opcodes

```
  0: 0x00E4 [0x1E] EventEntity looks at LocalPlayer and starts talking
  1: 0x00E9 [0x6F] WAIT_FRAME_DELAY: Yield until WaitTime reaches zero
  2: 0x00EA [0x70] WAIT_ENTITY_RENDER_FLAG: Wait while EventEntity->Render.Flags3 bit 2 is set (cancel turn if not)
  3: 0x00EB [0x66] LOAD_EXT_SCHEDULER_MAIN: Load scheduler "tlk0" with entities [Chanpau (ID: 17719362/0x010E6042), Chanpau (ID: 17719362/0x010E6042)], work=20*
  4: 0x00FA [0x1D] PRINT_EVENT_MESSAGE(message_id=8157*)
    → "Ah, it's you again... I tried out that job you told me about, but I got meself fired in only a day!"
  5: 0x00FD [0x23] WAIT_FOR_DIALOG_INTERACTION
  6: 0x00FE [0x5E] EventEntity goes idle (kills current action) (animation: "idl0")
  7: 0x0103 [0x1C] WAIT(30* ticks)
  8: 0x0106 [0x21] END_EVENT
  9: 0x0107 [0x00] END_REQSTACK()
```
