# 17719818

## Common Data

| Field            | Value                         |
|------------------|-------------------------------|
| Zone             | Southern San d'Oria (ID: 230) |
| Block Size       | 100 bytes                     |
| Total Events     | 3                             |
| References Count | 4                             |

## List of Events

| Event ID                 | Entrypoint   |   Size |   Instructions |
|--------------------------|--------------|--------|----------------|
| [65535](#event-65535)    | 0x0000       |      1 |              1 |
| [897](#event-897)        | 0x0001       |      1 |              1 |
| [65535.1](#event-655351) | 0x0002       |     51 |             12 |

## DAT References (imed_data)

|   Index | Hex Value   |   Dec Value |
|---------|-------------|-------------|
|       0 | 0x0E10      |        3600 |
|       1 | 0x0000      |           0 |
|       2 | 0x0005      |           5 |
|       3 | 0x0001      |           1 |

## Events

### Event 65535

#### Metadata

| Field        | Value   |
|--------------|---------|
| Entrypoint   | 0x0000  |
| Data Size    | 1 bytes |
| Instructions | 1       |

```
      00 01 02 03 04 05 06 07  08 09 0A 0B 0C 0D 0E 0F
      -- -- -- -- -- -- -- --  -- -- -- -- -- -- -- --
0000: 00                                                .               
```

#### Opcodes

```
  0: 0x0000 [0x00] END_REQSTACK()
```

### Event 897

#### Metadata

| Field        | Value   |
|--------------|---------|
| Entrypoint   | 0x0001  |
| Data Size    | 1 bytes |
| Instructions | 1       |

```
      00 01 02 03 04 05 06 07  08 09 0A 0B 0C 0D 0E 0F
      -- -- -- -- -- -- -- --  -- -- -- -- -- -- -- --
0000:    00                                              .              
```

#### Opcodes

```
  0: 0x0001 [0x00] END_REQSTACK()
```

### Event 65535.1

#### Metadata

| Field        | Value    |
|--------------|----------|
| Entrypoint   | 0x0002   |
| Data Size    | 51 bytes |
| Instructions | 12       |

```
      00 01 02 03 04 05 06 07  08 09 0A 0B 0C 0D 0E 0F
      -- -- -- -- -- -- -- --  -- -- -- -- -- -- -- --
0000:       B4 0A 00 80 03 00  00 00 80 02 00 00 01 80    ..............
0010: 02 1D 00 B4 0C 00 00 1C  02 80 01 0B 00 B4 0B 03  ................
0020: 52 10 03 80 B4 06 00 02  50 10 01 80 00 34 00 03  R.......P....4..
0030: 50 10 03 80 00                                    P....           
```

#### Opcodes

```
  0: 0x0002 [0xB4] UI_WINDOW_STRING_HANDLER(case=0x0A - Open event time window, work_offset=3600*)
  1: 0x0006 [0x03] ExtData[1]->WorkLocal[0] = 3600*
  2: 0x000B [0x02] IF !(ExtData[1]->WorkLocal[0] <= 0*) GOTO 0x001D
  3: 0x0013 [0xB4] UI_WINDOW_STRING_HANDLER(case=0x0C - Get event time count value, work_offset=ExtData[1]->WorkLocal[0])
  4: 0x0017 [0x1C] WAIT(5* ticks)
  5: 0x001A [0x01] GOTO 0x000B
  6: 0x001D [0xB4] UI_WINDOW_STRING_HANDLER(case=0x0B - Destroy event time window)
  7: 0x001F [0x03] Work_Zone[82] = 1*
  8: 0x0024 [0xB4] UI_WINDOW_STRING_HANDLER(case=0x06 - Toggle query message flag, flag_value=0x00)
  9: 0x0027 [0x02] IF !(Work_Zone[80] == 0*) GOTO 0x0034
 10: 0x002F [0x03] Work_Zone[80] = 1*
 11: 0x0034 [0x00] END_REQSTACK()
```
