# 17719324 - Nenne

## Common Data

| Field            | Value                         |
|------------------|-------------------------------|
| Zone             | Southern San d'Oria (ID: 230) |
| Block Size       | 1132 bytes                    |
| Total Events     | 6                             |
| References Count | 34                            |

## List of Events

| Event ID                 | Entrypoint   |   Size |   Instructions |
|--------------------------|--------------|--------|----------------|
| [65535](#event-65535)    | 0x0000       |      1 |              1 |
| [538](#event-538)        | 0x0001       |    635 |             86 |
| [65535.1](#event-655351) | 0x027C       |      1 |              1 |
| [65535.2](#event-655352) | 0x027D       |      1 |              1 |
| [584](#event-584)        | 0x027E       |    209 |             46 |
| [647](#event-647)        | 0x034F       |    109 |             19 |

## DAT References (imed_data)

|   Index | Hex Value   |   Dec Value |
|---------|-------------|-------------|
|       0 | 0x0152      |         338 |
|       1 | 0x0003      |           3 |
|       2 | 0x0082      |         130 |
|       3 | 0x0000      |           0 |
|       4 | 0x00C8      |         200 |
|       5 | 0x0023      |          35 |
|       6 | 0x1F98      |        8088 |
|       7 | 0x001E      |          30 |
|       8 | 0x1F99      |        8089 |
|       9 | 0x003C      |          60 |
|      10 | 0x1F9A      |        8090 |
|      11 | 0x002D      |          45 |
|      12 | 0x1F9B      |        8091 |
|      13 | 0x004B      |          75 |
|      14 | 0x1F9C      |        8092 |
|      15 | 0x1F9D      |        8093 |
|      16 | 0x1F9E      |        8094 |
|      17 | 0x1F9F      |        8095 |
|      18 | 0x1FA0      |        8096 |
|      19 | 0x1FA1      |        8097 |
|      20 | 0x1FA2      |        8098 |
|      21 | 0x1FA3      |        8099 |
|      22 | 0x1FA4      |        8100 |
|      23 | 0x1FA5      |        8101 |
|      24 | 0x0001      |           1 |
|      25 | 0x1FA6      |        8102 |
|      26 | 0x1FA7      |        8103 |
|      27 | 0x1FA8      |        8104 |
|      28 | 0x0002      |           2 |
|      29 | 0x1FA9      |        8105 |
|      30 | 0x009A      |         154 |
|      31 | 0x1F2F      |        7983 |
|      32 | 0x1F30      |        7984 |
|      33 | 0x00C9      |         201 |

## String References

- **7983**: This...<cough>...This is $6! But, I cannot accept something so precious without pay...paying!
- **7984**: But I have little money. Here, this belonged to my late husband. Perhaps it will be of some use to you.
- **8088**: <cough>...<cough!>
- **8089**: Who are you? If you're looking for my son, he's out making deliveries.
- **8091**: Raminel! B-back from work so soon?
- **8093**: Oh, I'm...fine, really... You shouldn't...shouldn't worry...about me so much.
- **8095**: Oh, Raminel, you're too kind...too kind to me!
- **8097**: I'm sorry... What were we talking about?
- **8098**: What were we talking about? [Tell me about your son./Tell me about yourself./Do you have any other family?]
- **8099**: I can't move about much on account--on account of my illness, so Raminel does his delivery work to support us.
- **8100**: The physician told me I have--have the Davoi-fever: a disease that attacks the lungs, only found in this part of the world.
- **8101**: Do not worry, it isn't contagious; I still live with my son, after all. But I can't--I can't stop coughing!
- **8102**: Long ago, I was a sister in the abbey at Davoi.
- **8103**: But one day, Orcs raided the village--a great army. They took the abbey, and I...no, all of the sisters, were driven from our home.
- **8104**: I heard later that the abbey had fallen into ruin. I would not wish to see it now, for fear my heart would break...
- **8105**: I dwell here with my son Raminel. My husband passed away five years ago.

## Events

### Event 65535

#### Metadata

| Field        | Value   |
|--------------|---------|
| Entrypoint   | 0x0000  |
| Data Size    | 1 bytes |
| Instructions | 1       |

```
      00 01 02 03 04 05 06 07  08 09 0A 0B 0C 0D 0E 0F
      -- -- -- -- -- -- -- --  -- -- -- -- -- -- -- --
0000: 00                                                .               
```

#### Opcodes

```
  0: 0x0000 [0x00] END_REQSTACK()
```

### Event 538

#### Metadata

| Field        | Value     |
|--------------|-----------|
| Entrypoint   | 0x0001    |
| Data Size    | 635 bytes |
| Instructions | 86        |

```
      00 01 02 03 04 05 06 07  08 09 0A 0B 0C 0D 0E 0F
      -- -- -- -- -- -- -- --  -- -- -- -- -- -- -- --
0000:    42 46 01 75 00 00 80  75 01 38 01 80 45 02 80   BF.u...u.8..E..
0010: F0 FF FF 7F F0 FF FF 7F  73 30 33 30 03 80 27 65  ........s030..'e
0020: F0 FF FF 7F 23 55 02 80  F0 FF FF 7F F0 FF FF 7F  ....#U..........
0030: 73 30 33 30 45 04 80 F0  FF FF 7F F0 FF FF 7F 66  s030E..........f
0040: 64 69 31 03 80 5B 05 80  F8 FF FF 7F F8 FF FF 7F  di1..[..........
0050: 74 68 6B 31 1D 06 80 23  5B 05 80 F8 FF FF 7F F8  thk1...#[.......
0060: FF FF 7F 74 68 6B 32 53  F8 FF FF 7F F8 FF FF 7F  ...thk2S........
0070: 74 68 6B 32 1C 07 80 1E  F0 FF FF 7F 6F 70 5B 05  thk2........op[.
0080: 80 F8 FF FF 7F F8 FF FF  7F 74 6C 6B 30 27 03 F0  .........tlk0'..
0090: FF FF 7F 30 4A F0 FF FF  7F F8 FF FF 7F 1D 08 80  ...0J...........
00A0: 23 5E 69 64 6C 30 1C 09  80 2A 03 F0 FF FF 7F 2B  #^idl0...*.....+
00B0: 1D 60 0E 01 0A 80 23 45  02 80 F0 FF FF 7F F0 FF  .`....#E........
00C0: FF 7F 73 30 33 32 03 80  4A F0 FF FF 7F 1D 60 0E  ..s032..J.....`.
00D0: 01 4A 1C 60 0E 01 1D 60  0E 01 27 64 A2 60 0E 01  .J.`...`..'d.`..
00E0: 02 27 5A 1D 60 0E 01 03  2A 5A 1D 60 0E 01 27 64  .'Z.`...*Z.`..'d
00F0: A2 60 0E 01 03 1C 0B 80  1E 1D 60 0E 01 6F 70 5B  .`........`..op[
0100: 05 80 F8 FF FF 7F F8 FF  FF 7F 74 68 6B 31 1D 0C  ..........thk1..
0110: 80 23 27 66 F0 FF FF 7F  25 5B 05 80 F8 FF FF 7F  .#'f....%[......
0120: F8 FF FF 7F 74 68 6B 32  53 F8 FF FF 7F F8 FF FF  ....thk2S.......
0130: 7F 74 68 6B 32 1C 07 80  45 02 80 F0 FF FF 7F F0  .thk2...E.......
0140: FF FF 7F 73 30 33 33 03  80 5B 0D 80 1D 60 0E 01  ...s033..[...`..
0150: 1D 60 0E 01 74 6C 6B 30  2B 1D 60 0E 01 0E 80 23  .`..tlk0+.`....#
0160: 45 02 80 F0 FF FF 7F F0  FF FF 7F 73 30 33 34 03  E..........s034.
0170: 80 5B 05 80 F8 FF FF 7F  F8 FF FF 7F 74 68 6B 31  .[..........thk1
0180: 1D 0F 80 23 27 66 F0 FF  FF 7F 24 5B 05 80 F8 FF  ...#'f....$[....
0190: FF 7F F8 FF FF 7F 74 68  6B 32 53 F8 FF FF 7F F8  ......thk2S.....
01A0: FF FF 7F 74 68 6B 32 5B  0D 80 1D 60 0E 01 1D 60  ...thk2[...`...`
01B0: 0E 01 74 6C 6B 30 2B 1D  60 0E 01 10 80 23 5B 05  ..tlk0+.`....#[.
01C0: 80 F8 FF FF 7F F8 FF FF  7F 74 68 6B 31 1D 11 80  .........thk1...
01D0: 23 5B 05 80 F8 FF FF 7F  F8 FF FF 7F 74 68 6B 32  #[..........thk2
01E0: 53 F8 FF FF 7F F8 FF FF  7F 74 68 6B 32 1C 07 80  S........thk2...
01F0: 5B 0D 80 1D 60 0E 01 1D  60 0E 01 74 6C 6B 30 2B  [...`...`..tlk0+
0200: 1D 60 0E 01 12 80 23 45  02 80 F0 FF FF 7F F0 FF  .`....#E........
0210: FF 7F 73 30 33 35 03 80  27 5C 1D 60 0E 01 04 1C  ..s035..'\.`....
0220: 09 80 27 66 F0 FF FF 7F  25 27 64 A2 60 0E 01 02  ..'f....%'d.`...
0230: 2A 5C 1D 60 0E 01 1C 09  80 27 5C 1D 60 0E 01 05  *\.`.....'\.`...
0240: 45 04 80 F8 FF FF 7F F8  FF FF 7F 66 64 6F 31 03  E..........fdo1.
0250: 80 1C 09 80 2A 5C 1D 60  0E 01 27 64 A2 60 0E 01  ....*\.`..'d.`..
0260: 03 2A 64 A2 60 0E 01 45  04 80 F8 FF FF 7F F8 FF  .*d.`..E........
0270: FF 7F 66 64 69 31 03 80  46 00 21 00              ..fdi1..F.!.    
```

#### Opcodes

```
  0: 0x0001 [0x42] SET_CLI_EVENT_CANCEL_DATA()
  1: 0x0002 [0x46] CAMERA_CONTROL: Disable user control
  2: 0x0004 [0x75] LOAD_ROOM(Load indoor room, room=338*)
  3: 0x0008 [0x75] LOAD_ROOM(No action)
  4: 0x000A [0x38] SET_CLIENT_EVENT_MODE(mode=3*)
  5: 0x000D [0x45] LOAD_SCHEDULED_TASK: Load scheduler "s030" with entities [LocalPlayer, LocalPlayer], work=[130*, 0*]
  6: 0x001E [0x27] REQ_SET(priority=0x65, entity_id=LocalPlayer, tag_num=0x23)
  7: 0x0025 [0x55] WAIT_LOAD_SCHEDULER: Wait for scheduler "s030" with entities [LocalPlayer, LocalPlayer], work=130*
  8: 0x0034 [0x45] LOAD_SCHEDULED_TASK: Load scheduler "fdi1" with entities [LocalPlayer, LocalPlayer], work=[200*, 0*]
  9: 0x0045 [0x5B] LOAD_EXT_SCHEDULER: Load scheduler "thk1" with entities [EventEntity, EventEntity], work=35*
 10: 0x0054 [0x1D] PRINT_EVENT_MESSAGE(message_id=8088*)
    → "<cough>...<cough!>"
 11: 0x0057 [0x23] WAIT_FOR_DIALOG_INTERACTION
 12: 0x0058 [0x5B] LOAD_EXT_SCHEDULER: Load scheduler "thk2" with entities [EventEntity, EventEntity], work=35*
 13: 0x0067 [0x53] WAIT_SCHEDULER_TASK: Wait for scheduler "thk2" with entities [EventEntity, EventEntity]
 14: 0x0074 [0x1C] WAIT(30* ticks)
 15: 0x0077 [0x1E] EventEntity looks at LocalPlayer and starts talking
 16: 0x007C [0x6F] WAIT_FRAME_DELAY: Yield until WaitTime reaches zero
 17: 0x007D [0x70] WAIT_ENTITY_RENDER_FLAG: Wait while EventEntity->Render.Flags3 bit 2 is set (cancel turn if not)
 18: 0x007E [0x5B] LOAD_EXT_SCHEDULER: Load scheduler "tlk0" with entities [EventEntity, EventEntity], work=35*
 19: 0x008D [0x27] REQ_SET(priority=0x03, entity_id=LocalPlayer, tag_num=0x30)
 20: 0x0094 [0x4A] LocalPlayer looks at EventEntity
 21: 0x009D [0x1D] PRINT_EVENT_MESSAGE(message_id=8089*)
    → "Who are you? If you're looking for my son, he's out making deliveries."
 22: 0x00A0 [0x23] WAIT_FOR_DIALOG_INTERACTION
 23: 0x00A1 [0x5E] EventEntity goes idle (kills current action) (animation: "idl0")
 24: 0x00A6 [0x1C] WAIT(60* ticks)
 25: 0x00A9 [0x2A] GET_REQ_LEVEL(level=3, entity_id=LocalPlayer)
 26: 0x00AF [0x2B] Raminel (ID: 17719325/0x010E601D) [8090*]:
    → "Mother! I'm home!"
 27: 0x00B6 [0x23] WAIT_FOR_DIALOG_INTERACTION
 28: 0x00B7 [0x45] LOAD_SCHEDULED_TASK: Load scheduler "s032" with entities [LocalPlayer, LocalPlayer], work=[130*, 0*]
 29: 0x00C8 [0x4A] LocalPlayer looks at Raminel (ID: 17719325/0x010E601D)
 30: 0x00D1 [0x4A] Nenne (ID: 17719324/0x010E601C) looks at Raminel (ID: 17719325/0x010E601D)
 31: 0x00DA [0x27] REQ_SET(priority=0x64, entity_id=Door:House (ID: 17719458/0x010E60A2), tag_num=0x02)
 32: 0x00E1 [0x27] REQ_SET(priority=0x5A, entity_id=Raminel (ID: 17719325/0x010E601D), tag_num=0x03)
 33: 0x00E8 [0x2A] GET_REQ_LEVEL(level=90, entity_id=Raminel (ID: 17719325/0x010E601D))
 34: 0x00EE [0x27] REQ_SET(priority=0x64, entity_id=Door:House (ID: 17719458/0x010E60A2), tag_num=0x03)
 35: 0x00F5 [0x1C] WAIT(45* ticks)
 36: 0x00F8 [0x1E] EventEntity looks at Raminel (ID: 17719325/0x010E601D) and starts talking
 37: 0x00FD [0x6F] WAIT_FRAME_DELAY: Yield until WaitTime reaches zero
 38: 0x00FE [0x70] WAIT_ENTITY_RENDER_FLAG: Wait while EventEntity->Render.Flags3 bit 2 is set (cancel turn if not)
 39: 0x00FF [0x5B] LOAD_EXT_SCHEDULER: Load scheduler "thk1" with entities [EventEntity, EventEntity], work=35*
 40: 0x010E [0x1D] PRINT_EVENT_MESSAGE(message_id=8091*)
    → "Raminel! B-back from work so soon?"
 41: 0x0111 [0x23] WAIT_FOR_DIALOG_INTERACTION
 42: 0x0112 [0x27] REQ_SET(priority=0x66, entity_id=LocalPlayer, tag_num=0x25)
 43: 0x0119 [0x5B] LOAD_EXT_SCHEDULER: Load scheduler "thk2" with entities [EventEntity, EventEntity], work=35*
 44: 0x0128 [0x53] WAIT_SCHEDULER_TASK: Wait for scheduler "thk2" with entities [EventEntity, EventEntity]
 45: 0x0135 [0x1C] WAIT(30* ticks)
 46: 0x0138 [0x45] LOAD_SCHEDULED_TASK: Load scheduler "s033" with entities [LocalPlayer, LocalPlayer], work=[130*, 0*]
 47: 0x0149 [0x5B] LOAD_EXT_SCHEDULER: Load scheduler "tlk0" with entities [Raminel (ID: 17719325/0x010E601D), Raminel (ID: 17719325/0x010E601D)], work=75*
 48: 0x0158 [0x2B] Raminel (ID: 17719325/0x010E601D) [8092*]:
    → "I was passing through, so I wanted to stop by and see how you were. You should be in bed resting, Mother."
 49: 0x015F [0x23] WAIT_FOR_DIALOG_INTERACTION
 50: 0x0160 [0x45] LOAD_SCHEDULED_TASK: Load scheduler "s034" with entities [LocalPlayer, LocalPlayer], work=[130*, 0*]
 51: 0x0171 [0x5B] LOAD_EXT_SCHEDULER: Load scheduler "thk1" with entities [EventEntity, EventEntity], work=35*
 52: 0x0180 [0x1D] PRINT_EVENT_MESSAGE(message_id=8093*)
    → "Oh, I'm...fine, really... You shouldn't...shouldn't worry...about me so much."
 53: 0x0183 [0x23] WAIT_FOR_DIALOG_INTERACTION
 54: 0x0184 [0x27] REQ_SET(priority=0x66, entity_id=LocalPlayer, tag_num=0x24)
 55: 0x018B [0x5B] LOAD_EXT_SCHEDULER: Load scheduler "thk2" with entities [EventEntity, EventEntity], work=35*
 56: 0x019A [0x53] WAIT_SCHEDULER_TASK: Wait for scheduler "thk2" with entities [EventEntity, EventEntity]
 57: 0x01A7 [0x5B] LOAD_EXT_SCHEDULER: Load scheduler "tlk0" with entities [Raminel (ID: 17719325/0x010E601D), Raminel (ID: 17719325/0x010E601D)], work=75*
 58: 0x01B6 [0x2B] Raminel (ID: 17719325/0x010E601D) [8094*]:
    → "You're not fine, Mother! You should stay in bed until I save enough money, and get you the medicine for your Davoi-fever."
 59: 0x01BD [0x23] WAIT_FOR_DIALOG_INTERACTION
 60: 0x01BE [0x5B] LOAD_EXT_SCHEDULER: Load scheduler "thk1" with entities [EventEntity, EventEntity], work=35*
 61: 0x01CD [0x1D] PRINT_EVENT_MESSAGE(message_id=8095*)
    → "Oh, Raminel, you're too kind...too kind to me!"
 62: 0x01D0 [0x23] WAIT_FOR_DIALOG_INTERACTION
 63: 0x01D1 [0x5B] LOAD_EXT_SCHEDULER: Load scheduler "thk2" with entities [EventEntity, EventEntity], work=35*
 64: 0x01E0 [0x53] WAIT_SCHEDULER_TASK: Wait for scheduler "thk2" with entities [EventEntity, EventEntity]
 65: 0x01ED [0x1C] WAIT(30* ticks)
 66: 0x01F0 [0x5B] LOAD_EXT_SCHEDULER: Load scheduler "tlk0" with entities [Raminel (ID: 17719325/0x010E601D), Raminel (ID: 17719325/0x010E601D)], work=75*
 67: 0x01FF [0x2B] Raminel (ID: 17719325/0x010E601D) [8096*]:
    → "I have to make a few more deliveries. Get your rest, Mother."
 68: 0x0206 [0x23] WAIT_FOR_DIALOG_INTERACTION
 69: 0x0207 [0x45] LOAD_SCHEDULED_TASK: Load scheduler "s035" with entities [LocalPlayer, LocalPlayer], work=[130*, 0*]
 70: 0x0218 [0x27] REQ_SET(priority=0x5C, entity_id=Raminel (ID: 17719325/0x010E601D), tag_num=0x04)
 71: 0x021F [0x1C] WAIT(60* ticks)
 72: 0x0222 [0x27] REQ_SET(priority=0x66, entity_id=LocalPlayer, tag_num=0x25)
 73: 0x0229 [0x27] REQ_SET(priority=0x64, entity_id=Door:House (ID: 17719458/0x010E60A2), tag_num=0x02)
 74: 0x0230 [0x2A] GET_REQ_LEVEL(level=92, entity_id=Raminel (ID: 17719325/0x010E601D))
 75: 0x0236 [0x1C] WAIT(60* ticks)
 76: 0x0239 [0x27] REQ_SET(priority=0x5C, entity_id=Raminel (ID: 17719325/0x010E601D), tag_num=0x05)
 77: 0x0240 [0x45] LOAD_SCHEDULED_TASK: Load scheduler "fdo1" with entities [EventEntity, EventEntity], work=[200*, 0*]
 78: 0x0251 [0x1C] WAIT(60* ticks)
 79: 0x0254 [0x2A] GET_REQ_LEVEL(level=92, entity_id=Raminel (ID: 17719325/0x010E601D))
 80: 0x025A [0x27] REQ_SET(priority=0x64, entity_id=Door:House (ID: 17719458/0x010E60A2), tag_num=0x03)
 81: 0x0261 [0x2A] GET_REQ_LEVEL(level=100, entity_id=Door:House (ID: 17719458/0x010E60A2))
 82: 0x0267 [0x45] LOAD_SCHEDULED_TASK: Load scheduler "fdi1" with entities [EventEntity, EventEntity], work=[200*, 0*]
 83: 0x0278 [0x46] CAMERA_CONTROL: Restore default settings
 84: 0x027A [0x21] END_EVENT
 85: 0x027B [0x00] END_REQSTACK()
```

### Event 65535.1

#### Metadata

| Field        | Value   |
|--------------|---------|
| Entrypoint   | 0x027C  |
| Data Size    | 1 bytes |
| Instructions | 1       |

```
      00 01 02 03 04 05 06 07  08 09 0A 0B 0C 0D 0E 0F
      -- -- -- -- -- -- -- --  -- -- -- -- -- -- -- --
0270:                                      00                       .   
```

#### Opcodes

```
  0: 0x027C [0x00] END_REQSTACK()
```

### Event 65535.2

#### Metadata

| Field        | Value   |
|--------------|---------|
| Entrypoint   | 0x027D  |
| Data Size    | 1 bytes |
| Instructions | 1       |

```
      00 01 02 03 04 05 06 07  08 09 0A 0B 0C 0D 0E 0F
      -- -- -- -- -- -- -- --  -- -- -- -- -- -- -- --
0270:                                         00                     .  
```

#### Opcodes

```
  0: 0x027D [0x00] END_REQSTACK()
```

### Event 584

#### Metadata

| Field        | Value     |
|--------------|-----------|
| Entrypoint   | 0x027E    |
| Data Size    | 209 bytes |
| Instructions | 46        |

```
      00 01 02 03 04 05 06 07  08 09 0A 0B 0C 0D 0E 0F
      -- -- -- -- -- -- -- --  -- -- -- -- -- -- -- --
0270:                                            1E F0                ..
0280: FF FF 7F 6F 70 5B 05 80  F8 FF FF 7F F8 FF FF 7F  ...op[..........
0290: 74 68 6B 31 1D 13 80 23  5B 05 80 F8 FF FF 7F F8  thk1...#[.......
02A0: FF FF 7F 74 68 6B 32 53  F8 FF FF 7F F8 FF FF 7F  ...thk2S........
02B0: 74 68 6B 32 1C 07 80 24  14 80 03 80 03 80 25 02  thk2...$......%.
02C0: 00 10 03 80 00 F3 02 5B  05 80 F8 FF FF 7F F8 FF  .......[........
02D0: FF 7F 74 6C 6B 30 1D 15  80 23 1C 07 80 1D 16 80  ..tlk0...#......
02E0: 23 1C 07 80 1D 17 80 23  5E 69 64 6C 30 1C 07 80  #......#^idl0...
02F0: 01 4D 03 02 00 10 18 80  00 27 03 5B 05 80 F8 FF  .M.......'.[....
0300: FF 7F F8 FF FF 7F 74 6C  6B 30 1D 19 80 23 1C 07  ......tlk0...#..
0310: 80 1D 1A 80 23 1C 07 80  1D 1B 80 23 5E 69 64 6C  ....#......#^idl
0320: 30 1C 07 80 01 4D 03 02  00 10 1C 80 00 4D 03 5B  0....M.......M.[
0330: 05 80 F8 FF FF 7F F8 FF  FF 7F 74 6C 6B 30 1D 1D  ..........tlk0..
0340: 80 23 5E 69 64 6C 30 1C  07 80 01 4D 03 21 00     .#^idl0....M.!. 
```

#### Opcodes

```
  0: 0x027E [0x1E] EventEntity looks at LocalPlayer and starts talking
  1: 0x0283 [0x6F] WAIT_FRAME_DELAY: Yield until WaitTime reaches zero
  2: 0x0284 [0x70] WAIT_ENTITY_RENDER_FLAG: Wait while EventEntity->Render.Flags3 bit 2 is set (cancel turn if not)
  3: 0x0285 [0x5B] LOAD_EXT_SCHEDULER: Load scheduler "thk1" with entities [EventEntity, EventEntity], work=35*
  4: 0x0294 [0x1D] PRINT_EVENT_MESSAGE(message_id=8097*)
    → "I'm sorry... What were we talking about?"
  5: 0x0297 [0x23] WAIT_FOR_DIALOG_INTERACTION
  6: 0x0298 [0x5B] LOAD_EXT_SCHEDULER: Load scheduler "thk2" with entities [EventEntity, EventEntity], work=35*
  7: 0x02A7 [0x53] WAIT_SCHEDULER_TASK: Wait for scheduler "thk2" with entities [EventEntity, EventEntity]
  8: 0x02B4 [0x1C] WAIT(30* ticks)
  9: 0x02B7 [0x24] CREATE_DIALOG(message_id=8098*, default_option=0*, option_flags=0*)
    → "What were we talking about? [Tell me about your son./Tell me about yourself./Do you have any other family?]"
 10: 0x02BE [0x25] WAIT_DIALOG_SELECT()
 11: 0x02BF [0x02] IF !(Work_Zone[0] == 0*) GOTO 0x02F3
 12: 0x02C7 [0x5B] LOAD_EXT_SCHEDULER: Load scheduler "tlk0" with entities [EventEntity, EventEntity], work=35*
 13: 0x02D6 [0x1D] PRINT_EVENT_MESSAGE(message_id=8099*)
    → "I can't move about much on account--on account of my illness, so Raminel does his delivery work to support us."
 14: 0x02D9 [0x23] WAIT_FOR_DIALOG_INTERACTION
 15: 0x02DA [0x1C] WAIT(30* ticks)
 16: 0x02DD [0x1D] PRINT_EVENT_MESSAGE(message_id=8100*)
    → "The physician told me I have--have the Davoi-fever: a disease that attacks the lungs, only found in this part of the world."
 17: 0x02E0 [0x23] WAIT_FOR_DIALOG_INTERACTION
 18: 0x02E1 [0x1C] WAIT(30* ticks)
 19: 0x02E4 [0x1D] PRINT_EVENT_MESSAGE(message_id=8101*)
    → "Do not worry, it isn't contagious; I still live with my son, after all. But I can't--I can't stop coughing!"
 20: 0x02E7 [0x23] WAIT_FOR_DIALOG_INTERACTION
 21: 0x02E8 [0x5E] EventEntity goes idle (kills current action) (animation: "idl0")
 22: 0x02ED [0x1C] WAIT(30* ticks)
 23: 0x02F0 [0x01] GOTO 0x034D
 24: 0x02F3 [0x02] IF !(Work_Zone[0] == 1*) GOTO 0x0327
 25: 0x02FB [0x5B] LOAD_EXT_SCHEDULER: Load scheduler "tlk0" with entities [EventEntity, EventEntity], work=35*
 26: 0x030A [0x1D] PRINT_EVENT_MESSAGE(message_id=8102*)
    → "Long ago, I was a sister in the abbey at Davoi."
 27: 0x030D [0x23] WAIT_FOR_DIALOG_INTERACTION
 28: 0x030E [0x1C] WAIT(30* ticks)
 29: 0x0311 [0x1D] PRINT_EVENT_MESSAGE(message_id=8103*)
    → "But one day, Orcs raided the village--a great army. They took the abbey, and I...no, all of the sisters, were driven from our home."
 30: 0x0314 [0x23] WAIT_FOR_DIALOG_INTERACTION
 31: 0x0315 [0x1C] WAIT(30* ticks)
 32: 0x0318 [0x1D] PRINT_EVENT_MESSAGE(message_id=8104*)
    → "I heard later that the abbey had fallen into ruin. I would not wish to see it now, for fear my heart would break..."
 33: 0x031B [0x23] WAIT_FOR_DIALOG_INTERACTION
 34: 0x031C [0x5E] EventEntity goes idle (kills current action) (animation: "idl0")
 35: 0x0321 [0x1C] WAIT(30* ticks)
 36: 0x0324 [0x01] GOTO 0x034D
 37: 0x0327 [0x02] IF !(Work_Zone[0] == 2*) GOTO 0x034D
 38: 0x032F [0x5B] LOAD_EXT_SCHEDULER: Load scheduler "tlk0" with entities [EventEntity, EventEntity], work=35*
 39: 0x033E [0x1D] PRINT_EVENT_MESSAGE(message_id=8105*)
    → "I dwell here with my son Raminel. My husband passed away five years ago."
 40: 0x0341 [0x23] WAIT_FOR_DIALOG_INTERACTION
 41: 0x0342 [0x5E] EventEntity goes idle (kills current action) (animation: "idl0")
 42: 0x0347 [0x1C] WAIT(30* ticks)
 43: 0x034A [0x01] GOTO 0x034D

SUBROUTINE_034D:
 44: 0x034D [0x21] END_EVENT
 45: 0x034E [0x00] END_REQSTACK()
```

### Event 647

#### Metadata

| Field        | Value     |
|--------------|-----------|
| Entrypoint   | 0x034F    |
| Data Size    | 109 bytes |
| Instructions | 19        |

```
      00 01 02 03 04 05 06 07  08 09 0A 0B 0C 0D 0E 0F
      -- -- -- -- -- -- -- --  -- -- -- -- -- -- -- --
0340:                                               42                 B
0350: 1E F0 FF FF 7F 6F 70 5B  05 80 F8 FF FF 7F F8 FF  .....op[........
0360: FF 7F 74 68 6B 31 03 02  10 1E 80 1D 1F 80 23 5B  ..thk1........#[
0370: 05 80 F8 FF FF 7F F8 FF  FF 7F 74 68 6B 32 53 F8  ..........thk2S.
0380: FF FF 7F F8 FF FF 7F 74  68 6B 32 1C 07 80 5B 05  .......thk2...[.
0390: 80 F8 FF FF 7F F8 FF FF  7F 74 6C 6B 30 1D 20 80  .........tlk0. .
03A0: 23 5E 69 64 6C 30 45 21  80 F0 FF FF 7F F0 FF FF  #^idl0E!........
03B0: 7F 71 73 74 63 03 80 1C  07 80 21 00              .qstc.....!.    
```

#### Opcodes

```
  0: 0x034F [0x42] SET_CLI_EVENT_CANCEL_DATA()
  1: 0x0350 [0x1E] EventEntity looks at LocalPlayer and starts talking
  2: 0x0355 [0x6F] WAIT_FRAME_DELAY: Yield until WaitTime reaches zero
  3: 0x0356 [0x70] WAIT_ENTITY_RENDER_FLAG: Wait while EventEntity->Render.Flags3 bit 2 is set (cancel turn if not)
  4: 0x0357 [0x5B] LOAD_EXT_SCHEDULER: Load scheduler "thk1" with entities [EventEntity, EventEntity], work=35*
  5: 0x0366 [0x03] Work_Zone[2] = 154*
  6: 0x036B [0x1D] PRINT_EVENT_MESSAGE(message_id=7983*)
    → "This...<cough>...This is $6! But, I cannot accept something so precious without pay...paying!"
  7: 0x036E [0x23] WAIT_FOR_DIALOG_INTERACTION
  8: 0x036F [0x5B] LOAD_EXT_SCHEDULER: Load scheduler "thk2" with entities [EventEntity, EventEntity], work=35*
  9: 0x037E [0x53] WAIT_SCHEDULER_TASK: Wait for scheduler "thk2" with entities [EventEntity, EventEntity]
 10: 0x038B [0x1C] WAIT(30* ticks)
 11: 0x038E [0x5B] LOAD_EXT_SCHEDULER: Load scheduler "tlk0" with entities [EventEntity, EventEntity], work=35*
 12: 0x039D [0x1D] PRINT_EVENT_MESSAGE(message_id=7984*)
    → "But I have little money. Here, this belonged to my late husband. Perhaps it will be of some use to you."
 13: 0x03A0 [0x23] WAIT_FOR_DIALOG_INTERACTION
 14: 0x03A1 [0x5E] EventEntity goes idle (kills current action) (animation: "idl0")
 15: 0x03A6 [0x45] LOAD_SCHEDULED_TASK: Load scheduler "qstc" with entities [LocalPlayer, LocalPlayer], work=[201*, 0*]
 16: 0x03B7 [0x1C] WAIT(30* ticks)
 17: 0x03BA [0x21] END_EVENT
 18: 0x03BB [0x00] END_REQSTACK()
```
