# 17719564 - Poudoruchant

## Common Data

| Field            | Value                         |
|------------------|-------------------------------|
| Zone             | Southern San d'Oria (ID: 230) |
| Block Size       | 5496 bytes                    |
| Total Events     | 3                             |
| References Count | 279                           |

## List of Events

| Event ID              | Entrypoint   |   Size |   Instructions |
|-----------------------|--------------|--------|----------------|
| [65535](#event-65535) | 0x0000       |      1 |              1 |
| [779](#event-779)     | 0x0001       |   3100 |            682 |
| [778](#event-778)     | 0x0C1D       |   1249 |            270 |

## DAT References (imed_data)

|   Index | Hex Value   |   Dec Value |
|---------|-------------|-------------|
|       0 | 0x00FA      |         250 |
|       1 | 0x27D8      |       10200 |
|       2 | 0x27D9      |       10201 |
|       3 | 0x0000      |           0 |
|       4 | 0x40000000  |  1073741824 |
|       5 | 0x0001      |           1 |
|       6 | 0x27DA      |       10202 |
|       7 | 0x27DB      |       10203 |
|       8 | 0x27DC      |       10204 |
|       9 | 0x27DF      |       10207 |
|      10 | 0x27EB      |       10219 |
|      11 | 0x27EC      |       10220 |
|      12 | 0x27F2      |       10226 |
|      13 | 0x27F3      |       10227 |
|      14 | 0x27F4      |       10228 |
|      15 | 0x27F5      |       10229 |
|      16 | 0x27F6      |       10230 |
|      17 | 0x0002      |           2 |
|      18 | 0x27DD      |       10205 |
|      19 | 0x27FE      |       10238 |
|      20 | 0x27FF      |       10239 |
|      21 | 0x2800      |       10240 |
|      22 | 0x2801      |       10241 |
|      23 | 0x2802      |       10242 |
|      24 | 0x2803      |       10243 |
|      25 | 0x27E0      |       10208 |
|      26 | 0x0003      |           3 |
|      27 | 0x27ED      |       10221 |
|      28 | 0x27EF      |       10223 |
|      29 | 0x0004      |           4 |
|      30 | 0x27F0      |       10224 |
|      31 | 0x0005      |           5 |
|      32 | 0x27E4      |       10212 |
|      33 | 0x27E5      |       10213 |
|      34 | 0x27E6      |       10214 |
|      35 | 0x27E7      |       10215 |
|      36 | 0x27E8      |       10216 |
|      37 | 0x27F7      |       10231 |
|      38 | 0x27F8      |       10232 |
|      39 | 0x003E      |          62 |
|      40 | 0x27FD      |       10237 |
|      41 | 0xFFFFFFFE  |  4294967294 |
|      42 | 0x27F9      |       10233 |
|      43 | 0x0006      |           6 |
|      44 | 0x0007      |           7 |
|      45 | 0x0008      |           8 |
|      46 | 0x0009      |           9 |
|      47 | 0x000A      |          10 |
|      48 | 0x000B      |          11 |
|      49 | 0x000C      |          12 |
|      50 | 0x000D      |          13 |
|      51 | 0x000E      |          14 |
|      52 | 0x000F      |          15 |
|      53 | 0x0010      |          16 |
|      54 | 0x0011      |          17 |
|      55 | 0x0012      |          18 |
|      56 | 0x0013      |          19 |
|      57 | 0x0014      |          20 |
|      58 | 0x0015      |          21 |
|      59 | 0x0016      |          22 |
|      60 | 0x0017      |          23 |
|      61 | 0x0018      |          24 |
|      62 | 0x0019      |          25 |
|      63 | 0x001A      |          26 |
|      64 | 0x001B      |          27 |
|      65 | 0x001C      |          28 |
|      66 | 0x001D      |          29 |
|      67 | 0x001E      |          30 |
|      68 | 0x001F      |          31 |
|      69 | 0x0020      |          32 |
|      70 | 0xFFFFFFFF  |  4294967295 |
|      71 | 0x0030      |          48 |
|      72 | 0x27FA      |       10234 |
|      73 | 0x27FB      |       10235 |
|      74 | 0x0060      |          96 |
|      75 | 0x005C      |          92 |
|      76 | 0x0021      |          33 |
|      77 | 0x005D      |          93 |
|      78 | 0x0022      |          34 |
|      79 | 0x005E      |          94 |
|      80 | 0x0023      |          35 |
|      81 | 0x005F      |          95 |
|      82 | 0x0050      |          80 |
|      83 | 0x0031      |          49 |
|      84 | 0x0051      |          81 |
|      85 | 0x0032      |          50 |
|      86 | 0x0052      |          82 |
|      87 | 0x002F      |          47 |
|      88 | 0x0040      |          64 |
|      89 | 0x0054      |          84 |
|      90 | 0x0041      |          65 |
|      91 | 0x0055      |          85 |
|      92 | 0x0042      |          66 |
|      93 | 0x0056      |          86 |
|      94 | 0x0043      |          67 |
|      95 | 0x0057      |          87 |
|      96 | 0x0044      |          68 |
|      97 | 0x0058      |          88 |
|      98 | 0x0045      |          69 |
|      99 | 0x007E      |         126 |
|     100 | 0x0046      |          70 |
|     101 | 0x007F      |         127 |
|     102 | 0x27FC      |       10236 |
|     103 | 0x0073      |         115 |
|     104 | 0x0074      |         116 |
|     105 | 0x0075      |         117 |
|     106 | 0x0076      |         118 |
|     107 | 0x0077      |         119 |
|     108 | 0x00C1      |         193 |
|     109 | 0x009A      |         154 |
|     110 | 0x00CC      |         204 |
|     111 | 0x00CB      |         203 |
|     112 | 0x00CD      |         205 |
|     113 | 0x008C      |         140 |
|     114 | 0x008D      |         141 |
|     115 | 0x009B      |         155 |
|     116 | 0x00C0      |         192 |
|     117 | 0x00B3      |         179 |
|     118 | 0x0143      |         323 |
|     119 | 0x0144      |         324 |
|     120 | 0x0145      |         325 |
|     121 | 0x00B0      |         176 |
|     122 | 0x00B1      |         177 |
|     123 | 0x00B2      |         178 |
|     124 | 0x00B4      |         180 |
|     125 | 0x00D7      |         215 |
|     126 | 0x00C4      |         196 |
|     127 | 0x00C5      |         197 |
|     128 | 0x00C7      |         199 |
|     129 | 0x0140      |         320 |
|     130 | 0x019F      |         415 |
|     131 | 0x42B2      |       17074 |
|     132 | 0x449D      |       17565 |
|     133 | 0x449E      |       17566 |
|     134 | 0x44B4      |       17588 |
|     135 | 0x45A6      |       17830 |
|     136 | 0x45A7      |       17831 |
|     137 | 0x46B6      |       18102 |
|     138 | 0x46B7      |       18103 |
|     139 | 0x47E0      |       18400 |
|     140 | 0x4804      |       18436 |
|     141 | 0x47E1      |       18401 |
|     142 | 0x499E      |       18846 |
|     143 | 0x499D      |       18845 |
|     144 | 0x4809      |       18441 |
|     145 | 0x4554      |       17748 |
|     146 | 0x4555      |       17749 |
|     147 | 0x3F36      |       16182 |
|     148 | 0x3F37      |       16183 |
|     149 | 0x49AF      |       18863 |
|     150 | 0x49B0      |       18864 |
|     151 | 0x365C      |       13916 |
|     152 | 0x365D      |       13917 |
|     153 | 0x3B48      |       15176 |
|     154 | 0x3B49      |       15177 |
|     155 | 0x3B4A      |       15178 |
|     156 | 0x3B4B      |       15179 |
|     157 | 0x3B5E      |       15198 |
|     158 | 0x3B5F      |       15199 |
|     159 | 0x3B64      |       15204 |
|     160 | 0x3ECB      |       16075 |
|     161 | 0x3ECC      |       16076 |
|     162 | 0x3EED      |       16109 |
|     163 | 0x3EF6      |       16118 |
|     164 | 0x3EF7      |       16119 |
|     165 | 0x3EF8      |       16120 |
|     166 | 0x3F10      |       16144 |
|     167 | 0x3F11      |       16145 |
|     168 | 0x2CE3      |       11491 |
|     169 | 0x2CEC      |       11500 |
|     170 | 0x35FB      |       13819 |
|     171 | 0x35FD      |       13821 |
|     172 | 0x35FC      |       13820 |
|     173 | 0x35FE      |       13822 |
|     174 | 0x3872      |       14450 |
|     175 | 0x3879      |       14457 |
|     176 | 0x3C30      |       15408 |
|     177 | 0x3C37      |       15415 |
|     178 | 0x3873      |       14451 |
|     179 | 0x387A      |       14458 |
|     180 | 0x3C31      |       15409 |
|     181 | 0x3C38      |       15416 |
|     182 | 0x3874      |       14452 |
|     183 | 0x387B      |       14459 |
|     184 | 0x3C32      |       15410 |
|     185 | 0x3C39      |       15417 |
|     186 | 0x3875      |       14453 |
|     187 | 0x387C      |       14460 |
|     188 | 0x3C33      |       15411 |
|     189 | 0x3C3A      |       15418 |
|     190 | 0x3876      |       14454 |
|     191 | 0x387D      |       14461 |
|     192 | 0x3C34      |       15412 |
|     193 | 0x3C3B      |       15419 |
|     194 | 0x3887      |       14471 |
|     195 | 0x3888      |       14472 |
|     196 | 0x3C3F      |       15423 |
|     197 | 0x3C40      |       15424 |
|     198 | 0x3877      |       14455 |
|     199 | 0x387E      |       14462 |
|     200 | 0x3C35      |       15413 |
|     201 | 0x3C3C      |       15420 |
|     202 | 0x3878      |       14456 |
|     203 | 0x387F      |       14463 |
|     204 | 0x3C36      |       15414 |
|     205 | 0x3C3D      |       15421 |
|     206 | 0x38B7      |       14519 |
|     207 | 0x38B8      |       14520 |
|     208 | 0x38C4      |       14532 |
|     209 | 0x38C6      |       14534 |
|     210 | 0x38C5      |       14533 |
|     211 | 0x38C7      |       14535 |
|     212 | 0x3D88      |       15752 |
|     213 | 0x3D89      |       15753 |
|     214 | 0x2C01      |       11265 |
|     215 | 0x2C09      |       11273 |
|     216 | 0x3FC1      |       16321 |
|     217 | 0x3FC9      |       16329 |
|     218 | 0x2C02      |       11266 |
|     219 | 0x2C0A      |       11274 |
|     220 | 0x3FC2      |       16322 |
|     221 | 0x3FCA      |       16330 |
|     222 | 0x2C03      |       11267 |
|     223 | 0x2C0B      |       11275 |
|     224 | 0x3FC3      |       16323 |
|     225 | 0x3FCB      |       16331 |
|     226 | 0x2C04      |       11268 |
|     227 | 0x2C0C      |       11276 |
|     228 | 0x3FC4      |       16324 |
|     229 | 0x3FCC      |       16332 |
|     230 | 0x2C05      |       11269 |
|     231 | 0x2C0D      |       11277 |
|     232 | 0x3FC5      |       16325 |
|     233 | 0x3FCD      |       16333 |
|     234 | 0x2C06      |       11270 |
|     235 | 0x2C0E      |       11278 |
|     236 | 0x3FC6      |       16326 |
|     237 | 0x3FCE      |       16334 |
|     238 | 0x2C07      |       11271 |
|     239 | 0x2C0F      |       11279 |
|     240 | 0x3FC7      |       16327 |
|     241 | 0x3FCF      |       16335 |
|     242 | 0x2C08      |       11272 |
|     243 | 0x2C10      |       11280 |
|     244 | 0x3FC8      |       16328 |
|     245 | 0x3FD0      |       16336 |
|     246 | 0x2C24      |       11300 |
|     247 | 0x2C25      |       11301 |
|     248 | 0x2C1A      |       11290 |
|     249 | 0x2C34      |       11316 |
|     250 | 0x2C36      |       11318 |
|     251 | 0x2C35      |       11317 |
|     252 | 0x2C37      |       11319 |
|     253 | 0x2C5B      |       11355 |
|     254 | 0x3FFA      |       16378 |
|     255 | 0x0108      |         264 |
|     256 | 0x01C7      |         455 |
|     257 | 0x0109      |         265 |
|     258 | 0x010A      |         266 |
|     259 | 0x010B      |         267 |
|     260 | 0x01C8      |         456 |
|     261 | 0x01C9      |         457 |
|     262 | 0x01CA      |         458 |
|     263 | 0x008A      |         138 |
|     264 | 0x010D      |         269 |
|     265 | 0x0E39      |        3641 |
|     266 | 0x0E3A      |        3642 |
|     267 | 0x010E      |         270 |
|     268 | 0x010F      |         271 |
|     269 | 0x0E3B      |        3643 |
|     270 | 0x0E3C      |        3644 |
|     271 | 0x0E3D      |        3645 |
|     272 | 0x00B5      |         181 |
|     273 | 0x00B6      |         182 |
|     274 | 0x00B7      |         183 |
|     275 | 0x0E26      |        3622 |
|     276 | 0x0E27      |        3623 |
|     277 | 0x0E28      |        3624 |
|     278 | 0x0E3E      |        3646 |

## String References

- **10200**: Do you have any items that you just can't let go of because of the fond memories attached to them? Are you worried about the space they take up in your Mog House? Well, worry no longer--I can store your items here!
- **10201**: Do you require my services? [Not now, thanks./Tell me what I can store./Remove an item from storage.]
- **10202**: Please select which type of item you would like to know about.
- **10203**: Which type of item? [I've changed my mind./Furnishings 1./Furnishings 2./Weapons and shields./Armor - Head./Armor - Body, Legs, Feet.]
- **10204**: I am currently offering storage service for the following '[Furnishings/Weapons and Shields/Armor/Armor]: 1. %". $1
- **10205**: I am currently offering storage service for the following '[Furnishings/Weapons and Shields/Armor/Armor]: 1. %
- **10207**: 3. $2 4. $3 5. $4 6. $5
- **10208**: To store an item, trade it to me.
- **10212**: 7. $6 8. $7 9. $8
- **10213**: 10. $9 11. $10 12. $11
- **10214**: 13. $12 14. $13 15. $14
- **10215**: 16. $15 17. $16 18. $17
- **10216**: 19. $18"0. $19"1. $20"2. $21"3. $22 To store an item, trade it to me.
- **10219**: 7. $6 8. $7 9. $8
- **10220**: 10. $9 11. $10 12. $11 13. $12
- **10221**: 14. $13 15. $14 16. $15
- **10223**: 17. $16 18. $17 19. $18"0. $19 To store an item, trade it to me.
- **10224**: 17. $16 18. $17 19. $18 To store an item, trade it to me.
- **10226**: 14. $13 15. $14 16. $15 17. $16
- **10227**: 18. $17 19. $18"0. $19"1. $20
- **10228**: 22. $21"3. $22"4. $23"5. $24
- **10229**: 26. $25"7. $26"8. $27"9. $28
- **10230**: 30. $29"1. $30 To store an item, trade it to me.
- **10231**: Withdrawing an item will cost 250 gil.
- **10232**: Please note that upon withdrawal, the recast time for enchanted items will be reset to the maximum level.
- **10233**: Remove which item from storage? [I've changed my mind./#./$1./$2./$3./$4./$5./$6./$7./$8./$9./$10./$11./$12./$13./$14./$15./$16./$17./$18./$19./$20./$21./$22./$23./$24./$25./$26./$27./$28./$29./$30.]
- **10234**: A fee of 250 gil is required. Will you remove the $0 from storage?
- **10235**: Do you wish to pay the fee? [Yes./Not at this time.]
- **10236**: Do not worry. Your $0 is in good hands.
- **10237**: You currently have no items in storage.
- **10238**: 2. $1". $2 4. $3 5. $4
- **10239**: 6. $5 7. $6 8. $7 9. $8
- **10240**: 10. $9 11. $10 12. $11 13. $12 14. $13
- **10241**: 15. $14 16. $15 17. $16
- **10242**: 18. $17 19. $18"0. $19
- **10243**: 21. $20"2. $21"3. $22"4. $23

## Events

### Event 65535

#### Metadata

| Field        | Value   |
|--------------|---------|
| Entrypoint   | 0x0000  |
| Data Size    | 1 bytes |
| Instructions | 1       |

```
      00 01 02 03 04 05 06 07  08 09 0A 0B 0C 0D 0E 0F
      -- -- -- -- -- -- -- --  -- -- -- -- -- -- -- --
0000: 00                                                .               
```

#### Opcodes

```
  0: 0x0000 [0x00] END_REQSTACK()
```

### Event 779

#### Metadata

| Field        | Value      |
|--------------|------------|
| Entrypoint   | 0x0001     |
| Data Size    | 3100 bytes |
| Instructions | 130        |

```
      00 01 02 03 04 05 06 07  08 09 0A 0B 0C 0D 0E 0F
      -- -- -- -- -- -- -- --  -- -- -- -- -- -- -- --
0000:    03 17 17 00 80 1E F0  FF FF 7F 1D 01 80 23 24   .............#$
0010: 02 80 03 80 03 80 25 02  00 10 03 80 00 29 00 03  ......%......)..
0020: 01 10 04 80 21 00 01 1C  0C 02 00 10 05 80 00 50  ....!..........P
0030: 01 1D 06 80 23 24 07 80  03 80 03 80 25 02 00 10  ....#$......%...
0040: 03 80 00 4F 00 03 01 10  04 80 21 00 01 3E 01 02  ...O......!..>..
0050: 00 10 05 80 00 86 00 03  1F 17 03 80 1A 28 0C 1D  .............(..
0060: 08 80 23 1D 09 80 23 1D  0A 80 23 1D 0B 80 23 1D  ..#...#...#...#.
0070: 0C 80 23 1D 0D 80 23 1D  0E 80 23 1D 0F 80 23 1D  ..#...#...#...#.
0080: 10 80 23 01 3E 01 02 00  10 11 80 00 B9 00 03 1F  ..#.>...........
0090: 17 03 80 1A 6D 10 1D 12  80 23 1D 13 80 23 1D 14  ....m....#...#..
00A0: 80 23 1D 15 80 23 1D 16  80 23 1D 17 80 23 1D 18  .#...#...#...#..
00B0: 80 23 1D 19 80 23 01 3E  01 02 00 10 1A 80 00 E4  .#...#.>........
00C0: 00 03 1F 17 05 80 1A C4  0C 1D 08 80 23 1D 09 80  ............#...
00D0: 23 1D 0A 80 23 1D 0B 80  23 1D 1B 80 23 1D 1C 80  #...#...#...#...
00E0: 23 01 3E 01 02 00 10 1D  80 00 0F 01 03 1F 17 11  #.>.............
00F0: 80 1A 50 0D 1D 08 80 23  1D 09 80 23 1D 0A 80 23  ..P....#...#...#
0100: 1D 0B 80 23 1D 1B 80 23  1D 1E 80 23 01 3E 01 02  ...#...#...#.>..
0110: 00 10 1F 80 00 3E 01 03  1F 17 1A 80 1A D7 0D 1D  .....>..........
0120: 08 80 23 1D 09 80 23 1D  20 80 23 1D 21 80 23 1D  ..#...#. .#.!.#.
0130: 22 80 23 1D 23 80 23 1D  24 80 23 01 3E 01 1D 25  ".#.#.#.$.#.>..%
0140: 80 23 1D 26 80 23 03 01  10 04 80 21 00 01 1C 0C  .#.&.#.....!....
0150: 02 00 10 11 80 00 1C 0C  02 02 10 03 80 00 67 01  ..............g.
0160: 3C 00 00 05 80 05 80 02  07 10 03 80 00 76 01 3C  <............v.<
0170: 00 00 11 80 05 80 02 03  10 03 80 00 85 01 3C 00  ..............<.
0180: 00 1A 80 05 80 02 04 10  03 80 00 94 01 3C 00 00  .............<..
0190: 1D 80 05 80 02 05 10 03  80 00 A3 01 3C 00 00 1F  ............<...
01A0: 80 05 80 02 00 00 27 80  00 B6 01 1D 28 80 23 03  ......'.....(.#.
01B0: 01 10 04 80 21 00 24 07  80 03 80 00 00 25 02 00  ....!.$......%..
01C0: 10 03 80 00 D0 01 03 01  10 04 80 21 00 01 19 0C  ...........!....
01D0: 02 00 10 05 80 00 44 04  03 00 00 29 80 10 02 10  ......D....)....
01E0: 05 80 0F 00 00 02 10 1A  28 0C 24 2A 80 03 80 00  ........(.$*....
01F0: 00 25 02 00 10 03 80 00  04 02 03 01 10 04 80 21  .%.............!
0200: 00 01 04 04 02 00 10 05  80 00 14 02 03 02 10 02  ................
0210: 10 01 04 04 02 00 10 11  80 00 24 02 03 02 10 03  ..........$.....
0220: 10 01 04 04 02 00 10 1A  80 00 34 02 03 02 10 04  ..........4.....
0230: 10 01 04 04 02 00 10 1D  80 00 44 02 03 02 10 05  ..........D.....
0240: 10 01 04 04 02 00 10 1F  80 00 54 02 03 02 10 06  ..........T.....
0250: 10 01 04 04 02 00 10 2B  80 00 64 02 03 02 10 07  .......+..d.....
0260: 10 01 04 04 02 00 10 2C  80 00 74 02 03 02 10 08  .......,..t.....
0270: 10 01 04 04 02 00 10 2D  80 00 84 02 03 02 10 09  .......-........
0280: 10 01 04 04 02 00 10 2E  80 00 94 02 03 02 10 00  ................
0290: 17 01 04 04 02 00 10 2F  80 00 A4 02 03 02 10 01  ......./........
02A0: 17 01 04 04 02 00 10 30  80 00 B4 02 03 02 10 02  .......0........
02B0: 17 01 04 04 02 00 10 31  80 00 C4 02 03 02 10 03  .......1........
02C0: 17 01 04 04 02 00 10 32  80 00 D4 02 03 02 10 04  .......2........
02D0: 17 01 04 04 02 00 10 33  80 00 E4 02 03 02 10 05  .......3........
02E0: 17 01 04 04 02 00 10 34  80 00 F4 02 03 02 10 06  .......4........
02F0: 17 01 04 04 02 00 10 35  80 00 04 03 03 02 10 07  .......5........
0300: 17 01 04 04 02 00 10 36  80 00 14 03 03 02 10 08  .......6........
0310: 17 01 04 04 02 00 10 37  80 00 24 03 03 02 10 09  .......7..$.....
0320: 17 01 04 04 02 00 10 38  80 00 34 03 03 02 10 0A  .......8..4.....
0330: 17 01 04 04 02 00 10 39  80 00 44 03 03 02 10 0B  .......9..D.....
0340: 17 01 04 04 02 00 10 3A  80 00 54 03 03 02 10 0C  .......:..T.....
0350: 17 01 04 04 02 00 10 3B  80 00 64 03 03 02 10 0D  .......;..d.....
0360: 17 01 04 04 02 00 10 3C  80 00 74 03 03 02 10 0E  .......<..t.....
0370: 17 01 04 04 02 00 10 3D  80 00 84 03 03 02 10 0F  .......=........
0380: 17 01 04 04 02 00 10 3E  80 00 94 03 03 02 10 10  .......>........
0390: 17 01 04 04 02 00 10 3F  80 00 A4 03 03 02 10 11  .......?........
03A0: 17 01 04 04 02 00 10 40  80 00 B4 03 03 02 10 12  .......@........
03B0: 17 01 04 04 02 00 10 41  80 00 C4 03 03 02 10 13  .......A........
03C0: 17 01 04 04 02 00 10 42  80 00 D4 03 03 02 10 14  .......B........
03D0: 17 01 04 04 02 00 10 43  80 00 E4 03 03 02 10 15  .......C........
03E0: 17 01 04 04 02 00 10 44  80 00 F4 03 03 02 10 16  .......D........
03F0: 17 01 04 04 02 00 10 45  80 00 04 04 03 02 10 17  .......E........
0400: 17 01 04 04 03 01 10 00  10 07 01 10 46 80 02 01  ............F...
0410: 10 35 80 04 1B 04 07 01  10 47 80 93 02 10 1D 48  .5.......G.....H
0420: 80 23 93 03 80 24 49 80  05 80 03 80 25 02 00 10  .#...$I.....%...
0430: 05 80 00 3F 04 03 01 10  04 80 21 00 01 3F 04 21  ...?......!..?.!
0440: 00 01 19 0C 02 00 10 11  80 00 30 06 03 00 00 29  ..........0....)
0450: 80 10 07 10 05 80 0F 00  00 07 10 1A 6D 10 24 2A  ............m.$*
0460: 80 03 80 00 00 25 02 00  10 03 80 00 78 04 03 01  .....%......x...
0470: 10 04 80 21 00 01 F8 05  02 00 10 05 80 00 88 04  ...!............
0480: 03 02 10 02 10 01 F8 05  02 00 10 11 80 00 98 04  ................
0490: 03 02 10 03 10 01 F8 05  02 00 10 1A 80 00 A8 04  ................
04A0: 03 02 10 04 10 01 F8 05  02 00 10 1D 80 00 B8 04  ................
04B0: 03 02 10 05 10 01 F8 05  02 00 10 1F 80 00 C8 04  ................
04C0: 03 02 10 06 10 01 F8 05  02 00 10 2B 80 00 D8 04  ...........+....
04D0: 03 02 10 07 10 01 F8 05  02 00 10 2C 80 00 E8 04  ...........,....
04E0: 03 02 10 08 10 01 F8 05  02 00 10 2D 80 00 F8 04  ...........-....
04F0: 03 02 10 09 10 01 F8 05  02 00 10 2E 80 00 08 05  ................
0500: 03 02 10 00 17 01 F8 05  02 00 10 2F 80 00 18 05  .........../....
0510: 03 02 10 01 17 01 F8 05  02 00 10 30 80 00 28 05  ...........0..(.
0520: 03 02 10 02 17 01 F8 05  02 00 10 31 80 00 38 05  ...........1..8.
0530: 03 02 10 03 17 01 F8 05  02 00 10 32 80 00 48 05  ...........2..H.
0540: 03 02 10 04 17 01 F8 05  02 00 10 33 80 00 58 05  ...........3..X.
0550: 03 02 10 05 17 01 F8 05  02 00 10 34 80 00 68 05  ...........4..h.
0560: 03 02 10 06 17 01 F8 05  02 00 10 35 80 00 78 05  ...........5..x.
0570: 03 02 10 07 17 01 F8 05  02 00 10 36 80 00 88 05  ...........6....
0580: 03 02 10 08 17 01 F8 05  02 00 10 37 80 00 98 05  ...........7....
0590: 03 02 10 09 17 01 F8 05  02 00 10 38 80 00 A8 05  ...........8....
05A0: 03 02 10 0A 17 01 F8 05  02 00 10 39 80 00 B8 05  ...........9....
05B0: 03 02 10 0B 17 01 F8 05  02 00 10 3A 80 00 C8 05  ...........:....
05C0: 03 02 10 0C 17 01 F8 05  02 00 10 3B 80 00 D8 05  ...........;....
05D0: 03 02 10 0D 17 01 F8 05  02 00 10 3C 80 00 E8 05  ...........<....
05E0: 03 02 10 0E 17 01 F8 05  02 00 10 3D 80 00 F8 05  ...........=....
05F0: 03 02 10 0F 17 01 F8 05  03 01 10 00 10 07 01 10  ................
0600: 46 80 07 01 10 4A 80 93  02 10 1D 48 80 23 93 03  F....J.....H.#..
0610: 80 24 49 80 05 80 03 80  25 02 00 10 05 80 00 2B  .$I.....%......+
0620: 06 03 01 10 04 80 21 00  01 2B 06 21 00 01 19 0C  ......!..+.!....
0630: 02 00 10 1A 80 00 0B 08  03 00 00 29 80 10 03 10  ...........)....
0640: 05 80 0F 00 00 03 10 1A  C4 0C 24 2A 80 03 80 00  ..........$*....
0650: 00 25 02 00 10 03 80 00  64 06 03 01 10 04 80 21  .%......d......!
0660: 00 01 A4 07 02 00 10 05  80 00 74 06 03 02 10 02  ..........t.....
0670: 10 01 A4 07 02 00 10 11  80 00 84 06 03 02 10 03  ................
0680: 10 01 A4 07 02 00 10 1A  80 00 94 06 03 02 10 04  ................
0690: 10 01 A4 07 02 00 10 1D  80 00 A4 06 03 02 10 05  ................
06A0: 10 01 A4 07 02 00 10 1F  80 00 B4 06 03 02 10 06  ................
06B0: 10 01 A4 07 02 00 10 2B  80 00 C4 06 03 02 10 07  .......+........
06C0: 10 01 A4 07 02 00 10 2C  80 00 D4 06 03 02 10 08  .......,........
06D0: 10 01 A4 07 02 00 10 2D  80 00 E4 06 03 02 10 09  .......-........
06E0: 10 01 A4 07 02 00 10 2E  80 00 F4 06 03 02 10 00  ................
06F0: 17 01 A4 07 02 00 10 2F  80 00 04 07 03 02 10 01  ......./........
0700: 17 01 A4 07 02 00 10 30  80 00 14 07 03 02 10 02  .......0........
0710: 17 01 A4 07 02 00 10 31  80 00 24 07 03 02 10 03  .......1..$.....
0720: 17 01 A4 07 02 00 10 32  80 00 34 07 03 02 10 04  .......2..4.....
0730: 17 01 A4 07 02 00 10 33  80 00 44 07 03 02 10 05  .......3..D.....
0740: 17 01 A4 07 02 00 10 34  80 00 54 07 03 02 10 06  .......4..T.....
0750: 17 01 A4 07 02 00 10 35  80 00 64 07 03 02 10 07  .......5..d.....
0760: 17 01 A4 07 02 00 10 36  80 00 74 07 03 02 10 08  .......6..t.....
0770: 17 01 A4 07 02 00 10 37  80 00 84 07 03 02 10 09  .......7........
0780: 17 01 A4 07 02 00 10 38  80 00 94 07 03 02 10 0A  .......8........
0790: 17 01 A4 07 02 00 10 39  80 00 A4 07 03 02 10 0B  .......9........
07A0: 17 01 A4 07 03 01 10 00  10 07 01 10 34 80 02 01  ............4...
07B0: 10 45 80 00 BB 07 03 01  10 4B 80 02 01 10 4C 80  .E.......K....L.
07C0: 00 C8 07 03 01 10 4D 80  02 01 10 4E 80 00 D5 07  ......M....N....
07D0: 03 01 10 4F 80 02 01 10  50 80 00 E2 07 03 01 10  ...O....P.......
07E0: 51 80 93 02 10 1D 48 80  23 93 03 80 24 49 80 05  Q.....H.#...$I..
07F0: 80 03 80 25 02 00 10 05  80 00 06 08 03 01 10 04  ...%............
0800: 80 21 00 01 06 08 21 00  01 19 0C 02 00 10 1D 80  .!....!.........
0810: 00 D2 09 03 00 00 29 80  10 04 10 05 80 0F 00 00  ......).........
0820: 04 10 1A 50 0D 24 2A 80  03 80 00 00 25 02 00 10  ...P.$*.....%...
0830: 03 80 00 3F 08 03 01 10  04 80 21 00 01 6F 09 02  ...?......!..o..
0840: 00 10 05 80 00 4F 08 03  02 10 02 10 01 6F 09 02  .....O.......o..
0850: 00 10 11 80 00 5F 08 03  02 10 03 10 01 6F 09 02  ....._.......o..
0860: 00 10 1A 80 00 6F 08 03  02 10 04 10 01 6F 09 02  .....o.......o..
0870: 00 10 1D 80 00 7F 08 03  02 10 05 10 01 6F 09 02  .............o..
0880: 00 10 1F 80 00 8F 08 03  02 10 06 10 01 6F 09 02  .............o..
0890: 00 10 2B 80 00 9F 08 03  02 10 07 10 01 6F 09 02  ..+..........o..
08A0: 00 10 2C 80 00 AF 08 03  02 10 08 10 01 6F 09 02  ..,..........o..
08B0: 00 10 2D 80 00 BF 08 03  02 10 09 10 01 6F 09 02  ..-..........o..
08C0: 00 10 2E 80 00 CF 08 03  02 10 00 17 01 6F 09 02  .............o..
08D0: 00 10 2F 80 00 DF 08 03  02 10 01 17 01 6F 09 02  ../..........o..
08E0: 00 10 30 80 00 EF 08 03  02 10 02 17 01 6F 09 02  ..0..........o..
08F0: 00 10 31 80 00 FF 08 03  02 10 03 17 01 6F 09 02  ..1..........o..
0900: 00 10 32 80 00 0F 09 03  02 10 04 17 01 6F 09 02  ..2..........o..
0910: 00 10 33 80 00 1F 09 03  02 10 05 17 01 6F 09 02  ..3..........o..
0920: 00 10 34 80 00 2F 09 03  02 10 06 17 01 6F 09 02  ..4../.......o..
0930: 00 10 35 80 00 3F 09 03  02 10 07 17 01 6F 09 02  ..5..?.......o..
0940: 00 10 36 80 00 4F 09 03  02 10 08 17 01 6F 09 02  ..6..O.......o..
0950: 00 10 37 80 00 5F 09 03  02 10 09 17 01 6F 09 02  ..7.._.......o..
0960: 00 10 38 80 00 6F 09 03  02 10 0A 17 01 6F 09 03  ..8..o.......o..
0970: 01 10 00 10 07 01 10 44  80 02 01 10 47 80 80 89  .......D....G...
0980: 09 03 01 10 52 80 01 A9  09 02 01 10 53 80 80 99  ....R.......S...
0990: 09 03 01 10 54 80 01 A9  09 02 01 10 55 80 80 A9  ....T.......U...
09A0: 09 03 01 10 56 80 01 A9  09 93 02 10 1D 48 80 23  ....V........H.#
09B0: 93 03 80 24 49 80 05 80  03 80 25 02 00 10 05 80  ...$I.....%.....
09C0: 00 CD 09 03 01 10 04 80  21 00 01 CD 09 21 00 01  ........!....!..
09D0: 19 0C 02 00 10 1F 80 00  19 0C 03 00 00 29 80 10  .............)..
09E0: 05 10 05 80 0F 00 00 05  10 1A D7 0D 24 2A 80 03  ............$*..
09F0: 80 00 00 25 02 00 10 03  80 00 06 0A 03 01 10 04  ...%............
0A00: 80 21 00 01 76 0B 02 00  10 05 80 00 16 0A 03 02  .!..v...........
0A10: 10 02 10 01 76 0B 02 00  10 11 80 00 26 0A 03 02  ....v.......&...
0A20: 10 03 10 01 76 0B 02 00  10 1A 80 00 36 0A 03 02  ....v.......6...
0A30: 10 04 10 01 76 0B 02 00  10 1D 80 00 46 0A 03 02  ....v.......F...
0A40: 10 05 10 01 76 0B 02 00  10 1F 80 00 56 0A 03 02  ....v.......V...
0A50: 10 06 10 01 76 0B 02 00  10 2B 80 00 66 0A 03 02  ....v....+..f...
0A60: 10 07 10 01 76 0B 02 00  10 2C 80 00 76 0A 03 02  ....v....,..v...
0A70: 10 08 10 01 76 0B 02 00  10 2D 80 00 86 0A 03 02  ....v....-......
0A80: 10 09 10 01 76 0B 02 00  10 2E 80 00 96 0A 03 02  ....v...........
0A90: 10 00 17 01 76 0B 02 00  10 2F 80 00 A6 0A 03 02  ....v..../......
0AA0: 10 01 17 01 76 0B 02 00  10 30 80 00 B6 0A 03 02  ....v....0......
0AB0: 10 02 17 01 76 0B 02 00  10 31 80 00 C6 0A 03 02  ....v....1......
0AC0: 10 03 17 01 76 0B 02 00  10 32 80 00 D6 0A 03 02  ....v....2......
0AD0: 10 04 17 01 76 0B 02 00  10 33 80 00 E6 0A 03 02  ....v....3......
0AE0: 10 05 17 01 76 0B 02 00  10 34 80 00 F6 0A 03 02  ....v....4......
0AF0: 10 06 17 01 76 0B 02 00  10 35 80 00 06 0B 03 02  ....v....5......
0B00: 10 07 17 01 76 0B 02 00  10 36 80 00 16 0B 03 02  ....v....6......
0B10: 10 08 17 01 76 0B 02 00  10 37 80 00 26 0B 03 02  ....v....7..&...
0B20: 10 09 17 01 76 0B 02 00  10 38 80 00 36 0B 03 02  ....v....8..6...
0B30: 10 0A 17 01 76 0B 02 00  10 39 80 00 46 0B 03 02  ....v....9..F...
0B40: 10 0B 17 01 76 0B 02 00  10 3A 80 00 56 0B 03 02  ....v....:..V...
0B50: 10 0C 17 01 76 0B 02 00  10 3B 80 00 66 0B 03 02  ....v....;..f...
0B60: 10 0D 17 01 76 0B 02 00  10 3C 80 00 76 0B 03 02  ....v....<..v...
0B70: 10 0E 17 01 76 0B 03 01  10 00 10 07 01 10 57 80  ....v.........W.
0B80: 02 01 10 58 80 80 90 0B  03 01 10 59 80 01 F0 0B  ...X.......Y....
0B90: 02 01 10 5A 80 80 A0 0B  03 01 10 5B 80 01 F0 0B  ...Z.......[....
0BA0: 02 01 10 5C 80 80 B0 0B  03 01 10 5D 80 01 F0 0B  ...\.......]....
0BB0: 02 01 10 5E 80 80 C0 0B  03 01 10 5F 80 01 F0 0B  ...^......._....
0BC0: 02 01 10 60 80 80 D0 0B  03 01 10 61 80 01 F0 0B  ...`.......a....
0BD0: 02 01 10 62 80 80 E0 0B  03 01 10 63 80 01 F0 0B  ...b.......c....
0BE0: 02 01 10 64 80 80 F0 0B  03 01 10 65 80 01 F0 0B  ...d.......e....
0BF0: 93 02 10 1D 48 80 23 93  03 80 24 49 80 05 80 03  ....H.#...$I....
0C00: 80 25 02 00 10 05 80 00  14 0C 03 01 10 04 80 21  .%.............!
0C10: 00 01 14 0C 21 00 01 19  0C 01 1C 0C 00           ....!........   
```

#### Opcodes

```
  0: 0x0001 [0x03] Work_Zone_1700[23] = 250*
  1: 0x0006 [0x1E] EventEntity looks at LocalPlayer and starts talking
  2: 0x000B [0x1D] PRINT_EVENT_MESSAGE(message_id=10200*)
    → "Do you have any items that you just can't let go of because of the fond memories attached to them? Are you worried about the space they take up in your Mog House? Well, worry no longer--I can store your items here!"
  3: 0x000E [0x23] WAIT_FOR_DIALOG_INTERACTION
  4: 0x000F [0x24] CREATE_DIALOG(message_id=10201*, default_option=0*, option_flags=0*)
    → "Do you require my services? [Not now, thanks./Tell me what I can store./Remove an item from storage.]"
  5: 0x0016 [0x25] WAIT_DIALOG_SELECT()
  6: 0x0017 [0x02] IF !(Work_Zone[0] == 0*) GOTO 0x0029
  7: 0x001F [0x03] Work_Zone[1] = 1073741824*
  8: 0x0024 [0x21] END_EVENT
  9: 0x0025 [0x00] END_REQSTACK()

SUBROUTINE_013E:
 10: 0x013E [0x1D] PRINT_EVENT_MESSAGE(message_id=10231*)
    → "Withdrawing an item will cost 250 gil."
 11: 0x0141 [0x23] WAIT_FOR_DIALOG_INTERACTION
 12: 0x0142 [0x1D] PRINT_EVENT_MESSAGE(message_id=10232*)
    → "Please note that upon withdrawal, the recast time for enchanted items will be reset to the maximum level."
 13: 0x0145 [0x23] WAIT_FOR_DIALOG_INTERACTION
 14: 0x0146 [0x03] Work_Zone[1] = 1073741824*
 15: 0x014B [0x21] END_EVENT
 16: 0x014C [0x00] END_REQSTACK()

SUBROUTINE_0404:
 17: 0x0404 [0x03] Work_Zone[1] = Work_Zone[0]
 18: 0x0409 [0x07] Work_Zone[1] += 4294967295*
 19: 0x040E [0x02] IF !(Work_Zone[1] < 16*) GOTO 0x041B
 20: 0x0416 [0x07] Work_Zone[1] += 48*
 21: 0x041B [0x93] DISPLAY_ITEM_INFO(item_id=Work_Zone[2])
 22: 0x041E [0x1D] PRINT_EVENT_MESSAGE(message_id=10234*)
    → "A fee of 250 gil is required. Will you remove the $0 from storage?"
 23: 0x0421 [0x23] WAIT_FOR_DIALOG_INTERACTION
 24: 0x0422 [0x93] DISPLAY_ITEM_INFO(item_id=0*)
 25: 0x0425 [0x24] CREATE_DIALOG(message_id=10235*, default_option=1*, option_flags=0*)
    → "Do you wish to pay the fee? [Yes./Not at this time.]"
 26: 0x042C [0x25] WAIT_DIALOG_SELECT()
 27: 0x042D [0x02] IF !(Work_Zone[0] == 1*) GOTO 0x043F
 28: 0x0435 [0x03] Work_Zone[1] = 1073741824*
 29: 0x043A [0x21] END_EVENT
 30: 0x043B [0x00] END_REQSTACK()

SUBROUTINE_043F:
 31: 0x043F [0x21] END_EVENT
 32: 0x0440 [0x00] END_REQSTACK()

SUBROUTINE_05F8:
 33: 0x05F8 [0x03] Work_Zone[1] = Work_Zone[0]
 34: 0x05FD [0x07] Work_Zone[1] += 4294967295*
 35: 0x0602 [0x07] Work_Zone[1] += 96*
 36: 0x0607 [0x93] DISPLAY_ITEM_INFO(item_id=Work_Zone[2])
 37: 0x060A [0x1D] PRINT_EVENT_MESSAGE(message_id=10234*)
    → "A fee of 250 gil is required. Will you remove the $0 from storage?"
 38: 0x060D [0x23] WAIT_FOR_DIALOG_INTERACTION
 39: 0x060E [0x93] DISPLAY_ITEM_INFO(item_id=0*)
 40: 0x0611 [0x24] CREATE_DIALOG(message_id=10235*, default_option=1*, option_flags=0*)
    → "Do you wish to pay the fee? [Yes./Not at this time.]"
 41: 0x0618 [0x25] WAIT_DIALOG_SELECT()
 42: 0x0619 [0x02] IF !(Work_Zone[0] == 1*) GOTO 0x062B
 43: 0x0621 [0x03] Work_Zone[1] = 1073741824*
 44: 0x0626 [0x21] END_EVENT
 45: 0x0627 [0x00] END_REQSTACK()

SUBROUTINE_062B:
 46: 0x062B [0x21] END_EVENT
 47: 0x062C [0x00] END_REQSTACK()

SUBROUTINE_07A4:
 48: 0x07A4 [0x03] Work_Zone[1] = Work_Zone[0]
 49: 0x07A9 [0x07] Work_Zone[1] += 15*
 50: 0x07AE [0x02] IF !(Work_Zone[1] == 32*) GOTO 0x07BB
 51: 0x07B6 [0x03] Work_Zone[1] = 92*
 52: 0x07BB [0x02] IF !(Work_Zone[1] == 33*) GOTO 0x07C8
 53: 0x07C3 [0x03] Work_Zone[1] = 93*
 54: 0x07C8 [0x02] IF !(Work_Zone[1] == 34*) GOTO 0x07D5
 55: 0x07D0 [0x03] Work_Zone[1] = 94*
 56: 0x07D5 [0x02] IF !(Work_Zone[1] == 35*) GOTO 0x07E2
 57: 0x07DD [0x03] Work_Zone[1] = 95*
 58: 0x07E2 [0x93] DISPLAY_ITEM_INFO(item_id=Work_Zone[2])
 59: 0x07E5 [0x1D] PRINT_EVENT_MESSAGE(message_id=10234*)
    → "A fee of 250 gil is required. Will you remove the $0 from storage?"
 60: 0x07E8 [0x23] WAIT_FOR_DIALOG_INTERACTION
 61: 0x07E9 [0x93] DISPLAY_ITEM_INFO(item_id=0*)
 62: 0x07EC [0x24] CREATE_DIALOG(message_id=10235*, default_option=1*, option_flags=0*)
    → "Do you wish to pay the fee? [Yes./Not at this time.]"
 63: 0x07F3 [0x25] WAIT_DIALOG_SELECT()
 64: 0x07F4 [0x02] IF !(Work_Zone[0] == 1*) GOTO 0x0806
 65: 0x07FC [0x03] Work_Zone[1] = 1073741824*
 66: 0x0801 [0x21] END_EVENT
 67: 0x0802 [0x00] END_REQSTACK()

SUBROUTINE_0806:
 68: 0x0806 [0x21] END_EVENT
 69: 0x0807 [0x00] END_REQSTACK()

SUBROUTINE_096F:
 70: 0x096F [0x03] Work_Zone[1] = Work_Zone[0]
 71: 0x0974 [0x07] Work_Zone[1] += 31*
 72: 0x0979 [0x02] IF !(Work_Zone[1] == 48*) GOTO 0x0989
 73: 0x0981 [0x03] Work_Zone[1] = 80*
 74: 0x0986 [0x01] GOTO 0x09A9
 75: 0x0989 [0x02] IF !(Work_Zone[1] == 49*) GOTO 0x0999
 76: 0x0991 [0x03] Work_Zone[1] = 81*
 77: 0x0996 [0x01] GOTO 0x09A9
 78: 0x0999 [0x02] IF !(Work_Zone[1] == 50*) GOTO 0x09A9
 79: 0x09A1 [0x03] Work_Zone[1] = 82*
 80: 0x09A6 [0x01] GOTO 0x09A9

SUBROUTINE_09A9:
 81: 0x09A9 [0x93] DISPLAY_ITEM_INFO(item_id=Work_Zone[2])
 82: 0x09AC [0x1D] PRINT_EVENT_MESSAGE(message_id=10234*)
    → "A fee of 250 gil is required. Will you remove the $0 from storage?"
 83: 0x09AF [0x23] WAIT_FOR_DIALOG_INTERACTION
 84: 0x09B0 [0x93] DISPLAY_ITEM_INFO(item_id=0*)
 85: 0x09B3 [0x24] CREATE_DIALOG(message_id=10235*, default_option=1*, option_flags=0*)
    → "Do you wish to pay the fee? [Yes./Not at this time.]"
 86: 0x09BA [0x25] WAIT_DIALOG_SELECT()
 87: 0x09BB [0x02] IF !(Work_Zone[0] == 1*) GOTO 0x09CD
 88: 0x09C3 [0x03] Work_Zone[1] = 1073741824*
 89: 0x09C8 [0x21] END_EVENT
 90: 0x09C9 [0x00] END_REQSTACK()

SUBROUTINE_09CD:
 91: 0x09CD [0x21] END_EVENT
 92: 0x09CE [0x00] END_REQSTACK()

SUBROUTINE_0B76:
 93: 0x0B76 [0x03] Work_Zone[1] = Work_Zone[0]
 94: 0x0B7B [0x07] Work_Zone[1] += 47*
 95: 0x0B80 [0x02] IF !(Work_Zone[1] == 64*) GOTO 0x0B90
 96: 0x0B88 [0x03] Work_Zone[1] = 84*
 97: 0x0B8D [0x01] GOTO 0x0BF0
 98: 0x0B90 [0x02] IF !(Work_Zone[1] == 65*) GOTO 0x0BA0
 99: 0x0B98 [0x03] Work_Zone[1] = 85*
100: 0x0B9D [0x01] GOTO 0x0BF0
101: 0x0BA0 [0x02] IF !(Work_Zone[1] == 66*) GOTO 0x0BB0
102: 0x0BA8 [0x03] Work_Zone[1] = 86*
103: 0x0BAD [0x01] GOTO 0x0BF0
104: 0x0BB0 [0x02] IF !(Work_Zone[1] == 67*) GOTO 0x0BC0
105: 0x0BB8 [0x03] Work_Zone[1] = 87*
106: 0x0BBD [0x01] GOTO 0x0BF0
107: 0x0BC0 [0x02] IF !(Work_Zone[1] == 68*) GOTO 0x0BD0
108: 0x0BC8 [0x03] Work_Zone[1] = 88*
109: 0x0BCD [0x01] GOTO 0x0BF0
110: 0x0BD0 [0x02] IF !(Work_Zone[1] == 69*) GOTO 0x0BE0
111: 0x0BD8 [0x03] Work_Zone[1] = 126*
112: 0x0BDD [0x01] GOTO 0x0BF0
113: 0x0BE0 [0x02] IF !(Work_Zone[1] == 70*) GOTO 0x0BF0
114: 0x0BE8 [0x03] Work_Zone[1] = 127*
115: 0x0BED [0x01] GOTO 0x0BF0

SUBROUTINE_0BF0:
116: 0x0BF0 [0x93] DISPLAY_ITEM_INFO(item_id=Work_Zone[2])
117: 0x0BF3 [0x1D] PRINT_EVENT_MESSAGE(message_id=10234*)
    → "A fee of 250 gil is required. Will you remove the $0 from storage?"
118: 0x0BF6 [0x23] WAIT_FOR_DIALOG_INTERACTION
119: 0x0BF7 [0x93] DISPLAY_ITEM_INFO(item_id=0*)
120: 0x0BFA [0x24] CREATE_DIALOG(message_id=10235*, default_option=1*, option_flags=0*)
    → "Do you wish to pay the fee? [Yes./Not at this time.]"
121: 0x0C01 [0x25] WAIT_DIALOG_SELECT()
122: 0x0C02 [0x02] IF !(Work_Zone[0] == 1*) GOTO 0x0C14
123: 0x0C0A [0x03] Work_Zone[1] = 1073741824*
124: 0x0C0F [0x21] END_EVENT
125: 0x0C10 [0x00] END_REQSTACK()

SUBROUTINE_0C14:
126: 0x0C14 [0x21] END_EVENT
127: 0x0C15 [0x00] END_REQSTACK()

SUBROUTINE_0C19:
128: 0x0C19 [0x01] GOTO 0x0C1C

SUBROUTINE_0C1C:
129: 0x0C1C [0x00] END_REQSTACK()
```

#### Data or dead code:

```
# Dead code (unreachable instructions):
     0x0026 [0x01] GOTO 0x0C1C
     0x004C [0x01] GOTO 0x013E
# Dead code (unreachable instructions):
     0x014D [0x01] GOTO 0x0C1C
     0x01CD [0x01] GOTO 0x0C19
     0x0201 [0x01] GOTO 0x0404
# Dead code (unreachable instructions):
     0x043C [0x01] GOTO 0x043F
# Dead code (unreachable instructions):
     0x0441 [0x01] GOTO 0x0C19
     0x0475 [0x01] GOTO 0x05F8
# Dead code (unreachable instructions):
     0x0628 [0x01] GOTO 0x062B
# Dead code (unreachable instructions):
     0x062D [0x01] GOTO 0x0C19
     0x0661 [0x01] GOTO 0x07A4
# Dead code (unreachable instructions):
     0x0803 [0x01] GOTO 0x0806
# Dead code (unreachable instructions):
     0x0808 [0x01] GOTO 0x0C19
     0x083C [0x01] GOTO 0x096F
# Dead code (unreachable instructions):
     0x09CA [0x01] GOTO 0x09CD
# Dead code (unreachable instructions):
     0x09CF [0x01] GOTO 0x0C19
     0x0A03 [0x01] GOTO 0x0B76
# Dead code (unreachable instructions):
     0x0C11 [0x01] GOTO 0x0C14
# Dead code (unreachable instructions):
     0x0C16 [0x01] GOTO 0x0C19
```

### Event 778

#### Metadata

| Field        | Value      |
|--------------|------------|
| Entrypoint   | 0x0C1D     |
| Data Size    | 1249 bytes |
| Instructions | 5          |

```
      00 01 02 03 04 05 06 07  08 09 0A 0B 0C 0D 0E 0F
      -- -- -- -- -- -- -- --  -- -- -- -- -- -- -- --
0C10:                                         1E F0 FF               ...
0C20: FF 7F 1D 66 80 23 21 00  03 02 10 5D 80 03 03 10  ...f.#!....]....
0C30: 67 80 03 04 10 68 80 03  05 10 5F 80 03 06 10 69  g....h...._....i
0C40: 80 03 07 10 6A 80 03 08  10 6B 80 03 09 10 6C 80  ....j....k....l.
0C50: 03 00 17 61 80 03 01 17  6D 80 03 02 17 6E 80 03  ...a....m....n..
0C60: 03 17 6F 80 03 04 17 70  80 03 05 17 71 80 03 06  ..o....p....q...
0C70: 17 72 80 03 07 17 73 80  03 08 17 74 80 03 09 17  .r....s....t....
0C80: 75 80 03 0A 17 76 80 03  0B 17 77 80 03 0C 17 78  u....v....w....x
0C90: 80 03 0D 17 79 80 03 0E  17 7A 80 03 0F 17 7B 80  ....y....z....{.
0CA0: 03 10 17 7C 80 03 11 17  7D 80 03 12 17 7E 80 03  ...|....}....~..
0CB0: 13 17 7F 80 03 14 17 80  80 03 15 17 81 80 03 16  ................
0CC0: 17 82 80 1B 03 02 10 83  80 03 03 10 84 80 03 04  ................
0CD0: 10 85 80 03 05 10 86 80  03 06 10 87 80 03 07 10  ................
0CE0: 88 80 03 08 10 89 80 03  09 10 8A 80 03 00 17 8B  ................
0CF0: 80 03 01 17 8C 80 03 02  17 8D 80 03 03 17 8E 80  ................
0D00: 03 04 17 8F 80 03 05 17  90 80 03 06 17 91 80 03  ................
0D10: 07 17 92 80 03 08 17 93  80 03 09 17 94 80 03 0A  ................
0D20: 17 95 80 03 0B 17 96 80  06 0C 17 06 0C 17 06 0D  ................
0D30: 17 06 0E 17 06 0F 17 06  10 17 06 11 17 06 12 17  ................
0D40: 06 13 17 06 14 17 06 15  17 06 16 17 06 17 17 1B  ................
0D50: 03 02 10 97 80 03 03 10  98 80 03 04 10 99 80 03  ................
0D60: 05 10 9A 80 03 06 10 9B  80 03 07 10 9C 80 03 08  ................
0D70: 10 9D 80 03 09 10 9E 80  03 00 17 9F 80 03 01 17  ................
0D80: A0 80 03 02 17 A1 80 03  03 17 A2 80 03 04 17 A3  ................
0D90: 80 03 05 17 A4 80 03 06  17 A5 80 03 07 17 A6 80  ................
0DA0: 03 08 17 A7 80 03 09 17  A8 80 03 0A 17 A9 80 06  ................
0DB0: 0B 17 06 0C 17 06 0D 17  06 0E 17 06 0F 17 06 10  ................
0DC0: 17 06 11 17 06 12 17 06  13 17 06 14 17 06 15 17  ................
0DD0: 06 16 17 06 17 17 1B 02  8B 7F 05 80 00 EC 0D 03  ................
0DE0: 02 10 AA 80 03 03 10 AB  80 01 F6 0D 03 02 10 AC  ................
0DF0: 80 03 03 10 AD 80 02 87  7F 05 80 80 15 0E 03 04  ................
0E00: 10 AE 80 03 05 10 AF 80  03 06 10 B0 80 03 07 10  ................
0E10: B1 80 01 EE 0E 02 87 7F  11 80 80 34 0E 03 04 10  ...........4....
0E20: B2 80 03 05 10 B3 80 03  06 10 B4 80 03 07 10 B5  ................
0E30: 80 01 EE 0E 02 87 7F 1A  80 80 53 0E 03 04 10 B6  ..........S.....
0E40: 80 03 05 10 B7 80 03 06  10 B8 80 03 07 10 B9 80  ................
0E50: 01 EE 0E 02 87 7F 1D 80  80 72 0E 03 04 10 BA 80  .........r......
0E60: 03 05 10 BB 80 03 06 10  BC 80 03 07 10 BD 80 01  ................
0E70: EE 0E 02 87 7F 1F 80 80  91 0E 03 04 10 BE 80 03  ................
0E80: 05 10 BF 80 03 06 10 C0  80 03 07 10 C1 80 01 EE  ................
0E90: 0E 02 87 7F 2B 80 80 B0  0E 03 04 10 C2 80 03 05  ....+...........
0EA0: 10 C3 80 03 06 10 C4 80  03 07 10 C5 80 01 EE 0E  ................
0EB0: 02 87 7F 2C 80 80 CF 0E  03 04 10 C6 80 03 05 10  ...,............
0EC0: C7 80 03 06 10 C8 80 03  07 10 C9 80 01 EE 0E 02  ................
0ED0: 87 7F 2D 80 80 EE 0E 03  04 10 CA 80 03 05 10 CB  ..-.............
0EE0: 80 03 06 10 CC 80 03 07  10 CD 80 01 EE 0E 03 08  ................
0EF0: 10 CE 80 03 09 10 CF 80  02 8B 7F 05 80 00 0D 0F  ................
0F00: 03 00 17 D0 80 03 01 17  D1 80 01 17 0F 03 00 17  ................
0F10: D2 80 03 01 17 D3 80 03  02 17 D4 80 03 03 17 D5  ................
0F20: 80 02 87 7F 05 80 80 40  0F 03 04 17 D6 80 03 05  .......@........
0F30: 17 D7 80 03 06 17 D8 80  03 07 17 D9 80 01 19 10  ................
0F40: 02 87 7F 11 80 80 5F 0F  03 04 17 DA 80 03 05 17  ......_.........
0F50: DB 80 03 06 17 DC 80 03  07 17 DD 80 01 19 10 02  ................
0F60: 87 7F 1A 80 80 7E 0F 03  04 17 DE 80 03 05 17 DF  .....~..........
0F70: 80 03 06 17 E0 80 03 07  17 E1 80 01 19 10 02 87  ................
0F80: 7F 1D 80 80 9D 0F 03 04  17 E2 80 03 05 17 E3 80  ................
0F90: 03 06 17 E4 80 03 07 17  E5 80 01 19 10 02 87 7F  ................
0FA0: 1F 80 80 BC 0F 03 04 17  E6 80 03 05 17 E7 80 03  ................
0FB0: 06 17 E8 80 03 07 17 E9  80 01 19 10 02 87 7F 2B  ...............+
0FC0: 80 80 DB 0F 03 04 17 EA  80 03 05 17 EB 80 03 06  ................
0FD0: 17 EC 80 03 07 17 ED 80  01 19 10 02 87 7F 2C 80  ..............,.
0FE0: 80 FA 0F 03 04 17 EE 80  03 05 17 EF 80 03 06 17  ................
0FF0: F0 80 03 07 17 F1 80 01  19 10 02 87 7F 2D 80 80  .............-..
1000: 19 10 03 04 17 F2 80 03  05 17 F3 80 03 06 17 F4  ................
1010: 80 03 07 17 F5 80 01 19  10 03 08 17 F6 80 03 09  ................
1020: 17 F7 80 03 0A 17 F8 80  02 8B 7F 05 80 00 3D 10  ..............=.
1030: 03 0B 17 F9 80 03 0C 17  FA 80 01 47 10 03 0B 17  ...........G....
1040: FB 80 03 0C 17 FC 80 03  0D 17 FD 80 03 0E 17 FE  ................
1050: 80 06 0F 17 06 10 17 06  11 17 06 12 17 06 13 17  ................
1060: 06 14 17 06 15 17 06 16  17 06 17 17 1B 03 02 10  ................
1070: FF 80 03 03 10 00 81 03  04 10 01 81 03 05 10 02  ................
1080: 81 03 06 10 03 81 03 07  10 04 81 03 08 10 05 81  ................
1090: 03 09 10 06 81 03 00 17  07 81 03 01 17 08 81 03  ................
10A0: 02 17 09 81 03 03 17 0A  81 03 04 17 0B 81 03 05  ................
10B0: 17 0C 81 03 06 17 0D 81  03 07 17 0E 81 03 08 17  ................
10C0: 0F 81 03 09 17 10 81 03  0A 17 11 81 03 0B 17 12  ................
10D0: 81 03 0C 17 13 81 03 0D  17 14 81 03 0E 17 15 81  ................
10E0: 03 0F 17 16 81 06 10 17  06 11 17 06 12 17 06 13  ................
10F0: 17 06 14 17 06 15 17 06  16 17 06 17 17 1B        ..............  
```

#### Opcodes

```
  0: 0x0C1D [0x1E] EventEntity looks at LocalPlayer and starts talking
  1: 0x0C22 [0x1D] PRINT_EVENT_MESSAGE(message_id=10236*)
    → "Do not worry. Your $0 is in good hands."
  2: 0x0C25 [0x23] WAIT_FOR_DIALOG_INTERACTION
  3: 0x0C26 [0x21] END_EVENT
  4: 0x0C27 [0x00] END_REQSTACK()
```

#### Data or dead code:

```
# Dead code (unreachable instructions):
     0x0C28 [0x03] Work_Zone[2] = 86*
     0x0C2D [0x03] Work_Zone[3] = 115*
     0x0C32 [0x03] Work_Zone[4] = 116*
     0x0C37 [0x03] Work_Zone[5] = 87*
     0x0C3C [0x03] Work_Zone[6] = 117*
     0x0C41 [0x03] Work_Zone[7] = 118*
     0x0C46 [0x03] Work_Zone[8] = 119*
     0x0C4B [0x03] Work_Zone[9] = 193*
     0x0C50 [0x03] Work_Zone_1700[0] = 88*
     0x0C55 [0x03] Work_Zone_1700[1] = 154*
     0x0C5A [0x03] Work_Zone_1700[2] = 204*
     0x0C5F [0x03] Work_Zone_1700[3] = 203*
     0x0C64 [0x03] Work_Zone_1700[4] = 205*
     0x0C69 [0x03] Work_Zone_1700[5] = 140*
     0x0C6E [0x03] Work_Zone_1700[6] = 141*
     0x0C73 [0x03] Work_Zone_1700[7] = 155*
     0x0C78 [0x03] Work_Zone_1700[8] = 192*
     0x0C7D [0x03] Work_Zone_1700[9] = 179*
     0x0C82 [0x03] Work_Zone_1700[10] = 323*
     0x0C87 [0x03] Work_Zone_1700[11] = 324*
     0x0C8C [0x03] Work_Zone_1700[12] = 325*
     0x0C91 [0x03] Work_Zone_1700[13] = 176*
     0x0C96 [0x03] Work_Zone_1700[14] = 177*
     0x0C9B [0x03] Work_Zone_1700[15] = 178*
     0x0CA0 [0x03] Work_Zone_1700[16] = 180*
     0x0CA5 [0x03] Work_Zone_1700[17] = 215*
     0x0CAA [0x03] Work_Zone_1700[18] = 196*
     0x0CAF [0x03] Work_Zone_1700[19] = 197*
     0x0CB4 [0x03] Work_Zone_1700[20] = 199*
     0x0CB9 [0x03] Work_Zone_1700[21] = 320*
     0x0CBE [0x03] Work_Zone_1700[22] = 415*
     0x0CC3 [0x1B] RETURN
     0x0CC4 [0x03] Work_Zone[2] = 17074*
     0x0CC9 [0x03] Work_Zone[3] = 17565*
     0x0CCE [0x03] Work_Zone[4] = 17566*
     0x0CD3 [0x03] Work_Zone[5] = 17588*
     0x0CD8 [0x03] Work_Zone[6] = 17830*
     0x0CDD [0x03] Work_Zone[7] = 17831*
     0x0CE2 [0x03] Work_Zone[8] = 18102*
     0x0CE7 [0x03] Work_Zone[9] = 18103*
     0x0CEC [0x03] Work_Zone_1700[0] = 18400*
     0x0CF1 [0x03] Work_Zone_1700[1] = 18436*
     0x0CF6 [0x03] Work_Zone_1700[2] = 18401*
     0x0CFB [0x03] Work_Zone_1700[3] = 18846*
     0x0D00 [0x03] Work_Zone_1700[4] = 18845*
     0x0D05 [0x03] Work_Zone_1700[5] = 18441*
     0x0D0A [0x03] Work_Zone_1700[6] = 17748*
     0x0D0F [0x03] Work_Zone_1700[7] = 17749*
     0x0D14 [0x03] Work_Zone_1700[8] = 16182*
     0x0D19 [0x03] Work_Zone_1700[9] = 16183*
     0x0D1E [0x03] Work_Zone_1700[10] = 18863*
     0x0D23 [0x03] Work_Zone_1700[11] = 18864*
     0x0D28 [0x06] Work_Zone_1700[12] = 0
     0x0D2B [0x06] Work_Zone_1700[12] = 0
     0x0D2E [0x06] Work_Zone_1700[13] = 0
     0x0D31 [0x06] Work_Zone_1700[14] = 0
     0x0D34 [0x06] Work_Zone_1700[15] = 0
     0x0D37 [0x06] Work_Zone_1700[16] = 0
     0x0D3A [0x06] Work_Zone_1700[17] = 0
     0x0D3D [0x06] Work_Zone_1700[18] = 0
     0x0D40 [0x06] Work_Zone_1700[19] = 0
     0x0D43 [0x06] Work_Zone_1700[20] = 0
     0x0D46 [0x06] Work_Zone_1700[21] = 0
     0x0D49 [0x06] Work_Zone_1700[22] = 0
     0x0D4C [0x06] Work_Zone_1700[23] = 0
     0x0D4F [0x1B] RETURN
     0x0D50 [0x03] Work_Zone[2] = 13916*
     0x0D55 [0x03] Work_Zone[3] = 13917*
     0x0D5A [0x03] Work_Zone[4] = 15176*
     0x0D5F [0x03] Work_Zone[5] = 15177*
     0x0D64 [0x03] Work_Zone[6] = 15178*
     0x0D69 [0x03] Work_Zone[7] = 15179*
     0x0D6E [0x03] Work_Zone[8] = 15198*
     0x0D73 [0x03] Work_Zone[9] = 15199*
     0x0D78 [0x03] Work_Zone_1700[0] = 15204*
     0x0D7D [0x03] Work_Zone_1700[1] = 16075*
     0x0D82 [0x03] Work_Zone_1700[2] = 16076*
     0x0D87 [0x03] Work_Zone_1700[3] = 16109*
     0x0D8C [0x03] Work_Zone_1700[4] = 16118*
     0x0D91 [0x03] Work_Zone_1700[5] = 16119*
     0x0D96 [0x03] Work_Zone_1700[6] = 16120*
     0x0D9B [0x03] Work_Zone_1700[7] = 16144*
     0x0DA0 [0x03] Work_Zone_1700[8] = 16145*
     0x0DA5 [0x03] Work_Zone_1700[9] = 11491*
     0x0DAA [0x03] Work_Zone_1700[10] = 11500*
     0x0DAF [0x06] Work_Zone_1700[11] = 0
     0x0DB2 [0x06] Work_Zone_1700[12] = 0
     0x0DB5 [0x06] Work_Zone_1700[13] = 0
     0x0DB8 [0x06] Work_Zone_1700[14] = 0
     0x0DBB [0x06] Work_Zone_1700[15] = 0
     0x0DBE [0x06] Work_Zone_1700[16] = 0
     0x0DC1 [0x06] Work_Zone_1700[17] = 0
     0x0DC4 [0x06] Work_Zone_1700[18] = 0
     0x0DC7 [0x06] Work_Zone_1700[19] = 0
     0x0DCA [0x06] Work_Zone_1700[20] = 0
     0x0DCD [0x06] Work_Zone_1700[21] = 0
     0x0DD0 [0x06] Work_Zone_1700[22] = 0
     0x0DD3 [0x06] Work_Zone_1700[23] = 0
     0x0DD6 [0x1B] RETURN
     0x0DD7 [0x02] IF !((LocalPlayer->Render.Flags01 >> 25) & 1 == 1*) GOTO 0x0DEC
     0x0DDF [0x03] Work_Zone[2] = 13819*
     0x0DE4 [0x03] Work_Zone[3] = 13821*
     0x0DE9 [0x01] GOTO 0x0DF6
     0x0DEC [0x03] Work_Zone[2] = 13820*
     0x0DF1 [0x03] Work_Zone[3] = 13822*
     0x0DF6 [0x02] IF !(LocalPlayer->Race == 1*) GOTO 0x0E15
     0x0DFE [0x03] Work_Zone[4] = 14450*
     0x0E03 [0x03] Work_Zone[5] = 14457*
     0x0E08 [0x03] Work_Zone[6] = 15408*
     0x0E0D [0x03] Work_Zone[7] = 15415*
     0x0E12 [0x01] GOTO 0x0EEE
     0x0E15 [0x02] IF !(LocalPlayer->Race == 2*) GOTO 0x0E34
     0x0E1D [0x03] Work_Zone[4] = 14451*
     0x0E22 [0x03] Work_Zone[5] = 14458*
     0x0E27 [0x03] Work_Zone[6] = 15409*
     0x0E2C [0x03] Work_Zone[7] = 15416*
     0x0E31 [0x01] GOTO 0x0EEE
     0x0E34 [0x02] IF !(LocalPlayer->Race == 3*) GOTO 0x0E53
     0x0E3C [0x03] Work_Zone[4] = 14452*
     0x0E41 [0x03] Work_Zone[5] = 14459*
     0x0E46 [0x03] Work_Zone[6] = 15410*
     0x0E4B [0x03] Work_Zone[7] = 15417*
     0x0E50 [0x01] GOTO 0x0EEE
     0x0E53 [0x02] IF !(LocalPlayer->Race == 4*) GOTO 0x0E72
     0x0E5B [0x03] Work_Zone[4] = 14453*
     0x0E60 [0x03] Work_Zone[5] = 14460*
     0x0E65 [0x03] Work_Zone[6] = 15411*
     0x0E6A [0x03] Work_Zone[7] = 15418*
     0x0E6F [0x01] GOTO 0x0EEE
     0x0E72 [0x02] IF !(LocalPlayer->Race == 5*) GOTO 0x0E91
     0x0E7A [0x03] Work_Zone[4] = 14454*
     0x0E7F [0x03] Work_Zone[5] = 14461*
     0x0E84 [0x03] Work_Zone[6] = 15412*
     0x0E89 [0x03] Work_Zone[7] = 15419*
     0x0E8E [0x01] GOTO 0x0EEE
     0x0E91 [0x02] IF !(LocalPlayer->Race == 6*) GOTO 0x0EB0
     0x0E99 [0x03] Work_Zone[4] = 14471*
     0x0E9E [0x03] Work_Zone[5] = 14472*
     0x0EA3 [0x03] Work_Zone[6] = 15423*
     0x0EA8 [0x03] Work_Zone[7] = 15424*
     0x0EAD [0x01] GOTO 0x0EEE
     0x0EB0 [0x02] IF !(LocalPlayer->Race == 7*) GOTO 0x0ECF
     0x0EB8 [0x03] Work_Zone[4] = 14455*
     0x0EBD [0x03] Work_Zone[5] = 14462*
     0x0EC2 [0x03] Work_Zone[6] = 15413*
     0x0EC7 [0x03] Work_Zone[7] = 15420*
     0x0ECC [0x01] GOTO 0x0EEE
     0x0ECF [0x02] IF !(LocalPlayer->Race == 8*) GOTO 0x0EEE
     0x0ED7 [0x03] Work_Zone[4] = 14456*
     0x0EDC [0x03] Work_Zone[5] = 14463*
     0x0EE1 [0x03] Work_Zone[6] = 15414*
     0x0EE6 [0x03] Work_Zone[7] = 15421*
     0x0EEB [0x01] GOTO 0x0EEE
     0x0EEE [0x03] Work_Zone[8] = 14519*
     0x0EF3 [0x03] Work_Zone[9] = 14520*
     0x0EF8 [0x02] IF !((LocalPlayer->Render.Flags01 >> 25) & 1 == 1*) GOTO 0x0F0D
     0x0F00 [0x03] Work_Zone_1700[0] = 14532*
     0x0F05 [0x03] Work_Zone_1700[1] = 14534*
     0x0F0A [0x01] GOTO 0x0F17
     0x0F0D [0x03] Work_Zone_1700[0] = 14533*
     0x0F12 [0x03] Work_Zone_1700[1] = 14535*
     0x0F17 [0x03] Work_Zone_1700[2] = 15752*
     0x0F1C [0x03] Work_Zone_1700[3] = 15753*
     0x0F21 [0x02] IF !(LocalPlayer->Race == 1*) GOTO 0x0F40
     0x0F29 [0x03] Work_Zone_1700[4] = 11265*
     0x0F2E [0x03] Work_Zone_1700[5] = 11273*
     0x0F33 [0x03] Work_Zone_1700[6] = 16321*
     0x0F38 [0x03] Work_Zone_1700[7] = 16329*
     0x0F3D [0x01] GOTO 0x1019
     0x0F40 [0x02] IF !(LocalPlayer->Race == 2*) GOTO 0x0F5F
     0x0F48 [0x03] Work_Zone_1700[4] = 11266*
     0x0F4D [0x03] Work_Zone_1700[5] = 11274*
     0x0F52 [0x03] Work_Zone_1700[6] = 16322*
     0x0F57 [0x03] Work_Zone_1700[7] = 16330*
     0x0F5C [0x01] GOTO 0x1019
     0x0F5F [0x02] IF !(LocalPlayer->Race == 3*) GOTO 0x0F7E
     0x0F67 [0x03] Work_Zone_1700[4] = 11267*
     0x0F6C [0x03] Work_Zone_1700[5] = 11275*
     0x0F71 [0x03] Work_Zone_1700[6] = 16323*
     0x0F76 [0x03] Work_Zone_1700[7] = 16331*
     0x0F7B [0x01] GOTO 0x1019
     0x0F7E [0x02] IF !(LocalPlayer->Race == 4*) GOTO 0x0F9D
     0x0F86 [0x03] Work_Zone_1700[4] = 11268*
     0x0F8B [0x03] Work_Zone_1700[5] = 11276*
     0x0F90 [0x03] Work_Zone_1700[6] = 16324*
     0x0F95 [0x03] Work_Zone_1700[7] = 16332*
     0x0F9A [0x01] GOTO 0x1019
     0x0F9D [0x02] IF !(LocalPlayer->Race == 5*) GOTO 0x0FBC
     0x0FA5 [0x03] Work_Zone_1700[4] = 11269*
     0x0FAA [0x03] Work_Zone_1700[5] = 11277*
     0x0FAF [0x03] Work_Zone_1700[6] = 16325*
     0x0FB4 [0x03] Work_Zone_1700[7] = 16333*
     0x0FB9 [0x01] GOTO 0x1019
     0x0FBC [0x02] IF !(LocalPlayer->Race == 6*) GOTO 0x0FDB
     0x0FC4 [0x03] Work_Zone_1700[4] = 11270*
     0x0FC9 [0x03] Work_Zone_1700[5] = 11278*
     0x0FCE [0x03] Work_Zone_1700[6] = 16326*
     0x0FD3 [0x03] Work_Zone_1700[7] = 16334*
     0x0FD8 [0x01] GOTO 0x1019
     0x0FDB [0x02] IF !(LocalPlayer->Race == 7*) GOTO 0x0FFA
     0x0FE3 [0x03] Work_Zone_1700[4] = 11271*
     0x0FE8 [0x03] Work_Zone_1700[5] = 11279*
     0x0FED [0x03] Work_Zone_1700[6] = 16327*
     0x0FF2 [0x03] Work_Zone_1700[7] = 16335*
     0x0FF7 [0x01] GOTO 0x1019
     0x0FFA [0x02] IF !(LocalPlayer->Race == 8*) GOTO 0x1019
     0x1002 [0x03] Work_Zone_1700[4] = 11272*
     0x1007 [0x03] Work_Zone_1700[5] = 11280*
     0x100C [0x03] Work_Zone_1700[6] = 16328*
     0x1011 [0x03] Work_Zone_1700[7] = 16336*
     0x1016 [0x01] GOTO 0x1019
     0x1019 [0x03] Work_Zone_1700[8] = 11300*
     0x101E [0x03] Work_Zone_1700[9] = 11301*
     0x1023 [0x03] Work_Zone_1700[10] = 11290*
     0x1028 [0x02] IF !((LocalPlayer->Render.Flags01 >> 25) & 1 == 1*) GOTO 0x103D
     0x1030 [0x03] Work_Zone_1700[11] = 11316*
     0x1035 [0x03] Work_Zone_1700[12] = 11318*
     0x103A [0x01] GOTO 0x1047
     0x103D [0x03] Work_Zone_1700[11] = 11317*
     0x1042 [0x03] Work_Zone_1700[12] = 11319*
     0x1047 [0x03] Work_Zone_1700[13] = 11355*
     0x104C [0x03] Work_Zone_1700[14] = 16378*
     0x1051 [0x06] Work_Zone_1700[15] = 0
     0x1054 [0x06] Work_Zone_1700[16] = 0
     0x1057 [0x06] Work_Zone_1700[17] = 0
     0x105A [0x06] Work_Zone_1700[18] = 0
     0x105D [0x06] Work_Zone_1700[19] = 0
     0x1060 [0x06] Work_Zone_1700[20] = 0
     0x1063 [0x06] Work_Zone_1700[21] = 0
     0x1066 [0x06] Work_Zone_1700[22] = 0
     0x1069 [0x06] Work_Zone_1700[23] = 0
     0x106C [0x1B] RETURN
     0x106D [0x03] Work_Zone[2] = 264*
     0x1072 [0x03] Work_Zone[3] = 455*
     0x1077 [0x03] Work_Zone[4] = 265*
     0x107C [0x03] Work_Zone[5] = 266*
     0x1081 [0x03] Work_Zone[6] = 267*
     0x1086 [0x03] Work_Zone[7] = 456*
     0x108B [0x03] Work_Zone[8] = 457*
     0x1090 [0x03] Work_Zone[9] = 458*
     0x1095 [0x03] Work_Zone_1700[0] = 138*
     0x109A [0x03] Work_Zone_1700[1] = 269*
     0x109F [0x03] Work_Zone_1700[2] = 3641*
     0x10A4 [0x03] Work_Zone_1700[3] = 3642*
     0x10A9 [0x03] Work_Zone_1700[4] = 270*
     0x10AE [0x03] Work_Zone_1700[5] = 271*
     0x10B3 [0x03] Work_Zone_1700[6] = 3643*
     0x10B8 [0x03] Work_Zone_1700[7] = 3644*
     0x10BD [0x03] Work_Zone_1700[8] = 3645*
     0x10C2 [0x03] Work_Zone_1700[9] = 181*
     0x10C7 [0x03] Work_Zone_1700[10] = 182*
     0x10CC [0x03] Work_Zone_1700[11] = 183*
     0x10D1 [0x03] Work_Zone_1700[12] = 3622*
     0x10D6 [0x03] Work_Zone_1700[13] = 3623*
     0x10DB [0x03] Work_Zone_1700[14] = 3624*
     0x10E0 [0x03] Work_Zone_1700[15] = 3646*
     0x10E5 [0x06] Work_Zone_1700[16] = 0
     0x10E8 [0x06] Work_Zone_1700[17] = 0
     0x10EB [0x06] Work_Zone_1700[18] = 0
     0x10EE [0x06] Work_Zone_1700[19] = 0
     0x10F1 [0x06] Work_Zone_1700[20] = 0
     0x10F4 [0x06] Work_Zone_1700[21] = 0
     0x10F7 [0x06] Work_Zone_1700[22] = 0
     0x10FA [0x06] Work_Zone_1700[23] = 0
     0x10FD [0x1B] RETURN
```
