# 17719500 - Sharzalion

## Common Data

| Field            | Value                         |
|------------------|-------------------------------|
| Zone             | Southern San d'Oria (ID: 230) |
| Block Size       | 1144 bytes                    |
| Total Events     | 34                            |
| References Count | 61                            |

## List of Events

| Event ID                   | Entrypoint   |   Size |   Instructions |
|----------------------------|--------------|--------|----------------|
| [65535](#event-65535)      | 0x0000       |      4 |              2 |
| [15](#event-15)            | 0x0004       |     16 |              5 |
| [70](#event-70)            | 0x0014       |      1 |              1 |
| [71](#event-71)            | 0x0015       |    172 |             30 |
| [74](#event-74)            | 0x00C1       |     13 |              7 |
| [75](#event-75)            | 0x00CE       |      1 |              1 |
| [68](#event-68)            | 0x00CF       |     13 |              7 |
| [69](#event-69)            | 0x00DC       |     13 |              7 |
| [64](#event-64)            | 0x00E9       |      1 |              1 |
| [65](#event-65)            | 0x00EA       |     13 |              7 |
| [66](#event-66)            | 0x00F7       |     13 |              7 |
| [67](#event-67)            | 0x0104       |     13 |              7 |
| [65535.1](#event-655351)   | 0x0111       |     16 |              2 |
| [65535.2](#event-655352)   | 0x0121       |     16 |              4 |
| [65535.3](#event-655353)   | 0x0131       |     16 |              2 |
| [65535.4](#event-655354)   | 0x0141       |     32 |              4 |
| [65535.5](#event-655355)   | 0x0161       |     16 |              2 |
| [65535.6](#event-655356)   | 0x0171       |      4 |              2 |
| [65535.7](#event-655357)   | 0x0175       |     16 |              2 |
| [65535.8](#event-655358)   | 0x0185       |     14 |              2 |
| [65535.9](#event-655359)   | 0x0193       |     37 |              6 |
| [65535.10](#event-6553510) | 0x01B8       |     10 |              2 |
| [65535.11](#event-6553511) | 0x01C2       |     20 |              4 |
| [65535.12](#event-6553512) | 0x01D6       |     10 |              2 |
| [65535.13](#event-6553513) | 0x01E0       |     26 |              5 |
| [65535.14](#event-6553514) | 0x01FA       |     78 |             10 |
| [65535.15](#event-6553515) | 0x0248       |     15 |              5 |
| [65535.16](#event-6553516) | 0x0257       |     26 |              8 |
| [65535.17](#event-6553517) | 0x0271       |     10 |              2 |
| [65535.18](#event-6553518) | 0x027B       |     40 |              6 |
| [65535.19](#event-6553519) | 0x02A3       |     36 |              6 |
| [65535.20](#event-6553520) | 0x02C7       |     21 |              5 |
| [888](#event-888)          | 0x02DC       |      1 |              1 |
| [65535.21](#event-6553521) | 0x02DD       |     14 |              4 |

## DAT References (imed_data)

|   Index | Hex Value   |   Dec Value |
|---------|-------------|-------------|
|       0 | 0x000D      |          13 |
|       1 | 0x2362      |        9058 |
|       2 | 0x0015      |          21 |
|       3 | 0x00C4      |         196 |
|       4 | 0x2366      |        9062 |
|       5 | 0x2367      |        9063 |
|       6 | 0x2368      |        9064 |
|       7 | 0x0001      |           1 |
|       8 | 0x0000      |           0 |
|       9 | 0x0014      |          20 |
|      10 | 0x2369      |        9065 |
|      11 | 0x236A      |        9066 |
|      12 | 0x236B      |        9067 |
|      13 | 0x236C      |        9068 |
|      14 | 0x2392      |        9106 |
|      15 | 0x2393      |        9107 |
|      16 | 0x23A1      |        9121 |
|      17 | 0x23A2      |        9122 |
|      18 | 0x23A3      |        9123 |
|      19 | 0x001E      |          30 |
|      20 | 0x002D      |          45 |
|      21 | 0x120F6     |       73974 |
|      22 | 0xFC03      |       64515 |
|      23 | 0x0E0A      |        3594 |
|      24 | 0x135DD     |       79325 |
|      25 | 0x10F2F     |       69423 |
|      26 | 0x03E7      |         999 |
|      27 | 0x00C8      |         200 |
|      28 | 0x1B20B     |      111115 |
|      29 | 0x1ECB6     |      126134 |
|      30 | 0x023F      |         575 |
|      31 | 0x1CD1D     |      118045 |
|      32 | 0x1D231     |      119345 |
|      33 | 0x0FA0      |        4000 |
|      34 | 0x0082      |         130 |
|      35 | 0x1E5E9     |      124393 |
|      36 | 0x1B969     |      113001 |
|      37 | 0x1963      |        6499 |
|      38 | 0x01DB      |         475 |
|      39 | 0x003C      |          60 |
|      40 | 0x000A      |          10 |
|      41 | 0x1EE2D     |      126509 |
|      42 | 0x1B08E     |      110734 |
|      43 | 0x1E4B8     |      124088 |
|      44 | 0x1C4EE     |      115950 |
|      45 | 0x0DFE      |        3582 |
|      46 | 0x1EA17     |      125463 |
|      47 | 0x1CB29     |      117545 |
|      48 | 0x21226     |      135718 |
|      49 | 0x1F346     |      127814 |
|      50 | 0x0DC8      |        3528 |
|      51 | 0x21E88     |      138888 |
|      52 | 0x1FF0B     |      130827 |
|      53 | 0x0078      |         120 |
|      54 | 0x0640      |        1600 |
|      55 | 0x000F      |          15 |
|      56 | 0x17495     |       95381 |
|      57 | 0x1BBC1     |      113601 |
|      58 | 0x0F93      |        3987 |
|      59 | 0x16418     |       91160 |
|      60 | 0x1C497     |      115863 |

## String References

- **9058**: My apologies, but I've no time to talk.
- **9064**: Could you do this for me? [Of course./Not right now.]
- **9068**: Head to Davoi and search the Orcs' storage holes! The Orcs dig false ones, and often move their treasure from hole to hole. Never assume it will stay in one place for long!
- **9106**: I would not go to that church if I were you. There you'll find no coin, only intrigue.
- **9107**: What? You went to the church? How impetuous of you. And, you met the ghost? Well, there's no stopping you!
- **9121**: Fei'Yin is no place for you. And something is amiss about all of this. I feel like something...some invisible hand is guiding us somewhere. I want nothing more to do with it!
- **9122**: What, you traveled to Fei'Yin? And you say that the ghost of Rainemard needs help? I am sorry, friend, but I want nothing to do with this anymore.
- **9123**: So, that whole church uproar was Rainemard's doing... Well, I am glad his spirit found rest, and you made it out safely.

## Events

### Event 65535

#### Metadata

| Field        | Value   |
|--------------|---------|
| Entrypoint   | 0x0000  |
| Data Size    | 4 bytes |
| Instructions | 2       |

```
      00 01 02 03 04 05 06 07  08 09 0A 0B 0C 0D 0E 0F
      -- -- -- -- -- -- -- --  -- -- -- -- -- -- -- --
0000: 32 00 80 00                                       2...            
```

#### Opcodes

```
  0: 0x0000 [0x32] ExtData[1]->MainSpeed = 13* * 0.1
  1: 0x0003 [0x00] END_REQSTACK()
```

### Event 15

#### Metadata

| Field        | Value    |
|--------------|----------|
| Entrypoint   | 0x0004   |
| Data Size    | 16 bytes |
| Instructions | 5        |

```
      00 01 02 03 04 05 06 07  08 09 0A 0B 0C 0D 0E 0F
      -- -- -- -- -- -- -- --  -- -- -- -- -- -- -- --
0000:             79 00 F8 FF  FF 7F F0 FF FF 7F 1D 01      y...........
0010: 80 23 21 00                                       .#!.            
```

#### Opcodes

```
  0: 0x0004 [0x79] EventEntity looks at LocalPlayer (Basic look)
  1: 0x000E [0x1D] PRINT_EVENT_MESSAGE(message_id=9058*)
    → "My apologies, but I've no time to talk."
  2: 0x0011 [0x23] WAIT_FOR_DIALOG_INTERACTION
  3: 0x0012 [0x21] END_EVENT
  4: 0x0013 [0x00] END_REQSTACK()
```

### Event 70

#### Metadata

| Field        | Value   |
|--------------|---------|
| Entrypoint   | 0x0014  |
| Data Size    | 1 bytes |
| Instructions | 1       |

```
      00 01 02 03 04 05 06 07  08 09 0A 0B 0C 0D 0E 0F
      -- -- -- -- -- -- -- --  -- -- -- -- -- -- -- --
0010:             00                                        .           
```

#### Opcodes

```
  0: 0x0014 [0x00] END_REQSTACK()
```

### Event 71

#### Metadata

| Field        | Value     |
|--------------|-----------|
| Entrypoint   | 0x0015    |
| Data Size    | 172 bytes |
| Instructions | 30        |

```
      00 01 02 03 04 05 06 07  08 09 0A 0B 0C 0D 0E 0F
      -- -- -- -- -- -- -- --  -- -- -- -- -- -- -- --
0010:                1E F0 FF  FF 7F 6F 70 66 02 80 CC       .....opf...
0020: 60 0E 01 CC 60 0E 01 74  68 6B 31 03 02 10 03 80  `...`..thk1.....
0030: 2B CC 60 0E 01 04 80 23  66 02 80 CC 60 0E 01 CC  +.`....#f...`...
0040: 60 0E 01 74 68 6B 32 2B  CC 60 0E 01 05 80 23 24  `..thk2+.`....#$
0050: 06 80 07 80 08 80 25 02  00 10 08 80 00 90 00 42  ......%........B
0060: 66 09 80 CC 60 0E 01 CC  60 0E 01 74 6C 6B 30 2B  f...`...`..tlk0+
0070: CC 60 0E 01 0A 80 23 2B  CC 60 0E 01 0B 80 23 6B  .`....#+.`....#k
0080: 69 64 6C 30 CD 60 0E 01  03 01 10 07 80 01 BF 00  idl0.`..........
0090: 02 00 10 07 80 00 BF 00  66 02 80 CC 60 0E 01 CC  ........f...`...
00A0: 60 0E 01 64 69 73 30 2B  CC 60 0E 01 0C 80 23 53  `..dis0+.`....#S
00B0: CC 60 0E 01 CC 60 0E 01  64 69 73 30 01 BF 00 21  .`...`..dis0...!
00C0: 00                                                .               
```

#### Opcodes

```
  0: 0x0015 [0x1E] EventEntity looks at LocalPlayer and starts talking
  1: 0x001A [0x6F] WAIT_FRAME_DELAY: Yield until WaitTime reaches zero
  2: 0x001B [0x70] WAIT_ENTITY_RENDER_FLAG: Wait while EventEntity->Render.Flags3 bit 2 is set (cancel turn if not)
  3: 0x001C [0x66] LOAD_EXT_SCHEDULER_MAIN: Load scheduler "thk1" with entities [Sharzalion (ID: 17719500/0x010E60CC), Sharzalion (ID: 17719500/0x010E60CC)], work=21*
  4: 0x002B [0x03] Work_Zone[2] = 196*
  5: 0x0030 [0x2B] Sharzalion (ID: 17719500/0x010E60CC) [9062*]:
    → "Well, I've heard that in Davoi they store their riches in many different vaults. I seek to borrow $6 from them, you see."
  6: 0x0037 [0x23] WAIT_FOR_DIALOG_INTERACTION
  7: 0x0038 [0x66] LOAD_EXT_SCHEDULER_MAIN: Load scheduler "thk2" with entities [Sharzalion (ID: 17719500/0x010E60CC), Sharzalion (ID: 17719500/0x010E60CC)], work=21*
  8: 0x0047 [0x2B] Sharzalion (ID: 17719500/0x010E60CC) [9063*]:
    → "Would you mind running this errand for me? Only then I shall tell you my tale. I guarantee it will be worth your while."
  9: 0x004E [0x23] WAIT_FOR_DIALOG_INTERACTION
 10: 0x004F [0x24] CREATE_DIALOG(message_id=9064*, default_option=1*, option_flags=0*)
    → "Could you do this for me? [Of course./Not right now.]"
 11: 0x0056 [0x25] WAIT_DIALOG_SELECT()
 12: 0x0057 [0x02] IF !(Work_Zone[0] == 0*) GOTO 0x0090
 13: 0x005F [0x42] SET_CLI_EVENT_CANCEL_DATA()
 14: 0x0060 [0x66] LOAD_EXT_SCHEDULER_MAIN: Load scheduler "tlk0" with entities [Sharzalion (ID: 17719500/0x010E60CC), Sharzalion (ID: 17719500/0x010E60CC)], work=20*
 15: 0x006F [0x2B] Sharzalion (ID: 17719500/0x010E60CC) [9065*]:
    → "That's the spirit, my friend. Now, head to Davoi and search the Orcs' storage holes."
 16: 0x0076 [0x23] WAIT_FOR_DIALOG_INTERACTION
 17: 0x0077 [0x2B] Sharzalion (ID: 17719500/0x010E60CC) [9066*]:
    → "The malicious Orcs dig false ones, and often move their treasure from hole to hole as well. Never assume it will stay in one place for long!"
 18: 0x007E [0x23] WAIT_FOR_DIALOG_INTERACTION
 19: 0x007F [0x6B] STOP_AND_IDLE: Valderotaux (ID: 17719501/0x010E60CD) stops current action and resets to idle (animation="idl0")
 20: 0x0088 [0x03] Work_Zone[1] = 1*
 21: 0x008D [0x01] GOTO 0x00BF
 22: 0x0090 [0x02] IF !(Work_Zone[0] == 1*) GOTO 0x00BF
 23: 0x0098 [0x66] LOAD_EXT_SCHEDULER_MAIN: Load scheduler "dis0" with entities [Sharzalion (ID: 17719500/0x010E60CC), Sharzalion (ID: 17719500/0x010E60CC)], work=21*
 24: 0x00A7 [0x2B] Sharzalion (ID: 17719500/0x010E60CC) [9067*]:
    → "Hmph. I pity the adventurer who shrinks before a challenge."
 25: 0x00AE [0x23] WAIT_FOR_DIALOG_INTERACTION
 26: 0x00AF [0x53] WAIT_SCHEDULER_TASK: Wait for scheduler "dis0" with entities [Sharzalion (ID: 17719500/0x010E60CC), Sharzalion (ID: 17719500/0x010E60CC)]
 27: 0x00BC [0x01] GOTO 0x00BF

SUBROUTINE_00BF:
 28: 0x00BF [0x21] END_EVENT
 29: 0x00C0 [0x00] END_REQSTACK()
```

### Event 74

#### Metadata

| Field        | Value    |
|--------------|----------|
| Entrypoint   | 0x00C1   |
| Data Size    | 13 bytes |
| Instructions | 7        |

```
      00 01 02 03 04 05 06 07  08 09 0A 0B 0C 0D 0E 0F
      -- -- -- -- -- -- -- --  -- -- -- -- -- -- -- --
00C0:    1E F0 FF FF 7F 6F 70  1D 0D 80 23 21 00         .....op...#!.  
```

#### Opcodes

```
  0: 0x00C1 [0x1E] EventEntity looks at LocalPlayer and starts talking
  1: 0x00C6 [0x6F] WAIT_FRAME_DELAY: Yield until WaitTime reaches zero
  2: 0x00C7 [0x70] WAIT_ENTITY_RENDER_FLAG: Wait while EventEntity->Render.Flags3 bit 2 is set (cancel turn if not)
  3: 0x00C8 [0x1D] PRINT_EVENT_MESSAGE(message_id=9068*)
    → "Head to Davoi and search the Orcs' storage holes! The Orcs dig false ones, and often move their treasure from hole to hole. Never assume it will stay in one place for long!"
  4: 0x00CB [0x23] WAIT_FOR_DIALOG_INTERACTION
  5: 0x00CC [0x21] END_EVENT
  6: 0x00CD [0x00] END_REQSTACK()
```

### Event 75

#### Metadata

| Field        | Value   |
|--------------|---------|
| Entrypoint   | 0x00CE  |
| Data Size    | 1 bytes |
| Instructions | 1       |

```
      00 01 02 03 04 05 06 07  08 09 0A 0B 0C 0D 0E 0F
      -- -- -- -- -- -- -- --  -- -- -- -- -- -- -- --
00C0:                                            00                   . 
```

#### Opcodes

```
  0: 0x00CE [0x00] END_REQSTACK()
```

### Event 68

#### Metadata

| Field        | Value    |
|--------------|----------|
| Entrypoint   | 0x00CF   |
| Data Size    | 13 bytes |
| Instructions | 7        |

```
      00 01 02 03 04 05 06 07  08 09 0A 0B 0C 0D 0E 0F
      -- -- -- -- -- -- -- --  -- -- -- -- -- -- -- --
00C0:                                               1E                 .
00D0: F0 FF FF 7F 6F 70 1D 0E  80 23 21 00              ....op...#!.    
```

#### Opcodes

```
  0: 0x00CF [0x1E] EventEntity looks at LocalPlayer and starts talking
  1: 0x00D4 [0x6F] WAIT_FRAME_DELAY: Yield until WaitTime reaches zero
  2: 0x00D5 [0x70] WAIT_ENTITY_RENDER_FLAG: Wait while EventEntity->Render.Flags3 bit 2 is set (cancel turn if not)
  3: 0x00D6 [0x1D] PRINT_EVENT_MESSAGE(message_id=9106*)
    → "I would not go to that church if I were you. There you'll find no coin, only intrigue."
  4: 0x00D9 [0x23] WAIT_FOR_DIALOG_INTERACTION
  5: 0x00DA [0x21] END_EVENT
  6: 0x00DB [0x00] END_REQSTACK()
```

### Event 69

#### Metadata

| Field        | Value    |
|--------------|----------|
| Entrypoint   | 0x00DC   |
| Data Size    | 13 bytes |
| Instructions | 7        |

```
      00 01 02 03 04 05 06 07  08 09 0A 0B 0C 0D 0E 0F
      -- -- -- -- -- -- -- --  -- -- -- -- -- -- -- --
00D0:                                      1E F0 FF FF              ....
00E0: 7F 6F 70 1D 0F 80 23 21  00                       .op...#!.       
```

#### Opcodes

```
  0: 0x00DC [0x1E] EventEntity looks at LocalPlayer and starts talking
  1: 0x00E1 [0x6F] WAIT_FRAME_DELAY: Yield until WaitTime reaches zero
  2: 0x00E2 [0x70] WAIT_ENTITY_RENDER_FLAG: Wait while EventEntity->Render.Flags3 bit 2 is set (cancel turn if not)
  3: 0x00E3 [0x1D] PRINT_EVENT_MESSAGE(message_id=9107*)
    → "What? You went to the church? How impetuous of you. And, you met the ghost? Well, there's no stopping you!"
  4: 0x00E6 [0x23] WAIT_FOR_DIALOG_INTERACTION
  5: 0x00E7 [0x21] END_EVENT
  6: 0x00E8 [0x00] END_REQSTACK()
```

### Event 64

#### Metadata

| Field        | Value   |
|--------------|---------|
| Entrypoint   | 0x00E9  |
| Data Size    | 1 bytes |
| Instructions | 1       |

```
      00 01 02 03 04 05 06 07  08 09 0A 0B 0C 0D 0E 0F
      -- -- -- -- -- -- -- --  -- -- -- -- -- -- -- --
00E0:                             00                             .      
```

#### Opcodes

```
  0: 0x00E9 [0x00] END_REQSTACK()
```

### Event 65

#### Metadata

| Field        | Value    |
|--------------|----------|
| Entrypoint   | 0x00EA   |
| Data Size    | 13 bytes |
| Instructions | 7        |

```
      00 01 02 03 04 05 06 07  08 09 0A 0B 0C 0D 0E 0F
      -- -- -- -- -- -- -- --  -- -- -- -- -- -- -- --
00E0:                                1E F0 FF FF 7F 6F            .....o
00F0: 70 1D 10 80 23 21 00                              p...#!.         
```

#### Opcodes

```
  0: 0x00EA [0x1E] EventEntity looks at LocalPlayer and starts talking
  1: 0x00EF [0x6F] WAIT_FRAME_DELAY: Yield until WaitTime reaches zero
  2: 0x00F0 [0x70] WAIT_ENTITY_RENDER_FLAG: Wait while EventEntity->Render.Flags3 bit 2 is set (cancel turn if not)
  3: 0x00F1 [0x1D] PRINT_EVENT_MESSAGE(message_id=9121*)
    → "Fei'Yin is no place for you. And something is amiss about all of this. I feel like something...some invisible hand is guiding us somewhere. I want nothing more to do with it!"
  4: 0x00F4 [0x23] WAIT_FOR_DIALOG_INTERACTION
  5: 0x00F5 [0x21] END_EVENT
  6: 0x00F6 [0x00] END_REQSTACK()
```

### Event 66

#### Metadata

| Field        | Value    |
|--------------|----------|
| Entrypoint   | 0x00F7   |
| Data Size    | 13 bytes |
| Instructions | 7        |

```
      00 01 02 03 04 05 06 07  08 09 0A 0B 0C 0D 0E 0F
      -- -- -- -- -- -- -- --  -- -- -- -- -- -- -- --
00F0:                      1E  F0 FF FF 7F 6F 70 1D 11         .....op..
0100: 80 23 21 00                                       .#!.            
```

#### Opcodes

```
  0: 0x00F7 [0x1E] EventEntity looks at LocalPlayer and starts talking
  1: 0x00FC [0x6F] WAIT_FRAME_DELAY: Yield until WaitTime reaches zero
  2: 0x00FD [0x70] WAIT_ENTITY_RENDER_FLAG: Wait while EventEntity->Render.Flags3 bit 2 is set (cancel turn if not)
  3: 0x00FE [0x1D] PRINT_EVENT_MESSAGE(message_id=9122*)
    → "What, you traveled to Fei'Yin? And you say that the ghost of Rainemard needs help? I am sorry, friend, but I want nothing to do with this anymore."
  4: 0x0101 [0x23] WAIT_FOR_DIALOG_INTERACTION
  5: 0x0102 [0x21] END_EVENT
  6: 0x0103 [0x00] END_REQSTACK()
```

### Event 67

#### Metadata

| Field        | Value    |
|--------------|----------|
| Entrypoint   | 0x0104   |
| Data Size    | 13 bytes |
| Instructions | 7        |

```
      00 01 02 03 04 05 06 07  08 09 0A 0B 0C 0D 0E 0F
      -- -- -- -- -- -- -- --  -- -- -- -- -- -- -- --
0100:             1E F0 FF FF  7F 6F 70 1D 12 80 23 21      .....op...#!
0110: 00                                                .               
```

#### Opcodes

```
  0: 0x0104 [0x1E] EventEntity looks at LocalPlayer and starts talking
  1: 0x0109 [0x6F] WAIT_FRAME_DELAY: Yield until WaitTime reaches zero
  2: 0x010A [0x70] WAIT_ENTITY_RENDER_FLAG: Wait while EventEntity->Render.Flags3 bit 2 is set (cancel turn if not)
  3: 0x010B [0x1D] PRINT_EVENT_MESSAGE(message_id=9123*)
    → "So, that whole church uproar was Rainemard's doing... Well, I am glad his spirit found rest, and you made it out safely."
  4: 0x010E [0x23] WAIT_FOR_DIALOG_INTERACTION
  5: 0x010F [0x21] END_EVENT
  6: 0x0110 [0x00] END_REQSTACK()
```

### Event 65535.1

#### Metadata

| Field        | Value    |
|--------------|----------|
| Entrypoint   | 0x0111   |
| Data Size    | 16 bytes |
| Instructions | 2        |

```
      00 01 02 03 04 05 06 07  08 09 0A 0B 0C 0D 0E 0F
      -- -- -- -- -- -- -- --  -- -- -- -- -- -- -- --
0110:    66 09 80 F8 FF FF 7F  F8 FF FF 7F 74 6C 6B 30   f..........tlk0
0120: 00                                                .               
```

#### Opcodes

```
  0: 0x0111 [0x66] LOAD_EXT_SCHEDULER_MAIN: Load scheduler "tlk0" with entities [EventEntity, EventEntity], work=20*
  1: 0x0120 [0x00] END_REQSTACK()
```

### Event 65535.2

#### Metadata

| Field        | Value    |
|--------------|----------|
| Entrypoint   | 0x0121   |
| Data Size    | 16 bytes |
| Instructions | 4        |

```
      00 01 02 03 04 05 06 07  08 09 0A 0B 0C 0D 0E 0F
      -- -- -- -- -- -- -- --  -- -- -- -- -- -- -- --
0120:    1C 13 80 6B 69 64 6C  30 F8 FF FF 7F 1C 13 80   ...kidl0.......
0130: 00                                                .               
```

#### Opcodes

```
  0: 0x0121 [0x1C] WAIT(30* ticks)
  1: 0x0124 [0x6B] STOP_AND_IDLE: EventEntity stops current action and resets to idle (animation="idl0")
  2: 0x012D [0x1C] WAIT(30* ticks)
  3: 0x0130 [0x00] END_REQSTACK()
```

### Event 65535.3

#### Metadata

| Field        | Value    |
|--------------|----------|
| Entrypoint   | 0x0131   |
| Data Size    | 16 bytes |
| Instructions | 2        |

```
      00 01 02 03 04 05 06 07  08 09 0A 0B 0C 0D 0E 0F
      -- -- -- -- -- -- -- --  -- -- -- -- -- -- -- --
0130:    66 09 80 F8 FF FF 7F  F8 FF FF 7F 74 68 6B 31   f..........thk1
0140: 00                                                .               
```

#### Opcodes

```
  0: 0x0131 [0x66] LOAD_EXT_SCHEDULER_MAIN: Load scheduler "thk1" with entities [EventEntity, EventEntity], work=20*
  1: 0x0140 [0x00] END_REQSTACK()
```

### Event 65535.4

#### Metadata

| Field        | Value    |
|--------------|----------|
| Entrypoint   | 0x0141   |
| Data Size    | 32 bytes |
| Instructions | 4        |

```
      00 01 02 03 04 05 06 07  08 09 0A 0B 0C 0D 0E 0F
      -- -- -- -- -- -- -- --  -- -- -- -- -- -- -- --
0140:    1C 13 80 66 09 80 F8  FF FF 7F F8 FF FF 7F 74   ...f..........t
0150: 68 6B 32 53 F8 FF FF 7F  F8 FF FF 7F 74 68 6B 32  hk2S........thk2
0160: 00                                                .               
```

#### Opcodes

```
  0: 0x0141 [0x1C] WAIT(30* ticks)
  1: 0x0144 [0x66] LOAD_EXT_SCHEDULER_MAIN: Load scheduler "thk2" with entities [EventEntity, EventEntity], work=20*
  2: 0x0153 [0x53] WAIT_SCHEDULER_TASK: Wait for scheduler "thk2" with entities [EventEntity, EventEntity]
  3: 0x0160 [0x00] END_REQSTACK()
```

### Event 65535.5

#### Metadata

| Field        | Value    |
|--------------|----------|
| Entrypoint   | 0x0161   |
| Data Size    | 16 bytes |
| Instructions | 2        |

```
      00 01 02 03 04 05 06 07  08 09 0A 0B 0C 0D 0E 0F
      -- -- -- -- -- -- -- --  -- -- -- -- -- -- -- --
0160:    66 02 80 F8 FF FF 7F  F8 FF FF 7F 64 69 73 30   f..........dis0
0170: 00                                                .               
```

#### Opcodes

```
  0: 0x0161 [0x66] LOAD_EXT_SCHEDULER_MAIN: Load scheduler "dis0" with entities [EventEntity, EventEntity], work=21*
  1: 0x0170 [0x00] END_REQSTACK()
```

### Event 65535.6

#### Metadata

| Field        | Value   |
|--------------|---------|
| Entrypoint   | 0x0171  |
| Data Size    | 4 bytes |
| Instructions | 2       |

```
      00 01 02 03 04 05 06 07  08 09 0A 0B 0C 0D 0E 0F
      -- -- -- -- -- -- -- --  -- -- -- -- -- -- -- --
0170:    1C 13 80 00                                     ....           
```

#### Opcodes

```
  0: 0x0171 [0x1C] WAIT(30* ticks)
  1: 0x0174 [0x00] END_REQSTACK()
```

### Event 65535.7

#### Metadata

| Field        | Value    |
|--------------|----------|
| Entrypoint   | 0x0175   |
| Data Size    | 16 bytes |
| Instructions | 2        |

```
      00 01 02 03 04 05 06 07  08 09 0A 0B 0C 0D 0E 0F
      -- -- -- -- -- -- -- --  -- -- -- -- -- -- -- --
0170:                66 09 80  F8 FF FF 7F F8 FF FF 7F       f..........
0180: 70 61 73 30 00                                    pas0.           
```

#### Opcodes

```
  0: 0x0175 [0x66] LOAD_EXT_SCHEDULER_MAIN: Load scheduler "pas0" with entities [EventEntity, EventEntity], work=20*
  1: 0x0184 [0x00] END_REQSTACK()
```

### Event 65535.8

#### Metadata

| Field        | Value    |
|--------------|----------|
| Entrypoint   | 0x0185   |
| Data Size    | 14 bytes |
| Instructions | 2        |

```
      00 01 02 03 04 05 06 07  08 09 0A 0B 0C 0D 0E 0F
      -- -- -- -- -- -- -- --  -- -- -- -- -- -- -- --
0180:                53 F8 FF  FF 7F F8 FF FF 7F 70 61       S........pa
0190: 73 30 00                                          s0.             
```

#### Opcodes

```
  0: 0x0185 [0x53] WAIT_SCHEDULER_TASK: Wait for scheduler "pas0" with entities [EventEntity, EventEntity]
  1: 0x0192 [0x00] END_REQSTACK()
```

### Event 65535.9

#### Metadata

| Field        | Value    |
|--------------|----------|
| Entrypoint   | 0x0193   |
| Data Size    | 37 bytes |
| Instructions | 6        |

```
      00 01 02 03 04 05 06 07  08 09 0A 0B 0C 0D 0E 0F
      -- -- -- -- -- -- -- --  -- -- -- -- -- -- -- --
0190:          79 00 CC 60 0E  01 CD 60 0E 01 1C 14 80     y..`...`.....
01A0: 7B CC 60 0E 01 1C 13 80  66 09 80 F8 FF FF 7F F8  {.`.....f.......
01B0: FF FF 7F 74 6C 6B 30 00                           ...tlk0.        
```

#### Opcodes

```
  0: 0x0193 [0x79] Sharzalion (ID: 17719500/0x010E60CC) looks at Valderotaux (ID: 17719501/0x010E60CD) (Basic look)
  1: 0x019D [0x1C] WAIT(45* ticks)
  2: 0x01A0 [0x7B] Sharzalion (ID: 17719500/0x010E60CC) stops talking
  3: 0x01A5 [0x1C] WAIT(30* ticks)
  4: 0x01A8 [0x66] LOAD_EXT_SCHEDULER_MAIN: Load scheduler "tlk0" with entities [EventEntity, EventEntity], work=20*
  5: 0x01B7 [0x00] END_REQSTACK()
```

### Event 65535.10

#### Metadata

| Field        | Value    |
|--------------|----------|
| Entrypoint   | 0x01B8   |
| Data Size    | 10 bytes |
| Instructions | 2        |

```
      00 01 02 03 04 05 06 07  08 09 0A 0B 0C 0D 0E 0F
      -- -- -- -- -- -- -- --  -- -- -- -- -- -- -- --
01B0:                          37 15 80 16 80 08 80 17          7.......
01C0: 80 00                                             ..              
```

#### Opcodes

```
  0: 0x01B8 [0x37] UPDATE_EVENT_POSITION_AND_DIR: x=73.974*, z=64.515*, y=0.000*, direction=315.9°*
  1: 0x01C1 [0x00] END_REQSTACK()
```

### Event 65535.11

#### Metadata

| Field        | Value    |
|--------------|----------|
| Entrypoint   | 0x01C2   |
| Data Size    | 20 bytes |
| Instructions | 4        |

```
      00 01 02 03 04 05 06 07  08 09 0A 0B 0C 0D 0E 0F
      -- -- -- -- -- -- -- --  -- -- -- -- -- -- -- --
01C0:       27 03 CD 60 0E 01  0F 31 00 18 80 19 80 1A    '..`...1......
01D0: 80 1B 80 31 01 00                                 ...1..          
```

#### Opcodes

```
  0: 0x01C2 [0x27] REQ_SET(priority=0x03, entity_id=Valderotaux (ID: 17719501/0x010E60CD), tag_num=0x0F)
  1: 0x01C9 [0x31] UPDATE_ENTITY_POSITION: Set EventEntity goal position to X=79.325*, Z=69.423*, Y=0.999*, Time=200*
  2: 0x01D3 [0x31] UPDATE_ENTITY_POSITION: Move EventEntity towards goal position
  3: 0x01D5 [0x00] END_REQSTACK()
```

### Event 65535.12

#### Metadata

| Field        | Value    |
|--------------|----------|
| Entrypoint   | 0x01D6   |
| Data Size    | 10 bytes |
| Instructions | 2        |

```
      00 01 02 03 04 05 06 07  08 09 0A 0B 0C 0D 0E 0F
      -- -- -- -- -- -- -- --  -- -- -- -- -- -- -- --
01D0:                   37 1C  80 1D 80 08 80 1E 80 00        7.........
```

#### Opcodes

```
  0: 0x01D6 [0x37] UPDATE_EVENT_POSITION_AND_DIR: x=111.115*, z=126.134*, y=0.000*, direction=50.5°*
  1: 0x01DF [0x00] END_REQSTACK()
```

### Event 65535.13

#### Metadata

| Field        | Value    |
|--------------|----------|
| Entrypoint   | 0x01E0   |
| Data Size    | 26 bytes |
| Instructions | 5        |

```
      00 01 02 03 04 05 06 07  08 09 0A 0B 0C 0D 0E 0F
      -- -- -- -- -- -- -- --  -- -- -- -- -- -- -- --
01E0: 27 03 CD 60 0E 01 0F 31  00 1F 80 20 80 21 80 1B  '..`...1... .!..
01F0: 80 31 01 2A 03 CD 60 0E  01 00                    .1.*..`...      
```

#### Opcodes

```
  0: 0x01E0 [0x27] REQ_SET(priority=0x03, entity_id=Valderotaux (ID: 17719501/0x010E60CD), tag_num=0x0F)
  1: 0x01E7 [0x31] UPDATE_ENTITY_POSITION: Set EventEntity goal position to X=118.045*, Z=119.345*, Y=4.000*, Time=200*
  2: 0x01F1 [0x31] UPDATE_ENTITY_POSITION: Move EventEntity towards goal position
  3: 0x01F3 [0x2A] GET_REQ_LEVEL(level=3, entity_id=Valderotaux (ID: 17719501/0x010E60CD))
  4: 0x01F9 [0x00] END_REQSTACK()
```

### Event 65535.14

#### Metadata

| Field        | Value    |
|--------------|----------|
| Entrypoint   | 0x01FA   |
| Data Size    | 78 bytes |
| Instructions | 10       |

```
      00 01 02 03 04 05 06 07  08 09 0A 0B 0C 0D 0E 0F
      -- -- -- -- -- -- -- --  -- -- -- -- -- -- -- --
01F0:                                45 22 80 F0 FF FF            E"....
0200: 7F F0 FF FF 7F 63 6D 30  32 08 80 55 22 80 F0 FF  .....cm02..U"...
0210: FF 7F F0 FF FF 7F 63 6D  30 32 37 23 80 24 80 25  ......cm027#.$.%
0220: 80 26 80 1C 27 80 45 1B  80 F0 FF FF 7F F0 FF FF  .&..'.E.........
0230: 7F 66 64 69 31 08 80 1C  28 80 1F 00 29 80 2A 80  .fdi1...(...).*.
0240: 25 80 1F 01 1C 27 80 00                           %....'..        
```

#### Opcodes

```
  0: 0x01FA [0x45] LOAD_SCHEDULED_TASK: Load scheduler "cm02" with entities [LocalPlayer, LocalPlayer], work=[130*, 0*]
  1: 0x020B [0x55] WAIT_LOAD_SCHEDULER: Wait for scheduler "cm02" with entities [LocalPlayer, LocalPlayer], work=130*
  2: 0x021A [0x37] UPDATE_EVENT_POSITION_AND_DIR: x=124.393*, z=113.001*, y=6.499*, direction=41.7°*
  3: 0x0223 [0x1C] WAIT(60* ticks)
  4: 0x0226 [0x45] LOAD_SCHEDULED_TASK: Load scheduler "fdi1" with entities [LocalPlayer, LocalPlayer], work=[200*, 0*]
  5: 0x0237 [0x1C] WAIT(10* ticks)
  6: 0x023A [0x1F] MOVE_ENTITY: EventEntity moves to X=126.509*, Z=110.734*, Y=6.499*
  7: 0x0242 [0x1F] MOVE_ENTITY: Update entity position (mode=1)
  8: 0x0244 [0x1C] WAIT(60* ticks)
  9: 0x0247 [0x00] END_REQSTACK()
```

### Event 65535.15

#### Metadata

| Field        | Value    |
|--------------|----------|
| Entrypoint   | 0x0248   |
| Data Size    | 15 bytes |
| Instructions | 5        |

```
      00 01 02 03 04 05 06 07  08 09 0A 0B 0C 0D 0E 0F
      -- -- -- -- -- -- -- --  -- -- -- -- -- -- -- --
0240:                          1F 00 2B 80 2C 80 25 80          ..+.,.%.
0250: 1F 01 6F 39 2D 80 00                              ..o9-..         
```

#### Opcodes

```
  0: 0x0248 [0x1F] MOVE_ENTITY: EventEntity moves to X=124.088*, Z=115.950*, Y=6.499*
  1: 0x0250 [0x1F] MOVE_ENTITY: Update entity position (mode=1)
  2: 0x0252 [0x6F] WAIT_FRAME_DELAY: Yield until WaitTime reaches zero
  3: 0x0253 [0x39] SET_ENTITY_DIRECTION(direction=19.7°*)
  4: 0x0256 [0x00] END_REQSTACK()
```

### Event 65535.16

#### Metadata

| Field        | Value    |
|--------------|----------|
| Entrypoint   | 0x0257   |
| Data Size    | 26 bytes |
| Instructions | 8        |

```
      00 01 02 03 04 05 06 07  08 09 0A 0B 0C 0D 0E 0F
      -- -- -- -- -- -- -- --  -- -- -- -- -- -- -- --
0250:                      61  00 27 03 CE 60 0E 01 02         a.'..`...
0260: 1C 27 80 1F 00 2E 80 2F  80 25 80 1F 01 6F 61 01  .'...../.%...oa.
0270: 00                                                .               
```

#### Opcodes

```
  0: 0x0257 [0x61] EventEntity->Render.Flags2 &= ~0x00000001
  1: 0x0259 [0x27] REQ_SET(priority=0x03, entity_id=Unknown NPC (ID: 17719502/0x010E60CE), tag_num=0x02)
  2: 0x0260 [0x1C] WAIT(60* ticks)
  3: 0x0263 [0x1F] MOVE_ENTITY: EventEntity moves to X=125.463*, Z=117.545*, Y=6.499*
  4: 0x026B [0x1F] MOVE_ENTITY: Update entity position (mode=1)
  5: 0x026D [0x6F] WAIT_FRAME_DELAY: Yield until WaitTime reaches zero
  6: 0x026E [0x61] EventEntity->Render.Flags2 |= 0x00000001
  7: 0x0270 [0x00] END_REQSTACK()
```

### Event 65535.17

#### Metadata

| Field        | Value    |
|--------------|----------|
| Entrypoint   | 0x0271   |
| Data Size    | 10 bytes |
| Instructions | 2        |

```
      00 01 02 03 04 05 06 07  08 09 0A 0B 0C 0D 0E 0F
      -- -- -- -- -- -- -- --  -- -- -- -- -- -- -- --
0270:    37 30 80 31 80 25 80  32 80 00                  70.1.%.2..     
```

#### Opcodes

```
  0: 0x0271 [0x37] UPDATE_EVENT_POSITION_AND_DIR: x=135.718*, z=127.814*, y=6.499*, direction=310.1°*
  1: 0x027A [0x00] END_REQSTACK()
```

### Event 65535.18

#### Metadata

| Field        | Value    |
|--------------|----------|
| Entrypoint   | 0x027B   |
| Data Size    | 40 bytes |
| Instructions | 6        |

```
      00 01 02 03 04 05 06 07  08 09 0A 0B 0C 0D 0E 0F
      -- -- -- -- -- -- -- --  -- -- -- -- -- -- -- --
0270:                                   1F 00 33 80 34             ..3.4
0280: 80 25 80 1F 01 1C 27 80  2C F8 FF FF 7F F8 FF FF  .%....'.,.......
0290: 7F 72 65 73 30 53 F8 FF  FF 7F F8 FF FF 7F 72 65  .res0S........re
02A0: 73 30 00                                          s0.             
```

#### Opcodes

```
  0: 0x027B [0x1F] MOVE_ENTITY: EventEntity moves to X=138.888*, Z=130.827*, Y=6.499*
  1: 0x0283 [0x1F] MOVE_ENTITY: Update entity position (mode=1)
  2: 0x0285 [0x1C] WAIT(60* ticks)
  3: 0x0288 [0x2C] CREATE_SCHEDULER_TASK: Create scheduler "res0" with entities [EventEntity, EventEntity]
  4: 0x0295 [0x53] WAIT_SCHEDULER_TASK: Wait for scheduler "res0" with entities [EventEntity, EventEntity]
  5: 0x02A2 [0x00] END_REQSTACK()
```

### Event 65535.19

#### Metadata

| Field        | Value    |
|--------------|----------|
| Entrypoint   | 0x02A3   |
| Data Size    | 36 bytes |
| Instructions | 6        |

```
      00 01 02 03 04 05 06 07  08 09 0A 0B 0C 0D 0E 0F
      -- -- -- -- -- -- -- --  -- -- -- -- -- -- -- --
02A0:          2C F8 FF FF 7F  F8 FF FF 7F 72 65 73 32     ,........res2
02B0: 53 F8 FF FF 7F F8 FF FF  7F 72 65 73 32 1C 35 80  S........res2.5.
02C0: 39 36 80 1C 37 80 00                              96..7..         
```

#### Opcodes

```
  0: 0x02A3 [0x2C] CREATE_SCHEDULER_TASK: Create scheduler "res2" with entities [EventEntity, EventEntity]
  1: 0x02B0 [0x53] WAIT_SCHEDULER_TASK: Wait for scheduler "res2" with entities [EventEntity, EventEntity]
  2: 0x02BD [0x1C] WAIT(120* ticks)
  3: 0x02C0 [0x39] SET_ENTITY_DIRECTION(direction=8.8°*)
  4: 0x02C3 [0x1C] WAIT(15* ticks)
  5: 0x02C6 [0x00] END_REQSTACK()
```

### Event 65535.20

#### Metadata

| Field        | Value    |
|--------------|----------|
| Entrypoint   | 0x02C7   |
| Data Size    | 21 bytes |
| Instructions | 5        |

```
      00 01 02 03 04 05 06 07  08 09 0A 0B 0C 0D 0E 0F
      -- -- -- -- -- -- -- --  -- -- -- -- -- -- -- --
02C0:                      37  38 80 39 80 08 80 3A 80         78.9...:.
02D0: 1E F0 FF FF 7F 6F 76 F0  FF FF 7F 00              .....ov.....    
```

#### Opcodes

```
  0: 0x02C7 [0x37] UPDATE_EVENT_POSITION_AND_DIR: x=95.381*, z=113.601*, y=0.000*, direction=350.4°*
  1: 0x02D0 [0x1E] EventEntity looks at LocalPlayer and starts talking
  2: 0x02D5 [0x6F] WAIT_FRAME_DELAY: Yield until WaitTime reaches zero
  3: 0x02D6 [0x76] CHECK_ENTITY_RENDER_FLAGS: Wait until LocalPlayer Render.Flags0 and Render.Flags3 conditions are met
  4: 0x02DB [0x00] END_REQSTACK()
```

### Event 888

#### Metadata

| Field        | Value   |
|--------------|---------|
| Entrypoint   | 0x02DC  |
| Data Size    | 1 bytes |
| Instructions | 1       |

```
      00 01 02 03 04 05 06 07  08 09 0A 0B 0C 0D 0E 0F
      -- -- -- -- -- -- -- --  -- -- -- -- -- -- -- --
02D0:                                      00                       .   
```

#### Opcodes

```
  0: 0x02DC [0x00] END_REQSTACK()
```

### Event 65535.21

#### Metadata

| Field        | Value    |
|--------------|----------|
| Entrypoint   | 0x02DD   |
| Data Size    | 14 bytes |
| Instructions | 4        |

```
      00 01 02 03 04 05 06 07  08 09 0A 0B 0C 0D 0E 0F
      -- -- -- -- -- -- -- --  -- -- -- -- -- -- -- --
02D0:                                         32 00 80               2..
02E0: 1F 00 3B 80 3C 80 08 80  1F 01 00                 ..;.<......     
```

#### Opcodes

```
  0: 0x02DD [0x32] ExtData[1]->MainSpeed = 13* * 0.1
  1: 0x02E0 [0x1F] MOVE_ENTITY: EventEntity moves to X=91.160*, Z=115.863*, Y=0.000*
  2: 0x02E8 [0x1F] MOVE_ENTITY: Update entity position (mode=1)
  3: 0x02EA [0x00] END_REQSTACK()
```
