# 17719365 - Trion

## Common Data

| Field            | Value                         |
|------------------|-------------------------------|
| Zone             | Southern San d'Oria (ID: 230) |
| Block Size       | 940 bytes                     |
| Total Events     | 32                            |
| References Count | 53                            |

## List of Events

| Event ID                   | Entrypoint   |   Size |   Instructions |
|----------------------------|--------------|--------|----------------|
| [65535](#event-65535)      | 0x0000       |      1 |              1 |
| [13](#event-13)            | 0x0001       |     12 |              3 |
| [65535.1](#event-655351)   | 0x000D       |     14 |              4 |
| [65535.2](#event-655352)   | 0x001B       |     43 |             10 |
| [0](#event-0)              | 0x0046       |     40 |              7 |
| [65535.3](#event-655353)   | 0x006E       |     29 |              6 |
| [65535.4](#event-655354)   | 0x008B       |     17 |              5 |
| [65535.5](#event-655355)   | 0x009C       |     15 |              5 |
| [65535.6](#event-655356)   | 0x00AB       |      6 |              2 |
| [597](#event-597)          | 0x00B1       |      1 |              1 |
| [65535.7](#event-655357)   | 0x00B2       |     47 |              5 |
| [65535.8](#event-655358)   | 0x00E1       |     25 |              5 |
| [65535.9](#event-655359)   | 0x00FA       |     34 |              8 |
| [65535.10](#event-6553510) | 0x011C       |     11 |              3 |
| [65535.11](#event-6553511) | 0x0127       |     10 |              2 |
| [65535.12](#event-6553512) | 0x0131       |      9 |              3 |
| [65535.13](#event-6553513) | 0x013A       |     14 |              4 |
| [65535.14](#event-6553514) | 0x0148       |     19 |              5 |
| [65535.15](#event-6553515) | 0x015B       |      6 |              2 |
| [65535.16](#event-6553516) | 0x0161       |      6 |              2 |
| [65535.17](#event-6553517) | 0x0167       |      6 |              2 |
| [65535.18](#event-6553518) | 0x016D       |      9 |              3 |
| [65535.19](#event-6553519) | 0x0176       |      9 |              3 |
| [65535.20](#event-6553520) | 0x017F       |      9 |              3 |
| [65535.21](#event-6553521) | 0x0188       |     13 |              3 |
| [65535.22](#event-6553522) | 0x0195       |     32 |              8 |
| [65535.23](#event-6553523) | 0x01B5       |     19 |              3 |
| [65535.24](#event-6553524) | 0x01C8       |     29 |              3 |
| [65535.25](#event-6553525) | 0x01E5       |     19 |              3 |
| [65535.26](#event-6553526) | 0x01F8       |     29 |              3 |
| [65535.27](#event-6553527) | 0x0215       |     19 |              3 |
| [65535.28](#event-6553528) | 0x0228       |     29 |              3 |

## DAT References (imed_data)

|   Index | Hex Value   |   Dec Value |
|---------|-------------|-------------|
|       0 | 0xFFFDF877  |  4294834295 |
|       1 | 0xEC7D      |       60541 |
|       2 | 0xFFFFD5D0  |  4294956496 |
|       3 | 0x09F0      |        2544 |
|       4 | 0x000D      |          13 |
|       5 | 0xFFFDEDBD  |  4294831549 |
|       6 | 0xF6EA      |       63210 |
|       7 | 0xFFFE0476  |  4294837366 |
|       8 | 0xE3E5      |       58341 |
|       9 | 0xFFFE0DA2  |  4294839714 |
|      10 | 0xEB04      |       60164 |
|      11 | 0xFFFE843B  |  4294870075 |
|      12 | 0x112A9     |       70313 |
|      13 | 0x018E      |         398 |
|      14 | 0x05C4      |        1476 |
|      15 | 0x0080      |         128 |
|      16 | 0x0001      |           1 |
|      17 | 0x0000      |           0 |
|      18 | 0x1215A     |       74074 |
|      19 | 0xFFFF7A1B  |  4294933019 |
|      20 | 0xFFFFF449  |  4294964297 |
|      21 | 0x024B      |         587 |
|      22 | 0xFFFE72F7  |  4294865655 |
|      23 | 0xFF90      |       65424 |
|      24 | 0xFFFE6F20  |  4294864672 |
|      25 | 0xFAB7      |       64183 |
|      26 | 0x0615      |        1557 |
|      27 | 0x0073      |         115 |
|      28 | 0x0005      |           5 |
|      29 | 0x1FB9      |        8121 |
|      30 | 0x14246     |       82502 |
|      31 | 0xFFFFE9AE  |  4294961582 |
|      32 | 0x07CF      |        1999 |
|      33 | 0x058E      |        1422 |
|      34 | 0x11DC2     |       73154 |
|      35 | 0xFFFFB902  |  4294949122 |
|      36 | 0x07D0      |        2000 |
|      37 | 0x001E      |          30 |
|      38 | 0x12DCC     |       77260 |
|      39 | 0xFFFFA617  |  4294944279 |
|      40 | 0x0600      |        1536 |
|      41 | 0xFFFEA8D5  |  4294879445 |
|      42 | 0xFFFF8317  |  4294935319 |
|      43 | 0xFFFEA516  |  4294878486 |
|      44 | 0xFFFF7EE7  |  4294934247 |
|      45 | 0x003C      |          60 |
|      46 | 0xFFFEA3B8  |  4294878136 |
|      47 | 0xFFFF80B3  |  4294934707 |
|      48 | 0xFFFE9CBF  |  4294876351 |
|      49 | 0xFFFF7E1A  |  4294934042 |
|      50 | 0xFFFE51E5  |  4294857189 |
|      51 | 0xFFFF2CC7  |  4294913223 |
|      52 | 0x0074      |         116 |

## String References

- **8121**: Aye, from my scheming brother Pieuje, no doubt.

## Events

### Event 65535

#### Metadata

| Field        | Value   |
|--------------|---------|
| Entrypoint   | 0x0000  |
| Data Size    | 1 bytes |
| Instructions | 1       |

```
      00 01 02 03 04 05 06 07  08 09 0A 0B 0C 0D 0E 0F
      -- -- -- -- -- -- -- --  -- -- -- -- -- -- -- --
0000: 00                                                .               
```

#### Opcodes

```
  0: 0x0000 [0x00] END_REQSTACK()
```

### Event 13

#### Metadata

| Field        | Value    |
|--------------|----------|
| Entrypoint   | 0x0001   |
| Data Size    | 12 bytes |
| Instructions | 3        |

```
      00 01 02 03 04 05 06 07  08 09 0A 0B 0C 0D 0E 0F
      -- -- -- -- -- -- -- --  -- -- -- -- -- -- -- --
0000:    22 01 37 00 80 01 80  02 80 03 80 00            ".7.........   
```

#### Opcodes

```
  0: 0x0001 [0x22] ENTITY_HIDE_FLAG(enabled=0x01)
  1: 0x0003 [0x37] UPDATE_EVENT_POSITION_AND_DIR: x=-133.001*, z=60.541*, y=-10.800*, direction=223.6°*
  2: 0x000C [0x00] END_REQSTACK()
```

### Event 65535.1

#### Metadata

| Field        | Value    |
|--------------|----------|
| Entrypoint   | 0x000D   |
| Data Size    | 14 bytes |
| Instructions | 4        |

```
      00 01 02 03 04 05 06 07  08 09 0A 0B 0C 0D 0E 0F
      -- -- -- -- -- -- -- --  -- -- -- -- -- -- -- --
0000:                                         32 04 80               2..
0010: 1F 00 05 80 06 80 02 80  1F 01 00                 ...........     
```

#### Opcodes

```
  0: 0x000D [0x32] ExtData[1]->MainSpeed = 13* * 0.1
  1: 0x0010 [0x1F] MOVE_ENTITY: EventEntity moves to X=-135.747*, Z=63.210*, Y=-10.800*
  2: 0x0018 [0x1F] MOVE_ENTITY: Update entity position (mode=1)
  3: 0x001A [0x00] END_REQSTACK()
```

### Event 65535.2

#### Metadata

| Field        | Value    |
|--------------|----------|
| Entrypoint   | 0x001B   |
| Data Size    | 43 bytes |
| Instructions | 10       |

```
      00 01 02 03 04 05 06 07  08 09 0A 0B 0C 0D 0E 0F
      -- -- -- -- -- -- -- --  -- -- -- -- -- -- -- --
0010:                                   32 04 80 1F 00             2....
0020: 00 80 01 80 02 80 1F 01  27 03 4B 60 0E 01 03 1F  ........'.K`....
0030: 00 07 80 08 80 02 80 1F  01 1F 00 09 80 0A 80 02  ................
0040: 80 1F 01 22 01 00                                 ..."..          
```

#### Opcodes

```
  0: 0x001B [0x32] ExtData[1]->MainSpeed = 13* * 0.1
  1: 0x001E [0x1F] MOVE_ENTITY: EventEntity moves to X=-133.001*, Z=60.541*, Y=-10.800*
  2: 0x0026 [0x1F] MOVE_ENTITY: Update entity position (mode=1)
  3: 0x0028 [0x27] REQ_SET(priority=0x03, entity_id=Avandale (ID: 17719371/0x010E604B), tag_num=0x03)
  4: 0x002F [0x1F] MOVE_ENTITY: EventEntity moves to X=-129.930*, Z=58.341*, Y=-10.800*
  5: 0x0037 [0x1F] MOVE_ENTITY: Update entity position (mode=1)
  6: 0x0039 [0x1F] MOVE_ENTITY: EventEntity moves to X=-127.582*, Z=60.164*, Y=-10.800*
  7: 0x0041 [0x1F] MOVE_ENTITY: Update entity position (mode=1)
  8: 0x0043 [0x22] ENTITY_HIDE_FLAG(enabled=0x01)
  9: 0x0045 [0x00] END_REQSTACK()
```

### Event 0

#### Metadata

| Field        | Value    |
|--------------|----------|
| Entrypoint   | 0x0046   |
| Data Size    | 40 bytes |
| Instructions | 7        |

```
      00 01 02 03 04 05 06 07  08 09 0A 0B 0C 0D 0E 0F
      -- -- -- -- -- -- -- --  -- -- -- -- -- -- -- --
0040:                   32 04  80 79 00 F8 FF FF 7F 43        2..y.....C
0050: 60 0E 01 37 0B 80 0C 80  0D 80 0E 80 33 00 6C F8  `..7........3.l.
0060: FF FF 7F 0F 80 10 80 92  00 F8 FF FF 7F 00        ..............  
```

#### Opcodes

```
  0: 0x0046 [0x32] ExtData[1]->MainSpeed = 13* * 0.1
  1: 0x0049 [0x79] EventEntity looks at Destin (ID: 17719363/0x010E6043) (Basic look)
  2: 0x0053 [0x37] UPDATE_EVENT_POSITION_AND_DIR: x=-97.221*, z=70.313*, y=0.398*, direction=129.7°*
  3: 0x005C [0x33] EventEntity->Render.Flags0 &= ~ 0x200000 // Bit 21 (flag=0x00)
  4: 0x005E [0x6C] FADE_ENTITY_COLOR(entity_id=EventEntity, end_alpha=128*, fade_time=1*)
  5: 0x0067 [0x92] EventEntity->Render.Flags3 = Flags3  // No change (flag=0)
  6: 0x006D [0x00] END_REQSTACK()
```

### Event 65535.3

#### Metadata

| Field        | Value    |
|--------------|----------|
| Entrypoint   | 0x006E   |
| Data Size    | 29 bytes |
| Instructions | 6        |

```
      00 01 02 03 04 05 06 07  08 09 0A 0B 0C 0D 0E 0F
      -- -- -- -- -- -- -- --  -- -- -- -- -- -- -- --
0060:                                            22 00                ".
0070: 92 01 F8 FF FF 7F 33 01  6C F8 FF FF 7F 11 80 10  ......3.l.......
0080: 80 37 12 80 13 80 14 80  15 80 00                 .7.........     
```

#### Opcodes

```
  0: 0x006E [0x22] ENTITY_HIDE_FLAG(enabled=0x00)
  1: 0x0070 [0x92] EventEntity->Render.Flags3 ^= 0x01
  2: 0x0076 [0x33] EventEntity->Render.Flags0 |= 0x200000 // Bit 21 (flag=0x01)
  3: 0x0078 [0x6C] FADE_ENTITY_COLOR(entity_id=EventEntity, end_alpha=0*, fade_time=1*)
  4: 0x0081 [0x37] UPDATE_EVENT_POSITION_AND_DIR: x=74.074*, z=-34.277*, y=-2.999*, direction=51.6°*
  5: 0x008A [0x00] END_REQSTACK()
```

### Event 65535.4

#### Metadata

| Field        | Value    |
|--------------|----------|
| Entrypoint   | 0x008B   |
| Data Size    | 17 bytes |
| Instructions | 5        |

```
      00 01 02 03 04 05 06 07  08 09 0A 0B 0C 0D 0E 0F
      -- -- -- -- -- -- -- --  -- -- -- -- -- -- -- --
0080:                                   1F 00 16 80 17             .....
0090: 80 0D 80 1F 01 6F 1E 43  60 0E 01 00              .....o.C`...    
```

#### Opcodes

```
  0: 0x008B [0x1F] MOVE_ENTITY: EventEntity moves to X=-101.641*, Z=65.424*, Y=0.398*
  1: 0x0093 [0x1F] MOVE_ENTITY: Update entity position (mode=1)
  2: 0x0095 [0x6F] WAIT_FRAME_DELAY: Yield until WaitTime reaches zero
  3: 0x0096 [0x1E] EventEntity looks at Destin (ID: 17719363/0x010E6043) and starts talking
  4: 0x009B [0x00] END_REQSTACK()
```

### Event 65535.5

#### Metadata

| Field        | Value    |
|--------------|----------|
| Entrypoint   | 0x009C   |
| Data Size    | 15 bytes |
| Instructions | 5        |

```
      00 01 02 03 04 05 06 07  08 09 0A 0B 0C 0D 0E 0F
      -- -- -- -- -- -- -- --  -- -- -- -- -- -- -- --
0090:                                      1F 00 18 80              ....
00A0: 19 80 0D 80 1F 01 6F 39  1A 80 00                 ......o9...     
```

#### Opcodes

```
  0: 0x009C [0x1F] MOVE_ENTITY: EventEntity moves to X=-102.624*, Z=64.183*, Y=0.398*
  1: 0x00A4 [0x1F] MOVE_ENTITY: Update entity position (mode=1)
  2: 0x00A6 [0x6F] WAIT_FRAME_DELAY: Yield until WaitTime reaches zero
  3: 0x00A7 [0x39] SET_ENTITY_DIRECTION(direction=8.6°*)
  4: 0x00AA [0x00] END_REQSTACK()
```

### Event 65535.6

#### Metadata

| Field        | Value   |
|--------------|---------|
| Entrypoint   | 0x00AB  |
| Data Size    | 6 bytes |
| Instructions | 2       |

```
      00 01 02 03 04 05 06 07  08 09 0A 0B 0C 0D 0E 0F
      -- -- -- -- -- -- -- --  -- -- -- -- -- -- -- --
00A0:                                   5E 69 64 6C 30             ^idl0
00B0: 00                                                .               
```

#### Opcodes

```
  0: 0x00AB [0x5E] EventEntity goes idle (kills current action) (animation: "idl0")
  1: 0x00B0 [0x00] END_REQSTACK()
```

### Event 597

#### Metadata

| Field        | Value   |
|--------------|---------|
| Entrypoint   | 0x00B1  |
| Data Size    | 1 bytes |
| Instructions | 1       |

```
      00 01 02 03 04 05 06 07  08 09 0A 0B 0C 0D 0E 0F
      -- -- -- -- -- -- -- --  -- -- -- -- -- -- -- --
00B0:    00                                              .              
```

#### Opcodes

```
  0: 0x00B1 [0x00] END_REQSTACK()
```

### Event 65535.7

#### Metadata

| Field        | Value    |
|--------------|----------|
| Entrypoint   | 0x00B2   |
| Data Size    | 47 bytes |
| Instructions | 5        |

```
      00 01 02 03 04 05 06 07  08 09 0A 0B 0C 0D 0E 0F
      -- -- -- -- -- -- -- --  -- -- -- -- -- -- -- --
00B0:       5B 1B 80 45 60 0E  01 45 60 0E 01 6C 61 75    [..E`..E`..lau
00C0: 30 1C 1C 80 5B 1B 80 45  60 0E 01 45 60 0E 01 6C  0...[..E`..E`..l
00D0: 61 75 31 53 45 60 0E 01  45 60 0E 01 6C 61 75 31  au1SE`..E`..lau1
00E0: 00                                                .               
```

#### Opcodes

```
  0: 0x00B2 [0x5B] LOAD_EXT_SCHEDULER: Load scheduler "lau0" with entities [Trion (ID: 17719365/0x010E6045), Trion (ID: 17719365/0x010E6045)], work=115*
  1: 0x00C1 [0x1C] WAIT(5* ticks)
  2: 0x00C4 [0x5B] LOAD_EXT_SCHEDULER: Load scheduler "lau1" with entities [Trion (ID: 17719365/0x010E6045), Trion (ID: 17719365/0x010E6045)], work=115*
  3: 0x00D3 [0x53] WAIT_SCHEDULER_TASK: Wait for scheduler "lau1" with entities [Trion (ID: 17719365/0x010E6045), Trion (ID: 17719365/0x010E6045)]
  4: 0x00E0 [0x00] END_REQSTACK()
```

### Event 65535.8

#### Metadata

| Field        | Value    |
|--------------|----------|
| Entrypoint   | 0x00E1   |
| Data Size    | 25 bytes |
| Instructions | 5        |

```
      00 01 02 03 04 05 06 07  08 09 0A 0B 0C 0D 0E 0F
      -- -- -- -- -- -- -- --  -- -- -- -- -- -- -- --
00E0:    5B 1B 80 45 60 0E 01  45 60 0E 01 74 6C 6B 30   [..E`..E`..tlk0
00F0: 1D 1D 80 23 5E 69 64 6C  30 00                    ...#^idl0.      
```

#### Opcodes

```
  0: 0x00E1 [0x5B] LOAD_EXT_SCHEDULER: Load scheduler "tlk0" with entities [Trion (ID: 17719365/0x010E6045), Trion (ID: 17719365/0x010E6045)], work=115*
  1: 0x00F0 [0x1D] PRINT_EVENT_MESSAGE(message_id=8121*)
    → "Aye, from my scheming brother Pieuje, no doubt."
  2: 0x00F3 [0x23] WAIT_FOR_DIALOG_INTERACTION
  3: 0x00F4 [0x5E] EventEntity goes idle (kills current action) (animation: "idl0")
  4: 0x00F9 [0x00] END_REQSTACK()
```

### Event 65535.9

#### Metadata

| Field        | Value    |
|--------------|----------|
| Entrypoint   | 0x00FA   |
| Data Size    | 34 bytes |
| Instructions | 8        |

```
      00 01 02 03 04 05 06 07  08 09 0A 0B 0C 0D 0E 0F
      -- -- -- -- -- -- -- --  -- -- -- -- -- -- -- --
00F0:                                2F 00 45 60 0E 01            /.E`..
0100: 37 1E 80 1F 80 20 80 21  80 22 00 32 04 80 1F 00  7.... .!.".2....
0110: 22 80 23 80 24 80 1F 01  1C 25 80 00              ".#.$....%..    
```

#### Opcodes

```
  0: 0x00FA [0x2F] Trion (ID: 17719365/0x010E6045)->Render.Flags0 &= ~0x80000 // Bit 19
  1: 0x0100 [0x37] UPDATE_EVENT_POSITION_AND_DIR: x=82.502*, z=-5.714*, y=1.999*, direction=125.0°*
  2: 0x0109 [0x22] ENTITY_HIDE_FLAG(enabled=0x00)
  3: 0x010B [0x32] ExtData[1]->MainSpeed = 13* * 0.1
  4: 0x010E [0x1F] MOVE_ENTITY: EventEntity moves to X=73.154*, Z=-18.174*, Y=2.000*
  5: 0x0116 [0x1F] MOVE_ENTITY: Update entity position (mode=1)
  6: 0x0118 [0x1C] WAIT(30* ticks)
  7: 0x011B [0x00] END_REQSTACK()
```

### Event 65535.10

#### Metadata

| Field        | Value    |
|--------------|----------|
| Entrypoint   | 0x011C   |
| Data Size    | 11 bytes |
| Instructions | 3        |

```
      00 01 02 03 04 05 06 07  08 09 0A 0B 0C 0D 0E 0F
      -- -- -- -- -- -- -- --  -- -- -- -- -- -- -- --
0110:                                      1F 00 26 80              ..&.
0120: 27 80 24 80 1F 01 00                              '.$....         
```

#### Opcodes

```
  0: 0x011C [0x1F] MOVE_ENTITY: EventEntity moves to X=77.260*, Z=-23.017*, Y=2.000*
  1: 0x0124 [0x1F] MOVE_ENTITY: Update entity position (mode=1)
  2: 0x0126 [0x00] END_REQSTACK()
```

### Event 65535.11

#### Metadata

| Field        | Value    |
|--------------|----------|
| Entrypoint   | 0x0127   |
| Data Size    | 10 bytes |
| Instructions | 2        |

```
      00 01 02 03 04 05 06 07  08 09 0A 0B 0C 0D 0E 0F
      -- -- -- -- -- -- -- --  -- -- -- -- -- -- -- --
0120:                      37  22 80 23 80 24 80 28 80         7".#.$.(.
0130: 00                                                .               
```

#### Opcodes

```
  0: 0x0127 [0x37] UPDATE_EVENT_POSITION_AND_DIR: x=73.154*, z=-18.174*, y=2.000*, direction=135.0°*
  1: 0x0130 [0x00] END_REQSTACK()
```

### Event 65535.12

#### Metadata

| Field        | Value   |
|--------------|---------|
| Entrypoint   | 0x0131  |
| Data Size    | 9 bytes |
| Instructions | 3       |

```
      00 01 02 03 04 05 06 07  08 09 0A 0B 0C 0D 0E 0F
      -- -- -- -- -- -- -- --  -- -- -- -- -- -- -- --
0130:    2F 00 45 60 0E 01 22  00 00                     /.E`.."..      
```

#### Opcodes

```
  0: 0x0131 [0x2F] Trion (ID: 17719365/0x010E6045)->Render.Flags0 &= ~0x80000 // Bit 19
  1: 0x0137 [0x22] ENTITY_HIDE_FLAG(enabled=0x00)
  2: 0x0139 [0x00] END_REQSTACK()
```

### Event 65535.13

#### Metadata

| Field        | Value    |
|--------------|----------|
| Entrypoint   | 0x013A   |
| Data Size    | 14 bytes |
| Instructions | 4        |

```
      00 01 02 03 04 05 06 07  08 09 0A 0B 0C 0D 0E 0F
      -- -- -- -- -- -- -- --  -- -- -- -- -- -- -- --
0130:                                32 04 80 1F 00 29            2....)
0140: 80 2A 80 20 80 1F 01 00                           .*. ....        
```

#### Opcodes

```
  0: 0x013A [0x32] ExtData[1]->MainSpeed = 13* * 0.1
  1: 0x013D [0x1F] MOVE_ENTITY: EventEntity moves to X=-87.851*, Z=-31.977*, Y=1.999*
  2: 0x0145 [0x1F] MOVE_ENTITY: Update entity position (mode=1)
  3: 0x0147 [0x00] END_REQSTACK()
```

### Event 65535.14

#### Metadata

| Field        | Value    |
|--------------|----------|
| Entrypoint   | 0x0148   |
| Data Size    | 19 bytes |
| Instructions | 5        |

```
      00 01 02 03 04 05 06 07  08 09 0A 0B 0C 0D 0E 0F
      -- -- -- -- -- -- -- --  -- -- -- -- -- -- -- --
0140:                          32 04 80 1F 00 2B 80 2C          2....+.,
0150: 80 20 80 1F 01 1E 47 60  0E 01 00                 . ....G`...     
```

#### Opcodes

```
  0: 0x0148 [0x32] ExtData[1]->MainSpeed = 13* * 0.1
  1: 0x014B [0x1F] MOVE_ENTITY: EventEntity moves to X=-88.810*, Z=-33.049*, Y=1.999*
  2: 0x0153 [0x1F] MOVE_ENTITY: Update entity position (mode=1)
  3: 0x0155 [0x1E] EventEntity looks at Pieuje (ID: 17719367/0x010E6047) and starts talking
  4: 0x015A [0x00] END_REQSTACK()
```

### Event 65535.15

#### Metadata

| Field        | Value   |
|--------------|---------|
| Entrypoint   | 0x015B  |
| Data Size    | 6 bytes |
| Instructions | 2       |

```
      00 01 02 03 04 05 06 07  08 09 0A 0B 0C 0D 0E 0F
      -- -- -- -- -- -- -- --  -- -- -- -- -- -- -- --
0150:                                   1E 01 60 0E 01             ..`..
0160: 00                                                .               
```

#### Opcodes

```
  0: 0x015B [0x1E] EventEntity looks at Ceraule (ID: 17719297/0x010E6001) and starts talking
  1: 0x0160 [0x00] END_REQSTACK()
```

### Event 65535.16

#### Metadata

| Field        | Value   |
|--------------|---------|
| Entrypoint   | 0x0161  |
| Data Size    | 6 bytes |
| Instructions | 2       |

```
      00 01 02 03 04 05 06 07  08 09 0A 0B 0C 0D 0E 0F
      -- -- -- -- -- -- -- --  -- -- -- -- -- -- -- --
0160:    1E F0 FF FF 7F 00                               ......         
```

#### Opcodes

```
  0: 0x0161 [0x1E] EventEntity looks at LocalPlayer and starts talking
  1: 0x0166 [0x00] END_REQSTACK()
```

### Event 65535.17

#### Metadata

| Field        | Value   |
|--------------|---------|
| Entrypoint   | 0x0167  |
| Data Size    | 6 bytes |
| Instructions | 2       |

```
      00 01 02 03 04 05 06 07  08 09 0A 0B 0C 0D 0E 0F
      -- -- -- -- -- -- -- --  -- -- -- -- -- -- -- --
0160:                      1E  47 60 0E 01 00                  .G`...   
```

#### Opcodes

```
  0: 0x0167 [0x1E] EventEntity looks at Pieuje (ID: 17719367/0x010E6047) and starts talking
  1: 0x016C [0x00] END_REQSTACK()
```

### Event 65535.18

#### Metadata

| Field        | Value   |
|--------------|---------|
| Entrypoint   | 0x016D  |
| Data Size    | 9 bytes |
| Instructions | 3       |

```
      00 01 02 03 04 05 06 07  08 09 0A 0B 0C 0D 0E 0F
      -- -- -- -- -- -- -- --  -- -- -- -- -- -- -- --
0160:                                         1C 2D 80               .-.
0170: 1E 01 60 0E 01 00                                 ..`...          
```

#### Opcodes

```
  0: 0x016D [0x1C] WAIT(60* ticks)
  1: 0x0170 [0x1E] EventEntity looks at Ceraule (ID: 17719297/0x010E6001) and starts talking
  2: 0x0175 [0x00] END_REQSTACK()
```

### Event 65535.19

#### Metadata

| Field        | Value   |
|--------------|---------|
| Entrypoint   | 0x0176  |
| Data Size    | 9 bytes |
| Instructions | 3       |

```
      00 01 02 03 04 05 06 07  08 09 0A 0B 0C 0D 0E 0F
      -- -- -- -- -- -- -- --  -- -- -- -- -- -- -- --
0170:                   1C 2D  80 1E F0 FF FF 7F 00           .-....... 
```

#### Opcodes

```
  0: 0x0176 [0x1C] WAIT(60* ticks)
  1: 0x0179 [0x1E] EventEntity looks at LocalPlayer and starts talking
  2: 0x017E [0x00] END_REQSTACK()
```

### Event 65535.20

#### Metadata

| Field        | Value   |
|--------------|---------|
| Entrypoint   | 0x017F  |
| Data Size    | 9 bytes |
| Instructions | 3       |

```
      00 01 02 03 04 05 06 07  08 09 0A 0B 0C 0D 0E 0F
      -- -- -- -- -- -- -- --  -- -- -- -- -- -- -- --
0170:                                               1C                 .
0180: 2D 80 1E 47 60 0E 01 00                           -..G`...        
```

#### Opcodes

```
  0: 0x017F [0x1C] WAIT(60* ticks)
  1: 0x0182 [0x1E] EventEntity looks at Pieuje (ID: 17719367/0x010E6047) and starts talking
  2: 0x0187 [0x00] END_REQSTACK()
```

### Event 65535.21

#### Metadata

| Field        | Value    |
|--------------|----------|
| Entrypoint   | 0x0188   |
| Data Size    | 13 bytes |
| Instructions | 3        |

```
      00 01 02 03 04 05 06 07  08 09 0A 0B 0C 0D 0E 0F
      -- -- -- -- -- -- -- --  -- -- -- -- -- -- -- --
0180:                          36 2E 80 2F 80 20 80 1E          6../. ..
0190: 47 60 0E 01 00                                    G`...           
```

#### Opcodes

```
  0: 0x0188 [0x36] SET_ENTITY_EVENT_POSITION(pos_x=-89.160*, pos_z=-32.589*, pos_y=1.999*)
  1: 0x018F [0x1E] EventEntity looks at Pieuje (ID: 17719367/0x010E6047) and starts talking
  2: 0x0194 [0x00] END_REQSTACK()
```

### Event 65535.22

#### Metadata

| Field        | Value    |
|--------------|----------|
| Entrypoint   | 0x0195   |
| Data Size    | 32 bytes |
| Instructions | 8        |

```
      00 01 02 03 04 05 06 07  08 09 0A 0B 0C 0D 0E 0F
      -- -- -- -- -- -- -- --  -- -- -- -- -- -- -- --
0190:                32 04 80  1F 00 30 80 31 80 20 80       2....0.1. .
01A0: 1F 01 1F 00 32 80 33 80  11 80 1F 01 2F 01 45 60  ....2.3...../.E`
01B0: 0E 01 22 01 00                                    .."..           
```

#### Opcodes

```
  0: 0x0195 [0x32] ExtData[1]->MainSpeed = 13* * 0.1
  1: 0x0198 [0x1F] MOVE_ENTITY: EventEntity moves to X=-90.945*, Z=-33.254*, Y=1.999*
  2: 0x01A0 [0x1F] MOVE_ENTITY: Update entity position (mode=1)
  3: 0x01A2 [0x1F] MOVE_ENTITY: EventEntity moves to X=-110.107*, Z=-54.073*, Y=0.000*
  4: 0x01AA [0x1F] MOVE_ENTITY: Update entity position (mode=1)
  5: 0x01AC [0x2F] Trion (ID: 17719365/0x010E6045)->Render.Flags0 |= 0x80000 // Bit 19
  6: 0x01B2 [0x22] ENTITY_HIDE_FLAG(enabled=0x01)
  7: 0x01B4 [0x00] END_REQSTACK()
```

### Event 65535.23

#### Metadata

| Field        | Value    |
|--------------|----------|
| Entrypoint   | 0x01B5   |
| Data Size    | 19 bytes |
| Instructions | 3        |

```
      00 01 02 03 04 05 06 07  08 09 0A 0B 0C 0D 0E 0F
      -- -- -- -- -- -- -- --  -- -- -- -- -- -- -- --
01B0:                5B 1B 80  F8 FF FF 7F F8 FF FF 7F       [..........
01C0: 74 6C 6B 30 1C 25 80 00                           tlk0.%..        
```

#### Opcodes

```
  0: 0x01B5 [0x5B] LOAD_EXT_SCHEDULER: Load scheduler "tlk0" with entities [EventEntity, EventEntity], work=115*
  1: 0x01C4 [0x1C] WAIT(30* ticks)
  2: 0x01C7 [0x00] END_REQSTACK()
```

### Event 65535.24

#### Metadata

| Field        | Value    |
|--------------|----------|
| Entrypoint   | 0x01C8   |
| Data Size    | 29 bytes |
| Instructions | 3        |

```
      00 01 02 03 04 05 06 07  08 09 0A 0B 0C 0D 0E 0F
      -- -- -- -- -- -- -- --  -- -- -- -- -- -- -- --
01C0:                          5B 1B 80 F8 FF FF 7F F8          [.......
01D0: FF FF 7F 74 6C 6B 31 53  F8 FF FF 7F F8 FF FF 7F  ...tlk1S........
01E0: 74 6C 6B 31 00                                    tlk1.           
```

#### Opcodes

```
  0: 0x01C8 [0x5B] LOAD_EXT_SCHEDULER: Load scheduler "tlk1" with entities [EventEntity, EventEntity], work=115*
  1: 0x01D7 [0x53] WAIT_SCHEDULER_TASK: Wait for scheduler "tlk1" with entities [EventEntity, EventEntity]
  2: 0x01E4 [0x00] END_REQSTACK()
```

### Event 65535.25

#### Metadata

| Field        | Value    |
|--------------|----------|
| Entrypoint   | 0x01E5   |
| Data Size    | 19 bytes |
| Instructions | 3        |

```
      00 01 02 03 04 05 06 07  08 09 0A 0B 0C 0D 0E 0F
      -- -- -- -- -- -- -- --  -- -- -- -- -- -- -- --
01E0:                5B 34 80  F8 FF FF 7F F8 FF FF 7F       [4.........
01F0: 74 68 6B 30 1C 25 80 00                           thk0.%..        
```

#### Opcodes

```
  0: 0x01E5 [0x5B] LOAD_EXT_SCHEDULER: Load scheduler "thk0" with entities [EventEntity, EventEntity], work=116*
  1: 0x01F4 [0x1C] WAIT(30* ticks)
  2: 0x01F7 [0x00] END_REQSTACK()
```

### Event 65535.26

#### Metadata

| Field        | Value    |
|--------------|----------|
| Entrypoint   | 0x01F8   |
| Data Size    | 29 bytes |
| Instructions | 3        |

```
      00 01 02 03 04 05 06 07  08 09 0A 0B 0C 0D 0E 0F
      -- -- -- -- -- -- -- --  -- -- -- -- -- -- -- --
01F0:                          5B 34 80 F8 FF FF 7F F8          [4......
0200: FF FF 7F 74 68 6B 31 53  F8 FF FF 7F F8 FF FF 7F  ...thk1S........
0210: 74 68 6B 31 00                                    thk1.           
```

#### Opcodes

```
  0: 0x01F8 [0x5B] LOAD_EXT_SCHEDULER: Load scheduler "thk1" with entities [EventEntity, EventEntity], work=116*
  1: 0x0207 [0x53] WAIT_SCHEDULER_TASK: Wait for scheduler "thk1" with entities [EventEntity, EventEntity]
  2: 0x0214 [0x00] END_REQSTACK()
```

### Event 65535.27

#### Metadata

| Field        | Value    |
|--------------|----------|
| Entrypoint   | 0x0215   |
| Data Size    | 19 bytes |
| Instructions | 3        |

```
      00 01 02 03 04 05 06 07  08 09 0A 0B 0C 0D 0E 0F
      -- -- -- -- -- -- -- --  -- -- -- -- -- -- -- --
0210:                5B 1B 80  F8 FF FF 7F F8 FF FF 7F       [..........
0220: 61 72 61 30 1C 25 80 00                           ara0.%..        
```

#### Opcodes

```
  0: 0x0215 [0x5B] LOAD_EXT_SCHEDULER: Load scheduler "ara0" with entities [EventEntity, EventEntity], work=115*
  1: 0x0224 [0x1C] WAIT(30* ticks)
  2: 0x0227 [0x00] END_REQSTACK()
```

### Event 65535.28

#### Metadata

| Field        | Value    |
|--------------|----------|
| Entrypoint   | 0x0228   |
| Data Size    | 29 bytes |
| Instructions | 3        |

```
      00 01 02 03 04 05 06 07  08 09 0A 0B 0C 0D 0E 0F
      -- -- -- -- -- -- -- --  -- -- -- -- -- -- -- --
0220:                          5B 1B 80 F8 FF FF 7F F8          [.......
0230: FF FF 7F 61 72 61 31 53  F8 FF FF 7F F8 FF FF 7F  ...ara1S........
0240: 61 72 61 31 00                                    ara1.           
```

#### Opcodes

```
  0: 0x0228 [0x5B] LOAD_EXT_SCHEDULER: Load scheduler "ara1" with entities [EventEntity, EventEntity], work=115*
  1: 0x0237 [0x53] WAIT_SCHEDULER_TASK: Wait for scheduler "ara1" with entities [EventEntity, EventEntity]
  2: 0x0244 [0x00] END_REQSTACK()
```
