# 17719581

## Common Data

| Field            | Value                         |
|------------------|-------------------------------|
| Zone             | Southern San d'Oria (ID: 230) |
| Block Size       | 1328 bytes                    |
| Total Events     | 25                            |
| References Count | 116                           |

## List of Events

| Event ID                   | Entrypoint   |   Size |   Instructions |
|----------------------------|--------------|--------|----------------|
| [65535](#event-65535)      | 0x0000       |      1 |              1 |
| [827](#event-827)          | 0x0001       |      1 |              1 |
| [823](#event-823)          | 0x0002       |      1 |              1 |
| [65535.1](#event-655351)   | 0x0003       |     15 |              2 |
| [65535.2](#event-655352)   | 0x0012       |     11 |              3 |
| [65535.3](#event-655353)   | 0x001D       |     15 |              3 |
| [65535.4](#event-655354)   | 0x002C       |    121 |             24 |
| [65535.5](#event-655355)   | 0x00A5       |    121 |             24 |
| [65535.6](#event-655356)   | 0x011E       |     15 |              3 |
| [65535.7](#event-655357)   | 0x012D       |     14 |              4 |
| [65535.8](#event-655358)   | 0x013B       |     11 |              3 |
| [65535.9](#event-655359)   | 0x0146       |     11 |              3 |
| [65535.10](#event-6553510) | 0x0151       |     11 |              3 |
| [65535.11](#event-6553511) | 0x015C       |     14 |              4 |
| [861](#event-861)          | 0x016A       |      1 |              1 |
| [65535.12](#event-6553512) | 0x016B       |     15 |              3 |
| [65535.13](#event-6553513) | 0x017A       |     45 |             10 |
| [65535.14](#event-6553514) | 0x01A7       |      6 |              2 |
| [65535.15](#event-6553515) | 0x01AD       |     20 |              4 |
| [65535.16](#event-6553516) | 0x01C1       |     80 |             18 |
| [65535.17](#event-6553517) | 0x0211       |     67 |             15 |
| [65535.18](#event-6553518) | 0x0254       |     14 |              4 |
| [65535.19](#event-6553519) | 0x0262       |     51 |             11 |
| [65535.20](#event-6553520) | 0x0295       |     15 |              3 |
| [65535.21](#event-6553521) | 0x02A4       |     69 |             15 |

## DAT References (imed_data)

|   Index | Hex Value   |   Dec Value |
|---------|-------------|-------------|
|       0 | 0x0000      |           0 |
|       1 | 0x4D5E      |       19806 |
|       2 | 0xFFFE8BA4  |  4294871972 |
|       3 | 0x0897      |        2199 |
|       4 | 0x007C      |         124 |
|       5 | 0x0046      |          70 |
|       6 | 0x5688      |       22152 |
|       7 | 0xFFFE8963  |  4294871395 |
|       8 | 0x59FA      |       23034 |
|       9 | 0xFFFE9703  |  4294874883 |
|      10 | 0x20CA      |        8394 |
|      11 | 0xFFFEA6F2  |  4294878962 |
|      12 | 0x1A0A      |        6666 |
|      13 | 0xFFFEA628  |  4294878760 |
|      14 | 0x1971      |        6513 |
|      15 | 0xFFFEA380  |  4294878080 |
|      16 | 0x22EC      |        8940 |
|      17 | 0xFFFE9A5B  |  4294875739 |
|      18 | 0x2C7E      |       11390 |
|      19 | 0xFFFE96C5  |  4294874821 |
|      20 | 0x3EC8      |       16072 |
|      21 | 0xFFFE9096  |  4294873238 |
|      22 | 0x65FE      |       26110 |
|      23 | 0xFFFE7D2E  |  4294868270 |
|      24 | 0x07B3      |        1971 |
|      25 | 0x62B2      |       25266 |
|      26 | 0xFFFE7D39  |  4294868281 |
|      27 | 0x4F1F      |       20255 |
|      28 | 0xFFFE7BB6  |  4294867894 |
|      29 | 0x40F8      |       16632 |
|      30 | 0xFFFE7AE9  |  4294867689 |
|      31 | 0x37E6      |       14310 |
|      32 | 0xFFFE7A26  |  4294867494 |
|      33 | 0x3AC5      |       15045 |
|      34 | 0xFFFEA6CB  |  4294878923 |
|      35 | 0xFFF6D458  |  4294366296 |
|      36 | 0x94AE8     |      609000 |
|      37 | 0x00F7      |         247 |
|      38 | 0x003C      |          60 |
|      39 | 0x0002      |           2 |
|      40 | 0x000F      |          15 |
|      41 | 0xFFF6E0F7  |  4294369527 |
|      42 | 0x94851     |      608337 |
|      43 | 0x00D7      |         215 |
|      44 | 0xFFF6D937  |  4294367543 |
|      45 | 0x949C5     |      608709 |
|      46 | 0x00E9      |         233 |
|      47 | 0xFFF6CB82  |  4294364034 |
|      48 | 0x9409F     |      606367 |
|      49 | 0x0074      |         116 |
|      50 | 0xFFF6D7C0  |  4294367168 |
|      51 | 0x8EF6A     |      585578 |
|      52 | 0x0274      |         628 |
|      53 | 0x011C      |         284 |
|      54 | 0xFFF6D0CA  |  4294365386 |
|      55 | 0x8F7DF     |      587743 |
|      56 | 0x0112      |         274 |
|      57 | 0xFFF6D779  |  4294367097 |
|      58 | 0x8FCC2     |      588994 |
|      59 | 0x015B      |         347 |
|      60 | 0xFFF6DB55  |  4294368085 |
|      61 | 0x8F169     |      586089 |
|      62 | 0x024A      |         586 |
|      63 | 0xFFF6DAA1  |  4294367905 |
|      64 | 0x8E6CF     |      583375 |
|      65 | 0x033E      |         830 |
|      66 | 0x001E      |          30 |
|      67 | 0x0C58      |        3160 |
|      68 | 0x0078      |         120 |
|      69 | 0xFFF6D069  |  4294365289 |
|      70 | 0x8F7F4     |      587764 |
|      71 | 0x010C      |         268 |
|      72 | 0x0154      |         340 |
|      73 | 0x002D      |          45 |
|      74 | 0xFFF6DB01  |  4294368001 |
|      75 | 0x90356     |      590678 |
|      76 | 0x0108      |         264 |
|      77 | 0x03BF      |         959 |
|      78 | 0xFFF6C73F  |  4294362943 |
|      79 | 0x8F234     |      586292 |
|      80 | 0x008A      |         138 |
|      81 | 0x0025      |          37 |
|      82 | 0x00F0      |         240 |
|      83 | 0xFFF6D6F8  |  4294366968 |
|      84 | 0x8E30A     |      582410 |
|      85 | 0x0322      |         802 |
|      86 | 0x0BD3      |        3027 |
|      87 | 0xFFF6DB94  |  4294368148 |
|      88 | 0x8FCF3     |      589043 |
|      89 | 0x0159      |         345 |
|      90 | 0xFFF6C79F  |  4294363039 |
|      91 | 0x8F34D     |      586573 |
|      92 | 0x0039      |          57 |
|      93 | 0xFFF6CB4A  |  4294363978 |
|      94 | 0x8FAEF     |      588527 |
|      95 | 0x00C4      |         196 |
|      96 | 0xFFF6D269  |  4294365801 |
|      97 | 0x8F138     |      586040 |
|      98 | 0x01F0      |         496 |
|      99 | 0xFFF6CEAA  |  4294364842 |
|     100 | 0x8FA2D     |      588333 |
|     101 | 0xFFF6CA0E  |  4294363662 |
|     102 | 0x8EFB9     |      585657 |
|     103 | 0x0090      |         144 |
|     104 | 0xFFF6CECB  |  4294364875 |
|     105 | 0x8E418     |      582680 |
|     106 | 0x018C      |         396 |
|     107 | 0xFFF6DB79  |  4294368121 |
|     108 | 0x8E4F3     |      582899 |
|     109 | 0x0356      |         854 |
|     110 | 0xFFF6DE60  |  4294368864 |
|     111 | 0x8F7D9     |      587737 |
|     112 | 0x019A      |         410 |
|     113 | 0xFFF6D8AE  |  4294367406 |
|     114 | 0x8FE78     |      589432 |
|     115 | 0x0146      |         326 |

## Events

### Event 65535

#### Metadata

| Field        | Value   |
|--------------|---------|
| Entrypoint   | 0x0000  |
| Data Size    | 1 bytes |
| Instructions | 1       |

```
      00 01 02 03 04 05 06 07  08 09 0A 0B 0C 0D 0E 0F
      -- -- -- -- -- -- -- --  -- -- -- -- -- -- -- --
0000: 00                                                .               
```

#### Opcodes

```
  0: 0x0000 [0x00] END_REQSTACK()
```

### Event 827

#### Metadata

| Field        | Value   |
|--------------|---------|
| Entrypoint   | 0x0001  |
| Data Size    | 1 bytes |
| Instructions | 1       |

```
      00 01 02 03 04 05 06 07  08 09 0A 0B 0C 0D 0E 0F
      -- -- -- -- -- -- -- --  -- -- -- -- -- -- -- --
0000:    00                                              .              
```

#### Opcodes

```
  0: 0x0001 [0x00] END_REQSTACK()
```

### Event 823

#### Metadata

| Field        | Value   |
|--------------|---------|
| Entrypoint   | 0x0002  |
| Data Size    | 1 bytes |
| Instructions | 1       |

```
      00 01 02 03 04 05 06 07  08 09 0A 0B 0C 0D 0E 0F
      -- -- -- -- -- -- -- --  -- -- -- -- -- -- -- --
0000:       00                                            .             
```

#### Opcodes

```
  0: 0x0002 [0x00] END_REQSTACK()
```

### Event 65535.1

#### Metadata

| Field        | Value    |
|--------------|----------|
| Entrypoint   | 0x0003   |
| Data Size    | 15 bytes |
| Instructions | 2        |

```
      00 01 02 03 04 05 06 07  08 09 0A 0B 0C 0D 0E 0F
      -- -- -- -- -- -- -- --  -- -- -- -- -- -- -- --
0000:          B6 0D 04 10 05  10 06 10 07 10 08 10 09     .............
0010: 10 00                                             ..              
```

#### Opcodes

```
  0: 0x0003 [0xB6] ENTITY_APPEARANCE_HANDLER(case=Look with Render flags, race=Work_Zone[4], face=Work_Zone[5], head=Work_Zone[6], body=Work_Zone[7], hands=Work_Zone[8], render_flags=0x1009)
  1: 0x0011 [0x00] END_REQSTACK()
```

### Event 65535.2

#### Metadata

| Field        | Value    |
|--------------|----------|
| Entrypoint   | 0x0012   |
| Data Size    | 11 bytes |
| Instructions | 3        |

```
      00 01 02 03 04 05 06 07  08 09 0A 0B 0C 0D 0E 0F
      -- -- -- -- -- -- -- --  -- -- -- -- -- -- -- --
0010:       B4 01 00 00 00 80  B5 00 00 00 00             ...........   
```

#### Opcodes

```
  0: 0x0012 [0xB4] UI_WINDOW_STRING_HANDLER(case=0x01 - Copy string from event strings table, work_offset=ExtData[1]->WorkLocal[0], string_index=0*)
  1: 0x0018 [0xB5] SET_EVENT_ENTITY_NAME: Change EventEntity name to ExtData[1]->WorkLocal[0]
  2: 0x001C [0x00] END_REQSTACK()
```

### Event 65535.3

#### Metadata

| Field        | Value    |
|--------------|----------|
| Entrypoint   | 0x001D   |
| Data Size    | 15 bytes |
| Instructions | 3        |

```
      00 01 02 03 04 05 06 07  08 09 0A 0B 0C 0D 0E 0F
      -- -- -- -- -- -- -- --  -- -- -- -- -- -- -- --
0010:                                         37 01 80               7..
0020: 02 80 03 80 04 80 80 F8  FF FF 7F 00              ............    
```

#### Opcodes

```
  0: 0x001D [0x37] UPDATE_EVENT_POSITION_AND_DIR: x=19.806*, z=-95.324*, y=2.199*, direction=10.9°*
  1: 0x0026 [0x80] LOAD_WAIT(entity=EventEntity)
  2: 0x002B [0x00] END_REQSTACK()
```

### Event 65535.4

#### Metadata

| Field        | Value     |
|--------------|-----------|
| Entrypoint   | 0x002C    |
| Data Size    | 121 bytes |
| Instructions | 24        |

```
      00 01 02 03 04 05 06 07  08 09 0A 0B 0C 0D 0E 0F
      -- -- -- -- -- -- -- --  -- -- -- -- -- -- -- --
0020:                                      32 05 80 1F              2...
0030: 00 06 80 07 80 03 80 1F  01 1F 00 08 80 09 80 03  ................
0040: 80 1F 01 1F 00 0A 80 0B  80 03 80 1F 01 1F 00 0C  ................
0050: 80 0D 80 03 80 1F 01 1F  00 0E 80 0F 80 03 80 1F  ................
0060: 01 1F 00 10 80 11 80 03  80 1F 01 1F 00 12 80 13  ................
0070: 80 03 80 1F 01 1F 00 14  80 15 80 03 80 1F 01 1F  ................
0080: 00 01 80 02 80 03 80 1F  01 02 4D 10 00 80 00 9B  ..........M.....
0090: 00 27 05 1D 61 0E 01 07  01 A4 00 37 00 80 00 80  .'..a......7....
00A0: 00 80 00 80 00                                    .....           
```

#### Opcodes

```
  0: 0x002C [0x32] ExtData[1]->MainSpeed = 70* * 0.1
  1: 0x002F [0x1F] MOVE_ENTITY: EventEntity moves to X=22.152*, Z=-95.901*, Y=2.199*
  2: 0x0037 [0x1F] MOVE_ENTITY: Update entity position (mode=1)
  3: 0x0039 [0x1F] MOVE_ENTITY: EventEntity moves to X=23.034*, Z=-92.413*, Y=2.199*
  4: 0x0041 [0x1F] MOVE_ENTITY: Update entity position (mode=1)
  5: 0x0043 [0x1F] MOVE_ENTITY: EventEntity moves to X=8.394*, Z=-88.334*, Y=2.199*
  6: 0x004B [0x1F] MOVE_ENTITY: Update entity position (mode=1)
  7: 0x004D [0x1F] MOVE_ENTITY: EventEntity moves to X=6.666*, Z=-88.536*, Y=2.199*
  8: 0x0055 [0x1F] MOVE_ENTITY: Update entity position (mode=1)
  9: 0x0057 [0x1F] MOVE_ENTITY: EventEntity moves to X=6.513*, Z=-89.216*, Y=2.199*
 10: 0x005F [0x1F] MOVE_ENTITY: Update entity position (mode=1)
 11: 0x0061 [0x1F] MOVE_ENTITY: EventEntity moves to X=8.940*, Z=-91.557*, Y=2.199*
 12: 0x0069 [0x1F] MOVE_ENTITY: Update entity position (mode=1)
 13: 0x006B [0x1F] MOVE_ENTITY: EventEntity moves to X=11.390*, Z=-92.475*, Y=2.199*
 14: 0x0073 [0x1F] MOVE_ENTITY: Update entity position (mode=1)
 15: 0x0075 [0x1F] MOVE_ENTITY: EventEntity moves to X=16.072*, Z=-94.058*, Y=2.199*
 16: 0x007D [0x1F] MOVE_ENTITY: Update entity position (mode=1)
 17: 0x007F [0x1F] MOVE_ENTITY: EventEntity moves to X=19.806*, Z=-95.324*, Y=2.199*
 18: 0x0087 [0x1F] MOVE_ENTITY: Update entity position (mode=1)
 19: 0x0089 [0x02] IF !(Work_Zone[77] == 0*) GOTO 0x009B
 20: 0x0091 [0x27] REQ_SET(priority=0x05, entity_id=Unnamed NPC (ID: 17719581/0x010E611D), tag_num=0x07)
 21: 0x0098 [0x01] GOTO 0x00A4
 22: 0x009B [0x37] UPDATE_EVENT_POSITION_AND_DIR: x=0.000*, z=0.000*, y=0.000*, direction=0.0°*

SUBROUTINE_00A4:
 23: 0x00A4 [0x00] END_REQSTACK()
```

### Event 65535.5

#### Metadata

| Field        | Value     |
|--------------|-----------|
| Entrypoint   | 0x00A5    |
| Data Size    | 121 bytes |
| Instructions | 24        |

```
      00 01 02 03 04 05 06 07  08 09 0A 0B 0C 0D 0E 0F
      -- -- -- -- -- -- -- --  -- -- -- -- -- -- -- --
00A0:                32 05 80  1F 00 06 80 07 80 03 80       2..........
00B0: 1F 01 1F 00 08 80 09 80  03 80 1F 01 1F 00 0A 80  ................
00C0: 0B 80 03 80 1F 01 1F 00  0C 80 0D 80 03 80 1F 01  ................
00D0: 1F 00 0E 80 0F 80 03 80  1F 01 1F 00 10 80 11 80  ................
00E0: 03 80 1F 01 1F 00 12 80  13 80 03 80 1F 01 1F 00  ................
00F0: 14 80 15 80 03 80 1F 01  1F 00 01 80 02 80 03 80  ................
0100: 1F 01 02 4D 10 00 80 00  14 01 27 05 1D 61 0E 01  ...M......'..a..
0110: 06 01 1D 01 37 00 80 00  80 00 80 00 80 00        ....7.........  
```

#### Opcodes

```
  0: 0x00A5 [0x32] ExtData[1]->MainSpeed = 70* * 0.1
  1: 0x00A8 [0x1F] MOVE_ENTITY: EventEntity moves to X=22.152*, Z=-95.901*, Y=2.199*
  2: 0x00B0 [0x1F] MOVE_ENTITY: Update entity position (mode=1)
  3: 0x00B2 [0x1F] MOVE_ENTITY: EventEntity moves to X=23.034*, Z=-92.413*, Y=2.199*
  4: 0x00BA [0x1F] MOVE_ENTITY: Update entity position (mode=1)
  5: 0x00BC [0x1F] MOVE_ENTITY: EventEntity moves to X=8.394*, Z=-88.334*, Y=2.199*
  6: 0x00C4 [0x1F] MOVE_ENTITY: Update entity position (mode=1)
  7: 0x00C6 [0x1F] MOVE_ENTITY: EventEntity moves to X=6.666*, Z=-88.536*, Y=2.199*
  8: 0x00CE [0x1F] MOVE_ENTITY: Update entity position (mode=1)
  9: 0x00D0 [0x1F] MOVE_ENTITY: EventEntity moves to X=6.513*, Z=-89.216*, Y=2.199*
 10: 0x00D8 [0x1F] MOVE_ENTITY: Update entity position (mode=1)
 11: 0x00DA [0x1F] MOVE_ENTITY: EventEntity moves to X=8.940*, Z=-91.557*, Y=2.199*
 12: 0x00E2 [0x1F] MOVE_ENTITY: Update entity position (mode=1)
 13: 0x00E4 [0x1F] MOVE_ENTITY: EventEntity moves to X=11.390*, Z=-92.475*, Y=2.199*
 14: 0x00EC [0x1F] MOVE_ENTITY: Update entity position (mode=1)
 15: 0x00EE [0x1F] MOVE_ENTITY: EventEntity moves to X=16.072*, Z=-94.058*, Y=2.199*
 16: 0x00F6 [0x1F] MOVE_ENTITY: Update entity position (mode=1)
 17: 0x00F8 [0x1F] MOVE_ENTITY: EventEntity moves to X=19.806*, Z=-95.324*, Y=2.199*
 18: 0x0100 [0x1F] MOVE_ENTITY: Update entity position (mode=1)
 19: 0x0102 [0x02] IF !(Work_Zone[77] == 0*) GOTO 0x0114
 20: 0x010A [0x27] REQ_SET(priority=0x05, entity_id=Unnamed NPC (ID: 17719581/0x010E611D), tag_num=0x06)
 21: 0x0111 [0x01] GOTO 0x011D
 22: 0x0114 [0x37] UPDATE_EVENT_POSITION_AND_DIR: x=0.000*, z=0.000*, y=0.000*, direction=0.0°*

SUBROUTINE_011D:
 23: 0x011D [0x00] END_REQSTACK()
```

### Event 65535.6

#### Metadata

| Field        | Value    |
|--------------|----------|
| Entrypoint   | 0x011E   |
| Data Size    | 15 bytes |
| Instructions | 3        |

```
      00 01 02 03 04 05 06 07  08 09 0A 0B 0C 0D 0E 0F
      -- -- -- -- -- -- -- --  -- -- -- -- -- -- -- --
0110:                                            37 16                7.
0120: 80 17 80 03 80 18 80 80  F8 FF FF 7F 00           .............   
```

#### Opcodes

```
  0: 0x011E [0x37] UPDATE_EVENT_POSITION_AND_DIR: x=26.110*, z=-99.026*, y=2.199*, direction=173.2°*
  1: 0x0127 [0x80] LOAD_WAIT(entity=EventEntity)
  2: 0x012C [0x00] END_REQSTACK()
```

### Event 65535.7

#### Metadata

| Field        | Value    |
|--------------|----------|
| Entrypoint   | 0x012D   |
| Data Size    | 14 bytes |
| Instructions | 4        |

```
      00 01 02 03 04 05 06 07  08 09 0A 0B 0C 0D 0E 0F
      -- -- -- -- -- -- -- --  -- -- -- -- -- -- -- --
0120:                                         32 05 80               2..
0130: 1F 00 19 80 1A 80 03 80  1F 01 00                 ...........     
```

#### Opcodes

```
  0: 0x012D [0x32] ExtData[1]->MainSpeed = 70* * 0.1
  1: 0x0130 [0x1F] MOVE_ENTITY: EventEntity moves to X=25.266*, Z=-99.015*, Y=2.199*
  2: 0x0138 [0x1F] MOVE_ENTITY: Update entity position (mode=1)
  3: 0x013A [0x00] END_REQSTACK()
```

### Event 65535.8

#### Metadata

| Field        | Value    |
|--------------|----------|
| Entrypoint   | 0x013B   |
| Data Size    | 11 bytes |
| Instructions | 3        |

```
      00 01 02 03 04 05 06 07  08 09 0A 0B 0C 0D 0E 0F
      -- -- -- -- -- -- -- --  -- -- -- -- -- -- -- --
0130:                                   1F 00 1B 80 1C             .....
0140: 80 03 80 1F 01 00                                 ......          
```

#### Opcodes

```
  0: 0x013B [0x1F] MOVE_ENTITY: EventEntity moves to X=20.255*, Z=-99.402*, Y=2.199*
  1: 0x0143 [0x1F] MOVE_ENTITY: Update entity position (mode=1)
  2: 0x0145 [0x00] END_REQSTACK()
```

### Event 65535.9

#### Metadata

| Field        | Value    |
|--------------|----------|
| Entrypoint   | 0x0146   |
| Data Size    | 11 bytes |
| Instructions | 3        |

```
      00 01 02 03 04 05 06 07  08 09 0A 0B 0C 0D 0E 0F
      -- -- -- -- -- -- -- --  -- -- -- -- -- -- -- --
0140:                   1F 00  1D 80 1E 80 03 80 1F 01        ..........
0150: 00                                                .               
```

#### Opcodes

```
  0: 0x0146 [0x1F] MOVE_ENTITY: EventEntity moves to X=16.632*, Z=-99.607*, Y=2.199*
  1: 0x014E [0x1F] MOVE_ENTITY: Update entity position (mode=1)
  2: 0x0150 [0x00] END_REQSTACK()
```

### Event 65535.10

#### Metadata

| Field        | Value    |
|--------------|----------|
| Entrypoint   | 0x0151   |
| Data Size    | 11 bytes |
| Instructions | 3        |

```
      00 01 02 03 04 05 06 07  08 09 0A 0B 0C 0D 0E 0F
      -- -- -- -- -- -- -- --  -- -- -- -- -- -- -- --
0150:    1F 00 1F 80 20 80 03  80 1F 01 00               .... ......    
```

#### Opcodes

```
  0: 0x0151 [0x1F] MOVE_ENTITY: EventEntity moves to X=14.310*, Z=-99.802*, Y=2.199*
  1: 0x0159 [0x1F] MOVE_ENTITY: Update entity position (mode=1)
  2: 0x015B [0x00] END_REQSTACK()
```

### Event 65535.11

#### Metadata

| Field        | Value    |
|--------------|----------|
| Entrypoint   | 0x015C   |
| Data Size    | 14 bytes |
| Instructions | 4        |

```
      00 01 02 03 04 05 06 07  08 09 0A 0B 0C 0D 0E 0F
      -- -- -- -- -- -- -- --  -- -- -- -- -- -- -- --
0150:                                      32 05 80 1F              2...
0160: 00 21 80 22 80 03 80 1F  01 00                    .!."......      
```

#### Opcodes

```
  0: 0x015C [0x32] ExtData[1]->MainSpeed = 70* * 0.1
  1: 0x015F [0x1F] MOVE_ENTITY: EventEntity moves to X=15.045*, Z=-88.373*, Y=2.199*
  2: 0x0167 [0x1F] MOVE_ENTITY: Update entity position (mode=1)
  3: 0x0169 [0x00] END_REQSTACK()
```

### Event 861

#### Metadata

| Field        | Value   |
|--------------|---------|
| Entrypoint   | 0x016A  |
| Data Size    | 1 bytes |
| Instructions | 1       |

```
      00 01 02 03 04 05 06 07  08 09 0A 0B 0C 0D 0E 0F
      -- -- -- -- -- -- -- --  -- -- -- -- -- -- -- --
0160:                                00                           .     
```

#### Opcodes

```
  0: 0x016A [0x00] END_REQSTACK()
```

### Event 65535.12

#### Metadata

| Field        | Value    |
|--------------|----------|
| Entrypoint   | 0x016B   |
| Data Size    | 15 bytes |
| Instructions | 3        |

```
      00 01 02 03 04 05 06 07  08 09 0A 0B 0C 0D 0E 0F
      -- -- -- -- -- -- -- --  -- -- -- -- -- -- -- --
0160:                                   37 23 80 24 80             7#.$.
0170: 25 80 26 80 03 04 00 00  80 00                    %.&.......      
```

#### Opcodes

```
  0: 0x016B [0x37] UPDATE_EVENT_POSITION_AND_DIR: x=-601.000*, z=609.000*, y=0.247*, direction=5.3°*
  1: 0x0174 [0x03] ExtData[1]->WorkLocal[4] = 0*
  2: 0x0179 [0x00] END_REQSTACK()
```

### Event 65535.13

#### Metadata

| Field        | Value    |
|--------------|----------|
| Entrypoint   | 0x017A   |
| Data Size    | 45 bytes |
| Instructions | 10       |

```
      00 01 02 03 04 05 06 07  08 09 0A 0B 0C 0D 0E 0F
      -- -- -- -- -- -- -- --  -- -- -- -- -- -- -- --
0170:                                02 04 00 27 80 01            ...'..
0180: A6 01 32 28 80 1F 00 29  80 2A 80 2B 80 1F 01 1F  ..2(...).*.+....
0190: 00 2C 80 2D 80 2E 80 1F  01 1F 00 2F 80 30 80 31  .,.-......./.0.1
01A0: 80 1F 01 01 7A 01 00                              ....z..         
```

#### Opcodes

```
  0: 0x017A [0x02] IF !(ExtData[1]->WorkLocal[4] == 2*) GOTO 0x01A6
  1: 0x0182 [0x32] ExtData[1]->MainSpeed = 15* * 0.1
  2: 0x0185 [0x1F] MOVE_ENTITY: EventEntity moves to X=-597.769*, Z=608.337*, Y=0.215*
  3: 0x018D [0x1F] MOVE_ENTITY: Update entity position (mode=1)
  4: 0x018F [0x1F] MOVE_ENTITY: EventEntity moves to X=-599.753*, Z=608.709*, Y=0.233*
  5: 0x0197 [0x1F] MOVE_ENTITY: Update entity position (mode=1)
  6: 0x0199 [0x1F] MOVE_ENTITY: EventEntity moves to X=-603.262*, Z=606.367*, Y=0.116*
  7: 0x01A1 [0x1F] MOVE_ENTITY: Update entity position (mode=1)
  8: 0x01A3 [0x01] GOTO 0x017A
  9: 0x01A6 [0x00] END_REQSTACK()
```

### Event 65535.14

#### Metadata

| Field        | Value   |
|--------------|---------|
| Entrypoint   | 0x01A7  |
| Data Size    | 6 bytes |
| Instructions | 2       |

```
      00 01 02 03 04 05 06 07  08 09 0A 0B 0C 0D 0E 0F
      -- -- -- -- -- -- -- --  -- -- -- -- -- -- -- --
01A0:                      03  04 00 27 80 00                  ...'..   
```

#### Opcodes

```
  0: 0x01A7 [0x03] ExtData[1]->WorkLocal[4] = 2*
  1: 0x01AC [0x00] END_REQSTACK()
```

### Event 65535.15

#### Metadata

| Field        | Value    |
|--------------|----------|
| Entrypoint   | 0x01AD   |
| Data Size    | 20 bytes |
| Instructions | 4        |

```
      00 01 02 03 04 05 06 07  08 09 0A 0B 0C 0D 0E 0F
      -- -- -- -- -- -- -- --  -- -- -- -- -- -- -- --
01A0:                                         37 32 80               72.
01B0: 33 80 34 80 35 80 80 F8  FF FF 7F 03 04 00 00 80  3.4.5...........
01C0: 00                                                .               
```

#### Opcodes

```
  0: 0x01AD [0x37] UPDATE_EVENT_POSITION_AND_DIR: x=-600.128*, z=585.578*, y=0.628*, direction=25.0°*
  1: 0x01B6 [0x80] LOAD_WAIT(entity=EventEntity)
  2: 0x01BB [0x03] ExtData[1]->WorkLocal[4] = 0*
  3: 0x01C0 [0x00] END_REQSTACK()
```

### Event 65535.16

#### Metadata

| Field        | Value    |
|--------------|----------|
| Entrypoint   | 0x01C1   |
| Data Size    | 80 bytes |
| Instructions | 18       |

```
      00 01 02 03 04 05 06 07  08 09 0A 0B 0C 0D 0E 0F
      -- -- -- -- -- -- -- --  -- -- -- -- -- -- -- --
01C0:    32 28 80 1F 00 36 80  37 80 38 80 1F 01 1F 00   2(...6.7.8.....
01D0: 39 80 3A 80 3B 80 1F 01  1F 00 3C 80 3D 80 3E 80  9.:.;.....<.=.>.
01E0: 1F 01 1F 00 3F 80 40 80  41 80 1F 01 1C 42 80 4B  ....?.@.A....B.K
01F0: 1D 61 0E 01 43 80 1C 44  80 1F 00 45 80 46 80 47  .a..C..D...E.F.G
0200: 80 1F 01 1C 42 80 4B 1D  61 0E 01 48 80 1C 42 80  ....B.K.a..H..B.
0210: 00                                                .               
```

#### Opcodes

```
  0: 0x01C1 [0x32] ExtData[1]->MainSpeed = 15* * 0.1
  1: 0x01C4 [0x1F] MOVE_ENTITY: EventEntity moves to X=-601.910*, Z=587.743*, Y=0.274*
  2: 0x01CC [0x1F] MOVE_ENTITY: Update entity position (mode=1)
  3: 0x01CE [0x1F] MOVE_ENTITY: EventEntity moves to X=-600.199*, Z=588.994*, Y=0.347*
  4: 0x01D6 [0x1F] MOVE_ENTITY: Update entity position (mode=1)
  5: 0x01D8 [0x1F] MOVE_ENTITY: EventEntity moves to X=-599.211*, Z=586.089*, Y=0.586*
  6: 0x01E0 [0x1F] MOVE_ENTITY: Update entity position (mode=1)
  7: 0x01E2 [0x1F] MOVE_ENTITY: EventEntity moves to X=-599.391*, Z=583.375*, Y=0.830*
  8: 0x01EA [0x1F] MOVE_ENTITY: Update entity position (mode=1)
  9: 0x01EC [0x1C] WAIT(30* ticks)
 10: 0x01EF [0x4B] UPDATE_ENTITY_YAW(entity=Unnamed NPC (ID: 17719581/0x010E611D), yaw=17.4°*)
 11: 0x01F6 [0x1C] WAIT(120* ticks)
 12: 0x01F9 [0x1F] MOVE_ENTITY: EventEntity moves to X=-602.007*, Z=587.764*, Y=0.268*
 13: 0x0201 [0x1F] MOVE_ENTITY: Update entity position (mode=1)
 14: 0x0203 [0x1C] WAIT(30* ticks)
 15: 0x0206 [0x4B] UPDATE_ENTITY_YAW(entity=Unnamed NPC (ID: 17719581/0x010E611D), yaw=1.9°*)
 16: 0x020D [0x1C] WAIT(30* ticks)
 17: 0x0210 [0x00] END_REQSTACK()
```

### Event 65535.17

#### Metadata

| Field        | Value    |
|--------------|----------|
| Entrypoint   | 0x0211   |
| Data Size    | 67 bytes |
| Instructions | 15       |

```
      00 01 02 03 04 05 06 07  08 09 0A 0B 0C 0D 0E 0F
      -- -- -- -- -- -- -- --  -- -- -- -- -- -- -- --
0210:    32 49 80 1F 00 4A 80  4B 80 4C 80 1F 01 4B 1D   2I...J.K.L...K.
0220: 61 0E 01 4D 80 1C 26 80  1F 00 4E 80 4F 80 50 80  a..M..&...N.O.P.
0230: 1F 01 4B 1D 61 0E 01 51  80 1C 52 80 1F 00 53 80  ..K.a..Q..R...S.
0240: 54 80 55 80 1F 01 1C 42  80 4B 1D 61 0E 01 56 80  T.U....B.K.a..V.
0250: 1C 26 80 00                                       .&..            
```

#### Opcodes

```
  0: 0x0211 [0x32] ExtData[1]->MainSpeed = 45* * 0.1
  1: 0x0214 [0x1F] MOVE_ENTITY: EventEntity moves to X=-599.295*, Z=590.678*, Y=0.264*
  2: 0x021C [0x1F] MOVE_ENTITY: Update entity position (mode=1)
  3: 0x021E [0x4B] UPDATE_ENTITY_YAW(entity=Unnamed NPC (ID: 17719581/0x010E611D), yaw=5.3°*)
  4: 0x0225 [0x1C] WAIT(60* ticks)
  5: 0x0228 [0x1F] MOVE_ENTITY: EventEntity moves to X=-604.353*, Z=586.292*, Y=0.138*
  6: 0x0230 [0x1F] MOVE_ENTITY: Update entity position (mode=1)
  7: 0x0232 [0x4B] UPDATE_ENTITY_YAW(entity=Unnamed NPC (ID: 17719581/0x010E611D), yaw=0.2°*)
  8: 0x0239 [0x1C] WAIT(240* ticks)
  9: 0x023C [0x1F] MOVE_ENTITY: EventEntity moves to X=-600.328*, Z=582.410*, Y=0.802*
 10: 0x0244 [0x1F] MOVE_ENTITY: Update entity position (mode=1)
 11: 0x0246 [0x1C] WAIT(30* ticks)
 12: 0x0249 [0x4B] UPDATE_ENTITY_YAW(entity=Unnamed NPC (ID: 17719581/0x010E611D), yaw=16.6°*)
 13: 0x0250 [0x1C] WAIT(60* ticks)
 14: 0x0253 [0x00] END_REQSTACK()
```

### Event 65535.18

#### Metadata

| Field        | Value    |
|--------------|----------|
| Entrypoint   | 0x0254   |
| Data Size    | 14 bytes |
| Instructions | 4        |

```
      00 01 02 03 04 05 06 07  08 09 0A 0B 0C 0D 0E 0F
      -- -- -- -- -- -- -- --  -- -- -- -- -- -- -- --
0250:             32 49 80 1F  00 57 80 58 80 59 80 1F      2I...W.X.Y..
0260: 01 00                                             ..              
```

#### Opcodes

```
  0: 0x0254 [0x32] ExtData[1]->MainSpeed = 45* * 0.1
  1: 0x0257 [0x1F] MOVE_ENTITY: EventEntity moves to X=-599.148*, Z=589.043*, Y=0.345*
  2: 0x025F [0x1F] MOVE_ENTITY: Update entity position (mode=1)
  3: 0x0261 [0x00] END_REQSTACK()
```

### Event 65535.19

#### Metadata

| Field        | Value    |
|--------------|----------|
| Entrypoint   | 0x0262   |
| Data Size    | 51 bytes |
| Instructions | 11       |

```
      00 01 02 03 04 05 06 07  08 09 0A 0B 0C 0D 0E 0F
      -- -- -- -- -- -- -- --  -- -- -- -- -- -- -- --
0260:       32 49 80 1F 00 5A  80 5B 80 5C 80 1F 01 1F    2I...Z.[.\....
0270: 00 5D 80 5E 80 5F 80 1F  01 1F 00 60 80 61 80 62  .].^._.....`.a.b
0280: 80 1F 01 1E 19 61 0E 01  1C 42 80 4A 19 61 0E 01  .....a...B.J.a..
0290: 1D 61 0E 01 00                                    .a...           
```

#### Opcodes

```
  0: 0x0262 [0x32] ExtData[1]->MainSpeed = 45* * 0.1
  1: 0x0265 [0x1F] MOVE_ENTITY: EventEntity moves to X=-604.257*, Z=586.573*, Y=0.057*
  2: 0x026D [0x1F] MOVE_ENTITY: Update entity position (mode=1)
  3: 0x026F [0x1F] MOVE_ENTITY: EventEntity moves to X=-603.318*, Z=588.527*, Y=0.196*
  4: 0x0277 [0x1F] MOVE_ENTITY: Update entity position (mode=1)
  5: 0x0279 [0x1F] MOVE_ENTITY: EventEntity moves to X=-601.495*, Z=586.040*, Y=0.496*
  6: 0x0281 [0x1F] MOVE_ENTITY: Update entity position (mode=1)
  7: 0x0283 [0x1E] EventEntity looks at Unnamed NPC (ID: 17719577/0x010E6119) and starts talking
  8: 0x0288 [0x1C] WAIT(30* ticks)
  9: 0x028B [0x4A] Unnamed NPC (ID: 17719577/0x010E6119) looks at Unnamed NPC (ID: 17719581/0x010E611D)
 10: 0x0294 [0x00] END_REQSTACK()
```

### Event 65535.20

#### Metadata

| Field        | Value    |
|--------------|----------|
| Entrypoint   | 0x0295   |
| Data Size    | 15 bytes |
| Instructions | 3        |

```
      00 01 02 03 04 05 06 07  08 09 0A 0B 0C 0D 0E 0F
      -- -- -- -- -- -- -- --  -- -- -- -- -- -- -- --
0290:                37 45 80  46 80 47 80 35 80 80 F8       7E.F.G.5...
02A0: FF FF 7F 00                                       ....            
```

#### Opcodes

```
  0: 0x0295 [0x37] UPDATE_EVENT_POSITION_AND_DIR: x=-602.007*, z=587.764*, y=0.268*, direction=25.0°*
  1: 0x029E [0x80] LOAD_WAIT(entity=EventEntity)
  2: 0x02A3 [0x00] END_REQSTACK()
```

### Event 65535.21

#### Metadata

| Field        | Value    |
|--------------|----------|
| Entrypoint   | 0x02A4   |
| Data Size    | 69 bytes |
| Instructions | 15       |

```
      00 01 02 03 04 05 06 07  08 09 0A 0B 0C 0D 0E 0F
      -- -- -- -- -- -- -- --  -- -- -- -- -- -- -- --
02A0:             32 49 80 1F  00 63 80 64 80 25 80 1F      2I...c.d.%..
02B0: 01 1F 00 65 80 66 80 67  80 1F 01 1F 00 68 80 69  ...e.f.g.....h.i
02C0: 80 6A 80 1F 01 1F 00 6B  80 6C 80 6D 80 1F 01 1F  .j.....k.l.m....
02D0: 00 6E 80 6F 80 70 80 1F  01 1F 00 71 80 72 80 73  .n.o.p.....q.r.s
02E0: 80 1F 01 1E 19 61 0E 01  00                       .....a...       
```

#### Opcodes

```
  0: 0x02A4 [0x32] ExtData[1]->MainSpeed = 45* * 0.1
  1: 0x02A7 [0x1F] MOVE_ENTITY: EventEntity moves to X=-602.454*, Z=588.333*, Y=0.247*
  2: 0x02AF [0x1F] MOVE_ENTITY: Update entity position (mode=1)
  3: 0x02B1 [0x1F] MOVE_ENTITY: EventEntity moves to X=-603.634*, Z=585.657*, Y=0.144*
  4: 0x02B9 [0x1F] MOVE_ENTITY: Update entity position (mode=1)
  5: 0x02BB [0x1F] MOVE_ENTITY: EventEntity moves to X=-602.421*, Z=582.680*, Y=0.396*
  6: 0x02C3 [0x1F] MOVE_ENTITY: Update entity position (mode=1)
  7: 0x02C5 [0x1F] MOVE_ENTITY: EventEntity moves to X=-599.175*, Z=582.899*, Y=0.854*
  8: 0x02CD [0x1F] MOVE_ENTITY: Update entity position (mode=1)
  9: 0x02CF [0x1F] MOVE_ENTITY: EventEntity moves to X=-598.432*, Z=587.737*, Y=0.410*
 10: 0x02D7 [0x1F] MOVE_ENTITY: Update entity position (mode=1)
 11: 0x02D9 [0x1F] MOVE_ENTITY: EventEntity moves to X=-599.890*, Z=589.432*, Y=0.326*
 12: 0x02E1 [0x1F] MOVE_ENTITY: Update entity position (mode=1)
 13: 0x02E3 [0x1E] EventEntity looks at Unnamed NPC (ID: 17719577/0x010E6119) and starts talking
 14: 0x02E8 [0x00] END_REQSTACK()
```
