# 17719358 - Blendare

## Common Data

| Field            | Value                         |
|------------------|-------------------------------|
| Zone             | Southern San d'Oria (ID: 230) |
| Block Size       | 780 bytes                     |
| Total Events     | 25                            |
| References Count | 37                            |

## List of Events

| Event ID                   | Entrypoint   |   Size |   Instructions |
|----------------------------|--------------|--------|----------------|
| [65535](#event-65535)      | 0x0000       |      1 |              1 |
| [0](#event-0)              | 0x0001       |      1 |              1 |
| [606](#event-606)          | 0x0002       |     33 |              9 |
| [597](#event-597)          | 0x0023       |      1 |              1 |
| [598](#event-598)          | 0x0024       |      1 |              1 |
| [65535.1](#event-655351)   | 0x0025       |     32 |              8 |
| [65535.2](#event-655352)   | 0x0045       |     32 |              8 |
| [65535.3](#event-655353)   | 0x0065       |     32 |              8 |
| [65535.4](#event-655354)   | 0x0085       |     32 |              8 |
| [65535.5](#event-655355)   | 0x00A5       |      9 |              3 |
| [65535.6](#event-655356)   | 0x00AE       |      6 |              2 |
| [65535.7](#event-655357)   | 0x00B4       |     32 |              8 |
| [945](#event-945)          | 0x00D4       |     10 |              2 |
| [65535.8](#event-655358)   | 0x00DE       |     15 |              5 |
| [65535.9](#event-655359)   | 0x00ED       |     68 |             12 |
| [65535.10](#event-6553510) | 0x0131       |     45 |              9 |
| [65535.11](#event-6553511) | 0x015E       |     89 |             16 |
| [65535.12](#event-6553512) | 0x01B7       |     15 |              5 |
| [65535.13](#event-6553513) | 0x01C6       |     10 |              2 |
| [65535.14](#event-6553514) | 0x01D0       |     15 |              5 |
| [65535.15](#event-6553515) | 0x01DF       |     18 |              6 |
| [3506](#event-3506)        | 0x01F1       |      1 |              1 |
| [3507](#event-3507)        | 0x01F2       |      1 |              1 |
| [65535.16](#event-6553516) | 0x01F3       |     11 |              3 |
| [65535.17](#event-6553517) | 0x01FE       |      4 |              2 |

## DAT References (imed_data)

|   Index | Hex Value   |   Dec Value |
|---------|-------------|-------------|
|       0 | 0x004B      |          75 |
|       1 | 0x1FC2      |        8130 |
|       2 | 0x1FAE      |        8110 |
|       3 | 0x1FB1      |        8113 |
|       4 | 0x1FB5      |        8117 |
|       5 | 0x1FBC      |        8124 |
|       6 | 0x002D      |          45 |
|       7 | 0x1FBF      |        8127 |
|       8 | 0x0060      |          96 |
|       9 | 0x0001      |           1 |
|      10 | 0x000B      |          11 |
|      11 | 0xF906      |       63750 |
|      12 | 0xFFFFC4F8  |  4294952184 |
|      13 | 0x07CF      |        1999 |
|      14 | 0x0013      |          19 |
|      15 | 0x7FC6      |       32710 |
|      16 | 0xFFFF82CC  |  4294935244 |
|      17 | 0x001E      |          30 |
|      18 | 0x0027      |          39 |
|      19 | 0x4B65      |       19301 |
|      20 | 0xFFFF927C  |  4294939260 |
|      21 | 0x001D      |          29 |
|      22 | 0x000D      |          13 |
|      23 | 0xFFFFE0FB  |  4294959355 |
|      24 | 0xFFFFFCD8  |  4294966488 |
|      25 | 0x0078      |         120 |
|      26 | 0xFFFFBEF4  |  4294950644 |
|      27 | 0xFFFFD7DD  |  4294957021 |
|      28 | 0xFFFFDD9F  |  4294958495 |
|      29 | 0xFFFFA44E  |  4294943822 |
|      30 | 0x007F      |         127 |
|      31 | 0x0028      |          40 |
|      32 | 0x3192      |       12690 |
|      33 | 0xFFFFCF7D  |  4294954877 |
|      34 | 0x0025      |          37 |
|      35 | 0x2E04      |       11780 |
|      36 | 0xFFFFCBDF  |  4294953951 |

## String References

- **8110**: That's mine! Give it back!
- **8113**: He took my sweets, and Mother always says that taking without asking is stealing!
- **8117**: So?
- **8124**: I suppose...
- **8127**: Fiends don't scare me!
- **8130**: My brother always takes my sweets! It's not fair!

## Events

### Event 65535

#### Metadata

| Field        | Value   |
|--------------|---------|
| Entrypoint   | 0x0000  |
| Data Size    | 1 bytes |
| Instructions | 1       |

```
      00 01 02 03 04 05 06 07  08 09 0A 0B 0C 0D 0E 0F
      -- -- -- -- -- -- -- --  -- -- -- -- -- -- -- --
0000: 00                                                .               
```

#### Opcodes

```
  0: 0x0000 [0x00] END_REQSTACK()
```

### Event 0

#### Metadata

| Field        | Value   |
|--------------|---------|
| Entrypoint   | 0x0001  |
| Data Size    | 1 bytes |
| Instructions | 1       |

```
      00 01 02 03 04 05 06 07  08 09 0A 0B 0C 0D 0E 0F
      -- -- -- -- -- -- -- --  -- -- -- -- -- -- -- --
0000:    00                                              .              
```

#### Opcodes

```
  0: 0x0001 [0x00] END_REQSTACK()
```

### Event 606

#### Metadata

| Field        | Value    |
|--------------|----------|
| Entrypoint   | 0x0002   |
| Data Size    | 33 bytes |
| Instructions | 9        |

```
      00 01 02 03 04 05 06 07  08 09 0A 0B 0C 0D 0E 0F
      -- -- -- -- -- -- -- --  -- -- -- -- -- -- -- --
0000:       1E F0 FF FF 7F 6F  70 5B 00 80 F8 FF FF 7F    .....op[......
0010: F8 FF FF 7F 74 6C 6B 30  1D 01 80 23 5E 69 64 6C  ....tlk0...#^idl
0020: 30 21 00                                          0!.             
```

#### Opcodes

```
  0: 0x0002 [0x1E] EventEntity looks at LocalPlayer and starts talking
  1: 0x0007 [0x6F] WAIT_FRAME_DELAY: Yield until WaitTime reaches zero
  2: 0x0008 [0x70] WAIT_ENTITY_RENDER_FLAG: Wait while EventEntity->Render.Flags3 bit 2 is set (cancel turn if not)
  3: 0x0009 [0x5B] LOAD_EXT_SCHEDULER: Load scheduler "tlk0" with entities [EventEntity, EventEntity], work=75*
  4: 0x0018 [0x1D] PRINT_EVENT_MESSAGE(message_id=8130*)
    → "My brother always takes my sweets! It's not fair!"
  5: 0x001B [0x23] WAIT_FOR_DIALOG_INTERACTION
  6: 0x001C [0x5E] EventEntity goes idle (kills current action) (animation: "idl0")
  7: 0x0021 [0x21] END_EVENT
  8: 0x0022 [0x00] END_REQSTACK()
```

### Event 597

#### Metadata

| Field        | Value   |
|--------------|---------|
| Entrypoint   | 0x0023  |
| Data Size    | 1 bytes |
| Instructions | 1       |

```
      00 01 02 03 04 05 06 07  08 09 0A 0B 0C 0D 0E 0F
      -- -- -- -- -- -- -- --  -- -- -- -- -- -- -- --
0020:          00                                          .            
```

#### Opcodes

```
  0: 0x0023 [0x00] END_REQSTACK()
```

### Event 598

#### Metadata

| Field        | Value   |
|--------------|---------|
| Entrypoint   | 0x0024  |
| Data Size    | 1 bytes |
| Instructions | 1       |

```
      00 01 02 03 04 05 06 07  08 09 0A 0B 0C 0D 0E 0F
      -- -- -- -- -- -- -- --  -- -- -- -- -- -- -- --
0020:             00                                        .           
```

#### Opcodes

```
  0: 0x0024 [0x00] END_REQSTACK()
```

### Event 65535.1

#### Metadata

| Field        | Value    |
|--------------|----------|
| Entrypoint   | 0x0025   |
| Data Size    | 32 bytes |
| Instructions | 8        |

```
      00 01 02 03 04 05 06 07  08 09 0A 0B 0C 0D 0E 0F
      -- -- -- -- -- -- -- --  -- -- -- -- -- -- -- --
0020:                1E 3D 60  0E 01 6F 70 5B 00 80 F8       .=`..op[...
0030: FF FF 7F F8 FF FF 7F 74  6C 6B 30 1D 02 80 23 5E  .......tlk0...#^
0040: 69 64 6C 30 00                                    idl0.           
```

#### Opcodes

```
  0: 0x0025 [0x1E] EventEntity looks at Authere (ID: 17719357/0x010E603D) and starts talking
  1: 0x002A [0x6F] WAIT_FRAME_DELAY: Yield until WaitTime reaches zero
  2: 0x002B [0x70] WAIT_ENTITY_RENDER_FLAG: Wait while EventEntity->Render.Flags3 bit 2 is set (cancel turn if not)
  3: 0x002C [0x5B] LOAD_EXT_SCHEDULER: Load scheduler "tlk0" with entities [EventEntity, EventEntity], work=75*
  4: 0x003B [0x1D] PRINT_EVENT_MESSAGE(message_id=8110*)
    → "That's mine! Give it back!"
  5: 0x003E [0x23] WAIT_FOR_DIALOG_INTERACTION
  6: 0x003F [0x5E] EventEntity goes idle (kills current action) (animation: "idl0")
  7: 0x0044 [0x00] END_REQSTACK()
```

### Event 65535.2

#### Metadata

| Field        | Value    |
|--------------|----------|
| Entrypoint   | 0x0045   |
| Data Size    | 32 bytes |
| Instructions | 8        |

```
      00 01 02 03 04 05 06 07  08 09 0A 0B 0C 0D 0E 0F
      -- -- -- -- -- -- -- --  -- -- -- -- -- -- -- --
0040:                1E 40 60  0E 01 6F 70 5B 00 80 F8       .@`..op[...
0050: FF FF 7F F8 FF FF 7F 74  6C 6B 30 1D 03 80 23 5E  .......tlk0...#^
0060: 69 64 6C 30 00                                    idl0.           
```

#### Opcodes

```
  0: 0x0045 [0x1E] EventEntity looks at Balasiel (ID: 17719360/0x010E6040) and starts talking
  1: 0x004A [0x6F] WAIT_FRAME_DELAY: Yield until WaitTime reaches zero
  2: 0x004B [0x70] WAIT_ENTITY_RENDER_FLAG: Wait while EventEntity->Render.Flags3 bit 2 is set (cancel turn if not)
  3: 0x004C [0x5B] LOAD_EXT_SCHEDULER: Load scheduler "tlk0" with entities [EventEntity, EventEntity], work=75*
  4: 0x005B [0x1D] PRINT_EVENT_MESSAGE(message_id=8113*)
    → "He took my sweets, and Mother always says that taking without asking is stealing!"
  5: 0x005E [0x23] WAIT_FOR_DIALOG_INTERACTION
  6: 0x005F [0x5E] EventEntity goes idle (kills current action) (animation: "idl0")
  7: 0x0064 [0x00] END_REQSTACK()
```

### Event 65535.3

#### Metadata

| Field        | Value    |
|--------------|----------|
| Entrypoint   | 0x0065   |
| Data Size    | 32 bytes |
| Instructions | 8        |

```
      00 01 02 03 04 05 06 07  08 09 0A 0B 0C 0D 0E 0F
      -- -- -- -- -- -- -- --  -- -- -- -- -- -- -- --
0060:                1E 40 60  0E 01 6F 70 5B 00 80 F8       .@`..op[...
0070: FF FF 7F F8 FF FF 7F 74  6C 6B 30 1D 04 80 23 5E  .......tlk0...#^
0080: 69 64 6C 30 00                                    idl0.           
```

#### Opcodes

```
  0: 0x0065 [0x1E] EventEntity looks at Balasiel (ID: 17719360/0x010E6040) and starts talking
  1: 0x006A [0x6F] WAIT_FRAME_DELAY: Yield until WaitTime reaches zero
  2: 0x006B [0x70] WAIT_ENTITY_RENDER_FLAG: Wait while EventEntity->Render.Flags3 bit 2 is set (cancel turn if not)
  3: 0x006C [0x5B] LOAD_EXT_SCHEDULER: Load scheduler "tlk0" with entities [EventEntity, EventEntity], work=75*
  4: 0x007B [0x1D] PRINT_EVENT_MESSAGE(message_id=8117*)
    → "So?"
  5: 0x007E [0x23] WAIT_FOR_DIALOG_INTERACTION
  6: 0x007F [0x5E] EventEntity goes idle (kills current action) (animation: "idl0")
  7: 0x0084 [0x00] END_REQSTACK()
```

### Event 65535.4

#### Metadata

| Field        | Value    |
|--------------|----------|
| Entrypoint   | 0x0085   |
| Data Size    | 32 bytes |
| Instructions | 8        |

```
      00 01 02 03 04 05 06 07  08 09 0A 0B 0C 0D 0E 0F
      -- -- -- -- -- -- -- --  -- -- -- -- -- -- -- --
0080:                1E 40 60  0E 01 6F 70 5B 00 80 F8       .@`..op[...
0090: FF FF 7F F8 FF FF 7F 74  6C 6B 30 1D 05 80 23 5E  .......tlk0...#^
00A0: 69 64 6C 30 00                                    idl0.           
```

#### Opcodes

```
  0: 0x0085 [0x1E] EventEntity looks at Balasiel (ID: 17719360/0x010E6040) and starts talking
  1: 0x008A [0x6F] WAIT_FRAME_DELAY: Yield until WaitTime reaches zero
  2: 0x008B [0x70] WAIT_ENTITY_RENDER_FLAG: Wait while EventEntity->Render.Flags3 bit 2 is set (cancel turn if not)
  3: 0x008C [0x5B] LOAD_EXT_SCHEDULER: Load scheduler "tlk0" with entities [EventEntity, EventEntity], work=75*
  4: 0x009B [0x1D] PRINT_EVENT_MESSAGE(message_id=8124*)
    → "I suppose..."
  5: 0x009E [0x23] WAIT_FOR_DIALOG_INTERACTION
  6: 0x009F [0x5E] EventEntity goes idle (kills current action) (animation: "idl0")
  7: 0x00A4 [0x00] END_REQSTACK()
```

### Event 65535.5

#### Metadata

| Field        | Value   |
|--------------|---------|
| Entrypoint   | 0x00A5  |
| Data Size    | 9 bytes |
| Instructions | 3       |

```
      00 01 02 03 04 05 06 07  08 09 0A 0B 0C 0D 0E 0F
      -- -- -- -- -- -- -- --  -- -- -- -- -- -- -- --
00A0:                1C 06 80  1E 3D 60 0E 01 00             ....=`...  
```

#### Opcodes

```
  0: 0x00A5 [0x1C] WAIT(45* ticks)
  1: 0x00A8 [0x1E] EventEntity looks at Authere (ID: 17719357/0x010E603D) and starts talking
  2: 0x00AD [0x00] END_REQSTACK()
```

### Event 65535.6

#### Metadata

| Field        | Value   |
|--------------|---------|
| Entrypoint   | 0x00AE  |
| Data Size    | 6 bytes |
| Instructions | 2       |

```
      00 01 02 03 04 05 06 07  08 09 0A 0B 0C 0D 0E 0F
      -- -- -- -- -- -- -- --  -- -- -- -- -- -- -- --
00A0:                                            1E 40                .@
00B0: 60 0E 01 00                                       `...            
```

#### Opcodes

```
  0: 0x00AE [0x1E] EventEntity looks at Balasiel (ID: 17719360/0x010E6040) and starts talking
  1: 0x00B3 [0x00] END_REQSTACK()
```

### Event 65535.7

#### Metadata

| Field        | Value    |
|--------------|----------|
| Entrypoint   | 0x00B4   |
| Data Size    | 32 bytes |
| Instructions | 8        |

```
      00 01 02 03 04 05 06 07  08 09 0A 0B 0C 0D 0E 0F
      -- -- -- -- -- -- -- --  -- -- -- -- -- -- -- --
00B0:             1E 3D 60 0E  01 6F 70 5B 00 80 F8 FF      .=`..op[....
00C0: FF 7F F8 FF FF 7F 74 6C  6B 30 1D 07 80 23 5E 69  ......tlk0...#^i
00D0: 64 6C 30 00                                       dl0.            
```

#### Opcodes

```
  0: 0x00B4 [0x1E] EventEntity looks at Authere (ID: 17719357/0x010E603D) and starts talking
  1: 0x00B9 [0x6F] WAIT_FRAME_DELAY: Yield until WaitTime reaches zero
  2: 0x00BA [0x70] WAIT_ENTITY_RENDER_FLAG: Wait while EventEntity->Render.Flags3 bit 2 is set (cancel turn if not)
  3: 0x00BB [0x5B] LOAD_EXT_SCHEDULER: Load scheduler "tlk0" with entities [EventEntity, EventEntity], work=75*
  4: 0x00CA [0x1D] PRINT_EVENT_MESSAGE(message_id=8127*)
    → "Fiends don't scare me!"
  5: 0x00CD [0x23] WAIT_FOR_DIALOG_INTERACTION
  6: 0x00CE [0x5E] EventEntity goes idle (kills current action) (animation: "idl0")
  7: 0x00D3 [0x00] END_REQSTACK()
```

### Event 945

#### Metadata

| Field        | Value    |
|--------------|----------|
| Entrypoint   | 0x00D4   |
| Data Size    | 10 bytes |
| Instructions | 2        |

```
      00 01 02 03 04 05 06 07  08 09 0A 0B 0C 0D 0E 0F
      -- -- -- -- -- -- -- --  -- -- -- -- -- -- -- --
00D0:             6C F8 FF FF  7F 08 80 09 80 00            l.........  
```

#### Opcodes

```
  0: 0x00D4 [0x6C] FADE_ENTITY_COLOR(entity_id=EventEntity, end_alpha=96*, fade_time=1*)
  1: 0x00DD [0x00] END_REQSTACK()
```

### Event 65535.8

#### Metadata

| Field        | Value    |
|--------------|----------|
| Entrypoint   | 0x00DE   |
| Data Size    | 15 bytes |
| Instructions | 5        |

```
      00 01 02 03 04 05 06 07  08 09 0A 0B 0C 0D 0E 0F
      -- -- -- -- -- -- -- --  -- -- -- -- -- -- -- --
00D0:                                            32 0A                2.
00E0: 80 1F 00 0B 80 0C 80 0D  80 1F 01 6F 00           ...........o.   
```

#### Opcodes

```
  0: 0x00DE [0x32] ExtData[1]->MainSpeed = 11* * 0.1
  1: 0x00E1 [0x1F] MOVE_ENTITY: EventEntity moves to X=63.750*, Z=-15.112*, Y=1.999*
  2: 0x00E9 [0x1F] MOVE_ENTITY: Update entity position (mode=1)
  3: 0x00EB [0x6F] WAIT_FRAME_DELAY: Yield until WaitTime reaches zero
  4: 0x00EC [0x00] END_REQSTACK()
```

### Event 65535.9

#### Metadata

| Field        | Value    |
|--------------|----------|
| Entrypoint   | 0x00ED   |
| Data Size    | 68 bytes |
| Instructions | 12       |

```
      00 01 02 03 04 05 06 07  08 09 0A 0B 0C 0D 0E 0F
      -- -- -- -- -- -- -- --  -- -- -- -- -- -- -- --
00E0:                                         32 0E 80               2..
00F0: 1F 00 0F 80 10 80 0D 80  1F 01 6F 1E 3D 60 0E 01  ..........o.=`..
0100: 6F 76 F8 FF FF 7F 4A 3D  60 0E 01 F8 FF FF 7F 5B  ov....J=`......[
0110: 00 80 F8 FF FF 7F F8 FF  FF 7F 74 6C 6B 30 1C 11  ..........tlk0..
0120: 80 5B 00 80 3D 60 0E 01  3D 60 0E 01 74 68 6B 30  .[..=`..=`..thk0
0130: 00                                                .               
```

#### Opcodes

```
  0: 0x00ED [0x32] ExtData[1]->MainSpeed = 19* * 0.1
  1: 0x00F0 [0x1F] MOVE_ENTITY: EventEntity moves to X=32.710*, Z=-32.052*, Y=1.999*
  2: 0x00F8 [0x1F] MOVE_ENTITY: Update entity position (mode=1)
  3: 0x00FA [0x6F] WAIT_FRAME_DELAY: Yield until WaitTime reaches zero
  4: 0x00FB [0x1E] EventEntity looks at Authere (ID: 17719357/0x010E603D) and starts talking
  5: 0x0100 [0x6F] WAIT_FRAME_DELAY: Yield until WaitTime reaches zero
  6: 0x0101 [0x76] CHECK_ENTITY_RENDER_FLAGS: Wait until EventEntity Render.Flags0 and Render.Flags3 conditions are met
  7: 0x0106 [0x4A] Authere (ID: 17719357/0x010E603D) looks at EventEntity
  8: 0x010F [0x5B] LOAD_EXT_SCHEDULER: Load scheduler "tlk0" with entities [EventEntity, EventEntity], work=75*
  9: 0x011E [0x1C] WAIT(30* ticks)
 10: 0x0121 [0x5B] LOAD_EXT_SCHEDULER: Load scheduler "thk0" with entities [Authere (ID: 17719357/0x010E603D), Authere (ID: 17719357/0x010E603D)], work=75*
 11: 0x0130 [0x00] END_REQSTACK()
```

### Event 65535.10

#### Metadata

| Field        | Value    |
|--------------|----------|
| Entrypoint   | 0x0131   |
| Data Size    | 45 bytes |
| Instructions | 9        |

```
      00 01 02 03 04 05 06 07  08 09 0A 0B 0C 0D 0E 0F
      -- -- -- -- -- -- -- --  -- -- -- -- -- -- -- --
0130:    32 12 80 1F 00 13 80  14 80 0D 80 1F 01 6F 4A   2............oJ
0140: 72 60 0E 01 F8 FF FF 7F  6F 76 72 60 0E 01 66 15  r`......ovr`..f.
0150: 80 72 60 0E 01 72 60 0E  01 74 77 61 30 00        .r`..r`..twa0.  
```

#### Opcodes

```
  0: 0x0131 [0x32] ExtData[1]->MainSpeed = 39* * 0.1
  1: 0x0134 [0x1F] MOVE_ENTITY: EventEntity moves to X=19.301*, Z=-28.036*, Y=1.999*
  2: 0x013C [0x1F] MOVE_ENTITY: Update entity position (mode=1)
  3: 0x013E [0x6F] WAIT_FRAME_DELAY: Yield until WaitTime reaches zero
  4: 0x013F [0x4A] Vaquelage (ID: 17719410/0x010E6072) looks at EventEntity
  5: 0x0148 [0x6F] WAIT_FRAME_DELAY: Yield until WaitTime reaches zero
  6: 0x0149 [0x76] CHECK_ENTITY_RENDER_FLAGS: Wait until Vaquelage (ID: 17719410/0x010E6072) Render.Flags0 and Render.Flags3 conditions are met
  7: 0x014E [0x66] LOAD_EXT_SCHEDULER_MAIN: Load scheduler "twa0" with entities [Vaquelage (ID: 17719410/0x010E6072), Vaquelage (ID: 17719410/0x010E6072)], work=29*
  8: 0x015D [0x00] END_REQSTACK()
```

### Event 65535.11

#### Metadata

| Field        | Value    |
|--------------|----------|
| Entrypoint   | 0x015E   |
| Data Size    | 89 bytes |
| Instructions | 16       |

```
      00 01 02 03 04 05 06 07  08 09 0A 0B 0C 0D 0E 0F
      -- -- -- -- -- -- -- --  -- -- -- -- -- -- -- --
0150:                                            32 16                2.
0160: 80 1F 00 17 80 18 80 0D  80 1F 01 6F 79 00 F8 FF  ...........oy...
0170: FF 7F 7E 60 0E 01 4A 7E  60 0E 01 F8 FF FF 7F 6F  ..~`..J~`......o
0180: 76 7E 60 0E 01 5B 12 80  7E 60 0E 01 7E 60 0E 01  v~`..[..~`..~`..
0190: 74 6C 6B 30 1C 19 80 5B  12 80 7E 60 0E 01 7E 60  tlk0...[..~`..~`
01A0: 0E 01 74 6C 6B 31 7B F8  FF FF 7F 1F 00 1A 80 1B  ..tlk1{.........
01B0: 80 0D 80 1F 01 6F 00                              .....o.         
```

#### Opcodes

```
  0: 0x015E [0x32] ExtData[1]->MainSpeed = 13* * 0.1
  1: 0x0161 [0x1F] MOVE_ENTITY: EventEntity moves to X=-7.941*, Z=-0.808*, Y=1.999*
  2: 0x0169 [0x1F] MOVE_ENTITY: Update entity position (mode=1)
  3: 0x016B [0x6F] WAIT_FRAME_DELAY: Yield until WaitTime reaches zero
  4: 0x016C [0x79] EventEntity looks at Ailevia (ID: 17719422/0x010E607E) (Basic look)
  5: 0x0176 [0x4A] Ailevia (ID: 17719422/0x010E607E) looks at EventEntity
  6: 0x017F [0x6F] WAIT_FRAME_DELAY: Yield until WaitTime reaches zero
  7: 0x0180 [0x76] CHECK_ENTITY_RENDER_FLAGS: Wait until Ailevia (ID: 17719422/0x010E607E) Render.Flags0 and Render.Flags3 conditions are met
  8: 0x0185 [0x5B] LOAD_EXT_SCHEDULER: Load scheduler "tlk0" with entities [Ailevia (ID: 17719422/0x010E607E), Ailevia (ID: 17719422/0x010E607E)], work=39*
  9: 0x0194 [0x1C] WAIT(120* ticks)
 10: 0x0197 [0x5B] LOAD_EXT_SCHEDULER: Load scheduler "tlk1" with entities [Ailevia (ID: 17719422/0x010E607E), Ailevia (ID: 17719422/0x010E607E)], work=39*
 11: 0x01A6 [0x7B] EventEntity stops talking
 12: 0x01AB [0x1F] MOVE_ENTITY: EventEntity moves to X=-16.652*, Z=-10.275*, Y=1.999*
 13: 0x01B3 [0x1F] MOVE_ENTITY: Update entity position (mode=1)
 14: 0x01B5 [0x6F] WAIT_FRAME_DELAY: Yield until WaitTime reaches zero
 15: 0x01B6 [0x00] END_REQSTACK()
```

### Event 65535.12

#### Metadata

| Field        | Value    |
|--------------|----------|
| Entrypoint   | 0x01B7   |
| Data Size    | 15 bytes |
| Instructions | 5        |

```
      00 01 02 03 04 05 06 07  08 09 0A 0B 0C 0D 0E 0F
      -- -- -- -- -- -- -- --  -- -- -- -- -- -- -- --
01B0:                      32  0A 80 1F 00 1C 80 1D 80         2........
01C0: 0D 80 1F 01 6F 00                                 ....o.          
```

#### Opcodes

```
  0: 0x01B7 [0x32] ExtData[1]->MainSpeed = 11* * 0.1
  1: 0x01BA [0x1F] MOVE_ENTITY: EventEntity moves to X=-8.801*, Z=-23.474*, Y=1.999*
  2: 0x01C2 [0x1F] MOVE_ENTITY: Update entity position (mode=1)
  3: 0x01C4 [0x6F] WAIT_FRAME_DELAY: Yield until WaitTime reaches zero
  4: 0x01C5 [0x00] END_REQSTACK()
```

### Event 65535.13

#### Metadata

| Field        | Value    |
|--------------|----------|
| Entrypoint   | 0x01C6   |
| Data Size    | 10 bytes |
| Instructions | 2        |

```
      00 01 02 03 04 05 06 07  08 09 0A 0B 0C 0D 0E 0F
      -- -- -- -- -- -- -- --  -- -- -- -- -- -- -- --
01C0:                   6C F8  FF FF 7F 1E 80 09 80 00        l.........
```

#### Opcodes

```
  0: 0x01C6 [0x6C] FADE_ENTITY_COLOR(entity_id=EventEntity, end_alpha=127*, fade_time=1*)
  1: 0x01CF [0x00] END_REQSTACK()
```

### Event 65535.14

#### Metadata

| Field        | Value    |
|--------------|----------|
| Entrypoint   | 0x01D0   |
| Data Size    | 15 bytes |
| Instructions | 5        |

```
      00 01 02 03 04 05 06 07  08 09 0A 0B 0C 0D 0E 0F
      -- -- -- -- -- -- -- --  -- -- -- -- -- -- -- --
01D0: 32 1F 80 1F 00 20 80 21  80 0D 80 1F 01 6F 00     2.... .!.....o. 
```

#### Opcodes

```
  0: 0x01D0 [0x32] ExtData[1]->MainSpeed = 40* * 0.1
  1: 0x01D3 [0x1F] MOVE_ENTITY: EventEntity moves to X=12.690*, Z=-12.419*, Y=1.999*
  2: 0x01DB [0x1F] MOVE_ENTITY: Update entity position (mode=1)
  3: 0x01DD [0x6F] WAIT_FRAME_DELAY: Yield until WaitTime reaches zero
  4: 0x01DE [0x00] END_REQSTACK()
```

### Event 65535.15

#### Metadata

| Field        | Value    |
|--------------|----------|
| Entrypoint   | 0x01DF   |
| Data Size    | 18 bytes |
| Instructions | 6        |

```
      00 01 02 03 04 05 06 07  08 09 0A 0B 0C 0D 0E 0F
      -- -- -- -- -- -- -- --  -- -- -- -- -- -- -- --
01D0:                                               1C                 .
01E0: 11 80 32 22 80 1F 00 23  80 24 80 0D 80 1F 01 6F  ..2"...#.$.....o
01F0: 00                                                .               
```

#### Opcodes

```
  0: 0x01DF [0x1C] WAIT(30* ticks)
  1: 0x01E2 [0x32] ExtData[1]->MainSpeed = 37* * 0.1
  2: 0x01E5 [0x1F] MOVE_ENTITY: EventEntity moves to X=11.780*, Z=-13.345*, Y=1.999*
  3: 0x01ED [0x1F] MOVE_ENTITY: Update entity position (mode=1)
  4: 0x01EF [0x6F] WAIT_FRAME_DELAY: Yield until WaitTime reaches zero
  5: 0x01F0 [0x00] END_REQSTACK()
```

### Event 3506

#### Metadata

| Field        | Value   |
|--------------|---------|
| Entrypoint   | 0x01F1  |
| Data Size    | 1 bytes |
| Instructions | 1       |

```
      00 01 02 03 04 05 06 07  08 09 0A 0B 0C 0D 0E 0F
      -- -- -- -- -- -- -- --  -- -- -- -- -- -- -- --
01F0:    00                                              .              
```

#### Opcodes

```
  0: 0x01F1 [0x00] END_REQSTACK()
```

### Event 3507

#### Metadata

| Field        | Value   |
|--------------|---------|
| Entrypoint   | 0x01F2  |
| Data Size    | 1 bytes |
| Instructions | 1       |

```
      00 01 02 03 04 05 06 07  08 09 0A 0B 0C 0D 0E 0F
      -- -- -- -- -- -- -- --  -- -- -- -- -- -- -- --
01F0:       00                                            .             
```

#### Opcodes

```
  0: 0x01F2 [0x00] END_REQSTACK()
```

### Event 65535.16

#### Metadata

| Field        | Value    |
|--------------|----------|
| Entrypoint   | 0x01F3   |
| Data Size    | 11 bytes |
| Instructions | 3        |

```
      00 01 02 03 04 05 06 07  08 09 0A 0B 0C 0D 0E 0F
      -- -- -- -- -- -- -- --  -- -- -- -- -- -- -- --
01F0:          1F 00 08 17 09  17 0A 17 1F 01 00           ...........  
```

#### Opcodes

```
  0: 0x01F3 [0x1F] MOVE_ENTITY: EventEntity moves to X=Work_Zone_1700[8], Z=Work_Zone_1700[9], Y=Work_Zone_1700[10]
  1: 0x01FB [0x1F] MOVE_ENTITY: Update entity position (mode=1)
  2: 0x01FD [0x00] END_REQSTACK()
```

### Event 65535.17

#### Metadata

| Field        | Value   |
|--------------|---------|
| Entrypoint   | 0x01FE  |
| Data Size    | 4 bytes |
| Instructions | 2       |

```
      00 01 02 03 04 05 06 07  08 09 0A 0B 0C 0D 0E 0F
      -- -- -- -- -- -- -- --  -- -- -- -- -- -- -- --
01F0:                                            39 0B                9.
0200: 17 00                                             ..              
```

#### Opcodes

```
  0: 0x01FE [0x39] SET_ENTITY_DIRECTION(direction=Work_Zone_1700[11])
  1: 0x0201 [0x00] END_REQSTACK()
```
