# 17719602

## Common Data

| Field            | Value                         |
|------------------|-------------------------------|
| Zone             | Southern San d'Oria (ID: 230) |
| Block Size       | 3300 bytes                    |
| Total Events     | 6                             |
| References Count | 107                           |

## List of Events

| Event ID              | Entrypoint   |   Size |   Instructions |
|-----------------------|--------------|--------|----------------|
| [65535](#event-65535) | 0x0000       |      1 |              1 |
| [854](#event-854)     | 0x0001       |   1134 |            195 |
| [856](#event-856)     | 0x046F       |    976 |            180 |
| [857](#event-857)     | 0x083F       |    112 |             22 |
| [858](#event-858)     | 0x08AF       |    541 |             98 |
| [859](#event-859)     | 0x0ACC       |     66 |             12 |

## DAT References (imed_data)

|   Index | Hex Value   |   Dec Value |
|---------|-------------|-------------|
|       0 | 0x0021      |          33 |
|       1 | 0x2F06      |       12038 |
|       2 | 0x2F07      |       12039 |
|       3 | 0x2F08      |       12040 |
|       4 | 0x001E      |          30 |
|       5 | 0x2F09      |       12041 |
|       6 | 0x2F0A      |       12042 |
|       7 | 0x2F0B      |       12043 |
|       8 | 0x2F0C      |       12044 |
|       9 | 0x2F0D      |       12045 |
|      10 | 0x2F0E      |       12046 |
|      11 | 0x2F0F      |       12047 |
|      12 | 0x2F10      |       12048 |
|      13 | 0x2F11      |       12049 |
|      14 | 0x2F12      |       12050 |
|      15 | 0x2F13      |       12051 |
|      16 | 0x2F14      |       12052 |
|      17 | 0x2F15      |       12053 |
|      18 | 0x2F16      |       12054 |
|      19 | 0x2F17      |       12055 |
|      20 | 0x0000      |           0 |
|      21 | 0x2F18      |       12056 |
|      22 | 0x0001      |           1 |
|      23 | 0x2F1A      |       12058 |
|      24 | 0x2F1E      |       12062 |
|      25 | 0x1535      |        5429 |
|      26 | 0x0353      |         851 |
|      27 | 0x0354      |         852 |
|      28 | 0x2F1F      |       12063 |
|      29 | 0x2F20      |       12064 |
|      30 | 0x2F21      |       12065 |
|      31 | 0x2F22      |       12066 |
|      32 | 0x2F24      |       12068 |
|      33 | 0x2F25      |       12069 |
|      34 | 0x2F26      |       12070 |
|      35 | 0x2F27      |       12071 |
|      36 | 0x2F28      |       12072 |
|      37 | 0x0002      |           2 |
|      38 | 0x2F29      |       12073 |
|      39 | 0x2F2A      |       12074 |
|      40 | 0x2F2B      |       12075 |
|      41 | 0x2F2C      |       12076 |
|      42 | 0x2F2D      |       12077 |
|      43 | 0x2F2E      |       12078 |
|      44 | 0x2F2F      |       12079 |
|      45 | 0x2F30      |       12080 |
|      46 | 0x2F31      |       12081 |
|      47 | 0x0004      |           4 |
|      48 | 0x0003      |           3 |
|      49 | 0x2F32      |       12082 |
|      50 | 0x2F33      |       12083 |
|      51 | 0x2F34      |       12084 |
|      52 | 0x2F35      |       12085 |
|      53 | 0x0008      |           8 |
|      54 | 0x2F36      |       12086 |
|      55 | 0x2F37      |       12087 |
|      56 | 0x2F38      |       12088 |
|      57 | 0x2F39      |       12089 |
|      58 | 0x2F3A      |       12090 |
|      59 | 0x2F3B      |       12091 |
|      60 | 0x0010      |          16 |
|      61 | 0x001F      |          31 |
|      62 | 0x2F3C      |       12092 |
|      63 | 0x2F3D      |       12093 |
|      64 | 0x2F3E      |       12094 |
|      65 | 0x2F3F      |       12095 |
|      66 | 0x2F40      |       12096 |
|      67 | 0x2F41      |       12097 |
|      68 | 0x2F42      |       12098 |
|      69 | 0x2F43      |       12099 |
|      70 | 0x0181      |         385 |
|      71 | 0x0182      |         386 |
|      72 | 0x0183      |         387 |
|      73 | 0x2F1B      |       12059 |
|      74 | 0x2F1C      |       12060 |
|      75 | 0x2F1D      |       12061 |
|      76 | 0x2F19      |       12057 |
|      77 | 0x2F44      |       12100 |
|      78 | 0x2F45      |       12101 |
|      79 | 0x2F46      |       12102 |
|      80 | 0x2F54      |       12116 |
|      81 | 0x2F56      |       12118 |
|      82 | 0x2F57      |       12119 |
|      83 | 0x2F58      |       12120 |
|      84 | 0x2F5A      |       12122 |
|      85 | 0x2F55      |       12117 |
|      86 | 0x2F59      |       12121 |
|      87 | 0x2F5C      |       12124 |
|      88 | 0x2F5D      |       12125 |
|      89 | 0x2F60      |       12128 |
|      90 | 0x2F61      |       12129 |
|      91 | 0x2F5B      |       12123 |
|      92 | 0x2F5E      |       12126 |
|      93 | 0x2F5F      |       12127 |
|      94 | 0x0005      |           5 |
|      95 | 0x2F47      |       12103 |
|      96 | 0x2F4C      |       12108 |
|      97 | 0x2F4D      |       12109 |
|      98 | 0x2F4E      |       12110 |
|      99 | 0x2F4F      |       12111 |
|     100 | 0x2F4B      |       12107 |
|     101 | 0x2F48      |       12104 |
|     102 | 0x2F49      |       12105 |
|     103 | 0x2F4A      |       12106 |
|     104 | 0x2F50      |       12112 |
|     105 | 0x2F51      |       12113 |
|     106 | 0x2F52      |       12114 |

## String References

- **12056**: Give it a jimmie? [Aight!/Slock off!]
- **12063**: Wha' ya need to know? ['bout chocographs./'bout $1./'bout 'ow to fin' the loo'./'bout choc'bo 'bilities./'bout when the game is over.]
- **12101**: What might ya be needin'? [A rule refresher./Another fix./Nothing.]
- **12107**: Ya wan' t' 'ear that rule rot again? [Yes./No.]

## Events

### Event 65535

#### Metadata

| Field        | Value   |
|--------------|---------|
| Entrypoint   | 0x0000  |
| Data Size    | 1 bytes |
| Instructions | 1       |

```
      00 01 02 03 04 05 06 07  08 09 0A 0B 0C 0D 0E 0F
      -- -- -- -- -- -- -- --  -- -- -- -- -- -- -- --
0000: 00                                                .               
```

#### Opcodes

```
  0: 0x0000 [0x00] END_REQSTACK()
```

### Event 854

#### Metadata

| Field        | Value      |
|--------------|------------|
| Entrypoint   | 0x0001     |
| Data Size    | 1134 bytes |
| Instructions | 194        |

```
      00 01 02 03 04 05 06 07  08 09 0A 0B 0C 0D 0E 0F
      -- -- -- -- -- -- -- --  -- -- -- -- -- -- -- --
0000:    42 4A 33 61 0E 01 F0  FF FF 7F 66 00 80 33 61   BJ3a......f..3a
0010: 0E 01 33 61 0E 01 74 6C  62 30 2B 33 61 0E 01 01  ..3a..tlb0+3a...
0020: 80 23 66 00 80 33 61 0E  01 33 61 0E 01 74 6C 62  .#f..3a..3a..tlb
0030: 31 2B 33 61 0E 01 02 80  23 66 00 80 33 61 0E 01  1+3a....#f..3a..
0040: 33 61 0E 01 74 6C 62 30  2B 33 61 0E 01 03 80 23  3a..tlb0+3a....#
0050: 66 00 80 33 61 0E 01 33  61 0E 01 74 6C 62 31 66  f..3a..3a..tlb1f
0060: 04 80 33 61 0E 01 33 61  0E 01 74 68 6B 31 2B 33  ..3a..3a..thk1+3
0070: 61 0E 01 05 80 23 2B 33  61 0E 01 06 80 23 2B 33  a....#+3a....#+3
0080: 61 0E 01 07 80 23 2B 33  61 0E 01 08 80 23 2B 33  a....#+3a....#+3
0090: 61 0E 01 09 80 23 66 04  80 33 61 0E 01 33 61 0E  a....#f..3a..3a.
00A0: 01 74 68 6B 32 2B 33 61  0E 01 0A 80 23 66 00 80  .thk2+3a....#f..
00B0: 33 61 0E 01 33 61 0E 01  74 6C 62 30 2B 33 61 0E  3a..3a..tlb0+3a.
00C0: 01 0B 80 23 2B 33 61 0E  01 0C 80 23 2B 33 61 0E  ...#+3a....#+3a.
00D0: 01 0D 80 23 2B 33 61 0E  01 0E 80 23 66 00 80 33  ...#+3a....#f..3
00E0: 61 0E 01 33 61 0E 01 74  6C 62 31 66 00 80 33 61  a..3a..tlb1f..3a
00F0: 0E 01 33 61 0E 01 74 6C  62 30 2B 33 61 0E 01 0F  ..3a..tlb0+3a...
0100: 80 23 2B 33 61 0E 01 10  80 23 2B 33 61 0E 01 11  .#+3a....#+3a...
0110: 80 23 2B 33 61 0E 01 12  80 23 66 00 80 33 61 0E  .#+3a....#f..3a.
0120: 01 33 61 0E 01 74 6C 62  31 66 00 80 33 61 0E 01  .3a..tlb1f..3a..
0130: 33 61 0E 01 74 6C 62 30  2B 33 61 0E 01 13 80 23  3a..tlb0+3a....#
0140: 66 00 80 33 61 0E 01 33  61 0E 01 74 6C 62 31 03  f..3a..3a..tlb1.
0150: 01 10 14 80 24 15 80 14  80 14 80 25 02 00 10 14  ....$......%....
0160: 80 00 A3 01 02 09 10 16  80 00 6F 01 01 72 01 01  ..........o..r..
0170: 14 04 66 00 80 33 61 0E  01 33 61 0E 01 74 6C 62  ..f..3a..3a..tlb
0180: 30 2B 33 61 0E 01 17 80  23 2B 33 61 0E 01 18 80  0+3a....#+3a....
0190: 23 66 00 80 33 61 0E 01  33 61 0E 01 74 6C 62 31  #f..3a..3a..tlb1
01A0: 01 B1 01 02 00 10 16 80  00 B1 01 01 60 04 01 B1  ............`...
01B0: 01 03 03 10 19 80 03 04  10 1A 80 03 05 10 1B 80  ................
01C0: 24 1C 80 14 80 00 00 25  02 00 10 14 80 00 16 02  $......%........
01D0: 66 00 80 33 61 0E 01 33  61 0E 01 74 6C 62 30 2B  f..3a..3a..tlb0+
01E0: 33 61 0E 01 1D 80 23 2B  33 61 0E 01 1E 80 23 2B  3a....#+3a....#+
01F0: 33 61 0E 01 1F 80 23 2B  33 61 0E 01 20 80 23 66  3a....#+3a.. .#f
0200: 00 80 33 61 0E 01 33 61  0E 01 74 6C 62 31 0E 00  ..3a..3a..tlb1..
0210: 00 16 80 01 86 03 02 00  10 16 80 00 64 02 66 00  ............d.f.
0220: 80 33 61 0E 01 33 61 0E  01 74 6C 62 30 2B 33 61  .3a..3a..tlb0+3a
0230: 0E 01 21 80 23 2B 33 61  0E 01 22 80 23 2B 33 61  ..!.#+3a..".#+3a
0240: 0E 01 23 80 23 2B 33 61  0E 01 24 80 23 66 00 80  ..#.#+3a..$.#f..
0250: 33 61 0E 01 33 61 0E 01  74 6C 62 31 0E 00 00 25  3a..3a..tlb1...%
0260: 80 01 86 03 02 00 10 25  80 00 DA 02 66 00 80 33  .......%....f..3
0270: 61 0E 01 33 61 0E 01 74  6C 62 30 2B 33 61 0E 01  a..3a..tlb0+3a..
0280: 26 80 23 2B 33 61 0E 01  27 80 23 2B 33 61 0E 01  &.#+3a..'.#+3a..
0290: 28 80 23 2B 33 61 0E 01  29 80 23 2B 33 61 0E 01  (.#+3a..).#+3a..
02A0: 2A 80 23 2B 33 61 0E 01  2B 80 23 2B 33 61 0E 01  *.#+3a..+.#+3a..
02B0: 2C 80 23 2B 33 61 0E 01  2D 80 23 2B 33 61 0E 01  ,.#+3a..-.#+3a..
02C0: 2E 80 23 66 00 80 33 61  0E 01 33 61 0E 01 74 6C  ..#f..3a..3a..tl
02D0: 62 31 0E 00 00 2F 80 01  86 03 02 00 10 30 80 00  b1.../.......0..
02E0: 28 03 66 00 80 33 61 0E  01 33 61 0E 01 74 6C 62  (.f..3a..3a..tlb
02F0: 30 2B 33 61 0E 01 31 80  23 2B 33 61 0E 01 32 80  0+3a..1.#+3a..2.
0300: 23 2B 33 61 0E 01 33 80  23 2B 33 61 0E 01 34 80  #+3a..3.#+3a..4.
0310: 23 66 00 80 33 61 0E 01  33 61 0E 01 74 6C 62 31  #f..3a..3a..tlb1
0320: 0E 00 00 35 80 01 86 03  02 00 10 2F 80 00 86 03  ...5......./....
0330: 66 00 80 33 61 0E 01 33  61 0E 01 74 6C 62 30 2B  f..3a..3a..tlb0+
0340: 33 61 0E 01 36 80 23 2B  33 61 0E 01 37 80 23 2B  3a..6.#+3a..7.#+
0350: 33 61 0E 01 38 80 23 2B  33 61 0E 01 39 80 23 2B  3a..8.#+3a..9.#+
0360: 33 61 0E 01 3A 80 23 2B  33 61 0E 01 3B 80 23 66  3a..:.#+3a..;.#f
0370: 00 80 33 61 0E 01 33 61  0E 01 74 6C 62 31 0E 00  ..3a..3a..tlb1..
0380: 00 3C 80 01 86 03 02 00  00 3D 80 01 91 03 01 B1  .<.......=......
0390: 01 66 00 80 33 61 0E 01  33 61 0E 01 74 6C 62 30  .f..3a..3a..tlb0
03A0: 2B 33 61 0E 01 3E 80 23  2B 33 61 0E 01 3F 80 23  +3a..>.#+3a..?.#
03B0: 2B 33 61 0E 01 40 80 23  2B 33 61 0E 01 41 80 23  +3a..@.#+3a..A.#
03C0: 2B 33 61 0E 01 42 80 23  2B 33 61 0E 01 43 80 23  +3a..B.#+3a..C.#
03D0: 66 00 80 33 61 0E 01 33  61 0E 01 74 6C 62 31 66  f..3a..3a..tlb1f
03E0: 00 80 33 61 0E 01 33 61  0E 01 74 6C 62 30 2B 33  ..3a..3a..tlb0+3
03F0: 61 0E 01 44 80 23 2B 33  61 0E 01 45 80 23 66 00  a..D.#+3a..E.#f.
0400: 80 33 61 0E 01 33 61 0E  01 74 6C 62 31 03 01 10  .3a..3a..tlb1...
0410: 16 80 21 00 03 03 10 46  80 03 04 10 47 80 03 05  ..!....F....G...
0420: 10 48 80 66 00 80 33 61  0E 01 33 61 0E 01 74 6C  .H.f..3a..3a..tl
0430: 62 30 2B 33 61 0E 01 49  80 23 2B 33 61 0E 01 4A  b0+3a..I.#+3a..J
0440: 80 23 2B 33 61 0E 01 4B  80 23 66 00 80 33 61 0E  .#+3a..K.#f..3a.
0450: 01 33 61 0E 01 74 6C 62  31 03 01 10 14 80 21 00  .3a..tlb1.....!.
0460: 2B 33 61 0E 01 4C 80 23  03 01 10 14 80 21 00     +3a..L.#.....!. 
```

#### Opcodes

```
  0: 0x0001 [0x42] SET_CLI_EVENT_CANCEL_DATA()
  1: 0x0002 [0x4A] Collione (ID: 17719603/0x010E6133) looks at LocalPlayer
  2: 0x000B [0x66] LOAD_EXT_SCHEDULER_MAIN: Load scheduler "tlb0" with entities [Collione (ID: 17719603/0x010E6133), Collione (ID: 17719603/0x010E6133)], work=33*
  3: 0x001A [0x2B] Collione (ID: 17719603/0x010E6133) [12038*]:
    → "Psst! (Wou' ya like me t' le' you in on a lit'le secret? Yer poor choc'bo up an' keeled over last week, bu' the stable 'ands jus' replaced it wi' another one, 'oping tha' ya wou'n't notice!)"
  4: 0x0021 [0x23] WAIT_FOR_DIALOG_INTERACTION
  5: 0x0022 [0x66] LOAD_EXT_SCHEDULER_MAIN: Load scheduler "tlb1" with entities [Collione (ID: 17719603/0x010E6133), Collione (ID: 17719603/0x010E6133)], work=33*
  6: 0x0031 [0x2B] Collione (ID: 17719603/0x010E6133) [12039*]:
    → "............ Ah, I'm jus' pullin' yer leg, [guv'na/mis'us]! Bu' really, I go' some ripe news for ya."
  7: 0x0038 [0x23] WAIT_FOR_DIALOG_INTERACTION
  8: 0x0039 [0x66] LOAD_EXT_SCHEDULER_MAIN: Load scheduler "tlb0" with entities [Collione (ID: 17719603/0x010E6133), Collione (ID: 17719603/0x010E6133)], work=33*
  9: 0x0048 [0x2B] Collione (ID: 17719603/0x010E6133) [12040*]:
    → "The bobbies down at the VCS thunk up this mighty keen ac'tiv'ty. They calls it the Choc'bo Ho' an' Cold Game. Sounds like a winner, eh?"
 10: 0x004F [0x23] WAIT_FOR_DIALOG_INTERACTION
 11: 0x0050 [0x66] LOAD_EXT_SCHEDULER_MAIN: Load scheduler "tlb1" with entities [Collione (ID: 17719603/0x010E6133), Collione (ID: 17719603/0x010E6133)], work=33*
 12: 0x005F [0x66] LOAD_EXT_SCHEDULER_MAIN: Load scheduler "thk1" with entities [Collione (ID: 17719603/0x010E6133), Collione (ID: 17719603/0x010E6133)], work=30*
 13: 0x006E [0x2B] Collione (ID: 17719603/0x010E6133) [12041*]:
    → "Listens up, and I'll tell ya all abou' it."
 14: 0x0075 [0x23] WAIT_FOR_DIALOG_INTERACTION
 15: 0x0076 [0x2B] Collione (ID: 17719603/0x010E6133) [12042*]:
    → "Ya see, it seems like ev'ry Richie and his sis'er go' themselfs a choc'bo. While that's all peaches an' kit'ens for the gysahl green grocer, th' extra work load is wreakin' 'avoc on the skirts down at the stables."
 16: 0x007D [0x23] WAIT_FOR_DIALOG_INTERACTION
 17: 0x007E [0x2B] Collione (ID: 17719603/0x010E6133) [12043*]:
    → "I even been 'earin' rumors tha' they jus' leave mos' of the birdies tied up in their pens, 'cause they don' 'ave the time t' le' 'em ou'."
 18: 0x0085 [0x23] WAIT_FOR_DIALOG_INTERACTION
 19: 0x0086 [0x2B] Collione (ID: 17719603/0x010E6133) [12044*]:
    → "Some o' the weaker ones can' even walk three steps wit'out fallin' on their bloody bums."
 20: 0x008D [0x23] WAIT_FOR_DIALOG_INTERACTION
 21: 0x008E [0x2B] Collione (ID: 17719603/0x010E6133) [12045*]:
    → "Wha' I'm get'in' at is, if we don' do somefin' quick, we'll be up t' our knickers in yellow-feathered invalids!"
 22: 0x0095 [0x23] WAIT_FOR_DIALOG_INTERACTION
 23: 0x0096 [0x66] LOAD_EXT_SCHEDULER_MAIN: Load scheduler "thk2" with entities [Collione (ID: 17719603/0x010E6133), Collione (ID: 17719603/0x010E6133)], work=30*
 24: 0x00A5 [0x2B] Collione (ID: 17719603/0x010E6133) [12046*]:
    → "An' that's why the VCS pu' its noggin' t' the cobblestones an' came up wit' this shaggy ho' an' cold game."
 25: 0x00AC [0x23] WAIT_FOR_DIALOG_INTERACTION
 26: 0x00AD [0x66] LOAD_EXT_SCHEDULER_MAIN: Load scheduler "tlb0" with entities [Collione (ID: 17719603/0x010E6133), Collione (ID: 17719603/0x010E6133)], work=33*
 27: 0x00BC [0x2B] Collione (ID: 17719603/0x010E6133) [12047*]:
    → "Alls you 'ave t' do is find the time in yer 'ectic day t' take 'er out for a spin aroun' the commons."
 28: 0x00C3 [0x23] WAIT_FOR_DIALOG_INTERACTION
 29: 0x00C4 [0x2B] Collione (ID: 17719603/0x010E6133) [12048*]:
    → "An' then, while yer ridin', jus' stop an' dig every now an' again t' find the sparklin' riches we gone an' buried!"
 30: 0x00CB [0x23] WAIT_FOR_DIALOG_INTERACTION
 31: 0x00CC [0x2B] Collione (ID: 17719603/0x010E6133) [12049*]:
    → "Yer 'bo gets t' exe'cise, and you get t' line yer pock'ets wit' gelt. Why, that's like knockin' off a couple o' magpies wit' one stone!"
 32: 0x00D3 [0x23] WAIT_FOR_DIALOG_INTERACTION
 33: 0x00D4 [0x2B] Collione (ID: 17719603/0x010E6133) [12050*]:
    → "If no' do it fer yerself, at leas' do it for the poor bird sittin' there starvin' in its lit'le pen, all cold an' alone."
 34: 0x00DB [0x23] WAIT_FOR_DIALOG_INTERACTION
 35: 0x00DC [0x66] LOAD_EXT_SCHEDULER_MAIN: Load scheduler "tlb1" with entities [Collione (ID: 17719603/0x010E6133), Collione (ID: 17719603/0x010E6133)], work=33*
 36: 0x00EB [0x66] LOAD_EXT_SCHEDULER_MAIN: Load scheduler "tlb0" with entities [Collione (ID: 17719603/0x010E6133), Collione (ID: 17719603/0x010E6133)], work=33*
 37: 0x00FA [0x2B] Collione (ID: 17719603/0x010E6133) [12051*]:
    → "Yer 'bo'll thank ya, the stable 'ands'll thank ya, and your dear old mum'll thank ya."
 38: 0x0101 [0x23] WAIT_FOR_DIALOG_INTERACTION
 39: 0x0102 [0x2B] Collione (ID: 17719603/0x010E6133) [12052*]:
    → "The lads at the VCS 'ave been workin' their 'aggies to the bone 'idin' chest after chest 'cross the bloody shires an' mires of Quon an' Mindartia--all for you t' find and pock'et."
 40: 0x0109 [0x23] WAIT_FOR_DIALOG_INTERACTION
 41: 0x010A [0x2B] Collione (ID: 17719603/0x010E6133) [12053*]:
    → "You'd 'ave t' be nut'ier than a squirrel factory t' pass this fine op'ortunity up!"
 42: 0x0111 [0x23] WAIT_FOR_DIALOG_INTERACTION
 43: 0x0112 [0x2B] Collione (ID: 17719603/0x010E6133) [12054*]:
    → "So, wha' do ya say?"
 44: 0x0119 [0x23] WAIT_FOR_DIALOG_INTERACTION
 45: 0x011A [0x66] LOAD_EXT_SCHEDULER_MAIN: Load scheduler "tlb1" with entities [Collione (ID: 17719603/0x010E6133), Collione (ID: 17719603/0x010E6133)], work=33*
 46: 0x0129 [0x66] LOAD_EXT_SCHEDULER_MAIN: Load scheduler "tlb0" with entities [Collione (ID: 17719603/0x010E6133), Collione (ID: 17719603/0x010E6133)], work=33*
 47: 0x0138 [0x2B] Collione (ID: 17719603/0x010E6133) [12055*]:
    → "Are ya goin' t' le' ev'rybo'y down by bein' spoilt cheese, or are ya goin' t' give 'ot an' cold a jimmie?"
 48: 0x013F [0x23] WAIT_FOR_DIALOG_INTERACTION
 49: 0x0140 [0x66] LOAD_EXT_SCHEDULER_MAIN: Load scheduler "tlb1" with entities [Collione (ID: 17719603/0x010E6133), Collione (ID: 17719603/0x010E6133)], work=33*
 50: 0x014F [0x03] Work_Zone[1] = 0*
 51: 0x0154 [0x24] CREATE_DIALOG(message_id=12056*, default_option=0*, option_flags=0*)
    → "Give it a jimmie? [Aight!/Slock off!]"
 52: 0x015B [0x25] WAIT_DIALOG_SELECT()
 53: 0x015C [0x02] IF !(Work_Zone[0] == 0*) GOTO 0x01A3
 54: 0x0164 [0x02] IF !(Work_Zone[9] == 1*) GOTO 0x016F
 55: 0x016C [0x01] GOTO 0x0172
 56: 0x016F [0x01] GOTO 0x0414

SUBROUTINE_0172:
 57: 0x0172 [0x66] LOAD_EXT_SCHEDULER_MAIN: Load scheduler "tlb0" with entities [Collione (ID: 17719603/0x010E6133), Collione (ID: 17719603/0x010E6133)], work=33*
 58: 0x0181 [0x2B] Collione (ID: 17719603/0x010E6133) [12058*]:
    → "Spo'en like a true seeker of a'ven'ure!"
 59: 0x0188 [0x23] WAIT_FOR_DIALOG_INTERACTION
 60: 0x0189 [0x2B] Collione (ID: 17719603/0x010E6133) [12062*]:
    → "Now, the VCS says I got t' give ya the lowdown on the rules before I se' ya on yer way, so bear wit' me, aight?"
 61: 0x0190 [0x23] WAIT_FOR_DIALOG_INTERACTION
 62: 0x0191 [0x66] LOAD_EXT_SCHEDULER_MAIN: Load scheduler "tlb1" with entities [Collione (ID: 17719603/0x010E6133), Collione (ID: 17719603/0x010E6133)], work=33*
 63: 0x01A0 [0x01] GOTO 0x01B1
 64: 0x01A3 [0x02] IF !(Work_Zone[0] == 1*) GOTO 0x01B1
 65: 0x01AB [0x01] GOTO 0x0460

SUBROUTINE_01B1:
 66: 0x01B1 [0x03] Work_Zone[3] = 5429*
 67: 0x01B6 [0x03] Work_Zone[4] = 851*
 68: 0x01BB [0x03] Work_Zone[5] = 852*
 69: 0x01C0 [0x24] CREATE_DIALOG(message_id=12063*, default_option=0*, option_flags=ExtData[1]->WorkLocal[0])
    → "Wha' ya need to know? ['bout chocographs./'bout $1./'bout 'ow to fin' the loo'./'bout choc'bo 'bilities./'bout when the game is over.]"
 70: 0x01C7 [0x25] WAIT_DIALOG_SELECT()
 71: 0x01C8 [0x02] IF !(Work_Zone[0] == 0*) GOTO 0x0216
 72: 0x01D0 [0x66] LOAD_EXT_SCHEDULER_MAIN: Load scheduler "tlb0" with entities [Collione (ID: 17719603/0x010E6133), Collione (ID: 17719603/0x010E6133)], work=33*
 73: 0x01DF [0x2B] Collione (ID: 17719603/0x010E6133) [12064*]:
    → "Any [Jefferson/Jennie] who wants t' participate in the Choc'bo 'ot an' Cold Game will need a special chocograph auforizin' ['im/'er] t' dig in a cer'ain area."
 74: 0x01E6 [0x23] WAIT_FOR_DIALOG_INTERACTION
 75: 0x01E7 [0x2B] Collione (ID: 17719603/0x010E6133) [12065*]:
    → "There're all kinds of graphs for all kinds of shinies loca'ed in lots all over Vana'diel."
 76: 0x01EE [0x23] WAIT_FOR_DIALOG_INTERACTION
 77: 0x01EF [0x2B] Collione (ID: 17719603/0x010E6133) [12066*]:
    → "An' the best part is, once ya got one, it's yers 'til yer bluer than a bobbin."
 78: 0x01F6 [0x23] WAIT_FOR_DIALOG_INTERACTION
 79: 0x01F7 [0x2B] Collione (ID: 17719603/0x010E6133) [12068*]:
    → "Well, no worries, chap, I've go' two right 'ere for ya, free o' charge!"
 80: 0x01FE [0x23] WAIT_FOR_DIALOG_INTERACTION
 81: 0x01FF [0x66] LOAD_EXT_SCHEDULER_MAIN: Load scheduler "tlb1" with entities [Collione (ID: 17719603/0x010E6133), Collione (ID: 17719603/0x010E6133)], work=33*
 82: 0x020E [0x0E] ExtData[1]->WorkLocal[0] |= 1*
 83: 0x0213 [0x01] GOTO 0x0386
 84: 0x0216 [0x02] IF !(Work_Zone[0] == 1*) GOTO 0x0264
 85: 0x021E [0x66] LOAD_EXT_SCHEDULER_MAIN: Load scheduler "tlb0" with entities [Collione (ID: 17719603/0x010E6133), Collione (ID: 17719603/0x010E6133)], work=33*
 86: 0x022D [0x2B] Collione (ID: 17719603/0x010E6133) [12069*]:
    → "$1 is the it'm you'll need t' star' the game."
 87: 0x0234 [0x23] WAIT_FOR_DIALOG_INTERACTION
 88: 0x0235 [0x2B] Collione (ID: 17719603/0x010E6133) [12070*]:
    → "Jus' drop one on the ground in an area 'scribed on one o' yer chocographs an' turn 'round three times widdershins. In a mat'er of sec'nds, yer noble steed'll be shov'lin' down those greens faster 'an you can say poppycockins! Simple as 'at!"
 89: 0x023C [0x23] WAIT_FOR_DIALOG_INTERACTION
 90: 0x023D [0x2B] Collione (ID: 17719603/0x010E6133) [12071*]:
    → "Once yer 'bo's finished dinin', yer map'll open and you can check the gen'ral location of the sparkly."
 91: 0x0244 [0x23] WAIT_FOR_DIALOG_INTERACTION
 92: 0x0245 [0x2B] Collione (ID: 17719603/0x010E6133) [12072*]:
    → "Oh, jus' don' forge' tha' you can only use $1 once, and you'll 'ave t' come back t' me if ya wan' another."
 93: 0x024C [0x23] WAIT_FOR_DIALOG_INTERACTION
 94: 0x024D [0x66] LOAD_EXT_SCHEDULER_MAIN: Load scheduler "tlb1" with entities [Collione (ID: 17719603/0x010E6133), Collione (ID: 17719603/0x010E6133)], work=33*
 95: 0x025C [0x0E] ExtData[1]->WorkLocal[0] |= 2*
 96: 0x0261 [0x01] GOTO 0x0386
 97: 0x0264 [0x02] IF !(Work_Zone[0] == 2*) GOTO 0x02DA
 98: 0x026C [0x66] LOAD_EXT_SCHEDULER_MAIN: Load scheduler "tlb0" with entities [Collione (ID: 17719603/0x010E6133), Collione (ID: 17719603/0x010E6133)], work=33*
 99: 0x027B [0x2B] Collione (ID: 17719603/0x010E6133) [12073*]:
    → "Ah, the loo'. I can smell it from 'ere... Well, first ya ride yer 'bo out to the location marked on yer map."
100: 0x0282 [0x23] WAIT_FOR_DIALOG_INTERACTION
101: 0x0283 [0x2B] Collione (ID: 17719603/0x010E6133) [12074*]:
    → "When ya think ya migh' be close, tell yer bird t' dig a spell."
102: 0x028A [0x23] WAIT_FOR_DIALOG_INTERACTION
103: 0x028B [0x2B] Collione (ID: 17719603/0x010E6133) [12075*]:
    → "When he's done pe'kin' take a goo' lis'en. Chances are 'e'll squawk somefin' righ' dandy."
104: 0x0292 [0x23] WAIT_FOR_DIALOG_INTERACTION
105: 0x0293 [0x2B] Collione (ID: 17719603/0x010E6133) [12076*]:
    → "Dependin' on the distance ya're from the riches, the reaction of yer bird'll change."
106: 0x029A [0x23] WAIT_FOR_DIALOG_INTERACTION
107: 0x029B [0x2B] Collione (ID: 17719603/0x010E6133) [12077*]:
    → "When ya think yer on top of the tipper..."
108: 0x02A2 [0x23] WAIT_FOR_DIALOG_INTERACTION
109: 0x02A3 [0x2B] Collione (ID: 17719603/0x010E6133) [12078*]:
    → "...crack yer whip an' get yer 'bo's 'ead bobbin'."
110: 0x02AA [0x23] WAIT_FOR_DIALOG_INTERACTION
111: 0x02AB [0x2B] Collione (ID: 17719603/0x010E6133) [12079*]:
    → "Jus' remember tha' some treasure's buried quite deep, so ya may need a 'alf-a-dozen digs t' reach it."
112: 0x02B2 [0x23] WAIT_FOR_DIALOG_INTERACTION
113: 0x02B3 [0x2B] Collione (ID: 17719603/0x010E6133) [12080*]:
    → "But if ya tough it ou', you'll 'ventually come 'cross a lovely chest."
114: 0x02BA [0x23] WAIT_FOR_DIALOG_INTERACTION
115: 0x02BB [0x2B] Collione (ID: 17719603/0x010E6133) [12081*]:
    → "Then alls you 'ave t' do is open it an' move the loo' t' yer gobbinbag all proper-like."
116: 0x02C2 [0x23] WAIT_FOR_DIALOG_INTERACTION
117: 0x02C3 [0x66] LOAD_EXT_SCHEDULER_MAIN: Load scheduler "tlb1" with entities [Collione (ID: 17719603/0x010E6133), Collione (ID: 17719603/0x010E6133)], work=33*
118: 0x02D2 [0x0E] ExtData[1]->WorkLocal[0] |= 4*
119: 0x02D7 [0x01] GOTO 0x0386
120: 0x02DA [0x02] IF !(Work_Zone[0] == 3*) GOTO 0x0328
121: 0x02E2 [0x66] LOAD_EXT_SCHEDULER_MAIN: Load scheduler "tlb0" with entities [Collione (ID: 17719603/0x010E6133), Collione (ID: 17719603/0x010E6133)], work=33*
122: 0x02F1 [0x2B] Collione (ID: 17719603/0x010E6133) [12082*]:
    → "T' guarantee an 'appy 'ot 'an cold ex'perience, you'll wan' t' know how choc'bo 'bilities can make it easier t' get yer 'ands on the prize."
123: 0x02F8 [0x23] WAIT_FOR_DIALOG_INTERACTION
124: 0x02F9 [0x2B] Collione (ID: 17719603/0x010E6133) [12083*]:
    → "The ones tha'll 'elp you most are "Treasure Finder," "Burrow," an' "Bore.""
125: 0x0300 [0x23] WAIT_FOR_DIALOG_INTERACTION
126: 0x0301 [0x2B] Collione (ID: 17719603/0x010E6133) [12084*]:
    → "Burrow an' Bore'll 'llow ya t' go a dolly deeper wit' each dig, helping you reach the chest 'fore yer bird grows all snoozy."
127: 0x0308 [0x23] WAIT_FOR_DIALOG_INTERACTION
128: 0x0309 [0x2B] Collione (ID: 17719603/0x010E6133) [12085*]:
    → "Treasure Finder'll 'elp you scrag the treasure easier by polishin' yer 'bo's sense of smellin'."
129: 0x0310 [0x23] WAIT_FOR_DIALOG_INTERACTION
130: 0x0311 [0x66] LOAD_EXT_SCHEDULER_MAIN: Load scheduler "tlb1" with entities [Collione (ID: 17719603/0x010E6133), Collione (ID: 17719603/0x010E6133)], work=33*
131: 0x0320 [0x0E] ExtData[1]->WorkLocal[0] |= 8*
132: 0x0325 [0x01] GOTO 0x0386
133: 0x0328 [0x02] IF !(Work_Zone[0] == 4*) GOTO 0x0386
134: 0x0330 [0x66] LOAD_EXT_SCHEDULER_MAIN: Load scheduler "tlb0" with entities [Collione (ID: 17719603/0x010E6133), Collione (ID: 17719603/0x010E6133)], work=33*
135: 0x033F [0x2B] Collione (ID: 17719603/0x010E6133) [12086*]:
    → "Ah, now this is the mos' im'portan' thing I'll be tellin' ya, so lend me yer ear for a spell, aight?"
136: 0x0346 [0x23] WAIT_FOR_DIALOG_INTERACTION
137: 0x0347 [0x2B] Collione (ID: 17719603/0x010E6133) [12087*]:
    → "Choc'bos are quite dapper diggers, but all that bobbin' o' the neck does quite a number on their crookid lit'le spines."
138: 0x034E [0x23] WAIT_FOR_DIALOG_INTERACTION
139: 0x034F [0x2B] Collione (ID: 17719603/0x010E6133) [12088*]:
    → "When yer bo's 'ad enough, 'e'll le' ya know by up an' refusin' t' dig anymore."
140: 0x0356 [0x23] WAIT_FOR_DIALOG_INTERACTION
141: 0x0357 [0x2B] Collione (ID: 17719603/0x010E6133) [12089*]:
    → "If this 'appens, it means the fun's over 'til the morrow, mate. 'op off yer bird an' le' 'im rest a while."
142: 0x035E [0x23] WAIT_FOR_DIALOG_INTERACTION
143: 0x035F [0x2B] Collione (ID: 17719603/0x010E6133) [12090*]:
    → "Ya see, the key t' lolly huntin' is keepin' yer 'bo chipper by reducin' the number times ya make 'im dig."
144: 0x0366 [0x23] WAIT_FOR_DIALOG_INTERACTION
145: 0x0367 [0x2B] Collione (ID: 17719603/0x010E6133) [12091*]:
    → "Ya followin' me?"
146: 0x036E [0x23] WAIT_FOR_DIALOG_INTERACTION
147: 0x036F [0x66] LOAD_EXT_SCHEDULER_MAIN: Load scheduler "tlb1" with entities [Collione (ID: 17719603/0x010E6133), Collione (ID: 17719603/0x010E6133)], work=33*
148: 0x037E [0x0E] ExtData[1]->WorkLocal[0] |= 16*
149: 0x0383 [0x01] GOTO 0x0386

SUBROUTINE_0386:
150: 0x0386 [0x02] IF !(ExtData[1]->WorkLocal[0] == 31*) GOTO 0x0391
151: 0x038E [0x01] GOTO 0x01B1
152: 0x0391 [0x66] LOAD_EXT_SCHEDULER_MAIN: Load scheduler "tlb0" with entities [Collione (ID: 17719603/0x010E6133), Collione (ID: 17719603/0x010E6133)], work=33*
153: 0x03A0 [0x2B] Collione (ID: 17719603/0x010E6133) [12092*]:
    → "Well, tha' was fun, wasn' it?"
154: 0x03A7 [0x23] WAIT_FOR_DIALOG_INTERACTION
155: 0x03A8 [0x2B] Collione (ID: 17719603/0x010E6133) [12093*]:
    → "Now I be' yer ready to get star'ed, righ'?"
156: 0x03AF [0x23] WAIT_FOR_DIALOG_INTERACTION
157: 0x03B0 [0x2B] Collione (ID: 17719603/0x010E6133) [12094*]:
    → "'ere are the $3 an' the $3 I promised."
158: 0x03B7 [0x23] WAIT_FOR_DIALOG_INTERACTION
159: 0x03B8 [0x2B] Collione (ID: 17719603/0x010E6133) [12095*]:
    → "An' 'ere's the $1."
160: 0x03BF [0x23] WAIT_FOR_DIALOG_INTERACTION
161: 0x03C0 [0x2B] Collione (ID: 17719603/0x010E6133) [12096*]:
    → "Remember, I can give you another clump when this one's gone."
162: 0x03C7 [0x23] WAIT_FOR_DIALOG_INTERACTION
163: 0x03C8 [0x2B] Collione (ID: 17719603/0x010E6133) [12097*]:
    → "'owever, you'll 'ave t' le' yer lit'le birdie rest a while 'fore I do."
164: 0x03CF [0x23] WAIT_FOR_DIALOG_INTERACTION
165: 0x03D0 [0x66] LOAD_EXT_SCHEDULER_MAIN: Load scheduler "tlb1" with entities [Collione (ID: 17719603/0x010E6133), Collione (ID: 17719603/0x010E6133)], work=33*
166: 0x03DF [0x66] LOAD_EXT_SCHEDULER_MAIN: Load scheduler "tlb0" with entities [Collione (ID: 17719603/0x010E6133), Collione (ID: 17719603/0x010E6133)], work=33*
167: 0x03EE [0x2B] Collione (ID: 17719603/0x010E6133) [12098*]:
    → "An' that's it! Off ya go, poppet!"
168: 0x03F5 [0x23] WAIT_FOR_DIALOG_INTERACTION
169: 0x03F6 [0x2B] Collione (ID: 17719603/0x010E6133) [12099*]:
    → "Goo' luck, and god'esspeed, aight?"
170: 0x03FD [0x23] WAIT_FOR_DIALOG_INTERACTION
171: 0x03FE [0x66] LOAD_EXT_SCHEDULER_MAIN: Load scheduler "tlb1" with entities [Collione (ID: 17719603/0x010E6133), Collione (ID: 17719603/0x010E6133)], work=33*
172: 0x040D [0x03] Work_Zone[1] = 1*
173: 0x0412 [0x21] END_EVENT
174: 0x0413 [0x00] END_REQSTACK()

SUBROUTINE_0414:
175: 0x0414 [0x03] Work_Zone[3] = 385*
176: 0x0419 [0x03] Work_Zone[4] = 386*
177: 0x041E [0x03] Work_Zone[5] = 387*
178: 0x0423 [0x66] LOAD_EXT_SCHEDULER_MAIN: Load scheduler "tlb0" with entities [Collione (ID: 17719603/0x010E6133), Collione (ID: 17719603/0x010E6133)], work=33*
179: 0x0432 [0x2B] Collione (ID: 17719603/0x010E6133) [12059*]:
    → "'old on a widget... You don' 'ave all three main maps, do ya?"
180: 0x0439 [0x23] WAIT_FOR_DIALOG_INTERACTION
181: 0x043A [0x2B] Collione (ID: 17719603/0x010E6133) [12060*]:
    → "Ya know the ones I'm talkin' 'bout--the $3, the $3, and the $3."
182: 0x0441 [0x23] WAIT_FOR_DIALOG_INTERACTION
183: 0x0442 [0x2B] Collione (ID: 17719603/0x010E6133) [12061*]:
    → "I'm sorry, love, but I can' 'elp ya out 'til you've got yer grubby grabbers on all three. Come back again when yer 'ooked up, aight?"
184: 0x0449 [0x23] WAIT_FOR_DIALOG_INTERACTION
185: 0x044A [0x66] LOAD_EXT_SCHEDULER_MAIN: Load scheduler "tlb1" with entities [Collione (ID: 17719603/0x010E6133), Collione (ID: 17719603/0x010E6133)], work=33*
186: 0x0459 [0x03] Work_Zone[1] = 0*
187: 0x045E [0x21] END_EVENT
188: 0x045F [0x00] END_REQSTACK()

SUBROUTINE_0460:
189: 0x0460 [0x2B] Collione (ID: 17719603/0x010E6133) [12057*]:
    → "You oughn't use that kin' o' lan'gage 'round a lady, sailor. Bu' I'll le' it go this time."
190: 0x0467 [0x23] WAIT_FOR_DIALOG_INTERACTION
191: 0x0468 [0x03] Work_Zone[1] = 0*
192: 0x046D [0x21] END_EVENT
193: 0x046E [0x00] END_REQSTACK()
```

#### Data or dead code:

```
# Dead code (unreachable instructions):
     0x01AE [0x01] GOTO 0x01B1
```

### Event 856

#### Metadata

| Field        | Value     |
|--------------|-----------|
| Entrypoint   | 0x046F    |
| Data Size    | 976 bytes |
| Instructions | 174       |

```
      00 01 02 03 04 05 06 07  08 09 0A 0B 0C 0D 0E 0F
      -- -- -- -- -- -- -- --  -- -- -- -- -- -- -- --
0460:                                               42                 B
0470: 03 03 10 19 80 4A 33 61  0E 01 F0 FF FF 7F 2B 33  .....J3a......+3
0480: 61 0E 01 4D 80 23 03 01  10 14 80 24 4E 80 14 80  a..M.#.....$N...
0490: 14 80 25 02 00 10 14 80  00 A4 04 1A 8A 06 01 86  ..%.............
04A0: 04 01 BD 04 02 00 10 16  80 00 AF 04 01 BD 04 02  ................
04B0: 00 10 25 80 00 BD 04 01  60 04 01 BD 04 02 09 10  ..%.....`.......
04C0: 16 80 80 23 05 66 00 80  33 61 0E 01 33 61 0E 01  ...#.f..3a..3a..
04D0: 74 6C 62 30 2B 33 61 0E  01 4F 80 23 2B 33 61 0E  tlb0+3a..O.#+3a.
04E0: 01 50 80 23 2B 33 61 0E  01 51 80 23 2B 33 61 0E  .P.#+3a..Q.#+3a.
04F0: 01 52 80 23 2B 33 61 0E  01 53 80 23 2B 33 61 0E  .R.#+3a..S.#+3a.
0500: 01 54 80 23 2B 33 61 0E  01 45 80 23 66 00 80 33  .T.#+3a..E.#f..3
0510: 61 0E 01 33 61 0E 01 74  6C 62 31 03 01 10 25 80  a..3a..tlb1...%.
0520: 01 88 06 02 09 10 25 80  80 89 05 66 00 80 33 61  ......%....f..3a
0530: 0E 01 33 61 0E 01 74 6C  62 30 2B 33 61 0E 01 4F  ..3a..tlb0+3a..O
0540: 80 23 2B 33 61 0E 01 55  80 23 2B 33 61 0E 01 51  .#+3a..U.#+3a..Q
0550: 80 23 2B 33 61 0E 01 52  80 23 2B 33 61 0E 01 56  .#+3a..R.#+3a..V
0560: 80 23 2B 33 61 0E 01 54  80 23 2B 33 61 0E 01 45  .#+3a..T.#+3a..E
0570: 80 23 66 00 80 33 61 0E  01 33 61 0E 01 74 6C 62  .#f..3a..3a..tlb
0580: 31 03 01 10 30 80 01 88  06 02 09 10 30 80 80 EF  1...0.......0...
0590: 05 66 00 80 33 61 0E 01  33 61 0E 01 74 6C 62 30  .f..3a..3a..tlb0
05A0: 2B 33 61 0E 01 4F 80 23  2B 33 61 0E 01 57 80 23  +3a..O.#+3a..W.#
05B0: 2B 33 61 0E 01 58 80 23  2B 33 61 0E 01 52 80 23  +3a..X.#+3a..R.#
05C0: 2B 33 61 0E 01 59 80 23  2B 33 61 0E 01 5A 80 23  +3a..Y.#+3a..Z.#
05D0: 2B 33 61 0E 01 45 80 23  66 00 80 33 61 0E 01 33  +3a..E.#f..3a..3
05E0: 61 0E 01 74 6C 62 31 03  01 10 2F 80 01 88 06 02  a..tlb1.../.....
05F0: 09 10 2F 80 80 55 06 66  00 80 33 61 0E 01 33 61  ../..U.f..3a..3a
0600: 0E 01 74 6C 62 30 2B 33  61 0E 01 4F 80 23 2B 33  ..tlb0+3a..O.#+3
0610: 61 0E 01 5B 80 23 2B 33  61 0E 01 58 80 23 2B 33  a..[.#+3a..X.#+3
0620: 61 0E 01 52 80 23 2B 33  61 0E 01 5C 80 23 2B 33  a..R.#+3a..\.#+3
0630: 61 0E 01 5D 80 23 2B 33  61 0E 01 45 80 23 66 00  a..].#+3a..E.#f.
0640: 80 33 61 0E 01 33 61 0E  01 74 6C 62 31 03 01 10  .3a..3a..tlb1...
0650: 5E 80 01 88 06 66 00 80  33 61 0E 01 33 61 0E 01  ^....f..3a..3a..
0660: 74 6C 62 30 2B 33 61 0E  01 4F 80 23 2B 33 61 0E  tlb0+3a..O.#+3a.
0670: 01 5F 80 23 66 00 80 33  61 0E 01 33 61 0E 01 74  ._.#f..3a..3a..t
0680: 6C 62 31 03 01 10 16 80  21 00 03 03 10 19 80 03  lb1.....!.......
0690: 04 10 1A 80 03 05 10 1B  80 24 1C 80 14 80 14 80  .........$......
06A0: 25 02 00 10 14 80 00 E2  06 66 00 80 33 61 0E 01  %........f..3a..
06B0: 33 61 0E 01 74 6C 62 30  2B 33 61 0E 01 1D 80 23  3a..tlb0+3a....#
06C0: 2B 33 61 0E 01 1E 80 23  2B 33 61 0E 01 1F 80 23  +3a....#+3a....#
06D0: 66 00 80 33 61 0E 01 33  61 0E 01 74 6C 62 31 01  f..3a..3a..tlb1.
06E0: 3E 08 02 00 10 16 80 00  2B 07 66 00 80 33 61 0E  >.......+.f..3a.
06F0: 01 33 61 0E 01 74 6C 62  30 2B 33 61 0E 01 21 80  .3a..tlb0+3a..!.
0700: 23 2B 33 61 0E 01 22 80  23 2B 33 61 0E 01 23 80  #+3a..".#+3a..#.
0710: 23 2B 33 61 0E 01 24 80  23 66 00 80 33 61 0E 01  #+3a..$.#f..3a..
0720: 33 61 0E 01 74 6C 62 31  01 3E 08 02 00 10 25 80  3a..tlb1.>....%.
0730: 00 9C 07 66 00 80 33 61  0E 01 33 61 0E 01 74 6C  ...f..3a..3a..tl
0740: 62 30 2B 33 61 0E 01 26  80 23 2B 33 61 0E 01 27  b0+3a..&.#+3a..'
0750: 80 23 2B 33 61 0E 01 28  80 23 2B 33 61 0E 01 29  .#+3a..(.#+3a..)
0760: 80 23 2B 33 61 0E 01 2A  80 23 2B 33 61 0E 01 2B  .#+3a..*.#+3a..+
0770: 80 23 2B 33 61 0E 01 2C  80 23 2B 33 61 0E 01 2D  .#+3a..,.#+3a..-
0780: 80 23 2B 33 61 0E 01 2E  80 23 66 00 80 33 61 0E  .#+3a....#f..3a.
0790: 01 33 61 0E 01 74 6C 62  31 01 3E 08 02 00 10 30  .3a..tlb1.>....0
07A0: 80 00 E5 07 66 00 80 33  61 0E 01 33 61 0E 01 74  ....f..3a..3a..t
07B0: 6C 62 30 2B 33 61 0E 01  31 80 23 2B 33 61 0E 01  lb0+3a..1.#+3a..
07C0: 32 80 23 2B 33 61 0E 01  33 80 23 2B 33 61 0E 01  2.#+3a..3.#+3a..
07D0: 34 80 23 66 00 80 33 61  0E 01 33 61 0E 01 74 6C  4.#f..3a..3a..tl
07E0: 62 31 01 3E 08 02 00 10  2F 80 00 3E 08 66 00 80  b1.>..../..>.f..
07F0: 33 61 0E 01 33 61 0E 01  74 6C 62 30 2B 33 61 0E  3a..3a..tlb0+3a.
0800: 01 36 80 23 2B 33 61 0E  01 37 80 23 2B 33 61 0E  .6.#+3a..7.#+3a.
0810: 01 38 80 23 2B 33 61 0E  01 39 80 23 2B 33 61 0E  .8.#+3a..9.#+3a.
0820: 01 3A 80 23 2B 33 61 0E  01 3B 80 23 66 00 80 33  .:.#+3a..;.#f..3
0830: 61 0E 01 33 61 0E 01 74  6C 62 31 01 3E 08 1B     a..3a..tlb1.>.. 
```

#### Opcodes

```
  0: 0x046F [0x42] SET_CLI_EVENT_CANCEL_DATA()
  1: 0x0470 [0x03] Work_Zone[3] = 5429*
  2: 0x0475 [0x4A] Collione (ID: 17719603/0x010E6133) looks at LocalPlayer
  3: 0x047E [0x2B] Collione (ID: 17719603/0x010E6133) [12100*]:
    → "Lords an' ladies, step right up an' play the 'ottest game in the Kingdom--the Choc'bo 'ot an' Cold Game!"
  4: 0x0485 [0x23] WAIT_FOR_DIALOG_INTERACTION
  5: 0x0486 [0x03] Work_Zone[1] = 0*
  6: 0x048B [0x24] CREATE_DIALOG(message_id=12101*, default_option=0*, option_flags=0*)
    → "What might ya be needin'? [A rule refresher./Another fix./Nothing.]"
  7: 0x0492 [0x25] WAIT_DIALOG_SELECT()
  8: 0x0493 [0x02] IF !(Work_Zone[0] == 0*) GOTO 0x04A4
  9: 0x049B [0x1A] CALL_SUBROUTINE(address=0x068A)
 10: 0x049E [0x01] GOTO 0x0486

SUBROUTINE_04BD:
 11: 0x04BD [0x02] IF !(Work_Zone[9] == 1*) GOTO 0x0523
 12: 0x04C5 [0x66] LOAD_EXT_SCHEDULER_MAIN: Load scheduler "tlb0" with entities [Collione (ID: 17719603/0x010E6133), Collione (ID: 17719603/0x010E6133)], work=33*
 13: 0x04D4 [0x2B] Collione (ID: 17719603/0x010E6133) [12102*]:
    → "Indeed, [guv'na/milady]! 'ere's a fresh new $1. And might I say yer lookin' qui'e ['an'some/lovely] this fine day."
 14: 0x04DB [0x23] WAIT_FOR_DIALOG_INTERACTION
 15: 0x04DC [0x2B] Collione (ID: 17719603/0x010E6133) [12116*]:
    → "Hold on a min'it 'ere. Me bloomin' register says ya alrea'y gone an' foun' some sparkly in the prairies."
 16: 0x04E3 [0x23] WAIT_FOR_DIALOG_INTERACTION
 17: 0x04E4 [0x2B] Collione (ID: 17719603/0x010E6133) [12118*]:
    → "Per'aps 'twas a smite simple-like for a fancified a'ven'urer, aye?"
 18: 0x04EB [0x23] WAIT_FOR_DIALOG_INTERACTION
 19: 0x04EC [0x2B] Collione (ID: 17719603/0x010E6133) [12119*]:
    → "Maybe this $3 will ripen the rot in yer knickers."
 20: 0x04F3 [0x23] WAIT_FOR_DIALOG_INTERACTION
 21: 0x04F4 [0x2B] Collione (ID: 17719603/0x010E6133) [12120*]:
    → "Jus' tote tha' lady down t' th' Valkurm Dunes, an' you'll be rollin' in riches before th' du'chess flogs 'er kittens!"
 22: 0x04FB [0x23] WAIT_FOR_DIALOG_INTERACTION
 23: 0x04FC [0x2B] Collione (ID: 17719603/0x010E6133) [12122*]:
    → "It won't be all choc'lates and sunshine like las' time, but knowin' you an' yer 'bo, ye'll have the boun'y in three tocks o' th' raven's ticker."
 24: 0x0503 [0x23] WAIT_FOR_DIALOG_INTERACTION
 25: 0x0504 [0x2B] Collione (ID: 17719603/0x010E6133) [12099*]:
    → "Goo' luck, and god'esspeed, aight?"
 26: 0x050B [0x23] WAIT_FOR_DIALOG_INTERACTION
 27: 0x050C [0x66] LOAD_EXT_SCHEDULER_MAIN: Load scheduler "tlb1" with entities [Collione (ID: 17719603/0x010E6133), Collione (ID: 17719603/0x010E6133)], work=33*
 28: 0x051B [0x03] Work_Zone[1] = 2*
 29: 0x0520 [0x01] GOTO 0x0688
 30: 0x0523 [0x02] IF !(Work_Zone[9] == 2*) GOTO 0x0589
 31: 0x052B [0x66] LOAD_EXT_SCHEDULER_MAIN: Load scheduler "tlb0" with entities [Collione (ID: 17719603/0x010E6133), Collione (ID: 17719603/0x010E6133)], work=33*
 32: 0x053A [0x2B] Collione (ID: 17719603/0x010E6133) [12102*]:
    → "Indeed, [guv'na/milady]! 'ere's a fresh new $1. And might I say yer lookin' qui'e ['an'some/lovely] this fine day."
 33: 0x0541 [0x23] WAIT_FOR_DIALOG_INTERACTION
 34: 0x0542 [0x2B] Collione (ID: 17719603/0x010E6133) [12117*]:
    → "Hold on a min'it 'ere. Me bloomin' register says ya alrea'y gone an' foun' some sparkly in the bush."
 35: 0x0549 [0x23] WAIT_FOR_DIALOG_INTERACTION
 36: 0x054A [0x2B] Collione (ID: 17719603/0x010E6133) [12118*]:
    → "Per'aps 'twas a smite simple-like for a fancified a'ven'urer, aye?"
 37: 0x0551 [0x23] WAIT_FOR_DIALOG_INTERACTION
 38: 0x0552 [0x2B] Collione (ID: 17719603/0x010E6133) [12119*]:
    → "Maybe this $3 will ripen the rot in yer knickers."
 39: 0x0559 [0x23] WAIT_FOR_DIALOG_INTERACTION
 40: 0x055A [0x2B] Collione (ID: 17719603/0x010E6133) [12121*]:
    → "Jus' tote that lady over t' th' Buburimu Peninsula an' you'll be rollin' in riches before the duke's polished 'is privy!"
 41: 0x0561 [0x23] WAIT_FOR_DIALOG_INTERACTION
 42: 0x0562 [0x2B] Collione (ID: 17719603/0x010E6133) [12122*]:
    → "It won't be all choc'lates and sunshine like las' time, but knowin' you an' yer 'bo, ye'll have the boun'y in three tocks o' th' raven's ticker."
 43: 0x0569 [0x23] WAIT_FOR_DIALOG_INTERACTION
 44: 0x056A [0x2B] Collione (ID: 17719603/0x010E6133) [12099*]:
    → "Goo' luck, and god'esspeed, aight?"
 45: 0x0571 [0x23] WAIT_FOR_DIALOG_INTERACTION
 46: 0x0572 [0x66] LOAD_EXT_SCHEDULER_MAIN: Load scheduler "tlb1" with entities [Collione (ID: 17719603/0x010E6133), Collione (ID: 17719603/0x010E6133)], work=33*
 47: 0x0581 [0x03] Work_Zone[1] = 3*
 48: 0x0586 [0x01] GOTO 0x0688
 49: 0x0589 [0x02] IF !(Work_Zone[9] == 3*) GOTO 0x05EF
 50: 0x0591 [0x66] LOAD_EXT_SCHEDULER_MAIN: Load scheduler "tlb0" with entities [Collione (ID: 17719603/0x010E6133), Collione (ID: 17719603/0x010E6133)], work=33*
 51: 0x05A0 [0x2B] Collione (ID: 17719603/0x010E6133) [12102*]:
    → "Indeed, [guv'na/milady]! 'ere's a fresh new $1. And might I say yer lookin' qui'e ['an'some/lovely] this fine day."
 52: 0x05A7 [0x23] WAIT_FOR_DIALOG_INTERACTION
 53: 0x05A8 [0x2B] Collione (ID: 17719603/0x010E6133) [12124*]:
    → "Hold on a San d'Orian min'it 'ere. Me shod'y register says ya gettin' quite maple a' th' digger'y-doo down in Valkurm."
 54: 0x05AF [0x23] WAIT_FOR_DIALOG_INTERACTION
 55: 0x05B0 [0x2B] Collione (ID: 17719603/0x010E6133) [12125*]:
    → "The lords an' laddies down a' the VCS seem t' think migh'y 'igh an' 'oppy of ya. Says 'ere they've approved yer a'mission int' some o' th' more prickly areas yon southwerd."
 56: 0x05B7 [0x23] WAIT_FOR_DIALOG_INTERACTION
 57: 0x05B8 [0x2B] Collione (ID: 17719603/0x010E6133) [12119*]:
    → "Maybe this $3 will ripen the rot in yer knickers."
 58: 0x05BF [0x23] WAIT_FOR_DIALOG_INTERACTION
 59: 0x05C0 [0x2B] Collione (ID: 17719603/0x010E6133) [12128*]:
    → "Wit' this, ye'll be able t' take yer swing a' th' lively loot lurkin' deep in th' Eastern an' Western Altepa Deserts."
 60: 0x05C7 [0x23] WAIT_FOR_DIALOG_INTERACTION
 61: 0x05C8 [0x2B] Collione (ID: 17719603/0x010E6133) [12129*]:
    → "Jus' remember tha' th' scorchin' celestial an' the slipp'ry sands in the' deserts can be a trifle tough on yer 'bo. Chances are it'll be puffin' an' pantin' 'fore ya know it."
 62: 0x05CF [0x23] WAIT_FOR_DIALOG_INTERACTION
 63: 0x05D0 [0x2B] Collione (ID: 17719603/0x010E6133) [12099*]:
    → "Goo' luck, and god'esspeed, aight?"
 64: 0x05D7 [0x23] WAIT_FOR_DIALOG_INTERACTION
 65: 0x05D8 [0x66] LOAD_EXT_SCHEDULER_MAIN: Load scheduler "tlb1" with entities [Collione (ID: 17719603/0x010E6133), Collione (ID: 17719603/0x010E6133)], work=33*
 66: 0x05E7 [0x03] Work_Zone[1] = 4*
 67: 0x05EC [0x01] GOTO 0x0688
 68: 0x05EF [0x02] IF !(Work_Zone[9] == 4*) GOTO 0x0655
 69: 0x05F7 [0x66] LOAD_EXT_SCHEDULER_MAIN: Load scheduler "tlb0" with entities [Collione (ID: 17719603/0x010E6133), Collione (ID: 17719603/0x010E6133)], work=33*
 70: 0x0606 [0x2B] Collione (ID: 17719603/0x010E6133) [12102*]:
    → "Indeed, [guv'na/milady]! 'ere's a fresh new $1. And might I say yer lookin' qui'e ['an'some/lovely] this fine day."
 71: 0x060D [0x23] WAIT_FOR_DIALOG_INTERACTION
 72: 0x060E [0x2B] Collione (ID: 17719603/0x010E6133) [12123*]:
    → "Hold on a San d'Orian min'it 'ere. Me shod'y register says ya gettin' quite maple a' th' digger'y-doo over in Buburimu."
 73: 0x0615 [0x23] WAIT_FOR_DIALOG_INTERACTION
 74: 0x0616 [0x2B] Collione (ID: 17719603/0x010E6133) [12125*]:
    → "The lords an' laddies down a' the VCS seem t' think migh'y 'igh an' 'oppy of ya. Says 'ere they've approved yer a'mission int' some o' th' more prickly areas yon southwerd."
 75: 0x061D [0x23] WAIT_FOR_DIALOG_INTERACTION
 76: 0x061E [0x2B] Collione (ID: 17719603/0x010E6133) [12119*]:
    → "Maybe this $3 will ripen the rot in yer knickers."
 77: 0x0625 [0x23] WAIT_FOR_DIALOG_INTERACTION
 78: 0x0626 [0x2B] Collione (ID: 17719603/0x010E6133) [12126*]:
    → "Wit' this, ye'll be able t' take yer swing a' th' lively loot lurkin' deep in th' Yuhtunga an' Yhoator Jungles."
 79: 0x062D [0x23] WAIT_FOR_DIALOG_INTERACTION
 80: 0x062E [0x2B] Collione (ID: 17719603/0x010E6133) [12127*]:
    → "Jus' remember tha' all th' leafies an' lichens in th' jungles make it 'ard-like fer yer choc'bo t' sniff ou' th' lovely loot'ies. I sug'jest ya try searchin' a wider patch than normal, I do."
 81: 0x0635 [0x23] WAIT_FOR_DIALOG_INTERACTION
 82: 0x0636 [0x2B] Collione (ID: 17719603/0x010E6133) [12099*]:
    → "Goo' luck, and god'esspeed, aight?"
 83: 0x063D [0x23] WAIT_FOR_DIALOG_INTERACTION
 84: 0x063E [0x66] LOAD_EXT_SCHEDULER_MAIN: Load scheduler "tlb1" with entities [Collione (ID: 17719603/0x010E6133), Collione (ID: 17719603/0x010E6133)], work=33*
 85: 0x064D [0x03] Work_Zone[1] = 5*
 86: 0x0652 [0x01] GOTO 0x0688
 87: 0x0655 [0x66] LOAD_EXT_SCHEDULER_MAIN: Load scheduler "tlb0" with entities [Collione (ID: 17719603/0x010E6133), Collione (ID: 17719603/0x010E6133)], work=33*
 88: 0x0664 [0x2B] Collione (ID: 17719603/0x010E6133) [12102*]:
    → "Indeed, [guv'na/milady]! 'ere's a fresh new $1. And might I say yer lookin' qui'e ['an'some/lovely] this fine day."
 89: 0x066B [0x23] WAIT_FOR_DIALOG_INTERACTION
 90: 0x066C [0x2B] Collione (ID: 17719603/0x010E6133) [12103*]:
    → "You have a goo' one, aight?"
 91: 0x0673 [0x23] WAIT_FOR_DIALOG_INTERACTION
 92: 0x0674 [0x66] LOAD_EXT_SCHEDULER_MAIN: Load scheduler "tlb1" with entities [Collione (ID: 17719603/0x010E6133), Collione (ID: 17719603/0x010E6133)], work=33*
 93: 0x0683 [0x03] Work_Zone[1] = 1*

SUBROUTINE_0688:
 94: 0x0688 [0x21] END_EVENT
 95: 0x0689 [0x00] END_REQSTACK()

SUBROUTINE_068A:
 96: 0x068A [0x03] Work_Zone[3] = 5429*
 97: 0x068F [0x03] Work_Zone[4] = 851*
 98: 0x0694 [0x03] Work_Zone[5] = 852*
 99: 0x0699 [0x24] CREATE_DIALOG(message_id=12063*, default_option=0*, option_flags=0*)
    → "Wha' ya need to know? ['bout chocographs./'bout $1./'bout 'ow to fin' the loo'./'bout choc'bo 'bilities./'bout when the game is over.]"
100: 0x06A0 [0x25] WAIT_DIALOG_SELECT()
101: 0x06A1 [0x02] IF !(Work_Zone[0] == 0*) GOTO 0x06E2
102: 0x06A9 [0x66] LOAD_EXT_SCHEDULER_MAIN: Load scheduler "tlb0" with entities [Collione (ID: 17719603/0x010E6133), Collione (ID: 17719603/0x010E6133)], work=33*
103: 0x06B8 [0x2B] Collione (ID: 17719603/0x010E6133) [12064*]:
    → "Any [Jefferson/Jennie] who wants t' participate in the Choc'bo 'ot an' Cold Game will need a special chocograph auforizin' ['im/'er] t' dig in a cer'ain area."
104: 0x06BF [0x23] WAIT_FOR_DIALOG_INTERACTION
105: 0x06C0 [0x2B] Collione (ID: 17719603/0x010E6133) [12065*]:
    → "There're all kinds of graphs for all kinds of shinies loca'ed in lots all over Vana'diel."
106: 0x06C7 [0x23] WAIT_FOR_DIALOG_INTERACTION
107: 0x06C8 [0x2B] Collione (ID: 17719603/0x010E6133) [12066*]:
    → "An' the best part is, once ya got one, it's yers 'til yer bluer than a bobbin."
108: 0x06CF [0x23] WAIT_FOR_DIALOG_INTERACTION
109: 0x06D0 [0x66] LOAD_EXT_SCHEDULER_MAIN: Load scheduler "tlb1" with entities [Collione (ID: 17719603/0x010E6133), Collione (ID: 17719603/0x010E6133)], work=33*
110: 0x06DF [0x01] GOTO 0x083E
111: 0x06E2 [0x02] IF !(Work_Zone[0] == 1*) GOTO 0x072B
112: 0x06EA [0x66] LOAD_EXT_SCHEDULER_MAIN: Load scheduler "tlb0" with entities [Collione (ID: 17719603/0x010E6133), Collione (ID: 17719603/0x010E6133)], work=33*
113: 0x06F9 [0x2B] Collione (ID: 17719603/0x010E6133) [12069*]:
    → "$1 is the it'm you'll need t' star' the game."
114: 0x0700 [0x23] WAIT_FOR_DIALOG_INTERACTION
115: 0x0701 [0x2B] Collione (ID: 17719603/0x010E6133) [12070*]:
    → "Jus' drop one on the ground in an area 'scribed on one o' yer chocographs an' turn 'round three times widdershins. In a mat'er of sec'nds, yer noble steed'll be shov'lin' down those greens faster 'an you can say poppycockins! Simple as 'at!"
116: 0x0708 [0x23] WAIT_FOR_DIALOG_INTERACTION
117: 0x0709 [0x2B] Collione (ID: 17719603/0x010E6133) [12071*]:
    → "Once yer 'bo's finished dinin', yer map'll open and you can check the gen'ral location of the sparkly."
118: 0x0710 [0x23] WAIT_FOR_DIALOG_INTERACTION
119: 0x0711 [0x2B] Collione (ID: 17719603/0x010E6133) [12072*]:
    → "Oh, jus' don' forge' tha' you can only use $1 once, and you'll 'ave t' come back t' me if ya wan' another."
120: 0x0718 [0x23] WAIT_FOR_DIALOG_INTERACTION
121: 0x0719 [0x66] LOAD_EXT_SCHEDULER_MAIN: Load scheduler "tlb1" with entities [Collione (ID: 17719603/0x010E6133), Collione (ID: 17719603/0x010E6133)], work=33*
122: 0x0728 [0x01] GOTO 0x083E
123: 0x072B [0x02] IF !(Work_Zone[0] == 2*) GOTO 0x079C
124: 0x0733 [0x66] LOAD_EXT_SCHEDULER_MAIN: Load scheduler "tlb0" with entities [Collione (ID: 17719603/0x010E6133), Collione (ID: 17719603/0x010E6133)], work=33*
125: 0x0742 [0x2B] Collione (ID: 17719603/0x010E6133) [12073*]:
    → "Ah, the loo'. I can smell it from 'ere... Well, first ya ride yer 'bo out to the location marked on yer map."
126: 0x0749 [0x23] WAIT_FOR_DIALOG_INTERACTION
127: 0x074A [0x2B] Collione (ID: 17719603/0x010E6133) [12074*]:
    → "When ya think ya migh' be close, tell yer bird t' dig a spell."
128: 0x0751 [0x23] WAIT_FOR_DIALOG_INTERACTION
129: 0x0752 [0x2B] Collione (ID: 17719603/0x010E6133) [12075*]:
    → "When he's done pe'kin' take a goo' lis'en. Chances are 'e'll squawk somefin' righ' dandy."
130: 0x0759 [0x23] WAIT_FOR_DIALOG_INTERACTION
131: 0x075A [0x2B] Collione (ID: 17719603/0x010E6133) [12076*]:
    → "Dependin' on the distance ya're from the riches, the reaction of yer bird'll change."
132: 0x0761 [0x23] WAIT_FOR_DIALOG_INTERACTION
133: 0x0762 [0x2B] Collione (ID: 17719603/0x010E6133) [12077*]:
    → "When ya think yer on top of the tipper..."
134: 0x0769 [0x23] WAIT_FOR_DIALOG_INTERACTION
135: 0x076A [0x2B] Collione (ID: 17719603/0x010E6133) [12078*]:
    → "...crack yer whip an' get yer 'bo's 'ead bobbin'."
136: 0x0771 [0x23] WAIT_FOR_DIALOG_INTERACTION
137: 0x0772 [0x2B] Collione (ID: 17719603/0x010E6133) [12079*]:
    → "Jus' remember tha' some treasure's buried quite deep, so ya may need a 'alf-a-dozen digs t' reach it."
138: 0x0779 [0x23] WAIT_FOR_DIALOG_INTERACTION
139: 0x077A [0x2B] Collione (ID: 17719603/0x010E6133) [12080*]:
    → "But if ya tough it ou', you'll 'ventually come 'cross a lovely chest."
140: 0x0781 [0x23] WAIT_FOR_DIALOG_INTERACTION
141: 0x0782 [0x2B] Collione (ID: 17719603/0x010E6133) [12081*]:
    → "Then alls you 'ave t' do is open it an' move the loo' t' yer gobbinbag all proper-like."
142: 0x0789 [0x23] WAIT_FOR_DIALOG_INTERACTION
143: 0x078A [0x66] LOAD_EXT_SCHEDULER_MAIN: Load scheduler "tlb1" with entities [Collione (ID: 17719603/0x010E6133), Collione (ID: 17719603/0x010E6133)], work=33*
144: 0x0799 [0x01] GOTO 0x083E
145: 0x079C [0x02] IF !(Work_Zone[0] == 3*) GOTO 0x07E5
146: 0x07A4 [0x66] LOAD_EXT_SCHEDULER_MAIN: Load scheduler "tlb0" with entities [Collione (ID: 17719603/0x010E6133), Collione (ID: 17719603/0x010E6133)], work=33*
147: 0x07B3 [0x2B] Collione (ID: 17719603/0x010E6133) [12082*]:
    → "T' guarantee an 'appy 'ot 'an cold ex'perience, you'll wan' t' know how choc'bo 'bilities can make it easier t' get yer 'ands on the prize."
148: 0x07BA [0x23] WAIT_FOR_DIALOG_INTERACTION
149: 0x07BB [0x2B] Collione (ID: 17719603/0x010E6133) [12083*]:
    → "The ones tha'll 'elp you most are "Treasure Finder," "Burrow," an' "Bore.""
150: 0x07C2 [0x23] WAIT_FOR_DIALOG_INTERACTION
151: 0x07C3 [0x2B] Collione (ID: 17719603/0x010E6133) [12084*]:
    → "Burrow an' Bore'll 'llow ya t' go a dolly deeper wit' each dig, helping you reach the chest 'fore yer bird grows all snoozy."
152: 0x07CA [0x23] WAIT_FOR_DIALOG_INTERACTION
153: 0x07CB [0x2B] Collione (ID: 17719603/0x010E6133) [12085*]:
    → "Treasure Finder'll 'elp you scrag the treasure easier by polishin' yer 'bo's sense of smellin'."
154: 0x07D2 [0x23] WAIT_FOR_DIALOG_INTERACTION
155: 0x07D3 [0x66] LOAD_EXT_SCHEDULER_MAIN: Load scheduler "tlb1" with entities [Collione (ID: 17719603/0x010E6133), Collione (ID: 17719603/0x010E6133)], work=33*
156: 0x07E2 [0x01] GOTO 0x083E
157: 0x07E5 [0x02] IF !(Work_Zone[0] == 4*) GOTO 0x083E
158: 0x07ED [0x66] LOAD_EXT_SCHEDULER_MAIN: Load scheduler "tlb0" with entities [Collione (ID: 17719603/0x010E6133), Collione (ID: 17719603/0x010E6133)], work=33*
159: 0x07FC [0x2B] Collione (ID: 17719603/0x010E6133) [12086*]:
    → "Ah, now this is the mos' im'portan' thing I'll be tellin' ya, so lend me yer ear for a spell, aight?"
160: 0x0803 [0x23] WAIT_FOR_DIALOG_INTERACTION
161: 0x0804 [0x2B] Collione (ID: 17719603/0x010E6133) [12087*]:
    → "Choc'bos are quite dapper diggers, but all that bobbin' o' the neck does quite a number on their crookid lit'le spines."
162: 0x080B [0x23] WAIT_FOR_DIALOG_INTERACTION
163: 0x080C [0x2B] Collione (ID: 17719603/0x010E6133) [12088*]:
    → "When yer bo's 'ad enough, 'e'll le' ya know by up an' refusin' t' dig anymore."
164: 0x0813 [0x23] WAIT_FOR_DIALOG_INTERACTION
165: 0x0814 [0x2B] Collione (ID: 17719603/0x010E6133) [12089*]:
    → "If this 'appens, it means the fun's over 'til the morrow, mate. 'op off yer bird an' le' 'im rest a while."
166: 0x081B [0x23] WAIT_FOR_DIALOG_INTERACTION
167: 0x081C [0x2B] Collione (ID: 17719603/0x010E6133) [12090*]:
    → "Ya see, the key t' lolly huntin' is keepin' yer 'bo chipper by reducin' the number times ya make 'im dig."
168: 0x0823 [0x23] WAIT_FOR_DIALOG_INTERACTION
169: 0x0824 [0x2B] Collione (ID: 17719603/0x010E6133) [12091*]:
    → "Ya followin' me?"
170: 0x082B [0x23] WAIT_FOR_DIALOG_INTERACTION
171: 0x082C [0x66] LOAD_EXT_SCHEDULER_MAIN: Load scheduler "tlb1" with entities [Collione (ID: 17719603/0x010E6133), Collione (ID: 17719603/0x010E6133)], work=33*
172: 0x083B [0x01] GOTO 0x083E

SUBROUTINE_083E:
173: 0x083E [0x1B] RETURN
```

#### Data or dead code:

```
# Dead code (unreachable instructions):
     0x04A1 [0x01] GOTO 0x04BD
     0x04BA [0x01] GOTO 0x04BD
```

### Event 857

#### Metadata

| Field        | Value     |
|--------------|-----------|
| Entrypoint   | 0x083F    |
| Data Size    | 112 bytes |
| Instructions | 22        |

```
      00 01 02 03 04 05 06 07  08 09 0A 0B 0C 0D 0E 0F
      -- -- -- -- -- -- -- --  -- -- -- -- -- -- -- --
0830:                                               42                 B
0840: 03 03 10 19 80 4A 33 61  0E 01 F0 FF FF 7F 66 00  .....J3a......f.
0850: 80 33 61 0E 01 33 61 0E  01 74 6C 62 30 2B 33 61  .3a..3a..tlb0+3a
0860: 0E 01 60 80 23 2B 33 61  0E 01 61 80 23 2B 33 61  ..`.#+3a..a.#+3a
0870: 0E 01 62 80 23 2B 33 61  0E 01 63 80 23 66 00 80  ..b.#+3a..c.#f..
0880: 33 61 0E 01 33 61 0E 01  74 6C 62 31 24 64 80 14  3a..3a..tlb1$d..
0890: 80 14 80 25 02 00 10 14  80 00 A2 08 1A 17 09 01  ...%............
08A0: AD 08 02 00 10 16 80 00  AD 08 01 AD 08 21 00     .............!. 
```

#### Opcodes

```
  0: 0x083F [0x42] SET_CLI_EVENT_CANCEL_DATA()
  1: 0x0840 [0x03] Work_Zone[3] = 5429*
  2: 0x0845 [0x4A] Collione (ID: 17719603/0x010E6133) looks at LocalPlayer
  3: 0x084E [0x66] LOAD_EXT_SCHEDULER_MAIN: Load scheduler "tlb0" with entities [Collione (ID: 17719603/0x010E6133), Collione (ID: 17719603/0x010E6133)], work=33*
  4: 0x085D [0x2B] Collione (ID: 17719603/0x010E6133) [12108*]:
    → "Step right up an' play the 'ottest game in the Kingdom--the Choc'bo 'ot an' Cold Game!"
  5: 0x0864 [0x23] WAIT_FOR_DIALOG_INTERACTION
  6: 0x0865 [0x2B] Collione (ID: 17719603/0x010E6133) [12109*]:
    → "'ey, I know you! I bet you'll be wantin' a fresh new..."
  7: 0x086C [0x23] WAIT_FOR_DIALOG_INTERACTION
  8: 0x086D [0x2B] Collione (ID: 17719603/0x010E6133) [12110*]:
    → "Wait a min'it, y'alrea'y 'ave $1, don' ya? I can smell 'em from over 'ere!"
  9: 0x0874 [0x23] WAIT_FOR_DIALOG_INTERACTION
 10: 0x0875 [0x2B] Collione (ID: 17719603/0x010E6133) [12111*]:
    → "Ya go use that clump 'fore I can give ya any more. Comp'ny policy."
 11: 0x087C [0x23] WAIT_FOR_DIALOG_INTERACTION
 12: 0x087D [0x66] LOAD_EXT_SCHEDULER_MAIN: Load scheduler "tlb1" with entities [Collione (ID: 17719603/0x010E6133), Collione (ID: 17719603/0x010E6133)], work=33*
 13: 0x088C [0x24] CREATE_DIALOG(message_id=12107*, default_option=0*, option_flags=0*)
    → "Ya wan' t' 'ear that rule rot again? [Yes./No.]"
 14: 0x0893 [0x25] WAIT_DIALOG_SELECT()
 15: 0x0894 [0x02] IF !(Work_Zone[0] == 0*) GOTO 0x08A2
 16: 0x089C [0x1A] CALL_SUBROUTINE(address=0x0917)
 17: 0x089F [0x01] GOTO 0x08AD
 18: 0x08A2 [0x02] IF !(Work_Zone[0] == 1*) GOTO 0x08AD
 19: 0x08AA [0x01] GOTO 0x08AD

SUBROUTINE_08AD:
 20: 0x08AD [0x21] END_EVENT
 21: 0x08AE [0x00] END_REQSTACK()
```

### Event 858

#### Metadata

| Field        | Value     |
|--------------|-----------|
| Entrypoint   | 0x08AF    |
| Data Size    | 541 bytes |
| Instructions | 98        |

```
      00 01 02 03 04 05 06 07  08 09 0A 0B 0C 0D 0E 0F
      -- -- -- -- -- -- -- --  -- -- -- -- -- -- -- --
08A0:                                               42                 B
08B0: 03 03 10 19 80 4A 33 61  0E 01 F0 FF FF 7F 66 00  .....J3a......f.
08C0: 80 33 61 0E 01 33 61 0E  01 74 6C 62 30 2B 33 61  .3a..3a..tlb0+3a
08D0: 0E 01 65 80 23 2B 33 61  0E 01 66 80 23 2B 33 61  ..e.#+3a..f.#+3a
08E0: 0E 01 67 80 23 66 00 80  33 61 0E 01 33 61 0E 01  ..g.#f..3a..3a..
08F0: 74 6C 62 31 24 64 80 14  80 14 80 25 02 00 10 14  tlb1$d.....%....
0900: 80 00 0A 09 1A 17 09 01  15 09 02 00 10 16 80 00  ................
0910: 15 09 01 15 09 21 00 03  03 10 19 80 03 04 10 1A  .....!..........
0920: 80 03 05 10 1B 80 24 1C  80 14 80 14 80 25 02 00  ......$......%..
0930: 10 14 80 00 6F 09 66 00  80 33 61 0E 01 33 61 0E  ....o.f..3a..3a.
0940: 01 74 6C 62 30 2B 33 61  0E 01 1D 80 23 2B 33 61  .tlb0+3a....#+3a
0950: 0E 01 1E 80 23 2B 33 61  0E 01 1F 80 23 66 00 80  ....#+3a....#f..
0960: 33 61 0E 01 33 61 0E 01  74 6C 62 31 01 CB 0A 02  3a..3a..tlb1....
0970: 00 10 16 80 00 B8 09 66  00 80 33 61 0E 01 33 61  .......f..3a..3a
0980: 0E 01 74 6C 62 30 2B 33  61 0E 01 21 80 23 2B 33  ..tlb0+3a..!.#+3
0990: 61 0E 01 22 80 23 2B 33  61 0E 01 23 80 23 2B 33  a..".#+3a..#.#+3
09A0: 61 0E 01 24 80 23 66 00  80 33 61 0E 01 33 61 0E  a..$.#f..3a..3a.
09B0: 01 74 6C 62 31 01 CB 0A  02 00 10 25 80 00 29 0A  .tlb1......%..).
09C0: 66 00 80 33 61 0E 01 33  61 0E 01 74 6C 62 30 2B  f..3a..3a..tlb0+
09D0: 33 61 0E 01 26 80 23 2B  33 61 0E 01 27 80 23 2B  3a..&.#+3a..'.#+
09E0: 33 61 0E 01 28 80 23 2B  33 61 0E 01 29 80 23 2B  3a..(.#+3a..).#+
09F0: 33 61 0E 01 2A 80 23 2B  33 61 0E 01 2B 80 23 2B  3a..*.#+3a..+.#+
0A00: 33 61 0E 01 2C 80 23 2B  33 61 0E 01 2D 80 23 2B  3a..,.#+3a..-.#+
0A10: 33 61 0E 01 2E 80 23 66  00 80 33 61 0E 01 33 61  3a....#f..3a..3a
0A20: 0E 01 74 6C 62 31 01 CB  0A 02 00 10 30 80 00 72  ..tlb1......0..r
0A30: 0A 66 00 80 33 61 0E 01  33 61 0E 01 74 6C 62 30  .f..3a..3a..tlb0
0A40: 2B 33 61 0E 01 31 80 23  2B 33 61 0E 01 32 80 23  +3a..1.#+3a..2.#
0A50: 2B 33 61 0E 01 33 80 23  2B 33 61 0E 01 34 80 23  +3a..3.#+3a..4.#
0A60: 66 00 80 33 61 0E 01 33  61 0E 01 74 6C 62 31 01  f..3a..3a..tlb1.
0A70: CB 0A 02 00 10 2F 80 00  CB 0A 66 00 80 33 61 0E  ...../....f..3a.
0A80: 01 33 61 0E 01 74 6C 62  30 2B 33 61 0E 01 36 80  .3a..tlb0+3a..6.
0A90: 23 2B 33 61 0E 01 37 80  23 2B 33 61 0E 01 38 80  #+3a..7.#+3a..8.
0AA0: 23 2B 33 61 0E 01 39 80  23 2B 33 61 0E 01 3A 80  #+3a..9.#+3a..:.
0AB0: 23 2B 33 61 0E 01 3B 80  23 66 00 80 33 61 0E 01  #+3a..;.#f..3a..
0AC0: 33 61 0E 01 74 6C 62 31  01 CB 0A 1B              3a..tlb1....    
```

#### Opcodes

```
  0: 0x08AF [0x42] SET_CLI_EVENT_CANCEL_DATA()
  1: 0x08B0 [0x03] Work_Zone[3] = 5429*
  2: 0x08B5 [0x4A] Collione (ID: 17719603/0x010E6133) looks at LocalPlayer
  3: 0x08BE [0x66] LOAD_EXT_SCHEDULER_MAIN: Load scheduler "tlb0" with entities [Collione (ID: 17719603/0x010E6133), Collione (ID: 17719603/0x010E6133)], work=33*
  4: 0x08CD [0x2B] Collione (ID: 17719603/0x010E6133) [12104*]:
    → "'ow goes the 'unt? That wench, For'tune been smilin' down on ya lately?"
  5: 0x08D4 [0x23] WAIT_FOR_DIALOG_INTERACTION
  6: 0x08D5 [0x2B] Collione (ID: 17719603/0x010E6133) [12105*]:
    → "Ya know I can' give ya any more $1 until yer 'bo's 'ad time t' cool down."
  7: 0x08DC [0x23] WAIT_FOR_DIALOG_INTERACTION
  8: 0x08DD [0x2B] Collione (ID: 17719603/0x010E6133) [12106*]:
    → "No 'ard feelings, ay? Comp'ny policy."
  9: 0x08E4 [0x23] WAIT_FOR_DIALOG_INTERACTION
 10: 0x08E5 [0x66] LOAD_EXT_SCHEDULER_MAIN: Load scheduler "tlb1" with entities [Collione (ID: 17719603/0x010E6133), Collione (ID: 17719603/0x010E6133)], work=33*
 11: 0x08F4 [0x24] CREATE_DIALOG(message_id=12107*, default_option=0*, option_flags=0*)
    → "Ya wan' t' 'ear that rule rot again? [Yes./No.]"
 12: 0x08FB [0x25] WAIT_DIALOG_SELECT()
 13: 0x08FC [0x02] IF !(Work_Zone[0] == 0*) GOTO 0x090A
 14: 0x0904 [0x1A] CALL_SUBROUTINE(address=0x0917)
 15: 0x0907 [0x01] GOTO 0x0915
 16: 0x090A [0x02] IF !(Work_Zone[0] == 1*) GOTO 0x0915
 17: 0x0912 [0x01] GOTO 0x0915

SUBROUTINE_0915:
 18: 0x0915 [0x21] END_EVENT
 19: 0x0916 [0x00] END_REQSTACK()

SUBROUTINE_0917:
 20: 0x0917 [0x03] Work_Zone[3] = 5429*
 21: 0x091C [0x03] Work_Zone[4] = 851*
 22: 0x0921 [0x03] Work_Zone[5] = 852*
 23: 0x0926 [0x24] CREATE_DIALOG(message_id=12063*, default_option=0*, option_flags=0*)
    → "Wha' ya need to know? ['bout chocographs./'bout $1./'bout 'ow to fin' the loo'./'bout choc'bo 'bilities./'bout when the game is over.]"
 24: 0x092D [0x25] WAIT_DIALOG_SELECT()
 25: 0x092E [0x02] IF !(Work_Zone[0] == 0*) GOTO 0x096F
 26: 0x0936 [0x66] LOAD_EXT_SCHEDULER_MAIN: Load scheduler "tlb0" with entities [Collione (ID: 17719603/0x010E6133), Collione (ID: 17719603/0x010E6133)], work=33*
 27: 0x0945 [0x2B] Collione (ID: 17719603/0x010E6133) [12064*]:
    → "Any [Jefferson/Jennie] who wants t' participate in the Choc'bo 'ot an' Cold Game will need a special chocograph auforizin' ['im/'er] t' dig in a cer'ain area."
 28: 0x094C [0x23] WAIT_FOR_DIALOG_INTERACTION
 29: 0x094D [0x2B] Collione (ID: 17719603/0x010E6133) [12065*]:
    → "There're all kinds of graphs for all kinds of shinies loca'ed in lots all over Vana'diel."
 30: 0x0954 [0x23] WAIT_FOR_DIALOG_INTERACTION
 31: 0x0955 [0x2B] Collione (ID: 17719603/0x010E6133) [12066*]:
    → "An' the best part is, once ya got one, it's yers 'til yer bluer than a bobbin."
 32: 0x095C [0x23] WAIT_FOR_DIALOG_INTERACTION
 33: 0x095D [0x66] LOAD_EXT_SCHEDULER_MAIN: Load scheduler "tlb1" with entities [Collione (ID: 17719603/0x010E6133), Collione (ID: 17719603/0x010E6133)], work=33*
 34: 0x096C [0x01] GOTO 0x0ACB
 35: 0x096F [0x02] IF !(Work_Zone[0] == 1*) GOTO 0x09B8
 36: 0x0977 [0x66] LOAD_EXT_SCHEDULER_MAIN: Load scheduler "tlb0" with entities [Collione (ID: 17719603/0x010E6133), Collione (ID: 17719603/0x010E6133)], work=33*
 37: 0x0986 [0x2B] Collione (ID: 17719603/0x010E6133) [12069*]:
    → "$1 is the it'm you'll need t' star' the game."
 38: 0x098D [0x23] WAIT_FOR_DIALOG_INTERACTION
 39: 0x098E [0x2B] Collione (ID: 17719603/0x010E6133) [12070*]:
    → "Jus' drop one on the ground in an area 'scribed on one o' yer chocographs an' turn 'round three times widdershins. In a mat'er of sec'nds, yer noble steed'll be shov'lin' down those greens faster 'an you can say poppycockins! Simple as 'at!"
 40: 0x0995 [0x23] WAIT_FOR_DIALOG_INTERACTION
 41: 0x0996 [0x2B] Collione (ID: 17719603/0x010E6133) [12071*]:
    → "Once yer 'bo's finished dinin', yer map'll open and you can check the gen'ral location of the sparkly."
 42: 0x099D [0x23] WAIT_FOR_DIALOG_INTERACTION
 43: 0x099E [0x2B] Collione (ID: 17719603/0x010E6133) [12072*]:
    → "Oh, jus' don' forge' tha' you can only use $1 once, and you'll 'ave t' come back t' me if ya wan' another."
 44: 0x09A5 [0x23] WAIT_FOR_DIALOG_INTERACTION
 45: 0x09A6 [0x66] LOAD_EXT_SCHEDULER_MAIN: Load scheduler "tlb1" with entities [Collione (ID: 17719603/0x010E6133), Collione (ID: 17719603/0x010E6133)], work=33*
 46: 0x09B5 [0x01] GOTO 0x0ACB
 47: 0x09B8 [0x02] IF !(Work_Zone[0] == 2*) GOTO 0x0A29
 48: 0x09C0 [0x66] LOAD_EXT_SCHEDULER_MAIN: Load scheduler "tlb0" with entities [Collione (ID: 17719603/0x010E6133), Collione (ID: 17719603/0x010E6133)], work=33*
 49: 0x09CF [0x2B] Collione (ID: 17719603/0x010E6133) [12073*]:
    → "Ah, the loo'. I can smell it from 'ere... Well, first ya ride yer 'bo out to the location marked on yer map."
 50: 0x09D6 [0x23] WAIT_FOR_DIALOG_INTERACTION
 51: 0x09D7 [0x2B] Collione (ID: 17719603/0x010E6133) [12074*]:
    → "When ya think ya migh' be close, tell yer bird t' dig a spell."
 52: 0x09DE [0x23] WAIT_FOR_DIALOG_INTERACTION
 53: 0x09DF [0x2B] Collione (ID: 17719603/0x010E6133) [12075*]:
    → "When he's done pe'kin' take a goo' lis'en. Chances are 'e'll squawk somefin' righ' dandy."
 54: 0x09E6 [0x23] WAIT_FOR_DIALOG_INTERACTION
 55: 0x09E7 [0x2B] Collione (ID: 17719603/0x010E6133) [12076*]:
    → "Dependin' on the distance ya're from the riches, the reaction of yer bird'll change."
 56: 0x09EE [0x23] WAIT_FOR_DIALOG_INTERACTION
 57: 0x09EF [0x2B] Collione (ID: 17719603/0x010E6133) [12077*]:
    → "When ya think yer on top of the tipper..."
 58: 0x09F6 [0x23] WAIT_FOR_DIALOG_INTERACTION
 59: 0x09F7 [0x2B] Collione (ID: 17719603/0x010E6133) [12078*]:
    → "...crack yer whip an' get yer 'bo's 'ead bobbin'."
 60: 0x09FE [0x23] WAIT_FOR_DIALOG_INTERACTION
 61: 0x09FF [0x2B] Collione (ID: 17719603/0x010E6133) [12079*]:
    → "Jus' remember tha' some treasure's buried quite deep, so ya may need a 'alf-a-dozen digs t' reach it."
 62: 0x0A06 [0x23] WAIT_FOR_DIALOG_INTERACTION
 63: 0x0A07 [0x2B] Collione (ID: 17719603/0x010E6133) [12080*]:
    → "But if ya tough it ou', you'll 'ventually come 'cross a lovely chest."
 64: 0x0A0E [0x23] WAIT_FOR_DIALOG_INTERACTION
 65: 0x0A0F [0x2B] Collione (ID: 17719603/0x010E6133) [12081*]:
    → "Then alls you 'ave t' do is open it an' move the loo' t' yer gobbinbag all proper-like."
 66: 0x0A16 [0x23] WAIT_FOR_DIALOG_INTERACTION
 67: 0x0A17 [0x66] LOAD_EXT_SCHEDULER_MAIN: Load scheduler "tlb1" with entities [Collione (ID: 17719603/0x010E6133), Collione (ID: 17719603/0x010E6133)], work=33*
 68: 0x0A26 [0x01] GOTO 0x0ACB
 69: 0x0A29 [0x02] IF !(Work_Zone[0] == 3*) GOTO 0x0A72
 70: 0x0A31 [0x66] LOAD_EXT_SCHEDULER_MAIN: Load scheduler "tlb0" with entities [Collione (ID: 17719603/0x010E6133), Collione (ID: 17719603/0x010E6133)], work=33*
 71: 0x0A40 [0x2B] Collione (ID: 17719603/0x010E6133) [12082*]:
    → "T' guarantee an 'appy 'ot 'an cold ex'perience, you'll wan' t' know how choc'bo 'bilities can make it easier t' get yer 'ands on the prize."
 72: 0x0A47 [0x23] WAIT_FOR_DIALOG_INTERACTION
 73: 0x0A48 [0x2B] Collione (ID: 17719603/0x010E6133) [12083*]:
    → "The ones tha'll 'elp you most are "Treasure Finder," "Burrow," an' "Bore.""
 74: 0x0A4F [0x23] WAIT_FOR_DIALOG_INTERACTION
 75: 0x0A50 [0x2B] Collione (ID: 17719603/0x010E6133) [12084*]:
    → "Burrow an' Bore'll 'llow ya t' go a dolly deeper wit' each dig, helping you reach the chest 'fore yer bird grows all snoozy."
 76: 0x0A57 [0x23] WAIT_FOR_DIALOG_INTERACTION
 77: 0x0A58 [0x2B] Collione (ID: 17719603/0x010E6133) [12085*]:
    → "Treasure Finder'll 'elp you scrag the treasure easier by polishin' yer 'bo's sense of smellin'."
 78: 0x0A5F [0x23] WAIT_FOR_DIALOG_INTERACTION
 79: 0x0A60 [0x66] LOAD_EXT_SCHEDULER_MAIN: Load scheduler "tlb1" with entities [Collione (ID: 17719603/0x010E6133), Collione (ID: 17719603/0x010E6133)], work=33*
 80: 0x0A6F [0x01] GOTO 0x0ACB
 81: 0x0A72 [0x02] IF !(Work_Zone[0] == 4*) GOTO 0x0ACB
 82: 0x0A7A [0x66] LOAD_EXT_SCHEDULER_MAIN: Load scheduler "tlb0" with entities [Collione (ID: 17719603/0x010E6133), Collione (ID: 17719603/0x010E6133)], work=33*
 83: 0x0A89 [0x2B] Collione (ID: 17719603/0x010E6133) [12086*]:
    → "Ah, now this is the mos' im'portan' thing I'll be tellin' ya, so lend me yer ear for a spell, aight?"
 84: 0x0A90 [0x23] WAIT_FOR_DIALOG_INTERACTION
 85: 0x0A91 [0x2B] Collione (ID: 17719603/0x010E6133) [12087*]:
    → "Choc'bos are quite dapper diggers, but all that bobbin' o' the neck does quite a number on their crookid lit'le spines."
 86: 0x0A98 [0x23] WAIT_FOR_DIALOG_INTERACTION
 87: 0x0A99 [0x2B] Collione (ID: 17719603/0x010E6133) [12088*]:
    → "When yer bo's 'ad enough, 'e'll le' ya know by up an' refusin' t' dig anymore."
 88: 0x0AA0 [0x23] WAIT_FOR_DIALOG_INTERACTION
 89: 0x0AA1 [0x2B] Collione (ID: 17719603/0x010E6133) [12089*]:
    → "If this 'appens, it means the fun's over 'til the morrow, mate. 'op off yer bird an' le' 'im rest a while."
 90: 0x0AA8 [0x23] WAIT_FOR_DIALOG_INTERACTION
 91: 0x0AA9 [0x2B] Collione (ID: 17719603/0x010E6133) [12090*]:
    → "Ya see, the key t' lolly huntin' is keepin' yer 'bo chipper by reducin' the number times ya make 'im dig."
 92: 0x0AB0 [0x23] WAIT_FOR_DIALOG_INTERACTION
 93: 0x0AB1 [0x2B] Collione (ID: 17719603/0x010E6133) [12091*]:
    → "Ya followin' me?"
 94: 0x0AB8 [0x23] WAIT_FOR_DIALOG_INTERACTION
 95: 0x0AB9 [0x66] LOAD_EXT_SCHEDULER_MAIN: Load scheduler "tlb1" with entities [Collione (ID: 17719603/0x010E6133), Collione (ID: 17719603/0x010E6133)], work=33*
 96: 0x0AC8 [0x01] GOTO 0x0ACB

SUBROUTINE_0ACB:
 97: 0x0ACB [0x1B] RETURN
```

### Event 859

#### Metadata

| Field        | Value    |
|--------------|----------|
| Entrypoint   | 0x0ACC   |
| Data Size    | 66 bytes |
| Instructions | 12       |

```
      00 01 02 03 04 05 06 07  08 09 0A 0B 0C 0D 0E 0F
      -- -- -- -- -- -- -- --  -- -- -- -- -- -- -- --
0AC0:                                      42 4A 33 61              BJ3a
0AD0: 0E 01 F0 FF FF 7F 66 04  80 33 61 0E 01 33 61 0E  ......f..3a..3a.
0AE0: 01 74 6C 62 30 2B 33 61  0E 01 68 80 23 2B 33 61  .tlb0+3a..h.#+3a
0AF0: 0E 01 69 80 23 2B 33 61  0E 01 6A 80 23 66 04 80  ..i.#+3a..j.#f..
0B00: 33 61 0E 01 33 61 0E 01  74 6C 62 31 21 00        3a..3a..tlb1!.  
```

#### Opcodes

```
  0: 0x0ACC [0x42] SET_CLI_EVENT_CANCEL_DATA()
  1: 0x0ACD [0x4A] Collione (ID: 17719603/0x010E6133) looks at LocalPlayer
  2: 0x0AD6 [0x66] LOAD_EXT_SCHEDULER_MAIN: Load scheduler "tlb0" with entities [Collione (ID: 17719603/0x010E6133), Collione (ID: 17719603/0x010E6133)], work=30*
  3: 0x0AE5 [0x2B] Collione (ID: 17719603/0x010E6133) [12112*]:
    → "Top o' the day t' ya, [guv'na/missus]! Woul' ya like t' try yer luck at diggin' for the sparkly wit' yer 'bo?"
  4: 0x0AEC [0x23] WAIT_FOR_DIALOG_INTERACTION
  5: 0x0AED [0x2B] Collione (ID: 17719603/0x010E6133) [12113*]:
    → "Wai' one min'it there... You ain't got no reggied 'bo in the stables, do ya?"
  6: 0x0AF4 [0x23] WAIT_FOR_DIALOG_INTERACTION
  7: 0x0AF5 [0x2B] Collione (ID: 17719603/0x010E6133) [12114*]:
    → "Well, then you'd bet'er jus' move along all nice-like, aight?"
  8: 0x0AFC [0x23] WAIT_FOR_DIALOG_INTERACTION
  9: 0x0AFD [0x66] LOAD_EXT_SCHEDULER_MAIN: Load scheduler "tlb1" with entities [Collione (ID: 17719603/0x010E6133), Collione (ID: 17719603/0x010E6133)], work=30*
 10: 0x0B0C [0x21] END_EVENT
 11: 0x0B0D [0x00] END_REQSTACK()
```
