# 17719299 - Ephauge

## Common Data

| Field            | Value                         |
|------------------|-------------------------------|
| Zone             | Southern San d'Oria (ID: 230) |
| Block Size       | 516 bytes                     |
| Total Events     | 12                            |
| References Count | 32                            |

## List of Events

| Event ID                 | Entrypoint   |   Size |   Instructions |
|--------------------------|--------------|--------|----------------|
| [65535](#event-65535)    | 0x0000       |      1 |              1 |
| [0](#event-0)            | 0x0001       |      1 |              1 |
| [581](#event-581)        | 0x0002       |     36 |             10 |
| [945](#event-945)        | 0x0026       |     10 |              2 |
| [65535.1](#event-655351) | 0x0030       |     15 |              5 |
| [65535.2](#event-655352) | 0x003F       |     68 |             12 |
| [65535.3](#event-655353) | 0x0083       |     45 |              9 |
| [65535.4](#event-655354) | 0x00B0       |     89 |             16 |
| [65535.5](#event-655355) | 0x0109       |     15 |              5 |
| [65535.6](#event-655356) | 0x0118       |     10 |              2 |
| [65535.7](#event-655357) | 0x0122       |     15 |              5 |
| [65535.8](#event-655358) | 0x0131       |     18 |              6 |

## DAT References (imed_data)

|   Index | Hex Value   |   Dec Value |
|---------|-------------|-------------|
|       0 | 0x0014      |          20 |
|       1 | 0x200B      |        8203 |
|       2 | 0x001E      |          30 |
|       3 | 0x0060      |          96 |
|       4 | 0x0001      |           1 |
|       5 | 0x000B      |          11 |
|       6 | 0xF906      |       63750 |
|       7 | 0xFFFFC4F8  |  4294952184 |
|       8 | 0x07CF      |        1999 |
|       9 | 0x0013      |          19 |
|      10 | 0x7FC6      |       32710 |
|      11 | 0xFFFF82CC  |  4294935244 |
|      12 | 0x004B      |          75 |
|      13 | 0x0027      |          39 |
|      14 | 0x4B65      |       19301 |
|      15 | 0xFFFF927C  |  4294939260 |
|      16 | 0x001D      |          29 |
|      17 | 0x000D      |          13 |
|      18 | 0xFFFFE0FB  |  4294959355 |
|      19 | 0xFFFFFCD8  |  4294966488 |
|      20 | 0x0078      |         120 |
|      21 | 0xFFFFBEF4  |  4294950644 |
|      22 | 0xFFFFD7DD  |  4294957021 |
|      23 | 0xFFFFDD9F  |  4294958495 |
|      24 | 0xFFFFA44E  |  4294943822 |
|      25 | 0x007F      |         127 |
|      26 | 0x0028      |          40 |
|      27 | 0x3192      |       12690 |
|      28 | 0xFFFFCF7D  |  4294954877 |
|      29 | 0x0025      |          37 |
|      30 | 0x2E04      |       11780 |
|      31 | 0xFFFFCBDF  |  4294953951 |

## String References

- **8203**: Beyond the arch lies Northern San d'Oria, where Chateau d'Oraguille, the cathedral, and the consulates of allied nations stand.

## Events

### Event 65535

#### Metadata

| Field        | Value   |
|--------------|---------|
| Entrypoint   | 0x0000  |
| Data Size    | 1 bytes |
| Instructions | 1       |

```
      00 01 02 03 04 05 06 07  08 09 0A 0B 0C 0D 0E 0F
      -- -- -- -- -- -- -- --  -- -- -- -- -- -- -- --
0000: 00                                                .               
```

#### Opcodes

```
  0: 0x0000 [0x00] END_REQSTACK()
```

### Event 0

#### Metadata

| Field        | Value   |
|--------------|---------|
| Entrypoint   | 0x0001  |
| Data Size    | 1 bytes |
| Instructions | 1       |

```
      00 01 02 03 04 05 06 07  08 09 0A 0B 0C 0D 0E 0F
      -- -- -- -- -- -- -- --  -- -- -- -- -- -- -- --
0000:    00                                              .              
```

#### Opcodes

```
  0: 0x0001 [0x00] END_REQSTACK()
```

### Event 581

#### Metadata

| Field        | Value    |
|--------------|----------|
| Entrypoint   | 0x0002   |
| Data Size    | 36 bytes |
| Instructions | 10       |

```
      00 01 02 03 04 05 06 07  08 09 0A 0B 0C 0D 0E 0F
      -- -- -- -- -- -- -- --  -- -- -- -- -- -- -- --
0000:       1E F0 FF FF 7F 6F  70 66 00 80 F8 FF FF 7F    .....opf......
0010: F8 FF FF 7F 74 6C 6B 30  1D 01 80 23 5E 69 64 6C  ....tlk0...#^idl
0020: 30 1C 02 80 21 00                                 0...!.          
```

#### Opcodes

```
  0: 0x0002 [0x1E] EventEntity looks at LocalPlayer and starts talking
  1: 0x0007 [0x6F] WAIT_FRAME_DELAY: Yield until WaitTime reaches zero
  2: 0x0008 [0x70] WAIT_ENTITY_RENDER_FLAG: Wait while EventEntity->Render.Flags3 bit 2 is set (cancel turn if not)
  3: 0x0009 [0x66] LOAD_EXT_SCHEDULER_MAIN: Load scheduler "tlk0" with entities [EventEntity, EventEntity], work=20*
  4: 0x0018 [0x1D] PRINT_EVENT_MESSAGE(message_id=8203*)
    → "Beyond the arch lies Northern San d'Oria, where Chateau d'Oraguille, the cathedral, and the consulates of allied nations stand."
  5: 0x001B [0x23] WAIT_FOR_DIALOG_INTERACTION
  6: 0x001C [0x5E] EventEntity goes idle (kills current action) (animation: "idl0")
  7: 0x0021 [0x1C] WAIT(30* ticks)
  8: 0x0024 [0x21] END_EVENT
  9: 0x0025 [0x00] END_REQSTACK()
```

### Event 945

#### Metadata

| Field        | Value    |
|--------------|----------|
| Entrypoint   | 0x0026   |
| Data Size    | 10 bytes |
| Instructions | 2        |

```
      00 01 02 03 04 05 06 07  08 09 0A 0B 0C 0D 0E 0F
      -- -- -- -- -- -- -- --  -- -- -- -- -- -- -- --
0020:                   6C F8  FF FF 7F 03 80 04 80 00        l.........
```

#### Opcodes

```
  0: 0x0026 [0x6C] FADE_ENTITY_COLOR(entity_id=EventEntity, end_alpha=96*, fade_time=1*)
  1: 0x002F [0x00] END_REQSTACK()
```

### Event 65535.1

#### Metadata

| Field        | Value    |
|--------------|----------|
| Entrypoint   | 0x0030   |
| Data Size    | 15 bytes |
| Instructions | 5        |

```
      00 01 02 03 04 05 06 07  08 09 0A 0B 0C 0D 0E 0F
      -- -- -- -- -- -- -- --  -- -- -- -- -- -- -- --
0030: 32 05 80 1F 00 06 80 07  80 08 80 1F 01 6F 00     2............o. 
```

#### Opcodes

```
  0: 0x0030 [0x32] ExtData[1]->MainSpeed = 11* * 0.1
  1: 0x0033 [0x1F] MOVE_ENTITY: EventEntity moves to X=63.750*, Z=-15.112*, Y=1.999*
  2: 0x003B [0x1F] MOVE_ENTITY: Update entity position (mode=1)
  3: 0x003D [0x6F] WAIT_FRAME_DELAY: Yield until WaitTime reaches zero
  4: 0x003E [0x00] END_REQSTACK()
```

### Event 65535.2

#### Metadata

| Field        | Value    |
|--------------|----------|
| Entrypoint   | 0x003F   |
| Data Size    | 68 bytes |
| Instructions | 12       |

```
      00 01 02 03 04 05 06 07  08 09 0A 0B 0C 0D 0E 0F
      -- -- -- -- -- -- -- --  -- -- -- -- -- -- -- --
0030:                                               32                 2
0040: 09 80 1F 00 0A 80 0B 80  08 80 1F 01 6F 1E 3D 60  ............o.=`
0050: 0E 01 6F 76 F8 FF FF 7F  4A 3D 60 0E 01 F8 FF FF  ..ov....J=`.....
0060: 7F 5B 0C 80 F8 FF FF 7F  F8 FF FF 7F 74 6C 6B 30  .[..........tlk0
0070: 1C 02 80 5B 0C 80 3D 60  0E 01 3D 60 0E 01 74 68  ...[..=`..=`..th
0080: 6B 30 00                                          k0.             
```

#### Opcodes

```
  0: 0x003F [0x32] ExtData[1]->MainSpeed = 19* * 0.1
  1: 0x0042 [0x1F] MOVE_ENTITY: EventEntity moves to X=32.710*, Z=-32.052*, Y=1.999*
  2: 0x004A [0x1F] MOVE_ENTITY: Update entity position (mode=1)
  3: 0x004C [0x6F] WAIT_FRAME_DELAY: Yield until WaitTime reaches zero
  4: 0x004D [0x1E] EventEntity looks at Authere (ID: 17719357/0x010E603D) and starts talking
  5: 0x0052 [0x6F] WAIT_FRAME_DELAY: Yield until WaitTime reaches zero
  6: 0x0053 [0x76] CHECK_ENTITY_RENDER_FLAGS: Wait until EventEntity Render.Flags0 and Render.Flags3 conditions are met
  7: 0x0058 [0x4A] Authere (ID: 17719357/0x010E603D) looks at EventEntity
  8: 0x0061 [0x5B] LOAD_EXT_SCHEDULER: Load scheduler "tlk0" with entities [EventEntity, EventEntity], work=75*
  9: 0x0070 [0x1C] WAIT(30* ticks)
 10: 0x0073 [0x5B] LOAD_EXT_SCHEDULER: Load scheduler "thk0" with entities [Authere (ID: 17719357/0x010E603D), Authere (ID: 17719357/0x010E603D)], work=75*
 11: 0x0082 [0x00] END_REQSTACK()
```

### Event 65535.3

#### Metadata

| Field        | Value    |
|--------------|----------|
| Entrypoint   | 0x0083   |
| Data Size    | 45 bytes |
| Instructions | 9        |

```
      00 01 02 03 04 05 06 07  08 09 0A 0B 0C 0D 0E 0F
      -- -- -- -- -- -- -- --  -- -- -- -- -- -- -- --
0080:          32 0D 80 1F 00  0E 80 0F 80 08 80 1F 01     2............
0090: 6F 4A 72 60 0E 01 F8 FF  FF 7F 6F 76 72 60 0E 01  oJr`......ovr`..
00A0: 66 10 80 72 60 0E 01 72  60 0E 01 74 77 61 30 00  f..r`..r`..twa0.
```

#### Opcodes

```
  0: 0x0083 [0x32] ExtData[1]->MainSpeed = 39* * 0.1
  1: 0x0086 [0x1F] MOVE_ENTITY: EventEntity moves to X=19.301*, Z=-28.036*, Y=1.999*
  2: 0x008E [0x1F] MOVE_ENTITY: Update entity position (mode=1)
  3: 0x0090 [0x6F] WAIT_FRAME_DELAY: Yield until WaitTime reaches zero
  4: 0x0091 [0x4A] Vaquelage (ID: 17719410/0x010E6072) looks at EventEntity
  5: 0x009A [0x6F] WAIT_FRAME_DELAY: Yield until WaitTime reaches zero
  6: 0x009B [0x76] CHECK_ENTITY_RENDER_FLAGS: Wait until Vaquelage (ID: 17719410/0x010E6072) Render.Flags0 and Render.Flags3 conditions are met
  7: 0x00A0 [0x66] LOAD_EXT_SCHEDULER_MAIN: Load scheduler "twa0" with entities [Vaquelage (ID: 17719410/0x010E6072), Vaquelage (ID: 17719410/0x010E6072)], work=29*
  8: 0x00AF [0x00] END_REQSTACK()
```

### Event 65535.4

#### Metadata

| Field        | Value    |
|--------------|----------|
| Entrypoint   | 0x00B0   |
| Data Size    | 89 bytes |
| Instructions | 16       |

```
      00 01 02 03 04 05 06 07  08 09 0A 0B 0C 0D 0E 0F
      -- -- -- -- -- -- -- --  -- -- -- -- -- -- -- --
00B0: 32 11 80 1F 00 12 80 13  80 08 80 1F 01 6F 79 00  2............oy.
00C0: F8 FF FF 7F 7E 60 0E 01  4A 7E 60 0E 01 F8 FF FF  ....~`..J~`.....
00D0: 7F 6F 76 7E 60 0E 01 5B  0D 80 7E 60 0E 01 7E 60  .ov~`..[..~`..~`
00E0: 0E 01 74 6C 6B 30 1C 14  80 5B 0D 80 7E 60 0E 01  ..tlk0...[..~`..
00F0: 7E 60 0E 01 74 6C 6B 31  7B F8 FF FF 7F 1F 00 15  ~`..tlk1{.......
0100: 80 16 80 08 80 1F 01 6F  00                       .......o.       
```

#### Opcodes

```
  0: 0x00B0 [0x32] ExtData[1]->MainSpeed = 13* * 0.1
  1: 0x00B3 [0x1F] MOVE_ENTITY: EventEntity moves to X=-7.941*, Z=-0.808*, Y=1.999*
  2: 0x00BB [0x1F] MOVE_ENTITY: Update entity position (mode=1)
  3: 0x00BD [0x6F] WAIT_FRAME_DELAY: Yield until WaitTime reaches zero
  4: 0x00BE [0x79] EventEntity looks at Ailevia (ID: 17719422/0x010E607E) (Basic look)
  5: 0x00C8 [0x4A] Ailevia (ID: 17719422/0x010E607E) looks at EventEntity
  6: 0x00D1 [0x6F] WAIT_FRAME_DELAY: Yield until WaitTime reaches zero
  7: 0x00D2 [0x76] CHECK_ENTITY_RENDER_FLAGS: Wait until Ailevia (ID: 17719422/0x010E607E) Render.Flags0 and Render.Flags3 conditions are met
  8: 0x00D7 [0x5B] LOAD_EXT_SCHEDULER: Load scheduler "tlk0" with entities [Ailevia (ID: 17719422/0x010E607E), Ailevia (ID: 17719422/0x010E607E)], work=39*
  9: 0x00E6 [0x1C] WAIT(120* ticks)
 10: 0x00E9 [0x5B] LOAD_EXT_SCHEDULER: Load scheduler "tlk1" with entities [Ailevia (ID: 17719422/0x010E607E), Ailevia (ID: 17719422/0x010E607E)], work=39*
 11: 0x00F8 [0x7B] EventEntity stops talking
 12: 0x00FD [0x1F] MOVE_ENTITY: EventEntity moves to X=-16.652*, Z=-10.275*, Y=1.999*
 13: 0x0105 [0x1F] MOVE_ENTITY: Update entity position (mode=1)
 14: 0x0107 [0x6F] WAIT_FRAME_DELAY: Yield until WaitTime reaches zero
 15: 0x0108 [0x00] END_REQSTACK()
```

### Event 65535.5

#### Metadata

| Field        | Value    |
|--------------|----------|
| Entrypoint   | 0x0109   |
| Data Size    | 15 bytes |
| Instructions | 5        |

```
      00 01 02 03 04 05 06 07  08 09 0A 0B 0C 0D 0E 0F
      -- -- -- -- -- -- -- --  -- -- -- -- -- -- -- --
0100:                             32 05 80 1F 00 17 80           2......
0110: 18 80 08 80 1F 01 6F 00                           ......o.        
```

#### Opcodes

```
  0: 0x0109 [0x32] ExtData[1]->MainSpeed = 11* * 0.1
  1: 0x010C [0x1F] MOVE_ENTITY: EventEntity moves to X=-8.801*, Z=-23.474*, Y=1.999*
  2: 0x0114 [0x1F] MOVE_ENTITY: Update entity position (mode=1)
  3: 0x0116 [0x6F] WAIT_FRAME_DELAY: Yield until WaitTime reaches zero
  4: 0x0117 [0x00] END_REQSTACK()
```

### Event 65535.6

#### Metadata

| Field        | Value    |
|--------------|----------|
| Entrypoint   | 0x0118   |
| Data Size    | 10 bytes |
| Instructions | 2        |

```
      00 01 02 03 04 05 06 07  08 09 0A 0B 0C 0D 0E 0F
      -- -- -- -- -- -- -- --  -- -- -- -- -- -- -- --
0110:                          6C F8 FF FF 7F 19 80 04          l.......
0120: 80 00                                             ..              
```

#### Opcodes

```
  0: 0x0118 [0x6C] FADE_ENTITY_COLOR(entity_id=EventEntity, end_alpha=127*, fade_time=1*)
  1: 0x0121 [0x00] END_REQSTACK()
```

### Event 65535.7

#### Metadata

| Field        | Value    |
|--------------|----------|
| Entrypoint   | 0x0122   |
| Data Size    | 15 bytes |
| Instructions | 5        |

```
      00 01 02 03 04 05 06 07  08 09 0A 0B 0C 0D 0E 0F
      -- -- -- -- -- -- -- --  -- -- -- -- -- -- -- --
0120:       32 1A 80 1F 00 1B  80 1C 80 08 80 1F 01 6F    2............o
0130: 00                                                .               
```

#### Opcodes

```
  0: 0x0122 [0x32] ExtData[1]->MainSpeed = 40* * 0.1
  1: 0x0125 [0x1F] MOVE_ENTITY: EventEntity moves to X=12.690*, Z=-12.419*, Y=1.999*
  2: 0x012D [0x1F] MOVE_ENTITY: Update entity position (mode=1)
  3: 0x012F [0x6F] WAIT_FRAME_DELAY: Yield until WaitTime reaches zero
  4: 0x0130 [0x00] END_REQSTACK()
```

### Event 65535.8

#### Metadata

| Field        | Value    |
|--------------|----------|
| Entrypoint   | 0x0131   |
| Data Size    | 18 bytes |
| Instructions | 6        |

```
      00 01 02 03 04 05 06 07  08 09 0A 0B 0C 0D 0E 0F
      -- -- -- -- -- -- -- --  -- -- -- -- -- -- -- --
0130:    1C 02 80 32 1D 80 1F  00 1E 80 1F 80 08 80 1F   ...2...........
0140: 01 6F 00                                          .o.             
```

#### Opcodes

```
  0: 0x0131 [0x1C] WAIT(30* ticks)
  1: 0x0134 [0x32] ExtData[1]->MainSpeed = 37* * 0.1
  2: 0x0137 [0x1F] MOVE_ENTITY: EventEntity moves to X=11.780*, Z=-13.345*, Y=1.999*
  3: 0x013F [0x1F] MOVE_ENTITY: Update entity position (mode=1)
  4: 0x0141 [0x6F] WAIT_FRAME_DELAY: Yield until WaitTime reaches zero
  5: 0x0142 [0x00] END_REQSTACK()
```
