# 17719379 - Faulpie

## Common Data

| Field            | Value                         |
|------------------|-------------------------------|
| Zone             | Southern San d'Oria (ID: 230) |
| Block Size       | 10160 bytes                   |
| Total Events     | 41                            |
| References Count | 295                           |

## List of Events

| Event ID                 | Entrypoint   |   Size |   Instructions |
|--------------------------|--------------|--------|----------------|
| [65535](#event-65535)    | 0x0000       |      1 |              1 |
| [648](#event-648)        | 0x0001       |   1972 |            474 |
| [649](#event-649)        | 0x07B5       |    287 |             70 |
| [760](#event-760)        | 0x08D4       |    372 |             45 |
| [761](#event-761)        | 0x0A48       |    107 |             32 |
| [762](#event-762)        | 0x0AB3       |     11 |              5 |
| [763](#event-763)        | 0x0ABE       |     11 |              5 |
| [764](#event-764)        | 0x0AC9       |    169 |             49 |
| [765](#event-765)        | 0x0B72       |    523 |             78 |
| [770](#event-770)        | 0x0D7D       |    372 |             45 |
| [771](#event-771)        | 0x0EF1       |    107 |             32 |
| [772](#event-772)        | 0x0F5C       |     11 |              5 |
| [773](#event-773)        | 0x0F67       |     11 |              5 |
| [774](#event-774)        | 0x0F72       |    169 |             49 |
| [775](#event-775)        | 0x101B       |    533 |             80 |
| [944](#event-944)        | 0x1230       |    114 |             24 |
| [3558](#event-3558)      | 0x12A2       |    131 |             24 |
| [3565](#event-3565)      | 0x1325       |    134 |             24 |
| [3559](#event-3559)      | 0x13AB       |    118 |             27 |
| [3560](#event-3560)      | 0x1421       |    229 |             60 |
| [3567](#event-3567)      | 0x1506       |    195 |             47 |
| [3576](#event-3576)      | 0x15C9       |    269 |             60 |
| [3587](#event-3587)      | 0x16D6       |    122 |             30 |
| [3582](#event-3582)      | 0x1750       |    176 |             39 |
| [3581](#event-3581)      | 0x1800       |    235 |             52 |
| [3583](#event-3583)      | 0x18EB       |     78 |             16 |
| [3561](#event-3561)      | 0x1939       |    174 |             35 |
| [3568](#event-3568)      | 0x19E7       |    138 |             30 |
| [3577](#event-3577)      | 0x1A71       |    142 |             32 |
| [3588](#event-3588)      | 0x1AFF       |    134 |             28 |
| [3562](#event-3562)      | 0x1B85       |     91 |             23 |
| [3589](#event-3589)      | 0x1BE0       |     91 |             15 |
| [3572](#event-3572)      | 0x1C3B       |     75 |             17 |
| [3564](#event-3564)      | 0x1C86       |    171 |             34 |
| [3571](#event-3571)      | 0x1D31       |    127 |             25 |
| [3580](#event-3580)      | 0x1DB0       |    180 |             37 |
| [3591](#event-3591)      | 0x1E64       |    102 |             20 |
| [3592](#event-3592)      | 0x1ECA       |    116 |             24 |
| [3563](#event-3563)      | 0x1F3E       |    786 |            146 |
| [914](#event-914)        | 0x2250       |      1 |              1 |
| [65535.1](#event-655351) | 0x2251       |     14 |              4 |

## DAT References (imed_data)

|   Index | Hex Value   |   Dec Value |
|---------|-------------|-------------|
|       0 | 0x0009      |           9 |
|       1 | 0x000A      |          10 |
|       2 | 0x0005      |           5 |
|       3 | 0x0000      |           0 |
|       4 | 0x0010      |          16 |
|       5 | 0x0002      |           2 |
|       6 | 0x001E      |          30 |
|       7 | 0x1B98      |        7064 |
|       8 | 0x1B99      |        7065 |
|       9 | 0x1B9A      |        7066 |
|      10 | 0x1B9B      |        7067 |
|      11 | 0x1ACD      |        6861 |
|      12 | 0x0001      |           1 |
|      13 | 0x0031      |          49 |
|      14 | 0x0032      |          50 |
|      15 | 0x0003      |           3 |
|      16 | 0x0033      |          51 |
|      17 | 0x0004      |           4 |
|      18 | 0x0034      |          52 |
|      19 | 0x0035      |          53 |
|      20 | 0x1B9C      |        7068 |
|      21 | 0x1B9D      |        7069 |
|      22 | 0x0006      |           6 |
|      23 | 0x0036      |          54 |
|      24 | 0x0007      |           7 |
|      25 | 0x0037      |          55 |
|      26 | 0x0008      |           8 |
|      27 | 0x0038      |          56 |
|      28 | 0x1ACE      |        6862 |
|      29 | 0x1ACF      |        6863 |
|      30 | 0x006E      |         110 |
|      31 | 0x1AD8      |        6872 |
|      32 | 0x0046      |          70 |
|      33 | 0x1B93      |        7059 |
|      34 | 0x1B94      |        7060 |
|      35 | 0x1B95      |        7061 |
|      36 | 0x1B96      |        7062 |
|      37 | 0x0064      |         100 |
|      38 | 0x2951      |       10577 |
|      39 | 0x1B8F      |        7055 |
|      40 | 0x1B8E      |        7054 |
|      41 | 0x07E3      |        2019 |
|      42 | 0x1B8C      |        7052 |
|      43 | 0x1B8D      |        7053 |
|      44 | 0x1B8B      |        7051 |
|      45 | 0x1B89      |        7049 |
|      46 | 0x1B86      |        7046 |
|      47 | 0x1B87      |        7047 |
|      48 | 0x1B88      |        7048 |
|      49 | 0x1B8A      |        7050 |
|      50 | 0x000B      |          11 |
|      51 | 0x000C      |          12 |
|      52 | 0x0078      |         120 |
|      53 | 0x000D      |          13 |
|      54 | 0x0082      |         130 |
|      55 | 0x1ADA      |        6874 |
|      56 | 0x1ADB      |        6875 |
|      57 | 0x1AD9      |        6873 |
|      58 | 0x1AD1      |        6865 |
|      59 | 0x1A99      |        6809 |
|      60 | 0x1AD3      |        6867 |
|      61 | 0x1AD4      |        6868 |
|      62 | 0x1AD5      |        6869 |
|      63 | 0x1AD6      |        6870 |
|      64 | 0x1AD7      |        6871 |
|      65 | 0x1AD2      |        6866 |
|      66 | 0x000E      |          14 |
|      67 | 0x000F      |          15 |
|      68 | 0x008E      |         142 |
|      69 | 0x1A9F      |        6815 |
|      70 | 0x1AC5      |        6853 |
|      71 | 0x1AA3      |        6819 |
|      72 | 0x1AA2      |        6818 |
|      73 | 0x1AA1      |        6817 |
|      74 | 0x1AA0      |        6816 |
|      75 | 0x1ADC      |        6876 |
|      76 | 0x1ADD      |        6877 |
|      77 | 0x1AF9      |        6905 |
|      78 | 0x1ADE      |        6878 |
|      79 | 0x1B97      |        7063 |
|      80 | 0x1ADF      |        6879 |
|      81 | 0x1AE0      |        6880 |
|      82 | 0x1B90      |        7056 |
|      83 | 0x1B91      |        7057 |
|      84 | 0x1B92      |        7058 |
|      85 | 0x00C9      |         201 |
|      86 | 0x1A9C      |        6812 |
|      87 | 0x0146      |         326 |
|      88 | 0x00C8      |         200 |
|      89 | 0x065C      |        1628 |
|      90 | 0x0353      |         851 |
|      91 | 0x2710      |       10000 |
|      92 | 0x1B02      |        6914 |
|      93 | 0x002D      |          45 |
|      94 | 0x1B03      |        6915 |
|      95 | 0x1B04      |        6916 |
|      96 | 0x1B05      |        6917 |
|      97 | 0x1B06      |        6918 |
|      98 | 0x1B07      |        6919 |
|      99 | 0x1B08      |        6920 |
|     100 | 0x1B09      |        6921 |
|     101 | 0x1B0A      |        6922 |
|     102 | 0x40000000  |  1073741824 |
|     103 | 0x1B0B      |        6923 |
|     104 | 0x1B0D      |        6925 |
|     105 | 0x1B13      |        6931 |
|     106 | 0x0749      |        1865 |
|     107 | 0x186A0     |      100000 |
|     108 | 0x1B0E      |        6926 |
|     109 | 0x1B0F      |        6927 |
|     110 | 0x1B10      |        6928 |
|     111 | 0x1B11      |        6929 |
|     112 | 0x1B12      |        6930 |
|     113 | 0x1003      |        4099 |
|     114 | 0x0296      |         662 |
|     115 | 0x0333      |         819 |
|     116 | 0x0334      |         820 |
|     117 | 0x048B      |        1163 |
|     118 | 0x0319      |         793 |
|     119 | 0x1B14      |        6932 |
|     120 | 0x1B15      |        6933 |
|     121 | 0x1B16      |        6934 |
|     122 | 0x1B17      |        6935 |
|     123 | 0x0021      |          33 |
|     124 | 0x1B18      |        6936 |
|     125 | 0x1B19      |        6937 |
|     126 | 0x1B1A      |        6938 |
|     127 | 0x1B1B      |        6939 |
|     128 | 0x1B1C      |        6940 |
|     129 | 0x1B1D      |        6941 |
|     130 | 0x1B1E      |        6942 |
|     131 | 0x1B1F      |        6943 |
|     132 | 0x1B20      |        6944 |
|     133 | 0x1B21      |        6945 |
|     134 | 0x0352      |         850 |
|     135 | 0x1B22      |        6946 |
|     136 | 0x1B23      |        6947 |
|     137 | 0x1B24      |        6948 |
|     138 | 0x1B25      |        6949 |
|     139 | 0x1B26      |        6950 |
|     140 | 0x1B27      |        6951 |
|     141 | 0x1B28      |        6952 |
|     142 | 0x1B2E      |        6958 |
|     143 | 0x074C      |        1868 |
|     144 | 0x1B29      |        6953 |
|     145 | 0x1B2A      |        6954 |
|     146 | 0x1B2B      |        6955 |
|     147 | 0x1B2C      |        6956 |
|     148 | 0x1B2D      |        6957 |
|     149 | 0x029A      |         666 |
|     150 | 0x033A      |         826 |
|     151 | 0x0351      |         849 |
|     152 | 0x0673      |        1651 |
|     153 | 0x0455      |        1109 |
|     154 | 0x1B2F      |        6959 |
|     155 | 0x1B30      |        6960 |
|     156 | 0x1B31      |        6961 |
|     157 | 0x1B32      |        6962 |
|     158 | 0x1B33      |        6963 |
|     159 | 0x1B34      |        6964 |
|     160 | 0x1B35      |        6965 |
|     161 | 0x1B36      |        6966 |
|     162 | 0x1B37      |        6967 |
|     163 | 0x1B38      |        6968 |
|     164 | 0x1B39      |        6969 |
|     165 | 0x1B3A      |        6970 |
|     166 | 0x1B3B      |        6971 |
|     167 | 0x1B3C      |        6972 |
|     168 | 0x1B43      |        6979 |
|     169 | 0x1B44      |        6980 |
|     170 | 0x1B45      |        6981 |
|     171 | 0x402F      |       16431 |
|     172 | 0x4030      |       16432 |
|     173 | 0x403F      |       16447 |
|     174 | 0x4040      |       16448 |
|     175 | 0x401C      |       16412 |
|     176 | 0x0027      |          39 |
|     177 | 0x401D      |       16413 |
|     178 | 0x401E      |       16414 |
|     179 | 0x401F      |       16415 |
|     180 | 0x4020      |       16416 |
|     181 | 0x4021      |       16417 |
|     182 | 0x4022      |       16418 |
|     183 | 0x4023      |       16419 |
|     184 | 0x4024      |       16420 |
|     185 | 0x4025      |       16421 |
|     186 | 0x4026      |       16422 |
|     187 | 0x4027      |       16423 |
|     188 | 0x4028      |       16424 |
|     189 | 0x4029      |       16425 |
|     190 | 0x402A      |       16426 |
|     191 | 0x402B      |       16427 |
|     192 | 0x402C      |       16428 |
|     193 | 0x402D      |       16429 |
|     194 | 0x402E      |       16430 |
|     195 | 0x4041      |       16449 |
|     196 | 0x4042      |       16450 |
|     197 | 0x4043      |       16451 |
|     198 | 0x4044      |       16452 |
|     199 | 0x4045      |       16453 |
|     200 | 0x4046      |       16454 |
|     201 | 0x4047      |       16455 |
|     202 | 0x4048      |       16456 |
|     203 | 0x4049      |       16457 |
|     204 | 0x404A      |       16458 |
|     205 | 0x404B      |       16459 |
|     206 | 0x4056      |       16470 |
|     207 | 0x0015      |          21 |
|     208 | 0x4057      |       16471 |
|     209 | 0x4058      |       16472 |
|     210 | 0x4059      |       16473 |
|     211 | 0x405A      |       16474 |
|     212 | 0x405B      |       16475 |
|     213 | 0x405C      |       16476 |
|     214 | 0x405D      |       16477 |
|     215 | 0x405E      |       16478 |
|     216 | 0x405F      |       16479 |
|     217 | 0x4060      |       16480 |
|     218 | 0x4061      |       16481 |
|     219 | 0x4067      |       16487 |
|     220 | 0x407A      |       16506 |
|     221 | 0x407B      |       16507 |
|     222 | 0x407C      |       16508 |
|     223 | 0x407D      |       16509 |
|     224 | 0x407E      |       16510 |
|     225 | 0x407F      |       16511 |
|     226 | 0xFFFFFFFF  |  4294967295 |
|     227 | 0x4070      |       16496 |
|     228 | 0x4071      |       16497 |
|     229 | 0x4068      |       16488 |
|     230 | 0x4069      |       16489 |
|     231 | 0x406A      |       16490 |
|     232 | 0x406B      |       16491 |
|     233 | 0x406C      |       16492 |
|     234 | 0x406D      |       16493 |
|     235 | 0x406E      |       16494 |
|     236 | 0x406F      |       16495 |
|     237 | 0x4072      |       16498 |
|     238 | 0x4073      |       16499 |
|     239 | 0x4074      |       16500 |
|     240 | 0x4031      |       16433 |
|     241 | 0x003C      |          60 |
|     242 | 0x4032      |       16434 |
|     243 | 0x4033      |       16435 |
|     244 | 0x4034      |       16436 |
|     245 | 0x4035      |       16437 |
|     246 | 0x4036      |       16438 |
|     247 | 0x404C      |       16460 |
|     248 | 0x404D      |       16461 |
|     249 | 0x404E      |       16462 |
|     250 | 0x404F      |       16463 |
|     251 | 0x4050      |       16464 |
|     252 | 0x4075      |       16501 |
|     253 | 0x4080      |       16512 |
|     254 | 0x4037      |       16439 |
|     255 | 0x4038      |       16440 |
|     256 | 0x4039      |       16441 |
|     257 | 0x4085      |       16517 |
|     258 | 0x4086      |       16518 |
|     259 | 0x4055      |       16469 |
|     260 | 0x403A      |       16442 |
|     261 | 0x403B      |       16443 |
|     262 | 0x403C      |       16444 |
|     263 | 0x403D      |       16445 |
|     264 | 0x403E      |       16446 |
|     265 | 0x4051      |       16465 |
|     266 | 0x4052      |       16466 |
|     267 | 0x4053      |       16467 |
|     268 | 0x4054      |       16468 |
|     269 | 0x4076      |       16502 |
|     270 | 0x0025      |          37 |
|     271 | 0x4077      |       16503 |
|     272 | 0x4078      |       16504 |
|     273 | 0x4079      |       16505 |
|     274 | 0x4081      |       16513 |
|     275 | 0x4082      |       16514 |
|     276 | 0x4083      |       16515 |
|     277 | 0x4084      |       16516 |
|     278 | 0x4087      |       16519 |
|     279 | 0x4088      |       16520 |
|     280 | 0x4089      |       16521 |
|     281 | 0x408A      |       16522 |
|     282 | 0x408B      |       16523 |
|     283 | 0x4062      |       16482 |
|     284 | 0x4063      |       16483 |
|     285 | 0x4064      |       16484 |
|     286 | 0x4065      |       16485 |
|     287 | 0x4066      |       16486 |
|     288 | 0x0013      |          19 |
|     289 | 0x001D      |          29 |
|     290 | 0x003B      |          59 |
|     291 | 0x0045      |          69 |
|     292 | 0xFFFD29A8  |  4294781352 |
|     293 | 0x3025      |       12325 |
|     294 | 0xFFFFFC18  |  4294966296 |

## String References

- **6809**: Join the [Fishermen's/Carpenters'/Blacksmiths'/Goldsmiths'/Weavers'/Tanners'/Boneworkers'/Alchemists'/Culinarians'] Guild? [Sign up./That's not why you're here.]
- **6812**: You are now recognized as [an amateur/a recruit/an initiate/a novice/an apprentice/a journeyman/a craftsman/an artisan/an adept/a veteran/an expert/an authority/a luminary/a master/a grandmaster/a legend] of the [Fishermen's/Carpenters'/Blacksmiths'/Goldsmiths'/Weavers'/Tanners'/Boneworkers'/Alchemists'/Culinarians'] Guild.
- **6815**: Necessary skills: [Fishing/Woodworking/Smithing/Goldsmithing/Clothcraft/Leatherworking/Bonecraft/Alchemy/Cooking][ /, Woodworking/, Smithing/, Goldsmithing/, Clothcraft/, Leatherworking/, Bonecraft/, Alchemy/, Cooking][ /, Woodworking/, Smithing/, Goldsmithing/, Clothcraft/, Leatherworking/, Bonecraft/, Alchemy/, Cooking][ /, & Woodworking/, & Smithing/, & Goldsmithing/, & Clothcraft/, & Leatherworking/, & Bonecraft/, & Alchemy/, & Cooking] Necessary crystal: $4 Necessary items:
- **6816**: $4 x $0 $5 x $0$0 $6 x $0 $7 x $0$3
- **6817**: $4 x $0 $5 x $0$0 $6 x $0
- **6818**: $4 x $0 $5 x $0$0
- **6819**: $4 x $0
- **6853**: Necessary skills: [Fishing/Woodworking/Smithing/Goldsmithing/Clothcraft/Leatherworking/Bonecraft/Alchemy/Cooking][ /, Woodworking/, Smithing/, Goldsmithing/, Clothcraft/, Leatherworking/, Bonecraft/, Alchemy/, Cooking][ /, Woodworking/, Smithing/, Goldsmithing/, Clothcraft/, Leatherworking/, Bonecraft/, Alchemy/, Cooking][ /, & Woodworking/, & Smithing/, & Goldsmithing/, & Clothcraft/, & Leatherworking/, & Bonecraft/, & Alchemy/, & Cooking] Necessary crystal: $4 Necessary key item: $3 Necessary items:
- **6861**: Renounce your rank at which guild? [None./Carpenters'./Blacksmiths'./Goldsmiths'./Weavers'./Tanners'./Boneworkers'./Alchemists'./Culinarians'.]
- **6862**: If you proceed, your rank in the [Carpenters'/Blacksmiths'/Goldsmiths'/Weavers'/Tanners'/Boneworkers'/Alchemists'/Culinarians'] Guild will return to that of [craftsman/artisan/adept], and your skill value will revert to the maximum for that level. This procedure cannot be undone, so please consider your decision carefully.
- **6863**: Renounce your rank as a [Carpenter/Blacksmith/Goldsmith/Weaver/Tanner/Boneworker/Alchemist/Culinarian]? [No, retain./Yes, renounce.]
- **6865**: Welcome to the Tanners' Guild. We are a union for those in the tanning and leatherworking trade.
- **6866**: To each his own. But if you wish to remain here, please don't touch anything.
- **6867**: You must be one of those adventurers. I can tell by the fire in your eyes. For some reason this guild is popular with your type.
- **6868**: We shall start you off with crystal synthesis. Without it, it will be impossible for you to continue your adventures and your new craft.
- **6869**: Use a crystal, form an image of the completed product...and poof! Instant boots! Instant headbands!
- **6870**: But in order to form a perfect image of a product, you must practice, practice, practice. I'm sure you have heard this before, but we all learn from our mistakes.
- **6871**: If you wish, the others here will inform you of the materials you need to begin. They seem eager for you to join us.
- **6872**: One way to quickly improve your skills is by asking fellow adventurers to gather skins. Then you can repay them with the fruits of your labor.
- **6873**: My dream is to open shops all over Vana'diel. I am certain that with your help, it will become reality.
- **6874**: I can see you are ready to move on. I want you to make me $0.
- **6875**: If you succeed, I will grant you a new title and teach you new techniques.
- **6876**: Lovely work! You are now worthy of the title of [amateur/recruit/initiate/novice/apprentice]. Continue to challenge yourself and refine your skills.
- **6877**: Marvelous work! You are now worthy of the title of journeyman. People in the markets are beginning to talk about you.
- **6878**: Stupendous work! I am delighted to call you an artisan! Have you ever thought of starting your own line of products?
- **6879**: I am at a loss for words! There is little more that I can teach you. You are a true adept!
- **6880**: I don't know what to say... Did you really make this yourself? No, you had to have... I know of no one who can synthesize such beautiful work! Do you mind if I display this in the guild for all the younger members to see?
- **6905**: Such fabulous work! I am honored to call you a craftsman, and await your future creations with eager anticipation.
- **6914**: What brings you by my humble guild today, [sir/ma'am]? Perhaps you wish to place a special order?
- **6915**: ......
- **6916**: A costume to fool the Orcs... That may be more difficult than it sounds. You see, there may not be much in the way of gray matter between their stubby ears, but when it comes to hunting, their instincts play a much larger role than their eyesight.
- **6917**: However, if you insist... Faulpie is not one to back down from a challenge. While I work on a pattern, I will require that you procure the following two items: $0 and $1.
- **6918**: Oh, and as much as I'd like to do this out of the kindness of my heart, I do have a guild to run, so I am going to have to ask you to pay a small design fee of $2 gil. You understand, don't you?
- **6919**: It will be a few more days before I can finish the pattern for your costume. Please come by again later. Oh, and don't forget to bring the $0, $1, and the $2 gil I asked for.
- **6920**: Or...has the expense and time involved convinced you to abandon this venture?
- **6921**: If you choose to give up, the quest will be canceled and your quest log reset.
- **6922**: Cancel the quest? [Yes./No.]
- **6923**: Do you really wish to cancel the quest? [I really do./I guess I don't.]
- **6925**: Wonderful. Now that I have everything I require, I can begin working on the final product...... What? You didn't think I was going to be able to whip this together in a matter of minutes, did you?
- **6926**: Don't tell me that you lost the $0 I made for you, did you?
- **6927**: What happened? [My mauthe doog ate it./Oh, nothing.../Actually, I think I've had enough...]
- **6928**: ...Alright, alright. I will make you a new one, but this time it will cost you. I say about...$1 gil should cover everything.
- **6929**: Pay the $1 gil? [I guess I have no choice./Over my dead mauthe doog's body!]
- **6930**: I will start on it right away. Come back in a few days to pick it up.
- **6931**: I know that you must be in a hurry, but I haven't finished your order yet. Please come back later, [sir/ma'am].
- **6932**: Ah, just the [man/woman] I was looking for. Here is your order!
- **6933**: What? You were expecting something different? I'm sorry, but this is as much as I can do. The rest is up to you.
- **6934**: Take the $1, $2, $3, $4, two $5, and two $6, and synthesize them all together with $0.
- **6935**: Anyone that has spent more than a few days honing his or her leatherworking skills should have no problem at all.
- **6936**: And don't even think of telling me that you don't have enough skill. I know your work, and I know you have what it takes to complete this project. Now, as for your smithing and clothcraft skills, you'll have to be the judge on that...
- **6937**: Oh, don't worry. Believe in yourself, and anything...well, almost anything is possible!
- **6938**: What? You were expecting something different? I'm sorry, but this is as much as I can do. The rest is up to you.
- **6939**: You see, most of us here at the Tanners' Guild have lost friends or family to the Orcish fiends. Just looking at that pattern brings back a lot of terrible memories...
- **6940**: No, you will have to finish this project by yourself... But that might be a little easier said than done...
- **6941**: Hmmm... That's it!
- **6942**: Why not try to find a skilled tanner to assist you in crafting the mask? Here, let me give you the instructions on how to synthesize it...
- **6943**: I'm sure there are a lot of adepts out there who would be more than happy to lend you a hand.
- **6944**: (Just make sure they have also honed their skills in smithing and clothcrafting! We would not want any...accidents...)
- **6945**: Just do not forget to thank them, if you know what I mean!
- **6946**: What brings you by my humble guild today, [sir/ma'am]? Perhaps you wish to place a special order?
- **6947**: ......
- **6948**: You want to become a what? A Goblin? Hmmm... This will be quite more difficult than it seems. Though the stout little beastmen all appear to look alike, they are truly quite different.
- **6949**: However, I was never one to back down from a challenge! I shall try my hand at designing your costume. While I begin work on the design, I need you to fetch me $0 and $1.
- **6950**: Also, I will require a small fee of $2 gil. I have a guild to run, you know!
- **6951**: I am so sorry. I still require more time to finish the costume design. Please go and fetch the $0 and $1 I asked for while I work on it. Oh, and do not forget the $2-gil fee!
- **6952**: Welcome back! I have some good news and some bad news. The good news is, I have finished the design for your costume, and I must say, it is fabulous! The bad news is, it shall take me several more days to finish the final cutting...
- **6953**: Do not tell me that you lost the $0 I made for you, did you?
- **6954**: What happened? [My mauthe doog ate it./Oh, nothing.../Actually, I think I've had enough...]
- **6955**: ...Alright, alright. I will make you a new one, but this time it will cost you. I say about...$1 gil should cover everything.
- **6956**: Pay the $1 gil? [I guess I have no choice./Over my dead mauthe doog's body!]
- **6957**: Excellent. I will start on it right away. Come back in a few days to pick up the finished cutting.
- **6958**: I know that you must be in a hurry, but I have yet to complete the cutting. Reproducing the subtleties of the Goblins' ears is something that cannot be rushed!
- **6959**: Ah, you are just in time. I have just finished putting the final touches on the cutting for your costume.
- **6960**: Now, the rest is up to you, my fine tanner. Let me give you the list of the materials you shall require to complete the costume.
- **6961**: $1. E$2. E$3. E$4. E$5. E$6.
- **6962**: Oh, and do not forget two $7 for the mask's eyes and a single $0 to synthesize the parts all together. If all goes well, you will be a bona fide Goblin in no time!
- **6963**: Also, I suggest that you brush up on your smithing and clothcraft skills before attempting this feat...or maybe you already have been?
- **6964**: I am sorry. I do not mean to question your abilities. I have full faith in you, <Player>!
- **6965**: Now, all the rest is up to you! What? You did not think that I would complete the costume for you...did you?
- **6966**: Quite amusing! I am sorry if I misled you, [sir/ma'am], but neither I nor my colleagues here at the Tanners' Guild have any intention of crafting anything that even remotely reminds us of our number one rivals in the circles of leatherworking.
- **6967**: ...However, I also realize that you do not possess the skills to synthesize the final product yourself, and I do appreciate and value your business.
- **6968**: How about you search for one of my pupils and ask him or her to help you in your quest?
- **6969**: Here. Take down this list of ingredients...
- **6970**: A quick shout in Southern San d'Oria or Lower Jeuno, and volunteers will be lining up before you know it!
- **6971**: (Just make sure they are at least tanning adepts, and have also honed their skills in smithing and clothcrafting! We would not want any...accidents...)
- **6972**: Oh, and do not forget to thank them when they have finished their job!
- **6979**: You wish to synthesize $0? Ah, yes. Well do I know that recipe! Its creation requires a few $1.
- **6980**: In turn, making $0 requires $1 and $2. Toss $3 into the mix, and what you seek shall be yours.
- **6981**: I fear we haven't $0 here. But it should please you to know that skeletons dwelling within the Gusgen Mines are known to drop one on occasion.
- **7046**: You have distinguished yourself as [a veteran/an expert/an authority/a luminary/a master], but there remain leathercrafting techniques outside your repertoire. Do you wish to continue your training?
- **7047**: Continue your training? [Certainly!/Perhaps another time.]
- **7048**: Splendid! I knew you were going places from the day you first walked into our halls. To take the next step in your career as a tanner, you'll need to talk to Alivatand and procure a copy of $6.
- **7049**: Mind you, we aren't giving them away for free. Consider the fee in guild points a requisite part of your training.
- **7050**: Say it isn't so, <Player>! And here I thought we would open up shop together someday!
- **7051**: To take the next step in your career as a tanner, you'll need to talk to Alivatand and procure a copy of $6.
- **7052**: Now here's a [man/woman] who knows the contents of $6 like the back of [his/her] calloused hands.
- **7053**: What are we waiting for, then? As the next step in your training, I'd like you to craft for me $2. The necessary materials are...
- **7054**: And do not forget to carve your name into the leather. It's not that we don't trust you, of course, but rules are rules.
- **7055**: Forgotten your recipe, have you? Take heart: even the best of us have our off days. Anyhow, to make $2, you'll be needing...
- **7056**: Now this...this is a fine piece of leather! If anyone ever deserved the title of expert, it's you. I can hardly wait until the day we go into business together!
- **7057**: I must admit, <Player>. I expected better of you. The craftsmanship is passable, but it lacks a certain something...
- **7058**: And no wonder! Wherever is your signature? No, I'm afraid this won't do at all. Back to work for you.
- **7059**: I have watched you closely since you started here. I would like to see you make $0.
- **7060**: Succeed, and I will grant you the title of [artisan/adept/veteran]. You will then become a true member of our guild.
- **7061**: However, with that comes harder work and more difficult tasks.
- **7062**: Juggling the techniques of numerous guilds will only lead to trouble. If you are ready to commit to the Tanners' Guild, then make me the item I asked for.
- **7063**: Remember that mastering the techniques necessary to become [an artisan/an adept/a veteran] requires considerable focus and devotion. You will find it difficult, if not impossible, to maintain such a high level of skill in multiple disciplines.
- **7064**: We must talk, <Player>. I hear that you have been recognized as [an artisan/an adept/a veteran] at another guild.
- **7065**: Surely you realize that such diversions will stunt your leathercrafting skills? This cannot possibly be your intention.
- **7066**: Which is why you have returned to express your intention to relinquish any other [artisan/adept/veteran] titles you hold and redouble your efforts as a member of our guild.
- **7067**: I am correct, yes? Just tell me which guild you tire of, and I shall convey your decision to the guildmaster.
- **7068**: ...I see. Then it would seem we have nothing more to discuss.
- **7069**: I fail to see how any other craft could be as rewarding as leathercrafting, but to each [his/her] own.
- **16412**: Greetings to you. Hm? What is this shield you are carrying?
- **16413**: Ahh, now I see. You must have met with that woman who came from Adoulin.
- **16414**: Yes, I have heard the tale of this shield. It can supposedly increase one's crafting ability, yes?
- **16415**: Nothing would bring me more pleasure than for such a tale to be true.
- **16416**: I assume she has also rated your technique as highly as I do. Yes, it is always nice to receive validation, especially from those outside of our own circle.
- **16417**: Shall we begin? First, you will need the recipe. This is important, so please try not to forget it.
- **16418**: Let me see... For the necessary ingredients, you first need to obtain $1.
- **16419**: This particular item is used to increase the Craftsmanship of the $0 to its maximum value.
- **16420**: I actually have some notes here on the issue of Craftsmanship. Allow me to go over them with you.
- **16421**: You can increase Craftsmanship by crafting items that match up with your skill while you have the $0 equipped.
- **16422**: Craftsmanship will increase greatly when you fulfill certain conditions, but crafting the same item over and over again will reduce your gains, so try synthesizing something different if you run into trouble.
- **16423**: In its default state, the shield has the unfortunate tendency to lower the success rate of your crafting, but as its Craftsmanship rises, it mitigates that effect.
- **16424**: You can tell the Craftsmanship rating as well as the crafting success rate by looking at the shield. Good luck to you. Mwahaha...
- **16425**: That's all it says.
- **16426**: Once you have increased the Craftsmanship, come show the shield to me and I'll make the $1 for you.
- **16427**: Next, you'll need $2 and $3. I've entrusted them to Wolden-Bolden.
- **16428**: I assume you're no stranger to making deliveries. That's basically what you will need to do here.
- **16429**: Please speak to Wolden-Bolden if you need more details.
- **16430**: That's it for the ingredients. I'd like to see the shield after it's upgraded. I'm quite curious to see what it's capable of.
- **16431**: Don't tell me you forgot the recipe! Fine. Here it is again. Professionals really only need to hear these things once, you know.
- **16432**: Yes, you really have come a long way and are capable of making all kinds of wonderful things. I'm sure this will be no different.
- **16433**: Oh yes... This is exactly what I need to make the $0.
- **16434**: So this is the $0...
- **16435**: I can somewhat comprehend the technique to pour the soul of a craftsman into this shield and generate such a thing, but it is still impressive nonetheless.
- **16436**: Oh, I'm not sure if this is related, but in creating the $0, it seems to have reduced the Craftsmanship of the $1.
- **16437**: I don't surmise it to be much of a problem to upgrade the $1, but you might need to increase the Craftsmanship again if you ever need to make another $0.
- **16438**: That is clearly just a hypothetical of course. I mean, you would have to lose the item in order to need to make another one and you're much too responsible to let that happen.
- **16439**: Wait, are you trying to tell me that you lost the $0?
- **16440**: I suppose it can't be helped. Here, I'll make you another $0. Let me see your shield.
- **16441**: You are better than this. Losing important ingredients is something I expect from an apprentice, not you.
- **16442**: Ahh, I see you've made the upgrade. Do you mind if I take a closer look?
- **16443**: This is astonishing. The shape has changed, and I can feel a small surge of power emanating from it. Although, it is clearly still a work in progress.
- **16444**: Yes, I remember her saying that you needed to craft multiple times before it would reach the level you want it to be.
- **16445**: That reminds me, she wanted me to mark the shield when it was done. If I may?
- **16446**: There, that should do it.
- **16447**: Show this shield to Mewk Chorosap in Jeuno and you'll be set.
- **16448**: Oh, and please note that I often have deliveries for Wolden-Bolden. I hope you'll help me in my efforts to educate the more junior members of the guild.
- **16449**: Oh, I have been expecting you. She said you might come asking about how to upgrade the shield.
- **16450**: Allow me to tell you the recipe. This is important, so please try to remember it.
- **16451**: Did you get all of that?
- **16452**: Now, let me explain how to obtain the ingredients, starting with the $1.
- **16453**: You crafted while equipping the aspis before to increase its Craftsmanship, right? This is basically the same thing, as you will be equipping the $0 this time around.
- **16454**: However, you will really need to pour your spirit into the shield this time. It seems rather difficult compared to the last one.
- **16455**: Once the shield's Craftsmanship reaches 100%, bring it to me and I will make the $1 for you.
- **16456**: Next, in regards to the $2 and $3, I have left them with Wolden-Bolden.
- **16457**: Last is the $4. For it, I have enlisted the help of the A.M.A.N. to prepare some Records of Eminence objectives for you.
- **16458**: You will receive the $4 once you complete them. Please refer to the Records of Eminence menu for more details.
- **16459**: That covers the ingredients. I imagine it will take some time to gather them all, but I am positive that you can do it. Good luck.
- **16460**: Well? Did you increase the shield's Craftsmanship?
- **16461**: Excellent. I will create the $0 for you now.
- **16462**: Here you go.
- **16463**: Look what happened here... It seems creating the $0 lowered the shield's Craftsmanship rating.
- **16464**: It would be quite cumbersome to have to create another one, so please take care of it until you are ready to craft with it.
- **16465**: Very well done! So this is what became of those ingredients. It is a shining example of absolute perfection!
- **16466**: In addition, I am feeling a power emanating from the shield that was not present last time. I cannot wait to see what the next upgrade will bring!
- **16467**: Now, I just need to mark the shield for you and we will be finished.
- **16468**: There you go. Take this shield to Mewk Chorosap when you get a chance.
- **16469**: How disappointing... Although, it does us no good to worry about it. You can have another try at completing the final objective.
- **16470**: Welcome. Have you come to upgrade your shield? Very well, I shall explain the recipe to you...
- **16471**: Oh, so you've already heard the recipe and how to obtain some of the materials.
- **16472**: I guess that just leaves the $4 and $5.
- **16473**: Basically, I would like your help with some orders that were placed with our guild. I need you to deliver the products to the customers.
- **16474**: However, you can't just take the items to them because we've been requested to make the products on site.
- **16475**: Some materials and other items are exempt, but basically you need to make all of the items where the customer can see you or they won't be accepted.
- **16476**: Do you think I could ask you to gather the materials needed to make the items?
- **16477**: By the way, we have reached an agreement with the other guilds to sell some of their items on a trial basis, including some you normally can't buy.
- **16478**: Speak to the crafting set vendor in each guild to see which items are available. Hopefully it will prove useful for you.
- **16479**: Oh, you should keep in mind that you might not always be able to buy the items you are looking for.
- **16480**: After you have completed all of the requests, I shall give you the $4 and $5.
- **16481**: This is the [first/next/final] request.
- **16482**: Deliver $1 $0 to Diadonour at the watch tower in $7.
- **16483**: Deliver $1 $0 to Diadonour at the watch tower in $7.
- **16484**: Deliver $1 $0 to Silver Owl at the Tenshodo in $7.
- **16485**: Deliver $1 $0 to Pawkrix at Muckvix's Junk Shop in $7.
- **16486**: Oh yes, you do not need to craft this particular item near the customer.
- **16487**: Please report back to me once the delivery is finished.
- **16488**: Hmm... Your current request is as follows...
- **16489**: So, how is the request going?
- **16490**: Everything okay? [Everything's great!/It could be better...]
- **16491**: Excellent! I expect nothing less than the best from you. Keep up the good work.
- **16492**: Hm? You are not feeling well? Is this task really that demanding?
- **16493**: Will you see this through? [I'll do my best./I've had enough.]
- **16494**: I see... I am sorry to have placed such a burden on you. I shall look for another craftsman to take on this particular task for me.
- **16495**: Yes, you should really try to get some rest. I can prepare another job for you after you are feeling better.
- **16496**: Ahh, you are looking much better now. Just in time too, as I have a new job for you.
- **16497**: It is good to see you again. I see you finished the delivery. Thank you for that.
- **16498**: Oh! I see you have finished the last delivery. Thank you for all of your hard work.
- **16499**: I always keep my word, so here are the $0 and $1 as promised.
- **16500**: If you ever lose them, you can trade guild points for a replacement.
- **16501**: This process is almost like second nature to me now.
- **16502**: So, this is what the shield looks like this time around...
- **16503**: I am speechless. Would you consider letting me put it on display here in the guild?
- **16504**: Hahaha... I am just joking of course. Our mutual friend seems to think that the next upgrade will unlock the shield's ultimate power. I wonder if she's right...
- **16505**: Oh, before you go, I want you to have something. I think a craftsman of your ability will be able to use this crafting technique capably. Consider it a present from me for all of your hard work.
- **16506**: Welcome. I see you have reached the final upgrade. I have managed to prepare the necessary materials for you.
- **16507**: Allow me to explain how to obtain the necessary materials.
- **16508**: First, you will need $2 and $3.
- **16509**: I have left them with Wolden-Bolden. In other words, you can obtain them by exchanging crafter points. How many do you have saved so far?
- **16510**: You will also need $1. For it, you will need to follow the same procedure as before, showing me your shield once its Craftsmanship has reached 100%.
- **16511**: That covers the ingredients. It is exciting to know that you are so close to finishing this process. I am looking forward to seeing the end result.
- **16512**: That reminds me, Mewk Chorosap in Jeuno is planning to use this, right? Please try not to lose it when making the delivery.
- **16513**: Hm? Is something the matter? You look like you want to ask me something...
- **16514**: Hmm... This item you mention sounds like the one a Tarutaru from Adoulin requested me to make.
- **16515**: So, I apologize, but you are too late. I already sent it off to Mewk Chorosap in Jeuno.
- **16516**: Perhaps you should return to Jeuno and see if it has been delivered yet?
- **16517**: I have no idea how this happened... This is the emblem you were looking for, right? It seems it was just sitting on the shelf here in my shop.
- **16518**: You need this for something? No problem. I originally made it for you anyway. Feel free to do with it as you wish.
- **16519**: Would you look at this!
- **16520**: It looks like you finally finished. It really is quite amazing! I like the way our guild's emblem looks on it too.
- **16521**: I really put my heart and soul into making that emblem! It will serve as the perfect symbol of our guild when you equip the shield.
- **16522**: Although it has nothing to do with you completing the shield, I have prepared a small gift for you. It is a new crafting technique.
- **16523**: I know that you have the skill to make good use of it. I look forward to seeing you take on all-new challenges with it and that magnificent shield!

## Events

### Event 65535

#### Metadata

| Field        | Value   |
|--------------|---------|
| Entrypoint   | 0x0000  |
| Data Size    | 1 bytes |
| Instructions | 1       |

```
      00 01 02 03 04 05 06 07  08 09 0A 0B 0C 0D 0E 0F
      -- -- -- -- -- -- -- --  -- -- -- -- -- -- -- --
0000: 00                                                .               
```

#### Opcodes

```
  0: 0x0000 [0x00] END_REQSTACK()
```

### Event 648

#### Metadata

| Field        | Value      |
|--------------|------------|
| Entrypoint   | 0x0001     |
| Data Size    | 1972 bytes |
| Instructions | 351        |

```
      00 01 02 03 04 05 06 07  08 09 0A 0B 0C 0D 0E 0F
      -- -- -- -- -- -- -- --  -- -- -- -- -- -- -- --
0000:    1E F0 FF FF 7F 41 00  80 00 80 06 10 00 00 41   .....A........A
0010: 01 80 01 80 06 10 01 00  41 02 80 02 80 06 10 02  ........A.......
0020: 00 03 03 00 02 80 03 07  00 03 80 03 08 00 04 80  ................
0030: 03 09 00 07 10 03 0A 00  08 10 03 0B 00 09 10 02  ................
0040: 0A 00 05 80 04 EE 01 06  03 10 66 06 80 F8 FF FF  ..........f.....
0050: 7F F0 FF FF 7F 74 6C 6B  30 1D 07 80 23 1D 08 80  .....tlk0...#...
0060: 23 1D 09 80 23 1D 0A 80  23 66 06 80 F8 FF FF 7F  #...#...#f......
0070: F0 FF FF 7F 74 6C 6B 31  24 0B 80 03 80 0B 00 25  ....tlk1$......%
0080: 02 00 10 03 80 00 8D 00  21 00 01 AF 01 02 00 10  ........!.......
0090: 0C 80 00 A9 00 03 0C 00  0D 80 03 03 10 03 80 3C  ...............<
00A0: 0B 00 0C 80 0C 80 01 AF  01 02 00 10 05 80 00 C5  ................
00B0: 00 03 0C 00 0E 80 03 03  10 0C 80 3C 0B 00 05 80  ...........<....
00C0: 0C 80 01 AF 01 02 00 10  0F 80 00 E1 00 03 0C 00  ................
00D0: 10 80 03 03 10 05 80 3C  0B 00 0F 80 0C 80 01 AF  .......<........
00E0: 01 02 00 10 11 80 00 FD  00 03 0C 00 12 80 03 03  ................
00F0: 10 0F 80 3C 0B 00 11 80  0C 80 01 AF 01 02 00 10  ...<............
0100: 02 80 00 5B 01 03 0C 00  13 80 03 03 10 11 80 3C  ...[...........<
0110: 0B 00 02 80 0C 80 66 06  80 F8 FF FF 7F F0 FF FF  ......f.........
0120: 7F 64 69 73 30 1D 14 80  23 53 F8 FF FF 7F F0 FF  .dis0...#S......
0130: FF 7F 64 69 73 30 66 06  80 F8 FF FF 7F F0 FF FF  ..dis0f.........
0140: 7F 74 6C 6B 30 1D 15 80  23 66 06 80 F8 FF FF 7F  .tlk0...#f......
0150: F0 FF FF 7F 74 6C 6B 31  01 AF 01 02 00 10 16 80  ....tlk1........
0160: 00 77 01 03 0C 00 17 80  03 03 10 02 80 3C 0B 00  .w...........<..
0170: 16 80 0C 80 01 AF 01 02  00 10 18 80 00 93 01 03  ................
0180: 0C 00 19 80 03 03 10 16  80 3C 0B 00 18 80 0C 80  .........<......
0190: 01 AF 01 02 00 10 1A 80  00 AF 01 03 0C 00 1B 80  ................
01A0: 03 03 10 18 80 3C 0B 00  1A 80 0C 80 01 AF 01 48  .....<.........H
01B0: 1C 80 23 24 1D 80 03 80  03 80 25 02 00 10 03 80  ..#$......%.....
01C0: 00 C8 01 21 00 01 E1 01  02 00 10 0C 80 00 E1 01  ...!............
01D0: 42 03 01 10 0C 00 43 00  43 01 0C 0A 00 2E 01 E1  B.....C.C.......
01E0: 01 02 0A 00 05 80 04 EC  01 01 78 00 21 00 3E 05  ..........x.!.>.
01F0: 10 02 80 05 05 02 04 10  1E 80 03 F8 04 07 03 10  ................
0200: 05 80 02 03 10 04 10 03  17 02 1A 92 08 1D 1F 80  ................
0210: 23 1A A4 08 01 F5 04 03  0D 00 09 00 14 0D 00 01  #...............
0220: 80 07 0D 00 20 80 02 04  10 0D 00 00 47 02 1D 21  .... .......G..!
0230: 80 23 1A 92 08 1D 22 80  23 1D 23 80 23 1A A4 08  .#....".#.#.#...
0240: 1D 24 80 23 01 F5 04 02  04 10 25 80 00 3D 03 02  .$.#......%..=..
0250: 00 00 0C 80 00 E9 02 02  02 00 0C 80 00 D3 02 02  ................
0260: 01 00 0C 80 00 95 02 03  04 10 26 80 1A 92 08 1D  ..........&.....
0270: 27 80 23 1A A4 08 03 04  00 25 80 03 05 00 00 80  '.#......%......
0280: 03 06 00 26 80 1A 5D 05  1A 92 08 1D 28 80 23 1A  ...&..].....(.#.
0290: A4 08 01 D0 02 42 03 03  10 29 80 1A 92 08 1D 2A  .....B...).....*
02A0: 80 23 03 04 10 26 80 1D  2B 80 23 1A A4 08 03 04  .#...&..+.#.....
02B0: 00 25 80 03 05 00 00 80  03 06 00 26 80 1A 5D 05  .%.........&..].
02C0: 1A 92 08 1D 28 80 23 1A  A4 08 03 01 10 0F 80 2E  ....(.#.........
02D0: 01 E6 02 03 03 10 29 80  1A 92 08 1D 2C 80 23 1D  ......).....,.#.
02E0: 2D 80 23 1A A4 08 01 3A  03 03 02 10 03 80 1A 92  -.#....:........
02F0: 08 1D 2E 80 23 1A A4 08  24 2F 80 03 80 03 80 25  ....#...$/.....%
0300: 02 00 10 03 80 00 25 03  42 03 03 10 29 80 1A 92  ......%.B...)...
0310: 08 1D 30 80 23 1D 2D 80  23 1A A4 08 03 01 10 05  ..0.#.-.#.......
0320: 80 2E 01 3A 03 02 00 10  0C 80 00 3A 03 1A 92 08  ...:.......:....
0330: 1D 31 80 23 1A A4 08 01  3A 03 01 F5 04 02 04 10  .1.#....:.......
0340: 25 80 02 E7 04 02 00 00  0C 80 00 03 04 02 02 00  %...............
0350: 0C 80 00 00 04 02 01 00  0C 80 00 FD 03 03 02 10  ................
0360: 04 10 08 02 10 25 80 15  02 10 01 80 02 02 10 0C  .....%..........
0370: 80 80 98 03 03 04 10 32  80 1A 92 08 1D 27 80 23  .......2.....'.#
0380: 1A A4 08 03 04 00 1E 80  03 05 00 01 80 03 06 00  ................
0390: 32 80 1A 5D 05 01 F0 03  02 02 10 05 80 80 C4 03  2..]............
03A0: 03 04 10 33 80 1A 92 08  1D 27 80 23 1A A4 08 03  ...3.....'.#....
03B0: 04 00 34 80 03 05 00 32  80 03 06 00 33 80 1A 5D  ..4....2....3..]
03C0: 05 01 F0 03 02 02 10 0F  80 80 F0 03 03 04 10 35  ...............5
03D0: 80 1A 92 08 1D 27 80 23  1A A4 08 03 04 00 36 80  .....'.#......6.
03E0: 03 05 00 33 80 03 06 00  35 80 1A 5D 05 01 F0 03  ...3....5..]....
03F0: 1A 92 08 1D 28 80 23 1A  A4 08 01 FD 03 01 00 04  ....(.#.........
0400: 01 E4 04 02 02 00 0C 80  00 E4 04 03 02 10 04 10  ................
0410: 08 02 10 25 80 15 02 10  01 80 1A 92 08 1D 2E 80  ...%............
0420: 23 1A A4 08 24 2F 80 03  80 03 80 25 02 00 10 03  #...$/.....%....
0430: 80 00 CC 04 42 02 02 10  0C 80 80 61 04 03 04 10  ....B......a....
0440: 32 80 1A 92 08 1D 2B 80  23 1A A4 08 03 04 00 1E  2.....+.#.......
0450: 80 03 05 00 01 80 03 06  00 32 80 1A 5D 05 01 B9  .........2..]...
0460: 04 02 02 10 05 80 80 8D  04 03 04 10 33 80 1A 92  ............3...
0470: 08 1D 2B 80 23 1A A4 08  03 04 00 34 80 03 05 00  ..+.#......4....
0480: 32 80 03 06 00 33 80 1A  5D 05 01 B9 04 02 02 10  2....3..].......
0490: 0F 80 80 B9 04 03 04 10  35 80 1A 92 08 1D 2B 80  ........5.....+.
04A0: 23 1A A4 08 03 04 00 36  80 03 05 00 33 80 03 06  #......6....3...
04B0: 00 35 80 1A 5D 05 01 B9  04 1A 92 08 1D 28 80 23  .5..]........(.#
04C0: 1A A4 08 03 01 10 11 80  2E 01 E1 04 02 00 10 0C  ................
04D0: 80 00 E1 04 1A 92 08 1D  31 80 23 1A A4 08 01 E1  ........1.#.....
04E0: 04 01 E4 04 01 F5 04 1A  92 08 1D 37 80 23 1D 38  ...........7.#.8
04F0: 80 23 1A A4 08 01 02 05  1A 92 08 1D 39 80 23 1A  .#..........9.#.
0500: A4 08 01 5B 05 03 08 10  02 80 1D 3A 80 23 24 3B  ...[.......:.#$;
0510: 80 03 80 03 80 25 02 00  10 03 80 00 46 05 1A B4  .....%......F...
0520: 08 1D 3C 80 23 1D 3D 80  23 1A C6 08 1A 92 08 1D  ..<.#.=.#.......
0530: 3E 80 23 1D 3F 80 23 1A  A4 08 1D 40 80 23 03 01  >.#.?.#....@.#..
0540: 10 0C 80 01 5B 05 02 00  10 0C 80 00 5B 05 1A 92  ....[.......[...
0550: 08 1D 41 80 23 1A A4 08  01 5B 05 21 00 8C 02 03  ..A.#....[.!....
0560: 00 04 00 05 00 07 00 08  00 8C 01 02 06 00 02 10  ................
0570: C0 7E 05 03 06 00 03 80  01 B0 06 01 B0 06 02 06  .~..............
0580: 00 03 10 C0 91 05 03 06  00 0C 80 01 B0 06 01 B0  ................
0590: 06 02 06 00 04 10 C0 A4  05 03 06 00 05 80 01 B0  ................
05A0: 06 01 B0 06 02 06 00 05  10 C0 B7 05 03 06 00 0F  ................
05B0: 80 01 B0 06 01 B0 06 02  06 00 06 10 C0 CA 05 03  ................
05C0: 06 00 11 80 01 B0 06 01  B0 06 02 06 00 07 10 C0  ................
05D0: DD 05 03 06 00 02 80 01  B0 06 01 B0 06 02 06 00  ................
05E0: 08 10 C0 F0 05 03 06 00  16 80 01 B0 06 01 B0 06  ................
05F0: 02 06 00 09 10 C0 03 06  03 06 00 18 80 01 B0 06  ................
0600: 01 B0 06 02 06 00 00 17  C0 16 06 03 06 00 1A 80  ................
0610: 01 B0 06 01 B0 06 02 06  00 01 17 C0 29 06 03 06  ............)...
0620: 00 00 80 01 B0 06 01 B0  06 02 06 00 02 17 C0 3C  ...............<
0630: 06 03 06 00 01 80 01 B0  06 01 B0 06 02 06 00 03  ................
0640: 17 C0 4F 06 03 06 00 32  80 01 B0 06 01 B0 06 02  ..O....2........
0650: 06 00 04 17 C0 62 06 03  06 00 33 80 01 B0 06 01  .....b....3.....
0660: B0 06 02 06 00 05 17 C0  75 06 03 06 00 35 80 01  ........u....5..
0670: B0 06 01 B0 06 02 06 00  06 17 C0 88 06 03 06 00  ................
0680: 42 80 01 B0 06 01 B0 06  02 06 00 07 17 C0 9B 06  B...............
0690: 03 06 00 43 80 01 B0 06  01 B0 06 02 08 17 03 80  ...C............
06A0: 01 B0 06 07 07 00 04 80  07 08 00 04 80 01 5D 05  ..............].
06B0: 07 06 00 07 00 8C 03 03  00 04 00 05 00 06 00 8C  ................
06C0: 01 07 44 10 44 80 03 08  10 03 00 03 03 10 41 10  ..D.D.........A.
06D0: 03 04 10 42 10 03 05 10  43 10 03 06 10 44 10 03  ...B....C....D..
06E0: 07 10 55 10 02 07 10 03  80 00 F3 06 48 45 80 23  ..U.........HE.#
06F0: 01 F7 06 48 46 80 23 03  02 10 45 10 03 03 10 46  ...HF.#...E....F
0700: 10 03 04 10 47 10 03 05  10 48 10 03 06 10 4D 10  ....G....H....M.
0710: 03 07 10 4E 10 03 08 10  4F 10 03 09 10 50 10 02  ...N....O....P..
0720: 07 10 03 80 00 2E 07 48  47 80 23 01 B4 07 02 08  .......HG.#.....
0730: 10 03 80 00 3D 07 48 48  80 23 01 B4 07 02 09 10  ....=.HH.#......
0740: 03 80 00 4C 07 48 49 80  23 01 B4 07 48 4A 80 23  ...L.HI.#...HJ.#
0750: 03 02 10 49 10 03 03 10  4A 10 03 04 10 4B 10 03  ...I....J....K..
0760: 05 10 4C 10 03 06 10 51  10 03 07 10 52 10 03 08  ..L....Q....R...
0770: 10 53 10 03 09 10 54 10  02 06 10 03 80 00 83 07  .S....T.........
0780: 01 B4 07 02 07 10 03 80  00 92 07 48 47 80 23 01  ...........HG.#.
0790: B4 07 02 08 10 03 80 00  A1 07 48 48 80 23 01 B4  ..........HH.#..
07A0: 07 02 09 10 03 80 00 B0  07 48 49 80 23 01 B4 07  .........HI.#...
07B0: 48 4A 80 23 1B                                    HJ.#.           
```

#### Opcodes

```
  0: 0x0001 [0x1E] EventEntity looks at LocalPlayer and starts talking
  1: 0x0006 [0x41] ExtData[1]->WorkLocal[0] = Work_Zone[6] (bits 9*-9*)
  2: 0x000F [0x41] ExtData[1]->WorkLocal[1] = Work_Zone[6] (bits 10*-10*)
  3: 0x0018 [0x41] ExtData[1]->WorkLocal[2] = Work_Zone[6] (bits 5*-5*)
  4: 0x0021 [0x03] ExtData[1]->WorkLocal[3] = 5*
  5: 0x0026 [0x03] ExtData[1]->WorkLocal[7] = 0*
  6: 0x002B [0x03] ExtData[1]->WorkLocal[8] = 16*
  7: 0x0030 [0x03] ExtData[1]->WorkLocal[9] = Work_Zone[7]
  8: 0x0035 [0x03] ExtData[1]->WorkLocal[10] = Work_Zone[8]
  9: 0x003A [0x03] ExtData[1]->WorkLocal[11] = Work_Zone[9]
 10: 0x003F [0x02] IF !(ExtData[1]->WorkLocal[10] < 2*) GOTO 0x01EE
 11: 0x0047 [0x06] Work_Zone[3] = 0
 12: 0x004A [0x66] LOAD_EXT_SCHEDULER_MAIN: Load scheduler "tlk0" with entities [EventEntity, LocalPlayer], work=30*
 13: 0x0059 [0x1D] PRINT_EVENT_MESSAGE(message_id=7064*)
     "We must talk, <Player>. I hear that you have been recognized as [an artisan/an adept/a veteran] at another guild."
 14: 0x005C [0x23] WAIT_FOR_DIALOG_INTERACTION
 15: 0x005D [0x1D] PRINT_EVENT_MESSAGE(message_id=7065*)
     "Surely you realize that such diversions will stunt your leathercrafting skills? This cannot possibly be your intention."
 16: 0x0060 [0x23] WAIT_FOR_DIALOG_INTERACTION
 17: 0x0061 [0x1D] PRINT_EVENT_MESSAGE(message_id=7066*)
     "Which is why you have returned to express your intention to relinquish any other [artisan/adept/veteran] titles you hold and redouble your efforts as a member of our guild."
 18: 0x0064 [0x23] WAIT_FOR_DIALOG_INTERACTION
 19: 0x0065 [0x1D] PRINT_EVENT_MESSAGE(message_id=7067*)
     "I am correct, yes? Just tell me which guild you tire of, and I shall convey your decision to the guildmaster."
 20: 0x0068 [0x23] WAIT_FOR_DIALOG_INTERACTION
 21: 0x0069 [0x66] LOAD_EXT_SCHEDULER_MAIN: Load scheduler "tlk1" with entities [EventEntity, LocalPlayer], work=30*
 22: 0x0078 [0x24] CREATE_DIALOG(message_id=6861*, default_option=0*, option_flags=ExtData[1]->WorkLocal[11])
     "Renounce your rank at which guild? [None./Carpenters'./Blacksmiths'./Goldsmiths'./Weavers'./Tanners'./Boneworkers'./Alchemists'./Culinarians'.]"
 23: 0x007F [0x25] WAIT_DIALOG_SELECT()
 24: 0x0080 [0x02] IF !(Work_Zone[0] == 0*) GOTO 0x008D
 25: 0x0088 [0x21] END_EVENT
 26: 0x0089 [0x00] END_REQSTACK()

SUBROUTINE_01AF:
 27: 0x01AF [0x48] [System] [6862*]:
     "If you proceed, your rank in the [Carpenters'/Blacksmiths'/Goldsmiths'/Weavers'/Tanners'/Boneworkers'/Alchemists'/Culinarians'] Guild will return to that of [craftsman/artisan/adept], and your skill value will revert to the maximum for that level. This procedure cannot be undone, so please consider your decision carefully."
 28: 0x01B2 [0x23] WAIT_FOR_DIALOG_INTERACTION
 29: 0x01B3 [0x24] CREATE_DIALOG(message_id=6863*, default_option=0*, option_flags=0*)
     "Renounce your rank as a [Carpenter/Blacksmith/Goldsmith/Weaver/Tanner/Boneworker/Alchemist/Culinarian]? [No, retain./Yes, renounce.]"
 30: 0x01BA [0x25] WAIT_DIALOG_SELECT()
 31: 0x01BB [0x02] IF !(Work_Zone[0] == 0*) GOTO 0x01C8
 32: 0x01C3 [0x21] END_EVENT
 33: 0x01C4 [0x00] END_REQSTACK()

SUBROUTINE_01E1:
 34: 0x01E1 [0x02] IF !(ExtData[1]->WorkLocal[10] < 2*) GOTO 0x01EC
 35: 0x01E9 [0x01] GOTO 0x0078
 36: 0x01EC [0x21] END_EVENT
 37: 0x01ED [0x00] END_REQSTACK()
 38: 0x01EE [0x3E] IF !(Work_Zone[5] bit 5*) GOTO 0x0505
 39: 0x01F5 [0x02] IF !(Work_Zone[4] >= 110*) GOTO 0x04F8
 40: 0x01FD [0x07] Work_Zone[3] += 2*
 41: 0x0202 [0x02] IF !(Work_Zone[3] >= Work_Zone[4]) GOTO 0x0217
 42: 0x020A [0x1A] CALL_SUBROUTINE(address=0x0892)
 43: 0x020D [0x1D] PRINT_EVENT_MESSAGE(message_id=6872*)
     "One way to quickly improve your skills is by asking fellow adventurers to gather skins. Then you can repay them with the fruits of your labor."
 44: 0x0210 [0x23] WAIT_FOR_DIALOG_INTERACTION
 45: 0x0211 [0x1A] CALL_SUBROUTINE(address=0x08A4)
 46: 0x0214 [0x01] GOTO 0x04F5
 47: 0x0217 [0x03] ExtData[1]->WorkLocal[13] = ExtData[1]->WorkLocal[9]
 48: 0x021C [0x14] ExtData[1]->WorkLocal[13] *= 10*
 49: 0x0221 [0x07] ExtData[1]->WorkLocal[13] += 70*
 50: 0x0226 [0x02] IF !(Work_Zone[4] == ExtData[1]->WorkLocal[13]) GOTO 0x0247
 51: 0x022E [0x1D] PRINT_EVENT_MESSAGE(message_id=7059*)
     "I have watched you closely since you started here. I would like to see you make $0."
 52: 0x0231 [0x23] WAIT_FOR_DIALOG_INTERACTION
 53: 0x0232 [0x1A] CALL_SUBROUTINE(address=0x0892)
 54: 0x0235 [0x1D] PRINT_EVENT_MESSAGE(message_id=7060*)
     "Succeed, and I will grant you the title of [artisan/adept/veteran]. You will then become a true member of our guild."
 55: 0x0238 [0x23] WAIT_FOR_DIALOG_INTERACTION
 56: 0x0239 [0x1D] PRINT_EVENT_MESSAGE(message_id=7061*)
     "However, with that comes harder work and more difficult tasks."
 57: 0x023C [0x23] WAIT_FOR_DIALOG_INTERACTION
 58: 0x023D [0x1A] CALL_SUBROUTINE(address=0x08A4)
 59: 0x0240 [0x1D] PRINT_EVENT_MESSAGE(message_id=7062*)
     "Juggling the techniques of numerous guilds will only lead to trouble. If you are ready to commit to the Tanners' Guild, then make me the item I asked for."
 60: 0x0243 [0x23] WAIT_FOR_DIALOG_INTERACTION
 61: 0x0244 [0x01] GOTO 0x04F5
 62: 0x0247 [0x02] IF !(Work_Zone[4] == 100*) GOTO 0x033D
 63: 0x024F [0x02] IF !(ExtData[1]->WorkLocal[0] == 1*) GOTO 0x02E9
 64: 0x0257 [0x02] IF !(ExtData[1]->WorkLocal[2] == 1*) GOTO 0x02D3
 65: 0x025F [0x02] IF !(ExtData[1]->WorkLocal[1] == 1*) GOTO 0x0295
 66: 0x0267 [0x03] Work_Zone[4] = 10577*
 67: 0x026C [0x1A] CALL_SUBROUTINE(address=0x0892)
 68: 0x026F [0x1D] PRINT_EVENT_MESSAGE(message_id=7055*)
     "Forgotten your recipe, have you? Take heart: even the best of us have our off days. Anyhow, to make $2, you'll be needing..."
 69: 0x0272 [0x23] WAIT_FOR_DIALOG_INTERACTION
 70: 0x0273 [0x1A] CALL_SUBROUTINE(address=0x08A4)
 71: 0x0276 [0x03] ExtData[1]->WorkLocal[4] = 100*
 72: 0x027B [0x03] ExtData[1]->WorkLocal[5] = 9*
 73: 0x0280 [0x03] ExtData[1]->WorkLocal[6] = 10577*
 74: 0x0285 [0x1A] CALL_SUBROUTINE(address=0x055D)
 75: 0x0288 [0x1A] CALL_SUBROUTINE(address=0x0892)
 76: 0x028B [0x1D] PRINT_EVENT_MESSAGE(message_id=7054*)
     "And do not forget to carve your name into the leather. It's not that we don't trust you, of course, but rules are rules."
 77: 0x028E [0x23] WAIT_FOR_DIALOG_INTERACTION
 78: 0x028F [0x1A] CALL_SUBROUTINE(address=0x08A4)
 79: 0x0292 [0x01] GOTO 0x02D0
 80: 0x0295 [0x42] SET_CLI_EVENT_CANCEL_DATA()
 81: 0x0296 [0x03] Work_Zone[3] = 2019*
 82: 0x029B [0x1A] CALL_SUBROUTINE(address=0x0892)
 83: 0x029E [0x1D] PRINT_EVENT_MESSAGE(message_id=7052*)
     "Now here's a [man/woman] who knows the contents of $6 like the back of [his/her] calloused hands."
 84: 0x02A1 [0x23] WAIT_FOR_DIALOG_INTERACTION
 85: 0x02A2 [0x03] Work_Zone[4] = 10577*
 86: 0x02A7 [0x1D] PRINT_EVENT_MESSAGE(message_id=7053*)
     "What are we waiting for, then? As the next step in your training, I'd like you to craft for me $2. The necessary materials are..."
 87: 0x02AA [0x23] WAIT_FOR_DIALOG_INTERACTION
 88: 0x02AB [0x1A] CALL_SUBROUTINE(address=0x08A4)
 89: 0x02AE [0x03] ExtData[1]->WorkLocal[4] = 100*
 90: 0x02B3 [0x03] ExtData[1]->WorkLocal[5] = 9*
 91: 0x02B8 [0x03] ExtData[1]->WorkLocal[6] = 10577*
 92: 0x02BD [0x1A] CALL_SUBROUTINE(address=0x055D)
 93: 0x02C0 [0x1A] CALL_SUBROUTINE(address=0x0892)
 94: 0x02C3 [0x1D] PRINT_EVENT_MESSAGE(message_id=7054*)
     "And do not forget to carve your name into the leather. It's not that we don't trust you, of course, but rules are rules."
 95: 0x02C6 [0x23] WAIT_FOR_DIALOG_INTERACTION
 96: 0x02C7 [0x1A] CALL_SUBROUTINE(address=0x08A4)
 97: 0x02CA [0x03] Work_Zone[1] = 3*
 98: 0x02CF [0x2E] SET_CLI_EVENT_CANCEL_FLAGS()

SUBROUTINE_02D0:
 99: 0x02D0 [0x01] GOTO 0x02E6
100: 0x02D3 [0x03] Work_Zone[3] = 2019*
101: 0x02D8 [0x1A] CALL_SUBROUTINE(address=0x0892)
102: 0x02DB [0x1D] PRINT_EVENT_MESSAGE(message_id=7051*)
     "To take the next step in your career as a tanner, you'll need to talk to Alivatand and procure a copy of $6."
103: 0x02DE [0x23] WAIT_FOR_DIALOG_INTERACTION
104: 0x02DF [0x1D] PRINT_EVENT_MESSAGE(message_id=7049*)
     "Mind you, we aren't giving them away for free. Consider the fee in guild points a requisite part of your training."
105: 0x02E2 [0x23] WAIT_FOR_DIALOG_INTERACTION
106: 0x02E3 [0x1A] CALL_SUBROUTINE(address=0x08A4)

SUBROUTINE_02E6:
107: 0x02E6 [0x01] GOTO 0x033A
108: 0x02E9 [0x03] Work_Zone[2] = 0*
109: 0x02EE [0x1A] CALL_SUBROUTINE(address=0x0892)
110: 0x02F1 [0x1D] PRINT_EVENT_MESSAGE(message_id=7046*)
     "You have distinguished yourself as [a veteran/an expert/an authority/a luminary/a master], but there remain leathercrafting techniques outside your repertoire. Do you wish to continue your training?"
111: 0x02F4 [0x23] WAIT_FOR_DIALOG_INTERACTION
112: 0x02F5 [0x1A] CALL_SUBROUTINE(address=0x08A4)
113: 0x02F8 [0x24] CREATE_DIALOG(message_id=7047*, default_option=0*, option_flags=0*)
     "Continue your training? [Certainly!/Perhaps another time.]"
114: 0x02FF [0x25] WAIT_DIALOG_SELECT()
115: 0x0300 [0x02] IF !(Work_Zone[0] == 0*) GOTO 0x0325
116: 0x0308 [0x42] SET_CLI_EVENT_CANCEL_DATA()
117: 0x0309 [0x03] Work_Zone[3] = 2019*
118: 0x030E [0x1A] CALL_SUBROUTINE(address=0x0892)
119: 0x0311 [0x1D] PRINT_EVENT_MESSAGE(message_id=7048*)
     "Splendid! I knew you were going places from the day you first walked into our halls. To take the next step in your career as a tanner, you'll need to talk to Alivatand and procure a copy of $6."
120: 0x0314 [0x23] WAIT_FOR_DIALOG_INTERACTION
121: 0x0315 [0x1D] PRINT_EVENT_MESSAGE(message_id=7049*)
     "Mind you, we aren't giving them away for free. Consider the fee in guild points a requisite part of your training."
122: 0x0318 [0x23] WAIT_FOR_DIALOG_INTERACTION
123: 0x0319 [0x1A] CALL_SUBROUTINE(address=0x08A4)
124: 0x031C [0x03] Work_Zone[1] = 2*
125: 0x0321 [0x2E] SET_CLI_EVENT_CANCEL_FLAGS()
126: 0x0322 [0x01] GOTO 0x033A
127: 0x0325 [0x02] IF !(Work_Zone[0] == 1*) GOTO 0x033A
128: 0x032D [0x1A] CALL_SUBROUTINE(address=0x0892)
129: 0x0330 [0x1D] PRINT_EVENT_MESSAGE(message_id=7050*)
     "Say it isn't so, <Player>! And here I thought we would open up shop together someday!"
130: 0x0333 [0x23] WAIT_FOR_DIALOG_INTERACTION
131: 0x0334 [0x1A] CALL_SUBROUTINE(address=0x08A4)
132: 0x0337 [0x01] GOTO 0x033A

SUBROUTINE_033A:
133: 0x033A [0x01] GOTO 0x04F5
134: 0x033D [0x02] IF !(Work_Zone[4] <= 100*) GOTO 0x04E7
135: 0x0345 [0x02] IF !(ExtData[1]->WorkLocal[0] == 1*) GOTO 0x0403
136: 0x034D [0x02] IF !(ExtData[1]->WorkLocal[2] == 1*) GOTO 0x0400
137: 0x0355 [0x02] IF !(ExtData[1]->WorkLocal[1] == 1*) GOTO 0x03FD
138: 0x035D [0x03] Work_Zone[2] = Work_Zone[4]
139: 0x0362 [0x08] Work_Zone[2] -= 100*
140: 0x0367 [0x15] Work_Zone[2] /= 10*
141: 0x036C [0x02] IF !(Work_Zone[2] == 1*) GOTO 0x0398
142: 0x0374 [0x03] Work_Zone[4] = 11*
143: 0x0379 [0x1A] CALL_SUBROUTINE(address=0x0892)
144: 0x037C [0x1D] PRINT_EVENT_MESSAGE(message_id=7055*)
     "Forgotten your recipe, have you? Take heart: even the best of us have our off days. Anyhow, to make $2, you'll be needing..."
145: 0x037F [0x23] WAIT_FOR_DIALOG_INTERACTION
146: 0x0380 [0x1A] CALL_SUBROUTINE(address=0x08A4)
147: 0x0383 [0x03] ExtData[1]->WorkLocal[4] = 110*
148: 0x0388 [0x03] ExtData[1]->WorkLocal[5] = 10*
149: 0x038D [0x03] ExtData[1]->WorkLocal[6] = 11*
150: 0x0392 [0x1A] CALL_SUBROUTINE(address=0x055D)
151: 0x0395 [0x01] GOTO 0x03F0
152: 0x0398 [0x02] IF !(Work_Zone[2] == 2*) GOTO 0x03C4
153: 0x03A0 [0x03] Work_Zone[4] = 12*
154: 0x03A5 [0x1A] CALL_SUBROUTINE(address=0x0892)
155: 0x03A8 [0x1D] PRINT_EVENT_MESSAGE(message_id=7055*)
     "Forgotten your recipe, have you? Take heart: even the best of us have our off days. Anyhow, to make $2, you'll be needing..."
156: 0x03AB [0x23] WAIT_FOR_DIALOG_INTERACTION
157: 0x03AC [0x1A] CALL_SUBROUTINE(address=0x08A4)
158: 0x03AF [0x03] ExtData[1]->WorkLocal[4] = 120*
159: 0x03B4 [0x03] ExtData[1]->WorkLocal[5] = 11*
160: 0x03B9 [0x03] ExtData[1]->WorkLocal[6] = 12*
161: 0x03BE [0x1A] CALL_SUBROUTINE(address=0x055D)
162: 0x03C1 [0x01] GOTO 0x03F0
163: 0x03C4 [0x02] IF !(Work_Zone[2] == 3*) GOTO 0x03F0
164: 0x03CC [0x03] Work_Zone[4] = 13*
165: 0x03D1 [0x1A] CALL_SUBROUTINE(address=0x0892)
166: 0x03D4 [0x1D] PRINT_EVENT_MESSAGE(message_id=7055*)
     "Forgotten your recipe, have you? Take heart: even the best of us have our off days. Anyhow, to make $2, you'll be needing..."
167: 0x03D7 [0x23] WAIT_FOR_DIALOG_INTERACTION
168: 0x03D8 [0x1A] CALL_SUBROUTINE(address=0x08A4)
169: 0x03DB [0x03] ExtData[1]->WorkLocal[4] = 130*
170: 0x03E0 [0x03] ExtData[1]->WorkLocal[5] = 12*
171: 0x03E5 [0x03] ExtData[1]->WorkLocal[6] = 13*
172: 0x03EA [0x1A] CALL_SUBROUTINE(address=0x055D)
173: 0x03ED [0x01] GOTO 0x03F0

SUBROUTINE_03F0:
174: 0x03F0 [0x1A] CALL_SUBROUTINE(address=0x0892)
175: 0x03F3 [0x1D] PRINT_EVENT_MESSAGE(message_id=7054*)
     "And do not forget to carve your name into the leather. It's not that we don't trust you, of course, but rules are rules."
176: 0x03F6 [0x23] WAIT_FOR_DIALOG_INTERACTION
177: 0x03F7 [0x1A] CALL_SUBROUTINE(address=0x08A4)
178: 0x03FA [0x01] GOTO 0x03FD

SUBROUTINE_03FD:
179: 0x03FD [0x01] GOTO 0x0400

SUBROUTINE_0400:
180: 0x0400 [0x01] GOTO 0x04E4
181: 0x0403 [0x02] IF !(ExtData[1]->WorkLocal[2] == 1*) GOTO 0x04E4
182: 0x040B [0x03] Work_Zone[2] = Work_Zone[4]
183: 0x0410 [0x08] Work_Zone[2] -= 100*
184: 0x0415 [0x15] Work_Zone[2] /= 10*
185: 0x041A [0x1A] CALL_SUBROUTINE(address=0x0892)
186: 0x041D [0x1D] PRINT_EVENT_MESSAGE(message_id=7046*)
     "You have distinguished yourself as [a veteran/an expert/an authority/a luminary/a master], but there remain leathercrafting techniques outside your repertoire. Do you wish to continue your training?"
187: 0x0420 [0x23] WAIT_FOR_DIALOG_INTERACTION
188: 0x0421 [0x1A] CALL_SUBROUTINE(address=0x08A4)
189: 0x0424 [0x24] CREATE_DIALOG(message_id=7047*, default_option=0*, option_flags=0*)
     "Continue your training? [Certainly!/Perhaps another time.]"
190: 0x042B [0x25] WAIT_DIALOG_SELECT()
191: 0x042C [0x02] IF !(Work_Zone[0] == 0*) GOTO 0x04CC
192: 0x0434 [0x42] SET_CLI_EVENT_CANCEL_DATA()
193: 0x0435 [0x02] IF !(Work_Zone[2] == 1*) GOTO 0x0461
194: 0x043D [0x03] Work_Zone[4] = 11*
195: 0x0442 [0x1A] CALL_SUBROUTINE(address=0x0892)
196: 0x0445 [0x1D] PRINT_EVENT_MESSAGE(message_id=7053*)
     "What are we waiting for, then? As the next step in your training, I'd like you to craft for me $2. The necessary materials are..."
197: 0x0448 [0x23] WAIT_FOR_DIALOG_INTERACTION
198: 0x0449 [0x1A] CALL_SUBROUTINE(address=0x08A4)
199: 0x044C [0x03] ExtData[1]->WorkLocal[4] = 110*
200: 0x0451 [0x03] ExtData[1]->WorkLocal[5] = 10*
201: 0x0456 [0x03] ExtData[1]->WorkLocal[6] = 11*
202: 0x045B [0x1A] CALL_SUBROUTINE(address=0x055D)
203: 0x045E [0x01] GOTO 0x04B9
204: 0x0461 [0x02] IF !(Work_Zone[2] == 2*) GOTO 0x048D
205: 0x0469 [0x03] Work_Zone[4] = 12*
206: 0x046E [0x1A] CALL_SUBROUTINE(address=0x0892)
207: 0x0471 [0x1D] PRINT_EVENT_MESSAGE(message_id=7053*)
     "What are we waiting for, then? As the next step in your training, I'd like you to craft for me $2. The necessary materials are..."
208: 0x0474 [0x23] WAIT_FOR_DIALOG_INTERACTION
209: 0x0475 [0x1A] CALL_SUBROUTINE(address=0x08A4)
210: 0x0478 [0x03] ExtData[1]->WorkLocal[4] = 120*
211: 0x047D [0x03] ExtData[1]->WorkLocal[5] = 11*
212: 0x0482 [0x03] ExtData[1]->WorkLocal[6] = 12*
213: 0x0487 [0x1A] CALL_SUBROUTINE(address=0x055D)
214: 0x048A [0x01] GOTO 0x04B9
215: 0x048D [0x02] IF !(Work_Zone[2] == 3*) GOTO 0x04B9
216: 0x0495 [0x03] Work_Zone[4] = 13*
217: 0x049A [0x1A] CALL_SUBROUTINE(address=0x0892)
218: 0x049D [0x1D] PRINT_EVENT_MESSAGE(message_id=7053*)
     "What are we waiting for, then? As the next step in your training, I'd like you to craft for me $2. The necessary materials are..."
219: 0x04A0 [0x23] WAIT_FOR_DIALOG_INTERACTION
220: 0x04A1 [0x1A] CALL_SUBROUTINE(address=0x08A4)
221: 0x04A4 [0x03] ExtData[1]->WorkLocal[4] = 130*
222: 0x04A9 [0x03] ExtData[1]->WorkLocal[5] = 12*
223: 0x04AE [0x03] ExtData[1]->WorkLocal[6] = 13*
224: 0x04B3 [0x1A] CALL_SUBROUTINE(address=0x055D)
225: 0x04B6 [0x01] GOTO 0x04B9

SUBROUTINE_04B9:
226: 0x04B9 [0x1A] CALL_SUBROUTINE(address=0x0892)
227: 0x04BC [0x1D] PRINT_EVENT_MESSAGE(message_id=7054*)
     "And do not forget to carve your name into the leather. It's not that we don't trust you, of course, but rules are rules."
228: 0x04BF [0x23] WAIT_FOR_DIALOG_INTERACTION
229: 0x04C0 [0x1A] CALL_SUBROUTINE(address=0x08A4)
230: 0x04C3 [0x03] Work_Zone[1] = 4*
231: 0x04C8 [0x2E] SET_CLI_EVENT_CANCEL_FLAGS()
232: 0x04C9 [0x01] GOTO 0x04E1
233: 0x04CC [0x02] IF !(Work_Zone[0] == 1*) GOTO 0x04E1
234: 0x04D4 [0x1A] CALL_SUBROUTINE(address=0x0892)
235: 0x04D7 [0x1D] PRINT_EVENT_MESSAGE(message_id=7050*)
     "Say it isn't so, <Player>! And here I thought we would open up shop together someday!"
236: 0x04DA [0x23] WAIT_FOR_DIALOG_INTERACTION
237: 0x04DB [0x1A] CALL_SUBROUTINE(address=0x08A4)
238: 0x04DE [0x01] GOTO 0x04E1

SUBROUTINE_04E1:
239: 0x04E1 [0x01] GOTO 0x04E4

SUBROUTINE_04E4:
240: 0x04E4 [0x01] GOTO 0x04F5
241: 0x04E7 [0x1A] CALL_SUBROUTINE(address=0x0892)
242: 0x04EA [0x1D] PRINT_EVENT_MESSAGE(message_id=6874*)
     "I can see you are ready to move on. I want you to make me $0."
243: 0x04ED [0x23] WAIT_FOR_DIALOG_INTERACTION
244: 0x04EE [0x1D] PRINT_EVENT_MESSAGE(message_id=6875*)
     "If you succeed, I will grant you a new title and teach you new techniques."
245: 0x04F1 [0x23] WAIT_FOR_DIALOG_INTERACTION
246: 0x04F2 [0x1A] CALL_SUBROUTINE(address=0x08A4)

SUBROUTINE_04F5:
247: 0x04F5 [0x01] GOTO 0x0502
248: 0x04F8 [0x1A] CALL_SUBROUTINE(address=0x0892)
249: 0x04FB [0x1D] PRINT_EVENT_MESSAGE(message_id=6873*)
     "My dream is to open shops all over Vana'diel. I am certain that with your help, it will become reality."
250: 0x04FE [0x23] WAIT_FOR_DIALOG_INTERACTION
251: 0x04FF [0x1A] CALL_SUBROUTINE(address=0x08A4)

SUBROUTINE_0502:
252: 0x0502 [0x01] GOTO 0x055B
253: 0x0505 [0x03] Work_Zone[8] = 5*
254: 0x050A [0x1D] PRINT_EVENT_MESSAGE(message_id=6865*)
     "Welcome to the Tanners' Guild. We are a union for those in the tanning and leatherworking trade."
255: 0x050D [0x23] WAIT_FOR_DIALOG_INTERACTION
256: 0x050E [0x24] CREATE_DIALOG(message_id=6809*, default_option=0*, option_flags=0*)
     "Join the [Fishermen's/Carpenters'/Blacksmiths'/Goldsmiths'/Weavers'/Tanners'/Boneworkers'/Alchemists'/Culinarians'] Guild? [Sign up./That's not why you're here.]"
257: 0x0515 [0x25] WAIT_DIALOG_SELECT()
258: 0x0516 [0x02] IF !(Work_Zone[0] == 0*) GOTO 0x0546
259: 0x051E [0x1A] CALL_SUBROUTINE(address=0x08B4)
260: 0x0521 [0x1D] PRINT_EVENT_MESSAGE(message_id=6867*)
     "You must be one of those adventurers. I can tell by the fire in your eyes. For some reason this guild is popular with your type."
261: 0x0524 [0x23] WAIT_FOR_DIALOG_INTERACTION
262: 0x0525 [0x1D] PRINT_EVENT_MESSAGE(message_id=6868*)
     "We shall start you off with crystal synthesis. Without it, it will be impossible for you to continue your adventures and your new craft."
263: 0x0528 [0x23] WAIT_FOR_DIALOG_INTERACTION
264: 0x0529 [0x1A] CALL_SUBROUTINE(address=0x08C6)
265: 0x052C [0x1A] CALL_SUBROUTINE(address=0x0892)
266: 0x052F [0x1D] PRINT_EVENT_MESSAGE(message_id=6869*)
     "Use a crystal, form an image of the completed product...and poof! Instant boots! Instant headbands!"
267: 0x0532 [0x23] WAIT_FOR_DIALOG_INTERACTION
268: 0x0533 [0x1D] PRINT_EVENT_MESSAGE(message_id=6870*)
     "But in order to form a perfect image of a product, you must practice, practice, practice. I'm sure you have heard this before, but we all learn from our mistakes."
269: 0x0536 [0x23] WAIT_FOR_DIALOG_INTERACTION
270: 0x0537 [0x1A] CALL_SUBROUTINE(address=0x08A4)
271: 0x053A [0x1D] PRINT_EVENT_MESSAGE(message_id=6871*)
     "If you wish, the others here will inform you of the materials you need to begin. They seem eager for you to join us."
272: 0x053D [0x23] WAIT_FOR_DIALOG_INTERACTION
273: 0x053E [0x03] Work_Zone[1] = 1*
274: 0x0543 [0x01] GOTO 0x055B
275: 0x0546 [0x02] IF !(Work_Zone[0] == 1*) GOTO 0x055B
276: 0x054E [0x1A] CALL_SUBROUTINE(address=0x0892)
277: 0x0551 [0x1D] PRINT_EVENT_MESSAGE(message_id=6866*)
     "To each his own. But if you wish to remain here, please don't touch anything."
278: 0x0554 [0x23] WAIT_FOR_DIALOG_INTERACTION
279: 0x0555 [0x1A] CALL_SUBROUTINE(address=0x08A4)
280: 0x0558 [0x01] GOTO 0x055B

SUBROUTINE_055B:
281: 0x055B [0x21] END_EVENT
282: 0x055C [0x00] END_REQSTACK()

SUBROUTINE_055D:
283: 0x055D [0x8C] CRAFTING_HANDLER(mode=0x02) // Set recipe data
284: 0x0569 [0x8C] CRAFTING_HANDLER(mode=0x01) // End crafting session
285: 0x056B [0x02] IF !(ExtData[1]->WorkLocal[6] == Work_Zone[2]) GOTO 0x057E
286: 0x0573 [0x03] ExtData[1]->WorkLocal[6] = 0*
287: 0x0578 [0x01] GOTO 0x06B0

SUBROUTINE_06B0:
288: 0x06B0 [0x07] ExtData[1]->WorkLocal[6] += ExtData[1]->WorkLocal[7]
289: 0x06B5 [0x8C] CRAFTING_HANDLER(mode=0x03) // Get synthesis recipe
290: 0x06BF [0x8C] CRAFTING_HANDLER(mode=0x01) // End crafting session
291: 0x06C1 [0x07] Work_Zone[68] += 142*
292: 0x06C6 [0x03] Work_Zone[8] = ExtData[1]->WorkLocal[3]
293: 0x06CB [0x03] Work_Zone[3] = Work_Zone[65]
294: 0x06D0 [0x03] Work_Zone[4] = Work_Zone[66]
295: 0x06D5 [0x03] Work_Zone[5] = Work_Zone[67]
296: 0x06DA [0x03] Work_Zone[6] = Work_Zone[68]
297: 0x06DF [0x03] Work_Zone[7] = Work_Zone[85]
298: 0x06E4 [0x02] IF !(Work_Zone[7] == 0*) GOTO 0x06F3
299: 0x06EC [0x48] [System] [6815*]:
     "Necessary skills: [Fishing/Woodworking/Smithing/Goldsmithing/Clothcraft/Leatherworking/Bonecraft/Alchemy/Cooking][ /, Woodworking/, Smithing/, Goldsmithing/, Clothcraft/, Leatherworking/, Bonecraft/, Alchemy/, Cooking][ /, Woodworking/, Smithing/, Goldsmithing/, Clothcraft/, Leatherworking/, Bonecraft/, Alchemy/, Cooking][ /, & Woodworking/, & Smithing/, & Goldsmithing/, & Clothcraft/, & Leatherworking/, & Bonecraft/, & Alchemy/, & Cooking] Necessary crystal: $4 Necessary items:"
300: 0x06EF [0x23] WAIT_FOR_DIALOG_INTERACTION
301: 0x06F0 [0x01] GOTO 0x06F7
302: 0x06F3 [0x48] [System] [6853*]:
     "Necessary skills: [Fishing/Woodworking/Smithing/Goldsmithing/Clothcraft/Leatherworking/Bonecraft/Alchemy/Cooking][ /, Woodworking/, Smithing/, Goldsmithing/, Clothcraft/, Leatherworking/, Bonecraft/, Alchemy/, Cooking][ /, Woodworking/, Smithing/, Goldsmithing/, Clothcraft/, Leatherworking/, Bonecraft/, Alchemy/, Cooking][ /, & Woodworking/, & Smithing/, & Goldsmithing/, & Clothcraft/, & Leatherworking/, & Bonecraft/, & Alchemy/, & Cooking] Necessary crystal: $4 Necessary key item: $3 Necessary items:"
303: 0x06F6 [0x23] WAIT_FOR_DIALOG_INTERACTION

SUBROUTINE_06F7:
304: 0x06F7 [0x03] Work_Zone[2] = Work_Zone[69]
305: 0x06FC [0x03] Work_Zone[3] = Work_Zone[70]
306: 0x0701 [0x03] Work_Zone[4] = Work_Zone[71]
307: 0x0706 [0x03] Work_Zone[5] = Work_Zone[72]
308: 0x070B [0x03] Work_Zone[6] = Work_Zone[77]
309: 0x0710 [0x03] Work_Zone[7] = Work_Zone[78]
310: 0x0715 [0x03] Work_Zone[8] = Work_Zone[79]
311: 0x071A [0x03] Work_Zone[9] = Work_Zone[80]
312: 0x071F [0x02] IF !(Work_Zone[7] == 0*) GOTO 0x072E
313: 0x0727 [0x48] [System] [6819*]:
     "$4 x $0"
314: 0x072A [0x23] WAIT_FOR_DIALOG_INTERACTION
315: 0x072B [0x01] GOTO 0x07B4
316: 0x072E [0x02] IF !(Work_Zone[8] == 0*) GOTO 0x073D
317: 0x0736 [0x48] [System] [6818*]:
     "$4 x $0 $5 x $0$0"
318: 0x0739 [0x23] WAIT_FOR_DIALOG_INTERACTION
319: 0x073A [0x01] GOTO 0x07B4
320: 0x073D [0x02] IF !(Work_Zone[9] == 0*) GOTO 0x074C
321: 0x0745 [0x48] [System] [6817*]:
     "$4 x $0 $5 x $0$0 $6 x $0"
322: 0x0748 [0x23] WAIT_FOR_DIALOG_INTERACTION
323: 0x0749 [0x01] GOTO 0x07B4
324: 0x074C [0x48] [System] [6816*]:
     "$4 x $0 $5 x $0$0 $6 x $0 $7 x $0$3"
325: 0x074F [0x23] WAIT_FOR_DIALOG_INTERACTION
326: 0x0750 [0x03] Work_Zone[2] = Work_Zone[73]
327: 0x0755 [0x03] Work_Zone[3] = Work_Zone[74]
328: 0x075A [0x03] Work_Zone[4] = Work_Zone[75]
329: 0x075F [0x03] Work_Zone[5] = Work_Zone[76]
330: 0x0764 [0x03] Work_Zone[6] = Work_Zone[81]
331: 0x0769 [0x03] Work_Zone[7] = Work_Zone[82]
332: 0x076E [0x03] Work_Zone[8] = Work_Zone[83]
333: 0x0773 [0x03] Work_Zone[9] = Work_Zone[84]
334: 0x0778 [0x02] IF !(Work_Zone[6] == 0*) GOTO 0x0783
335: 0x0780 [0x01] GOTO 0x07B4
336: 0x0783 [0x02] IF !(Work_Zone[7] == 0*) GOTO 0x0792
337: 0x078B [0x48] [System] [6819*]:
     "$4 x $0"
338: 0x078E [0x23] WAIT_FOR_DIALOG_INTERACTION
339: 0x078F [0x01] GOTO 0x07B4
340: 0x0792 [0x02] IF !(Work_Zone[8] == 0*) GOTO 0x07A1
341: 0x079A [0x48] [System] [6818*]:
     "$4 x $0 $5 x $0$0"
342: 0x079D [0x23] WAIT_FOR_DIALOG_INTERACTION
343: 0x079E [0x01] GOTO 0x07B4
344: 0x07A1 [0x02] IF !(Work_Zone[9] == 0*) GOTO 0x07B0
345: 0x07A9 [0x48] [System] [6817*]:
     "$4 x $0 $5 x $0$0 $6 x $0"
346: 0x07AC [0x23] WAIT_FOR_DIALOG_INTERACTION
347: 0x07AD [0x01] GOTO 0x07B4
348: 0x07B0 [0x48] [System] [6816*]:
     "$4 x $0 $5 x $0$0 $6 x $0 $7 x $0$3"
349: 0x07B3 [0x23] WAIT_FOR_DIALOG_INTERACTION

SUBROUTINE_07B4:
350: 0x07B4 [0x1B] RETURN
```

#### Data or dead code:

```
# Dead code (unreachable instructions):
     0x008A [0x01] GOTO 0x01AF
# Dead code (unreachable instructions):
     0x01C5 [0x01] GOTO 0x01E1
# Dead code (unreachable instructions):
     0x057B [0x01] GOTO 0x06B0
     0x058E [0x01] GOTO 0x06B0
     0x05A1 [0x01] GOTO 0x06B0
     0x05B4 [0x01] GOTO 0x06B0
     0x05C7 [0x01] GOTO 0x06B0
     0x05DA [0x01] GOTO 0x06B0
     0x05ED [0x01] GOTO 0x06B0
     0x0600 [0x01] GOTO 0x06B0
     0x0613 [0x01] GOTO 0x06B0
     0x0626 [0x01] GOTO 0x06B0
     0x0639 [0x01] GOTO 0x06B0
     0x064C [0x01] GOTO 0x06B0
     0x065F [0x01] GOTO 0x06B0
     0x0672 [0x01] GOTO 0x06B0
     0x0685 [0x01] GOTO 0x06B0
     0x0698 [0x01] GOTO 0x06B0
```

### Event 649

#### Metadata

| Field        | Value     |
|--------------|-----------|
| Entrypoint   | 0x07B5    |
| Data Size    | 287 bytes |
| Instructions | 64        |

```
      00 01 02 03 04 05 06 07  08 09 0A 0B 0C 0D 0E 0F
      -- -- -- -- -- -- -- --  -- -- -- -- -- -- -- --
07B0:                20 01 42  1E F0 FF FF 7F 1A 92 08        .B........
07C0: 02 06 10 03 80 03 CD 07  03 06 10 03 80 03 09 10  ................
07D0: 06 10 02 09 10 11 80 05  E1 07 1D 4B 80 23 01 74  ...........K.#.t
07E0: 08 02 09 10 02 80 80 F0  07 1D 4C 80 23 01 74 08  ..........L.#.t.
07F0: 02 09 10 16 80 80 FF 07  1D 4D 80 23 01 74 08 02  .........M.#.t..
0800: 09 10 18 80 80 1A 08 1D  4E 80 23 02 05 10 03 80  ........N.#.....
0810: 00 17 08 1D 4F 80 23 01  74 08 02 09 10 1A 80 80  ....O.#.t.......
0820: 35 08 1D 50 80 23 02 05  10 0C 80 00 32 08 1D 4F  5..P.#......2..O
0830: 80 23 01 74 08 02 09 10  00 80 80 50 08 1D 51 80  .#.t.......P..Q.
0840: 23 02 05 10 05 80 00 4D  08 1D 4F 80 23 01 74 08  #......M..O.#.t.
0850: 02 09 10 01 80 80 74 08  02 07 10 0C 80 00 67 08  ......t.......g.
0860: 1D 52 80 23 01 71 08 1D  53 80 23 1D 54 80 23 21  .R.#.q..S.#.T.#!
0870: 00 01 74 08 1A A4 08 03  08 10 02 80 45 55 80 F0  ..t.........EU..
0880: FF FF 7F F0 FF FF 7F 71  73 74 63 03 80 48 56 80  .......qstc..HV.
0890: 21 00 6F 70 66 06 80 F8  FF FF 7F F8 FF FF 7F 74  !.opf..........t
08A0: 6C 6B 30 1B 66 06 80 F8  FF FF 7F F8 FF FF 7F 74  lk0.f..........t
08B0: 6C 6B 31 1B 6F 70 66 06  80 F8 FF FF 7F F8 FF FF  lk1.opf.........
08C0: 7F 70 61 73 30 1B 53 F8  FF FF 7F F8 FF FF 7F 70  .pas0.S........p
08D0: 61 73 30 1B                                       as0.            
```

#### Opcodes

```
  0: 0x07B5 [0x20] SET_CLI_EVENT_UC_FLAG: Lock player control
  1: 0x07B7 [0x42] SET_CLI_EVENT_CANCEL_DATA()
  2: 0x07B8 [0x1E] EventEntity looks at LocalPlayer and starts talking
  3: 0x07BD [0x1A] CALL_SUBROUTINE(address=0x0892)
  4: 0x07C0 [0x02] IF !(Work_Zone[6] >= 0*) GOTO 0x07CD
  5: 0x07C8 [0x03] Work_Zone[6] = 0*
  6: 0x07CD [0x03] Work_Zone[9] = Work_Zone[6]
  7: 0x07D2 [0x02] IF !(Work_Zone[9] > 4*) GOTO 0x07E1
  8: 0x07DA [0x1D] PRINT_EVENT_MESSAGE(message_id=6876*)
     "Lovely work! You are now worthy of the title of [amateur/recruit/initiate/novice/apprentice]. Continue to challenge yourself and refine your skills."
  9: 0x07DD [0x23] WAIT_FOR_DIALOG_INTERACTION
 10: 0x07DE [0x01] GOTO 0x0874
 11: 0x07E1 [0x02] IF !(Work_Zone[9] == 5*) GOTO 0x07F0
 12: 0x07E9 [0x1D] PRINT_EVENT_MESSAGE(message_id=6877*)
     "Marvelous work! You are now worthy of the title of journeyman. People in the markets are beginning to talk about you."
 13: 0x07EC [0x23] WAIT_FOR_DIALOG_INTERACTION
 14: 0x07ED [0x01] GOTO 0x0874
 15: 0x07F0 [0x02] IF !(Work_Zone[9] == 6*) GOTO 0x07FF
 16: 0x07F8 [0x1D] PRINT_EVENT_MESSAGE(message_id=6905*)
     "Such fabulous work! I am honored to call you a craftsman, and await your future creations with eager anticipation."
 17: 0x07FB [0x23] WAIT_FOR_DIALOG_INTERACTION
 18: 0x07FC [0x01] GOTO 0x0874
 19: 0x07FF [0x02] IF !(Work_Zone[9] == 7*) GOTO 0x081A
 20: 0x0807 [0x1D] PRINT_EVENT_MESSAGE(message_id=6878*)
     "Stupendous work! I am delighted to call you an artisan! Have you ever thought of starting your own line of products?"
 21: 0x080A [0x23] WAIT_FOR_DIALOG_INTERACTION
 22: 0x080B [0x02] IF !(Work_Zone[5] == 0*) GOTO 0x0817
 23: 0x0813 [0x1D] PRINT_EVENT_MESSAGE(message_id=7063*)
     "Remember that mastering the techniques necessary to become [an artisan/an adept/a veteran] requires considerable focus and devotion. You will find it difficult, if not impossible, to maintain such a high level of skill in multiple disciplines."
 24: 0x0816 [0x23] WAIT_FOR_DIALOG_INTERACTION
 25: 0x0817 [0x01] GOTO 0x0874
 26: 0x081A [0x02] IF !(Work_Zone[9] == 8*) GOTO 0x0835
 27: 0x0822 [0x1D] PRINT_EVENT_MESSAGE(message_id=6879*)
     "I am at a loss for words! There is little more that I can teach you. You are a true adept!"
 28: 0x0825 [0x23] WAIT_FOR_DIALOG_INTERACTION
 29: 0x0826 [0x02] IF !(Work_Zone[5] == 1*) GOTO 0x0832
 30: 0x082E [0x1D] PRINT_EVENT_MESSAGE(message_id=7063*)
     "Remember that mastering the techniques necessary to become [an artisan/an adept/a veteran] requires considerable focus and devotion. You will find it difficult, if not impossible, to maintain such a high level of skill in multiple disciplines."
 31: 0x0831 [0x23] WAIT_FOR_DIALOG_INTERACTION
 32: 0x0832 [0x01] GOTO 0x0874
 33: 0x0835 [0x02] IF !(Work_Zone[9] == 9*) GOTO 0x0850
 34: 0x083D [0x1D] PRINT_EVENT_MESSAGE(message_id=6880*)
     "I don't know what to say... Did you really make this yourself? No, you had to have... I know of no one who can synthesize such beautiful work! Do you mind if I display this in the guild for all the younger members to see?"
 35: 0x0840 [0x23] WAIT_FOR_DIALOG_INTERACTION
 36: 0x0841 [0x02] IF !(Work_Zone[5] == 2*) GOTO 0x084D
 37: 0x0849 [0x1D] PRINT_EVENT_MESSAGE(message_id=7063*)
     "Remember that mastering the techniques necessary to become [an artisan/an adept/a veteran] requires considerable focus and devotion. You will find it difficult, if not impossible, to maintain such a high level of skill in multiple disciplines."
 38: 0x084C [0x23] WAIT_FOR_DIALOG_INTERACTION
 39: 0x084D [0x01] GOTO 0x0874
 40: 0x0850 [0x02] IF !(Work_Zone[9] == 10*) GOTO 0x0874
 41: 0x0858 [0x02] IF !(Work_Zone[7] == 1*) GOTO 0x0867
 42: 0x0860 [0x1D] PRINT_EVENT_MESSAGE(message_id=7056*)
     "Now this...this is a fine piece of leather! If anyone ever deserved the title of expert, it's you. I can hardly wait until the day we go into business together!"
 43: 0x0863 [0x23] WAIT_FOR_DIALOG_INTERACTION
 44: 0x0864 [0x01] GOTO 0x0871
 45: 0x0867 [0x1D] PRINT_EVENT_MESSAGE(message_id=7057*)
     "I must admit, <Player>. I expected better of you. The craftsmanship is passable, but it lacks a certain something..."
 46: 0x086A [0x23] WAIT_FOR_DIALOG_INTERACTION
 47: 0x086B [0x1D] PRINT_EVENT_MESSAGE(message_id=7058*)
     "And no wonder! Wherever is your signature? No, I'm afraid this won't do at all. Back to work for you."
 48: 0x086E [0x23] WAIT_FOR_DIALOG_INTERACTION
 49: 0x086F [0x21] END_EVENT
 50: 0x0870 [0x00] END_REQSTACK()

SUBROUTINE_0871:
 51: 0x0871 [0x01] GOTO 0x0874

SUBROUTINE_0874:
 52: 0x0874 [0x1A] CALL_SUBROUTINE(address=0x08A4)
 53: 0x0877 [0x03] Work_Zone[8] = 5*
 54: 0x087C [0x45] LOAD_SCHEDULED_TASK: Load scheduler "qstc" with entities [LocalPlayer, LocalPlayer], work=[201*, 0*]
 55: 0x088D [0x48] [System] [6812*]:
     "You are now recognized as [an amateur/a recruit/an initiate/a novice/an apprentice/a journeyman/a craftsman/an artisan/an adept/a veteran/an expert/an authority/a luminary/a master/a grandmaster/a legend] of the [Fishermen's/Carpenters'/Blacksmiths'/Goldsmiths'/Weavers'/Tanners'/Boneworkers'/Alchemists'/Culinarians'] Guild."
 56: 0x0890 [0x21] END_EVENT
 57: 0x0891 [0x00] END_REQSTACK()

SUBROUTINE_0892:
 58: 0x0892 [0x6F] WAIT_FRAME_DELAY: Yield until WaitTime reaches zero
 59: 0x0893 [0x70] WAIT_ENTITY_RENDER_FLAG: Wait while EventEntity->Render.Flags3 bit 2 is set (cancel turn if not)
 60: 0x0894 [0x66] LOAD_EXT_SCHEDULER_MAIN: Load scheduler "tlk0" with entities [EventEntity, EventEntity], work=30*
 61: 0x08A3 [0x1B] RETURN

SUBROUTINE_08A4:
 62: 0x08A4 [0x66] LOAD_EXT_SCHEDULER_MAIN: Load scheduler "tlk1" with entities [EventEntity, EventEntity], work=30*
 63: 0x08B3 [0x1B] RETURN
```

#### Data or dead code:

```
# Dead code (unreachable instructions):
     0x08B4 [0x6F] WAIT_FRAME_DELAY: Yield until WaitTime reaches zero
     0x08B5 [0x70] WAIT_ENTITY_RENDER_FLAG: Wait while EventEntity->Render.Flags3 bit 2 is set (cancel turn if not)
     0x08B6 [0x66] LOAD_EXT_SCHEDULER_MAIN: Load scheduler "pas0" with entities [EventEntity, EventEntity], work=30*
     0x08C5 [0x1B] RETURN
     0x08C6 [0x53] WAIT_SCHEDULER_TASK: Wait for scheduler "pas0" with entities [EventEntity, EventEntity]
     0x08D3 [0x1B] RETURN
```

### Event 760

#### Metadata

| Field        | Value     |
|--------------|-----------|
| Entrypoint   | 0x08D4    |
| Data Size    | 372 bytes |
| Instructions | 45        |

```
      00 01 02 03 04 05 06 07  08 09 0A 0B 0C 0D 0E 0F
      -- -- -- -- -- -- -- --  -- -- -- -- -- -- -- --
08D0:             42 75 00 57  80 75 01 45 58 80 F0 FF      Bu.W.u.EX...
08E0: FF 7F F0 FF FF 7F 66 64  6F 31 03 80 55 58 80 F0  ......fdo1..UX..
08F0: FF FF 7F F0 FF FF 7F 66  64 6F 31 46 01 38 0F 80  .......fdo1F.8..
0900: 29 0A F0 FF FF 7F 62 45  02 80 F0 FF FF 7F F0 FF  ).....bE........
0910: FF 7F 73 30 33 35 03 80  45 58 80 F0 FF FF 7F F0  ..s035..EX......
0920: FF FF 7F 66 64 69 31 03  80 1C 06 80 1E F0 FF FF  ...fdi1.........
0930: 7F 03 02 10 59 80 03 03  10 5A 80 03 04 10 5B 80  ....Y....Z....[.
0940: 1D 5C 80 23 45 58 80 F0  FF FF 7F F0 FF FF 7F 66  .\.#EX.........f
0950: 64 6F 31 03 80 55 58 80  F0 FF FF 7F F0 FF FF 7F  do1..UX.........
0960: 66 64 6F 31 7B 53 60 0E  01 66 06 80 F8 FF FF 7F  fdo1{S`..f......
0970: F8 FF FF 7F 74 68 6B 31  52 02 80 F0 FF FF 7F F0  ....thk1R.......
0980: FF FF 7F 73 30 33 35 45  02 80 F0 FF FF 7F F0 FF  ...s035E........
0990: FF 7F 73 30 33 36 03 80  45 58 80 F0 FF FF 7F F0  ..s036..EX......
09A0: FF FF 7F 66 64 69 31 03  80 1C 5D 80 1D 5E 80 23  ...fdi1...]..^.#
09B0: 1D 5F 80 23 66 06 80 F8  FF FF 7F F8 FF FF 7F 74  ._.#f..........t
09C0: 68 6B 32 52 02 80 F0 FF  FF 7F F0 FF FF 7F 73 30  hk2R..........s0
09D0: 33 36 45 02 80 F0 FF FF  7F F0 FF FF 7F 73 30 33  36E..........s03
09E0: 37 03 80 79 00 53 60 0E  01 F0 FF FF 7F 1D 60 80  7..y.S`.......`.
09F0: 23 66 06 80 F8 FF FF 7F  F8 FF FF 7F 74 6C 6B 30  #f..........tlk0
0A00: 1D 61 80 23 66 06 80 F8  FF FF 7F F8 FF FF 7F 74  .a.#f..........t
0A10: 6C 6B 31 45 58 80 F0 FF  FF 7F F0 FF FF 7F 66 64  lk1EX.........fd
0A20: 6F 31 03 80 55 58 80 F0  FF FF 7F F0 FF FF 7F 66  o1..UX.........f
0A30: 64 6F 31 45 58 80 F0 FF  FF 7F F0 FF FF 7F 66 64  do1EX.........fd
0A40: 69 32 03 80 46 00 21 00                           i2..F.!.        
```

#### Opcodes

```
  0: 0x08D4 [0x42] SET_CLI_EVENT_CANCEL_DATA()
  1: 0x08D5 [0x75] LOAD_ROOM(Load indoor room, room=326*)
  2: 0x08D9 [0x75] LOAD_ROOM(No action)
  3: 0x08DB [0x45] LOAD_SCHEDULED_TASK: Load scheduler "fdo1" with entities [LocalPlayer, LocalPlayer], work=[200*, 0*]
  4: 0x08EC [0x55] WAIT_LOAD_SCHEDULER: Wait for scheduler "fdo1" with entities [LocalPlayer, LocalPlayer], work=200*
  5: 0x08FB [0x46] CAMERA_CONTROL: Disable user control
  6: 0x08FD [0x38] SET_CLIENT_EVENT_MODE(mode=3*)
  7: 0x0900 [0x29] REQ_SET_WAIT(priority=0x0A, entity_id=LocalPlayer, tag_num=0x62)
  8: 0x0907 [0x45] LOAD_SCHEDULED_TASK: Load scheduler "s035" with entities [LocalPlayer, LocalPlayer], work=[5*, 0*]
  9: 0x0918 [0x45] LOAD_SCHEDULED_TASK: Load scheduler "fdi1" with entities [LocalPlayer, LocalPlayer], work=[200*, 0*]
 10: 0x0929 [0x1C] WAIT(30* ticks)
 11: 0x092C [0x1E] EventEntity looks at LocalPlayer and starts talking
 12: 0x0931 [0x03] Work_Zone[2] = 1628*
 13: 0x0936 [0x03] Work_Zone[3] = 851*
 14: 0x093B [0x03] Work_Zone[4] = 10000*
 15: 0x0940 [0x1D] PRINT_EVENT_MESSAGE(message_id=6914*)
     "What brings you by my humble guild today, [sir/ma'am]? Perhaps you wish to place a special order?"
 16: 0x0943 [0x23] WAIT_FOR_DIALOG_INTERACTION
 17: 0x0944 [0x45] LOAD_SCHEDULED_TASK: Load scheduler "fdo1" with entities [LocalPlayer, LocalPlayer], work=[200*, 0*]
 18: 0x0955 [0x55] WAIT_LOAD_SCHEDULER: Wait for scheduler "fdo1" with entities [LocalPlayer, LocalPlayer], work=200*
 19: 0x0964 [0x7B] Faulpie (ID: 17719379/0x010E6053) stops talking
 20: 0x0969 [0x66] LOAD_EXT_SCHEDULER_MAIN: Load scheduler "thk1" with entities [EventEntity, EventEntity], work=30*
 21: 0x0978 [0x52] END_LOAD_SCHEDULER: End scheduler "s035" with entities [LocalPlayer, LocalPlayer], work=5*
 22: 0x0987 [0x45] LOAD_SCHEDULED_TASK: Load scheduler "s036" with entities [LocalPlayer, LocalPlayer], work=[5*, 0*]
 23: 0x0998 [0x45] LOAD_SCHEDULED_TASK: Load scheduler "fdi1" with entities [LocalPlayer, LocalPlayer], work=[200*, 0*]
 24: 0x09A9 [0x1C] WAIT(45* ticks)
 25: 0x09AC [0x1D] PRINT_EVENT_MESSAGE(message_id=6915*)
     "......"
 26: 0x09AF [0x23] WAIT_FOR_DIALOG_INTERACTION
 27: 0x09B0 [0x1D] PRINT_EVENT_MESSAGE(message_id=6916*)
     "A costume to fool the Orcs... That may be more difficult than it sounds. You see, there may not be much in the way of gray matter between their stubby ears, but when it comes to hunting, their instincts play a much larger role than their eyesight."
 28: 0x09B3 [0x23] WAIT_FOR_DIALOG_INTERACTION
 29: 0x09B4 [0x66] LOAD_EXT_SCHEDULER_MAIN: Load scheduler "thk2" with entities [EventEntity, EventEntity], work=30*
 30: 0x09C3 [0x52] END_LOAD_SCHEDULER: End scheduler "s036" with entities [LocalPlayer, LocalPlayer], work=5*
 31: 0x09D2 [0x45] LOAD_SCHEDULED_TASK: Load scheduler "s037" with entities [LocalPlayer, LocalPlayer], work=[5*, 0*]
 32: 0x09E3 [0x79] Faulpie (ID: 17719379/0x010E6053) looks at LocalPlayer (Basic look)
 33: 0x09ED [0x1D] PRINT_EVENT_MESSAGE(message_id=6917*)
     "However, if you insist... Faulpie is not one to back down from a challenge. While I work on a pattern, I will require that you procure the following two items: $0 and $1."
 34: 0x09F0 [0x23] WAIT_FOR_DIALOG_INTERACTION
 35: 0x09F1 [0x66] LOAD_EXT_SCHEDULER_MAIN: Load scheduler "tlk0" with entities [EventEntity, EventEntity], work=30*
 36: 0x0A00 [0x1D] PRINT_EVENT_MESSAGE(message_id=6918*)
     "Oh, and as much as I'd like to do this out of the kindness of my heart, I do have a guild to run, so I am going to have to ask you to pay a small design fee of $2 gil. You understand, don't you?"
 37: 0x0A03 [0x23] WAIT_FOR_DIALOG_INTERACTION
 38: 0x0A04 [0x66] LOAD_EXT_SCHEDULER_MAIN: Load scheduler "tlk1" with entities [EventEntity, EventEntity], work=30*
 39: 0x0A13 [0x45] LOAD_SCHEDULED_TASK: Load scheduler "fdo1" with entities [LocalPlayer, LocalPlayer], work=[200*, 0*]
 40: 0x0A24 [0x55] WAIT_LOAD_SCHEDULER: Wait for scheduler "fdo1" with entities [LocalPlayer, LocalPlayer], work=200*
 41: 0x0A33 [0x45] LOAD_SCHEDULED_TASK: Load scheduler "fdi2" with entities [LocalPlayer, LocalPlayer], work=[200*, 0*]
 42: 0x0A44 [0x46] CAMERA_CONTROL: Restore default settings
 43: 0x0A46 [0x21] END_EVENT
 44: 0x0A47 [0x00] END_REQSTACK()
```

### Event 761

#### Metadata

| Field        | Value     |
|--------------|-----------|
| Entrypoint   | 0x0A48    |
| Data Size    | 107 bytes |
| Instructions | 25        |

```
      00 01 02 03 04 05 06 07  08 09 0A 0B 0C 0D 0E 0F
      -- -- -- -- -- -- -- --  -- -- -- -- -- -- -- --
0A40:                          06 01 10 1E F0 FF FF 7F          ........
0A50: 03 02 10 59 80 03 03 10  5A 80 03 04 10 5B 80 1D  ...Y....Z....[..
0A60: 62 80 23 1D 63 80 23 48  64 80 23 24 65 80 0C 80  b.#.c.#Hd.#$e...
0A70: 03 80 25 02 00 10 0C 80  00 85 0A 03 01 10 66 80  ..%...........f.
0A80: 21 00 01 85 0A 24 67 80  0C 80 03 80 25 02 00 10  !....$g.....%...
0A90: 03 80 00 9F 0A 03 01 10  25 80 21 00 01 B1 0A 02  ........%.!.....
0AA0: 00 10 0C 80 00 B1 0A 03  01 10 66 80 21 00 01 B1  ..........f.!...
0AB0: 0A 21 00                                          .!.             
```

#### Opcodes

```
  0: 0x0A48 [0x06] Work_Zone[1] = 0
  1: 0x0A4B [0x1E] EventEntity looks at LocalPlayer and starts talking
  2: 0x0A50 [0x03] Work_Zone[2] = 1628*
  3: 0x0A55 [0x03] Work_Zone[3] = 851*
  4: 0x0A5A [0x03] Work_Zone[4] = 10000*
  5: 0x0A5F [0x1D] PRINT_EVENT_MESSAGE(message_id=6919*)
     "It will be a few more days before I can finish the pattern for your costume. Please come by again later. Oh, and don't forget to bring the $0, $1, and the $2 gil I asked for."
  6: 0x0A62 [0x23] WAIT_FOR_DIALOG_INTERACTION
  7: 0x0A63 [0x1D] PRINT_EVENT_MESSAGE(message_id=6920*)
     "Or...has the expense and time involved convinced you to abandon this venture?"
  8: 0x0A66 [0x23] WAIT_FOR_DIALOG_INTERACTION
  9: 0x0A67 [0x48] [System] [6921*]:
     "If you choose to give up, the quest will be canceled and your quest log reset."
 10: 0x0A6A [0x23] WAIT_FOR_DIALOG_INTERACTION
 11: 0x0A6B [0x24] CREATE_DIALOG(message_id=6922*, default_option=1*, option_flags=0*)
     "Cancel the quest? [Yes./No.]"
 12: 0x0A72 [0x25] WAIT_DIALOG_SELECT()
 13: 0x0A73 [0x02] IF !(Work_Zone[0] == 1*) GOTO 0x0A85
 14: 0x0A7B [0x03] Work_Zone[1] = 1073741824*
 15: 0x0A80 [0x21] END_EVENT
 16: 0x0A81 [0x00] END_REQSTACK()

SUBROUTINE_0A85:
 17: 0x0A85 [0x24] CREATE_DIALOG(message_id=6923*, default_option=1*, option_flags=0*)
     "Do you really wish to cancel the quest? [I really do./I guess I don't.]"
 18: 0x0A8C [0x25] WAIT_DIALOG_SELECT()
 19: 0x0A8D [0x02] IF !(Work_Zone[0] == 0*) GOTO 0x0A9F
 20: 0x0A95 [0x03] Work_Zone[1] = 100*
 21: 0x0A9A [0x21] END_EVENT
 22: 0x0A9B [0x00] END_REQSTACK()

SUBROUTINE_0AB1:
 23: 0x0AB1 [0x21] END_EVENT
 24: 0x0AB2 [0x00] END_REQSTACK()
```

#### Data or dead code:

```
# Dead code (unreachable instructions):
     0x0A82 [0x01] GOTO 0x0A85
# Dead code (unreachable instructions):
     0x0A9C [0x01] GOTO 0x0AB1
     0x0AAE [0x01] GOTO 0x0AB1
```

### Event 762

#### Metadata

| Field        | Value    |
|--------------|----------|
| Entrypoint   | 0x0AB3   |
| Data Size    | 11 bytes |
| Instructions | 5        |

```
      00 01 02 03 04 05 06 07  08 09 0A 0B 0C 0D 0E 0F
      -- -- -- -- -- -- -- --  -- -- -- -- -- -- -- --
0AB0:          1E F0 FF FF 7F  1D 68 80 23 21 00           ......h.#!.  
```

#### Opcodes

```
  0: 0x0AB3 [0x1E] EventEntity looks at LocalPlayer and starts talking
  1: 0x0AB8 [0x1D] PRINT_EVENT_MESSAGE(message_id=6925*)
     "Wonderful. Now that I have everything I require, I can begin working on the final product...... What? You didn't think I was going to be able to whip this together in a matter of minutes, did you?"
  2: 0x0ABB [0x23] WAIT_FOR_DIALOG_INTERACTION
  3: 0x0ABC [0x21] END_EVENT
  4: 0x0ABD [0x00] END_REQSTACK()
```

### Event 763

#### Metadata

| Field        | Value    |
|--------------|----------|
| Entrypoint   | 0x0ABE   |
| Data Size    | 11 bytes |
| Instructions | 5        |

```
      00 01 02 03 04 05 06 07  08 09 0A 0B 0C 0D 0E 0F
      -- -- -- -- -- -- -- --  -- -- -- -- -- -- -- --
0AB0:                                            1E F0                ..
0AC0: FF FF 7F 1D 69 80 23 21  00                       ....i.#!.       
```

#### Opcodes

```
  0: 0x0ABE [0x1E] EventEntity looks at LocalPlayer and starts talking
  1: 0x0AC3 [0x1D] PRINT_EVENT_MESSAGE(message_id=6931*)
     "I know that you must be in a hurry, but I haven't finished your order yet. Please come back later, [sir/ma'am]."
  2: 0x0AC6 [0x23] WAIT_FOR_DIALOG_INTERACTION
  3: 0x0AC7 [0x21] END_EVENT
  4: 0x0AC8 [0x00] END_REQSTACK()
```

### Event 764

#### Metadata

| Field        | Value     |
|--------------|-----------|
| Entrypoint   | 0x0AC9    |
| Data Size    | 169 bytes |
| Instructions | 31        |

```
      00 01 02 03 04 05 06 07  08 09 0A 0B 0C 0D 0E 0F
      -- -- -- -- -- -- -- --  -- -- -- -- -- -- -- --
0AC0:                             06 01 10 1E F0 FF FF           .......
0AD0: 7F 03 02 10 6A 80 03 03  10 6B 80 1D 6C 80 23 24  ....j....k..l.#$
0AE0: 6D 80 03 80 03 80 25 02  00 10 0C 80 00 F9 0A 03  m.....%.........
0AF0: 01 10 66 80 21 00 01 4E  0B 02 00 10 05 80 00 4E  ..f.!..N.......N
0B00: 0B 48 64 80 23 24 65 80  0C 80 03 80 25 02 00 10  .Hd.#$e.....%...
0B10: 0C 80 00 1F 0B 03 01 10  66 80 21 00 01 1F 0B 24  ........f.!....$
0B20: 67 80 0C 80 03 80 25 02  00 10 03 80 00 39 0B 03  g.....%......9..
0B30: 01 10 25 80 21 00 01 4B  0B 02 00 10 0C 80 00 4B  ..%.!..K.......K
0B40: 0B 03 01 10 66 80 21 00  01 4B 0B 01 4E 0B 1D 6E  ....f.!..K..N..n
0B50: 80 23 24 6F 80 0C 80 03  80 25 02 00 10 0C 80 00  .#$o.....%......
0B60: 6C 0B 03 01 10 66 80 21  00 01 6C 0B 1D 70 80 23  l....f.!..l..p.#
0B70: 21 00                                             !.              
```

#### Opcodes

```
  0: 0x0AC9 [0x06] Work_Zone[1] = 0
  1: 0x0ACC [0x1E] EventEntity looks at LocalPlayer and starts talking
  2: 0x0AD1 [0x03] Work_Zone[2] = 1865*
  3: 0x0AD6 [0x03] Work_Zone[3] = 100000*
  4: 0x0ADB [0x1D] PRINT_EVENT_MESSAGE(message_id=6926*)
     "Don't tell me that you lost the $0 I made for you, did you?"
  5: 0x0ADE [0x23] WAIT_FOR_DIALOG_INTERACTION
  6: 0x0ADF [0x24] CREATE_DIALOG(message_id=6927*, default_option=0*, option_flags=0*)
     "What happened? [My mauthe doog ate it./Oh, nothing.../Actually, I think I've had enough...]"
  7: 0x0AE6 [0x25] WAIT_DIALOG_SELECT()
  8: 0x0AE7 [0x02] IF !(Work_Zone[0] == 1*) GOTO 0x0AF9
  9: 0x0AEF [0x03] Work_Zone[1] = 1073741824*
 10: 0x0AF4 [0x21] END_EVENT
 11: 0x0AF5 [0x00] END_REQSTACK()

SUBROUTINE_0B1F:
 12: 0x0B1F [0x24] CREATE_DIALOG(message_id=6923*, default_option=1*, option_flags=0*)
     "Do you really wish to cancel the quest? [I really do./I guess I don't.]"
 13: 0x0B26 [0x25] WAIT_DIALOG_SELECT()
 14: 0x0B27 [0x02] IF !(Work_Zone[0] == 0*) GOTO 0x0B39
 15: 0x0B2F [0x03] Work_Zone[1] = 100*
 16: 0x0B34 [0x21] END_EVENT
 17: 0x0B35 [0x00] END_REQSTACK()

SUBROUTINE_0B4B:
 18: 0x0B4B [0x01] GOTO 0x0B4E

SUBROUTINE_0B4E:
 19: 0x0B4E [0x1D] PRINT_EVENT_MESSAGE(message_id=6928*)
     "...Alright, alright. I will make you a new one, but this time it will cost you. I say about...$1 gil should cover everything."
 20: 0x0B51 [0x23] WAIT_FOR_DIALOG_INTERACTION
 21: 0x0B52 [0x24] CREATE_DIALOG(message_id=6929*, default_option=1*, option_flags=0*)
     "Pay the $1 gil? [I guess I have no choice./Over my dead mauthe doog's body!]"
 22: 0x0B59 [0x25] WAIT_DIALOG_SELECT()
 23: 0x0B5A [0x02] IF !(Work_Zone[0] == 1*) GOTO 0x0B6C
 24: 0x0B62 [0x03] Work_Zone[1] = 1073741824*
