# 17719390 - Michilca

## Common Data

| Field            | Value                         |
|------------------|-------------------------------|
| Zone             | Southern San d'Oria (ID: 230) |
| Block Size       | 372 bytes                     |
| Total Events     | 7                             |
| References Count | 24                            |

## List of Events

| Event ID                 | Entrypoint   |   Size |   Instructions |
|--------------------------|--------------|--------|----------------|
| [65535](#event-65535)    | 0x0000       |      1 |              1 |
| [523](#event-523)        | 0x0001       |      3 |              2 |
| [65535.1](#event-655351) | 0x0004       |     25 |              7 |
| [65535.2](#event-655352) | 0x001D       |     19 |              5 |
| [65535.3](#event-655353) | 0x0030       |     29 |              5 |
| [65535.4](#event-655354) | 0x004D       |     22 |              6 |
| [504](#event-504)        | 0x0063       |    133 |             39 |

## DAT References (imed_data)

|   Index | Hex Value   |   Dec Value |
|---------|-------------|-------------|
|       0 | 0x000D      |          13 |
|       1 | 0x12733     |       75571 |
|       2 | 0x85C7      |       34247 |
|       3 | 0x0000      |           0 |
|       4 | 0x0A68      |        2664 |
|       5 | 0x116B1     |       71345 |
|       6 | 0x9577      |       38263 |
|       7 | 0xFFFFFFF5  |  4294967285 |
|       8 | 0x1145F     |       70751 |
|       9 | 0x9BB7      |       39863 |
|      10 | 0x001E      |          30 |
|      11 | 0x1282A     |       75818 |
|      12 | 0x868F      |       34447 |
|      13 | 0x1E91      |        7825 |
|      14 | 0x1E92      |        7826 |
|      15 | 0x1E93      |        7827 |
|      16 | 0x0DC5      |        3525 |
|      17 | 0x00B4      |         180 |
|      18 | 0x0001      |           1 |
|      19 | 0x1E94      |        7828 |
|      20 | 0x1E97      |        7831 |
|      21 | 0x1E95      |        7829 |
|      22 | 0x1E96      |        7830 |
|      23 | 0x1E98      |        7832 |

## String References

- **7825**: So who is this envelope for? Prince Trion? Or Prince Pieuje?
- **7826**: Who is it for? [Prince Trion./Prince Pieuje.]
- **7827**: All right, I'll deliver it for you. We can't let you in looking like that! Wait here.
- **7828**: I've delivered the envelope to Prince Trion. You're dismissed.
- **7829**: I've delivered the envelope to Prince Pieuje. You're dismissed.
- **7830**: Imbecile! That envelope was for Prince Trion, not Prince Pieuje! Such idiocy... Get out of here!
- **7831**: Imbecile! That envelope was for Prince Pieuje, not Prince Trion! Such idiocy... Get out of here!
- **7832**: Oh, and tell that tailor to send someone respectable next time!

## Events

### Event 65535

#### Metadata

| Field        | Value   |
|--------------|---------|
| Entrypoint   | 0x0000  |
| Data Size    | 1 bytes |
| Instructions | 1       |

```
      00 01 02 03 04 05 06 07  08 09 0A 0B 0C 0D 0E 0F
      -- -- -- -- -- -- -- --  -- -- -- -- -- -- -- --
0000: 00                                                .               
```

#### Opcodes

```
  0: 0x0000 [0x00] END_REQSTACK()
```

### Event 523

#### Metadata

| Field        | Value   |
|--------------|---------|
| Entrypoint   | 0x0001  |
| Data Size    | 3 bytes |
| Instructions | 2       |

```
      00 01 02 03 04 05 06 07  08 09 0A 0B 0C 0D 0E 0F
      -- -- -- -- -- -- -- --  -- -- -- -- -- -- -- --
0000:    22 01 00                                        "..            
```

#### Opcodes

```
  0: 0x0001 [0x22] ENTITY_HIDE_FLAG(enabled=0x01)
  1: 0x0003 [0x00] END_REQSTACK()
```

### Event 65535.1

#### Metadata

| Field        | Value    |
|--------------|----------|
| Entrypoint   | 0x0004   |
| Data Size    | 25 bytes |
| Instructions | 7        |

```
      00 01 02 03 04 05 06 07  08 09 0A 0B 0C 0D 0E 0F
      -- -- -- -- -- -- -- --  -- -- -- -- -- -- -- --
0000:             22 00 2F 00  5E 60 0E 01 32 00 80 1F      "./.^`..2...
0010: 00 01 80 02 80 03 80 1F  01 39 04 80 00           .........9...   
```

#### Opcodes

```
  0: 0x0004 [0x22] ENTITY_HIDE_FLAG(enabled=0x00)
  1: 0x0006 [0x2F] Michilca (ID: 17719390/0x010E605E)->Render.Flags0 &= ~0x80000 // Bit 19
  2: 0x000C [0x32] ExtData[1]->MainSpeed = 13* * 0.1
  3: 0x000F [0x1F] MOVE_ENTITY: EventEntity moves to X=75.571*, Z=34.247*, Y=0.000*
  4: 0x0017 [0x1F] MOVE_ENTITY: Update entity position (mode=1)
  5: 0x0019 [0x39] SET_ENTITY_DIRECTION(direction=14.6°*)
  6: 0x001C [0x00] END_REQSTACK()
```

### Event 65535.2

#### Metadata

| Field        | Value    |
|--------------|----------|
| Entrypoint   | 0x001D   |
| Data Size    | 19 bytes |
| Instructions | 5        |

```
      00 01 02 03 04 05 06 07  08 09 0A 0B 0C 0D 0E 0F
      -- -- -- -- -- -- -- --  -- -- -- -- -- -- -- --
0010:                                         32 00 80               2..
0020: 1F 00 05 80 06 80 07 80  1F 01 1E 5A 60 0E 01 00  ...........Z`...
```

#### Opcodes

```
  0: 0x001D [0x32] ExtData[1]->MainSpeed = 13* * 0.1
  1: 0x0020 [0x1F] MOVE_ENTITY: EventEntity moves to X=71.345*, Z=38.263*, Y=-0.011*
  2: 0x0028 [0x1F] MOVE_ENTITY: Update entity position (mode=1)
  3: 0x002A [0x1E] EventEntity looks at Rosel (ID: 17719386/0x010E605A) and starts talking
  4: 0x002F [0x00] END_REQSTACK()
```

### Event 65535.3

#### Metadata

| Field        | Value    |
|--------------|----------|
| Entrypoint   | 0x0030   |
| Data Size    | 29 bytes |
| Instructions | 5        |

```
      00 01 02 03 04 05 06 07  08 09 0A 0B 0C 0D 0E 0F
      -- -- -- -- -- -- -- --  -- -- -- -- -- -- -- --
0030: 32 00 80 1F 00 08 80 09  80 03 80 1F 01 66 0A 80  2............f..
0040: F8 FF FF 7F F8 FF FF 7F  70 61 73 30 00           ........pas0.   
```

#### Opcodes

```
  0: 0x0030 [0x32] ExtData[1]->MainSpeed = 13* * 0.1
  1: 0x0033 [0x1F] MOVE_ENTITY: EventEntity moves to X=70.751*, Z=39.863*, Y=0.000*
  2: 0x003B [0x1F] MOVE_ENTITY: Update entity position (mode=1)
  3: 0x003D [0x66] LOAD_EXT_SCHEDULER_MAIN: Load scheduler "pas0" with entities [EventEntity, EventEntity], work=30*
  4: 0x004C [0x00] END_REQSTACK()
```

### Event 65535.4

#### Metadata

| Field        | Value    |
|--------------|----------|
| Entrypoint   | 0x004D   |
| Data Size    | 22 bytes |
| Instructions | 6        |

```
      00 01 02 03 04 05 06 07  08 09 0A 0B 0C 0D 0E 0F
      -- -- -- -- -- -- -- --  -- -- -- -- -- -- -- --
0040:                                         32 00 80               2..
0050: 1F 00 0B 80 0C 80 03 80  1F 01 2F 01 5E 60 0E 01  ........../.^`..
0060: 22 01 00                                          "..             
```

#### Opcodes

```
  0: 0x004D [0x32] ExtData[1]->MainSpeed = 13* * 0.1
  1: 0x0050 [0x1F] MOVE_ENTITY: EventEntity moves to X=75.818*, Z=34.447*, Y=0.000*
  2: 0x0058 [0x1F] MOVE_ENTITY: Update entity position (mode=1)
  3: 0x005A [0x2F] Michilca (ID: 17719390/0x010E605E)->Render.Flags0 |= 0x80000 // Bit 19
  4: 0x0060 [0x22] ENTITY_HIDE_FLAG(enabled=0x01)
  5: 0x0062 [0x00] END_REQSTACK()
```

### Event 504

#### Metadata

| Field        | Value     |
|--------------|-----------|
| Entrypoint   | 0x0063    |
| Data Size    | 133 bytes |
| Instructions | 39        |

```
      00 01 02 03 04 05 06 07  08 09 0A 0B 0C 0D 0E 0F
      -- -- -- -- -- -- -- --  -- -- -- -- -- -- -- --
0060:          03 00 00 08 10  1D 0D 80 23 24 0E 80 03     ........#$...
0070: 80 03 80 25 02 00 10 03  80 00 AB 00 1D 0F 80 23  ...%...........#
0080: 39 10 80 1C 11 80 1E F0  FF FF 7F 02 00 00 12 80  9...............
0090: 00 9F 00 1D 13 80 23 03  01 10 03 80 01 A8 00 1D  ......#.........
00A0: 14 80 23 03 01 10 12 80  01 E2 00 02 00 10 12 80  ..#.............
00B0: 00 E2 00 1D 0F 80 23 39  10 80 1C 11 80 1E F0 FF  ......#9........
00C0: FF 7F 02 00 00 03 80 00  D6 00 1D 15 80 23 03 01  .............#..
00D0: 10 03 80 01 DF 00 1D 16  80 23 03 01 10 12 80 01  .........#......
00E0: E2 00 1D 17 80 23 21 00                           .....#!.        
```

#### Opcodes

```
  0: 0x0063 [0x03] ExtData[1]->WorkLocal[0] = Work_Zone[8]
  1: 0x0068 [0x1D] PRINT_EVENT_MESSAGE(message_id=7825*)
    → "So who is this envelope for? Prince Trion? Or Prince Pieuje?"
  2: 0x006B [0x23] WAIT_FOR_DIALOG_INTERACTION
  3: 0x006C [0x24] CREATE_DIALOG(message_id=7826*, default_option=0*, option_flags=0*)
    → "Who is it for? [Prince Trion./Prince Pieuje.]"
  4: 0x0073 [0x25] WAIT_DIALOG_SELECT()
  5: 0x0074 [0x02] IF !(Work_Zone[0] == 0*) GOTO 0x00AB
  6: 0x007C [0x1D] PRINT_EVENT_MESSAGE(message_id=7827*)
    → "All right, I'll deliver it for you. We can't let you in looking like that! Wait here."
  7: 0x007F [0x23] WAIT_FOR_DIALOG_INTERACTION
  8: 0x0080 [0x39] SET_ENTITY_DIRECTION(direction=19.4°*)
  9: 0x0083 [0x1C] WAIT(180* ticks)
 10: 0x0086 [0x1E] EventEntity looks at LocalPlayer and starts talking
 11: 0x008B [0x02] IF !(ExtData[1]->WorkLocal[0] == 1*) GOTO 0x009F
 12: 0x0093 [0x1D] PRINT_EVENT_MESSAGE(message_id=7828*)
    → "I've delivered the envelope to Prince Trion. You're dismissed."
 13: 0x0096 [0x23] WAIT_FOR_DIALOG_INTERACTION
 14: 0x0097 [0x03] Work_Zone[1] = 0*
 15: 0x009C [0x01] GOTO 0x00A8
 16: 0x009F [0x1D] PRINT_EVENT_MESSAGE(message_id=7831*)
    → "Imbecile! That envelope was for Prince Pieuje, not Prince Trion! Such idiocy... Get out of here!"
 17: 0x00A2 [0x23] WAIT_FOR_DIALOG_INTERACTION
 18: 0x00A3 [0x03] Work_Zone[1] = 1*

SUBROUTINE_00A8:
 19: 0x00A8 [0x01] GOTO 0x00E2
 20: 0x00AB [0x02] IF !(Work_Zone[0] == 1*) GOTO 0x00E2
 21: 0x00B3 [0x1D] PRINT_EVENT_MESSAGE(message_id=7827*)
    → "All right, I'll deliver it for you. We can't let you in looking like that! Wait here."
 22: 0x00B6 [0x23] WAIT_FOR_DIALOG_INTERACTION
 23: 0x00B7 [0x39] SET_ENTITY_DIRECTION(direction=19.4°*)
 24: 0x00BA [0x1C] WAIT(180* ticks)
 25: 0x00BD [0x1E] EventEntity looks at LocalPlayer and starts talking
 26: 0x00C2 [0x02] IF !(ExtData[1]->WorkLocal[0] == 0*) GOTO 0x00D6
 27: 0x00CA [0x1D] PRINT_EVENT_MESSAGE(message_id=7829*)
    → "I've delivered the envelope to Prince Pieuje. You're dismissed."
 28: 0x00CD [0x23] WAIT_FOR_DIALOG_INTERACTION
 29: 0x00CE [0x03] Work_Zone[1] = 0*
 30: 0x00D3 [0x01] GOTO 0x00DF
 31: 0x00D6 [0x1D] PRINT_EVENT_MESSAGE(message_id=7830*)
    → "Imbecile! That envelope was for Prince Trion, not Prince Pieuje! Such idiocy... Get out of here!"
 32: 0x00D9 [0x23] WAIT_FOR_DIALOG_INTERACTION
 33: 0x00DA [0x03] Work_Zone[1] = 1*

SUBROUTINE_00DF:
 34: 0x00DF [0x01] GOTO 0x00E2

SUBROUTINE_00E2:
 35: 0x00E2 [0x1D] PRINT_EVENT_MESSAGE(message_id=7832*)
    → "Oh, and tell that tailor to send someone respectable next time!"
 36: 0x00E5 [0x23] WAIT_FOR_DIALOG_INTERACTION
 37: 0x00E6 [0x21] END_EVENT
 38: 0x00E7 [0x00] END_REQSTACK()
```
