# 17719307 - Violitte

## Common Data

| Field            | Value                         |
|------------------|-------------------------------|
| Zone             | Southern San d'Oria (ID: 230) |
| Block Size       | 4284 bytes                    |
| Total Events     | 5                             |
| References Count | 248                           |

## List of Events

| Event ID              | Entrypoint   |   Size |   Instructions |
|-----------------------|--------------|--------|----------------|
| [65535](#event-65535) | 0x0000       |      1 |              1 |
| [595](#event-595)     | 0x0001       |     34 |             10 |
| [851](#event-851)     | 0x0023       |   3218 |            620 |
| [503](#event-503)     | 0x0CB5       |      1 |              1 |
| [3526](#event-3526)   | 0x0CB6       |      1 |              1 |

## DAT References (imed_data)

|   Index | Hex Value   |   Dec Value |
|---------|-------------|-------------|
|       0 | 0x19AD      |        6573 |
|       1 | 0x0000      |           0 |
|       2 | 0x2ECA      |       11978 |
|       3 | 0x0001      |           1 |
|       4 | 0x001E      |          30 |
|       5 | 0x000F      |          15 |
|       6 | 0x0002      |           2 |
|       7 | 0x0010      |          16 |
|       8 | 0x001F      |          31 |
|       9 | 0x2EFF      |       12031 |
|      10 | 0x2F00      |       12032 |
|      11 | 0x2EEF      |       12015 |
|      12 | 0x2EF0      |       12016 |
|      13 | 0x2EF1      |       12017 |
|      14 | 0x19AE      |        6574 |
|      15 | 0x40000000  |  1073741824 |
|      16 | 0x19AF      |        6575 |
|      17 | 0x19B0      |        6576 |
|      18 | 0x19B1      |        6577 |
|      19 | 0x0012      |          18 |
|      20 | 0x0013      |          19 |
|      21 | 0x0004      |           4 |
|      22 | 0x19C9      |        6601 |
|      23 | 0x19CA      |        6602 |
|      24 | 0x0048      |          72 |
|      25 | 0x0020      |          32 |
|      26 | 0x0008      |           8 |
|      27 | 0x000A      |          10 |
|      28 | 0xFFFFFFFF  |  4294967295 |
|      29 | 0x19B2      |        6578 |
|      30 | 0x19B3      |        6579 |
|      31 | 0x19B4      |        6580 |
|      32 | 0x0003      |           3 |
|      33 | 0x19B5      |        6581 |
|      34 | 0x19B6      |        6582 |
|      35 | 0x0005      |           5 |
|      36 | 0x19B7      |        6583 |
|      37 | 0x0006      |           6 |
|      38 | 0x19B8      |        6584 |
|      39 | 0x0007      |           7 |
|      40 | 0x19B9      |        6585 |
|      41 | 0x19BA      |        6586 |
|      42 | 0x0009      |           9 |
|      43 | 0x19BB      |        6587 |
|      44 | 0x19BC      |        6588 |
|      45 | 0x000B      |          11 |
|      46 | 0x19BD      |        6589 |
|      47 | 0x000C      |          12 |
|      48 | 0x19BE      |        6590 |
|      49 | 0x000D      |          13 |
|      50 | 0x19BF      |        6591 |
|      51 | 0x000E      |          14 |
|      52 | 0x19C0      |        6592 |
|      53 | 0x19C1      |        6593 |
|      54 | 0x19C2      |        6594 |
|      55 | 0x0011      |          17 |
|      56 | 0x19C3      |        6595 |
|      57 | 0x19C4      |        6596 |
|      58 | 0x19C5      |        6597 |
|      59 | 0x0014      |          20 |
|      60 | 0x006F      |         111 |
|      61 | 0x0070      |         112 |
|      62 | 0x19C7      |        6599 |
|      63 | 0x0015      |          21 |
|      64 | 0x00BE      |         190 |
|      65 | 0x19C6      |        6598 |
|      66 | 0x0016      |          22 |
|      67 | 0x00BF      |         191 |
|      68 | 0x0017      |          23 |
|      69 | 0x00C0      |         192 |
|      70 | 0x00C2      |         194 |
|      71 | 0x0018      |          24 |
|      72 | 0x00A7      |         167 |
|      73 | 0x0019      |          25 |
|      74 | 0x00A9      |         169 |
|      75 | 0x001A      |          26 |
|      76 | 0x00C4      |         196 |
|      77 | 0x001B      |          27 |
|      78 | 0x00C5      |         197 |
|      79 | 0x001C      |          28 |
|      80 | 0x00A6      |         166 |
|      81 | 0x001D      |          29 |
|      82 | 0x00B8      |         184 |
|      83 | 0x009D      |         157 |
|      84 | 0x009E      |         158 |
|      85 | 0x19C8      |        6600 |
|      86 | 0x00CC      |         204 |
|      87 | 0x00A1      |         161 |
|      88 | 0x00A2      |         162 |
|      89 | 0x19CB      |        6603 |
|      90 | 0x0021      |          33 |
|      91 | 0x0082      |         130 |
|      92 | 0x0022      |          34 |
|      93 | 0x00FC      |         252 |
|      94 | 0x0023      |          35 |
|      95 | 0x009F      |         159 |
|      96 | 0x0024      |          36 |
|      97 | 0x00A0      |         160 |
|      98 | 0x0025      |          37 |
|      99 | 0x19CD      |        6605 |
|     100 | 0x0026      |          38 |
|     101 | 0x00AE      |         174 |
|     102 | 0x0027      |          39 |
|     103 | 0x0099      |         153 |
|     104 | 0x0028      |          40 |
|     105 | 0x00B1      |         177 |
|     106 | 0x00B2      |         178 |
|     107 | 0x0029      |          41 |
|     108 | 0x00CD      |         205 |
|     109 | 0x002A      |          42 |
|     110 | 0x00D0      |         208 |
|     111 | 0x002B      |          43 |
|     112 | 0x00B0      |         176 |
|     113 | 0x002C      |          44 |
|     114 | 0x19CC      |        6604 |
|     115 | 0x002D      |          45 |
|     116 | 0x00D5      |         213 |
|     117 | 0x002E      |          46 |
|     118 | 0x002F      |          47 |
|     119 | 0x0030      |          48 |
|     120 | 0x0031      |          49 |
|     121 | 0x0032      |          50 |
|     122 | 0x0033      |          51 |
|     123 | 0x0034      |          52 |
|     124 | 0x0035      |          53 |
|     125 | 0x0036      |          54 |
|     126 | 0x0037      |          55 |
|     127 | 0x0038      |          56 |
|     128 | 0x0039      |          57 |
|     129 | 0x003A      |          58 |
|     130 | 0x19CE      |        6606 |
|     131 | 0x003B      |          59 |
|     132 | 0x19CF      |        6607 |
|     133 | 0x003C      |          60 |
|     134 | 0x19D0      |        6608 |
|     135 | 0x003D      |          61 |
|     136 | 0x004F      |          79 |
|     137 | 0x003E      |          62 |
|     138 | 0x003F      |          63 |
|     139 | 0x0044      |          68 |
|     140 | 0x0040      |          64 |
|     141 | 0x0041      |          65 |
|     142 | 0x0042      |          66 |
|     143 | 0x0043      |          67 |
|     144 | 0x19D1      |        6609 |
|     145 | 0x0045      |          69 |
|     146 | 0x0053      |          83 |
|     147 | 0x19D2      |        6610 |
|     148 | 0x0046      |          70 |
|     149 | 0x0059      |          89 |
|     150 | 0x0047      |          71 |
|     151 | 0x0060      |          96 |
|     152 | 0x0181      |         385 |
|     153 | 0x0182      |         386 |
|     154 | 0x0183      |         387 |
|     155 | 0x0184      |         388 |
|     156 | 0x018D      |         397 |
|     157 | 0x0194      |         404 |
|     158 | 0x0195      |         405 |
|     159 | 0x01AD      |         429 |
|     160 | 0x018B      |         395 |
|     161 | 0x0196      |         406 |
|     162 | 0x0197      |         407 |
|     163 | 0x0198      |         408 |
|     164 | 0x0199      |         409 |
|     165 | 0x018F      |         399 |
|     166 | 0x019F      |         415 |
|     167 | 0x01AE      |         430 |
|     168 | 0x0185      |         389 |
|     169 | 0x0190      |         400 |
|     170 | 0x0192      |         402 |
|     171 | 0x019D      |         413 |
|     172 | 0x0186      |         390 |
|     173 | 0x0187      |         391 |
|     174 | 0x0188      |         392 |
|     175 | 0x0189      |         393 |
|     176 | 0x018A      |         394 |
|     177 | 0x018C      |         396 |
|     178 | 0x018E      |         398 |
|     179 | 0x0191      |         401 |
|     180 | 0x0193      |         403 |
|     181 | 0x019A      |         410 |
|     182 | 0x019B      |         411 |
|     183 | 0x019C      |         412 |
|     184 | 0x019E      |         414 |
|     185 | 0x01A0      |         416 |
|     186 | 0x01A1      |         417 |
|     187 | 0x01A2      |         418 |
|     188 | 0x01A3      |         419 |
|     189 | 0x01A4      |         420 |
|     190 | 0x01A5      |         421 |
|     191 | 0x01A6      |         422 |
|     192 | 0x01A7      |         423 |
|     193 | 0x01A8      |         424 |
|     194 | 0x01A9      |         425 |
|     195 | 0x01AA      |         426 |
|     196 | 0x01AB      |         427 |
|     197 | 0x01AC      |         428 |
|     198 | 0x01AF      |         431 |
|     199 | 0x01B0      |         432 |
|     200 | 0x01B1      |         433 |
|     201 | 0x01B2      |         434 |
|     202 | 0x01B3      |         435 |
|     203 | 0x01B8      |         440 |
|     204 | 0x01B9      |         441 |
|     205 | 0x01BA      |         442 |
|     206 | 0x01BB      |         443 |
|     207 | 0x01BC      |         444 |
|     208 | 0x01BD      |         445 |
|     209 | 0x01BE      |         446 |
|     210 | 0x0740      |        1856 |
|     211 | 0x0741      |        1857 |
|     212 | 0x0742      |        1858 |
|     213 | 0x0743      |        1859 |
|     214 | 0x0744      |        1860 |
|     215 | 0x0745      |        1861 |
|     216 | 0x0746      |        1862 |
|     217 | 0x0747      |        1863 |
|     218 | 0x0748      |        1864 |
|     219 | 0x0749      |        1865 |
|     220 | 0x0752      |        1874 |
|     221 | 0x0757      |        1879 |
|     222 | 0x0759      |        1881 |
|     223 | 0x075B      |        1883 |
|     224 | 0x00C8      |         200 |
|     225 | 0x0258      |         600 |
|     226 | 0x0BB8      |        3000 |
|     227 | 0x00E6      |         230 |
|     228 | 0x00EA      |         234 |
|     229 | 0x00EE      |         238 |
|     230 | 0x00F3      |         243 |
|     231 | 0x0097      |         151 |
|     232 | 0x008C      |         140 |
|     233 | 0x0095      |         149 |
|     234 | 0x00AC      |         172 |
|     235 | 0x008F      |         143 |
|     236 | 0x0093      |         147 |
|     237 | 0x0091      |         145 |
|     238 | 0x00C6      |         198 |
|     239 | 0x0079      |         121 |
|     240 | 0x007E      |         126 |
|     241 | 0x00C3      |         195 |
|     242 | 0x007B      |         123 |
|     243 | 0x00AD      |         173 |
|     244 | 0x0071      |         113 |
|     245 | 0x004B      |          75 |
|     246 | 0x00FF      |         255 |
|     247 | 0x01FF      |         511 |

## String References

- **6573**: Can I interest you in some magical maps?
- **6574**: Buy a map? [Decline./Inquire about maps./$3 ($17 gil)./$3 ($18 gil)./$3 ($19 gil)./$3 ($20 gil)./$3 ($21 gil)./$3 ($22 gil)./$3 ($23 gil)./$3 ($24 gil)./$3 ($25 gil)./$3 ($26 gil)./$3 ($27 gil)./$3 ($28 gil)./$3 ($29 gil)./$3 ($30 gil)./$3 ($31 gil)./$3 ($ gil)./Previous page./Next page.]
- **6575**: When you look at a map for your present area, you can see the lay of the land, as well as your current location.
- **6576**: Members of your party and alliance will appear on the map, too. Also, certain jobs let you find people and monsters from a distance.
- **6577**: They're especially handy because you can mark where you've been, and some people can mark them for you as well.
- **6578**: The $3 covers Ronfaure, the La Theine Plateau, the Valkurm Dunes, Jugner Forest, Selbina, and San d'Oria. It costs $3 gil.
- **6579**: The $3 covers Gustaberg, the Konschtat Highlands, the Pashhow Marshlands, and Bastok. It costs $3 gil.
- **6580**: The $3 covers Sarutabaruta, the Tahrongi Canyon, the Buburimu Peninsula, the Meriphataud Mountains, Mhaura, and Windurst. It costs $3 gil.
- **6581**: The $3 covers Batallia Downs, Rolanberry Fields, the Sauromugue Champaign, and Jeuno. It costs $3 gil.
- **6582**: This complete $3, which extend far beneath La Theine Plateau, costs $3 gil.
- **6583**: $5 include layouts for both outpost and fortress of Ghelsba, as well as the Yughott Grotto. It costs $3 gil.
- **6584**: The $3 shows the notorious Orcish stronghold hidden within Jugner Forest. It is priced at $3 gil.
- **6585**: This map shows the waterways and islands that make up Carpenters' Landing. It is priced at $3 gil.
- **6586**: The $3, as the name implies, contains the layout of Bastok's Zeruhn Mines. It costs $3 gil.
- **6587**: The $3, as the name implies, contains the layout of the Palborough Mines, which lie in North Gustaberg. It costs $3 gil.
- **6588**: The $3, as the name implies, contains the layout of the Quadav stronghold, Beadeaux, that is located in the Pashhow Marshlands. It costs $3 gil.
- **6589**: The $3, as the name implies, contains the layout of Giddeus, which you can reach from West Sarutabaruta. It costs $3 gil.
- **6590**: The $3 contains the layout of the Yagudo stronghold, Castle Oztroja, located in the Meriphataud Mountains. It costs $3 gil.
- **6591**: The $3 contains the layout of the underground maze of Shakhrami that can be found in the Tahrongi Canyon area. It costs $3 gil.
- **6592**: The $3 covers the Sanctuary of Zi'Tah, Ro'Maeve, and the Hall of the Gods. It costs $3 gil.
- **6593**: This map covers Bibiki Bay and its nearby islands. It costs $3 gil.
- **6594**: The $3 outlines the geography of nearby Qufim Island. It costs $3 gil.
- **6595**: Located beneath Batallia Downs, the Eldieme Necropolis is shown in detail on this map. The price is $3 gil.
- **6596**: The Garlaige Citadel, which lies upon the Sauromugue Champaign, is illustrated in this map. Each copy costs $3 gil.
- **6597**: $5 include Kazham, as well as both jungles of Yuhtunga and Yhoator for $3 gil.
- **6598**: $5 include $8 for $3 gil.
- **6599**: $5 include $8 as well as $8 for $3 gil.
- **6600**: $5 include $8, as well as $8 and $8 for $3 gil.
- **6601**: Buy $6? [Yes./No.]
- **6602**: You haven't enough money, [sir/ma'am].
- **6603**: Maps of the Kuzotz region include Altepa Desert as well as Rabao for $3 gil.
- **6604**: Maps of the Vollbow region include Cape Teriggan, as well as Valley of Sorrows and Gustav Tunnel for $3 gil.
- **6605**: Maps of the Korroloka Tunnel are, as their names imply, maps of the Korroloka Tunnel, which connects Altepa Desert and Zeruhn Mines.
- **6606**: The map of Al Zahbi also includes Aht Urhgan Whitegate and the Colosseum. It costs $2 gil.
- **6607**: This map shows the layout of the Azouph Isle town of Nashmau. It costs $3 gil.
- **6608**: This map shows the forest tract stretching west of Al Zahbi. A map of the Wajaom Woodlands can be yours for $3 gil.
- **6609**: This map shows Bhaflau Thickets, lying to the north of Al Zahbi. It costs $3 gil.
- **6610**: $6 is an older map that was often used to depict $8. It costs $3 gil.
- **11978**: Ask if this person is the chick's owner? [Yes./No.]
- **12015**: You have my chocobo? I must say, this is a surprise!
- **12016**: My chocobo easily becomes lonely... His crying must have kept you awake at night. I am sure I will have to tell him his favorite story several times before he calms down again.
- **12017**: As thanks for saving him, let me tell you the story, too...
- **12031**: You have my chocobo? I must say, this is a surprise!
- **12032**: Especially since my chocobo becomes lonely so easily... He would never leave my side! I am afraid you are mistaken, [sir/ma'am].

## Events

### Event 65535

#### Metadata

| Field        | Value   |
|--------------|---------|
| Entrypoint   | 0x0000  |
| Data Size    | 1 bytes |
| Instructions | 1       |

```
      00 01 02 03 04 05 06 07  08 09 0A 0B 0C 0D 0E 0F
      -- -- -- -- -- -- -- --  -- -- -- -- -- -- -- --
0000: 00                                                .               
```

#### Opcodes

```
  0: 0x0000 [0x00] END_REQSTACK()
```

### Event 595

#### Metadata

| Field        | Value    |
|--------------|----------|
| Entrypoint   | 0x0001   |
| Data Size    | 34 bytes |
| Instructions | 10       |

```
      00 01 02 03 04 05 06 07  08 09 0A 0B 0C 0D 0E 0F
      -- -- -- -- -- -- -- --  -- -- -- -- -- -- -- --
0000:    1E F0 FF FF 7F 1D 00  80 23 03 0A 00 02 10 03   ........#......
0010: 0B 00 03 10 03 0C 00 04  10 03 0D 00 08 10 1A D6  ................
0020: 00 21 00                                          .!.             
```

#### Opcodes

```
  0: 0x0001 [0x1E] EventEntity looks at LocalPlayer and starts talking
  1: 0x0006 [0x1D] PRINT_EVENT_MESSAGE(message_id=6573*)
    → "Can I interest you in some magical maps?"
  2: 0x0009 [0x23] WAIT_FOR_DIALOG_INTERACTION
  3: 0x000A [0x03] ExtData[1]->WorkLocal[10] = Work_Zone[2]
  4: 0x000F [0x03] ExtData[1]->WorkLocal[11] = Work_Zone[3]
  5: 0x0014 [0x03] ExtData[1]->WorkLocal[12] = Work_Zone[4]
  6: 0x0019 [0x03] ExtData[1]->WorkLocal[13] = Work_Zone[8]
  7: 0x001E [0x1A] CALL_SUBROUTINE(address=0x00D6)
  8: 0x0021 [0x21] END_EVENT
  9: 0x0022 [0x00] END_REQSTACK()
```

### Event 851

#### Metadata

| Field        | Value      |
|--------------|------------|
| Entrypoint   | 0x0023     |
| Data Size    | 3218 bytes |
| Instructions | 563        |

```
      00 01 02 03 04 05 06 07  08 09 0A 0B 0C 0D 0E 0F
      -- -- -- -- -- -- -- --  -- -- -- -- -- -- -- --
0020:          42 03 01 10 01  80 1E F0 FF FF 7F 1D 00     B............
0030: 80 23 03 07 00 02 10 24  02 80 03 80 01 80 25 02  .#.....$......%.
0040: 00 10 01 80 00 C6 00 1E  F0 FF FF 7F 1C 04 80 40  ...............@
0050: 01 80 05 80 01 10 06 80  40 07 80 08 80 01 10 06  ........@.......
0060: 00 43 00 43 01 02 03 10  01 80 00 87 00 1D 09 80  .C.C............
0070: 23 66 04 80 F8 FF FF 7F  F8 FF FF 7F 74 6C 6B 30  #f..........tlk0
0080: 1D 0A 80 23 01 B1 00 66  04 80 F8 FF FF 7F F8 FF  ...#...f........
0090: FF 7F 74 6C 6B 30 1D 0B  80 23 1D 0C 80 23 66 04  ..tlk0...#...#f.
00A0: 80 F8 FF FF 7F F8 FF FF  7F 74 6C 6B 31 1D 0D 80  .........tlk1...
00B0: 23 40 01 80 05 80 01 10  06 80 40 07 80 08 80 01  #@........@.....
00C0: 10 01 80 01 D4 00 02 00  10 03 80 00 D4 00 1A D6  ................
00D0: 00 01 D4 00 21 00 06 04  00 06 02 00 06 03 00 02  ....!...........
00E0: 04 00 01 80 00 EB 01 1A  75 02 24 0E 80 02 00 05  ........u.$.....
00F0: 00 25 02 00 10 01 80 00  FD 00 01 FD 00 03 02 00  .%..............
0100: 00 10 02 02 00 01 80 80  15 01 03 01 10 0F 80 05  ................
0110: 04 00 01 61 01 02 02 00  03 80 80 2F 01 1D 10 80  ...a......./....
0120: 23 1D 11 80 23 1D 12 80  23 06 02 00 01 61 01 02  #...#...#....a..
0130: 02 00 13 80 80 48 01 02  03 00 01 80 02 45 01 0C  .....H.......E..
0140: 03 00 06 02 00 01 61 01  02 02 00 14 80 80 61 01  ......a.......a.
0150: 02 03 00 15 80 03 5E 01  0B 03 00 06 02 00 01 61  ......^........a
0160: 01 02 02 00 01 80 01 E8  01 03 06 00 02 00 08 06  ................
0170: 00 06 80 9D 00 95 09 01  00 06 00 1A 49 02 9D 00  ............I...
0180: E5 09 01 00 06 00 9D 00  75 0A 08 00 06 00 1A BA  ........u.......
0190: 03 03 02 10 01 00 24 16  80 03 80 01 80 25 02 00  ......$......%..
01A0: 10 01 80 00 DD 01 40 01  80 05 80 01 10 03 80 40  ......@........@
01B0: 07 80 08 80 01 10 06 00  43 00 43 01 03 0A 00 02  ........C.C.....
01C0: 10 03 0B 00 03 10 03 0C  00 04 10 02 09 10 01 80  ................
01D0: 00 D6 01 01 DA 01 1D 17  80 23 01 E8 01 02 00 10  .........#......
01E0: 03 80 00 E8 01 01 E8 01  01 DF 00 1B 06 00 00 06  ................
01F0: 0E 00 06 09 00 02 00 00  18 80 03 1A 02 1A 30 02  ..............0.
0200: 3F 15 00 00 00 19 80 3E  09 00 15 00 11 02 01 14  ?......>........
0210: 02 0B 0E 00 0B 00 00 01  F5 01 03 10 00 0E 00 02  ................
0220: 10 00 01 80 02 2F 02 0C  10 00 15 10 00 07 80 1B  ...../..........
0230: 06 0F 00 06 09 00 03 0F  00 00 00 15 0F 00 19 80  ................
0240: 9D 00 85 09 09 00 0F 00  1B 06 00 00 02 00 00 18  ................
0250: 80 03 74 02 9D 00 E5 09  09 00 00 00 02 01 00 09  ..t.............
0260: 00 00 6E 02 03 06 00 00  00 03 00 00 18 80 0B 00  ..n.............
0270: 00 01 4C 02 1B 1A 6B 09  1A EC 01 06 05 00 06 00  ..L...k.........
0280: 00 06 06 00 06 11 00 06  12 00 03 11 00 03 00 14  ................
0290: 11 00 07 80 03 12 00 11  00 07 12 00 07 80 0C 12  ................
02A0: 00 02 12 00 0E 00 04 B1  02 03 12 00 0E 00 0C 12  ................
02B0: 00 06 06 00 02 00 00 18  80 03 53 03 1A 30 02 3F  ..........S..0.?
02C0: 0F 00 00 00 19 80 3E 09  00 0F 00 D0 02 01 4D 03  ......>.......M.
02D0: 02 06 00 11 00 04 4A 03  02 06 00 12 00 05 45 03  ......J.......E.
02E0: 9D 00 E5 09 01 00 00 00  9D 00 75 0A 08 00 00 00  ..........u.....
02F0: 9D 00 25 0C 14 00 00 00  02 14 00 03 80 00 10 03  ..%.............
0300: 02 0D 00 1A 80 01 0D 03  14 08 00 1B 80 01 1B 03  ................
0310: 02 0D 00 1A 80 00 1B 03  06 01 00 02 01 00 01 80  ................
0320: 02 42 03 3F 13 00 06 00  07 80 9D 05 95 09 01 00  .B.?............
0330: 13 00 07 13 00 07 80 9D  05 95 09 08 00 13 00 01  ................
0340: 42 03 01 4A 03 03 00 00  18 80 0B 06 00 0B 00 00  B..J............
0350: 01 B4 02 03 13 00 12 00  08 13 00 11 00 0B 13 00  ................
0360: 40 13 00 08 80 05 00 1C  80 10 05 00 06 80 02 03  @...............
0370: 00 01 80 02 80 03 3D 05  00 13 80 03 80 01 87 03  ......=.........
0380: 3C 05 00 13 80 03 80 02  03 00 10 00 03 99 03 3D  <..............=
0390: 05 00 14 80 03 80 01 A0  03 3C 05 00 14 80 03 80  .........<......
03A0: 02 03 00 01 80 02 B2 03  3C 05 00 03 80 03 80 01  ........<.......
03B0: B9 03 3D 05 00 03 80 03  80 1B 9D 00 E5 09 01 00  ..=.............
03C0: 06 00 9D 00 75 0A 08 00  06 00 03 03 10 01 00 03  ....u...........
03D0: 05 10 08 00 02 06 00 01  80 80 E3 03 1D 1D 80 23  ...............#
03E0: 01 6A 09 02 06 00 03 80  80 F2 03 1D 1E 80 23 01  .j............#.
03F0: 6A 09 02 06 00 06 80 80  01 04 1D 1F 80 23 01 6A  j............#.j
0400: 09 02 06 00 20 80 80 10  04 1D 21 80 23 01 6A 09  .... .....!.#.j.
0410: 02 06 00 15 80 80 1F 04  1D 22 80 23 01 6A 09 02  .........".#.j..
0420: 06 00 23 80 80 2E 04 1D  24 80 23 01 6A 09 02 06  ..#.....$.#.j...
0430: 00 25 80 80 3D 04 1D 26  80 23 01 6A 09 02 06 00  .%..=..&.#.j....
0440: 27 80 80 4C 04 1D 28 80  23 01 6A 09 02 06 00 1A  '..L..(.#.j.....
0450: 80 80 5B 04 1D 29 80 23  01 6A 09 02 06 00 2A 80  ..[..).#.j....*.
0460: 80 6A 04 1D 2B 80 23 01  6A 09 02 06 00 1B 80 80  .j..+.#.j.......
0470: 79 04 1D 2C 80 23 01 6A  09 02 06 00 2D 80 80 88  y..,.#.j....-...
0480: 04 1D 2E 80 23 01 6A 09  02 06 00 2F 80 80 97 04  ....#.j..../....
0490: 1D 30 80 23 01 6A 09 02  06 00 31 80 80 A6 04 1D  .0.#.j....1.....
04A0: 32 80 23 01 6A 09 02 06  00 33 80 80 B5 04 1D 34  2.#.j....3.....4
04B0: 80 23 01 6A 09 02 06 00  05 80 80 C4 04 1D 35 80  .#.j..........5.
04C0: 23 01 6A 09 02 06 00 07  80 80 D3 04 1D 36 80 23  #.j..........6.#
04D0: 01 6A 09 02 06 00 37 80  80 E2 04 1D 38 80 23 01  .j....7.....8.#.
04E0: 6A 09 02 06 00 13 80 80  F1 04 1D 39 80 23 01 6A  j..........9.#.j
04F0: 09 02 06 00 14 80 80 00  05 1D 3A 80 23 01 6A 09  ..........:.#.j.
0500: 02 06 00 3B 80 80 19 05  03 04 10 3C 80 03 06 10  ...;.......<....
0510: 3D 80 1D 3E 80 23 01 6A  09 02 06 00 3F 80 80 2D  =..>.#.j....?..-
0520: 05 03 04 10 40 80 1D 41  80 23 01 6A 09 02 06 00  ....@..A.#.j....
0530: 42 80 80 41 05 03 04 10  43 80 1D 41 80 23 01 6A  B..A....C..A.#.j
0540: 09 02 06 00 44 80 80 5A  05 03 04 10 45 80 03 06  ....D..Z....E...
0550: 10 46 80 1D 3E 80 23 01  6A 09 02 06 00 47 80 80  .F..>.#.j....G..
0560: 6E 05 03 04 10 48 80 1D  41 80 23 01 6A 09 02 06  n....H..A.#.j...
0570: 00 49 80 80 82 05 03 04  10 4A 80 1D 41 80 23 01  .I.......J..A.#.
0580: 6A 09 02 06 00 4B 80 80  96 05 03 04 10 4C 80 1D  j....K.......L..
0590: 41 80 23 01 6A 09 02 06  00 4D 80 80 AA 05 03 04  A.#.j....M......
05A0: 10 4E 80 1D 41 80 23 01  6A 09 02 06 00 4F 80 80  .N..A.#.j....O..
05B0: BE 05 03 04 10 50 80 1D  41 80 23 01 6A 09 02 06  .....P..A.#.j...
05C0: 00 51 80 80 DC 05 03 04  10 52 80 03 06 10 53 80  .Q.......R....S.
05D0: 03 07 10 54 80 1D 55 80  23 01 6A 09 02 06 00 04  ...T..U.#.j.....
05E0: 80 80 F0 05 03 04 10 56  80 1D 41 80 23 01 6A 09  .......V..A.#.j.
05F0: 02 06 00 08 80 80 09 06  03 04 10 57 80 03 06 10  ...........W....
0600: 58 80 1D 3E 80 23 01 6A  09 02 06 00 19 80 80 18  X..>.#.j........
0610: 06 1D 59 80 23 01 6A 09  02 06 00 5A 80 80 2C 06  ..Y.#.j....Z..,.
0620: 03 04 10 5B 80 1D 41 80  23 01 6A 09 02 06 00 5C  ...[..A.#.j....\
0630: 80 80 40 06 03 04 10 5D  80 1D 41 80 23 01 6A 09  ..@....]..A.#.j.
0640: 02 06 00 5E 80 80 54 06  03 04 10 5F 80 1D 41 80  ...^..T...._..A.
0650: 23 01 6A 09 02 06 00 60  80 80 68 06 03 04 10 61  #.j....`..h....a
0660: 80 1D 41 80 23 01 6A 09  02 06 00 62 80 80 77 06  ..A.#.j....b..w.
0670: 1D 63 80 23 01 6A 09 02  06 00 64 80 80 8B 06 03  .c.#.j....d.....
0680: 04 10 65 80 1D 41 80 23  01 6A 09 02 06 00 66 80  ..e..A.#.j....f.
0690: 80 9F 06 03 04 10 67 80  1D 41 80 23 01 6A 09 02  ......g..A.#.j..
06A0: 06 00 68 80 80 B8 06 03  04 10 69 80 03 06 10 6A  ..h.......i....j
06B0: 80 1D 3E 80 23 01 6A 09  02 06 00 6B 80 80 CC 06  ..>.#.j....k....
06C0: 03 04 10 6C 80 1D 41 80  23 01 6A 09 02 06 00 6D  ...l..A.#.j....m
06D0: 80 80 E0 06 03 04 10 6E  80 1D 41 80 23 01 6A 09  .......n..A.#.j.
06E0: 02 06 00 6F 80 80 F4 06  03 04 10 70 80 1D 41 80  ...o.......p..A.
06F0: 23 01 6A 09 02 06 00 71  80 80 03 07 1D 72 80 23  #.j....q.....r.#
0700: 01 6A 09 02 06 00 73 80  80 17 07 03 04 10 74 80  .j....s.......t.
0710: 1D 41 80 23 01 6A 09 02  06 00 75 80 80 2B 07 03  .A.#.j....u..+..
0720: 04 10 23 80 1D 41 80 23  01 6A 09 02 06 00 76 80  ..#..A.#.j....v.
0730: 80 3F 07 03 04 10 27 80  1D 41 80 23 01 6A 09 02  .?....'..A.#.j..
0740: 06 00 77 80 80 53 07 03  04 10 2A 80 1D 41 80 23  ..w..S....*..A.#
0750: 01 6A 09 02 06 00 78 80  80 67 07 03 04 10 2D 80  .j....x..g....-.
0760: 1D 41 80 23 01 6A 09 02  06 00 79 80 80 7B 07 03  .A.#.j....y..{..
0770: 04 10 2F 80 1D 41 80 23  01 6A 09 02 06 00 7A 80  ../..A.#.j....z.
0780: 80 99 07 03 04 10 47 80  03 06 10 49 80 03 07 10  ......G....I....
0790: 4B 80 1D 55 80 23 01 6A  09 02 06 00 7B 80 80 AD  K..U.#.j....{...
07A0: 07 03 04 10 4D 80 1D 41  80 23 01 6A 09 02 06 00  ....M..A.#.j....
07B0: 7C 80 80 C1 07 03 04 10  4F 80 1D 41 80 23 01 6A  |.......O..A.#.j
07C0: 09 02 06 00 7D 80 80 DA  07 03 04 10 04 80 03 06  ....}...........
07D0: 10 51 80 1D 3E 80 23 01  6A 09 02 06 00 7E 80 80  .Q..>.#.j....~..
07E0: EE 07 03 04 10 5A 80 1D  41 80 23 01 6A 09 02 06  .....Z..A.#.j...
07F0: 00 7F 80 80 02 08 03 04  10 5C 80 1D 41 80 23 01  .........\..A.#.
0800: 6A 09 02 06 00 80 80 80  16 08 03 04 10 5E 80 1D  j............^..
0810: 41 80 23 01 6A 09 02 06  00 81 80 80 2A 08 03 04  A.#.j.......*...
0820: 10 08 00 1D 82 80 23 01  6A 09 02 06 00 83 80 80  ......#.j.......
0830: 39 08 1D 84 80 23 01 6A  09 02 06 00 85 80 80 48  9....#.j.......H
0840: 08 1D 86 80 23 01 6A 09  02 06 00 87 80 80 5C 08  ....#.j.......\.
0850: 03 04 10 88 80 1D 41 80  23 01 6A 09 02 06 00 89  ......A.#.j.....
0860: 80 80 70 08 03 04 10 87  80 1D 41 80 23 01 6A 09  ..p.......A.#.j.
0870: 02 06 00 8A 80 80 84 08  03 04 10 8B 80 1D 41 80  ..............A.
0880: 23 01 6A 09 02 06 00 8C  80 80 98 08 03 04 10 8D  #.j.............
0890: 80 1D 41 80 23 01 6A 09  02 06 00 8D 80 80 AC 08  ..A.#.j.........
08A0: 03 04 10 89 80 1D 41 80  23 01 6A 09 02 06 00 8E  ......A.#.j.....
08B0: 80 80 C0 08 03 04 10 7D  80 1D 41 80 23 01 6A 09  .......}..A.#.j.
08C0: 02 06 00 8F 80 80 D4 08  03 04 10 18 80 1D 41 80  ..............A.
08D0: 23 01 6A 09 02 06 00 8B  80 80 E3 08 1D 90 80 23  #.j............#
08E0: 01 6A 09 02 06 00 91 80  80 10 09 02 0D 00 1A 80  .j..............
08F0: 00 FF 08 03 04 10 92 80  1D 41 80 23 01 0D 09 03  .........A.#....
0900: 04 10 92 80 14 05 10 1B  80 1D 93 80 23 01 6A 09  ............#.j.
0910: 02 06 00 94 80 80 3D 09  02 0D 00 1A 80 00 2C 09  ......=.......,.
0920: 03 04 10 95 80 1D 41 80  23 01 3A 09 03 04 10 95  ......A.#.:.....
0930: 80 14 05 10 1B 80 1D 93  80 23 01 6A 09 02 06 00  .........#.j....
0940: 96 80 80 6A 09 02 0D 00  1A 80 00 59 09 03 04 10  ...j.......Y....
0950: 97 80 1D 41 80 23 01 67  09 03 04 10 97 80 14 05  ...A.#.g........
0960: 10 1B 80 1D 93 80 23 01  6A 09 1B 06 00 00 02 00  ......#.j.......
0970: 00 68 80 03 84 09 9D 05  95 09 01 80 00 00 0B 00  .h..............
0980: 00 01 6E 09 1B 0A 00 0B  00 0C 00 01 80 01 80 01  ..n.............
0990: 80 01 80 01 80 03 10 04  10 05 10 06 10 07 10 08  ................
09A0: 10 09 10 00 17 01 17 02  17 03 17 04 17 05 17 06  ................
09B0: 17 07 17 08 17 09 17 0A  17 0B 17 0C 17 0D 17 0E  ................
09C0: 17 0F 17 10 17 11 17 12  17 13 17 14 17 15 17 16  ................
09D0: 17 17 17 18 17 19 17 1A  17 1B 17 1C 17 1D 17 1E  ................
09E0: 17 1F 17 02 10 98 80 99  80 9A 80 9B 80 9C 80 9D  ................
09F0: 80 9E 80 9F 80 A0 80 A1  80 A2 80 A3 80 A4 80 A5  ................
0A00: 80 A6 80 A7 80 A8 80 A9  80 AA 80 AB 80 AC 80 AD  ................
0A10: 80 AE 80 AF 80 B0 80 B1  80 B2 80 B3 80 B4 80 B5  ................
0A20: 80 B6 80 B7 80 B8 80 B9  80 BA 80 BB 80 BC 80 BD  ................
0A30: 80 BE 80 BF 80 C0 80 C1  80 C2 80 C3 80 C4 80 C5  ................
0A40: 80 C6 80 C7 80 C8 80 C9  80 CA 80 CB 80 CC 80 CD  ................
0A50: 80 CE 80 CF 80 D0 80 D1  80 D2 80 D3 80 D4 80 D5  ................
0A60: 80 D6 80 D7 80 D8 80 D9  80 DA 80 DB 80 DC 80 DD  ................
0A70: 80 DE 80 DF 80 E0 80 E0  80 E0 80 E1 80 E1 80 E1  ................
0A80: 80 E2 80 E2 80 E0 80 E1  80 E2 80 E1 80 E2 80 E1  ................
0A90: 80 E2 80 E2 80 E2 80 E2  80 E2 80 E2 80 E2 80 E1  ................
0AA0: 80 E1 80 E1 80 E2 80 E2  80 E1 80 E2 80 E2 80 E2  ................
0AB0: 80 E2 80 E2 80 E2 80 E2  80 E2 80 E2 80 E2 80 E2  ................
0AC0: 80 E2 80 E2 80 E2 80 E2  80 E2 80 E2 80 E2 80 E2  ................
0AD0: 80 E2 80 E2 80 E2 80 E2  80 E2 80 E2 80 E2 80 E2  ................
0AE0: 80 E2 80 E2 80 E2 80 E2  80 E1 80 E2 80 E2 80 E2  ................
0AF0: 80 E2 80 E2 80 E2 80 E2  80 E2 80 E2 80 E2 80 E2  ................
0B00: 80 E2 80 E2 80 E3 80 E4  80 E5 80 E6 80 E7 80 E8  ................
0B10: 80 E9 80 06 80 EA 80 EB  80 EC 80 ED 80 E7 80 EE  ................
0B20: 80 EF 80 15 80 F0 80 F1  80 E0 80 F2 80 3C 80 40  .............<.@
0B30: 80 43 80 45 80 48 80 4A  80 4C 80 4E 80 50 80 52  .C.E.H.J.L.N.P.R
0B40: 80 56 80 57 80 F0 80 5B  80 5D 80 5F 80 61 80 F3  .V.W...[.]._.a..
0B50: 80 65 80 67 80 69 80 6C  80 6E 80 70 80 F4 80 74  .e.g.i.l.n.p...t
0B60: 80 23 80 27 80 2A 80 2D  80 2F 80 4B 80 4D 80 4F  .#.'.*.-./.K.M.O
0B70: 80 04 80 5A 80 5C 80 5E  80 77 80 7C 80 7A 80 88  ...Z.\.^.w.|.z..
0B80: 80 87 80 8B 80 8D 80 89  80 7D 80 18 80 F5 80 92  .........}......
0B90: 80 95 80 97 80 F6 80 F6  80 F6 80 F6 80 F6 80 F6  ................
0BA0: 80 F6 80 F6 80 F6 80 F6  80 F6 80 F6 80 F6 80 F6  ................
0BB0: 80 F6 80 F6 80 F6 80 F6  80 F6 80 F6 80 F6 80 F6  ................
0BC0: 80 F6 80 F6 80 F6 80 F6  80 F6 80 F6 80 F6 80 F6  ................
0BD0: 80 F6 80 F6 80 F6 80 F6  80 F6 80 F6 80 F6 80 F6  ................
0BE0: 80 F6 80 F6 80 F6 80 F6  80 F6 80 F6 80 F6 80 F6  ................
0BF0: 80 F6 80 F6 80 F6 80 F6  80 F6 80 F6 80 F6 80 F6  ................
0C00: 80 F6 80 F6 80 F6 80 F6  80 F6 80 F6 80 F6 80 F6  ................
0C10: 80 F6 80 F6 80 F6 80 F6  80 F6 80 F6 80 F6 80 F7  ................
0C20: 80 F7 80 F7 80 01 80 01  80 01 80 01 80 01 80 01  ................
0C30: 80 01 80 01 80 01 80 01  80 01 80 01 80 01 80 01  ................
0C40: 80 01 80 01 80 01 80 01  80 01 80 01 80 01 80 01  ................
0C50: 80 01 80 01 80 01 80 01  80 01 80 01 80 01 80 01  ................
0C60: 80 01 80 01 80 01 80 01  80 01 80 01 80 01 80 01  ................
0C70: 80 01 80 01 80 01 80 01  80 01 80 01 80 01 80 01  ................
0C80: 80 01 80 01 80 01 80 01  80 01 80 01 80 01 80 01  ................
0C90: 80 01 80 01 80 01 80 01  80 01 80 01 80 01 80 01  ................
0CA0: 80 01 80 01 80 01 80 01  80 01 80 01 80 01 80 03  ................
0CB0: 80 03 80 03 80                                    .....           
```

#### Opcodes

```
  0: 0x0023 [0x42] SET_CLI_EVENT_CANCEL_DATA()
  1: 0x0024 [0x03] Work_Zone[1] = 0*
  2: 0x0029 [0x1E] EventEntity looks at LocalPlayer and starts talking
  3: 0x002E [0x1D] PRINT_EVENT_MESSAGE(message_id=6573*)
    → "Can I interest you in some magical maps?"
  4: 0x0031 [0x23] WAIT_FOR_DIALOG_INTERACTION
  5: 0x0032 [0x03] ExtData[1]->WorkLocal[7] = Work_Zone[2]
  6: 0x0037 [0x24] CREATE_DIALOG(message_id=11978*, default_option=1*, option_flags=0*)
    → "Ask if this person is the chick's owner? [Yes./No.]"
  7: 0x003E [0x25] WAIT_DIALOG_SELECT()
  8: 0x003F [0x02] IF !(Work_Zone[0] == 0*) GOTO 0x00C6
  9: 0x0047 [0x1E] EventEntity looks at LocalPlayer and starts talking
 10: 0x004C [0x1C] WAIT(30* ticks)
 11: 0x004F [0x40] SET_BIT_WORK_RANGE(start_bit=0*, end_bit=15*, target=Work_Zone[1], source=2*)
 12: 0x0058 [0x40] SET_BIT_WORK_RANGE(start_bit=16*, end_bit=31*, target=Work_Zone[1], source=ExtData[1]->WorkLocal[6])
 13: 0x0061 [0x43] SEND_EVENT_UPDATE: Send pending tag to server (packet 0x005B)
 14: 0x0063 [0x43] SEND_EVENT_UPDATE: Check pending flag (skip if not pending)
 15: 0x0065 [0x02] IF !(Work_Zone[3] == 0*) GOTO 0x0087
 16: 0x006D [0x1D] PRINT_EVENT_MESSAGE(message_id=12031*)
    → "You have my chocobo? I must say, this is a surprise!"
 17: 0x0070 [0x23] WAIT_FOR_DIALOG_INTERACTION
 18: 0x0071 [0x66] LOAD_EXT_SCHEDULER_MAIN: Load scheduler "tlk0" with entities [EventEntity, EventEntity], work=30*
 19: 0x0080 [0x1D] PRINT_EVENT_MESSAGE(message_id=12032*)
    → "Especially since my chocobo becomes lonely so easily... He would never leave my side! I am afraid you are mistaken, [sir/ma'am]."
 20: 0x0083 [0x23] WAIT_FOR_DIALOG_INTERACTION
 21: 0x0084 [0x01] GOTO 0x00B1
 22: 0x0087 [0x66] LOAD_EXT_SCHEDULER_MAIN: Load scheduler "tlk0" with entities [EventEntity, EventEntity], work=30*
 23: 0x0096 [0x1D] PRINT_EVENT_MESSAGE(message_id=12015*)
    → "You have my chocobo? I must say, this is a surprise!"
 24: 0x0099 [0x23] WAIT_FOR_DIALOG_INTERACTION
 25: 0x009A [0x1D] PRINT_EVENT_MESSAGE(message_id=12016*)
    → "My chocobo easily becomes lonely... His crying must have kept you awake at night. I am sure I will have to tell him his favorite story several times before he calms down again."
 26: 0x009D [0x23] WAIT_FOR_DIALOG_INTERACTION
 27: 0x009E [0x66] LOAD_EXT_SCHEDULER_MAIN: Load scheduler "tlk1" with entities [EventEntity, EventEntity], work=30*
 28: 0x00AD [0x1D] PRINT_EVENT_MESSAGE(message_id=12017*)
    → "As thanks for saving him, let me tell you the story, too..."
 29: 0x00B0 [0x23] WAIT_FOR_DIALOG_INTERACTION

SUBROUTINE_00B1:
 30: 0x00B1 [0x40] SET_BIT_WORK_RANGE(start_bit=0*, end_bit=15*, target=Work_Zone[1], source=2*)
 31: 0x00BA [0x40] SET_BIT_WORK_RANGE(start_bit=16*, end_bit=31*, target=Work_Zone[1], source=0*)
 32: 0x00C3 [0x01] GOTO 0x00D4
 33: 0x00C6 [0x02] IF !(Work_Zone[0] == 1*) GOTO 0x00D4
 34: 0x00CE [0x1A] CALL_SUBROUTINE(address=0x00D6)
 35: 0x00D1 [0x01] GOTO 0x00D4

SUBROUTINE_00D4:
 36: 0x00D4 [0x21] END_EVENT
 37: 0x00D5 [0x00] END_REQSTACK()

SUBROUTINE_00D6:
 38: 0x00D6 [0x06] ExtData[1]->WorkLocal[4] = 0
 39: 0x00D9 [0x06] ExtData[1]->WorkLocal[2] = 0
 40: 0x00DC [0x06] ExtData[1]->WorkLocal[3] = 0

SUBROUTINE_00DF:
 41: 0x00DF [0x02] IF !(ExtData[1]->WorkLocal[4] == 0*) GOTO 0x01EB
 42: 0x00E7 [0x1A] CALL_SUBROUTINE(address=0x0275)
 43: 0x00EA [0x24] CREATE_DIALOG(message_id=6574*, default_option=ExtData[1]->WorkLocal[2], option_flags=ExtData[1]->WorkLocal[5])
    → "Buy a map? [Decline./Inquire about maps./$3 ($17 gil)./$3 ($18 gil)./$3 ($19 gil)./$3 ($20 gil)./$3 ($21 gil)./$3 ($22 gil)./$3 ($23 gil)./$3 ($24 gil)./$3 ($25 gil)./$3 ($26 gil)./$3 ($27 gil)./$3 ($28 gil)./$3 ($29 gil)./$3 ($30 gil)./$3 ($31 gil)./$3 ($ gil)./Previous page./Next page.]"
 44: 0x00F1 [0x25] WAIT_DIALOG_SELECT()
 45: 0x00F2 [0x02] IF !(Work_Zone[0] == 0*) GOTO 0x00FD
 46: 0x00FA [0x01] GOTO 0x00FD

SUBROUTINE_00FD:
 47: 0x00FD [0x03] ExtData[1]->WorkLocal[2] = Work_Zone[0]
 48: 0x0102 [0x02] IF !(ExtData[1]->WorkLocal[2] == 0*) GOTO 0x0115
 49: 0x010A [0x03] Work_Zone[1] = 1073741824*
 50: 0x010F [0x05] ExtData[1]->WorkLocal[4] = 1
 51: 0x0112 [0x01] GOTO 0x0161
 52: 0x0115 [0x02] IF !(ExtData[1]->WorkLocal[2] == 1*) GOTO 0x012F
 53: 0x011D [0x1D] PRINT_EVENT_MESSAGE(message_id=6575*)
    → "When you look at a map for your present area, you can see the lay of the land, as well as your current location."
 54: 0x0120 [0x23] WAIT_FOR_DIALOG_INTERACTION
 55: 0x0121 [0x1D] PRINT_EVENT_MESSAGE(message_id=6576*)
    → "Members of your party and alliance will appear on the map, too. Also, certain jobs let you find people and monsters from a distance."
 56: 0x0124 [0x23] WAIT_FOR_DIALOG_INTERACTION
 57: 0x0125 [0x1D] PRINT_EVENT_MESSAGE(message_id=6577*)
    → "They're especially handy because you can mark where you've been, and some people can mark them for you as well."
 58: 0x0128 [0x23] WAIT_FOR_DIALOG_INTERACTION
 59: 0x0129 [0x06] ExtData[1]->WorkLocal[2] = 0
 60: 0x012C [0x01] GOTO 0x0161
 61: 0x012F [0x02] IF !(ExtData[1]->WorkLocal[2] == 18*) GOTO 0x0148
 62: 0x0137 [0x02] IF !(ExtData[1]->WorkLocal[3] <= 0*) GOTO 0x0145
 63: 0x013F [0x0C] ExtData[1]->WorkLocal[3]--
 64: 0x0142 [0x06] ExtData[1]->WorkLocal[2] = 0
 65: 0x0145 [0x01] GOTO 0x0161
 66: 0x0148 [0x02] IF !(ExtData[1]->WorkLocal[2] == 19*) GOTO 0x0161
 67: 0x0150 [0x02] IF !(ExtData[1]->WorkLocal[3] >= 4*) GOTO 0x015E
 68: 0x0158 [0x0B] ExtData[1]->WorkLocal[3]++
 69: 0x015B [0x06] ExtData[1]->WorkLocal[2] = 0
 70: 0x015E [0x01] GOTO 0x0161

SUBROUTINE_0161:
 71: 0x0161 [0x02] IF !(ExtData[1]->WorkLocal[2] == 0*) GOTO 0x01E8
 72: 0x0169 [0x03] ExtData[1]->WorkLocal[6] = ExtData[1]->WorkLocal[2]
 73: 0x016E [0x08] ExtData[1]->WorkLocal[6] -= 2*
 74: 0x0173 [0x9D] ExtData[1]->WorkLocal[1] = 0x0995[ExtData[1]->WorkLocal[6]] // Read WORD
 75: 0x017B [0x1A] CALL_SUBROUTINE(address=0x0249)
 76: 0x017E [0x9D] ExtData[1]->WorkLocal[1] = 0x09E5[ExtData[1]->WorkLocal[6]] // Read WORD
 77: 0x0186 [0x9D] ExtData[1]->WorkLocal[8] = 0x0A75[ExtData[1]->WorkLocal[6]] // Read WORD
 78: 0x018E [0x1A] CALL_SUBROUTINE(address=0x03BA)
 79: 0x0191 [0x03] Work_Zone[2] = ExtData[1]->WorkLocal[1]
 80: 0x0196 [0x24] CREATE_DIALOG(message_id=6601*, default_option=1*, option_flags=0*)
    → "Buy $6? [Yes./No.]"
 81: 0x019D [0x25] WAIT_DIALOG_SELECT()
 82: 0x019E [0x02] IF !(Work_Zone[0] == 0*) GOTO 0x01DD
 83: 0x01A6 [0x40] SET_BIT_WORK_RANGE(start_bit=0*, end_bit=15*, target=Work_Zone[1], source=1*)
 84: 0x01AF [0x40] SET_BIT_WORK_RANGE(start_bit=16*, end_bit=31*, target=Work_Zone[1], source=ExtData[1]->WorkLocal[6])
 85: 0x01B8 [0x43] SEND_EVENT_UPDATE: Send pending tag to server (packet 0x005B)
 86: 0x01BA [0x43] SEND_EVENT_UPDATE: Check pending flag (skip if not pending)
 87: 0x01BC [0x03] ExtData[1]->WorkLocal[10] = Work_Zone[2]
 88: 0x01C1 [0x03] ExtData[1]->WorkLocal[11] = Work_Zone[3]
 89: 0x01C6 [0x03] ExtData[1]->WorkLocal[12] = Work_Zone[4]
 90: 0x01CB [0x02] IF !(Work_Zone[9] == 0*) GOTO 0x01D6
 91: 0x01D3 [0x01] GOTO 0x01DA
 92: 0x01D6 [0x1D] PRINT_EVENT_MESSAGE(message_id=6602*)
    → "You haven't enough money, [sir/ma'am]."
 93: 0x01D9 [0x23] WAIT_FOR_DIALOG_INTERACTION

SUBROUTINE_01DA:
 94: 0x01DA [0x01] GOTO 0x01E8
 95: 0x01DD [0x02] IF !(Work_Zone[0] == 1*) GOTO 0x01E8
 96: 0x01E5 [0x01] GOTO 0x01E8

SUBROUTINE_01E8:
 97: 0x01E8 [0x01] GOTO 0x00DF
 98: 0x01EB [0x1B] RETURN

SUBROUTINE_01EC:
 99: 0x01EC [0x06] ExtData[1]->WorkLocal[0] = 0
100: 0x01EF [0x06] ExtData[1]->WorkLocal[14] = 0
101: 0x01F2 [0x06] ExtData[1]->WorkLocal[9] = 0

SUBROUTINE_01F5:
102: 0x01F5 [0x02] IF !(ExtData[1]->WorkLocal[0] >= 72*) GOTO 0x021A
103: 0x01FD [0x1A] CALL_SUBROUTINE(address=0x0230)
104: 0x0200 [0x3F] ExtData[1]->WorkLocal[21] = ExtData[1]->WorkLocal[0] % 32*
105: 0x0207 [0x3E] IF !(ExtData[1]->WorkLocal[9] bit ExtData[1]->WorkLocal[21]) GOTO 0x0211
106: 0x020E [0x01] GOTO 0x0214
107: 0x0211 [0x0B] ExtData[1]->WorkLocal[14]++

SUBROUTINE_0214:
108: 0x0214 [0x0B] ExtData[1]->WorkLocal[0]++
109: 0x0217 [0x01] GOTO 0x01F5
110: 0x021A [0x03] ExtData[1]->WorkLocal[16] = ExtData[1]->WorkLocal[14]
111: 0x021F [0x02] IF !(ExtData[1]->WorkLocal[16] <= 0*) GOTO 0x022F
112: 0x0227 [0x0C] ExtData[1]->WorkLocal[16]--
113: 0x022A [0x15] ExtData[1]->WorkLocal[16] /= 16*
114: 0x022F [0x1B] RETURN

SUBROUTINE_0230:
115: 0x0230 [0x06] ExtData[1]->WorkLocal[15] = 0
116: 0x0233 [0x06] ExtData[1]->WorkLocal[9] = 0
117: 0x0236 [0x03] ExtData[1]->WorkLocal[15] = ExtData[1]->WorkLocal[0]
118: 0x023B [0x15] ExtData[1]->WorkLocal[15] /= 32*
119: 0x0240 [0x9D] ExtData[1]->WorkLocal[9] = 0x0985[ExtData[1]->WorkLocal[15]] // Read WORD
120: 0x0248 [0x1B] RETURN

SUBROUTINE_0249:
121: 0x0249 [0x06] ExtData[1]->WorkLocal[0] = 0

SUBROUTINE_024C:
122: 0x024C [0x02] IF !(ExtData[1]->WorkLocal[0] >= 72*) GOTO 0x0274
123: 0x0254 [0x9D] ExtData[1]->WorkLocal[9] = 0x09E5[ExtData[1]->WorkLocal[0]] // Read WORD
124: 0x025C [0x02] IF !(ExtData[1]->WorkLocal[1] == ExtData[1]->WorkLocal[9]) GOTO 0x026E
125: 0x0264 [0x03] ExtData[1]->WorkLocal[6] = ExtData[1]->WorkLocal[0]
126: 0x0269 [0x03] ExtData[1]->WorkLocal[0] = 72*
127: 0x026E [0x0B] ExtData[1]->WorkLocal[0]++
128: 0x0271 [0x01] GOTO 0x024C
129: 0x0274 [0x1B] RETURN

SUBROUTINE_0275:
130: 0x0275 [0x1A] CALL_SUBROUTINE(address=0x096B)
131: 0x0278 [0x1A] CALL_SUBROUTINE(address=0x01EC)
132: 0x027B [0x06] ExtData[1]->WorkLocal[5] = 0
133: 0x027E [0x06] ExtData[1]->WorkLocal[0] = 0
134: 0x0281 [0x06] ExtData[1]->WorkLocal[6] = 0
135: 0x0284 [0x06] ExtData[1]->WorkLocal[17] = 0
136: 0x0287 [0x06] ExtData[1]->WorkLocal[18] = 0
137: 0x028A [0x03] ExtData[1]->WorkLocal[17] = ExtData[1]->WorkLocal[3]
138: 0x028F [0x14] ExtData[1]->WorkLocal[17] *= 16*
139: 0x0294 [0x03] ExtData[1]->WorkLocal[18] = ExtData[1]->WorkLocal[17]
140: 0x0299 [0x07] ExtData[1]->WorkLocal[18] += 16*
141: 0x029E [0x0C] ExtData[1]->WorkLocal[18]--
142: 0x02A1 [0x02] IF !(ExtData[1]->WorkLocal[18] < ExtData[1]->WorkLocal[14]) GOTO 0x02B1
143: 0x02A9 [0x03] ExtData[1]->WorkLocal[18] = ExtData[1]->WorkLocal[14]
144: 0x02AE [0x0C] ExtData[1]->WorkLocal[18]--
145: 0x02B1 [0x06] ExtData[1]->WorkLocal[6] = 0

SUBROUTINE_02B4:
146: 0x02B4 [0x02] IF !(ExtData[1]->WorkLocal[0] >= 72*) GOTO 0x0353
147: 0x02BC [0x1A] CALL_SUBROUTINE(address=0x0230)
148: 0x02BF [0x3F] ExtData[1]->WorkLocal[15] = ExtData[1]->WorkLocal[0] % 32*
149: 0x02C6 [0x3E] IF !(ExtData[1]->WorkLocal[9] bit ExtData[1]->WorkLocal[15]) GOTO 0x02D0
150: 0x02CD [0x01] GOTO 0x034D
151: 0x02D0 [0x02] IF !(ExtData[1]->WorkLocal[6] < ExtData[1]->WorkLocal[17]) GOTO 0x034A
152: 0x02D8 [0x02] IF !(ExtData[1]->WorkLocal[6] > ExtData[1]->WorkLocal[18]) GOTO 0x0345
153: 0x02E0 [0x9D] ExtData[1]->WorkLocal[1] = 0x09E5[ExtData[1]->WorkLocal[0]] // Read WORD
154: 0x02E8 [0x9D] ExtData[1]->WorkLocal[8] = 0x0A75[ExtData[1]->WorkLocal[0]] // Read WORD
155: 0x02F0 [0x9D] ExtData[1]->WorkLocal[20] = 0x0C25[ExtData[1]->WorkLocal[0]] // Read WORD
156: 0x02F8 [0x02] IF !(ExtData[1]->WorkLocal[20] == 1*) GOTO 0x0310
157: 0x0300 [0x02] IF !(ExtData[1]->WorkLocal[13] == 8*) GOTO 0x030D
158: 0x0308 [0x14] ExtData[1]->WorkLocal[8] *= 10*
159: 0x030D [0x01] GOTO 0x031B
160: 0x0310 [0x02] IF !(ExtData[1]->WorkLocal[13] == 8*) GOTO 0x031B
161: 0x0318 [0x06] ExtData[1]->WorkLocal[1] = 0

SUBROUTINE_031B:
162: 0x031B [0x02] IF !(ExtData[1]->WorkLocal[1] <= 0*) GOTO 0x0342
163: 0x0323 [0x3F] ExtData[1]->WorkLocal[19] = ExtData[1]->WorkLocal[6] % 16*
164: 0x032A [0x9D] 0x0995[ExtData[1]->WorkLocal[19] * 2] = ExtData[1]->WorkLocal[1] // Write WORD
165: 0x0332 [0x07] ExtData[1]->WorkLocal[19] += 16*
166: 0x0337 [0x9D] 0x0995[ExtData[1]->WorkLocal[19] * 2] = ExtData[1]->WorkLocal[8] // Write WORD
167: 0x033F [0x01] GOTO 0x0342

SUBROUTINE_0342:
168: 0x0342 [0x01] GOTO 0x034A
169: 0x0345 [0x03] ExtData[1]->WorkLocal[0] = 72*

SUBROUTINE_034A:
170: 0x034A [0x0B] ExtData[1]->WorkLocal[6]++

SUBROUTINE_034D:
171: 0x034D [0x0B] ExtData[1]->WorkLocal[0]++
172: 0x0350 [0x01] GOTO 0x02B4
173: 0x0353 [0x03] ExtData[1]->WorkLocal[19] = ExtData[1]->WorkLocal[18]
174: 0x0358 [0x08] ExtData[1]->WorkLocal[19] -= ExtData[1]->WorkLocal[17]
175: 0x035D [0x0B] ExtData[1]->WorkLocal[19]++
176: 0x0360 [0x40] SET_BIT_WORK_RANGE(start_bit=ExtData[1]->WorkLocal[19], end_bit=31*, target=ExtData[1]->WorkLocal[5], source=4294967295*)
177: 0x0369 [0x10] ExtData[1]->WorkLocal[5] <<= 2*
178: 0x036E [0x02] IF !(ExtData[1]->WorkLocal[3] <= 0*) GOTO 0x0380
179: 0x0376 [0x3D] CLEAR_BIT_FLAG_CONDITIONAL(target_work_offset=ExtData[1]->WorkLocal[5], bit_index_work_offset=18*, condition_work_offset=1*)
180: 0x037D [0x01] GOTO 0x0387
181: 0x0380 [0x3C] SET_BIT_FLAG_CONDITIONAL(target_work_offset=ExtData[1]->WorkLocal[5], bit_index_work_offset=18*, condition_work_offset=1*)

SUBROUTINE_0387:
182: 0x0387 [0x02] IF !(ExtData[1]->WorkLocal[3] >= ExtData[1]->WorkLocal[16]) GOTO 0x0399
183: 0x038F [0x3D] CLEAR_BIT_FLAG_CONDITIONAL(target_work_offset=ExtData[1]->WorkLocal[5], bit_index_work_offset=19*, condition_work_offset=1*)
184: 0x0396 [0x01] GOTO 0x03A0
185: 0x0399 [0x3C] SET_BIT_FLAG_CONDITIONAL(target_work_offset=ExtData[1]->WorkLocal[5], bit_index_work_offset=19*, condition_work_offset=1*)

SUBROUTINE_03A0:
186: 0x03A0 [0x02] IF !(ExtData[1]->WorkLocal[3] <= 0*) GOTO 0x03B2
187: 0x03A8 [0x3C] SET_BIT_FLAG_CONDITIONAL(target_work_offset=ExtData[1]->WorkLocal[5], bit_index_work_offset=1*, condition_work_offset=1*)
188: 0x03AF [0x01] GOTO 0x03B9
189: 0x03B2 [0x3D] CLEAR_BIT_FLAG_CONDITIONAL(target_work_offset=ExtData[1]->WorkLocal[5], bit_index_work_offset=1*, condition_work_offset=1*)

SUBROUTINE_03B9:
190: 0x03B9 [0x1B] RETURN

SUBROUTINE_03BA:
191: 0x03BA [0x9D] ExtData[1]->WorkLocal[1] = 0x09E5[ExtData[1]->WorkLocal[6]] // Read WORD
192: 0x03C2 [0x9D] ExtData[1]->WorkLocal[8] = 0x0A75[ExtData[1]->WorkLocal[6]] // Read WORD
193: 0x03CA [0x03] Work_Zone[3] = ExtData[1]->WorkLocal[1]
194: 0x03CF [0x03] Work_Zone[5] = ExtData[1]->WorkLocal[8]
195: 0x03D4 [0x02] IF !(ExtData[1]->WorkLocal[6] == 0*) GOTO 0x03E3
196: 0x03DC [0x1D] PRINT_EVENT_MESSAGE(message_id=6578*)
    → "The $3 covers Ronfaure, the La Theine Plateau, the Valkurm Dunes, Jugner Forest, Selbina, and San d'Oria. It costs $3 gil."
197: 0x03DF [0x23] WAIT_FOR_DIALOG_INTERACTION
198: 0x03E0 [0x01] GOTO 0x096A
199: 0x03E3 [0x02] IF !(ExtData[1]->WorkLocal[6] == 1*) GOTO 0x03F2
200: 0x03EB [0x1D] PRINT_EVENT_MESSAGE(message_id=6579*)
    → "The $3 covers Gustaberg, the Konschtat Highlands, the Pashhow Marshlands, and Bastok. It costs $3 gil."
201: 0x03EE [0x23] WAIT_FOR_DIALOG_INTERACTION
202: 0x03EF [0x01] GOTO 0x096A
203: 0x03F2 [0x02] IF !(ExtData[1]->WorkLocal[6] == 2*) GOTO 0x0401
204: 0x03FA [0x1D] PRINT_EVENT_MESSAGE(message_id=6580*)
    → "The $3 covers Sarutabaruta, the Tahrongi Canyon, the Buburimu Peninsula, the Meriphataud Mountains, Mhaura, and Windurst. It costs $3 gil."
205: 0x03FD [0x23] WAIT_FOR_DIALOG_INTERACTION
206: 0x03FE [0x01] GOTO 0x096A
207: 0x0401 [0x02] IF !(ExtData[1]->WorkLocal[6] == 3*) GOTO 0x0410
208: 0x0409 [0x1D] PRINT_EVENT_MESSAGE(message_id=6581*)
    → "The $3 covers Batallia Downs, Rolanberry Fields, the Sauromugue Champaign, and Jeuno. It costs $3 gil."
209: 0x040C [0x23] WAIT_FOR_DIALOG_INTERACTION
210: 0x040D [0x01] GOTO 0x096A
211: 0x0410 [0x02] IF !(ExtData[1]->WorkLocal[6] == 4*) GOTO 0x041F
212: 0x0418 [0x1D] PRINT_EVENT_MESSAGE(message_id=6582*)
    → "This complete $3, which extend far beneath La Theine Plateau, costs $3 gil."
213: 0x041B [0x23] WAIT_FOR_DIALOG_INTERACTION
214: 0x041C [0x01] GOTO 0x096A
215: 0x041F [0x02] IF !(ExtData[1]->WorkLocal[6] == 5*) GOTO 0x042E
216: 0x0427 [0x1D] PRINT_EVENT_MESSAGE(message_id=6583*)
    → "$5 include layouts for both outpost and fortress of Ghelsba, as well as the Yughott Grotto. It costs $3 gil."
217: 0x042A [0x23] WAIT_FOR_DIALOG_INTERACTION
218: 0x042B [0x01] GOTO 0x096A
219: 0x042E [0x02] IF !(ExtData[1]->WorkLocal[6] == 6*) GOTO 0x043D
220: 0x0436 [0x1D] PRINT_EVENT_MESSAGE(message_id=6584*)
    → "The $3 shows the notorious Orcish stronghold hidden within Jugner Forest. It is priced at $3 gil."
221: 0x0439 [0x23] WAIT_FOR_DIALOG_INTERACTION
222: 0x043A [0x01] GOTO 0x096A
223: 0x043D [0x02] IF !(ExtData[1]->WorkLocal[6] == 7*) GOTO 0x044C
224: 0x0445 [0x1D] PRINT_EVENT_MESSAGE(message_id=6585*)
    → "This map shows the waterways and islands that make up Carpenters' Landing. It is priced at $3 gil."
225: 0x0448 [0x23] WAIT_FOR_DIALOG_INTERACTION
226: 0x0449 [0x01] GOTO 0x096A
227: 0x044C [0x02] IF !(ExtData[1]->WorkLocal[6] == 8*) GOTO 0x045B
228: 0x0454 [0x1D] PRINT_EVENT_MESSAGE(message_id=6586*)
    → "The $3, as the name implies, contains the layout of Bastok's Zeruhn Mines. It costs $3 gil."
229: 0x0457 [0x23] WAIT_FOR_DIALOG_INTERACTION
230: 0x0458 [0x01] GOTO 0x096A
231: 0x045B [0x02] IF !(ExtData[1]->WorkLocal[6] == 9*) GOTO 0x046A
232: 0x0463 [0x1D] PRINT_EVENT_MESSAGE(message_id=6587*)
    → "The $3, as the name implies, contains the layout of the Palborough Mines, which lie in North Gustaberg. It costs $3 gil."
233: 0x0466 [0x23] WAIT_FOR_DIALOG_INTERACTION
234: 0x0467 [0x01] GOTO 0x096A
235: 0x046A [0x02] IF !(ExtData[1]->WorkLocal[6] == 10*) GOTO 0x0479
236: 0x0472 [0x1D] PRINT_EVENT_MESSAGE(message_id=6588*)
    → "The $3, as the name implies, contains the layout of the Quadav stronghold, Beadeaux, that is located in the Pashhow Marshlands. It costs $3 gil."
237: 0x0475 [0x23] WAIT_FOR_DIALOG_INTERACTION
238: 0x0476 [0x01] GOTO 0x096A
239: 0x0479 [0x02] IF !(ExtData[1]->WorkLocal[6] == 11*) GOTO 0x0488
240: 0x0481 [0x1D] PRINT_EVENT_MESSAGE(message_id=6589*)
    → "The $3, as the name implies, contains the layout of Giddeus, which you can reach from West Sarutabaruta. It costs $3 gil."
241: 0x0484 [0x23] WAIT_FOR_DIALOG_INTERACTION
242: 0x0485 [0x01] GOTO 0x096A
243: 0x0488 [0x02] IF !(ExtData[1]->WorkLocal[6] == 12*) GOTO 0x0497
244: 0x0490 [0x1D] PRINT_EVENT_MESSAGE(message_id=6590*)
    → "The $3 contains the layout of the Yagudo stronghold, Castle Oztroja, located in the Meriphataud Mountains. It costs $3 gil."
245: 0x0493 [0x23] WAIT_FOR_DIALOG_INTERACTION
246: 0x0494 [0x01] GOTO 0x096A
247: 0x0497 [0x02] IF !(ExtData[1]->WorkLocal[6] == 13*) GOTO 0x04A6
248: 0x049F [0x1D] PRINT_EVENT_MESSAGE(message_id=6591*)
    → "The $3 contains the layout of the underground maze of Shakhrami that can be found in the Tahrongi Canyon area. It costs $3 gil."
249: 0x04A2 [0x23] WAIT_FOR_DIALOG_INTERACTION
250: 0x04A3 [0x01] GOTO 0x096A
251: 0x04A6 [0x02] IF !(ExtData[1]->WorkLocal[6] == 14*) GOTO 0x04B5
252: 0x04AE [0x1D] PRINT_EVENT_MESSAGE(message_id=6592*)
    → "The $3 covers the Sanctuary of Zi'Tah, Ro'Maeve, and the Hall of the Gods. It costs $3 gil."
253: 0x04B1 [0x23] WAIT_FOR_DIALOG_INTERACTION
254: 0x04B2 [0x01] GOTO 0x096A
255: 0x04B5 [0x02] IF !(ExtData[1]->WorkLocal[6] == 15*) GOTO 0x04C4
256: 0x04BD [0x1D] PRINT_EVENT_MESSAGE(message_id=6593*)
    → "This map covers Bibiki Bay and its nearby islands. It costs $3 gil."
257: 0x04C0 [0x23] WAIT_FOR_DIALOG_INTERACTION
258: 0x04C1 [0x01] GOTO 0x096A
259: 0x04C4 [0x02] IF !(ExtData[1]->WorkLocal[6] == 16*) GOTO 0x04D3
260: 0x04CC [0x1D] PRINT_EVENT_MESSAGE(message_id=6594*)
    → "The $3 outlines the geography of nearby Qufim Island. It costs $3 gil."
261: 0x04CF [0x23] WAIT_FOR_DIALOG_INTERACTION
262: 0x04D0 [0x01] GOTO 0x096A
263: 0x04D3 [0x02] IF !(ExtData[1]->WorkLocal[6] == 17*) GOTO 0x04E2
264: 0x04DB [0x1D] PRINT_EVENT_MESSAGE(message_id=6595*)
    → "Located beneath Batallia Downs, the Eldieme Necropolis is shown in detail on this map. The price is $3 gil."
265: 0x04DE [0x23] WAIT_FOR_DIALOG_INTERACTION
266: 0x04DF [0x01] GOTO 0x096A
267: 0x04E2 [0x02] IF !(ExtData[1]->WorkLocal[6] == 18*) GOTO 0x04F1
268: 0x04EA [0x1D] PRINT_EVENT_MESSAGE(message_id=6596*)
    → "The Garlaige Citadel, which lies upon the Sauromugue Champaign, is illustrated in this map. Each copy costs $3 gil."
269: 0x04ED [0x23] WAIT_FOR_DIALOG_INTERACTION
270: 0x04EE [0x01] GOTO 0x096A
271: 0x04F1 [0x02] IF !(ExtData[1]->WorkLocal[6] == 19*) GOTO 0x0500
272: 0x04F9 [0x1D] PRINT_EVENT_MESSAGE(message_id=6597*)
    → "$5 include Kazham, as well as both jungles of Yuhtunga and Yhoator for $3 gil."
273: 0x04FC [0x23] WAIT_FOR_DIALOG_INTERACTION
274: 0x04FD [0x01] GOTO 0x096A
275: 0x0500 [0x02] IF !(ExtData[1]->WorkLocal[6] == 20*) GOTO 0x0519
276: 0x0508 [0x03] Work_Zone[4] = 111*
277: 0x050D [0x03] Work_Zone[6] = 112*
278: 0x0512 [0x1D] PRINT_EVENT_MESSAGE(message_id=6599*)
    → "$5 include $8 as well as $8 for $3 gil."
279: 0x0515 [0x23] WAIT_FOR_DIALOG_INTERACTION
280: 0x0516 [0x01] GOTO 0x096A
281: 0x0519 [0x02] IF !(ExtData[1]->WorkLocal[6] == 21*) GOTO 0x052D
282: 0x0521 [0x03] Work_Zone[4] = 190*
283: 0x0526 [0x1D] PRINT_EVENT_MESSAGE(message_id=6598*)
    → "$5 include $8 for $3 gil."
284: 0x0529 [0x23] WAIT_FOR_DIALOG_INTERACTION
285: 0x052A [0x01] GOTO 0x096A
286: 0x052D [0x02] IF !(ExtData[1]->WorkLocal[6] == 22*) GOTO 0x0541
287: 0x0535 [0x03] Work_Zone[4] = 191*
288: 0x053A [0x1D] PRINT_EVENT_MESSAGE(message_id=6598*)
    → "$5 include $8 for $3 gil."
289: 0x053D [0x23] WAIT_FOR_DIALOG_INTERACTION
290: 0x053E [0x01] GOTO 0x096A
291: 0x0541 [0x02] IF !(ExtData[1]->WorkLocal[6] == 23*) GOTO 0x055A
292: 0x0549 [0x03] Work_Zone[4] = 192*
293: 0x054E [0x03] Work_Zone[6] = 194*
294: 0x0553 [0x1D] PRINT_EVENT_MESSAGE(message_id=6599*)
    → "$5 include $8 as well as $8 for $3 gil."
295: 0x0556 [0x23] WAIT_FOR_DIALOG_INTERACTION
296: 0x0557 [0x01] GOTO 0x096A
297: 0x055A [0x02] IF !(ExtData[1]->WorkLocal[6] == 24*) GOTO 0x056E
298: 0x0562 [0x03] Work_Zone[4] = 167*
299: 0x0567 [0x1D] PRINT_EVENT_MESSAGE(message_id=6598*)
    → "$5 include $8 for $3 gil."
300: 0x056A [0x23] WAIT_FOR_DIALOG_INTERACTION
301: 0x056B [0x01] GOTO 0x096A
302: 0x056E [0x02] IF !(ExtData[1]->WorkLocal[6] == 25*) GOTO 0x0582
303: 0x0576 [0x03] Work_Zone[4] = 169*
304: 0x057B [0x1D] PRINT_EVENT_MESSAGE(message_id=6598*)
    → "$5 include $8 for $3 gil."
305: 0x057E [0x23] WAIT_FOR_DIALOG_INTERACTION
306: 0x057F [0x01] GOTO 0x096A
307: 0x0582 [0x02] IF !(ExtData[1]->WorkLocal[6] == 26*) GOTO 0x0596
308: 0x058A [0x03] Work_Zone[4] = 196*
309: 0x058F [0x1D] PRINT_EVENT_MESSAGE(message_id=6598*)
    → "$5 include $8 for $3 gil."
310: 0x0592 [0x23] WAIT_FOR_DIALOG_INTERACTION
311: 0x0593 [0x01] GOTO 0x096A
312: 0x0596 [0x02] IF !(ExtData[1]->WorkLocal[6] == 27*) GOTO 0x05AA
313: 0x059E [0x03] Work_Zone[4] = 197*
314: 0x05A3 [0x1D] PRINT_EVENT_MESSAGE(message_id=6598*)
    → "$5 include $8 for $3 gil."
315: 0x05A6 [0x23] WAIT_FOR_DIALOG_INTERACTION
316: 0x05A7 [0x01] GOTO 0x096A
317: 0x05AA [0x02] IF !(ExtData[1]->WorkLocal[6] == 28*) GOTO 0x05BE
318: 0x05B2 [0x03] Work_Zone[4] = 166*
319: 0x05B7 [0x1D] PRINT_EVENT_MESSAGE(message_id=6598*)
    → "$5 include $8 for $3 gil."
320: 0x05BA [0x23] WAIT_FOR_DIALOG_INTERACTION
321: 0x05BB [0x01] GOTO 0x096A
322: 0x05BE [0x02] IF !(ExtData[1]->WorkLocal[6] == 29*) GOTO 0x05DC
323: 0x05C6 [0x03] Work_Zone[4] = 184*
324: 0x05CB [0x03] Work_Zone[6] = 157*
325: 0x05D0 [0x03] Work_Zone[7] = 158*
326: 0x05D5 [0x1D] PRINT_EVENT_MESSAGE(message_id=6600*)
    → "$5 include $8, as well as $8 and $8 for $3 gil."
327: 0x05D8 [0x23] WAIT_FOR_DIALOG_INTERACTION
328: 0x05D9 [0x01] GOTO 0x096A
329: 0x05DC [0x02] IF !(ExtData[1]->WorkLocal[6] == 30*) GOTO 0x05F0
330: 0x05E4 [0x03] Work_Zone[4] = 204*
331: 0x05E9 [0x1D] PRINT_EVENT_MESSAGE(message_id=6598*)
    → "$5 include $8 for $3 gil."
332: 0x05EC [0x23] WAIT_FOR_DIALOG_INTERACTION
333: 0x05ED [0x01] GOTO 0x096A
334: 0x05F0 [0x02] IF !(ExtData[1]->WorkLocal[6] == 31*) GOTO 0x0609
335: 0x05F8 [0x03] Work_Zone[4] = 161*
336: 0x05FD [0x03] Work_Zone[6] = 162*
337: 0x0602 [0x1D] PRINT_EVENT_MESSAGE(message_id=6599*)
    → "$5 include $8 as well as $8 for $3 gil."
338: 0x0605 [0x23] WAIT_FOR_DIALOG_INTERACTION
339: 0x0606 [0x01] GOTO 0x096A
340: 0x0609 [0x02] IF !(ExtData[1]->WorkLocal[6] == 32*) GOTO 0x0618
341: 0x0611 [0x1D] PRINT_EVENT_MESSAGE(message_id=6603*)
    → "Maps of the Kuzotz region include Altepa Desert as well as Rabao for $3 gil."
342: 0x0614 [0x23] WAIT_FOR_DIALOG_INTERACTION
343: 0x0615 [0x01] GOTO 0x096A
344: 0x0618 [0x02] IF !(ExtData[1]->WorkLocal[6] == 33*) GOTO 0x062C
345: 0x0620 [0x03] Work_Zone[4] = 130*
346: 0x0625 [0x1D] PRINT_EVENT_MESSAGE(message_id=6598*)
    → "$5 include $8 for $3 gil."
347: 0x0628 [0x23] WAIT_FOR_DIALOG_INTERACTION
348: 0x0629 [0x01] GOTO 0x096A
349: 0x062C [0x02] IF !(ExtData[1]->WorkLocal[6] == 34*) GOTO 0x0640
350: 0x0634 [0x03] Work_Zone[4] = 252*
351: 0x0639 [0x1D] PRINT_EVENT_MESSAGE(message_id=6598*)
    → "$5 include $8 for $3 gil."
352: 0x063C [0x23] WAIT_FOR_DIALOG_INTERACTION
353: 0x063D [0x01] GOTO 0x096A
354: 0x0640 [0x02] IF !(ExtData[1]->WorkLocal[6] == 35*) GOTO 0x0654
355: 0x0648 [0x03] Work_Zone[4] = 159*
356: 0x064D [0x1D] PRINT_EVENT_MESSAGE(message_id=6598*)
    → "$5 include $8 for $3 gil."
357: 0x0650 [0x23] WAIT_FOR_DIALOG_INTERACTION
358: 0x0651 [0x01] GOTO 0x096A
359: 0x0654 [0x02] IF !(ExtData[1]->WorkLocal[6] == 36*) GOTO 0x0668
360: 0x065C [0x03] Work_Zone[4] = 160*
361: 0x0661 [0x1D] PRINT_EVENT_MESSAGE(message_id=6598*)
    → "$5 include $8 for $3 gil."
362: 0x0664 [0x23] WAIT_FOR_DIALOG_INTERACTION
363: 0x0665 [0x01] GOTO 0x096A
364: 0x0668 [0x02] IF !(ExtData[1]->WorkLocal[6] == 37*) GOTO 0x0677
365: 0x0670 [0x1D] PRINT_EVENT_MESSAGE(message_id=6605*)
    → "Maps of the Korroloka Tunnel are, as their names imply, maps of the Korroloka Tunnel, which connects Altepa Desert and Zeruhn Mines."
366: 0x0673 [0x23] WAIT_FOR_DIALOG_INTERACTION
367: 0x0674 [0x01] GOTO 0x096A
368: 0x0677 [0x02] IF !(ExtData[1]->WorkLocal[6] == 38*) GOTO 0x068B
369: 0x067F [0x03] Work_Zone[4] = 174*
370: 0x0684 [0x1D] PRINT_EVENT_MESSAGE(message_id=6598*)
    → "$5 include $8 for $3 gil."
371: 0x0687 [0x23] WAIT_FOR_DIALOG_INTERACTION
372: 0x0688 [0x01] GOTO 0x096A
373: 0x068B [0x02] IF !(ExtData[1]->WorkLocal[6] == 39*) GOTO 0x069F
374: 0x0693 [0x03] Work_Zone[4] = 153*
375: 0x0698 [0x1D] PRINT_EVENT_MESSAGE(message_id=6598*)
    → "$5 include $8 for $3 gil."
376: 0x069B [0x23] WAIT_FOR_DIALOG_INTERACTION
377: 0x069C [0x01] GOTO 0x096A
378: 0x069F [0x02] IF !(ExtData[1]->WorkLocal[6] == 40*) GOTO 0x06B8
379: 0x06A7 [0x03] Work_Zone[4] = 177*
380: 0x06AC [0x03] Work_Zone[6] = 178*
381: 0x06B1 [0x1D] PRINT_EVENT_MESSAGE(message_id=6599*)
    → "$5 include $8 as well as $8 for $3 gil."
382: 0x06B4 [0x23] WAIT_FOR_DIALOG_INTERACTION
383: 0x06B5 [0x01] GOTO 0x096A
384: 0x06B8 [0x02] IF !(ExtData[1]->WorkLocal[6] == 41*) GOTO 0x06CC
385: 0x06C0 [0x03] Work_Zone[4] = 205*
386: 0x06C5 [0x1D] PRINT_EVENT_MESSAGE(message_id=6598*)
    → "$5 include $8 for $3 gil."
387: 0x06C8 [0x23] WAIT_FOR_DIALOG_INTERACTION
388: 0x06C9 [0x01] GOTO 0x096A
389: 0x06CC [0x02] IF !(ExtData[1]->WorkLocal[6] == 42*) GOTO 0x06E0
390: 0x06D4 [0x03] Work_Zone[4] = 208*
391: 0x06D9 [0x1D] PRINT_EVENT_MESSAGE(message_id=6598*)
    → "$5 include $8 for $3 gil."
392: 0x06DC [0x23] WAIT_FOR_DIALOG_INTERACTION
393: 0x06DD [0x01] GOTO 0x096A
394: 0x06E0 [0x02] IF !(ExtData[1]->WorkLocal[6] == 43*) GOTO 0x06F4
395: 0x06E8 [0x03] Work_Zone[4] = 176*
396: 0x06ED [0x1D] PRINT_EVENT_MESSAGE(message_id=6598*)
    → "$5 include $8 for $3 gil."
397: 0x06F0 [0x23] WAIT_FOR_DIALOG_INTERACTION
398: 0x06F1 [0x01] GOTO 0x096A
399: 0x06F4 [0x02] IF !(ExtData[1]->WorkLocal[6] == 44*) GOTO 0x0703
400: 0x06FC [0x1D] PRINT_EVENT_MESSAGE(message_id=6604*)
    → "Maps of the Vollbow region include Cape Teriggan, as well as Valley of Sorrows and Gustav Tunnel for $3 gil."
401: 0x06FF [0x23] WAIT_FOR_DIALOG_INTERACTION
402: 0x0700 [0x01] GOTO 0x096A
403: 0x0703 [0x02] IF !(ExtData[1]->WorkLocal[6] == 45*) GOTO 0x0717
404: 0x070B [0x03] Work_Zone[4] = 213*
405: 0x0710 [0x1D] PRINT_EVENT_MESSAGE(message_id=6598*)
    → "$5 include $8 for $3 gil."
406: 0x0713 [0x23] WAIT_FOR_DIALOG_INTERACTION
407: 0x0714 [0x01] GOTO 0x096A
408: 0x0717 [0x02] IF !(ExtData[1]->WorkLocal[6] == 46*) GOTO 0x072B
409: 0x071F [0x03] Work_Zone[4] = 5*
410: 0x0724 [0x1D] PRINT_EVENT_MESSAGE(message_id=6598*)
    → "$5 include $8 for $3 gil."
411: 0x0727 [0x23] WAIT_FOR_DIALOG_INTERACTION
412: 0x0728 [0x01] GOTO 0x096A
413: 0x072B [0x02] IF !(ExtData[1]->WorkLocal[6] == 47*) GOTO 0x073F
414: 0x0733 [0x03] Work_Zone[4] = 7*
415: 0x0738 [0x1D] PRINT_EVENT_MESSAGE(message_id=6598*)
    → "$5 include $8 for $3 gil."
416: 0x073B [0x23] WAIT_FOR_DIALOG_INTERACTION
417: 0x073C [0x01] GOTO 0x096A
418: 0x073F [0x02] IF !(ExtData[1]->WorkLocal[6] == 48*) GOTO 0x0753
419: 0x0747 [0x03] Work_Zone[4] = 9*
420: 0x074C [0x1D] PRINT_EVENT_MESSAGE(message_id=6598*)
    → "$5 include $8 for $3 gil."
421: 0x074F [0x23] WAIT_FOR_DIALOG_INTERACTION
422: 0x0750 [0x01] GOTO 0x096A
423: 0x0753 [0x02] IF !(ExtData[1]->WorkLocal[6] == 49*) GOTO 0x0767
424: 0x075B [0x03] Work_Zone[4] = 11*
425: 0x0760 [0x1D] PRINT_EVENT_MESSAGE(message_id=6598*)
    → "$5 include $8 for $3 gil."
426: 0x0763 [0x23] WAIT_FOR_DIALOG_INTERACTION
427: 0x0764 [0x01] GOTO 0x096A
428: 0x0767 [0x02] IF !(ExtData[1]->WorkLocal[6] == 50*) GOTO 0x077B
429: 0x076F [0x03] Work_Zone[4] = 12*
430: 0x0774 [0x1D] PRINT_EVENT_MESSAGE(message_id=6598*)
    → "$5 include $8 for $3 gil."
431: 0x0777 [0x23] WAIT_FOR_DIALOG_INTERACTION
432: 0x0778 [0x01] GOTO 0x096A
433: 0x077B [0x02] IF !(ExtData[1]->WorkLocal[6] == 51*) GOTO 0x0799
434: 0x0783 [0x03] Work_Zone[4] = 24*
435: 0x0788 [0x03] Work_Zone[6] = 25*
436: 0x078D [0x03] Work_Zone[7] = 26*
437: 0x0792 [0x1D] PRINT_EVENT_MESSAGE(message_id=6600*)
    → "$5 include $8, as well as $8 and $8 for $3 gil."
438: 0x0795 [0x23] WAIT_FOR_DIALOG_INTERACTION
439: 0x0796 [0x01] GOTO 0x096A
440: 0x0799 [0x02] IF !(ExtData[1]->WorkLocal[6] == 52*) GOTO 0x07AD
441: 0x07A1 [0x03] Work_Zone[4] = 27*
442: 0x07A6 [0x1D] PRINT_EVENT_MESSAGE(message_id=6598*)
    → "$5 include $8 for $3 gil."
443: 0x07A9 [0x23] WAIT_FOR_DIALOG_INTERACTION
444: 0x07AA [0x01] GOTO 0x096A
445: 0x07AD [0x02] IF !(ExtData[1]->WorkLocal[6] == 53*) GOTO 0x07C1
446: 0x07B5 [0x03] Work_Zone[4] = 28*
447: 0x07BA [0x1D] PRINT_EVENT_MESSAGE(message_id=6598*)
    → "$5 include $8 for $3 gil."
448: 0x07BD [0x23] WAIT_FOR_DIALOG_INTERACTION
449: 0x07BE [0x01] GOTO 0x096A
450: 0x07C1 [0x02] IF !(ExtData[1]->WorkLocal[6] == 54*) GOTO 0x07DA
451: 0x07C9 [0x03] Work_Zone[4] = 30*
452: 0x07CE [0x03] Work_Zone[6] = 29*
453: 0x07D3 [0x1D] PRINT_EVENT_MESSAGE(message_id=6599*)
    → "$5 include $8 as well as $8 for $3 gil."
454: 0x07D6 [0x23] WAIT_FOR_DIALOG_INTERACTION
455: 0x07D7 [0x01] GOTO 0x096A
456: 0x07DA [0x02] IF !(ExtData[1]->WorkLocal[6] == 55*) GOTO 0x07EE
457: 0x07E2 [0x03] Work_Zone[4] = 33*
458: 0x07E7 [0x1D] PRINT_EVENT_MESSAGE(message_id=6598*)
    → "$5 include $8 for $3 gil."
459: 0x07EA [0x23] WAIT_FOR_DIALOG_INTERACTION
460: 0x07EB [0x01] GOTO 0x096A
461: 0x07EE [0x02] IF !(ExtData[1]->WorkLocal[6] == 56*) GOTO 0x0802
462: 0x07F6 [0x03] Work_Zone[4] = 34*
463: 0x07FB [0x1D] PRINT_EVENT_MESSAGE(message_id=6598*)
    → "$5 include $8 for $3 gil."
464: 0x07FE [0x23] WAIT_FOR_DIALOG_INTERACTION
465: 0x07FF [0x01] GOTO 0x096A
466: 0x0802 [0x02] IF !(ExtData[1]->WorkLocal[6] == 57*) GOTO 0x0816
467: 0x080A [0x03] Work_Zone[4] = 35*
468: 0x080F [0x1D] PRINT_EVENT_MESSAGE(message_id=6598*)
    → "$5 include $8 for $3 gil."
469: 0x0812 [0x23] WAIT_FOR_DIALOG_INTERACTION
470: 0x0813 [0x01] GOTO 0x096A
471: 0x0816 [0x02] IF !(ExtData[1]->WorkLocal[6] == 58*) GOTO 0x082A
472: 0x081E [0x03] Work_Zone[4] = ExtData[1]->WorkLocal[8]
473: 0x0823 [0x1D] PRINT_EVENT_MESSAGE(message_id=6606*)
    → "The map of Al Zahbi also includes Aht Urhgan Whitegate and the Colosseum. It costs $2 gil."
474: 0x0826 [0x23] WAIT_FOR_DIALOG_INTERACTION
475: 0x0827 [0x01] GOTO 0x096A
476: 0x082A [0x02] IF !(ExtData[1]->WorkLocal[6] == 59*) GOTO 0x0839
477: 0x0832 [0x1D] PRINT_EVENT_MESSAGE(message_id=6607*)
    → "This map shows the layout of the Azouph Isle town of Nashmau. It costs $3 gil."
478: 0x0835 [0x23] WAIT_FOR_DIALOG_INTERACTION
479: 0x0836 [0x01] GOTO 0x096A
480: 0x0839 [0x02] IF !(ExtData[1]->WorkLocal[6] == 60*) GOTO 0x0848
481: 0x0841 [0x1D] PRINT_EVENT_MESSAGE(message_id=6608*)
    → "This map shows the forest tract stretching west of Al Zahbi. A map of the Wajaom Woodlands can be yours for $3 gil."
482: 0x0844 [0x23] WAIT_FOR_DIALOG_INTERACTION
483: 0x0845 [0x01] GOTO 0x096A
484: 0x0848 [0x02] IF !(ExtData[1]->WorkLocal[6] == 61*) GOTO 0x085C
485: 0x0850 [0x03] Work_Zone[4] = 79*
486: 0x0855 [0x1D] PRINT_EVENT_MESSAGE(message_id=6598*)
    → "$5 include $8 for $3 gil."
487: 0x0858 [0x23] WAIT_FOR_DIALOG_INTERACTION
488: 0x0859 [0x01] GOTO 0x096A
489: 0x085C [0x02] IF !(ExtData[1]->WorkLocal[6] == 62*) GOTO 0x0870
490: 0x0864 [0x03] Work_Zone[4] = 61*
491: 0x0869 [0x1D] PRINT_EVENT_MESSAGE(message_id=6598*)
    → "$5 include $8 for $3 gil."
492: 0x086C [0x23] WAIT_FOR_DIALOG_INTERACTION
493: 0x086D [0x01] GOTO 0x096A
494: 0x0870 [0x02] IF !(ExtData[1]->WorkLocal[6] == 63*) GOTO 0x0884
495: 0x0878 [0x03] Work_Zone[4] = 68*
496: 0x087D [0x1D] PRINT_EVENT_MESSAGE(message_id=6598*)
    → "$5 include $8 for $3 gil."
497: 0x0880 [0x23] WAIT_FOR_DIALOG_INTERACTION
498: 0x0881 [0x01] GOTO 0x096A
499: 0x0884 [0x02] IF !(ExtData[1]->WorkLocal[6] == 64*) GOTO 0x0898
500: 0x088C [0x03] Work_Zone[4] = 65*
501: 0x0891 [0x1D] PRINT_EVENT_MESSAGE(message_id=6598*)
    → "$5 include $8 for $3 gil."
502: 0x0894 [0x23] WAIT_FOR_DIALOG_INTERACTION
503: 0x0895 [0x01] GOTO 0x096A
504: 0x0898 [0x02] IF !(ExtData[1]->WorkLocal[6] == 65*) GOTO 0x08AC
505: 0x08A0 [0x03] Work_Zone[4] = 62*
506: 0x08A5 [0x1D] PRINT_EVENT_MESSAGE(message_id=6598*)
    → "$5 include $8 for $3 gil."
507: 0x08A8 [0x23] WAIT_FOR_DIALOG_INTERACTION
508: 0x08A9 [0x01] GOTO 0x096A
509: 0x08AC [0x02] IF !(ExtData[1]->WorkLocal[6] == 66*) GOTO 0x08C0
510: 0x08B4 [0x03] Work_Zone[4] = 54*
511: 0x08B9 [0x1D] PRINT_EVENT_MESSAGE(message_id=6598*)
    → "$5 include $8 for $3 gil."
512: 0x08BC [0x23] WAIT_FOR_DIALOG_INTERACTION
513: 0x08BD [0x01] GOTO 0x096A
514: 0x08C0 [0x02] IF !(ExtData[1]->WorkLocal[6] == 67*) GOTO 0x08D4
515: 0x08C8 [0x03] Work_Zone[4] = 72*
516: 0x08CD [0x1D] PRINT_EVENT_MESSAGE(message_id=6598*)
    → "$5 include $8 for $3 gil."
517: 0x08D0 [0x23] WAIT_FOR_DIALOG_INTERACTION
518: 0x08D1 [0x01] GOTO 0x096A
519: 0x08D4 [0x02] IF !(ExtData[1]->WorkLocal[6] == 68*) GOTO 0x08E3
520: 0x08DC [0x1D] PRINT_EVENT_MESSAGE(message_id=6609*)
    → "This map shows Bhaflau Thickets, lying to the north of Al Zahbi. It costs $3 gil."
521: 0x08DF [0x23] WAIT_FOR_DIALOG_INTERACTION
522: 0x08E0 [0x01] GOTO 0x096A
523: 0x08E3 [0x02] IF !(ExtData[1]->WorkLocal[6] == 69*) GOTO 0x0910
524: 0x08EB [0x02] IF !(ExtData[1]->WorkLocal[13] == 8*) GOTO 0x08FF
525: 0x08F3 [0x03] Work_Zone[4] = 83*
526: 0x08F8 [0x1D] PRINT_EVENT_MESSAGE(message_id=6598*)
    → "$5 include $8 for $3 gil."
527: 0x08FB [0x23] WAIT_FOR_DIALOG_INTERACTION
528: 0x08FC [0x01] GOTO 0x090D
529: 0x08FF [0x03] Work_Zone[4] = 83*
530: 0x0904 [0x14] Work_Zone[5] *= 10*
531: 0x0909 [0x1D] PRINT_EVENT_MESSAGE(message_id=6610*)
    → "$6 is an older map that was often used to depict $8. It costs $3 gil."
532: 0x090C [0x23] WAIT_FOR_DIALOG_INTERACTION

SUBROUTINE_090D:
533: 0x090D [0x01] GOTO 0x096A
534: 0x0910 [0x02] IF !(ExtData[1]->WorkLocal[6] == 70*) GOTO 0x093D
535: 0x0918 [0x02] IF !(ExtData[1]->WorkLocal[13] == 8*) GOTO 0x092C
536: 0x0920 [0x03] Work_Zone[4] = 89*
537: 0x0925 [0x1D] PRINT_EVENT_MESSAGE(message_id=6598*)
    → "$5 include $8 for $3 gil."
538: 0x0928 [0x23] WAIT_FOR_DIALOG_INTERACTION
539: 0x0929 [0x01] GOTO 0x093A
540: 0x092C [0x03] Work_Zone[4] = 89*
541: 0x0931 [0x14] Work_Zone[5] *= 10*
542: 0x0936 [0x1D] PRINT_EVENT_MESSAGE(message_id=6610*)
    → "$6 is an older map that was often used to depict $8. It costs $3 gil."
543: 0x0939 [0x23] WAIT_FOR_DIALOG_INTERACTION

SUBROUTINE_093A:
544: 0x093A [0x01] GOTO 0x096A
545: 0x093D [0x02] IF !(ExtData[1]->WorkLocal[6] == 71*) GOTO 0x096A
546: 0x0945 [0x02] IF !(ExtData[1]->WorkLocal[13] == 8*) GOTO 0x0959
547: 0x094D [0x03] Work_Zone[4] = 96*
548: 0x0952 [0x1D] PRINT_EVENT_MESSAGE(message_id=6598*)
    → "$5 include $8 for $3 gil."
549: 0x0955 [0x23] WAIT_FOR_DIALOG_INTERACTION
550: 0x0956 [0x01] GOTO 0x0967
551: 0x0959 [0x03] Work_Zone[4] = 96*
552: 0x095E [0x14] Work_Zone[5] *= 10*
553: 0x0963 [0x1D] PRINT_EVENT_MESSAGE(message_id=6610*)
    → "$6 is an older map that was often used to depict $8. It costs $3 gil."
554: 0x0966 [0x23] WAIT_FOR_DIALOG_INTERACTION

SUBROUTINE_0967:
555: 0x0967 [0x01] GOTO 0x096A

SUBROUTINE_096A:
556: 0x096A [0x1B] RETURN

SUBROUTINE_096B:
557: 0x096B [0x06] ExtData[1]->WorkLocal[0] = 0

SUBROUTINE_096E:
558: 0x096E [0x02] IF !(ExtData[1]->WorkLocal[0] >= 40*) GOTO 0x0984
559: 0x0976 [0x9D] 0x0995[ExtData[1]->WorkLocal[0] * 2] = 0* // Write WORD
560: 0x097E [0x0B] ExtData[1]->WorkLocal[0]++
561: 0x0981 [0x01] GOTO 0x096E
562: 0x0984 [0x1B] RETURN
```

#### Data or dead code:

```
# Data Section: 0x0985 (498 bytes)
     0x0985: 0A 00 0B 00 0C 00 01 80 01 80 01 80 01 80 01 80
     0x0995: 03 10 04 10 05 10 06 10 07 10 08 10 09 10 00 17
     0x09A5: 01 17 02 17 03 17 04 17 05 17 06 17 07 17 08 17
     0x09B5: 09 17 0A 17 0B 17 0C 17 0D 17 0E 17 0F 17 10 17
     0x09C5: 11 17 12 17 13 17 14 17 15 17 16 17 17 17 18 17
     0x09D5: 19 17 1A 17 1B 17 1C 17 1D 17 1E 17 1F 17 02 10
     0x09E5: 98 80 99 80 9A 80 9B 80 9C 80 9D 80 9E 80 9F 80
     0x09F5: A0 80 A1 80 A2 80 A3 80 A4 80 A5 80 A6 80 A7 80
     0x0A05: A8 80 A9 80 AA 80 AB 80 AC 80 AD 80 AE 80 AF 80
     0x0A15: B0 80 B1 80 B2 80 B3 80 B4 80 B5 80 B6 80 B7 80
     0x0A25: B8 80 B9 80 BA 80 BB 80 BC 80 BD 80 BE 80 BF 80
     0x0A35: C0 80 C1 80 C2 80 C3 80 C4 80 C5 80 C6 80 C7 80
     0x0A45: C8 80 C9 80 CA 80 CB 80 CC 80 CD 80 CE 80 CF 80
     0x0A55: D0 80 D1 80 D2 80 D3 80 D4 80 D5 80 D6 80 D7 80
     0x0A65: D8 80 D9 80 DA 80 DB 80 DC 80 DD 80 DE 80 DF 80
     0x0A75: E0 80 E0 80 E0 80 E1 80 E1 80 E1 80 E2 80 E2 80
     0x0A85: E0 80 E1 80 E2 80 E1 80 E2 80 E1 80 E2 80 E2 80
     0x0A95: E2 80 E2 80 E2 80 E2 80 E2 80 E1 80 E1 80 E1 80
     0x0AA5: E2 80 E2 80 E1 80 E2 80 E2 80 E2 80 E2 80 E2 80
     0x0AB5: E2 80 E2 80 E2 80 E2 80 E2 80 E2 80 E2 80 E2 80
     0x0AC5: E2 80 E2 80 E2 80 E2 80 E2 80 E2 80 E2 80 E2 80
     0x0AD5: E2 80 E2 80 E2 80 E2 80 E2 80 E2 80 E2 80 E2 80
     0x0AE5: E2 80 E2 80 E1 80 E2 80 E2 80 E2 80 E2 80 E2 80
     0x0AF5: E2 80 E2 80 E2 80 E2 80 E2 80 E2 80 E2 80 E2 80
     0x0B05: E3 80 E4 80 E5 80 E6 80 E7 80 E8 80 E9 80 06 80
     0x0B15: EA 80 EB 80 EC 80 ED 80 E7 80 EE 80 EF 80 15 80
     0x0B25: F0 80 F1 80 E0 80 F2 80 3C 80 40 80 43 80 45 80
     0x0B35: 48 80 4A 80 4C 80 4E 80 50 80 52 80 56 80 57 80
     0x0B45: F0 80 5B 80 5D 80 5F 80 61 80 F3 80 65 80 67 80
     0x0B55: 69 80 6C 80 6E 80 70 80 F4 80 74 80 23 80 27 80
     0x0B65: 2A 80 2D 80 2F 80 4B 80 4D 80 4F 80 04 80 5A 80
     0x0B75: 5C 80
# Data Section: 0x0C25 (144 bytes)
     0x0C25: 01 80 01 80 01 80 01 80 01 80 01 80 01 80 01 80
     0x0C35: 01 80 01 80 01 80 01 80 01 80 01 80 01 80 01 80
     0x0C45: 01 80 01 80 01 80 01 80 01 80 01 80 01 80 01 80
     0x0C55: 01 80 01 80 01 80 01 80 01 80 01 80 01 80 01 80
     0x0C65: 01 80 01 80 01 80 01 80 01 80 01 80 01 80 01 80
     0x0C75: 01 80 01 80 01 80 01 80 01 80 01 80 01 80 01 80
     0x0C85: 01 80 01 80 01 80 01 80 01 80 01 80 01 80 01 80
     0x0C95: 01 80 01 80 01 80 01 80 01 80 01 80 01 80 01 80
     0x0CA5: 01 80 01 80 01 80 01 80 01 80 03 80 03 80 03 80
# Dead code (unreachable instructions):
     0x0B77 [0x5E] EventEntity goes idle (kills current action) (animation: "w|")
     0x0B7C [0x80] LOAD_WAIT(entity=Unknown NPC (ID: 2156429434/0x8088807A))
     0x0B81 [0x87] WORLD_PASS_HANDLER_A: Send world pass packet 0x1B (Para=0)
     0x0B82 [0x80] LOAD_WAIT(entity=Unknown NPC (ID: 2156757131/0x808D808B))
     0x0B87 [0x89] OPEN_MAP(map_id=0x00007D80)
     0x0B8A [0x80] LOAD_WAIT(entity=Unknown NPC (ID: 2163572760/0x80F58018))
     0x0B8F [0x92] Unknown NPC (ID: 2157412501/0x80978095)->Render.Flags3 ^= 0x80
     0x0B95 [0xF6] UNKNOWN_0xF6
     0x0B96 [0x80] LOAD_WAIT(entity=Unknown NPC (ID: 2163638518/0x80F680F6))
     0x0B9B [0xF6] UNKNOWN_0xF6
     0x0B9C [0x80] LOAD_WAIT(entity=Unknown NPC (ID: 2163638518/0x80F680F6))
     0x0BA1 [0xF6] UNKNOWN_0xF6
     0x0BA2 [0x80] LOAD_WAIT(entity=Unknown NPC (ID: 2163638518/0x80F680F6))
     0x0BA7 [0xF6] UNKNOWN_0xF6
     0x0BA8 [0x80] LOAD_WAIT(entity=Unknown NPC (ID: 2163638518/0x80F680F6))
     0x0BAD [0xF6] UNKNOWN_0xF6
     0x0BAE [0x80] LOAD_WAIT(entity=Unknown NPC (ID: 2163638518/0x80F680F6))
     0x0BB3 [0xF6] UNKNOWN_0xF6
     0x0BB4 [0x80] LOAD_WAIT(entity=Unknown NPC (ID: 2163638518/0x80F680F6))
     0x0BB9 [0xF6] UNKNOWN_0xF6
     0x0BBA [0x80] LOAD_WAIT(entity=Unknown NPC (ID: 2163638518/0x80F680F6))
     0x0BBF [0xF6] UNKNOWN_0xF6
     0x0BC0 [0x80] LOAD_WAIT(entity=Unknown NPC (ID: 2163638518/0x80F680F6))
     0x0BC5 [0xF6] UNKNOWN_0xF6
     0x0BC6 [0x80] LOAD_WAIT(entity=Unknown NPC (ID: 2163638518/0x80F680F6))
     0x0BCB [0xF6] UNKNOWN_0xF6
     0x0BCC [0x80] LOAD_WAIT(entity=Unknown NPC (ID: 2163638518/0x80F680F6))
     0x0BD1 [0xF6] UNKNOWN_0xF6
     0x0BD2 [0x80] LOAD_WAIT(entity=Unknown NPC (ID: 2163638518/0x80F680F6))
     0x0BD7 [0xF6] UNKNOWN_0xF6
     0x0BD8 [0x80] LOAD_WAIT(entity=Unknown NPC (ID: 2163638518/0x80F680F6))
     0x0BDD [0xF6] UNKNOWN_0xF6
     0x0BDE [0x80] LOAD_WAIT(entity=Unknown NPC (ID: 2163638518/0x80F680F6))
     0x0BE3 [0xF6] UNKNOWN_0xF6
     0x0BE4 [0x80] LOAD_WAIT(entity=Unknown NPC (ID: 2163638518/0x80F680F6))
     0x0BE9 [0xF6] UNKNOWN_0xF6
     0x0BEA [0x80] LOAD_WAIT(entity=Unknown NPC (ID: 2163638518/0x80F680F6))
     0x0BEF [0xF6] UNKNOWN_0xF6
     0x0BF0 [0x80] LOAD_WAIT(entity=Unknown NPC (ID: 2163638518/0x80F680F6))
     0x0BF5 [0xF6] UNKNOWN_0xF6
     0x0BF6 [0x80] LOAD_WAIT(entity=Unknown NPC (ID: 2163638518/0x80F680F6))
     0x0BFB [0xF6] UNKNOWN_0xF6
     0x0BFC [0x80] LOAD_WAIT(entity=Unknown NPC (ID: 2163638518/0x80F680F6))
     0x0C01 [0xF6] UNKNOWN_0xF6
     0x0C02 [0x80] LOAD_WAIT(entity=Unknown NPC (ID: 2163638518/0x80F680F6))
     0x0C07 [0xF6] UNKNOWN_0xF6
     0x0C08 [0x80] LOAD_WAIT(entity=Unknown NPC (ID: 2163638518/0x80F680F6))
     0x0C0D [0xF6] UNKNOWN_0xF6
     0x0C0E [0x80] LOAD_WAIT(entity=Unknown NPC (ID: 2163638518/0x80F680F6))
     0x0C13 [0xF6] UNKNOWN_0xF6
     0x0C14 [0x80] LOAD_WAIT(entity=Unknown NPC (ID: 2163638518/0x80F680F6))
     0x0C19 [0xF6] UNKNOWN_0xF6
     0x0C1A [0x80] LOAD_WAIT(entity=Unknown NPC (ID: 2163638518/0x80F680F6))
     0x0C1F [0xF7] UNKNOWN_0xF7
     0x0C20 [0x80] LOAD_WAIT(entity=Unknown NPC (ID: 2163704055/0x80F780F7))
```

### Event 503

#### Metadata

| Field        | Value   |
|--------------|---------|
| Entrypoint   | 0x0CB5  |
| Data Size    | 1 bytes |
| Instructions | 1       |

```
      00 01 02 03 04 05 06 07  08 09 0A 0B 0C 0D 0E 0F
      -- -- -- -- -- -- -- --  -- -- -- -- -- -- -- --
0CB0:                00                                      .          
```

#### Opcodes

```
  0: 0x0CB5 [0x00] END_REQSTACK()
```

### Event 3526

#### Metadata

| Field        | Value   |
|--------------|---------|
| Entrypoint   | 0x0CB6  |
| Data Size    | 1 bytes |
| Instructions | 1       |

```
      00 01 02 03 04 05 06 07  08 09 0A 0B 0C 0D 0E 0F
      -- -- -- -- -- -- -- --  -- -- -- -- -- -- -- --
0CB0:                   00                                    .         
```

#### Opcodes

```
  0: 0x0CB6 [0x00] END_REQSTACK()
```
