# 17719533 - Ulmia

## Common Data

| Field            | Value                         |
|------------------|-------------------------------|
| Zone             | Southern San d'Oria (ID: 230) |
| Block Size       | 508 bytes                     |
| Total Events     | 13                            |
| References Count | 22                            |

## List of Events

| Event ID                   | Entrypoint   |   Size |   Instructions |
|----------------------------|--------------|--------|----------------|
| [65535](#event-65535)      | 0x0000       |     13 |              3 |
| [23](#event-23)            | 0x000D       |     10 |              2 |
| [22](#event-22)            | 0x0017       |      1 |              1 |
| [65535.1](#event-655351)   | 0x0018       |     90 |             18 |
| [65535.2](#event-655352)   | 0x0072       |     10 |              2 |
| [65535.3](#event-655353)   | 0x007C       |     10 |              2 |
| [65535.4](#event-655354)   | 0x0086       |     93 |             20 |
| [65535.5](#event-655355)   | 0x00E3       |     16 |              2 |
| [65535.6](#event-655356)   | 0x00F3       |     29 |              3 |
| [65535.7](#event-655357)   | 0x0110       |     16 |              2 |
| [65535.8](#event-655358)   | 0x0120       |     29 |              3 |
| [65535.9](#event-655359)   | 0x013D       |     16 |              2 |
| [65535.10](#event-6553510) | 0x014D       |     19 |              3 |

## DAT References (imed_data)

|   Index | Hex Value   |   Dec Value |
|---------|-------------|-------------|
|       0 | 0xFFFB87E6  |  4294674406 |
|       1 | 0x1691C     |       92444 |
|       2 | 0xFFFFDBF5  |  4294958069 |
|       3 | 0x08BF      |        2239 |
|       4 | 0x0898      |        2200 |
|       5 | 0x0028      |          40 |
|       6 | 0xFFFB7148  |  4294668616 |
|       7 | 0x17D97     |       97687 |
|       8 | 0xFFFFDC11  |  4294958097 |
|       9 | 0x0809      |        2057 |
|      10 | 0xFFFB7AA4  |  4294671012 |
|      11 | 0x16D16     |       93462 |
|      12 | 0x0000      |           0 |
|      13 | 0x0BB8      |        3000 |
|      14 | 0x000D      |          13 |
|      15 | 0xFFFB9524  |  4294677796 |
|      16 | 0x181A0     |       98720 |
|      17 | 0xFFFFDC06  |  4294958086 |
|      18 | 0xFFFB9CD9  |  4294679769 |
|      19 | 0xFFFFDFEE  |  4294959086 |
|      20 | 0x01A4      |         420 |
|      21 | 0x003C      |          60 |

## Events

### Event 65535

#### Metadata

| Field        | Value    |
|--------------|----------|
| Entrypoint   | 0x0000   |
| Data Size    | 13 bytes |
| Instructions | 3        |

```
      00 01 02 03 04 05 06 07  08 09 0A 0B 0C 0D 0E 0F
      -- -- -- -- -- -- -- --  -- -- -- -- -- -- -- --
0000: 94 01 F8 FF FF 7F 92 01  F8 FF FF 7F 00           .............   
```

#### Opcodes

```
  0: 0x0000 [0x94] EventEntity->Render.Flags3 ^= 0x01
  1: 0x0006 [0x92] EventEntity->Render.Flags3 ^= 0x01
  2: 0x000C [0x00] END_REQSTACK()
```

### Event 23

#### Metadata

| Field        | Value    |
|--------------|----------|
| Entrypoint   | 0x000D   |
| Data Size    | 10 bytes |
| Instructions | 2        |

```
      00 01 02 03 04 05 06 07  08 09 0A 0B 0C 0D 0E 0F
      -- -- -- -- -- -- -- --  -- -- -- -- -- -- -- --
0000:                                         37 00 80               7..
0010: 01 80 02 80 03 80 00                              .......         
```

#### Opcodes

```
  0: 0x000D [0x37] UPDATE_EVENT_POSITION_AND_DIR: x=-292.890*, z=92.444*, y=-9.227*, direction=196.8°*
  1: 0x0016 [0x00] END_REQSTACK()
```

### Event 22

#### Metadata

| Field        | Value   |
|--------------|---------|
| Entrypoint   | 0x0017  |
| Data Size    | 1 bytes |
| Instructions | 1       |

```
      00 01 02 03 04 05 06 07  08 09 0A 0B 0C 0D 0E 0F
      -- -- -- -- -- -- -- --  -- -- -- -- -- -- -- --
0010:                      00                                  .        
```

#### Opcodes

```
  0: 0x0017 [0x00] END_REQSTACK()
```

### Event 65535.1

#### Metadata

| Field        | Value    |
|--------------|----------|
| Entrypoint   | 0x0018   |
| Data Size    | 90 bytes |
| Instructions | 13       |

```
      00 01 02 03 04 05 06 07  08 09 0A 0B 0C 0D 0E 0F
      -- -- -- -- -- -- -- --  -- -- -- -- -- -- -- --
0010:                          03 00 00 04 80 1A 2E 00          ........
0020: 32 05 80 1F 00 01 00 02  00 03 00 1F 01 00 3B F8  2.............;.
0030: FF FF 7F 01 00 02 00 03  00 3A F8 FF FF 7F 04 00  .........:......
0040: 17 05 00 04 00 00 00 16  06 00 04 00 00 00 07 01  ................
0050: 00 05 00 07 02 00 06 00  1B 17 05 00 04 00 00 00  ................
0060: 16 06 00 04 00 00 00 07  01 00 05 00 07 02 00 06  ................
0070: 00 1B                                             ..              
```

#### Opcodes

```
  0: 0x0018 [0x03] ExtData[1]->WorkLocal[0] = 2200*
  1: 0x001D [0x1A] CALL_SUBROUTINE(address=0x002E)
  2: 0x0020 [0x32] ExtData[1]->MainSpeed = 40* * 0.1
  3: 0x0023 [0x1F] MOVE_ENTITY: EventEntity moves to X=ExtData[1]->WorkLocal[1], Z=ExtData[1]->WorkLocal[2], Y=ExtData[1]->WorkLocal[3]
  4: 0x002B [0x1F] MOVE_ENTITY: Update entity position (mode=1)
  5: 0x002D [0x00] END_REQSTACK()

SUBROUTINE_002E:
  6: 0x002E [0x3B] GET_ENTITY_POSITION(entity=EventEntity, x_destination=ExtData[1]->WorkLocal[1], y_destination=ExtData[1]->WorkLocal[2], z_destination=ExtData[1]->WorkLocal[3])
  7: 0x0039 [0x3A] CONVERT_YAW_TO_BYTE(entity=EventEntity, result_destination=ExtData[1]->WorkLocal[4])
  8: 0x0040 [0x17] ExtData[1]->WorkLocal[5] = cos(ExtData[1]->WorkLocal[4]) * ExtData[1]->WorkLocal[0]
  9: 0x0047 [0x16] ExtData[1]->WorkLocal[6] = sin(ExtData[1]->WorkLocal[4]) * ExtData[1]->WorkLocal[0]
 10: 0x004E [0x07] ExtData[1]->WorkLocal[1] += ExtData[1]->WorkLocal[5]
 11: 0x0053 [0x07] ExtData[1]->WorkLocal[2] += ExtData[1]->WorkLocal[6]
 12: 0x0058 [0x1B] RETURN
```

#### Data or dead code:

```
# Dead code (unreachable instructions):
     0x0059 [0x17] ExtData[1]->WorkLocal[5] = cos(ExtData[1]->WorkLocal[4]) * ExtData[1]->WorkLocal[0]
     0x0060 [0x16] ExtData[1]->WorkLocal[6] = sin(ExtData[1]->WorkLocal[4]) * ExtData[1]->WorkLocal[0]
     0x0067 [0x07] ExtData[1]->WorkLocal[1] += ExtData[1]->WorkLocal[5]
     0x006C [0x07] ExtData[1]->WorkLocal[2] += ExtData[1]->WorkLocal[6]
     0x0071 [0x1B] RETURN
```

### Event 65535.2

#### Metadata

| Field        | Value    |
|--------------|----------|
| Entrypoint   | 0x0072   |
| Data Size    | 10 bytes |
| Instructions | 2        |

```
      00 01 02 03 04 05 06 07  08 09 0A 0B 0C 0D 0E 0F
      -- -- -- -- -- -- -- --  -- -- -- -- -- -- -- --
0070:       37 06 80 07 80 08  80 09 80 00                7.........    
```

#### Opcodes

```
  0: 0x0072 [0x37] UPDATE_EVENT_POSITION_AND_DIR: x=-298.680*, z=97.687*, y=-9.199*, direction=180.8°*
  1: 0x007B [0x00] END_REQSTACK()
```

### Event 65535.3

#### Metadata

| Field        | Value    |
|--------------|----------|
| Entrypoint   | 0x007C   |
| Data Size    | 10 bytes |
| Instructions | 2        |

```
      00 01 02 03 04 05 06 07  08 09 0A 0B 0C 0D 0E 0F
      -- -- -- -- -- -- -- --  -- -- -- -- -- -- -- --
0070:                                      37 0A 80 0B              7...
0080: 80 08 80 0C 80 00                                 ......          
```

#### Opcodes

```
  0: 0x007C [0x37] UPDATE_EVENT_POSITION_AND_DIR: x=-296.284*, z=93.462*, y=-9.199*, direction=0.0°*
  1: 0x0085 [0x00] END_REQSTACK()
```

### Event 65535.4

#### Metadata

| Field        | Value    |
|--------------|----------|
| Entrypoint   | 0x0086   |
| Data Size    | 93 bytes |
| Instructions | 20       |

```
      00 01 02 03 04 05 06 07  08 09 0A 0B 0C 0D 0E 0F
      -- -- -- -- -- -- -- --  -- -- -- -- -- -- -- --
0080:                   03 00  00 0D 80 1A 2E 00 32 0E        ........2.
0090: 80 1F 00 01 00 02 00 03  00 1F 01 33 01 1F 00 0F  ...........3....
00A0: 80 10 80 11 80 1F 01 6F  3B F8 FF FF 7F 01 00 02  .......o;.......
00B0: 00 03 00 03 04 00 0C 80  03 00 00 0D 80 17 05 00  ................
00C0: 04 00 00 00 16 06 00 04  00 00 00 07 01 00 05 00  ................
00D0: 07 02 00 06 00 32 0E 80  5A 00 12 80 10 80 13 80  .....2..Z.......
00E0: 5A 01 00                                          Z..             
```

#### Opcodes

```
  0: 0x0086 [0x03] ExtData[1]->WorkLocal[0] = 3000*
  1: 0x008B [0x1A] CALL_SUBROUTINE(address=0x002E)
  2: 0x008E [0x32] ExtData[1]->MainSpeed = 13* * 0.1
  3: 0x0091 [0x1F] MOVE_ENTITY: EventEntity moves to X=ExtData[1]->WorkLocal[1], Z=ExtData[1]->WorkLocal[2], Y=ExtData[1]->WorkLocal[3]
  4: 0x0099 [0x1F] MOVE_ENTITY: Update entity position (mode=1)
  5: 0x009B [0x33] EventEntity->Render.Flags0 |= 0x200000 // Bit 21 (flag=0x01)
  6: 0x009D [0x1F] MOVE_ENTITY: EventEntity moves to X=-289.500*, Z=98.720*, Y=-9.210*
  7: 0x00A5 [0x1F] MOVE_ENTITY: Update entity position (mode=1)
  8: 0x00A7 [0x6F] WAIT_FRAME_DELAY: Yield until WaitTime reaches zero
  9: 0x00A8 [0x3B] GET_ENTITY_POSITION(entity=EventEntity, x_destination=ExtData[1]->WorkLocal[1], y_destination=ExtData[1]->WorkLocal[2], z_destination=ExtData[1]->WorkLocal[3])
 10: 0x00B3 [0x03] ExtData[1]->WorkLocal[4] = 0*
 11: 0x00B8 [0x03] ExtData[1]->WorkLocal[0] = 3000*
 12: 0x00BD [0x17] ExtData[1]->WorkLocal[5] = cos(ExtData[1]->WorkLocal[4]) * ExtData[1]->WorkLocal[0]
 13: 0x00C4 [0x16] ExtData[1]->WorkLocal[6] = sin(ExtData[1]->WorkLocal[4]) * ExtData[1]->WorkLocal[0]
 14: 0x00CB [0x07] ExtData[1]->WorkLocal[1] += ExtData[1]->WorkLocal[5]
 15: 0x00D0 [0x07] ExtData[1]->WorkLocal[2] += ExtData[1]->WorkLocal[6]
 16: 0x00D5 [0x32] ExtData[1]->MainSpeed = 13* * 0.1
 17: 0x00D8 [0x5A] UPDATE_EVENT_POSITION: Set EventEntity MovePosition to X=-287.527*, Z=98.720*, Y=-8.210*
 18: 0x00E0 [0x5A] UPDATE_EVENT_POSITION: Move EventEntity incrementally towards MovePosition
 19: 0x00E2 [0x00] END_REQSTACK()
```

### Event 65535.5

#### Metadata

| Field        | Value    |
|--------------|----------|
| Entrypoint   | 0x00E3   |
| Data Size    | 16 bytes |
| Instructions | 2        |

```
      00 01 02 03 04 05 06 07  08 09 0A 0B 0C 0D 0E 0F
      -- -- -- -- -- -- -- --  -- -- -- -- -- -- -- --
00E0:          5B 14 80 F8 FF  FF 7F F8 FF FF 7F 74 6C     [..........tl
00F0: 62 30 00                                          b0.             
```

#### Opcodes

```
  0: 0x00E3 [0x5B] LOAD_EXT_SCHEDULER: Load scheduler "tlb0" with entities [EventEntity, EventEntity], work=420*
  1: 0x00F2 [0x00] END_REQSTACK()
```

### Event 65535.6

#### Metadata

| Field        | Value    |
|--------------|----------|
| Entrypoint   | 0x00F3   |
| Data Size    | 29 bytes |
| Instructions | 3        |

```
      00 01 02 03 04 05 06 07  08 09 0A 0B 0C 0D 0E 0F
      -- -- -- -- -- -- -- --  -- -- -- -- -- -- -- --
00F0:          5B 14 80 F8 FF  FF 7F F8 FF FF 7F 74 6C     [..........tl
0100: 62 31 53 F8 FF FF 7F F8  FF FF 7F 74 6C 62 31 00  b1S........tlb1.
```

#### Opcodes

```
  0: 0x00F3 [0x5B] LOAD_EXT_SCHEDULER: Load scheduler "tlb1" with entities [EventEntity, EventEntity], work=420*
  1: 0x0102 [0x53] WAIT_SCHEDULER_TASK: Wait for scheduler "tlb1" with entities [EventEntity, EventEntity]
  2: 0x010F [0x00] END_REQSTACK()
```

### Event 65535.7

#### Metadata

| Field        | Value    |
|--------------|----------|
| Entrypoint   | 0x0110   |
| Data Size    | 16 bytes |
| Instructions | 2        |

```
      00 01 02 03 04 05 06 07  08 09 0A 0B 0C 0D 0E 0F
      -- -- -- -- -- -- -- --  -- -- -- -- -- -- -- --
0110: 5B 14 80 F8 FF FF 7F F8  FF FF 7F 74 6C 61 30 00  [..........tla0.
```

#### Opcodes

```
  0: 0x0110 [0x5B] LOAD_EXT_SCHEDULER: Load scheduler "tla0" with entities [EventEntity, EventEntity], work=420*
  1: 0x011F [0x00] END_REQSTACK()
```

### Event 65535.8

#### Metadata

| Field        | Value    |
|--------------|----------|
| Entrypoint   | 0x0120   |
| Data Size    | 29 bytes |
| Instructions | 3        |

```
      00 01 02 03 04 05 06 07  08 09 0A 0B 0C 0D 0E 0F
      -- -- -- -- -- -- -- --  -- -- -- -- -- -- -- --
0120: 5B 14 80 F8 FF FF 7F F8  FF FF 7F 74 6C 61 31 53  [..........tla1S
0130: F8 FF FF 7F F8 FF FF 7F  74 6C 61 31 00           ........tla1.   
```

#### Opcodes

```
  0: 0x0120 [0x5B] LOAD_EXT_SCHEDULER: Load scheduler "tla1" with entities [EventEntity, EventEntity], work=420*
  1: 0x012F [0x53] WAIT_SCHEDULER_TASK: Wait for scheduler "tla1" with entities [EventEntity, EventEntity]
  2: 0x013C [0x00] END_REQSTACK()
```

### Event 65535.9

#### Metadata

| Field        | Value    |
|--------------|----------|
| Entrypoint   | 0x013D   |
| Data Size    | 16 bytes |
| Instructions | 2        |

```
      00 01 02 03 04 05 06 07  08 09 0A 0B 0C 0D 0E 0F
      -- -- -- -- -- -- -- --  -- -- -- -- -- -- -- --
0130:                                         5B 14 80               [..
0140: F8 FF FF 7F F8 FF FF 7F  74 6C 63 30 00           ........tlc0.   
```

#### Opcodes

```
  0: 0x013D [0x5B] LOAD_EXT_SCHEDULER: Load scheduler "tlc0" with entities [EventEntity, EventEntity], work=420*
  1: 0x014C [0x00] END_REQSTACK()
```

### Event 65535.10

#### Metadata

| Field        | Value    |
|--------------|----------|
| Entrypoint   | 0x014D   |
| Data Size    | 19 bytes |
| Instructions | 3        |

```
      00 01 02 03 04 05 06 07  08 09 0A 0B 0C 0D 0E 0F
      -- -- -- -- -- -- -- --  -- -- -- -- -- -- -- --
0140:                                         5B 14 80               [..
0150: F8 FF FF 7F F8 FF FF 7F  74 6C 63 31 1C 15 80 00  ........tlc1....
```

#### Opcodes

```
  0: 0x014D [0x5B] LOAD_EXT_SCHEDULER: Load scheduler "tlc1" with entities [EventEntity, EventEntity], work=420*
  1: 0x015C [0x1C] WAIT(60* ticks)
  2: 0x015F [0x00] END_REQSTACK()
```
