# 17719517 - Ullasa

## Common Data

| Field            | Value                         |
|------------------|-------------------------------|
| Zone             | Southern San d'Oria (ID: 230) |
| Block Size       | 560 bytes                     |
| Total Events     | 13                            |
| References Count | 36                            |

## List of Events

| Event ID                 | Entrypoint   |   Size |   Instructions |
|--------------------------|--------------|--------|----------------|
| [65535](#event-65535)    | 0x0000       |      1 |              1 |
| [32693](#event-32693)    | 0x0001       |     12 |              6 |
| [39](#event-39)          | 0x000D       |     17 |              9 |
| [40](#event-40)          | 0x001E       |     30 |             14 |
| [945](#event-945)        | 0x003C       |     10 |              2 |
| [65535.1](#event-655351) | 0x0046       |     15 |              5 |
| [65535.2](#event-655352) | 0x0055       |     68 |             12 |
| [65535.3](#event-655353) | 0x0099       |     45 |              9 |
| [65535.4](#event-655354) | 0x00C6       |     89 |             16 |
| [65535.5](#event-655355) | 0x011F       |     15 |              5 |
| [65535.6](#event-655356) | 0x012E       |     10 |              2 |
| [65535.7](#event-655357) | 0x0138       |     15 |              5 |
| [65535.8](#event-655358) | 0x0147       |     18 |              6 |

## DAT References (imed_data)

|   Index | Hex Value   |   Dec Value |
|---------|-------------|-------------|
|       0 | 0x35E0      |       13792 |
|       1 | 0x23C0      |        9152 |
|       2 | 0x23C1      |        9153 |
|       3 | 0x00DB      |         219 |
|       4 | 0x23C2      |        9154 |
|       5 | 0x23C3      |        9155 |
|       6 | 0x0060      |          96 |
|       7 | 0x0001      |           1 |
|       8 | 0x000B      |          11 |
|       9 | 0xF906      |       63750 |
|      10 | 0xFFFFC4F8  |  4294952184 |
|      11 | 0x07CF      |        1999 |
|      12 | 0x0013      |          19 |
|      13 | 0x7FC6      |       32710 |
|      14 | 0xFFFF82CC  |  4294935244 |
|      15 | 0x004B      |          75 |
|      16 | 0x001E      |          30 |
|      17 | 0x0027      |          39 |
|      18 | 0x4B65      |       19301 |
|      19 | 0xFFFF927C  |  4294939260 |
|      20 | 0x001D      |          29 |
|      21 | 0x000D      |          13 |
|      22 | 0xFFFFE0FB  |  4294959355 |
|      23 | 0xFFFFFCD8  |  4294966488 |
|      24 | 0x0078      |         120 |
|      25 | 0xFFFFBEF4  |  4294950644 |
|      26 | 0xFFFFD7DD  |  4294957021 |
|      27 | 0xFFFFDD9F  |  4294958495 |
|      28 | 0xFFFFA44E  |  4294943822 |
|      29 | 0x007F      |         127 |
|      30 | 0x0028      |          40 |
|      31 | 0x3192      |       12690 |
|      32 | 0xFFFFCF7D  |  4294954877 |
|      33 | 0x0025      |          37 |
|      34 | 0x2E04      |       11780 |
|      35 | 0xFFFFCBDF  |  4294953951 |

## String References

- **9152**: I am an appraiser in the employ of Madam Hinaree. Her late husband was quite a collector. These are all fine works!
- **9153**: The portrait above the stairs is especially valuable. It is by Mique, court artist of King Ranperre. Pity so few of his works survive!
- **9154**: The greatest mystery surrounding Mique is his brush. It is said that its bristles turn ferocious when the painter is afraid, and delicate when he is sad.
- **9155**: Any artist would desire $3. Some say it was hidden in Castle Zvahl, but I do not believe them.
- **13792**: A Starlight Celebration present? For me? How very kind of you! And such fine craftsmanship, too!

## Events

### Event 65535

#### Metadata

| Field        | Value   |
|--------------|---------|
| Entrypoint   | 0x0000  |
| Data Size    | 1 bytes |
| Instructions | 1       |

```
      00 01 02 03 04 05 06 07  08 09 0A 0B 0C 0D 0E 0F
      -- -- -- -- -- -- -- --  -- -- -- -- -- -- -- --
0000: 00                                                .               
```

#### Opcodes

```
  0: 0x0000 [0x00] END_REQSTACK()
```

### Event 32693

#### Metadata

| Field        | Value    |
|--------------|----------|
| Entrypoint   | 0x0001   |
| Data Size    | 12 bytes |
| Instructions | 6        |

```
      00 01 02 03 04 05 06 07  08 09 0A 0B 0C 0D 0E 0F
      -- -- -- -- -- -- -- --  -- -- -- -- -- -- -- --
0000:    42 1E F0 FF FF 7F 1D  00 80 23 21 00            B........#!.   
```

#### Opcodes

```
  0: 0x0001 [0x42] SET_CLI_EVENT_CANCEL_DATA()
  1: 0x0002 [0x1E] EventEntity looks at LocalPlayer and starts talking
  2: 0x0007 [0x1D] PRINT_EVENT_MESSAGE(message_id=13792*)
    → "A Starlight Celebration present? For me? How very kind of you! And such fine craftsmanship, too!"
  3: 0x000A [0x23] WAIT_FOR_DIALOG_INTERACTION
  4: 0x000B [0x21] END_EVENT
  5: 0x000C [0x00] END_REQSTACK()
```

### Event 39

#### Metadata

| Field        | Value    |
|--------------|----------|
| Entrypoint   | 0x000D   |
| Data Size    | 17 bytes |
| Instructions | 9        |

```
      00 01 02 03 04 05 06 07  08 09 0A 0B 0C 0D 0E 0F
      -- -- -- -- -- -- -- --  -- -- -- -- -- -- -- --
0000:                                         1E F0 FF               ...
0010: FF 7F 6F 70 1D 01 80 23  1D 02 80 23 21 00        ..op...#...#!.  
```

#### Opcodes

```
  0: 0x000D [0x1E] EventEntity looks at LocalPlayer and starts talking
  1: 0x0012 [0x6F] WAIT_FRAME_DELAY: Yield until WaitTime reaches zero
  2: 0x0013 [0x70] WAIT_ENTITY_RENDER_FLAG: Wait while EventEntity->Render.Flags3 bit 2 is set (cancel turn if not)
  3: 0x0014 [0x1D] PRINT_EVENT_MESSAGE(message_id=9152*)
    → "I am an appraiser in the employ of Madam Hinaree. Her late husband was quite a collector. These are all fine works!"
  4: 0x0017 [0x23] WAIT_FOR_DIALOG_INTERACTION
  5: 0x0018 [0x1D] PRINT_EVENT_MESSAGE(message_id=9153*)
    → "The portrait above the stairs is especially valuable. It is by Mique, court artist of King Ranperre. Pity so few of his works survive!"
  6: 0x001B [0x23] WAIT_FOR_DIALOG_INTERACTION
  7: 0x001C [0x21] END_EVENT
  8: 0x001D [0x00] END_REQSTACK()
```

### Event 40

#### Metadata

| Field        | Value    |
|--------------|----------|
| Entrypoint   | 0x001E   |
| Data Size    | 30 bytes |
| Instructions | 14       |

```
      00 01 02 03 04 05 06 07  08 09 0A 0B 0C 0D 0E 0F
      -- -- -- -- -- -- -- --  -- -- -- -- -- -- -- --
0010:                                            1E F0                ..
0020: FF FF 7F 6F 70 1D 01 80  23 1D 02 80 23 03 02 10  ...op...#...#...
0030: 03 80 1D 04 80 23 1D 05  80 23 21 00              .....#...#!.    
```

#### Opcodes

```
  0: 0x001E [0x1E] EventEntity looks at LocalPlayer and starts talking
  1: 0x0023 [0x6F] WAIT_FRAME_DELAY: Yield until WaitTime reaches zero
  2: 0x0024 [0x70] WAIT_ENTITY_RENDER_FLAG: Wait while EventEntity->Render.Flags3 bit 2 is set (cancel turn if not)
  3: 0x0025 [0x1D] PRINT_EVENT_MESSAGE(message_id=9152*)
    → "I am an appraiser in the employ of Madam Hinaree. Her late husband was quite a collector. These are all fine works!"
  4: 0x0028 [0x23] WAIT_FOR_DIALOG_INTERACTION
  5: 0x0029 [0x1D] PRINT_EVENT_MESSAGE(message_id=9153*)
    → "The portrait above the stairs is especially valuable. It is by Mique, court artist of King Ranperre. Pity so few of his works survive!"
  6: 0x002C [0x23] WAIT_FOR_DIALOG_INTERACTION
  7: 0x002D [0x03] Work_Zone[2] = 219*
  8: 0x0032 [0x1D] PRINT_EVENT_MESSAGE(message_id=9154*)
    → "The greatest mystery surrounding Mique is his brush. It is said that its bristles turn ferocious when the painter is afraid, and delicate when he is sad."
  9: 0x0035 [0x23] WAIT_FOR_DIALOG_INTERACTION
 10: 0x0036 [0x1D] PRINT_EVENT_MESSAGE(message_id=9155*)
    → "Any artist would desire $3. Some say it was hidden in Castle Zvahl, but I do not believe them."
 11: 0x0039 [0x23] WAIT_FOR_DIALOG_INTERACTION
 12: 0x003A [0x21] END_EVENT
 13: 0x003B [0x00] END_REQSTACK()
```

### Event 945

#### Metadata

| Field        | Value    |
|--------------|----------|
| Entrypoint   | 0x003C   |
| Data Size    | 10 bytes |
| Instructions | 2        |

```
      00 01 02 03 04 05 06 07  08 09 0A 0B 0C 0D 0E 0F
      -- -- -- -- -- -- -- --  -- -- -- -- -- -- -- --
0030:                                      6C F8 FF FF              l...
0040: 7F 06 80 07 80 00                                 ......          
```

#### Opcodes

```
  0: 0x003C [0x6C] FADE_ENTITY_COLOR(entity_id=EventEntity, end_alpha=96*, fade_time=1*)
  1: 0x0045 [0x00] END_REQSTACK()
```

### Event 65535.1

#### Metadata

| Field        | Value    |
|--------------|----------|
| Entrypoint   | 0x0046   |
| Data Size    | 15 bytes |
| Instructions | 5        |

```
      00 01 02 03 04 05 06 07  08 09 0A 0B 0C 0D 0E 0F
      -- -- -- -- -- -- -- --  -- -- -- -- -- -- -- --
0040:                   32 08  80 1F 00 09 80 0A 80 0B        2.........
0050: 80 1F 01 6F 00                                    ...o.           
```

#### Opcodes

```
  0: 0x0046 [0x32] ExtData[1]->MainSpeed = 11* * 0.1
  1: 0x0049 [0x1F] MOVE_ENTITY: EventEntity moves to X=63.750*, Z=-15.112*, Y=1.999*
  2: 0x0051 [0x1F] MOVE_ENTITY: Update entity position (mode=1)
  3: 0x0053 [0x6F] WAIT_FRAME_DELAY: Yield until WaitTime reaches zero
  4: 0x0054 [0x00] END_REQSTACK()
```

### Event 65535.2

#### Metadata

| Field        | Value    |
|--------------|----------|
| Entrypoint   | 0x0055   |
| Data Size    | 68 bytes |
| Instructions | 12       |

```
      00 01 02 03 04 05 06 07  08 09 0A 0B 0C 0D 0E 0F
      -- -- -- -- -- -- -- --  -- -- -- -- -- -- -- --
0050:                32 0C 80  1F 00 0D 80 0E 80 0B 80       2..........
0060: 1F 01 6F 1E 3D 60 0E 01  6F 76 F8 FF FF 7F 4A 3D  ..o.=`..ov....J=
0070: 60 0E 01 F8 FF FF 7F 5B  0F 80 F8 FF FF 7F F8 FF  `......[........
0080: FF 7F 74 6C 6B 30 1C 10  80 5B 0F 80 3D 60 0E 01  ..tlk0...[..=`..
0090: 3D 60 0E 01 74 68 6B 30  00                       =`..thk0.       
```

#### Opcodes

```
  0: 0x0055 [0x32] ExtData[1]->MainSpeed = 19* * 0.1
  1: 0x0058 [0x1F] MOVE_ENTITY: EventEntity moves to X=32.710*, Z=-32.052*, Y=1.999*
  2: 0x0060 [0x1F] MOVE_ENTITY: Update entity position (mode=1)
  3: 0x0062 [0x6F] WAIT_FRAME_DELAY: Yield until WaitTime reaches zero
  4: 0x0063 [0x1E] EventEntity looks at Authere (ID: 17719357/0x010E603D) and starts talking
  5: 0x0068 [0x6F] WAIT_FRAME_DELAY: Yield until WaitTime reaches zero
  6: 0x0069 [0x76] CHECK_ENTITY_RENDER_FLAGS: Wait until EventEntity Render.Flags0 and Render.Flags3 conditions are met
  7: 0x006E [0x4A] Authere (ID: 17719357/0x010E603D) looks at EventEntity
  8: 0x0077 [0x5B] LOAD_EXT_SCHEDULER: Load scheduler "tlk0" with entities [EventEntity, EventEntity], work=75*
  9: 0x0086 [0x1C] WAIT(30* ticks)
 10: 0x0089 [0x5B] LOAD_EXT_SCHEDULER: Load scheduler "thk0" with entities [Authere (ID: 17719357/0x010E603D), Authere (ID: 17719357/0x010E603D)], work=75*
 11: 0x0098 [0x00] END_REQSTACK()
```

### Event 65535.3

#### Metadata

| Field        | Value    |
|--------------|----------|
| Entrypoint   | 0x0099   |
| Data Size    | 45 bytes |
| Instructions | 9        |

```
      00 01 02 03 04 05 06 07  08 09 0A 0B 0C 0D 0E 0F
      -- -- -- -- -- -- -- --  -- -- -- -- -- -- -- --
0090:                             32 11 80 1F 00 12 80           2......
00A0: 13 80 0B 80 1F 01 6F 4A  72 60 0E 01 F8 FF FF 7F  ......oJr`......
00B0: 6F 76 72 60 0E 01 66 14  80 72 60 0E 01 72 60 0E  ovr`..f..r`..r`.
00C0: 01 74 77 61 30 00                                 .twa0.          
```

#### Opcodes

```
  0: 0x0099 [0x32] ExtData[1]->MainSpeed = 39* * 0.1
  1: 0x009C [0x1F] MOVE_ENTITY: EventEntity moves to X=19.301*, Z=-28.036*, Y=1.999*
  2: 0x00A4 [0x1F] MOVE_ENTITY: Update entity position (mode=1)
  3: 0x00A6 [0x6F] WAIT_FRAME_DELAY: Yield until WaitTime reaches zero
  4: 0x00A7 [0x4A] Vaquelage (ID: 17719410/0x010E6072) looks at EventEntity
  5: 0x00B0 [0x6F] WAIT_FRAME_DELAY: Yield until WaitTime reaches zero
  6: 0x00B1 [0x76] CHECK_ENTITY_RENDER_FLAGS: Wait until Vaquelage (ID: 17719410/0x010E6072) Render.Flags0 and Render.Flags3 conditions are met
  7: 0x00B6 [0x66] LOAD_EXT_SCHEDULER_MAIN: Load scheduler "twa0" with entities [Vaquelage (ID: 17719410/0x010E6072), Vaquelage (ID: 17719410/0x010E6072)], work=29*
  8: 0x00C5 [0x00] END_REQSTACK()
```

### Event 65535.4

#### Metadata

| Field        | Value    |
|--------------|----------|
| Entrypoint   | 0x00C6   |
| Data Size    | 89 bytes |
| Instructions | 16       |

```
      00 01 02 03 04 05 06 07  08 09 0A 0B 0C 0D 0E 0F
      -- -- -- -- -- -- -- --  -- -- -- -- -- -- -- --
00C0:                   32 15  80 1F 00 16 80 17 80 0B        2.........
00D0: 80 1F 01 6F 79 00 F8 FF  FF 7F 7E 60 0E 01 4A 7E  ...oy.....~`..J~
00E0: 60 0E 01 F8 FF FF 7F 6F  76 7E 60 0E 01 5B 11 80  `......ov~`..[..
00F0: 7E 60 0E 01 7E 60 0E 01  74 6C 6B 30 1C 18 80 5B  ~`..~`..tlk0...[
0100: 11 80 7E 60 0E 01 7E 60  0E 01 74 6C 6B 31 7B F8  ..~`..~`..tlk1{.
0110: FF FF 7F 1F 00 19 80 1A  80 0B 80 1F 01 6F 00     .............o. 
```

#### Opcodes

```
  0: 0x00C6 [0x32] ExtData[1]->MainSpeed = 13* * 0.1
  1: 0x00C9 [0x1F] MOVE_ENTITY: EventEntity moves to X=-7.941*, Z=-0.808*, Y=1.999*
  2: 0x00D1 [0x1F] MOVE_ENTITY: Update entity position (mode=1)
  3: 0x00D3 [0x6F] WAIT_FRAME_DELAY: Yield until WaitTime reaches zero
  4: 0x00D4 [0x79] EventEntity looks at Ailevia (ID: 17719422/0x010E607E) (Basic look)
  5: 0x00DE [0x4A] Ailevia (ID: 17719422/0x010E607E) looks at EventEntity
  6: 0x00E7 [0x6F] WAIT_FRAME_DELAY: Yield until WaitTime reaches zero
  7: 0x00E8 [0x76] CHECK_ENTITY_RENDER_FLAGS: Wait until Ailevia (ID: 17719422/0x010E607E) Render.Flags0 and Render.Flags3 conditions are met
  8: 0x00ED [0x5B] LOAD_EXT_SCHEDULER: Load scheduler "tlk0" with entities [Ailevia (ID: 17719422/0x010E607E), Ailevia (ID: 17719422/0x010E607E)], work=39*
  9: 0x00FC [0x1C] WAIT(120* ticks)
 10: 0x00FF [0x5B] LOAD_EXT_SCHEDULER: Load scheduler "tlk1" with entities [Ailevia (ID: 17719422/0x010E607E), Ailevia (ID: 17719422/0x010E607E)], work=39*
 11: 0x010E [0x7B] EventEntity stops talking
 12: 0x0113 [0x1F] MOVE_ENTITY: EventEntity moves to X=-16.652*, Z=-10.275*, Y=1.999*
 13: 0x011B [0x1F] MOVE_ENTITY: Update entity position (mode=1)
 14: 0x011D [0x6F] WAIT_FRAME_DELAY: Yield until WaitTime reaches zero
 15: 0x011E [0x00] END_REQSTACK()
```

### Event 65535.5

#### Metadata

| Field        | Value    |
|--------------|----------|
| Entrypoint   | 0x011F   |
| Data Size    | 15 bytes |
| Instructions | 5        |

```
      00 01 02 03 04 05 06 07  08 09 0A 0B 0C 0D 0E 0F
      -- -- -- -- -- -- -- --  -- -- -- -- -- -- -- --
0110:                                               32                 2
0120: 08 80 1F 00 1B 80 1C 80  0B 80 1F 01 6F 00        ............o.  
```

#### Opcodes

```
  0: 0x011F [0x32] ExtData[1]->MainSpeed = 11* * 0.1
  1: 0x0122 [0x1F] MOVE_ENTITY: EventEntity moves to X=-8.801*, Z=-23.474*, Y=1.999*
  2: 0x012A [0x1F] MOVE_ENTITY: Update entity position (mode=1)
  3: 0x012C [0x6F] WAIT_FRAME_DELAY: Yield until WaitTime reaches zero
  4: 0x012D [0x00] END_REQSTACK()
```

### Event 65535.6

#### Metadata

| Field        | Value    |
|--------------|----------|
| Entrypoint   | 0x012E   |
| Data Size    | 10 bytes |
| Instructions | 2        |

```
      00 01 02 03 04 05 06 07  08 09 0A 0B 0C 0D 0E 0F
      -- -- -- -- -- -- -- --  -- -- -- -- -- -- -- --
0120:                                            6C F8                l.
0130: FF FF 7F 1D 80 07 80 00                           ........        
```

#### Opcodes

```
  0: 0x012E [0x6C] FADE_ENTITY_COLOR(entity_id=EventEntity, end_alpha=127*, fade_time=1*)
  1: 0x0137 [0x00] END_REQSTACK()
```

### Event 65535.7

#### Metadata

| Field        | Value    |
|--------------|----------|
| Entrypoint   | 0x0138   |
| Data Size    | 15 bytes |
| Instructions | 5        |

```
      00 01 02 03 04 05 06 07  08 09 0A 0B 0C 0D 0E 0F
      -- -- -- -- -- -- -- --  -- -- -- -- -- -- -- --
0130:                          32 1E 80 1F 00 1F 80 20          2...... 
0140: 80 0B 80 1F 01 6F 00                              .....o.         
```

#### Opcodes

```
  0: 0x0138 [0x32] ExtData[1]->MainSpeed = 40* * 0.1
  1: 0x013B [0x1F] MOVE_ENTITY: EventEntity moves to X=12.690*, Z=-12.419*, Y=1.999*
  2: 0x0143 [0x1F] MOVE_ENTITY: Update entity position (mode=1)
  3: 0x0145 [0x6F] WAIT_FRAME_DELAY: Yield until WaitTime reaches zero
  4: 0x0146 [0x00] END_REQSTACK()
```

### Event 65535.8

#### Metadata

| Field        | Value    |
|--------------|----------|
| Entrypoint   | 0x0147   |
| Data Size    | 18 bytes |
| Instructions | 6        |

```
      00 01 02 03 04 05 06 07  08 09 0A 0B 0C 0D 0E 0F
      -- -- -- -- -- -- -- --  -- -- -- -- -- -- -- --
0140:                      1C  10 80 32 21 80 1F 00 22         ...2!..."
0150: 80 23 80 0B 80 1F 01 6F  00                       .#.....o.       
```

#### Opcodes

```
  0: 0x0147 [0x1C] WAIT(30* ticks)
  1: 0x014A [0x32] ExtData[1]->MainSpeed = 37* * 0.1
  2: 0x014D [0x1F] MOVE_ENTITY: EventEntity moves to X=11.780*, Z=-13.345*, Y=1.999*
  3: 0x0155 [0x1F] MOVE_ENTITY: Update entity position (mode=1)
  4: 0x0157 [0x6F] WAIT_FRAME_DELAY: Yield until WaitTime reaches zero
  5: 0x0158 [0x00] END_REQSTACK()
```
