# 17719510 - Rahal

## Common Data

| Field            | Value                         |
|------------------|-------------------------------|
| Zone             | Southern San d'Oria (ID: 230) |
| Block Size       | 260 bytes                     |
| Total Events     | 10                            |
| References Count | 16                            |

## List of Events

| Event ID                 | Entrypoint   |   Size |   Instructions |
|--------------------------|--------------|--------|----------------|
| [65535](#event-65535)    | 0x0000       |      1 |              1 |
| [503](#event-503)        | 0x0001       |     13 |              3 |
| [65535.1](#event-655351) | 0x000E       |     16 |              4 |
| [65535.2](#event-655352) | 0x001E       |     12 |              4 |
| [65535.3](#event-655353) | 0x002A       |     17 |              5 |
| [65535.4](#event-655354) | 0x003B       |     12 |              4 |
| [65535.5](#event-655355) | 0x0047       |     19 |              3 |
| [65535.6](#event-655356) | 0x005A       |      9 |              3 |
| [65535.7](#event-655357) | 0x0063       |     19 |              3 |
| [65535.8](#event-655358) | 0x0076       |     19 |              3 |

## DAT References (imed_data)

|   Index | Hex Value   |   Dec Value |
|---------|-------------|-------------|
|       0 | 0xFFFE6938  |  4294863160 |
|       1 | 0xFFFF4409  |  4294919177 |
|       2 | 0x03E7      |         999 |
|       3 | 0x0E0E      |        3598 |
|       4 | 0x000D      |          13 |
|       5 | 0x00B4      |         180 |
|       6 | 0xFFFE6E57  |  4294864471 |
|       7 | 0xFFFF4918  |  4294920472 |
|       8 | 0x03E8      |        1000 |
|       9 | 0xFFFE73BE  |  4294865854 |
|      10 | 0xFFFF55CD  |  4294923725 |
|      11 | 0xFFFEADD7  |  4294880727 |
|      12 | 0xFFFF95DD  |  4294940125 |
|      13 | 0x07CF      |        1999 |
|      14 | 0x001D      |          29 |
|      15 | 0x003C      |          60 |

## Events

### Event 65535

#### Metadata

| Field        | Value   |
|--------------|---------|
| Entrypoint   | 0x0000  |
| Data Size    | 1 bytes |
| Instructions | 1       |

```
      00 01 02 03 04 05 06 07  08 09 0A 0B 0C 0D 0E 0F
      -- -- -- -- -- -- -- --  -- -- -- -- -- -- -- --
0000: 00                                                .               
```

#### Opcodes

```
  0: 0x0000 [0x00] END_REQSTACK()
```

### Event 503

#### Metadata

| Field        | Value    |
|--------------|----------|
| Entrypoint   | 0x0001   |
| Data Size    | 13 bytes |
| Instructions | 3        |

```
      00 01 02 03 04 05 06 07  08 09 0A 0B 0C 0D 0E 0F
      -- -- -- -- -- -- -- --  -- -- -- -- -- -- -- --
0000:    37 00 80 01 80 02 80  03 80 32 04 80 00         7........2...  
```

#### Opcodes

```
  0: 0x0001 [0x37] UPDATE_EVENT_POSITION_AND_DIR: x=-104.136*, z=-48.119*, y=0.999*, direction=316.2°*
  1: 0x000A [0x32] ExtData[1]->MainSpeed = 13* * 0.1
  2: 0x000D [0x00] END_REQSTACK()
```

### Event 65535.1

#### Metadata

| Field        | Value    |
|--------------|----------|
| Entrypoint   | 0x000E   |
| Data Size    | 16 bytes |
| Instructions | 4        |

```
      00 01 02 03 04 05 06 07  08 09 0A 0B 0C 0D 0E 0F
      -- -- -- -- -- -- -- --  -- -- -- -- -- -- -- --
0000:                                            6E D6                n.
0010: 60 0E 01 04 80 99 D6 60  0E 01 1C 05 80 00        `......`......  
```

#### Opcodes

```
  0: 0x000E [0x6E] Rahal (ID: 17719510/0x010E60D6) uses emote 13*
  1: 0x0015 [0x99] Wait for Rahal (ID: 17719510/0x010E60D6) animation to complete
  2: 0x001A [0x1C] WAIT(180* ticks)
  3: 0x001D [0x00] END_REQSTACK()
```

### Event 65535.2

#### Metadata

| Field        | Value    |
|--------------|----------|
| Entrypoint   | 0x001E   |
| Data Size    | 12 bytes |
| Instructions | 4        |

```
      00 01 02 03 04 05 06 07  08 09 0A 0B 0C 0D 0E 0F
      -- -- -- -- -- -- -- --  -- -- -- -- -- -- -- --
0010:                                            1F 00                ..
0020: 06 80 07 80 08 80 1F 01  6F 00                    ........o.      
```

#### Opcodes

```
  0: 0x001E [0x1F] MOVE_ENTITY: EventEntity moves to X=-102.825*, Z=-46.824*, Y=1.000*
  1: 0x0026 [0x1F] MOVE_ENTITY: Update entity position (mode=1)
  2: 0x0028 [0x6F] WAIT_FRAME_DELAY: Yield until WaitTime reaches zero
  3: 0x0029 [0x00] END_REQSTACK()
```

### Event 65535.3

#### Metadata

| Field        | Value    |
|--------------|----------|
| Entrypoint   | 0x002A   |
| Data Size    | 17 bytes |
| Instructions | 5        |

```
      00 01 02 03 04 05 06 07  08 09 0A 0B 0C 0D 0E 0F
      -- -- -- -- -- -- -- --  -- -- -- -- -- -- -- --
0020:                                1F 00 09 80 0A 80            ......
0030: 08 80 1F 01 6F 1E D5 60  0E 01 00                 ....o..`...     
```

#### Opcodes

```
  0: 0x002A [0x1F] MOVE_ENTITY: EventEntity moves to X=-101.442*, Z=-43.571*, Y=1.000*
  1: 0x0032 [0x1F] MOVE_ENTITY: Update entity position (mode=1)
  2: 0x0034 [0x6F] WAIT_FRAME_DELAY: Yield until WaitTime reaches zero
  3: 0x0035 [0x1E] EventEntity looks at Curilla (ID: 17719509/0x010E60D5) and starts talking
  4: 0x003A [0x00] END_REQSTACK()
```

### Event 65535.4

#### Metadata

| Field        | Value    |
|--------------|----------|
| Entrypoint   | 0x003B   |
| Data Size    | 12 bytes |
| Instructions | 4        |

```
      00 01 02 03 04 05 06 07  08 09 0A 0B 0C 0D 0E 0F
      -- -- -- -- -- -- -- --  -- -- -- -- -- -- -- --
0030:                                   1F 00 0B 80 0C             .....
0040: 80 0D 80 1F 01 6F 00                              .....o.         
```

#### Opcodes

```
  0: 0x003B [0x1F] MOVE_ENTITY: EventEntity moves to X=-86.569*, Z=-27.171*, Y=1.999*
  1: 0x0043 [0x1F] MOVE_ENTITY: Update entity position (mode=1)
  2: 0x0045 [0x6F] WAIT_FRAME_DELAY: Yield until WaitTime reaches zero
  3: 0x0046 [0x00] END_REQSTACK()
```

### Event 65535.5

#### Metadata

| Field        | Value    |
|--------------|----------|
| Entrypoint   | 0x0047   |
| Data Size    | 19 bytes |
| Instructions | 3        |

```
      00 01 02 03 04 05 06 07  08 09 0A 0B 0C 0D 0E 0F
      -- -- -- -- -- -- -- --  -- -- -- -- -- -- -- --
0040:                      66  0E 80 F8 FF FF 7F F8 FF         f........
0050: FF 7F 74 6C 6B 30 1C 0F  80 00                    ..tlk0....      
```

#### Opcodes

```
  0: 0x0047 [0x66] LOAD_EXT_SCHEDULER_MAIN: Load scheduler "tlk0" with entities [EventEntity, EventEntity], work=29*
  1: 0x0056 [0x1C] WAIT(60* ticks)
  2: 0x0059 [0x00] END_REQSTACK()
```

### Event 65535.6

#### Metadata

| Field        | Value   |
|--------------|---------|
| Entrypoint   | 0x005A  |
| Data Size    | 9 bytes |
| Instructions | 3       |

```
      00 01 02 03 04 05 06 07  08 09 0A 0B 0C 0D 0E 0F
      -- -- -- -- -- -- -- --  -- -- -- -- -- -- -- --
0050:                                5E 69 64 6C 30 1C            ^idl0.
0060: 0F 80 00                                          ...             
```

#### Opcodes

```
  0: 0x005A [0x5E] EventEntity goes idle (kills current action) (animation: "idl0")
  1: 0x005F [0x1C] WAIT(60* ticks)
  2: 0x0062 [0x00] END_REQSTACK()
```

### Event 65535.7

#### Metadata

| Field        | Value    |
|--------------|----------|
| Entrypoint   | 0x0063   |
| Data Size    | 19 bytes |
| Instructions | 3        |

```
      00 01 02 03 04 05 06 07  08 09 0A 0B 0C 0D 0E 0F
      -- -- -- -- -- -- -- --  -- -- -- -- -- -- -- --
0060:          66 0E 80 F8 FF  FF 7F F8 FF FF 7F 74 68     f..........th
0070: 6B 31 1C 0F 80 00                                 k1....          
```

#### Opcodes

```
  0: 0x0063 [0x66] LOAD_EXT_SCHEDULER_MAIN: Load scheduler "thk1" with entities [EventEntity, EventEntity], work=29*
  1: 0x0072 [0x1C] WAIT(60* ticks)
  2: 0x0075 [0x00] END_REQSTACK()
```

### Event 65535.8

#### Metadata

| Field        | Value    |
|--------------|----------|
| Entrypoint   | 0x0076   |
| Data Size    | 19 bytes |
| Instructions | 3        |

```
      00 01 02 03 04 05 06 07  08 09 0A 0B 0C 0D 0E 0F
      -- -- -- -- -- -- -- --  -- -- -- -- -- -- -- --
0070:                   66 0E  80 F8 FF FF 7F F8 FF FF        f.........
0080: 7F 74 68 6B 32 1C 0F 80  00                       .thk2....       
```

#### Opcodes

```
  0: 0x0076 [0x66] LOAD_EXT_SCHEDULER_MAIN: Load scheduler "thk2" with entities [EventEntity, EventEntity], work=29*
  1: 0x0085 [0x1C] WAIT(60* ticks)
  2: 0x0088 [0x00] END_REQSTACK()
```
