# 17719367 - Pieuje

## Common Data

| Field            | Value                         |
|------------------|-------------------------------|
| Zone             | Southern San d'Oria (ID: 230) |
| Block Size       | 296 bytes                     |
| Total Events     | 13                            |
| References Count | 17                            |

## List of Events

| Event ID                   | Entrypoint   |   Size |   Instructions |
|----------------------------|--------------|--------|----------------|
| [65535](#event-65535)      | 0x0000       |      1 |              1 |
| [0](#event-0)              | 0x0001       |     23 |              4 |
| [65535.1](#event-655351)   | 0x0018       |     17 |              5 |
| [65535.2](#event-655352)   | 0x0029       |     18 |              6 |
| [65535.3](#event-655353)   | 0x003B       |      6 |              2 |
| [65535.4](#event-655354)   | 0x0041       |     22 |              6 |
| [65535.5](#event-655355)   | 0x0057       |      6 |              2 |
| [65535.6](#event-655356)   | 0x005D       |      6 |              2 |
| [65535.7](#event-655357)   | 0x0063       |      6 |              2 |
| [65535.8](#event-655358)   | 0x0069       |      9 |              3 |
| [65535.9](#event-655359)   | 0x0072       |      9 |              3 |
| [65535.10](#event-6553510) | 0x007B       |      9 |              3 |
| [65535.11](#event-6553511) | 0x0084       |     25 |              7 |

## DAT References (imed_data)

|   Index | Hex Value   |   Dec Value |
|---------|-------------|-------------|
|       0 | 0x000D      |          13 |
|       1 | 0xFFFE7EF0  |  4294868720 |
|       2 | 0x11616     |       71190 |
|       3 | 0x018E      |         398 |
|       4 | 0x05F8      |        1528 |
|       5 | 0xFFFE6FB4  |  4294864820 |
|       6 | 0x10252     |       66130 |
|       7 | 0x001E      |          30 |
|       8 | 0xFFFE6BA3  |  4294863779 |
|       9 | 0xFED9      |       65241 |
|      10 | 0x0615      |        1557 |
|      11 | 0xFFFE9FDD  |  4294877149 |
|      12 | 0xFFFF7B5F  |  4294933343 |
|      13 | 0x07CF      |        1999 |
|      14 | 0x003C      |          60 |
|      15 | 0xFFFEB5C9  |  4294882761 |
|      16 | 0xFFFF9448  |  4294939720 |

## Events

### Event 65535

#### Metadata

| Field        | Value   |
|--------------|---------|
| Entrypoint   | 0x0000  |
| Data Size    | 1 bytes |
| Instructions | 1       |

```
      00 01 02 03 04 05 06 07  08 09 0A 0B 0C 0D 0E 0F
      -- -- -- -- -- -- -- --  -- -- -- -- -- -- -- --
0000: 00                                                .               
```

#### Opcodes

```
  0: 0x0000 [0x00] END_REQSTACK()
```

### Event 0

#### Metadata

| Field        | Value    |
|--------------|----------|
| Entrypoint   | 0x0001   |
| Data Size    | 23 bytes |
| Instructions | 4        |

```
      00 01 02 03 04 05 06 07  08 09 0A 0B 0C 0D 0E 0F
      -- -- -- -- -- -- -- --  -- -- -- -- -- -- -- --
0000:    32 00 80 79 00 F8 FF  FF 7F 43 60 0E 01 37 01   2..y.....C`..7.
0010: 80 02 80 03 80 04 80 00                           ........        
```

#### Opcodes

```
  0: 0x0001 [0x32] ExtData[1]->MainSpeed = 13* * 0.1
  1: 0x0004 [0x79] EventEntity looks at Destin (ID: 17719363/0x010E6043) (Basic look)
  2: 0x000E [0x37] UPDATE_EVENT_POSITION_AND_DIR: x=-98.576*, z=71.190*, y=0.398*, direction=134.3°*
  3: 0x0017 [0x00] END_REQSTACK()
```

### Event 65535.1

#### Metadata

| Field        | Value    |
|--------------|----------|
| Entrypoint   | 0x0018   |
| Data Size    | 17 bytes |
| Instructions | 5        |

```
      00 01 02 03 04 05 06 07  08 09 0A 0B 0C 0D 0E 0F
      -- -- -- -- -- -- -- --  -- -- -- -- -- -- -- --
0010:                          1F 00 05 80 06 80 03 80          ........
0020: 1F 01 6F 1E 43 60 0E 01  00                       ..o.C`...       
```

#### Opcodes

```
  0: 0x0018 [0x1F] MOVE_ENTITY: EventEntity moves to X=-102.476*, Z=66.130*, Y=0.398*
  1: 0x0020 [0x1F] MOVE_ENTITY: Update entity position (mode=1)
  2: 0x0022 [0x6F] WAIT_FRAME_DELAY: Yield until WaitTime reaches zero
  3: 0x0023 [0x1E] EventEntity looks at Destin (ID: 17719363/0x010E6043) and starts talking
  4: 0x0028 [0x00] END_REQSTACK()
```

### Event 65535.2

#### Metadata

| Field        | Value    |
|--------------|----------|
| Entrypoint   | 0x0029   |
| Data Size    | 18 bytes |
| Instructions | 6        |

```
      00 01 02 03 04 05 06 07  08 09 0A 0B 0C 0D 0E 0F
      -- -- -- -- -- -- -- --  -- -- -- -- -- -- -- --
0020:                             1C 07 80 1F 00 08 80           .......
0030: 09 80 03 80 1F 01 6F 39  0A 80 00                 ......o9...     
```

#### Opcodes

```
  0: 0x0029 [0x1C] WAIT(30* ticks)
  1: 0x002C [0x1F] MOVE_ENTITY: EventEntity moves to X=-103.517*, Z=65.241*, Y=0.398*
  2: 0x0034 [0x1F] MOVE_ENTITY: Update entity position (mode=1)
  3: 0x0036 [0x6F] WAIT_FRAME_DELAY: Yield until WaitTime reaches zero
  4: 0x0037 [0x39] SET_ENTITY_DIRECTION(direction=8.6°*)
  5: 0x003A [0x00] END_REQSTACK()
```

### Event 65535.3

#### Metadata

| Field        | Value   |
|--------------|---------|
| Entrypoint   | 0x003B  |
| Data Size    | 6 bytes |
| Instructions | 2       |

```
      00 01 02 03 04 05 06 07  08 09 0A 0B 0C 0D 0E 0F
      -- -- -- -- -- -- -- --  -- -- -- -- -- -- -- --
0030:                                   5E 69 64 6C 30             ^idl0
0040: 00                                                .               
```

#### Opcodes

```
  0: 0x003B [0x5E] EventEntity goes idle (kills current action) (animation: "idl0")
  1: 0x0040 [0x00] END_REQSTACK()
```

### Event 65535.4

#### Metadata

| Field        | Value    |
|--------------|----------|
| Entrypoint   | 0x0041   |
| Data Size    | 22 bytes |
| Instructions | 6        |

```
      00 01 02 03 04 05 06 07  08 09 0A 0B 0C 0D 0E 0F
      -- -- -- -- -- -- -- --  -- -- -- -- -- -- -- --
0040:    2F 00 47 60 0E 01 22  00 32 00 80 1F 00 0B 80   /.G`..".2......
0050: 0C 80 0D 80 1F 01 00                              .......         
```

#### Opcodes

```
  0: 0x0041 [0x2F] Pieuje (ID: 17719367/0x010E6047)->Render.Flags0 &= ~0x80000 // Bit 19
  1: 0x0047 [0x22] ENTITY_HIDE_FLAG(enabled=0x00)
  2: 0x0049 [0x32] ExtData[1]->MainSpeed = 13* * 0.1
  3: 0x004C [0x1F] MOVE_ENTITY: EventEntity moves to X=-90.147*, Z=-33.953*, Y=1.999*
  4: 0x0054 [0x1F] MOVE_ENTITY: Update entity position (mode=1)
  5: 0x0056 [0x00] END_REQSTACK()
```

### Event 65535.5

#### Metadata

| Field        | Value   |
|--------------|---------|
| Entrypoint   | 0x0057  |
| Data Size    | 6 bytes |
| Instructions | 2       |

```
      00 01 02 03 04 05 06 07  08 09 0A 0B 0C 0D 0E 0F
      -- -- -- -- -- -- -- --  -- -- -- -- -- -- -- --
0050:                      1E  01 60 0E 01 00                  ..`...   
```

#### Opcodes

```
  0: 0x0057 [0x1E] EventEntity looks at Ceraule (ID: 17719297/0x010E6001) and starts talking
  1: 0x005C [0x00] END_REQSTACK()
```

### Event 65535.6

#### Metadata

| Field        | Value   |
|--------------|---------|
| Entrypoint   | 0x005D  |
| Data Size    | 6 bytes |
| Instructions | 2       |

```
      00 01 02 03 04 05 06 07  08 09 0A 0B 0C 0D 0E 0F
      -- -- -- -- -- -- -- --  -- -- -- -- -- -- -- --
0050:                                         1E F0 FF               ...
0060: FF 7F 00                                          ...             
```

#### Opcodes

```
  0: 0x005D [0x1E] EventEntity looks at LocalPlayer and starts talking
  1: 0x0062 [0x00] END_REQSTACK()
```

### Event 65535.7

#### Metadata

| Field        | Value   |
|--------------|---------|
| Entrypoint   | 0x0063  |
| Data Size    | 6 bytes |
| Instructions | 2       |

```
      00 01 02 03 04 05 06 07  08 09 0A 0B 0C 0D 0E 0F
      -- -- -- -- -- -- -- --  -- -- -- -- -- -- -- --
0060:          1E 45 60 0E 01  00                          .E`...       
```

#### Opcodes

```
  0: 0x0063 [0x1E] EventEntity looks at Trion (ID: 17719365/0x010E6045) and starts talking
  1: 0x0068 [0x00] END_REQSTACK()
```

### Event 65535.8

#### Metadata

| Field        | Value   |
|--------------|---------|
| Entrypoint   | 0x0069  |
| Data Size    | 9 bytes |
| Instructions | 3       |

```
      00 01 02 03 04 05 06 07  08 09 0A 0B 0C 0D 0E 0F
      -- -- -- -- -- -- -- --  -- -- -- -- -- -- -- --
0060:                             1C 0E 80 1E 01 60 0E           .....`.
0070: 01 00                                             ..              
```

#### Opcodes

```
  0: 0x0069 [0x1C] WAIT(60* ticks)
  1: 0x006C [0x1E] EventEntity looks at Ceraule (ID: 17719297/0x010E6001) and starts talking
  2: 0x0071 [0x00] END_REQSTACK()
```

### Event 65535.9

#### Metadata

| Field        | Value   |
|--------------|---------|
| Entrypoint   | 0x0072  |
| Data Size    | 9 bytes |
| Instructions | 3       |

```
      00 01 02 03 04 05 06 07  08 09 0A 0B 0C 0D 0E 0F
      -- -- -- -- -- -- -- --  -- -- -- -- -- -- -- --
0070:       1C 0E 80 1E F0 FF  FF 7F 00                   .........     
```

#### Opcodes

```
  0: 0x0072 [0x1C] WAIT(60* ticks)
  1: 0x0075 [0x1E] EventEntity looks at LocalPlayer and starts talking
  2: 0x007A [0x00] END_REQSTACK()
```

### Event 65535.10

#### Metadata

| Field        | Value   |
|--------------|---------|
| Entrypoint   | 0x007B  |
| Data Size    | 9 bytes |
| Instructions | 3       |

```
      00 01 02 03 04 05 06 07  08 09 0A 0B 0C 0D 0E 0F
      -- -- -- -- -- -- -- --  -- -- -- -- -- -- -- --
0070:                                   1C 0E 80 1E 45             ....E
0080: 60 0E 01 00                                       `...            
```

#### Opcodes

```
  0: 0x007B [0x1C] WAIT(60* ticks)
  1: 0x007E [0x1E] EventEntity looks at Trion (ID: 17719365/0x010E6045) and starts talking
  2: 0x0083 [0x00] END_REQSTACK()
```

### Event 65535.11

#### Metadata

| Field        | Value    |
|--------------|----------|
| Entrypoint   | 0x0084   |
| Data Size    | 25 bytes |
| Instructions | 7        |

```
      00 01 02 03 04 05 06 07  08 09 0A 0B 0C 0D 0E 0F
      -- -- -- -- -- -- -- --  -- -- -- -- -- -- -- --
0080:             32 00 80 1C  0E 80 1F 00 0F 80 10 80      2...........
0090: 0D 80 1F 01 2F 01 47 60  0E 01 22 01 00           ..../.G`.."..   
```

#### Opcodes

```
  0: 0x0084 [0x32] ExtData[1]->MainSpeed = 13* * 0.1
  1: 0x0087 [0x1C] WAIT(60* ticks)
  2: 0x008A [0x1F] MOVE_ENTITY: EventEntity moves to X=-84.535*, Z=-27.576*, Y=1.999*
  3: 0x0092 [0x1F] MOVE_ENTITY: Update entity position (mode=1)
  4: 0x0094 [0x2F] Pieuje (ID: 17719367/0x010E6047)->Render.Flags0 |= 0x80000 // Bit 19
  5: 0x009A [0x22] ENTITY_HIDE_FLAG(enabled=0x01)
  6: 0x009C [0x00] END_REQSTACK()
```
