# 17719828

## Common Data

| Field            | Value                         |
|------------------|-------------------------------|
| Zone             | Southern San d'Oria (ID: 230) |
| Block Size       | 148 bytes                     |
| Total Events     | 8                             |
| References Count | 4                             |

## List of Events

| Event ID                 | Entrypoint   |   Size |   Instructions |
|--------------------------|--------------|--------|----------------|
| [65535](#event-65535)    | 0x0000       |      1 |              1 |
| [897](#event-897)        | 0x0001       |      3 |              2 |
| [65535.1](#event-655351) | 0x0004       |     13 |              4 |
| [65535.2](#event-655352) | 0x0011       |     13 |              4 |
| [65535.3](#event-655353) | 0x001E       |     13 |              4 |
| [65535.4](#event-655354) | 0x002B       |     13 |              4 |
| [65535.5](#event-655355) | 0x0038       |     13 |              4 |
| [65535.6](#event-655356) | 0x0045       |     13 |              4 |

## DAT References (imed_data)

|   Index | Hex Value   |   Dec Value |
|---------|-------------|-------------|
|       0 | 0x000E      |          14 |
|       1 | 0x0010      |          16 |
|       2 | 0x0064      |         100 |
|       3 | 0x0017      |          23 |

## Events

### Event 65535

#### Metadata

| Field        | Value   |
|--------------|---------|
| Entrypoint   | 0x0000  |
| Data Size    | 1 bytes |
| Instructions | 1       |

```
      00 01 02 03 04 05 06 07  08 09 0A 0B 0C 0D 0E 0F
      -- -- -- -- -- -- -- --  -- -- -- -- -- -- -- --
0000: 00                                                .               
```

#### Opcodes

```
  0: 0x0000 [0x00] END_REQSTACK()
```

### Event 897

#### Metadata

| Field        | Value   |
|--------------|---------|
| Entrypoint   | 0x0001  |
| Data Size    | 3 bytes |
| Instructions | 2       |

```
      00 01 02 03 04 05 06 07  08 09 0A 0B 0C 0D 0E 0F
      -- -- -- -- -- -- -- --  -- -- -- -- -- -- -- --
0000:    A4 01 00                                        ...            
```

#### Opcodes

```
  0: 0x0001 [0xA4] EventEntity->Flags3.unknown_3_2 = 1
  1: 0x0003 [0x00] END_REQSTACK()
```

### Event 65535.1

#### Metadata

| Field        | Value    |
|--------------|----------|
| Entrypoint   | 0x0004   |
| Data Size    | 13 bytes |
| Instructions | 4        |

```
      00 01 02 03 04 05 06 07  08 09 0A 0B 0C 0D 0E 0F
      -- -- -- -- -- -- -- --  -- -- -- -- -- -- -- --
0000:             B6 03 00 80  B6 05 00 80 B6 07 01 80      ............
0010: 00                                                .               
```

#### Opcodes

```
  0: 0x0004 [0xB6] ENTITY_APPEARANCE_HANDLER(case=Head, value=14*)
  1: 0x0008 [0xB6] ENTITY_APPEARANCE_HANDLER(case=Hands, value=14*)
  2: 0x000C [0xB6] ENTITY_APPEARANCE_HANDLER(case=Feet, value=16*)
  3: 0x0010 [0x00] END_REQSTACK()
```

### Event 65535.2

#### Metadata

| Field        | Value    |
|--------------|----------|
| Entrypoint   | 0x0011   |
| Data Size    | 13 bytes |
| Instructions | 4        |

```
      00 01 02 03 04 05 06 07  08 09 0A 0B 0C 0D 0E 0F
      -- -- -- -- -- -- -- --  -- -- -- -- -- -- -- --
0010:    B6 03 00 80 B6 05 02  80 B6 07 00 80 00         .............  
```

#### Opcodes

```
  0: 0x0011 [0xB6] ENTITY_APPEARANCE_HANDLER(case=Head, value=14*)
  1: 0x0015 [0xB6] ENTITY_APPEARANCE_HANDLER(case=Hands, value=100*)
  2: 0x0019 [0xB6] ENTITY_APPEARANCE_HANDLER(case=Feet, value=14*)
  3: 0x001D [0x00] END_REQSTACK()
```

### Event 65535.3

#### Metadata

| Field        | Value    |
|--------------|----------|
| Entrypoint   | 0x001E   |
| Data Size    | 13 bytes |
| Instructions | 4        |

```
      00 01 02 03 04 05 06 07  08 09 0A 0B 0C 0D 0E 0F
      -- -- -- -- -- -- -- --  -- -- -- -- -- -- -- --
0010:                                            B6 03                ..
0020: 03 80 B6 05 00 80 B6 07  00 80 00                 ...........     
```

#### Opcodes

```
  0: 0x001E [0xB6] ENTITY_APPEARANCE_HANDLER(case=Head, value=23*)
  1: 0x0022 [0xB6] ENTITY_APPEARANCE_HANDLER(case=Hands, value=14*)
  2: 0x0026 [0xB6] ENTITY_APPEARANCE_HANDLER(case=Feet, value=14*)
  3: 0x002A [0x00] END_REQSTACK()
```

### Event 65535.4

#### Metadata

| Field        | Value    |
|--------------|----------|
| Entrypoint   | 0x002B   |
| Data Size    | 13 bytes |
| Instructions | 4        |

```
      00 01 02 03 04 05 06 07  08 09 0A 0B 0C 0D 0E 0F
      -- -- -- -- -- -- -- --  -- -- -- -- -- -- -- --
0020:                                   B6 03 00 80 B6             .....
0030: 05 00 80 B6 07 02 80 00                           ........        
```

#### Opcodes

```
  0: 0x002B [0xB6] ENTITY_APPEARANCE_HANDLER(case=Head, value=14*)
  1: 0x002F [0xB6] ENTITY_APPEARANCE_HANDLER(case=Hands, value=14*)
  2: 0x0033 [0xB6] ENTITY_APPEARANCE_HANDLER(case=Feet, value=100*)
  3: 0x0037 [0x00] END_REQSTACK()
```

### Event 65535.5

#### Metadata

| Field        | Value    |
|--------------|----------|
| Entrypoint   | 0x0038   |
| Data Size    | 13 bytes |
| Instructions | 4        |

```
      00 01 02 03 04 05 06 07  08 09 0A 0B 0C 0D 0E 0F
      -- -- -- -- -- -- -- --  -- -- -- -- -- -- -- --
0030:                          B6 03 00 80 B6 05 01 80          ........
0040: B6 07 00 80 00                                    .....           
```

#### Opcodes

```
  0: 0x0038 [0xB6] ENTITY_APPEARANCE_HANDLER(case=Head, value=14*)
  1: 0x003C [0xB6] ENTITY_APPEARANCE_HANDLER(case=Hands, value=16*)
  2: 0x0040 [0xB6] ENTITY_APPEARANCE_HANDLER(case=Feet, value=14*)
  3: 0x0044 [0x00] END_REQSTACK()
```

### Event 65535.6

#### Metadata

| Field        | Value    |
|--------------|----------|
| Entrypoint   | 0x0045   |
| Data Size    | 13 bytes |
| Instructions | 4        |

```
      00 01 02 03 04 05 06 07  08 09 0A 0B 0C 0D 0E 0F
      -- -- -- -- -- -- -- --  -- -- -- -- -- -- -- --
0040:                B6 03 02  80 B6 05 00 80 B6 07 00       ...........
0050: 80 00                                             ..              
```

#### Opcodes

```
  0: 0x0045 [0xB6] ENTITY_APPEARANCE_HANDLER(case=Head, value=100*)
  1: 0x0049 [0xB6] ENTITY_APPEARANCE_HANDLER(case=Hands, value=14*)
  2: 0x004D [0xB6] ENTITY_APPEARANCE_HANDLER(case=Feet, value=14*)
  3: 0x0051 [0x00] END_REQSTACK()
```
