# 17719372 - Celyddon

## Common Data

| Field            | Value                         |
|------------------|-------------------------------|
| Zone             | Southern San d'Oria (ID: 230) |
| Block Size       | 264 bytes                     |
| Total Events     | 4                             |
| References Count | 8                             |

## List of Events

| Event ID              | Entrypoint   |   Size |   Instructions |
|-----------------------|--------------|--------|----------------|
| [65535](#event-65535) | 0x0000       |      1 |              1 |
| [618](#event-618)     | 0x0001       |     73 |             17 |
| [619](#event-619)     | 0x004A       |     59 |             11 |
| [620](#event-620)     | 0x0085       |     64 |             12 |

## DAT References (imed_data)

|   Index | Hex Value   |   Dec Value |
|---------|-------------|-------------|
|       0 | 0x0000      |           0 |
|       1 | 0x2015      |        8213 |
|       2 | 0x001E      |          30 |
|       3 | 0x2016      |        8214 |
|       4 | 0x2017      |        8215 |
|       5 | 0x2018      |        8216 |
|       6 | 0x03AC      |         940 |
|       7 | 0x2019      |        8217 |

## String References

- **8213**: I'm looking for a former examiner. I heard he lived around here...
- **8214**: You've never heard of examiners? Look, in order to become a knight, you have to pass a trial. The examiners judge your worth.
- **8215**: But Southern San d'Oria's streets are so confusing. I hear they were built this way to thwart invaders!
- **8216**: Say, I found the examiner I was looking for! But he would only talk of taking up the sword. Why won't he test me?
- **8217**: The examiner finally offered me a task. He wants $0, but he won't tell me how to get one! Keeps saying I should use my head...

## Events

### Event 65535

#### Metadata

| Field        | Value   |
|--------------|---------|
| Entrypoint   | 0x0000  |
| Data Size    | 1 bytes |
| Instructions | 1       |

```
      00 01 02 03 04 05 06 07  08 09 0A 0B 0C 0D 0E 0F
      -- -- -- -- -- -- -- --  -- -- -- -- -- -- -- --
0000: 00                                                .               
```

#### Opcodes

```
  0: 0x0000 [0x00] END_REQSTACK()
```

### Event 618

#### Metadata

| Field        | Value    |
|--------------|----------|
| Entrypoint   | 0x0001   |
| Data Size    | 73 bytes |
| Instructions | 17       |

```
      00 01 02 03 04 05 06 07  08 09 0A 0B 0C 0D 0E 0F
      -- -- -- -- -- -- -- --  -- -- -- -- -- -- -- --
0000:    1E F0 FF FF 7F 6F 70  66 00 80 F8 FF FF 7F F8   .....opf.......
0010: FF FF 7F 74 6C 6B 30 1D  01 80 23 1C 02 80 1D 03  ...tlk0...#.....
0020: 80 23 1C 02 80 1D 04 80  23 66 00 80 F8 FF FF 7F  .#......#f......
0030: F8 FF FF 7F 74 65 6E 30  53 F8 FF FF 7F F8 FF FF  ....ten0S.......
0040: 7F 74 65 6E 30 1C 02 80  21 00                    .ten0...!.      
```

#### Opcodes

```
  0: 0x0001 [0x1E] EventEntity looks at LocalPlayer and starts talking
  1: 0x0006 [0x6F] WAIT_FRAME_DELAY: Yield until WaitTime reaches zero
  2: 0x0007 [0x70] WAIT_ENTITY_RENDER_FLAG: Wait while EventEntity->Render.Flags3 bit 2 is set (cancel turn if not)
  3: 0x0008 [0x66] LOAD_EXT_SCHEDULER_MAIN: Load scheduler "tlk0" with entities [EventEntity, EventEntity], work=0*
  4: 0x0017 [0x1D] PRINT_EVENT_MESSAGE(message_id=8213*)
    → "I'm looking for a former examiner. I heard he lived around here..."
  5: 0x001A [0x23] WAIT_FOR_DIALOG_INTERACTION
  6: 0x001B [0x1C] WAIT(30* ticks)
  7: 0x001E [0x1D] PRINT_EVENT_MESSAGE(message_id=8214*)
    → "You've never heard of examiners? Look, in order to become a knight, you have to pass a trial. The examiners judge your worth."
  8: 0x0021 [0x23] WAIT_FOR_DIALOG_INTERACTION
  9: 0x0022 [0x1C] WAIT(30* ticks)
 10: 0x0025 [0x1D] PRINT_EVENT_MESSAGE(message_id=8215*)
    → "But Southern San d'Oria's streets are so confusing. I hear they were built this way to thwart invaders!"
 11: 0x0028 [0x23] WAIT_FOR_DIALOG_INTERACTION
 12: 0x0029 [0x66] LOAD_EXT_SCHEDULER_MAIN: Load scheduler "ten0" with entities [EventEntity, EventEntity], work=0*
 13: 0x0038 [0x53] WAIT_SCHEDULER_TASK: Wait for scheduler "ten0" with entities [EventEntity, EventEntity]
 14: 0x0045 [0x1C] WAIT(30* ticks)
 15: 0x0048 [0x21] END_EVENT
 16: 0x0049 [0x00] END_REQSTACK()
```

### Event 619

#### Metadata

| Field        | Value    |
|--------------|----------|
| Entrypoint   | 0x004A   |
| Data Size    | 59 bytes |
| Instructions | 11       |

```
      00 01 02 03 04 05 06 07  08 09 0A 0B 0C 0D 0E 0F
      -- -- -- -- -- -- -- --  -- -- -- -- -- -- -- --
0040:                                1E F0 FF FF 7F 6F            .....o
0050: 70 66 00 80 F8 FF FF 7F  F8 FF FF 7F 74 6C 6B 31  pf..........tlk1
0060: 1D 05 80 23 66 00 80 F8  FF FF 7F F8 FF FF 7F 74  ...#f..........t
0070: 65 6E 31 53 F8 FF FF 7F  F8 FF FF 7F 74 65 6E 31  en1S........ten1
0080: 1C 02 80 21 00                                    ...!.           
```

#### Opcodes

```
  0: 0x004A [0x1E] EventEntity looks at LocalPlayer and starts talking
  1: 0x004F [0x6F] WAIT_FRAME_DELAY: Yield until WaitTime reaches zero
  2: 0x0050 [0x70] WAIT_ENTITY_RENDER_FLAG: Wait while EventEntity->Render.Flags3 bit 2 is set (cancel turn if not)
  3: 0x0051 [0x66] LOAD_EXT_SCHEDULER_MAIN: Load scheduler "tlk1" with entities [EventEntity, EventEntity], work=0*
  4: 0x0060 [0x1D] PRINT_EVENT_MESSAGE(message_id=8216*)
    → "Say, I found the examiner I was looking for! But he would only talk of taking up the sword. Why won't he test me?"
  5: 0x0063 [0x23] WAIT_FOR_DIALOG_INTERACTION
  6: 0x0064 [0x66] LOAD_EXT_SCHEDULER_MAIN: Load scheduler "ten1" with entities [EventEntity, EventEntity], work=0*
  7: 0x0073 [0x53] WAIT_SCHEDULER_TASK: Wait for scheduler "ten1" with entities [EventEntity, EventEntity]
  8: 0x0080 [0x1C] WAIT(30* ticks)
  9: 0x0083 [0x21] END_EVENT
 10: 0x0084 [0x00] END_REQSTACK()
```

### Event 620

#### Metadata

| Field        | Value    |
|--------------|----------|
| Entrypoint   | 0x0085   |
| Data Size    | 64 bytes |
| Instructions | 12       |

```
      00 01 02 03 04 05 06 07  08 09 0A 0B 0C 0D 0E 0F
      -- -- -- -- -- -- -- --  -- -- -- -- -- -- -- --
0080:                1E F0 FF  FF 7F 6F 70 66 00 80 F8       .....opf...
0090: FF FF 7F F8 FF FF 7F 74  6C 6B 30 03 02 10 06 80  .......tlk0.....
00A0: 1D 07 80 23 66 00 80 F8  FF FF 7F F8 FF FF 7F 74  ...#f..........t
00B0: 65 6E 30 53 F8 FF FF 7F  F8 FF FF 7F 74 65 6E 30  en0S........ten0
00C0: 1C 02 80 21 00                                    ...!.           
```

#### Opcodes

```
  0: 0x0085 [0x1E] EventEntity looks at LocalPlayer and starts talking
  1: 0x008A [0x6F] WAIT_FRAME_DELAY: Yield until WaitTime reaches zero
  2: 0x008B [0x70] WAIT_ENTITY_RENDER_FLAG: Wait while EventEntity->Render.Flags3 bit 2 is set (cancel turn if not)
  3: 0x008C [0x66] LOAD_EXT_SCHEDULER_MAIN: Load scheduler "tlk0" with entities [EventEntity, EventEntity], work=0*
  4: 0x009B [0x03] Work_Zone[2] = 940*
  5: 0x00A0 [0x1D] PRINT_EVENT_MESSAGE(message_id=8217*)
    → "The examiner finally offered me a task. He wants $0, but he won't tell me how to get one! Keeps saying I should use my head..."
  6: 0x00A3 [0x23] WAIT_FOR_DIALOG_INTERACTION
  7: 0x00A4 [0x66] LOAD_EXT_SCHEDULER_MAIN: Load scheduler "ten0" with entities [EventEntity, EventEntity], work=0*
  8: 0x00B3 [0x53] WAIT_SCHEDULER_TASK: Wait for scheduler "ten0" with entities [EventEntity, EventEntity]
  9: 0x00C0 [0x1C] WAIT(30* ticks)
 10: 0x00C3 [0x21] END_EVENT
 11: 0x00C4 [0x00] END_REQSTACK()
```
