# 17719423 - Open8

## Common Data

| Field            | Value                         |
|------------------|-------------------------------|
| Zone             | Southern San d'Oria (ID: 230) |
| Block Size       | 96 bytes                      |
| Total Events     | 3                             |
| References Count | 8                             |

## List of Events

| Event ID                 | Entrypoint   |   Size |   Instructions |
|--------------------------|--------------|--------|----------------|
| [65535](#event-65535)    | 0x0000       |      1 |              1 |
| [503](#event-503)        | 0x0001       |      1 |              1 |
| [65535.1](#event-655351) | 0x0002       |     31 |              7 |

## DAT References (imed_data)

|   Index | Hex Value   |   Dec Value |
|---------|-------------|-------------|
|       0 | 0x001E      |          30 |
|       1 | 0x0069      |         105 |
|       2 | 0xFFFFA412  |  4294943762 |
|       3 | 0x07CF      |        1999 |
|       4 | 0x0BF6      |        3062 |
|       5 | 0x03C8      |         968 |
|       6 | 0xAB28      |       43816 |
|       7 | 0xFFFFF830  |  4294965296 |

## Events

### Event 65535

#### Metadata

| Field        | Value   |
|--------------|---------|
| Entrypoint   | 0x0000  |
| Data Size    | 1 bytes |
| Instructions | 1       |

```
      00 01 02 03 04 05 06 07  08 09 0A 0B 0C 0D 0E 0F
      -- -- -- -- -- -- -- --  -- -- -- -- -- -- -- --
0000: 00                                                .               
```

#### Opcodes

```
  0: 0x0000 [0x00] END_REQSTACK()
```

### Event 503

#### Metadata

| Field        | Value   |
|--------------|---------|
| Entrypoint   | 0x0001  |
| Data Size    | 1 bytes |
| Instructions | 1       |

```
      00 01 02 03 04 05 06 07  08 09 0A 0B 0C 0D 0E 0F
      -- -- -- -- -- -- -- --  -- -- -- -- -- -- -- --
0000:    00                                              .              
```

#### Opcodes

```
  0: 0x0001 [0x00] END_REQSTACK()
```

### Event 65535.1

#### Metadata

| Field        | Value    |
|--------------|----------|
| Entrypoint   | 0x0002   |
| Data Size    | 31 bytes |
| Instructions | 7        |

```
      00 01 02 03 04 05 06 07  08 09 0A 0B 0C 0D 0E 0F
      -- -- -- -- -- -- -- --  -- -- -- -- -- -- -- --
0000:       2F 00 7F 60 0E 01  22 00 32 00 80 37 01 80    /..`..".2..7..
0010: 02 80 03 80 04 80 1F 00  05 80 06 80 07 80 1F 01  ................
0020: 00                                                .               
```

#### Opcodes

```
  0: 0x0002 [0x2F] Open8 (ID: 17719423/0x010E607F)->Render.Flags0 &= ~0x80000 // Bit 19
  1: 0x0008 [0x22] ENTITY_HIDE_FLAG(enabled=0x00)
  2: 0x000A [0x32] ExtData[1]->MainSpeed = 30* * 0.1
  3: 0x000D [0x37] UPDATE_EVENT_POSITION_AND_DIR: x=0.105*, z=-23.534*, y=1.999*, direction=269.1°*
  4: 0x0016 [0x1F] MOVE_ENTITY: EventEntity moves to X=0.968*, Z=43.816*, Y=-2.000*
  5: 0x001E [0x1F] MOVE_ENTITY: Update entity position (mode=1)
  6: 0x0020 [0x00] END_REQSTACK()
```
