# 17719829

## Common Data

| Field            | Value                         |
|------------------|-------------------------------|
| Zone             | Southern San d'Oria (ID: 230) |
| Block Size       | 240 bytes                     |
| Total Events     | 5                             |
| References Count | 15                            |

## List of Events

| Event ID                 | Entrypoint   |   Size |   Instructions |
|--------------------------|--------------|--------|----------------|
| [65535](#event-65535)    | 0x0000       |      1 |              1 |
| [897](#event-897)        | 0x0001       |      1 |              1 |
| [65535.1](#event-655351) | 0x0002       |     28 |              7 |
| [65535.2](#event-655352) | 0x001E       |     56 |             14 |
| [65535.3](#event-655353) | 0x0056       |     56 |             14 |

## DAT References (imed_data)

|   Index | Hex Value   |   Dec Value |
|---------|-------------|-------------|
|       0 | 0x0000      |           0 |
|       1 | 0x000D      |          13 |
|       2 | 0x0028      |          40 |
|       3 | 0xFFFD91DA  |  4294808026 |
|       4 | 0xED9F      |       60831 |
|       5 | 0xFFFFF830  |  4294965296 |
|       6 | 0xFFFDDAB0  |  4294826672 |
|       7 | 0x2C63      |       11363 |
|       8 | 0xFFFFDDA0  |  4294958496 |
|       9 | 0x003C      |          60 |
|      10 | 0x001E      |          30 |
|      11 | 0xFFFDD83D  |  4294826045 |
|      12 | 0x2BFD      |       11261 |
|      13 | 0xFFFDD557  |  4294825303 |
|      14 | 0x2C83      |       11395 |

## Events

### Event 65535

#### Metadata

| Field        | Value   |
|--------------|---------|
| Entrypoint   | 0x0000  |
| Data Size    | 1 bytes |
| Instructions | 1       |

```
      00 01 02 03 04 05 06 07  08 09 0A 0B 0C 0D 0E 0F
      -- -- -- -- -- -- -- --  -- -- -- -- -- -- -- --
0000: 00                                                .               
```

#### Opcodes

```
  0: 0x0000 [0x00] END_REQSTACK()
```

### Event 897

#### Metadata

| Field        | Value   |
|--------------|---------|
| Entrypoint   | 0x0001  |
| Data Size    | 1 bytes |
| Instructions | 1       |

```
      00 01 02 03 04 05 06 07  08 09 0A 0B 0C 0D 0E 0F
      -- -- -- -- -- -- -- --  -- -- -- -- -- -- -- --
0000:    00                                              .              
```

#### Opcodes

```
  0: 0x0001 [0x00] END_REQSTACK()
```

### Event 65535.1

#### Metadata

| Field        | Value    |
|--------------|----------|
| Entrypoint   | 0x0002   |
| Data Size    | 28 bytes |
| Instructions | 7        |

```
      00 01 02 03 04 05 06 07  08 09 0A 0B 0C 0D 0E 0F
      -- -- -- -- -- -- -- --  -- -- -- -- -- -- -- --
0000:       02 53 10 00 80 00  10 00 32 01 80 01 13 00    .S......2.....
0010: 32 02 80 1F 00 03 80 04  80 05 80 1F 01 00        2.............  
```

#### Opcodes

```
  0: 0x0002 [0x02] IF !(Work_Zone[83] == 0*) GOTO 0x0010
  1: 0x000A [0x32] ExtData[1]->MainSpeed = 13* * 0.1
  2: 0x000D [0x01] GOTO 0x0013
  3: 0x0010 [0x32] ExtData[1]->MainSpeed = 40* * 0.1

SUBROUTINE_0013:
  4: 0x0013 [0x1F] MOVE_ENTITY: EventEntity moves to X=-159.270*, Z=60.831*, Y=-2.000*
  5: 0x001B [0x1F] MOVE_ENTITY: Update entity position (mode=1)
  6: 0x001D [0x00] END_REQSTACK()
```

### Event 65535.2

#### Metadata

| Field        | Value    |
|--------------|----------|
| Entrypoint   | 0x001E   |
| Data Size    | 56 bytes |
| Instructions | 14       |

```
      00 01 02 03 04 05 06 07  08 09 0A 0B 0C 0D 0E 0F
      -- -- -- -- -- -- -- --  -- -- -- -- -- -- -- --
0010:                                            02 53                .S
0020: 10 00 80 00 2C 00 32 01  80 01 2F 00 32 02 80 1F  ....,.2.../.2...
0030: 00 06 80 07 80 08 80 1F  01 6F 02 53 10 00 80 00  .........o.S....
0040: 48 00 1C 09 80 01 4B 00  1C 0A 80 1F 00 0B 80 0C  H.....K.........
0050: 80 08 80 1F 01 00                                 ......          
```

#### Opcodes

```
  0: 0x001E [0x02] IF !(Work_Zone[83] == 0*) GOTO 0x002C
  1: 0x0026 [0x32] ExtData[1]->MainSpeed = 13* * 0.1
  2: 0x0029 [0x01] GOTO 0x002F
  3: 0x002C [0x32] ExtData[1]->MainSpeed = 40* * 0.1

SUBROUTINE_002F:
  4: 0x002F [0x1F] MOVE_ENTITY: EventEntity moves to X=-140.624*, Z=11.363*, Y=-8.800*
  5: 0x0037 [0x1F] MOVE_ENTITY: Update entity position (mode=1)
  6: 0x0039 [0x6F] WAIT_FRAME_DELAY: Yield until WaitTime reaches zero
  7: 0x003A [0x02] IF !(Work_Zone[83] == 0*) GOTO 0x0048
  8: 0x0042 [0x1C] WAIT(60* ticks)
  9: 0x0045 [0x01] GOTO 0x004B
 10: 0x0048 [0x1C] WAIT(30* ticks)

SUBROUTINE_004B:
 11: 0x004B [0x1F] MOVE_ENTITY: EventEntity moves to X=-141.251*, Z=11.261*, Y=-8.800*
 12: 0x0053 [0x1F] MOVE_ENTITY: Update entity position (mode=1)
 13: 0x0055 [0x00] END_REQSTACK()
```

### Event 65535.3

#### Metadata

| Field        | Value    |
|--------------|----------|
| Entrypoint   | 0x0056   |
| Data Size    | 56 bytes |
| Instructions | 14       |

```
      00 01 02 03 04 05 06 07  08 09 0A 0B 0C 0D 0E 0F
      -- -- -- -- -- -- -- --  -- -- -- -- -- -- -- --
0050:                   02 53  10 00 80 00 64 00 32 01        .S....d.2.
0060: 80 01 67 00 32 02 80 1F  00 0D 80 0E 80 08 80 1F  ..g.2...........
0070: 01 6F 02 53 10 00 80 00  80 00 1C 09 80 01 83 00  .o.S............
0080: 1C 0A 80 1F 00 0B 80 0C  80 08 80 1F 01 00        ..............  
```

#### Opcodes

```
  0: 0x0056 [0x02] IF !(Work_Zone[83] == 0*) GOTO 0x0064
  1: 0x005E [0x32] ExtData[1]->MainSpeed = 13* * 0.1
  2: 0x0061 [0x01] GOTO 0x0067
  3: 0x0064 [0x32] ExtData[1]->MainSpeed = 40* * 0.1

SUBROUTINE_0067:
  4: 0x0067 [0x1F] MOVE_ENTITY: EventEntity moves to X=-141.993*, Z=11.395*, Y=-8.800*
  5: 0x006F [0x1F] MOVE_ENTITY: Update entity position (mode=1)
  6: 0x0071 [0x6F] WAIT_FRAME_DELAY: Yield until WaitTime reaches zero
  7: 0x0072 [0x02] IF !(Work_Zone[83] == 0*) GOTO 0x0080
  8: 0x007A [0x1C] WAIT(60* ticks)
  9: 0x007D [0x01] GOTO 0x0083
 10: 0x0080 [0x1C] WAIT(30* ticks)

SUBROUTINE_0083:
 11: 0x0083 [0x1F] MOVE_ENTITY: EventEntity moves to X=-141.251*, Z=11.261*, Y=-8.800*
 12: 0x008B [0x1F] MOVE_ENTITY: Update entity position (mode=1)
 13: 0x008D [0x00] END_REQSTACK()
```
